# 17142625

## Common Data

| Field            | Value                 |
|------------------|-----------------------|
| Zone             | Grauberg [S] (ID: 89) |
| Block Size       | 20040 bytes           |
| Total Events     | 9                     |
| References Count | 280                   |

## List of Events

| Event ID              | Entrypoint   |   Size |   Instructions |
|-----------------------|--------------|--------|----------------|
| [65535](#event-65535) | 0x0000       |      1 |              1 |
| [33](#event-33)       | 0x0001       |   1053 |            133 |
| [26](#event-26)       | 0x041E       |  14319 |           1444 |
| [27](#event-27)       | 0x3C0D       |    351 |             49 |
| [30](#event-30)       | 0x3D6C       |    202 |             34 |
| [31](#event-31)       | 0x3E36       |     11 |              5 |
| [32](#event-32)       | 0x3E41       |   1320 |            152 |
| [39](#event-39)       | 0x4369       |   1091 |            149 |
| [46](#event-46)       | 0x47AC       |    520 |             79 |

## DAT References (imed_data)

|   Index | Hex Value   |   Dec Value |
|---------|-------------|-------------|
|       0 | 0x0001      |           1 |
|       1 | 0x0013      |          19 |
|       2 | 0x0014      |          20 |
|       3 | 0x0002      |           2 |
|       4 | 0x001E      |          30 |
|       5 | 0x005A      |          90 |
|       6 | 0x01FF      |         511 |
|       7 | 0x0000      |           0 |
|       8 | 0x00F0      |         240 |
|       9 | 0x0057      |          87 |
|      10 | 0x012C      |         300 |
|      11 | 0x01A4      |         420 |
|      12 | 0x00B6      |         182 |
|      13 | 0x00FF      |         255 |
|      14 | 0x8C8CA     |      575690 |
|      15 | 0xFFFC7693  |  4294735507 |
|      16 | 0x88B7      |       34999 |
|      17 | 0x0537      |        1335 |
|      18 | 0x8CD79     |      576889 |
|      19 | 0xFFFC82A0  |  4294738592 |
|      20 | 0x8C9F      |       35999 |
|      21 | 0x0540      |        1344 |
|      22 | 0x0005      |           5 |
|      23 | 0x8C96A     |      575850 |
|      24 | 0xFFFC7CDF  |  4294737119 |
|      25 | 0x88B8      |       35000 |
|      26 | 0x053F      |        1343 |
|      27 | 0x0006      |           6 |
|      28 | 0x0056      |          86 |
|      29 | 0x010E      |         270 |
|      30 | 0x009F      |         159 |
|      31 | 0x20C2      |        8386 |
|      32 | 0x20C3      |        8387 |
|      33 | 0x0003      |           3 |
|      34 | 0x0004      |           4 |
|      35 | 0x0007      |           7 |
|      36 | 0x0008      |           8 |
|      37 | 0x20C4      |        8388 |
|      38 | 0x002D      |          45 |
|      39 | 0x0586      |        1414 |
|      40 | 0x003C      |          60 |
|      41 | 0x0096      |         150 |
|      42 | 0x0059      |          89 |
|      43 | 0x00C8      |         200 |
|      44 | 0x0078      |         120 |
|      45 | 0xFFFE2EE3  |  4294848227 |
|      46 | 0x8E521     |      582945 |
|      47 | 0xFFFFE390  |  4294960016 |
|      48 | 0x0875      |        2165 |
|      49 | 0xFFFE11B9  |  4294840761 |
|      50 | 0x8EAF2     |      584434 |
|      51 | 0xFFFFE5A2  |  4294960546 |
|      52 | 0x003F      |          63 |
|      53 | 0xFFFE1791  |  4294842257 |
|      54 | 0x8F7F5     |      587765 |
|      55 | 0x0254      |         596 |
|      56 | 0xFFFE1496  |  4294841494 |
|      57 | 0x8D5E9     |      579049 |
|      58 | 0xFFFFE4DB  |  4294960347 |
|      59 | 0x0EAF      |        3759 |
|      60 | 0x0213      |         531 |
|      61 | 0x000F      |          15 |
|      62 | 0x2081      |        8321 |
|      63 | 0x2082      |        8322 |
|      64 | 0xFFFE3E50  |  4294852176 |
|      65 | 0x8E834     |      583732 |
|      66 | 0xFFFFE3E1  |  4294960097 |
|      67 | 0x080E      |        2062 |
|      68 | 0xFFFE2DCC  |  4294847948 |
|      69 | 0x8E932     |      583986 |
|      70 | 0xFFFFE3DE  |  4294960094 |
|      71 | 0xFFFE35E6  |  4294850022 |
|      72 | 0x8ED9C     |      585116 |
|      73 | 0xFFFFE36D  |  4294959981 |
|      74 | 0xFFFE2596  |  4294845846 |
|      75 | 0x8D9E5     |      580069 |
|      76 | 0xFFFFE46B  |  4294960235 |
|      77 | 0x0822      |        2082 |
|      78 | 0xFFFE1A5A  |  4294842970 |
|      79 | 0x8D740     |      579392 |
|      80 | 0xFFFFE43F  |  4294960191 |
|      81 | 0xFFFE2898  |  4294846616 |
|      82 | 0x8EDDF     |      585183 |
|      83 | 0xFFFFE407  |  4294960135 |
|      84 | 0xFFFE2B83  |  4294847363 |
|      85 | 0x94CBD     |      609469 |
|      86 | 0xFFFFE1D0  |  4294959568 |
|      87 | 0x0872      |        2162 |
|      88 | 0xFFFFE636  |  4294960694 |
|      89 | 0xFFFFE56E  |  4294960494 |
|      90 | 0x0367      |         871 |
|      91 | 0x0068      |         104 |
|      92 | 0x022A      |         554 |
|      93 | 0x2083      |        8323 |
|      94 | 0x2084      |        8324 |
|      95 | 0x0064      |         100 |
|      96 | 0x051F      |        1311 |
|      97 | 0x2085      |        8325 |
|      98 | 0x2086      |        8326 |
|      99 | 0x2087      |        8327 |
|     100 | 0xFFFE23A7  |  4294845351 |
|     101 | 0x8E953     |      584019 |
|     102 | 0xFFFFE488  |  4294960264 |
|     103 | 0xFFFE1D2A  |  4294843690 |
|     104 | 0x8F32E     |      586542 |
|     105 | 0xFFFFE56C  |  4294960492 |
|     106 | 0x080F      |        2063 |
|     107 | 0x0BB6      |        2998 |
|     108 | 0x0520      |        1312 |
|     109 | 0x0049      |          73 |
|     110 | 0x00B4      |         180 |
|     111 | 0x00D2      |         210 |
|     112 | 0x0060      |          96 |
|     113 | 0x0053      |          83 |
|     114 | 0x005D      |          93 |
|     115 | 0x0067      |         103 |
|     116 | 0x0071      |         113 |
|     117 | 0x007B      |         123 |
|     118 | 0x0085      |         133 |
|     119 | 0x2088      |        8328 |
|     120 | 0x0B2B      |        2859 |
|     121 | 0x0069      |         105 |
|     122 | 0x0082      |         130 |
|     123 | 0x0028      |          40 |
|     124 | 0x008C      |         140 |
|     125 | 0x007A      |         122 |
|     126 | 0x0046      |          70 |
|     127 | 0x076C      |        1900 |
|     128 | 0xFFFE2F8C  |  4294848396 |
|     129 | 0x8E74C     |      583500 |
|     130 | 0xFFFFE376  |  4294959990 |
|     131 | 0x0C06      |        3078 |
|     132 | 0xFFFE2F57  |  4294848343 |
|     133 | 0x8E8AD     |      583853 |
|     134 | 0xFFFFE4A8  |  4294960296 |
|     135 | 0xFFFFE0C0  |  4294959296 |
|     136 | 0x2089      |        8329 |
|     137 | 0xFFFFE3AC  |  4294960044 |
|     138 | 0x208A      |        8330 |
|     139 | 0x0048      |          72 |
|     140 | 0x00AE      |         174 |
|     141 | 0xFFFFDAE4  |  4294957796 |
|     142 | 0xFFFE3352  |  4294849362 |
|     143 | 0x8E959     |      584025 |
|     144 | 0xFFFFE3DB  |  4294960091 |
|     145 | 0x208B      |        8331 |
|     146 | 0x0BB7      |        2999 |
|     147 | 0x0052      |          82 |
|     148 | 0x005C      |          92 |
|     149 | 0x0066      |         102 |
|     150 | 0x0070      |         112 |
|     151 | 0x0BB8      |        3000 |
|     152 | 0x0084      |         132 |
|     153 | 0x00DC      |         220 |
|     154 | 0xFFFFE3C0  |  4294960064 |
|     155 | 0x000A      |          10 |
|     156 | 0x208C      |        8332 |
|     157 | 0x208D      |        8333 |
|     158 | 0x0B29      |        2857 |
|     159 | 0x208E      |        8334 |
|     160 | 0x208F      |        8335 |
|     161 | 0x2090      |        8336 |
|     162 | 0x0B2A      |        2858 |
|     163 | 0x2091      |        8337 |
|     164 | 0x2092      |        8338 |
|     165 | 0x0857      |        2135 |
|     166 | 0x2093      |        8339 |
|     167 | 0x2094      |        8340 |
|     168 | 0xFFFE2DC7  |  4294847943 |
|     169 | 0x8EC4B     |      584779 |
|     170 | 0xFFFFE38F  |  4294960015 |
|     171 | 0x0BB9      |        3001 |
|     172 | 0x2095      |        8341 |
|     173 | 0x2096      |        8342 |
|     174 | 0x2097      |        8343 |
|     175 | 0x2098      |        8344 |
|     176 | 0x2099      |        8345 |
|     177 | 0x0584      |        1412 |
|     178 | 0x209A      |        8346 |
|     179 | 0x209B      |        8347 |
|     180 | 0x209C      |        8348 |
|     181 | 0x0024      |          36 |
|     182 | 0x209D      |        8349 |
|     183 | 0x209E      |        8350 |
|     184 | 0x209F      |        8351 |
|     185 | 0x051E      |        1310 |
|     186 | 0x20A0      |        8352 |
|     187 | 0x20A1      |        8353 |
|     188 | 0x20A2      |        8354 |
|     189 | 0x20A3      |        8355 |
|     190 | 0x00C3      |         195 |
|     191 | 0xFFFC2847  |  4294715463 |
|     192 | 0x8ECD2     |      584914 |
|     193 | 0xFFFE5250  |  4294857296 |
|     194 | 0x07E9      |        2025 |
|     195 | 0xFFFDB028  |  4294815784 |
|     196 | 0x8D742     |      579394 |
|     197 | 0xFFFF44BA  |  4294919354 |
|     198 | 0x0874      |        2164 |
|     199 | 0x0585      |        1413 |
|     200 | 0x00FD      |         253 |
|     201 | 0x20A4      |        8356 |
|     202 | 0x20A5      |        8357 |
|     203 | 0x20A6      |        8358 |
|     204 | 0x20A7      |        8359 |
|     205 | 0x20A8      |        8360 |
|     206 | 0xFFFE23A6  |  4294845350 |
|     207 | 0x8E78F     |      583567 |
|     208 | 0xFFFFE48C  |  4294960268 |
|     209 | 0x0FDB      |        4059 |
|     210 | 0xFFFE2001  |  4294844417 |
|     211 | 0x8EC6E     |      584814 |
|     212 | 0xFFFFE509  |  4294960393 |
|     213 | 0x0C8B      |        3211 |
|     214 | 0xFFFE1EF5  |  4294844149 |
|     215 | 0x8E411     |      582673 |
|     216 | 0xFFFFE4EE  |  4294960366 |
|     217 | 0x0450      |        1104 |
|     218 | 0xFFFE3177  |  4294848887 |
|     219 | 0x8EF4A     |      585546 |
|     220 | 0xFFFFE342  |  4294959938 |
|     221 | 0x06C2      |        1730 |
|     222 | 0x20A9      |        8361 |
|     223 | 0x20AA      |        8362 |
|     224 | 0xFFFDDA6D  |  4294826605 |
|     225 | 0x89701     |      562945 |
|     226 | 0xFFFFE542  |  4294960450 |
|     227 | 0x0AEF      |        2799 |
|     228 | 0xFFFDD773  |  4294825843 |
|     229 | 0x89CBF     |      564415 |
|     230 | 0x0AA8      |        2728 |
|     231 | 0x0226      |         550 |
|     232 | 0x03AE      |         942 |
|     233 | 0x2057      |        8279 |
|     234 | 0x007F      |         127 |
|     235 | 0x2058      |        8280 |
|     236 | 0xFFFDC793  |  4294821779 |
|     237 | 0x856D6     |      546518 |
|     238 | 0xFFFFCA6D  |  4294953581 |
|     239 | 0x2059      |        8281 |
|     240 | 0x0578      |        1400 |
|     241 | 0x0225      |         549 |
|     242 | 0x0B16      |        2838 |
|     243 | 0x00C9      |         201 |
|     244 | 0x00D7      |         215 |
|     245 | 0x0214      |         532 |
|     246 | 0x20C5      |        8389 |
|     247 | 0x20C6      |        8390 |
|     248 | 0x06C4      |        1732 |
|     249 | 0x20C7      |        8391 |
|     250 | 0x20C8      |        8392 |
|     251 | 0x20C9      |        8393 |
|     252 | 0x20CA      |        8394 |
|     253 | 0x40000000  |  1073741824 |
|     254 | 0x2DB1      |       11697 |
|     255 | 0x20EC      |        8428 |
|     256 | 0x0010      |          16 |
|     257 | 0x20ED      |        8429 |
|     258 | 0x0011      |          17 |
|     259 | 0x0020      |          32 |
|     260 | 0x20CB      |        8395 |
|     261 | 0x20CC      |        8396 |
|     262 | 0x20CE      |        8398 |
|     263 | 0x20CD      |        8397 |
|     264 | 0xFFFDBE5D  |  4294819421 |
|     265 | 0x8CE5B     |      577115 |
|     266 | 0xFFFFE36E  |  4294959982 |
|     267 | 0x0768      |        1896 |
|     268 | 0x0230      |         560 |
|     269 | 0x009A      |         154 |
|     270 | 0x20CF      |        8399 |
|     271 | 0x0099      |         153 |
|     272 | 0x20D0      |        8400 |
|     273 | 0x20D1      |        8401 |
|     274 | 0x20D2      |        8402 |
|     275 | 0x20D3      |        8403 |
|     276 | 0x20D4      |        8404 |
|     277 | 0x20D5      |        8405 |
|     278 | 0x0258      |         600 |
|     279 | 0x007C      |         124 |

## String References

- **8279**: You immerse $0 in the spring.
- **8280**: $0 is immersed in the spring.
- **8281**: An object beneath the surface gives off a faint, shimmering light.
- **8393**: What will you do? [I need time to consider./Have $3 imbued.]
- **8396**: Art thou certain? [Aye./Nay.]
- **8399**: The air around you shimmers to life!
- **8400**: If you wish to obtain the $3 anew, you must retrace the river of memories back to the mission "Maiden of the Dusk".
- **8401**: By returning to this memory, your progress in "Wings of the Goddess" will revert to the point before the battlefield for "Maiden of the Dusk".
- **8402**: You will then have the opportunity to once again clear the battlefield and obtain the mission reward.
- **8403**: With this in mind, do you choose to retrace your memories back to the mission "Maiden of the Dusk"?
- **8404**: Retrace your memories? [I'm not ready./Yes, take me back.]
- **8405**: Really retrace your memories? [Now that I think about it...no./Make it so.]
- **8428**: Select first augment: [Return./Accuracy+4./Attack+4./Ranged Accuracy+4./Ranged Attack+4./Magic Accuracy+4./"Magic Atk. Bonus"+4./HP+25./MP+25.]
- **8429**: Select second augment: [Return./Latent effect: "Regain"./Latent effect: "Refresh"./Occ. grants dmg. bonus based on TP +5%./TP Bonus +250./Occ. maximizes magic accuracy +3%./Occ. quickens spellcasting +3%./"Counter"+3./Occ. inc. resist. to all stat. ailments +5.]

## Events

### Event 65535

#### Metadata

| Field        | Value   |
|--------------|---------|
| Entrypoint   | 0x0000  |
| Data Size    | 1 bytes |
| Instructions | 1       |

```
      00 01 02 03 04 05 06 07  08 09 0A 0B 0C 0D 0E 0F
      -- -- -- -- -- -- -- --  -- -- -- -- -- -- -- --
0000: 00                                                .               
```

#### Opcodes

```
  0: 0x0000 [0x00] END_REQSTACK()
```

### Event 33

#### Metadata

| Field        | Value      |
|--------------|------------|
| Entrypoint   | 0x0001     |
| Data Size    | 1053 bytes |
| Instructions | 133        |

```
      00 01 02 03 04 05 06 07  08 09 0A 0B 0C 0D 0E 0F
      -- -- -- -- -- -- -- --  -- -- -- -- -- -- -- --
0000:    42 1A 3B 41 03 01 10  00 80 43 00 43 01 03 00   B.;A.....C.C...
0010: 00 09 10 46 01 29 10 F0  FF FF 7F 21 03 01 00 02  ...F.).....!....
0020: 10 38 01 80 4E 00 F0 FF  FF 7F 77 02 80 03 80 1C  .8..N.....w.....
0030: 04 80 AB 09 1C 05 80 52  06 80 F0 FF FF 7F F0 FF  .......R........
0040: FF 7F 30 31 30 39 45 06  80 F0 FF FF 7F F0 FF FF  ..0109E.........
0050: 7F 30 31 30 69 07 80 1A  1A 41 1C 08 80 52 06 80  .010i....A...R..
0060: F0 FF FF 7F F0 FF FF 7F  30 31 30 69 CD 09 80 F0  ........010i....
0070: FF FF 7F F0 FF FF 7F 73  30 30 30 07 80 CD 09 80  .......s000.....
0080: F0 FF FF 7F F0 FF FF 7F  73 30 30 31 07 80 1C 0A  ........s001....
0090: 80 CF 09 80 F0 FF FF 7F  F0 FF FF 7F 73 30 30 30  ............s000
00A0: 45 06 80 F0 FF FF 7F F0  FF FF 7F 30 31 30 61 07  E..........010a.
00B0: 80 1C 0B 80 CD 09 80 F0  FF FF 7F F0 FF FF 7F 73  ...............s
00C0: 30 30 32 07 80 1A 3B 41  1C 08 80 CD 09 80 F0 FF  002...;A........
00D0: FF 7F F0 FF FF 7F 6B 69  6C 6C 07 80 52 06 80 F0  ......kill..R...
00E0: FF FF 7F F0 FF FF 7F 30  31 30 61 34 0C 80 77 0D  .......010a4..w.
00F0: 80 01 80 1C 04 80 AB 09  1C 05 80 2D F0 FF FF 7F  ...........-....
0100: F0 FF FF 7F 73 74 61 31  2D F0 FF FF 7F F0 FF FF  ....sta1-.......
0110: 7F 73 74 61 32 2D F0 FF  FF 7F F0 FF FF 7F 73 74  .sta2-........st
0120: 61 33 2D F0 FF FF 7F F0  FF FF 7F 73 74 61 34 27  a3-........sta4'
0130: 10 68 93 05 01 04 92 01  68 93 05 01 94 01 F0 FF  .h......h.......
0140: FF 7F 94 01 68 93 05 01  BA 68 93 05 01 0E 80 0F  ....h....h......
0150: 80 10 80 11 80 BA F0 FF  FF 7F 12 80 13 80 14 80  ................
0160: 15 80 80 F0 FF FF 7F 80  68 93 05 01 1C 16 80 29  ........h......)
0170: 10 F0 FF FF 7F 21 02 02  10 16 80 80 8E 01 BA F0  .....!..........
0180: FF FF 7F 17 80 18 80 19  80 1A 80 01 A6 01 02 02  ................
0190: 10 1B 80 80 A6 01 BA F0  FF FF 7F 17 80 18 80 19  ................
01A0: 80 1A 80 01 A6 01 52 06  80 F0 FF FF 7F F0 FF FF  ......R.........
01B0: 7F 30 31 30 61 45 06 80  F0 FF FF 7F F0 FF FF 7F  .010aE..........
01C0: 30 31 30 6A 07 80 CD 1C  80 F0 FF FF 7F F0 FF FF  010j............
01D0: 7F 73 30 30 31 07 80 1C  1D 80 5C 00 1E 80 5C 01  .s001.....\...\.
01E0: 1E 80 9A 52 06 80 F0 FF  FF 7F F0 FF FF 7F 30 31  ...R..........01
01F0: 30 6A 45 06 80 F0 FF FF  7F F0 FF FF 7F 30 31 30  0jE..........010
0200: 62 07 80 1A 1A 41 CD 1C  80 F0 FF FF 7F F0 FF FF  b....A..........
0210: 7F 73 30 30 32 07 80 1C  08 80 52 06 80 F0 FF FF  .s002.....R.....
0220: 7F F0 FF FF 7F 30 31 30  62 45 06 80 F0 FF FF 7F  .....010bE......
0230: F0 FF FF 7F 30 31 30 63  07 80 2B 68 93 05 01 1F  ....010c..+h....
0240: 80 23 52 06 80 F0 FF FF  7F F0 FF FF 7F 30 31 30  .#R..........010
0250: 63 45 06 80 F0 FF FF 7F  F0 FF FF 7F 30 31 30 64  cE..........010d
0260: 07 80 2B 68 93 05 01 20  80 23 52 06 80 F0 FF FF  ..+h... .#R.....
0270: 7F F0 FF FF 7F 30 31 30  64 02 02 10 00 80 80 95  .....010d.......
0280: 02 45 06 80 F0 FF FF 7F  F0 FF FF 7F 30 31 30 65  .E..........010e
0290: 07 80 01 59 03 02 02 10  03 80 80 B1 02 45 06 80  ...Y.........E..
02A0: F0 FF FF 7F F0 FF FF 7F  30 31 30 65 07 80 01 59  ........010e...Y
02B0: 03 02 02 10 21 80 80 CD  02 45 06 80 F0 FF FF 7F  ....!....E......
02C0: F0 FF FF 7F 31 68 69 31  07 80 01 59 03 02 02 10  ....1hi1...Y....
02D0: 22 80 80 E9 02 45 06 80  F0 FF FF 7F F0 FF FF 7F  "....E..........
02E0: 31 68 69 31 07 80 01 59  03 02 02 10 16 80 80 05  1hi1...Y........
02F0: 03 45 06 80 F0 FF FF 7F  F0 FF FF 7F 31 73 68 31  .E..........1sh1
0300: 07 80 01 59 03 02 02 10  1B 80 80 21 03 45 06 80  ...Y.......!.E..
0310: F0 FF FF 7F F0 FF FF 7F  31 73 68 31 07 80 01 59  ........1sh1...Y
0320: 03 02 02 10 23 80 80 3D  03 45 06 80 F0 FF FF 7F  ....#..=.E......
0330: F0 FF FF 7F 30 31 30 65  07 80 01 59 03 02 02 10  ....010e...Y....
0340: 24 80 80 59 03 45 06 80  F0 FF FF 7F F0 FF FF 7F  $..Y.E..........
0350: 31 68 69 31 07 80 01 59  03 4A 68 93 05 01 F0 FF  1hi1...Y.Jh.....
0360: FF 7F 4A F0 FF FF 7F 68  93 05 01 2B 68 93 05 01  ..J....h...+h...
0370: 25 80 1C 26 80 5B 27 80  68 93 05 01 68 93 05 01  %..&.['.h...h...
0380: 74 6C 62 30 1C 28 80 23  5B 27 80 68 93 05 01 68  tlb0.(.#['.h...h
0390: 93 05 01 74 6C 62 31 5D  07 80 0A 80 6E F0 FF FF  ...tlb1]....n...
03A0: 7F 23 80 99 F0 FF FF 7F  1C 29 80 1A 3B 41 1C 04  .#.......)..;A..
03B0: 80 53 68 93 05 01 68 93  05 01 74 6C 62 31 52 06  .Sh...h...tlb1R.
03C0: 80 F0 FF FF 7F F0 FF FF  7F 30 31 30 65 52 06 80  .........010eR..
03D0: F0 FF FF 7F F0 FF FF 7F  31 68 69 30 52 06 80 F0  ........1hi0R...
03E0: FF FF 7F F0 FF FF 7F 31  73 68 30 02 00 00 07 80  .......1sh0.....
03F0: 00 F7 03 30 01 16 04 35  2A 80 5C 00 07 80 5C 01  ...0...5*.\...\.
0400: 07 80 9A 46 00 45 2B 80  F0 FF FF 7F F0 FF FF 7F  ...F.E+.........
0410: 66 64 69 32 07 80 78 1C  00 80 AB 0A 21 00        fdi2..x.....!.  
```

#### Opcodes

```
  0: 0x0001 [0x42] SET_CLI_EVENT_CANCEL_DATA()
  1: 0x0002 [0x1A] CALL_SUBROUTINE(address=0x413B)
  2: 0x0005 [0x03] Work_Zone[1] = 1*
  3: 0x000A [0x43] SEND_EVENT_UPDATE: Send pending tag to server (packet 0x005B)
  4: 0x000C [0x43] SEND_EVENT_UPDATE: Check pending flag (skip if not pending)
  5: 0x000E [0x03] ExtData[1]->WorkLocal[0] = Work_Zone[9]
  6: 0x0013 [0x46] CAMERA_CONTROL: Disable user control
  7: 0x0015 [0x29] REQ_SET_WAIT(priority=0x10, entity_id=LocalPlayer, tag_num=0x21)
  8: 0x001C [0x03] ExtData[1]->WorkLocal[1] = Work_Zone[2]
  9: 0x0021 [0x38] SET_CLIENT_EVENT_MODE(mode=19*)
 10: 0x0024 [0x4E] SET_ENTITY_HIDE_FLAG: Show LocalPlayer
 11: 0x002A [0x77] SET_EVENT_TIME_WEATHER(hour=20*, weather=2*)
 12: 0x002F [0x1C] WAIT(30* ticks)
 13: 0x0032 [0xAB] EventEntity->UnknownFlag = 1 // Enable unknown flag
 14: 0x0034 [0x1C] WAIT(90* ticks)
 15: 0x0037 [0x52] END_LOAD_SCHEDULER: End scheduler "0109" with entities [LocalPlayer, LocalPlayer], work=511*
 16: 0x0046 [0x45] LOAD_SCHEDULED_TASK: Load scheduler "010i" with entities [LocalPlayer, LocalPlayer], work=[511*, 0*]
 17: 0x0057 [0x1A] CALL_SUBROUTINE(address=0x411A)
 18: 0x005A [0x1C] WAIT(240* ticks)
 19: 0x005D [0x52] END_LOAD_SCHEDULER: End scheduler "010i" with entities [LocalPlayer, LocalPlayer], work=511*
 20: 0x006C [0xCD] LOAD_SCHEDULED_TASK_ALT4: Load scheduler "s000" with entities [LocalPlayer, LocalPlayer], work=[87*, 0*]
 21: 0x007D [0xCD] LOAD_SCHEDULED_TASK_ALT4: Load scheduler "s001" with entities [LocalPlayer, LocalPlayer], work=[87*, 0*]
 22: 0x008E [0x1C] WAIT(300* ticks)
 23: 0x0091 [0xCF] END_LOAD_SCHEDULER_ALT4: End scheduler "s000" with entities [LocalPlayer, LocalPlayer], work=87*
 24: 0x00A0 [0x45] LOAD_SCHEDULED_TASK: Load scheduler "010a" with entities [LocalPlayer, LocalPlayer], work=[511*, 0*]
 25: 0x00B1 [0x1C] WAIT(420* ticks)
 26: 0x00B4 [0xCD] LOAD_SCHEDULED_TASK_ALT4: Load scheduler "s002" with entities [LocalPlayer, LocalPlayer], work=[87*, 0*]
 27: 0x00C5 [0x1A] CALL_SUBROUTINE(address=0x413B)
 28: 0x00C8 [0x1C] WAIT(240* ticks)
 29: 0x00CB [0xCD] LOAD_SCHEDULED_TASK_ALT4: Load scheduler "kill" with entities [LocalPlayer, LocalPlayer], work=[87*, 0*]
 30: 0x00DC [0x52] END_LOAD_SCHEDULER: End scheduler "010a" with entities [LocalPlayer, LocalPlayer], work=511*
 31: 0x00EB [0x34] LOAD_UNLOAD_ZONE(zone_id=182*)
 32: 0x00EE [0x77] SET_EVENT_TIME_WEATHER(hour=255*, weather=19*)
 33: 0x00F3 [0x1C] WAIT(30* ticks)
 34: 0x00F6 [0xAB] EventEntity->UnknownFlag = 1 // Enable unknown flag
 35: 0x00F8 [0x1C] WAIT(90* ticks)
 36: 0x00FB [0x2D] CREATE_ZONE_SCHEDULER_TASK: Create scheduler "sta1" with entities [LocalPlayer, LocalPlayer]
 37: 0x0108 [0x2D] CREATE_ZONE_SCHEDULER_TASK: Create scheduler "sta2" with entities [LocalPlayer, LocalPlayer]
 38: 0x0115 [0x2D] CREATE_ZONE_SCHEDULER_TASK: Create scheduler "sta3" with entities [LocalPlayer, LocalPlayer]
 39: 0x0122 [0x2D] CREATE_ZONE_SCHEDULER_TASK: Create scheduler "sta4" with entities [LocalPlayer, LocalPlayer]
 40: 0x012F [0x27] REQ_SET(priority=0x10, entity_id=Cait Sith (ID: 17142632/0x01059368), tag_num=0x04)
 41: 0x0136 [0x92] Cait Sith (ID: 17142632/0x01059368)->Render.Flags3 ^= 0x01
 42: 0x013C [0x94] LocalPlayer->Render.Flags3 ^= 0x01
 43: 0x0142 [0x94] Cait Sith (ID: 17142632/0x01059368)->Render.Flags3 ^= 0x01
 44: 0x0148 [0xBA] SET_ENTITY_POSITION(entity_id=Cait Sith (ID: 17142632/0x01059368), pos_x=575.690*, pos_z=-231.789*, pos_y=34.999*, direction=117.3°*)
 45: 0x0155 [0xBA] SET_ENTITY_POSITION(entity_id=LocalPlayer, pos_x=576.889*, pos_z=-228.704*, pos_y=35.999*, direction=118.1°*)
 46: 0x0162 [0x80] LOAD_WAIT(entity=LocalPlayer)
 47: 0x0167 [0x80] LOAD_WAIT(entity=Cait Sith (ID: 17142632/0x01059368))
 48: 0x016C [0x1C] WAIT(5* ticks)
 49: 0x016F [0x29] REQ_SET_WAIT(priority=0x10, entity_id=LocalPlayer, tag_num=0x21)
 50: 0x0176 [0x02] IF !(Work_Zone[2] == 5*) GOTO 0x018E
 51: 0x017E [0xBA] SET_ENTITY_POSITION(entity_id=LocalPlayer, pos_x=575.850*, pos_z=-230.177*, pos_y=35.000*, direction=118.0°*)
 52: 0x018B [0x01] GOTO 0x01A6
 53: 0x018E [0x02] IF !(Work_Zone[2] == 6*) GOTO 0x01A6
 54: 0x0196 [0xBA] SET_ENTITY_POSITION(entity_id=LocalPlayer, pos_x=575.850*, pos_z=-230.177*, pos_y=35.000*, direction=118.0°*)
 55: 0x01A3 [0x01] GOTO 0x01A6

SUBROUTINE_01A6:
 56: 0x01A6 [0x52] END_LOAD_SCHEDULER: End scheduler "010a" with entities [LocalPlayer, LocalPlayer], work=511*
 57: 0x01B5 [0x45] LOAD_SCHEDULED_TASK: Load scheduler "010j" with entities [LocalPlayer, LocalPlayer], work=[511*, 0*]
 58: 0x01C6 [0xCD] LOAD_SCHEDULED_TASK_ALT4: Load scheduler "s001" with entities [LocalPlayer, LocalPlayer], work=[86*, 0*]
 59: 0x01D7 [0x1C] WAIT(270* ticks)
 60: 0x01DA [0x5C] MUSIC_CONTROL: Set Idle (Day) music to song 159*
 61: 0x01DE [0x5C] MUSIC_CONTROL: Set Idle (Night) music to song 159*
 62: 0x01E2 [0x9A] WAIT_MUSIC_SERVER()
 63: 0x01E3 [0x52] END_LOAD_SCHEDULER: End scheduler "010j" with entities [LocalPlayer, LocalPlayer], work=511*
 64: 0x01F2 [0x45] LOAD_SCHEDULED_TASK: Load scheduler "010b" with entities [LocalPlayer, LocalPlayer], work=[511*, 0*]
 65: 0x0203 [0x1A] CALL_SUBROUTINE(address=0x411A)
 66: 0x0206 [0xCD] LOAD_SCHEDULED_TASK_ALT4: Load scheduler "s002" with entities [LocalPlayer, LocalPlayer], work=[86*, 0*]
 67: 0x0217 [0x1C] WAIT(240* ticks)
 68: 0x021A [0x52] END_LOAD_SCHEDULER: End scheduler "010b" with entities [LocalPlayer, LocalPlayer], work=511*
 69: 0x0229 [0x45] LOAD_SCHEDULED_TASK: Load scheduler "010c" with entities [LocalPlayer, LocalPlayer], work=[511*, 0*]
 70: 0x023A [0x2B] Cait Sith (ID: 17142632/0x01059368) [8386*]:
    → "That blinding column of light Atomos just sent lancing down to the surface..."
 71: 0x0241 [0x23] WAIT_FOR_DIALOG_INTERACTION
 72: 0x0242 [0x52] END_LOAD_SCHEDULER: End scheduler "010c" with entities [LocalPlayer, LocalPlayer], work=511*
 73: 0x0251 [0x45] LOAD_SCHEDULED_TASK: Load scheduler "010d" with entities [LocalPlayer, LocalPlayer], work=[511*, 0*]
 74: 0x0262 [0x2B] Cait Sith (ID: 17142632/0x01059368) [8387*]:
    → "It appears to have fallen in the vicinity of Grauberg, if this regal feline's not mistaken. My eyes saw true."
 75: 0x0269 [0x23] WAIT_FOR_DIALOG_INTERACTION
 76: 0x026A [0x52] END_LOAD_SCHEDULER: End scheduler "010d" with entities [LocalPlayer, LocalPlayer], work=511*
 77: 0x0279 [0x02] IF !(Work_Zone[2] == 1*) GOTO 0x0295
 78: 0x0281 [0x45] LOAD_SCHEDULED_TASK: Load scheduler "010e" with entities [LocalPlayer, LocalPlayer], work=[511*, 0*]
 79: 0x0292 [0x01] GOTO 0x0359
 80: 0x0295 [0x02] IF !(Work_Zone[2] == 2*) GOTO 0x02B1
 81: 0x029D [0x45] LOAD_SCHEDULED_TASK: Load scheduler "010e" with entities [LocalPlayer, LocalPlayer], work=[511*, 0*]
 82: 0x02AE [0x01] GOTO 0x0359
 83: 0x02B1 [0x02] IF !(Work_Zone[2] == 3*) GOTO 0x02CD
 84: 0x02B9 [0x45] LOAD_SCHEDULED_TASK: Load scheduler "1hi1" with entities [LocalPlayer, LocalPlayer], work=[511*, 0*]
 85: 0x02CA [0x01] GOTO 0x0359
 86: 0x02CD [0x02] IF !(Work_Zone[2] == 4*) GOTO 0x02E9
 87: 0x02D5 [0x45] LOAD_SCHEDULED_TASK: Load scheduler "1hi1" with entities [LocalPlayer, LocalPlayer], work=[511*, 0*]
 88: 0x02E6 [0x01] GOTO 0x0359
 89: 0x02E9 [0x02] IF !(Work_Zone[2] == 5*) GOTO 0x0305
 90: 0x02F1 [0x45] LOAD_SCHEDULED_TASK: Load scheduler "1sh1" with entities [LocalPlayer, LocalPlayer], work=[511*, 0*]
 91: 0x0302 [0x01] GOTO 0x0359
 92: 0x0305 [0x02] IF !(Work_Zone[2] == 6*) GOTO 0x0321
 93: 0x030D [0x45] LOAD_SCHEDULED_TASK: Load scheduler "1sh1" with entities [LocalPlayer, LocalPlayer], work=[511*, 0*]
 94: 0x031E [0x01] GOTO 0x0359
 95: 0x0321 [0x02] IF !(Work_Zone[2] == 7*) GOTO 0x033D
 96: 0x0329 [0x45] LOAD_SCHEDULED_TASK: Load scheduler "010e" with entities [LocalPlayer, LocalPlayer], work=[511*, 0*]
 97: 0x033A [0x01] GOTO 0x0359
 98: 0x033D [0x02] IF !(Work_Zone[2] == 8*) GOTO 0x0359
 99: 0x0345 [0x45] LOAD_SCHEDULED_TASK: Load scheduler "1hi1" with entities [LocalPlayer, LocalPlayer], work=[511*, 0*]
100: 0x0356 [0x01] GOTO 0x0359

SUBROUTINE_0359:
101: 0x0359 [0x4A] Cait Sith (ID: 17142632/0x01059368) looks at LocalPlayer
102: 0x0362 [0x4A] LocalPlayer looks at Cait Sith (ID: 17142632/0x01059368)
103: 0x036B [0x2B] Cait Sith (ID: 17142632/0x01059368) [8388*]:
    → "Let's hasten there, <Player>, and ascertain the nature of this phenomenon. Find out what's a-paw."
104: 0x0372 [0x1C] WAIT(45* ticks)
105: 0x0375 [0x5B] LOAD_EXT_SCHEDULER: Load scheduler "tlb0" with entities [Cait Sith (ID: 17142632/0x01059368), Cait Sith (ID: 17142632/0x01059368)], work=1414*
106: 0x0384 [0x1C] WAIT(60* ticks)
107: 0x0387 [0x23] WAIT_FOR_DIALOG_INTERACTION
108: 0x0388 [0x5B] LOAD_EXT_SCHEDULER: Load scheduler "tlb1" with entities [Cait Sith (ID: 17142632/0x01059368), Cait Sith (ID: 17142632/0x01059368)], work=1414*
109: 0x0397 [0x5D] SET_MUSIC_VOLUME(volume=0*, fade_time=300*)
110: 0x039C [0x6E] LocalPlayer uses emote 7*
111: 0x03A3 [0x99] Wait for LocalPlayer animation to complete
112: 0x03A8 [0x1C] WAIT(150* ticks)
113: 0x03AB [0x1A] CALL_SUBROUTINE(address=0x413B)
114: 0x03AE [0x1C] WAIT(30* ticks)
115: 0x03B1 [0x53] WAIT_SCHEDULER_TASK: Wait for scheduler "tlb1" with entities [Cait Sith (ID: 17142632/0x01059368), Cait Sith (ID: 17142632/0x01059368)]
116: 0x03BE [0x52] END_LOAD_SCHEDULER: End scheduler "010e" with entities [LocalPlayer, LocalPlayer], work=511*
117: 0x03CD [0x52] END_LOAD_SCHEDULER: End scheduler "1hi0" with entities [LocalPlayer, LocalPlayer], work=511*
118: 0x03DC [0x52] END_LOAD_SCHEDULER: End scheduler "1sh0" with entities [LocalPlayer, LocalPlayer], work=511*
119: 0x03EB [0x02] IF !(ExtData[1]->WorkLocal[0] == 0*) GOTO 0x03F7
120: 0x03F3 [0x30] SET_UCOFF_CONTINUE_ZERO()
121: 0x03F4 [0x01] GOTO 0x0416
122: 0x03F7 [0x35] LOAD_ZONE_NO_CLOSE(zone_id=89*)
123: 0x03FA [0x5C] MUSIC_CONTROL: Set Idle (Day) music to song 0*
124: 0x03FE [0x5C] MUSIC_CONTROL: Set Idle (Night) music to song 0*
125: 0x0402 [0x9A] WAIT_MUSIC_SERVER()
126: 0x0403 [0x46] CAMERA_CONTROL: Restore default settings
127: 0x0405 [0x45] LOAD_SCHEDULED_TASK: Load scheduler "fdi2" with entities [LocalPlayer, LocalPlayer], work=[200*, 0*]

SUBROUTINE_0416:
128: 0x0416 [0x78] ENABLE_GAME_TIMER_RESET_WEATHER()
129: 0x0417 [0x1C] WAIT(1* ticks)
130: 0x041A [0xAB] EventEntity->UnknownFlag = 0 // Disable unknown flag
131: 0x041C [0x21] END_EVENT
132: 0x041D [0x00] END_REQSTACK()
```

### Event 26

#### Metadata

| Field        | Value       |
|--------------|-------------|
| Entrypoint   | 0x041E      |
| Data Size    | 14319 bytes |
| Instructions | 1444        |

```
      00 01 02 03 04 05 06 07  08 09 0A 0B 0C 0D 0E 0F
      -- -- -- -- -- -- -- --  -- -- -- -- -- -- -- --
0410:                                            42 5D                B]
0420: 07 80 2C 80 1A 3B 41 46  01 38 01 80 2F 00 25 93  ..,..;AF.8../.%.
0430: 05 01 2F 00 26 93 05 01  2F 00 27 93 05 01 4E 00  ../.&.../.'...N.
0440: 25 93 05 01 4E 00 26 93  05 01 4E 00 27 93 05 01  %...N.&...N.'...
0450: 94 01 F0 FF FF 7F 92 01  25 93 05 01 02 09 10 00  ........%.......
0460: 80 00 6F 05 BA F0 FF FF  7F 2D 80 2E 80 2F 80 30  ..o......-.../.0
0470: 80 BA 25 93 05 01 31 80  32 80 33 80 34 80 BA 26  ..%...1.2.3.4..&
0480: 93 05 01 35 80 36 80 33  80 37 80 BA 27 93 05 01  ...5.6.3.7..'...
0490: 38 80 39 80 3A 80 3B 80  80 F0 FF FF 7F 80 25 93  8.9.:.;.......%.
04A0: 05 01 80 26 93 05 01 80  27 93 05 01 1C 04 80 27  ...&....'......'
04B0: 05 25 93 05 01 0D 1C 16  80 27 05 26 93 05 01 0C  .%.......'.&....
04C0: 1C 16 80 27 05 27 93 05  01 0C 45 3C 80 F8 FF FF  ...'.'....E<....
04D0: 7F F8 FF FF 7F 73 30 38  39 07 80 1A 1A 41 2A 05  .....s089....A*.
04E0: 25 93 05 01 55 3C 80 F8  FF FF 7F F8 FF FF 7F 73  %...U<.........s
04F0: 30 38 39 45 3C 80 F8 FF  FF 7F F8 FF FF 7F 73 30  089E<.........s0
0500: 39 30 07 80 4A F0 FF FF  7F 25 93 05 01 1C 3D 80  90..J....%....=.
0510: 2B 25 93 05 01 3E 80 23  1C 3D 80 52 3C 80 F8 FF  +%...>.#.=.R<...
0520: FF 7F F8 FF FF 7F 73 30  39 30 45 3C 80 F8 FF FF  ......s090E<....
0530: 7F F8 FF FF 7F 73 30 39  31 07 80 2B 25 93 05 01  .....s091..+%...
0540: 3F 80 23 1A 3B 41 1C 04  80 52 3C 80 F8 FF FF 7F  ?.#.;A...R<.....
0550: F8 FF FF 7F 73 30 39 31  5C 00 07 80 5C 01 07 80  ....s091\...\...
0560: 5C 02 07 80 5C 03 07 80  9A 06 01 10 01 EE 3B 77  \...\.........;w
0570: 0D 80 00 80 2F 00 63 93  05 01 2F 00 64 93 05 01  ..../.c.../.d...
0580: 2F 00 65 93 05 01 4E 00  63 93 05 01 4E 00 65 93  /.e...N.c...N.e.
0590: 05 01 22 00 94 01 63 93  05 01 94 01 64 93 05 01  .."...c.....d...
05A0: 94 01 65 93 05 01 94 01  F0 FF FF 7F 27 05 F0 FF  ..e.........'...
05B0: FF 7F 2D 33 01 BA F0 FF  FF 7F 40 80 41 80 42 80  ..-3......@.A.B.
05C0: 43 80 BA 65 93 05 01 44  80 45 80 46 80 43 80 BA  C..e...D.E.F.C..
05D0: 63 93 05 01 47 80 48 80  49 80 43 80 BA 25 93 05  c...G.H.I.C..%..
05E0: 01 4A 80 4B 80 4C 80 4D  80 BA 26 93 05 01 4E 80  .J.K.L.M..&...N.
05F0: 4F 80 50 80 4D 80 BA 27  93 05 01 51 80 52 80 53  O.P.M..'...Q.R.S
0600: 80 4D 80 BA 64 93 05 01  54 80 55 80 56 80 57 80  .M..d...T.U.V.W.
0610: 02 87 7F 16 80 80 24 06  37 44 80 45 80 58 80 43  ......$.7D.E.X.C
0620: 80 01 55 06 02 87 7F 1B  80 80 38 06 37 44 80 45  ..U.......8.7D.E
0630: 80 58 80 43 80 01 55 06  02 87 7F 23 80 80 4C 06  .X.C..U....#..L.
0640: 37 44 80 45 80 59 80 43  80 01 55 06 37 44 80 45  7D.E.Y.C..U.7D.E
0650: 80 46 80 43 80 80 F0 FF  FF 7F 80 63 93 05 01 80  .F.C.......c....
0660: 25 93 05 01 80 26 93 05  01 80 27 93 05 01 80 F8  %....&....'.....
0670: FF FF 7F 80 65 93 05 01  4A 63 93 05 01 65 93 05  ....e...Jc...e..
0680: 01 4A 25 93 05 01 65 93  05 01 4A 26 93 05 01 65  .J%...e...J&...e
0690: 93 05 01 4A 27 93 05 01  65 93 05 01 1C 04 80 5B  ...J'...e......[
06A0: 5A 80 65 93 05 01 65 93  05 01 75 6B 75 30 CD 5B  Z.e...e...uku0.[
06B0: 80 65 93 05 01 65 93 05  01 73 30 30 30 07 80 1C  .e...e...s000...
06C0: 28 80 5C 00 07 80 5C 01  07 80 5C 02 07 80 5C 03  (.\...\...\...\.
06D0: 07 80 9A 27 05 F0 FF FF  7F 30 45 3C 80 F8 FF FF  ...'.....0E<....
06E0: 7F F8 FF FF 7F 73 31 30  33 07 80 1A 1A 41 1C 2C  .....s103....A.,
06F0: 80 52 3C 80 F8 FF FF 7F  F8 FF FF 7F 73 31 30 33  .R<.........s103
0700: 45 3C 80 F8 FF FF 7F F8  FF FF 7F 73 31 30 34 07  E<.........s104.
0710: 80 CD 5B 80 65 93 05 01  65 93 05 01 73 30 30 31  ..[.e...e...s001
0720: 07 80 45 5C 80 65 93 05  01 65 93 05 01 68 69 6B  ..E\.e...e...hik
0730: 31 07 80 1C 29 80 52 3C  80 F8 FF FF 7F F8 FF FF  1...).R<........
0740: 7F 73 31 30 34 45 3C 80  F8 FF FF 7F F8 FF FF 7F  .s104E<.........
0750: 73 31 30 35 07 80 7C 00  63 93 05 01 2B 63 93 05  s105..|.c...+c..
0760: 01 5D 80 23 7C 01 63 93  05 01 52 3C 80 F8 FF FF  .].#|.c...R<....
0770: 7F F8 FF FF 7F 73 31 30  35 45 3C 80 F8 FF FF 7F  .....s105E<.....
0780: F8 FF FF 7F 73 31 30 36  07 80 2B 63 93 05 01 5E  ....s106..+c...^
0790: 80 23 52 3C 80 F8 FF FF  7F F8 FF FF 7F 73 31 30  .#R<.........s10
07A0: 36 45 3C 80 F8 FF FF 7F  F8 FF FF 7F 73 31 30 37  6E<.........s107
07B0: 07 80 CD 5B 80 65 93 05  01 65 93 05 01 73 74 30  ...[.e...e...st0
07C0: 31 07 80 45 5C 80 65 93  05 01 65 93 05 01 6B 68  1..E\.e...e...kh
07D0: 69 6B 07 80 1C 5F 80 81  00 63 93 05 01 5B 60 80  ik..._...c...[`.
07E0: 63 93 05 01 63 93 05 01  66 65 30 30 1C 02 80 5C  c...c...fe00...\
07F0: 00 26 80 5C 01 26 80 5C  02 26 80 5C 03 26 80 9A  .&.\.&.\.&.\.&..
0800: 52 3C 80 F8 FF FF 7F F8  FF FF 7F 73 31 30 37 45  R<.........s107E
0810: 3C 80 F8 FF FF 7F F8 FF  FF 7F 73 31 30 38 07 80  <.........s108..
0820: 2B 63 93 05 01 61 80 23  52 3C 80 F8 FF FF 7F F8  +c...a.#R<......
0830: FF FF 7F 73 31 30 38 45  3C 80 F8 FF FF 7F F8 FF  ...s108E<.......
0840: FF 7F 73 31 30 39 07 80  2B 63 93 05 01 62 80 23  ..s109..+c...b.#
0850: 5B 27 80 63 93 05 01 63  93 05 01 74 6C 62 30 52  ['.c...c...tlb0R
0860: 3C 80 F8 FF FF 7F F8 FF  FF 7F 73 31 30 39 45 3C  <.........s109E<
0870: 80 F8 FF FF 7F F8 FF FF  7F 73 31 31 30 07 80 2B  .........s110..+
0880: 63 93 05 01 63 80 1C 05  80 1A 3B 41 1C 04 80 52  c...c.....;A...R
0890: 3C 80 F8 FF FF 7F F8 FF  FF 7F 73 31 31 30 92 01  <.........s110..
08A0: F0 FF FF 7F 02 87 7F 16  80 80 BE 08 5B 5A 80 65  ............[Z.e
08B0: 93 05 01 65 93 05 01 75  6B 75 31 01 D8 08 02 87  ...e...uku1.....
08C0: 7F 1B 80 80 D8 08 5B 5A  80 65 93 05 01 65 93 05  ......[Z.e...e..
08D0: 01 75 6B 75 31 01 D8 08  6B 69 64 6C 30 63 93 05  .uku1...kidl0c..
08E0: 01 2F 00 62 93 05 01 4E  00 62 93 05 01 94 01 62  ./.b...N.b.....b
08F0: 93 05 01 27 05 62 93 05  01 11 BA 62 93 05 01 64  ...'.b.....b...d
0900: 80 65 80 66 80 57 80 BA  27 93 05 01 67 80 68 80  .e.f.W..'...g.h.
0910: 69 80 6A 80 BA F0 FF FF  7F 40 80 41 80 42 80 43  i.j......@.A.B.C
0920: 80 80 27 93 05 01 80 F0  FF FF 7F 4A 27 93 05 01  ..'........J'...
0930: 65 93 05 01 2C 62 93 05  01 62 93 05 01 77 70 6F  e...,b...b...wpo
0940: 66 81 00 62 93 05 01 7C  00 62 93 05 01 5B 6B 80  f..b...|.b...[k.
0950: 62 93 05 01 62 93 05 01  74 61 69 30 5B 6C 80 63  b...b...tai0[l.c
0960: 93 05 01 63 93 05 01 75  74 75 30 02 87 7F 16 80  ...c...utu0.....
0970: 80 87 09 45 3C 80 F8 FF  FF 7F F8 FF FF 7F 73 32  ...E<.........s2
0980: 34 31 07 80 01 B4 09 02  87 7F 1B 80 80 A3 09 45  41.............E
0990: 3C 80 F8 FF FF 7F F8 FF  FF 7F 73 32 34 31 07 80  <.........s241..
09A0: 01 B4 09 45 3C 80 F8 FF  FF 7F F8 FF FF 7F 73 32  ...E<.........s2
09B0: 32 35 07 80 1C 3D 80 1A  1A 41 1C 2C 80 52 3C 80  25...=...A.,.R<.
09C0: F8 FF FF 7F F8 FF FF 7F  73 32 32 35 52 3C 80 F8  ........s225R<..
09D0: FF FF 7F F8 FF FF 7F 73  32 34 31 45 3C 80 F8 FF  .......s241E<...
09E0: FF 7F F8 FF FF 7F 73 31  31 31 07 80 27 05 F0 FF  ......s111..'...
09F0: FF 7F 31 2A 05 F0 FF FF  7F 1C 04 80 52 3C 80 F8  ..1*........R<..
0A00: FF FF 7F F8 FF FF 7F 73  31 31 31 45 3C 80 F8 FF  .......s111E<...
0A10: FF 7F F8 FF FF 7F 73 31  31 32 07 80 1C 02 80 6B  ......s112.....k
0A20: 69 64 6C 30 63 93 05 01  BA F0 FF FF 7F 44 80 45  idl0c........D.E
0A30: 80 46 80 43 80 27 05 F0  FF FF 7F 32 1C 5F 80 52  .F.C.'.....2._.R
0A40: 3C 80 F8 FF FF 7F F8 FF  FF 7F 73 31 31 32 81 00  <.........s112..
0A50: F0 FF FF 7F 02 87 7F 00  80 80 66 0B 66 6D 80 F0  ..........f.fm..
0A60: FF FF 7F F0 FF FF 7F 64  61 6B 31 5B 5A 80 65 93  .......dak1[Z.e.
0A70: 05 01 65 93 05 01 68 6D  30 30 45 3C 80 F8 FF FF  ..e...hm00E<....
0A80: 7F F8 FF FF 7F 73 31 31  33 07 80 1C 6E 80 52 3C  .....s113...n.R<
0A90: 80 F8 FF FF 7F F8 FF FF  7F 73 31 31 33 45 3C 80  .........s113E<.
0AA0: F8 FF FF 7F F8 FF FF 7F  73 31 31 35 07 80 1C 2C  ........s115...,
0AB0: 80 52 3C 80 F8 FF FF 7F  F8 FF FF 7F 73 31 31 35  .R<.........s115
0AC0: 45 3C 80 F8 FF FF 7F F8  FF FF 7F 73 31 31 34 07  E<.........s114.
0AD0: 80 1C 6F 80 CD 70 80 F0  FF FF 7F F0 FF FF 7F 73  ..o..p.........s
0AE0: 30 30 30 07 80 52 3C 80  F8 FF FF 7F F8 FF FF 7F  000..R<.........
0AF0: 73 31 31 34 45 3C 80 F8  FF FF 7F F8 FF FF 7F 73  s114E<.........s
0B00: 31 31 36 07 80 45 5C 80  F0 FF FF 7F F0 FF FF 7F  116..E\.........
0B10: 77 69 6E 67 07 80 1C 28  80 81 01 63 93 05 01 5B  wing...(...c...[
0B20: 60 80 63 93 05 01 63 93  05 01 66 30 30 30 1C 2C  `.c...c...f000.,
0B30: 80 52 3C 80 F8 FF FF 7F  F8 FF FF 7F 73 31 31 36  .R<.........s116
0B40: 45 3C 80 F8 FF FF 7F F8  FF FF 7F 73 32 33 39 07  E<.........s239.
0B50: 80 1C 1D 80 52 3C 80 F8  FF FF 7F F8 FF FF 7F 73  ....R<.........s
0B60: 32 33 39 01 E4 12 02 87  7F 03 80 80 78 0C 66 71  239.........x.fq
0B70: 80 F0 FF FF 7F F0 FF FF  7F 64 61 6B 31 5B 5A 80  .........dak1[Z.
0B80: 65 93 05 01 65 93 05 01  68 66 30 30 45 3C 80 F8  e...e...hf00E<..
0B90: FF FF 7F F8 FF FF 7F 73  31 33 30 07 80 1C 29 80  .......s130...).
0BA0: 52 3C 80 F8 FF FF 7F F8  FF FF 7F 73 31 33 30 45  R<.........s130E
0BB0: 3C 80 F8 FF FF 7F F8 FF  FF 7F 73 31 33 31 07 80  <.........s131..
0BC0: 1C 2C 80 52 3C 80 F8 FF  FF 7F F8 FF FF 7F 73 31  .,.R<.........s1
0BD0: 33 31 45 3C 80 F8 FF FF  7F F8 FF FF 7F 73 31 33  31E<.........s13
0BE0: 32 07 80 1C 29 80 CD 70  80 F0 FF FF 7F F0 FF FF  2...)..p........
0BF0: 7F 73 30 30 30 07 80 52  3C 80 F8 FF FF 7F F8 FF  .s000..R<.......
0C00: FF 7F 73 31 33 32 45 3C  80 F8 FF FF 7F F8 FF FF  ..s132E<........
0C10: 7F 73 31 31 36 07 80 45  5C 80 F0 FF FF 7F F0 FF  .s116..E\.......
0C20: FF 7F 77 69 6E 67 07 80  1C 04 80 81 01 63 93 05  ..wing.......c..
0C30: 01 5B 60 80 63 93 05 01  63 93 05 01 66 30 30 30  .[`.c...c...f000
0C40: 1C 2C 80 52 3C 80 F8 FF  FF 7F F8 FF FF 7F 73 31  .,.R<.........s1
0C50: 31 36 45 3C 80 F8 FF FF  7F F8 FF FF 7F 73 32 33  16E<.........s23
0C60: 39 07 80 1C 1D 80 52 3C  80 F8 FF FF 7F F8 FF FF  9.....R<........
0C70: 7F 73 32 33 39 01 E4 12  02 87 7F 21 80 80 8A 0D  .s239......!....
0C80: 66 72 80 F0 FF FF 7F F0  FF FF 7F 64 61 6B 31 5B  fr.........dak1[
0C90: 5A 80 65 93 05 01 65 93  05 01 65 6D 30 30 45 3C  Z.e...e...em00E<
0CA0: 80 F8 FF FF 7F F8 FF FF  7F 73 31 33 34 07 80 1C  .........s134...
0CB0: 6F 80 52 3C 80 F8 FF FF  7F F8 FF FF 7F 73 31 33  o.R<.........s13
0CC0: 34 45 3C 80 F8 FF FF 7F  F8 FF FF 7F 73 31 33 35  4E<.........s135
0CD0: 07 80 1C 2C 80 52 3C 80  F8 FF FF 7F F8 FF FF 7F  ...,.R<.........
0CE0: 73 31 33 35 45 3C 80 F8  FF FF 7F F8 FF FF 7F 73  s135E<.........s
0CF0: 31 33 36 07 80 1C 6F 80  CD 70 80 F0 FF FF 7F F0  136...o..p......
0D00: FF FF 7F 73 30 30 30 07  80 52 3C 80 F8 FF FF 7F  ...s000..R<.....
0D10: F8 FF FF 7F 73 31 33 36  45 3C 80 F8 FF FF 7F F8  ....s136E<......
0D20: FF FF 7F 73 31 31 36 07  80 45 5C 80 F0 FF FF 7F  ...s116..E\.....
0D30: F0 FF FF 7F 77 69 6E 67  07 80 1C 04 80 81 01 63  ....wing.......c
0D40: 93 05 01 5B 60 80 63 93  05 01 63 93 05 01 66 30  ...[`.c...c...f0
0D50: 30 30 1C 2C 80 52 3C 80  F8 FF FF 7F F8 FF FF 7F  00.,.R<.........
0D60: 73 31 31 36 45 3C 80 F8  FF FF 7F F8 FF FF 7F 73  s116E<.........s
0D70: 31 35 30 07 80 1C 1D 80  52 3C 80 F8 FF FF 7F F8  150.....R<......
0D80: FF FF 7F 73 31 35 30 01  E4 12 02 87 7F 22 80 80  ...s150......"..
0D90: 9C 0E 66 73 80 F0 FF FF  7F F0 FF FF 7F 64 61 6B  ..fs.........dak
0DA0: 31 5B 5A 80 65 93 05 01  65 93 05 01 65 66 30 30  1[Z.e...e...ef00
0DB0: 45 3C 80 F8 FF FF 7F F8  FF FF 7F 73 31 33 34 07  E<.........s134.
0DC0: 80 1C 6F 80 52 3C 80 F8  FF FF 7F F8 FF FF 7F 73  ..o.R<.........s
0DD0: 31 33 34 45 3C 80 F8 FF  FF 7F F8 FF FF 7F 73 31  134E<.........s1
0DE0: 35 32 07 80 1C 2C 80 52  3C 80 F8 FF FF 7F F8 FF  52...,.R<.......
0DF0: FF 7F 73 31 35 32 45 3C  80 F8 FF FF 7F F8 FF FF  ..s152E<........
0E00: 7F 73 31 31 34 07 80 1C  6F 80 CD 70 80 F0 FF FF  .s114...o..p....
0E10: 7F F0 FF FF 7F 73 30 30  30 07 80 52 3C 80 F8 FF  .....s000..R<...
0E20: FF 7F F8 FF FF 7F 73 31  31 34 45 3C 80 F8 FF FF  ......s114E<....
0E30: 7F F8 FF FF 7F 73 31 31  36 07 80 45 5C 80 F0 FF  .....s116..E\...
0E40: FF 7F F0 FF FF 7F 77 69  6E 67 07 80 1C 04 80 81  ......wing......
0E50: 01 63 93 05 01 5B 60 80  63 93 05 01 63 93 05 01  .c...[`.c...c...
0E60: 66 30 30 30 1C 2C 80 52  3C 80 F8 FF FF 7F F8 FF  f000.,.R<.......
0E70: FF 7F 73 31 31 36 45 3C  80 F8 FF FF 7F F8 FF FF  ..s116E<........
0E80: 7F 73 31 35 30 07 80 1C  1D 80 52 3C 80 F8 FF FF  .s150.....R<....
0E90: 7F F8 FF FF 7F 73 31 35  30 01 E4 12 02 87 7F 16  .....s150.......
0EA0: 80 80 AE 0F 66 74 80 F0  FF FF 7F F0 FF FF 7F 64  ....ft.........d
0EB0: 61 6B 31 5B 5A 80 65 93  05 01 65 93 05 01 74 6D  ak1[Z.e...e...tm
0EC0: 66 30 45 3C 80 F8 FF FF  7F F8 FF FF 7F 73 31 35  f0E<.........s15
0ED0: 34 07 80 1C 29 80 52 3C  80 F8 FF FF 7F F8 FF FF  4...).R<........
0EE0: 7F 73 31 35 34 45 3C 80  F8 FF FF 7F F8 FF FF 7F  .s154E<.........
0EF0: 73 31 35 35 07 80 1C 29  80 52 3C 80 F8 FF FF 7F  s155...).R<.....
0F00: F8 FF FF 7F 73 31 35 35  45 3C 80 F8 FF FF 7F F8  ....s155E<......
0F10: FF FF 7F 73 31 35 36 07  80 1C 6E 80 CD 70 80 F0  ...s156...n..p..
0F20: FF FF 7F F0 FF FF 7F 73  30 30 30 07 80 52 3C 80  .......s000..R<.
0F30: F8 FF FF 7F F8 FF FF 7F  73 31 35 36 45 3C 80 F8  ........s156E<..
0F40: FF FF 7F F8 FF FF 7F 73  31 35 37 07 80 45 5C 80  .......s157..E\.
0F50: F0 FF FF 7F F0 FF FF 7F  77 69 6E 67 07 80 1C 04  ........wing....
0F60: 80 81 01 63 93 05 01 5B  60 80 63 93 05 01 63 93  ...c...[`.c...c.
0F70: 05 01 66 30 30 30 1C 2C  80 52 3C 80 F8 FF FF 7F  ..f000.,.R<.....
0F80: F8 FF FF 7F 73 31 35 37  45 3C 80 F8 FF FF 7F F8  ....s157E<......
0F90: FF FF 7F 73 32 34 30 07  80 1C 1D 80 52 3C 80 F8  ...s240.....R<..
0FA0: FF FF 7F F8 FF FF 7F 73  32 34 30 01 E4 12 02 87  .......s240.....
0FB0: 7F 1B 80 80 C0 10 66 74  80 F0 FF FF 7F F0 FF FF  ......ft........
0FC0: 7F 64 61 6B 31 5B 5A 80  65 93 05 01 65 93 05 01  .dak1[Z.e...e...
0FD0: 74 6D 66 30 45 3C 80 F8  FF FF 7F F8 FF FF 7F 73  tmf0E<.........s
0FE0: 31 35 34 07 80 1C 29 80  52 3C 80 F8 FF FF 7F F8  154...).R<......
0FF0: FF FF 7F 73 31 35 34 45  3C 80 F8 FF FF 7F F8 FF  ...s154E<.......
1000: FF 7F 73 31 35 35 07 80  1C 29 80 52 3C 80 F8 FF  ..s155...).R<...
1010: FF 7F F8 FF FF 7F 73 31  35 35 45 3C 80 F8 FF FF  ......s155E<....
1020: 7F F8 FF FF 7F 73 31 35  36 07 80 1C 6E 80 CD 70  .....s156...n..p
1030: 80 F0 FF FF 7F F0 FF FF  7F 73 30 30 30 07 80 52  .........s000..R
1040: 3C 80 F8 FF FF 7F F8 FF  FF 7F 73 31 35 36 45 3C  <.........s156E<
1050: 80 F8 FF FF 7F F8 FF FF  7F 73 31 35 37 07 80 45  .........s157..E
1060: 5C 80 F0 FF FF 7F F0 FF  FF 7F 77 69 6E 67 07 80  \.........wing..
1070: 1C 04 80 81 01 63 93 05  01 5B 60 80 63 93 05 01  .....c...[`.c...
1080: 63 93 05 01 66 30 30 30  1C 2C 80 52 3C 80 F8 FF  c...f000.,.R<...
1090: FF 7F F8 FF FF 7F 73 31  35 37 45 3C 80 F8 FF FF  ......s157E<....
10A0: 7F F8 FF FF 7F 73 32 34  30 07 80 1C 1D 80 52 3C  .....s240.....R<
10B0: 80 F8 FF FF 7F F8 FF FF  7F 73 32 34 30 01 E4 12  .........s240...
10C0: 02 87 7F 23 80 80 D2 11  66 75 80 F0 FF FF 7F F0  ...#....fu......
10D0: FF FF 7F 64 61 6B 31 5B  5A 80 65 93 05 01 65 93  ...dak1[Z.e...e.
10E0: 05 01 6D 66 30 30 45 3C  80 F8 FF FF 7F F8 FF FF  ..mf00E<........
10F0: 7F 73 31 33 30 07 80 1C  29 80 52 3C 80 F8 FF FF  .s130...).R<....
1100: 7F F8 FF FF 7F 73 31 33  30 45 3C 80 F8 FF FF 7F  .....s130E<.....
1110: F8 FF FF 7F 73 31 35 32  07 80 1C 29 80 52 3C 80  ....s152...).R<.
1120: F8 FF FF 7F F8 FF FF 7F  73 31 35 32 45 3C 80 F8  ........s152E<..
1130: FF FF 7F F8 FF FF 7F 73  31 35 33 07 80 1C 6E 80  .......s153...n.
1140: CD 70 80 F0 FF FF 7F F0  FF FF 7F 73 30 30 30 07  .p.........s000.
1150: 80 52 3C 80 F8 FF FF 7F  F8 FF FF 7F 73 31 35 33  .R<.........s153
1160: 45 3C 80 F8 FF FF 7F F8  FF FF 7F 73 31 31 36 07  E<.........s116.
1170: 80 45 5C 80 F0 FF FF 7F  F0 FF FF 7F 77 69 6E 67  .E\.........wing
1180: 07 80 1C 04 80 81 01 63  93 05 01 5B 60 80 63 93  .......c...[`.c.
1190: 05 01 63 93 05 01 66 30  30 30 1C 2C 80 52 3C 80  ..c...f000.,.R<.
11A0: F8 FF FF 7F F8 FF FF 7F  73 31 31 36 45 3C 80 F8  ........s116E<..
11B0: FF FF 7F F8 FF FF 7F 73  32 33 39 07 80 1C 1D 80  .......s239.....
11C0: 52 3C 80 F8 FF FF 7F F8  FF FF 7F 73 32 33 39 01  R<.........s239.
11D0: E4 12 02 87 7F 24 80 80  E4 12 66 76 80 F0 FF FF  .....$....fv....
11E0: 7F F0 FF FF 7F 64 61 6B  31 5B 5A 80 65 93 05 01  .....dak1[Z.e...
11F0: 65 93 05 01 67 6D 30 30  45 3C 80 F8 FF FF 7F F8  e...gm00E<......
1200: FF FF 7F 73 31 36 36 07  80 1C 6E 80 52 3C 80 F8  ...s166...n.R<..
1210: FF FF 7F F8 FF FF 7F 73  31 36 36 45 3C 80 F8 FF  .......s166E<...
1220: FF 7F F8 FF FF 7F 73 31  36 37 07 80 1C 2C 80 52  ......s167...,.R
1230: 3C 80 F8 FF FF 7F F8 FF  FF 7F 73 31 36 37 45 3C  <.........s167E<
1240: 80 F8 FF FF 7F F8 FF FF  7F 73 31 36 38 07 80 1C  .........s168...
1250: 6E 80 CD 70 80 F0 FF FF  7F F0 FF FF 7F 73 30 30  n..p.........s00
1260: 30 07 80 52 3C 80 F8 FF  FF 7F F8 FF FF 7F 73 31  0..R<.........s1
1270: 36 38 45 3C 80 F8 FF FF  7F F8 FF FF 7F 73 31 31  68E<.........s11
1280: 36 07 80 45 5C 80 F0 FF  FF 7F F0 FF FF 7F 77 69  6..E\.........wi
1290: 6E 67 07 80 1C 04 80 81  01 63 93 05 01 5B 60 80  ng.......c...[`.
12A0: 63 93 05 01 63 93 05 01  66 30 30 30 1C 2C 80 52  c...c...f000.,.R
12B0: 3C 80 F8 FF FF 7F F8 FF  FF 7F 73 31 31 36 45 3C  <.........s116E<
12C0: 80 F8 FF FF 7F F8 FF FF  7F 73 31 36 39 07 80 1C  .........s169...
12D0: 1D 80 52 3C 80 F8 FF FF  7F F8 FF FF 7F 73 31 36  ..R<.........s16
12E0: 39 01 E4 12 45 3C 80 F8  FF FF 7F F8 FF FF 7F 73  9...E<.........s
12F0: 31 31 37 07 80 7C 00 63  93 05 01 2B 63 93 05 01  117..|.c...+c...
1300: 77 80 23 CD 5B 80 65 93  05 01 65 93 05 01 73 30  w.#.[.e...e...s0
1310: 30 32 07 80 52 3C 80 F8  FF FF 7F F8 FF FF 7F 73  02..R<.........s
1320: 31 31 37 81 01 F0 FF FF  7F 45 5C 80 65 93 05 01  117......E\.e...
1330: 65 93 05 01 68 69 6B 32  07 80 02 87 7F 00 80 80  e...hik2........
1340: 2C 14 45 3C 80 F8 FF FF  7F F8 FF FF 7F 73 31 31  ,.E<.........s11
1350: 38 07 80 66 6D 80 F0 FF  FF 7F F0 FF FF 7F 64 61  8..fm.........da
1360: 6B 32 5B 5A 80 65 93 05  01 65 93 05 01 68 6D 30  k2[Z.e...e...hm0
1370: 31 1C 2C 80 52 3C 80 F8  FF FF 7F F8 FF FF 7F 73  1.,.R<.........s
1380: 31 31 38 45 3C 80 F8 FF  FF 7F F8 FF FF 7F 73 31  118E<.........s1
1390: 31 39 07 80 1C 2C 80 52  3C 80 F8 FF FF 7F F8 FF  19...,.R<.......
13A0: FF 7F 73 31 31 39 45 3C  80 F8 FF FF 7F F8 FF FF  ..s119E<........
13B0: 7F 73 31 32 30 07 80 1C  05 80 5B 78 80 63 93 05  .s120.....[x.c..
13C0: 01 63 93 05 01 63 75 70  30 1C 04 80 52 3C 80 F8  .c...cup0...R<..
13D0: FF FF 7F F8 FF FF 7F 73  31 32 30 45 3C 80 F8 FF  .......s120E<...
13E0: FF 7F F8 FF FF 7F 73 31  32 31 07 80 1C 02 80 CD  ......s121......
13F0: 79 80 62 93 05 01 62 93  05 01 73 30 30 30 07 80  y.b...b...s000..
1400: CD 5B 80 65 93 05 01 65  93 05 01 6B 69 6C 32 07  .[.e...e...kil2.
1410: 80 4E 01 65 93 05 01 1C  5F 80 52 3C 80 F8 FF FF  .N.e...._.R<....
1420: 7F F8 FF FF 7F 73 31 32  31 01 CA 1A 02 87 7F 03  .....s121.......
1430: 80 80 1E 15 45 3C 80 F8  FF FF 7F F8 FF FF 7F 73  ....E<.........s
1440: 31 31 38 07 80 66 71 80  F0 FF FF 7F F0 FF FF 7F  118..fq.........
1450: 64 61 6B 32 5B 5A 80 65  93 05 01 65 93 05 01 68  dak2[Z.e...e...h
1460: 66 30 31 1C 2C 80 52 3C  80 F8 FF FF 7F F8 FF FF  f01.,.R<........
1470: 7F 73 31 31 38 45 3C 80  F8 FF FF 7F F8 FF FF 7F  .s118E<.........
1480: 73 31 31 39 07 80 1C 2C  80 52 3C 80 F8 FF FF 7F  s119...,.R<.....
1490: F8 FF FF 7F 73 31 31 39  45 3C 80 F8 FF FF 7F F8  ....s119E<......
14A0: FF FF 7F 73 31 32 30 07  80 1C 05 80 5B 78 80 63  ...s120.....[x.c
14B0: 93 05 01 63 93 05 01 63  75 70 30 1C 04 80 52 3C  ...c...cup0...R<
14C0: 80 F8 FF FF 7F F8 FF FF  7F 73 31 32 30 45 3C 80  .........s120E<.
14D0: F8 FF FF 7F F8 FF FF 7F  73 31 32 31 07 80 1C 02  ........s121....
14E0: 80 CD 79 80 62 93 05 01  62 93 05 01 73 30 30 30  ..y.b...b...s000
14F0: 07 80 CD 5B 80 65 93 05  01 65 93 05 01 6B 69 6C  ...[.e...e...kil
1500: 32 07 80 4E 01 65 93 05  01 1C 5F 80 52 3C 80 F8  2..N.e...._.R<..
1510: FF FF 7F F8 FF FF 7F 73  31 32 31 01 CA 1A 02 87  .......s121.....
1520: 7F 21 80 80 10 16 45 3C  80 F8 FF FF 7F F8 FF FF  .!....E<........
1530: 7F 73 32 34 32 07 80 66  72 80 F0 FF FF 7F F0 FF  .s242..fr.......
1540: FF 7F 64 61 6B 32 5B 5A  80 65 93 05 01 65 93 05  ..dak2[Z.e...e..
1550: 01 65 6D 30 31 1C 7A 80  52 3C 80 F8 FF FF 7F F8  .em01.z.R<......
1560: FF FF 7F 73 32 34 32 45  3C 80 F8 FF FF 7F F8 FF  ...s242E<.......
1570: FF 7F 73 31 31 39 07 80  1C 7A 80 52 3C 80 F8 FF  ..s119...z.R<...
1580: FF 7F F8 FF FF 7F 73 31  31 39 45 3C 80 F8 FF FF  ......s119E<....
1590: 7F F8 FF FF 7F 73 31 32  30 07 80 1C 05 80 5B 78  .....s120.....[x
15A0: 80 63 93 05 01 63 93 05  01 63 75 70 30 1C 7B 80  .c...c...cup0.{.
15B0: 52 3C 80 F8 FF FF 7F F8  FF FF 7F 73 31 32 30 45  R<.........s120E
15C0: 3C 80 F8 FF FF 7F F8 FF  FF 7F 73 31 33 37 07 80  <.........s137..
15D0: 1C 02 80 CD 79 80 62 93  05 01 62 93 05 01 73 30  ....y.b...b...s0
15E0: 30 30 07 80 CD 5B 80 65  93 05 01 65 93 05 01 6B  00...[.e...e...k
15F0: 69 6C 32 07 80 4E 01 65  93 05 01 1C 5F 80 52 3C  il2..N.e...._.R<
1600: 80 F8 FF FF 7F F8 FF FF  7F 73 31 33 37 01 CA 1A  .........s137...
1610: 02 87 7F 22 80 80 02 17  45 3C 80 F8 FF FF 7F F8  ..."....E<......
1620: FF FF 7F 73 32 34 32 07  80 66 73 80 F0 FF FF 7F  ...s242..fs.....
1630: F0 FF FF 7F 64 61 6B 32  5B 5A 80 65 93 05 01 65  ....dak2[Z.e...e
1640: 93 05 01 65 66 30 31 1C  7C 80 52 3C 80 F8 FF FF  ...ef01.|.R<....
1650: 7F F8 FF FF 7F 73 32 34  32 45 3C 80 F8 FF FF 7F  .....s242E<.....
1660: F8 FF FF 7F 73 31 31 39  07 80 1C 2C 80 52 3C 80  ....s119...,.R<.
1670: F8 FF FF 7F F8 FF FF 7F  73 31 31 39 45 3C 80 F8  ........s119E<..
1680: FF FF 7F F8 FF FF 7F 73  31 32 30 07 80 1C 05 80  .......s120.....
1690: 5B 78 80 63 93 05 01 63  93 05 01 63 75 70 30 1C  [x.c...c...cup0.
16A0: 7B 80 52 3C 80 F8 FF FF  7F F8 FF FF 7F 73 31 32  {.R<.........s12
16B0: 30 45 3C 80 F8 FF FF 7F  F8 FF FF 7F 73 31 33 37  0E<.........s137
16C0: 07 80 1C 02 80 CD 79 80  62 93 05 01 62 93 05 01  ......y.b...b...
16D0: 73 30 30 30 07 80 CD 5B  80 65 93 05 01 65 93 05  s000...[.e...e..
16E0: 01 6B 69 6C 32 07 80 4E  01 65 93 05 01 1C 5F 80  .kil2..N.e...._.
16F0: 52 3C 80 F8 FF FF 7F F8  FF FF 7F 73 31 33 37 01  R<.........s137.
1700: CA 1A 02 87 7F 16 80 80  F4 17 45 3C 80 F8 FF FF  ..........E<....
1710: 7F F8 FF FF 7F 73 31 35  38 07 80 66 74 80 F0 FF  .....s158..ft...
1720: FF 7F F0 FF FF 7F 64 61  6B 32 5B 5A 80 65 93 05  ......dak2[Z.e..
1730: 01 65 93 05 01 74 6D 66  31 1C 2C 80 52 3C 80 F8  .e...tmf1.,.R<..
1740: FF FF 7F F8 FF FF 7F 73  31 35 38 45 3C 80 F8 FF  .......s158E<...
1750: FF 7F F8 FF FF 7F 73 31  35 39 07 80 1C 2C 80 52  ......s159...,.R
1760: 3C 80 F8 FF FF 7F F8 FF  FF 7F 73 31 35 39 45 3C  <.........s159E<
1770: 80 F8 FF FF 7F F8 FF FF  7F 73 31 32 30 07 80 1C  .........s120...
1780: 05 80 5B 78 80 63 93 05  01 63 93 05 01 63 75 70  ..[x.c...c...cup
1790: 30 1C 04 80 52 3C 80 F8  FF FF 7F F8 FF FF 7F 73  0...R<.........s
17A0: 31 32 30 45 3C 80 F8 FF  FF 7F F8 FF FF 7F 73 31  120E<.........s1
17B0: 36 30 07 80 1C 02 80 CD  79 80 62 93 05 01 62 93  60......y.b...b.
17C0: 05 01 73 30 30 30 07 80  CD 5B 80 65 93 05 01 65  ..s000...[.e...e
17D0: 93 05 01 6B 69 6C 32 07  80 4E 01 65 93 05 01 1C  ...kil2..N.e....
17E0: 5F 80 52 3C 80 F8 FF FF  7F F8 FF FF 7F 73 31 36  _.R<.........s16
17F0: 30 01 CA 1A 02 87 7F 1B  80 80 E6 18 45 3C 80 F8  0...........E<..
1800: FF FF 7F F8 FF FF 7F 73  31 35 38 07 80 66 74 80  .......s158..ft.
1810: F0 FF FF 7F F0 FF FF 7F  64 61 6B 32 5B 5A 80 65  ........dak2[Z.e
1820: 93 05 01 65 93 05 01 74  6D 66 31 1C 2C 80 52 3C  ...e...tmf1.,.R<
1830: 80 F8 FF FF 7F F8 FF FF  7F 73 31 35 38 45 3C 80  .........s158E<.
1840: F8 FF FF 7F F8 FF FF 7F  73 31 35 39 07 80 1C 2C  ........s159...,
1850: 80 52 3C 80 F8 FF FF 7F  F8 FF FF 7F 73 31 35 39  .R<.........s159
1860: 45 3C 80 F8 FF FF 7F F8  FF FF 7F 73 31 32 30 07  E<.........s120.
1870: 80 1C 05 80 5B 78 80 63  93 05 01 63 93 05 01 63  ....[x.c...c...c
1880: 75 70 30 1C 04 80 52 3C  80 F8 FF FF 7F F8 FF FF  up0...R<........
1890: 7F 73 31 32 30 45 3C 80  F8 FF FF 7F F8 FF FF 7F  .s120E<.........
18A0: 73 31 36 30 07 80 1C 02  80 CD 79 80 62 93 05 01  s160......y.b...
18B0: 62 93 05 01 73 30 30 30  07 80 CD 5B 80 65 93 05  b...s000...[.e..
18C0: 01 65 93 05 01 6B 69 6C  32 07 80 4E 01 65 93 05  .e...kil2..N.e..
18D0: 01 1C 5F 80 52 3C 80 F8  FF FF 7F F8 FF FF 7F 73  .._.R<.........s
18E0: 31 36 30 01 CA 1A 02 87  7F 23 80 80 D8 19 45 3C  160......#....E<
18F0: 80 F8 FF FF 7F F8 FF FF  7F 73 31 31 38 07 80 66  .........s118..f
1900: 75 80 F0 FF FF 7F F0 FF  FF 7F 64 61 6B 32 5B 5A  u.........dak2[Z
1910: 80 65 93 05 01 65 93 05  01 6D 66 30 31 1C 2C 80  .e...e...mf01.,.
1920: 52 3C 80 F8 FF FF 7F F8  FF FF 7F 73 31 31 38 45  R<.........s118E
1930: 3C 80 F8 FF FF 7F F8 FF  FF 7F 73 31 31 39 07 80  <.........s119..
1940: 1C 2C 80 52 3C 80 F8 FF  FF 7F F8 FF FF 7F 73 31  .,.R<.........s1
1950: 31 39 45 3C 80 F8 FF FF  7F F8 FF FF 7F 73 31 32  19E<.........s12
1960: 30 07 80 1C 05 80 5B 78  80 63 93 05 01 63 93 05  0.....[x.c...c..
1970: 01 63 75 70 30 1C 04 80  52 3C 80 F8 FF FF 7F F8  .cup0...R<......
1980: FF FF 7F 73 31 32 30 45  3C 80 F8 FF FF 7F F8 FF  ...s120E<.......
1990: FF 7F 73 31 32 31 07 80  1C 02 80 CD 79 80 62 93  ..s121......y.b.
19A0: 05 01 62 93 05 01 73 30  30 30 07 80 CD 5B 80 65  ..b...s000...[.e
19B0: 93 05 01 65 93 05 01 6B  69 6C 32 07 80 4E 01 65  ...e...kil2..N.e
19C0: 93 05 01 1C 5F 80 52 3C  80 F8 FF FF 7F F8 FF FF  ...._.R<........
19D0: 7F 73 31 32 31 01 CA 1A  02 87 7F 24 80 80 CA 1A  .s121......$....
19E0: 45 3C 80 F8 FF FF 7F F8  FF FF 7F 73 31 37 30 07  E<.........s170.
19F0: 80 66 76 80 F0 FF FF 7F  F0 FF FF 7F 64 61 6B 32  .fv.........dak2
1A00: 5B 5A 80 65 93 05 01 65  93 05 01 67 6D 30 31 1C  [Z.e...e...gm01.
1A10: 7A 80 52 3C 80 F8 FF FF  7F F8 FF FF 7F 73 31 37  z.R<.........s17
1A20: 30 45 3C 80 F8 FF FF 7F  F8 FF FF 7F 73 31 37 31  0E<.........s171
1A30: 07 80 1C 2C 80 52 3C 80  F8 FF FF 7F F8 FF FF 7F  ...,.R<.........
1A40: 73 31 37 31 45 3C 80 F8  FF FF 7F F8 FF FF 7F 73  s171E<.........s
1A50: 31 32 30 07 80 1C 05 80  5B 78 80 63 93 05 01 63  120.....[x.c...c
1A60: 93 05 01 63 75 70 30 1C  7B 80 52 3C 80 F8 FF FF  ...cup0.{.R<....
1A70: 7F F8 FF FF 7F 73 31 32  30 45 3C 80 F8 FF FF 7F  .....s120E<.....
1A80: F8 FF FF 7F 73 31 33 37  07 80 1C 02 80 CD 79 80  ....s137......y.
1A90: 62 93 05 01 62 93 05 01  73 30 30 30 07 80 CD 5B  b...b...s000...[
1AA0: 80 65 93 05 01 65 93 05  01 6B 69 6C 32 07 80 4E  .e...e...kil2..N
1AB0: 01 65 93 05 01 1C 5F 80  52 3C 80 F8 FF FF 7F F8  .e...._.R<......
1AC0: FF FF 7F 73 31 33 37 01  CA 1A 45 3C 80 F8 FF FF  ...s137...E<....
1AD0: 7F F8 FF FF 7F 73 31 32  32 07 80 5D 07 80 2C 80  .....s122..]..,.
1AE0: 1C 2C 80 5C 00 7D 80 5C  01 7D 80 5C 02 7D 80 5C  .,.\.}.\.}.\.}.\
1AF0: 03 7D 80 9A 45 5C 80 62  93 05 01 62 93 05 01 62  .}..E\.b...b...b
1B00: 69 72 74 07 80 1C 7E 80  52 3C 80 F8 FF FF 7F F8  irt...~.R<......
1B10: FF FF 7F 73 31 32 32 45  3C 80 F8 FF FF 7F F8 FF  ...s122E<.......
1B20: FF 7F 73 31 32 33 07 80  CD 79 80 62 93 05 01 62  ..s123...y.b...b
1B30: 93 05 01 73 30 30 31 07  80 1C 02 80 BA 63 93 05  ...s001......c..
1B40: 01 47 80 48 80 49 80 7F  80 1C 5F 80 02 87 7F 21  .G.H.I...._....!
1B50: 80 80 60 1B 37 80 80 81  80 82 80 83 80 01 A5 1B  ..`.7...........
1B60: 02 87 7F 22 80 80 74 1B  37 80 80 81 80 82 80 83  ..."..t.7.......
1B70: 80 01 A5 1B 02 87 7F 16  80 80 88 1B 37 84 80 85  ............7...
1B80: 80 86 80 83 80 01 A5 1B  02 87 7F 1B 80 80 9C 1B  ................
1B90: 37 84 80 85 80 86 80 83  80 01 A5 1B 37 84 80 85  7...........7...
1BA0: 80 87 80 83 80 52 3C 80  F8 FF FF 7F F8 FF FF 7F  .....R<.........
1BB0: 73 31 32 33 45 3C 80 F8  FF FF 7F F8 FF FF 7F 73  s123E<.........s
1BC0: 31 32 34 07 80 1C 08 80  52 3C 80 F8 FF FF 7F F8  124.....R<......
1BD0: FF FF 7F 73 31 32 34 45  3C 80 F8 FF FF 7F F8 FF  ...s124E<.......
1BE0: FF 7F 73 31 36 34 07 80  1C 08 80 52 3C 80 F8 FF  ..s164.....R<...
1BF0: FF 7F F8 FF FF 7F 73 31  36 34 45 3C 80 F8 FF FF  ......s164E<....
1C00: 7F F8 FF FF 7F 73 31 32  35 07 80 5B 6B 80 62 93  .....s125..[k.b.
1C10: 05 01 62 93 05 01 74 61  69 31 27 05 62 93 05 01  ..b...tai1'.b...
1C20: 09 53 62 93 05 01 62 93  05 01 74 61 69 31 52 3C  .Sb...b...tai1R<
1C30: 80 F8 FF FF 7F F8 FF FF  7F 73 31 32 35 45 3C 80  .........s125E<.
1C40: F8 FF FF 7F F8 FF FF 7F  73 31 32 36 07 80 27 05  ........s126..'.
1C50: F0 FF FF 7F 33 2B 62 93  05 01 88 80 23 52 3C 80  ....3+b.....#R<.
1C60: F8 FF FF 7F F8 FF FF 7F  73 31 32 36 02 87 7F 00  ........s126....
1C70: 80 80 0E 1F 45 3C 80 F8  FF FF 7F F8 FF FF 7F 73  ....E<.........s
1C80: 31 32 37 07 80 1C 3D 80  59 05 62 93 05 01 01 BA  127...=.Y.b.....
1C90: 62 93 05 01 44 80 45 80  89 80 43 80 2B 62 93 05  b...D.E...C.+b..
1CA0: 01 8A 80 23 2A 05 F0 FF  FF 7F 52 3C 80 F8 FF FF  ...#*.....R<....
1CB0: 7F F8 FF FF 7F 73 31 32  37 45 3C 80 F8 FF FF 7F  .....s127E<.....
1CC0: F8 FF FF 7F 73 32 32 36  07 80 66 8B 80 F0 FF FF  ....s226..f.....
1CD0: 7F F0 FF FF 7F 65 73 75  30 5B 6B 80 62 93 05 01  .....esu0[k.b...
1CE0: 62 93 05 01 74 61 69 32  CD 79 80 62 93 05 01 62  b...tai2.y.b...b
1CF0: 93 05 01 73 30 30 32 07  80 1C 29 80 52 3C 80 F8  ...s002...).R<..
1D00: FF FF 7F F8 FF FF 7F 73  32 32 36 45 3C 80 F8 FF  .......s226E<...
1D10: FF 7F F8 FF FF 7F 73 32  33 38 07 80 1C 2C 80 52  ......s238...,.R
1D20: 3C 80 F8 FF FF 7F F8 FF  FF 7F 73 32 33 38 45 3C  <.........s238E<
1D30: 80 F8 FF FF 7F F8 FF FF  7F 73 31 36 32 07 80 1C  .........s162...
1D40: 2C 80 52 3C 80 F8 FF FF  7F F8 FF FF 7F 73 31 36  ,.R<.........s16
1D50: 32 45 3C 80 F8 FF FF 7F  F8 FF FF 7F 73 31 37 33  2E<.........s173
1D60: 07 80 1C 2C 80 52 3C 80  F8 FF FF 7F F8 FF FF 7F  ...,.R<.........
1D70: 73 31 37 33 45 3C 80 F8  FF FF 7F F8 FF FF 7F 73  s173E<.........s
1D80: 32 32 37 07 80 1C 02 80  27 05 F0 FF FF 7F 2E 1C  227.....'.......
1D90: 5F 80 52 3C 80 F8 FF FF  7F F8 FF FF 7F 73 32 32  _.R<.........s22
1DA0: 37 45 3C 80 F8 FF FF 7F  F8 FF FF 7F 73 32 33 32  7E<.........s232
1DB0: 07 80 1C 2C 80 C5 8C 80  F8 FF FF 7F F8 FF FF 7F  ...,............
1DC0: 73 30 30 30 07 80 52 3C  80 F8 FF FF 7F F8 FF FF  s000..R<........
1DD0: 7F 73 32 33 32 45 3C 80  F8 FF FF 7F F8 FF FF 7F  .s232E<.........
1DE0: 73 31 37 34 07 80 1C 29  80 52 3C 80 F8 FF FF 7F  s174...).R<.....
1DF0: F8 FF FF 7F 73 31 37 34  45 3C 80 F8 FF FF 7F F8  ....s174E<......
1E00: FF FF 7F 73 31 37 35 07  80 1C 3D 80 92 00 F0 FF  ...s175...=.....
1E10: FF 7F 6B 69 64 6C 30 F0  FF FF 7F 37 84 80 85 80  ..kidl0....7....
1E20: 8D 80 83 80 BA F0 FF FF  7F 8E 80 8F 80 90 80 43  ...............C
1E30: 80 BA 62 93 05 01 44 80  45 80 46 80 43 80 1C 16  ..b...D.E.F.C...
1E40: 80 79 00 F0 FF FF 7F F8  FF FF 7F 2B 63 93 05 01  .y.........+c...
1E50: 91 80 23 7C 01 63 93 05  01 5B 92 80 62 93 05 01  ..#|.c...[..b...
1E60: 62 93 05 01 74 79 61 30  27 05 F0 FF FF 7F 15 55  b...tya0'......U
1E70: 3C 80 F8 FF FF 7F F8 FF  FF 7F 73 31 37 35 45 3C  <.........s175E<
1E80: 80 F8 FF FF 7F F8 FF FF  7F 73 32 31 39 07 80 CD  .........s219...
1E90: 79 80 62 93 05 01 62 93  05 01 73 74 30 32 07 80  y.b...b...st02..
1EA0: 45 5C 80 65 93 05 01 65  93 05 01 6B 68 69 6B 07  E\.e...e...khik.
1EB0: 80 7B F0 FF FF 7F 1C 02  80 27 05 F0 FF FF 7F 2F  .{.......'...../
1EC0: 1C 5F 80 27 05 F0 FF FF  7F 16 1C 28 80 52 3C 80  ._.'.......(.R<.
1ED0: F8 FF FF 7F F8 FF FF 7F  73 32 31 39 45 3C 80 F8  ........s219E<..
1EE0: FF FF 7F F8 FF FF 7F 73  31 38 38 07 80 1C 02 80  .......s188.....
1EF0: 6B 69 64 6C 30 63 93 05  01 1C 5F 80 52 3C 80 F8  kidl0c...._.R<..
1F00: FF FF 7F F8 FF FF 7F 73  31 38 38 01 11 31 02 87  .......s188..1..
1F10: 7F 03 80 80 9C 21 45 3C  80 F8 FF FF 7F F8 FF FF  .....!E<........
1F20: 7F 73 31 33 33 07 80 1C  3D 80 BA 62 93 05 01 44  .s133...=..b...D
1F30: 80 45 80 46 80 43 80 2B  62 93 05 01 8A 80 23 2A  .E.F.C.+b.....#*
1F40: 05 F0 FF FF 7F 52 3C 80  F8 FF FF 7F F8 FF FF 7F  .....R<.........
1F50: 73 31 33 33 45 3C 80 F8  FF FF 7F F8 FF FF 7F 73  s133E<.........s
1F60: 32 32 36 07 80 66 93 80  F0 FF FF 7F F0 FF FF 7F  226..f..........
1F70: 65 73 75 30 5B 6B 80 62  93 05 01 62 93 05 01 74  esu0[k.b...b...t
1F80: 61 69 32 CD 79 80 62 93  05 01 62 93 05 01 73 30  ai2.y.b...b...s0
1F90: 30 32 07 80 1C 29 80 52  3C 80 F8 FF FF 7F F8 FF  02...).R<.......
1FA0: FF 7F 73 32 32 36 45 3C  80 F8 FF FF 7F F8 FF FF  ..s226E<........
1FB0: 7F 73 32 33 38 07 80 1C  2C 80 52 3C 80 F8 FF FF  .s238...,.R<....
1FC0: 7F F8 FF FF 7F 73 32 33  38 45 3C 80 F8 FF FF 7F  .....s238E<.....
1FD0: F8 FF FF 7F 73 31 36 32  07 80 1C 2C 80 52 3C 80  ....s162...,.R<.
1FE0: F8 FF FF 7F F8 FF FF 7F  73 31 36 32 45 3C 80 F8  ........s162E<..
1FF0: FF FF 7F F8 FF FF 7F 73  31 37 33 07 80 1C 2C 80  .......s173...,.
2000: 52 3C 80 F8 FF FF 7F F8  FF FF 7F 73 31 37 33 45  R<.........s173E
2010: 3C 80 F8 FF FF 7F F8 FF  FF 7F 73 32 32 37 07 80  <.........s227..
2020: 1C 02 80 27 05 F0 FF FF  7F 2E 1C 5F 80 52 3C 80  ...'......._.R<.
2030: F8 FF FF 7F F8 FF FF 7F  73 32 32 37 45 3C 80 F8  ........s227E<..
2040: FF FF 7F F8 FF FF 7F 73  32 33 30 07 80 1C 2C 80  .......s230...,.
2050: C5 8C 80 F8 FF FF 7F F8  FF FF 7F 73 30 30 30 07  ...........s000.
2060: 80 52 3C 80 F8 FF FF 7F  F8 FF FF 7F 73 32 33 30  .R<.........s230
2070: 45 3C 80 F8 FF FF 7F F8  FF FF 7F 73 31 37 34 07  E<.........s174.
2080: 80 1C 29 80 52 3C 80 F8  FF FF 7F F8 FF FF 7F 73  ..).R<.........s
2090: 31 37 34 45 3C 80 F8 FF  FF 7F F8 FF FF 7F 73 31  174E<.........s1
20A0: 37 35 07 80 1C 3D 80 92  00 F0 FF FF 7F 6B 69 64  75...=.......kid
20B0: 6C 30 F0 FF FF 7F 37 84  80 85 80 8D 80 83 80 BA  l0....7.........
20C0: F0 FF FF 7F 8E 80 8F 80  90 80 43 80 1C 16 80 79  ..........C....y
20D0: 00 F0 FF FF 7F F8 FF FF  7F 2B 63 93 05 01 91 80  .........+c.....
20E0: 23 7C 01 63 93 05 01 5B  92 80 62 93 05 01 62 93  #|.c...[..b...b.
20F0: 05 01 74 79 61 30 27 05  F0 FF FF 7F 15 55 3C 80  ..tya0'......U<.
2100: F8 FF FF 7F F8 FF FF 7F  73 31 37 35 45 3C 80 F8  ........s175E<..
2110: FF FF 7F F8 FF FF 7F 73  32 31 39 07 80 CD 79 80  .......s219...y.
2120: 62 93 05 01 62 93 05 01  73 74 30 32 07 80 45 5C  b...b...st02..E\
2130: 80 65 93 05 01 65 93 05  01 6B 68 69 32 07 80 7B  .e...e...khi2..{
2140: F0 FF FF 7F 1C 02 80 27  05 F0 FF FF 7F 2F 1C 5F  .......'...../._
2150: 80 27 05 F0 FF FF 7F 16  1C 28 80 52 3C 80 F8 FF  .'.......(.R<...
2160: FF 7F F8 FF FF 7F 73 32  31 39 45 3C 80 F8 FF FF  ......s219E<....
2170: 7F F8 FF FF 7F 73 31 38  38 07 80 1C 02 80 6B 69  .....s188.....ki
2180: 64 6C 30 63 93 05 01 1C  5F 80 52 3C 80 F8 FF FF  dl0c...._.R<....
2190: 7F F8 FF FF 7F 73 31 38  38 01 11 31 02 87 7F 21  .....s188..1...!
21A0: 80 80 41 24 45 3C 80 F8  FF FF 7F F8 FF FF 7F 73  ..A$E<.........s
21B0: 31 33 38 07 80 1C 3D 80  59 05 62 93 05 01 01 BA  138...=.Y.b.....
21C0: 62 93 05 01 44 80 45 80  89 80 43 80 2B 62 93 05  b...D.E...C.+b..
21D0: 01 8A 80 23 2A 05 F0 FF  FF 7F 52 3C 80 F8 FF FF  ...#*.....R<....
21E0: 7F F8 FF FF 7F 73 31 33  38 45 3C 80 F8 FF FF 7F  .....s138E<.....
21F0: F8 FF FF 7F 73 32 32 36  07 80 66 94 80 F0 FF FF  ....s226..f.....
2200: 7F F0 FF FF 7F 65 73 75  30 1C 04 80 5B 6B 80 62  .....esu0...[k.b
2210: 93 05 01 62 93 05 01 74  61 69 32 CD 79 80 62 93  ...b...tai2.y.b.
2220: 05 01 62 93 05 01 73 30  30 32 07 80 1C 2C 80 52  ..b...s002...,.R
2230: 3C 80 F8 FF FF 7F F8 FF  FF 7F 73 32 32 36 45 3C  <.........s226E<
2240: 80 F8 FF FF 7F F8 FF FF  7F 73 32 32 31 07 80 1C  .........s221...
2250: 2C 80 52 3C 80 F8 FF FF  7F F8 FF FF 7F 73 32 32  ,.R<.........s22
2260: 31 45 3C 80 F8 FF FF 7F  F8 FF FF 7F 73 32 30 32  1E<.........s202
2270: 07 80 1C 2C 80 52 3C 80  F8 FF FF 7F F8 FF FF 7F  ...,.R<.........
2280: 73 32 30 32 45 3C 80 F8  FF FF 7F F8 FF FF 7F 73  s202E<.........s
2290: 31 37 33 07 80 1C 2C 80  52 3C 80 F8 FF FF 7F F8  173...,.R<......
22A0: FF FF 7F 73 31 37 33 45  3C 80 F8 FF FF 7F F8 FF  ...s173E<.......
22B0: FF 7F 73 32 32 37 07 80  1C 02 80 27 05 F0 FF FF  ..s227.....'....
22C0: 7F 2E 1C 5F 80 52 3C 80  F8 FF FF 7F F8 FF FF 7F  ..._.R<.........
22D0: 73 32 32 37 45 3C 80 F8  FF FF 7F F8 FF FF 7F 73  s227E<.........s
22E0: 32 33 31 07 80 1C 2C 80  C5 8C 80 F8 FF FF 7F F8  231...,.........
22F0: FF FF 7F 73 30 30 30 07  80 52 3C 80 F8 FF FF 7F  ...s000..R<.....
2300: F8 FF FF 7F 73 32 33 31  45 3C 80 F8 FF FF 7F F8  ....s231E<......
2310: FF FF 7F 73 32 32 30 07  80 1C 29 80 52 3C 80 F8  ...s220...).R<..
2320: FF FF 7F F8 FF FF 7F 73  32 32 30 45 3C 80 F8 FF  .......s220E<...
2330: FF 7F F8 FF FF 7F 73 31  37 35 07 80 1C 3D 80 92  ......s175...=..
2340: 00 F0 FF FF 7F 6B 69 64  6C 30 F0 FF FF 7F 37 84  .....kidl0....7.
2350: 80 85 80 8D 80 83 80 BA  F0 FF FF 7F 8E 80 8F 80  ................
2360: 90 80 43 80 BA 62 93 05  01 44 80 45 80 46 80 43  ..C..b...D.E.F.C
2370: 80 1C 16 80 79 00 F0 FF  FF 7F F8 FF FF 7F 2B 63  ....y.........+c
2380: 93 05 01 91 80 23 7C 01  63 93 05 01 5B 92 80 62  .....#|.c...[..b
2390: 93 05 01 62 93 05 01 74  79 61 30 27 05 F0 FF FF  ...b...tya0'....
23A0: 7F 15 55 3C 80 F8 FF FF  7F F8 FF FF 7F 73 31 37  ..U<.........s17
23B0: 35 45 3C 80 F8 FF FF 7F  F8 FF FF 7F 73 32 31 39  5E<.........s219
23C0: 07 80 CD 79 80 62 93 05  01 62 93 05 01 73 74 30  ...y.b...b...st0
23D0: 32 07 80 45 5C 80 65 93  05 01 65 93 05 01 6B 68  2..E\.e...e...kh
23E0: 69 32 07 80 7B F0 FF FF  7F 1C 02 80 27 05 F0 FF  i2..{.......'...
23F0: FF 7F 2F 1C 5F 80 27 05  F0 FF FF 7F 16 1C 28 80  ../._.'.......(.
2400: 52 3C 80 F8 FF FF 7F F8  FF FF 7F 73 32 31 39 45  R<.........s219E
2410: 3C 80 F8 FF FF 7F F8 FF  FF 7F 73 31 38 38 07 80  <.........s188..
2420: 1C 02 80 6B 69 64 6C 30  63 93 05 01 1C 5F 80 52  ...kidl0c...._.R
2430: 3C 80 F8 FF FF 7F F8 FF  FF 7F 73 31 38 38 01 11  <.........s188..
2440: 31 02 87 7F 22 80 80 E6  26 45 3C 80 F8 FF FF 7F  1..."...&E<.....
2450: F8 FF FF 7F 73 31 34 38  07 80 1C 3D 80 59 05 62  ....s148...=.Y.b
2460: 93 05 01 01 BA 62 93 05  01 44 80 45 80 89 80 43  .....b...D.E...C
2470: 80 2B 62 93 05 01 8A 80  23 2A 05 F0 FF FF 7F 52  .+b.....#*.....R
2480: 3C 80 F8 FF FF 7F F8 FF  FF 7F 73 31 34 38 45 3C  <.........s148E<
2490: 80 F8 FF FF 7F F8 FF FF  7F 73 32 32 36 07 80 66  .........s226..f
24A0: 95 80 F0 FF FF 7F F0 FF  FF 7F 65 73 75 30 1C 04  ..........esu0..
24B0: 80 5B 6B 80 62 93 05 01  62 93 05 01 74 61 69 32  .[k.b...b...tai2
24C0: CD 79 80 62 93 05 01 62  93 05 01 73 30 30 32 07  .y.b...b...s002.
24D0: 80 1C 2C 80 52 3C 80 F8  FF FF 7F F8 FF FF 7F 73  ..,.R<.........s
24E0: 32 32 36 45 3C 80 F8 FF  FF 7F F8 FF FF 7F 73 32  226E<.........s2
24F0: 33 38 07 80 1C 2C 80 52  3C 80 F8 FF FF 7F F8 FF  38...,.R<.......
2500: FF 7F 73 32 33 38 45 3C  80 F8 FF FF 7F F8 FF FF  ..s238E<........
2510: 7F 73 31 36 32 07 80 1C  2C 80 52 3C 80 F8 FF FF  .s162...,.R<....
2520: 7F F8 FF FF 7F 73 31 36  32 45 3C 80 F8 FF FF 7F  .....s162E<.....
2530: F8 FF FF 7F 73 31 37 33  07 80 1C 2C 80 52 3C 80  ....s173...,.R<.
2540: F8 FF FF 7F F8 FF FF 7F  73 31 37 33 45 3C 80 F8  ........s173E<..
2550: FF FF 7F F8 FF FF 7F 73  32 32 37 07 80 1C 02 80  .......s227.....
2560: 27 05 F0 FF FF 7F 2E 1C  5F 80 52 3C 80 F8 FF FF  '......._.R<....
2570: 7F F8 FF FF 7F 73 32 32  37 45 3C 80 F8 FF FF 7F  .....s227E<.....
2580: F8 FF FF 7F 73 32 32 38  07 80 1C 2C 80 C5 8C 80  ....s228...,....
2590: F8 FF FF 7F F8 FF FF 7F  73 30 30 30 07 80 52 3C  ........s000..R<
25A0: 80 F8 FF FF 7F F8 FF FF  7F 73 32 32 38 45 3C 80  .........s228E<.
25B0: F8 FF FF 7F F8 FF FF 7F  73 31 37 34 07 80 1C 29  ........s174...)
25C0: 80 52 3C 80 F8 FF FF 7F  F8 FF FF 7F 73 31 37 34  .R<.........s174
25D0: 45 3C 80 F8 FF FF 7F F8  FF FF 7F 73 31 37 35 07  E<.........s175.
25E0: 80 1C 3D 80 92 00 F0 FF  FF 7F 6B 69 64 6C 30 F0  ..=.......kidl0.
25F0: FF FF 7F 37 84 80 85 80  8D 80 83 80 BA F0 FF FF  ...7............
2600: 7F 8E 80 8F 80 90 80 43  80 BA 62 93 05 01 44 80  .......C..b...D.
2610: 45 80 46 80 43 80 1C 16  80 79 00 F0 FF FF 7F F8  E.F.C....y......
2620: FF FF 7F 2B 63 93 05 01  91 80 23 7C 01 63 93 05  ...+c.....#|.c..
2630: 01 5B 92 80 62 93 05 01  62 93 05 01 74 79 61 30  .[..b...b...tya0
2640: 27 05 F0 FF FF 7F 15 55  3C 80 F8 FF FF 7F F8 FF  '......U<.......
2650: FF 7F 73 31 37 35 45 3C  80 F8 FF FF 7F F8 FF FF  ..s175E<........
2660: 7F 73 32 31 39 07 80 CD  79 80 62 93 05 01 62 93  .s219...y.b...b.
2670: 05 01 73 74 30 32 07 80  45 5C 80 65 93 05 01 65  ..st02..E\.e...e
2680: 93 05 01 6B 68 69 32 07  80 7B F0 FF FF 7F 1C 02  ...khi2..{......
2690: 80 27 05 F0 FF FF 7F 2F  1C 5F 80 27 05 F0 FF FF  .'...../._.'....
26A0: 7F 16 1C 28 80 52 3C 80  F8 FF FF 7F F8 FF FF 7F  ...(.R<.........
26B0: 73 32 31 39 45 3C 80 F8  FF FF 7F F8 FF FF 7F 73  s219E<.........s
26C0: 31 38 38 07 80 1C 02 80  6B 69 64 6C 30 63 93 05  188.....kidl0c..
26D0: 01 1C 5F 80 52 3C 80 F8  FF FF 7F F8 FF FF 7F 73  .._.R<.........s
26E0: 31 38 38 01 11 31 02 87  7F 16 80 80 65 29 45 3C  188..1......e)E<
26F0: 80 F8 FF FF 7F F8 FF FF  7F 73 31 36 31 07 80 1C  .........s161...
2700: 3D 80 BA 62 93 05 01 44  80 45 80 46 80 43 80 2B  =..b...D.E.F.C.+
2710: 62 93 05 01 8A 80 23 2A  05 F0 FF FF 7F 52 3C 80  b.....#*.....R<.
2720: F8 FF FF 7F F8 FF FF 7F  73 31 36 31 45 3C 80 F8  ........s161E<..
2730: FF FF 7F F8 FF FF 7F 73  32 32 36 07 80 66 96 80  .......s226..f..
2740: F0 FF FF 7F F0 FF FF 7F  65 73 75 30 5B 97 80 62  ........esu0[..b
2750: 93 05 01 62 93 05 01 74  61 69 32 CD 79 80 62 93  ...b...tai2.y.b.
2760: 05 01 62 93 05 01 73 30  30 32 07 80 1C 29 80 52  ..b...s002...).R
2770: 3C 80 F8 FF FF 7F F8 FF  FF 7F 73 32 32 36 45 3C  <.........s226E<
2780: 80 F8 FF FF 7F F8 FF FF  7F 73 32 32 33 07 80 1C  .........s223...
2790: 2C 80 52 3C 80 F8 FF FF  7F F8 FF FF 7F 73 32 32  ,.R<.........s22
27A0: 33 45 3C 80 F8 FF FF 7F  F8 FF FF 7F 73 31 36 32  3E<.........s162
27B0: 07 80 1C 2C 80 52 3C 80  F8 FF FF 7F F8 FF FF 7F  ...,.R<.........
27C0: 73 31 36 32 45 3C 80 F8  FF FF 7F F8 FF FF 7F 73  s162E<.........s
27D0: 31 36 33 07 80 1C 29 80  52 3C 80 F8 FF FF 7F F8  163...).R<......
27E0: FF FF 7F 73 31 36 33 45  3C 80 F8 FF FF 7F F8 FF  ...s163E<.......
27F0: FF 7F 73 32 33 33 07 80  1C 02 80 27 05 F0 FF FF  ..s233.....'....
2800: 7F 2E 1C 5F 80 52 3C 80  F8 FF FF 7F F8 FF FF 7F  ..._.R<.........
2810: 73 32 33 33 45 3C 80 F8  FF FF 7F F8 FF FF 7F 73  s233E<.........s
2820: 32 33 34 07 80 4E 00 64  93 05 01 1C 2C 80 C5 8C  234..N.d....,...
2830: 80 F8 FF FF 7F F8 FF FF  7F 73 30 30 30 07 80 52  .........s000..R
2840: 3C 80 F8 FF FF 7F F8 FF  FF 7F 73 32 33 34 45 3C  <.........s234E<
2850: 80 F8 FF FF 7F F8 FF FF  7F 73 32 32 32 07 80 1C  .........s222...
2860: 29 80 52 3C 80 F8 FF FF  7F F8 FF FF 7F 73 32 32  ).R<.........s22
2870: 32 45 3C 80 F8 FF FF 7F  F8 FF FF 7F 73 31 37 35  2E<.........s175
2880: 07 80 2B 63 93 05 01 91  80 23 5B 92 80 64 93 05  ..+c.....#[..d..
2890: 01 64 93 05 01 74 79 61  30 1C 2C 80 52 3C 80 F8  .d...tya0.,.R<..
28A0: FF FF 7F F8 FF FF 7F 73  31 37 35 45 3C 80 F8 FF  .......s175E<...
28B0: FF 7F F8 FF FF 7F 73 31  36 35 07 80 CD 79 80 62  ......s165...y.b
28C0: 93 05 01 62 93 05 01 73  74 30 32 07 80 45 5C 80  ...b...st02..E\.
28D0: 65 93 05 01 65 93 05 01  6B 68 69 32 07 80 1C 3D  e...e...khi2...=
28E0: 80 27 05 F0 FF FF 7F 2F  92 00 F0 FF FF 7F 5B 92  .'...../......[.
28F0: 80 62 93 05 01 62 93 05  01 74 79 61 30 6B 69 64  .b...b...tya0kid
2900: 6C 30 F0 FF FF 7F 6B 69  64 6C 30 63 93 05 01 BA  l0....kidl0c....
2910: F0 FF FF 7F 8E 80 8F 80  90 80 43 80 1C 6E 80 27  ..........C..n.'
2920: 05 F0 FF FF 7F 15 52 3C  80 F8 FF FF 7F F8 FF FF  ......R<........
2930: 7F 73 31 36 35 45 3C 80  F8 FF FF 7F F8 FF FF 7F  .s165E<.........
2940: 73 32 30 38 07 80 1C 02  80 1C 5F 80 27 05 F0 FF  s208......_.'...
2950: FF 7F 16 52 3C 80 F8 FF  FF 7F F8 FF FF 7F 73 32  ...R<.........s2
2960: 30 38 01 11 31 02 87 7F  1B 80 80 E4 2B 45 3C 80  08..1.......+E<.
2970: F8 FF FF 7F F8 FF FF 7F  73 31 36 31 07 80 1C 3D  ........s161...=
2980: 80 BA 62 93 05 01 44 80  45 80 46 80 43 80 2B 62  ..b...D.E.F.C.+b
2990: 93 05 01 8A 80 23 2A 05  F0 FF FF 7F 52 3C 80 F8  .....#*.....R<..
29A0: FF FF 7F F8 FF FF 7F 73  31 36 31 45 3C 80 F8 FF  .......s161E<...
29B0: FF 7F F8 FF FF 7F 73 32  32 36 07 80 66 96 80 F0  ......s226..f...
29C0: FF FF 7F F0 FF FF 7F 65  73 75 30 5B 97 80 62 93  .......esu0[..b.
29D0: 05 01 62 93 05 01 74 61  69 32 CD 79 80 62 93 05  ..b...tai2.y.b..
29E0: 01 62 93 05 01 73 30 30  32 07 80 1C 29 80 52 3C  .b...s002...).R<
29F0: 80 F8 FF FF 7F F8 FF FF  7F 73 32 32 36 45 3C 80  .........s226E<.
2A00: F8 FF FF 7F F8 FF FF 7F  73 32 32 33 07 80 1C 2C  ........s223...,
2A10: 80 52 3C 80 F8 FF FF 7F  F8 FF FF 7F 73 32 32 33  .R<.........s223
2A20: 45 3C 80 F8 FF FF 7F F8  FF FF 7F 73 31 36 32 07  E<.........s162.
2A30: 80 1C 2C 80 52 3C 80 F8  FF FF 7F F8 FF FF 7F 73  ..,.R<.........s
2A40: 31 36 32 45 3C 80 F8 FF  FF 7F F8 FF FF 7F 73 31  162E<.........s1
2A50: 36 33 07 80 1C 29 80 52  3C 80 F8 FF FF 7F F8 FF  63...).R<.......
2A60: FF 7F 73 31 36 33 45 3C  80 F8 FF FF 7F F8 FF FF  ..s163E<........
2A70: 7F 73 32 33 33 07 80 1C  02 80 27 05 F0 FF FF 7F  .s233.....'.....
2A80: 2E 1C 5F 80 52 3C 80 F8  FF FF 7F F8 FF FF 7F 73  .._.R<.........s
2A90: 32 33 33 45 3C 80 F8 FF  FF 7F F8 FF FF 7F 73 32  233E<.........s2
2AA0: 33 34 07 80 4E 00 64 93  05 01 1C 2C 80 C5 8C 80  34..N.d....,....
2AB0: F8 FF FF 7F F8 FF FF 7F  73 30 30 30 07 80 52 3C  ........s000..R<
2AC0: 80 F8 FF FF 7F F8 FF FF  7F 73 32 33 34 45 3C 80  .........s234E<.
2AD0: F8 FF FF 7F F8 FF FF 7F  73 32 32 32 07 80 1C 29  ........s222...)
2AE0: 80 52 3C 80 F8 FF FF 7F  F8 FF FF 7F 73 32 32 32  .R<.........s222
2AF0: 45 3C 80 F8 FF FF 7F F8  FF FF 7F 73 31 37 35 07  E<.........s175.
2B00: 80 2B 63 93 05 01 91 80  23 5B 92 80 64 93 05 01  .+c.....#[..d...
2B10: 64 93 05 01 74 79 61 30  1C 2C 80 52 3C 80 F8 FF  d...tya0.,.R<...
2B20: FF 7F F8 FF FF 7F 73 31  37 35 45 3C 80 F8 FF FF  ......s175E<....
2B30: 7F F8 FF FF 7F 73 31 36  35 07 80 CD 79 80 62 93  .....s165...y.b.
2B40: 05 01 62 93 05 01 73 74  30 32 07 80 45 5C 80 65  ..b...st02..E\.e
2B50: 93 05 01 65 93 05 01 6B  68 69 32 07 80 1C 3D 80  ...e...khi2...=.
2B60: 27 05 F0 FF FF 7F 2F 92  00 F0 FF FF 7F 5B 92 80  '...../......[..
2B70: 62 93 05 01 62 93 05 01  74 79 61 30 6B 69 64 6C  b...b...tya0kidl
2B80: 30 F0 FF FF 7F 6B 69 64  6C 30 63 93 05 01 BA F0  0....kidl0c.....
2B90: FF FF 7F 8E 80 8F 80 90  80 43 80 1C 6E 80 27 05  .........C..n.'.
2BA0: F0 FF FF 7F 15 52 3C 80  F8 FF FF 7F F8 FF FF 7F  .....R<.........
2BB0: 73 31 36 35 45 3C 80 F8  FF FF 7F F8 FF FF 7F 73  s165E<.........s
2BC0: 32 30 38 07 80 1C 02 80  1C 5F 80 27 05 F0 FF FF  208......_.'....
2BD0: 7F 16 52 3C 80 F8 FF FF  7F F8 FF FF 7F 73 32 30  ..R<.........s20
2BE0: 38 01 11 31 02 87 7F 23  80 80 72 2E 45 3C 80 F8  8..1...#..r.E<..
2BF0: FF FF 7F F8 FF FF 7F 73  31 35 31 07 80 1C 3D 80  .......s151...=.
2C00: BA 62 93 05 01 44 80 45  80 46 80 43 80 2B 62 93  .b...D.E.F.C.+b.
2C10: 05 01 8A 80 23 2A 05 F0  FF FF 7F 52 3C 80 F8 FF  ....#*.....R<...
2C20: FF 7F F8 FF FF 7F 73 31  35 31 45 3C 80 F8 FF FF  ......s151E<....
2C30: 7F F8 FF FF 7F 73 32 32  36 07 80 66 7D 80 F0 FF  .....s226..f}...
2C40: FF 7F F0 FF FF 7F 65 73  75 30 5B 6B 80 62 93 05  ......esu0[k.b..
2C50: 01 62 93 05 01 74 61 69  32 CD 79 80 62 93 05 01  .b...tai2.y.b...
2C60: 62 93 05 01 73 30 30 32  07 80 1C 29 80 52 3C 80  b...s002...).R<.
2C70: F8 FF FF 7F F8 FF FF 7F  73 32 32 36 45 3C 80 F8  ........s226E<..
2C80: FF FF 7F F8 FF FF 7F 73  32 33 38 07 80 1C 2C 80  .......s238...,.
2C90: 52 3C 80 F8 FF FF 7F F8  FF FF 7F 73 32 33 38 45  R<.........s238E
2CA0: 3C 80 F8 FF FF 7F F8 FF  FF 7F 73 31 36 32 07 80  <.........s162..
2CB0: 1C 2C 80 52 3C 80 F8 FF  FF 7F F8 FF FF 7F 73 31  .,.R<.........s1
2CC0: 36 32 45 3C 80 F8 FF FF  7F F8 FF FF 7F 73 31 37  62E<.........s17
2CD0: 33 07 80 1C 2C 80 52 3C  80 F8 FF FF 7F F8 FF FF  3...,.R<........
2CE0: 7F 73 31 37 33 45 3C 80  F8 FF FF 7F F8 FF FF 7F  .s173E<.........
2CF0: 73 32 32 37 07 80 1C 02  80 27 05 F0 FF FF 7F 2E  s227.....'......
2D00: 1C 5F 80 52 3C 80 F8 FF  FF 7F F8 FF FF 7F 73 32  ._.R<.........s2
2D10: 32 37 45 3C 80 F8 FF FF  7F F8 FF FF 7F 73 32 33  27E<.........s23
2D20: 30 07 80 1C 2C 80 C5 8C  80 F8 FF FF 7F F8 FF FF  0...,...........
2D30: 7F 73 30 30 30 07 80 52  3C 80 F8 FF FF 7F F8 FF  .s000..R<.......
2D40: FF 7F 73 32 33 30 45 3C  80 F8 FF FF 7F F8 FF FF  ..s230E<........
2D50: 7F 73 31 37 34 07 80 1C  29 80 52 3C 80 F8 FF FF  .s174...).R<....
2D60: 7F F8 FF FF 7F 73 31 37  34 45 3C 80 F8 FF FF 7F  .....s174E<.....
2D70: F8 FF FF 7F 73 31 37 35  07 80 1C 3D 80 92 00 F0  ....s175...=....
2D80: FF FF 7F 6B 69 64 6C 30  F0 FF FF 7F 37 84 80 85  ...kidl0....7...
2D90: 80 8D 80 83 80 BA F0 FF  FF 7F 8E 80 8F 80 90 80  ................
2DA0: 43 80 1C 16 80 79 00 F0  FF FF 7F F8 FF FF 7F 2B  C....y.........+
2DB0: 63 93 05 01 91 80 23 7C  01 63 93 05 01 5B 92 80  c.....#|.c...[..
2DC0: 62 93 05 01 62 93 05 01  74 79 61 30 27 05 F0 FF  b...b...tya0'...
2DD0: FF 7F 15 55 3C 80 F8 FF  FF 7F F8 FF FF 7F 73 31  ...U<.........s1
2DE0: 37 35 45 3C 80 F8 FF FF  7F F8 FF FF 7F 73 32 31  75E<.........s21
2DF0: 39 07 80 CD 79 80 62 93  05 01 62 93 05 01 73 74  9...y.b...b...st
2E00: 30 32 07 80 45 5C 80 65  93 05 01 65 93 05 01 6B  02..E\.e...e...k
2E10: 68 69 32 07 80 7B F0 FF  FF 7F 1C 02 80 27 05 F0  hi2..{.......'..
2E20: FF FF 7F 2F 1C 5F 80 27  05 F0 FF FF 7F 16 1C 28  .../._.'.......(
2E30: 80 52 3C 80 F8 FF FF 7F  F8 FF FF 7F 73 32 31 39  .R<.........s219
2E40: 45 3C 80 F8 FF FF 7F F8  FF FF 7F 73 31 38 38 07  E<.........s188.
2E50: 80 1C 02 80 6B 69 64 6C  30 63 93 05 01 1C 5F 80  ....kidl0c...._.
2E60: 52 3C 80 F8 FF FF 7F F8  FF FF 7F 73 31 38 38 01  R<.........s188.
2E70: 11 31 02 87 7F 24 80 80  11 31 45 3C 80 F8 FF FF  .1...$...1E<....
2E80: 7F F8 FF FF 7F 73 31 37  32 07 80 1C 3D 80 BA 62  .....s172...=..b
2E90: 93 05 01 44 80 45 80 46  80 43 80 2B 62 93 05 01  ...D.E.F.C.+b...
2EA0: 8A 80 23 2A 05 F0 FF FF  7F 52 3C 80 F8 FF FF 7F  ..#*.....R<.....
2EB0: F8 FF FF 7F 73 31 37 32  45 3C 80 F8 FF FF 7F F8  ....s172E<......
2EC0: FF FF 7F 73 32 32 36 07  80 66 98 80 F0 FF FF 7F  ...s226..f......
2ED0: F0 FF FF 7F 65 73 75 30  5B 6B 80 62 93 05 01 62  ....esu0[k.b...b
2EE0: 93 05 01 74 61 69 32 CD  79 80 62 93 05 01 62 93  ...tai2.y.b...b.
2EF0: 05 01 73 30 30 32 07 80  1C 29 80 52 3C 80 F8 FF  ..s002...).R<...
2F00: FF 7F F8 FF FF 7F 73 32  32 36 45 3C 80 F8 FF FF  ......s226E<....
2F10: 7F F8 FF FF 7F 73 32 31  36 07 80 1C 2C 80 52 3C  .....s216...,.R<
2F20: 80 F8 FF FF 7F F8 FF FF  7F 73 32 31 36 45 3C 80  .........s216E<.
2F30: F8 FF FF 7F F8 FF FF 7F  73 31 36 32 07 80 1C 2C  ........s162...,
2F40: 80 52 3C 80 F8 FF FF 7F  F8 FF FF 7F 73 31 36 32  .R<.........s162
2F50: 45 3C 80 F8 FF FF 7F F8  FF FF 7F 73 32 31 30 07  E<.........s210.
2F60: 80 1C 2C 80 52 3C 80 F8  FF FF 7F F8 FF FF 7F 73  ..,.R<.........s
2F70: 32 31 30 45 3C 80 F8 FF  FF 7F F8 FF FF 7F 73 32  210E<.........s2
2F80: 32 37 07 80 1C 02 80 27  05 F0 FF FF 7F 2E 1C 5F  27.....'......._
2F90: 80 52 3C 80 F8 FF FF 7F  F8 FF FF 7F 73 32 32 37  .R<.........s227
2FA0: 45 3C 80 F8 FF FF 7F F8  FF FF 7F 73 32 33 35 07  E<.........s235.
2FB0: 80 1C 2C 80 C5 8C 80 F8  FF FF 7F F8 FF FF 7F 73  ..,............s
2FC0: 30 30 30 07 80 52 3C 80  F8 FF FF 7F F8 FF FF 7F  000..R<.........
2FD0: 73 32 33 35 45 3C 80 F8  FF FF 7F F8 FF FF 7F 73  s235E<.........s
2FE0: 32 32 34 07 80 1C 29 80  52 3C 80 F8 FF FF 7F F8  224...).R<......
2FF0: FF FF 7F 73 32 32 34 45  3C 80 F8 FF FF 7F F8 FF  ...s224E<.......
3000: FF 7F 73 31 37 35 07 80  1C 3D 80 4E 01 F0 FF FF  ..s175...=.N....
3010: 7F 92 00 F0 FF FF 7F 6B  69 64 6C 30 F0 FF FF 7F  .......kidl0....
3020: 37 84 80 85 80 8D 80 83  80 BA F0 FF FF 7F 8E 80  7...............
3030: 8F 80 90 80 43 80 1C 16  80 79 00 F0 FF FF 7F F8  ....C....y......
3040: FF FF 7F 2B 63 93 05 01  91 80 23 7C 01 63 93 05  ...+c.....#|.c..
3050: 01 5B 92 80 62 93 05 01  62 93 05 01 74 79 61 30  .[..b...b...tya0
3060: 27 05 F0 FF FF 7F 15 55  3C 80 F8 FF FF 7F F8 FF  '......U<.......
3070: FF 7F 73 31 37 35 4E 00  F0 FF FF 7F 80 F0 FF FF  ..s175N.........
3080: 7F 45 3C 80 F8 FF FF 7F  F8 FF FF 7F 73 32 31 39  .E<.........s219
3090: 07 80 CD 79 80 62 93 05  01 62 93 05 01 73 74 30  ...y.b...b...st0
30A0: 32 07 80 45 5C 80 65 93  05 01 65 93 05 01 6B 68  2..E\.e...e...kh
30B0: 69 32 07 80 7B F0 FF FF  7F 1C 02 80 27 05 F0 FF  i2..{.......'...
30C0: FF 7F 2F 1C 5F 80 27 05  F0 FF FF 7F 16 1C 28 80  ../._.'.......(.
30D0: 52 3C 80 F8 FF FF 7F F8  FF FF 7F 73 32 31 39 45  R<.........s219E
30E0: 3C 80 F8 FF FF 7F F8 FF  FF 7F 73 31 38 38 07 80  <.........s188..
30F0: 1C 02 80 6B 69 64 6C 30  63 93 05 01 1C 5F 80 52  ...kidl0c...._.R
3100: 3C 80 F8 FF FF 7F F8 FF  FF 7F 73 31 38 38 01 11  <.........s188..
3110: 31 45 3C 80 F8 FF FF 7F  F8 FF FF 7F 73 31 37 37  1E<.........s177
3120: 07 80 1C 04 80 4A 63 93  05 01 62 93 05 01 1C 99  .....Jc...b.....
3130: 80 5B 60 80 63 93 05 01  63 93 05 01 62 69 6B 30  .[`.c...c...bik0
3140: 1C 02 80 52 3C 80 F8 FF  FF 7F F8 FF FF 7F 73 31  ...R<.........s1
3150: 37 37 45 3C 80 F8 FF FF  7F F8 FF FF 7F 73 32 32  77E<.........s22
3160: 39 07 80 1C 05 80 27 05  62 93 05 01 0A 59 05 62  9.....'.b....Y.b
3170: 93 05 01 01 BA 62 93 05  01 44 80 45 80 9A 80 43  .....b...D.E...C
3180: 80 02 87 7F 16 80 80 8C  31 01 9E 31 02 87 7F 1B  ........1..1....
3190: 80 80 97 31 01 9E 31 27  05 F0 FF FF 7F 11 1C 9B  ...1..1'........
31A0: 80 52 3C 80 F8 FF FF 7F  F8 FF FF 7F 73 32 32 39  .R<.........s229
31B0: 45 3C 80 F8 FF FF 7F F8  FF FF 7F 73 31 37 38 07  E<.........s178.
31C0: 80 1C 2C 80 52 3C 80 F8  FF FF 7F F8 FF FF 7F 73  ..,.R<.........s
31D0: 31 37 38 45 3C 80 F8 FF  FF 7F F8 FF FF 7F 73 31  178E<.........s1
31E0: 38 37 07 80 5B 92 80 62  93 05 01 62 93 05 01 74  87..[..b...b...t
31F0: 79 61 31 2B 62 93 05 01  9C 80 1C 2C 80 52 3C 80  ya1+b......,.R<.
3200: F8 FF FF 7F F8 FF FF 7F  73 31 38 37 45 3C 80 F8  ........s187E<..
3210: FF FF 7F F8 FF FF 7F 73  31 37 39 07 80 1C 2C 80  .......s179...,.
3220: 2B 62 93 05 01 9D 80 23  53 62 93 05 01 62 93 05  +b.....#Sb...b..
3230: 01 74 79 61 31 81 00 63  93 05 01 5B 9E 80 63 93  .tya1..c...[..c.
3240: 05 01 63 93 05 01 63 72  79 30 52 3C 80 F8 FF FF  ..c...cry0R<....
3250: 7F F8 FF FF 7F 73 31 37  39 45 3C 80 F8 FF FF 7F  .....s179E<.....
3260: F8 FF FF 7F 73 31 38 30  07 80 1C 3D 80 2B 63 93  ....s180...=.+c.
3270: 05 01 9F 80 23 2B 63 93  05 01 A0 80 23 53 63 93  ....#+c.....#Sc.
3280: 05 01 63 93 05 01 63 72  79 30 5B 97 80 62 93 05  ..c...cry0[..b..
3290: 01 62 93 05 01 74 79 61  32 52 3C 80 F8 FF FF 7F  .b...tya2R<.....
32A0: F8 FF FF 7F 73 31 38 30  45 3C 80 F8 FF FF 7F F8  ....s180E<......
32B0: FF FF 7F 73 31 38 31 07  80 1C 3D 80 81 01 63 93  ...s181...=...c.
32C0: 05 01 6B 69 64 6C 30 63  93 05 01 4E 01 F0 FF FF  ..kidl0c...N....
32D0: 7F 4E 01 63 93 05 01 59  05 63 93 05 01 01 BA 63  .N.c...Y.c.....c
32E0: 93 05 01 44 80 45 80 9A  80 43 80 2B 62 93 05 01  ...D.E...C.+b...
32F0: A1 80 23 53 62 93 05 01  62 93 05 01 74 79 61 32  ..#Sb...b...tya2
3300: 81 00 63 93 05 01 7C 00  63 93 05 01 5B A2 80 63  ..c...|.c...[..c
3310: 93 05 01 63 93 05 01 64  61 6B 30 5B 97 80 62 93  ...c...dak0[..b.
3320: 05 01 62 93 05 01 74 79  61 33 1C 3D 80 52 3C 80  ..b...tya3.=.R<.
3330: F8 FF FF 7F F8 FF FF 7F  73 31 38 31 45 3C 80 F8  ........s181E<..
3340: FF FF 7F F8 FF FF 7F 73  31 38 32 07 80 4E 00 63  .......s182..N.c
3350: 93 05 01 1C 29 80 52 3C  80 F8 FF FF 7F F8 FF FF  ....).R<........
3360: 7F 73 31 38 32 45 3C 80  F8 FF FF 7F F8 FF FF 7F  .s182E<.........
3370: 73 31 38 33 07 80 2B 63  93 05 01 A3 80 23 2B 63  s183..+c.....#+c
3380: 93 05 01 A4 80 23 1C 3D  80 4E 00 F0 FF FF 7F 53  .....#.=.N.....S
3390: 63 93 05 01 63 93 05 01  64 61 6B 30 53 62 93 05  c...c...dak0Sb..
33A0: 01 62 93 05 01 74 79 61  33 5B A5 80 62 93 05 01  .b...tya3[..b...
33B0: 62 93 05 01 66 6B 30 31  2B 62 93 05 01 A6 80 23  b...fk01+b.....#
33C0: 52 3C 80 F8 FF FF 7F F8  FF FF 7F 73 31 38 33 45  R<.........s183E
33D0: 3C 80 F8 FF FF 7F F8 FF  FF 7F 73 31 38 34 07 80  <.........s184..
33E0: 2B 62 93 05 01 A7 80 23  52 3C 80 F8 FF FF 7F F8  +b.....#R<......
33F0: FF FF 7F 73 31 38 34 02  87 7F 03 80 80 13 34 45  ...s184.......4E
3400: 3C 80 F8 FF FF 7F F8 FF  FF 7F 73 32 30 31 07 80  <.........s201..
3410: 01 B0 34 02 87 7F 21 80  80 2F 34 45 3C 80 F8 FF  ..4...!../4E<...
3420: FF 7F F8 FF FF 7F 73 32  30 34 07 80 01 B0 34 02  ......s204....4.
3430: 87 7F 16 80 80 4B 34 45  3C 80 F8 FF FF 7F F8 FF  .....K4E<.......
3440: FF 7F 73 32 30 35 07 80  01 B0 34 02 87 7F 1B 80  ..s205....4.....
3450: 80 67 34 45 3C 80 F8 FF  FF 7F F8 FF FF 7F 73 32  .g4E<.........s2
3460: 30 35 07 80 01 B0 34 02  87 7F 23 80 80 83 34 45  05....4...#...4E
3470: 3C 80 F8 FF FF 7F F8 FF  FF 7F 73 32 30 39 07 80  <.........s209..
3480: 01 B0 34 02 87 7F 24 80  80 9F 34 45 3C 80 F8 FF  ..4...$...4E<...
3490: FF 7F F8 FF FF 7F 73 32  31 31 07 80 01 B0 34 45  ......s211....4E
34A0: 3C 80 F8 FF FF 7F F8 FF  FF 7F 73 31 38 35 07 80  <.........s185..
34B0: 1C 02 80 6B 69 64 6C 30  63 93 05 01 BA 63 93 05  ...kidl0c....c..
34C0: 01 A8 80 A9 80 AA 80 43  80 4A 63 93 05 01 F0 FF  .......C.Jc.....
34D0: FF 7F 5B AB 80 62 93 05  01 62 93 05 01 74 79 61  ..[..b...b...tya
34E0: 6C 1C 5F 80 52 3C 80 F8  FF FF 7F F8 FF FF 7F 73  l._.R<.........s
34F0: 31 38 35 52 3C 80 F8 FF  FF 7F F8 FF FF 7F 73 32  185R<.........s2
3500: 30 31 52 3C 80 F8 FF FF  7F F8 FF FF 7F 73 32 30  01R<.........s20
3510: 34 52 3C 80 F8 FF FF 7F  F8 FF FF 7F 73 32 30 35  4R<.........s205
3520: 52 3C 80 F8 FF FF 7F F8  FF FF 7F 73 32 30 39 52  R<.........s209R
3530: 3C 80 F8 FF FF 7F F8 FF  FF 7F 73 32 31 31 45 3C  <.........s211E<
3540: 80 F8 FF FF 7F F8 FF FF  7F 73 31 38 36 07 80 5B  .........s186..[
3550: AB 80 62 93 05 01 62 93  05 01 6D 69 72 30 2B 62  ..b...b...mir0+b
3560: 93 05 01 AC 80 23 53 62  93 05 01 62 93 05 01 6D  .....#Sb...b...m
3570: 69 72 30 52 3C 80 F8 FF  FF 7F F8 FF FF 7F 73 31  ir0R<.........s1
3580: 38 36 45 3C 80 F8 FF FF  7F F8 FF FF 7F 73 31 38  86E<.........s18
3590: 39 07 80 5B A5 80 62 93  05 01 62 93 05 01 66 6B  9..[..b...b...fk
35A0: 30 30 2B 63 93 05 01 AD  80 23 2B 63 93 05 01 AE  00+c.....#+c....
35B0: 80 23 52 3C 80 F8 FF FF  7F F8 FF FF 7F 73 31 38  .#R<.........s18
35C0: 39 45 3C 80 F8 FF FF 7F  F8 FF FF 7F 73 31 39 30  9E<.........s190
35D0: 07 80 5B A5 80 62 93 05  01 62 93 05 01 66 6C 30  ..[..b...b...fl0
35E0: 30 2B 62 93 05 01 AF 80  23 5B A5 80 62 93 05 01  0+b.....#[..b...
35F0: 62 93 05 01 66 6C 30 31  2B 62 93 05 01 B0 80 23  b...fl01+b.....#
3600: 5B A5 80 62 93 05 01 62  93 05 01 66 6C 30 30 52  [..b...b...fl00R
3610: 3C 80 F8 FF FF 7F F8 FF  FF 7F 73 31 39 30 45 3C  <.........s190E<
3620: 80 F8 FF FF 7F F8 FF FF  7F 73 31 39 31 07 80 5B  .........s191..[
3630: B1 80 63 93 05 01 63 93  05 01 75 64 65 30 2B 63  ..c...c...ude0+c
3640: 93 05 01 B2 80 23 2B 63  93 05 01 B3 80 23 53 63  .....#+c.....#Sc
3650: 93 05 01 63 93 05 01 75  64 65 30 52 3C 80 F8 FF  ...c...ude0R<...
3660: FF 7F F8 FF FF 7F 73 31  39 31 45 3C 80 F8 FF FF  ......s191E<....
3670: 7F F8 FF FF 7F 73 31 39  32 07 80 5B A5 80 62 93  .....s192..[..b.
3680: 05 01 62 93 05 01 66 6C  30 31 2B 62 93 05 01 B4  ..b...fl01+b....
3690: 80 23 5B A5 80 62 93 05  01 62 93 05 01 66 6C 30  .#[..b...b...fl0
36A0: 30 52 3C 80 F8 FF FF 7F  F8 FF FF 7F 73 31 39 32  0R<.........s192
36B0: 02 87 7F 16 80 80 0A 37  45 3C 80 F8 FF FF 7F F8  .......7E<......
36C0: FF FF 7F 73 32 30 36 07  80 6E F0 FF FF 7F B5 80  ...s206..n......
36D0: 99 F0 FF FF 7F 1C 2C 80  5B A5 80 62 93 05 01 62  ......,.[..b...b
36E0: 93 05 01 66 6C 30 31 52  3C 80 F8 FF FF 7F F8 FF  ...fl01R<.......
36F0: FF 7F 73 32 30 36 45 3C  80 F8 FF FF 7F F8 FF FF  ..s206E<........
3700: 7F 73 31 39 34 07 80 01  C0 37 02 87 7F 1B 80 80  .s194....7......
3710: 64 37 45 3C 80 F8 FF FF  7F F8 FF FF 7F 73 32 30  d7E<.........s20
3720: 36 07 80 6E F0 FF FF 7F  B5 80 99 F0 FF FF 7F 1C  6..n............
3730: 2C 80 5B A5 80 62 93 05  01 62 93 05 01 66 6C 30  ,.[..b...b...fl0
3740: 31 52 3C 80 F8 FF FF 7F  F8 FF FF 7F 73 32 30 36  1R<.........s206
3750: 45 3C 80 F8 FF FF 7F F8  FF FF 7F 73 31 39 34 07  E<.........s194.
3760: 80 01 C0 37 45 3C 80 F8  FF FF 7F F8 FF FF 7F 73  ...7E<.........s
3770: 31 39 33 07 80 27 05 F0  FF FF 7F 3E 1C 2C 80 5B  193..'.....>.,.[
3780: A5 80 62 93 05 01 62 93  05 01 66 6C 30 31 5B AB  ..b...b...fl01[.
3790: 80 62 93 05 01 62 93 05  01 6D 69 72 31 1C 04 80  .b...b...mir1...
37A0: 52 3C 80 F8 FF FF 7F F8  FF FF 7F 73 31 39 33 45  R<.........s193E
37B0: 3C 80 F8 FF FF 7F F8 FF  FF 7F 73 32 31 37 07 80  <.........s217..
37C0: 1C 3D 80 6B 69 64 6C 30  63 93 05 01 2B 62 93 05  .=.kidl0c...+b..
37D0: 01 B6 80 23 53 62 93 05  01 62 93 05 01 6D 69 72  ...#Sb...b...mir
37E0: 31 5B A5 80 62 93 05 01  62 93 05 01 66 6C 30 30  1[..b...b...fl00
37F0: 52 3C 80 F8 FF FF 7F F8  FF FF 7F 73 31 39 34 52  R<.........s194R
3800: 3C 80 F8 FF FF 7F F8 FF  FF 7F 73 32 31 37 45 3C  <.........s217E<
3810: 80 F8 FF FF 7F F8 FF FF  7F 73 31 39 35 07 80 27  .........s195..'
3820: 05 63 93 05 01 0A 02 87  7F 16 80 80 40 38 5B AB  .c..........@8[.
3830: 80 62 93 05 01 62 93 05  01 6D 69 72 33 01 69 38  .b...b...mir3.i8
3840: 02 87 7F 1B 80 80 5A 38  5B AB 80 62 93 05 01 62  ......Z8[..b...b
3850: 93 05 01 6D 69 72 33 01  69 38 5B AB 80 62 93 05  ...mir3.i8[..b..
3860: 01 62 93 05 01 6D 69 72  32 2B 63 93 05 01 B7 80  .b...mir2+c.....
3870: 23 2A 05 63 93 05 01 52  3C 80 F8 FF FF 7F F8 FF  #*.c...R<.......
3880: FF 7F 73 31 39 35 45 3C  80 F8 FF FF 7F F8 FF FF  ..s195E<........
3890: 7F 73 31 39 36 07 80 4A  63 93 05 01 62 93 05 01  .s196..Jc...b...
38A0: 1C 04 80 2B 63 93 05 01  B8 80 23 66 B9 80 63 93  ...+c.....#f..c.
38B0: 05 01 63 93 05 01 74 6C  6B 30 2B 63 93 05 01 BA  ..c...tlk0+c....
38C0: 80 23 52 3C 80 F8 FF FF  7F F8 FF FF 7F 73 31 39  .#R<.........s19
38D0: 36 45 3C 80 F8 FF FF 7F  F8 FF FF 7F 73 31 39 37  6E<.........s197
38E0: 07 80 5B AB 80 62 93 05  01 62 93 05 01 79 65 73  ..[..b...b...yes
38F0: 30 1C 3D 80 4A F0 FF FF  7F 63 93 05 01 6B 69 64  0.=.J....c...kid
3900: 6C 30 63 93 05 01 4A 63  93 05 01 F0 FF FF 7F 2B  l0c...Jc.......+
3910: 62 93 05 01 BB 80 23 53  62 93 05 01 62 93 05 01  b.....#Sb...b...
3920: 79 65 73 30 52 3C 80 F8  FF FF 7F F8 FF FF 7F 73  yes0R<.........s
3930: 31 39 37 45 3C 80 F8 FF  FF 7F F8 FF FF 7F 73 31  197E<.........s1
3940: 39 38 07 80 5B B1 80 63  93 05 01 63 93 05 01 75  98..[..c...c...u
3950: 64 65 30 2B 63 93 05 01  BC 80 23 2B 63 93 05 01  de0+c.....#+c...
3960: BD 80 23 53 63 93 05 01  63 93 05 01 75 64 65 30  ..#Sc...c...ude0
3970: 52 3C 80 F8 FF FF 7F F8  FF FF 7F 73 31 39 38 02  R<.........s198.
3980: 87 7F 16 80 80 9B 39 45  3C 80 F8 FF FF 7F F8 FF  ......9E<.......
3990: FF 7F 73 32 30 37 07 80  01 C8 39 02 87 7F 1B 80  ..s207....9.....
39A0: 80 B7 39 45 3C 80 F8 FF  FF 7F F8 FF FF 7F 73 32  ..9E<.........s2
39B0: 30 37 07 80 01 C8 39 45  3C 80 F8 FF FF 7F F8 FF  07....9E<.......
39C0: FF 7F 73 31 39 39 07 80  6E F0 FF FF 7F 23 80 99  ..s199..n....#..
39D0: F0 FF FF 7F 5B B1 80 63  93 05 01 63 93 05 01 75  ....[..c...c...u
39E0: 64 65 31 1C 2C 80 BB BE  80 63 93 05 01 63 93 05  de1.,....c...c..
39F0: 01 73 74 30 33 07 80 52  3C 80 F8 FF FF 7F F8 FF  .st03..R<.......
3A00: FF 7F 73 31 39 39 52 3C  80 F8 FF FF 7F F8 FF FF  ..s199R<........
3A10: 7F 73 32 30 37 45 3C 80  F8 FF FF 7F F8 FF FF 7F  .s207E<.........
3A20: 73 32 31 38 07 80 1C 29  80 BB BE 80 63 93 05 01  s218...)....c...
3A30: 63 93 05 01 73 74 30 32  07 80 1C 6F 80 5D 07 80  c...st02...o.]..
3A40: 2C 80 1A 3B 41 1C 04 80  52 3C 80 F8 FF FF 7F F8  ,..;A...R<......
3A50: FF FF 7F 73 32 31 38 77  07 80 00 80 4E 00 64 93  ...s218w....N.d.
3A60: 05 01 27 05 64 93 05 01  03 27 05 63 93 05 01 0D  ..'.d....'.c....
3A70: 59 05 63 93 05 01 01 59  05 64 93 05 01 01 BA 64  Y.c....Y.d.....d
3A80: 93 05 01 BF 80 C0 80 C1  80 C2 80 BA 63 93 05 01  ............c...
3A90: C3 80 C4 80 C5 80 C6 80  80 64 93 05 01 80 63 93  .........d....c.
3AA0: 05 01 1C 04 80 5B C7 80  63 93 05 01 63 93 05 01  .....[..c...c...
3AB0: 63 6F 6E 30 C5 C8 80 64  93 05 01 64 93 05 01 73  con0...d...d...s
3AC0: 30 30 30 07 80 5C 00 07  80 5C 01 07 80 5C 02 07  000..\...\...\..
3AD0: 80 5C 03 07 80 9A 45 3C  80 F8 FF FF 7F F8 FF FF  .\....E<........
3AE0: 7F 73 32 30 30 07 80 1A  1A 41 1C 2C 80 45 2B 80  .s200....A.,.E+.
3AF0: F0 FF FF 7F F0 FF FF 7F  6F 76 6C 31 07 80 52 3C  ........ovl1..R<
3B00: 80 F8 FF FF 7F F8 FF FF  7F 73 32 30 30 45 3C 80  .........s200E<.
3B10: F8 FF FF 7F F8 FF FF 7F  73 30 39 34 07 80 2B 63  ........s094..+c
3B20: 93 05 01 C9 80 23 2B 63  93 05 01 CA 80 23 52 3C  .....#+c.....#R<
3B30: 80 F8 FF FF 7F F8 FF FF  7F 73 30 39 34 45 3C 80  .........s094E<.
3B40: F8 FF FF 7F F8 FF FF 7F  73 30 39 35 07 80 2B 63  ........s095..+c
3B50: 93 05 01 CB 80 23 52 3C  80 F8 FF FF 7F F8 FF FF  .....#R<........
3B60: 7F 73 30 39 35 45 3C 80  F8 FF FF 7F F8 FF FF 7F  .s095E<.........
3B70: 73 30 39 36 07 80 7C 00  63 93 05 01 2B 63 93 05  s096..|.c...+c..
3B80: 01 CC 80 23 7C 01 63 93  05 01 52 3C 80 F8 FF FF  ...#|.c...R<....
3B90: 7F F8 FF FF 7F 73 30 39  36 45 3C 80 F8 FF FF 7F  .....s096E<.....
3BA0: F8 FF FF 7F 73 30 39 37  07 80 2B 63 93 05 01 CD  ....s097..+c....
3BB0: 80 23 52 3C 80 F8 FF FF  7F F8 FF FF 7F 73 30 39  .#R<.........s09
3BC0: 37 45 3C 80 F8 FF FF 7F  F8 FF FF 7F 73 30 39 38  7E<.........s098
3BD0: 07 80 1C 2C 80 1A 3B 41  1C 04 80 52 3C 80 F8 FF  ...,..;A...R<...
3BE0: FF 7F F8 FF FF 7F 73 30  39 38 78 05 01 10 27 05  ......s098x...'.
3BF0: 25 93 05 01 0A 46 00 1C  28 80 45 2B 80 F0 FF FF  %....F..(.E+....
3C00: 7F F0 FF FF 7F 66 64 69  32 07 80 21 00           .....fdi2..!.   
```

#### Opcodes

```
  0: 0x041E [0x42] SET_CLI_EVENT_CANCEL_DATA()
  1: 0x041F [0x5D] SET_MUSIC_VOLUME(volume=0*, fade_time=120*)
  2: 0x0424 [0x1A] CALL_SUBROUTINE(address=0x413B)
  3: 0x0427 [0x46] CAMERA_CONTROL: Disable user control
  4: 0x0429 [0x38] SET_CLIENT_EVENT_MODE(mode=19*)
  5: 0x042C [0x2F] Unnamed NPC (ID: 17142565/0x01059325)->Render.Flags0 &= ~0x80000 // Bit 19
  6: 0x0432 [0x2F] Unnamed NPC (ID: 17142566/0x01059326)->Render.Flags0 &= ~0x80000 // Bit 19
  7: 0x0438 [0x2F] Unnamed NPC (ID: 17142567/0x01059327)->Render.Flags0 &= ~0x80000 // Bit 19
  8: 0x043E [0x4E] SET_ENTITY_HIDE_FLAG: Show Unnamed NPC (ID: 17142565/0x01059325)
  9: 0x0444 [0x4E] SET_ENTITY_HIDE_FLAG: Show Unnamed NPC (ID: 17142566/0x01059326)
 10: 0x044A [0x4E] SET_ENTITY_HIDE_FLAG: Show Unnamed NPC (ID: 17142567/0x01059327)
 11: 0x0450 [0x94] LocalPlayer->Render.Flags3 ^= 0x01
 12: 0x0456 [0x92] Unnamed NPC (ID: 17142565/0x01059325)->Render.Flags3 ^= 0x01
 13: 0x045C [0x02] IF !(Work_Zone[9] == 1*) GOTO 0x056F
 14: 0x0464 [0xBA] SET_ENTITY_POSITION(entity_id=LocalPlayer, pos_x=-119.069*, pos_z=582.945*, pos_y=-7.280*, direction=190.3°*)
 15: 0x0471 [0xBA] SET_ENTITY_POSITION(entity_id=Unnamed NPC (ID: 17142565/0x01059325), pos_x=-126.535*, pos_z=584.434*, pos_y=-6.750*, direction=5.5°*)
 16: 0x047E [0xBA] SET_ENTITY_POSITION(entity_id=Unnamed NPC (ID: 17142566/0x01059326), pos_x=-125.039*, pos_z=587.765*, pos_y=-6.750*, direction=52.4°*)
 17: 0x048B [0xBA] SET_ENTITY_POSITION(entity_id=Unnamed NPC (ID: 17142567/0x01059327), pos_x=-125.802*, pos_z=579.049*, pos_y=-6.949*, direction=330.4°*)
 18: 0x0498 [0x80] LOAD_WAIT(entity=LocalPlayer)
 19: 0x049D [0x80] LOAD_WAIT(entity=Unnamed NPC (ID: 17142565/0x01059325))
 20: 0x04A2 [0x80] LOAD_WAIT(entity=Unnamed NPC (ID: 17142566/0x01059326))
 21: 0x04A7 [0x80] LOAD_WAIT(entity=Unnamed NPC (ID: 17142567/0x01059327))
 22: 0x04AC [0x1C] WAIT(30* ticks)
 23: 0x04AF [0x27] REQ_SET(priority=0x05, entity_id=Unnamed NPC (ID: 17142565/0x01059325), tag_num=0x0D)
 24: 0x04B6 [0x1C] WAIT(5* ticks)
 25: 0x04B9 [0x27] REQ_SET(priority=0x05, entity_id=Unnamed NPC (ID: 17142566/0x01059326), tag_num=0x0C)
 26: 0x04C0 [0x1C] WAIT(5* ticks)
 27: 0x04C3 [0x27] REQ_SET(priority=0x05, entity_id=Unnamed NPC (ID: 17142567/0x01059327), tag_num=0x0C)
 28: 0x04CA [0x45] LOAD_SCHEDULED_TASK: Load scheduler "s089" with entities [EventEntity, EventEntity], work=[531*, 0*]
 29: 0x04DB [0x1A] CALL_SUBROUTINE(address=0x411A)
 30: 0x04DE [0x2A] GET_REQ_LEVEL(level=5, entity_id=Unnamed NPC (ID: 17142565/0x01059325))
 31: 0x04E4 [0x55] WAIT_LOAD_SCHEDULER: Wait for scheduler "s089" with entities [EventEntity, EventEntity], work=531*
 32: 0x04F3 [0x45] LOAD_SCHEDULED_TASK: Load scheduler "s090" with entities [EventEntity, EventEntity], work=[531*, 0*]
 33: 0x0504 [0x4A] LocalPlayer looks at Unnamed NPC (ID: 17142565/0x01059325)
 34: 0x050D [0x1C] WAIT(15* ticks)
 35: 0x0510 [0x2B] Unnamed NPC (ID: 17142565/0x01059325) [8321*]:
    → "Dost thou not remember my words? Even the faintest exposure to distress would leave thy friend with soul-deep scars."
 36: 0x0517 [0x23] WAIT_FOR_DIALOG_INTERACTION
 37: 0x0518 [0x1C] WAIT(15* ticks)
 38: 0x051B [0x52] END_LOAD_SCHEDULER: End scheduler "s090" with entities [EventEntity, EventEntity], work=531*
 39: 0x052A [0x45] LOAD_SCHEDULED_TASK: Load scheduler "s091" with entities [EventEntity, EventEntity], work=[531*, 0*]
 40: 0x053B [0x2B] Unnamed NPC (ID: 17142565/0x01059325) [8322*]:
    → "Pray refrain from such actions as would frighten her gentle heart. Instead, give unto her the assurance that thou wouldst do her no harm."
 41: 0x0542 [0x23] WAIT_FOR_DIALOG_INTERACTION
 42: 0x0543 [0x1A] CALL_SUBROUTINE(address=0x413B)
 43: 0x0546 [0x1C] WAIT(30* ticks)
 44: 0x0549 [0x52] END_LOAD_SCHEDULER: End scheduler "s091" with entities [EventEntity, EventEntity], work=531*
 45: 0x0558 [0x5C] MUSIC_CONTROL: Set Idle (Day) music to song 0*
 46: 0x055C [0x5C] MUSIC_CONTROL: Set Idle (Night) music to song 0*
 47: 0x0560 [0x5C] MUSIC_CONTROL: Set Combat (Solo) music to song 0*
 48: 0x0564 [0x5C] MUSIC_CONTROL: Set Combat (Party) music to song 0*
 49: 0x0568 [0x9A] WAIT_MUSIC_SERVER()
 50: 0x0569 [0x06] Work_Zone[1] = 0
 51: 0x056C [0x01] GOTO 0x3BEE
 52: 0x056F [0x77] SET_EVENT_TIME_WEATHER(hour=255*, weather=1*)
 53: 0x0574 [0x2F] Cait Sith (ID: 17142627/0x01059363)->Render.Flags0 &= ~0x80000 // Bit 19
 54: 0x057A [0x2F] Cavernous Maw (ID: 17142628/0x01059364)->Render.Flags0 &= ~0x80000 // Bit 19
