# 17142600 - Nichais

## Common Data

| Field            | Value                 |
|------------------|-----------------------|
| Zone             | Grauberg [S] (ID: 89) |
| Block Size       | 892 bytes             |
| Total Events     | 23                    |
| References Count | 68                    |

## List of Events

| Event ID                   | Entrypoint   |   Size |   Instructions |
|----------------------------|--------------|--------|----------------|
| [65535](#event-65535)      | 0x0000       |      1 |              1 |
| [17](#event-17)            | 0x0001       |     21 |              2 |
| [18](#event-18)            | 0x0016       |     21 |              2 |
| [65535.1](#event-655351)   | 0x002B       |     21 |              2 |
| [65535.2](#event-655352)   | 0x0040       |      3 |              2 |
| [65535.3](#event-655353)   | 0x0043       |      3 |              2 |
| [65535.4](#event-655354)   | 0x0046       |     37 |              5 |
| [65535.5](#event-655355)   | 0x006B       |     37 |              5 |
| [65535.6](#event-655356)   | 0x0090       |     14 |              4 |
| [65535.7](#event-655357)   | 0x009E       |     14 |              4 |
| [65535.8](#event-655358)   | 0x00AC       |     14 |              4 |
| [65535.9](#event-655359)   | 0x00BA       |     14 |              4 |
| [65535.10](#event-6553510) | 0x00C8       |     14 |              4 |
| [65535.11](#event-6553511) | 0x00D6       |     14 |              4 |
| [65535.12](#event-6553512) | 0x00E4       |     14 |              4 |
| [65535.13](#event-6553513) | 0x00F2       |     14 |              4 |
| [65535.14](#event-6553514) | 0x0100       |     14 |              4 |
| [65535.15](#event-6553515) | 0x010E       |     14 |              4 |
| [65535.16](#event-6553516) | 0x011C       |     14 |              4 |
| [65535.17](#event-6553517) | 0x012A       |     14 |              4 |
| [65535.18](#event-6553518) | 0x0138       |     21 |              2 |
| [65535.19](#event-6553519) | 0x014D       |     14 |              4 |
| [65535.20](#event-6553520) | 0x015B       |    162 |             36 |

## DAT References (imed_data)

|   Index | Hex Value   |   Dec Value |
|---------|-------------|-------------|
|       0 | 0x0003      |           3 |
|       1 | 0x000C      |          12 |
|       2 | 0x0000      |           0 |
|       3 | 0x0017      |          23 |
|       4 | 0x0082      |         130 |
|       5 | 0x00A2      |         162 |
|       6 | 0x00B7      |         183 |
|       7 | 0x002B      |          43 |
|       8 | 0xFFFD8735  |  4294805301 |
|       9 | 0xFFFAADF4  |  4294618612 |
|      10 | 0xFFFFA3C5  |  4294943685 |
|      11 | 0x0024      |          36 |
|      12 | 0xFFFD8A7D  |  4294806141 |
|      13 | 0xFFFAB7F0  |  4294621168 |
|      14 | 0xFFFFA45D  |  4294943837 |
|      15 | 0x0039      |          57 |
|      16 | 0xFFFD7290  |  4294800016 |
|      17 | 0xFFFAB4F9  |  4294620409 |
|      18 | 0xFFFF9DFE  |  4294942206 |
|      19 | 0x000D      |          13 |
|      20 | 0xFFFD6D5E  |  4294798686 |
|      21 | 0xFFFAAECD  |  4294618829 |
|      22 | 0xFFFF9C5D  |  4294941789 |
|      23 | 0x0013      |          19 |
|      24 | 0xFFF908C3  |  4294510787 |
|      25 | 0x36983     |      223619 |
|      26 | 0xFFFD832A  |  4294804266 |
|      27 | 0xFFFD8D3E  |  4294806846 |
|      28 | 0xFFFAB16F  |  4294619503 |
|      29 | 0xFFFFA3CF  |  4294943695 |
|      30 | 0x0029      |          41 |
|      31 | 0xFFF85EB1  |  4294467249 |
|      32 | 0x39C8C     |      236684 |
|      33 | 0xFFFD72CE  |  4294800078 |
|      34 | 0x0012      |          18 |
|      35 | 0xFFFD8E82  |  4294807170 |
|      36 | 0xFFFAD4E6  |  4294628582 |
|      37 | 0xFFFFA5CE  |  4294944206 |
|      38 | 0x002A      |          42 |
|      39 | 0xFFFDA585  |  4294813061 |
|      40 | 0xFFFAC1C7  |  4294623687 |
|      41 | 0xFFFFA47F  |  4294943871 |
|      42 | 0x0028      |          40 |
|      43 | 0xFFFD9982  |  4294809986 |
|      44 | 0xFFFAB2B9  |  4294619833 |
|      45 | 0xFFFFA4BE  |  4294943934 |
|      46 | 0xFFFD8D83  |  4294806915 |
|      47 | 0xFFFAB7AF  |  4294621103 |
|      48 | 0xFFFFA472  |  4294943858 |
|      49 | 0xFFFD8454  |  4294804564 |
|      50 | 0xFFFA9529  |  4294612265 |
|      51 | 0xFFFF9FBB  |  4294942651 |
|      52 | 0x0001      |           1 |
|      53 | 0x0005      |           5 |
|      54 | 0x00CA      |         202 |
|      55 | 0xFFFD7B3B  |  4294802235 |
|      56 | 0xFFFA96AD  |  4294612653 |
|      57 | 0xFFFF9E2A  |  4294942250 |
|      58 | 0x0038      |          56 |
|      59 | 0xFFFD7DF2  |  4294802930 |
|      60 | 0xFFFA954A  |  4294612298 |
|      61 | 0xFFFF9E24  |  4294942244 |
|      62 | 0x0002      |           2 |
|      63 | 0x000A      |          10 |
|      64 | 0x0009      |           9 |
|      65 | 0x0046      |          70 |
|      66 | 0x008C      |         140 |
|      67 | 0x00D2      |         210 |

## Events

### Event 65535

#### Metadata

| Field        | Value   |
|--------------|---------|
| Entrypoint   | 0x0000  |
| Data Size    | 1 bytes |
| Instructions | 1       |

```
      00 01 02 03 04 05 06 07  08 09 0A 0B 0C 0D 0E 0F
      -- -- -- -- -- -- -- --  -- -- -- -- -- -- -- --
0000: 00                                                .               
```

#### Opcodes

```
  0: 0x0000 [0x00] END_REQSTACK()
```

### Event 17

#### Metadata

| Field        | Value    |
|--------------|----------|
| Entrypoint   | 0x0001   |
| Data Size    | 21 bytes |
| Instructions | 2        |

```
      00 01 02 03 04 05 06 07  08 09 0A 0B 0C 0D 0E 0F
      -- -- -- -- -- -- -- --  -- -- -- -- -- -- -- --
0000:    B6 0B 00 80 01 80 02  80 03 80 02 80 04 80 05   ...............
0010: 80 06 80 02 80 00                                 ......          
```

#### Opcodes

```
  0: 0x0001 [0xB6] ENTITY_APPEARANCE_HANDLER(case=Full entity look, race=3*, hair=12*, head=0*, body=23*, hands=0*, legs=130*, feet=162*, main=183*, sub=0*)
  1: 0x0015 [0x00] END_REQSTACK()
```

### Event 18

#### Metadata

| Field        | Value    |
|--------------|----------|
| Entrypoint   | 0x0016   |
| Data Size    | 21 bytes |
| Instructions | 2        |

```
      00 01 02 03 04 05 06 07  08 09 0A 0B 0C 0D 0E 0F
      -- -- -- -- -- -- -- --  -- -- -- -- -- -- -- --
0010:                   B6 0B  00 80 01 80 02 80 03 80        ..........
0020: 02 80 04 80 05 80 06 80  02 80 00                 ...........     
```

#### Opcodes

```
  0: 0x0016 [0xB6] ENTITY_APPEARANCE_HANDLER(case=Full entity look, race=3*, hair=12*, head=0*, body=23*, hands=0*, legs=130*, feet=162*, main=183*, sub=0*)
  1: 0x002A [0x00] END_REQSTACK()
```

### Event 65535.1

#### Metadata

| Field        | Value    |
|--------------|----------|
| Entrypoint   | 0x002B   |
| Data Size    | 21 bytes |
| Instructions | 2        |

```
      00 01 02 03 04 05 06 07  08 09 0A 0B 0C 0D 0E 0F
      -- -- -- -- -- -- -- --  -- -- -- -- -- -- -- --
0020:                                   B6 0B 00 80 01             .....
0030: 80 02 80 03 80 02 80 04  80 05 80 06 80 02 80 00  ................
```

#### Opcodes

```
  0: 0x002B [0xB6] ENTITY_APPEARANCE_HANDLER(case=Full entity look, race=3*, hair=12*, head=0*, body=23*, hands=0*, legs=130*, feet=162*, main=183*, sub=0*)
  1: 0x003F [0x00] END_REQSTACK()
```

### Event 65535.2

#### Metadata

| Field        | Value   |
|--------------|---------|
| Entrypoint   | 0x0040  |
| Data Size    | 3 bytes |
| Instructions | 2       |

```
      00 01 02 03 04 05 06 07  08 09 0A 0B 0C 0D 0E 0F
      -- -- -- -- -- -- -- --  -- -- -- -- -- -- -- --
0040: 61 00 00                                          a..             
```

#### Opcodes

```
  0: 0x0040 [0x61] EventEntity->Render.Flags2 &= ~0x00000001
  1: 0x0042 [0x00] END_REQSTACK()
```

### Event 65535.3

#### Metadata

| Field        | Value   |
|--------------|---------|
| Entrypoint   | 0x0043  |
| Data Size    | 3 bytes |
| Instructions | 2       |

```
      00 01 02 03 04 05 06 07  08 09 0A 0B 0C 0D 0E 0F
      -- -- -- -- -- -- -- --  -- -- -- -- -- -- -- --
0040:          61 01 00                                    a..          
```

#### Opcodes

```
  0: 0x0043 [0x61] EventEntity->Render.Flags2 |= 0x00000001
  1: 0x0045 [0x00] END_REQSTACK()
```

### Event 65535.4

#### Metadata

| Field        | Value    |
|--------------|----------|
| Entrypoint   | 0x0046   |
| Data Size    | 37 bytes |
| Instructions | 5        |

```
      00 01 02 03 04 05 06 07  08 09 0A 0B 0C 0D 0E 0F
      -- -- -- -- -- -- -- --  -- -- -- -- -- -- -- --
0040:                   03 00  00 07 7F 1A 69 01 66 01        ......i.f.
0050: 00 F8 FF FF 7F F8 FF FF  7F 73 68 61 30 53 F8 FF  .........sha0S..
0060: FF 7F F8 FF FF 7F 73 68  61 30 00                 ......sha0.     
```

#### Opcodes

```
  0: 0x0046 [0x03] ExtData[1]->WorkLocal[0] = Entity->Race
  1: 0x004B [0x1A] CALL_SUBROUTINE(address=0x0169)
  2: 0x004E [0x66] LOAD_EXT_SCHEDULER_MAIN: Load scheduler "sha0" with entities [EventEntity, EventEntity], work=ExtData[1]->WorkLocal[1]
  3: 0x005D [0x53] WAIT_SCHEDULER_TASK: Wait for scheduler "sha0" with entities [EventEntity, EventEntity]
  4: 0x006A [0x00] END_REQSTACK()
```

### Event 65535.5

#### Metadata

| Field        | Value    |
|--------------|----------|
| Entrypoint   | 0x006B   |
| Data Size    | 37 bytes |
| Instructions | 5        |

```
      00 01 02 03 04 05 06 07  08 09 0A 0B 0C 0D 0E 0F
      -- -- -- -- -- -- -- --  -- -- -- -- -- -- -- --
0060:                                   03 00 00 07 7F             .....
0070: 1A 69 01 66 01 00 F8 FF  FF 7F F8 FF FF 7F 73 68  .i.f..........sh
0080: 61 31 53 F8 FF FF 7F F8  FF FF 7F 73 68 61 31 00  a1S........sha1.
```

#### Opcodes

```
  0: 0x006B [0x03] ExtData[1]->WorkLocal[0] = Entity->Race
  1: 0x0070 [0x1A] CALL_SUBROUTINE(address=0x0169)
  2: 0x0073 [0x66] LOAD_EXT_SCHEDULER_MAIN: Load scheduler "sha1" with entities [EventEntity, EventEntity], work=ExtData[1]->WorkLocal[1]
  3: 0x0082 [0x53] WAIT_SCHEDULER_TASK: Wait for scheduler "sha1" with entities [EventEntity, EventEntity]
  4: 0x008F [0x00] END_REQSTACK()
```

### Event 65535.6

#### Metadata

| Field        | Value    |
|--------------|----------|
| Entrypoint   | 0x0090   |
| Data Size    | 14 bytes |
| Instructions | 4        |

```
      00 01 02 03 04 05 06 07  08 09 0A 0B 0C 0D 0E 0F
      -- -- -- -- -- -- -- --  -- -- -- -- -- -- -- --
0090: 32 07 80 1F 00 08 80 09  80 0A 80 1F 01 00        2.............  
```

#### Opcodes

```
  0: 0x0090 [0x32] ExtData[1]->MainSpeed = 43* * 0.1
  1: 0x0093 [0x1F] MOVE_ENTITY: EventEntity moves to X=-161.995*, Z=-348.684*, Y=-23.611*
  2: 0x009B [0x1F] MOVE_ENTITY: Update entity position (mode=1)
  3: 0x009D [0x00] END_REQSTACK()
```

### Event 65535.7

#### Metadata

| Field        | Value    |
|--------------|----------|
| Entrypoint   | 0x009E   |
| Data Size    | 14 bytes |
| Instructions | 4        |

```
      00 01 02 03 04 05 06 07  08 09 0A 0B 0C 0D 0E 0F
      -- -- -- -- -- -- -- --  -- -- -- -- -- -- -- --
0090:                                            32 0B                2.
00A0: 80 1F 00 0C 80 0D 80 0E  80 1F 01 00              ............    
```

#### Opcodes

```
  0: 0x009E [0x32] ExtData[1]->MainSpeed = 36* * 0.1
  1: 0x00A1 [0x1F] MOVE_ENTITY: EventEntity moves to X=-161.155*, Z=-346.128*, Y=-23.459*
  2: 0x00A9 [0x1F] MOVE_ENTITY: Update entity position (mode=1)
  3: 0x00AB [0x00] END_REQSTACK()
```

### Event 65535.8

#### Metadata

| Field        | Value    |
|--------------|----------|
| Entrypoint   | 0x00AC   |
| Data Size    | 14 bytes |
| Instructions | 4        |

```
      00 01 02 03 04 05 06 07  08 09 0A 0B 0C 0D 0E 0F
      -- -- -- -- -- -- -- --  -- -- -- -- -- -- -- --
00A0:                                      32 0F 80 1F              2...
00B0: 00 10 80 11 80 12 80 1F  01 00                    ..........      
```

#### Opcodes

```
  0: 0x00AC [0x32] ExtData[1]->MainSpeed = 57* * 0.1
  1: 0x00AF [0x1F] MOVE_ENTITY: EventEntity moves to X=-167.280*, Z=-346.887*, Y=-25.090*
  2: 0x00B7 [0x1F] MOVE_ENTITY: Update entity position (mode=1)
  3: 0x00B9 [0x00] END_REQSTACK()
```

### Event 65535.9

#### Metadata

| Field        | Value    |
|--------------|----------|
| Entrypoint   | 0x00BA   |
| Data Size    | 14 bytes |
| Instructions | 4        |

```
      00 01 02 03 04 05 06 07  08 09 0A 0B 0C 0D 0E 0F
      -- -- -- -- -- -- -- --  -- -- -- -- -- -- -- --
00B0:                                32 13 80 1F 00 14            2.....
00C0: 80 15 80 16 80 1F 01 00                           ........        
```

#### Opcodes

```
  0: 0x00BA [0x32] ExtData[1]->MainSpeed = 13* * 0.1
  1: 0x00BD [0x1F] MOVE_ENTITY: EventEntity moves to X=-168.610*, Z=-348.467*, Y=-25.507*
  2: 0x00C5 [0x1F] MOVE_ENTITY: Update entity position (mode=1)
  3: 0x00C7 [0x00] END_REQSTACK()
```

### Event 65535.10

#### Metadata

| Field        | Value    |
|--------------|----------|
| Entrypoint   | 0x00C8   |
| Data Size    | 14 bytes |
| Instructions | 4        |

```
      00 01 02 03 04 05 06 07  08 09 0A 0B 0C 0D 0E 0F
      -- -- -- -- -- -- -- --  -- -- -- -- -- -- -- --
00C0:                          32 17 80 1F 00 18 80 19          2.......
00D0: 80 1A 80 1F 01 00                                 ......          
```

#### Opcodes

```
  0: 0x00C8 [0x32] ExtData[1]->MainSpeed = 19* * 0.1
  1: 0x00CB [0x1F] MOVE_ENTITY: EventEntity moves to X=-456.509*, Z=223.619*, Y=-163.030*
  2: 0x00D3 [0x1F] MOVE_ENTITY: Update entity position (mode=1)
  3: 0x00D5 [0x00] END_REQSTACK()
```

### Event 65535.11

#### Metadata

| Field        | Value    |
|--------------|----------|
| Entrypoint   | 0x00D6   |
| Data Size    | 14 bytes |
| Instructions | 4        |

```
      00 01 02 03 04 05 06 07  08 09 0A 0B 0C 0D 0E 0F
      -- -- -- -- -- -- -- --  -- -- -- -- -- -- -- --
00D0:                   32 07  80 5A 00 1B 80 1C 80 1D        2..Z......
00E0: 80 5A 01 00                                       .Z..            
```

#### Opcodes

```
  0: 0x00D6 [0x32] ExtData[1]->MainSpeed = 43* * 0.1
  1: 0x00D9 [0x5A] UPDATE_EVENT_POSITION: Set EventEntity MovePosition to X=-160.450*, Z=-347.793*, Y=-23.601*
  2: 0x00E1 [0x5A] UPDATE_EVENT_POSITION: Move EventEntity incrementally towards MovePosition
  3: 0x00E3 [0x00] END_REQSTACK()
```

### Event 65535.12

#### Metadata

| Field        | Value    |
|--------------|----------|
| Entrypoint   | 0x00E4   |
| Data Size    | 14 bytes |
| Instructions | 4        |

```
      00 01 02 03 04 05 06 07  08 09 0A 0B 0C 0D 0E 0F
      -- -- -- -- -- -- -- --  -- -- -- -- -- -- -- --
00E0:             32 1E 80 5A  00 1F 80 20 80 21 80 5A      2..Z... .!.Z
00F0: 01 00                                             ..              
```

#### Opcodes

```
  0: 0x00E4 [0x32] ExtData[1]->MainSpeed = 41* * 0.1
  1: 0x00E7 [0x5A] UPDATE_EVENT_POSITION: Set EventEntity MovePosition to X=-500.047*, Z=236.684*, Y=-167.218*
  2: 0x00EF [0x5A] UPDATE_EVENT_POSITION: Move EventEntity incrementally towards MovePosition
  3: 0x00F1 [0x00] END_REQSTACK()
```

### Event 65535.13

#### Metadata

| Field        | Value    |
|--------------|----------|
| Entrypoint   | 0x00F2   |
| Data Size    | 14 bytes |
| Instructions | 4        |

```
      00 01 02 03 04 05 06 07  08 09 0A 0B 0C 0D 0E 0F
      -- -- -- -- -- -- -- --  -- -- -- -- -- -- -- --
00F0:       32 22 80 1F 00 23  80 24 80 25 80 1F 01 00    2"...#.$.%....
```

#### Opcodes

```
  0: 0x00F2 [0x32] ExtData[1]->MainSpeed = 18* * 0.1
  1: 0x00F5 [0x1F] MOVE_ENTITY: EventEntity moves to X=-160.126*, Z=-338.714*, Y=-23.090*
  2: 0x00FD [0x1F] MOVE_ENTITY: Update entity position (mode=1)
  3: 0x00FF [0x00] END_REQSTACK()
```

### Event 65535.14

#### Metadata

| Field        | Value    |
|--------------|----------|
| Entrypoint   | 0x0100   |
| Data Size    | 14 bytes |
| Instructions | 4        |

```
      00 01 02 03 04 05 06 07  08 09 0A 0B 0C 0D 0E 0F
      -- -- -- -- -- -- -- --  -- -- -- -- -- -- -- --
0100: 32 26 80 1F 00 27 80 28  80 29 80 1F 01 00        2&...'.(.)....  
```

#### Opcodes

```
  0: 0x0100 [0x32] ExtData[1]->MainSpeed = 42* * 0.1
  1: 0x0103 [0x1F] MOVE_ENTITY: EventEntity moves to X=-154.235*, Z=-343.609*, Y=-23.425*
  2: 0x010B [0x1F] MOVE_ENTITY: Update entity position (mode=1)
  3: 0x010D [0x00] END_REQSTACK()
```

### Event 65535.15

#### Metadata

| Field        | Value    |
|--------------|----------|
| Entrypoint   | 0x010E   |
| Data Size    | 14 bytes |
| Instructions | 4        |

```
      00 01 02 03 04 05 06 07  08 09 0A 0B 0C 0D 0E 0F
      -- -- -- -- -- -- -- --  -- -- -- -- -- -- -- --
0100:                                            32 2A                2*
0110: 80 1F 00 2B 80 2C 80 2D  80 1F 01 00              ...+.,.-....    
```

#### Opcodes

```
  0: 0x010E [0x32] ExtData[1]->MainSpeed = 40* * 0.1
  1: 0x0111 [0x1F] MOVE_ENTITY: EventEntity moves to X=-157.310*, Z=-347.463*, Y=-23.362*
  2: 0x0119 [0x1F] MOVE_ENTITY: Update entity position (mode=1)
  3: 0x011B [0x00] END_REQSTACK()
```

### Event 65535.16

#### Metadata

| Field        | Value    |
|--------------|----------|
| Entrypoint   | 0x011C   |
| Data Size    | 14 bytes |
| Instructions | 4        |

```
      00 01 02 03 04 05 06 07  08 09 0A 0B 0C 0D 0E 0F
      -- -- -- -- -- -- -- --  -- -- -- -- -- -- -- --
0110:                                      32 22 80 1F              2"..
0120: 00 2E 80 2F 80 30 80 1F  01 00                    .../.0....      
```

#### Opcodes

```
  0: 0x011C [0x32] ExtData[1]->MainSpeed = 18* * 0.1
  1: 0x011F [0x1F] MOVE_ENTITY: EventEntity moves to X=-160.381*, Z=-346.193*, Y=-23.438*
  2: 0x0127 [0x1F] MOVE_ENTITY: Update entity position (mode=1)
  3: 0x0129 [0x00] END_REQSTACK()
```

### Event 65535.17

#### Metadata

| Field        | Value    |
|--------------|----------|
| Entrypoint   | 0x012A   |
| Data Size    | 14 bytes |
| Instructions | 4        |

```
      00 01 02 03 04 05 06 07  08 09 0A 0B 0C 0D 0E 0F
      -- -- -- -- -- -- -- --  -- -- -- -- -- -- -- --
0120:                                32 07 80 1F 00 31            2....1
0130: 80 32 80 33 80 1F 01 00                           .2.3....        
```

#### Opcodes

```
  0: 0x012A [0x32] ExtData[1]->MainSpeed = 43* * 0.1
  1: 0x012D [0x1F] MOVE_ENTITY: EventEntity moves to X=-162.732*, Z=-355.031*, Y=-24.645*
  2: 0x0135 [0x1F] MOVE_ENTITY: Update entity position (mode=1)
  3: 0x0137 [0x00] END_REQSTACK()
```

### Event 65535.18

#### Metadata

| Field        | Value    |
|--------------|----------|
| Entrypoint   | 0x0138   |
| Data Size    | 21 bytes |
| Instructions | 2        |

```
      00 01 02 03 04 05 06 07  08 09 0A 0B 0C 0D 0E 0F
      -- -- -- -- -- -- -- --  -- -- -- -- -- -- -- --
0130:                          B6 0B 34 80 35 80 35 80          ..4.5.5.
0140: 35 80 35 80 35 80 35 80  36 80 02 80 00           5.5.5.5.6....   
```

#### Opcodes

```
  0: 0x0138 [0xB6] ENTITY_APPEARANCE_HANDLER(case=Full entity look, race=1*, hair=5*, head=5*, body=5*, hands=5*, legs=5*, feet=5*, main=202*, sub=0*)
  1: 0x014C [0x00] END_REQSTACK()
```

### Event 65535.19

#### Metadata

| Field        | Value    |
|--------------|----------|
| Entrypoint   | 0x014D   |
| Data Size    | 14 bytes |
| Instructions | 4        |

```
      00 01 02 03 04 05 06 07  08 09 0A 0B 0C 0D 0E 0F
      -- -- -- -- -- -- -- --  -- -- -- -- -- -- -- --
0140:                                         32 22 80               2".
0150: 1F 00 37 80 38 80 39 80  1F 01 00                 ..7.8.9....     
```

#### Opcodes

```
  0: 0x014D [0x32] ExtData[1]->MainSpeed = 18* * 0.1
  1: 0x0150 [0x1F] MOVE_ENTITY: EventEntity moves to X=-165.061*, Z=-354.643*, Y=-25.046*
  2: 0x0158 [0x1F] MOVE_ENTITY: Update entity position (mode=1)
  3: 0x015A [0x00] END_REQSTACK()
```

### Event 65535.20

#### Metadata

| Field        | Value     |
|--------------|-----------|
| Entrypoint   | 0x015B    |
| Data Size    | 162 bytes |
| Instructions | 4         |

```
      00 01 02 03 04 05 06 07  08 09 0A 0B 0C 0D 0E 0F
      -- -- -- -- -- -- -- --  -- -- -- -- -- -- -- --
0150:                                   32 3A 80 1F 00             2:...
0160: 3B 80 3C 80 3D 80 1F 01  00 03 01 00 00 00 02 01  ;.<.=...........
0170: 00 35 80 05 7E 01 08 01  00 34 80 01 83 01 08 01  .5..~....4......
0180: 00 3E 80 14 01 00 3F 80  07 01 00 40 80 1B 03 01  .>....?....@....
0190: 00 00 00 02 01 00 35 80  05 A3 01 08 01 00 34 80  ......5.......4.
01A0: 01 A8 01 08 01 00 3E 80  14 01 00 3F 80 07 01 00  ......>....?....
01B0: 41 80 1B 03 01 00 00 00  02 01 00 35 80 05 C8 01  A..........5....
01C0: 08 01 00 34 80 01 CD 01  08 01 00 3E 80 14 01 00  ...4.......>....
01D0: 3F 80 07 01 00 42 80 1B  03 01 00 00 00 02 01 00  ?....B..........
01E0: 35 80 05 ED 01 08 01 00  34 80 01 F2 01 08 01 00  5.......4.......
01F0: 3E 80 14 01 00 3F 80 07  01 00 43 80 1B           >....?....C..   
```

#### Opcodes

```
  0: 0x015B [0x32] ExtData[1]->MainSpeed = 56* * 0.1
  1: 0x015E [0x1F] MOVE_ENTITY: EventEntity moves to X=-164.366*, Z=-354.998*, Y=-25.052*
  2: 0x0166 [0x1F] MOVE_ENTITY: Update entity position (mode=1)
  3: 0x0168 [0x00] END_REQSTACK()
```

#### Data or dead code:

```
# Dead code (unreachable instructions):
     0x0169 [0x03] ExtData[1]->WorkLocal[1] = ExtData[1]->WorkLocal[0]
     0x016E [0x02] IF !(ExtData[1]->WorkLocal[1] > 5*) GOTO 0x017E
     0x0176 [0x08] ExtData[1]->WorkLocal[1] -= 1*
     0x017B [0x01] GOTO 0x0183
     0x017E [0x08] ExtData[1]->WorkLocal[1] -= 2*
     0x0183 [0x14] ExtData[1]->WorkLocal[1] *= 10*
     0x0188 [0x07] ExtData[1]->WorkLocal[1] += 9*
     0x018D [0x1B] RETURN
     0x018E [0x03] ExtData[1]->WorkLocal[1] = ExtData[1]->WorkLocal[0]
     0x0193 [0x02] IF !(ExtData[1]->WorkLocal[1] > 5*) GOTO 0x01A3
     0x019B [0x08] ExtData[1]->WorkLocal[1] -= 1*
     0x01A0 [0x01] GOTO 0x01A8
     0x01A3 [0x08] ExtData[1]->WorkLocal[1] -= 2*
     0x01A8 [0x14] ExtData[1]->WorkLocal[1] *= 10*
     0x01AD [0x07] ExtData[1]->WorkLocal[1] += 70*
     0x01B2 [0x1B] RETURN
     0x01B3 [0x03] ExtData[1]->WorkLocal[1] = ExtData[1]->WorkLocal[0]
     0x01B8 [0x02] IF !(ExtData[1]->WorkLocal[1] > 5*) GOTO 0x01C8
     0x01C0 [0x08] ExtData[1]->WorkLocal[1] -= 1*
     0x01C5 [0x01] GOTO 0x01CD
     0x01C8 [0x08] ExtData[1]->WorkLocal[1] -= 2*
     0x01CD [0x14] ExtData[1]->WorkLocal[1] *= 10*
     0x01D2 [0x07] ExtData[1]->WorkLocal[1] += 140*
     0x01D7 [0x1B] RETURN
     0x01D8 [0x03] ExtData[1]->WorkLocal[1] = ExtData[1]->WorkLocal[0]
     0x01DD [0x02] IF !(ExtData[1]->WorkLocal[1] > 5*) GOTO 0x01ED
     0x01E5 [0x08] ExtData[1]->WorkLocal[1] -= 1*
     0x01EA [0x01] GOTO 0x01F2
     0x01ED [0x08] ExtData[1]->WorkLocal[1] -= 2*
     0x01F2 [0x14] ExtData[1]->WorkLocal[1] *= 10*
     0x01F7 [0x07] ExtData[1]->WorkLocal[1] += 210*
     0x01FC [0x1B] RETURN
```
