# 17142525 - Werei

## Common Data

| Field            | Value                 |
|------------------|-----------------------|
| Zone             | Grauberg [S] (ID: 89) |
| Block Size       | 352 bytes             |
| Total Events     | 7                     |
| References Count | 35                    |

## List of Events

| Event ID                 | Entrypoint   |   Size |   Instructions |
|--------------------------|--------------|--------|----------------|
| [65535](#event-65535)    | 0x0000       |      1 |              1 |
| [11](#event-11)          | 0x0001       |      7 |              2 |
| [65535.1](#event-655351) | 0x0008       |     22 |              6 |
| [65535.2](#event-655352) | 0x001E       |     22 |              6 |
| [65535.3](#event-655353) | 0x0034       |     84 |             18 |
| [16](#event-16)          | 0x0088       |      7 |              2 |
| [65535.4](#event-655354) | 0x008F       |     22 |              6 |

## DAT References (imed_data)

|   Index | Hex Value   |   Dec Value |
|---------|-------------|-------------|
|       0 | 0x000D      |          13 |
|       1 | 0x3ECF0     |      257264 |
|       2 | 0x7E94E     |      518478 |
|       3 | 0x833E      |       33598 |
|       4 | 0x001E      |          30 |
|       5 | 0x3EEF6     |      257782 |
|       6 | 0x7E4BE     |      517310 |
|       7 | 0x82D7      |       33495 |
|       8 | 0x3EA29     |      256553 |
|       9 | 0x7F3A1     |      521121 |
|      10 | 0x8392      |       33682 |
|      11 | 0x3E96D     |      256365 |
|      12 | 0x7FA48     |      522824 |
|      13 | 0x83E1      |       33761 |
|      14 | 0x3ED8B     |      257419 |
|      15 | 0x80F98     |      528280 |
|      16 | 0x841F      |       33823 |
|      17 | 0x3EFAA     |      257962 |
|      18 | 0x81DA6     |      531878 |
|      19 | 0x8319      |       33561 |
|      20 | 0x3F157     |      258391 |
|      21 | 0x82BF7     |      535543 |
|      22 | 0x801C      |       32796 |
|      23 | 0x3EDE7     |      257511 |
|      24 | 0x832EF     |      537327 |
|      25 | 0x7D9F      |       32159 |
|      26 | 0x3EC45     |      257093 |
|      27 | 0x837DA     |      538586 |
|      28 | 0x7BEC      |       31724 |
|      29 | 0x3D2F5     |      250613 |
|      30 | 0x86D2D     |      552237 |
|      31 | 0x6C29      |       27689 |
|      32 | 0x3EF94     |      257940 |
|      33 | 0x7F890     |      522384 |
|      34 | 0x845B      |       33883 |

## Events

### Event 65535

#### Metadata

| Field        | Value   |
|--------------|---------|
| Entrypoint   | 0x0000  |
| Data Size    | 1 bytes |
| Instructions | 1       |

```
      00 01 02 03 04 05 06 07  08 09 0A 0B 0C 0D 0E 0F
      -- -- -- -- -- -- -- --  -- -- -- -- -- -- -- --
0000: 00                                                .               
```

#### Opcodes

```
  0: 0x0000 [0x00] END_REQSTACK()
```

### Event 11

#### Metadata

| Field        | Value   |
|--------------|---------|
| Entrypoint   | 0x0001  |
| Data Size    | 7 bytes |
| Instructions | 2       |

```
      00 01 02 03 04 05 06 07  08 09 0A 0B 0C 0D 0E 0F
      -- -- -- -- -- -- -- --  -- -- -- -- -- -- -- --
0000:    92 01 F8 FF FF 7F 00                            .......        
```

#### Opcodes

```
  0: 0x0001 [0x92] EventEntity->Render.Flags3 ^= 0x01
  1: 0x0007 [0x00] END_REQSTACK()
```

### Event 65535.1

#### Metadata

| Field        | Value    |
|--------------|----------|
| Entrypoint   | 0x0008   |
| Data Size    | 22 bytes |
| Instructions | 6        |

```
      00 01 02 03 04 05 06 07  08 09 0A 0B 0C 0D 0E 0F
      -- -- -- -- -- -- -- --  -- -- -- -- -- -- -- --
0000:                          32 00 80 1F 00 01 80 02          2.......
0010: 80 03 80 1F 01 1E F0 FF  FF 7F 1C 04 80 00        ..............  
```

#### Opcodes

```
  0: 0x0008 [0x32] ExtData[1]->MainSpeed = 13* * 0.1
  1: 0x000B [0x1F] MOVE_ENTITY: EventEntity moves to X=257.264*, Z=518.478*, Y=33.598*
  2: 0x0013 [0x1F] MOVE_ENTITY: Update entity position (mode=1)
  3: 0x0015 [0x1E] EventEntity looks at LocalPlayer and starts talking
  4: 0x001A [0x1C] WAIT(30* ticks)
  5: 0x001D [0x00] END_REQSTACK()
```

### Event 65535.2

#### Metadata

| Field        | Value    |
|--------------|----------|
| Entrypoint   | 0x001E   |
| Data Size    | 22 bytes |
| Instructions | 6        |

```
      00 01 02 03 04 05 06 07  08 09 0A 0B 0C 0D 0E 0F
      -- -- -- -- -- -- -- --  -- -- -- -- -- -- -- --
0010:                                            32 00                2.
0020: 80 1F 00 05 80 06 80 07  80 1F 01 1E F0 FF FF 7F  ................
0030: 1C 04 80 00                                       ....            
```

#### Opcodes

```
  0: 0x001E [0x32] ExtData[1]->MainSpeed = 13* * 0.1
  1: 0x0021 [0x1F] MOVE_ENTITY: EventEntity moves to X=257.782*, Z=517.310*, Y=33.495*
  2: 0x0029 [0x1F] MOVE_ENTITY: Update entity position (mode=1)
  3: 0x002B [0x1E] EventEntity looks at LocalPlayer and starts talking
  4: 0x0030 [0x1C] WAIT(30* ticks)
  5: 0x0033 [0x00] END_REQSTACK()
```

### Event 65535.3

#### Metadata

| Field        | Value    |
|--------------|----------|
| Entrypoint   | 0x0034   |
| Data Size    | 84 bytes |
| Instructions | 18       |

```
      00 01 02 03 04 05 06 07  08 09 0A 0B 0C 0D 0E 0F
      -- -- -- -- -- -- -- --  -- -- -- -- -- -- -- --
0030:             32 00 80 1F  00 08 80 09 80 0A 80 1F      2...........
0040: 01 1F 00 0B 80 0C 80 0D  80 1F 01 1F 00 0E 80 0F  ................
0050: 80 10 80 1F 01 1F 00 11  80 12 80 13 80 1F 01 1F  ................
0060: 00 14 80 15 80 16 80 1F  01 1F 00 17 80 18 80 19  ................
0070: 80 1F 01 1F 00 1A 80 1B  80 1C 80 1F 01 1F 00 1D  ................
0080: 80 1E 80 1F 80 1F 01 00                           ........        
```

#### Opcodes

```
  0: 0x0034 [0x32] ExtData[1]->MainSpeed = 13* * 0.1
  1: 0x0037 [0x1F] MOVE_ENTITY: EventEntity moves to X=256.553*, Z=521.121*, Y=33.682*
  2: 0x003F [0x1F] MOVE_ENTITY: Update entity position (mode=1)
  3: 0x0041 [0x1F] MOVE_ENTITY: EventEntity moves to X=256.365*, Z=522.824*, Y=33.761*
  4: 0x0049 [0x1F] MOVE_ENTITY: Update entity position (mode=1)
  5: 0x004B [0x1F] MOVE_ENTITY: EventEntity moves to X=257.419*, Z=528.280*, Y=33.823*
  6: 0x0053 [0x1F] MOVE_ENTITY: Update entity position (mode=1)
  7: 0x0055 [0x1F] MOVE_ENTITY: EventEntity moves to X=257.962*, Z=531.878*, Y=33.561*
  8: 0x005D [0x1F] MOVE_ENTITY: Update entity position (mode=1)
  9: 0x005F [0x1F] MOVE_ENTITY: EventEntity moves to X=258.391*, Z=535.543*, Y=32.796*
 10: 0x0067 [0x1F] MOVE_ENTITY: Update entity position (mode=1)
 11: 0x0069 [0x1F] MOVE_ENTITY: EventEntity moves to X=257.511*, Z=537.327*, Y=32.159*
 12: 0x0071 [0x1F] MOVE_ENTITY: Update entity position (mode=1)
 13: 0x0073 [0x1F] MOVE_ENTITY: EventEntity moves to X=257.093*, Z=538.586*, Y=31.724*
 14: 0x007B [0x1F] MOVE_ENTITY: Update entity position (mode=1)
 15: 0x007D [0x1F] MOVE_ENTITY: EventEntity moves to X=250.613*, Z=552.237*, Y=27.689*
 16: 0x0085 [0x1F] MOVE_ENTITY: Update entity position (mode=1)
 17: 0x0087 [0x00] END_REQSTACK()
```

### Event 16

#### Metadata

| Field        | Value   |
|--------------|---------|
| Entrypoint   | 0x0088  |
| Data Size    | 7 bytes |
| Instructions | 2       |

```
      00 01 02 03 04 05 06 07  08 09 0A 0B 0C 0D 0E 0F
      -- -- -- -- -- -- -- --  -- -- -- -- -- -- -- --
0080:                          92 01 F8 FF FF 7F 00             ....... 
```

#### Opcodes

```
  0: 0x0088 [0x92] EventEntity->Render.Flags3 ^= 0x01
  1: 0x008E [0x00] END_REQSTACK()
```

### Event 65535.4

#### Metadata

| Field        | Value    |
|--------------|----------|
| Entrypoint   | 0x008F   |
| Data Size    | 22 bytes |
| Instructions | 6        |

```
      00 01 02 03 04 05 06 07  08 09 0A 0B 0C 0D 0E 0F
      -- -- -- -- -- -- -- --  -- -- -- -- -- -- -- --
0080:                                               32                 2
0090: 00 80 1F 00 20 80 21 80  22 80 1F 01 1E 42 93 05  .... .!."....B..
00A0: 01 1C 04 80 00                                    .....           
```

#### Opcodes

```
  0: 0x008F [0x32] ExtData[1]->MainSpeed = 13* * 0.1
  1: 0x0092 [0x1F] MOVE_ENTITY: EventEntity moves to X=257.940*, Z=522.384*, Y=33.883*
  2: 0x009A [0x1F] MOVE_ENTITY: Update entity position (mode=1)
  3: 0x009C [0x1E] EventEntity looks at Volker (ID: 17142594/0x01059342) and starts talking
  4: 0x00A1 [0x1C] WAIT(30* ticks)
  5: 0x00A4 [0x00] END_REQSTACK()
```
