# 17142634

## Common Data

| Field            | Value                 |
|------------------|-----------------------|
| Zone             | Grauberg [S] (ID: 89) |
| Block Size       | 13380 bytes           |
| Total Events     | 8                     |
| References Count | 256                   |

## List of Events

| Event ID              | Entrypoint   |   Size |   Instructions |
|-----------------------|--------------|--------|----------------|
| [65535](#event-65535) | 0x0000       |      1 |              1 |
| [28](#event-28)       | 0x0001       |   5261 |            638 |
| [34](#event-34)       | 0x148E       |   1973 |            243 |
| [40](#event-40)       | 0x1C43       |    386 |             56 |
| [35](#event-35)       | 0x1DC5       |   2660 |            324 |
| [41](#event-41)       | 0x2829       |    309 |             47 |
| [42](#event-42)       | 0x295E       |    680 |             84 |
| [43](#event-43)       | 0x2C06       |   1038 |            120 |

## DAT References (imed_data)

|   Index | Hex Value   |   Dec Value |
|---------|-------------|-------------|
|       0 | 0x0013      |          19 |
|       1 | 0x001E      |          30 |
|       2 | 0x0005      |           5 |
|       3 | 0xFFFDCE98  |  4294823576 |
|       4 | 0x8F8C4     |      587972 |
|       5 | 0xFFFFE5A3  |  4294960547 |
|       6 | 0x0FE2      |        4066 |
|       7 | 0xFFFDD4E2  |  4294825186 |
|       8 | 0x8F26E     |      586350 |
|       9 | 0xFFFFE5A2  |  4294960546 |
|      10 | 0xFFFE4760  |  4294854496 |
|      11 | 0x8E7A6     |      583590 |
|      12 | 0xFFFFD878  |  4294957176 |
|      13 | 0x07D0      |        2000 |
|      14 | 0x0000      |           0 |
|      15 | 0x000A      |          10 |
|      16 | 0x0B2B      |        2859 |
|      17 | 0x021D      |         541 |
|      18 | 0xFFFDDBD2  |  4294826962 |
|      19 | 0x8E56F     |      583023 |
|      20 | 0xFFFDD83C  |  4294826044 |
|      21 | 0x8EC91     |      584849 |
|      22 | 0xFFFDEB94  |  4294830996 |
|      23 | 0x8E62A     |      583210 |
|      24 | 0xFFFFE220  |  4294959648 |
|      25 | 0x003F      |          63 |
|      26 | 0xFFFDD5A1  |  4294825377 |
|      27 | 0x8E55E     |      583006 |
|      28 | 0x0080      |         128 |
|      29 | 0x0001      |           1 |
|      30 | 0x0014      |          20 |
|      31 | 0x2033      |        8243 |
|      32 | 0x2034      |        8244 |
|      33 | 0x2035      |        8245 |
|      34 | 0x2036      |        8246 |
|      35 | 0x003C      |          60 |
|      36 | 0x2037      |        8247 |
|      37 | 0x000F      |          15 |
|      38 | 0x0069      |         105 |
|      39 | 0xFFFE3E50  |  4294852176 |
|      40 | 0x8E834     |      583732 |
|      41 | 0xFFFFE3E1  |  4294960097 |
|      42 | 0x080E      |        2062 |
|      43 | 0xFFFE2DCC  |  4294847948 |
|      44 | 0x8E932     |      583986 |
|      45 | 0xFFFFE3DE  |  4294960094 |
|      46 | 0xFFFE35E6  |  4294850022 |
|      47 | 0x8ED9C     |      585116 |
|      48 | 0xFFFFE36D  |  4294959981 |
|      49 | 0xFFFE29B0  |  4294846896 |
|      50 | 0x8E80A     |      583690 |
|      51 | 0xFFFFE46B  |  4294960235 |
|      52 | 0x0822      |        2082 |
|      53 | 0xFFFE2D62  |  4294847842 |
|      54 | 0x8F2F5     |      586485 |
|      55 | 0xFFFFE2E4  |  4294959844 |
|      56 | 0x0841      |        2113 |
|      57 | 0xFFFE28E8  |  4294846696 |
|      58 | 0x8E3BE     |      582590 |
|      59 | 0xFFFFE180  |  4294959488 |
|      60 | 0xFFFDB610  |  4294817296 |
|      61 | 0x8D1D0     |      578000 |
|      62 | 0xFFFF8AD0  |  4294937296 |
|      63 | 0x07E9      |        2025 |
|      64 | 0x0367      |         871 |
|      65 | 0x007C      |         124 |
|      66 | 0x00FD      |         253 |
|      67 | 0x005F      |          95 |
|      68 | 0x2038      |        8248 |
|      69 | 0x0006      |           6 |
|      70 | 0x2039      |        8249 |
|      71 | 0x203A      |        8250 |
|      72 | 0x203B      |        8251 |
|      73 | 0x0584      |        1412 |
|      74 | 0x203C      |        8252 |
|      75 | 0x203D      |        8253 |
|      76 | 0x203E      |        8254 |
|      77 | 0x051E      |        1310 |
|      78 | 0x005A      |          90 |
|      79 | 0x203F      |        8255 |
|      80 | 0x2040      |        8256 |
|      81 | 0x2041      |        8257 |
|      82 | 0x0007      |           7 |
|      83 | 0x0078      |         120 |
|      84 | 0x0869      |        2153 |
|      85 | 0x03E8      |        1000 |
|      86 | 0x00B6      |         182 |
|      87 | 0x00FF      |         255 |
|      88 | 0x8E3B2     |      582578 |
|      89 | 0xFFFCC4FF  |  4294755583 |
|      90 | 0x8C9F      |       35999 |
|      91 | 0x03FE      |        1022 |
|      92 | 0x8EA2C     |      584236 |
|      93 | 0xFFFCC072  |  4294754418 |
|      94 | 0x8E928     |      583976 |
|      95 | 0xFFFA39A8  |  4294588840 |
|      96 | 0xFFFFDCA9  |  4294958249 |
|      97 | 0x088E      |        2190 |
|      98 | 0x00DF      |         223 |
|      99 | 0x0054      |          84 |
|     100 | 0x0008      |           8 |
|     101 | 0x00B4      |         180 |
|     102 | 0x2042      |        8258 |
|     103 | 0x00C9      |         201 |
|     104 | 0x00DE      |         222 |
|     105 | 0x2043      |        8259 |
|     106 | 0x00C8      |         200 |
|     107 | 0x2044      |        8260 |
|     108 | 0x00D7      |         215 |
|     109 | 0x83E5E     |      540254 |
|     110 | 0xFFFA65AD  |  4294600109 |
|     111 | 0x06F2      |        1778 |
|     112 | 0x83FFF     |      540671 |
|     113 | 0xFFFA5C4D  |  4294597709 |
|     114 | 0x0726      |        1830 |
|     115 | 0x01FF      |         511 |
|     116 | 0x2045      |        8261 |
|     117 | 0x84BC8     |      543688 |
|     118 | 0xFFFA6138  |  4294598968 |
|     119 | 0x00AD      |         173 |
|     120 | 0x84A62     |      543330 |
|     121 | 0xFFFA5A3C  |  4294597180 |
|     122 | 0x00A4      |         164 |
|     123 | 0x09DF      |        2527 |
|     124 | 0x2046      |        8262 |
|     125 | 0x004B      |          75 |
|     126 | 0x84648     |      542280 |
|     127 | 0xFFFA5E54  |  4294598228 |
|     128 | 0xFFFFA39E  |  4294943646 |
|     129 | 0x087D      |        2173 |
|     130 | 0x0B0C      |        2828 |
|     131 | 0x0B28      |        2856 |
|     132 | 0x002D      |          45 |
|     133 | 0x0059      |          89 |
|     134 | 0xFFFE37C5  |  4294850501 |
|     135 | 0x8E835     |      583733 |
|     136 | 0xFFFFE3CB  |  4294960075 |
|     137 | 0xFFFE3335  |  4294849333 |
|     138 | 0x8F47C     |      586876 |
|     139 | 0xFFFFE2BD  |  4294959805 |
|     140 | 0x0BA2      |        2978 |
|     141 | 0x0520      |        1312 |
|     142 | 0x2047      |        8263 |
|     143 | 0x2048      |        8264 |
|     144 | 0x2049      |        8265 |
|     145 | 0x204A      |        8266 |
|     146 | 0x0B29      |        2857 |
|     147 | 0x204B      |        8267 |
|     148 | 0x006E      |         110 |
|     149 | 0x0002      |           2 |
|     150 | 0x204C      |        8268 |
|     151 | 0x204D      |        8269 |
|     152 | 0x204E      |        8270 |
|     153 | 0x204F      |        8271 |
|     154 | 0x2051      |        8273 |
|     155 | 0x0586      |        1414 |
|     156 | 0x2050      |        8272 |
|     157 | 0x2052      |        8274 |
|     158 | 0x2053      |        8275 |
|     159 | 0x0024      |          36 |
|     160 | 0x2054      |        8276 |
|     161 | 0x2055      |        8277 |
|     162 | 0xFFFE3407  |  4294849543 |
|     163 | 0x8EB7B     |      584571 |
|     164 | 0xFFFFE3A4  |  4294960036 |
|     165 | 0x0E5C      |        3676 |
|     166 | 0xFFFE5F78  |  4294860664 |
|     167 | 0x93D23     |      605475 |
|     168 | 0xFFFFE2E6  |  4294959846 |
|     169 | 0x01D1      |         465 |
|     170 | 0x00F0      |         240 |
|     171 | 0x0874      |        2164 |
|     172 | 0xFFFE68FA  |  4294863098 |
|     173 | 0x913EC     |      594924 |
|     174 | 0xFFFFE34A  |  4294959946 |
|     175 | 0x09D8      |        2520 |
|     176 | 0x0239      |         569 |
|     177 | 0x00A3      |         163 |
|     178 | 0xFFFE4EFB  |  4294856443 |
|     179 | 0x910D1     |      594129 |
|     180 | 0xFFFFE20B  |  4294959627 |
|     181 | 0x0FEE      |        4078 |
|     182 | 0x205A      |        8282 |
|     183 | 0x205B      |        8283 |
|     184 | 0x205C      |        8284 |
|     185 | 0x0019      |          25 |
|     186 | 0x0B2C      |        2860 |
|     187 | 0x0BA1      |        2977 |
|     188 | 0x205D      |        8285 |
|     189 | 0x051F      |        1311 |
|     190 | 0x205E      |        8286 |
|     191 | 0x205F      |        8287 |
|     192 | 0x0016      |          22 |
|     193 | 0x0064      |         100 |
|     194 | 0x2060      |        8288 |
|     195 | 0x2061      |        8289 |
|     196 | 0x0AFB      |        2811 |
|     197 | 0x2062      |        8290 |
|     198 | 0x2063      |        8291 |
|     199 | 0x2064      |        8292 |
|     200 | 0x2065      |        8293 |
|     201 | 0xFFFDCA41  |  4294822465 |
|     202 | 0x8ECC1     |      584897 |
|     203 | 0xFFFDCF75  |  4294823797 |
|     204 | 0x8ECE9     |      584937 |
|     205 | 0x2066      |        8294 |
|     206 | 0x2067      |        8295 |
|     207 | 0x2068      |        8296 |
|     208 | 0xFFFE425D  |  4294853213 |
|     209 | 0x90B39     |      592697 |
|     210 | 0xFFFFE22F  |  4294959663 |
|     211 | 0x00BF      |         191 |
|     212 | 0x2069      |        8297 |
|     213 | 0x206A      |        8298 |
|     214 | 0xFFFE5451  |  4294857809 |
|     215 | 0x90689     |      591497 |
|     216 | 0xFFFFE182  |  4294959490 |
|     217 | 0x206B      |        8299 |
|     218 | 0x0060      |          96 |
|     219 | 0x206C      |        8300 |
|     220 | 0x0037      |          55 |
|     221 | 0x206D      |        8301 |
|     222 | 0x09AA      |        2474 |
|     223 | 0x0003      |           3 |
|     224 | 0x0004      |           4 |
|     225 | 0x06C2      |        1730 |
|     226 | 0x206E      |        8302 |
|     227 | 0x0091      |         145 |
|     228 | 0x206F      |        8303 |
|     229 | 0x2070      |        8304 |
|     230 | 0x2071      |        8305 |
|     231 | 0x0582      |        1410 |
|     232 | 0x2072      |        8306 |
|     233 | 0x2073      |        8307 |
|     234 | 0x2074      |        8308 |
|     235 | 0x2075      |        8309 |
|     236 | 0x2076      |        8310 |
|     237 | 0x2077      |        8311 |
|     238 | 0x2078      |        8312 |
|     239 | 0xFFFE424F  |  4294853199 |
|     240 | 0x902DC     |      590556 |
|     241 | 0xFFFFE253  |  4294959699 |
|     242 | 0x07A7      |        1959 |
|     243 | 0x2079      |        8313 |
|     244 | 0x207A      |        8314 |
|     245 | 0x207B      |        8315 |
|     246 | 0x207C      |        8316 |
|     247 | 0xFFFDD017  |  4294823959 |
|     248 | 0x8F431     |      586801 |
|     249 | 0xFFFDD150  |  4294824272 |
|     250 | 0x8F19F     |      586143 |
|     251 | 0x0073      |         115 |
|     252 | 0x207D      |        8317 |
|     253 | 0x207E      |        8318 |
|     254 | 0x207F      |        8319 |
|     255 | 0x2080      |        8320 |

## String References

- **8271**: Can you cope? [Coping is my middle name!/<Whimper, whine>...]
- **8286**: Agree to help Cait Sith? [You can count on me!/Why should I?/Ehrm...$0?]

## Events

### Event 65535

#### Metadata

| Field        | Value   |
|--------------|---------|
| Entrypoint   | 0x0000  |
| Data Size    | 1 bytes |
| Instructions | 1       |

```
      00 01 02 03 04 05 06 07  08 09 0A 0B 0C 0D 0E 0F
      -- -- -- -- -- -- -- --  -- -- -- -- -- -- -- --
0000: 00                                                .               
```

#### Opcodes

```
  0: 0x0000 [0x00] END_REQSTACK()
```

### Event 28

#### Metadata

| Field        | Value      |
|--------------|------------|
| Entrypoint   | 0x0001     |
| Data Size    | 5261 bytes |
| Instructions | 625        |

```
      00 01 02 03 04 05 06 07  08 09 0A 0B 0C 0D 0E 0F
      -- -- -- -- -- -- -- --  -- -- -- -- -- -- -- --
0000:    42 1A AD 2D 46 01 38  00 80 1C 01 80 03 00 00   B..-F.8........
0010: 05 10 03 01 00 09 10 27  10 63 93 05 01 04 27 10  .......'.c....'.
0020: 25 93 05 01 1A 80 F0 FF  FF 7F 80 63 93 05 01 80  %..........c....
0030: 25 93 05 01 92 01 63 93  05 01 92 01 25 93 05 01  %.....c.....%...
0040: 94 01 F0 FF FF 7F 94 01  63 93 05 01 94 01 25 93  ........c.....%.
0050: 05 01 59 05 25 93 05 01  01 1C 02 80 BA F0 FF FF  ..Y.%...........
0060: 7F 03 80 04 80 05 80 06  80 BA 63 93 05 01 07 80  ..........c.....
0070: 08 80 09 80 06 80 BA 25  93 05 01 0A 80 0B 80 0C  .......%........
0080: 80 0D 80 1C 01 80 4A 25  93 05 01 F0 FF FF 7F 02  ......J%........
0090: 00 00 0E 80 00 D9 00 4A  63 93 05 01 67 93 05 01  .......Jc...g...
00A0: 4A F0 FF FF 7F 67 93 05  01 7B 63 93 05 01 7B F0  J....g...{c...{.
00B0: FF FF 7F 1C 0F 80 5B 10  80 63 93 05 01 63 93 05  ......[..c...c..
00C0: 01 63 75 70 30 45 11 80  F0 FF FF 7F F0 FF FF 7F  .cup0E..........
00D0: 72 30 31 30 0E 80 01 27  01 BA F0 FF FF 7F 12 80  r010...'........
00E0: 13 80 09 80 0E 80 BA 63  93 05 01 14 80 15 80 09  .......c........
00F0: 80 06 80 BA 25 93 05 01  16 80 17 80 18 80 19 80  ....%...........
0100: 1C 02 80 4A 63 93 05 01  25 93 05 01 4A F0 FF FF  ...Jc...%...J...
0110: 7F 25 93 05 01 4A 25 93  05 01 F0 FF FF 7F 6F 76  .%...J%.......ov
0120: 25 93 05 01 1A 28 14 1C  02 80 1A 8C 2D 02 00 00  %....(......-...
0130: 0E 80 00 17 02 27 10 25  93 05 01 0F 55 11 80 F0  .....'.%....U...
0140: FF FF 7F F0 FF FF 7F 72  30 31 30 52 11 80 F0 FF  .......r010R....
0150: FF 7F F0 FF FF 7F 72 30  31 30 45 11 80 F0 FF FF  ......r010E.....
0160: 7F F0 FF FF 7F 72 30 32  30 0E 80 1C 0F 80 BA F0  .....r020.......
0170: FF FF 7F 1A 80 1B 80 05  80 06 80 BA 63 93 05 01  ............c...
0180: 14 80 15 80 09 80 06 80  1C 0F 80 79 00 F0 FF FF  ...........y....
0190: 7F 25 93 05 01 6B 69 64  6C 30 63 93 05 01 6C 63  .%...kidl0c...lc
01A0: 93 05 01 1C 80 1D 80 6C  F0 FF FF 7F 1C 80 1D 80  .......l........
01B0: 1C 1E 80 4A 63 93 05 01  25 93 05 01 1C 1E 80 2A  ...Jc...%......*
01C0: 10 25 93 05 01 2B 25 93  05 01 1F 80 23 1C 01 80  .%...+%.....#...
01D0: 27 10 F0 FF FF 7F 25 52  11 80 F0 FF FF 7F F0 FF  '.....%R........
01E0: FF 7F 72 30 32 30 45 11  80 F0 FF FF 7F F0 FF FF  ..r020E.........
01F0: 7F 72 30 32 35 0E 80 1C  01 80 2B 25 93 05 01 20  .r025.....+%... 
0200: 80 23 1C 01 80 52 11 80  F0 FF FF 7F F0 FF FF 7F  .#...R..........
0210: 72 30 32 35 1A 28 14 02  01 00 1D 80 00 6D 02 1C  r025.(.......m..
0220: 01 80 2B 25 93 05 01 21  80 23 52 11 80 F0 FF FF  ..+%...!.#R.....
0230: 7F F0 FF FF 7F 72 30 33  30 52 11 80 F0 FF FF 7F  .....r030R......
0240: F0 FF FF 7F 72 30 33 35  45 11 80 F0 FF FF 7F F0  ....r035E.......
0250: FF FF 7F 72 30 32 35 0E  80 2B 25 93 05 01 22 80  ...r025..+%...".
0260: 23 1C 23 80 06 01 10 01  F4 13 01 9C 02 1C 23 80  #.#...........#.
0270: 27 10 25 93 05 01 10 1C  01 80 2B 25 93 05 01 24  '.%.......+%...$
0280: 80 1C 23 80 23 1C 01 80  27 10 F0 FF FF 7F 26 1C  ..#.#...'.....&.
0290: 25 80 27 10 63 93 05 01  0E 1C 26 80 1A AD 2D 1C  %.'.c.....&...-.
02A0: 23 80 7A 00 25 93 05 01  7A 00 63 93 05 01 7A 00  #.z.%...z.c...z.
02B0: F0 FF FF 7F 27 10 26 93  05 01 18 27 10 27 93 05  ....'.&....'.'..
02C0: 01 18 27 10 65 93 05 01  04 2F 00 64 93 05 01 4E  ..'.e..../.d...N
02D0: 00 64 93 05 01 80 26 93  05 01 80 27 93 05 01 80  .d....&....'....
02E0: 65 93 05 01 80 64 93 05  01 92 01 26 93 05 01 92  e....d.....&....
02F0: 01 27 93 05 01 92 01 65  93 05 01 92 01 64 93 05  .'.....e.....d..
0300: 01 94 01 F0 FF FF 7F 94  01 26 93 05 01 94 01 27  .........&.....'
0310: 93 05 01 94 01 65 93 05  01 94 01 64 93 05 01 59  .....e.....d...Y
0320: 05 64 93 05 01 01 59 05  25 93 05 01 00 59 05 26  .d....Y.%....Y.&
0330: 93 05 01 01 59 05 27 93  05 01 01 1C 02 80 BA F0  ....Y.'.........
0340: FF FF 7F 27 80 28 80 29  80 2A 80 BA 65 93 05 01  ...'.(.).*..e...
0350: 2B 80 2C 80 2D 80 2A 80  BA 63 93 05 01 2E 80 2F  +.,.-.*..c...../
0360: 80 30 80 2A 80 BA 25 93  05 01 31 80 32 80 33 80  .0.*..%...1.2.3.
0370: 34 80 BA 26 93 05 01 35  80 36 80 37 80 38 80 BA  4..&...5.6.7.8..
0380: 27 93 05 01 39 80 3A 80  3B 80 34 80 BA 64 93 05  '...9.:.;.4..d..
0390: 01 3C 80 3D 80 3E 80 3F  80 1C 01 80 4A 63 93 05  .<.=.>.?....Jc..
03A0: 01 65 93 05 01 4A 25 93  05 01 65 93 05 01 4A 26  .e...J%...e...J&
03B0: 93 05 01 65 93 05 01 4A  27 93 05 01 65 93 05 01  ...e...J'...e...
03C0: 5B 40 80 65 93 05 01 65  93 05 01 75 6B 75 30 5C  [@.e...e...uku0\
03D0: 00 41 80 5C 01 41 80 9A  C5 42 80 64 93 05 01 64  .A.\.A...B.d...d
03E0: 93 05 01 00 FE FE FE 0E  80 1C 01 80 CD 43 80 65  .............C.e
03F0: 93 05 01 65 93 05 01 73  30 30 30 0E 80 52 11 80  ...e...s000..R..
0400: F0 FF FF 7F F0 FF FF 7F  72 30 33 35 45 11 80 F0  ........r035E...
0410: FF FF 7F F0 FF FF 7F 72  30 35 35 0E 80 1A 8C 2D  .......r055....-
0420: 55 11 80 F0 FF FF 7F F0  FF FF 7F 72 30 35 35 52  U..........r055R
0430: 11 80 F0 FF FF 7F F0 FF  FF 7F 72 30 35 35 45 11  ..........r055E.
0440: 80 F0 FF FF 7F F0 FF FF  7F 72 30 35 30 0E 80 2B  .........r050..+
0450: 25 93 05 01 44 80 23 1C  01 80 27 10 63 93 05 01  %...D.#...'.c...
0460: 0F 52 11 80 F0 FF FF 7F  F0 FF FF 7F 72 30 35 30  .R..........r050
0470: 1A E8 2F 02 07 10 45 80  80 8F 04 45 11 80 F0 FF  ../...E....E....
0480: FF 7F F0 FF FF 7F 72 30  36 35 0E 80 01 A0 04 45  ......r065.....E
0490: 11 80 F0 FF FF 7F F0 FF  FF 7F 72 30 36 30 0E 80  ..........r060..
04A0: 27 10 F0 FF FF 7F 27 2B  63 93 05 01 46 80 23 1A  '.....'+c...F.#.
04B0: E8 2F 02 07 10 45 80 80  CC 04 52 11 80 F0 FF FF  ./...E....R.....
04C0: 7F F0 FF FF 7F 72 30 36  35 01 DB 04 52 11 80 F0  .....r065...R...
04D0: FF FF 7F F0 FF FF 7F 72  30 36 30 45 11 80 F0 FF  .......r060E....
04E0: FF 7F F0 FF FF 7F 72 30  38 30 0E 80 1C 23 80 2B  ......r080...#.+
04F0: 25 93 05 01 47 80 23 52  11 80 F0 FF FF 7F F0 FF  %...G.#R........
0500: FF 7F 72 30 38 30 45 11  80 F0 FF FF 7F F0 FF FF  ..r080E.........
0510: 7F 72 30 37 30 0E 80 1C  01 80 2B 25 93 05 01 48  .r070.....+%...H
0520: 80 23 1C 01 80 52 11 80  F0 FF FF 7F F0 FF FF 7F  .#...R..........
0530: 72 30 37 30 45 11 80 F0  FF FF 7F F0 FF FF 7F 72  r070E..........r
0540: 30 38 30 0E 80 5B 49 80  63 93 05 01 63 93 05 01  080..[I.c...c...
0550: 75 64 65 30 2B 63 93 05  01 4A 80 23 1C 01 80 52  ude0+c...J.#...R
0560: 11 80 F0 FF FF 7F F0 FF  FF 7F 72 30 38 30 45 11  ..........r080E.
0570: 80 F0 FF FF 7F F0 FF FF  7F 72 30 37 30 0E 80 1C  .........r070...
0580: 01 80 2B 25 93 05 01 4B  80 23 52 11 80 F0 FF FF  ..+%...K.#R.....
0590: 7F F0 FF FF 7F 72 30 37  30 45 11 80 F0 FF FF 7F  .....r070E......
05A0: F0 FF FF 7F 72 30 38 30  0E 80 1C 01 80 5B 49 80  ....r080.....[I.
05B0: 63 93 05 01 63 93 05 01  75 64 65 31 2B 63 93 05  c...c...ude1+c..
05C0: 01 4C 80 23 5B 4D 80 63  93 05 01 63 93 05 01 74  .L.#[M.c...c...t
05D0: 68 6B 30 1C 4E 80 52 11  80 F0 FF FF 7F F0 FF FF  hk0.N.R.........
05E0: 7F 72 30 38 30 45 11 80  F0 FF FF 7F F0 FF FF 7F  .r080E..........
05F0: 72 30 37 30 0E 80 1C 01  80 2B 25 93 05 01 4F 80  r070.....+%...O.
0600: 23 5B 4D 80 63 93 05 01  63 93 05 01 74 68 6B 31  #[M.c...c...thk1
0610: 1C 01 80 52 11 80 F0 FF  FF 7F F0 FF FF 7F 72 30  ...R..........r0
0620: 37 30 45 11 80 F0 FF FF  7F F0 FF FF 7F 72 31 33  70E..........r13
0630: 30 0E 80 1C 01 80 2B 63  93 05 01 50 80 23 53 63  0.....+c...P.#Sc
0640: 93 05 01 63 93 05 01 74  68 6B 31 1C 01 80 5B 49  ...c...thk1...[I
0650: 80 63 93 05 01 63 93 05  01 75 64 65 30 52 11 80  .c...c...ude0R..
0660: F0 FF FF 7F F0 FF FF 7F  72 31 33 30 1A E8 2F 02  ........r130../.
0670: 07 10 45 80 80 8B 06 45  11 80 F0 FF FF 7F F0 FF  ..E....E........
0680: FF 7F 72 30 39 35 0E 80  01 9C 06 45 11 80 F0 FF  ..r095.....E....
0690: FF 7F F0 FF FF 7F 72 30  39 30 0E 80 C5 42 80 64  ......r090...B.d
06A0: 93 05 01 64 93 05 01 73  30 30 31 0E 80 1C 01 80  ...d...s001.....
06B0: 2B 63 93 05 01 51 80 23  79 00 F0 FF FF 7F 63 93  +c...Q.#y.....c.
06C0: 05 01 1C 23 80 6E F0 FF  FF 7F 52 80 99 F0 FF FF  ...#.n....R.....
06D0: 7F 1C 53 80 1A E8 2F 02  07 10 45 80 80 F1 06 52  ..S.../...E....R
06E0: 11 80 F0 FF FF 7F F0 FF  FF 7F 72 30 39 35 01 00  ..........r095..
06F0: 07 52 11 80 F0 FF FF 7F  F0 FF FF 7F 72 30 39 30  .R..........r090
0700: 45 11 80 F0 FF FF 7F F0  FF FF 7F 72 31 30 30 0E  E..........r100.
0710: 80 1C 23 80 4B 25 93 05  01 54 80 1C 0F 80 4B 26  ..#.K%...T....K&
0720: 93 05 01 54 80 1C 0F 80  4B 27 93 05 01 54 80 1C  ...T....K'...T..
0730: 01 80 4B 63 93 05 01 54  80 1C 25 80 4B F0 FF FF  ..Kc...T..%.K...
0740: 7F 54 80 79 02 F0 FF FF  7F 55 80 0E 80 55 11 80  .T.y.....U...U..
0750: F0 FF FF 7F F0 FF FF 7F  72 31 30 30 1A AD 2D 1C  ........r100..-.
0760: 23 80 34 56 80 77 57 80  00 80 1C 01 80 AB 09 2D  #.4V.wW........-
0770: F0 FF FF 7F F0 FF FF 7F  73 74 61 31 2D F0 FF FF  ........sta1-...
0780: 7F F0 FF FF 7F 73 74 61  32 2D F0 FF FF 7F F0 FF  .....sta2-......
0790: FF 7F 73 74 61 33 2D F0  FF FF 7F F0 FF FF 7F 73  ..sta3-........s
07A0: 74 61 34 1C 01 80 4E 00  F0 FF FF 7F 27 10 63 93  ta4...N.....'.c.
07B0: 05 01 04 27 10 66 93 05  01 04 27 10 25 93 05 01  ...'.f....'.%...
07C0: 18 27 10 26 93 05 01 16  27 10 27 93 05 01 16 27  .'.&....'.'....'
07D0: 10 65 93 05 01 02 80 F0  FF FF 7F 80 63 93 05 01  .e..........c...
07E0: 80 66 93 05 01 92 01 63  93 05 01 92 01 66 93 05  .f.....c.....f..
07F0: 01 94 01 F0 FF FF 7F 94  01 63 93 05 01 94 01 66  .........c.....f
0800: 93 05 01 59 05 66 93 05  01 01 BA F0 FF FF 7F 58  ...Y.f.........X
0810: 80 59 80 5A 80 5B 80 BA  63 93 05 01 5C 80 5D 80  .Y.Z.[..c...\.].
0820: 5A 80 5B 80 BA 66 93 05  01 5E 80 5F 80 60 80 61  Z.[..f...^._.`.a
0830: 80 BB 62 80 66 93 05 01  66 93 05 01 00 FE FE FE  ..b.f...f.......
0840: 0E 80 CD 63 80 66 93 05  01 66 93 05 01 00 FE FE  ...c.f...f......
0850: FE 0E 80 1C 01 80 27 10  66 93 05 01 09 52 11 80  ......'.f....R..
0860: F0 FF FF 7F F0 FF FF 7F  72 31 30 30 45 11 80 F0  ........r100E...
0870: FF FF 7F F0 FF FF 7F 72  32 31 30 0E 80 CD 64 80  .......r210...d.
0880: F0 FF FF 7F F0 FF FF 7F  73 30 30 35 0E 80 1A 8C  ........s005....
0890: 2D 1C 65 80 2B 63 93 05  01 66 80 23 1C 23 80 52  -.e.+c...f.#.#.R
08A0: 11 80 F0 FF FF 7F F0 FF  FF 7F 72 32 31 30 45 11  ..........r210E.
08B0: 80 F0 FF FF 7F F0 FF FF  7F 72 32 30 30 0E 80 45  .........r200..E
08C0: 67 80 F0 FF FF 7F F0 FF  FF 7F 62 6C 6F 6E 0E 80  g.........blon..
08D0: C5 68 80 F0 FF FF 7F F0  FF FF 7F 73 30 30 30 0E  .h.........s000.
08E0: 80 C5 68 80 F0 FF FF 7F  F0 FF FF 7F 73 30 30 31  ..h.........s001
08F0: 0E 80 1C 23 80 2B 63 93  05 01 69 80 23 1C 23 80  ...#.+c...i.#.#.
0900: 52 11 80 F0 FF FF 7F F0  FF FF 7F 72 32 30 30 45  R..........r200E
0910: 11 80 F0 FF FF 7F F0 FF  FF 7F 72 32 33 30 0E 80  ..........r230..
0920: 45 6A 80 F0 FF FF 7F F0  FF FF 7F 62 6C 6F 6E 0E  Ej.........blon.
0930: 80 1C 65 80 2B 63 93 05  01 6B 80 23 1C 23 80 1A  ..e.+c...k.#.#..
0940: 00 2F 1C 01 80 CD 64 80  F0 FF FF 7F F0 FF FF 7F  ./....d.........
0950: 6B 69 6C 35 0E 80 45 6C  80 F0 FF FF 7F F0 FF FF  kil5..El........
0960: 7F 65 66 6F 6E 0E 80 BA  F0 FF FF 7F 6D 80 6E 80  .efon.......m.n.
0970: 0E 80 6F 80 BA 63 93 05  01 70 80 71 80 0E 80 72  ..o..c...p.q...r
0980: 80 7B F0 FF FF 7F 7B 63  93 05 01 1C 01 80 52 11  .{....{c......R.
0990: 80 F0 FF FF 7F F0 FF FF  7F 72 32 33 30 45 73 80  .........r230Es.
09A0: F0 FF FF 7F F0 FF FF 7F  30 30 30 6B 0E 80 1A DF  ........000k....
09B0: 2E 4A F0 FF FF 7F 66 93  05 01 4A 63 93 05 01 66  .J....f...Jc...f
09C0: 93 05 01 BB 62 80 66 93  05 01 66 93 05 01 6F 75  ....b.f...f...ou
09D0: 74 30 0E 80 1C 01 80 2B  63 93 05 01 74 80 1C 23  t0.....+c...t..#
09E0: 80 23 52 73 80 F0 FF FF  7F F0 FF FF 7F 30 30 30  .#Rs.........000
09F0: 6B 45 73 80 F0 FF FF 7F  F0 FF FF 7F 30 30 30 6C  kEs.........000l
0A00: 0E 80 BA F0 FF FF 7F 75  80 76 80 0E 80 77 80 BA  .......u.v...w..
0A10: 63 93 05 01 78 80 79 80  0E 80 7A 80 7B F0 FF FF  c...x.y...z.{...
0A20: 7F 27 10 F0 FF FF 7F 28  5B 7B 80 63 93 05 01 63  .'.....([{.c...c
0A30: 93 05 01 6B 61 6D 30 2B  63 93 05 01 7C 80 55 73  ...kam0+c...|.Us
0A40: 80 F0 FF FF 7F F0 FF FF  7F 30 30 30 6C 52 73 80  .........000lRs.
0A50: F0 FF FF 7F F0 FF FF 7F  30 30 30 6C 45 73 80 F0  ........000lEs..
0A60: FF FF 7F F0 FF FF 7F 30  30 30 6D 0E 80 1C 7D 80  .......000m...}.
0A70: BB 62 80 66 93 05 01 66  93 05 01 69 6E 30 30 0E  .b.f...f...in00.
0A80: 80 1C 23 80 BA 66 93 05  01 7E 80 7F 80 80 80 81  ..#..f...~......
0A90: 80 5B 82 80 66 93 05 01  66 93 05 01 61 74 6B 30  .[..f...f...atk0
0AA0: 1C 01 80 52 73 80 F0 FF  FF 7F F0 FF FF 7F 30 30  ...Rs.........00
0AB0: 30 6D 45 73 80 F0 FF FF  7F F0 FF FF 7F 30 30 30  0mEs.........000
0AC0: 6F 0E 80 1C 7D 80 BB 62  80 66 93 05 01 66 93 05  o...}..b.f...f..
0AD0: 01 6F 75 74 30 0E 80 1C  7D 80 52 73 80 F0 FF FF  .out0...}.Rs....
0AE0: 7F F0 FF FF 7F 30 30 30  6E 45 73 80 F0 FF FF 7F  .....000nEs.....
0AF0: F0 FF FF 7F 30 30 30 70  0E 80 CD 63 80 66 93 05  ....000p...c.f..
0B00: 01 66 93 05 01 73 30 30  30 0E 80 1C 53 80 52 73  .f...s000...S.Rs
0B10: 80 F0 FF FF 7F F0 FF FF  7F 30 30 30 70 45 73 80  .........000pEs.
0B20: F0 FF FF 7F F0 FF FF 7F  30 30 31 38 0E 80 CD 63  ........0018...c
0B30: 80 66 93 05 01 66 93 05  01 73 30 30 31 0E 80 5B  .f...f...s001..[
0B40: 82 80 66 93 05 01 66 93  05 01 61 74 6B 31 1C 23  ..f...f...atk1.#
0B50: 80 52 73 80 F0 FF FF 7F  F0 FF FF 7F 30 30 31 38  .Rs.........0018
0B60: 45 73 80 F0 FF FF 7F F0  FF FF 7F 30 30 30 76 0E  Es.........000v.
0B70: 80 5B 83 80 63 93 05 01  63 93 05 01 6B 65 69 30  .[..c...c...kei0
0B80: 1C 84 80 52 73 80 F0 FF  FF 7F F0 FF FF 7F 30 30  ...Rs.........00
0B90: 30 76 45 73 80 F0 FF FF  7F F0 FF FF 7F 30 30 30  0vEs.........000
0BA0: 77 0E 80 1C 7D 80 45 6C  80 F0 FF FF 7F F0 FF FF  w...}.El........
0BB0: 7F 65 66 6F 66 0E 80 1A  00 2F 1C 23 80 1A AD 2D  .efof..../.#...-
0BC0: 45 6A 80 F0 FF FF 7F F0  FF FF 7F 62 6C 6F 66 0E  Ej.........blof.
0BD0: 80 23 1A DF 2E 1C 23 80  35 85 80 78 1C 01 80 AB  .#....#.5..x....
0BE0: 0A 4E 00 F0 FF FF 7F 27  10 66 93 05 01 05 27 10  .N.....'.f....'.
0BF0: 63 93 05 01 04 27 10 25  93 05 01 1A 27 10 26 93  c....'.%....'.&.
0C00: 05 01 18 27 10 27 93 05  01 18 27 10 65 93 05 01  ...'.'....'.e...
0C10: 04 2F 00 64 93 05 01 4E  00 64 93 05 01 80 F0 FF  ./.d...N.d......
0C20: FF 7F 80 63 93 05 01 80  25 93 05 01 80 26 93 05  ...c....%....&..
0C30: 01 80 27 93 05 01 80 65  93 05 01 80 64 93 05 01  ..'....e....d...
0C40: 92 01 63 93 05 01 92 01  25 93 05 01 92 01 26 93  ..c.....%.....&.
0C50: 05 01 92 01 27 93 05 01  92 01 65 93 05 01 92 01  ....'.....e.....
0C60: 64 93 05 01 94 01 F0 FF  FF 7F 94 01 63 93 05 01  d...........c...
0C70: 94 01 25 93 05 01 94 01  26 93 05 01 94 01 27 93  ..%.....&.....'.
0C80: 05 01 94 01 65 93 05 01  94 01 64 93 05 01 59 05  ....e.....d...Y.
0C90: 64 93 05 01 01 59 05 25  93 05 01 00 59 05 26 93  d....Y.%....Y.&.
0CA0: 05 01 00 59 05 27 93 05  01 01 1C 02 80 BA F0 FF  ...Y.'..........
0CB0: FF 7F 86 80 87 80 88 80  2A 80 BA 65 93 05 01 2B  ........*..e...+
0CC0: 80 2C 80 2D 80 2A 80 BA  63 93 05 01 89 80 8A 80  .,.-.*..c.......
0CD0: 8B 80 8C 80 BA 25 93 05  01 31 80 32 80 33 80 34  .....%...1.2.3.4
0CE0: 80 BA 26 93 05 01 35 80  36 80 37 80 38 80 BA 27  ..&...5.6.7.8..'
0CF0: 93 05 01 39 80 3A 80 3B  80 34 80 BA 64 93 05 01  ...9.:.;.4..d...
0D00: 3C 80 3D 80 3E 80 3F 80  1C 01 80 4A F0 FF FF 7F  <.=.>.?....J....
0D10: 63 93 05 01 4A 25 93 05  01 63 93 05 01 4A 26 93  c...J%...c...J&.
0D20: 05 01 63 93 05 01 4A 27  93 05 01 63 93 05 01 81  ..c...J'...c....
0D30: 00 63 93 05 01 5B 40 80  65 93 05 01 65 93 05 01  .c...[@.e...e...
0D40: 75 6B 75 30 5B 8D 80 63  93 05 01 63 93 05 01 68  uku0[..c...c...h
0D50: 6F 74 30 1C 23 80 CD 43  80 65 93 05 01 65 93 05  ot0.#..C.e...e..
0D60: 01 73 30 30 30 0E 80 1C  23 80 52 73 80 F0 FF FF  .s000...#.Rs....
0D70: 7F F0 FF FF 7F 30 30 30  77 45 11 80 F0 FF FF 7F  .....000wE......
0D80: F0 FF FF 7F 72 31 30 36  0E 80 1A 8C 2D 1C 23 80  ....r106....-.#.
0D90: 2B 63 93 05 01 8E 80 23  52 11 80 F0 FF FF 7F F0  +c.....#R.......
0DA0: FF FF 7F 72 31 30 36 45  11 80 F0 FF FF 7F F0 FF  ...r106E........
0DB0: FF 7F 72 33 31 30 0E 80  2B 63 93 05 01 8F 80 1C  ..r310..+c......
0DC0: 01 80 23 1C 01 80 52 11  80 F0 FF FF 7F F0 FF FF  ..#...R.........
0DD0: 7F 72 33 31 30 45 11 80  F0 FF FF 7F F0 FF FF 7F  .r310E..........
0DE0: 72 33 30 30 0E 80 5B 8D  80 63 93 05 01 63 93 05  r300..[..c...c..
0DF0: 01 68 6F 74 31 1C 01 80  81 01 63 93 05 01 2B 63  .hot1.....c...+c
0E00: 93 05 01 90 80 1C 01 80  23 1C 01 80 52 11 80 F0  ........#...R...
0E10: FF FF 7F F0 FF FF 7F 72  33 30 30 45 11 80 F0 FF  .......r300E....
0E20: FF 7F F0 FF FF 7F 72 33  30 35 0E 80 5B 4D 80 63  ......r305..[M.c
0E30: 93 05 01 63 93 05 01 74  68 6B 30 2B 63 93 05 01  ...c...thk0+c...
0E40: 91 80 23 1C 01 80 52 11  80 F0 FF FF 7F F0 FF FF  ..#...R.........
0E50: 7F 72 33 30 35 45 11 80  F0 FF FF 7F F0 FF FF 7F  .r305E..........
0E60: 72 33 30 30 0E 80 5B 92  80 63 93 05 01 63 93 05  r300..[..c...c..
0E70: 01 68 69 72 30 1C 01 80  2B 63 93 05 01 93 80 1C  .hir0...+c......
0E80: 94 80 23 27 10 63 93 05  01 10 1C 01 80 4A 26 93  ..#'.c.......J&.
0E90: 05 01 63 93 05 01 52 11  80 F0 FF FF 7F F0 FF FF  ..c...R.........
0EA0: 7F 72 33 30 30 1A E8 2F  02 02 10 45 80 80 C4 0E  .r300../...E....
0EB0: 45 11 80 F0 FF FF 7F F0  FF FF 7F 72 33 32 35 0E  E..........r325.
0EC0: 80 01 29 0F 02 02 10 02  80 80 E0 0E 45 11 80 F0  ..).........E...
0ED0: FF FF 7F F0 FF FF 7F 72  33 32 35 0E 80 01 29 0F  .......r325...).
0EE0: 02 02 10 52 80 80 FC 0E  45 11 80 F0 FF FF 7F F0  ...R....E.......
0EF0: FF FF 7F 72 33 32 37 0E  80 01 29 0F 02 02 10 95  ...r327...).....
0F00: 80 80 18 0F 45 11 80 F0  FF FF 7F F0 FF FF 7F 72  ....E..........r
0F10: 33 32 37 0E 80 01 29 0F  45 11 80 F0 FF FF 7F F0  327...).E.......
0F20: FF FF 7F 72 33 32 30 0E  80 1C 4E 80 4A 26 93 05  ...r320...N.J&..
0F30: 01 63 93 05 01 2B 63 93  05 01 96 80 23 1A E8 2F  .c...+c.....#../
0F40: 02 02 10 45 80 80 5A 0F  52 11 80 F0 FF FF 7F F0  ...E..Z.R.......
0F50: FF FF 7F 72 33 32 35 01  B7 0F 02 02 10 02 80 80  ...r325.........
0F60: 74 0F 52 11 80 F0 FF FF  7F F0 FF FF 7F 72 33 32  t.R..........r32
0F70: 35 01 B7 0F 02 02 10 52  80 80 8E 0F 52 11 80 F0  5......R....R...
0F80: FF FF 7F F0 FF FF 7F 72  33 32 37 01 B7 0F 02 02  .......r327.....
0F90: 10 95 80 80 A8 0F 52 11  80 F0 FF FF 7F F0 FF FF  ......R.........
0FA0: 7F 72 33 32 37 01 B7 0F  52 11 80 F0 FF FF 7F F0  .r327...R.......
0FB0: FF FF 7F 72 33 32 30 45  11 80 F0 FF FF 7F F0 FF  ...r320E........
0FC0: FF 7F 72 33 33 30 0E 80  5B 49 80 63 93 05 01 63  ..r330..[I.c...c
0FD0: 93 05 01 74 6C 61 30 2B  63 93 05 01 97 80 23 52  ...tla0+c.....#R
0FE0: 11 80 F0 FF FF 7F F0 FF  FF 7F 72 33 33 30 1A E8  ..........r330..
0FF0: 2F 02 02 10 45 80 80 0D  10 45 11 80 F0 FF FF 7F  /...E....E......
1000: F0 FF FF 7F 72 33 35 35  0E 80 01 72 10 02 02 10  ....r355...r....
1010: 02 80 80 29 10 45 11 80  F0 FF FF 7F F0 FF FF 7F  ...).E..........
1020: 72 33 35 35 0E 80 01 72  10 02 02 10 52 80 80 45  r355...r....R..E
1030: 10 45 11 80 F0 FF FF 7F  F0 FF FF 7F 72 33 35 37  .E..........r357
1040: 0E 80 01 72 10 02 02 10  95 80 80 61 10 45 11 80  ...r.......a.E..
1050: F0 FF FF 7F F0 FF FF 7F  72 33 35 37 0E 80 01 72  ........r357...r
1060: 10 45 11 80 F0 FF FF 7F  F0 FF FF 7F 72 33 35 30  .E..........r350
1070: 0E 80 5B 49 80 63 93 05  01 63 93 05 01 74 6C 61  ..[I.c...c...tla
1080: 31 2B 63 93 05 01 98 80  23 1A E8 2F 02 02 10 45  1+c.....#../...E
1090: 80 80 A6 10 52 11 80 F0  FF FF 7F F0 FF FF 7F 72  ....R..........r
10A0: 33 35 35 01 03 11 02 02  10 02 80 80 C0 10 52 11  355...........R.
10B0: 80 F0 FF FF 7F F0 FF FF  7F 72 33 35 35 01 03 11  .........r355...
10C0: 02 02 10 52 80 80 DA 10  52 11 80 F0 FF FF 7F F0  ...R....R.......
10D0: FF FF 7F 72 33 35 37 01  03 11 02 02 10 95 80 80  ...r357.........
10E0: F4 10 52 11 80 F0 FF FF  7F F0 FF FF 7F 72 33 35  ..R..........r35
10F0: 37 01 03 11 52 11 80 F0  FF FF 7F F0 FF FF 7F 72  7...R..........r
1100: 33 35 30 45 11 80 F0 FF  FF 7F F0 FF FF 7F 72 33  350E..........r3
1110: 34 30 0E 80 24 99 80 0E  80 0E 80 25 02 00 10 0E  40..$......%....
1120: 80 00 76 11 52 11 80 F0  FF FF 7F F0 FF FF 7F 72  ..v.R..........r
1130: 33 34 30 45 11 80 F0 FF  FF 7F F0 FF FF 7F 72 33  340E..........r3
1140: 33 35 0E 80 5B 49 80 63  93 05 01 63 93 05 01 75  35..[I.c...c...u
1150: 64 65 30 1C 01 80 2B 63  93 05 01 9A 80 1C 4E 80  de0...+c......N.
1160: 23 5B 49 80 63 93 05 01  63 93 05 01 75 64 65 31  #[I.c...c...ude1
1170: 1C 01 80 01 F3 11 02 00  10 1D 80 00 F3 11 5B 9B  ..............[.
1180: 80 63 93 05 01 63 93 05  01 74 6C 62 30 2B 63 93  .c...c...tlb0+c.
1190: 05 01 9C 80 52 11 80 F0  FF FF 7F F0 FF FF 7F 72  ....R..........r
11A0: 33 34 30 45 11 80 F0 FF  FF 7F F0 FF FF 7F 72 33  340E..........r3
11B0: 33 33 0E 80 1C 01 80 1C  4E 80 23 5B 9B 80 63 93  33......N.#[..c.
11C0: 05 01 63 93 05 01 74 6C  62 31 1C 01 80 52 11 80  ..c...tlb1...R..
11D0: F0 FF FF 7F F0 FF FF 7F  72 33 33 33 45 11 80 F0  ........r333E...
11E0: FF FF 7F F0 FF FF 7F 72  33 34 30 0E 80 01 14 11  .......r340.....
11F0: 01 F3 11 52 11 80 F0 FF  FF 7F F0 FF FF 7F 72 33  ...R..........r3
1200: 33 30 45 11 80 F0 FF FF  7F F0 FF FF 7F 72 31 31  30E..........r11
1210: 30 0E 80 27 10 63 93 05  01 11 1C 53 80 52 11 80  0..'.c.....S.R..
1220: F0 FF FF 7F F0 FF FF 7F  72 31 31 30 45 11 80 F0  ........r110E...
1230: FF FF 7F F0 FF FF 7F 72  33 37 30 0E 80 4A 25 93  .......r370..J%.
1240: 05 01 63 93 05 01 4A 26  93 05 01 63 93 05 01 4A  ..c...J&...c...J
1250: 27 93 05 01 63 93 05 01  1C 23 80 4A 25 93 05 01  '...c....#.J%...
1260: 63 93 05 01 4A 26 93 05  01 63 93 05 01 4A 27 93  c...J&...c...J'.
1270: 05 01 63 93 05 01 2B 63  93 05 01 9D 80 23 4A 27  ..c...+c.....#J'
1280: 93 05 01 F0 FF FF 7F 1C  25 80 4A 63 93 05 01 F0  ........%.Jc....
1290: FF FF 7F 4A F0 FF FF 7F  63 93 05 01 52 11 80 F0  ...J....c...R...
12A0: FF FF 7F F0 FF FF 7F 72  33 37 30 45 11 80 F0 FF  .......r370E....
12B0: FF 7F F0 FF FF 7F 72 33  37 35 0E 80 1C 25 80 5B  ......r375...%.[
12C0: 8D 80 63 93 05 01 63 93  05 01 70 6E 74 30 2B 63  ..c...c...pnt0+c
12D0: 93 05 01 9E 80 23 52 11  80 F0 FF FF 7F F0 FF FF  .....#R.........
12E0: 7F 72 33 37 35 45 11 80  F0 FF FF 7F F0 FF FF 7F  .r375E..........
12F0: 72 33 34 30 0E 80 59 05  26 93 05 01 01 1C 02 80  r340..Y.&.......
1300: BA 26 93 05 01 35 80 36  80 37 80 38 80 6E F0 FF  .&...5.6.7.8.n..
1310: FF 7F 52 80 99 F0 FF FF  7F 1C 23 80 27 10 26 93  ..R.......#.'.&.
1320: 05 01 0F 1C 01 80 52 11  80 F0 FF FF 7F F0 FF FF  ......R.........
1330: 7F 72 33 34 30 45 11 80  F0 FF FF 7F F0 FF FF 7F  .r340E..........
1340: 72 33 36 30 0E 80 5B 8D  80 63 93 05 01 63 93 05  r360..[..c...c..
1350: 01 70 6E 74 31 6E F0 FF  FF 7F 9F 80 99 F0 FF FF  .pnt1n..........
1360: 7F 1C 65 80 52 11 80 F0  FF FF 7F F0 FF FF 7F 72  ..e.R..........r
1370: 33 36 30 45 11 80 F0 FF  FF 7F F0 FF FF 7F 72 31  360E..........r1
1380: 32 35 0E 80 1C 01 80 2B  25 93 05 01 A0 80 23 4A  25.....+%.....#J
1390: 63 93 05 01 25 93 05 01  52 11 80 F0 FF FF 7F F0  c...%...R.......
13A0: FF FF 7F 72 31 32 35 45  11 80 F0 FF FF 7F F0 FF  ...r125E........
13B0: FF 7F 72 31 32 30 0E 80  1C 01 80 2B 25 93 05 01  ..r120.....+%...
13C0: A1 80 23 1C 23 80 52 11  80 F0 FF FF 7F F0 FF FF  ..#.#.R.........
13D0: 7F 72 31 32 30 45 11 80  F0 FF FF 7F F0 FF FF 7F  .r120E..........
13E0: 72 31 33 30 0E 80 1C 53  80 5D 0E 80 65 80 1C 23  r130...S.]..e..#
13F0: 80 05 01 10 1A AD 2D 1C  01 80 29 10 25 93 05 01  ......-...).%...
1400: 0A 1C 01 80 52 11 80 F0  FF FF 7F F0 FF FF 7F 73  ....R..........s
1410: 35 37 30 46 00 45 6A 80  F0 FF FF 7F F0 FF FF 7F  570F.Ej.........
1420: 66 64 69 32 0E 80 21 00  02 00 00 0E 80 00 60 14  fdi2..!.......`.
1430: 02 01 00 1D 80 00 4C 14  45 11 80 F0 FF FF 7F F0  ......L.E.......
1440: FF FF 7F 72 30 33 30 0E  80 01 5D 14 45 11 80 F0  ...r030...].E...
1450: FF FF 7F F0 FF FF 7F 72  30 33 35 0E 80 01 8D 14  .......r035.....
1460: 02 01 00 1D 80 00 7C 14  45 11 80 F0 FF FF 7F F0  ......|.E.......
1470: FF FF 7F 72 30 33 35 0E  80 01 8D 14 45 11 80 F0  ...r035.....E...
1480: FF FF 7F F0 FF FF 7F 72  30 33 35 0E 80 1B        .......r035...  
```

#### Opcodes

```
  0: 0x0001 [0x42] SET_CLI_EVENT_CANCEL_DATA()
  1: 0x0002 [0x1A] CALL_SUBROUTINE(address=0x2DAD)
  2: 0x0005 [0x46] CAMERA_CONTROL: Disable user control
  3: 0x0007 [0x38] SET_CLIENT_EVENT_MODE(mode=19*)
  4: 0x000A [0x1C] WAIT(30* ticks)
  5: 0x000D [0x03] ExtData[1]->WorkLocal[0] = Work_Zone[5]
  6: 0x0012 [0x03] ExtData[1]->WorkLocal[1] = Work_Zone[9]
  7: 0x0017 [0x27] REQ_SET(priority=0x10, entity_id=Cait Sith (ID: 17142627/0x01059363), tag_num=0x04)
  8: 0x001E [0x27] REQ_SET(priority=0x10, entity_id=Unnamed NPC (ID: 17142565/0x01059325), tag_num=0x1A)
  9: 0x0025 [0x80] LOAD_WAIT(entity=LocalPlayer)
 10: 0x002A [0x80] LOAD_WAIT(entity=Cait Sith (ID: 17142627/0x01059363))
 11: 0x002F [0x80] LOAD_WAIT(entity=Unnamed NPC (ID: 17142565/0x01059325))
 12: 0x0034 [0x92] Cait Sith (ID: 17142627/0x01059363)->Render.Flags3 ^= 0x01
 13: 0x003A [0x92] Unnamed NPC (ID: 17142565/0x01059325)->Render.Flags3 ^= 0x01
 14: 0x0040 [0x94] LocalPlayer->Render.Flags3 ^= 0x01
 15: 0x0046 [0x94] Cait Sith (ID: 17142627/0x01059363)->Render.Flags3 ^= 0x01
 16: 0x004C [0x94] Unnamed NPC (ID: 17142565/0x01059325)->Render.Flags3 ^= 0x01
 17: 0x0052 [0x59] UPDATE_ENTITY_DATA: Unnamed NPC (ID: 17142565/0x01059325)->Render.Flags0 |= 0x200000
 18: 0x0059 [0x1C] WAIT(5* ticks)
 19: 0x005C [0xBA] SET_ENTITY_POSITION(entity_id=LocalPlayer, pos_x=-143.720*, pos_z=587.972*, pos_y=-6.749*, direction=357.4°*)
 20: 0x0069 [0xBA] SET_ENTITY_POSITION(entity_id=Cait Sith (ID: 17142627/0x01059363), pos_x=-142.110*, pos_z=586.350*, pos_y=-6.750*, direction=357.4°*)
 21: 0x0076 [0xBA] SET_ENTITY_POSITION(entity_id=Unnamed NPC (ID: 17142565/0x01059325), pos_x=-112.800*, pos_z=583.590*, pos_y=-10.120*, direction=175.8°*)
 22: 0x0083 [0x1C] WAIT(30* ticks)
 23: 0x0086 [0x4A] Unnamed NPC (ID: 17142565/0x01059325) looks at LocalPlayer
 24: 0x008F [0x02] IF !(ExtData[1]->WorkLocal[0] == 0*) GOTO 0x00D9
 25: 0x0097 [0x4A] Cait Sith (ID: 17142627/0x01059363) looks at Veridical Conflux (ID: 17142631/0x01059367)
 26: 0x00A0 [0x4A] LocalPlayer looks at Veridical Conflux (ID: 17142631/0x01059367)
 27: 0x00A9 [0x7B] Cait Sith (ID: 17142627/0x01059363) stops talking
 28: 0x00AE [0x7B] LocalPlayer stops talking
 29: 0x00B3 [0x1C] WAIT(10* ticks)
 30: 0x00B6 [0x5B] LOAD_EXT_SCHEDULER: Load scheduler "cup0" with entities [Cait Sith (ID: 17142627/0x01059363), Cait Sith (ID: 17142627/0x01059363)], work=2859*
 31: 0x00C5 [0x45] LOAD_SCHEDULED_TASK: Load scheduler "r010" with entities [LocalPlayer, LocalPlayer], work=[541*, 0*]
 32: 0x00D6 [0x01] GOTO 0x0127
 33: 0x00D9 [0xBA] SET_ENTITY_POSITION(entity_id=LocalPlayer, pos_x=-140.334*, pos_z=583.023*, pos_y=-6.750*, direction=0.0°*)
 34: 0x00E6 [0xBA] SET_ENTITY_POSITION(entity_id=Cait Sith (ID: 17142627/0x01059363), pos_x=-141.252*, pos_z=584.849*, pos_y=-6.750*, direction=357.4°*)
 35: 0x00F3 [0xBA] SET_ENTITY_POSITION(entity_id=Unnamed NPC (ID: 17142565/0x01059325), pos_x=-136.300*, pos_z=583.210*, pos_y=-7.648*, direction=5.5°*)
 36: 0x0100 [0x1C] WAIT(5* ticks)
 37: 0x0103 [0x4A] Cait Sith (ID: 17142627/0x01059363) looks at Unnamed NPC (ID: 17142565/0x01059325)
 38: 0x010C [0x4A] LocalPlayer looks at Unnamed NPC (ID: 17142565/0x01059325)
 39: 0x0115 [0x4A] Unnamed NPC (ID: 17142565/0x01059325) looks at LocalPlayer
 40: 0x011E [0x6F] WAIT_FRAME_DELAY: Yield until WaitTime reaches zero
 41: 0x011F [0x76] CHECK_ENTITY_RENDER_FLAGS: Wait until Unnamed NPC (ID: 17142565/0x01059325) Render.Flags0 and Render.Flags3 conditions are met
 42: 0x0124 [0x1A] CALL_SUBROUTINE(address=0x1428)

SUBROUTINE_0127:
 43: 0x0127 [0x1C] WAIT(5* ticks)
 44: 0x012A [0x1A] CALL_SUBROUTINE(address=0x2D8C)
 45: 0x012D [0x02] IF !(ExtData[1]->WorkLocal[0] == 0*) GOTO 0x0217
 46: 0x0135 [0x27] REQ_SET(priority=0x10, entity_id=Unnamed NPC (ID: 17142565/0x01059325), tag_num=0x0F)
 47: 0x013C [0x55] WAIT_LOAD_SCHEDULER: Wait for scheduler "r010" with entities [LocalPlayer, LocalPlayer], work=541*
 48: 0x014B [0x52] END_LOAD_SCHEDULER: End scheduler "r010" with entities [LocalPlayer, LocalPlayer], work=541*
 49: 0x015A [0x45] LOAD_SCHEDULED_TASK: Load scheduler "r020" with entities [LocalPlayer, LocalPlayer], work=[541*, 0*]
 50: 0x016B [0x1C] WAIT(10* ticks)
 51: 0x016E [0xBA] SET_ENTITY_POSITION(entity_id=LocalPlayer, pos_x=-141.919*, pos_z=583.006*, pos_y=-6.749*, direction=357.4°*)
 52: 0x017B [0xBA] SET_ENTITY_POSITION(entity_id=Cait Sith (ID: 17142627/0x01059363), pos_x=-141.252*, pos_z=584.849*, pos_y=-6.750*, direction=357.4°*)
 53: 0x0188 [0x1C] WAIT(10* ticks)
 54: 0x018B [0x79] LocalPlayer looks at Unnamed NPC (ID: 17142565/0x01059325) (Basic look)
 55: 0x0195 [0x6B] STOP_AND_IDLE: Cait Sith (ID: 17142627/0x01059363) stops current action and resets to idle (animation="idl0")
 56: 0x019E [0x6C] FADE_ENTITY_COLOR(entity_id=Cait Sith (ID: 17142627/0x01059363), end_alpha=128*, fade_time=1*)
 57: 0x01A7 [0x6C] FADE_ENTITY_COLOR(entity_id=LocalPlayer, end_alpha=128*, fade_time=1*)
 58: 0x01B0 [0x1C] WAIT(20* ticks)
 59: 0x01B3 [0x4A] Cait Sith (ID: 17142627/0x01059363) looks at Unnamed NPC (ID: 17142565/0x01059325)
 60: 0x01BC [0x1C] WAIT(20* ticks)
 61: 0x01BF [0x2A] GET_REQ_LEVEL(level=16, entity_id=Unnamed NPC (ID: 17142565/0x01059325))
 62: 0x01C5 [0x2B] Unnamed NPC (ID: 17142565/0x01059325) [8243*]:
    → "Greetings and salutations, children of Altana. Thou art most welcome to this sanctuary."
 63: 0x01CC [0x23] WAIT_FOR_DIALOG_INTERACTION
 64: 0x01CD [0x1C] WAIT(30* ticks)
 65: 0x01D0 [0x27] REQ_SET(priority=0x10, entity_id=LocalPlayer, tag_num=0x25)
 66: 0x01D7 [0x52] END_LOAD_SCHEDULER: End scheduler "r020" with entities [LocalPlayer, LocalPlayer], work=541*
 67: 0x01E6 [0x45] LOAD_SCHEDULED_TASK: Load scheduler "r025" with entities [LocalPlayer, LocalPlayer], work=[541*, 0*]
 68: 0x01F7 [0x1C] WAIT(30* ticks)
 69: 0x01FA [0x2B] Unnamed NPC (ID: 17142565/0x01059325) [8244*]:
    → "A short time ago, a newborn soul was sent to us from the heavens above. Judging by thy concerned countenance, 'tis clear that she is known to thee."
 70: 0x0201 [0x23] WAIT_FOR_DIALOG_INTERACTION
 71: 0x0202 [0x1C] WAIT(30* ticks)
 72: 0x0205 [0x52] END_LOAD_SCHEDULER: End scheduler "r025" with entities [LocalPlayer, LocalPlayer], work=541*
 73: 0x0214 [0x1A] CALL_SUBROUTINE(address=0x1428)
 74: 0x0217 [0x02] IF !(ExtData[1]->WorkLocal[1] == 1*) GOTO 0x026D
 75: 0x021F [0x1C] WAIT(30* ticks)
 76: 0x0222 [0x2B] Unnamed NPC (ID: 17142565/0x01059325) [8245*]:
    → "Presently a soul in sooth, your friend is vulnerable beyond mortal comprehension. As such, even the faintest exposure to distress--rage and sorrow, to name two common emotions--would leave her with soul-deep scars."
 77: 0x0229 [0x23] WAIT_FOR_DIALOG_INTERACTION
 78: 0x022A [0x52] END_LOAD_SCHEDULER: End scheduler "r030" with entities [LocalPlayer, LocalPlayer], work=541*
 79: 0x0239 [0x52] END_LOAD_SCHEDULER: End scheduler "r035" with entities [LocalPlayer, LocalPlayer], work=541*
 80: 0x0248 [0x45] LOAD_SCHEDULED_TASK: Load scheduler "r025" with entities [LocalPlayer, LocalPlayer], work=[541*, 0*]
 81: 0x0259 [0x2B] Unnamed NPC (ID: 17142565/0x01059325) [8246*]:
    → "Pray refrain from such actions as would frighten her gentle heart. Instead, give unto her the assurance that thou wouldst do her no harm."
 82: 0x0260 [0x23] WAIT_FOR_DIALOG_INTERACTION
 83: 0x0261 [0x1C] WAIT(60* ticks)
 84: 0x0264 [0x06] Work_Zone[1] = 0
 85: 0x0267 [0x01] GOTO 0x13F4

SUBROUTINE_029C:
 86: 0x029C [0x1A] CALL_SUBROUTINE(address=0x2DAD)
 87: 0x029F [0x1C] WAIT(60* ticks)
 88: 0x02A2 [0x7A] VM_CONTROL: Reset VM for Unnamed NPC (ID: 17142565/0x01059325)
 89: 0x02A8 [0x7A] VM_CONTROL: Reset VM for Cait Sith (ID: 17142627/0x01059363)
 90: 0x02AE [0x7A] VM_CONTROL: Reset VM for LocalPlayer
 91: 0x02B4 [0x27] REQ_SET(priority=0x10, entity_id=Unnamed NPC (ID: 17142566/0x01059326), tag_num=0x18)
 92: 0x02BB [0x27] REQ_SET(priority=0x10, entity_id=Unnamed NPC (ID: 17142567/0x01059327), tag_num=0x18)
 93: 0x02C2 [0x27] REQ_SET(priority=0x10, entity_id=Unnamed NPC (ID: 17142629/0x01059365), tag_num=0x04)
 94: 0x02C9 [0x2F] Cavernous Maw (ID: 17142628/0x01059364)->Render.Flags0 &= ~0x80000 // Bit 19
 95: 0x02CF [0x4E] SET_ENTITY_HIDE_FLAG: Show Cavernous Maw (ID: 17142628/0x01059364)
 96: 0x02D5 [0x80] LOAD_WAIT(entity=Unnamed NPC (ID: 17142566/0x01059326))
 97: 0x02DA [0x80] LOAD_WAIT(entity=Unnamed NPC (ID: 17142567/0x01059327))
 98: 0x02DF [0x80] LOAD_WAIT(entity=Unnamed NPC (ID: 17142629/0x01059365))
 99: 0x02E4 [0x80] LOAD_WAIT(entity=Cavernous Maw (ID: 17142628/0x01059364))
100: 0x02E9 [0x92] Unnamed NPC (ID: 17142566/0x01059326)->Render.Flags3 ^= 0x01
101: 0x02EF [0x92] Unnamed NPC (ID: 17142567/0x01059327)->Render.Flags3 ^= 0x01
102: 0x02F5 [0x92] Unnamed NPC (ID: 17142629/0x01059365)->Render.Flags3 ^= 0x01
103: 0x02FB [0x92] Cavernous Maw (ID: 17142628/0x01059364)->Render.Flags3 ^= 0x01
104: 0x0301 [0x94] LocalPlayer->Render.Flags3 ^= 0x01
105: 0x0307 [0x94] Unnamed NPC (ID: 17142566/0x01059326)->Render.Flags3 ^= 0x01
106: 0x030D [0x94] Unnamed NPC (ID: 17142567/0x01059327)->Render.Flags3 ^= 0x01
107: 0x0313 [0x94] Unnamed NPC (ID: 17142629/0x01059365)->Render.Flags3 ^= 0x01
108: 0x0319 [0x94] Cavernous Maw (ID: 17142628/0x01059364)->Render.Flags3 ^= 0x01
109: 0x031F [0x59] UPDATE_ENTITY_DATA: Cavernous Maw (ID: 17142628/0x01059364)->Render.Flags0 |= 0x200000
110: 0x0326 [0x59] UPDATE_ENTITY_DATA: Unnamed NPC (ID: 17142565/0x01059325)->Render.Flags0 &= ~0x200000
111: 0x032D [0x59] UPDATE_ENTITY_DATA: Unnamed NPC (ID: 17142566/0x01059326)->Render.Flags0 |= 0x200000
112: 0x0334 [0x59] UPDATE_ENTITY_DATA: Unnamed NPC (ID: 17142567/0x01059327)->Render.Flags0 |= 0x200000
113: 0x033B [0x1C] WAIT(5* ticks)
114: 0x033E [0xBA] SET_ENTITY_POSITION(entity_id=LocalPlayer, pos_x=-115.120*, pos_z=583.732*, pos_y=-7.199*, direction=181.2°*)
115: 0x034B [0xBA] SET_ENTITY_POSITION(entity_id=Unnamed NPC (ID: 17142629/0x01059365), pos_x=-119.348*, pos_z=583.986*, pos_y=-7.202*, direction=181.2°*)
116: 0x0358 [0xBA] SET_ENTITY_POSITION(entity_id=Cait Sith (ID: 17142627/0x01059363), pos_x=-117.274*, pos_z=585.116*, pos_y=-7.315*, direction=181.2°*)
117: 0x0365 [0xBA] SET_ENTITY_POSITION(entity_id=Unnamed NPC (ID: 17142565/0x01059325), pos_x=-120.400*, pos_z=583.690*, pos_y=-7.061*, direction=183.0°*)
118: 0x0372 [0xBA] SET_ENTITY_POSITION(entity_id=Unnamed NPC (ID: 17142566/0x01059326), pos_x=-119.454*, pos_z=586.485*, pos_y=-7.452*, direction=185.7°*)
119: 0x037F [0xBA] SET_ENTITY_POSITION(entity_id=Unnamed NPC (ID: 17142567/0x01059327), pos_x=-120.600*, pos_z=582.590*, pos_y=-7.808*, direction=183.0°*)
120: 0x038C [0xBA] SET_ENTITY_POSITION(entity_id=Cavernous Maw (ID: 17142628/0x01059364), pos_x=-150.000*, pos_z=578.000*, pos_y=-30.000*, direction=178.0°*)
121: 0x0399 [0x1C] WAIT(30* ticks)
122: 0x039C [0x4A] Cait Sith (ID: 17142627/0x01059363) looks at Unnamed NPC (ID: 17142629/0x01059365)
123: 0x03A5 [0x4A] Unnamed NPC (ID: 17142565/0x01059325) looks at Unnamed NPC (ID: 17142629/0x01059365)
124: 0x03AE [0x4A] Unnamed NPC (ID: 17142566/0x01059326) looks at Unnamed NPC (ID: 17142629/0x01059365)
125: 0x03B7 [0x4A] Unnamed NPC (ID: 17142567/0x01059327) looks at Unnamed NPC (ID: 17142629/0x01059365)
126: 0x03C0 [0x5B] LOAD_EXT_SCHEDULER: Load scheduler "uku0" with entities [Unnamed NPC (ID: 17142629/0x01059365), Unnamed NPC (ID: 17142629/0x01059365)], work=871*
127: 0x03CF [0x5C] MUSIC_CONTROL: Set Idle (Day) music to song 124*
128: 0x03D3 [0x5C] MUSIC_CONTROL: Set Idle (Night) music to song 124*
129: 0x03D7 [0x9A] WAIT_MUSIC_SERVER()
130: 0x03D8 [0xC5] LOAD_SCHEDULED_TASK_ALT3: Load scheduler 0x800EFEFE for entities [Cavernous Maw (ID: 17142628/0x01059364), Cavernous Maw (ID: 17142628/0x01059364)], work=253*, param=65024
131: 0x03E9 [0x1C] WAIT(30* ticks)
132: 0x03EC [0xCD] LOAD_SCHEDULED_TASK_ALT4: Load scheduler "s000" with entities [Unnamed NPC (ID: 17142629/0x01059365), Unnamed NPC (ID: 17142629/0x01059365)], work=[95*, 0*]
133: 0x03FD [0x52] END_LOAD_SCHEDULER: End scheduler "r035" with entities [LocalPlayer, LocalPlayer], work=541*
134: 0x040C [0x45] LOAD_SCHEDULED_TASK: Load scheduler "r055" with entities [LocalPlayer, LocalPlayer], work=[541*, 0*]
135: 0x041D [0x1A] CALL_SUBROUTINE(address=0x2D8C)
136: 0x0420 [0x55] WAIT_LOAD_SCHEDULER: Wait for scheduler "r055" with entities [LocalPlayer, LocalPlayer], work=541*
137: 0x042F [0x52] END_LOAD_SCHEDULER: End scheduler "r055" with entities [LocalPlayer, LocalPlayer], work=541*
138: 0x043E [0x45] LOAD_SCHEDULED_TASK: Load scheduler "r050" with entities [LocalPlayer, LocalPlayer], work=[541*, 0*]
139: 0x044F [0x2B] Unnamed NPC (ID: 17142565/0x01059325) [8248*]:
    → "A warm, gentle child, brimming with hope and promise..."
140: 0x0456 [0x23] WAIT_FOR_DIALOG_INTERACTION
141: 0x0457 [0x1C] WAIT(30* ticks)
142: 0x045A [0x27] REQ_SET(priority=0x10, entity_id=Cait Sith (ID: 17142627/0x01059363), tag_num=0x0F)
143: 0x0461 [0x52] END_LOAD_SCHEDULER: End scheduler "r050" with entities [LocalPlayer, LocalPlayer], work=541*
144: 0x0470 [0x1A] CALL_SUBROUTINE(address=0x2FE8)
145: 0x0473 [0x02] IF !(Work_Zone[7] == 6*) GOTO 0x048F
146: 0x047B [0x45] LOAD_SCHEDULED_TASK: Load scheduler "r065" with entities [LocalPlayer, LocalPlayer], work=[541*, 0*]
147: 0x048C [0x01] GOTO 0x04A0
148: 0x048F [0x45] LOAD_SCHEDULED_TASK: Load scheduler "r060" with entities [LocalPlayer, LocalPlayer], work=[541*, 0*]

SUBROUTINE_04A0:
149: 0x04A0 [0x27] REQ_SET(priority=0x10, entity_id=LocalPlayer, tag_num=0x27)
150: 0x04A7 [0x2B] Cait Sith (ID: 17142627/0x01059363) [8249*]:
    → "Is this...Lilisette?"
151: 0x04AE [0x23] WAIT_FOR_DIALOG_INTERACTION
152: 0x04AF [0x1A] CALL_SUBROUTINE(address=0x2FE8)
153: 0x04B2 [0x02] IF !(Work_Zone[7] == 6*) GOTO 0x04CC
154: 0x04BA [0x52] END_LOAD_SCHEDULER: End scheduler "r065" with entities [LocalPlayer, LocalPlayer], work=541*
155: 0x04C9 [0x01] GOTO 0x04DB
156: 0x04CC [0x52] END_LOAD_SCHEDULER: End scheduler "r060" with entities [LocalPlayer, LocalPlayer], work=541*

SUBROUTINE_04DB:
157: 0x04DB [0x45] LOAD_SCHEDULED_TASK: Load scheduler "r080" with entities [LocalPlayer, LocalPlayer], work=[541*, 0*]
158: 0x04EC [0x1C] WAIT(60* ticks)
159: 0x04EF [0x2B] Unnamed NPC (ID: 17142565/0x01059325) [8250*]:
    → "Thy friend came to us bearing wounds enough for a dozen lifetimes of torment. My kin and I have done all we can to heal her of her hurts, yet 'tis not enough."
160: 0x04F6 [0x23] WAIT_FOR_DIALOG_INTERACTION
161: 0x04F7 [0x52] END_LOAD_SCHEDULER: End scheduler "r080" with entities [LocalPlayer, LocalPlayer], work=541*
162: 0x0506 [0x45] LOAD_SCHEDULED_TASK: Load scheduler "r070" with entities [LocalPlayer, LocalPlayer], work=[541*, 0*]
163: 0x0517 [0x1C] WAIT(30* ticks)
164: 0x051A [0x2B] Unnamed NPC (ID: 17142565/0x01059325) [8251*]:
    → "Her full recovery wanteth for one thing: the power of the future in which she believeth."
165: 0x0521 [0x23] WAIT_FOR_DIALOG_INTERACTION
166: 0x0522 [0x1C] WAIT(30* ticks)
167: 0x0525 [0x52] END_LOAD_SCHEDULER: End scheduler "r070" with entities [LocalPlayer, LocalPlayer], work=541*
168: 0x0534 [0x45] LOAD_SCHEDULED_TASK: Load scheduler "r080" with entities [LocalPlayer, LocalPlayer], work=[541*, 0*]
169: 0x0545 [0x5B] LOAD_EXT_SCHEDULER: Load scheduler "ude0" with entities [Cait Sith (ID: 17142627/0x01059363), Cait Sith (ID: 17142627/0x01059363)], work=1412*
170: 0x0554 [0x2B] Cait Sith (ID: 17142627/0x01059363) [8252*]:
    → "You mean...the brighter future whence she came? The place she calls home?"
171: 0x055B [0x23] WAIT_FOR_DIALOG_INTERACTION
172: 0x055C [0x1C] WAIT(30* ticks)
173: 0x055F [0x52] END_LOAD_SCHEDULER: End scheduler "r080" with entities [LocalPlayer, LocalPlayer], work=541*
174: 0x056E [0x45] LOAD_SCHEDULED_TASK: Load scheduler "r070" with entities [LocalPlayer, LocalPlayer], work=[541*, 0*]
175: 0x057F [0x1C] WAIT(30* ticks)
176: 0x0582 [0x2B] Unnamed NPC (ID: 17142565/0x01059325) [8253*]:
    → "When the time is ripe and all conditions are fulfilled, thy friend shall surely awaken."
177: 0x0589 [0x23] WAIT_FOR_DIALOG_INTERACTION
178: 0x058A [0x52] END_LOAD_SCHEDULER: End scheduler "r070" with entities [LocalPlayer, LocalPlayer], work=541*
179: 0x0599 [0x45] LOAD_SCHEDULED_TASK: Load scheduler "r080" with entities [LocalPlayer, LocalPlayer], work=[541*, 0*]
180: 0x05AA [0x1C] WAIT(30* ticks)
181: 0x05AD [0x5B] LOAD_EXT_SCHEDULER: Load scheduler "ude1" with entities [Cait Sith (ID: 17142627/0x01059363), Cait Sith (ID: 17142627/0x01059363)], work=1412*
182: 0x05BC [0x2B] Cait Sith (ID: 17142627/0x01059363) [8254*]:
    → "Conditions...?"
183: 0x05C3 [0x23] WAIT_FOR_DIALOG_INTERACTION
184: 0x05C4 [0x5B] LOAD_EXT_SCHEDULER: Load scheduler "thk0" with entities [Cait Sith (ID: 17142627/0x01059363), Cait Sith (ID: 17142627/0x01059363)], work=1310*
185: 0x05D3 [0x1C] WAIT(90* ticks)
186: 0x05D6 [0x52] END_LOAD_SCHEDULER: End scheduler "r080" with entities [LocalPlayer, LocalPlayer], work=541*
187: 0x05E5 [0x45] LOAD_SCHEDULED_TASK: Load scheduler "r070" with entities [LocalPlayer, LocalPlayer], work=[541*, 0*]
188: 0x05F6 [0x1C] WAIT(30* ticks)
189: 0x05F9 [0x2B] Unnamed NPC (ID: 17142565/0x01059325) [8255*]:
    → "Her future must needs be brought near. For only then will she be able to draw strength from it."
190: 0x0600 [0x23] WAIT_FOR_DIALOG_INTERACTION
191: 0x0601 [0x5B] LOAD_EXT_SCHEDULER: Load scheduler "thk1" with entities [Cait Sith (ID: 17142627/0x01059363), Cait Sith (ID: 17142627/0x01059363)], work=1310*
192: 0x0610 [0x1C] WAIT(30* ticks)
193: 0x0613 [0x52] END_LOAD_SCHEDULER: End scheduler "r070" with entities [LocalPlayer, LocalPlayer], work=541*
194: 0x0622 [0x45] LOAD_SCHEDULED_TASK: Load scheduler "r130" with entities [LocalPlayer, LocalPlayer], work=[541*, 0*]
195: 0x0633 [0x1C] WAIT(30* ticks)
196: 0x0636 [0x2B] Cait Sith (ID: 17142627/0x01059363) [8256*]:
    → "Lilisette's...future."
197: 0x063D [0x23] WAIT_FOR_DIALOG_INTERACTION
198: 0x063E [0x53] WAIT_SCHEDULER_TASK: Wait for scheduler "thk1" with entities [Cait Sith (ID: 17142627/0x01059363), Cait Sith (ID: 17142627/0x01059363)]
199: 0x064B [0x1C] WAIT(30* ticks)
200: 0x064E [0x5B] LOAD_EXT_SCHEDULER: Load scheduler "ude0" with entities [Cait Sith (ID: 17142627/0x01059363), Cait Sith (ID: 17142627/0x01059363)], work=1412*
201: 0x065D [0x52] END_LOAD_SCHEDULER: End scheduler "r130" with entities [LocalPlayer, LocalPlayer], work=541*
202: 0x066C [0x1A] CALL_SUBROUTINE(address=0x2FE8)
203: 0x066F [0x02] IF !(Work_Zone[7] == 6*) GOTO 0x068B
204: 0x0677 [0x45] LOAD_SCHEDULED_TASK: Load scheduler "r095" with entities [LocalPlayer, LocalPlayer], work=[541*, 0*]
205: 0x0688 [0x01] GOTO 0x069C
206: 0x068B [0x45] LOAD_SCHEDULED_TASK: Load scheduler "r090" with entities [LocalPlayer, LocalPlayer], work=[541*, 0*]

SUBROUTINE_069C:
207: 0x069C [0xC5] LOAD_SCHEDULED_TASK_ALT3: Load scheduler 0x800E3130 for entities [Cavernous Maw (ID: 17142628/0x01059364), Cavernous Maw (ID: 17142628/0x01059364)], work=253*, param=12403
208: 0x06AD [0x1C] WAIT(30* ticks)
209: 0x06B0 [0x2B] Cait Sith (ID: 17142627/0x01059363) [8257*]:
    → "I think I understand. Have an inkling. We have to settle the score. Put finis to our foes."
210: 0x06B7 [0x23] WAIT_FOR_DIALOG_INTERACTION
211: 0x06B8 [0x79] LocalPlayer looks at Cait Sith (ID: 17142627/0x01059363) (Basic look)
212: 0x06C2 [0x1C] WAIT(60* ticks)
213: 0x06C5 [0x6E] LocalPlayer uses emote 7*
214: 0x06CC [0x99] Wait for LocalPlayer animation to complete
215: 0x06D1 [0x1C] WAIT(120* ticks)
216: 0x06D4 [0x1A] CALL_SUBROUTINE(address=0x2FE8)
217: 0x06D7 [0x02] IF !(Work_Zone[7] == 6*) GOTO 0x06F1
218: 0x06DF [0x52] END_LOAD_SCHEDULER: End scheduler "r095" with entities [LocalPlayer, LocalPlayer], work=541*
219: 0x06EE [0x01] GOTO 0x0700
220: 0x06F1 [0x52] END_LOAD_SCHEDULER: End scheduler "r090" with entities [LocalPlayer, LocalPlayer], work=541*

SUBROUTINE_0700:
221: 0x0700 [0x45] LOAD_SCHEDULED_TASK: Load scheduler "r100" with entities [LocalPlayer, LocalPlayer], work=[541*, 0*]
222: 0x0711 [0x1C] WAIT(60* ticks)
223: 0x0714 [0x4B] UPDATE_ENTITY_YAW(entity=Unnamed NPC (ID: 17142565/0x01059325), yaw=11.8°*)
224: 0x071B [0x1C] WAIT(10* ticks)
225: 0x071E [0x4B] UPDATE_ENTITY_YAW(entity=Unnamed NPC (ID: 17142566/0x01059326), yaw=11.8°*)
226: 0x0725 [0x1C] WAIT(10* ticks)
227: 0x0728 [0x4B] UPDATE_ENTITY_YAW(entity=Unnamed NPC (ID: 17142567/0x01059327), yaw=11.8°*)
228: 0x072F [0x1C] WAIT(30* ticks)
229: 0x0732 [0x4B] UPDATE_ENTITY_YAW(entity=Cait Sith (ID: 17142627/0x01059363), yaw=11.8°*)
230: 0x0739 [0x1C] WAIT(15* ticks)
231: 0x073C [0x4B] UPDATE_ENTITY_YAW(entity=LocalPlayer, yaw=11.8°*)
232: 0x0743 [0x79] LocalPlayer looks at Unknown NPC (ID: 2148434005/0x800E8055) (Direct axis set)
233: 0x074D [0x55] WAIT_LOAD_SCHEDULER: Wait for scheduler "r100" with entities [LocalPlayer, LocalPlayer], work=541*
234: 0x075C [0x1A] CALL_SUBROUTINE(address=0x2DAD)
235: 0x075F [0x1C] WAIT(60* ticks)
236: 0x0762 [0x34] LOAD_UNLOAD_ZONE(zone_id=182*)
237: 0x0765 [0x77] SET_EVENT_TIME_WEATHER(hour=255*, weather=19*)
238: 0x076A [0x1C] WAIT(30* ticks)
239: 0x076D [0xAB] EventEntity->UnknownFlag = 1 // Enable unknown flag
240: 0x076F [0x2D] CREATE_ZONE_SCHEDULER_TASK: Create scheduler "sta1" with entities [LocalPlayer, LocalPlayer]
241: 0x077C [0x2D] CREATE_ZONE_SCHEDULER_TASK: Create scheduler "sta2" with entities [LocalPlayer, LocalPlayer]
242: 0x0789 [0x2D] CREATE_ZONE_SCHEDULER_TASK: Create scheduler "sta3" with entities [LocalPlayer, LocalPlayer]
243: 0x0796 [0x2D] CREATE_ZONE_SCHEDULER_TASK: Create scheduler "sta4" with entities [LocalPlayer, LocalPlayer]
244: 0x07A3 [0x1C] WAIT(30* ticks)
245: 0x07A6 [0x4E] SET_ENTITY_HIDE_FLAG: Show LocalPlayer
246: 0x07AC [0x27] REQ_SET(priority=0x10, entity_id=Cait Sith (ID: 17142627/0x01059363), tag_num=0x04)
247: 0x07B3 [0x27] REQ_SET(priority=0x10, entity_id=Larzos (ID: 17142630/0x01059366), tag_num=0x04)
248: 0x07BA [0x27] REQ_SET(priority=0x10, entity_id=Unnamed NPC (ID: 17142565/0x01059325), tag_num=0x18)
249: 0x07C1 [0x27] REQ_SET(priority=0x10, entity_id=Unnamed NPC (ID: 17142566/0x01059326), tag_num=0x16)
250: 0x07C8 [0x27] REQ_SET(priority=0x10, entity_id=Unnamed NPC (ID: 17142567/0x01059327), tag_num=0x16)
251: 0x07CF [0x27] REQ_SET(priority=0x10, entity_id=Unnamed NPC (ID: 17142629/0x01059365), tag_num=0x02)
252: 0x07D6 [0x80] LOAD_WAIT(entity=LocalPlayer)
253: 0x07DB [0x80] LOAD_WAIT(entity=Cait Sith (ID: 17142627/0x01059363))
254: 0x07E0 [0x80] LOAD_WAIT(entity=Larzos (ID: 17142630/0x01059366))
255: 0x07E5 [0x92] Cait Sith (ID: 17142627/0x01059363)->Render.Flags3 ^= 0x01
256: 0x07EB [0x92] Larzos (ID: 17142630/0x01059366)->Render.Flags3 ^= 0x01
257: 0x07F1 [0x94] LocalPlayer->Render.Flags3 ^= 0x01
258: 0x07F7 [0x94] Cait Sith (ID: 17142627/0x01059363)->Render.Flags3 ^= 0x01
259: 0x07FD [0x94] Larzos (ID: 17142630/0x01059366)->Render.Flags3 ^= 0x01
260: 0x0803 [0x59] UPDATE_ENTITY_DATA: Larzos (ID: 17142630/0x01059366)->Render.Flags0 |= 0x200000
261: 0x080A [0xBA] SET_ENTITY_POSITION(entity_id=LocalPlayer, pos_x=582.578*, pos_z=-211.713*, pos_y=35.999*, direction=89.8°*)
262: 0x0817 [0xBA] SET_ENTITY_POSITION(entity_id=Cait Sith (ID: 17142627/0x01059363), pos_x=584.236*, pos_z=-212.878*, pos_y=35.999*, direction=89.8°*)
263: 0x0824 [0xBA] SET_ENTITY_POSITION(entity_id=Larzos (ID: 17142630/0x01059366), pos_x=583.976*, pos_z=-378.456*, pos_y=-9.047*, direction=192.5°*)
264: 0x0831 [0xBB] LOAD_EVENT_SCHEDULER_ALT: Load scheduler 0xFEFEFE00 with entities [Larzos (ID: 17142630/0x01059366), Larzos (ID: 17142630/0x01059366)], work=[223*, 0*]
265: 0x0842 [0xCD] LOAD_SCHEDULED_TASK_ALT4: Load scheduler 0xFEFEFE00 with entities [Larzos (ID: 17142630/0x01059366), Larzos (ID: 17142630/0x01059366)], work=[84*, 0*]
266: 0x0853 [0x1C] WAIT(30* ticks)
267: 0x0856 [0x27] REQ_SET(priority=0x10, entity_id=Larzos (ID: 17142630/0x01059366), tag_num=0x09)
268: 0x085D [0x52] END_LOAD_SCHEDULER: End scheduler "r100" with entities [LocalPlayer, LocalPlayer], work=541*
269: 0x086C [0x45] LOAD_SCHEDULED_TASK: Load scheduler "r210" with entities [LocalPlayer, LocalPlayer], work=[541*, 0*]
270: 0x087D [0xCD] LOAD_SCHEDULED_TASK_ALT4: Load scheduler "s005" with entities [LocalPlayer, LocalPlayer], work=[8*, 0*]
271: 0x088E [0x1A] CALL_SUBROUTINE(address=0x2D8C)
272: 0x0891 [0x1C] WAIT(180* ticks)
273: 0x0894 [0x2B] Cait Sith (ID: 17142627/0x01059363) [8258*]:
    → "So it is to the crossroads of reality and time that we must return."
274: 0x089B [0x23] WAIT_FOR_DIALOG_INTERACTION
275: 0x089C [0x1C] WAIT(60* ticks)
276: 0x089F [0x52] END_LOAD_SCHEDULER: End scheduler "r210" with entities [LocalPlayer, LocalPlayer], work=541*
277: 0x08AE [0x45] LOAD_SCHEDULED_TASK: Load scheduler "r200" with entities [LocalPlayer, LocalPlayer], work=[541*, 0*]
278: 0x08BF [0x45] LOAD_SCHEDULED_TASK: Load scheduler "blon" with entities [LocalPlayer, LocalPlayer], work=[201*, 0*]
279: 0x08D0 [0xC5] LOAD_SCHEDULED_TASK_ALT3: Load scheduler 0x800E3030 for entities [LocalPlayer, LocalPlayer], work=222*, param=12403
280: 0x08E1 [0xC5] LOAD_SCHEDULED_TASK_ALT3: Load scheduler 0x800E3130 for entities [LocalPlayer, LocalPlayer], work=222*, param=12403
281: 0x08F2 [0x1C] WAIT(60* ticks)
282: 0x08F5 [0x2B] Cait Sith (ID: 17142627/0x01059363) [8259*]:
    → "The Walk of Echoes..."
283: 0x08FC [0x23] WAIT_FOR_DIALOG_INTERACTION
284: 0x08FD [0x1C] WAIT(60* ticks)
285: 0x0900 [0x52] END_LOAD_SCHEDULER: End scheduler "r200" with entities [LocalPlayer, LocalPlayer], work=541*
286: 0x090F [0x45] LOAD_SCHEDULED_TASK: Load scheduler "r230" with entities [LocalPlayer, LocalPlayer], work=[541*, 0*]
287: 0x0920 [0x45] LOAD_SCHEDULED_TASK: Load scheduler "blon" with entities [LocalPlayer, LocalPlayer], work=[200*, 0*]
288: 0x0931 [0x1C] WAIT(180* ticks)
289: 0x0934 [0x2B] Cait Sith (ID: 17142627/0x01059363) [8260*]:
    → "But..."
290: 0x093B [0x23] WAIT_FOR_DIALOG_INTERACTION
291: 0x093C [0x1C] WAIT(60* ticks)
292: 0x093F [0x1A] CALL_SUBROUTINE(address=0x2F00)
293: 0x0942 [0x1C] WAIT(30* ticks)
294: 0x0945 [0xCD] LOAD_SCHEDULED_TASK_ALT4: Load scheduler "kil5" with entities [LocalPlayer, LocalPlayer], work=[8*, 0*]
295: 0x0956 [0x45] LOAD_SCHEDULED_TASK: Load scheduler "efon" with entities [LocalPlayer, LocalPlayer], work=[215*, 0*]
296: 0x0967 [0xBA] SET_ENTITY_POSITION(entity_id=LocalPlayer, pos_x=540.254*, pos_z=-367.187*, pos_y=0.000*, direction=156.3°*)
297: 0x0974 [0xBA] SET_ENTITY_POSITION(entity_id=Cait Sith (ID: 17142627/0x01059363), pos_x=540.671*, pos_z=-369.587*, pos_y=0.000*, direction=160.8°*)
298: 0x0981 [0x7B] LocalPlayer stops talking
299: 0x0986 [0x7B] Cait Sith (ID: 17142627/0x01059363) stops talking
300: 0x098B [0x1C] WAIT(30* ticks)
301: 0x098E [0x52] END_LOAD_SCHEDULER: End scheduler "r230" with entities [LocalPlayer, LocalPlayer], work=541*
302: 0x099D [0x45] LOAD_SCHEDULED_TASK: Load scheduler "000k" with entities [LocalPlayer, LocalPlayer], work=[511*, 0*]
303: 0x09AE [0x1A] CALL_SUBROUTINE(address=0x2EDF)
304: 0x09B1 [0x4A] LocalPlayer looks at Larzos (ID: 17142630/0x01059366)
305: 0x09BA [0x4A] Cait Sith (ID: 17142627/0x01059363) looks at Larzos (ID: 17142630/0x01059366)
306: 0x09C3 [0xBB] LOAD_EVENT_SCHEDULER_ALT: Load scheduler "out0" with entities [Larzos (ID: 17142630/0x01059366), Larzos (ID: 17142630/0x01059366)], work=[223*, 0*]
307: 0x09D4 [0x1C] WAIT(30* ticks)
308: 0x09D7 [0x2B] Cait Sith (ID: 17142627/0x01059363) [8261*]:
    → "As we are, we don't stand a chance. Face insurmountable odds."
309: 0x09DE [0x1C] WAIT(60* ticks)
310: 0x09E1 [0x23] WAIT_FOR_DIALOG_INTERACTION
311: 0x09E2 [0x52] END_LOAD_SCHEDULER: End scheduler "000k" with entities [LocalPlayer, LocalPlayer], work=511*
312: 0x09F1 [0x45] LOAD_SCHEDULED_TASK: Load scheduler "000l" with entities [LocalPlayer, LocalPlayer], work=[511*, 0*]
313: 0x0A02 [0xBA] SET_ENTITY_POSITION(entity_id=LocalPlayer, pos_x=543.688*, pos_z=-368.328*, pos_y=0.000*, direction=15.2°*)
314: 0x0A0F [0xBA] SET_ENTITY_POSITION(entity_id=Cait Sith (ID: 17142627/0x01059363), pos_x=543.330*, pos_z=-370.116*, pos_y=0.000*, direction=14.4°*)
315: 0x0A1C [0x7B] LocalPlayer stops talking
316: 0x0A21 [0x27] REQ_SET(priority=0x10, entity_id=LocalPlayer, tag_num=0x28)
317: 0x0A28 [0x5B] LOAD_EXT_SCHEDULER: Load scheduler "kam0" with entities [Cait Sith (ID: 17142627/0x01059363), Cait Sith (ID: 17142627/0x01059363)], work=2527*
318: 0x0A37 [0x2B] Cait Sith (ID: 17142627/0x01059363) [8262*]:
    → "The scales weigh heavily in favor of Lilith's faction. Grossly lopsided."
319: 0x0A3E [0x55] WAIT_LOAD_SCHEDULER: Wait for scheduler "000l" with entities [LocalPlayer, LocalPlayer], work=511*
320: 0x0A4D [0x52] END_LOAD_SCHEDULER: End scheduler "000l" with entities [LocalPlayer, LocalPlayer], work=511*
321: 0x0A5C [0x45] LOAD_SCHEDULED_TASK: Load scheduler "000m" with entities [LocalPlayer, LocalPlayer], work=[511*, 0*]
322: 0x0A6D [0x1C] WAIT(75* ticks)
323: 0x0A70 [0xBB] LOAD_EVENT_SCHEDULER_ALT: Load scheduler "in00" with entities [Larzos (ID: 17142630/0x01059366), Larzos (ID: 17142630/0x01059366)], work=[223*, 0*]
324: 0x0A81 [0x1C] WAIT(60* ticks)
325: 0x0A84 [0xBA] SET_ENTITY_POSITION(entity_id=Larzos (ID: 17142630/0x01059366), pos_x=542.280*, pos_z=-369.068*, pos_y=-23.650*, direction=191.0°*)
326: 0x0A91 [0x5B] LOAD_EXT_SCHEDULER: Load scheduler "atk0" with entities [Larzos (ID: 17142630/0x01059366), Larzos (ID: 17142630/0x01059366)], work=2828*
327: 0x0AA0 [0x1C] WAIT(30* ticks)
328: 0x0AA3 [0x52] END_LOAD_SCHEDULER: End scheduler "000m" with entities [LocalPlayer, LocalPlayer], work=511*
329: 0x0AB2 [0x45] LOAD_SCHEDULED_TASK: Load scheduler "000o" with entities [LocalPlayer, LocalPlayer], work=[511*, 0*]
330: 0x0AC3 [0x1C] WAIT(75* ticks)
331: 0x0AC6 [0xBB] LOAD_EVENT_SCHEDULER_ALT: Load scheduler "out0" with entities [Larzos (ID: 17142630/0x01059366), Larzos (ID: 17142630/0x01059366)], work=[223*, 0*]
332: 0x0AD7 [0x1C] WAIT(75* ticks)
333: 0x0ADA [0x52] END_LOAD_SCHEDULER: End scheduler "000n" with entities [LocalPlayer, LocalPlayer], work=511*
334: 0x0AE9 [0x45] LOAD_SCHEDULED_TASK: Load scheduler "000p" with entities [LocalPlayer, LocalPlayer], work=[511*, 0*]
335: 0x0AFA [0xCD] LOAD_SCHEDULED_TASK_ALT4: Load scheduler "s000" with entities [Larzos (ID: 17142630/0x01059366), Larzos (ID: 17142630/0x01059366)], work=[84*, 0*]
336: 0x0B0B [0x1C] WAIT(120* ticks)
337: 0x0B0E [0x52] END_LOAD_SCHEDULER: End scheduler "000p" with entities [LocalPlayer, LocalPlayer], work=511*
338: 0x0B1D [0x45] LOAD_SCHEDULED_TASK: Load scheduler "0018" with entities [LocalPlayer, LocalPlayer], work=[511*, 0*]
339: 0x0B2E [0xCD] LOAD_SCHEDULED_TASK_ALT4: Load scheduler "s001" with entities [Larzos (ID: 17142630/0x01059366), Larzos (ID: 17142630/0x01059366)], work=[84*, 0*]
340: 0x0B3F [0x5B] LOAD_EXT_SCHEDULER: Load scheduler "atk1" with entities [Larzos (ID: 17142630/0x01059366), Larzos (ID: 17142630/0x01059366)], work=2828*
341: 0x0B4E [0x1C] WAIT(60* ticks)
342: 0x0B51 [0x52] END_LOAD_SCHEDULER: End scheduler "0018" with entities [LocalPlayer, LocalPlayer], work=511*
343: 0x0B60 [0x45] LOAD_SCHEDULED_TASK: Load scheduler "000v" with entities [LocalPlayer, LocalPlayer], work=[511*, 0*]
344: 0x0B71 [0x5B] LOAD_EXT_SCHEDULER: Load scheduler "kei0" with entities [Cait Sith (ID: 17142627/0x01059363), Cait Sith (ID: 17142627/0x01059363)], work=2856*
345: 0x0B80 [0x1C] WAIT(45* ticks)
346: 0x0B83 [0x52] END_LOAD_SCHEDULER: End scheduler "000v" with entities [LocalPlayer, LocalPlayer], work=511*
347: 0x0B92 [0x45] LOAD_SCHEDULED_TASK: Load scheduler "000w" with entities [LocalPlayer, LocalPlayer], work=[511*, 0*]
348: 0x0BA3 [0x1C] WAIT(75* ticks)
349: 0x0BA6 [0x45] LOAD_SCHEDULED_TASK: Load scheduler "efof" with entities [LocalPlayer, LocalPlayer], work=[215*, 0*]
350: 0x0BB7 [0x1A] CALL_SUBROUTINE(address=0x2F00)
351: 0x0BBA [0x1C] WAIT(60* ticks)
352: 0x0BBD [0x1A] CALL_SUBROUTINE(address=0x2DAD)
353: 0x0BC0 [0x45] LOAD_SCHEDULED_TASK: Load scheduler "blof" with entities [LocalPlayer, LocalPlayer], work=[200*, 0*]
354: 0x0BD1 [0x23] WAIT_FOR_DIALOG_INTERACTION
355: 0x0BD2 [0x1A] CALL_SUBROUTINE(address=0x2EDF)
356: 0x0BD5 [0x1C] WAIT(60* ticks)
357: 0x0BD8 [0x35] LOAD_ZONE_NO_CLOSE(zone_id=89*)
358: 0x0BDB [0x78] ENABLE_GAME_TIMER_RESET_WEATHER()
359: 0x0BDC [0x1C] WAIT(30* ticks)
360: 0x0BDF [0xAB] EventEntity->UnknownFlag = 0 // Disable unknown flag
361: 0x0BE1 [0x4E] SET_ENTITY_HIDE_FLAG: Show LocalPlayer
362: 0x0BE7 [0x27] REQ_SET(priority=0x10, entity_id=Larzos (ID: 17142630/0x01059366), tag_num=0x05)
363: 0x0BEE [0x27] REQ_SET(priority=0x10, entity_id=Cait Sith (ID: 17142627/0x01059363), tag_num=0x04)
364: 0x0BF5 [0x27] REQ_SET(priority=0x10, entity_id=Unnamed NPC (ID: 17142565/0x01059325), tag_num=0x1A)
365: 0x0BFC [0x27] REQ_SET(priority=0x10, entity_id=Unnamed NPC (ID: 17142566/0x01059326), tag_num=0x18)
366: 0x0C03 [0x27] REQ_SET(priority=0x10, entity_id=Unnamed NPC (ID: 17142567/0x01059327), tag_num=0x18)
367: 0x0C0A [0x27] REQ_SET(priority=0x10, entity_id=Unnamed NPC (ID: 17142629/0x01059365), tag_num=0x04)
368: 0x0C11 [0x2F] Cavernous Maw (ID: 17142628/0x01059364)->Render.Flags0 &= ~0x80000 // Bit 19
369: 0x0C17 [0x4E] SET_ENTITY_HIDE_FLAG: Show Cavernous Maw (ID: 17142628/0x01059364)
370: 0x0C1D [0x80] LOAD_WAIT(entity=LocalPlayer)
371: 0x0C22 [0x80] LOAD_WAIT(entity=Cait Sith (ID: 17142627/0x01059363))
372: 0x0C27 [0x80] LOAD_WAIT(entity=Unnamed NPC (ID: 17142565/0x01059325))
373: 0x0C2C [0x80] LOAD_WAIT(entity=Unnamed NPC (ID: 17142566/0x01059326))
374: 0x0C31 [0x80] LOAD_WAIT(entity=Unnamed NPC (ID: 17142567/0x01059327))
375: 0x0C36 [0x80] LOAD_WAIT(entity=Unnamed NPC (ID: 17142629/0x01059365))
376: 0x0C3B [0x80] LOAD_WAIT(entity=Cavernous Maw (ID: 17142628/0x01059364))
377: 0x0C40 [0x92] Cait Sith (ID: 17142627/0x01059363)->Render.Flags3 ^= 0x01
378: 0x0C46 [0x92] Unnamed NPC (ID: 17142565/0x01059325)->Render.Flags3 ^= 0x01
379: 0x0C4C [0x92] Unnamed NPC (ID: 17142566/0x01059326)->Render.Flags3 ^= 0x01
380: 0x0C52 [0x92] Unnamed NPC (ID: 17142567/0x01059327)->Render.Flags3 ^= 0x01
381: 0x0C58 [0x92] Unnamed NPC (ID: 17142629/0x01059365)->Render.Flags3 ^= 0x01
382: 0x0C5E [0x92] Cavernous Maw (ID: 17142628/0x01059364)->Render.Flags3 ^= 0x01
383: 0x0C64 [0x94] LocalPlayer->Render.Flags3 ^= 0x01
384: 0x0C6A [0x94] Cait Sith (ID: 17142627/0x01059363)->Render.Flags3 ^= 0x01
385: 0x0C70 [0x94] Unnamed NPC (ID: 17142565/0x01059325)->Render.Flags3 ^= 0x01
386: 0x0C76 [0x94] Unnamed NPC (ID: 17142566/0x01059326)->Render.Flags3 ^= 0x01
387: 0x0C7C [0x94] Unnamed NPC (ID: 17142567/0x01059327)->Render.Flags3 ^= 0x01
388: 0x0C82 [0x94] Unnamed NPC (ID: 17142629/0x01059365)->Render.Flags3 ^= 0x01
389: 0x0C88 [0x94] Cavernous Maw (ID: 17142628/0x01059364)->Render.Flags3 ^= 0x01
390: 0x0C8E [0x59] UPDATE_ENTITY_DATA: Cavernous Maw (ID: 17142628/0x01059364)->Render.Flags0 |= 0x200000
391: 0x0C95 [0x59] UPDATE_ENTITY_DATA: Unnamed NPC (ID: 17142565/0x01059325)->Render.Flags0 &= ~0x200000
392: 0x0C9C [0x59] UPDATE_ENTITY_DATA: Unnamed NPC (ID: 17142566/0x01059326)->Render.Flags0 &= ~0x200000
393: 0x0CA3 [0x59] UPDATE_ENTITY_DATA: Unnamed NPC (ID: 17142567/0x01059327)->Render.Flags0 |= 0x200000
394: 0x0CAA [0x1C] WAIT(5* ticks)
395: 0x0CAD [0xBA] SET_ENTITY_POSITION(entity_id=LocalPlayer, pos_x=-116.795*, pos_z=583.733*, pos_y=-7.221*, direction=181.2°*)
396: 0x0CBA [0xBA] SET_ENTITY_POSITION(entity_id=Unnamed NPC (ID: 17142629/0x01059365), pos_x=-119.348*, pos_z=583.986*, pos_y=-7.202*, direction=181.2°*)
397: 0x0CC7 [0xBA] SET_ENTITY_POSITION(entity_id=Cait Sith (ID: 17142627/0x01059363), pos_x=-117.963*, pos_z=586.876*, pos_y=-7.491*, direction=261.7°*)
398: 0x0CD4 [0xBA] SET_ENTITY_POSITION(entity_id=Unnamed NPC (ID: 17142565/0x01059325), pos_x=-120.400*, pos_z=583.690*, pos_y=-7.061*, direction=183.0°*)
399: 0x0CE1 [0xBA] SET_ENTITY_POSITION(entity_id=Unnamed NPC (ID: 17142566/0x01059326), pos_x=-119.454*, pos_z=586.485*, pos_y=-7.452*, direction=185.7°*)
400: 0x0CEE [0xBA] SET_ENTITY_POSITION(entity_id=Unnamed NPC (ID: 17142567/0x01059327), pos_x=-120.600*, pos_z=582.590*, pos_y=-7.808*, direction=183.0°*)
401: 0x0CFB [0xBA] SET_ENTITY_POSITION(entity_id=Cavernous Maw (ID: 17142628/0x01059364), pos_x=-150.000*, pos_z=578.000*, pos_y=-30.000*, direction=178.0°*)
402: 0x0D08 [0x1C] WAIT(30* ticks)
403: 0x0D0B [0x4A] LocalPlayer looks at Cait Sith (ID: 17142627/0x01059363)
404: 0x0D14 [0x4A] Unnamed NPC (ID: 17142565/0x01059325) looks at Cait Sith (ID: 17142627/0x01059363)
405: 0x0D1D [0x4A] Unnamed NPC (ID: 17142566/0x01059326) looks at Cait Sith (ID: 17142627/0x01059363)
406: 0x0D26 [0x4A] Unnamed NPC (ID: 17142567/0x01059327) looks at Cait Sith (ID: 17142627/0x01059363)
407: 0x0D2F [0x81] SET_ENTITY_BLINKING(blink_flag=0x00, entity=Cait Sith (ID: 17142627/0x01059363))
408: 0x0D35 [0x5B] LOAD_EXT_SCHEDULER: Load scheduler "uku0" with entities [Unnamed NPC (ID: 17142629/0x01059365), Unnamed NPC (ID: 17142629/0x01059365)], work=871*
409: 0x0D44 [0x5B] LOAD_EXT_SCHEDULER: Load scheduler "hot0" with entities [Cait Sith (ID: 17142627/0x01059363), Cait Sith (ID: 17142627/0x01059363)], work=1312*
410: 0x0D53 [0x1C] WAIT(60* ticks)
411: 0x0D56 [0xCD] LOAD_SCHEDULED_TASK_ALT4: Load scheduler "s000" with entities [Unnamed NPC (ID: 17142629/0x01059365), Unnamed NPC (ID: 17142629/0x01059365)], work=[95*, 0*]
412: 0x0D67 [0x1C] WAIT(60* ticks)
413: 0x0D6A [0x52] END_LOAD_SCHEDULER: End scheduler "000w" with entities [LocalPlayer, LocalPlayer], work=511*
414: 0x0D79 [0x45] LOAD_SCHEDULED_TASK: Load scheduler "r106" with entities [LocalPlayer, LocalPlayer], work=[541*, 0*]
415: 0x0D8A [0x1A] CALL_SUBROUTINE(address=0x2D8C)
416: 0x0D8D [0x1C] WAIT(60* ticks)
417: 0x0D90 [0x2B] Cait Sith (ID: 17142627/0x01059363) [8263*]:
    → "Consequently, the powers of those aligned with the dark future have burgeoned. Their might surges."
418: 0x0D97 [0x23] WAIT_FOR_DIALOG_INTERACTION
419: 0x0D98 [0x52] END_LOAD_SCHEDULER: End scheduler "r106" with entities [LocalPlayer, LocalPlayer], work=541*
420: 0x0DA7 [0x45] LOAD_SCHEDULED_TASK: Load scheduler "r310" with entities [LocalPlayer, LocalPlayer], work=[541*, 0*]
421: 0x0DB8 [0x2B] Cait Sith (ID: 17142627/0x01059363) [8264*]:
    → "Unless we can shift the scale back towards our reality--regain lost ground--we can't hope to fight our foe on even terms."
422: 0x0DBF [0x1C] WAIT(30* ticks)
423: 0x0DC2 [0x23] WAIT_FOR_DIALOG_INTERACTION
424: 0x0DC3 [0x1C] WAIT(30* ticks)
425: 0x0DC6 [0x52] END_LOAD_SCHEDULER: End scheduler "r310" with entities [LocalPlayer, LocalPlayer], work=541*
426: 0x0DD5 [0x45] LOAD_SCHEDULED_TASK: Load scheduler "r300" with entities [LocalPlayer, LocalPlayer], work=[541*, 0*]
427: 0x0DE6 [0x5B] LOAD_EXT_SCHEDULER: Load scheduler "hot1" with entities [Cait Sith (ID: 17142627/0x01059363), Cait Sith (ID: 17142627/0x01059363)], work=1312*
428: 0x0DF5 [0x1C] WAIT(30* ticks)
429: 0x0DF8 [0x81] SET_ENTITY_BLINKING(blink_flag=0x01, entity=Cait Sith (ID: 17142627/0x01059363))
430: 0x0DFE [0x2B] Cait Sith (ID: 17142627/0x01059363) [8265*]:
    → "...But how? There's nary a thing left that we can do. Fresh out of options."
431: 0x0E05 [0x1C] WAIT(30* ticks)
432: 0x0E08 [0x23] WAIT_FOR_DIALOG_INTERACTION
433: 0x0E09 [0x1C] WAIT(30* ticks)
434: 0x0E0C [0x52] END_LOAD_SCHEDULER: End scheduler "r300" with entities [LocalPlayer, LocalPlayer], work=541*
435: 0x0E1B [0x45] LOAD_SCHEDULED_TASK: Load scheduler "r305" with entities [LocalPlayer, LocalPlayer], work=[541*, 0*]
436: 0x0E2C [0x5B] LOAD_EXT_SCHEDULER: Load scheduler "thk0" with entities [Cait Sith (ID: 17142627/0x01059363), Cait Sith (ID: 17142627/0x01059363)], work=1310*
437: 0x0E3B [0x2B] Cait Sith (ID: 17142627/0x01059363) [8266*]:
    → "..."
438: 0x0E42 [0x23] WAIT_FOR_DIALOG_INTERACTION
439: 0x0E43 [0x1C] WAIT(30* ticks)
440: 0x0E46 [0x52] END_LOAD_SCHEDULER: End scheduler "r305" with entities [LocalPlayer, LocalPlayer], work=541*
441: 0x0E55 [0x45] LOAD_SCHEDULED_TASK: Load scheduler "r300" with entities [LocalPlayer, LocalPlayer], work=[541*, 0*]
442: 0x0E66 [0x5B] LOAD_EXT_SCHEDULER: Load scheduler "hir0" with entities [Cait Sith (ID: 17142627/0x01059363), Cait Sith (ID: 17142627/0x01059363)], work=2857*
443: 0x0E75 [0x1C] WAIT(30* ticks)
444: 0x0E78 [0x2B] Cait Sith (ID: 17142627/0x01059363) [8267*]:
    → "!!!"
445: 0x0E7F [0x1C] WAIT(110* ticks)
446: 0x0E82 [0x23] WAIT_FOR_DIALOG_INTERACTION
447: 0x0E83 [0x27] REQ_SET(priority=0x10, entity_id=Cait Sith (ID: 17142627/0x01059363), tag_num=0x10)
448: 0x0E8A [0x1C] WAIT(30* ticks)
449: 0x0E8D [0x4A] Unnamed NPC (ID: 17142566/0x01059326) looks at Cait Sith (ID: 17142627/0x01059363)
450: 0x0E96 [0x52] END_LOAD_SCHEDULER: End scheduler "r300" with entities [LocalPlayer, LocalPlayer], work=541*
451: 0x0EA5 [0x1A] CALL_SUBROUTINE(address=0x2FE8)
452: 0x0EA8 [0x02] IF !(Work_Zone[2] == 6*) GOTO 0x0EC4
453: 0x0EB0 [0x45] LOAD_SCHEDULED_TASK: Load scheduler "r325" with entities [LocalPlayer, LocalPlayer], work=[541*, 0*]
454: 0x0EC1 [0x01] GOTO 0x0F29
455: 0x0EC4 [0x02] IF !(Work_Zone[2] == 5*) GOTO 0x0EE0
456: 0x0ECC [0x45] LOAD_SCHEDULED_TASK: Load scheduler "r325" with entities [LocalPlayer, LocalPlayer], work=[541*, 0*]
457: 0x0EDD [0x01] GOTO 0x0F29
458: 0x0EE0 [0x02] IF !(Work_Zone[2] == 7*) GOTO 0x0EFC
459: 0x0EE8 [0x45] LOAD_SCHEDULED_TASK: Load scheduler "r327" with entities [LocalPlayer, LocalPlayer], work=[541*, 0*]
460: 0x0EF9 [0x01] GOTO 0x0F29
461: 0x0EFC [0x02] IF !(Work_Zone[2] == 2*) GOTO 0x0F18
462: 0x0F04 [0x45] LOAD_SCHEDULED_TASK: Load scheduler "r327" with entities [LocalPlayer, LocalPlayer], work=[541*, 0*]
463: 0x0F15 [0x01] GOTO 0x0F29
464: 0x0F18 [0x45] LOAD_SCHEDULED_TASK: Load scheduler "r320" with entities [LocalPlayer, LocalPlayer], work=[541*, 0*]

SUBROUTINE_0F29:
465: 0x0F29 [0x1C] WAIT(90* ticks)
466: 0x0F2C [0x4A] Unnamed NPC (ID: 17142566/0x01059326) looks at Cait Sith (ID: 17142627/0x01059363)
467: 0x0F35 [0x2B] Cait Sith (ID: 17142627/0x01059363) [8268*]:
    → "<Player>, I've just remembered a most important errand. Urgent business. Will you be all right in my absence? On your lonesome?"
468: 0x0F3C [0x23] WAIT_FOR_DIALOG_INTERACTION
469: 0x0F3D [0x1A] CALL_SUBROUTINE(address=0x2FE8)
470: 0x0F40 [0x02] IF !(Work_Zone[2] == 6*) GOTO 0x0F5A
471: 0x0F48 [0x52] END_LOAD_SCHEDULER: End scheduler "r325" with entities [LocalPlayer, LocalPlayer], work=541*
472: 0x0F57 [0x01] GOTO 0x0FB7
473: 0x0F5A [0x02] IF !(Work_Zone[2] == 5*) GOTO 0x0F74
474: 0x0F62 [0x52] END_LOAD_SCHEDULER: End scheduler "r325" with entities [LocalPlayer, LocalPlayer], work=541*
475: 0x0F71 [0x01] GOTO 0x0FB7
476: 0x0F74 [0x02] IF !(Work_Zone[2] == 7*) GOTO 0x0F8E
477: 0x0F7C [0x52] END_LOAD_SCHEDULER: End scheduler "r327" with entities [LocalPlayer, LocalPlayer], work=541*
478: 0x0F8B [0x01] GOTO 0x0FB7
479: 0x0F8E [0x02] IF !(Work_Zone[2] == 2*) GOTO 0x0FA8
480: 0x0F96 [0x52] END_LOAD_SCHEDULER: End scheduler "r327" with entities [LocalPlayer, LocalPlayer], work=541*
481: 0x0FA5 [0x01] GOTO 0x0FB7
482: 0x0FA8 [0x52] END_LOAD_SCHEDULER: End scheduler "r320" with entities [LocalPlayer, LocalPlayer], work=541*

SUBROUTINE_0FB7:
483: 0x0FB7 [0x45] LOAD_SCHEDULED_TASK: Load scheduler "r330" with entities [LocalPlayer, LocalPlayer], work=[541*, 0*]
484: 0x0FC8 [0x5B] LOAD_EXT_SCHEDULER: Load scheduler "tla0" with entities [Cait Sith (ID: 17142627/0x01059363), Cait Sith (ID: 17142627/0x01059363)], work=1412*
485: 0x0FD7 [0x2B] Cait Sith (ID: 17142627/0x01059363) [8269*]:
    → "Ah, but I voice a redundant concern. Worry needlessly. Knowing you for the resilient adventurer that you are, you will cope just fine. Will fare admirably."
486: 0x0FDE [0x23] WAIT_FOR_DIALOG_INTERACTION
487: 0x0FDF [0x52] END_LOAD_SCHEDULER: End scheduler "r330" with entities [LocalPlayer, LocalPlayer], work=541*
488: 0x0FEE [0x1A] CALL_SUBROUTINE(address=0x2FE8)
489: 0x0FF1 [0x02] IF !(Work_Zone[2] == 6*) GOTO 0x100D
490: 0x0FF9 [0x45] LOAD_SCHEDULED_TASK: Load scheduler "r355" with entities [LocalPlayer, LocalPlayer], work=[541*, 0*]
491: 0x100A [0x01] GOTO 0x1072
492: 0x100D [0x02] IF !(Work_Zone[2] == 5*) GOTO 0x1029
493: 0x1015 [0x45] LOAD_SCHEDULED_TASK: Load scheduler "r355" with entities [LocalPlayer, LocalPlayer], work=[541*, 0*]
494: 0x1026 [0x01] GOTO 0x1072
495: 0x1029 [0x02] IF !(Work_Zone[2] == 7*) GOTO 0x1045
496: 0x1031 [0x45] LOAD_SCHEDULED_TASK: Load scheduler "r357" with entities [LocalPlayer, LocalPlayer], work=[541*, 0*]
497: 0x1042 [0x01] GOTO 0x1072
498: 0x1045 [0x02] IF !(Work_Zone[2] == 2*) GOTO 0x1061
499: 0x104D [0x45] LOAD_SCHEDULED_TASK: Load scheduler "r357" with entities [LocalPlayer, LocalPlayer], work=[541*, 0*]
500: 0x105E [0x01] GOTO 0x1072
501: 0x1061 [0x45] LOAD_SCHEDULED_TASK: Load scheduler "r350" with entities [LocalPlayer, LocalPlayer], work=[541*, 0*]

SUBROUTINE_1072:
502: 0x1072 [0x5B] LOAD_EXT_SCHEDULER: Load scheduler "tla1" with entities [Cait Sith (ID: 17142627/0x01059363), Cait Sith (ID: 17142627/0x01059363)], work=1412*
503: 0x1081 [0x2B] Cait Sith (ID: 17142627/0x01059363) [8270*]:
    → "Isn't that right? Hrmmm?"
504: 0x1088 [0x23] WAIT_FOR_DIALOG_INTERACTION
505: 0x1089 [0x1A] CALL_SUBROUTINE(address=0x2FE8)
506: 0x108C [0x02] IF !(Work_Zone[2] == 6*) GOTO 0x10A6
507: 0x1094 [0x52] END_LOAD_SCHEDULER: End scheduler "r355" with entities [LocalPlayer, LocalPlayer], work=541*
508: 0x10A3 [0x01] GOTO 0x1103
509: 0x10A6 [0x02] IF !(Work_Zone[2] == 5*) GOTO 0x10C0
510: 0x10AE [0x52] END_LOAD_SCHEDULER: End scheduler "r355" with entities [LocalPlayer, LocalPlayer], work=541*
511: 0x10BD [0x01] GOTO 0x1103
512: 0x10C0 [0x02] IF !(Work_Zone[2] == 7*) GOTO 0x10DA
513: 0x10C8 [0x52] END_LOAD_SCHEDULER: End scheduler "r357" with entities [LocalPlayer, LocalPlayer], work=541*
514: 0x10D7 [0x01] GOTO 0x1103
515: 0x10DA [0x02] IF !(Work_Zone[2] == 2*) GOTO 0x10F4
516: 0x10E2 [0x52] END_LOAD_SCHEDULER: End scheduler "r357" with entities [LocalPlayer, LocalPlayer], work=541*
517: 0x10F1 [0x01] GOTO 0x1103
518: 0x10F4 [0x52] END_LOAD_SCHEDULER: End scheduler "r350" with entities [LocalPlayer, LocalPlayer], work=541*

SUBROUTINE_1103:
519: 0x1103 [0x45] LOAD_SCHEDULED_TASK: Load scheduler "r340" with entities [LocalPlayer, LocalPlayer], work=[541*, 0*]

SUBROUTINE_1114:
520: 0x1114 [0x24] CREATE_DIALOG(message_id=8271*, default_option=0*, option_flags=0*)
    → "Can you cope? [Coping is my middle name!/<Whimper, whine>...]"
521: 0x111B [0x25] WAIT_DIALOG_SELECT()
522: 0x111C [0x02] IF !(Work_Zone[0] == 0*) GOTO 0x1176
523: 0x1124 [0x52] END_LOAD_SCHEDULER: End scheduler "r340" with entities [LocalPlayer, LocalPlayer], work=541*
524: 0x1133 [0x45] LOAD_SCHEDULED_TASK: Load scheduler "r335" with entities [LocalPlayer, LocalPlayer], work=[541*, 0*]
525: 0x1144 [0x5B] LOAD_EXT_SCHEDULER: Load scheduler "ude0" with entities [Cait Sith (ID: 17142627/0x01059363), Cait Sith (ID: 17142627/0x01059363)], work=1412*
526: 0x1153 [0x1C] WAIT(30* ticks)
527: 0x1156 [0x2B] Cait Sith (ID: 17142627/0x01059363) [8273*]:
    → "Hehehe. Ever the dependable Champion of the Dawn, I see. Altana's chosen!"
528: 0x115D [0x1C] WAIT(90* ticks)
529: 0x1160 [0x23] WAIT_FOR_DIALOG_INTERACTION
530: 0x1161 [0x5B] LOAD_EXT_SCHEDULER: Load scheduler "ude1" with entities [Cait Sith (ID: 17142627/0x01059363), Cait Sith (ID: 17142627/0x01059363)], work=1412*
531: 0x1170 [0x1C] WAIT(30* ticks)
532: 0x1173 [0x01] GOTO 0x11F3
533: 0x1176 [0x02] IF !(Work_Zone[0] == 1*) GOTO 0x11F3
534: 0x117E [0x5B] LOAD_EXT_SCHEDULER: Load scheduler "tlb0" with entities [Cait Sith (ID: 17142627/0x01059363), Cait Sith (ID: 17142627/0x01059363)], work=1414*
535: 0x118D [0x2B] Cait Sith (ID: 17142627/0x01059363) [8272*]:
    → "Hmph! A Champion of the Dawn does not whimper like some hungry kitten! The fate of our world rests upon your shoulders, <Player>, so pull yourself together. Gird up your loins."
536: 0x1194 [0x52] END_LOAD_SCHEDULER: End scheduler "r340" with entities [LocalPlayer, LocalPlayer], work=541*
537: 0x11A3 [0x45] LOAD_SCHEDULED_TASK: Load scheduler "r333" with entities [LocalPlayer, LocalPlayer], work=[541*, 0*]
538: 0x11B4 [0x1C] WAIT(30* ticks)
539: 0x11B7 [0x1C] WAIT(90* ticks)
540: 0x11BA [0x23] WAIT_FOR_DIALOG_INTERACTION
541: 0x11BB [0x5B] LOAD_EXT_SCHEDULER: Load scheduler "tlb1" with entities [Cait Sith (ID: 17142627/0x01059363), Cait Sith (ID: 17142627/0x01059363)], work=1414*
542: 0x11CA [0x1C] WAIT(30* ticks)
543: 0x11CD [0x52] END_LOAD_SCHEDULER: End scheduler "r333" with entities [LocalPlayer, LocalPlayer], work=541*
544: 0x11DC [0x45] LOAD_SCHEDULED_TASK: Load scheduler "r340" with entities [LocalPlayer, LocalPlayer], work=[541*, 0*]
545: 0x11ED [0x01] GOTO 0x1114

SUBROUTINE_11F3:
546: 0x11F3 [0x52] END_LOAD_SCHEDULER: End scheduler "r330" with entities [LocalPlayer, LocalPlayer], work=541*
547: 0x1202 [0x45] LOAD_SCHEDULED_TASK: Load scheduler "r110" with entities [LocalPlayer, LocalPlayer], work=[541*, 0*]
548: 0x1213 [0x27] REQ_SET(priority=0x10, entity_id=Cait Sith (ID: 17142627/0x01059363), tag_num=0x11)
549: 0x121A [0x1C] WAIT(120* ticks)
550: 0x121D [0x52] END_LOAD_SCHEDULER: End scheduler "r110" with entities [LocalPlayer, LocalPlayer], work=541*
551: 0x122C [0x45] LOAD_SCHEDULED_TASK: Load scheduler "r370" with entities [LocalPlayer, LocalPlayer], work=[541*, 0*]
552: 0x123D [0x4A] Unnamed NPC (ID: 17142565/0x01059325) looks at Cait Sith (ID: 17142627/0x01059363)
553: 0x1246 [0x4A] Unnamed NPC (ID: 17142566/0x01059326) looks at Cait Sith (ID: 17142627/0x01059363)
554: 0x124F [0x4A] Unnamed NPC (ID: 17142567/0x01059327) looks at Cait Sith (ID: 17142627/0x01059363)
555: 0x1258 [0x1C] WAIT(60* ticks)
556: 0x125B [0x4A] Unnamed NPC (ID: 17142565/0x01059325) looks at Cait Sith (ID: 17142627/0x01059363)
557: 0x1264 [0x4A] Unnamed NPC (ID: 17142566/0x01059326) looks at Cait Sith (ID: 17142627/0x01059363)
558: 0x126D [0x4A] Unnamed NPC (ID: 17142567/0x01059327) looks at Cait Sith (ID: 17142627/0x01059363)
559: 0x1276 [0x2B] Cait Sith (ID: 17142627/0x01059363) [8274*]:
    → "Now then, we shall meet here again before long. Regroup."
560: 0x127D [0x23] WAIT_FOR_DIALOG_INTERACTION
561: 0x127E [0x4A] Unnamed NPC (ID: 17142567/0x01059327) looks at LocalPlayer
562: 0x1287 [0x1C] WAIT(15* ticks)
563: 0x128A [0x4A] Cait Sith (ID: 17142627/0x01059363) looks at LocalPlayer
564: 0x1293 [0x4A] LocalPlayer looks at Cait Sith (ID: 17142627/0x01059363)
565: 0x129C [0x52] END_LOAD_SCHEDULER: End scheduler "r370" with entities [LocalPlayer, LocalPlayer], work=541*
566: 0x12AB [0x45] LOAD_SCHEDULED_TASK: Load scheduler "r375" with entities [LocalPlayer, LocalPlayer], work=[541*, 0*]
567: 0x12BC [0x1C] WAIT(15* ticks)
568: 0x12BF [0x5B] LOAD_EXT_SCHEDULER: Load scheduler "pnt0" with entities [Cait Sith (ID: 17142627/0x01059363), Cait Sith (ID: 17142627/0x01059363)], work=1312*
569: 0x12CE [0x2B] Cait Sith (ID: 17142627/0x01059363) [8275*]:
    → "And thence, we shall secure a foothold in our future and awaken Lilisette! Restore equilibrium!"
570: 0x12D5 [0x23] WAIT_FOR_DIALOG_INTERACTION
571: 0x12D6 [0x52] END_LOAD_SCHEDULER: End scheduler "r375" with entities [LocalPlayer, LocalPlayer], work=541*
572: 0x12E5 [0x45] LOAD_SCHEDULED_TASK: Load scheduler "r340" with entities [LocalPlayer, LocalPlayer], work=[541*, 0*]
573: 0x12F6 [0x59] UPDATE_ENTITY_DATA: Unnamed NPC (ID: 17142566/0x01059326)->Render.Flags0 |= 0x200000
574: 0x12FD [0x1C] WAIT(5* ticks)
575: 0x1300 [0xBA] SET_ENTITY_POSITION(entity_id=Unnamed NPC (ID: 17142566/0x01059326), pos_x=-119.454*, pos_z=586.485*, pos_y=-7.452*, direction=185.7°*)
576: 0x130D [0x6E] LocalPlayer uses emote 7*
577: 0x1314 [0x99] Wait for LocalPlayer animation to complete
578: 0x1319 [0x1C] WAIT(60* ticks)
579: 0x131C [0x27] REQ_SET(priority=0x10, entity_id=Unnamed NPC (ID: 17142566/0x01059326), tag_num=0x0F)
580: 0x1323 [0x1C] WAIT(30* ticks)
581: 0x1326 [0x52] END_LOAD_SCHEDULER: End scheduler "r340" with entities [LocalPlayer, LocalPlayer], work=541*
582: 0x1335 [0x45] LOAD_SCHEDULED_TASK: Load scheduler "r360" with entities [LocalPlayer, LocalPlayer], work=[541*, 0*]
583: 0x1346 [0x5B] LOAD_EXT_SCHEDULER: Load scheduler "pnt1" with entities [Cait Sith (ID: 17142627/0x01059363), Cait Sith (ID: 17142627/0x01059363)], work=1312*
584: 0x1355 [0x6E] LocalPlayer uses emote 36*
585: 0x135C [0x99] Wait for LocalPlayer animation to complete
586: 0x1361 [0x1C] WAIT(180* ticks)
587: 0x1364 [0x52] END_LOAD_SCHEDULER: End scheduler "r360" with entities [LocalPlayer, LocalPlayer], work=541*
588: 0x1373 [0x45] LOAD_SCHEDULED_TASK: Load scheduler "r125" with entities [LocalPlayer, LocalPlayer], work=[541*, 0*]
589: 0x1384 [0x1C] WAIT(30* ticks)
590: 0x1387 [0x2B] Unnamed NPC (ID: 17142565/0x01059325) [8276*]:
    → "Go assured, friends, for my kin and I shall keep vigil over the child in thine absence."
591: 0x138E [0x23] WAIT_FOR_DIALOG_INTERACTION
592: 0x138F [0x4A] Cait Sith (ID: 17142627/0x01059363) looks at Unnamed NPC (ID: 17142565/0x01059325)
593: 0x1398 [0x52] END_LOAD_SCHEDULER: End scheduler "r125" with entities [LocalPlayer, LocalPlayer], work=541*
594: 0x13A7 [0x45] LOAD_SCHEDULED_TASK: Load scheduler "r120" with entities [LocalPlayer, LocalPlayer], work=[541*, 0*]
595: 0x13B8 [0x1C] WAIT(30* ticks)
596: 0x13BB [0x2B] Unnamed NPC (ID: 17142565/0x01059325) [8277*]:
    → "Pray take all care. May fortune smile upon thee."
597: 0x13C2 [0x23] WAIT_FOR_DIALOG_INTERACTION
598: 0x13C3 [0x1C] WAIT(60* ticks)
599: 0x13C6 [0x52] END_LOAD_SCHEDULER: End scheduler "r120" with entities [LocalPlayer, LocalPlayer], work=541*
600: 0x13D5 [0x45] LOAD_SCHEDULED_TASK: Load scheduler "r130" with entities [LocalPlayer, LocalPlayer], work=[541*, 0*]
601: 0x13E6 [0x1C] WAIT(120* ticks)
602: 0x13E9 [0x5D] SET_MUSIC_VOLUME(volume=0*, fade_time=180*)
603: 0x13EE [0x1C] WAIT(60* ticks)
604: 0x13F1 [0x05] Work_Zone[1] = 1

SUBROUTINE_13F4:
605: 0x13F4 [0x1A] CALL_SUBROUTINE(address=0x2DAD)
606: 0x13F7 [0x1C] WAIT(30* ticks)
607: 0x13FA [0x29] REQ_SET_WAIT(priority=0x10, entity_id=Unnamed NPC (ID: 17142565/0x01059325), tag_num=0x0A)
608: 0x1401 [0x1C] WAIT(30* ticks)
609: 0x1404 [0x52] END_LOAD_SCHEDULER: End scheduler "s570" with entities [LocalPlayer, LocalPlayer], work=541*
610: 0x1413 [0x46] CAMERA_CONTROL: Restore default settings
611: 0x1415 [0x45] LOAD_SCHEDULED_TASK: Load scheduler "fdi2" with entities [LocalPlayer, LocalPlayer], work=[200*, 0*]
612: 0x1426 [0x21] END_EVENT
613: 0x1427 [0x00] END_REQSTACK()

SUBROUTINE_1428:
614: 0x1428 [0x02] IF !(ExtData[1]->WorkLocal[0] == 0*) GOTO 0x1460
615: 0x1430 [0x02] IF !(ExtData[1]->WorkLocal[1] == 1*) GOTO 0x144C
616: 0x1438 [0x45] LOAD_SCHEDULED_TASK: Load scheduler "r030" with entities [LocalPlayer, LocalPlayer], work=[541*, 0*]
617: 0x1449 [0x01] GOTO 0x145D
618: 0x144C [0x45] LOAD_SCHEDULED_TASK: Load scheduler "r035" with entities [LocalPlayer, LocalPlayer], work=[541*, 0*]

SUBROUTINE_145D:
619: 0x145D [0x01] GOTO 0x148D
620: 0x1460 [0x02] IF !(ExtData[1]->WorkLocal[1] == 1*) GOTO 0x147C
621: 0x1468 [0x45] LOAD_SCHEDULED_TASK: Load scheduler "r035" with entities [LocalPlayer, LocalPlayer], work=[541*, 0*]
622: 0x1479 [0x01] GOTO 0x148D
623: 0x147C [0x45] LOAD_SCHEDULED_TASK: Load scheduler "r035" with entities [LocalPlayer, LocalPlayer], work=[541*, 0*]

SUBROUTINE_148D:
624: 0x148D [0x1B] RETURN
```

#### Data or dead code:

```
# Dead code (unreachable instructions):
     0x026A [0x01] GOTO 0x029C
# Dead code (unreachable instructions):
     0x11F0 [0x01] GOTO 0x11F3
```

### Event 34

#### Metadata

| Field        | Value      |
|--------------|------------|
| Entrypoint   | 0x148E     |
| Data Size    | 1973 bytes |
| Instructions | 188        |

```
      00 01 02 03 04 05 06 07  08 09 0A 0B 0C 0D 0E 0F
      -- -- -- -- -- -- -- --  -- -- -- -- -- -- -- --
1480:                                            42 1A                B.
1490: AD 2D 46 01 38 00 80 1C  01 80 27 10 63 93 05 01  .-F.8.....'.c...
14A0: 04 27 10 25 93 05 01 1A  27 10 26 93 05 01 18 27  .'.%....'.&....'
14B0: 10 27 93 05 01 18 27 10  65 93 05 01 04 80 F0 FF  .'....'.e.......
14C0: FF 7F 80 63 93 05 01 80  25 93 05 01 80 26 93 05  ...c....%....&..
14D0: 01 80 27 93 05 01 80 65  93 05 01 92 01 63 93 05  ..'....e.....c..
14E0: 01 92 01 25 93 05 01 92  01 26 93 05 01 92 01 27  ...%.....&.....'
14F0: 93 05 01 92 01 65 93 05  01 94 01 F0 FF FF 7F 94  .....e..........
1500: 01 63 93 05 01 94 01 25  93 05 01 94 01 26 93 05  .c.....%.....&..
1510: 01 94 01 27 93 05 01 94  01 65 93 05 01 59 05 25  ...'.....e...Y.%
1520: 93 05 01 01 59 05 26 93  05 01 01 59 05 27 93 05  ....Y.&....Y.'..
1530: 01 01 1C 02 80 BA F0 FF  FF 7F A2 80 A3 80 A4 80  ................
1540: A5 80 BA 65 93 05 01 2B  80 2C 80 2D 80 2A 80 BA  ...e...+.,.-.*..
1550: 63 93 05 01 A6 80 A7 80  A8 80 A9 80 BA 25 93 05  c............%..
1560: 01 31 80 32 80 33 80 34  80 BA 26 93 05 01 35 80  .1.2.3.4..&...5.
1570: 36 80 37 80 38 80 BA 27  93 05 01 39 80 3A 80 3B  6.7.8..'...9.:.;
1580: 80 34 80 1C 01 80 4A F0  FF FF 7F 25 93 05 01 4A  .4....J....%...J
1590: 25 93 05 01 F0 FF FF 7F  4A 26 93 05 01 F0 FF FF  %.......J&......
15A0: 7F 4A 27 93 05 01 F0 FF  FF 7F 5B 40 80 65 93 05  .J'.......[@.e..
15B0: 01 65 93 05 01 75 6B 75  30 CD 43 80 65 93 05 01  .e...uku0.C.e...
15C0: 65 93 05 01 73 30 30 30  0E 80 5D 0E 80 AA 80 5B  e...s000..]....[
15D0: AB 80 26 93 05 01 26 93  05 01 70 61 73 30 1C 0F  ..&...&...pas0..
15E0: 80 BA 63 93 05 01 AC 80  AD 80 AE 80 23 80 1C 0F  ..c.........#...
15F0: 80 5B AF 80 63 93 05 01  63 93 05 01 34 33 30 38  .[..c...c...4308
1600: 27 10 F0 FF FF 7F 15 45  B0 80 F0 FF FF 7F F0 FF  '......E........
1610: FF 7F 6B 31 30 30 0E 80  1A 8C 2D 5B AB 80 26 93  ..k100....-[..&.
1620: 05 01 26 93 05 01 70 61  73 31 1C 65 80 27 10 25  ..&...pas1.e.'.%
1630: 93 05 01 15 27 10 F0 FF  FF 7F 16 1C 53 80 4A F0  ....'.......S.J.
1640: FF FF 7F 63 93 05 01 1C  53 80 5C 00 B1 80 5C 01  ...c....S.\...\.
1650: B1 80 9A 52 B0 80 F0 FF  FF 7F F0 FF FF 7F 6B 31  ...R..........k1
1660: 30 30 45 B0 80 F0 FF FF  7F F0 FF FF 7F 6B 30 31  00E..........k01
1670: 30 0E 80 1C 23 80 BA F0  FF FF 7F B2 80 B3 80 B4  0...#...........
1680: 80 B5 80 1C 01 80 2B 63  93 05 01 B6 80 23 27 10  ......+c.....#'.
1690: F0 FF FF 7F 29 1C 01 80  52 B0 80 F0 FF FF 7F F0  ....)...R.......
16A0: FF FF 7F 6B 30 31 30 45  B0 80 F0 FF FF 7F F0 FF  ...k010E........
16B0: FF 7F 6B 30 32 35 0E 80  1C AA 80 5B 83 80 63 93  ..k025.....[..c.
16C0: 05 01 63 93 05 01 66 72  69 30 7C 00 63 93 05 01  ..c...fri0|.c...
16D0: 1C 01 80 52 B0 80 F0 FF  FF 7F F0 FF FF 7F 6B 30  ...R..........k0
16E0: 32 35 45 B0 80 F0 FF FF  7F F0 FF FF 7F 6B 30 33  25E..........k03
16F0: 30 0E 80 2B 63 93 05 01  B7 80 23 1C 01 80 52 B0  0..+c.....#...R.
1700: 80 F0 FF FF 7F F0 FF FF  7F 6B 30 33 30 45 B0 80  .........k030E..
1710: F0 FF FF 7F F0 FF FF 7F  6B 30 34 30 0E 80 7C 01  ........k040..|.
1720: 63 93 05 01 6B 69 64 6C  30 63 93 05 01 2B 63 93  c...kidl0c...+c.
1730: 05 01 B8 80 23 4A 63 93  05 01 F0 FF FF 7F 1C B9  ....#Jc.........
1740: 80 5B BA 80 63 93 05 01  63 93 05 01 77 61 73 30  .[..c...c...was0
1750: 1C 02 80 52 B0 80 F0 FF  FF 7F F0 FF FF 7F 6B 30  ...R..........k0
1760: 34 30 1A E8 2F 02 02 10  1D 80 80 81 17 45 B0 80  40../........E..
1770: F0 FF FF 7F F0 FF FF 7F  6B 30 34 37 0E 80 01 02  ........k047....
1780: 18 02 02 10 95 80 80 9D  17 45 B0 80 F0 FF FF 7F  .........E......
1790: F0 FF FF 7F 6B 30 34 37  0E 80 01 02 18 02 02 10  ....k047........
17A0: 52 80 80 B9 17 45 B0 80  F0 FF FF 7F F0 FF FF 7F  R....E..........
17B0: 6B 30 34 37 0E 80 01 02  18 02 02 10 02 80 80 D5  k047............
17C0: 17 45 B0 80 F0 FF FF 7F  F0 FF FF 7F 6B 30 34 35  .E..........k045
17D0: 0E 80 01 02 18 02 02 10  45 80 80 F1 17 45 B0 80  ........E....E..
17E0: F0 FF FF 7F F0 FF FF 7F  6B 30 34 35 0E 80 01 02  ........k045....
17F0: 18 45 B0 80 F0 FF FF 7F  F0 FF FF 7F 6B 30 34 38  .E..........k048
1800: 0E 80 03 02 10 BB 80 2B  63 93 05 01 BC 80 23 1A  .......+c.....#.
1810: E8 2F 02 02 10 1D 80 80  2C 18 52 B0 80 F0 FF FF  ./......,.R.....
1820: 7F F0 FF FF 7F 6B 30 34  37 01 A3 18 02 02 10 95  .....k047.......
1830: 80 80 46 18 52 B0 80 F0  FF FF 7F F0 FF FF 7F 6B  ..F.R..........k
1840: 30 34 37 01 A3 18 02 02  10 52 80 80 60 18 52 B0  047......R..`.R.
1850: 80 F0 FF FF 7F F0 FF FF  7F 6B 30 34 37 01 A3 18  .........k047...
1860: 02 02 10 02 80 80 7A 18  52 B0 80 F0 FF FF 7F F0  ......z.R.......
1870: FF FF 7F 6B 30 34 35 01  A3 18 02 02 10 45 80 80  ...k045......E..
1880: 94 18 52 B0 80 F0 FF FF  7F F0 FF FF 7F 6B 30 34  ..R..........k04
1890: 35 01 A3 18 52 B0 80 F0  FF FF 7F F0 FF FF 7F 6B  5...R..........k
18A0: 30 34 38 5B BD 80 63 93  05 01 63 93 05 01 66 30  048[..c...c...f0
18B0: 30 30 45 B0 80 F0 FF FF  7F F0 FF FF 7F 6B 30 35  00E..........k05
18C0: 30 0E 80 6B 69 64 6C 30  63 93 05 01 1C 01 80 03  0..kidl0c.......
18D0: 02 10 BB 80 24 BE 80 0E  80 0E 80 25 02 00 10 0E  ....$......%....
18E0: 80 00 F9 18 6E F0 FF FF  7F 52 80 99 F0 FF FF 7F  ....n....R......
18F0: 1C 7D 80 01 8C 1B 01 8C  1B 02 00 10 1D 80 00 6E  .}.............n
1900: 19 6E F0 FF FF 7F 45 80  99 F0 FF FF 7F 1C 7D 80  .n....E.......}.
1910: 5B BD 80 63 93 05 01 63  93 05 01 66 62 30 30 5B  [..c...c...fb00[
1920: 9B 80 63 93 05 01 63 93  05 01 74 6C 62 30 1C 01  ..c...c...tlb0..
1930: 80 52 B0 80 F0 FF FF 7F  F0 FF FF 7F 6B 30 35 30  .R..........k050
1940: 45 B0 80 F0 FF FF 7F F0  FF FF 7F 6B 30 37 30 0E  E..........k070.
1950: 80 2B 63 93 05 01 BF 80  23 52 B0 80 F0 FF FF 7F  .+c.....#R......
1960: F0 FF FF 7F 6B 30 37 30  01 A3 18 01 8C 1B 02 00  ....k070........
1970: 10 95 80 00 8C 1B 6E F0  FF FF 7F C0 80 99 F0 FF  ......n.........
1980: FF 7F 1C C1 80 81 00 63  93 05 01 5B BD 80 63 93  .......c...[..c.
1990: 05 01 63 93 05 01 66 65  30 30 5B 92 80 63 93 05  ..c...fe00[..c..
19A0: 01 63 93 05 01 63 72 79  30 1C 01 80 52 B0 80 F0  .c...cry0...R...
19B0: FF FF 7F F0 FF FF 7F 6B  30 35 30 45 B0 80 F0 FF  .......k050E....
19C0: FF 7F F0 FF FF 7F 6B 30  36 30 0E 80 2B 63 93 05  ......k060..+c..
19D0: 01 C2 80 23 52 B0 80 F0  FF FF 7F F0 FF FF 7F 6B  ...#R..........k
19E0: 30 36 30 45 B0 80 F0 FF  FF 7F F0 FF FF 7F 6B 30  060E..........k0
19F0: 37 35 0E 80 5B 92 80 63  93 05 01 63 93 05 01 63  75..[..c...c...c
1A00: 72 79 31 2B 63 93 05 01  C3 80 1C 23 80 93 BB 80  ry1+c......#....
1A10: 1C 53 80 23 93 0E 80 52  B0 80 F0 FF FF 7F F0 FF  .S.#...R........
1A20: FF 7F 6B 30 37 35 1A E8  2F 02 02 10 1D 80 80 45  ..k075../......E
1A30: 1A 45 B0 80 F0 FF FF 7F  F0 FF FF 7F 6B 30 34 37  .E..........k047
1A40: 0E 80 01 C6 1A 02 02 10  95 80 80 61 1A 45 B0 80  ...........a.E..
1A50: F0 FF FF 7F F0 FF FF 7F  6B 30 34 37 0E 80 01 C6  ........k047....
1A60: 1A 02 02 10 52 80 80 7D  1A 45 B0 80 F0 FF FF 7F  ....R..}.E......
1A70: F0 FF FF 7F 6B 30 34 37  0E 80 01 C6 1A 02 02 10  ....k047........
1A80: 02 80 80 99 1A 45 B0 80  F0 FF FF 7F F0 FF FF 7F  .....E..........
1A90: 6B 30 34 35 0E 80 01 C6  1A 02 02 10 45 80 80 B5  k045........E...
1AA0: 1A 45 B0 80 F0 FF FF 7F  F0 FF FF 7F 6B 30 34 35  .E..........k045
1AB0: 0E 80 01 C6 1A 45 B0 80  F0 FF FF 7F F0 FF FF 7F  .....E..........
1AC0: 6B 30 34 38 0E 80 81 01  63 93 05 01 5B BD 80 63  k048....c...[..c
1AD0: 93 05 01 63 93 05 01 66  30 30 30 5B C4 80 63 93  ...c...f000[..c.
1AE0: 05 01 63 93 05 01 64 65  6B 30 2B 63 93 05 01 C5  ..c...dek0+c....
1AF0: 80 23 1A E8 2F 02 02 10  1D 80 80 0F 1B 52 B0 80  .#../........R..
1B00: F0 FF FF 7F F0 FF FF 7F  6B 30 34 37 01 86 1B 02  ........k047....
1B10: 02 10 95 80 80 29 1B 52  B0 80 F0 FF FF 7F F0 FF  .....).R........
1B20: FF 7F 6B 30 34 37 01 86  1B 02 02 10 52 80 80 43  ..k047......R..C
1B30: 1B 52 B0 80 F0 FF FF 7F  F0 FF FF 7F 6B 30 34 37  .R..........k047
1B40: 01 86 1B 02 02 10 02 80  80 5D 1B 52 B0 80 F0 FF  .........].R....
1B50: FF 7F F0 FF FF 7F 6B 30  34 35 01 86 1B 02 02 10  ......k045......
1B60: 45 80 80 77 1B 52 B0 80  F0 FF FF 7F F0 FF FF 7F  E..w.R..........
