# 17142614

## Common Data

| Field            | Value                 |
|------------------|-----------------------|
| Zone             | Grauberg [S] (ID: 89) |
| Block Size       | 2820 bytes            |
| Total Events     | 5                     |
| References Count | 72                    |

## List of Events

| Event ID              | Entrypoint   |   Size |   Instructions |
|-----------------------|--------------|--------|----------------|
| [65535](#event-65535) | 0x0000       |      1 |              1 |
| [18](#event-18)       | 0x0001       |      1 |              1 |
| [19](#event-19)       | 0x0002       |   1034 |            130 |
| [21](#event-21)       | 0x040C       |   1085 |            135 |
| [20](#event-20)       | 0x0849       |    373 |             42 |

## DAT References (imed_data)

|   Index | Hex Value   |   Dec Value |
|---------|-------------|-------------|
|       0 | 0x0000      |           0 |
|       1 | 0x00B4      |         180 |
|       2 | 0x00C8      |         200 |
|       3 | 0x0013      |          19 |
|       4 | 0xFFFDDFFE  |  4294828030 |
|       5 | 0x89192     |      561554 |
|       6 | 0xFFFFE473  |  4294960243 |
|       7 | 0x0C4A      |        3146 |
|       8 | 0xFFFDE255  |  4294828629 |
|       9 | 0x8AFDD     |      569309 |
|      10 | 0xFFFFE42E  |  4294960174 |
|      11 | 0x03FB      |        1019 |
|      12 | 0xFFFDC44D  |  4294820941 |
|      13 | 0x8BC58     |      572504 |
|      14 | 0xFFFFE404  |  4294960132 |
|      15 | 0x01D5      |         469 |
|      16 | 0xFFFDEB6E  |  4294830958 |
|      17 | 0x8BD10     |      572688 |
|      18 | 0xFFFFE3BB  |  4294960059 |
|      19 | 0x04FF      |        1279 |
|      20 | 0xFFFDC211  |  4294820369 |
|      21 | 0x8A81B     |      567323 |
|      22 | 0xFFFFE40E  |  4294960142 |
|      23 | 0x00D3      |         211 |
|      24 | 0x001E      |          30 |
|      25 | 0x007B      |         123 |
|      26 | 0x003C      |          60 |
|      27 | 0x018F      |         399 |
|      28 | 0x000F      |          15 |
|      29 | 0x1FBF      |        8127 |
|      30 | 0x0050      |          80 |
|      31 | 0x0028      |          40 |
|      32 | 0x0439      |        1081 |
|      33 | 0x1FC0      |        8128 |
|      34 | 0x0BC6      |        3014 |
|      35 | 0x1FC1      |        8129 |
|      36 | 0x0005      |           5 |
|      37 | 0x1FC2      |        8130 |
|      38 | 0x005A      |          90 |
|      39 | 0x000A      |          10 |
|      40 | 0x1FC3      |        8131 |
|      41 | 0x1FC4      |        8132 |
|      42 | 0x1FC5      |        8133 |
|      43 | 0x1FC6      |        8134 |
|      44 | 0x1FC7      |        8135 |
|      45 | 0xFFFDE184  |  4294828420 |
|      46 | 0x89D36     |      564534 |
|      47 | 0xFFFFE525  |  4294960421 |
|      48 | 0x03C9      |         969 |
|      49 | 0xFFFDE153  |  4294828371 |
|      50 | 0x89B2F     |      564015 |
|      51 | 0xFFFFE1E1  |  4294959585 |
|      52 | 0x0C55      |        3157 |
|      53 | 0x00FB      |         251 |
|      54 | 0x0078      |         120 |
|      55 | 0x1FCC      |        8140 |
|      56 | 0x09DD      |        2525 |
|      57 | 0x1FCD      |        8141 |
|      58 | 0x1FCF      |        8143 |
|      59 | 0x1FD0      |        8144 |
|      60 | 0x1FD1      |        8145 |
|      61 | 0x1FD2      |        8146 |
|      62 | 0x1FD3      |        8147 |
|      63 | 0x1FD4      |        8148 |
|      64 | 0x1FD5      |        8149 |
|      65 | 0x0874      |        2164 |
|      66 | 0x0076      |         118 |
|      67 | 0x1FD6      |        8150 |
|      68 | 0x1FC8      |        8136 |
|      69 | 0x1FC9      |        8137 |
|      70 | 0x1FCA      |        8138 |
|      71 | 0x1FCB      |        8139 |

## Events

### Event 65535

#### Metadata

| Field        | Value   |
|--------------|---------|
| Entrypoint   | 0x0000  |
| Data Size    | 1 bytes |
| Instructions | 1       |

```
      00 01 02 03 04 05 06 07  08 09 0A 0B 0C 0D 0E 0F
      -- -- -- -- -- -- -- --  -- -- -- -- -- -- -- --
0000: 00                                                .               
```

#### Opcodes

```
  0: 0x0000 [0x00] END_REQSTACK()
```

### Event 18

#### Metadata

| Field        | Value   |
|--------------|---------|
| Entrypoint   | 0x0001  |
| Data Size    | 1 bytes |
| Instructions | 1       |

```
      00 01 02 03 04 05 06 07  08 09 0A 0B 0C 0D 0E 0F
      -- -- -- -- -- -- -- --  -- -- -- -- -- -- -- --
0000:    00                                              .              
```

#### Opcodes

```
  0: 0x0001 [0x00] END_REQSTACK()
```

### Event 19

#### Metadata

| Field        | Value      |
|--------------|------------|
| Entrypoint   | 0x0002     |
| Data Size    | 1034 bytes |
| Instructions | 130        |

```
      00 01 02 03 04 05 06 07  08 09 0A 0B 0C 0D 0E 0F
      -- -- -- -- -- -- -- --  -- -- -- -- -- -- -- --
0000:       42 5D 00 80 01 80  45 02 80 F8 FF FF 7F F8    B]....E.......
0010: FF FF 7F 66 64 6F 31 00  80 55 02 80 F8 FF FF 7F  ...fdo1..U......
0020: F8 FF FF 7F 66 64 6F 31  46 01 38 03 80 2F 00 28  ....fdo1F.8../.(
0030: 93 05 01 2F 00 25 93 05  01 2F 00 26 93 05 01 2F  .../.%.../.&.../
0040: 00 27 93 05 01 4E 00 28  93 05 01 BA F0 FF FF 7F  .'...N.(........
0050: 04 80 05 80 06 80 07 80  BA 28 93 05 01 08 80 09  .........(......
0060: 80 0A 80 0B 80 BA 25 93  05 01 0C 80 0D 80 0E 80  ......%.........
0070: 0F 80 BA 26 93 05 01 10  80 11 80 12 80 13 80 BA  ...&............
0080: 27 93 05 01 14 80 15 80  16 80 17 80 80 F0 FF FF  '...............
0090: 7F 80 28 93 05 01 4A F0  FF FF 7F 28 93 05 01 4A  ..(...J....(...J
00A0: 28 93 05 01 F0 FF FF 7F  1C 18 80 5C 00 19 80 5C  (..........\...\
00B0: 01 19 80 9A 27 05 28 93  05 01 04 1C 1A 80 45 1B  ....'.(.......E.
00C0: 80 F8 FF FF 7F F8 FF FF  7F 73 30 39 31 00 80 1C  .........s091...
00D0: 1C 80 45 02 80 F8 FF FF  7F F8 FF FF 7F 66 64 69  ..E..........fdi
00E0: 31 00 80 55 02 80 F8 FF  FF 7F F8 FF FF 7F 66 64  1..U..........fd
00F0: 69 31 2A 05 28 93 05 01  2B 28 93 05 01 1D 80 23  i1*.(...+(.....#
0100: 27 05 F0 FF FF 7F 15 1C  1E 80 27 05 F0 FF FF 7F  '.........'.....
0110: 16 1C 1F 80 52 1B 80 F8  FF FF 7F F8 FF FF 7F 73  ....R..........s
0120: 30 39 31 45 1B 80 F8 FF  FF 7F F8 FF FF 7F 73 30  091E..........s0
0130: 39 32 00 80 03 02 10 20  80 2B 28 93 05 01 21 80  92..... .+(...!.
0140: 23 52 1B 80 F8 FF FF 7F  F8 FF FF 7F 73 30 39 32  #R..........s092
0150: 45 1B 80 F8 FF FF 7F F8  FF FF 7F 73 30 39 33 00  E..........s093.
0160: 80 4B 28 93 05 01 22 80  1C 1C 80 4E 00 25 93 05  .K(..."....N.%..
0170: 01 4E 00 26 93 05 01 4E  00 27 93 05 01 2B 28 93  .N.&...N.'...+(.
0180: 05 01 23 80 23 80 25 93  05 01 80 26 93 05 01 80  ..#.#.%....&....
0190: 27 93 05 01 27 05 25 93  05 01 07 1C 24 80 27 05  '...'.%.....$.'.
01A0: 26 93 05 01 07 1C 24 80  27 05 27 93 05 01 07 1C  &.....$.'.'.....
01B0: 1C 80 52 1B 80 F8 FF FF  7F F8 FF FF 7F 73 30 39  ..R..........s09
01C0: 33 45 1B 80 F8 FF FF 7F  F8 FF FF 7F 73 30 39 34  3E..........s094
01D0: 00 80 2A 05 25 93 05 01  2A 05 26 93 05 01 2A 05  ..*.%...*.&...*.
01E0: 27 93 05 01 1C 1A 80 52  1B 80 F8 FF FF 7F F8 FF  '......R........
01F0: FF 7F 73 30 39 34 45 1B  80 F8 FF FF 7F F8 FF FF  ..s094E.........
0200: 7F 73 30 39 35 00 80 1C  1A 80 2B 28 93 05 01 25  .s095.....+(...%
0210: 80 23 1C 26 80 52 1B 80  F8 FF FF 7F F8 FF FF 7F  .#.&.R..........
0220: 73 30 39 35 45 1B 80 F8  FF FF 7F F8 FF FF 7F 73  s095E..........s
0230: 30 39 36 00 80 4A 28 93  05 01 F0 FF FF 7F 1C 1C  096..J(.........
0240: 80 4A 25 93 05 01 F0 FF  FF 7F 1C 27 80 4A 26 93  .J%........'.J&.
0250: 05 01 F0 FF FF 7F 1C 24  80 4A 27 93 05 01 F0 FF  .......$.J'.....
0260: FF 7F 2B 28 93 05 01 28  80 23 52 1B 80 F8 FF FF  ..+(...(.#R.....
0270: 7F F8 FF FF 7F 73 30 39  36 45 1B 80 F8 FF FF 7F  .....s096E......
0280: F8 FF FF 7F 73 30 39 37  00 80 2B 28 93 05 01 29  ....s097..+(...)
0290: 80 23 52 1B 80 F8 FF FF  7F F8 FF FF 7F 73 30 39  .#R..........s09
02A0: 37 45 1B 80 F8 FF FF 7F  F8 FF FF 7F 73 30 39 38  7E..........s098
02B0: 00 80 4A 25 93 05 01 26  93 05 01 1C 18 80 4A 26  ..J%...&......J&
02C0: 93 05 01 27 93 05 01 1C  26 80 52 1B 80 F8 FF FF  ...'....&.R.....
02D0: 7F F8 FF FF 7F 73 30 39  38 45 1B 80 F8 FF FF 7F  .....s098E......
02E0: F8 FF FF 7F 73 30 39 39  00 80 4A 25 93 05 01 F0  ....s099..J%....
02F0: FF FF 7F 4A 26 93 05 01  F0 FF FF 7F 2B 28 93 05  ...J&.......+(..
0300: 01 2A 80 23 1C 18 80 52  1B 80 F8 FF FF 7F F8 FF  .*.#...R........
0310: FF 7F 73 30 39 39 45 1B  80 F8 FF FF 7F F8 FF FF  ..s099E.........
0320: 7F 73 31 30 30 00 80 2B  28 93 05 01 2B 80 23 52  .s100..+(...+.#R
0330: 1B 80 F8 FF FF 7F F8 FF  FF 7F 73 31 30 30 45 1B  ..........s100E.
0340: 80 F8 FF FF 7F F8 FF FF  7F 73 31 30 31 00 80 4A  .........s101..J
0350: 26 93 05 01 27 93 05 01  1C 18 80 4A 27 93 05 01  &...'......J'...
0360: 28 93 05 01 1C 18 80 4A  25 93 05 01 27 93 05 01  (......J%...'...
0370: 1C 1A 80 52 1B 80 F8 FF  FF 7F F8 FF FF 7F 73 31  ...R..........s1
0380: 30 31 45 1B 80 F8 FF FF  7F F8 FF FF 7F 73 31 30  01E..........s10
0390: 32 00 80 4A 25 93 05 01  F0 FF FF 7F 1C 1C 80 4A  2..J%..........J
03A0: 26 93 05 01 F0 FF FF 7F  1C 24 80 4A 27 93 05 01  &........$.J'...
03B0: F0 FF FF 7F 2B 28 93 05  01 2C 80 23 5D 00 80 01  ....+(...,.#]...
03C0: 80 45 02 80 F8 FF FF 7F  F8 FF FF 7F 66 64 6F 31  .E..........fdo1
03D0: 00 80 55 02 80 F8 FF FF  7F F8 FF FF 7F 66 64 6F  ..U..........fdo
03E0: 31 52 1B 80 F8 FF FF 7F  F8 FF FF 7F 73 31 30 32  1R..........s102
03F0: 27 05 28 93 05 01 08 46  00 45 02 80 F0 FF FF 7F  '.(....F.E......
0400: F0 FF FF 7F 66 64 69 32  00 80 21 00              ....fdi2..!.    
```

#### Opcodes

```
  0: 0x0002 [0x42] SET_CLI_EVENT_CANCEL_DATA()
  1: 0x0003 [0x5D] SET_MUSIC_VOLUME(volume=0*, fade_time=180*)
  2: 0x0008 [0x45] LOAD_SCHEDULED_TASK: Load scheduler "fdo1" with entities [EventEntity, EventEntity], work=[200*, 0*]
  3: 0x0019 [0x55] WAIT_LOAD_SCHEDULER: Wait for scheduler "fdo1" with entities [EventEntity, EventEntity], work=200*
  4: 0x0028 [0x46] CAMERA_CONTROL: Disable user control
  5: 0x002A [0x38] SET_CLIENT_EVENT_MODE(mode=19*)
  6: 0x002D [0x2F] Unnamed NPC (ID: 17142568/0x01059328)->Render.Flags0 &= ~0x80000 // Bit 19
  7: 0x0033 [0x2F] Unnamed NPC (ID: 17142565/0x01059325)->Render.Flags0 &= ~0x80000 // Bit 19
  8: 0x0039 [0x2F] Unnamed NPC (ID: 17142566/0x01059326)->Render.Flags0 &= ~0x80000 // Bit 19
  9: 0x003F [0x2F] Unnamed NPC (ID: 17142567/0x01059327)->Render.Flags0 &= ~0x80000 // Bit 19
 10: 0x0045 [0x4E] SET_ENTITY_HIDE_FLAG: Show Unnamed NPC (ID: 17142568/0x01059328)
 11: 0x004B [0xBA] SET_ENTITY_POSITION(entity_id=LocalPlayer, pos_x=-139.266*, pos_z=561.554*, pos_y=-7.053*, direction=276.5°*)
 12: 0x0058 [0xBA] SET_ENTITY_POSITION(entity_id=Unnamed NPC (ID: 17142568/0x01059328), pos_x=-138.667*, pos_z=569.309*, pos_y=-7.122*, direction=89.6°*)
 13: 0x0065 [0xBA] SET_ENTITY_POSITION(entity_id=Unnamed NPC (ID: 17142565/0x01059325), pos_x=-146.355*, pos_z=572.504*, pos_y=-7.164*, direction=41.2°*)
 14: 0x0072 [0xBA] SET_ENTITY_POSITION(entity_id=Unnamed NPC (ID: 17142566/0x01059326), pos_x=-136.338*, pos_z=572.688*, pos_y=-7.237*, direction=112.4°*)
 15: 0x007F [0xBA] SET_ENTITY_POSITION(entity_id=Unnamed NPC (ID: 17142567/0x01059327), pos_x=-146.927*, pos_z=567.323*, pos_y=-7.154*, direction=18.5°*)
 16: 0x008C [0x80] LOAD_WAIT(entity=LocalPlayer)
 17: 0x0091 [0x80] LOAD_WAIT(entity=Unnamed NPC (ID: 17142568/0x01059328))
 18: 0x0096 [0x4A] LocalPlayer looks at Unnamed NPC (ID: 17142568/0x01059328)
 19: 0x009F [0x4A] Unnamed NPC (ID: 17142568/0x01059328) looks at LocalPlayer
 20: 0x00A8 [0x1C] WAIT(30* ticks)
 21: 0x00AB [0x5C] MUSIC_CONTROL: Set Idle (Day) music to song 123*
 22: 0x00AF [0x5C] MUSIC_CONTROL: Set Idle (Night) music to song 123*
 23: 0x00B3 [0x9A] WAIT_MUSIC_SERVER()
 24: 0x00B4 [0x27] REQ_SET(priority=0x05, entity_id=Unnamed NPC (ID: 17142568/0x01059328), tag_num=0x04)
 25: 0x00BB [0x1C] WAIT(60* ticks)
 26: 0x00BE [0x45] LOAD_SCHEDULED_TASK: Load scheduler "s091" with entities [EventEntity, EventEntity], work=[399*, 0*]
 27: 0x00CF [0x1C] WAIT(15* ticks)
 28: 0x00D2 [0x45] LOAD_SCHEDULED_TASK: Load scheduler "fdi1" with entities [EventEntity, EventEntity], work=[200*, 0*]
 29: 0x00E3 [0x55] WAIT_LOAD_SCHEDULER: Wait for scheduler "fdi1" with entities [EventEntity, EventEntity], work=200*
 30: 0x00F2 [0x2A] GET_REQ_LEVEL(level=5, entity_id=Unnamed NPC (ID: 17142568/0x01059328))
 31: 0x00F8 [0x2B] Unnamed NPC (ID: 17142568/0x01059328) [8127*]:
    → "Ooh! Looky what we have here! A mortal! I haven't seen one of you for years and years and years! What brings you to these parts, sweetie?"
 32: 0x00FF [0x23] WAIT_FOR_DIALOG_INTERACTION
 33: 0x0100 [0x27] REQ_SET(priority=0x05, entity_id=LocalPlayer, tag_num=0x15)
 34: 0x0107 [0x1C] WAIT(80* ticks)
 35: 0x010A [0x27] REQ_SET(priority=0x05, entity_id=LocalPlayer, tag_num=0x16)
 36: 0x0111 [0x1C] WAIT(40* ticks)
 37: 0x0114 [0x52] END_LOAD_SCHEDULER: End scheduler "s091" with entities [EventEntity, EventEntity], work=399*
 38: 0x0123 [0x45] LOAD_SCHEDULED_TASK: Load scheduler "s092" with entities [EventEntity, EventEntity], work=[399*, 0*]
 39: 0x0134 [0x03] Work_Zone[2] = 1081*
 40: 0x0139 [0x2B] Unnamed NPC (ID: 17142568/0x01059328) [8128*]:
    → "3!? Are you really, really, really looking for $3?"
 41: 0x0140 [0x23] WAIT_FOR_DIALOG_INTERACTION
 42: 0x0141 [0x52] END_LOAD_SCHEDULER: End scheduler "s092" with entities [EventEntity, EventEntity], work=399*
 43: 0x0150 [0x45] LOAD_SCHEDULED_TASK: Load scheduler "s093" with entities [EventEntity, EventEntity], work=[399*, 0*]
 44: 0x0161 [0x4B] UPDATE_ENTITY_YAW(entity=Unnamed NPC (ID: 17142568/0x01059328), yaw=16.6°*)
 45: 0x0168 [0x1C] WAIT(15* ticks)
 46: 0x016B [0x4E] SET_ENTITY_HIDE_FLAG: Show Unnamed NPC (ID: 17142565/0x01059325)
 47: 0x0171 [0x4E] SET_ENTITY_HIDE_FLAG: Show Unnamed NPC (ID: 17142566/0x01059326)
 48: 0x0177 [0x4E] SET_ENTITY_HIDE_FLAG: Show Unnamed NPC (ID: 17142567/0x01059327)
 49: 0x017D [0x2B] Unnamed NPC (ID: 17142568/0x01059328) [8129*]:
    → "Did you hear that, girls? Come quickly! This one might be the promised one!"
 50: 0x0184 [0x23] WAIT_FOR_DIALOG_INTERACTION
 51: 0x0185 [0x80] LOAD_WAIT(entity=Unnamed NPC (ID: 17142565/0x01059325))
 52: 0x018A [0x80] LOAD_WAIT(entity=Unnamed NPC (ID: 17142566/0x01059326))
 53: 0x018F [0x80] LOAD_WAIT(entity=Unnamed NPC (ID: 17142567/0x01059327))
 54: 0x0194 [0x27] REQ_SET(priority=0x05, entity_id=Unnamed NPC (ID: 17142565/0x01059325), tag_num=0x07)
 55: 0x019B [0x1C] WAIT(5* ticks)
 56: 0x019E [0x27] REQ_SET(priority=0x05, entity_id=Unnamed NPC (ID: 17142566/0x01059326), tag_num=0x07)
 57: 0x01A5 [0x1C] WAIT(5* ticks)
 58: 0x01A8 [0x27] REQ_SET(priority=0x05, entity_id=Unnamed NPC (ID: 17142567/0x01059327), tag_num=0x07)
 59: 0x01AF [0x1C] WAIT(15* ticks)
 60: 0x01B2 [0x52] END_LOAD_SCHEDULER: End scheduler "s093" with entities [EventEntity, EventEntity], work=399*
 61: 0x01C1 [0x45] LOAD_SCHEDULED_TASK: Load scheduler "s094" with entities [EventEntity, EventEntity], work=[399*, 0*]
 62: 0x01D2 [0x2A] GET_REQ_LEVEL(level=5, entity_id=Unnamed NPC (ID: 17142565/0x01059325))
 63: 0x01D8 [0x2A] GET_REQ_LEVEL(level=5, entity_id=Unnamed NPC (ID: 17142566/0x01059326))
 64: 0x01DE [0x2A] GET_REQ_LEVEL(level=5, entity_id=Unnamed NPC (ID: 17142567/0x01059327))
 65: 0x01E4 [0x1C] WAIT(60* ticks)
 66: 0x01E7 [0x52] END_LOAD_SCHEDULER: End scheduler "s094" with entities [EventEntity, EventEntity], work=399*
 67: 0x01F6 [0x45] LOAD_SCHEDULED_TASK: Load scheduler "s095" with entities [EventEntity, EventEntity], work=[399*, 0*]
 68: 0x0207 [0x1C] WAIT(60* ticks)
 69: 0x020A [0x2B] Unnamed NPC (ID: 17142568/0x01059328) [8130*]:
    → "(But...I know!...yeah?...really!...and so?)"
 70: 0x0211 [0x23] WAIT_FOR_DIALOG_INTERACTION
 71: 0x0212 [0x1C] WAIT(90* ticks)
 72: 0x0215 [0x52] END_LOAD_SCHEDULER: End scheduler "s095" with entities [EventEntity, EventEntity], work=399*
 73: 0x0224 [0x45] LOAD_SCHEDULED_TASK: Load scheduler "s096" with entities [EventEntity, EventEntity], work=[399*, 0*]
 74: 0x0235 [0x4A] Unnamed NPC (ID: 17142568/0x01059328) looks at LocalPlayer
 75: 0x023E [0x1C] WAIT(15* ticks)
 76: 0x0241 [0x4A] Unnamed NPC (ID: 17142565/0x01059325) looks at LocalPlayer
 77: 0x024A [0x1C] WAIT(10* ticks)
 78: 0x024D [0x4A] Unnamed NPC (ID: 17142566/0x01059326) looks at LocalPlayer
 79: 0x0256 [0x1C] WAIT(5* ticks)
 80: 0x0259 [0x4A] Unnamed NPC (ID: 17142567/0x01059327) looks at LocalPlayer
 81: 0x0262 [0x2B] Unnamed NPC (ID: 17142568/0x01059328) [8131*]:
    → "I'm sorry, my dear... Really, awfully, terribly sorry! You just came so suddenly, so swiftly, so abruptly that I had to consult with my sisters."
 82: 0x0269 [0x23] WAIT_FOR_DIALOG_INTERACTION
 83: 0x026A [0x52] END_LOAD_SCHEDULER: End scheduler "s096" with entities [EventEntity, EventEntity], work=399*
 84: 0x0279 [0x45] LOAD_SCHEDULED_TASK: Load scheduler "s097" with entities [EventEntity, EventEntity], work=[399*, 0*]
 85: 0x028A [0x2B] Unnamed NPC (ID: 17142568/0x01059328) [8132*]:
    → "We simply must be sure that you really, truly, actually are who you say. This legend of ours has been passed down for centuries, millennia, eons after all. One can't be too careful!"
 86: 0x0291 [0x23] WAIT_FOR_DIALOG_INTERACTION
 87: 0x0292 [0x52] END_LOAD_SCHEDULER: End scheduler "s097" with entities [EventEntity, EventEntity], work=399*
 88: 0x02A1 [0x45] LOAD_SCHEDULED_TASK: Load scheduler "s098" with entities [EventEntity, EventEntity], work=[399*, 0*]
 89: 0x02B2 [0x4A] Unnamed NPC (ID: 17142565/0x01059325) looks at Unnamed NPC (ID: 17142566/0x01059326)
 90: 0x02BB [0x1C] WAIT(30* ticks)
 91: 0x02BE [0x4A] Unnamed NPC (ID: 17142566/0x01059326) looks at Unnamed NPC (ID: 17142567/0x01059327)
 92: 0x02C7 [0x1C] WAIT(90* ticks)
 93: 0x02CA [0x52] END_LOAD_SCHEDULER: End scheduler "s098" with entities [EventEntity, EventEntity], work=399*
 94: 0x02D9 [0x45] LOAD_SCHEDULED_TASK: Load scheduler "s099" with entities [EventEntity, EventEntity], work=[399*, 0*]
 95: 0x02EA [0x4A] Unnamed NPC (ID: 17142565/0x01059325) looks at LocalPlayer
 96: 0x02F3 [0x4A] Unnamed NPC (ID: 17142566/0x01059326) looks at LocalPlayer
 97: 0x02FC [0x2B] Unnamed NPC (ID: 17142568/0x01059328) [8133*]:
    → ""Under a dark star, in the blackest of nights, [he/she] will come... the light in [his/her] hand banishing the darkness.""
 98: 0x0303 [0x23] WAIT_FOR_DIALOG_INTERACTION
 99: 0x0304 [0x1C] WAIT(30* ticks)
100: 0x0307 [0x52] END_LOAD_SCHEDULER: End scheduler "s099" with entities [EventEntity, EventEntity], work=399*
101: 0x0316 [0x45] LOAD_SCHEDULED_TASK: Load scheduler "s100" with entities [EventEntity, EventEntity], work=[399*, 0*]
102: 0x0327 [0x2B] Unnamed NPC (ID: 17142568/0x01059328) [8134*]:
    → "That's how the prophecy goes, you know, and well...the girls are saying that you just don't fit the part."
103: 0x032E [0x23] WAIT_FOR_DIALOG_INTERACTION
104: 0x032F [0x52] END_LOAD_SCHEDULER: End scheduler "s100" with entities [EventEntity, EventEntity], work=399*
105: 0x033E [0x45] LOAD_SCHEDULED_TASK: Load scheduler "s101" with entities [EventEntity, EventEntity], work=[399*, 0*]
106: 0x034F [0x4A] Unnamed NPC (ID: 17142566/0x01059326) looks at Unnamed NPC (ID: 17142567/0x01059327)
107: 0x0358 [0x1C] WAIT(30* ticks)
108: 0x035B [0x4A] Unnamed NPC (ID: 17142567/0x01059327) looks at Unnamed NPC (ID: 17142568/0x01059328)
109: 0x0364 [0x1C] WAIT(30* ticks)
110: 0x0367 [0x4A] Unnamed NPC (ID: 17142565/0x01059325) looks at Unnamed NPC (ID: 17142567/0x01059327)
111: 0x0370 [0x1C] WAIT(60* ticks)
112: 0x0373 [0x52] END_LOAD_SCHEDULER: End scheduler "s101" with entities [EventEntity, EventEntity], work=399*
113: 0x0382 [0x45] LOAD_SCHEDULED_TASK: Load scheduler "s102" with entities [EventEntity, EventEntity], work=[399*, 0*]
114: 0x0393 [0x4A] Unnamed NPC (ID: 17142565/0x01059325) looks at LocalPlayer
115: 0x039C [0x1C] WAIT(15* ticks)
116: 0x039F [0x4A] Unnamed NPC (ID: 17142566/0x01059326) looks at LocalPlayer
117: 0x03A8 [0x1C] WAIT(5* ticks)
118: 0x03AB [0x4A] Unnamed NPC (ID: 17142567/0x01059327) looks at LocalPlayer
119: 0x03B4 [0x2B] Unnamed NPC (ID: 17142568/0x01059328) [8135*]:
    → "I'm really, truly, ever so sorry!"
120: 0x03BB [0x23] WAIT_FOR_DIALOG_INTERACTION
121: 0x03BC [0x5D] SET_MUSIC_VOLUME(volume=0*, fade_time=180*)
122: 0x03C1 [0x45] LOAD_SCHEDULED_TASK: Load scheduler "fdo1" with entities [EventEntity, EventEntity], work=[200*, 0*]
123: 0x03D2 [0x55] WAIT_LOAD_SCHEDULER: Wait for scheduler "fdo1" with entities [EventEntity, EventEntity], work=200*
124: 0x03E1 [0x52] END_LOAD_SCHEDULER: End scheduler "s102" with entities [EventEntity, EventEntity], work=399*
125: 0x03F0 [0x27] REQ_SET(priority=0x05, entity_id=Unnamed NPC (ID: 17142568/0x01059328), tag_num=0x08)
126: 0x03F7 [0x46] CAMERA_CONTROL: Restore default settings
127: 0x03F9 [0x45] LOAD_SCHEDULED_TASK: Load scheduler "fdi2" with entities [LocalPlayer, LocalPlayer], work=[200*, 0*]
128: 0x040A [0x21] END_EVENT
129: 0x040B [0x00] END_REQSTACK()
```

### Event 21

#### Metadata

| Field        | Value      |
|--------------|------------|
| Entrypoint   | 0x040C     |
| Data Size    | 1085 bytes |
| Instructions | 135        |

```
      00 01 02 03 04 05 06 07  08 09 0A 0B 0C 0D 0E 0F
      -- -- -- -- -- -- -- --  -- -- -- -- -- -- -- --
0400:                                      42 5D 00 80              B]..
0410: 01 80 45 02 80 F8 FF FF  7F F8 FF FF 7F 66 64 6F  ..E..........fdo
0420: 31 00 80 55 02 80 F8 FF  FF 7F F8 FF FF 7F 66 64  1..U..........fd
0430: 6F 31 46 01 38 03 80 2F  00 28 93 05 01 2F 00 25  o1F.8../.(.../.%
0440: 93 05 01 2F 00 26 93 05  01 2F 00 27 93 05 01 4E  .../.&.../.'...N
0450: 00 28 93 05 01 4E 00 29  93 05 01 BA F0 FF FF 7F  .(...N.)........
0460: 04 80 05 80 06 80 07 80  BA 28 93 05 01 2D 80 2E  .........(...-..
0470: 80 2F 80 30 80 BA 25 93  05 01 0C 80 0D 80 0E 80  ./.0..%.........
0480: 0F 80 BA 26 93 05 01 10  80 11 80 12 80 13 80 BA  ...&............
0490: 27 93 05 01 14 80 15 80  16 80 17 80 59 05 29 93  '...........Y.).
04A0: 05 01 01 BA 29 93 05 01  31 80 32 80 33 80 34 80  ....)...1.2.3.4.
04B0: 80 F0 FF FF 7F 80 28 93  05 01 80 29 93 05 01 4A  ......(....)...J
04C0: F0 FF FF 7F 28 93 05 01  4A 28 93 05 01 F0 FF FF  ....(...J(......
04D0: 7F 1C 18 80 5C 00 35 80  5C 01 35 80 9A 45 1B 80  ....\.5.\.5..E..
04E0: F8 FF FF 7F F8 FF FF 7F  73 31 30 34 00 80 1C 1C  ........s104....
04F0: 80 45 02 80 F8 FF FF 7F  F8 FF FF 7F 66 64 69 31  .E..........fdi1
0500: 00 80 55 02 80 F8 FF FF  7F F8 FF FF 7F 66 64 69  ..U..........fdi
0510: 31 6E F0 FF FF 7F 00 80  99 F0 FF FF 7F 1C 36 80  1n............6.
0520: 52 1B 80 F8 FF FF 7F F8  FF FF 7F 73 31 30 34 45  R..........s104E
0530: 1B 80 F8 FF FF 7F F8 FF  FF 7F 73 31 30 35 00 80  ..........s105..
0540: 2B 28 93 05 01 37 80 23  03 02 10 38 80 2B 28 93  +(...7.#...8.+(.
0550: 05 01 39 80 23 52 1B 80  F8 FF FF 7F F8 FF FF 7F  ..9.#R..........
0560: 73 31 30 35 45 1B 80 F8  FF FF 7F F8 FF FF 7F 73  s105E..........s
0570: 30 39 33 00 80 4B 28 93  05 01 22 80 1C 1C 80 4E  093..K(..."....N
0580: 00 25 93 05 01 4E 00 26  93 05 01 4E 00 27 93 05  .%...N.&...N.'..
0590: 01 2B 28 93 05 01 23 80  23 80 25 93 05 01 80 26  .+(...#.#.%....&
05A0: 93 05 01 80 27 93 05 01  27 05 25 93 05 01 07 1C  ....'...'.%.....
05B0: 24 80 27 05 26 93 05 01  07 1C 24 80 27 05 27 93  $.'.&.....$.'.'.
05C0: 05 01 07 1C 1C 80 52 1B  80 F8 FF FF 7F F8 FF FF  ......R.........
05D0: 7F 73 30 39 33 45 1B 80  F8 FF FF 7F F8 FF FF 7F  .s093E..........
05E0: 73 30 39 34 00 80 2A 05  25 93 05 01 2A 05 26 93  s094..*.%...*.&.
05F0: 05 01 2A 05 27 93 05 01  1C 1A 80 52 1B 80 F8 FF  ..*.'......R....
0600: FF 7F F8 FF FF 7F 73 30  39 34 45 1B 80 F8 FF FF  ......s094E.....
0610: 7F F8 FF FF 7F 73 30 39  35 00 80 1C 1A 80 2B 28  .....s095.....+(
0620: 93 05 01 3A 80 23 1C 26  80 52 1B 80 F8 FF FF 7F  ...:.#.&.R......
0630: F8 FF FF 7F 73 30 39 35  45 1B 80 F8 FF FF 7F F8  ....s095E.......
0640: FF FF 7F 73 30 39 36 00  80 4A 28 93 05 01 F0 FF  ...s096..J(.....
0650: FF 7F 1C 1C 80 4A 25 93  05 01 F0 FF FF 7F 1C 27  .....J%........'
0660: 80 4A 26 93 05 01 F0 FF  FF 7F 1C 24 80 4A 27 93  .J&........$.J'.
0670: 05 01 F0 FF FF 7F 2B 28  93 05 01 3B 80 23 2B 28  ......+(...;.#+(
0680: 93 05 01 3C 80 23 52 1B  80 F8 FF FF 7F F8 FF FF  ...<.#R.........
0690: 7F 73 30 39 36 45 1B 80  F8 FF FF 7F F8 FF FF 7F  .s096E..........
06A0: 73 30 39 38 00 80 4A 25  93 05 01 26 93 05 01 1C  s098..J%...&....
06B0: 18 80 4A 26 93 05 01 27  93 05 01 1C 26 80 52 1B  ..J&...'....&.R.
06C0: 80 F8 FF FF 7F F8 FF FF  7F 73 30 39 38 45 1B 80  .........s098E..
06D0: F8 FF FF 7F F8 FF FF 7F  73 30 39 37 00 80 4A 25  ........s097..J%
06E0: 93 05 01 F0 FF FF 7F 4A  26 93 05 01 F0 FF FF 7F  .......J&.......
06F0: 2B 28 93 05 01 3D 80 23  52 1B 80 F8 FF FF 7F F8  +(...=.#R.......
0700: FF FF 7F 73 30 39 37 45  1B 80 F8 FF FF 7F F8 FF  ...s097E........
0710: FF 7F 73 30 39 39 00 80  2B 28 93 05 01 3E 80 23  ..s099..+(...>.#
0720: 2B 28 93 05 01 3F 80 23  52 1B 80 F8 FF FF 7F F8  +(...?.#R.......
0730: FF FF 7F 73 30 39 39 45  1B 80 F8 FF FF 7F F8 FF  ...s099E........
0740: FF 7F 73 31 30 36 00 80  27 05 28 93 05 01 07 27  ..s106..'.(....'
0750: 05 29 93 05 01 02 2B 28  93 05 01 40 80 23 53 28  .)....+(...@.#S(
0760: 93 05 01 28 93 05 01 70  61 73 30 5B 41 80 28 93  ...(...pas0[A.(.
0770: 05 01 28 93 05 01 70 61  73 31 C5 42 80 29 93 05  ..(...pas1.B.)..
0780: 01 29 93 05 01 73 30 30  31 00 80 45 1B 80 F8 FF  .)...s001..E....
0790: FF 7F F8 FF FF 7F 70 69  6B 31 00 80 53 28 93 05  ......pik1..S(..
07A0: 01 28 93 05 01 70 61 73  31 52 1B 80 F8 FF FF 7F  .(...pas1R......
07B0: F8 FF FF 7F 73 31 30 36  45 1B 80 F8 FF FF 7F F8  ....s106E.......
07C0: FF FF 7F 73 31 30 37 00  80 27 05 28 93 05 01 06  ...s107..'.(....
07D0: 1C 24 80 27 05 25 93 05  01 09 1C 27 80 27 05 26  .$.'.%.....'.'.&
07E0: 93 05 01 09 1C 1C 80 27  05 27 93 05 01 09 1C 18  .......'.'......
07F0: 80 2B 28 93 05 01 43 80  23 5D 00 80 01 80 45 02  .+(...C.#]....E.
0800: 80 F8 FF FF 7F F8 FF FF  7F 66 64 6F 31 00 80 55  .........fdo1..U
0810: 02 80 F8 FF FF 7F F8 FF  FF 7F 66 64 6F 31 52 1B  ..........fdo1R.
0820: 80 F8 FF FF 7F F8 FF FF  7F 73 31 30 37 27 05 28  .........s107'.(
0830: 93 05 01 08 46 00 45 02  80 F0 FF FF 7F F0 FF FF  ....F.E.........
0840: 7F 66 64 69 32 00 80 21  00                       .fdi2..!.       
```

#### Opcodes

```
  0: 0x040C [0x42] SET_CLI_EVENT_CANCEL_DATA()
  1: 0x040D [0x5D] SET_MUSIC_VOLUME(volume=0*, fade_time=180*)
  2: 0x0412 [0x45] LOAD_SCHEDULED_TASK: Load scheduler "fdo1" with entities [EventEntity, EventEntity], work=[200*, 0*]
  3: 0x0423 [0x55] WAIT_LOAD_SCHEDULER: Wait for scheduler "fdo1" with entities [EventEntity, EventEntity], work=200*
  4: 0x0432 [0x46] CAMERA_CONTROL: Disable user control
  5: 0x0434 [0x38] SET_CLIENT_EVENT_MODE(mode=19*)
  6: 0x0437 [0x2F] Unnamed NPC (ID: 17142568/0x01059328)->Render.Flags0 &= ~0x80000 // Bit 19
  7: 0x043D [0x2F] Unnamed NPC (ID: 17142565/0x01059325)->Render.Flags0 &= ~0x80000 // Bit 19
  8: 0x0443 [0x2F] Unnamed NPC (ID: 17142566/0x01059326)->Render.Flags0 &= ~0x80000 // Bit 19
  9: 0x0449 [0x2F] Unnamed NPC (ID: 17142567/0x01059327)->Render.Flags0 &= ~0x80000 // Bit 19
 10: 0x044F [0x4E] SET_ENTITY_HIDE_FLAG: Show Unnamed NPC (ID: 17142568/0x01059328)
 11: 0x0455 [0x4E] SET_ENTITY_HIDE_FLAG: Show Fey Blossoms (ID: 17142569/0x01059329)
 12: 0x045B [0xBA] SET_ENTITY_POSITION(entity_id=LocalPlayer, pos_x=-139.266*, pos_z=561.554*, pos_y=-7.053*, direction=276.5°*)
 13: 0x0468 [0xBA] SET_ENTITY_POSITION(entity_id=Unnamed NPC (ID: 17142568/0x01059328), pos_x=-138.876*, pos_z=564.534*, pos_y=-6.875*, direction=85.2°*)
 14: 0x0475 [0xBA] SET_ENTITY_POSITION(entity_id=Unnamed NPC (ID: 17142565/0x01059325), pos_x=-146.355*, pos_z=572.504*, pos_y=-7.164*, direction=41.2°*)
 15: 0x0482 [0xBA] SET_ENTITY_POSITION(entity_id=Unnamed NPC (ID: 17142566/0x01059326), pos_x=-136.338*, pos_z=572.688*, pos_y=-7.237*, direction=112.4°*)
 16: 0x048F [0xBA] SET_ENTITY_POSITION(entity_id=Unnamed NPC (ID: 17142567/0x01059327), pos_x=-146.927*, pos_z=567.323*, pos_y=-7.154*, direction=18.5°*)
 17: 0x049C [0x59] UPDATE_ENTITY_DATA: Fey Blossoms (ID: 17142569/0x01059329)->Render.Flags0 |= 0x200000
 18: 0x04A3 [0xBA] SET_ENTITY_POSITION(entity_id=Fey Blossoms (ID: 17142569/0x01059329), pos_x=-138.925*, pos_z=564.015*, pos_y=-7.711*, direction=277.5°*)
 19: 0x04B0 [0x80] LOAD_WAIT(entity=LocalPlayer)
 20: 0x04B5 [0x80] LOAD_WAIT(entity=Unnamed NPC (ID: 17142568/0x01059328))
 21: 0x04BA [0x80] LOAD_WAIT(entity=Fey Blossoms (ID: 17142569/0x01059329))
 22: 0x04BF [0x4A] LocalPlayer looks at Unnamed NPC (ID: 17142568/0x01059328)
 23: 0x04C8 [0x4A] Unnamed NPC (ID: 17142568/0x01059328) looks at LocalPlayer
 24: 0x04D1 [0x1C] WAIT(30* ticks)
 25: 0x04D4 [0x5C] MUSIC_CONTROL: Set Idle (Day) music to song 251*
 26: 0x04D8 [0x5C] MUSIC_CONTROL: Set Idle (Night) music to song 251*
 27: 0x04DC [0x9A] WAIT_MUSIC_SERVER()
 28: 0x04DD [0x45] LOAD_SCHEDULED_TASK: Load scheduler "s104" with entities [EventEntity, EventEntity], work=[399*, 0*]
 29: 0x04EE [0x1C] WAIT(15* ticks)
 30: 0x04F1 [0x45] LOAD_SCHEDULED_TASK: Load scheduler "fdi1" with entities [EventEntity, EventEntity], work=[200*, 0*]
 31: 0x0502 [0x55] WAIT_LOAD_SCHEDULER: Wait for scheduler "fdi1" with entities [EventEntity, EventEntity], work=200*
 32: 0x0511 [0x6E] LocalPlayer uses emote 0*
 33: 0x0518 [0x99] Wait for LocalPlayer animation to complete
 34: 0x051D [0x1C] WAIT(120* ticks)
 35: 0x0520 [0x52] END_LOAD_SCHEDULER: End scheduler "s104" with entities [EventEntity, EventEntity], work=399*
 36: 0x052F [0x45] LOAD_SCHEDULED_TASK: Load scheduler "s105" with entities [EventEntity, EventEntity], work=[399*, 0*]
 37: 0x0540 [0x2B] Unnamed NPC (ID: 17142568/0x01059328) [8140*]:
    → "Oh! It's the mortal again! And [he's/she's] brought...could it be? Could it really, truly, actually be?"
 38: 0x0547 [0x23] WAIT_FOR_DIALOG_INTERACTION
 39: 0x0548 [0x03] Work_Zone[2] = 2525*
 40: 0x054D [0x2B] Unnamed NPC (ID: 17142568/0x01059328) [8141*]:
    → "$0!"
 41: 0x0554 [0x23] WAIT_FOR_DIALOG_INTERACTION
 42: 0x0555 [0x52] END_LOAD_SCHEDULER: End scheduler "s105" with entities [EventEntity, EventEntity], work=399*
 43: 0x0564 [0x45] LOAD_SCHEDULED_TASK: Load scheduler "s093" with entities [EventEntity, EventEntity], work=[399*, 0*]
 44: 0x0575 [0x4B] UPDATE_ENTITY_YAW(entity=Unnamed NPC (ID: 17142568/0x01059328), yaw=16.6°*)
 45: 0x057C [0x1C] WAIT(15* ticks)
 46: 0x057F [0x4E] SET_ENTITY_HIDE_FLAG: Show Unnamed NPC (ID: 17142565/0x01059325)
 47: 0x0585 [0x4E] SET_ENTITY_HIDE_FLAG: Show Unnamed NPC (ID: 17142566/0x01059326)
 48: 0x058B [0x4E] SET_ENTITY_HIDE_FLAG: Show Unnamed NPC (ID: 17142567/0x01059327)
 49: 0x0591 [0x2B] Unnamed NPC (ID: 17142568/0x01059328) [8129*]:
    → "Did you hear that, girls? Come quickly! This one might be the promised one!"
 50: 0x0598 [0x23] WAIT_FOR_DIALOG_INTERACTION
 51: 0x0599 [0x80] LOAD_WAIT(entity=Unnamed NPC (ID: 17142565/0x01059325))
 52: 0x059E [0x80] LOAD_WAIT(entity=Unnamed NPC (ID: 17142566/0x01059326))
 53: 0x05A3 [0x80] LOAD_WAIT(entity=Unnamed NPC (ID: 17142567/0x01059327))
 54: 0x05A8 [0x27] REQ_SET(priority=0x05, entity_id=Unnamed NPC (ID: 17142565/0x01059325), tag_num=0x07)
 55: 0x05AF [0x1C] WAIT(5* ticks)
 56: 0x05B2 [0x27] REQ_SET(priority=0x05, entity_id=Unnamed NPC (ID: 17142566/0x01059326), tag_num=0x07)
 57: 0x05B9 [0x1C] WAIT(5* ticks)
 58: 0x05BC [0x27] REQ_SET(priority=0x05, entity_id=Unnamed NPC (ID: 17142567/0x01059327), tag_num=0x07)
 59: 0x05C3 [0x1C] WAIT(15* ticks)
 60: 0x05C6 [0x52] END_LOAD_SCHEDULER: End scheduler "s093" with entities [EventEntity, EventEntity], work=399*
 61: 0x05D5 [0x45] LOAD_SCHEDULED_TASK: Load scheduler "s094" with entities [EventEntity, EventEntity], work=[399*, 0*]
 62: 0x05E6 [0x2A] GET_REQ_LEVEL(level=5, entity_id=Unnamed NPC (ID: 17142565/0x01059325))
 63: 0x05EC [0x2A] GET_REQ_LEVEL(level=5, entity_id=Unnamed NPC (ID: 17142566/0x01059326))
 64: 0x05F2 [0x2A] GET_REQ_LEVEL(level=5, entity_id=Unnamed NPC (ID: 17142567/0x01059327))
 65: 0x05F8 [0x1C] WAIT(60* ticks)
 66: 0x05FB [0x52] END_LOAD_SCHEDULER: End scheduler "s094" with entities [EventEntity, EventEntity], work=399*
 67: 0x060A [0x45] LOAD_SCHEDULED_TASK: Load scheduler "s095" with entities [EventEntity, EventEntity], work=[399*, 0*]
 68: 0x061B [0x1C] WAIT(60* ticks)
 69: 0x061E [0x2B] Unnamed NPC (ID: 17142568/0x01059328) [8143*]:
    → "(You see?...Yeah!...I mean...I told you!)"
 70: 0x0625 [0x23] WAIT_FOR_DIALOG_INTERACTION
 71: 0x0626 [0x1C] WAIT(90* ticks)
 72: 0x0629 [0x52] END_LOAD_SCHEDULER: End scheduler "s095" with entities [EventEntity, EventEntity], work=399*
 73: 0x0638 [0x45] LOAD_SCHEDULED_TASK: Load scheduler "s096" with entities [EventEntity, EventEntity], work=[399*, 0*]
 74: 0x0649 [0x4A] Unnamed NPC (ID: 17142568/0x01059328) looks at LocalPlayer
 75: 0x0652 [0x1C] WAIT(15* ticks)
 76: 0x0655 [0x4A] Unnamed NPC (ID: 17142565/0x01059325) looks at LocalPlayer
 77: 0x065E [0x1C] WAIT(10* ticks)
 78: 0x0661 [0x4A] Unnamed NPC (ID: 17142566/0x01059326) looks at LocalPlayer
 79: 0x066A [0x1C] WAIT(5* ticks)
 80: 0x066D [0x4A] Unnamed NPC (ID: 17142567/0x01059327) looks at LocalPlayer
 81: 0x0676 [0x2B] Unnamed NPC (ID: 17142568/0x01059328) [8144*]:
    → "Pardon me! The girls and I were so surprised. Shocked, startled even!"
 82: 0x067D [0x23] WAIT_FOR_DIALOG_INTERACTION
 83: 0x067E [0x2B] Unnamed NPC (ID: 17142568/0x01059328) [8145*]:
    → "We figured the legend was just...a myth? A fantasy? What you mortals might call a faerie tale? To think the "promised one" has actually come!"
 84: 0x0685 [0x23] WAIT_FOR_DIALOG_INTERACTION
 85: 0x0686 [0x52] END_LOAD_SCHEDULER: End scheduler "s096" with entities [EventEntity, EventEntity], work=399*
 86: 0x0695 [0x45] LOAD_SCHEDULED_TASK: Load scheduler "s098" with entities [EventEntity, EventEntity], work=[399*, 0*]
 87: 0x06A6 [0x4A] Unnamed NPC (ID: 17142565/0x01059325) looks at Unnamed NPC (ID: 17142566/0x01059326)
 88: 0x06AF [0x1C] WAIT(30* ticks)
 89: 0x06B2 [0x4A] Unnamed NPC (ID: 17142566/0x01059326) looks at Unnamed NPC (ID: 17142567/0x01059327)
 90: 0x06BB [0x1C] WAIT(90* ticks)
 91: 0x06BE [0x52] END_LOAD_SCHEDULER: End scheduler "s098" with entities [EventEntity, EventEntity], work=399*
 92: 0x06CD [0x45] LOAD_SCHEDULED_TASK: Load scheduler "s097" with entities [EventEntity, EventEntity], work=[399*, 0*]
 93: 0x06DE [0x4A] Unnamed NPC (ID: 17142565/0x01059325) looks at LocalPlayer
 94: 0x06E7 [0x4A] Unnamed NPC (ID: 17142566/0x01059326) looks at LocalPlayer
 95: 0x06F0 [0x2B] Unnamed NPC (ID: 17142568/0x01059328) [8146*]:
    → "This has been passed down from our mothers, grandmothers, and great-grandmothers, many many many eons ago."
 96: 0x06F7 [0x23] WAIT_FOR_DIALOG_INTERACTION
 97: 0x06F8 [0x52] END_LOAD_SCHEDULER: End scheduler "s097" with entities [EventEntity, EventEntity], work=399*
 98: 0x0707 [0x45] LOAD_SCHEDULED_TASK: Load scheduler "s099" with entities [EventEntity, EventEntity], work=[399*, 0*]
 99: 0x0718 [0x2B] Unnamed NPC (ID: 17142568/0x01059328) [8147*]:
    → ""Someday, when the world has begun to slide into chaos, a mortal will come to claim this.""
100: 0x071F [0x23] WAIT_FOR_DIALOG_INTERACTION
101: 0x0720 [0x2B] Unnamed NPC (ID: 17142568/0x01059328) [8148*]:
    → ""Until that day, keep it safe, and keep it sound." So I was told."
102: 0x0727 [0x23] WAIT_FOR_DIALOG_INTERACTION
103: 0x0728 [0x52] END_LOAD_SCHEDULER: End scheduler "s099" with entities [EventEntity, EventEntity], work=399*
104: 0x0737 [0x45] LOAD_SCHEDULED_TASK: Load scheduler "s106" with entities [EventEntity, EventEntity], work=[399*, 0*]
105: 0x0748 [0x27] REQ_SET(priority=0x05, entity_id=Unnamed NPC (ID: 17142568/0x01059328), tag_num=0x07)
106: 0x074F [0x27] REQ_SET(priority=0x05, entity_id=Fey Blossoms (ID: 17142569/0x01059329), tag_num=0x02)
107: 0x0756 [0x2B] Unnamed NPC (ID: 17142568/0x01059328) [8149*]:
    → "Take it. I have no doubts, no worries. Really, truly, certainly you are the one of which my ancestors spoke."
108: 0x075D [0x23] WAIT_FOR_DIALOG_INTERACTION
109: 0x075E [0x53] WAIT_SCHEDULER_TASK: Wait for scheduler "pas0" with entities [Unnamed NPC (ID: 17142568/0x01059328), Unnamed NPC (ID: 17142568/0x01059328)]
110: 0x076B [0x5B] LOAD_EXT_SCHEDULER: Load scheduler "pas1" with entities [Unnamed NPC (ID: 17142568/0x01059328), Unnamed NPC (ID: 17142568/0x01059328)], work=2164*
111: 0x077A [0xC5] LOAD_SCHEDULED_TASK_ALT3: Load scheduler 0x80003130 for entities [Fey Blossoms (ID: 17142569/0x01059329), Fey Blossoms (ID: 17142569/0x01059329)], work=118*, param=12403
112: 0x078B [0x45] LOAD_SCHEDULED_TASK: Load scheduler "pik1" with entities [EventEntity, EventEntity], work=[399*, 0*]
113: 0x079C [0x53] WAIT_SCHEDULER_TASK: Wait for scheduler "pas1" with entities [Unnamed NPC (ID: 17142568/0x01059328), Unnamed NPC (ID: 17142568/0x01059328)]
114: 0x07A9 [0x52] END_LOAD_SCHEDULER: End scheduler "s106" with entities [EventEntity, EventEntity], work=399*
115: 0x07B8 [0x45] LOAD_SCHEDULED_TASK: Load scheduler "s107" with entities [EventEntity, EventEntity], work=[399*, 0*]
116: 0x07C9 [0x27] REQ_SET(priority=0x05, entity_id=Unnamed NPC (ID: 17142568/0x01059328), tag_num=0x06)
117: 0x07D0 [0x1C] WAIT(5* ticks)
118: 0x07D3 [0x27] REQ_SET(priority=0x05, entity_id=Unnamed NPC (ID: 17142565/0x01059325), tag_num=0x09)
119: 0x07DA [0x1C] WAIT(10* ticks)
120: 0x07DD [0x27] REQ_SET(priority=0x05, entity_id=Unnamed NPC (ID: 17142566/0x01059326), tag_num=0x09)
121: 0x07E4 [0x1C] WAIT(15* ticks)
122: 0x07E7 [0x27] REQ_SET(priority=0x05, entity_id=Unnamed NPC (ID: 17142567/0x01059327), tag_num=0x09)
123: 0x07EE [0x1C] WAIT(30* ticks)
124: 0x07F1 [0x2B] Unnamed NPC (ID: 17142568/0x01059328) [8150*]:
    → "Go with our blessing. And may our ancient bond of friendship now serve the power of good..."
125: 0x07F8 [0x23] WAIT_FOR_DIALOG_INTERACTION
126: 0x07F9 [0x5D] SET_MUSIC_VOLUME(volume=0*, fade_time=180*)
127: 0x07FE [0x45] LOAD_SCHEDULED_TASK: Load scheduler "fdo1" with entities [EventEntity, EventEntity], work=[200*, 0*]
128: 0x080F [0x55] WAIT_LOAD_SCHEDULER: Wait for scheduler "fdo1" with entities [EventEntity, EventEntity], work=200*
129: 0x081E [0x52] END_LOAD_SCHEDULER: End scheduler "s107" with entities [EventEntity, EventEntity], work=399*
130: 0x082D [0x27] REQ_SET(priority=0x05, entity_id=Unnamed NPC (ID: 17142568/0x01059328), tag_num=0x08)
131: 0x0834 [0x46] CAMERA_CONTROL: Restore default settings
132: 0x0836 [0x45] LOAD_SCHEDULED_TASK: Load scheduler "fdi2" with entities [LocalPlayer, LocalPlayer], work=[200*, 0*]
133: 0x0847 [0x21] END_EVENT
134: 0x0848 [0x00] END_REQSTACK()
```

### Event 20

#### Metadata

| Field        | Value     |
|--------------|-----------|
| Entrypoint   | 0x0849    |
| Data Size    | 373 bytes |
| Instructions | 42        |

```
      00 01 02 03 04 05 06 07  08 09 0A 0B 0C 0D 0E 0F
      -- -- -- -- -- -- -- --  -- -- -- -- -- -- -- --
0840:                             42 45 02 80 F8 FF FF           BE.....
0850: 7F F8 FF FF 7F 66 64 6F  31 00 80 55 02 80 F8 FF  .....fdo1..U....
0860: FF 7F F8 FF FF 7F 66 64  6F 31 46 01 38 03 80 2F  ......fdo1F.8../
0870: 00 28 93 05 01 4E 00 28  93 05 01 BA F0 FF FF 7F  .(...N.(........
0880: 04 80 05 80 06 80 07 80  BA 28 93 05 01 2D 80 2E  .........(...-..
0890: 80 2F 80 30 80 80 F0 FF  FF 7F 80 28 93 05 01 94  ./.0.......(....
08A0: 01 F0 FF FF 7F 4A F0 FF  FF 7F 28 93 05 01 4A 28  .....J....(...J(
08B0: 93 05 01 F0 FF FF 7F 1C  18 80 45 1B 80 F8 FF FF  ..........E.....
08C0: 7F F8 FF FF 7F 73 30 39  39 00 80 1C 1C 80 45 02  .....s099.....E.
08D0: 80 F8 FF FF 7F F8 FF FF  7F 66 64 69 31 00 80 55  .........fdi1..U
08E0: 02 80 F8 FF FF 7F F8 FF  FF 7F 66 64 69 31 2B 28  ..........fdi1+(
08F0: 93 05 01 44 80 23 52 1B  80 F8 FF FF 7F F8 FF FF  ...D.#R.........
0900: 7F 73 30 39 39 45 1B 80  F8 FF FF 7F F8 FF FF 7F  .s099E..........
0910: 73 31 30 30 00 80 2B 28  93 05 01 45 80 23 52 1B  s100..+(...E.#R.
0920: 80 F8 FF FF 7F F8 FF FF  7F 73 31 30 30 45 1B 80  .........s100E..
0930: F8 FF FF 7F F8 FF FF 7F  73 31 30 33 00 80 2B 28  ........s103..+(
0940: 93 05 01 46 80 23 52 1B  80 F8 FF FF 7F F8 FF FF  ...F.#R.........
0950: 7F 73 31 30 33 45 1B 80  F8 FF FF 7F F8 FF FF 7F  .s103E..........
0960: 73 31 30 32 00 80 03 02  10 38 80 2B 28 93 05 01  s102.....8.+(...
0970: 47 80 23 45 02 80 F8 FF  FF 7F F8 FF FF 7F 66 64  G.#E..........fd
0980: 6F 31 00 80 55 02 80 F8  FF FF 7F F8 FF FF 7F 66  o1..U..........f
0990: 64 6F 31 52 1B 80 F8 FF  FF 7F F8 FF FF 7F 73 31  do1R..........s1
09A0: 30 32 27 05 28 93 05 01  08 46 00 45 02 80 F0 FF  02'.(....F.E....
09B0: FF 7F F0 FF FF 7F 66 64  69 32 00 80 21 00        ......fdi2..!.  
```

#### Opcodes

```
  0: 0x0849 [0x42] SET_CLI_EVENT_CANCEL_DATA()
  1: 0x084A [0x45] LOAD_SCHEDULED_TASK: Load scheduler "fdo1" with entities [EventEntity, EventEntity], work=[200*, 0*]
  2: 0x085B [0x55] WAIT_LOAD_SCHEDULER: Wait for scheduler "fdo1" with entities [EventEntity, EventEntity], work=200*
  3: 0x086A [0x46] CAMERA_CONTROL: Disable user control
  4: 0x086C [0x38] SET_CLIENT_EVENT_MODE(mode=19*)
  5: 0x086F [0x2F] Unnamed NPC (ID: 17142568/0x01059328)->Render.Flags0 &= ~0x80000 // Bit 19
  6: 0x0875 [0x4E] SET_ENTITY_HIDE_FLAG: Show Unnamed NPC (ID: 17142568/0x01059328)
  7: 0x087B [0xBA] SET_ENTITY_POSITION(entity_id=LocalPlayer, pos_x=-139.266*, pos_z=561.554*, pos_y=-7.053*, direction=276.5°*)
  8: 0x0888 [0xBA] SET_ENTITY_POSITION(entity_id=Unnamed NPC (ID: 17142568/0x01059328), pos_x=-138.876*, pos_z=564.534*, pos_y=-6.875*, direction=85.2°*)
  9: 0x0895 [0x80] LOAD_WAIT(entity=LocalPlayer)
 10: 0x089A [0x80] LOAD_WAIT(entity=Unnamed NPC (ID: 17142568/0x01059328))
 11: 0x089F [0x94] LocalPlayer->Render.Flags3 ^= 0x01
 12: 0x08A5 [0x4A] LocalPlayer looks at Unnamed NPC (ID: 17142568/0x01059328)
 13: 0x08AE [0x4A] Unnamed NPC (ID: 17142568/0x01059328) looks at LocalPlayer
 14: 0x08B7 [0x1C] WAIT(30* ticks)
 15: 0x08BA [0x45] LOAD_SCHEDULED_TASK: Load scheduler "s099" with entities [EventEntity, EventEntity], work=[399*, 0*]
 16: 0x08CB [0x1C] WAIT(15* ticks)
 17: 0x08CE [0x45] LOAD_SCHEDULED_TASK: Load scheduler "fdi1" with entities [EventEntity, EventEntity], work=[200*, 0*]
 18: 0x08DF [0x55] WAIT_LOAD_SCHEDULER: Wait for scheduler "fdi1" with entities [EventEntity, EventEntity], work=200*
 19: 0x08EE [0x2B] Unnamed NPC (ID: 17142568/0x01059328) [8136*]:
    → ""Under a dark star, in the blackest of nights, [he/she] will come... the light in [his/her] hand banishing the darkness.""
 20: 0x08F5 [0x23] WAIT_FOR_DIALOG_INTERACTION
 21: 0x08F6 [0x52] END_LOAD_SCHEDULER: End scheduler "s099" with entities [EventEntity, EventEntity], work=399*
 22: 0x0905 [0x45] LOAD_SCHEDULED_TASK: Load scheduler "s100" with entities [EventEntity, EventEntity], work=[399*, 0*]
 23: 0x0916 [0x2B] Unnamed NPC (ID: 17142568/0x01059328) [8137*]:
    → "That's how the prophecy goes, you know, and you just don't seem to fit the part. I'm really, truly, ever so sorry!"
 24: 0x091D [0x23] WAIT_FOR_DIALOG_INTERACTION
 25: 0x091E [0x52] END_LOAD_SCHEDULER: End scheduler "s100" with entities [EventEntity, EventEntity], work=399*
 26: 0x092D [0x45] LOAD_SCHEDULED_TASK: Load scheduler "s103" with entities [EventEntity, EventEntity], work=[399*, 0*]
 27: 0x093E [0x2B] Unnamed NPC (ID: 17142568/0x01059328) [8138*]:
    → "What kind of light, you ask?"
 28: 0x0945 [0x23] WAIT_FOR_DIALOG_INTERACTION
 29: 0x0946 [0x52] END_LOAD_SCHEDULER: End scheduler "s103" with entities [EventEntity, EventEntity], work=399*
 30: 0x0955 [0x45] LOAD_SCHEDULED_TASK: Load scheduler "s102" with entities [EventEntity, EventEntity], work=[399*, 0*]
 31: 0x0966 [0x03] Work_Zone[2] = 2525*
 32: 0x096B [0x2B] Unnamed NPC (ID: 17142568/0x01059328) [8139*]:
    → "Oh, anything would do, really, truly. I know! Nothing shines, nothing sparkles, nothing shimmers brighter than us. Yes, come back with $0, and that should do nicely!"
 33: 0x0972 [0x23] WAIT_FOR_DIALOG_INTERACTION
 34: 0x0973 [0x45] LOAD_SCHEDULED_TASK: Load scheduler "fdo1" with entities [EventEntity, EventEntity], work=[200*, 0*]
 35: 0x0984 [0x55] WAIT_LOAD_SCHEDULER: Wait for scheduler "fdo1" with entities [EventEntity, EventEntity], work=200*
 36: 0x0993 [0x52] END_LOAD_SCHEDULER: End scheduler "s102" with entities [EventEntity, EventEntity], work=399*
 37: 0x09A2 [0x27] REQ_SET(priority=0x05, entity_id=Unnamed NPC (ID: 17142568/0x01059328), tag_num=0x08)
 38: 0x09A9 [0x46] CAMERA_CONTROL: Restore default settings
 39: 0x09AB [0x45] LOAD_SCHEDULED_TASK: Load scheduler "fdi2" with entities [LocalPlayer, LocalPlayer], work=[200*, 0*]
 40: 0x09BC [0x21] END_EVENT
 41: 0x09BD [0x00] END_REQSTACK()
```
