# 17142574 - Ulbrecht

## Common Data

| Field            | Value                 |
|------------------|-----------------------|
| Zone             | Grauberg [S] (ID: 89) |
| Block Size       | 456 bytes             |
| Total Events     | 13                    |
| References Count | 13                    |

## List of Events

| Event ID                   | Entrypoint   |   Size |   Instructions |
|----------------------------|--------------|--------|----------------|
| [65535](#event-65535)      | 0x0000       |      1 |              1 |
| [65535.1](#event-655351)   | 0x0001       |      1 |              1 |
| [65535.2](#event-655352)   | 0x0002       |     18 |              4 |
| [65535.3](#event-655353)   | 0x0014       |     10 |              2 |
| [65535.4](#event-655354)   | 0x001E       |      9 |              3 |
| [65535.5](#event-655355)   | 0x0027       |      9 |              3 |
| [65535.6](#event-655356)   | 0x0030       |     10 |              2 |
| [65535.7](#event-655357)   | 0x003A       |     10 |              2 |
| [14](#event-14)            | 0x0044       |      1 |              1 |
| [15](#event-15)            | 0x0045       |     21 |              2 |
| [65535.8](#event-655358)   | 0x005A       |     21 |              2 |
| [65535.9](#event-655359)   | 0x006F       |     37 |              5 |
| [65535.10](#event-6553510) | 0x0094       |    185 |             37 |

## DAT References (imed_data)

|   Index | Hex Value   |   Dec Value |
|---------|-------------|-------------|
|       0 | 0x0000      |           0 |
|       1 | 0x0001      |           1 |
|       2 | 0x0080      |         128 |
|       3 | 0x0007      |           7 |
|       4 | 0x00D6      |         214 |
|       5 | 0x00B1      |         177 |
|       6 | 0x0005      |           5 |
|       7 | 0x0002      |           2 |
|       8 | 0x000A      |          10 |
|       9 | 0x0009      |           9 |
|      10 | 0x0046      |          70 |
|      11 | 0x008C      |         140 |
|      12 | 0x00D2      |         210 |

## Events

### Event 65535

#### Metadata

| Field        | Value   |
|--------------|---------|
| Entrypoint   | 0x0000  |
| Data Size    | 1 bytes |
| Instructions | 1       |

```
      00 01 02 03 04 05 06 07  08 09 0A 0B 0C 0D 0E 0F
      -- -- -- -- -- -- -- --  -- -- -- -- -- -- -- --
0000: 00                                                .               
```

#### Opcodes

```
  0: 0x0000 [0x00] END_REQSTACK()
```

### Event 65535.1

#### Metadata

| Field        | Value   |
|--------------|---------|
| Entrypoint   | 0x0001  |
| Data Size    | 1 bytes |
| Instructions | 1       |

```
      00 01 02 03 04 05 06 07  08 09 0A 0B 0C 0D 0E 0F
      -- -- -- -- -- -- -- --  -- -- -- -- -- -- -- --
0000:    00                                              .              
```

#### Opcodes

```
  0: 0x0001 [0x00] END_REQSTACK()
```

### Event 65535.2

#### Metadata

| Field        | Value    |
|--------------|----------|
| Entrypoint   | 0x0002   |
| Data Size    | 18 bytes |
| Instructions | 4        |

```
      00 01 02 03 04 05 06 07  08 09 0A 0B 0C 0D 0E 0F
      -- -- -- -- -- -- -- --  -- -- -- -- -- -- -- --
0000:       22 00 2F 00 F8 FF  FF 7F 6C F8 FF FF 7F 00    "./.....l.....
0010: 80 01 80 00                                       ....            
```

#### Opcodes

```
  0: 0x0002 [0x22] ENTITY_HIDE_FLAG(enabled=0x00)
  1: 0x0004 [0x2F] EventEntity->Render.Flags0 &= ~0x80000 // Bit 19
  2: 0x000A [0x6C] FADE_ENTITY_COLOR(entity_id=EventEntity, end_alpha=0*, fade_time=1*)
  3: 0x0013 [0x00] END_REQSTACK()
```

### Event 65535.3

#### Metadata

| Field        | Value    |
|--------------|----------|
| Entrypoint   | 0x0014   |
| Data Size    | 10 bytes |
| Instructions | 2        |

```
      00 01 02 03 04 05 06 07  08 09 0A 0B 0C 0D 0E 0F
      -- -- -- -- -- -- -- --  -- -- -- -- -- -- -- --
0010:             6C F8 FF FF  7F 02 80 01 80 00            l.........  
```

#### Opcodes

```
  0: 0x0014 [0x6C] FADE_ENTITY_COLOR(entity_id=EventEntity, end_alpha=128*, fade_time=1*)
  1: 0x001D [0x00] END_REQSTACK()
```

### Event 65535.4

#### Metadata

| Field        | Value   |
|--------------|---------|
| Entrypoint   | 0x001E  |
| Data Size    | 9 bytes |
| Instructions | 3       |

```
      00 01 02 03 04 05 06 07  08 09 0A 0B 0C 0D 0E 0F
      -- -- -- -- -- -- -- --  -- -- -- -- -- -- -- --
0010:                                            22 00                ".
0020: 2F 00 F8 FF FF 7F 00                              /......         
```

#### Opcodes

```
  0: 0x001E [0x22] ENTITY_HIDE_FLAG(enabled=0x00)
  1: 0x0020 [0x2F] EventEntity->Render.Flags0 &= ~0x80000 // Bit 19
  2: 0x0026 [0x00] END_REQSTACK()
```

### Event 65535.5

#### Metadata

| Field        | Value   |
|--------------|---------|
| Entrypoint   | 0x0027  |
| Data Size    | 9 bytes |
| Instructions | 3       |

```
      00 01 02 03 04 05 06 07  08 09 0A 0B 0C 0D 0E 0F
      -- -- -- -- -- -- -- --  -- -- -- -- -- -- -- --
0020:                      22  01 2F 01 F8 FF FF 7F 00         "./......
```

#### Opcodes

```
  0: 0x0027 [0x22] ENTITY_HIDE_FLAG(enabled=0x01)
  1: 0x0029 [0x2F] EventEntity->Render.Flags0 |= 0x80000 // Bit 19
  2: 0x002F [0x00] END_REQSTACK()
```

### Event 65535.6

#### Metadata

| Field        | Value    |
|--------------|----------|
| Entrypoint   | 0x0030   |
| Data Size    | 10 bytes |
| Instructions | 2        |

```
      00 01 02 03 04 05 06 07  08 09 0A 0B 0C 0D 0E 0F
      -- -- -- -- -- -- -- --  -- -- -- -- -- -- -- --
0030: 6C F8 FF FF 7F 00 80 01  80 00                    l.........      
```

#### Opcodes

```
  0: 0x0030 [0x6C] FADE_ENTITY_COLOR(entity_id=EventEntity, end_alpha=0*, fade_time=1*)
  1: 0x0039 [0x00] END_REQSTACK()
```

### Event 65535.7

#### Metadata

| Field        | Value    |
|--------------|----------|
| Entrypoint   | 0x003A   |
| Data Size    | 10 bytes |
| Instructions | 2        |

```
      00 01 02 03 04 05 06 07  08 09 0A 0B 0C 0D 0E 0F
      -- -- -- -- -- -- -- --  -- -- -- -- -- -- -- --
0030:                                6C F8 FF FF 7F 02            l.....
0040: 80 01 80 00                                       ....            
```

#### Opcodes

```
  0: 0x003A [0x6C] FADE_ENTITY_COLOR(entity_id=EventEntity, end_alpha=128*, fade_time=1*)
  1: 0x0043 [0x00] END_REQSTACK()
```

### Event 14

#### Metadata

| Field        | Value   |
|--------------|---------|
| Entrypoint   | 0x0044  |
| Data Size    | 1 bytes |
| Instructions | 1       |

```
      00 01 02 03 04 05 06 07  08 09 0A 0B 0C 0D 0E 0F
      -- -- -- -- -- -- -- --  -- -- -- -- -- -- -- --
0040:             00                                        .           
```

#### Opcodes

```
  0: 0x0044 [0x00] END_REQSTACK()
```

### Event 15

#### Metadata

| Field        | Value    |
|--------------|----------|
| Entrypoint   | 0x0045   |
| Data Size    | 21 bytes |
| Instructions | 2        |

```
      00 01 02 03 04 05 06 07  08 09 0A 0B 0C 0D 0E 0F
      -- -- -- -- -- -- -- --  -- -- -- -- -- -- -- --
0040:                B6 0B 01  80 03 80 00 80 04 80 04       ...........
0050: 80 04 80 04 80 00 80 00  80 00                    ..........      
```

#### Opcodes

```
  0: 0x0045 [0xB6] ENTITY_APPEARANCE_HANDLER(case=Full entity look, race=1*, hair=7*, head=0*, body=214*, hands=214*, legs=214*, feet=214*, main=0*, sub=0*)
  1: 0x0059 [0x00] END_REQSTACK()
```

### Event 65535.8

#### Metadata

| Field        | Value    |
|--------------|----------|
| Entrypoint   | 0x005A   |
| Data Size    | 21 bytes |
| Instructions | 2        |

```
      00 01 02 03 04 05 06 07  08 09 0A 0B 0C 0D 0E 0F
      -- -- -- -- -- -- -- --  -- -- -- -- -- -- -- --
0050:                                B6 0B 01 80 03 80            ......
0060: 00 80 04 80 04 80 04 80  04 80 05 80 00 80 00     ............... 
```

#### Opcodes

```
  0: 0x005A [0xB6] ENTITY_APPEARANCE_HANDLER(case=Full entity look, race=1*, hair=7*, head=0*, body=214*, hands=214*, legs=214*, feet=214*, main=177*, sub=0*)
  1: 0x006E [0x00] END_REQSTACK()
```

### Event 65535.9

#### Metadata

| Field        | Value    |
|--------------|----------|
| Entrypoint   | 0x006F   |
| Data Size    | 37 bytes |
| Instructions | 5        |

```
      00 01 02 03 04 05 06 07  08 09 0A 0B 0C 0D 0E 0F
      -- -- -- -- -- -- -- --  -- -- -- -- -- -- -- --
0060:                                               03                 .
0070: 00 00 07 7F 1A B9 00 66  01 00 F8 FF FF 7F F8 FF  .......f........
0080: FF 7F 73 69 74 30 53 F8  FF FF 7F F8 FF FF 7F 73  ..sit0S........s
0090: 69 74 30 00                                       it0.            
```

#### Opcodes

```
  0: 0x006F [0x03] ExtData[1]->WorkLocal[0] = Entity->Race
  1: 0x0074 [0x1A] CALL_SUBROUTINE(address=0x00B9)
  2: 0x0077 [0x66] LOAD_EXT_SCHEDULER_MAIN: Load scheduler "sit0" with entities [EventEntity, EventEntity], work=ExtData[1]->WorkLocal[1]
  3: 0x0086 [0x53] WAIT_SCHEDULER_TASK: Wait for scheduler "sit0" with entities [EventEntity, EventEntity]
  4: 0x0093 [0x00] END_REQSTACK()
```

### Event 65535.10

#### Metadata

| Field        | Value     |
|--------------|-----------|
| Entrypoint   | 0x0094    |
| Data Size    | 185 bytes |
| Instructions | 13        |

```
      00 01 02 03 04 05 06 07  08 09 0A 0B 0C 0D 0E 0F
      -- -- -- -- -- -- -- --  -- -- -- -- -- -- -- --
0090:             03 00 00 07  7F 1A B9 00 66 01 00 F8      ........f...
00A0: FF FF 7F F8 FF FF 7F 73  69 74 31 53 F8 FF FF 7F  .......sit1S....
00B0: F8 FF FF 7F 73 69 74 31  00 03 01 00 00 00 02 01  ....sit1........
00C0: 00 06 80 05 CE 00 08 01  00 01 80 01 D3 00 08 01  ................
00D0: 00 07 80 14 01 00 08 80  07 01 00 09 80 1B 03 01  ................
00E0: 00 00 00 02 01 00 06 80  05 F3 00 08 01 00 01 80  ................
00F0: 01 F8 00 08 01 00 07 80  14 01 00 08 80 07 01 00  ................
0100: 0A 80 1B 03 01 00 00 00  02 01 00 06 80 05 18 01  ................
0110: 08 01 00 01 80 01 1D 01  08 01 00 07 80 14 01 00  ................
0120: 08 80 07 01 00 0B 80 1B  03 01 00 00 00 02 01 00  ................
0130: 06 80 05 3D 01 08 01 00  01 80 01 42 01 08 01 00  ...=.......B....
0140: 07 80 14 01 00 08 80 07  01 00 0C 80 1B           .............   
```

#### Opcodes

```
  0: 0x0094 [0x03] ExtData[1]->WorkLocal[0] = Entity->Race
  1: 0x0099 [0x1A] CALL_SUBROUTINE(address=0x00B9)
  2: 0x009C [0x66] LOAD_EXT_SCHEDULER_MAIN: Load scheduler "sit1" with entities [EventEntity, EventEntity], work=ExtData[1]->WorkLocal[1]
  3: 0x00AB [0x53] WAIT_SCHEDULER_TASK: Wait for scheduler "sit1" with entities [EventEntity, EventEntity]
  4: 0x00B8 [0x00] END_REQSTACK()

SUBROUTINE_00B9:
  5: 0x00B9 [0x03] ExtData[1]->WorkLocal[1] = ExtData[1]->WorkLocal[0]
  6: 0x00BE [0x02] IF !(ExtData[1]->WorkLocal[1] > 5*) GOTO 0x00CE
  7: 0x00C6 [0x08] ExtData[1]->WorkLocal[1] -= 1*
  8: 0x00CB [0x01] GOTO 0x00D3
  9: 0x00CE [0x08] ExtData[1]->WorkLocal[1] -= 2*

SUBROUTINE_00D3:
 10: 0x00D3 [0x14] ExtData[1]->WorkLocal[1] *= 10*
 11: 0x00D8 [0x07] ExtData[1]->WorkLocal[1] += 9*
 12: 0x00DD [0x1B] RETURN
```

#### Data or dead code:

```
# Dead code (unreachable instructions):
     0x00DE [0x03] ExtData[1]->WorkLocal[1] = ExtData[1]->WorkLocal[0]
     0x00E3 [0x02] IF !(ExtData[1]->WorkLocal[1] > 5*) GOTO 0x00F3
     0x00EB [0x08] ExtData[1]->WorkLocal[1] -= 1*
     0x00F0 [0x01] GOTO 0x00F8
     0x00F3 [0x08] ExtData[1]->WorkLocal[1] -= 2*
     0x00F8 [0x14] ExtData[1]->WorkLocal[1] *= 10*
     0x00FD [0x07] ExtData[1]->WorkLocal[1] += 70*
     0x0102 [0x1B] RETURN
     0x0103 [0x03] ExtData[1]->WorkLocal[1] = ExtData[1]->WorkLocal[0]
     0x0108 [0x02] IF !(ExtData[1]->WorkLocal[1] > 5*) GOTO 0x0118
     0x0110 [0x08] ExtData[1]->WorkLocal[1] -= 1*
     0x0115 [0x01] GOTO 0x011D
     0x0118 [0x08] ExtData[1]->WorkLocal[1] -= 2*
     0x011D [0x14] ExtData[1]->WorkLocal[1] *= 10*
     0x0122 [0x07] ExtData[1]->WorkLocal[1] += 140*
     0x0127 [0x1B] RETURN
     0x0128 [0x03] ExtData[1]->WorkLocal[1] = ExtData[1]->WorkLocal[0]
     0x012D [0x02] IF !(ExtData[1]->WorkLocal[1] > 5*) GOTO 0x013D
     0x0135 [0x08] ExtData[1]->WorkLocal[1] -= 1*
     0x013A [0x01] GOTO 0x0142
     0x013D [0x08] ExtData[1]->WorkLocal[1] -= 2*
     0x0142 [0x14] ExtData[1]->WorkLocal[1] *= 10*
     0x0147 [0x07] ExtData[1]->WorkLocal[1] += 210*
     0x014C [0x1B] RETURN
```
