# 17142635

## Common Data

| Field            | Value                 |
|------------------|-----------------------|
| Zone             | Grauberg [S] (ID: 89) |
| Block Size       | 5136 bytes            |
| Total Events     | 6                     |
| References Count | 91                    |

## List of Events

| Event ID              | Entrypoint   |   Size |   Instructions |
|-----------------------|--------------|--------|----------------|
| [65535](#event-65535) | 0x0000       |      1 |              1 |
| [36](#event-36)       | 0x0001       |    689 |             90 |
| [37](#event-37)       | 0x02B2       |    247 |             41 |
| [38](#event-38)       | 0x03A9       |   1748 |            201 |
| [44](#event-44)       | 0x0A7D       |    666 |             80 |
| [45](#event-45)       | 0x0D17       |   1381 |            154 |

## DAT References (imed_data)

|   Index | Hex Value   |   Dec Value |
|---------|-------------|-------------|
|       0 | 0x0013      |          19 |
|       1 | 0x0000      |           0 |
|       2 | 0x003C      |          60 |
|       3 | 0xFFFE04C4  |  4294837444 |
|       4 | 0x8BC42     |      572482 |
|       5 | 0xFFFFE3EA  |  4294960106 |
|       6 | 0x0AEF      |        2799 |
|       7 | 0xFFFE11B3  |  4294840755 |
|       8 | 0x8AD30     |      568624 |
|       9 | 0xFFFFE1F2  |  4294959602 |
|      10 | 0x0DFA      |        3578 |
|      11 | 0x0857      |        2135 |
|      12 | 0x0B11      |        2833 |
|      13 | 0x0227      |         551 |
|      14 | 0x00B4      |         180 |
|      15 | 0x0078      |         120 |
|      16 | 0x20AB      |        8363 |
|      17 | 0x001E      |          30 |
|      18 | 0x0005      |           5 |
|      19 | 0x0006      |           6 |
|      20 | 0x20AC      |        8364 |
|      21 | 0x20AD      |        8365 |
|      22 | 0x20AE      |        8366 |
|      23 | 0x0096      |         150 |
|      24 | 0x20AF      |        8367 |
|      25 | 0x20B0      |        8368 |
|      26 | 0x0007      |           7 |
|      27 | 0x00C8      |         200 |
|      28 | 0x000F      |          15 |
|      29 | 0x007F      |         127 |
|      30 | 0xFFFE0E54  |  4294839892 |
|      31 | 0x8B06D     |      569453 |
|      32 | 0xFFFFE22A  |  4294959658 |
|      33 | 0x023A      |         570 |
|      34 | 0x20B1      |        8369 |
|      35 | 0x20B2      |        8370 |
|      36 | 0xFFFDEA84  |  4294830724 |
|      37 | 0x88CB2     |      560306 |
|      38 | 0xFFFFE3CE  |  4294960078 |
|      39 | 0xFFFE0B8B  |  4294839179 |
|      40 | 0x892C3     |      561859 |
|      41 | 0xFFFFE1FF  |  4294959615 |
|      42 | 0xFFFE0B8E  |  4294839182 |
|      43 | 0x88D85     |      560517 |
|      44 | 0xFFFFE1AB  |  4294959531 |
|      45 | 0x005A      |          90 |
|      46 | 0x0584      |        1412 |
|      47 | 0x20B3      |        8371 |
|      48 | 0x0001      |           1 |
|      49 | 0x0002      |           2 |
|      50 | 0x0003      |           3 |
|      51 | 0x0004      |           4 |
|      52 | 0x0008      |           8 |
|      53 | 0x0856      |        2134 |
|      54 | 0x20B4      |        8372 |
|      55 | 0x08C5      |        2245 |
|      56 | 0x20B5      |        8373 |
|      57 | 0x20B6      |        8374 |
|      58 | 0x20B7      |        8375 |
|      59 | 0x0024      |          36 |
|      60 | 0x0B2A      |        2858 |
|      61 | 0x20B8      |        8376 |
|      62 | 0x09AA      |        2474 |
|      63 | 0x0025      |          37 |
|      64 | 0x0A0A      |        2570 |
|      65 | 0x0AD2      |        2770 |
|      66 | 0x00C3      |         195 |
|      67 | 0x0A6E      |        2670 |
|      68 | 0xFFFDC86F  |  4294821999 |
|      69 | 0x8E5F2     |      583154 |
|      70 | 0xFFFFE5A2  |  4294960546 |
|      71 | 0x0EA1      |        3745 |
|      72 | 0xFFFDCB09  |  4294822665 |
|      73 | 0x8E7A7     |      583591 |
|      74 | 0xFFFFE5A3  |  4294960547 |
|      75 | 0xFFFFE4A8  |  4294960296 |
|      76 | 0x012C      |         300 |
|      77 | 0x00F0      |         240 |
|      78 | 0xFFFDD284  |  4294824580 |
|      79 | 0x8D158     |      577880 |
|      80 | 0xFFFFE56C  |  4294960492 |
|      81 | 0x0AD7      |        2775 |
|      82 | 0x06C3      |        1731 |
|      83 | 0x20B9      |        8377 |
|      84 | 0x0520      |        1312 |
|      85 | 0x20BA      |        8378 |
|      86 | 0x00D2      |         210 |
|      87 | 0x20BB      |        8379 |
|      88 | 0x00C9      |         201 |
|      89 | 0x002D      |          45 |
|      90 | 0x00D7      |         215 |

## String References

- **8374**: Ready to face destiny? [Ready as I'll ever be!/Not quite.]

## Events

### Event 65535

#### Metadata

| Field        | Value   |
|--------------|---------|
| Entrypoint   | 0x0000  |
| Data Size    | 1 bytes |
| Instructions | 1       |

```
      00 01 02 03 04 05 06 07  08 09 0A 0B 0C 0D 0E 0F
      -- -- -- -- -- -- -- --  -- -- -- -- -- -- -- --
0000: 00                                                .               
```

#### Opcodes

```
  0: 0x0000 [0x00] END_REQSTACK()
```

### Event 36

#### Metadata

| Field        | Value     |
|--------------|-----------|
| Entrypoint   | 0x0001    |
| Data Size    | 689 bytes |
| Instructions | 90        |

```
      00 01 02 03 04 05 06 07  08 09 0A 0B 0C 0D 0E 0F
      -- -- -- -- -- -- -- --  -- -- -- -- -- -- -- --
0000:    42 1A 4E 10 46 01 38  00 80 5D 01 80 02 80 2F   B.N.F.8..]..../
0010: 00 62 93 05 01 4E 00 62  93 05 01 92 01 62 93 05  .b...N.b.....b..
0020: 01 BA F0 FF FF 7F 03 80  04 80 05 80 06 80 BA 62  ...............b
0030: 93 05 01 07 80 08 80 09  80 0A 80 7B F0 FF FF 7F  ...........{....
0040: 80 F0 FF FF 7F 1C 02 80  29 10 F0 FF FF 7F 21 4A  ........).....!J
0050: F0 FF FF 7F 62 93 05 01  81 00 62 93 05 01 7C 00  ....b.....b...|.
0060: 62 93 05 01 5B 0B 80 62  93 05 01 62 93 05 01 66  b...[..b...b...f
0070: 6B 30 30 5B 0C 80 62 93  05 01 62 93 05 01 73 68  k00[..b...b...sh
0080: 6E 30 1C 02 80 45 0D 80  F0 FF FF 7F F0 FF FF 7F  n0...E..........
0090: 30 30 30 30 01 80 1A 2D  10 1C 0E 80 52 0D 80 F0  0000...-....R...
00A0: FF FF 7F F0 FF FF 7F 30  30 30 30 45 0D 80 F0 FF  .......0000E....
00B0: FF 7F F0 FF FF 7F 30 30  30 31 01 80 1C 0E 80 52  ......0001.....R
00C0: 0D 80 F0 FF FF 7F F0 FF  FF 7F 30 30 30 31 45 0D  ..........0001E.
00D0: 80 F0 FF FF 7F F0 FF FF  7F 30 30 30 32 01 80 1C  .........0002...
00E0: 0E 80 5B 0B 80 62 93 05  01 62 93 05 01 66 6C 30  ..[..b...b...fl0
00F0: 30 5B 0C 80 62 93 05 01  62 93 05 01 73 68 6E 33  0[..b...b...shn3
0100: 1C 0F 80 52 0D 80 F0 FF  FF 7F F0 FF FF 7F 30 30  ...R..........00
0110: 30 32 45 0D 80 F0 FF FF  7F F0 FF FF 7F 30 30 30  02E..........000
0120: 33 01 80 1C 0E 80 5B 0B  80 62 93 05 01 62 93 05  3.....[..b...b..
0130: 01 66 6C 30 31 2B 62 93  05 01 10 80 23 52 0D 80  .fl01+b.....#R..
0140: F0 FF FF 7F F0 FF FF 7F  30 30 30 33 45 0D 80 F0  ........0003E...
0150: FF FF 7F F0 FF FF 7F 30  30 30 34 01 80 29 10 F0  .......0004..)..
0160: FF FF 7F 35 1C 11 80 02  02 10 12 80 00 75 01 1C  ...5.........u..
0170: 02 80 01 8F 01 02 02 10  13 80 00 83 01 1C 02 80  ................
0180: 01 8F 01 7B F0 FF FF 7F  29 10 F0 FF FF 7F 11 2B  ...{....)......+
0190: 62 93 05 01 14 80 23 52  0D 80 F0 FF FF 7F F0 FF  b.....#R........
01A0: FF 7F 30 30 30 34 45 0D  80 F0 FF FF 7F F0 FF FF  ..0004E.........
01B0: 7F 30 30 30 35 01 80 2B  62 93 05 01 15 80 23 02  .0005..+b.....#.
01C0: 02 10 12 80 00 CA 01 01  E6 01 02 02 10 13 80 00  ................
01D0: D5 01 01 E6 01 79 00 F0  FF FF 7F 62 93 05 01 27  .....y.....b...'
01E0: 10 F0 FF FF 7F 20 5B 0B  80 62 93 05 01 62 93 05  ..... [..b...b..
01F0: 01 66 68 30 30 52 0D 80  F0 FF FF 7F F0 FF FF 7F  .fh00R..........
0200: 30 30 30 35 45 0D 80 F0  FF FF 7F F0 FF FF 7F 30  0005E..........0
0210: 30 30 36 01 80 2B 62 93  05 01 16 80 1C 17 80 23  006..+b........#
0220: 52 0D 80 F0 FF FF 7F F0  FF FF 7F 30 30 30 36 45  R..........0006E
0230: 0D 80 F0 FF FF 7F F0 FF  FF 7F 30 30 30 37 01 80  ..........0007..
0240: 2B 62 93 05 01 18 80 23  2B 62 93 05 01 19 80 23  +b.....#+b.....#
0250: 6E F0 FF FF 7F 1A 80 99  F0 FF FF 7F 1C 02 80 1A  n...............
0260: 4E 10 81 01 62 93 05 01  7C 01 62 93 05 01 52 0D  N...b...|.b...R.
0270: 80 F0 FF FF 7F F0 FF FF  7F 30 30 30 37 45 1B 80  .........0007E..
0280: F0 FF FF 7F F0 FF FF 7F  62 6C 6F 66 01 80 1C 1C  ........blof....
0290: 80 AB 11 01 80 5D 1D 80  02 80 1C 1C 80 46 00 45  .....].......F.E
02A0: 1B 80 F0 FF FF 7F F0 FF  FF 7F 66 64 69 32 01 80  ..........fdi2..
02B0: 21 00                                             !.              
```

#### Opcodes

```
  0: 0x0001 [0x42] SET_CLI_EVENT_CANCEL_DATA()
  1: 0x0002 [0x1A] CALL_SUBROUTINE(address=0x104E)
  2: 0x0005 [0x46] CAMERA_CONTROL: Disable user control
  3: 0x0007 [0x38] SET_CLIENT_EVENT_MODE(mode=19*)
  4: 0x000A [0x5D] SET_MUSIC_VOLUME(volume=0*, fade_time=60*)
  5: 0x000F [0x2F] Lilisette (ID: 17142626/0x01059362)->Render.Flags0 &= ~0x80000 // Bit 19
  6: 0x0015 [0x4E] SET_ENTITY_HIDE_FLAG: Show Lilisette (ID: 17142626/0x01059362)
  7: 0x001B [0x92] Lilisette (ID: 17142626/0x01059362)->Render.Flags3 ^= 0x01
  8: 0x0021 [0xBA] SET_ENTITY_POSITION(entity_id=LocalPlayer, pos_x=-129.852*, pos_z=572.482*, pos_y=-7.190*, direction=246.0°*)
  9: 0x002E [0xBA] SET_ENTITY_POSITION(entity_id=Lilisette (ID: 17142626/0x01059362), pos_x=-126.541*, pos_z=568.624*, pos_y=-7.694*, direction=314.5°*)
 10: 0x003B [0x7B] LocalPlayer stops talking
 11: 0x0040 [0x80] LOAD_WAIT(entity=LocalPlayer)
 12: 0x0045 [0x1C] WAIT(60* ticks)
 13: 0x0048 [0x29] REQ_SET_WAIT(priority=0x10, entity_id=LocalPlayer, tag_num=0x21)
 14: 0x004F [0x4A] LocalPlayer looks at Lilisette (ID: 17142626/0x01059362)
 15: 0x0058 [0x81] SET_ENTITY_BLINKING(blink_flag=0x00, entity=Lilisette (ID: 17142626/0x01059362))
 16: 0x005E [0x7C] Lilisette (ID: 17142626/0x01059362)->Render.Flags2 |= 0x00
 17: 0x0064 [0x5B] LOAD_EXT_SCHEDULER: Load scheduler "fk00" with entities [Lilisette (ID: 17142626/0x01059362), Lilisette (ID: 17142626/0x01059362)], work=2135*
 18: 0x0073 [0x5B] LOAD_EXT_SCHEDULER: Load scheduler "shn0" with entities [Lilisette (ID: 17142626/0x01059362), Lilisette (ID: 17142626/0x01059362)], work=2833*
 19: 0x0082 [0x1C] WAIT(60* ticks)
 20: 0x0085 [0x45] LOAD_SCHEDULED_TASK: Load scheduler "0000" with entities [LocalPlayer, LocalPlayer], work=[551*, 0*]
 21: 0x0096 [0x1A] CALL_SUBROUTINE(address=0x102D)
 22: 0x0099 [0x1C] WAIT(180* ticks)
 23: 0x009C [0x52] END_LOAD_SCHEDULER: End scheduler "0000" with entities [LocalPlayer, LocalPlayer], work=551*
 24: 0x00AB [0x45] LOAD_SCHEDULED_TASK: Load scheduler "0001" with entities [LocalPlayer, LocalPlayer], work=[551*, 0*]
 25: 0x00BC [0x1C] WAIT(180* ticks)
 26: 0x00BF [0x52] END_LOAD_SCHEDULER: End scheduler "0001" with entities [LocalPlayer, LocalPlayer], work=551*
 27: 0x00CE [0x45] LOAD_SCHEDULED_TASK: Load scheduler "0002" with entities [LocalPlayer, LocalPlayer], work=[551*, 0*]
 28: 0x00DF [0x1C] WAIT(180* ticks)
 29: 0x00E2 [0x5B] LOAD_EXT_SCHEDULER: Load scheduler "fl00" with entities [Lilisette (ID: 17142626/0x01059362), Lilisette (ID: 17142626/0x01059362)], work=2135*
 30: 0x00F1 [0x5B] LOAD_EXT_SCHEDULER: Load scheduler "shn3" with entities [Lilisette (ID: 17142626/0x01059362), Lilisette (ID: 17142626/0x01059362)], work=2833*
 31: 0x0100 [0x1C] WAIT(120* ticks)
 32: 0x0103 [0x52] END_LOAD_SCHEDULER: End scheduler "0002" with entities [LocalPlayer, LocalPlayer], work=551*
 33: 0x0112 [0x45] LOAD_SCHEDULED_TASK: Load scheduler "0003" with entities [LocalPlayer, LocalPlayer], work=[551*, 0*]
 34: 0x0123 [0x1C] WAIT(180* ticks)
 35: 0x0126 [0x5B] LOAD_EXT_SCHEDULER: Load scheduler "fl01" with entities [Lilisette (ID: 17142626/0x01059362), Lilisette (ID: 17142626/0x01059362)], work=2135*
 36: 0x0135 [0x2B] Lilisette (ID: 17142626/0x01059362) [8363*]:
    → "Ah, <Player>. I was just dreaming about you."
 37: 0x013C [0x23] WAIT_FOR_DIALOG_INTERACTION
 38: 0x013D [0x52] END_LOAD_SCHEDULER: End scheduler "0003" with entities [LocalPlayer, LocalPlayer], work=551*
 39: 0x014C [0x45] LOAD_SCHEDULED_TASK: Load scheduler "0004" with entities [LocalPlayer, LocalPlayer], work=[551*, 0*]
 40: 0x015D [0x29] REQ_SET_WAIT(priority=0x10, entity_id=LocalPlayer, tag_num=0x35)
 41: 0x0164 [0x1C] WAIT(30* ticks)
 42: 0x0167 [0x02] IF !(Work_Zone[2] == 5*) GOTO 0x0175
 43: 0x016F [0x1C] WAIT(60* ticks)
 44: 0x0172 [0x01] GOTO 0x018F
 45: 0x0175 [0x02] IF !(Work_Zone[2] == 6*) GOTO 0x0183
 46: 0x017D [0x1C] WAIT(60* ticks)
 47: 0x0180 [0x01] GOTO 0x018F
 48: 0x0183 [0x7B] LocalPlayer stops talking
 49: 0x0188 [0x29] REQ_SET_WAIT(priority=0x10, entity_id=LocalPlayer, tag_num=0x11)

SUBROUTINE_018F:
 50: 0x018F [0x2B] Lilisette (ID: 17142626/0x01059362) [8364*]:
    → "You're looking for Cait Sith? She made a brief stop here but a moment ago on her way to Ronfaure."
 51: 0x0196 [0x23] WAIT_FOR_DIALOG_INTERACTION
 52: 0x0197 [0x52] END_LOAD_SCHEDULER: End scheduler "0004" with entities [LocalPlayer, LocalPlayer], work=551*
 53: 0x01A6 [0x45] LOAD_SCHEDULED_TASK: Load scheduler "0005" with entities [LocalPlayer, LocalPlayer], work=[551*, 0*]
 54: 0x01B7 [0x2B] Lilisette (ID: 17142626/0x01059362) [8365*]:
    → "Ronfaure... That was where you and I first met, wasn't it?"
 55: 0x01BE [0x23] WAIT_FOR_DIALOG_INTERACTION
 56: 0x01BF [0x02] IF !(Work_Zone[2] == 5*) GOTO 0x01CA
 57: 0x01C7 [0x01] GOTO 0x01E6
 58: 0x01CA [0x02] IF !(Work_Zone[2] == 6*) GOTO 0x01D5
 59: 0x01D2 [0x01] GOTO 0x01E6
 60: 0x01D5 [0x79] LocalPlayer looks at Lilisette (ID: 17142626/0x01059362) (Basic look)
 61: 0x01DF [0x27] REQ_SET(priority=0x10, entity_id=LocalPlayer, tag_num=0x20)

SUBROUTINE_01E6:
 62: 0x01E6 [0x5B] LOAD_EXT_SCHEDULER: Load scheduler "fh00" with entities [Lilisette (ID: 17142626/0x01059362), Lilisette (ID: 17142626/0x01059362)], work=2135*
 63: 0x01F5 [0x52] END_LOAD_SCHEDULER: End scheduler "0005" with entities [LocalPlayer, LocalPlayer], work=551*
 64: 0x0204 [0x45] LOAD_SCHEDULED_TASK: Load scheduler "0006" with entities [LocalPlayer, LocalPlayer], work=[551*, 0*]
 65: 0x0215 [0x2B] Lilisette (ID: 17142626/0x01059362) [8366*]:
    → "..."
 66: 0x021C [0x1C] WAIT(150* ticks)
 67: 0x021F [0x23] WAIT_FOR_DIALOG_INTERACTION
 68: 0x0220 [0x52] END_LOAD_SCHEDULER: End scheduler "0006" with entities [LocalPlayer, LocalPlayer], work=551*
 69: 0x022F [0x45] LOAD_SCHEDULED_TASK: Load scheduler "0007" with entities [LocalPlayer, LocalPlayer], work=[551*, 0*]
 70: 0x0240 [0x2B] Lilisette (ID: 17142626/0x01059362) [8367*]:
    → "It feels like a lifetime ago when I caught you there..."
 71: 0x0247 [0x23] WAIT_FOR_DIALOG_INTERACTION
 72: 0x0248 [0x2B] Lilisette (ID: 17142626/0x01059362) [8368*]:
    → "At any rate, our feline friend should be in Ronfaure. Why don't you try searching for her there?"
 73: 0x024F [0x23] WAIT_FOR_DIALOG_INTERACTION
 74: 0x0250 [0x6E] LocalPlayer uses emote 7*
 75: 0x0257 [0x99] Wait for LocalPlayer animation to complete
 76: 0x025C [0x1C] WAIT(60* ticks)
 77: 0x025F [0x1A] CALL_SUBROUTINE(address=0x104E)
 78: 0x0262 [0x81] SET_ENTITY_BLINKING(blink_flag=0x01, entity=Lilisette (ID: 17142626/0x01059362))
 79: 0x0268 [0x7C] Lilisette (ID: 17142626/0x01059362)->Render.Flags2 |= 0x01
 80: 0x026E [0x52] END_LOAD_SCHEDULER: End scheduler "0007" with entities [LocalPlayer, LocalPlayer], work=551*
 81: 0x027D [0x45] LOAD_SCHEDULED_TASK: Load scheduler "blof" with entities [LocalPlayer, LocalPlayer], work=[200*, 0*]
 82: 0x028E [0x1C] WAIT(15* ticks)
 83: 0x0291 [0xAB] EventEntity->DespawnValue = 0* // Set despawn value
 84: 0x0295 [0x5D] SET_MUSIC_VOLUME(volume=127*, fade_time=60*)
 85: 0x029A [0x1C] WAIT(15* ticks)
 86: 0x029D [0x46] CAMERA_CONTROL: Restore default settings
 87: 0x029F [0x45] LOAD_SCHEDULED_TASK: Load scheduler "fdi2" with entities [LocalPlayer, LocalPlayer], work=[200*, 0*]
 88: 0x02B0 [0x21] END_EVENT
 89: 0x02B1 [0x00] END_REQSTACK()
```

### Event 37

#### Metadata

| Field        | Value     |
|--------------|-----------|
| Entrypoint   | 0x02B2    |
| Data Size    | 247 bytes |
| Instructions | 41        |

```
      00 01 02 03 04 05 06 07  08 09 0A 0B 0C 0D 0E 0F
      -- -- -- -- -- -- -- --  -- -- -- -- -- -- -- --
02B0:       42 1A 4E 10 46 01  38 00 80 5D 01 80 02 80    B.N.F.8..]....
02C0: 2F 00 62 93 05 01 4E 00  62 93 05 01 92 01 62 93  /.b...N.b.....b.
02D0: 05 01 BA F0 FF FF 7F 1E  80 1F 80 20 80 21 80 BA  ........... .!..
02E0: 62 93 05 01 07 80 08 80  09 80 0A 80 7B F0 FF FF  b...........{...
02F0: 7F 80 F0 FF FF 7F 1C 02  80 4A F0 FF FF 7F 62 93  .........J....b.
0300: 05 01 81 00 62 93 05 01  7C 00 62 93 05 01 5B 0C  ....b...|.b...[.
0310: 80 62 93 05 01 62 93 05  01 73 68 6E 33 1C 02 80  .b...b...shn3...
0320: 45 0D 80 F0 FF FF 7F F0  FF FF 7F 30 30 30 38 01  E..........0008.
0330: 80 1A 2D 10 1C 02 80 2B  62 93 05 01 22 80 23 2B  ..-....+b...".#+
0340: 62 93 05 01 23 80 23 6E  F0 FF FF 7F 1A 80 99 F0  b...#.#n........
0350: FF FF 7F 1C 02 80 1A 4E  10 81 01 62 93 05 01 7C  .......N...b...|
0360: 01 62 93 05 01 52 0D 80  F0 FF FF 7F F0 FF FF 7F  .b...R..........
0370: 30 30 30 38 45 1B 80 F0  FF FF 7F F0 FF FF 7F 62  0008E..........b
0380: 6C 6F 66 01 80 1C 1C 80  AB 11 01 80 5D 1D 80 02  lof.........]...
0390: 80 1C 1C 80 46 00 45 1B  80 F0 FF FF 7F F0 FF FF  ....F.E.........
03A0: 7F 66 64 69 32 01 80 21  00                       .fdi2..!.       
```

#### Opcodes

```
  0: 0x02B2 [0x42] SET_CLI_EVENT_CANCEL_DATA()
  1: 0x02B3 [0x1A] CALL_SUBROUTINE(address=0x104E)
  2: 0x02B6 [0x46] CAMERA_CONTROL: Disable user control
  3: 0x02B8 [0x38] SET_CLIENT_EVENT_MODE(mode=19*)
  4: 0x02BB [0x5D] SET_MUSIC_VOLUME(volume=0*, fade_time=60*)
  5: 0x02C0 [0x2F] Lilisette (ID: 17142626/0x01059362)->Render.Flags0 &= ~0x80000 // Bit 19
  6: 0x02C6 [0x4E] SET_ENTITY_HIDE_FLAG: Show Lilisette (ID: 17142626/0x01059362)
  7: 0x02CC [0x92] Lilisette (ID: 17142626/0x01059362)->Render.Flags3 ^= 0x01
  8: 0x02D2 [0xBA] SET_ENTITY_POSITION(entity_id=LocalPlayer, pos_x=-127.404*, pos_z=569.453*, pos_y=-7.638*, direction=50.1°*)
  9: 0x02DF [0xBA] SET_ENTITY_POSITION(entity_id=Lilisette (ID: 17142626/0x01059362), pos_x=-126.541*, pos_z=568.624*, pos_y=-7.694*, direction=314.5°*)
 10: 0x02EC [0x7B] LocalPlayer stops talking
 11: 0x02F1 [0x80] LOAD_WAIT(entity=LocalPlayer)
 12: 0x02F6 [0x1C] WAIT(60* ticks)
 13: 0x02F9 [0x4A] LocalPlayer looks at Lilisette (ID: 17142626/0x01059362)
 14: 0x0302 [0x81] SET_ENTITY_BLINKING(blink_flag=0x00, entity=Lilisette (ID: 17142626/0x01059362))
 15: 0x0308 [0x7C] Lilisette (ID: 17142626/0x01059362)->Render.Flags2 |= 0x00
 16: 0x030E [0x5B] LOAD_EXT_SCHEDULER: Load scheduler "shn3" with entities [Lilisette (ID: 17142626/0x01059362), Lilisette (ID: 17142626/0x01059362)], work=2833*
 17: 0x031D [0x1C] WAIT(60* ticks)
 18: 0x0320 [0x45] LOAD_SCHEDULED_TASK: Load scheduler "0008" with entities [LocalPlayer, LocalPlayer], work=[551*, 0*]
 19: 0x0331 [0x1A] CALL_SUBROUTINE(address=0x102D)
 20: 0x0334 [0x1C] WAIT(60* ticks)
 21: 0x0337 [0x2B] Lilisette (ID: 17142626/0x01059362) [8369*]:
    → "Cait Sith should be in Ronfaure."
 22: 0x033E [0x23] WAIT_FOR_DIALOG_INTERACTION
 23: 0x033F [0x2B] Lilisette (ID: 17142626/0x01059362) [8370*]:
    → "If you hurry, you might yet pick up her trail."
 24: 0x0346 [0x23] WAIT_FOR_DIALOG_INTERACTION
 25: 0x0347 [0x6E] LocalPlayer uses emote 7*
 26: 0x034E [0x99] Wait for LocalPlayer animation to complete
 27: 0x0353 [0x1C] WAIT(60* ticks)
 28: 0x0356 [0x1A] CALL_SUBROUTINE(address=0x104E)
 29: 0x0359 [0x81] SET_ENTITY_BLINKING(blink_flag=0x01, entity=Lilisette (ID: 17142626/0x01059362))
 30: 0x035F [0x7C] Lilisette (ID: 17142626/0x01059362)->Render.Flags2 |= 0x01
 31: 0x0365 [0x52] END_LOAD_SCHEDULER: End scheduler "0008" with entities [LocalPlayer, LocalPlayer], work=551*
 32: 0x0374 [0x45] LOAD_SCHEDULED_TASK: Load scheduler "blof" with entities [LocalPlayer, LocalPlayer], work=[200*, 0*]
 33: 0x0385 [0x1C] WAIT(15* ticks)
 34: 0x0388 [0xAB] EventEntity->DespawnValue = 0* // Set despawn value
 35: 0x038C [0x5D] SET_MUSIC_VOLUME(volume=127*, fade_time=60*)
 36: 0x0391 [0x1C] WAIT(15* ticks)
 37: 0x0394 [0x46] CAMERA_CONTROL: Restore default settings
 38: 0x0396 [0x45] LOAD_SCHEDULED_TASK: Load scheduler "fdi2" with entities [LocalPlayer, LocalPlayer], work=[200*, 0*]
 39: 0x03A7 [0x21] END_EVENT
 40: 0x03A8 [0x00] END_REQSTACK()
```

### Event 38

#### Metadata

| Field        | Value      |
|--------------|------------|
| Entrypoint   | 0x03A9     |
| Data Size    | 1748 bytes |
| Instructions | 200        |

```
      00 01 02 03 04 05 06 07  08 09 0A 0B 0C 0D 0E 0F
      -- -- -- -- -- -- -- --  -- -- -- -- -- -- -- --
03A0:                             42 03 00 00 08 10 03           B......
03B0: 01 00 09 10 1A 4E 10 46  01 38 00 80 5D 01 80 02  .....N.F.8..]...
03C0: 80 2F 00 62 93 05 01 2F  00 63 93 05 01 4E 00 62  ./.b.../.c...N.b
03D0: 93 05 01 4E 00 63 93 05  01 92 01 62 93 05 01 92  ...N.c.....b....
03E0: 01 63 93 05 01 94 01 F0  FF FF 7F 94 01 62 93 05  .c...........b..
03F0: 01 94 01 63 93 05 01 BA  F0 FF FF 7F 24 80 25 80  ...c........$.%.
0400: 26 80 06 80 BA 62 93 05  01 27 80 28 80 29 80 06  &....b...'.(.)..
0410: 80 BA 63 93 05 01 2A 80  2B 80 2C 80 06 80 7B F0  ..c...*.+.,...{.
0420: FF FF 7F 80 F0 FF FF 7F  1C 02 80 4A 62 93 05 01  ...........Jb...
0430: 63 93 05 01 4A 63 93 05  01 62 93 05 01 1C 02 80  c...Jc...b......
0440: 27 10 F0 FF FF 7F 36 45  0D 80 F0 FF FF 7F F0 FF  '.....6E........
0450: FF 7F 30 32 30 30 01 80  1A 2D 10 1C 2D 80 4A 62  ..0200...-..-.Jb
0460: 93 05 01 F0 FF FF 7F 4A  63 93 05 01 F0 FF FF 7F  .......Jc.......
0470: 1C 17 80 52 0D 80 F0 FF  FF 7F F0 FF FF 7F 30 32  ...R..........02
0480: 30 30 02 00 00 01 80 00  2B 06 45 0D 80 F0 FF FF  00......+.E.....
0490: 7F F0 FF FF 7F 30 32 30  31 01 80 5B 2E 80 63 93  .....0201..[..c.
04A0: 05 01 63 93 05 01 75 64  65 30 2B 63 93 05 01 2F  ..c...ude0+c.../
04B0: 80 23 2A 10 F0 FF FF 7F  52 0D 80 F0 FF FF 7F F0  .#*.....R.......
04C0: FF FF 7F 30 32 30 31 29  10 F0 FF FF 7F 21 02 02  ...0201).....!..
04D0: 10 30 80 80 EA 04 45 0D  80 F0 FF FF 7F F0 FF FF  .0....E.........
04E0: 7F 32 6D 64 30 01 80 01  AE 05 02 02 10 31 80 80  .2md0........1..
04F0: 06 05 45 0D 80 F0 FF FF  7F F0 FF FF 7F 32 6D 64  ..E..........2md
0500: 30 01 80 01 AE 05 02 02  10 32 80 80 22 05 45 0D  0........2..".E.
0510: 80 F0 FF FF 7F F0 FF FF  7F 32 68 69 30 01 80 01  .........2hi0...
0520: AE 05 02 02 10 33 80 80  3E 05 45 0D 80 F0 FF FF  .....3..>.E.....
0530: 7F F0 FF FF 7F 32 68 69  30 01 80 01 AE 05 02 02  .....2hi0.......
0540: 10 12 80 80 5A 05 45 0D  80 F0 FF FF 7F F0 FF FF  ....Z.E.........
0550: 7F 32 73 68 30 01 80 01  AE 05 02 02 10 13 80 80  .2sh0...........
0560: 76 05 45 0D 80 F0 FF FF  7F F0 FF FF 7F 32 73 68  v.E..........2sh
0570: 30 01 80 01 AE 05 02 02  10 1A 80 80 92 05 45 0D  0.............E.
0580: 80 F0 FF FF 7F F0 FF FF  7F 32 6D 64 30 01 80 01  .........2md0...
0590: AE 05 02 02 10 34 80 80  AE 05 45 0D 80 F0 FF FF  .....4....E.....
05A0: 7F F0 FF FF 7F 32 68 69  30 01 80 01 AE 05 5B 2E  .....2hi0.....[.
05B0: 80 63 93 05 01 63 93 05  01 75 64 65 31 5B 35 80  .c...c...ude1[5.
05C0: 62 93 05 01 62 93 05 01  74 6C 61 30 4A F0 FF FF  b...b...tla0J...
05D0: 7F 62 93 05 01 2B 62 93  05 01 36 80 23 5B 35 80  .b...+b...6.#[5.
05E0: 62 93 05 01 62 93 05 01  74 6C 61 31 1C 2D 80 5B  b...b...tla1.-.[
05F0: 0B 80 62 93 05 01 62 93  05 01 66 64 30 31 52 0D  ..b...b...fd01R.
0600: 80 F0 FF FF 7F F0 FF FF  7F 32 6D 64 30 52 0D 80  .........2md0R..
0610: F0 FF FF 7F F0 FF FF 7F  32 68 69 30 52 0D 80 F0  ........2hi0R...
0620: FF FF 7F F0 FF FF 7F 32  73 68 30 45 0D 80 F0 FF  .......2sh0E....
0630: FF 7F F0 FF FF 7F 30 32  30 32 01 80 4A 63 93 05  ......0202..Jc..
0640: 01 F0 FF FF 7F 7B 62 93  05 01 81 00 62 93 05 01  .....{b.....b...
0650: 7C 00 62 93 05 01 5B 37  80 62 93 05 01 62 93 05  |.b...[7.b...b..
0660: 01 6B 69 61 30 2B 62 93  05 01 38 80 1C 17 80 5B  .kia0+b...8....[
0670: 0B 80 62 93 05 01 62 93  05 01 66 64 30 30 23 02  ..b...b...fd00#.
0680: 02 10 30 80 80 9B 06 45  0D 80 F0 FF FF 7F F0 FF  ..0....E........
0690: FF 7F 32 66 6D 30 01 80  01 5F 07 02 02 10 31 80  ..2fm0..._....1.
06A0: 80 B7 06 45 0D 80 F0 FF  FF 7F F0 FF FF 7F 32 66  ...E..........2f
06B0: 68 30 01 80 01 5F 07 02  02 10 32 80 80 D3 06 45  h0..._....2....E
06C0: 0D 80 F0 FF FF 7F F0 FF  FF 7F 32 65 6D 30 01 80  ..........2em0..
06D0: 01 5F 07 02 02 10 33 80  80 EF 06 45 0D 80 F0 FF  ._....3....E....
06E0: FF 7F F0 FF FF 7F 32 65  68 30 01 80 01 5F 07 02  ......2eh0..._..
06F0: 02 10 12 80 80 0B 07 45  0D 80 F0 FF FF 7F F0 FF  .......E........
0700: FF 7F 32 74 72 30 01 80  01 5F 07 02 02 10 13 80  ..2tr0..._......
0710: 80 27 07 45 0D 80 F0 FF  FF 7F F0 FF FF 7F 32 74  .'.E..........2t
0720: 72 30 01 80 01 5F 07 02  02 10 1A 80 80 43 07 45  r0..._.......C.E
0730: 0D 80 F0 FF FF 7F F0 FF  FF 7F 32 6D 74 30 01 80  ..........2mt0..
0740: 01 5F 07 02 02 10 34 80  80 5F 07 45 0D 80 F0 FF  ._....4.._.E....
0750: FF 7F F0 FF FF 7F 32 67  6C 30 01 80 01 5F 07 81  ......2gl0..._..
0760: 01 62 93 05 01 7C 01 62  93 05 01 5B 0B 80 62 93  .b...|.b...[..b.
0770: 05 01 62 93 05 01 66 30  30 30 4A 62 93 05 01 F0  ..b...f000Jb....
0780: FF FF 7F 24 39 80 30 80  01 80 25 02 00 10 30 80  ...$9.0...%...0.
0790: 00 63 08 6E F0 FF FF 7F  13 80 99 F0 FF FF 7F 6B  .c.n...........k
07A0: 69 64 6C 30 62 93 05 01  1C 0F 80 52 0D 80 F0 FF  idl0b......R....
07B0: FF 7F F0 FF FF 7F 32 66  6D 30 52 0D 80 F0 FF FF  ......2fm0R.....
07C0: 7F F0 FF FF 7F 32 66 68  30 52 0D 80 F0 FF FF 7F  .....2fh0R......
07D0: F0 FF FF 7F 32 65 6D 30  52 0D 80 F0 FF FF 7F F0  ....2em0R.......
07E0: FF FF 7F 32 65 68 30 52  0D 80 F0 FF FF 7F F0 FF  ...2eh0R........
07F0: FF 7F 32 74 72 30 52 0D  80 F0 FF FF 7F F0 FF FF  ..2tr0R.........
0800: 7F 32 6D 74 30 52 0D 80  F0 FF FF 7F F0 FF FF 7F  .2mt0R..........
0810: 32 67 6C 30 45 0D 80 F0  FF FF 7F F0 FF FF 7F 30  2gl0E..........0
0820: 32 30 33 01 80 5B 35 80  62 93 05 01 62 93 05 01  203..[5.b...b...
0830: 74 6C 61 30 2B 62 93 05  01 3A 80 23 6E F0 FF FF  tla0+b...:.#n...
0840: 7F 1A 80 99 F0 FF FF 7F  5B 35 80 62 93 05 01 62  ........[5.b...b
0850: 93 05 01 74 6C 61 31 1C  02 80 06 01 10 01 FE 09  ...tla1.........
0860: 01 63 08 6E F0 FF FF 7F  3B 80 99 F0 FF FF 7F 6B  .c.n....;......k
0870: 69 64 6C 30 62 93 05 01  7B 63 93 05 01 4B 63 93  idl0b...{c...Kc.
0880: 05 01 3C 80 1C 0F 80 1C  02 80 52 0D 80 F0 FF FF  ..<.......R.....
0890: 7F F0 FF FF 7F 32 66 6D  30 52 0D 80 F0 FF FF 7F  .....2fm0R......
08A0: F0 FF FF 7F 32 66 68 30  52 0D 80 F0 FF FF 7F F0  ....2fh0R.......
08B0: FF FF 7F 32 65 6D 30 52  0D 80 F0 FF FF 7F F0 FF  ...2em0R........
08C0: FF 7F 32 65 68 30 52 0D  80 F0 FF FF 7F F0 FF FF  ..2eh0R.........
08D0: 7F 32 74 72 30 52 0D 80  F0 FF FF 7F F0 FF FF 7F  .2tr0R..........
08E0: 32 6D 74 30 52 0D 80 F0  FF FF 7F F0 FF FF 7F 32  2mt0R..........2
08F0: 67 6C 30 45 0D 80 F0 FF  FF 7F F0 FF FF 7F 30 32  gl0E..........02
0900: 30 34 01 80 5B 35 80 62  93 05 01 62 93 05 01 74  04..[5.b...b...t
0910: 6C 61 30 2B 62 93 05 01  3D 80 23 5B 35 80 62 93  la0+b...=.#[5.b.
0920: 05 01 62 93 05 01 74 6C  61 31 5B 3E 80 63 93 05  ..b...tla1[>.c..
0930: 01 63 93 05 01 6D 72 72  30 1C 0E 80 CD 3F 80 F0  .c...mrr0....?..
0940: FF FF 7F F0 FF FF 7F 73  74 30 31 01 80 1C 02 80  .......st01.....
0950: CD 3F 80 62 93 05 01 62  93 05 01 73 74 30 31 01  .?.b...b...st01.
0960: 80 1C 0E 80 52 0D 80 F0  FF FF 7F F0 FF FF 7F 30  ....R..........0
0970: 32 30 34 45 0D 80 F0 FF  FF 7F F0 FF FF 7F 30 32  204E..........02
0980: 30 35 01 80 4B 62 93 05  01 40 80 4B F0 FF FF 7F  05..Kb...@.K....
0990: 41 80 5B 3E 80 63 93 05  01 63 93 05 01 6D 72 72  A.[>.c...c...mrr
09A0: 31 1C 02 80 BB 42 80 63  93 05 01 63 93 05 01 73  1....B.c...c...s
09B0: 74 30 33 01 80 1C 02 80  CD 3F 80 F0 FF FF 7F F0  t03......?......
09C0: FF FF 7F 73 74 30 32 01  80 1C 02 80 4B 63 93 05  ...st02.....Kc..
09D0: 01 43 80 CD 3F 80 62 93  05 01 62 93 05 01 73 74  .C..?.b...b...st
09E0: 30 32 01 80 1C 0F 80 BB  42 80 63 93 05 01 63 93  02......B.c...c.
09F0: 05 01 73 74 30 32 01 80  1C 0E 80 05 01 10 1A 4E  ..st02.........N
0A00: 10 81 01 62 93 05 01 7C  01 62 93 05 01 52 0D 80  ...b...|.b...R..
0A10: F0 FF FF 7F F0 FF FF 7F  30 32 30 33 52 0D 80 F0  ........0203R...
0A20: FF FF 7F F0 FF FF 7F 30  32 30 34 45 1B 80 F0 FF  .......0204E....
0A30: FF 7F F0 FF FF 7F 62 6C  6F 66 01 80 1C 1C 80 AB  ......blof......
0A40: 11 01 80 5D 1D 80 02 80  1C 1C 80 27 10 F0 FF FF  ...].......'....
0A50: 7F 39 1C 1C 80 02 01 10  30 80 00 68 0A 02 01 00  .9......0..h....
0A60: 01 80 00 68 0A 30 21 00  46 00 45 1B 80 F0 FF FF  ...h.0!.F.E.....
0A70: 7F F0 FF FF 7F 66 64 69  32 01 80 21 00           .....fdi2..!.   
```

#### Opcodes

```
  0: 0x03A9 [0x42] SET_CLI_EVENT_CANCEL_DATA()
  1: 0x03AA [0x03] ExtData[1]->WorkLocal[0] = Work_Zone[8]
  2: 0x03AF [0x03] ExtData[1]->WorkLocal[1] = Work_Zone[9]
  3: 0x03B4 [0x1A] CALL_SUBROUTINE(address=0x104E)
  4: 0x03B7 [0x46] CAMERA_CONTROL: Disable user control
  5: 0x03B9 [0x38] SET_CLIENT_EVENT_MODE(mode=19*)
  6: 0x03BC [0x5D] SET_MUSIC_VOLUME(volume=0*, fade_time=60*)
  7: 0x03C1 [0x2F] Lilisette (ID: 17142626/0x01059362)->Render.Flags0 &= ~0x80000 // Bit 19
  8: 0x03C7 [0x2F] Cait Sith (ID: 17142627/0x01059363)->Render.Flags0 &= ~0x80000 // Bit 19
  9: 0x03CD [0x4E] SET_ENTITY_HIDE_FLAG: Show Lilisette (ID: 17142626/0x01059362)
 10: 0x03D3 [0x4E] SET_ENTITY_HIDE_FLAG: Show Cait Sith (ID: 17142627/0x01059363)
 11: 0x03D9 [0x92] Lilisette (ID: 17142626/0x01059362)->Render.Flags3 ^= 0x01
 12: 0x03DF [0x92] Cait Sith (ID: 17142627/0x01059363)->Render.Flags3 ^= 0x01
 13: 0x03E5 [0x94] LocalPlayer->Render.Flags3 ^= 0x01
 14: 0x03EB [0x94] Lilisette (ID: 17142626/0x01059362)->Render.Flags3 ^= 0x01
 15: 0x03F1 [0x94] Cait Sith (ID: 17142627/0x01059363)->Render.Flags3 ^= 0x01
 16: 0x03F7 [0xBA] SET_ENTITY_POSITION(entity_id=LocalPlayer, pos_x=-136.572*, pos_z=560.306*, pos_y=-7.218*, direction=246.0°*)
 17: 0x0404 [0xBA] SET_ENTITY_POSITION(entity_id=Lilisette (ID: 17142626/0x01059362), pos_x=-128.117*, pos_z=561.859*, pos_y=-7.681*, direction=246.0°*)
 18: 0x0411 [0xBA] SET_ENTITY_POSITION(entity_id=Cait Sith (ID: 17142627/0x01059363), pos_x=-128.114*, pos_z=560.517*, pos_y=-7.765*, direction=246.0°*)
 19: 0x041E [0x7B] LocalPlayer stops talking
 20: 0x0423 [0x80] LOAD_WAIT(entity=LocalPlayer)
 21: 0x0428 [0x1C] WAIT(60* ticks)
 22: 0x042B [0x4A] Lilisette (ID: 17142626/0x01059362) looks at Cait Sith (ID: 17142627/0x01059363)
 23: 0x0434 [0x4A] Cait Sith (ID: 17142627/0x01059363) looks at Lilisette (ID: 17142626/0x01059362)
 24: 0x043D [0x1C] WAIT(60* ticks)
 25: 0x0440 [0x27] REQ_SET(priority=0x10, entity_id=LocalPlayer, tag_num=0x36)
 26: 0x0447 [0x45] LOAD_SCHEDULED_TASK: Load scheduler "0200" with entities [LocalPlayer, LocalPlayer], work=[551*, 0*]
 27: 0x0458 [0x1A] CALL_SUBROUTINE(address=0x102D)
 28: 0x045B [0x1C] WAIT(90* ticks)
 29: 0x045E [0x4A] Lilisette (ID: 17142626/0x01059362) looks at LocalPlayer
 30: 0x0467 [0x4A] Cait Sith (ID: 17142627/0x01059363) looks at LocalPlayer
 31: 0x0470 [0x1C] WAIT(150* ticks)
 32: 0x0473 [0x52] END_LOAD_SCHEDULER: End scheduler "0200" with entities [LocalPlayer, LocalPlayer], work=551*
 33: 0x0482 [0x02] IF !(ExtData[1]->WorkLocal[0] == 0*) GOTO 0x062B
 34: 0x048A [0x45] LOAD_SCHEDULED_TASK: Load scheduler "0201" with entities [LocalPlayer, LocalPlayer], work=[551*, 0*]
 35: 0x049B [0x5B] LOAD_EXT_SCHEDULER: Load scheduler "ude0" with entities [Cait Sith (ID: 17142627/0x01059363), Cait Sith (ID: 17142627/0x01059363)], work=1412*
 36: 0x04AA [0x2B] Cait Sith (ID: 17142627/0x01059363) [8371*]:
    → "Welcome back, <Player>. Good to see you return."
 37: 0x04B1 [0x23] WAIT_FOR_DIALOG_INTERACTION
 38: 0x04B2 [0x2A] GET_REQ_LEVEL(level=16, entity_id=LocalPlayer)
 39: 0x04B8 [0x52] END_LOAD_SCHEDULER: End scheduler "0201" with entities [LocalPlayer, LocalPlayer], work=551*
 40: 0x04C7 [0x29] REQ_SET_WAIT(priority=0x10, entity_id=LocalPlayer, tag_num=0x21)
 41: 0x04CE [0x02] IF !(Work_Zone[2] == 1*) GOTO 0x04EA
 42: 0x04D6 [0x45] LOAD_SCHEDULED_TASK: Load scheduler "2md0" with entities [LocalPlayer, LocalPlayer], work=[551*, 0*]
 43: 0x04E7 [0x01] GOTO 0x05AE
 44: 0x04EA [0x02] IF !(Work_Zone[2] == 2*) GOTO 0x0506
 45: 0x04F2 [0x45] LOAD_SCHEDULED_TASK: Load scheduler "2md0" with entities [LocalPlayer, LocalPlayer], work=[551*, 0*]
 46: 0x0503 [0x01] GOTO 0x05AE
 47: 0x0506 [0x02] IF !(Work_Zone[2] == 3*) GOTO 0x0522
 48: 0x050E [0x45] LOAD_SCHEDULED_TASK: Load scheduler "2hi0" with entities [LocalPlayer, LocalPlayer], work=[551*, 0*]
 49: 0x051F [0x01] GOTO 0x05AE
 50: 0x0522 [0x02] IF !(Work_Zone[2] == 4*) GOTO 0x053E
 51: 0x052A [0x45] LOAD_SCHEDULED_TASK: Load scheduler "2hi0" with entities [LocalPlayer, LocalPlayer], work=[551*, 0*]
 52: 0x053B [0x01] GOTO 0x05AE
 53: 0x053E [0x02] IF !(Work_Zone[2] == 5*) GOTO 0x055A
 54: 0x0546 [0x45] LOAD_SCHEDULED_TASK: Load scheduler "2sh0" with entities [LocalPlayer, LocalPlayer], work=[551*, 0*]
 55: 0x0557 [0x01] GOTO 0x05AE
 56: 0x055A [0x02] IF !(Work_Zone[2] == 6*) GOTO 0x0576
 57: 0x0562 [0x45] LOAD_SCHEDULED_TASK: Load scheduler "2sh0" with entities [LocalPlayer, LocalPlayer], work=[551*, 0*]
 58: 0x0573 [0x01] GOTO 0x05AE
 59: 0x0576 [0x02] IF !(Work_Zone[2] == 7*) GOTO 0x0592
 60: 0x057E [0x45] LOAD_SCHEDULED_TASK: Load scheduler "2md0" with entities [LocalPlayer, LocalPlayer], work=[551*, 0*]
 61: 0x058F [0x01] GOTO 0x05AE
 62: 0x0592 [0x02] IF !(Work_Zone[2] == 8*) GOTO 0x05AE
 63: 0x059A [0x45] LOAD_SCHEDULED_TASK: Load scheduler "2hi0" with entities [LocalPlayer, LocalPlayer], work=[551*, 0*]
 64: 0x05AB [0x01] GOTO 0x05AE

SUBROUTINE_05AE:
 65: 0x05AE [0x5B] LOAD_EXT_SCHEDULER: Load scheduler "ude1" with entities [Cait Sith (ID: 17142627/0x01059363), Cait Sith (ID: 17142627/0x01059363)], work=1412*
 66: 0x05BD [0x5B] LOAD_EXT_SCHEDULER: Load scheduler "tla0" with entities [Lilisette (ID: 17142626/0x01059362), Lilisette (ID: 17142626/0x01059362)], work=2134*
 67: 0x05CC [0x4A] LocalPlayer looks at Lilisette (ID: 17142626/0x01059362)
 68: 0x05D5 [0x2B] Lilisette (ID: 17142626/0x01059362) [8372*]:
    → "You don't have to worry about me anymore. I'm feeling fabulous, as only a newborn could!"
 69: 0x05DC [0x23] WAIT_FOR_DIALOG_INTERACTION
 70: 0x05DD [0x5B] LOAD_EXT_SCHEDULER: Load scheduler "tla1" with entities [Lilisette (ID: 17142626/0x01059362), Lilisette (ID: 17142626/0x01059362)], work=2134*
 71: 0x05EC [0x1C] WAIT(90* ticks)
 72: 0x05EF [0x5B] LOAD_EXT_SCHEDULER: Load scheduler "fd01" with entities [Lilisette (ID: 17142626/0x01059362), Lilisette (ID: 17142626/0x01059362)], work=2135*
 73: 0x05FE [0x52] END_LOAD_SCHEDULER: End scheduler "2md0" with entities [LocalPlayer, LocalPlayer], work=551*
 74: 0x060D [0x52] END_LOAD_SCHEDULER: End scheduler "2hi0" with entities [LocalPlayer, LocalPlayer], work=551*
 75: 0x061C [0x52] END_LOAD_SCHEDULER: End scheduler "2sh0" with entities [LocalPlayer, LocalPlayer], work=551*
 76: 0x062B [0x45] LOAD_SCHEDULED_TASK: Load scheduler "0202" with entities [LocalPlayer, LocalPlayer], work=[551*, 0*]
 77: 0x063C [0x4A] Cait Sith (ID: 17142627/0x01059363) looks at LocalPlayer
 78: 0x0645 [0x7B] Lilisette (ID: 17142626/0x01059362) stops talking
 79: 0x064A [0x81] SET_ENTITY_BLINKING(blink_flag=0x00, entity=Lilisette (ID: 17142626/0x01059362))
 80: 0x0650 [0x7C] Lilisette (ID: 17142626/0x01059362)->Render.Flags2 |= 0x00
 81: 0x0656 [0x5B] LOAD_EXT_SCHEDULER: Load scheduler "kia0" with entities [Lilisette (ID: 17142626/0x01059362), Lilisette (ID: 17142626/0x01059362)], work=2245*
 82: 0x0665 [0x2B] Lilisette (ID: 17142626/0x01059362) [8373*]:
    → "How about yourself, <Player>? Are you ready for the final leg of our journey?"
 83: 0x066C [0x1C] WAIT(150* ticks)
 84: 0x066F [0x5B] LOAD_EXT_SCHEDULER: Load scheduler "fd00" with entities [Lilisette (ID: 17142626/0x01059362), Lilisette (ID: 17142626/0x01059362)], work=2135*
 85: 0x067E [0x23] WAIT_FOR_DIALOG_INTERACTION
 86: 0x067F [0x02] IF !(Work_Zone[2] == 1*) GOTO 0x069B
 87: 0x0687 [0x45] LOAD_SCHEDULED_TASK: Load scheduler "2fm0" with entities [LocalPlayer, LocalPlayer], work=[551*, 0*]
 88: 0x0698 [0x01] GOTO 0x075F
 89: 0x069B [0x02] IF !(Work_Zone[2] == 2*) GOTO 0x06B7
 90: 0x06A3 [0x45] LOAD_SCHEDULED_TASK: Load scheduler "2fh0" with entities [LocalPlayer, LocalPlayer], work=[551*, 0*]
 91: 0x06B4 [0x01] GOTO 0x075F
 92: 0x06B7 [0x02] IF !(Work_Zone[2] == 3*) GOTO 0x06D3
 93: 0x06BF [0x45] LOAD_SCHEDULED_TASK: Load scheduler "2em0" with entities [LocalPlayer, LocalPlayer], work=[551*, 0*]
 94: 0x06D0 [0x01] GOTO 0x075F
 95: 0x06D3 [0x02] IF !(Work_Zone[2] == 4*) GOTO 0x06EF
 96: 0x06DB [0x45] LOAD_SCHEDULED_TASK: Load scheduler "2eh0" with entities [LocalPlayer, LocalPlayer], work=[551*, 0*]
 97: 0x06EC [0x01] GOTO 0x075F
 98: 0x06EF [0x02] IF !(Work_Zone[2] == 5*) GOTO 0x070B
 99: 0x06F7 [0x45] LOAD_SCHEDULED_TASK: Load scheduler "2tr0" with entities [LocalPlayer, LocalPlayer], work=[551*, 0*]
100: 0x0708 [0x01] GOTO 0x075F
101: 0x070B [0x02] IF !(Work_Zone[2] == 6*) GOTO 0x0727
102: 0x0713 [0x45] LOAD_SCHEDULED_TASK: Load scheduler "2tr0" with entities [LocalPlayer, LocalPlayer], work=[551*, 0*]
103: 0x0724 [0x01] GOTO 0x075F
104: 0x0727 [0x02] IF !(Work_Zone[2] == 7*) GOTO 0x0743
105: 0x072F [0x45] LOAD_SCHEDULED_TASK: Load scheduler "2mt0" with entities [LocalPlayer, LocalPlayer], work=[551*, 0*]
106: 0x0740 [0x01] GOTO 0x075F
107: 0x0743 [0x02] IF !(Work_Zone[2] == 8*) GOTO 0x075F
108: 0x074B [0x45] LOAD_SCHEDULED_TASK: Load scheduler "2gl0" with entities [LocalPlayer, LocalPlayer], work=[551*, 0*]
109: 0x075C [0x01] GOTO 0x075F

SUBROUTINE_075F:
110: 0x075F [0x81] SET_ENTITY_BLINKING(blink_flag=0x01, entity=Lilisette (ID: 17142626/0x01059362))
111: 0x0765 [0x7C] Lilisette (ID: 17142626/0x01059362)->Render.Flags2 |= 0x01
112: 0x076B [0x5B] LOAD_EXT_SCHEDULER: Load scheduler "f000" with entities [Lilisette (ID: 17142626/0x01059362), Lilisette (ID: 17142626/0x01059362)], work=2135*
113: 0x077A [0x4A] Lilisette (ID: 17142626/0x01059362) looks at LocalPlayer
114: 0x0783 [0x24] CREATE_DIALOG(message_id=8374*, default_option=1*, option_flags=0*)
    → "Ready to face destiny? [Ready as I'll ever be!/Not quite.]"
115: 0x078A [0x25] WAIT_DIALOG_SELECT()
116: 0x078B [0x02] IF !(Work_Zone[0] == 1*) GOTO 0x0863
117: 0x0793 [0x6E] LocalPlayer uses emote 6*
118: 0x079A [0x99] Wait for LocalPlayer animation to complete
119: 0x079F [0x6B] STOP_AND_IDLE: Lilisette (ID: 17142626/0x01059362) stops current action and resets to idle (animation="idl0")
120: 0x07A8 [0x1C] WAIT(120* ticks)
121: 0x07AB [0x52] END_LOAD_SCHEDULER: End scheduler "2fm0" with entities [LocalPlayer, LocalPlayer], work=551*
122: 0x07BA [0x52] END_LOAD_SCHEDULER: End scheduler "2fh0" with entities [LocalPlayer, LocalPlayer], work=551*
123: 0x07C9 [0x52] END_LOAD_SCHEDULER: End scheduler "2em0" with entities [LocalPlayer, LocalPlayer], work=551*
124: 0x07D8 [0x52] END_LOAD_SCHEDULER: End scheduler "2eh0" with entities [LocalPlayer, LocalPlayer], work=551*
125: 0x07E7 [0x52] END_LOAD_SCHEDULER: End scheduler "2tr0" with entities [LocalPlayer, LocalPlayer], work=551*
126: 0x07F6 [0x52] END_LOAD_SCHEDULER: End scheduler "2mt0" with entities [LocalPlayer, LocalPlayer], work=551*
127: 0x0805 [0x52] END_LOAD_SCHEDULER: End scheduler "2gl0" with entities [LocalPlayer, LocalPlayer], work=551*
128: 0x0814 [0x45] LOAD_SCHEDULED_TASK: Load scheduler "0203" with entities [LocalPlayer, LocalPlayer], work=[551*, 0*]
129: 0x0825 [0x5B] LOAD_EXT_SCHEDULER: Load scheduler "tla0" with entities [Lilisette (ID: 17142626/0x01059362), Lilisette (ID: 17142626/0x01059362)], work=2134*
130: 0x0834 [0x2B] Lilisette (ID: 17142626/0x01059362) [8375*]:
    → "Our preparedness could well determine the fate of the world, so take all the time you need. Cait Sith and I will be waiting right here."
131: 0x083B [0x23] WAIT_FOR_DIALOG_INTERACTION
132: 0x083C [0x6E] LocalPlayer uses emote 7*
133: 0x0843 [0x99] Wait for LocalPlayer animation to complete
134: 0x0848 [0x5B] LOAD_EXT_SCHEDULER: Load scheduler "tla1" with entities [Lilisette (ID: 17142626/0x01059362), Lilisette (ID: 17142626/0x01059362)], work=2134*
135: 0x0857 [0x1C] WAIT(60* ticks)
136: 0x085A [0x06] Work_Zone[1] = 0
137: 0x085D [0x01] GOTO 0x09FE

SUBROUTINE_0863:
138: 0x0863 [0x6E] LocalPlayer uses emote 36*
139: 0x086A [0x99] Wait for LocalPlayer animation to complete
140: 0x086F [0x6B] STOP_AND_IDLE: Lilisette (ID: 17142626/0x01059362) stops current action and resets to idle (animation="idl0")
141: 0x0878 [0x7B] Cait Sith (ID: 17142627/0x01059363) stops talking
142: 0x087D [0x4B] UPDATE_ENTITY_YAW(entity=Cait Sith (ID: 17142627/0x01059363), yaw=15.7°*)
143: 0x0884 [0x1C] WAIT(120* ticks)
144: 0x0887 [0x1C] WAIT(60* ticks)
145: 0x088A [0x52] END_LOAD_SCHEDULER: End scheduler "2fm0" with entities [LocalPlayer, LocalPlayer], work=551*
146: 0x0899 [0x52] END_LOAD_SCHEDULER: End scheduler "2fh0" with entities [LocalPlayer, LocalPlayer], work=551*
147: 0x08A8 [0x52] END_LOAD_SCHEDULER: End scheduler "2em0" with entities [LocalPlayer, LocalPlayer], work=551*
148: 0x08B7 [0x52] END_LOAD_SCHEDULER: End scheduler "2eh0" with entities [LocalPlayer, LocalPlayer], work=551*
149: 0x08C6 [0x52] END_LOAD_SCHEDULER: End scheduler "2tr0" with entities [LocalPlayer, LocalPlayer], work=551*
150: 0x08D5 [0x52] END_LOAD_SCHEDULER: End scheduler "2mt0" with entities [LocalPlayer, LocalPlayer], work=551*
151: 0x08E4 [0x52] END_LOAD_SCHEDULER: End scheduler "2gl0" with entities [LocalPlayer, LocalPlayer], work=551*
152: 0x08F3 [0x45] LOAD_SCHEDULED_TASK: Load scheduler "0204" with entities [LocalPlayer, LocalPlayer], work=[551*, 0*]
153: 0x0904 [0x5B] LOAD_EXT_SCHEDULER: Load scheduler "tla0" with entities [Lilisette (ID: 17142626/0x01059362), Lilisette (ID: 17142626/0x01059362)], work=2134*
154: 0x0913 [0x2B] Lilisette (ID: 17142626/0x01059362) [8376*]:
    → "Then let us be off."
155: 0x091A [0x23] WAIT_FOR_DIALOG_INTERACTION
156: 0x091B [0x5B] LOAD_EXT_SCHEDULER: Load scheduler "tla1" with entities [Lilisette (ID: 17142626/0x01059362), Lilisette (ID: 17142626/0x01059362)], work=2134*
157: 0x092A [0x5B] LOAD_EXT_SCHEDULER: Load scheduler "mrr0" with entities [Cait Sith (ID: 17142627/0x01059363), Cait Sith (ID: 17142627/0x01059363)], work=2474*
158: 0x0939 [0x1C] WAIT(180* ticks)
159: 0x093C [0xCD] LOAD_SCHEDULED_TASK_ALT4: Load scheduler "st01" with entities [LocalPlayer, LocalPlayer], work=[37*, 0*]
160: 0x094D [0x1C] WAIT(60* ticks)
161: 0x0950 [0xCD] LOAD_SCHEDULED_TASK_ALT4: Load scheduler "st01" with entities [Lilisette (ID: 17142626/0x01059362), Lilisette (ID: 17142626/0x01059362)], work=[37*, 0*]
162: 0x0961 [0x1C] WAIT(180* ticks)
163: 0x0964 [0x52] END_LOAD_SCHEDULER: End scheduler "0204" with entities [LocalPlayer, LocalPlayer], work=551*
164: 0x0973 [0x45] LOAD_SCHEDULED_TASK: Load scheduler "0205" with entities [LocalPlayer, LocalPlayer], work=[551*, 0*]
165: 0x0984 [0x4B] UPDATE_ENTITY_YAW(entity=Lilisette (ID: 17142626/0x01059362), yaw=14.1°*)
166: 0x098B [0x4B] UPDATE_ENTITY_YAW(entity=LocalPlayer, yaw=15.2°*)
167: 0x0992 [0x5B] LOAD_EXT_SCHEDULER: Load scheduler "mrr1" with entities [Cait Sith (ID: 17142627/0x01059363), Cait Sith (ID: 17142627/0x01059363)], work=2474*
168: 0x09A1 [0x1C] WAIT(60* ticks)
169: 0x09A4 [0xBB] LOAD_EVENT_SCHEDULER_ALT: Load scheduler "st03" with entities [Cait Sith (ID: 17142627/0x01059363), Cait Sith (ID: 17142627/0x01059363)], work=[195*, 0*]
170: 0x09B5 [0x1C] WAIT(60* ticks)
171: 0x09B8 [0xCD] LOAD_SCHEDULED_TASK_ALT4: Load scheduler "st02" with entities [LocalPlayer, LocalPlayer], work=[37*, 0*]
172: 0x09C9 [0x1C] WAIT(60* ticks)
173: 0x09CC [0x4B] UPDATE_ENTITY_YAW(entity=Cait Sith (ID: 17142627/0x01059363), yaw=14.7°*)
174: 0x09D3 [0xCD] LOAD_SCHEDULED_TASK_ALT4: Load scheduler "st02" with entities [Lilisette (ID: 17142626/0x01059362), Lilisette (ID: 17142626/0x01059362)], work=[37*, 0*]
175: 0x09E4 [0x1C] WAIT(120* ticks)
176: 0x09E7 [0xBB] LOAD_EVENT_SCHEDULER_ALT: Load scheduler "st02" with entities [Cait Sith (ID: 17142627/0x01059363), Cait Sith (ID: 17142627/0x01059363)], work=[195*, 0*]
177: 0x09F8 [0x1C] WAIT(180* ticks)
178: 0x09FB [0x05] Work_Zone[1] = 1

SUBROUTINE_09FE:
179: 0x09FE [0x1A] CALL_SUBROUTINE(address=0x104E)
180: 0x0A01 [0x81] SET_ENTITY_BLINKING(blink_flag=0x01, entity=Lilisette (ID: 17142626/0x01059362))
181: 0x0A07 [0x7C] Lilisette (ID: 17142626/0x01059362)->Render.Flags2 |= 0x01
182: 0x0A0D [0x52] END_LOAD_SCHEDULER: End scheduler "0203" with entities [LocalPlayer, LocalPlayer], work=551*
183: 0x0A1C [0x52] END_LOAD_SCHEDULER: End scheduler "0204" with entities [LocalPlayer, LocalPlayer], work=551*
184: 0x0A2B [0x45] LOAD_SCHEDULED_TASK: Load scheduler "blof" with entities [LocalPlayer, LocalPlayer], work=[200*, 0*]
185: 0x0A3C [0x1C] WAIT(15* ticks)
186: 0x0A3F [0xAB] EventEntity->DespawnValue = 0* // Set despawn value
187: 0x0A43 [0x5D] SET_MUSIC_VOLUME(volume=127*, fade_time=60*)
188: 0x0A48 [0x1C] WAIT(15* ticks)
189: 0x0A4B [0x27] REQ_SET(priority=0x10, entity_id=LocalPlayer, tag_num=0x39)
190: 0x0A52 [0x1C] WAIT(15* ticks)
191: 0x0A55 [0x02] IF !(Work_Zone[1] == 1*) GOTO 0x0A68
192: 0x0A5D [0x02] IF !(ExtData[1]->WorkLocal[1] == 0*) GOTO 0x0A68
193: 0x0A65 [0x30] SET_UCOFF_CONTINUE_ZERO()
194: 0x0A66 [0x21] END_EVENT
195: 0x0A67 [0x00] END_REQSTACK()
196: 0x0A68 [0x46] CAMERA_CONTROL: Restore default settings
197: 0x0A6A [0x45] LOAD_SCHEDULED_TASK: Load scheduler "fdi2" with entities [LocalPlayer, LocalPlayer], work=[200*, 0*]
198: 0x0A7B [0x21] END_EVENT
199: 0x0A7C [0x00] END_REQSTACK()
```

#### Data or dead code:

```
# Dead code (unreachable instructions):
     0x0860 [0x01] GOTO 0x0863
```

### Event 44

#### Metadata

| Field        | Value     |
|--------------|-----------|
| Entrypoint   | 0x0A7D    |
| Data Size    | 666 bytes |
| Instructions | 80        |

```
      00 01 02 03 04 05 06 07  08 09 0A 0B 0C 0D 0E 0F
      -- -- -- -- -- -- -- --  -- -- -- -- -- -- -- --
0A70:                                         42 1A 4E               B.N
0A80: 10 46 01 38 00 80 5D 01  80 02 80 27 10 63 93 05  .F.8..]....'.c..
0A90: 01 02 2F 00 67 93 05 01  4E 00 67 93 05 01 92 01  ../.g...N.g.....
0AA0: 67 93 05 01 92 01 63 93  05 01 94 01 F0 FF FF 7F  g.....c.........
0AB0: 94 01 63 93 05 01 94 01  F0 FF FF 7F 94 01 67 93  ..c...........g.
0AC0: 05 01 59 05 63 93 05 01  01 BA F0 FF FF 7F 44 80  ..Y.c.........D.
0AD0: 45 80 46 80 47 80 7B F0  FF FF 7F 80 F0 FF FF 7F  E.F.G.{.........
0AE0: 80 67 93 05 01 4A F0 FF  FF 7F 67 93 05 01 79 00  .g...J....g...y.
0AF0: F0 FF FF 7F F0 FF FF 7F  1C 02 80 29 10 F0 FF FF  ...........)....
0B00: 7F 21 1C 02 80 45 0D 80  F0 FF FF 7F F0 FF FF 7F  .!...E..........
0B10: 30 32 31 30 01 80 1A 2D  10 1C 17 80 CD 2D 80 F0  0210...-.....-..
0B20: FF FF 7F 63 93 05 01 62  30 30 30 01 80 1C 02 80  ...c...b000.....
0B30: 52 0D 80 F0 FF FF 7F F0  FF FF 7F 30 32 31 30 02  R..........0210.
0B40: 02 10 30 80 80 68 0B 45  0D 80 F0 FF FF 7F F0 FF  ..0..h.E........
0B50: FF 7F 30 32 31 31 01 80  BA 63 93 05 01 48 80 49  ..0211...c...H.I
0B60: 80 4A 80 01 80 01 87 0C  02 02 10 31 80 80 91 0B  .J.........1....
0B70: 45 0D 80 F0 FF FF 7F F0  FF FF 7F 30 32 31 31 01  E..........0211.
0B80: 80 BA 63 93 05 01 48 80  49 80 4A 80 01 80 01 87  ..c...H.I.J.....
0B90: 0C 02 02 10 32 80 80 BA  0B 45 0D 80 F0 FF FF 7F  ....2....E......
0BA0: F0 FF FF 7F 30 32 31 32  01 80 BA 63 93 05 01 48  ....0212...c...H
0BB0: 80 49 80 4B 80 01 80 01  87 0C 02 02 10 33 80 80  .I.K.........3..
0BC0: E3 0B 45 0D 80 F0 FF FF  7F F0 FF FF 7F 30 32 31  ..E..........021
0BD0: 32 01 80 BA 63 93 05 01  48 80 49 80 4B 80 01 80  2...c...H.I.K...
0BE0: 01 87 0C 02 02 10 12 80  80 0C 0C 45 0D 80 F0 FF  ...........E....
0BF0: FF 7F F0 FF FF 7F 30 32  31 33 01 80 BA 63 93 05  ......0213...c..
0C00: 01 48 80 49 80 4A 80 01  80 01 87 0C 02 02 10 13  .H.I.J..........
0C10: 80 80 35 0C 45 0D 80 F0  FF FF 7F F0 FF FF 7F 30  ..5.E..........0
0C20: 32 31 33 01 80 BA 63 93  05 01 48 80 49 80 4A 80  213...c...H.I.J.
0C30: 01 80 01 87 0C 02 02 10  1A 80 80 5E 0C 45 0D 80  ...........^.E..
0C40: F0 FF FF 7F F0 FF FF 7F  30 32 31 31 01 80 BA 63  ........0211...c
0C50: 93 05 01 48 80 49 80 4A  80 01 80 01 87 0C 02 02  ...H.I.J........
0C60: 10 34 80 80 87 0C 45 0D  80 F0 FF FF 7F F0 FF FF  .4....E.........
0C70: 7F 30 32 31 32 01 80 BA  63 93 05 01 48 80 49 80  .0212...c...H.I.
0C80: 4B 80 01 80 01 87 0C 1C  4C 80 CD 2D 80 F0 FF FF  K.......L..-....
0C90: 7F 63 93 05 01 62 30 30  31 01 80 1C 4D 80 CD 2D  .c...b001...M..-
0CA0: 80 F0 FF FF 7F 63 93 05  01 62 30 30 32 01 80 1C  .....c...b002...
0CB0: 0E 80 1A 4E 10 52 0D 80  F0 FF FF 7F F0 FF FF 7F  ...N.R..........
0CC0: 30 32 31 31 52 0D 80 F0  FF FF 7F F0 FF FF 7F 30  0211R..........0
0CD0: 32 31 32 52 0D 80 F0 FF  FF 7F F0 FF FF 7F 30 32  212R..........02
0CE0: 31 33 45 1B 80 F0 FF FF  7F F0 FF FF 7F 62 6C 6F  13E..........blo
0CF0: 66 01 80 1C 1C 80 AB 11  01 80 5D 1D 80 02 80 1C  f.........].....
0D00: 1C 80 46 00 45 1B 80 F0  FF FF 7F F0 FF FF 7F 66  ..F.E..........f
0D10: 64 69 32 01 80 21 00                              di2..!.         
```

#### Opcodes

```
  0: 0x0A7D [0x42] SET_CLI_EVENT_CANCEL_DATA()
  1: 0x0A7E [0x1A] CALL_SUBROUTINE(address=0x104E)
  2: 0x0A81 [0x46] CAMERA_CONTROL: Disable user control
  3: 0x0A83 [0x38] SET_CLIENT_EVENT_MODE(mode=19*)
  4: 0x0A86 [0x5D] SET_MUSIC_VOLUME(volume=0*, fade_time=60*)
  5: 0x0A8B [0x27] REQ_SET(priority=0x10, entity_id=Cait Sith (ID: 17142627/0x01059363), tag_num=0x02)
  6: 0x0A92 [0x2F] Veridical Conflux (ID: 17142631/0x01059367)->Render.Flags0 &= ~0x80000 // Bit 19
  7: 0x0A98 [0x4E] SET_ENTITY_HIDE_FLAG: Show Veridical Conflux (ID: 17142631/0x01059367)
  8: 0x0A9E [0x92] Veridical Conflux (ID: 17142631/0x01059367)->Render.Flags3 ^= 0x01
  9: 0x0AA4 [0x92] Cait Sith (ID: 17142627/0x01059363)->Render.Flags3 ^= 0x01
 10: 0x0AAA [0x94] LocalPlayer->Render.Flags3 ^= 0x01
 11: 0x0AB0 [0x94] Cait Sith (ID: 17142627/0x01059363)->Render.Flags3 ^= 0x01
 12: 0x0AB6 [0x94] LocalPlayer->Render.Flags3 ^= 0x01
 13: 0x0ABC [0x94] Veridical Conflux (ID: 17142631/0x01059367)->Render.Flags3 ^= 0x01
 14: 0x0AC2 [0x59] UPDATE_ENTITY_DATA: Cait Sith (ID: 17142627/0x01059363)->Render.Flags0 |= 0x200000
 15: 0x0AC9 [0xBA] SET_ENTITY_POSITION(entity_id=LocalPlayer, pos_x=-145.297*, pos_z=583.154*, pos_y=-6.750*, direction=329.1°*)
 16: 0x0AD6 [0x7B] LocalPlayer stops talking
 17: 0x0ADB [0x80] LOAD_WAIT(entity=LocalPlayer)
 18: 0x0AE0 [0x80] LOAD_WAIT(entity=Veridical Conflux (ID: 17142631/0x01059367))
 19: 0x0AE5 [0x4A] LocalPlayer looks at Veridical Conflux (ID: 17142631/0x01059367)
 20: 0x0AEE [0x79] LocalPlayer looks at LocalPlayer (Basic look)
 21: 0x0AF8 [0x1C] WAIT(60* ticks)
 22: 0x0AFB [0x29] REQ_SET_WAIT(priority=0x10, entity_id=LocalPlayer, tag_num=0x21)
 23: 0x0B02 [0x1C] WAIT(60* ticks)
 24: 0x0B05 [0x45] LOAD_SCHEDULED_TASK: Load scheduler "0210" with entities [LocalPlayer, LocalPlayer], work=[551*, 0*]
 25: 0x0B16 [0x1A] CALL_SUBROUTINE(address=0x102D)
 26: 0x0B19 [0x1C] WAIT(150* ticks)
 27: 0x0B1C [0xCD] LOAD_SCHEDULED_TASK_ALT4: Load scheduler "b000" with entities [LocalPlayer, Cait Sith (ID: 17142627/0x01059363)], work=[90*, 0*]
 28: 0x0B2D [0x1C] WAIT(60* ticks)
 29: 0x0B30 [0x52] END_LOAD_SCHEDULER: End scheduler "0210" with entities [LocalPlayer, LocalPlayer], work=551*
 30: 0x0B3F [0x02] IF !(Work_Zone[2] == 1*) GOTO 0x0B68
 31: 0x0B47 [0x45] LOAD_SCHEDULED_TASK: Load scheduler "0211" with entities [LocalPlayer, LocalPlayer], work=[551*, 0*]
 32: 0x0B58 [0xBA] SET_ENTITY_POSITION(entity_id=Cait Sith (ID: 17142627/0x01059363), pos_x=-144.631*, pos_z=583.591*, pos_y=-6.749*, direction=0.0°*)
 33: 0x0B65 [0x01] GOTO 0x0C87
 34: 0x0B68 [0x02] IF !(Work_Zone[2] == 2*) GOTO 0x0B91
 35: 0x0B70 [0x45] LOAD_SCHEDULED_TASK: Load scheduler "0211" with entities [LocalPlayer, LocalPlayer], work=[551*, 0*]
 36: 0x0B81 [0xBA] SET_ENTITY_POSITION(entity_id=Cait Sith (ID: 17142627/0x01059363), pos_x=-144.631*, pos_z=583.591*, pos_y=-6.749*, direction=0.0°*)
 37: 0x0B8E [0x01] GOTO 0x0C87
 38: 0x0B91 [0x02] IF !(Work_Zone[2] == 3*) GOTO 0x0BBA
 39: 0x0B99 [0x45] LOAD_SCHEDULED_TASK: Load scheduler "0212" with entities [LocalPlayer, LocalPlayer], work=[551*, 0*]
 40: 0x0BAA [0xBA] SET_ENTITY_POSITION(entity_id=Cait Sith (ID: 17142627/0x01059363), pos_x=-144.631*, pos_z=583.591*, pos_y=-7.000*, direction=0.0°*)
 41: 0x0BB7 [0x01] GOTO 0x0C87
 42: 0x0BBA [0x02] IF !(Work_Zone[2] == 4*) GOTO 0x0BE3
 43: 0x0BC2 [0x45] LOAD_SCHEDULED_TASK: Load scheduler "0212" with entities [LocalPlayer, LocalPlayer], work=[551*, 0*]
 44: 0x0BD3 [0xBA] SET_ENTITY_POSITION(entity_id=Cait Sith (ID: 17142627/0x01059363), pos_x=-144.631*, pos_z=583.591*, pos_y=-7.000*, direction=0.0°*)
 45: 0x0BE0 [0x01] GOTO 0x0C87
 46: 0x0BE3 [0x02] IF !(Work_Zone[2] == 5*) GOTO 0x0C0C
 47: 0x0BEB [0x45] LOAD_SCHEDULED_TASK: Load scheduler "0213" with entities [LocalPlayer, LocalPlayer], work=[551*, 0*]
 48: 0x0BFC [0xBA] SET_ENTITY_POSITION(entity_id=Cait Sith (ID: 17142627/0x01059363), pos_x=-144.631*, pos_z=583.591*, pos_y=-6.749*, direction=0.0°*)
 49: 0x0C09 [0x01] GOTO 0x0C87
 50: 0x0C0C [0x02] IF !(Work_Zone[2] == 6*) GOTO 0x0C35
 51: 0x0C14 [0x45] LOAD_SCHEDULED_TASK: Load scheduler "0213" with entities [LocalPlayer, LocalPlayer], work=[551*, 0*]
 52: 0x0C25 [0xBA] SET_ENTITY_POSITION(entity_id=Cait Sith (ID: 17142627/0x01059363), pos_x=-144.631*, pos_z=583.591*, pos_y=-6.749*, direction=0.0°*)
 53: 0x0C32 [0x01] GOTO 0x0C87
 54: 0x0C35 [0x02] IF !(Work_Zone[2] == 7*) GOTO 0x0C5E
 55: 0x0C3D [0x45] LOAD_SCHEDULED_TASK: Load scheduler "0211" with entities [LocalPlayer, LocalPlayer], work=[551*, 0*]
 56: 0x0C4E [0xBA] SET_ENTITY_POSITION(entity_id=Cait Sith (ID: 17142627/0x01059363), pos_x=-144.631*, pos_z=583.591*, pos_y=-6.749*, direction=0.0°*)
 57: 0x0C5B [0x01] GOTO 0x0C87
 58: 0x0C5E [0x02] IF !(Work_Zone[2] == 8*) GOTO 0x0C87
 59: 0x0C66 [0x45] LOAD_SCHEDULED_TASK: Load scheduler "0212" with entities [LocalPlayer, LocalPlayer], work=[551*, 0*]
 60: 0x0C77 [0xBA] SET_ENTITY_POSITION(entity_id=Cait Sith (ID: 17142627/0x01059363), pos_x=-144.631*, pos_z=583.591*, pos_y=-7.000*, direction=0.0°*)
 61: 0x0C84 [0x01] GOTO 0x0C87

SUBROUTINE_0C87:
 62: 0x0C87 [0x1C] WAIT(300* ticks)
 63: 0x0C8A [0xCD] LOAD_SCHEDULED_TASK_ALT4: Load scheduler "b001" with entities [LocalPlayer, Cait Sith (ID: 17142627/0x01059363)], work=[90*, 0*]
 64: 0x0C9B [0x1C] WAIT(240* ticks)
 65: 0x0C9E [0xCD] LOAD_SCHEDULED_TASK_ALT4: Load scheduler "b002" with entities [LocalPlayer, Cait Sith (ID: 17142627/0x01059363)], work=[90*, 0*]
 66: 0x0CAF [0x1C] WAIT(180* ticks)
 67: 0x0CB2 [0x1A] CALL_SUBROUTINE(address=0x104E)
 68: 0x0CB5 [0x52] END_LOAD_SCHEDULER: End scheduler "0211" with entities [LocalPlayer, LocalPlayer], work=551*
 69: 0x0CC4 [0x52] END_LOAD_SCHEDULER: End scheduler "0212" with entities [LocalPlayer, LocalPlayer], work=551*
 70: 0x0CD3 [0x52] END_LOAD_SCHEDULER: End scheduler "0213" with entities [LocalPlayer, LocalPlayer], work=551*
 71: 0x0CE2 [0x45] LOAD_SCHEDULED_TASK: Load scheduler "blof" with entities [LocalPlayer, LocalPlayer], work=[200*, 0*]
 72: 0x0CF3 [0x1C] WAIT(15* ticks)
 73: 0x0CF6 [0xAB] EventEntity->DespawnValue = 0* // Set despawn value
 74: 0x0CFA [0x5D] SET_MUSIC_VOLUME(volume=127*, fade_time=60*)
 75: 0x0CFF [0x1C] WAIT(15* ticks)
 76: 0x0D02 [0x46] CAMERA_CONTROL: Restore default settings
 77: 0x0D04 [0x45] LOAD_SCHEDULED_TASK: Load scheduler "fdi2" with entities [LocalPlayer, LocalPlayer], work=[200*, 0*]
 78: 0x0D15 [0x21] END_EVENT
 79: 0x0D16 [0x00] END_REQSTACK()
```

### Event 45

#### Metadata

| Field        | Value      |
|--------------|------------|
| Entrypoint   | 0x0D17     |
| Data Size    | 1381 bytes |
| Instructions | 99         |

```
      00 01 02 03 04 05 06 07  08 09 0A 0B 0C 0D 0E 0F
      -- -- -- -- -- -- -- --  -- -- -- -- -- -- -- --
0D10:                      42  1A 4E 10 46 01 38 00 80         B.N.F.8..
0D20: 5D 01 80 02 80 2F 00 67  93 05 01 2F 00 63 93 05  ]..../.g.../.c..
0D30: 01 4E 00 67 93 05 01 4E  00 63 93 05 01 92 01 63  .N.g...N.c.....c
0D40: 93 05 01 92 01 67 93 05  01 94 01 F0 FF FF 7F 94  .....g..........
0D50: 01 63 93 05 01 BA 63 93  05 01 4E 80 4F 80 50 80  .c....c...N.O.P.
0D60: 51 80 BA F0 FF FF 7F 44  80 45 80 46 80 47 80 7B  Q......D.E.F.G.{
0D70: F0 FF FF 7F 80 F0 FF FF  7F 4A F0 FF FF 7F 67 93  .........J....g.
0D80: 05 01 4A 63 93 05 01 F0  FF FF 7F 79 00 F0 FF FF  ..Jc.......y....
0D90: 7F F0 FF FF 7F 1C 02 80  29 10 F0 FF FF 7F 21 1C  ........).....!.
0DA0: 0F 80 45 0D 80 F0 FF FF  7F F0 FF FF 7F 30 32 31  ..E..........021
0DB0: 30 01 80 1A 2D 10 1C 0E  80 52 0D 80 F0 FF FF 7F  0...-....R......
0DC0: F0 FF FF 7F 30 32 31 30  02 02 10 30 80 80 E4 0D  ....0210...0....
0DD0: 45 0D 80 F0 FF FF 7F F0  FF FF 7F 30 32 31 34 01  E..........0214.
0DE0: 80 01 A8 0E 02 02 10 31  80 80 00 0E 45 0D 80 F0  .......1....E...
0DF0: FF FF 7F F0 FF FF 7F 30  32 31 34 01 80 01 A8 0E  .......0214.....
0E00: 02 02 10 32 80 80 1C 0E  45 0D 80 F0 FF FF 7F F0  ...2....E.......
0E10: FF FF 7F 30 32 31 35 01  80 01 A8 0E 02 02 10 33  ...0215........3
0E20: 80 80 38 0E 45 0D 80 F0  FF FF 7F F0 FF FF 7F 30  ..8.E..........0
0E30: 32 31 35 01 80 01 A8 0E  02 02 10 12 80 80 54 0E  215...........T.
0E40: 45 0D 80 F0 FF FF 7F F0  FF FF 7F 30 32 31 36 01  E..........0216.
0E50: 80 01 A8 0E 02 02 10 13  80 80 70 0E 45 0D 80 F0  ..........p.E...
0E60: FF FF 7F F0 FF FF 7F 30  32 31 36 01 80 01 A8 0E  .......0216.....
0E70: 02 02 10 1A 80 80 8C 0E  45 0D 80 F0 FF FF 7F F0  ........E.......
0E80: FF FF 7F 30 32 31 34 01  80 01 A8 0E 02 02 10 34  ...0214........4
0E90: 80 80 A8 0E 45 0D 80 F0  FF FF 7F F0 FF FF 7F 30  ....E..........0
0EA0: 32 31 35 01 80 01 A8 0E  03 02 10 52 80 2B 63 93  215........R.+c.
0EB0: 05 01 53 80 1C 02 80 4A  F0 FF FF 7F 63 93 05 01  ..S....J....c...
0EC0: 1C 11 80 27 10 63 93 05  01 21 1C 02 80 52 0D 80  ...'.c...!...R..
0ED0: F0 FF FF 7F F0 FF FF 7F  30 32 31 34 52 0D 80 F0  ........0214R...
0EE0: FF FF 7F F0 FF FF 7F 30  32 31 35 52 0D 80 F0 FF  .......0215R....
0EF0: FF 7F F0 FF FF 7F 30 32  31 36 45 0D 80 F0 FF FF  ......0216E.....
0F00: 7F F0 FF FF 7F 30 32 31  37 01 80 2A 10 63 93 05  .....0217..*.c..
0F10: 01 1C 02 80 23 52 0D 80  F0 FF FF 7F F0 FF FF 7F  ....#R..........
0F20: 30 32 31 37 45 0D 80 F0  FF FF 7F F0 FF FF 7F 30  0217E..........0
0F30: 32 31 38 01 80 81 00 63  93 05 01 5B 54 80 63 93  218....c...[T.c.
0F40: 05 01 63 93 05 01 68 6F  74 30 2B 63 93 05 01 55  ..c...hot0+c...U
0F50: 80 1C 56 80 23 52 0D 80  F0 FF FF 7F F0 FF FF 7F  ..V.#R..........
0F60: 30 32 31 38 45 0D 80 F0  FF FF 7F F0 FF FF 7F 30  0218E..........0
0F70: 32 31 39 01 80 5B 54 80  63 93 05 01 63 93 05 01  219..[T.c...c...
0F80: 68 6F 74 31 81 01 63 93  05 01 2B 63 93 05 01 57  hot1..c...+c...W
0F90: 80 1C 0F 80 23 6E F0 FF  FF 7F 1A 80 99 F0 FF FF  ....#n..........
0FA0: 7F 1C 02 80 1A 4E 10 52  0D 80 F0 FF FF 7F F0 FF  .....N.R........
0FB0: FF 7F 30 32 31 39 45 1B  80 F0 FF FF 7F F0 FF FF  ..0219E.........
0FC0: 7F 62 6C 6F 66 01 80 1C  1C 80 AB 11 01 80 5D 1D  .blof.........].
0FD0: 80 02 80 1C 1C 80 46 00  45 1B 80 F0 FF FF 7F F0  ......F.E.......
0FE0: FF FF 7F 66 64 69 32 01  80 21 00 45 1B 80 F0 FF  ...fdi2..!.E....
0FF0: FF 7F F0 FF FF 7F 66 64  69 30 01 80 55 1B 80 F0  ......fdi0..U...
1000: FF FF 7F F0 FF FF 7F 66  64 69 30 1B 45 1B 80 F0  .......fdi0.E...
1010: FF FF 7F F0 FF FF 7F 66  64 6F 30 01 80 55 1B 80  .......fdo0..U..
1020: F0 FF FF 7F F0 FF FF 7F  66 64 6F 30 1B 45 1B 80  ........fdo0.E..
1030: F0 FF FF 7F F0 FF FF 7F  66 64 69 31 01 80 55 1B  ........fdi1..U.
1040: 80 F0 FF FF 7F F0 FF FF  7F 66 64 69 31 1B 45 1B  .........fdi1.E.
1050: 80 F0 FF FF 7F F0 FF FF  7F 66 64 6F 31 01 80 55  .........fdo1..U
1060: 1B 80 F0 FF FF 7F F0 FF  FF 7F 66 64 6F 31 1B 45  ..........fdo1.E
1070: 58 80 F0 FF FF 7F F0 FF  FF 7F 77 68 69 31 01 80  X.........whi1..
1080: 55 58 80 F0 FF FF 7F F0  FF FF 7F 77 68 69 31 1B  UX.........whi1.
1090: 45 58 80 F0 FF FF 7F F0  FF FF 7F 77 68 6F 31 01  EX.........who1.
10A0: 80 55 58 80 F0 FF FF 7F  F0 FF FF 7F 77 68 6F 31  .UX.........who1
10B0: 1B 45 58 80 F0 FF FF 7F  F0 FF FF 7F 77 68 6F 32  .EX.........who2
10C0: 01 80 55 58 80 F0 FF FF  7F F0 FF FF 7F 77 68 6F  ..UX.........who
10D0: 32 1B 45 58 80 F0 FF FF  7F F0 FF FF 7F 77 68 6F  2.EX.........who
10E0: 33 01 80 55 58 80 F0 FF  FF 7F F0 FF FF 7F 77 68  3..UX.........wh
10F0: 6F 33 1B 62 30 80 F0 FF  FF 7F F0 FF FF 7F 6D 61  o3.b0.........ma
1100: 69 6E 01 80 1C 59 80 45  1B 80 F0 FF FF 7F F0 FF  in...Y.E........
1110: FF 7F 66 64 6F 31 01 80  55 1B 80 F0 FF FF 7F F0  ..fdo1..U.......
1120: FF FF 7F 66 64 6F 31 1B  45 1B 80 F0 FF FF 7F F0  ...fdo1.E.......
1130: FF FF 7F 66 64 69 31 01  80 62 31 80 F0 FF FF 7F  ...fdi1..b1.....
1140: F0 FF FF 7F 6D 61 69 6E  01 80 1C 11 80 55 1B 80  ....main.....U..
1150: F0 FF FF 7F F0 FF FF 7F  66 64 69 31 1B 45 1B 80  ........fdi1.E..
1160: F0 FF FF 7F F0 FF FF 7F  62 6C 6F 6E 01 80 45 58  ........blon..EX
1170: 80 F0 FF FF 7F F0 FF FF  7F 62 6C 6F 6E 01 80 1B  .........blon...
1180: 45 58 80 F0 FF FF 7F F0  FF FF 7F 77 68 69 30 01  EX.........whi0.
1190: 80 55 58 80 F0 FF FF 7F  F0 FF FF 7F 77 68 69 30  .UX.........whi0
11A0: 1B 45 58 80 F0 FF FF 7F  F0 FF FF 7F 77 68 6F 30  .EX.........who0
11B0: 01 80 55 58 80 F0 FF FF  7F F0 FF FF 7F 77 68 6F  ..UX.........who
11C0: 30 1B 45 5A 80 F0 FF FF  7F F0 FF FF 7F 65 66 6F  0.EZ.........efo
11D0: 6E 01 80 55 5A 80 F0 FF  FF 7F F0 FF FF 7F 65 66  n..UZ.........ef
11E0: 6F 6E 1B 45 1B 80 F0 FF  FF 7F F0 FF FF 7F 66 64  on.E..........fd
11F0: 69 73 01 80 1B 45 1B 80  F0 FF FF 7F F0 FF FF 7F  is...E..........
1200: 66 64 6F 73 01 80 55 1B  80 F0 FF FF 7F F0 FF FF  fdos..U.........
1210: 7F 66 64 6F 73 1B 45 1B  80 F0 FF FF 7F F0 FF FF  .fdos.E.........
1220: 7F 66 64 69 66 01 80 1B  45 1B 80 F0 FF FF 7F F0  .fdif...E.......
1230: FF FF 7F 66 64 6F 66 01  80 55 1B 80 F0 FF FF 7F  ...fdof..U......
1240: F0 FF FF 7F 66 64 6F 66  1B 45 1B 80 F0 FF FF 7F  ....fdof.E......
1250: F0 FF FF 7F 66 64 69 70  01 80 1B 45 1B 80 F0 FF  ....fdip...E....
1260: FF 7F F0 FF FF 7F 66 64  6F 70 01 80 55 1B 80 F0  ......fdop..U...
1270: FF FF 7F F0 FF FF 7F 66  64 6F 70 1B              .......fdop.    
```

#### Opcodes

```
  0: 0x0D17 [0x42] SET_CLI_EVENT_CANCEL_DATA()
  1: 0x0D18 [0x1A] CALL_SUBROUTINE(address=0x104E)
  2: 0x0D1B [0x46] CAMERA_CONTROL: Disable user control
  3: 0x0D1D [0x38] SET_CLIENT_EVENT_MODE(mode=19*)
  4: 0x0D20 [0x5D] SET_MUSIC_VOLUME(volume=0*, fade_time=60*)
  5: 0x0D25 [0x2F] Veridical Conflux (ID: 17142631/0x01059367)->Render.Flags0 &= ~0x80000 // Bit 19
  6: 0x0D2B [0x2F] Cait Sith (ID: 17142627/0x01059363)->Render.Flags0 &= ~0x80000 // Bit 19
  7: 0x0D31 [0x4E] SET_ENTITY_HIDE_FLAG: Show Veridical Conflux (ID: 17142631/0x01059367)
  8: 0x0D37 [0x4E] SET_ENTITY_HIDE_FLAG: Show Cait Sith (ID: 17142627/0x01059363)
  9: 0x0D3D [0x92] Cait Sith (ID: 17142627/0x01059363)->Render.Flags3 ^= 0x01
 10: 0x0D43 [0x92] Veridical Conflux (ID: 17142631/0x01059367)->Render.Flags3 ^= 0x01
 11: 0x0D49 [0x94] LocalPlayer->Render.Flags3 ^= 0x01
 12: 0x0D4F [0x94] Cait Sith (ID: 17142627/0x01059363)->Render.Flags3 ^= 0x01
 13: 0x0D55 [0xBA] SET_ENTITY_POSITION(entity_id=Cait Sith (ID: 17142627/0x01059363), pos_x=-142.716*, pos_z=577.880*, pos_y=-6.804*, direction=243.9°*)
 14: 0x0D62 [0xBA] SET_ENTITY_POSITION(entity_id=LocalPlayer, pos_x=-145.297*, pos_z=583.154*, pos_y=-6.750*, direction=329.1°*)
 15: 0x0D6F [0x7B] LocalPlayer stops talking
 16: 0x0D74 [0x80] LOAD_WAIT(entity=LocalPlayer)
 17: 0x0D79 [0x4A] LocalPlayer looks at Veridical Conflux (ID: 17142631/0x01059367)
 18: 0x0D82 [0x4A] Cait Sith (ID: 17142627/0x01059363) looks at LocalPlayer
 19: 0x0D8B [0x79] LocalPlayer looks at LocalPlayer (Basic look)
 20: 0x0D95 [0x1C] WAIT(60* ticks)
 21: 0x0D98 [0x29] REQ_SET_WAIT(priority=0x10, entity_id=LocalPlayer, tag_num=0x21)
 22: 0x0D9F [0x1C] WAIT(120* ticks)
 23: 0x0DA2 [0x45] LOAD_SCHEDULED_TASK: Load scheduler "0210" with entities [LocalPlayer, LocalPlayer], work=[551*, 0*]
 24: 0x0DB3 [0x1A] CALL_SUBROUTINE(address=0x102D)
 25: 0x0DB6 [0x1C] WAIT(180* ticks)
 26: 0x0DB9 [0x52] END_LOAD_SCHEDULER: End scheduler "0210" with entities [LocalPlayer, LocalPlayer], work=551*
 27: 0x0DC8 [0x02] IF !(Work_Zone[2] == 1*) GOTO 0x0DE4
 28: 0x0DD0 [0x45] LOAD_SCHEDULED_TASK: Load scheduler "0214" with entities [LocalPlayer, LocalPlayer], work=[551*, 0*]
 29: 0x0DE1 [0x01] GOTO 0x0EA8
 30: 0x0DE4 [0x02] IF !(Work_Zone[2] == 2*) GOTO 0x0E00
 31: 0x0DEC [0x45] LOAD_SCHEDULED_TASK: Load scheduler "0214" with entities [LocalPlayer, LocalPlayer], work=[551*, 0*]
 32: 0x0DFD [0x01] GOTO 0x0EA8
 33: 0x0E00 [0x02] IF !(Work_Zone[2] == 3*) GOTO 0x0E1C
 34: 0x0E08 [0x45] LOAD_SCHEDULED_TASK: Load scheduler "0215" with entities [LocalPlayer, LocalPlayer], work=[551*, 0*]
 35: 0x0E19 [0x01] GOTO 0x0EA8
 36: 0x0E1C [0x02] IF !(Work_Zone[2] == 4*) GOTO 0x0E38
 37: 0x0E24 [0x45] LOAD_SCHEDULED_TASK: Load scheduler "0215" with entities [LocalPlayer, LocalPlayer], work=[551*, 0*]
 38: 0x0E35 [0x01] GOTO 0x0EA8
 39: 0x0E38 [0x02] IF !(Work_Zone[2] == 5*) GOTO 0x0E54
 40: 0x0E40 [0x45] LOAD_SCHEDULED_TASK: Load scheduler "0216" with entities [LocalPlayer, LocalPlayer], work=[551*, 0*]
 41: 0x0E51 [0x01] GOTO 0x0EA8
 42: 0x0E54 [0x02] IF !(Work_Zone[2] == 6*) GOTO 0x0E70
 43: 0x0E5C [0x45] LOAD_SCHEDULED_TASK: Load scheduler "0216" with entities [LocalPlayer, LocalPlayer], work=[551*, 0*]
 44: 0x0E6D [0x01] GOTO 0x0EA8
 45: 0x0E70 [0x02] IF !(Work_Zone[2] == 7*) GOTO 0x0E8C
 46: 0x0E78 [0x45] LOAD_SCHEDULED_TASK: Load scheduler "0214" with entities [LocalPlayer, LocalPlayer], work=[551*, 0*]
 47: 0x0E89 [0x01] GOTO 0x0EA8
 48: 0x0E8C [0x02] IF !(Work_Zone[2] == 8*) GOTO 0x0EA8
 49: 0x0E94 [0x45] LOAD_SCHEDULED_TASK: Load scheduler "0215" with entities [LocalPlayer, LocalPlayer], work=[551*, 0*]
 50: 0x0EA5 [0x01] GOTO 0x0EA8

SUBROUTINE_0EA8:
 51: 0x0EA8 [0x03] Work_Zone[2] = 1731*
 52: 0x0EAD [0x2B] Cait Sith (ID: 17142627/0x01059363) [8377*]:
    → "Dearie me, so you've gone and misplaced the $3. Lost possession."
 53: 0x0EB4 [0x1C] WAIT(60* ticks)
 54: 0x0EB7 [0x4A] LocalPlayer looks at Cait Sith (ID: 17142627/0x01059363)
 55: 0x0EC0 [0x1C] WAIT(30* ticks)
 56: 0x0EC3 [0x27] REQ_SET(priority=0x10, entity_id=Cait Sith (ID: 17142627/0x01059363), tag_num=0x21)
 57: 0x0ECA [0x1C] WAIT(60* ticks)
 58: 0x0ECD [0x52] END_LOAD_SCHEDULER: End scheduler "0214" with entities [LocalPlayer, LocalPlayer], work=551*
 59: 0x0EDC [0x52] END_LOAD_SCHEDULER: End scheduler "0215" with entities [LocalPlayer, LocalPlayer], work=551*
 60: 0x0EEB [0x52] END_LOAD_SCHEDULER: End scheduler "0216" with entities [LocalPlayer, LocalPlayer], work=551*
 61: 0x0EFA [0x45] LOAD_SCHEDULED_TASK: Load scheduler "0217" with entities [LocalPlayer, LocalPlayer], work=[551*, 0*]
 62: 0x0F0B [0x2A] GET_REQ_LEVEL(level=16, entity_id=Cait Sith (ID: 17142627/0x01059363))
 63: 0x0F11 [0x1C] WAIT(60* ticks)
 64: 0x0F14 [0x23] WAIT_FOR_DIALOG_INTERACTION
 65: 0x0F15 [0x52] END_LOAD_SCHEDULER: End scheduler "0217" with entities [LocalPlayer, LocalPlayer], work=551*
 66: 0x0F24 [0x45] LOAD_SCHEDULED_TASK: Load scheduler "0218" with entities [LocalPlayer, LocalPlayer], work=[551*, 0*]
 67: 0x0F35 [0x81] SET_ENTITY_BLINKING(blink_flag=0x00, entity=Cait Sith (ID: 17142627/0x01059363))
 68: 0x0F3B [0x5B] LOAD_EXT_SCHEDULER: Load scheduler "hot0" with entities [Cait Sith (ID: 17142627/0x01059363), Cait Sith (ID: 17142627/0x01059363)], work=1312*
 69: 0x0F4A [0x2B] Cait Sith (ID: 17142627/0x01059363) [8378*]:
    → "But never fear, for the $3 remains perpetually etched within your being. Forever and ever a part of you."
 70: 0x0F51 [0x1C] WAIT(210* ticks)
 71: 0x0F54 [0x23] WAIT_FOR_DIALOG_INTERACTION
 72: 0x0F55 [0x52] END_LOAD_SCHEDULER: End scheduler "0218" with entities [LocalPlayer, LocalPlayer], work=551*
 73: 0x0F64 [0x45] LOAD_SCHEDULED_TASK: Load scheduler "0219" with entities [LocalPlayer, LocalPlayer], work=[551*, 0*]
 74: 0x0F75 [0x5B] LOAD_EXT_SCHEDULER: Load scheduler "hot1" with entities [Cait Sith (ID: 17142627/0x01059363), Cait Sith (ID: 17142627/0x01059363)], work=1312*
 75: 0x0F84 [0x81] SET_ENTITY_BLINKING(blink_flag=0x01, entity=Cait Sith (ID: 17142627/0x01059363))
 76: 0x0F8A [0x2B] Cait Sith (ID: 17142627/0x01059363) [8379*]:
    → "You need but be patient, for time will restore it to its original state. Return it to normal."
 77: 0x0F91 [0x1C] WAIT(120* ticks)
 78: 0x0F94 [0x23] WAIT_FOR_DIALOG_INTERACTION
 79: 0x0F95 [0x6E] LocalPlayer uses emote 7*
 80: 0x0F9C [0x99] Wait for LocalPlayer animation to complete
 81: 0x0FA1 [0x1C] WAIT(60* ticks)
 82: 0x0FA4 [0x1A] CALL_SUBROUTINE(address=0x104E)
 83: 0x0FA7 [0x52] END_LOAD_SCHEDULER: End scheduler "0219" with entities [LocalPlayer, LocalPlayer], work=551*
 84: 0x0FB6 [0x45] LOAD_SCHEDULED_TASK: Load scheduler "blof" with entities [LocalPlayer, LocalPlayer], work=[200*, 0*]
 85: 0x0FC7 [0x1C] WAIT(15* ticks)
 86: 0x0FCA [0xAB] EventEntity->DespawnValue = 0* // Set despawn value
 87: 0x0FCE [0x5D] SET_MUSIC_VOLUME(volume=127*, fade_time=60*)
 88: 0x0FD3 [0x1C] WAIT(15* ticks)
 89: 0x0FD6 [0x46] CAMERA_CONTROL: Restore default settings
 90: 0x0FD8 [0x45] LOAD_SCHEDULED_TASK: Load scheduler "fdi2" with entities [LocalPlayer, LocalPlayer], work=[200*, 0*]
 91: 0x0FE9 [0x21] END_EVENT
 92: 0x0FEA [0x00] END_REQSTACK()

SUBROUTINE_102D:
 93: 0x102D [0x45] LOAD_SCHEDULED_TASK: Load scheduler "fdi1" with entities [LocalPlayer, LocalPlayer], work=[200*, 0*]
 94: 0x103E [0x55] WAIT_LOAD_SCHEDULER: Wait for scheduler "fdi1" with entities [LocalPlayer, LocalPlayer], work=200*
 95: 0x104D [0x1B] RETURN

SUBROUTINE_104E:
 96: 0x104E [0x45] LOAD_SCHEDULED_TASK: Load scheduler "fdo1" with entities [LocalPlayer, LocalPlayer], work=[200*, 0*]
 97: 0x105F [0x55] WAIT_LOAD_SCHEDULER: Wait for scheduler "fdo1" with entities [LocalPlayer, LocalPlayer], work=200*
 98: 0x106E [0x1B] RETURN
```

#### Data or dead code:

```
# Dead code (unreachable instructions):
     0x0FEB [0x45] LOAD_SCHEDULED_TASK: Load scheduler "fdi0" with entities [LocalPlayer, LocalPlayer], work=[200*, 0*]
     0x0FFC [0x55] WAIT_LOAD_SCHEDULER: Wait for scheduler "fdi0" with entities [LocalPlayer, LocalPlayer], work=200*
     0x100B [0x1B] RETURN
     0x100C [0x45] LOAD_SCHEDULED_TASK: Load scheduler "fdo0" with entities [LocalPlayer, LocalPlayer], work=[200*, 0*]
     0x101D [0x55] WAIT_LOAD_SCHEDULER: Wait for scheduler "fdo0" with entities [LocalPlayer, LocalPlayer], work=200*
     0x102C [0x1B] RETURN
# Dead code (unreachable instructions):
     0x106F [0x45] LOAD_SCHEDULED_TASK: Load scheduler "whi1" with entities [LocalPlayer, LocalPlayer], work=[201*, 0*]
     0x1080 [0x55] WAIT_LOAD_SCHEDULER: Wait for scheduler "whi1" with entities [LocalPlayer, LocalPlayer], work=201*
     0x108F [0x1B] RETURN
     0x1090 [0x45] LOAD_SCHEDULED_TASK: Load scheduler "who1" with entities [LocalPlayer, LocalPlayer], work=[201*, 0*]
     0x10A1 [0x55] WAIT_LOAD_SCHEDULER: Wait for scheduler "who1" with entities [LocalPlayer, LocalPlayer], work=201*
     0x10B0 [0x1B] RETURN
     0x10B1 [0x45] LOAD_SCHEDULED_TASK: Load scheduler "who2" with entities [LocalPlayer, LocalPlayer], work=[201*, 0*]
     0x10C2 [0x55] WAIT_LOAD_SCHEDULER: Wait for scheduler "who2" with entities [LocalPlayer, LocalPlayer], work=201*
     0x10D1 [0x1B] RETURN
     0x10D2 [0x45] LOAD_SCHEDULED_TASK: Load scheduler "who3" with entities [LocalPlayer, LocalPlayer], work=[201*, 0*]
     0x10E3 [0x55] WAIT_LOAD_SCHEDULER: Wait for scheduler "who3" with entities [LocalPlayer, LocalPlayer], work=201*
     0x10F2 [0x1B] RETURN
     0x10F3 [0x62] LOAD_EVENT_SCHEDULER: Load scheduler "main" with entities [LocalPlayer, LocalPlayer], work=[1*, 0*]
     0x1104 [0x1C] WAIT(45* ticks)
     0x1107 [0x45] LOAD_SCHEDULED_TASK: Load scheduler "fdo1" with entities [LocalPlayer, LocalPlayer], work=[200*, 0*]
     0x1118 [0x55] WAIT_LOAD_SCHEDULER: Wait for scheduler "fdo1" with entities [LocalPlayer, LocalPlayer], work=200*
     0x1127 [0x1B] RETURN
     0x1128 [0x45] LOAD_SCHEDULED_TASK: Load scheduler "fdi1" with entities [LocalPlayer, LocalPlayer], work=[200*, 0*]
     0x1139 [0x62] LOAD_EVENT_SCHEDULER: Load scheduler "main" with entities [LocalPlayer, LocalPlayer], work=[2*, 0*]
     0x114A [0x1C] WAIT(30* ticks)
     0x114D [0x55] WAIT_LOAD_SCHEDULER: Wait for scheduler "fdi1" with entities [LocalPlayer, LocalPlayer], work=200*
     0x115C [0x1B] RETURN
     0x115D [0x45] LOAD_SCHEDULED_TASK: Load scheduler "blon" with entities [LocalPlayer, LocalPlayer], work=[200*, 0*]
     0x116E [0x45] LOAD_SCHEDULED_TASK: Load scheduler "blon" with entities [LocalPlayer, LocalPlayer], work=[201*, 0*]
     0x117F [0x1B] RETURN
     0x1180 [0x45] LOAD_SCHEDULED_TASK: Load scheduler "whi0" with entities [LocalPlayer, LocalPlayer], work=[201*, 0*]
     0x1191 [0x55] WAIT_LOAD_SCHEDULER: Wait for scheduler "whi0" with entities [LocalPlayer, LocalPlayer], work=201*
     0x11A0 [0x1B] RETURN
     0x11A1 [0x45] LOAD_SCHEDULED_TASK: Load scheduler "who0" with entities [LocalPlayer, LocalPlayer], work=[201*, 0*]
     0x11B2 [0x55] WAIT_LOAD_SCHEDULER: Wait for scheduler "who0" with entities [LocalPlayer, LocalPlayer], work=201*
     0x11C1 [0x1B] RETURN
     0x11C2 [0x45] LOAD_SCHEDULED_TASK: Load scheduler "efon" with entities [LocalPlayer, LocalPlayer], work=[215*, 0*]
     0x11D3 [0x55] WAIT_LOAD_SCHEDULER: Wait for scheduler "efon" with entities [LocalPlayer, LocalPlayer], work=215*
     0x11E2 [0x1B] RETURN
     0x11E3 [0x45] LOAD_SCHEDULED_TASK: Load scheduler "fdis" with entities [LocalPlayer, LocalPlayer], work=[200*, 0*]
     0x11F4 [0x1B] RETURN
     0x11F5 [0x45] LOAD_SCHEDULED_TASK: Load scheduler "fdos" with entities [LocalPlayer, LocalPlayer], work=[200*, 0*]
     0x1206 [0x55] WAIT_LOAD_SCHEDULER: Wait for scheduler "fdos" with entities [LocalPlayer, LocalPlayer], work=200*
     0x1215 [0x1B] RETURN
     0x1216 [0x45] LOAD_SCHEDULED_TASK: Load scheduler "fdif" with entities [LocalPlayer, LocalPlayer], work=[200*, 0*]
     0x1227 [0x1B] RETURN
     0x1228 [0x45] LOAD_SCHEDULED_TASK: Load scheduler "fdof" with entities [LocalPlayer, LocalPlayer], work=[200*, 0*]
     0x1239 [0x55] WAIT_LOAD_SCHEDULER: Wait for scheduler "fdof" with entities [LocalPlayer, LocalPlayer], work=200*
     0x1248 [0x1B] RETURN
     0x1249 [0x45] LOAD_SCHEDULED_TASK: Load scheduler "fdip" with entities [LocalPlayer, LocalPlayer], work=[200*, 0*]
     0x125A [0x1B] RETURN
     0x125B [0x45] LOAD_SCHEDULED_TASK: Load scheduler "fdop" with entities [LocalPlayer, LocalPlayer], work=[200*, 0*]
     0x126C [0x55] WAIT_LOAD_SCHEDULER: Wait for scheduler "fdop" with entities [LocalPlayer, LocalPlayer], work=200*
     0x127B [0x1B] RETURN
```
