# 17142570 - Riverbed

## Common Data

| Field            | Value                 |
|------------------|-----------------------|
| Zone             | Grauberg [S] (ID: 89) |
| Block Size       | 664 bytes             |
| Total Events     | 2                     |
| References Count | 33                    |

## List of Events

| Event ID              | Entrypoint   |   Size |   Instructions |
|-----------------------|--------------|--------|----------------|
| [65535](#event-65535) | 0x0000       |      1 |              1 |
| [24](#event-24)       | 0x0001       |    504 |            116 |

## DAT References (imed_data)

|   Index | Hex Value   |   Dec Value |
|---------|-------------|-------------|
|       0 | 0x0001      |           1 |
|       1 | 0x1EF2      |        7922 |
|       2 | 0x0499      |        1177 |
|       3 | 0x1EF3      |        7923 |
|       4 | 0x1EF4      |        7924 |
|       5 | 0x0000      |           0 |
|       6 | 0x0028      |          40 |
|       7 | 0x0064      |         100 |
|       8 | 0x1EF5      |        7925 |
|       9 | 0x003C      |          60 |
|      10 | 0x1EF6      |        7926 |
|      11 | 0x0002      |           2 |
|      12 | 0x0014      |          20 |
|      13 | 0x1EF7      |        7927 |
|      14 | 0x0003      |           3 |
|      15 | 0x000A      |          10 |
|      16 | 0x0078      |         120 |
|      17 | 0x1EF8      |        7928 |
|      18 | 0x1EF9      |        7929 |
|      19 | 0x1EFA      |        7930 |
|      20 | 0x0004      |           4 |
|      21 | 0x001E      |          30 |
|      22 | 0x0032      |          50 |
|      23 | 0x1EFB      |        7931 |
|      24 | 0x1EFC      |        7932 |
|      25 | 0x000F      |          15 |
|      26 | 0x0005      |           5 |
|      27 | 0x1F00      |        7936 |
|      28 | 0x1EFF      |        7935 |
|      29 | 0x1EFE      |        7934 |
|      30 | 0x1EFD      |        7933 |
|      31 | 0x0008      |           8 |
|      32 | 0x000C      |          12 |

## String References

- **7922**: The stream bed is lined with pebbles and sand of various colors and textures.
- **7923**: Pan for gold using your $3?
- **7924**: How much sediment will you scoop? [A sizable portion./A moderate portion./A small portion./Do nothing.]
- **7925**: <Player> scoops a heap of pebbles and sand with [his/her] $3.
- **7926**: <Player> scoops a moderate portion of pebbles and sand with [his/her] $3.
- **7927**: <Player> scoops a smattering of pebbles and sand with [his/her] $3.
- **7928**: Submerge your pan in the stream and... [Wash carefully to extract gold./Wash vigorously./Wash thoroughly./Wash gently.]
- **7929**: <Player> submerges [his/her] $3 in the running stream and washes the contents with the utmost care...
- **7930**: <Player> submerges [his/her] $3 and washes the contents vigorously...
- **7931**: <Player> submerges [his/her] $3 and washes the contents thoroughly...
- **7932**: <Player> submerges [his/her] $3 and washes the contents gently...
- **7933**: The pan is nearly overflowing with pebbles and sand. It is impossible to identify gold dust amidst the sizable heap of debris.
- **7934**: The contents of the pan have been filtered down, but you can still detect no sign of gold dust amidst the debris.
- **7935**: The contents of the pan have been filtered considerably. Amidst the sand, a few small, glittering specks catch your eye...
- **7936**: The $3 has been washed of all its contents. You were unable to retrieve any gold dust.

## Events

### Event 65535

#### Metadata

| Field        | Value   |
|--------------|---------|
| Entrypoint   | 0x0000  |
| Data Size    | 1 bytes |
| Instructions | 1       |

```
      00 01 02 03 04 05 06 07  08 09 0A 0B 0C 0D 0E 0F
      -- -- -- -- -- -- -- --  -- -- -- -- -- -- -- --
0000: 00                                                .               
```

#### Opcodes

```
  0: 0x0000 [0x00] END_REQSTACK()
```

### Event 24

#### Metadata

| Field        | Value     |
|--------------|-----------|
| Entrypoint   | 0x0001    |
| Data Size    | 504 bytes |
| Instructions | 53        |

```
      00 01 02 03 04 05 06 07  08 09 0A 0B 0C 0D 0E 0F
      -- -- -- -- -- -- -- --  -- -- -- -- -- -- -- --
0000:    42 20 01 4A F0 FF FF  7F F8 FF FF 7F 6F 70 29   B .J........op)
0010: 01 F0 FF FF 7F 03 06 08  00 03 00 00 00 80 48 01  ..............H.
0020: 80 23 03 02 10 02 80 48  03 80 23 24 04 80 05 80  .#.....H..#$....
0030: 05 80 25 02 00 10 05 80  00 58 00 13 01 00 06 80  ..%......X......
0040: 07 01 00 07 80 03 07 00  01 00 03 02 10 02 80 48  ...............H
0050: 08 80 01 B0 00 01 B0 00  02 00 10 00 80 00 7D 00  ..............}.
0060: 13 01 00 06 80 07 01 00  09 80 03 07 00 01 00 03  ................
0070: 02 10 02 80 48 0A 80 01  B0 00 01 B0 00 02 00 10  ....H...........
0080: 0B 80 00 A2 00 13 01 00  06 80 07 01 00 0C 80 03  ................
0090: 07 00 01 00 03 02 10 02  80 48 0D 80 01 B0 00 01  .........H......
00A0: B0 00 02 00 10 0E 80 00  B0 00 01 EE 01 01 B0 00  ................
00B0: 03 04 00 07 00 15 04 00  0F 80 1C 10 80 24 11 80  .............$..
00C0: 05 80 00 00 25 02 00 10  05 80 00 DB 00 03 02 10  ....%...........
00D0: 02 80 48 12 80 01 A1 01  01 59 01 02 00 10 00 80  ..H......Y......
00E0: 00 05 01 03 02 10 02 80  48 13 80 07 08 00 14 80  ........H.......
00F0: 13 02 00 15 80 07 02 00  16 80 08 07 00 02 00 01  ................
0100: 59 01 01 59 01 02 00 10  0B 80 00 2F 01 03 02 10  Y..Y......./....
0110: 02 80 48 17 80 07 08 00  0E 80 13 02 00 15 80 07  ..H.............
0120: 02 00 0C 80 08 07 00 02  00 01 59 01 01 59 01 02  ..........Y..Y..
0130: 00 10 0E 80 00 59 01 03  02 10 02 80 48 18 80 07  .....Y......H...
0140: 08 00 0B 80 13 02 00 19  80 07 02 00 1A 80 08 07  ................
0150: 00 02 00 01 59 01 01 59  01 1C 10 80 02 07 00 05  ....Y..Y........
0160: 80 05 72 01 03 02 10 02  80 48 1B 80 01 EE 01 01  ..r......H......
0170: A1 01 02 07 00 0F 80 05  8A 01 3D 00 00 05 80 00  ..........=.....
0180: 80 48 1C 80 01 BD 00 01  A1 01 02 07 00 16 80 05  .H..............
0190: 9B 01 48 1D 80 01 BD 00  01 A1 01 48 1E 80 01 BD  ..H........H....
01A0: 00 02 08 00 1F 80 05 B1  01 03 06 00 04 00 01 D0  ................
01B0: 01 02 08 00 20 80 04 C6  01 03 06 00 04 00 15 06  .... ...........
01C0: 00 0E 80 01 D0 01 03 06  00 04 00 15 06 00 0B 80  ................
01D0: 02 06 00 05 80 05 E6 01  03 02 10 02 80 48 1B 80  .............H..
01E0: 01 EE 01 01 EE 01 03 01  10 06 00 01 EE 01 29 01  ..............).
01F0: F0 FF FF 7F 04 20 00 21  00                       ..... .!.       
```

#### Opcodes

```
  0: 0x0001 [0x42] SET_CLI_EVENT_CANCEL_DATA()
  1: 0x0002 [0x20] SET_CLI_EVENT_UC_FLAG: Lock player control
  2: 0x0004 [0x4A] LocalPlayer looks at EventEntity
  3: 0x000D [0x6F] WAIT_FRAME_DELAY: Yield until WaitTime reaches zero
  4: 0x000E [0x70] WAIT_ENTITY_RENDER_FLAG: Wait while EventEntity->Render.Flags3 bit 2 is set (cancel turn if not)
  5: 0x000F [0x29] REQ_SET_WAIT(priority=0x01, entity_id=LocalPlayer, tag_num=0x03)
  6: 0x0016 [0x06] ExtData[1]->WorkLocal[8] = 0
  7: 0x0019 [0x03] ExtData[1]->WorkLocal[0] = 1*
  8: 0x001E [0x48] [System] [7922*]:
    → "The stream bed is lined with pebbles and sand of various colors and textures."
  9: 0x0021 [0x23] WAIT_FOR_DIALOG_INTERACTION
 10: 0x0022 [0x03] Work_Zone[2] = 1177*
 11: 0x0027 [0x48] [System] [7923*]:
    → "Pan for gold using your $3?"
 12: 0x002A [0x23] WAIT_FOR_DIALOG_INTERACTION
 13: 0x002B [0x24] CREATE_DIALOG(message_id=7924*, default_option=0*, option_flags=0*)
    → "How much sediment will you scoop? [A sizable portion./A moderate portion./A small portion./Do nothing.]"
 14: 0x0032 [0x25] WAIT_DIALOG_SELECT()
 15: 0x0033 [0x02] IF !(Work_Zone[0] == 0*) GOTO 0x0058
 16: 0x003B [0x13] ExtData[1]->WorkLocal[1] = rand() % 40*
 17: 0x0040 [0x07] ExtData[1]->WorkLocal[1] += 100*
 18: 0x0045 [0x03] ExtData[1]->WorkLocal[7] = ExtData[1]->WorkLocal[1]
 19: 0x004A [0x03] Work_Zone[2] = 1177*
 20: 0x004F [0x48] [System] [7925*]:
    → "<Player> scoops a heap of pebbles and sand with [his/her] $3."
 21: 0x0052 [0x01] GOTO 0x00B0

SUBROUTINE_00B0:
 22: 0x00B0 [0x03] ExtData[1]->WorkLocal[4] = ExtData[1]->WorkLocal[7]
 23: 0x00B5 [0x15] ExtData[1]->WorkLocal[4] /= 10*
 24: 0x00BA [0x1C] WAIT(120* ticks)

SUBROUTINE_00BD:
 25: 0x00BD [0x24] CREATE_DIALOG(message_id=7928*, default_option=0*, option_flags=ExtData[1]->WorkLocal[0])
    → "Submerge your pan in the stream and... [Wash carefully to extract gold./Wash vigorously./Wash thoroughly./Wash gently.]"
 26: 0x00C4 [0x25] WAIT_DIALOG_SELECT()
 27: 0x00C5 [0x02] IF !(Work_Zone[0] == 0*) GOTO 0x00DB
 28: 0x00CD [0x03] Work_Zone[2] = 1177*
 29: 0x00D2 [0x48] [System] [7929*]:
    → "<Player> submerges [his/her] $3 in the running stream and washes the contents with the utmost care..."
 30: 0x00D5 [0x01] GOTO 0x01A1

SUBROUTINE_0159:
 31: 0x0159 [0x1C] WAIT(120* ticks)
 32: 0x015C [0x02] IF !(ExtData[1]->WorkLocal[7] > 0*) GOTO 0x0172
 33: 0x0164 [0x03] Work_Zone[2] = 1177*
 34: 0x0169 [0x48] [System] [7936*]:
    → "The $3 has been washed of all its contents. You were unable to retrieve any gold dust."
 35: 0x016C [0x01] GOTO 0x01EE

SUBROUTINE_01A1:
 36: 0x01A1 [0x02] IF !(ExtData[1]->WorkLocal[8] > 8*) GOTO 0x01B1
 37: 0x01A9 [0x03] ExtData[1]->WorkLocal[6] = ExtData[1]->WorkLocal[4]
 38: 0x01AE [0x01] GOTO 0x01D0
 39: 0x01B1 [0x02] IF !(ExtData[1]->WorkLocal[8] < 12*) GOTO 0x01C6
 40: 0x01B9 [0x03] ExtData[1]->WorkLocal[6] = ExtData[1]->WorkLocal[4]
 41: 0x01BE [0x15] ExtData[1]->WorkLocal[6] /= 3*
 42: 0x01C3 [0x01] GOTO 0x01D0
 43: 0x01C6 [0x03] ExtData[1]->WorkLocal[6] = ExtData[1]->WorkLocal[4]
 44: 0x01CB [0x15] ExtData[1]->WorkLocal[6] /= 2*

SUBROUTINE_01D0:
 45: 0x01D0 [0x02] IF !(ExtData[1]->WorkLocal[6] > 0*) GOTO 0x01E6
 46: 0x01D8 [0x03] Work_Zone[2] = 1177*
 47: 0x01DD [0x48] [System] [7936*]:
    → "The $3 has been washed of all its contents. You were unable to retrieve any gold dust."
 48: 0x01E0 [0x01] GOTO 0x01EE

SUBROUTINE_01EE:
 49: 0x01EE [0x29] REQ_SET_WAIT(priority=0x01, entity_id=LocalPlayer, tag_num=0x04)
 50: 0x01F5 [0x20] SET_CLI_EVENT_UC_FLAG: Unlock player control
 51: 0x01F7 [0x21] END_EVENT
 52: 0x01F8 [0x00] END_REQSTACK()
```

#### Data or dead code:

```
# Dead code (unreachable instructions):
     0x0055 [0x01] GOTO 0x00B0
     0x007A [0x01] GOTO 0x00B0
     0x009F [0x01] GOTO 0x00B0
     0x00AD [0x01] GOTO 0x00B0
# Dead code (unreachable instructions):
     0x00D8 [0x01] GOTO 0x0159
     0x0102 [0x01] GOTO 0x0159
     0x012C [0x01] GOTO 0x0159
     0x0156 [0x01] GOTO 0x0159
# Dead code (unreachable instructions):
     0x016F [0x01] GOTO 0x01A1
     0x0187 [0x01] GOTO 0x01A1
     0x0198 [0x01] GOTO 0x01A1
# Dead code (unreachable instructions):
     0x01E3 [0x01] GOTO 0x01EE
```
