# 17142526 - Gumbah

## Common Data

| Field            | Value                 |
|------------------|-----------------------|
| Zone             | Grauberg [S] (ID: 89) |
| Block Size       | 304 bytes             |
| Total Events     | 6                     |
| References Count | 30                    |

## List of Events

| Event ID                 | Entrypoint   |   Size |   Instructions |
|--------------------------|--------------|--------|----------------|
| [65535](#event-65535)    | 0x0000       |      1 |              1 |
| [11](#event-11)          | 0x0001       |      7 |              2 |
| [65535.1](#event-655351) | 0x0008       |     22 |              6 |
| [65535.2](#event-655352) | 0x001E       |     84 |             18 |
| [16](#event-16)          | 0x0072       |      7 |              2 |
| [65535.3](#event-655353) | 0x0079       |     22 |              6 |

## DAT References (imed_data)

|   Index | Hex Value   |   Dec Value |
|---------|-------------|-------------|
|       0 | 0x000D      |          13 |
|       1 | 0x3E7D3     |      255955 |
|       2 | 0x7DE51     |      515665 |
|       3 | 0x82BD      |       33469 |
|       4 | 0x003C      |          60 |
|       5 | 0x3EA61     |      256609 |
|       6 | 0x7ED35     |      519477 |
|       7 | 0x833A      |       33594 |
|       8 | 0x3EA29     |      256553 |
|       9 | 0x7F3A1     |      521121 |
|      10 | 0x8392      |       33682 |
|      11 | 0x3E96D     |      256365 |
|      12 | 0x7FA48     |      522824 |
|      13 | 0x83E1      |       33761 |
|      14 | 0x3EB2D     |      256813 |
|      15 | 0x80F9E     |      528286 |
|      16 | 0x83B2      |       33714 |
|      17 | 0x3EA56     |      256598 |
|      18 | 0x81A99     |      531097 |
|      19 | 0x8216      |       33302 |
|      20 | 0x3EBAE     |      256942 |
|      21 | 0x828F8     |      534776 |
|      22 | 0x803E      |       32830 |
|      23 | 0x3D2F5     |      250613 |
|      24 | 0x86D2D     |      552237 |
|      25 | 0x6C29      |       27689 |
|      26 | 0x3E922     |      256290 |
|      27 | 0x7F943     |      522563 |
|      28 | 0x83CB      |       33739 |
|      29 | 0x001E      |          30 |

## Events

### Event 65535

#### Metadata

| Field        | Value   |
|--------------|---------|
| Entrypoint   | 0x0000  |
| Data Size    | 1 bytes |
| Instructions | 1       |

```
      00 01 02 03 04 05 06 07  08 09 0A 0B 0C 0D 0E 0F
      -- -- -- -- -- -- -- --  -- -- -- -- -- -- -- --
0000: 00                                                .               
```

#### Opcodes

```
  0: 0x0000 [0x00] END_REQSTACK()
```

### Event 11

#### Metadata

| Field        | Value   |
|--------------|---------|
| Entrypoint   | 0x0001  |
| Data Size    | 7 bytes |
| Instructions | 2       |

```
      00 01 02 03 04 05 06 07  08 09 0A 0B 0C 0D 0E 0F
      -- -- -- -- -- -- -- --  -- -- -- -- -- -- -- --
0000:    92 01 F8 FF FF 7F 00                            .......        
```

#### Opcodes

```
  0: 0x0001 [0x92] EventEntity->Render.Flags3 ^= 0x01
  1: 0x0007 [0x00] END_REQSTACK()
```

### Event 65535.1

#### Metadata

| Field        | Value    |
|--------------|----------|
| Entrypoint   | 0x0008   |
| Data Size    | 22 bytes |
| Instructions | 6        |

```
      00 01 02 03 04 05 06 07  08 09 0A 0B 0C 0D 0E 0F
      -- -- -- -- -- -- -- --  -- -- -- -- -- -- -- --
0000:                          32 00 80 1F 00 01 80 02          2.......
0010: 80 03 80 1F 01 1E F0 FF  FF 7F 1C 04 80 00        ..............  
```

#### Opcodes

```
  0: 0x0008 [0x32] ExtData[1]->MainSpeed = 13* * 0.1
  1: 0x000B [0x1F] MOVE_ENTITY: EventEntity moves to X=255.955*, Z=515.665*, Y=33.469*
  2: 0x0013 [0x1F] MOVE_ENTITY: Update entity position (mode=1)
  3: 0x0015 [0x1E] EventEntity looks at LocalPlayer and starts talking
  4: 0x001A [0x1C] WAIT(60* ticks)
  5: 0x001D [0x00] END_REQSTACK()
```

### Event 65535.2

#### Metadata

| Field        | Value    |
|--------------|----------|
| Entrypoint   | 0x001E   |
| Data Size    | 84 bytes |
| Instructions | 18       |

```
      00 01 02 03 04 05 06 07  08 09 0A 0B 0C 0D 0E 0F
      -- -- -- -- -- -- -- --  -- -- -- -- -- -- -- --
0010:                                            32 00                2.
0020: 80 1F 00 05 80 06 80 07  80 1F 01 1F 00 08 80 09  ................
0030: 80 0A 80 1F 01 1F 00 0B  80 0C 80 0D 80 1F 01 1F  ................
0040: 00 0E 80 0F 80 10 80 1F  01 1F 00 11 80 12 80 13  ................
0050: 80 1F 01 1F 00 11 80 12  80 13 80 1F 01 1F 00 14  ................
0060: 80 15 80 16 80 1F 01 1F  00 17 80 18 80 19 80 1F  ................
0070: 01 00                                             ..              
```

#### Opcodes

```
  0: 0x001E [0x32] ExtData[1]->MainSpeed = 13* * 0.1
  1: 0x0021 [0x1F] MOVE_ENTITY: EventEntity moves to X=256.609*, Z=519.477*, Y=33.594*
  2: 0x0029 [0x1F] MOVE_ENTITY: Update entity position (mode=1)
  3: 0x002B [0x1F] MOVE_ENTITY: EventEntity moves to X=256.553*, Z=521.121*, Y=33.682*
  4: 0x0033 [0x1F] MOVE_ENTITY: Update entity position (mode=1)
  5: 0x0035 [0x1F] MOVE_ENTITY: EventEntity moves to X=256.365*, Z=522.824*, Y=33.761*
  6: 0x003D [0x1F] MOVE_ENTITY: Update entity position (mode=1)
  7: 0x003F [0x1F] MOVE_ENTITY: EventEntity moves to X=256.813*, Z=528.286*, Y=33.714*
  8: 0x0047 [0x1F] MOVE_ENTITY: Update entity position (mode=1)
  9: 0x0049 [0x1F] MOVE_ENTITY: EventEntity moves to X=256.598*, Z=531.097*, Y=33.302*
 10: 0x0051 [0x1F] MOVE_ENTITY: Update entity position (mode=1)
 11: 0x0053 [0x1F] MOVE_ENTITY: EventEntity moves to X=256.598*, Z=531.097*, Y=33.302*
 12: 0x005B [0x1F] MOVE_ENTITY: Update entity position (mode=1)
 13: 0x005D [0x1F] MOVE_ENTITY: EventEntity moves to X=256.942*, Z=534.776*, Y=32.830*
 14: 0x0065 [0x1F] MOVE_ENTITY: Update entity position (mode=1)
 15: 0x0067 [0x1F] MOVE_ENTITY: EventEntity moves to X=250.613*, Z=552.237*, Y=27.689*
 16: 0x006F [0x1F] MOVE_ENTITY: Update entity position (mode=1)
 17: 0x0071 [0x00] END_REQSTACK()
```

### Event 16

#### Metadata

| Field        | Value   |
|--------------|---------|
| Entrypoint   | 0x0072  |
| Data Size    | 7 bytes |
| Instructions | 2       |

```
      00 01 02 03 04 05 06 07  08 09 0A 0B 0C 0D 0E 0F
      -- -- -- -- -- -- -- --  -- -- -- -- -- -- -- --
0070:       92 01 F8 FF FF 7F  00                         .......       
```

#### Opcodes

```
  0: 0x0072 [0x92] EventEntity->Render.Flags3 ^= 0x01
  1: 0x0078 [0x00] END_REQSTACK()
```

### Event 65535.3

#### Metadata

| Field        | Value    |
|--------------|----------|
| Entrypoint   | 0x0079   |
| Data Size    | 22 bytes |
| Instructions | 6        |

```
      00 01 02 03 04 05 06 07  08 09 0A 0B 0C 0D 0E 0F
      -- -- -- -- -- -- -- --  -- -- -- -- -- -- -- --
0070:                             32 00 80 1F 00 1A 80           2......
0080: 1B 80 1C 80 1F 01 1E 42  93 05 01 1C 1D 80 00     .......B....... 
```

#### Opcodes

```
  0: 0x0079 [0x32] ExtData[1]->MainSpeed = 13* * 0.1
  1: 0x007C [0x1F] MOVE_ENTITY: EventEntity moves to X=256.290*, Z=522.563*, Y=33.739*
  2: 0x0084 [0x1F] MOVE_ENTITY: Update entity position (mode=1)
  3: 0x0086 [0x1E] EventEntity looks at Volker (ID: 17142594/0x01059342) and starts talking
  4: 0x008B [0x1C] WAIT(30* ticks)
  5: 0x008E [0x00] END_REQSTACK()
```
