# 17142589

## Common Data

| Field            | Value                 |
|------------------|-----------------------|
| Zone             | Grauberg [S] (ID: 89) |
| Block Size       | 2500 bytes            |
| Total Events     | 2                     |
| References Count | 75                    |

## List of Events

| Event ID              | Entrypoint   |   Size |   Instructions |
|-----------------------|--------------|--------|----------------|
| [65535](#event-65535) | 0x0000       |      1 |              1 |
| [16](#event-16)       | 0x0001       |   2173 |            247 |

## DAT References (imed_data)

|   Index | Hex Value   |   Dec Value |
|---------|-------------|-------------|
|       0 | 0x0000      |           0 |
|       1 | 0x0078      |         120 |
|       2 | 0x00C8      |         200 |
|       3 | 0x001B      |          27 |
|       4 | 0x3EB85     |      256901 |
|       5 | 0x7E91B     |      518427 |
|       6 | 0x833E      |       33598 |
|       7 | 0x0FCE      |        4046 |
|       8 | 0x3E627     |      255527 |
|       9 | 0x7EDE0     |      519648 |
|      10 | 0x8331      |       33585 |
|      11 | 0x0052      |          82 |
|      12 | 0x3F2EE     |      258798 |
|      13 | 0x7EB79     |      519033 |
|      14 | 0x8330      |       33584 |
|      15 | 0x06CA      |        1738 |
|      16 | 0x3F75F     |      259935 |
|      17 | 0x7E5A0     |      517536 |
|      18 | 0x8256      |       33366 |
|      19 | 0x078E      |        1934 |
|      20 | 0x3F923     |      260387 |
|      21 | 0x7EC98     |      519320 |
|      22 | 0x82CD      |       33485 |
|      23 | 0x0701      |        1793 |
|      24 | 0x3F5C4     |      259524 |
|      25 | 0x7F216     |      520726 |
|      26 | 0x83AC      |       33708 |
|      27 | 0x0680      |        1664 |
|      28 | 0x3EBB7     |      256951 |
|      29 | 0x81C92     |      531602 |
|      30 | 0x823D      |       33341 |
|      31 | 0x0429      |        1065 |
|      32 | 0x3EC85     |      257157 |
|      33 | 0x825F9     |      534009 |
|      34 | 0x813C      |       33084 |
|      35 | 0x001E      |          30 |
|      36 | 0x00D7      |         215 |
|      37 | 0x016A      |         362 |
|      38 | 0x000F      |          15 |
|      39 | 0x0045      |          69 |
|      40 | 0x1F3C      |        7996 |
|      41 | 0x1F3D      |        7997 |
|      42 | 0x1F3E      |        7998 |
|      43 | 0x1F3F      |        7999 |
|      44 | 0x003C      |          60 |
|      45 | 0x1F40      |        8000 |
|      46 | 0x0005      |           5 |
|      47 | 0x1F41      |        8001 |
|      48 | 0x1F42      |        8002 |
|      49 | 0x1F43      |        8003 |
|      50 | 0x1F44      |        8004 |
|      51 | 0x1F45      |        8005 |
|      52 | 0x3F8B5     |      260277 |
|      53 | 0x80AE0     |      527072 |
|      54 | 0x8543      |       34115 |
|      55 | 0x1F46      |        8006 |
|      56 | 0x1F47      |        8007 |
|      57 | 0x00B4      |         180 |
|      58 | 0x0006      |           6 |
|      59 | 0x1F48      |        8008 |
|      60 | 0x0007      |           7 |
|      61 | 0x1F49      |        8009 |
|      62 | 0x1F4A      |        8010 |
|      63 | 0x1F4B      |        8011 |
|      64 | 0x0573      |        1395 |
|      65 | 0x1F4C      |        8012 |
|      66 | 0x1F4D      |        8013 |
|      67 | 0x1F4E      |        8014 |
|      68 | 0x1F4F      |        8015 |
|      69 | 0x1F50      |        8016 |
|      70 | 0x0179      |         377 |
|      71 | 0x1F51      |        8017 |
|      72 | 0x1F52      |        8018 |
|      73 | 0x1F53      |        8019 |
|      74 | 0x00C9      |         201 |

## String References

- **8000**: We're ready!

## Events

### Event 65535

#### Metadata

| Field        | Value   |
|--------------|---------|
| Entrypoint   | 0x0000  |
| Data Size    | 1 bytes |
| Instructions | 1       |

```
      00 01 02 03 04 05 06 07  08 09 0A 0B 0C 0D 0E 0F
      -- -- -- -- -- -- -- --  -- -- -- -- -- -- -- --
0000: 00                                                .               
```

#### Opcodes

```
  0: 0x0000 [0x00] END_REQSTACK()
```

### Event 16

#### Metadata

| Field        | Value      |
|--------------|------------|
| Entrypoint   | 0x0001     |
| Data Size    | 2173 bytes |
| Instructions | 247        |

```
      00 01 02 03 04 05 06 07  08 09 0A 0B 0C 0D 0E 0F
      -- -- -- -- -- -- -- --  -- -- -- -- -- -- -- --
0000:    42 5D 00 80 01 80 45  02 80 F8 FF FF 7F F8 FF   B]....E........
0010: FF 7F 66 64 6F 31 00 80  55 02 80 F8 FF FF 7F F8  ..fdo1..U.......
0020: FF FF 7F 66 64 6F 31 46  01 38 03 80 2F 00 FD 92  ...fdo1F.8../...
0030: 05 01 4E 00 FD 92 05 01  2F 00 FE 92 05 01 4E 00  ..N...../.....N.
0040: FE 92 05 01 2F 00 3E 93  05 01 4E 00 3E 93 05 01  ..../.>...N.>...
0050: 2F 00 3F 93 05 01 4E 00  3F 93 05 01 2F 00 40 93  /.?...N.?.../.@.
0060: 05 01 4E 00 40 93 05 01  2F 00 41 93 05 01 4E 00  ..N.@.../.A...N.
0070: 41 93 05 01 2F 00 42 93  05 01 4E 00 42 93 05 01  A.../.B...N.B...
0080: BA FD 92 05 01 04 80 05  80 06 80 07 80 BA FE 92  ................
0090: 05 01 08 80 09 80 0A 80  0B 80 BA 3E 93 05 01 0C  ...........>....
00A0: 80 0D 80 0E 80 0F 80 BA  3F 93 05 01 10 80 11 80  ........?.......
00B0: 12 80 13 80 BA 40 93 05  01 14 80 15 80 16 80 17  .....@..........
00C0: 80 BA 41 93 05 01 18 80  19 80 1A 80 1B 80 BA 42  ..A............B
00D0: 93 05 01 1C 80 1D 80 1E  80 1F 80 BA F0 FF FF 7F  ................
00E0: 20 80 21 80 22 80 1F 80  80 FD 92 05 01 80 FE 92   .!."...........
00F0: 05 01 80 3E 93 05 01 80  3F 93 05 01 80 40 93 05  ...>....?....@..
0100: 01 80 41 93 05 01 80 F0  FF FF 7F 80 42 93 05 01  ..A.........B...
0110: 4A 3E 93 05 01 FD 92 05  01 4A 3F 93 05 01 FD 92  J>.......J?.....
0120: 05 01 4A 40 93 05 01 FD  92 05 01 4A 41 93 05 01  ..J@.......JA...
0130: FD 92 05 01 4A FD 92 05  01 3E 93 05 01 4A FE 92  ....J....>...J..
0140: 05 01 3E 93 05 01 1C 23  80 5C 00 24 80 5C 01 24  ..>....#.\.$.\.$
0150: 80 9A 45 25 80 F8 FF FF  7F F8 FF FF 7F 73 31 39  ..E%.........s19
0160: 31 00 80 1C 26 80 45 02  80 F8 FF FF 7F F8 FF FF  1...&.E.........
0170: 7F 66 64 69 31 00 80 55  02 80 F8 FF FF 7F F8 FF  .fdi1..U........
0180: FF 7F 66 64 69 31 1C 01  80 52 25 80 F8 FF FF 7F  ..fdi1...R%.....
0190: F8 FF FF 7F 73 31 39 31  45 25 80 F8 FF FF 7F F8  ....s191E%......
01A0: FF FF 7F 73 30 34 31 00  80 1C 01 80 52 25 80 F8  ...s041.....R%..
01B0: FF FF 7F F8 FF FF 7F 73  30 34 31 45 25 80 F8 FF  .......s041E%...
01C0: FF 7F F8 FF FF 7F 73 31  39 32 00 80 66 27 80 FD  ......s192..f'..
01D0: 92 05 01 FD 92 05 01 74  6C 6B 30 2B FD 92 05 01  .......tlk0+....
01E0: 28 80 23 66 27 80 FD 92  05 01 FD 92 05 01 74 6C  (.#f'.........tl
01F0: 6B 31 52 25 80 F8 FF FF  7F F8 FF FF 7F 73 31 39  k1R%.........s19
0200: 32 45 25 80 F8 FF FF 7F  F8 FF FF 7F 73 31 39 33  2E%.........s193
0210: 00 80 2B 3E 93 05 01 29  80 23 52 25 80 F8 FF FF  ..+>...).#R%....
0220: 7F F8 FF FF 7F 73 31 39  33 45 25 80 F8 FF FF 7F  .....s193E%.....
0230: F8 FF FF 7F 73 30 34 32  00 80 2B 3E 93 05 01 2A  ....s042..+>...*
0240: 80 23 52 25 80 F8 FF FF  7F F8 FF FF 7F 73 30 34  .#R%.........s04
0250: 32 45 25 80 F8 FF FF 7F  F8 FF FF 7F 73 30 34 33  2E%.........s043
0260: 00 80 4A 3E 93 05 01 40  93 05 01 2B 3E 93 05 01  ..J>...@...+>...
0270: 2B 80 23 45 25 80 3F 93  05 01 3F 93 05 01 6B 61  +.#E%.?...?...ka
0280: 74 69 00 80 45 25 80 40  93 05 01 40 93 05 01 6B  ti..E%.@...@...k
0290: 61 74 69 00 80 45 25 80  41 93 05 01 41 93 05 01  ati..E%.A...A...
02A0: 6B 61 74 69 00 80 1C 23  80 27 05 3F 93 05 01 02  kati...#.'.?....
02B0: 27 05 40 93 05 01 02 27  05 41 93 05 01 02 1C 2C  '.@....'.A.....,
02C0: 80 48 2D 80 23 2A 05 3F  93 05 01 2A 05 40 93 05  .H-.#*.?...*.@..
02D0: 01 2A 05 41 93 05 01 27  05 42 93 05 01 02 1C 2E  .*.A...'.B......
02E0: 80 27 05 F0 FF FF 7F 23  1C 23 80 52 25 80 F8 FF  .'.....#.#.R%...
02F0: FF 7F F8 FF FF 7F 73 30  34 33 45 25 80 F8 FF FF  ......s043E%....
0300: 7F F8 FF FF 7F 73 30 34  34 00 80 2B 42 93 05 01  .....s044..+B...
0310: 2F 80 23 4A 3E 93 05 01  42 93 05 01 1C 23 80 2B  /.#J>...B....#.+
0320: 3E 93 05 01 30 80 23 2A  05 42 93 05 01 2A 05 F0  >...0.#*.B...*..
0330: FF FF 7F 4A FD 92 05 01  42 93 05 01 4A FE 92 05  ...J....B...J...
0340: 01 42 93 05 01 52 25 80  F8 FF FF 7F F8 FF FF 7F  .B...R%.........
0350: 73 30 34 34 45 25 80 F8  FF FF 7F F8 FF FF 7F 73  s044E%.........s
0360: 30 34 35 00 80 5B 02 80  42 93 05 01 42 93 05 01  045..[..B...B...
0370: 74 73 61 30 2B 42 93 05  01 31 80 23 5B 02 80 42  tsa0+B...1.#[..B
0380: 93 05 01 42 93 05 01 74  73 61 31 52 25 80 F8 FF  ...B...tsa1R%...
0390: FF 7F F8 FF FF 7F 73 30  34 35 45 25 80 F8 FF FF  ......s045E%....
03A0: 7F F8 FF FF 7F 73 30 34  36 00 80 27 05 3E 93 05  .....s046..'.>..
03B0: 01 02 2B 3E 93 05 01 32  80 23 2A 05 3E 93 05 01  ..+>...2.#*.>...
03C0: 5B 02 80 42 93 05 01 42  93 05 01 74 73 61 30 2B  [..B...B...tsa0+
03D0: 42 93 05 01 33 80 23 52  25 80 F8 FF FF 7F F8 FF  B...3.#R%.......
03E0: FF 7F 73 30 34 36 45 25  80 F8 FF FF 7F F8 FF FF  ..s046E%........
03F0: 7F 73 30 34 37 00 80 BA  F0 FF FF 7F 34 80 35 80  .s047.......4.5.
0400: 36 80 1F 80 80 F0 FF FF  7F 4A F0 FF FF 7F 3E 93  6........J....>.
0410: 05 01 79 00 FD 92 05 01  3E 93 05 01 1C 23 80 2B  ..y.....>....#.+
0420: 3E 93 05 01 37 80 23 1C  23 80 52 25 80 F8 FF FF  >...7.#.#.R%....
0430: 7F F8 FF FF 7F 73 30 34  37 45 25 80 F8 FF FF 7F  .....s047E%.....
0440: F8 FF FF 7F 73 30 34 38  00 80 79 00 FD 92 05 01  ....s048..y.....
0450: 42 93 05 01 2B 42 93 05  01 38 80 23 5B 02 80 42  B...+B...8.#[..B
0460: 93 05 01 42 93 05 01 74  73 61 31 52 25 80 F8 FF  ...B...tsa1R%...
0470: FF 7F F8 FF FF 7F 73 30  34 38 45 25 80 F8 FF FF  ......s048E%....
0480: 7F F8 FF FF 7F 73 30 34  39 00 80 29 05 3E 93 05  .....s049..).>..
0490: 01 03 79 00 3F 93 05 01  3E 93 05 01 79 00 40 93  ..y.?...>...y.@.
04A0: 05 01 3E 93 05 01 79 00  41 93 05 01 3E 93 05 01  ..>...y.A...>...
04B0: 1C 2C 80 52 25 80 F8 FF  FF 7F F8 FF FF 7F 73 30  .,.R%.........s0
04C0: 34 39 45 25 80 F8 FF FF  7F F8 FF FF 7F 73 30 35  49E%.........s05
04D0: 30 00 80 79 00 3E 93 05  01 41 93 05 01 1C 39 80  0..y.>...A....9.
04E0: 52 25 80 F8 FF FF 7F F8  FF FF 7F 73 30 35 30 45  R%.........s050E
04F0: 25 80 F8 FF FF 7F F8 FF  FF 7F 73 30 35 31 00 80  %.........s051..
0500: 79 00 3E 93 05 01 42 93  05 01 1C 01 80 6E 3E 93  y.>...B......n>.
0510: 05 01 3A 80 99 3E 93 05  01 2B 3E 93 05 01 3B 80  ..:..>...+>...;.
0520: 23 52 25 80 F8 FF FF 7F  F8 FF FF 7F 73 30 35 31  #R%.........s051
0530: 45 25 80 F8 FF FF 7F F8  FF FF 7F 73 30 35 32 00  E%.........s052.
0540: 80 6E 3E 93 05 01 3C 80  99 3E 93 05 01 2B 3E 93  .n>...<..>...+>.
0550: 05 01 3D 80 23 52 25 80  F8 FF FF 7F F8 FF FF 7F  ..=.#R%.........
0560: 73 30 35 32 45 25 80 F8  FF FF 7F F8 FF FF 7F 73  s052E%.........s
0570: 30 35 33 00 80 4A 3E 93  05 01 40 93 05 01 1C 23  053..J>...@....#
0580: 80 2B 3E 93 05 01 3E 80  23 52 25 80 F8 FF FF 7F  .+>...>.#R%.....
0590: F8 FF FF 7F 73 30 35 33  45 25 80 F8 FF FF 7F F8  ....s053E%......
05A0: FF FF 7F 73 30 35 34 00  80 27 05 3E 93 05 01 04  ...s054..'.>....
05B0: 1C 2C 80 27 05 41 93 05  01 03 27 05 40 93 05 01  .,.'.A....'.@...
05C0: 03 27 05 3F 93 05 01 03  1C 23 80 4A 42 93 05 01  .'.?.....#.JB...
05D0: 3E 93 05 01 1C 23 80 2B  42 93 05 01 3F 80 23 2A  >....#.+B...?.#*
05E0: 05 40 93 05 01 5B 40 80  42 93 05 01 42 93 05 01  .@...[@.B...B...
05F0: 73 69 74 30 52 25 80 F8  FF FF 7F F8 FF FF 7F 73  sit0R%.........s
0600: 30 35 34 45 25 80 F8 FF  FF 7F F8 FF FF 7F 73 30  054E%.........s0
0610: 35 35 00 80 2B 42 93 05  01 41 80 23 53 42 93 05  55..+B...A.#SB..
0620: 01 42 93 05 01 73 69 74  30 27 05 FD 92 05 01 06  .B...sit0'......
0630: 1C 23 80 27 05 FE 92 05  01 05 1C 23 80 52 25 80  .#.'.......#.R%.
0640: F8 FF FF 7F F8 FF FF 7F  73 30 35 35 45 25 80 F8  ........s055E%..
0650: FF FF 7F F8 FF FF 7F 73  30 35 36 00 80 4E 01 3E  .......s056..N.>
0660: 93 05 01 4E 01 3F 93 05  01 4E 01 40 93 05 01 4E  ...N.?...N.@...N
0670: 01 41 93 05 01 4A F0 FF  FF 7F FD 92 05 01 5B 40  .A...J........[@
0680: 80 42 93 05 01 42 93 05  01 73 69 74 31 2B FD 92  .B...B...sit1+..
0690: 05 01 42 80 23 53 42 93  05 01 42 93 05 01 73 69  ..B.#SB...B...si
06A0: 74 31 52 25 80 F8 FF FF  7F F8 FF FF 7F 73 30 35  t1R%.........s05
06B0: 36 45 25 80 F8 FF FF 7F  F8 FF FF 7F 73 31 38 39  6E%.........s189
06C0: 00 80 4A 42 93 05 01 FD  92 05 01 1C 23 80 2B 42  ..JB........#.+B
06D0: 93 05 01 43 80 23 52 25  80 F8 FF FF 7F F8 FF FF  ...C.#R%........
06E0: 7F 73 31 38 39 45 25 80  F8 FF FF 7F F8 FF FF 7F  .s189E%.........
06F0: 73 30 35 37 00 80 2B 42  93 05 01 44 80 23 2A 05  s057..+B...D.#*.
0700: FD 92 05 01 2A 05 FE 92  05 01 52 25 80 F8 FF FF  ....*.....R%....
0710: 7F F8 FF FF 7F 73 30 35  37 45 25 80 F8 FF FF 7F  .....s057E%.....
0720: F8 FF FF 7F 73 30 35 38  00 80 66 27 80 FD 92 05  ....s058..f'....
0730: 01 FD 92 05 01 74 6C 6B  30 2B FD 92 05 01 45 80  .....tlk0+....E.
0740: 23 66 27 80 FD 92 05 01  FD 92 05 01 74 6C 6B 31  #f'.........tlk1
0750: 52 25 80 F8 FF FF 7F F8  FF FF 7F 73 30 35 38 45  R%.........s058E
0760: 25 80 F8 FF FF 7F F8 FF  FF 7F 73 31 39 34 00 80  %.........s194..
0770: 5B 46 80 FE 92 05 01 FE  92 05 01 70 61 73 30 2B  [F.........pas0+
0780: FE 92 05 01 47 80 23 53  FE 92 05 01 FE 92 05 01  ....G.#S........
0790: 70 61 73 30 52 25 80 F8  FF FF 7F F8 FF FF 7F 73  pas0R%.........s
07A0: 31 39 34 45 25 80 F8 FF  FF 7F F8 FF FF 7F 73 30  194E%.........s0
07B0: 35 39 00 80 2B 42 93 05  01 48 80 23 52 25 80 F8  59..+B...H.#R%..
07C0: FF FF 7F F8 FF FF 7F 73  30 35 39 45 25 80 F8 FF  .......s059E%...
07D0: FF 7F F8 FF FF 7F 73 30  36 30 00 80 4A 42 93 05  ......s060..JB..
07E0: 01 F0 FF FF 7F 2B 42 93  05 01 49 80 23 52 25 80  .....+B...I.#R%.
07F0: F8 FF FF 7F F8 FF FF 7F  73 30 36 30 45 25 80 F8  ........s060E%..
0800: FF FF 7F F8 FF FF 7F 73  30 36 31 00 80 27 05 42  .......s061..'.B
0810: 93 05 01 03 1C 2C 80 27  05 F0 FF FF 7F 24 1C 23  .....,.'.....$.#
0820: 80 5D 00 80 01 80 45 02  80 F8 FF FF 7F F8 FF FF  .]....E.........
0830: 7F 66 64 6F 31 00 80 55  02 80 F8 FF FF 7F F8 FF  .fdo1..U........
0840: FF 7F 66 64 6F 31 52 25  80 F8 FF FF 7F F8 FF FF  ..fdo1R%........
0850: 7F 73 30 36 31 45 4A 80  F0 FF FF 7F F0 FF FF 7F  .s061EJ.........
0860: 71 73 74 63 00 80 46 00  1C 2C 80 45 02 80 F8 FF  qstc..F..,.E....
0870: FF 7F F8 FF FF 7F 66 64  69 31 00 80 21 00        ......fdi1..!.  
```

#### Opcodes

```
  0: 0x0001 [0x42] SET_CLI_EVENT_CANCEL_DATA()
  1: 0x0002 [0x5D] SET_MUSIC_VOLUME(volume=0*, fade_time=120*)
  2: 0x0007 [0x45] LOAD_SCHEDULED_TASK: Load scheduler "fdo1" with entities [EventEntity, EventEntity], work=[200*, 0*]
  3: 0x0018 [0x55] WAIT_LOAD_SCHEDULER: Wait for scheduler "fdo1" with entities [EventEntity, EventEntity], work=200*
  4: 0x0027 [0x46] CAMERA_CONTROL: Disable user control
  5: 0x0029 [0x38] SET_CLIENT_EVENT_MODE(mode=27*)
  6: 0x002C [0x2F] Werei (ID: 17142525/0x010592FD)->Render.Flags0 &= ~0x80000 // Bit 19
  7: 0x0032 [0x4E] SET_ENTITY_HIDE_FLAG: Show Werei (ID: 17142525/0x010592FD)
  8: 0x0038 [0x2F] Gumbah (ID: 17142526/0x010592FE)->Render.Flags0 &= ~0x80000 // Bit 19
  9: 0x003E [0x4E] SET_ENTITY_HIDE_FLAG: Show Gumbah (ID: 17142526/0x010592FE)
 10: 0x0044 [0x2F] Five Moons (ID: 17142590/0x0105933E)->Render.Flags0 &= ~0x80000 // Bit 19
 11: 0x004A [0x4E] SET_ENTITY_HIDE_FLAG: Show Five Moons (ID: 17142590/0x0105933E)
 12: 0x0050 [0x2F] Unnamed NPC (ID: 17142591/0x0105933F)->Render.Flags0 &= ~0x80000 // Bit 19
 13: 0x0056 [0x4E] SET_ENTITY_HIDE_FLAG: Show Unnamed NPC (ID: 17142591/0x0105933F)
 14: 0x005C [0x2F] Unnamed NPC (ID: 17142592/0x01059340)->Render.Flags0 &= ~0x80000 // Bit 19
 15: 0x0062 [0x4E] SET_ENTITY_HIDE_FLAG: Show Unnamed NPC (ID: 17142592/0x01059340)
 16: 0x0068 [0x2F] Unnamed NPC (ID: 17142593/0x01059341)->Render.Flags0 &= ~0x80000 // Bit 19
 17: 0x006E [0x4E] SET_ENTITY_HIDE_FLAG: Show Unnamed NPC (ID: 17142593/0x01059341)
 18: 0x0074 [0x2F] Volker (ID: 17142594/0x01059342)->Render.Flags0 &= ~0x80000 // Bit 19
 19: 0x007A [0x4E] SET_ENTITY_HIDE_FLAG: Show Volker (ID: 17142594/0x01059342)
 20: 0x0080 [0xBA] SET_ENTITY_POSITION(entity_id=Werei (ID: 17142525/0x010592FD), pos_x=256.901*, pos_z=518.427*, pos_y=33.598*, direction=355.6°*)
 21: 0x008D [0xBA] SET_ENTITY_POSITION(entity_id=Gumbah (ID: 17142526/0x010592FE), pos_x=255.527*, pos_z=519.648*, pos_y=33.585*, direction=7.2°*)
 22: 0x009A [0xBA] SET_ENTITY_POSITION(entity_id=Five Moons (ID: 17142590/0x0105933E), pos_x=258.798*, pos_z=519.033*, pos_y=33.584*, direction=152.7°*)
 23: 0x00A7 [0xBA] SET_ENTITY_POSITION(entity_id=Unnamed NPC (ID: 17142591/0x0105933F), pos_x=259.935*, pos_z=517.536*, pos_y=33.366*, direction=170.0°*)
 24: 0x00B4 [0xBA] SET_ENTITY_POSITION(entity_id=Unnamed NPC (ID: 17142592/0x01059340), pos_x=260.387*, pos_z=519.320*, pos_y=33.485*, direction=157.6°*)
 25: 0x00C1 [0xBA] SET_ENTITY_POSITION(entity_id=Unnamed NPC (ID: 17142593/0x01059341), pos_x=259.524*, pos_z=520.726*, pos_y=33.708*, direction=146.2°*)
 26: 0x00CE [0xBA] SET_ENTITY_POSITION(entity_id=Volker (ID: 17142594/0x01059342), pos_x=256.951*, pos_z=531.602*, pos_y=33.341*, direction=93.6°*)
 27: 0x00DB [0xBA] SET_ENTITY_POSITION(entity_id=LocalPlayer, pos_x=257.157*, pos_z=534.009*, pos_y=33.084*, direction=93.6°*)
 28: 0x00E8 [0x80] LOAD_WAIT(entity=Werei (ID: 17142525/0x010592FD))
 29: 0x00ED [0x80] LOAD_WAIT(entity=Gumbah (ID: 17142526/0x010592FE))
 30: 0x00F2 [0x80] LOAD_WAIT(entity=Five Moons (ID: 17142590/0x0105933E))
 31: 0x00F7 [0x80] LOAD_WAIT(entity=Unnamed NPC (ID: 17142591/0x0105933F))
 32: 0x00FC [0x80] LOAD_WAIT(entity=Unnamed NPC (ID: 17142592/0x01059340))
 33: 0x0101 [0x80] LOAD_WAIT(entity=Unnamed NPC (ID: 17142593/0x01059341))
 34: 0x0106 [0x80] LOAD_WAIT(entity=LocalPlayer)
 35: 0x010B [0x80] LOAD_WAIT(entity=Volker (ID: 17142594/0x01059342))
 36: 0x0110 [0x4A] Five Moons (ID: 17142590/0x0105933E) looks at Werei (ID: 17142525/0x010592FD)
 37: 0x0119 [0x4A] Unnamed NPC (ID: 17142591/0x0105933F) looks at Werei (ID: 17142525/0x010592FD)
 38: 0x0122 [0x4A] Unnamed NPC (ID: 17142592/0x01059340) looks at Werei (ID: 17142525/0x010592FD)
 39: 0x012B [0x4A] Unnamed NPC (ID: 17142593/0x01059341) looks at Werei (ID: 17142525/0x010592FD)
 40: 0x0134 [0x4A] Werei (ID: 17142525/0x010592FD) looks at Five Moons (ID: 17142590/0x0105933E)
 41: 0x013D [0x4A] Gumbah (ID: 17142526/0x010592FE) looks at Five Moons (ID: 17142590/0x0105933E)
 42: 0x0146 [0x1C] WAIT(30* ticks)
 43: 0x0149 [0x5C] MUSIC_CONTROL: Set Idle (Day) music to song 215*
 44: 0x014D [0x5C] MUSIC_CONTROL: Set Idle (Night) music to song 215*
 45: 0x0151 [0x9A] WAIT_MUSIC_SERVER()
 46: 0x0152 [0x45] LOAD_SCHEDULED_TASK: Load scheduler "s191" with entities [EventEntity, EventEntity], work=[362*, 0*]
 47: 0x0163 [0x1C] WAIT(15* ticks)
 48: 0x0166 [0x45] LOAD_SCHEDULED_TASK: Load scheduler "fdi1" with entities [EventEntity, EventEntity], work=[200*, 0*]
 49: 0x0177 [0x55] WAIT_LOAD_SCHEDULER: Wait for scheduler "fdi1" with entities [EventEntity, EventEntity], work=200*
 50: 0x0186 [0x1C] WAIT(120* ticks)
 51: 0x0189 [0x52] END_LOAD_SCHEDULER: End scheduler "s191" with entities [EventEntity, EventEntity], work=362*
 52: 0x0198 [0x45] LOAD_SCHEDULED_TASK: Load scheduler "s041" with entities [EventEntity, EventEntity], work=[362*, 0*]
 53: 0x01A9 [0x1C] WAIT(120* ticks)
 54: 0x01AC [0x52] END_LOAD_SCHEDULER: End scheduler "s041" with entities [EventEntity, EventEntity], work=362*
 55: 0x01BB [0x45] LOAD_SCHEDULED_TASK: Load scheduler "s192" with entities [EventEntity, EventEntity], work=[362*, 0*]
 56: 0x01CC [0x66] LOAD_EXT_SCHEDULER_MAIN: Load scheduler "tlk0" with entities [Werei (ID: 17142525/0x010592FD), Werei (ID: 17142525/0x010592FD)], work=69*
 57: 0x01DB [0x2B] Werei (ID: 17142525/0x010592FD) [7996*]:
    → "I'm afraid I cannot approve of your plan. The blood of the Humes will not wash away the past, nor will it cleanse our path for the future."
 58: 0x01E2 [0x23] WAIT_FOR_DIALOG_INTERACTION
 59: 0x01E3 [0x66] LOAD_EXT_SCHEDULER_MAIN: Load scheduler "tlk1" with entities [Werei (ID: 17142525/0x010592FD), Werei (ID: 17142525/0x010592FD)], work=69*
 60: 0x01F2 [0x52] END_LOAD_SCHEDULER: End scheduler "s192" with entities [EventEntity, EventEntity], work=362*
 61: 0x0201 [0x45] LOAD_SCHEDULED_TASK: Load scheduler "s193" with entities [EventEntity, EventEntity], work=[362*, 0*]
 62: 0x0212 [0x2B] Five Moons (ID: 17142590/0x0105933E) [7997*]:
    → "What's become of the passionate and decisive Werei I used to respect? Has your resolve weakened with age?"
 63: 0x0219 [0x23] WAIT_FOR_DIALOG_INTERACTION
 64: 0x021A [0x52] END_LOAD_SCHEDULER: End scheduler "s193" with entities [EventEntity, EventEntity], work=362*
 65: 0x0229 [0x45] LOAD_SCHEDULED_TASK: Load scheduler "s042" with entities [EventEntity, EventEntity], work=[362*, 0*]
 66: 0x023A [0x2B] Five Moons (ID: 17142590/0x0105933E) [7998*]:
    → "True change cannot be achieved without sacrifice--this is the lesson the hero, Darksteel Hurricane, taught us."
 67: 0x0241 [0x23] WAIT_FOR_DIALOG_INTERACTION
 68: 0x0242 [0x52] END_LOAD_SCHEDULER: End scheduler "s042" with entities [EventEntity, EventEntity], work=362*
 69: 0x0251 [0x45] LOAD_SCHEDULED_TASK: Load scheduler "s043" with entities [EventEntity, EventEntity], work=[362*, 0*]
 70: 0x0262 [0x4A] Five Moons (ID: 17142590/0x0105933E) looks at Unnamed NPC (ID: 17142592/0x01059340)
 71: 0x026B [0x2B] Five Moons (ID: 17142590/0x0105933E) [7999*]:
    → "My brothers! Are you ready to reclaim your honor!?"
 72: 0x0272 [0x23] WAIT_FOR_DIALOG_INTERACTION
 73: 0x0273 [0x45] LOAD_SCHEDULED_TASK: Load scheduler "kati" with entities [Unnamed NPC (ID: 17142591/0x0105933F), Unnamed NPC (ID: 17142591/0x0105933F)], work=[362*, 0*]
 74: 0x0284 [0x45] LOAD_SCHEDULED_TASK: Load scheduler "kati" with entities [Unnamed NPC (ID: 17142592/0x01059340), Unnamed NPC (ID: 17142592/0x01059340)], work=[362*, 0*]
 75: 0x0295 [0x45] LOAD_SCHEDULED_TASK: Load scheduler "kati" with entities [Unnamed NPC (ID: 17142593/0x01059341), Unnamed NPC (ID: 17142593/0x01059341)], work=[362*, 0*]
 76: 0x02A6 [0x1C] WAIT(30* ticks)
 77: 0x02A9 [0x27] REQ_SET(priority=0x05, entity_id=Unnamed NPC (ID: 17142591/0x0105933F), tag_num=0x02)
 78: 0x02B0 [0x27] REQ_SET(priority=0x05, entity_id=Unnamed NPC (ID: 17142592/0x01059340), tag_num=0x02)
 79: 0x02B7 [0x27] REQ_SET(priority=0x05, entity_id=Unnamed NPC (ID: 17142593/0x01059341), tag_num=0x02)
 80: 0x02BE [0x1C] WAIT(60* ticks)
 81: 0x02C1 [0x48] [System] [8000*]:
    → "We're ready!"
 82: 0x02C4 [0x23] WAIT_FOR_DIALOG_INTERACTION
 83: 0x02C5 [0x2A] GET_REQ_LEVEL(level=5, entity_id=Unnamed NPC (ID: 17142591/0x0105933F))
 84: 0x02CB [0x2A] GET_REQ_LEVEL(level=5, entity_id=Unnamed NPC (ID: 17142592/0x01059340))
 85: 0x02D1 [0x2A] GET_REQ_LEVEL(level=5, entity_id=Unnamed NPC (ID: 17142593/0x01059341))
 86: 0x02D7 [0x27] REQ_SET(priority=0x05, entity_id=Volker (ID: 17142594/0x01059342), tag_num=0x02)
 87: 0x02DE [0x1C] WAIT(5* ticks)
 88: 0x02E1 [0x27] REQ_SET(priority=0x05, entity_id=LocalPlayer, tag_num=0x23)
 89: 0x02E8 [0x1C] WAIT(30* ticks)
 90: 0x02EB [0x52] END_LOAD_SCHEDULER: End scheduler "s043" with entities [EventEntity, EventEntity], work=362*
 91: 0x02FA [0x45] LOAD_SCHEDULED_TASK: Load scheduler "s044" with entities [EventEntity, EventEntity], work=[362*, 0*]
 92: 0x030B [0x2B] Volker (ID: 17142594/0x01059342) [8001*]:
    → "Five Moons! Wait!"
 93: 0x0312 [0x23] WAIT_FOR_DIALOG_INTERACTION
 94: 0x0313 [0x4A] Five Moons (ID: 17142590/0x0105933E) looks at Volker (ID: 17142594/0x01059342)
 95: 0x031C [0x1C] WAIT(30* ticks)
 96: 0x031F [0x2B] Five Moons (ID: 17142590/0x0105933E) [8002*]:
    → "Volker!? How did you find me?"
 97: 0x0326 [0x23] WAIT_FOR_DIALOG_INTERACTION
 98: 0x0327 [0x2A] GET_REQ_LEVEL(level=5, entity_id=Volker (ID: 17142594/0x01059342))
 99: 0x032D [0x2A] GET_REQ_LEVEL(level=5, entity_id=LocalPlayer)
100: 0x0333 [0x4A] Werei (ID: 17142525/0x010592FD) looks at Volker (ID: 17142594/0x01059342)
101: 0x033C [0x4A] Gumbah (ID: 17142526/0x010592FE) looks at Volker (ID: 17142594/0x01059342)
102: 0x0345 [0x52] END_LOAD_SCHEDULER: End scheduler "s044" with entities [EventEntity, EventEntity], work=362*
103: 0x0354 [0x45] LOAD_SCHEDULED_TASK: Load scheduler "s045" with entities [EventEntity, EventEntity], work=[362*, 0*]
104: 0x0365 [0x5B] LOAD_EXT_SCHEDULER: Load scheduler "tsa0" with entities [Volker (ID: 17142594/0x01059342), Volker (ID: 17142594/0x01059342)], work=200*
105: 0x0374 [0x2B] Volker (ID: 17142594/0x01059342) [8003*]:
    → "Chairman Pale Eagle will be cleared of all suspicion--Senator Karst has sworn to personally see to it!"
106: 0x037B [0x23] WAIT_FOR_DIALOG_INTERACTION
107: 0x037C [0x5B] LOAD_EXT_SCHEDULER: Load scheduler "tsa1" with entities [Volker (ID: 17142594/0x01059342), Volker (ID: 17142594/0x01059342)], work=200*
108: 0x038B [0x52] END_LOAD_SCHEDULER: End scheduler "s045" with entities [EventEntity, EventEntity], work=362*
109: 0x039A [0x45] LOAD_SCHEDULED_TASK: Load scheduler "s046" with entities [EventEntity, EventEntity], work=[362*, 0*]
110: 0x03AB [0x27] REQ_SET(priority=0x05, entity_id=Five Moons (ID: 17142590/0x0105933E), tag_num=0x02)
111: 0x03B2 [0x2B] Five Moons (ID: 17142590/0x0105933E) [8004*]:
    → "What? Karst changed his mind about the accusations?"
112: 0x03B9 [0x23] WAIT_FOR_DIALOG_INTERACTION
113: 0x03BA [0x2A] GET_REQ_LEVEL(level=5, entity_id=Five Moons (ID: 17142590/0x0105933E))
114: 0x03C0 [0x5B] LOAD_EXT_SCHEDULER: Load scheduler "tsa0" with entities [Volker (ID: 17142594/0x01059342), Volker (ID: 17142594/0x01059342)], work=200*
115: 0x03CF [0x2B] Volker (ID: 17142594/0x01059342) [8005*]:
    → "Your words reached him, made him rethink."
116: 0x03D6 [0x23] WAIT_FOR_DIALOG_INTERACTION
117: 0x03D7 [0x52] END_LOAD_SCHEDULER: End scheduler "s046" with entities [EventEntity, EventEntity], work=362*
118: 0x03E6 [0x45] LOAD_SCHEDULED_TASK: Load scheduler "s047" with entities [EventEntity, EventEntity], work=[362*, 0*]
119: 0x03F7 [0xBA] SET_ENTITY_POSITION(entity_id=LocalPlayer, pos_x=260.277*, pos_z=527.072*, pos_y=34.115*, direction=93.6°*)
120: 0x0404 [0x80] LOAD_WAIT(entity=LocalPlayer)
121: 0x0409 [0x4A] LocalPlayer looks at Five Moons (ID: 17142590/0x0105933E)
122: 0x0412 [0x79] Werei (ID: 17142525/0x010592FD) looks at Five Moons (ID: 17142590/0x0105933E) (Basic look)
123: 0x041C [0x1C] WAIT(30* ticks)
124: 0x041F [0x2B] Five Moons (ID: 17142590/0x0105933E) [8006*]:
    → "My words...reached him?"
125: 0x0426 [0x23] WAIT_FOR_DIALOG_INTERACTION
126: 0x0427 [0x1C] WAIT(30* ticks)
127: 0x042A [0x52] END_LOAD_SCHEDULER: End scheduler "s047" with entities [EventEntity, EventEntity], work=362*
128: 0x0439 [0x45] LOAD_SCHEDULED_TASK: Load scheduler "s048" with entities [EventEntity, EventEntity], work=[362*, 0*]
129: 0x044A [0x79] Werei (ID: 17142525/0x010592FD) looks at Volker (ID: 17142594/0x01059342) (Basic look)
130: 0x0454 [0x2B] Volker (ID: 17142594/0x01059342) [8007*]:
    → "Now only the military police's charges against you remain. The captain has promised to do all she can, so let us return to headquarters."
131: 0x045B [0x23] WAIT_FOR_DIALOG_INTERACTION
132: 0x045C [0x5B] LOAD_EXT_SCHEDULER: Load scheduler "tsa1" with entities [Volker (ID: 17142594/0x01059342), Volker (ID: 17142594/0x01059342)], work=200*
133: 0x046B [0x52] END_LOAD_SCHEDULER: End scheduler "s048" with entities [EventEntity, EventEntity], work=362*
134: 0x047A [0x45] LOAD_SCHEDULED_TASK: Load scheduler "s049" with entities [EventEntity, EventEntity], work=[362*, 0*]
135: 0x048B [0x29] REQ_SET_WAIT(priority=0x05, entity_id=Five Moons (ID: 17142590/0x0105933E), tag_num=0x03)
136: 0x0492 [0x79] Unnamed NPC (ID: 17142591/0x0105933F) looks at Five Moons (ID: 17142590/0x0105933E) (Basic look)
137: 0x049C [0x79] Unnamed NPC (ID: 17142592/0x01059340) looks at Five Moons (ID: 17142590/0x0105933E) (Basic look)
138: 0x04A6 [0x79] Unnamed NPC (ID: 17142593/0x01059341) looks at Five Moons (ID: 17142590/0x0105933E) (Basic look)
139: 0x04B0 [0x1C] WAIT(60* ticks)
140: 0x04B3 [0x52] END_LOAD_SCHEDULER: End scheduler "s049" with entities [EventEntity, EventEntity], work=362*
141: 0x04C2 [0x45] LOAD_SCHEDULED_TASK: Load scheduler "s050" with entities [EventEntity, EventEntity], work=[362*, 0*]
142: 0x04D3 [0x79] Five Moons (ID: 17142590/0x0105933E) looks at Unnamed NPC (ID: 17142593/0x01059341) (Basic look)
143: 0x04DD [0x1C] WAIT(180* ticks)
144: 0x04E0 [0x52] END_LOAD_SCHEDULER: End scheduler "s050" with entities [EventEntity, EventEntity], work=362*
145: 0x04EF [0x45] LOAD_SCHEDULED_TASK: Load scheduler "s051" with entities [EventEntity, EventEntity], work=[362*, 0*]
146: 0x0500 [0x79] Five Moons (ID: 17142590/0x0105933E) looks at Volker (ID: 17142594/0x01059342) (Basic look)
147: 0x050A [0x1C] WAIT(120* ticks)
148: 0x050D [0x6E] Five Moons (ID: 17142590/0x0105933E) uses emote 6*
149: 0x0514 [0x99] Wait for Five Moons (ID: 17142590/0x0105933E) animation to complete
150: 0x0519 [0x2B] Five Moons (ID: 17142590/0x0105933E) [8008*]:
    → "Volker, you're still not seeing the big picture. This one incident is merely a drop in the ocean. The oppression and inequality my people have suffered for centuries--all of this still remains."
151: 0x0520 [0x23] WAIT_FOR_DIALOG_INTERACTION
152: 0x0521 [0x52] END_LOAD_SCHEDULER: End scheduler "s051" with entities [EventEntity, EventEntity], work=362*
153: 0x0530 [0x45] LOAD_SCHEDULED_TASK: Load scheduler "s052" with entities [EventEntity, EventEntity], work=[362*, 0*]
154: 0x0541 [0x6E] Five Moons (ID: 17142590/0x0105933E) uses emote 7*
155: 0x0548 [0x99] Wait for Five Moons (ID: 17142590/0x0105933E) animation to complete
156: 0x054D [0x2B] Five Moons (ID: 17142590/0x0105933E) [8009*]:
    → "But now, a new storm of change has arisen...and there's no stopping it."
157: 0x0554 [0x23] WAIT_FOR_DIALOG_INTERACTION
158: 0x0555 [0x52] END_LOAD_SCHEDULER: End scheduler "s052" with entities [EventEntity, EventEntity], work=362*
159: 0x0564 [0x45] LOAD_SCHEDULED_TASK: Load scheduler "s053" with entities [EventEntity, EventEntity], work=[362*, 0*]
160: 0x0575 [0x4A] Five Moons (ID: 17142590/0x0105933E) looks at Unnamed NPC (ID: 17142592/0x01059340)
161: 0x057E [0x1C] WAIT(30* ticks)
162: 0x0581 [0x2B] Five Moons (ID: 17142590/0x0105933E) [8010*]:
    → "My brothers! Let us go!"
163: 0x0588 [0x23] WAIT_FOR_DIALOG_INTERACTION
164: 0x0589 [0x52] END_LOAD_SCHEDULER: End scheduler "s053" with entities [EventEntity, EventEntity], work=362*
165: 0x0598 [0x45] LOAD_SCHEDULED_TASK: Load scheduler "s054" with entities [EventEntity, EventEntity], work=[362*, 0*]
166: 0x05A9 [0x27] REQ_SET(priority=0x05, entity_id=Five Moons (ID: 17142590/0x0105933E), tag_num=0x04)
167: 0x05B0 [0x1C] WAIT(60* ticks)
168: 0x05B3 [0x27] REQ_SET(priority=0x05, entity_id=Unnamed NPC (ID: 17142593/0x01059341), tag_num=0x03)
169: 0x05BA [0x27] REQ_SET(priority=0x05, entity_id=Unnamed NPC (ID: 17142592/0x01059340), tag_num=0x03)
170: 0x05C1 [0x27] REQ_SET(priority=0x05, entity_id=Unnamed NPC (ID: 17142591/0x0105933F), tag_num=0x03)
171: 0x05C8 [0x1C] WAIT(30* ticks)
172: 0x05CB [0x4A] Volker (ID: 17142594/0x01059342) looks at Five Moons (ID: 17142590/0x0105933E)
173: 0x05D4 [0x1C] WAIT(30* ticks)
174: 0x05D7 [0x2B] Volker (ID: 17142594/0x01059342) [8011*]:
    → "Five Moons!"
175: 0x05DE [0x23] WAIT_FOR_DIALOG_INTERACTION
176: 0x05DF [0x2A] GET_REQ_LEVEL(level=5, entity_id=Unnamed NPC (ID: 17142592/0x01059340))
177: 0x05E5 [0x5B] LOAD_EXT_SCHEDULER: Load scheduler "sit0" with entities [Volker (ID: 17142594/0x01059342), Volker (ID: 17142594/0x01059342)], work=1395*
178: 0x05F4 [0x52] END_LOAD_SCHEDULER: End scheduler "s054" with entities [EventEntity, EventEntity], work=362*
179: 0x0603 [0x45] LOAD_SCHEDULED_TASK: Load scheduler "s055" with entities [EventEntity, EventEntity], work=[362*, 0*]
180: 0x0614 [0x2B] Volker (ID: 17142594/0x01059342) [8012*]:
    → "Damn him! What am I supposed to do now?"
181: 0x061B [0x23] WAIT_FOR_DIALOG_INTERACTION
182: 0x061C [0x53] WAIT_SCHEDULER_TASK: Wait for scheduler "sit0" with entities [Volker (ID: 17142594/0x01059342), Volker (ID: 17142594/0x01059342)]
183: 0x0629 [0x27] REQ_SET(priority=0x05, entity_id=Werei (ID: 17142525/0x010592FD), tag_num=0x06)
184: 0x0630 [0x1C] WAIT(30* ticks)
185: 0x0633 [0x27] REQ_SET(priority=0x05, entity_id=Gumbah (ID: 17142526/0x010592FE), tag_num=0x05)
186: 0x063A [0x1C] WAIT(30* ticks)
187: 0x063D [0x52] END_LOAD_SCHEDULER: End scheduler "s055" with entities [EventEntity, EventEntity], work=362*
188: 0x064C [0x45] LOAD_SCHEDULED_TASK: Load scheduler "s056" with entities [EventEntity, EventEntity], work=[362*, 0*]
189: 0x065D [0x4E] SET_ENTITY_HIDE_FLAG: Hide Five Moons (ID: 17142590/0x0105933E)
190: 0x0663 [0x4E] SET_ENTITY_HIDE_FLAG: Hide Unnamed NPC (ID: 17142591/0x0105933F)
191: 0x0669 [0x4E] SET_ENTITY_HIDE_FLAG: Hide Unnamed NPC (ID: 17142592/0x01059340)
192: 0x066F [0x4E] SET_ENTITY_HIDE_FLAG: Hide Unnamed NPC (ID: 17142593/0x01059341)
193: 0x0675 [0x4A] LocalPlayer looks at Werei (ID: 17142525/0x010592FD)
194: 0x067E [0x5B] LOAD_EXT_SCHEDULER: Load scheduler "sit1" with entities [Volker (ID: 17142594/0x01059342), Volker (ID: 17142594/0x01059342)], work=1395*
195: 0x068D [0x2B] Werei (ID: 17142525/0x010592FD) [8013*]:
    → "Listen to me, Volker. They intend to seize power from the government by taking the Republic's defenses unawares and overrunning key facilities."
196: 0x0694 [0x23] WAIT_FOR_DIALOG_INTERACTION
197: 0x0695 [0x53] WAIT_SCHEDULER_TASK: Wait for scheduler "sit1" with entities [Volker (ID: 17142594/0x01059342), Volker (ID: 17142594/0x01059342)]
198: 0x06A2 [0x52] END_LOAD_SCHEDULER: End scheduler "s056" with entities [EventEntity, EventEntity], work=362*
199: 0x06B1 [0x45] LOAD_SCHEDULED_TASK: Load scheduler "s189" with entities [EventEntity, EventEntity], work=[362*, 0*]
200: 0x06C2 [0x4A] Volker (ID: 17142594/0x01059342) looks at Werei (ID: 17142525/0x010592FD)
201: 0x06CB [0x1C] WAIT(30* ticks)
202: 0x06CE [0x2B] Volker (ID: 17142594/0x01059342) [8014*]:
    → "What!?"
203: 0x06D5 [0x23] WAIT_FOR_DIALOG_INTERACTION
204: 0x06D6 [0x52] END_LOAD_SCHEDULER: End scheduler "s189" with entities [EventEntity, EventEntity], work=362*
205: 0x06E5 [0x45] LOAD_SCHEDULED_TASK: Load scheduler "s057" with entities [EventEntity, EventEntity], work=[362*, 0*]
206: 0x06F6 [0x2B] Volker (ID: 17142594/0x01059342) [8015*]:
    → "But...why are you telling me all this?"
207: 0x06FD [0x23] WAIT_FOR_DIALOG_INTERACTION
208: 0x06FE [0x2A] GET_REQ_LEVEL(level=5, entity_id=Werei (ID: 17142525/0x010592FD))
209: 0x0704 [0x2A] GET_REQ_LEVEL(level=5, entity_id=Gumbah (ID: 17142526/0x010592FE))
210: 0x070A [0x52] END_LOAD_SCHEDULER: End scheduler "s057" with entities [EventEntity, EventEntity], work=362*
211: 0x0719 [0x45] LOAD_SCHEDULED_TASK: Load scheduler "s058" with entities [EventEntity, EventEntity], work=[362*, 0*]
212: 0x072A [0x66] LOAD_EXT_SCHEDULER_MAIN: Load scheduler "tlk0" with entities [Werei (ID: 17142525/0x010592FD), Werei (ID: 17142525/0x010592FD)], work=69*
213: 0x0739 [0x2B] Werei (ID: 17142525/0x010592FD) [8016*]:
    → "Should all-out conflict erupt between Hume and Galka, the nation and her citizens will suffer irreparably. Their plan must not be allowed to succeed."
214: 0x0740 [0x23] WAIT_FOR_DIALOG_INTERACTION
215: 0x0741 [0x66] LOAD_EXT_SCHEDULER_MAIN: Load scheduler "tlk1" with entities [Werei (ID: 17142525/0x010592FD), Werei (ID: 17142525/0x010592FD)], work=69*
216: 0x0750 [0x52] END_LOAD_SCHEDULER: End scheduler "s058" with entities [EventEntity, EventEntity], work=362*
217: 0x075F [0x45] LOAD_SCHEDULED_TASK: Load scheduler "s194" with entities [EventEntity, EventEntity], work=[362*, 0*]
218: 0x0770 [0x5B] LOAD_EXT_SCHEDULER: Load scheduler "pas0" with entities [Gumbah (ID: 17142526/0x010592FE), Gumbah (ID: 17142526/0x010592FE)], work=377*
219: 0x077F [0x2B] Gumbah (ID: 17142526/0x010592FE) [8017*]:
    → "Take this with you. It may be of some use."
220: 0x0786 [0x23] WAIT_FOR_DIALOG_INTERACTION
221: 0x0787 [0x53] WAIT_SCHEDULER_TASK: Wait for scheduler "pas0" with entities [Gumbah (ID: 17142526/0x010592FE), Gumbah (ID: 17142526/0x010592FE)]
222: 0x0794 [0x52] END_LOAD_SCHEDULER: End scheduler "s194" with entities [EventEntity, EventEntity], work=362*
223: 0x07A3 [0x45] LOAD_SCHEDULED_TASK: Load scheduler "s059" with entities [EventEntity, EventEntity], work=[362*, 0*]
224: 0x07B4 [0x2B] Volker (ID: 17142594/0x01059342) [8018*]:
    → "Thank you. The entire nation is indebted to you all."
225: 0x07BB [0x23] WAIT_FOR_DIALOG_INTERACTION
226: 0x07BC [0x52] END_LOAD_SCHEDULER: End scheduler "s059" with entities [EventEntity, EventEntity], work=362*
227: 0x07CB [0x45] LOAD_SCHEDULED_TASK: Load scheduler "s060" with entities [EventEntity, EventEntity], work=[362*, 0*]
228: 0x07DC [0x4A] Volker (ID: 17142594/0x01059342) looks at LocalPlayer
229: 0x07E5 [0x2B] Volker (ID: 17142594/0x01059342) [8019*]:
    → "<Player>, let us make haste!"
230: 0x07EC [0x23] WAIT_FOR_DIALOG_INTERACTION
231: 0x07ED [0x52] END_LOAD_SCHEDULER: End scheduler "s060" with entities [EventEntity, EventEntity], work=362*
232: 0x07FC [0x45] LOAD_SCHEDULED_TASK: Load scheduler "s061" with entities [EventEntity, EventEntity], work=[362*, 0*]
233: 0x080D [0x27] REQ_SET(priority=0x05, entity_id=Volker (ID: 17142594/0x01059342), tag_num=0x03)
234: 0x0814 [0x1C] WAIT(60* ticks)
235: 0x0817 [0x27] REQ_SET(priority=0x05, entity_id=LocalPlayer, tag_num=0x24)
236: 0x081E [0x1C] WAIT(30* ticks)
237: 0x0821 [0x5D] SET_MUSIC_VOLUME(volume=0*, fade_time=120*)
238: 0x0826 [0x45] LOAD_SCHEDULED_TASK: Load scheduler "fdo1" with entities [EventEntity, EventEntity], work=[200*, 0*]
239: 0x0837 [0x55] WAIT_LOAD_SCHEDULER: Wait for scheduler "fdo1" with entities [EventEntity, EventEntity], work=200*
240: 0x0846 [0x52] END_LOAD_SCHEDULER: End scheduler "s061" with entities [EventEntity, EventEntity], work=362*
241: 0x0855 [0x45] LOAD_SCHEDULED_TASK: Load scheduler "qstc" with entities [LocalPlayer, LocalPlayer], work=[201*, 0*]
242: 0x0866 [0x46] CAMERA_CONTROL: Restore default settings
243: 0x0868 [0x1C] WAIT(60* ticks)
244: 0x086B [0x45] LOAD_SCHEDULED_TASK: Load scheduler "fdi1" with entities [EventEntity, EventEntity], work=[200*, 0*]
245: 0x087C [0x21] END_EVENT
246: 0x087D [0x00] END_REQSTACK()
```
