# 17142566

## Common Data

| Field            | Value                 |
|------------------|-----------------------|
| Zone             | Grauberg [S] (ID: 89) |
| Block Size       | 924 bytes             |
| Total Events     | 31                    |
| References Count | 70                    |

## List of Events

| Event ID                   | Entrypoint   |   Size |   Instructions |
|----------------------------|--------------|--------|----------------|
| [65535](#event-65535)      | 0x0000       |      1 |              1 |
| [12](#event-12)            | 0x0001       |      5 |              2 |
| [65535.1](#event-655351)   | 0x0006       |     15 |              5 |
| [65535.2](#event-655352)   | 0x0015       |    108 |             23 |
| [65535.3](#event-655353)   | 0x0081       |      6 |              2 |
| [65535.4](#event-655354)   | 0x0087       |     14 |              4 |
| [19](#event-19)            | 0x0095       |      1 |              1 |
| [65535.5](#event-655355)   | 0x0096       |     22 |              6 |
| [21](#event-21)            | 0x00AC       |      1 |              1 |
| [65535.6](#event-655356)   | 0x00AD       |     54 |             12 |
| [26](#event-26)            | 0x00E3       |      1 |              1 |
| [27](#event-27)            | 0x00E4       |      1 |              1 |
| [65535.7](#event-655357)   | 0x00E5       |     22 |              6 |
| [65535.8](#event-655358)   | 0x00FB       |     24 |              6 |
| [65535.9](#event-655359)   | 0x0113       |     20 |              5 |
| [65535.10](#event-6553510) | 0x0127       |     24 |              6 |
| [65535.11](#event-6553511) | 0x013F       |     31 |              6 |
| [65535.12](#event-6553512) | 0x015E       |     31 |              6 |
| [65535.13](#event-6553513) | 0x017D       |     31 |              6 |
| [65535.14](#event-6553514) | 0x019C       |     19 |              4 |
| [28](#event-28)            | 0x01AF       |      1 |              1 |
| [65535.15](#event-6553515) | 0x01B0       |      1 |              1 |
| [65535.16](#event-6553516) | 0x01B1       |     18 |              4 |
| [65535.17](#event-6553517) | 0x01C3       |     10 |              2 |
| [65535.18](#event-6553518) | 0x01CD       |      9 |              3 |
| [65535.19](#event-6553519) | 0x01D6       |      9 |              3 |
| [65535.20](#event-6553520) | 0x01DF       |     10 |              2 |
| [65535.21](#event-6553521) | 0x01E9       |     10 |              2 |
| [34](#event-34)            | 0x01F3       |      1 |              1 |
| [35](#event-35)            | 0x01F4       |      1 |              1 |
| [36](#event-36)            | 0x01F5       |      1 |              1 |

## DAT References (imed_data)

|   Index | Hex Value   |   Dec Value |
|---------|-------------|-------------|
|       0 | 0x004B      |          75 |
|       1 | 0x000D      |          13 |
|       2 | 0xFFFE4634  |  4294854196 |
|       3 | 0x8E353     |      582483 |
|       4 | 0xFFFFE3E1  |  4294960097 |
|       5 | 0x0000      |           0 |
|       6 | 0xFFFE46F7  |  4294854391 |
|       7 | 0x8DCD5     |      580821 |
|       8 | 0xFFFFE3D7  |  4294960087 |
|       9 | 0xFFFE4938  |  4294854968 |
|      10 | 0x8DBB5     |      580533 |
|      11 | 0xFFFE4F0B  |  4294856459 |
|      12 | 0x8DB81     |      580481 |
|      13 | 0xFFFFE369  |  4294959977 |
|      14 | 0xFFFE4FEC  |  4294856684 |
|      15 | 0x8DD7C     |      580988 |
|      16 | 0xFFFFE352  |  4294959954 |
|      17 | 0xFFFE5111  |  4294856977 |
|      18 | 0x8E8AB     |      583851 |
|      19 | 0xFFFFE2CD  |  4294959821 |
|      20 | 0xFFFE4FC1  |  4294856641 |
|      21 | 0x8EE5B     |      585307 |
|      22 | 0xFFFFE264  |  4294959716 |
|      23 | 0xFFFE49D4  |  4294855124 |
|      24 | 0x8EBF3     |      584691 |
|      25 | 0xFFFFE391  |  4294960017 |
|      26 | 0x001E      |          30 |
|      27 | 0x0001      |           1 |
|      28 | 0x0028      |          40 |
|      29 | 0xFFFE3A62  |  4294851170 |
|      30 | 0x8E489     |      582793 |
|      31 | 0xFFFFE379  |  4294959993 |
|      32 | 0xFFFDE0F7  |  4294828279 |
|      33 | 0x8A77B     |      567163 |
|      34 | 0xFFFFE3BE  |  4294960062 |
|      35 | 0xFFFDD5C2  |  4294825410 |
|      36 | 0x8A535     |      566581 |
|      37 | 0xFFFFE544  |  4294960452 |
|      38 | 0xFFFDD769  |  4294825833 |
|      39 | 0x89FFD     |      565245 |
|      40 | 0xFFFFE58E  |  4294960526 |
|      41 | 0xFFFDE439  |  4294829113 |
|      42 | 0x89DFC     |      564732 |
|      43 | 0xFFFFE4DA  |  4294960346 |
|      44 | 0xFFFDE63B  |  4294829627 |
|      45 | 0x8A376     |      566134 |
|      46 | 0xFFFFE47D  |  4294960253 |
|      47 | 0xFFFDD811  |  4294826001 |
|      48 | 0x8AA67     |      567911 |
|      49 | 0xFFFFE4FA  |  4294960378 |
|      50 | 0xFFFE2001  |  4294844417 |
|      51 | 0x8EC6E     |      584814 |
|      52 | 0xFFFFE509  |  4294960393 |
|      53 | 0xFFFDEB94  |  4294830996 |
|      54 | 0x8E62A     |      583210 |
|      55 | 0xFFFFE220  |  4294959648 |
|      56 | 0x003C      |          60 |
|      57 | 0x000F      |          15 |
|      58 | 0xFFFE35CC  |  4294849996 |
|      59 | 0x8D43C     |      578620 |
|      60 | 0xFFFE2200  |  4294844928 |
|      61 | 0x8E5E1     |      583137 |
|      62 | 0xFFFFE499  |  4294960281 |
|      63 | 0x07EE      |        2030 |
|      64 | 0x0080      |         128 |
|      65 | 0x08CF      |        2255 |
|      66 | 0x0034      |          52 |
|      67 | 0xFFFE2FF0  |  4294848496 |
|      68 | 0x8EB84     |      584580 |
|      69 | 0xFFFFE083  |  4294959235 |

## Events

### Event 65535

#### Metadata

| Field        | Value   |
|--------------|---------|
| Entrypoint   | 0x0000  |
| Data Size    | 1 bytes |
| Instructions | 1       |

```
      00 01 02 03 04 05 06 07  08 09 0A 0B 0C 0D 0E 0F
      -- -- -- -- -- -- -- --  -- -- -- -- -- -- -- --
0000: 00                                                .               
```

#### Opcodes

```
  0: 0x0000 [0x00] END_REQSTACK()
```

### Event 12

#### Metadata

| Field        | Value   |
|--------------|---------|
| Entrypoint   | 0x0001  |
| Data Size    | 5 bytes |
| Instructions | 2       |

```
      00 01 02 03 04 05 06 07  08 09 0A 0B 0C 0D 0E 0F
      -- -- -- -- -- -- -- --  -- -- -- -- -- -- -- --
0000:    B6 0F 00 80 00                                  .....          
```

#### Opcodes

```
  0: 0x0001 [0xB6] ENTITY_APPEARANCE_HANDLER(case=Model size, value=75*)
  1: 0x0005 [0x00] END_REQSTACK()
```

### Event 65535.1

#### Metadata

| Field        | Value    |
|--------------|----------|
| Entrypoint   | 0x0006   |
| Data Size    | 15 bytes |
| Instructions | 5        |

```
      00 01 02 03 04 05 06 07  08 09 0A 0B 0C 0D 0E 0F
      -- -- -- -- -- -- -- --  -- -- -- -- -- -- -- --
0000:                   32 01  80 1F 00 02 80 03 80 04        2.........
0010: 80 1F 01 6F 00                                    ...o.           
```

#### Opcodes

```
  0: 0x0006 [0x32] ExtData[1]->MainSpeed = 13* * 0.1
  1: 0x0009 [0x1F] MOVE_ENTITY: EventEntity moves to X=-113.100*, Z=582.483*, Y=-7.199*
  2: 0x0011 [0x1F] MOVE_ENTITY: Update entity position (mode=1)
  3: 0x0013 [0x6F] WAIT_FRAME_DELAY: Yield until WaitTime reaches zero
  4: 0x0014 [0x00] END_REQSTACK()
```

### Event 65535.2

#### Metadata

| Field        | Value     |
|--------------|-----------|
| Entrypoint   | 0x0015    |
| Data Size    | 108 bytes |
| Instructions | 23        |

```
      00 01 02 03 04 05 06 07  08 09 0A 0B 0C 0D 0E 0F
      -- -- -- -- -- -- -- --  -- -- -- -- -- -- -- --
0010:                03 00 00  05 80 02 00 00 05 80 00       ...........
0020: 78 00 32 01 80 1F 00 06  80 07 80 08 80 1F 01 1F  x.2.............
0030: 00 09 80 0A 80 04 80 1F  01 1F 00 0B 80 0C 80 0D  ................
0040: 80 1F 01 1F 00 0E 80 0F  80 10 80 1F 01 1F 00 11  ................
0050: 80 12 80 13 80 1F 01 1F  00 14 80 15 80 16 80 1F  ................
0060: 01 1F 00 17 80 18 80 19  80 1F 01 1F 00 02 80 03  ................
0070: 80 04 80 1F 01 01 1A 00  1E 23 93 05 01 1C 1A 80  .........#......
0080: 00                                                .               
```

#### Opcodes

```
  0: 0x0015 [0x03] ExtData[1]->WorkLocal[0] = 0*
  1: 0x001A [0x02] IF !(ExtData[1]->WorkLocal[0] == 0*) GOTO 0x0078
  2: 0x0022 [0x32] ExtData[1]->MainSpeed = 13* * 0.1
  3: 0x0025 [0x1F] MOVE_ENTITY: EventEntity moves to X=-112.905*, Z=580.821*, Y=-7.209*
  4: 0x002D [0x1F] MOVE_ENTITY: Update entity position (mode=1)
  5: 0x002F [0x1F] MOVE_ENTITY: EventEntity moves to X=-112.328*, Z=580.533*, Y=-7.199*
  6: 0x0037 [0x1F] MOVE_ENTITY: Update entity position (mode=1)
  7: 0x0039 [0x1F] MOVE_ENTITY: EventEntity moves to X=-110.837*, Z=580.481*, Y=-7.319*
  8: 0x0041 [0x1F] MOVE_ENTITY: Update entity position (mode=1)
  9: 0x0043 [0x1F] MOVE_ENTITY: EventEntity moves to X=-110.612*, Z=580.988*, Y=-7.342*
 10: 0x004B [0x1F] MOVE_ENTITY: Update entity position (mode=1)
 11: 0x004D [0x1F] MOVE_ENTITY: EventEntity moves to X=-110.319*, Z=583.851*, Y=-7.475*
 12: 0x0055 [0x1F] MOVE_ENTITY: Update entity position (mode=1)
 13: 0x0057 [0x1F] MOVE_ENTITY: EventEntity moves to X=-110.655*, Z=585.307*, Y=-7.580*
 14: 0x005F [0x1F] MOVE_ENTITY: Update entity position (mode=1)
 15: 0x0061 [0x1F] MOVE_ENTITY: EventEntity moves to X=-112.172*, Z=584.691*, Y=-7.279*
 16: 0x0069 [0x1F] MOVE_ENTITY: Update entity position (mode=1)
 17: 0x006B [0x1F] MOVE_ENTITY: EventEntity moves to X=-113.100*, Z=582.483*, Y=-7.199*
 18: 0x0073 [0x1F] MOVE_ENTITY: Update entity position (mode=1)
 19: 0x0075 [0x01] GOTO 0x001A
 20: 0x0078 [0x1E] EventEntity looks at Laila (ID: 17142563/0x01059323) and starts talking
 21: 0x007D [0x1C] WAIT(30* ticks)
 22: 0x0080 [0x00] END_REQSTACK()
```

### Event 65535.3

#### Metadata

| Field        | Value   |
|--------------|---------|
| Entrypoint   | 0x0081  |
| Data Size    | 6 bytes |
| Instructions | 2       |

```
      00 01 02 03 04 05 06 07  08 09 0A 0B 0C 0D 0E 0F
      -- -- -- -- -- -- -- --  -- -- -- -- -- -- -- --
0080:    03 00 00 1B 80 00                               ......         
```

#### Opcodes

```
  0: 0x0081 [0x03] ExtData[1]->WorkLocal[0] = 1*
  1: 0x0086 [0x00] END_REQSTACK()
```

### Event 65535.4

#### Metadata

| Field        | Value    |
|--------------|----------|
| Entrypoint   | 0x0087   |
| Data Size    | 14 bytes |
| Instructions | 4        |

```
      00 01 02 03 04 05 06 07  08 09 0A 0B 0C 0D 0E 0F
      -- -- -- -- -- -- -- --  -- -- -- -- -- -- -- --
0080:                      32  1C 80 1F 00 1D 80 1E 80         2........
0090: 1F 80 1F 01 00                                    .....           
```

#### Opcodes

```
  0: 0x0087 [0x32] ExtData[1]->MainSpeed = 40* * 0.1
  1: 0x008A [0x1F] MOVE_ENTITY: EventEntity moves to X=-116.126*, Z=582.793*, Y=-7.303*
  2: 0x0092 [0x1F] MOVE_ENTITY: Update entity position (mode=1)
  3: 0x0094 [0x00] END_REQSTACK()
```

### Event 19

#### Metadata

| Field        | Value   |
|--------------|---------|
| Entrypoint   | 0x0095  |
| Data Size    | 1 bytes |
| Instructions | 1       |

```
      00 01 02 03 04 05 06 07  08 09 0A 0B 0C 0D 0E 0F
      -- -- -- -- -- -- -- --  -- -- -- -- -- -- -- --
0090:                00                                      .          
```

#### Opcodes

```
  0: 0x0095 [0x00] END_REQSTACK()
```

### Event 65535.5

#### Metadata

| Field        | Value    |
|--------------|----------|
| Entrypoint   | 0x0096   |
| Data Size    | 22 bytes |
| Instructions | 6        |

```
      00 01 02 03 04 05 06 07  08 09 0A 0B 0C 0D 0E 0F
      -- -- -- -- -- -- -- --  -- -- -- -- -- -- -- --
0090:                   32 1C  80 1F 00 20 80 21 80 22        2.... .!."
00A0: 80 1F 01 1E 28 93 05 01  1C 1A 80 00              ....(.......    
```

#### Opcodes

```
  0: 0x0096 [0x32] ExtData[1]->MainSpeed = 40* * 0.1
  1: 0x0099 [0x1F] MOVE_ENTITY: EventEntity moves to X=-139.017*, Z=567.163*, Y=-7.234*
  2: 0x00A1 [0x1F] MOVE_ENTITY: Update entity position (mode=1)
  3: 0x00A3 [0x1E] EventEntity looks at Unnamed NPC (ID: 17142568/0x01059328) and starts talking
  4: 0x00A8 [0x1C] WAIT(30* ticks)
  5: 0x00AB [0x00] END_REQSTACK()
```

### Event 21

#### Metadata

| Field        | Value   |
|--------------|---------|
| Entrypoint   | 0x00AC  |
| Data Size    | 1 bytes |
| Instructions | 1       |

```
      00 01 02 03 04 05 06 07  08 09 0A 0B 0C 0D 0E 0F
      -- -- -- -- -- -- -- --  -- -- -- -- -- -- -- --
00A0:                                      00                       .   
```

#### Opcodes

```
  0: 0x00AC [0x00] END_REQSTACK()
```

### Event 65535.6

#### Metadata

| Field        | Value    |
|--------------|----------|
| Entrypoint   | 0x00AD   |
| Data Size    | 54 bytes |
| Instructions | 12       |

```
      00 01 02 03 04 05 06 07  08 09 0A 0B 0C 0D 0E 0F
      -- -- -- -- -- -- -- --  -- -- -- -- -- -- -- --
00A0:                                         32 01 80               2..
00B0: 1F 00 23 80 24 80 25 80  1F 01 1F 00 26 80 27 80  ..#.$.%.....&.'.
00C0: 28 80 1F 01 1F 00 29 80  2A 80 2B 80 1F 01 1F 00  (.....).*.+.....
00D0: 2C 80 2D 80 2E 80 1F 01  1F 00 2F 80 30 80 31 80  ,.-......./.0.1.
00E0: 1F 01 00                                          ...             
```

#### Opcodes

```
  0: 0x00AD [0x32] ExtData[1]->MainSpeed = 13* * 0.1
  1: 0x00B0 [0x1F] MOVE_ENTITY: EventEntity moves to X=-141.886*, Z=566.581*, Y=-6.844*
  2: 0x00B8 [0x1F] MOVE_ENTITY: Update entity position (mode=1)
  3: 0x00BA [0x1F] MOVE_ENTITY: EventEntity moves to X=-141.463*, Z=565.245*, Y=-6.770*
  4: 0x00C2 [0x1F] MOVE_ENTITY: Update entity position (mode=1)
  5: 0x00C4 [0x1F] MOVE_ENTITY: EventEntity moves to X=-138.183*, Z=564.732*, Y=-6.950*
  6: 0x00CC [0x1F] MOVE_ENTITY: Update entity position (mode=1)
  7: 0x00CE [0x1F] MOVE_ENTITY: EventEntity moves to X=-137.669*, Z=566.134*, Y=-7.043*
  8: 0x00D6 [0x1F] MOVE_ENTITY: Update entity position (mode=1)
  9: 0x00D8 [0x1F] MOVE_ENTITY: EventEntity moves to X=-141.295*, Z=567.911*, Y=-6.918*
 10: 0x00E0 [0x1F] MOVE_ENTITY: Update entity position (mode=1)
 11: 0x00E2 [0x00] END_REQSTACK()
```

### Event 26

#### Metadata

| Field        | Value   |
|--------------|---------|
| Entrypoint   | 0x00E3  |
| Data Size    | 1 bytes |
| Instructions | 1       |

```
      00 01 02 03 04 05 06 07  08 09 0A 0B 0C 0D 0E 0F
      -- -- -- -- -- -- -- --  -- -- -- -- -- -- -- --
00E0:          00                                          .            
```

#### Opcodes

```
  0: 0x00E3 [0x00] END_REQSTACK()
```

### Event 27

#### Metadata

| Field        | Value   |
|--------------|---------|
| Entrypoint   | 0x00E4  |
| Data Size    | 1 bytes |
| Instructions | 1       |

```
      00 01 02 03 04 05 06 07  08 09 0A 0B 0C 0D 0E 0F
      -- -- -- -- -- -- -- --  -- -- -- -- -- -- -- --
00E0:             00                                        .           
```

#### Opcodes

```
  0: 0x00E4 [0x00] END_REQSTACK()
```

### Event 65535.7

#### Metadata

| Field        | Value    |
|--------------|----------|
| Entrypoint   | 0x00E5   |
| Data Size    | 22 bytes |
| Instructions | 6        |

```
      00 01 02 03 04 05 06 07  08 09 0A 0B 0C 0D 0E 0F
      -- -- -- -- -- -- -- --  -- -- -- -- -- -- -- --
00E0:                32 1C 80  1F 00 32 80 33 80 34 80       2....2.3.4.
00F0: 1F 01 1E F0 FF FF 7F 1C  1A 80 00                 ...........     
```

#### Opcodes

```
  0: 0x00E5 [0x32] ExtData[1]->MainSpeed = 40* * 0.1
  1: 0x00E8 [0x1F] MOVE_ENTITY: EventEntity moves to X=-122.879*, Z=584.814*, Y=-6.903*
  2: 0x00F0 [0x1F] MOVE_ENTITY: Update entity position (mode=1)
  3: 0x00F2 [0x1E] EventEntity looks at LocalPlayer and starts talking
  4: 0x00F7 [0x1C] WAIT(30* ticks)
  5: 0x00FA [0x00] END_REQSTACK()
```

### Event 65535.8

#### Metadata

| Field        | Value    |
|--------------|----------|
| Entrypoint   | 0x00FB   |
| Data Size    | 24 bytes |
| Instructions | 6        |

```
      00 01 02 03 04 05 06 07  08 09 0A 0B 0C 0D 0E 0F
      -- -- -- -- -- -- -- --  -- -- -- -- -- -- -- --
00F0:                                   1F 00 35 80 36             ..5.6
0100: 80 37 80 1F 01 6F 1C 38  80 4A F8 FF FF 7F F0 FF  .7...o.8.J......
0110: FF 7F 00                                          ...             
```

#### Opcodes

```
  0: 0x00FB [0x1F] MOVE_ENTITY: EventEntity moves to X=-136.300*, Z=583.210*, Y=-7.648*
  1: 0x0103 [0x1F] MOVE_ENTITY: Update entity position (mode=1)
  2: 0x0105 [0x6F] WAIT_FRAME_DELAY: Yield until WaitTime reaches zero
  3: 0x0106 [0x1C] WAIT(60* ticks)
  4: 0x0109 [0x4A] EventEntity looks at LocalPlayer
  5: 0x0112 [0x00] END_REQSTACK()
```

### Event 65535.9

#### Metadata

| Field        | Value    |
|--------------|----------|
| Entrypoint   | 0x0113   |
| Data Size    | 20 bytes |
| Instructions | 5        |

```
      00 01 02 03 04 05 06 07  08 09 0A 0B 0C 0D 0E 0F
      -- -- -- -- -- -- -- --  -- -- -- -- -- -- -- --
0110:          59 04 F8 FF FF  7F 39 80 1F 00 3A 80 3B     Y.....9...:.;
0120: 80 37 80 1F 01 6F 00                              .7...o.         
```

#### Opcodes

```
  0: 0x0113 [0x59] UPDATE_ENTITY_DATA: Set EventEntity main speed = 15* * 0.1
  1: 0x011B [0x1F] MOVE_ENTITY: EventEntity moves to X=-117.300*, Z=578.620*, Y=-7.648*
  2: 0x0123 [0x1F] MOVE_ENTITY: Update entity position (mode=1)
  3: 0x0125 [0x6F] WAIT_FRAME_DELAY: Yield until WaitTime reaches zero
  4: 0x0126 [0x00] END_REQSTACK()
```

### Event 65535.10

#### Metadata

| Field        | Value    |
|--------------|----------|
| Entrypoint   | 0x0127   |
| Data Size    | 24 bytes |
| Instructions | 6        |

```
      00 01 02 03 04 05 06 07  08 09 0A 0B 0C 0D 0E 0F
      -- -- -- -- -- -- -- --  -- -- -- -- -- -- -- --
0120:                      1F  00 3C 80 3D 80 3E 80 1F         ..<.=.>..
0130: 01 6F 1C 1A 80 4A F8 FF  FF 7F F0 FF FF 7F 00     .o...J......... 
```

#### Opcodes

```
  0: 0x0127 [0x1F] MOVE_ENTITY: EventEntity moves to X=-122.368*, Z=583.137*, Y=-7.015*
  1: 0x012F [0x1F] MOVE_ENTITY: Update entity position (mode=1)
  2: 0x0131 [0x6F] WAIT_FRAME_DELAY: Yield until WaitTime reaches zero
  3: 0x0132 [0x1C] WAIT(30* ticks)
  4: 0x0135 [0x4A] EventEntity looks at LocalPlayer
  5: 0x013E [0x00] END_REQSTACK()
```

### Event 65535.11

#### Metadata

| Field        | Value    |
|--------------|----------|
| Entrypoint   | 0x013F   |
| Data Size    | 31 bytes |
| Instructions | 6        |

```
      00 01 02 03 04 05 06 07  08 09 0A 0B 0C 0D 0E 0F
      -- -- -- -- -- -- -- --  -- -- -- -- -- -- -- --
0130:                                               B6                 .
0140: 00 3F 80 80 F8 FF FF 7F  4E 00 F8 FF FF 7F 2F 00  .?......N...../.
0150: F8 FF FF 7F 6C F8 FF FF  7F 40 80 1B 80 00        ....l....@....  
```

#### Opcodes

```
  0: 0x013F [0xB6] ENTITY_APPEARANCE_HANDLER(case=Hair style, value=2030*)
  1: 0x0143 [0x80] LOAD_WAIT(entity=EventEntity)
  2: 0x0148 [0x4E] SET_ENTITY_HIDE_FLAG: Show EventEntity
  3: 0x014E [0x2F] EventEntity->Render.Flags0 &= ~0x80000 // Bit 19
  4: 0x0154 [0x6C] FADE_ENTITY_COLOR(entity_id=EventEntity, end_alpha=128*, fade_time=1*)
  5: 0x015D [0x00] END_REQSTACK()
```

### Event 65535.12

#### Metadata

| Field        | Value    |
|--------------|----------|
| Entrypoint   | 0x015E   |
| Data Size    | 31 bytes |
| Instructions | 6        |

```
      00 01 02 03 04 05 06 07  08 09 0A 0B 0C 0D 0E 0F
      -- -- -- -- -- -- -- --  -- -- -- -- -- -- -- --
0150:                                            B6 00                ..
0160: 41 80 80 F8 FF FF 7F 4E  00 F8 FF FF 7F 2F 00 F8  A......N...../..
0170: FF FF 7F 6C F8 FF FF 7F  40 80 1B 80 00           ...l....@....   
```

#### Opcodes

```
  0: 0x015E [0xB6] ENTITY_APPEARANCE_HANDLER(case=Hair style, value=2255*)
  1: 0x0162 [0x80] LOAD_WAIT(entity=EventEntity)
  2: 0x0167 [0x4E] SET_ENTITY_HIDE_FLAG: Show EventEntity
  3: 0x016D [0x2F] EventEntity->Render.Flags0 &= ~0x80000 // Bit 19
  4: 0x0173 [0x6C] FADE_ENTITY_COLOR(entity_id=EventEntity, end_alpha=128*, fade_time=1*)
  5: 0x017C [0x00] END_REQSTACK()
```

### Event 65535.13

#### Metadata

| Field        | Value    |
|--------------|----------|
| Entrypoint   | 0x017D   |
| Data Size    | 31 bytes |
| Instructions | 6        |

```
      00 01 02 03 04 05 06 07  08 09 0A 0B 0C 0D 0E 0F
      -- -- -- -- -- -- -- --  -- -- -- -- -- -- -- --
0170:                                         B6 00 42               ..B
0180: 80 80 F8 FF FF 7F 4E 00  F8 FF FF 7F 2F 00 F8 FF  ......N...../...
0190: FF 7F 6C F8 FF FF 7F 05  80 1B 80 00              ..l.........    
```

#### Opcodes

```
  0: 0x017D [0xB6] ENTITY_APPEARANCE_HANDLER(case=Hair style, value=52*)
  1: 0x0181 [0x80] LOAD_WAIT(entity=EventEntity)
  2: 0x0186 [0x4E] SET_ENTITY_HIDE_FLAG: Show EventEntity
  3: 0x018C [0x2F] EventEntity->Render.Flags0 &= ~0x80000 // Bit 19
  4: 0x0192 [0x6C] FADE_ENTITY_COLOR(entity_id=EventEntity, end_alpha=0*, fade_time=1*)
  5: 0x019B [0x00] END_REQSTACK()
```

### Event 65535.14

#### Metadata

| Field        | Value    |
|--------------|----------|
| Entrypoint   | 0x019C   |
| Data Size    | 19 bytes |
| Instructions | 4        |

```
      00 01 02 03 04 05 06 07  08 09 0A 0B 0C 0D 0E 0F
      -- -- -- -- -- -- -- --  -- -- -- -- -- -- -- --
0190:                                      59 04 F8 FF              Y...
01A0: FF 7F 01 80 5A 00 43 80  44 80 45 80 5A 01 00     ....Z.C.D.E.Z.. 
```

#### Opcodes

```
  0: 0x019C [0x59] UPDATE_ENTITY_DATA: Set EventEntity main speed = 13* * 0.1
  1: 0x01A4 [0x5A] UPDATE_EVENT_POSITION: Set EventEntity MovePosition to X=-118.800*, Z=584.580*, Y=-8.061*
  2: 0x01AC [0x5A] UPDATE_EVENT_POSITION: Move EventEntity incrementally towards MovePosition
  3: 0x01AE [0x00] END_REQSTACK()
```

### Event 28

#### Metadata

| Field        | Value   |
|--------------|---------|
| Entrypoint   | 0x01AF  |
| Data Size    | 1 bytes |
| Instructions | 1       |

```
      00 01 02 03 04 05 06 07  08 09 0A 0B 0C 0D 0E 0F
      -- -- -- -- -- -- -- --  -- -- -- -- -- -- -- --
01A0:                                               00                 .
```

#### Opcodes

```
  0: 0x01AF [0x00] END_REQSTACK()
```

### Event 65535.15

#### Metadata

| Field        | Value   |
|--------------|---------|
| Entrypoint   | 0x01B0  |
| Data Size    | 1 bytes |
| Instructions | 1       |

```
      00 01 02 03 04 05 06 07  08 09 0A 0B 0C 0D 0E 0F
      -- -- -- -- -- -- -- --  -- -- -- -- -- -- -- --
01B0: 00                                                .               
```

#### Opcodes

```
  0: 0x01B0 [0x00] END_REQSTACK()
```

### Event 65535.16

#### Metadata

| Field        | Value    |
|--------------|----------|
| Entrypoint   | 0x01B1   |
| Data Size    | 18 bytes |
| Instructions | 4        |

```
      00 01 02 03 04 05 06 07  08 09 0A 0B 0C 0D 0E 0F
      -- -- -- -- -- -- -- --  -- -- -- -- -- -- -- --
01B0:    22 00 2F 00 F8 FF FF  7F 6C F8 FF FF 7F 05 80   "./.....l......
01C0: 1B 80 00                                          ...             
```

#### Opcodes

```
  0: 0x01B1 [0x22] ENTITY_HIDE_FLAG(enabled=0x00)
  1: 0x01B3 [0x2F] EventEntity->Render.Flags0 &= ~0x80000 // Bit 19
  2: 0x01B9 [0x6C] FADE_ENTITY_COLOR(entity_id=EventEntity, end_alpha=0*, fade_time=1*)
  3: 0x01C2 [0x00] END_REQSTACK()
```

### Event 65535.17

#### Metadata

| Field        | Value    |
|--------------|----------|
| Entrypoint   | 0x01C3   |
| Data Size    | 10 bytes |
| Instructions | 2        |

```
      00 01 02 03 04 05 06 07  08 09 0A 0B 0C 0D 0E 0F
      -- -- -- -- -- -- -- --  -- -- -- -- -- -- -- --
01C0:          6C F8 FF FF 7F  40 80 1B 80 00              l....@....   
```

#### Opcodes

```
  0: 0x01C3 [0x6C] FADE_ENTITY_COLOR(entity_id=EventEntity, end_alpha=128*, fade_time=1*)
  1: 0x01CC [0x00] END_REQSTACK()
```

### Event 65535.18

#### Metadata

| Field        | Value   |
|--------------|---------|
| Entrypoint   | 0x01CD  |
| Data Size    | 9 bytes |
| Instructions | 3       |

```
      00 01 02 03 04 05 06 07  08 09 0A 0B 0C 0D 0E 0F
      -- -- -- -- -- -- -- --  -- -- -- -- -- -- -- --
01C0:                                         22 00 2F               "./
01D0: 00 F8 FF FF 7F 00                                 ......          
```

#### Opcodes

```
  0: 0x01CD [0x22] ENTITY_HIDE_FLAG(enabled=0x00)
  1: 0x01CF [0x2F] EventEntity->Render.Flags0 &= ~0x80000 // Bit 19
  2: 0x01D5 [0x00] END_REQSTACK()
```

### Event 65535.19

#### Metadata

| Field        | Value   |
|--------------|---------|
| Entrypoint   | 0x01D6  |
| Data Size    | 9 bytes |
| Instructions | 3       |

```
      00 01 02 03 04 05 06 07  08 09 0A 0B 0C 0D 0E 0F
      -- -- -- -- -- -- -- --  -- -- -- -- -- -- -- --
01D0:                   22 01  2F 01 F8 FF FF 7F 00           "./...... 
```

#### Opcodes

```
  0: 0x01D6 [0x22] ENTITY_HIDE_FLAG(enabled=0x01)
  1: 0x01D8 [0x2F] EventEntity->Render.Flags0 |= 0x80000 // Bit 19
  2: 0x01DE [0x00] END_REQSTACK()
```

### Event 65535.20

#### Metadata

| Field        | Value    |
|--------------|----------|
| Entrypoint   | 0x01DF   |
| Data Size    | 10 bytes |
| Instructions | 2        |

```
      00 01 02 03 04 05 06 07  08 09 0A 0B 0C 0D 0E 0F
      -- -- -- -- -- -- -- --  -- -- -- -- -- -- -- --
01D0:                                               6C                 l
01E0: F8 FF FF 7F 05 80 1B 80  00                       .........       
```

#### Opcodes

```
  0: 0x01DF [0x6C] FADE_ENTITY_COLOR(entity_id=EventEntity, end_alpha=0*, fade_time=1*)
  1: 0x01E8 [0x00] END_REQSTACK()
```

### Event 65535.21

#### Metadata

| Field        | Value    |
|--------------|----------|
| Entrypoint   | 0x01E9   |
| Data Size    | 10 bytes |
| Instructions | 2        |

```
      00 01 02 03 04 05 06 07  08 09 0A 0B 0C 0D 0E 0F
      -- -- -- -- -- -- -- --  -- -- -- -- -- -- -- --
01E0:                             6C F8 FF FF 7F 40 80           l....@.
01F0: 1B 80 00                                          ...             
```

#### Opcodes

```
  0: 0x01E9 [0x6C] FADE_ENTITY_COLOR(entity_id=EventEntity, end_alpha=128*, fade_time=1*)
  1: 0x01F2 [0x00] END_REQSTACK()
```

### Event 34

#### Metadata

| Field        | Value   |
|--------------|---------|
| Entrypoint   | 0x01F3  |
| Data Size    | 1 bytes |
| Instructions | 1       |

```
      00 01 02 03 04 05 06 07  08 09 0A 0B 0C 0D 0E 0F
      -- -- -- -- -- -- -- --  -- -- -- -- -- -- -- --
01F0:          00                                          .            
```

#### Opcodes

```
  0: 0x01F3 [0x00] END_REQSTACK()
```

### Event 35

#### Metadata

| Field        | Value   |
|--------------|---------|
| Entrypoint   | 0x01F4  |
| Data Size    | 1 bytes |
| Instructions | 1       |

```
      00 01 02 03 04 05 06 07  08 09 0A 0B 0C 0D 0E 0F
      -- -- -- -- -- -- -- --  -- -- -- -- -- -- -- --
01F0:             00                                        .           
```

#### Opcodes

```
  0: 0x01F4 [0x00] END_REQSTACK()
```

### Event 36

#### Metadata

| Field        | Value   |
|--------------|---------|
| Entrypoint   | 0x01F5  |
| Data Size    | 1 bytes |
| Instructions | 1       |

```
      00 01 02 03 04 05 06 07  08 09 0A 0B 0C 0D 0E 0F
      -- -- -- -- -- -- -- --  -- -- -- -- -- -- -- --
01F0:                00                                      .          
```

#### Opcodes

```
  0: 0x01F5 [0x00] END_REQSTACK()
```
