# 17142637

## Common Data

| Field            | Value                 |
|------------------|-----------------------|
| Zone             | Grauberg [S] (ID: 89) |
| Block Size       | 936 bytes             |
| Total Events     | 3                     |
| References Count | 32                    |

## List of Events

| Event ID              | Entrypoint   |   Size |   Instructions |
|-----------------------|--------------|--------|----------------|
| [65535](#event-65535) | 0x0000       |      1 |              1 |
| [47](#event-47)       | 0x0001       |    482 |             57 |
| [48](#event-48)       | 0x01E3       |    295 |             38 |

## DAT References (imed_data)

|   Index | Hex Value   |   Dec Value |
|---------|-------------|-------------|
|       0 | 0x00C8      |         200 |
|       1 | 0x0000      |           0 |
|       2 | 0x001B      |          27 |
|       3 | 0xFFFE1D9A  |  4294843802 |
|       4 | 0x92609     |      599561 |
|       5 | 0xFFFFE0BA  |  4294959290 |
|       6 | 0x07EF      |        2031 |
|       7 | 0xFFFDFD8D  |  4294835597 |
|       8 | 0x92602     |      599554 |
|       9 | 0xFFFFE250  |  4294959696 |
|      10 | 0x0FEB      |        4075 |
|      11 | 0x001E      |          30 |
|      12 | 0x0001      |           1 |
|      13 | 0x008C      |         140 |
|      14 | 0x0002      |           2 |
|      15 | 0x0096      |         150 |
|      16 | 0x0003      |           3 |
|      17 | 0x00A0      |         160 |
|      18 | 0x0004      |           4 |
|      19 | 0x00AA      |         170 |
|      20 | 0x0005      |           5 |
|      21 | 0x00B4      |         180 |
|      22 | 0x0006      |           6 |
|      23 | 0x0007      |           7 |
|      24 | 0x00BE      |         190 |
|      25 | 0x0008      |           8 |
|      26 | 0x02FE      |         766 |
|      27 | 0x000F      |          15 |
|      28 | 0x0078      |         120 |
|      29 | 0xFFFFE242  |  4294959682 |
|      30 | 0x005A      |          90 |
|      31 | 0x0065      |         101 |

## Events

### Event 65535

#### Metadata

| Field        | Value   |
|--------------|---------|
| Entrypoint   | 0x0000  |
| Data Size    | 1 bytes |
| Instructions | 1       |

```
      00 01 02 03 04 05 06 07  08 09 0A 0B 0C 0D 0E 0F
      -- -- -- -- -- -- -- --  -- -- -- -- -- -- -- --
0000: 00                                                .               
```

#### Opcodes

```
  0: 0x0000 [0x00] END_REQSTACK()
```

### Event 47

#### Metadata

| Field        | Value     |
|--------------|-----------|
| Entrypoint   | 0x0001    |
| Data Size    | 482 bytes |
| Instructions | 57        |

```
      00 01 02 03 04 05 06 07  08 09 0A 0B 0C 0D 0E 0F
      -- -- -- -- -- -- -- --  -- -- -- -- -- -- -- --
0000:    42 45 00 80 F0 FF FF  7F F0 FF FF 7F 66 64 6F   BE..........fdo
0010: 31 01 80 55 00 80 F0 FF  FF 7F F0 FF FF 7F 66 64  1..U..........fd
0020: 6F 31 46 01 38 02 80 2F  00 6F 93 05 01 4E 00 6F  o1F.8../.o...N.o
0030: 93 05 01 4E 00 F0 FF FF  7F 94 01 6F 93 05 01 94  ...N.......o....
0040: 01 F0 FF FF 7F 59 05 F0  FF FF 7F 01 BA 6F 93 05  .....Y.......o..
0050: 01 03 80 04 80 05 80 06  80 BA F0 FF FF 7F 07 80  ................
0060: 08 80 09 80 0A 80 80 6F  93 05 01 80 F0 FF FF 7F  .......o........
0070: 4A F0 FF FF 7F 6F 93 05  01 7B F0 FF FF 7F 1C 0B  J....o...{......
0080: 80 02 87 7F 0C 80 80 9B  00 66 0D 80 F0 FF FF 7F  .........f......
0090: F0 FF FF 7F 6F 72 7A 30  01 51 01 02 87 7F 0E 80  ....orz0.Q......
00A0: 80 B5 00 66 0F 80 F0 FF  FF 7F F0 FF FF 7F 6F 72  ...f..........or
00B0: 7A 30 01 51 01 02 87 7F  10 80 80 CF 00 66 11 80  z0.Q.........f..
00C0: F0 FF FF 7F F0 FF FF 7F  6F 72 7A 30 01 51 01 02  ........orz0.Q..
00D0: 87 7F 12 80 80 E9 00 66  13 80 F0 FF FF 7F F0 FF  .......f........
00E0: FF 7F 6F 72 7A 30 01 51  01 02 87 7F 14 80 80 03  ..orz0.Q........
00F0: 01 66 15 80 F0 FF FF 7F  F0 FF FF 7F 6F 72 7A 30  .f..........orz0
0100: 01 51 01 02 87 7F 16 80  80 1D 01 66 15 80 F0 FF  .Q.........f....
0110: FF 7F F0 FF FF 7F 6F 72  7A 30 01 51 01 02 87 7F  ......orz0.Q....
0120: 17 80 80 37 01 66 18 80  F0 FF FF 7F F0 FF FF 7F  ...7.f..........
0130: 6F 72 7A 30 01 51 01 02  87 7F 19 80 80 51 01 66  orz0.Q.......Q.f
0140: 00 80 F0 FF FF 7F F0 FF  FF 7F 6F 72 7A 30 01 51  ..........orz0.Q
0150: 01 1C 0B 80 45 1A 80 F8  FF FF 7F F8 FF FF 7F 73  ....E..........s
0160: 31 34 38 01 80 1C 1B 80  45 00 80 F0 FF FF 7F F0  148.....E.......
0170: FF FF 7F 66 64 69 31 01  80 1C 1C 80 52 1A 80 F8  ...fdi1.....R...
0180: FF FF 7F F8 FF FF 7F 73  31 34 38 45 1A 80 F8 FF  .......s148E....
0190: FF 7F F8 FF FF 7F 73 31  34 39 01 80 1C 1C 80 45  ......s149.....E
01A0: 00 80 F0 FF FF 7F F0 FF  FF 7F 66 64 6F 31 01 80  ..........fdo1..
01B0: 55 00 80 F0 FF FF 7F F0  FF FF 7F 66 64 6F 31 52  U..........fdo1R
01C0: 1A 80 F8 FF FF 7F F8 FF  FF 7F 73 31 34 39 46 00  ..........s149F.
01D0: 45 00 80 F0 FF FF 7F F0  FF FF 7F 66 64 69 32 01  E..........fdi2.
01E0: 80 21 00                                          .!.             
```

#### Opcodes

```
  0: 0x0001 [0x42] SET_CLI_EVENT_CANCEL_DATA()
  1: 0x0002 [0x45] LOAD_SCHEDULED_TASK: Load scheduler "fdo1" with entities [LocalPlayer, LocalPlayer], work=[200*, 0*]
  2: 0x0013 [0x55] WAIT_LOAD_SCHEDULER: Wait for scheduler "fdo1" with entities [LocalPlayer, LocalPlayer], work=200*
  3: 0x0022 [0x46] CAMERA_CONTROL: Disable user control
  4: 0x0024 [0x38] SET_CLIENT_EVENT_MODE(mode=27*)
  5: 0x0027 [0x2F] Unnamed NPC (ID: 17142639/0x0105936F)->Render.Flags0 &= ~0x80000 // Bit 19
  6: 0x002D [0x4E] SET_ENTITY_HIDE_FLAG: Show Unnamed NPC (ID: 17142639/0x0105936F)
  7: 0x0033 [0x4E] SET_ENTITY_HIDE_FLAG: Show LocalPlayer
  8: 0x0039 [0x94] Unnamed NPC (ID: 17142639/0x0105936F)->Render.Flags3 ^= 0x01
  9: 0x003F [0x94] LocalPlayer->Render.Flags3 ^= 0x01
 10: 0x0045 [0x59] UPDATE_ENTITY_DATA: LocalPlayer->Render.Flags0 |= 0x200000
 11: 0x004C [0xBA] SET_ENTITY_POSITION(entity_id=Unnamed NPC (ID: 17142639/0x0105936F), pos_x=-123.494*, pos_z=599.561*, pos_y=-8.006*, direction=178.5째*)
 12: 0x0059 [0xBA] SET_ENTITY_POSITION(entity_id=LocalPlayer, pos_x=-131.699*, pos_z=599.554*, pos_y=-7.600*, direction=358.1째*)
 13: 0x0066 [0x80] LOAD_WAIT(entity=Unnamed NPC (ID: 17142639/0x0105936F))
 14: 0x006B [0x80] LOAD_WAIT(entity=LocalPlayer)
 15: 0x0070 [0x4A] LocalPlayer looks at Unnamed NPC (ID: 17142639/0x0105936F)
 16: 0x0079 [0x7B] LocalPlayer stops talking
 17: 0x007E [0x1C] WAIT(30* ticks)
 18: 0x0081 [0x02] IF !(LocalPlayer->Race == 1*) GOTO 0x009B
 19: 0x0089 [0x66] LOAD_EXT_SCHEDULER_MAIN: Load scheduler "orz0" with entities [LocalPlayer, LocalPlayer], work=140*
 20: 0x0098 [0x01] GOTO 0x0151
 21: 0x009B [0x02] IF !(LocalPlayer->Race == 2*) GOTO 0x00B5
 22: 0x00A3 [0x66] LOAD_EXT_SCHEDULER_MAIN: Load scheduler "orz0" with entities [LocalPlayer, LocalPlayer], work=150*
 23: 0x00B2 [0x01] GOTO 0x0151
 24: 0x00B5 [0x02] IF !(LocalPlayer->Race == 3*) GOTO 0x00CF
 25: 0x00BD [0x66] LOAD_EXT_SCHEDULER_MAIN: Load scheduler "orz0" with entities [LocalPlayer, LocalPlayer], work=160*
 26: 0x00CC [0x01] GOTO 0x0151
 27: 0x00CF [0x02] IF !(LocalPlayer->Race == 4*) GOTO 0x00E9
 28: 0x00D7 [0x66] LOAD_EXT_SCHEDULER_MAIN: Load scheduler "orz0" with entities [LocalPlayer, LocalPlayer], work=170*
 29: 0x00E6 [0x01] GOTO 0x0151
 30: 0x00E9 [0x02] IF !(LocalPlayer->Race == 5*) GOTO 0x0103
 31: 0x00F1 [0x66] LOAD_EXT_SCHEDULER_MAIN: Load scheduler "orz0" with entities [LocalPlayer, LocalPlayer], work=180*
 32: 0x0100 [0x01] GOTO 0x0151
 33: 0x0103 [0x02] IF !(LocalPlayer->Race == 6*) GOTO 0x011D
 34: 0x010B [0x66] LOAD_EXT_SCHEDULER_MAIN: Load scheduler "orz0" with entities [LocalPlayer, LocalPlayer], work=180*
 35: 0x011A [0x01] GOTO 0x0151
 36: 0x011D [0x02] IF !(LocalPlayer->Race == 7*) GOTO 0x0137
 37: 0x0125 [0x66] LOAD_EXT_SCHEDULER_MAIN: Load scheduler "orz0" with entities [LocalPlayer, LocalPlayer], work=190*
 38: 0x0134 [0x01] GOTO 0x0151
 39: 0x0137 [0x02] IF !(LocalPlayer->Race == 8*) GOTO 0x0151
 40: 0x013F [0x66] LOAD_EXT_SCHEDULER_MAIN: Load scheduler "orz0" with entities [LocalPlayer, LocalPlayer], work=200*
 41: 0x014E [0x01] GOTO 0x0151

SUBROUTINE_0151:
 42: 0x0151 [0x1C] WAIT(30* ticks)
 43: 0x0154 [0x45] LOAD_SCHEDULED_TASK: Load scheduler "s148" with entities [EventEntity, EventEntity], work=[766*, 0*]
 44: 0x0165 [0x1C] WAIT(15* ticks)
 45: 0x0168 [0x45] LOAD_SCHEDULED_TASK: Load scheduler "fdi1" with entities [LocalPlayer, LocalPlayer], work=[200*, 0*]
 46: 0x0179 [0x1C] WAIT(120* ticks)
 47: 0x017C [0x52] END_LOAD_SCHEDULER: End scheduler "s148" with entities [EventEntity, EventEntity], work=766*
 48: 0x018B [0x45] LOAD_SCHEDULED_TASK: Load scheduler "s149" with entities [EventEntity, EventEntity], work=[766*, 0*]
 49: 0x019C [0x1C] WAIT(120* ticks)
 50: 0x019F [0x45] LOAD_SCHEDULED_TASK: Load scheduler "fdo1" with entities [LocalPlayer, LocalPlayer], work=[200*, 0*]
 51: 0x01B0 [0x55] WAIT_LOAD_SCHEDULER: Wait for scheduler "fdo1" with entities [LocalPlayer, LocalPlayer], work=200*
 52: 0x01BF [0x52] END_LOAD_SCHEDULER: End scheduler "s149" with entities [EventEntity, EventEntity], work=766*
 53: 0x01CE [0x46] CAMERA_CONTROL: Restore default settings
 54: 0x01D0 [0x45] LOAD_SCHEDULED_TASK: Load scheduler "fdi2" with entities [LocalPlayer, LocalPlayer], work=[200*, 0*]
 55: 0x01E1 [0x21] END_EVENT
 56: 0x01E2 [0x00] END_REQSTACK()
```

### Event 48

#### Metadata

| Field        | Value     |
|--------------|-----------|
| Entrypoint   | 0x01E3    |
| Data Size    | 295 bytes |
| Instructions | 38        |

```
      00 01 02 03 04 05 06 07  08 09 0A 0B 0C 0D 0E 0F
      -- -- -- -- -- -- -- --  -- -- -- -- -- -- -- --
01E0:          42 45 00 80 F0  FF FF 7F F0 FF FF 7F 66     BE..........f
01F0: 64 6F 31 01 80 55 00 80  F0 FF FF 7F F0 FF FF 7F  do1..U..........
0200: 66 64 6F 31 46 01 38 02  80 2F 00 6F 93 05 01 4E  fdo1F.8../.o...N
0210: 00 6F 93 05 01 94 01 6F  93 05 01 BA 6F 93 05 01  .o.....o....o...
0220: 03 80 04 80 05 80 06 80  BA F0 FF FF 7F 07 80 08  ................
0230: 80 1D 80 0A 80 80 6F 93  05 01 80 F0 FF FF 7F 4A  ......o........J
0240: F0 FF FF 7F 6F 93 05 01  1C 0B 80 5C 02 01 80 5C  ....o......\...\
0250: 03 01 80 9A 27 05 F0 FF  FF 7F 13 2C 6F 93 05 01  ....'......,o...
0260: 6F 93 05 01 64 65 61 64  45 1A 80 F8 FF FF 7F F8  o...deadE.......
0270: FF FF 7F 73 30 33 34 01  80 1C 1B 80 45 00 80 F0  ...s034.....E...
0280: FF FF 7F F0 FF FF 7F 66  64 69 31 01 80 1C 15 80  .......fdi1.....
0290: 52 1A 80 F8 FF FF 7F F8  FF FF 7F 73 30 33 34 45  R..........s034E
02A0: 1A 80 F8 FF FF 7F F8 FF  FF 7F 73 30 33 33 01 80  ..........s033..
02B0: 1C 0F 80 27 05 F0 FF FF  7F 14 1C 1E 80 45 00 80  ...'.........E..
02C0: F0 FF FF 7F F0 FF FF 7F  66 64 6F 31 01 80 55 00  ........fdo1..U.
02D0: 80 F0 FF FF 7F F0 FF FF  7F 66 64 6F 31 52 1A 80  .........fdo1R..
02E0: F8 FF FF 7F F8 FF FF 7F  73 30 33 33 5C 02 1F 80  ........s033\...
02F0: 5C 03 1F 80 9A 46 00 45  00 80 F0 FF FF 7F F0 FF  \....F.E........
0300: FF 7F 66 64 69 32 01 80  21 00                    ..fdi2..!.      
```

#### Opcodes

```
  0: 0x01E3 [0x42] SET_CLI_EVENT_CANCEL_DATA()
  1: 0x01E4 [0x45] LOAD_SCHEDULED_TASK: Load scheduler "fdo1" with entities [LocalPlayer, LocalPlayer], work=[200*, 0*]
  2: 0x01F5 [0x55] WAIT_LOAD_SCHEDULER: Wait for scheduler "fdo1" with entities [LocalPlayer, LocalPlayer], work=200*
  3: 0x0204 [0x46] CAMERA_CONTROL: Disable user control
  4: 0x0206 [0x38] SET_CLIENT_EVENT_MODE(mode=27*)
  5: 0x0209 [0x2F] Unnamed NPC (ID: 17142639/0x0105936F)->Render.Flags0 &= ~0x80000 // Bit 19
  6: 0x020F [0x4E] SET_ENTITY_HIDE_FLAG: Show Unnamed NPC (ID: 17142639/0x0105936F)
  7: 0x0215 [0x94] Unnamed NPC (ID: 17142639/0x0105936F)->Render.Flags3 ^= 0x01
  8: 0x021B [0xBA] SET_ENTITY_POSITION(entity_id=Unnamed NPC (ID: 17142639/0x0105936F), pos_x=-123.494*, pos_z=599.561*, pos_y=-8.006*, direction=178.5째*)
  9: 0x0228 [0xBA] SET_ENTITY_POSITION(entity_id=LocalPlayer, pos_x=-131.699*, pos_z=599.554*, pos_y=-7.614*, direction=358.1째*)
 10: 0x0235 [0x80] LOAD_WAIT(entity=Unnamed NPC (ID: 17142639/0x0105936F))
 11: 0x023A [0x80] LOAD_WAIT(entity=LocalPlayer)
 12: 0x023F [0x4A] LocalPlayer looks at Unnamed NPC (ID: 17142639/0x0105936F)
 13: 0x0248 [0x1C] WAIT(30* ticks)
 14: 0x024B [0x5C] MUSIC_CONTROL: Set Combat (Solo) music to song 0*
 15: 0x024F [0x5C] MUSIC_CONTROL: Set Combat (Party) music to song 0*
 16: 0x0253 [0x9A] WAIT_MUSIC_SERVER()
 17: 0x0254 [0x27] REQ_SET(priority=0x05, entity_id=LocalPlayer, tag_num=0x13)
 18: 0x025B [0x2C] CREATE_SCHEDULER_TASK: Create scheduler "dead" with entities [Unnamed NPC (ID: 17142639/0x0105936F), Unnamed NPC (ID: 17142639/0x0105936F)]
 19: 0x0268 [0x45] LOAD_SCHEDULED_TASK: Load scheduler "s034" with entities [EventEntity, EventEntity], work=[766*, 0*]
 20: 0x0279 [0x1C] WAIT(15* ticks)
 21: 0x027C [0x45] LOAD_SCHEDULED_TASK: Load scheduler "fdi1" with entities [LocalPlayer, LocalPlayer], work=[200*, 0*]
 22: 0x028D [0x1C] WAIT(180* ticks)
 23: 0x0290 [0x52] END_LOAD_SCHEDULER: End scheduler "s034" with entities [EventEntity, EventEntity], work=766*
 24: 0x029F [0x45] LOAD_SCHEDULED_TASK: Load scheduler "s033" with entities [EventEntity, EventEntity], work=[766*, 0*]
 25: 0x02B0 [0x1C] WAIT(150* ticks)
 26: 0x02B3 [0x27] REQ_SET(priority=0x05, entity_id=LocalPlayer, tag_num=0x14)
 27: 0x02BA [0x1C] WAIT(90* ticks)
 28: 0x02BD [0x45] LOAD_SCHEDULED_TASK: Load scheduler "fdo1" with entities [LocalPlayer, LocalPlayer], work=[200*, 0*]
 29: 0x02CE [0x55] WAIT_LOAD_SCHEDULER: Wait for scheduler "fdo1" with entities [LocalPlayer, LocalPlayer], work=200*
 30: 0x02DD [0x52] END_LOAD_SCHEDULER: End scheduler "s033" with entities [EventEntity, EventEntity], work=766*
 31: 0x02EC [0x5C] MUSIC_CONTROL: Set Combat (Solo) music to song 101*
 32: 0x02F0 [0x5C] MUSIC_CONTROL: Set Combat (Party) music to song 101*
 33: 0x02F4 [0x9A] WAIT_MUSIC_SERVER()
 34: 0x02F5 [0x46] CAMERA_CONTROL: Restore default settings
 35: 0x02F7 [0x45] LOAD_SCHEDULED_TASK: Load scheduler "fdi2" with entities [LocalPlayer, LocalPlayer], work=[200*, 0*]
 36: 0x0308 [0x21] END_EVENT
 37: 0x0309 [0x00] END_REQSTACK()
```
