# 17142595

## Common Data

| Field            | Value                 |
|------------------|-----------------------|
| Zone             | Grauberg [S] (ID: 89) |
| Block Size       | 22612 bytes           |
| Total Events     | 3                     |
| References Count | 591                   |

## List of Events

| Event ID              | Entrypoint   |   Size |   Instructions |
|-----------------------|--------------|--------|----------------|
| [65535](#event-65535) | 0x0000       |      1 |              1 |
| [17](#event-17)       | 0x0001       |   4023 |            528 |
| [18](#event-18)       | 0x0FB8       |  16194 |           2022 |

## DAT References (imed_data)

|   Index | Hex Value   |   Dec Value |
|---------|-------------|-------------|
|       0 | 0x012C      |         300 |
|       1 | 0x0078      |         120 |
|       2 | 0x0005      |           5 |
|       3 | 0x0013      |          19 |
|       4 | 0x000F      |          15 |
|       5 | 0xFFF7FFCA  |  4294442954 |
|       6 | 0x3961A     |      235034 |
|       7 | 0xFFFD614F  |  4294795599 |
|       8 | 0x05DC      |        1500 |
|       9 | 0xFFFD6C67  |  4294798439 |
|      10 | 0xFFFAAB99  |  4294618009 |
|      11 | 0xFFFF9C73  |  4294941811 |
|      12 | 0x08FC      |        2300 |
|      13 | 0xFFFD9982  |  4294809986 |
|      14 | 0xFFFAB2B9  |  4294619833 |
|      15 | 0xFFFFA4BE  |  4294943934 |
|      16 | 0x07D0      |        2000 |
|      17 | 0xFFF802EC  |  4294443756 |
|      18 | 0x38238     |      229944 |
|      19 | 0xFFFD634F  |  4294796111 |
|      20 | 0x0BB8      |        3000 |
|      21 | 0xFFF7FFC1  |  4294442945 |
|      22 | 0x37A56     |      227926 |
|      23 | 0xFFFD63A7  |  4294796199 |
|      24 | 0xFFF809FC  |  4294445564 |
|      25 | 0x37D92     |      228754 |
|      26 | 0xFFFD64B9  |  4294796473 |
|      27 | 0xFFFD38F3  |  4294785267 |
|      28 | 0xFFFA65EB  |  4294600171 |
|      29 | 0xFFFF7749  |  4294932297 |
|      30 | 0x0D84      |        3460 |
|      31 | 0xFFFD8C57  |  4294806615 |
|      32 | 0xFFFABE7A  |  4294622842 |
|      33 | 0xFFFFA516  |  4294944022 |
|      34 | 0x0F53      |        3923 |
|      35 | 0xFFFD6381  |  4294796161 |
|      36 | 0xFFFAAEC7  |  4294618823 |
|      37 | 0xFFFF9476  |  4294939766 |
|      38 | 0x0DAC      |        3500 |
|      39 | 0x0345      |         837 |
|      40 | 0x0346      |         838 |
|      41 | 0x0000      |           0 |
|      42 | 0x00FD      |         253 |
|      43 | 0x0184      |         388 |
|      44 | 0x003C      |          60 |
|      45 | 0x1F55      |        8021 |
|      46 | 0x001E      |          30 |
|      47 | 0x001D      |          29 |
|      48 | 0x1F56      |        8022 |
|      49 | 0x0046      |          70 |
|      50 | 0x0CC4      |        3268 |
|      51 | 0x1F9B      |        8091 |
|      52 | 0x1F57      |        8023 |
|      53 | 0xFFFD8A80  |  4294806144 |
|      54 | 0xFFFAB14A  |  4294619466 |
|      55 | 0xFFFFA3E5  |  4294943717 |
|      56 | 0x026C      |         620 |
|      57 | 0x0069      |         105 |
|      58 | 0x1F58      |        8024 |
|      59 | 0xFFFD6281  |  4294795905 |
|      60 | 0xFFFAAD34  |  4294618420 |
|      61 | 0xFFFF9397  |  4294939543 |
|      62 | 0x0D81      |        3457 |
|      63 | 0x002D      |          45 |
|      64 | 0x006E      |         110 |
|      65 | 0x1F59      |        8025 |
|      66 | 0x0580      |        1408 |
|      67 | 0x1F5A      |        8026 |
|      68 | 0x1F5B      |        8027 |
|      69 | 0x1F5C      |        8028 |
|      70 | 0x1F5D      |        8029 |
|      71 | 0x1F5E      |        8030 |
|      72 | 0x0006      |           6 |
|      73 | 0x1F5F      |        8031 |
|      74 | 0x00C8      |         200 |
|      75 | 0x1F60      |        8032 |
|      76 | 0x00AA      |         170 |
|      77 | 0x1F61      |        8033 |
|      78 | 0x03E7      |         999 |
|      79 | 0x0080      |         128 |
|      80 | 0x000A      |          10 |
|      81 | 0x0015      |          21 |
|      82 | 0x1F62      |        8034 |
|      83 | 0x0082      |         130 |
|      84 | 0xFFFD90C4  |  4294807748 |
|      85 | 0xFFFAC648  |  4294624840 |
|      86 | 0xFFFF6119  |  4294926617 |
|      87 | 0x0E06      |        3590 |
|      88 | 0x0001      |           1 |
|      89 | 0x00F0      |         240 |
|      90 | 0xFFFD7126  |  4294799654 |
|      91 | 0xFFFAA0F5  |  4294615285 |
|      92 | 0xFFFF9E0D  |  4294942221 |
|      93 | 0x0DA2      |        3490 |
|      94 | 0x14A1F     |       84511 |
|      95 | 0xFFFCF918  |  4294768920 |
|      96 | 0xFFFEB33F  |  4294882111 |
|      97 | 0x0E51      |        3665 |
|      98 | 0x0023      |          35 |
|      99 | 0x1F63      |        8035 |
|     100 | 0x008C      |         140 |
|     101 | 0x0007      |           7 |
|     102 | 0x007B      |         123 |
|     103 | 0xFFF930FF  |  4294521087 |
|     104 | 0x3581D     |      219165 |
|     105 | 0xFFFD99C2  |  4294810050 |
|     106 | 0x0BEF      |        3055 |
|     107 | 0xFFF95711  |  4294530833 |
|     108 | 0x340CB     |      213195 |
|     109 | 0xFFFDA387  |  4294812551 |
|     110 | 0x010C      |         268 |
|     111 | 0xFFF87945  |  4294474053 |
|     112 | 0x3AE60     |      241248 |
|     113 | 0xFFFD71C8  |  4294799816 |
|     114 | 0x0960      |        2400 |
|     115 | 0xFFF878D1  |  4294473937 |
|     116 | 0x3A6D3     |      239315 |
|     117 | 0xFFFD71D4  |  4294799828 |
|     118 | 0x0710      |        1808 |
|     119 | 0x0B7A      |        2938 |
|     120 | 0xFFFCF25F  |  4294767199 |
|     121 | 0x1F64      |        8036 |
|     122 | 0x1F65      |        8037 |
|     123 | 0x1F66      |        8038 |
|     124 | 0x1F67      |        8039 |
|     125 | 0x0372      |         882 |
|     126 | 0x1F68      |        8040 |
|     127 | 0x1F69      |        8041 |
|     128 | 0x1F6A      |        8042 |
|     129 | 0x1F6B      |        8043 |
|     130 | 0x1F6C      |        8044 |
|     131 | 0x1F6D      |        8045 |
|     132 | 0x055A      |        1370 |
|     133 | 0x00E6      |         230 |
|     134 | 0x0096      |         150 |
|     135 | 0x015E      |         350 |
|     136 | 0x0028      |          40 |
|     137 | 0x00B4      |         180 |
|     138 | 0x02BC      |         700 |
|     139 | 0x0050      |          80 |
|     140 | 0x1F6E      |        8046 |
|     141 | 0x1F6F      |        8047 |
|     142 | 0x1F70      |        8048 |
|     143 | 0xFFFDB0B1  |  4294815921 |
|     144 | 0xFFFAEAAB  |  4294634155 |
|     145 | 0xFFFF9E14  |  4294942228 |
|     146 | 0xFFFD9C71  |  4294810737 |
|     147 | 0xFFFAE23B  |  4294631995 |
|     148 | 0xFFFFA0EE  |  4294942958 |
|     149 | 0x0064      |         100 |
|     150 | 0x00DC      |         220 |
|     151 | 0x0019      |          25 |
|     152 | 0x004B      |          75 |
|     153 | 0x0877      |        2167 |
|     154 | 0x1F71      |        8049 |
|     155 | 0xFFFE15DF  |  4294841823 |
|     156 | 0xFFFA876A  |  4294608746 |
|     157 | 0xFFFFC0C2  |  4294951106 |
|     158 | 0xFFFD851F  |  4294804767 |
|     159 | 0xFFFAB54D  |  4294620493 |
|     160 | 0xFFFFA429  |  4294943785 |
|     161 | 0x0F9A      |        3994 |
|     162 | 0xFFFDC1D3  |  4294820307 |
|     163 | 0xFFFAAFD4  |  4294619092 |
|     164 | 0xFFFFA857  |  4294944855 |
|     165 | 0xFFFE282F  |  4294846511 |
|     166 | 0xFFFA87DB  |  4294608859 |
|     167 | 0xFFFFC180  |  4294951296 |
|     168 | 0xFFFE301F  |  4294848543 |
|     169 | 0xFFFA8C10  |  4294609936 |
|     170 | 0xFFFE2E77  |  4294848119 |
|     171 | 0xFFFA853D  |  4294608189 |
|     172 | 0x473DC     |      291804 |
|     173 | 0x18A22     |      100898 |
|     174 | 0xFFFF46BA  |  4294919866 |
|     175 | 0x48AC5     |      297669 |
|     176 | 0x161F7     |       90615 |
|     177 | 0xFFFF449D  |  4294919325 |
|     178 | 0x04B0      |        1200 |
|     179 | 0x4936F     |      299887 |
|     180 | 0x153CB     |       86987 |
|     181 | 0xFFFF456D  |  4294919533 |
|     182 | 0x09C4      |        2500 |
|     183 | 0x49B0B     |      301835 |
|     184 | 0x145E9     |       83433 |
|     185 | 0xFFFF47A8  |  4294920104 |
|     186 | 0x0578      |        1400 |
|     187 | 0x1F72      |        8050 |
|     188 | 0x0898      |        2200 |
|     189 | 0x1F73      |        8051 |
|     190 | 0x1F74      |        8052 |
|     191 | 0x1F75      |        8053 |
|     192 | 0x43F5      |       17397 |
|     193 | 0x1F76      |        8054 |
|     194 | 0x06A4      |        1700 |
|     195 | 0x1F77      |        8055 |
|     196 | 0x00FF      |         255 |
|     197 | 0x005A      |          90 |
|     198 | 0x00DD      |         221 |
|     199 | 0x1F78      |        8056 |
|     200 | 0xFFFD8C3D  |  4294806589 |
|     201 | 0xFFFA9561  |  4294612321 |
|     202 | 0xFFFFA21B  |  4294943259 |
|     203 | 0xFFFDA672  |  4294813298 |
|     204 | 0xFFFAA7CA  |  4294617034 |
|     205 | 0xFFFFA5C7  |  4294944199 |
|     206 | 0xFFFDAE92  |  4294815378 |
|     207 | 0xFFFAA2CC  |  4294615756 |
|     208 | 0xFFFFA660  |  4294944352 |
|     209 | 0xFFFDAC17  |  4294814743 |
|     210 | 0xFFFAB0B6  |  4294619318 |
|     211 | 0xFFFFA7A8  |  4294944680 |
|     212 | 0x0E76      |        3702 |
|     213 | 0x1F79      |        8057 |
|     214 | 0x0617      |        1559 |
|     215 | 0x1F7A      |        8058 |
|     216 | 0x1F7B      |        8059 |
|     217 | 0x1F7C      |        8060 |
|     218 | 0x1F7D      |        8061 |
|     219 | 0x0347      |         839 |
|     220 | 0xFFFD7CB4  |  4294802612 |
|     221 | 0xFFFA8E12  |  4294610450 |
|     222 | 0xFFFF8A22  |  4294937122 |
|     223 | 0x1F7E      |        8062 |
|     224 | 0x1F7F      |        8063 |
|     225 | 0x007A      |         122 |
|     226 | 0x007F      |         127 |
|     227 | 0x1F80      |        8064 |
|     228 | 0x0D48      |        3400 |
|     229 | 0x00A0      |         160 |
|     230 | 0x1F81      |        8065 |
|     231 | 0x1F82      |        8066 |
|     232 | 0x1F83      |        8067 |
|     233 | 0x1F84      |        8068 |
|     234 | 0x0018      |          24 |
|     235 | 0x4B266     |      307814 |
|     236 | 0x185A1     |       99745 |
|     237 | 0xFFFF45EB  |  4294919659 |
|     238 | 0x0514      |        1300 |
|     239 | 0x48AEF     |      297711 |
|     240 | 0x1B5EF     |      112111 |
|     241 | 0xFFFF4733  |  4294919987 |
|     242 | 0x4900F     |      299023 |
|     243 | 0x1A9EC     |      109036 |
|     244 | 0xFFFF46DA  |  4294919898 |
|     245 | 0x4A17E     |      303486 |
|     246 | 0x181DA     |       98778 |
|     247 | 0xFFFF44D5  |  4294919381 |
|     248 | 0x4A62F     |      304687 |
|     249 | 0x17A4B     |       96843 |
|     250 | 0xFFFF453E  |  4294919486 |
|     251 | 0x044C      |        1100 |
|     252 | 0x0544      |        1348 |
|     253 | 0x00B1      |         177 |
|     254 | 0x0014      |          20 |
|     255 | 0x0CE4      |        3300 |
|     256 | 0x0F3C      |        3900 |
|     257 | 0x1F85      |        8069 |
|     258 | 0x0708      |        1800 |
|     259 | 0x0003      |           3 |
|     260 | 0xFFFF9DAA  |  4294942122 |
|     261 | 0x0E74      |        3700 |
|     262 | 0xFFFD8454  |  4294804564 |
|     263 | 0xFFFA9529  |  4294612265 |
|     264 | 0xFFFF9FBB  |  4294942651 |
|     265 | 0xFFFD8CEC  |  4294806764 |
|     266 | 0xFFFA99C2  |  4294613442 |
|     267 | 0xFFFFA257  |  4294943319 |
|     268 | 0xFFFD9791  |  4294809489 |
|     269 | 0xFFFA98C8  |  4294613192 |
|     270 | 0xFFFFA2FA  |  4294943482 |
|     271 | 0xFFFD918C  |  4294807948 |
|     272 | 0xFFFAA2F5  |  4294615797 |
|     273 | 0xFFFFA356  |  4294943574 |
|     274 | 0xFFFD7B3B  |  4294802235 |
|     275 | 0xFFFA96AD  |  4294612653 |
|     276 | 0xFFFF9E2A  |  4294942250 |
|     277 | 0x0391      |         913 |
|     278 | 0x05B8      |        1464 |
|     279 | 0x1F86      |        8070 |
|     280 | 0x1F87      |        8071 |
|     281 | 0x1F88      |        8072 |
|     282 | 0x0E17      |        3607 |
|     283 | 0x1F89      |        8073 |
|     284 | 0x1F8A      |        8074 |
|     285 | 0x0B91      |        2961 |
|     286 | 0x1F8B      |        8075 |
|     287 | 0x08CE      |        2254 |
|     288 | 0x0933      |        2355 |
|     289 | 0x1F8C      |        8076 |
|     290 | 0x00D2      |         210 |
|     291 | 0xFFFE21DB  |  4294844891 |
|     292 | 0xFFFAAA37  |  4294617655 |
|     293 | 0xFFFFC2BC  |  4294951612 |
|     294 | 0x076C      |        1900 |
|     295 | 0xFFFE297A  |  4294846842 |
|     296 | 0xFFFAA613  |  4294616595 |
|     297 | 0xFFFFC287  |  4294951559 |
|     298 | 0xFFFE3374  |  4294849396 |
|     299 | 0xFFFAA178  |  4294615416 |
|     300 | 0xFFFFC231  |  4294951473 |
|     301 | 0xFFFE3D9E  |  4294851998 |
|     302 | 0xFFFA9DDA  |  4294614490 |
|     303 | 0xFFFFC248  |  4294951496 |
|     304 | 0xFFFE2866  |  4294846566 |
|     305 | 0xFFFAB390  |  4294620048 |
|     306 | 0xFFFFC357  |  4294951767 |
|     307 | 0xFFFE2DE3  |  4294847971 |
|     308 | 0xFFFABC6D  |  4294622317 |
|     309 | 0xFFFFC35A  |  4294951770 |
|     310 | 0xFFFE33B3  |  4294849459 |
|     311 | 0xFFFAC4E9  |  4294624489 |
|     312 | 0xFFFE3D56  |  4294851926 |
|     313 | 0xFFFAD03F  |  4294627391 |
|     314 | 0xFFFFC132  |  4294951218 |
|     315 | 0xFFFE480E  |  4294854670 |
|     316 | 0xFFFA9A54  |  4294613588 |
|     317 | 0xFFFFC1F4  |  4294951412 |
|     318 | 0xFFFD7879  |  4294801529 |
|     319 | 0xFFFA9201  |  4294611457 |
|     320 | 0xFFFF9D3D  |  4294942013 |
|     321 | 0x00FA      |         250 |
|     322 | 0x0186      |         390 |
|     323 | 0x0FAE      |        4014 |
|     324 | 0x0FDF      |        4063 |
|     325 | 0x0FB8      |        4024 |
|     326 | 0x0FBC      |        4028 |
|     327 | 0x0011      |          17 |
|     328 | 0x000D      |          13 |
|     329 | 0x05C3      |        1475 |
|     330 | 0x1F8D      |        8077 |
|     331 | 0x0190      |         400 |
|     332 | 0x1F8E      |        8078 |
|     333 | 0x094E      |        2382 |
|     334 | 0x0815      |        2069 |
|     335 | 0x1F8F      |        8079 |
|     336 | 0x1F90      |        8080 |
|     337 | 0x1F91      |        8081 |
|     338 | 0x0226      |         550 |
|     339 | 0x1F92      |        8082 |
|     340 | 0xFFFDBE22  |  4294819362 |
|     341 | 0xFFFA8653  |  4294608467 |
|     342 | 0xFFFFA95C  |  4294945116 |
|     343 | 0x0640      |        1600 |
|     344 | 0xFFFDB9FE  |  4294818302 |
|     345 | 0xFFFA8F91  |  4294610833 |
|     346 | 0xFFFFA736  |  4294944566 |
|     347 | 0xFFFDB847  |  4294817863 |
|     348 | 0xFFFA9A57  |  4294613591 |
|     349 | 0xFFFFA790  |  4294944656 |
|     350 | 0xFFFDBFD0  |  4294819792 |
|     351 | 0xFFFA7ABF  |  4294605503 |
|     352 | 0xFFFFAA48  |  4294945352 |
|     353 | 0xFFFDC0F9  |  4294820089 |
|     354 | 0xFFFA7276  |  4294603382 |
|     355 | 0xFFFFAAAE  |  4294945454 |
|     356 | 0xFFFDCB43  |  4294822723 |
|     357 | 0xFFFA7EAE  |  4294606510 |
|     358 | 0xFFFFABB7  |  4294945719 |
|     359 | 0xFFFDC7DD  |  4294821853 |
|     360 | 0xFFFA96A2  |  4294612642 |
|     361 | 0xFFFFA9A9  |  4294945193 |
|     362 | 0xFFFDD3B0  |  4294824880 |
|     363 | 0xFFFFAD03  |  4294946051 |
|     364 | 0x000C      |          12 |
|     365 | 0x1F95      |        8085 |
|     366 | 0x0131      |         305 |
|     367 | 0x1F93      |        8083 |
|     368 | 0x1F94      |        8084 |
|     369 | 0x0320      |         800 |
|     370 | 0x0208      |         520 |
|     371 | 0x01EE      |         494 |
|     372 | 0xFFFD8B8C  |  4294806412 |
|     373 | 0xFFFAC8E7  |  4294625511 |
|     374 | 0xFFFFA54E  |  4294944078 |
|     375 | 0xFFFD801F  |  4294803487 |
|     376 | 0xFFFAE646  |  4294633030 |
|     377 | 0xFFFFA2F5  |  4294943477 |
|     378 | 0xFFFD78C1  |  4294801601 |
|     379 | 0xFFFABA6D  |  4294621805 |
|     380 | 0xFFFFA0FC  |  4294942972 |
|     381 | 0xFFFD9079  |  4294807673 |
|     382 | 0xFFFAC0BA  |  4294623418 |
|     383 | 0xFFFFA4F3  |  4294943987 |
|     384 | 0xFFFD9EDB  |  4294811355 |
|     385 | 0xFFFAC97E  |  4294625662 |
|     386 | 0xFFFFA322  |  4294943522 |
|     387 | 0xFFFD8FDC  |  4294807516 |
|     388 | 0xFFFAD6A5  |  4294629029 |
|     389 | 0xFFFFA56E  |  4294944110 |
|     390 | 0xFFFD7F6E  |  4294803310 |
|     391 | 0xFFFADB1F  |  4294630175 |
|     392 | 0xFFFFA365  |  4294943589 |
|     393 | 0xFFFD7D4B  |  4294802763 |
|     394 | 0xFFFAC909  |  4294625545 |
|     395 | 0xFFFFA31D  |  4294943517 |
|     396 | 0x0E10      |        3600 |
|     397 | 0xFFFD80BF  |  4294803647 |
|     398 | 0xFFFACEDF  |  4294627039 |
|     399 | 0xFFFFA41A  |  4294943770 |
|     400 | 0xFFFE1FAF  |  4294844335 |
|     401 | 0xFFFB9276  |  4294677110 |
|     402 | 0xFFFFA640  |  4294944320 |
|     403 | 0x0FFF      |        4095 |
|     404 | 0xFFFE2721  |  4294846241 |
|     405 | 0xFFFB9B37  |  4294679351 |
|     406 | 0xFFFFA40F  |  4294943759 |
|     407 | 0xFFFE2103  |  4294844675 |
|     408 | 0xFFFB9E94  |  4294680212 |
|     409 | 0xFFFFA3BC  |  4294943676 |
|     410 | 0x05D5      |        1493 |
|     411 | 0x1F96      |        8086 |
|     412 | 0xFFFE1EB9  |  4294844089 |
|     413 | 0xFFFB076D  |  4294641517 |
|     414 | 0xFFFFBA47  |  4294949447 |
|     415 | 0xFFFE36D9  |  4294850265 |
|     416 | 0xFFFB33E2  |  4294652898 |
|     417 | 0xFFFFC0FA  |  4294951162 |
|     418 | 0x06D7      |        1751 |
|     419 | 0xFFFE4FE0  |  4294856672 |
|     420 | 0xFFFB337D  |  4294652797 |
|     421 | 0x06D6      |        1750 |
|     422 | 0xFFFE503D  |  4294856765 |
|     423 | 0xFFFB2207  |  4294648327 |
|     424 | 0xFFFE30BB  |  4294848699 |
|     425 | 0xFFFB1DA2  |  4294647202 |
|     426 | 0xFFFFC036  |  4294950966 |
|     427 | 0xFFFE3555  |  4294849877 |
|     428 | 0xFFFB0333  |  4294640435 |
|     429 | 0xFFFFC165  |  4294951269 |
|     430 | 0xFFFE1215  |  4294840853 |
|     431 | 0xFFFAEAFE  |  4294634238 |
|     432 | 0xFFFFB565  |  4294948197 |
|     433 | 0xFFFDF736  |  4294833974 |
|     434 | 0xFFFAD62A  |  4294628906 |
|     435 | 0xFFFFB36C  |  4294947692 |
|     436 | 0xFFFDED29  |  4294831401 |
|     437 | 0xFFFAE42D  |  4294632493 |
|     438 | 0xFFFFAF32  |  4294946610 |
|     439 | 0x0EE7      |        3815 |
|     440 | 0x1F97      |        8087 |
|     441 | 0x1F98      |        8088 |
|     442 | 0x1F99      |        8089 |
|     443 | 0x00E3      |         227 |
|     444 | 0x0009      |           9 |
|     445 | 0x0004      |           4 |
|     446 | 0x0008      |           8 |
|     447 | 0xFFFE0749  |  4294838089 |
|     448 | 0xFFFAFFCF  |  4294639567 |
|     449 | 0xFFFE1F69  |  4294844265 |
|     450 | 0xFFFB2C44  |  4294650948 |
|     451 | 0xFFFE3870  |  4294850672 |
|     452 | 0xFFFB2BDF  |  4294650847 |
|     453 | 0xFFFE38CD  |  4294850765 |
|     454 | 0xFFFB1A69  |  4294646377 |
|     455 | 0xFFFE194B  |  4294842699 |
|     456 | 0xFFFB1604  |  4294645252 |
|     457 | 0xFFFE1DE5  |  4294843877 |
|     458 | 0xFFFAFB95  |  4294638485 |
|     459 | 0xFFFDFAA5  |  4294834853 |
|     460 | 0xFFFAE360  |  4294632288 |
|     461 | 0xFFFDFF06  |  4294835974 |
|     462 | 0xFFFAD1DE  |  4294627806 |
|     463 | 0xFFFE0C69  |  4294839401 |
|     464 | 0xFFFD8393  |  4294804371 |
|     465 | 0xFFFAC99A  |  4294625690 |
|     466 | 0xFFFFA47A  |  4294943866 |
|     467 | 0x1F9A      |        8090 |
|     468 | 0xFFFDDB35  |  4294826805 |
|     469 | 0xFFFAE8DF  |  4294633695 |
|     470 | 0xFFFFB53A  |  4294948154 |
|     471 | 0x0834      |        2100 |
|     472 | 0xFFFDD55A  |  4294825306 |
|     473 | 0xFFFAFA9A  |  4294638234 |
|     474 | 0xFFFFB1BA  |  4294947258 |
|     475 | 0xFFFDD027  |  4294823975 |
|     476 | 0xFFFAF2A8  |  4294636200 |
|     477 | 0xFFFFB04A  |  4294946890 |
|     478 | 0xFFFDCEE4  |  4294823652 |
|     479 | 0xFFFAE6E4  |  4294633188 |
|     480 | 0xFFFFAFBB  |  4294946747 |
|     481 | 0xFFFDD157  |  4294824279 |
|     482 | 0xFFFADF27  |  4294631207 |
|     483 | 0xFFFFB02B  |  4294946859 |
|     484 | 0xFFFDE1FA  |  4294828538 |
|     485 | 0xFFFADCAF  |  4294630575 |
|     486 | 0xFFFFB523  |  4294948131 |
|     487 | 0xFFFDCA3B  |  4294822459 |
|     488 | 0xFFFAD47C  |  4294628476 |
|     489 | 0xFFFFAD6F  |  4294946159 |
|     490 | 0x0AF0      |        2800 |
|     491 | 0xFFFDD2F0  |  4294824688 |
|     492 | 0xFFFACF13  |  4294627091 |
|     493 | 0xFFFFB22D  |  4294947373 |
|     494 | 0xFFFDE2C1  |  4294828737 |
|     495 | 0xFFFAF7FE  |  4294637566 |
|     496 | 0xFFFFB7EF  |  4294948847 |
|     497 | 0x00AF      |         175 |
|     498 | 0xFFFD98FD  |  4294809853 |
|     499 | 0xFFFAE00E  |  4294631438 |
|     500 | 0xFFFFA233  |  4294943283 |
|     501 | 0x007D      |         125 |
|     502 | 0xFFFD7D9E  |  4294802846 |
|     503 | 0xFFFAC346  |  4294624070 |
|     504 | 0xFFFFA3BE  |  4294943678 |
|     505 | 0xFFFDADC3  |  4294815171 |
|     506 | 0xFFFAE7B4  |  4294633396 |
|     507 | 0xFFFF9D40  |  4294942016 |
|     508 | 0x05FF      |        1535 |
|     509 | 0x00E7      |         231 |
|     510 | 0xFFFF89B8  |  4294937016 |
|     511 | 0xFFFD8B8D  |  4294806413 |
|     512 | 0xFFFAC8E9  |  4294625513 |
|     513 | 0x0065      |         101 |
|     514 | 0x00D7      |         215 |
|     515 | 0x1F9C      |        8092 |
|     516 | 0x00EE      |         238 |
|     517 | 0x0526      |        1318 |
|     518 | 0x0037      |          55 |
|     519 | 0x091F      |        2335 |
|     520 | 0x1F9D      |        8093 |
|     521 | 0xFFFD5DAD  |  4294794669 |
|     522 | 0xFFFAA1F3  |  4294615539 |
|     523 | 0xFFFF8551  |  4294935889 |
|     524 | 0x0032      |          50 |
|     525 | 0xFFFF98D9  |  4294940889 |
|     526 | 0xFFFD771C  |  4294801180 |
|     527 | 0xFFFA9B6B  |  4294613867 |
|     528 | 0xFFFF9E94  |  4294942356 |
|     529 | 0xFFFD7DB5  |  4294802869 |
|     530 | 0xFFFA96D8  |  4294612696 |
|     531 | 0xFFFF9E8A  |  4294942346 |
|     532 | 0x1F9E      |        8094 |
|     533 | 0x1F9F      |        8095 |
|     534 | 0x1FA0      |        8096 |
|     535 | 0x1FA1      |        8097 |
|     536 | 0x1FA2      |        8098 |
|     537 | 0x1FA3      |        8099 |
|     538 | 0x1FA4      |        8100 |
|     539 | 0x1FA5      |        8101 |
|     540 | 0x1FA6      |        8102 |
|     541 | 0x0041      |          65 |
|     542 | 0xFFFD7367  |  4294800231 |
|     543 | 0xFFFAA1F4  |  4294615540 |
|     544 | 0xFFFF9E93  |  4294942355 |
|     545 | 0xFFFF9EC6  |  4294942406 |
|     546 | 0xFFFD6195  |  4294795669 |
|     547 | 0xFFFAA577  |  4294616439 |
|     548 | 0xFFFF9BB3  |  4294941619 |
|     549 | 0x0087      |         135 |
|     550 | 0x009F      |         159 |
|     551 | 0x1FA7      |        8103 |
|     552 | 0x1FA8      |        8104 |
|     553 | 0x1FA9      |        8105 |
|     554 | 0x1FAA      |        8106 |
|     555 | 0x0930      |        2352 |
|     556 | 0x1FAB      |        8107 |
|     557 | 0x011C      |         284 |
|     558 | 0x1FAC      |        8108 |
|     559 | 0x1FAD      |        8109 |
|     560 | 0x1FAE      |        8110 |
|     561 | 0x1F018     |      127000 |
|     562 | 0x1AF1B     |      110363 |
|     563 | 0x1964      |        6500 |
|     564 | 0x01F4      |         500 |
|     565 | 0x052B      |        1323 |
|     566 | 0x1FAF      |        8111 |
|     567 | 0x0059      |          89 |
|     568 | 0x1FB0      |        8112 |
|     569 | 0x1FB1      |        8113 |
|     570 | 0x00A3      |         163 |
|     571 | 0x1FB2      |        8114 |
|     572 | 0x1FB3      |        8115 |
|     573 | 0x0931      |        2353 |
|     574 | 0x0016      |          22 |
|     575 | 0x1FB4      |        8116 |
|     576 | 0x1FB5      |        8117 |
|     577 | 0x01C2      |         450 |
|     578 | 0x1FB6      |        8118 |
|     579 | 0x1FB7      |        8119 |
|     580 | 0x1FB8      |        8120 |
|     581 | 0x0932      |        2354 |
|     582 | 0x00F1      |         241 |
|     583 | 0x1FB9      |        8121 |
|     584 | 0xFFFF882B  |  4294936619 |
|     585 | 0x1FBA      |        8122 |
|     586 | 0x009D      |         157 |
|     587 | 0x1FBB      |        8123 |
|     588 | 0x1FBC      |        8124 |
|     589 | 0x1FBD      |        8125 |
|     590 | 0x00C9      |         201 |

## String References

- **8080**: What will you do? [Engage the enemy./Secure your escape.]

## Events

### Event 65535

#### Metadata

| Field        | Value   |
|--------------|---------|
| Entrypoint   | 0x0000  |
| Data Size    | 1 bytes |
| Instructions | 1       |

```
      00 01 02 03 04 05 06 07  08 09 0A 0B 0C 0D 0E 0F
      -- -- -- -- -- -- -- --  -- -- -- -- -- -- -- --
0000: 00                                                .               
```

#### Opcodes

```
  0: 0x0000 [0x00] END_REQSTACK()
```

### Event 17

#### Metadata

| Field        | Value      |
|--------------|------------|
| Entrypoint   | 0x0001     |
| Data Size    | 4023 bytes |
| Instructions | 528        |

```
      00 01 02 03 04 05 06 07  08 09 0A 0B 0C 0D 0E 0F
      -- -- -- -- -- -- -- --  -- -- -- -- -- -- -- --
0000:    42 6A 00 80 01 80 02  80 1A 82 4E 46 01 38 03   Bj........NF.8.
0010: 80 2F 00 48 93 05 01 29  10 48 93 05 01 03 2F 00  ./.H...).H..../.
0020: 46 93 05 01 29 10 46 93  05 01 05 2F 00 49 93 05  F...).F..../.I..
0030: 01 29 10 49 93 05 01 03  2F 00 4A 93 05 01 29 10  .).I..../.J...).
0040: 4A 93 05 01 03 2F 00 4B  93 05 01 29 10 4B 93 05  J..../.K...).K..
0050: 01 03 2F 00 47 93 05 01  1C 04 80 29 10 47 93 05  ../.G......).G..
0060: 01 03 6B 31 74 6C 30 47  93 05 01 2F 00 44 93 05  ..k1tl0G.../.D..
0070: 01 2F 00 4C 93 05 01 29  10 4C 93 05 01 03 1C 04  ./.L...).L......
0080: 80 4E 00 48 93 05 01 4E  00 46 93 05 01 4E 00 49  .N.H...N.F...N.I
0090: 93 05 01 4E 00 4A 93 05  01 4E 00 4B 93 05 01 4E  ...N.J...N.K...N
00A0: 00 47 93 05 01 4E 00 44  93 05 01 4E 00 4C 93 05  .G...N.D...N.L..
00B0: 01 92 01 48 93 05 01 92  01 46 93 05 01 92 01 49  ...H.....F.....I
00C0: 93 05 01 92 01 4A 93 05  01 92 01 4B 93 05 01 92  .....J.....K....
00D0: 01 47 93 05 01 92 01 44  93 05 01 92 01 4C 93 05  .G.....D.....L..
00E0: 01 94 01 48 93 05 01 94  01 46 93 05 01 94 01 49  ...H.....F.....I
00F0: 93 05 01 94 01 4A 93 05  01 94 01 4B 93 05 01 94  .....J.....K....
0100: 01 47 93 05 01 94 01 F0  FF FF 7F 94 01 44 93 05  .G...........D..
0110: 01 94 01 4C 93 05 01 BA  46 93 05 01 05 80 06 80  ...L....F.......
0120: 07 80 08 80 59 05 F0 FF  FF 7F 01 BA F0 FF FF 7F  ....Y...........
0130: 09 80 0A 80 0B 80 0C 80  BA 48 93 05 01 0D 80 0E  .........H......
0140: 80 0F 80 10 80 BA 49 93  05 01 11 80 12 80 13 80  ......I.........
0150: 14 80 BA 4A 93 05 01 15  80 16 80 17 80 14 80 BA  ...J............
0160: 4B 93 05 01 18 80 19 80  1A 80 14 80 BA 47 93 05  K............G..
0170: 01 1B 80 1C 80 1D 80 1E  80 BA 44 93 05 01 1F 80  ..........D.....
0180: 20 80 21 80 22 80 BA 4C  93 05 01 23 80 24 80 25   .!."..L...#.$.%
0190: 80 26 80 80 48 93 05 01  80 46 93 05 01 80 49 93  .&..H....F....I.
01A0: 05 01 80 4A 93 05 01 80  4B 93 05 01 80 47 93 05  ...J....K....G..
01B0: 01 80 44 93 05 01 80 4C  93 05 01 80 F0 FF FF 7F  ..D....L........
01C0: 1C 04 80 4A 49 93 05 01  46 93 05 01 6F 76 49 93  ...JI...F...ovI.
01D0: 05 01 4A 4A 93 05 01 46  93 05 01 6F 76 4A 93 05  ..JJ...F...ovJ..
01E0: 01 4A 4B 93 05 01 46 93  05 01 6F 76 4B 93 05 01  .JK...F...ovK...
01F0: 5B 27 80 49 93 05 01 49  93 05 01 73 68 61 30 5B  ['.I...I...sha0[
0200: 28 80 4A 93 05 01 4A 93  05 01 61 6B 61 30 5B 28  (.J...J...aka0[(
0210: 80 4B 93 05 01 4B 93 05  01 61 6B 61 30 53 49 93  .K...K...aka0SI.
0220: 05 01 49 93 05 01 73 68  61 30 53 4A 93 05 01 4A  ..I...sha0SJ...J
0230: 93 05 01 61 6B 61 30 53  4B 93 05 01 4B 93 05 01  ...aka0SK...K...
0240: 61 6B 61 30 4A 46 93 05  01 49 93 05 01 6F 76 46  aka0JF...I...ovF
0250: 93 05 01 6C 47 93 05 01  29 80 29 80 1C 04 80 5C  ...lG...).)....\
0260: 00 2A 80 5C 01 2A 80 9A  45 2B 80 F8 FF FF 7F F8  .*.\.*..E+......
0270: FF FF 7F 73 30 33 37 29  80 1A C7 4E 1C 2C 80 2B  ...s037)...N.,.+
0280: 48 93 05 01 2D 80 23 4A  F0 FF FF 7F 48 93 05 01  H...-.#J....H...
0290: 6F 76 F0 FF FF 7F 27 10  48 93 05 01 08 1C 2E 80  ov....'.H.......
02A0: 52 2B 80 F8 FF FF 7F F8  FF FF 7F 73 30 33 37 45  R+.........s037E
02B0: 2B 80 F8 FF FF 7F F8 FF  FF 7F 73 30 37 38 29 80  +.........s078).
02C0: 2A 10 48 93 05 01 4B 48  93 05 01 10 80 6F 76 48  *.H...KH.....ovH
02D0: 93 05 01 66 2F 80 48 93  05 01 48 93 05 01 74 6C  ...f/.H...H...tl
02E0: 6B 30 2B 48 93 05 01 30  80 23 53 48 93 05 01 48  k0+H...0.#SH...H
02F0: 93 05 01 74 6C 6B 30 1C  31 80 6B 69 64 6C 30 48  ...tlk0.1.kidl0H
0300: 93 05 01 4B 48 93 05 01  32 80 1C 02 80 2B 48 93  ...KH...2....+H.
0310: 05 01 33 80 6F 76 48 93  05 01 7C 00 48 93 05 01  ..3.ovH...|.H...
0320: 7C 01 48 93 05 01 1C 04  80 52 2B 80 F8 FF FF 7F  |.H......R+.....
0330: F8 FF FF 7F 73 30 37 38  45 2B 80 F8 FF FF 7F F8  ....s078E+......
0340: FF FF 7F 73 30 37 39 29  80 29 10 48 93 05 01 09  ...s079).).H....
0350: 1C 2E 80 5B 2F 80 48 93  05 01 48 93 05 01 73 68  ...[/.H...H...sh
0360: 61 30 53 48 93 05 01 48  93 05 01 73 68 61 30 2B  a0SH...H...sha0+
0370: 48 93 05 01 34 80 23 BA  44 93 05 01 35 80 36 80  H...4.#.D...5.6.
0380: 37 80 38 80 80 44 93 05  01 1C 04 80 79 00 48 93  7.8..D......y.H.
0390: 05 01 44 93 05 01 52 2B  80 F8 FF FF 7F F8 FF FF  ..D...R+........
03A0: 7F 73 30 37 39 45 2B 80  F8 FF FF 7F F8 FF FF 7F  .s079E+.........
03B0: 73 31 36 34 29 80 29 10  48 93 05 01 04 1C 39 80  s164).).H.....9.
03C0: 52 2B 80 F8 FF FF 7F F8  FF FF 7F 73 31 36 34 45  R+.........s164E
03D0: 2B 80 F8 FF FF 7F F8 FF  FF 7F 73 31 36 36 29 80  +.........s166).
03E0: 2B 48 93 05 01 3A 80 23  1C 2C 80 52 2B 80 F8 FF  +H...:.#.,.R+...
03F0: FF 7F F8 FF FF 7F 73 31  36 36 1A 40 4E 27 10 F0  ......s166.@N'..
0400: FF FF 7F 3F 29 10 48 93  05 01 0A BA 44 93 05 01  ...?).H.....D...
0410: 3B 80 3C 80 3D 80 3E 80  80 44 93 05 01 4A F0 FF  ;.<.=.>..D...J..
0420: FF 7F 48 93 05 01 6F 76  F0 FF FF 7F 29 10 48 93  ..H...ov....).H.
0430: 05 01 05 45 2B 80 F8 FF  FF 7F F8 FF FF 7F 73 30  ...E+.........s0
0440: 38 30 29 80 27 10 48 93  05 01 0B 1A A3 4E 2A 10  80).'.H......N*.
0450: 48 93 05 01 4A 48 93 05  01 F0 FF FF 7F 1C 02 80  H...JH..........
0460: 6F 76 48 93 05 01 79 00  48 93 05 01 4C 93 05 01  ovH...y.H...L...
0470: 1C 3F 80 6E 48 93 05 01  03 80 99 48 93 05 01 1C  .?.nH......H....
0480: 40 80 52 2B 80 F8 FF FF  7F F8 FF FF 7F 73 30 38  @.R+.........s08
0490: 30 45 2B 80 F8 FF FF 7F  F8 FF FF 7F 73 31 36 38  0E+.........s168
04A0: 29 80 7B 48 93 05 01 2B  48 93 05 01 41 80 23 1C  ).{H...+H...A.#.
04B0: 3F 80 52 2B 80 F8 FF FF  7F F8 FF FF 7F 73 31 36  ?.R+.........s16
04C0: 38 45 2B 80 F8 FF FF 7F  F8 FF FF 7F 73 30 38 32  8E+.........s082
04D0: 29 80 4B 48 93 05 01 42  80 6F 76 48 93 05 01 1C  ).KH...B.ovH....
04E0: 2E 80 66 2F 80 48 93 05  01 48 93 05 01 74 6C 6B  ..f/.H...H...tlk
04F0: 30 2B 48 93 05 01 43 80  23 53 48 93 05 01 48 93  0+H...C.#SH...H.
0500: 05 01 74 6C 6B 30 2B 48  93 05 01 44 80 23 6B 69  ..tlk0+H...D.#ki
0510: 64 6C 30 48 93 05 01 52  2B 80 F8 FF FF 7F F8 FF  dl0H...R+.......
0520: FF 7F 73 30 38 32 45 2B  80 F8 FF FF 7F F8 FF FF  ..s082E+........
0530: 7F 73 30 38 31 29 80 2B  48 93 05 01 45 80 23 6B  .s081).+H...E.#k
0540: 69 64 6C 30 48 93 05 01  52 2B 80 F8 FF FF 7F F8  idl0H...R+......
0550: FF FF 7F 73 30 38 31 45  2B 80 F8 FF FF 7F F8 FF  ...s081E+.......
0560: FF 7F 73 30 37 37 29 80  1C 2E 80 4A 48 93 05 01  ..s077)....JH...
0570: 44 93 05 01 2B 48 93 05  01 46 80 23 6F 76 48 93  D...+H...F.#ovH.
0580: 05 01 6B 69 64 6C 30 48  93 05 01 4A 48 93 05 01  ..kidl0H...JH...
0590: F0 FF FF 7F 7B 48 93 05  01 52 2B 80 F8 FF FF 7F  ....{H...R+.....
05A0: F8 FF FF 7F 73 30 37 37  45 2B 80 F8 FF FF 7F F8  ....s077E+......
05B0: FF FF 7F 73 30 38 34 29  80 6F 76 48 93 05 01 66  ...s084).ovH...f
05C0: 2F 80 48 93 05 01 48 93  05 01 74 68 6B 31 2B 48  /.H...H...thk1+H
05D0: 93 05 01 47 80 23 53 48  93 05 01 48 93 05 01 74  ...G.#SH...H...t
05E0: 68 6B 31 6B 69 64 6C 30  48 93 05 01 6E 48 93 05  hk1kidl0H...nH..
05F0: 01 48 80 99 48 93 05 01  2B 48 93 05 01 49 80 23  .H..H...+H...I.#
0600: 5D 29 80 4A 80 99 48 93  05 01 1C 04 80 66 2F 80  ]).J..H......f/.
0610: 48 93 05 01 48 93 05 01  74 6C 6B 30 2B 48 93 05  H...H...tlk0+H..
0620: 01 4B 80 23 53 48 93 05  01 48 93 05 01 74 6C 6B  .K.#SH...H...tlk
0630: 30 5C 00 4C 80 5C 01 4C  80 9A 52 2B 80 F8 FF FF  0\.L.\.L..R+....
0640: 7F F8 FF FF 7F 73 30 38  34 45 2B 80 F8 FF FF 7F  .....s084E+.....
0650: F8 FF FF 7F 73 30 39 34  29 80 1C 2E 80 79 00 48  ....s094)....y.H
0660: 93 05 01 47 93 05 01 2B  48 93 05 01 4D 80 23 4A  ...G...+H...M.#J
0670: F0 FF FF 7F 47 93 05 01  6F 76 F0 FF FF 7F 52 2B  ....G...ov....R+
0680: 80 F8 FF FF 7F F8 FF FF  7F 73 30 39 34 45 2B 80  .........s094E+.
0690: F8 FF FF 7F F8 FF FF 7F  73 30 38 36 29 80 6A 4E  ........s086).jN
06A0: 80 04 80 02 80 1C 2C 80  4A 48 93 05 01 47 93 05  ......,.JH...G..
06B0: 01 1C 2E 80 52 2B 80 F8  FF FF 7F F8 FF FF 7F 73  ....R+.........s
06C0: 30 38 36 1A 40 4E 6C 47  93 05 01 4F 80 29 80 1C  086.@NlG...O.)..
06D0: 50 80 29 10 47 93 05 01  05 27 10 47 93 05 01 07  P.).G....'.G....
06E0: 45 2B 80 F8 FF FF 7F F8  FF FF 7F 73 30 38 35 29  E+.........s085)
06F0: 80 1A A3 4E 6E 48 93 05  01 51 80 99 48 93 05 01  ...NnH...Q..H...
0700: 6E F0 FF FF 7F 51 80 99  F0 FF FF 7F 2B 48 93 05  n....Q......+H..
0710: 01 52 80 1C 53 80 7A 00  47 93 05 01 BA 47 93 05  .R..S.z.G....G..
0720: 01 54 80 55 80 56 80 57  80 27 10 47 93 05 01 08  .T.U.V.W.'.G....
0730: 1C 04 80 52 2B 80 F8 FF  FF 7F F8 FF FF 7F 73 30  ...R+.........s0
0740: 38 35 45 2B 80 F8 FF FF  7F F8 FF FF 7F 73 31 36  85E+.........s16
0750: 39 29 80 45 4A 80 F8 FF  FF 7F F8 FF FF 7F 62 6C  9).EJ.........bl
0760: 6F 66 29 80 6A 00 80 58  80 02 80 1C 59 80 BA 48  of).j..X....Y..H
0770: 93 05 01 5A 80 5B 80 5C  80 5D 80 7A 00 47 93 05  ...Z.[.\.].z.G..
0780: 01 BA 47 93 05 01 5E 80  5F 80 60 80 61 80 4A 48  ..G...^._.`.a.JH
0790: 93 05 01 47 93 05 01 4A  F0 FF FF 7F 47 93 05 01  ...G...J....G...
07A0: 27 10 47 93 05 01 09 1C  04 80 52 2B 80 F8 FF FF  '.G.......R+....
07B0: 7F F8 FF FF 7F 73 31 36  39 45 2B 80 F8 FF FF 7F  .....s169E+.....
07C0: F8 FF FF 7F 73 30 38 37  29 80 2A 10 47 93 05 01  ....s087).*.G...
07D0: 27 10 48 93 05 01 0D 2A  10 48 93 05 01 6B 69 64  '.H....*.H...kid
07E0: 6C 30 48 93 05 01 1C 62  80 6E 48 93 05 01 29 80  l0H....b.nH...).
07F0: 99 48 93 05 01 2B 48 93  05 01 63 80 23 5D 29 80  .H...+H...c.#]).
0800: 64 80 4A F0 FF FF 7F 48  93 05 01 6F 76 F0 FF FF  d.J....H...ov...
0810: 7F 6E F0 FF FF 7F 65 80  99 F0 FF FF 7F 5C 00 66  .n....e......\.f
0820: 80 5C 01 66 80 9A 52 2B  80 F8 FF FF 7F F8 FF FF  .\.f..R+........
0830: 7F 73 30 38 37 1A 61 4E  29 10 47 93 05 01 06 4E  .s087.aN).G....N
0840: 01 47 93 05 01 59 05 F0  FF FF 7F 00 BA 48 93 05  .G...Y.......H..
0850: 01 67 80 68 80 69 80 6A  80 BA F0 FF FF 7F 6B 80  .g.h.i.j......k.
0860: 6C 80 6D 80 6A 80 80 F0  FF FF 7F 80 48 93 05 01  l.m.j.......H...
0870: 27 10 F0 FF FF 7F 40 45  2B 80 F8 FF FF 7F F8 FF  '.....@E+.......
0880: FF 7F 73 30 37 33 29 80  1A B5 4E 29 10 48 93 05  ..s073)...N).H..
0890: 01 0C 1C 04 80 4B 48 93  05 01 6E 80 6F 76 48 93  .....KH...n.ovH.
08A0: 05 01 55 2B 80 F8 FF FF  7F F8 FF FF 7F 73 30 37  ..U+.........s07
08B0: 33 45 2B 80 F8 FF FF 7F  F8 FF FF 7F 73 30 37 34  3E+.........s074
08C0: 29 80 55 2B 80 F8 FF FF  7F F8 FF FF 7F 73 30 37  ).U+.........s07
08D0: 34 1A 40 4E BA F0 FF FF  7F 6F 80 70 80 71 80 72  4.@N.....o.p.q.r
08E0: 80 BA 48 93 05 01 73 80  74 80 75 80 72 80 80 F0  ..H...s.t.u.r...
08F0: FF FF 7F 80 48 93 05 01  4B F0 FF FF 7F 76 80 4B  ....H...K....v.K
0900: 48 93 05 01 77 80 6F 76  F0 FF FF 7F 6F 76 48 93  H...w.ov....ovH.
0910: 05 01 BA 44 93 05 01 15  80 16 80 78 80 14 80 80  ...D.......x....
0920: 44 93 05 01 45 2B 80 F8  FF FF 7F F8 FF FF 7F 73  D...E+.........s
0930: 30 37 35 29 80 1A A3 4E  1C 2C 80 4A 48 93 05 01  075)...N.,.JH...
0940: 49 93 05 01 6F 76 48 93  05 01 1C 2E 80 6E 48 93  I...ovH......nH.
0950: 05 01 29 80 99 48 93 05  01 99 48 93 05 01 1C 2E  ..)..H....H.....
0960: 80 79 00 48 93 05 01 44  93 05 01 55 2B 80 F8 FF  .y.H...D...U+...
0970: FF 7F F8 FF FF 7F 73 30  37 35 45 2B 80 F8 FF FF  ......s075E+....
0980: 7F F8 FF FF 7F 73 30 37  36 29 80 55 2B 80 F8 FF  .....s076).U+...
0990: FF 7F F8 FF FF 7F 73 30  37 36 45 2B 80 F8 FF FF  ......s076E+....
09A0: 7F F8 FF FF 7F 73 30 37  31 29 80 2B 49 93 05 01  .....s071).+I...
09B0: 79 80 23 2B 49 93 05 01  7A 80 23 52 2B 80 F8 FF  y.#+I...z.#R+...
09C0: FF 7F F8 FF FF 7F 73 30  37 31 45 2B 80 F8 FF FF  ......s071E+....
09D0: 7F F8 FF FF 7F 73 30 38  38 29 80 2B 46 93 05 01  .....s088).+F...
09E0: 7B 80 23 55 2B 80 F8 FF  FF 7F F8 FF FF 7F 73 30  {.#U+.........s0
09F0: 38 38 45 2B 80 F8 FF FF  7F F8 FF FF 7F 73 30 38  88E+.........s08
0A00: 39 29 80 2B 49 93 05 01  7C 80 23 5B 28 80 49 93  9).+I...|.#[(.I.
0A10: 05 01 49 93 05 01 73 68  61 31 53 49 93 05 01 49  ..I...sha1SI...I
0A20: 93 05 01 73 68 61 31 27  10 49 93 05 01 04 1C 2E  ...sha1'.I......
0A30: 80 52 2B 80 F8 FF FF 7F  F8 FF FF 7F 73 30 38 39  .R+.........s089
0A40: 45 2B 80 F8 FF FF 7F F8  FF FF 7F 73 31 30 30 29  E+.........s100)
0A50: 80 2A 10 49 93 05 01 5B  28 80 49 93 05 01 49 93  .*.I...[(.I...I.
0A60: 05 01 61 6B 61 30 53 49  93 05 01 49 93 05 01 61  ..aka0SI...I...a
0A70: 6B 61 30 55 2B 80 F8 FF  FF 7F F8 FF FF 7F 73 31  ka0U+.........s1
0A80: 30 30 45 2B 80 F8 FF FF  7F F8 FF FF 7F 73 30 39  00E+.........s09
0A90: 30 29 80 4B 46 93 05 01  7D 80 2B 46 93 05 01 7E  0).KF...}.+F...~
0AA0: 80 23 6F 76 46 93 05 01  6E 46 93 05 01 50 80 99  .#ovF...nF...P..
0AB0: 46 93 05 01 2B 46 93 05  01 7F 80 23 99 46 93 05  F...+F.....#.F..
0AC0: 01 52 2B 80 F8 FF FF 7F  F8 FF FF 7F 73 30 39 30  .R+.........s090
0AD0: 45 2B 80 F8 FF FF 7F F8  FF FF 7F 73 30 39 31 29  E+.........s091)
0AE0: 80 BA 44 93 05 01 15 80  16 80 78 80 14 80 80 44  ..D.......x....D
0AF0: 93 05 01 2B 46 93 05 01  80 80 23 52 2B 80 F8 FF  ...+F.....#R+...
0B00: FF 7F F8 FF FF 7F 73 30  39 31 45 2B 80 F8 FF FF  ......s091E+....
0B10: 7F F8 FF FF 7F 73 30 39  33 29 80 6E 46 93 05 01  .....s093).nF...
0B20: 48 80 99 46 93 05 01 2B  46 93 05 01 81 80 23 99  H..F...+F.....#.
0B30: 46 93 05 01 7B 46 93 05  01 2B 46 93 05 01 82 80  F...{F...+F.....
0B40: 23 52 2B 80 F8 FF FF 7F  F8 FF FF 7F 73 30 39 33  #R+.........s093
0B50: 45 4A 80 F8 FF FF 7F F8  FF FF 7F 6F 76 6C 31 29  EJ.........ovl1)
0B60: 80 45 2B 80 F8 FF FF 7F  F8 FF FF 7F 73 30 39 32  .E+.........s092
0B70: 29 80 5B 28 80 49 93 05  01 49 93 05 01 61 6B 61  ).[(.I...I...aka
0B80: 31 53 49 93 05 01 49 93  05 01 61 6B 61 31 1C 2E  1SI...I...aka1..
0B90: 80 5B 28 80 4A 93 05 01  4A 93 05 01 61 6B 61 31  .[(.J...J...aka1
0BA0: 1C 04 80 5B 28 80 4B 93  05 01 4B 93 05 01 61 6B  ...[(.K...K...ak
0BB0: 61 31 53 4A 93 05 01 4A  93 05 01 61 6B 61 31 53  a1SJ...J...aka1S
0BC0: 4B 93 05 01 4B 93 05 01  61 6B 61 31 1C 04 80 5B  K...K...aka1...[
0BD0: 28 80 49 93 05 01 49 93  05 01 73 68 61 30 1C 04  (.I...I...sha0..
0BE0: 80 5B 28 80 4A 93 05 01  4A 93 05 01 61 6B 61 30  .[(.J...J...aka0
0BF0: 1C 65 80 5B 28 80 4B 93  05 01 4B 93 05 01 61 6B  .e.[(.K...K...ak
0C00: 61 30 2B 49 93 05 01 83  80 23 53 49 93 05 01 49  a0+I.....#SI...I
0C10: 93 05 01 73 68 61 30 53  4A 93 05 01 4A 93 05 01  ...sha0SJ...J...
0C20: 61 6B 61 30 53 4B 93 05  01 4B 93 05 01 61 6B 61  aka0SK...K...aka
0C30: 30 52 2B 80 F8 FF FF 7F  F8 FF FF 7F 73 30 39 32  0R+.........s092
0C40: 45 2B 80 F8 FF FF 7F F8  FF FF 7F 73 31 30 32 29  E+.........s102)
0C50: 80 6A 4E 80 58 80 02 80  5B 84 80 46 93 05 01 46  .jN.X...[..F...F
0C60: 93 05 01 72 79 75 30 BB  85 80 46 93 05 01 46 93  ...ryu0...F...F.
0C70: 05 01 73 74 30 31 29 80  5D 29 80 59 80 1C 86 80  ..st01).]).Y....
0C80: 45 2B 80 F8 FF FF 7F F8  FF FF 7F 30 61 72 31 29  E+.........0ar1)
0C90: 80 1C 87 80 52 2B 80 F8  FF FF 7F F8 FF FF 7F 73  ....R+.........s
0CA0: 31 30 32 45 2B 80 F8 FF  FF 7F F8 FF FF 7F 73 31  102E+.........s1
0CB0: 37 33 29 80 53 46 93 05  01 46 93 05 01 72 79 75  73).SF...F...ryu
0CC0: 30 6C 46 93 05 01 29 80  88 80 1C 89 80 5B 28 80  0lF...)......[(.
0CD0: 49 93 05 01 49 93 05 01  73 68 61 31 53 49 93 05  I...I...sha1SI..
0CE0: 01 49 93 05 01 73 68 61  31 4B 49 93 05 01 8A 80  .I...sha1KI.....
0CF0: 6F 76 49 93 05 01 27 10  49 93 05 01 05 1C 04 80  ovI...'.I.......
0D00: 5B 28 80 4A 93 05 01 4A  93 05 01 61 6B 61 31 1C  [(.J...J...aka1.
0D10: 04 80 5B 28 80 4B 93 05  01 4B 93 05 01 61 6B 61  ..[(.K...K...aka
0D20: 31 1C 8B 80 27 10 4A 93  05 01 04 1C 04 80 27 10  1...'.J.......'.
0D30: 4B 93 05 01 04 1C 3F 80  52 2B 80 F8 FF FF 7F F8  K.....?.R+......
0D40: FF FF 7F 73 31 37 33 45  2B 80 F8 FF FF 7F F8 FF  ...s173E+.......
0D50: FF 7F 73 30 39 35 29 80  6A 00 80 58 80 02 80 7B  ..s095).j..X...{
0D60: 48 93 05 01 5C 00 2A 80  5C 01 2A 80 9A 1C 2E 80  H...\.*.\.*.....
0D70: 27 10 48 93 05 01 0E 1C  2C 80 52 2B 80 F8 FF FF  '.H.....,.R+....
0D80: 7F F8 FF FF 7F 73 30 39  35 45 2B 80 F8 FF FF 7F  .....s095E+.....
0D90: F8 FF FF 7F 73 30 39 37  29 80 27 10 F0 FF FF 7F  ....s097).'.....
0DA0: 41 1C 2E 80 2A 10 48 93  05 01 6B 69 64 6C 30 48  A...*.H...kidl0H
0DB0: 93 05 01 2B 48 93 05 01  8C 80 23 52 2B 80 F8 FF  ...+H.....#R+...
0DC0: FF 7F F8 FF FF 7F 73 30  39 37 45 2B 80 F8 FF FF  ......s097E+....
0DD0: 7F F8 FF FF 7F 73 30 39  38 29 80 66 2F 80 48 93  .....s098).f/.H.
0DE0: 05 01 48 93 05 01 74 68  6B 31 53 48 93 05 01 48  ..H...thk1SH...H
0DF0: 93 05 01 74 68 6B 31 7C  00 48 93 05 01 2B 48 93  ...thk1|.H...+H.
0E00: 05 01 8D 80 23 2A 10 F0  FF FF 7F 4A F0 FF FF 7F  ....#*.....J....
0E10: 48 93 05 01 6F 76 F0 FF  FF 7F 2B 48 93 05 01 8E  H...ov....+H....
0E20: 80 23 7C 01 48 93 05 01  1C 2C 80 52 2B 80 F8 FF  .#|.H....,.R+...
0E30: FF 7F F8 FF FF 7F 73 30  39 38 1A 61 4E BA 48 93  ......s098.aN.H.
0E40: 05 01 8F 80 90 80 91 80  01 80 BA F0 FF FF 7F 92  ................
0E50: 80 93 80 94 80 01 80 80  48 93 05 01 80 F0 FF FF  ........H.......
0E60: 7F 6B 69 64 6C 30 48 93  05 01 29 10 4C 93 05 01  .kidl0H...).L...
0E70: 04 7A 00 49 93 05 01 7A  00 4A 93 05 01 7A 00 4B  .z.I...z.J...z.K
0E80: 93 05 01 1C 2C 80 BB 85  80 46 93 05 01 46 93 05  ....,....F...F..
0E90: 01 61 31 32 38 29 80 29  10 47 93 05 01 04 45 2B  .a128).).G....E+
0EA0: 80 F8 FF FF 7F F8 FF FF  7F 73 31 30 31 29 80 1A  .........s101)..
0EB0: B5 4E 1C 95 80 27 10 48  93 05 01 0F 27 10 F0 FF  .N...'.H....'...
0EC0: FF 7F 42 1C 96 80 55 2B  80 F8 FF FF 7F F8 FF FF  ..B...U+........
0ED0: 7F 73 31 30 31 45 2B 80  F8 FF FF 7F F8 FF FF 7F  .s101E+.........
0EE0: 73 30 39 39 29 80 2A 10  48 93 05 01 6B 69 64 6C  s099).*.H...kidl
0EF0: 30 48 93 05 01 1C 62 80  2A 10 F0 FF FF 7F 1C 97  0H....b.*.......
0F00: 80 66 2F 80 48 93 05 01  48 93 05 01 74 68 6B 31  .f/.H...H...thk1
0F10: 53 48 93 05 01 48 93 05  01 74 68 6B 31 1C 98 80  SH...H...thk1...
0F20: 6B 69 64 6C 30 48 93 05  01 4B 48 93 05 01 99 80  kidl0H...KH.....
0F30: 1C 2C 80 4A F0 FF FF 7F  48 93 05 01 6F 76 F0 FF  .,.J....H...ov..
0F40: FF 7F 1C 2C 80 66 2F 80  48 93 05 01 48 93 05 01  ...,.f/.H...H...
0F50: 74 6C 6B 30 2B 48 93 05  01 9A 80 23 53 48 93 05  tlk0+H.....#SH..
0F60: 01 48 93 05 01 74 6C 6B  30 1C 3F 80 6E 48 93 05  .H...tlk0.?.nH..
0F70: 01 58 80 99 48 93 05 01  99 48 93 05 01 1C 98 80  .X..H....H......
0F80: 5D 29 80 86 80 1C 98 80  27 10 48 93 05 01 10 1C  ])......'.H.....
0F90: 98 80 52 2B 80 F8 FF FF  7F F8 FF FF 7F 73 30 39  ..R+.........s09
0FA0: 39 1A 82 4E 6A 4E 80 2C  80 65 80 7A 00 48 93 05  9..NjN.,.e.z.H..
0FB0: 01 46 00 1A C7 4E 21 00                           .F...N!.        
```

#### Opcodes

```
  0: 0x0001 [0x42] SET_CLI_EVENT_CANCEL_DATA()
  1: 0x0002 [0x6A] CHANGE_SOUND_VOLUME: Set (Effects/Zone)* volume to 300*, fade_time=120*
  2: 0x0009 [0x1A] CALL_SUBROUTINE(address=0x4E82)
  3: 0x000C [0x46] CAMERA_CONTROL: Disable user control
  4: 0x000E [0x38] SET_CLIENT_EVENT_MODE(mode=19*)
  5: 0x0011 [0x2F] Nichais (ID: 17142600/0x01059348)->Render.Flags0 &= ~0x80000 // Bit 19
  6: 0x0017 [0x29] REQ_SET_WAIT(priority=0x10, entity_id=Nichais (ID: 17142600/0x01059348), tag_num=0x03)
  7: 0x001E [0x2F] Areuhat (ID: 17142598/0x01059346)->Render.Flags0 &= ~0x80000 // Bit 19
  8: 0x0024 [0x29] REQ_SET_WAIT(priority=0x10, entity_id=Areuhat (ID: 17142598/0x01059346), tag_num=0x05)
  9: 0x002B [0x2F] Zharijarl (ID: 17142601/0x01059349)->Render.Flags0 &= ~0x80000 // Bit 19
 10: 0x0031 [0x29] REQ_SET_WAIT(priority=0x10, entity_id=Zharijarl (ID: 17142601/0x01059349), tag_num=0x03)
 11: 0x0038 [0x2F] Emissary01 (ID: 17142602/0x0105934A)->Render.Flags0 &= ~0x80000 // Bit 19
 12: 0x003E [0x29] REQ_SET_WAIT(priority=0x10, entity_id=Emissary01 (ID: 17142602/0x0105934A), tag_num=0x03)
 13: 0x0045 [0x2F] Emissary02 (ID: 17142603/0x0105934B)->Render.Flags0 &= ~0x80000 // Bit 19
 14: 0x004B [0x29] REQ_SET_WAIT(priority=0x10, entity_id=Emissary02 (ID: 17142603/0x0105934B), tag_num=0x03)
 15: 0x0052 [0x2F] Odzmanouk (ID: 17142599/0x01059347)->Render.Flags0 &= ~0x80000 // Bit 19
 16: 0x0058 [0x1C] WAIT(15* ticks)
 17: 0x005B [0x29] REQ_SET_WAIT(priority=0x10, entity_id=Odzmanouk (ID: 17142599/0x01059347), tag_num=0x03)
 18: 0x0062 [0x6B] STOP_AND_IDLE: Odzmanouk (ID: 17142599/0x01059347) stops current action and resets to idle (animation="1tl0")
 19: 0x006B [0x2F] Unnamed NPC (ID: 17142596/0x01059344)->Render.Flags0 &= ~0x80000 // Bit 19
 20: 0x0071 [0x2F] Small Box (ID: 17142604/0x0105934C)->Render.Flags0 &= ~0x80000 // Bit 19
 21: 0x0077 [0x29] REQ_SET_WAIT(priority=0x10, entity_id=Small Box (ID: 17142604/0x0105934C), tag_num=0x03)
 22: 0x007E [0x1C] WAIT(15* ticks)
 23: 0x0081 [0x4E] SET_ENTITY_HIDE_FLAG: Show Nichais (ID: 17142600/0x01059348)
 24: 0x0087 [0x4E] SET_ENTITY_HIDE_FLAG: Show Areuhat (ID: 17142598/0x01059346)
 25: 0x008D [0x4E] SET_ENTITY_HIDE_FLAG: Show Zharijarl (ID: 17142601/0x01059349)
 26: 0x0093 [0x4E] SET_ENTITY_HIDE_FLAG: Show Emissary01 (ID: 17142602/0x0105934A)
 27: 0x0099 [0x4E] SET_ENTITY_HIDE_FLAG: Show Emissary02 (ID: 17142603/0x0105934B)
 28: 0x009F [0x4E] SET_ENTITY_HIDE_FLAG: Show Odzmanouk (ID: 17142599/0x01059347)
 29: 0x00A5 [0x4E] SET_ENTITY_HIDE_FLAG: Show Unnamed NPC (ID: 17142596/0x01059344)
 30: 0x00AB [0x4E] SET_ENTITY_HIDE_FLAG: Show Small Box (ID: 17142604/0x0105934C)
 31: 0x00B1 [0x92] Nichais (ID: 17142600/0x01059348)->Render.Flags3 ^= 0x01
 32: 0x00B7 [0x92] Areuhat (ID: 17142598/0x01059346)->Render.Flags3 ^= 0x01
 33: 0x00BD [0x92] Zharijarl (ID: 17142601/0x01059349)->Render.Flags3 ^= 0x01
 34: 0x00C3 [0x92] Emissary01 (ID: 17142602/0x0105934A)->Render.Flags3 ^= 0x01
 35: 0x00C9 [0x92] Emissary02 (ID: 17142603/0x0105934B)->Render.Flags3 ^= 0x01
 36: 0x00CF [0x92] Odzmanouk (ID: 17142599/0x01059347)->Render.Flags3 ^= 0x01
 37: 0x00D5 [0x92] Unnamed NPC (ID: 17142596/0x01059344)->Render.Flags3 ^= 0x01
 38: 0x00DB [0x92] Small Box (ID: 17142604/0x0105934C)->Render.Flags3 ^= 0x01
 39: 0x00E1 [0x94] Nichais (ID: 17142600/0x01059348)->Render.Flags3 ^= 0x01
 40: 0x00E7 [0x94] Areuhat (ID: 17142598/0x01059346)->Render.Flags3 ^= 0x01
 41: 0x00ED [0x94] Zharijarl (ID: 17142601/0x01059349)->Render.Flags3 ^= 0x01
 42: 0x00F3 [0x94] Emissary01 (ID: 17142602/0x0105934A)->Render.Flags3 ^= 0x01
 43: 0x00F9 [0x94] Emissary02 (ID: 17142603/0x0105934B)->Render.Flags3 ^= 0x01
 44: 0x00FF [0x94] Odzmanouk (ID: 17142599/0x01059347)->Render.Flags3 ^= 0x01
 45: 0x0105 [0x94] LocalPlayer->Render.Flags3 ^= 0x01
 46: 0x010B [0x94] Unnamed NPC (ID: 17142596/0x01059344)->Render.Flags3 ^= 0x01
 47: 0x0111 [0x94] Small Box (ID: 17142604/0x0105934C)->Render.Flags3 ^= 0x01
 48: 0x0117 [0xBA] SET_ENTITY_POSITION(entity_id=Areuhat (ID: 17142598/0x01059346), pos_x=-524.342*, pos_z=235.034*, pos_y=-171.697*, direction=131.8°*)
 49: 0x0124 [0x59] UPDATE_ENTITY_DATA: LocalPlayer->Render.Flags0 |= 0x200000
 50: 0x012B [0xBA] SET_ENTITY_POSITION(entity_id=LocalPlayer, pos_x=-168.857*, pos_z=-349.287*, pos_y=-25.485*, direction=202.1°*)
 51: 0x0138 [0xBA] SET_ENTITY_POSITION(entity_id=Nichais (ID: 17142600/0x01059348), pos_x=-157.310*, pos_z=-347.463*, pos_y=-23.362*, direction=175.8°*)
 52: 0x0145 [0xBA] SET_ENTITY_POSITION(entity_id=Zharijarl (ID: 17142601/0x01059349), pos_x=-523.540*, pos_z=229.944*, pos_y=-171.185*, direction=263.7°*)
 53: 0x0152 [0xBA] SET_ENTITY_POSITION(entity_id=Emissary01 (ID: 17142602/0x0105934A), pos_x=-524.351*, pos_z=227.926*, pos_y=-171.097*, direction=263.7°*)
 54: 0x015F [0xBA] SET_ENTITY_POSITION(entity_id=Emissary02 (ID: 17142603/0x0105934B), pos_x=-521.732*, pos_z=228.754*, pos_y=-170.823*, direction=263.7°*)
 55: 0x016C [0xBA] SET_ENTITY_POSITION(entity_id=Odzmanouk (ID: 17142599/0x01059347), pos_x=-182.029*, pos_z=-367.125*, pos_y=-34.999*, direction=304.1°*)
 56: 0x0179 [0xBA] SET_ENTITY_POSITION(entity_id=Unnamed NPC (ID: 17142596/0x01059344), pos_x=-160.681*, pos_z=-344.454*, pos_y=-23.274*, direction=344.8°*)
 57: 0x0186 [0xBA] SET_ENTITY_POSITION(entity_id=Small Box (ID: 17142604/0x0105934C), pos_x=-171.135*, pos_z=-348.473*, pos_y=-27.530*, direction=307.6°*)
 58: 0x0193 [0x80] LOAD_WAIT(entity=Nichais (ID: 17142600/0x01059348))
 59: 0x0198 [0x80] LOAD_WAIT(entity=Areuhat (ID: 17142598/0x01059346))
 60: 0x019D [0x80] LOAD_WAIT(entity=Zharijarl (ID: 17142601/0x01059349))
 61: 0x01A2 [0x80] LOAD_WAIT(entity=Emissary01 (ID: 17142602/0x0105934A))
 62: 0x01A7 [0x80] LOAD_WAIT(entity=Emissary02 (ID: 17142603/0x0105934B))
 63: 0x01AC [0x80] LOAD_WAIT(entity=Odzmanouk (ID: 17142599/0x01059347))
 64: 0x01B1 [0x80] LOAD_WAIT(entity=Unnamed NPC (ID: 17142596/0x01059344))
 65: 0x01B6 [0x80] LOAD_WAIT(entity=Small Box (ID: 17142604/0x0105934C))
 66: 0x01BB [0x80] LOAD_WAIT(entity=LocalPlayer)
 67: 0x01C0 [0x1C] WAIT(15* ticks)
 68: 0x01C3 [0x4A] Zharijarl (ID: 17142601/0x01059349) looks at Areuhat (ID: 17142598/0x01059346)
 69: 0x01CC [0x6F] WAIT_FRAME_DELAY: Yield until WaitTime reaches zero
 70: 0x01CD [0x76] CHECK_ENTITY_RENDER_FLAGS: Wait until Zharijarl (ID: 17142601/0x01059349) Render.Flags0 and Render.Flags3 conditions are met
 71: 0x01D2 [0x4A] Emissary01 (ID: 17142602/0x0105934A) looks at Areuhat (ID: 17142598/0x01059346)
 72: 0x01DB [0x6F] WAIT_FRAME_DELAY: Yield until WaitTime reaches zero
 73: 0x01DC [0x76] CHECK_ENTITY_RENDER_FLAGS: Wait until Emissary01 (ID: 17142602/0x0105934A) Render.Flags0 and Render.Flags3 conditions are met
 74: 0x01E1 [0x4A] Emissary02 (ID: 17142603/0x0105934B) looks at Areuhat (ID: 17142598/0x01059346)
 75: 0x01EA [0x6F] WAIT_FRAME_DELAY: Yield until WaitTime reaches zero
 76: 0x01EB [0x76] CHECK_ENTITY_RENDER_FLAGS: Wait until Emissary02 (ID: 17142603/0x0105934B) Render.Flags0 and Render.Flags3 conditions are met
 77: 0x01F0 [0x5B] LOAD_EXT_SCHEDULER: Load scheduler "sha0" with entities [Zharijarl (ID: 17142601/0x01059349), Zharijarl (ID: 17142601/0x01059349)], work=837*
 78: 0x01FF [0x5B] LOAD_EXT_SCHEDULER: Load scheduler "aka0" with entities [Emissary01 (ID: 17142602/0x0105934A), Emissary01 (ID: 17142602/0x0105934A)], work=838*
 79: 0x020E [0x5B] LOAD_EXT_SCHEDULER: Load scheduler "aka0" with entities [Emissary02 (ID: 17142603/0x0105934B), Emissary02 (ID: 17142603/0x0105934B)], work=838*
 80: 0x021D [0x53] WAIT_SCHEDULER_TASK: Wait for scheduler "sha0" with entities [Zharijarl (ID: 17142601/0x01059349), Zharijarl (ID: 17142601/0x01059349)]
 81: 0x022A [0x53] WAIT_SCHEDULER_TASK: Wait for scheduler "aka0" with entities [Emissary01 (ID: 17142602/0x0105934A), Emissary01 (ID: 17142602/0x0105934A)]
 82: 0x0237 [0x53] WAIT_SCHEDULER_TASK: Wait for scheduler "aka0" with entities [Emissary02 (ID: 17142603/0x0105934B), Emissary02 (ID: 17142603/0x0105934B)]
 83: 0x0244 [0x4A] Areuhat (ID: 17142598/0x01059346) looks at Zharijarl (ID: 17142601/0x01059349)
 84: 0x024D [0x6F] WAIT_FRAME_DELAY: Yield until WaitTime reaches zero
 85: 0x024E [0x76] CHECK_ENTITY_RENDER_FLAGS: Wait until Areuhat (ID: 17142598/0x01059346) Render.Flags0 and Render.Flags3 conditions are met
 86: 0x0253 [0x6C] FADE_ENTITY_COLOR(entity_id=Odzmanouk (ID: 17142599/0x01059347), end_alpha=0*, fade_time=0*)
 87: 0x025C [0x1C] WAIT(15* ticks)
 88: 0x025F [0x5C] MUSIC_CONTROL: Set Idle (Day) music to song 253*
 89: 0x0263 [0x5C] MUSIC_CONTROL: Set Idle (Night) music to song 253*
 90: 0x0267 [0x9A] WAIT_MUSIC_SERVER()
 91: 0x0268 [0x45] LOAD_SCHEDULED_TASK: Load scheduler "s037" with entities [EventEntity, EventEntity], work=[388*, 0*]
 92: 0x0279 [0x1A] CALL_SUBROUTINE(address=0x4EC7)
 93: 0x027C [0x1C] WAIT(60* ticks)
 94: 0x027F [0x2B] Nichais (ID: 17142600/0x01059348) [8021*]:
    → "<Player>!"
 95: 0x0286 [0x23] WAIT_FOR_DIALOG_INTERACTION
 96: 0x0287 [0x4A] LocalPlayer looks at Nichais (ID: 17142600/0x01059348)
 97: 0x0290 [0x6F] WAIT_FRAME_DELAY: Yield until WaitTime reaches zero
 98: 0x0291 [0x76] CHECK_ENTITY_RENDER_FLAGS: Wait until LocalPlayer Render.Flags0 and Render.Flags3 conditions are met
 99: 0x0296 [0x27] REQ_SET(priority=0x10, entity_id=Nichais (ID: 17142600/0x01059348), tag_num=0x08)
100: 0x029D [0x1C] WAIT(30* ticks)
101: 0x02A0 [0x52] END_LOAD_SCHEDULER: End scheduler "s037" with entities [EventEntity, EventEntity], work=388*
102: 0x02AF [0x45] LOAD_SCHEDULED_TASK: Load scheduler "s078" with entities [EventEntity, EventEntity], work=[388*, 0*]
103: 0x02C0 [0x2A] GET_REQ_LEVEL(level=16, entity_id=Nichais (ID: 17142600/0x01059348))
104: 0x02C6 [0x4B] UPDATE_ENTITY_YAW(entity=Nichais (ID: 17142600/0x01059348), yaw=11.0°*)
105: 0x02CD [0x6F] WAIT_FRAME_DELAY: Yield until WaitTime reaches zero
106: 0x02CE [0x76] CHECK_ENTITY_RENDER_FLAGS: Wait until Nichais (ID: 17142600/0x01059348) Render.Flags0 and Render.Flags3 conditions are met
107: 0x02D3 [0x66] LOAD_EXT_SCHEDULER_MAIN: Load scheduler "tlk0" with entities [Nichais (ID: 17142600/0x01059348), Nichais (ID: 17142600/0x01059348)], work=29*
108: 0x02E2 [0x2B] Nichais (ID: 17142600/0x01059348) [8022*]:
    → "So you came after all! I cannot tell you how much I appreciate your cooperation."
109: 0x02E9 [0x23] WAIT_FOR_DIALOG_INTERACTION
110: 0x02EA [0x53] WAIT_SCHEDULER_TASK: Wait for scheduler "tlk0" with entities [Nichais (ID: 17142600/0x01059348), Nichais (ID: 17142600/0x01059348)]
111: 0x02F7 [0x1C] WAIT(70* ticks)
112: 0x02FA [0x6B] STOP_AND_IDLE: Nichais (ID: 17142600/0x01059348) stops current action and resets to idle (animation="idl0")
113: 0x0303 [0x4B] UPDATE_ENTITY_YAW(entity=Nichais (ID: 17142600/0x01059348), yaw=18.0°*)
114: 0x030A [0x1C] WAIT(5* ticks)
115: 0x030D [0x2B] Nichais (ID: 17142600/0x01059348) [8091*]:
    → "!!!"
116: 0x0314 [0x6F] WAIT_FRAME_DELAY: Yield until WaitTime reaches zero
117: 0x0315 [0x76] CHECK_ENTITY_RENDER_FLAGS: Wait until Nichais (ID: 17142600/0x01059348) Render.Flags0 and Render.Flags3 conditions are met
118: 0x031A [0x7C] Nichais (ID: 17142600/0x01059348)->Render.Flags2 |= 0x00
119: 0x0320 [0x7C] Nichais (ID: 17142600/0x01059348)->Render.Flags2 |= 0x01
120: 0x0326 [0x1C] WAIT(15* ticks)
121: 0x0329 [0x52] END_LOAD_SCHEDULER: End scheduler "s078" with entities [EventEntity, EventEntity], work=388*
122: 0x0338 [0x45] LOAD_SCHEDULED_TASK: Load scheduler "s079" with entities [EventEntity, EventEntity], work=[388*, 0*]
123: 0x0349 [0x29] REQ_SET_WAIT(priority=0x10, entity_id=Nichais (ID: 17142600/0x01059348), tag_num=0x09)
124: 0x0350 [0x1C] WAIT(30* ticks)
125: 0x0353 [0x5B] LOAD_EXT_SCHEDULER: Load scheduler "sha0" with entities [Nichais (ID: 17142600/0x01059348), Nichais (ID: 17142600/0x01059348)], work=29*
126: 0x0362 [0x53] WAIT_SCHEDULER_TASK: Wait for scheduler "sha0" with entities [Nichais (ID: 17142600/0x01059348), Nichais (ID: 17142600/0x01059348)]
127: 0x036F [0x2B] Nichais (ID: 17142600/0x01059348) [8023*]:
    → "Have a look, here. These markings in the ground... These were unmistakably made by the giant talons of a wyrm. Very distinctive indeed. And it would seem they are still fresh!"
128: 0x0376 [0x23] WAIT_FOR_DIALOG_INTERACTION
129: 0x0377 [0xBA] SET_ENTITY_POSITION(entity_id=Unnamed NPC (ID: 17142596/0x01059344), pos_x=-161.152*, pos_z=-347.830*, pos_y=-23.579*, direction=54.5°*)
130: 0x0384 [0x80] LOAD_WAIT(entity=Unnamed NPC (ID: 17142596/0x01059344))
131: 0x0389 [0x1C] WAIT(15* ticks)
132: 0x038C [0x79] Nichais (ID: 17142600/0x01059348) looks at Unnamed NPC (ID: 17142596/0x01059344) (Basic look)
133: 0x0396 [0x52] END_LOAD_SCHEDULER: End scheduler "s079" with entities [EventEntity, EventEntity], work=388*
134: 0x03A5 [0x45] LOAD_SCHEDULED_TASK: Load scheduler "s164" with entities [EventEntity, EventEntity], work=[388*, 0*]
135: 0x03B6 [0x29] REQ_SET_WAIT(priority=0x10, entity_id=Nichais (ID: 17142600/0x01059348), tag_num=0x04)
136: 0x03BD [0x1C] WAIT(105* ticks)
137: 0x03C0 [0x52] END_LOAD_SCHEDULER: End scheduler "s164" with entities [EventEntity, EventEntity], work=388*
138: 0x03CF [0x45] LOAD_SCHEDULED_TASK: Load scheduler "s166" with entities [EventEntity, EventEntity], work=[388*, 0*]
139: 0x03E0 [0x2B] Nichais (ID: 17142600/0x01059348) [8024*]:
    → "I've seen their likes reproduced in the texts, but these...they are enormous! This was no ordinary wyrm what left these. We may well be on the trail of our elusive myth after all."
140: 0x03E7 [0x23] WAIT_FOR_DIALOG_INTERACTION
141: 0x03E8 [0x1C] WAIT(60* ticks)
142: 0x03EB [0x52] END_LOAD_SCHEDULER: End scheduler "s166" with entities [EventEntity, EventEntity], work=388*
143: 0x03FA [0x1A] CALL_SUBROUTINE(address=0x4E40)
144: 0x03FD [0x27] REQ_SET(priority=0x10, entity_id=LocalPlayer, tag_num=0x3F)
145: 0x0404 [0x29] REQ_SET_WAIT(priority=0x10, entity_id=Nichais (ID: 17142600/0x01059348), tag_num=0x0A)
146: 0x040B [0xBA] SET_ENTITY_POSITION(entity_id=Unnamed NPC (ID: 17142596/0x01059344), pos_x=-171.391*, pos_z=-348.876*, pos_y=-27.753*, direction=303.8°*)
147: 0x0418 [0x80] LOAD_WAIT(entity=Unnamed NPC (ID: 17142596/0x01059344))
148: 0x041D [0x4A] LocalPlayer looks at Nichais (ID: 17142600/0x01059348)
149: 0x0426 [0x6F] WAIT_FRAME_DELAY: Yield until WaitTime reaches zero
150: 0x0427 [0x76] CHECK_ENTITY_RENDER_FLAGS: Wait until LocalPlayer Render.Flags0 and Render.Flags3 conditions are met
151: 0x042C [0x29] REQ_SET_WAIT(priority=0x10, entity_id=Nichais (ID: 17142600/0x01059348), tag_num=0x05)
152: 0x0433 [0x45] LOAD_SCHEDULED_TASK: Load scheduler "s080" with entities [EventEntity, EventEntity], work=[388*, 0*]
153: 0x0444 [0x27] REQ_SET(priority=0x10, entity_id=Nichais (ID: 17142600/0x01059348), tag_num=0x0B)
154: 0x044B [0x1A] CALL_SUBROUTINE(address=0x4EA3)
155: 0x044E [0x2A] GET_REQ_LEVEL(level=16, entity_id=Nichais (ID: 17142600/0x01059348))
156: 0x0454 [0x4A] Nichais (ID: 17142600/0x01059348) looks at LocalPlayer
157: 0x045D [0x1C] WAIT(5* ticks)
158: 0x0460 [0x6F] WAIT_FRAME_DELAY: Yield until WaitTime reaches zero
159: 0x0461 [0x76] CHECK_ENTITY_RENDER_FLAGS: Wait until Nichais (ID: 17142600/0x01059348) Render.Flags0 and Render.Flags3 conditions are met
160: 0x0466 [0x79] Nichais (ID: 17142600/0x01059348) looks at Small Box (ID: 17142604/0x0105934C) (Basic look)
161: 0x0470 [0x1C] WAIT(45* ticks)
162: 0x0473 [0x6E] Nichais (ID: 17142600/0x01059348) uses emote 19*
163: 0x047A [0x99] Wait for Nichais (ID: 17142600/0x01059348) animation to complete
164: 0x047F [0x1C] WAIT(110* ticks)
165: 0x0482 [0x52] END_LOAD_SCHEDULER: End scheduler "s080" with entities [EventEntity, EventEntity], work=388*
166: 0x0491 [0x45] LOAD_SCHEDULED_TASK: Load scheduler "s168" with entities [EventEntity, EventEntity], work=[388*, 0*]
167: 0x04A2 [0x7B] Nichais (ID: 17142600/0x01059348) stops talking
168: 0x04A7 [0x2B] Nichais (ID: 17142600/0x01059348) [8025*]:
    → "And what of the valuables I left? Hmmm...untouched. That is most unfortunate."
169: 0x04AE [0x23] WAIT_FOR_DIALOG_INTERACTION
170: 0x04AF [0x1C] WAIT(45* ticks)
171: 0x04B2 [0x52] END_LOAD_SCHEDULER: End scheduler "s168" with entities [EventEntity, EventEntity], work=388*
172: 0x04C1 [0x45] LOAD_SCHEDULED_TASK: Load scheduler "s082" with entities [EventEntity, EventEntity], work=[388*, 0*]
173: 0x04D2 [0x4B] UPDATE_ENTITY_YAW(entity=Nichais (ID: 17142600/0x01059348), yaw=7.7°*)
174: 0x04D9 [0x6F] WAIT_FRAME_DELAY: Yield until WaitTime reaches zero
175: 0x04DA [0x76] CHECK_ENTITY_RENDER_FLAGS: Wait until Nichais (ID: 17142600/0x01059348) Render.Flags0 and Render.Flags3 conditions are met
176: 0x04DF [0x1C] WAIT(30* ticks)
177: 0x04E2 [0x66] LOAD_EXT_SCHEDULER_MAIN: Load scheduler "tlk0" with entities [Nichais (ID: 17142600/0x01059348), Nichais (ID: 17142600/0x01059348)], work=29*
178: 0x04F1 [0x2B] Nichais (ID: 17142600/0x01059348) [8026*]:
    → "I was compelled to reenact one of the ancient rites of offering which I once read about when studying the wyrm cult. I left every type of precious metal and stone I could find, but it would seem my efforts were in vain."
179: 0x04F8 [0x23] WAIT_FOR_DIALOG_INTERACTION
180: 0x04F9 [0x53] WAIT_SCHEDULER_TASK: Wait for scheduler "tlk0" with entities [Nichais (ID: 17142600/0x01059348), Nichais (ID: 17142600/0x01059348)]
181: 0x0506 [0x2B] Nichais (ID: 17142600/0x01059348) [8027*]:
    → "I confess, the optimist in me wanted to believe that if the great Mountain's Eye of Grauberg truly did exist, then perhaps... Perhaps an honorable beast like that portrayed in the stories could be befriended, even appealed to for help."
182: 0x050D [0x23] WAIT_FOR_DIALOG_INTERACTION
183: 0x050E [0x6B] STOP_AND_IDLE: Nichais (ID: 17142600/0x01059348) stops current action and resets to idle (animation="idl0")
184: 0x0517 [0x52] END_LOAD_SCHEDULER: End scheduler "s082" with entities [EventEntity, EventEntity], work=388*
185: 0x0526 [0x45] LOAD_SCHEDULED_TASK: Load scheduler "s081" with entities [EventEntity, EventEntity], work=[388*, 0*]
186: 0x0537 [0x2B] Nichais (ID: 17142600/0x01059348) [8028*]:
    → "Such a noble being could surely be made to see the good of our cause and help turn the tides of war in favor of Altana. And at last the suffering of the four nations could be assuaged... Or so I thought. Perhaps I was naive, hasty..."
187: 0x053E [0x23] WAIT_FOR_DIALOG_INTERACTION
188: 0x053F [0x6B] STOP_AND_IDLE: Nichais (ID: 17142600/0x01059348) stops current action and resets to idle (animation="idl0")
189: 0x0548 [0x52] END_LOAD_SCHEDULER: End scheduler "s081" with entities [EventEntity, EventEntity], work=388*
190: 0x0557 [0x45] LOAD_SCHEDULED_TASK: Load scheduler "s077" with entities [EventEntity, EventEntity], work=[388*, 0*]
191: 0x0568 [0x1C] WAIT(30* ticks)
192: 0x056B [0x4A] Nichais (ID: 17142600/0x01059348) looks at Unnamed NPC (ID: 17142596/0x01059344)
193: 0x0574 [0x2B] Nichais (ID: 17142600/0x01059348) [8029*]:
    → "But as you can see now, it seems I have no recourse left. And yet so close... The newly-made footsteps of the beast I seek staring back at me mockingly from the very ground I stand on!"
194: 0x057B [0x23] WAIT_FOR_DIALOG_INTERACTION
195: 0x057C [0x6F] WAIT_FRAME_DELAY: Yield until WaitTime reaches zero
196: 0x057D [0x76] CHECK_ENTITY_RENDER_FLAGS: Wait until Nichais (ID: 17142600/0x01059348) Render.Flags0 and Render.Flags3 conditions are met
197: 0x0582 [0x6B] STOP_AND_IDLE: Nichais (ID: 17142600/0x01059348) stops current action and resets to idle (animation="idl0")
198: 0x058B [0x4A] Nichais (ID: 17142600/0x01059348) looks at LocalPlayer
199: 0x0594 [0x7B] Nichais (ID: 17142600/0x01059348) stops talking
200: 0x0599 [0x52] END_LOAD_SCHEDULER: End scheduler "s077" with entities [EventEntity, EventEntity], work=388*
201: 0x05A8 [0x45] LOAD_SCHEDULED_TASK: Load scheduler "s084" with entities [EventEntity, EventEntity], work=[388*, 0*]
202: 0x05B9 [0x6F] WAIT_FRAME_DELAY: Yield until WaitTime reaches zero
203: 0x05BA [0x76] CHECK_ENTITY_RENDER_FLAGS: Wait until Nichais (ID: 17142600/0x01059348) Render.Flags0 and Render.Flags3 conditions are met
204: 0x05BF [0x66] LOAD_EXT_SCHEDULER_MAIN: Load scheduler "thk1" with entities [Nichais (ID: 17142600/0x01059348), Nichais (ID: 17142600/0x01059348)], work=29*
205: 0x05CE [0x2B] Nichais (ID: 17142600/0x01059348) [8030*]:
    → "Could it be this great wyrm's wisdom runs so deep that she is able to see into the very hearts of any who lay offerings at her altar? Were my gifts left for no other reason than that my aims were conceited? Self-serving? Untrue?"
206: 0x05D5 [0x23] WAIT_FOR_DIALOG_INTERACTION
207: 0x05D6 [0x53] WAIT_SCHEDULER_TASK: Wait for scheduler "thk1" with entities [Nichais (ID: 17142600/0x01059348), Nichais (ID: 17142600/0x01059348)]
208: 0x05E3 [0x6B] STOP_AND_IDLE: Nichais (ID: 17142600/0x01059348) stops current action and resets to idle (animation="idl0")
209: 0x05EC [0x6E] Nichais (ID: 17142600/0x01059348) uses emote 6*
210: 0x05F3 [0x99] Wait for Nichais (ID: 17142600/0x01059348) animation to complete
211: 0x05F8 [0x2B] Nichais (ID: 17142600/0x01059348) [8031*]:
    → "How foolish of me... To come here expecting nothing less than to bend one of the dragons of old to my insignificant will."
212: 0x05FF [0x23] WAIT_FOR_DIALOG_INTERACTION
213: 0x0600 [0x5D] SET_MUSIC_VOLUME(volume=0*, fade_time=200*)
214: 0x0605 [0x99] Wait for Nichais (ID: 17142600/0x01059348) animation to complete
215: 0x060A [0x1C] WAIT(15* ticks)
216: 0x060D [0x66] LOAD_EXT_SCHEDULER_MAIN: Load scheduler "tlk0" with entities [Nichais (ID: 17142600/0x01059348), Nichais (ID: 17142600/0x01059348)], work=29*
217: 0x061C [0x2B] Nichais (ID: 17142600/0x01059348) [8032*]:
    → "But perhaps all has not been in vain. These markings are proof enough that there is indeed a wyrm which calls Grauberg its home. I pray it is only a matter of time before we happen across it!"
218: 0x0623 [0x23] WAIT_FOR_DIALOG_INTERACTION
219: 0x0624 [0x53] WAIT_SCHEDULER_TASK: Wait for scheduler "tlk0" with entities [Nichais (ID: 17142600/0x01059348), Nichais (ID: 17142600/0x01059348)]
220: 0x0631 [0x5C] MUSIC_CONTROL: Set Idle (Day) music to song 170*
221: 0x0635 [0x5C] MUSIC_CONTROL: Set Idle (Night) music to song 170*
222: 0x0639 [0x9A] WAIT_MUSIC_SERVER()
223: 0x063A [0x52] END_LOAD_SCHEDULER: End scheduler "s084" with entities [EventEntity, EventEntity], work=388*
224: 0x0649 [0x45] LOAD_SCHEDULED_TASK: Load scheduler "s094" with entities [EventEntity, EventEntity], work=[388*, 0*]
225: 0x065A [0x1C] WAIT(30* ticks)
226: 0x065D [0x79] Nichais (ID: 17142600/0x01059348) looks at Odzmanouk (ID: 17142599/0x01059347) (Basic look)
227: 0x0667 [0x2B] Nichais (ID: 17142600/0x01059348) [8033*]:
    → "Hmmm?"
228: 0x066E [0x23] WAIT_FOR_DIALOG_INTERACTION
229: 0x066F [0x4A] LocalPlayer looks at Odzmanouk (ID: 17142599/0x01059347)
230: 0x0678 [0x6F] WAIT_FRAME_DELAY: Yield until WaitTime reaches zero
231: 0x0679 [0x76] CHECK_ENTITY_RENDER_FLAGS: Wait until LocalPlayer Render.Flags0 and Render.Flags3 conditions are met
232: 0x067E [0x52] END_LOAD_SCHEDULER: End scheduler "s094" with entities [EventEntity, EventEntity], work=388*
233: 0x068D [0x45] LOAD_SCHEDULED_TASK: Load scheduler "s086" with entities [EventEntity, EventEntity], work=[388*, 0*]
234: 0x069E [0x6A] CHANGE_SOUND_VOLUME: Set (Effects/Zone)* volume to 999*, fade_time=15*
235: 0x06A5 [0x1C] WAIT(60* ticks)
236: 0x06A8 [0x4A] Nichais (ID: 17142600/0x01059348) looks at Odzmanouk (ID: 17142599/0x01059347)
237: 0x06B1 [0x1C] WAIT(30* ticks)
238: 0x06B4 [0x52] END_LOAD_SCHEDULER: End scheduler "s086" with entities [EventEntity, EventEntity], work=388*
239: 0x06C3 [0x1A] CALL_SUBROUTINE(address=0x4E40)
240: 0x06C6 [0x6C] FADE_ENTITY_COLOR(entity_id=Odzmanouk (ID: 17142599/0x01059347), end_alpha=128*, fade_time=0*)
241: 0x06CF [0x1C] WAIT(10* ticks)
242: 0x06D2 [0x29] REQ_SET_WAIT(priority=0x10, entity_id=Odzmanouk (ID: 17142599/0x01059347), tag_num=0x05)
243: 0x06D9 [0x27] REQ_SET(priority=0x10, entity_id=Odzmanouk (ID: 17142599/0x01059347), tag_num=0x07)
244: 0x06E0 [0x45] LOAD_SCHEDULED_TASK: Load scheduler "s085" with entities [EventEntity, EventEntity], work=[388*, 0*]
245: 0x06F1 [0x1A] CALL_SUBROUTINE(address=0x4EA3)
246: 0x06F4 [0x6E] Nichais (ID: 17142600/0x01059348) uses emote 21*
247: 0x06FB [0x99] Wait for Nichais (ID: 17142600/0x01059348) animation to complete
248: 0x0700 [0x6E] LocalPlayer uses emote 21*
249: 0x0707 [0x99] Wait for LocalPlayer animation to complete
250: 0x070C [0x2B] Nichais (ID: 17142600/0x01059348) [8034*]:
    → "There! Look to the sky! Do you see, <Player>!?"
251: 0x0713 [0x1C] WAIT(130* ticks)
252: 0x0716 [0x7A] VM_CONTROL: Reset VM for Odzmanouk (ID: 17142599/0x01059347)
253: 0x071C [0xBA] SET_ENTITY_POSITION(entity_id=Odzmanouk (ID: 17142599/0x01059347), pos_x=-159.548*, pos_z=-342.456*, pos_y=-40.679*, direction=315.5°*)
254: 0x0729 [0x27] REQ_SET(priority=0x10, entity_id=Odzmanouk (ID: 17142599/0x01059347), tag_num=0x08)
255: 0x0730 [0x1C] WAIT(15* ticks)
256: 0x0733 [0x52] END_LOAD_SCHEDULER: End scheduler "s085" with entities [EventEntity, EventEntity], work=388*
257: 0x0742 [0x45] LOAD_SCHEDULED_TASK: Load scheduler "s169" with entities [EventEntity, EventEntity], work=[388*, 0*]
258: 0x0753 [0x45] LOAD_SCHEDULED_TASK: Load scheduler "blof" with entities [EventEntity, EventEntity], work=[200*, 0*]
259: 0x0764 [0x6A] CHANGE_SOUND_VOLUME: Set (Effects/Zone)* volume to 300*, fade_time=1*
260: 0x076B [0x1C] WAIT(240* ticks)
261: 0x076E [0xBA] SET_ENTITY_POSITION(entity_id=Nichais (ID: 17142600/0x01059348), pos_x=-167.642*, pos_z=-352.011*, pos_y=-25.075*, direction=306.7°*)
262: 0x077B [0x7A] VM_CONTROL: Reset VM for Odzmanouk (ID: 17142599/0x01059347)
263: 0x0781 [0xBA] SET_ENTITY_POSITION(entity_id=Odzmanouk (ID: 17142599/0x01059347), pos_x=84.511*, pos_z=-198.376*, pos_y=-85.185*, direction=322.1°*)
264: 0x078E [0x4A] Nichais (ID: 17142600/0x01059348) looks at Odzmanouk (ID: 17142599/0x01059347)
265: 0x0797 [0x4A] LocalPlayer looks at Odzmanouk (ID: 17142599/0x01059347)
266: 0x07A0 [0x27] REQ_SET(priority=0x10, entity_id=Odzmanouk (ID: 17142599/0x01059347), tag_num=0x09)
267: 0x07A7 [0x1C] WAIT(15* ticks)
268: 0x07AA [0x52] END_LOAD_SCHEDULER: End scheduler "s169" with entities [EventEntity, EventEntity], work=388*
269: 0x07B9 [0x45] LOAD_SCHEDULED_TASK: Load scheduler "s087" with entities [EventEntity, EventEntity], work=[388*, 0*]
270: 0x07CA [0x2A] GET_REQ_LEVEL(level=16, entity_id=Odzmanouk (ID: 17142599/0x01059347))
271: 0x07D0 [0x27] REQ_SET(priority=0x10, entity_id=Nichais (ID: 17142600/0x01059348), tag_num=0x0D)
272: 0x07D7 [0x2A] GET_REQ_LEVEL(level=16, entity_id=Nichais (ID: 17142600/0x01059348))
273: 0x07DD [0x6B] STOP_AND_IDLE: Nichais (ID: 17142600/0x01059348) stops current action and resets to idle (animation="idl0")
274: 0x07E6 [0x1C] WAIT(35* ticks)
275: 0x07E9 [0x6E] Nichais (ID: 17142600/0x01059348) uses emote 0*
276: 0x07F0 [0x99] Wait for Nichais (ID: 17142600/0x01059348) animation to complete
277: 0x07F5 [0x2B] Nichais (ID: 17142600/0x01059348) [8035*]:
    → "It appeared to make landfall there, in the distance! Come, let us hurry!"
278: 0x07FC [0x23] WAIT_FOR_DIALOG_INTERACTION
279: 0x07FD [0x5D] SET_MUSIC_VOLUME(volume=0*, fade_time=140*)
280: 0x0802 [0x4A] LocalPlayer looks at Nichais (ID: 17142600/0x01059348)
281: 0x080B [0x6F] WAIT_FRAME_DELAY: Yield until WaitTime reaches zero
282: 0x080C [0x76] CHECK_ENTITY_RENDER_FLAGS: Wait until LocalPlayer Render.Flags0 and Render.Flags3 conditions are met
283: 0x0811 [0x6E] LocalPlayer uses emote 7*
284: 0x0818 [0x99] Wait for LocalPlayer animation to complete
285: 0x081D [0x5C] MUSIC_CONTROL: Set Idle (Day) music to song 123*
286: 0x0821 [0x5C] MUSIC_CONTROL: Set Idle (Night) music to song 123*
287: 0x0825 [0x9A] WAIT_MUSIC_SERVER()
288: 0x0826 [0x52] END_LOAD_SCHEDULER: End scheduler "s087" with entities [EventEntity, EventEntity], work=388*
289: 0x0835 [0x1A] CALL_SUBROUTINE(address=0x4E61)
290: 0x0838 [0x29] REQ_SET_WAIT(priority=0x10, entity_id=Odzmanouk (ID: 17142599/0x01059347), tag_num=0x06)
291: 0x083F [0x4E] SET_ENTITY_HIDE_FLAG: Hide Odzmanouk (ID: 17142599/0x01059347)
292: 0x0845 [0x59] UPDATE_ENTITY_DATA: LocalPlayer->Render.Flags0 &= ~0x200000
293: 0x084C [0xBA] SET_ENTITY_POSITION(entity_id=Nichais (ID: 17142600/0x01059348), pos_x=-446.209*, pos_z=219.165*, pos_y=-157.246*, direction=268.5°*)
294: 0x0859 [0xBA] SET_ENTITY_POSITION(entity_id=LocalPlayer, pos_x=-436.463*, pos_z=213.195*, pos_y=-154.745*, direction=268.5°*)
295: 0x0866 [0x80] LOAD_WAIT(entity=LocalPlayer)
296: 0x086B [0x80] LOAD_WAIT(entity=Nichais (ID: 17142600/0x01059348))
297: 0x0870 [0x27] REQ_SET(priority=0x10, entity_id=LocalPlayer, tag_num=0x40)
298: 0x0877 [0x45] LOAD_SCHEDULED_TASK: Load scheduler "s073" with entities [EventEntity, EventEntity], work=[388*, 0*]
299: 0x0888 [0x1A] CALL_SUBROUTINE(address=0x4EB5)
300: 0x088B [0x29] REQ_SET_WAIT(priority=0x10, entity_id=Nichais (ID: 17142600/0x01059348), tag_num=0x0C)
301: 0x0892 [0x1C] WAIT(15* ticks)
302: 0x0895 [0x4B] UPDATE_ENTITY_YAW(entity=Nichais (ID: 17142600/0x01059348), yaw=1.5°*)
303: 0x089C [0x6F] WAIT_FRAME_DELAY: Yield until WaitTime reaches zero
304: 0x089D [0x76] CHECK_ENTITY_RENDER_FLAGS: Wait until Nichais (ID: 17142600/0x01059348) Render.Flags0 and Render.Flags3 conditions are met
305: 0x08A2 [0x55] WAIT_LOAD_SCHEDULER: Wait for scheduler "s073" with entities [EventEntity, EventEntity], work=388*
306: 0x08B1 [0x45] LOAD_SCHEDULED_TASK: Load scheduler "s074" with entities [EventEntity, EventEntity], work=[388*, 0*]
307: 0x08C2 [0x55] WAIT_LOAD_SCHEDULER: Wait for scheduler "s074" with entities [EventEntity, EventEntity], work=388*
308: 0x08D1 [0x1A] CALL_SUBROUTINE(address=0x4E40)
309: 0x08D4 [0xBA] SET_ENTITY_POSITION(entity_id=LocalPlayer, pos_x=-493.243*, pos_z=241.248*, pos_y=-167.480*, direction=210.9°*)
310: 0x08E1 [0xBA] SET_ENTITY_POSITION(entity_id=Nichais (ID: 17142600/0x01059348), pos_x=-493.359*, pos_z=239.315*, pos_y=-167.468*, direction=210.9°*)
311: 0x08EE [0x80] LOAD_WAIT(entity=LocalPlayer)
312: 0x08F3 [0x80] LOAD_WAIT(entity=Nichais (ID: 17142600/0x01059348))
313: 0x08F8 [0x4B] UPDATE_ENTITY_YAW(entity=LocalPlayer, yaw=9.9°*)
314: 0x08FF [0x4B] UPDATE_ENTITY_YAW(entity=Nichais (ID: 17142600/0x01059348), yaw=16.1°*)
315: 0x0906 [0x6F] WAIT_FRAME_DELAY: Yield until WaitTime reaches zero
316: 0x0907 [0x76] CHECK_ENTITY_RENDER_FLAGS: Wait until LocalPlayer Render.Flags0 and Render.Flags3 conditions are met
317: 0x090C [0x6F] WAIT_FRAME_DELAY: Yield until WaitTime reaches zero
318: 0x090D [0x76] CHECK_ENTITY_RENDER_FLAGS: Wait until Nichais (ID: 17142600/0x01059348) Render.Flags0 and Render.Flags3 conditions are met
319: 0x0912 [0xBA] SET_ENTITY_POSITION(entity_id=Unnamed NPC (ID: 17142596/0x01059344), pos_x=-524.351*, pos_z=227.926*, pos_y=-200.097*, direction=263.7°*)
320: 0x091F [0x80] LOAD_WAIT(entity=Unnamed NPC (ID: 17142596/0x01059344))
321: 0x0924 [0x45] LOAD_SCHEDULED_TASK: Load scheduler "s075" with entities [EventEntity, EventEntity], work=[388*, 0*]
322: 0x0935 [0x1A] CALL_SUBROUTINE(address=0x4EA3)
323: 0x0938 [0x1C] WAIT(60* ticks)
324: 0x093B [0x4A] Nichais (ID: 17142600/0x01059348) looks at Zharijarl (ID: 17142601/0x01059349)
325: 0x0944 [0x6F] WAIT_FRAME_DELAY: Yield until WaitTime reaches zero
326: 0x0945 [0x76] CHECK_ENTITY_RENDER_FLAGS: Wait until Nichais (ID: 17142600/0x01059348) Render.Flags0 and Render.Flags3 conditions are met
327: 0x094A [0x1C] WAIT(30* ticks)
328: 0x094D [0x6E] Nichais (ID: 17142600/0x01059348) uses emote 0*
329: 0x0954 [0x99] Wait for Nichais (ID: 17142600/0x01059348) animation to complete
330: 0x0959 [0x99] Wait for Nichais (ID: 17142600/0x01059348) animation to complete
331: 0x095E [0x1C] WAIT(30* ticks)
332: 0x0961 [0x79] Nichais (ID: 17142600/0x01059348) looks at Unnamed NPC (ID: 17142596/0x01059344) (Basic look)
333: 0x096B [0x55] WAIT_LOAD_SCHEDULER: Wait for scheduler "s075" with entities [EventEntity, EventEntity], work=388*
334: 0x097A [0x45] LOAD_SCHEDULED_TASK: Load scheduler "s076" with entities [EventEntity, EventEntity], work=[388*, 0*]
335: 0x098B [0x55] WAIT_LOAD_SCHEDULER: Wait for scheduler "s076" with entities [EventEntity, EventEntity], work=388*
336: 0x099A [0x45] LOAD_SCHEDULED_TASK: Load scheduler "s071" with entities [EventEntity, EventEntity], work=[388*, 0*]
337: 0x09AB [0x2B] Zharijarl (ID: 17142601/0x01059349) [8036*]:
    → "Even now, Goddess, your followers continue to swell in number, approaching legions. The East beckons you home, now more than ever. They keep to the old ways, and pray fervently for the day when Areuhat, the Eastdrake, will once again return to them."
338: 0x09B2 [0x23] WAIT_FOR_DIALOG_INTERACTION
339: 0x09B3 [0x2B] Zharijarl (ID: 17142601/0x01059349) [8037*]:
    → "With your blessing, we will find the most majestic of locations for your new aery. We shall defend it restlessly with the finest of our guard. My Goddess will know a deep sleep such as none has ever known. You shall experience comforts to humble the greatest of kings. And the bards will sing your glories for as long as the musics are made."
340: 0x09BA [0x23] WAIT_FOR_DIALOG_INTERACTION
341: 0x09BB [0x52] END_LOAD_SCHEDULER: End scheduler "s071" with entities [EventEntity, EventEntity], work=388*
342: 0x09CA [0x45] LOAD_SCHEDULED_TASK: Load scheduler "s088" with entities [EventEntity, EventEntity], work=[388*, 0*]
343: 0x09DB [0x2B] Areuhat (ID: 17142598/0x01059346) [8038*]:
    → "You juggle your words well, Zharijarl, and promise a great deal. Still, your efforts do not go unnoticed. I am not altogether displeased."
344: 0x09E2 [0x23] WAIT_FOR_DIALOG_INTERACTION
345: 0x09E3 [0x55] WAIT_LOAD_SCHEDULER: Wait for scheduler "s088" with entities [EventEntity, EventEntity], work=388*
346: 0x09F2 [0x45] LOAD_SCHEDULED_TASK: Load scheduler "s089" with entities [EventEntity, EventEntity], work=[388*, 0*]
347: 0x0A03 [0x2B] Zharijarl (ID: 17142601/0x01059349) [8039*]:
    → "That is not all, Goddess. We come bearing gifts. Humble tokens of our undying fealty and love. Please, do us the honor of accepting them."
348: 0x0A0A [0x23] WAIT_FOR_DIALOG_INTERACTION
349: 0x0A0B [0x5B] LOAD_EXT_SCHEDULER: Load scheduler "sha1" with entities [Zharijarl (ID: 17142601/0x01059349), Zharijarl (ID: 17142601/0x01059349)], work=838*
350: 0x0A1A [0x53] WAIT_SCHEDULER_TASK: Wait for scheduler "sha1" with entities [Zharijarl (ID: 17142601/0x01059349), Zharijarl (ID: 17142601/0x01059349)]
351: 0x0A27 [0x27] REQ_SET(priority=0x10, entity_id=Zharijarl (ID: 17142601/0x01059349), tag_num=0x04)
352: 0x0A2E [0x1C] WAIT(30* ticks)
353: 0x0A31 [0x52] END_LOAD_SCHEDULER: End scheduler "s089" with entities [EventEntity, EventEntity], work=388*
354: 0x0A40 [0x45] LOAD_SCHEDULED_TASK: Load scheduler "s100" with entities [EventEntity, EventEntity], work=[388*, 0*]
355: 0x0A51 [0x2A] GET_REQ_LEVEL(level=16, entity_id=Zharijarl (ID: 17142601/0x01059349))
356: 0x0A57 [0x5B] LOAD_EXT_SCHEDULER: Load scheduler "aka0" with entities [Zharijarl (ID: 17142601/0x01059349), Zharijarl (ID: 17142601/0x01059349)], work=838*
357: 0x0A66 [0x53] WAIT_SCHEDULER_TASK: Wait for scheduler "aka0" with entities [Zharijarl (ID: 17142601/0x01059349), Zharijarl (ID: 17142601/0x01059349)]
358: 0x0A73 [0x55] WAIT_LOAD_SCHEDULER: Wait for scheduler "s100" with entities [EventEntity, EventEntity], work=388*
359: 0x0A82 [0x45] LOAD_SCHEDULED_TASK: Load scheduler "s090" with entities [EventEntity, EventEntity], work=[388*, 0*]
360: 0x0A93 [0x4B] UPDATE_ENTITY_YAW(entity=Areuhat (ID: 17142598/0x01059346), yaw=4.8°*)
361: 0x0A9A [0x2B] Areuhat (ID: 17142598/0x01059346) [8040*]:
    → "Very well. What have you, then?"
362: 0x0AA1 [0x23] WAIT_FOR_DIALOG_INTERACTION
363: 0x0AA2 [0x6F] WAIT_FRAME_DELAY: Yield until WaitTime reaches zero
364: 0x0AA3 [0x76] CHECK_ENTITY_RENDER_FLAGS: Wait until Areuhat (ID: 17142598/0x01059346) Render.Flags0 and Render.Flags3 conditions are met
365: 0x0AA8 [0x6E] Areuhat (ID: 17142598/0x01059346) uses emote 10*
366: 0x0AAF [0x99] Wait for Areuhat (ID: 17142598/0x01059346) animation to complete
367: 0x0AB4 [0x2B] Areuhat (ID: 17142598/0x01059346) [8041*]:
    → "A sash of godsweave! I was not aware that any silkworkers capable of producing it still survived. This certainly does much to stir my longing for my native lands. Much indeed..."
368: 0x0ABB [0x23] WAIT_FOR_DIALOG_INTERACTION
369: 0x0ABC [0x99] Wait for Areuhat (ID: 17142598/0x01059346) animation to complete
370: 0x0AC1 [0x52] END_LOAD_SCHEDULER: End scheduler "s090" with entities [EventEntity, EventEntity], work=388*
371: 0x0AD0 [0x45] LOAD_SCHEDULED_TASK: Load scheduler "s091" with entities [EventEntity, EventEntity], work=[388*, 0*]
372: 0x0AE1 [0xBA] SET_ENTITY_POSITION(entity_id=Unnamed NPC (ID: 17142596/0x01059344), pos_x=-524.351*, pos_z=227.926*, pos_y=-200.097*, direction=263.7°*)
373: 0x0AEE [0x80] LOAD_WAIT(entity=Unnamed NPC (ID: 17142596/0x01059344))
374: 0x0AF3 [0x2B] Areuhat (ID: 17142598/0x01059346) [8042*]:
    → "I confess, I arrived here long ago to find a sacred mountain welcoming in its majesty and shrouded in a primeval silence. As ideal a place to nest as any I had ever seen. Sadly, those days are gone...lost, I fear. Now the beastmen run rampant, unchecked as they bring their filth and clamor to all corners of this land."
375: 0x0AFA [0x23] WAIT_FOR_DIALOG_INTERACTION
376: 0x0AFB [0x52] END_LOAD_SCHEDULER: End scheduler "s091" with entities [EventEntity, EventEntity], work=388*
377: 0x0B0A [0x45] LOAD_SCHEDULED_TASK: Load scheduler "s093" with entities [EventEntity, EventEntity], work=[388*, 0*]
378: 0x0B1B [0x6E] Areuhat (ID: 17142598/0x01059346) uses emote 6*
379: 0x0B22 [0x99] Wait for Areuhat (ID: 17142598/0x01059346) animation to complete
380: 0x0B27 [0x2B] Areuhat (ID: 17142598/0x01059346) [8043*]:
    → "I was stirred from my ancient slumber to find the noble ones I knew long dead and buried. Their words and empty oaths fell to time's march, as did they. And so their lines have not kept to the vow that was sworn between us."
381: 0x0B2E [0x23] WAIT_FOR_DIALOG_INTERACTION
382: 0x0B2F [0x99] Wait for Areuhat (ID: 17142598/0x01059346) animation to complete
383: 0x0B34 [0x7B] Areuhat (ID: 17142598/0x01059346) stops talking
384: 0x0B39 [0x2B] Areuhat (ID: 17142598/0x01059346) [8044*]:
    → "It was not without reason that I chose to take wing and cross the oceans. But if it is as you say, if there are still those in the east who would see my return... I suppose a homecoming might not be totally without warrant."
385: 0x0B40 [0x23] WAIT_FOR_DIALOG_INTERACTION
386: 0x0B41 [0x52] END_LOAD_SCHEDULER: End scheduler "s093" with entities [EventEntity, EventEntity], work=388*
387: 0x0B50 [0x45] LOAD_SCHEDULED_TASK: Load scheduler "ovl1" with entities [EventEntity, EventEntity], work=[200*, 0*]
388: 0x0B61 [0x45] LOAD_SCHEDULED_TASK: Load scheduler "s092" with entities [EventEntity, EventEntity], work=[388*, 0*]
389: 0x0B72 [0x5B] LOAD_EXT_SCHEDULER: Load scheduler "aka1" with entities [Zharijarl (ID: 17142601/0x01059349), Zharijarl (ID: 17142601/0x01059349)], work=838*
390: 0x0B81 [0x53] WAIT_SCHEDULER_TASK: Wait for scheduler "aka1" with entities [Zharijarl (ID: 17142601/0x01059349), Zharijarl (ID: 17142601/0x01059349)]
391: 0x0B8E [0x1C] WAIT(30* ticks)
392: 0x0B91 [0x5B] LOAD_EXT_SCHEDULER: Load scheduler "aka1" with entities [Emissary01 (ID: 17142602/0x0105934A), Emissary01 (ID: 17142602/0x0105934A)], work=838*
393: 0x0BA0 [0x1C] WAIT(15* ticks)
394: 0x0BA3 [0x5B] LOAD_EXT_SCHEDULER: Load scheduler "aka1" with entities [Emissary02 (ID: 17142603/0x0105934B), Emissary02 (ID: 17142603/0x0105934B)], work=838*
395: 0x0BB2 [0x53] WAIT_SCHEDULER_TASK: Wait for scheduler "aka1" with entities [Emissary01 (ID: 17142602/0x0105934A), Emissary01 (ID: 17142602/0x0105934A)]
396: 0x0BBF [0x53] WAIT_SCHEDULER_TASK: Wait for scheduler "aka1" with entities [Emissary02 (ID: 17142603/0x0105934B), Emissary02 (ID: 17142603/0x0105934B)]
397: 0x0BCC [0x1C] WAIT(15* ticks)
398: 0x0BCF [0x5B] LOAD_EXT_SCHEDULER: Load scheduler "sha0" with entities [Zharijarl (ID: 17142601/0x01059349), Zharijarl (ID: 17142601/0x01059349)], work=838*
399: 0x0BDE [0x1C] WAIT(15* ticks)
400: 0x0BE1 [0x5B] LOAD_EXT_SCHEDULER: Load scheduler "aka0" with entities [Emissary01 (ID: 17142602/0x0105934A), Emissary01 (ID: 17142602/0x0105934A)], work=838*
401: 0x0BF0 [0x1C] WAIT(7* ticks)
402: 0x0BF3 [0x5B] LOAD_EXT_SCHEDULER: Load scheduler "aka0" with entities [Emissary02 (ID: 17142603/0x0105934B), Emissary02 (ID: 17142603/0x0105934B)], work=838*
403: 0x0C02 [0x2B] Zharijarl (ID: 17142601/0x01059349) [8045*]:
    → "Your words bring us immeasurable happiness, Goddess. I shall continue to pray for the day when the Eastdrake takes flight from the west."
404: 0x0C09 [0x23] WAIT_FOR_DIALOG_INTERACTION
405: 0x0C0A [0x53] WAIT_SCHEDULER_TASK: Wait for scheduler "sha0" with entities [Zharijarl (ID: 17142601/0x01059349), Zharijarl (ID: 17142601/0x01059349)]
406: 0x0C17 [0x53] WAIT_SCHEDULER_TASK: Wait for scheduler "aka0" with entities [Emissary01 (ID: 17142602/0x0105934A), Emissary01 (ID: 17142602/0x0105934A)]
407: 0x0C24 [0x53] WAIT_SCHEDULER_TASK: Wait for scheduler "aka0" with entities [Emissary02 (ID: 17142603/0x0105934B), Emissary02 (ID: 17142603/0x0105934B)]
408: 0x0C31 [0x52] END_LOAD_SCHEDULER: End scheduler "s092" with entities [EventEntity, EventEntity], work=388*
409: 0x0C40 [0x45] LOAD_SCHEDULED_TASK: Load scheduler "s102" with entities [EventEntity, EventEntity], work=[388*, 0*]
410: 0x0C51 [0x6A] CHANGE_SOUND_VOLUME: Set (Effects/Zone)* volume to 999*, fade_time=1*
411: 0x0C58 [0x5B] LOAD_EXT_SCHEDULER: Load scheduler "ryu0" with entities [Areuhat (ID: 17142598/0x01059346), Areuhat (ID: 17142598/0x01059346)], work=1370*
412: 0x0C67 [0xBB] LOAD_EVENT_SCHEDULER_ALT: Load scheduler "st01" with entities [Areuhat (ID: 17142598/0x01059346), Areuhat (ID: 17142598/0x01059346)], work=[230*, 0*]
413: 0x0C78 [0x5D] SET_MUSIC_VOLUME(volume=0*, fade_time=240*)
414: 0x0C7D [0x1C] WAIT(150* ticks)
415: 0x0C80 [0x45] LOAD_SCHEDULED_TASK: Load scheduler "0ar1" with entities [EventEntity, EventEntity], work=[388*, 0*]
416: 0x0C91 [0x1C] WAIT(350* ticks)
417: 0x0C94 [0x52] END_LOAD_SCHEDULER: End scheduler "s102" with entities [EventEntity, EventEntity], work=388*
418: 0x0CA3 [0x45] LOAD_SCHEDULED_TASK: Load scheduler "s173" with entities [EventEntity, EventEntity], work=[388*, 0*]
419: 0x0CB4 [0x53] WAIT_SCHEDULER_TASK: Wait for scheduler "ryu0" with entities [Areuhat (ID: 17142598/0x01059346), Areuhat (ID: 17142598/0x01059346)]
420: 0x0CC1 [0x6C] FADE_ENTITY_COLOR(entity_id=Areuhat (ID: 17142598/0x01059346), end_alpha=0*, fade_time=40*)
421: 0x0CCA [0x1C] WAIT(180* ticks)
422: 0x0CCD [0x5B] LOAD_EXT_SCHEDULER: Load scheduler "sha1" with entities [Zharijarl (ID: 17142601/0x01059349), Zharijarl (ID: 17142601/0x01059349)], work=838*
423: 0x0CDC [0x53] WAIT_SCHEDULER_TASK: Wait for scheduler "sha1" with entities [Zharijarl (ID: 17142601/0x01059349), Zharijarl (ID: 17142601/0x01059349)]
424: 0x0CE9 [0x4B] UPDATE_ENTITY_YAW(entity=Zharijarl (ID: 17142601/0x01059349), yaw=3.8°*)
425: 0x0CF0 [0x6F] WAIT_FRAME_DELAY: Yield until WaitTime reaches zero
426: 0x0CF1 [0x76] CHECK_ENTITY_RENDER_FLAGS: Wait until Zharijarl (ID: 17142601/0x01059349) Render.Flags0 and Render.Flags3 conditions are met
427: 0x0CF6 [0x27] REQ_SET(priority=0x10, entity_id=Zharijarl (ID: 17142601/0x01059349), tag_num=0x05)
428: 0x0CFD [0x1C] WAIT(15* ticks)
429: 0x0D00 [0x5B] LOAD_EXT_SCHEDULER: Load scheduler "aka1" with entities [Emissary01 (ID: 17142602/0x0105934A), Emissary01 (ID: 17142602/0x0105934A)], work=838*
430: 0x0D0F [0x1C] WAIT(15* ticks)
431: 0x0D12 [0x5B] LOAD_EXT_SCHEDULER: Load scheduler "aka1" with entities [Emissary02 (ID: 17142603/0x0105934B), Emissary02 (ID: 17142603/0x0105934B)], work=838*
432: 0x0D21 [0x1C] WAIT(80* ticks)
433: 0x0D24 [0x27] REQ_SET(priority=0x10, entity_id=Emissary01 (ID: 17142602/0x0105934A), tag_num=0x04)
434: 0x0D2B [0x1C] WAIT(15* ticks)
435: 0x0D2E [0x27] REQ_SET(priority=0x10, entity_id=Emissary02 (ID: 17142603/0x0105934B), tag_num=0x04)
436: 0x0D35 [0x1C] WAIT(45* ticks)
437: 0x0D38 [0x52] END_LOAD_SCHEDULER: End scheduler "s173" with entities [EventEntity, EventEntity], work=388*
438: 0x0D47 [0x45] LOAD_SCHEDULED_TASK: Load scheduler "s095" with entities [EventEntity, EventEntity], work=[388*, 0*]
439: 0x0D58 [0x6A] CHANGE_SOUND_VOLUME: Set (Effects/Zone)* volume to 300*, fade_time=1*
440: 0x0D5F [0x7B] Nichais (ID: 17142600/0x01059348) stops talking
441: 0x0D64 [0x5C] MUSIC_CONTROL: Set Idle (Day) music to song 253*
442: 0x0D68 [0x5C] MUSIC_CONTROL: Set Idle (Night) music to song 253*
443: 0x0D6C [0x9A] WAIT_MUSIC_SERVER()
444: 0x0D6D [0x1C] WAIT(30* ticks)
445: 0x0D70 [0x27] REQ_SET(priority=0x10, entity_id=Nichais (ID: 17142600/0x01059348), tag_num=0x0E)
446: 0x0D77 [0x1C] WAIT(60* ticks)
447: 0x0D7A [0x52] END_LOAD_SCHEDULER: End scheduler "s095" with entities [EventEntity, EventEntity], work=388*
448: 0x0D89 [0x45] LOAD_SCHEDULED_TASK: Load scheduler "s097" with entities [EventEntity, EventEntity], work=[388*, 0*]
449: 0x0D9A [0x27] REQ_SET(priority=0x10, entity_id=LocalPlayer, tag_num=0x41)
450: 0x0DA1 [0x1C] WAIT(30* ticks)
451: 0x0DA4 [0x2A] GET_REQ_LEVEL(level=16, entity_id=Nichais (ID: 17142600/0x01059348))
452: 0x0DAA [0x6B] STOP_AND_IDLE: Nichais (ID: 17142600/0x01059348) stops current action and resets to idle (animation="idl0")
453: 0x0DB3 [0x2B] Nichais (ID: 17142600/0x01059348) [8046*]:
    → "That man... Did you hear, <Player>? He addressed that young lady as "Areuhat." A mere maiden... Do you think that could have been the wyrm's mortal form, as the legends tell us?"
454: 0x0DBA [0x23] WAIT_FOR_DIALOG_INTERACTION
455: 0x0DBB [0x52] END_LOAD_SCHEDULER: End scheduler "s097" with entities [EventEntity, EventEntity], work=388*
456: 0x0DCA [0x45] LOAD_SCHEDULED_TASK: Load scheduler "s098" with entities [EventEntity, EventEntity], work=[388*, 0*]
457: 0x0DDB [0x66] LOAD_EXT_SCHEDULER_MAIN: Load scheduler "thk1" with entities [Nichais (ID: 17142600/0x01059348), Nichais (ID: 17142600/0x01059348)], work=29*
458: 0x0DEA [0x53] WAIT_SCHEDULER_TASK: Wait for scheduler "thk1" with entities [Nichais (ID: 17142600/0x01059348), Nichais (ID: 17142600/0x01059348)]
459: 0x0DF7 [0x7C] Nichais (ID: 17142600/0x01059348)->Render.Flags2 |= 0x00
460: 0x0DFD [0x2B] Nichais (ID: 17142600/0x01059348) [8047*]:
    → "(It couldn't possibly be... But surely this is no mere coincidence! It is exactly as the litera--)"
461: 0x0E04 [0x23] WAIT_FOR_DIALOG_INTERACTION
462: 0x0E05 [0x2A] GET_REQ_LEVEL(level=16, entity_id=LocalPlayer)
463: 0x0E0B [0x4A] LocalPlayer looks at Nichais (ID: 17142600/0x01059348)
464: 0x0E14 [0x6F] WAIT_FRAME_DELAY: Yield until WaitTime reaches zero
465: 0x0E15 [0x76] CHECK_ENTITY_RENDER_FLAGS: Wait until LocalPlayer Render.Flags0 and Render.Flags3 conditions are met
466: 0x0E1A [0x2B] Nichais (ID: 17142600/0x01059348) [8048*]:
    → "(Of course, the literature! I must return to the capital at once!)"
467: 0x0E21 [0x23] WAIT_FOR_DIALOG_INTERACTION
468: 0x0E22 [0x7C] Nichais (ID: 17142600/0x01059348)->Render.Flags2 |= 0x01
469: 0x0E28 [0x1C] WAIT(60* ticks)
470: 0x0E2B [0x52] END_LOAD_SCHEDULER: End scheduler "s098" with entities [EventEntity, EventEntity], work=388*
471: 0x0E3A [0x1A] CALL_SUBROUTINE(address=0x4E61)
472: 0x0E3D [0xBA] SET_ENTITY_POSITION(entity_id=Nichais (ID: 17142600/0x01059348), pos_x=-151.375*, pos_z=-333.141*, pos_y=-25.068*, direction=10.5°*)
473: 0x0E4A [0xBA] SET_ENTITY_POSITION(entity_id=LocalPlayer, pos_x=-156.559*, pos_z=-335.301*, pos_y=-24.338*, direction=10.5°*)
474: 0x0E57 [0x80] LOAD_WAIT(entity=Nichais (ID: 17142600/0x01059348))
475: 0x0E5C [0x80] LOAD_WAIT(entity=LocalPlayer)
476: 0x0E61 [0x6B] STOP_AND_IDLE: Nichais (ID: 17142600/0x01059348) stops current action and resets to idle (animation="idl0")
477: 0x0E6A [0x29] REQ_SET_WAIT(priority=0x10, entity_id=Small Box (ID: 17142604/0x0105934C), tag_num=0x04)
478: 0x0E71 [0x7A] VM_CONTROL: Reset VM for Zharijarl (ID: 17142601/0x01059349)
479: 0x0E77 [0x7A] VM_CONTROL: Reset VM for Emissary01 (ID: 17142602/0x0105934A)
480: 0x0E7D [0x7A] VM_CONTROL: Reset VM for Emissary02 (ID: 17142603/0x0105934B)
481: 0x0E83 [0x1C] WAIT(60* ticks)
482: 0x0E86 [0xBB] LOAD_EVENT_SCHEDULER_ALT: Load scheduler "a128" with entities [Areuhat (ID: 17142598/0x01059346), Areuhat (ID: 17142598/0x01059346)], work=[230*, 0*]
483: 0x0E97 [0x29] REQ_SET_WAIT(priority=0x10, entity_id=Odzmanouk (ID: 17142599/0x01059347), tag_num=0x04)
484: 0x0E9E [0x45] LOAD_SCHEDULED_TASK: Load scheduler "s101" with entities [EventEntity, EventEntity], work=[388*, 0*]
485: 0x0EAF [0x1A] CALL_SUBROUTINE(address=0x4EB5)
486: 0x0EB2 [0x1C] WAIT(100* ticks)
487: 0x0EB5 [0x27] REQ_SET(priority=0x10, entity_id=Nichais (ID: 17142600/0x01059348), tag_num=0x0F)
488: 0x0EBC [0x27] REQ_SET(priority=0x10, entity_id=LocalPlayer, tag_num=0x42)
489: 0x0EC3 [0x1C] WAIT(220* ticks)
490: 0x0EC6 [0x55] WAIT_LOAD_SCHEDULER: Wait for scheduler "s101" with entities [EventEntity, EventEntity], work=388*
491: 0x0ED5 [0x45] LOAD_SCHEDULED_TASK: Load scheduler "s099" with entities [EventEntity, EventEntity], work=[388*, 0*]
492: 0x0EE6 [0x2A] GET_REQ_LEVEL(level=16, entity_id=Nichais (ID: 17142600/0x01059348))
493: 0x0EEC [0x6B] STOP_AND_IDLE: Nichais (ID: 17142600/0x01059348) stops current action and resets to idle (animation="idl0")
494: 0x0EF5 [0x1C] WAIT(35* ticks)
495: 0x0EF8 [0x2A] GET_REQ_LEVEL(level=16, entity_id=LocalPlayer)
496: 0x0EFE [0x1C] WAIT(25* ticks)
497: 0x0F01 [0x66] LOAD_EXT_SCHEDULER_MAIN: Load scheduler "thk1" with entities [Nichais (ID: 17142600/0x01059348), Nichais (ID: 17142600/0x01059348)], work=29*
498: 0x0F10 [0x53] WAIT_SCHEDULER_TASK: Wait for scheduler "thk1" with entities [Nichais (ID: 17142600/0x01059348), Nichais (ID: 17142600/0x01059348)]
499: 0x0F1D [0x1C] WAIT(75* ticks)
500: 0x0F20 [0x6B] STOP_AND_IDLE: Nichais (ID: 17142600/0x01059348) stops current action and resets to idle (animation="idl0")
501: 0x0F29 [0x4B] UPDATE_ENTITY_YAW(entity=Nichais (ID: 17142600/0x01059348), yaw=11.9°*)
502: 0x0F30 [0x1C] WAIT(60* ticks)
503: 0x0F33 [0x4A] LocalPlayer looks at Nichais (ID: 17142600/0x01059348)
504: 0x0F3C [0x6F] WAIT_FRAME_DELAY: Yield until WaitTime reaches zero
505: 0x0F3D [0x76] CHECK_ENTITY_RENDER_FLAGS: Wait until LocalPlayer Render.Flags0 and Render.Flags3 conditions are met
506: 0x0F42 [0x1C] WAIT(60* ticks)
507: 0x0F45 [0x66] LOAD_EXT_SCHEDULER_MAIN: Load scheduler "tlk0" with entities [Nichais (ID: 17142600/0x01059348), Nichais (ID: 17142600/0x01059348)], work=29*
508: 0x0F54 [0x2B] Nichais (ID: 17142600/0x01059348) [8049*]:
    → "<Player>, please forgive me. I shall indulge you all the details you wish, only later! For now, I fear I must say goodbye!"
509: 0x0F5B [0x23] WAIT_FOR_DIALOG_INTERACTION
510: 0x0F5C [0x53] WAIT_SCHEDULER_TASK: Wait for scheduler "tlk0" with entities [Nichais (ID: 17142600/0x01059348), Nichais (ID: 17142600/0x01059348)]
511: 0x0F69 [0x1C] WAIT(45* ticks)
512: 0x0F6C [0x6E] Nichais (ID: 17142600/0x01059348) uses emote 1*
513: 0x0F73 [0x99] Wait for Nichais (ID: 17142600/0x01059348) animation to complete
514: 0x0F78 [0x99] Wait for Nichais (ID: 17142600/0x01059348) animation to complete
515: 0x0F7D [0x1C] WAIT(75* ticks)
516: 0x0F80 [0x5D] SET_MUSIC_VOLUME(volume=0*, fade_time=150*)
517: 0x0F85 [0x1C] WAIT(75* ticks)
518: 0x0F88 [0x27] REQ_SET(priority=0x10, entity_id=Nichais (ID: 17142600/0x01059348), tag_num=0x10)
519: 0x0F8F [0x1C] WAIT(75* ticks)
520: 0x0F92 [0x52] END_LOAD_SCHEDULER: End scheduler "s099" with entities [EventEntity, EventEntity], work=388*
521: 0x0FA1 [0x1A] CALL_SUBROUTINE(address=0x4E82)
522: 0x0FA4 [0x6A] CHANGE_SOUND_VOLUME: Set (Effects/System/Zone)* volume to 999*, fade_time=60*
523: 0x0FAB [0x7A] VM_CONTROL: Reset VM for Nichais (ID: 17142600/0x01059348)
524: 0x0FB1 [0x46] CAMERA_CONTROL: Restore default settings
525: 0x0FB3 [0x1A] CALL_SUBROUTINE(address=0x4EC7)
526: 0x0FB6 [0x21] END_EVENT
527: 0x0FB7 [0x00] END_REQSTACK()
```

### Event 18

#### Metadata

| Field        | Value       |
|--------------|-------------|
| Entrypoint   | 0x0FB8      |
| Data Size    | 16194 bytes |
| Instructions | 2017        |

```
      00 01 02 03 04 05 06 07  08 09 0A 0B 0C 0D 0E 0F
      -- -- -- -- -- -- -- --  -- -- -- -- -- -- -- --
0FB0:                          42 6A 00 80 01 80 02 80          Bj......
0FC0: 1A 82 4E 46 01 38 03 80  2F 00 48 93 05 01 29 10  ..NF.8../.H...).
0FD0: 48 93 05 01 03 2F 00 46  93 05 01 29 10 46 93 05  H..../.F...).F..
0FE0: 01 05 2F 00 49 93 05 01  29 10 49 93 05 01 03 2F  ../.I...).I..../
0FF0: 00 4A 93 05 01 29 10 4A  93 05 01 03 2F 00 4B 93  .J...).J..../.K.
1000: 05 01 29 10 4B 93 05 01  03 1C 04 80 2F 00 44 93  ..).K......./.D.
1010: 05 01 4E 00 48 93 05 01  4E 00 46 93 05 01 4E 00  ..N.H...N.F...N.
1020: 49 93 05 01 4E 00 4A 93  05 01 4E 00 4B 93 05 01  I...N.J...N.K...
1030: 4E 00 44 93 05 01 92 01  48 93 05 01 92 01 46 93  N.D.....H.....F.
1040: 05 01 92 01 49 93 05 01  92 01 4A 93 05 01 92 01  ....I.....J.....
1050: 4B 93 05 01 92 01 44 93  05 01 94 01 48 93 05 01  K.....D.....H...
1060: 94 01 46 93 05 01 94 01  49 93 05 01 94 01 4A 93  ..F.....I.....J.
1070: 05 01 94 01 4B 93 05 01  94 01 F0 FF FF 7F 94 01  ....K...........
1080: 44 93 05 01 BA 46 93 05  01 9B 80 9C 80 9D 80 14  D....F..........
1090: 80 BA F0 FF FF 7F 9E 80  9F 80 A0 80 A1 80 BA 48  ...............H
10A0: 93 05 01 A2 80 A3 80 A4  80 0C 80 BA 49 93 05 01  ............I...
10B0: A5 80 A6 80 A7 80 8A 80  BA 4A 93 05 01 A8 80 A9  .........J......
10C0: 80 A7 80 14 80 BA 4B 93  05 01 AA 80 AB 80 A7 80  ......K.........
10D0: 14 80 BA 44 93 05 01 1F  80 20 80 21 80 22 80 80  ...D..... .!."..
10E0: 48 93 05 01 80 46 93 05  01 80 49 93 05 01 80 4A  H....F....I....J
10F0: 93 05 01 80 4B 93 05 01  80 44 93 05 01 80 F0 FF  ....K....D......
1100: FF 7F 1C 04 80 2F 00 52  93 05 01 29 10 52 93 05  ...../.R...).R..
1110: 01 02 4E 00 52 93 05 01  BA 52 93 05 01 AC 80 AD  ..N.R....R......
1120: 80 AE 80 26 80 94 01 52  93 05 01 92 01 52 93 05  ...&...R.....R..
1130: 01 2F 00 53 93 05 01 29  10 53 93 05 01 02 4E 00  ./.S...).S....N.
1140: 53 93 05 01 BA 53 93 05  01 AF 80 B0 80 B1 80 B2  S....S..........
1150: 80 94 01 53 93 05 01 92  01 53 93 05 01 2F 00 54  ...S.....S.../.T
1160: 93 05 01 29 10 54 93 05  01 02 4E 00 54 93 05 01  ...).T....N.T...
1170: BA 54 93 05 01 B3 80 B4  80 B5 80 B6 80 94 01 54  .T.............T
1180: 93 05 01 92 01 54 93 05  01 2F 00 55 93 05 01 29  .....T.../.U...)
1190: 10 55 93 05 01 02 4E 00  55 93 05 01 BA 55 93 05  .U....N.U....U..
11A0: 01 B7 80 B8 80 B9 80 BA  80 94 01 55 93 05 01 92  ...........U....
11B0: 01 55 93 05 01 1C 04 80  80 52 93 05 01 80 53 93  .U.......R....S.
11C0: 05 01 80 54 93 05 01 80  55 93 05 01 5C 00 2A 80  ...T....U...\.*.
11D0: 5C 01 2A 80 9A 27 10 48  93 05 01 11 1C 2E 80 45  \.*..'.H.......E
11E0: 2B 80 F8 FF FF 7F F8 FF  FF 7F 73 31 30 33 29 80  +.........s103).
11F0: 1A C7 4E 2A 10 48 93 05  01 4A F0 FF FF 7F 48 93  ..N*.H...J....H.
1200: 05 01 6F 76 F0 FF FF 7F  2B 48 93 05 01 BB 80 23  ..ov....+H.....#
1210: 27 10 48 93 05 01 12 52  2B 80 F8 FF FF 7F F8 FF  '.H....R+.......
1220: FF 7F 73 31 30 33 45 2B  80 F8 FF FF 7F F8 FF FF  ..s103E+........
1230: 7F 73 31 31 37 29 80 2A  10 48 93 05 01 4B 48 93  .s117).*.H...KH.
1240: 05 01 BC 80 6F 76 48 93  05 01 66 2F 80 48 93 05  ....ovH...f/.H..
1250: 01 48 93 05 01 74 77 61  30 2B 48 93 05 01 BD 80  .H...twa0+H.....
1260: 23 53 48 93 05 01 48 93  05 01 74 77 61 30 52 2B  #SH...H...twa0R+
1270: 80 F8 FF FF 7F F8 FF FF  7F 73 31 31 37 45 2B 80  .........s117E+.
1280: F8 FF FF 7F F8 FF FF 7F  73 31 31 38 29 80 2B 48  ........s118).+H
1290: 93 05 01 BE 80 23 6B 69  64 6C 30 48 93 05 01 2B  .....#kidl0H...+
12A0: 48 93 05 01 BF 80 23 1C  2E 80 6E 48 93 05 01 29  H.....#...nH...)
12B0: 80 99 48 93 05 01 99 48  93 05 01 1C 3F 80 6E F0  ..H....H....?.n.
12C0: FF FF 7F 65 80 99 F0 FF  FF 7F 99 F0 FF FF 7F 1C  ...e............
12D0: 3F 80 52 2B 80 F8 FF FF  7F F8 FF FF 7F 73 31 31  ?.R+.........s11
12E0: 38 45 2B 80 F8 FF FF 7F  F8 FF FF 7F 73 31 31 39  8E+.........s119
12F0: 29 80 4B 48 93 05 01 2E  80 03 02 10 C0 80 6F 76  ).KH..........ov
1300: 48 93 05 01 66 2F 80 48  93 05 01 48 93 05 01 74  H...f/.H...H...t
1310: 68 6B 31 2B 48 93 05 01  C1 80 23 1C 01 80 6B 69  hk1+H.....#...ki
