# 17142568

## Common Data

| Field            | Value                 |
|------------------|-----------------------|
| Zone             | Grauberg [S] (ID: 89) |
| Block Size       | 436 bytes             |
| Total Events     | 10                    |
| References Count | 27                    |

## List of Events

| Event ID                 | Entrypoint   |   Size |   Instructions |
|--------------------------|--------------|--------|----------------|
| [65535](#event-65535)    | 0x0000       |      1 |              1 |
| [12](#event-12)          | 0x0001       |      1 |              1 |
| [65535.1](#event-655351) | 0x0002       |     15 |              5 |
| [19](#event-19)          | 0x0011       |     35 |              5 |
| [65535.2](#event-655352) | 0x0034       |     22 |              6 |
| [21](#event-21)          | 0x004A       |     35 |              5 |
| [65535.3](#event-655353) | 0x006D       |     44 |             10 |
| [65535.4](#event-655354) | 0x0099       |     53 |              5 |
| [65535.5](#event-655355) | 0x00CE       |     29 |              4 |
| [20](#event-20)          | 0x00EB       |     35 |              5 |

## DAT References (imed_data)

|   Index | Hex Value   |   Dec Value |
|---------|-------------|-------------|
|       0 | 0x000D      |          13 |
|       1 | 0xFFFE48AC  |  4294854828 |
|       2 | 0x8C3FB     |      574459 |
|       3 | 0xFFFFE09D  |  4294959261 |
|       4 | 0x07EE      |        2030 |
|       5 | 0xFFFDE184  |  4294828420 |
|       6 | 0x89D36     |      564534 |
|       7 | 0xFFFFE525  |  4294960421 |
|       8 | 0x001E      |          30 |
|       9 | 0xFFFDD9A6  |  4294826406 |
|      10 | 0x89A53     |      563795 |
|      11 | 0xFFFFE5A2  |  4294960546 |
|      12 | 0xFFFDDB45  |  4294826821 |
|      13 | 0x8920D     |      561677 |
|      14 | 0xFFFFE485  |  4294960261 |
|      15 | 0xFFFDE28E  |  4294828686 |
|      16 | 0x88D9F     |      560543 |
|      17 | 0xFFFFE3FA  |  4294960122 |
|      18 | 0xFFFDEC1F  |  4294831135 |
|      19 | 0x895B6     |      562614 |
|      20 | 0xFFFFE3FE  |  4294960126 |
|      21 | 0x0874      |        2164 |
|      22 | 0x00B4      |         180 |
|      23 | 0x0076      |         118 |
|      24 | 0x0000      |           0 |
|      25 | 0x018F      |         399 |
|      26 | 0x08C1      |        2241 |

## Events

### Event 65535

#### Metadata

| Field        | Value   |
|--------------|---------|
| Entrypoint   | 0x0000  |
| Data Size    | 1 bytes |
| Instructions | 1       |

```
      00 01 02 03 04 05 06 07  08 09 0A 0B 0C 0D 0E 0F
      -- -- -- -- -- -- -- --  -- -- -- -- -- -- -- --
0000: 00                                                .               
```

#### Opcodes

```
  0: 0x0000 [0x00] END_REQSTACK()
```

### Event 12

#### Metadata

| Field        | Value   |
|--------------|---------|
| Entrypoint   | 0x0001  |
| Data Size    | 1 bytes |
| Instructions | 1       |

```
      00 01 02 03 04 05 06 07  08 09 0A 0B 0C 0D 0E 0F
      -- -- -- -- -- -- -- --  -- -- -- -- -- -- -- --
0000:    00                                              .              
```

#### Opcodes

```
  0: 0x0001 [0x00] END_REQSTACK()
```

### Event 65535.1

#### Metadata

| Field        | Value    |
|--------------|----------|
| Entrypoint   | 0x0002   |
| Data Size    | 15 bytes |
| Instructions | 5        |

```
      00 01 02 03 04 05 06 07  08 09 0A 0B 0C 0D 0E 0F
      -- -- -- -- -- -- -- --  -- -- -- -- -- -- -- --
0000:       32 00 80 1F 00 01  80 02 80 03 80 1F 01 6F    2............o
0010: 00                                                .               
```

#### Opcodes

```
  0: 0x0002 [0x32] ExtData[1]->MainSpeed = 13* * 0.1
  1: 0x0005 [0x1F] MOVE_ENTITY: EventEntity moves to X=-112.468*, Z=574.459*, Y=-8.035*
  2: 0x000D [0x1F] MOVE_ENTITY: Update entity position (mode=1)
  3: 0x000F [0x6F] WAIT_FRAME_DELAY: Yield until WaitTime reaches zero
  4: 0x0010 [0x00] END_REQSTACK()
```

### Event 19

#### Metadata

| Field        | Value    |
|--------------|----------|
| Entrypoint   | 0x0011   |
| Data Size    | 35 bytes |
| Instructions | 5        |

```
      00 01 02 03 04 05 06 07  08 09 0A 0B 0C 0D 0E 0F
      -- -- -- -- -- -- -- --  -- -- -- -- -- -- -- --
0010:    B6 00 04 80 B4 00 00  00 41 64 72 61 73 74 65   ........Adraste
0020: 69 61 00 00 00 00 00 00  00 B5 00 00 00 92 01 F8  ia..............
0030: FF FF 7F 00                                       ....            
```

#### Opcodes

```
  0: 0x0011 [0xB6] ENTITY_APPEARANCE_HANDLER(case=Hair style, value=2030*)
  1: 0x0015 [0xB4] UI_WINDOW_STRING_HANDLER(case=0x00 - Copy string from opcode, work_offset=ExtData[1]->WorkLocal[0], string="Adrasteia")
  2: 0x0029 [0xB5] SET_EVENT_ENTITY_NAME: Change EventEntity name to ExtData[1]->WorkLocal[0]
  3: 0x002D [0x92] EventEntity->Render.Flags3 ^= 0x01
  4: 0x0033 [0x00] END_REQSTACK()
```

### Event 65535.2

#### Metadata

| Field        | Value    |
|--------------|----------|
| Entrypoint   | 0x0034   |
| Data Size    | 22 bytes |
| Instructions | 6        |

```
      00 01 02 03 04 05 06 07  08 09 0A 0B 0C 0D 0E 0F
      -- -- -- -- -- -- -- --  -- -- -- -- -- -- -- --
0030:             32 00 80 1F  00 05 80 06 80 07 80 1F      2...........
0040: 01 1E F0 FF FF 7F 1C 08  80 00                    ..........      
```

#### Opcodes

```
  0: 0x0034 [0x32] ExtData[1]->MainSpeed = 13* * 0.1
  1: 0x0037 [0x1F] MOVE_ENTITY: EventEntity moves to X=-138.876*, Z=564.534*, Y=-6.875*
  2: 0x003F [0x1F] MOVE_ENTITY: Update entity position (mode=1)
  3: 0x0041 [0x1E] EventEntity looks at LocalPlayer and starts talking
  4: 0x0046 [0x1C] WAIT(30* ticks)
  5: 0x0049 [0x00] END_REQSTACK()
```

### Event 21

#### Metadata

| Field        | Value    |
|--------------|----------|
| Entrypoint   | 0x004A   |
| Data Size    | 35 bytes |
| Instructions | 5        |

```
      00 01 02 03 04 05 06 07  08 09 0A 0B 0C 0D 0E 0F
      -- -- -- -- -- -- -- --  -- -- -- -- -- -- -- --
0040:                                B6 00 04 80 B4 00            ......
0050: 00 00 41 64 72 61 73 74  65 69 61 00 00 00 00 00  ..Adrasteia.....
0060: 00 00 B5 00 00 00 92 01  F8 FF FF 7F 00           .............   
```

#### Opcodes

```
  0: 0x004A [0xB6] ENTITY_APPEARANCE_HANDLER(case=Hair style, value=2030*)
  1: 0x004E [0xB4] UI_WINDOW_STRING_HANDLER(case=0x00 - Copy string from opcode, work_offset=ExtData[1]->WorkLocal[0], string="Adrasteia")
  2: 0x0062 [0xB5] SET_EVENT_ENTITY_NAME: Change EventEntity name to ExtData[1]->WorkLocal[0]
  3: 0x0066 [0x92] EventEntity->Render.Flags3 ^= 0x01
  4: 0x006C [0x00] END_REQSTACK()
```

### Event 65535.3

#### Metadata

| Field        | Value    |
|--------------|----------|
| Entrypoint   | 0x006D   |
| Data Size    | 44 bytes |
| Instructions | 10       |

```
      00 01 02 03 04 05 06 07  08 09 0A 0B 0C 0D 0E 0F
      -- -- -- -- -- -- -- --  -- -- -- -- -- -- -- --
0060:                                         32 00 80               2..
0070: 1F 00 09 80 0A 80 0B 80  1F 01 1F 00 0C 80 0D 80  ................
0080: 0E 80 1F 01 1F 00 0F 80  10 80 11 80 1F 01 1F 00  ................
0090: 12 80 13 80 14 80 1F 01  00                       .........       
```

#### Opcodes

```
  0: 0x006D [0x32] ExtData[1]->MainSpeed = 13* * 0.1
  1: 0x0070 [0x1F] MOVE_ENTITY: EventEntity moves to X=-140.890*, Z=563.795*, Y=-6.750*
  2: 0x0078 [0x1F] MOVE_ENTITY: Update entity position (mode=1)
  3: 0x007A [0x1F] MOVE_ENTITY: EventEntity moves to X=-140.475*, Z=561.677*, Y=-7.035*
  4: 0x0082 [0x1F] MOVE_ENTITY: Update entity position (mode=1)
  5: 0x0084 [0x1F] MOVE_ENTITY: EventEntity moves to X=-138.610*, Z=560.543*, Y=-7.174*
  6: 0x008C [0x1F] MOVE_ENTITY: Update entity position (mode=1)
  7: 0x008E [0x1F] MOVE_ENTITY: EventEntity moves to X=-136.161*, Z=562.614*, Y=-7.170*
  8: 0x0096 [0x1F] MOVE_ENTITY: Update entity position (mode=1)
  9: 0x0098 [0x00] END_REQSTACK()
```

### Event 65535.4

#### Metadata

| Field        | Value    |
|--------------|----------|
| Entrypoint   | 0x0099   |
| Data Size    | 53 bytes |
| Instructions | 5        |

```
      00 01 02 03 04 05 06 07  08 09 0A 0B 0C 0D 0E 0F
      -- -- -- -- -- -- -- --  -- -- -- -- -- -- -- --
0090:                             5B 15 80 28 93 05 01           [..(...
00A0: 28 93 05 01 70 61 73 30  1C 16 80 C5 17 80 29 93  (...pas0......).
00B0: 05 01 29 93 05 01 73 30  30 30 18 80 45 19 80 F8  ..)...s000..E...
00C0: FF FF 7F F8 FF FF 7F 70  69 6B 30 18 80 00        .......pik0...  
```

#### Opcodes

```
  0: 0x0099 [0x5B] LOAD_EXT_SCHEDULER: Load scheduler "pas0" with entities [Unnamed NPC (ID: 17142568/0x01059328), Unnamed NPC (ID: 17142568/0x01059328)], work=2164*
  1: 0x00A8 [0x1C] WAIT(180* ticks)
  2: 0x00AB [0xC5] LOAD_SCHEDULED_TASK_ALT3: Load scheduler 0x80183030 for entities [Fey Blossoms (ID: 17142569/0x01059329), Fey Blossoms (ID: 17142569/0x01059329)], work=118*, param=12403
  3: 0x00BC [0x45] LOAD_SCHEDULED_TASK: Load scheduler "pik0" with entities [EventEntity, EventEntity], work=[399*, 0*]
  4: 0x00CD [0x00] END_REQSTACK()
```

### Event 65535.5

#### Metadata

| Field        | Value    |
|--------------|----------|
| Entrypoint   | 0x00CE   |
| Data Size    | 29 bytes |
| Instructions | 4        |

```
      00 01 02 03 04 05 06 07  08 09 0A 0B 0C 0D 0E 0F
      -- -- -- -- -- -- -- --  -- -- -- -- -- -- -- --
00C0:                                            B6 00                ..
00D0: 1A 80 B4 00 00 00 00 00  00 00 00 00 00 00 00 00  ................
00E0: 00 00 00 00 00 00 B5 00  00 00 00                 ...........     
```

#### Opcodes

```
  0: 0x00CE [0xB6] ENTITY_APPEARANCE_HANDLER(case=Hair style, value=2241*)
  1: 0x00D2 [0xB4] UI_WINDOW_STRING_HANDLER(case=0x00 - Copy string from opcode, work_offset=ExtData[1]->WorkLocal[0], string="")
  2: 0x00E6 [0xB5] SET_EVENT_ENTITY_NAME: Change EventEntity name to ExtData[1]->WorkLocal[0]
  3: 0x00EA [0x00] END_REQSTACK()
```

### Event 20

#### Metadata

| Field        | Value    |
|--------------|----------|
| Entrypoint   | 0x00EB   |
| Data Size    | 35 bytes |
| Instructions | 5        |

```
      00 01 02 03 04 05 06 07  08 09 0A 0B 0C 0D 0E 0F
      -- -- -- -- -- -- -- --  -- -- -- -- -- -- -- --
00E0:                                   B6 00 04 80 B4             .....
00F0: 00 00 00 41 64 72 61 73  74 65 69 61 00 00 00 00  ...Adrasteia....
0100: 00 00 00 B5 00 00 00 92  01 F8 FF FF 7F 00        ..............  
```

#### Opcodes

```
  0: 0x00EB [0xB6] ENTITY_APPEARANCE_HANDLER(case=Hair style, value=2030*)
  1: 0x00EF [0xB4] UI_WINDOW_STRING_HANDLER(case=0x00 - Copy string from opcode, work_offset=ExtData[1]->WorkLocal[0], string="Adrasteia")
  2: 0x0103 [0xB5] SET_EVENT_ENTITY_NAME: Change EventEntity name to ExtData[1]->WorkLocal[0]
  3: 0x0107 [0x92] EventEntity->Render.Flags3 ^= 0x01
  4: 0x010D [0x00] END_REQSTACK()
```
