# 17142543 - Republic Supplier

## Common Data

| Field            | Value                 |
|------------------|-----------------------|
| Zone             | Grauberg [S] (ID: 89) |
| Block Size       | 3792 bytes            |
| Total Events     | 2                     |
| References Count | 151                   |

## List of Events

| Event ID              | Entrypoint   |   Size |   Instructions |
|-----------------------|--------------|--------|----------------|
| [65535](#event-65535) | 0x0000       |      1 |              1 |
| [266](#event-266)     | 0x0001       |   3160 |            558 |

## DAT References (imed_data)

|   Index | Hex Value   |   Dec Value |
|---------|-------------|-------------|
|       0 | 0x0000      |           0 |
|       1 | 0x0001      |           1 |
|       2 | 0x0002      |           2 |
|       3 | 0x1D1C      |        7452 |
|       4 | 0x1C39      |        7225 |
|       5 | 0x0008      |           8 |
|       6 | 0x1D1E      |        7454 |
|       7 | 0x00FF      |         255 |
|       8 | 0x0003      |           3 |
|       9 | 0x0004      |           4 |
|      10 | 0x0005      |           5 |
|      11 | 0x0006      |           6 |
|      12 | 0x0007      |           7 |
|      13 | 0x0009      |           9 |
|      14 | 0x000A      |          10 |
|      15 | 0x000B      |          11 |
|      16 | 0x1C3C      |        7228 |
|      17 | 0x1C3D      |        7229 |
|      18 | 0x1D23      |        7459 |
|      19 | 0x1D1F      |        7455 |
|      20 | 0x0020      |          32 |
|      21 | 0x1010      |        4112 |
|      22 | 0x1013      |        4115 |
|      23 | 0x1014      |        4116 |
|      24 | 0x1017      |        4119 |
|      25 | 0x1018      |        4120 |
|      26 | 0x101B      |        4123 |
|      27 | 0x1537      |        5431 |
|      28 | 0x101C      |        4124 |
|      29 | 0x10CB      |        4299 |
|      30 | 0x10CC      |        4300 |
|      31 | 0x10CD      |        4301 |
|      32 | 0x10CE      |        4302 |
|      33 | 0x10CF      |        4303 |
|      34 | 0x153D      |        5437 |
|      35 | 0x14CA      |        5322 |
|      36 | 0x147E      |        5246 |
|      37 | 0x1514      |        5396 |
|      38 | 0x1020      |        4128 |
|      39 | 0x1023      |        4131 |
|      40 | 0x1024      |        4132 |
|      41 | 0x1027      |        4135 |
|      42 | 0x1028      |        4136 |
|      43 | 0x102B      |        4139 |
|      44 | 0x1538      |        5432 |
|      45 | 0x102C      |        4140 |
|      46 | 0x1146      |        4422 |
|      47 | 0x1147      |        4423 |
|      48 | 0x1159      |        4441 |
|      49 | 0x1148      |        4424 |
|      50 | 0x11CE      |        4558 |
|      51 | 0x153E      |        5438 |
|      52 | 0x109F      |        4255 |
|      53 | 0x1031      |        4145 |
|      54 | 0x1030      |        4144 |
|      55 | 0x109E      |        4254 |
|      56 | 0x103D      |        4157 |
|      57 | 0x106E      |        4206 |
|      58 | 0x1070      |        4208 |
|      59 | 0x153F      |        5439 |
|      60 | 0x1513      |        5395 |
|      61 | 0x1056      |        4182 |
|      62 | 0x104C      |        4172 |
|      63 | 0x104D      |        4173 |
|      64 | 0x153C      |        5436 |
|      65 | 0x106A      |        4202 |
|      66 | 0x1540      |        5440 |
|      67 | 0x1033      |        4147 |
|      68 | 0x1479      |        5241 |
|      69 | 0x1068      |        4200 |
|      70 | 0x147A      |        5242 |
|      71 | 0x147B      |        5243 |
|      72 | 0x153A      |        5434 |
|      73 | 0x147C      |        5244 |
|      74 | 0x153B      |        5435 |
|      75 | 0x1509      |        5385 |
|      76 | 0x150A      |        5386 |
|      77 | 0x150B      |        5387 |
|      78 | 0x150C      |        5388 |
|      79 | 0x150D      |        5389 |
|      80 | 0x150E      |        5390 |
|      81 | 0x150F      |        5391 |
|      82 | 0x1510      |        5392 |
|      83 | 0x1511      |        5393 |
|      84 | 0x1512      |        5394 |
|      85 | 0x1515      |        5397 |
|      86 | 0x1072      |        4210 |
|      87 | 0x152B      |        5419 |
|      88 | 0x152C      |        5420 |
|      89 | 0x152D      |        5421 |
|      90 | 0x152E      |        5422 |
|      91 | 0x000F      |          15 |
|      92 | 0x001E      |          30 |
|      93 | 0x002D      |          45 |
|      94 | 0x003C      |          60 |
|      95 | 0x005A      |          90 |
|      96 | 0x0078      |         120 |
|      97 | 0x000D      |          13 |
|      98 | 0x0011      |          17 |
|      99 | 0x0014      |          20 |
|     100 | 0x0012      |          18 |
|     101 | 0x001A      |          26 |
|     102 | 0x0025      |          37 |
|     103 | 0x002A      |          42 |
|     104 | 0x0015      |          21 |
|     105 | 0x0013      |          19 |
|     106 | 0x001B      |          27 |
|     107 | 0x0024      |          36 |
|     108 | 0x0033      |          51 |
|     109 | 0x0035      |          53 |
|     110 | 0x0037      |          55 |
|     111 | 0x0038      |          56 |
|     112 | 0x0039      |          57 |
|     113 | 0x003A      |          58 |
|     114 | 0x003B      |          59 |
|     115 | 0x0016      |          22 |
|     116 | 0x001C      |          28 |
|     117 | 0x0026      |          38 |
|     118 | 0x002B      |          43 |
|     119 | 0x0043      |          67 |
|     120 | 0x0044      |          68 |
|     121 | 0x0045      |          69 |
|     122 | 0x0046      |          70 |
|     123 | 0x000C      |          12 |
|     124 | 0x0017      |          23 |
|     125 | 0x001D      |          29 |
|     126 | 0x0021      |          33 |
|     127 | 0x002E      |          46 |
|     128 | 0x002F      |          47 |
|     129 | 0x0031      |          49 |
|     130 | 0x0034      |          52 |
|     131 | 0x0036      |          54 |
|     132 | 0x003D      |          61 |
|     133 | 0x003E      |          62 |
|     134 | 0x003F      |          63 |
|     135 | 0x0018      |          24 |
|     136 | 0x0022      |          34 |
|     137 | 0x0027      |          39 |
|     138 | 0x0028      |          40 |
|     139 | 0x002C      |          44 |
|     140 | 0x000E      |          14 |
|     141 | 0x0019      |          25 |
|     142 | 0x001F      |          31 |
|     143 | 0x0023      |          35 |
|     144 | 0x0030      |          48 |
|     145 | 0x0032      |          50 |
|     146 | 0x0029      |          41 |
|     147 | 0x0042      |          66 |
|     148 | 0x0041      |          65 |
|     149 | 0x0040      |          64 |
|     150 | 0x0010      |          16 |

## String References

- **7225**: Let me show you the list of items currently available to you.
- **7228**: You currently possess $' Allied Note[/s].
- **7229**: Proceed with the transaction? [Yes./No.]
- **7452**: I am charged with the provisioning of supplies for our troops out on the battlefield. I can issue you temporary items in exchange for Allied Notes.
- **7454**: Select a temporary item. (Price/Stock) [Nothing at this time./Browse another page./#...($8/$16)/$1...($9/$17)/$2...($10/$18)/$3...($11/$19)/$4...($12/$20)/$5...($13/$21)/$6...($14/$22)/$7...($15/$23)/Next page./Previous page.]
- **7455**: Browse which page? [Never mind./Page 1./Page 2./Page 3./Page 4.]
- **7459**: Is there anything else you require?

## Events

### Event 65535

#### Metadata

| Field        | Value   |
|--------------|---------|
| Entrypoint   | 0x0000  |
| Data Size    | 1 bytes |
| Instructions | 1       |

```
      00 01 02 03 04 05 06 07  08 09 0A 0B 0C 0D 0E 0F
      -- -- -- -- -- -- -- --  -- -- -- -- -- -- -- --
0000: 00                                                .               
```

#### Opcodes

```
  0: 0x0000 [0x00] END_REQSTACK()
```

### Event 266

#### Metadata

| Field        | Value      |
|--------------|------------|
| Entrypoint   | 0x0001     |
| Data Size    | 3160 bytes |
| Instructions | 285        |

```
      00 01 02 03 04 05 06 07  08 09 0A 0B 0C 0D 0E 0F
      -- -- -- -- -- -- -- --  -- -- -- -- -- -- -- --
0000:    20 01 03 00 00 02 10  03 01 00 03 10 03 02 00    ..............
0010: 04 10 03 03 00 05 10 03  04 00 06 10 03 05 00 07  ................
0020: 10 02 00 00 00 80 80 3B  00 4A D2 91 05 01 F0 FF  .......;.J......
0030: FF 7F 92 01 D2 91 05 01  01 6F 00 02 00 00 01 80  .........o......
0040: 80 55 00 4A D3 91 05 01  F0 FF FF 7F 92 01 D3 91  .U.J............
0050: 05 01 01 6F 00 02 00 00  02 80 80 6F 00 4A D4 91  ...o.......o.J..
0060: 05 01 F0 FF FF 7F 92 01  D4 91 05 01 01 6F 00 1E  .............o..
0070: F0 FF FF 7F 1A 65 02 1D  03 80 23 1D 04 80 23 03  .....e....#...#.
0080: 01 10 00 80 43 00 43 01  03 0F 00 02 10 1A 1C 06  ....C.C.........
0090: 1A 6B 02 1A A1 02 1A C3  02 1A F3 02 03 06 00 01  .k..............
00A0: 80 03 07 00 01 80 03 08  00 11 00 14 08 00 05 80  ................
00B0: 24 06 80 00 80 14 00 25  02 00 10 01 80 00 E3 00  $......%........
00C0: 1A 17 02 02 11 00 10 00  03 D1 00 01 7F 00 01 E0  ................
00D0: 00 03 01 10 07 80 03 06  00 00 80 03 07 00 00 80  ................
00E0: 01 B1 01 02 00 10 02 80  00 F3 00 07 08 00 00 80  ................
00F0: 01 B1 01 02 00 10 08 80  00 03 01 07 08 00 01 80  ................
0100: 01 B1 01 02 00 10 09 80  00 13 01 07 08 00 02 80  ................
0110: 01 B1 01 02 00 10 0A 80  00 23 01 07 08 00 08 80  .........#......
0120: 01 B1 01 02 00 10 0B 80  00 33 01 07 08 00 09 80  .........3......
0130: 01 B1 01 02 00 10 0C 80  00 43 01 07 08 00 0A 80  .........C......
0140: 01 B1 01 02 00 10 05 80  00 53 01 07 08 00 0B 80  .........S......
0150: 01 B1 01 02 00 10 0D 80  00 63 01 07 08 00 0C 80  .........c......
0160: 01 B1 01 02 00 10 0E 80  00 81 01 0B 11 00 02 11  ................
0170: 00 10 00 04 7B 01 03 11  00 00 80 01 7F 00 01 B1  ....{...........
0180: 01 02 00 10 0F 80 00 A2  01 0C 11 00 02 11 00 00  ................
0190: 80 03 9C 01 03 11 00 10  00 0C 11 00 01 7F 00 01  ................
01A0: B1 01 03 01 10 07 80 03  06 00 00 80 03 07 00 00  ................
01B0: 80 02 06 00 01 80 00 04  02 9D 00 DC 05 0A 00 08  ................
01C0: 00 9D 00 C9 06 0B 00 0A  00 9D 00 59 07 0C 00 0A  ...........Y....
01D0: 00 03 02 10 0B 00 03 03  10 0C 00 03 1F 17 03 00  ................
01E0: 1D 10 80 23 24 11 80 01  80 00 80 25 02 00 10 00  ...#$......%....
01F0: 80 00 04 02 1A A1 05 03  01 10 09 00 03 07 00 00  ................
0200: 80 01 04 02 02 07 00 01  80 00 13 02 1D 12 80 23  ...............#
0210: 01 7F 00 20 00 21 00 24  13 80 00 80 12 00 25 02  ... .!.$......%.
0220: 00 10 01 80 00 2F 02 03  11 00 00 80 01 64 02 02  ...../.......d..
0230: 00 10 02 80 00 3F 02 03  11 00 01 80 01 64 02 02  .....?.......d..
0240: 00 10 08 80 00 4F 02 03  11 00 02 80 01 64 02 02  .....O.......d..
0250: 00 10 09 80 00 5F 02 03  11 00 08 80 01 64 02 03  ....._.......d..
0260: 11 00 10 00 1B 03 11 00  00 80 1B 03 13 00 00 80  ................
0270: 03 15 00 00 80 02 15 00  14 80 03 A0 02 3E 0F 00  .............>..
0280: 15 00 87 02 01 9A 02 03  09 00 15 00 1A 1D 05 9D  ................
0290: 05 DC 05 0A 00 13 00 0B  13 00 0B 15 00 01 75 02  ..............u.
02A0: 1B 03 10 00 13 00 15 10  00 05 80 03 17 00 13 00  ................
02B0: 3F 17 00 17 00 05 80 02  17 00 00 80 02 C2 02 0B  ?...............
02C0: 10 00 1B 03 12 00 00 80  03 15 00 00 80 03 16 00  ................
02D0: 01 80 02 15 00 09 80 03  F2 02 02 15 00 10 00 04  ................
02E0: E9 02 3C 12 00 16 00 01  80 0B 15 00 0B 16 00 01  ..<.............
02F0: D2 02 1B 1A 54 04 03 14  00 00 80 03 16 00 11 00  ....T...........
0300: 14 16 00 05 80 03 15 00  00 80 02 15 00 05 80 03  ................
0310: 27 04 02 16 00 13 00 03  0D 04 9D 00 DC 05 0A 00  '...............
0320: 16 00 9D 00 C9 06 0B 00  0A 00 9D 00 59 07 0C 00  ............Y...
0330: 0A 00 9D 00 B9 06 0E 00  15 00 02 15 00 00 80 80  ................
0340: 54 03 03 02 10 0B 00 03  00 17 0C 00 03 08 17 0E  T...............
0350: 00 01 0A 04 02 15 00 01  80 80 6E 03 03 03 10 0B  ..........n.....
0360: 00 03 01 17 0C 00 03 09  17 0E 00 01 0A 04 02 15  ................
0370: 00 02 80 80 88 03 03 04  10 0B 00 03 02 17 0C 00  ................
0380: 03 0A 17 0E 00 01 0A 04  02 15 00 08 80 80 A2 03  ................
0390: 03 05 10 0B 00 03 03 17  0C 00 03 0B 17 0E 00 01  ................
03A0: 0A 04 02 15 00 09 80 80  BC 03 03 06 10 0B 00 03  ................
03B0: 04 17 0C 00 03 0C 17 0E  00 01 0A 04 02 15 00 0A  ................
03C0: 80 80 D6 03 03 07 10 0B  00 03 05 17 0C 00 03 0D  ................
03D0: 17 0E 00 01 0A 04 02 15  00 0B 80 80 F0 03 03 08  ................
03E0: 10 0B 00 03 06 17 0C 00  03 0E 17 0E 00 01 0A 04  ................
03F0: 02 15 00 0C 80 80 0A 04  03 09 10 0B 00 03 07 17  ................
0400: 0C 00 03 0F 17 0E 00 01  0A 04 01 1E 04 03 17 00  ................
0410: 15 00 07 17 00 02 80 3C  14 00 17 00 01 80 0B 16  .......<........
0420: 00 0B 15 00 01 0A 03 02  10 00 08 80 03 3D 04 3C  .............=.<
0430: 14 00 01 80 01 80 3C 14  00 0F 80 01 80 02 10 00  ......<.........
0440: 02 80 03 53 04 3C 14 00  0E 80 01 80 3C 14 00 0F  ...S.<......<...
0450: 80 01 80 1B 03 02 10 00  80 03 03 10 00 80 03 04  ................
0460: 10 00 80 03 05 10 00 80  03 06 10 00 80 03 07 10  ................
0470: 00 80 03 08 10 00 80 03  09 10 00 80 03 00 17 00  ................
0480: 80 03 01 17 00 80 03 02  17 00 80 03 03 17 00 80  ................
0490: 03 04 17 00 80 03 05 17  00 80 03 06 17 00 80 03  ................
04A0: 07 17 00 80 03 08 17 00  80 03 09 17 00 80 03 0A  ................
04B0: 17 00 80 03 0B 17 00 80  03 0C 17 00 80 03 0D 17  ................
04C0: 00 80 03 0E 17 00 80 03  0F 17 00 80 03 10 17 00  ................
04D0: 80 03 11 17 00 80 03 12  17 00 80 03 13 17 00 80  ................
04E0: 03 14 17 00 80 03 15 17  00 80 03 16 17 00 80 03  ................
04F0: 17 17 00 80 03 18 17 00  80 03 19 17 00 80 03 1A  ................
0500: 17 00 80 03 1B 17 00 80  03 1C 17 00 80 03 1D 17  ................
0510: 00 80 03 1E 17 00 80 03  1F 17 00 80 1B 02 01 00  ................
0520: 01 80 80 30 05 9D 00 79  08 0A 00 09 00 01 94 05  ...0...y........
0530: 02 01 00 02 80 80 43 05  9D 00 B9 08 0A 00 09 00  ......C.........
0540: 01 94 05 02 01 00 08 80  80 56 05 9D 00 F9 08 0A  .........V......
0550: 00 09 00 01 94 05 02 01  00 09 80 80 69 05 9D 00  ............i...
0560: 39 09 0A 00 09 00 01 94  05 02 01 00 0A 80 80 7C  9..............|
0570: 05 9D 00 79 09 0A 00 09  00 01 94 05 02 01 00 0B  ...y............
0580: 80 80 8F 05 9D 00 B9 09  0A 00 09 00 01 94 05 03  ................
0590: 0A 00 00 80 1B 1A 1D 05  9D 00 E9 07 0D 00 0A 00  ................
05A0: 1B 03 17 00 08 00 03 15  00 00 80 02 15 00 14 80  ................
05B0: 03 DB 05 3E 0F 00 15 00  BD 05 01 D5 05 02 17 00  ...>............
05C0: 00 80 02 CB 05 0C 17 00  01 D5 05 03 09 00 15 00  ................
05D0: 03 15 00 14 80 0B 15 00  01 AB 05 1B 18 00 19 00  ................
05E0: 1A 00 1B 00 1C 00 1D 00  1E 00 1F 00 20 00 21 00  ............ .!.
05F0: 22 00 23 00 24 00 25 00  26 00 27 00 28 00 29 00  ".#.$.%.&.'.(.).
0600: 2A 00 2B 00 2C 00 2D 00  2E 00 2F 00 30 00 31 00  *.+.,.-.../.0.1.
0610: 32 00 33 00 34 00 35 00  36 00 37 00 03 01 10 00  2.3.4.5.6.7.....
0620: 80 03 0B 00 11 00 14 0B  00 05 80 03 0A 00 00 80  ................
0630: 03 16 00 00 80 03 15 00  00 80 02 15 00 14 80 03  ................
0640: 74 06 3E 0F 00 15 00 4C  06 01 6E 06 02 16 00 0B  t.>....L..n.....
0650: 00 04 6B 06 3C 01 10 15  00 01 80 0B 0A 00 02 0A  ..k.<...........
0660: 00 05 80 02 6B 06 03 15  00 14 80 0B 16 00 0B 15  ....k...........
0670: 00 01 3A 06 43 00 43 01  9D 05 B9 06 02 10 00 80  ..:.C.C.........
0680: 9D 05 B9 06 03 10 01 80  9D 05 B9 06 04 10 02 80  ................
0690: 9D 05 B9 06 05 10 08 80  9D 05 B9 06 06 10 09 80  ................
06A0: 9D 05 B9 06 07 10 0A 80  9D 05 B9 06 08 10 0B 80  ................
06B0: 9D 05 B9 06 09 10 0C 80  1B 38 00 39 00 3A 00 3B  .........8.9.:.;
06C0: 00 3C 00 3D 00 3E 00 3F  00 00 80 15 80 16 80 17  .<.=.>.?........
06D0: 80 18 80 19 80 1A 80 1B  80 1C 80 1D 80 1E 80 1F  ................
06E0: 80 20 80 21 80 22 80 23  80 24 80 25 80 26 80 27  . .!.".#.$.%.&.'
06F0: 80 28 80 29 80 2A 80 2B  80 2C 80 2D 80 2E 80 2F  .(.).*.+.,.-.../
0700: 80 30 80 31 80 32 80 33  80 34 80 35 80 36 80 37  .0.1.2.3.4.5.6.7
0710: 80 38 80 39 80 3A 80 3B  80 3C 80 3D 80 3E 80 3F  .8.9.:.;.<.=.>.?
0720: 80 40 80 41 80 42 80 43  80 44 80 45 80 46 80 47  .@.A.B.C.D.E.F.G
0730: 80 48 80 49 80 4A 80 4B  80 4C 80 4D 80 4E 80 4F  .H.I.J.K.L.M.N.O
0740: 80 50 80 51 80 52 80 53  80 54 80 55 80 56 80 57  .P.Q.R.S.T.U.V.W
0750: 80 58 80 59 80 5A 80 00  80 00 80 5B 80 5B 80 5C  .X.Y.Z.....[.[.\
0760: 80 5C 80 5D 80 5D 80 5E  80 5F 80 5C 80 5C 80 5D  .\.].].^._.\.\.]
0770: 80 5D 80 5E 80 5E 80 60  80 5C 80 5C 80 5B 80 5B  .].^.^.`.\.\.[.[
0780: 80 5C 80 5C 80 5D 80 5D  80 5E 80 5F 80 5C 80 5C  .\.\.].].^._.\.\
0790: 80 5D 80 5D 80 5E 80 5E  80 60 80 5E 80 5F 80 60  .].].^.^.`.^._.`
07A0: 80 5C 80 5C 80 5D 80 5E  80 60 80 5C 80 5C 80 5C  .\.\.].^.`.\.\.\
07B0: 80 5C 80 5C 80 5E 80 5E  80 60 80 5E 80 60 80 5D  .\.\.^.^.`.^.`.]
07C0: 80 5E 80 5D 80 5E 80 5C  80 5C 80 5C 80 5C 80 5C  .^.].^.\.\.\.\.\
07D0: 80 5D 80 5D 80 5D 80 5D  80 5C 80 5C 80 5C 80 5C  .].].].].\.\.\.\
07E0: 80 5C 80 5C 80 5C 80 00  80 00 80 01 80 01 80 01  .\.\.\..........
07F0: 80 01 80 0A 80 0A 80 0D  80 61 80 01 80 01 80 0A  .........a......
0800: 80 0A 80 0D 80 0D 80 62  80 01 80 01 80 01 80 01  .......b........
0810: 80 01 80 01 80 0A 80 0A  80 0D 80 61 80 01 80 01  ...........a....
0820: 80 0A 80 0A 80 0D 80 0D  80 62 80 0D 80 61 80 62  .........b...a.b
0830: 80 01 80 01 80 0A 80 0D  80 62 80 01 80 01 80 01  .........b......
0840: 80 01 80 01 80 0D 80 0D  80 62 80 0D 80 62 80 0A  .........b...b..
0850: 80 0D 80 0A 80 0D 80 01  80 01 80 01 80 01 80 01  ................
0860: 80 0A 80 0A 80 0A 80 0A  80 01 80 01 80 01 80 01  ................
0870: 80 01 80 01 80 01 80 00  80 08 80 01 80 00 80 0D  ................
0880: 80 62 80 63 80 64 80 00  80 65 80 00 80 00 80 66  .b.c.d...e.....f
0890: 80 00 80 67 80 00 80 00  80 00 80 00 80 00 80 00  ...g............
08A0: 80 00 80 00 80 00 80 00  80 00 80 00 80 00 80 00  ................
08B0: 80 00 80 00 80 00 80 00  80 09 80 02 80 00 80 0E  ................
08C0: 80 62 80 68 80 69 80 00  80 6A 80 00 80 6B 80 66  .b.h.i...j...k.f
08D0: 80 00 80 67 80 5D 80 00  80 00 80 6C 80 6D 80 00  ...g.].....l.m..
08E0: 80 00 80 00 80 00 80 6E  80 6F 80 70 80 71 80 72  .......n.o.p.q.r
08F0: 80 00 80 00 80 00 80 00  80 0A 80 08 80 00 80 0F  ................
0900: 80 62 80 73 80 63 80 00  80 74 80 00 80 6B 80 75  .b.s.c...t...k.u
0910: 80 00 80 76 80 5D 80 00  80 00 80 6C 80 6D 80 00  ...v.].....l.m..
0920: 80 00 80 00 80 00 80 6E  80 6F 80 70 80 71 80 72  .......n.o.p.q.r
0930: 80 77 80 78 80 79 80 7A  80 0B 80 09 80 00 80 7B  .w.x.y.z.......{
0940: 80 62 80 7C 80 68 80 00  80 7D 80 7E 80 6B 80 75  .b.|.h...}.~.k.u
0950: 80 00 80 76 80 7F 80 80  80 81 80 82 80 83 80 5E  ...v...........^
0960: 80 84 80 85 80 86 80 6E  80 6F 80 70 80 71 80 72  .......n.o.p.q.r
0970: 80 77 80 78 80 79 80 7A  80 0C 80 0A 80 5B 80 61  .w.x.y.z.....[.a
0980: 80 62 80 87 80 73 80 14  80 5C 80 88 80 6B 80 89  .b...s...\...k..
0990: 80 8A 80 8B 80 7F 80 80  80 81 80 82 80 83 80 5E  ...............^
09A0: 80 84 80 85 80 86 80 6E  80 6F 80 70 80 71 80 72  .......n.o.p.q.r
09B0: 80 77 80 78 80 79 80 7A  80 05 80 0B 80 5B 80 8C  .w.x.y.z.....[..
09C0: 80 62 80 8D 80 7C 80 14  80 8E 80 8F 80 6B 80 89  .b...|.......k..
09D0: 80 8A 80 8B 80 7F 80 90  80 91 80 82 80 83 80 5E  ...............^
09E0: 80 84 80 85 80 86 80 6E  80 6F 80 70 80 71 80 72  .......n.o.p.q.r
09F0: 80 77 80 78 80 79 80 7A  80 09 80 0B 80 68 80 7C  .w.x.y.z.....h.|
0A00: 80 7E 80 92 80 5D 80 66  80 93 80 80 80 81 80 6E  .~...].f.......n
0A10: 80 70 80 72 80 82 80 84  80 86 80 8A 80 6F 80 71  .p.r.........o.q
0A20: 80 94 80 83 80 85 80 95  80 89 80 62 80 96 80 77  ...........b...w
0A30: 80 7A 80 78 80 79 80 00  80 0A 80 0E 80 08 80 0E  .z.x.y..........
0A40: 80 0A 80 0A 80 0E 80 08  80 0E 80 08 80 0A 80 0E  ................
0A50: 80 08 80 0E 80 0A 80 08  80 08 80 08 80 08 80 08  ................
0A60: 80 08 80 08 80 08 80 0A  80 0A 80 0A 80 0A 80 0A  ................
0A70: 80 0A 80 0A 80 0A 80 0A  80 0B 80 7B 80 09 80 7B  ...........{...{
0A80: 80 0B 80 0B 80 7B 80 09  80 7B 80 09 80 0B 80 7B  .....{...{.....{
0A90: 80 09 80 7B 80 0B 80 09  80 09 80 09 80 09 80 09  ...{............
0AA0: 80 09 80 09 80 09 80 0B  80 0B 80 0B 80 0B 80 0B  ................
0AB0: 80 0B 80 0B 80 0B 80 0B  80 0C 80 8C 80 09 80 8C  ................
0AC0: 80 0C 80 0C 80 8C 80 09  80 8C 80 09 80 0C 80 8C  ................
0AD0: 80 09 80 8C 80 0C 80 09  80 09 80 09 80 09 80 09  ................
0AE0: 80 09 80 09 80 09 80 0C  80 0C 80 0C 80 0C 80 0C  ................
0AF0: 80 0C 80 0C 80 0C 80 0C  80 05 80 96 80 0A 80 96  ................
0B00: 80 05 80 05 80 96 80 0A  80 96 80 0A 80 05 80 96  ................
0B10: 80 0A 80 96 80 05 80 0A  80 0A 80 0A 80 0A 80 0A  ................
0B20: 80 0A 80 0A 80 0A 80 05  80 05 80 05 80 05 80 05  ................
0B30: 80 05 80 05 80 05 80 05  80 0D 80 64 80 0A 80 64  ...........d...d
0B40: 80 0D 80 0D 80 64 80 0A  80 64 80 0A 80 0D 80 64  .....d...d.....d
0B50: 80 0A 80 64 80 0D 80 0A  80 0A 80 0A 80 0A 80 0A  ...d............
0B60: 80 0A 80 0A 80 0A 80 0D  80 0D 80 0D 80 0D 80 0D  ................
0B70: 80 0D 80 0D 80 0D 80 0D  80 0E 80 63 80 0B 80 63  ...........c...c
0B80: 80 0E 80 0E 80 63 80 0B  80 63 80 0B 80 0E 80 63  .....c...c.....c
0B90: 80 0B 80 63 80 0E 80 0B  80 0B 80 0B 80 0B 80 0B  ...c............
0BA0: 80 0B 80 0B 80 0B 80 0E  80 0E 80 0E 80 0E 80 0E  ................
0BB0: 80 0E 80 0E 80 0E 80 0E  80 14 80 0E 80 8C 80 6A  ...............j
0BC0: 80 63 80 14 80 14 80 09  80 73 80 14 80 14 80 7C  .c.......s.....|
0BD0: 80 69 80 14 80 14 80 14  80 14 80 14 80 8D 80 14  .i..............
0BE0: 80 14 80 14 80 14 80 68  80 14 80 14 80 14 80 14  .......h........
0BF0: 80 14 80 14 80 14 80 14  80 14 80 14 80 14 80 14  ................
0C00: 80 14 80 14 80 14 80 14  80 14 80 14 80 14 80 14  ................
0C10: 80 14 80 14 80 14 80 14  80 74 80 8E 80 5C 80 7D  .........t...\.}
0C20: 80 87 80 62 80 0D 80 7B  80 5B 80 14 80 00 80 00  ...b...{.[......
0C30: 80 00 80 00 80 00 80 00  80 08 80 05 80 00 80 0A  ................
0C40: 80 65 80 64 80 02 80 0C  80 96 80 14 80 00 80 00  .e.d............
0C50: 80 00 80 00 80 00 80 00  80                       .........       
```

#### Opcodes

```
  0: 0x0001 [0x20] SET_CLI_EVENT_UC_FLAG: Lock player control
  1: 0x0003 [0x03] ExtData[1]->WorkLocal[0] = Work_Zone[2]
  2: 0x0008 [0x03] ExtData[1]->WorkLocal[1] = Work_Zone[3]
  3: 0x000D [0x03] ExtData[1]->WorkLocal[2] = Work_Zone[4]
  4: 0x0012 [0x03] ExtData[1]->WorkLocal[3] = Work_Zone[5]
  5: 0x0017 [0x03] ExtData[1]->WorkLocal[4] = Work_Zone[6]
  6: 0x001C [0x03] ExtData[1]->WorkLocal[5] = Work_Zone[7]
  7: 0x0021 [0x02] IF !(ExtData[1]->WorkLocal[0] == 0*) GOTO 0x003B
  8: 0x0029 [0x4A] Republic Supplier (ID: 17142226/0x010591D2) looks at LocalPlayer
  9: 0x0032 [0x92] Republic Supplier (ID: 17142226/0x010591D2)->Render.Flags3 ^= 0x01
 10: 0x0038 [0x01] GOTO 0x006F
 11: 0x003B [0x02] IF !(ExtData[1]->WorkLocal[0] == 1*) GOTO 0x0055
 12: 0x0043 [0x4A] Republic Supplier (ID: 17142227/0x010591D3) looks at LocalPlayer
 13: 0x004C [0x92] Republic Supplier (ID: 17142227/0x010591D3)->Render.Flags3 ^= 0x01
 14: 0x0052 [0x01] GOTO 0x006F
 15: 0x0055 [0x02] IF !(ExtData[1]->WorkLocal[0] == 2*) GOTO 0x006F
 16: 0x005D [0x4A] Republic Supplier (ID: 17142228/0x010591D4) looks at LocalPlayer
 17: 0x0066 [0x92] Republic Supplier (ID: 17142228/0x010591D4)->Render.Flags3 ^= 0x01
 18: 0x006C [0x01] GOTO 0x006F

SUBROUTINE_006F:
 19: 0x006F [0x1E] EventEntity looks at LocalPlayer and starts talking
 20: 0x0074 [0x1A] CALL_SUBROUTINE(address=0x0265)
 21: 0x0077 [0x1D] PRINT_EVENT_MESSAGE(message_id=7452*)
    → "I am charged with the provisioning of supplies for our troops out on the battlefield. I can issue you temporary items in exchange for Allied Notes."
 22: 0x007A [0x23] WAIT_FOR_DIALOG_INTERACTION
 23: 0x007B [0x1D] PRINT_EVENT_MESSAGE(message_id=7225*)
    → "Let me show you the list of items currently available to you."
 24: 0x007E [0x23] WAIT_FOR_DIALOG_INTERACTION

SUBROUTINE_007F:
 25: 0x007F [0x03] Work_Zone[1] = 0*
 26: 0x0084 [0x43] SEND_EVENT_UPDATE: Send pending tag to server (packet 0x005B)
 27: 0x0086 [0x43] SEND_EVENT_UPDATE: Check pending flag (skip if not pending)
 28: 0x0088 [0x03] ExtData[1]->WorkLocal[15] = Work_Zone[2]
 29: 0x008D [0x1A] CALL_SUBROUTINE(address=0x061C)
 30: 0x0090 [0x1A] CALL_SUBROUTINE(address=0x026B)
 31: 0x0093 [0x1A] CALL_SUBROUTINE(address=0x02A1)
 32: 0x0096 [0x1A] CALL_SUBROUTINE(address=0x02C3)
 33: 0x0099 [0x1A] CALL_SUBROUTINE(address=0x02F3)
 34: 0x009C [0x03] ExtData[1]->WorkLocal[6] = 1*
 35: 0x00A1 [0x03] ExtData[1]->WorkLocal[7] = 1*
 36: 0x00A6 [0x03] ExtData[1]->WorkLocal[8] = ExtData[1]->WorkLocal[17]
 37: 0x00AB [0x14] ExtData[1]->WorkLocal[8] *= 8*
 38: 0x00B0 [0x24] CREATE_DIALOG(message_id=7454*, default_option=0*, option_flags=ExtData[1]->WorkLocal[20])
    → "Select a temporary item. (Price/Stock) [Nothing at this time./Browse another page./#...($8/$16)/$1...($9/$17)/$2...($10/$18)/$3...($11/$19)/$4...($12/$20)/$5...($13/$21)/$6...($14/$22)/$7...($15/$23)/Next page./Previous page.]"
 39: 0x00B7 [0x25] WAIT_DIALOG_SELECT()
 40: 0x00B8 [0x02] IF !(Work_Zone[0] == 1*) GOTO 0x00E3
 41: 0x00C0 [0x1A] CALL_SUBROUTINE(address=0x0217)
 42: 0x00C3 [0x02] IF !(ExtData[1]->WorkLocal[17] >= ExtData[1]->WorkLocal[16]) GOTO 0x00D1
 43: 0x00CB [0x01] GOTO 0x007F

SUBROUTINE_00E0:
 44: 0x00E0 [0x01] GOTO 0x01B1
 45: 0x00E3 [0x02] IF !(Work_Zone[0] == 2*) GOTO 0x00F3
 46: 0x00EB [0x07] ExtData[1]->WorkLocal[8] += 0*
 47: 0x00F0 [0x01] GOTO 0x01B1
 48: 0x00F3 [0x02] IF !(Work_Zone[0] == 3*) GOTO 0x0103
 49: 0x00FB [0x07] ExtData[1]->WorkLocal[8] += 1*
 50: 0x0100 [0x01] GOTO 0x01B1
 51: 0x0103 [0x02] IF !(Work_Zone[0] == 4*) GOTO 0x0113
 52: 0x010B [0x07] ExtData[1]->WorkLocal[8] += 2*
 53: 0x0110 [0x01] GOTO 0x01B1
 54: 0x0113 [0x02] IF !(Work_Zone[0] == 5*) GOTO 0x0123
 55: 0x011B [0x07] ExtData[1]->WorkLocal[8] += 3*
 56: 0x0120 [0x01] GOTO 0x01B1
 57: 0x0123 [0x02] IF !(Work_Zone[0] == 6*) GOTO 0x0133
 58: 0x012B [0x07] ExtData[1]->WorkLocal[8] += 4*
 59: 0x0130 [0x01] GOTO 0x01B1
 60: 0x0133 [0x02] IF !(Work_Zone[0] == 7*) GOTO 0x0143
 61: 0x013B [0x07] ExtData[1]->WorkLocal[8] += 5*
 62: 0x0140 [0x01] GOTO 0x01B1
 63: 0x0143 [0x02] IF !(Work_Zone[0] == 8*) GOTO 0x0153
 64: 0x014B [0x07] ExtData[1]->WorkLocal[8] += 6*
 65: 0x0150 [0x01] GOTO 0x01B1
 66: 0x0153 [0x02] IF !(Work_Zone[0] == 9*) GOTO 0x0163
 67: 0x015B [0x07] ExtData[1]->WorkLocal[8] += 7*
 68: 0x0160 [0x01] GOTO 0x01B1
 69: 0x0163 [0x02] IF !(Work_Zone[0] == 10*) GOTO 0x0181
 70: 0x016B [0x0B] ExtData[1]->WorkLocal[17]++
 71: 0x016E [0x02] IF !(ExtData[1]->WorkLocal[17] < ExtData[1]->WorkLocal[16]) GOTO 0x017B
 72: 0x0176 [0x03] ExtData[1]->WorkLocal[17] = 0*
 73: 0x017B [0x01] GOTO 0x007F

SUBROUTINE_01B1:
 74: 0x01B1 [0x02] IF !(ExtData[1]->WorkLocal[6] == 1*) GOTO 0x0204
 75: 0x01B9 [0x9D] ExtData[1]->WorkLocal[10] = 0x05DC[ExtData[1]->WorkLocal[8]] // Read WORD
 76: 0x01C1 [0x9D] ExtData[1]->WorkLocal[11] = 0x06C9[ExtData[1]->WorkLocal[10]] // Read WORD
 77: 0x01C9 [0x9D] ExtData[1]->WorkLocal[12] = 0x0759[ExtData[1]->WorkLocal[10]] // Read WORD
 78: 0x01D1 [0x03] Work_Zone[2] = ExtData[1]->WorkLocal[11]
 79: 0x01D6 [0x03] Work_Zone[3] = ExtData[1]->WorkLocal[12]
 80: 0x01DB [0x03] Work_Zone_1700[31] = ExtData[1]->WorkLocal[3]
 81: 0x01E0 [0x1D] PRINT_EVENT_MESSAGE(message_id=7228*)
    → "You currently possess $' Allied Note[/s]."
 82: 0x01E3 [0x23] WAIT_FOR_DIALOG_INTERACTION
 83: 0x01E4 [0x24] CREATE_DIALOG(message_id=7229*, default_option=1*, option_flags=0*)
    → "Proceed with the transaction? [Yes./No.]"
 84: 0x01EB [0x25] WAIT_DIALOG_SELECT()
 85: 0x01EC [0x02] IF !(Work_Zone[0] == 0*) GOTO 0x0204
 86: 0x01F4 [0x1A] CALL_SUBROUTINE(address=0x05A1)
 87: 0x01F7 [0x03] Work_Zone[1] = ExtData[1]->WorkLocal[9]
 88: 0x01FC [0x03] ExtData[1]->WorkLocal[7] = 0*
 89: 0x0201 [0x01] GOTO 0x0204

SUBROUTINE_0204:
 90: 0x0204 [0x02] IF !(ExtData[1]->WorkLocal[7] == 1*) GOTO 0x0213
 91: 0x020C [0x1D] PRINT_EVENT_MESSAGE(message_id=7459*)
    → "Is there anything else you require?"
 92: 0x020F [0x23] WAIT_FOR_DIALOG_INTERACTION
 93: 0x0210 [0x01] GOTO 0x007F
 94: 0x0213 [0x20] SET_CLI_EVENT_UC_FLAG: Unlock player control
 95: 0x0215 [0x21] END_EVENT
 96: 0x0216 [0x00] END_REQSTACK()

SUBROUTINE_0217:
 97: 0x0217 [0x24] CREATE_DIALOG(message_id=7455*, default_option=0*, option_flags=ExtData[1]->WorkLocal[18])
    → "Browse which page? [Never mind./Page 1./Page 2./Page 3./Page 4.]"
 98: 0x021E [0x25] WAIT_DIALOG_SELECT()
 99: 0x021F [0x02] IF !(Work_Zone[0] == 1*) GOTO 0x022F
100: 0x0227 [0x03] ExtData[1]->WorkLocal[17] = 0*
101: 0x022C [0x01] GOTO 0x0264
102: 0x022F [0x02] IF !(Work_Zone[0] == 2*) GOTO 0x023F
103: 0x0237 [0x03] ExtData[1]->WorkLocal[17] = 1*
104: 0x023C [0x01] GOTO 0x0264
105: 0x023F [0x02] IF !(Work_Zone[0] == 3*) GOTO 0x024F
106: 0x0247 [0x03] ExtData[1]->WorkLocal[17] = 2*
107: 0x024C [0x01] GOTO 0x0264
108: 0x024F [0x02] IF !(Work_Zone[0] == 4*) GOTO 0x025F
109: 0x0257 [0x03] ExtData[1]->WorkLocal[17] = 3*
110: 0x025C [0x01] GOTO 0x0264
111: 0x025F [0x03] ExtData[1]->WorkLocal[17] = ExtData[1]->WorkLocal[16]

SUBROUTINE_0264:
112: 0x0264 [0x1B] RETURN

SUBROUTINE_0265:
113: 0x0265 [0x03] ExtData[1]->WorkLocal[17] = 0*
114: 0x026A [0x1B] RETURN

SUBROUTINE_026B:
115: 0x026B [0x03] ExtData[1]->WorkLocal[19] = 0*
116: 0x0270 [0x03] ExtData[1]->WorkLocal[21] = 0*

SUBROUTINE_0275:
117: 0x0275 [0x02] IF !(ExtData[1]->WorkLocal[21] >= 32*) GOTO 0x02A0
118: 0x027D [0x3E] IF !(ExtData[1]->WorkLocal[15] bit ExtData[1]->WorkLocal[21]) GOTO 0x0287
119: 0x0284 [0x01] GOTO 0x029A
120: 0x0287 [0x03] ExtData[1]->WorkLocal[9] = ExtData[1]->WorkLocal[21]
121: 0x028C [0x1A] CALL_SUBROUTINE(address=0x051D)
122: 0x028F [0x9D] 0x05DC[ExtData[1]->WorkLocal[19] * 2] = ExtData[1]->WorkLocal[10] // Write WORD
123: 0x0297 [0x0B] ExtData[1]->WorkLocal[19]++

SUBROUTINE_029A:
124: 0x029A [0x0B] ExtData[1]->WorkLocal[21]++
125: 0x029D [0x01] GOTO 0x0275
126: 0x02A0 [0x1B] RETURN

SUBROUTINE_02A1:
127: 0x02A1 [0x03] ExtData[1]->WorkLocal[16] = ExtData[1]->WorkLocal[19]
128: 0x02A6 [0x15] ExtData[1]->WorkLocal[16] /= 8*
129: 0x02AB [0x03] ExtData[1]->WorkLocal[23] = ExtData[1]->WorkLocal[19]
130: 0x02B0 [0x3F] ExtData[1]->WorkLocal[23] = ExtData[1]->WorkLocal[23] % 8*
131: 0x02B7 [0x02] IF !(ExtData[1]->WorkLocal[23] <= 0*) GOTO 0x02C2
132: 0x02BF [0x0B] ExtData[1]->WorkLocal[16]++
133: 0x02C2 [0x1B] RETURN

SUBROUTINE_02C3:
134: 0x02C3 [0x03] ExtData[1]->WorkLocal[18] = 0*
135: 0x02C8 [0x03] ExtData[1]->WorkLocal[21] = 0*
136: 0x02CD [0x03] ExtData[1]->WorkLocal[22] = 1*

SUBROUTINE_02D2:
137: 0x02D2 [0x02] IF !(ExtData[1]->WorkLocal[21] >= 4*) GOTO 0x02F2
138: 0x02DA [0x02] IF !(ExtData[1]->WorkLocal[21] < ExtData[1]->WorkLocal[16]) GOTO 0x02E9
139: 0x02E2 [0x3C] SET_BIT_FLAG_CONDITIONAL(target_work_offset=ExtData[1]->WorkLocal[18], bit_index_work_offset=ExtData[1]->WorkLocal[22], condition_work_offset=1*)
140: 0x02E9 [0x0B] ExtData[1]->WorkLocal[21]++
141: 0x02EC [0x0B] ExtData[1]->WorkLocal[22]++
142: 0x02EF [0x01] GOTO 0x02D2
143: 0x02F2 [0x1B] RETURN

SUBROUTINE_02F3:
144: 0x02F3 [0x1A] CALL_SUBROUTINE(address=0x0454)
145: 0x02F6 [0x03] ExtData[1]->WorkLocal[20] = 0*
146: 0x02FB [0x03] ExtData[1]->WorkLocal[22] = ExtData[1]->WorkLocal[17]
147: 0x0300 [0x14] ExtData[1]->WorkLocal[22] *= 8*
148: 0x0305 [0x03] ExtData[1]->WorkLocal[21] = 0*

SUBROUTINE_030A:
149: 0x030A [0x02] IF !(ExtData[1]->WorkLocal[21] >= 8*) GOTO 0x0427
150: 0x0312 [0x02] IF !(ExtData[1]->WorkLocal[22] >= ExtData[1]->WorkLocal[19]) GOTO 0x040D
151: 0x031A [0x9D] ExtData[1]->WorkLocal[10] = 0x05DC[ExtData[1]->WorkLocal[22]] // Read WORD
152: 0x0322 [0x9D] ExtData[1]->WorkLocal[11] = 0x06C9[ExtData[1]->WorkLocal[10]] // Read WORD
153: 0x032A [0x9D] ExtData[1]->WorkLocal[12] = 0x0759[ExtData[1]->WorkLocal[10]] // Read WORD
154: 0x0332 [0x9D] ExtData[1]->WorkLocal[14] = 0x06B9[ExtData[1]->WorkLocal[21]] // Read WORD
155: 0x033A [0x02] IF !(ExtData[1]->WorkLocal[21] == 0*) GOTO 0x0354
156: 0x0342 [0x03] Work_Zone[2] = ExtData[1]->WorkLocal[11]
157: 0x0347 [0x03] Work_Zone_1700[0] = ExtData[1]->WorkLocal[12]
158: 0x034C [0x03] Work_Zone_1700[8] = ExtData[1]->WorkLocal[14]
159: 0x0351 [0x01] GOTO 0x040A
160: 0x0354 [0x02] IF !(ExtData[1]->WorkLocal[21] == 1*) GOTO 0x036E
161: 0x035C [0x03] Work_Zone[3] = ExtData[1]->WorkLocal[11]
162: 0x0361 [0x03] Work_Zone_1700[1] = ExtData[1]->WorkLocal[12]
163: 0x0366 [0x03] Work_Zone_1700[9] = ExtData[1]->WorkLocal[14]
164: 0x036B [0x01] GOTO 0x040A
165: 0x036E [0x02] IF !(ExtData[1]->WorkLocal[21] == 2*) GOTO 0x0388
166: 0x0376 [0x03] Work_Zone[4] = ExtData[1]->WorkLocal[11]
167: 0x037B [0x03] Work_Zone_1700[2] = ExtData[1]->WorkLocal[12]
168: 0x0380 [0x03] Work_Zone_1700[10] = ExtData[1]->WorkLocal[14]
169: 0x0385 [0x01] GOTO 0x040A
170: 0x0388 [0x02] IF !(ExtData[1]->WorkLocal[21] == 3*) GOTO 0x03A2
171: 0x0390 [0x03] Work_Zone[5] = ExtData[1]->WorkLocal[11]
172: 0x0395 [0x03] Work_Zone_1700[3] = ExtData[1]->WorkLocal[12]
173: 0x039A [0x03] Work_Zone_1700[11] = ExtData[1]->WorkLocal[14]
174: 0x039F [0x01] GOTO 0x040A
175: 0x03A2 [0x02] IF !(ExtData[1]->WorkLocal[21] == 4*) GOTO 0x03BC
176: 0x03AA [0x03] Work_Zone[6] = ExtData[1]->WorkLocal[11]
177: 0x03AF [0x03] Work_Zone_1700[4] = ExtData[1]->WorkLocal[12]
178: 0x03B4 [0x03] Work_Zone_1700[12] = ExtData[1]->WorkLocal[14]
179: 0x03B9 [0x01] GOTO 0x040A
180: 0x03BC [0x02] IF !(ExtData[1]->WorkLocal[21] == 5*) GOTO 0x03D6
181: 0x03C4 [0x03] Work_Zone[7] = ExtData[1]->WorkLocal[11]
182: 0x03C9 [0x03] Work_Zone_1700[5] = ExtData[1]->WorkLocal[12]
183: 0x03CE [0x03] Work_Zone_1700[13] = ExtData[1]->WorkLocal[14]
184: 0x03D3 [0x01] GOTO 0x040A
185: 0x03D6 [0x02] IF !(ExtData[1]->WorkLocal[21] == 6*) GOTO 0x03F0
186: 0x03DE [0x03] Work_Zone[8] = ExtData[1]->WorkLocal[11]
187: 0x03E3 [0x03] Work_Zone_1700[6] = ExtData[1]->WorkLocal[12]
188: 0x03E8 [0x03] Work_Zone_1700[14] = ExtData[1]->WorkLocal[14]
189: 0x03ED [0x01] GOTO 0x040A
190: 0x03F0 [0x02] IF !(ExtData[1]->WorkLocal[21] == 7*) GOTO 0x040A
191: 0x03F8 [0x03] Work_Zone[9] = ExtData[1]->WorkLocal[11]
192: 0x03FD [0x03] Work_Zone_1700[7] = ExtData[1]->WorkLocal[12]
193: 0x0402 [0x03] Work_Zone_1700[15] = ExtData[1]->WorkLocal[14]
194: 0x0407 [0x01] GOTO 0x040A

SUBROUTINE_040A:
195: 0x040A [0x01] GOTO 0x041E
196: 0x040D [0x03] ExtData[1]->WorkLocal[23] = ExtData[1]->WorkLocal[21]
197: 0x0412 [0x07] ExtData[1]->WorkLocal[23] += 2*
198: 0x0417 [0x3C] SET_BIT_FLAG_CONDITIONAL(target_work_offset=ExtData[1]->WorkLocal[20], bit_index_work_offset=ExtData[1]->WorkLocal[23], condition_work_offset=1*)

SUBROUTINE_041E:
199: 0x041E [0x0B] ExtData[1]->WorkLocal[22]++
200: 0x0421 [0x0B] ExtData[1]->WorkLocal[21]++
201: 0x0424 [0x01] GOTO 0x030A
202: 0x0427 [0x02] IF !(ExtData[1]->WorkLocal[16] >= 3*) GOTO 0x043D
203: 0x042F [0x3C] SET_BIT_FLAG_CONDITIONAL(target_work_offset=ExtData[1]->WorkLocal[20], bit_index_work_offset=1*, condition_work_offset=1*)
204: 0x0436 [0x3C] SET_BIT_FLAG_CONDITIONAL(target_work_offset=ExtData[1]->WorkLocal[20], bit_index_work_offset=11*, condition_work_offset=1*)
205: 0x043D [0x02] IF !(ExtData[1]->WorkLocal[16] >= 2*) GOTO 0x0453
206: 0x0445 [0x3C] SET_BIT_FLAG_CONDITIONAL(target_work_offset=ExtData[1]->WorkLocal[20], bit_index_work_offset=10*, condition_work_offset=1*)
207: 0x044C [0x3C] SET_BIT_FLAG_CONDITIONAL(target_work_offset=ExtData[1]->WorkLocal[20], bit_index_work_offset=11*, condition_work_offset=1*)
208: 0x0453 [0x1B] RETURN

SUBROUTINE_0454:
209: 0x0454 [0x03] Work_Zone[2] = 0*
210: 0x0459 [0x03] Work_Zone[3] = 0*
211: 0x045E [0x03] Work_Zone[4] = 0*
212: 0x0463 [0x03] Work_Zone[5] = 0*
213: 0x0468 [0x03] Work_Zone[6] = 0*
214: 0x046D [0x03] Work_Zone[7] = 0*
215: 0x0472 [0x03] Work_Zone[8] = 0*
216: 0x0477 [0x03] Work_Zone[9] = 0*
217: 0x047C [0x03] Work_Zone_1700[0] = 0*
218: 0x0481 [0x03] Work_Zone_1700[1] = 0*
219: 0x0486 [0x03] Work_Zone_1700[2] = 0*
220: 0x048B [0x03] Work_Zone_1700[3] = 0*
221: 0x0490 [0x03] Work_Zone_1700[4] = 0*
222: 0x0495 [0x03] Work_Zone_1700[5] = 0*
223: 0x049A [0x03] Work_Zone_1700[6] = 0*
224: 0x049F [0x03] Work_Zone_1700[7] = 0*
225: 0x04A4 [0x03] Work_Zone_1700[8] = 0*
226: 0x04A9 [0x03] Work_Zone_1700[9] = 0*
227: 0x04AE [0x03] Work_Zone_1700[10] = 0*
228: 0x04B3 [0x03] Work_Zone_1700[11] = 0*
229: 0x04B8 [0x03] Work_Zone_1700[12] = 0*
230: 0x04BD [0x03] Work_Zone_1700[13] = 0*
231: 0x04C2 [0x03] Work_Zone_1700[14] = 0*
232: 0x04C7 [0x03] Work_Zone_1700[15] = 0*
233: 0x04CC [0x03] Work_Zone_1700[16] = 0*
234: 0x04D1 [0x03] Work_Zone_1700[17] = 0*
235: 0x04D6 [0x03] Work_Zone_1700[18] = 0*
236: 0x04DB [0x03] Work_Zone_1700[19] = 0*
237: 0x04E0 [0x03] Work_Zone_1700[20] = 0*
238: 0x04E5 [0x03] Work_Zone_1700[21] = 0*
239: 0x04EA [0x03] Work_Zone_1700[22] = 0*
240: 0x04EF [0x03] Work_Zone_1700[23] = 0*
241: 0x04F4 [0x03] Work_Zone_1700[24] = 0*
242: 0x04F9 [0x03] Work_Zone_1700[25] = 0*
243: 0x04FE [0x03] Work_Zone_1700[26] = 0*
244: 0x0503 [0x03] Work_Zone_1700[27] = 0*
245: 0x0508 [0x03] Work_Zone_1700[28] = 0*
246: 0x050D [0x03] Work_Zone_1700[29] = 0*
247: 0x0512 [0x03] Work_Zone_1700[30] = 0*
248: 0x0517 [0x03] Work_Zone_1700[31] = 0*
249: 0x051C [0x1B] RETURN

SUBROUTINE_051D:
250: 0x051D [0x02] IF !(ExtData[1]->WorkLocal[1] == 1*) GOTO 0x0530
251: 0x0525 [0x9D] ExtData[1]->WorkLocal[10] = 0x0879[ExtData[1]->WorkLocal[9]] // Read WORD
252: 0x052D [0x01] GOTO 0x0594
253: 0x0530 [0x02] IF !(ExtData[1]->WorkLocal[1] == 2*) GOTO 0x0543
254: 0x0538 [0x9D] ExtData[1]->WorkLocal[10] = 0x08B9[ExtData[1]->WorkLocal[9]] // Read WORD
255: 0x0540 [0x01] GOTO 0x0594
256: 0x0543 [0x02] IF !(ExtData[1]->WorkLocal[1] == 3*) GOTO 0x0556
257: 0x054B [0x9D] ExtData[1]->WorkLocal[10] = 0x08F9[ExtData[1]->WorkLocal[9]] // Read WORD
258: 0x0553 [0x01] GOTO 0x0594
259: 0x0556 [0x02] IF !(ExtData[1]->WorkLocal[1] == 4*) GOTO 0x0569
260: 0x055E [0x9D] ExtData[1]->WorkLocal[10] = 0x0939[ExtData[1]->WorkLocal[9]] // Read WORD
261: 0x0566 [0x01] GOTO 0x0594
262: 0x0569 [0x02] IF !(ExtData[1]->WorkLocal[1] == 5*) GOTO 0x057C
263: 0x0571 [0x9D] ExtData[1]->WorkLocal[10] = 0x0979[ExtData[1]->WorkLocal[9]] // Read WORD
264: 0x0579 [0x01] GOTO 0x0594
265: 0x057C [0x02] IF !(ExtData[1]->WorkLocal[1] == 6*) GOTO 0x058F
266: 0x0584 [0x9D] ExtData[1]->WorkLocal[10] = 0x09B9[ExtData[1]->WorkLocal[9]] // Read WORD
267: 0x058C [0x01] GOTO 0x0594
268: 0x058F [0x03] ExtData[1]->WorkLocal[10] = 0*

SUBROUTINE_0594:
269: 0x0594 [0x1B] RETURN

SUBROUTINE_05A1:
270: 0x05A1 [0x03] ExtData[1]->WorkLocal[23] = ExtData[1]->WorkLocal[8]
271: 0x05A6 [0x03] ExtData[1]->WorkLocal[21] = 0*

SUBROUTINE_05AB:
272: 0x05AB [0x02] IF !(ExtData[1]->WorkLocal[21] >= 32*) GOTO 0x05DB
273: 0x05B3 [0x3E] IF !(ExtData[1]->WorkLocal[15] bit ExtData[1]->WorkLocal[21]) GOTO 0x05BD
274: 0x05BA [0x01] GOTO 0x05D5
275: 0x05BD [0x02] IF !(ExtData[1]->WorkLocal[23] <= 0*) GOTO 0x05CB
276: 0x05C5 [0x0C] ExtData[1]->WorkLocal[23]--
277: 0x05C8 [0x01] GOTO 0x05D5
278: 0x05CB [0x03] ExtData[1]->WorkLocal[9] = ExtData[1]->WorkLocal[21]
279: 0x05D0 [0x03] ExtData[1]->WorkLocal[21] = 32*

SUBROUTINE_05D5:
280: 0x05D5 [0x0B] ExtData[1]->WorkLocal[21]++
281: 0x05D8 [0x01] GOTO 0x05AB
282: 0x05DB [0x1B] RETURN

SUBROUTINE_061C:
283: 0x061C [0x03] Work_Zone[1] = 0*
284: 0x0621 [0x03] ExtData[1]->WorkLocal[11] = ExtData[1]->WorkLocal[17]
```

#### Data or dead code:

```
# Data Section: 0x05DC (64 bytes)
     0x05DC: 18 00 19 00 1A 00 1B 00 1C 00 1D 00 1E 00 1F 00
     0x05EC: 20 00 21 00 22 00 23 00 24 00 25 00 26 00 27 00
     0x05FC: 28 00 29 00 2A 00 2B 00 2C 00 2D 00 2E 00 2F 00
     0x060C: 30 00 31 00 32 00 33 00 34 00 35 00 36 00 37 00
# Data Section: 0x06B9 (418 bytes)
     0x06B9: 38 00 39 00 3A 00 3B 00 3C 00 3D 00 3E 00 3F 00
     0x06C9: 00 80 15 80 16 80 17 80 18 80 19 80 1A 80 1B 80
     0x06D9: 1C 80 1D 80 1E 80 1F 80 20 80 21 80 22 80 23 80
     0x06E9: 24 80 25 80 26 80 27 80 28 80 29 80 2A 80 2B 80
     0x06F9: 2C 80 2D 80 2E 80 2F 80 30 80 31 80 32 80 33 80
     0x0709: 34 80 35 80 36 80 37 80 38 80 39 80 3A 80 3B 80
     0x0719: 3C 80 3D 80 3E 80 3F 80 40 80 41 80 42 80 43 80
     0x0729: 44 80 45 80 46 80 47 80 48 80 49 80 4A 80 4B 80
     0x0739: 4C 80 4D 80 4E 80 4F 80 50 80 51 80 52 80 53 80
     0x0749: 54 80 55 80 56 80 57 80 58 80 59 80 5A 80 00 80
     0x0759: 00 80 5B 80 5B 80 5C 80 5C 80 5D 80 5D 80 5E 80
     0x0769: 5F 80 5C 80 5C 80 5D 80 5D 80 5E 80 5E 80 60 80
     0x0779: 5C 80 5C 80 5B 80 5B 80 5C 80 5C 80 5D 80 5D 80
     0x0789: 5E 80 5F 80 5C 80 5C 80 5D 80 5D 80 5E 80 5E 80
     0x0799: 60 80 5E 80 5F 80 60 80 5C 80 5C 80 5D 80 5E 80
     0x07A9: 60 80 5C 80 5C 80 5C 80 5C 80 5C 80 5E 80 5E 80
     0x07B9: 60 80 5E 80 60 80 5D 80 5E 80 5D 80 5E 80 5C 80
     0x07C9: 5C 80 5C 80 5C 80 5C 80 5D 80 5D 80 5D 80 5D 80
     0x07D9: 5C 80 5C 80 5C 80 5C 80 5C 80 5C 80 5C 80 00 80
     0x07E9: 00 80 01 80 01 80 01 80 01 80 0A 80 0A 80 0D 80
     0x07F9: 61 80 01 80 01 80 0A 80 0A 80 0D 80 0D 80 62 80
     0x0809: 01 80 01 80 01 80 01 80 01 80 01 80 0A 80 0A 80
     0x0819: 0D 80 61 80 01 80 01 80 0A 80 0A 80 0D 80 0D 80
     0x0829: 62 80 0D 80 61 80 62 80 01 80 01 80 0A 80 0D 80
     0x0839: 62 80 01 80 01 80 01 80 01 80 01 80 0D 80 0D 80
     0x0849: 62 80 0D 80 62 80 0A 80 0D 80 0A 80 0D 80 01 80
     0x0859: 01 80
# Dead code (unreachable instructions):
     0x00CE [0x01] GOTO 0x00E0
# Dead code (unreachable instructions):
     0x017E [0x01] GOTO 0x01B1
     0x019F [0x01] GOTO 0x01B1
# Dead code (unreachable instructions):
     0x0595 [0x1A] CALL_SUBROUTINE(address=0x051D)
     0x0598 [0x9D] ExtData[1]->WorkLocal[13] = 0x07E9[ExtData[1]->WorkLocal[10]] // Read WORD
     0x05A0 [0x1B] RETURN
# Dead code (unreachable instructions):
     0x0626 [0x14] ExtData[1]->WorkLocal[11] *= 8*
     0x062B [0x03] ExtData[1]->WorkLocal[10] = 0*
     0x0630 [0x03] ExtData[1]->WorkLocal[22] = 0*
     0x0635 [0x03] ExtData[1]->WorkLocal[21] = 0*
     0x063A [0x02] IF !(ExtData[1]->WorkLocal[21] >= 32*) GOTO 0x0674
     0x0642 [0x3E] IF !(ExtData[1]->WorkLocal[15] bit ExtData[1]->WorkLocal[21]) GOTO 0x064C
     0x0649 [0x01] GOTO 0x066E
     0x064C [0x02] IF !(ExtData[1]->WorkLocal[22] < ExtData[1]->WorkLocal[11]) GOTO 0x066B
     0x0654 [0x3C] SET_BIT_FLAG_CONDITIONAL(target_work_offset=Work_Zone[1], bit_index_work_offset=ExtData[1]->WorkLocal[21], condition_work_offset=1*)
     0x065B [0x0B] ExtData[1]->WorkLocal[10]++
     0x065E [0x02] IF !(ExtData[1]->WorkLocal[10] <= 8*) GOTO 0x066B
     0x0666 [0x03] ExtData[1]->WorkLocal[21] = 32*
     0x066B [0x0B] ExtData[1]->WorkLocal[22]++
     0x066E [0x0B] ExtData[1]->WorkLocal[21]++
     0x0671 [0x01] GOTO 0x063A
     0x0674 [0x43] SEND_EVENT_UPDATE: Send pending tag to server (packet 0x005B)
     0x0676 [0x43] SEND_EVENT_UPDATE: Check pending flag (skip if not pending)
     0x0678 [0x9D] 0x06B9[0* * 2] = Work_Zone[2] // Write WORD
     0x0680 [0x9D] 0x06B9[1* * 2] = Work_Zone[3] // Write WORD
     0x0688 [0x9D] 0x06B9[2* * 2] = Work_Zone[4] // Write WORD
     0x0690 [0x9D] 0x06B9[3* * 2] = Work_Zone[5] // Write WORD
     0x0698 [0x9D] 0x06B9[4* * 2] = Work_Zone[6] // Write WORD
     0x06A0 [0x9D] 0x06B9[5* * 2] = Work_Zone[7] // Write WORD
     0x06A8 [0x9D] 0x06B9[6* * 2] = Work_Zone[8] // Write WORD
     0x06B0 [0x9D] 0x06B9[7* * 2] = Work_Zone[9] // Write WORD
     0x06B8 [0x1B] RETURN
# Dead code (unreachable instructions):
     0x085B [0x01] GOTO 0x0180
     0x085E [0x80] LOAD_WAIT(entity=Unknown NPC (ID: 2148171777/0x800A8001))
     0x0863 [0x0A] 0x0A80 &= ~(1 << 0x0A80)
     0x0868 [0x80] LOAD_WAIT(entity=Unknown NPC (ID: 2147581953/0x80018001))
     0x086D [0x01] GOTO 0x0180
     0x0870 [0x80] LOAD_WAIT(entity=Unknown NPC (ID: 2147581953/0x80018001))
     0x0875 [0x01] GOTO 0x0080
     0x0878 [0x80] LOAD_WAIT(entity=Unknown NPC (ID: 2147581960/0x80018008))
     0x087D [0x00] END_REQSTACK()
     0x087E [0x80] LOAD_WAIT(entity=Unknown NPC (ID: 2153938957/0x8062800D))
     0x0883 [0x63] PLAY_ANIMATION_WAIT(animation=25728)
     0x0886 [0x80] LOAD_WAIT(entity=Unknown NPC (ID: 2154135552/0x80658000))
     0x088B [0x00] END_REQSTACK()
     0x088C [0x80] LOAD_WAIT(entity=Unknown NPC (ID: 2154201088/0x80668000))
     0x0891 [0x00] END_REQSTACK()
     0x0892 [0x80] LOAD_WAIT(entity=Unknown NPC (ID: 2147516519/0x80008067))
     0x0897 [0x00] END_REQSTACK()
     0x0898 [0x80] LOAD_WAIT(entity=Unknown NPC (ID: 2147516416/0x80008000))
     0x089D [0x00] END_REQSTACK()
     0x089E [0x80] LOAD_WAIT(entity=Unknown NPC (ID: 2147516416/0x80008000))
     0x08A3 [0x00] END_REQSTACK()
     0x08A4 [0x80] LOAD_WAIT(entity=Unknown NPC (ID: 2147516416/0x80008000))
     0x08A9 [0x00] END_REQSTACK()
     0x08AA [0x80] LOAD_WAIT(entity=Unknown NPC (ID: 2147516416/0x80008000))
     0x08AF [0x00] END_REQSTACK()
     0x08B0 [0x80] LOAD_WAIT(entity=Unknown NPC (ID: 2147516416/0x80008000))
     0x08B5 [0x00] END_REQSTACK()
     0x08B6 [0x80] LOAD_WAIT(entity=Unknown NPC (ID: 2148106240/0x80098000))
     0x08BB [0x02] IF !(0x80 == 0x0E80) GOTO 0x8062
     0x08C3 [0x68] SHOW_HUD_ELEMENTS()
     0x08C4 [0x80] LOAD_WAIT(entity=Unknown NPC (ID: 2147516521/0x80008069))
     0x08C9 [0x6A] CHANGE_SOUND_VOLUME: Set 0x6680 volume to 0x80, fade_time=0x6B80
     0x08D0 [0x80] LOAD_WAIT(entity=Unknown NPC (ID: 2154266624/0x80678000))
     0x08D5 [0x5D] SET_MUSIC_VOLUME(volume=0x80, fade_time=0x80)
     0x08DA [0x80] LOAD_WAIT(entity=Unknown NPC (ID: 2154659948/0x806D806C))
     0x08DF [0x00] END_REQSTACK()
     0x08E0 [0x80] LOAD_WAIT(entity=Unknown NPC (ID: 2147516416/0x80008000))
     0x08E5 [0x00] END_REQSTACK()
     0x08E6 [0x80] LOAD_WAIT(entity=Unknown NPC (ID: 2154791022/0x806F806E))
     0x08EB [0x70] WAIT_ENTITY_RENDER_FLAG: Wait while EventEntity->Render.Flags3 bit 2 is set (cancel turn if not)
     0x08EC [0x80] LOAD_WAIT(entity=Unknown NPC (ID: 2154987633/0x80728071))
     0x08F1 [0x00] END_REQSTACK()
     0x08F2 [0x80] LOAD_WAIT(entity=Unknown NPC (ID: 2147516416/0x80008000))
     0x08F7 [0x00] END_REQSTACK()
     0x08F8 [0x80] LOAD_WAIT(entity=Unknown NPC (ID: 2148040714/0x8008800A))
     0x08FD [0x00] END_REQSTACK()
     0x08FE [0x80] LOAD_WAIT(entity=Unknown NPC (ID: 2153938959/0x8062800F))
     0x0903 [0x73] Unknown NPC (ID: 1954545792/0x74800080) casts magic 0x6380 on Unknown NPC (ID: 1803550848/0x6B800080)
     0x090E [0x80] LOAD_WAIT(entity=Unknown NPC (ID: 2147516533/0x80008075))
     0x0913 [0x76] CHECK_ENTITY_RENDER_FLAGS: Wait until Unknown NPC (ID: 8412544/0x00805D80) Render.Flags0 and Render.Flags3 conditions are met
     0x0918 [0x80] LOAD_WAIT(entity=Unknown NPC (ID: 2154594304/0x806C8000))
     0x091D [0x6D] DEPRECATED_OPCODE(unused1=0x80, unused2=0x80, unused3=0x80)
     0x0924 [0x80] LOAD_WAIT(entity=Unknown NPC (ID: 2154725376/0x806E8000))
     0x0929 [0x6F] WAIT_FRAME_DELAY: Yield until WaitTime reaches zero
     0x092A [0x80] LOAD_WAIT(entity=Unknown NPC (ID: 2154922096/0x80718070))
     0x092F [0x72] LOAD_EVENT_WEATHER: Unknown mode 128, weather_id=67*
     0x0933 [0x78] ENABLE_GAME_TIMER_RESET_WEATHER()
     0x0934 [0x80] LOAD_WAIT(entity=Unknown NPC (ID: 2155511929/0x807A8079))
     0x0939 [0x0B] 0x0980++
     0x093C [0x80] LOAD_WAIT(entity=Unknown NPC (ID: 2155577344/0x807B8000))
     0x0941 [0x62] LOAD_EVENT_SCHEDULER: Load scheduler 0x75806B80 with entities [Unknown NPC (ID: 8415360/0x00806880), Unknown NPC (ID: 2122349952/0x7E807D80)], work=[0x7C80, 0x80]
     0x0952 [0x80] LOAD_WAIT(entity=Unknown NPC (ID: 2155839606/0x807F8076))
     0x0957 [0x80] LOAD_WAIT(entity=Unknown NPC (ID: 2189459840/0x82808180))
     0x095C [0x80] LOAD_WAIT(entity=Unknown NPC (ID: 2153676931/0x805E8083))
     0x0961 [0x84] ADJUST_RENDER_FLAGS3_BIT0()
     0x0962 [0x80] LOAD_WAIT(entity=Unknown NPC (ID: 2156298373/0x80868085))
     0x0967 [0x6E] Unknown NPC (ID: 1887465344/0x70806F80) uses emote 0x7180
     0x096E [0x80] LOAD_WAIT(entity=Unknown NPC (ID: 2155315314/0x80778072))
     0x0973 [0x78] ENABLE_GAME_TIMER_RESET_WEATHER()
     0x0974 [0x80] LOAD_WAIT(entity=Unknown NPC (ID: 2155511929/0x807A8079))
     0x0979 [0x0C] 0x0A80--
     0x097C [0x80] LOAD_WAIT(entity=Unknown NPC (ID: 2153873499/0x8061805B))
     0x0981 [0x62] LOAD_EVENT_SCHEDULER: Load scheduler 0x89806B80 with entities [Unknown NPC (ID: 343962496/0x14807380), Unknown NPC (ID: 2290113664/0x88805C80)], work=[References[1920], References[2688]]
     0x0992 [0x80] LOAD_WAIT(entity=Unknown NPC (ID: 2155839627/0x807F808B))
     0x0997 [0x80] LOAD_WAIT(entity=Unknown NPC (ID: 2189459840/0x82808180))
     0x099C [0x80] LOAD_WAIT(entity=Unknown NPC (ID: 2153676931/0x805E8083))
     0x09A1 [0x84] ADJUST_RENDER_FLAGS3_BIT0()
     0x09A2 [0x80] LOAD_WAIT(entity=Unknown NPC (ID: 2156298373/0x80868085))
     0x09A7 [0x6E] Unknown NPC (ID: 1887465344/0x70806F80) uses emote 0x7180
     0x09AE [0x80] LOAD_WAIT(entity=Unknown NPC (ID: 2155315314/0x80778072))
     0x09B3 [0x78] ENABLE_GAME_TIMER_RESET_WEATHER()
     0x09B4 [0x80] LOAD_WAIT(entity=Unknown NPC (ID: 2155511929/0x807A8079))
     0x09B9 [0x05] 0x0B80 = 1
     0x09BC [0x80] LOAD_WAIT(entity=Unknown NPC (ID: 2156691547/0x808C805B))
     0x09C1 [0x62] LOAD_EVENT_SCHEDULER: Load scheduler 0x89806B80 with entities [Unknown NPC (ID: 343964800/0x14807C80), Unknown NPC (ID: 2407566976/0x8F808E80)], work=[References[3456], References[2688]]
     0x09D2 [0x80] LOAD_WAIT(entity=Unknown NPC (ID: 2155839627/0x807F808B))
     0x09D7 [0x90] EventEntity->Render.Flags0 |= 0x04; EventEntity->Render.Flags1 |= 0x08
     0x09D8 [0x80] LOAD_WAIT(entity=Unknown NPC (ID: 2156036241/0x80828091))
     0x09DD [0x83] 0x5E80 = GetGameTime()
     0x09E0 [0x80] LOAD_WAIT(entity=Unknown NPC (ID: 2156232836/0x80858084))
     0x09E5 [0x86] Unknown NPC (ID: 2154791022/0x806F806E)->Render.Flags3 = Flags3  // No change (flag=0)
     0x09EB [0x70] WAIT_ENTITY_RENDER_FLAG: Wait while EventEntity->Render.Flags3 bit 2 is set (cancel turn if not)
     0x09EC [0x80] LOAD_WAIT(entity=Unknown NPC (ID: 2154987633/0x80728071))
     0x09F1 [0x77] SET_EVENT_TIME_WEATHER(hour=0x7880, weather=0x7980)
     0x09F6 [0x80] LOAD_WAIT(entity=Unknown NPC (ID: 2148106362/0x8009807A))
     0x09FB [0x0B] 0x6880++
     0x09FE [0x80] LOAD_WAIT(entity=Unknown NPC (ID: 2155774076/0x807E807C))
     0x0A03 [0x92] Unknown NPC (ID: 2154201181/0x8066805D)->Render.Flags3 ^= 0x80
     0x0A09 [0x93] DISPLAY_ITEM_INFO(item_id=47*)
     0x0A0C [0x80] LOAD_WAIT(entity=Unknown NPC (ID: 2154725505/0x806E8081))
     0x0A11 [0x70] WAIT_ENTITY_RENDER_FLAG: Wait while EventEntity->Render.Flags3 bit 2 is set (cancel turn if not)
     0x0A12 [0x80] LOAD_WAIT(entity=Unknown NPC (ID: 2156036210/0x80828072))
     0x0A17 [0x84] ADJUST_RENDER_FLAGS3_BIT0()
     0x0A18 [0x80] LOAD_WAIT(entity=Unknown NPC (ID: 2156560518/0x808A8086))
     0x0A1D [0x6F] WAIT_FRAME_DELAY: Yield until WaitTime reaches zero
     0x0A1E [0x80] LOAD_WAIT(entity=Unknown NPC (ID: 2157215857/0x80948071))
     0x0A23 [0x83] References[1408] = GetGameTime()
     0x0A26 [0x80] LOAD_WAIT(entity=Unknown NPC (ID: 2156494997/0x80898095))
     0x0A2B [0x62] LOAD_EVENT_SCHEDULER: Load scheduler 0x0A800080 with entities [Unknown NPC (ID: 2055239552/0x7A807780), Unknown NPC (ID: 2038462592/0x79807880)], work=[0x9680, 0x0E80]
     0x0A3C [0x80] LOAD_WAIT(entity=Unknown NPC (ID: 2148433928/0x800E8008))
     0x0A41 [0x0A] 0x0A80 &= ~(1 << 0x0E80)
     0x0A46 [0x80] LOAD_WAIT(entity=Unknown NPC (ID: 2148433928/0x800E8008))
     0x0A4B [0x08] 0x0A80 -= 0x0E80
     0x0A50 [0x80] LOAD_WAIT(entity=Unknown NPC (ID: 2148433928/0x800E8008))
     0x0A55 [0x0A] 0x0880 &= ~(1 << 0x0880)
     0x0A5A [0x80] LOAD_WAIT(entity=Unknown NPC (ID: 2148040712/0x80088008))
     0x0A5F [0x08] 0x0880 -= 0x0880
     0x0A64 [0x80] LOAD_WAIT(entity=Unknown NPC (ID: 2148171784/0x800A8008))
     0x0A69 [0x0A] 0x0A80 &= ~(1 << 0x0A80)
     0x0A6E [0x80] LOAD_WAIT(entity=Unknown NPC (ID: 2148171786/0x800A800A))
     0x0A73 [0x0A] 0x0A80 &= ~(1 << 0x0A80)
     0x0A78 [0x80] LOAD_WAIT(entity=Unknown NPC (ID: 2155577355/0x807B800B))
     0x0A7D [0x09] 0x7B80 |= (1 << 0x0B80)
     0x0A82 [0x80] LOAD_WAIT(entity=Unknown NPC (ID: 2155577355/0x807B800B))
     0x0A87 [0x09] 0x7B80 |= (1 << 0x0980)
     0x0A8C [0x80] LOAD_WAIT(entity=Unknown NPC (ID: 2155577355/0x807B800B))
     0x0A91 [0x09] 0x7B80 |= (1 << 0x0B80)
     0x0A96 [0x80] LOAD_WAIT(entity=Unknown NPC (ID: 2148106249/0x80098009))
     0x0A9B [0x09] 0x0980 |= (1 << 0x0980)
     0x0AA0 [0x80] LOAD_WAIT(entity=Unknown NPC (ID: 2148106249/0x80098009))
     0x0AA5 [0x09] 0x0B80 |= (1 << 0x0B80)
     0x0AAA [0x80] LOAD_WAIT(entity=Unknown NPC (ID: 2148237323/0x800B800B))
     0x0AAF [0x0B] 0x0B80++
     0x0AB2 [0x80] LOAD_WAIT(entity=Unknown NPC (ID: 2148237323/0x800B800B))
     0x0AB7 [0x0B] 0x0C80++
     0x0ABA [0x80] LOAD_WAIT(entity=Unknown NPC (ID: 2148106380/0x8009808C))
     0x0ABF [0x8C] CRAFTING_HANDLER(mode=0x80) // Unknown mode 128
     0x0AC1 [0x0C] 0x0C80--
     0x0AC4 [0x80] LOAD_WAIT(entity=Unknown NPC (ID: 2148106380/0x8009808C))
     0x0AC9 [0x8C] CRAFTING_HANDLER(mode=0x80) // Unknown mode 128
     0x0ACB [0x09] 0x0C80 |= (1 << References[3200])
     0x0AD0 [0x80] LOAD_WAIT(entity=Unknown NPC (ID: 2156691465/0x808C8009))
     0x0AD5 [0x0C] 0x0980--
     0x0AD8 [0x80] LOAD_WAIT(entity=Unknown NPC (ID: 2148106249/0x80098009))
     0x0ADD [0x09] 0x0980 |= (1 << 0x0980)
     0x0AE2 [0x80] LOAD_WAIT(entity=Unknown NPC (ID: 2148106249/0x80098009))
     0x0AE7 [0x0C] 0x0C80--
     0x0AEA [0x80] LOAD_WAIT(entity=Unknown NPC (ID: 2148302860/0x800C800C))
     0x0AEF [0x0C] 0x0C80--
     0x0AF2 [0x80] LOAD_WAIT(entity=Unknown NPC (ID: 2148302860/0x800C800C))
     0x0AF7 [0x0C] 0x0580--
     0x0AFA [0x80] LOAD_WAIT(entity=Unknown NPC (ID: 2148171926/0x800A8096))
     0x0AFF [0x96] UNSET_EVENT_NPC: Restore NPC after event (removes event NPC status)
     0x0B00 [0x80] LOAD_WAIT(entity=Unknown NPC (ID: 2147844101/0x80058005))
     0x0B05 [0x96] UNSET_EVENT_NPC: Restore NPC after event (removes event NPC status)
     0x0B06 [0x80] LOAD_WAIT(entity=Unknown NPC (ID: 2157346826/0x8096800A))
     0x0B0B [0x0A] 0x0580 &= ~(1 << 0x9680)
     0x0B10 [0x80] LOAD_WAIT(entity=Unknown NPC (ID: 2157346826/0x8096800A))
     0x0B15 [0x05] 0x0A80 = 1
     0x0B18 [0x80] LOAD_WAIT(entity=Unknown NPC (ID: 2148171786/0x800A800A))
     0x0B1D [0x0A] 0x0A80 &= ~(1 << 0x0A80)
     0x0B22 [0x80] LOAD_WAIT(entity=Unknown NPC (ID: 2148171786/0x800A800A))
     0x0B27 [0x05] 0x0580 = 1
     0x0B2A [0x80] LOAD_WAIT(entity=Unknown NPC (ID: 2147844101/0x80058005))
     0x0B2F [0x05] 0x0580 = 1
     0x0B32 [0x80] LOAD_WAIT(entity=Unknown NPC (ID: 2147844101/0x80058005))
     0x0B37 [0x05] 0x0D80 = 1
     0x0B3A [0x80] LOAD_WAIT(entity=Unknown NPC (ID: 2148171876/0x800A8064))
     0x0B3F [0x64] CALCULATE_DISTANCE: 0x0D80 = distance between point1(0x0D80, 0x6480) and point2(0x0A80, 0x6480)
     0x0B4A [0x80] LOAD_WAIT(entity=Unknown NPC (ID: 2148368394/0x800D800A))
     0x0B4F [0x64] CALCULATE_DISTANCE: 0x0A80 = distance between point1(0x6480, 0x0D80) and point2(0x0A80, 0x0A80)
     0x0B5A [0x80] LOAD_WAIT(entity=Unknown NPC (ID: 2148171786/0x800A800A))
     0x0B5F [0x0A] 0x0A80 &= ~(1 << 0x0A80)
     0x0B64 [0x80] LOAD_WAIT(entity=Unknown NPC (ID: 2148368394/0x800D800A))
     0x0B69 [0x0D] 0x0D80 &= 0x0D80
     0x0B6E [0x80] LOAD_WAIT(entity=Unknown NPC (ID: 2148368397/0x800D800D))
     0x0B73 [0x0D] 0x0D80 &= 0x0D80
     0x0B78 [0x80] LOAD_WAIT(entity=Unknown NPC (ID: 2154004494/0x8063800E))
     0x0B7D [0x0B] 0x6380++
     0x0B80 [0x80] LOAD_WAIT(entity=Unknown NPC (ID: 2148433934/0x800E800E))
     0x0B85 [0x63] PLAY_ANIMATION_WAIT(animation=2944)
     0x0B88 [0x80] LOAD_WAIT(entity=Unknown NPC (ID: 2148237411/0x800B8063))
     0x0B8D [0x0E] 0x6380 |= 0x0B80
     0x0B92 [0x80] LOAD_WAIT(entity=Unknown NPC (ID: 2148434019/0x800E8063))
     0x0B97 [0x0B] 0x0B80++
     0x0B9A [0x80] LOAD_WAIT(entity=Unknown NPC (ID: 2148237323/0x800B800B))
     0x0B9F [0x0B] 0x0B80++
     0x0BA2 [0x80] LOAD_WAIT(entity=Unknown NPC (ID: 2148237323/0x800B800B))
     0x0BA7 [0x0E] 0x0E80 |= 0x0E80
     0x0BAC [0x80] LOAD_WAIT(entity=Unknown NPC (ID: 2148433934/0x800E800E))
     0x0BB1 [0x0E] 0x0E80 |= 0x0E80
     0x0BB6 [0x80] LOAD_WAIT(entity=Unknown NPC (ID: 2148827150/0x8014800E))
     0x0BBB [0x0E] References[3200] |= 0x6A80
     0x0BC0 [0x80] LOAD_WAIT(entity=Unknown NPC (ID: 2148827235/0x80148063))
     0x0BC5 [0x14] 0x0980 *= 0x7380
     0x0BCA [0x80] LOAD_WAIT(entity=Unknown NPC (ID: 2148827156/0x80148014))
     0x0BCF [0x7C] Unknown NPC (ID: 2148827241/0x80148069)->Render.Flags2 ^= 0x00
     0x0BD5 [0x14] 0x1480 *= 0x1480
     0x0BDA [0x80] LOAD_WAIT(entity=Unknown NPC (ID: 2156757012/0x808D8014))
     0x0BDF [0x14] 0x1480 *= 0x1480
     0x0BE4 [0x80] LOAD_WAIT(entity=Unknown NPC (ID: 2154332180/0x80688014))
     0x0BE9 [0x14] 0x1480 *= 0x1480
     0x0BEE [0x80] LOAD_WAIT(entity=Unknown NPC (ID: 2148827156/0x80148014))
     0x0BF3 [0x14] 0x1480 *= 0x1480
     0x0BF8 [0x80] LOAD_WAIT(entity=Unknown NPC (ID: 2148827156/0x80148014))
     0x0BFD [0x14] 0x1480 *= 0x1480
     0x0C02 [0x80] LOAD_WAIT(entity=Unknown NPC (ID: 2148827156/0x80148014))
     0x0C07 [0x14] 0x1480 *= 0x1480
     0x0C0C [0x80] LOAD_WAIT(entity=Unknown NPC (ID: 2148827156/0x80148014))
     0x0C11 [0x14] 0x1480 *= 0x1480
     0x0C16 [0x80] LOAD_WAIT(entity=Unknown NPC (ID: 2155118612/0x80748014))
     0x0C1B [0x8E] EventEntity->StatusEvent = 45
     0x0C1C [0x80] LOAD_WAIT(entity=Unknown NPC (ID: 2155708508/0x807D805C))
     0x0C21 [0x87] WORLD_PASS_HANDLER_A: Send world pass packet 0x1B (Para=0)
     0x0C22 [0x80] LOAD_WAIT(entity=Unknown NPC (ID: 2148368482/0x800D8062))
     0x0C27 [0x7B] Unknown NPC (ID: 343956352/0x14805B80) stops talking
     0x0C2C [0x80] LOAD_WAIT(entity=Unknown NPC (ID: 2147516416/0x80008000))
     0x0C31 [0x00] END_REQSTACK()
     0x0C32 [0x80] LOAD_WAIT(entity=Unknown NPC (ID: 2147516416/0x80008000))
     0x0C37 [0x00] END_REQSTACK()
     0x0C38 [0x80] LOAD_WAIT(entity=Unknown NPC (ID: 2147844104/0x80058008))
     0x0C3D [0x00] END_REQSTACK()
     0x0C3E [0x80] LOAD_WAIT(entity=Unknown NPC (ID: 2154135562/0x8065800A))
     0x0C43 [0x64] CALCULATE_DISTANCE: 0x0280 = distance between point1(0x0C80, 0x9680) and point2(0x1480, 0x80)
     0x0C4E [0x80] LOAD_WAIT(entity=Unknown NPC (ID: 2147516416/0x80008000))
     0x0C53 [0x00] END_REQSTACK()
     0x0C54 [0x80] LOAD_WAIT(entity=Unknown NPC (ID: 2147516416/0x80008000))
```
