# 0x7FFFFFF0 - Zone Events

## Common Data

| Field            | Value                 |
|------------------|-----------------------|
| Zone             | Grauberg [S] (ID: 89) |
| Block Size       | 13568 bytes           |
| Total Events     | 76                    |
| References Count | 381                   |

## List of Events

| Event ID                   | Entrypoint   |   Size |   Instructions |
|----------------------------|--------------|--------|----------------|
| [65535](#event-65535)      | 0x0000       |      1 |              1 |
| [65534](#event-65534)      | 0x0001       |      1 |              1 |
| [101](#event-101)          | 0x0002       |    102 |             15 |
| [65535.1](#event-655351)   | 0x0068       |     37 |              5 |
| [65535.2](#event-655352)   | 0x008D       |     37 |              5 |
| [1](#event-1)              | 0x00B2       |    705 |             80 |
| [65535.3](#event-655353)   | 0x0373       |     14 |              4 |
| [65535.4](#event-655354)   | 0x0381       |     22 |              6 |
| [65535.5](#event-655355)   | 0x0397       |     14 |              4 |
| [3](#event-3)              | 0x03A5       |    502 |             56 |
| [4](#event-4)              | 0x059B       |    479 |             56 |
| [6](#event-6)              | 0x077A       |   1874 |            215 |
| [500](#event-500)          | 0x0ECC       |    503 |            109 |
| [11](#event-11)            | 0x10C3       |   1246 |            148 |
| [12](#event-12)            | 0x15A1       |   1747 |            201 |
| [65535.6](#event-655356)   | 0x1C74       |     14 |              4 |
| [13](#event-13)            | 0x1C82       |   1289 |            143 |
| [65535.7](#event-655357)   | 0x218B       |     37 |              5 |
| [65535.8](#event-655358)   | 0x21B0       |     49 |              7 |
| [65535.9](#event-655359)   | 0x21E1       |      7 |              3 |
| [65535.10](#event-6553510) | 0x21E8       |    155 |             35 |
| [65535.11](#event-6553511) | 0x2283       |     24 |              4 |
| [65535.12](#event-6553512) | 0x229B       |     24 |              4 |
| [65535.13](#event-6553513) | 0x22B3       |     16 |              4 |
| [65535.14](#event-6553514) | 0x22C3       |     45 |              7 |
| [65535.15](#event-6553515) | 0x22F0       |     38 |              5 |
| [65535.16](#event-6553516) | 0x2316       |     38 |              5 |
| [65535.17](#event-6553517) | 0x233C       |     38 |              5 |
| [65535.18](#event-6553518) | 0x2362       |     26 |              8 |
| [65535.19](#event-6553519) | 0x237C       |     15 |              5 |
| [65535.20](#event-6553520) | 0x238B       |     15 |              5 |
| [65535.21](#event-6553521) | 0x239A       |      9 |              3 |
| [65535.22](#event-6553522) | 0x23A3       |     37 |              5 |
| [65535.23](#event-6553523) | 0x23C8       |      6 |              2 |
| [65535.24](#event-6553524) | 0x23CE       |      6 |              2 |
| [65535.25](#event-6553525) | 0x23D4       |     22 |              6 |
| [65535.26](#event-6553526) | 0x23EA       |     14 |              4 |
| [65535.27](#event-6553527) | 0x23F8       |     29 |              6 |
| [65535.28](#event-6553528) | 0x2415       |     40 |              9 |
| [65535.29](#event-6553529) | 0x243D       |     34 |              7 |
| [65535.30](#event-6553530) | 0x245F       |    209 |             25 |
| [65535.31](#event-6553531) | 0x2530       |     29 |              6 |
| [65535.32](#event-6553532) | 0x254D       |     27 |              5 |
| [65535.33](#event-6553533) | 0x2568       |     29 |              6 |
| [65535.34](#event-6553534) | 0x2585       |     34 |              7 |
| [65535.35](#event-6553535) | 0x25A7       |     70 |             15 |
| [65535.36](#event-6553536) | 0x25ED       |      3 |              2 |
| [65535.37](#event-6553537) | 0x25F0       |      3 |              2 |
| [65535.38](#event-6553538) | 0x25F3       |     14 |              4 |
| [65535.39](#event-6553539) | 0x2601       |     15 |              5 |
| [65535.40](#event-6553540) | 0x2610       |    214 |             26 |
| [65535.41](#event-6553541) | 0x26E6       |    227 |             27 |
| [65535.42](#event-6553542) | 0x27C9       |     14 |              4 |
| [65535.43](#event-6553543) | 0x27D7       |     14 |              4 |
| [65535.44](#event-6553544) | 0x27E5       |     14 |              4 |
| [65535.45](#event-6553545) | 0x27F3       |     16 |              3 |
| [65535.46](#event-6553546) | 0x2803       |     16 |              3 |
| [65535.47](#event-6553547) | 0x2813       |     16 |              3 |
| [65535.48](#event-6553548) | 0x2823       |     38 |              5 |
| [65535.49](#event-6553549) | 0x2849       |     38 |              5 |
| [65535.50](#event-6553550) | 0x286F       |     38 |              5 |
| [65535.51](#event-6553551) | 0x2895       |     37 |              5 |
| [65535.52](#event-6553552) | 0x28BA       |     37 |              5 |
| [65535.53](#event-6553553) | 0x28DF       |     14 |              4 |
| [65535.54](#event-6553554) | 0x28ED       |     14 |              4 |
| [65535.55](#event-6553555) | 0x28FB       |     14 |              4 |
| [65535.56](#event-6553556) | 0x2909       |     14 |              4 |
| [65535.57](#event-6553557) | 0x2917       |     14 |              4 |
| [65535.58](#event-6553558) | 0x2925       |     14 |              4 |
| [65535.59](#event-6553559) | 0x2933       |     14 |              4 |
| [65535.60](#event-6553560) | 0x2941       |      7 |              3 |
| [65535.61](#event-6553561) | 0x2948       |     31 |              6 |
| [65535.62](#event-6553562) | 0x2967       |     27 |              6 |
| [65535.63](#event-6553563) | 0x2982       |     18 |              5 |
| [65535.64](#event-6553564) | 0x2994       |     17 |              5 |
| [264](#event-264)          | 0x29A5       |   1061 |            204 |

## DAT References (imed_data)

|   Index | Hex Value   |   Dec Value |
|---------|-------------|-------------|
|       0 | 0x1E17      |        7703 |
|       1 | 0x00C8      |         200 |
|       2 | 0x0000      |           0 |
|       3 | 0x0001      |           1 |
|       4 | 0x005A      |          90 |
|       5 | 0x003C      |          60 |
|       6 | 0x00C9      |         201 |
|       7 | 0x0078      |         120 |
|       8 | 0x0013      |          19 |
|       9 | 0xFFFB315D  |  4294652253 |
|      10 | 0xFFF826C7  |  4294452935 |
|      11 | 0x3F16      |       16150 |
|      12 | 0x00BB      |         187 |
|      13 | 0x001E      |          30 |
|      14 | 0x007B      |         123 |
|      15 | 0x014B      |         331 |
|      16 | 0x000F      |          15 |
|      17 | 0x1E38      |        7736 |
|      18 | 0x0009      |           9 |
|      19 | 0x1E39      |        7737 |
|      20 | 0x1E3A      |        7738 |
|      21 | 0x1E3B      |        7739 |
|      22 | 0xFFFB292D  |  4294650157 |
|      23 | 0xFFF85C29  |  4294466601 |
|      24 | 0x407D      |       16509 |
|      25 | 0x086C      |        2156 |
|      26 | 0xFFFB4110  |  4294656272 |
|      27 | 0xFFF84FF7  |  4294463479 |
|      28 | 0x3EEC      |       16108 |
|      29 | 0x0B48      |        2888 |
|      30 | 0x1E3C      |        7740 |
|      31 | 0x0045      |          69 |
|      32 | 0x1E3D      |        7741 |
|      33 | 0x1E3E      |        7742 |
|      34 | 0x000D      |          13 |
|      35 | 0xFFFB36DE  |  4294653662 |
|      36 | 0xFFF83300  |  4294456064 |
|      37 | 0x3FC5      |       16325 |
|      38 | 0xFFFB3DCA  |  4294655434 |
|      39 | 0xFFF858BB  |  4294465723 |
|      40 | 0x3F9F      |       16287 |
|      41 | 0xFFFB3F6B  |  4294655851 |
|      42 | 0xFFF86B4F  |  4294470479 |
|      43 | 0x3D77      |       15735 |
|      44 | 0x69C1A     |      433178 |
|      45 | 0x13318     |       78616 |
|      46 | 0xFFFF6180  |  4294926720 |
|      47 | 0x003E      |          62 |
|      48 | 0x6AED9     |      437977 |
|      49 | 0x13BB2     |       80818 |
|      50 | 0xFFFF62A5  |  4294927013 |
|      51 | 0x0FC7      |        4039 |
|      52 | 0x1E43      |        7747 |
|      53 | 0x1E44      |        7748 |
|      54 | 0x1E45      |        7749 |
|      55 | 0x1E46      |        7750 |
|      56 | 0x1E47      |        7751 |
|      57 | 0x1E48      |        7752 |
|      58 | 0x68656     |      427606 |
|      59 | 0x11202     |       70146 |
|      60 | 0xFFFF5525  |  4294923557 |
|      61 | 0x0F34      |        3892 |
|      62 | 0x007F      |         127 |
|      63 | 0x1E49      |        7753 |
|      64 | 0x1E4A      |        7754 |
|      65 | 0x1E4B      |        7755 |
|      66 | 0x1E4C      |        7756 |
|      67 | 0x1E4D      |        7757 |
|      68 | 0x1E4F      |        7759 |
|      69 | 0x0016      |          22 |
|      70 | 0x1E50      |        7760 |
|      71 | 0x1E51      |        7761 |
|      72 | 0x001D      |          29 |
|      73 | 0x1E52      |        7762 |
|      74 | 0x00FA      |         250 |
|      75 | 0x1E53      |        7763 |
|      76 | 0x1E54      |        7764 |
|      77 | 0x1E55      |        7765 |
|      78 | 0x1E56      |        7766 |
|      79 | 0x1E57      |        7767 |
|      80 | 0x001A      |          26 |
|      81 | 0x1E58      |        7768 |
|      82 | 0x0004      |           4 |
|      83 | 0x1E59      |        7769 |
|      84 | 0x0015      |          21 |
|      85 | 0x1E5A      |        7770 |
|      86 | 0x1E5B      |        7771 |
|      87 | 0x1E5C      |        7772 |
|      88 | 0x1E5D      |        7773 |
|      89 | 0x1E5E      |        7774 |
|      90 | 0x1E5F      |        7775 |
|      91 | 0xFFFB1FF5  |  4294647797 |
|      92 | 0xFFF8133E  |  4294447934 |
|      93 | 0x3E7F      |       15999 |
|      94 | 0x00B0      |         176 |
|      95 | 0xFFFB1FCE  |  4294647758 |
|      96 | 0xFFF80D8A  |  4294446474 |
|      97 | 0xFFFB1BF6  |  4294646774 |
|      98 | 0xFFF81588  |  4294448520 |
|      99 | 0x00A3      |         163 |
|     100 | 0x1E60      |        7776 |
|     101 | 0x1E61      |        7777 |
|     102 | 0xFFFB37D7  |  4294653911 |
|     103 | 0xFFF827FB  |  4294453243 |
|     104 | 0x3F91      |       16273 |
|     105 | 0x1E62      |        7778 |
|     106 | 0x1E63      |        7779 |
|     107 | 0x1E64      |        7780 |
|     108 | 0x1E65      |        7781 |
|     109 | 0x1E66      |        7782 |
|     110 | 0x1E67      |        7783 |
|     111 | 0x1E68      |        7784 |
|     112 | 0x1E6C      |        7788 |
|     113 | 0x1E6D      |        7789 |
|     114 | 0x0002      |           2 |
|     115 | 0x0003      |           3 |
|     116 | 0x1E6F      |        7791 |
|     117 | 0x1E6E      |        7790 |
|     118 | 0x43F5      |       17397 |
|     119 | 0x1E70      |        7792 |
|     120 | 0x1E71      |        7793 |
|     121 | 0x1E72      |        7794 |
|     122 | 0x4269      |       17001 |
|     123 | 0x1E73      |        7795 |
|     124 | 0x1E74      |        7796 |
|     125 | 0x3E733     |      255795 |
|     126 | 0x7F040     |      520256 |
|     127 | 0x8347      |       33607 |
|     128 | 0x00E5      |         229 |
|     129 | 0x3E2DD     |      254685 |
|     130 | 0x7EAA1     |      518817 |
|     131 | 0x82FB      |       33531 |
|     132 | 0x3F22C     |      258604 |
|     133 | 0x7DE6B     |      515691 |
|     134 | 0x821C      |       33308 |
|     135 | 0x014D      |         333 |
|     136 | 0x1E79      |        7801 |
|     137 | 0x1E7A      |        7802 |
|     138 | 0x1E7B      |        7803 |
|     139 | 0x1E7C      |        7804 |
|     140 | 0x1E7D      |        7805 |
|     141 | 0x3F256     |      258646 |
|     142 | 0x80126     |      524582 |
|     143 | 0x8515      |       34069 |
|     144 | 0x3EF5E     |      257886 |
|     145 | 0x80694     |      525972 |
|     146 | 0x84FC      |       34044 |
|     147 | 0x00E4      |         228 |
|     148 | 0x3F6C8     |      259784 |
|     149 | 0x804E0     |      525536 |
|     150 | 0x84FA      |       34042 |
|     151 | 0x00E7      |         231 |
|     152 | 0x3EFCE     |      257998 |
|     153 | 0x7DBB0     |      514992 |
|     154 | 0x8213      |       33299 |
|     155 | 0x0ACF      |        2767 |
|     156 | 0x1E7E      |        7806 |
|     157 | 0x1E7F      |        7807 |
|     158 | 0x035E      |         862 |
|     159 | 0x1E80      |        7808 |
|     160 | 0x3F218     |      258584 |
|     161 | 0x7F902     |      522498 |
|     162 | 0x8496      |       33942 |
|     163 | 0x1E81      |        7809 |
|     164 | 0x1E82      |        7810 |
|     165 | 0x1E83      |        7811 |
|     166 | 0x1E84      |        7812 |
|     167 | 0x1E85      |        7813 |
|     168 | 0x1E86      |        7814 |
|     169 | 0xFFFE414C  |  4294852940 |
|     170 | 0x8CD08     |      576776 |
|     171 | 0xFFFFE1C0  |  4294959552 |
|     172 | 0x0C24      |        3108 |
|     173 | 0xFFFE45FB  |  4294854139 |
|     174 | 0x8C847     |      575559 |
|     175 | 0xFFFFE12F  |  4294959407 |
|     176 | 0x0C89      |        3209 |
|     177 | 0xFFFE3E0E  |  4294852110 |
|     178 | 0x90291     |      590481 |
|     179 | 0xFFFFE265  |  4294959717 |
|     180 | 0x024C      |         588 |
|     181 | 0xFFFE58CE  |  4294858958 |
|     182 | 0x8EFEB     |      585707 |
|     183 | 0xFFFFE14F  |  4294959439 |
|     184 | 0x0582      |        1410 |
|     185 | 0xFFFE3A62  |  4294851170 |
|     186 | 0x8E489     |      582793 |
|     187 | 0xFFFFE379  |  4294959993 |
|     188 | 0x0F99      |        3993 |
|     189 | 0xFFFE5518  |  4294858008 |
|     190 | 0x8D20E     |      578062 |
|     191 | 0xFFFFE2CD  |  4294959821 |
|     192 | 0x0B5F      |        2911 |
|     193 | 0x014F      |         335 |
|     194 | 0x0096      |         150 |
|     195 | 0x1ED0      |        7888 |
|     196 | 0x1ED1      |        7889 |
|     197 | 0x1ED2      |        7890 |
|     198 | 0x04FD      |        1277 |
|     199 | 0x010E      |         270 |
|     200 | 0x1ED3      |        7891 |
|     201 | 0x1ED4      |        7892 |
|     202 | 0x1ED5      |        7893 |
|     203 | 0x1ED6      |        7894 |
|     204 | 0x052C      |        1324 |
|     205 | 0x1ED7      |        7895 |
|     206 | 0x1ED8      |        7896 |
|     207 | 0x1ED9      |        7897 |
|     208 | 0xFFFE471A  |  4294854426 |
|     209 | 0x8AF36     |      569142 |
|     210 | 0xFFFFE1C5  |  4294959557 |
|     211 | 0x0C42      |        3138 |
|     212 | 0x0050      |          80 |
|     213 | 0x1EDA      |        7898 |
|     214 | 0xFFFE3B47  |  4294851399 |
|     215 | 0x8D638     |      579128 |
|     216 | 0xFFFFE276  |  4294959734 |
|     217 | 0x012D      |         301 |
|     218 | 0x0463      |        1123 |
|     219 | 0x1EDB      |        7899 |
|     220 | 0x1EDC      |        7900 |
|     221 | 0x0028      |          40 |
|     222 | 0xFFFE499F  |  4294855071 |
|     223 | 0x8D575     |      578933 |
|     224 | 0xFFFFE308  |  4294959880 |
|     225 | 0xFFFE5371  |  4294857585 |
|     226 | 0x8EDC6     |      585158 |
|     227 | 0xFFFFE1DB  |  4294959579 |
|     228 | 0x05D6      |        1494 |
|     229 | 0xFFFE5694  |  4294858388 |
|     230 | 0x8EA1F     |      584223 |
|     231 | 0xFFFFE1C1  |  4294959553 |
|     232 | 0xFFFE43F1  |  4294853617 |
|     233 | 0x8DE74     |      581236 |
|     234 | 0xFFFFE3BC  |  4294960060 |
|     235 | 0x0DB0      |        3504 |
|     236 | 0x007A      |         122 |
|     237 | 0x1EDD      |        7901 |
|     238 | 0x1EDE      |        7902 |
|     239 | 0x1EDF      |        7903 |
|     240 | 0x1EE0      |        7904 |
|     241 | 0x1EE1      |        7905 |
|     242 | 0x1EE2      |        7906 |
|     243 | 0x1EE3      |        7907 |
|     244 | 0x1EE4      |        7908 |
|     245 | 0x1EE5      |        7909 |
|     246 | 0x03C2      |         962 |
|     247 | 0x1EE6      |        7910 |
|     248 | 0x1EE7      |        7911 |
|     249 | 0x1EE8      |        7912 |
|     250 | 0x1EE9      |        7913 |
|     251 | 0x1EEA      |        7914 |
|     252 | 0x1EEB      |        7915 |
|     253 | 0x1EEC      |        7916 |
|     254 | 0x038F      |         911 |
|     255 | 0x1EED      |        7917 |
|     256 | 0x1EEE      |        7918 |
|     257 | 0x1EEF      |        7919 |
|     258 | 0x0064      |         100 |
|     259 | 0x0005      |           5 |
|     260 | 0x000A      |          10 |
|     261 | 0x0046      |          70 |
|     262 | 0x008C      |         140 |
|     263 | 0x00D2      |         210 |
|     264 | 0x0008      |           8 |
|     265 | 0x0007      |           7 |
|     266 | 0x0091      |         145 |
|     267 | 0x004F      |          79 |
|     268 | 0x004C      |          76 |
|     269 | 0x0018      |          24 |
|     270 | 0x0020      |          32 |
|     271 | 0x0030      |          48 |
|     272 | 0x0040      |          64 |
|     273 | 0xFFFA7D45  |  4294606149 |
|     274 | 0xFFFF6B23  |  4294929187 |
|     275 | 0xFFFFA628  |  4294944296 |
|     276 | 0x000B      |          11 |
|     277 | 0xFFFAA0AB  |  4294615211 |
|     278 | 0xFFFF822C  |  4294935084 |
|     279 | 0xFFFFA6E7  |  4294944487 |
|     280 | 0xFFFAB042  |  4294619202 |
|     281 | 0xFFFF8AC9  |  4294937289 |
|     282 | 0xFFFFA6C9  |  4294944457 |
|     283 | 0x002D      |          45 |
|     284 | 0x3F46C     |      259180 |
|     285 | 0x80F95     |      528277 |
|     286 | 0x85A1      |       34209 |
|     287 | 0x3E6F1     |      255729 |
|     288 | 0x82468     |      533608 |
|     289 | 0x8038      |       32824 |
|     290 | 0xFFFDDBD2  |  4294826962 |
|     291 | 0x8E56F     |      583023 |
|     292 | 0xFFFFE5A2  |  4294960546 |
|     293 | 0xFFFDEE44  |  4294831684 |
|     294 | 0x8DAF5     |      580341 |
|     295 | 0xFFFE0B94  |  4294839188 |
|     296 | 0x8DD43     |      580931 |
|     297 | 0xFFFE34E1  |  4294849761 |
|     298 | 0x8E25A     |      582234 |
|     299 | 0xFFFFE35A  |  4294959962 |
|     300 | 0xFFFE37C5  |  4294850501 |
|     301 | 0x8E835     |      583733 |
|     302 | 0xFFFFE3CB  |  4294960075 |
|     303 | 0x006E      |         110 |
|     304 | 0x0006      |           6 |
|     305 | 0x0082      |         130 |
|     306 | 0xFFFE5FBD  |  4294860733 |
|     307 | 0x913A9     |      594857 |
|     308 | 0xFFFFE251  |  4294959697 |
|     309 | 0xFFFE482A  |  4294854698 |
|     310 | 0x90AA7     |      592551 |
|     311 | 0xFFFFE20F  |  4294959631 |
|     312 | 0x0057      |          87 |
|     313 | 0x005D      |          93 |
|     314 | 0x0060      |          96 |
|     315 | 0xFFFE35FF  |  4294850047 |
|     316 | 0x8E894     |      583828 |
|     317 | 0xFFFFE3D2  |  4294960082 |
|     318 | 0xFFFE3170  |  4294848880 |
|     319 | 0x8E8B8     |      583864 |
|     320 | 0xFFFFE3D5  |  4294960085 |
|     321 | 0x0049      |          73 |
|     322 | 0x0053      |          83 |
|     323 | 0x0067      |         103 |
|     324 | 0x0071      |         113 |
|     325 | 0x0085      |         133 |
|     326 | 0xFFFDD870  |  4294826096 |
|     327 | 0x89A52     |      563794 |
|     328 | 0xFFFE0E53  |  4294839891 |
|     329 | 0x8B070     |      569456 |
|     330 | 0xFFFFE22A  |  4294959658 |
|     331 | 0xFFFE0388  |  4294837128 |
|     332 | 0x89094     |      561300 |
|     333 | 0xFFFFE243  |  4294959683 |
|     334 | 0x0080      |         128 |
|     335 | 0x0106      |         262 |
|     336 | 0x0017      |          23 |
|     337 | 0xFFFD681B  |  4294797339 |
|     338 | 0xFFFAA6EF  |  4294616815 |
|     339 | 0xFFFF9BD0  |  4294941648 |
|     340 | 0x0012      |          18 |
|     341 | 0xFFF930F6  |  4294521078 |
|     342 | 0x3580D     |      219149 |
|     343 | 0xFFFD99C4  |  4294810052 |
|     344 | 0xFFF86D3C  |  4294470972 |
|     345 | 0x3A986     |      240006 |
|     346 | 0xFFFD72DD  |  4294800093 |
|     347 | 0xFFFD8578  |  4294804856 |
|     348 | 0xFFFAD693  |  4294629011 |
|     349 | 0xFFFFA479  |  4294943865 |
|     350 | 0x002B      |          43 |
|     351 | 0xFFFD83B5  |  4294804405 |
|     352 | 0xFFFAA9DC  |  4294617564 |
|     353 | 0xFFFFA32A  |  4294943530 |
|     354 | 0x0037      |          55 |
|     355 | 0xFFFD6F7E  |  4294799230 |
|     356 | 0xFFFA9712  |  4294612754 |
|     357 | 0xFFFF9D09  |  4294941961 |
|     358 | 0x0032      |          50 |
|     359 | 0xFFFD72BF  |  4294800063 |
|     360 | 0xFFFA9F5F  |  4294614879 |
|     361 | 0xFFFF9E47  |  4294942279 |
|     362 | 0xFFFD80BF  |  4294803647 |
|     363 | 0xFFFACEDF  |  4294627039 |
|     364 | 0xFFFFA41A  |  4294943770 |
|     365 | 0x0E10      |        3600 |
|     366 | 0xFFFD7D85  |  4294802821 |
|     367 | 0xFFFA8FA5  |  4294610853 |
|     368 | 0xFFFF9DA7  |  4294942119 |
|     369 | 0x1068      |        4200 |
|     370 | 0x0090      |         144 |
|     371 | 0x00B4      |         180 |
|     372 | 0x1D05      |        7429 |
|     373 | 0x1D06      |        7430 |
|     374 | 0x1D08      |        7432 |
|     375 | 0x1D09      |        7433 |
|     376 | 0x1D0A      |        7434 |
|     377 | 0x1D0B      |        7435 |
|     378 | 0x0102      |         258 |
|     379 | 0x0202      |         514 |
|     380 | 0x0156      |         342 |

## String References

- **7703**: The order has been given by your party leader to enter [Everbloom Hollow/the Ruhotz Silvermines/Ghoyu's Reverie].
- **7747**: You hear the sound of faint voices mingled with the rushing of the wind...
- **7767**: What was the title? [The Wind's Words./Sprite in the Breeze./Message on the Wind.]
- **7801**: There is a strange mound of dirt here...
- **7802**: You find weapons buried in the ground!

## Events

### Event 65535

#### Metadata

| Field        | Value   |
|--------------|---------|
| Entrypoint   | 0x0000  |
| Data Size    | 1 bytes |
| Instructions | 1       |

```
      00 01 02 03 04 05 06 07  08 09 0A 0B 0C 0D 0E 0F
      -- -- -- -- -- -- -- --  -- -- -- -- -- -- -- --
0000: 00                                                .               
```

#### Opcodes

```
  0: 0x0000 [0x00] END_REQSTACK()
```

### Event 65534

#### Metadata

| Field        | Value   |
|--------------|---------|
| Entrypoint   | 0x0001  |
| Data Size    | 1 bytes |
| Instructions | 1       |

```
      00 01 02 03 04 05 06 07  08 09 0A 0B 0C 0D 0E 0F
      -- -- -- -- -- -- -- --  -- -- -- -- -- -- -- --
0000:    00                                              .              
```

#### Opcodes

```
  0: 0x0001 [0x00] END_REQSTACK()
```

### Event 101

#### Metadata

| Field        | Value     |
|--------------|-----------|
| Entrypoint   | 0x0002    |
| Data Size    | 102 bytes |
| Instructions | 15        |

```
      00 01 02 03 04 05 06 07  08 09 0A 0B 0C 0D 0E 0F
      -- -- -- -- -- -- -- --  -- -- -- -- -- -- -- --
0000:       42 48 00 80 45 01  80 F0 FF FF 7F F0 FF FF    BH..E.........
0010: 7F 66 64 6F 31 02 80 02  03 10 02 80 00 33 00 62  .fdo1........3.b
0020: 03 80 F0 FF FF 7F F0 FF  FF 7F 6D 61 69 6E 02 80  ..........main..
0030: 1C 04 80 1C 05 80 83 1E  17 AA 1E 17 1E 17 1E 17  ................
0040: 1E 17 1E 17 1F 17 1E 17  1E 17 03 00 00 02 80 77  ...............w
0050: 1F 17 00 00 78 45 06 80  F0 FF FF 7F F0 FF FF 7F  ....xE..........
0060: 77 68 69 31 02 80 21 00                           whi1..!.        
```

#### Opcodes

```
  0: 0x0002 [0x42] SET_CLI_EVENT_CANCEL_DATA()
  1: 0x0003 [0x48] [System] [7703*]:
    → "The order has been given by your party leader to enter [Everbloom Hollow/the Ruhotz Silvermines/Ghoyu's Reverie]."
  2: 0x0006 [0x45] LOAD_SCHEDULED_TASK: Load scheduler "fdo1" with entities [LocalPlayer, LocalPlayer], work=[200*, 0*]
  3: 0x0017 [0x02] IF !(Work_Zone[3] == 0*) GOTO 0x0033
  4: 0x001F [0x62] LOAD_EVENT_SCHEDULER: Load scheduler "main" with entities [LocalPlayer, LocalPlayer], work=[1*, 0*]
  5: 0x0030 [0x1C] WAIT(90* ticks)
  6: 0x0033 [0x1C] WAIT(60* ticks)
  7: 0x0036 [0x83] Work_Zone_1700[30] = GetGameTime()
  8: 0x0039 [0xAA] VANA_DIEL_TIMESTAMP_CONVERTER(timestamp=Work_Zone_1700[30], year=Work_Zone_1700[30], month=Work_Zone_1700[30], day=Work_Zone_1700[30], weekday=Work_Zone_1700[30], hour=Work_Zone_1700[31], minute=Work_Zone_1700[30], moon=Work_Zone_1700[30])
  9: 0x004A [0x03] ExtData[1]->WorkLocal[0] = 0*
 10: 0x004F [0x77] SET_EVENT_TIME_WEATHER(hour=Work_Zone_1700[31], weather=ExtData[1]->WorkLocal[0])
 11: 0x0054 [0x78] ENABLE_GAME_TIMER_RESET_WEATHER()
 12: 0x0055 [0x45] LOAD_SCHEDULED_TASK: Load scheduler "whi1" with entities [LocalPlayer, LocalPlayer], work=[201*, 0*]
 13: 0x0066 [0x21] END_EVENT
 14: 0x0067 [0x00] END_REQSTACK()
```

### Event 65535.1

#### Metadata

| Field        | Value    |
|--------------|----------|
| Entrypoint   | 0x0068   |
| Data Size    | 37 bytes |
| Instructions | 5        |

```
      00 01 02 03 04 05 06 07  08 09 0A 0B 0C 0D 0E 0F
      -- -- -- -- -- -- -- --  -- -- -- -- -- -- -- --
0060:                          03 08 00 07 7F 1A EF 21          .......!
0070: 66 09 00 F8 FF FF 7F F8  FF FF 7F 73 68 61 30 53  f..........sha0S
0080: F8 FF FF 7F F8 FF FF 7F  73 68 61 30 00           ........sha0.   
```

#### Opcodes

```
  0: 0x0068 [0x03] ExtData[1]->WorkLocal[8] = Entity->Race
  1: 0x006D [0x1A] CALL_SUBROUTINE(address=0x21EF)
  2: 0x0070 [0x66] LOAD_EXT_SCHEDULER_MAIN: Load scheduler "sha0" with entities [EventEntity, EventEntity], work=ExtData[1]->WorkLocal[9]
  3: 0x007F [0x53] WAIT_SCHEDULER_TASK: Wait for scheduler "sha0" with entities [EventEntity, EventEntity]
  4: 0x008C [0x00] END_REQSTACK()
```

### Event 65535.2

#### Metadata

| Field        | Value    |
|--------------|----------|
| Entrypoint   | 0x008D   |
| Data Size    | 37 bytes |
| Instructions | 5        |

```
      00 01 02 03 04 05 06 07  08 09 0A 0B 0C 0D 0E 0F
      -- -- -- -- -- -- -- --  -- -- -- -- -- -- -- --
0080:                                         03 08 00               ...
0090: 07 7F 1A EF 21 66 09 00  F8 FF FF 7F F8 FF FF 7F  ....!f..........
00A0: 73 68 61 31 53 F8 FF FF  7F F8 FF FF 7F 73 68 61  sha1S........sha
00B0: 31 00                                             1.              
```

#### Opcodes

```
  0: 0x008D [0x03] ExtData[1]->WorkLocal[8] = Entity->Race
  1: 0x0092 [0x1A] CALL_SUBROUTINE(address=0x21EF)
  2: 0x0095 [0x66] LOAD_EXT_SCHEDULER_MAIN: Load scheduler "sha1" with entities [EventEntity, EventEntity], work=ExtData[1]->WorkLocal[9]
  3: 0x00A4 [0x53] WAIT_SCHEDULER_TASK: Wait for scheduler "sha1" with entities [EventEntity, EventEntity]
  4: 0x00B1 [0x00] END_REQSTACK()
```

### Event 1

#### Metadata

| Field        | Value     |
|--------------|-----------|
| Entrypoint   | 0x00B2    |
| Data Size    | 705 bytes |
| Instructions | 80        |

```
      00 01 02 03 04 05 06 07  08 09 0A 0B 0C 0D 0E 0F
      -- -- -- -- -- -- -- --  -- -- -- -- -- -- -- --
00B0:       42 5D 02 80 07 80  45 01 80 F8 FF FF 7F F8    B]....E.......
00C0: FF FF 7F 66 64 6F 31 02  80 55 01 80 F8 FF FF 7F  ...fdo1..U......
00D0: F8 FF FF 7F 66 64 6F 31  46 01 38 08 80 92 01 F4  ....fdo1F.8.....
00E0: 92 05 01 92 01 F5 92 05  01 2F 00 F5 92 05 01 4E  ........./.....N
00F0: 00 F4 92 05 01 80 F4 92  05 01 BA F0 FF FF 7F 09  ................
0100: 80 0A 80 0B 80 0C 80 80  F0 FF FF 7F 4A F4 92 05  ............J...
0110: 01 F0 FF FF 7F 4A F0 FF  FF 7F F4 92 05 01 1C 0D  .....J..........
0120: 80 5C 00 0E 80 5C 01 0E  80 9A 45 0F 80 F8 FF FF  .\...\....E.....
0130: 7F F8 FF FF 7F 73 30 33  30 02 80 1C 10 80 45 01  .....s030.....E.
0140: 80 F8 FF FF 7F F8 FF FF  7F 66 64 69 31 02 80 55  .........fdi1..U
0150: 01 80 F8 FF FF 7F F8 FF  FF 7F 66 64 69 31 2B F4  ..........fdi1+.
0160: 92 05 01 11 80 23 52 0F  80 F8 FF FF 7F F8 FF FF  .....#R.........
0170: 7F 73 30 33 30 45 0F 80  F8 FF FF 7F F8 FF FF 7F  .s030E..........
0180: 73 30 33 31 02 80 66 12  80 F4 92 05 01 F4 92 05  s031..f.........
0190: 01 74 6C 6B 30 2B F4 92  05 01 13 80 23 2B F4 92  .tlk0+......#+..
01A0: 05 01 14 80 23 66 12 80  F4 92 05 01 F4 92 05 01  ....#f..........
01B0: 74 6C 6B 31 52 0F 80 F8  FF FF 7F F8 FF FF 7F 73  tlk1R..........s
01C0: 30 33 31 45 0F 80 F8 FF  FF 7F F8 FF FF 7F 73 30  031E..........s0
01D0: 33 32 02 80 2B F4 92 05  01 15 80 23 4E 00 F5 92  32..+......#N...
01E0: 05 01 BA F5 92 05 01 16  80 17 80 18 80 19 80 80  ................
01F0: F5 92 05 01 52 0F 80 F8  FF FF 7F F8 FF FF 7F 73  ....R..........s
0200: 30 33 32 45 0F 80 F8 FF  FF 7F F8 FF FF 7F 73 30  032E..........s0
0210: 33 33 02 80 5D 02 80 07  80 29 05 F0 FF FF 7F 06  33..]....)......
0220: BA F0 FF FF 7F 1A 80 1B  80 1C 80 1D 80 80 F0 FF  ................
0230: FF 7F 52 0F 80 F8 FF FF  7F F8 FF FF 7F 73 30 33  ..R..........s03
0240: 33 45 0F 80 F8 FF FF 7F  F8 FF FF 7F 73 30 33 34  3E..........s034
0250: 02 80 29 05 F0 FF FF 7F  07 29 05 F5 92 05 01 04  ..)......)......
0260: 52 0F 80 F8 FF FF 7F F8  FF FF 7F 73 30 33 34 45  R..........s034E
0270: 0F 80 F8 FF FF 7F F8 FF  FF 7F 73 30 38 31 02 80  ..........s081..
0280: 2B F5 92 05 01 1E 80 23  55 0F 80 F8 FF FF 7F F8  +......#U.......
0290: FF FF 7F 73 30 38 31 1C  0D 80 45 0F 80 F8 FF FF  ...s081...E.....
02A0: 7F F8 FF FF 7F 73 30 33  35 02 80 66 1F 80 F5 92  .....s035..f....
02B0: 05 01 F5 92 05 01 74 6C  6B 30 2B F5 92 05 01 20  ......tlk0+.... 
02C0: 80 23 66 1F 80 F5 92 05  01 F5 92 05 01 74 6C 6B  .#f..........tlk
02D0: 31 52 0F 80 F8 FF FF 7F  F8 FF FF 7F 73 30 33 35  1R..........s035
02E0: 45 0F 80 F8 FF FF 7F F8  FF FF 7F 73 30 33 36 02  E..........s036.
02F0: 80 27 05 F0 FF FF 7F 08  1C 07 80 52 0F 80 F8 FF  .'.........R....
0300: FF 7F F8 FF FF 7F 73 30  33 36 45 0F 80 F8 FF FF  ......s036E.....
0310: 7F F8 FF FF 7F 73 30 33  37 02 80 2B F5 92 05 01  .....s037..+....
0320: 21 80 23 45 01 80 F8 FF  FF 7F F8 FF FF 7F 66 64  !.#E..........fd
0330: 6F 31 02 80 55 01 80 F8  FF FF 7F F8 FF FF 7F 66  o1..U..........f
0340: 64 6F 31 52 0F 80 F8 FF  FF 7F F8 FF FF 7F 73 30  do1R..........s0
0350: 33 37 5C 00 02 80 5C 01  02 80 9A 46 00 1C 05 80  37\...\....F....
0360: 45 01 80 F8 FF FF 7F F8  FF FF 7F 66 64 69 31 02  E..........fdi1.
0370: 80 21 00                                          .!.             
```

#### Opcodes

```
  0: 0x00B2 [0x42] SET_CLI_EVENT_CANCEL_DATA()
  1: 0x00B3 [0x5D] SET_MUSIC_VOLUME(volume=0*, fade_time=120*)
  2: 0x00B8 [0x45] LOAD_SCHEDULED_TASK: Load scheduler "fdo1" with entities [EventEntity, EventEntity], work=[200*, 0*]
  3: 0x00C9 [0x55] WAIT_LOAD_SCHEDULER: Wait for scheduler "fdo1" with entities [EventEntity, EventEntity], work=200*
  4: 0x00D8 [0x46] CAMERA_CONTROL: Disable user control
  5: 0x00DA [0x38] SET_CLIENT_EVENT_MODE(mode=19*)
  6: 0x00DD [0x92] Childerich (ID: 17142516/0x010592F4)->Render.Flags3 ^= 0x01
  7: 0x00E3 [0x92] Bhoratz (ID: 17142517/0x010592F5)->Render.Flags3 ^= 0x01
  8: 0x00E9 [0x2F] Bhoratz (ID: 17142517/0x010592F5)->Render.Flags0 &= ~0x80000 // Bit 19
  9: 0x00EF [0x4E] SET_ENTITY_HIDE_FLAG: Show Childerich (ID: 17142516/0x010592F4)
 10: 0x00F5 [0x80] LOAD_WAIT(entity=Childerich (ID: 17142516/0x010592F4))
 11: 0x00FA [0xBA] SET_ENTITY_POSITION(entity_id=LocalPlayer, pos_x=-315.043*, pos_z=-514.361*, pos_y=16.150*, direction=16.4°*)
 12: 0x0107 [0x80] LOAD_WAIT(entity=LocalPlayer)
 13: 0x010C [0x4A] Childerich (ID: 17142516/0x010592F4) looks at LocalPlayer
 14: 0x0115 [0x4A] LocalPlayer looks at Childerich (ID: 17142516/0x010592F4)
 15: 0x011E [0x1C] WAIT(30* ticks)
 16: 0x0121 [0x5C] MUSIC_CONTROL: Set Idle (Day) music to song 123*
 17: 0x0125 [0x5C] MUSIC_CONTROL: Set Idle (Night) music to song 123*
 18: 0x0129 [0x9A] WAIT_MUSIC_SERVER()
 19: 0x012A [0x45] LOAD_SCHEDULED_TASK: Load scheduler "s030" with entities [EventEntity, EventEntity], work=[331*, 0*]
 20: 0x013B [0x1C] WAIT(15* ticks)
 21: 0x013E [0x45] LOAD_SCHEDULED_TASK: Load scheduler "fdi1" with entities [EventEntity, EventEntity], work=[200*, 0*]
 22: 0x014F [0x55] WAIT_LOAD_SCHEDULER: Wait for scheduler "fdi1" with entities [EventEntity, EventEntity], work=200*
 23: 0x015E [0x2B] Childerich (ID: 17142516/0x010592F4) [7736*]:
    → "Huh? Have I heard any voices? The father of some soldier called Romualdo?"
 24: 0x0165 [0x23] WAIT_FOR_DIALOG_INTERACTION
 25: 0x0166 [0x52] END_LOAD_SCHEDULER: End scheduler "s030" with entities [EventEntity, EventEntity], work=331*
 26: 0x0175 [0x45] LOAD_SCHEDULED_TASK: Load scheduler "s031" with entities [EventEntity, EventEntity], work=[331*, 0*]
 27: 0x0186 [0x66] LOAD_EXT_SCHEDULER_MAIN: Load scheduler "tlk0" with entities [Childerich (ID: 17142516/0x010592F4), Childerich (ID: 17142516/0x010592F4)], work=9*
 28: 0x0195 [0x2B] Childerich (ID: 17142516/0x010592F4) [7737*]:
    → "Ugh, not that lad again. His pappy's been dead for years now. And the deceased don't make a habit of chatting to the living."
 29: 0x019C [0x23] WAIT_FOR_DIALOG_INTERACTION
 30: 0x019D [0x2B] Childerich (ID: 17142516/0x010592F4) [7738*]:
    → "You think this is the first time I've had someone babble to me about long-lost relatives? It's these mountains--I swear they send people a little strange."
 31: 0x01A4 [0x23] WAIT_FOR_DIALOG_INTERACTION
 32: 0x01A5 [0x66] LOAD_EXT_SCHEDULER_MAIN: Load scheduler "tlk1" with entities [Childerich (ID: 17142516/0x010592F4), Childerich (ID: 17142516/0x010592F4)], work=9*
 33: 0x01B4 [0x52] END_LOAD_SCHEDULER: End scheduler "s031" with entities [EventEntity, EventEntity], work=331*
 34: 0x01C3 [0x45] LOAD_SCHEDULED_TASK: Load scheduler "s032" with entities [EventEntity, EventEntity], work=[331*, 0*]
 35: 0x01D4 [0x2B] Childerich (ID: 17142516/0x010592F4) [7739*]:
    → "Now let me return to my duties already. Keep your tales for the tavern, civilian."
 36: 0x01DB [0x23] WAIT_FOR_DIALOG_INTERACTION
 37: 0x01DC [0x4E] SET_ENTITY_HIDE_FLAG: Show Bhoratz (ID: 17142517/0x010592F5)
 38: 0x01E2 [0xBA] SET_ENTITY_POSITION(entity_id=Bhoratz (ID: 17142517/0x010592F5), pos_x=-317.139*, pos_z=-500.695*, pos_y=16.509*, direction=189.5°*)
 39: 0x01EF [0x80] LOAD_WAIT(entity=Bhoratz (ID: 17142517/0x010592F5))
 40: 0x01F4 [0x52] END_LOAD_SCHEDULER: End scheduler "s032" with entities [EventEntity, EventEntity], work=331*
 41: 0x0203 [0x45] LOAD_SCHEDULED_TASK: Load scheduler "s033" with entities [EventEntity, EventEntity], work=[331*, 0*]
 42: 0x0214 [0x5D] SET_MUSIC_VOLUME(volume=0*, fade_time=120*)
 43: 0x0219 [0x29] REQ_SET_WAIT(priority=0x05, entity_id=LocalPlayer, tag_num=0x06)
 44: 0x0220 [0xBA] SET_ENTITY_POSITION(entity_id=LocalPlayer, pos_x=-311.024*, pos_z=-503.817*, pos_y=16.108*, direction=253.8°*)
 45: 0x022D [0x80] LOAD_WAIT(entity=LocalPlayer)
 46: 0x0232 [0x52] END_LOAD_SCHEDULER: End scheduler "s033" with entities [EventEntity, EventEntity], work=331*
 47: 0x0241 [0x45] LOAD_SCHEDULED_TASK: Load scheduler "s034" with entities [EventEntity, EventEntity], work=[331*, 0*]
 48: 0x0252 [0x29] REQ_SET_WAIT(priority=0x05, entity_id=LocalPlayer, tag_num=0x07)
 49: 0x0259 [0x29] REQ_SET_WAIT(priority=0x05, entity_id=Bhoratz (ID: 17142517/0x010592F5), tag_num=0x04)
 50: 0x0260 [0x52] END_LOAD_SCHEDULER: End scheduler "s034" with entities [EventEntity, EventEntity], work=331*
 51: 0x026F [0x45] LOAD_SCHEDULED_TASK: Load scheduler "s081" with entities [EventEntity, EventEntity], work=[331*, 0*]
 52: 0x0280 [0x2B] Bhoratz (ID: 17142517/0x010592F5) [7740*]:
    → "Romualdo's father came through this very spot on his way to lead a team up the mountain. A crumbling handhold on a sheer precipice spelled his doom..."
 53: 0x0287 [0x23] WAIT_FOR_DIALOG_INTERACTION
 54: 0x0288 [0x55] WAIT_LOAD_SCHEDULER: Wait for scheduler "s081" with entities [EventEntity, EventEntity], work=331*
 55: 0x0297 [0x1C] WAIT(30* ticks)
 56: 0x029A [0x45] LOAD_SCHEDULED_TASK: Load scheduler "s035" with entities [EventEntity, EventEntity], work=[331*, 0*]
 57: 0x02AB [0x66] LOAD_EXT_SCHEDULER_MAIN: Load scheduler "tlk0" with entities [Bhoratz (ID: 17142517/0x010592F5), Bhoratz (ID: 17142517/0x010592F5)], work=69*
 58: 0x02BA [0x2B] Bhoratz (ID: 17142517/0x010592F5) [7741*]:
    → "You thinking of heading up there yourself? Might want to reconsider that idea--this mountain has taken its fair share of victims."
 59: 0x02C1 [0x23] WAIT_FOR_DIALOG_INTERACTION
 60: 0x02C2 [0x66] LOAD_EXT_SCHEDULER_MAIN: Load scheduler "tlk1" with entities [Bhoratz (ID: 17142517/0x010592F5), Bhoratz (ID: 17142517/0x010592F5)], work=69*
 61: 0x02D1 [0x52] END_LOAD_SCHEDULER: End scheduler "s035" with entities [EventEntity, EventEntity], work=331*
 62: 0x02E0 [0x45] LOAD_SCHEDULED_TASK: Load scheduler "s036" with entities [EventEntity, EventEntity], work=[331*, 0*]
 63: 0x02F1 [0x27] REQ_SET(priority=0x05, entity_id=LocalPlayer, tag_num=0x08)
 64: 0x02F8 [0x1C] WAIT(120* ticks)
 65: 0x02FB [0x52] END_LOAD_SCHEDULER: End scheduler "s036" with entities [EventEntity, EventEntity], work=331*
 66: 0x030A [0x45] LOAD_SCHEDULED_TASK: Load scheduler "s037" with entities [EventEntity, EventEntity], work=[331*, 0*]
 67: 0x031B [0x2B] Bhoratz (ID: 17142517/0x010592F5) [7742*]:
    → "Well, don't say I didn't warn you..."
 68: 0x0322 [0x23] WAIT_FOR_DIALOG_INTERACTION
 69: 0x0323 [0x45] LOAD_SCHEDULED_TASK: Load scheduler "fdo1" with entities [EventEntity, EventEntity], work=[200*, 0*]
 70: 0x0334 [0x55] WAIT_LOAD_SCHEDULER: Wait for scheduler "fdo1" with entities [EventEntity, EventEntity], work=200*
 71: 0x0343 [0x52] END_LOAD_SCHEDULER: End scheduler "s037" with entities [EventEntity, EventEntity], work=331*
 72: 0x0352 [0x5C] MUSIC_CONTROL: Set Idle (Day) music to song 0*
 73: 0x0356 [0x5C] MUSIC_CONTROL: Set Idle (Night) music to song 0*
 74: 0x035A [0x9A] WAIT_MUSIC_SERVER()
 75: 0x035B [0x46] CAMERA_CONTROL: Restore default settings
 76: 0x035D [0x1C] WAIT(60* ticks)
 77: 0x0360 [0x45] LOAD_SCHEDULED_TASK: Load scheduler "fdi1" with entities [EventEntity, EventEntity], work=[200*, 0*]
 78: 0x0371 [0x21] END_EVENT
 79: 0x0372 [0x00] END_REQSTACK()
```

### Event 65535.3

#### Metadata

| Field        | Value    |
|--------------|----------|
| Entrypoint   | 0x0373   |
| Data Size    | 14 bytes |
| Instructions | 4        |

```
      00 01 02 03 04 05 06 07  08 09 0A 0B 0C 0D 0E 0F
      -- -- -- -- -- -- -- --  -- -- -- -- -- -- -- --
0370:          32 22 80 1F 00  23 80 24 80 25 80 1F 01     2"...#.$.%...
0380: 00                                                .               
```

#### Opcodes

```
  0: 0x0373 [0x32] ExtData[1]->MainSpeed = 13* * 0.1
  1: 0x0376 [0x1F] MOVE_ENTITY: EventEntity moves to X=-313.634*, Z=-511.232*, Y=16.325*
  2: 0x037E [0x1F] MOVE_ENTITY: Update entity position (mode=1)
  3: 0x0380 [0x00] END_REQSTACK()
```

### Event 65535.4

#### Metadata

| Field        | Value    |
|--------------|----------|
| Entrypoint   | 0x0381   |
| Data Size    | 22 bytes |
| Instructions | 6        |

```
      00 01 02 03 04 05 06 07  08 09 0A 0B 0C 0D 0E 0F
      -- -- -- -- -- -- -- --  -- -- -- -- -- -- -- --
0380:    32 22 80 1F 00 26 80  27 80 28 80 1F 01 1E F5   2"...&.'.(.....
0390: 92 05 01 1C 0D 80 00                              .......         
```

#### Opcodes

```
  0: 0x0381 [0x32] ExtData[1]->MainSpeed = 13* * 0.1
  1: 0x0384 [0x1F] MOVE_ENTITY: EventEntity moves to X=-311.862*, Z=-501.573*, Y=16.287*
  2: 0x038C [0x1F] MOVE_ENTITY: Update entity position (mode=1)
  3: 0x038E [0x1E] EventEntity looks at Bhoratz (ID: 17142517/0x010592F5) and starts talking
  4: 0x0393 [0x1C] WAIT(30* ticks)
  5: 0x0396 [0x00] END_REQSTACK()
```

### Event 65535.5

#### Metadata

| Field        | Value    |
|--------------|----------|
| Entrypoint   | 0x0397   |
| Data Size    | 14 bytes |
| Instructions | 4        |

```
      00 01 02 03 04 05 06 07  08 09 0A 0B 0C 0D 0E 0F
      -- -- -- -- -- -- -- --  -- -- -- -- -- -- -- --
0390:                      32  22 80 1F 00 29 80 2A 80         2"...).*.
03A0: 2B 80 1F 01 00                                    +....           
```

#### Opcodes

```
  0: 0x0397 [0x32] ExtData[1]->MainSpeed = 13* * 0.1
  1: 0x039A [0x1F] MOVE_ENTITY: EventEntity moves to X=-311.445*, Z=-496.817*, Y=15.735*
  2: 0x03A2 [0x1F] MOVE_ENTITY: Update entity position (mode=1)
  3: 0x03A4 [0x00] END_REQSTACK()
```

### Event 3

#### Metadata

| Field        | Value     |
|--------------|-----------|
| Entrypoint   | 0x03A5    |
| Data Size    | 502 bytes |
| Instructions | 56        |

```
      00 01 02 03 04 05 06 07  08 09 0A 0B 0C 0D 0E 0F
      -- -- -- -- -- -- -- --  -- -- -- -- -- -- -- --
03A0:                42 45 01  80 F8 FF FF 7F F8 FF FF       BE.........
03B0: 7F 66 64 6F 31 02 80 55  01 80 F8 FF FF 7F F8 FF  .fdo1..U........
03C0: FF 7F 66 64 6F 31 46 01  38 08 80 92 01 F5 92 05  ..fdo1F.8.......
03D0: 01 2F 00 F5 92 05 01 4E  00 F5 92 05 01 BA F5 92  ./.....N........
03E0: 05 01 2C 80 2D 80 2E 80  2F 80 BA F0 FF FF 7F 30  ..,.-.../......0
03F0: 80 31 80 32 80 33 80 80  F5 92 05 01 80 F0 FF FF  .1.2.3..........
0400: 7F 45 0F 80 F8 FF FF 7F  F8 FF FF 7F 73 30 33 38  .E..........s038
0410: 02 80 1C 10 80 45 01 80  F8 FF FF 7F F8 FF FF 7F  .....E..........
0420: 66 64 69 31 02 80 55 01  80 F8 FF FF 7F F8 FF FF  fdi1..U.........
0430: 7F 66 64 69 31 45 0F 80  F8 FF FF 7F F8 FF FF 7F  .fdi1E..........
0440: 6E 61 67 65 02 80 48 34  80 23 27 05 F5 92 05 01  nage..H4.#'.....
0450: 05 1C 0D 80 52 0F 80 F8  FF FF 7F F8 FF FF 7F 73  ....R..........s
0460: 30 33 38 45 0F 80 F8 FF  FF 7F F8 FF FF 7F 73 30  038E..........s0
0470: 33 39 02 80 2B F5 92 05  01 35 80 23 2A 05 F5 92  39..+....5.#*...
0480: 05 01 52 0F 80 F8 FF FF  7F F8 FF FF 7F 73 30 33  ..R..........s03
0490: 39 45 0F 80 F8 FF FF 7F  F8 FF FF 7F 73 30 34 30  9E..........s040
04A0: 02 80 2B F5 92 05 01 36  80 23 52 0F 80 F8 FF FF  ..+....6.#R.....
04B0: 7F F8 FF FF 7F 73 30 34  30 45 0F 80 F8 FF FF 7F  .....s040E......
04C0: F8 FF FF 7F 73 30 34 31  02 80 2B F5 92 05 01 37  ....s041..+....7
04D0: 80 23 52 0F 80 F8 FF FF  7F F8 FF FF 7F 73 30 34  .#R..........s04
04E0: 31 45 0F 80 F8 FF FF 7F  F8 FF FF 7F 73 30 34 32  1E..........s042
04F0: 02 80 2B F5 92 05 01 38  80 23 2B F5 92 05 01 39  ..+....8.#+....9
0500: 80 23 BA F5 92 05 01 3A  80 3B 80 3C 80 3D 80 80  .#.....:.;.<.=..
0510: F5 92 05 01 52 0F 80 F8  FF FF 7F F8 FF FF 7F 73  ....R..........s
0520: 30 34 32 45 0F 80 F8 FF  FF 7F F8 FF FF 7F 73 30  042E..........s0
0530: 34 33 02 80 1C 0D 80 4A  F0 FF FF 7F F5 92 05 01  43.....J........
0540: 55 0F 80 F8 FF FF 7F F8  FF FF 7F 73 30 34 33 1C  U..........s043.
0550: 0D 80 45 0F 80 F8 FF FF  7F F8 FF FF 7F 6B 6E 61  ..E..........kna
0560: 67 02 80 45 01 80 F8 FF  FF 7F F8 FF FF 7F 66 64  g..E..........fd
0570: 6F 31 02 80 55 01 80 F8  FF FF 7F F8 FF FF 7F 66  o1..U..........f
0580: 64 6F 31 46 00 1C 05 80  45 01 80 F8 FF FF 7F F8  do1F....E.......
0590: FF FF 7F 66 64 69 31 02  80 21 00                 ...fdi1..!.     
```

#### Opcodes

```
  0: 0x03A5 [0x42] SET_CLI_EVENT_CANCEL_DATA()
  1: 0x03A6 [0x45] LOAD_SCHEDULED_TASK: Load scheduler "fdo1" with entities [EventEntity, EventEntity], work=[200*, 0*]
  2: 0x03B7 [0x55] WAIT_LOAD_SCHEDULER: Wait for scheduler "fdo1" with entities [EventEntity, EventEntity], work=200*
  3: 0x03C6 [0x46] CAMERA_CONTROL: Disable user control
  4: 0x03C8 [0x38] SET_CLIENT_EVENT_MODE(mode=19*)
  5: 0x03CB [0x92] Bhoratz (ID: 17142517/0x010592F5)->Render.Flags3 ^= 0x01
  6: 0x03D1 [0x2F] Bhoratz (ID: 17142517/0x010592F5)->Render.Flags0 &= ~0x80000 // Bit 19
  7: 0x03D7 [0x4E] SET_ENTITY_HIDE_FLAG: Show Bhoratz (ID: 17142517/0x010592F5)
  8: 0x03DD [0xBA] SET_ENTITY_POSITION(entity_id=Bhoratz (ID: 17142517/0x010592F5), pos_x=433.178*, pos_z=78.616*, pos_y=-40.576*, direction=5.4°*)
  9: 0x03EA [0xBA] SET_ENTITY_POSITION(entity_id=LocalPlayer, pos_x=437.977*, pos_z=80.818*, pos_y=-40.283*, direction=355.0°*)
 10: 0x03F7 [0x80] LOAD_WAIT(entity=Bhoratz (ID: 17142517/0x010592F5))
 11: 0x03FC [0x80] LOAD_WAIT(entity=LocalPlayer)
 12: 0x0401 [0x45] LOAD_SCHEDULED_TASK: Load scheduler "s038" with entities [EventEntity, EventEntity], work=[331*, 0*]
 13: 0x0412 [0x1C] WAIT(15* ticks)
 14: 0x0415 [0x45] LOAD_SCHEDULED_TASK: Load scheduler "fdi1" with entities [EventEntity, EventEntity], work=[200*, 0*]
 15: 0x0426 [0x55] WAIT_LOAD_SCHEDULER: Wait for scheduler "fdi1" with entities [EventEntity, EventEntity], work=200*
 16: 0x0435 [0x45] LOAD_SCHEDULED_TASK: Load scheduler "nage" with entities [EventEntity, EventEntity], work=[331*, 0*]
 17: 0x0446 [0x48] [System] [7747*]:
    → "You hear the sound of faint voices mingled with the rushing of the wind..."
 18: 0x0449 [0x23] WAIT_FOR_DIALOG_INTERACTION
 19: 0x044A [0x27] REQ_SET(priority=0x05, entity_id=Bhoratz (ID: 17142517/0x010592F5), tag_num=0x05)
 20: 0x0451 [0x1C] WAIT(30* ticks)
 21: 0x0454 [0x52] END_LOAD_SCHEDULER: End scheduler "s038" with entities [EventEntity, EventEntity], work=331*
 22: 0x0463 [0x45] LOAD_SCHEDULED_TASK: Load scheduler "s039" with entities [EventEntity, EventEntity], work=[331*, 0*]
 23: 0x0474 [0x2B] Bhoratz (ID: 17142517/0x010592F5) [7748*]:
    → "Many have lost their lives on this cliff."
 24: 0x047B [0x23] WAIT_FOR_DIALOG_INTERACTION
 25: 0x047C [0x2A] GET_REQ_LEVEL(level=5, entity_id=Bhoratz (ID: 17142517/0x010592F5))
 26: 0x0482 [0x52] END_LOAD_SCHEDULER: End scheduler "s039" with entities [EventEntity, EventEntity], work=331*
 27: 0x0491 [0x45] LOAD_SCHEDULED_TASK: Load scheduler "s040" with entities [EventEntity, EventEntity], work=[331*, 0*]
 28: 0x04A2 [0x2B] Bhoratz (ID: 17142517/0x010592F5) [7749*]:
    → "I warn all that pass by, but they never listen..."
 29: 0x04A9 [0x23] WAIT_FOR_DIALOG_INTERACTION
 30: 0x04AA [0x52] END_LOAD_SCHEDULER: End scheduler "s040" with entities [EventEntity, EventEntity], work=331*
 31: 0x04B9 [0x45] LOAD_SCHEDULED_TASK: Load scheduler "s041" with entities [EventEntity, EventEntity], work=[331*, 0*]
 32: 0x04CA [0x2B] Bhoratz (ID: 17142517/0x010592F5) [7750*]:
    → "These voices you hear are the wails of the dead. Can you make out the one to which you came to listen?"
 33: 0x04D1 [0x23] WAIT_FOR_DIALOG_INTERACTION
 34: 0x04D2 [0x52] END_LOAD_SCHEDULER: End scheduler "s041" with entities [EventEntity, EventEntity], work=331*
 35: 0x04E1 [0x45] LOAD_SCHEDULED_TASK: Load scheduler "s042" with entities [EventEntity, EventEntity], work=[331*, 0*]
 36: 0x04F2 [0x2B] Bhoratz (ID: 17142517/0x010592F5) [7751*]:
    → "He's saying, "I'm sorry I left you alone.""
 37: 0x04F9 [0x23] WAIT_FOR_DIALOG_INTERACTION
 38: 0x04FA [0x2B] Bhoratz (ID: 17142517/0x010592F5) [7752*]:
    → "I think Romualdo would like to know..."
 39: 0x0501 [0x23] WAIT_FOR_DIALOG_INTERACTION
 40: 0x0502 [0xBA] SET_ENTITY_POSITION(entity_id=Bhoratz (ID: 17142517/0x010592F5), pos_x=427.606*, pos_z=70.146*, pos_y=-43.739*, direction=342.1°*)
 41: 0x050F [0x80] LOAD_WAIT(entity=Bhoratz (ID: 17142517/0x010592F5))
 42: 0x0514 [0x52] END_LOAD_SCHEDULER: End scheduler "s042" with entities [EventEntity, EventEntity], work=331*
 43: 0x0523 [0x45] LOAD_SCHEDULED_TASK: Load scheduler "s043" with entities [EventEntity, EventEntity], work=[331*, 0*]
 44: 0x0534 [0x1C] WAIT(30* ticks)
 45: 0x0537 [0x4A] LocalPlayer looks at Bhoratz (ID: 17142517/0x010592F5)
 46: 0x0540 [0x55] WAIT_LOAD_SCHEDULER: Wait for scheduler "s043" with entities [EventEntity, EventEntity], work=331*
 47: 0x054F [0x1C] WAIT(30* ticks)
 48: 0x0552 [0x45] LOAD_SCHEDULED_TASK: Load scheduler "knag" with entities [EventEntity, EventEntity], work=[331*, 0*]
 49: 0x0563 [0x45] LOAD_SCHEDULED_TASK: Load scheduler "fdo1" with entities [EventEntity, EventEntity], work=[200*, 0*]
 50: 0x0574 [0x55] WAIT_LOAD_SCHEDULER: Wait for scheduler "fdo1" with entities [EventEntity, EventEntity], work=200*
 51: 0x0583 [0x46] CAMERA_CONTROL: Restore default settings
 52: 0x0585 [0x1C] WAIT(60* ticks)
 53: 0x0588 [0x45] LOAD_SCHEDULED_TASK: Load scheduler "fdi1" with entities [EventEntity, EventEntity], work=[200*, 0*]
 54: 0x0599 [0x21] END_EVENT
 55: 0x059A [0x00] END_REQSTACK()
```

### Event 4

#### Metadata

| Field        | Value     |
|--------------|-----------|
| Entrypoint   | 0x059B    |
| Data Size    | 479 bytes |
| Instructions | 56        |

```
      00 01 02 03 04 05 06 07  08 09 0A 0B 0C 0D 0E 0F
      -- -- -- -- -- -- -- --  -- -- -- -- -- -- -- --
0590:                                   42 5D 02 80 07             B]...
05A0: 80 45 01 80 F8 FF FF 7F  F8 FF FF 7F 66 64 6F 31  .E..........fdo1
05B0: 02 80 55 01 80 F8 FF FF  7F F8 FF FF 7F 66 64 6F  ..U..........fdo
05C0: 31 46 01 38 08 80 92 01  F4 92 05 01 4E 00 F4 92  1F.8........N...
05D0: 05 01 80 F4 92 05 01 BA  F0 FF FF 7F 09 80 0A 80  ................
05E0: 0B 80 0C 80 80 F0 FF FF  7F 94 01 F4 92 05 01 4A  ...............J
05F0: F4 92 05 01 F0 FF FF 7F  4A F0 FF FF 7F F4 92 05  ........J.......
0600: 01 1C 0D 80 5C 00 3E 80  5C 01 3E 80 9A 45 0F 80  ....\.>.\.>..E..
0610: F8 FF FF 7F F8 FF FF 7F  73 30 34 34 02 80 1C 10  ........s044....
0620: 80 45 01 80 F8 FF FF 7F  F8 FF FF 7F 66 64 69 31  .E..........fdi1
0630: 02 80 55 01 80 F8 FF FF  7F F8 FF FF 7F 66 64 69  ..U..........fdi
0640: 31 2B F4 92 05 01 3F 80  23 52 0F 80 F8 FF FF 7F  1+....?.#R......
0650: F8 FF FF 7F 73 30 34 34  45 0F 80 F8 FF FF 7F F8  ....s044E.......
0660: FF FF 7F 73 30 34 35 02  80 66 12 80 F4 92 05 01  ...s045..f......
0670: F4 92 05 01 74 77 62 30  2B F4 92 05 01 40 80 23  ....twb0+....@.#
0680: 52 0F 80 F8 FF FF 7F F8  FF FF 7F 73 30 34 35 45  R..........s045E
0690: 0F 80 F8 FF FF 7F F8 FF  FF 7F 73 30 34 36 02 80  ..........s046..
06A0: 66 12 80 F4 92 05 01 F4  92 05 01 74 77 62 31 2B  f..........twb1+
06B0: F4 92 05 01 41 80 23 52  0F 80 F8 FF FF 7F F8 FF  ....A.#R........
06C0: FF 7F 73 30 34 36 45 0F  80 F8 FF FF 7F F8 FF FF  ..s046E.........
06D0: 7F 73 30 34 37 02 80 66  12 80 F4 92 05 01 F4 92  .s047..f........
06E0: 05 01 74 6C 6B 30 2B F4  92 05 01 42 80 23 66 12  ..tlk0+....B.#f.
06F0: 80 F4 92 05 01 F4 92 05  01 74 6C 6B 31 52 0F 80  .........tlk1R..
0700: F8 FF FF 7F F8 FF FF 7F  73 30 34 37 45 0F 80 F8  ........s047E...
0710: FF FF 7F F8 FF FF 7F 73  30 34 38 02 80 2B F4 92  .......s048..+..
0720: 05 01 43 80 23 5D 02 80  07 80 45 01 80 F8 FF FF  ..C.#]....E.....
0730: 7F F8 FF FF 7F 66 64 6F  31 02 80 55 01 80 F8 FF  .....fdo1..U....
0740: FF 7F F8 FF FF 7F 66 64  6F 31 52 0F 80 F8 FF FF  ......fdo1R.....
0750: 7F F8 FF FF 7F 73 30 34  38 5C 00 02 80 5C 01 02  .....s048\...\..
0760: 80 9A 46 00 1C 05 80 45  01 80 F8 FF FF 7F F8 FF  ..F....E........
0770: FF 7F 66 64 69 31 02 80  21 00                    ..fdi1..!.      
```

#### Opcodes

```
  0: 0x059B [0x42] SET_CLI_EVENT_CANCEL_DATA()
  1: 0x059C [0x5D] SET_MUSIC_VOLUME(volume=0*, fade_time=120*)
  2: 0x05A1 [0x45] LOAD_SCHEDULED_TASK: Load scheduler "fdo1" with entities [EventEntity, EventEntity], work=[200*, 0*]
  3: 0x05B2 [0x55] WAIT_LOAD_SCHEDULER: Wait for scheduler "fdo1" with entities [EventEntity, EventEntity], work=200*
  4: 0x05C1 [0x46] CAMERA_CONTROL: Disable user control
  5: 0x05C3 [0x38] SET_CLIENT_EVENT_MODE(mode=19*)
  6: 0x05C6 [0x92] Childerich (ID: 17142516/0x010592F4)->Render.Flags3 ^= 0x01
  7: 0x05CC [0x4E] SET_ENTITY_HIDE_FLAG: Show Childerich (ID: 17142516/0x010592F4)
  8: 0x05D2 [0x80] LOAD_WAIT(entity=Childerich (ID: 17142516/0x010592F4))
  9: 0x05D7 [0xBA] SET_ENTITY_POSITION(entity_id=LocalPlayer, pos_x=-315.043*, pos_z=-514.361*, pos_y=16.150*, direction=16.4°*)
 10: 0x05E4 [0x80] LOAD_WAIT(entity=LocalPlayer)
 11: 0x05E9 [0x94] Childerich (ID: 17142516/0x010592F4)->Render.Flags3 ^= 0x01
 12: 0x05EF [0x4A] Childerich (ID: 17142516/0x010592F4) looks at LocalPlayer
 13: 0x05F8 [0x4A] LocalPlayer looks at Childerich (ID: 17142516/0x010592F4)
 14: 0x0601 [0x1C] WAIT(30* ticks)
 15: 0x0604 [0x5C] MUSIC_CONTROL: Set Idle (Day) music to song 127*
 16: 0x0608 [0x5C] MUSIC_CONTROL: Set Idle (Night) music to song 127*
 17: 0x060C [0x9A] WAIT_MUSIC_SERVER()
 18: 0x060D [0x45] LOAD_SCHEDULED_TASK: Load scheduler "s044" with entities [EventEntity, EventEntity], work=[331*, 0*]
 19: 0x061E [0x1C] WAIT(15* ticks)
 20: 0x0621 [0x45] LOAD_SCHEDULED_TASK: Load scheduler "fdi1" with entities [EventEntity, EventEntity], work=[200*, 0*]
 21: 0x0632 [0x55] WAIT_LOAD_SCHEDULER: Wait for scheduler "fdi1" with entities [EventEntity, EventEntity], work=200*
 22: 0x0641 [0x2B] Childerich (ID: 17142516/0x010592F4) [7753*]:
    → "Huh? Where's the Galkan soldier?"
 23: 0x0648 [0x23] WAIT_FOR_DIALOG_INTERACTION
 24: 0x0649 [0x52] END_LOAD_SCHEDULER: End scheduler "s044" with entities [EventEntity, EventEntity], work=331*
 25: 0x0658 [0x45] LOAD_SCHEDULED_TASK: Load scheduler "s045" with entities [EventEntity, EventEntity], work=[331*, 0*]
 26: 0x0669 [0x66] LOAD_EXT_SCHEDULER_MAIN: Load scheduler "twb0" with entities [Childerich (ID: 17142516/0x010592F4), Childerich (ID: 17142516/0x010592F4)], work=9*
 27: 0x0678 [0x2B] Childerich (ID: 17142516/0x010592F4) [7754*]:
    → "I've got no idea what you're talking about. You were having a conversation with yourself last time you were here. I just figured you'd been "touched" by the mountain."
 28: 0x067F [0x23] WAIT_FOR_DIALOG_INTERACTION
 29: 0x0680 [0x52] END_LOAD_SCHEDULER: End scheduler "s045" with entities [EventEntity, EventEntity], work=331*
 30: 0x068F [0x45] LOAD_SCHEDULED_TASK: Load scheduler "s046" with entities [EventEntity, EventEntity], work=[331*, 0*]
 31: 0x06A0 [0x66] LOAD_EXT_SCHEDULER_MAIN: Load scheduler "twb1" with entities [Childerich (ID: 17142516/0x010592F4), Childerich (ID: 17142516/0x010592F4)], work=9*
 32: 0x06AF [0x2B] Childerich (ID: 17142516/0x010592F4) [7755*]:
    → "Although...I have heard that a Galka served at this outpost years and years ago."
 33: 0x06B6 [0x23] WAIT_FOR_DIALOG_INTERACTION
 34: 0x06B7 [0x52] END_LOAD_SCHEDULER: End scheduler "s046" with entities [EventEntity, EventEntity], work=331*
 35: 0x06C6 [0x45] LOAD_SCHEDULED_TASK: Load scheduler "s047" with entities [EventEntity, EventEntity], work=[331*, 0*]
 36: 0x06D7 [0x66] LOAD_EXT_SCHEDULER_MAIN: Load scheduler "tlk0" with entities [Childerich (ID: 17142516/0x010592F4), Childerich (ID: 17142516/0x010592F4)], work=9*
 37: 0x06E6 [0x2B] Childerich (ID: 17142516/0x010592F4) [7756*]:
    → "He was famous for trying to stop people from climbing the mountain. Not that anyone ever listened to him..."
 38: 0x06ED [0x23] WAIT_FOR_DIALOG_INTERACTION
 39: 0x06EE [0x66] LOAD_EXT_SCHEDULER_MAIN: Load scheduler "tlk1" with entities [Childerich (ID: 17142516/0x010592F4), Childerich (ID: 17142516/0x010592F4)], work=9*
 40: 0x06FD [0x52] END_LOAD_SCHEDULER: End scheduler "s047" with entities [EventEntity, EventEntity], work=331*
 41: 0x070C [0x45] LOAD_SCHEDULED_TASK: Load scheduler "s048" with entities [EventEntity, EventEntity], work=[331*, 0*]
 42: 0x071D [0x2B] Childerich (ID: 17142516/0x010592F4) [7757*]:
    → "Huh. Maybe spirits really do haunt this place and you've met his ghost."
 43: 0x0724 [0x23] WAIT_FOR_DIALOG_INTERACTION
 44: 0x0725 [0x5D] SET_MUSIC_VOLUME(volume=0*, fade_time=120*)
 45: 0x072A [0x45] LOAD_SCHEDULED_TASK: Load scheduler "fdo1" with entities [EventEntity, EventEntity], work=[200*, 0*]
 46: 0x073B [0x55] WAIT_LOAD_SCHEDULER: Wait for scheduler "fdo1" with entities [EventEntity, EventEntity], work=200*
 47: 0x074A [0x52] END_LOAD_SCHEDULER: End scheduler "s048" with entities [EventEntity, EventEntity], work=331*
 48: 0x0759 [0x5C] MUSIC_CONTROL: Set Idle (Day) music to song 0*
 49: 0x075D [0x5C] MUSIC_CONTROL: Set Idle (Night) music to song 0*
 50: 0x0761 [0x9A] WAIT_MUSIC_SERVER()
 51: 0x0762 [0x46] CAMERA_CONTROL: Restore default settings
 52: 0x0764 [0x1C] WAIT(60* ticks)
 53: 0x0767 [0x45] LOAD_SCHEDULED_TASK: Load scheduler "fdi1" with entities [EventEntity, EventEntity], work=[200*, 0*]
 54: 0x0778 [0x21] END_EVENT
 55: 0x0779 [0x00] END_REQSTACK()
```

### Event 6

#### Metadata

| Field        | Value      |
|--------------|------------|
| Entrypoint   | 0x077A     |
| Data Size    | 1874 bytes |
| Instructions | 203        |

```
      00 01 02 03 04 05 06 07  08 09 0A 0B 0C 0D 0E 0F
      -- -- -- -- -- -- -- --  -- -- -- -- -- -- -- --
0770:                                42 5D 02 80 07 80            B]....
0780: 45 01 80 F8 FF FF 7F F8  FF FF 7F 66 64 6F 31 02  E..........fdo1.
0790: 80 55 01 80 F8 FF FF 7F  F8 FF FF 7F 66 64 6F 31  .U..........fdo1
07A0: 46 01 38 08 80 92 01 F4  92 05 01 92 01 F5 92 05  F.8.............
07B0: 01 2F 00 F5 92 05 01 2F  00 F7 92 05 01 2F 00 F8  ./...../...../..
07C0: 92 05 01 4E 00 F4 92 05  01 80 F4 92 05 01 BA F0  ...N............
07D0: FF FF 7F 09 80 0A 80 0B  80 0C 80 80 F0 FF FF 7F  ................
07E0: 4A F4 92 05 01 F0 FF FF  7F 4A F0 FF FF 7F F4 92  J........J......
07F0: 05 01 1C 0D 80 5C 00 0E  80 5C 01 0E 80 9A 45 0F  .....\...\....E.
0800: 80 F8 FF FF 7F F8 FF FF  7F 73 30 36 33 02 80 1C  .........s063...
0810: 10 80 45 01 80 F8 FF FF  7F F8 FF FF 7F 66 64 69  ..E..........fdi
0820: 31 02 80 55 01 80 F8 FF  FF 7F F8 FF FF 7F 66 64  1..U..........fd
0830: 69 31 66 12 80 F4 92 05  01 F4 92 05 01 74 77 62  i1f..........twb
0840: 30 2B F4 92 05 01 44 80  23 66 12 80 F4 92 05 01  0+....D.#f......
0850: F4 92 05 01 74 77 62 31  52 0F 80 F8 FF FF 7F F8  ....twb1R.......
0860: FF FF 7F 73 30 36 33 45  0F 80 F8 FF FF 7F F8 FF  ...s063E........
0870: FF 7F 73 30 36 34 02 80  53 F4 92 05 01 F4 92 05  ..s064..S.......
0880: 01 74 77 62 31 6E F4 92  05 01 45 80 99 F4 92 05  .twb1n....E.....
0890: 01 2B F4 92 05 01 46 80  23 52 0F 80 F8 FF FF 7F  .+....F.#R......
08A0: F8 FF FF 7F 73 30 36 34  45 0F 80 F8 FF FF 7F F8  ....s064E.......
08B0: FF FF 7F 73 30 36 35 02  80 2B F6 92 05 01 47 80  ...s065..+....G.
08C0: 23 52 0F 80 F8 FF FF 7F  F8 FF FF 7F 73 30 36 35  #R..........s065
08D0: 45 0F 80 F8 FF FF 7F F8  FF FF 7F 73 30 36 36 02  E..........s066.
08E0: 80 6E F4 92 05 01 48 80  99 F4 92 05 01 7C 00 F4  .n....H......|..
08F0: 92 05 01 2B F4 92 05 01  49 80 23 7C 01 F4 92 05  ...+....I.#|....
0900: 01 52 0F 80 F8 FF FF 7F  F8 FF FF 7F 73 30 36 36  .R..........s066
0910: 45 0F 80 F8 FF FF 7F F8  FF FF 7F 73 30 36 37 02  E..........s067.
0920: 80 4B F4 92 05 01 4A 80  1C 05 80 2B F4 92 05 01  .K....J....+....
0930: 4B 80 23 52 0F 80 F8 FF  FF 7F F8 FF FF 7F 73 30  K.#R..........s0
0940: 36 37 45 0F 80 F8 FF FF  7F F8 FF FF 7F 73 30 36  67E..........s06
0950: 38 02 80 4A F4 92 05 01  F0 FF FF 7F 1C 0D 80 66  8..J...........f
0960: 12 80 F4 92 05 01 F4 92  05 01 74 77 62 30 2B F4  ..........twb0+.
0970: 92 05 01 4C 80 23 66 12  80 F4 92 05 01 F4 92 05  ...L.#f.........
0980: 01 74 77 62 31 52 0F 80  F8 FF FF 7F F8 FF FF 7F  .twb1R..........
0990: 73 30 36 38 45 0F 80 F8  FF FF 7F F8 FF FF 7F 73  s068E..........s
09A0: 30 36 39 02 80 1C 07 80  52 0F 80 F8 FF FF 7F F8  069.....R.......
09B0: FF FF 7F 73 30 36 39 45  0F 80 F8 FF FF 7F F8 FF  ...s069E........
09C0: FF 7F 73 30 37 30 02 80  66 12 80 F4 92 05 01 F4  ..s070..f.......
09D0: 92 05 01 74 77 62 30 2B  F4 92 05 01 4D 80 23 66  ...twb0+....M.#f
09E0: 12 80 F4 92 05 01 F4 92  05 01 74 77 62 31 53 F4  ..........twb1S.
09F0: 92 05 01 F4 92 05 01 74  77 62 31 52 0F 80 F8 FF  .......twb1R....
0A00: FF 7F F8 FF FF 7F 73 30  37 30 45 0F 80 F8 FF FF  ......s070E.....
0A10: 7F F8 FF FF 7F 73 30 37  31 02 80 6E F4 92 05 01  .....s071..n....
0A20: 45 80 99 F4 92 05 01 2B  F4 92 05 01 4E 80 23 24  E......+....N.#$
0A30: 4F 80 02 80 02 80 25 02  00 10 02 80 00 99 0A 52  O.....%........R
0A40: 0F 80 F8 FF FF 7F F8 FF  FF 7F 73 30 37 31 45 0F  ..........s071E.
0A50: 80 F8 FF FF 7F F8 FF FF  7F 73 30 37 32 02 80 6E  .........s072..n
0A60: F4 92 05 01 50 80 99 F4  92 05 01 2B F4 92 05 01  ....P......+....
0A70: 51 80 23 52 0F 80 F8 FF  FF 7F F8 FF FF 7F 73 30  Q.#R..........s0
0A80: 37 32 45 0F 80 F8 FF FF  7F F8 FF FF 7F 73 30 37  72E..........s07
0A90: 31 02 80 01 2F 0A 01 FB  0A 02 00 10 03 80 00 FB  1.../...........
0AA0: 0A 52 0F 80 F8 FF FF 7F  F8 FF FF 7F 73 30 37 31  .R..........s071
0AB0: 45 0F 80 F8 FF FF 7F F8  FF FF 7F 73 30 37 33 02  E..........s073.
0AC0: 80 6E F4 92 05 01 52 80  99 F4 92 05 01 2B F4 92  .n....R......+..
0AD0: 05 01 53 80 23 52 0F 80  F8 FF FF 7F F8 FF FF 7F  ..S.#R..........
0AE0: 73 30 37 33 45 0F 80 F8  FF FF 7F F8 FF FF 7F 73  s073E..........s
0AF0: 30 37 31 02 80 01 2F 0A  01 FB 0A 6E F4 92 05 01  071.../....n....
0B00: 54 80 99 F4 92 05 01 52  0F 80 F8 FF FF 7F F8 FF  T......R........
0B10: FF 7F 73 30 37 31 45 0F  80 F8 FF FF 7F F8 FF FF  ..s071E.........
0B20: 7F 73 30 37 34 02 80 2B  F4 92 05 01 55 80 23 6E  .s074..+....U.#n
0B30: F4 92 05 01 08 80 99 F4  92 05 01 2B F4 92 05 01  ...........+....
0B40: 56 80 23 52 0F 80 F8 FF  FF 7F F8 FF FF 7F 73 30  V.#R..........s0
0B50: 37 34 45 0F 80 F8 FF FF  7F F8 FF FF 7F 73 30 37  74E..........s07
0B60: 35 02 80 27 05 F4 92 05  01 07 2B F4 92 05 01 57  5..'......+....W
0B70: 80 23 2A 05 F4 92 05 01  52 0F 80 F8 FF FF 7F F8  .#*.....R.......
0B80: FF FF 7F 73 30 37 35 45  0F 80 F8 FF FF 7F F8 FF  ...s075E........
0B90: FF 7F 73 30 37 36 02 80  4A F4 92 05 01 F0 FF FF  ..s076..J.......
0BA0: 7F 1C 0D 80 66 12 80 F4  92 05 01 F4 92 05 01 74  ....f..........t
0BB0: 77 62 30 2B F4 92 05 01  58 80 23 2B F4 92 05 01  wb0+....X.#+....
0BC0: 59 80 23 52 0F 80 F8 FF  FF 7F F8 FF FF 7F 73 30  Y.#R..........s0
0BD0: 37 36 45 0F 80 F8 FF FF  7F F8 FF FF 7F 73 30 37  76E..........s07
0BE0: 37 02 80 2B F4 92 05 01  5A 80 23 66 12 80 F4 92  7..+....Z.#f....
0BF0: 05 01 F4 92 05 01 74 77  62 31 5D 02 80 07 80 4E  ......twb1]....N
0C00: 00 F5 92 05 01 4E 00 F7  92 05 01 4E 00 F8 92 05  .....N.....N....
0C10: 01 BA F5 92 05 01 5B 80  5C 80 5D 80 5E 80 BA F7  ......[.\.].^...
0C20: 92 05 01 5F 80 60 80 5D  80 5E 80 BA F8 92 05 01  ..._.`.].^......
0C30: 61 80 62 80 5D 80 5E 80  80 F5 92 05 01 80 F7 92  a.b.].^.........
0C40: 05 01 80 F8 92 05 01 5C  00 63 80 5C 01 63 80 9A  .......\.c.\.c..
0C50: 27 05 F5 92 05 01 06 27  05 F7 92 05 01 02 27 05  '......'......'.
0C60: F8 92 05 01 02 1C 0D 80  52 0F 80 F8 FF FF 7F F8  ........R.......
0C70: FF FF 7F 73 30 37 37 45  0F 80 F8 FF FF 7F F8 FF  ...s077E........
0C80: FF 7F 73 30 37 38 02 80  2B F5 92 05 01 64 80 23  ..s078..+....d.#
0C90: 2A 05 F5 92 05 01 4A F4  92 05 01 F5 92 05 01 1C  *.....J.........
0CA0: 0D 80 52 0F 80 F8 FF FF  7F F8 FF FF 7F 73 30 37  ..R..........s07
0CB0: 38 45 0F 80 F8 FF FF 7F  F8 FF FF 7F 73 30 37 39  8E..........s079
0CC0: 02 80 2B F4 92 05 01 65  80 23 BA F0 FF FF 7F 66  ..+....e.#.....f
0CD0: 80 67 80 68 80 5E 80 80  F0 FF FF 7F 4A F0 FF FF  .g.h.^......J...
0CE0: 7F F4 92 05 01 55 0F 80  F8 FF FF 7F F8 FF FF 7F  .....U..........
0CF0: 73 30 37 39 1C 0D 80 45  0F 80 F8 FF FF 7F F8 FF  s079...E........
0D00: FF 7F 73 30 38 30 02 80  66 1F 80 F5 92 05 01 F5  ..s080..f.......
0D10: 92 05 01 74 6C 6B 30 2B  F5 92 05 01 69 80 23 66  ...tlk0+....i.#f
0D20: 1F 80 F5 92 05 01 F5 92  05 01 74 6C 6B 31 27 05  ..........tlk1'.
0D30: F4 92 05 01 08 52 0F 80  F8 FF FF 7F F8 FF FF 7F  .....R..........
0D40: 73 30 38 30 45 0F 80 F8  FF FF 7F F8 FF FF 7F 73  s080E..........s
0D50: 30 38 32 02 80 2B F4 92  05 01 6A 80 23 2A 05 F4  082..+....j.#*..
0D60: 92 05 01 66 1F 80 F5 92  05 01 F5 92 05 01 74 6C  ...f..........tl
0D70: 6B 30 2B F5 92 05 01 6B  80 23 66 1F 80 F5 92 05  k0+....k.#f.....
0D80: 01 F5 92 05 01 74 6C 6B  31 52 0F 80 F8 FF FF 7F  .....tlk1R......
0D90: F8 FF FF 7F 73 30 38 32  45 0F 80 F8 FF FF 7F F8  ....s082E.......
0DA0: FF FF 7F 73 30 38 33 02  80 2B F4 92 05 01 6C 80  ...s083..+....l.
0DB0: 23 52 0F 80 F8 FF FF 7F  F8 FF FF 7F 73 30 38 33  #R..........s083
0DC0: 45 0F 80 F8 FF FF 7F F8  FF FF 7F 73 30 38 34 02  E..........s084.
0DD0: 80 66 12 80 F4 92 05 01  F4 92 05 01 74 77 61 30  .f..........twa0
0DE0: 2B F4 92 05 01 6D 80 23  66 12 80 F4 92 05 01 F4  +....m.#f.......
0DF0: 92 05 01 74 77 61 31 52  0F 80 F8 FF FF 7F F8 FF  ...twa1R........
0E00: FF 7F 73 30 38 34 45 0F  80 F8 FF FF 7F F8 FF FF  ..s084E.........
0E10: 7F 73 30 38 35 02 80 4E  01 F8 92 05 01 66 1F 80  .s085..N.....f..
0E20: F5 92 05 01 F5 92 05 01  74 6C 6B 30 2B F5 92 05  ........tlk0+...
0E30: 01 6E 80 23 66 1F 80 F5  92 05 01 F5 92 05 01 74  .n.#f..........t
0E40: 6C 6B 31 52 0F 80 F8 FF  FF 7F F8 FF FF 7F 73 30  lk1R..........s0
0E50: 38 35 45 0F 80 F8 FF FF  7F F8 FF FF 7F 73 30 38  85E..........s08
0E60: 36 02 80 6E F4 92 05 01  48 80 99 F4 92 05 01 2B  6..n....H......+
0E70: F4 92 05 01 6F 80 23 5D  02 80 07 80 45 01 80 F8  ....o.#]....E...
0E80: FF FF 7F F8 FF FF 7F 66  64 6F 31 02 80 55 01 80  .......fdo1..U..
0E90: F8 FF FF 7F F8 FF FF 7F  66 64 6F 31 52 0F 80 F8  ........fdo1R...
0EA0: FF FF 7F F8 FF FF 7F 73  30 38 36 5C 00 02 80 5C  .......s086\...\
0EB0: 01 02 80 9A 46 00 1C 05  80 45 01 80 F8 FF FF 7F  ....F....E......
0EC0: F8 FF FF 7F 66 64 69 31  02 80 21 00              ....fdi1..!.    
```

#### Opcodes

```
  0: 0x077A [0x42] SET_CLI_EVENT_CANCEL_DATA()
  1: 0x077B [0x5D] SET_MUSIC_VOLUME(volume=0*, fade_time=120*)
  2: 0x0780 [0x45] LOAD_SCHEDULED_TASK: Load scheduler "fdo1" with entities [EventEntity, EventEntity], work=[200*, 0*]
  3: 0x0791 [0x55] WAIT_LOAD_SCHEDULER: Wait for scheduler "fdo1" with entities [EventEntity, EventEntity], work=200*
  4: 0x07A0 [0x46] CAMERA_CONTROL: Disable user control
  5: 0x07A2 [0x38] SET_CLIENT_EVENT_MODE(mode=19*)
  6: 0x07A5 [0x92] Childerich (ID: 17142516/0x010592F4)->Render.Flags3 ^= 0x01
  7: 0x07AB [0x92] Bhoratz (ID: 17142517/0x010592F5)->Render.Flags3 ^= 0x01
  8: 0x07B1 [0x2F] Bhoratz (ID: 17142517/0x010592F5)->Render.Flags0 &= ~0x80000 // Bit 19
  9: 0x07B7 [0x2F] Unnamed NPC (ID: 17142519/0x010592F7)->Render.Flags0 &= ~0x80000 // Bit 19
 10: 0x07BD [0x2F] Unnamed NPC (ID: 17142520/0x010592F8)->Render.Flags0 &= ~0x80000 // Bit 19
 11: 0x07C3 [0x4E] SET_ENTITY_HIDE_FLAG: Show Childerich (ID: 17142516/0x010592F4)
 12: 0x07C9 [0x80] LOAD_WAIT(entity=Childerich (ID: 17142516/0x010592F4))
 13: 0x07CE [0xBA] SET_ENTITY_POSITION(entity_id=LocalPlayer, pos_x=-315.043*, pos_z=-514.361*, pos_y=16.150*, direction=16.4°*)
 14: 0x07DB [0x80] LOAD_WAIT(entity=LocalPlayer)
 15: 0x07E0 [0x4A] Childerich (ID: 17142516/0x010592F4) looks at LocalPlayer
 16: 0x07E9 [0x4A] LocalPlayer looks at Childerich (ID: 17142516/0x010592F4)
 17: 0x07F2 [0x1C] WAIT(30* ticks)
 18: 0x07F5 [0x5C] MUSIC_CONTROL: Set Idle (Day) music to song 123*
 19: 0x07F9 [0x5C] MUSIC_CONTROL: Set Idle (Night) music to song 123*
 20: 0x07FD [0x9A] WAIT_MUSIC_SERVER()
 21: 0x07FE [0x45] LOAD_SCHEDULED_TASK: Load scheduler "s063" with entities [EventEntity, EventEntity], work=[331*, 0*]
 22: 0x080F [0x1C] WAIT(15* ticks)
 23: 0x0812 [0x45] LOAD_SCHEDULED_TASK: Load scheduler "fdi1" with entities [EventEntity, EventEntity], work=[200*, 0*]
 24: 0x0823 [0x55] WAIT_LOAD_SCHEDULER: Wait for scheduler "fdi1" with entities [EventEntity, EventEntity], work=200*
 25: 0x0832 [0x66] LOAD_EXT_SCHEDULER_MAIN: Load scheduler "twb0" with entities [Childerich (ID: 17142516/0x010592F4), Childerich (ID: 17142516/0x010592F4)], work=9*
 26: 0x0841 [0x2B] Childerich (ID: 17142516/0x010592F4) [7759*]:
    → "Are you back again? I'm telling you, there's no Galka here anymore."
 27: 0x0848 [0x23] WAIT_FOR_DIALOG_INTERACTION
 28: 0x0849 [0x66] LOAD_EXT_SCHEDULER_MAIN: Load scheduler "twb1" with entities [Childerich (ID: 17142516/0x010592F4), Childerich (ID: 17142516/0x010592F4)], work=9*
 29: 0x0858 [0x52] END_LOAD_SCHEDULER: End scheduler "s063" with entities [EventEntity, EventEntity], work=331*
 30: 0x0867 [0x45] LOAD_SCHEDULED_TASK: Load scheduler "s064" with entities [EventEntity, EventEntity], work=[331*, 0*]
 31: 0x0878 [0x53] WAIT_SCHEDULER_TASK: Wait for scheduler "twb1" with entities [Childerich (ID: 17142516/0x010592F4), Childerich (ID: 17142516/0x010592F4)]
 32: 0x0885 [0x6E] Childerich (ID: 17142516/0x010592F4) uses emote 22*
 33: 0x088C [0x99] Wait for Childerich (ID: 17142516/0x010592F4) animation to complete
 34: 0x0891 [0x2B] Childerich (ID: 17142516/0x010592F4) [7760*]:
    → "What? You say the whole thing was an act? You really are one boulder short of an avalanche..."
 35: 0x0898 [0x23] WAIT_FOR_DIALOG_INTERACTION
 36: 0x0899 [0x52] END_LOAD_SCHEDULER: End scheduler "s064" with entities [EventEntity, EventEntity], work=331*
 37: 0x08A8 [0x45] LOAD_SCHEDULED_TASK: Load scheduler "s065" with entities [EventEntity, EventEntity], work=[331*, 0*]
 38: 0x08B9 [0x2B] ??? (ID: 17142518/0x010592F6) [7761*]:
    → "Childerich!"
 39: 0x08C0 [0x23] WAIT_FOR_DIALOG_INTERACTION
 40: 0x08C1 [0x52] END_LOAD_SCHEDULER: End scheduler "s065" with entities [EventEntity, EventEntity], work=331*
 41: 0x08D0 [0x45] LOAD_SCHEDULED_TASK: Load scheduler "s066" with entities [EventEntity, EventEntity], work=[331*, 0*]
 42: 0x08E1 [0x6E] Childerich (ID: 17142516/0x010592F4) uses emote 29*
 43: 0x08E8 [0x99] Wait for Childerich (ID: 17142516/0x010592F4) animation to complete
 44: 0x08ED [0x7C] Childerich (ID: 17142516/0x010592F4)->Render.Flags2 |= 0x00
 45: 0x08F3 [0x2B] Childerich (ID: 17142516/0x010592F4) [7762*]:
    → "!!!"
 46: 0x08FA [0x23] WAIT_FOR_DIALOG_INTERACTION
 47: 0x08FB [0x7C] Childerich (ID: 17142516/0x010592F4)->Render.Flags2 |= 0x01
 48: 0x0901 [0x52] END_LOAD_SCHEDULER: End scheduler "s066" with entities [EventEntity, EventEntity], work=331*
 49: 0x0910 [0x45] LOAD_SCHEDULED_TASK: Load scheduler "s067" with entities [EventEntity, EventEntity], work=[331*, 0*]
 50: 0x0921 [0x4B] UPDATE_ENTITY_YAW(entity=Childerich (ID: 17142516/0x010592F4), yaw=1.4°*)
 51: 0x0928 [0x1C] WAIT(60* ticks)
 52: 0x092B [0x2B] Childerich (ID: 17142516/0x010592F4) [7763*]:
    → "I...I'll be right there!"
 53: 0x0932 [0x23] WAIT_FOR_DIALOG_INTERACTION
 54: 0x0933 [0x52] END_LOAD_SCHEDULER: End scheduler "s067" with entities [EventEntity, EventEntity], work=331*
 55: 0x0942 [0x45] LOAD_SCHEDULED_TASK: Load scheduler "s068" with entities [EventEntity, EventEntity], work=[331*, 0*]
 56: 0x0953 [0x4A] Childerich (ID: 17142516/0x010592F4) looks at LocalPlayer
 57: 0x095C [0x1C] WAIT(30* ticks)
 58: 0x095F [0x66] LOAD_EXT_SCHEDULER_MAIN: Load scheduler "twb0" with entities [Childerich (ID: 17142516/0x010592F4), Childerich (ID: 17142516/0x010592F4)], work=9*
 59: 0x096E [0x2B] Childerich (ID: 17142516/0x010592F4) [7764*]:
    → "Listen, I've got work to do. Why don't you go chase after moonbeams or something?"
 60: 0x0975 [0x23] WAIT_FOR_DIALOG_INTERACTION
 61: 0x0976 [0x66] LOAD_EXT_SCHEDULER_MAIN: Load scheduler "twb1" with entities [Childerich (ID: 17142516/0x010592F4), Childerich (ID: 17142516/0x010592F4)], work=9*
 62: 0x0985 [0x52] END_LOAD_SCHEDULER: End scheduler "s068" with entities [EventEntity, EventEntity], work=331*
 63: 0x0994 [0x45] LOAD_SCHEDULED_TASK: Load scheduler "s069" with entities [EventEntity, EventEntity], work=[331*, 0*]
 64: 0x09A5 [0x1C] WAIT(120* ticks)
 65: 0x09A8 [0x52] END_LOAD_SCHEDULER: End scheduler "s069" with entities [EventEntity, EventEntity], work=331*
 66: 0x09B7 [0x45] LOAD_SCHEDULED_TASK: Load scheduler "s070" with entities [EventEntity, EventEntity], work=[331*, 0*]
 67: 0x09C8 [0x66] LOAD_EXT_SCHEDULER_MAIN: Load scheduler "twb0" with entities [Childerich (ID: 17142516/0x010592F4), Childerich (ID: 17142516/0x010592F4)], work=9*
 68: 0x09D7 [0x2B] Childerich (ID: 17142516/0x010592F4) [7765*]:
    → "Not going to budge, are you? Then where's your proof that we made all this up?"
 69: 0x09DE [0x23] WAIT_FOR_DIALOG_INTERACTION
 70: 0x09DF [0x66] LOAD_EXT_SCHEDULER_MAIN: Load scheduler "twb1" with entities [Childerich (ID: 17142516/0x010592F4), Childerich (ID: 17142516/0x010592F4)], work=9*
 71: 0x09EE [0x53] WAIT_SCHEDULER_TASK: Wait for scheduler "twb1" with entities [Childerich (ID: 17142516/0x010592F4), Childerich (ID: 17142516/0x010592F4)]
 72: 0x09FB [0x52] END_LOAD_SCHEDULER: End scheduler "s070" with entities [EventEntity, EventEntity], work=331*
 73: 0x0A0A [0x45] LOAD_SCHEDULED_TASK: Load scheduler "s071" with entities [EventEntity, EventEntity], work=[331*, 0*]
 74: 0x0A1B [0x6E] Childerich (ID: 17142516/0x010592F4) uses emote 22*
 75: 0x0A22 [0x99] Wait for Childerich (ID: 17142516/0x010592F4) animation to complete
 76: 0x0A27 [0x2B] Childerich (ID: 17142516/0x010592F4) [7766*]:
    → "You say there was a script for our little act? And it even had a title? Pfft, and what was the title of this phantom play of yours?"
 77: 0x0A2E [0x23] WAIT_FOR_DIALOG_INTERACTION
 78: 0x0A2F [0x24] CREATE_DIALOG(message_id=7767*, default_option=0*, option_flags=0*)
    → "What was the title? [The Wind's Words./Sprite in the Breeze./Message on the Wind.]"
 79: 0x0A36 [0x25] WAIT_DIALOG_SELECT()
 80: 0x0A37 [0x02] IF !(Work_Zone[0] == 0*) GOTO 0x0A99
 81: 0x0A3F [0x52] END_LOAD_SCHEDULER: End scheduler "s071" with entities [EventEntity, EventEntity], work=331*
 82: 0x0A4E [0x45] LOAD_SCHEDULED_TASK: Load scheduler "s072" with entities [EventEntity, EventEntity], work=[331*, 0*]
 83: 0x0A5F [0x6E] Childerich (ID: 17142516/0x010592F4) uses emote 26*
 84: 0x0A66 [0x99] Wait for Childerich (ID: 17142516/0x010592F4) animation to complete
 85: 0x0A6B [0x2B] Childerich (ID: 17142516/0x010592F4) [7768*]:
    → ""The Wind's Words"? That's awful. Give me some credit, will you?"
 86: 0x0A72 [0x23] WAIT_FOR_DIALOG_INTERACTION
 87: 0x0A73 [0x52] END_LOAD_SCHEDULER: End scheduler "s072" with entities [EventEntity, EventEntity], work=331*
 88: 0x0A82 [0x45] LOAD_SCHEDULED_TASK: Load scheduler "s071" with entities [EventEntity, EventEntity], work=[331*, 0*]
 89: 0x0A93 [0x01] GOTO 0x0A2F

SUBROUTINE_0AFB:
 90: 0x0AFB [0x6E] Childerich (ID: 17142516/0x010592F4) uses emote 21*
 91: 0x0B02 [0x99] Wait for Childerich (ID: 17142516/0x010592F4) animation to complete
 92: 0x0B07 [0x52] END_LOAD_SCHEDULER: End scheduler "s071" with entities [EventEntity, EventEntity], work=331*
 93: 0x0B16 [0x45] LOAD_SCHEDULED_TASK: Load scheduler "s074" with entities [EventEntity, EventEntity], work=[331*, 0*]
 94: 0x0B27 [0x2B] Childerich (ID: 17142516/0x010592F4) [7770*]:
    → "H-how did you...!?"
 95: 0x0B2E [0x23] WAIT_FOR_DIALOG_INTERACTION
 96: 0x0B2F [0x6E] Childerich (ID: 17142516/0x010592F4) uses emote 19*
 97: 0x0B36 [0x99] Wait for Childerich (ID: 17142516/0x010592F4) animation to complete
 98: 0x0B3B [0x2B] Childerich (ID: 17142516/0x010592F4) [7771*]:
    → "Fine. You got me."
 99: 0x0B42 [0x23] WAIT_FOR_DIALOG_INTERACTION
100: 0x0B43 [0x52] END_LOAD_SCHEDULER: End scheduler "s074" with entities [EventEntity, EventEntity], work=331*
101: 0x0B52 [0x45] LOAD_SCHEDULED_TASK: Load scheduler "s075" with entities [EventEntity, EventEntity], work=[331*, 0*]
102: 0x0B63 [0x27] REQ_SET(priority=0x05, entity_id=Childerich (ID: 17142516/0x010592F4), tag_num=0x07)
103: 0x0B6A [0x2B] Childerich (ID: 17142516/0x010592F4) [7772*]:
    → "The Galka you met was no kind of ghost. He's a soldier stationed here, just like the rest of us."
104: 0x0B71 [0x23] WAIT_FOR_DIALOG_INTERACTION
105: 0x0B72 [0x2A] GET_REQ_LEVEL(level=5, entity_id=Childerich (ID: 17142516/0x010592F4))
106: 0x0B78 [0x52] END_LOAD_SCHEDULER: End scheduler "s075" with entities [EventEntity, EventEntity], work=331*
107: 0x0B87 [0x45] LOAD_SCHEDULED_TASK: Load scheduler "s076" with entities [EventEntity, EventEntity], work=[331*, 0*]
108: 0x0B98 [0x4A] Childerich (ID: 17142516/0x010592F4) looks at LocalPlayer
109: 0x0BA1 [0x1C] WAIT(30* ticks)
110: 0x0BA4 [0x66] LOAD_EXT_SCHEDULER_MAIN: Load scheduler "twb0" with entities [Childerich (ID: 17142516/0x010592F4), Childerich (ID: 17142516/0x010592F4)], work=9*
111: 0x0BB3 [0x2B] Childerich (ID: 17142516/0x010592F4) [7773*]:
    → "You heard the winds that sound like the wails of the dead, right? You wouldn't believe how many soldiers we get up here thinking it's the voice of this deceased friend or that departed uncle..."
112: 0x0BBA [0x23] WAIT_FOR_DIALOG_INTERACTION
113: 0x0BBB [0x2B] Childerich (ID: 17142516/0x010592F4) [7774*]:
    → "But these people have to learn to let go. We're in the middle of a war here, and a soldier that can't focus is a dead soldier."
114: 0x0BC2 [0x23] WAIT_FOR_DIALOG_INTERACTION
115: 0x0BC3 [0x52] END_LOAD_SCHEDULER: End scheduler "s076" with entities [EventEntity, EventEntity], work=331*
116: 0x0BD2 [0x45] LOAD_SCHEDULED_TASK: Load scheduler "s077" with entities [EventEntity, EventEntity], work=[331*, 0*]
117: 0x0BE3 [0x2B] Childerich (ID: 17142516/0x010592F4) [7775*]:
    → "That's why we decided to make up this little play. I hope you understand why you need to keep it to yourself."
118: 0x0BEA [0x23] WAIT_FOR_DIALOG_INTERACTION
119: 0x0BEB [0x66] LOAD_EXT_SCHEDULER_MAIN: Load scheduler "twb1" with entities [Childerich (ID: 17142516/0x010592F4), Childerich (ID: 17142516/0x010592F4)], work=9*
120: 0x0BFA [0x5D] SET_MUSIC_VOLUME(volume=0*, fade_time=120*)
121: 0x0BFF [0x4E] SET_ENTITY_HIDE_FLAG: Show Bhoratz (ID: 17142517/0x010592F5)
122: 0x0C05 [0x4E] SET_ENTITY_HIDE_FLAG: Show Unnamed NPC (ID: 17142519/0x010592F7)
123: 0x0C0B [0x4E] SET_ENTITY_HIDE_FLAG: Show Unnamed NPC (ID: 17142520/0x010592F8)
124: 0x0C11 [0xBA] SET_ENTITY_POSITION(entity_id=Bhoratz (ID: 17142517/0x010592F5), pos_x=-319.499*, pos_z=-519.362*, pos_y=15.999*, direction=15.5°*)
125: 0x0C1E [0xBA] SET_ENTITY_POSITION(entity_id=Unnamed NPC (ID: 17142519/0x010592F7), pos_x=-319.538*, pos_z=-520.822*, pos_y=15.999*, direction=15.5°*)
126: 0x0C2B [0xBA] SET_ENTITY_POSITION(entity_id=Unnamed NPC (ID: 17142520/0x010592F8), pos_x=-320.522*, pos_z=-518.776*, pos_y=15.999*, direction=15.5°*)
127: 0x0C38 [0x80] LOAD_WAIT(entity=Bhoratz (ID: 17142517/0x010592F5))
128: 0x0C3D [0x80] LOAD_WAIT(entity=Unnamed NPC (ID: 17142519/0x010592F7))
129: 0x0C42 [0x80] LOAD_WAIT(entity=Unnamed NPC (ID: 17142520/0x010592F8))
130: 0x0C47 [0x5C] MUSIC_CONTROL: Set Idle (Day) music to song 163*
131: 0x0C4B [0x5C] MUSIC_CONTROL: Set Idle (Night) music to song 163*
132: 0x0C4F [0x9A] WAIT_MUSIC_SERVER()
133: 0x0C50 [0x27] REQ_SET(priority=0x05, entity_id=Bhoratz (ID: 17142517/0x010592F5), tag_num=0x06)
134: 0x0C57 [0x27] REQ_SET(priority=0x05, entity_id=Unnamed NPC (ID: 17142519/0x010592F7), tag_num=0x02)
135: 0x0C5E [0x27] REQ_SET(priority=0x05, entity_id=Unnamed NPC (ID: 17142520/0x010592F8), tag_num=0x02)
136: 0x0C65 [0x1C] WAIT(30* ticks)
137: 0x0C68 [0x52] END_LOAD_SCHEDULER: End scheduler "s077" with entities [EventEntity, EventEntity], work=331*
138: 0x0C77 [0x45] LOAD_SCHEDULED_TASK: Load scheduler "s078" with entities [EventEntity, EventEntity], work=[331*, 0*]
139: 0x0C88 [0x2B] Bhoratz (ID: 17142517/0x010592F5) [7776*]:
    → "Aw, you gave the game away?"
140: 0x0C8F [0x23] WAIT_FOR_DIALOG_INTERACTION
141: 0x0C90 [0x2A] GET_REQ_LEVEL(level=5, entity_id=Bhoratz (ID: 17142517/0x010592F5))
142: 0x0C96 [0x4A] Childerich (ID: 17142516/0x010592F4) looks at Bhoratz (ID: 17142517/0x010592F5)
143: 0x0C9F [0x1C] WAIT(30* ticks)
144: 0x0CA2 [0x52] END_LOAD_SCHEDULER: End scheduler "s078" with entities [EventEntity, EventEntity], work=331*
145: 0x0CB1 [0x45] LOAD_SCHEDULED_TASK: Load scheduler "s079" with entities [EventEntity, EventEntity], work=[331*, 0*]
146: 0x0CC2 [0x2B] Childerich (ID: 17142516/0x010592F4) [7777*]:
    → "Wha-!? How did you get over there?"
147: 0x0CC9 [0x23] WAIT_FOR_DIALOG_INTERACTION
148: 0x0CCA [0xBA] SET_ENTITY_POSITION(entity_id=LocalPlayer, pos_x=-313.385*, pos_z=-514.053*, pos_y=16.273*, direction=15.5°*)
149: 0x0CD7 [0x80] LOAD_WAIT(entity=LocalPlayer)
150: 0x0CDC [0x4A] LocalPlayer looks at Childerich (ID: 17142516/0x010592F4)
151: 0x0CE5 [0x55] WAIT_LOAD_SCHEDULER: Wait for scheduler "s079" with entities [EventEntity, EventEntity], work=331*
152: 0x0CF4 [0x1C] WAIT(30* ticks)
153: 0x0CF7 [0x45] LOAD_SCHEDULED_TASK: Load scheduler "s080" with entities [EventEntity, EventEntity], work=[331*, 0*]
154: 0x0D08 [0x66] LOAD_EXT_SCHEDULER_MAIN: Load scheduler "tlk0" with entities [Bhoratz (ID: 17142517/0x010592F5), Bhoratz (ID: 17142517/0x010592F5)], work=69*
155: 0x0D17 [0x2B] Bhoratz (ID: 17142517/0x010592F5) [7778*]:
    → "What do you mean? I just got back from my patrol. What's wrong? You look like you've seen a ghost."
156: 0x0D1E [0x23] WAIT_FOR_DIALOG_INTERACTION
157: 0x0D1F [0x66] LOAD_EXT_SCHEDULER_MAIN: Load scheduler "tlk1" with entities [Bhoratz (ID: 17142517/0x010592F5), Bhoratz (ID: 17142517/0x010592F5)], work=69*
158: 0x0D2E [0x27] REQ_SET(priority=0x05, entity_id=Childerich (ID: 17142516/0x010592F4), tag_num=0x08)
159: 0x0D35 [0x52] END_LOAD_SCHEDULER: End scheduler "s080" with entities [EventEntity, EventEntity], work=331*
160: 0x0D44 [0x45] LOAD_SCHEDULED_TASK: Load scheduler "s082" with entities [EventEntity, EventEntity], work=[331*, 0*]
161: 0x0D55 [0x2B] Childerich (ID: 17142516/0x010592F4) [7779*]:
    → "But...you were just in the cabin! I was talking to you!"
162: 0x0D5C [0x23] WAIT_FOR_DIALOG_INTERACTION
163: 0x0D5D [0x2A] GET_REQ_LEVEL(level=5, entity_id=Childerich (ID: 17142516/0x010592F4))
164: 0x0D63 [0x66] LOAD_EXT_SCHEDULER_MAIN: Load scheduler "tlk0" with entities [Bhoratz (ID: 17142517/0x010592F5), Bhoratz (ID: 17142517/0x010592F5)], work=69*
165: 0x0D72 [0x2B] Bhoratz (ID: 17142517/0x010592F5) [7780*]:
    → "I told you, I've been on patrol up the mountain."
166: 0x0D79 [0x23] WAIT_FOR_DIALOG_INTERACTION
167: 0x0D7A [0x66] LOAD_EXT_SCHEDULER_MAIN: Load scheduler "tlk1" with entities [Bhoratz (ID: 17142517/0x010592F5), Bhoratz (ID: 17142517/0x010592F5)], work=69*
168: 0x0D89 [0x52] END_LOAD_SCHEDULER: End scheduler "s082" with entities [EventEntity, EventEntity], work=331*
169: 0x0D98 [0x45] LOAD_SCHEDULED_TASK: Load scheduler "s083" with entities [EventEntity, EventEntity], work=[331*, 0*]
170: 0x0DA9 [0x2B] Childerich (ID: 17142516/0x010592F4) [7781*]:
    → "Then who in Altana's name was I just talking to?"
171: 0x0DB0 [0x23] WAIT_FOR_DIALOG_INTERACTION
172: 0x0DB1 [0x52] END_LOAD_SCHEDULER: End scheduler "s083" with entities [EventEntity, EventEntity], work=331*
173: 0x0DC0 [0x45] LOAD_SCHEDULED_TASK: Load scheduler "s084" with entities [EventEntity, EventEntity], work=[331*, 0*]
174: 0x0DD1 [0x66] LOAD_EXT_SCHEDULER_MAIN: Load scheduler "twa0" with entities [Childerich (ID: 17142516/0x010592F4), Childerich (ID: 17142516/0x010592F4)], work=9*
175: 0x0DE0 [0x2B] Childerich (ID: 17142516/0x010592F4) [7782*]:
    → "I see what's going on here. You're trying out some new act on me, right? Right?"
176: 0x0DE7 [0x23] WAIT_FOR_DIALOG_INTERACTION
177: 0x0DE8 [0x66] LOAD_EXT_SCHEDULER_MAIN: Load scheduler "twa1" with entities [Childerich (ID: 17142516/0x010592F4), Childerich (ID: 17142516/0x010592F4)], work=9*
178: 0x0DF7 [0x52] END_LOAD_SCHEDULER: End scheduler "s084" with entities [EventEntity, EventEntity], work=331*
179: 0x0E06 [0x45] LOAD_SCHEDULED_TASK: Load scheduler "s085" with entities [EventEntity, EventEntity], work=[331*, 0*]
180: 0x0E17 [0x4E] SET_ENTITY_HIDE_FLAG: Hide Unnamed NPC (ID: 17142520/0x010592F8)
181: 0x0E1D [0x66] LOAD_EXT_SCHEDULER_MAIN: Load scheduler "tlk0" with entities [Bhoratz (ID: 17142517/0x010592F5), Bhoratz (ID: 17142517/0x010592F5)], work=69*
182: 0x0E2C [0x2B] Bhoratz (ID: 17142517/0x010592F5) [7783*]:
    → "Act? The only one acting is you. And strangely, at that."
183: 0x0E33 [0x23] WAIT_FOR_DIALOG_INTERACTION
184: 0x0E34 [0x66] LOAD_EXT_SCHEDULER_MAIN: Load scheduler "tlk1" with entities [Bhoratz (ID: 17142517/0x010592F5), Bhoratz (ID: 17142517/0x010592F5)], work=69*
185: 0x0E43 [0x52] END_LOAD_SCHEDULER: End scheduler "s085" with entities [EventEntity, EventEntity], work=331*
186: 0x0E52 [0x45] LOAD_SCHEDULED_TASK: Load scheduler "s086" with entities [EventEntity, EventEntity], work=[331*, 0*]
187: 0x0E63 [0x6E] Childerich (ID: 17142516/0x010592F4) uses emote 29*
188: 0x0E6A [0x99] Wait for Childerich (ID: 17142516/0x010592F4) animation to complete
189: 0x0E6F [0x2B] Childerich (ID: 17142516/0x010592F4) [7784*]:
    → "No! I swear I'm not acting! Come on, tell me this is some trick!"
190: 0x0E76 [0x23] WAIT_FOR_DIALOG_INTERACTION
191: 0x0E77 [0x5D] SET_MUSIC_VOLUME(volume=0*, fade_time=120*)
192: 0x0E7C [0x45] LOAD_SCHEDULED_TASK: Load scheduler "fdo1" with entities [EventEntity, EventEntity], work=[200*, 0*]
193: 0x0E8D [0x55] WAIT_LOAD_SCHEDULER: Wait for scheduler "fdo1" with entities [EventEntity, EventEntity], work=200*
194: 0x0E9C [0x52] END_LOAD_SCHEDULER: End scheduler "s086" with entities [EventEntity, EventEntity], work=331*
195: 0x0EAB [0x5C] MUSIC_CONTROL: Set Idle (Day) music to song 0*
196: 0x0EAF [0x5C] MUSIC_CONTROL: Set Idle (Night) music to song 0*
197: 0x0EB3 [0x9A] WAIT_MUSIC_SERVER()
198: 0x0EB4 [0x46] CAMERA_CONTROL: Restore default settings
199: 0x0EB6 [0x1C] WAIT(60* ticks)
200: 0x0EB9 [0x45] LOAD_SCHEDULED_TASK: Load scheduler "fdi1" with entities [EventEntity, EventEntity], work=[200*, 0*]
201: 0x0ECA [0x21] END_EVENT
202: 0x0ECB [0x00] END_REQSTACK()
```

#### Data or dead code:

```
# Dead code (unreachable instructions):
     0x0A96 [0x01] GOTO 0x0AFB
     0x0AF8 [0x01] GOTO 0x0AFB
```

### Event 500

#### Metadata

| Field        | Value     |
|--------------|-----------|
| Entrypoint   | 0x0ECC    |
| Data Size    | 503 bytes |
| Instructions | 109       |

```
      00 01 02 03 04 05 06 07  08 09 0A 0B 0C 0D 0E 0F
      -- -- -- -- -- -- -- --  -- -- -- -- -- -- -- --
0EC0:                                      20 01 42 03               .B.
0ED0: 01 00 02 10 03 02 00 03  10 03 03 00 04 10 03 04  ................
0EE0: 00 05 10 03 05 00 06 10  02 01 00 03 80 00 FB 0E  ................
0EF0: 2B BB 92 05 01 70 80 23  01 BF 10 02 05 00 02 80  +....p.#........
0F00: 00 57 10 02 04 00 02 80  80 16 0F 2B BB 92 05 01  .W.........+....
0F10: 70 80 23 01 54 10 02 04  00 03 80 80 B5 0F 02 02  p.#.T...........
0F20: 00 02 80 80 31 0F 2B BB  92 05 01 70 80 23 01 B2  ....1.+....p.#..
0F30: 0F 02 02 00 03 80 80 5C  0F 02 03 00 03 80 00 51  .......\.......Q
0F40: 0F 03 02 10 02 80 2B BB  92 05 01 71 80 23 01 59  ......+....q.#.Y
0F50: 0F 2B BB 92 05 01 70 80  23 01 B2 0F 02 02 00 72  .+....p.#......r
0F60: 80 80 87 0F 02 03 00 72  80 00 7C 0F 03 02 10 03  .......r..|.....
0F70: 80 2B BB 92 05 01 71 80  23 01 84 0F 2B BB 92 05  .+....q.#...+...
0F80: 01 70 80 23 01 B2 0F 02  02 00 73 80 80 B2 0F 02  .p.#......s.....
0F90: 03 00 73 80 00 A7 0F 03  02 10 72 80 2B BB 92 05  ..s.......r.+...
0FA0: 01 71 80 23 01 AF 0F 2B  BB 92 05 01 70 80 23 01  .q.#...+....p.#.
0FB0: B2 0F 01 54 10 02 04 00  72 80 80 54 10 02 02 00  ...T....r..T....
0FC0: 02 80 80 D0 0F 2B BB 92  05 01 70 80 23 01 51 10  .....+....p.#.Q.
0FD0: 02 02 00 03 80 80 FB 0F  03 02 10 02 80 02 03 00  ................
0FE0: 03 80 00 F0 0F 2B BB 92  05 01 74 80 23 01 F8 0F  .....+....t.#...
0FF0: 2B BB 92 05 01 75 80 23  01 51 10 02 02 00 72 80  +....u.#.Q....r.
1000: 80 26 10 03 02 10 03 80  02 03 00 72 80 00 1B 10  .&.........r....
1010: 2B BB 92 05 01 74 80 23  01 23 10 2B BB 92 05 01  +....t.#.#.+....
1020: 75 80 23 01 51 10 02 02  00 73 80 80 51 10 03 02  u.#.Q....s..Q...
1030: 10 72 80 02 03 00 73 80  00 46 10 2B BB 92 05 01  .r....s..F.+....
1040: 74 80 23 01 4E 10 2B BB  92 05 01 75 80 23 01 51  t.#.N.+....u.#.Q
1050: 10 01 54 10 01 BF 10 02  05 00 03 80 80 7F 10 03  ..T.............
1060: 02 10 76 80 2B BB 92 05  01 77 80 23 2B BB 92 05  ..v.+....w.#+...
1070: 01 78 80 23 2B BB 92 05  01 79 80 23 01 BF 10 02  .x.#+....y.#....
1080: 05 00 72 80 80 9F 10 03  02 10 76 80 2B BB 92 05  ..r.......v.+...
1090: 01 77 80 23 2B BB 92 05  01 78 80 23 01 BF 10 02  .w.#+....x.#....
10A0: 05 00 73 80 80 BF 10 03  02 10 7A 80 2B BB 92 05  ..s.......z.+...
10B0: 01 7B 80 23 2B BB 92 05  01 7C 80 23 01 BF 10 20  .{.#+....|.#... 
10C0: 00 21 00                                          .!.             
```

#### Opcodes

```
  0: 0x0ECC [0x20] SET_CLI_EVENT_UC_FLAG: Lock player control
  1: 0x0ECE [0x42] SET_CLI_EVENT_CANCEL_DATA()
  2: 0x0ECF [0x03] ExtData[1]->WorkLocal[1] = Work_Zone[2]
  3: 0x0ED4 [0x03] ExtData[1]->WorkLocal[2] = Work_Zone[3]
  4: 0x0ED9 [0x03] ExtData[1]->WorkLocal[3] = Work_Zone[4]
  5: 0x0EDE [0x03] ExtData[1]->WorkLocal[4] = Work_Zone[5]
  6: 0x0EE3 [0x03] ExtData[1]->WorkLocal[5] = Work_Zone[6]
  7: 0x0EE8 [0x02] IF !(ExtData[1]->WorkLocal[1] == 1*) GOTO 0x0EFB
  8: 0x0EF0 [0x2B] Areuhat (ID: 17142459/0x010592BB) [7788*]:
    → "I'm just a little tired, is all. I do not require your concern."
  9: 0x0EF7 [0x23] WAIT_FOR_DIALOG_INTERACTION
 10: 0x0EF8 [0x01] GOTO 0x10BF
 11: 0x0EFB [0x02] IF !(ExtData[1]->WorkLocal[5] == 0*) GOTO 0x1057
 12: 0x0F03 [0x02] IF !(ExtData[1]->WorkLocal[4] == 0*) GOTO 0x0F16
 13: 0x0F0B [0x2B] Areuhat (ID: 17142459/0x010592BB) [7788*]:
    → "I'm just a little tired, is all. I do not require your concern."
 14: 0x0F12 [0x23] WAIT_FOR_DIALOG_INTERACTION
 15: 0x0F13 [0x01] GOTO 0x1054
 16: 0x0F16 [0x02] IF !(ExtData[1]->WorkLocal[4] == 1*) GOTO 0x0FB5
 17: 0x0F1E [0x02] IF !(ExtData[1]->WorkLocal[2] == 0*) GOTO 0x0F31
 18: 0x0F26 [0x2B] Areuhat (ID: 17142459/0x010592BB) [7788*]:
    → "I'm just a little tired, is all. I do not require your concern."
 19: 0x0F2D [0x23] WAIT_FOR_DIALOG_INTERACTION
 20: 0x0F2E [0x01] GOTO 0x0FB2
 21: 0x0F31 [0x02] IF !(ExtData[1]->WorkLocal[2] == 1*) GOTO 0x0F5C
 22: 0x0F39 [0x02] IF !(ExtData[1]->WorkLocal[3] == 1*) GOTO 0x0F51
 23: 0x0F41 [0x03] Work_Zone[2] = 0*
 24: 0x0F46 [0x2B] Areuhat (ID: 17142459/0x010592BB) [7789*]:
    → "They are truly worthy of great praise, the people I have come to see in my time here. With their industriousness and dedication they will slay countless beastmen. Even more than myself."
 25: 0x0F4D [0x23] WAIT_FOR_DIALOG_INTERACTION
 26: 0x0F4E [0x01] GOTO 0x0F59
 27: 0x0F51 [0x2B] Areuhat (ID: 17142459/0x010592BB) [7788*]:
    → "I'm just a little tired, is all. I do not require your concern."
 28: 0x0F58 [0x23] WAIT_FOR_DIALOG_INTERACTION

SUBROUTINE_0F59:
 29: 0x0F59 [0x01] GOTO 0x0FB2
 30: 0x0F5C [0x02] IF !(ExtData[1]->WorkLocal[2] == 2*) GOTO 0x0F87
 31: 0x0F64 [0x02] IF !(ExtData[1]->WorkLocal[3] == 2*) GOTO 0x0F7C
 32: 0x0F6C [0x03] Work_Zone[2] = 1*
 33: 0x0F71 [0x2B] Areuhat (ID: 17142459/0x010592BB) [7789*]:
    → "They are truly worthy of great praise, the people I have come to see in my time here. With their industriousness and dedication they will slay countless beastmen. Even more than myself."
 34: 0x0F78 [0x23] WAIT_FOR_DIALOG_INTERACTION
 35: 0x0F79 [0x01] GOTO 0x0F84
 36: 0x0F7C [0x2B] Areuhat (ID: 17142459/0x010592BB) [7788*]:
    → "I'm just a little tired, is all. I do not require your concern."
 37: 0x0F83 [0x23] WAIT_FOR_DIALOG_INTERACTION

SUBROUTINE_0F84:
 38: 0x0F84 [0x01] GOTO 0x0FB2
 39: 0x0F87 [0x02] IF !(ExtData[1]->WorkLocal[2] == 3*) GOTO 0x0FB2
 40: 0x0F8F [0x02] IF !(ExtData[1]->WorkLocal[3] == 3*) GOTO 0x0FA7
 41: 0x0F97 [0x03] Work_Zone[2] = 2*
 42: 0x0F9C [0x2B] Areuhat (ID: 17142459/0x010592BB) [7789*]:
    → "They are truly worthy of great praise, the people I have come to see in my time here. With their industriousness and dedication they will slay countless beastmen. Even more than myself."
 43: 0x0FA3 [0x23] WAIT_FOR_DIALOG_INTERACTION
 44: 0x0FA4 [0x01] GOTO 0x0FAF
 45: 0x0FA7 [0x2B] Areuhat (ID: 17142459/0x010592BB) [7788*]:
    → "I'm just a little tired, is all. I do not require your concern."
 46: 0x0FAE [0x23] WAIT_FOR_DIALOG_INTERACTION

SUBROUTINE_0FAF:
 47: 0x0FAF [0x01] GOTO 0x0FB2

SUBROUTINE_0FB2:
 48: 0x0FB2 [0x01] GOTO 0x1054
 49: 0x0FB5 [0x02] IF !(ExtData[1]->WorkLocal[4] == 2*) GOTO 0x1054
 50: 0x0FBD [0x02] IF !(ExtData[1]->WorkLocal[2] == 0*) GOTO 0x0FD0
 51: 0x0FC5 [0x2B] Areuhat (ID: 17142459/0x010592BB) [7788*]:
    → "I'm just a little tired, is all. I do not require your concern."
 52: 0x0FCC [0x23] WAIT_FOR_DIALOG_INTERACTION
 53: 0x0FCD [0x01] GOTO 0x1051
 54: 0x0FD0 [0x02] IF !(ExtData[1]->WorkLocal[2] == 1*) GOTO 0x0FFB
 55: 0x0FD8 [0x03] Work_Zone[2] = 0*
 56: 0x0FDD [0x02] IF !(ExtData[1]->WorkLocal[3] == 1*) GOTO 0x0FF0
 57: 0x0FE5 [0x2B] Areuhat (ID: 17142459/0x010592BB) [7791*]:
    → "It has been ages since the races of Vana'diel began to worship the line of the wyrms. But you, adventurer, seem to be...different, somehow. Know this. That those who pay proper homage to the wyrms will not go unrewarded."
 58: 0x0FEC [0x23] WAIT_FOR_DIALOG_INTERACTION
 59: 0x0FED [0x01] GOTO 0x0FF8
 60: 0x0FF0 [0x2B] Areuhat (ID: 17142459/0x010592BB) [7790*]:
    → "And what is this? "medicine," you say? Hmph, most novel. The inventiveness of your kind will never cease to amaze me."
 61: 0x0FF7 [0x23] WAIT_FOR_DIALOG_INTERACTION

SUBROUTINE_0FF8:
 62: 0x0FF8 [0x01] GOTO 0x1051
 63: 0x0FFB [0x02] IF !(ExtData[1]->WorkLocal[2] == 2*) GOTO 0x1026
 64: 0x1003 [0x03] Work_Zone[2] = 1*
 65: 0x1008 [0x02] IF !(ExtData[1]->WorkLocal[3] == 2*) GOTO 0x101B
 66: 0x1010 [0x2B] Areuhat (ID: 17142459/0x010592BB) [7791*]:
    → "It has been ages since the races of Vana'diel began to worship the line of the wyrms. But you, adventurer, seem to be...different, somehow. Know this. That those who pay proper homage to the wyrms will not go unrewarded."
 67: 0x1017 [0x23] WAIT_FOR_DIALOG_INTERACTION
 68: 0x1018 [0x01] GOTO 0x1023
 69: 0x101B [0x2B] Areuhat (ID: 17142459/0x010592BB) [7790*]:
    → "And what is this? "medicine," you say? Hmph, most novel. The inventiveness of your kind will never cease to amaze me."
 70: 0x1022 [0x23] WAIT_FOR_DIALOG_INTERACTION

SUBROUTINE_1023:
 71: 0x1023 [0x01] GOTO 0x1051
 72: 0x1026 [0x02] IF !(ExtData[1]->WorkLocal[2] == 3*) GOTO 0x1051
 73: 0x102E [0x03] Work_Zone[2] = 2*
 74: 0x1033 [0x02] IF !(ExtData[1]->WorkLocal[3] == 3*) GOTO 0x1046
 75: 0x103B [0x2B] Areuhat (ID: 17142459/0x010592BB) [7791*]:
    → "It has been ages since the races of Vana'diel began to worship the line of the wyrms. But you, adventurer, seem to be...different, somehow. Know this. That those who pay proper homage to the wyrms will not go unrewarded."
 76: 0x1042 [0x23] WAIT_FOR_DIALOG_INTERACTION
 77: 0x1043 [0x01] GOTO 0x104E
 78: 0x1046 [0x2B] Areuhat (ID: 17142459/0x010592BB) [7790*]:
    → "And what is this? "medicine," you say? Hmph, most novel. The inventiveness of your kind will never cease to amaze me."
 79: 0x104D [0x23] WAIT_FOR_DIALOG_INTERACTION

SUBROUTINE_104E:
 80: 0x104E [0x01] GOTO 0x1051

SUBROUTINE_1051:
 81: 0x1051 [0x01] GOTO 0x1054

SUBROUTINE_1054:
 82: 0x1054 [0x01] GOTO 0x10BF
 83: 0x1057 [0x02] IF !(ExtData[1]->WorkLocal[5] == 1*) GOTO 0x107F
 84: 0x105F [0x03] Work_Zone[2] = 17397*
 85: 0x1064 [0x2B] Areuhat (ID: 17142459/0x010592BB) [7792*]:
    → "Is this... Could it be... $0!? For me!?"
 86: 0x106B [0x23] WAIT_FOR_DIALOG_INTERACTION
 87: 0x106C [0x2B] Areuhat (ID: 17142459/0x010592BB) [7793*]:
    → "It would seem these lands may still hold some allure yet. Very well, I accept your offering."
 88: 0x1073 [0x23] WAIT_FOR_DIALOG_INTERACTION
 89: 0x1074 [0x2B] Areuhat (ID: 17142459/0x010592BB) [7794*]:
    → "You are a truly righteous soul, <Player>. That you are willing to continue to show such devoutness even now, when not called for... It moves me, deeply. You have earned my respect, and my hand. And you shall have them both!"
 90: 0x107B [0x23] WAIT_FOR_DIALOG_INTERACTION
 91: 0x107C [0x01] GOTO 0x10BF
 92: 0x107F [0x02] IF !(ExtData[1]->WorkLocal[5] == 2*) GOTO 0x109F
 93: 0x1087 [0x03] Work_Zone[2] = 17397*
 94: 0x108C [0x2B] Areuhat (ID: 17142459/0x010592BB) [7792*]:
    → "Is this... Could it be... $0!? For me!?"
 95: 0x1093 [0x23] WAIT_FOR_DIALOG_INTERACTION
 96: 0x1094 [0x2B] Areuhat (ID: 17142459/0x010592BB) [7793*]:
    → "It would seem these lands may still hold some allure yet. Very well, I accept your offering."
 97: 0x109B [0x23] WAIT_FOR_DIALOG_INTERACTION
 98: 0x109C [0x01] GOTO 0x10BF
 99: 0x109F [0x02] IF !(ExtData[1]->WorkLocal[5] == 3*) GOTO 0x10BF
100: 0x10A7 [0x03] Work_Zone[2] = 17001*
101: 0x10AC [0x2B] Areuhat (ID: 17142459/0x010592BB) [7795*]:
    → "Hm, what is this? You come bearing $0? Hmph, I should have expected as much."
102: 0x10B3 [0x23] WAIT_FOR_DIALOG_INTERACTION
103: 0x10B4 [0x2B] Areuhat (ID: 17142459/0x010592BB) [7796*]:
    → "Hear me well, mortal, for so easily are your kind distracted by such superficialities. Know this, that larger does not always equate with better. And that sometimes, the best of things come in the smallest of sizes."
104: 0x10BB [0x23] WAIT_FOR_DIALOG_INTERACTION
105: 0x10BC [0x01] GOTO 0x10BF

SUBROUTINE_10BF:
106: 0x10BF [0x20] SET_CLI_EVENT_UC_FLAG: Unlock player control
107: 0x10C1 [0x21] END_EVENT
108: 0x10C2 [0x00] END_REQSTACK()
```

### Event 11

#### Metadata

| Field        | Value      |
|--------------|------------|
| Entrypoint   | 0x10C3     |
| Data Size    | 1246 bytes |
| Instructions | 148        |

```
      00 01 02 03 04 05 06 07  08 09 0A 0B 0C 0D 0E 0F
      -- -- -- -- -- -- -- --  -- -- -- -- -- -- -- --
10C0:          42 5D 02 80 07  80 45 01 80 F8 FF FF 7F     B]....E......
10D0: F8 FF FF 7F 66 64 6F 31  02 80 55 01 80 F8 FF FF  ....fdo1..U.....
10E0: 7F F8 FF FF 7F 66 64 6F  31 46 01 38 08 80 2F 00  .....fdo1F.8../.
10F0: FD 92 05 01 4E 00 FD 92  05 01 2F 00 FE 92 05 01  ....N...../.....
1100: 4E 00 FE 92 05 01 2F 00  FF 92 05 01 2F 00 00 93  N...../...../...
1110: 05 01 2F 00 01 93 05 01  BA FD 92 05 01 7D 80 7E  ../..........}.~
1120: 80 7F 80 80 80 BA FE 92  05 01 81 80 82 80 83 80  ................
1130: 80 80 BA F0 FF FF 7F 84  80 85 80 86 80 80 80 80  ................
1140: FD 92 05 01 80 FE 92 05  01 80 F0 FF FF 7F 45 87  ..............E.
1150: 80 F8 FF FF 7F F8 FF FF  7F 73 30 33 32 02 80 1C  .........s032...
1160: 10 80 45 01 80 F8 FF FF  7F F8 FF FF 7F 66 64 69  ..E..........fdi
1170: 31 02 80 55 01 80 F8 FF  FF 7F F8 FF FF 7F 66 64  1..U..........fd
1180: 69 31 48 88 80 23 27 05  F0 FF FF 7F 11 52 87 80  i1H..#'......R..
1190: F8 FF FF 7F F8 FF FF 7F  73 30 33 32 45 87 80 F8  ........s032E...
11A0: FF FF 7F F8 FF FF 7F 73  30 33 33 02 80 2A 05 F0  .......s033..*..
11B0: FF FF 7F 48 89 80 23 27  05 FD 92 05 01 02 1C 0D  ...H..#'........
11C0: 80 52 87 80 F8 FF FF 7F  F8 FF FF 7F 73 30 33 33  .R..........s033
11D0: 45 87 80 F8 FF FF 7F F8  FF FF 7F 73 30 33 34 02  E..........s034.
11E0: 80 27 05 F0 FF FF 7F 12  2B FD 92 05 01 8A 80 23  .'......+......#
11F0: 2A 05 F0 FF FF 7F 2A 05  FD 92 05 01 27 05 FE 92  *.....*.....'...
1200: 05 01 02 1C 0D 80 52 87  80 F8 FF FF 7F F8 FF FF  ......R.........
1210: 7F 73 30 33 34 45 87 80  F8 FF FF 7F F8 FF FF 7F  .s034E..........
1220: 73 30 39 37 02 80 27 05  FD 92 05 01 03 2B FD 92  s097..'......+..
1230: 05 01 8B 80 23 2A 05 FD  92 05 01 2A 05 FE 92 05  ....#*.....*....
1240: 01 52 87 80 F8 FF FF 7F  F8 FF FF 7F 73 30 39 37  .R..........s097
1250: 45 87 80 F8 FF FF 7F F8  FF FF 7F 73 30 33 35 02  E..........s035.
1260: 80 2B FE 92 05 01 8C 80  23 4E 00 FF 92 05 01 4E  .+......#N.....N
1270: 00 00 93 05 01 4E 00 01  93 05 01 BA FF 92 05 01  .....N..........
1280: 8D 80 8E 80 8F 80 80 80  BA 00 93 05 01 90 80 91  ................
1290: 80 92 80 93 80 BA 01 93  05 01 94 80 95 80 96 80  ................
12A0: 80 80 80 FF 92 05 01 80  00 93 05 01 80 01 93 05  ................
12B0: 01 5C 00 97 80 5C 01 97  80 9A 27 05 FF 92 05 01  .\...\....'.....
12C0: 02 27 05 00 93 05 01 02  27 05 01 93 05 01 02 1C  .'......'.......
12D0: 0D 80 52 87 80 F8 FF FF  7F F8 FF FF 7F 73 30 33  ..R..........s03
12E0: 35 45 87 80 F8 FF FF 7F  F8 FF FF 7F 73 30 33 36  5E..........s036
12F0: 02 80 BA F0 FF FF 7F 98  80 99 80 9A 80 9B 80 80  ................
1300: F0 FF FF 7F 2A 05 FF 92  05 01 2B FF 92 05 01 9C  ....*.....+.....
1310: 80 23 52 87 80 F8 FF FF  7F F8 FF FF 7F 73 30 33  .#R..........s03
1320: 36 45 87 80 F8 FF FF 7F  F8 FF FF 7F 73 30 33 37  6E..........s037
1330: 02 80 4A FF 92 05 01 FD  92 05 01 4A FD 92 05 01  ..J........J....
1340: FF 92 05 01 4A FE 92 05  01 FF 92 05 01 4A F0 FF  ....J........J..
1350: FF 7F FF 92 05 01 1C 0D  80 2B FD 92 05 01 9D 80  .........+......
1360: 23 5B 9E 80 FF 92 05 01  FF 92 05 01 63 72 73 30  #[..........crs0
1370: 52 87 80 F8 FF FF 7F F8  FF FF 7F 73 30 33 37 45  R..........s037E
1380: 87 80 F8 FF FF 7F F8 FF  FF 7F 73 30 33 38 02 80  ..........s038..
1390: 1C 05 80 2B FF 92 05 01  9F 80 23 53 FF 92 05 01  ...+......#S....
13A0: FF 92 05 01 63 72 73 30  52 87 80 F8 FF FF 7F F8  ....crs0R.......
13B0: FF FF 7F 73 30 33 38 45  87 80 F8 FF FF 7F F8 FF  ...s038E........
13C0: FF 7F 73 30 33 39 02 80  6B 69 64 6C 30 FF 92 05  ..s039..kidl0...
13D0: 01 BA 01 93 05 01 A0 80  A1 80 A2 80 9B 80 80 01  ................
