# Event 65535

## Metadata

| Field           | Value    |
|-----------------|----------|
| Event Index     | 129/135  |
| Offset          | 0x0965   |
| Data Size       | 34 bytes |
| Calculated Size | 34 bytes |
| Instructions    | 9        |

```
      00 01 02 03 04 05 06 07  08 09 0A 0B 0C 0D 0E 0F
      -- -- -- -- -- -- -- --  -- -- -- -- -- -- -- --
0960:                1E 5D 80  11 01 6F 70 1C 0D 80 32       .]...op...2
0970: 12 80 1F 00 4F 80 50 80  51 80 1F 01 79 00 F8 FF  ....O.P.Q...y...
0980: FF 7F 60 80 11 01 00                              ..`....         
```

## Opcodes

```
  0: 0x0965 [0x1E] EventEntity looks at Monsieur Kupont (ID: 17924189/0x0111805D) and starts talking
  1: 0x096A [0x6F] WAIT_FRAME_DELAY: Yield until WaitTime reaches zero
  2: 0x096B [0x70] WAIT_ENTITY_RENDER_FLAG: Wait while EventEntity->Render.Flags3 bit 2 is set (cancel turn if not)
  3: 0x096C [0x1C] WAIT(60* ticks)
  4: 0x096F [0x32] ExtData[1]->MainSpeed = 13* * 0.1
  5: 0x0972 [0x1F] MOVE_ENTITY: EventEntity moves to X=9.526*, Z=10.996*, Y=-0.303*
  6: 0x097A [0x1F] MOVE_ENTITY: Update entity position (mode=1)
  7: 0x097C [0x79] EventEntity looks at 01 (ID: 17924192/0x01118060) (Basic look)
  8: 0x0986 [0x00] END_REQSTACK()
```
