# Event 117

## Metadata

| Field           | Value    |
|-----------------|----------|
| Event Index     | 12/33    |
| Offset          | 0x0093   |
| Data Size       | 19 bytes |
| Calculated Size | 19 bytes |
| Instructions    | 10       |

```
      00 01 02 03 04 05 06 07  08 09 0A 0B 0C 0D 0E 0F
      -- -- -- -- -- -- -- --  -- -- -- -- -- -- -- --
0090:          1E F0 FF FF 7F  6F 70 1D 0C 80 23 1D 0D     .....op...#..
00A0: 80 23 20 00 21 00                                 .# .!.          
```

## Opcodes

```
  0: 0x0093 [0x1E] EventEntity looks at LocalPlayer and starts talking
  1: 0x0098 [0x6F] WAIT_FRAME_DELAY: Yield until WaitTime reaches zero
  2: 0x0099 [0x70] WAIT_ENTITY_RENDER_FLAG: Wait while EventEntity->Render.Flags3 bit 2 is set (cancel turn if not)
  3: 0x009A [0x1D] PRINT_EVENT_MESSAGE(message_id=3432*)
    → "aS CaRdIaNs\u0001\u001AgRoW ThEy\u0001\u001AbEcOmE MoRe\u0001\u001AaNd mOrE\u0001\u001AlIKe ReAl\u0001\u001ApEoPlE!\u007F1\u0000\u0007"
  4: 0x009D [0x23] WAIT_FOR_DIALOG_INTERACTION
  5: 0x009E [0x1D] PRINT_EVENT_MESSAGE(message_id=3433*)
    → "BuT\u0001\u001AiT Is\u0001\u001Aa LoNg\u0001\u001AaNd SloW\u0001\u001AroAd...!\u007F1\u0000\u0007"
  6: 0x00A1 [0x23] WAIT_FOR_DIALOG_INTERACTION
  7: 0x00A2 [0x20] SET_CLI_EVENT_UC_FLAG: Unlock player control
  8: 0x00A4 [0x21] END_EVENT
  9: 0x00A5 [0x00] END_REQSTACK()
```
