# Event 161

## Metadata

| Field           | Value    |
|-----------------|----------|
| Event Index     | 18/33    |
| Offset          | 0x00F9   |
| Data Size       | 19 bytes |
| Calculated Size | 19 bytes |
| Instructions    | 10       |

```
      00 01 02 03 04 05 06 07  08 09 0A 0B 0C 0D 0E 0F
      -- -- -- -- -- -- -- --  -- -- -- -- -- -- -- --
00F0:                             1E F0 FF FF 7F 6F 70           .....op
0100: 1D 15 80 23 1D 16 80 23  20 00 21 00              ...#...# .!.    
```

## Opcodes

```
  0: 0x00F9 [0x1E] EventEntity looks at LocalPlayer and starts talking
  1: 0x00FE [0x6F] WAIT_FRAME_DELAY: Yield until WaitTime reaches zero
  2: 0x00FF [0x70] WAIT_ENTITY_RENDER_FLAG: Wait while EventEntity->Render.Flags3 bit 2 is set (cancel turn if not)
  3: 0x0100 [0x1D] PRINT_EVENT_MESSAGE(message_id=3519*)
    → "gO!\u0007DeFeAt\u0001\u001AaS mAnY\u0001\u001AeNeMiEs As\u0001\u001AyOu CaN\u0001\u001AfOR winDUrsT\u0001\u001AaNd rEtUrN tO\u0001\u001AyOuR hOmEtOwN\u0001\u001AiN tRiUmPh!\u007F1\u0000\u0007"
  4: 0x0103 [0x23] WAIT_FOR_DIALOG_INTERACTION
  5: 0x0104 [0x1D] PRINT_EVENT_MESSAGE(message_id=3520*)
    → "...?\u0001\u001AWhAt?\u0007a WrIt\u0001\u001AoF sUmMoNs\u0001\u001AiS a\u0001\u001AmArChInG oRdEr\u0001\u001AtO wAr,\u0001\u001AiS iT\u0001\u001AnOt?\u007F1\u0000\u0007"
  6: 0x0107 [0x23] WAIT_FOR_DIALOG_INTERACTION
  7: 0x0108 [0x20] SET_CLI_EVENT_UC_FLAG: Unlock player control
  8: 0x010A [0x21] END_EVENT
  9: 0x010B [0x00] END_REQSTACK()
```
