# Event 171

## Metadata

| Field           | Value    |
|-----------------|----------|
| Event Index     | 20/33    |
| Offset          | 0x011F   |
| Data Size       | 19 bytes |
| Calculated Size | 19 bytes |
| Instructions    | 10       |

```
      00 01 02 03 04 05 06 07  08 09 0A 0B 0C 0D 0E 0F
      -- -- -- -- -- -- -- --  -- -- -- -- -- -- -- --
0110:                                               1E                 .
0120: F0 FF FF 7F 6F 70 1D 19  80 23 1D 1A 80 23 20 00  ....op...#...# .
0130: 21 00                                             !.              
```

## Opcodes

```
  0: 0x011F [0x1E] EventEntity looks at LocalPlayer and starts talking
  1: 0x0124 [0x6F] WAIT_FRAME_DELAY: Yield until WaitTime reaches zero
  2: 0x0125 [0x70] WAIT_ENTITY_RENDER_FLAG: Wait while EventEntity->Render.Flags3 bit 2 is set (cancel turn if not)
  3: 0x0126 [0x1D] PRINT_EVENT_MESSAGE(message_id=3540*)
    → "tHe\u0001\u001AeMeRgEnCy BaN\u0001\u001AhAs bEeN\u0001\u001AlIfTeD!\u0001\u001AYoU cAn\u0001\u001ANoW rEcEiVe\u0001\u001AmIsSiOnS aGaIn!\u007F1\u0000\u0007"
  4: 0x0129 [0x23] WAIT_FOR_DIALOG_INTERACTION
  5: 0x012A [0x1D] PRINT_EVENT_MESSAGE(message_id=3541*)
    → "BuT a\u0001\u001ACrItIcAlLy ImPoRtAnT\u0001\u001AtHInG hAs\u0001\u001ABeeN sToLen!\u0001\u001AtHaT\u0001\u001AdEcLaRaTiOn hAs\u0001\u001ANoT cHaNgEd!\u007F1\u0000\u0007"
  6: 0x012D [0x23] WAIT_FOR_DIALOG_INTERACTION
  7: 0x012E [0x20] SET_CLI_EVENT_UC_FLAG: Unlock player control
  8: 0x0130 [0x21] END_EVENT
  9: 0x0131 [0x00] END_REQSTACK()
```
