# Event 465

## Metadata

| Field           | Value    |
|-----------------|----------|
| Event Index     | 25/33    |
| Offset          | 0x017E   |
| Data Size       | 19 bytes |
| Calculated Size | 19 bytes |
| Instructions    | 10       |

```
      00 01 02 03 04 05 06 07  08 09 0A 0B 0C 0D 0E 0F
      -- -- -- -- -- -- -- --  -- -- -- -- -- -- -- --
0170:                                            1E F0                ..
0180: FF FF 7F 6F 70 1D 23 80  23 1D 24 80 23 20 00 21  ...op.#.#.$.# .!
0190: 00                                                .               
```

## Opcodes

```
  0: 0x017E [0x1E] EventEntity looks at LocalPlayer and starts talking
  1: 0x0183 [0x6F] WAIT_FRAME_DELAY: Yield until WaitTime reaches zero
  2: 0x0184 [0x70] WAIT_ENTITY_RENDER_FLAG: Wait while EventEntity->Render.Flags3 bit 2 is set (cancel turn if not)
  3: 0x0185 [0x1D] PRINT_EVENT_MESSAGE(message_id=12316*)
    → "To\u0001\u001AcoMMiT a\u0001\u001AcRiMe mEAnS\u0001\u001AtO Do\u0001\u001AsoMEthInG tHAt\u0001\u001AyOU mUsTn't\u0001\u001ADo.\u007F1\u0000\u0007"
  4: 0x0188 [0x23] WAIT_FOR_DIALOG_INTERACTION
  5: 0x0189 [0x1D] PRINT_EVENT_MESSAGE(message_id=12317*)
    → "WHy\u0001\u001AwOuLd yOu\u0001\u001ADo soMEthInG\u0001\u001AtHAt yOu\u0001\u001AkNOw yOu\u0001\u001AmUsTn't Do? ThAT\u0001\u001AiS soMEthInG\u0001\u001AthAT NiNe\u0001\u001AdoESn't uNdeRStaNd.\u007F1\u0000\u0007"
  6: 0x018C [0x23] WAIT_FOR_DIALOG_INTERACTION
  7: 0x018D [0x20] SET_CLI_EVENT_UC_FLAG: Unlock player control
  8: 0x018F [0x21] END_EVENT
  9: 0x0190 [0x00] END_REQSTACK()
```
