# Event 475

## Metadata

| Field           | Value    |
|-----------------|----------|
| Event Index     | 27/33    |
| Offset          | 0x01A4   |
| Data Size       | 19 bytes |
| Calculated Size | 19 bytes |
| Instructions    | 10       |

```
      00 01 02 03 04 05 06 07  08 09 0A 0B 0C 0D 0E 0F
      -- -- -- -- -- -- -- --  -- -- -- -- -- -- -- --
01A0:             1E F0 FF FF  7F 6F 70 1D 27 80 23 1D      .....op.'.#.
01B0: 28 80 23 20 00 21 00                              (.# .!.         
```

## Opcodes

```
  0: 0x01A4 [0x1E] EventEntity looks at LocalPlayer and starts talking
  1: 0x01A9 [0x6F] WAIT_FRAME_DELAY: Yield until WaitTime reaches zero
  2: 0x01AA [0x70] WAIT_ENTITY_RENDER_FLAG: Wait while EventEntity->Render.Flags3 bit 2 is set (cancel turn if not)
  3: 0x01AB [0x1D] PRINT_EVENT_MESSAGE(message_id=12339*)
    → "WhAT\u0001\u001AiS tHIs\u0001\u001ATaLK AbOUt a\u0001\u001AMitHRaN viLLaGe\u0001\u001AtO tHE\u0001\u001AsOUth?\u007F1\u0000\u0007"
  4: 0x01AE [0x23] WAIT_FOR_DIALOG_INTERACTION
  5: 0x01AF [0x1D] PRINT_EVENT_MESSAGE(message_id=12340*)
    → "NiNe\u0001\u001AhAS nO\u0001\u001AMeMo-RY oF\u0001\u001AsTUdy-InG aBoUT\u0001\u001AaNy sUCh\u0001\u001AviLLaGe.\u007F1\u0000\u0007"
  6: 0x01B2 [0x23] WAIT_FOR_DIALOG_INTERACTION
  7: 0x01B3 [0x20] SET_CLI_EVENT_UC_FLAG: Unlock player control
  8: 0x01B5 [0x21] END_EVENT
  9: 0x01B6 [0x00] END_REQSTACK()
```
