# Event 480

## Metadata

| Field           | Value    |
|-----------------|----------|
| Event Index     | 28/33    |
| Offset          | 0x01B7   |
| Data Size       | 19 bytes |
| Calculated Size | 19 bytes |
| Instructions    | 10       |

```
      00 01 02 03 04 05 06 07  08 09 0A 0B 0C 0D 0E 0F
      -- -- -- -- -- -- -- --  -- -- -- -- -- -- -- --
01B0:                      1E  F0 FF FF 7F 6F 70 1D 29         .....op.)
01C0: 80 23 1D 2A 80 23 20 00  21 00                    .#.*.# .!.      
```

## Opcodes

```
  0: 0x01B7 [0x1E] EventEntity looks at LocalPlayer and starts talking
  1: 0x01BC [0x6F] WAIT_FRAME_DELAY: Yield until WaitTime reaches zero
  2: 0x01BD [0x70] WAIT_ENTITY_RENDER_FLAG: Wait while EventEntity->Render.Flags3 bit 2 is set (cancel turn if not)
  3: 0x01BE [0x1D] PRINT_EVENT_MESSAGE(message_id=12351*)
    → "NiNe\u0001\u001AwoNdERs wHy\u0001\u001AProFeSSor KoRu-MoRu\u0001\u001AiS LiVinG\u0001\u001AiN WinDUrSt\u0001\u001AWaLLs?\u007F1\u0000\u0007"
  4: 0x01C1 [0x23] WAIT_FOR_DIALOG_INTERACTION
  5: 0x01C2 [0x1D] PRINT_EVENT_MESSAGE(message_id=12352*)
    → "ProFeSSor\u0001\u001AKoRu-MoRu iS\u0001\u001AtHe PriNCiPaL\u0001\u001AoF tHe\u0001\u001AAuRaSTeRy.\u0007DoESn't\u0001\u001AhE nEEd\u0001\u001AtO Be\u0001\u001AtHErE?\u007F1\u0000\u0007"
  6: 0x01C5 [0x23] WAIT_FOR_DIALOG_INTERACTION
  7: 0x01C6 [0x20] SET_CLI_EVENT_UC_FLAG: Unlock player control
  8: 0x01C8 [0x21] END_EVENT
  9: 0x01C9 [0x00] END_REQSTACK()
```
