# Event 489

## Metadata

| Field           | Value    |
|-----------------|----------|
| Event Index     | 23/33    |
| Offset          | 0x0158   |
| Data Size       | 19 bytes |
| Calculated Size | 19 bytes |
| Instructions    | 10       |

```
      00 01 02 03 04 05 06 07  08 09 0A 0B 0C 0D 0E 0F
      -- -- -- -- -- -- -- --  -- -- -- -- -- -- -- --
0150:                          1E F0 FF FF 7F 6F 70 1D          .....op.
0160: 1F 80 23 1D 20 80 23 20  00 21 00                 ..#. .# .!.     
```

## Opcodes

```
  0: 0x0158 [0x1E] EventEntity looks at LocalPlayer and starts talking
  1: 0x015D [0x6F] WAIT_FRAME_DELAY: Yield until WaitTime reaches zero
  2: 0x015E [0x70] WAIT_ENTITY_RENDER_FLAG: Wait while EventEntity->Render.Flags3 bit 2 is set (cancel turn if not)
  3: 0x015F [0x1D] PRINT_EVENT_MESSAGE(message_id=12265*)
    → "As\u0001\u001AuSuAL, wE\u0001\u001AcARdiANs aRe\u0001\u001AnOT aLLow-Ed\u0001\u001ATo LeAVe\u0001\u001AtOWn.\u007F1\u0000\u0007"
  4: 0x0162 [0x23] WAIT_FOR_DIALOG_INTERACTION
  5: 0x0163 [0x1D] PRINT_EVENT_MESSAGE(message_id=12266*)
    → "NiNe\u0001\u001AREaLLy wAnTS\u0001\u001AtO gET\u0001\u001AoUt AnD\u0001\u001AsEE tHe\u0001\u001ABiG wIdE\u0001\u001AwOrLd.\u007F1\u0000\u0007"
  6: 0x0166 [0x23] WAIT_FOR_DIALOG_INTERACTION
  7: 0x0167 [0x20] SET_CLI_EVENT_UC_FLAG: Unlock player control
  8: 0x0169 [0x21] END_EVENT
  9: 0x016A [0x00] END_REQSTACK()
```
