# Event 561

## Metadata

| Field           | Value    |
|-----------------|----------|
| Event Index     | 32/33    |
| Offset          | 0x0203   |
| Data Size       | 19 bytes |
| Calculated Size | 19 bytes |
| Instructions    | 10       |

```
      00 01 02 03 04 05 06 07  08 09 0A 0B 0C 0D 0E 0F
      -- -- -- -- -- -- -- --  -- -- -- -- -- -- -- --
0200:          1E F0 FF FF 7F  6F 70 1D 31 80 23 1D 32     .....op.1.#.2
0210: 80 23 20 00 21 00                                 .# .!.          
```

## Opcodes

```
  0: 0x0203 [0x1E] EventEntity looks at LocalPlayer and starts talking
  1: 0x0208 [0x6F] WAIT_FRAME_DELAY: Yield until WaitTime reaches zero
  2: 0x0209 [0x70] WAIT_ENTITY_RENDER_FLAG: Wait while EventEntity->Render.Flags3 bit 2 is set (cancel turn if not)
  3: 0x020A [0x1D] PRINT_EVENT_MESSAGE(message_id=12625*)
    → "ThE RoGUe\u0001\u001AcARdiAnS hAVe\u0001\u001Ade-SCeNdeD iNTo\u0001\u001AtHe cENtraL tOWeR\u0001\u001AoF tHe\u0001\u001AHoRuToTo RuiNs.\u007F1\u0000\u0007"
  4: 0x020D [0x23] WAIT_FOR_DIALOG_INTERACTION
  5: 0x020E [0x1D] PRINT_EVENT_MESSAGE(message_id=12626*)
    → "NiNe\u0001\u001AaLSo HEaRd\u0001\u001AtHAt tHe kiNg\u0001\u001AoF tHe\u0001\u001AcARdiAnS hAs\u0001\u001AmADe aN\u0001\u001AaP-PeaRanCe. WhAt\u0001\u001AcoULd aLL\u0001\u001AoF tHIs\u0001\u001AmEaN?\u007F1\u0000\u0007"
  6: 0x0211 [0x23] WAIT_FOR_DIALOG_INTERACTION
  7: 0x0212 [0x20] SET_CLI_EVENT_UC_FLAG: Unlock player control
  8: 0x0214 [0x21] END_EVENT
  9: 0x0215 [0x00] END_REQSTACK()
```
