# Event 568

## Metadata

| Field           | Value    |
|-----------------|----------|
| Event Index     | 33/33    |
| Offset          | 0x0216   |
| Data Size       | 19 bytes |
| Calculated Size | 19 bytes |
| Instructions    | 10       |

```
      00 01 02 03 04 05 06 07  08 09 0A 0B 0C 0D 0E 0F
      -- -- -- -- -- -- -- --  -- -- -- -- -- -- -- --
0210:                   1E F0  FF FF 7F 6F 70 1D 33 80        .....op.3.
0220: 23 1D 34 80 23 20 00 21  00                       #.4.# .!.       
```

## Opcodes

```
  0: 0x0216 [0x1E] EventEntity looks at LocalPlayer and starts talking
  1: 0x021B [0x6F] WAIT_FRAME_DELAY: Yield until WaitTime reaches zero
  2: 0x021C [0x70] WAIT_ENTITY_RENDER_FLAG: Wait while EventEntity->Render.Flags3 bit 2 is set (cancel turn if not)
  3: 0x021D [0x1D] PRINT_EVENT_MESSAGE(message_id=12635*)
    → "TheRe\u0001\u001AaRe StiLL sO\u0001\u001AmAnY RoGUe\u0001\u001AcARdiAnS LeFt.\u0001\u001ANiNe THiNks\u0001\u001AtHEy hAVe\u0001\u001AyeT tO FiNd\u0001\u001AtHe aNSweR\u0001\u001AtHEy aRe\u0001\u001ALoOkiNg fOr.\u007F1\u0000\u0007"
  4: 0x0220 [0x23] WAIT_FOR_DIALOG_INTERACTION
  5: 0x0221 [0x1D] PRINT_EVENT_MESSAGE(message_id=12636*)
    → "MoTheR\u0001\u001AApUrUrU toLd NiNe\u0001\u001AtHAt thEy aRe\u0001\u001ASeaRChiNg foR\u0001\u001AtHeiR tRuE\u0001\u001AseLvEs.\u007F1\u0000\u0007"
  6: 0x0224 [0x23] WAIT_FOR_DIALOG_INTERACTION
  7: 0x0225 [0x20] SET_CLI_EVENT_UC_FLAG: Unlock player control
  8: 0x0227 [0x21] END_EVENT
  9: 0x0228 [0x00] END_REQSTACK()
```
