# Event 101

## Metadata

| Field           | Value    |
|-----------------|----------|
| Event Index     | 8/21     |
| Offset          | 0x00D0   |
| Data Size       | 55 bytes |
| Calculated Size | 55 bytes |
| Instructions    | 11       |

```
      00 01 02 03 04 05 06 07  08 09 0A 0B 0C 0D 0E 0F
      -- -- -- -- -- -- -- --  -- -- -- -- -- -- -- --
00D0: 20 01 42 43 00 43 01 45  00 80 F0 FF FF 7F F0 FF   .BC.C.E........
00E0: FF 7F 66 64 6F 31 01 80  1C 02 80 29 01 8C C3 04  ..fdo1.....)....
00F0: 01 02 45 00 80 F0 FF FF  7F F0 FF FF 7F 66 64 69  ..E..........fdi
0100: 31 01 80 20 00 21 00                              1.. .!.         
```

## Opcodes

```
  0: 0x00D0 [0x20] SET_CLI_EVENT_UC_FLAG: Lock player control
  1: 0x00D2 [0x42] SET_CLI_EVENT_CANCEL_DATA()
  2: 0x00D3 [0x43] SEND_EVENT_UPDATE: Send pending tag to server (packet 0x005B)
  3: 0x00D5 [0x43] SEND_EVENT_UPDATE: Check pending flag (skip if not pending)
  4: 0x00D7 [0x45] LOAD_SCHEDULED_TASK(work_offset1=200*, entity1=LocalPlayer, entity2=LocalPlayer, scheduler_id="fdo1", work_offset2=0*)
  5: 0x00E8 [0x1C] WAIT(60* ticks)
  6: 0x00EB [0x29] REQ_SET_WAIT(priority=0x01, entity_id=Weather (ID: 17089420/0x0104C38C), tag_num=0x02)
  7: 0x00F2 [0x45] LOAD_SCHEDULED_TASK(work_offset1=200*, entity1=LocalPlayer, entity2=LocalPlayer, scheduler_id="fdi1", work_offset2=0*)
  8: 0x0103 [0x20] SET_CLI_EVENT_UC_FLAG: Unlock player control
  9: 0x0105 [0x21] END_EVENT
 10: 0x0106 [0x00] END_REQSTACK()
```
