# Event 300

## Metadata

| Field           | Value    |
|-----------------|----------|
| Event Index     | 20/21    |
| Offset          | 0x0437   |
| Data Size       | 31 bytes |
| Calculated Size | 31 bytes |
| Instructions    | 10       |

```
      00 01 02 03 04 05 06 07  08 09 0A 0B 0C 0D 0E 0F
      -- -- -- -- -- -- -- --  -- -- -- -- -- -- -- --
0430:                      20  01 24 1C 80 0B 80 01 80          .$......
0440: 25 02 00 10 01 80 00 52  04 42 03 01 10 0B 80 01  %......R.B......
0450: 52 04 20 00 21 00                                 R. .!.          
```

## Opcodes

```
  0: 0x0437 [0x20] SET_CLI_EVENT_UC_FLAG: Lock player control
  1: 0x0439 [0x24] CREATE_DIALOG(message_id=7442*, default_option=1*, option_flags=0*)
    → "Open the door?\u0007\u000BYes.\u0007No.\u007F1\u0000\u0007"
  2: 0x0440 [0x25] WAIT_DIALOG_SELECT()
  3: 0x0441 [0x02] IF !(Work_Zone[0] == 0*) GOTO 0x0452
  4: 0x0449 [0x42] SET_CLI_EVENT_CANCEL_DATA()
  5: 0x044A [0x03] Work_Zone[1] = 1*
  6: 0x044F [0x01] GOTO 0x0452

SUBROUTINE_0452:
  7: 0x0452 [0x20] SET_CLI_EVENT_UC_FLAG: Unlock player control
  8: 0x0454 [0x21] END_EVENT
  9: 0x0455 [0x00] END_REQSTACK()
```
