# 17122127 - Romualdo

## Common Data

| Field            | Value                       |
|------------------|-----------------------------|
| Zone             | Batallia Downs [S] (ID: 84) |
| Block Size       | 164 bytes                   |
| Total Events     | 8                           |
| References Count | 9                           |

## List of Events

| Event ID                 | Entrypoint   |   Size |   Instructions |
|--------------------------|--------------|--------|----------------|
| [65535](#event-65535)    | 0x0000       |      1 |              1 |
| [65535.1](#event-655351) | 0x0001       |     16 |              3 |
| [10](#event-10)          | 0x0011       |      1 |              1 |
| [102](#event-102)        | 0x0012       |     14 |              6 |
| [109](#event-109)        | 0x0020       |      1 |              1 |
| [110](#event-110)        | 0x0021       |     14 |              6 |
| [111](#event-111)        | 0x002F       |      1 |              1 |
| [112](#event-112)        | 0x0030       |     29 |              7 |

## DAT References (imed_data)

|   Index | Hex Value   |   Dec Value |
|---------|-------------|-------------|
|       0 | 0xD420      |       54304 |
|       1 | 0x226FF     |      141055 |
|       2 | 0xFFFFC9F4  |  4294953460 |
|       3 | 0x07EF      |        2031 |
|       4 | 0x001E      |          30 |
|       5 | 0x1E65      |        7781 |
|       6 | 0x1E64      |        7780 |
|       7 | 0x0009      |           9 |
|       8 | 0x1E6F      |        7791 |

## String References

- **7780**: What could my father have been trying to tell me...?
- **7781**: Cannon loaded and ready to fire!
- **7791**: Now that I've heard his message, I can focus on my duty and make my father proud.

## Events

### Event 65535

#### Metadata

| Field        | Value   |
|--------------|---------|
| Entrypoint   | 0x0000  |
| Data Size    | 1 bytes |
| Instructions | 1       |

```
      00 01 02 03 04 05 06 07  08 09 0A 0B 0C 0D 0E 0F
      -- -- -- -- -- -- -- --  -- -- -- -- -- -- -- --
0000: 00                                                .               
```

#### Opcodes

```
  0: 0x0000 [0x00] END_REQSTACK()
```

### Event 65535.1

#### Metadata

| Field        | Value    |
|--------------|----------|
| Entrypoint   | 0x0001   |
| Data Size    | 16 bytes |
| Instructions | 3        |

```
      00 01 02 03 04 05 06 07  08 09 0A 0B 0C 0D 0E 0F
      -- -- -- -- -- -- -- --  -- -- -- -- -- -- -- --
0000:    92 01 F8 FF FF 7F 37  00 80 01 80 02 80 03 80   ......7........
0010: 00                                                .               
```

#### Opcodes

```
  0: 0x0001 [0x92] EventEntity->Render.Flags3 ^= 0x01
  1: 0x0007 [0x37] UPDATE_EVENT_POSITION_AND_DIR: x=54.304*, z=141.055*, y=-13.836*, direction=178.5°*
  2: 0x0010 [0x00] END_REQSTACK()
```

### Event 10

#### Metadata

| Field        | Value   |
|--------------|---------|
| Entrypoint   | 0x0011  |
| Data Size    | 1 bytes |
| Instructions | 1       |

```
      00 01 02 03 04 05 06 07  08 09 0A 0B 0C 0D 0E 0F
      -- -- -- -- -- -- -- --  -- -- -- -- -- -- -- --
0010:    00                                              .              
```

#### Opcodes

```
  0: 0x0011 [0x00] END_REQSTACK()
```

### Event 102

#### Metadata

| Field        | Value    |
|--------------|----------|
| Entrypoint   | 0x0012   |
| Data Size    | 14 bytes |
| Instructions | 6        |

```
      00 01 02 03 04 05 06 07  08 09 0A 0B 0C 0D 0E 0F
      -- -- -- -- -- -- -- --  -- -- -- -- -- -- -- --
0010:       1E F0 FF FF 7F 1C  04 80 1D 05 80 23 21 00    ...........#!.
```

#### Opcodes

```
  0: 0x0012 [0x1E] EventEntity looks at LocalPlayer and starts talking
  1: 0x0017 [0x1C] WAIT(30* ticks)
  2: 0x001A [0x1D] PRINT_EVENT_MESSAGE(message_id=7781*)
    → "Cannon loaded and ready to fire!"
  3: 0x001D [0x23] WAIT_FOR_DIALOG_INTERACTION
  4: 0x001E [0x21] END_EVENT
  5: 0x001F [0x00] END_REQSTACK()
```

### Event 109

#### Metadata

| Field        | Value   |
|--------------|---------|
| Entrypoint   | 0x0020  |
| Data Size    | 1 bytes |
| Instructions | 1       |

```
      00 01 02 03 04 05 06 07  08 09 0A 0B 0C 0D 0E 0F
      -- -- -- -- -- -- -- --  -- -- -- -- -- -- -- --
0020: 00                                                .               
```

#### Opcodes

```
  0: 0x0020 [0x00] END_REQSTACK()
```

### Event 110

#### Metadata

| Field        | Value    |
|--------------|----------|
| Entrypoint   | 0x0021   |
| Data Size    | 14 bytes |
| Instructions | 6        |

```
      00 01 02 03 04 05 06 07  08 09 0A 0B 0C 0D 0E 0F
      -- -- -- -- -- -- -- --  -- -- -- -- -- -- -- --
0020:    1E F0 FF FF 7F 1C 04  80 1D 06 80 23 21 00      ...........#!. 
```

#### Opcodes

```
  0: 0x0021 [0x1E] EventEntity looks at LocalPlayer and starts talking
  1: 0x0026 [0x1C] WAIT(30* ticks)
  2: 0x0029 [0x1D] PRINT_EVENT_MESSAGE(message_id=7780*)
    → "What could my father have been trying to tell me...?"
  3: 0x002C [0x23] WAIT_FOR_DIALOG_INTERACTION
  4: 0x002D [0x21] END_EVENT
  5: 0x002E [0x00] END_REQSTACK()
```

### Event 111

#### Metadata

| Field        | Value   |
|--------------|---------|
| Entrypoint   | 0x002F  |
| Data Size    | 1 bytes |
| Instructions | 1       |

```
      00 01 02 03 04 05 06 07  08 09 0A 0B 0C 0D 0E 0F
      -- -- -- -- -- -- -- --  -- -- -- -- -- -- -- --
0020:                                               00                 .
```

#### Opcodes

```
  0: 0x002F [0x00] END_REQSTACK()
```

### Event 112

#### Metadata

| Field        | Value    |
|--------------|----------|
| Entrypoint   | 0x0030   |
| Data Size    | 29 bytes |
| Instructions | 7        |

```
      00 01 02 03 04 05 06 07  08 09 0A 0B 0C 0D 0E 0F
      -- -- -- -- -- -- -- --  -- -- -- -- -- -- -- --
0030: 1E F0 FF FF 7F 1C 04 80  66 07 80 F8 FF FF 7F F8  ........f.......
0040: FF FF 7F 74 6C 6B 30 1D  08 80 23 21 00           ...tlk0...#!.   
```

#### Opcodes

```
  0: 0x0030 [0x1E] EventEntity looks at LocalPlayer and starts talking
  1: 0x0035 [0x1C] WAIT(30* ticks)
  2: 0x0038 [0x66] LOAD_EXT_SCHEDULER_MAIN: Load scheduler "tlk0" with entities [EventEntity, EventEntity], work=9*
  3: 0x0047 [0x1D] PRINT_EVENT_MESSAGE(message_id=7791*)
    → "Now that I've heard his message, I can focus on my duty and make my father proud."
  4: 0x004A [0x23] WAIT_FOR_DIALOG_INTERACTION
  5: 0x004B [0x21] END_EVENT
  6: 0x004C [0x00] END_REQSTACK()
```
