# 17122141

## Common Data

| Field            | Value                       |
|------------------|-----------------------------|
| Zone             | Batallia Downs [S] (ID: 84) |
| Block Size       | 252 bytes                   |
| Total Events     | 15                          |
| References Count | 3                           |

## List of Events

| Event ID                 | Entrypoint   |   Size |   Instructions |
|--------------------------|--------------|--------|----------------|
| [65535](#event-65535)    | 0x0000       |      1 |              1 |
| [65535.1](#event-655351) | 0x0001       |      4 |              2 |
| [700](#event-700)        | 0x0005       |      1 |              1 |
| [701](#event-701)        | 0x0006       |      1 |              1 |
| [3](#event-3)            | 0x0007       |      1 |              1 |
| [65535.2](#event-655352) | 0x0008       |     10 |              2 |
| [65535.3](#event-655353) | 0x0012       |     10 |              2 |
| [65535.4](#event-655354) | 0x001C       |     19 |              3 |
| [65535.5](#event-655355) | 0x002F       |     19 |              3 |
| [65535.6](#event-655356) | 0x0042       |     37 |              5 |
| [65535.7](#event-655357) | 0x0067       |     37 |              5 |
| [65535.8](#event-655358) | 0x008C       |     10 |              2 |
| [65535.9](#event-655359) | 0x0096       |     10 |              2 |
| [38](#event-38)          | 0x00A0       |      1 |              1 |
| [39](#event-39)          | 0x00A1       |      1 |              1 |

## DAT References (imed_data)

|   Index | Hex Value   |   Dec Value |
|---------|-------------|-------------|
|       0 | 0x0000      |           0 |
|       1 | 0x0001      |           1 |
|       2 | 0x0080      |         128 |

## Events

### Event 65535

#### Metadata

| Field        | Value   |
|--------------|---------|
| Entrypoint   | 0x0000  |
| Data Size    | 1 bytes |
| Instructions | 1       |

```
      00 01 02 03 04 05 06 07  08 09 0A 0B 0C 0D 0E 0F
      -- -- -- -- -- -- -- --  -- -- -- -- -- -- -- --
0000: 00                                                .               
```

#### Opcodes

```
  0: 0x0000 [0x00] END_REQSTACK()
```

### Event 65535.1

#### Metadata

| Field        | Value   |
|--------------|---------|
| Entrypoint   | 0x0001  |
| Data Size    | 4 bytes |
| Instructions | 2       |

```
      00 01 02 03 04 05 06 07  08 09 0A 0B 0C 0D 0E 0F
      -- -- -- -- -- -- -- --  -- -- -- -- -- -- -- --
0000:    1C 02 10 00                                     ....           
```

#### Opcodes

```
  0: 0x0001 [0x1C] WAIT(Work_Zone[2] ticks)
  1: 0x0004 [0x00] END_REQSTACK()
```

### Event 700

#### Metadata

| Field        | Value   |
|--------------|---------|
| Entrypoint   | 0x0005  |
| Data Size    | 1 bytes |
| Instructions | 1       |

```
      00 01 02 03 04 05 06 07  08 09 0A 0B 0C 0D 0E 0F
      -- -- -- -- -- -- -- --  -- -- -- -- -- -- -- --
0000:                00                                      .          
```

#### Opcodes

```
  0: 0x0005 [0x00] END_REQSTACK()
```

### Event 701

#### Metadata

| Field        | Value   |
|--------------|---------|
| Entrypoint   | 0x0006  |
| Data Size    | 1 bytes |
| Instructions | 1       |

```
      00 01 02 03 04 05 06 07  08 09 0A 0B 0C 0D 0E 0F
      -- -- -- -- -- -- -- --  -- -- -- -- -- -- -- --
0000:                   00                                    .         
```

#### Opcodes

```
  0: 0x0006 [0x00] END_REQSTACK()
```

### Event 3

#### Metadata

| Field        | Value   |
|--------------|---------|
| Entrypoint   | 0x0007  |
| Data Size    | 1 bytes |
| Instructions | 1       |

```
      00 01 02 03 04 05 06 07  08 09 0A 0B 0C 0D 0E 0F
      -- -- -- -- -- -- -- --  -- -- -- -- -- -- -- --
0000:                      00                                  .        
```

#### Opcodes

```
  0: 0x0007 [0x00] END_REQSTACK()
```

### Event 65535.2

#### Metadata

| Field        | Value    |
|--------------|----------|
| Entrypoint   | 0x0008   |
| Data Size    | 10 bytes |
| Instructions | 2        |

```
      00 01 02 03 04 05 06 07  08 09 0A 0B 0C 0D 0E 0F
      -- -- -- -- -- -- -- --  -- -- -- -- -- -- -- --
0000:                          6C 97 43 05 01 00 80 01          l.C.....
0010: 80 00                                             ..              
```

#### Opcodes

```
  0: 0x0008 [0x6C] FADE_ENTITY_COLOR(entity_id=Lilisette (ID: 17122199/0x01054397), end_alpha=0*, fade_time=1*)
  1: 0x0011 [0x00] END_REQSTACK()
```

### Event 65535.3

#### Metadata

| Field        | Value    |
|--------------|----------|
| Entrypoint   | 0x0012   |
| Data Size    | 10 bytes |
| Instructions | 2        |

```
      00 01 02 03 04 05 06 07  08 09 0A 0B 0C 0D 0E 0F
      -- -- -- -- -- -- -- --  -- -- -- -- -- -- -- --
0010:       6C 97 43 05 01 02  80 01 80 00                l.C.......    
```

#### Opcodes

```
  0: 0x0012 [0x6C] FADE_ENTITY_COLOR(entity_id=Lilisette (ID: 17122199/0x01054397), end_alpha=128*, fade_time=1*)
  1: 0x001B [0x00] END_REQSTACK()
```

### Event 65535.4

#### Metadata

| Field        | Value    |
|--------------|----------|
| Entrypoint   | 0x001C   |
| Data Size    | 19 bytes |
| Instructions | 3        |

```
      00 01 02 03 04 05 06 07  08 09 0A 0B 0C 0D 0E 0F
      -- -- -- -- -- -- -- --  -- -- -- -- -- -- -- --
0010:                                      6C C7 43 05              l.C.
0020: 01 00 80 01 80 6C C8 43  05 01 00 80 01 80 00     .....l.C....... 
```

#### Opcodes

```
  0: 0x001C [0x6C] FADE_ENTITY_COLOR(entity_id=Nanto1 (ID: 17122247/0x010543C7), end_alpha=0*, fade_time=1*)
  1: 0x0025 [0x6C] FADE_ENTITY_COLOR(entity_id=Nanto2 (ID: 17122248/0x010543C8), end_alpha=0*, fade_time=1*)
  2: 0x002E [0x00] END_REQSTACK()
```

### Event 65535.5

#### Metadata

| Field        | Value    |
|--------------|----------|
| Entrypoint   | 0x002F   |
| Data Size    | 19 bytes |
| Instructions | 3        |

```
      00 01 02 03 04 05 06 07  08 09 0A 0B 0C 0D 0E 0F
      -- -- -- -- -- -- -- --  -- -- -- -- -- -- -- --
0020:                                               6C                 l
0030: C7 43 05 01 02 80 01 80  6C C8 43 05 01 02 80 01  .C......l.C.....
0040: 80 00                                             ..              
```

#### Opcodes

```
  0: 0x002F [0x6C] FADE_ENTITY_COLOR(entity_id=Nanto1 (ID: 17122247/0x010543C7), end_alpha=128*, fade_time=1*)
  1: 0x0038 [0x6C] FADE_ENTITY_COLOR(entity_id=Nanto2 (ID: 17122248/0x010543C8), end_alpha=128*, fade_time=1*)
  2: 0x0041 [0x00] END_REQSTACK()
```

### Event 65535.6

#### Metadata

| Field        | Value    |
|--------------|----------|
| Entrypoint   | 0x0042   |
| Data Size    | 37 bytes |
| Instructions | 5        |

```
      00 01 02 03 04 05 06 07  08 09 0A 0B 0C 0D 0E 0F
      -- -- -- -- -- -- -- --  -- -- -- -- -- -- -- --
0040:       6C BD 43 05 01 00  80 01 80 6C BE 43 05 01    l.C......l.C..
0050: 00 80 01 80 6C BF 43 05  01 00 80 01 80 6C C0 43  ....l.C......l.C
0060: 05 01 00 80 01 80 00                              .......         
```

#### Opcodes

```
  0: 0x0042 [0x6C] FADE_ENTITY_COLOR(entity_id=One-eyed Gwajboj (ID: 17122237/0x010543BD), end_alpha=0*, fade_time=1*)
  1: 0x004B [0x6C] FADE_ENTITY_COLOR(entity_id=Unnamed NPC (ID: 17122238/0x010543BE), end_alpha=0*, fade_time=1*)
  2: 0x0054 [0x6C] FADE_ENTITY_COLOR(entity_id=Unnamed NPC (ID: 17122239/0x010543BF), end_alpha=0*, fade_time=1*)
  3: 0x005D [0x6C] FADE_ENTITY_COLOR(entity_id=Unnamed NPC (ID: 17122240/0x010543C0), end_alpha=0*, fade_time=1*)
  4: 0x0066 [0x00] END_REQSTACK()
```

### Event 65535.7

#### Metadata

| Field        | Value    |
|--------------|----------|
| Entrypoint   | 0x0067   |
| Data Size    | 37 bytes |
| Instructions | 5        |

```
      00 01 02 03 04 05 06 07  08 09 0A 0B 0C 0D 0E 0F
      -- -- -- -- -- -- -- --  -- -- -- -- -- -- -- --
0060:                      6C  BD 43 05 01 02 80 01 80         l.C......
0070: 6C BE 43 05 01 02 80 01  80 6C BF 43 05 01 02 80  l.C......l.C....
0080: 01 80 6C C0 43 05 01 02  80 01 80 00              ..l.C.......    
```

#### Opcodes

```
  0: 0x0067 [0x6C] FADE_ENTITY_COLOR(entity_id=One-eyed Gwajboj (ID: 17122237/0x010543BD), end_alpha=128*, fade_time=1*)
  1: 0x0070 [0x6C] FADE_ENTITY_COLOR(entity_id=Unnamed NPC (ID: 17122238/0x010543BE), end_alpha=128*, fade_time=1*)
  2: 0x0079 [0x6C] FADE_ENTITY_COLOR(entity_id=Unnamed NPC (ID: 17122239/0x010543BF), end_alpha=128*, fade_time=1*)
  3: 0x0082 [0x6C] FADE_ENTITY_COLOR(entity_id=Unnamed NPC (ID: 17122240/0x010543C0), end_alpha=128*, fade_time=1*)
  4: 0x008B [0x00] END_REQSTACK()
```

### Event 65535.8

#### Metadata

| Field        | Value    |
|--------------|----------|
| Entrypoint   | 0x008C   |
| Data Size    | 10 bytes |
| Instructions | 2        |

```
      00 01 02 03 04 05 06 07  08 09 0A 0B 0C 0D 0E 0F
      -- -- -- -- -- -- -- --  -- -- -- -- -- -- -- --
0080:                                      6C 9C 43 05              l.C.
0090: 01 00 80 01 80 00                                 ......          
```

#### Opcodes

```
  0: 0x008C [0x6C] FADE_ENTITY_COLOR(entity_id=Nag'molada (ID: 17122204/0x0105439C), end_alpha=0*, fade_time=1*)
  1: 0x0095 [0x00] END_REQSTACK()
```

### Event 65535.9

#### Metadata

| Field        | Value    |
|--------------|----------|
| Entrypoint   | 0x0096   |
| Data Size    | 10 bytes |
| Instructions | 2        |

```
      00 01 02 03 04 05 06 07  08 09 0A 0B 0C 0D 0E 0F
      -- -- -- -- -- -- -- --  -- -- -- -- -- -- -- --
0090:                   6C 9C  43 05 01 02 80 01 80 00        l.C.......
```

#### Opcodes

```
  0: 0x0096 [0x6C] FADE_ENTITY_COLOR(entity_id=Nag'molada (ID: 17122204/0x0105439C), end_alpha=128*, fade_time=1*)
  1: 0x009F [0x00] END_REQSTACK()
```

### Event 38

#### Metadata

| Field        | Value   |
|--------------|---------|
| Entrypoint   | 0x00A0  |
| Data Size    | 1 bytes |
| Instructions | 1       |

```
      00 01 02 03 04 05 06 07  08 09 0A 0B 0C 0D 0E 0F
      -- -- -- -- -- -- -- --  -- -- -- -- -- -- -- --
00A0: 00                                                .               
```

#### Opcodes

```
  0: 0x00A0 [0x00] END_REQSTACK()
```

### Event 39

#### Metadata

| Field        | Value   |
|--------------|---------|
| Entrypoint   | 0x00A1  |
| Data Size    | 1 bytes |
| Instructions | 1       |

```
      00 01 02 03 04 05 06 07  08 09 0A 0B 0C 0D 0E 0F
      -- -- -- -- -- -- -- --  -- -- -- -- -- -- -- --
00A0:    00                                              .              
```

#### Opcodes

```
  0: 0x00A1 [0x00] END_REQSTACK()
```
