# 17122137 - Thorben

## Common Data

| Field            | Value                       |
|------------------|-----------------------------|
| Zone             | Batallia Downs [S] (ID: 84) |
| Block Size       | 192 bytes                   |
| Total Events     | 7                           |
| References Count | 7                           |

## List of Events

| Event ID              | Entrypoint   |   Size |   Instructions |
|-----------------------|--------------|--------|----------------|
| [65535](#event-65535) | 0x0000       |      1 |              1 |
| [103](#event-103)     | 0x0001       |      1 |              1 |
| [104](#event-104)     | 0x0002       |     34 |              8 |
| [105](#event-105)     | 0x0024       |     38 |             10 |
| [106](#event-106)     | 0x004A       |     29 |              7 |
| [107](#event-107)     | 0x0067       |      1 |              1 |
| [108](#event-108)     | 0x0068       |     14 |              6 |

## DAT References (imed_data)

|   Index | Hex Value   |   Dec Value |
|---------|-------------|-------------|
|       0 | 0x001E      |          30 |
|       1 | 0x0009      |           9 |
|       2 | 0x0759      |        1881 |
|       3 | 0x1E4F      |        7759 |
|       4 | 0x1E50      |        7760 |
|       5 | 0x1E51      |        7761 |
|       6 | 0x1E5E      |        7774 |

## String References

- **7759**: I know I dropped that $3 down in the necropolis somewhere...
- **7760**: You say you found a piece of the $3? Yeah, this looks like the one I had...or at least part of it.
- **7761**: How did it get all ripped up like that...? I hate to ask, but could you go back in and find the other pieces for me?
- **7774**: I guess I should be happy to have this old, tattered map back. No, really, I'm grateful...

## Events

### Event 65535

#### Metadata

| Field        | Value   |
|--------------|---------|
| Entrypoint   | 0x0000  |
| Data Size    | 1 bytes |
| Instructions | 1       |

```
      00 01 02 03 04 05 06 07  08 09 0A 0B 0C 0D 0E 0F
      -- -- -- -- -- -- -- --  -- -- -- -- -- -- -- --
0000: 00                                                .               
```

#### Opcodes

```
  0: 0x0000 [0x00] END_REQSTACK()
```

### Event 103

#### Metadata

| Field        | Value   |
|--------------|---------|
| Entrypoint   | 0x0001  |
| Data Size    | 1 bytes |
| Instructions | 1       |

```
      00 01 02 03 04 05 06 07  08 09 0A 0B 0C 0D 0E 0F
      -- -- -- -- -- -- -- --  -- -- -- -- -- -- -- --
0000:    00                                              .              
```

#### Opcodes

```
  0: 0x0001 [0x00] END_REQSTACK()
```

### Event 104

#### Metadata

| Field        | Value    |
|--------------|----------|
| Entrypoint   | 0x0002   |
| Data Size    | 34 bytes |
| Instructions | 8        |

```
      00 01 02 03 04 05 06 07  08 09 0A 0B 0C 0D 0E 0F
      -- -- -- -- -- -- -- --  -- -- -- -- -- -- -- --
0000:       1E F0 FF FF 7F 1C  00 80 66 01 80 F8 FF FF    ........f.....
0010: 7F F8 FF FF 7F 74 6C 6B  30 03 02 10 02 80 1D 03  .....tlk0.......
0020: 80 23 21 00                                       .#!.            
```

#### Opcodes

```
  0: 0x0002 [0x1E] EventEntity looks at LocalPlayer and starts talking
  1: 0x0007 [0x1C] WAIT(30* ticks)
  2: 0x000A [0x66] LOAD_EXT_SCHEDULER_MAIN: Load scheduler "tlk0" with entities [EventEntity, EventEntity], work=9*
  3: 0x0019 [0x03] Work_Zone[2] = 1881*
  4: 0x001E [0x1D] PRINT_EVENT_MESSAGE(message_id=7759*)
    → "I know I dropped that $3 down in the necropolis somewhere..."
  5: 0x0021 [0x23] WAIT_FOR_DIALOG_INTERACTION
  6: 0x0022 [0x21] END_EVENT
  7: 0x0023 [0x00] END_REQSTACK()
```

### Event 105

#### Metadata

| Field        | Value    |
|--------------|----------|
| Entrypoint   | 0x0024   |
| Data Size    | 38 bytes |
| Instructions | 10       |

```
      00 01 02 03 04 05 06 07  08 09 0A 0B 0C 0D 0E 0F
      -- -- -- -- -- -- -- --  -- -- -- -- -- -- -- --
0020:             1E F0 FF FF  7F 1C 00 80 66 01 80 F8      ........f...
0030: FF FF 7F F8 FF FF 7F 74  6C 6B 30 03 02 10 02 80  .......tlk0.....
0040: 1D 04 80 23 1D 05 80 23  21 00                    ...#...#!.      
```

#### Opcodes

```
  0: 0x0024 [0x1E] EventEntity looks at LocalPlayer and starts talking
  1: 0x0029 [0x1C] WAIT(30* ticks)
  2: 0x002C [0x66] LOAD_EXT_SCHEDULER_MAIN: Load scheduler "tlk0" with entities [EventEntity, EventEntity], work=9*
  3: 0x003B [0x03] Work_Zone[2] = 1881*
  4: 0x0040 [0x1D] PRINT_EVENT_MESSAGE(message_id=7760*)
    → "You say you found a piece of the $3? Yeah, this looks like the one I had...or at least part of it."
  5: 0x0043 [0x23] WAIT_FOR_DIALOG_INTERACTION
  6: 0x0044 [0x1D] PRINT_EVENT_MESSAGE(message_id=7761*)
    → "How did it get all ripped up like that...? I hate to ask, but could you go back in and find the other pieces for me?"
  7: 0x0047 [0x23] WAIT_FOR_DIALOG_INTERACTION
  8: 0x0048 [0x21] END_EVENT
  9: 0x0049 [0x00] END_REQSTACK()
```

### Event 106

#### Metadata

| Field        | Value    |
|--------------|----------|
| Entrypoint   | 0x004A   |
| Data Size    | 29 bytes |
| Instructions | 7        |

```
      00 01 02 03 04 05 06 07  08 09 0A 0B 0C 0D 0E 0F
      -- -- -- -- -- -- -- --  -- -- -- -- -- -- -- --
0040:                                1E F0 FF FF 7F 1C            ......
0050: 00 80 66 01 80 F8 FF FF  7F F8 FF FF 7F 74 6C 6B  ..f..........tlk
0060: 30 1D 05 80 23 21 00                              0...#!.         
```

#### Opcodes

```
  0: 0x004A [0x1E] EventEntity looks at LocalPlayer and starts talking
  1: 0x004F [0x1C] WAIT(30* ticks)
  2: 0x0052 [0x66] LOAD_EXT_SCHEDULER_MAIN: Load scheduler "tlk0" with entities [EventEntity, EventEntity], work=9*
  3: 0x0061 [0x1D] PRINT_EVENT_MESSAGE(message_id=7761*)
    → "How did it get all ripped up like that...? I hate to ask, but could you go back in and find the other pieces for me?"
  4: 0x0064 [0x23] WAIT_FOR_DIALOG_INTERACTION
  5: 0x0065 [0x21] END_EVENT
  6: 0x0066 [0x00] END_REQSTACK()
```

### Event 107

#### Metadata

| Field        | Value   |
|--------------|---------|
| Entrypoint   | 0x0067  |
| Data Size    | 1 bytes |
| Instructions | 1       |

```
      00 01 02 03 04 05 06 07  08 09 0A 0B 0C 0D 0E 0F
      -- -- -- -- -- -- -- --  -- -- -- -- -- -- -- --
0060:                      00                                  .        
```

#### Opcodes

```
  0: 0x0067 [0x00] END_REQSTACK()
```

### Event 108

#### Metadata

| Field        | Value    |
|--------------|----------|
| Entrypoint   | 0x0068   |
| Data Size    | 14 bytes |
| Instructions | 6        |

```
      00 01 02 03 04 05 06 07  08 09 0A 0B 0C 0D 0E 0F
      -- -- -- -- -- -- -- --  -- -- -- -- -- -- -- --
0060:                          1E F0 FF FF 7F 1C 00 80          ........
0070: 1D 06 80 23 21 00                                 ...#!.          
```

#### Opcodes

```
  0: 0x0068 [0x1E] EventEntity looks at LocalPlayer and starts talking
  1: 0x006D [0x1C] WAIT(30* ticks)
  2: 0x0070 [0x1D] PRINT_EVENT_MESSAGE(message_id=7774*)
    → "I guess I should be happy to have this old, tattered map back. No, really, I'm grateful..."
  3: 0x0073 [0x23] WAIT_FOR_DIALOG_INTERACTION
  4: 0x0074 [0x21] END_EVENT
  5: 0x0075 [0x00] END_REQSTACK()
```
