# 17122143

## Common Data

| Field            | Value                       |
|------------------|-----------------------------|
| Zone             | Batallia Downs [S] (ID: 84) |
| Block Size       | 38232 bytes                 |
| Total Events     | 5                           |
| References Count | 527                         |

## List of Events

| Event ID              | Entrypoint   |   Size |   Instructions |
|-----------------------|--------------|--------|----------------|
| [65535](#event-65535) | 0x0000       |      1 |              1 |
| [700](#event-700)     | 0x0001       |   8062 |            966 |
| [701](#event-701)     | 0x1F7F       |  10276 |           1122 |
| [38](#event-38)       | 0x47A3       |   7832 |            861 |
| [39](#event-39)       | 0x663B       |   9917 |           1095 |

## DAT References (imed_data)

|   Index | Hex Value   |   Dec Value |
|---------|-------------|-------------|
|       0 | 0x0000      |           0 |
|       1 | 0x012C      |         300 |
|       2 | 0x0001      |           1 |
|       3 | 0x0013      |          19 |
|       4 | 0x0054      |          84 |
|       5 | 0x0015      |          21 |
|       6 | 0x001E      |          30 |
|       7 | 0x3FEE0     |      261856 |
|       8 | 0xAA89      |       43657 |
|       9 | 0x26C4      |        9924 |
|      10 | 0x0A91      |        2705 |
|      11 | 0x4098E     |      264590 |
|      12 | 0xA4FD      |       42237 |
|      13 | 0x2472      |        9330 |
|      14 | 0x0AD0      |        2768 |
|      15 | 0xFFFD1739  |  4294776633 |
|      16 | 0xFFFE5432  |  4294857778 |
|      17 | 0xFFFF9C4A  |  4294941770 |
|      18 | 0x09C3      |        2499 |
|      19 | 0xFFFD1298  |  4294775448 |
|      20 | 0xFFFE57B6  |  4294858678 |
|      21 | 0xFFFF9C73  |  4294941811 |
|      22 | 0x0034      |          52 |
|      23 | 0xFFFE474D  |  4294854477 |
|      24 | 0x127EC     |       75756 |
|      25 | 0xFFFFE248  |  4294959688 |
|      26 | 0x0106      |         262 |
|      27 | 0xFFFE40ED  |  4294852845 |
|      28 | 0x131A1     |       78241 |
|      29 | 0xFFFFE17B  |  4294959483 |
|      30 | 0x04D5      |        1237 |
|      31 | 0xFFFE3B73  |  4294851443 |
|      32 | 0x138AE     |       80046 |
|      33 | 0xFFFFE0C0  |  4294959296 |
|      34 | 0x00F6      |         246 |
|      35 | 0xFFFE3D89  |  4294851977 |
|      36 | 0x13E2D     |       81453 |
|      37 | 0xFFFFE10F  |  4294959375 |
|      38 | 0x06BD      |        1725 |
|      39 | 0xFFFE3DE7  |  4294852071 |
|      40 | 0x11F7F     |       73599 |
|      41 | 0xFFFFE192  |  4294959506 |
|      42 | 0x079C      |        1948 |
|      43 | 0xFFFE4BF3  |  4294855667 |
|      44 | 0x11A56     |       72278 |
|      45 | 0xFFFFE2DD  |  4294959837 |
|      46 | 0x0B12      |        2834 |
|      47 | 0x000F      |          15 |
|      48 | 0x017B      |         379 |
|      49 | 0x0078      |         120 |
|      50 | 0x00D7      |         215 |
|      51 | 0x007F      |         127 |
|      52 | 0x003C      |          60 |
|      53 | 0x1E83      |        7811 |
|      54 | 0x0096      |         150 |
|      55 | 0x005A      |          90 |
|      56 | 0x1E84      |        7812 |
|      57 | 0x002D      |          45 |
|      58 | 0x0046      |          70 |
|      59 | 0x1E85      |        7813 |
|      60 | 0x1E86      |        7814 |
|      61 | 0x0014      |          20 |
|      62 | 0x0028      |          40 |
|      63 | 0xFFFD17E2  |  4294776802 |
|      64 | 0xFFFF5E95  |  4294925973 |
|      65 | 0xFFFF688B  |  4294928523 |
|      66 | 0x0D2F      |        3375 |
|      67 | 0xFFFD1CDC  |  4294778076 |
|      68 | 0xFFFF4A91  |  4294920849 |
|      69 | 0xFFFF6CAD  |  4294929581 |
|      70 | 0x0BC2      |        3010 |
|      71 | 0x1E87      |        7815 |
|      72 | 0x005B      |          91 |
|      73 | 0x0002      |           2 |
|      74 | 0x0062      |          98 |
|      75 | 0xFFFF4440  |  4294919232 |
|      76 | 0x6B6BA     |      439994 |
|      77 | 0x00C9      |         201 |
|      78 | 0x0A90      |        2704 |
|      79 | 0xFFFF63D2  |  4294927314 |
|      80 | 0x5D3C3     |      381891 |
|      81 | 0x0388      |         904 |
|      82 | 0x0BBA      |        3002 |
|      83 | 0xFFFF69E0  |  4294928864 |
|      84 | 0x5DC7A     |      384122 |
|      85 | 0x0310      |         784 |
|      86 | 0x0BF6      |        3062 |
|      87 | 0xFFFF5C0B  |  4294925323 |
|      88 | 0x5D9BC     |      383420 |
|      89 | 0x033C      |         828 |
|      90 | 0x0C11      |        3089 |
|      91 | 0xFFFCEAB5  |  4294765237 |
|      92 | 0x58BE8     |      363496 |
|      93 | 0x1F3F      |        7999 |
|      94 | 0x0A18      |        2584 |
|      95 | 0xFFFD9F29  |  4294811433 |
|      96 | 0x56ED6     |      356054 |
|      97 | 0x1F3E      |        7998 |
|      98 | 0x0844      |        2116 |
|      99 | 0xFFFD957D  |  4294808957 |
|     100 | 0x57751     |      358225 |
|     101 | 0x0832      |        2098 |
|     102 | 0xFFFD975D  |  4294809437 |
|     103 | 0x568E1     |      354529 |
|     104 | 0x1F88      |        8072 |
|     105 | 0x0808      |        2056 |
|     106 | 0x5DDFC     |      384508 |
|     107 | 0xFFFCCFB8  |  4294758328 |
|     108 | 0x3FD1      |       16337 |
|     109 | 0x0CBE      |        3262 |
|     110 | 0x662BA     |      418490 |
|     111 | 0xFFFCE319  |  4294763289 |
|     112 | 0x4687      |       18055 |
|     113 | 0x06A5      |        1701 |
|     114 | 0x65B96     |      416662 |
|     115 | 0xFFFCE4F5  |  4294763765 |
|     116 | 0x44EE      |       17646 |
|     117 | 0x662B0     |      418480 |
|     118 | 0xFFFCD9C9  |  4294760905 |
|     119 | 0x4616      |       17942 |
|     120 | 0x06BF      |        1727 |
|     121 | 0x1EE0      |        7904 |
|     122 | 0x00C8      |         200 |
|     123 | 0x1E88      |        7816 |
|     124 | 0x1E89      |        7817 |
|     125 | 0x00F7      |         247 |
|     126 | 0x1E8A      |        7818 |
|     127 | 0x1E8B      |        7819 |
|     128 | 0x1E8C      |        7820 |
|     129 | 0x1E8D      |        7821 |
|     130 | 0x1E8E      |        7822 |
|     131 | 0x1E8F      |        7823 |
|     132 | 0x1E90      |        7824 |
|     133 | 0x1E91      |        7825 |
|     134 | 0x0258      |         600 |
|     135 | 0x1E92      |        7826 |
|     136 | 0x1E93      |        7827 |
|     137 | 0xFFFF6F85  |  4294930309 |
|     138 | 0x67F91     |      425873 |
|     139 | 0x0260      |         608 |
|     140 | 0x0846      |        2118 |
|     141 | 0xFFFF6E53  |  4294930003 |
|     142 | 0x67834     |      423988 |
|     143 | 0x031D      |         797 |
|     144 | 0x09F8      |        2552 |
|     145 | 0xFFFF6765  |  4294928229 |
|     146 | 0x6711E     |      422174 |
|     147 | 0x037A      |         890 |
|     148 | 0x0B1F      |        2847 |
|     149 | 0xFFFF5B98  |  4294925208 |
|     150 | 0x68B89     |      428937 |
|     151 | 0x015E      |         350 |
|     152 | 0x0B78      |        2936 |
|     153 | 0xFFFF6083  |  4294926467 |
|     154 | 0x68C0B     |      429067 |
|     155 | 0x0158      |         344 |
|     156 | 0x09CE      |        2510 |
|     157 | 0xFFFF5415  |  4294923285 |
|     158 | 0x68802     |      428034 |
|     159 | 0x0165      |         357 |
|     160 | 0x0C3D      |        3133 |
|     161 | 0xFFFD222B  |  4294779435 |
|     162 | 0x56CCC     |      355532 |
|     163 | 0x2015      |        8213 |
|     164 | 0x0A4D      |        2637 |
|     165 | 0xFFFD2382  |  4294779778 |
|     166 | 0x57263     |      356963 |
|     167 | 0x20FA      |        8442 |
|     168 | 0x08C4      |        2244 |
|     169 | 0xFFFD2745  |  4294780741 |
|     170 | 0x57B78     |      359288 |
|     171 | 0x215B      |        8539 |
|     172 | 0x08E8      |        2280 |
|     173 | 0xFFFD0BD1  |  4294773713 |
|     174 | 0x5769B     |      358043 |
|     175 | 0x1FB7      |        8119 |
|     176 | 0x07FF      |        2047 |
|     177 | 0xFFFD0CBF  |  4294773951 |
|     178 | 0x57FAD     |      360365 |
|     179 | 0x1FC3      |        8131 |
|     180 | 0x06C4      |        1732 |
|     181 | 0xFFFD0D4D  |  4294774093 |
|     182 | 0x56F5B     |      356187 |
|     183 | 0x1FCA      |        8138 |
|     184 | 0x090D      |        2317 |
|     185 | 0x60B2F     |      396079 |
|     186 | 0xFFFCB3B8  |  4294751160 |
|     187 | 0x41A6      |       16806 |
|     188 | 0x0770      |        1904 |
|     189 | 0x609AC     |      395692 |
|     190 | 0xFFFCBCAB  |  4294753451 |
|     191 | 0x40C2      |       16578 |
|     192 | 0x04B6      |        1206 |
|     193 | 0x6047C     |      394364 |
|     194 | 0xFFFCC1CA  |  4294754762 |
|     195 | 0x4037      |       16439 |
|     196 | 0x045C      |        1116 |
|     197 | 0x5F1E8     |      389608 |
|     198 | 0xFFFCB0B8  |  4294750392 |
|     199 | 0x3FAD      |       16301 |
|     200 | 0x0724      |        1828 |
|     201 | 0x5F23D     |      389693 |
|     202 | 0xFFFCB873  |  4294752371 |
|     203 | 0x3FBA      |       16314 |
|     204 | 0x054D      |        1357 |
|     205 | 0x5FB28     |      391976 |
|     206 | 0xFFFCAC1C  |  4294749212 |
|     207 | 0x40AF      |       16559 |
|     208 | 0x083F      |        2111 |
|     209 | 0x1E94      |        7828 |
|     210 | 0x1E95      |        7829 |
|     211 | 0x1E96      |        7830 |
|     212 | 0x1E97      |        7831 |
|     213 | 0x0009      |           9 |
|     214 | 0x1E98      |        7832 |
|     215 | 0x1E99      |        7833 |
|     216 | 0x1E9A      |        7834 |
|     217 | 0xFFFF3CF6  |  4294917366 |
|     218 | 0x6A692     |      435858 |
|     219 | 0x0109      |         265 |
|     220 | 0x0AD2      |        2770 |
|     221 | 0xFFFF4077  |  4294918263 |
|     222 | 0x6ADE6     |      437734 |
|     223 | 0x00F9      |         249 |
|     224 | 0x08A1      |        2209 |
|     225 | 0xFFFF355B  |  4294915419 |
|     226 | 0x6A69F     |      435871 |
|     227 | 0x0163      |         355 |
|     228 | 0x0C04      |        3076 |
|     229 | 0xFFFF34D8  |  4294915288 |
|     230 | 0x6B750     |      440144 |
|     231 | 0x018B      |         395 |
|     232 | 0x0300      |         768 |
|     233 | 0xFFFD0B61  |  4294773601 |
|     234 | 0x58E31     |      364081 |
|     235 | 0x1FB1      |        8113 |
|     236 | 0x08E7      |        2279 |
|     237 | 0xFFFD0739  |  4294772537 |
|     238 | 0x59852     |      366674 |
|     239 | 0x2000      |        8192 |
|     240 | 0x0585      |        1413 |
|     241 | 0xFFFD080F  |  4294772751 |
|     242 | 0x58759     |      362329 |
|     243 | 0x1F87      |        8071 |
|     244 | 0x0A32      |        2610 |
|     245 | 0xFFFCFB30  |  4294769456 |
|     246 | 0x5955B     |      365915 |
|     247 | 0x1F9E      |        8094 |
|     248 | 0x00D9      |         217 |
|     249 | 0x5EC1F     |      388127 |
|     250 | 0xFFFCB25C  |  4294750812 |
|     251 | 0x3F14      |       16148 |
|     252 | 0x09EE      |        2542 |
|     253 | 0x5ECC9     |      388297 |
|     254 | 0xFFFCBC6F  |  4294753391 |
|     255 | 0x3F4F      |       16207 |
|     256 | 0x0837      |        2103 |
|     257 | 0x5E421     |      386081 |
|     258 | 0xFFFCAEFD  |  4294749949 |
|     259 | 0x3E59      |       15961 |
|     260 | 0x0B38      |        2872 |
|     261 | 0x5E285     |      385669 |
|     262 | 0xFFFCBBFE  |  4294753278 |
|     263 | 0x3EA7      |       16039 |
|     264 | 0x01C9      |         457 |
|     265 | 0x00FC      |         252 |
|     266 | 0x1E9B      |        7835 |
|     267 | 0x1E9C      |        7836 |
|     268 | 0x1E9D      |        7837 |
|     269 | 0x1E9E      |        7838 |
|     270 | 0x1E9F      |        7839 |
|     271 | 0x1EA0      |        7840 |
|     272 | 0x1EA1      |        7841 |
|     273 | 0x0021      |          33 |
|     274 | 0x1EA2      |        7842 |
|     275 | 0x001D      |          29 |
|     276 | 0x1EA5      |        7845 |
|     277 | 0x1EA6      |        7846 |
|     278 | 0x1EA3      |        7843 |
|     279 | 0x1EA4      |        7844 |
|     280 | 0x1EA8      |        7848 |
|     281 | 0x1EA9      |        7849 |
|     282 | 0x1EAA      |        7850 |
|     283 | 0x0065      |         101 |
|     284 | 0xFFFF31B9  |  4294914489 |
|     285 | 0x6AA5E     |      436830 |
|     286 | 0x01DC      |         476 |
|     287 | 0x0FE0      |        4064 |
|     288 | 0xFFFD021E  |  4294771230 |
|     289 | 0x57E51     |      360017 |
|     290 | 0x1F3B      |        7995 |
|     291 | 0x05F7      |        1527 |
|     292 | 0x59FE4     |      368612 |
|     293 | 0xFFFC8753  |  4294739795 |
|     294 | 0x2279      |        8825 |
|     295 | 0x0E08      |        3592 |
|     296 | 0x017A      |         378 |
|     297 | 0x1EAE      |        7854 |
|     298 | 0x00FA      |         250 |
|     299 | 0x0098      |         152 |
|     300 | 0x1EAB      |        7851 |
|     301 | 0x00B4      |         180 |
|     302 | 0x0099      |         153 |
|     303 | 0x0003      |           3 |
|     304 | 0x0004      |           4 |
|     305 | 0x0005      |           5 |
|     306 | 0x0006      |           6 |
|     307 | 0x0007      |           7 |
|     308 | 0x0008      |           8 |
|     309 | 0x1EAC      |        7852 |
|     310 | 0x00B6      |         182 |
|     311 | 0x00FF      |         255 |
|     312 | 0xFFF99F71  |  4294549361 |
|     313 | 0xFFFCBB88  |  4294753160 |
|     314 | 0x4E1F      |       19999 |
|     315 | 0x0F08      |        3848 |
|     316 | 0xFFF99763  |  4294547299 |
|     317 | 0xFFFCE383  |  4294763395 |
|     318 | 0x0400      |        1024 |
|     319 | 0xFFF99BBE  |  4294548414 |
|     320 | 0xFFFCC9B2  |  4294756786 |
|     321 | 0x0B7F      |        2943 |
|     322 | 0x051F      |        1311 |
|     323 | 0x0521      |        1313 |
|     324 | 0x1EAD      |        7853 |
|     325 | 0x1EAF      |        7855 |
|     326 | 0x1EB0      |        7856 |
|     327 | 0x051E      |        1310 |
|     328 | 0x1EB1      |        7857 |
|     329 | 0x1EB2      |        7858 |
|     330 | 0x0029      |          41 |
|     331 | 0x1EB3      |        7859 |
|     332 | 0x0582      |        1410 |
|     333 | 0x1EB4      |        7860 |
|     334 | 0x1EB5      |        7861 |
|     335 | 0x1EB6      |        7862 |
|     336 | 0x1EB7      |        7863 |
|     337 | 0x1EB8      |        7864 |
|     338 | 0x0016      |          22 |
|     339 | 0x00F0      |         240 |
|     340 | 0x1EB9      |        7865 |
|     341 | 0x1EBA      |        7866 |
|     342 | 0x1EBB      |        7867 |
|     343 | 0x1EBC      |        7868 |
|     344 | 0x0520      |        1312 |
|     345 | 0x1EBD      |        7869 |
|     346 | 0x1EBE      |        7870 |
|     347 | 0x1EBF      |        7871 |
|     348 | 0x1EC0      |        7872 |
|     349 | 0x1EC1      |        7873 |
|     350 | 0x1EC2      |        7874 |
|     351 | 0x1EC3      |        7875 |
|     352 | 0x1EC4      |        7876 |
|     353 | 0x1EC5      |        7877 |
|     354 | 0x1EC6      |        7878 |
|     355 | 0x1EC7      |        7879 |
|     356 | 0x1EC8      |        7880 |
|     357 | 0x1EC9      |        7881 |
|     358 | 0x1ECA      |        7882 |
|     359 | 0x1ECB      |        7883 |
|     360 | 0x1ECC      |        7884 |
|     361 | 0x1ECD      |        7885 |
|     362 | 0x1ECE      |        7886 |
|     363 | 0x1ECF      |        7887 |
|     364 | 0x1ED0      |        7888 |
|     365 | 0x1ED1      |        7889 |
|     366 | 0x051D      |        1309 |
|     367 | 0x1ED2      |        7890 |
|     368 | 0x1ED3      |        7891 |
|     369 | 0x1ED4      |        7892 |
|     370 | 0x1ED5      |        7893 |
|     371 | 0x1ED6      |        7894 |
|     372 | 0x1ED7      |        7895 |
|     373 | 0x1ED8      |        7896 |
|     374 | 0x0522      |        1314 |
|     375 | 0x010E      |         270 |
|     376 | 0x1ED9      |        7897 |
|     377 | 0x1EDA      |        7898 |
|     378 | 0x1EDB      |        7899 |
|     379 | 0x1EDC      |        7900 |
|     380 | 0x1EDD      |        7901 |
|     381 | 0x1EDE      |        7902 |
|     382 | 0x0050      |          80 |
|     383 | 0x02FC      |         764 |
|     384 | 0x259C      |        9628 |
|     385 | 0x259D      |        9629 |
|     386 | 0x259E      |        9630 |
|     387 | 0x259F      |        9631 |
|     388 | 0x25A0      |        9632 |
|     389 | 0x09AA      |        2474 |
|     390 | 0x00A0      |         160 |
|     391 | 0x25A1      |        9633 |
|     392 | 0x25A2      |        9634 |
|     393 | 0x25A3      |        9635 |
|     394 | 0x001B      |          27 |
|     395 | 0xFFF98579  |  4294542713 |
|     396 | 0xFFFC997A  |  4294744442 |
|     397 | 0xFFF9852E  |  4294542638 |
|     398 | 0xFFFCAA18  |  4294748696 |
|     399 | 0x03E9      |        1001 |
|     400 | 0x0064      |         100 |
|     401 | 0x25A4      |        9636 |
|     402 | 0x25A5      |        9637 |
|     403 | 0x25A6      |        9638 |
|     404 | 0x25A7      |        9639 |
|     405 | 0x25A8      |        9640 |
|     406 | 0x25A9      |        9641 |
|     407 | 0x25AA      |        9642 |
|     408 | 0x25AB      |        9643 |
|     409 | 0x25AC      |        9644 |
|     410 | 0x25AD      |        9645 |
|     411 | 0x03E8      |        1000 |
|     412 | 0x25AE      |        9646 |
|     413 | 0x000A      |          10 |
|     414 | 0x25AF      |        9647 |
|     415 | 0x25B0      |        9648 |
|     416 | 0x0584      |        1412 |
|     417 | 0x25B3      |        9651 |
|     418 | 0x25B4      |        9652 |
|     419 | 0x25B5      |        9653 |
|     420 | 0x25B6      |        9654 |
|     421 | 0x25B7      |        9655 |
|     422 | 0x25B8      |        9656 |
|     423 | 0x25B9      |        9657 |
|     424 | 0x25BA      |        9658 |
|     425 | 0x25BB      |        9659 |
|     426 | 0x25BC      |        9660 |
|     427 | 0x25B1      |        9649 |
|     428 | 0x25B2      |        9650 |
|     429 | 0x25BD      |        9661 |
|     430 | 0x25BE      |        9662 |
|     431 | 0x25BF      |        9663 |
|     432 | 0x25C0      |        9664 |
|     433 | 0x25C1      |        9665 |
|     434 | 0x25C2      |        9666 |
|     435 | 0x25C3      |        9667 |
|     436 | 0x25C5      |        9669 |
|     437 | 0x25C4      |        9668 |
|     438 | 0x25C6      |        9670 |
|     439 | 0x25C7      |        9671 |
|     440 | 0x25C8      |        9672 |
|     441 | 0x25C9      |        9673 |
|     442 | 0x25CA      |        9674 |
|     443 | 0x25CB      |        9675 |
|     444 | 0x25CC      |        9676 |
|     445 | 0x25CD      |        9677 |
|     446 | 0x25CE      |        9678 |
|     447 | 0x25CF      |        9679 |
|     448 | 0xFFF98CE8  |  4294544616 |
|     449 | 0xFFFCAC8D  |  4294749325 |
|     450 | 0x4A37      |       18999 |
|     451 | 0xFFF984CA  |  4294542538 |
|     452 | 0xFFFCA9B4  |  4294748596 |
|     453 | 0x496F      |       18799 |
|     454 | 0xFFF98504  |  4294542596 |
|     455 | 0x4CF3      |       19699 |
|     456 | 0xFFFCA982  |  4294748546 |
|     457 | 0x4A69      |       19049 |
|     458 | 0x0F26      |        3878 |
|     459 | 0x02FD      |         765 |
|     460 | 0x0854      |        2132 |
|     461 | 0x25D3      |        9683 |
|     462 | 0x25D4      |        9684 |
|     463 | 0x25D5      |        9685 |
|     464 | 0x0856      |        2134 |
|     465 | 0x25D6      |        9686 |
|     466 | 0x25D7      |        9687 |
|     467 | 0x25D8      |        9688 |
|     468 | 0x25D9      |        9689 |
|     469 | 0x25DA      |        9690 |
|     470 | 0x25DB      |        9691 |
|     471 | 0x0857      |        2135 |
|     472 | 0x085B      |        2139 |
|     473 | 0x25DC      |        9692 |
|     474 | 0x25DD      |        9693 |
|     475 | 0x25DE      |        9694 |
|     476 | 0x25DF      |        9695 |
|     477 | 0x00D5      |         213 |
|     478 | 0xFFFEA070  |  4294877296 |
|     479 | 0x0024      |          36 |
|     480 | 0x25E0      |        9696 |
|     481 | 0x01E0      |         480 |
|     482 | 0x25E1      |        9697 |
|     483 | 0xFFFFFF52  |  4294967122 |
|     484 | 0x0514      |        1300 |
|     485 | 0x25E2      |        9698 |
|     486 | 0x0855      |        2133 |
|     487 | 0x25E3      |        9699 |
|     488 | 0x25E4      |        9700 |
|     489 | 0x25E5      |        9701 |
|     490 | 0x25E6      |        9702 |
|     491 | 0x25E7      |        9703 |
|     492 | 0x25E8      |        9704 |
|     493 | 0x25E9      |        9705 |
|     494 | 0x25EA      |        9706 |
|     495 | 0x25EB      |        9707 |
|     496 | 0x25EC      |        9708 |
|     497 | 0x25ED      |        9709 |
|     498 | 0x00BE      |         190 |
|     499 | 0x25EF      |        9711 |
|     500 | 0x25F0      |        9712 |
|     501 | 0x25F1      |        9713 |
|     502 | 0x25F2      |        9714 |
|     503 | 0x25F3      |        9715 |
|     504 | 0x25F4      |        9716 |
|     505 | 0x25F5      |        9717 |
|     506 | 0x25F6      |        9718 |
|     507 | 0x25F7      |        9719 |
|     508 | 0x25F8      |        9720 |
|     509 | 0x25F9      |        9721 |
|     510 | 0x0067      |         103 |
|     511 | 0x25FA      |        9722 |
|     512 | 0x0F3A      |        3898 |
|     513 | 0x0075      |         117 |
|     514 | 0x008C      |         140 |
|     515 | 0x25FE      |        9726 |
|     516 | 0x25FF      |        9727 |
|     517 | 0x0033      |          51 |
|     518 | 0x2600      |        9728 |
|     519 | 0x2602      |        9730 |
|     520 | 0x2603      |        9731 |
|     521 | 0x2604      |        9732 |
|     522 | 0x2608      |        9736 |
|     523 | 0x2609      |        9737 |
|     524 | 0x260B      |        9739 |
|     525 | 0x260C      |        9740 |
|     526 | 0x260D      |        9741 |

## String References

- **7852**: <Player> is engulfed by the cavernous maw!
- **7853**: A disembodied metallic voice drifts towards you...
- **7854**: You sense the gaze of the cavernous maw upon you.
- **7863**: Do you see how blue? [Oh yes, completely blue./You seem black and white to me...]
- **7876**: The regal feline peers intently at <Player>.
- **7888**: Are you up to the task? [I'll do it!/It's not my time...]
- **7904**: @@
- **9648**: Why are you here? [I need Iroha to be accepted./No real reason.]
- **9657**: Well? [Of course I'm upset!/Isn't there anything we can do?/I...suppose not.]
- **9691**: Have you had odd dreams? [Not dreams, but visions.../Not really.]
- **9704**: How do you respond? [I'll think of something./I need your help./...]

## Events

### Event 65535

#### Metadata

| Field        | Value   |
|--------------|---------|
| Entrypoint   | 0x0000  |
| Data Size    | 1 bytes |
| Instructions | 1       |

```
      00 01 02 03 04 05 06 07  08 09 0A 0B 0C 0D 0E 0F
      -- -- -- -- -- -- -- --  -- -- -- -- -- -- -- --
0000: 00                                                .               
```

#### Opcodes

```
  0: 0x0000 [0x00] END_REQSTACK()
```

### Event 700

#### Metadata

| Field        | Value      |
|--------------|------------|
| Entrypoint   | 0x0001     |
| Data Size    | 8062 bytes |
| Instructions | 966        |

```
      00 01 02 03 04 05 06 07  08 09 0A 0B 0C 0D 0E 0F
      -- -- -- -- -- -- -- --  -- -- -- -- -- -- -- --
0000:    42 1A 97 43 5D 00 80  01 80 03 01 10 02 80 43   B..C].........C
0010: 00 43 01 03 00 00 02 10  03 01 00 09 10 46 01 38  .C...........F.8
0020: 03 80 4E 00 F0 FF FF 7F  02 00 00 00 80 01 33 00  ..N...........3.
0030: 34 04 80 77 05 80 00 80  1C 06 80 AB 09 27 10 63  4..w.........'.c
0040: 43 05 01 04 27 10 64 43  05 01 04 27 10 67 43 05  C...'.dC...'.gC.
0050: 01 04 27 10 68 43 05 01  04 27 10 69 43 05 01 04  ..'.hC...'.iC...
0060: 27 10 6A 43 05 01 04 27  10 6B 43 05 01 04 27 10  '.jC...'.kC...'.
0070: 6C 43 05 01 04 27 10 6D  43 05 01 04 27 10 6E 43  lC...'.mC...'.nC
0080: 05 01 04 29 10 63 43 05  01 09 29 10 64 43 05 01  ...).cC...).dC..
0090: 09 29 10 69 43 05 01 09  29 10 6A 43 05 01 09 29  .).iC...).jC...)
00A0: 10 6B 43 05 01 09 29 10  6C 43 05 01 09 29 10 6D  .kC...).lC...).m
00B0: 43 05 01 09 29 10 6E 43  05 01 09 92 01 63 43 05  C...).nC.....cC.
00C0: 01 92 01 64 43 05 01 92  01 67 43 05 01 92 01 68  ...dC....gC....h
00D0: 43 05 01 92 01 69 43 05  01 92 01 6A 43 05 01 92  C....iC....jC...
00E0: 01 6B 43 05 01 92 01 6C  43 05 01 92 01 6D 43 05  .kC....lC....mC.
00F0: 01 92 01 6E 43 05 01 94  01 63 43 05 01 94 01 64  ...nC....cC....d
0100: 43 05 01 94 01 67 43 05  01 94 01 68 43 05 01 94  C....gC....hC...
0110: 01 69 43 05 01 94 01 6A  43 05 01 94 01 6B 43 05  .iC....jC....kC.
0120: 01 94 01 6C 43 05 01 94  01 6D 43 05 01 94 01 6E  ...lC....mC....n
0130: 43 05 01 BA 63 43 05 01  07 80 08 80 09 80 0A 80  C...cC..........
0140: BA 64 43 05 01 0B 80 0C  80 0D 80 0E 80 BA 67 43  .dC...........gC
0150: 05 01 0F 80 10 80 11 80  12 80 BA 68 43 05 01 13  ...........hC...
0160: 80 14 80 15 80 16 80 BA  69 43 05 01 17 80 18 80  ........iC......
0170: 19 80 1A 80 BA 6A 43 05  01 1B 80 1C 80 1D 80 1E  .....jC.........
0180: 80 BA 6B 43 05 01 1F 80  20 80 21 80 22 80 BA 6C  ..kC.... .!."..l
0190: 43 05 01 23 80 24 80 25  80 26 80 BA 6D 43 05 01  C..#.$.%.&..mC..
01A0: 27 80 28 80 29 80 2A 80  BA 6E 43 05 01 2B 80 2C  '.(.).*..nC..+.,
01B0: 80 2D 80 2E 80 80 63 43  05 01 80 64 43 05 01 80  .-....cC...dC...
01C0: 67 43 05 01 80 68 43 05  01 80 69 43 05 01 80 6A  gC...hC...iC...j
01D0: 43 05 01 80 6B 43 05 01  80 6C 43 05 01 80 6D 43  C...kC...lC...mC
01E0: 05 01 80 6E 43 05 01 1C  2F 80 45 30 80 F0 FF FF  ...nC.../.E0....
01F0: 7F F0 FF FF 7F 6D 32 30  31 00 80 1A 76 43 1C 31  .....m201...vC.1
0200: 80 4A 67 43 05 01 63 43  05 01 4A 68 43 05 01 64  .JgC..cC..JhC..d
0210: 43 05 01 5C 00 32 80 5C  01 32 80 9A 27 10 63 43  C..\.2.\.2..'.cC
0220: 05 01 0D 27 10 64 43 05  01 21 4A 67 43 05 01 63  ...'.dC..!JgC..c
0230: 43 05 01 1C 06 80 4A 68  43 05 01 64 43 05 01 1C  C.....JhC..dC...
0240: 2F 80 52 30 80 F0 FF FF  7F F0 FF FF 7F 6D 32 30  /.R0.........m20
0250: 31 45 30 80 F0 FF FF 7F  F0 FF FF 7F 6D 32 31 30  1E0.........m210
0260: 00 80 9F 33 80 F8 FF FF  7F F8 FF FF 7F 73 74 72  ...3.........str
0270: 30 00 80 1C 34 80 9F 33  80 F8 FF FF 7F F8 FF FF  0...4..3........
0280: 7F 6B 69 6C 6C 00 80 1C  31 80 52 30 80 F0 FF FF  .kill...1.R0....
0290: 7F F0 FF FF 7F 6D 32 31  30 45 30 80 F0 FF FF 7F  .....m210E0.....
02A0: F0 FF FF 7F 6D 32 31 31  00 80 2B 63 43 05 01 35  ....m211..+cC..5
02B0: 80 9F 33 80 F8 FF FF 7F  F8 FF FF 7F 73 74 72 30  ..3.........str0
02C0: 00 80 1C 34 80 9F 33 80  F8 FF FF 7F F8 FF FF 7F  ...4..3.........
02D0: 6B 69 6C 6C 00 80 1C 06  80 52 30 80 F0 FF FF 7F  kill.....R0.....
02E0: F0 FF FF 7F 6D 32 31 31  45 30 80 F0 FF FF 7F F0  ....m211E0......
02F0: FF FF 7F 6D 32 31 33 00  80 1C 36 80 52 30 80 F0  ...m213...6.R0..
0300: FF FF 7F F0 FF FF 7F 6D  32 31 33 45 30 80 F0 FF  .......m213E0...
0310: FF 7F F0 FF FF 7F 6D 32  31 32 00 80 1C 06 80 9F  ......m212......
0320: 33 80 F8 FF FF 7F F8 FF  FF 7F 73 74 72 30 00 80  3.........str0..
0330: 1C 37 80 9F 33 80 F8 FF  FF 7F F8 FF FF 7F 6B 69  .7..3.........ki
0340: 6C 6C 00 80 2B 64 43 05  01 38 80 23 2A 10 64 43  ll..+dC..8.#*.dC
0350: 05 01 27 10 63 43 05 01  0B 27 10 64 43 05 01 0B  ..'.cC...'.dC...
0360: 1C 39 80 52 30 80 F0 FF  FF 7F F0 FF FF 7F 6D 32  .9.R0.........m2
0370: 31 32 45 30 80 F0 FF FF  7F F0 FF FF 7F 6D 32 30  12E0.........m20
0380: 30 00 80 1C 3A 80 1C 31  80 52 30 80 F0 FF FF 7F  0...:..1.R0.....
0390: F0 FF FF 7F 6D 32 30 30  45 30 80 F0 FF FF 7F F0  ....m200E0......
03A0: FF FF 7F 6D 32 30 32 00  80 2B 63 43 05 01 3B 80  ...m202..+cC..;.
03B0: 1C 31 80 52 30 80 F0 FF  FF 7F F0 FF FF 7F 6D 32  .1.R0.........m2
03C0: 30 32 45 30 80 F0 FF FF  7F F0 FF FF 7F 6D 32 30  02E0.........m20
03D0: 33 00 80 1C 06 80 9F 33  80 F8 FF FF 7F F8 FF FF  3......3........
03E0: 7F 73 74 72 30 00 80 1C  37 80 9F 33 80 F8 FF FF  .str0...7..3....
03F0: 7F F8 FF FF 7F 6B 69 6C  6C 00 80 2B 64 43 05 01  .....kill..+dC..
0400: 3C 80 1C 06 80 52 30 80  F0 FF FF 7F F0 FF FF 7F  <....R0.........
0410: 6D 32 30 33 45 30 80 F0  FF FF 7F F0 FF FF 7F 6D  m203E0.........m
0420: 32 30 34 00 80 9F 33 80  F8 FF FF 7F F8 FF FF 7F  204...3.........
0430: 73 74 72 30 00 80 1C 34  80 9F 33 80 F8 FF FF 7F  str0...4..3.....
0440: F8 FF FF 7F 6B 69 6C 6C  00 80 1C 06 80 52 30 80  ....kill.....R0.
0450: F0 FF FF 7F F0 FF FF 7F  6D 32 30 34 45 30 80 F0  ........m204E0..
0460: FF FF 7F F0 FF FF 7F 6D  32 30 35 00 80 1C 3D 80  .......m205...=.
0470: 9F 33 80 F8 FF FF 7F F8  FF FF 7F 73 74 72 30 00  .3.........str0.
0480: 80 1C 3E 80 9F 33 80 F8  FF FF 7F F8 FF FF 7F 6B  ..>..3.........k
0490: 69 6C 6C 00 80 1C 37 80  27 10 69 43 05 01 0B 27  ill...7.'.iC...'
04A0: 10 6A 43 05 01 0B 27 10  6B 43 05 01 0B 27 10 6C  .jC...'.kC...'.l
04B0: 43 05 01 0B 27 10 6D 43  05 01 0B 27 10 6E 43 05  C...'.mC...'.nC.
04C0: 01 0B 1C 37 80 52 30 80  F0 FF FF 7F F0 FF FF 7F  ...7.R0.........
04D0: 6D 32 30 35 45 30 80 F0  FF FF 7F F0 FF FF 7F 6D  m205E0.........m
04E0: 32 30 36 00 80 9F 33 80  F8 FF FF 7F F8 FF FF 7F  206...3.........
04F0: 73 74 72 30 00 80 2A 10  64 43 05 01 9F 33 80 F8  str0..*.dC...3..
0500: FF FF 7F F8 FF FF 7F 6B  69 6C 6C 00 80 7A 00 69  .......kill..z.i
0510: 43 05 01 7A 00 6A 43 05  01 7A 00 6B 43 05 01 7A  C..z.jC..z.kC..z
0520: 00 6C 43 05 01 7A 00 6D  43 05 01 7A 00 6E 43 05  .lC..z.mC..z.nC.
0530: 01 1C 34 80 52 30 80 F0  FF FF 7F F0 FF FF 7F 6D  ..4.R0.........m
0540: 32 30 36 45 30 80 F0 FF  FF 7F F0 FF FF 7F 6D 32  206E0.........m2
0550: 30 37 00 80 BA 67 43 05  01 3F 80 40 80 41 80 42  07...gC..?.@.A.B
0560: 80 BA 68 43 05 01 43 80  44 80 45 80 46 80 2B 64  ..hC..C.D.E.F.+d
0570: 43 05 01 47 80 23 5D 00  80 01 80 27 10 63 43 05  C..G.#]....'.cC.
0580: 01 0C 27 10 68 43 05 01  09 27 10 69 43 05 01 0B  ..'.hC...'.iC...
0590: 27 10 6A 43 05 01 0B 27  10 6B 43 05 01 0B 27 10  '.jC...'.kC...'.
05A0: 6C 43 05 01 0B 27 10 6D  43 05 01 0B 27 10 6E 43  lC...'.mC...'.nC
05B0: 05 01 0B 52 30 80 F0 FF  FF 7F F0 FF FF 7F 6D 32  ...R0.........m2
05C0: 30 37 45 30 80 F0 FF FF  7F F0 FF FF 7F 6D 32 30  07E0.........m20
05D0: 38 00 80 1C 31 80 1A 97  43 1C 06 80 7A 00 63 43  8...1...C...z.cC
05E0: 05 01 7A 00 69 43 05 01  7A 00 6A 43 05 01 7A 00  ..z.iC..z.jC..z.
05F0: 6B 43 05 01 7A 00 6C 43  05 01 7A 00 6D 43 05 01  kC..z.lC..z.mC..
0600: 7A 00 6E 43 05 01 1C 2F  80 29 10 63 43 05 01 0A  z.nC.../.).cC...
0610: 29 10 64 43 05 01 0A 29  10 69 43 05 01 0A 29 10  ).dC...).iC...).
0620: 6A 43 05 01 0A 29 10 6B  43 05 01 0A 29 10 6C 43  jC...).kC...).lC
0630: 05 01 0A 29 10 6D 43 05  01 0A 29 10 6E 43 05 01  ...).mC...).nC..
0640: 0A 1C 2F 80 02 00 00 02  80 80 52 06 35 48 80 01  ../.......R.5H..
0650: 60 06 02 00 00 49 80 80  60 06 35 4A 80 01 60 06  `....I..`.5J..`.
0660: 78 4E 01 63 43 05 01 4E  01 69 43 05 01 4E 01 6A  xN.cC..N.iC..N.j
0670: 43 05 01 4E 01 6B 43 05  01 4E 01 6C 43 05 01 4E  C..N.kC..N.lC..N
0680: 01 6D 43 05 01 4E 01 6E  43 05 01 27 10 64 43 05  .mC..N.nC..'.dC.
0690: 01 04 27 10 65 43 05 01  04 27 10 66 43 05 01 04  ..'.eC...'.fC...
06A0: 27 10 64 43 05 01 09 27  10 65 43 05 01 09 27 10  '.dC...'.eC...'.
06B0: 66 43 05 01 09 92 01 55  43 05 01 92 01 64 43 05  fC.....UC....dC.
06C0: 01 92 01 65 43 05 01 92  01 66 43 05 01 94 01 F0  ...eC....fC.....
06D0: FF FF 7F 94 01 55 43 05  01 94 01 64 43 05 01 94  .....UC....dC...
06E0: 01 65 43 05 01 94 01 66  43 05 01 02 00 00 00 80  .eC....fC.......
06F0: 80 2A 07 BA F0 FF FF 7F  4B 80 4C 80 4D 80 4E 80  .*......K.L.M.N.
0700: BA 64 43 05 01 4F 80 50  80 51 80 52 80 BA 65 43  .dC..O.P.Q.R..eC
0710: 05 01 53 80 54 80 55 80  56 80 BA 66 43 05 01 57  ..S.T.U.V..fC..W
0720: 80 58 80 59 80 5A 80 01  A8 07 02 00 00 02 80 80  .X.Y.Z..........
0730: 69 07 BA F0 FF FF 7F 5B  80 5C 80 5D 80 5E 80 BA  i......[.\.].^..
0740: 64 43 05 01 5F 80 60 80  61 80 62 80 BA 65 43 05  dC.._.`.a.b..eC.
0750: 01 63 80 64 80 5D 80 65  80 BA 66 43 05 01 66 80  .c.d.].e..fC..f.
0760: 67 80 68 80 69 80 01 A8  07 02 00 00 49 80 80 A8  g.h.i.......I...
0770: 07 BA F0 FF FF 7F 6A 80  6B 80 6C 80 6D 80 BA 64  ......j.k.l.m..d
0780: 43 05 01 6E 80 6F 80 70  80 71 80 BA 65 43 05 01  C..n.o.p.q..eC..
0790: 72 80 73 80 74 80 71 80  BA 66 43 05 01 75 80 76  r.s.t.q..fC..u.v
07A0: 80 77 80 78 80 01 A8 07  80 F0 FF FF 7F 80 55 43  .w.x..........UC
07B0: 05 01 80 64 43 05 01 80  65 43 05 01 80 66 43 05  ...dC...eC...fC.
07C0: 01 2C F0 FF FF 7F F0 FF  FF 7F 63 6F 72 70 48 79  .,........corpHy
07D0: 80 23 1C 2F 80 02 00 00  00 80 80 F1 07 45 30 80  .#./.........E0.
07E0: F0 FF FF 7F F0 FF FF 7F  6E 73 30 30 00 80 01 29  ........ns00...)
07F0: 08 02 00 00 02 80 80 0D  08 45 30 80 F0 FF FF 7F  .........E0.....
0800: F0 FF FF 7F 72 73 30 30  00 80 01 29 08 02 00 00  ....rs00...)....
0810: 49 80 80 29 08 45 30 80  F0 FF FF 7F F0 FF FF 7F  I..).E0.........
0820: 61 73 30 30 00 80 01 29  08 45 7A 80 F8 FF FF 7F  as00...).Ez.....
0830: F8 FF FF 7F 66 64 69 32  00 80 02 00 00 00 80 80  ....fdi2........
0840: 8B 08 55 30 80 F0 FF FF  7F F0 FF FF 7F 6E 73 30  ..U0.........ns0
0850: 30 45 30 80 F0 FF FF 7F  F0 FF FF 7F 6E 73 30 31  0E0.........ns01
0860: 00 80 9F 33 80 F8 FF FF  7F F8 FF FF 7F 73 74 72  ...3.........str
0870: 30 00 80 27 10 65 43 05  01 0B 27 10 66 43 05 01  0..'.eC...'.fC..
0880: 0B 27 10 64 43 05 01 0C  01 2D 09 02 00 00 02 80  .'.dC....-......
0890: 80 DC 08 55 30 80 F0 FF  FF 7F F0 FF FF 7F 72 73  ...U0.........rs
08A0: 30 30 45 30 80 F0 FF FF  7F F0 FF FF 7F 72 73 30  00E0.........rs0
08B0: 31 00 80 9F 33 80 F8 FF  FF 7F F8 FF FF 7F 73 74  1...3.........st
08C0: 72 30 00 80 27 10 65 43  05 01 11 27 10 66 43 05  r0..'.eC...'.fC.
08D0: 01 11 27 10 64 43 05 01  13 01 2D 09 02 00 00 49  ..'.dC....-....I
08E0: 80 80 2D 09 55 30 80 F0  FF FF 7F F0 FF FF 7F 61  ..-.U0.........a
08F0: 73 30 30 45 30 80 F0 FF  FF 7F F0 FF FF 7F 61 73  s00E0.........as
0900: 30 31 00 80 9F 33 80 F8  FF FF 7F F8 FF FF 7F 73  01...3.........s
0910: 74 72 30 00 80 27 10 65  43 05 01 17 27 10 66 43  tr0..'.eC...'.fC
0920: 05 01 17 27 10 64 43 05  01 1A 01 2D 09 1C 31 80  ...'.dC....-..1.
0930: 2B 65 43 05 01 7B 80 1C  34 80 9F 33 80 F8 FF FF  +eC..{..4..3....
0940: 7F F8 FF FF 7F 6B 69 6C  6C 00 80 1C 34 80 02 00  .....kill...4...
0950: 00 00 80 80 79 09 52 30  80 F0 FF FF 7F F0 FF FF  ....y.R0........
0960: 7F 6E 73 30 31 45 30 80  F0 FF FF 7F F0 FF FF 7F  .ns01E0.........
0970: 6E 73 30 34 00 80 01 CF  09 02 00 00 02 80 80 A4  ns04............
0980: 09 52 30 80 F0 FF FF 7F  F0 FF FF 7F 72 73 30 31  .R0.........rs01
0990: 45 30 80 F0 FF FF 7F F0  FF FF 7F 72 73 30 34 00  E0.........rs04.
09A0: 80 01 CF 09 02 00 00 49  80 80 CF 09 52 30 80 F0  .......I....R0..
09B0: FF FF 7F F0 FF FF 7F 61  73 30 31 45 30 80 F0 FF  .......as01E0...
09C0: FF 7F F0 FF FF 7F 61 73  30 34 00 80 01 CF 09 2A  ......as04.....*
09D0: 10 64 43 05 01 03 02 10  00 00 2B 64 43 05 01 7C  .dC.......+dC..|
09E0: 80 23 5C 00 7D 80 5C 01  7D 80 9A 02 00 00 00 80  .#\.}.\.}.......
09F0: 80 5C 0A 52 30 80 F0 FF  FF 7F F0 FF FF 7F 6E 73  .\.R0.........ns
0A00: 30 34 45 30 80 F0 FF FF  7F F0 FF FF 7F 6E 73 30  04E0.........ns0
0A10: 35 00 80 1C 31 80 52 30  80 F0 FF FF 7F F0 FF FF  5...1.R0........
0A20: 7F 6E 73 30 35 45 30 80  F0 FF FF 7F F0 FF FF 7F  .ns05E0.........
0A30: 6E 73 30 36 00 80 1C 31  80 52 30 80 F0 FF FF 7F  ns06...1.R0.....
0A40: F0 FF FF 7F 6E 73 30 36  45 30 80 F0 FF FF 7F F0  ....ns06E0......
0A50: FF FF 7F 6E 73 30 37 00  80 01 3E 0B 02 00 00 02  ...ns07...>.....
0A60: 80 80 CD 0A 52 30 80 F0  FF FF 7F F0 FF FF 7F 72  ....R0.........r
0A70: 73 30 34 45 30 80 F0 FF  FF 7F F0 FF FF 7F 72 73  s04E0.........rs
0A80: 30 35 00 80 1C 31 80 52  30 80 F0 FF FF 7F F0 FF  05...1.R0.......
0A90: FF 7F 72 73 30 35 45 30  80 F0 FF FF 7F F0 FF FF  ..rs05E0........
0AA0: 7F 72 73 30 36 00 80 1C  31 80 52 30 80 F0 FF FF  .rs06...1.R0....
0AB0: 7F F0 FF FF 7F 72 73 30  36 45 30 80 F0 FF FF 7F  .....rs06E0.....
0AC0: F0 FF FF 7F 72 73 30 37  00 80 01 3E 0B 02 00 00  ....rs07...>....
0AD0: 49 80 80 3E 0B 52 30 80  F0 FF FF 7F F0 FF FF 7F  I..>.R0.........
0AE0: 61 73 30 34 45 30 80 F0  FF FF 7F F0 FF FF 7F 61  as04E0.........a
0AF0: 73 30 35 00 80 1C 31 80  52 30 80 F0 FF FF 7F F0  s05...1.R0......
0B00: FF FF 7F 61 73 30 35 45  30 80 F0 FF FF 7F F0 FF  ...as05E0.......
0B10: FF 7F 61 73 30 36 00 80  1C 31 80 52 30 80 F0 FF  ..as06...1.R0...
0B20: FF 7F F0 FF FF 7F 61 73  30 36 45 30 80 F0 FF FF  ......as06E0....
0B30: 7F F0 FF FF 7F 61 73 30  37 00 80 01 3E 0B 2B 64  .....as07...>.+d
0B40: 43 05 01 7E 80 23 02 00  00 00 80 80 80 0B 52 30  C..~.#........R0
0B50: 80 F0 FF FF 7F F0 FF FF  7F 6E 73 30 37 45 30 80  .........ns07E0.
0B60: F0 FF FF 7F F0 FF FF 7F  6E 73 30 38 00 80 03 02  ........ns08....
0B70: 10 00 80 03 03 10 02 80  03 04 10 49 80 01 F4 0B  ...........I....
0B80: 02 00 00 02 80 80 BA 0B  52 30 80 F0 FF FF 7F F0  ........R0......
0B90: FF FF 7F 72 73 30 37 45  30 80 F0 FF FF 7F F0 FF  ...rs07E0.......
0BA0: FF 7F 72 73 30 38 00 80  03 02 10 02 80 03 03 10  ..rs08..........
0BB0: 49 80 03 04 10 00 80 01  F4 0B 02 00 00 49 80 80  I............I..
0BC0: F4 0B 52 30 80 F0 FF FF  7F F0 FF FF 7F 61 73 30  ..R0.........as0
0BD0: 37 45 30 80 F0 FF FF 7F  F0 FF FF 7F 61 73 30 38  7E0.........as08
0BE0: 00 80 03 02 10 49 80 03  03 10 00 80 03 04 10 02  .....I..........
0BF0: 80 01 F4 0B 2B 66 43 05  01 7F 80 23 02 00 00 00  ....+fC....#....
0C00: 80 80 27 0C 52 30 80 F0  FF FF 7F F0 FF FF 7F 6E  ..'.R0.........n
0C10: 73 30 38 45 30 80 F0 FF  FF 7F F0 FF FF 7F 6E 73  s08E0.........ns
0C20: 30 39 00 80 01 7D 0C 02  00 00 02 80 80 52 0C 52  09...}.......R.R
0C30: 30 80 F0 FF FF 7F F0 FF  FF 7F 72 73 30 38 45 30  0.........rs08E0
0C40: 80 F0 FF FF 7F F0 FF FF  7F 72 73 30 39 00 80 01  .........rs09...
0C50: 7D 0C 02 00 00 49 80 80  7D 0C 52 30 80 F0 FF FF  }....I..}.R0....
0C60: 7F F0 FF FF 7F 61 73 30  38 45 30 80 F0 FF FF 7F  .....as08E0.....
0C70: F0 FF FF 7F 61 73 30 39  00 80 01 7D 0C 79 00 65  ....as09...}.y.e
0C80: 43 05 01 64 43 05 01 1C  3D 80 2B 65 43 05 01 80  C..dC...=.+eC...
0C90: 80 23 79 00 66 43 05 01  65 43 05 01 2B 66 43 05  .#y.fC..eC..+fC.
0CA0: 01 81 80 23 02 00 00 00  80 80 CF 0C 52 30 80 F0  ...#........R0..
0CB0: FF FF 7F F0 FF FF 7F 6E  73 30 39 45 30 80 F0 FF  .......ns09E0...
0CC0: FF 7F F0 FF FF 7F 6E 73  31 30 00 80 01 25 0D 02  ......ns10...%..
0CD0: 00 00 02 80 80 FA 0C 52  30 80 F0 FF FF 7F F0 FF  .......R0.......
0CE0: FF 7F 72 73 30 39 45 30  80 F0 FF FF 7F F0 FF FF  ..rs09E0........
0CF0: 7F 72 73 31 30 00 80 01  25 0D 02 00 00 49 80 80  .rs10...%....I..
0D00: 25 0D 52 30 80 F0 FF FF  7F F0 FF FF 7F 61 73 30  %.R0.........as0
0D10: 39 45 30 80 F0 FF FF 7F  F0 FF FF 7F 61 73 31 30  9E0.........as10
0D20: 00 80 01 25 0D 7B 66 43  05 01 2B 66 43 05 01 82  ...%.{fC..+fC...
0D30: 80 23 7B 65 43 05 01 1C  3D 80 2B 65 43 05 01 83  .#{eC...=.+eC...
0D40: 80 23 02 00 00 00 80 80  DB 0D 27 10 64 43 05 01  .#........'.dC..
0D50: 0D 27 10 66 43 05 01 0C  27 10 65 43 05 01 0C 1C  .'.fC...'.eC....
0D60: 2F 80 52 30 80 F0 FF FF  7F F0 FF FF 7F 6E 73 31  /.R0.........ns1
0D70: 30 45 30 80 F0 FF FF 7F  F0 FF FF 7F 6E 73 31 31  0E0.........ns11
0D80: 00 80 1C 31 80 2B 64 43  05 01 84 80 1C 34 80 52  ...1.+dC.....4.R
0D90: 30 80 F0 FF FF 7F F0 FF  FF 7F 6E 73 31 31 45 30  0.........ns11E0
0DA0: 80 F0 FF FF 7F F0 FF FF  7F 6E 73 31 32 00 80 2A  .........ns12..*
0DB0: 10 64 43 05 01 1C 31 80  52 30 80 F0 FF FF 7F F0  .dC...1.R0......
0DC0: FF FF 7F 6E 73 31 32 45  30 80 F0 FF FF 7F F0 FF  ...ns12E0.......
0DD0: FF 7F 6E 73 31 33 00 80  01 0D 0F 02 00 00 02 80  ..ns13..........
0DE0: 80 74 0E 27 10 64 43 05  01 14 27 10 66 43 05 01  .t.'.dC...'.fC..
0DF0: 12 27 10 65 43 05 01 12  1C 2F 80 52 30 80 F0 FF  .'.eC..../.R0...
0E00: FF 7F F0 FF FF 7F 72 73  31 30 45 30 80 F0 FF FF  ......rs10E0....
0E10: 7F F0 FF FF 7F 72 73 31  31 00 80 1C 34 80 2B 64  .....rs11...4.+d
0E20: 43 05 01 84 80 1C 34 80  52 30 80 F0 FF FF 7F F0  C.....4.R0......
0E30: FF FF 7F 72 73 31 31 45  30 80 F0 FF FF 7F F0 FF  ...rs11E0.......
0E40: FF 7F 72 73 31 32 00 80  2A 10 64 43 05 01 1C 31  ..rs12..*.dC...1
0E50: 80 52 30 80 F0 FF FF 7F  F0 FF FF 7F 72 73 31 32  .R0.........rs12
0E60: 45 30 80 F0 FF FF 7F F0  FF FF 7F 72 73 31 33 00  E0.........rs13.
0E70: 80 01 0D 0F 02 00 00 49  80 80 0D 0F 27 10 64 43  .......I....'.dC
0E80: 05 01 1B 27 10 66 43 05  01 18 27 10 65 43 05 01  ...'.fC...'.eC..
0E90: 18 1C 2F 80 52 30 80 F0  FF FF 7F F0 FF FF 7F 61  ../.R0.........a
0EA0: 73 31 30 45 30 80 F0 FF  FF 7F F0 FF FF 7F 61 73  s10E0.........as
0EB0: 31 31 00 80 1C 34 80 2B  64 43 05 01 84 80 1C 34  11...4.+dC.....4
0EC0: 80 52 30 80 F0 FF FF 7F  F0 FF FF 7F 61 73 31 31  .R0.........as11
0ED0: 45 30 80 F0 FF FF 7F F0  FF FF 7F 61 73 31 32 00  E0.........as12.
0EE0: 80 2A 10 64 43 05 01 1C  31 80 52 30 80 F0 FF FF  .*.dC...1.R0....
0EF0: 7F F0 FF FF 7F 61 73 31  32 45 30 80 F0 FF FF 7F  .....as12E0.....
0F00: F0 FF FF 7F 61 73 31 33  00 80 01 0D 0F 2B 64 43  ....as13.....+dC
0F10: 05 01 85 80 23 2A 10 66  43 05 01 5D 00 80 86 80  ....#*.fC..]....
0F20: 02 00 00 00 80 80 5F 0F  27 10 66 43 05 01 0D 1C  ......_.'.fC....
0F30: 2F 80 79 00 65 43 05 01  66 43 05 01 52 30 80 F0  /.y.eC..fC..R0..
0F40: FF FF 7F F0 FF FF 7F 6E  73 31 33 45 30 80 F0 FF  .......ns13E0...
0F50: FF 7F F0 FF FF 7F 6E 73  31 34 00 80 01 DD 0F 02  ......ns14......
0F60: 00 00 02 80 80 9E 0F 27  10 66 43 05 01 13 1C 2F  .......'.fC..../
0F70: 80 79 00 65 43 05 01 66  43 05 01 52 30 80 F0 FF  .y.eC..fC..R0...
0F80: FF 7F F0 FF FF 7F 72 73  31 33 45 30 80 F0 FF FF  ......rs13E0....
0F90: 7F F0 FF FF 7F 72 73 31  34 00 80 01 DD 0F 02 00  .....rs14.......
0FA0: 00 49 80 80 DD 0F 27 10  66 43 05 01 19 1C 2F 80  .I....'.fC..../.
0FB0: 79 00 65 43 05 01 66 43  05 01 52 30 80 F0 FF FF  y.eC..fC..R0....
0FC0: 7F F0 FF FF 7F 61 73 31  33 45 30 80 F0 FF FF 7F  .....as13E0.....
0FD0: F0 FF FF 7F 61 73 31 34  00 80 01 DD 0F 1C 06 80  ....as14........
0FE0: 79 00 66 43 05 01 64 43  05 01 2B 66 43 05 01 87  y.fC..dC..+fC...
0FF0: 80 23 02 00 00 00 80 80  1D 10 52 30 80 F0 FF FF  .#........R0....
1000: 7F F0 FF FF 7F 6E 73 31  34 45 30 80 F0 FF FF 7F  .....ns14E0.....
1010: F0 FF FF 7F 6E 73 31 35  00 80 01 73 10 02 00 00  ....ns15...s....
1020: 02 80 80 48 10 52 30 80  F0 FF FF 7F F0 FF FF 7F  ...H.R0.........
1030: 72 73 31 34 45 30 80 F0  FF FF 7F F0 FF FF 7F 72  rs14E0.........r
1040: 73 31 35 00 80 01 73 10  02 00 00 49 80 80 73 10  s15...s....I..s.
1050: 52 30 80 F0 FF FF 7F F0  FF FF 7F 61 73 31 34 45  R0.........as14E
1060: 30 80 F0 FF FF 7F F0 FF  FF 7F 61 73 31 35 00 80  0.........as15..
1070: 01 73 10 79 00 65 43 05  01 64 43 05 01 2B 64 43  .s.y.eC..dC..+dC
1080: 05 01 88 80 23 7B 65 43  05 01 1A 97 43 1C 39 80  ....#{eC....C.9.
1090: 52 30 80 F0 FF FF 7F F0  FF FF 7F 6E 73 31 35 52  R0.........ns15R
10A0: 30 80 F0 FF FF 7F F0 FF  FF 7F 72 73 31 35 52 30  0.........rs15R0
10B0: 80 F0 FF FF 7F F0 FF FF  7F 61 73 31 35 27 10 6F  .........as15'.o
10C0: 43 05 01 04 27 10 70 43  05 01 04 27 10 71 43 05  C...'.pC...'.qC.
10D0: 01 04 92 01 6F 43 05 01  92 01 70 43 05 01 92 01  ....oC....pC....
10E0: 71 43 05 01 94 01 6F 43  05 01 94 01 70 43 05 01  qC....oC....pC..
10F0: 94 01 71 43 05 01 27 10  64 43 05 01 0A 27 10 65  ..qC..'.dC...'.e
1100: 43 05 01 0A 27 10 66 43  05 01 0A 02 00 00 00 80  C...'.fC........
1110: 80 64 11 BA 6F 43 05 01  89 80 8A 80 8B 80 8C 80  .d..oC..........
1120: BA 70 43 05 01 8D 80 8E  80 8F 80 90 80 BA 71 43  .pC...........qC
1130: 05 01 91 80 92 80 93 80  94 80 BA 64 43 05 01 95  ...........dC...
1140: 80 96 80 97 80 98 80 BA  65 43 05 01 99 80 9A 80  ........eC......
1150: 9B 80 9C 80 BA 66 43 05  01 9D 80 9E 80 9F 80 A0  .....fC.........
1160: 80 01 16 12 02 00 00 02  80 80 BD 11 BA 6F 43 05  .............oC.
1170: 01 A1 80 A2 80 A3 80 A4  80 BA 70 43 05 01 A5 80  ..........pC....
1180: A6 80 A7 80 A8 80 BA 71  43 05 01 A9 80 AA 80 AB  .......qC.......
1190: 80 AC 80 BA 64 43 05 01  AD 80 AE 80 AF 80 B0 80  ....dC..........
11A0: BA 65 43 05 01 B1 80 B2  80 B3 80 B4 80 BA 66 43  .eC...........fC
11B0: 05 01 B5 80 B6 80 B7 80  B8 80 01 16 12 02 00 00  ................
11C0: 49 80 80 16 12 BA 6F 43  05 01 B9 80 BA 80 BB 80  I.....oC........
11D0: BC 80 BA 70 43 05 01 BD  80 BE 80 BF 80 C0 80 BA  ...pC...........
11E0: 71 43 05 01 C1 80 C2 80  C3 80 C4 80 BA 64 43 05  qC...........dC.
11F0: 01 C5 80 C6 80 C7 80 C8  80 BA 65 43 05 01 C9 80  ..........eC....
1200: CA 80 CB 80 CC 80 BA 66  43 05 01 CD 80 CE 80 CF  .......fC.......
1210: 80 D0 80 01 16 12 80 6F  43 05 01 80 70 43 05 01  .......oC...pC..
1220: 80 71 43 05 01 80 64 43  05 01 80 65 43 05 01 80  .qC...dC...eC...
1230: 66 43 05 01 79 00 64 43  05 01 55 43 05 01 79 00  fC..y.dC..UC..y.
1240: 65 43 05 01 55 43 05 01  1C 34 80 48 79 80 23 1C  eC..UC...4.Hy.#.
1250: 2F 80 02 00 00 00 80 80  6E 12 45 30 80 F0 FF FF  /.......n.E0....
1260: 7F F0 FF FF 7F 6E 73 31  36 00 80 01 A6 12 02 00  .....ns16.......
1270: 00 02 80 80 8A 12 45 30  80 F0 FF FF 7F F0 FF FF  ......E0........
1280: 7F 72 73 31 36 00 80 01  A6 12 02 00 00 49 80 80  .rs16........I..
1290: A6 12 45 30 80 F0 FF FF  7F F0 FF FF 7F 61 73 31  ..E0.........as1
12A0: 36 00 80 01 A6 12 1A 76  43 2B 66 43 05 01 D1 80  6......vC+fC....
12B0: 23 79 00 65 43 05 01 66  43 05 01 2B 65 43 05 01  #y.eC..fC..+eC..
12C0: D2 80 23 02 00 00 00 80  80 0C 13 27 10 64 43 05  ..#........'.dC.
12D0: 01 0E 79 00 65 43 05 01  55 43 05 01 1C 3D 80 79  ..y.eC..UC...=.y
12E0: 00 66 43 05 01 55 43 05  01 52 30 80 F0 FF FF 7F  .fC..UC..R0.....
12F0: F0 FF FF 7F 6E 73 31 36  45 30 80 F0 FF FF 7F F0  ....ns16E0......
1300: FF FF 7F 6E 73 31 37 00  80 01 9E 13 02 00 00 02  ...ns17.........
1310: 80 80 55 13 27 10 64 43  05 01 15 79 00 65 43 05  ..U.'.dC...y.eC.
1320: 01 55 43 05 01 1C 3D 80  79 00 66 43 05 01 55 43  .UC...=.y.fC..UC
1330: 05 01 52 30 80 F0 FF FF  7F F0 FF FF 7F 72 73 31  ..R0.........rs1
1340: 36 45 30 80 F0 FF FF 7F  F0 FF FF 7F 72 73 31 37  6E0.........rs17
1350: 00 80 01 9E 13 02 00 00  49 80 80 9E 13 27 10 64  ........I....'.d
1360: 43 05 01 1C 79 00 65 43  05 01 55 43 05 01 1C 3D  C...y.eC..UC...=
1370: 80 79 00 66 43 05 01 55  43 05 01 52 30 80 F0 FF  .y.fC..UC..R0...
1380: FF 7F F0 FF FF 7F 61 73  31 36 45 30 80 F0 FF FF  ......as16E0....
1390: 7F F0 FF FF 7F 61 73 31  37 00 80 01 9E 13 2B 64  .....as17.....+d
13A0: 43 05 01 D3 80 23 2A 10  64 43 05 01 02 00 00 00  C....#*.dC......
13B0: 80 80 D7 13 52 30 80 F0  FF FF 7F F0 FF FF 7F 6E  ....R0.........n
13C0: 73 31 37 45 30 80 F0 FF  FF 7F F0 FF FF 7F 6E 73  s17E0.........ns
13D0: 31 38 00 80 01 2D 14 02  00 00 02 80 80 02 14 52  18...-.........R
13E0: 30 80 F0 FF FF 7F F0 FF  FF 7F 72 73 31 37 45 30  0.........rs17E0
13F0: 80 F0 FF FF 7F F0 FF FF  7F 72 73 31 38 00 80 01  .........rs18...
1400: 2D 14 02 00 00 49 80 80  2D 14 52 30 80 F0 FF FF  -....I..-.R0....
1410: 7F F0 FF FF 7F 61 73 31  37 45 30 80 F0 FF FF 7F  .....as17E0.....
1420: F0 FF FF 7F 61 73 31 38  00 80 01 2D 14 2B 64 43  ....as18...-.+dC
1430: 05 01 D4 80 23 79 00 65  43 05 01 64 43 05 01 66  ....#y.eC..dC..f
1440: D5 80 65 43 05 01 65 43  05 01 74 77 62 30 2B 65  ..eC..eC..twb0+e
1450: 43 05 01 D6 80 23 66 D5  80 65 43 05 01 65 43 05  C....#f..eC..eC.
1460: 01 74 77 62 31 1C 39 80  7B 64 43 05 01 1C 2F 80  .twb1.9.{dC.../.
1470: 02 00 00 00 80 80 B3 14  2B 64 43 05 01 D7 80 23  ........+dC....#
1480: 79 00 64 43 05 01 F0 FF  FF 7F 1C 06 80 52 30 80  y.dC.........R0.
1490: F0 FF FF 7F F0 FF FF 7F  6E 73 31 38 45 30 80 F0  ........ns18E0..
14A0: FF FF 7F F0 FF FF 7F 6E  73 31 39 00 80 1C 06 80  .......ns19.....
14B0: 01 68 15 02 00 00 02 80  80 F6 14 2B 64 43 05 01  .h.........+dC..
14C0: D7 80 23 79 00 64 43 05  01 F0 FF FF 7F 1C 06 80  ..#y.dC.........
14D0: 52 30 80 F0 FF FF 7F F0  FF FF 7F 72 73 31 38 45  R0.........rs18E
14E0: 30 80 F0 FF FF 7F F0 FF  FF 7F 72 73 31 39 00 80  0.........rs19..
14F0: 1C 06 80 01 68 15 02 00  00 49 80 80 68 15 4A 64  ....h....I..h.Jd
1500: 43 05 01 65 43 05 01 52  30 80 F0 FF FF 7F F0 FF  C..eC..R0.......
1510: FF 7F 61 73 31 38 45 30  80 F0 FF FF 7F F0 FF FF  ..as18E0........
1520: 7F 61 73 33 32 00 80 6F  76 64 43 05 01 2B 64 43  .as32..ovdC..+dC
1530: 05 01 D7 80 23 79 00 64  43 05 01 F0 FF FF 7F 1C  ....#y.dC.......
1540: 06 80 52 30 80 F0 FF FF  7F F0 FF FF 7F 61 73 33  ..R0.........as3
1550: 32 45 30 80 F0 FF FF 7F  F0 FF FF 7F 61 73 31 39  2E0.........as19
1560: 00 80 1C 06 80 01 68 15  4A 65 43 05 01 F0 FF FF  ......h.JeC.....
1570: 7F 79 00 66 43 05 01 F0  FF FF 7F 2B 64 43 05 01  .y.fC......+dC..
1580: D8 80 23 02 00 00 00 80  80 A3 15 27 10 64 43 05  ..#........'.dC.
1590: 01 0F 27 10 66 43 05 01  0E 27 10 65 43 05 01 0D  ..'.fC...'.eC...
15A0: 01 E3 15 02 00 00 02 80  80 C3 15 27 10 64 43 05  ...........'.dC.
15B0: 01 16 27 10 66 43 05 01  14 27 10 65 43 05 01 13  ..'.fC...'.eC...
15C0: 01 E3 15 02 00 00 49 80  80 E3 15 27 10 64 43 05  ......I....'.dC.
15D0: 01 1D 27 10 66 43 05 01  1A 27 10 65 43 05 01 19  ..'.fC...'.eC...
15E0: 01 E3 15 1C 06 80 1A 97  43 1C 06 80 7A 00 64 43  ........C...z.dC
15F0: 05 01 7A 00 66 43 05 01  7A 00 65 43 05 01 02 00  ..z.fC..z.eC....
1600: 00 00 80 80 3D 16 BA 64  43 05 01 D9 80 DA 80 DB  ....=..dC.......
1610: 80 DC 80 BA 65 43 05 01  DD 80 DE 80 DF 80 E0 80  ....eC..........
1620: BA 66 43 05 01 E1 80 E2  80 E3 80 E4 80 BA F0 FF  .fC.............
1630: FF 7F E5 80 E6 80 E7 80  E8 80 01 BB 16 02 00 00  ................
1640: 02 80 80 7C 16 BA 64 43  05 01 E9 80 EA 80 EB 80  ...|..dC........
1650: EC 80 BA 65 43 05 01 ED  80 EE 80 EF 80 F0 80 BA  ...eC...........
1660: 66 43 05 01 F1 80 F2 80  F3 80 F4 80 BA F0 FF FF  fC..............
1670: 7F F5 80 F6 80 F7 80 F8  80 01 BB 16 02 00 00 49  ...............I
1680: 80 80 BB 16 BA 64 43 05  01 F9 80 FA 80 FB 80 FC  .....dC.........
1690: 80 BA 65 43 05 01 FD 80  FE 80 FF 80 00 81 BA 66  ..eC...........f
16A0: 43 05 01 01 81 02 81 03  81 04 81 BA F0 FF FF 7F  C...............
16B0: 05 81 06 81 07 81 08 81  01 BB 16 29 10 F0 FF FF  ...........)....
16C0: 7F 33 48 79 80 23 5C 00  09 81 5C 01 09 81 9A 1C  .3Hy.#\...\.....
16D0: 2F 80 02 00 00 00 80 80  FD 16 52 30 80 F0 FF FF  /.........R0....
16E0: 7F F0 FF FF 7F 6E 73 31  39 45 30 80 F0 FF FF 7F  .....ns19E0.....
16F0: F0 FF FF 7F 6E 73 32 30  00 80 01 53 17 02 00 00  ....ns20...S....
1700: 02 80 80 28 17 52 30 80  F0 FF FF 7F F0 FF FF 7F  ...(.R0.........
1710: 72 73 31 39 45 30 80 F0  FF FF 7F F0 FF FF 7F 72  rs19E0.........r
1720: 73 32 30 00 80 01 53 17  02 00 00 49 80 80 53 17  s20...S....I..S.
1730: 52 30 80 F0 FF FF 7F F0  FF FF 7F 61 73 31 39 45  R0.........as19E
1740: 30 80 F0 FF FF 7F F0 FF  FF 7F 61 73 32 30 00 80  0.........as20..
1750: 01 53 17 45 7A 80 F8 FF  FF 7F F8 FF FF 7F 66 64  .S.Ez.........fd
1760: 69 32 00 80 66 D5 80 65  43 05 01 65 43 05 01 74  i2..f..eC..eC..t
1770: 77 62 30 2B 65 43 05 01  0A 81 23 2B 66 43 05 01  wb0+eC....#+fC..
1780: 0B 81 23 66 02 80 66 43  05 01 66 43 05 01 69 6E  ..#f..fC..fC..in
1790: 30 30 1C 06 80 02 00 00  00 80 80 C0 17 52 30 80  00...........R0.
17A0: F0 FF FF 7F F0 FF FF 7F  6E 73 32 30 45 30 80 F0  ........ns20E0..
17B0: FF FF 7F F0 FF FF 7F 6E  73 32 31 00 80 01 16 18  .......ns21.....
17C0: 02 00 00 02 80 80 EB 17  52 30 80 F0 FF FF 7F F0  ........R0......
17D0: FF FF 7F 72 73 32 30 45  30 80 F0 FF FF 7F F0 FF  ...rs20E0.......
17E0: FF 7F 72 73 32 31 00 80  01 16 18 02 00 00 49 80  ..rs21........I.
17F0: 80 16 18 52 30 80 F0 FF  FF 7F F0 FF FF 7F 61 73  ...R0.........as
1800: 32 30 45 30 80 F0 FF FF  7F F0 FF FF 7F 61 73 32  20E0.........as2
1810: 31 00 80 01 16 18 66 D5  80 65 43 05 01 65 43 05  1.....f..eC..eC.
1820: 01 74 77 62 31 2B 66 43  05 01 0C 81 23 02 00 00  .twb1+fC....#...
1830: 00 80 80 58 18 52 30 80  F0 FF FF 7F F0 FF FF 7F  ...X.R0.........
1840: 6E 73 32 31 45 30 80 F0  FF FF 7F F0 FF FF 7F 6E  ns21E0.........n
1850: 73 32 32 00 80 01 AE 18  02 00 00 02 80 80 83 18  s22.............
1860: 52 30 80 F0 FF FF 7F F0  FF FF 7F 72 73 32 31 45  R0.........rs21E
1870: 30 80 F0 FF FF 7F F0 FF  FF 7F 72 73 32 32 00 80  0.........rs22..
1880: 01 AE 18 02 00 00 49 80  80 AE 18 52 30 80 F0 FF  ......I....R0...
1890: FF 7F F0 FF FF 7F 61 73  32 31 45 30 80 F0 FF FF  ......as21E0....
18A0: 7F F0 FF FF 7F 61 73 32  32 00 80 01 AE 18 79 00  .....as22.....y.
18B0: 64 43 05 01 66 43 05 01  1C 39 80 2B 64 43 05 01  dC..fC...9.+dC..
18C0: 0D 81 23 79 00 64 43 05  01 F0 FF FF 7F 02 00 00  ..#y.dC.........
18D0: 00 80 80 FF 18 27 10 65  43 05 01 0E 52 30 80 F0  .....'.eC...R0..
18E0: FF FF 7F F0 FF FF 7F 6E  73 32 32 45 30 80 F0 FF  .......ns22E0...
18F0: FF 7F F0 FF FF 7F 6E 73  32 33 00 80 01 63 19 02  ......ns23...c..
1900: 00 00 02 80 80 31 19 27  10 65 43 05 01 14 52 30  .....1.'.eC...R0
1910: 80 F0 FF FF 7F F0 FF FF  7F 72 73 32 32 45 30 80  .........rs22E0.
1920: F0 FF FF 7F F0 FF FF 7F  72 73 32 33 00 80 01 63  ........rs23...c
1930: 19 02 00 00 49 80 80 63  19 27 10 65 43 05 01 1A  ....I..c.'.eC...
1940: 52 30 80 F0 FF FF 7F F0  FF FF 7F 61 73 32 32 45  R0.........as22E
1950: 30 80 F0 FF FF 7F F0 FF  FF 7F 61 73 32 33 00 80  0.........as23..
1960: 01 63 19 2B 65 43 05 01  0E 81 23 27 10 F0 FF FF  .c.+eC....#'....
1970: 7F 34 66 02 80 66 43 05  01 66 43 05 01 6F 75 74  .4f..fC..fC..out
1980: 30 2A 10 65 43 05 01 66  D5 80 65 43 05 01 65 43  0*.eC..f..eC..eC
1990: 05 01 74 77 61 30 2B 65  43 05 01 0F 81 23 66 D5  ..twa0+eC....#f.
19A0: 80 65 43 05 01 65 43 05  01 74 77 61 31 4A 66 43  .eC..eC..twa1JfC
19B0: 05 01 65 43 05 01 1C 3D  80 02 00 00 00 80 80 E4  ..eC...=........
19C0: 19 52 30 80 F0 FF FF 7F  F0 FF FF 7F 6E 73 32 33  .R0.........ns23
19D0: 45 30 80 F0 FF FF 7F F0  FF FF 7F 6E 73 32 34 00  E0.........ns24.
19E0: 80 01 3A 1A 02 00 00 02  80 80 0F 1A 52 30 80 F0  ..:.........R0..
19F0: FF FF 7F F0 FF FF 7F 72  73 32 33 45 30 80 F0 FF  .......rs23E0...
1A00: FF 7F F0 FF FF 7F 72 73  32 34 00 80 01 3A 1A 02  ......rs24...:..
1A10: 00 00 49 80 80 3A 1A 52  30 80 F0 FF FF 7F F0 FF  ..I..:.R0.......
1A20: FF 7F 61 73 32 33 45 30  80 F0 FF FF 7F F0 FF FF  ..as23E0........
1A30: 7F 61 73 32 34 00 80 01  3A 1A 2B 66 43 05 01 10  .as24...:.+fC...
1A40: 81 23 79 00 F0 FF FF 7F  65 43 05 01 02 00 00 00  .#y.....eC......
1A50: 80 80 F9 1A 52 30 80 F0  FF FF 7F F0 FF FF 7F 6E  ....R0.........n
1A60: 73 32 34 45 30 80 F0 FF  FF 7F F0 FF FF 7F 6E 73  s24E0.........ns
1A70: 32 35 00 80 6E 65 43 05  01 11 81 99 65 43 05 01  25..neC.....eC..
1A80: 2B 65 43 05 01 12 81 23  6E 66 43 05 01 13 81 99  +eC....#nfC.....
1A90: 66 43 05 01 2B 66 43 05  01 14 81 23 52 30 80 F0  fC..+fC....#R0..
1AA0: FF FF 7F F0 FF FF 7F 6E  73 32 35 45 30 80 F0 FF  .......ns25E0...
1AB0: FF 7F F0 FF FF 7F 6E 73  33 31 00 80 1C 39 80 03  ......ns31...9..
1AC0: 02 10 00 00 2B 65 43 05  01 15 81 23 27 10 64 43  ....+eC....#'.dC
1AD0: 05 01 10 1C 06 80 52 30  80 F0 FF FF 7F F0 FF FF  ......R0........
1AE0: 7F 6E 73 33 31 45 30 80  F0 FF FF 7F F0 FF FF 7F  .ns31E0.........
1AF0: 6E 73 32 36 00 80 01 53  1C 02 00 00 02 80 80 A6  ns26...S........
1B00: 1B 52 30 80 F0 FF FF 7F  F0 FF FF 7F 72 73 32 34  .R0.........rs24
1B10: 45 30 80 F0 FF FF 7F F0  FF FF 7F 72 73 32 35 00  E0.........rs25.
1B20: 80 6E 65 43 05 01 11 81  99 65 43 05 01 2B 65 43  .neC.....eC..+eC
1B30: 05 01 16 81 23 6E 66 43  05 01 13 81 99 66 43 05  ....#nfC.....fC.
1B40: 01 2B 66 43 05 01 14 81  23 52 30 80 F0 FF FF 7F  .+fC....#R0.....
1B50: F0 FF FF 7F 72 73 32 35  45 30 80 F0 FF FF 7F F0  ....rs25E0......
1B60: FF FF 7F 72 73 33 31 00  80 1C 39 80 03 02 10 00  ...rs31...9.....
1B70: 00 2B 65 43 05 01 15 81  23 27 10 64 43 05 01 17  .+eC....#'.dC...
1B80: 1C 06 80 52 30 80 F0 FF  FF 7F F0 FF FF 7F 72 73  ...R0.........rs
1B90: 33 31 45 30 80 F0 FF FF  7F F0 FF FF 7F 72 73 32  31E0.........rs2
1BA0: 36 00 80 01 53 1C 02 00  00 49 80 80 53 1C 52 30  6...S....I..S.R0
1BB0: 80 F0 FF FF 7F F0 FF FF  7F 61 73 32 34 45 30 80  .........as24E0.
1BC0: F0 FF FF 7F F0 FF FF 7F  61 73 32 35 00 80 6E 65  ........as25..ne
1BD0: 43 05 01 11 81 99 65 43  05 01 2B 65 43 05 01 17  C.....eC..+eC...
1BE0: 81 23 6E 66 43 05 01 13  81 99 66 43 05 01 2B 66  .#nfC.....fC..+f
1BF0: 43 05 01 14 81 23 52 30  80 F0 FF FF 7F F0 FF FF  C....#R0........
1C00: 7F 61 73 32 35 45 30 80  F0 FF FF 7F F0 FF FF 7F  .as25E0.........
1C10: 61 73 33 31 00 80 1C 39  80 03 02 10 00 00 2B 65  as31...9......+e
1C20: 43 05 01 15 81 23 27 10  64 43 05 01 1E 1C 06 80  C....#'.dC......
1C30: 52 30 80 F0 FF FF 7F F0  FF FF 7F 61 73 33 31 45  R0.........as31E
1C40: 30 80 F0 FF FF 7F F0 FF  FF 7F 61 73 32 36 00 80  0.........as26..
1C50: 01 53 1C 2A 10 64 43 05  01 2B 64 43 05 01 18 81  .S.*.dC..+dC....
1C60: 23 02 00 00 00 80 80 3E  1D 27 10 64 43 05 01 11  #......>.'.dC...
1C70: 27 10 66 43 05 01 0F 52  30 80 F0 FF FF 7F F0 FF  '.fC...R0.......
1C80: FF 7F 6E 73 32 36 45 30  80 F0 FF FF 7F F0 FF FF  ..ns26E0........
1C90: 7F 6E 73 32 37 00 80 1C  34 80 27 10 65 43 05 01  .ns27...4.'.eC..
1CA0: 0F 1C 37 80 52 30 80 F0  FF FF 7F F0 FF FF 7F 6E  ..7.R0.........n
1CB0: 73 32 37 45 30 80 F0 FF  FF 7F F0 FF FF 7F 6E 73  s27E0.........ns
1CC0: 32 38 00 80 1C 06 80 2B  65 43 05 01 19 81 23 2A  28.....+eC....#*
1CD0: 10 65 43 05 01 2A 10 64  43 05 01 52 30 80 F0 FF  .eC..*.dC..R0...
1CE0: FF 7F F0 FF FF 7F 6E 73  32 38 45 30 80 F0 FF FF  ......ns28E0....
1CF0: 7F F0 FF FF 7F 6E 73 32  39 00 80 2B 64 43 05 01  .....ns29..+dC..
1D00: 1A 81 23 27 10 64 43 05  01 12 27 10 65 43 05 01  ..#'.dC...'.eC..
1D10: 10 27 10 66 43 05 01 10  1C 2F 80 52 30 80 F0 FF  .'.fC..../.R0...
1D20: FF 7F F0 FF FF 7F 6E 73  32 39 45 30 80 F0 FF FF  ......ns29E0....
1D30: 7F F0 FF FF 7F 6E 73 33  30 00 80 01 F8 1E 02 00  .....ns30.......
1D40: 00 02 80 80 1B 1E 27 10  64 43 05 01 18 27 10 66  ......'.dC...'.f
1D50: 43 05 01 15 52 30 80 F0  FF FF 7F F0 FF FF 7F 72  C...R0.........r
1D60: 73 32 36 45 30 80 F0 FF  FF 7F F0 FF FF 7F 72 73  s26E0.........rs
1D70: 32 37 00 80 1C 34 80 27  10 65 43 05 01 15 1C 37  27...4.'.eC....7
1D80: 80 52 30 80 F0 FF FF 7F  F0 FF FF 7F 72 73 32 37  .R0.........rs27
1D90: 45 30 80 F0 FF FF 7F F0  FF FF 7F 72 73 32 38 00  E0.........rs28.
1DA0: 80 1C 06 80 2B 65 43 05  01 19 81 23 2A 10 65 43  ....+eC....#*.eC
1DB0: 05 01 2A 10 64 43 05 01  52 30 80 F0 FF FF 7F F0  ..*.dC..R0......
1DC0: FF FF 7F 72 73 32 38 45  30 80 F0 FF FF 7F F0 FF  ...rs28E0.......
1DD0: FF 7F 72 73 32 39 00 80  2B 64 43 05 01 1A 81 23  ..rs29..+dC....#
1DE0: 27 10 64 43 05 01 19 27  10 65 43 05 01 16 27 10  '.dC...'.eC...'.
1DF0: 66 43 05 01 16 1C 2F 80  52 30 80 F0 FF FF 7F F0  fC..../.R0......
1E00: FF FF 7F 72 73 32 39 45  30 80 F0 FF FF 7F F0 FF  ...rs29E0.......
1E10: FF 7F 72 73 33 30 00 80  01 F8 1E 02 00 00 49 80  ..rs30........I.
1E20: 80 F8 1E 27 10 64 43 05  01 1F 27 10 66 43 05 01  ...'.dC...'.fC..
1E30: 1B 52 30 80 F0 FF FF 7F  F0 FF FF 7F 61 73 32 36  .R0.........as26
1E40: 45 30 80 F0 FF FF 7F F0  FF FF 7F 61 73 32 37 00  E0.........as27.
1E50: 80 1C 34 80 27 10 65 43  05 01 1B 1C 37 80 52 30  ..4.'.eC....7.R0
1E60: 80 F0 FF FF 7F F0 FF FF  7F 61 73 32 37 45 30 80  .........as27E0.
1E70: F0 FF FF 7F F0 FF FF 7F  61 73 32 38 00 80 1C 06  ........as28....
1E80: 80 2B 65 43 05 01 19 81  23 2A 10 65 43 05 01 2A  .+eC....#*.eC..*
1E90: 10 64 43 05 01 52 30 80  F0 FF FF 7F F0 FF FF 7F  .dC..R0.........
1EA0: 61 73 32 38 45 30 80 F0  FF FF 7F F0 FF FF 7F 61  as28E0.........a
1EB0: 73 32 39 00 80 2B 64 43  05 01 1A 81 23 27 10 64  s29..+dC....#'.d
1EC0: 43 05 01 20 27 10 65 43  05 01 1C 27 10 66 43 05  C.. '.eC...'.fC.
1ED0: 01 1C 1C 2F 80 52 30 80  F0 FF FF 7F F0 FF FF 7F  .../.R0.........
1EE0: 61 73 32 39 45 30 80 F0  FF FF 7F F0 FF FF 7F 61  as29E0.........a
1EF0: 73 33 30 00 80 01 F8 1E  1C 31 80 1A 97 43 1C 06  s30......1...C..
1F00: 80 7A 00 64 43 05 01 7A  00 65 43 05 01 7A 00 66  .z.dC..z.eC..z.f
1F10: 43 05 01 52 30 80 F0 FF  FF 7F F0 FF FF 7F 6E 73  C..R0.........ns
1F20: 33 30 52 30 80 F0 FF FF  7F F0 FF FF 7F 72 73 33  30R0.........rs3
1F30: 30 52 30 80 F0 FF FF 7F  F0 FF FF 7F 61 73 33 30  0R0.........as30
1F40: 45 30 80 F0 FF FF 7F F0  FF FF 7F 30 62 6C 66 00  E0.........0blf.
1F50: 80 1C 06 80 1C 02 80 AB  0A 5C 00 09 81 5C 01 09  .........\...\..
1F60: 81 5C 02 1B 81 5C 03 32  80 9A 46 00 45 7A 80 F0  .\...\.2..F.Ez..
1F70: FF FF 7F F0 FF FF 7F 66  64 69 32 00 80 21 00     .......fdi2..!. 
```

#### Opcodes

```
  0: 0x0001 [0x42] SET_CLI_EVENT_CANCEL_DATA()
  1: 0x0002 [0x1A] CALL_SUBROUTINE(address=0x4397)
  2: 0x0005 [0x5D] SET_MUSIC_VOLUME(volume=0*, fade_time=300*)
  3: 0x000A [0x03] Work_Zone[1] = 1*
  4: 0x000F [0x43] SEND_EVENT_UPDATE: Send pending tag to server (packet 0x005B)
  5: 0x0011 [0x43] SEND_EVENT_UPDATE: Check pending flag (skip if not pending)
  6: 0x0013 [0x03] ExtData[1]->WorkLocal[0] = Work_Zone[2]
  7: 0x0018 [0x03] ExtData[1]->WorkLocal[1] = Work_Zone[9]
  8: 0x001D [0x46] CAMERA_CONTROL: Disable user control
  9: 0x001F [0x38] SET_CLIENT_EVENT_MODE(mode=19*)
 10: 0x0022 [0x4E] SET_ENTITY_HIDE_FLAG: Show LocalPlayer
 11: 0x0028 [0x02] IF !(ExtData[1]->WorkLocal[0] == 0*) GOTO 0x0033
 12: 0x0030 [0x34] LOAD_UNLOAD_ZONE(zone_id=84*)
 13: 0x0033 [0x77] SET_EVENT_TIME_WEATHER(hour=21*, weather=0*)
 14: 0x0038 [0x1C] WAIT(30* ticks)
 15: 0x003B [0xAB] EventEntity->UnknownFlag = 1 // Enable unknown flag
 16: 0x003D [0x27] REQ_SET(priority=0x10, entity_id=Carlisle (ID: 17122147/0x01054363), tag_num=0x04)
 17: 0x0044 [0x27] REQ_SET(priority=0x10, entity_id=Lysander (ID: 17122148/0x01054364), tag_num=0x04)
 18: 0x004B [0x27] REQ_SET(priority=0x10, entity_id=Unnamed NPC (ID: 17122151/0x01054367), tag_num=0x04)
 19: 0x0052 [0x27] REQ_SET(priority=0x10, entity_id=Unnamed NPC (ID: 17122152/0x01054368), tag_num=0x04)
 20: 0x0059 [0x27] REQ_SET(priority=0x10, entity_id=Unnamed NPC (ID: 17122153/0x01054369), tag_num=0x04)
 21: 0x0060 [0x27] REQ_SET(priority=0x10, entity_id=Unnamed NPC (ID: 17122154/0x0105436A), tag_num=0x04)
 22: 0x0067 [0x27] REQ_SET(priority=0x10, entity_id=Unnamed NPC (ID: 17122155/0x0105436B), tag_num=0x04)
 23: 0x006E [0x27] REQ_SET(priority=0x10, entity_id=Unnamed NPC (ID: 17122156/0x0105436C), tag_num=0x04)
 24: 0x0075 [0x27] REQ_SET(priority=0x10, entity_id=Unnamed NPC (ID: 17122157/0x0105436D), tag_num=0x04)
 25: 0x007C [0x27] REQ_SET(priority=0x10, entity_id=Unnamed NPC (ID: 17122158/0x0105436E), tag_num=0x04)
 26: 0x0083 [0x29] REQ_SET_WAIT(priority=0x10, entity_id=Carlisle (ID: 17122147/0x01054363), tag_num=0x09)
 27: 0x008A [0x29] REQ_SET_WAIT(priority=0x10, entity_id=Lysander (ID: 17122148/0x01054364), tag_num=0x09)
 28: 0x0091 [0x29] REQ_SET_WAIT(priority=0x10, entity_id=Unnamed NPC (ID: 17122153/0x01054369), tag_num=0x09)
 29: 0x0098 [0x29] REQ_SET_WAIT(priority=0x10, entity_id=Unnamed NPC (ID: 17122154/0x0105436A), tag_num=0x09)
 30: 0x009F [0x29] REQ_SET_WAIT(priority=0x10, entity_id=Unnamed NPC (ID: 17122155/0x0105436B), tag_num=0x09)
 31: 0x00A6 [0x29] REQ_SET_WAIT(priority=0x10, entity_id=Unnamed NPC (ID: 17122156/0x0105436C), tag_num=0x09)
 32: 0x00AD [0x29] REQ_SET_WAIT(priority=0x10, entity_id=Unnamed NPC (ID: 17122157/0x0105436D), tag_num=0x09)
 33: 0x00B4 [0x29] REQ_SET_WAIT(priority=0x10, entity_id=Unnamed NPC (ID: 17122158/0x0105436E), tag_num=0x09)
 34: 0x00BB [0x92] Carlisle (ID: 17122147/0x01054363)->Render.Flags3 ^= 0x01
 35: 0x00C1 [0x92] Lysander (ID: 17122148/0x01054364)->Render.Flags3 ^= 0x01
 36: 0x00C7 [0x92] Unnamed NPC (ID: 17122151/0x01054367)->Render.Flags3 ^= 0x01
 37: 0x00CD [0x92] Unnamed NPC (ID: 17122152/0x01054368)->Render.Flags3 ^= 0x01
 38: 0x00D3 [0x92] Unnamed NPC (ID: 17122153/0x01054369)->Render.Flags3 ^= 0x01
 39: 0x00D9 [0x92] Unnamed NPC (ID: 17122154/0x0105436A)->Render.Flags3 ^= 0x01
 40: 0x00DF [0x92] Unnamed NPC (ID: 17122155/0x0105436B)->Render.Flags3 ^= 0x01
 41: 0x00E5 [0x92] Unnamed NPC (ID: 17122156/0x0105436C)->Render.Flags3 ^= 0x01
 42: 0x00EB [0x92] Unnamed NPC (ID: 17122157/0x0105436D)->Render.Flags3 ^= 0x01
 43: 0x00F1 [0x92] Unnamed NPC (ID: 17122158/0x0105436E)->Render.Flags3 ^= 0x01
 44: 0x00F7 [0x94] Carlisle (ID: 17122147/0x01054363)->Render.Flags3 ^= 0x01
 45: 0x00FD [0x94] Lysander (ID: 17122148/0x01054364)->Render.Flags3 ^= 0x01
 46: 0x0103 [0x94] Unnamed NPC (ID: 17122151/0x01054367)->Render.Flags3 ^= 0x01
 47: 0x0109 [0x94] Unnamed NPC (ID: 17122152/0x01054368)->Render.Flags3 ^= 0x01
 48: 0x010F [0x94] Unnamed NPC (ID: 17122153/0x01054369)->Render.Flags3 ^= 0x01
 49: 0x0115 [0x94] Unnamed NPC (ID: 17122154/0x0105436A)->Render.Flags3 ^= 0x01
 50: 0x011B [0x94] Unnamed NPC (ID: 17122155/0x0105436B)->Render.Flags3 ^= 0x01
 51: 0x0121 [0x94] Unnamed NPC (ID: 17122156/0x0105436C)->Render.Flags3 ^= 0x01
 52: 0x0127 [0x94] Unnamed NPC (ID: 17122157/0x0105436D)->Render.Flags3 ^= 0x01
 53: 0x012D [0x94] Unnamed NPC (ID: 17122158/0x0105436E)->Render.Flags3 ^= 0x01
 54: 0x0133 [0xBA] SET_ENTITY_POSITION(entity_id=Carlisle (ID: 17122147/0x01054363), pos_x=261.856*, pos_z=43.657*, pos_y=9.924*, direction=237.7*)
 55: 0x0140 [0xBA] SET_ENTITY_POSITION(entity_id=Lysander (ID: 17122148/0x01054364), pos_x=264.590*, pos_z=42.237*, pos_y=9.330*, direction=243.3*)
 56: 0x014D [0xBA] SET_ENTITY_POSITION(entity_id=Unnamed NPC (ID: 17122151/0x01054367), pos_x=-190.663*, pos_z=-109.518*, pos_y=-25.526*, direction=219.6*)
 57: 0x015A [0xBA] SET_ENTITY_POSITION(entity_id=Unnamed NPC (ID: 17122152/0x01054368), pos_x=-191.848*, pos_z=-108.618*, pos_y=-25.485*, direction=4.6*)
 58: 0x0167 [0xBA] SET_ENTITY_POSITION(entity_id=Unnamed NPC (ID: 17122153/0x01054369), pos_x=-112.819*, pos_z=75.756*, pos_y=-7.608*, direction=23.0*)
 59: 0x0174 [0xBA] SET_ENTITY_POSITION(entity_id=Unnamed NPC (ID: 17122154/0x0105436A), pos_x=-114.451*, pos_z=78.241*, pos_y=-7.813*, direction=108.7*)
 60: 0x0181 [0xBA] SET_ENTITY_POSITION(entity_id=Unnamed NPC (ID: 17122155/0x0105436B), pos_x=-115.853*, pos_z=80.046*, pos_y=-8.000*, direction=21.6*)
 61: 0x018E [0xBA] SET_ENTITY_POSITION(entity_id=Unnamed NPC (ID: 17122156/0x0105436C), pos_x=-115.319*, pos_z=81.453*, pos_y=-7.921*, direction=151.6*)
 62: 0x019B [0xBA] SET_ENTITY_POSITION(entity_id=Unnamed NPC (ID: 17122157/0x0105436D), pos_x=-115.225*, pos_z=73.599*, pos_y=-7.790*, direction=171.2*)
 63: 0x01A8 [0xBA] SET_ENTITY_POSITION(entity_id=Unnamed NPC (ID: 17122158/0x0105436E), pos_x=-111.629*, pos_z=72.278*, pos_y=-7.459*, direction=249.1*)
 64: 0x01B5 [0x80] LOAD_WAIT(entity=Carlisle (ID: 17122147/0x01054363))
 65: 0x01BA [0x80] LOAD_WAIT(entity=Lysander (ID: 17122148/0x01054364))
 66: 0x01BF [0x80] LOAD_WAIT(entity=Unnamed NPC (ID: 17122151/0x01054367))
 67: 0x01C4 [0x80] LOAD_WAIT(entity=Unnamed NPC (ID: 17122152/0x01054368))
 68: 0x01C9 [0x80] LOAD_WAIT(entity=Unnamed NPC (ID: 17122153/0x01054369))
 69: 0x01CE [0x80] LOAD_WAIT(entity=Unnamed NPC (ID: 17122154/0x0105436A))
 70: 0x01D3 [0x80] LOAD_WAIT(entity=Unnamed NPC (ID: 17122155/0x0105436B))
 71: 0x01D8 [0x80] LOAD_WAIT(entity=Unnamed NPC (ID: 17122156/0x0105436C))
 72: 0x01DD [0x80] LOAD_WAIT(entity=Unnamed NPC (ID: 17122157/0x0105436D))
 73: 0x01E2 [0x80] LOAD_WAIT(entity=Unnamed NPC (ID: 17122158/0x0105436E))
 74: 0x01E7 [0x1C] WAIT(15* ticks)
 75: 0x01EA [0x45] LOAD_SCHEDULED_TASK: Load scheduler "m201" with entities [LocalPlayer, LocalPlayer], work=[379*, 0*]
 76: 0x01FB [0x1A] CALL_SUBROUTINE(address=0x4376)
 77: 0x01FE [0x1C] WAIT(120* ticks)
 78: 0x0201 [0x4A] Unnamed NPC (ID: 17122151/0x01054367) looks at Carlisle (ID: 17122147/0x01054363)
 79: 0x020A [0x4A] Unnamed NPC (ID: 17122152/0x01054368) looks at Lysander (ID: 17122148/0x01054364)
 80: 0x0213 [0x5C] MUSIC_CONTROL: Set Idle (Day) music to song 215*
 81: 0x0217 [0x5C] MUSIC_CONTROL: Set Idle (Night) music to song 215*
 82: 0x021B [0x9A] WAIT_MUSIC_SERVER()
 83: 0x021C [0x27] REQ_SET(priority=0x10, entity_id=Carlisle (ID: 17122147/0x01054363), tag_num=0x0D)
 84: 0x0223 [0x27] REQ_SET(priority=0x10, entity_id=Lysander (ID: 17122148/0x01054364), tag_num=0x21)
 85: 0x022A [0x4A] Unnamed NPC (ID: 17122151/0x01054367) looks at Carlisle (ID: 17122147/0x01054363)
 86: 0x0233 [0x1C] WAIT(30* ticks)
 87: 0x0236 [0x4A] Unnamed NPC (ID: 17122152/0x01054368) looks at Lysander (ID: 17122148/0x01054364)
 88: 0x023F [0x1C] WAIT(15* ticks)
 89: 0x0242 [0x52] END_LOAD_SCHEDULER: End scheduler "m201" with entities [LocalPlayer, LocalPlayer], work=379*
 90: 0x0251 [0x45] LOAD_SCHEDULED_TASK: Load scheduler "m210" with entities [LocalPlayer, LocalPlayer], work=[379*, 0*]
 91: 0x0262 [0x9F] LOAD_SCHEDULED_TASK_ALT: Load scheduler "str0" with entities [EventEntity, EventEntity], work=[127*, 0*]
 92: 0x0273 [0x1C] WAIT(60* ticks)
 93: 0x0276 [0x9F] LOAD_SCHEDULED_TASK_ALT: Load scheduler "kill" with entities [EventEntity, EventEntity], work=[127*, 0*]
 94: 0x0287 [0x1C] WAIT(120* ticks)
 95: 0x028A [0x52] END_LOAD_SCHEDULER: End scheduler "m210" with entities [LocalPlayer, LocalPlayer], work=379*
 96: 0x0299 [0x45] LOAD_SCHEDULED_TASK: Load scheduler "m211" with entities [LocalPlayer, LocalPlayer], work=[379*, 0*]
 97: 0x02AA [0x2B] Carlisle (ID: 17122147/0x01054363) [7811*]:
     "Lysander! This is a key location in Jeuno's defenses. Don't think you can take it easy when I'm not looking over your shoulder!"
 98: 0x02B1 [0x9F] LOAD_SCHEDULED_TASK_ALT: Load scheduler "str0" with entities [EventEntity, EventEntity], work=[127*, 0*]
 99: 0x02C2 [0x1C] WAIT(60* ticks)
100: 0x02C5 [0x9F] LOAD_SCHEDULED_TASK_ALT: Load scheduler "kill" with entities [EventEntity, EventEntity], work=[127*, 0*]
101: 0x02D6 [0x1C] WAIT(30* ticks)
102: 0x02D9 [0x52] END_LOAD_SCHEDULER: End scheduler "m211" with entities [LocalPlayer, LocalPlayer], work=379*
103: 0x02E8 [0x45] LOAD_SCHEDULED_TASK: Load scheduler "m213" with entities [LocalPlayer, LocalPlayer], work=[379*, 0*]
104: 0x02F9 [0x1C] WAIT(150* ticks)
105: 0x02FC [0x52] END_LOAD_SCHEDULER: End scheduler "m213" with entities [LocalPlayer, LocalPlayer], work=379*
106: 0x030B [0x45] LOAD_SCHEDULED_TASK: Load scheduler "m212" with entities [LocalPlayer, LocalPlayer], work=[379*, 0*]
107: 0x031C [0x1C] WAIT(30* ticks)
108: 0x031F [0x9F] LOAD_SCHEDULED_TASK_ALT: Load scheduler "str0" with entities [EventEntity, EventEntity], work=[127*, 0*]
109: 0x0330 [0x1C] WAIT(90* ticks)
110: 0x0333 [0x9F] LOAD_SCHEDULED_TASK_ALT: Load scheduler "kill" with entities [EventEntity, EventEntity], work=[127*, 0*]
111: 0x0344 [0x2B] Lysander (ID: 17122148/0x01054364) [7812*]:
     "Heh, why don't you go ahead and chase all those beastmen off for me, then?"
112: 0x034B [0x23] WAIT_FOR_DIALOG_INTERACTION
113: 0x034C [0x2A] GET_REQ_LEVEL(level=16, entity_id=Lysander (ID: 17122148/0x01054364))
114: 0x0352 [0x27] REQ_SET(priority=0x10, entity_id=Carlisle (ID: 17122147/0x01054363), tag_num=0x0B)
115: 0x0359 [0x27] REQ_SET(priority=0x10, entity_id=Lysander (ID: 17122148/0x01054364), tag_num=0x0B)
116: 0x0360 [0x1C] WAIT(45* ticks)
117: 0x0363 [0x52] END_LOAD_SCHEDULER: End scheduler "m212" with entities [LocalPlayer, LocalPlayer], work=379*
118: 0x0372 [0x45] LOAD_SCHEDULED_TASK: Load scheduler "m200" with entities [LocalPlayer, LocalPlayer], work=[379*, 0*]
119: 0x0383 [0x1C] WAIT(70* ticks)
120: 0x0386 [0x1C] WAIT(120* ticks)
121: 0x0389 [0x52] END_LOAD_SCHEDULER: End scheduler "m200" with entities [LocalPlayer, LocalPlayer], work=379*
122: 0x0398 [0x45] LOAD_SCHEDULED_TASK: Load scheduler "m202" with entities [LocalPlayer, LocalPlayer], work=[379*, 0*]
123: 0x03A9 [0x2B] Carlisle (ID: 17122147/0x01054363) [7813*]:
     "Hah! You make it sound a simple task! These are the fiends that bathed Windurst in blood, and crushed the Royal Knights of San d'Oria!"
124: 0x03B0 [0x1C] WAIT(120* ticks)
125: 0x03B3 [0x52] END_LOAD_SCHEDULER: End scheduler "m202" with entities [LocalPlayer, LocalPlayer], work=379*
126: 0x03C2 [0x45] LOAD_SCHEDULED_TASK: Load scheduler "m203" with entities [LocalPlayer, LocalPlayer], work=[379*, 0*]
127: 0x03D3 [0x1C] WAIT(30* ticks)
128: 0x03D6 [0x9F] LOAD_SCHEDULED_TASK_ALT: Load scheduler "str0" with entities [EventEntity, EventEntity], work=[127*, 0*]
129: 0x03E7 [0x1C] WAIT(90* ticks)
130: 0x03EA [0x9F] LOAD_SCHEDULED_TASK_ALT: Load scheduler "kill" with entities [EventEntity, EventEntity], work=[127*, 0*]
131: 0x03FB [0x2B] Lysander (ID: 17122148/0x01054364) [7814*]:
     "Don't whimper like a little girl, Carlisle!"
132: 0x0402 [0x1C] WAIT(30* ticks)
133: 0x0405 [0x52] END_LOAD_SCHEDULER: End scheduler "m203" with entities [LocalPlayer, LocalPlayer], work=379*
134: 0x0414 [0x45] LOAD_SCHEDULED_TASK: Load scheduler "m204" with entities [LocalPlayer, LocalPlayer], work=[379*, 0*]
135: 0x0425 [0x9F] LOAD_SCHEDULED_TASK_ALT: Load scheduler "str0" with entities [EventEntity, EventEntity], work=[127*, 0*]
136: 0x0436 [0x1C] WAIT(60* ticks)
137: 0x0439 [0x9F] LOAD_SCHEDULED_TASK_ALT: Load scheduler "kill" with entities [EventEntity, EventEntity], work=[127*, 0*]
138: 0x044A [0x1C] WAIT(30* ticks)
139: 0x044D [0x52] END_LOAD_SCHEDULER: End scheduler "m204" with entities [LocalPlayer, LocalPlayer], work=379*
140: 0x045C [0x45] LOAD_SCHEDULED_TASK: Load scheduler "m205" with entities [LocalPlayer, LocalPlayer], work=[379*, 0*]
141: 0x046D [0x1C] WAIT(20* ticks)
142: 0x0470 [0x9F] LOAD_SCHEDULED_TASK_ALT: Load scheduler "str0" with entities [EventEntity, EventEntity], work=[127*, 0*]
143: 0x0481 [0x1C] WAIT(40* ticks)
144: 0x0484 [0x9F] LOAD_SCHEDULED_TASK_ALT: Load scheduler "kill" with entities [EventEntity, EventEntity], work=[127*, 0*]
145: 0x0495 [0x1C] WAIT(90* ticks)
146: 0x0498 [0x27] REQ_SET(priority=0x10, entity_id=Unnamed NPC (ID: 17122153/0x01054369), tag_num=0x0B)
147: 0x049F [0x27] REQ_SET(priority=0x10, entity_id=Unnamed NPC (ID: 17122154/0x0105436A), tag_num=0x0B)
148: 0x04A6 [0x27] REQ_SET(priority=0x10, entity_id=Unnamed NPC (ID: 17122155/0x0105436B), tag_num=0x0B)
149: 0x04AD [0x27] REQ_SET(priority=0x10, entity_id=Unnamed NPC (ID: 17122156/0x0105436C), tag_num=0x0B)
150: 0x04B4 [0x27] REQ_SET(priority=0x10, entity_id=Unnamed NPC (ID: 17122157/0x0105436D), tag_num=0x0B)
151: 0x04BB [0x27] REQ_SET(priority=0x10, entity_id=Unnamed NPC (ID: 17122158/0x0105436E), tag_num=0x0B)
152: 0x04C2 [0x1C] WAIT(90* ticks)
153: 0x04C5 [0x52] END_LOAD_SCHEDULER: End scheduler "m205" with entities [LocalPlayer, LocalPlayer], work=379*
154: 0x04D4 [0x45] LOAD_SCHEDULED_TASK: Load scheduler "m206" with entities [LocalPlayer, LocalPlayer], work=[379*, 0*]
155: 0x04E5 [0x9F] LOAD_SCHEDULED_TASK_ALT: Load scheduler "str0" with entities [EventEntity, EventEntity], work=[127*, 0*]
156: 0x04F6 [0x2A] GET_REQ_LEVEL(level=16, entity_id=Lysander (ID: 17122148/0x01054364))
157: 0x04FC [0x9F] LOAD_SCHEDULED_TASK_ALT: Load scheduler "kill" with entities [EventEntity, EventEntity], work=[127*, 0*]
158: 0x050D [0x7A] VM_CONTROL: Reset VM for Unnamed NPC (ID: 17122153/0x01054369)
159: 0x0513 [0x7A] VM_CONTROL: Reset VM for Unnamed NPC (ID: 17122154/0x0105436A)
160: 0x0519 [0x7A] VM_CONTROL: Reset VM for Unnamed NPC (ID: 17122155/0x0105436B)
161: 0x051F [0x7A] VM_CONTROL: Reset VM for Unnamed NPC (ID: 17122156/0x0105436C)
162: 0x0525 [0x7A] VM_CONTROL: Reset VM for Unnamed NPC (ID: 17122157/0x0105436D)
163: 0x052B [0x7A] VM_CONTROL: Reset VM for Unnamed NPC (ID: 17122158/0x0105436E)
164: 0x0531 [0x1C] WAIT(60* ticks)
165: 0x0534 [0x52] END_LOAD_SCHEDULER: End scheduler "m206" with entities [LocalPlayer, LocalPlayer], work=379*
166: 0x0543 [0x45] LOAD_SCHEDULED_TASK: Load scheduler "m207" with entities [LocalPlayer, LocalPlayer], work=[379*, 0*]
167: 0x0554 [0xBA] SET_ENTITY_POSITION(entity_id=Unnamed NPC (ID: 17122151/0x01054367), pos_x=-190.494*, pos_z=-41.323*, pos_y=-38.773*, direction=296.6*)
168: 0x0561 [0xBA] SET_ENTITY_POSITION(entity_id=Unnamed NPC (ID: 17122152/0x01054368), pos_x=-189.220*, pos_z=-46.447*, pos_y=-37.715*, direction=264.5*)
169: 0x056E [0x2B] Lysander (ID: 17122148/0x01054364) [7815*]:
     "I have faith in your amazing luck on the battlefield!"
170: 0x0575 [0x23] WAIT_FOR_DIALOG_INTERACTION
171: 0x0576 [0x5D] SET_MUSIC_VOLUME(volume=0*, fade_time=300*)
172: 0x057B [0x27] REQ_SET(priority=0x10, entity_id=Carlisle (ID: 17122147/0x01054363), tag_num=0x0C)
173: 0x0582 [0x27] REQ_SET(priority=0x10, entity_id=Unnamed NPC (ID: 17122152/0x01054368), tag_num=0x09)
174: 0x0589 [0x27] REQ_SET(priority=0x10, entity_id=Unnamed NPC (ID: 17122153/0x01054369), tag_num=0x0B)
175: 0x0590 [0x27] REQ_SET(priority=0x10, entity_id=Unnamed NPC (ID: 17122154/0x0105436A), tag_num=0x0B)
176: 0x0597 [0x27] REQ_SET(priority=0x10, entity_id=Unnamed NPC (ID: 17122155/0x0105436B), tag_num=0x0B)
177: 0x059E [0x27] REQ_SET(priority=0x10, entity_id=Unnamed NPC (ID: 17122156/0x0105436C), tag_num=0x0B)
178: 0x05A5 [0x27] REQ_SET(priority=0x10, entity_id=Unnamed NPC (ID: 17122157/0x0105436D), tag_num=0x0B)
179: 0x05AC [0x27] REQ_SET(priority=0x10, entity_id=Unnamed NPC (ID: 17122158/0x0105436E), tag_num=0x0B)
180: 0x05B3 [0x52] END_LOAD_SCHEDULER: End scheduler "m207" with entities [LocalPlayer, LocalPlayer], work=379*
181: 0x05C2 [0x45] LOAD_SCHEDULED_TASK: Load scheduler "m208" with entities [LocalPlayer, LocalPlayer], work=[379*, 0*]
182: 0x05D3 [0x1C] WAIT(120* ticks)
183: 0x05D6 [0x1A] CALL_SUBROUTINE(address=0x4397)
184: 0x05D9 [0x1C] WAIT(30* ticks)
185: 0x05DC [0x7A] VM_CONTROL: Reset VM for Carlisle (ID: 17122147/0x01054363)
186: 0x05E2 [0x7A] VM_CONTROL: Reset VM for Unnamed NPC (ID: 17122153/0x01054369)
187: 0x05E8 [0x7A] VM_CONTROL: Reset VM for Unnamed NPC (ID: 17122154/0x0105436A)
188: 0x05EE [0x7A] VM_CONTROL: Reset VM for Unnamed NPC (ID: 17122155/0x0105436B)
189: 0x05F4 [0x7A] VM_CONTROL: Reset VM for Unnamed NPC (ID: 17122156/0x0105436C)
190: 0x05FA [0x7A] VM_CONTROL: Reset VM for Unnamed NPC (ID: 17122157/0x0105436D)
191: 0x0600 [0x7A] VM_CONTROL: Reset VM for Unnamed NPC (ID: 17122158/0x0105436E)
192: 0x0606 [0x1C] WAIT(15* ticks)
193: 0x0609 [0x29] REQ_SET_WAIT(priority=0x10, entity_id=Carlisle (ID: 17122147/0x01054363), tag_num=0x0A)
194: 0x0610 [0x29] REQ_SET_WAIT(priority=0x10, entity_id=Lysander (ID: 17122148/0x01054364), tag_num=0x0A)
195: 0x0617 [0x29] REQ_SET_WAIT(priority=0x10, entity_id=Unnamed NPC (ID: 17122153/0x01054369), tag_num=0x0A)
196: 0x061E [0x29] REQ_SET_WAIT(priority=0x10, entity_id=Unnamed NPC (ID: 17122154/0x0105436A), tag_num=0x0A)
197: 0x0625 [0x29] REQ_SET_WAIT(priority=0x10, entity_id=Unnamed NPC (ID: 17122155/0x0105436B), tag_num=0x0A)
198: 0x062C [0x29] REQ_SET_WAIT(priority=0x10, entity_id=Unnamed NPC (ID: 17122156/0x0105436C), tag_num=0x0A)
199: 0x0633 [0x29] REQ_SET_WAIT(priority=0x10, entity_id=Unnamed NPC (ID: 17122157/0x0105436D), tag_num=0x0A)
200: 0x063A [0x29] REQ_SET_WAIT(priority=0x10, entity_id=Unnamed NPC (ID: 17122158/0x0105436E), tag_num=0x0A)
201: 0x0641 [0x1C] WAIT(15* ticks)
202: 0x0644 [0x02] IF !(ExtData[1]->WorkLocal[0] == 1*) GOTO 0x0652
203: 0x064C [0x35] LOAD_ZONE_NO_CLOSE(zone_id=91*)
204: 0x064F [0x01] GOTO 0x0660
205: 0x0652 [0x02] IF !(ExtData[1]->WorkLocal[0] == 2*) GOTO 0x0660
206: 0x065A [0x35] LOAD_ZONE_NO_CLOSE(zone_id=98*)
207: 0x065D [0x01] GOTO 0x0660

SUBROUTINE_0660:
208: 0x0660 [0x78] ENABLE_GAME_TIMER_RESET_WEATHER()
209: 0x0661 [0x4E] SET_ENTITY_HIDE_FLAG: Hide Carlisle (ID: 17122147/0x01054363)
210: 0x0667 [0x4E] SET_ENTITY_HIDE_FLAG: Hide Unnamed NPC (ID: 17122153/0x01054369)
211: 0x066D [0x4E] SET_ENTITY_HIDE_FLAG: Hide Unnamed NPC (ID: 17122154/0x0105436A)
212: 0x0673 [0x4E] SET_ENTITY_HIDE_FLAG: Hide Unnamed NPC (ID: 17122155/0x0105436B)
213: 0x0679 [0x4E] SET_ENTITY_HIDE_FLAG: Hide Unnamed NPC (ID: 17122156/0x0105436C)
214: 0x067F [0x4E] SET_ENTITY_HIDE_FLAG: Hide Unnamed NPC (ID: 17122157/0x0105436D)
215: 0x0685 [0x4E] SET_ENTITY_HIDE_FLAG: Hide Unnamed NPC (ID: 17122158/0x0105436E)
216: 0x068B [0x27] REQ_SET(priority=0x10, entity_id=Lysander (ID: 17122148/0x01054364), tag_num=0x04)
217: 0x0692 [0x27] REQ_SET(priority=0x10, entity_id=Barnabas (ID: 17122149/0x01054365), tag_num=0x04)
218: 0x0699 [0x27] REQ_SET(priority=0x10, entity_id=Alystair (ID: 17122150/0x01054366), tag_num=0x04)
219: 0x06A0 [0x27] REQ_SET(priority=0x10, entity_id=Lysander (ID: 17122148/0x01054364), tag_num=0x09)
220: 0x06A7 [0x27] REQ_SET(priority=0x10, entity_id=Barnabas (ID: 17122149/0x01054365), tag_num=0x09)
221: 0x06AE [0x27] REQ_SET(priority=0x10, entity_id=Alystair (ID: 17122150/0x01054366), tag_num=0x09)
222: 0x06B5 [0x92] Cavernous Maw (ID: 17122133/0x01054355)->Render.Flags3 ^= 0x01
223: 0x06BB [0x92] Lysander (ID: 17122148/0x01054364)->Render.Flags3 ^= 0x01
224: 0x06C1 [0x92] Barnabas (ID: 17122149/0x01054365)->Render.Flags3 ^= 0x01
225: 0x06C7 [0x92] Alystair (ID: 17122150/0x01054366)->Render.Flags3 ^= 0x01
226: 0x06CD [0x94] LocalPlayer->Render.Flags3 ^= 0x01
227: 0x06D3 [0x94] Cavernous Maw (ID: 17122133/0x01054355)->Render.Flags3 ^= 0x01
228: 0x06D9 [0x94] Lysander (ID: 17122148/0x01054364)->Render.Flags3 ^= 0x01
229: 0x06DF [0x94] Barnabas (ID: 17122149/0x01054365)->Render.Flags3 ^= 0x01
230: 0x06E5 [0x94] Alystair (ID: 17122150/0x01054366)->Render.Flags3 ^= 0x01
231: 0x06EB [0x02] IF !(ExtData[1]->WorkLocal[0] == 0*) GOTO 0x072A
232: 0x06F3 [0xBA] SET_ENTITY_POSITION(entity_id=LocalPlayer, pos_x=-48.064*, pos_z=439.994*, pos_y=0.201*, direction=237.6*)
233: 0x0700 [0xBA] SET_ENTITY_POSITION(entity_id=Lysander (ID: 17122148/0x01054364), pos_x=-39.982*, pos_z=381.891*, pos_y=0.904*, direction=263.8*)
234: 0x070D [0xBA] SET_ENTITY_POSITION(entity_id=Barnabas (ID: 17122149/0x01054365), pos_x=-38.432*, pos_z=384.122*, pos_y=0.784*, direction=269.1*)
235: 0x071A [0xBA] SET_ENTITY_POSITION(entity_id=Alystair (ID: 17122150/0x01054366), pos_x=-41.973*, pos_z=383.420*, pos_y=0.828*, direction=271.5*)
236: 0x0727 [0x01] GOTO 0x07A8
237: 0x072A [0x02] IF !(ExtData[1]->WorkLocal[0] == 1*) GOTO 0x0769
238: 0x0732 [0xBA] SET_ENTITY_POSITION(entity_id=LocalPlayer, pos_x=-202.059*, pos_z=363.496*, pos_y=7.999*, direction=227.1*)
239: 0x073F [0xBA] SET_ENTITY_POSITION(entity_id=Lysander (ID: 17122148/0x01054364), pos_x=-155.863*, pos_z=356.054*, pos_y=7.998*, direction=186.0*)
240: 0x074C [0xBA] SET_ENTITY_POSITION(entity_id=Barnabas (ID: 17122149/0x01054365), pos_x=-158.339*, pos_z=358.225*, pos_y=7.999*, direction=184.4*)
241: 0x0759 [0xBA] SET_ENTITY_POSITION(entity_id=Alystair (ID: 17122150/0x01054366), pos_x=-157.859*, pos_z=354.529*, pos_y=8.072*, direction=180.7*)
242: 0x0766 [0x01] GOTO 0x07A8
243: 0x0769 [0x02] IF !(ExtData[1]->WorkLocal[0] == 2*) GOTO 0x07A8
244: 0x0771 [0xBA] SET_ENTITY_POSITION(entity_id=LocalPlayer, pos_x=384.508*, pos_z=-208.968*, pos_y=16.337*, direction=286.7*)
245: 0x077E [0xBA] SET_ENTITY_POSITION(entity_id=Lysander (ID: 17122148/0x01054364), pos_x=418.490*, pos_z=-204.007*, pos_y=18.055*, direction=149.5*)
246: 0x078B [0xBA] SET_ENTITY_POSITION(entity_id=Barnabas (ID: 17122149/0x01054365), pos_x=416.662*, pos_z=-203.531*, pos_y=17.646*, direction=149.5*)
247: 0x0798 [0xBA] SET_ENTITY_POSITION(entity_id=Alystair (ID: 17122150/0x01054366), pos_x=418.480*, pos_z=-206.391*, pos_y=17.942*, direction=151.8*)
248: 0x07A5 [0x01] GOTO 0x07A8

SUBROUTINE_07A8:
249: 0x07A8 [0x80] LOAD_WAIT(entity=LocalPlayer)
250: 0x07AD [0x80] LOAD_WAIT(entity=Cavernous Maw (ID: 17122133/0x01054355))
251: 0x07B2 [0x80] LOAD_WAIT(entity=Lysander (ID: 17122148/0x01054364))
252: 0x07B7 [0x80] LOAD_WAIT(entity=Barnabas (ID: 17122149/0x01054365))
253: 0x07BC [0x80] LOAD_WAIT(entity=Alystair (ID: 17122150/0x01054366))
254: 0x07C1 [0x2C] CREATE_SCHEDULER_TASK: Create scheduler "corp" with entities [LocalPlayer, LocalPlayer]
255: 0x07CE [0x48] [System] [7904*]:
     "@@"
256: 0x07D1 [0x23] WAIT_FOR_DIALOG_INTERACTION
257: 0x07D2 [0x1C] WAIT(15* ticks)
258: 0x07D5 [0x02] IF !(ExtData[1]->WorkLocal[0] == 0*) GOTO 0x07F1
259: 0x07DD [0x45] LOAD_SCHEDULED_TASK: Load scheduler "ns00" with entities [LocalPlayer, LocalPlayer], work=[379*, 0*]
260: 0x07EE [0x01] GOTO 0x0829
261: 0x07F1 [0x02] IF !(ExtData[1]->WorkLocal[0] == 1*) GOTO 0x080D
262: 0x07F9 [0x45] LOAD_SCHEDULED_TASK: Load scheduler "rs00" with entities [LocalPlayer, LocalPlayer], work=[379*, 0*]
263: 0x080A [0x01] GOTO 0x0829
264: 0x080D [0x02] IF !(ExtData[1]->WorkLocal[0] == 2*) GOTO 0x0829
265: 0x0815 [0x45] LOAD_SCHEDULED_TASK: Load scheduler "as00" with entities [LocalPlayer, LocalPlayer], work=[379*, 0*]
266: 0x0826 [0x01] GOTO 0x0829

SUBROUTINE_0829:
267: 0x0829 [0x45] LOAD_SCHEDULED_TASK: Load scheduler "fdi2" with entities [EventEntity, EventEntity], work=[200*, 0*]
268: 0x083A [0x02] IF !(ExtData[1]->WorkLocal[0] == 0*) GOTO 0x088B
269: 0x0842 [0x55] WAIT_LOAD_SCHEDULER: Wait for scheduler "ns00" with entities [LocalPlayer, LocalPlayer], work=379*
270: 0x0851 [0x45] LOAD_SCHEDULED_TASK: Load scheduler "ns01" with entities [LocalPlayer, LocalPlayer], work=[379*, 0*]
271: 0x0862 [0x9F] LOAD_SCHEDULED_TASK_ALT: Load scheduler "str0" with entities [EventEntity, EventEntity], work=[127*, 0*]
272: 0x0873 [0x27] REQ_SET(priority=0x10, entity_id=Barnabas (ID: 17122149/0x01054365), tag_num=0x0B)
273: 0x087A [0x27] REQ_SET(priority=0x10, entity_id=Alystair (ID: 17122150/0x01054366), tag_num=0x0B)
274: 0x0881 [0x27] REQ_SET(priority=0x10, entity_id=Lysander (ID: 17122148/0x01054364), tag_num=0x0C)
275: 0x0888 [0x01] GOTO 0x092D
276: 0x088B [0x02] IF !(ExtData[1]->WorkLocal[0] == 1*) GOTO 0x08DC
277: 0x0893 [0x55] WAIT_LOAD_SCHEDULER: Wait for scheduler "rs00" with entities [LocalPlayer, LocalPlayer], work=379*
278: 0x08A2 [0x45] LOAD_SCHEDULED_TASK: Load scheduler "rs01" with entities [LocalPlayer, LocalPlayer], work=[379*, 0*]
279: 0x08B3 [0x9F] LOAD_SCHEDULED_TASK_ALT: Load scheduler "str0" with entities [EventEntity, EventEntity], work=[127*, 0*]
280: 0x08C4 [0x27] REQ_SET(priority=0x10, entity_id=Barnabas (ID: 17122149/0x01054365), tag_num=0x11)
281: 0x08CB [0x27] REQ_SET(priority=0x10, entity_id=Alystair (ID: 17122150/0x01054366), tag_num=0x11)
282: 0x08D2 [0x27] REQ_SET(priority=0x10, entity_id=Lysander (ID: 17122148/0x01054364), tag_num=0x13)
283: 0x08D9 [0x01] GOTO 0x092D
284: 0x08DC [0x02] IF !(ExtData[1]->WorkLocal[0] == 2*) GOTO 0x092D
285: 0x08E4 [0x55] WAIT_LOAD_SCHEDULER: Wait for scheduler "as00" with entities [LocalPlayer, LocalPlayer], work=379*
286: 0x08F3 [0x45] LOAD_SCHEDULED_TASK: Load scheduler "as01" with entities [LocalPlayer, LocalPlayer], work=[379*, 0*]
287: 0x0904 [0x9F] LOAD_SCHEDULED_TASK_ALT: Load scheduler "str0" with entities [EventEntity, EventEntity], work=[127*, 0*]
288: 0x0915 [0x27] REQ_SET(priority=0x10, entity_id=Barnabas (ID: 17122149/0x01054365), tag_num=0x17)
289: 0x091C [0x27] REQ_SET(priority=0x10, entity_id=Alystair (ID: 17122150/0x01054366), tag_num=0x17)
290: 0x0923 [0x27] REQ_SET(priority=0x10, entity_id=Lysander (ID: 17122148/0x01054364), tag_num=0x1A)
291: 0x092A [0x01] GOTO 0x092D

SUBROUTINE_092D:
292: 0x092D [0x1C] WAIT(120* ticks)
293: 0x0930 [0x2B] Barnabas (ID: 17122149/0x01054365) [7816*]:
     "Captain Lysander! Look! Another of those monstrosities...!"
294: 0x0937 [0x1C] WAIT(60* ticks)
295: 0x093A [0x9F] LOAD_SCHEDULED_TASK_ALT: Load scheduler "kill" with entities [EventEntity, EventEntity], work=[127*, 0*]
296: 0x094B [0x1C] WAIT(60* ticks)
297: 0x094E [0x02] IF !(ExtData[1]->WorkLocal[0] == 0*) GOTO 0x0979
298: 0x0956 [0x52] END_LOAD_SCHEDULER: End scheduler "ns01" with entities [LocalPlayer, LocalPlayer], work=379*
299: 0x0965 [0x45] LOAD_SCHEDULED_TASK: Load scheduler "ns04" with entities [LocalPlayer, LocalPlayer], work=[379*, 0*]
300: 0x0976 [0x01] GOTO 0x09CF
301: 0x0979 [0x02] IF !(ExtData[1]->WorkLocal[0] == 1*) GOTO 0x09A4
302: 0x0981 [0x52] END_LOAD_SCHEDULER: End scheduler "rs01" with entities [LocalPlayer, LocalPlayer], work=379*
303: 0x0990 [0x45] LOAD_SCHEDULED_TASK: Load scheduler "rs04" with entities [LocalPlayer, LocalPlayer], work=[379*, 0*]
304: 0x09A1 [0x01] GOTO 0x09CF
305: 0x09A4 [0x02] IF !(ExtData[1]->WorkLocal[0] == 2*) GOTO 0x09CF
306: 0x09AC [0x52] END_LOAD_SCHEDULER: End scheduler "as01" with entities [LocalPlayer, LocalPlayer], work=379*
307: 0x09BB [0x45] LOAD_SCHEDULED_TASK: Load scheduler "as04" with entities [LocalPlayer, LocalPlayer], work=[379*, 0*]
308: 0x09CC [0x01] GOTO 0x09CF

SUBROUTINE_09CF:
309: 0x09CF [0x2A] GET_REQ_LEVEL(level=16, entity_id=Lysander (ID: 17122148/0x01054364))
310: 0x09D5 [0x03] Work_Zone[2] = ExtData[1]->WorkLocal[0]
311: 0x09DA [0x2B] Lysander (ID: 17122148/0x01054364) [7817*]:
     "So, we have a maw in [Batallia Downs/the Rolanberry Fields/Sauromugue Champaign] now, too..."
312: 0x09E1 [0x23] WAIT_FOR_DIALOG_INTERACTION
313: 0x09E2 [0x5C] MUSIC_CONTROL: Set Idle (Day) music to song 247*
314: 0x09E6 [0x5C] MUSIC_CONTROL: Set Idle (Night) music to song 247*
315: 0x09EA [0x9A] WAIT_MUSIC_SERVER()
316: 0x09EB [0x02] IF !(ExtData[1]->WorkLocal[0] == 0*) GOTO 0x0A5C
317: 0x09F3 [0x52] END_LOAD_SCHEDULER: End scheduler "ns04" with entities [LocalPlayer, LocalPlayer], work=379*
318: 0x0A02 [0x45] LOAD_SCHEDULED_TASK: Load scheduler "ns05" with entities [LocalPlayer, LocalPlayer], work=[379*, 0*]
319: 0x0A13 [0x1C] WAIT(120* ticks)
320: 0x0A16 [0x52] END_LOAD_SCHEDULER: End scheduler "ns05" with entities [LocalPlayer, LocalPlayer], work=379*
321: 0x0A25 [0x45] LOAD_SCHEDULED_TASK: Load scheduler "ns06" with entities [LocalPlayer, LocalPlayer], work=[379*, 0*]
322: 0x0A36 [0x1C] WAIT(120* ticks)
323: 0x0A39 [0x52] END_LOAD_SCHEDULER: End scheduler "ns06" with entities [LocalPlayer, LocalPlayer], work=379*
324: 0x0A48 [0x45] LOAD_SCHEDULED_TASK: Load scheduler "ns07" with entities [LocalPlayer, LocalPlayer], work=[379*, 0*]
325: 0x0A59 [0x01] GOTO 0x0B3E
326: 0x0A5C [0x02] IF !(ExtData[1]->WorkLocal[0] == 1*) GOTO 0x0ACD
327: 0x0A64 [0x52] END_LOAD_SCHEDULER: End scheduler "rs04" with entities [LocalPlayer, LocalPlayer], work=379*
328: 0x0A73 [0x45] LOAD_SCHEDULED_TASK: Load scheduler "rs05" with entities [LocalPlayer, LocalPlayer], work=[379*, 0*]
329: 0x0A84 [0x1C] WAIT(120* ticks)
330: 0x0A87 [0x52] END_LOAD_SCHEDULER: End scheduler "rs05" with entities [LocalPlayer, LocalPlayer], work=379*
331: 0x0A96 [0x45] LOAD_SCHEDULED_TASK: Load scheduler "rs06" with entities [LocalPlayer, LocalPlayer], work=[379*, 0*]
332: 0x0AA7 [0x1C] WAIT(120* ticks)
333: 0x0AAA [0x52] END_LOAD_SCHEDULER: End scheduler "rs06" with entities [LocalPlayer, LocalPlayer], work=379*
334: 0x0AB9 [0x45] LOAD_SCHEDULED_TASK: Load scheduler "rs07" with entities [LocalPlayer, LocalPlayer], work=[379*, 0*]
335: 0x0ACA [0x01] GOTO 0x0B3E
336: 0x0ACD [0x02] IF !(ExtData[1]->WorkLocal[0] == 2*) GOTO 0x0B3E
337: 0x0AD5 [0x52] END_LOAD_SCHEDULER: End scheduler "as04" with entities [LocalPlayer, LocalPlayer], work=379*
338: 0x0AE4 [0x45] LOAD_SCHEDULED_TASK: Load scheduler "as05" with entities [LocalPlayer, LocalPlayer], work=[379*, 0*]
339: 0x0AF5 [0x1C] WAIT(120* ticks)
340: 0x0AF8 [0x52] END_LOAD_SCHEDULER: End scheduler "as05" with entities [LocalPlayer, LocalPlayer], work=379*
341: 0x0B07 [0x45] LOAD_SCHEDULED_TASK: Load scheduler "as06" with entities [LocalPlayer, LocalPlayer], work=[379*, 0*]
342: 0x0B18 [0x1C] WAIT(120* ticks)
343: 0x0B1B [0x52] END_LOAD_SCHEDULER: End scheduler "as06" with entities [LocalPlayer, LocalPlayer], work=379*
344: 0x0B2A [0x45] LOAD_SCHEDULED_TASK: Load scheduler "as07" with entities [LocalPlayer, LocalPlayer], work=[379*, 0*]
345: 0x0B3B [0x01] GOTO 0x0B3E

SUBROUTINE_0B3E:
346: 0x0B3E [0x2B] Lysander (ID: 17122148/0x01054364) [7818*]:
     "How many of these things do we have confirmed?"
347: 0x0B45 [0x23] WAIT_FOR_DIALOG_INTERACTION
348: 0x0B46 [0x02] IF !(ExtData[1]->WorkLocal[0] == 0*) GOTO 0x0B80
349: 0x0B4E [0x52] END_LOAD_SCHEDULER: End scheduler "ns07" with entities [LocalPlayer, LocalPlayer], work=379*
350: 0x0B5D [0x45] LOAD_SCHEDULED_TASK: Load scheduler "ns08" with entities [LocalPlayer, LocalPlayer], work=[379*, 0*]
351: 0x0B6E [0x03] Work_Zone[2] = 0*
352: 0x0B73 [0x03] Work_Zone[3] = 1*
353: 0x0B78 [0x03] Work_Zone[4] = 2*
354: 0x0B7D [0x01] GOTO 0x0BF4
355: 0x0B80 [0x02] IF !(ExtData[1]->WorkLocal[0] == 1*) GOTO 0x0BBA
356: 0x0B88 [0x52] END_LOAD_SCHEDULER: End scheduler "rs07" with entities [LocalPlayer, LocalPlayer], work=379*
357: 0x0B97 [0x45] LOAD_SCHEDULED_TASK: Load scheduler "rs08" with entities [LocalPlayer, LocalPlayer], work=[379*, 0*]
358: 0x0BA8 [0x03] Work_Zone[2] = 1*
359: 0x0BAD [0x03] Work_Zone[3] = 2*
360: 0x0BB2 [0x03] Work_Zone[4] = 0*
361: 0x0BB7 [0x01] GOTO 0x0BF4
362: 0x0BBA [0x02] IF !(ExtData[1]->WorkLocal[0] == 2*) GOTO 0x0BF4
363: 0x0BC2 [0x52] END_LOAD_SCHEDULER: End scheduler "as07" with entities [LocalPlayer, LocalPlayer], work=379*
364: 0x0BD1 [0x45] LOAD_SCHEDULED_TASK: Load scheduler "as08" with entities [LocalPlayer, LocalPlayer], work=[379*, 0*]
365: 0x0BE2 [0x03] Work_Zone[2] = 2*
366: 0x0BE7 [0x03] Work_Zone[3] = 0*
367: 0x0BEC [0x03] Work_Zone[4] = 1*
368: 0x0BF1 [0x01] GOTO 0x0BF4

SUBROUTINE_0BF4:
369: 0x0BF4 [0x2B] Alystair (ID: 17122150/0x01054366) [7819*]:
     "Well, sir, there's one in [Batallia Downs/the Rolanberry Fields/Sauromugue Champaign], one in [Batallia Downs/the Rolanberry Fields/Sauromugue Champaign], and now this one in [Batallia Downs/the Rolanberry Fields/Sauromugue Champaign]..."
370: 0x0BFB [0x23] WAIT_FOR_DIALOG_INTERACTION
371: 0x0BFC [0x02] IF !(ExtData[1]->WorkLocal[0] == 0*) GOTO 0x0C27
372: 0x0C04 [0x52] END_LOAD_SCHEDULER: End scheduler "ns08" with entities [LocalPlayer, LocalPlayer], work=379*
373: 0x0C13 [0x45] LOAD_SCHEDULED_TASK: Load scheduler "ns09" with entities [LocalPlayer, LocalPlayer], work=[379*, 0*]
374: 0x0C24 [0x01] GOTO 0x0C7D
375: 0x0C27 [0x02] IF !(ExtData[1]->WorkLocal[0] == 1*) GOTO 0x0C52
376: 0x0C2F [0x52] END_LOAD_SCHEDULER: End scheduler "rs08" with entities [LocalPlayer, LocalPlayer], work=379*
377: 0x0C3E [0x45] LOAD_SCHEDULED_TASK: Load scheduler "rs09" with entities [LocalPlayer, LocalPlayer], work=[379*, 0*]
378: 0x0C4F [0x01] GOTO 0x0C7D
379: 0x0C52 [0x02] IF !(ExtData[1]->WorkLocal[0] == 2*) GOTO 0x0C7D
380: 0x0C5A [0x52] END_LOAD_SCHEDULER: End scheduler "as08" with entities [LocalPlayer, LocalPlayer], work=379*
381: 0x0C69 [0x45] LOAD_SCHEDULED_TASK: Load scheduler "as09" with entities [LocalPlayer, LocalPlayer], work=[379*, 0*]
382: 0x0C7A [0x01] GOTO 0x0C7D

SUBROUTINE_0C7D:
383: 0x0C7D [0x79] Barnabas (ID: 17122149/0x01054365) looks at Lysander (ID: 17122148/0x01054364) (Basic look)
384: 0x0C87 [0x1C] WAIT(20* ticks)
385: 0x0C8A [0x2B] Barnabas (ID: 17122149/0x01054365) [7820*]:
     "Alystair. Aren't you forgetting the reports from our allies?"
386: 0x0C91 [0x23] WAIT_FOR_DIALOG_INTERACTION
387: 0x0C92 [0x79] Alystair (ID: 17122150/0x01054366) looks at Barnabas (ID: 17122149/0x01054365) (Basic look)
388: 0x0C9C [0x2B] Alystair (ID: 17122150/0x01054366) [7821*]:
     "Ah, you're quite correct, sir!"
389: 0x0CA3 [0x23] WAIT_FOR_DIALOG_INTERACTION
390: 0x0CA4 [0x02] IF !(ExtData[1]->WorkLocal[0] == 0*) GOTO 0x0CCF
391: 0x0CAC [0x52] END_LOAD_SCHEDULER: End scheduler "ns09" with entities [LocalPlayer, LocalPlayer], work=379*
392: 0x0CBB [0x45] LOAD_SCHEDULED_TASK: Load scheduler "ns10" with entities [LocalPlayer, LocalPlayer], work=[379*, 0*]
393: 0x0CCC [0x01] GOTO 0x0D25
394: 0x0CCF [0x02] IF !(ExtData[1]->WorkLocal[0] == 1*) GOTO 0x0CFA
395: 0x0CD7 [0x52] END_LOAD_SCHEDULER: End scheduler "rs09" with entities [LocalPlayer, LocalPlayer], work=379*
396: 0x0CE6 [0x45] LOAD_SCHEDULED_TASK: Load scheduler "rs10" with entities [LocalPlayer, LocalPlayer], work=[379*, 0*]
397: 0x0CF7 [0x01] GOTO 0x0D25
398: 0x0CFA [0x02] IF !(ExtData[1]->WorkLocal[0] == 2*) GOTO 0x0D25
399: 0x0D02 [0x52] END_LOAD_SCHEDULER: End scheduler "as09" with entities [LocalPlayer, LocalPlayer], work=379*
400: 0x0D11 [0x45] LOAD_SCHEDULED_TASK: Load scheduler "as10" with entities [LocalPlayer, LocalPlayer], work=[379*, 0*]
401: 0x0D22 [0x01] GOTO 0x0D25

SUBROUTINE_0D25:
402: 0x0D25 [0x7B] Alystair (ID: 17122150/0x01054366) stops talking
403: 0x0D2A [0x2B] Alystair (ID: 17122150/0x01054366) [7822*]:
     "Including the three Jeuno has confirmed, there have been nine maws discovered in total, sir."
404: 0x0D31 [0x23] WAIT_FOR_DIALOG_INTERACTION
405: 0x0D32 [0x7B] Barnabas (ID: 17122149/0x01054365) stops talking
406: 0x0D37 [0x1C] WAIT(20* ticks)
407: 0x0D3A [0x2B] Barnabas (ID: 17122149/0x01054365) [7823*]:
     "Hahaha. You needn't be so formal, son. This isn't the parade ground."
408: 0x0D41 [0x23] WAIT_FOR_DIALOG_INTERACTION
409: 0x0D42 [0x02] IF !(ExtData[1]->WorkLocal[0] == 0*) GOTO 0x0DDB
410: 0x0D4A [0x27] REQ_SET(priority=0x10, entity_id=Lysander (ID: 17122148/0x01054364), tag_num=0x0D)
411: 0x0D51 [0x27] REQ_SET(priority=0x10, entity_id=Alystair (ID: 17122150/0x01054366), tag_num=0x0C)
412: 0x0D58 [0x27] REQ_SET(priority=0x10, entity_id=Barnabas (ID: 17122149/0x01054365), tag_num=0x0C)
413: 0x0D5F [0x1C] WAIT(15* ticks)
414: 0x0D62 [0x52] END_LOAD_SCHEDULER: End scheduler "ns10" with entities [LocalPlayer, LocalPlayer], work=379*
415: 0x0D71 [0x45] LOAD_SCHEDULED_TASK: Load scheduler "ns11" with entities [LocalPlayer, LocalPlayer], work=[379*, 0*]
416: 0x0D82 [0x1C] WAIT(120* ticks)
417: 0x0D85 [0x2B] Lysander (ID: 17122148/0x01054364) [7824*]:
     "Still, that's not a small amount, even if they are spread over two continents..."
418: 0x0D8C [0x1C] WAIT(60* ticks)
419: 0x0D8F [0x52] END_LOAD_SCHEDULER: End scheduler "ns11" with entities [LocalPlayer, LocalPlayer], work=379*
420: 0x0D9E [0x45] LOAD_SCHEDULED_TASK: Load scheduler "ns12" with entities [LocalPlayer, LocalPlayer], work=[379*, 0*]
421: 0x0DAF [0x2A] GET_REQ_LEVEL(level=16, entity_id=Lysander (ID: 17122148/0x01054364))
422: 0x0DB5 [0x1C] WAIT(120* ticks)
423: 0x0DB8 [0x52] END_LOAD_SCHEDULER: End scheduler "ns12" with entities [LocalPlayer, LocalPlayer], work=379*
424: 0x0DC7 [0x45] LOAD_SCHEDULED_TASK: Load scheduler "ns13" with entities [LocalPlayer, LocalPlayer], work=[379*, 0*]
425: 0x0DD8 [0x01] GOTO 0x0F0D
426: 0x0DDB [0x02] IF !(ExtData[1]->WorkLocal[0] == 1*) GOTO 0x0E74
427: 0x0DE3 [0x27] REQ_SET(priority=0x10, entity_id=Lysander (ID: 17122148/0x01054364), tag_num=0x14)
428: 0x0DEA [0x27] REQ_SET(priority=0x10, entity_id=Alystair (ID: 17122150/0x01054366), tag_num=0x12)
429: 0x0DF1 [0x27] REQ_SET(priority=0x10, entity_id=Barnabas (ID: 17122149/0x01054365), tag_num=0x12)
430: 0x0DF8 [0x1C] WAIT(15* ticks)
431: 0x0DFB [0x52] END_LOAD_SCHEDULER: End scheduler "rs10" with entities [LocalPlayer, LocalPlayer], work=379*
432: 0x0E0A [0x45] LOAD_SCHEDULED_TASK: Load scheduler "rs11" with entities [LocalPlayer, LocalPlayer], work=[379*, 0*]
433: 0x0E1B [0x1C] WAIT(60* ticks)
434: 0x0E1E [0x2B] Lysander (ID: 17122148/0x01054364) [7824*]:
     "Still, that's not a small amount, even if they are spread over two continents..."
435: 0x0E25 [0x1C] WAIT(60* ticks)
436: 0x0E28 [0x52] END_LOAD_SCHEDULER: End scheduler "rs11" with entities [LocalPlayer, LocalPlayer], work=379*
437: 0x0E37 [0x45] LOAD_SCHEDULED_TASK: Load scheduler "rs12" with entities [LocalPlayer, LocalPlayer], work=[379*, 0*]
438: 0x0E48 [0x2A] GET_REQ_LEVEL(level=16, entity_id=Lysander (ID: 17122148/0x01054364))
439: 0x0E4E [0x1C] WAIT(120* ticks)
440: 0x0E51 [0x52] END_LOAD_SCHEDULER: End scheduler "rs12" with entities [LocalPlayer, LocalPlayer], work=379*
441: 0x0E60 [0x45] LOAD_SCHEDULED_TASK: Load scheduler "rs13" with entities [LocalPlayer, LocalPlayer], work=[379*, 0*]
442: 0x0E71 [0x01] GOTO 0x0F0D
443: 0x0E74 [0x02] IF !(ExtData[1]->WorkLocal[0] == 2*) GOTO 0x0F0D
444: 0x0E7C [0x27] REQ_SET(priority=0x10, entity_id=Lysander (ID: 17122148/0x01054364), tag_num=0x1B)
445: 0x0E83 [0x27] REQ_SET(priority=0x10, entity_id=Alystair (ID: 17122150/0x01054366), tag_num=0x18)
446: 0x0E8A [0x27] REQ_SET(priority=0x10, entity_id=Barnabas (ID: 17122149/0x01054365), tag_num=0x18)
447: 0x0E91 [0x1C] WAIT(15* ticks)
448: 0x0E94 [0x52] END_LOAD_SCHEDULER: End scheduler "as10" with entities [LocalPlayer, LocalPlayer], work=379*
449: 0x0EA3 [0x45] LOAD_SCHEDULED_TASK: Load scheduler "as11" with entities [LocalPlayer, LocalPlayer], work=[379*, 0*]
450: 0x0EB4 [0x1C] WAIT(60* ticks)
451: 0x0EB7 [0x2B] Lysander (ID: 17122148/0x01054364) [7824*]:
     "Still, that's not a small amount, even if they are spread over two continents..."
452: 0x0EBE [0x1C] WAIT(60* ticks)
