# 17122138 - Bernhard

## Common Data

| Field            | Value                       |
|------------------|-----------------------------|
| Zone             | Batallia Downs [S] (ID: 84) |
| Block Size       | 84 bytes                    |
| Total Events     | 3                           |
| References Count | 5                           |

## List of Events

| Event ID                 | Entrypoint   |   Size |   Instructions |
|--------------------------|--------------|--------|----------------|
| [65535](#event-65535)    | 0x0000       |      1 |              1 |
| [107](#event-107)        | 0x0001       |      1 |              1 |
| [65535.1](#event-655351) | 0x0002       |     31 |              7 |

## DAT References (imed_data)

|   Index | Hex Value   |   Dec Value |
|---------|-------------|-------------|
|       0 | 0x0028      |          40 |
|       1 | 0x2B830     |      178224 |
|       2 | 0xFFF999B4  |  4294547892 |
|       3 | 0x1FE1      |        8161 |
|       4 | 0x001E      |          30 |

## Events

### Event 65535

#### Metadata

| Field        | Value   |
|--------------|---------|
| Entrypoint   | 0x0000  |
| Data Size    | 1 bytes |
| Instructions | 1       |

```
      00 01 02 03 04 05 06 07  08 09 0A 0B 0C 0D 0E 0F
      -- -- -- -- -- -- -- --  -- -- -- -- -- -- -- --
0000: 00                                                .               
```

#### Opcodes

```
  0: 0x0000 [0x00] END_REQSTACK()
```

### Event 107

#### Metadata

| Field        | Value   |
|--------------|---------|
| Entrypoint   | 0x0001  |
| Data Size    | 1 bytes |
| Instructions | 1       |

```
      00 01 02 03 04 05 06 07  08 09 0A 0B 0C 0D 0E 0F
      -- -- -- -- -- -- -- --  -- -- -- -- -- -- -- --
0000:    00                                              .              
```

#### Opcodes

```
  0: 0x0001 [0x00] END_REQSTACK()
```

### Event 65535.1

#### Metadata

| Field        | Value    |
|--------------|----------|
| Entrypoint   | 0x0002   |
| Data Size    | 31 bytes |
| Instructions | 7        |

```
      00 01 02 03 04 05 06 07  08 09 0A 0B 0C 0D 0E 0F
      -- -- -- -- -- -- -- --  -- -- -- -- -- -- -- --
0000:       32 00 80 1F 00 01  80 02 80 03 80 1F 01 1E    2.............
0010: 59 43 05 01 4A 59 43 05  01 5A 43 05 01 1C 04 80  YC..JYC..ZC.....
0020: 00                                                .               
```

#### Opcodes

```
  0: 0x0002 [0x32] ExtData[1]->MainSpeed = 40* * 0.1
  1: 0x0005 [0x1F] MOVE_ENTITY: EventEntity moves to X=178.224*, Z=-419.404*, Y=8.161*
  2: 0x000D [0x1F] MOVE_ENTITY: Update entity position (mode=1)
  3: 0x000F [0x1E] EventEntity looks at Thorben (ID: 17122137/0x01054359) and starts talking
  4: 0x0014 [0x4A] Thorben (ID: 17122137/0x01054359) looks at Bernhard (ID: 17122138/0x0105435A)
  5: 0x001D [0x1C] WAIT(30* ticks)
  6: 0x0020 [0x00] END_REQSTACK()
```
