# 17122268

## Common Data

| Field            | Value                       |
|------------------|-----------------------------|
| Zone             | Batallia Downs [S] (ID: 84) |
| Block Size       | 6304 bytes                  |
| Total Events     | 3                           |
| References Count | 187                         |

## List of Events

| Event ID              | Entrypoint   |   Size |   Instructions |
|-----------------------|--------------|--------|----------------|
| [65535](#event-65535) | 0x0000       |    658 |             62 |
| [23](#event-23)       | 0x0292       |    821 |             92 |
| [24](#event-24)       | 0x05C7       |   4046 |            449 |

## DAT References (imed_data)

|   Index | Hex Value   |   Dec Value |
|---------|-------------|-------------|
|       0 | 0x00C8      |         200 |
|       1 | 0x0000      |           0 |
|       2 | 0x00C9      |         201 |
|       3 | 0x0001      |           1 |
|       4 | 0x002D      |          45 |
|       5 | 0x0002      |           2 |
|       6 | 0x001E      |          30 |
|       7 | 0x00D7      |         215 |
|       8 | 0x0078      |         120 |
|       9 | 0x0013      |          19 |
|      10 | 0xFFF9513B  |  4294529339 |
|      11 | 0xFFFC5527  |  4294726951 |
|      12 | 0xFFFFE0C1  |  4294959297 |
|      13 | 0x0FD2      |        4050 |
|      14 | 0x0214      |         532 |
|      15 | 0xFFF965B7  |  4294534583 |
|      16 | 0xFFFC55AC  |  4294727084 |
|      17 | 0xFFFFE163  |  4294959459 |
|      18 | 0x0FD3      |        4051 |
|      19 | 0xFFF961A7  |  4294533543 |
|      20 | 0xFFFC4F83  |  4294725507 |
|      21 | 0xFFFFE12F  |  4294959407 |
|      22 | 0x0F38      |        3896 |
|      23 | 0x00A3      |         163 |
|      24 | 0x000F      |          15 |
|      25 | 0x20C5      |        8389 |
|      26 | 0x20C6      |        8390 |
|      27 | 0x0857      |        2135 |
|      28 | 0x0854      |        2132 |
|      29 | 0x20C7      |        8391 |
|      30 | 0x0058      |          88 |
|      31 | 0x20C8      |        8392 |
|      32 | 0x20C9      |        8393 |
|      33 | 0x20CA      |        8394 |
|      34 | 0x58D10     |      363792 |
|      35 | 0xFFFC1354  |  4294710100 |
|      36 | 0x229B      |        8859 |
|      37 | 0x0C87      |        3207 |
|      38 | 0x59713     |      366355 |
|      39 | 0xFFFC24B6  |  4294714550 |
|      40 | 0x2169      |        8553 |
|      41 | 0x0543      |        1347 |
|      42 | 0x58148     |      360776 |
|      43 | 0xFFFC24C3  |  4294714563 |
|      44 | 0x2114      |        8468 |
|      45 | 0x09C9      |        2505 |
|      46 | 0x56F7F     |      356223 |
|      47 | 0xFFFC2EEB  |  4294717163 |
|      48 | 0x2070      |        8304 |
|      49 | 0x00C1      |         193 |
|      50 | 0x58984     |      362884 |
|      51 | 0xFFFC2E05  |  4294716933 |
|      52 | 0x207B      |        8315 |
|      53 | 0x0BF0      |        3056 |
|      54 | 0x5885E     |      362590 |
|      55 | 0xFFFC3E74  |  4294721140 |
|      56 | 0x1FAA      |        8106 |
|      57 | 0x02F5      |         757 |
|      58 | 0x5F9EA     |      391658 |
|      59 | 0xFFFBFD66  |  4294704486 |
|      60 | 0x211B      |        8475 |
|      61 | 0x09E7      |        2535 |
|      62 | 0x096A      |        2410 |
|      63 | 0x0599      |        1433 |
|      64 | 0x0963      |        2403 |
|      65 | 0x0064      |         100 |
|      66 | 0x0014      |          20 |
|      67 | 0x0B4F      |        2895 |
|      68 | 0x0018      |          24 |
|      69 | 0x005A      |          90 |
|      70 | 0x003C      |          60 |
|      71 | 0x20CB      |        8395 |
|      72 | 0x5CC66     |      380006 |
|      73 | 0xFFFC0A12  |  4294707730 |
|      74 | 0x1835      |        6197 |
|      75 | 0x0A34      |        2612 |
|      76 | 0x5E73E     |      386878 |
|      77 | 0xFFFC0BD7  |  4294708183 |
|      78 | 0x2085      |        8325 |
|      79 | 0x07B2      |        1970 |
|      80 | 0x5D9E4     |      383460 |
|      81 | 0xFFFC0832  |  4294707250 |
|      82 | 0x1F59      |        8025 |
|      83 | 0x0797      |        1943 |
|      84 | 0x5E235     |      385589 |
|      85 | 0xFFFC0D18  |  4294708504 |
|      86 | 0x2015      |        8213 |
|      87 | 0x07B9      |        1977 |
|      88 | 0x5EEE2     |      388834 |
|      89 | 0xFFFBFED2  |  4294704850 |
|      90 | 0x20CE      |        8398 |
|      91 | 0x08B8      |        2232 |
|      92 | 0x51555     |      333141 |
|      93 | 0xFFFC0B6C  |  4294708076 |
|      94 | 0x1566      |        5478 |
|      95 | 0x0080      |         128 |
|      96 | 0x535C5     |      341445 |
|      97 | 0xFFFBF4C1  |  4294702273 |
|      98 | 0x1BE1      |        7137 |
|      99 | 0x0F29      |        3881 |
|     100 | 0x5C0EC     |      377068 |
|     101 | 0xFFFC0444  |  4294706244 |
|     102 | 0x1FD1      |        8145 |
|     103 | 0x080C      |        2060 |
|     104 | 0x0005      |           5 |
|     105 | 0x20CC      |        8396 |
|     106 | 0x20CD      |        8397 |
|     107 | 0x5BDC5     |      376261 |
|     108 | 0xFFFC05FA  |  4294706682 |
|     109 | 0x1FD9      |        8153 |
|     110 | 0x0E2B      |        3627 |
|     111 | 0x20CF      |        8399 |
|     112 | 0x20D0      |        8400 |
|     113 | 0x20D1      |        8401 |
|     114 | 0x20D2      |        8402 |
|     115 | 0x5C74C     |      378700 |
|     116 | 0xFFFC0BF7  |  4294708215 |
|     117 | 0x2033      |        8243 |
|     118 | 0x0105      |         261 |
|     119 | 0x20D3      |        8403 |
|     120 | 0x0027      |          39 |
|     121 | 0x20D4      |        8404 |
|     122 | 0x20D5      |        8405 |
|     123 | 0x20D6      |        8406 |
|     124 | 0x20D7      |        8407 |
|     125 | 0x20D8      |        8408 |
|     126 | 0x5B7AB     |      374699 |
|     127 | 0xFFFC0E55  |  4294708821 |
|     128 | 0x1F3E      |        7998 |
|     129 | 0x0429      |        1065 |
|     130 | 0x0B18      |        2840 |
|     131 | 0x0B5B      |        2907 |
|     132 | 0x090D      |        2317 |
|     133 | 0x0046      |          70 |
|     134 | 0x5A7D4     |      370644 |
|     135 | 0xFFFC1252  |  4294709842 |
|     136 | 0x2152      |        8530 |
|     137 | 0x09AD      |        2477 |
|     138 | 0x00A5      |         165 |
|     139 | 0x536DC     |      341724 |
|     140 | 0xFFFBEEC4  |  4294700740 |
|     141 | 0x1CFB      |        7419 |
|     142 | 0x0A8A      |        2698 |
|     143 | 0x55BDF     |      351199 |
|     144 | 0xFFFC1693  |  4294710931 |
|     145 | 0x1DAD      |        7597 |
|     146 | 0x0649      |        1609 |
|     147 | 0x00B4      |         180 |
|     148 | 0x20D9      |        8409 |
|     149 | 0x20DA      |        8410 |
|     150 | 0x20DB      |        8411 |
|     151 | 0x001D      |          29 |
|     152 | 0x20DC      |        8412 |
|     153 | 0x20DD      |        8413 |
|     154 | 0x0096      |         150 |
|     155 | 0x000A      |          10 |
|     156 | 0x0850      |        2128 |
|     157 | 0x0146      |         326 |
|     158 | 0x5E431     |      386097 |
|     159 | 0xFFFC0EFE  |  4294708990 |
|     160 | 0x2060      |        8288 |
|     161 | 0x09AC      |        2476 |
|     162 | 0x1E78      |        7800 |
|     163 | 0x59292     |      365202 |
|     164 | 0xFFFC1E95  |  4294712981 |
|     165 | 0x2217      |        8727 |
|     166 | 0x07CD      |        1997 |
|     167 | 0x0003      |           3 |
|     168 | 0x0004      |           4 |
|     169 | 0x0006      |           6 |
|     170 | 0x0008      |           8 |
|     171 | 0x5901F     |      364575 |
|     172 | 0xFFFC11A6  |  4294709670 |
|     173 | 0x1EAB      |        7851 |
|     174 | 0x20DE      |        8414 |
|     175 | 0x20DF      |        8415 |
|     176 | 0x20E0      |        8416 |
|     177 | 0x20E1      |        8417 |
|     178 | 0x20E2      |        8418 |
|     179 | 0x20E3      |        8419 |
|     180 | 0x20E4      |        8420 |
|     181 | 0x20E5      |        8421 |
|     182 | 0x20E6      |        8422 |
|     183 | 0x20E7      |        8423 |
|     184 | 0x20E8      |        8424 |
|     185 | 0x20E9      |        8425 |
|     186 | 0x0034      |          52 |

## Events

### Event 65535

#### Metadata

| Field        | Value     |
|--------------|-----------|
| Entrypoint   | 0x0000    |
| Data Size    | 658 bytes |
| Instructions | 1         |

```
      00 01 02 03 04 05 06 07  08 09 0A 0B 0C 0D 0E 0F
      -- -- -- -- -- -- -- --  -- -- -- -- -- -- -- --
0000: 00 45 00 80 F0 FF FF 7F  F0 FF FF 7F 66 64 69 30  .E..........fdi0
0010: 01 80 55 00 80 F0 FF FF  7F F0 FF FF 7F 66 64 69  ..U..........fdi
0020: 30 1B 45 00 80 F0 FF FF  7F F0 FF FF 7F 66 64 6F  0.E..........fdo
0030: 30 01 80 55 00 80 F0 FF  FF 7F F0 FF FF 7F 66 64  0..U..........fd
0040: 6F 30 1B 45 00 80 F0 FF  FF 7F F0 FF FF 7F 66 64  o0.E..........fd
0050: 69 31 01 80 55 00 80 F0  FF FF 7F F0 FF FF 7F 66  i1..U..........f
0060: 64 69 31 1B 45 00 80 F0  FF FF 7F F0 FF FF 7F 66  di1.E..........f
0070: 64 6F 31 01 80 55 00 80  F0 FF FF 7F F0 FF FF 7F  do1..U..........
0080: 66 64 6F 31 1B 45 02 80  F0 FF FF 7F F0 FF FF 7F  fdo1.E..........
0090: 77 68 69 31 01 80 55 02  80 F0 FF FF 7F F0 FF FF  whi1..U.........
00A0: 7F 77 68 69 31 1B 45 02  80 F0 FF FF 7F F0 FF FF  .whi1.E.........
00B0: 7F 77 68 6F 31 01 80 55  02 80 F0 FF FF 7F F0 FF  .who1..U........
00C0: FF 7F 77 68 6F 31 1B 45  02 80 F0 FF FF 7F F0 FF  ..who1.E........
00D0: FF 7F 77 68 6F 32 01 80  55 02 80 F0 FF FF 7F F0  ..who2..U.......
00E0: FF FF 7F 77 68 6F 32 1B  45 02 80 F0 FF FF 7F F0  ...who2.E.......
00F0: FF FF 7F 77 68 6F 33 01  80 55 02 80 F0 FF FF 7F  ...who3..U......
0100: F0 FF FF 7F 77 68 6F 33  1B 62 03 80 F0 FF FF 7F  ....who3.b......
0110: F0 FF FF 7F 6D 61 69 6E  01 80 1C 04 80 45 00 80  ....main.....E..
0120: F0 FF FF 7F F0 FF FF 7F  66 64 6F 31 01 80 55 00  ........fdo1..U.
0130: 80 F0 FF FF 7F F0 FF FF  7F 66 64 6F 31 1B 45 00  .........fdo1.E.
0140: 80 F0 FF FF 7F F0 FF FF  7F 66 64 69 31 01 80 62  .........fdi1..b
0150: 05 80 F0 FF FF 7F F0 FF  FF 7F 6D 61 69 6E 01 80  ..........main..
0160: 1C 06 80 55 00 80 F0 FF  FF 7F F0 FF FF 7F 66 64  ...U..........fd
0170: 69 31 1B 45 00 80 F0 FF  FF 7F F0 FF FF 7F 62 6C  i1.E..........bl
0180: 6F 6E 01 80 45 02 80 F0  FF FF 7F F0 FF FF 7F 62  on..E..........b
0190: 6C 6F 6E 01 80 1B 45 02  80 F0 FF FF 7F F0 FF FF  lon...E.........
01A0: 7F 77 68 69 30 01 80 55  02 80 F0 FF FF 7F F0 FF  .whi0..U........
01B0: FF 7F 77 68 69 30 1B 45  02 80 F0 FF FF 7F F0 FF  ..whi0.E........
01C0: FF 7F 77 68 6F 30 01 80  55 02 80 F0 FF FF 7F F0  ..who0..U.......
01D0: FF FF 7F 77 68 6F 30 1B  45 07 80 F0 FF FF 7F F0  ...who0.E.......
01E0: FF FF 7F 65 66 6F 6E 01  80 55 07 80 F0 FF FF 7F  ...efon..U......
01F0: F0 FF FF 7F 65 66 6F 6E  1B 45 00 80 F0 FF FF 7F  ....efon.E......
0200: F0 FF FF 7F 66 64 69 73  01 80 1B 45 00 80 F0 FF  ....fdis...E....
0210: FF 7F F0 FF FF 7F 66 64  6F 73 01 80 55 00 80 F0  ......fdos..U...
0220: FF FF 7F F0 FF FF 7F 66  64 6F 73 1B 45 00 80 F0  .......fdos.E...
0230: FF FF 7F F0 FF FF 7F 66  64 69 66 01 80 1B 45 00  .......fdif...E.
0240: 80 F0 FF FF 7F F0 FF FF  7F 66 64 6F 66 01 80 55  .........fdof..U
0250: 00 80 F0 FF FF 7F F0 FF  FF 7F 66 64 6F 66 1B 45  ..........fdof.E
0260: 00 80 F0 FF FF 7F F0 FF  FF 7F 66 64 69 70 01 80  ..........fdip..
0270: 1B 45 00 80 F0 FF FF 7F  F0 FF FF 7F 66 64 6F 70  .E..........fdop
0280: 01 80 55 00 80 F0 FF FF  7F F0 FF FF 7F 66 64 6F  ..U..........fdo
0290: 70 1B                                             p.              
```

#### Opcodes

```
  0: 0x0000 [0x00] END_REQSTACK()
```

#### Data or dead code:

```
# Dead code (unreachable instructions):
     0x0001 [0x45] LOAD_SCHEDULED_TASK: Load scheduler "fdi0" with entities [LocalPlayer, LocalPlayer], work=[200*, 0*]
     0x0012 [0x55] WAIT_LOAD_SCHEDULER: Wait for scheduler "fdi0" with entities [LocalPlayer, LocalPlayer], work=200*
     0x0021 [0x1B] RETURN
     0x0022 [0x45] LOAD_SCHEDULED_TASK: Load scheduler "fdo0" with entities [LocalPlayer, LocalPlayer], work=[200*, 0*]
     0x0033 [0x55] WAIT_LOAD_SCHEDULER: Wait for scheduler "fdo0" with entities [LocalPlayer, LocalPlayer], work=200*
     0x0042 [0x1B] RETURN
     0x0043 [0x45] LOAD_SCHEDULED_TASK: Load scheduler "fdi1" with entities [LocalPlayer, LocalPlayer], work=[200*, 0*]
     0x0054 [0x55] WAIT_LOAD_SCHEDULER: Wait for scheduler "fdi1" with entities [LocalPlayer, LocalPlayer], work=200*
     0x0063 [0x1B] RETURN
     0x0064 [0x45] LOAD_SCHEDULED_TASK: Load scheduler "fdo1" with entities [LocalPlayer, LocalPlayer], work=[200*, 0*]
     0x0075 [0x55] WAIT_LOAD_SCHEDULER: Wait for scheduler "fdo1" with entities [LocalPlayer, LocalPlayer], work=200*
     0x0084 [0x1B] RETURN
     0x0085 [0x45] LOAD_SCHEDULED_TASK: Load scheduler "whi1" with entities [LocalPlayer, LocalPlayer], work=[201*, 0*]
     0x0096 [0x55] WAIT_LOAD_SCHEDULER: Wait for scheduler "whi1" with entities [LocalPlayer, LocalPlayer], work=201*
     0x00A5 [0x1B] RETURN
     0x00A6 [0x45] LOAD_SCHEDULED_TASK: Load scheduler "who1" with entities [LocalPlayer, LocalPlayer], work=[201*, 0*]
     0x00B7 [0x55] WAIT_LOAD_SCHEDULER: Wait for scheduler "who1" with entities [LocalPlayer, LocalPlayer], work=201*
     0x00C6 [0x1B] RETURN
     0x00C7 [0x45] LOAD_SCHEDULED_TASK: Load scheduler "who2" with entities [LocalPlayer, LocalPlayer], work=[201*, 0*]
     0x00D8 [0x55] WAIT_LOAD_SCHEDULER: Wait for scheduler "who2" with entities [LocalPlayer, LocalPlayer], work=201*
     0x00E7 [0x1B] RETURN
     0x00E8 [0x45] LOAD_SCHEDULED_TASK: Load scheduler "who3" with entities [LocalPlayer, LocalPlayer], work=[201*, 0*]
     0x00F9 [0x55] WAIT_LOAD_SCHEDULER: Wait for scheduler "who3" with entities [LocalPlayer, LocalPlayer], work=201*
     0x0108 [0x1B] RETURN
     0x0109 [0x62] LOAD_EVENT_SCHEDULER: Load scheduler "main" with entities [LocalPlayer, LocalPlayer], work=[1*, 0*]
     0x011A [0x1C] WAIT(45* ticks)
     0x011D [0x45] LOAD_SCHEDULED_TASK: Load scheduler "fdo1" with entities [LocalPlayer, LocalPlayer], work=[200*, 0*]
     0x012E [0x55] WAIT_LOAD_SCHEDULER: Wait for scheduler "fdo1" with entities [LocalPlayer, LocalPlayer], work=200*
     0x013D [0x1B] RETURN
     0x013E [0x45] LOAD_SCHEDULED_TASK: Load scheduler "fdi1" with entities [LocalPlayer, LocalPlayer], work=[200*, 0*]
     0x014F [0x62] LOAD_EVENT_SCHEDULER: Load scheduler "main" with entities [LocalPlayer, LocalPlayer], work=[2*, 0*]
     0x0160 [0x1C] WAIT(30* ticks)
     0x0163 [0x55] WAIT_LOAD_SCHEDULER: Wait for scheduler "fdi1" with entities [LocalPlayer, LocalPlayer], work=200*
     0x0172 [0x1B] RETURN
     0x0173 [0x45] LOAD_SCHEDULED_TASK: Load scheduler "blon" with entities [LocalPlayer, LocalPlayer], work=[200*, 0*]
     0x0184 [0x45] LOAD_SCHEDULED_TASK: Load scheduler "blon" with entities [LocalPlayer, LocalPlayer], work=[201*, 0*]
     0x0195 [0x1B] RETURN
     0x0196 [0x45] LOAD_SCHEDULED_TASK: Load scheduler "whi0" with entities [LocalPlayer, LocalPlayer], work=[201*, 0*]
     0x01A7 [0x55] WAIT_LOAD_SCHEDULER: Wait for scheduler "whi0" with entities [LocalPlayer, LocalPlayer], work=201*
     0x01B6 [0x1B] RETURN
     0x01B7 [0x45] LOAD_SCHEDULED_TASK: Load scheduler "who0" with entities [LocalPlayer, LocalPlayer], work=[201*, 0*]
     0x01C8 [0x55] WAIT_LOAD_SCHEDULER: Wait for scheduler "who0" with entities [LocalPlayer, LocalPlayer], work=201*
     0x01D7 [0x1B] RETURN
     0x01D8 [0x45] LOAD_SCHEDULED_TASK: Load scheduler "efon" with entities [LocalPlayer, LocalPlayer], work=[215*, 0*]
     0x01E9 [0x55] WAIT_LOAD_SCHEDULER: Wait for scheduler "efon" with entities [LocalPlayer, LocalPlayer], work=215*
     0x01F8 [0x1B] RETURN
     0x01F9 [0x45] LOAD_SCHEDULED_TASK: Load scheduler "fdis" with entities [LocalPlayer, LocalPlayer], work=[200*, 0*]
     0x020A [0x1B] RETURN
     0x020B [0x45] LOAD_SCHEDULED_TASK: Load scheduler "fdos" with entities [LocalPlayer, LocalPlayer], work=[200*, 0*]
     0x021C [0x55] WAIT_LOAD_SCHEDULER: Wait for scheduler "fdos" with entities [LocalPlayer, LocalPlayer], work=200*
     0x022B [0x1B] RETURN
     0x022C [0x45] LOAD_SCHEDULED_TASK: Load scheduler "fdif" with entities [LocalPlayer, LocalPlayer], work=[200*, 0*]
     0x023D [0x1B] RETURN
     0x023E [0x45] LOAD_SCHEDULED_TASK: Load scheduler "fdof" with entities [LocalPlayer, LocalPlayer], work=[200*, 0*]
     0x024F [0x55] WAIT_LOAD_SCHEDULER: Wait for scheduler "fdof" with entities [LocalPlayer, LocalPlayer], work=200*
     0x025E [0x1B] RETURN
     0x025F [0x45] LOAD_SCHEDULED_TASK: Load scheduler "fdip" with entities [LocalPlayer, LocalPlayer], work=[200*, 0*]
     0x0270 [0x1B] RETURN
     0x0271 [0x45] LOAD_SCHEDULED_TASK: Load scheduler "fdop" with entities [LocalPlayer, LocalPlayer], work=[200*, 0*]
     0x0282 [0x55] WAIT_LOAD_SCHEDULER: Wait for scheduler "fdop" with entities [LocalPlayer, LocalPlayer], work=200*
     0x0291 [0x1B] RETURN
```

### Event 23

#### Metadata

| Field        | Value     |
|--------------|-----------|
| Entrypoint   | 0x0292    |
| Data Size    | 821 bytes |
| Instructions | 92        |

```
      00 01 02 03 04 05 06 07  08 09 0A 0B 0C 0D 0E 0F
      -- -- -- -- -- -- -- --  -- -- -- -- -- -- -- --
0290:       42 5D 01 80 08 80  1A 64 00 46 01 38 09 80    B].....d.F.8..
02A0: 4E 00 F0 FF FF 7F BA F0  FF FF 7F 0A 80 0B 80 0C  N...............
02B0: 80 0D 80 80 F0 FF FF 7F  27 05 F0 FF FF 7F 3C 45  ........'.....<E
02C0: 0E 80 F8 FF FF 7F F8 FF  FF 7F 73 30 30 35 01 80  ..........s005..
02D0: 1A 43 00 1C 08 80 52 0E  80 F8 FF FF 7F F8 FF FF  .C....R.........
02E0: 7F 73 30 30 35 45 0E 80  F8 FF FF 7F F8 FF FF 7F  .s005E..........
02F0: 73 30 30 36 01 80 1C 08  80 45 02 80 F0 FF FF 7F  s006.....E......
0300: F0 FF FF 7F 77 68 6F 31  01 80 55 02 80 F0 FF FF  ....who1..U.....
0310: 7F F0 FF FF 7F 77 68 6F  31 52 0E 80 F8 FF FF 7F  .....who1R......
0320: F8 FF FF 7F 73 30 30 36  27 05 F0 FF FF 7F 3E 92  ....s006'.....>.
0330: 01 F0 FF FF 7F 2F 00 97  43 05 01 2F 00 C4 43 05  ...../..C../..C.
0340: 01 4E 00 97 43 05 01 4E  00 C4 43 05 01 BA 97 43  .N..C..N..C....C
0350: 05 01 0F 80 10 80 11 80  12 80 BA C4 43 05 01 0A  ............C...
0360: 80 0B 80 0C 80 0D 80 BA  F0 FF FF 7F 13 80 14 80  ................
0370: 15 80 16 80 80 97 43 05  01 80 C4 43 05 01 80 F0  ......C....C....
0380: FF FF 7F 5C 00 17 80 5C  01 17 80 9A 27 05 97 43  ...\...\....'..C
0390: 05 01 15 45 0E 80 F8 FF  FF 7F F8 FF FF 7F 73 30  ...E..........s0
03A0: 30 37 01 80 1C 18 80 45  02 80 F0 FF FF 7F F0 FF  07.....E........
03B0: FF 7F 77 68 69 31 01 80  45 07 80 F0 FF FF 7F F0  ..whi1..E.......
03C0: FF FF 7F 65 66 6F 6E 01  80 1C 08 80 52 0E 80 F8  ...efon.....R...
03D0: FF FF 7F F8 FF FF 7F 73  30 30 37 45 0E 80 F8 FF  .......s007E....
03E0: FF 7F F8 FF FF 7F 73 30  30 38 01 80 2B 97 43 05  ......s008..+.C.
03F0: 01 19 80 23 2A 05 97 43  05 01 27 05 C4 43 05 01  ...#*..C..'..C..
0400: 0C 1C 18 80 52 0E 80 F8  FF FF 7F F8 FF FF 7F 73  ....R..........s
0410: 30 30 38 45 0E 80 F8 FF  FF 7F F8 FF FF 7F 73 30  008E..........s0
0420: 30 39 01 80 2B C4 43 05  01 1A 80 23 2A 05 C4 43  09..+.C....#*..C
0430: 05 01 5B 1B 80 97 43 05  01 97 43 05 01 66 62 30  ..[...C...C..fb0
0440: 31 5B 1C 80 97 43 05 01  97 43 05 01 74 6C 63 30  1[...C...C..tlc0
0450: 52 0E 80 F8 FF FF 7F F8  FF FF 7F 73 30 30 39 45  R..........s009E
0460: 0E 80 F8 FF FF 7F F8 FF  FF 7F 73 30 31 32 01 80  ..........s012..
0470: 2B 97 43 05 01 1D 80 23  53 97 43 05 01 97 43 05  +.C....#S.C...C.
0480: 01 74 6C 63 30 4E 01 F0  FF FF 7F 66 1E 80 C4 43  .tlc0N.....f...C
0490: 05 01 C4 43 05 01 73 69  6E 30 1C 18 80 55 0E 80  ...C..sin0...U..
04A0: F8 FF FF 7F F8 FF FF 7F  73 30 31 32 45 0E 80 F8  ........s012E...
04B0: FF FF 7F F8 FF FF 7F 73  30 31 31 01 80 2B C4 43  .......s011..+.C
04C0: 05 01 1F 80 23 53 C4 43  05 01 C4 43 05 01 73 69  ....#S.C...C..si
04D0: 6E 30 5B 1B 80 97 43 05  01 97 43 05 01 66 30 30  n0[...C...C..f00
04E0: 30 52 0E 80 F8 FF FF 7F  F8 FF FF 7F 73 30 31 31  0R..........s011
04F0: 45 0E 80 F8 FF FF 7F F8  FF FF 7F 73 30 31 30 01  E..........s010.
0500: 80 5B 1C 80 97 43 05 01  97 43 05 01 74 6C 63 31  .[...C...C..tlc1
0510: 1C 18 80 4E 00 F0 FF FF  7F 2B 97 43 05 01 20 80  ...N.....+.C.. .
0520: 23 53 97 43 05 01 97 43  05 01 74 6C 63 31 27 05  #S.C...C..tlc1'.
0530: 97 43 05 01 16 52 0E 80  F8 FF FF 7F F8 FF FF 7F  .C...R..........
0540: 73 30 31 30 45 0E 80 F8  FF FF 7F F8 FF FF 7F 73  s010E..........s
0550: 30 31 33 01 80 1C 06 80  27 05 C4 43 05 01 0D 2B  013.....'..C...+
0560: C4 43 05 01 21 80 23 2A  05 C4 43 05 01 5D 01 80  .C..!.#*..C..]..
0570: 08 80 45 02 80 F0 FF FF  7F F0 FF FF 7F 77 68 6F  ..E..........who
0580: 31 01 80 45 07 80 F0 FF  FF 7F F0 FF FF 7F 65 66  1..E..........ef
0590: 6F 66 01 80 55 02 80 F0  FF FF 7F F0 FF FF 7F 77  of..U..........w
05A0: 68 6F 31 52 0E 80 F8 FF  FF 7F F8 FF FF 7F 73 30  ho1R..........s0
05B0: 31 33 46 00 45 02 80 F0  FF FF 7F F0 FF FF 7F 77  13F.E..........w
05C0: 68 69 31 01 80 21 00                              hi1..!.         
```

#### Opcodes

```
  0: 0x0292 [0x42] SET_CLI_EVENT_CANCEL_DATA()
  1: 0x0293 [0x5D] SET_MUSIC_VOLUME(volume=0*, fade_time=120*)
  2: 0x0298 [0x1A] CALL_SUBROUTINE(address=0x0064)
  3: 0x029B [0x46] CAMERA_CONTROL: Disable user control
  4: 0x029D [0x38] SET_CLIENT_EVENT_MODE(mode=19*)
  5: 0x02A0 [0x4E] SET_ENTITY_HIDE_FLAG: Show LocalPlayer
  6: 0x02A6 [0xBA] SET_ENTITY_POSITION(entity_id=LocalPlayer, pos_x=-437.957*, pos_z=-240.345*, pos_y=-7.999*, direction=355.9°*)
  7: 0x02B3 [0x80] LOAD_WAIT(entity=LocalPlayer)
  8: 0x02B8 [0x27] REQ_SET(priority=0x05, entity_id=LocalPlayer, tag_num=0x3C)
  9: 0x02BF [0x45] LOAD_SCHEDULED_TASK: Load scheduler "s005" with entities [EventEntity, EventEntity], work=[532*, 0*]
 10: 0x02D0 [0x1A] CALL_SUBROUTINE(address=0x0043)
 11: 0x02D3 [0x1C] WAIT(120* ticks)
 12: 0x02D6 [0x52] END_LOAD_SCHEDULER: End scheduler "s005" with entities [EventEntity, EventEntity], work=532*
 13: 0x02E5 [0x45] LOAD_SCHEDULED_TASK: Load scheduler "s006" with entities [EventEntity, EventEntity], work=[532*, 0*]
 14: 0x02F6 [0x1C] WAIT(120* ticks)
 15: 0x02F9 [0x45] LOAD_SCHEDULED_TASK: Load scheduler "who1" with entities [LocalPlayer, LocalPlayer], work=[201*, 0*]
 16: 0x030A [0x55] WAIT_LOAD_SCHEDULER: Wait for scheduler "who1" with entities [LocalPlayer, LocalPlayer], work=201*
 17: 0x0319 [0x52] END_LOAD_SCHEDULER: End scheduler "s006" with entities [EventEntity, EventEntity], work=532*
 18: 0x0328 [0x27] REQ_SET(priority=0x05, entity_id=LocalPlayer, tag_num=0x3E)
 19: 0x032F [0x92] LocalPlayer->Render.Flags3 ^= 0x01
 20: 0x0335 [0x2F] Lilisette (ID: 17122199/0x01054397)->Render.Flags0 &= ~0x80000 // Bit 19
 21: 0x033B [0x2F] Portia (ID: 17122244/0x010543C4)->Render.Flags0 &= ~0x80000 // Bit 19
 22: 0x0341 [0x4E] SET_ENTITY_HIDE_FLAG: Show Lilisette (ID: 17122199/0x01054397)
 23: 0x0347 [0x4E] SET_ENTITY_HIDE_FLAG: Show Portia (ID: 17122244/0x010543C4)
 24: 0x034D [0xBA] SET_ENTITY_POSITION(entity_id=Lilisette (ID: 17122199/0x01054397), pos_x=-432.713*, pos_z=-240.212*, pos_y=-7.837*, direction=356.0°*)
 25: 0x035A [0xBA] SET_ENTITY_POSITION(entity_id=Portia (ID: 17122244/0x010543C4), pos_x=-437.957*, pos_z=-240.345*, pos_y=-7.999*, direction=355.9°*)
 26: 0x0367 [0xBA] SET_ENTITY_POSITION(entity_id=LocalPlayer, pos_x=-433.753*, pos_z=-241.789*, pos_y=-7.889*, direction=342.4°*)
 27: 0x0374 [0x80] LOAD_WAIT(entity=Lilisette (ID: 17122199/0x01054397))
 28: 0x0379 [0x80] LOAD_WAIT(entity=Portia (ID: 17122244/0x010543C4))
 29: 0x037E [0x80] LOAD_WAIT(entity=LocalPlayer)
 30: 0x0383 [0x5C] MUSIC_CONTROL: Set Idle (Day) music to song 163*
 31: 0x0387 [0x5C] MUSIC_CONTROL: Set Idle (Night) music to song 163*
 32: 0x038B [0x9A] WAIT_MUSIC_SERVER()
 33: 0x038C [0x27] REQ_SET(priority=0x05, entity_id=Lilisette (ID: 17122199/0x01054397), tag_num=0x15)
 34: 0x0393 [0x45] LOAD_SCHEDULED_TASK: Load scheduler "s007" with entities [EventEntity, EventEntity], work=[532*, 0*]
 35: 0x03A4 [0x1C] WAIT(15* ticks)
 36: 0x03A7 [0x45] LOAD_SCHEDULED_TASK: Load scheduler "whi1" with entities [LocalPlayer, LocalPlayer], work=[201*, 0*]
 37: 0x03B8 [0x45] LOAD_SCHEDULED_TASK: Load scheduler "efon" with entities [LocalPlayer, LocalPlayer], work=[215*, 0*]
 38: 0x03C9 [0x1C] WAIT(120* ticks)
 39: 0x03CC [0x52] END_LOAD_SCHEDULER: End scheduler "s007" with entities [EventEntity, EventEntity], work=532*
 40: 0x03DB [0x45] LOAD_SCHEDULED_TASK: Load scheduler "s008" with entities [EventEntity, EventEntity], work=[532*, 0*]
 41: 0x03EC [0x2B] Lilisette (ID: 17122199/0x01054397) [8389*]:
    → "Hurry, Portia! This way!"
 42: 0x03F3 [0x23] WAIT_FOR_DIALOG_INTERACTION
 43: 0x03F4 [0x2A] GET_REQ_LEVEL(level=5, entity_id=Lilisette (ID: 17122199/0x01054397))
 44: 0x03FA [0x27] REQ_SET(priority=0x05, entity_id=Portia (ID: 17122244/0x010543C4), tag_num=0x0C)
 45: 0x0401 [0x1C] WAIT(15* ticks)
 46: 0x0404 [0x52] END_LOAD_SCHEDULER: End scheduler "s008" with entities [EventEntity, EventEntity], work=532*
 47: 0x0413 [0x45] LOAD_SCHEDULED_TASK: Load scheduler "s009" with entities [EventEntity, EventEntity], work=[532*, 0*]
 48: 0x0424 [0x2B] Portia (ID: 17122244/0x010543C4) [8390*]:
    → "L-Lilisette. It's bad enough that we skip lessons, but to come all the way to Jeuno without Mister Mayakov's leave..."
 49: 0x042B [0x23] WAIT_FOR_DIALOG_INTERACTION
 50: 0x042C [0x2A] GET_REQ_LEVEL(level=5, entity_id=Portia (ID: 17122244/0x010543C4))
 51: 0x0432 [0x5B] LOAD_EXT_SCHEDULER: Load scheduler "fb01" with entities [Lilisette (ID: 17122199/0x01054397), Lilisette (ID: 17122199/0x01054397)], work=2135*
 52: 0x0441 [0x5B] LOAD_EXT_SCHEDULER: Load scheduler "tlc0" with entities [Lilisette (ID: 17122199/0x01054397), Lilisette (ID: 17122199/0x01054397)], work=2132*
 53: 0x0450 [0x52] END_LOAD_SCHEDULER: End scheduler "s009" with entities [EventEntity, EventEntity], work=532*
 54: 0x045F [0x45] LOAD_SCHEDULED_TASK: Load scheduler "s012" with entities [EventEntity, EventEntity], work=[532*, 0*]
 55: 0x0470 [0x2B] Lilisette (ID: 17122199/0x01054397) [8391*]:
    → "Sheesh! Are you still going on about that? Doesn't it bother you that something...unsavory might develop between those two?"
 56: 0x0477 [0x23] WAIT_FOR_DIALOG_INTERACTION
 57: 0x0478 [0x53] WAIT_SCHEDULER_TASK: Wait for scheduler "tlc0" with entities [Lilisette (ID: 17122199/0x01054397), Lilisette (ID: 17122199/0x01054397)]
 58: 0x0485 [0x4E] SET_ENTITY_HIDE_FLAG: Hide LocalPlayer
 59: 0x048B [0x66] LOAD_EXT_SCHEDULER_MAIN: Load scheduler "sin0" with entities [Portia (ID: 17122244/0x010543C4), Portia (ID: 17122244/0x010543C4)], work=88*
 60: 0x049A [0x1C] WAIT(15* ticks)
 61: 0x049D [0x55] WAIT_LOAD_SCHEDULER: Wait for scheduler "s012" with entities [EventEntity, EventEntity], work=532*
 62: 0x04AC [0x45] LOAD_SCHEDULED_TASK: Load scheduler "s011" with entities [EventEntity, EventEntity], work=[532*, 0*]
 63: 0x04BD [0x2B] Portia (ID: 17122244/0x010543C4) [8392*]:
    → "W-well, I..."
 64: 0x04C4 [0x23] WAIT_FOR_DIALOG_INTERACTION
 65: 0x04C5 [0x53] WAIT_SCHEDULER_TASK: Wait for scheduler "sin0" with entities [Portia (ID: 17122244/0x010543C4), Portia (ID: 17122244/0x010543C4)]
 66: 0x04D2 [0x5B] LOAD_EXT_SCHEDULER: Load scheduler "f000" with entities [Lilisette (ID: 17122199/0x01054397), Lilisette (ID: 17122199/0x01054397)], work=2135*
 67: 0x04E1 [0x52] END_LOAD_SCHEDULER: End scheduler "s011" with entities [EventEntity, EventEntity], work=532*
 68: 0x04F0 [0x45] LOAD_SCHEDULED_TASK: Load scheduler "s010" with entities [EventEntity, EventEntity], work=[532*, 0*]
 69: 0x0501 [0x5B] LOAD_EXT_SCHEDULER: Load scheduler "tlc1" with entities [Lilisette (ID: 17122199/0x01054397), Lilisette (ID: 17122199/0x01054397)], work=2132*
 70: 0x0510 [0x1C] WAIT(15* ticks)
 71: 0x0513 [0x4E] SET_ENTITY_HIDE_FLAG: Show LocalPlayer
 72: 0x0519 [0x2B] Lilisette (ID: 17122199/0x01054397) [8393*]:
    → "Of course it bothers you, and that's why we're doing this! Come on, we're almost there!"
 73: 0x0520 [0x23] WAIT_FOR_DIALOG_INTERACTION
 74: 0x0521 [0x53] WAIT_SCHEDULER_TASK: Wait for scheduler "tlc1" with entities [Lilisette (ID: 17122199/0x01054397), Lilisette (ID: 17122199/0x01054397)]
 75: 0x052E [0x27] REQ_SET(priority=0x05, entity_id=Lilisette (ID: 17122199/0x01054397), tag_num=0x16)
 76: 0x0535 [0x52] END_LOAD_SCHEDULER: End scheduler "s010" with entities [EventEntity, EventEntity], work=532*
 77: 0x0544 [0x45] LOAD_SCHEDULED_TASK: Load scheduler "s013" with entities [EventEntity, EventEntity], work=[532*, 0*]
 78: 0x0555 [0x1C] WAIT(30* ticks)
 79: 0x0558 [0x27] REQ_SET(priority=0x05, entity_id=Portia (ID: 17122244/0x010543C4), tag_num=0x0D)
 80: 0x055F [0x2B] Portia (ID: 17122244/0x010543C4) [8394*]:
    → "Ah, Lilisette! Waaait!"
 81: 0x0566 [0x23] WAIT_FOR_DIALOG_INTERACTION
 82: 0x0567 [0x2A] GET_REQ_LEVEL(level=5, entity_id=Portia (ID: 17122244/0x010543C4))
 83: 0x056D [0x5D] SET_MUSIC_VOLUME(volume=0*, fade_time=120*)
 84: 0x0572 [0x45] LOAD_SCHEDULED_TASK: Load scheduler "who1" with entities [LocalPlayer, LocalPlayer], work=[201*, 0*]
 85: 0x0583 [0x45] LOAD_SCHEDULED_TASK: Load scheduler "efof" with entities [LocalPlayer, LocalPlayer], work=[215*, 0*]
 86: 0x0594 [0x55] WAIT_LOAD_SCHEDULER: Wait for scheduler "who1" with entities [LocalPlayer, LocalPlayer], work=201*
 87: 0x05A3 [0x52] END_LOAD_SCHEDULER: End scheduler "s013" with entities [EventEntity, EventEntity], work=532*
 88: 0x05B2 [0x46] CAMERA_CONTROL: Restore default settings
 89: 0x05B4 [0x45] LOAD_SCHEDULED_TASK: Load scheduler "whi1" with entities [LocalPlayer, LocalPlayer], work=[201*, 0*]
 90: 0x05C5 [0x21] END_EVENT
 91: 0x05C6 [0x00] END_REQSTACK()
```

### Event 24

#### Metadata

| Field        | Value      |
|--------------|------------|
| Entrypoint   | 0x05C7     |
| Data Size    | 4046 bytes |
| Instructions | 449        |

```
      00 01 02 03 04 05 06 07  08 09 0A 0B 0C 0D 0E 0F
      -- -- -- -- -- -- -- --  -- -- -- -- -- -- -- --
05C0:                      42  1A 64 00 46 01 38 09 80         B.d.F.8..
05D0: 27 05 3C 43 05 01 02 2F  00 CA 43 05 01 2F 00 CD  '.<C.../..C../..
05E0: 43 05 01 2F 00 CE 43 05  01 2F 00 9F 43 05 01 2F  C../..C../..C../
05F0: 00 9D 43 05 01 2F 00 9E  43 05 01 4E 00 F0 FF FF  ..C../..C..N....
0600: 7F 4E 00 CD 43 05 01 4E  00 CE 43 05 01 4E 00 9F  .N..C..N..C..N..
0610: 43 05 01 4E 00 9D 43 05  01 4E 00 9E 43 05 01 BA  C..N..C..N..C...
0620: CA 43 05 01 22 80 23 80  24 80 25 80 BA 9F 43 05  .C..".#.$.%...C.
0630: 01 26 80 27 80 28 80 29  80 BA CD 43 05 01 2A 80  .&.'.(.)...C..*.
0640: 2B 80 2C 80 2D 80 BA 9D  43 05 01 2E 80 2F 80 30  +.,.-...C..../.0
0650: 80 31 80 BA CE 43 05 01  32 80 33 80 34 80 35 80  .1...C..2.3.4.5.
0660: BA 9E 43 05 01 36 80 37  80 38 80 39 80 BA F0 FF  ..C..6.7.8.9....
0670: FF 7F 3A 80 3B 80 3C 80  3D 80 80 CA 43 05 01 80  ..:.;.<.=...C...
0680: CD 43 05 01 80 CE 43 05  01 80 F0 FF FF 7F 80 9F  .C....C.........
0690: 43 05 01 80 9D 43 05 01  80 9E 43 05 01 1C 06 80  C....C....C.....
06A0: 5B 3E 80 CA 43 05 01 CA  43 05 01 6D 6F 6E 30 5B  [>..C...C..mon0[
06B0: 3F 80 9D 43 05 01 9D 43  05 01 63 6F 6D 30 5B 40  ?..C...C..com0[@
06C0: 80 CD 43 05 01 CD 43 05  01 6C 62 74 30 1C 18 80  ..C...C..lbt0...
06D0: 5B 40 80 CE 43 05 01 CE  43 05 01 6C 62 74 30 5B  [@..C...C..lbt0[
06E0: 3F 80 9E 43 05 01 9E 43  05 01 63 6F 6D 30 27 05  ?..C...C..com0'.
06F0: F0 FF FF 7F 3D 5B 3F 80  CD 43 05 01 CD 43 05 01  ....=[?..C...C..
0700: 73 65 72 30 45 0E 80 F8  FF FF 7F F8 FF FF 7F 73  ser0E..........s
0710: 30 37 30 01 80 1A 43 00  1C 41 80 27 05 9F 43 05  070...C..A.'..C.
0720: 01 03 1C 42 80 52 0E 80  F8 FF FF 7F F8 FF FF 7F  ...B.R..........
0730: 73 30 37 30 45 0E 80 F8  FF FF 7F F8 FF FF 7F 73  s070E..........s
0740: 30 37 31 01 80 1C 08 80  52 0E 80 F8 FF FF 7F F8  071.....R.......
0750: FF FF 7F 73 30 37 31 45  0E 80 F8 FF FF 7F F8 FF  ...s071E........
0760: FF 7F 73 30 37 33 01 80  5B 43 80 CA 43 05 01 CA  ..s073..[C..C...
0770: 43 05 01 64 65 6D 31 CD  44 80 CA 43 05 01 CA 43  C..dem1.D..C...C
0780: 05 01 73 30 30 31 01 80  4E 00 CA 43 05 01 1C 45  ..s001..N..C...E
0790: 80 2C 9F 43 05 01 9F 43  05 01 64 65 61 64 52 0E  .,.C...C..deadR.
07A0: 80 F8 FF FF 7F F8 FF FF  7F 73 30 37 33 45 0E 80  .........s073E..
07B0: F8 FF FF 7F F8 FF FF 7F  73 31 31 34 01 80 1C 46  ........s114...F
07C0: 80 52 0E 80 F8 FF FF 7F  F8 FF FF 7F 73 31 31 34  .R..........s114
07D0: 45 0E 80 F8 FF FF 7F F8  FF FF 7F 73 31 31 33 01  E..........s113.
07E0: 80 5B 43 80 CA 43 05 01  CA 43 05 01 64 65 6D 32  .[C..C...C..dem2
07F0: 1C 08 80 52 0E 80 F8 FF  FF 7F F8 FF FF 7F 73 31  ...R..........s1
0800: 31 33 45 0E 80 F8 FF FF  7F F8 FF FF 7F 73 30 37  13E..........s07
0810: 32 01 80 2B CA 43 05 01  47 80 23 53 CA 43 05 01  2..+.C..G.#S.C..
0820: CA 43 05 01 64 65 6D 32  45 02 80 F0 FF FF 7F F0  .C..dem2E.......
0830: FF FF 7F 77 68 6F 31 01  80 55 02 80 F0 FF FF 7F  ...who1..U......
0840: F0 FF FF 7F 77 68 6F 31  52 0E 80 F8 FF FF 7F F8  ....who1R.......
0850: FF FF 7F 73 30 37 32 5B  3F 80 CD 43 05 01 CD 43  ...s072[?..C...C
0860: 05 01 6B 65 72 30 6B 69  64 6C 30 CA 43 05 01 27  ..ker0kidl0.C..'
0870: 05 F0 FF FF 7F 3E 4E 01  CD 43 05 01 4E 01 CE 43  .....>N..C..N..C
0880: 05 01 4E 01 9F 43 05 01  4E 01 9D 43 05 01 4E 01  ..N..C..N..C..N.
0890: 9E 43 05 01 4E 01 CA 43  05 01 2F 00 98 43 05 01  .C..N..C../..C..
08A0: 2F 00 CC 43 05 01 2F 00  C4 43 05 01 2F 00 97 43  /..C../..C../..C
08B0: 05 01 2F 00 CF 43 05 01  2F 00 CB 43 05 01 4E 00  ../..C../..C..N.
08C0: 98 43 05 01 4E 00 CB 43  05 01 33 01 37 48 80 49  .C..N..C..3.7H.I
08D0: 80 4A 80 4B 80 BA F0 FF  FF 7F 4C 80 4D 80 4E 80  .J.K......L.M.N.
08E0: 4F 80 BA 98 43 05 01 50  80 51 80 52 80 53 80 BA  O...C..P.Q.R.S..
08F0: CB 43 05 01 54 80 55 80  56 80 57 80 BA CC 43 05  .C..T.U.V.W...C.
0900: 01 58 80 59 80 5A 80 5B  80 BA C4 43 05 01 5C 80  .X.Y.Z.[...C..\.
0910: 5D 80 5E 80 5F 80 BA 97  43 05 01 60 80 61 80 62  ].^._...C..`.a.b
0920: 80 63 80 BA CF 43 05 01  64 80 65 80 66 80 67 80  .c...C..d.e.f.g.
0930: 7E 06 98 43 05 01 01 80  01 80 01 80 01 80 01 80  ~..C............
0940: 03 80 7E 04 98 43 05 01  7E 06 CB 43 05 01 01 80  ..~..C..~..C....
0950: 01 80 01 80 01 80 01 80  03 80 7E 04 CB 43 05 01  ..........~..C..
0960: 80 98 43 05 01 80 CB 43  05 01 80 F8 FF FF 7F 80  ..C....C........
0970: F0 FF FF 7F 27 05 98 43  05 01 10 1C 68 80 27 05  ....'..C....h.'.
0980: CB 43 05 01 02 45 0E 80  F8 FF FF 7F F8 FF FF 7F  .C...E..........
0990: 73 30 37 34 01 80 1C 18  80 45 02 80 F0 FF FF 7F  s074.....E......
09A0: F0 FF FF 7F 77 68 69 31  01 80 45 07 80 F0 FF FF  ....whi1..E.....
09B0: 7F F0 FF FF 7F 65 66 6F  6E 01 80 1C 08 80 52 0E  .....efon.....R.
09C0: 80 F8 FF FF 7F F8 FF FF  7F 73 30 37 34 45 0E 80  .........s074E..
09D0: F8 FF FF 7F F8 FF FF 7F  73 30 37 35 01 80 1C 08  ........s075....
09E0: 80 52 0E 80 F8 FF FF 7F  F8 FF FF 7F 73 30 37 35  .R..........s075
09F0: 45 0E 80 F8 FF FF 7F F8  FF FF 7F 73 30 37 36 01  E..........s076.
0A00: 80 2B 98 43 05 01 69 80  23 2B CB 43 05 01 6A 80  .+.C..i.#+.C..j.
0A10: 23 2A 05 98 43 05 01 2A  05 CA 43 05 01 52 0E 80  #*..C..*..C..R..
0A20: F8 FF FF 7F F8 FF FF 7F  73 30 37 36 45 0E 80 F8  ........s076E...
0A30: FF FF 7F F8 FF FF 7F 73  30 37 37 01 80 1C 18 80  .......s077.....
0A40: BA 98 43 05 01 6B 80 6C  80 6D 80 6E 80 80 98 43  ..C..k.l.m.n...C
0A50: 05 01 2B CB 43 05 01 5A  80 23 52 0E 80 F8 FF FF  ..+.C..Z.#R.....
0A60: 7F F8 FF FF 7F 73 30 37  37 45 0E 80 F8 FF FF 7F  .....s077E......
0A70: F8 FF FF 7F 73 30 37 38  01 80 2B 98 43 05 01 6F  ....s078..+.C..o
0A80: 80 23 52 0E 80 F8 FF FF  7F F8 FF FF 7F 73 30 37  .#R..........s07
0A90: 38 45 0E 80 F8 FF FF 7F  F8 FF FF 7F 73 30 37 39  8E..........s079
0AA0: 01 80 79 00 CB 43 05 01  98 43 05 01 2B CB 43 05  ..y..C...C..+.C.
0AB0: 01 70 80 23 4E 00 CC 43  05 01 80 CC 43 05 01 27  .p.#N..C....C..'
0AC0: 05 CC 43 05 01 02 1C 18  80 52 0E 80 F8 FF FF 7F  ..C......R......
0AD0: F8 FF FF 7F 73 30 37 39  45 0E 80 F8 FF FF 7F F8  ....s079E.......
0AE0: FF FF 7F 73 30 38 30 01  80 2B CC 43 05 01 71 80  ...s080..+.C..q.
0AF0: 1C 45 80 52 0E 80 F8 FF  FF 7F F8 FF FF 7F 73 30  .E.R..........s0
0B00: 38 30 45 0E 80 F8 FF FF  7F F8 FF FF 7F 73 30 38  80E..........s08
0B10: 31 01 80 1C 18 80 7A 00  CC 43 05 01 7C 00 CB 43  1.....z..C..|..C
0B20: 05 01 2B CB 43 05 01 72  80 23 7C 01 CB 43 05 01  ..+.C..r.#|..C..
0B30: 55 0E 80 F8 FF FF 7F F8  FF FF 7F 73 30 38 31 BA  U..........s081.
0B40: CC 43 05 01 58 80 59 80  5A 80 5B 80 80 CC 43 05  .C..X.Y.Z.[...C.
0B50: 01 27 05 CC 43 05 01 02  1C 18 80 45 0E 80 F8 FF  .'..C......E....
0B60: FF 7F F8 FF FF 7F 73 30  38 32 01 80 1C 18 80 BA  ......s082......
0B70: CB 43 05 01 73 80 74 80  75 80 76 80 2B CB 43 05  .C..s.t.u.v.+.C.
0B80: 01 77 80 23 2A 05 CC 43  05 01 66 78 80 CC 43 05  .w.#*..C..fx..C.
0B90: 01 CC 43 05 01 73 68 61  30 52 0E 80 F8 FF FF 7F  ..C..sha0R......
0BA0: F8 FF FF 7F 73 30 38 32  45 0E 80 F8 FF FF 7F F8  ....s082E.......
0BB0: FF FF 7F 73 30 38 33 01  80 2B CC 43 05 01 79 80  ...s083..+.C..y.
0BC0: 23 53 CC 43 05 01 CC 43  05 01 73 68 61 30 52 0E  #S.C...C..sha0R.
0BD0: 80 F8 FF FF 7F F8 FF FF  7F 73 30 38 33 45 0E 80  .........s083E..
0BE0: F8 FF FF 7F F8 FF FF 7F  73 30 38 34 01 80 2B CB  ........s084..+.
0BF0: 43 05 01 7A 80 23 52 0E  80 F8 FF FF 7F F8 FF FF  C..z.#R.........
0C00: 7F 73 30 38 34 45 0E 80  F8 FF FF 7F F8 FF FF 7F  .s084E..........
0C10: 73 30 38 35 01 80 79 00  CC 43 05 01 F8 FF FF 7F  s085..y..C......
0C20: 2B CC 43 05 01 7B 80 23  52 0E 80 F8 FF FF 7F F8  +.C..{.#R.......
0C30: FF FF 7F 73 30 38 35 45  0E 80 F8 FF FF 7F F8 FF  ...s085E........
0C40: FF 7F 73 30 38 36 01 80  2B CB 43 05 01 7C 80 23  ..s086..+.C..|.#
0C50: 52 0E 80 F8 FF FF 7F F8  FF FF 7F 73 30 38 36 45  R..........s086E
0C60: 0E 80 F8 FF FF 7F F8 FF  FF 7F 73 30 38 37 01 80  ..........s087..
0C70: 7B CC 43 05 01 2B CC 43  05 01 7D 80 23 4E 00 97  {.C..+.C..}.#N..
0C80: 43 05 01 BA 98 43 05 01  7E 80 7F 80 80 80 81 80  C....C..~.......
0C90: 80 97 43 05 01 80 98 43  05 01 52 0E 80 F8 FF FF  ..C....C..R.....
0CA0: 7F F8 FF FF 7F 73 30 38  37 45 0E 80 F8 FF FF 7F  .....s087E......
0CB0: F8 FF FF 7F 73 30 38 38  01 80 1C 06 80 79 00 98  ....s088.....y..
0CC0: 43 05 01 97 43 05 01 1C  45 80 52 0E 80 F8 FF FF  C...C...E.R.....
0CD0: 7F F8 FF FF 7F 73 30 38  38 45 0E 80 F8 FF FF 7F  .....s088E......
0CE0: F8 FF FF 7F 73 30 38 39  01 80 5B 82 80 97 43 05  ....s089..[...C.
0CF0: 01 97 43 05 01 77 61 76  30 1C 42 80 4E 00 CF 43  ..C..wav0.B.N..C
0D00: 05 01 7B 98 43 05 01 BA  98 43 05 01 64 80 65 80  ..{.C....C..d.e.
0D10: 66 80 67 80 7E 05 98 43  05 01 80 CF 43 05 01 80  f.g.~..C....C...
0D20: 98 43 05 01 1C 06 80 5B  83 80 98 43 05 01 98 43  .C.....[...C...C
0D30: 05 01 63 68 6F 30 5B 84  80 CF 43 05 01 CF 43 05  ..cho0[...C...C.
0D40: 01 63 68 6F 30 1C 85 80  52 0E 80 F8 FF FF 7F F8  .cho0...R.......
0D50: FF FF 7F 73 30 38 39 45  0E 80 F8 FF FF 7F F8 FF  ...s089E........
0D60: FF 7F 73 30 39 30 01 80  5B 83 80 98 43 05 01 98  ..s090..[...C...
0D70: 43 05 01 63 68 6F 31 5B  84 80 CF 43 05 01 CF 43  C..cho1[...C...C
0D80: 05 01 63 68 6F 31 27 05  97 43 05 01 18 1C 08 80  ..cho1'..C......
0D90: 52 0E 80 F8 FF FF 7F F8  FF FF 7F 73 30 39 30 45  R..........s090E
0DA0: 0E 80 F8 FF FF 7F F8 FF  FF 7F 73 30 39 31 01 80  ..........s091..
0DB0: 1C 18 80 6B 69 64 6C 30  98 43 05 01 BA 98 43 05  ...kidl0.C....C.
0DC0: 01 86 80 87 80 88 80 89  80 80 98 43 05 01 27 05  ...........C..'.
0DD0: 98 43 05 01 11 1C 8A 80  52 0E 80 F8 FF FF 7F F8  .C......R.......
0DE0: FF FF 7F 73 30 39 31 45  0E 80 F8 FF FF 7F F8 FF  ...s091E........
0DF0: FF 7F 73 30 39 32 01 80  1C 18 80 7A 00 98 43 05  ..s092.....z..C.
0E00: 01 7A 00 97 43 05 01 4E  00 C4 43 05 01 BA 98 43  .z..C..N..C....C
0E10: 05 01 8B 80 8C 80 8D 80  8E 80 BA 97 43 05 01 8F  ............C...
0E20: 80 90 80 91 80 92 80 80  C4 43 05 01 27 05 C4 43  .........C..'..C
0E30: 05 01 0F 1C 93 80 52 0E  80 F8 FF FF 7F F8 FF FF  ......R.........
0E40: 7F 73 30 39 32 45 0E 80  F8 FF FF 7F F8 FF FF 7F  .s092E..........
0E50: 73 31 31 35 01 80 2B C4  43 05 01 94 80 23 2A 05  s115..+.C....#*.
0E60: C4 43 05 01 27 05 98 43  05 01 12 1C 06 80 52 0E  .C..'..C......R.
0E70: 80 F8 FF FF 7F F8 FF FF  7F 73 31 31 35 45 0E 80  .........s115E..
0E80: F8 FF FF 7F F8 FF FF 7F  73 30 39 33 01 80 1C 04  ........s093....
0E90: 80 2B 98 43 05 01 95 80  66 1E 80 C4 43 05 01 C4  .+.C....f...C...
0EA0: 43 05 01 73 69 6E 31 1C  04 80 4A C4 43 05 01 98  C..sin1...J.C...
0EB0: 43 05 01 2A 05 98 43 05  01 23 52 0E 80 F8 FF FF  C..*..C..#R.....
0EC0: 7F F8 FF FF 7F 73 30 39  33 45 0E 80 F8 FF FF 7F  .....s093E......
0ED0: F8 FF FF 7F 73 30 39 34  01 80 2B C4 43 05 01 96  ....s094..+.C...
0EE0: 80 23 2A 05 98 43 05 01  52 0E 80 F8 FF FF 7F F8  .#*..C..R.......
0EF0: FF FF 7F 73 30 39 34 45  0E 80 F8 FF FF 7F F8 FF  ...s094E........
0F00: FF 7F 73 30 39 35 01 80  66 97 80 98 43 05 01 98  ..s095..f...C...
0F10: 43 05 01 74 6C 6B 30 2B  98 43 05 01 98 80 23 66  C..tlk0+.C....#f
0F20: 97 80 98 43 05 01 98 43  05 01 74 6C 6B 31 52 0E  ...C...C..tlk1R.
0F30: 80 F8 FF FF 7F F8 FF FF  7F 73 30 39 35 45 0E 80  .........s095E..
0F40: F8 FF FF 7F F8 FF FF 7F  73 30 39 36 01 80 66 1E  ........s096..f.
0F50: 80 C4 43 05 01 C4 43 05  01 73 69 6E 30 1C 18 80  ..C...C..sin0...
0F60: 27 05 97 43 05 01 19 2B  C4 43 05 01 99 80 23 53  '..C...+.C....#S
0F70: C4 43 05 01 C4 43 05 01  73 69 6E 30 52 0E 80 F8  .C...C..sin0R...
0F80: FF FF 7F F8 FF FF 7F 73  30 39 36 45 0E 80 F8 FF  .......s096E....
0F90: FF 7F F8 FF FF 7F 73 30  39 37 01 80 1C 9A 80 45  ......s097.....E
0FA0: 00 80 F0 FF FF 7F F0 FF  FF 7F 6F 76 6C 31 01 80  ..........ovl1..
0FB0: 52 0E 80 F8 FF FF 7F F8  FF FF 7F 73 30 39 37 45  R..........s097E
0FC0: 0E 80 F8 FF FF 7F F8 FF  FF 7F 73 30 39 38 01 80  ..........s098..
0FD0: BB 9B 80 97 43 05 01 97  43 05 01 74 72 67 30 01  ....C...C..trg0.
0FE0: 80 1C 45 80 27 05 97 43  05 01 1A 1C 18 80 81 00  ..E.'..C........
0FF0: 97 43 05 01 5B 9C 80 97  43 05 01 97 43 05 01 79  .C..[...C...C..y
1000: 61 68 30 1C 18 80 52 0E  80 F8 FF FF 7F F8 FF FF  ah0...R.........
1010: 7F 73 30 39 38 45 0E 80  F8 FF FF 7F F8 FF FF 7F  .s098E..........
1020: 73 30 39 39 01 80 1C 08  80 5D 01 80 08 80 45 02  s099.....]....E.
1030: 80 F0 FF FF 7F F0 FF FF  7F 77 68 6F 31 01 80 45  .........who1..E
1040: 07 80 F0 FF FF 7F F0 FF  FF 7F 65 66 6F 66 01 80  ..........efof..
1050: 55 02 80 F0 FF FF 7F F0  FF FF 7F 77 68 6F 31 52  U..........who1R
1060: 0E 80 F8 FF FF 7F F8 FF  FF 7F 73 30 39 39 7E 05  ..........s099~.
1070: CB 43 05 01 6B 69 64 6C  30 CC 43 05 01 4E 01 97  .C..kidl0.C..N..
1080: 43 05 01 4E 01 C4 43 05  01 4E 01 98 43 05 01 4E  C..N..C..N..C..N
1090: 01 CF 43 05 01 4E 01 CB  43 05 01 4E 00 CD 43 05  ..C..N..C..N..C.
10A0: 01 4E 00 CE 43 05 01 4E  00 9F 43 05 01 4E 00 9D  .N..C..N..C..N..
10B0: 43 05 01 4E 00 9E 43 05  01 22 00 27 05 F0 FF FF  C..N..C..".'....
10C0: 7F 3F B6 00 9D 80 4E 00  CA 43 05 01 94 01 CA 43  .?....N..C.....C
10D0: 05 01 59 05 9F 43 05 01  01 59 05 95 43 05 01 01  ..Y..C...Y..C...
10E0: 37 9E 80 9F 80 A0 80 A1  80 BA 95 43 05 01 9E 80  7..........C....
10F0: 9F 80 A2 80 A1 80 BA 9F  43 05 01 A3 80 A4 80 A5  ........C.......
1100: 80 A6 80 BA CA 43 05 01  22 80 23 80 24 80 25 80  .....C..".#.$.%.
1110: BA F0 FF FF 7F 4C 80 4D  80 4E 80 A1 80 80 CD 43  .....L.M.N.....C
1120: 05 01 80 CE 43 05 01 80  CA 43 05 01 80 9F 43 05  ....C....C....C.
1130: 01 80 9D 43 05 01 80 9E  43 05 01 80 F8 FF FF 7F  ...C....C.......
1140: 80 F0 FF FF 7F 1C 06 80  45 0E 80 F8 FF FF 7F F8  ........E.......
1150: FF FF 7F 73 31 30 30 01  80 1C 18 80 45 02 80 F0  ...s100.....E...
1160: FF FF 7F F0 FF FF 7F 77  68 69 31 01 80 1C 42 80  .......whi1...B.
1170: CD 45 80 F0 FF FF 7F F8  FF FF 7F 61 30 30 30 01  .E.........a000.
1180: 80 1C 41 80 79 00 F0 FF  FF 7F 95 43 05 01 52 0E  ..A.y......C..R.
1190: 80 F8 FF FF 7F F8 FF FF  7F 73 31 30 30 02 87 7F  .........s100...
11A0: A7 80 80 B9 11 45 0E 80  F8 FF FF 7F F8 FF FF 7F  .....E..........
11B0: 73 31 31 37 01 80 01 3A  12 02 87 7F A8 80 80 D5  s117...:........
11C0: 11 45 0E 80 F8 FF FF 7F  F8 FF FF 7F 73 31 31 37  .E..........s117
11D0: 01 80 01 3A 12 02 87 7F  68 80 80 F1 11 45 0E 80  ...:....h....E..
11E0: F8 FF FF 7F F8 FF FF 7F  73 31 31 38 01 80 01 3A  ........s118...:
11F0: 12 02 87 7F A9 80 80 0D  12 45 0E 80 F8 FF FF 7F  .........E......
1200: F8 FF FF 7F 73 31 31 38  01 80 01 3A 12 02 87 7F  ....s118...:....
1210: AA 80 80 29 12 45 0E 80  F8 FF FF 7F F8 FF FF 7F  ...).E..........
1220: 73 31 31 37 01 80 01 3A  12 45 0E 80 F8 FF FF 7F  s117...:.E......
1230: F8 FF FF 7F 73 31 31 36  01 80 CD 45 80 F0 FF FF  ....s116...E....
1240: 7F F8 FF FF 7F 61 30 30  31 01 80 1C 46 80 CD 45  .....a001...F..E
1250: 80 F0 FF FF 7F F8 FF FF  7F 61 30 30 32 01 80 1C  .........a002...
1260: 06 80 5C 00 17 80 5C 01  17 80 9A 27 05 CC 43 05  ..\...\....'..C.
1270: 01 03 1C 06 80 52 0E 80  F8 FF FF 7F F8 FF FF 7F  .....R..........
1280: 73 31 31 36 52 0E 80 F8  FF FF 7F F8 FF FF 7F 73  s116R..........s
1290: 31 31 37 52 0E 80 F8 FF  FF 7F F8 FF FF 7F 73 31  117R..........s1
12A0: 31 38 45 0E 80 F8 FF FF  7F F8 FF FF 7F 73 31 30  18E..........s10
12B0: 31 01 80 79 00 F0 FF FF  7F CC 43 05 01 37 AB 80  1..y......C..7..
12C0: AC 80 AD 80 A1 80 1C 08  80 52 0E 80 F8 FF FF 7F  .........R......
12D0: F8 FF FF 7F 73 31 30 31  45 0E 80 F8 FF FF 7F F8  ....s101E.......
12E0: FF FF 7F 73 31 30 32 01  80 5B 3F 80 CD 43 05 01  ...s102..[?..C..
12F0: CD 43 05 01 73 65 72 30  2B CC 43 05 01 AE 80 1C  .C..ser0+.C.....
1300: 06 80 4A CA 43 05 01 CC  43 05 01 1C 06 80 2A 05  ..J.C...C.....*.
1310: CC 43 05 01 23 52 0E 80  F8 FF FF 7F F8 FF FF 7F  .C..#R..........
1320: 73 31 30 32 45 0E 80 F8  FF FF 7F F8 FF FF 7F 73  s102E..........s
1330: 31 30 33 01 80 66 78 80  CC 43 05 01 CC 43 05 01  103..fx..C...C..
1340: 73 68 61 30 2B CC 43 05  01 AF 80 23 53 CC 43 05  sha0+.C....#S.C.
1350: 01 CC 43 05 01 73 68 61  30 52 0E 80 F8 FF FF 7F  ..C..sha0R......
1360: F8 FF FF 7F 73 31 30 33  45 0E 80 F8 FF FF 7F F8  ....s103E.......
1370: FF FF 7F 73 31 30 34 01  80 7C 00 CA 43 05 01 2B  ...s104..|..C..+
1380: CA 43 05 01 B0 80 23 7C  01 CA 43 05 01 52 0E 80  .C....#|..C..R..
1390: F8 FF FF 7F F8 FF FF 7F  73 31 30 34 45 0E 80 F8  ........s104E...
13A0: FF FF 7F F8 FF FF 7F 73  31 30 35 01 80 79 00 CC  .......s105..y..
13B0: 43 05 01 F8 FF FF 7F 2B  CC 43 05 01 B1 80 23 52  C......+.C....#R
13C0: 0E 80 F8 FF FF 7F F8 FF  FF 7F 73 31 30 35 45 0E  ..........s105E.
13D0: 80 F8 FF FF 7F F8 FF FF  7F 73 31 30 36 01 80 27  .........s106..'
13E0: 05 CA 43 05 01 02 2B CA  43 05 01 B2 80 23 2B CC  ..C...+.C....#+.
13F0: 43 05 01 B3 80 23 2A 05  CA 43 05 01 52 0E 80 F8  C....#*..C..R...
1400: FF FF 7F F8 FF FF 7F 73  31 30 36 45 0E 80 F8 FF  .......s106E....
1410: FF 7F F8 FF FF 7F 73 31  30 37 01 80 2B CA 43 05  ......s107..+.C.
1420: 01 B4 80 23 52 0E 80 F8  FF FF 7F F8 FF FF 7F 73  ...#R..........s
1430: 31 30 37 45 0E 80 F8 FF  FF 7F F8 FF FF 7F 73 31  107E..........s1
1440: 30 38 01 80 7C 00 CC 43  05 01 2B CC 43 05 01 B5  08..|..C..+.C...
1450: 80 23 7C 01 CC 43 05 01  52 0E 80 F8 FF FF 7F F8  .#|..C..R.......
1460: FF FF 7F 73 31 30 38 45  0E 80 F8 FF FF 7F F8 FF  ...s108E........
1470: FF 7F 73 31 30 39 01 80  27 05 CA 43 05 01 03 7B  ..s109..'..C...{
1480: CC 43 05 01 2B CC 43 05  01 B6 80 23 2B CA 43 05  .C..+.C....#+.C.
1490: 01 B7 80 23 2A 05 CA 43  05 01 52 0E 80 F8 FF FF  ...#*..C..R.....
14A0: 7F F8 FF FF 7F 73 31 30  39 45 0E 80 F8 FF FF 7F  .....s109E......
14B0: F8 FF FF 7F 73 31 31 30  01 80 2B CA 43 05 01 B8  ....s110..+.C...
14C0: 80 23 52 0E 80 F8 FF FF  7F F8 FF FF 7F 73 31 31  .#R..........s11
14D0: 30 45 0E 80 F8 FF FF 7F  F8 FF FF 7F 73 31 31 31  0E..........s111
14E0: 01 80 66 78 80 CC 43 05  01 CC 43 05 01 73 68 61  ..fx..C...C..sha
14F0: 31 2B CC 43 05 01 B9 80  53 CC 43 05 01 CC 43 05  1+.C....S.C...C.
1500: 01 73 68 61 31 6E CC 43  05 01 A9 80 99 CC 43 05  .sha1n.C......C.
1510: 01 1C 45 80 23 52 0E 80  F8 FF FF 7F F8 FF FF 7F  ..E.#R..........
1520: 73 31 31 31 45 0E 80 F8  FF FF 7F F8 FF FF 7F 73  s111E..........s
1530: 31 31 32 01 80 27 05 CC  43 05 01 04 1C 93 80 5D  112..'..C......]
1540: 01 80 08 80 1A 64 00 1C  06 80 52 0E 80 F8 FF FF  .....d....R.....
1550: 7F F8 FF FF 7F 73 31 31  32 5B 3F 80 CD 43 05 01  .....s112[?..C..
1560: CD 43 05 01 6B 65 72 30  45 02 80 F0 FF FF 7F F0  .C..ker0E.......
1570: FF FF 7F 71 73 74 63 01  80 B6 00 BA 80 46 00 1C  ...qstc......F..
1580: 46 80 45 00 80 F0 FF FF  7F F0 FF FF 7F 66 64 69  F.E..........fdi
1590: 32 01 80 21 00                                    2..!.           
```

#### Opcodes

```
  0: 0x05C7 [0x42] SET_CLI_EVENT_CANCEL_DATA()
  1: 0x05C8 [0x1A] CALL_SUBROUTINE(address=0x0064)
  2: 0x05CB [0x46] CAMERA_CONTROL: Disable user control
  3: 0x05CD [0x38] SET_CLIENT_EVENT_MODE(mode=19*)
  4: 0x05D0 [0x27] REQ_SET(priority=0x05, entity_id=_2c0 (ID: 17122108/0x0105433C), tag_num=0x02)
  5: 0x05D7 [0x2F] Noillurie (ID: 17122250/0x010543CA)->Render.Flags0 &= ~0x80000 // Bit 19
  6: 0x05DD [0x2F] Unnamed NPC (ID: 17122253/0x010543CD)->Render.Flags0 &= ~0x80000 // Bit 19
  7: 0x05E3 [0x2F] Unnamed NPC (ID: 17122254/0x010543CE)->Render.Flags0 &= ~0x80000 // Bit 19
  8: 0x05E9 [0x2F] Unnamed NPC (ID: 17122207/0x0105439F)->Render.Flags0 &= ~0x80000 // Bit 19
  9: 0x05EF [0x2F] Gutrender Trooper (ID: 17122205/0x0105439D)->Render.Flags0 &= ~0x80000 // Bit 19
 10: 0x05F5 [0x2F] Gutrender Trooper (ID: 17122206/0x0105439E)->Render.Flags0 &= ~0x80000 // Bit 19
 11: 0x05FB [0x4E] SET_ENTITY_HIDE_FLAG: Show LocalPlayer
 12: 0x0601 [0x4E] SET_ENTITY_HIDE_FLAG: Show Unnamed NPC (ID: 17122253/0x010543CD)
 13: 0x0607 [0x4E] SET_ENTITY_HIDE_FLAG: Show Unnamed NPC (ID: 17122254/0x010543CE)
 14: 0x060D [0x4E] SET_ENTITY_HIDE_FLAG: Show Unnamed NPC (ID: 17122207/0x0105439F)
 15: 0x0613 [0x4E] SET_ENTITY_HIDE_FLAG: Show Gutrender Trooper (ID: 17122205/0x0105439D)
 16: 0x0619 [0x4E] SET_ENTITY_HIDE_FLAG: Show Gutrender Trooper (ID: 17122206/0x0105439E)
 17: 0x061F [0xBA] SET_ENTITY_POSITION(entity_id=Noillurie (ID: 17122250/0x010543CA), pos_x=363.792*, pos_z=-257.196*, pos_y=8.859*, direction=281.9°*)
 18: 0x062C [0xBA] SET_ENTITY_POSITION(entity_id=Unnamed NPC (ID: 17122207/0x0105439F), pos_x=366.355*, pos_z=-252.746*, pos_y=8.553*, direction=118.4°*)
 19: 0x0639 [0xBA] SET_ENTITY_POSITION(entity_id=Unnamed NPC (ID: 17122253/0x010543CD), pos_x=360.776*, pos_z=-252.733*, pos_y=8.468*, direction=220.2°*)
 20: 0x0646 [0xBA] SET_ENTITY_POSITION(entity_id=Gutrender Trooper (ID: 17122205/0x0105439D), pos_x=356.223*, pos_z=-250.133*, pos_y=8.304*, direction=17.0°*)
 21: 0x0653 [0xBA] SET_ENTITY_POSITION(entity_id=Unnamed NPC (ID: 17122254/0x010543CE), pos_x=362.884*, pos_z=-250.363*, pos_y=8.315*, direction=268.6°*)
 22: 0x0660 [0xBA] SET_ENTITY_POSITION(entity_id=Gutrender Trooper (ID: 17122206/0x0105439E), pos_x=362.590*, pos_z=-246.156*, pos_y=8.106*, direction=66.5°*)
 23: 0x066D [0xBA] SET_ENTITY_POSITION(entity_id=LocalPlayer, pos_x=391.658*, pos_z=-262.810*, pos_y=8.475*, direction=222.8°*)
 24: 0x067A [0x80] LOAD_WAIT(entity=Noillurie (ID: 17122250/0x010543CA))
 25: 0x067F [0x80] LOAD_WAIT(entity=Unnamed NPC (ID: 17122253/0x010543CD))
 26: 0x0684 [0x80] LOAD_WAIT(entity=Unnamed NPC (ID: 17122254/0x010543CE))
 27: 0x0689 [0x80] LOAD_WAIT(entity=LocalPlayer)
 28: 0x068E [0x80] LOAD_WAIT(entity=Unnamed NPC (ID: 17122207/0x0105439F))
 29: 0x0693 [0x80] LOAD_WAIT(entity=Gutrender Trooper (ID: 17122205/0x0105439D))
 30: 0x0698 [0x80] LOAD_WAIT(entity=Gutrender Trooper (ID: 17122206/0x0105439E))
 31: 0x069D [0x1C] WAIT(30* ticks)
 32: 0x06A0 [0x5B] LOAD_EXT_SCHEDULER: Load scheduler "mon0" with entities [Noillurie (ID: 17122250/0x010543CA), Noillurie (ID: 17122250/0x010543CA)], work=2410*
 33: 0x06AF [0x5B] LOAD_EXT_SCHEDULER: Load scheduler "com0" with entities [Gutrender Trooper (ID: 17122205/0x0105439D), Gutrender Trooper (ID: 17122205/0x0105439D)], work=1433*
 34: 0x06BE [0x5B] LOAD_EXT_SCHEDULER: Load scheduler "lbt0" with entities [Unnamed NPC (ID: 17122253/0x010543CD), Unnamed NPC (ID: 17122253/0x010543CD)], work=2403*
 35: 0x06CD [0x1C] WAIT(15* ticks)
 36: 0x06D0 [0x5B] LOAD_EXT_SCHEDULER: Load scheduler "lbt0" with entities [Unnamed NPC (ID: 17122254/0x010543CE), Unnamed NPC (ID: 17122254/0x010543CE)], work=2403*
 37: 0x06DF [0x5B] LOAD_EXT_SCHEDULER: Load scheduler "com0" with entities [Gutrender Trooper (ID: 17122206/0x0105439E), Gutrender Trooper (ID: 17122206/0x0105439E)], work=1433*
 38: 0x06EE [0x27] REQ_SET(priority=0x05, entity_id=LocalPlayer, tag_num=0x3D)
 39: 0x06F5 [0x5B] LOAD_EXT_SCHEDULER: Load scheduler "ser0" with entities [Unnamed NPC (ID: 17122253/0x010543CD), Unnamed NPC (ID: 17122253/0x010543CD)], work=1433*
 40: 0x0704 [0x45] LOAD_SCHEDULED_TASK: Load scheduler "s070" with entities [EventEntity, EventEntity], work=[532*, 0*]
 41: 0x0715 [0x1A] CALL_SUBROUTINE(address=0x0043)
 42: 0x0718 [0x1C] WAIT(100* ticks)
 43: 0x071B [0x27] REQ_SET(priority=0x05, entity_id=Unnamed NPC (ID: 17122207/0x0105439F), tag_num=0x03)
 44: 0x0722 [0x1C] WAIT(20* ticks)
 45: 0x0725 [0x52] END_LOAD_SCHEDULER: End scheduler "s070" with entities [EventEntity, EventEntity], work=532*
 46: 0x0734 [0x45] LOAD_SCHEDULED_TASK: Load scheduler "s071" with entities [EventEntity, EventEntity], work=[532*, 0*]
 47: 0x0745 [0x1C] WAIT(120* ticks)
 48: 0x0748 [0x52] END_LOAD_SCHEDULER: End scheduler "s071" with entities [EventEntity, EventEntity], work=532*
 49: 0x0757 [0x45] LOAD_SCHEDULED_TASK: Load scheduler "s073" with entities [EventEntity, EventEntity], work=[532*, 0*]
 50: 0x0768 [0x5B] LOAD_EXT_SCHEDULER: Load scheduler "dem1" with entities [Noillurie (ID: 17122250/0x010543CA), Noillurie (ID: 17122250/0x010543CA)], work=2895*
 51: 0x0777 [0xCD] LOAD_SCHEDULED_TASK_ALT4: Load scheduler "s001" with entities [Noillurie (ID: 17122250/0x010543CA), Noillurie (ID: 17122250/0x010543CA)], work=[24*, 0*]
 52: 0x0788 [0x4E] SET_ENTITY_HIDE_FLAG: Show Noillurie (ID: 17122250/0x010543CA)
 53: 0x078E [0x1C] WAIT(90* ticks)
 54: 0x0791 [0x2C] CREATE_SCHEDULER_TASK: Create scheduler "dead" with entities [Unnamed NPC (ID: 17122207/0x0105439F), Unnamed NPC (ID: 17122207/0x0105439F)]
 55: 0x079E [0x52] END_LOAD_SCHEDULER: End scheduler "s073" with entities [EventEntity, EventEntity], work=532*
 56: 0x07AD [0x45] LOAD_SCHEDULED_TASK: Load scheduler "s114" with entities [EventEntity, EventEntity], work=[532*, 0*]
 57: 0x07BE [0x1C] WAIT(60* ticks)
 58: 0x07C1 [0x52] END_LOAD_SCHEDULER: End scheduler "s114" with entities [EventEntity, EventEntity], work=532*
 59: 0x07D0 [0x45] LOAD_SCHEDULED_TASK: Load scheduler "s113" with entities [EventEntity, EventEntity], work=[532*, 0*]
 60: 0x07E1 [0x5B] LOAD_EXT_SCHEDULER: Load scheduler "dem2" with entities [Noillurie (ID: 17122250/0x010543CA), Noillurie (ID: 17122250/0x010543CA)], work=2895*
 61: 0x07F0 [0x1C] WAIT(120* ticks)
 62: 0x07F3 [0x52] END_LOAD_SCHEDULER: End scheduler "s113" with entities [EventEntity, EventEntity], work=532*
 63: 0x0802 [0x45] LOAD_SCHEDULED_TASK: Load scheduler "s072" with entities [EventEntity, EventEntity], work=[532*, 0*]
 64: 0x0813 [0x2B] Noillurie (ID: 17122250/0x010543CA) [8395*]:
    → "Grrr! Had only our rations held out, these foul fiends would not harrow us so! Where is that Chimene!? 'Tis long past time she arrived with the rice balls!"
 65: 0x081A [0x23] WAIT_FOR_DIALOG_INTERACTION
 66: 0x081B [0x53] WAIT_SCHEDULER_TASK: Wait for scheduler "dem2" with entities [Noillurie (ID: 17122250/0x010543CA), Noillurie (ID: 17122250/0x010543CA)]
 67: 0x0828 [0x45] LOAD_SCHEDULED_TASK: Load scheduler "who1" with entities [LocalPlayer, LocalPlayer], work=[201*, 0*]
 68: 0x0839 [0x55] WAIT_LOAD_SCHEDULER: Wait for scheduler "who1" with entities [LocalPlayer, LocalPlayer], work=201*
 69: 0x0848 [0x52] END_LOAD_SCHEDULER: End scheduler "s072" with entities [EventEntity, EventEntity], work=532*
 70: 0x0857 [0x5B] LOAD_EXT_SCHEDULER: Load scheduler "ker0" with entities [Unnamed NPC (ID: 17122253/0x010543CD), Unnamed NPC (ID: 17122253/0x010543CD)], work=1433*
 71: 0x0866 [0x6B] STOP_AND_IDLE: Noillurie (ID: 17122250/0x010543CA) stops current action and resets to idle (animation="idl0")
 72: 0x086F [0x27] REQ_SET(priority=0x05, entity_id=LocalPlayer, tag_num=0x3E)
 73: 0x0876 [0x4E] SET_ENTITY_HIDE_FLAG: Hide Unnamed NPC (ID: 17122253/0x010543CD)
 74: 0x087C [0x4E] SET_ENTITY_HIDE_FLAG: Hide Unnamed NPC (ID: 17122254/0x010543CE)
 75: 0x0882 [0x4E] SET_ENTITY_HIDE_FLAG: Hide Unnamed NPC (ID: 17122207/0x0105439F)
 76: 0x0888 [0x4E] SET_ENTITY_HIDE_FLAG: Hide Gutrender Trooper (ID: 17122205/0x0105439D)
 77: 0x088E [0x4E] SET_ENTITY_HIDE_FLAG: Hide Gutrender Trooper (ID: 17122206/0x0105439E)
 78: 0x0894 [0x4E] SET_ENTITY_HIDE_FLAG: Hide Noillurie (ID: 17122250/0x010543CA)
 79: 0x089A [0x2F] Ragelise (ID: 17122200/0x01054398)->Render.Flags0 &= ~0x80000 // Bit 19
 80: 0x08A0 [0x2F] Chimene (ID: 17122252/0x010543CC)->Render.Flags0 &= ~0x80000 // Bit 19
 81: 0x08A6 [0x2F] Portia (ID: 17122244/0x010543C4)->Render.Flags0 &= ~0x80000 // Bit 19
 82: 0x08AC [0x2F] Lilisette (ID: 17122199/0x01054397)->Render.Flags0 &= ~0x80000 // Bit 19
 83: 0x08B2 [0x2F] Unnamed NPC (ID: 17122255/0x010543CF)->Render.Flags0 &= ~0x80000 // Bit 19
 84: 0x08B8 [0x2F] Noillurie (ID: 17122251/0x010543CB)->Render.Flags0 &= ~0x80000 // Bit 19
 85: 0x08BE [0x4E] SET_ENTITY_HIDE_FLAG: Show Ragelise (ID: 17122200/0x01054398)
 86: 0x08C4 [0x4E] SET_ENTITY_HIDE_FLAG: Show Noillurie (ID: 17122251/0x010543CB)
 87: 0x08CA [0x33] EventEntity->Render.Flags0 |= 0x200000 // Bit 21 (flag=0x01)
 88: 0x08CC [0x37] UPDATE_EVENT_POSITION_AND_DIR: x=380.006*, z=-259.566*, y=6.197*, direction=229.6°*
 89: 0x08D5 [0xBA] SET_ENTITY_POSITION(entity_id=LocalPlayer, pos_x=386.878*, pos_z=-259.113*, pos_y=8.325*, direction=173.1°*)
 90: 0x08E2 [0xBA] SET_ENTITY_POSITION(entity_id=Ragelise (ID: 17122200/0x01054398), pos_x=383.460*, pos_z=-260.046*, pos_y=8.025*, direction=170.8°*)
 91: 0x08EF [0xBA] SET_ENTITY_POSITION(entity_id=Noillurie (ID: 17122251/0x010543CB), pos_x=385.589*, pos_z=-258.792*, pos_y=8.213*, direction=173.8°*)
 92: 0x08FC [0xBA] SET_ENTITY_POSITION(entity_id=Chimene (ID: 17122252/0x010543CC), pos_x=388.834*, pos_z=-262.446*, pos_y=8.398*, direction=196.2°*)
 93: 0x0909 [0xBA] SET_ENTITY_POSITION(entity_id=Portia (ID: 17122244/0x010543C4), pos_x=333.141*, pos_z=-259.220*, pos_y=5.478*, direction=11.2°*)
 94: 0x0916 [0xBA] SET_ENTITY_POSITION(entity_id=Lilisette (ID: 17122199/0x01054397), pos_x=341.445*, pos_z=-265.023*, pos_y=7.137*, direction=341.1°*)
 95: 0x0923 [0xBA] SET_ENTITY_POSITION(entity_id=Unnamed NPC (ID: 17122255/0x010543CF), pos_x=377.068*, pos_z=-261.052*, pos_y=8.145*, direction=181.0°*)
 96: 0x0930 [0x7E] CHOCOBO_MOUNT: Mode 6 (custom mount) on Ragelise (ID: 17122200/0x01054398)
 97: 0x0942 [0x7E] CHOCOBO_MOUNT: Mode 4 on Ragelise (ID: 17122200/0x01054398)
 98: 0x0948 [0x7E] CHOCOBO_MOUNT: Mode 6 (custom mount) on Noillurie (ID: 17122251/0x010543CB)
 99: 0x095A [0x7E] CHOCOBO_MOUNT: Mode 4 on Noillurie (ID: 17122251/0x010543CB)
100: 0x0960 [0x80] LOAD_WAIT(entity=Ragelise (ID: 17122200/0x01054398))
101: 0x0965 [0x80] LOAD_WAIT(entity=Noillurie (ID: 17122251/0x010543CB))
102: 0x096A [0x80] LOAD_WAIT(entity=EventEntity)
103: 0x096F [0x80] LOAD_WAIT(entity=LocalPlayer)
104: 0x0974 [0x27] REQ_SET(priority=0x05, entity_id=Ragelise (ID: 17122200/0x01054398), tag_num=0x10)
105: 0x097B [0x1C] WAIT(5* ticks)
106: 0x097E [0x27] REQ_SET(priority=0x05, entity_id=Noillurie (ID: 17122251/0x010543CB), tag_num=0x02)
107: 0x0985 [0x45] LOAD_SCHEDULED_TASK: Load scheduler "s074" with entities [EventEntity, EventEntity], work=[532*, 0*]
108: 0x0996 [0x1C] WAIT(15* ticks)
109: 0x0999 [0x45] LOAD_SCHEDULED_TASK: Load scheduler "whi1" with entities [LocalPlayer, LocalPlayer], work=[201*, 0*]
110: 0x09AA [0x45] LOAD_SCHEDULED_TASK: Load scheduler "efon" with entities [LocalPlayer, LocalPlayer], work=[215*, 0*]
111: 0x09BB [0x1C] WAIT(120* ticks)
112: 0x09BE [0x52] END_LOAD_SCHEDULER: End scheduler "s074" with entities [EventEntity, EventEntity], work=532*
113: 0x09CD [0x45] LOAD_SCHEDULED_TASK: Load scheduler "s075" with entities [EventEntity, EventEntity], work=[532*, 0*]
114: 0x09DE [0x1C] WAIT(120* ticks)
115: 0x09E1 [0x52] END_LOAD_SCHEDULER: End scheduler "s075" with entities [EventEntity, EventEntity], work=532*
116: 0x09F0 [0x45] LOAD_SCHEDULED_TASK: Load scheduler "s076" with entities [EventEntity, EventEntity], work=[532*, 0*]
117: 0x0A01 [0x2B] Ragelise (ID: 17122200/0x01054398) [8396*]:
    → "It appears the beastmen have yet to pass through here."
118: 0x0A08 [0x23] WAIT_FOR_DIALOG_INTERACTION
119: 0x0A09 [0x2B] Noillurie (ID: 17122251/0x010543CB) [8397*]:
    → "Aye, I would concur."
120: 0x0A10 [0x23] WAIT_FOR_DIALOG_INTERACTION
121: 0x0A11 [0x2A] GET_REQ_LEVEL(level=5, entity_id=Ragelise (ID: 17122200/0x01054398))
122: 0x0A17 [0x2A] GET_REQ_LEVEL(level=5, entity_id=Noillurie (ID: 17122250/0x010543CA))
123: 0x0A1D [0x52] END_LOAD_SCHEDULER: End scheduler "s076" with entities [EventEntity, EventEntity], work=532*
124: 0x0A2C [0x45] LOAD_SCHEDULED_TASK: Load scheduler "s077" with entities [EventEntity, EventEntity], work=[532*, 0*]
125: 0x0A3D [0x1C] WAIT(15* ticks)
126: 0x0A40 [0xBA] SET_ENTITY_POSITION(entity_id=Ragelise (ID: 17122200/0x01054398), pos_x=376.261*, pos_z=-260.614*, pos_y=8.153*, direction=318.8°*)
127: 0x0A4D [0x80] LOAD_WAIT(entity=Ragelise (ID: 17122200/0x01054398))
128: 0x0A52 [0x2B] Noillurie (ID: 17122251/0x010543CB) [8398*]:
    → "Sir Ragelise. Pray forgive my forthrightness...but the moment seizes me, and I must speak my mind. Oft have I dreamed of the pleasure of your exclusive company. That we're on a peril-fraught mission serves only to stoke the fires of my--"
129: 0x0A59 [0x23] WAIT_FOR_DIALOG_INTERACTION
130: 0x0A5A [0x52] END_LOAD_SCHEDULER: End scheduler "s077" with entities [EventEntity, EventEntity], work=532*
131: 0x0A69 [0x45] LOAD_SCHEDULED_TASK: Load scheduler "s078" with entities [EventEntity, EventEntity], work=[532*, 0*]
132: 0x0A7A [0x2B] Ragelise (ID: 17122200/0x01054398) [8399*]:
    → "Ah hah hah! A-aye, 'tis a strange coincidence, is it not? That we should find ourselves utterly alone, with not a single underling in sight?"
133: 0x0A81 [0x23] WAIT_FOR_DIALOG_INTERACTION
134: 0x0A82 [0x52] END_LOAD_SCHEDULER: End scheduler "s078" with entities [EventEntity, EventEntity], work=532*
135: 0x0A91 [0x45] LOAD_SCHEDULED_TASK: Load scheduler "s079" with entities [EventEntity, EventEntity], work=[532*, 0*]
136: 0x0AA2 [0x79] Noillurie (ID: 17122251/0x010543CB) looks at Ragelise (ID: 17122200/0x01054398) (Basic look)
137: 0x0AAC [0x2B] Noillurie (ID: 17122251/0x010543CB) [8400*]:
    → "<Blush> Sir Ragelise..."
138: 0x0AB3 [0x23] WAIT_FOR_DIALOG_INTERACTION
139: 0x0AB4 [0x4E] SET_ENTITY_HIDE_FLAG: Show Chimene (ID: 17122252/0x010543CC)
140: 0x0ABA [0x80] LOAD_WAIT(entity=Chimene (ID: 17122252/0x010543CC))
141: 0x0ABF [0x27] REQ_SET(priority=0x05, entity_id=Chimene (ID: 17122252/0x010543CC), tag_num=0x02)
142: 0x0AC6 [0x1C] WAIT(15* ticks)
143: 0x0AC9 [0x52] END_LOAD_SCHEDULER: End scheduler "s079" with entities [EventEntity, EventEntity], work=532*
144: 0x0AD8 [0x45] LOAD_SCHEDULED_TASK: Load scheduler "s080" with entities [EventEntity, EventEntity], work=[532*, 0*]
145: 0x0AE9 [0x2B] Chimene (ID: 17122252/0x010543CC) [8401*]:
    → "Sir Noillurie!"
146: 0x0AF0 [0x1C] WAIT(90* ticks)
147: 0x0AF3 [0x52] END_LOAD_SCHEDULER: End scheduler "s080" with entities [EventEntity, EventEntity], work=532*
148: 0x0B02 [0x45] LOAD_SCHEDULED_TASK: Load scheduler "s081" with entities [EventEntity, EventEntity], work=[532*, 0*]
149: 0x0B13 [0x1C] WAIT(15* ticks)
150: 0x0B16 [0x7A] VM_CONTROL: Reset VM for Chimene (ID: 17122252/0x010543CC)
151: 0x0B1C [0x7C] Noillurie (ID: 17122251/0x010543CB)->Render.Flags2 |= 0x00
152: 0x0B22 [0x2B] Noillurie (ID: 17122251/0x010543CB) [8402*]:
    → "!?"
153: 0x0B29 [0x23] WAIT_FOR_DIALOG_INTERACTION
154: 0x0B2A [0x7C] Noillurie (ID: 17122251/0x010543CB)->Render.Flags2 |= 0x01
155: 0x0B30 [0x55] WAIT_LOAD_SCHEDULER: Wait for scheduler "s081" with entities [EventEntity, EventEntity], work=532*
156: 0x0B3F [0xBA] SET_ENTITY_POSITION(entity_id=Chimene (ID: 17122252/0x010543CC), pos_x=388.834*, pos_z=-262.446*, pos_y=8.398*, direction=196.2°*)
157: 0x0B4C [0x80] LOAD_WAIT(entity=Chimene (ID: 17122252/0x010543CC))
158: 0x0B51 [0x27] REQ_SET(priority=0x05, entity_id=Chimene (ID: 17122252/0x010543CC), tag_num=0x02)
159: 0x0B58 [0x1C] WAIT(15* ticks)
160: 0x0B5B [0x45] LOAD_SCHEDULED_TASK: Load scheduler "s082" with entities [EventEntity, EventEntity], work=[532*, 0*]
161: 0x0B6C [0x1C] WAIT(15* ticks)
162: 0x0B6F [0xBA] SET_ENTITY_POSITION(entity_id=Noillurie (ID: 17122251/0x010543CB), pos_x=378.700*, pos_z=-259.081*, pos_y=8.243*, direction=22.9°*)
163: 0x0B7C [0x2B] Noillurie (ID: 17122251/0x010543CB) [8403*]:
    → "Chimene!? What is the meaning of this intrus--I mean, at whose command are you here!?"
164: 0x0B83 [0x23] WAIT_FOR_DIALOG_INTERACTION
165: 0x0B84 [0x2A] GET_REQ_LEVEL(level=5, entity_id=Chimene (ID: 17122252/0x010543CC))
166: 0x0B8A [0x66] LOAD_EXT_SCHEDULER_MAIN: Load scheduler "sha0" with entities [Chimene (ID: 17122252/0x010543CC), Chimene (ID: 17122252/0x010543CC)], work=39*
167: 0x0B99 [0x52] END_LOAD_SCHEDULER: End scheduler "s082" with entities [EventEntity, EventEntity], work=532*
168: 0x0BA8 [0x45] LOAD_SCHEDULED_TASK: Load scheduler "s083" with entities [EventEntity, EventEntity], work=[532*, 0*]
169: 0x0BB9 [0x2B] Chimene (ID: 17122252/0x010543CC) [8404*]:
    → "I bring the batch of martial rice balls as per your request, sir!"
170: 0x0BC0 [0x23] WAIT_FOR_DIALOG_INTERACTION
171: 0x0BC1 [0x53] WAIT_SCHEDULER_TASK: Wait for scheduler "sha0" with entities [Chimene (ID: 17122252/0x010543CC), Chimene (ID: 17122252/0x010543CC)]
172: 0x0BCE [0x52] END_LOAD_SCHEDULER: End scheduler "s083" with entities [EventEntity, EventEntity], work=532*
173: 0x0BDD [0x45] LOAD_SCHEDULED_TASK: Load scheduler "s084" with entities [EventEntity, EventEntity], work=[532*, 0*]
174: 0x0BEE [0x2B] Noillurie (ID: 17122251/0x010543CB) [8405*]:
    → "As per my request, you say? What are our unit's words, pray tell?"
175: 0x0BF5 [0x23] WAIT_FOR_DIALOG_INTERACTION
176: 0x0BF6 [0x52] END_LOAD_SCHEDULER: End scheduler "s084" with entities [EventEntity, EventEntity], work=532*
177: 0x0C05 [0x45] LOAD_SCHEDULED_TASK: Load scheduler "s085" with entities [EventEntity, EventEntity], work=[532*, 0*]
178: 0x0C16 [0x79] Chimene (ID: 17122252/0x010543CC) looks at EventEntity (Basic look)
179: 0x0C20 [0x2B] Chimene (ID: 17122252/0x010543CC) [8406*]:
    → "Th-that would be "March Not Without Martial Rice Balls," sir!"
180: 0x0C27 [0x23] WAIT_FOR_DIALOG_INTERACTION
181: 0x0C28 [0x52] END_LOAD_SCHEDULER: End scheduler "s085" with entities [EventEntity, EventEntity], work=532*
182: 0x0C37 [0x45] LOAD_SCHEDULED_TASK: Load scheduler "s086" with entities [EventEntity, EventEntity], work=[532*, 0*]
183: 0x0C48 [0x2B] Noillurie (ID: 17122251/0x010543CB) [8407*]:
    → "Do you mean to imply then, that I, of all people, have been remiss in keeping true to our most sacred motto?"
184: 0x0C4F [0x23] WAIT_FOR_DIALOG_INTERACTION
185: 0x0C50 [0x52] END_LOAD_SCHEDULER: End scheduler "s086" with entities [EventEntity, EventEntity], work=532*
186: 0x0C5F [0x45] LOAD_SCHEDULED_TASK: Load scheduler "s087" with entities [EventEntity, EventEntity], work=[532*, 0*]
187: 0x0C70 [0x7B] Chimene (ID: 17122252/0x010543CC) stops talking
188: 0x0C75 [0x2B] Chimene (ID: 17122252/0x010543CC) [8408*]:
    → "I-I would not dream of it, sir. It...it's just that but moments ago...<mumble, mumble>..."
189: 0x0C7C [0x23] WAIT_FOR_DIALOG_INTERACTION
190: 0x0C7D [0x4E] SET_ENTITY_HIDE_FLAG: Show Lilisette (ID: 17122199/0x01054397)
191: 0x0C83 [0xBA] SET_ENTITY_POSITION(entity_id=Ragelise (ID: 17122200/0x01054398), pos_x=374.699*, pos_z=-258.475*, pos_y=7.998*, direction=93.6°*)
192: 0x0C90 [0x80] LOAD_WAIT(entity=Lilisette (ID: 17122199/0x01054397))
193: 0x0C95 [0x80] LOAD_WAIT(entity=Ragelise (ID: 17122200/0x01054398))
194: 0x0C9A [0x52] END_LOAD_SCHEDULER: End scheduler "s087" with entities [EventEntity, EventEntity], work=532*
195: 0x0CA9 [0x45] LOAD_SCHEDULED_TASK: Load scheduler "s088" with entities [EventEntity, EventEntity], work=[532*, 0*]
196: 0x0CBA [0x1C] WAIT(30* ticks)
197: 0x0CBD [0x79] Ragelise (ID: 17122200/0x01054398) looks at Lilisette (ID: 17122199/0x01054397) (Basic look)
198: 0x0CC7 [0x1C] WAIT(90* ticks)
199: 0x0CCA [0x52] END_LOAD_SCHEDULER: End scheduler "s088" with entities [EventEntity, EventEntity], work=532*
200: 0x0CD9 [0x45] LOAD_SCHEDULED_TASK: Load scheduler "s089" with entities [EventEntity, EventEntity], work=[532*, 0*]
201: 0x0CEA [0x5B] LOAD_EXT_SCHEDULER: Load scheduler "wav0" with entities [Lilisette (ID: 17122199/0x01054397), Lilisette (ID: 17122199/0x01054397)], work=2840*
202: 0x0CF9 [0x1C] WAIT(20* ticks)
203: 0x0CFC [0x4E] SET_ENTITY_HIDE_FLAG: Show Unnamed NPC (ID: 17122255/0x010543CF)
204: 0x0D02 [0x7B] Ragelise (ID: 17122200/0x01054398) stops talking
205: 0x0D07 [0xBA] SET_ENTITY_POSITION(entity_id=Ragelise (ID: 17122200/0x01054398), pos_x=377.068*, pos_z=-261.052*, pos_y=8.145*, direction=181.0°*)
206: 0x0D14 [0x7E] CHOCOBO_MOUNT: Dismount Ragelise (ID: 17122200/0x01054398) (status = 0)
207: 0x0D1A [0x80] LOAD_WAIT(entity=Unnamed NPC (ID: 17122255/0x010543CF))
208: 0x0D1F [0x80] LOAD_WAIT(entity=Ragelise (ID: 17122200/0x01054398))
209: 0x0D24 [0x1C] WAIT(30* ticks)
210: 0x0D27 [0x5B] LOAD_EXT_SCHEDULER: Load scheduler "cho0" with entities [Ragelise (ID: 17122200/0x01054398), Ragelise (ID: 17122200/0x01054398)], work=2907*
211: 0x0D36 [0x5B] LOAD_EXT_SCHEDULER: Load scheduler "cho0" with entities [Unnamed NPC (ID: 17122255/0x010543CF), Unnamed NPC (ID: 17122255/0x010543CF)], work=2317*
212: 0x0D45 [0x1C] WAIT(70* ticks)
213: 0x0D48 [0x52] END_LOAD_SCHEDULER: End scheduler "s089" with entities [EventEntity, EventEntity], work=532*
214: 0x0D57 [0x45] LOAD_SCHEDULED_TASK: Load scheduler "s090" with entities [EventEntity, EventEntity], work=[532*, 0*]
215: 0x0D68 [0x5B] LOAD_EXT_SCHEDULER: Load scheduler "cho1" with entities [Ragelise (ID: 17122200/0x01054398), Ragelise (ID: 17122200/0x01054398)], work=2907*
216: 0x0D77 [0x5B] LOAD_EXT_SCHEDULER: Load scheduler "cho1" with entities [Unnamed NPC (ID: 17122255/0x010543CF), Unnamed NPC (ID: 17122255/0x010543CF)], work=2317*
217: 0x0D86 [0x27] REQ_SET(priority=0x05, entity_id=Lilisette (ID: 17122199/0x01054397), tag_num=0x18)
218: 0x0D8D [0x1C] WAIT(120* ticks)
219: 0x0D90 [0x52] END_LOAD_SCHEDULER: End scheduler "s090" with entities [EventEntity, EventEntity], work=532*
220: 0x0D9F [0x45] LOAD_SCHEDULED_TASK: Load scheduler "s091" with entities [EventEntity, EventEntity], work=[532*, 0*]
221: 0x0DB0 [0x1C] WAIT(15* ticks)
222: 0x0DB3 [0x6B] STOP_AND_IDLE: Ragelise (ID: 17122200/0x01054398) stops current action and resets to idle (animation="idl0")
223: 0x0DBC [0xBA] SET_ENTITY_POSITION(entity_id=Ragelise (ID: 17122200/0x01054398), pos_x=370.644*, pos_z=-257.454*, pos_y=8.530*, direction=217.7°*)
224: 0x0DC9 [0x80] LOAD_WAIT(entity=Ragelise (ID: 17122200/0x01054398))
225: 0x0DCE [0x27] REQ_SET(priority=0x05, entity_id=Ragelise (ID: 17122200/0x01054398), tag_num=0x11)
226: 0x0DD5 [0x1C] WAIT(165* ticks)
227: 0x0DD8 [0x52] END_LOAD_SCHEDULER: End scheduler "s091" with entities [EventEntity, EventEntity], work=532*
228: 0x0DE7 [0x45] LOAD_SCHEDULED_TASK: Load scheduler "s092" with entities [EventEntity, EventEntity], work=[532*, 0*]
229: 0x0DF8 [0x1C] WAIT(15* ticks)
230: 0x0DFB [0x7A] VM_CONTROL: Reset VM for Ragelise (ID: 17122200/0x01054398)
231: 0x0E01 [0x7A] VM_CONTROL: Reset VM for Lilisette (ID: 17122199/0x01054397)
232: 0x0E07 [0x4E] SET_ENTITY_HIDE_FLAG: Show Portia (ID: 17122244/0x010543C4)
233: 0x0E0D [0xBA] SET_ENTITY_POSITION(entity_id=Ragelise (ID: 17122200/0x01054398), pos_x=341.724*, pos_z=-266.556*, pos_y=7.419*, direction=237.1°*)
234: 0x0E1A [0xBA] SET_ENTITY_POSITION(entity_id=Lilisette (ID: 17122199/0x01054397), pos_x=351.199*, pos_z=-256.365*, pos_y=7.597*, direction=141.4°*)
235: 0x0E27 [0x80] LOAD_WAIT(entity=Portia (ID: 17122244/0x010543C4))
236: 0x0E2C [0x27] REQ_SET(priority=0x05, entity_id=Portia (ID: 17122244/0x010543C4), tag_num=0x0F)
237: 0x0E33 [0x1C] WAIT(180* ticks)
238: 0x0E36 [0x52] END_LOAD_SCHEDULER: End scheduler "s092" with entities [EventEntity, EventEntity], work=532*
239: 0x0E45 [0x45] LOAD_SCHEDULED_TASK: Load scheduler "s115" with entities [EventEntity, EventEntity], work=[532*, 0*]
240: 0x0E56 [0x2B] Portia (ID: 17122244/0x010543C4) [8409*]:
    → "L-Lilisette? Where have you gone? Lilisette!"
241: 0x0E5D [0x23] WAIT_FOR_DIALOG_INTERACTION
242: 0x0E5E [0x2A] GET_REQ_LEVEL(level=5, entity_id=Portia (ID: 17122244/0x010543C4))
243: 0x0E64 [0x27] REQ_SET(priority=0x05, entity_id=Ragelise (ID: 17122200/0x01054398), tag_num=0x12)
244: 0x0E6B [0x1C] WAIT(30* ticks)
245: 0x0E6E [0x52] END_LOAD_SCHEDULER: End scheduler "s115" with entities [EventEntity, EventEntity], work=532*
246: 0x0E7D [0x45] LOAD_SCHEDULED_TASK: Load scheduler "s093" with entities [EventEntity, EventEntity], work=[532*, 0*]
247: 0x0E8E [0x1C] WAIT(45* ticks)
248: 0x0E91 [0x2B] Ragelise (ID: 17122200/0x01054398) [8410*]:
    → "Portia? Is it truly you?"
249: 0x0E98 [0x66] LOAD_EXT_SCHEDULER_MAIN: Load scheduler "sin1" with entities [Portia (ID: 17122244/0x010543C4), Portia (ID: 17122244/0x010543C4)], work=88*
250: 0x0EA7 [0x1C] WAIT(45* ticks)
251: 0x0EAA [0x4A] Portia (ID: 17122244/0x010543C4) looks at Ragelise (ID: 17122200/0x01054398)
252: 0x0EB3 [0x2A] GET_REQ_LEVEL(level=5, entity_id=Ragelise (ID: 17122200/0x01054398))
253: 0x0EB9 [0x23] WAIT_FOR_DIALOG_INTERACTION
254: 0x0EBA [0x52] END_LOAD_SCHEDULER: End scheduler "s093" with entities [EventEntity, EventEntity], work=532*
255: 0x0EC9 [0x45] LOAD_SCHEDULED_TASK: Load scheduler "s094" with entities [EventEntity, EventEntity], work=[532*, 0*]
256: 0x0EDA [0x2B] Portia (ID: 17122244/0x010543C4) [8411*]:
    → "S-Sir Ragelise!"
257: 0x0EE1 [0x23] WAIT_FOR_DIALOG_INTERACTION
258: 0x0EE2 [0x2A] GET_REQ_LEVEL(level=5, entity_id=Ragelise (ID: 17122200/0x01054398))
259: 0x0EE8 [0x52] END_LOAD_SCHEDULER: End scheduler "s094" with entities [EventEntity, EventEntity], work=532*
260: 0x0EF7 [0x45] LOAD_SCHEDULED_TASK: Load scheduler "s095" with entities [EventEntity, EventEntity], work=[532*, 0*]
261: 0x0F08 [0x66] LOAD_EXT_SCHEDULER_MAIN: Load scheduler "tlk0" with entities [Ragelise (ID: 17122200/0x01054398), Ragelise (ID: 17122200/0x01054398)], work=29*
262: 0x0F17 [0x2B] Ragelise (ID: 17122200/0x01054398) [8412*]:
    → "But...my lady, why do I find you here?"
263: 0x0F1E [0x23] WAIT_FOR_DIALOG_INTERACTION
264: 0x0F1F [0x66] LOAD_EXT_SCHEDULER_MAIN: Load scheduler "tlk1" with entities [Ragelise (ID: 17122200/0x01054398), Ragelise (ID: 17122200/0x01054398)], work=29*
265: 0x0F2E [0x52] END_LOAD_SCHEDULER: End scheduler "s095" with entities [EventEntity, EventEntity], work=532*
266: 0x0F3D [0x45] LOAD_SCHEDULED_TASK: Load scheduler "s096" with entities [EventEntity, EventEntity], work=[532*, 0*]
267: 0x0F4E [0x66] LOAD_EXT_SCHEDULER_MAIN: Load scheduler "sin0" with entities [Portia (ID: 17122244/0x010543C4), Portia (ID: 17122244/0x010543C4)], work=88*
268: 0x0F5D [0x1C] WAIT(15* ticks)
269: 0x0F60 [0x27] REQ_SET(priority=0x05, entity_id=Lilisette (ID: 17122199/0x01054397), tag_num=0x19)
270: 0x0F67 [0x2B] Portia (ID: 17122244/0x010543C4) [8413*]:
    → "<Blush> Um...y-you see... I-I...uh..."
271: 0x0F6E [0x23] WAIT_FOR_DIALOG_INTERACTION
272: 0x0F6F [0x53] WAIT_SCHEDULER_TASK: Wait for scheduler "sin0" with entities [Portia (ID: 17122244/0x010543C4), Portia (ID: 17122244/0x010543C4)]
273: 0x0F7C [0x52] END_LOAD_SCHEDULER: End scheduler "s096" with entities [EventEntity, EventEntity], work=532*
274: 0x0F8B [0x45] LOAD_SCHEDULED_TASK: Load scheduler "s097" with entities [EventEntity, EventEntity], work=[532*, 0*]
275: 0x0F9C [0x1C] WAIT(150* ticks)
276: 0x0F9F [0x45] LOAD_SCHEDULED_TASK: Load scheduler "ovl1" with entities [LocalPlayer, LocalPlayer], work=[200*, 0*]
277: 0x0FB0 [0x52] END_LOAD_SCHEDULER: End scheduler "s097" with entities [EventEntity, EventEntity], work=532*
278: 0x0FBF [0x45] LOAD_SCHEDULED_TASK: Load scheduler "s098" with entities [EventEntity, EventEntity], work=[532*, 0*]
279: 0x0FD0 [0xBB] LOAD_EVENT_SCHEDULER_ALT: Load scheduler "trg0" with entities [Lilisette (ID: 17122199/0x01054397), Lilisette (ID: 17122199/0x01054397)], work=[10*, 0*]
280: 0x0FE1 [0x1C] WAIT(90* ticks)
281: 0x0FE4 [0x27] REQ_SET(priority=0x05, entity_id=Lilisette (ID: 17122199/0x01054397), tag_num=0x1A)
282: 0x0FEB [0x1C] WAIT(15* ticks)
283: 0x0FEE [0x81] SET_ENTITY_BLINKING(blink_flag=0x00, entity=Lilisette (ID: 17122199/0x01054397))
284: 0x0FF4 [0x5B] LOAD_EXT_SCHEDULER: Load scheduler "yah0" with entities [Lilisette (ID: 17122199/0x01054397), Lilisette (ID: 17122199/0x01054397)], work=2128*
285: 0x1003 [0x1C] WAIT(15* ticks)
286: 0x1006 [0x52] END_LOAD_SCHEDULER: End scheduler "s098" with entities [EventEntity, EventEntity], work=532*
287: 0x1015 [0x45] LOAD_SCHEDULED_TASK: Load scheduler "s099" with entities [EventEntity, EventEntity], work=[532*, 0*]
288: 0x1026 [0x1C] WAIT(120* ticks)
289: 0x1029 [0x5D] SET_MUSIC_VOLUME(volume=0*, fade_time=120*)
290: 0x102E [0x45] LOAD_SCHEDULED_TASK: Load scheduler "who1" with entities [LocalPlayer, LocalPlayer], work=[201*, 0*]
291: 0x103F [0x45] LOAD_SCHEDULED_TASK: Load scheduler "efof" with entities [LocalPlayer, LocalPlayer], work=[215*, 0*]
292: 0x1050 [0x55] WAIT_LOAD_SCHEDULER: Wait for scheduler "who1" with entities [LocalPlayer, LocalPlayer], work=201*
293: 0x105F [0x52] END_LOAD_SCHEDULER: End scheduler "s099" with entities [EventEntity, EventEntity], work=532*
294: 0x106E [0x7E] CHOCOBO_MOUNT: Dismount Noillurie (ID: 17122251/0x010543CB) (status = 0)
295: 0x1074 [0x6B] STOP_AND_IDLE: Chimene (ID: 17122252/0x010543CC) stops current action and resets to idle (animation="idl0")
296: 0x107D [0x4E] SET_ENTITY_HIDE_FLAG: Hide Lilisette (ID: 17122199/0x01054397)
297: 0x1083 [0x4E] SET_ENTITY_HIDE_FLAG: Hide Portia (ID: 17122244/0x010543C4)
298: 0x1089 [0x4E] SET_ENTITY_HIDE_FLAG: Hide Ragelise (ID: 17122200/0x01054398)
299: 0x108F [0x4E] SET_ENTITY_HIDE_FLAG: Hide Unnamed NPC (ID: 17122255/0x010543CF)
300: 0x1095 [0x4E] SET_ENTITY_HIDE_FLAG: Hide Noillurie (ID: 17122251/0x010543CB)
301: 0x109B [0x4E] SET_ENTITY_HIDE_FLAG: Show Unnamed NPC (ID: 17122253/0x010543CD)
302: 0x10A1 [0x4E] SET_ENTITY_HIDE_FLAG: Show Unnamed NPC (ID: 17122254/0x010543CE)
303: 0x10A7 [0x4E] SET_ENTITY_HIDE_FLAG: Show Unnamed NPC (ID: 17122207/0x0105439F)
304: 0x10AD [0x4E] SET_ENTITY_HIDE_FLAG: Show Gutrender Trooper (ID: 17122205/0x0105439D)
305: 0x10B3 [0x4E] SET_ENTITY_HIDE_FLAG: Show Gutrender Trooper (ID: 17122206/0x0105439E)
306: 0x10B9 [0x22] ENTITY_HIDE_FLAG(enabled=0x00)
307: 0x10BB [0x27] REQ_SET(priority=0x05, entity_id=LocalPlayer, tag_num=0x3F)
308: 0x10C2 [0xB6] ENTITY_APPEARANCE_HANDLER(case=Hair style, value=326*)
309: 0x10C6 [0x4E] SET_ENTITY_HIDE_FLAG: Show Noillurie (ID: 17122250/0x010543CA)
310: 0x10CC [0x94] Noillurie (ID: 17122250/0x010543CA)->Render.Flags3 ^= 0x01
311: 0x10D2 [0x59] UPDATE_ENTITY_DATA: Unnamed NPC (ID: 17122207/0x0105439F)->Render.Flags0 |= 0x200000
312: 0x10D9 [0x59] UPDATE_ENTITY_DATA: ??? (ID: 17122197/0x01054395)->Render.Flags0 |= 0x200000
313: 0x10E0 [0x37] UPDATE_EVENT_POSITION_AND_DIR: x=386.097*, z=-258.306*, y=8.288*, direction=217.6°*
314: 0x10E9 [0xBA] SET_ENTITY_POSITION(entity_id=??? (ID: 17122197/0x01054395), pos_x=386.097*, pos_z=-258.306*, pos_y=7.800*, direction=217.6°*)
315: 0x10F6 [0xBA] SET_ENTITY_POSITION(entity_id=Unnamed NPC (ID: 17122207/0x0105439F), pos_x=365.202*, pos_z=-254.315*, pos_y=8.727*, direction=175.5°*)
316: 0x1103 [0xBA] SET_ENTITY_POSITION(entity_id=Noillurie (ID: 17122250/0x010543CA), pos_x=363.792*, pos_z=-257.196*, pos_y=8.859*, direction=281.9°*)
317: 0x1110 [0xBA] SET_ENTITY_POSITION(entity_id=LocalPlayer, pos_x=386.878*, pos_z=-259.113*, pos_y=8.325*, direction=217.6°*)
318: 0x111D [0x80] LOAD_WAIT(entity=Unnamed NPC (ID: 17122253/0x010543CD))
319: 0x1122 [0x80] LOAD_WAIT(entity=Unnamed NPC (ID: 17122254/0x010543CE))
320: 0x1127 [0x80] LOAD_WAIT(entity=Noillurie (ID: 17122250/0x010543CA))
321: 0x112C [0x80] LOAD_WAIT(entity=Unnamed NPC (ID: 17122207/0x0105439F))
322: 0x1131 [0x80] LOAD_WAIT(entity=Gutrender Trooper (ID: 17122205/0x0105439D))
323: 0x1136 [0x80] LOAD_WAIT(entity=Gutrender Trooper (ID: 17122206/0x0105439E))
324: 0x113B [0x80] LOAD_WAIT(entity=EventEntity)
325: 0x1140 [0x80] LOAD_WAIT(entity=LocalPlayer)
326: 0x1145 [0x1C] WAIT(30* ticks)
327: 0x1148 [0x45] LOAD_SCHEDULED_TASK: Load scheduler "s100" with entities [EventEntity, EventEntity], work=[532*, 0*]
328: 0x1159 [0x1C] WAIT(15* ticks)
329: 0x115C [0x45] LOAD_SCHEDULED_TASK: Load scheduler "whi1" with entities [LocalPlayer, LocalPlayer], work=[201*, 0*]
330: 0x116D [0x1C] WAIT(20* ticks)
331: 0x1170 [0xCD] LOAD_SCHEDULED_TASK_ALT4: Load scheduler "a000" with entities [LocalPlayer, EventEntity], work=[90*, 0*]
332: 0x1181 [0x1C] WAIT(100* ticks)
333: 0x1184 [0x79] LocalPlayer looks at ??? (ID: 17122197/0x01054395) (Basic look)
334: 0x118E [0x52] END_LOAD_SCHEDULER: End scheduler "s100" with entities [EventEntity, EventEntity], work=532*
335: 0x119D [0x02] IF !(LocalPlayer->Race == 3*) GOTO 0x11B9
336: 0x11A5 [0x45] LOAD_SCHEDULED_TASK: Load scheduler "s117" with entities [EventEntity, EventEntity], work=[532*, 0*]
337: 0x11B6 [0x01] GOTO 0x123A
338: 0x11B9 [0x02] IF !(LocalPlayer->Race == 4*) GOTO 0x11D5
339: 0x11C1 [0x45] LOAD_SCHEDULED_TASK: Load scheduler "s117" with entities [EventEntity, EventEntity], work=[532*, 0*]
340: 0x11D2 [0x01] GOTO 0x123A
341: 0x11D5 [0x02] IF !(LocalPlayer->Race == 5*) GOTO 0x11F1
342: 0x11DD [0x45] LOAD_SCHEDULED_TASK: Load scheduler "s118" with entities [EventEntity, EventEntity], work=[532*, 0*]
343: 0x11EE [0x01] GOTO 0x123A
344: 0x11F1 [0x02] IF !(LocalPlayer->Race == 6*) GOTO 0x120D
345: 0x11F9 [0x45] LOAD_SCHEDULED_TASK: Load scheduler "s118" with entities [EventEntity, EventEntity], work=[532*, 0*]
346: 0x120A [0x01] GOTO 0x123A
347: 0x120D [0x02] IF !(LocalPlayer->Race == 8*) GOTO 0x1229
348: 0x1215 [0x45] LOAD_SCHEDULED_TASK: Load scheduler "s117" with entities [EventEntity, EventEntity], work=[532*, 0*]
349: 0x1226 [0x01] GOTO 0x123A
350: 0x1229 [0x45] LOAD_SCHEDULED_TASK: Load scheduler "s116" with entities [EventEntity, EventEntity], work=[532*, 0*]

SUBROUTINE_123A:
351: 0x123A [0xCD] LOAD_SCHEDULED_TASK_ALT4: Load scheduler "a001" with entities [LocalPlayer, EventEntity], work=[90*, 0*]
352: 0x124B [0x1C] WAIT(60* ticks)
353: 0x124E [0xCD] LOAD_SCHEDULED_TASK_ALT4: Load scheduler "a002" with entities [LocalPlayer, EventEntity], work=[90*, 0*]
354: 0x125F [0x1C] WAIT(30* ticks)
355: 0x1262 [0x5C] MUSIC_CONTROL: Set Idle (Day) music to song 163*
356: 0x1266 [0x5C] MUSIC_CONTROL: Set Idle (Night) music to song 163*
357: 0x126A [0x9A] WAIT_MUSIC_SERVER()
358: 0x126B [0x27] REQ_SET(priority=0x05, entity_id=Chimene (ID: 17122252/0x010543CC), tag_num=0x03)
359: 0x1272 [0x1C] WAIT(30* ticks)
360: 0x1275 [0x52] END_LOAD_SCHEDULER: End scheduler "s116" with entities [EventEntity, EventEntity], work=532*
361: 0x1284 [0x52] END_LOAD_SCHEDULER: End scheduler "s117" with entities [EventEntity, EventEntity], work=532*
362: 0x1293 [0x52] END_LOAD_SCHEDULER: End scheduler "s118" with entities [EventEntity, EventEntity], work=532*
363: 0x12A2 [0x45] LOAD_SCHEDULED_TASK: Load scheduler "s101" with entities [EventEntity, EventEntity], work=[532*, 0*]
364: 0x12B3 [0x79] LocalPlayer looks at Chimene (ID: 17122252/0x010543CC) (Basic look)
365: 0x12BD [0x37] UPDATE_EVENT_POSITION_AND_DIR: x=364.575*, z=-257.626*, y=7.851*, direction=217.6°*
366: 0x12C6 [0x1C] WAIT(120* ticks)
367: 0x12C9 [0x52] END_LOAD_SCHEDULER: End scheduler "s101" with entities [EventEntity, EventEntity], work=532*
368: 0x12D8 [0x45] LOAD_SCHEDULED_TASK: Load scheduler "s102" with entities [EventEntity, EventEntity], work=[532*, 0*]
369: 0x12E9 [0x5B] LOAD_EXT_SCHEDULER: Load scheduler "ser0" with entities [Unnamed NPC (ID: 17122253/0x010543CD), Unnamed NPC (ID: 17122253/0x010543CD)], work=1433*
370: 0x12F8 [0x2B] Chimene (ID: 17122252/0x010543CC) [8414*]:
    → "Sir Noillurie!"
371: 0x12FF [0x1C] WAIT(30* ticks)
372: 0x1302 [0x4A] Noillurie (ID: 17122250/0x010543CA) looks at Chimene (ID: 17122252/0x010543CC)
373: 0x130B [0x1C] WAIT(30* ticks)
374: 0x130E [0x2A] GET_REQ_LEVEL(level=5, entity_id=Chimene (ID: 17122252/0x010543CC))
375: 0x1314 [0x23] WAIT_FOR_DIALOG_INTERACTION
376: 0x1315 [0x52] END_LOAD_SCHEDULER: End scheduler "s102" with entities [EventEntity, EventEntity], work=532*
377: 0x1324 [0x45] LOAD_SCHEDULED_TASK: Load scheduler "s103" with entities [EventEntity, EventEntity], work=[532*, 0*]
378: 0x1335 [0x66] LOAD_EXT_SCHEDULER_MAIN: Load scheduler "sha0" with entities [Chimene (ID: 17122252/0x010543CC), Chimene (ID: 17122252/0x010543CC)], work=39*
379: 0x1344 [0x2B] Chimene (ID: 17122252/0x010543CC) [8415*]:
    → "I've, um...brought the martial rice balls as bade, sir!"
380: 0x134B [0x23] WAIT_FOR_DIALOG_INTERACTION
381: 0x134C [0x53] WAIT_SCHEDULER_TASK: Wait for scheduler "sha0" with entities [Chimene (ID: 17122252/0x010543CC), Chimene (ID: 17122252/0x010543CC)]
382: 0x1359 [0x52] END_LOAD_SCHEDULER: End scheduler "s103" with entities [EventEntity, EventEntity], work=532*
383: 0x1368 [0x45] LOAD_SCHEDULED_TASK: Load scheduler "s104" with entities [EventEntity, EventEntity], work=[532*, 0*]
384: 0x1379 [0x7C] Noillurie (ID: 17122250/0x010543CA)->Render.Flags2 |= 0x00
385: 0x137F [0x2B] Noillurie (ID: 17122250/0x010543CA) [8416*]:
    → "..."
386: 0x1386 [0x23] WAIT_FOR_DIALOG_INTERACTION
387: 0x1387 [0x7C] Noillurie (ID: 17122250/0x010543CA)->Render.Flags2 |= 0x01
388: 0x138D [0x52] END_LOAD_SCHEDULER: End scheduler "s104" with entities [EventEntity, EventEntity], work=532*
389: 0x139C [0x45] LOAD_SCHEDULED_TASK: Load scheduler "s105" with entities [EventEntity, EventEntity], work=[532*, 0*]
390: 0x13AD [0x79] Chimene (ID: 17122252/0x010543CC) looks at EventEntity (Basic look)
391: 0x13B7 [0x2B] Chimene (ID: 17122252/0x010543CC) [8417*]:
    → "You...did request them...I hope?"
392: 0x13BE [0x23] WAIT_FOR_DIALOG_INTERACTION
393: 0x13BF [0x52] END_LOAD_SCHEDULER: End scheduler "s105" with entities [EventEntity, EventEntity], work=532*
394: 0x13CE [0x45] LOAD_SCHEDULED_TASK: Load scheduler "s106" with entities [EventEntity, EventEntity], work=[532*, 0*]
395: 0x13DF [0x27] REQ_SET(priority=0x05, entity_id=Noillurie (ID: 17122250/0x010543CA), tag_num=0x02)
396: 0x13E6 [0x2B] Noillurie (ID: 17122250/0x010543CA) [8418*]:
    → "Aye, no mistake about it. I was under the impression, however, that they would arrive a deal sooner. "At once" were the words you used, were they not?"
397: 0x13ED [0x23] WAIT_FOR_DIALOG_INTERACTION
398: 0x13EE [0x2B] Chimene (ID: 17122252/0x010543CC) [8419*]:
    → "Th-they were, sir!"
399: 0x13F5 [0x23] WAIT_FOR_DIALOG_INTERACTION
400: 0x13F6 [0x2A] GET_REQ_LEVEL(level=5, entity_id=Noillurie (ID: 17122250/0x010543CA))
401: 0x13FC [0x52] END_LOAD_SCHEDULER: End scheduler "s106" with entities [EventEntity, EventEntity], work=532*
402: 0x140B [0x45] LOAD_SCHEDULED_TASK: Load scheduler "s107" with entities [EventEntity, EventEntity], work=[532*, 0*]
403: 0x141C [0x2B] Noillurie (ID: 17122250/0x010543CA) [8420*]:
    → "On account of your tardiness, the Red Roses were left with no recourse but to the fight the enemy on empty stomachs. Your peers shan't look kindly upon this, do not doubt it."
404: 0x1423 [0x23] WAIT_FOR_DIALOG_INTERACTION
405: 0x1424 [0x52] END_LOAD_SCHEDULER: End scheduler "s107" with entities [EventEntity, EventEntity], work=532*
406: 0x1433 [0x45] LOAD_SCHEDULED_TASK: Load scheduler "s108" with entities [EventEntity, EventEntity], work=[532*, 0*]
407: 0x1444 [0x7C] Chimene (ID: 17122252/0x010543CC)->Render.Flags2 |= 0x00
408: 0x144A [0x2B] Chimene (ID: 17122252/0x010543CC) [8421*]:
    → "...!"
409: 0x1451 [0x23] WAIT_FOR_DIALOG_INTERACTION
410: 0x1452 [0x7C] Chimene (ID: 17122252/0x010543CC)->Render.Flags2 |= 0x01
411: 0x1458 [0x52] END_LOAD_SCHEDULER: End scheduler "s108" with entities [EventEntity, EventEntity], work=532*
412: 0x1467 [0x45] LOAD_SCHEDULED_TASK: Load scheduler "s109" with entities [EventEntity, EventEntity], work=[532*, 0*]
413: 0x1478 [0x27] REQ_SET(priority=0x05, entity_id=Noillurie (ID: 17122250/0x010543CA), tag_num=0x03)
414: 0x147F [0x7B] Chimene (ID: 17122252/0x010543CC) stops talking
415: 0x1484 [0x2B] Chimene (ID: 17122252/0x010543CC) [8422*]:
    → "F-forgive me, sir! Our supply of relish had been exhausted, and--"
416: 0x148B [0x23] WAIT_FOR_DIALOG_INTERACTION
417: 0x148C [0x2B] Noillurie (ID: 17122250/0x010543CA) [8423*]:
    → "Spare me your excuses. Be reminded that this isn't the first time you've vexed me in matters pertaining to rice balls."
418: 0x1493 [0x23] WAIT_FOR_DIALOG_INTERACTION
419: 0x1494 [0x2A] GET_REQ_LEVEL(level=5, entity_id=Noillurie (ID: 17122250/0x010543CA))
420: 0x149A [0x52] END_LOAD_SCHEDULER: End scheduler "s109" with entities [EventEntity, EventEntity], work=532*
421: 0x14A9 [0x45] LOAD_SCHEDULED_TASK: Load scheduler "s110" with entities [EventEntity, EventEntity], work=[532*, 0*]
422: 0x14BA [0x2B] Noillurie (ID: 17122250/0x010543CA) [8424*]:
    → "What manner of punishment would be apt to mend you of your chronic untimeliness, I wonder..."
423: 0x14C1 [0x23] WAIT_FOR_DIALOG_INTERACTION
424: 0x14C2 [0x52] END_LOAD_SCHEDULER: End scheduler "s110" with entities [EventEntity, EventEntity], work=532*
425: 0x14D1 [0x45] LOAD_SCHEDULED_TASK: Load scheduler "s111" with entities [EventEntity, EventEntity], work=[532*, 0*]
426: 0x14E2 [0x66] LOAD_EXT_SCHEDULER_MAIN: Load scheduler "sha1" with entities [Chimene (ID: 17122252/0x010543CC), Chimene (ID: 17122252/0x010543CC)], work=39*
427: 0x14F1 [0x2B] Chimene (ID: 17122252/0x010543CC) [8425*]:
    → "Punishment!? M-mercy, Sir Noillurie!"
428: 0x14F8 [0x53] WAIT_SCHEDULER_TASK: Wait for scheduler "sha1" with entities [Chimene (ID: 17122252/0x010543CC), Chimene (ID: 17122252/0x010543CC)]
429: 0x1505 [0x6E] Chimene (ID: 17122252/0x010543CC) uses emote 6*
430: 0x150C [0x99] Wait for Chimene (ID: 17122252/0x010543CC) animation to complete
431: 0x1511 [0x1C] WAIT(90* ticks)
432: 0x1514 [0x23] WAIT_FOR_DIALOG_INTERACTION
433: 0x1515 [0x52] END_LOAD_SCHEDULER: End scheduler "s111" with entities [EventEntity, EventEntity], work=532*
434: 0x1524 [0x45] LOAD_SCHEDULED_TASK: Load scheduler "s112" with entities [EventEntity, EventEntity], work=[532*, 0*]
435: 0x1535 [0x27] REQ_SET(priority=0x05, entity_id=Chimene (ID: 17122252/0x010543CC), tag_num=0x04)
436: 0x153C [0x1C] WAIT(180* ticks)
437: 0x153F [0x5D] SET_MUSIC_VOLUME(volume=0*, fade_time=120*)
438: 0x1544 [0x1A] CALL_SUBROUTINE(address=0x0064)
439: 0x1547 [0x1C] WAIT(30* ticks)
440: 0x154A [0x52] END_LOAD_SCHEDULER: End scheduler "s112" with entities [EventEntity, EventEntity], work=532*
441: 0x1559 [0x5B] LOAD_EXT_SCHEDULER: Load scheduler "ker0" with entities [Unnamed NPC (ID: 17122253/0x010543CD), Unnamed NPC (ID: 17122253/0x010543CD)], work=1433*
442: 0x1568 [0x45] LOAD_SCHEDULED_TASK: Load scheduler "qstc" with entities [LocalPlayer, LocalPlayer], work=[201*, 0*]
443: 0x1579 [0xB6] ENTITY_APPEARANCE_HANDLER(case=Hair style, value=52*)
444: 0x157D [0x46] CAMERA_CONTROL: Restore default settings
445: 0x157F [0x1C] WAIT(60* ticks)
446: 0x1582 [0x45] LOAD_SCHEDULED_TASK: Load scheduler "fdi2" with entities [LocalPlayer, LocalPlayer], work=[200*, 0*]
447: 0x1593 [0x21] END_EVENT
448: 0x1594 [0x00] END_REQSTACK()
```
