# 17122252 - Chimene

## Common Data

| Field            | Value                       |
|------------------|-----------------------------|
| Zone             | Batallia Downs [S] (ID: 84) |
| Block Size       | 204 bytes                   |
| Total Events     | 5                           |
| References Count | 17                          |

## List of Events

| Event ID                 | Entrypoint   |   Size |   Instructions |
|--------------------------|--------------|--------|----------------|
| [65535](#event-65535)    | 0x0000       |      1 |              1 |
| [24](#event-24)          | 0x0001       |      7 |              2 |
| [65535.1](#event-655351) | 0x0008       |     22 |              6 |
| [65535.2](#event-655352) | 0x001E       |     22 |              6 |
| [65535.3](#event-655353) | 0x0034       |     47 |             11 |

## DAT References (imed_data)

|   Index | Hex Value   |   Dec Value |
|---------|-------------|-------------|
|       0 | 0x0028      |          40 |
|       1 | 0x5D344     |      381764 |
|       2 | 0xFFFC0551  |  4294706513 |
|       3 | 0x1FD4      |        8148 |
|       4 | 0x001E      |          30 |
|       5 | 0x59EC8     |      368328 |
|       6 | 0xFFFC0E46  |  4294708806 |
|       7 | 0x223B      |        8763 |
|       8 | 0x0032      |          50 |
|       9 | 0x589BE     |      362942 |
|      10 | 0xFFFC0C8D  |  4294708365 |
|      11 | 0x22F1      |        8945 |
|      12 | 0x58782     |      362370 |
|      13 | 0xFFFC1411  |  4294710289 |
|      14 | 0x2292      |        8850 |
|      15 | 0x0016      |          22 |
|      16 | 0x005A      |          90 |

## Events

### Event 65535

#### Metadata

| Field        | Value   |
|--------------|---------|
| Entrypoint   | 0x0000  |
| Data Size    | 1 bytes |
| Instructions | 1       |

```
      00 01 02 03 04 05 06 07  08 09 0A 0B 0C 0D 0E 0F
      -- -- -- -- -- -- -- --  -- -- -- -- -- -- -- --
0000: 00                                                .               
```

#### Opcodes

```
  0: 0x0000 [0x00] END_REQSTACK()
```

### Event 24

#### Metadata

| Field        | Value   |
|--------------|---------|
| Entrypoint   | 0x0001  |
| Data Size    | 7 bytes |
| Instructions | 2       |

```
      00 01 02 03 04 05 06 07  08 09 0A 0B 0C 0D 0E 0F
      -- -- -- -- -- -- -- --  -- -- -- -- -- -- -- --
0000:    92 01 F8 FF FF 7F 00                            .......        
```

#### Opcodes

```
  0: 0x0001 [0x92] EventEntity->Render.Flags3 ^= 0x01
  1: 0x0007 [0x00] END_REQSTACK()
```

### Event 65535.1

#### Metadata

| Field        | Value    |
|--------------|----------|
| Entrypoint   | 0x0008   |
| Data Size    | 22 bytes |
| Instructions | 6        |

```
      00 01 02 03 04 05 06 07  08 09 0A 0B 0C 0D 0E 0F
      -- -- -- -- -- -- -- --  -- -- -- -- -- -- -- --
0000:                          32 00 80 1F 00 01 80 02          2.......
0010: 80 03 80 1F 01 1E CB 43  05 01 1C 04 80 00        .......C......  
```

#### Opcodes

```
  0: 0x0008 [0x32] ExtData[1]->MainSpeed = 40* * 0.1
  1: 0x000B [0x1F] MOVE_ENTITY: EventEntity moves to X=381.764*, Z=-260.783*, Y=8.148*
  2: 0x0013 [0x1F] MOVE_ENTITY: Update entity position (mode=1)
  3: 0x0015 [0x1E] EventEntity looks at Noillurie (ID: 17122251/0x010543CB) and starts talking
  4: 0x001A [0x1C] WAIT(30* ticks)
  5: 0x001D [0x00] END_REQSTACK()
```

### Event 65535.2

#### Metadata

| Field        | Value    |
|--------------|----------|
| Entrypoint   | 0x001E   |
| Data Size    | 22 bytes |
| Instructions | 6        |

```
      00 01 02 03 04 05 06 07  08 09 0A 0B 0C 0D 0E 0F
      -- -- -- -- -- -- -- --  -- -- -- -- -- -- -- --
0010:                                            32 00                2.
0020: 80 1F 00 05 80 06 80 07  80 1F 01 1E CA 43 05 01  .............C..
0030: 1C 04 80 00                                       ....            
```

#### Opcodes

```
  0: 0x001E [0x32] ExtData[1]->MainSpeed = 40* * 0.1
  1: 0x0021 [0x1F] MOVE_ENTITY: EventEntity moves to X=368.328*, Z=-258.490*, Y=8.763*
  2: 0x0029 [0x1F] MOVE_ENTITY: Update entity position (mode=1)
  3: 0x002B [0x1E] EventEntity looks at Noillurie (ID: 17122250/0x010543CA) and starts talking
  4: 0x0030 [0x1C] WAIT(30* ticks)
  5: 0x0033 [0x00] END_REQSTACK()
```

### Event 65535.3

#### Metadata

| Field        | Value    |
|--------------|----------|
| Entrypoint   | 0x0034   |
| Data Size    | 47 bytes |
| Instructions | 11       |

```
      00 01 02 03 04 05 06 07  08 09 0A 0B 0C 0D 0E 0F
      -- -- -- -- -- -- -- --  -- -- -- -- -- -- -- --
0030:             32 08 80 1F  00 09 80 0A 80 0B 80 1F      2...........
0040: 01 1F 00 0C 80 0D 80 0E  80 1F 01 1E CA 43 05 01  .............C..
0050: 1C 04 80 6E F8 FF FF 7F  0F 80 99 F8 FF FF 7F 1C  ...n............
0060: 10 80 00                                          ...             
```

#### Opcodes

```
  0: 0x0034 [0x32] ExtData[1]->MainSpeed = 50* * 0.1
  1: 0x0037 [0x1F] MOVE_ENTITY: EventEntity moves to X=362.942*, Z=-258.931*, Y=8.945*
  2: 0x003F [0x1F] MOVE_ENTITY: Update entity position (mode=1)
  3: 0x0041 [0x1F] MOVE_ENTITY: EventEntity moves to X=362.370*, Z=-257.007*, Y=8.850*
  4: 0x0049 [0x1F] MOVE_ENTITY: Update entity position (mode=1)
  5: 0x004B [0x1E] EventEntity looks at Noillurie (ID: 17122250/0x010543CA) and starts talking
  6: 0x0050 [0x1C] WAIT(30* ticks)
  7: 0x0053 [0x6E] EventEntity uses emote 22*
  8: 0x005A [0x99] Wait for EventEntity animation to complete
  9: 0x005F [0x1C] WAIT(90* ticks)
 10: 0x0062 [0x00] END_REQSTACK()
```
