# 17122148 - Lysander

## Common Data

| Field            | Value                       |
|------------------|-----------------------------|
| Zone             | Batallia Downs [S] (ID: 84) |
| Block Size       | 1292 bytes                  |
| Total Events     | 43                          |
| References Count | 113                         |

## List of Events

| Event ID                   | Entrypoint   |   Size |   Instructions |
|----------------------------|--------------|--------|----------------|
| [65535](#event-65535)      | 0x0000       |      1 |              1 |
| [65535.1](#event-655351)   | 0x0001       |      1 |              1 |
| [65535.2](#event-655352)   | 0x0002       |     18 |              4 |
| [65535.3](#event-655353)   | 0x0014       |     10 |              2 |
| [65535.4](#event-655354)   | 0x001E       |      9 |              3 |
| [65535.5](#event-655355)   | 0x0027       |      9 |              3 |
| [65535.6](#event-655356)   | 0x0030       |     10 |              2 |
| [65535.7](#event-655357)   | 0x003A       |     10 |              2 |
| [700](#event-700)          | 0x0044       |      1 |              1 |
| [65535.8](#event-655358)   | 0x0045       |     25 |              3 |
| [65535.9](#event-655359)   | 0x005E       |      7 |              2 |
| [65535.10](#event-6553510) | 0x0065       |     18 |              6 |
| [65535.11](#event-6553511) | 0x0077       |     31 |              9 |
| [65535.12](#event-6553512) | 0x0096       |     15 |              5 |
| [65535.13](#event-6553513) | 0x00A5       |     15 |              5 |
| [65535.14](#event-6553514) | 0x00B4       |     15 |              5 |
| [65535.15](#event-6553515) | 0x00C3       |     15 |              5 |
| [65535.16](#event-6553516) | 0x00D2       |     15 |              5 |
| [65535.17](#event-6553517) | 0x00E1       |     15 |              5 |
| [65535.18](#event-6553518) | 0x00F0       |     31 |              9 |
| [65535.19](#event-6553519) | 0x010F       |     15 |              5 |
| [65535.20](#event-6553520) | 0x011E       |     15 |              5 |
| [65535.21](#event-6553521) | 0x012D       |     15 |              5 |
| [65535.22](#event-6553522) | 0x013C       |     15 |              5 |
| [65535.23](#event-6553523) | 0x014B       |     15 |              5 |
| [65535.24](#event-6553524) | 0x015A       |     15 |              5 |
| [65535.25](#event-6553525) | 0x0169       |     31 |              9 |
| [65535.26](#event-6553526) | 0x0188       |     15 |              5 |
| [65535.27](#event-6553527) | 0x0197       |     15 |              5 |
| [65535.28](#event-6553528) | 0x01A6       |     15 |              5 |
| [65535.29](#event-6553529) | 0x01B5       |     15 |              5 |
| [65535.30](#event-6553530) | 0x01C4       |     15 |              5 |
| [65535.31](#event-6553531) | 0x01D3       |     15 |              5 |
| [65535.32](#event-6553532) | 0x01E2       |     34 |              8 |
| [65535.33](#event-6553533) | 0x0204       |      1 |              1 |
| [65535.34](#event-6553534) | 0x0205       |     24 |              6 |
| [65535.35](#event-6553535) | 0x021D       |     54 |             10 |
| [20](#event-20)            | 0x0253       |      1 |              1 |
| [65535.36](#event-6553536) | 0x0254       |     14 |              4 |
| [65535.37](#event-6553537) | 0x0262       |     13 |              3 |
| [3](#event-3)              | 0x026F       |      1 |              1 |
| [65535.38](#event-6553538) | 0x0270       |     14 |              4 |
| [65535.39](#event-6553539) | 0x027E       |     14 |              4 |

## DAT References (imed_data)

|   Index | Hex Value   |   Dec Value |
|---------|-------------|-------------|
|       0 | 0x0000      |           0 |
|       1 | 0x0001      |           1 |
|       2 | 0x0080      |         128 |
|       3 | 0x000F      |          15 |
|       4 | 0x0050      |          80 |
|       5 | 0xFFFE36DC  |  4294850268 |
|       6 | 0x13C6A     |       81002 |
|       7 | 0xFFFFE0C1  |  4294959297 |
|       8 | 0x002D      |          45 |
|       9 | 0xFFFF62C0  |  4294927040 |
|      10 | 0x6367D     |      407165 |
|      11 | 0x009C      |         156 |
|      12 | 0x001B      |          27 |
|      13 | 0xFFFF62AC  |  4294927020 |
|      14 | 0x63D49     |      408905 |
|      15 | 0x00F3      |         243 |
|      16 | 0x0011      |          17 |
|      17 | 0xFFFF62EC  |  4294927084 |
|      18 | 0x6672B     |      419627 |
|      19 | 0x03D4      |         980 |
|      20 | 0x000B      |          11 |
|      21 | 0xFFFF59AE  |  4294924718 |
|      22 | 0x690BA     |      430266 |
|      23 | 0x011C      |         284 |
|      24 | 0x0028      |          40 |
|      25 | 0xFFFF47FB  |  4294920187 |
|      26 | 0x6AA9C     |      436892 |
|      27 | 0x009A      |         154 |
|      28 | 0xFFFF3A40  |  4294916672 |
|      29 | 0x6ABEA     |      437226 |
|      30 | 0x0149      |         329 |
|      31 | 0x000D      |          13 |
|      32 | 0xFFFF4900  |  4294920448 |
|      33 | 0x69CFF     |      433407 |
|      34 | 0x0034      |          52 |
|      35 | 0xFFFF6049  |  4294926409 |
|      36 | 0x684B6     |      427190 |
|      37 | 0x01DC      |         476 |
|      38 | 0xFFFD4C96  |  4294790294 |
|      39 | 0x5740B     |      357387 |
|      40 | 0x2291      |        8849 |
|      41 | 0xFFFD3AE9  |  4294785769 |
|      42 | 0x574CE     |      357582 |
|      43 | 0x22DB      |        8923 |
|      44 | 0xFFFD1A64  |  4294777444 |
|      45 | 0x57458     |      357464 |
|      46 | 0x2071      |        8305 |
|      47 | 0xFFFD051E  |  4294771998 |
|      48 | 0x5767C     |      358012 |
|      49 | 0x1F61      |        8033 |
|      50 | 0xFFFCF1DF  |  4294767071 |
|      51 | 0x5844E     |      361550 |
|      52 | 0x1F3F      |        7999 |
|      53 | 0xFFFD051F  |  4294771999 |
|      54 | 0x5911C     |      364828 |
|      55 | 0x1F8A      |        8074 |
|      56 | 0xFFFD10B7  |  4294774967 |
|      57 | 0x5879C     |      362396 |
|      58 | 0x1FF5      |        8181 |
|      59 | 0xFFFD1D8B  |  4294778251 |
|      60 | 0x57861     |      358497 |
|      61 | 0x2099      |        8345 |
|      62 | 0x63342     |      406338 |
|      63 | 0xFFFCCBF2  |  4294757362 |
|      64 | 0x3DCD      |       15821 |
|      65 | 0x618CB     |      399563 |
|      66 | 0xFFFCBE13  |  4294753811 |
|      67 | 0x40A0      |       16544 |
|      68 | 0x5FFC3     |      393155 |
|      69 | 0xFFFCB1AC  |  4294750636 |
|      70 | 0x40DD      |       16605 |
|      71 | 0x5ED52     |      388434 |
|      72 | 0xFFFCAE90  |  4294749840 |
|      73 | 0x3F4F      |       16207 |
|      74 | 0x5E19C     |      385436 |
|      75 | 0xFFFCC524  |  4294755620 |
|      76 | 0x3F14      |       16148 |
|      77 | 0x5E756     |      386902 |
|      78 | 0xFFFCB6F6  |  4294751990 |
|      79 | 0x3ECC      |       16076 |
|      80 | 0x5F697     |      390807 |
|      81 | 0xFFFCB8B4  |  4294752436 |
|      82 | 0x4024      |       16420 |
|      83 | 0x60441     |      394305 |
|      84 | 0xFFFCBA98  |  4294752920 |
|      85 | 0x40EC      |       16620 |
|      86 | 0x0005      |           5 |
|      87 | 0x36B5E     |      224094 |
|      88 | 0x1D1F7     |      119287 |
|      89 | 0x227E      |        8830 |
|      90 | 0x15C8      |        5576 |
|      91 | 0x14923     |       84259 |
|      92 | 0x004D      |          77 |
|      93 | 0x083E      |        2110 |
|      94 | 0x64DD      |       25821 |
|      95 | 0xFA23      |       64035 |
|      96 | 0x07CB      |        1995 |
|      97 | 0x73A4      |       29604 |
|      98 | 0xFA1D      |       64029 |
|      99 | 0x07C7      |        1991 |
|     100 | 0x5556      |       21846 |
|     101 | 0xFC78      |       64632 |
|     102 | 0x07CF      |        1999 |
|     103 | 0x001E      |          30 |
|     104 | 0xFFFFC3C7  |  4294951879 |
|     105 | 0xFFFFDA80  |  4294957696 |
|     106 | 0x0BB7      |        2999 |
|     107 | 0x002B      |          43 |
|     108 | 0xFFFF3DA5  |  4294917541 |
|     109 | 0xFFFED77A  |  4294891386 |
|     110 | 0x176F      |        5999 |
|     111 | 0xFFFEF6A6  |  4294899366 |
|     112 | 0xFFFE5FB8  |  4294860728 |

## Events

### Event 65535

#### Metadata

| Field        | Value   |
|--------------|---------|
| Entrypoint   | 0x0000  |
| Data Size    | 1 bytes |
| Instructions | 1       |

```
      00 01 02 03 04 05 06 07  08 09 0A 0B 0C 0D 0E 0F
      -- -- -- -- -- -- -- --  -- -- -- -- -- -- -- --
0000: 00                                                .               
```

#### Opcodes

```
  0: 0x0000 [0x00] END_REQSTACK()
```

### Event 65535.1

#### Metadata

| Field        | Value   |
|--------------|---------|
| Entrypoint   | 0x0001  |
| Data Size    | 1 bytes |
| Instructions | 1       |

```
      00 01 02 03 04 05 06 07  08 09 0A 0B 0C 0D 0E 0F
      -- -- -- -- -- -- -- --  -- -- -- -- -- -- -- --
0000:    00                                              .              
```

#### Opcodes

```
  0: 0x0001 [0x00] END_REQSTACK()
```

### Event 65535.2

#### Metadata

| Field        | Value    |
|--------------|----------|
| Entrypoint   | 0x0002   |
| Data Size    | 18 bytes |
| Instructions | 4        |

```
      00 01 02 03 04 05 06 07  08 09 0A 0B 0C 0D 0E 0F
      -- -- -- -- -- -- -- --  -- -- -- -- -- -- -- --
0000:       22 00 2F 00 F8 FF  FF 7F 6C F8 FF FF 7F 00    "./.....l.....
0010: 80 01 80 00                                       ....            
```

#### Opcodes

```
  0: 0x0002 [0x22] ENTITY_HIDE_FLAG(enabled=0x00)
  1: 0x0004 [0x2F] EventEntity->Render.Flags0 &= ~0x80000 // Bit 19
  2: 0x000A [0x6C] FADE_ENTITY_COLOR(entity_id=EventEntity, end_alpha=0*, fade_time=1*)
  3: 0x0013 [0x00] END_REQSTACK()
```

### Event 65535.3

#### Metadata

| Field        | Value    |
|--------------|----------|
| Entrypoint   | 0x0014   |
| Data Size    | 10 bytes |
| Instructions | 2        |

```
      00 01 02 03 04 05 06 07  08 09 0A 0B 0C 0D 0E 0F
      -- -- -- -- -- -- -- --  -- -- -- -- -- -- -- --
0010:             6C F8 FF FF  7F 02 80 01 80 00            l.........  
```

#### Opcodes

```
  0: 0x0014 [0x6C] FADE_ENTITY_COLOR(entity_id=EventEntity, end_alpha=128*, fade_time=1*)
  1: 0x001D [0x00] END_REQSTACK()
```

### Event 65535.4

#### Metadata

| Field        | Value   |
|--------------|---------|
| Entrypoint   | 0x001E  |
| Data Size    | 9 bytes |
| Instructions | 3       |

```
      00 01 02 03 04 05 06 07  08 09 0A 0B 0C 0D 0E 0F
      -- -- -- -- -- -- -- --  -- -- -- -- -- -- -- --
0010:                                            22 00                ".
0020: 2F 00 F8 FF FF 7F 00                              /......         
```

#### Opcodes

```
  0: 0x001E [0x22] ENTITY_HIDE_FLAG(enabled=0x00)
  1: 0x0020 [0x2F] EventEntity->Render.Flags0 &= ~0x80000 // Bit 19
  2: 0x0026 [0x00] END_REQSTACK()
```

### Event 65535.5

#### Metadata

| Field        | Value   |
|--------------|---------|
| Entrypoint   | 0x0027  |
| Data Size    | 9 bytes |
| Instructions | 3       |

```
      00 01 02 03 04 05 06 07  08 09 0A 0B 0C 0D 0E 0F
      -- -- -- -- -- -- -- --  -- -- -- -- -- -- -- --
0020:                      22  01 2F 01 F8 FF FF 7F 00         "./......
```

#### Opcodes

```
  0: 0x0027 [0x22] ENTITY_HIDE_FLAG(enabled=0x01)
  1: 0x0029 [0x2F] EventEntity->Render.Flags0 |= 0x80000 // Bit 19
  2: 0x002F [0x00] END_REQSTACK()
```

### Event 65535.6

#### Metadata

| Field        | Value    |
|--------------|----------|
| Entrypoint   | 0x0030   |
| Data Size    | 10 bytes |
| Instructions | 2        |

```
      00 01 02 03 04 05 06 07  08 09 0A 0B 0C 0D 0E 0F
      -- -- -- -- -- -- -- --  -- -- -- -- -- -- -- --
0030: 6C F8 FF FF 7F 00 80 01  80 00                    l.........      
```

#### Opcodes

```
  0: 0x0030 [0x6C] FADE_ENTITY_COLOR(entity_id=EventEntity, end_alpha=0*, fade_time=1*)
  1: 0x0039 [0x00] END_REQSTACK()
```

### Event 65535.7

#### Metadata

| Field        | Value    |
|--------------|----------|
| Entrypoint   | 0x003A   |
| Data Size    | 10 bytes |
| Instructions | 2        |

```
      00 01 02 03 04 05 06 07  08 09 0A 0B 0C 0D 0E 0F
      -- -- -- -- -- -- -- --  -- -- -- -- -- -- -- --
0030:                                6C F8 FF FF 7F 02            l.....
0040: 80 01 80 00                                       ....            
```

#### Opcodes

```
  0: 0x003A [0x6C] FADE_ENTITY_COLOR(entity_id=EventEntity, end_alpha=128*, fade_time=1*)
  1: 0x0043 [0x00] END_REQSTACK()
```

### Event 700

#### Metadata

| Field        | Value   |
|--------------|---------|
| Entrypoint   | 0x0044  |
| Data Size    | 1 bytes |
| Instructions | 1       |

```
      00 01 02 03 04 05 06 07  08 09 0A 0B 0C 0D 0E 0F
      -- -- -- -- -- -- -- --  -- -- -- -- -- -- -- --
0040:             00                                        .           
```

#### Opcodes

```
  0: 0x0044 [0x00] END_REQSTACK()
```

### Event 65535.8

#### Metadata

| Field        | Value    |
|--------------|----------|
| Entrypoint   | 0x0045   |
| Data Size    | 25 bytes |
| Instructions | 3        |

```
      00 01 02 03 04 05 06 07  08 09 0A 0B 0C 0D 0E 0F
      -- -- -- -- -- -- -- --  -- -- -- -- -- -- -- --
0040:                7E 06 F8  FF FF 7F 00 80 00 80 00       ~..........
0050: 80 01 80 00 80 01 80 7E  04 F8 FF FF 7F 00        .......~......  
```

#### Opcodes

```
  0: 0x0045 [0x7E] CHOCOBO_MOUNT: Mode 6 (custom mount) on EventEntity
  1: 0x0057 [0x7E] CHOCOBO_MOUNT: Mode 4 on EventEntity
  2: 0x005D [0x00] END_REQSTACK()
```

### Event 65535.9

#### Metadata

| Field        | Value   |
|--------------|---------|
| Entrypoint   | 0x005E  |
| Data Size    | 7 bytes |
| Instructions | 2       |

```
      00 01 02 03 04 05 06 07  08 09 0A 0B 0C 0D 0E 0F
      -- -- -- -- -- -- -- --  -- -- -- -- -- -- -- --
0050:                                            7E 05                ~.
0060: F8 FF FF 7F 00                                    .....           
```

#### Opcodes

```
  0: 0x005E [0x7E] CHOCOBO_MOUNT: Dismount EventEntity (status = 0)
  1: 0x0064 [0x00] END_REQSTACK()
```

### Event 65535.10

#### Metadata

| Field        | Value    |
|--------------|----------|
| Entrypoint   | 0x0065   |
| Data Size    | 18 bytes |
| Instructions | 6        |

```
      00 01 02 03 04 05 06 07  08 09 0A 0B 0C 0D 0E 0F
      -- -- -- -- -- -- -- --  -- -- -- -- -- -- -- --
0060:                1C 03 80  32 04 80 1F 00 05 80 06       ...2.......
0070: 80 07 80 1F 01 6F 00                              .....o.         
```

#### Opcodes

```
  0: 0x0065 [0x1C] WAIT(15* ticks)
  1: 0x0068 [0x32] ExtData[1]->MainSpeed = 80* * 0.1
  2: 0x006B [0x1F] MOVE_ENTITY: EventEntity moves to X=-117.028*, Z=81.002*, Y=-7.999*
  3: 0x0073 [0x1F] MOVE_ENTITY: Update entity position (mode=1)
  4: 0x0075 [0x6F] WAIT_FRAME_DELAY: Yield until WaitTime reaches zero
  5: 0x0076 [0x00] END_REQSTACK()
```

### Event 65535.11

#### Metadata

| Field        | Value    |
|--------------|----------|
| Entrypoint   | 0x0077   |
| Data Size    | 31 bytes |
| Instructions | 9        |

```
      00 01 02 03 04 05 06 07  08 09 0A 0B 0C 0D 0E 0F
      -- -- -- -- -- -- -- --  -- -- -- -- -- -- -- --
0070:                      1C  08 80 32 04 80 1F 00 09         ...2.....
0080: 80 0A 80 0B 80 1F 01 32  0C 80 1F 00 0D 80 0E 80  .......2........
0090: 0F 80 1F 01 6F 00                                 ....o.          
```

#### Opcodes

```
  0: 0x0077 [0x1C] WAIT(45* ticks)
  1: 0x007A [0x32] ExtData[1]->MainSpeed = 80* * 0.1
  2: 0x007D [0x1F] MOVE_ENTITY: EventEntity moves to X=-40.256*, Z=407.165*, Y=0.156*
  3: 0x0085 [0x1F] MOVE_ENTITY: Update entity position (mode=1)
  4: 0x0087 [0x32] ExtData[1]->MainSpeed = 27* * 0.1
  5: 0x008A [0x1F] MOVE_ENTITY: EventEntity moves to X=-40.276*, Z=408.905*, Y=0.243*
  6: 0x0092 [0x1F] MOVE_ENTITY: Update entity position (mode=1)
  7: 0x0094 [0x6F] WAIT_FRAME_DELAY: Yield until WaitTime reaches zero
  8: 0x0095 [0x00] END_REQSTACK()
```

### Event 65535.12

#### Metadata

| Field        | Value    |
|--------------|----------|
| Entrypoint   | 0x0096   |
| Data Size    | 15 bytes |
| Instructions | 5        |

```
      00 01 02 03 04 05 06 07  08 09 0A 0B 0C 0D 0E 0F
      -- -- -- -- -- -- -- --  -- -- -- -- -- -- -- --
0090:                   32 10  80 1F 00 11 80 12 80 13        2.........
00A0: 80 1F 01 6F 00                                    ...o.           
```

#### Opcodes

```
  0: 0x0096 [0x32] ExtData[1]->MainSpeed = 17* * 0.1
  1: 0x0099 [0x1F] MOVE_ENTITY: EventEntity moves to X=-40.212*, Z=419.627*, Y=0.980*
  2: 0x00A1 [0x1F] MOVE_ENTITY: Update entity position (mode=1)
  3: 0x00A3 [0x6F] WAIT_FRAME_DELAY: Yield until WaitTime reaches zero
  4: 0x00A4 [0x00] END_REQSTACK()
```

### Event 65535.13

#### Metadata

| Field        | Value    |
|--------------|----------|
| Entrypoint   | 0x00A5   |
| Data Size    | 15 bytes |
| Instructions | 5        |

```
      00 01 02 03 04 05 06 07  08 09 0A 0B 0C 0D 0E 0F
      -- -- -- -- -- -- -- --  -- -- -- -- -- -- -- --
00A0:                32 14 80  1F 00 15 80 16 80 17 80       2..........
00B0: 1F 01 6F 00                                       ..o.            
```

#### Opcodes

```
  0: 0x00A5 [0x32] ExtData[1]->MainSpeed = 11* * 0.1
  1: 0x00A8 [0x1F] MOVE_ENTITY: EventEntity moves to X=-42.578*, Z=430.266*, Y=0.284*
  2: 0x00B0 [0x1F] MOVE_ENTITY: Update entity position (mode=1)
  3: 0x00B2 [0x6F] WAIT_FRAME_DELAY: Yield until WaitTime reaches zero
  4: 0x00B3 [0x00] END_REQSTACK()
```

### Event 65535.14

#### Metadata

| Field        | Value    |
|--------------|----------|
| Entrypoint   | 0x00B4   |
| Data Size    | 15 bytes |
| Instructions | 5        |

```
      00 01 02 03 04 05 06 07  08 09 0A 0B 0C 0D 0E 0F
      -- -- -- -- -- -- -- --  -- -- -- -- -- -- -- --
00B0:             32 18 80 1F  00 19 80 1A 80 1B 80 1F      2...........
00C0: 01 6F 00                                          .o.             
```

#### Opcodes

```
  0: 0x00B4 [0x32] ExtData[1]->MainSpeed = 40* * 0.1
  1: 0x00B7 [0x1F] MOVE_ENTITY: EventEntity moves to X=-47.109*, Z=436.892*, Y=0.154*
  2: 0x00BF [0x1F] MOVE_ENTITY: Update entity position (mode=1)
  3: 0x00C1 [0x6F] WAIT_FRAME_DELAY: Yield until WaitTime reaches zero
  4: 0x00C2 [0x00] END_REQSTACK()
```

### Event 65535.15

#### Metadata

| Field        | Value    |
|--------------|----------|
| Entrypoint   | 0x00C3   |
| Data Size    | 15 bytes |
| Instructions | 5        |

```
      00 01 02 03 04 05 06 07  08 09 0A 0B 0C 0D 0E 0F
      -- -- -- -- -- -- -- --  -- -- -- -- -- -- -- --
00C0:          32 14 80 1F 00  1C 80 1D 80 1E 80 1F 01     2............
00D0: 6F 00                                             o.              
```

#### Opcodes

```
  0: 0x00C3 [0x32] ExtData[1]->MainSpeed = 11* * 0.1
  1: 0x00C6 [0x1F] MOVE_ENTITY: EventEntity moves to X=-50.624*, Z=437.226*, Y=0.329*
  2: 0x00CE [0x1F] MOVE_ENTITY: Update entity position (mode=1)
  3: 0x00D0 [0x6F] WAIT_FRAME_DELAY: Yield until WaitTime reaches zero
  4: 0x00D1 [0x00] END_REQSTACK()
```

### Event 65535.16

#### Metadata

| Field        | Value    |
|--------------|----------|
| Entrypoint   | 0x00D2   |
| Data Size    | 15 bytes |
| Instructions | 5        |

```
      00 01 02 03 04 05 06 07  08 09 0A 0B 0C 0D 0E 0F
      -- -- -- -- -- -- -- --  -- -- -- -- -- -- -- --
00D0:       32 1F 80 1F 00 20  80 21 80 22 80 1F 01 6F    2.... .!."...o
00E0: 00                                                .               
```

#### Opcodes

```
  0: 0x00D2 [0x32] ExtData[1]->MainSpeed = 13* * 0.1
  1: 0x00D5 [0x1F] MOVE_ENTITY: EventEntity moves to X=-46.848*, Z=433.407*, Y=0.052*
  2: 0x00DD [0x1F] MOVE_ENTITY: Update entity position (mode=1)
  3: 0x00DF [0x6F] WAIT_FRAME_DELAY: Yield until WaitTime reaches zero
  4: 0x00E0 [0x00] END_REQSTACK()
```

### Event 65535.17

#### Metadata

| Field        | Value    |
|--------------|----------|
| Entrypoint   | 0x00E1   |
| Data Size    | 15 bytes |
| Instructions | 5        |

```
      00 01 02 03 04 05 06 07  08 09 0A 0B 0C 0D 0E 0F
      -- -- -- -- -- -- -- --  -- -- -- -- -- -- -- --
00E0:    32 1F 80 1F 00 23 80  24 80 25 80 1F 01 6F 00   2....#.$.%...o.
```

#### Opcodes

```
  0: 0x00E1 [0x32] ExtData[1]->MainSpeed = 13* * 0.1
  1: 0x00E4 [0x1F] MOVE_ENTITY: EventEntity moves to X=-40.887*, Z=427.190*, Y=0.476*
  2: 0x00EC [0x1F] MOVE_ENTITY: Update entity position (mode=1)
  3: 0x00EE [0x6F] WAIT_FRAME_DELAY: Yield until WaitTime reaches zero
  4: 0x00EF [0x00] END_REQSTACK()
```

### Event 65535.18

#### Metadata

| Field        | Value    |
|--------------|----------|
| Entrypoint   | 0x00F0   |
| Data Size    | 31 bytes |
| Instructions | 9        |

```
      00 01 02 03 04 05 06 07  08 09 0A 0B 0C 0D 0E 0F
      -- -- -- -- -- -- -- --  -- -- -- -- -- -- -- --
00F0: 1C 08 80 32 04 80 1F 00  26 80 27 80 28 80 1F 01  ...2....&.'.(...
0100: 32 0C 80 1F 00 29 80 2A  80 2B 80 1F 01 6F 00     2....).*.+...o. 
```

#### Opcodes

```
  0: 0x00F0 [0x1C] WAIT(45* ticks)
  1: 0x00F3 [0x32] ExtData[1]->MainSpeed = 80* * 0.1
  2: 0x00F6 [0x1F] MOVE_ENTITY: EventEntity moves to X=-177.002*, Z=357.387*, Y=8.849*
  3: 0x00FE [0x1F] MOVE_ENTITY: Update entity position (mode=1)
  4: 0x0100 [0x32] ExtData[1]->MainSpeed = 27* * 0.1
  5: 0x0103 [0x1F] MOVE_ENTITY: EventEntity moves to X=-181.527*, Z=357.582*, Y=8.923*
  6: 0x010B [0x1F] MOVE_ENTITY: Update entity position (mode=1)
  7: 0x010D [0x6F] WAIT_FRAME_DELAY: Yield until WaitTime reaches zero
  8: 0x010E [0x00] END_REQSTACK()
```

### Event 65535.19

#### Metadata

| Field        | Value    |
|--------------|----------|
| Entrypoint   | 0x010F   |
| Data Size    | 15 bytes |
| Instructions | 5        |

```
      00 01 02 03 04 05 06 07  08 09 0A 0B 0C 0D 0E 0F
      -- -- -- -- -- -- -- --  -- -- -- -- -- -- -- --
0100:                                               32                 2
0110: 10 80 1F 00 2C 80 2D 80  2E 80 1F 01 6F 00        ....,.-.....o.  
```

#### Opcodes

```
  0: 0x010F [0x32] ExtData[1]->MainSpeed = 17* * 0.1
  1: 0x0112 [0x1F] MOVE_ENTITY: EventEntity moves to X=-189.852*, Z=357.464*, Y=8.305*
  2: 0x011A [0x1F] MOVE_ENTITY: Update entity position (mode=1)
  3: 0x011C [0x6F] WAIT_FRAME_DELAY: Yield until WaitTime reaches zero
  4: 0x011D [0x00] END_REQSTACK()
```

### Event 65535.20

#### Metadata

| Field        | Value    |
|--------------|----------|
| Entrypoint   | 0x011E   |
| Data Size    | 15 bytes |
| Instructions | 5        |

```
      00 01 02 03 04 05 06 07  08 09 0A 0B 0C 0D 0E 0F
      -- -- -- -- -- -- -- --  -- -- -- -- -- -- -- --
0110:                                            32 14                2.
0120: 80 1F 00 2F 80 30 80 31  80 1F 01 6F 00           .../.0.1...o.   
```

#### Opcodes

```
  0: 0x011E [0x32] ExtData[1]->MainSpeed = 11* * 0.1
  1: 0x0121 [0x1F] MOVE_ENTITY: EventEntity moves to X=-195.298*, Z=358.012*, Y=8.033*
  2: 0x0129 [0x1F] MOVE_ENTITY: Update entity position (mode=1)
  3: 0x012B [0x6F] WAIT_FRAME_DELAY: Yield until WaitTime reaches zero
  4: 0x012C [0x00] END_REQSTACK()
```

### Event 65535.21

#### Metadata

| Field        | Value    |
|--------------|----------|
| Entrypoint   | 0x012D   |
| Data Size    | 15 bytes |
| Instructions | 5        |

```
      00 01 02 03 04 05 06 07  08 09 0A 0B 0C 0D 0E 0F
      -- -- -- -- -- -- -- --  -- -- -- -- -- -- -- --
0120:                                         32 18 80               2..
0130: 1F 00 32 80 33 80 34 80  1F 01 6F 00              ..2.3.4...o.    
```

#### Opcodes

```
  0: 0x012D [0x32] ExtData[1]->MainSpeed = 40* * 0.1
  1: 0x0130 [0x1F] MOVE_ENTITY: EventEntity moves to X=-200.225*, Z=361.550*, Y=7.999*
  2: 0x0138 [0x1F] MOVE_ENTITY: Update entity position (mode=1)
  3: 0x013A [0x6F] WAIT_FRAME_DELAY: Yield until WaitTime reaches zero
  4: 0x013B [0x00] END_REQSTACK()
```

### Event 65535.22

#### Metadata

| Field        | Value    |
|--------------|----------|
| Entrypoint   | 0x013C   |
| Data Size    | 15 bytes |
| Instructions | 5        |

```
      00 01 02 03 04 05 06 07  08 09 0A 0B 0C 0D 0E 0F
      -- -- -- -- -- -- -- --  -- -- -- -- -- -- -- --
0130:                                      32 14 80 1F              2...
0140: 00 35 80 36 80 37 80 1F  01 6F 00                 .5.6.7...o.     
```

#### Opcodes

```
  0: 0x013C [0x32] ExtData[1]->MainSpeed = 11* * 0.1
  1: 0x013F [0x1F] MOVE_ENTITY: EventEntity moves to X=-195.297*, Z=364.828*, Y=8.074*
  2: 0x0147 [0x1F] MOVE_ENTITY: Update entity position (mode=1)
  3: 0x0149 [0x6F] WAIT_FRAME_DELAY: Yield until WaitTime reaches zero
  4: 0x014A [0x00] END_REQSTACK()
```

### Event 65535.23

#### Metadata

| Field        | Value    |
|--------------|----------|
| Entrypoint   | 0x014B   |
| Data Size    | 15 bytes |
| Instructions | 5        |

```
      00 01 02 03 04 05 06 07  08 09 0A 0B 0C 0D 0E 0F
      -- -- -- -- -- -- -- --  -- -- -- -- -- -- -- --
0140:                                   32 1F 80 1F 00             2....
0150: 38 80 39 80 3A 80 1F 01  6F 00                    8.9.:...o.      
```

#### Opcodes

```
  0: 0x014B [0x32] ExtData[1]->MainSpeed = 13* * 0.1
  1: 0x014E [0x1F] MOVE_ENTITY: EventEntity moves to X=-192.329*, Z=362.396*, Y=8.181*
  2: 0x0156 [0x1F] MOVE_ENTITY: Update entity position (mode=1)
  3: 0x0158 [0x6F] WAIT_FRAME_DELAY: Yield until WaitTime reaches zero
  4: 0x0159 [0x00] END_REQSTACK()
```

### Event 65535.24

#### Metadata

| Field        | Value    |
|--------------|----------|
| Entrypoint   | 0x015A   |
| Data Size    | 15 bytes |
| Instructions | 5        |

```
      00 01 02 03 04 05 06 07  08 09 0A 0B 0C 0D 0E 0F
      -- -- -- -- -- -- -- --  -- -- -- -- -- -- -- --
0150:                                32 1F 80 1F 00 3B            2....;
0160: 80 3C 80 3D 80 1F 01 6F  00                       .<.=...o.       
```

#### Opcodes

```
  0: 0x015A [0x32] ExtData[1]->MainSpeed = 13* * 0.1
  1: 0x015D [0x1F] MOVE_ENTITY: EventEntity moves to X=-189.045*, Z=358.497*, Y=8.345*
  2: 0x0165 [0x1F] MOVE_ENTITY: Update entity position (mode=1)
  3: 0x0167 [0x6F] WAIT_FRAME_DELAY: Yield until WaitTime reaches zero
  4: 0x0168 [0x00] END_REQSTACK()
```

### Event 65535.25

#### Metadata

| Field        | Value    |
|--------------|----------|
| Entrypoint   | 0x0169   |
| Data Size    | 31 bytes |
| Instructions | 9        |

```
      00 01 02 03 04 05 06 07  08 09 0A 0B 0C 0D 0E 0F
      -- -- -- -- -- -- -- --  -- -- -- -- -- -- -- --
0160:                             1C 08 80 32 04 80 1F           ...2...
0170: 00 3E 80 3F 80 40 80 1F  01 32 0C 80 1F 00 41 80  .>.?.@...2....A.
0180: 42 80 43 80 1F 01 6F 00                           B.C...o.        
```

#### Opcodes

```
  0: 0x0169 [0x1C] WAIT(45* ticks)
  1: 0x016C [0x32] ExtData[1]->MainSpeed = 80* * 0.1
  2: 0x016F [0x1F] MOVE_ENTITY: EventEntity moves to X=406.338*, Z=-209.934*, Y=15.821*
  3: 0x0177 [0x1F] MOVE_ENTITY: Update entity position (mode=1)
  4: 0x0179 [0x32] ExtData[1]->MainSpeed = 27* * 0.1
  5: 0x017C [0x1F] MOVE_ENTITY: EventEntity moves to X=399.563*, Z=-213.485*, Y=16.544*
  6: 0x0184 [0x1F] MOVE_ENTITY: Update entity position (mode=1)
  7: 0x0186 [0x6F] WAIT_FRAME_DELAY: Yield until WaitTime reaches zero
  8: 0x0187 [0x00] END_REQSTACK()
```

### Event 65535.26

#### Metadata

| Field        | Value    |
|--------------|----------|
| Entrypoint   | 0x0188   |
| Data Size    | 15 bytes |
| Instructions | 5        |

```
      00 01 02 03 04 05 06 07  08 09 0A 0B 0C 0D 0E 0F
      -- -- -- -- -- -- -- --  -- -- -- -- -- -- -- --
0180:                          32 10 80 1F 00 44 80 45          2....D.E
0190: 80 46 80 1F 01 6F 00                              .F...o.         
```

#### Opcodes

```
  0: 0x0188 [0x32] ExtData[1]->MainSpeed = 17* * 0.1
  1: 0x018B [0x1F] MOVE_ENTITY: EventEntity moves to X=393.155*, Z=-216.660*, Y=16.605*
  2: 0x0193 [0x1F] MOVE_ENTITY: Update entity position (mode=1)
  3: 0x0195 [0x6F] WAIT_FRAME_DELAY: Yield until WaitTime reaches zero
  4: 0x0196 [0x00] END_REQSTACK()
```

### Event 65535.27

#### Metadata

| Field        | Value    |
|--------------|----------|
| Entrypoint   | 0x0197   |
| Data Size    | 15 bytes |
| Instructions | 5        |

```
      00 01 02 03 04 05 06 07  08 09 0A 0B 0C 0D 0E 0F
      -- -- -- -- -- -- -- --  -- -- -- -- -- -- -- --
0190:                      32  14 80 1F 00 47 80 48 80         2....G.H.
01A0: 49 80 1F 01 6F 00                                 I...o.          
```

#### Opcodes

```
  0: 0x0197 [0x32] ExtData[1]->MainSpeed = 11* * 0.1
  1: 0x019A [0x1F] MOVE_ENTITY: EventEntity moves to X=388.434*, Z=-217.456*, Y=16.207*
  2: 0x01A2 [0x1F] MOVE_ENTITY: Update entity position (mode=1)
  3: 0x01A4 [0x6F] WAIT_FRAME_DELAY: Yield until WaitTime reaches zero
  4: 0x01A5 [0x00] END_REQSTACK()
```

### Event 65535.28

#### Metadata

| Field        | Value    |
|--------------|----------|
| Entrypoint   | 0x01A6   |
| Data Size    | 15 bytes |
| Instructions | 5        |

```
      00 01 02 03 04 05 06 07  08 09 0A 0B 0C 0D 0E 0F
      -- -- -- -- -- -- -- --  -- -- -- -- -- -- -- --
01A0:                   32 18  80 1F 00 4A 80 4B 80 4C        2....J.K.L
01B0: 80 1F 01 6F 00                                    ...o.           
```

#### Opcodes

```
  0: 0x01A6 [0x32] ExtData[1]->MainSpeed = 40* * 0.1
  1: 0x01A9 [0x1F] MOVE_ENTITY: EventEntity moves to X=385.436*, Z=-211.676*, Y=16.148*
  2: 0x01B1 [0x1F] MOVE_ENTITY: Update entity position (mode=1)
  3: 0x01B3 [0x6F] WAIT_FRAME_DELAY: Yield until WaitTime reaches zero
  4: 0x01B4 [0x00] END_REQSTACK()
```

### Event 65535.29

#### Metadata

| Field        | Value    |
|--------------|----------|
| Entrypoint   | 0x01B5   |
| Data Size    | 15 bytes |
| Instructions | 5        |

```
      00 01 02 03 04 05 06 07  08 09 0A 0B 0C 0D 0E 0F
      -- -- -- -- -- -- -- --  -- -- -- -- -- -- -- --
01B0:                32 14 80  1F 00 4D 80 4E 80 4F 80       2....M.N.O.
01C0: 1F 01 6F 00                                       ..o.            
```

#### Opcodes

```
  0: 0x01B5 [0x32] ExtData[1]->MainSpeed = 11* * 0.1
  1: 0x01B8 [0x1F] MOVE_ENTITY: EventEntity moves to X=386.902*, Z=-215.306*, Y=16.076*
  2: 0x01C0 [0x1F] MOVE_ENTITY: Update entity position (mode=1)
  3: 0x01C2 [0x6F] WAIT_FRAME_DELAY: Yield until WaitTime reaches zero
  4: 0x01C3 [0x00] END_REQSTACK()
```

### Event 65535.30

#### Metadata

| Field        | Value    |
|--------------|----------|
| Entrypoint   | 0x01C4   |
| Data Size    | 15 bytes |
| Instructions | 5        |

```
      00 01 02 03 04 05 06 07  08 09 0A 0B 0C 0D 0E 0F
      -- -- -- -- -- -- -- --  -- -- -- -- -- -- -- --
01C0:             32 1F 80 1F  00 50 80 51 80 52 80 1F      2....P.Q.R..
01D0: 01 6F 00                                          .o.             
```

#### Opcodes

```
  0: 0x01C4 [0x32] ExtData[1]->MainSpeed = 13* * 0.1
  1: 0x01C7 [0x1F] MOVE_ENTITY: EventEntity moves to X=390.807*, Z=-214.860*, Y=16.420*
  2: 0x01CF [0x1F] MOVE_ENTITY: Update entity position (mode=1)
  3: 0x01D1 [0x6F] WAIT_FRAME_DELAY: Yield until WaitTime reaches zero
  4: 0x01D2 [0x00] END_REQSTACK()
```

### Event 65535.31

#### Metadata

| Field        | Value    |
|--------------|----------|
| Entrypoint   | 0x01D3   |
| Data Size    | 15 bytes |
| Instructions | 5        |

```
      00 01 02 03 04 05 06 07  08 09 0A 0B 0C 0D 0E 0F
      -- -- -- -- -- -- -- --  -- -- -- -- -- -- -- --
01D0:          32 1F 80 1F 00  53 80 54 80 55 80 1F 01     2....S.T.U...
01E0: 6F 00                                             o.              
```

#### Opcodes

```
  0: 0x01D3 [0x32] ExtData[1]->MainSpeed = 13* * 0.1
  1: 0x01D6 [0x1F] MOVE_ENTITY: EventEntity moves to X=394.305*, Z=-214.376*, Y=16.620*
  2: 0x01DE [0x1F] MOVE_ENTITY: Update entity position (mode=1)
  3: 0x01E0 [0x6F] WAIT_FRAME_DELAY: Yield until WaitTime reaches zero
  4: 0x01E1 [0x00] END_REQSTACK()
```

### Event 65535.32

#### Metadata

| Field        | Value    |
|--------------|----------|
| Entrypoint   | 0x01E2   |
| Data Size    | 34 bytes |
| Instructions | 8        |

```
      00 01 02 03 04 05 06 07  08 09 0A 0B 0C 0D 0E 0F
      -- -- -- -- -- -- -- --  -- -- -- -- -- -- -- --
01E0:       1C 56 80 32 04 80  1F 00 57 80 58 80 59 80    .V.2....W.X.Y.
01F0: 1F 01 6F BA 64 43 05 01  5A 80 5B 80 5C 80 5D 80  ..o.dC..Z.[.\.].
0200: 1C 03 80 00                                       ....            
```

#### Opcodes

```
  0: 0x01E2 [0x1C] WAIT(5* ticks)
  1: 0x01E5 [0x32] ExtData[1]->MainSpeed = 80* * 0.1
  2: 0x01E8 [0x1F] MOVE_ENTITY: EventEntity moves to X=224.094*, Z=119.287*, Y=8.830*
  3: 0x01F0 [0x1F] MOVE_ENTITY: Update entity position (mode=1)
  4: 0x01F2 [0x6F] WAIT_FRAME_DELAY: Yield until WaitTime reaches zero
  5: 0x01F3 [0xBA] SET_ENTITY_POSITION(entity_id=Lysander (ID: 17122148/0x01054364), pos_x=5.576*, pos_z=84.259*, pos_y=0.077*, direction=185.4°*)
  6: 0x0200 [0x1C] WAIT(15* ticks)
  7: 0x0203 [0x00] END_REQSTACK()
```

### Event 65535.33

#### Metadata

| Field        | Value   |
|--------------|---------|
| Entrypoint   | 0x0204  |
| Data Size    | 1 bytes |
| Instructions | 1       |

```
      00 01 02 03 04 05 06 07  08 09 0A 0B 0C 0D 0E 0F
      -- -- -- -- -- -- -- --  -- -- -- -- -- -- -- --
0200:             00                                        .           
```

#### Opcodes

```
  0: 0x0204 [0x00] END_REQSTACK()
```

### Event 65535.34

#### Metadata

| Field        | Value    |
|--------------|----------|
| Entrypoint   | 0x0205   |
| Data Size    | 24 bytes |
| Instructions | 6        |

```
      00 01 02 03 04 05 06 07  08 09 0A 0B 0C 0D 0E 0F
      -- -- -- -- -- -- -- --  -- -- -- -- -- -- -- --
0200:                32 1F 80  1F 00 5E 80 5F 80 60 80       2....^._.`.
0210: 1F 01 1F 00 61 80 62 80  63 80 1F 01 00           ....a.b.c....   
```

#### Opcodes

```
  0: 0x0205 [0x32] ExtData[1]->MainSpeed = 13* * 0.1
  1: 0x0208 [0x1F] MOVE_ENTITY: EventEntity moves to X=25.821*, Z=64.035*, Y=1.995*
  2: 0x0210 [0x1F] MOVE_ENTITY: Update entity position (mode=1)
  3: 0x0212 [0x1F] MOVE_ENTITY: EventEntity moves to X=29.604*, Z=64.029*, Y=1.991*
  4: 0x021A [0x1F] MOVE_ENTITY: Update entity position (mode=1)
  5: 0x021C [0x00] END_REQSTACK()
```

### Event 65535.35

#### Metadata

| Field        | Value    |
|--------------|----------|
| Entrypoint   | 0x021D   |
| Data Size    | 54 bytes |
| Instructions | 10       |

```
      00 01 02 03 04 05 06 07  08 09 0A 0B 0C 0D 0E 0F
      -- -- -- -- -- -- -- --  -- -- -- -- -- -- -- --
0210:                                         32 1F 80               2..
0220: 1F 00 64 80 65 80 66 80  1F 01 79 00 65 43 05 01  ..d.e.f...y.eC..
0230: 64 43 05 01 79 00 F0 FF  FF 7F 64 43 05 01 1E 97  dC..y.....dC....
0240: 43 05 01 1C 67 80 4A 97  43 05 01 F8 FF FF 7F 1C  C...g.J.C.......
0250: 67 80 00                                          g..             
```

#### Opcodes

```
  0: 0x021D [0x32] ExtData[1]->MainSpeed = 13* * 0.1
  1: 0x0220 [0x1F] MOVE_ENTITY: EventEntity moves to X=21.846*, Z=64.632*, Y=1.999*
  2: 0x0228 [0x1F] MOVE_ENTITY: Update entity position (mode=1)
  3: 0x022A [0x79] Barnabas (ID: 17122149/0x01054365) looks at Lysander (ID: 17122148/0x01054364) (Basic look)
  4: 0x0234 [0x79] LocalPlayer looks at Lysander (ID: 17122148/0x01054364) (Basic look)
  5: 0x023E [0x1E] EventEntity looks at Lilisette (ID: 17122199/0x01054397) and starts talking
  6: 0x0243 [0x1C] WAIT(30* ticks)
  7: 0x0246 [0x4A] Lilisette (ID: 17122199/0x01054397) looks at EventEntity
  8: 0x024F [0x1C] WAIT(30* ticks)
  9: 0x0252 [0x00] END_REQSTACK()
```

### Event 20

#### Metadata

| Field        | Value   |
|--------------|---------|
| Entrypoint   | 0x0253  |
| Data Size    | 1 bytes |
| Instructions | 1       |

```
      00 01 02 03 04 05 06 07  08 09 0A 0B 0C 0D 0E 0F
      -- -- -- -- -- -- -- --  -- -- -- -- -- -- -- --
0250:          00                                          .            
```

#### Opcodes

```
  0: 0x0253 [0x00] END_REQSTACK()
```

### Event 65535.36

#### Metadata

| Field        | Value    |
|--------------|----------|
| Entrypoint   | 0x0254   |
| Data Size    | 14 bytes |
| Instructions | 4        |

```
      00 01 02 03 04 05 06 07  08 09 0A 0B 0C 0D 0E 0F
      -- -- -- -- -- -- -- --  -- -- -- -- -- -- -- --
0250:             32 1F 80 1F  00 68 80 69 80 6A 80 1F      2....h.i.j..
0260: 01 00                                             ..              
```

#### Opcodes

```
  0: 0x0254 [0x32] ExtData[1]->MainSpeed = 13* * 0.1
  1: 0x0257 [0x1F] MOVE_ENTITY: EventEntity moves to X=-15.417*, Z=-9.600*, Y=2.999*
  2: 0x025F [0x1F] MOVE_ENTITY: Update entity position (mode=1)
  3: 0x0261 [0x00] END_REQSTACK()
```

### Event 65535.37

#### Metadata

| Field        | Value    |
|--------------|----------|
| Entrypoint   | 0x0262   |
| Data Size    | 13 bytes |
| Instructions | 3        |

```
      00 01 02 03 04 05 06 07  08 09 0A 0B 0C 0D 0E 0F
      -- -- -- -- -- -- -- --  -- -- -- -- -- -- -- --
0260:       6E 64 43 05 01 6B  80 99 64 43 05 01 00       ndC..k..dC... 
```

#### Opcodes

```
  0: 0x0262 [0x6E] Lysander (ID: 17122148/0x01054364) uses emote 43*
  1: 0x0269 [0x99] Wait for Lysander (ID: 17122148/0x01054364) animation to complete
  2: 0x026E [0x00] END_REQSTACK()
```

### Event 3

#### Metadata

| Field        | Value   |
|--------------|---------|
| Entrypoint   | 0x026F  |
| Data Size    | 1 bytes |
| Instructions | 1       |

```
      00 01 02 03 04 05 06 07  08 09 0A 0B 0C 0D 0E 0F
      -- -- -- -- -- -- -- --  -- -- -- -- -- -- -- --
0260:                                               00                 .
```

#### Opcodes

```
  0: 0x026F [0x00] END_REQSTACK()
```

### Event 65535.38

#### Metadata

| Field        | Value    |
|--------------|----------|
| Entrypoint   | 0x0270   |
| Data Size    | 14 bytes |
| Instructions | 4        |

```
      00 01 02 03 04 05 06 07  08 09 0A 0B 0C 0D 0E 0F
      -- -- -- -- -- -- -- --  -- -- -- -- -- -- -- --
0270: 32 18 80 1F 00 6C 80 6D  80 6E 80 1F 01 00        2....l.m.n....  
```

#### Opcodes

```
  0: 0x0270 [0x32] ExtData[1]->MainSpeed = 40* * 0.1
  1: 0x0273 [0x1F] MOVE_ENTITY: EventEntity moves to X=-49.755*, Z=-75.910*, Y=5.999*
  2: 0x027B [0x1F] MOVE_ENTITY: Update entity position (mode=1)
  3: 0x027D [0x00] END_REQSTACK()
```

### Event 65535.39

#### Metadata

| Field        | Value    |
|--------------|----------|
| Entrypoint   | 0x027E   |
| Data Size    | 14 bytes |
| Instructions | 4        |

```
      00 01 02 03 04 05 06 07  08 09 0A 0B 0C 0D 0E 0F
      -- -- -- -- -- -- -- --  -- -- -- -- -- -- -- --
0270:                                            32 18                2.
0280: 80 1F 00 6F 80 70 80 6E  80 1F 01 00              ...o.p.n....    
```

#### Opcodes

```
  0: 0x027E [0x32] ExtData[1]->MainSpeed = 40* * 0.1
  1: 0x0281 [0x1F] MOVE_ENTITY: EventEntity moves to X=-67.930*, Z=-106.568*, Y=5.999*
  2: 0x0289 [0x1F] MOVE_ENTITY: Update entity position (mode=1)
  3: 0x028B [0x00] END_REQSTACK()
```
