# 17122269

## Common Data

| Field            | Value                       |
|------------------|-----------------------------|
| Zone             | Batallia Downs [S] (ID: 84) |
| Block Size       | 14228 bytes                 |
| Total Events     | 6                           |
| References Count | 344                         |

## List of Events

| Event ID              | Entrypoint   |   Size |   Instructions |
|-----------------------|--------------|--------|----------------|
| [65535](#event-65535) | 0x0000       |    658 |             62 |
| [114](#event-114)     | 0x0292       |    702 |             86 |
| [115](#event-115)     | 0x0550       |   3531 |            414 |
| [116](#event-116)     | 0x131B       |    348 |             47 |
| [117](#event-117)     | 0x1477       |   7526 |            806 |
| [118](#event-118)     | 0x31DD       |     44 |             12 |

## DAT References (imed_data)

|   Index | Hex Value   |   Dec Value |
|---------|-------------|-------------|
|       0 | 0x00C8      |         200 |
|       1 | 0x0000      |           0 |
|       2 | 0x00C9      |         201 |
|       3 | 0x0001      |           1 |
|       4 | 0x002D      |          45 |
|       5 | 0x0002      |           2 |
|       6 | 0x001E      |          30 |
|       7 | 0x00D7      |         215 |
|       8 | 0x0078      |         120 |
|       9 | 0x0013      |          19 |
|      10 | 0xFFFEDB08  |  4294892296 |
|      11 | 0x6AAB7     |      436919 |
|      12 | 0x03CA      |         970 |
|      13 | 0xFFFF1988  |  4294908296 |
|      14 | 0xFFFF4FA5  |  4294922149 |
|      15 | 0x0038      |          56 |
|      16 | 0x0800      |        2048 |
|      17 | 0x01FD      |         509 |
|      18 | 0x00D2      |         210 |
|      19 | 0x012C      |         300 |
|      20 | 0x00B4      |         180 |
|      21 | 0x1FE9      |        8169 |
|      22 | 0x005A      |          90 |
|      23 | 0x007F      |         127 |
|      24 | 0x1FEA      |        8170 |
|      25 | 0x1FEB      |        8171 |
|      26 | 0x1FEC      |        8172 |
|      27 | 0x04F8      |        1272 |
|      28 | 0x1FED      |        8173 |
|      29 | 0x1FEE      |        8174 |
|      30 | 0x1FEF      |        8175 |
|      31 | 0xFFFEEDBF  |  4294897087 |
|      32 | 0x6844E     |      427086 |
|      33 | 0xFFFFF070  |  4294963312 |
|      34 | 0x0181      |         385 |
|      35 | 0xFFFF17E4  |  4294907876 |
|      36 | 0x6AFAB     |      438187 |
|      37 | 0x015E      |         350 |
|      38 | 0xFFFF2A58  |  4294912600 |
|      39 | 0x6AEAD     |      437933 |
|      40 | 0x0299      |         665 |
|      41 | 0x0822      |        2082 |
|      42 | 0xFFFEB36E  |  4294882158 |
|      43 | 0x6BCA9     |      441513 |
|      44 | 0x0037      |          55 |
|      45 | 0x080E      |        2062 |
|      46 | 0xFFFF5B40  |  4294925120 |
|      47 | 0x6859A     |      427418 |
|      48 | 0x01C5      |         453 |
|      49 | 0x09FB      |        2555 |
|      50 | 0xFFFF04B6  |  4294902966 |
|      51 | 0x6BC71     |      441457 |
|      52 | 0x02FB      |         763 |
|      53 | 0x0EBB      |        3771 |
|      54 | 0xFFFF190F  |  4294908175 |
|      55 | 0x69C91     |      433297 |
|      56 | 0xFFFFFFB9  |  4294967225 |
|      57 | 0x0921      |        2337 |
|      58 | 0xFFFF6E13  |  4294929939 |
|      59 | 0x68693     |      427667 |
|      60 | 0x019E      |         414 |
|      61 | 0x0915      |        2325 |
|      62 | 0x00FC      |         252 |
|      63 | 0x0587      |        1415 |
|      64 | 0x01F0      |         496 |
|      65 | 0x1FF0      |        8176 |
|      66 | 0x003C      |          60 |
|      67 | 0x1FF1      |        8177 |
|      68 | 0x1FF2      |        8178 |
|      69 | 0x001D      |          29 |
|      70 | 0x1FF3      |        8179 |
|      71 | 0x092E      |        2350 |
|      72 | 0x0046      |          70 |
|      73 | 0x1FF4      |        8180 |
|      74 | 0x1FF5      |        8181 |
|      75 | 0x1FF6      |        8182 |
|      76 | 0x0064      |         100 |
|      77 | 0x1FF7      |        8183 |
|      78 | 0xFFFF2267  |  4294910567 |
|      79 | 0x6AF8E     |      438158 |
|      80 | 0x0344      |         836 |
|      81 | 0x0E73      |        3699 |
|      82 | 0x000A      |          10 |
|      83 | 0x0513      |        1299 |
|      84 | 0x059D      |        1437 |
|      85 | 0x1FF8      |        8184 |
|      86 | 0x057F      |        1407 |
|      87 | 0x0014      |          20 |
|      88 | 0x1FF9      |        8185 |
|      89 | 0x1FFA      |        8186 |
|      90 | 0x1FFB      |        8187 |
|      91 | 0x0A25      |        2597 |
|      92 | 0x00FA      |         250 |
|      93 | 0x1FFC      |        8188 |
|      94 | 0x1FFD      |        8189 |
|      95 | 0x0005      |           5 |
|      96 | 0x1FFE      |        8190 |
|      97 | 0x1FFF      |        8191 |
|      98 | 0x0C1B      |        3099 |
|      99 | 0x2000      |        8192 |
|     100 | 0x0080      |         128 |
|     101 | 0x2001      |        8193 |
|     102 | 0xFFFF2F48  |  4294913864 |
|     103 | 0x6AE89     |      437897 |
|     104 | 0x021A      |         538 |
|     105 | 0x08C1      |        2241 |
|     106 | 0x000F      |          15 |
|     107 | 0xFFFED0D6  |  4294889686 |
|     108 | 0x6B5A9     |      439721 |
|     109 | 0x0FF8      |        4088 |
|     110 | 0x0BAD      |        2989 |
|     111 | 0x2002      |        8194 |
|     112 | 0x0028      |          40 |
|     113 | 0xFFFF22CE  |  4294910670 |
|     114 | 0x6BBE1     |      441313 |
|     115 | 0x033F      |         831 |
|     116 | 0x0EC9      |        3785 |
|     117 | 0xFFFF2652  |  4294911570 |
|     118 | 0x6BD6D     |      441709 |
|     119 | 0x0301      |         769 |
|     120 | 0x076C      |        1900 |
|     121 | 0xFFFF123C  |  4294906428 |
|     122 | 0x6B3B8     |      439224 |
|     123 | 0x03BB      |         955 |
|     124 | 0x086E      |        2158 |
|     125 | 0x0BA7      |        2983 |
|     126 | 0x0C54      |        3156 |
|     127 | 0x2003      |        8195 |
|     128 | 0x0A23      |        2595 |
|     129 | 0x0096      |         150 |
|     130 | 0x0063      |          99 |
|     131 | 0x2004      |        8196 |
|     132 | 0x2005      |        8197 |
|     133 | 0x2006      |        8198 |
|     134 | 0x00D9      |         217 |
|     135 | 0xFFFF2A65  |  4294912613 |
|     136 | 0x6BA43     |      440899 |
|     137 | 0x0298      |         664 |
|     138 | 0x06D2      |        1746 |
|     139 | 0x057D      |        1405 |
|     140 | 0x2007      |        8199 |
|     141 | 0x2008      |        8200 |
|     142 | 0x2009      |        8201 |
|     143 | 0x200A      |        8202 |
|     144 | 0x0050      |          80 |
|     145 | 0x200B      |        8203 |
|     146 | 0x200C      |        8204 |
|     147 | 0x0A22      |        2594 |
|     148 | 0x0C18      |        3096 |
|     149 | 0x00D8      |         216 |
|     150 | 0x00F0      |         240 |
|     151 | 0x200D      |        8205 |
|     152 | 0x200E      |        8206 |
|     153 | 0xFFFF4142  |  4294918466 |
|     154 | 0x6AB1F     |      437023 |
|     155 | 0x00EF      |         239 |
|     156 | 0x06D5      |        1749 |
|     157 | 0x200F      |        8207 |
|     158 | 0xFFFF1DE6  |  4294909414 |
|     159 | 0x6A9A2     |      436642 |
|     160 | 0x037D      |         893 |
|     161 | 0x0BB8      |        3000 |
|     162 | 0xFFFF3B0E  |  4294916878 |
|     163 | 0x6B849     |      440393 |
|     164 | 0x013E      |         318 |
|     165 | 0x05B2      |        1458 |
|     166 | 0xFFFF35B4  |  4294915508 |
|     167 | 0x6A446     |      435270 |
|     168 | 0x00FF      |         255 |
|     169 | 0xFFFF4058  |  4294918232 |
|     170 | 0x696FF     |      431871 |
|     171 | 0xFFFFFF23  |  4294967075 |
|     172 | 0x0AD0      |        2768 |
|     173 | 0xFFFF26DB  |  4294911707 |
|     174 | 0x6B67F     |      439935 |
|     175 | 0x02F3      |         755 |
|     176 | 0x0DBE      |        3518 |
|     177 | 0xFFFE8CE5  |  4294872293 |
|     178 | 0x6C5C6     |      443846 |
|     179 | 0x02B9      |         697 |
|     180 | 0x0EEC      |        3820 |
|     181 | 0xFFFE8FE0  |  4294873056 |
|     182 | 0x6BACC     |      441036 |
|     183 | 0x026C      |         620 |
|     184 | 0x0EED      |        3821 |
|     185 | 0xFFFF697C  |  4294928764 |
|     186 | 0x68EBF     |      429759 |
|     187 | 0x0135      |         309 |
|     188 | 0x087E      |        2174 |
|     189 | 0xFFFEBB9F  |  4294884255 |
|     190 | 0x6B6E6     |      440038 |
|     191 | 0x0023      |          35 |
|     192 | 0xFFFF2A50  |  4294912592 |
|     193 | 0x6AE79     |      437881 |
|     194 | 0x010B      |         267 |
|     195 | 0x0EBF      |        3775 |
|     196 | 0x0AA7      |        2727 |
|     197 | 0x2010      |        8208 |
|     198 | 0x2011      |        8209 |
|     199 | 0x0A84      |        2692 |
|     200 | 0x003A      |          58 |
|     201 | 0xFFFF3168  |  4294914408 |
|     202 | 0x6B8A0     |      440480 |
|     203 | 0x01E4      |         484 |
|     204 | 0x07D0      |        2000 |
|     205 | 0x0AAF      |        2735 |
|     206 | 0x0039      |          57 |
|     207 | 0x2012      |        8210 |
|     208 | 0x2013      |        8211 |
|     209 | 0x0EC4      |        3780 |
|     210 | 0x2014      |        8212 |
|     211 | 0x2015      |        8213 |
|     212 | 0x2016      |        8214 |
|     213 | 0x2017      |        8215 |
|     214 | 0xFFFEDAF3  |  4294892275 |
|     215 | 0x6AC04     |      437252 |
|     216 | 0x002F      |          47 |
|     217 | 0xFFFEDE85  |  4294893189 |
|     218 | 0x6BC37     |      441399 |
|     219 | 0x005D      |          93 |
|     220 | 0x2018      |        8216 |
|     221 | 0x0118      |         280 |
|     222 | 0x2019      |        8217 |
|     223 | 0x0172      |         370 |
|     224 | 0x201A      |        8218 |
|     225 | 0xFFFEEE9F  |  4294897311 |
|     226 | 0x6ABF6     |      437238 |
|     227 | 0x012A      |         298 |
|     228 | 0x02DA      |         730 |
|     229 | 0xFFFEF49E  |  4294898846 |
|     230 | 0x6B59D     |      439709 |
|     231 | 0x0177      |         375 |
|     232 | 0x201B      |        8219 |
|     233 | 0x201C      |        8220 |
|     234 | 0x201D      |        8221 |
|     235 | 0x201E      |        8222 |
|     236 | 0x201F      |        8223 |
|     237 | 0x0015      |          21 |
|     238 | 0x0003      |           3 |
|     239 | 0x0004      |           4 |
|     240 | 0x0006      |           6 |
|     241 | 0x0007      |           7 |
|     242 | 0x0008      |           8 |
|     243 | 0x2020      |        8224 |
|     244 | 0x2021      |        8225 |
|     245 | 0x2022      |        8226 |
|     246 | 0x2023      |        8227 |
|     247 | 0x2024      |        8228 |
|     248 | 0x2025      |        8229 |
|     249 | 0x2026      |        8230 |
|     250 | 0xFFFF3121  |  4294914337 |
|     251 | 0x6B28F     |      438927 |
|     252 | 0x01EB      |         491 |
|     253 | 0x0DFB      |        3579 |
|     254 | 0x2027      |        8231 |
|     255 | 0x0032      |          50 |
|     256 | 0x0523      |        1315 |
|     257 | 0x2028      |        8232 |
|     258 | 0x0597      |        1431 |
|     259 | 0x00A0      |         160 |
|     260 | 0xFFFF33A6  |  4294914982 |
|     261 | 0x6B17D     |      438653 |
|     262 | 0x019D      |         413 |
|     263 | 0x0806      |        2054 |
|     264 | 0x2029      |        8233 |
|     265 | 0x202A      |        8234 |
|     266 | 0x0040      |          64 |
|     267 | 0x0A85      |        2693 |
|     268 | 0x0098      |         152 |
|     269 | 0xFFFF614A  |  4294926666 |
|     270 | 0x656A0     |      415392 |
|     271 | 0x02E0      |         736 |
|     272 | 0x03CD      |         973 |
|     273 | 0x0FB0      |        4016 |
|     274 | 0x0898      |        2200 |
|     275 | 0x0A87      |        2695 |
|     276 | 0x000C      |          12 |
|     277 | 0x202B      |        8235 |
|     278 | 0x0099      |         153 |
|     279 | 0x202C      |        8236 |
|     280 | 0x0029      |          41 |
|     281 | 0x002A      |          42 |
|     282 | 0xFFFF37D2  |  4294916050 |
|     283 | 0x69EEA     |      433898 |
|     284 | 0x0020      |          32 |
|     285 | 0x0A09      |        2569 |
|     286 | 0xFFFF38E5  |  4294916325 |
|     287 | 0x6A6C5     |      435909 |
|     288 | 0x01F4      |         500 |
|     289 | 0x0A8C      |        2700 |
|     290 | 0xFFFF338F  |  4294914959 |
|     291 | 0x6AB4F     |      437071 |
|     292 | 0x202D      |        8237 |
|     293 | 0x202E      |        8238 |
|     294 | 0x0069      |         105 |
|     295 | 0xFFFF36FD  |  4294915837 |
|     296 | 0x6B47A     |      439418 |
|     297 | 0x034B      |         843 |
|     298 | 0xFFFF37DB  |  4294916059 |
|     299 | 0x6A73D     |      436029 |
|     300 | 0x015C      |         348 |
|     301 | 0x0BB5      |        2997 |
|     302 | 0xFFFF0A08  |  4294904328 |
|     303 | 0x6B206     |      438790 |
|     304 | 0x0353      |         851 |
|     305 | 0x0017      |          23 |
|     306 | 0x0097      |         151 |
|     307 | 0x098A      |        2442 |
|     308 | 0x202F      |        8239 |
|     309 | 0x00DB      |         219 |
|     310 | 0x2030      |        8240 |
|     311 | 0x0515      |        1301 |
|     312 | 0x000D      |          13 |
|     313 | 0x098C      |        2444 |
|     314 | 0x2031      |        8241 |
|     315 | 0x2032      |        8242 |
|     316 | 0x0861      |        2145 |
|     317 | 0x2033      |        8243 |
|     318 | 0x2034      |        8244 |
|     319 | 0x092D      |        2349 |
|     320 | 0xFFFF3328  |  4294914856 |
|     321 | 0x6B023     |      438307 |
|     322 | 0x01B6      |         438 |
|     323 | 0x0615      |        1557 |
|     324 | 0x00AA      |         170 |
|     325 | 0x2035      |        8245 |
|     326 | 0x2036      |        8246 |
|     327 | 0x0B50      |        2896 |
|     328 | 0x2037      |        8247 |
|     329 | 0x04F9      |        1273 |
|     330 | 0x2038      |        8248 |
|     331 | 0x2039      |        8249 |
|     332 | 0x203A      |        8250 |
|     333 | 0x203B      |        8251 |
|     334 | 0x203C      |        8252 |
|     335 | 0x203D      |        8253 |
|     336 | 0x203E      |        8254 |
|     337 | 0x203F      |        8255 |
|     338 | 0x0065      |         101 |
|     339 | 0x2040      |        8256 |
|     340 | 0x2041      |        8257 |
|     341 | 0x0054      |          84 |
|     342 | 0x3DF0      |       15856 |
|     343 | 0x2043      |        8259 |

## String References

- **8230**: What will you do? [Give in to Zogbog's demand./...]
- **8259**: You see $0. [Take it./Leave it.]

## Events

### Event 65535

#### Metadata

| Field        | Value     |
|--------------|-----------|
| Entrypoint   | 0x0000    |
| Data Size    | 658 bytes |
| Instructions | 1         |

```
      00 01 02 03 04 05 06 07  08 09 0A 0B 0C 0D 0E 0F
      -- -- -- -- -- -- -- --  -- -- -- -- -- -- -- --
0000: 00 45 00 80 F0 FF FF 7F  F0 FF FF 7F 66 64 69 30  .E..........fdi0
0010: 01 80 55 00 80 F0 FF FF  7F F0 FF FF 7F 66 64 69  ..U..........fdi
0020: 30 1B 45 00 80 F0 FF FF  7F F0 FF FF 7F 66 64 6F  0.E..........fdo
0030: 30 01 80 55 00 80 F0 FF  FF 7F F0 FF FF 7F 66 64  0..U..........fd
0040: 6F 30 1B 45 00 80 F0 FF  FF 7F F0 FF FF 7F 66 64  o0.E..........fd
0050: 69 31 01 80 55 00 80 F0  FF FF 7F F0 FF FF 7F 66  i1..U..........f
0060: 64 69 31 1B 45 00 80 F0  FF FF 7F F0 FF FF 7F 66  di1.E..........f
0070: 64 6F 31 01 80 55 00 80  F0 FF FF 7F F0 FF FF 7F  do1..U..........
0080: 66 64 6F 31 1B 45 02 80  F0 FF FF 7F F0 FF FF 7F  fdo1.E..........
0090: 77 68 69 31 01 80 55 02  80 F0 FF FF 7F F0 FF FF  whi1..U.........
00A0: 7F 77 68 69 31 1B 45 02  80 F0 FF FF 7F F0 FF FF  .whi1.E.........
00B0: 7F 77 68 6F 31 01 80 55  02 80 F0 FF FF 7F F0 FF  .who1..U........
00C0: FF 7F 77 68 6F 31 1B 45  02 80 F0 FF FF 7F F0 FF  ..who1.E........
00D0: FF 7F 77 68 6F 32 01 80  55 02 80 F0 FF FF 7F F0  ..who2..U.......
00E0: FF FF 7F 77 68 6F 32 1B  45 02 80 F0 FF FF 7F F0  ...who2.E.......
00F0: FF FF 7F 77 68 6F 33 01  80 55 02 80 F0 FF FF 7F  ...who3..U......
0100: F0 FF FF 7F 77 68 6F 33  1B 62 03 80 F0 FF FF 7F  ....who3.b......
0110: F0 FF FF 7F 6D 61 69 6E  01 80 1C 04 80 45 00 80  ....main.....E..
0120: F0 FF FF 7F F0 FF FF 7F  66 64 6F 31 01 80 55 00  ........fdo1..U.
0130: 80 F0 FF FF 7F F0 FF FF  7F 66 64 6F 31 1B 45 00  .........fdo1.E.
0140: 80 F0 FF FF 7F F0 FF FF  7F 66 64 69 31 01 80 62  .........fdi1..b
0150: 05 80 F0 FF FF 7F F0 FF  FF 7F 6D 61 69 6E 01 80  ..........main..
0160: 1C 06 80 55 00 80 F0 FF  FF 7F F0 FF FF 7F 66 64  ...U..........fd
0170: 69 31 1B 45 00 80 F0 FF  FF 7F F0 FF FF 7F 62 6C  i1.E..........bl
0180: 6F 6E 01 80 45 02 80 F0  FF FF 7F F0 FF FF 7F 62  on..E..........b
0190: 6C 6F 6E 01 80 1B 45 02  80 F0 FF FF 7F F0 FF FF  lon...E.........
01A0: 7F 77 68 69 30 01 80 55  02 80 F0 FF FF 7F F0 FF  .whi0..U........
01B0: FF 7F 77 68 69 30 1B 45  02 80 F0 FF FF 7F F0 FF  ..whi0.E........
01C0: FF 7F 77 68 6F 30 01 80  55 02 80 F0 FF FF 7F F0  ..who0..U.......
01D0: FF FF 7F 77 68 6F 30 1B  45 07 80 F0 FF FF 7F F0  ...who0.E.......
01E0: FF FF 7F 65 66 6F 6E 01  80 55 07 80 F0 FF FF 7F  ...efon..U......
01F0: F0 FF FF 7F 65 66 6F 6E  1B 45 00 80 F0 FF FF 7F  ....efon.E......
0200: F0 FF FF 7F 66 64 69 73  01 80 1B 45 00 80 F0 FF  ....fdis...E....
0210: FF 7F F0 FF FF 7F 66 64  6F 73 01 80 55 00 80 F0  ......fdos..U...
0220: FF FF 7F F0 FF FF 7F 66  64 6F 73 1B 45 00 80 F0  .......fdos.E...
0230: FF FF 7F F0 FF FF 7F 66  64 69 66 01 80 1B 45 00  .......fdif...E.
0240: 80 F0 FF FF 7F F0 FF FF  7F 66 64 6F 66 01 80 55  .........fdof..U
0250: 00 80 F0 FF FF 7F F0 FF  FF 7F 66 64 6F 66 1B 45  ..........fdof.E
0260: 00 80 F0 FF FF 7F F0 FF  FF 7F 66 64 69 70 01 80  ..........fdip..
0270: 1B 45 00 80 F0 FF FF 7F  F0 FF FF 7F 66 64 6F 70  .E..........fdop
0280: 01 80 55 00 80 F0 FF FF  7F F0 FF FF 7F 66 64 6F  ..U..........fdo
0290: 70 1B                                             p.              
```

#### Opcodes

```
  0: 0x0000 [0x00] END_REQSTACK()
```

#### Data or dead code:

```
# Dead code (unreachable instructions):
     0x0001 [0x45] LOAD_SCHEDULED_TASK: Load scheduler "fdi0" with entities [LocalPlayer, LocalPlayer], work=[200*, 0*]
     0x0012 [0x55] WAIT_LOAD_SCHEDULER: Wait for scheduler "fdi0" with entities [LocalPlayer, LocalPlayer], work=200*
     0x0021 [0x1B] RETURN
     0x0022 [0x45] LOAD_SCHEDULED_TASK: Load scheduler "fdo0" with entities [LocalPlayer, LocalPlayer], work=[200*, 0*]
     0x0033 [0x55] WAIT_LOAD_SCHEDULER: Wait for scheduler "fdo0" with entities [LocalPlayer, LocalPlayer], work=200*
     0x0042 [0x1B] RETURN
     0x0043 [0x45] LOAD_SCHEDULED_TASK: Load scheduler "fdi1" with entities [LocalPlayer, LocalPlayer], work=[200*, 0*]
     0x0054 [0x55] WAIT_LOAD_SCHEDULER: Wait for scheduler "fdi1" with entities [LocalPlayer, LocalPlayer], work=200*
     0x0063 [0x1B] RETURN
     0x0064 [0x45] LOAD_SCHEDULED_TASK: Load scheduler "fdo1" with entities [LocalPlayer, LocalPlayer], work=[200*, 0*]
     0x0075 [0x55] WAIT_LOAD_SCHEDULER: Wait for scheduler "fdo1" with entities [LocalPlayer, LocalPlayer], work=200*
     0x0084 [0x1B] RETURN
     0x0085 [0x45] LOAD_SCHEDULED_TASK: Load scheduler "whi1" with entities [LocalPlayer, LocalPlayer], work=[201*, 0*]
     0x0096 [0x55] WAIT_LOAD_SCHEDULER: Wait for scheduler "whi1" with entities [LocalPlayer, LocalPlayer], work=201*
     0x00A5 [0x1B] RETURN
     0x00A6 [0x45] LOAD_SCHEDULED_TASK: Load scheduler "who1" with entities [LocalPlayer, LocalPlayer], work=[201*, 0*]
     0x00B7 [0x55] WAIT_LOAD_SCHEDULER: Wait for scheduler "who1" with entities [LocalPlayer, LocalPlayer], work=201*
     0x00C6 [0x1B] RETURN
     0x00C7 [0x45] LOAD_SCHEDULED_TASK: Load scheduler "who2" with entities [LocalPlayer, LocalPlayer], work=[201*, 0*]
     0x00D8 [0x55] WAIT_LOAD_SCHEDULER: Wait for scheduler "who2" with entities [LocalPlayer, LocalPlayer], work=201*
     0x00E7 [0x1B] RETURN
     0x00E8 [0x45] LOAD_SCHEDULED_TASK: Load scheduler "who3" with entities [LocalPlayer, LocalPlayer], work=[201*, 0*]
     0x00F9 [0x55] WAIT_LOAD_SCHEDULER: Wait for scheduler "who3" with entities [LocalPlayer, LocalPlayer], work=201*
     0x0108 [0x1B] RETURN
     0x0109 [0x62] LOAD_EVENT_SCHEDULER: Load scheduler "main" with entities [LocalPlayer, LocalPlayer], work=[1*, 0*]
     0x011A [0x1C] WAIT(45* ticks)
     0x011D [0x45] LOAD_SCHEDULED_TASK: Load scheduler "fdo1" with entities [LocalPlayer, LocalPlayer], work=[200*, 0*]
     0x012E [0x55] WAIT_LOAD_SCHEDULER: Wait for scheduler "fdo1" with entities [LocalPlayer, LocalPlayer], work=200*
     0x013D [0x1B] RETURN
     0x013E [0x45] LOAD_SCHEDULED_TASK: Load scheduler "fdi1" with entities [LocalPlayer, LocalPlayer], work=[200*, 0*]
     0x014F [0x62] LOAD_EVENT_SCHEDULER: Load scheduler "main" with entities [LocalPlayer, LocalPlayer], work=[2*, 0*]
     0x0160 [0x1C] WAIT(30* ticks)
     0x0163 [0x55] WAIT_LOAD_SCHEDULER: Wait for scheduler "fdi1" with entities [LocalPlayer, LocalPlayer], work=200*
     0x0172 [0x1B] RETURN
     0x0173 [0x45] LOAD_SCHEDULED_TASK: Load scheduler "blon" with entities [LocalPlayer, LocalPlayer], work=[200*, 0*]
     0x0184 [0x45] LOAD_SCHEDULED_TASK: Load scheduler "blon" with entities [LocalPlayer, LocalPlayer], work=[201*, 0*]
     0x0195 [0x1B] RETURN
     0x0196 [0x45] LOAD_SCHEDULED_TASK: Load scheduler "whi0" with entities [LocalPlayer, LocalPlayer], work=[201*, 0*]
     0x01A7 [0x55] WAIT_LOAD_SCHEDULER: Wait for scheduler "whi0" with entities [LocalPlayer, LocalPlayer], work=201*
     0x01B6 [0x1B] RETURN
     0x01B7 [0x45] LOAD_SCHEDULED_TASK: Load scheduler "who0" with entities [LocalPlayer, LocalPlayer], work=[201*, 0*]
     0x01C8 [0x55] WAIT_LOAD_SCHEDULER: Wait for scheduler "who0" with entities [LocalPlayer, LocalPlayer], work=201*
     0x01D7 [0x1B] RETURN
     0x01D8 [0x45] LOAD_SCHEDULED_TASK: Load scheduler "efon" with entities [LocalPlayer, LocalPlayer], work=[215*, 0*]
     0x01E9 [0x55] WAIT_LOAD_SCHEDULER: Wait for scheduler "efon" with entities [LocalPlayer, LocalPlayer], work=215*
     0x01F8 [0x1B] RETURN
     0x01F9 [0x45] LOAD_SCHEDULED_TASK: Load scheduler "fdis" with entities [LocalPlayer, LocalPlayer], work=[200*, 0*]
     0x020A [0x1B] RETURN
     0x020B [0x45] LOAD_SCHEDULED_TASK: Load scheduler "fdos" with entities [LocalPlayer, LocalPlayer], work=[200*, 0*]
     0x021C [0x55] WAIT_LOAD_SCHEDULER: Wait for scheduler "fdos" with entities [LocalPlayer, LocalPlayer], work=200*
     0x022B [0x1B] RETURN
     0x022C [0x45] LOAD_SCHEDULED_TASK: Load scheduler "fdif" with entities [LocalPlayer, LocalPlayer], work=[200*, 0*]
     0x023D [0x1B] RETURN
     0x023E [0x45] LOAD_SCHEDULED_TASK: Load scheduler "fdof" with entities [LocalPlayer, LocalPlayer], work=[200*, 0*]
     0x024F [0x55] WAIT_LOAD_SCHEDULER: Wait for scheduler "fdof" with entities [LocalPlayer, LocalPlayer], work=200*
     0x025E [0x1B] RETURN
     0x025F [0x45] LOAD_SCHEDULED_TASK: Load scheduler "fdip" with entities [LocalPlayer, LocalPlayer], work=[200*, 0*]
     0x0270 [0x1B] RETURN
     0x0271 [0x45] LOAD_SCHEDULED_TASK: Load scheduler "fdop" with entities [LocalPlayer, LocalPlayer], work=[200*, 0*]
     0x0282 [0x55] WAIT_LOAD_SCHEDULER: Wait for scheduler "fdop" with entities [LocalPlayer, LocalPlayer], work=200*
     0x0291 [0x1B] RETURN
```

### Event 114

#### Metadata

| Field        | Value     |
|--------------|-----------|
| Entrypoint   | 0x0292    |
| Data Size    | 702 bytes |
| Instructions | 86        |

```
      00 01 02 03 04 05 06 07  08 09 0A 0B 0C 0D 0E 0F
      -- -- -- -- -- -- -- --  -- -- -- -- -- -- -- --
0290:       42 1A 64 00 5D 01  80 08 80 46 01 38 09 80    B.d.]....F.8..
02A0: 27 10 DE 43 05 01 04 27  10 E3 43 05 01 04 27 10  '..C...'..C...'.
02B0: E6 43 05 01 04 92 01 E3  43 05 01 92 01 DE 43 05  .C......C.....C.
02C0: 01 92 01 E6 43 05 01 94  01 F0 FF FF 7F 94 01 E3  ....C...........
02D0: 43 05 01 94 01 DE 43 05  01 94 01 E6 43 05 01 BA  C.....C.....C...
02E0: DE 43 05 01 0A 80 0B 80  0C 80 01 80 BA E3 43 05  .C............C.
02F0: 01 0D 80 0B 80 0C 80 01  80 BA E6 43 05 01 0E 80  ...........C....
0300: 0B 80 0F 80 10 80 80 F0  FF FF 7F 80 DE 43 05 01  .............C..
0310: 80 E3 43 05 01 80 E6 43  05 01 79 00 E3 43 05 01  ..C....C..y..C..
0320: E6 43 05 01 1C 08 80 27  10 E3 43 05 01 09 45 11  .C.....'..C...E.
0330: 80 F0 FF FF 7F F0 FF FF  7F 30 62 30 30 01 80 1A  .........0b00...
0340: 43 00 1C 12 80 52 11 80  F0 FF FF 7F F0 FF FF 7F  C....R..........
0350: 30 62 30 30 45 11 80 F0  FF FF 7F F0 FF FF 7F 30  0b00E..........0
0360: 62 30 31 01 80 1C 13 80  27 10 DE 43 05 01 09 1C  b01.....'..C....
0370: 06 80 52 11 80 F0 FF FF  7F F0 FF FF 7F 30 62 30  ..R..........0b0
0380: 31 45 11 80 F0 FF FF 7F  F0 FF FF 7F 62 6C 6F 66  1E..........blof
0390: 01 80 45 11 80 F0 FF FF  7F F0 FF FF 7F 30 62 30  ..E..........0b0
03A0: 32 01 80 1C 14 80 52 11  80 F0 FF FF 7F F0 FF FF  2.....R.........
03B0: 7F 30 62 30 32 45 11 80  F0 FF FF 7F F0 FF FF 7F  .0b02E..........
03C0: 30 62 30 33 01 80 4A E3  43 05 01 DE 43 05 01 2B  0b03..J.C...C..+
03D0: DE 43 05 01 15 80 1C 16  80 23 5C 00 17 80 5C 01  .C.......#\...\.
03E0: 17 80 9A 52 11 80 F0 FF  FF 7F F0 FF FF 7F 30 62  ...R..........0b
03F0: 30 33 45 11 80 F0 FF FF  7F F0 FF FF 7F 30 62 30  03E..........0b0
0400: 34 01 80 2B E3 43 05 01  18 80 23 52 11 80 F0 FF  4..+.C....#R....
0410: FF 7F F0 FF FF 7F 30 62  30 34 45 11 80 F0 FF FF  ......0b04E.....
0420: 7F F0 FF FF 7F 30 62 30  39 01 80 2B E3 43 05 01  .....0b09..+.C..
0430: 19 80 1C 08 80 23 52 11  80 F0 FF FF 7F F0 FF FF  .....#R.........
0440: 7F 30 62 30 39 45 11 80  F0 FF FF 7F F0 FF FF 7F  .0b09E..........
0450: 30 62 30 37 01 80 2B DE  43 05 01 1A 80 1C 08 80  0b07..+.C.......
0460: 23 52 11 80 F0 FF FF 7F  F0 FF FF 7F 30 62 30 37  #R..........0b07
0470: 45 11 80 F0 FF FF 7F F0  FF FF 7F 62 6C 6F 66 01  E..........blof.
0480: 80 45 11 80 F0 FF FF 7F  F0 FF FF 7F 30 62 30 38  .E..........0b08
0490: 01 80 5B 1B 80 DE 43 05  01 DE 43 05 01 74 6C 61  ..[...C...C..tla
04A0: 30 2B DE 43 05 01 1C 80  1C 16 80 23 29 10 F0 FF  0+.C.......#)...
04B0: FF 7F 36 5B 1B 80 DE 43  05 01 DE 43 05 01 74 6C  ..6[...C...C..tl
04C0: 61 31 52 11 80 F0 FF FF  7F F0 FF FF 7F 30 62 30  a1R..........0b0
04D0: 38 45 11 80 F0 FF FF 7F  F0 FF FF 7F 30 62 30 35  8E..........0b05
04E0: 01 80 2B E3 43 05 01 1D  80 1C 16 80 23 52 11 80  ..+.C.......#R..
04F0: F0 FF FF 7F F0 FF FF 7F  30 62 30 35 45 11 80 F0  ........0b05E...
0500: FF FF 7F F0 FF FF 7F 30  62 30 36 01 80 2B DE 43  .......0b06..+.C
0510: 05 01 1E 80 23 1A 64 00  1C 06 80 52 11 80 F0 FF  ....#.d....R....
0520: FF 7F F0 FF FF 7F 30 62  30 36 45 11 80 F0 FF FF  ......0b06E.....
0530: 7F F0 FF FF 7F 62 6C 6F  66 01 80 46 00 45 00 80  .....blof..F.E..
0540: F0 FF FF 7F F0 FF FF 7F  66 64 69 32 01 80 21 00  ........fdi2..!.
```

#### Opcodes

```
  0: 0x0292 [0x42] SET_CLI_EVENT_CANCEL_DATA()
  1: 0x0293 [0x1A] CALL_SUBROUTINE(address=0x0064)
  2: 0x0296 [0x5D] SET_MUSIC_VOLUME(volume=0*, fade_time=120*)
  3: 0x029B [0x46] CAMERA_CONTROL: Disable user control
  4: 0x029D [0x38] SET_CLIENT_EVENT_MODE(mode=19*)
  5: 0x02A0 [0x27] REQ_SET(priority=0x10, entity_id=Excenmille (ID: 17122270/0x010543DE), tag_num=0x04)
  6: 0x02A7 [0x27] REQ_SET(priority=0x10, entity_id=Alphonimile (ID: 17122275/0x010543E3), tag_num=0x04)
  7: 0x02AE [0x27] REQ_SET(priority=0x10, entity_id=Cavernous Maw (ID: 17122278/0x010543E6), tag_num=0x04)
  8: 0x02B5 [0x92] Alphonimile (ID: 17122275/0x010543E3)->Render.Flags3 ^= 0x01
  9: 0x02BB [0x92] Excenmille (ID: 17122270/0x010543DE)->Render.Flags3 ^= 0x01
 10: 0x02C1 [0x92] Cavernous Maw (ID: 17122278/0x010543E6)->Render.Flags3 ^= 0x01
 11: 0x02C7 [0x94] LocalPlayer->Render.Flags3 ^= 0x01
 12: 0x02CD [0x94] Alphonimile (ID: 17122275/0x010543E3)->Render.Flags3 ^= 0x01
 13: 0x02D3 [0x94] Excenmille (ID: 17122270/0x010543DE)->Render.Flags3 ^= 0x01
 14: 0x02D9 [0x94] Cavernous Maw (ID: 17122278/0x010543E6)->Render.Flags3 ^= 0x01
 15: 0x02DF [0xBA] SET_ENTITY_POSITION(entity_id=Excenmille (ID: 17122270/0x010543DE), pos_x=-75.000*, pos_z=436.919*, pos_y=0.970*, direction=0.0°*)
 16: 0x02EC [0xBA] SET_ENTITY_POSITION(entity_id=Alphonimile (ID: 17122275/0x010543E3), pos_x=-59.000*, pos_z=436.919*, pos_y=0.970*, direction=0.0°*)
 17: 0x02F9 [0xBA] SET_ENTITY_POSITION(entity_id=Cavernous Maw (ID: 17122278/0x010543E6), pos_x=-45.147*, pos_z=436.919*, pos_y=0.056*, direction=180.0°*)
 18: 0x0306 [0x80] LOAD_WAIT(entity=LocalPlayer)
 19: 0x030B [0x80] LOAD_WAIT(entity=Excenmille (ID: 17122270/0x010543DE))
 20: 0x0310 [0x80] LOAD_WAIT(entity=Alphonimile (ID: 17122275/0x010543E3))
 21: 0x0315 [0x80] LOAD_WAIT(entity=Cavernous Maw (ID: 17122278/0x010543E6))
 22: 0x031A [0x79] Alphonimile (ID: 17122275/0x010543E3) looks at Cavernous Maw (ID: 17122278/0x010543E6) (Basic look)
 23: 0x0324 [0x1C] WAIT(120* ticks)
 24: 0x0327 [0x27] REQ_SET(priority=0x10, entity_id=Alphonimile (ID: 17122275/0x010543E3), tag_num=0x09)
 25: 0x032E [0x45] LOAD_SCHEDULED_TASK: Load scheduler "0b00" with entities [LocalPlayer, LocalPlayer], work=[509*, 0*]
 26: 0x033F [0x1A] CALL_SUBROUTINE(address=0x0043)
 27: 0x0342 [0x1C] WAIT(210* ticks)
 28: 0x0345 [0x52] END_LOAD_SCHEDULER: End scheduler "0b00" with entities [LocalPlayer, LocalPlayer], work=509*
 29: 0x0354 [0x45] LOAD_SCHEDULED_TASK: Load scheduler "0b01" with entities [LocalPlayer, LocalPlayer], work=[509*, 0*]
 30: 0x0365 [0x1C] WAIT(300* ticks)
 31: 0x0368 [0x27] REQ_SET(priority=0x10, entity_id=Excenmille (ID: 17122270/0x010543DE), tag_num=0x09)
 32: 0x036F [0x1C] WAIT(30* ticks)
 33: 0x0372 [0x52] END_LOAD_SCHEDULER: End scheduler "0b01" with entities [LocalPlayer, LocalPlayer], work=509*
 34: 0x0381 [0x45] LOAD_SCHEDULED_TASK: Load scheduler "blof" with entities [LocalPlayer, LocalPlayer], work=[509*, 0*]
 35: 0x0392 [0x45] LOAD_SCHEDULED_TASK: Load scheduler "0b02" with entities [LocalPlayer, LocalPlayer], work=[509*, 0*]
 36: 0x03A3 [0x1C] WAIT(180* ticks)
 37: 0x03A6 [0x52] END_LOAD_SCHEDULER: End scheduler "0b02" with entities [LocalPlayer, LocalPlayer], work=509*
 38: 0x03B5 [0x45] LOAD_SCHEDULED_TASK: Load scheduler "0b03" with entities [LocalPlayer, LocalPlayer], work=[509*, 0*]
 39: 0x03C6 [0x4A] Alphonimile (ID: 17122275/0x010543E3) looks at Excenmille (ID: 17122270/0x010543DE)
 40: 0x03CF [0x2B] Excenmille (ID: 17122270/0x010543DE) [8169*]:
    → "My eyes tell me you're made of flesh and blood. But is it truly you, Father?"
 41: 0x03D6 [0x1C] WAIT(90* ticks)
 42: 0x03D9 [0x23] WAIT_FOR_DIALOG_INTERACTION
 43: 0x03DA [0x5C] MUSIC_CONTROL: Set Idle (Day) music to song 127*
 44: 0x03DE [0x5C] MUSIC_CONTROL: Set Idle (Night) music to song 127*
 45: 0x03E2 [0x9A] WAIT_MUSIC_SERVER()
 46: 0x03E3 [0x52] END_LOAD_SCHEDULER: End scheduler "0b03" with entities [LocalPlayer, LocalPlayer], work=509*
 47: 0x03F2 [0x45] LOAD_SCHEDULED_TASK: Load scheduler "0b04" with entities [LocalPlayer, LocalPlayer], work=[509*, 0*]
 48: 0x0403 [0x2B] Alphonimile (ID: 17122275/0x010543E3) [8170*]:
    → "Excenmille. How it warms the heart to see you again."
 49: 0x040A [0x23] WAIT_FOR_DIALOG_INTERACTION
 50: 0x040B [0x52] END_LOAD_SCHEDULER: End scheduler "0b04" with entities [LocalPlayer, LocalPlayer], work=509*
 51: 0x041A [0x45] LOAD_SCHEDULED_TASK: Load scheduler "0b09" with entities [LocalPlayer, LocalPlayer], work=[509*, 0*]
 52: 0x042B [0x2B] Alphonimile (ID: 17122275/0x010543E3) [8171*]:
    → "Your father has cheated death's voracious jaws! Come, my son and heir. Come with me, and together let us journey to a future untouched by strife and suffering."
 53: 0x0432 [0x1C] WAIT(120* ticks)
 54: 0x0435 [0x23] WAIT_FOR_DIALOG_INTERACTION
 55: 0x0436 [0x52] END_LOAD_SCHEDULER: End scheduler "0b09" with entities [LocalPlayer, LocalPlayer], work=509*
 56: 0x0445 [0x45] LOAD_SCHEDULED_TASK: Load scheduler "0b07" with entities [LocalPlayer, LocalPlayer], work=[509*, 0*]
 57: 0x0456 [0x2B] Excenmille (ID: 17122270/0x010543DE) [8172*]:
    → "What? Journey...to the future?"
 58: 0x045D [0x1C] WAIT(120* ticks)
 59: 0x0460 [0x23] WAIT_FOR_DIALOG_INTERACTION
 60: 0x0461 [0x52] END_LOAD_SCHEDULER: End scheduler "0b07" with entities [LocalPlayer, LocalPlayer], work=509*
 61: 0x0470 [0x45] LOAD_SCHEDULED_TASK: Load scheduler "blof" with entities [LocalPlayer, LocalPlayer], work=[509*, 0*]
 62: 0x0481 [0x45] LOAD_SCHEDULED_TASK: Load scheduler "0b08" with entities [LocalPlayer, LocalPlayer], work=[509*, 0*]
 63: 0x0492 [0x5B] LOAD_EXT_SCHEDULER: Load scheduler "tla0" with entities [Excenmille (ID: 17122270/0x010543DE), Excenmille (ID: 17122270/0x010543DE)], work=1272*
 64: 0x04A1 [0x2B] Excenmille (ID: 17122270/0x010543DE) [8173*]:
    → "You're making no sense, Father."
 65: 0x04A8 [0x1C] WAIT(90* ticks)
 66: 0x04AB [0x23] WAIT_FOR_DIALOG_INTERACTION
 67: 0x04AC [0x29] REQ_SET_WAIT(priority=0x10, entity_id=LocalPlayer, tag_num=0x36)
 68: 0x04B3 [0x5B] LOAD_EXT_SCHEDULER: Load scheduler "tla1" with entities [Excenmille (ID: 17122270/0x010543DE), Excenmille (ID: 17122270/0x010543DE)], work=1272*
 69: 0x04C2 [0x52] END_LOAD_SCHEDULER: End scheduler "0b08" with entities [LocalPlayer, LocalPlayer], work=509*
 70: 0x04D1 [0x45] LOAD_SCHEDULED_TASK: Load scheduler "0b05" with entities [LocalPlayer, LocalPlayer], work=[509*, 0*]
 71: 0x04E2 [0x2B] Alphonimile (ID: 17122275/0x010543E3) [8174*]:
    → "'Tis possible if we wield the power of the cavernous maw. We but require the presence of a single [woman/man]--the one in whom you place your trust."
 72: 0x04E9 [0x1C] WAIT(90* ticks)
 73: 0x04EC [0x23] WAIT_FOR_DIALOG_INTERACTION
 74: 0x04ED [0x52] END_LOAD_SCHEDULER: End scheduler "0b05" with entities [LocalPlayer, LocalPlayer], work=509*
 75: 0x04FC [0x45] LOAD_SCHEDULED_TASK: Load scheduler "0b06" with entities [LocalPlayer, LocalPlayer], work=[509*, 0*]
 76: 0x050D [0x2B] Excenmille (ID: 17122270/0x010543DE) [8175*]:
    → "The [woman/man]? <Player>...?"
 77: 0x0514 [0x23] WAIT_FOR_DIALOG_INTERACTION
 78: 0x0515 [0x1A] CALL_SUBROUTINE(address=0x0064)
 79: 0x0518 [0x1C] WAIT(30* ticks)
 80: 0x051B [0x52] END_LOAD_SCHEDULER: End scheduler "0b06" with entities [LocalPlayer, LocalPlayer], work=509*
 81: 0x052A [0x45] LOAD_SCHEDULED_TASK: Load scheduler "blof" with entities [LocalPlayer, LocalPlayer], work=[509*, 0*]
 82: 0x053B [0x46] CAMERA_CONTROL: Restore default settings
 83: 0x053D [0x45] LOAD_SCHEDULED_TASK: Load scheduler "fdi2" with entities [LocalPlayer, LocalPlayer], work=[200*, 0*]
 84: 0x054E [0x21] END_EVENT
 85: 0x054F [0x00] END_REQSTACK()
```

### Event 115

#### Metadata

| Field        | Value      |
|--------------|------------|
| Entrypoint   | 0x0550     |
| Data Size    | 3531 bytes |
| Instructions | 414        |

```
      00 01 02 03 04 05 06 07  08 09 0A 0B 0C 0D 0E 0F
      -- -- -- -- -- -- -- --  -- -- -- -- -- -- -- --
0550: 42 1A 64 00 46 01 38 09  80 27 10 DE 43 05 01 04  B.d.F.8..'..C...
0560: 27 10 E3 43 05 01 04 27  10 E4 43 05 01 02 27 10  '..C...'..C...'.
0570: E5 43 05 01 02 27 10 E9  43 05 01 02 27 10 E6 43  .C...'..C...'..C
0580: 05 01 04 27 10 EB 43 05  01 02 92 01 DE 43 05 01  ...'..C......C..
0590: 92 01 E3 43 05 01 92 01  E4 43 05 01 92 01 E5 43  ...C.....C.....C
05A0: 05 01 92 01 E9 43 05 01  92 01 E6 43 05 01 92 01  .....C.....C....
05B0: EB 43 05 01 94 01 F0 FF  FF 7F 94 01 DE 43 05 01  .C...........C..
05C0: 94 01 E3 43 05 01 94 01  E4 43 05 01 94 01 E5 43  ...C.....C.....C
05D0: 05 01 94 01 E9 43 05 01  94 01 E6 43 05 01 94 01  .....C.....C....
05E0: EB 43 05 01 BA F0 FF FF  7F 1F 80 20 80 21 80 22  .C......... .!."
05F0: 80 BA DE 43 05 01 23 80  24 80 0C 80 25 80 BA E3  ...C..#.$...%...
0600: 43 05 01 26 80 27 80 28  80 29 80 BA E4 43 05 01  C..&.'.(.)...C..
0610: 2A 80 2B 80 2C 80 2D 80  BA E5 43 05 01 2E 80 2F  *.+.,.-...C..../
0620: 80 30 80 31 80 BA E9 43  05 01 32 80 33 80 34 80  .0.1...C..2.3.4.
0630: 35 80 BA EA 43 05 01 36  80 37 80 38 80 39 80 BA  5...C..6.7.8.9..
0640: EB 43 05 01 3A 80 3B 80  3C 80 3D 80 4A F0 FF FF  .C..:.;.<.=.J...
0650: 7F E3 43 05 01 4A DE 43  05 01 E3 43 05 01 4A E3  ..C..J.C...C..J.
0660: 43 05 01 DE 43 05 01 4A  E5 43 05 01 DE 43 05 01  C...C..J.C...C..
0670: 4A EB 43 05 01 DE 43 05  01 7B F0 FF FF 7F 7B DE  J.C...C..{....{.
0680: 43 05 01 7B E3 43 05 01  7B E4 43 05 01 7B E9 43  C..{.C..{.C..{.C
0690: 05 01 7B F0 FF FF 7F 7B  E5 43 05 01 7B EB 43 05  ..{....{.C..{.C.
06A0: 01 6C F0 FF FF 7F 01 80  03 80 80 F0 FF FF 7F 80  .l..............
06B0: DE 43 05 01 80 E3 43 05  01 80 E4 43 05 01 80 E5  .C....C....C....
06C0: 43 05 01 80 E9 43 05 01  80 E6 43 05 01 80 EB 43  C....C....C....C
06D0: 05 01 5C 00 3E 80 5C 01  3E 80 9A 5B 3F 80 EB 43  ..\.>.\.>..[?..C
06E0: 05 01 EB 43 05 01 74 6C  61 30 1C 06 80 45 40 80  ...C..tla0...E@.
06F0: F0 FF FF 7F F0 FF FF 7F  72 31 30 31 01 80 1A 43  ........r101...C
0700: 00 1C 08 80 52 40 80 F0  FF FF 7F F0 FF FF 7F 72  ....R@.........r
0710: 31 30 31 45 40 80 F0 FF  FF 7F F0 FF FF 7F 72 31  101E@.........r1
0720: 30 32 01 80 03 02 10 08  80 27 10 EA 43 05 01 0A  02.......'..C...
0730: 5B 1B 80 DE 43 05 01 DE  43 05 01 74 6C 62 30 2B  [...C...C..tlb0+
0740: DE 43 05 01 41 80 23 2A  10 EA 43 05 01 5B 1B 80  .C..A.#*..C..[..
0750: DE 43 05 01 DE 43 05 01  74 6C 62 31 52 40 80 F0  .C...C..tlb1R@..
0760: FF FF 7F F0 FF FF 7F 72  31 30 32 45 40 80 F0 FF  .......r102E@...
0770: FF 7F F0 FF FF 7F 72 31  30 33 01 80 1C 42 80 03  ......r103...B..
0780: 02 10 42 80 27 10 EA 43  05 01 0A 2B DE 43 05 01  ..B.'..C...+.C..
0790: 43 80 23 2A 10 EA 43 05  01 5D 01 80 08 80 52 40  C.#*..C..]....R@
07A0: 80 F0 FF FF 7F F0 FF FF  7F 72 31 30 33 45 40 80  .........r103E@.
07B0: F0 FF FF 7F F0 FF FF 7F  72 31 33 33 01 80 03 02  ........r133....
07C0: 10 14 80 27 10 EA 43 05  01 0A 2B DE 43 05 01 44  ...'..C...+.C..D
07D0: 80 23 2A 10 EA 43 05 01  52 40 80 F0 FF FF 7F F0  .#*..C..R@......
07E0: FF FF 7F 72 31 33 33 45  40 80 F0 FF FF 7F F0 FF  ...r133E@.......
07F0: FF 7F 62 6C 6F 66 01 80  45 40 80 F0 FF FF 7F F0  ..blof..E@......
0800: FF FF 7F 72 31 30 34 01  80 1C 42 80 03 02 10 08  ...r104...B.....
0810: 80 27 10 EA 43 05 01 0A  66 45 80 E3 43 05 01 E3  .'..C...fE..C...
0820: 43 05 01 74 6C 6B 30 2B  E3 43 05 01 46 80 23 2A  C..tlk0+.C..F.#*
0830: 10 EA 43 05 01 5B 47 80  DE 43 05 01 DE 43 05 01  ..C..[G..C...C..
0840: 73 68 74 30 52 40 80 F0  FF FF 7F F0 FF FF 7F 72  sht0R@.........r
0850: 31 30 34 45 40 80 F0 FF  FF 7F F0 FF FF 7F 72 31  104E@.........r1
0860: 32 32 01 80 66 45 80 E3  43 05 01 E3 43 05 01 74  22..fE..C...C..t
0870: 6C 6B 31 03 02 10 08 80  27 10 EA 43 05 01 0A 7C  lk1.....'..C...|
0880: 00 DE 43 05 01 81 00 DE  43 05 01 1C 48 80 2B DE  ..C.....C...H.+.
0890: 43 05 01 49 80 23 2A 10  EA 43 05 01 52 40 80 F0  C..I.#*..C..R@..
08A0: FF FF 7F F0 FF FF 7F 72  31 32 32 45 40 80 F0 FF  .......r122E@...
08B0: FF 7F F0 FF FF 7F 72 31  30 37 01 80 2B DE 43 05  ......r107..+.C.
08C0: 01 4A 80 23 2B DE 43 05  01 4B 80 23 5B 47 80 DE  .J.#+.C..K.#[G..
08D0: 43 05 01 DE 43 05 01 73  68 74 31 7C 01 DE 43 05  C...C..sht1|..C.
08E0: 01 81 01 DE 43 05 01 52  40 80 F0 FF FF 7F F0 FF  ....C..R@.......
08F0: FF 7F 72 31 30 37 45 40  80 F0 FF FF 7F F0 FF FF  ..r107E@........
0900: 7F 72 31 32 33 01 80 03  02 10 4C 80 27 10 EA 43  .r123.....L.'..C
0910: 05 01 0A 2B DE 43 05 01  4D 80 23 2A 10 EA 43 05  ...+.C..M.#*..C.
0920: 01 BA E3 43 05 01 4E 80  4F 80 50 80 51 80 4A E3  ...C..N.O.P.Q.J.
0930: 43 05 01 DE 43 05 01 6F  76 E3 43 05 01 7B E3 43  C...C..ov.C..{.C
0940: 05 01 1C 52 80 52 40 80  F0 FF FF 7F F0 FF FF 7F  ...R.R@.........
0950: 72 31 32 33 45 40 80 F0  FF FF 7F F0 FF FF 7F 72  r123E@.........r
0960: 31 30 39 01 80 5B 53 80  DE 43 05 01 DE 43 05 01  109..[S..C...C..
0970: 66 69 30 31 5B 54 80 DE  43 05 01 DE 43 05 01 73  fi01[T..C...C..s
0980: 61 67 30 7C 00 DE 43 05  01 81 00 DE 43 05 01 03  ag0|..C.....C...
0990: 02 10 08 80 27 10 EA 43  05 01 0A 2B DE 43 05 01  ....'..C...+.C..
09A0: 55 80 23 2A 10 EA 43 05  01 5B 56 80 DE 43 05 01  U.#*..C..[V..C..
09B0: DE 43 05 01 6D 65 73 30  1C 57 80 52 40 80 F0 FF  .C..mes0.W.R@...
09C0: FF 7F F0 FF FF 7F 72 31  30 39 45 40 80 F0 FF FF  ......r109E@....
09D0: 7F F0 FF FF 7F 72 31 31  30 01 80 6B 69 64 6C 30  .....r110..kidl0
09E0: EB 43 05 01 2B DE 43 05  01 58 80 23 2B DE 43 05  .C..+.C..X.#+.C.
09F0: 01 59 80 23 52 40 80 F0  FF FF 7F F0 FF FF 7F 72  .Y.#R@.........r
0A00: 31 31 30 45 40 80 F0 FF  FF 7F F0 FF FF 7F 62 6C  110E@.........bl
0A10: 6F 66 01 80 45 40 80 F0  FF FF 7F F0 FF FF 7F 72  of..E@.........r
0A20: 31 31 31 01 80 03 02 10  08 80 27 10 EA 43 05 01  111.......'..C..
0A30: 0A 2B EA 43 05 01 5A 80  23 2A 10 EA 43 05 01 5B  .+.C..Z.#*..C..[
0A40: 5B 80 E5 43 05 01 E5 43  05 01 67 75 66 30 27 10  [..C...C..guf0'.
0A50: E5 43 05 01 0A 27 10 EB  43 05 01 0A 1C 42 80 5C  .C...'..C....B.\
0A60: 00 5C 80 5C 01 5C 80 5C  02 5C 80 5C 03 5C 80 9A  .\.\.\.\.\.\.\..
0A70: 52 40 80 F0 FF FF 7F F0  FF FF 7F 72 31 31 31 45  R@.........r111E
0A80: 40 80 F0 FF FF 7F F0 FF  FF 7F 72 31 31 32 01 80  @.........r112..
0A90: 5B 5B 80 E5 43 05 01 E5  43 05 01 74 6C 62 30 7C  [[..C...C..tlb0|
0AA0: 01 DE 43 05 01 81 01 DE  43 05 01 1C 42 80 4A F0  ..C.....C...B.J.
0AB0: FF FF 7F E5 43 05 01 4A  DE 43 05 01 E5 43 05 01  ....C..J.C...C..
0AC0: 7B F0 FF FF 7F 7B DE 43  05 01 03 02 10 08 80 27  {....{.C.......'
0AD0: 10 EA 43 05 01 0A 6B 69  64 6C 30 DE 43 05 01 5B  ..C...kidl0.C..[
0AE0: 5B 80 E5 43 05 01 E5 43  05 01 74 6C 62 32 2B E5  [..C...C..tlb2+.
0AF0: 43 05 01 5D 80 23 2B E5  43 05 01 5E 80 23 5B 5B  C..].#+.C..^.#[[
0B00: 80 E5 43 05 01 E5 43 05  01 74 6C 62 33 2A 10 EA  ..C...C..tlb3*..
0B10: 43 05 01 5B 1B 80 DE 43  05 01 DE 43 05 01 74 6C  C..[...C...C..tl
0B20: 73 30 1C 5F 80 52 40 80  F0 FF FF 7F F0 FF FF 7F  s0._.R@.........
0B30: 72 31 31 32 45 40 80 F0  FF FF 7F F0 FF FF 7F 72  r112E@.........r
0B40: 31 31 34 01 80 2B DE 43  05 01 60 80 23 6B 69 64  114..+.C..`.#kid
0B50: 6C 30 E5 43 05 01 2B DE  43 05 01 61 80 23 5B 62  l0.C..+.C..a.#[b
0B60: 80 E4 43 05 01 E4 43 05  01 6A 75 6D 30 1C 5F 80  ..C...C..jum0._.
0B70: 52 40 80 F0 FF FF 7F F0  FF FF 7F 72 31 31 34 45  R@.........r114E
0B80: 40 80 F0 FF FF 7F F0 FF  FF 7F 72 31 31 35 01 80  @.........r115..
0B90: 5B 3F 80 E5 43 05 01 E5  43 05 01 74 6C 62 30 2B  [?..C...C..tlb0+
0BA0: E5 43 05 01 63 80 23 6C  E4 43 05 01 64 80 03 80  .C..c.#l.C..d...
0BB0: 1C 57 80 52 40 80 F0 FF  FF 7F F0 FF FF 7F 72 31  .W.R@.........r1
0BC0: 31 35 45 40 80 F0 FF FF  7F F0 FF FF 7F 72 31 31  15E@.........r11
0BD0: 36 01 80 2B DE 43 05 01  65 80 23 2A 10 E3 43 05  6..+.C..e.#*..C.
0BE0: 01 BA E3 43 05 01 66 80  67 80 68 80 69 80 4A E3  ...C..f.g.h.i.J.
0BF0: 43 05 01 DE 43 05 01 6F  76 E3 43 05 01 7B E3 43  C...C..ov.C..{.C
0C00: 05 01 1C 57 80 5B 62 80  E4 43 05 01 E4 43 05 01  ...W.[b..C...C..
0C10: 6A 75 6D 31 1C 03 80 52  40 80 F0 FF FF 7F F0 FF  jum1...R@.......
0C20: FF 7F 72 31 31 36 45 40  80 F0 FF FF 7F F0 FF FF  ..r116E@........
0C30: 7F 72 31 32 34 01 80 1C  6A 80 5B 62 80 E3 43 05  .r124...j.[b..C.
0C40: 01 E3 43 05 01 6A 75 6D  31 1C 5F 80 52 40 80 F0  ..C..jum1._.R@..
0C50: FF FF 7F F0 FF FF 7F 72  31 32 34 45 40 80 F0 FF  .......r124E@...
0C60: FF 7F F0 FF FF 7F 72 31  31 37 01 80 BA F0 FF FF  ......r117......
0C70: 7F 6B 80 6C 80 01 80 6D  80 6C F0 FF FF 7F 64 80  .k.l...m.l....d.
0C80: 03 80 1C 6A 80 5B 6E 80  DE 43 05 01 DE 43 05 01  ...j.[n..C...C..
0C90: 61 73 65 30 55 40 80 F0  FF FF 7F F0 FF FF 7F 72  ase0U@.........r
0CA0: 31 31 37 45 40 80 F0 FF  FF 7F F0 FF FF 7F 72 31  117E@.........r1
0CB0: 30 36 01 80 55 40 80 F0  FF FF 7F F0 FF FF 7F 72  06..U@.........r
0CC0: 31 30 36 45 40 80 F0 FF  FF 7F F0 FF FF 7F 72 31  106E@.........r1
0CD0: 31 39 01 80 55 40 80 F0  FF FF 7F F0 FF FF 7F 72  19..U@.........r
0CE0: 31 31 39 45 40 80 F0 FF  FF 7F F0 FF FF 7F 72 31  119E@.........r1
0CF0: 31 38 01 80 2B DE 43 05  01 6F 80 5D 01 80 42 80  18..+.C..o.]..B.
0D00: 1C 70 80 27 10 F0 FF FF  7F 41 1C 52 80 52 40 80  .p.'.....A.R.R@.
0D10: F0 FF FF 7F F0 FF FF 7F  72 31 31 38 45 40 80 F0  ........r118E@..
0D20: FF FF 7F F0 FF FF 7F 72  31 31 33 01 80 1C 06 80  .......r113.....
0D30: 1A A6 00 52 40 80 F0 FF  FF 7F F0 FF FF 7F 72 31  ...R@.........r1
0D40: 31 33 45 40 80 F0 FF FF  7F F0 FF FF 7F 62 6C 6F  13E@.........blo
0D50: 66 01 80 7A 00 F0 FF FF  7F 79 00 F0 FF FF 7F DE  f..z.....y......
0D60: 43 05 01 BA F0 FF FF 7F  71 80 72 80 73 80 74 80  C.......q.r.s.t.
0D70: BA DE 43 05 01 75 80 76  80 77 80 78 80 BA E3 43  ..C..u.v.w.x...C
0D80: 05 01 79 80 7A 80 7B 80  7C 80 BA E9 43 05 01 79  ..y.z.{.|...C..y
0D90: 80 7A 80 7B 80 7C 80 4E  01 E4 43 05 01 6B 69 64  .z.{.|.N..C..kid
0DA0: 6C 30 DE 43 05 01 6B 69  64 6C 30 E3 43 05 01 5B  l0.C..kidl0.C..[
0DB0: 7D 80 DE 43 05 01 DE 43  05 01 6F 73 61 30 5B 7E  }..C...C..osa0[~
0DC0: 80 E3 43 05 01 E3 43 05  01 79 61 72 30 7B F0 FF  ..C...C..yar0{..
0DD0: FF 7F 7B DE 43 05 01 27  10 F0 FF FF 7F 33 1C 08  ..{.C..'.....3..
0DE0: 80 45 40 80 F0 FF FF 7F  F0 FF FF 7F 72 31 33 35  .E@.........r135
0DF0: 01 80 1A 85 00 1C 08 80  52 40 80 F0 FF FF 7F F0  ........R@......
0E00: FF FF 7F 72 31 33 35 45  40 80 F0 FF FF 7F F0 FF  ...r135E@.......
0E10: FF 7F 72 31 33 34 01 80  2B DE 43 05 01 7F 80 23  ..r134..+.C....#
0E20: 1C 08 80 29 10 F0 FF FF  7F 34 1C 52 80 52 40 80  ...).....4.R.R@.
0E30: F0 FF FF 7F F0 FF FF 7F  72 31 33 34 45 40 80 F0  ........r134E@..
0E40: FF FF 7F F0 FF FF 7F 72  31 30 35 01 80 4A F0 FF  .......r105..J..
0E50: FF 7F E3 43 05 01 6F 76  F0 FF FF 7F 7B F0 FF FF  ...C..ov....{...
0E60: 7F 1C 06 80 5B 7E 80 E3  43 05 01 E3 43 05 01 79  ....[~..C...C..y
0E70: 61 72 31 5B 80 80 E5 43  05 01 E5 43 05 01 61 6E  ar1[...C...C..an
0E80: 67 30 27 10 F0 FF FF 7F  37 1C 81 80 55 40 80 F0  g0'.....7...U@..
0E90: FF FF 7F F0 FF FF 7F 72  31 30 35 45 40 80 F0 FF  .......r105E@...
0EA0: FF 7F F0 FF FF 7F 72 31  32 30 01 80 4A E3 43 05  ......r120..J.C.
0EB0: 01 F0 FF FF 7F 4A E9 43  05 01 F0 FF FF 7F 7B E3  .....J.C......{.
0EC0: 43 05 01 7B E9 43 05 01  6F 76 E3 43 05 01 66 82  C..{.C..ov.C..f.
0ED0: 80 E3 43 05 01 E3 43 05  01 73 70 61 6C 03 02 10  ..C...C..spal...
0EE0: 16 80 4A DE 43 05 01 E5  43 05 01 6F 76 DE 43 05  ..J.C...C..ov.C.
0EF0: 01 7B DE 43 05 01 27 10  EA 43 05 01 0A 2B E5 43  .{.C..'..C...+.C
0F00: 05 01 83 80 23 5B 80 80  E5 43 05 01 E5 43 05 01  ....#[...C...C..
0F10: 61 6E 67 32 2B E5 43 05  01 84 80 23 2B E5 43 05  ang2+.C....#+.C.
0F20: 01 85 80 23 2A 10 EA 43  05 01 5C 00 86 80 5C 01  ...#*..C..\...\.
0F30: 86 80 5C 02 86 80 5C 03  86 80 9A 52 40 80 F0 FF  ..\...\....R@...
0F40: FF 7F F0 FF FF 7F 72 31  32 30 45 40 80 F0 FF FF  ......r120E@....
0F50: 7F F0 FF FF 7F 72 31 32  31 01 80 5B 80 80 E5 43  .....r121..[...C
0F60: 05 01 E5 43 05 01 61 6E  67 31 1C 08 80 BA DE 43  ...C..ang1.....C
0F70: 05 01 87 80 88 80 89 80  8A 80 6B 69 64 6C 30 DE  ..........kidl0.
0F80: 43 05 01 4A DE 43 05 01  E5 43 05 01 4A E5 43 05  C..J.C...C..J.C.
0F90: 01 DE 43 05 01 7B DE 43  05 01 7B E5 43 05 01 52  ..C..{.C..{.C..R
0FA0: 40 80 F0 FF FF 7F F0 FF  FF 7F 72 31 32 31 45 40  @.........r121E@
0FB0: 80 F0 FF FF 7F F0 FF FF  7F 72 31 33 38 01 80 1C  .........r138...
0FC0: 00 80 52 40 80 F0 FF FF  7F F0 FF FF 7F 72 31 33  ..R@.........r13
0FD0: 38 45 40 80 F0 FF FF 7F  F0 FF FF 7F 72 31 32 36  8E@.........r126
0FE0: 01 80 5B 53 80 DE 43 05  01 DE 43 05 01 66 69 30  ..[S..C...C..fi0
0FF0: 31 5B 8B 80 DE 43 05 01  DE 43 05 01 62 74 30 30  1[...C...C..bt00
1000: 2B DE 43 05 01 8C 80 23  5B 80 80 E5 43 05 01 E5  +.C....#[...C...
1010: 43 05 01 61 6E 67 30 2B  DE 43 05 01 8D 80 23 52  C..ang0+.C....#R
1020: 40 80 F0 FF FF 7F F0 FF  FF 7F 72 31 32 36 45 40  @.........r126E@
1030: 80 F0 FF FF 7F F0 FF FF  7F 72 31 32 37 01 80 5B  .........r127..[
1040: 80 80 E5 43 05 01 E5 43  05 01 61 6E 67 32 2B E5  ...C...C..ang2+.
1050: 43 05 01 8E 80 23 2B E5  43 05 01 8F 80 23 5B 80  C....#+.C....#[.
1060: 80 E5 43 05 01 E5 43 05  01 72 6C 6B 30 52 40 80  ..C...C..rlk0R@.
1070: F0 FF FF 7F F0 FF FF 7F  72 31 32 37 45 40 80 F0  ........r127E@..
1080: FF FF 7F F0 FF FF 7F 72  31 32 38 01 80 1C 90 80  .......r128.....
1090: 5B 80 80 E5 43 05 01 E5  43 05 01 72 6C 6B 32 2B  [...C...C..rlk2+
10A0: E5 43 05 01 91 80 23 52  40 80 F0 FF FF 7F F0 FF  .C....#R@.......
10B0: FF 7F 72 31 32 38 45 40  80 F0 FF FF 7F F0 FF FF  ..r128E@........
10C0: 7F 72 31 30 38 01 80 27  10 EA 43 05 01 0B 1C 08  .r108..'..C.....
10D0: 80 52 40 80 F0 FF FF 7F  F0 FF FF 7F 72 31 30 38  .R@.........r108
10E0: 45 40 80 F0 FF FF 7F F0  FF FF 7F 72 31 32 39 01  E@.........r129.
10F0: 80 03 02 10 08 80 27 10  EA 43 05 01 0A 2B DE 43  ......'..C...+.C
1100: 05 01 92 80 23 2A 10 EA  43 05 01 5B 93 80 E5 43  ....#*..C..[...C
1110: 05 01 E5 43 05 01 6F 65  30 30 52 40 80 F0 FF FF  ...C..oe00R@....
1120: 7F F0 FF FF 7F 72 31 32  39 45 40 80 F0 FF FF 7F  .....r129E@.....
1130: F0 FF FF 7F 72 31 33 37  01 80 4A F0 FF FF 7F E3  ....r137..J.....
1140: 43 05 01 7B F0 FF FF 7F  1C 08 80 52 40 80 F0 FF  C..{.......R@...
1150: FF 7F F0 FF FF 7F 72 31  33 37 45 40 80 F0 FF FF  ......r137E@....
1160: 7F F0 FF FF 7F 72 31 33  36 01 80 27 10 EA 43 05  .....r136..'..C.
1170: 01 0C 5B 94 80 E3 43 05  01 E3 43 05 01 68 65 6E  ..[...C...C..hen
1180: 30 5B 94 80 E9 43 05 01  E9 43 05 01 68 65 6E 30  0[...C...C..hen0
1190: BB 95 80 E9 43 05 01 E9  43 05 01 73 30 30 31 01  ....C...C..s001.
11A0: 80 1C 08 80 52 40 80 F0  FF FF 7F F0 FF FF 7F 72  ....R@.........r
11B0: 31 33 36 45 40 80 F0 FF  FF 7F F0 FF FF 7F 72 31  136E@.........r1
11C0: 33 30 01 80 5B 94 80 E3  43 05 01 E3 43 05 01 68  30..[...C...C..h
11D0: 65 6E 31 5B 94 80 E9 43  05 01 E9 43 05 01 68 65  en1[...C...C..he
11E0: 6E 31 03 02 10 96 80 27  10 EA 43 05 01 0A 2B E9  n1.....'..C...+.
11F0: 43 05 01 97 80 23 2A 10  EA 43 05 01 52 40 80 F0  C....#*..C..R@..
1200: FF FF 7F F0 FF FF 7F 72  31 33 30 45 40 80 F0 FF  .......r130E@...
1210: FF 7F F0 FF FF 7F 72 31  33 39 01 80 1C 5F 80 03  ......r139..._..
1220: 02 10 08 80 27 10 EA 43  05 01 0A 4E 01 E3 43 05  ....'..C...N..C.
1230: 01 6C E9 43 05 01 64 80  03 80 27 10 F0 FF FF 7F  .l.C..d...'.....
1240: 37 2B DE 43 05 01 98 80  23 2A 10 EA 43 05 01 52  7+.C....#*..C..R
1250: 40 80 F0 FF FF 7F F0 FF  FF 7F 72 31 33 39 45 40  @.........r139E@
1260: 80 F0 FF FF 7F F0 FF FF  7F 72 31 33 31 01 80 BB  .........r131...
1270: 95 80 E9 43 05 01 E9 43  05 01 73 30 30 32 01 80  ...C...C..s002..
1280: 1C 08 80 BA F0 FF FF 7F  99 80 9A 80 9B 80 9C 80  ................
1290: BA DE 43 05 01 99 80 9A  80 9B 80 9C 80 5B 94 80  ..C..........[..
12A0: E9 43 05 01 E9 43 05 01  68 65 6E 32 1C 06 80 52  .C...C..hen2...R
12B0: 40 80 F0 FF FF 7F F0 FF  FF 7F 72 31 33 31 45 40  @.........r131E@
12C0: 80 F0 FF FF 7F F0 FF FF  7F 72 31 33 32 01 80 2B  .........r132..+
12D0: E9 43 05 01 9D 80 1C 06  80 1A 64 00 45 40 80 F0  .C........d.E@..
12E0: FF FF 7F F0 FF FF 7F 62  6C 6F 66 01 80 52 40 80  .......blof..R@.
12F0: F0 FF FF 7F F0 FF FF 7F  72 31 33 32 27 10 F0 FF  ........r132'...
1300: FF 7F 38 1C 06 80 46 00  45 00 80 F0 FF FF 7F F0  ..8...F.E.......
1310: FF FF 7F 66 64 69 32 01  80 21 00                 ...fdi2..!.     
```

#### Opcodes

```
  0: 0x0550 [0x42] SET_CLI_EVENT_CANCEL_DATA()
  1: 0x0551 [0x1A] CALL_SUBROUTINE(address=0x0064)
  2: 0x0554 [0x46] CAMERA_CONTROL: Disable user control
  3: 0x0556 [0x38] SET_CLIENT_EVENT_MODE(mode=19*)
  4: 0x0559 [0x27] REQ_SET(priority=0x10, entity_id=Excenmille (ID: 17122270/0x010543DE), tag_num=0x04)
  5: 0x0560 [0x27] REQ_SET(priority=0x10, entity_id=Alphonimile (ID: 17122275/0x010543E3), tag_num=0x04)
  6: 0x0567 [0x27] REQ_SET(priority=0x10, entity_id=Alphonimile (ID: 17122276/0x010543E4), tag_num=0x02)
  7: 0x056E [0x27] REQ_SET(priority=0x10, entity_id=Zogbog (ID: 17122277/0x010543E5), tag_num=0x02)
  8: 0x0575 [0x27] REQ_SET(priority=0x10, entity_id=??? (ID: 17122281/0x010543E9), tag_num=0x02)
  9: 0x057C [0x27] REQ_SET(priority=0x10, entity_id=Cavernous Maw (ID: 17122278/0x010543E6), tag_num=0x04)
 10: 0x0583 [0x27] REQ_SET(priority=0x10, entity_id=ma1 (ID: 17122283/0x010543EB), tag_num=0x02)
 11: 0x058A [0x92] Excenmille (ID: 17122270/0x010543DE)->Render.Flags3 ^= 0x01
 12: 0x0590 [0x92] Alphonimile (ID: 17122275/0x010543E3)->Render.Flags3 ^= 0x01
 13: 0x0596 [0x92] Alphonimile (ID: 17122276/0x010543E4)->Render.Flags3 ^= 0x01
 14: 0x059C [0x92] Zogbog (ID: 17122277/0x010543E5)->Render.Flags3 ^= 0x01
 15: 0x05A2 [0x92] ??? (ID: 17122281/0x010543E9)->Render.Flags3 ^= 0x01
 16: 0x05A8 [0x92] Cavernous Maw (ID: 17122278/0x010543E6)->Render.Flags3 ^= 0x01
 17: 0x05AE [0x92] ma1 (ID: 17122283/0x010543EB)->Render.Flags3 ^= 0x01
 18: 0x05B4 [0x94] LocalPlayer->Render.Flags3 ^= 0x01
 19: 0x05BA [0x94] Excenmille (ID: 17122270/0x010543DE)->Render.Flags3 ^= 0x01
 20: 0x05C0 [0x94] Alphonimile (ID: 17122275/0x010543E3)->Render.Flags3 ^= 0x01
 21: 0x05C6 [0x94] Alphonimile (ID: 17122276/0x010543E4)->Render.Flags3 ^= 0x01
 22: 0x05CC [0x94] Zogbog (ID: 17122277/0x010543E5)->Render.Flags3 ^= 0x01
 23: 0x05D2 [0x94] ??? (ID: 17122281/0x010543E9)->Render.Flags3 ^= 0x01
 24: 0x05D8 [0x94] Cavernous Maw (ID: 17122278/0x010543E6)->Render.Flags3 ^= 0x01
 25: 0x05DE [0x94] ma1 (ID: 17122283/0x010543EB)->Render.Flags3 ^= 0x01
 26: 0x05E4 [0xBA] SET_ENTITY_POSITION(entity_id=LocalPlayer, pos_x=-70.209*, pos_z=427.086*, pos_y=-3.984*, direction=33.8°*)
 27: 0x05F1 [0xBA] SET_ENTITY_POSITION(entity_id=Excenmille (ID: 17122270/0x010543DE), pos_x=-59.420*, pos_z=438.187*, pos_y=0.970*, direction=30.8°*)
 28: 0x05FE [0xBA] SET_ENTITY_POSITION(entity_id=Alphonimile (ID: 17122275/0x010543E3), pos_x=-54.696*, pos_z=437.933*, pos_y=0.665*, direction=183.0°*)
 29: 0x060B [0xBA] SET_ENTITY_POSITION(entity_id=Alphonimile (ID: 17122276/0x010543E4), pos_x=-85.138*, pos_z=441.513*, pos_y=0.055*, direction=181.2°*)
 30: 0x0618 [0xBA] SET_ENTITY_POSITION(entity_id=Zogbog (ID: 17122277/0x010543E5), pos_x=-42.176*, pos_z=427.418*, pos_y=0.453*, direction=224.6°*)
 31: 0x0625 [0xBA] SET_ENTITY_POSITION(entity_id=??? (ID: 17122281/0x010543E9), pos_x=-64.330*, pos_z=441.457*, pos_y=0.763*, direction=331.4°*)
 32: 0x0632 [0xBA] SET_ENTITY_POSITION(entity_id=??? (ID: 17122282/0x010543EA), pos_x=-59.121*, pos_z=433.297*, pos_y=-0.071*, direction=205.4°*)
 33: 0x063F [0xBA] SET_ENTITY_POSITION(entity_id=ma1 (ID: 17122283/0x010543EB), pos_x=-37.357*, pos_z=427.667*, pos_y=0.414*, direction=204.3°*)
 34: 0x064C [0x4A] LocalPlayer looks at Alphonimile (ID: 17122275/0x010543E3)
 35: 0x0655 [0x4A] Excenmille (ID: 17122270/0x010543DE) looks at Alphonimile (ID: 17122275/0x010543E3)
 36: 0x065E [0x4A] Alphonimile (ID: 17122275/0x010543E3) looks at Excenmille (ID: 17122270/0x010543DE)
 37: 0x0667 [0x4A] Zogbog (ID: 17122277/0x010543E5) looks at Excenmille (ID: 17122270/0x010543DE)
 38: 0x0670 [0x4A] ma1 (ID: 17122283/0x010543EB) looks at Excenmille (ID: 17122270/0x010543DE)
 39: 0x0679 [0x7B] LocalPlayer stops talking
 40: 0x067E [0x7B] Excenmille (ID: 17122270/0x010543DE) stops talking
 41: 0x0683 [0x7B] Alphonimile (ID: 17122275/0x010543E3) stops talking
 42: 0x0688 [0x7B] Alphonimile (ID: 17122276/0x010543E4) stops talking
 43: 0x068D [0x7B] ??? (ID: 17122281/0x010543E9) stops talking
 44: 0x0692 [0x7B] LocalPlayer stops talking
 45: 0x0697 [0x7B] Zogbog (ID: 17122277/0x010543E5) stops talking
 46: 0x069C [0x7B] ma1 (ID: 17122283/0x010543EB) stops talking
 47: 0x06A1 [0x6C] FADE_ENTITY_COLOR(entity_id=LocalPlayer, end_alpha=0*, fade_time=1*)
 48: 0x06AA [0x80] LOAD_WAIT(entity=LocalPlayer)
 49: 0x06AF [0x80] LOAD_WAIT(entity=Excenmille (ID: 17122270/0x010543DE))
 50: 0x06B4 [0x80] LOAD_WAIT(entity=Alphonimile (ID: 17122275/0x010543E3))
 51: 0x06B9 [0x80] LOAD_WAIT(entity=Alphonimile (ID: 17122276/0x010543E4))
 52: 0x06BE [0x80] LOAD_WAIT(entity=Zogbog (ID: 17122277/0x010543E5))
 53: 0x06C3 [0x80] LOAD_WAIT(entity=??? (ID: 17122281/0x010543E9))
 54: 0x06C8 [0x80] LOAD_WAIT(entity=Cavernous Maw (ID: 17122278/0x010543E6))
 55: 0x06CD [0x80] LOAD_WAIT(entity=ma1 (ID: 17122283/0x010543EB))
 56: 0x06D2 [0x5C] MUSIC_CONTROL: Set Idle (Day) music to song 252*
 57: 0x06D6 [0x5C] MUSIC_CONTROL: Set Idle (Night) music to song 252*
 58: 0x06DA [0x9A] WAIT_MUSIC_SERVER()
 59: 0x06DB [0x5B] LOAD_EXT_SCHEDULER: Load scheduler "tla0" with entities [ma1 (ID: 17122283/0x010543EB), ma1 (ID: 17122283/0x010543EB)], work=1415*
 60: 0x06EA [0x1C] WAIT(30* ticks)
 61: 0x06ED [0x45] LOAD_SCHEDULED_TASK: Load scheduler "r101" with entities [LocalPlayer, LocalPlayer], work=[496*, 0*]
 62: 0x06FE [0x1A] CALL_SUBROUTINE(address=0x0043)
 63: 0x0701 [0x1C] WAIT(120* ticks)
 64: 0x0704 [0x52] END_LOAD_SCHEDULER: End scheduler "r101" with entities [LocalPlayer, LocalPlayer], work=496*
 65: 0x0713 [0x45] LOAD_SCHEDULED_TASK: Load scheduler "r102" with entities [LocalPlayer, LocalPlayer], work=[496*, 0*]
 66: 0x0724 [0x03] Work_Zone[2] = 120*
 67: 0x0729 [0x27] REQ_SET(priority=0x10, entity_id=??? (ID: 17122282/0x010543EA), tag_num=0x0A)
 68: 0x0730 [0x5B] LOAD_EXT_SCHEDULER: Load scheduler "tlb0" with entities [Excenmille (ID: 17122270/0x010543DE), Excenmille (ID: 17122270/0x010543DE)], work=1272*
 69: 0x073F [0x2B] Excenmille (ID: 17122270/0x010543DE) [8176*]:
    → "A future where strife and suffering can reach us not... Do you mean to say that we might live together in peace once more?"
 70: 0x0746 [0x23] WAIT_FOR_DIALOG_INTERACTION
 71: 0x0747 [0x2A] GET_REQ_LEVEL(level=16, entity_id=??? (ID: 17122282/0x010543EA))
 72: 0x074D [0x5B] LOAD_EXT_SCHEDULER: Load scheduler "tlb1" with entities [Excenmille (ID: 17122270/0x010543DE), Excenmille (ID: 17122270/0x010543DE)], work=1272*
 73: 0x075C [0x52] END_LOAD_SCHEDULER: End scheduler "r102" with entities [LocalPlayer, LocalPlayer], work=496*
 74: 0x076B [0x45] LOAD_SCHEDULED_TASK: Load scheduler "r103" with entities [LocalPlayer, LocalPlayer], work=[496*, 0*]
 75: 0x077C [0x1C] WAIT(60* ticks)
 76: 0x077F [0x03] Work_Zone[2] = 60*
 77: 0x0784 [0x27] REQ_SET(priority=0x10, entity_id=??? (ID: 17122282/0x010543EA), tag_num=0x0A)
 78: 0x078B [0x2B] Excenmille (ID: 17122270/0x010543DE) [8177*]:
    → "If you speak the truth...there are few things my heart desires more."
 79: 0x0792 [0x23] WAIT_FOR_DIALOG_INTERACTION
 80: 0x0793 [0x2A] GET_REQ_LEVEL(level=16, entity_id=??? (ID: 17122282/0x010543EA))
 81: 0x0799 [0x5D] SET_MUSIC_VOLUME(volume=0*, fade_time=120*)
 82: 0x079E [0x52] END_LOAD_SCHEDULER: End scheduler "r103" with entities [LocalPlayer, LocalPlayer], work=496*
 83: 0x07AD [0x45] LOAD_SCHEDULED_TASK: Load scheduler "r133" with entities [LocalPlayer, LocalPlayer], work=[496*, 0*]
 84: 0x07BE [0x03] Work_Zone[2] = 180*
 85: 0x07C3 [0x27] REQ_SET(priority=0x10, entity_id=??? (ID: 17122282/0x010543EA), tag_num=0x0A)
 86: 0x07CA [0x2B] Excenmille (ID: 17122270/0x010543DE) [8178*]:
    → "But what would become of the Cardinal Stags?"
 87: 0x07D1 [0x23] WAIT_FOR_DIALOG_INTERACTION
 88: 0x07D2 [0x2A] GET_REQ_LEVEL(level=16, entity_id=??? (ID: 17122282/0x010543EA))
 89: 0x07D8 [0x52] END_LOAD_SCHEDULER: End scheduler "r133" with entities [LocalPlayer, LocalPlayer], work=496*
 90: 0x07E7 [0x45] LOAD_SCHEDULED_TASK: Load scheduler "blof" with entities [LocalPlayer, LocalPlayer], work=[496*, 0*]
 91: 0x07F8 [0x45] LOAD_SCHEDULED_TASK: Load scheduler "r104" with entities [LocalPlayer, LocalPlayer], work=[496*, 0*]
 92: 0x0809 [0x1C] WAIT(60* ticks)
 93: 0x080C [0x03] Work_Zone[2] = 120*
 94: 0x0811 [0x27] REQ_SET(priority=0x10, entity_id=??? (ID: 17122282/0x010543EA), tag_num=0x0A)
 95: 0x0818 [0x66] LOAD_EXT_SCHEDULER_MAIN: Load scheduler "tlk0" with entities [Alphonimile (ID: 17122275/0x010543E3), Alphonimile (ID: 17122275/0x010543E3)], work=29*
 96: 0x0827 [0x2B] Alphonimile (ID: 17122275/0x010543E3) [8179*]:
    → "Why does your heart waver, Excenmille? Is it not your wish that we be reunited?"
 97: 0x082E [0x23] WAIT_FOR_DIALOG_INTERACTION
 98: 0x082F [0x2A] GET_REQ_LEVEL(level=16, entity_id=??? (ID: 17122282/0x010543EA))
 99: 0x0835 [0x5B] LOAD_EXT_SCHEDULER: Load scheduler "sht0" with entities [Excenmille (ID: 17122270/0x010543DE), Excenmille (ID: 17122270/0x010543DE)], work=2350*
100: 0x0844 [0x52] END_LOAD_SCHEDULER: End scheduler "r104" with entities [LocalPlayer, LocalPlayer], work=496*
101: 0x0853 [0x45] LOAD_SCHEDULED_TASK: Load scheduler "r122" with entities [LocalPlayer, LocalPlayer], work=[496*, 0*]
102: 0x0864 [0x66] LOAD_EXT_SCHEDULER_MAIN: Load scheduler "tlk1" with entities [Alphonimile (ID: 17122275/0x010543E3), Alphonimile (ID: 17122275/0x010543E3)], work=29*
103: 0x0873 [0x03] Work_Zone[2] = 120*
104: 0x0878 [0x27] REQ_SET(priority=0x10, entity_id=??? (ID: 17122282/0x010543EA), tag_num=0x0A)
105: 0x087F [0x7C] Excenmille (ID: 17122270/0x010543DE)->Render.Flags2 |= 0x00
106: 0x0885 [0x81] SET_ENTITY_BLINKING(blink_flag=0x00, entity=Excenmille (ID: 17122270/0x010543DE))
107: 0x088B [0x1C] WAIT(70* ticks)
108: 0x088E [0x2B] Excenmille (ID: 17122270/0x010543DE) [8180*]:
    → "No...this isn't right."
109: 0x0895 [0x23] WAIT_FOR_DIALOG_INTERACTION
110: 0x0896 [0x2A] GET_REQ_LEVEL(level=16, entity_id=??? (ID: 17122282/0x010543EA))
111: 0x089C [0x52] END_LOAD_SCHEDULER: End scheduler "r122" with entities [LocalPlayer, LocalPlayer], work=496*
112: 0x08AB [0x45] LOAD_SCHEDULED_TASK: Load scheduler "r107" with entities [LocalPlayer, LocalPlayer], work=[496*, 0*]
113: 0x08BC [0x2B] Excenmille (ID: 17122270/0x010543DE) [8181*]:
    → "You entrusted the ring to me and, with it, the care of House Aurchiat."
114: 0x08C3 [0x23] WAIT_FOR_DIALOG_INTERACTION
115: 0x08C4 [0x2B] Excenmille (ID: 17122270/0x010543DE) [8182*]:
    → "My duty here is far from over."
116: 0x08CB [0x23] WAIT_FOR_DIALOG_INTERACTION
117: 0x08CC [0x5B] LOAD_EXT_SCHEDULER: Load scheduler "sht1" with entities [Excenmille (ID: 17122270/0x010543DE), Excenmille (ID: 17122270/0x010543DE)], work=2350*
118: 0x08DB [0x7C] Excenmille (ID: 17122270/0x010543DE)->Render.Flags2 |= 0x01
119: 0x08E1 [0x81] SET_ENTITY_BLINKING(blink_flag=0x01, entity=Excenmille (ID: 17122270/0x010543DE))
120: 0x08E7 [0x52] END_LOAD_SCHEDULER: End scheduler "r107" with entities [LocalPlayer, LocalPlayer], work=496*
121: 0x08F6 [0x45] LOAD_SCHEDULED_TASK: Load scheduler "r123" with entities [LocalPlayer, LocalPlayer], work=[496*, 0*]
122: 0x0907 [0x03] Work_Zone[2] = 100*
123: 0x090C [0x27] REQ_SET(priority=0x10, entity_id=??? (ID: 17122282/0x010543EA), tag_num=0x0A)
124: 0x0913 [0x2B] Excenmille (ID: 17122270/0x010543DE) [8183*]:
    → "I cannot turn away from responsibility for the sake of my own happiness!"
125: 0x091A [0x23] WAIT_FOR_DIALOG_INTERACTION
126: 0x091B [0x2A] GET_REQ_LEVEL(level=16, entity_id=??? (ID: 17122282/0x010543EA))
127: 0x0921 [0xBA] SET_ENTITY_POSITION(entity_id=Alphonimile (ID: 17122275/0x010543E3), pos_x=-56.729*, pos_z=438.158*, pos_y=0.836*, direction=325.1°*)
128: 0x092E [0x4A] Alphonimile (ID: 17122275/0x010543E3) looks at Excenmille (ID: 17122270/0x010543DE)
129: 0x0937 [0x6F] WAIT_FRAME_DELAY: Yield until WaitTime reaches zero
130: 0x0938 [0x76] CHECK_ENTITY_RENDER_FLAGS: Wait until Alphonimile (ID: 17122275/0x010543E3) Render.Flags0 and Render.Flags3 conditions are met
131: 0x093D [0x7B] Alphonimile (ID: 17122275/0x010543E3) stops talking
132: 0x0942 [0x1C] WAIT(10* ticks)
133: 0x0945 [0x52] END_LOAD_SCHEDULER: End scheduler "r123" with entities [LocalPlayer, LocalPlayer], work=496*
134: 0x0954 [0x45] LOAD_SCHEDULED_TASK: Load scheduler "r109" with entities [LocalPlayer, LocalPlayer], work=[496*, 0*]
135: 0x0965 [0x5B] LOAD_EXT_SCHEDULER: Load scheduler "fi01" with entities [Excenmille (ID: 17122270/0x010543DE), Excenmille (ID: 17122270/0x010543DE)], work=1299*
136: 0x0974 [0x5B] LOAD_EXT_SCHEDULER: Load scheduler "sag0" with entities [Excenmille (ID: 17122270/0x010543DE), Excenmille (ID: 17122270/0x010543DE)], work=1437*
137: 0x0983 [0x7C] Excenmille (ID: 17122270/0x010543DE)->Render.Flags2 |= 0x00
138: 0x0989 [0x81] SET_ENTITY_BLINKING(blink_flag=0x00, entity=Excenmille (ID: 17122270/0x010543DE))
139: 0x098F [0x03] Work_Zone[2] = 120*
140: 0x0994 [0x27] REQ_SET(priority=0x10, entity_id=??? (ID: 17122282/0x010543EA), tag_num=0x0A)
141: 0x099B [0x2B] Excenmille (ID: 17122270/0x010543DE) [8184*]:
    → "Your craven ways wear on me."
142: 0x09A2 [0x23] WAIT_FOR_DIALOG_INTERACTION
143: 0x09A3 [0x2A] GET_REQ_LEVEL(level=16, entity_id=??? (ID: 17122282/0x010543EA))
144: 0x09A9 [0x5B] LOAD_EXT_SCHEDULER: Load scheduler "mes0" with entities [Excenmille (ID: 17122270/0x010543DE), Excenmille (ID: 17122270/0x010543DE)], work=1407*
145: 0x09B8 [0x1C] WAIT(20* ticks)
146: 0x09BB [0x52] END_LOAD_SCHEDULER: End scheduler "r109" with entities [LocalPlayer, LocalPlayer], work=496*
147: 0x09CA [0x45] LOAD_SCHEDULED_TASK: Load scheduler "r110" with entities [LocalPlayer, LocalPlayer], work=[496*, 0*]
148: 0x09DB [0x6B] STOP_AND_IDLE: ma1 (ID: 17122283/0x010543EB) stops current action and resets to idle (animation="idl0")
149: 0x09E4 [0x2B] Excenmille (ID: 17122270/0x010543DE) [8185*]:
    → "Enough of this wretched trickery! If you so desire my life, come take it from me face to face!"
150: 0x09EB [0x23] WAIT_FOR_DIALOG_INTERACTION
151: 0x09EC [0x2B] Excenmille (ID: 17122270/0x010543DE) [8186*]:
    → "Fangmonger Zogbog!"
152: 0x09F3 [0x23] WAIT_FOR_DIALOG_INTERACTION
153: 0x09F4 [0x52] END_LOAD_SCHEDULER: End scheduler "r110" with entities [LocalPlayer, LocalPlayer], work=496*
154: 0x0A03 [0x45] LOAD_SCHEDULED_TASK: Load scheduler "blof" with entities [LocalPlayer, LocalPlayer], work=[496*, 0*]
155: 0x0A14 [0x45] LOAD_SCHEDULED_TASK: Load scheduler "r111" with entities [LocalPlayer, LocalPlayer], work=[496*, 0*]
156: 0x0A25 [0x03] Work_Zone[2] = 120*
157: 0x0A2A [0x27] REQ_SET(priority=0x10, entity_id=??? (ID: 17122282/0x010543EA), tag_num=0x0A)
158: 0x0A31 [0x2B] ??? (ID: 17122282/0x010543EA) [8187*]:
    → "Gahahaha..."
159: 0x0A38 [0x23] WAIT_FOR_DIALOG_INTERACTION
160: 0x0A39 [0x2A] GET_REQ_LEVEL(level=16, entity_id=??? (ID: 17122282/0x010543EA))
161: 0x0A3F [0x5B] LOAD_EXT_SCHEDULER: Load scheduler "guf0" with entities [Zogbog (ID: 17122277/0x010543E5), Zogbog (ID: 17122277/0x010543E5)], work=2597*
162: 0x0A4E [0x27] REQ_SET(priority=0x10, entity_id=Zogbog (ID: 17122277/0x010543E5), tag_num=0x0A)
163: 0x0A55 [0x27] REQ_SET(priority=0x10, entity_id=ma1 (ID: 17122283/0x010543EB), tag_num=0x0A)
164: 0x0A5C [0x1C] WAIT(60* ticks)
165: 0x0A5F [0x5C] MUSIC_CONTROL: Set Idle (Day) music to song 250*
166: 0x0A63 [0x5C] MUSIC_CONTROL: Set Idle (Night) music to song 250*
167: 0x0A67 [0x5C] MUSIC_CONTROL: Set Combat (Solo) music to song 250*
168: 0x0A6B [0x5C] MUSIC_CONTROL: Set Combat (Party) music to song 250*
169: 0x0A6F [0x9A] WAIT_MUSIC_SERVER()
170: 0x0A70 [0x52] END_LOAD_SCHEDULER: End scheduler "r111" with entities [LocalPlayer, LocalPlayer], work=496*
171: 0x0A7F [0x45] LOAD_SCHEDULED_TASK: Load scheduler "r112" with entities [LocalPlayer, LocalPlayer], work=[496*, 0*]
172: 0x0A90 [0x5B] LOAD_EXT_SCHEDULER: Load scheduler "tlb0" with entities [Zogbog (ID: 17122277/0x010543E5), Zogbog (ID: 17122277/0x010543E5)], work=2597*
173: 0x0A9F [0x7C] Excenmille (ID: 17122270/0x010543DE)->Render.Flags2 |= 0x01
174: 0x0AA5 [0x81] SET_ENTITY_BLINKING(blink_flag=0x01, entity=Excenmille (ID: 17122270/0x010543DE))
175: 0x0AAB [0x1C] WAIT(60* ticks)
176: 0x0AAE [0x4A] LocalPlayer looks at Zogbog (ID: 17122277/0x010543E5)
177: 0x0AB7 [0x4A] Excenmille (ID: 17122270/0x010543DE) looks at Zogbog (ID: 17122277/0x010543E5)
178: 0x0AC0 [0x7B] LocalPlayer stops talking
179: 0x0AC5 [0x7B] Excenmille (ID: 17122270/0x010543DE) stops talking
180: 0x0ACA [0x03] Work_Zone[2] = 120*
181: 0x0ACF [0x27] REQ_SET(priority=0x10, entity_id=??? (ID: 17122282/0x010543EA), tag_num=0x0A)
182: 0x0AD6 [0x6B] STOP_AND_IDLE: Excenmille (ID: 17122270/0x010543DE) stops current action and resets to idle (animation="idl0")
183: 0x0ADF [0x5B] LOAD_EXT_SCHEDULER: Load scheduler "tlb2" with entities [Zogbog (ID: 17122277/0x010543E5), Zogbog (ID: 17122277/0x010543E5)], work=2597*
184: 0x0AEE [0x2B] Zogbog (ID: 17122277/0x010543E5) [8188*]:
    → "Bwahahahaha! Tell me, little rabbit. Did you truly believe that your father had returned from the grave?"
185: 0x0AF5 [0x23] WAIT_FOR_DIALOG_INTERACTION
186: 0x0AF6 [0x2B] Zogbog (ID: 17122277/0x010543E5) [8189*]:
    → "If I might recall you to "Father! Waaait!" Gwahahahaha! Oooh, you do slay me! <Sigh>..."
187: 0x0AFD [0x23] WAIT_FOR_DIALOG_INTERACTION
188: 0x0AFE [0x5B] LOAD_EXT_SCHEDULER: Load scheduler "tlb3" with entities [Zogbog (ID: 17122277/0x010543E5), Zogbog (ID: 17122277/0x010543E5)], work=2597*
189: 0x0B0D [0x2A] GET_REQ_LEVEL(level=16, entity_id=??? (ID: 17122282/0x010543EA))
190: 0x0B13 [0x5B] LOAD_EXT_SCHEDULER: Load scheduler "tls0" with entities [Excenmille (ID: 17122270/0x010543DE), Excenmille (ID: 17122270/0x010543DE)], work=1272*
191: 0x0B22 [0x1C] WAIT(5* ticks)
192: 0x0B25 [0x52] END_LOAD_SCHEDULER: End scheduler "r112" with entities [LocalPlayer, LocalPlayer], work=496*
193: 0x0B34 [0x45] LOAD_SCHEDULED_TASK: Load scheduler "r114" with entities [LocalPlayer, LocalPlayer], work=[496*, 0*]
194: 0x0B45 [0x2B] Excenmille (ID: 17122270/0x010543DE) [8190*]:
    → "I'll never fall for your foul machinations, Zogbog! Not in a thousand years! No father of mine would ever serve his own interests at the expense of his loved ones!"
195: 0x0B4C [0x23] WAIT_FOR_DIALOG_INTERACTION
196: 0x0B4D [0x6B] STOP_AND_IDLE: Zogbog (ID: 17122277/0x010543E5) stops current action and resets to idle (animation="idl0")
197: 0x0B56 [0x2B] Excenmille (ID: 17122270/0x010543DE) [8191*]:
    → "Had Father truly come back to life, he would've charged into battle at the first beat of his heart. Never would he dream of turning a blade upon his own! Now, you will tell me where you've taken my men!"
198: 0x0B5D [0x23] WAIT_FOR_DIALOG_INTERACTION
199: 0x0B5E [0x5B] LOAD_EXT_SCHEDULER: Load scheduler "jum0" with entities [Alphonimile (ID: 17122276/0x010543E4), Alphonimile (ID: 17122276/0x010543E4)], work=3099*
200: 0x0B6D [0x1C] WAIT(5* ticks)
201: 0x0B70 [0x52] END_LOAD_SCHEDULER: End scheduler "r114" with entities [LocalPlayer, LocalPlayer], work=496*
202: 0x0B7F [0x45] LOAD_SCHEDULED_TASK: Load scheduler "r115" with entities [LocalPlayer, LocalPlayer], work=[496*, 0*]
203: 0x0B90 [0x5B] LOAD_EXT_SCHEDULER: Load scheduler "tlb0" with entities [Zogbog (ID: 17122277/0x010543E5), Zogbog (ID: 17122277/0x010543E5)], work=1415*
204: 0x0B9F [0x2B] Zogbog (ID: 17122277/0x010543E5) [8192*]:
    → "Your men? Why, the welfare of the dead shouldn't concern the living, my young count."
205: 0x0BA6 [0x23] WAIT_FOR_DIALOG_INTERACTION
206: 0x0BA7 [0x6C] FADE_ENTITY_COLOR(entity_id=Alphonimile (ID: 17122276/0x010543E4), end_alpha=128*, fade_time=1*)
207: 0x0BB0 [0x1C] WAIT(20* ticks)
208: 0x0BB3 [0x52] END_LOAD_SCHEDULER: End scheduler "r115" with entities [LocalPlayer, LocalPlayer], work=496*
209: 0x0BC2 [0x45] LOAD_SCHEDULED_TASK: Load scheduler "r116" with entities [LocalPlayer, LocalPlayer], work=[496*, 0*]
210: 0x0BD3 [0x2B] Excenmille (ID: 17122270/0x010543DE) [8193*]:
    → "You fiend!"
211: 0x0BDA [0x23] WAIT_FOR_DIALOG_INTERACTION
212: 0x0BDB [0x2A] GET_REQ_LEVEL(level=16, entity_id=Alphonimile (ID: 17122275/0x010543E3))
213: 0x0BE1 [0xBA] SET_ENTITY_POSITION(entity_id=Alphonimile (ID: 17122275/0x010543E3), pos_x=-53.432*, pos_z=437.897*, pos_y=0.538*, direction=197.0°*)
214: 0x0BEE [0x4A] Alphonimile (ID: 17122275/0x010543E3) looks at Excenmille (ID: 17122270/0x010543DE)
215: 0x0BF7 [0x6F] WAIT_FRAME_DELAY: Yield until WaitTime reaches zero
216: 0x0BF8 [0x76] CHECK_ENTITY_RENDER_FLAGS: Wait until Alphonimile (ID: 17122275/0x010543E3) Render.Flags0 and Render.Flags3 conditions are met
217: 0x0BFD [0x7B] Alphonimile (ID: 17122275/0x010543E3) stops talking
218: 0x0C02 [0x1C] WAIT(20* ticks)
219: 0x0C05 [0x5B] LOAD_EXT_SCHEDULER: Load scheduler "jum1" with entities [Alphonimile (ID: 17122276/0x010543E4), Alphonimile (ID: 17122276/0x010543E4)], work=3099*
220: 0x0C14 [0x1C] WAIT(1* ticks)
221: 0x0C17 [0x52] END_LOAD_SCHEDULER: End scheduler "r116" with entities [LocalPlayer, LocalPlayer], work=496*
222: 0x0C26 [0x45] LOAD_SCHEDULED_TASK: Load scheduler "r124" with entities [LocalPlayer, LocalPlayer], work=[496*, 0*]
223: 0x0C37 [0x1C] WAIT(15* ticks)
224: 0x0C3A [0x5B] LOAD_EXT_SCHEDULER: Load scheduler "jum1" with entities [Alphonimile (ID: 17122275/0x010543E3), Alphonimile (ID: 17122275/0x010543E3)], work=3099*
225: 0x0C49 [0x1C] WAIT(5* ticks)
226: 0x0C4C [0x52] END_LOAD_SCHEDULER: End scheduler "r124" with entities [LocalPlayer, LocalPlayer], work=496*
227: 0x0C5B [0x45] LOAD_SCHEDULED_TASK: Load scheduler "r117" with entities [LocalPlayer, LocalPlayer], work=[496*, 0*]
228: 0x0C6C [0xBA] SET_ENTITY_POSITION(entity_id=LocalPlayer, pos_x=-77.610*, pos_z=439.721*, pos_y=0.000*, direction=359.3°*)
229: 0x0C79 [0x6C] FADE_ENTITY_COLOR(entity_id=LocalPlayer, end_alpha=128*, fade_time=1*)
230: 0x0C82 [0x1C] WAIT(15* ticks)
231: 0x0C85 [0x5B] LOAD_EXT_SCHEDULER: Load scheduler "ase0" with entities [Excenmille (ID: 17122270/0x010543DE), Excenmille (ID: 17122270/0x010543DE)], work=2989*
232: 0x0C94 [0x55] WAIT_LOAD_SCHEDULER: Wait for scheduler "r117" with entities [LocalPlayer, LocalPlayer], work=496*
233: 0x0CA3 [0x45] LOAD_SCHEDULED_TASK: Load scheduler "r106" with entities [LocalPlayer, LocalPlayer], work=[496*, 0*]
234: 0x0CB4 [0x55] WAIT_LOAD_SCHEDULER: Wait for scheduler "r106" with entities [LocalPlayer, LocalPlayer], work=496*
235: 0x0CC3 [0x45] LOAD_SCHEDULED_TASK: Load scheduler "r119" with entities [LocalPlayer, LocalPlayer], work=[496*, 0*]
236: 0x0CD4 [0x55] WAIT_LOAD_SCHEDULER: Wait for scheduler "r119" with entities [LocalPlayer, LocalPlayer], work=496*
237: 0x0CE3 [0x45] LOAD_SCHEDULED_TASK: Load scheduler "r118" with entities [LocalPlayer, LocalPlayer], work=[496*, 0*]
238: 0x0CF4 [0x2B] Excenmille (ID: 17122270/0x010543DE) [8194*]:
    → "!!!"
239: 0x0CFB [0x5D] SET_MUSIC_VOLUME(volume=0*, fade_time=60*)
240: 0x0D00 [0x1C] WAIT(40* ticks)
241: 0x0D03 [0x27] REQ_SET(priority=0x10, entity_id=LocalPlayer, tag_num=0x41)
242: 0x0D0A [0x1C] WAIT(10* ticks)
243: 0x0D0D [0x52] END_LOAD_SCHEDULER: End scheduler "r118" with entities [LocalPlayer, LocalPlayer], work=496*
244: 0x0D1C [0x45] LOAD_SCHEDULED_TASK: Load scheduler "r113" with entities [LocalPlayer, LocalPlayer], work=[496*, 0*]
245: 0x0D2D [0x1C] WAIT(30* ticks)
246: 0x0D30 [0x1A] CALL_SUBROUTINE(address=0x00A6)
247: 0x0D33 [0x52] END_LOAD_SCHEDULER: End scheduler "r113" with entities [LocalPlayer, LocalPlayer], work=496*
248: 0x0D42 [0x45] LOAD_SCHEDULED_TASK: Load scheduler "blof" with entities [LocalPlayer, LocalPlayer], work=[496*, 0*]
249: 0x0D53 [0x7A] VM_CONTROL: Reset VM for LocalPlayer
250: 0x0D59 [0x79] LocalPlayer looks at Excenmille (ID: 17122270/0x010543DE) (Basic look)
251: 0x0D63 [0xBA] SET_ENTITY_POSITION(entity_id=LocalPlayer, pos_x=-56.626*, pos_z=441.313*, pos_y=0.831*, direction=332.7°*)
252: 0x0D70 [0xBA] SET_ENTITY_POSITION(entity_id=Excenmille (ID: 17122270/0x010543DE), pos_x=-55.726*, pos_z=441.709*, pos_y=0.769*, direction=167.0°*)
253: 0x0D7D [0xBA] SET_ENTITY_POSITION(entity_id=Alphonimile (ID: 17122275/0x010543E3), pos_x=-60.868*, pos_z=439.224*, pos_y=0.955*, direction=189.7°*)
254: 0x0D8A [0xBA] SET_ENTITY_POSITION(entity_id=??? (ID: 17122281/0x010543E9), pos_x=-60.868*, pos_z=439.224*, pos_y=0.955*, direction=189.7°*)
255: 0x0D97 [0x4E] SET_ENTITY_HIDE_FLAG: Hide Alphonimile (ID: 17122276/0x010543E4)
256: 0x0D9D [0x6B] STOP_AND_IDLE: Excenmille (ID: 17122270/0x010543DE) stops current action and resets to idle (animation="idl0")
257: 0x0DA6 [0x6B] STOP_AND_IDLE: Alphonimile (ID: 17122275/0x010543E3) stops current action and resets to idle (animation="idl0")
258: 0x0DAF [0x5B] LOAD_EXT_SCHEDULER: Load scheduler "osa0" with entities [Excenmille (ID: 17122270/0x010543DE), Excenmille (ID: 17122270/0x010543DE)], work=2983*
259: 0x0DBE [0x5B] LOAD_EXT_SCHEDULER: Load scheduler "yar0" with entities [Alphonimile (ID: 17122275/0x010543E3), Alphonimile (ID: 17122275/0x010543E3)], work=3156*
260: 0x0DCD [0x7B] LocalPlayer stops talking
261: 0x0DD2 [0x7B] Excenmille (ID: 17122270/0x010543DE) stops talking
262: 0x0DD7 [0x27] REQ_SET(priority=0x10, entity_id=LocalPlayer, tag_num=0x33)
263: 0x0DDE [0x1C] WAIT(120* ticks)
264: 0x0DE1 [0x45] LOAD_SCHEDULED_TASK: Load scheduler "r135" with entities [LocalPlayer, LocalPlayer], work=[496*, 0*]
265: 0x0DF2 [0x1A] CALL_SUBROUTINE(address=0x0085)
266: 0x0DF5 [0x1C] WAIT(120* ticks)
267: 0x0DF8 [0x52] END_LOAD_SCHEDULER: End scheduler "r135" with entities [LocalPlayer, LocalPlayer], work=496*
268: 0x0E07 [0x45] LOAD_SCHEDULED_TASK: Load scheduler "r134" with entities [LocalPlayer, LocalPlayer], work=[496*, 0*]
269: 0x0E18 [0x2B] Excenmille (ID: 17122270/0x010543DE) [8195*]:
    → "You're long overdue, <Player>."
270: 0x0E1F [0x23] WAIT_FOR_DIALOG_INTERACTION
271: 0x0E20 [0x1C] WAIT(120* ticks)
272: 0x0E23 [0x29] REQ_SET_WAIT(priority=0x10, entity_id=LocalPlayer, tag_num=0x34)
273: 0x0E2A [0x1C] WAIT(10* ticks)
274: 0x0E2D [0x52] END_LOAD_SCHEDULER: End scheduler "r134" with entities [LocalPlayer, LocalPlayer], work=496*
275: 0x0E3C [0x45] LOAD_SCHEDULED_TASK: Load scheduler "r105" with entities [LocalPlayer, LocalPlayer], work=[496*, 0*]
276: 0x0E4D [0x4A] LocalPlayer looks at Alphonimile (ID: 17122275/0x010543E3)
277: 0x0E56 [0x6F] WAIT_FRAME_DELAY: Yield until WaitTime reaches zero
278: 0x0E57 [0x76] CHECK_ENTITY_RENDER_FLAGS: Wait until LocalPlayer Render.Flags0 and Render.Flags3 conditions are met
279: 0x0E5C [0x7B] LocalPlayer stops talking
280: 0x0E61 [0x1C] WAIT(30* ticks)
281: 0x0E64 [0x5B] LOAD_EXT_SCHEDULER: Load scheduler "yar1" with entities [Alphonimile (ID: 17122275/0x010543E3), Alphonimile (ID: 17122275/0x010543E3)], work=3156*
282: 0x0E73 [0x5B] LOAD_EXT_SCHEDULER: Load scheduler "ang0" with entities [Zogbog (ID: 17122277/0x010543E5), Zogbog (ID: 17122277/0x010543E5)], work=2595*
283: 0x0E82 [0x27] REQ_SET(priority=0x10, entity_id=LocalPlayer, tag_num=0x37)
284: 0x0E89 [0x1C] WAIT(150* ticks)
285: 0x0E8C [0x55] WAIT_LOAD_SCHEDULER: Wait for scheduler "r105" with entities [LocalPlayer, LocalPlayer], work=496*
286: 0x0E9B [0x45] LOAD_SCHEDULED_TASK: Load scheduler "r120" with entities [LocalPlayer, LocalPlayer], work=[496*, 0*]
287: 0x0EAC [0x4A] Alphonimile (ID: 17122275/0x010543E3) looks at LocalPlayer
288: 0x0EB5 [0x4A] ??? (ID: 17122281/0x010543E9) looks at LocalPlayer
289: 0x0EBE [0x7B] Alphonimile (ID: 17122275/0x010543E3) stops talking
290: 0x0EC3 [0x7B] ??? (ID: 17122281/0x010543E9) stops talking
291: 0x0EC8 [0x6F] WAIT_FRAME_DELAY: Yield until WaitTime reaches zero
292: 0x0EC9 [0x76] CHECK_ENTITY_RENDER_FLAGS: Wait until Alphonimile (ID: 17122275/0x010543E3) Render.Flags0 and Render.Flags3 conditions are met
293: 0x0ECE [0x66] LOAD_EXT_SCHEDULER_MAIN: Load scheduler "spal" with entities [Alphonimile (ID: 17122275/0x010543E3), Alphonimile (ID: 17122275/0x010543E3)], work=99*
294: 0x0EDD [0x03] Work_Zone[2] = 90*
295: 0x0EE2 [0x4A] Excenmille (ID: 17122270/0x010543DE) looks at Zogbog (ID: 17122277/0x010543E5)
296: 0x0EEB [0x6F] WAIT_FRAME_DELAY: Yield until WaitTime reaches zero
297: 0x0EEC [0x76] CHECK_ENTITY_RENDER_FLAGS: Wait until Excenmille (ID: 17122270/0x010543DE) Render.Flags0 and Render.Flags3 conditions are met
298: 0x0EF1 [0x7B] Excenmille (ID: 17122270/0x010543DE) stops talking
299: 0x0EF6 [0x27] REQ_SET(priority=0x10, entity_id=??? (ID: 17122282/0x010543EA), tag_num=0x0A)
300: 0x0EFD [0x2B] Zogbog (ID: 17122277/0x010543E5) [8196*]:
    → "An unexpected guest, have we? Fortunately, experience has taught me well to be ever prepared to entertain."
301: 0x0F04 [0x23] WAIT_FOR_DIALOG_INTERACTION
302: 0x0F05 [0x5B] LOAD_EXT_SCHEDULER: Load scheduler "ang2" with entities [Zogbog (ID: 17122277/0x010543E5), Zogbog (ID: 17122277/0x010543E5)], work=2595*
303: 0x0F14 [0x2B] Zogbog (ID: 17122277/0x010543E5) [8197*]:
    → "Behold! Before you stands a technological marvel, born from the brilliant mind of the genius Orcish engineer, Master Mekglok!"
304: 0x0F1B [0x23] WAIT_FOR_DIALOG_INTERACTION
305: 0x0F1C [0x2B] Zogbog (ID: 17122277/0x010543E5) [8198*]:
    → "Its magnificence betrays not a hint of its humble origin as a mannequin found discarded at the Phanauet Channel! Lovingly brought to life through myriad magicks, it truly is a testament to the unsurpassed ingenuity of the Orcish race!"
306: 0x0F23 [0x23] WAIT_FOR_DIALOG_INTERACTION
307: 0x0F24 [0x2A] GET_REQ_LEVEL(level=16, entity_id=??? (ID: 17122282/0x010543EA))
308: 0x0F2A [0x5C] MUSIC_CONTROL: Set Idle (Day) music to song 217*
309: 0x0F2E [0x5C] MUSIC_CONTROL: Set Idle (Night) music to song 217*
310: 0x0F32 [0x5C] MUSIC_CONTROL: Set Combat (Solo) music to song 217*
311: 0x0F36 [0x5C] MUSIC_CONTROL: Set Combat (Party) music to song 217*
312: 0x0F3A [0x9A] WAIT_MUSIC_SERVER()
313: 0x0F3B [0x52] END_LOAD_SCHEDULER: End scheduler "r120" with entities [LocalPlayer, LocalPlayer], work=496*
314: 0x0F4A [0x45] LOAD_SCHEDULED_TASK: Load scheduler "r121" with entities [LocalPlayer, LocalPlayer], work=[496*, 0*]
315: 0x0F5B [0x5B] LOAD_EXT_SCHEDULER: Load scheduler "ang1" with entities [Zogbog (ID: 17122277/0x010543E5), Zogbog (ID: 17122277/0x010543E5)], work=2595*
316: 0x0F6A [0x1C] WAIT(120* ticks)
317: 0x0F6D [0xBA] SET_ENTITY_POSITION(entity_id=Excenmille (ID: 17122270/0x010543DE), pos_x=-54.683*, pos_z=440.899*, pos_y=0.664*, direction=153.5°*)
318: 0x0F7A [0x6B] STOP_AND_IDLE: Excenmille (ID: 17122270/0x010543DE) stops current action and resets to idle (animation="idl0")
319: 0x0F83 [0x4A] Excenmille (ID: 17122270/0x010543DE) looks at Zogbog (ID: 17122277/0x010543E5)
320: 0x0F8C [0x4A] Zogbog (ID: 17122277/0x010543E5) looks at Excenmille (ID: 17122270/0x010543DE)
321: 0x0F95 [0x7B] Excenmille (ID: 17122270/0x010543DE) stops talking
322: 0x0F9A [0x7B] Zogbog (ID: 17122277/0x010543E5) stops talking
323: 0x0F9F [0x52] END_LOAD_SCHEDULER: End scheduler "r121" with entities [LocalPlayer, LocalPlayer], work=496*
324: 0x0FAE [0x45] LOAD_SCHEDULED_TASK: Load scheduler "r138" with entities [LocalPlayer, LocalPlayer], work=[496*, 0*]
325: 0x0FBF [0x1C] WAIT(200* ticks)
326: 0x0FC2 [0x52] END_LOAD_SCHEDULER: End scheduler "r138" with entities [LocalPlayer, LocalPlayer], work=496*
327: 0x0FD1 [0x45] LOAD_SCHEDULED_TASK: Load scheduler "r126" with entities [LocalPlayer, LocalPlayer], work=[496*, 0*]
328: 0x0FE2 [0x5B] LOAD_EXT_SCHEDULER: Load scheduler "fi01" with entities [Excenmille (ID: 17122270/0x010543DE), Excenmille (ID: 17122270/0x010543DE)], work=1299*
329: 0x0FF1 [0x5B] LOAD_EXT_SCHEDULER: Load scheduler "bt00" with entities [Excenmille (ID: 17122270/0x010543DE), Excenmille (ID: 17122270/0x010543DE)], work=1405*
330: 0x1000 [0x2B] Excenmille (ID: 17122270/0x010543DE) [8199*]:
    → "Unforgivable!"
331: 0x1007 [0x23] WAIT_FOR_DIALOG_INTERACTION
332: 0x1008 [0x5B] LOAD_EXT_SCHEDULER: Load scheduler "ang0" with entities [Zogbog (ID: 17122277/0x010543E5), Zogbog (ID: 17122277/0x010543E5)], work=2595*
333: 0x1017 [0x2B] Excenmille (ID: 17122270/0x010543DE) [8200*]:
    → "For your desecration of Father's memory with this abomination, in the name of House Aurchiat, I swear I shall have your head this day!"
334: 0x101E [0x23] WAIT_FOR_DIALOG_INTERACTION
335: 0x101F [0x52] END_LOAD_SCHEDULER: End scheduler "r126" with entities [LocalPlayer, LocalPlayer], work=496*
336: 0x102E [0x45] LOAD_SCHEDULED_TASK: Load scheduler "r127" with entities [LocalPlayer, LocalPlayer], work=[496*, 0*]
337: 0x103F [0x5B] LOAD_EXT_SCHEDULER: Load scheduler "ang2" with entities [Zogbog (ID: 17122277/0x010543E5), Zogbog (ID: 17122277/0x010543E5)], work=2595*
338: 0x104E [0x2B] Zogbog (ID: 17122277/0x010543E5) [8201*]:
    → "Tsk-tsk. Ever given to bravado, I see. But heroic words do not a hero make."
339: 0x1055 [0x23] WAIT_FOR_DIALOG_INTERACTION
340: 0x1056 [0x2B] Zogbog (ID: 17122277/0x010543E5) [8202*]:
    → "I shan't intrude on your touching family reunion. Feel free to take as long as you need, I insist!"
341: 0x105D [0x23] WAIT_FOR_DIALOG_INTERACTION
342: 0x105E [0x5B] LOAD_EXT_SCHEDULER: Load scheduler "rlk0" with entities [Zogbog (ID: 17122277/0x010543E5), Zogbog (ID: 17122277/0x010543E5)], work=2595*
343: 0x106D [0x52] END_LOAD_SCHEDULER: End scheduler "r127" with entities [LocalPlayer, LocalPlayer], work=496*
344: 0x107C [0x45] LOAD_SCHEDULED_TASK: Load scheduler "r128" with entities [LocalPlayer, LocalPlayer], work=[496*, 0*]
345: 0x108D [0x1C] WAIT(80* ticks)
346: 0x1090 [0x5B] LOAD_EXT_SCHEDULER: Load scheduler "rlk2" with entities [Zogbog (ID: 17122277/0x010543E5), Zogbog (ID: 17122277/0x010543E5)], work=2595*
347: 0x109F [0x2B] Zogbog (ID: 17122277/0x010543E5) [8203*]:
    → "Warlock!"
348: 0x10A6 [0x23] WAIT_FOR_DIALOG_INTERACTION
349: 0x10A7 [0x52] END_LOAD_SCHEDULER: End scheduler "r128" with entities [LocalPlayer, LocalPlayer], work=496*
350: 0x10B6 [0x45] LOAD_SCHEDULED_TASK: Load scheduler "r108" with entities [LocalPlayer, LocalPlayer], work=[496*, 0*]
351: 0x10C7 [0x27] REQ_SET(priority=0x10, entity_id=??? (ID: 17122282/0x010543EA), tag_num=0x0B)
352: 0x10CE [0x1C] WAIT(120* ticks)
353: 0x10D1 [0x52] END_LOAD_SCHEDULER: End scheduler "r108" with entities [LocalPlayer, LocalPlayer], work=496*
354: 0x10E0 [0x45] LOAD_SCHEDULED_TASK: Load scheduler "r129" with entities [LocalPlayer, LocalPlayer], work=[496*, 0*]
355: 0x10F1 [0x03] Work_Zone[2] = 120*
356: 0x10F6 [0x27] REQ_SET(priority=0x10, entity_id=??? (ID: 17122282/0x010543EA), tag_num=0x0A)
357: 0x10FD [0x2B] Excenmille (ID: 17122270/0x010543DE) [8204*]:
    → "Wh-what!?"
358: 0x1104 [0x23] WAIT_FOR_DIALOG_INTERACTION
359: 0x1105 [0x2A] GET_REQ_LEVEL(level=16, entity_id=??? (ID: 17122282/0x010543EA))
360: 0x110B [0x5B] LOAD_EXT_SCHEDULER: Load scheduler "oe00" with entities [Zogbog (ID: 17122277/0x010543E5), Zogbog (ID: 17122277/0x010543E5)], work=2594*
361: 0x111A [0x52] END_LOAD_SCHEDULER: End scheduler "r129" with entities [LocalPlayer, LocalPlayer], work=496*
362: 0x1129 [0x45] LOAD_SCHEDULED_TASK: Load scheduler "r137" with entities [LocalPlayer, LocalPlayer], work=[496*, 0*]
363: 0x113A [0x4A] LocalPlayer looks at Alphonimile (ID: 17122275/0x010543E3)
364: 0x1143 [0x7B] LocalPlayer stops talking
365: 0x1148 [0x1C] WAIT(120* ticks)
366: 0x114B [0x52] END_LOAD_SCHEDULER: End scheduler "r137" with entities [LocalPlayer, LocalPlayer], work=496*
367: 0x115A [0x45] LOAD_SCHEDULED_TASK: Load scheduler "r136" with entities [LocalPlayer, LocalPlayer], work=[496*, 0*]
368: 0x116B [0x27] REQ_SET(priority=0x10, entity_id=??? (ID: 17122282/0x010543EA), tag_num=0x0C)
369: 0x1172 [0x5B] LOAD_EXT_SCHEDULER: Load scheduler "hen0" with entities [Alphonimile (ID: 17122275/0x010543E3), Alphonimile (ID: 17122275/0x010543E3)], work=3096*
370: 0x1181 [0x5B] LOAD_EXT_SCHEDULER: Load scheduler "hen0" with entities [??? (ID: 17122281/0x010543E9), ??? (ID: 17122281/0x010543E9)], work=3096*
371: 0x1190 [0xBB] LOAD_EVENT_SCHEDULER_ALT: Load scheduler "s001" with entities [??? (ID: 17122281/0x010543E9), ??? (ID: 17122281/0x010543E9)], work=[216*, 0*]
372: 0x11A1 [0x1C] WAIT(120* ticks)
373: 0x11A4 [0x52] END_LOAD_SCHEDULER: End scheduler "r136" with entities [LocalPlayer, LocalPlayer], work=496*
374: 0x11B3 [0x45] LOAD_SCHEDULED_TASK: Load scheduler "r130" with entities [LocalPlayer, LocalPlayer], work=[496*, 0*]
375: 0x11C4 [0x5B] LOAD_EXT_SCHEDULER: Load scheduler "hen1" with entities [Alphonimile (ID: 17122275/0x010543E3), Alphonimile (ID: 17122275/0x010543E3)], work=3096*
376: 0x11D3 [0x5B] LOAD_EXT_SCHEDULER: Load scheduler "hen1" with entities [??? (ID: 17122281/0x010543E9), ??? (ID: 17122281/0x010543E9)], work=3096*
377: 0x11E2 [0x03] Work_Zone[2] = 240*
378: 0x11E7 [0x27] REQ_SET(priority=0x10, entity_id=??? (ID: 17122282/0x010543EA), tag_num=0x0A)
379: 0x11EE [0x2B] ??? (ID: 17122281/0x010543E9) [8205*]:
    → "Grrroooarrrgh!!!"
380: 0x11F5 [0x23] WAIT_FOR_DIALOG_INTERACTION
381: 0x11F6 [0x2A] GET_REQ_LEVEL(level=16, entity_id=??? (ID: 17122282/0x010543EA))
382: 0x11FC [0x52] END_LOAD_SCHEDULER: End scheduler "r130" with entities [LocalPlayer, LocalPlayer], work=496*
383: 0x120B [0x45] LOAD_SCHEDULED_TASK: Load scheduler "r139" with entities [LocalPlayer, LocalPlayer], work=[496*, 0*]
384: 0x121C [0x1C] WAIT(5* ticks)
385: 0x121F [0x03] Work_Zone[2] = 120*
386: 0x1224 [0x27] REQ_SET(priority=0x10, entity_id=??? (ID: 17122282/0x010543EA), tag_num=0x0A)
387: 0x122B [0x4E] SET_ENTITY_HIDE_FLAG: Hide Alphonimile (ID: 17122275/0x010543E3)
388: 0x1231 [0x6C] FADE_ENTITY_COLOR(entity_id=??? (ID: 17122281/0x010543E9), end_alpha=128*, fade_time=1*)
389: 0x123A [0x27] REQ_SET(priority=0x10, entity_id=LocalPlayer, tag_num=0x37)
390: 0x1241 [0x2B] Excenmille (ID: 17122270/0x010543DE) [8206*]:
    → "Be at the ready, <Player>!"
391: 0x1248 [0x23] WAIT_FOR_DIALOG_INTERACTION
392: 0x1249 [0x2A] GET_REQ_LEVEL(level=16, entity_id=??? (ID: 17122282/0x010543EA))
393: 0x124F [0x52] END_LOAD_SCHEDULER: End scheduler "r139" with entities [LocalPlayer, LocalPlayer], work=496*
394: 0x125E [0x45] LOAD_SCHEDULED_TASK: Load scheduler "r131" with entities [LocalPlayer, LocalPlayer], work=[496*, 0*]
395: 0x126F [0xBB] LOAD_EVENT_SCHEDULER_ALT: Load scheduler "s002" with entities [??? (ID: 17122281/0x010543E9), ??? (ID: 17122281/0x010543E9)], work=[216*, 0*]
396: 0x1280 [0x1C] WAIT(120* ticks)
397: 0x1283 [0xBA] SET_ENTITY_POSITION(entity_id=LocalPlayer, pos_x=-48.830*, pos_z=437.023*, pos_y=0.239*, direction=153.7°*)
398: 0x1290 [0xBA] SET_ENTITY_POSITION(entity_id=Excenmille (ID: 17122270/0x010543DE), pos_x=-48.830*, pos_z=437.023*, pos_y=0.239*, direction=153.7°*)
399: 0x129D [0x5B] LOAD_EXT_SCHEDULER: Load scheduler "hen2" with entities [??? (ID: 17122281/0x010543E9), ??? (ID: 17122281/0x010543E9)], work=3096*
400: 0x12AC [0x1C] WAIT(30* ticks)
401: 0x12AF [0x52] END_LOAD_SCHEDULER: End scheduler "r131" with entities [LocalPlayer, LocalPlayer], work=496*
402: 0x12BE [0x45] LOAD_SCHEDULED_TASK: Load scheduler "r132" with entities [LocalPlayer, LocalPlayer], work=[496*, 0*]
403: 0x12CF [0x2B] ??? (ID: 17122281/0x010543E9) [8207*]:
    → "Dance with me, my son!"
404: 0x12D6 [0x1C] WAIT(30* ticks)
405: 0x12D9 [0x1A] CALL_SUBROUTINE(address=0x0064)
406: 0x12DC [0x45] LOAD_SCHEDULED_TASK: Load scheduler "blof" with entities [LocalPlayer, LocalPlayer], work=[496*, 0*]
407: 0x12ED [0x52] END_LOAD_SCHEDULER: End scheduler "r132" with entities [LocalPlayer, LocalPlayer], work=496*
408: 0x12FC [0x27] REQ_SET(priority=0x10, entity_id=LocalPlayer, tag_num=0x38)
409: 0x1303 [0x1C] WAIT(30* ticks)
410: 0x1306 [0x46] CAMERA_CONTROL: Restore default settings
411: 0x1308 [0x45] LOAD_SCHEDULED_TASK: Load scheduler "fdi2" with entities [LocalPlayer, LocalPlayer], work=[200*, 0*]
412: 0x1319 [0x21] END_EVENT
413: 0x131A [0x00] END_REQSTACK()
```

### Event 116

#### Metadata

| Field        | Value     |
|--------------|-----------|
| Entrypoint   | 0x131B    |
| Data Size    | 348 bytes |
| Instructions | 47        |

```
      00 01 02 03 04 05 06 07  08 09 0A 0B 0C 0D 0E 0F
      -- -- -- -- -- -- -- --  -- -- -- -- -- -- -- --
1310:                                   42 1A 64 00 46             B.d.F
1320: 01 38 09 80 27 10 E9 43  05 01 04 92 01 E9 43 05  .8..'..C......C.
1330: 01 94 01 F0 FF FF 7F 94  01 E9 43 05 01 BA E9 43  ..........C....C
1340: 05 01 79 80 7A 80 7B 80  7C 80 BA F0 FF FF 7F 71  ..y.z.{.|......q
1350: 80 72 80 73 80 01 80 4A  F0 FF FF 7F E9 43 05 01  .r.s...J.....C..
1360: 4A E9 43 05 01 F0 FF FF  7F 7B F0 FF FF 7F 7B E9  J.C......{....{.
1370: 43 05 01 BA EA 43 05 01  36 80 37 80 38 80 39 80  C....C..6.7.8.9.
1380: 7B F0 FF FF 7F 7B E9 43  05 01 80 F0 FF FF 7F 80  {....{.C........
1390: E9 43 05 01 5B 94 80 E9  43 05 01 E9 43 05 01 68  .C..[...C...C..h
13A0: 65 6E 31 5C 00 86 80 5C  01 86 80 5C 02 86 80 5C  en1\...\...\...\
13B0: 03 86 80 9A 1C 06 80 45  40 80 F0 FF FF 7F F0 FF  .......E@.......
13C0: FF 7F 72 31 33 31 01 80  BB 95 80 E9 43 05 01 E9  ..r131......C...
13D0: 43 05 01 73 30 30 32 01  80 1A 43 00 1C 08 80 BA  C..s002...C.....
13E0: F0 FF FF 7F 99 80 9A 80  9B 80 9C 80 BA DE 43 05  ..............C.
13F0: 01 99 80 9A 80 9B 80 9C  80 5B 94 80 E9 43 05 01  .........[...C..
1400: E9 43 05 01 68 65 6E 32  1C 57 80 52 40 80 F0 FF  .C..hen2.W.R@...
1410: FF 7F F0 FF FF 7F 72 31  33 31 45 40 80 F0 FF FF  ......r131E@....
1420: 7F F0 FF FF 7F 72 31 33  32 01 80 2B E9 43 05 01  .....r132..+.C..
1430: 9D 80 1C 06 80 1A 64 00  45 40 80 F0 FF FF 7F F0  ......d.E@......
1440: FF FF 7F 62 6C 6F 66 01  80 52 40 80 F0 FF FF 7F  ...blof..R@.....
1450: F0 FF FF 7F 72 31 33 32  27 10 F0 FF FF 7F 38 1C  ....r132'.....8.
1460: 06 80 46 00 45 00 80 F0  FF FF 7F F0 FF FF 7F 66  ..F.E..........f
1470: 64 69 32 01 80 21 00                              di2..!.         
```

#### Opcodes

```
  0: 0x131B [0x42] SET_CLI_EVENT_CANCEL_DATA()
  1: 0x131C [0x1A] CALL_SUBROUTINE(address=0x0064)
  2: 0x131F [0x46] CAMERA_CONTROL: Disable user control
  3: 0x1321 [0x38] SET_CLIENT_EVENT_MODE(mode=19*)
  4: 0x1324 [0x27] REQ_SET(priority=0x10, entity_id=??? (ID: 17122281/0x010543E9), tag_num=0x04)
  5: 0x132B [0x92] ??? (ID: 17122281/0x010543E9)->Render.Flags3 ^= 0x01
  6: 0x1331 [0x94] LocalPlayer->Render.Flags3 ^= 0x01
  7: 0x1337 [0x94] ??? (ID: 17122281/0x010543E9)->Render.Flags3 ^= 0x01
  8: 0x133D [0xBA] SET_ENTITY_POSITION(entity_id=??? (ID: 17122281/0x010543E9), pos_x=-60.868*, pos_z=439.224*, pos_y=0.955*, direction=189.7°*)
  9: 0x134A [0xBA] SET_ENTITY_POSITION(entity_id=LocalPlayer, pos_x=-56.626*, pos_z=441.313*, pos_y=0.831*, direction=0.0°*)
 10: 0x1357 [0x4A] LocalPlayer looks at ??? (ID: 17122281/0x010543E9)
 11: 0x1360 [0x4A] ??? (ID: 17122281/0x010543E9) looks at LocalPlayer
 12: 0x1369 [0x7B] LocalPlayer stops talking
 13: 0x136E [0x7B] ??? (ID: 17122281/0x010543E9) stops talking
 14: 0x1373 [0xBA] SET_ENTITY_POSITION(entity_id=??? (ID: 17122282/0x010543EA), pos_x=-59.121*, pos_z=433.297*, pos_y=-0.071*, direction=205.4°*)
 15: 0x1380 [0x7B] LocalPlayer stops talking
 16: 0x1385 [0x7B] ??? (ID: 17122281/0x010543E9) stops talking
 17: 0x138A [0x80] LOAD_WAIT(entity=LocalPlayer)
 18: 0x138F [0x80] LOAD_WAIT(entity=??? (ID: 17122281/0x010543E9))
 19: 0x1394 [0x5B] LOAD_EXT_SCHEDULER: Load scheduler "hen1" with entities [??? (ID: 17122281/0x010543E9), ??? (ID: 17122281/0x010543E9)], work=3096*
 20: 0x13A3 [0x5C] MUSIC_CONTROL: Set Idle (Day) music to song 217*
 21: 0x13A7 [0x5C] MUSIC_CONTROL: Set Idle (Night) music to song 217*
 22: 0x13AB [0x5C] MUSIC_CONTROL: Set Combat (Solo) music to song 217*
 23: 0x13AF [0x5C] MUSIC_CONTROL: Set Combat (Party) music to song 217*
 24: 0x13B3 [0x9A] WAIT_MUSIC_SERVER()
 25: 0x13B4 [0x1C] WAIT(30* ticks)
 26: 0x13B7 [0x45] LOAD_SCHEDULED_TASK: Load scheduler "r131" with entities [LocalPlayer, LocalPlayer], work=[496*, 0*]
 27: 0x13C8 [0xBB] LOAD_EVENT_SCHEDULER_ALT: Load scheduler "s002" with entities [??? (ID: 17122281/0x010543E9), ??? (ID: 17122281/0x010543E9)], work=[216*, 0*]
 28: 0x13D9 [0x1A] CALL_SUBROUTINE(address=0x0043)
 29: 0x13DC [0x1C] WAIT(120* ticks)
 30: 0x13DF [0xBA] SET_ENTITY_POSITION(entity_id=LocalPlayer, pos_x=-48.830*, pos_z=437.023*, pos_y=0.239*, direction=153.7°*)
 31: 0x13EC [0xBA] SET_ENTITY_POSITION(entity_id=Excenmille (ID: 17122270/0x010543DE), pos_x=-48.830*, pos_z=437.023*, pos_y=0.239*, direction=153.7°*)
 32: 0x13F9 [0x5B] LOAD_EXT_SCHEDULER: Load scheduler "hen2" with entities [??? (ID: 17122281/0x010543E9), ??? (ID: 17122281/0x010543E9)], work=3096*
 33: 0x1408 [0x1C] WAIT(20* ticks)
 34: 0x140B [0x52] END_LOAD_SCHEDULER: End scheduler "r131" with entities [LocalPlayer, LocalPlayer], work=496*
 35: 0x141A [0x45] LOAD_SCHEDULED_TASK: Load scheduler "r132" with entities [LocalPlayer, LocalPlayer], work=[496*, 0*]
 36: 0x142B [0x2B] ??? (ID: 17122281/0x010543E9) [8207*]:
    → "Dance with me, my son!"
 37: 0x1432 [0x1C] WAIT(30* ticks)
 38: 0x1435 [0x1A] CALL_SUBROUTINE(address=0x0064)
 39: 0x1438 [0x45] LOAD_SCHEDULED_TASK: Load scheduler "blof" with entities [LocalPlayer, LocalPlayer], work=[496*, 0*]
 40: 0x1449 [0x52] END_LOAD_SCHEDULER: End scheduler "r132" with entities [LocalPlayer, LocalPlayer], work=496*
 41: 0x1458 [0x27] REQ_SET(priority=0x10, entity_id=LocalPlayer, tag_num=0x38)
 42: 0x145F [0x1C] WAIT(30* ticks)
 43: 0x1462 [0x46] CAMERA_CONTROL: Restore default settings
 44: 0x1464 [0x45] LOAD_SCHEDULED_TASK: Load scheduler "fdi2" with entities [LocalPlayer, LocalPlayer], work=[200*, 0*]
 45: 0x1475 [0x21] END_EVENT
 46: 0x1476 [0x00] END_REQSTACK()
```

### Event 117

#### Metadata

| Field        | Value      |
|--------------|------------|
| Entrypoint   | 0x1477     |
| Data Size    | 7526 bytes |
| Instructions | 805        |

```
      00 01 02 03 04 05 06 07  08 09 0A 0B 0C 0D 0E 0F
      -- -- -- -- -- -- -- --  -- -- -- -- -- -- -- --
1470:                      03  00 00 09 10 42 1A 64 00         .....B.d.
1480: 46 01 38 09 80 27 10 E5  43 05 01 02 27 10 EB 43  F.8..'..C...'..C
1490: 05 01 02 27 10 E9 43 05  01 04 27 10 E1 43 05 01  ...'..C...'..C..
14A0: 02 27 10 DF 43 05 01 02  27 10 E0 43 05 01 02 27  .'..C...'..C...'
14B0: 10 DE 43 05 01 04 27 10  E8 43 05 01 02 27 10 E6  ..C...'..C...'..
14C0: 43 05 01 04 27 10 EA 43  05 01 04 92 01 E5 43 05  C...'..C......C.
14D0: 01 92 01 EB 43 05 01 92  01 E9 43 05 01 92 01 E1  ....C.....C.....
14E0: 43 05 01 92 01 DF 43 05  01 92 01 E0 43 05 01 92  C.....C.....C...
14F0: 01 DE 43 05 01 92 01 E8  43 05 01 92 01 E6 43 05  ..C.....C.....C.
1500: 01 94 01 F0 FF FF 7F 94  01 E5 43 05 01 94 01 EB  ..........C.....
1510: 43 05 01 94 01 E9 43 05  01 94 01 E1 43 05 01 94  C.....C.....C...
1520: 01 DF 43 05 01 94 01 E0  43 05 01 94 01 DE 43 05  ..C.....C.....C.
1530: 01 94 01 E8 43 05 01 94  01 E6 43 05 01 59 05 EA  ....C.....C..Y..
1540: 43 05 01 01 BA F0 FF FF  7F 9E 80 9F 80 A0 80 A1  C...............
1550: 80 BA DE 43 05 01 A2 80  A3 80 A4 80 A5 80 BA E5  ...C............
1560: 43 05 01 A6 80 A7 80 A8  80 A1 80 BA EB 43 05 01  C............C..
1570: A9 80 AA 80 AB 80 AC 80  BA E9 43 05 01 AD 80 AE  ..........C.....
1580: 80 AF 80 B0 80 BA E1 43  05 01 B1 80 B2 80 B3 80  .......C........
1590: B4 80 BA DF 43 05 01 B5  80 B6 80 B7 80 B8 80 BA  ....C...........
15A0: E0 43 05 01 B9 80 BA 80  BB 80 BC 80 BA E8 43 05  .C............C.
15B0: 01 BD 80 BE 80 01 80 BF  80 BA EA 43 05 01 C0 80  ...........C....
15C0: C1 80 C2 80 C3 80 4A F0  FF FF 7F E9 43 05 01 4A  ......J.....C..J
15D0: DE 43 05 01 E9 43 05 01  7B F0 FF FF 7F 7B E9 43  .C...C..{....{.C
15E0: 05 01 7B DE 43 05 01 7B  E5 43 05 01 80 F0 FF FF  ..{.C..{.C......
15F0: 7F 80 EB 43 05 01 80 E5  43 05 01 80 E9 43 05 01  ...C....C....C..
1600: 80 E1 43 05 01 80 DF 43  05 01 80 E0 43 05 01 80  ..C....C....C...
1610: DE 43 05 01 80 E8 43 05  01 80 E6 43 05 01 6F 76  .C....C....C..ov
1620: DE 43 05 01 5B 53 80 DE  43 05 01 DE 43 05 01 66  .C..[S..C...C..f
1630: 69 30 30 5B C4 80 DE 43  05 01 DE 43 05 01 62 74  i00[...C...C..bt
1640: 6F 6E 59 05 EB 43 05 01  00 27 10 E1 43 05 01 0E  onY..C...'..C...
1650: 27 10 F0 FF FF 7F 37 7C  00 E9 43 05 01 81 00 E9  '.....7|..C.....
1660: 43 05 01 5C 00 86 80 5C  01 86 80 5C 02 86 80 5C  C..\...\...\...\
1670: 03 86 80 1C 42 80 9A 9A  45 40 80 F0 FF FF 7F F0  ....B...E@......
1680: FF FF 7F 71 31 30 31 01  80 1A 43 00 2C E9 43 05  ...q101...C.,.C.
1690: 01 E9 43 05 01 64 65 61  64 2B E9 43 05 01 C5 80  ..C..dead+.C....
16A0: 52 40 80 F0 FF FF 7F F0  FF FF 7F 71 31 30 31 45  R@.........q101E
16B0: 40 80 F0 FF FF 7F F0 FF  FF 7F 71 31 30 32 01 80  @.........q102..
16C0: 1C 08 80 52 40 80 F0 FF  FF 7F F0 FF FF 7F 71 31  ...R@.........q1
16D0: 30 32 45 40 80 F0 FF FF  7F F0 FF FF 7F 71 31 30  02E@.........q10
16E0: 33 01 80 03 02 10 81 80  27 10 EA 43 05 01 0A 5B  3.......'..C...[
16F0: 53 80 DE 43 05 01 DE 43  05 01 66 69 30 31 5B C4  S..C...C..fi01[.
1700: 80 DE 43 05 01 DE 43 05  01 62 74 6F 66 2B DE 43  ..C...C..btof+.C
