# 17122142

## Common Data

| Field            | Value                       |
|------------------|-----------------------------|
| Zone             | Batallia Downs [S] (ID: 84) |
| Block Size       | 808 bytes                   |
| Total Events     | 24                          |
| References Count | 19                          |

## List of Events

| Event ID                   | Entrypoint   |   Size |   Instructions |
|----------------------------|--------------|--------|----------------|
| [65535](#event-65535)      | 0x0000       |      1 |              1 |
| [700](#event-700)          | 0x0001       |      1 |              1 |
| [701](#event-701)          | 0x0002       |      1 |              1 |
| [3](#event-3)              | 0x0003       |      1 |              1 |
| [65535.1](#event-655351)   | 0x0004       |     10 |              2 |
| [65535.2](#event-655352)   | 0x000E       |     10 |              2 |
| [65535.3](#event-655353)   | 0x0018       |     28 |              4 |
| [65535.4](#event-655354)   | 0x0034       |     28 |              4 |
| [65535.5](#event-655355)   | 0x0050       |     10 |              2 |
| [65535.6](#event-655356)   | 0x005A       |     10 |              2 |
| [65535.7](#event-655357)   | 0x0064       |     10 |              2 |
| [65535.8](#event-655358)   | 0x006E       |      8 |              2 |
| [65535.9](#event-655359)   | 0x0076       |     10 |              2 |
| [65535.10](#event-6553510) | 0x0080       |     10 |              2 |
| [65535.11](#event-6553511) | 0x008A       |     15 |              3 |
| [65535.12](#event-6553512) | 0x0099       |     22 |              4 |
| [65535.13](#event-6553513) | 0x00AF       |     69 |              5 |
| [65535.14](#event-6553514) | 0x00F4       |     35 |              3 |
| [65535.15](#event-6553515) | 0x0117       |     38 |              4 |
| [65535.16](#event-6553516) | 0x013D       |     36 |              4 |
| [65535.17](#event-6553517) | 0x0161       |     78 |              8 |
| [65535.18](#event-6553518) | 0x01AF       |    103 |             11 |
| [65535.19](#event-6553519) | 0x0216       |     31 |              5 |
| [65535.20](#event-6553520) | 0x0235       |     52 |              4 |

## DAT References (imed_data)

|   Index | Hex Value   |   Dec Value |
|---------|-------------|-------------|
|       0 | 0x0000      |           0 |
|       1 | 0x0001      |           1 |
|       2 | 0x0080      |         128 |
|       3 | 0x003C      |          60 |
|       4 | 0x0043      |          67 |
|       5 | 0x0040      |          64 |
|       6 | 0x007F      |         127 |
|       7 | 0x0096      |         150 |
|       8 | 0x01A3      |         419 |
|       9 | 0x001E      |          30 |
|      10 | 0x002D      |          45 |
|      11 | 0x000F      |          15 |
|      12 | 0x04EE      |        1262 |
|      13 | 0x000A      |          10 |
|      14 | 0x0587      |        1415 |
|      15 | 0x0005      |           5 |
|      16 | 0x0088      |         136 |
|      17 | 0x0046      |          70 |
|      18 | 0x0044      |          68 |

## Events

### Event 65535

#### Metadata

| Field        | Value   |
|--------------|---------|
| Entrypoint   | 0x0000  |
| Data Size    | 1 bytes |
| Instructions | 1       |

```
      00 01 02 03 04 05 06 07  08 09 0A 0B 0C 0D 0E 0F
      -- -- -- -- -- -- -- --  -- -- -- -- -- -- -- --
0000: 00                                                .               
```

#### Opcodes

```
  0: 0x0000 [0x00] END_REQSTACK()
```

### Event 700

#### Metadata

| Field        | Value   |
|--------------|---------|
| Entrypoint   | 0x0001  |
| Data Size    | 1 bytes |
| Instructions | 1       |

```
      00 01 02 03 04 05 06 07  08 09 0A 0B 0C 0D 0E 0F
      -- -- -- -- -- -- -- --  -- -- -- -- -- -- -- --
0000:    00                                              .              
```

#### Opcodes

```
  0: 0x0001 [0x00] END_REQSTACK()
```

### Event 701

#### Metadata

| Field        | Value   |
|--------------|---------|
| Entrypoint   | 0x0002  |
| Data Size    | 1 bytes |
| Instructions | 1       |

```
      00 01 02 03 04 05 06 07  08 09 0A 0B 0C 0D 0E 0F
      -- -- -- -- -- -- -- --  -- -- -- -- -- -- -- --
0000:       00                                            .             
```

#### Opcodes

```
  0: 0x0002 [0x00] END_REQSTACK()
```

### Event 3

#### Metadata

| Field        | Value   |
|--------------|---------|
| Entrypoint   | 0x0003  |
| Data Size    | 1 bytes |
| Instructions | 1       |

```
      00 01 02 03 04 05 06 07  08 09 0A 0B 0C 0D 0E 0F
      -- -- -- -- -- -- -- --  -- -- -- -- -- -- -- --
0000:          00                                          .            
```

#### Opcodes

```
  0: 0x0003 [0x00] END_REQSTACK()
```

### Event 65535.1

#### Metadata

| Field        | Value    |
|--------------|----------|
| Entrypoint   | 0x0004   |
| Data Size    | 10 bytes |
| Instructions | 2        |

```
      00 01 02 03 04 05 06 07  08 09 0A 0B 0C 0D 0E 0F
      -- -- -- -- -- -- -- --  -- -- -- -- -- -- -- --
0000:             6C C6 43 05  01 00 80 01 80 00            l.C.......  
```

#### Opcodes

```
  0: 0x0004 [0x6C] FADE_ENTITY_COLOR(entity_id=Lilisette (ID: 17122246/0x010543C6), end_alpha=0*, fade_time=1*)
  1: 0x000D [0x00] END_REQSTACK()
```

### Event 65535.2

#### Metadata

| Field        | Value    |
|--------------|----------|
| Entrypoint   | 0x000E   |
| Data Size    | 10 bytes |
| Instructions | 2        |

```
      00 01 02 03 04 05 06 07  08 09 0A 0B 0C 0D 0E 0F
      -- -- -- -- -- -- -- --  -- -- -- -- -- -- -- --
0000:                                            6C C6                l.
0010: 43 05 01 02 80 01 80 00                           C.......        
```

#### Opcodes

```
  0: 0x000E [0x6C] FADE_ENTITY_COLOR(entity_id=Lilisette (ID: 17122246/0x010543C6), end_alpha=128*, fade_time=1*)
  1: 0x0017 [0x00] END_REQSTACK()
```

### Event 65535.3

#### Metadata

| Field        | Value    |
|--------------|----------|
| Entrypoint   | 0x0018   |
| Data Size    | 28 bytes |
| Instructions | 4        |

```
      00 01 02 03 04 05 06 07  08 09 0A 0B 0C 0D 0E 0F
      -- -- -- -- -- -- -- --  -- -- -- -- -- -- -- --
0010:                          6C C1 43 05 01 00 80 01          l.C.....
0020: 80 6C C2 43 05 01 00 80  01 80 6C C3 43 05 01 00  .l.C......l.C...
0030: 80 01 80 00                                       ....            
```

#### Opcodes

```
  0: 0x0018 [0x6C] FADE_ENTITY_COLOR(entity_id=Jet1 (ID: 17122241/0x010543C1), end_alpha=0*, fade_time=1*)
  1: 0x0021 [0x6C] FADE_ENTITY_COLOR(entity_id=Jet2 (ID: 17122242/0x010543C2), end_alpha=0*, fade_time=1*)
  2: 0x002A [0x6C] FADE_ENTITY_COLOR(entity_id=Jet3 (ID: 17122243/0x010543C3), end_alpha=0*, fade_time=1*)
  3: 0x0033 [0x00] END_REQSTACK()
```

### Event 65535.4

#### Metadata

| Field        | Value    |
|--------------|----------|
| Entrypoint   | 0x0034   |
| Data Size    | 28 bytes |
| Instructions | 4        |

```
      00 01 02 03 04 05 06 07  08 09 0A 0B 0C 0D 0E 0F
      -- -- -- -- -- -- -- --  -- -- -- -- -- -- -- --
0030:             6C C1 43 05  01 02 80 01 80 6C C2 43      l.C......l.C
0040: 05 01 02 80 01 80 6C C3  43 05 01 02 80 01 80 00  ......l.C.......
```

#### Opcodes

```
  0: 0x0034 [0x6C] FADE_ENTITY_COLOR(entity_id=Jet1 (ID: 17122241/0x010543C1), end_alpha=128*, fade_time=1*)
  1: 0x003D [0x6C] FADE_ENTITY_COLOR(entity_id=Jet2 (ID: 17122242/0x010543C2), end_alpha=128*, fade_time=1*)
  2: 0x0046 [0x6C] FADE_ENTITY_COLOR(entity_id=Jet3 (ID: 17122243/0x010543C3), end_alpha=128*, fade_time=1*)
  3: 0x004F [0x00] END_REQSTACK()
```

### Event 65535.5

#### Metadata

| Field        | Value    |
|--------------|----------|
| Entrypoint   | 0x0050   |
| Data Size    | 10 bytes |
| Instructions | 2        |

```
      00 01 02 03 04 05 06 07  08 09 0A 0B 0C 0D 0E 0F
      -- -- -- -- -- -- -- --  -- -- -- -- -- -- -- --
0050: 6C 9C 43 05 01 02 80 03  80 00                    l.C.......      
```

#### Opcodes

```
  0: 0x0050 [0x6C] FADE_ENTITY_COLOR(entity_id=Nag'molada (ID: 17122204/0x0105439C), end_alpha=128*, fade_time=60*)
  1: 0x0059 [0x00] END_REQSTACK()
```

### Event 65535.6

#### Metadata

| Field        | Value    |
|--------------|----------|
| Entrypoint   | 0x005A   |
| Data Size    | 10 bytes |
| Instructions | 2        |

```
      00 01 02 03 04 05 06 07  08 09 0A 0B 0C 0D 0E 0F
      -- -- -- -- -- -- -- --  -- -- -- -- -- -- -- --
0050:                                6C BD 43 05 01 02            l.C...
0060: 80 01 80 00                                       ....            
```

#### Opcodes

```
  0: 0x005A [0x6C] FADE_ENTITY_COLOR(entity_id=One-eyed Gwajboj (ID: 17122237/0x010543BD), end_alpha=128*, fade_time=1*)
  1: 0x0063 [0x00] END_REQSTACK()
```

### Event 65535.7

#### Metadata

| Field        | Value    |
|--------------|----------|
| Entrypoint   | 0x0064   |
| Data Size    | 10 bytes |
| Instructions | 2        |

```
      00 01 02 03 04 05 06 07  08 09 0A 0B 0C 0D 0E 0F
      -- -- -- -- -- -- -- --  -- -- -- -- -- -- -- --
0060:             6C BE 43 05  01 02 80 01 80 00            l.C.......  
```

#### Opcodes

```
  0: 0x0064 [0x6C] FADE_ENTITY_COLOR(entity_id=Unnamed NPC (ID: 17122238/0x010543BE), end_alpha=128*, fade_time=1*)
  1: 0x006D [0x00] END_REQSTACK()
```

### Event 65535.8

#### Metadata

| Field        | Value   |
|--------------|---------|
| Entrypoint   | 0x006E  |
| Data Size    | 8 bytes |
| Instructions | 2       |

```
      00 01 02 03 04 05 06 07  08 09 0A 0B 0C 0D 0E 0F
      -- -- -- -- -- -- -- --  -- -- -- -- -- -- -- --
0060:                                            27 10                '.
0070: 98 43 05 01 03 00                                 .C....          
```

#### Opcodes

```
  0: 0x006E [0x27] REQ_SET(priority=0x10, entity_id=Ragelise (ID: 17122200/0x01054398), tag_num=0x03)
  1: 0x0075 [0x00] END_REQSTACK()
```

### Event 65535.9

#### Metadata

| Field        | Value    |
|--------------|----------|
| Entrypoint   | 0x0076   |
| Data Size    | 10 bytes |
| Instructions | 2        |

```
      00 01 02 03 04 05 06 07  08 09 0A 0B 0C 0D 0E 0F
      -- -- -- -- -- -- -- --  -- -- -- -- -- -- -- --
0070:                   6C C8  43 05 01 02 80 01 80 00        l.C.......
```

#### Opcodes

```
  0: 0x0076 [0x6C] FADE_ENTITY_COLOR(entity_id=Nanto2 (ID: 17122248/0x010543C8), end_alpha=128*, fade_time=1*)
  1: 0x007F [0x00] END_REQSTACK()
```

### Event 65535.10

#### Metadata

| Field        | Value    |
|--------------|----------|
| Entrypoint   | 0x0080   |
| Data Size    | 10 bytes |
| Instructions | 2        |

```
      00 01 02 03 04 05 06 07  08 09 0A 0B 0C 0D 0E 0F
      -- -- -- -- -- -- -- --  -- -- -- -- -- -- -- --
0080: 6C C8 43 05 01 00 80 01  80 00                    l.C.......      
```

#### Opcodes

```
  0: 0x0080 [0x6C] FADE_ENTITY_COLOR(entity_id=Nanto2 (ID: 17122248/0x010543C8), end_alpha=0*, fade_time=1*)
  1: 0x0089 [0x00] END_REQSTACK()
```

### Event 65535.11

#### Metadata

| Field        | Value    |
|--------------|----------|
| Entrypoint   | 0x008A   |
| Data Size    | 15 bytes |
| Instructions | 3        |

```
      00 01 02 03 04 05 06 07  08 09 0A 0B 0C 0D 0E 0F
      -- -- -- -- -- -- -- --  -- -- -- -- -- -- -- --
0080:                                27 10 C5 43 05 01            '..C..
0090: 03 27 10 C4 43 05 01 03  00                       .'..C....       
```

#### Opcodes

```
  0: 0x008A [0x27] REQ_SET(priority=0x10, entity_id=Mayakov (ID: 17122245/0x010543C5), tag_num=0x03)
  1: 0x0091 [0x27] REQ_SET(priority=0x10, entity_id=Portia (ID: 17122244/0x010543C4), tag_num=0x03)
  2: 0x0098 [0x00] END_REQSTACK()
```

### Event 65535.12

#### Metadata

| Field        | Value    |
|--------------|----------|
| Entrypoint   | 0x0099   |
| Data Size    | 22 bytes |
| Instructions | 4        |

```
      00 01 02 03 04 05 06 07  08 09 0A 0B 0C 0D 0E 0F
      -- -- -- -- -- -- -- --  -- -- -- -- -- -- -- --
0090:                             27 10 9A 43 05 01 03           '..C...
00A0: 27 10 9B 43 05 01 03 27  10 99 43 05 01 03 00     '..C...'..C.... 
```

#### Opcodes

```
  0: 0x0099 [0x27] REQ_SET(priority=0x10, entity_id=Zazarg (ID: 17122202/0x0105439A), tag_num=0x03)
  1: 0x00A0 [0x27] REQ_SET(priority=0x10, entity_id=Romaa Mihgo (ID: 17122203/0x0105439B), tag_num=0x03)
  2: 0x00A7 [0x27] REQ_SET(priority=0x10, entity_id=Rongelouts N Distaud (ID: 17122201/0x01054399), tag_num=0x03)
  3: 0x00AE [0x00] END_REQSTACK()
```

### Event 65535.13

#### Metadata

| Field        | Value    |
|--------------|----------|
| Entrypoint   | 0x00AF   |
| Data Size    | 69 bytes |
| Instructions | 5        |

```
      00 01 02 03 04 05 06 07  08 09 0A 0B 0C 0D 0E 0F
      -- -- -- -- -- -- -- --  -- -- -- -- -- -- -- --
00A0:                                               C5                 .
00B0: 04 80 C1 43 05 01 C1 43  05 01 73 30 30 30 00 80  ...C...C..s000..
00C0: C5 04 80 C2 43 05 01 C2  43 05 01 73 30 30 31 00  ....C...C..s001.
00D0: 80 C5 04 80 C3 43 05 01  C3 43 05 01 73 30 30 32  .....C...C..s002
00E0: 00 80 C5 05 80 97 43 05  01 97 43 05 01 73 30 30  ......C...C..s00
00F0: 30 00 80 00                                       0...            
```

#### Opcodes

```
  0: 0x00AF [0xC5] LOAD_SCHEDULED_TASK_ALT3: Load scheduler 0x80003030 for entities [Jet1 (ID: 17122241/0x010543C1), Jet1 (ID: 17122241/0x010543C1)], work=67*, param=12403
  1: 0x00C0 [0xC5] LOAD_SCHEDULED_TASK_ALT3: Load scheduler 0x80003130 for entities [Jet2 (ID: 17122242/0x010543C2), Jet2 (ID: 17122242/0x010543C2)], work=67*, param=12403
  2: 0x00D1 [0xC5] LOAD_SCHEDULED_TASK_ALT3: Load scheduler 0x80003230 for entities [Jet3 (ID: 17122243/0x010543C3), Jet3 (ID: 17122243/0x010543C3)], work=67*, param=12403
  3: 0x00E2 [0xC5] LOAD_SCHEDULED_TASK_ALT3: Load scheduler 0x80003030 for entities [Lilisette (ID: 17122199/0x01054397), Lilisette (ID: 17122199/0x01054397)], work=64*, param=12403
  4: 0x00F3 [0x00] END_REQSTACK()
```

### Event 65535.14

#### Metadata

| Field        | Value    |
|--------------|----------|
| Entrypoint   | 0x00F4   |
| Data Size    | 35 bytes |
| Instructions | 3        |

```
      00 01 02 03 04 05 06 07  08 09 0A 0B 0C 0D 0E 0F
      -- -- -- -- -- -- -- --  -- -- -- -- -- -- -- --
00F0:             C5 04 80 C2  43 05 01 C2 43 05 01 73      ....C...C..s
0100: 30 30 31 00 80 C5 04 80  C3 43 05 01 C3 43 05 01  001......C...C..
0110: 73 30 30 32 00 80 00                              s002...         
```

#### Opcodes

```
  0: 0x00F4 [0xC5] LOAD_SCHEDULED_TASK_ALT3: Load scheduler 0x80003130 for entities [Jet2 (ID: 17122242/0x010543C2), Jet2 (ID: 17122242/0x010543C2)], work=67*, param=12403
  1: 0x0105 [0xC5] LOAD_SCHEDULED_TASK_ALT3: Load scheduler 0x80003230 for entities [Jet3 (ID: 17122243/0x010543C3), Jet3 (ID: 17122243/0x010543C3)], work=67*, param=12403
  2: 0x0116 [0x00] END_REQSTACK()
```

### Event 65535.15

#### Metadata

| Field        | Value    |
|--------------|----------|
| Entrypoint   | 0x0117   |
| Data Size    | 38 bytes |
| Instructions | 4        |

```
      00 01 02 03 04 05 06 07  08 09 0A 0B 0C 0D 0E 0F
      -- -- -- -- -- -- -- --  -- -- -- -- -- -- -- --
0110:                      9F  06 80 F8 FF FF 7F F8 FF         .........
0120: FF 7F 73 74 72 30 00 80  1C 03 80 9F 06 80 F8 FF  ..str0..........
0130: FF 7F F8 FF FF 7F 6B 69  6C 6C 00 80 00           ......kill...   
```

#### Opcodes

```
  0: 0x0117 [0x9F] LOAD_SCHEDULED_TASK_ALT: Load scheduler "str0" with entities [EventEntity, EventEntity], work=[127*, 0*]
  1: 0x0128 [0x1C] WAIT(60* ticks)
  2: 0x012B [0x9F] LOAD_SCHEDULED_TASK_ALT: Load scheduler "kill" with entities [EventEntity, EventEntity], work=[127*, 0*]
  3: 0x013C [0x00] END_REQSTACK()
```

### Event 65535.16

#### Metadata

| Field        | Value    |
|--------------|----------|
| Entrypoint   | 0x013D   |
| Data Size    | 36 bytes |
| Instructions | 4        |

```
      00 01 02 03 04 05 06 07  08 09 0A 0B 0C 0D 0E 0F
      -- -- -- -- -- -- -- --  -- -- -- -- -- -- -- --
0130:                                         1C 07 80               ...
0140: 52 08 80 F0 FF FF 7F F0  FF FF 7F 61 34 33 31 45  R..........a431E
0150: 08 80 F0 FF FF 7F F0 FF  FF 7F 61 34 33 32 00 80  ..........a432..
0160: 00                                                .               
```

#### Opcodes

```
  0: 0x013D [0x1C] WAIT(150* ticks)
  1: 0x0140 [0x52] END_LOAD_SCHEDULER: End scheduler "a431" with entities [LocalPlayer, LocalPlayer], work=419*
  2: 0x014F [0x45] LOAD_SCHEDULED_TASK: Load scheduler "a432" with entities [LocalPlayer, LocalPlayer], work=[419*, 0*]
  3: 0x0160 [0x00] END_REQSTACK()
```

### Event 65535.17

#### Metadata

| Field        | Value    |
|--------------|----------|
| Entrypoint   | 0x0161   |
| Data Size    | 78 bytes |
| Instructions | 8        |

```
      00 01 02 03 04 05 06 07  08 09 0A 0B 0C 0D 0E 0F
      -- -- -- -- -- -- -- --  -- -- -- -- -- -- -- --
0160:    9F 06 80 F8 FF FF 7F  F8 FF FF 7F 73 74 72 30   ...........str0
0170: 00 80 1C 09 80 9F 06 80  F8 FF FF 7F F8 FF FF 7F  ................
0180: 6B 69 6C 6C 00 80 1C 0A  80 9F 06 80 F8 FF FF 7F  kill............
0190: F8 FF FF 7F 73 74 72 30  00 80 1C 0B 80 9F 06 80  ....str0........
01A0: F8 FF FF 7F F8 FF FF 7F  6B 69 6C 6C 00 80 00     ........kill... 
```

#### Opcodes

```
  0: 0x0161 [0x9F] LOAD_SCHEDULED_TASK_ALT: Load scheduler "str0" with entities [EventEntity, EventEntity], work=[127*, 0*]
  1: 0x0172 [0x1C] WAIT(30* ticks)
  2: 0x0175 [0x9F] LOAD_SCHEDULED_TASK_ALT: Load scheduler "kill" with entities [EventEntity, EventEntity], work=[127*, 0*]
  3: 0x0186 [0x1C] WAIT(45* ticks)
  4: 0x0189 [0x9F] LOAD_SCHEDULED_TASK_ALT: Load scheduler "str0" with entities [EventEntity, EventEntity], work=[127*, 0*]
  5: 0x019A [0x1C] WAIT(15* ticks)
  6: 0x019D [0x9F] LOAD_SCHEDULED_TASK_ALT: Load scheduler "kill" with entities [EventEntity, EventEntity], work=[127*, 0*]
  7: 0x01AE [0x00] END_REQSTACK()
```

### Event 65535.18

#### Metadata

| Field        | Value     |
|--------------|-----------|
| Entrypoint   | 0x01AF    |
| Data Size    | 103 bytes |
| Instructions | 11        |

```
      00 01 02 03 04 05 06 07  08 09 0A 0B 0C 0D 0E 0F
      -- -- -- -- -- -- -- --  -- -- -- -- -- -- -- --
01A0:                                               5B                 [
01B0: 0C 80 9D 43 05 01 9D 43  05 01 70 76 73 31 1C 0D  ...C...C..pvs1..
01C0: 80 5B 0E 80 C1 43 05 01  C1 43 05 01 68 6F 75 30  .[...C...C..hou0
01D0: 5B 0C 80 9E 43 05 01 9E  43 05 01 70 76 73 31 1C  [...C...C..pvs1.
01E0: 0B 80 5B 0C 80 C2 43 05  01 C2 43 05 01 70 76 73  ..[...C...C..pvs
01F0: 31 1C 0F 80 5B 0E 80 C3  43 05 01 C3 43 05 01 68  1...[...C...C..h
0200: 6F 75 30 1C 0D 80 5B 0E  80 C8 43 05 01 C8 43 05  ou0...[...C...C.
0210: 01 68 6F 75 30 00                                 .hou0.          
```

#### Opcodes

```
  0: 0x01AF [0x5B] LOAD_EXT_SCHEDULER: Load scheduler "pvs1" with entities [Gutrender Trooper (ID: 17122205/0x0105439D), Gutrender Trooper (ID: 17122205/0x0105439D)], work=1262*
  1: 0x01BE [0x1C] WAIT(10* ticks)
  2: 0x01C1 [0x5B] LOAD_EXT_SCHEDULER: Load scheduler "hou0" with entities [Jet1 (ID: 17122241/0x010543C1), Jet1 (ID: 17122241/0x010543C1)], work=1415*
  3: 0x01D0 [0x5B] LOAD_EXT_SCHEDULER: Load scheduler "pvs1" with entities [Gutrender Trooper (ID: 17122206/0x0105439E), Gutrender Trooper (ID: 17122206/0x0105439E)], work=1262*
  4: 0x01DF [0x1C] WAIT(15* ticks)
  5: 0x01E2 [0x5B] LOAD_EXT_SCHEDULER: Load scheduler "pvs1" with entities [Jet2 (ID: 17122242/0x010543C2), Jet2 (ID: 17122242/0x010543C2)], work=1262*
  6: 0x01F1 [0x1C] WAIT(5* ticks)
  7: 0x01F4 [0x5B] LOAD_EXT_SCHEDULER: Load scheduler "hou0" with entities [Jet3 (ID: 17122243/0x010543C3), Jet3 (ID: 17122243/0x010543C3)], work=1415*
  8: 0x0203 [0x1C] WAIT(10* ticks)
  9: 0x0206 [0x5B] LOAD_EXT_SCHEDULER: Load scheduler "hou0" with entities [Nanto2 (ID: 17122248/0x010543C8), Nanto2 (ID: 17122248/0x010543C8)], work=1415*
 10: 0x0215 [0x00] END_REQSTACK()
```

### Event 65535.19

#### Metadata

| Field        | Value    |
|--------------|----------|
| Entrypoint   | 0x0216   |
| Data Size    | 31 bytes |
| Instructions | 5        |

```
      00 01 02 03 04 05 06 07  08 09 0A 0B 0C 0D 0E 0F
      -- -- -- -- -- -- -- --  -- -- -- -- -- -- -- --
0210:                   66 10  80 9A 43 05 01 9A 43 05        f...C...C.
0220: 01 67 61 74 30 1C 0B 80  29 10 C5 43 05 01 09 80  .gat0...)..C....
0230: C5 43 05 01 00                                    .C...           
```

#### Opcodes

```
  0: 0x0216 [0x66] LOAD_EXT_SCHEDULER_MAIN: Load scheduler "gat0" with entities [Zazarg (ID: 17122202/0x0105439A), Zazarg (ID: 17122202/0x0105439A)], work=136*
  1: 0x0225 [0x1C] WAIT(15* ticks)
  2: 0x0228 [0x29] REQ_SET_WAIT(priority=0x10, entity_id=Mayakov (ID: 17122245/0x010543C5), tag_num=0x09)
  3: 0x022F [0x80] LOAD_WAIT(entity=Mayakov (ID: 17122245/0x010543C5))
  4: 0x0234 [0x00] END_REQSTACK()
```

### Event 65535.20

#### Metadata

| Field        | Value    |
|--------------|----------|
| Entrypoint   | 0x0235   |
| Data Size    | 52 bytes |
| Instructions | 4        |

```
      00 01 02 03 04 05 06 07  08 09 0A 0B 0C 0D 0E 0F
      -- -- -- -- -- -- -- --  -- -- -- -- -- -- -- --
0230:                C5 11 80  C7 43 05 01 C7 43 05 01       ....C...C..
0240: 73 30 30 30 00 80 C5 11  80 C8 43 05 01 C8 43 05  s000......C...C.
0250: 01 73 30 30 31 00 80 C5  12 80 C6 43 05 01 C6 43  .s001......C...C
0260: 05 01 73 30 30 30 00 80  00                       ..s000...       
```

#### Opcodes

```
  0: 0x0235 [0xC5] LOAD_SCHEDULED_TASK_ALT3: Load scheduler 0x80003030 for entities [Nanto1 (ID: 17122247/0x010543C7), Nanto1 (ID: 17122247/0x010543C7)], work=70*, param=12403
  1: 0x0246 [0xC5] LOAD_SCHEDULED_TASK_ALT3: Load scheduler 0x80003130 for entities [Nanto2 (ID: 17122248/0x010543C8), Nanto2 (ID: 17122248/0x010543C8)], work=70*, param=12403
  2: 0x0257 [0xC5] LOAD_SCHEDULED_TASK_ALT3: Load scheduler 0x80003030 for entities [Lilisette (ID: 17122246/0x010543C6), Lilisette (ID: 17122246/0x010543C6)], work=68*, param=12403
  3: 0x0268 [0x00] END_REQSTACK()
```
