# 17122132 - TGS_084

## Common Data

| Field            | Value                       |
|------------------|-----------------------------|
| Zone             | Batallia Downs [S] (ID: 84) |
| Block Size       | 448 bytes                   |
| Total Events     | 4                           |
| References Count | 13                          |

## List of Events

| Event ID              | Entrypoint   |   Size |   Instructions |
|-----------------------|--------------|--------|----------------|
| [65535](#event-65535) | 0x0000       |      1 |              1 |
| [10](#event-10)       | 0x0001       |     61 |             14 |
| [11](#event-11)       | 0x003E       |    142 |             24 |
| [12](#event-12)       | 0x00CC       |    157 |             27 |

## DAT References (imed_data)

|   Index | Hex Value   |   Dec Value |
|---------|-------------|-------------|
|       0 | 0x1E2E      |        7726 |
|       1 | 0x0000      |           0 |
|       2 | 0x0001      |           1 |
|       3 | 0x0002      |           2 |
|       4 | 0x00C8      |         200 |
|       5 | 0x003C      |          60 |
|       6 | 0x0013      |          19 |
|       7 | 0x1E2F      |        7727 |
|       8 | 0x0155      |         341 |
|       9 | 0x0384      |         900 |
|      10 | 0x0011      |          17 |
|      11 | 0x0008      |           8 |
|      12 | 0x000F      |          15 |

## String References

- **7726**: Select event. [Not right now./Batallia at dawn./Battlefield batallia.]
- **7727**: TEST: Press a button to start.

## Events

### Event 65535

#### Metadata

| Field        | Value   |
|--------------|---------|
| Entrypoint   | 0x0000  |
| Data Size    | 1 bytes |
| Instructions | 1       |

```
      00 01 02 03 04 05 06 07  08 09 0A 0B 0C 0D 0E 0F
      -- -- -- -- -- -- -- --  -- -- -- -- -- -- -- --
0000: 00                                                .               
```

#### Opcodes

```
  0: 0x0000 [0x00] END_REQSTACK()
```

### Event 10

#### Metadata

| Field        | Value    |
|--------------|----------|
| Entrypoint   | 0x0001   |
| Data Size    | 61 bytes |
| Instructions | 14       |

```
      00 01 02 03 04 05 06 07  08 09 0A 0B 0C 0D 0E 0F
      -- -- -- -- -- -- -- --  -- -- -- -- -- -- -- --
0000:    20 01 24 00 80 01 80  01 80 25 02 00 10 01 80    .$......%.....
0010: 00 16 00 01 3A 00 02 00  10 02 80 00 28 00 29 01  ....:.......(.).
0020: 54 43 05 01 02 01 3A 00  02 00 10 03 80 00 3A 00  TC....:.......:.
0030: 29 01 54 43 05 01 03 01  3A 00 20 00 21 00        ).TC....:. .!.  
```

#### Opcodes

```
  0: 0x0001 [0x20] SET_CLI_EVENT_UC_FLAG: Lock player control
  1: 0x0003 [0x24] CREATE_DIALOG(message_id=7726*, default_option=0*, option_flags=0*)
    → "Select event. [Not right now./Batallia at dawn./Battlefield batallia.]"
  2: 0x000A [0x25] WAIT_DIALOG_SELECT()
  3: 0x000B [0x02] IF !(Work_Zone[0] == 0*) GOTO 0x0016
  4: 0x0013 [0x01] GOTO 0x003A
  5: 0x0016 [0x02] IF !(Work_Zone[0] == 1*) GOTO 0x0028
  6: 0x001E [0x29] REQ_SET_WAIT(priority=0x01, entity_id=TGS_084 (ID: 17122132/0x01054354), tag_num=0x02)
  7: 0x0025 [0x01] GOTO 0x003A
  8: 0x0028 [0x02] IF !(Work_Zone[0] == 2*) GOTO 0x003A
  9: 0x0030 [0x29] REQ_SET_WAIT(priority=0x01, entity_id=TGS_084 (ID: 17122132/0x01054354), tag_num=0x03)
 10: 0x0037 [0x01] GOTO 0x003A

SUBROUTINE_003A:
 11: 0x003A [0x20] SET_CLI_EVENT_UC_FLAG: Unlock player control
 12: 0x003C [0x21] END_EVENT
 13: 0x003D [0x00] END_REQSTACK()
```

### Event 11

#### Metadata

| Field        | Value     |
|--------------|-----------|
| Entrypoint   | 0x003E    |
| Data Size    | 142 bytes |
| Instructions | 24        |

```
      00 01 02 03 04 05 06 07  08 09 0A 0B 0C 0D 0E 0F
      -- -- -- -- -- -- -- --  -- -- -- -- -- -- -- --
0030:                                            20 01                 .
0040: 42 46 01 45 04 80 F0 FF  FF 7F F0 FF FF 7F 66 64  BF.E..........fd
0050: 6F 31 01 80 1C 05 80 77  03 80 01 80 38 06 80 45  o1.....w....8..E
0060: 04 80 F0 FF FF 7F F0 FF  FF 7F 66 64 69 31 01 80  ..........fdi1..
0070: 1C 05 80 48 07 80 23 67  01 80 01 80 45 08 80 F0  ...H..#g....E...
0080: FF FF 7F F0 FF FF 7F 74  67 73 31 01 80 1C 09 80  .......tgs1.....
0090: 45 04 80 F0 FF FF 7F F0  FF FF 7F 66 64 6F 31 01  E..........fdo1.
00A0: 80 1C 05 80 52 08 80 F0  FF FF 7F F0 FF FF 7F 74  ....R..........t
00B0: 67 73 31 78 68 46 00 45  04 80 F0 FF FF 7F F0 FF  gs1xhF.E........
00C0: FF 7F 66 64 69 31 01 80  20 00 21 00              ..fdi1.. .!.    
```

#### Opcodes

```
  0: 0x003E [0x20] SET_CLI_EVENT_UC_FLAG: Lock player control
  1: 0x0040 [0x42] SET_CLI_EVENT_CANCEL_DATA()
  2: 0x0041 [0x46] CAMERA_CONTROL: Disable user control
  3: 0x0043 [0x45] LOAD_SCHEDULED_TASK: Load scheduler "fdo1" with entities [LocalPlayer, LocalPlayer], work=[200*, 0*]
  4: 0x0054 [0x1C] WAIT(60* ticks)
  5: 0x0057 [0x77] SET_EVENT_TIME_WEATHER(hour=2*, weather=0*)
  6: 0x005C [0x38] SET_CLIENT_EVENT_MODE(mode=19*)
  7: 0x005F [0x45] LOAD_SCHEDULED_TASK: Load scheduler "fdi1" with entities [LocalPlayer, LocalPlayer], work=[200*, 0*]
  8: 0x0070 [0x1C] WAIT(60* ticks)
  9: 0x0073 [0x48] [System] [7727*]:
    → "TEST: Press a button to start."
 10: 0x0076 [0x23] WAIT_FOR_DIALOG_INTERACTION
 11: 0x0077 [0x67] HIDE_HUD_ELEMENTS(param1=0x8001, param2=0x8001)
 12: 0x007C [0x45] LOAD_SCHEDULED_TASK: Load scheduler "tgs1" with entities [LocalPlayer, LocalPlayer], work=[341*, 0*]
 13: 0x008D [0x1C] WAIT(900* ticks)
 14: 0x0090 [0x45] LOAD_SCHEDULED_TASK: Load scheduler "fdo1" with entities [LocalPlayer, LocalPlayer], work=[200*, 0*]
 15: 0x00A1 [0x1C] WAIT(60* ticks)
 16: 0x00A4 [0x52] END_LOAD_SCHEDULER: End scheduler "tgs1" with entities [LocalPlayer, LocalPlayer], work=341*
 17: 0x00B3 [0x78] ENABLE_GAME_TIMER_RESET_WEATHER()
 18: 0x00B4 [0x68] SHOW_HUD_ELEMENTS()
 19: 0x00B5 [0x46] CAMERA_CONTROL: Restore default settings
 20: 0x00B7 [0x45] LOAD_SCHEDULED_TASK: Load scheduler "fdi1" with entities [LocalPlayer, LocalPlayer], work=[200*, 0*]
 21: 0x00C8 [0x20] SET_CLI_EVENT_UC_FLAG: Unlock player control
 22: 0x00CA [0x21] END_EVENT
 23: 0x00CB [0x00] END_REQSTACK()
```

### Event 12

#### Metadata

| Field        | Value     |
|--------------|-----------|
| Entrypoint   | 0x00CC    |
| Data Size    | 157 bytes |
| Instructions | 27        |

```
      00 01 02 03 04 05 06 07  08 09 0A 0B 0C 0D 0E 0F
      -- -- -- -- -- -- -- --  -- -- -- -- -- -- -- --
00C0:                                      20 01 42 46               .BF
00D0: 01 45 04 80 F0 FF FF 7F  F0 FF FF 7F 66 64 6F 31  .E..........fdo1
00E0: 01 80 1C 05 80 77 0A 80  0B 80 38 06 80 80 4F 43  .....w....8...OC
00F0: 05 01 1C 0C 80 29 01 4F  43 05 01 01 45 04 80 F0  .....).OC...E...
0100: FF FF 7F F0 FF FF 7F 66  64 69 31 01 80 1C 05 80  .......fdi1.....
0110: 48 07 80 23 67 01 80 01  80 45 08 80 F0 FF FF 7F  H..#g....E......
0120: F0 FF FF 7F 74 67 73 32  01 80 1C 09 80 45 04 80  ....tgs2.....E..
0130: F0 FF FF 7F F0 FF FF 7F  66 64 6F 31 01 80 1C 05  ........fdo1....
0140: 80 52 08 80 F0 FF FF 7F  F0 FF FF 7F 74 67 73 32  .R..........tgs2
0150: 78 68 46 00 45 04 80 F0  FF FF 7F F0 FF FF 7F 66  xhF.E..........f
0160: 64 69 31 01 80 20 00 21  00                       di1.. .!.       
```

#### Opcodes

```
  0: 0x00CC [0x20] SET_CLI_EVENT_UC_FLAG: Lock player control
  1: 0x00CE [0x42] SET_CLI_EVENT_CANCEL_DATA()
  2: 0x00CF [0x46] CAMERA_CONTROL: Disable user control
  3: 0x00D1 [0x45] LOAD_SCHEDULED_TASK: Load scheduler "fdo1" with entities [LocalPlayer, LocalPlayer], work=[200*, 0*]
  4: 0x00E2 [0x1C] WAIT(60* ticks)
  5: 0x00E5 [0x77] SET_EVENT_TIME_WEATHER(hour=17*, weather=8*)
  6: 0x00EA [0x38] SET_CLIENT_EVENT_MODE(mode=19*)
  7: 0x00ED [0x80] LOAD_WAIT(entity=Romualdo (ID: 17122127/0x0105434F))
  8: 0x00F2 [0x1C] WAIT(15* ticks)
  9: 0x00F5 [0x29] REQ_SET_WAIT(priority=0x01, entity_id=Romualdo (ID: 17122127/0x0105434F), tag_num=0x01)
 10: 0x00FC [0x45] LOAD_SCHEDULED_TASK: Load scheduler "fdi1" with entities [LocalPlayer, LocalPlayer], work=[200*, 0*]
 11: 0x010D [0x1C] WAIT(60* ticks)
 12: 0x0110 [0x48] [System] [7727*]:
    → "TEST: Press a button to start."
 13: 0x0113 [0x23] WAIT_FOR_DIALOG_INTERACTION
 14: 0x0114 [0x67] HIDE_HUD_ELEMENTS(param1=0x8001, param2=0x8001)
 15: 0x0119 [0x45] LOAD_SCHEDULED_TASK: Load scheduler "tgs2" with entities [LocalPlayer, LocalPlayer], work=[341*, 0*]
 16: 0x012A [0x1C] WAIT(900* ticks)
 17: 0x012D [0x45] LOAD_SCHEDULED_TASK: Load scheduler "fdo1" with entities [LocalPlayer, LocalPlayer], work=[200*, 0*]
 18: 0x013E [0x1C] WAIT(60* ticks)
 19: 0x0141 [0x52] END_LOAD_SCHEDULER: End scheduler "tgs2" with entities [LocalPlayer, LocalPlayer], work=341*
 20: 0x0150 [0x78] ENABLE_GAME_TIMER_RESET_WEATHER()
 21: 0x0151 [0x68] SHOW_HUD_ELEMENTS()
 22: 0x0152 [0x46] CAMERA_CONTROL: Restore default settings
 23: 0x0154 [0x45] LOAD_SCHEDULED_TASK: Load scheduler "fdi1" with entities [LocalPlayer, LocalPlayer], work=[200*, 0*]
 24: 0x0165 [0x20] SET_CLI_EVENT_UC_FLAG: Unlock player control
 25: 0x0167 [0x21] END_EVENT
 26: 0x0168 [0x00] END_REQSTACK()
```
