# 0x7FFFFFF0 - Zone Events

## Common Data

| Field            | Value                       |
|------------------|-----------------------------|
| Zone             | Batallia Downs [S] (ID: 84) |
| Block Size       | 7700 bytes                  |
| Total Events     | 77                          |
| References Count | 217                         |

## List of Events

| Event ID                   | Entrypoint   |   Size |   Instructions |
|----------------------------|--------------|--------|----------------|
| [65535](#event-65535)      | 0x0000       |      1 |              1 |
| [65534](#event-65534)      | 0x0001       |      1 |              1 |
| [201](#event-201)          | 0x0002       |    102 |             15 |
| [203](#event-203)          | 0x0068       |     29 |              7 |
| [65535.1](#event-655351)   | 0x0085       |     16 |              3 |
| [65535.2](#event-655352)   | 0x0095       |     41 |              5 |
| [65535.3](#event-655353)   | 0x00BE       |     13 |              3 |
| [65535.4](#event-655354)   | 0x00CB       |     14 |              4 |
| [65535.5](#event-655355)   | 0x00D9       |     13 |              3 |
| [65535.6](#event-655356)   | 0x00E6       |     14 |              4 |
| [65535.7](#event-655357)   | 0x00F4       |     13 |              3 |
| [65535.8](#event-655358)   | 0x0101       |     14 |              4 |
| [65535.9](#event-655359)   | 0x010F       |     13 |              3 |
| [65535.10](#event-6553510) | 0x011C       |     14 |              4 |
| [65535.11](#event-6553511) | 0x012A       |     13 |              3 |
| [65535.12](#event-6553512) | 0x0137       |     14 |              4 |
| [65535.13](#event-6553513) | 0x0145       |     13 |              3 |
| [65535.14](#event-6553514) | 0x0152       |     14 |              4 |
| [65535.15](#event-6553515) | 0x0160       |     13 |              3 |
| [65535.16](#event-6553516) | 0x016D       |     14 |              4 |
| [103](#event-103)          | 0x017B       |    425 |             52 |
| [107](#event-107)          | 0x0324       |   1047 |            120 |
| [109](#event-109)          | 0x073B       |    426 |             49 |
| [111](#event-111)          | 0x08E5       |    704 |             82 |
| [65535.17](#event-6553517) | 0x0BA5       |     29 |              5 |
| [65535.18](#event-6553518) | 0x0BC2       |     27 |              5 |
| [65535.19](#event-6553519) | 0x0BDD       |     27 |              5 |
| [65535.20](#event-6553520) | 0x0BF8       |     35 |              6 |
| [65535.21](#event-6553521) | 0x0C1B       |     27 |              5 |
| [65535.22](#event-6553522) | 0x0C36       |     14 |              4 |
| [65535.23](#event-6553523) | 0x0C44       |     14 |              4 |
| [65535.24](#event-6553524) | 0x0C52       |     14 |              4 |
| [65535.25](#event-6553525) | 0x0C60       |     14 |              4 |
| [65535.26](#event-6553526) | 0x0C6E       |     14 |              4 |
| [65535.27](#event-6553527) | 0x0C7C       |     14 |              4 |
| [65535.28](#event-6553528) | 0x0C8A       |     14 |              4 |
| [65535.29](#event-6553529) | 0x0C98       |     28 |              6 |
| [65535.30](#event-6553530) | 0x0CB4       |     16 |              3 |
| [65535.31](#event-6553531) | 0x0CC4       |     16 |              3 |
| [65535.32](#event-6553532) | 0x0CD4       |     38 |              5 |
| [65535.33](#event-6553533) | 0x0CFA       |     38 |              5 |
| [65535.34](#event-6553534) | 0x0D20       |     38 |              5 |
| [65535.35](#event-6553535) | 0x0D46       |    209 |             25 |
| [65535.36](#event-6553536) | 0x0E17       |    209 |             25 |
| [65535.37](#event-6553537) | 0x0EE8       |    209 |             25 |
| [65535.38](#event-6553538) | 0x0FB9       |    209 |             25 |
| [65535.39](#event-6553539) | 0x108A       |    209 |             25 |
| [65535.40](#event-6553540) | 0x115B       |     48 |              9 |
| [65535.41](#event-6553541) | 0x118B       |     11 |              3 |
| [65535.42](#event-6553542) | 0x1196       |     27 |              5 |
| [65535.43](#event-6553543) | 0x11B1       |     16 |              4 |
| [65535.44](#event-6553544) | 0x11C1       |     37 |              5 |
| [65535.45](#event-6553545) | 0x11E6       |    185 |             37 |
| [65535.46](#event-6553546) | 0x129F       |      6 |              2 |
| [65535.47](#event-6553547) | 0x12A5       |      6 |              2 |
| [65535.48](#event-6553548) | 0x12AB       |      7 |              3 |
| [65535.49](#event-6553549) | 0x12B2       |      7 |              3 |
| [65535.50](#event-6553550) | 0x12B9       |     27 |              5 |
| [65535.51](#event-6553551) | 0x12D4       |     24 |              4 |
| [65535.52](#event-6553552) | 0x12EC       |     24 |              4 |
| [65535.53](#event-6553553) | 0x1304       |     14 |              4 |
| [65535.54](#event-6553554) | 0x1312       |     14 |              4 |
| [65535.55](#event-6553555) | 0x1320       |     10 |              2 |
| [65535.56](#event-6553556) | 0x132A       |     10 |              2 |
| [65535.57](#event-6553557) | 0x1334       |     21 |              5 |
| [65535.58](#event-6553558) | 0x1349       |     14 |              4 |
| [65535.59](#event-6553559) | 0x1357       |     27 |              9 |
| [65535.60](#event-6553560) | 0x1372       |     18 |              6 |
| [65535.61](#event-6553561) | 0x1384       |     42 |              6 |
| [65535.62](#event-6553562) | 0x13AE       |     20 |              6 |
| [65535.63](#event-6553563) | 0x13C2       |     23 |              7 |
| [65535.64](#event-6553564) | 0x13D9       |      5 |              2 |
| [65535.65](#event-6553565) | 0x13DE       |      5 |              2 |
| [65535.66](#event-6553566) | 0x13E3       |      5 |              2 |
| [65535.67](#event-6553567) | 0x13E8       |      5 |              2 |
| [65535.68](#event-6553568) | 0x13ED       |    345 |             33 |
| [264](#event-264)          | 0x1546       |   1061 |            204 |

## DAT References (imed_data)

|   Index | Hex Value   |   Dec Value |
|---------|-------------|-------------|
|       0 | 0x1E2B      |        7723 |
|       1 | 0x00C8      |         200 |
|       2 | 0x0000      |           0 |
|       3 | 0x0001      |           1 |
|       4 | 0x005A      |          90 |
|       5 | 0x003C      |          60 |
|       6 | 0x00C9      |         201 |
|       7 | 0x1F2A      |        7978 |
|       8 | 0x00EA      |         234 |
|       9 | 0xFFFF41AC  |  4294918572 |
|      10 | 0x6AACD     |      436941 |
|      11 | 0x0094      |         148 |
|      12 | 0x00F0      |         240 |
|      13 | 0xFFF604EB  |  4294313195 |
|      14 | 0x20BB9     |      134073 |
|      15 | 0xFFFFC180  |  4294951296 |
|      16 | 0x0A00      |        2560 |
|      17 | 0x000D      |          13 |
|      18 | 0xFFF5F747  |  4294309703 |
|      19 | 0x21953     |      137555 |
|      20 | 0xFFFFC400  |  4294951936 |
|      21 | 0xFFFC2014  |  4294713364 |
|      22 | 0x2A85C     |      174172 |
|      23 | 0xFFFFE0BF  |  4294959295 |
|      24 | 0x01F0      |         496 |
|      25 | 0xFFFC2DB8  |  4294716856 |
|      26 | 0x299D6     |      170454 |
|      27 | 0xFFFFE33B  |  4294959931 |
|      28 | 0xFFFBF13E  |  4294701374 |
|      29 | 0xFFFE6333  |  4294861619 |
|      30 | 0xFFFFA240  |  4294943296 |
|      31 | 0x0DF7      |        3575 |
|      32 | 0xFFFBFE2A  |  4294704682 |
|      33 | 0xFFFE706E  |  4294865006 |
|      34 | 0xFFFFA4AE  |  4294943918 |
|      35 | 0xFFFE911C  |  4294873372 |
|      36 | 0x6673      |       26227 |
|      37 | 0xFFFFE0C0  |  4294959296 |
|      38 | 0x05E4      |        1508 |
|      39 | 0xFFFE828C  |  4294869644 |
|      40 | 0x57E6      |       22502 |
|      41 | 0xFFFFE33C  |  4294959932 |
|      42 | 0x16F51     |       94033 |
|      43 | 0x2A6E7     |      173799 |
|      44 | 0x0600      |        1536 |
|      45 | 0x1626F     |       90735 |
|      46 | 0x29A9B     |      170651 |
|      47 | 0x0224      |         548 |
|      48 | 0x2A703     |      173827 |
|      49 | 0xFFF9AE53  |  4294553171 |
|      50 | 0x1F3F      |        7999 |
|      51 | 0x09F3      |        2547 |
|      52 | 0x29AD9     |      170713 |
|      53 | 0xFFF9BC30  |  4294556720 |
|      54 | 0x2173      |        8563 |
|      55 | 0xFFF98030  |  4294541360 |
|      56 | 0x5B455     |      373845 |
|      57 | 0x0606      |        1542 |
|      58 | 0xFFF97277  |  4294537847 |
|      59 | 0x5A682     |      370306 |
|      60 | 0xFFFFA4B8  |  4294943928 |
|      61 | 0x001B      |          27 |
|      62 | 0x2B29D     |      176797 |
|      63 | 0xFFF991B2  |  4294545842 |
|      64 | 0x1F99      |        8089 |
|      65 | 0x0A0C      |        2572 |
|      66 | 0x001E      |          30 |
|      67 | 0x0121      |         289 |
|      68 | 0x000F      |          15 |
|      69 | 0x0013      |          19 |
|      70 | 0x1E4A      |        7754 |
|      71 | 0x1E4B      |        7755 |
|      72 | 0x0759      |        1881 |
|      73 | 0x1E4C      |        7756 |
|      74 | 0x0006      |           6 |
|      75 | 0x1E4D      |        7757 |
|      76 | 0x0009      |           9 |
|      77 | 0x1E4E      |        7758 |
|      78 | 0x0078      |         120 |
|      79 | 0x00A3      |         163 |
|      80 | 0x1E52      |        7762 |
|      81 | 0x1E53      |        7763 |
|      82 | 0x1E54      |        7764 |
|      83 | 0x1E55      |        7765 |
|      84 | 0x1E56      |        7766 |
|      85 | 0x1E57      |        7767 |
|      86 | 0x1E58      |        7768 |
|      87 | 0x1E59      |        7769 |
|      88 | 0x1E5A      |        7770 |
|      89 | 0x0002      |           2 |
|      90 | 0x0003      |           3 |
|      91 | 0x0004      |           4 |
|      92 | 0x0005      |           5 |
|      93 | 0x0007      |           7 |
|      94 | 0x0008      |           8 |
|      95 | 0x1E5B      |        7771 |
|      96 | 0x1E5C      |        7772 |
|      97 | 0x00FC      |         252 |
|      98 | 0xD4E2      |       54498 |
|      99 | 0x21C55     |      138325 |
|     100 | 0xFFFFC9E0  |  4294953440 |
|     101 | 0x0B05      |        2821 |
|     102 | 0x014B      |         331 |
|     103 | 0x1E5F      |        7775 |
|     104 | 0x1E60      |        7776 |
|     105 | 0x1E61      |        7777 |
|     106 | 0x1E62      |        7778 |
|     107 | 0x1E63      |        7779 |
|     108 | 0x1E67      |        7783 |
|     109 | 0x1E68      |        7784 |
|     110 | 0x1EE0      |        7904 |
|     111 | 0x007C      |         124 |
|     112 | 0x1E69      |        7785 |
|     113 | 0x1E6A      |        7786 |
|     114 | 0x1E6B      |        7787 |
|     115 | 0x1E6C      |        7788 |
|     116 | 0x07EF      |        2031 |
|     117 | 0x1E6D      |        7789 |
|     118 | 0x1E6E      |        7790 |
|     119 | 0x1E6F      |        7791 |
|     120 | 0x012C      |         300 |
|     121 | 0xFFF97779  |  4294539129 |
|     122 | 0xFFFC360E  |  4294718990 |
|     123 | 0x4E1F      |       19999 |
|     124 | 0x0C1B      |        3099 |
|     125 | 0x8DB92     |      580498 |
|     126 | 0xFFFCA9CB  |  4294748619 |
|     127 | 0x8C9F      |       35999 |
|     128 | 0x8D5BB     |      579003 |
|     129 | 0xFFFC9A22  |  4294744610 |
|     130 | 0x8D55A     |      578906 |
|     131 | 0xFFFC4448  |  4294722632 |
|     132 | 0x85CA      |       34250 |
|     133 | 0x87EAE     |      556718 |
|     134 | 0xFFFA6B61  |  4294601569 |
|     135 | 0x000A      |          10 |
|     136 | 0xFFFB8893  |  4294674579 |
|     137 | 0xFFF8B131  |  4294488369 |
|     138 | 0x8E17B     |      582011 |
|     139 | 0xFFFCC75C  |  4294756188 |
|     140 | 0x8D9B5     |      580021 |
|     141 | 0xFFFC8498  |  4294739096 |
|     142 | 0x0080      |         128 |
|     143 | 0x0091      |         145 |
|     144 | 0x004F      |          79 |
|     145 | 0x004C      |          76 |
|     146 | 0x0106      |         262 |
|     147 | 0x0040      |          64 |
|     148 | 0x0018      |          24 |
|     149 | 0x0050      |          80 |
|     150 | 0x0046      |          70 |
|     151 | 0x0064      |         100 |
|     152 | 0x006E      |         110 |
|     153 | 0x0082      |         130 |
|     154 | 0x0049      |          73 |
|     155 | 0x0053      |          83 |
|     156 | 0x005D      |          93 |
|     157 | 0x0067      |         103 |
|     158 | 0x0071      |         113 |
|     159 | 0x007B      |         123 |
|     160 | 0x0085      |         133 |
|     161 | 0xFFFFFC18  |  4294966296 |
|     162 | 0x0BB8      |        3000 |
|     163 | 0x81434     |      529460 |
|     164 | 0xFFFA4FCB  |  4294594507 |
|     165 | 0x0F39      |        3897 |
|     166 | 0xFFFB6FF7  |  4294668279 |
|     167 | 0xFFF8B223  |  4294488611 |
|     168 | 0x0014      |          20 |
|     169 | 0x008C      |         140 |
|     170 | 0x00D2      |         210 |
|     171 | 0xFFF965B7  |  4294534583 |
|     172 | 0xFFFC55AC  |  4294727084 |
|     173 | 0xFFFFE163  |  4294959459 |
|     174 | 0x5E73E     |      386878 |
|     175 | 0xFFFC0BD7  |  4294708183 |
|     176 | 0x2085      |        8325 |
|     177 | 0xFFFF1F38  |  4294909752 |
|     178 | 0x6BCF3     |      441587 |
|     179 | 0x036C      |         876 |
|     180 | 0x0028      |          40 |
|     181 | 0xFFFF00A7  |  4294901927 |
|     182 | 0x6AFBE     |      438206 |
|     183 | 0x0293      |         659 |
|     184 | 0xFFFF2514  |  4294911252 |
|     185 | 0x6AC17     |      437271 |
|     186 | 0x0322      |         802 |
|     187 | 0x0027      |          39 |
|     188 | 0xFFFCEE87  |  4294766215 |
|     189 | 0xFFFD3E59  |  4294786649 |
|     190 | 0x2BEC      |       11244 |
|     191 | 0xFFFDEA50  |  4294830672 |
|     192 | 0xFFFDEAC1  |  4294830785 |
|     193 | 0x0026      |          38 |
|     194 | 0xFFFD915C  |  4294807900 |
|     195 | 0xFFFDEBFA  |  4294831098 |
|     196 | 0x405F      |       16479 |
|     197 | 0x0057      |          87 |
|     198 | 0x0060      |          96 |
|     199 | 0x008D      |         141 |
|     200 | 0x0F26      |        3878 |
|     201 | 0x0097      |         151 |
|     202 | 0x00A1      |         161 |
|     203 | 0x00AB      |         171 |
|     204 | 0x00B5      |         181 |
|     205 | 0x00BF      |         191 |
|     206 | 0x0090      |         144 |
|     207 | 0x00B4      |         180 |
|     208 | 0x1D19      |        7449 |
|     209 | 0x1D1A      |        7450 |
|     210 | 0x1D1C      |        7452 |
|     211 | 0x1D1D      |        7453 |
|     212 | 0x1D1E      |        7454 |
|     213 | 0x1D1F      |        7455 |
|     214 | 0x0102      |         258 |
|     215 | 0x0202      |         514 |
|     216 | 0x0156      |         342 |

## String References

- **7723**: The order has been given by your party leader to enter [Everbloom Hollow/the Ruhotz Silvermines/Ghoyu's Reverie].
- **7770**: Thorben squints at <Player>...
- **7771**: <Player> squints right back at Thorben.
- **7904**: @@
- **7978**: The sandworm swallows you whole!

## Events

### Event 65535

#### Metadata

| Field        | Value   |
|--------------|---------|
| Entrypoint   | 0x0000  |
| Data Size    | 1 bytes |
| Instructions | 1       |

```
      00 01 02 03 04 05 06 07  08 09 0A 0B 0C 0D 0E 0F
      -- -- -- -- -- -- -- --  -- -- -- -- -- -- -- --
0000: 00                                                .               
```

#### Opcodes

```
  0: 0x0000 [0x00] END_REQSTACK()
```

### Event 65534

#### Metadata

| Field        | Value   |
|--------------|---------|
| Entrypoint   | 0x0001  |
| Data Size    | 1 bytes |
| Instructions | 1       |

```
      00 01 02 03 04 05 06 07  08 09 0A 0B 0C 0D 0E 0F
      -- -- -- -- -- -- -- --  -- -- -- -- -- -- -- --
0000:    00                                              .              
```

#### Opcodes

```
  0: 0x0001 [0x00] END_REQSTACK()
```

### Event 201

#### Metadata

| Field        | Value     |
|--------------|-----------|
| Entrypoint   | 0x0002    |
| Data Size    | 102 bytes |
| Instructions | 15        |

```
      00 01 02 03 04 05 06 07  08 09 0A 0B 0C 0D 0E 0F
      -- -- -- -- -- -- -- --  -- -- -- -- -- -- -- --
0000:       42 48 00 80 45 01  80 F0 FF FF 7F F0 FF FF    BH..E.........
0010: 7F 66 64 6F 31 02 80 02  03 10 02 80 00 33 00 62  .fdo1........3.b
0020: 03 80 F0 FF FF 7F F0 FF  FF 7F 6D 61 69 6E 02 80  ..........main..
0030: 1C 04 80 1C 05 80 83 1E  17 AA 1E 17 1E 17 1E 17  ................
0040: 1E 17 1E 17 1F 17 1E 17  1E 17 03 00 00 02 80 77  ...............w
0050: 1F 17 00 00 78 45 06 80  F0 FF FF 7F F0 FF FF 7F  ....xE..........
0060: 77 68 69 31 02 80 21 00                           whi1..!.        
```

#### Opcodes

```
  0: 0x0002 [0x42] SET_CLI_EVENT_CANCEL_DATA()
  1: 0x0003 [0x48] [System] [7723*]:
    → "The order has been given by your party leader to enter [Everbloom Hollow/the Ruhotz Silvermines/Ghoyu's Reverie]."
  2: 0x0006 [0x45] LOAD_SCHEDULED_TASK: Load scheduler "fdo1" with entities [LocalPlayer, LocalPlayer], work=[200*, 0*]
  3: 0x0017 [0x02] IF !(Work_Zone[3] == 0*) GOTO 0x0033
  4: 0x001F [0x62] LOAD_EVENT_SCHEDULER: Load scheduler "main" with entities [LocalPlayer, LocalPlayer], work=[1*, 0*]
  5: 0x0030 [0x1C] WAIT(90* ticks)
  6: 0x0033 [0x1C] WAIT(60* ticks)
  7: 0x0036 [0x83] Work_Zone_1700[30] = GetGameTime()
  8: 0x0039 [0xAA] VANA_DIEL_TIMESTAMP_CONVERTER(timestamp=Work_Zone_1700[30], year=Work_Zone_1700[30], month=Work_Zone_1700[30], day=Work_Zone_1700[30], weekday=Work_Zone_1700[30], hour=Work_Zone_1700[31], minute=Work_Zone_1700[30], moon=Work_Zone_1700[30])
  9: 0x004A [0x03] ExtData[1]->WorkLocal[0] = 0*
 10: 0x004F [0x77] SET_EVENT_TIME_WEATHER(hour=Work_Zone_1700[31], weather=ExtData[1]->WorkLocal[0])
 11: 0x0054 [0x78] ENABLE_GAME_TIMER_RESET_WEATHER()
 12: 0x0055 [0x45] LOAD_SCHEDULED_TASK: Load scheduler "whi1" with entities [LocalPlayer, LocalPlayer], work=[201*, 0*]
 13: 0x0066 [0x21] END_EVENT
 14: 0x0067 [0x00] END_REQSTACK()
```

### Event 203

#### Metadata

| Field        | Value    |
|--------------|----------|
| Entrypoint   | 0x0068   |
| Data Size    | 29 bytes |
| Instructions | 7        |

```
      00 01 02 03 04 05 06 07  08 09 0A 0B 0C 0D 0E 0F
      -- -- -- -- -- -- -- --  -- -- -- -- -- -- -- --
0060:                          42 48 07 80 BB 08 80 F0          BH......
0070: FF FF 7F F0 FF FF 7F 6D  61 69 6E 02 80 1C 05 80  .......main.....
0080: 1C 05 80 21 00                                    ...!.           
```

#### Opcodes

```
  0: 0x0068 [0x42] SET_CLI_EVENT_CANCEL_DATA()
  1: 0x0069 [0x48] [System] [7978*]:
    → "The sandworm swallows you whole!"
  2: 0x006C [0xBB] LOAD_EVENT_SCHEDULER_ALT: Load scheduler "main" with entities [LocalPlayer, LocalPlayer], work=[234*, 0*]
  3: 0x007D [0x1C] WAIT(60* ticks)
  4: 0x0080 [0x1C] WAIT(60* ticks)
  5: 0x0083 [0x21] END_EVENT
  6: 0x0084 [0x00] END_REQSTACK()
```

### Event 65535.1

#### Metadata

| Field        | Value    |
|--------------|----------|
| Entrypoint   | 0x0085   |
| Data Size    | 16 bytes |
| Instructions | 3        |

```
      00 01 02 03 04 05 06 07  08 09 0A 0B 0C 0D 0E 0F
      -- -- -- -- -- -- -- --  -- -- -- -- -- -- -- --
0080:                92 01 F0  FF FF 7F 37 09 80 0A 80       ......7....
0090: 08 80 02 80 00                                    .....           
```

#### Opcodes

```
  0: 0x0085 [0x92] LocalPlayer->Render.Flags3 ^= 0x01
  1: 0x008B [0x37] UPDATE_EVENT_POSITION_AND_DIR: x=-48.724*, z=436.941*, y=0.234*, direction=0.0°*
  2: 0x0094 [0x00] END_REQSTACK()
```

### Event 65535.2

#### Metadata

| Field        | Value    |
|--------------|----------|
| Entrypoint   | 0x0095   |
| Data Size    | 41 bytes |
| Instructions | 5        |

```
      00 01 02 03 04 05 06 07  08 09 0A 0B 0C 0D 0E 0F
      -- -- -- -- -- -- -- --  -- -- -- -- -- -- -- --
0090:                BB 0B 80  F0 FF FF 7F 55 43 05 01       .......UC..
00A0: 6D 61 69 6E 02 80 1C 0C  80 45 01 80 F0 FF FF 7F  main.....E......
00B0: F0 FF FF 7F 66 64 6F 31  02 80 1C 05 80 00        ....fdo1......  
```

#### Opcodes

```
  0: 0x0095 [0xBB] LOAD_EVENT_SCHEDULER_ALT: Load scheduler "main" with entities [LocalPlayer, Cavernous Maw (ID: 17122133/0x01054355)], work=[148*, 0*]
  1: 0x00A6 [0x1C] WAIT(240* ticks)
  2: 0x00A9 [0x45] LOAD_SCHEDULED_TASK: Load scheduler "fdo1" with entities [LocalPlayer, LocalPlayer], work=[200*, 0*]
  3: 0x00BA [0x1C] WAIT(60* ticks)
  4: 0x00BD [0x00] END_REQSTACK()
```

### Event 65535.3

#### Metadata

| Field        | Value    |
|--------------|----------|
| Entrypoint   | 0x00BE   |
| Data Size    | 13 bytes |
| Instructions | 3        |

```
      00 01 02 03 04 05 06 07  08 09 0A 0B 0C 0D 0E 0F
      -- -- -- -- -- -- -- --  -- -- -- -- -- -- -- --
00B0:                                            47 00                G.
00C0: 0D 80 0E 80 0F 80 10 80  47 01 00                 ........G..     
```

#### Opcodes

```
  0: 0x00BE [0x47] UPDATE_PLAYER_POS(-654.101*, 134.073*, -16.000*, yaw=225.0°*)
  1: 0x00C8 [0x47] WAIT_PLAYER_POS_UPDATE
  2: 0x00CA [0x00] END_REQSTACK()
```

### Event 65535.4

#### Metadata

| Field        | Value    |
|--------------|----------|
| Entrypoint   | 0x00CB   |
| Data Size    | 14 bytes |
| Instructions | 4        |

```
      00 01 02 03 04 05 06 07  08 09 0A 0B 0C 0D 0E 0F
      -- -- -- -- -- -- -- --  -- -- -- -- -- -- -- --
00C0:                                   32 11 80 1F 00             2....
00D0: 12 80 13 80 14 80 1F 01  00                       .........       
```

#### Opcodes

```
  0: 0x00CB [0x32] ExtData[1]->MainSpeed = 13* * 0.1
  1: 0x00CE [0x1F] MOVE_ENTITY: EventEntity moves to X=-657.593*, Z=137.555*, Y=-15.360*
  2: 0x00D6 [0x1F] MOVE_ENTITY: Update entity position (mode=1)
  3: 0x00D8 [0x00] END_REQSTACK()
```

### Event 65535.5

#### Metadata

| Field        | Value    |
|--------------|----------|
| Entrypoint   | 0x00D9   |
| Data Size    | 13 bytes |
| Instructions | 3        |

```
      00 01 02 03 04 05 06 07  08 09 0A 0B 0C 0D 0E 0F
      -- -- -- -- -- -- -- --  -- -- -- -- -- -- -- --
00D0:                             47 00 15 80 16 80 17           G......
00E0: 80 18 80 47 01 00                                 ...G..          
```

#### Opcodes

```
  0: 0x00D9 [0x47] UPDATE_PLAYER_POS(-253.932*, 174.172*, -8.001*, yaw=43.6°*)
  1: 0x00E3 [0x47] WAIT_PLAYER_POS_UPDATE
  2: 0x00E5 [0x00] END_REQSTACK()
```

### Event 65535.6

#### Metadata

| Field        | Value    |
|--------------|----------|
| Entrypoint   | 0x00E6   |
| Data Size    | 14 bytes |
| Instructions | 4        |

```
      00 01 02 03 04 05 06 07  08 09 0A 0B 0C 0D 0E 0F
      -- -- -- -- -- -- -- --  -- -- -- -- -- -- -- --
00E0:                   32 11  80 1F 00 19 80 1A 80 1B        2.........
00F0: 80 1F 01 00                                       ....            
```

#### Opcodes

```
  0: 0x00E6 [0x32] ExtData[1]->MainSpeed = 13* * 0.1
  1: 0x00E9 [0x1F] MOVE_ENTITY: EventEntity moves to X=-250.440*, Z=170.454*, Y=-7.365*
  2: 0x00F1 [0x1F] MOVE_ENTITY: Update entity position (mode=1)
  3: 0x00F3 [0x00] END_REQSTACK()
```

### Event 65535.7

#### Metadata

| Field        | Value    |
|--------------|----------|
| Entrypoint   | 0x00F4   |
| Data Size    | 13 bytes |
| Instructions | 3        |

```
      00 01 02 03 04 05 06 07  08 09 0A 0B 0C 0D 0E 0F
      -- -- -- -- -- -- -- --  -- -- -- -- -- -- -- --
00F0:             47 00 1C 80  1D 80 1E 80 1F 80 47 01      G.........G.
0100: 00                                                .               
```

#### Opcodes

```
  0: 0x00F4 [0x47] UPDATE_PLAYER_POS(-265.922*, -105.677*, -24.000*, yaw=314.2°*)
  1: 0x00FE [0x47] WAIT_PLAYER_POS_UPDATE
  2: 0x0100 [0x00] END_REQSTACK()
```

### Event 65535.8

#### Metadata

| Field        | Value    |
|--------------|----------|
| Entrypoint   | 0x0101   |
| Data Size    | 14 bytes |
| Instructions | 4        |

```
      00 01 02 03 04 05 06 07  08 09 0A 0B 0C 0D 0E 0F
      -- -- -- -- -- -- -- --  -- -- -- -- -- -- -- --
0100:    32 11 80 1F 00 20 80  21 80 22 80 1F 01 00      2.... .!.".... 
```

#### Opcodes

```
  0: 0x0101 [0x32] ExtData[1]->MainSpeed = 13* * 0.1
  1: 0x0104 [0x1F] MOVE_ENTITY: EventEntity moves to X=-262.614*, Z=-102.290*, Y=-23.378*
  2: 0x010C [0x1F] MOVE_ENTITY: Update entity position (mode=1)
  3: 0x010E [0x00] END_REQSTACK()
```

### Event 65535.9

#### Metadata

| Field        | Value    |
|--------------|----------|
| Entrypoint   | 0x010F   |
| Data Size    | 13 bytes |
| Instructions | 3        |

```
      00 01 02 03 04 05 06 07  08 09 0A 0B 0C 0D 0E 0F
      -- -- -- -- -- -- -- --  -- -- -- -- -- -- -- --
0100:                                               47                 G
0110: 00 23 80 24 80 25 80 26  80 47 01 00              .#.$.%.&.G..    
```

#### Opcodes

```
  0: 0x010F [0x47] UPDATE_PLAYER_POS(-93.924*, 26.227*, -8.000*, yaw=132.5°*)
  1: 0x0119 [0x47] WAIT_PLAYER_POS_UPDATE
  2: 0x011B [0x00] END_REQSTACK()
```

### Event 65535.10

#### Metadata

| Field        | Value    |
|--------------|----------|
| Entrypoint   | 0x011C   |
| Data Size    | 14 bytes |
| Instructions | 4        |

```
      00 01 02 03 04 05 06 07  08 09 0A 0B 0C 0D 0E 0F
      -- -- -- -- -- -- -- --  -- -- -- -- -- -- -- --
0110:                                      32 11 80 1F              2...
0120: 00 27 80 28 80 29 80 1F  01 00                    .'.(.)....      
```

#### Opcodes

```
  0: 0x011C [0x32] ExtData[1]->MainSpeed = 13* * 0.1
  1: 0x011F [0x1F] MOVE_ENTITY: EventEntity moves to X=-97.652*, Z=22.502*, Y=-7.364*
  2: 0x0127 [0x1F] MOVE_ENTITY: Update entity position (mode=1)
  3: 0x0129 [0x00] END_REQSTACK()
```

### Event 65535.11

#### Metadata

| Field        | Value    |
|--------------|----------|
| Entrypoint   | 0x012A   |
| Data Size    | 13 bytes |
| Instructions | 3        |

```
      00 01 02 03 04 05 06 07  08 09 0A 0B 0C 0D 0E 0F
      -- -- -- -- -- -- -- --  -- -- -- -- -- -- -- --
0120:                                47 00 2A 80 2B 80            G.*.+.
0130: 02 80 2C 80 47 01 00                              ..,.G..         
```

#### Opcodes

```
  0: 0x012A [0x47] UPDATE_PLAYER_POS(94.033*, 173.799*, 0.000*, yaw=135.0°*)
  1: 0x0134 [0x47] WAIT_PLAYER_POS_UPDATE
  2: 0x0136 [0x00] END_REQSTACK()
```

### Event 65535.12

#### Metadata

| Field        | Value    |
|--------------|----------|
| Entrypoint   | 0x0137   |
| Data Size    | 14 bytes |
| Instructions | 4        |

```
      00 01 02 03 04 05 06 07  08 09 0A 0B 0C 0D 0E 0F
      -- -- -- -- -- -- -- --  -- -- -- -- -- -- -- --
0130:                      32  11 80 1F 00 2D 80 2E 80         2....-...
0140: 2F 80 1F 01 00                                    /....           
```

#### Opcodes

```
  0: 0x0137 [0x32] ExtData[1]->MainSpeed = 13* * 0.1
  1: 0x013A [0x1F] MOVE_ENTITY: EventEntity moves to X=90.735*, Z=170.651*, Y=0.548*
  2: 0x0142 [0x1F] MOVE_ENTITY: Update entity position (mode=1)
  3: 0x0144 [0x00] END_REQSTACK()
```

### Event 65535.13

#### Metadata

| Field        | Value    |
|--------------|----------|
| Entrypoint   | 0x0145   |
| Data Size    | 13 bytes |
| Instructions | 3        |

```
      00 01 02 03 04 05 06 07  08 09 0A 0B 0C 0D 0E 0F
      -- -- -- -- -- -- -- --  -- -- -- -- -- -- -- --
0140:                47 00 30  80 31 80 32 80 33 80 47       G.0.1.2.3.G
0150: 01 00                                             ..              
```

#### Opcodes

```
  0: 0x0145 [0x47] UPDATE_PLAYER_POS(173.827*, -414.125*, 7.999*, yaw=223.9°*)
  1: 0x014F [0x47] WAIT_PLAYER_POS_UPDATE
  2: 0x0151 [0x00] END_REQSTACK()
```

### Event 65535.14

#### Metadata

| Field        | Value    |
|--------------|----------|
| Entrypoint   | 0x0152   |
| Data Size    | 14 bytes |
| Instructions | 4        |

```
      00 01 02 03 04 05 06 07  08 09 0A 0B 0C 0D 0E 0F
      -- -- -- -- -- -- -- --  -- -- -- -- -- -- -- --
0150:       32 11 80 1F 00 34  80 35 80 36 80 1F 01 00    2....4.5.6....
```

#### Opcodes

```
  0: 0x0152 [0x32] ExtData[1]->MainSpeed = 13* * 0.1
  1: 0x0155 [0x1F] MOVE_ENTITY: EventEntity moves to X=170.713*, Z=-410.576*, Y=8.563*
  2: 0x015D [0x1F] MOVE_ENTITY: Update entity position (mode=1)
  3: 0x015F [0x00] END_REQSTACK()
```

### Event 65535.15

#### Metadata

| Field        | Value    |
|--------------|----------|
| Entrypoint   | 0x0160   |
| Data Size    | 13 bytes |
| Instructions | 3        |

```
      00 01 02 03 04 05 06 07  08 09 0A 0B 0C 0D 0E 0F
      -- -- -- -- -- -- -- --  -- -- -- -- -- -- -- --
0160: 47 00 37 80 38 80 1E 80  39 80 47 01 00           G.7.8...9.G..   
```

#### Opcodes

```
  0: 0x0160 [0x47] UPDATE_PLAYER_POS(-425.936*, 373.845*, -24.000*, yaw=135.5°*)
  1: 0x016A [0x47] WAIT_PLAYER_POS_UPDATE
  2: 0x016C [0x00] END_REQSTACK()
```

### Event 65535.16

#### Metadata

| Field        | Value    |
|--------------|----------|
| Entrypoint   | 0x016D   |
| Data Size    | 14 bytes |
| Instructions | 4        |

```
      00 01 02 03 04 05 06 07  08 09 0A 0B 0C 0D 0E 0F
      -- -- -- -- -- -- -- --  -- -- -- -- -- -- -- --
0160:                                         32 11 80               2..
0170: 1F 00 3A 80 3B 80 3C 80  1F 01 00                 ..:.;.<....     
```

#### Opcodes

```
  0: 0x016D [0x32] ExtData[1]->MainSpeed = 13* * 0.1
  1: 0x0170 [0x1F] MOVE_ENTITY: EventEntity moves to X=-429.449*, Z=370.306*, Y=-23.368*
  2: 0x0178 [0x1F] MOVE_ENTITY: Update entity position (mode=1)
  3: 0x017A [0x00] END_REQSTACK()
```

### Event 103

#### Metadata

| Field        | Value     |
|--------------|-----------|
| Entrypoint   | 0x017B    |
| Data Size    | 425 bytes |
| Instructions | 52        |

```
      00 01 02 03 04 05 06 07  08 09 0A 0B 0C 0D 0E 0F
      -- -- -- -- -- -- -- --  -- -- -- -- -- -- -- --
0170:                                   42 45 01 80 F8             BE...
0180: FF FF 7F F8 FF FF 7F 66  64 6F 31 02 80 55 01 80  .......fdo1..U..
0190: F8 FF FF 7F F8 FF FF 7F  66 64 6F 31 46 01 38 3D  ........fdo1F.8=
01A0: 80 27 05 47 43 05 01 04  92 01 59 43 05 01 94 01  .'.GC.....YC....
01B0: 59 43 05 01 4E 00 59 43  05 01 80 59 43 05 01 BA  YC..N.YC...YC...
01C0: F0 FF FF 7F 3E 80 3F 80  40 80 41 80 80 F0 FF FF  ....>.?.@.A.....
01D0: 7F 4A F0 FF FF 7F 59 43  05 01 1C 42 80 45 43 80  .J....YC...B.EC.
01E0: F8 FF FF 7F F8 FF FF 7F  73 31 33 33 02 80 1C 44  ........s133...D
01F0: 80 45 01 80 F8 FF FF 7F  F8 FF FF 7F 66 64 69 31  .E..........fdi1
0200: 02 80 55 01 80 F8 FF FF  7F F8 FF FF 7F 66 64 69  ..U..........fdi
0210: 31 6E 59 43 05 01 45 80  99 59 43 05 01 2B 59 43  1nYC..E..YC..+YC
0220: 05 01 46 80 23 52 43 80  F8 FF FF 7F F8 FF FF 7F  ..F.#RC.........
0230: 73 31 33 33 45 43 80 F8  FF FF 7F F8 FF FF 7F 73  s133EC.........s
0240: 31 33 34 02 80 4A 59 43  05 01 F0 FF FF 7F 1C 42  134..JYC.......B
0250: 80 2B 59 43 05 01 47 80  23 52 43 80 F8 FF FF 7F  .+YC..G.#RC.....
0260: F8 FF FF 7F 73 31 33 34  45 43 80 F8 FF FF 7F F8  ....s134EC......
0270: FF FF 7F 73 31 33 35 02  80 6E 59 43 05 01 45 80  ...s135..nYC..E.
0280: 99 59 43 05 01 03 02 10  48 80 2B 59 43 05 01 49  .YC.....H.+YC..I
0290: 80 23 6E 59 43 05 01 4A  80 99 59 43 05 01 2B 59  .#nYC..J..YC..+Y
02A0: 43 05 01 4B 80 23 52 43  80 F8 FF FF 7F F8 FF FF  C..K.#RC........
02B0: 7F 73 31 33 35 45 43 80  F8 FF FF 7F F8 FF FF 7F  .s135EC.........
02C0: 73 31 33 36 02 80 66 4C  80 59 43 05 01 59 43 05  s136..fL.YC..YC.
02D0: 01 74 6C 6B 30 2B 59 43  05 01 4D 80 23 45 01 80  .tlk0+YC..M.#E..
02E0: F8 FF FF 7F F8 FF FF 7F  66 64 6F 31 02 80 55 01  ........fdo1..U.
02F0: 80 F8 FF FF 7F F8 FF FF  7F 66 64 6F 31 52 43 80  .........fdo1RC.
0300: F8 FF FF 7F F8 FF FF 7F  73 31 33 36 46 00 1C 05  ........s136F...
0310: 80 45 01 80 F8 FF FF 7F  F8 FF FF 7F 66 64 69 31  .E..........fdi1
0320: 02 80 21 00                                       ..!.            
```

#### Opcodes

```
  0: 0x017B [0x42] SET_CLI_EVENT_CANCEL_DATA()
  1: 0x017C [0x45] LOAD_SCHEDULED_TASK: Load scheduler "fdo1" with entities [EventEntity, EventEntity], work=[200*, 0*]
  2: 0x018D [0x55] WAIT_LOAD_SCHEDULER: Wait for scheduler "fdo1" with entities [EventEntity, EventEntity], work=200*
  3: 0x019C [0x46] CAMERA_CONTROL: Disable user control
  4: 0x019E [0x38] SET_CLIENT_EVENT_MODE(mode=27*)
  5: 0x01A1 [0x27] REQ_SET(priority=0x05, entity_id=Crypt Door (ID: 17122119/0x01054347), tag_num=0x04)
  6: 0x01A8 [0x92] Thorben (ID: 17122137/0x01054359)->Render.Flags3 ^= 0x01
  7: 0x01AE [0x94] Thorben (ID: 17122137/0x01054359)->Render.Flags3 ^= 0x01
  8: 0x01B4 [0x4E] SET_ENTITY_HIDE_FLAG: Show Thorben (ID: 17122137/0x01054359)
  9: 0x01BA [0x80] LOAD_WAIT(entity=Thorben (ID: 17122137/0x01054359))
 10: 0x01BF [0xBA] SET_ENTITY_POSITION(entity_id=LocalPlayer, pos_x=176.797*, pos_z=-421.454*, pos_y=8.089*, direction=226.0°*)
 11: 0x01CC [0x80] LOAD_WAIT(entity=LocalPlayer)
 12: 0x01D1 [0x4A] LocalPlayer looks at Thorben (ID: 17122137/0x01054359)
 13: 0x01DA [0x1C] WAIT(30* ticks)
 14: 0x01DD [0x45] LOAD_SCHEDULED_TASK: Load scheduler "s133" with entities [EventEntity, EventEntity], work=[289*, 0*]
 15: 0x01EE [0x1C] WAIT(15* ticks)
 16: 0x01F1 [0x45] LOAD_SCHEDULED_TASK: Load scheduler "fdi1" with entities [EventEntity, EventEntity], work=[200*, 0*]
 17: 0x0202 [0x55] WAIT_LOAD_SCHEDULER: Wait for scheduler "fdi1" with entities [EventEntity, EventEntity], work=200*
 18: 0x0211 [0x6E] Thorben (ID: 17122137/0x01054359) uses emote 19*
 19: 0x0218 [0x99] Wait for Thorben (ID: 17122137/0x01054359) animation to complete
 20: 0x021D [0x2B] Thorben (ID: 17122137/0x01054359) [7754*]:
    → "What am I gonna do...?"
 21: 0x0224 [0x23] WAIT_FOR_DIALOG_INTERACTION
 22: 0x0225 [0x52] END_LOAD_SCHEDULER: End scheduler "s133" with entities [EventEntity, EventEntity], work=289*
 23: 0x0234 [0x45] LOAD_SCHEDULED_TASK: Load scheduler "s134" with entities [EventEntity, EventEntity], work=[289*, 0*]
 24: 0x0245 [0x4A] Thorben (ID: 17122137/0x01054359) looks at LocalPlayer
 25: 0x024E [0x1C] WAIT(30* ticks)
 26: 0x0251 [0x2B] Thorben (ID: 17122137/0x01054359) [7755*]:
    → "Hey! Hey, you there! You gotta help me out."
 27: 0x0258 [0x23] WAIT_FOR_DIALOG_INTERACTION
 28: 0x0259 [0x52] END_LOAD_SCHEDULER: End scheduler "s134" with entities [EventEntity, EventEntity], work=289*
 29: 0x0268 [0x45] LOAD_SCHEDULED_TASK: Load scheduler "s135" with entities [EventEntity, EventEntity], work=[289*, 0*]
 30: 0x0279 [0x6E] Thorben (ID: 17122137/0x01054359) uses emote 19*
 31: 0x0280 [0x99] Wait for Thorben (ID: 17122137/0x01054359) animation to complete
 32: 0x0285 [0x03] Work_Zone[2] = 1881*
 33: 0x028A [0x2B] Thorben (ID: 17122137/0x01054359) [7756*]:
    → "I must've dropped my squad's $3 while I was patrolling the necropolis earlier."
 34: 0x0291 [0x23] WAIT_FOR_DIALOG_INTERACTION
 35: 0x0292 [0x6E] Thorben (ID: 17122137/0x01054359) uses emote 6*
 36: 0x0299 [0x99] Wait for Thorben (ID: 17122137/0x01054359) animation to complete
 37: 0x029E [0x2B] Thorben (ID: 17122137/0x01054359) [7757*]:
    → "It's the only copy we have. If Captain Red Axe finds out I lost it, he'll empty one of the crypts down there to make room for me..."
 38: 0x02A5 [0x23] WAIT_FOR_DIALOG_INTERACTION
 39: 0x02A6 [0x52] END_LOAD_SCHEDULER: End scheduler "s135" with entities [EventEntity, EventEntity], work=289*
 40: 0x02B5 [0x45] LOAD_SCHEDULED_TASK: Load scheduler "s136" with entities [EventEntity, EventEntity], work=[289*, 0*]
 41: 0x02C6 [0x66] LOAD_EXT_SCHEDULER_MAIN: Load scheduler "tlk0" with entities [Thorben (ID: 17122137/0x01054359), Thorben (ID: 17122137/0x01054359)], work=9*
 42: 0x02D5 [0x2B] Thorben (ID: 17122137/0x01054359) [7758*]:
    → "Leaving my post to search for the map will only make things worse. What do you say? Can you take a quick look around?"
 43: 0x02DC [0x23] WAIT_FOR_DIALOG_INTERACTION
 44: 0x02DD [0x45] LOAD_SCHEDULED_TASK: Load scheduler "fdo1" with entities [EventEntity, EventEntity], work=[200*, 0*]
 45: 0x02EE [0x55] WAIT_LOAD_SCHEDULER: Wait for scheduler "fdo1" with entities [EventEntity, EventEntity], work=200*
 46: 0x02FD [0x52] END_LOAD_SCHEDULER: End scheduler "s136" with entities [EventEntity, EventEntity], work=289*
 47: 0x030C [0x46] CAMERA_CONTROL: Restore default settings
 48: 0x030E [0x1C] WAIT(60* ticks)
 49: 0x0311 [0x45] LOAD_SCHEDULED_TASK: Load scheduler "fdi1" with entities [EventEntity, EventEntity], work=[200*, 0*]
 50: 0x0322 [0x21] END_EVENT
 51: 0x0323 [0x00] END_REQSTACK()
```

### Event 107

#### Metadata

| Field        | Value      |
|--------------|------------|
| Entrypoint   | 0x0324     |
| Data Size    | 1047 bytes |
| Instructions | 120        |

```
      00 01 02 03 04 05 06 07  08 09 0A 0B 0C 0D 0E 0F
      -- -- -- -- -- -- -- --  -- -- -- -- -- -- -- --
0320:             42 5D 02 80  4E 80 45 01 80 F8 FF FF      B]..N.E.....
0330: 7F F8 FF FF 7F 66 64 6F  31 02 80 55 01 80 F8 FF  .....fdo1..U....
0340: FF 7F F8 FF FF 7F 66 64  6F 31 46 01 38 3D 80 27  ......fdo1F.8=.'
0350: 05 47 43 05 01 04 92 01  59 43 05 01 92 01 5A 43  .GC.....YC....ZC
0360: 05 01 94 01 59 43 05 01  4E 00 59 43 05 01 80 59  ....YC..N.YC...Y
0370: 43 05 01 BA F0 FF FF 7F  3E 80 3F 80 40 80 41 80  C.......>.?.@.A.
0380: 80 F0 FF FF 7F 4A F0 FF  FF 7F 59 43 05 01 4A 59  .....J....YC..JY
0390: 43 05 01 F0 FF FF 7F 1C  42 80 5C 00 4F 80 5C 01  C.......B.\.O.\.
03A0: 4F 80 9A 45 43 80 F8 FF  FF 7F F8 FF FF 7F 73 31  O..EC.........s1
03B0: 33 37 02 80 1C 44 80 45  01 80 F8 FF FF 7F F8 FF  37...D.E........
03C0: FF 7F 66 64 69 31 02 80  55 01 80 F8 FF FF 7F F8  ..fdi1..U.......
03D0: FF FF 7F 66 64 69 31 66  4C 80 59 43 05 01 59 43  ...fdi1fL.YC..YC
03E0: 05 01 74 6C 6B 30 2B 59  43 05 01 50 80 23 66 4C  ..tlk0+YC..P.#fL
03F0: 80 59 43 05 01 59 43 05  01 74 6C 6B 31 52 43 80  .YC..YC..tlk1RC.
0400: F8 FF FF 7F F8 FF FF 7F  73 31 33 37 45 43 80 F8  ........s137EC..
0410: FF FF 7F F8 FF FF 7F 73  31 33 38 02 80 2B 59 43  .......s138..+YC
0420: 05 01 51 80 23 2F 00 5A  43 05 01 4E 00 5A 43 05  ..Q.#/.ZC..N.ZC.
0430: 01 80 5A 43 05 01 27 05  5A 43 05 01 02 1C 42 80  ..ZC..'.ZC....B.
0440: 52 43 80 F8 FF FF 7F F8  FF FF 7F 73 31 33 38 45  RC.........s138E
0450: 43 80 F8 FF FF 7F F8 FF  FF 7F 73 31 33 39 02 80  C.........s139..
0460: 4A 59 43 05 01 5A 43 05  01 03 02 10 48 80 2B 5A  JYC..ZC.....H.+Z
0470: 43 05 01 52 80 23 2B 59  43 05 01 53 80 23 2A 05  C..R.#+YC..S.#*.
0480: 5A 43 05 01 52 43 80 F8  FF FF 7F F8 FF FF 7F 73  ZC..RC.........s
0490: 31 33 39 45 43 80 F8 FF  FF 7F F8 FF FF 7F 73 31  139EC.........s1
04A0: 34 30 02 80 66 4C 80 5A  43 05 01 5A 43 05 01 74  40..fL.ZC..ZC..t
04B0: 6C 6B 30 2B 5A 43 05 01  54 80 23 66 4C 80 5A 43  lk0+ZC..T.#fL.ZC
04C0: 05 01 5A 43 05 01 74 6C  6B 31 66 4C 80 59 43 05  ..ZC..tlk1fL.YC.
04D0: 01 59 43 05 01 74 6C 6B  30 2B 59 43 05 01 55 80  .YC..tlk0+YC..U.
04E0: 23 66 4C 80 59 43 05 01  59 43 05 01 74 6C 6B 31  #fL.YC..YC..tlk1
04F0: 52 43 80 F8 FF FF 7F F8  FF FF 7F 73 31 34 30 45  RC.........s140E
0500: 43 80 F8 FF FF 7F F8 FF  FF 7F 73 31 34 31 02 80  C.........s141..
0510: 66 4C 80 5A 43 05 01 5A  43 05 01 74 6C 6B 30 2B  fL.ZC..ZC..tlk0+
0520: 5A 43 05 01 56 80 23 66  4C 80 5A 43 05 01 5A 43  ZC..V.#fL.ZC..ZC
0530: 05 01 74 6C 6B 31 4A 59  43 05 01 F0 FF FF 7F 1C  ..tlk1JYC.......
0540: 42 80 2B 59 43 05 01 57  80 23 52 43 80 F8 FF FF  B.+YC..W.#RC....
0550: 7F F8 FF FF 7F 73 31 34  31 45 43 80 F8 FF FF 7F  .....s141EC.....
0560: F8 FF FF 7F 73 31 34 32  02 80 48 58 80 1C 04 80  ....s142..HX....
0570: 52 43 80 F8 FF FF 7F F8  FF FF 7F 73 31 34 32 02  RC.........s142.
0580: 87 7F 03 80 80 9B 05 45  43 80 F8 FF FF 7F F8 FF  .......EC.......
0590: FF 7F 73 31 34 33 02 80  01 5F 06 02 87 7F 59 80  ..s143..._....Y.
05A0: 80 B7 05 45 43 80 F8 FF  FF 7F F8 FF FF 7F 73 31  ...EC.........s1
05B0: 34 33 02 80 01 5F 06 02  87 7F 5A 80 80 D3 05 45  43..._....Z....E
05C0: 43 80 F8 FF FF 7F F8 FF  FF 7F 73 31 34 38 02 80  C.........s148..
05D0: 01 5F 06 02 87 7F 5B 80  80 EF 05 45 43 80 F8 FF  ._....[....EC...
05E0: FF 7F F8 FF FF 7F 73 31  34 38 02 80 01 5F 06 02  ......s148..._..
05F0: 87 7F 5C 80 80 0B 06 45  43 80 F8 FF FF 7F F8 FF  ..\....EC.......
0600: FF 7F 73 31 34 36 02 80  01 5F 06 02 87 7F 4A 80  ..s146..._....J.
0610: 80 27 06 45 43 80 F8 FF  FF 7F F8 FF FF 7F 73 31  .'.EC.........s1
0620: 34 36 02 80 01 5F 06 02  87 7F 5D 80 80 43 06 45  46..._....]..C.E
0630: 43 80 F8 FF FF 7F F8 FF  FF 7F 73 31 34 35 02 80  C.........s145..
0640: 01 5F 06 02 87 7F 5E 80  80 5F 06 45 43 80 F8 FF  ._....^.._.EC...
0650: FF 7F F8 FF FF 7F 73 31  34 37 02 80 01 5F 06 48  ......s147..._.H
0660: 5F 80 1C 4E 80 52 43 80  F8 FF FF 7F F8 FF FF 7F  _..N.RC.........
0670: 73 31 34 33 52 43 80 F8  FF FF 7F F8 FF FF 7F 73  s143RC.........s
0680: 31 34 35 52 43 80 F8 FF  FF 7F F8 FF FF 7F 73 31  145RC.........s1
0690: 34 36 52 43 80 F8 FF FF  7F F8 FF FF 7F 73 31 34  46RC.........s14
06A0: 37 52 43 80 F8 FF FF 7F  F8 FF FF 7F 73 31 34 38  7RC.........s148
06B0: 45 43 80 F8 FF FF 7F F8  FF FF 7F 73 31 34 34 02  EC.........s144.
06C0: 80 6E 59 43 05 01 45 80  99 59 43 05 01 2B 59 43  .nYC..E..YC..+YC
06D0: 05 01 60 80 23 5D 02 80  4E 80 45 01 80 F8 FF FF  ..`.#]..N.E.....
06E0: 7F F8 FF FF 7F 66 64 6F  31 02 80 55 01 80 F8 FF  .....fdo1..U....
06F0: FF 7F F8 FF FF 7F 66 64  6F 31 52 43 80 F8 FF FF  ......fdo1RC....
0700: 7F F8 FF FF 7F 73 31 34  34 45 06 80 F0 FF FF 7F  .....s144E......
0710: F0 FF FF 7F 71 73 74 63  02 80 5C 00 61 80 5C 01  ....qstc..\.a.\.
0720: 61 80 9A 46 00 1C 05 80  45 01 80 F8 FF FF 7F F8  a..F....E.......
0730: FF FF 7F 66 64 69 31 02  80 21 00                 ...fdi1..!.     
```

#### Opcodes

```
  0: 0x0324 [0x42] SET_CLI_EVENT_CANCEL_DATA()
  1: 0x0325 [0x5D] SET_MUSIC_VOLUME(volume=0*, fade_time=120*)
  2: 0x032A [0x45] LOAD_SCHEDULED_TASK: Load scheduler "fdo1" with entities [EventEntity, EventEntity], work=[200*, 0*]
  3: 0x033B [0x55] WAIT_LOAD_SCHEDULER: Wait for scheduler "fdo1" with entities [EventEntity, EventEntity], work=200*
  4: 0x034A [0x46] CAMERA_CONTROL: Disable user control
  5: 0x034C [0x38] SET_CLIENT_EVENT_MODE(mode=27*)
  6: 0x034F [0x27] REQ_SET(priority=0x05, entity_id=Crypt Door (ID: 17122119/0x01054347), tag_num=0x04)
  7: 0x0356 [0x92] Thorben (ID: 17122137/0x01054359)->Render.Flags3 ^= 0x01
  8: 0x035C [0x92] Bernhard (ID: 17122138/0x0105435A)->Render.Flags3 ^= 0x01
  9: 0x0362 [0x94] Thorben (ID: 17122137/0x01054359)->Render.Flags3 ^= 0x01
 10: 0x0368 [0x4E] SET_ENTITY_HIDE_FLAG: Show Thorben (ID: 17122137/0x01054359)
 11: 0x036E [0x80] LOAD_WAIT(entity=Thorben (ID: 17122137/0x01054359))
 12: 0x0373 [0xBA] SET_ENTITY_POSITION(entity_id=LocalPlayer, pos_x=176.797*, pos_z=-421.454*, pos_y=8.089*, direction=226.0°*)
 13: 0x0380 [0x80] LOAD_WAIT(entity=LocalPlayer)
 14: 0x0385 [0x4A] LocalPlayer looks at Thorben (ID: 17122137/0x01054359)
 15: 0x038E [0x4A] Thorben (ID: 17122137/0x01054359) looks at LocalPlayer
 16: 0x0397 [0x1C] WAIT(30* ticks)
 17: 0x039A [0x5C] MUSIC_CONTROL: Set Idle (Day) music to song 163*
 18: 0x039E [0x5C] MUSIC_CONTROL: Set Idle (Night) music to song 163*
 19: 0x03A2 [0x9A] WAIT_MUSIC_SERVER()
 20: 0x03A3 [0x45] LOAD_SCHEDULED_TASK: Load scheduler "s137" with entities [EventEntity, EventEntity], work=[289*, 0*]
 21: 0x03B4 [0x1C] WAIT(15* ticks)
 22: 0x03B7 [0x45] LOAD_SCHEDULED_TASK: Load scheduler "fdi1" with entities [EventEntity, EventEntity], work=[200*, 0*]
 23: 0x03C8 [0x55] WAIT_LOAD_SCHEDULER: Wait for scheduler "fdi1" with entities [EventEntity, EventEntity], work=200*
 24: 0x03D7 [0x66] LOAD_EXT_SCHEDULER_MAIN: Load scheduler "tlk0" with entities [Thorben (ID: 17122137/0x01054359), Thorben (ID: 17122137/0x01054359)], work=9*
 25: 0x03E6 [0x2B] Thorben (ID: 17122137/0x01054359) [7762*]:
    → "You found all the pieces!? You've saved my skin!"
 26: 0x03ED [0x23] WAIT_FOR_DIALOG_INTERACTION
 27: 0x03EE [0x66] LOAD_EXT_SCHEDULER_MAIN: Load scheduler "tlk1" with entities [Thorben (ID: 17122137/0x01054359), Thorben (ID: 17122137/0x01054359)], work=9*
 28: 0x03FD [0x52] END_LOAD_SCHEDULER: End scheduler "s137" with entities [EventEntity, EventEntity], work=289*
 29: 0x040C [0x45] LOAD_SCHEDULED_TASK: Load scheduler "s138" with entities [EventEntity, EventEntity], work=[289*, 0*]
 30: 0x041D [0x2B] Thorben (ID: 17122137/0x01054359) [7763*]:
    → "Good Goddess, look at the state of this thing. Well, it should be okay once I stick it back together."
 31: 0x0424 [0x23] WAIT_FOR_DIALOG_INTERACTION
 32: 0x0425 [0x2F] Bernhard (ID: 17122138/0x0105435A)->Render.Flags0 &= ~0x80000 // Bit 19
 33: 0x042B [0x4E] SET_ENTITY_HIDE_FLAG: Show Bernhard (ID: 17122138/0x0105435A)
 34: 0x0431 [0x80] LOAD_WAIT(entity=Bernhard (ID: 17122138/0x0105435A))
 35: 0x0436 [0x27] REQ_SET(priority=0x05, entity_id=Bernhard (ID: 17122138/0x0105435A), tag_num=0x02)
 36: 0x043D [0x1C] WAIT(30* ticks)
 37: 0x0440 [0x52] END_LOAD_SCHEDULER: End scheduler "s138" with entities [EventEntity, EventEntity], work=289*
 38: 0x044F [0x45] LOAD_SCHEDULED_TASK: Load scheduler "s139" with entities [EventEntity, EventEntity], work=[289*, 0*]
 39: 0x0460 [0x4A] Thorben (ID: 17122137/0x01054359) looks at Bernhard (ID: 17122138/0x0105435A)
 40: 0x0469 [0x03] Work_Zone[2] = 1881*
 41: 0x046E [0x2B] Bernhard (ID: 17122138/0x0105435A) [7764*]:
    → "Good news, Thorben! Headquarters sent us a new $3!"
 42: 0x0475 [0x23] WAIT_FOR_DIALOG_INTERACTION
 43: 0x0476 [0x2B] Thorben (ID: 17122137/0x01054359) [7765*]:
    → "They what!?"
 44: 0x047D [0x23] WAIT_FOR_DIALOG_INTERACTION
 45: 0x047E [0x2A] GET_REQ_LEVEL(level=5, entity_id=Bernhard (ID: 17122138/0x0105435A))
 46: 0x0484 [0x52] END_LOAD_SCHEDULER: End scheduler "s139" with entities [EventEntity, EventEntity], work=289*
 47: 0x0493 [0x45] LOAD_SCHEDULED_TASK: Load scheduler "s140" with entities [EventEntity, EventEntity], work=[289*, 0*]
 48: 0x04A4 [0x66] LOAD_EXT_SCHEDULER_MAIN: Load scheduler "tlk0" with entities [Bernhard (ID: 17122138/0x0105435A), Bernhard (ID: 17122138/0x0105435A)], work=9*
 49: 0x04B3 [0x2B] Bernhard (ID: 17122138/0x0105435A) [7766*]:
    → "I thought you'd be happy. It was your hide on the line, after all."
 50: 0x04BA [0x23] WAIT_FOR_DIALOG_INTERACTION
 51: 0x04BB [0x66] LOAD_EXT_SCHEDULER_MAIN: Load scheduler "tlk1" with entities [Bernhard (ID: 17122138/0x0105435A), Bernhard (ID: 17122138/0x0105435A)], work=9*
 52: 0x04CA [0x66] LOAD_EXT_SCHEDULER_MAIN: Load scheduler "tlk0" with entities [Thorben (ID: 17122137/0x01054359), Thorben (ID: 17122137/0x01054359)], work=9*
 53: 0x04D9 [0x2B] Thorben (ID: 17122137/0x01054359) [7767*]:
    → "Well, we just found the old one..."
 54: 0x04E0 [0x23] WAIT_FOR_DIALOG_INTERACTION
 55: 0x04E1 [0x66] LOAD_EXT_SCHEDULER_MAIN: Load scheduler "tlk1" with entities [Thorben (ID: 17122137/0x01054359), Thorben (ID: 17122137/0x01054359)], work=9*
 56: 0x04F0 [0x52] END_LOAD_SCHEDULER: End scheduler "s140" with entities [EventEntity, EventEntity], work=289*
 57: 0x04FF [0x45] LOAD_SCHEDULED_TASK: Load scheduler "s141" with entities [EventEntity, EventEntity], work=[289*, 0*]
 58: 0x0510 [0x66] LOAD_EXT_SCHEDULER_MAIN: Load scheduler "tlk0" with entities [Bernhard (ID: 17122138/0x0105435A), Bernhard (ID: 17122138/0x0105435A)], work=9*
 59: 0x051F [0x2B] Bernhard (ID: 17122138/0x0105435A) [7768*]:
    → "Oh, that's good to hear. Maybe you should give this to your new friend, then."
 60: 0x0526 [0x23] WAIT_FOR_DIALOG_INTERACTION
 61: 0x0527 [0x66] LOAD_EXT_SCHEDULER_MAIN: Load scheduler "tlk1" with entities [Bernhard (ID: 17122138/0x0105435A), Bernhard (ID: 17122138/0x0105435A)], work=9*
 62: 0x0536 [0x4A] Thorben (ID: 17122137/0x01054359) looks at LocalPlayer
 63: 0x053F [0x1C] WAIT(30* ticks)
 64: 0x0542 [0x2B] Thorben (ID: 17122137/0x01054359) [7769*]:
    → "The new map...?"
 65: 0x0549 [0x23] WAIT_FOR_DIALOG_INTERACTION
 66: 0x054A [0x52] END_LOAD_SCHEDULER: End scheduler "s141" with entities [EventEntity, EventEntity], work=289*
 67: 0x0559 [0x45] LOAD_SCHEDULED_TASK: Load scheduler "s142" with entities [EventEntity, EventEntity], work=[289*, 0*]
 68: 0x056A [0x48] [System] [7770*]:
    → "Thorben squints at <Player>..."
 69: 0x056D [0x1C] WAIT(90* ticks)
 70: 0x0570 [0x52] END_LOAD_SCHEDULER: End scheduler "s142" with entities [EventEntity, EventEntity], work=289*
 71: 0x057F [0x02] IF !(LocalPlayer->Race == 1*) GOTO 0x059B
 72: 0x0587 [0x45] LOAD_SCHEDULED_TASK: Load scheduler "s143" with entities [EventEntity, EventEntity], work=[289*, 0*]
 73: 0x0598 [0x01] GOTO 0x065F
 74: 0x059B [0x02] IF !(LocalPlayer->Race == 2*) GOTO 0x05B7
 75: 0x05A3 [0x45] LOAD_SCHEDULED_TASK: Load scheduler "s143" with entities [EventEntity, EventEntity], work=[289*, 0*]
 76: 0x05B4 [0x01] GOTO 0x065F
 77: 0x05B7 [0x02] IF !(LocalPlayer->Race == 3*) GOTO 0x05D3
 78: 0x05BF [0x45] LOAD_SCHEDULED_TASK: Load scheduler "s148" with entities [EventEntity, EventEntity], work=[289*, 0*]
 79: 0x05D0 [0x01] GOTO 0x065F
 80: 0x05D3 [0x02] IF !(LocalPlayer->Race == 4*) GOTO 0x05EF
 81: 0x05DB [0x45] LOAD_SCHEDULED_TASK: Load scheduler "s148" with entities [EventEntity, EventEntity], work=[289*, 0*]
 82: 0x05EC [0x01] GOTO 0x065F
 83: 0x05EF [0x02] IF !(LocalPlayer->Race == 5*) GOTO 0x060B
 84: 0x05F7 [0x45] LOAD_SCHEDULED_TASK: Load scheduler "s146" with entities [EventEntity, EventEntity], work=[289*, 0*]
 85: 0x0608 [0x01] GOTO 0x065F
 86: 0x060B [0x02] IF !(LocalPlayer->Race == 6*) GOTO 0x0627
 87: 0x0613 [0x45] LOAD_SCHEDULED_TASK: Load scheduler "s146" with entities [EventEntity, EventEntity], work=[289*, 0*]
 88: 0x0624 [0x01] GOTO 0x065F
 89: 0x0627 [0x02] IF !(LocalPlayer->Race == 7*) GOTO 0x0643
 90: 0x062F [0x45] LOAD_SCHEDULED_TASK: Load scheduler "s145" with entities [EventEntity, EventEntity], work=[289*, 0*]
 91: 0x0640 [0x01] GOTO 0x065F
 92: 0x0643 [0x02] IF !(LocalPlayer->Race == 8*) GOTO 0x065F
 93: 0x064B [0x45] LOAD_SCHEDULED_TASK: Load scheduler "s147" with entities [EventEntity, EventEntity], work=[289*, 0*]
 94: 0x065C [0x01] GOTO 0x065F

SUBROUTINE_065F:
 95: 0x065F [0x48] [System] [7771*]:
    → "<Player> squints right back at Thorben."
 96: 0x0662 [0x1C] WAIT(120* ticks)
 97: 0x0665 [0x52] END_LOAD_SCHEDULER: End scheduler "s143" with entities [EventEntity, EventEntity], work=289*
 98: 0x0674 [0x52] END_LOAD_SCHEDULER: End scheduler "s145" with entities [EventEntity, EventEntity], work=289*
 99: 0x0683 [0x52] END_LOAD_SCHEDULER: End scheduler "s146" with entities [EventEntity, EventEntity], work=289*
100: 0x0692 [0x52] END_LOAD_SCHEDULER: End scheduler "s147" with entities [EventEntity, EventEntity], work=289*
101: 0x06A1 [0x52] END_LOAD_SCHEDULER: End scheduler "s148" with entities [EventEntity, EventEntity], work=289*
102: 0x06B0 [0x45] LOAD_SCHEDULED_TASK: Load scheduler "s144" with entities [EventEntity, EventEntity], work=[289*, 0*]
103: 0x06C1 [0x6E] Thorben (ID: 17122137/0x01054359) uses emote 19*
104: 0x06C8 [0x99] Wait for Thorben (ID: 17122137/0x01054359) animation to complete
105: 0x06CD [0x2B] Thorben (ID: 17122137/0x01054359) [7772*]:
    → "I guess you're right. Here, take your shiny new map..."
106: 0x06D4 [0x23] WAIT_FOR_DIALOG_INTERACTION
107: 0x06D5 [0x5D] SET_MUSIC_VOLUME(volume=0*, fade_time=120*)
108: 0x06DA [0x45] LOAD_SCHEDULED_TASK: Load scheduler "fdo1" with entities [EventEntity, EventEntity], work=[200*, 0*]
109: 0x06EB [0x55] WAIT_LOAD_SCHEDULER: Wait for scheduler "fdo1" with entities [EventEntity, EventEntity], work=200*
110: 0x06FA [0x52] END_LOAD_SCHEDULER: End scheduler "s144" with entities [EventEntity, EventEntity], work=289*
111: 0x0709 [0x45] LOAD_SCHEDULED_TASK: Load scheduler "qstc" with entities [LocalPlayer, LocalPlayer], work=[201*, 0*]
112: 0x071A [0x5C] MUSIC_CONTROL: Set Idle (Day) music to song 252*
113: 0x071E [0x5C] MUSIC_CONTROL: Set Idle (Night) music to song 252*
114: 0x0722 [0x9A] WAIT_MUSIC_SERVER()
115: 0x0723 [0x46] CAMERA_CONTROL: Restore default settings
116: 0x0725 [0x1C] WAIT(60* ticks)
117: 0x0728 [0x45] LOAD_SCHEDULED_TASK: Load scheduler "fdi1" with entities [EventEntity, EventEntity], work=[200*, 0*]
118: 0x0739 [0x21] END_EVENT
119: 0x073A [0x00] END_REQSTACK()
```

### Event 109

#### Metadata

| Field        | Value     |
|--------------|-----------|
| Entrypoint   | 0x073B    |
| Data Size    | 426 bytes |
| Instructions | 49        |

```
      00 01 02 03 04 05 06 07  08 09 0A 0B 0C 0D 0E 0F
      -- -- -- -- -- -- -- --  -- -- -- -- -- -- -- --
0730:                                   42 45 01 80 F8             BE...
0740: FF FF 7F F8 FF FF 7F 66  64 6F 31 02 80 55 01 80  .......fdo1..U..
0750: F8 FF FF 7F F8 FF FF 7F  66 64 6F 31 46 01 38 45  ........fdo1F.8E
0760: 80 92 01 4F 43 05 01 4E  00 4F 43 05 01 80 4F 43  ...OC..N.OC...OC
0770: 05 01 BA F0 FF FF 7F 62  80 63 80 64 80 65 80 80  .......b.c.d.e..
0780: F0 FF FF 7F 94 01 4F 43  05 01 4A 4F 43 05 01 F0  ......OC..JOC...
0790: FF FF 7F 4A F0 FF FF 7F  4F 43 05 01 1C 42 80 45  ...J....OC...B.E
07A0: 66 80 F8 FF FF 7F F8 FF  FF 7F 73 30 31 32 02 80  f.........s012..
07B0: 1C 44 80 45 01 80 F8 FF  FF 7F F8 FF FF 7F 66 64  .D.E..........fd
07C0: 69 31 02 80 55 01 80 F8  FF FF 7F F8 FF FF 7F 66  i1..U..........f
07D0: 64 69 31 6E 4F 43 05 01  45 80 99 4F 43 05 01 2B  di1nOC..E..OC..+
07E0: 4F 43 05 01 67 80 23 52  66 80 F8 FF FF 7F F8 FF  OC..g.#Rf.......
07F0: FF 7F 73 30 31 32 45 66  80 F8 FF FF 7F F8 FF FF  ..s012Ef........
0800: 7F 73 30 32 33 02 80 66  4C 80 4F 43 05 01 4F 43  .s023..fL.OC..OC
0810: 05 01 74 6C 6B 30 2B 4F  43 05 01 68 80 23 52 66  ..tlk0+OC..h.#Rf
0820: 80 F8 FF FF 7F F8 FF FF  7F 73 30 32 33 45 66 80  .........s023Ef.
0830: F8 FF FF 7F F8 FF FF 7F  73 30 32 34 02 80 2B 4F  ........s024..+O
0840: 43 05 01 69 80 23 2B 4F  43 05 01 6A 80 23 66 4C  C..i.#+OC..j.#fL
0850: 80 4F 43 05 01 4F 43 05  01 74 6C 6B 31 52 66 80  .OC..OC..tlk1Rf.
0860: F8 FF FF 7F F8 FF FF 7F  73 30 32 34 45 66 80 F8  ........s024Ef..
0870: FF FF 7F F8 FF FF 7F 73  30 32 39 02 80 53 4F 43  .......s029..SOC
0880: 05 01 4F 43 05 01 74 6C  6B 31 6E 4F 43 05 01 45  ..OC..tlk1nOC..E
0890: 80 99 4F 43 05 01 2B 4F  43 05 01 6B 80 23 45 01  ..OC..+OC..k.#E.
08A0: 80 F8 FF FF 7F F8 FF FF  7F 66 64 6F 31 02 80 55  .........fdo1..U
08B0: 01 80 F8 FF FF 7F F8 FF  FF 7F 66 64 6F 31 52 66  ..........fdo1Rf
08C0: 80 F8 FF FF 7F F8 FF FF  7F 73 30 32 39 46 00 1C  .........s029F..
08D0: 05 80 45 01 80 F8 FF FF  7F F8 FF FF 7F 66 64 69  ..E..........fdi
08E0: 31 02 80 21 00                                    1..!.           
```

#### Opcodes

```
  0: 0x073B [0x42] SET_CLI_EVENT_CANCEL_DATA()
  1: 0x073C [0x45] LOAD_SCHEDULED_TASK: Load scheduler "fdo1" with entities [EventEntity, EventEntity], work=[200*, 0*]
  2: 0x074D [0x55] WAIT_LOAD_SCHEDULER: Wait for scheduler "fdo1" with entities [EventEntity, EventEntity], work=200*
  3: 0x075C [0x46] CAMERA_CONTROL: Disable user control
  4: 0x075E [0x38] SET_CLIENT_EVENT_MODE(mode=19*)
  5: 0x0761 [0x92] Romualdo (ID: 17122127/0x0105434F)->Render.Flags3 ^= 0x01
  6: 0x0767 [0x4E] SET_ENTITY_HIDE_FLAG: Show Romualdo (ID: 17122127/0x0105434F)
  7: 0x076D [0x80] LOAD_WAIT(entity=Romualdo (ID: 17122127/0x0105434F))
  8: 0x0772 [0xBA] SET_ENTITY_POSITION(entity_id=LocalPlayer, pos_x=54.498*, pos_z=138.325*, pos_y=-13.856*, direction=247.9°*)
  9: 0x077F [0x80] LOAD_WAIT(entity=LocalPlayer)
 10: 0x0784 [0x94] Romualdo (ID: 17122127/0x0105434F)->Render.Flags3 ^= 0x01
 11: 0x078A [0x4A] Romualdo (ID: 17122127/0x0105434F) looks at LocalPlayer
 12: 0x0793 [0x4A] LocalPlayer looks at Romualdo (ID: 17122127/0x0105434F)
 13: 0x079C [0x1C] WAIT(30* ticks)
 14: 0x079F [0x45] LOAD_SCHEDULED_TASK: Load scheduler "s012" with entities [EventEntity, EventEntity], work=[331*, 0*]
 15: 0x07B0 [0x1C] WAIT(15* ticks)
 16: 0x07B3 [0x45] LOAD_SCHEDULED_TASK: Load scheduler "fdi1" with entities [EventEntity, EventEntity], work=[200*, 0*]
 17: 0x07C4 [0x55] WAIT_LOAD_SCHEDULER: Wait for scheduler "fdi1" with entities [EventEntity, EventEntity], work=200*
 18: 0x07D3 [0x6E] Romualdo (ID: 17122127/0x0105434F) uses emote 19*
 19: 0x07DA [0x99] Wait for Romualdo (ID: 17122127/0x0105434F) animation to complete
 20: 0x07DF [0x2B] Romualdo (ID: 17122127/0x0105434F) [7775*]:
    → "<Sigh>... I missed my target with the cannon again. My squad is going to stuff me in there and fire me at the beastmen if I don't get my concentration back."
 21: 0x07E6 [0x23] WAIT_FOR_DIALOG_INTERACTION
 22: 0x07E7 [0x52] END_LOAD_SCHEDULER: End scheduler "s012" with entities [EventEntity, EventEntity], work=331*
 23: 0x07F6 [0x45] LOAD_SCHEDULED_TASK: Load scheduler "s023" with entities [EventEntity, EventEntity], work=[331*, 0*]
 24: 0x0807 [0x66] LOAD_EXT_SCHEDULER_MAIN: Load scheduler "tlk0" with entities [Romualdo (ID: 17122127/0x0105434F), Romualdo (ID: 17122127/0x0105434F)], work=9*
 25: 0x0816 [0x2B] Romualdo (ID: 17122127/0x0105434F) [7776*]:
    → "I know this sounds crazy, but I heard the voice of my dead father the last time I was in Grauberg..."
 26: 0x081D [0x23] WAIT_FOR_DIALOG_INTERACTION
 27: 0x081E [0x52] END_LOAD_SCHEDULER: End scheduler "s023" with entities [EventEntity, EventEntity], work=331*
 28: 0x082D [0x45] LOAD_SCHEDULED_TASK: Load scheduler "s024" with entities [EventEntity, EventEntity], work=[331*, 0*]
 29: 0x083E [0x2B] Romualdo (ID: 17122127/0x0105434F) [7777*]:
    → "He was killed out there while investigating a high-quality crystal deposit--I'm sure he was trying to reach me from beyond the grave."
 30: 0x0845 [0x23] WAIT_FOR_DIALOG_INTERACTION
 31: 0x0846 [0x2B] Romualdo (ID: 17122127/0x0105434F) [7778*]:
    → "What could he have been trying to tell me? The memory of that faint whisper has pushed everything else from my mind."
 32: 0x084D [0x23] WAIT_FOR_DIALOG_INTERACTION
 33: 0x084E [0x66] LOAD_EXT_SCHEDULER_MAIN: Load scheduler "tlk1" with entities [Romualdo (ID: 17122127/0x0105434F), Romualdo (ID: 17122127/0x0105434F)], work=9*
 34: 0x085D [0x52] END_LOAD_SCHEDULER: End scheduler "s024" with entities [EventEntity, EventEntity], work=331*
 35: 0x086C [0x45] LOAD_SCHEDULED_TASK: Load scheduler "s029" with entities [EventEntity, EventEntity], work=[331*, 0*]
 36: 0x087D [0x53] WAIT_SCHEDULER_TASK: Wait for scheduler "tlk1" with entities [Romualdo (ID: 17122127/0x0105434F), Romualdo (ID: 17122127/0x0105434F)]
 37: 0x088A [0x6E] Romualdo (ID: 17122127/0x0105434F) uses emote 19*
 38: 0x0891 [0x99] Wait for Romualdo (ID: 17122127/0x0105434F) animation to complete
 39: 0x0896 [0x2B] Romualdo (ID: 17122127/0x0105434F) [7779*]:
    → "I think of nothing but going back there to search out his spirit, but deserting my post is not an option..."
 40: 0x089D [0x23] WAIT_FOR_DIALOG_INTERACTION
 41: 0x089E [0x45] LOAD_SCHEDULED_TASK: Load scheduler "fdo1" with entities [EventEntity, EventEntity], work=[200*, 0*]
 42: 0x08AF [0x55] WAIT_LOAD_SCHEDULER: Wait for scheduler "fdo1" with entities [EventEntity, EventEntity], work=200*
 43: 0x08BE [0x52] END_LOAD_SCHEDULER: End scheduler "s029" with entities [EventEntity, EventEntity], work=331*
 44: 0x08CD [0x46] CAMERA_CONTROL: Restore default settings
 45: 0x08CF [0x1C] WAIT(60* ticks)
 46: 0x08D2 [0x45] LOAD_SCHEDULED_TASK: Load scheduler "fdi1" with entities [EventEntity, EventEntity], work=[200*, 0*]
 47: 0x08E3 [0x21] END_EVENT
 48: 0x08E4 [0x00] END_REQSTACK()
```

### Event 111

#### Metadata

| Field        | Value     |
|--------------|-----------|
| Entrypoint   | 0x08E5    |
| Data Size    | 704 bytes |
| Instructions | 82        |

```
      00 01 02 03 04 05 06 07  08 09 0A 0B 0C 0D 0E 0F
      -- -- -- -- -- -- -- --  -- -- -- -- -- -- -- --
08E0:                42 45 01  80 F8 FF FF 7F F8 FF FF       BE.........
08F0: 7F 66 64 6F 31 02 80 55  01 80 F8 FF FF 7F F8 FF  .fdo1..U........
0900: FF 7F 66 64 6F 31 46 01  38 45 80 92 01 4F 43 05  ..fdo1F.8E...OC.
0910: 01 4E 00 4F 43 05 01 80  4F 43 05 01 BA F0 FF FF  .N.OC...OC......
0920: 7F 62 80 63 80 64 80 65  80 80 F0 FF FF 7F 4A 4F  .b.c.d.e......JO
0930: 43 05 01 F0 FF FF 7F 4A  F0 FF FF 7F 4F 43 05 01  C......J....OC..
0940: 1C 42 80 45 66 80 F8 FF  FF 7F F8 FF FF 7F 73 30  .B.Ef.........s0
0950: 34 39 02 80 1C 44 80 45  01 80 F8 FF FF 7F F8 FF  49...D.E........
0960: FF 7F 66 64 69 31 02 80  55 01 80 F8 FF FF 7F F8  ..fdi1..U.......
0970: FF FF 7F 66 64 69 31 2B  4F 43 05 01 6C 80 23 52  ...fdi1+OC..l.#R
0980: 66 80 F8 FF FF 7F F8 FF  FF 7F 73 30 34 39 45 66  f.........s049Ef
0990: 80 F8 FF FF 7F F8 FF FF  7F 73 30 35 30 02 80 66  .........s050..f
09A0: 4C 80 4F 43 05 01 4F 43  05 01 74 6C 6B 30 2B 4F  L.OC..OC..tlk0+O
09B0: 43 05 01 6D 80 23 5D 02  80 4E 80 45 01 80 F8 FF  C..m.#]..N.E....
09C0: FF 7F F8 FF FF 7F 66 64  6F 31 02 80 55 01 80 F8  ......fdo1..U...
09D0: FF FF 7F F8 FF FF 7F 66  64 6F 31 52 66 80 F8 FF  .......fdo1Rf...
09E0: FF 7F F8 FF FF 7F 73 30  35 30 6B 69 64 6C 30 4F  ......s050kidl0O
09F0: 43 05 01 1C 05 80 48 6E  80 23 5C 00 6F 80 5C 01  C.....Hn.#\.o.\.
0A00: 6F 80 9A 45 66 80 F8 FF  FF 7F F8 FF FF 7F 73 30  o..Ef.........s0
0A10: 35 31 02 80 1C 44 80 45  01 80 F8 FF FF 7F F8 FF  51...D.E........
0A20: FF 7F 66 64 69 31 02 80  55 01 80 F8 FF FF 7F F8  ..fdi1..U.......
0A30: FF FF 7F 66 64 69 31 2B  4F 43 05 01 70 80 23 2B  ...fdi1+OC..p.#+
0A40: 4F 43 05 01 71 80 23 52  66 80 F8 FF FF 7F F8 FF  OC..q.#Rf.......
0A50: FF 7F 73 30 35 31 45 66  80 F8 FF FF 7F F8 FF FF  ..s051Ef........
0A60: 7F 73 30 35 32 02 80 66  4C 80 4F 43 05 01 4F 43  .s052..fL.OC..OC
0A70: 05 01 74 6C 6B 30 2B 4F  43 05 01 72 80 23 2B 4F  ..tlk0+OC..r.#+O
0A80: 43 05 01 73 80 23 66 4C  80 4F 43 05 01 4F 43 05  C..s.#fL.OC..OC.
0A90: 01 74 6C 6B 31 52 66 80  F8 FF FF 7F F8 FF FF 7F  .tlk1Rf.........
0AA0: 73 30 35 32 45 66 80 F8  FF FF 7F F8 FF FF 7F 73  s052Ef.........s
0AB0: 30 35 33 02 80 53 4F 43  05 01 4F 43 05 01 74 6C  053..SOC..OC..tl
0AC0: 6B 31 4B 4F 43 05 01 74  80 1C 05 80 2B 4F 43 05  k1KOC..t....+OC.
0AD0: 01 75 80 23 52 66 80 F8  FF FF 7F F8 FF FF 7F 73  .u.#Rf.........s
0AE0: 30 35 33 45 66 80 F8 FF  FF 7F F8 FF FF 7F 73 30  053Ef.........s0
0AF0: 35 34 02 80 4A 4F 43 05  01 F0 FF FF 7F 1C 42 80  54..JOC.......B.
0B00: 66 4C 80 4F 43 05 01 4F  43 05 01 74 6C 6B 30 2B  fL.OC..OC..tlk0+
0B10: 4F 43 05 01 76 80 23 52  66 80 F8 FF FF 7F F8 FF  OC..v.#Rf.......
0B20: FF 7F 73 30 35 34 45 66  80 F8 FF FF 7F F8 FF FF  ..s054Ef........
0B30: 7F 73 30 35 35 02 80 2B  4F 43 05 01 77 80 23 5D  .s055..+OC..w.#]
0B40: 02 80 4E 80 45 01 80 F8  FF FF 7F F8 FF FF 7F 66  ..N.E..........f
0B50: 64 6F 31 02 80 55 01 80  F8 FF FF 7F F8 FF FF 7F  do1..U..........
0B60: 66 64 6F 31 52 66 80 F8  FF FF 7F F8 FF FF 7F 73  fdo1Rf.........s
0B70: 30 35 35 45 06 80 F0 FF  FF 7F F0 FF FF 7F 71 73  055E..........qs
0B80: 74 63 02 80 5C 00 61 80  5C 01 61 80 9A 46 00 1C  tc..\.a.\.a..F..
0B90: 05 80 45 01 80 F8 FF FF  7F F8 FF FF 7F 66 64 69  ..E..........fdi
0BA0: 31 02 80 21 00                                    1..!.           
```

#### Opcodes

```
  0: 0x08E5 [0x42] SET_CLI_EVENT_CANCEL_DATA()
  1: 0x08E6 [0x45] LOAD_SCHEDULED_TASK: Load scheduler "fdo1" with entities [EventEntity, EventEntity], work=[200*, 0*]
  2: 0x08F7 [0x55] WAIT_LOAD_SCHEDULER: Wait for scheduler "fdo1" with entities [EventEntity, EventEntity], work=200*
  3: 0x0906 [0x46] CAMERA_CONTROL: Disable user control
  4: 0x0908 [0x38] SET_CLIENT_EVENT_MODE(mode=19*)
  5: 0x090B [0x92] Romualdo (ID: 17122127/0x0105434F)->Render.Flags3 ^= 0x01
  6: 0x0911 [0x4E] SET_ENTITY_HIDE_FLAG: Show Romualdo (ID: 17122127/0x0105434F)
  7: 0x0917 [0x80] LOAD_WAIT(entity=Romualdo (ID: 17122127/0x0105434F))
  8: 0x091C [0xBA] SET_ENTITY_POSITION(entity_id=LocalPlayer, pos_x=54.498*, pos_z=138.325*, pos_y=-13.856*, direction=247.9°*)
  9: 0x0929 [0x80] LOAD_WAIT(entity=LocalPlayer)
 10: 0x092E [0x4A] Romualdo (ID: 17122127/0x0105434F) looks at LocalPlayer
 11: 0x0937 [0x4A] LocalPlayer looks at Romualdo (ID: 17122127/0x0105434F)
 12: 0x0940 [0x1C] WAIT(30* ticks)
 13: 0x0943 [0x45] LOAD_SCHEDULED_TASK: Load scheduler "s049" with entities [EventEntity, EventEntity], work=[331*, 0*]
 14: 0x0954 [0x1C] WAIT(15* ticks)
 15: 0x0957 [0x45] LOAD_SCHEDULED_TASK: Load scheduler "fdi1" with entities [EventEntity, EventEntity], work=[200*, 0*]
 16: 0x0968 [0x55] WAIT_LOAD_SCHEDULER: Wait for scheduler "fdi1" with entities [EventEntity, EventEntity], work=200*
 17: 0x0977 [0x2B] Romualdo (ID: 17122127/0x0105434F) [7783*]:
    → "Hm? You went to Grauberg and heard my father's voice?"
 18: 0x097E [0x23] WAIT_FOR_DIALOG_INTERACTION
 19: 0x097F [0x52] END_LOAD_SCHEDULER: End scheduler "s049" with entities [EventEntity, EventEntity], work=331*
 20: 0x098E [0x45] LOAD_SCHEDULED_TASK: Load scheduler "s050" with entities [EventEntity, EventEntity], work=[331*, 0*]
 21: 0x099F [0x66] LOAD_EXT_SCHEDULER_MAIN: Load scheduler "tlk0" with entities [Romualdo (ID: 17122127/0x0105434F), Romualdo (ID: 17122127/0x0105434F)], work=9*
 22: 0x09AE [0x2B] Romualdo (ID: 17122127/0x0105434F) [7784*]:
    → "You're just making fun of me now... How would you know what my father sounded like?"
 23: 0x09B5 [0x23] WAIT_FOR_DIALOG_INTERACTION
 24: 0x09B6 [0x5D] SET_MUSIC_VOLUME(volume=0*, fade_time=120*)
 25: 0x09BB [0x45] LOAD_SCHEDULED_TASK: Load scheduler "fdo1" with entities [EventEntity, EventEntity], work=[200*, 0*]
 26: 0x09CC [0x55] WAIT_LOAD_SCHEDULER: Wait for scheduler "fdo1" with entities [EventEntity, EventEntity], work=200*
 27: 0x09DB [0x52] END_LOAD_SCHEDULER: End scheduler "s050" with entities [EventEntity, EventEntity], work=331*
 28: 0x09EA [0x6B] STOP_AND_IDLE: Romualdo (ID: 17122127/0x0105434F) stops current action and resets to idle (animation="idl0")
 29: 0x09F3 [0x1C] WAIT(60* ticks)
 30: 0x09F6 [0x48] [System] [7904*]:
    → "@@"
 31: 0x09F9 [0x23] WAIT_FOR_DIALOG_INTERACTION
 32: 0x09FA [0x5C] MUSIC_CONTROL: Set Idle (Day) music to song 124*
 33: 0x09FE [0x5C] MUSIC_CONTROL: Set Idle (Night) music to song 124*
 34: 0x0A02 [0x9A] WAIT_MUSIC_SERVER()
 35: 0x0A03 [0x45] LOAD_SCHEDULED_TASK: Load scheduler "s051" with entities [EventEntity, EventEntity], work=[331*, 0*]
 36: 0x0A14 [0x1C] WAIT(15* ticks)
 37: 0x0A17 [0x45] LOAD_SCHEDULED_TASK: Load scheduler "fdi1" with entities [EventEntity, EventEntity], work=[200*, 0*]
 38: 0x0A28 [0x55] WAIT_LOAD_SCHEDULER: Wait for scheduler "fdi1" with entities [EventEntity, EventEntity], work=200*
 39: 0x0A37 [0x2B] Romualdo (ID: 17122127/0x0105434F) [7785*]:
    → "The ghost of a Galkan soldier... And those were the words he used?"
 40: 0x0A3E [0x23] WAIT_FOR_DIALOG_INTERACTION
 41: 0x0A3F [0x2B] Romualdo (ID: 17122127/0x0105434F) [7786*]:
    → "It certainly sounds like something my father would say..."
 42: 0x0A46 [0x23] WAIT_FOR_DIALOG_INTERACTION
 43: 0x0A47 [0x52] END_LOAD_SCHEDULER: End scheduler "s051" with entities [EventEntity, EventEntity], work=331*
 44: 0x0A56 [0x45] LOAD_SCHEDULED_TASK: Load scheduler "s052" with entities [EventEntity, EventEntity], work=[331*, 0*]
 45: 0x0A67 [0x66] LOAD_EXT_SCHEDULER_MAIN: Load scheduler "tlk0" with entities [Romualdo (ID: 17122127/0x0105434F), Romualdo (ID: 17122127/0x0105434F)], work=9*
 46: 0x0A76 [0x2B] Romualdo (ID: 17122127/0x0105434F) [7787*]:
    → "It was just the two of us when I was growing up, you see."
 47: 0x0A7D [0x23] WAIT_FOR_DIALOG_INTERACTION
 48: 0x0A7E [0x2B] Romualdo (ID: 17122127/0x0105434F) [7788*]:
    → "And he would always promise to return whenever he was called away on duty."
 49: 0x0A85 [0x23] WAIT_FOR_DIALOG_INTERACTION
 50: 0x0A86 [0x66] LOAD_EXT_SCHEDULER_MAIN: Load scheduler "tlk1" with entities [Romualdo (ID: 17122127/0x0105434F), Romualdo (ID: 17122127/0x0105434F)], work=9*
 51: 0x0A95 [0x52] END_LOAD_SCHEDULER: End scheduler "s052" with entities [EventEntity, EventEntity], work=331*
 52: 0x0AA4 [0x45] LOAD_SCHEDULED_TASK: Load scheduler "s053" with entities [EventEntity, EventEntity], work=[331*, 0*]
 53: 0x0AB5 [0x53] WAIT_SCHEDULER_TASK: Wait for scheduler "tlk1" with entities [Romualdo (ID: 17122127/0x0105434F), Romualdo (ID: 17122127/0x0105434F)]
 54: 0x0AC2 [0x4B] UPDATE_ENTITY_YAW(entity=Romualdo (ID: 17122127/0x0105434F), yaw=11.2°*)
 55: 0x0AC9 [0x1C] WAIT(60* ticks)
 56: 0x0ACC [0x2B] Romualdo (ID: 17122127/0x0105434F) [7789*]:
    → "It must be the broken promise that ties him to that place..."
 57: 0x0AD3 [0x23] WAIT_FOR_DIALOG_INTERACTION
 58: 0x0AD4 [0x52] END_LOAD_SCHEDULER: End scheduler "s053" with entities [EventEntity, EventEntity], work=331*
 59: 0x0AE3 [0x45] LOAD_SCHEDULED_TASK: Load scheduler "s054" with entities [EventEntity, EventEntity], work=[331*, 0*]
 60: 0x0AF4 [0x4A] Romualdo (ID: 17122127/0x0105434F) looks at LocalPlayer
 61: 0x0AFD [0x1C] WAIT(30* ticks)
 62: 0x0B00 [0x66] LOAD_EXT_SCHEDULER_MAIN: Load scheduler "tlk0" with entities [Romualdo (ID: 17122127/0x0105434F), Romualdo (ID: 17122127/0x0105434F)], work=9*
 63: 0x0B0F [0x2B] Romualdo (ID: 17122127/0x0105434F) [7790*]:
    → "I thank you for going through all this trouble for me. Maybe I'll get a chance to meet this ghost for myself one day."
 64: 0x0B16 [0x23] WAIT_FOR_DIALOG_INTERACTION
 65: 0x0B17 [0x52] END_LOAD_SCHEDULER: End scheduler "s054" with entities [EventEntity, EventEntity], work=331*
 66: 0x0B26 [0x45] LOAD_SCHEDULED_TASK: Load scheduler "s055" with entities [EventEntity, EventEntity], work=[331*, 0*]
 67: 0x0B37 [0x2B] Romualdo (ID: 17122127/0x0105434F) [7791*]:
    → "Now that I've heard his message, I can focus on my duty and make my father proud."
 68: 0x0B3E [0x23] WAIT_FOR_DIALOG_INTERACTION
 69: 0x0B3F [0x5D] SET_MUSIC_VOLUME(volume=0*, fade_time=120*)
 70: 0x0B44 [0x45] LOAD_SCHEDULED_TASK: Load scheduler "fdo1" with entities [EventEntity, EventEntity], work=[200*, 0*]
 71: 0x0B55 [0x55] WAIT_LOAD_SCHEDULER: Wait for scheduler "fdo1" with entities [EventEntity, EventEntity], work=200*
 72: 0x0B64 [0x52] END_LOAD_SCHEDULER: End scheduler "s055" with entities [EventEntity, EventEntity], work=331*
 73: 0x0B73 [0x45] LOAD_SCHEDULED_TASK: Load scheduler "qstc" with entities [LocalPlayer, LocalPlayer], work=[201*, 0*]
 74: 0x0B84 [0x5C] MUSIC_CONTROL: Set Idle (Day) music to song 252*
 75: 0x0B88 [0x5C] MUSIC_CONTROL: Set Idle (Night) music to song 252*
 76: 0x0B8C [0x9A] WAIT_MUSIC_SERVER()
 77: 0x0B8D [0x46] CAMERA_CONTROL: Restore default settings
 78: 0x0B8F [0x1C] WAIT(60* ticks)
 79: 0x0B92 [0x45] LOAD_SCHEDULED_TASK: Load scheduler "fdi1" with entities [EventEntity, EventEntity], work=[200*, 0*]
 80: 0x0BA3 [0x21] END_EVENT
 81: 0x0BA4 [0x00] END_REQSTACK()
```

### Event 65535.17

#### Metadata

| Field        | Value    |
|--------------|----------|
| Entrypoint   | 0x0BA5   |
| Data Size    | 29 bytes |
| Instructions | 5        |

```
      00 01 02 03 04 05 06 07  08 09 0A 0B 0C 0D 0E 0F
      -- -- -- -- -- -- -- --  -- -- -- -- -- -- -- --
0BA0:                7B F8 FF  FF 7F 03 03 00 07 7F 1A       {..........
0BB0: 30 12 66 04 00 F8 FF FF  7F F8 FF FF 7F 61 74 70  0.f..........atp
0BC0: 30 00                                             0.              
```

#### Opcodes

```
  0: 0x0BA5 [0x7B] EventEntity stops talking
  1: 0x0BAA [0x03] ExtData[1]->WorkLocal[3] = Entity->Race
  2: 0x0BAF [0x1A] CALL_SUBROUTINE(address=0x1230)
  3: 0x0BB2 [0x66] LOAD_EXT_SCHEDULER_MAIN: Load scheduler "atp0" with entities [EventEntity, EventEntity], work=ExtData[1]->WorkLocal[4]
  4: 0x0BC1 [0x00] END_REQSTACK()
```

### Event 65535.18

#### Metadata

| Field        | Value    |
|--------------|----------|
| Entrypoint   | 0x0BC2   |
| Data Size    | 27 bytes |
| Instructions | 5        |

```
      00 01 02 03 04 05 06 07  08 09 0A 0B 0C 0D 0E 0F
      -- -- -- -- -- -- -- --  -- -- -- -- -- -- -- --
0BC0:       03 03 00 07 7F 1A  30 12 66 04 00 F8 FF FF    ......0.f.....
0BD0: 7F F8 FF FF 7F 61 74 70  31 1C 78 80 00           .....atp1.x..   
```

#### Opcodes

```
  0: 0x0BC2 [0x03] ExtData[1]->WorkLocal[3] = Entity->Race
  1: 0x0BC7 [0x1A] CALL_SUBROUTINE(address=0x1230)
  2: 0x0BCA [0x66] LOAD_EXT_SCHEDULER_MAIN: Load scheduler "atp1" with entities [EventEntity, EventEntity], work=ExtData[1]->WorkLocal[4]
  3: 0x0BD9 [0x1C] WAIT(300* ticks)
  4: 0x0BDC [0x00] END_REQSTACK()
```

### Event 65535.19

#### Metadata

| Field        | Value    |
|--------------|----------|
| Entrypoint   | 0x0BDD   |
| Data Size    | 27 bytes |
| Instructions | 5        |

```
      00 01 02 03 04 05 06 07  08 09 0A 0B 0C 0D 0E 0F
      -- -- -- -- -- -- -- --  -- -- -- -- -- -- -- --
0BD0:                                         03 03 00               ...
0BE0: 07 7F 1A 30 12 66 04 00  F8 FF FF 7F F8 FF FF 7F  ...0.f..........
0BF0: 65 63 30 30 1C 42 80 00                           ec00.B..        
```

#### Opcodes

```
  0: 0x0BDD [0x03] ExtData[1]->WorkLocal[3] = Entity->Race
  1: 0x0BE2 [0x1A] CALL_SUBROUTINE(address=0x1230)
  2: 0x0BE5 [0x66] LOAD_EXT_SCHEDULER_MAIN: Load scheduler "ec00" with entities [EventEntity, EventEntity], work=ExtData[1]->WorkLocal[4]
  3: 0x0BF4 [0x1C] WAIT(30* ticks)
  4: 0x0BF7 [0x00] END_REQSTACK()
```

### Event 65535.20

#### Metadata

| Field        | Value    |
|--------------|----------|
| Entrypoint   | 0x0BF8   |
| Data Size    | 35 bytes |
| Instructions | 6        |

```
      00 01 02 03 04 05 06 07  08 09 0A 0B 0C 0D 0E 0F
      -- -- -- -- -- -- -- --  -- -- -- -- -- -- -- --
0BF0:                          33 01 37 79 80 7A 80 7B          3.7y.z.{
0C00: 80 7C 80 03 03 00 07 7F  1A 30 12 66 04 00 F8 FF  .|.......0.f....
0C10: FF 7F F8 FF FF 7F 65 63  61 30 00                 ......eca0.     
```

#### Opcodes

```
  0: 0x0BF8 [0x33] EventEntity->Render.Flags0 |= 0x200000 // Bit 21 (flag=0x01)
  1: 0x0BFA [0x37] UPDATE_EVENT_POSITION_AND_DIR: x=-428.167*, z=-248.306*, y=19.999*, direction=272.4°*
  2: 0x0C03 [0x03] ExtData[1]->WorkLocal[3] = Entity->Race
  3: 0x0C08 [0x1A] CALL_SUBROUTINE(address=0x1230)
  4: 0x0C0B [0x66] LOAD_EXT_SCHEDULER_MAIN: Load scheduler "eca0" with entities [EventEntity, EventEntity], work=ExtData[1]->WorkLocal[4]
  5: 0x0C1A [0x00] END_REQSTACK()
```

### Event 65535.21

#### Metadata

| Field        | Value    |
|--------------|----------|
| Entrypoint   | 0x0C1B   |
| Data Size    | 27 bytes |
| Instructions | 5        |

```
      00 01 02 03 04 05 06 07  08 09 0A 0B 0C 0D 0E 0F
      -- -- -- -- -- -- -- --  -- -- -- -- -- -- -- --
0C10:                                   03 03 00 07 7F             .....
0C20: 1A 30 12 66 04 00 F8 FF  FF 7F F8 FF FF 7F 65 63  .0.f..........ec
0C30: 61 31 1C 05 80 00                                 a1....          
```

#### Opcodes

```
  0: 0x0C1B [0x03] ExtData[1]->WorkLocal[3] = Entity->Race
  1: 0x0C20 [0x1A] CALL_SUBROUTINE(address=0x1230)
  2: 0x0C23 [0x66] LOAD_EXT_SCHEDULER_MAIN: Load scheduler "eca1" with entities [EventEntity, EventEntity], work=ExtData[1]->WorkLocal[4]
  3: 0x0C32 [0x1C] WAIT(60* ticks)
  4: 0x0C35 [0x00] END_REQSTACK()
```

### Event 65535.22

#### Metadata

| Field        | Value    |
|--------------|----------|
| Entrypoint   | 0x0C36   |
| Data Size    | 14 bytes |
| Instructions | 4        |

```
      00 01 02 03 04 05 06 07  08 09 0A 0B 0C 0D 0E 0F
      -- -- -- -- -- -- -- --  -- -- -- -- -- -- -- --
0C30:                   32 11  80 1F 00 7D 80 7E 80 7F        2....}.~..
0C40: 80 1F 01 00                                       ....            
```

#### Opcodes

```
  0: 0x0C36 [0x32] ExtData[1]->MainSpeed = 13* * 0.1
  1: 0x0C39 [0x1F] MOVE_ENTITY: EventEntity moves to X=580.498*, Z=-218.677*, Y=35.999*
  2: 0x0C41 [0x1F] MOVE_ENTITY: Update entity position (mode=1)
  3: 0x0C43 [0x00] END_REQSTACK()
```

### Event 65535.23

#### Metadata

| Field        | Value    |
|--------------|----------|
| Entrypoint   | 0x0C44   |
| Data Size    | 14 bytes |
| Instructions | 4        |

```
      00 01 02 03 04 05 06 07  08 09 0A 0B 0C 0D 0E 0F
      -- -- -- -- -- -- -- --  -- -- -- -- -- -- -- --
0C40:             32 11 80 1F  00 80 80 81 80 7F 80 1F      2...........
0C50: 01 00                                             ..              
```

#### Opcodes

```
  0: 0x0C44 [0x32] ExtData[1]->MainSpeed = 13* * 0.1
  1: 0x0C47 [0x1F] MOVE_ENTITY: EventEntity moves to X=579.003*, Z=-222.686*, Y=35.999*
  2: 0x0C4F [0x1F] MOVE_ENTITY: Update entity position (mode=1)
  3: 0x0C51 [0x00] END_REQSTACK()
```

### Event 65535.24

#### Metadata

| Field        | Value    |
|--------------|----------|
| Entrypoint   | 0x0C52   |
| Data Size    | 14 bytes |
| Instructions | 4        |

```
      00 01 02 03 04 05 06 07  08 09 0A 0B 0C 0D 0E 0F
      -- -- -- -- -- -- -- --  -- -- -- -- -- -- -- --
0C50:       32 11 80 1F 00 82  80 83 80 84 80 1F 01 00    2.............
```

#### Opcodes

```
  0: 0x0C52 [0x32] ExtData[1]->MainSpeed = 13* * 0.1
  1: 0x0C55 [0x1F] MOVE_ENTITY: EventEntity moves to X=578.906*, Z=-244.664*, Y=34.250*
  2: 0x0C5D [0x1F] MOVE_ENTITY: Update entity position (mode=1)
  3: 0x0C5F [0x00] END_REQSTACK()
```

### Event 65535.25

#### Metadata

| Field        | Value    |
|--------------|----------|
| Entrypoint   | 0x0C60   |
| Data Size    | 14 bytes |
| Instructions | 4        |

```
      00 01 02 03 04 05 06 07  08 09 0A 0B 0C 0D 0E 0F
      -- -- -- -- -- -- -- --  -- -- -- -- -- -- -- --
0C60: 32 11 80 1F 00 85 80 86  80 02 80 1F 01 00        2.............  
```

#### Opcodes

```
  0: 0x0C60 [0x32] ExtData[1]->MainSpeed = 13* * 0.1
  1: 0x0C63 [0x1F] MOVE_ENTITY: EventEntity moves to X=556.718*, Z=-365.727*, Y=0.000*
  2: 0x0C6B [0x1F] MOVE_ENTITY: Update entity position (mode=1)
  3: 0x0C6D [0x00] END_REQSTACK()
```

### Event 65535.26

#### Metadata

| Field        | Value    |
|--------------|----------|
| Entrypoint   | 0x0C6E   |
| Data Size    | 14 bytes |
| Instructions | 4        |

```
      00 01 02 03 04 05 06 07  08 09 0A 0B 0C 0D 0E 0F
      -- -- -- -- -- -- -- --  -- -- -- -- -- -- -- --
0C60:                                            32 87                2.
0C70: 80 1F 00 88 80 89 80 02  80 1F 01 00              ............    
```

#### Opcodes

```
  0: 0x0C6E [0x32] ExtData[1]->MainSpeed = 10* * 0.1
  1: 0x0C71 [0x1F] MOVE_ENTITY: EventEntity moves to X=-292.717*, Z=-478.927*, Y=0.000*
  2: 0x0C79 [0x1F] MOVE_ENTITY: Update entity position (mode=1)
  3: 0x0C7B [0x00] END_REQSTACK()
```

### Event 65535.27

#### Metadata

| Field        | Value    |
|--------------|----------|
| Entrypoint   | 0x0C7C   |
| Data Size    | 14 bytes |
| Instructions | 4        |

```
      00 01 02 03 04 05 06 07  08 09 0A 0B 0C 0D 0E 0F
      -- -- -- -- -- -- -- --  -- -- -- -- -- -- -- --
0C70:                                      32 11 80 1F              2...
0C80: 00 8A 80 8B 80 7F 80 1F  01 00                    ..........      
```

#### Opcodes

```
  0: 0x0C7C [0x32] ExtData[1]->MainSpeed = 13* * 0.1
  1: 0x0C7F [0x1F] MOVE_ENTITY: EventEntity moves to X=582.011*, Z=-211.108*, Y=35.999*
  2: 0x0C87 [0x1F] MOVE_ENTITY: Update entity position (mode=1)
  3: 0x0C89 [0x00] END_REQSTACK()
```

### Event 65535.28

#### Metadata

| Field        | Value    |
|--------------|----------|
| Entrypoint   | 0x0C8A   |
| Data Size    | 14 bytes |
| Instructions | 4        |

```
      00 01 02 03 04 05 06 07  08 09 0A 0B 0C 0D 0E 0F
      -- -- -- -- -- -- -- --  -- -- -- -- -- -- -- --
0C80:                                32 11 80 1F 00 8C            2.....
0C90: 80 8D 80 7F 80 1F 01 00                           ........        
```

#### Opcodes

```
  0: 0x0C8A [0x32] ExtData[1]->MainSpeed = 13* * 0.1
  1: 0x0C8D [0x1F] MOVE_ENTITY: EventEntity moves to X=580.021*, Z=-228.200*, Y=35.999*
  2: 0x0C95 [0x1F] MOVE_ENTITY: Update entity position (mode=1)
  3: 0x0C97 [0x00] END_REQSTACK()
```

### Event 65535.29

#### Metadata

| Field        | Value    |
|--------------|----------|
| Entrypoint   | 0x0C98   |
| Data Size    | 28 bytes |
| Instructions | 6        |

```
      00 01 02 03 04 05 06 07  08 09 0A 0B 0C 0D 0E 0F
      -- -- -- -- -- -- -- --  -- -- -- -- -- -- -- --
0C90:                          6E F0 FF FF 7F 5D 80 99          n....]..
0CA0: F0 FF FF 7F 1C 04 80 6E  F0 FF FF 7F 87 80 99 F0  .......n........
0CB0: FF FF 7F 00                                       ....            
```

#### Opcodes

```
  0: 0x0C98 [0x6E] LocalPlayer uses emote 7*
  1: 0x0C9F [0x99] Wait for LocalPlayer animation to complete
  2: 0x0CA4 [0x1C] WAIT(90* ticks)
  3: 0x0CA7 [0x6E] LocalPlayer uses emote 10*
  4: 0x0CAE [0x99] Wait for LocalPlayer animation to complete
  5: 0x0CB3 [0x00] END_REQSTACK()
```

### Event 65535.30

#### Metadata

| Field        | Value    |
|--------------|----------|
| Entrypoint   | 0x0CB4   |
| Data Size    | 16 bytes |
| Instructions | 3        |

```
      00 01 02 03 04 05 06 07  08 09 0A 0B 0C 0D 0E 0F
      -- -- -- -- -- -- -- --  -- -- -- -- -- -- -- --
0CB0:             6C F0 FF FF  7F 02 80 03 80 92 01 F0      l...........
0CC0: FF FF 7F 00                                       ....            
```

#### Opcodes

```
  0: 0x0CB4 [0x6C] FADE_ENTITY_COLOR(entity_id=LocalPlayer, end_alpha=0*, fade_time=1*)
  1: 0x0CBD [0x92] LocalPlayer->Render.Flags3 ^= 0x01
  2: 0x0CC3 [0x00] END_REQSTACK()
```

### Event 65535.31

#### Metadata

| Field        | Value    |
|--------------|----------|
| Entrypoint   | 0x0CC4   |
| Data Size    | 16 bytes |
| Instructions | 3        |

```
      00 01 02 03 04 05 06 07  08 09 0A 0B 0C 0D 0E 0F
      -- -- -- -- -- -- -- --  -- -- -- -- -- -- -- --
0CC0:             6C F0 FF FF  7F 8E 80 03 80 92 00 F0      l...........
0CD0: FF FF 7F 00                                       ....            
```

#### Opcodes

```
  0: 0x0CC4 [0x6C] FADE_ENTITY_COLOR(entity_id=LocalPlayer, end_alpha=128*, fade_time=1*)
  1: 0x0CCD [0x92] LocalPlayer->Render.Flags3 = Flags3  // No change (flag=0)
  2: 0x0CD3 [0x00] END_REQSTACK()
```

### Event 65535.32

#### Metadata

| Field        | Value    |
|--------------|----------|
| Entrypoint   | 0x0CD4   |
| Data Size    | 38 bytes |
| Instructions | 5        |

```
      00 01 02 03 04 05 06 07  08 09 0A 0B 0C 0D 0E 0F
      -- -- -- -- -- -- -- --  -- -- -- -- -- -- -- --
0CD0:             22 00 2F 00  F8 FF FF 7F B6 0B 03 80      "./.........
0CE0: 02 80 8F 80 90 80 91 80  91 80 91 80 06 80 92 80  ................
0CF0: 6C F8 FF FF 7F 93 80 03  80 00                    l.........      
```

#### Opcodes

```
  0: 0x0CD4 [0x22] ENTITY_HIDE_FLAG(enabled=0x00)
  1: 0x0CD6 [0x2F] EventEntity->Render.Flags0 &= ~0x80000 // Bit 19
  2: 0x0CDC [0xB6] ENTITY_APPEARANCE_HANDLER(case=Full entity look, race=1*, hair=0*, head=145*, body=79*, hands=76*, legs=76*, feet=76*, main=201*, sub=262*)
  3: 0x0CF0 [0x6C] FADE_ENTITY_COLOR(entity_id=EventEntity, end_alpha=64*, fade_time=1*)
  4: 0x0CF9 [0x00] END_REQSTACK()
```

### Event 65535.33

#### Metadata

| Field        | Value    |
|--------------|----------|
| Entrypoint   | 0x0CFA   |
| Data Size    | 38 bytes |
| Instructions | 5        |

```
      00 01 02 03 04 05 06 07  08 09 0A 0B 0C 0D 0E 0F
      -- -- -- -- -- -- -- --  -- -- -- -- -- -- -- --
0CF0:                                22 00 2F 00 F8 FF            "./...
0D00: FF 7F B6 0B 03 80 02 80  8F 80 90 80 91 80 91 80  ................
0D10: 91 80 06 80 94 80 6C F8  FF FF 7F 95 80 03 80 00  ......l.........
```

#### Opcodes

```
  0: 0x0CFA [0x22] ENTITY_HIDE_FLAG(enabled=0x00)
  1: 0x0CFC [0x2F] EventEntity->Render.Flags0 &= ~0x80000 // Bit 19
  2: 0x0D02 [0xB6] ENTITY_APPEARANCE_HANDLER(case=Full entity look, race=1*, hair=0*, head=145*, body=79*, hands=76*, legs=76*, feet=76*, main=201*, sub=24*)
  3: 0x0D16 [0x6C] FADE_ENTITY_COLOR(entity_id=EventEntity, end_alpha=80*, fade_time=1*)
  4: 0x0D1F [0x00] END_REQSTACK()
```

### Event 65535.34

#### Metadata

| Field        | Value    |
|--------------|----------|
| Entrypoint   | 0x0D20   |
| Data Size    | 38 bytes |
| Instructions | 5        |

```
      00 01 02 03 04 05 06 07  08 09 0A 0B 0C 0D 0E 0F
      -- -- -- -- -- -- -- --  -- -- -- -- -- -- -- --
0D20: 22 00 2F 00 F8 FF FF 7F  B6 0B 5C 80 02 80 8F 80  "./.......\.....
0D30: 90 80 91 80 91 80 91 80  06 80 94 80 6C F8 FF FF  ............l...
0D40: 7F 95 80 03 80 00                                 ......          
```

#### Opcodes

```
  0: 0x0D20 [0x22] ENTITY_HIDE_FLAG(enabled=0x00)
  1: 0x0D22 [0x2F] EventEntity->Render.Flags0 &= ~0x80000 // Bit 19
  2: 0x0D28 [0xB6] ENTITY_APPEARANCE_HANDLER(case=Full entity look, race=5*, hair=0*, head=145*, body=79*, hands=76*, legs=76*, feet=76*, main=201*, sub=24*)
  3: 0x0D3C [0x6C] FADE_ENTITY_COLOR(entity_id=EventEntity, end_alpha=80*, fade_time=1*)
  4: 0x0D45 [0x00] END_REQSTACK()
```

### Event 65535.35

#### Metadata

| Field        | Value     |
|--------------|-----------|
| Entrypoint   | 0x0D46    |
| Data Size    | 209 bytes |
| Instructions | 25        |

```
      00 01 02 03 04 05 06 07  08 09 0A 0B 0C 0D 0E 0F
      -- -- -- -- -- -- -- --  -- -- -- -- -- -- -- --
0D40:                   02 02  10 03 80 80 60 0D 66 96        ......`.f.
0D50: 80 F0 FF FF 7F F0 FF FF  7F 65 63 61 30 01 16 0E  .........eca0...
0D60: 02 02 10 59 80 80 7A 0D  66 95 80 F0 FF FF 7F F0  ...Y..z.f.......
0D70: FF FF 7F 65 63 61 30 01  16 0E 02 02 10 5A 80 80  ...eca0......Z..
0D80: 94 0D 66 04 80 F0 FF FF  7F F0 FF FF 7F 65 63 61  ..f..........eca
0D90: 30 01 16 0E 02 02 10 5B  80 80 AE 0D 66 97 80 F0  0......[....f...
0DA0: FF FF 7F F0 FF FF 7F 65  63 61 30 01 16 0E 02 02  .......eca0.....
0DB0: 10 5C 80 80 C8 0D 66 98  80 F0 FF FF 7F F0 FF FF  .\....f.........
0DC0: 7F 65 63 61 30 01 16 0E  02 02 10 4A 80 80 E2 0D  .eca0......J....
0DD0: 66 98 80 F0 FF FF 7F F0  FF FF 7F 65 63 61 30 01  f..........eca0.
0DE0: 16 0E 02 02 10 5D 80 80  FC 0D 66 4E 80 F0 FF FF  .....]....fN....
0DF0: 7F F0 FF FF 7F 65 63 61  30 01 16 0E 02 02 10 5E  .....eca0......^
0E00: 80 80 16 0E 66 99 80 F0  FF FF 7F F0 FF FF 7F 65  ....f..........e
0E10: 63 61 30 01 16 0E 00                              ca0....         
```

#### Opcodes

```
  0: 0x0D46 [0x02] IF !(Work_Zone[2] == 1*) GOTO 0x0D60
  1: 0x0D4E [0x66] LOAD_EXT_SCHEDULER_MAIN: Load scheduler "eca0" with entities [LocalPlayer, LocalPlayer], work=70*
  2: 0x0D5D [0x01] GOTO 0x0E16
  3: 0x0D60 [0x02] IF !(Work_Zone[2] == 2*) GOTO 0x0D7A
  4: 0x0D68 [0x66] LOAD_EXT_SCHEDULER_MAIN: Load scheduler "eca0" with entities [LocalPlayer, LocalPlayer], work=80*
  5: 0x0D77 [0x01] GOTO 0x0E16
  6: 0x0D7A [0x02] IF !(Work_Zone[2] == 3*) GOTO 0x0D94
  7: 0x0D82 [0x66] LOAD_EXT_SCHEDULER_MAIN: Load scheduler "eca0" with entities [LocalPlayer, LocalPlayer], work=90*
  8: 0x0D91 [0x01] GOTO 0x0E16
  9: 0x0D94 [0x02] IF !(Work_Zone[2] == 4*) GOTO 0x0DAE
 10: 0x0D9C [0x66] LOAD_EXT_SCHEDULER_MAIN: Load scheduler "eca0" with entities [LocalPlayer, LocalPlayer], work=100*
 11: 0x0DAB [0x01] GOTO 0x0E16
 12: 0x0DAE [0x02] IF !(Work_Zone[2] == 5*) GOTO 0x0DC8
 13: 0x0DB6 [0x66] LOAD_EXT_SCHEDULER_MAIN: Load scheduler "eca0" with entities [LocalPlayer, LocalPlayer], work=110*
 14: 0x0DC5 [0x01] GOTO 0x0E16
 15: 0x0DC8 [0x02] IF !(Work_Zone[2] == 6*) GOTO 0x0DE2
 16: 0x0DD0 [0x66] LOAD_EXT_SCHEDULER_MAIN: Load scheduler "eca0" with entities [LocalPlayer, LocalPlayer], work=110*
 17: 0x0DDF [0x01] GOTO 0x0E16
 18: 0x0DE2 [0x02] IF !(Work_Zone[2] == 7*) GOTO 0x0DFC
 19: 0x0DEA [0x66] LOAD_EXT_SCHEDULER_MAIN: Load scheduler "eca0" with entities [LocalPlayer, LocalPlayer], work=120*
 20: 0x0DF9 [0x01] GOTO 0x0E16
 21: 0x0DFC [0x02] IF !(Work_Zone[2] == 8*) GOTO 0x0E16
 22: 0x0E04 [0x66] LOAD_EXT_SCHEDULER_MAIN: Load scheduler "eca0" with entities [LocalPlayer, LocalPlayer], work=130*
 23: 0x0E13 [0x01] GOTO 0x0E16

SUBROUTINE_0E16:
 24: 0x0E16 [0x00] END_REQSTACK()
```

### Event 65535.36

#### Metadata

| Field        | Value     |
|--------------|-----------|
| Entrypoint   | 0x0E17    |
| Data Size    | 209 bytes |
| Instructions | 25        |

```
      00 01 02 03 04 05 06 07  08 09 0A 0B 0C 0D 0E 0F
      -- -- -- -- -- -- -- --  -- -- -- -- -- -- -- --
0E10:                      02  02 10 03 80 80 31 0E 66         ......1.f
0E20: 96 80 F0 FF FF 7F F0 FF  FF 7F 61 74 70 30 01 E7  ..........atp0..
0E30: 0E 02 02 10 59 80 80 4B  0E 66 95 80 F0 FF FF 7F  ....Y..K.f......
0E40: F0 FF FF 7F 61 74 70 30  01 E7 0E 02 02 10 5A 80  ....atp0......Z.
0E50: 80 65 0E 66 04 80 F0 FF  FF 7F F0 FF FF 7F 61 74  .e.f..........at
0E60: 70 30 01 E7 0E 02 02 10  5B 80 80 7F 0E 66 97 80  p0......[....f..
0E70: F0 FF FF 7F F0 FF FF 7F  61 74 70 30 01 E7 0E 02  ........atp0....
0E80: 02 10 5C 80 80 99 0E 66  98 80 F0 FF FF 7F F0 FF  ..\....f........
0E90: FF 7F 61 74 70 30 01 E7  0E 02 02 10 4A 80 80 B3  ..atp0......J...
0EA0: 0E 66 98 80 F0 FF FF 7F  F0 FF FF 7F 61 74 70 30  .f..........atp0
0EB0: 01 E7 0E 02 02 10 5D 80  80 CD 0E 66 4E 80 F0 FF  ......]....fN...
0EC0: FF 7F F0 FF FF 7F 61 74  70 30 01 E7 0E 02 02 10  ......atp0......
0ED0: 5E 80 80 E7 0E 66 99 80  F0 FF FF 7F F0 FF FF 7F  ^....f..........
0EE0: 61 74 70 30 01 E7 0E 00                           atp0....        
```

#### Opcodes

```
  0: 0x0E17 [0x02] IF !(Work_Zone[2] == 1*) GOTO 0x0E31
  1: 0x0E1F [0x66] LOAD_EXT_SCHEDULER_MAIN: Load scheduler "atp0" with entities [LocalPlayer, LocalPlayer], work=70*
  2: 0x0E2E [0x01] GOTO 0x0EE7
  3: 0x0E31 [0x02] IF !(Work_Zone[2] == 2*) GOTO 0x0E4B
  4: 0x0E39 [0x66] LOAD_EXT_SCHEDULER_MAIN: Load scheduler "atp0" with entities [LocalPlayer, LocalPlayer], work=80*
  5: 0x0E48 [0x01] GOTO 0x0EE7
  6: 0x0E4B [0x02] IF !(Work_Zone[2] == 3*) GOTO 0x0E65
  7: 0x0E53 [0x66] LOAD_EXT_SCHEDULER_MAIN: Load scheduler "atp0" with entities [LocalPlayer, LocalPlayer], work=90*
  8: 0x0E62 [0x01] GOTO 0x0EE7
  9: 0x0E65 [0x02] IF !(Work_Zone[2] == 4*) GOTO 0x0E7F
 10: 0x0E6D [0x66] LOAD_EXT_SCHEDULER_MAIN: Load scheduler "atp0" with entities [LocalPlayer, LocalPlayer], work=100*
 11: 0x0E7C [0x01] GOTO 0x0EE7
 12: 0x0E7F [0x02] IF !(Work_Zone[2] == 5*) GOTO 0x0E99
 13: 0x0E87 [0x66] LOAD_EXT_SCHEDULER_MAIN: Load scheduler "atp0" with entities [LocalPlayer, LocalPlayer], work=110*
 14: 0x0E96 [0x01] GOTO 0x0EE7
 15: 0x0E99 [0x02] IF !(Work_Zone[2] == 6*) GOTO 0x0EB3
 16: 0x0EA1 [0x66] LOAD_EXT_SCHEDULER_MAIN: Load scheduler "atp0" with entities [LocalPlayer, LocalPlayer], work=110*
 17: 0x0EB0 [0x01] GOTO 0x0EE7
 18: 0x0EB3 [0x02] IF !(Work_Zone[2] == 7*) GOTO 0x0ECD
 19: 0x0EBB [0x66] LOAD_EXT_SCHEDULER_MAIN: Load scheduler "atp0" with entities [LocalPlayer, LocalPlayer], work=120*
 20: 0x0ECA [0x01] GOTO 0x0EE7
 21: 0x0ECD [0x02] IF !(Work_Zone[2] == 8*) GOTO 0x0EE7
 22: 0x0ED5 [0x66] LOAD_EXT_SCHEDULER_MAIN: Load scheduler "atp0" with entities [LocalPlayer, LocalPlayer], work=130*
 23: 0x0EE4 [0x01] GOTO 0x0EE7

SUBROUTINE_0EE7:
 24: 0x0EE7 [0x00] END_REQSTACK()
```

### Event 65535.37

#### Metadata

| Field        | Value     |
|--------------|-----------|
| Entrypoint   | 0x0EE8    |
| Data Size    | 209 bytes |
| Instructions | 25        |

```
      00 01 02 03 04 05 06 07  08 09 0A 0B 0C 0D 0E 0F
      -- -- -- -- -- -- -- --  -- -- -- -- -- -- -- --
0EE0:                          02 02 10 03 80 80 02 0F          ........
0EF0: 66 9A 80 F0 FF FF 7F F0  FF FF 7F 64 61 6B 30 01  f..........dak0.
0F00: B8 0F 02 02 10 59 80 80  1C 0F 66 9B 80 F0 FF FF  .....Y....f.....
0F10: 7F F0 FF FF 7F 64 61 6B  30 01 B8 0F 02 02 10 5A  .....dak0......Z
0F20: 80 80 36 0F 66 9C 80 F0  FF FF 7F F0 FF FF 7F 64  ..6.f..........d
0F30: 61 6B 30 01 B8 0F 02 02  10 5B 80 80 50 0F 66 9D  ak0......[..P.f.
0F40: 80 F0 FF FF 7F F0 FF FF  7F 64 61 6B 30 01 B8 0F  .........dak0...
0F50: 02 02 10 5C 80 80 6A 0F  66 9E 80 F0 FF FF 7F F0  ...\..j.f.......
0F60: FF FF 7F 64 61 6B 30 01  B8 0F 02 02 10 4A 80 80  ...dak0......J..
0F70: 84 0F 66 9E 80 F0 FF FF  7F F0 FF FF 7F 64 61 6B  ..f..........dak
0F80: 30 01 B8 0F 02 02 10 5D  80 80 9E 0F 66 9F 80 F0  0......]....f...
0F90: FF FF 7F F0 FF FF 7F 64  61 6B 30 01 B8 0F 02 02  .......dak0.....
0FA0: 10 5E 80 80 B8 0F 66 A0  80 F0 FF FF 7F F0 FF FF  .^....f.........
0FB0: 7F 64 61 6B 30 01 B8 0F  00                       .dak0....       
```

#### Opcodes

```
  0: 0x0EE8 [0x02] IF !(Work_Zone[2] == 1*) GOTO 0x0F02
  1: 0x0EF0 [0x66] LOAD_EXT_SCHEDULER_MAIN: Load scheduler "dak0" with entities [LocalPlayer, LocalPlayer], work=73*
  2: 0x0EFF [0x01] GOTO 0x0FB8
  3: 0x0F02 [0x02] IF !(Work_Zone[2] == 2*) GOTO 0x0F1C
  4: 0x0F0A [0x66] LOAD_EXT_SCHEDULER_MAIN: Load scheduler "dak0" with entities [LocalPlayer, LocalPlayer], work=83*
  5: 0x0F19 [0x01] GOTO 0x0FB8
  6: 0x0F1C [0x02] IF !(Work_Zone[2] == 3*) GOTO 0x0F36
  7: 0x0F24 [0x66] LOAD_EXT_SCHEDULER_MAIN: Load scheduler "dak0" with entities [LocalPlayer, LocalPlayer], work=93*
  8: 0x0F33 [0x01] GOTO 0x0FB8
  9: 0x0F36 [0x02] IF !(Work_Zone[2] == 4*) GOTO 0x0F50
 10: 0x0F3E [0x66] LOAD_EXT_SCHEDULER_MAIN: Load scheduler "dak0" with entities [LocalPlayer, LocalPlayer], work=103*
 11: 0x0F4D [0x01] GOTO 0x0FB8
 12: 0x0F50 [0x02] IF !(Work_Zone[2] == 5*) GOTO 0x0F6A
 13: 0x0F58 [0x66] LOAD_EXT_SCHEDULER_MAIN: Load scheduler "dak0" with entities [LocalPlayer, LocalPlayer], work=113*
 14: 0x0F67 [0x01] GOTO 0x0FB8
 15: 0x0F6A [0x02] IF !(Work_Zone[2] == 6*) GOTO 0x0F84
 16: 0x0F72 [0x66] LOAD_EXT_SCHEDULER_MAIN: Load scheduler "dak0" with entities [LocalPlayer, LocalPlayer], work=113*
 17: 0x0F81 [0x01] GOTO 0x0FB8
 18: 0x0F84 [0x02] IF !(Work_Zone[2] == 7*) GOTO 0x0F9E
 19: 0x0F8C [0x66] LOAD_EXT_SCHEDULER_MAIN: Load scheduler "dak0" with entities [LocalPlayer, LocalPlayer], work=123*
 20: 0x0F9B [0x01] GOTO 0x0FB8
 21: 0x0F9E [0x02] IF !(Work_Zone[2] == 8*) GOTO 0x0FB8
 22: 0x0FA6 [0x66] LOAD_EXT_SCHEDULER_MAIN: Load scheduler "dak0" with entities [LocalPlayer, LocalPlayer], work=133*
 23: 0x0FB5 [0x01] GOTO 0x0FB8

SUBROUTINE_0FB8:
 24: 0x0FB8 [0x00] END_REQSTACK()
```

### Event 65535.38

#### Metadata

| Field        | Value     |
|--------------|-----------|
| Entrypoint   | 0x0FB9    |
| Data Size    | 209 bytes |
| Instructions | 25        |

```
      00 01 02 03 04 05 06 07  08 09 0A 0B 0C 0D 0E 0F
      -- -- -- -- -- -- -- --  -- -- -- -- -- -- -- --
0FB0:                             02 02 10 03 80 80 D3           .......
0FC0: 0F 66 9A 80 F0 FF FF 7F  F0 FF FF 7F 64 61 6B 31  .f..........dak1
0FD0: 01 89 10 02 02 10 59 80  80 ED 0F 66 9B 80 F0 FF  ......Y....f....
0FE0: FF 7F F0 FF FF 7F 64 61  6B 31 01 89 10 02 02 10  ......dak1......
0FF0: 5A 80 80 07 10 66 9C 80  F0 FF FF 7F F0 FF FF 7F  Z....f..........
1000: 64 61 6B 31 01 89 10 02  02 10 5B 80 80 21 10 66  dak1......[..!.f
1010: 9D 80 F0 FF FF 7F F0 FF  FF 7F 64 61 6B 31 01 89  ..........dak1..
1020: 10 02 02 10 5C 80 80 3B  10 66 9E 80 F0 FF FF 7F  ....\..;.f......
1030: F0 FF FF 7F 64 61 6B 31  01 89 10 02 02 10 4A 80  ....dak1......J.
1040: 80 55 10 66 9E 80 F0 FF  FF 7F F0 FF FF 7F 64 61  .U.f..........da
1050: 6B 31 01 89 10 02 02 10  5D 80 80 6F 10 66 9F 80  k1......]..o.f..
1060: F0 FF FF 7F F0 FF FF 7F  64 61 6B 31 01 89 10 02  ........dak1....
1070: 02 10 5E 80 80 89 10 66  A0 80 F0 FF FF 7F F0 FF  ..^....f........
1080: FF 7F 64 61 6B 31 01 89  10 00                    ..dak1....      
```

#### Opcodes

```
  0: 0x0FB9 [0x02] IF !(Work_Zone[2] == 1*) GOTO 0x0FD3
  1: 0x0FC1 [0x66] LOAD_EXT_SCHEDULER_MAIN: Load scheduler "dak1" with entities [LocalPlayer, LocalPlayer], work=73*
  2: 0x0FD0 [0x01] GOTO 0x1089
  3: 0x0FD3 [0x02] IF !(Work_Zone[2] == 2*) GOTO 0x0FED
  4: 0x0FDB [0x66] LOAD_EXT_SCHEDULER_MAIN: Load scheduler "dak1" with entities [LocalPlayer, LocalPlayer], work=83*
  5: 0x0FEA [0x01] GOTO 0x1089
  6: 0x0FED [0x02] IF !(Work_Zone[2] == 3*) GOTO 0x1007
  7: 0x0FF5 [0x66] LOAD_EXT_SCHEDULER_MAIN: Load scheduler "dak1" with entities [LocalPlayer, LocalPlayer], work=93*
  8: 0x1004 [0x01] GOTO 0x1089
  9: 0x1007 [0x02] IF !(Work_Zone[2] == 4*) GOTO 0x1021
 10: 0x100F [0x66] LOAD_EXT_SCHEDULER_MAIN: Load scheduler "dak1" with entities [LocalPlayer, LocalPlayer], work=103*
 11: 0x101E [0x01] GOTO 0x1089
 12: 0x1021 [0x02] IF !(Work_Zone[2] == 5*) GOTO 0x103B
 13: 0x1029 [0x66] LOAD_EXT_SCHEDULER_MAIN: Load scheduler "dak1" with entities [LocalPlayer, LocalPlayer], work=113*
 14: 0x1038 [0x01] GOTO 0x1089
 15: 0x103B [0x02] IF !(Work_Zone[2] == 6*) GOTO 0x1055
 16: 0x1043 [0x66] LOAD_EXT_SCHEDULER_MAIN: Load scheduler "dak1" with entities [LocalPlayer, LocalPlayer], work=113*
 17: 0x1052 [0x01] GOTO 0x1089
 18: 0x1055 [0x02] IF !(Work_Zone[2] == 7*) GOTO 0x106F
 19: 0x105D [0x66] LOAD_EXT_SCHEDULER_MAIN: Load scheduler "dak1" with entities [LocalPlayer, LocalPlayer], work=123*
 20: 0x106C [0x01] GOTO 0x1089
 21: 0x106F [0x02] IF !(Work_Zone[2] == 8*) GOTO 0x1089
 22: 0x1077 [0x66] LOAD_EXT_SCHEDULER_MAIN: Load scheduler "dak1" with entities [LocalPlayer, LocalPlayer], work=133*
 23: 0x1086 [0x01] GOTO 0x1089

SUBROUTINE_1089:
 24: 0x1089 [0x00] END_REQSTACK()
```

### Event 65535.39

#### Metadata

| Field        | Value     |
|--------------|-----------|
| Entrypoint   | 0x108A    |
| Data Size    | 209 bytes |
| Instructions | 25        |

```
      00 01 02 03 04 05 06 07  08 09 0A 0B 0C 0D 0E 0F
      -- -- -- -- -- -- -- --  -- -- -- -- -- -- -- --
1080:                                02 02 10 03 80 80            ......
1090: A4 10 66 9A 80 F0 FF FF  7F F0 FF FF 7F 64 61 6B  ..f..........dak
10A0: 32 01 5A 11 02 02 10 59  80 80 BE 10 66 9B 80 F0  2.Z....Y....f...
10B0: FF FF 7F F0 FF FF 7F 64  61 6B 32 01 5A 11 02 02  .......dak2.Z...
10C0: 10 5A 80 80 D8 10 66 9C  80 F0 FF FF 7F F0 FF FF  .Z....f.........
10D0: 7F 64 61 6B 32 01 5A 11  02 02 10 5B 80 80 F2 10  .dak2.Z....[....
10E0: 66 9D 80 F0 FF FF 7F F0  FF FF 7F 64 61 6B 32 01  f..........dak2.
10F0: 5A 11 02 02 10 5C 80 80  0C 11 66 9E 80 F0 FF FF  Z....\....f.....
1100: 7F F0 FF FF 7F 64 61 6B  32 01 5A 11 02 02 10 4A  .....dak2.Z....J
1110: 80 80 26 11 66 9E 80 F0  FF FF 7F F0 FF FF 7F 64  ..&.f..........d
1120: 61 6B 32 01 5A 11 02 02  10 5D 80 80 40 11 66 9F  ak2.Z....]..@.f.
1130: 80 F0 FF FF 7F F0 FF FF  7F 64 61 6B 32 01 5A 11  .........dak2.Z.
1140: 02 02 10 5E 80 80 5A 11  66 A0 80 F0 FF FF 7F F0  ...^..Z.f.......
1150: FF FF 7F 64 61 6B 32 01  5A 11 00                 ...dak2.Z..     
```

#### Opcodes

```
  0: 0x108A [0x02] IF !(Work_Zone[2] == 1*) GOTO 0x10A4
  1: 0x1092 [0x66] LOAD_EXT_SCHEDULER_MAIN: Load scheduler "dak2" with entities [LocalPlayer, LocalPlayer], work=73*
  2: 0x10A1 [0x01] GOTO 0x115A
  3: 0x10A4 [0x02] IF !(Work_Zone[2] == 2*) GOTO 0x10BE
  4: 0x10AC [0x66] LOAD_EXT_SCHEDULER_MAIN: Load scheduler "dak2" with entities [LocalPlayer, LocalPlayer], work=83*
  5: 0x10BB [0x01] GOTO 0x115A
  6: 0x10BE [0x02] IF !(Work_Zone[2] == 3*) GOTO 0x10D8
  7: 0x10C6 [0x66] LOAD_EXT_SCHEDULER_MAIN: Load scheduler "dak2" with entities [LocalPlayer, LocalPlayer], work=93*
  8: 0x10D5 [0x01] GOTO 0x115A
  9: 0x10D8 [0x02] IF !(Work_Zone[2] == 4*) GOTO 0x10F2
 10: 0x10E0 [0x66] LOAD_EXT_SCHEDULER_MAIN: Load scheduler "dak2" with entities [LocalPlayer, LocalPlayer], work=103*
 11: 0x10EF [0x01] GOTO 0x115A
 12: 0x10F2 [0x02] IF !(Work_Zone[2] == 5*) GOTO 0x110C
 13: 0x10FA [0x66] LOAD_EXT_SCHEDULER_MAIN: Load scheduler "dak2" with entities [LocalPlayer, LocalPlayer], work=113*
 14: 0x1109 [0x01] GOTO 0x115A
 15: 0x110C [0x02] IF !(Work_Zone[2] == 6*) GOTO 0x1126
 16: 0x1114 [0x66] LOAD_EXT_SCHEDULER_MAIN: Load scheduler "dak2" with entities [LocalPlayer, LocalPlayer], work=113*
 17: 0x1123 [0x01] GOTO 0x115A
 18: 0x1126 [0x02] IF !(Work_Zone[2] == 7*) GOTO 0x1140
 19: 0x112E [0x66] LOAD_EXT_SCHEDULER_MAIN: Load scheduler "dak2" with entities [LocalPlayer, LocalPlayer], work=123*
 20: 0x113D [0x01] GOTO 0x115A
 21: 0x1140 [0x02] IF !(Work_Zone[2] == 8*) GOTO 0x115A
 22: 0x1148 [0x66] LOAD_EXT_SCHEDULER_MAIN: Load scheduler "dak2" with entities [LocalPlayer, LocalPlayer], work=133*
 23: 0x1157 [0x01] GOTO 0x115A

SUBROUTINE_115A:
 24: 0x115A [0x00] END_REQSTACK()
```

### Event 65535.40

#### Metadata

| Field        | Value    |
|--------------|----------|
| Entrypoint   | 0x115B   |
| Data Size    | 48 bytes |
| Instructions | 9        |

```
      00 01 02 03 04 05 06 07  08 09 0A 0B 0C 0D 0E 0F
      -- -- -- -- -- -- -- --  -- -- -- -- -- -- -- --
1150:                                   03 01 00 A1 80             .....
