# Event 65535

## Metadata

| Field           | Value    |
|-----------------|----------|
| Event Index     | 4/6      |
| Offset          | 0x0011   |
| Data Size       | 37 bytes |
| Calculated Size | 37 bytes |
| Instructions    | 13       |

```
      00 01 02 03 04 05 06 07  08 09 0A 0B 0C 0D 0E 0F
      -- -- -- -- -- -- -- --  -- -- -- -- -- -- -- --
0010:    1C 04 80 1E 30 90 0E  01 6F 70 1C 05 80 1E 30   ....0...op....0
0020: 90 0E 01 6F 70 1C 05 80  32 06 80 1F 00 00 80 07  ...op...2.......
0030: 80 02 80 1F 01 00                                 ......          
```

## Opcodes

```
  0: 0x0011 [0x1C] WAIT(30* ticks)
  1: 0x0014 [0x1E] EventEntity looks at Unnamed NPC (ID: 17731632/0x010E9030) and starts talking
  2: 0x0019 [0x6F] WAIT_FRAME_DELAY: Yield until WaitTime reaches zero
  3: 0x001A [0x70] WAIT_ENTITY_RENDER_FLAG: Wait while EventEntity->Render.Flags3 bit 2 is set (cancel turn if not)
  4: 0x001B [0x1C] WAIT(10* ticks)
  5: 0x001E [0x1E] EventEntity looks at Unnamed NPC (ID: 17731632/0x010E9030) and starts talking
  6: 0x0023 [0x6F] WAIT_FRAME_DELAY: Yield until WaitTime reaches zero
  7: 0x0024 [0x70] WAIT_ENTITY_RENDER_FLAG: Wait while EventEntity->Render.Flags3 bit 2 is set (cancel turn if not)
  8: 0x0025 [0x1C] WAIT(10* ticks)
  9: 0x0028 [0x32] ExtData[1]->MainSpeed = 13* * 0.1
 10: 0x002B [0x1F] MOVE_ENTITY: EventEntity moves to X=0.978*, Z=-15.625*, Y=0.000*
 11: 0x0033 [0x1F] MOVE_ENTITY: Update entity position (mode=1)
 12: 0x0035 [0x00] END_REQSTACK()
```
