# Event 65535

## Metadata

| Field           | Value    |
|-----------------|----------|
| Event Index     | 48/56    |
| Offset          | 0x0730   |
| Data Size       | 49 bytes |
| Calculated Size | 49 bytes |
| Instructions    | 7        |

```
      00 01 02 03 04 05 06 07  08 09 0A 0B 0C 0D 0E 0F
      -- -- -- -- -- -- -- --  -- -- -- -- -- -- -- --
0730: 1C A6 80 5B 08 80 06 E2  05 01 06 E2 05 01 65 68  ...[..........eh
0740: 6E 31 4A 06 E2 05 01 43  E2 05 01 6F 76 06 E2 05  n1J....C...ov...
0750: 01 5B A7 80 06 E2 05 01  06 E2 05 01 73 75 72 30  .[..........sur0
0760: 00                                                .               
```

## Opcodes

```
  0: 0x0730 [0x1C] WAIT(160* ticks)
  1: 0x0733 [0x5B] LOAD_EXT_SCHEDULER: Load scheduler "ehn1" with entities [Ajido-Marujido (ID: 17162758/0x0105E206), Ajido-Marujido (ID: 17162758/0x0105E206)], work=1288*
  2: 0x0742 [0x4A] Ajido-Marujido (ID: 17162758/0x0105E206) looks at 01 (ID: 17162819/0x0105E243)
  3: 0x074B [0x6F] WAIT_FRAME_DELAY: Yield until WaitTime reaches zero
  4: 0x074C [0x76] CHECK_ENTITY_RENDER_FLAGS: Wait until Ajido-Marujido (ID: 17162758/0x0105E206) Render.Flags0 and Render.Flags3 conditions are met
  5: 0x0751 [0x5B] LOAD_EXT_SCHEDULER: Load scheduler "sur0" with entities [Ajido-Marujido (ID: 17162758/0x0105E206), Ajido-Marujido (ID: 17162758/0x0105E206)], work=85*
  6: 0x0760 [0x00] END_REQSTACK()
```
