# Event 65535

## Metadata

| Field           | Value    |
|-----------------|----------|
| Event Index     | 39/56    |
| Offset          | 0x053D   |
| Data Size       | 48 bytes |
| Calculated Size | 48 bytes |
| Instructions    | 11       |

```
      00 01 02 03 04 05 06 07  08 09 0A 0B 0C 0D 0E 0F
      -- -- -- -- -- -- -- --  -- -- -- -- -- -- -- --
0530:                                         59 04 F8               Y..
0540: FF FF 7F 85 80 1F 00 90  80 91 80 92 80 1F 01 1F  ................
0550: 00 93 80 94 80 7E 80 1F  01 1F 00 95 80 96 80 7E  .....~.........~
0560: 80 1F 01 6F 22 01 2F 01  F8 FF FF 7F 00           ...o"./......   
```

## Opcodes

```
  0: 0x053D [0x59] UPDATE_ENTITY_DATA: Set EventEntity main speed = 27* * 0.1
  1: 0x0545 [0x1F] MOVE_ENTITY: EventEntity moves to X=-27.766*, Z=73.600*, Y=-3.414*
  2: 0x054D [0x1F] MOVE_ENTITY: Update entity position (mode=1)
  3: 0x054F [0x1F] MOVE_ENTITY: EventEntity moves to X=-52.430*, Z=73.638*, Y=-3.500*
  4: 0x0557 [0x1F] MOVE_ENTITY: Update entity position (mode=1)
  5: 0x0559 [0x1F] MOVE_ENTITY: EventEntity moves to X=-54.193*, Z=72.044*, Y=-3.500*
  6: 0x0561 [0x1F] MOVE_ENTITY: Update entity position (mode=1)
  7: 0x0563 [0x6F] WAIT_FRAME_DELAY: Yield until WaitTime reaches zero
  8: 0x0564 [0x22] ENTITY_HIDE_FLAG(enabled=0x01)
  9: 0x0566 [0x2F] EventEntity->Render.Flags0 |= 0x80000 // Bit 19
 10: 0x056C [0x00] END_REQSTACK()
```
