# Event 65535

## Metadata

| Field           | Value    |
|-----------------|----------|
| Event Index     | 7/7      |
| Offset          | 0x003A   |
| Data Size       | 45 bytes |
| Calculated Size | 45 bytes |
| Instructions    | 12       |

```
      00 01 02 03 04 05 06 07  08 09 0A 0B 0C 0D 0E 0F
      -- -- -- -- -- -- -- --  -- -- -- -- -- -- -- --
0030:                                61 00 32 06 80 1F            a.2...
0040: 00 07 80 08 80 09 80 1F  01 1C 0A 80 5A 00 0B 80  ............Z...
0050: 0C 80 0D 80 5A 01 1C 0E  80 32 0F 80 5A 00 10 80  ....Z....2..Z...
0060: 11 80 12 80 5A 01 00                              ....Z..         
```

## Opcodes

```
  0: 0x003A [0x61] EventEntity->Render.Flags2 &= ~0x00000001
  1: 0x003C [0x32] ExtData[1]->MainSpeed = 30* * 0.1
  2: 0x003F [0x1F] MOVE_ENTITY: EventEntity moves to X=-211.582*, Z=36.514*, Y=-4.125*
  3: 0x0047 [0x1F] MOVE_ENTITY: Update entity position (mode=1)
  4: 0x0049 [0x1C] WAIT(70* ticks)
  5: 0x004C [0x5A] UPDATE_EVENT_POSITION: Set EventEntity MovePosition to X=-210.888*, Z=35.939*, Y=-4.073*
  6: 0x0054 [0x5A] UPDATE_EVENT_POSITION: Move EventEntity incrementally towards MovePosition
  7: 0x0056 [0x1C] WAIT(60* ticks)
  8: 0x0059 [0x32] ExtData[1]->MainSpeed = 25* * 0.1
  9: 0x005C [0x5A] UPDATE_EVENT_POSITION: Set EventEntity MovePosition to X=-205.320*, Z=31.405*, Y=-4.203*
 10: 0x0064 [0x5A] UPDATE_EVENT_POSITION: Move EventEntity incrementally towards MovePosition
 11: 0x0066 [0x00] END_REQSTACK()
```
