# Event 52

## Metadata

| Field           | Value    |
|-----------------|----------|
| Event Index     | 4/11     |
| Offset          | 0x0079   |
| Data Size       | 47 bytes |
| Calculated Size | 47 bytes |
| Instructions    | 11       |

```
      00 01 02 03 04 05 06 07  08 09 0A 0B 0C 0D 0E 0F
      -- -- -- -- -- -- -- --  -- -- -- -- -- -- -- --
0070:                             1E F0 FF FF 7F 6F 70           .....op
0080: 66 00 80 F8 FF FF 7F F8  FF FF 7F 74 6C 6B 30 1D  f..........tlk0.
0090: 04 80 23 1D 05 80 23 66  00 80 F8 FF FF 7F F8 FF  ..#...#f........
00A0: FF 7F 74 6C 6B 31 21 00                           ..tlk1!.        
```

## Opcodes

```
  0: 0x0079 [0x1E] EventEntity looks at LocalPlayer and starts talking
  1: 0x007E [0x6F] WAIT_FRAME_DELAY: Yield until WaitTime reaches zero
  2: 0x007F [0x70] WAIT_ENTITY_RENDER_FLAG: Wait while EventEntity->Render.Flags3 bit 2 is set (cancel turn if not)
  3: 0x0080 [0x66] LOAD_EXT_SCHEDULER_MAIN(work_offset=40*, entity1=EventEntity, entity2=EventEntity, action="tlk0")
  4: 0x008F [0x1D] PRINT_EVENT_MESSAGE(message_id=8326*)
    → "Many of these impedimentarus grow aqui in Yorcia Weald, and I'm in charge of studying how they grow.\u007F1\u0000\u0007"
  5: 0x0092 [0x23] WAIT_FOR_DIALOG_INTERACTION
  6: 0x0093 [0x1D] PRINT_EVENT_MESSAGE(message_id=8327*)
    → "Care to gather some soil samples for me?\u007F1\u0000\u0007"
  7: 0x0096 [0x23] WAIT_FOR_DIALOG_INTERACTION
  8: 0x0097 [0x66] LOAD_EXT_SCHEDULER_MAIN(work_offset=40*, entity1=EventEntity, entity2=EventEntity, action="tlk1")
  9: 0x00A6 [0x21] END_EVENT
 10: 0x00A7 [0x00] END_REQSTACK()
```
