# Event 56

## Metadata

| Field           | Value    |
|-----------------|----------|
| Event Index     | 8/11     |
| Offset          | 0x0183   |
| Data Size       | 58 bytes |
| Calculated Size | 58 bytes |
| Instructions    | 14       |

```
      00 01 02 03 04 05 06 07  08 09 0A 0B 0C 0D 0E 0F
      -- -- -- -- -- -- -- --  -- -- -- -- -- -- -- --
0180:          42 1E F0 FF FF  7F 6F 70 66 00 80 F8 FF     B.....opf....
0190: FF 7F F8 FF FF 7F 74 6C  6B 30 1D 11 80 23 03 02  ......tlk0...#..
01A0: 10 15 80 1D 1B 80 23 66  00 80 F8 FF FF 7F F8 FF  ......#f........
01B0: FF 7F 74 6C 6B 31 03 01  10 0A 80 21 00           ..tlk1.....!.   
```

## Opcodes

```
  0: 0x0183 [0x42] SET_CLI_EVENT_CANCEL_DATA()
  1: 0x0184 [0x1E] EventEntity looks at LocalPlayer and starts talking
  2: 0x0189 [0x6F] WAIT_FRAME_DELAY: Yield until WaitTime reaches zero
  3: 0x018A [0x70] WAIT_ENTITY_RENDER_FLAG: Wait while EventEntity->Render.Flags3 bit 2 is set (cancel turn if not)
  4: 0x018B [0x66] LOAD_EXT_SCHEDULER_MAIN(work_offset=40*, entity1=EventEntity, entity2=EventEntity, action="tlk0")
  5: 0x019A [0x1D] PRINT_EVENT_MESSAGE(message_id=8336*)
    → "Hey, my favorite colonizador\u007F\u0005[/a]! I've been waitaruing for you.\u007F1\u0000\u0007"
  6: 0x019D [0x23] WAIT_FOR_DIALOG_INTERACTION
  7: 0x019E [0x03] Work_Zone[2] = 3*
  8: 0x01A3 [0x1D] PRINT_EVENT_MESSAGE(message_id=8346*)
    → "Tear 'em up from the ground and deliver them to me whole, de acuerdo?\u007F1\u0000\u0007"
  9: 0x01A6 [0x23] WAIT_FOR_DIALOG_INTERACTION
 10: 0x01A7 [0x66] LOAD_EXT_SCHEDULER_MAIN(work_offset=40*, entity1=EventEntity, entity2=EventEntity, action="tlk1")
 11: 0x01B6 [0x03] Work_Zone[1] = 1*
 12: 0x01BB [0x21] END_EVENT
 13: 0x01BC [0x00] END_REQSTACK()
```
