# Event 12

## Metadata

| Field           | Value    |
|-----------------|----------|
| Event Index     | 28/60    |
| Offset          | 0x0272   |
| Data Size       | 16 bytes |
| Calculated Size | 16 bytes |
| Instructions    | 8        |

```
      00 01 02 03 04 05 06 07  08 09 0A 0B 0C 0D 0E 0F
      -- -- -- -- -- -- -- --  -- -- -- -- -- -- -- --
0270:       1A 02 01 1A C0 01  1D 34 80 23 1D 35 80 23    .......4.#.5.#
0280: 21 00                                             !.              
```

## Opcodes

```
  0: 0x0272 [0x1A] CALL_SUBROUTINE(address=0x0102)
  1: 0x0275 [0x1A] CALL_SUBROUTINE(address=0x01C0)
  2: 0x0278 [0x1D] PRINT_EVENT_MESSAGE(message_id=10304*)
    → "Arrrg! You've gathered all the jewels! You'd make a mighty fine pirate. No wonder me daughter likes ya. Now all ya have t'do is take those to the ancient temple on Zepwell Island.\u007F1\u0000\u0007"
  3: 0x027B [0x23] WAIT_FOR_DIALOG_INTERACTION
  4: 0x027C [0x1D] PRINT_EVENT_MESSAGE(message_id=10305*)
    → "You'll find Zepwell Island off the southwest tip of Quon. What, you say that's where you found one of the stone monuments? Well, then ya don't need me directions now, do ya?\u007F1\u0000\u0007"
  5: 0x027F [0x23] WAIT_FOR_DIALOG_INTERACTION
  6: 0x0280 [0x21] END_EVENT
  7: 0x0281 [0x00] END_REQSTACK()
```
