# Event 263

## Metadata

| Field           | Value    |
|-----------------|----------|
| Event Index     | 47/60    |
| Offset          | 0x0DA6   |
| Data Size       | 39 bytes |
| Calculated Size | 39 bytes |
| Instructions    | 11       |

```
      00 01 02 03 04 05 06 07  08 09 0A 0B 0C 0D 0E 0F
      -- -- -- -- -- -- -- --  -- -- -- -- -- -- -- --
0DA0:                   42 4A  F0 FF FF 7F F8 FF FF 7F        BJ........
0DB0: 1E F0 FF FF 7F 6F 76 F8  FF FF 7F 2B 03 C0 0F 01  .....ov....+....
0DC0: 6A 80 23 2B 03 C0 0F 01  6B 80 23 21 00           j.#+....k.#!.   
```

## Opcodes

```
  0: 0x0DA6 [0x42] SET_CLI_EVENT_CANCEL_DATA()
  1: 0x0DA7 [0x4A] LocalPlayer looks at EventEntity
  2: 0x0DB0 [0x1E] EventEntity looks at LocalPlayer and starts talking
  3: 0x0DB5 [0x6F] WAIT_FRAME_DELAY: Yield until WaitTime reaches zero
  4: 0x0DB6 [0x76] CHECK_ENTITY_RENDER_FLAGS: Wait until EventEntity Render.Flags0 and Render.Flags3 conditions are met
  5: 0x0DBB [0x2B] Gilgamesh (ID: 17809411/0x010FC003) [11376*]:
    → "The westerly winds bring wit' 'em tales of destruction from the Near East as well.\u007F1\u0000\u0007"
  6: 0x0DC2 [0x23] WAIT_FOR_DIALOG_INTERACTION
  7: 0x0DC3 [0x2B] Gilgamesh (ID: 17809411/0x010FC003) [11380*]:
    → "Ye be the ballast that keeps Vana'diel upright, \u0008, and the realm needs ye now mor'n ever. This may not be worth a grain of salt, comin' from an old sailor tucked safely away in his captain's quarters, but don't go overboard wit' the heroics.\u007F1\u0000\u0007"
  8: 0x0DCA [0x23] WAIT_FOR_DIALOG_INTERACTION
  9: 0x0DCB [0x21] END_EVENT
 10: 0x0DCC [0x00] END_REQSTACK()
```
