# Event 65535

## Metadata

| Field           | Value    |
|-----------------|----------|
| Event Index     | 13/60    |
| Offset          | 0x005A   |
| Data Size       | 52 bytes |
| Calculated Size | 52 bytes |
| Instructions    | 7        |

```
      00 01 02 03 04 05 06 07  08 09 0A 0B 0C 0D 0E 0F
      -- -- -- -- -- -- -- --  -- -- -- -- -- -- -- --
0050:                                5B 13 80 03 C0 0F            [.....
0060: 01 03 C0 0F 01 66 74 6B  31 53 03 C0 0F 01 03 C0  .....ftk1S......
0070: 0F 01 66 74 6B 31 4B F8  FF FF 7F 12 80 6F 76 F8  ..ftk1K......ov.
0080: FF FF 7F 79 00 F8 FF FF  7F 04 C0 0F 01 00        ...y..........  
```

## Opcodes

```
  0: 0x005A [0x5B] LOAD_EXT_SCHEDULER(work_offset=566*, entity1=Gilgamesh (ID: 17809411/0x010FC003), entity2=Gilgamesh (ID: 17809411/0x010FC003), action="ftk1")
  1: 0x0069 [0x53] WAIT_SCHEDULER_TASK(entity1=Gilgamesh (ID: 17809411/0x010FC003), entity2=Gilgamesh (ID: 17809411/0x010FC003), action_id="ftk1")
  2: 0x0076 [0x4B] UPDATE_ENTITY_YAW(entity=EventEntity, yaw=15.45°*)
  3: 0x007D [0x6F] WAIT_FRAME_DELAY: Yield until WaitTime reaches zero
  4: 0x007E [0x76] CHECK_ENTITY_RENDER_FLAGS: Wait until EventEntity Render.Flags0 and Render.Flags3 conditions are met
  5: 0x0083 [0x79] EventEntity looks at Kamui (ID: 17809412/0x010FC004) (Basic look)
  6: 0x008D [0x00] END_REQSTACK()
```
