# Event 11

## Metadata

| Field           | Value    |
|-----------------|----------|
| Event Index     | 3/3      |
| Offset          | 0x0034   |
| Data Size       | 47 bytes |
| Calculated Size | 47 bytes |
| Instructions    | 11       |

```
      00 01 02 03 04 05 06 07  08 09 0A 0B 0C 0D 0E 0F
      -- -- -- -- -- -- -- --  -- -- -- -- -- -- -- --
0030:             1E F0 FF FF  7F 6F 70 66 00 80 F8 FF      .....opf....
0040: FF 7F F8 FF FF 7F 74 6C  73 30 1D 04 80 23 1D 05  ......tls0...#..
0050: 80 23 66 00 80 F8 FF FF  7F F8 FF FF 7F 74 6C 73  .#f..........tls
0060: 31 21 00                                          1!.             
```

## Opcodes

```
  0: 0x0034 [0x1E] EventEntity looks at LocalPlayer and starts talking
  1: 0x0039 [0x6F] WAIT_FRAME_DELAY: Yield until WaitTime reaches zero
  2: 0x003A [0x70] WAIT_ENTITY_RENDER_FLAG: Wait while EventEntity->Render.Flags3 bit 2 is set (cancel turn if not)
  3: 0x003B [0x66] LOAD_EXT_SCHEDULER_MAIN: Load scheduler "tls0" with entities [EventEntity, EventEntity], work=19*
  4: 0x004A [0x1D] PRINT_EVENT_MESSAGE(message_id=10469*)
    → "Have you had the chance to venture down into the Rala Waterways?\u007F1\u0000\u0007"
  5: 0x004D [0x23] WAIT_FOR_DIALOG_INTERACTION
  6: 0x004E [0x1D] PRINT_EVENT_MESSAGE(message_id=10470*)
    → "One of my acquaintances works in the Civic Arboretum there. Should you ever tire of culling the monstrosities that lurk down there, please say hi for me.\u007F1\u0000\u0007"
  7: 0x0051 [0x23] WAIT_FOR_DIALOG_INTERACTION
  8: 0x0052 [0x66] LOAD_EXT_SCHEDULER_MAIN: Load scheduler "tls1" with entities [EventEntity, EventEntity], work=19*
  9: 0x0061 [0x21] END_EVENT
 10: 0x0062 [0x00] END_REQSTACK()
```
