# 17604686

## Common Data

| Field            | Value                        |
|------------------|------------------------------|
| Zone             | Cloister of Storms (ID: 202) |
| Block Size       | 760 bytes                    |
| Total Events     | 3                            |
| References Count | 22                           |

## List of Events

| Event ID              | Entrypoint   |   Size |   Instructions |
|-----------------------|--------------|--------|----------------|
| [65535](#event-65535) | 0x0000       |      1 |              1 |
| [3](#event-3)         | 0x0001       |     29 |              7 |
| [2](#event-2)         | 0x001E       |    611 |             85 |

## DAT References (imed_data)

|   Index | Hex Value   |   Dec Value |
|---------|-------------|-------------|
|       0 | 0x01FB      |         507 |
|       1 | 0x0013      |          19 |
|       2 | 0x8303D     |      536637 |
|       3 | 0x78C61     |      494689 |
|       4 | 0xFFFFCB25  |  4294953765 |
|       5 | 0x05E7      |        1511 |
|       6 | 0x82A30     |      535088 |
|       7 | 0x785D4     |      493012 |
|       8 | 0x000F      |          15 |
|       9 | 0x0400      |        1024 |
|      10 | 0x001E      |          30 |
|      11 | 0x0001      |           1 |
|      12 | 0x0003      |           3 |
|      13 | 0x0000      |           0 |
|      14 | 0x0002      |           2 |
|      15 | 0x00C8      |         200 |
|      16 | 0x1E07      |        7687 |
|      17 | 0x01D9      |         473 |
|      18 | 0x0180      |         384 |
|      19 | 0x0014      |          20 |
|      20 | 0x00C9      |         201 |
|      21 | 0x00D7      |         215 |

## String References

- **7687**: 

## Events

### Event 65535

#### Metadata

| Field        | Value   |
|--------------|---------|
| Entrypoint   | 0x0000  |
| Data Size    | 1 bytes |
| Instructions | 1       |

```
      00 01 02 03 04 05 06 07  08 09 0A 0B 0C 0D 0E 0F
      -- -- -- -- -- -- -- --  -- -- -- -- -- -- -- --
0000: 00                                                .               
```

#### Opcodes

```
  0: 0x0000 [0x00] END_REQSTACK()
```

### Event 3

#### Metadata

| Field        | Value    |
|--------------|----------|
| Entrypoint   | 0x0001   |
| Data Size    | 29 bytes |
| Instructions | 7        |

```
      00 01 02 03 04 05 06 07  08 09 0A 0B 0C 0D 0E 0F
      -- -- -- -- -- -- -- --  -- -- -- -- -- -- -- --
0000:    42 4A F0 FF FF 7F 35  A0 0C 01 6F 76 F0 FF FF   BJ....5...ov...
0010: 7F 73 00 80 F0 FF FF 7F  F0 FF FF 7F 21 00        .s..........!.  
```

#### Opcodes

```
  0: 0x0001 [0x42] SET_CLI_EVENT_CANCEL_DATA()
  1: 0x0002 [0x4A] LocalPlayer looks at Lightning Protocrystal (ID: 17604661/0x010CA035)
  2: 0x000B [0x6F] WAIT_FRAME_DELAY: Yield until WaitTime reaches zero
  3: 0x000C [0x76] CHECK_ENTITY_RENDER_FLAGS: Wait until LocalPlayer Render.Flags0 and Render.Flags3 conditions are met
  4: 0x0011 [0x73] LocalPlayer casts magic 507* on LocalPlayer
  5: 0x001C [0x21] END_EVENT
  6: 0x001D [0x00] END_REQSTACK()
```

### Event 2

#### Metadata

| Field        | Value     |
|--------------|-----------|
| Entrypoint   | 0x001E    |
| Data Size    | 611 bytes |
| Instructions | 60        |

```
      00 01 02 03 04 05 06 07  08 09 0A 0B 0C 0D 0E 0F
      -- -- -- -- -- -- -- --  -- -- -- -- -- -- -- --
0010:                                            42 1A                B.
0020: BB 01 46 01 38 01 80 27  10 F0 FF FF 7F 0A 27 10  ..F.8..'......'.
0030: 4F A0 0C 01 01 59 05 4F  A0 0C 01 01 BA F0 FF FF  O....Y.O........
0040: 7F 02 80 03 80 04 80 05  80 BA 4F A0 0C 01 06 80  ..........O.....
0050: 07 80 04 80 05 80 80 F0  FF FF 7F 80 4F A0 0C 01  ............O...
0060: 1C 08 80 7B F0 FF FF 7F  4A 4F A0 0C 01 F0 FF FF  ...{....JO......
0070: 7F 6F 76 4F A0 0C 01 1C  08 80 3A 4F A0 0C 01 01  .ovO......:O....
0080: 00 07 01 00 09 80 4B 4F  A0 0C 01 01 00 6F 76 4F  ......KO.....ovO
0090: A0 0C 01 1C 0A 80 03 00  00 0B 80 02 00 00 0C 80  ................
00A0: 05 C1 00 02 0D 80 00 00  04 B9 00 02 00 00 0E 80  ................
00B0: 80 B9 00 1A 9A 01 01 B9  00 07 00 00 0B 80 01 9B  ................
00C0: 00 03 00 00 0B 80 02 00  00 0C 80 05 E1 00 02 0D  ................
00D0: 80 00 00 05 D9 00 1A 09  01 07 00 00 0B 80 01 C6  ................
00E0: 00 1A BB 01 1C 0A 80 46  00 45 0F 80 F0 FF FF 7F  .......F.E......
00F0: F0 FF FF 7F 66 64 69 32  0D 80 21 00 02 0D 80 0B  ....fdi2..!.....
0100: 80 00 08 01 48 10 80 23  1B 02 00 00 0B 80 80 57  ....H..#.......W
0110: 01 45 11 80 F0 FF FF 7F  F0 FF FF 7F 35 30 30 61  .E..........500a
0120: 0D 80 79 02 F0 FF FF 7F  12 80 0D 80 6E F0 FF FF  ..y.........n...
0130: 7F 0D 80 99 F0 FF FF 7F  1A 9A 01 29 10 4F A0 0C  ...........).O..
0140: 01 06 1C 13 80 55 11 80  F0 FF FF 7F F0 FF FF 7F  .....U..........
0150: 35 30 30 61 01 57 01 1B  45 0F 80 F0 FF FF 7F F0  500a.W..E.......
0160: FF FF 7F 66 64 69 30 0D  80 55 0F 80 F0 FF FF 7F  ...fdi0..U......
0170: F0 FF FF 7F 66 64 69 30  1B 45 0F 80 F0 FF FF 7F  ....fdi0.E......
0180: F0 FF FF 7F 66 64 6F 30  0D 80 55 0F 80 F0 FF FF  ....fdo0..U.....
0190: 7F F0 FF FF 7F 66 64 6F  30 1B 45 0F 80 F0 FF FF  .....fdo0.E.....
01A0: 7F F0 FF FF 7F 66 64 69  31 0D 80 55 0F 80 F0 FF  .....fdi1..U....
01B0: FF 7F F0 FF FF 7F 66 64  69 31 1B 45 0F 80 F0 FF  ......fdi1.E....
01C0: FF 7F F0 FF FF 7F 66 64  6F 31 0D 80 55 0F 80 F0  ......fdo1..U...
01D0: FF FF 7F F0 FF FF 7F 66  64 6F 31 1B 45 14 80 F0  .......fdo1.E...
01E0: FF FF 7F F0 FF FF 7F 77  68 69 31 0D 80 55 14 80  .......whi1..U..
01F0: F0 FF FF 7F F0 FF FF 7F  77 68 69 31 1B 45 14 80  ........whi1.E..
0200: F0 FF FF 7F F0 FF FF 7F  77 68 6F 31 0D 80 55 14  ........who1..U.
0210: 80 F0 FF FF 7F F0 FF FF  7F 77 68 6F 31 1B 45 14  .........who1.E.
0220: 80 F0 FF FF 7F F0 FF FF  7F 77 68 69 30 0D 80 55  .........whi0..U
0230: 14 80 F0 FF FF 7F F0 FF  FF 7F 77 68 69 30 1B 45  ..........whi0.E
0240: 14 80 F0 FF FF 7F F0 FF  FF 7F 77 68 6F 30 0D 80  ..........who0..
0250: 55 14 80 F0 FF FF 7F F0  FF FF 7F 77 68 6F 30 1B  U..........who0.
0260: 45 15 80 F0 FF FF 7F F0  FF FF 7F 65 66 6F 6E 0D  E..........efon.
0270: 80 55 15 80 F0 FF FF 7F  F0 FF FF 7F 65 66 6F 6E  .U..........efon
0280: 1B                                                .               
```

#### Opcodes

```
  0: 0x001E [0x42] SET_CLI_EVENT_CANCEL_DATA()
  1: 0x001F [0x1A] CALL_SUBROUTINE(address=0x01BB)
  2: 0x0022 [0x46] CAMERA_CONTROL: Disable user control
  3: 0x0024 [0x38] SET_CLIENT_EVENT_MODE(mode=19*)
  4: 0x0027 [0x27] REQ_SET(priority=0x10, entity_id=LocalPlayer, tag_num=0x0A)
  5: 0x002E [0x27] REQ_SET(priority=0x10, entity_id=??? (ID: 17604687/0x010CA04F), tag_num=0x01)
  6: 0x0035 [0x59] UPDATE_ENTITY_DATA: ??? (ID: 17604687/0x010CA04F)->Render.Flags0 |= 0x200000
  7: 0x003C [0xBA] SET_ENTITY_POSITION(entity_id=LocalPlayer, pos_x=536.637*, pos_z=494.689*, pos_y=-13.531*, direction=132.8°*)
  8: 0x0049 [0xBA] SET_ENTITY_POSITION(entity_id=??? (ID: 17604687/0x010CA04F), pos_x=535.088*, pos_z=493.012*, pos_y=-13.531*, direction=132.8°*)
  9: 0x0056 [0x80] LOAD_WAIT(entity=LocalPlayer)
 10: 0x005B [0x80] LOAD_WAIT(entity=??? (ID: 17604687/0x010CA04F))
 11: 0x0060 [0x1C] WAIT(15* ticks)
 12: 0x0063 [0x7B] LocalPlayer stops talking
 13: 0x0068 [0x4A] ??? (ID: 17604687/0x010CA04F) looks at LocalPlayer
 14: 0x0071 [0x6F] WAIT_FRAME_DELAY: Yield until WaitTime reaches zero
 15: 0x0072 [0x76] CHECK_ENTITY_RENDER_FLAGS: Wait until ??? (ID: 17604687/0x010CA04F) Render.Flags0 and Render.Flags3 conditions are met
 16: 0x0077 [0x1C] WAIT(15* ticks)
 17: 0x007A [0x3A] CONVERT_YAW_TO_BYTE(entity=??? (ID: 17604687/0x010CA04F), result_destination=ExtData[1]->WorkLocal[1])
 18: 0x0081 [0x07] ExtData[1]->WorkLocal[1] += 1024*
 19: 0x0086 [0x4B] UPDATE_ENTITY_YAW(entity=??? (ID: 17604687/0x010CA04F), yaw=ExtData[1]->WorkLocal[1])
 20: 0x008D [0x6F] WAIT_FRAME_DELAY: Yield until WaitTime reaches zero
 21: 0x008E [0x76] CHECK_ENTITY_RENDER_FLAGS: Wait until ??? (ID: 17604687/0x010CA04F) Render.Flags0 and Render.Flags3 conditions are met
 22: 0x0093 [0x1C] WAIT(30* ticks)
 23: 0x0096 [0x03] ExtData[1]->WorkLocal[0] = 1*
 24: 0x009B [0x02] IF !(ExtData[1]->WorkLocal[0] > 3*) GOTO 0x00C1
 25: 0x00A3 [0x02] IF !(0* < ExtData[1]->WorkLocal[0]) GOTO 0x00B9
 26: 0x00AB [0x02] IF !(ExtData[1]->WorkLocal[0] == 2*) GOTO 0x00B9
 27: 0x00B3 [0x1A] CALL_SUBROUTINE(address=0x019A)
 28: 0x00B6 [0x01] GOTO 0x00B9

SUBROUTINE_00B9:
 29: 0x00B9 [0x07] ExtData[1]->WorkLocal[0] += 1*
 30: 0x00BE [0x01] GOTO 0x009B
 31: 0x00C1 [0x03] ExtData[1]->WorkLocal[0] = 1*

SUBROUTINE_00C6:
 32: 0x00C6 [0x02] IF !(ExtData[1]->WorkLocal[0] > 3*) GOTO 0x00E1
 33: 0x00CE [0x02] IF !(0* > ExtData[1]->WorkLocal[0]) GOTO 0x00D9
 34: 0x00D6 [0x1A] CALL_SUBROUTINE(address=0x0109)
 35: 0x00D9 [0x07] ExtData[1]->WorkLocal[0] += 1*
 36: 0x00DE [0x01] GOTO 0x00C6
 37: 0x00E1 [0x1A] CALL_SUBROUTINE(address=0x01BB)
 38: 0x00E4 [0x1C] WAIT(30* ticks)
 39: 0x00E7 [0x46] CAMERA_CONTROL: Restore default settings
 40: 0x00E9 [0x45] LOAD_SCHEDULED_TASK: Load scheduler "fdi2" with entities [LocalPlayer, LocalPlayer], work=[200*, 0*]
 41: 0x00FA [0x21] END_EVENT
 42: 0x00FB [0x00] END_REQSTACK()

SUBROUTINE_0109:
 43: 0x0109 [0x02] IF !(ExtData[1]->WorkLocal[0] == 1*) GOTO 0x0157
 44: 0x0111 [0x45] LOAD_SCHEDULED_TASK: Load scheduler "500a" with entities [LocalPlayer, LocalPlayer], work=[473*, 0*]
 45: 0x0122 [0x79] LocalPlayer looks at Unknown NPC (ID: 2148368402/0x800D8012) (Direct axis set)
 46: 0x012C [0x6E] LocalPlayer uses emote 0*
 47: 0x0133 [0x99] Wait for LocalPlayer animation to complete
 48: 0x0138 [0x1A] CALL_SUBROUTINE(address=0x019A)
 49: 0x013B [0x29] REQ_SET_WAIT(priority=0x10, entity_id=??? (ID: 17604687/0x010CA04F), tag_num=0x06)
 50: 0x0142 [0x1C] WAIT(20* ticks)
 51: 0x0145 [0x55] WAIT_LOAD_SCHEDULER: Wait for scheduler "500a" with entities [LocalPlayer, LocalPlayer], work=473*
 52: 0x0154 [0x01] GOTO 0x0157

SUBROUTINE_0157:
 53: 0x0157 [0x1B] RETURN

SUBROUTINE_019A:
 54: 0x019A [0x45] LOAD_SCHEDULED_TASK: Load scheduler "fdi1" with entities [LocalPlayer, LocalPlayer], work=[200*, 0*]
 55: 0x01AB [0x55] WAIT_LOAD_SCHEDULER: Wait for scheduler "fdi1" with entities [LocalPlayer, LocalPlayer], work=200*
 56: 0x01BA [0x1B] RETURN

SUBROUTINE_01BB:
 57: 0x01BB [0x45] LOAD_SCHEDULED_TASK: Load scheduler "fdo1" with entities [LocalPlayer, LocalPlayer], work=[200*, 0*]
 58: 0x01CC [0x55] WAIT_LOAD_SCHEDULER: Wait for scheduler "fdo1" with entities [LocalPlayer, LocalPlayer], work=200*
 59: 0x01DB [0x1B] RETURN
```

#### Data or dead code:

```
# Dead code (unreachable instructions):
     0x00FC [0x02] IF !(0* == 1*) GOTO 0x0108
     0x0104 [0x48] [System] [7687*]:
    → ""
     0x0107 [0x23] WAIT_FOR_DIALOG_INTERACTION
     0x0108 [0x1B] RETURN
# Dead code (unreachable instructions):
     0x0158 [0x45] LOAD_SCHEDULED_TASK: Load scheduler "fdi0" with entities [LocalPlayer, LocalPlayer], work=[200*, 0*]
     0x0169 [0x55] WAIT_LOAD_SCHEDULER: Wait for scheduler "fdi0" with entities [LocalPlayer, LocalPlayer], work=200*
     0x0178 [0x1B] RETURN
     0x0179 [0x45] LOAD_SCHEDULED_TASK: Load scheduler "fdo0" with entities [LocalPlayer, LocalPlayer], work=[200*, 0*]
     0x018A [0x55] WAIT_LOAD_SCHEDULER: Wait for scheduler "fdo0" with entities [LocalPlayer, LocalPlayer], work=200*
     0x0199 [0x1B] RETURN
# Dead code (unreachable instructions):
     0x01DC [0x45] LOAD_SCHEDULED_TASK: Load scheduler "whi1" with entities [LocalPlayer, LocalPlayer], work=[201*, 0*]
     0x01ED [0x55] WAIT_LOAD_SCHEDULER: Wait for scheduler "whi1" with entities [LocalPlayer, LocalPlayer], work=201*
     0x01FC [0x1B] RETURN
     0x01FD [0x45] LOAD_SCHEDULED_TASK: Load scheduler "who1" with entities [LocalPlayer, LocalPlayer], work=[201*, 0*]
     0x020E [0x55] WAIT_LOAD_SCHEDULER: Wait for scheduler "who1" with entities [LocalPlayer, LocalPlayer], work=201*
     0x021D [0x1B] RETURN
     0x021E [0x45] LOAD_SCHEDULED_TASK: Load scheduler "whi0" with entities [LocalPlayer, LocalPlayer], work=[201*, 0*]
     0x022F [0x55] WAIT_LOAD_SCHEDULER: Wait for scheduler "whi0" with entities [LocalPlayer, LocalPlayer], work=201*
     0x023E [0x1B] RETURN
     0x023F [0x45] LOAD_SCHEDULED_TASK: Load scheduler "who0" with entities [LocalPlayer, LocalPlayer], work=[201*, 0*]
     0x0250 [0x55] WAIT_LOAD_SCHEDULER: Wait for scheduler "who0" with entities [LocalPlayer, LocalPlayer], work=201*
     0x025F [0x1B] RETURN
     0x0260 [0x45] LOAD_SCHEDULED_TASK: Load scheduler "efon" with entities [LocalPlayer, LocalPlayer], work=[215*, 0*]
     0x0271 [0x55] WAIT_LOAD_SCHEDULER: Wait for scheduler "efon" with entities [LocalPlayer, LocalPlayer], work=215*
     0x0280 [0x1B] RETURN
```
