# Event 107

## Metadata

| Field           | Value    |
|-----------------|----------|
| Event Index     | 38/55    |
| Offset          | 0x0498   |
| Data Size       | 33 bytes |
| Calculated Size | 33 bytes |
| Instructions    | 12       |

```
      00 01 02 03 04 05 06 07  08 09 0A 0B 0C 0D 0E 0F
      -- -- -- -- -- -- -- --  -- -- -- -- -- -- -- --
0490:                          1E F0 FF FF 7F 6F 70 29          .....op)
04A0: 0B 30 70 0F 01 01 1D 26  80 23 1D 27 80 23 29 0B  .0p....&.#.'.#).
04B0: 30 70 0F 01 02 20 00 21  00                       0p... .!.       
```

## Opcodes

```
  0: 0x0498 [0x1E] EventEntity looks at LocalPlayer and starts talking
  1: 0x049D [0x6F] WAIT_FRAME_DELAY: Yield until WaitTime reaches zero
  2: 0x049E [0x70] WAIT_ENTITY_RENDER_FLAG: Wait while EventEntity->Render.Flags3 bit 2 is set (cancel turn if not)
  3: 0x049F [0x29] REQ_SET_WAIT(priority=0x0B, entity_id=Agado-Pugado (ID: 17788976/0x010F7030), tag_num=0x01)
  4: 0x04A6 [0x1D] PRINT_EVENT_MESSAGE(message_id=10153*)
    → "What? You want another \u0001\u00053\u0002\u0001\u0000\u0000?\u007F1\u0000\u0007"
  5: 0x04A9 [0x23] WAIT_FOR_DIALOG_INTERACTION
  6: 0x04AA [0x1D] PRINT_EVENT_MESSAGE(message_id=10154*)
    → "Oh, all right... But be careful-wareful with this one! These things don't grow on star trees, you know.\u007F1\u0000\u0007"
  7: 0x04AD [0x23] WAIT_FOR_DIALOG_INTERACTION
  8: 0x04AE [0x29] REQ_SET_WAIT(priority=0x0B, entity_id=Agado-Pugado (ID: 17788976/0x010F7030), tag_num=0x02)
  9: 0x04B5 [0x20] SET_CLI_EVENT_UC_FLAG: Unlock player control
 10: 0x04B7 [0x21] END_EVENT
 11: 0x04B8 [0x00] END_REQSTACK()
```
