# Event 65535

## Metadata

| Field           | Value    |
|-----------------|----------|
| Event Index     | 15/32    |
| Offset          | 0x0089   |
| Data Size       | 62 bytes |
| Calculated Size | 62 bytes |
| Instructions    | 6        |

```
      00 01 02 03 04 05 06 07  08 09 0A 0B 0C 0D 0E 0F
      -- -- -- -- -- -- -- --  -- -- -- -- -- -- -- --
0080:                             BB 0B 80 7E 62 0B 01           ...~b..
0090: 7E 62 0B 01 73 74 30 31  00 80 1C 0C 80 BB 0B 80  ~b..st01........
00A0: 7E 62 0B 01 7E 62 0B 01  73 74 30 32 00 80 27 10  ~b..~b..st02..'.
00B0: 83 62 0B 01 09 45 0D 80  F8 FF FF 7F F8 FF FF 7F  .b...E..........
00C0: 64 62 6E 30 00 80 00                              dbn0...         
```

## Opcodes

```
  0: 0x0089 [0xBB] LOAD_EVENT_SCHEDULER_ALT: Load scheduler "st01" with entities [03 (ID: 17523326/0x010B627E), 03 (ID: 17523326/0x010B627E)], work=[156*, 0*]
  1: 0x009A [0x1C] WAIT(200* ticks)
  2: 0x009D [0xBB] LOAD_EVENT_SCHEDULER_ALT: Load scheduler "st02" with entities [03 (ID: 17523326/0x010B627E), 03 (ID: 17523326/0x010B627E)], work=[156*, 0*]
  3: 0x00AE [0x27] REQ_SET(priority=0x10, entity_id=??? (ID: 17523331/0x010B6283), tag_num=0x09)
  4: 0x00B5 [0x45] LOAD_SCHEDULED_TASK: Load scheduler "dbn0" with entities [EventEntity, EventEntity], work=[482*, 0*]
  5: 0x00C6 [0x00] END_REQSTACK()
```
