# Event 65535

## Metadata

| Field           | Value    |
|-----------------|----------|
| Event Index     | 28/35    |
| Offset          | 0x01A2   |
| Data Size       | 50 bytes |
| Calculated Size | 50 bytes |
| Instructions    | 11       |

```
      00 01 02 03 04 05 06 07  08 09 0A 0B 0C 0D 0E 0F
      -- -- -- -- -- -- -- --  -- -- -- -- -- -- -- --
01A0:       59 04 F8 FF FF 7F  1F 80 1F 00 3C 80 3D 80    Y.........<.=.
01B0: 3E 80 1F 01 1F 00 3F 80  40 80 41 80 1F 01 1F 00  >.....?.@.A.....
01C0: 42 80 43 80 44 80 1F 01  1F 00 45 80 46 80 47 80  B.C.D.....E.F.G.
01D0: 1F 01 6F 00                                       ..o.            
```

## Opcodes

```
  0: 0x01A2 [0x59] UPDATE_ENTITY_DATA: Set EventEntity main speed = 13* * 0.1
  1: 0x01AA [0x1F] MOVE_ENTITY: EventEntity moves to X=-101.214*, Z=58.034*, Y=-63.136*
  2: 0x01B2 [0x1F] MOVE_ENTITY: Update entity position (mode=1)
  3: 0x01B4 [0x1F] MOVE_ENTITY: EventEntity moves to X=-101.217*, Z=58.773*, Y=-63.153*
  4: 0x01BC [0x1F] MOVE_ENTITY: Update entity position (mode=1)
  5: 0x01BE [0x1F] MOVE_ENTITY: EventEntity moves to X=-100.638*, Z=59.669*, Y=-63.194*
  6: 0x01C6 [0x1F] MOVE_ENTITY: Update entity position (mode=1)
  7: 0x01C8 [0x1F] MOVE_ENTITY: EventEntity moves to X=-99.859*, Z=67.507*, Y=-62.985*
  8: 0x01D0 [0x1F] MOVE_ENTITY: Update entity position (mode=1)
  9: 0x01D2 [0x6F] WAIT_FRAME_DELAY: Yield until WaitTime reaches zero
 10: 0x01D3 [0x00] END_REQSTACK()
```
