# Event 145

## Metadata

| Field           | Value    |
|-----------------|----------|
| Event Index     | 42/79    |
| Offset          | 0x097C   |
| Data Size       | 43 bytes |
| Calculated Size | 43 bytes |
| Instructions    | 12       |

```
      00 01 02 03 04 05 06 07  08 09 0A 0B 0C 0D 0E 0F
      -- -- -- -- -- -- -- --  -- -- -- -- -- -- -- --
0970:                                      1E F0 FF FF              ....
0980: 7F 6F 70 29 08 2E A0 0F  01 03 1D 44 80 23 29 08  .op).......D.#).
0990: 2E A0 0F 01 04 29 08 2E  A0 0F 01 05 29 08 2E A0  .....)......)...
09A0: 0F 01 06 20 00 21 00                              ... .!.         
```

## Opcodes

```
  0: 0x097C [0x1E] EventEntity looks at LocalPlayer and starts talking
  1: 0x0981 [0x6F] WAIT_FRAME_DELAY: Yield until WaitTime reaches zero
  2: 0x0982 [0x70] WAIT_ENTITY_RENDER_FLAG: Wait while EventEntity->Render.Flags3 bit 2 is set (cancel turn if not)
  3: 0x0983 [0x29] REQ_SET_WAIT(priority=0x08, entity_id=Magriffon (ID: 17801262/0x010FA02E), tag_num=0x03)
  4: 0x098A [0x1D] PRINT_EVENT_MESSAGE(message_id=10278*)
    → "If I only had 
\u0001 gil, then I could complete my mission.\u007F1\u0000\u0007"
  5: 0x098D [0x23] WAIT_FOR_DIALOG_INTERACTION
  6: 0x098E [0x29] REQ_SET_WAIT(priority=0x08, entity_id=Magriffon (ID: 17801262/0x010FA02E), tag_num=0x04)
  7: 0x0995 [0x29] REQ_SET_WAIT(priority=0x08, entity_id=Magriffon (ID: 17801262/0x010FA02E), tag_num=0x05)
  8: 0x099C [0x29] REQ_SET_WAIT(priority=0x08, entity_id=Magriffon (ID: 17801262/0x010FA02E), tag_num=0x06)
  9: 0x09A3 [0x20] SET_CLI_EVENT_UC_FLAG: Unlock player control
 10: 0x09A5 [0x21] END_EVENT
 11: 0x09A6 [0x00] END_REQSTACK()
```
