# Event 153

## Metadata

| Field           | Value    |
|-----------------|----------|
| Event Index     | 74/79    |
| Offset          | 0x15F3   |
| Data Size       | 26 bytes |
| Calculated Size | 26 bytes |
| Instructions    | 11       |

```
      00 01 02 03 04 05 06 07  08 09 0A 0B 0C 0D 0E 0F
      -- -- -- -- -- -- -- --  -- -- -- -- -- -- -- --
15F0:          1E F0 FF FF 7F  6F 70 29 08 F0 FF FF 7F     .....op).....
1600: 03 1D 74 80 23 1D 75 80  23 20 00 21 00           ..t.#.u.# .!.   
```

## Opcodes

```
  0: 0x15F3 [0x1E] EventEntity looks at LocalPlayer and starts talking
  1: 0x15F8 [0x6F] WAIT_FRAME_DELAY: Yield until WaitTime reaches zero
  2: 0x15F9 [0x70] WAIT_ENTITY_RENDER_FLAG: Wait while EventEntity->Render.Flags3 bit 2 is set (cancel turn if not)
  3: 0x15FA [0x29] REQ_SET_WAIT(priority=0x08, entity_id=LocalPlayer, tag_num=0x03)
  4: 0x1601 [0x1D] PRINT_EVENT_MESSAGE(message_id=10324*)
    → "\u007F\u0000\u0001\u0001\u0005%\u0002\u0001\u0000\u0000 can be sold for quite a nice profit at most shops.\u007F1\u0000\u0007"
  5: 0x1604 [0x23] WAIT_FOR_DIALOG_INTERACTION
  6: 0x1605 [0x1D] PRINT_EVENT_MESSAGE(message_id=10325*)
    → "No, no. I need no thanks. May fortune shine upon all your journeys, \u007F\u0005[my friend/my sweet]!\u007F1\u0000\u0007"
  7: 0x1608 [0x23] WAIT_FOR_DIALOG_INTERACTION
  8: 0x1609 [0x20] SET_CLI_EVENT_UC_FLAG: Unlock player control
  9: 0x160B [0x21] END_EVENT
 10: 0x160C [0x00] END_REQSTACK()
```
