# Event 302

## Metadata

| Field           | Value    |
|-----------------|----------|
| Event Index     | 79/79    |
| Offset          | 0x1653   |
| Data Size       | 40 bytes |
| Calculated Size | 40 bytes |
| Instructions    | 13       |

```
      00 01 02 03 04 05 06 07  08 09 0A 0B 0C 0D 0E 0F
      -- -- -- -- -- -- -- --  -- -- -- -- -- -- -- --
1650:          1E F0 FF FF 7F  6F 70 29 08 F0 FF FF 7F     .....op).....
1660: 03 29 08 2E A0 0F 01 01  1D 79 80 23 1D 7A 80 23  .).......y.#.z.#
1670: 29 08 2E A0 0F 01 02 20  00 21 00                 )...... .!.     
```

## Opcodes

```
  0: 0x1653 [0x1E] EventEntity looks at LocalPlayer and starts talking
  1: 0x1658 [0x6F] WAIT_FRAME_DELAY: Yield until WaitTime reaches zero
  2: 0x1659 [0x70] WAIT_ENTITY_RENDER_FLAG: Wait while EventEntity->Render.Flags3 bit 2 is set (cancel turn if not)
  3: 0x165A [0x29] REQ_SET_WAIT(priority=0x08, entity_id=LocalPlayer, tag_num=0x03)
  4: 0x1661 [0x29] REQ_SET_WAIT(priority=0x08, entity_id=Magriffon (ID: 17801262/0x010FA02E), tag_num=0x01)
  5: 0x1668 [0x1D] PRINT_EVENT_MESSAGE(message_id=10794*)
    → "Let us overcome all obstacles that stand between us and the completion of our duty!\u007F1\u0000\u0007"
  6: 0x166B [0x23] WAIT_FOR_DIALOG_INTERACTION
  7: 0x166C [0x1D] PRINT_EVENT_MESSAGE(message_id=10793*)
    → "Hahaha!\u0007May dazzling fortune smile upon thee, my \u000C\u0000[reason for breathing/daring adventurer]!\u007F1\u0000\u0007"
  8: 0x166F [0x23] WAIT_FOR_DIALOG_INTERACTION
  9: 0x1670 [0x29] REQ_SET_WAIT(priority=0x08, entity_id=Magriffon (ID: 17801262/0x010FA02E), tag_num=0x02)
 10: 0x1677 [0x20] SET_CLI_EVENT_UC_FLAG: Unlock player control
 11: 0x1679 [0x21] END_EVENT
 12: 0x167A [0x00] END_REQSTACK()
```
