# 17965088 - Dimensional Portal

## Common Data

| Field            | Value                                 |
|------------------|---------------------------------------|
| Zone             | Desuetia - Empyreal Paradox (ID: 290) |
| Block Size       | 184 bytes                             |
| Total Events     | 9                                     |
| References Count | 7                                     |

## List of Events

| Event ID              | Entrypoint   |   Size |   Instructions |
|-----------------------|--------------|--------|----------------|
| [65535](#event-65535) | 0x0000       |      1 |              1 |
| [1](#event-1)         | 0x0001       |      1 |              1 |
| [2](#event-2)         | 0x0002       |      1 |              1 |
| [3](#event-3)         | 0x0003       |      1 |              1 |
| [4](#event-4)         | 0x0004       |      1 |              1 |
| [5](#event-5)         | 0x0005       |      1 |              1 |
| [6](#event-6)         | 0x0006       |      1 |              1 |
| [7](#event-7)         | 0x0007       |      1 |              1 |
| [9](#event-9)         | 0x0008       |     96 |             18 |

## DAT References (imed_data)

|   Index | Hex Value   |   Dec Value |
|---------|-------------|-------------|
|       0 | 0x0000      |           0 |
|       1 | 0x1E27      |        7719 |
|       2 | 0x007C      |         124 |
|       3 | 0x0096      |         150 |
|       4 | 0x0028      |          40 |
|       5 | 0x00C8      |         200 |
|       6 | 0x0001      |           1 |

## String References

- **7719**: Teleport to the Walk of Echoes? [Yes./No.]

## Events

### Event 65535

#### Metadata

| Field        | Value   |
|--------------|---------|
| Entrypoint   | 0x0000  |
| Data Size    | 1 bytes |
| Instructions | 1       |

```
      00 01 02 03 04 05 06 07  08 09 0A 0B 0C 0D 0E 0F
      -- -- -- -- -- -- -- --  -- -- -- -- -- -- -- --
0000: 00                                                .               
```

#### Opcodes

```
  0: 0x0000 [0x00] END_REQSTACK()
```

### Event 1

#### Metadata

| Field        | Value   |
|--------------|---------|
| Entrypoint   | 0x0001  |
| Data Size    | 1 bytes |
| Instructions | 1       |

```
      00 01 02 03 04 05 06 07  08 09 0A 0B 0C 0D 0E 0F
      -- -- -- -- -- -- -- --  -- -- -- -- -- -- -- --
0000:    00                                              .              
```

#### Opcodes

```
  0: 0x0001 [0x00] END_REQSTACK()
```

### Event 2

#### Metadata

| Field        | Value   |
|--------------|---------|
| Entrypoint   | 0x0002  |
| Data Size    | 1 bytes |
| Instructions | 1       |

```
      00 01 02 03 04 05 06 07  08 09 0A 0B 0C 0D 0E 0F
      -- -- -- -- -- -- -- --  -- -- -- -- -- -- -- --
0000:       00                                            .             
```

#### Opcodes

```
  0: 0x0002 [0x00] END_REQSTACK()
```

### Event 3

#### Metadata

| Field        | Value   |
|--------------|---------|
| Entrypoint   | 0x0003  |
| Data Size    | 1 bytes |
| Instructions | 1       |

```
      00 01 02 03 04 05 06 07  08 09 0A 0B 0C 0D 0E 0F
      -- -- -- -- -- -- -- --  -- -- -- -- -- -- -- --
0000:          00                                          .            
```

#### Opcodes

```
  0: 0x0003 [0x00] END_REQSTACK()
```

### Event 4

#### Metadata

| Field        | Value   |
|--------------|---------|
| Entrypoint   | 0x0004  |
| Data Size    | 1 bytes |
| Instructions | 1       |

```
      00 01 02 03 04 05 06 07  08 09 0A 0B 0C 0D 0E 0F
      -- -- -- -- -- -- -- --  -- -- -- -- -- -- -- --
0000:             00                                        .           
```

#### Opcodes

```
  0: 0x0004 [0x00] END_REQSTACK()
```

### Event 5

#### Metadata

| Field        | Value   |
|--------------|---------|
| Entrypoint   | 0x0005  |
| Data Size    | 1 bytes |
| Instructions | 1       |

```
      00 01 02 03 04 05 06 07  08 09 0A 0B 0C 0D 0E 0F
      -- -- -- -- -- -- -- --  -- -- -- -- -- -- -- --
0000:                00                                      .          
```

#### Opcodes

```
  0: 0x0005 [0x00] END_REQSTACK()
```

### Event 6

#### Metadata

| Field        | Value   |
|--------------|---------|
| Entrypoint   | 0x0006  |
| Data Size    | 1 bytes |
| Instructions | 1       |

```
      00 01 02 03 04 05 06 07  08 09 0A 0B 0C 0D 0E 0F
      -- -- -- -- -- -- -- --  -- -- -- -- -- -- -- --
0000:                   00                                    .         
```

#### Opcodes

```
  0: 0x0006 [0x00] END_REQSTACK()
```

### Event 7

#### Metadata

| Field        | Value   |
|--------------|---------|
| Entrypoint   | 0x0007  |
| Data Size    | 1 bytes |
| Instructions | 1       |

```
      00 01 02 03 04 05 06 07  08 09 0A 0B 0C 0D 0E 0F
      -- -- -- -- -- -- -- --  -- -- -- -- -- -- -- --
0000:                      00                                  .        
```

#### Opcodes

```
  0: 0x0007 [0x00] END_REQSTACK()
```

### Event 9

#### Metadata

| Field        | Value    |
|--------------|----------|
| Entrypoint   | 0x0008   |
| Data Size    | 96 bytes |
| Instructions | 17       |

```
      00 01 02 03 04 05 06 07  08 09 0A 0B 0C 0D 0E 0F
      -- -- -- -- -- -- -- --  -- -- -- -- -- -- -- --
0000:                          03 01 10 00 80 24 01 80          .....$..
0010: 00 80 00 80 25 02 00 10  00 80 00 66 00 42 CD 02  ....%......f.B..
0020: 80 F0 FF FF 7F F0 FF FF  7F 6D 61 69 6E 00 80 1C  .........main...
0030: 03 80 92 01 F0 FF FF 7F  1C 04 80 45 05 80 F0 FF  ...........E....
0040: FF 7F F0 FF FF 7F 66 64  6F 31 00 80 55 05 80 F0  ......fdo1..U...
0050: FF FF 7F F0 FF FF 7F 66  64 6F 31 03 01 10 06 80  .......fdo1.....
0060: 30 21 00 01 66 00 21 00                           0!..f.!.        
```

#### Opcodes

```
  0: 0x0008 [0x03] Work_Zone[1] = 0*
  1: 0x000D [0x24] CREATE_DIALOG(message_id=7719*, default_option=0*, option_flags=0*)
    → "Teleport to the Walk of Echoes? [Yes./No.]"
  2: 0x0014 [0x25] WAIT_DIALOG_SELECT()
  3: 0x0015 [0x02] IF !(Work_Zone[0] == 0*) GOTO 0x0066
  4: 0x001D [0x42] SET_CLI_EVENT_CANCEL_DATA()
  5: 0x001E [0xCD] LOAD_SCHEDULED_TASK_ALT4: Load scheduler "main" with entities [LocalPlayer, LocalPlayer], work=[124*, 0*]
  6: 0x002F [0x1C] WAIT(150* ticks)
  7: 0x0032 [0x92] LocalPlayer->Render.Flags3 ^= 0x01
  8: 0x0038 [0x1C] WAIT(40* ticks)
  9: 0x003B [0x45] LOAD_SCHEDULED_TASK: Load scheduler "fdo1" with entities [LocalPlayer, LocalPlayer], work=[200*, 0*]
 10: 0x004C [0x55] WAIT_LOAD_SCHEDULER: Wait for scheduler "fdo1" with entities [LocalPlayer, LocalPlayer], work=200*
 11: 0x005B [0x03] Work_Zone[1] = 1*
 12: 0x0060 [0x30] SET_UCOFF_CONTINUE_ZERO()
 13: 0x0061 [0x21] END_EVENT
 14: 0x0062 [0x00] END_REQSTACK()

SUBROUTINE_0066:
 15: 0x0066 [0x21] END_EVENT
 16: 0x0067 [0x00] END_REQSTACK()
```

#### Data or dead code:

```
# Dead code (unreachable instructions):
     0x0063 [0x01] GOTO 0x0066
```
