# 17965081 - Cait Sith

## Common Data

| Field            | Value                                 |
|------------------|---------------------------------------|
| Zone             | Desuetia - Empyreal Paradox (ID: 290) |
| Block Size       | 316 bytes                             |
| Total Events     | 13                                    |
| References Count | 21                                    |

## List of Events

| Event ID                 | Entrypoint   |   Size |   Instructions |
|--------------------------|--------------|--------|----------------|
| [65535](#event-65535)    | 0x0000       |      1 |              1 |
| [1](#event-1)            | 0x0001       |      1 |              1 |
| [65535.1](#event-655351) | 0x0002       |     17 |              5 |
| [2](#event-2)            | 0x0013       |      1 |              1 |
| [4](#event-4)            | 0x0014       |      1 |              1 |
| [5](#event-5)            | 0x0015       |      1 |              1 |
| [65535.2](#event-655352) | 0x0016       |     26 |              6 |
| [7](#event-7)            | 0x0030       |     14 |              3 |
| [65535.3](#event-655353) | 0x003E       |      5 |              2 |
| [65535.4](#event-655354) | 0x0043       |     22 |              6 |
| [65535.5](#event-655355) | 0x0059       |     26 |              6 |
| [3](#event-3)            | 0x0073       |     34 |             10 |
| [8](#event-8)            | 0x0095       |     14 |              6 |

## DAT References (imed_data)

|   Index | Hex Value   |   Dec Value |
|---------|-------------|-------------|
|       0 | 0x000D      |          13 |
|       1 | 0x8395D     |      538973 |
|       2 | 0xFFF74534  |  4294395188 |
|       3 | 0xFFF85EE1  |  4294467297 |
|       4 | 0x001E      |          30 |
|       5 | 0x83FA6     |      540582 |
|       6 | 0xFFF6ECFC  |  4294372604 |
|       7 | 0x0915      |        2325 |
|       8 | 0x0000      |           0 |
|       9 | 0x0001      |           1 |
|      10 | 0x08CF      |        2255 |
|      11 | 0x0028      |          40 |
|      12 | 0x83D55     |      539989 |
|      13 | 0xFFF70F67  |  4294381415 |
|      14 | 0x83092     |      536722 |
|      15 | 0xFFF708B5  |  4294379701 |
|      16 | 0xFFF85EE0  |  4294467296 |
|      17 | 0x09AA      |        2474 |
|      18 | 0x1E2B      |        7723 |
|      19 | 0x1E2C      |        7724 |
|      20 | 0x1E2D      |        7725 |

## String References

- **7723**: You know, <Player>, despite my affection for you, you can be downright insufferable. A pain in the rump. Here you go.
- **7724**: Please, do your thing before my whiskers fall off.
- **7725**: I shudder to think of what might become of this world...

## Events

### Event 65535

#### Metadata

| Field        | Value   |
|--------------|---------|
| Entrypoint   | 0x0000  |
| Data Size    | 1 bytes |
| Instructions | 1       |

```
      00 01 02 03 04 05 06 07  08 09 0A 0B 0C 0D 0E 0F
      -- -- -- -- -- -- -- --  -- -- -- -- -- -- -- --
0000: 00                                                .               
```

#### Opcodes

```
  0: 0x0000 [0x00] END_REQSTACK()
```

### Event 1

#### Metadata

| Field        | Value   |
|--------------|---------|
| Entrypoint   | 0x0001  |
| Data Size    | 1 bytes |
| Instructions | 1       |

```
      00 01 02 03 04 05 06 07  08 09 0A 0B 0C 0D 0E 0F
      -- -- -- -- -- -- -- --  -- -- -- -- -- -- -- --
0000:    00                                              .              
```

#### Opcodes

```
  0: 0x0001 [0x00] END_REQSTACK()
```

### Event 65535.1

#### Metadata

| Field        | Value    |
|--------------|----------|
| Entrypoint   | 0x0002   |
| Data Size    | 17 bytes |
| Instructions | 5        |

```
      00 01 02 03 04 05 06 07  08 09 0A 0B 0C 0D 0E 0F
      -- -- -- -- -- -- -- --  -- -- -- -- -- -- -- --
0000:       32 00 80 1F 00 01  80 02 80 03 80 1F 01 1C    2.............
0010: 04 80 00                                          ...             
```

#### Opcodes

```
  0: 0x0002 [0x32] ExtData[1]->MainSpeed = 13* * 0.1
  1: 0x0005 [0x1F] MOVE_ENTITY: EventEntity moves to X=538.973*, Z=-572.108*, Y=-499.999*
  2: 0x000D [0x1F] MOVE_ENTITY: Update entity position (mode=1)
  3: 0x000F [0x1C] WAIT(30* ticks)
  4: 0x0012 [0x00] END_REQSTACK()
```

### Event 2

#### Metadata

| Field        | Value   |
|--------------|---------|
| Entrypoint   | 0x0013  |
| Data Size    | 1 bytes |
| Instructions | 1       |

```
      00 01 02 03 04 05 06 07  08 09 0A 0B 0C 0D 0E 0F
      -- -- -- -- -- -- -- --  -- -- -- -- -- -- -- --
0010:          00                                          .            
```

#### Opcodes

```
  0: 0x0013 [0x00] END_REQSTACK()
```

### Event 4

#### Metadata

| Field        | Value   |
|--------------|---------|
| Entrypoint   | 0x0014  |
| Data Size    | 1 bytes |
| Instructions | 1       |

```
      00 01 02 03 04 05 06 07  08 09 0A 0B 0C 0D 0E 0F
      -- -- -- -- -- -- -- --  -- -- -- -- -- -- -- --
0010:             00                                        .           
```

#### Opcodes

```
  0: 0x0014 [0x00] END_REQSTACK()
```

### Event 5

#### Metadata

| Field        | Value   |
|--------------|---------|
| Entrypoint   | 0x0015  |
| Data Size    | 1 bytes |
| Instructions | 1       |

```
      00 01 02 03 04 05 06 07  08 09 0A 0B 0C 0D 0E 0F
      -- -- -- -- -- -- -- --  -- -- -- -- -- -- -- --
0010:                00                                      .          
```

#### Opcodes

```
  0: 0x0015 [0x00] END_REQSTACK()
```

### Event 65535.2

#### Metadata

| Field        | Value    |
|--------------|----------|
| Entrypoint   | 0x0016   |
| Data Size    | 26 bytes |
| Instructions | 6        |

```
      00 01 02 03 04 05 06 07  08 09 0A 0B 0C 0D 0E 0F
      -- -- -- -- -- -- -- --  -- -- -- -- -- -- -- --
0010:                   32 00  80 1F 00 05 80 06 80 03        2.........
0020: 80 1F 01 4A F0 FF FF 7F  F8 FF FF 7F 1C 04 80 00  ...J............
```

#### Opcodes

```
  0: 0x0016 [0x32] ExtData[1]->MainSpeed = 13* * 0.1
  1: 0x0019 [0x1F] MOVE_ENTITY: EventEntity moves to X=540.582*, Z=-594.692*, Y=-499.999*
  2: 0x0021 [0x1F] MOVE_ENTITY: Update entity position (mode=1)
  3: 0x0023 [0x4A] LocalPlayer looks at EventEntity
  4: 0x002C [0x1C] WAIT(30* ticks)
  5: 0x002F [0x00] END_REQSTACK()
```

### Event 7

#### Metadata

| Field        | Value    |
|--------------|----------|
| Entrypoint   | 0x0030   |
| Data Size    | 14 bytes |
| Instructions | 3        |

```
      00 01 02 03 04 05 06 07  08 09 0A 0B 0C 0D 0E 0F
      -- -- -- -- -- -- -- --  -- -- -- -- -- -- -- --
0030: B6 00 07 80 6C F8 FF FF  7F 08 80 09 80 00        ....l.........  
```

#### Opcodes

```
  0: 0x0030 [0xB6] ENTITY_APPEARANCE_HANDLER(case=Hair style, value=2325*)
  1: 0x0034 [0x6C] FADE_ENTITY_COLOR(entity_id=EventEntity, end_alpha=0*, fade_time=1*)
  2: 0x003D [0x00] END_REQSTACK()
```

### Event 65535.3

#### Metadata

| Field        | Value   |
|--------------|---------|
| Entrypoint   | 0x003E  |
| Data Size    | 5 bytes |
| Instructions | 2       |

```
      00 01 02 03 04 05 06 07  08 09 0A 0B 0C 0D 0E 0F
      -- -- -- -- -- -- -- --  -- -- -- -- -- -- -- --
0030:                                            B6 00                ..
0040: 0A 80 00                                          ...             
```

#### Opcodes

```
  0: 0x003E [0xB6] ENTITY_APPEARANCE_HANDLER(case=Hair style, value=2255*)
  1: 0x0042 [0x00] END_REQSTACK()
```

### Event 65535.4

#### Metadata

| Field        | Value    |
|--------------|----------|
| Entrypoint   | 0x0043   |
| Data Size    | 22 bytes |
| Instructions | 6        |

```
      00 01 02 03 04 05 06 07  08 09 0A 0B 0C 0D 0E 0F
      -- -- -- -- -- -- -- --  -- -- -- -- -- -- -- --
0040:          32 0B 80 1F 00  0C 80 0D 80 03 80 1F 01     2............
0050: 1E F0 FF FF 7F 1C 04 80  00                       .........       
```

#### Opcodes

```
  0: 0x0043 [0x32] ExtData[1]->MainSpeed = 40* * 0.1
  1: 0x0046 [0x1F] MOVE_ENTITY: EventEntity moves to X=539.989*, Z=-585.881*, Y=-499.999*
  2: 0x004E [0x1F] MOVE_ENTITY: Update entity position (mode=1)
  3: 0x0050 [0x1E] EventEntity looks at LocalPlayer and starts talking
  4: 0x0055 [0x1C] WAIT(30* ticks)
  5: 0x0058 [0x00] END_REQSTACK()
```

### Event 65535.5

#### Metadata

| Field        | Value    |
|--------------|----------|
| Entrypoint   | 0x0059   |
| Data Size    | 26 bytes |
| Instructions | 6        |

```
      00 01 02 03 04 05 06 07  08 09 0A 0B 0C 0D 0E 0F
      -- -- -- -- -- -- -- --  -- -- -- -- -- -- -- --
0050:                             32 00 80 1F 00 0E 80           2......
0060: 0F 80 10 80 1F 01 4A F0  FF FF 7F 19 20 12 01 1C  ......J..... ...
0070: 04 80 00                                          ...             
```

#### Opcodes

```
  0: 0x0059 [0x32] ExtData[1]->MainSpeed = 13* * 0.1
  1: 0x005C [0x1F] MOVE_ENTITY: EventEntity moves to X=536.722*, Z=-587.595*, Y=-500.000*
  2: 0x0064 [0x1F] MOVE_ENTITY: Update entity position (mode=1)
  3: 0x0066 [0x4A] LocalPlayer looks at Cait Sith (ID: 17965081/0x01122019)
  4: 0x006F [0x1C] WAIT(30* ticks)
  5: 0x0072 [0x00] END_REQSTACK()
```

### Event 3

#### Metadata

| Field        | Value    |
|--------------|----------|
| Entrypoint   | 0x0073   |
| Data Size    | 34 bytes |
| Instructions | 10       |

```
      00 01 02 03 04 05 06 07  08 09 0A 0B 0C 0D 0E 0F
      -- -- -- -- -- -- -- --  -- -- -- -- -- -- -- --
0070:          42 1E F0 FF FF  7F 1C 04 80 5B 11 80 19     B........[...
0080: 20 12 01 19 20 12 01 70  61 73 30 1D 12 80 23 1D   ... ..pas0...#.
0090: 13 80 23 21 00                                    ..#!.           
```

#### Opcodes

```
  0: 0x0073 [0x42] SET_CLI_EVENT_CANCEL_DATA()
  1: 0x0074 [0x1E] EventEntity looks at LocalPlayer and starts talking
  2: 0x0079 [0x1C] WAIT(30* ticks)
  3: 0x007C [0x5B] LOAD_EXT_SCHEDULER: Load scheduler "pas0" with entities [Cait Sith (ID: 17965081/0x01122019), Cait Sith (ID: 17965081/0x01122019)], work=2474*
  4: 0x008B [0x1D] PRINT_EVENT_MESSAGE(message_id=7723*)
    → "You know, <Player>, despite my affection for you, you can be downright insufferable. A pain in the rump. Here you go."
  5: 0x008E [0x23] WAIT_FOR_DIALOG_INTERACTION
  6: 0x008F [0x1D] PRINT_EVENT_MESSAGE(message_id=7724*)
    → "Please, do your thing before my whiskers fall off."
  7: 0x0092 [0x23] WAIT_FOR_DIALOG_INTERACTION
  8: 0x0093 [0x21] END_EVENT
  9: 0x0094 [0x00] END_REQSTACK()
```

### Event 8

#### Metadata

| Field        | Value    |
|--------------|----------|
| Entrypoint   | 0x0095   |
| Data Size    | 14 bytes |
| Instructions | 6        |

```
      00 01 02 03 04 05 06 07  08 09 0A 0B 0C 0D 0E 0F
      -- -- -- -- -- -- -- --  -- -- -- -- -- -- -- --
0090:                1E F0 FF  FF 7F 1C 04 80 1D 14 80       ...........
00A0: 23 21 00                                          #!.             
```

#### Opcodes

```
  0: 0x0095 [0x1E] EventEntity looks at LocalPlayer and starts talking
  1: 0x009A [0x1C] WAIT(30* ticks)
  2: 0x009D [0x1D] PRINT_EVENT_MESSAGE(message_id=7725*)
    → "I shudder to think of what might become of this world..."
  3: 0x00A0 [0x23] WAIT_FOR_DIALOG_INTERACTION
  4: 0x00A1 [0x21] END_EVENT
  5: 0x00A2 [0x00] END_REQSTACK()
```
