# 17965082

## Common Data

| Field            | Value                                 |
|------------------|---------------------------------------|
| Zone             | Desuetia - Empyreal Paradox (ID: 290) |
| Block Size       | 1056 bytes                            |
| Total Events     | 2                                     |
| References Count | 21                                    |

## List of Events

| Event ID              | Entrypoint   |   Size |   Instructions |
|-----------------------|--------------|--------|----------------|
| [65535](#event-65535) | 0x0000       |      1 |              1 |
| [100](#event-100)     | 0x0001       |    944 |            105 |

## DAT References (imed_data)

|   Index | Hex Value   |   Dec Value |
|---------|-------------|-------------|
|       0 | 0x0013      |          19 |
|       1 | 0x0001      |           1 |
|       2 | 0x0014      |          20 |
|       3 | 0x001E      |          30 |
|       4 | 0x83D5B     |      539995 |
|       5 | 0xFFF7024A  |  4294378058 |
|       6 | 0xFFF85EE1  |  4294467297 |
|       7 | 0x0409      |        1033 |
|       8 | 0x83D31     |      539953 |
|       9 | 0xFFF6F34C  |  4294374220 |
|      10 | 0x0BF9      |        3065 |
|      11 | 0x0000      |           0 |
|      12 | 0x7A120     |      500000 |
|      13 | 0x0400      |        1024 |
|      14 | 0x02E2      |         738 |
|      15 | 0x006B      |         107 |
|      16 | 0x00C8      |         200 |
|      17 | 0x00C9      |         201 |
|      18 | 0x002D      |          45 |
|      19 | 0x0002      |           2 |
|      20 | 0x00D7      |         215 |

## Events

### Event 65535

#### Metadata

| Field        | Value   |
|--------------|---------|
| Entrypoint   | 0x0000  |
| Data Size    | 1 bytes |
| Instructions | 1       |

```
      00 01 02 03 04 05 06 07  08 09 0A 0B 0C 0D 0E 0F
      -- -- -- -- -- -- -- --  -- -- -- -- -- -- -- --
0000: 00                                                .               
```

#### Opcodes

```
  0: 0x0000 [0x00] END_REQSTACK()
```

### Event 100

#### Metadata

| Field        | Value     |
|--------------|-----------|
| Entrypoint   | 0x0001    |
| Data Size    | 944 bytes |
| Instructions | 41        |

```
      00 01 02 03 04 05 06 07  08 09 0A 0B 0C 0D 0E 0F
      -- -- -- -- -- -- -- --  -- -- -- -- -- -- -- --
0000:    42 1A 83 01 46 01 38  00 80 79 00 F0 FF FF 7F   B...F.8..y.....
0010: F0 FF FF 7F 77 01 80 02  80 1C 03 80 AB 09 4E 00  ....w.........N.
0020: 1B 20 12 01 4E 00 1C 20  12 01 94 01 F0 FF FF 7F  . ..N.. ........
0030: 94 01 1B 20 12 01 94 01  1C 20 12 01 BA F0 FF FF  ... ..... ......
0040: 7F 04 80 05 80 06 80 07  80 BA 1B 20 12 01 08 80  ........... ....
0050: 09 80 06 80 0A 80 59 05  1C 20 12 01 01 BA 1C 20  ......Y.. ..... 
0060: 12 01 0B 80 0B 80 0C 80  0D 80 29 10 1B 20 12 01  ..........).. ..
0070: 03 80 F0 FF FF 7F 80 1B  20 12 01 80 1C 20 12 01  ........ .... ..
0080: 1C 03 80 45 0E 80 F0 FF  FF 7F F0 FF FF 7F 73 30  ...E..........s0
0090: 30 32 0B 80 1A 62 01 45  0E 80 F0 FF FF 7F F0 FF  02...b.E........
00A0: FF 7F 73 30 30 31 0B 80  BA F0 FF FF 7F 0B 80 0B  ..s001..........
00B0: 80 0C 80 0D 80 BA 1B 20  12 01 0B 80 0B 80 0C 80  ....... ........
00C0: 0D 80 AE 07 F0 FF FF 7F  65 76 63 31 AE 07 1B 20  ........evc1... 
00D0: 12 01 65 76 63 31 AE 08  F0 FF FF 7F AE 08 1B 20  ..evc1......... 
00E0: 12 01 1A 83 01 1C 03 80  BB 0F 80 1C 20 12 01 1C  ............ ...
00F0: 20 12 01 6B 6C 61 6C 0B  80 78 1C 01 80 AB 0A 29   ..klal..x.....)
0100: 10 1B 20 12 01 04 80 1B  20 12 01 46 00 45 10 80  .. ..... ..F.E..
0110: F0 FF FF 7F F0 FF FF 7F  66 64 69 32 0B 80 21 00  ........fdi2..!.
0120: 45 10 80 F0 FF FF 7F F0  FF FF 7F 66 64 69 30 0B  E..........fdi0.
0130: 80 55 10 80 F0 FF FF 7F  F0 FF FF 7F 66 64 69 30  .U..........fdi0
0140: 1B 45 10 80 F0 FF FF 7F  F0 FF FF 7F 66 64 6F 30  .E..........fdo0
0150: 0B 80 55 10 80 F0 FF FF  7F F0 FF FF 7F 66 64 6F  ..U..........fdo
0160: 30 1B 45 10 80 F0 FF FF  7F F0 FF FF 7F 66 64 69  0.E..........fdi
0170: 31 0B 80 55 10 80 F0 FF  FF 7F F0 FF FF 7F 66 64  1..U..........fd
0180: 69 31 1B 45 10 80 F0 FF  FF 7F F0 FF FF 7F 66 64  i1.E..........fd
0190: 6F 31 0B 80 55 10 80 F0  FF FF 7F F0 FF FF 7F 66  o1..U..........f
01A0: 64 6F 31 1B 45 11 80 F0  FF FF 7F F0 FF FF 7F 77  do1.E..........w
01B0: 68 69 31 0B 80 55 11 80  F0 FF FF 7F F0 FF FF 7F  hi1..U..........
01C0: 77 68 69 31 1B 45 11 80  F0 FF FF 7F F0 FF FF 7F  whi1.E..........
01D0: 77 68 6F 31 0B 80 55 11  80 F0 FF FF 7F F0 FF FF  who1..U.........
01E0: 7F 77 68 6F 31 1B 45 11  80 F0 FF FF 7F F0 FF FF  .who1.E.........
01F0: 7F 77 68 6F 32 0B 80 55  11 80 F0 FF FF 7F F0 FF  .who2..U........
0200: FF 7F 77 68 6F 32 1B 45  11 80 F0 FF FF 7F F0 FF  ..who2.E........
0210: FF 7F 77 68 6F 33 0B 80  55 11 80 F0 FF FF 7F F0  ..who3..U.......
0220: FF FF 7F 77 68 6F 33 1B  62 01 80 F0 FF FF 7F F0  ...who3.b.......
0230: FF FF 7F 6D 61 69 6E 0B  80 1C 12 80 45 10 80 F0  ...main.....E...
0240: FF FF 7F F0 FF FF 7F 66  64 6F 31 0B 80 55 10 80  .......fdo1..U..
0250: F0 FF FF 7F F0 FF FF 7F  66 64 6F 31 1B 45 10 80  ........fdo1.E..
0260: F0 FF FF 7F F0 FF FF 7F  66 64 69 31 0B 80 62 13  ........fdi1..b.
0270: 80 F0 FF FF 7F F0 FF FF  7F 6D 61 69 6E 0B 80 1C  .........main...
0280: 03 80 55 10 80 F0 FF FF  7F F0 FF FF 7F 66 64 69  ..U..........fdi
0290: 31 1B 45 10 80 F0 FF FF  7F F0 FF FF 7F 62 6C 6F  1.E..........blo
02A0: 6E 0B 80 45 11 80 F0 FF  FF 7F F0 FF FF 7F 62 6C  n..E..........bl
02B0: 6F 6E 0B 80 1B 45 11 80  F0 FF FF 7F F0 FF FF 7F  on...E..........
02C0: 77 68 69 30 0B 80 55 11  80 F0 FF FF 7F F0 FF FF  whi0..U.........
02D0: 7F 77 68 69 30 1B 45 11  80 F0 FF FF 7F F0 FF FF  .whi0.E.........
02E0: 7F 77 68 6F 30 0B 80 55  11 80 F0 FF FF 7F F0 FF  .who0..U........
02F0: FF 7F 77 68 6F 30 1B 45  14 80 F0 FF FF 7F F0 FF  ..who0.E........
0300: FF 7F 65 66 6F 6E 0B 80  55 14 80 F0 FF FF 7F F0  ..efon..U.......
0310: FF FF 7F 65 66 6F 6E 1B  45 10 80 F0 FF FF 7F F0  ...efon.E.......
0320: FF FF 7F 66 64 69 73 0B  80 1B 45 10 80 F0 FF FF  ...fdis...E.....
0330: 7F F0 FF FF 7F 66 64 6F  73 0B 80 55 10 80 F0 FF  .....fdos..U....
0340: FF 7F F0 FF FF 7F 66 64  6F 73 1B 45 10 80 F0 FF  ......fdos.E....
0350: FF 7F F0 FF FF 7F 66 64  69 66 0B 80 1B 45 10 80  ......fdif...E..
0360: F0 FF FF 7F F0 FF FF 7F  66 64 6F 66 0B 80 55 10  ........fdof..U.
0370: 80 F0 FF FF 7F F0 FF FF  7F 66 64 6F 66 1B 45 10  .........fdof.E.
0380: 80 F0 FF FF 7F F0 FF FF  7F 66 64 69 70 0B 80 1B  .........fdip...
0390: 45 10 80 F0 FF FF 7F F0  FF FF 7F 66 64 6F 70 0B  E..........fdop.
03A0: 80 55 10 80 F0 FF FF 7F  F0 FF FF 7F 66 64 6F 70  .U..........fdop
03B0: 1B                                                .               
```

#### Opcodes

```
  0: 0x0001 [0x42] SET_CLI_EVENT_CANCEL_DATA()
  1: 0x0002 [0x1A] CALL_SUBROUTINE(address=0x0183)
  2: 0x0005 [0x46] CAMERA_CONTROL: Disable user control
  3: 0x0007 [0x38] SET_CLIENT_EVENT_MODE(mode=19*)
  4: 0x000A [0x79] LocalPlayer looks at LocalPlayer (Basic look)
  5: 0x0014 [0x77] SET_EVENT_TIME_WEATHER(hour=1*, weather=20*)
  6: 0x0019 [0x1C] WAIT(30* ticks)
  7: 0x001C [0xAB] EventEntity->UnknownFlag = 1 // Enable unknown flag
  8: 0x001E [0x4E] SET_ENTITY_HIDE_FLAG: Show ??? (ID: 17965083/0x0112201B)
  9: 0x0024 [0x4E] SET_ENTITY_HIDE_FLAG: Show Unnamed NPC (ID: 17965084/0x0112201C)
 10: 0x002A [0x94] LocalPlayer->Render.Flags3 ^= 0x01
 11: 0x0030 [0x94] ??? (ID: 17965083/0x0112201B)->Render.Flags3 ^= 0x01
 12: 0x0036 [0x94] Unnamed NPC (ID: 17965084/0x0112201C)->Render.Flags3 ^= 0x01
 13: 0x003C [0xBA] SET_ENTITY_POSITION(entity_id=LocalPlayer, pos_x=539.995*, pos_z=-589.238*, pos_y=-499.999*, direction=90.8°*)
 14: 0x0049 [0xBA] SET_ENTITY_POSITION(entity_id=??? (ID: 17965083/0x0112201B), pos_x=539.953*, pos_z=-593.076*, pos_y=-499.999*, direction=269.4°*)
 15: 0x0056 [0x59] UPDATE_ENTITY_DATA: Unnamed NPC (ID: 17965084/0x0112201C)->Render.Flags0 |= 0x200000
 16: 0x005D [0xBA] SET_ENTITY_POSITION(entity_id=Unnamed NPC (ID: 17965084/0x0112201C), pos_x=0.000*, pos_z=0.000*, pos_y=500.000*, direction=90.0°*)
 17: 0x006A [0x29] REQ_SET_WAIT(priority=0x10, entity_id=??? (ID: 17965083/0x0112201B), tag_num=0x03)
 18: 0x0071 [0x80] LOAD_WAIT(entity=LocalPlayer)
 19: 0x0076 [0x80] LOAD_WAIT(entity=??? (ID: 17965083/0x0112201B))
 20: 0x007B [0x80] LOAD_WAIT(entity=Unnamed NPC (ID: 17965084/0x0112201C))
 21: 0x0080 [0x1C] WAIT(30* ticks)
 22: 0x0083 [0x45] LOAD_SCHEDULED_TASK: Load scheduler "s002" with entities [LocalPlayer, LocalPlayer], work=[738*, 0*]
 23: 0x0094 [0x1A] CALL_SUBROUTINE(address=0x0162)
 24: 0x0097 [0x45] LOAD_SCHEDULED_TASK: Load scheduler "s001" with entities [LocalPlayer, LocalPlayer], work=[738*, 0*]
 25: 0x00A8 [0xBA] SET_ENTITY_POSITION(entity_id=LocalPlayer, pos_x=0.000*, pos_z=0.000*, pos_y=500.000*, direction=90.0°*)
 26: 0x00B5 [0xBA] SET_ENTITY_POSITION(entity_id=??? (ID: 17965083/0x0112201B), pos_x=0.000*, pos_z=0.000*, pos_y=500.000*, direction=90.0°*)
 27: 0x00C2 [0xAE] MULTI_PURPOSE_ENTITY_HANDLER(case_type=0x07 - Set EnvironmentAreaId, entity=LocalPlayer, area_id=0x31637665)
 28: 0x00CC [0xAE] MULTI_PURPOSE_ENTITY_HANDLER(case_type=0x07 - Set EnvironmentAreaId, entity=??? (ID: 17965083/0x0112201B), area_id=0x31637665)
 29: 0x00D6 [0xAE] MULTI_PURPOSE_ENTITY_HANDLER(case_type=0x08 - Clear EnvironmentAreaId, entity=LocalPlayer)
 30: 0x00E0 [0x12] 0x1A01 = rand()
 31: 0x00E3 [0x83] 0x1C01 = GetGameTime()
 32: 0x00E6 [0x03] 0xBB80 = 107*
 33: 0x00EB [0x1C] WAIT(0x1220 ticks)
 34: 0x00EE [0x01] GOTO 0x201C

SUBROUTINE_0162:
 35: 0x0162 [0x45] LOAD_SCHEDULED_TASK: Load scheduler "fdi1" with entities [LocalPlayer, LocalPlayer], work=[200*, 0*]
 36: 0x0173 [0x55] WAIT_LOAD_SCHEDULER: Wait for scheduler "fdi1" with entities [LocalPlayer, LocalPlayer], work=200*
 37: 0x0182 [0x1B] RETURN

SUBROUTINE_0183:
 38: 0x0183 [0x45] LOAD_SCHEDULED_TASK: Load scheduler "fdo1" with entities [LocalPlayer, LocalPlayer], work=[200*, 0*]
 39: 0x0194 [0x55] WAIT_LOAD_SCHEDULER: Wait for scheduler "fdo1" with entities [LocalPlayer, LocalPlayer], work=200*
 40: 0x01A3 [0x1B] RETURN
```

#### Data or dead code:

```
# Dead code (unreachable instructions):
     0x00F1 [0x12] 0x6B01 = rand()
     0x00F4 [0x6C] FADE_ENTITY_COLOR(entity_id=Unknown NPC (ID: 2148232289/0x800B6C61), end_alpha=0x1C78, fade_time=1*)
     0x00FD [0xAB] EventEntity->UnknownFlag = 0 // Disable unknown flag
     0x00FF [0x29] REQ_SET_WAIT(priority=0x10, entity_id=??? (ID: 17965083/0x0112201B), tag_num=0x04)
     0x0106 [0x80] LOAD_WAIT(entity=??? (ID: 17965083/0x0112201B))
     0x010B [0x46] CAMERA_CONTROL: Restore default settings
     0x010D [0x45] LOAD_SCHEDULED_TASK: Load scheduler "fdi2" with entities [LocalPlayer, LocalPlayer], work=[200*, 0*]
     0x011E [0x21] END_EVENT
     0x011F [0x00] END_REQSTACK()
     0x0120 [0x45] LOAD_SCHEDULED_TASK: Load scheduler "fdi0" with entities [LocalPlayer, LocalPlayer], work=[200*, 0*]
     0x0131 [0x55] WAIT_LOAD_SCHEDULER: Wait for scheduler "fdi0" with entities [LocalPlayer, LocalPlayer], work=200*
     0x0140 [0x1B] RETURN
     0x0141 [0x45] LOAD_SCHEDULED_TASK: Load scheduler "fdo0" with entities [LocalPlayer, LocalPlayer], work=[200*, 0*]
     0x0152 [0x55] WAIT_LOAD_SCHEDULER: Wait for scheduler "fdo0" with entities [LocalPlayer, LocalPlayer], work=200*
     0x0161 [0x1B] RETURN
# Dead code (unreachable instructions):
     0x01A4 [0x45] LOAD_SCHEDULED_TASK: Load scheduler "whi1" with entities [LocalPlayer, LocalPlayer], work=[201*, 0*]
     0x01B5 [0x55] WAIT_LOAD_SCHEDULER: Wait for scheduler "whi1" with entities [LocalPlayer, LocalPlayer], work=201*
     0x01C4 [0x1B] RETURN
     0x01C5 [0x45] LOAD_SCHEDULED_TASK: Load scheduler "who1" with entities [LocalPlayer, LocalPlayer], work=[201*, 0*]
     0x01D6 [0x55] WAIT_LOAD_SCHEDULER: Wait for scheduler "who1" with entities [LocalPlayer, LocalPlayer], work=201*
     0x01E5 [0x1B] RETURN
     0x01E6 [0x45] LOAD_SCHEDULED_TASK: Load scheduler "who2" with entities [LocalPlayer, LocalPlayer], work=[201*, 0*]
     0x01F7 [0x55] WAIT_LOAD_SCHEDULER: Wait for scheduler "who2" with entities [LocalPlayer, LocalPlayer], work=201*
     0x0206 [0x1B] RETURN
     0x0207 [0x45] LOAD_SCHEDULED_TASK: Load scheduler "who3" with entities [LocalPlayer, LocalPlayer], work=[201*, 0*]
     0x0218 [0x55] WAIT_LOAD_SCHEDULER: Wait for scheduler "who3" with entities [LocalPlayer, LocalPlayer], work=201*
     0x0227 [0x1B] RETURN
     0x0228 [0x62] LOAD_EVENT_SCHEDULER: Load scheduler "main" with entities [LocalPlayer, LocalPlayer], work=[1*, 0*]
     0x0239 [0x1C] WAIT(45* ticks)
     0x023C [0x45] LOAD_SCHEDULED_TASK: Load scheduler "fdo1" with entities [LocalPlayer, LocalPlayer], work=[200*, 0*]
     0x024D [0x55] WAIT_LOAD_SCHEDULER: Wait for scheduler "fdo1" with entities [LocalPlayer, LocalPlayer], work=200*
     0x025C [0x1B] RETURN
     0x025D [0x45] LOAD_SCHEDULED_TASK: Load scheduler "fdi1" with entities [LocalPlayer, LocalPlayer], work=[200*, 0*]
     0x026E [0x62] LOAD_EVENT_SCHEDULER: Load scheduler "main" with entities [LocalPlayer, LocalPlayer], work=[2*, 0*]
     0x027F [0x1C] WAIT(30* ticks)
     0x0282 [0x55] WAIT_LOAD_SCHEDULER: Wait for scheduler "fdi1" with entities [LocalPlayer, LocalPlayer], work=200*
     0x0291 [0x1B] RETURN
     0x0292 [0x45] LOAD_SCHEDULED_TASK: Load scheduler "blon" with entities [LocalPlayer, LocalPlayer], work=[200*, 0*]
     0x02A3 [0x45] LOAD_SCHEDULED_TASK: Load scheduler "blon" with entities [LocalPlayer, LocalPlayer], work=[201*, 0*]
     0x02B4 [0x1B] RETURN
     0x02B5 [0x45] LOAD_SCHEDULED_TASK: Load scheduler "whi0" with entities [LocalPlayer, LocalPlayer], work=[201*, 0*]
     0x02C6 [0x55] WAIT_LOAD_SCHEDULER: Wait for scheduler "whi0" with entities [LocalPlayer, LocalPlayer], work=201*
     0x02D5 [0x1B] RETURN
     0x02D6 [0x45] LOAD_SCHEDULED_TASK: Load scheduler "who0" with entities [LocalPlayer, LocalPlayer], work=[201*, 0*]
     0x02E7 [0x55] WAIT_LOAD_SCHEDULER: Wait for scheduler "who0" with entities [LocalPlayer, LocalPlayer], work=201*
     0x02F6 [0x1B] RETURN
     0x02F7 [0x45] LOAD_SCHEDULED_TASK: Load scheduler "efon" with entities [LocalPlayer, LocalPlayer], work=[215*, 0*]
     0x0308 [0x55] WAIT_LOAD_SCHEDULER: Wait for scheduler "efon" with entities [LocalPlayer, LocalPlayer], work=215*
     0x0317 [0x1B] RETURN
     0x0318 [0x45] LOAD_SCHEDULED_TASK: Load scheduler "fdis" with entities [LocalPlayer, LocalPlayer], work=[200*, 0*]
     0x0329 [0x1B] RETURN
     0x032A [0x45] LOAD_SCHEDULED_TASK: Load scheduler "fdos" with entities [LocalPlayer, LocalPlayer], work=[200*, 0*]
     0x033B [0x55] WAIT_LOAD_SCHEDULER: Wait for scheduler "fdos" with entities [LocalPlayer, LocalPlayer], work=200*
     0x034A [0x1B] RETURN
     0x034B [0x45] LOAD_SCHEDULED_TASK: Load scheduler "fdif" with entities [LocalPlayer, LocalPlayer], work=[200*, 0*]
     0x035C [0x1B] RETURN
     0x035D [0x45] LOAD_SCHEDULED_TASK: Load scheduler "fdof" with entities [LocalPlayer, LocalPlayer], work=[200*, 0*]
     0x036E [0x55] WAIT_LOAD_SCHEDULER: Wait for scheduler "fdof" with entities [LocalPlayer, LocalPlayer], work=200*
     0x037D [0x1B] RETURN
     0x037E [0x45] LOAD_SCHEDULED_TASK: Load scheduler "fdip" with entities [LocalPlayer, LocalPlayer], work=[200*, 0*]
     0x038F [0x1B] RETURN
     0x0390 [0x45] LOAD_SCHEDULED_TASK: Load scheduler "fdop" with entities [LocalPlayer, LocalPlayer], work=[200*, 0*]
     0x03A1 [0x55] WAIT_LOAD_SCHEDULER: Wait for scheduler "fdop" with entities [LocalPlayer, LocalPlayer], work=200*
     0x03B0 [0x1B] RETURN
```
