# 0x7FFFFFF0 - Zone Events

## Common Data

| Field            | Value                                 |
|------------------|---------------------------------------|
| Zone             | Desuetia - Empyreal Paradox (ID: 290) |
| Block Size       | 5648 bytes                            |
| Total Events     | 34                                    |
| References Count | 103                                   |

## List of Events

| Event ID                   | Entrypoint   |   Size |   Instructions |
|----------------------------|--------------|--------|----------------|
| [65535](#event-65535)      | 0x0000       |      1 |              1 |
| [65534](#event-65534)      | 0x0001       |      1 |              1 |
| [65535.1](#event-655351)   | 0x0002       |      6 |              2 |
| [65535.2](#event-655352)   | 0x0008       |     24 |              4 |
| [65535.3](#event-655353)   | 0x0020       |     24 |              4 |
| [65535.4](#event-655354)   | 0x0038       |     37 |              5 |
| [65535.5](#event-655355)   | 0x005D       |     37 |              5 |
| [65535.6](#event-655356)   | 0x0082       |      7 |              3 |
| [65535.7](#event-655357)   | 0x0089       |    155 |             35 |
| [65535.8](#event-655358)   | 0x0124       |     38 |              5 |
| [65535.9](#event-655359)   | 0x014A       |     38 |              5 |
| [65535.10](#event-6553510) | 0x0170       |     38 |              5 |
| [65535.11](#event-6553511) | 0x0196       |     37 |              5 |
| [65535.12](#event-6553512) | 0x01BB       |     37 |              5 |
| [65535.13](#event-6553513) | 0x01E0       |     42 |              6 |
| [65535.14](#event-6553514) | 0x020A       |     37 |              5 |
| [65535.15](#event-6553515) | 0x022F       |     42 |              6 |
| [65535.16](#event-6553516) | 0x0259       |     37 |              5 |
| [65535.17](#event-6553517) | 0x027E       |     14 |              4 |
| [65535.18](#event-6553518) | 0x028C       |     14 |              4 |
| [65535.19](#event-6553519) | 0x029A       |     14 |              4 |
| [65535.20](#event-6553520) | 0x02A8       |     22 |              6 |
| [65535.21](#event-6553521) | 0x02BE       |     10 |              2 |
| [65535.22](#event-6553522) | 0x02C8       |     10 |              2 |
| [65535.23](#event-6553523) | 0x02D2       |      5 |              2 |
| [65535.24](#event-6553524) | 0x02D7       |      5 |              2 |
| [65535.25](#event-6553525) | 0x02DC       |      5 |              2 |
| [65535.26](#event-6553526) | 0x02E1       |      5 |              2 |
| [65535.27](#event-6553527) | 0x02E6       |     14 |              4 |
| [32000](#event-32000)      | 0x02F4       |   2255 |            438 |
| [32002](#event-32002)      | 0x0BC3       |    133 |             20 |
| [32001](#event-32001)      | 0x0C48       |    562 |             98 |
| [32003](#event-32003)      | 0x0E7A       |    182 |             33 |
| [32004](#event-32004)      | 0x0F30       |   1193 |            166 |

## DAT References (imed_data)

|   Index | Hex Value   |   Dec Value |
|---------|-------------|-------------|
|       0 | 0x0001      |           1 |
|       1 | 0x0000      |           0 |
|       2 | 0x0005      |           5 |
|       3 | 0x0002      |           2 |
|       4 | 0x000A      |          10 |
|       5 | 0x0009      |           9 |
|       6 | 0x0046      |          70 |
|       7 | 0x008C      |         140 |
|       8 | 0x00D2      |         210 |
|       9 | 0x0008      |           8 |
|      10 | 0x0007      |           7 |
|      11 | 0x0091      |         145 |
|      12 | 0x004F      |          79 |
|      13 | 0x004C      |          76 |
|      14 | 0x00C9      |         201 |
|      15 | 0x0018      |          24 |
|      16 | 0x0020      |          32 |
|      17 | 0x0030      |          48 |
|      18 | 0x0040      |          64 |
|      19 | 0x003C      |          60 |
|      20 | 0x0003      |           3 |
|      21 | 0x000D      |          13 |
|      22 | 0x840D3     |      540883 |
|      23 | 0xFFF74B23  |  4294396707 |
|      24 | 0xFFF85EE1  |  4294467297 |
|      25 | 0x7E8C4     |      518340 |
|      26 | 0x8279C     |      534428 |
|      27 | 0xFFF85EE0  |  4294467296 |
|      28 | 0x7EEA5     |      519845 |
|      29 | 0x80F17     |      528151 |
|      30 | 0x83D49     |      539977 |
|      31 | 0xFFF700D7  |  4294377687 |
|      32 | 0x001E      |          30 |
|      33 | 0x0080      |         128 |
|      34 | 0x0057      |          87 |
|      35 | 0x005D      |          93 |
|      36 | 0x0060      |          96 |
|      37 | 0x0064      |         100 |
|      38 | 0x0028      |          40 |
|      39 | 0xFFF810B5  |  4294447285 |
|      40 | 0x7D6A5     |      513701 |
|      41 | 0xFFFE2B41  |  4294847297 |
|      42 | 0x000F      |          15 |
|      43 | 0x0010      |          16 |
|      44 | 0x001F      |          31 |
|      45 | 0xFFFFFFFF  |  4294967295 |
|      46 | 0x1E84      |        7812 |
|      47 | 0x1E0C      |        7692 |
|      48 | 0x0004      |           4 |
|      49 | 0x1C9F      |        7327 |
|      50 | 0x00FF      |         255 |
|      51 | 0x00C8      |         200 |
|      52 | 0x0013      |          19 |
|      53 | 0x000B      |          11 |
|      54 | 0xFFF8AD00  |  4294487296 |
|      55 | 0x77240     |      488000 |
|      56 | 0x0C00      |        3072 |
|      57 | 0x7EF40     |      520000 |
|      58 | 0xFFF83000  |  4294455296 |
|      59 | 0xFFF0BDC0  |  4293967296 |
|      60 | 0x1CAA      |        7338 |
|      61 | 0x1CAB      |        7339 |
|      62 | 0x1CAC      |        7340 |
|      63 | 0x1CAD      |        7341 |
|      64 | 0x1CAE      |        7342 |
|      65 | 0x1CD1      |        7377 |
|      66 | 0x0006      |           6 |
|      67 | 0x000C      |          12 |
|      68 | 0x000E      |          14 |
|      69 | 0x0011      |          17 |
|      70 | 0x0012      |          18 |
|      71 | 0x0014      |          20 |
|      72 | 0x0015      |          21 |
|      73 | 0x0016      |          22 |
|      74 | 0x0017      |          23 |
|      75 | 0x0019      |          25 |
|      76 | 0x001A      |          26 |
|      77 | 0x001B      |          27 |
|      78 | 0x001C      |          28 |
|      79 | 0x001D      |          29 |
|      80 | 0x1E06      |        7686 |
|      81 | 0x1E0B      |        7691 |
|      82 | 0x1E0A      |        7690 |
|      83 | 0x1E82      |        7810 |
|      84 | 0x1E81      |        7809 |
|      85 | 0x1DF2      |        7666 |
|      86 | 0x0052      |          82 |
|      87 | 0x1CA2      |        7330 |
|      88 | 0x83D55     |      539989 |
|      89 | 0xFFF733F6  |  4294390774 |
|      90 | 0x00B4      |         180 |
|      91 | 0x012C      |         300 |
|      92 | 0x1DF4      |        7668 |
|      93 | 0x1DF3      |        7667 |
|      94 | 0x1E80      |        7808 |
|      95 | 0x1DF6      |        7670 |
|      96 | 0x1DF5      |        7669 |
|      97 | 0x0078      |         120 |
|      98 | 0x1CA0      |        7328 |
|      99 | 0x0089      |         137 |
|     100 | 0x006C      |         108 |
|     101 | 0x002D      |          45 |
|     102 | 0x00D7      |         215 |

## String References

- **7327**: Enter the battlefield? [Enter./Decline.]
- **7328**: Leave the battlefield? [Run away./Stay.]
- **7330**: You cannot enter the battlefield at present. Please wait a little longer.
- **7338**: You are cleared to enter the battlefield, but you cannot while party members are engaged in combat.
- **7339**: You are cleared to enter the battlefield, but you cannot while party members are engaged in combat.
- **7340**: You are cleared to enter the battlefield, but you cannot while party members are engaged in combat.
- **7341**: You are cleared to enter the battlefield, but you cannot while party members are engaged in combat.
- **7342**: You are cleared to enter the battlefield, but you cannot while party members are engaged in combat.
- **7377**: You do not meet the requirements to enter the battlefield. Access is denied.
- **7666**: Skip the event? [Yes./No.]
- **7667**: Battlefield clear time: $3 second[/s]!
- **7668**: Battlefield clear time: $3 minute[/s], $2 second[/s]!
- **7669**: The current battlefield clear time record is $3 second[/s].
- **7670**: The current battlefield clear time record is $3 minute[/s] $2 second[/s].
- **7686**: Only $3 [member/members] have clearance to enter the battlefield. This room has reached its maximum capacity.
- **7690**: That record is held by $5 adventurers, including %0!
- **7691**: That record is held by %0!
- **7692**: Select difficulty. [Very difficult. (Level: ???)/Difficult. (Level: ???)/Normal. (Level: $18)/Easy. (Level: $17)/Very Easy. (Level: $16)/Leave.]
- **7808**: You have broken the clear time record for "[No Time Like the Future/]"!
- **7809**: The current battlefield clear time record for "[No Time Like the Future/]" is $3 second[/s].
- **7810**: The current battlefield clear time record for "[No Time Like the Future/]" is $3 minute[/s] $2 second[/s].
- **7812**: Which battlefield will you enter? [None./No Time Like the Future./]

## Events

### Event 65535

#### Metadata

| Field        | Value   |
|--------------|---------|
| Entrypoint   | 0x0000  |
| Data Size    | 1 bytes |
| Instructions | 1       |

```
      00 01 02 03 04 05 06 07  08 09 0A 0B 0C 0D 0E 0F
      -- -- -- -- -- -- -- --  -- -- -- -- -- -- -- --
0000: 00                                                .               
```

#### Opcodes

```
  0: 0x0000 [0x00] END_REQSTACK()
```

### Event 65534

#### Metadata

| Field        | Value   |
|--------------|---------|
| Entrypoint   | 0x0001  |
| Data Size    | 1 bytes |
| Instructions | 1       |

```
      00 01 02 03 04 05 06 07  08 09 0A 0B 0C 0D 0E 0F
      -- -- -- -- -- -- -- --  -- -- -- -- -- -- -- --
0000:    00                                              .              
```

#### Opcodes

```
  0: 0x0001 [0x00] END_REQSTACK()
```

### Event 65535.1

#### Metadata

| Field        | Value   |
|--------------|---------|
| Entrypoint   | 0x0002  |
| Data Size    | 6 bytes |
| Instructions | 2       |

```
      00 01 02 03 04 05 06 07  08 09 0A 0B 0C 0D 0E 0F
      -- -- -- -- -- -- -- --  -- -- -- -- -- -- -- --
0000:       03 02 10 07 7F 00                             ......        
```

#### Opcodes

```
  0: 0x0002 [0x03] Work_Zone[2] = Entity->Race
  1: 0x0007 [0x00] END_REQSTACK()
```

### Event 65535.2

#### Metadata

| Field        | Value    |
|--------------|----------|
| Entrypoint   | 0x0008   |
| Data Size    | 24 bytes |
| Instructions | 4        |

```
      00 01 02 03 04 05 06 07  08 09 0A 0B 0C 0D 0E 0F
      -- -- -- -- -- -- -- --  -- -- -- -- -- -- -- --
0000:                          03 00 00 07 7F 1A 90 00          ........
0010: 66 01 00 F8 FF FF 7F F8  FF FF 7F 74 6C 6B 30 00  f..........tlk0.
```

#### Opcodes

```
  0: 0x0008 [0x03] ExtData[1]->WorkLocal[0] = Entity->Race
  1: 0x000D [0x1A] CALL_SUBROUTINE(address=0x0090)
  2: 0x0010 [0x66] LOAD_EXT_SCHEDULER_MAIN: Load scheduler "tlk0" with entities [EventEntity, EventEntity], work=ExtData[1]->WorkLocal[1]
  3: 0x001F [0x00] END_REQSTACK()
```

### Event 65535.3

#### Metadata

| Field        | Value    |
|--------------|----------|
| Entrypoint   | 0x0020   |
| Data Size    | 24 bytes |
| Instructions | 4        |

```
      00 01 02 03 04 05 06 07  08 09 0A 0B 0C 0D 0E 0F
      -- -- -- -- -- -- -- --  -- -- -- -- -- -- -- --
0020: 03 00 00 07 7F 1A 90 00  66 01 00 F8 FF FF 7F F8  ........f.......
0030: FF FF 7F 74 6C 6B 31 00                           ...tlk1.        
```

#### Opcodes

```
  0: 0x0020 [0x03] ExtData[1]->WorkLocal[0] = Entity->Race
  1: 0x0025 [0x1A] CALL_SUBROUTINE(address=0x0090)
  2: 0x0028 [0x66] LOAD_EXT_SCHEDULER_MAIN: Load scheduler "tlk1" with entities [EventEntity, EventEntity], work=ExtData[1]->WorkLocal[1]
  3: 0x0037 [0x00] END_REQSTACK()
```

### Event 65535.4

#### Metadata

| Field        | Value    |
|--------------|----------|
| Entrypoint   | 0x0038   |
| Data Size    | 37 bytes |
| Instructions | 5        |

```
      00 01 02 03 04 05 06 07  08 09 0A 0B 0C 0D 0E 0F
      -- -- -- -- -- -- -- --  -- -- -- -- -- -- -- --
0030:                          03 00 00 07 7F 1A 90 00          ........
0040: 66 01 00 F8 FF FF 7F F8  FF FF 7F 73 68 61 30 53  f..........sha0S
0050: F8 FF FF 7F F8 FF FF 7F  73 68 61 30 00           ........sha0.   
```

#### Opcodes

```
  0: 0x0038 [0x03] ExtData[1]->WorkLocal[0] = Entity->Race
  1: 0x003D [0x1A] CALL_SUBROUTINE(address=0x0090)
  2: 0x0040 [0x66] LOAD_EXT_SCHEDULER_MAIN: Load scheduler "sha0" with entities [EventEntity, EventEntity], work=ExtData[1]->WorkLocal[1]
  3: 0x004F [0x53] WAIT_SCHEDULER_TASK: Wait for scheduler "sha0" with entities [EventEntity, EventEntity]
  4: 0x005C [0x00] END_REQSTACK()
```

### Event 65535.5

#### Metadata

| Field        | Value    |
|--------------|----------|
| Entrypoint   | 0x005D   |
| Data Size    | 37 bytes |
| Instructions | 5        |

```
      00 01 02 03 04 05 06 07  08 09 0A 0B 0C 0D 0E 0F
      -- -- -- -- -- -- -- --  -- -- -- -- -- -- -- --
0050:                                         03 00 00               ...
0060: 07 7F 1A 90 00 66 01 00  F8 FF FF 7F F8 FF FF 7F  .....f..........
0070: 73 68 61 31 53 F8 FF FF  7F F8 FF FF 7F 73 68 61  sha1S........sha
0080: 31 00                                             1.              
```

#### Opcodes

```
  0: 0x005D [0x03] ExtData[1]->WorkLocal[0] = Entity->Race
  1: 0x0062 [0x1A] CALL_SUBROUTINE(address=0x0090)
  2: 0x0065 [0x66] LOAD_EXT_SCHEDULER_MAIN: Load scheduler "sha1" with entities [EventEntity, EventEntity], work=ExtData[1]->WorkLocal[1]
  3: 0x0074 [0x53] WAIT_SCHEDULER_TASK: Wait for scheduler "sha1" with entities [EventEntity, EventEntity]
  4: 0x0081 [0x00] END_REQSTACK()
```

### Event 65535.6

#### Metadata

| Field        | Value   |
|--------------|---------|
| Entrypoint   | 0x0082  |
| Data Size    | 7 bytes |
| Instructions | 3       |

```
      00 01 02 03 04 05 06 07  08 09 0A 0B 0C 0D 0E 0F
      -- -- -- -- -- -- -- --  -- -- -- -- -- -- -- --
0080:       AB 03 AC 01 00 80  00                         .......       
```

#### Opcodes

```
  0: 0x0082 [0xAB] EventEntity->Render.Flags0 ^= 0x20000 // Toggle bit 17
  1: 0x0084 [0xAC] EventEntity->StatusEvent = 1*
  2: 0x0088 [0x00] END_REQSTACK()
```

### Event 65535.7

#### Metadata

| Field        | Value     |
|--------------|-----------|
| Entrypoint   | 0x0089    |
| Data Size    | 155 bytes |
| Instructions | 3         |

```
      00 01 02 03 04 05 06 07  08 09 0A 0B 0C 0D 0E 0F
      -- -- -- -- -- -- -- --  -- -- -- -- -- -- -- --
0080:                             AC 01 01 80 AB 04 00           .......
0090: 03 01 00 00 00 02 01 00  02 80 05 A5 00 08 01 00  ................
00A0: 00 80 01 AA 00 08 01 00  03 80 14 01 00 04 80 07  ................
00B0: 01 00 05 80 1B 03 01 00  00 00 02 01 00 02 80 05  ................
00C0: CA 00 08 01 00 00 80 01  CF 00 08 01 00 03 80 14  ................
00D0: 01 00 04 80 07 01 00 06  80 1B 03 01 00 00 00 02  ................
00E0: 01 00 02 80 05 EF 00 08  01 00 00 80 01 F4 00 08  ................
00F0: 01 00 03 80 14 01 00 04  80 07 01 00 07 80 1B 03  ................
0100: 01 00 00 00 02 01 00 02  80 05 14 01 08 01 00 00  ................
0110: 80 01 19 01 08 01 00 03  80 14 01 00 04 80 07 01  ................
0120: 00 08 80 1B                                       ....            
```

#### Opcodes

```
  0: 0x0089 [0xAC] EventEntity->StatusEvent = 0*
  1: 0x008D [0xAB] EventEntity->Render.Flags0 |= 0x40000 // Set bit 18
  2: 0x008F [0x00] END_REQSTACK()
```

#### Data or dead code:

```
# Dead code (unreachable instructions):
     0x0090 [0x03] ExtData[1]->WorkLocal[1] = ExtData[1]->WorkLocal[0]
     0x0095 [0x02] IF !(ExtData[1]->WorkLocal[1] > 5*) GOTO 0x00A5
     0x009D [0x08] ExtData[1]->WorkLocal[1] -= 1*
     0x00A2 [0x01] GOTO 0x00AA
     0x00A5 [0x08] ExtData[1]->WorkLocal[1] -= 2*
     0x00AA [0x14] ExtData[1]->WorkLocal[1] *= 10*
     0x00AF [0x07] ExtData[1]->WorkLocal[1] += 9*
     0x00B4 [0x1B] RETURN
     0x00B5 [0x03] ExtData[1]->WorkLocal[1] = ExtData[1]->WorkLocal[0]
     0x00BA [0x02] IF !(ExtData[1]->WorkLocal[1] > 5*) GOTO 0x00CA
     0x00C2 [0x08] ExtData[1]->WorkLocal[1] -= 1*
     0x00C7 [0x01] GOTO 0x00CF
     0x00CA [0x08] ExtData[1]->WorkLocal[1] -= 2*
     0x00CF [0x14] ExtData[1]->WorkLocal[1] *= 10*
     0x00D4 [0x07] ExtData[1]->WorkLocal[1] += 70*
     0x00D9 [0x1B] RETURN
     0x00DA [0x03] ExtData[1]->WorkLocal[1] = ExtData[1]->WorkLocal[0]
     0x00DF [0x02] IF !(ExtData[1]->WorkLocal[1] > 5*) GOTO 0x00EF
     0x00E7 [0x08] ExtData[1]->WorkLocal[1] -= 1*
     0x00EC [0x01] GOTO 0x00F4
     0x00EF [0x08] ExtData[1]->WorkLocal[1] -= 2*
     0x00F4 [0x14] ExtData[1]->WorkLocal[1] *= 10*
     0x00F9 [0x07] ExtData[1]->WorkLocal[1] += 140*
     0x00FE [0x1B] RETURN
     0x00FF [0x03] ExtData[1]->WorkLocal[1] = ExtData[1]->WorkLocal[0]
     0x0104 [0x02] IF !(ExtData[1]->WorkLocal[1] > 5*) GOTO 0x0114
     0x010C [0x08] ExtData[1]->WorkLocal[1] -= 1*
     0x0111 [0x01] GOTO 0x0119
     0x0114 [0x08] ExtData[1]->WorkLocal[1] -= 2*
     0x0119 [0x14] ExtData[1]->WorkLocal[1] *= 10*
     0x011E [0x07] ExtData[1]->WorkLocal[1] += 210*
     0x0123 [0x1B] RETURN
```

### Event 65535.8

#### Metadata

| Field        | Value    |
|--------------|----------|
| Entrypoint   | 0x0124   |
| Data Size    | 38 bytes |
| Instructions | 5        |

```
      00 01 02 03 04 05 06 07  08 09 0A 0B 0C 0D 0E 0F
      -- -- -- -- -- -- -- --  -- -- -- -- -- -- -- --
0120:             22 00 2F 00  F8 FF FF 7F B6 0B 09 80      "./.........
0130: 0A 80 0B 80 0C 80 0D 80  0D 80 0D 80 0E 80 0F 80  ................
0140: 6C F8 FF FF 7F 10 80 00  80 00                    l.........      
```

#### Opcodes

```
  0: 0x0124 [0x22] ENTITY_HIDE_FLAG(enabled=0x00)
  1: 0x0126 [0x2F] EventEntity->Render.Flags0 &= ~0x80000 // Bit 19
  2: 0x012C [0xB6] ENTITY_APPEARANCE_HANDLER(case=Full entity look, race=8*, hair=7*, head=145*, body=79*, hands=76*, legs=76*, feet=76*, main=201*, sub=24*)
  3: 0x0140 [0x6C] FADE_ENTITY_COLOR(entity_id=EventEntity, end_alpha=32*, fade_time=1*)
  4: 0x0149 [0x00] END_REQSTACK()
```

### Event 65535.9

#### Metadata

| Field        | Value    |
|--------------|----------|
| Entrypoint   | 0x014A   |
| Data Size    | 38 bytes |
| Instructions | 5        |

```
      00 01 02 03 04 05 06 07  08 09 0A 0B 0C 0D 0E 0F
      -- -- -- -- -- -- -- --  -- -- -- -- -- -- -- --
0140:                                22 00 2F 00 F8 FF            "./...
0150: FF 7F B6 0B 0A 80 0A 80  0B 80 0C 80 0D 80 0D 80  ................
0160: 0D 80 0E 80 0F 80 6C F8  FF FF 7F 11 80 00 80 00  ......l.........
```

#### Opcodes

```
  0: 0x014A [0x22] ENTITY_HIDE_FLAG(enabled=0x00)
  1: 0x014C [0x2F] EventEntity->Render.Flags0 &= ~0x80000 // Bit 19
  2: 0x0152 [0xB6] ENTITY_APPEARANCE_HANDLER(case=Full entity look, race=7*, hair=7*, head=145*, body=79*, hands=76*, legs=76*, feet=76*, main=201*, sub=24*)
  3: 0x0166 [0x6C] FADE_ENTITY_COLOR(entity_id=EventEntity, end_alpha=48*, fade_time=1*)
  4: 0x016F [0x00] END_REQSTACK()
```

### Event 65535.10

#### Metadata

| Field        | Value    |
|--------------|----------|
| Entrypoint   | 0x0170   |
| Data Size    | 38 bytes |
| Instructions | 5        |

```
      00 01 02 03 04 05 06 07  08 09 0A 0B 0C 0D 0E 0F
      -- -- -- -- -- -- -- --  -- -- -- -- -- -- -- --
0170: 22 00 2F 00 F8 FF FF 7F  B6 0B 02 80 0A 80 0B 80  "./.............
0180: 0C 80 0D 80 0D 80 0D 80  0E 80 0F 80 6C F8 FF FF  ............l...
0190: 7F 12 80 00 80 00                                 ......          
```

#### Opcodes

```
  0: 0x0170 [0x22] ENTITY_HIDE_FLAG(enabled=0x00)
  1: 0x0172 [0x2F] EventEntity->Render.Flags0 &= ~0x80000 // Bit 19
  2: 0x0178 [0xB6] ENTITY_APPEARANCE_HANDLER(case=Full entity look, race=5*, hair=7*, head=145*, body=79*, hands=76*, legs=76*, feet=76*, main=201*, sub=24*)
  3: 0x018C [0x6C] FADE_ENTITY_COLOR(entity_id=EventEntity, end_alpha=64*, fade_time=1*)
  4: 0x0195 [0x00] END_REQSTACK()
```

### Event 65535.11

#### Metadata

| Field        | Value    |
|--------------|----------|
| Entrypoint   | 0x0196   |
| Data Size    | 37 bytes |
| Instructions | 5        |

```
      00 01 02 03 04 05 06 07  08 09 0A 0B 0C 0D 0E 0F
      -- -- -- -- -- -- -- --  -- -- -- -- -- -- -- --
0190:                   03 00  00 07 7F 1A 90 00 66 01        ........f.
01A0: 00 F8 FF FF 7F F8 FF FF  7F 73 69 74 30 53 F8 FF  .........sit0S..
01B0: FF 7F F8 FF FF 7F 73 69  74 30 00                 ......sit0.     
```

#### Opcodes

```
  0: 0x0196 [0x03] ExtData[1]->WorkLocal[0] = Entity->Race
  1: 0x019B [0x1A] CALL_SUBROUTINE(address=0x0090)
  2: 0x019E [0x66] LOAD_EXT_SCHEDULER_MAIN: Load scheduler "sit0" with entities [EventEntity, EventEntity], work=ExtData[1]->WorkLocal[1]
  3: 0x01AD [0x53] WAIT_SCHEDULER_TASK: Wait for scheduler "sit0" with entities [EventEntity, EventEntity]
  4: 0x01BA [0x00] END_REQSTACK()
```

### Event 65535.12

#### Metadata

| Field        | Value    |
|--------------|----------|
| Entrypoint   | 0x01BB   |
| Data Size    | 37 bytes |
| Instructions | 5        |

```
      00 01 02 03 04 05 06 07  08 09 0A 0B 0C 0D 0E 0F
      -- -- -- -- -- -- -- --  -- -- -- -- -- -- -- --
01B0:                                   03 00 00 07 7F             .....
01C0: 1A 90 00 66 01 00 F8 FF  FF 7F F8 FF FF 7F 73 69  ...f..........si
01D0: 74 31 53 F8 FF FF 7F F8  FF FF 7F 73 69 74 31 00  t1S........sit1.
```

#### Opcodes

```
  0: 0x01BB [0x03] ExtData[1]->WorkLocal[0] = Entity->Race
  1: 0x01C0 [0x1A] CALL_SUBROUTINE(address=0x0090)
  2: 0x01C3 [0x66] LOAD_EXT_SCHEDULER_MAIN: Load scheduler "sit1" with entities [EventEntity, EventEntity], work=ExtData[1]->WorkLocal[1]
  3: 0x01D2 [0x53] WAIT_SCHEDULER_TASK: Wait for scheduler "sit1" with entities [EventEntity, EventEntity]
  4: 0x01DF [0x00] END_REQSTACK()
```

### Event 65535.13

#### Metadata

| Field        | Value    |
|--------------|----------|
| Entrypoint   | 0x01E0   |
| Data Size    | 42 bytes |
| Instructions | 6        |

```
      00 01 02 03 04 05 06 07  08 09 0A 0B 0C 0D 0E 0F
      -- -- -- -- -- -- -- --  -- -- -- -- -- -- -- --
01E0: 03 00 00 07 7F 1A 90 00  66 01 00 F8 FF FF 7F F8  ........f.......
01F0: FF FF 7F 74 6C 6B 30 1C  13 80 66 01 00 F8 FF FF  ...tlk0...f.....
0200: 7F F8 FF FF 7F 74 6C 6B  31 00                    .....tlk1.      
```

#### Opcodes

```
  0: 0x01E0 [0x03] ExtData[1]->WorkLocal[0] = Entity->Race
  1: 0x01E5 [0x1A] CALL_SUBROUTINE(address=0x0090)
  2: 0x01E8 [0x66] LOAD_EXT_SCHEDULER_MAIN: Load scheduler "tlk0" with entities [EventEntity, EventEntity], work=ExtData[1]->WorkLocal[1]
  3: 0x01F7 [0x1C] WAIT(60* ticks)
  4: 0x01FA [0x66] LOAD_EXT_SCHEDULER_MAIN: Load scheduler "tlk1" with entities [EventEntity, EventEntity], work=ExtData[1]->WorkLocal[1]
  5: 0x0209 [0x00] END_REQSTACK()
```

### Event 65535.14

#### Metadata

| Field        | Value    |
|--------------|----------|
| Entrypoint   | 0x020A   |
| Data Size    | 37 bytes |
| Instructions | 5        |

```
      00 01 02 03 04 05 06 07  08 09 0A 0B 0C 0D 0E 0F
      -- -- -- -- -- -- -- --  -- -- -- -- -- -- -- --
0200:                                03 00 00 07 7F 1A            ......
0210: DA 00 66 01 00 F8 FF FF  7F F8 FF FF 7F 6F 72 7A  ..f..........orz
0220: 30 53 F8 FF FF 7F F8 FF  FF 7F 6F 72 7A 30 00     0S........orz0. 
```

#### Opcodes

```
  0: 0x020A [0x03] ExtData[1]->WorkLocal[0] = Entity->Race
  1: 0x020F [0x1A] CALL_SUBROUTINE(address=0x00DA)
  2: 0x0212 [0x66] LOAD_EXT_SCHEDULER_MAIN: Load scheduler "orz0" with entities [EventEntity, EventEntity], work=ExtData[1]->WorkLocal[1]
  3: 0x0221 [0x53] WAIT_SCHEDULER_TASK: Wait for scheduler "orz0" with entities [EventEntity, EventEntity]
  4: 0x022E [0x00] END_REQSTACK()
```

### Event 65535.15

#### Metadata

| Field        | Value    |
|--------------|----------|
| Entrypoint   | 0x022F   |
| Data Size    | 42 bytes |
| Instructions | 6        |

```
      00 01 02 03 04 05 06 07  08 09 0A 0B 0C 0D 0E 0F
      -- -- -- -- -- -- -- --  -- -- -- -- -- -- -- --
0220:                                               03                 .
0230: 00 00 07 7F 1A DA 00 07  01 00 14 80 66 01 00 F8  ............f...
0240: FF FF 7F F8 FF FF 7F 77  6E 64 30 53 F8 FF FF 7F  .......wnd0S....
0250: F8 FF FF 7F 77 6E 64 30  00                       ....wnd0.       
```

#### Opcodes

```
  0: 0x022F [0x03] ExtData[1]->WorkLocal[0] = Entity->Race
  1: 0x0234 [0x1A] CALL_SUBROUTINE(address=0x00DA)
  2: 0x0237 [0x07] ExtData[1]->WorkLocal[1] += 3*
  3: 0x023C [0x66] LOAD_EXT_SCHEDULER_MAIN: Load scheduler "wnd0" with entities [EventEntity, EventEntity], work=ExtData[1]->WorkLocal[1]
  4: 0x024B [0x53] WAIT_SCHEDULER_TASK: Wait for scheduler "wnd0" with entities [EventEntity, EventEntity]
  5: 0x0258 [0x00] END_REQSTACK()
```

### Event 65535.16

#### Metadata

| Field        | Value    |
|--------------|----------|
| Entrypoint   | 0x0259   |
| Data Size    | 37 bytes |
| Instructions | 5        |

```
      00 01 02 03 04 05 06 07  08 09 0A 0B 0C 0D 0E 0F
      -- -- -- -- -- -- -- --  -- -- -- -- -- -- -- --
0250:                             03 00 00 07 7F 1A B5           .......
0260: 00 66 01 00 F8 FF FF 7F  F8 FF FF 7F 61 74 30 30  .f..........at00
0270: 53 F8 FF FF 7F F8 FF FF  7F 61 74 30 30 00        S........at00.  
```

#### Opcodes

```
  0: 0x0259 [0x03] ExtData[1]->WorkLocal[0] = Entity->Race
  1: 0x025E [0x1A] CALL_SUBROUTINE(address=0x00B5)
  2: 0x0261 [0x66] LOAD_EXT_SCHEDULER_MAIN: Load scheduler "at00" with entities [EventEntity, EventEntity], work=ExtData[1]->WorkLocal[1]
  3: 0x0270 [0x53] WAIT_SCHEDULER_TASK: Wait for scheduler "at00" with entities [EventEntity, EventEntity]
  4: 0x027D [0x00] END_REQSTACK()
```

### Event 65535.17

#### Metadata

| Field        | Value    |
|--------------|----------|
| Entrypoint   | 0x027E   |
| Data Size    | 14 bytes |
| Instructions | 4        |

```
      00 01 02 03 04 05 06 07  08 09 0A 0B 0C 0D 0E 0F
      -- -- -- -- -- -- -- --  -- -- -- -- -- -- -- --
0270:                                            32 15                2.
0280: 80 1F 00 16 80 17 80 18  80 1F 01 00              ............    
```

#### Opcodes

```
  0: 0x027E [0x32] ExtData[1]->MainSpeed = 13* * 0.1
  1: 0x0281 [0x1F] MOVE_ENTITY: EventEntity moves to X=540.883*, Z=-570.589*, Y=-499.999*
  2: 0x0289 [0x1F] MOVE_ENTITY: Update entity position (mode=1)
  3: 0x028B [0x00] END_REQSTACK()
```

### Event 65535.18

#### Metadata

| Field        | Value    |
|--------------|----------|
| Entrypoint   | 0x028C   |
| Data Size    | 14 bytes |
| Instructions | 4        |

```
      00 01 02 03 04 05 06 07  08 09 0A 0B 0C 0D 0E 0F
      -- -- -- -- -- -- -- --  -- -- -- -- -- -- -- --
0280:                                      32 15 80 1F              2...
0290: 00 19 80 1A 80 1B 80 1F  01 00                    ..........      
```

#### Opcodes

```
  0: 0x028C [0x32] ExtData[1]->MainSpeed = 13* * 0.1
  1: 0x028F [0x1F] MOVE_ENTITY: EventEntity moves to X=518.340*, Z=534.428*, Y=-500.000*
  2: 0x0297 [0x1F] MOVE_ENTITY: Update entity position (mode=1)
  3: 0x0299 [0x00] END_REQSTACK()
```

### Event 65535.19

#### Metadata

| Field        | Value    |
|--------------|----------|
| Entrypoint   | 0x029A   |
| Data Size    | 14 bytes |
| Instructions | 4        |

```
      00 01 02 03 04 05 06 07  08 09 0A 0B 0C 0D 0E 0F
      -- -- -- -- -- -- -- --  -- -- -- -- -- -- -- --
0290:                                32 15 80 1F 00 1C            2.....
02A0: 80 1D 80 1B 80 1F 01 00                           ........        
```

#### Opcodes

```
  0: 0x029A [0x32] ExtData[1]->MainSpeed = 13* * 0.1
  1: 0x029D [0x1F] MOVE_ENTITY: EventEntity moves to X=519.845*, Z=528.151*, Y=-500.000*
  2: 0x02A5 [0x1F] MOVE_ENTITY: Update entity position (mode=1)
  3: 0x02A7 [0x00] END_REQSTACK()
```

### Event 65535.20

#### Metadata

| Field        | Value    |
|--------------|----------|
| Entrypoint   | 0x02A8   |
| Data Size    | 22 bytes |
| Instructions | 6        |

```
      00 01 02 03 04 05 06 07  08 09 0A 0B 0C 0D 0E 0F
      -- -- -- -- -- -- -- --  -- -- -- -- -- -- -- --
02A0:                          32 15 80 1F 00 1E 80 1F          2.......
02B0: 80 18 80 1F 01 1E 19 20  12 01 1C 20 80 00        ....... ... ..  
```

#### Opcodes

```
  0: 0x02A8 [0x32] ExtData[1]->MainSpeed = 13* * 0.1
  1: 0x02AB [0x1F] MOVE_ENTITY: EventEntity moves to X=539.977*, Z=-589.609*, Y=-499.999*
  2: 0x02B3 [0x1F] MOVE_ENTITY: Update entity position (mode=1)
  3: 0x02B5 [0x1E] EventEntity looks at Cait Sith (ID: 17965081/0x01122019) and starts talking
  4: 0x02BA [0x1C] WAIT(30* ticks)
  5: 0x02BD [0x00] END_REQSTACK()
```

### Event 65535.21

#### Metadata

| Field        | Value    |
|--------------|----------|
| Entrypoint   | 0x02BE   |
| Data Size    | 10 bytes |
| Instructions | 2        |

```
      00 01 02 03 04 05 06 07  08 09 0A 0B 0C 0D 0E 0F
      -- -- -- -- -- -- -- --  -- -- -- -- -- -- -- --
02B0:                                            6C F8                l.
02C0: FF FF 7F 01 80 00 80 00                           ........        
```

#### Opcodes

```
  0: 0x02BE [0x6C] FADE_ENTITY_COLOR(entity_id=EventEntity, end_alpha=0*, fade_time=1*)
  1: 0x02C7 [0x00] END_REQSTACK()
```

### Event 65535.22

#### Metadata

| Field        | Value    |
|--------------|----------|
| Entrypoint   | 0x02C8   |
| Data Size    | 10 bytes |
| Instructions | 2        |

```
      00 01 02 03 04 05 06 07  08 09 0A 0B 0C 0D 0E 0F
      -- -- -- -- -- -- -- --  -- -- -- -- -- -- -- --
02C0:                          6C F8 FF FF 7F 21 80 00          l....!..
02D0: 80 00                                             ..              
```

#### Opcodes

```
  0: 0x02C8 [0x6C] FADE_ENTITY_COLOR(entity_id=EventEntity, end_alpha=128*, fade_time=1*)
  1: 0x02D1 [0x00] END_REQSTACK()
```

### Event 65535.23

#### Metadata

| Field        | Value   |
|--------------|---------|
| Entrypoint   | 0x02D2  |
| Data Size    | 5 bytes |
| Instructions | 2       |

```
      00 01 02 03 04 05 06 07  08 09 0A 0B 0C 0D 0E 0F
      -- -- -- -- -- -- -- --  -- -- -- -- -- -- -- --
02D0:       B6 0F 22 80 00                                .."..         
```

#### Opcodes

```
  0: 0x02D2 [0xB6] ENTITY_APPEARANCE_HANDLER(case=Model size, value=87*)
  1: 0x02D6 [0x00] END_REQSTACK()
```

### Event 65535.24

#### Metadata

| Field        | Value   |
|--------------|---------|
| Entrypoint   | 0x02D7  |
| Data Size    | 5 bytes |
| Instructions | 2       |

```
      00 01 02 03 04 05 06 07  08 09 0A 0B 0C 0D 0E 0F
      -- -- -- -- -- -- -- --  -- -- -- -- -- -- -- --
02D0:                      B6  0F 23 80 00                     ..#..    
```

#### Opcodes

```
  0: 0x02D7 [0xB6] ENTITY_APPEARANCE_HANDLER(case=Model size, value=93*)
  1: 0x02DB [0x00] END_REQSTACK()
```

### Event 65535.25

#### Metadata

| Field        | Value   |
|--------------|---------|
| Entrypoint   | 0x02DC  |
| Data Size    | 5 bytes |
| Instructions | 2       |

```
      00 01 02 03 04 05 06 07  08 09 0A 0B 0C 0D 0E 0F
      -- -- -- -- -- -- -- --  -- -- -- -- -- -- -- --
02D0:                                      B6 0F 24 80              ..$.
02E0: 00                                                .               
```

#### Opcodes

```
  0: 0x02DC [0xB6] ENTITY_APPEARANCE_HANDLER(case=Model size, value=96*)
  1: 0x02E0 [0x00] END_REQSTACK()
```

### Event 65535.26

#### Metadata

| Field        | Value   |
|--------------|---------|
| Entrypoint   | 0x02E1  |
| Data Size    | 5 bytes |
| Instructions | 2       |

```
      00 01 02 03 04 05 06 07  08 09 0A 0B 0C 0D 0E 0F
      -- -- -- -- -- -- -- --  -- -- -- -- -- -- -- --
02E0:    B6 0F 25 80 00                                  ..%..          
```

#### Opcodes

```
  0: 0x02E1 [0xB6] ENTITY_APPEARANCE_HANDLER(case=Model size, value=100*)
  1: 0x02E5 [0x00] END_REQSTACK()
```

### Event 65535.27

#### Metadata

| Field        | Value    |
|--------------|----------|
| Entrypoint   | 0x02E6   |
| Data Size    | 14 bytes |
| Instructions | 4        |

```
      00 01 02 03 04 05 06 07  08 09 0A 0B 0C 0D 0E 0F
      -- -- -- -- -- -- -- --  -- -- -- -- -- -- -- --
02E0:                   32 26  80 1F 00 27 80 28 80 29        2&...'.(.)
02F0: 80 1F 01 00                                       ....            
```

#### Opcodes

```
  0: 0x02E6 [0x32] ExtData[1]->MainSpeed = 40* * 0.1
  1: 0x02E9 [0x1F] MOVE_ENTITY: EventEntity moves to X=-520.011*, Z=513.701*, Y=-119.999*
  2: 0x02F1 [0x1F] MOVE_ENTITY: Update entity position (mode=1)
  3: 0x02F3 [0x00] END_REQSTACK()
```

### Event 32000

#### Metadata

| Field        | Value      |
|--------------|------------|
| Entrypoint   | 0x02F4     |
| Data Size    | 2255 bytes |
| Instructions | 299        |

```
      00 01 02 03 04 05 06 07  08 09 0A 0B 0C 0D 0E 0F
      -- -- -- -- -- -- -- --  -- -- -- -- -- -- -- --
02F0:             20 01 79 00  F0 FF FF 7F F0 FF FF 7F       .y.........
0300: 03 04 00 02 10 03 05 00  03 10 03 07 00 05 10 03  ................
0310: 10 00 06 10 03 11 00 07  10 03 12 00 08 10 41 01  ..............A.
0320: 80 2A 80 09 10 08 00 41  2B 80 2C 80 09 10 06 10  .*.....A+.,.....
0330: 06 03 00 02 08 00 01 80  00 32 04 03 09 00 2D 80  .........2....-.
0340: 0F 09 00 07 00 10 09 00  00 80 24 2E 80 01 80 09  ..........$.....
0350: 00 25 02 00 10 01 80 00  60 03 01 A8 0B 01 32 04  .%......`.....2.
0360: 03 05 00 00 10 0C 05 00  06 17 00 06 14 00 3E 10  ..............>.
0370: 00 05 00 0E 04 06 10 00  06 09 00 3E 12 00 05 00  ...........>....
0380: 85 03 01 8C 03 3C 09 00  01 80 00 80 3E 11 00 05  .....<......>...
0390: 00 96 03 01 9D 03 3C 09  00 00 80 00 80 1A 0E 11  ......<.........
03A0: 24 2F 80 02 80 09 00 25  02 00 10 01 80 00 B8 03  $/.....%........
03B0: 03 10 00 00 80 01 0B 04  02 00 10 00 80 00 C8 03  ................
03C0: 03 10 00 03 80 01 0B 04  02 00 10 03 80 00 D8 03  ................
03D0: 03 10 00 14 80 01 0B 04  02 00 10 14 80 00 E8 03  ................
03E0: 03 10 00 30 80 01 0B 04  02 00 10 30 80 00 F8 03  ...0.......0....
03F0: 03 10 00 02 80 01 0B 04  02 00 10 02 80 00 06 04  ................
0400: 01 A8 0B 01 0B 04 03 10  00 14 80 01 32 04 06 10  ............2...
0410: 00 1A C2 0B 02 17 00 00  80 00 32 04 24 31 80 00  ..........2.$1..
0420: 80 01 80 25 02 00 10 00  80 00 32 04 01 A8 0B 01  ...%......2.....
0430: 32 04 42 03 01 10 32 80  43 00 43 01 06 01 10 45  2.B...2.C.C....E
0440: 33 80 F0 FF FF 7F F0 FF  FF 7F 66 64 6F 31 01 80  3.........fdo1..
0450: 55 33 80 F0 FF FF 7F F0  FF FF 7F 66 64 6F 31 3B  U3.........fdo1;
0460: F0 FF FF 7F 20 10 21 10  22 10 38 34 80 02 08 00  .... .!.".84....
0470: 00 80 00 8C 04 03 02 00  00 80 03 06 00 05 00 03  ................
0480: 04 00 01 80 03 1D 00 01  80 01 E6 08 03 02 00 00  ................
0490: 80 02 02 00 14 80 05 71  0B 40 01 80 14 80 01 10  .......q.@......
04A0: 02 00 40 30 80 09 80 01  10 05 00 40 05 80 35 80  ..@0.......@..5.
04B0: 01 10 10 00 06 02 10 06  03 10 06 04 10 02 02 00  ................
04C0: 00 80 80 DC 04 03 0A 00  36 80 03 0B 00 37 80 03  ........6....7..
04D0: 0C 00 01 80 03 0D 00 38  80 01 58 05 02 02 00 03  .......8..X.....
04E0: 80 80 FB 04 03 0A 00 39  80 03 0B 00 37 80 03 0C  .......9....7...
04F0: 00 1B 80 03 0D 00 38 80  01 58 05 02 02 00 14 80  ......8..X......
0500: 80 1A 05 03 0A 00 36 80  03 0B 00 3A 80 03 0C 00  ......6....:....
0510: 3B 80 03 0D 00 38 80 01  58 05 02 02 00 30 80 80  ;....8..X....0..
0520: 39 05 03 0A 00 01 80 03  0B 00 01 80 03 0C 00 01  9...............
0530: 80 03 0D 00 01 80 01 58  05 02 02 00 02 80 80 58  .......X.......X
0540: 05 03 0A 00 01 80 03 0B  00 01 80 03 0C 00 01 80  ................
0550: 03 0D 00 01 80 01 58 05  47 00 0A 00 0B 00 0C 00  ......X.G.......
0560: 0D 00 47 01 03 06 00 03  10 03 04 00 04 10 03 1B  ..G.............
0570: 00 05 10 03 0E 00 06 10  03 0F 00 07 10 03 1D 00  ................
0580: 09 10 02 02 10 00 80 80  8D 05 01 6B 0B 02 02 10  ...........k....
0590: 30 80 80 E6 05 02 02 00  00 80 80 A4 05 48 3C 80  0............H<.
05A0: 23 01 E0 05 02 02 00 03  80 80 B3 05 48 3D 80 23  #...........H=.#
05B0: 01 E0 05 02 02 00 14 80  80 C2 05 48 3E 80 23 01  ...........H>.#.
05C0: E0 05 02 02 00 30 80 80  D1 05 48 3F 80 23 01 E0  .....0....H?.#..
05D0: 05 02 02 00 02 80 80 E0  05 48 40 80 23 01 E0 05  .........H@.#...
05E0: 01 75 0B 01 6B 0B 02 02  10 02 80 80 F8 05 48 41  .u..k.........HA
05F0: 80 23 01 75 0B 01 6B 0B  02 02 10 42 80 80 FA 07  .#.u..k....B....
0600: 02 06 00 01 80 80 10 06  03 05 10 42 80 01 F0 07  ...........B....
0610: 02 06 00 00 80 80 20 06  03 05 10 01 80 01 F0 07  ...... .........
0620: 02 06 00 03 80 80 30 06  03 05 10 01 80 01 F0 07  ......0.........
0630: 02 06 00 14 80 80 40 06  03 05 10 01 80 01 F0 07  ......@.........
0640: 02 06 00 30 80 80 50 06  03 05 10 01 80 01 F0 07  ...0..P.........
0650: 02 06 00 02 80 80 60 06  03 05 10 01 80 01 F0 07  ......`.........
0660: 02 06 00 42 80 80 70 06  03 05 10 01 80 01 F0 07  ...B..p.........
0670: 02 06 00 0A 80 80 80 06  03 05 10 01 80 01 F0 07  ................
0680: 02 06 00 09 80 80 90 06  03 05 10 01 80 01 F0 07  ................
0690: 02 06 00 05 80 80 A0 06  03 05 10 01 80 01 F0 07  ................
06A0: 02 06 00 04 80 80 B0 06  03 05 10 01 80 01 F0 07  ................
06B0: 02 06 00 35 80 80 C0 06  03 05 10 01 80 01 F0 07  ...5............
06C0: 02 06 00 43 80 80 D0 06  03 05 10 01 80 01 F0 07  ...C............
06D0: 02 06 00 15 80 80 E0 06  03 05 10 01 80 01 F0 07  ................
06E0: 02 06 00 44 80 80 F0 06  03 05 10 01 80 01 F0 07  ...D............
06F0: 02 06 00 2A 80 80 00 07  03 05 10 01 80 01 F0 07  ...*............
0700: 02 06 00 2B 80 80 10 07  03 05 10 01 80 01 F0 07  ...+............
0710: 02 06 00 45 80 80 20 07  03 05 10 01 80 01 F0 07  ...E.. .........
0720: 02 06 00 46 80 80 30 07  03 05 10 01 80 01 F0 07  ...F..0.........
0730: 02 06 00 34 80 80 40 07  03 05 10 01 80 01 F0 07  ...4..@.........
0740: 02 06 00 47 80 80 50 07  03 05 10 01 80 01 F0 07  ...G..P.........
0750: 02 06 00 48 80 80 60 07  03 05 10 01 80 01 F0 07  ...H..`.........
0760: 02 06 00 49 80 80 70 07  03 05 10 01 80 01 F0 07  ...I..p.........
0770: 02 06 00 4A 80 80 80 07  03 05 10 01 80 01 F0 07  ...J............
0780: 02 06 00 0F 80 80 90 07  03 05 10 01 80 01 F0 07  ................
0790: 02 06 00 4B 80 80 A0 07  03 05 10 01 80 01 F0 07  ...K............
07A0: 02 06 00 4C 80 80 B0 07  03 05 10 01 80 01 F0 07  ...L............
07B0: 02 06 00 4D 80 80 C0 07  03 05 10 01 80 01 F0 07  ...M............
07C0: 02 06 00 4E 80 80 D0 07  03 05 10 01 80 01 F0 07  ...N............
07D0: 02 06 00 4F 80 80 E0 07  03 05 10 01 80 01 F0 07  ...O............
07E0: 02 06 00 20 80 80 F0 07  03 05 10 01 80 01 F0 07  ... ............
07F0: 48 50 80 23 01 75 0B 01  6B 0B 02 02 10 14 80 80  HP.#.u..k.......
0800: 08 08 01 8C 04 01 6B 0B  02 02 10 03 80 80 6B 0B  ......k.......k.
0810: 02 0E 00 01 80 01 9C 08  02 14 00 01 80 01 50 08  ..............P.
0820: 03 05 10 1B 00 02 1B 00  01 80 02 2D 08 02 0E 00  ...........-....
0830: 00 80 05 3C 08 48 51 80  23 01 4D 08 03 06 10 0E  ...<.HQ.#.M.....
0840: 00 0C 06 10 03 07 10 0E  00 48 52 80 23 01 9C 08  .........HR.#...
0850: 03 05 10 1B 00 02 1B 00  01 80 02 7C 08 02 1B 00  ...........|....
0860: 13 80 04 78 08 3F 04 10  05 10 13 80 15 05 10 13  ...x.?..........
0870: 80 48 53 80 23 01 7C 08  48 54 80 23 02 0E 00 00  .HS.#.|.HT.#....
0880: 80 05 8B 08 48 51 80 23  01 9C 08 03 06 10 0E 00  ....HQ.#........
0890: 0C 06 10 03 07 10 0E 00  48 52 80 23 03 05 00 06  ........HR.#....
08A0: 00 03 15 00 25 80 07 15  00 05 00 02 04 00 15 00  ....%...........
08B0: 00 BB 08 03 04 00 00 80  01 C0 08 03 04 00 01 80  ................
08C0: 02 04 00 01 80 00 E6 08  02 0F 00 00 80 00 E6 08  ................
08D0: 24 55 80 00 80 01 80 25  02 00 10 01 80 00 E6 08  $U.....%........
08E0: 05 04 00 01 E6 08 06 16  00 02 06 00 01 80 80 F9  ................
08F0: 08 03 16 00 01 80 01 DE  0A 02 06 00 00 80 80 09  ................
0900: 09 03 16 00 01 80 01 DE  0A 02 06 00 03 80 80 19  ................
0910: 09 03 16 00 01 80 01 DE  0A 02 06 00 14 80 80 29  ...............)
0920: 09 03 16 00 01 80 01 DE  0A 02 06 00 30 80 80 39  ............0..9
0930: 09 03 16 00 01 80 01 DE  0A 02 06 00 02 80 80 49  ...............I
0940: 09 03 16 00 01 80 01 DE  0A 02 06 00 42 80 80 59  ............B..Y
0950: 09 03 16 00 01 80 01 DE  0A 02 06 00 0A 80 80 69  ...............i
0960: 09 03 16 00 01 80 01 DE  0A 02 06 00 09 80 80 79  ...............y
0970: 09 03 16 00 01 80 01 DE  0A 02 06 00 05 80 80 89  ................
0980: 09 03 16 00 01 80 01 DE  0A 02 06 00 04 80 80 99  ................
0990: 09 03 16 00 01 80 01 DE  0A 02 06 00 35 80 80 A9  ............5...
09A0: 09 03 16 00 01 80 01 DE  0A 02 06 00 43 80 80 B9  ............C...
09B0: 09 03 16 00 01 80 01 DE  0A 02 06 00 15 80 80 C9  ................
09C0: 09 03 16 00 01 80 01 DE  0A 02 06 00 44 80 80 D9  ............D...
09D0: 09 03 16 00 01 80 01 DE  0A 02 06 00 2A 80 80 E9  ............*...
09E0: 09 03 16 00 01 80 01 DE  0A 02 06 00 2B 80 80 F9  ............+...
09F0: 09 03 16 00 01 80 01 DE  0A 02 06 00 45 80 80 09  ............E...
0A00: 0A 03 16 00 01 80 01 DE  0A 02 06 00 46 80 80 19  ............F...
0A10: 0A 03 16 00 01 80 01 DE  0A 02 06 00 34 80 80 29  ............4..)
0A20: 0A 03 16 00 01 80 01 DE  0A 02 06 00 47 80 80 39  ............G..9
0A30: 0A 03 16 00 01 80 01 DE  0A 02 06 00 48 80 80 49  ............H..I
0A40: 0A 03 16 00 01 80 01 DE  0A 02 06 00 49 80 80 59  ............I..Y
0A50: 0A 03 16 00 01 80 01 DE  0A 02 06 00 4A 80 80 69  ............J..i
0A60: 0A 03 16 00 01 80 01 DE  0A 02 06 00 0F 80 80 79  ...............y
0A70: 0A 03 16 00 01 80 01 DE  0A 02 06 00 4B 80 80 89  ............K...
0A80: 0A 03 16 00 01 80 01 DE  0A 02 06 00 4C 80 80 99  ............L...
0A90: 0A 03 16 00 01 80 01 DE  0A 02 06 00 4D 80 80 A9  ............M...
0AA0: 0A 03 16 00 01 80 01 DE  0A 02 06 00 4E 80 80 B9  ............N...
0AB0: 0A 03 16 00 01 80 01 DE  0A 02 06 00 4F 80 80 C9  ............O...
0AC0: 0A 03 16 00 01 80 01 DE  0A 02 06 00 20 80 80 D9  ............ ...
0AD0: 0A 03 16 00 01 80 01 DE  0A 03 16 00 01 80 02 04  ................
0AE0: 00 00 80 00 F9 0A 5C 00  56 80 5C 01 56 80 5C 02  ......\.V.\.V.\.
0AF0: 56 80 5C 03 56 80 01 11  0B 02 16 00 01 80 00 11  V.\.V...........
0B00: 0B 5C 00 56 80 5C 01 56  80 5C 02 56 80 5C 03 56  .\.V.\.V.\.V.\.V
0B10: 80 1A 1A 11 02 04 00 01  80 00 22 0B 1A B4 0F 01  ..........".....
0B20: 5B 0B 6C F0 FF FF 7F 01  80 00 80 62 03 80 F0 FF  [.l........b....
0B30: FF 7F F0 FF FF 7F 6D 61  69 6E 01 80 45 33 80 F0  ......main..E3..
0B40: FF FF 7F F0 FF FF 7F 6F  76 6C 31 01 80 46 02 13  .......ovl1..F..
0B50: 00 02 13 00 01 80 00 5B  0B 46 00 03 01 10 25 80  .......[.F....%.
0B60: 07 01 10 05 00 01 75 0B  01 6B 0B 0B 02 00 01 91  ......u..k......
0B70: 04 48 57 80 23 45 0E 80  F0 FF FF 7F F0 FF FF 7F  .HW.#E..........
0B80: 77 68 69 31 01 80 45 33  80 F0 FF FF 7F F0 FF FF  whi1..E3........
0B90: 7F 62 6C 6F 66 01 80 45  33 80 F0 FF FF 7F F0 FF  .blof..E3.......
0BA0: FF 7F 66 64 69 30 01 80  02 08 00 00 80 00 C0 0B  ..fdi0..........
0BB0: 5C 00 01 80 5C 01 01 80  5C 02 56 80 5C 03 56 80  \...\...\.V.\.V.
0BC0: 21 00 1B                                          !..             
```

#### Opcodes

```
  0: 0x02F4 [0x20] SET_CLI_EVENT_UC_FLAG: Lock player control
  1: 0x02F6 [0x79] LocalPlayer looks at LocalPlayer (Basic look)
  2: 0x0300 [0x03] ExtData[1]->WorkLocal[4] = Work_Zone[2]
  3: 0x0305 [0x03] ExtData[1]->WorkLocal[5] = Work_Zone[3]
  4: 0x030A [0x03] ExtData[1]->WorkLocal[7] = Work_Zone[5]
  5: 0x030F [0x03] ExtData[1]->WorkLocal[16] = Work_Zone[6]
  6: 0x0314 [0x03] ExtData[1]->WorkLocal[17] = Work_Zone[7]
  7: 0x0319 [0x03] ExtData[1]->WorkLocal[18] = Work_Zone[8]
  8: 0x031E [0x41] ExtData[1]->WorkLocal[8] = Work_Zone[9] (bits 0*-15*)
  9: 0x0327 [0x41] Work_Zone[6] = Work_Zone[9] (bits 16*-31*)
 10: 0x0330 [0x06] ExtData[1]->WorkLocal[3] = 0
 11: 0x0333 [0x02] IF !(ExtData[1]->WorkLocal[8] == 0*) GOTO 0x0432
 12: 0x033B [0x03] ExtData[1]->WorkLocal[9] = 4294967295*
 13: 0x0340 [0x0F] ExtData[1]->WorkLocal[9] ^= ExtData[1]->WorkLocal[7]
 14: 0x0345 [0x10] ExtData[1]->WorkLocal[9] <<= 1*
 15: 0x034A [0x24] CREATE_DIALOG(message_id=7812*, default_option=0*, option_flags=ExtData[1]->WorkLocal[9])
    → "Which battlefield will you enter? [None./No Time Like the Future./]"
 16: 0x0351 [0x25] WAIT_DIALOG_SELECT()
 17: 0x0352 [0x02] IF !(Work_Zone[0] == 0*) GOTO 0x0360
 18: 0x035A [0x01] GOTO 0x0BA8

SUBROUTINE_038C:
 19: 0x038C [0x3E] IF !(ExtData[1]->WorkLocal[17] bit ExtData[1]->WorkLocal[5]) GOTO 0x0396
 20: 0x0393 [0x01] GOTO 0x039D
 21: 0x0396 [0x3C] SET_BIT_FLAG_CONDITIONAL(target_work_offset=ExtData[1]->WorkLocal[9], bit_index_work_offset=1*, condition_work_offset=1*)

SUBROUTINE_039D:
 22: 0x039D [0x1A] CALL_SUBROUTINE(address=0x110E)
 23: 0x03A0 [0x24] CREATE_DIALOG(message_id=7692*, default_option=5*, option_flags=ExtData[1]->WorkLocal[9])
    → "Select difficulty. [Very difficult. (Level: ???)/Difficult. (Level: ???)/Normal. (Level: $18)/Easy. (Level: $17)/Very Easy. (Level: $16)/Leave.]"
 24: 0x03A7 [0x25] WAIT_DIALOG_SELECT()
 25: 0x03A8 [0x02] IF !(Work_Zone[0] == 0*) GOTO 0x03B8
 26: 0x03B0 [0x03] ExtData[1]->WorkLocal[16] = 1*
 27: 0x03B5 [0x01] GOTO 0x040B
 28: 0x03B8 [0x02] IF !(Work_Zone[0] == 1*) GOTO 0x03C8
 29: 0x03C0 [0x03] ExtData[1]->WorkLocal[16] = 2*
 30: 0x03C5 [0x01] GOTO 0x040B
 31: 0x03C8 [0x02] IF !(Work_Zone[0] == 2*) GOTO 0x03D8
 32: 0x03D0 [0x03] ExtData[1]->WorkLocal[16] = 3*
 33: 0x03D5 [0x01] GOTO 0x040B
 34: 0x03D8 [0x02] IF !(Work_Zone[0] == 3*) GOTO 0x03E8
 35: 0x03E0 [0x03] ExtData[1]->WorkLocal[16] = 4*
 36: 0x03E5 [0x01] GOTO 0x040B
 37: 0x03E8 [0x02] IF !(Work_Zone[0] == 4*) GOTO 0x03F8
 38: 0x03F0 [0x03] ExtData[1]->WorkLocal[16] = 5*
 39: 0x03F5 [0x01] GOTO 0x040B
 40: 0x03F8 [0x02] IF !(Work_Zone[0] == 5*) GOTO 0x0406
 41: 0x0400 [0x01] GOTO 0x0BA8

SUBROUTINE_040B:
 42: 0x040B [0x01] GOTO 0x0432
 43: 0x040E [0x06] ExtData[1]->WorkLocal[16] = 0
 44: 0x0411 [0x1A] CALL_SUBROUTINE(address=0x0BC2)
 45: 0x0414 [0x02] IF !(ExtData[1]->WorkLocal[23] == 1*) GOTO 0x0432
 46: 0x041C [0x24] CREATE_DIALOG(message_id=7327*, default_option=1*, option_flags=0*)
    → "Enter the battlefield? [Enter./Decline.]"
 47: 0x0423 [0x25] WAIT_DIALOG_SELECT()
 48: 0x0424 [0x02] IF !(Work_Zone[0] == 1*) GOTO 0x0432
 49: 0x042C [0x01] GOTO 0x0BA8

SUBROUTINE_0432:
 50: 0x0432 [0x42] SET_CLI_EVENT_CANCEL_DATA()
 51: 0x0433 [0x03] Work_Zone[1] = 255*
 52: 0x0438 [0x43] SEND_EVENT_UPDATE: Send pending tag to server (packet 0x005B)
 53: 0x043A [0x43] SEND_EVENT_UPDATE: Check pending flag (skip if not pending)
 54: 0x043C [0x06] Work_Zone[1] = 0
 55: 0x043F [0x45] LOAD_SCHEDULED_TASK: Load scheduler "fdo1" with entities [LocalPlayer, LocalPlayer], work=[200*, 0*]
 56: 0x0450 [0x55] WAIT_LOAD_SCHEDULER: Wait for scheduler "fdo1" with entities [LocalPlayer, LocalPlayer], work=200*
 57: 0x045F [0x3B] GET_ENTITY_POSITION(entity=LocalPlayer, x_destination=Work_Zone[32], y_destination=Work_Zone[33], z_destination=Work_Zone[34])
 58: 0x046A [0x38] SET_CLIENT_EVENT_MODE(mode=19*)
 59: 0x046D [0x02] IF !(ExtData[1]->WorkLocal[8] == 1*) GOTO 0x048C
 60: 0x0475 [0x03] ExtData[1]->WorkLocal[2] = 1*
 61: 0x047A [0x03] ExtData[1]->WorkLocal[6] = ExtData[1]->WorkLocal[5]
 62: 0x047F [0x03] ExtData[1]->WorkLocal[4] = 0*
 63: 0x0484 [0x03] ExtData[1]->WorkLocal[29] = 0*
 64: 0x0489 [0x01] GOTO 0x08E6

SUBROUTINE_048C:
 65: 0x048C [0x03] ExtData[1]->WorkLocal[2] = 1*

SUBROUTINE_0491:
 66: 0x0491 [0x02] IF !(ExtData[1]->WorkLocal[2] > 3*) GOTO 0x0B71
 67: 0x0499 [0x40] SET_BIT_WORK_RANGE(start_bit=0*, end_bit=3*, target=Work_Zone[1], source=ExtData[1]->WorkLocal[2])
 68: 0x04A2 [0x40] SET_BIT_WORK_RANGE(start_bit=4*, end_bit=8*, target=Work_Zone[1], source=ExtData[1]->WorkLocal[5])
 69: 0x04AB [0x40] SET_BIT_WORK_RANGE(start_bit=9*, end_bit=11*, target=Work_Zone[1], source=ExtData[1]->WorkLocal[16])
 70: 0x04B4 [0x06] Work_Zone[2] = 0
 71: 0x04B7 [0x06] Work_Zone[3] = 0
 72: 0x04BA [0x06] Work_Zone[4] = 0
 73: 0x04BD [0x02] IF !(ExtData[1]->WorkLocal[2] == 1*) GOTO 0x04DC
 74: 0x04C5 [0x03] ExtData[1]->WorkLocal[10] = 4294487296*
 75: 0x04CA [0x03] ExtData[1]->WorkLocal[11] = 488000*
 76: 0x04CF [0x03] ExtData[1]->WorkLocal[12] = 0*
 77: 0x04D4 [0x03] ExtData[1]->WorkLocal[13] = 3072*
 78: 0x04D9 [0x01] GOTO 0x0558
 79: 0x04DC [0x02] IF !(ExtData[1]->WorkLocal[2] == 2*) GOTO 0x04FB
 80: 0x04E4 [0x03] ExtData[1]->WorkLocal[10] = 520000*
 81: 0x04E9 [0x03] ExtData[1]->WorkLocal[11] = 488000*
 82: 0x04EE [0x03] ExtData[1]->WorkLocal[12] = 4294467296*
 83: 0x04F3 [0x03] ExtData[1]->WorkLocal[13] = 3072*
 84: 0x04F8 [0x01] GOTO 0x0558
 85: 0x04FB [0x02] IF !(ExtData[1]->WorkLocal[2] == 3*) GOTO 0x051A
 86: 0x0503 [0x03] ExtData[1]->WorkLocal[10] = 4294487296*
 87: 0x0508 [0x03] ExtData[1]->WorkLocal[11] = 4294455296*
 88: 0x050D [0x03] ExtData[1]->WorkLocal[12] = 4293967296*
 89: 0x0512 [0x03] ExtData[1]->WorkLocal[13] = 3072*
 90: 0x0517 [0x01] GOTO 0x0558
 91: 0x051A [0x02] IF !(ExtData[1]->WorkLocal[2] == 4*) GOTO 0x0539
 92: 0x0522 [0x03] ExtData[1]->WorkLocal[10] = 0*
 93: 0x0527 [0x03] ExtData[1]->WorkLocal[11] = 0*
 94: 0x052C [0x03] ExtData[1]->WorkLocal[12] = 0*
 95: 0x0531 [0x03] ExtData[1]->WorkLocal[13] = 0*
 96: 0x0536 [0x01] GOTO 0x0558
 97: 0x0539 [0x02] IF !(ExtData[1]->WorkLocal[2] == 5*) GOTO 0x0558
 98: 0x0541 [0x03] ExtData[1]->WorkLocal[10] = 0*
 99: 0x0546 [0x03] ExtData[1]->WorkLocal[11] = 0*
100: 0x054B [0x03] ExtData[1]->WorkLocal[12] = 0*
101: 0x0550 [0x03] ExtData[1]->WorkLocal[13] = 0*
102: 0x0555 [0x01] GOTO 0x0558

SUBROUTINE_0558:
103: 0x0558 [0x47] UPDATE_PLAYER_POS(ExtData[1]->WorkLocal[10], ExtData[1]->WorkLocal[11], ExtData[1]->WorkLocal[12], yaw=ExtData[1]->WorkLocal[13])
104: 0x0562 [0x47] WAIT_PLAYER_POS_UPDATE
105: 0x0564 [0x03] ExtData[1]->WorkLocal[6] = Work_Zone[3]
106: 0x0569 [0x03] ExtData[1]->WorkLocal[4] = Work_Zone[4]
107: 0x056E [0x03] ExtData[1]->WorkLocal[27] = Work_Zone[5]
108: 0x0573 [0x03] ExtData[1]->WorkLocal[14] = Work_Zone[6]
109: 0x0578 [0x03] ExtData[1]->WorkLocal[15] = Work_Zone[7]
110: 0x057D [0x03] ExtData[1]->WorkLocal[29] = Work_Zone[9]
111: 0x0582 [0x02] IF !(Work_Zone[2] == 1*) GOTO 0x058D
112: 0x058A [0x01] GOTO 0x0B6B
113: 0x058D [0x02] IF !(Work_Zone[2] == 4*) GOTO 0x05E6
114: 0x0595 [0x02] IF !(ExtData[1]->WorkLocal[2] == 1*) GOTO 0x05A4
115: 0x059D [0x48] [System] [7338*]:
    → "You are cleared to enter the battlefield, but you cannot while party members are engaged in combat."
116: 0x05A0 [0x23] WAIT_FOR_DIALOG_INTERACTION
117: 0x05A1 [0x01] GOTO 0x05E0
118: 0x05A4 [0x02] IF !(ExtData[1]->WorkLocal[2] == 2*) GOTO 0x05B3
119: 0x05AC [0x48] [System] [7339*]:
    → "You are cleared to enter the battlefield, but you cannot while party members are engaged in combat."
120: 0x05AF [0x23] WAIT_FOR_DIALOG_INTERACTION
121: 0x05B0 [0x01] GOTO 0x05E0
122: 0x05B3 [0x02] IF !(ExtData[1]->WorkLocal[2] == 3*) GOTO 0x05C2
123: 0x05BB [0x48] [System] [7340*]:
    → "You are cleared to enter the battlefield, but you cannot while party members are engaged in combat."
124: 0x05BE [0x23] WAIT_FOR_DIALOG_INTERACTION
125: 0x05BF [0x01] GOTO 0x05E0
126: 0x05C2 [0x02] IF !(ExtData[1]->WorkLocal[2] == 4*) GOTO 0x05D1
127: 0x05CA [0x48] [System] [7341*]:
    → "You are cleared to enter the battlefield, but you cannot while party members are engaged in combat."
128: 0x05CD [0x23] WAIT_FOR_DIALOG_INTERACTION
129: 0x05CE [0x01] GOTO 0x05E0
130: 0x05D1 [0x02] IF !(ExtData[1]->WorkLocal[2] == 5*) GOTO 0x05E0
131: 0x05D9 [0x48] [System] [7342*]:
    → "You are cleared to enter the battlefield, but you cannot while party members are engaged in combat."
132: 0x05DC [0x23] WAIT_FOR_DIALOG_INTERACTION
133: 0x05DD [0x01] GOTO 0x05E0

SUBROUTINE_05E0:
134: 0x05E0 [0x01] GOTO 0x0B75

SUBROUTINE_07F0:
135: 0x07F0 [0x48] [System] [7686*]:
    → "Only $3 [member/members] have clearance to enter the battlefield. This room has reached its maximum capacity."
136: 0x07F3 [0x23] WAIT_FOR_DIALOG_INTERACTION
137: 0x07F4 [0x01] GOTO 0x0B75

SUBROUTINE_084D:
138: 0x084D [0x01] GOTO 0x089C
139: 0x0850 [0x03] Work_Zone[5] = ExtData[1]->WorkLocal[27]
140: 0x0855 [0x02] IF !(ExtData[1]->WorkLocal[27] <= 0*) GOTO 0x087C
141: 0x085D [0x02] IF !(ExtData[1]->WorkLocal[27] < 60*) GOTO 0x0878
142: 0x0865 [0x3F] Work_Zone[4] = Work_Zone[5] % 60*
143: 0x086C [0x15] Work_Zone[5] /= 60*
144: 0x0871 [0x48] [System] [7810*]:
    → "The current battlefield clear time record for "[No Time Like the Future/]" is $3 minute[/s] $2 second[/s]."
145: 0x0874 [0x23] WAIT_FOR_DIALOG_INTERACTION
146: 0x0875 [0x01] GOTO 0x087C
147: 0x0878 [0x48] [System] [7809*]:
    → "The current battlefield clear time record for "[No Time Like the Future/]" is $3 second[/s]."
148: 0x087B [0x23] WAIT_FOR_DIALOG_INTERACTION

SUBROUTINE_087C:
149: 0x087C [0x02] IF !(ExtData[1]->WorkLocal[14] > 1*) GOTO 0x088B
150: 0x0884 [0x48] [System] [7691*]:
    → "That record is held by %0!"
151: 0x0887 [0x23] WAIT_FOR_DIALOG_INTERACTION
152: 0x0888 [0x01] GOTO 0x089C
153: 0x088B [0x03] Work_Zone[6] = ExtData[1]->WorkLocal[14]
154: 0x0890 [0x0C] Work_Zone[6]--
155: 0x0893 [0x03] Work_Zone[7] = ExtData[1]->WorkLocal[14]
156: 0x0898 [0x48] [System] [7690*]:
    → "That record is held by $5 adventurers, including %0!"
157: 0x089B [0x23] WAIT_FOR_DIALOG_INTERACTION

SUBROUTINE_089C:
158: 0x089C [0x03] ExtData[1]->WorkLocal[5] = ExtData[1]->WorkLocal[6]
159: 0x08A1 [0x03] ExtData[1]->WorkLocal[21] = 100*
160: 0x08A6 [0x07] ExtData[1]->WorkLocal[21] += ExtData[1]->WorkLocal[5]
161: 0x08AB [0x02] IF !(ExtData[1]->WorkLocal[4] == ExtData[1]->WorkLocal[21]) GOTO 0x08BB
162: 0x08B3 [0x03] ExtData[1]->WorkLocal[4] = 1*
163: 0x08B8 [0x01] GOTO 0x08C0
164: 0x08BB [0x03] ExtData[1]->WorkLocal[4] = 0*

SUBROUTINE_08C0:
165: 0x08C0 [0x02] IF !(ExtData[1]->WorkLocal[4] == 0*) GOTO 0x08E6
166: 0x08C8 [0x02] IF !(ExtData[1]->WorkLocal[15] == 1*) GOTO 0x08E6
167: 0x08D0 [0x24] CREATE_DIALOG(message_id=7666*, default_option=1*, option_flags=0*)
    → "Skip the event? [Yes./No.]"
168: 0x08D7 [0x25] WAIT_DIALOG_SELECT()
169: 0x08D8 [0x02] IF !(Work_Zone[0] == 0*) GOTO 0x08E6
170: 0x08E0 [0x05] ExtData[1]->WorkLocal[4] = 1
171: 0x08E3 [0x01] GOTO 0x08E6

SUBROUTINE_08E6:
172: 0x08E6 [0x06] ExtData[1]->WorkLocal[22] = 0
173: 0x08E9 [0x02] IF !(ExtData[1]->WorkLocal[6] == 0*) GOTO 0x08F9
174: 0x08F1 [0x03] ExtData[1]->WorkLocal[22] = 0*
175: 0x08F6 [0x01] GOTO 0x0ADE
176: 0x08F9 [0x02] IF !(ExtData[1]->WorkLocal[6] == 1*) GOTO 0x0909
177: 0x0901 [0x03] ExtData[1]->WorkLocal[22] = 0*
178: 0x0906 [0x01] GOTO 0x0ADE
179: 0x0909 [0x02] IF !(ExtData[1]->WorkLocal[6] == 2*) GOTO 0x0919
180: 0x0911 [0x03] ExtData[1]->WorkLocal[22] = 0*
181: 0x0916 [0x01] GOTO 0x0ADE
182: 0x0919 [0x02] IF !(ExtData[1]->WorkLocal[6] == 3*) GOTO 0x0929
183: 0x0921 [0x03] ExtData[1]->WorkLocal[22] = 0*
184: 0x0926 [0x01] GOTO 0x0ADE
185: 0x0929 [0x02] IF !(ExtData[1]->WorkLocal[6] == 4*) GOTO 0x0939
186: 0x0931 [0x03] ExtData[1]->WorkLocal[22] = 0*
187: 0x0936 [0x01] GOTO 0x0ADE
188: 0x0939 [0x02] IF !(ExtData[1]->WorkLocal[6] == 5*) GOTO 0x0949
189: 0x0941 [0x03] ExtData[1]->WorkLocal[22] = 0*
190: 0x0946 [0x01] GOTO 0x0ADE
191: 0x0949 [0x02] IF !(ExtData[1]->WorkLocal[6] == 6*) GOTO 0x0959
192: 0x0951 [0x03] ExtData[1]->WorkLocal[22] = 0*
193: 0x0956 [0x01] GOTO 0x0ADE
194: 0x0959 [0x02] IF !(ExtData[1]->WorkLocal[6] == 7*) GOTO 0x0969
195: 0x0961 [0x03] ExtData[1]->WorkLocal[22] = 0*
196: 0x0966 [0x01] GOTO 0x0ADE
197: 0x0969 [0x02] IF !(ExtData[1]->WorkLocal[6] == 8*) GOTO 0x0979
198: 0x0971 [0x03] ExtData[1]->WorkLocal[22] = 0*
199: 0x0976 [0x01] GOTO 0x0ADE
200: 0x0979 [0x02] IF !(ExtData[1]->WorkLocal[6] == 9*) GOTO 0x0989
201: 0x0981 [0x03] ExtData[1]->WorkLocal[22] = 0*
202: 0x0986 [0x01] GOTO 0x0ADE
203: 0x0989 [0x02] IF !(ExtData[1]->WorkLocal[6] == 10*) GOTO 0x0999
204: 0x0991 [0x03] ExtData[1]->WorkLocal[22] = 0*
205: 0x0996 [0x01] GOTO 0x0ADE
206: 0x0999 [0x02] IF !(ExtData[1]->WorkLocal[6] == 11*) GOTO 0x09A9
207: 0x09A1 [0x03] ExtData[1]->WorkLocal[22] = 0*
208: 0x09A6 [0x01] GOTO 0x0ADE
209: 0x09A9 [0x02] IF !(ExtData[1]->WorkLocal[6] == 12*) GOTO 0x09B9
210: 0x09B1 [0x03] ExtData[1]->WorkLocal[22] = 0*
211: 0x09B6 [0x01] GOTO 0x0ADE
212: 0x09B9 [0x02] IF !(ExtData[1]->WorkLocal[6] == 13*) GOTO 0x09C9
213: 0x09C1 [0x03] ExtData[1]->WorkLocal[22] = 0*
214: 0x09C6 [0x01] GOTO 0x0ADE
215: 0x09C9 [0x02] IF !(ExtData[1]->WorkLocal[6] == 14*) GOTO 0x09D9
216: 0x09D1 [0x03] ExtData[1]->WorkLocal[22] = 0*
217: 0x09D6 [0x01] GOTO 0x0ADE
218: 0x09D9 [0x02] IF !(ExtData[1]->WorkLocal[6] == 15*) GOTO 0x09E9
219: 0x09E1 [0x03] ExtData[1]->WorkLocal[22] = 0*
220: 0x09E6 [0x01] GOTO 0x0ADE
221: 0x09E9 [0x02] IF !(ExtData[1]->WorkLocal[6] == 16*) GOTO 0x09F9
222: 0x09F1 [0x03] ExtData[1]->WorkLocal[22] = 0*
223: 0x09F6 [0x01] GOTO 0x0ADE
224: 0x09F9 [0x02] IF !(ExtData[1]->WorkLocal[6] == 17*) GOTO 0x0A09
225: 0x0A01 [0x03] ExtData[1]->WorkLocal[22] = 0*
226: 0x0A06 [0x01] GOTO 0x0ADE
227: 0x0A09 [0x02] IF !(ExtData[1]->WorkLocal[6] == 18*) GOTO 0x0A19
228: 0x0A11 [0x03] ExtData[1]->WorkLocal[22] = 0*
229: 0x0A16 [0x01] GOTO 0x0ADE
230: 0x0A19 [0x02] IF !(ExtData[1]->WorkLocal[6] == 19*) GOTO 0x0A29
231: 0x0A21 [0x03] ExtData[1]->WorkLocal[22] = 0*
232: 0x0A26 [0x01] GOTO 0x0ADE
233: 0x0A29 [0x02] IF !(ExtData[1]->WorkLocal[6] == 20*) GOTO 0x0A39
234: 0x0A31 [0x03] ExtData[1]->WorkLocal[22] = 0*
235: 0x0A36 [0x01] GOTO 0x0ADE
236: 0x0A39 [0x02] IF !(ExtData[1]->WorkLocal[6] == 21*) GOTO 0x0A49
237: 0x0A41 [0x03] ExtData[1]->WorkLocal[22] = 0*
238: 0x0A46 [0x01] GOTO 0x0ADE
239: 0x0A49 [0x02] IF !(ExtData[1]->WorkLocal[6] == 22*) GOTO 0x0A59
240: 0x0A51 [0x03] ExtData[1]->WorkLocal[22] = 0*
241: 0x0A56 [0x01] GOTO 0x0ADE
242: 0x0A59 [0x02] IF !(ExtData[1]->WorkLocal[6] == 23*) GOTO 0x0A69
243: 0x0A61 [0x03] ExtData[1]->WorkLocal[22] = 0*
244: 0x0A66 [0x01] GOTO 0x0ADE
245: 0x0A69 [0x02] IF !(ExtData[1]->WorkLocal[6] == 24*) GOTO 0x0A79
246: 0x0A71 [0x03] ExtData[1]->WorkLocal[22] = 0*
247: 0x0A76 [0x01] GOTO 0x0ADE
248: 0x0A79 [0x02] IF !(ExtData[1]->WorkLocal[6] == 25*) GOTO 0x0A89
249: 0x0A81 [0x03] ExtData[1]->WorkLocal[22] = 0*
250: 0x0A86 [0x01] GOTO 0x0ADE
251: 0x0A89 [0x02] IF !(ExtData[1]->WorkLocal[6] == 26*) GOTO 0x0A99
252: 0x0A91 [0x03] ExtData[1]->WorkLocal[22] = 0*
253: 0x0A96 [0x01] GOTO 0x0ADE
254: 0x0A99 [0x02] IF !(ExtData[1]->WorkLocal[6] == 27*) GOTO 0x0AA9
255: 0x0AA1 [0x03] ExtData[1]->WorkLocal[22] = 0*
256: 0x0AA6 [0x01] GOTO 0x0ADE
257: 0x0AA9 [0x02] IF !(ExtData[1]->WorkLocal[6] == 28*) GOTO 0x0AB9
258: 0x0AB1 [0x03] ExtData[1]->WorkLocal[22] = 0*
259: 0x0AB6 [0x01] GOTO 0x0ADE
260: 0x0AB9 [0x02] IF !(ExtData[1]->WorkLocal[6] == 29*) GOTO 0x0AC9
261: 0x0AC1 [0x03] ExtData[1]->WorkLocal[22] = 0*
262: 0x0AC6 [0x01] GOTO 0x0ADE
263: 0x0AC9 [0x02] IF !(ExtData[1]->WorkLocal[6] == 30*) GOTO 0x0AD9
264: 0x0AD1 [0x03] ExtData[1]->WorkLocal[22] = 0*
265: 0x0AD6 [0x01] GOTO 0x0ADE
266: 0x0AD9 [0x03] ExtData[1]->WorkLocal[22] = 0*

SUBROUTINE_0ADE:
267: 0x0ADE [0x02] IF !(ExtData[1]->WorkLocal[4] == 1*) GOTO 0x0AF9
268: 0x0AE6 [0x5C] MUSIC_CONTROL: Set Idle (Day) music to song 82*
269: 0x0AEA [0x5C] MUSIC_CONTROL: Set Idle (Night) music to song 82*
270: 0x0AEE [0x5C] MUSIC_CONTROL: Set Combat (Solo) music to song 82*
271: 0x0AF2 [0x5C] MUSIC_CONTROL: Set Combat (Party) music to song 82*
272: 0x0AF6 [0x01] GOTO 0x0B11
273: 0x0AF9 [0x02] IF !(ExtData[1]->WorkLocal[22] == 0*) GOTO 0x0B11
274: 0x0B01 [0x5C] MUSIC_CONTROL: Set Idle (Day) music to song 82*
275: 0x0B05 [0x5C] MUSIC_CONTROL: Set Idle (Night) music to song 82*
276: 0x0B09 [0x5C] MUSIC_CONTROL: Set Combat (Solo) music to song 82*
277: 0x0B0D [0x5C] MUSIC_CONTROL: Set Combat (Party) music to song 82*

SUBROUTINE_0B11:
278: 0x0B11 [0x1A] CALL_SUBROUTINE(address=0x111A)
279: 0x0B14 [0x02] IF !(ExtData[1]->WorkLocal[4] == 0*) GOTO 0x0B22
280: 0x0B1C [0x1A] CALL_SUBROUTINE(address=0x0FB4)
281: 0x0B1F [0x01] GOTO 0x0B5B
282: 0x0B22 [0x6C] FADE_ENTITY_COLOR(entity_id=LocalPlayer, end_alpha=0*, fade_time=1*)
283: 0x0B2B [0x62] LOAD_EVENT_SCHEDULER: Load scheduler "main" with entities [LocalPlayer, LocalPlayer], work=[2*, 0*]
284: 0x0B3C [0x45] LOAD_SCHEDULED_TASK: Load scheduler "ovl1" with entities [LocalPlayer, LocalPlayer], work=[200*, 0*]
285: 0x0B4D [0x46] CAMERA_CONTROL: Query status
286: 0x0B4F [0x13] 0x0200 = rand() % ExtData[1]->WorkLocal[19]
287: 0x0B54 [0x01] GOTO 0x0080

SUBROUTINE_0B75:
288: 0x0B75 [0x45] LOAD_SCHEDULED_TASK: Load scheduler "whi1" with entities [LocalPlayer, LocalPlayer], work=[201*, 0*]
289: 0x0B86 [0x45] LOAD_SCHEDULED_TASK: Load scheduler "blof" with entities [LocalPlayer, LocalPlayer], work=[200*, 0*]
290: 0x0B97 [0x45] LOAD_SCHEDULED_TASK: Load scheduler "fdi0" with entities [LocalPlayer, LocalPlayer], work=[200*, 0*]

SUBROUTINE_0BA8:
291: 0x0BA8 [0x02] IF !(ExtData[1]->WorkLocal[8] == 1*) GOTO 0x0BC0
292: 0x0BB0 [0x5C] MUSIC_CONTROL: Set Idle (Day) music to song 0*
293: 0x0BB4 [0x5C] MUSIC_CONTROL: Set Idle (Night) music to song 0*
294: 0x0BB8 [0x5C] MUSIC_CONTROL: Set Combat (Solo) music to song 82*
295: 0x0BBC [0x5C] MUSIC_CONTROL: Set Combat (Party) music to song 82*
296: 0x0BC0 [0x21] END_EVENT
297: 0x0BC1 [0x00] END_REQSTACK()

SUBROUTINE_0BC2:
298: 0x0BC2 [0x1B] RETURN
```

#### Data or dead code:

```
# Dead code (unreachable instructions):
     0x035D [0x01] GOTO 0x0432
# Dead code (unreachable instructions):
     0x0403 [0x01] GOTO 0x040B
# Dead code (unreachable instructions):
     0x042F [0x01] GOTO 0x0432
# Dead code (unreachable instructions):
     0x05E3 [0x01] GOTO 0x0B6B
     0x05F5 [0x01] GOTO 0x0B6B
# Dead code (unreachable instructions):
     0x07F7 [0x01] GOTO 0x0B6B
     0x0805 [0x01] GOTO 0x0B6B
# Dead code (unreachable instructions):
     0x0B57 [0x5B] LOAD_EXT_SCHEDULER: Load scheduler 0x01000510 with entities [Unknown NPC (ID: 268501760/0x10010300), Unknown NPC (ID: 17268773/0x01078025)], work=0x460B
```

### Event 32002

#### Metadata

| Field        | Value     |
|--------------|-----------|
| Entrypoint   | 0x0BC3    |
| Data Size    | 133 bytes |
| Instructions | 20        |

```
      00 01 02 03 04 05 06 07  08 09 0A 0B 0C 0D 0E 0F
      -- -- -- -- -- -- -- --  -- -- -- -- -- -- -- --
0BC0:          03 22 00 07 10  03 21 00 08 10 20 01 42     ."....!... .B
0BD0: 3B F0 FF FF 7F 20 10 21  10 22 10 3A F0 FF FF 7F  ;.... .!.".:....
0BE0: 23 10 45 33 80 F0 FF FF  7F F0 FF FF 7F 66 64 6F  #.E3.........fdo
0BF0: 31 01 80 55 33 80 F0 FF  FF 7F F0 FF FF 7F 66 64  1..U3.........fd
0C00: 6F 31 47 00 58 80 59 80  1B 80 38 80 47 01 38 34  o1G.X.Y...8.G.84
0C10: 80 1A 03 11 45 0E 80 F0  FF FF 7F F0 FF FF 7F 77  ....E..........w
0C20: 68 69 31 01 80 45 33 80  F0 FF FF 7F F0 FF FF 7F  hi1..E3.........
0C30: 62 6C 6F 66 01 80 5C 00  01 80 5C 01 01 80 5C 02  blof..\...\...\.
0C40: 56 80 5C 03 56 80 21 00                           V.\.V.!.        
```

#### Opcodes

```
  0: 0x0BC3 [0x03] ExtData[1]->WorkLocal[34] = Work_Zone[7]
  1: 0x0BC8 [0x03] ExtData[1]->WorkLocal[33] = Work_Zone[8]
  2: 0x0BCD [0x20] SET_CLI_EVENT_UC_FLAG: Lock player control
  3: 0x0BCF [0x42] SET_CLI_EVENT_CANCEL_DATA()
  4: 0x0BD0 [0x3B] GET_ENTITY_POSITION(entity=LocalPlayer, x_destination=Work_Zone[32], y_destination=Work_Zone[33], z_destination=Work_Zone[34])
  5: 0x0BDB [0x3A] CONVERT_YAW_TO_BYTE(entity=LocalPlayer, result_destination=Work_Zone[35])
  6: 0x0BE2 [0x45] LOAD_SCHEDULED_TASK: Load scheduler "fdo1" with entities [LocalPlayer, LocalPlayer], work=[200*, 0*]
  7: 0x0BF3 [0x55] WAIT_LOAD_SCHEDULER: Wait for scheduler "fdo1" with entities [LocalPlayer, LocalPlayer], work=200*
  8: 0x0C02 [0x47] UPDATE_PLAYER_POS(539.989*, -576.522*, -500.000*, yaw=270.0°*)
  9: 0x0C0C [0x47] WAIT_PLAYER_POS_UPDATE
 10: 0x0C0E [0x38] SET_CLIENT_EVENT_MODE(mode=19*)
 11: 0x0C11 [0x1A] CALL_SUBROUTINE(address=0x1103)
 12: 0x0C14 [0x45] LOAD_SCHEDULED_TASK: Load scheduler "whi1" with entities [LocalPlayer, LocalPlayer], work=[201*, 0*]
 13: 0x0C25 [0x45] LOAD_SCHEDULED_TASK: Load scheduler "blof" with entities [LocalPlayer, LocalPlayer], work=[200*, 0*]
 14: 0x0C36 [0x5C] MUSIC_CONTROL: Set Idle (Day) music to song 0*
 15: 0x0C3A [0x5C] MUSIC_CONTROL: Set Idle (Night) music to song 0*
 16: 0x0C3E [0x5C] MUSIC_CONTROL: Set Combat (Solo) music to song 82*
 17: 0x0C42 [0x5C] MUSIC_CONTROL: Set Combat (Party) music to song 82*
 18: 0x0C46 [0x21] END_EVENT
 19: 0x0C47 [0x00] END_REQSTACK()
```

### Event 32001

#### Metadata

| Field        | Value     |
|--------------|-----------|
| Entrypoint   | 0x0C48    |
| Data Size    | 562 bytes |
| Instructions | 94        |

```
      00 01 02 03 04 05 06 07  08 09 0A 0B 0C 0D 0E 0F
      -- -- -- -- -- -- -- --  -- -- -- -- -- -- -- --
0C40:                          79 00 F0 FF FF 7F F0 FF          y.......
0C50: FF 7F 03 22 00 02 10 03  1B 00 03 10 03 1C 00 05  ..."............
0C60: 10 03 21 00 06 10 03 1A  00 07 10 03 18 00 08 10  ..!.............
0C70: 02 18 00 14 80 04 7D 0C  03 18 00 01 80 1A F2 10  ......}.........
0C80: 03 1D 00 09 10 20 01 42  3B F0 FF FF 7F 20 10 21  ..... .B;.... .!
0C90: 10 22 10 3A F0 FF FF 7F  23 10 02 21 00 5A 80 01  .".:....#..!.Z..
0CA0: A5 0C 1C 5B 80 45 0E 80  F0 FF FF 7F F0 FF FF 7F  ...[.E..........
0CB0: 77 68 69 31 01 80 45 33  80 F0 FF FF 7F F0 FF FF  whi1..E3........
0CC0: 7F 62 6C 6F 66 01 80 45  33 80 F0 FF FF 7F F0 FF  .blof..E3.......
0CD0: FF 7F 66 64 6F 31 01 80  55 33 80 F0 FF FF 7F F0  ..fdo1..U3......
0CE0: FF FF 7F 66 64 6F 31 6C  F0 FF FF 7F 21 80 00 80  ...fdo1l....!...
0CF0: 06 01 10 02 18 00 01 80  03 FE 0C 01 0A 0D 47 00  ..............G.
0D00: 58 80 59 80 1B 80 38 80  47 01 38 34 80 02 18 00  X.Y...8.G.84....
0D10: 03 80 00 18 0D 01 33 0D  02 18 00 00 80 00 77 0D  ......3.......w.
0D20: 1C 2A 80 24 55 80 00 80  01 80 25 02 00 10 01 80  .*.$U.....%.....
0D30: 00 77 0D 37 58 80 59 80  1B 80 38 80 80 F0 FF FF  .w.7X.Y...8.....
0D40: 7F 62 03 80 F0 FF FF 7F  F0 FF FF 7F 6D 61 69 6E  .b..........main
0D50: 01 80 45 33 80 F0 FF FF  7F F0 FF FF 7F 66 64 69  ..E3.........fdi
0D60: 32 01 80 46 02 13 00 02  13 00 01 80 00 71 0D 46  2..F.........q.F
0D70: 00 01 9E 0D 01 77 0D 02  18 00 2D 80 04 90 0D 5C  .....w....-....\
0D80: 00 56 80 5C 01 56 80 5C  02 56 80 5C 03 56 80 9A  .V.\.V.\.V.\.V..
0D90: 1A 43 10 02 18 00 01 80  03 9E 0D 01 12 0E 02 21  .C.............!
0DA0: 00 01 80 80 A9 0D 01 A9  0D 03 05 10 1C 00 02 05  ................
0DB0: 10 01 80 02 12 0E 02 05  10 13 80 04 D1 0D 3F 04  ..............?.
0DC0: 10 05 10 13 80 15 05 10  13 80 48 5C 80 23 01 D5  ..........H\.#..
0DD0: 0D 48 5D 80 23 02 1C 00  1B 00 05 E9 0D 03 07 10  .H].#...........
0DE0: 1A 00 48 5E 80 23 01 12  0E 02 1B 00 13 80 04 09  ..H^.#..........
0DF0: 0E 03 05 10 1B 00 3F 04  10 05 10 13 80 15 05 10  ......?.........
0E00: 13 80 48 5F 80 23 01 12  0E 03 05 10 1B 00 48 60  ..H_.#........H`
0E10: 80 23 02 19 00 01 80 00  2A 0E 5C 00 01 80 5C 01  .#......*.\...\.
0E20: 01 80 5C 02 56 80 5C 03  56 80 02 18 00 01 80 03  ..\.V.\.V.......
0E30: 53 0E 45 33 80 F0 FF FF  7F F0 FF FF 7F 66 64 69  S.E3.........fdi
0E40: 32 01 80 5C 00 01 80 5C  01 01 80 5C 02 56 80 5C  2..\...\...\.V.\
0E50: 03 56 80 06 19 00 45 0E  80 F0 FF FF 7F F0 FF FF  .V....E.........
0E60: 7F 77 68 69 31 01 80 45  33 80 F0 FF FF 7F F0 FF  .whi1..E3.......
0E70: FF 7F 62 6C 6F 66 01 80  21 00                    ..blof..!.      
```

#### Opcodes

```
  0: 0x0C48 [0x79] LocalPlayer looks at LocalPlayer (Basic look)
  1: 0x0C52 [0x03] ExtData[1]->WorkLocal[34] = Work_Zone[2]
  2: 0x0C57 [0x03] ExtData[1]->WorkLocal[27] = Work_Zone[3]
  3: 0x0C5C [0x03] ExtData[1]->WorkLocal[28] = Work_Zone[5]
  4: 0x0C61 [0x03] ExtData[1]->WorkLocal[33] = Work_Zone[6]
  5: 0x0C66 [0x03] ExtData[1]->WorkLocal[26] = Work_Zone[7]
  6: 0x0C6B [0x03] ExtData[1]->WorkLocal[24] = Work_Zone[8]
  7: 0x0C70 [0x02] IF !(ExtData[1]->WorkLocal[24] < 3*) GOTO 0x0C7D
  8: 0x0C78 [0x03] ExtData[1]->WorkLocal[24] = 0*
  9: 0x0C7D [0x1A] CALL_SUBROUTINE(address=0x10F2)
 10: 0x0C80 [0x03] ExtData[1]->WorkLocal[29] = Work_Zone[9]
 11: 0x0C85 [0x20] SET_CLI_EVENT_UC_FLAG: Lock player control
 12: 0x0C87 [0x42] SET_CLI_EVENT_CANCEL_DATA()
 13: 0x0C88 [0x3B] GET_ENTITY_POSITION(entity=LocalPlayer, x_destination=Work_Zone[32], y_destination=Work_Zone[33], z_destination=Work_Zone[34])
 14: 0x0C93 [0x3A] CONVERT_YAW_TO_BYTE(entity=LocalPlayer, result_destination=Work_Zone[35])
 15: 0x0C9A [0x02] IF !(ExtData[1]->WorkLocal[33] == 180*) GOTO 0x0CA5
 16: 0x0CA2 [0x1C] WAIT(300* ticks)
 17: 0x0CA5 [0x45] LOAD_SCHEDULED_TASK: Load scheduler "whi1" with entities [LocalPlayer, LocalPlayer], work=[201*, 0*]
 18: 0x0CB6 [0x45] LOAD_SCHEDULED_TASK: Load scheduler "blof" with entities [LocalPlayer, LocalPlayer], work=[200*, 0*]
 19: 0x0CC7 [0x45] LOAD_SCHEDULED_TASK: Load scheduler "fdo1" with entities [LocalPlayer, LocalPlayer], work=[200*, 0*]
 20: 0x0CD8 [0x55] WAIT_LOAD_SCHEDULER: Wait for scheduler "fdo1" with entities [LocalPlayer, LocalPlayer], work=200*
 21: 0x0CE7 [0x6C] FADE_ENTITY_COLOR(entity_id=LocalPlayer, end_alpha=128*, fade_time=1*)
 22: 0x0CF0 [0x06] Work_Zone[1] = 0
 23: 0x0CF3 [0x02] IF !(ExtData[1]->WorkLocal[24] >= 0*) GOTO 0x0CFE
 24: 0x0CFB [0x01] GOTO 0x0D0A
 25: 0x0CFE [0x47] UPDATE_PLAYER_POS(539.989*, -576.522*, -500.000*, yaw=270.0°*)
 26: 0x0D08 [0x47] WAIT_PLAYER_POS_UPDATE

SUBROUTINE_0D0A:
 27: 0x0D0A [0x38] SET_CLIENT_EVENT_MODE(mode=19*)
 28: 0x0D0D [0x02] IF !(ExtData[1]->WorkLocal[24] == 2*) GOTO 0x0D18
 29: 0x0D15 [0x01] GOTO 0x0D33
 30: 0x0D18 [0x02] IF !(ExtData[1]->WorkLocal[24] == 1*) GOTO 0x0D77
 31: 0x0D20 [0x1C] WAIT(15* ticks)
 32: 0x0D23 [0x24] CREATE_DIALOG(message_id=7666*, default_option=1*, option_flags=0*)
    → "Skip the event? [Yes./No.]"
 33: 0x0D2A [0x25] WAIT_DIALOG_SELECT()
 34: 0x0D2B [0x02] IF !(Work_Zone[0] == 0*) GOTO 0x0D77

SUBROUTINE_0D33:
 35: 0x0D33 [0x37] UPDATE_EVENT_POSITION_AND_DIR: x=539.989*, z=-576.522*, y=-500.000*, direction=270.0°*
 36: 0x0D3C [0x80] LOAD_WAIT(entity=LocalPlayer)
 37: 0x0D41 [0x62] LOAD_EVENT_SCHEDULER: Load scheduler "main" with entities [LocalPlayer, LocalPlayer], work=[2*, 0*]
 38: 0x0D52 [0x45] LOAD_SCHEDULED_TASK: Load scheduler "fdi2" with entities [LocalPlayer, LocalPlayer], work=[200*, 0*]
 39: 0x0D63 [0x46] CAMERA_CONTROL: Query status
 40: 0x0D65 [0x13] 0x0200 = rand() % ExtData[1]->WorkLocal[19]
 41: 0x0D6A [0x01] GOTO 0x0080

SUBROUTINE_0D77:
 42: 0x0D77 [0x02] IF !(ExtData[1]->WorkLocal[24] < 4294967295*) GOTO 0x0D90
 43: 0x0D7F [0x5C] MUSIC_CONTROL: Set Idle (Day) music to song 82*
 44: 0x0D83 [0x5C] MUSIC_CONTROL: Set Idle (Night) music to song 82*
 45: 0x0D87 [0x5C] MUSIC_CONTROL: Set Combat (Solo) music to song 82*
 46: 0x0D8B [0x5C] MUSIC_CONTROL: Set Combat (Party) music to song 82*
 47: 0x0D8F [0x9A] WAIT_MUSIC_SERVER()
 48: 0x0D90 [0x1A] CALL_SUBROUTINE(address=0x1043)
 49: 0x0D93 [0x02] IF !(ExtData[1]->WorkLocal[24] >= 0*) GOTO 0x0D9E
 50: 0x0D9B [0x01] GOTO 0x0E12

SUBROUTINE_0D9E:
 51: 0x0D9E [0x02] IF !(ExtData[1]->WorkLocal[33] == 0*) GOTO 0x0DA9
 52: 0x0DA6 [0x01] GOTO 0x0DA9

SUBROUTINE_0DA9:
 53: 0x0DA9 [0x03] Work_Zone[5] = ExtData[1]->WorkLocal[28]
 54: 0x0DAE [0x02] IF !(Work_Zone[5] <= 0*) GOTO 0x0E12
 55: 0x0DB6 [0x02] IF !(Work_Zone[5] < 60*) GOTO 0x0DD1
 56: 0x0DBE [0x3F] Work_Zone[4] = Work_Zone[5] % 60*
 57: 0x0DC5 [0x15] Work_Zone[5] /= 60*
 58: 0x0DCA [0x48] [System] [7668*]:
    → "Battlefield clear time: $3 minute[/s], $2 second[/s]!"
 59: 0x0DCD [0x23] WAIT_FOR_DIALOG_INTERACTION
 60: 0x0DCE [0x01] GOTO 0x0DD5
 61: 0x0DD1 [0x48] [System] [7667*]:
    → "Battlefield clear time: $3 second[/s]!"
 62: 0x0DD4 [0x23] WAIT_FOR_DIALOG_INTERACTION

SUBROUTINE_0DD5:
 63: 0x0DD5 [0x02] IF !(ExtData[1]->WorkLocal[28] > ExtData[1]->WorkLocal[27]) GOTO 0x0DE9
 64: 0x0DDD [0x03] Work_Zone[7] = ExtData[1]->WorkLocal[26]
 65: 0x0DE2 [0x48] [System] [7808*]:
    → "You have broken the clear time record for "[No Time Like the Future/]"!"
 66: 0x0DE5 [0x23] WAIT_FOR_DIALOG_INTERACTION
 67: 0x0DE6 [0x01] GOTO 0x0E12
 68: 0x0DE9 [0x02] IF !(ExtData[1]->WorkLocal[27] < 60*) GOTO 0x0E09
 69: 0x0DF1 [0x03] Work_Zone[5] = ExtData[1]->WorkLocal[27]
 70: 0x0DF6 [0x3F] Work_Zone[4] = Work_Zone[5] % 60*
 71: 0x0DFD [0x15] Work_Zone[5] /= 60*
 72: 0x0E02 [0x48] [System] [7670*]:
    → "The current battlefield clear time record is $3 minute[/s] $2 second[/s]."
 73: 0x0E05 [0x23] WAIT_FOR_DIALOG_INTERACTION
 74: 0x0E06 [0x01] GOTO 0x0E12
 75: 0x0E09 [0x03] Work_Zone[5] = ExtData[1]->WorkLocal[27]
 76: 0x0E0E [0x48] [System] [7669*]:
    → "The current battlefield clear time record is $3 second[/s]."
 77: 0x0E11 [0x23] WAIT_FOR_DIALOG_INTERACTION

SUBROUTINE_0E12:
 78: 0x0E12 [0x02] IF !(ExtData[1]->WorkLocal[25] == 0*) GOTO 0x0E2A
 79: 0x0E1A [0x5C] MUSIC_CONTROL: Set Idle (Day) music to song 0*
 80: 0x0E1E [0x5C] MUSIC_CONTROL: Set Idle (Night) music to song 0*
 81: 0x0E22 [0x5C] MUSIC_CONTROL: Set Combat (Solo) music to song 82*
 82: 0x0E26 [0x5C] MUSIC_CONTROL: Set Combat (Party) music to song 82*
 83: 0x0E2A [0x02] IF !(ExtData[1]->WorkLocal[24] >= 0*) GOTO 0x0E53
 84: 0x0E32 [0x45] LOAD_SCHEDULED_TASK: Load scheduler "fdi2" with entities [LocalPlayer, LocalPlayer], work=[200*, 0*]
 85: 0x0E43 [0x5C] MUSIC_CONTROL: Set Idle (Day) music to song 0*
 86: 0x0E47 [0x5C] MUSIC_CONTROL: Set Idle (Night) music to song 0*
 87: 0x0E4B [0x5C] MUSIC_CONTROL: Set Combat (Solo) music to song 82*
 88: 0x0E4F [0x5C] MUSIC_CONTROL: Set Combat (Party) music to song 82*
 89: 0x0E53 [0x06] ExtData[1]->WorkLocal[25] = 0
 90: 0x0E56 [0x45] LOAD_SCHEDULED_TASK: Load scheduler "whi1" with entities [LocalPlayer, LocalPlayer], work=[201*, 0*]
 91: 0x0E67 [0x45] LOAD_SCHEDULED_TASK: Load scheduler "blof" with entities [LocalPlayer, LocalPlayer], work=[200*, 0*]
 92: 0x0E78 [0x21] END_EVENT
 93: 0x0E79 [0x00] END_REQSTACK()
```

#### Data or dead code:

```
# Dead code (unreachable instructions):
     0x0D6D [0x71] USER_INPUT_HANDLER: Unknown mode 0x0D
     0x0D6F [0x46] CAMERA_CONTROL: Restore default settings
     0x0D71 [0x01] GOTO 0x0D9E
     0x0D74 [0x01] GOTO 0x0D77
```

### Event 32003

#### Metadata

| Field        | Value     |
|--------------|-----------|
| Entrypoint   | 0x0E7A    |
| Data Size    | 182 bytes |
| Instructions | 33        |

```
      00 01 02 03 04 05 06 07  08 09 0A 0B 0C 0D 0E 0F
      -- -- -- -- -- -- -- --  -- -- -- -- -- -- -- --
0E70:                                06 1E 00 06 1F 00            ......
0E80: 03 22 00 06 10 03 21 00  07 10 03 20 00 08 10 06  ."....!.... ....
0E90: 01 10 1A A2 10 02 1E 00  00 80 00 2E 0F 42 03 01  .............B..
0EA0: 10 03 80 43 00 43 01 03  01 10 14 80 43 00 43 01  ...C.C......C.C.
0EB0: 1A B9 10 02 1F 00 00 80  00 2E 0F 45 33 80 F0 FF  ...........E3...
0EC0: FF 7F F0 FF FF 7F 66 64  6F 31 01 80 55 33 80 F0  ......fdo1..U3..
0ED0: FF FF 7F F0 FF FF 7F 66  64 6F 31 03 01 10 30 80  .......fdo1...0.
0EE0: 47 00 58 80 59 80 1B 80  38 80 47 01 38 34 80 79  G.X.Y...8.G.84.y
0EF0: 00 F0 FF FF 7F F0 FF FF  7F 1A BD 10 45 0E 80 F0  ............E...
0F00: FF FF 7F F0 FF FF 7F 77  68 69 31 01 80 45 33 80  .......whi1..E3.
0F10: F0 FF FF 7F F0 FF FF 7F  62 6C 6F 66 01 80 5C 00  ........blof..\.
0F20: 01 80 5C 01 01 80 5C 02  56 80 5C 03 56 80 21 00  ..\...\.V.\.V.!.
```

#### Opcodes

```
  0: 0x0E7A [0x06] ExtData[1]->WorkLocal[30] = 0
  1: 0x0E7D [0x06] ExtData[1]->WorkLocal[31] = 0
  2: 0x0E80 [0x03] ExtData[1]->WorkLocal[34] = Work_Zone[6]
  3: 0x0E85 [0x03] ExtData[1]->WorkLocal[33] = Work_Zone[7]
  4: 0x0E8A [0x03] ExtData[1]->WorkLocal[32] = Work_Zone[8]
  5: 0x0E8F [0x06] Work_Zone[1] = 0
  6: 0x0E92 [0x1A] CALL_SUBROUTINE(address=0x10A2)
  7: 0x0E95 [0x02] IF !(ExtData[1]->WorkLocal[30] == 1*) GOTO 0x0F2E
  8: 0x0E9D [0x42] SET_CLI_EVENT_CANCEL_DATA()
  9: 0x0E9E [0x03] Work_Zone[1] = 2*
 10: 0x0EA3 [0x43] SEND_EVENT_UPDATE: Send pending tag to server (packet 0x005B)
 11: 0x0EA5 [0x43] SEND_EVENT_UPDATE: Check pending flag (skip if not pending)
 12: 0x0EA7 [0x03] Work_Zone[1] = 3*
 13: 0x0EAC [0x43] SEND_EVENT_UPDATE: Send pending tag to server (packet 0x005B)
 14: 0x0EAE [0x43] SEND_EVENT_UPDATE: Check pending flag (skip if not pending)
 15: 0x0EB0 [0x1A] CALL_SUBROUTINE(address=0x10B9)
 16: 0x0EB3 [0x02] IF !(ExtData[1]->WorkLocal[31] == 1*) GOTO 0x0F2E
 17: 0x0EBB [0x45] LOAD_SCHEDULED_TASK: Load scheduler "fdo1" with entities [LocalPlayer, LocalPlayer], work=[200*, 0*]
 18: 0x0ECC [0x55] WAIT_LOAD_SCHEDULER: Wait for scheduler "fdo1" with entities [LocalPlayer, LocalPlayer], work=200*
 19: 0x0EDB [0x03] Work_Zone[1] = 4*
 20: 0x0EE0 [0x47] UPDATE_PLAYER_POS(539.989*, -576.522*, -500.000*, yaw=270.0°*)
 21: 0x0EEA [0x47] WAIT_PLAYER_POS_UPDATE
 22: 0x0EEC [0x38] SET_CLIENT_EVENT_MODE(mode=19*)
 23: 0x0EEF [0x79] LocalPlayer looks at LocalPlayer (Basic look)
 24: 0x0EF9 [0x1A] CALL_SUBROUTINE(address=0x10BD)
 25: 0x0EFC [0x45] LOAD_SCHEDULED_TASK: Load scheduler "whi1" with entities [LocalPlayer, LocalPlayer], work=[201*, 0*]
 26: 0x0F0D [0x45] LOAD_SCHEDULED_TASK: Load scheduler "blof" with entities [LocalPlayer, LocalPlayer], work=[200*, 0*]
 27: 0x0F1E [0x5C] MUSIC_CONTROL: Set Idle (Day) music to song 0*
 28: 0x0F22 [0x5C] MUSIC_CONTROL: Set Idle (Night) music to song 0*
 29: 0x0F26 [0x5C] MUSIC_CONTROL: Set Combat (Solo) music to song 82*
 30: 0x0F2A [0x5C] MUSIC_CONTROL: Set Combat (Party) music to song 82*
 31: 0x0F2E [0x21] END_EVENT
 32: 0x0F2F [0x00] END_REQSTACK()
```

### Event 32004

#### Metadata

| Field        | Value      |
|--------------|------------|
| Entrypoint   | 0x0F30     |
| Data Size    | 1193 bytes |
| Instructions | 14         |

```
      00 01 02 03 04 05 06 07  08 09 0A 0B 0C 0D 0E 0F
      -- -- -- -- -- -- -- --  -- -- -- -- -- -- -- --
0F30: 03 23 00 02 10 03 24 00  03 10 03 20 00 04 10 03  .#....$.... ....
0F40: 25 00 05 10 42 38 4D 80  02 25 00 01 80 00 53 0F  %...B8M..%....S.
0F50: 1C 61 80 02 20 00 01 80  80 5E 0F 01 5E 0F 45 33  .a.. ....^..^.E3
0F60: 80 F0 FF FF 7F F0 FF FF  7F 66 64 69 32 01 80 46  .........fdi2..F
0F70: 00 21 00 02 25 00 01 80  00 9C 0F 02 23 00 00 80  .!..%.......#...
0F80: 80 86 0F 01 9C 0F 02 23  00 03 80 80 91 0F 01 9C  .......#........
0F90: 0F 02 23 00 14 80 80 9C  0F 01 9C 0F 1B 24 31 80  ..#..........$1.
0FA0: 00 80 01 80 25 02 00 10  01 80 00 B3 0F 05 03 00  ....%...........
0FB0: 01 B3 0F 1B 79 00 F0 FF  FF 7F F0 FF FF 7F 42 46  ....y.........BF
0FC0: 01 02 05 00 00 80 80 CC  0F 01 CC 0F 78 02 02 00  ............x...
0FD0: 00 80 80 E4 0F 37 36 80  37 80 01 80 38 80 1A 85  .....76.7...8...
0FE0: 12 01 40 10 02 02 00 03  80 80 FB 0F 37 39 80 37  ..@.........79.7
0FF0: 80 1B 80 38 80 1A 85 12  01 40 10 02 02 00 14 80  ...8.....@......
1000: 80 12 10 37 36 80 3A 80  3B 80 38 80 1A 85 12 01  ...76.:.;.8.....
1010: 40 10 02 02 00 30 80 80  29 10 37 01 80 01 80 01  @....0..).7.....
1020: 80 01 80 1A 85 12 01 40  10 02 02 00 02 80 80 40  .......@.......@
1030: 10 37 01 80 01 80 01 80  01 80 1A 85 12 01 40 10  .7............@.
1040: 46 00 1B 02 1A 00 01 80  80 51 10 1A 65 10 01 62  F........Q..e..b
1050: 10 02 1A 00 00 80 80 5F  10 1A 65 10 01 62 10 1A  ......._..e..b..
1060: 65 10 46 00 1B 45 33 80  F0 FF FF 7F F0 FF FF 7F  e.F..E3.........
1070: 66 64 69 32 01 80 02 18  00 2D 80 01 8F 10 62 03  fdi2.....-....b.
1080: 80 F0 FF FF 7F F0 FF FF  7F 6D 61 69 6E 01 80 1C  .........main...
1090: 20 80 55 33 80 F0 FF FF  7F F0 FF FF 7F 66 64 69   .U3.........fdi
10A0: 32 1B 24 62 80 00 80 01  80 25 02 00 10 01 80 00  2.$b.....%......
10B0: B8 10 05 1E 00 01 B8 10  1B 05 1F 00 1B 42 45 0E  .............BE.
10C0: 80 F0 FF FF 7F F0 FF FF  7F 77 68 69 31 01 80 45  .........whi1..E
10D0: 33 80 F0 FF FF 7F F0 FF  FF 7F 62 6C 6F 66 01 80  3.........blof..
10E0: 45 33 80 F0 FF FF 7F F0  FF FF 7F 66 64 69 30 01  E3.........fdi0.
10F0: 80 1B 02 1A 00 01 80 80  02 11 03 18 00 03 80 01  ................
1100: 02 11 1B 46 01 1A 36 11  1A 85 12 46 00 1B 02 05  ...F..6....F....
1110: 00 01 80 80 19 11 01 19  11 1B 02 06 00 01 80 80  ................
1120: 35 11 5C 00 63 80 5C 01  63 80 5C 02 63 80 5C 03  5.\.c.\.c.\.c.\.
1130: 63 80 01 35 11 1B 45 64  80 F0 FF FF 7F F0 FF FF  c..5..Ed........
1140: 7F 62 61 63 6B 01 80 1B  45 33 80 F0 FF FF 7F F0  .back...E3......
1150: FF FF 7F 66 64 69 30 01  80 55 33 80 F0 FF FF 7F  ...fdi0..U3.....
1160: F0 FF FF 7F 66 64 69 30  1B 45 33 80 F0 FF FF 7F  ....fdi0.E3.....
1170: F0 FF FF 7F 66 64 6F 30  01 80 55 33 80 F0 FF FF  ....fdo0..U3....
1180: 7F F0 FF FF 7F 66 64 6F  30 1B 45 33 80 F0 FF FF  .....fdo0.E3....
1190: 7F F0 FF FF 7F 66 64 69  31 01 80 55 33 80 F0 FF  .....fdi1..U3...
11A0: FF 7F F0 FF FF 7F 66 64  69 31 1B 45 33 80 F0 FF  ......fdi1.E3...
11B0: FF 7F F0 FF FF 7F 66 64  6F 31 01 80 55 33 80 F0  ......fdo1..U3..
11C0: FF FF 7F F0 FF FF 7F 66  64 6F 31 1B 45 0E 80 F0  .......fdo1.E...
11D0: FF FF 7F F0 FF FF 7F 77  68 69 31 01 80 55 0E 80  .......whi1..U..
11E0: F0 FF FF 7F F0 FF FF 7F  77 68 69 31 1B 45 0E 80  ........whi1.E..
11F0: F0 FF FF 7F F0 FF FF 7F  77 68 6F 31 01 80 55 0E  ........who1..U.
1200: 80 F0 FF FF 7F F0 FF FF  7F 77 68 6F 31 1B 45 0E  .........who1.E.
1210: 80 F0 FF FF 7F F0 FF FF  7F 77 68 6F 32 01 80 55  .........who2..U
1220: 0E 80 F0 FF FF 7F F0 FF  FF 7F 77 68 6F 32 1B 45  ..........who2.E
1230: 0E 80 F0 FF FF 7F F0 FF  FF 7F 77 68 6F 33 01 80  ..........who3..
1240: 55 0E 80 F0 FF FF 7F F0  FF FF 7F 77 68 6F 33 1B  U..........who3.
1250: 62 00 80 F0 FF FF 7F F0  FF FF 7F 6D 61 69 6E 01  b..........main.
1260: 80 1C 65 80 45 33 80 F0  FF FF 7F F0 FF FF 7F 66  ..e.E3.........f
1270: 64 6F 31 01 80 55 33 80  F0 FF FF 7F F0 FF FF 7F  do1..U3.........
1280: 66 64 6F 31 1B 45 33 80  F0 FF FF 7F F0 FF FF 7F  fdo1.E3.........
1290: 66 64 69 31 01 80 62 03  80 F0 FF FF 7F F0 FF FF  fdi1..b.........
12A0: 7F 6D 61 69 6E 01 80 1C  20 80 55 33 80 F0 FF FF  .main... .U3....
12B0: 7F F0 FF FF 7F 66 64 69  31 1B 45 33 80 F0 FF FF  .....fdi1.E3....
12C0: 7F F0 FF FF 7F 62 6C 6F  6E 01 80 45 0E 80 F0 FF  .....blon..E....
12D0: FF 7F F0 FF FF 7F 62 6C  6F 6E 01 80 1B 45 0E 80  ......blon...E..
12E0: F0 FF FF 7F F0 FF FF 7F  77 68 69 30 01 80 55 0E  ........whi0..U.
12F0: 80 F0 FF FF 7F F0 FF FF  7F 77 68 69 30 1B 45 0E  .........whi0.E.
1300: 80 F0 FF FF 7F F0 FF FF  7F 77 68 6F 30 01 80 55  .........who0..U
1310: 0E 80 F0 FF FF 7F F0 FF  FF 7F 77 68 6F 30 1B 45  ..........who0.E
1320: 66 80 F0 FF FF 7F F0 FF  FF 7F 65 66 6F 6E 01 80  f.........efon..
1330: 55 66 80 F0 FF FF 7F F0  FF FF 7F 65 66 6F 6E 1B  Uf.........efon.
1340: 45 33 80 F0 FF FF 7F F0  FF FF 7F 66 64 69 73 01  E3.........fdis.
1350: 80 1B 45 33 80 F0 FF FF  7F F0 FF FF 7F 66 64 6F  ..E3.........fdo
1360: 73 01 80 55 33 80 F0 FF  FF 7F F0 FF FF 7F 66 64  s..U3.........fd
1370: 6F 73 1B 45 33 80 F0 FF  FF 7F F0 FF FF 7F 66 64  os.E3.........fd
1380: 69 66 01 80 1B 45 33 80  F0 FF FF 7F F0 FF FF 7F  if...E3.........
1390: 66 64 6F 66 01 80 55 33  80 F0 FF FF 7F F0 FF FF  fdof..U3........
13A0: 7F 66 64 6F 66 1B 45 33  80 F0 FF FF 7F F0 FF FF  .fdof.E3........
13B0: 7F 66 64 69 70 01 80 1B  45 33 80 F0 FF FF 7F F0  .fdip...E3......
13C0: FF FF 7F 66 64 6F 70 01  80 55 33 80 F0 FF FF 7F  ...fdop..U3.....
13D0: F0 FF FF 7F 66 64 6F 70  1B                       ....fdop.       
```

#### Opcodes

```
  0: 0x0F30 [0x03] ExtData[1]->WorkLocal[35] = Work_Zone[2]
  1: 0x0F35 [0x03] ExtData[1]->WorkLocal[36] = Work_Zone[3]
  2: 0x0F3A [0x03] ExtData[1]->WorkLocal[32] = Work_Zone[4]
  3: 0x0F3F [0x03] ExtData[1]->WorkLocal[37] = Work_Zone[5]
  4: 0x0F44 [0x42] SET_CLI_EVENT_CANCEL_DATA()
  5: 0x0F45 [0x38] SET_CLIENT_EVENT_MODE(mode=27*)
  6: 0x0F48 [0x02] IF !(ExtData[1]->WorkLocal[37] == 0*) GOTO 0x0F53
  7: 0x0F50 [0x1C] WAIT(120* ticks)
  8: 0x0F53 [0x02] IF !(ExtData[1]->WorkLocal[32] == 0*) GOTO 0x0F5E
  9: 0x0F5B [0x01] GOTO 0x0F5E

SUBROUTINE_0F5E:
 10: 0x0F5E [0x45] LOAD_SCHEDULED_TASK: Load scheduler "fdi2" with entities [LocalPlayer, LocalPlayer], work=[200*, 0*]
 11: 0x0F6F [0x46] CAMERA_CONTROL: Restore default settings
 12: 0x0F71 [0x21] END_EVENT
 13: 0x0F72 [0x00] END_REQSTACK()
```

#### Data or dead code:

```
# Dead code (unreachable instructions):
     0x0F73 [0x02] IF !(ExtData[1]->WorkLocal[37] == 0*) GOTO 0x0F9C
     0x0F7B [0x02] IF !(ExtData[1]->WorkLocal[35] == 1*) GOTO 0x0F86
     0x0F83 [0x01] GOTO 0x0F9C
     0x0F86 [0x02] IF !(ExtData[1]->WorkLocal[35] == 2*) GOTO 0x0F91
     0x0F8E [0x01] GOTO 0x0F9C
     0x0F91 [0x02] IF !(ExtData[1]->WorkLocal[35] == 3*) GOTO 0x0F9C
     0x0F99 [0x01] GOTO 0x0F9C
     0x0F9C [0x1B] RETURN
     0x0F9D [0x24] CREATE_DIALOG(message_id=7327*, default_option=1*, option_flags=0*)
    → "Enter the battlefield? [Enter./Decline.]"
     0x0FA4 [0x25] WAIT_DIALOG_SELECT()
     0x0FA5 [0x02] IF !(Work_Zone[0] == 0*) GOTO 0x0FB3
     0x0FAD [0x05] ExtData[1]->WorkLocal[3] = 1
     0x0FB0 [0x01] GOTO 0x0FB3
     0x0FB3 [0x1B] RETURN
     0x0FB4 [0x79] LocalPlayer looks at LocalPlayer (Basic look)
     0x0FBE [0x42] SET_CLI_EVENT_CANCEL_DATA()
     0x0FBF [0x46] CAMERA_CONTROL: Disable user control
     0x0FC1 [0x02] IF !(ExtData[1]->WorkLocal[5] == 1*) GOTO 0x0FCC
     0x0FC9 [0x01] GOTO 0x0FCC
     0x0FCC [0x78] ENABLE_GAME_TIMER_RESET_WEATHER()
     0x0FCD [0x02] IF !(ExtData[1]->WorkLocal[2] == 1*) GOTO 0x0FE4
     0x0FD5 [0x37] UPDATE_EVENT_POSITION_AND_DIR: x=-480.000*, z=488.000*, y=0.000*, direction=270.0°*
     0x0FDE [0x1A] CALL_SUBROUTINE(address=0x1285)
     0x0FE1 [0x01] GOTO 0x1040
     0x0FE4 [0x02] IF !(ExtData[1]->WorkLocal[2] == 2*) GOTO 0x0FFB
     0x0FEC [0x37] UPDATE_EVENT_POSITION_AND_DIR: x=520.000*, z=488.000*, y=-500.000*, direction=270.0°*
     0x0FF5 [0x1A] CALL_SUBROUTINE(address=0x1285)
     0x0FF8 [0x01] GOTO 0x1040
     0x0FFB [0x02] IF !(ExtData[1]->WorkLocal[2] == 3*) GOTO 0x1012
     0x1003 [0x37] UPDATE_EVENT_POSITION_AND_DIR: x=-480.000*, z=-512.000*, y=-1000.000*, direction=270.0°*
     0x100C [0x1A] CALL_SUBROUTINE(address=0x1285)
     0x100F [0x01] GOTO 0x1040
     0x1012 [0x02] IF !(ExtData[1]->WorkLocal[2] == 4*) GOTO 0x1029
     0x101A [0x37] UPDATE_EVENT_POSITION_AND_DIR: x=0.000*, z=0.000*, y=0.000*, direction=0.0°*
     0x1023 [0x1A] CALL_SUBROUTINE(address=0x1285)
     0x1026 [0x01] GOTO 0x1040
     0x1029 [0x02] IF !(ExtData[1]->WorkLocal[2] == 5*) GOTO 0x1040
     0x1031 [0x37] UPDATE_EVENT_POSITION_AND_DIR: x=0.000*, z=0.000*, y=0.000*, direction=0.0°*
     0x103A [0x1A] CALL_SUBROUTINE(address=0x1285)
     0x103D [0x01] GOTO 0x1040
     0x1040 [0x46] CAMERA_CONTROL: Restore default settings
     0x1042 [0x1B] RETURN
     0x1043 [0x02] IF !(ExtData[1]->WorkLocal[26] == 0*) GOTO 0x1051
     0x104B [0x1A] CALL_SUBROUTINE(address=0x1065)
     0x104E [0x01] GOTO 0x1062
     0x1051 [0x02] IF !(ExtData[1]->WorkLocal[26] == 1*) GOTO 0x105F
     0x1059 [0x1A] CALL_SUBROUTINE(address=0x1065)
     0x105C [0x01] GOTO 0x1062
     0x105F [0x1A] CALL_SUBROUTINE(address=0x1065)
     0x1062 [0x46] CAMERA_CONTROL: Restore default settings
     0x1064 [0x1B] RETURN
     0x1065 [0x45] LOAD_SCHEDULED_TASK: Load scheduler "fdi2" with entities [LocalPlayer, LocalPlayer], work=[200*, 0*]
     0x1076 [0x02] IF !(ExtData[1]->WorkLocal[24] == 4294967295*) GOTO 0x108F
     0x107E [0x62] LOAD_EVENT_SCHEDULER: Load scheduler "main" with entities [LocalPlayer, LocalPlayer], work=[2*, 0*]
     0x108F [0x1C] WAIT(30* ticks)
     0x1092 [0x55] WAIT_LOAD_SCHEDULER: Wait for scheduler "fdi2" with entities [LocalPlayer, LocalPlayer], work=200*
     0x10A1 [0x1B] RETURN
     0x10A2 [0x24] CREATE_DIALOG(message_id=7328*, default_option=1*, option_flags=0*)
    → "Leave the battlefield? [Run away./Stay.]"
     0x10A9 [0x25] WAIT_DIALOG_SELECT()
     0x10AA [0x02] IF !(Work_Zone[0] == 0*) GOTO 0x10B8
     0x10B2 [0x05] ExtData[1]->WorkLocal[30] = 1
     0x10B5 [0x01] GOTO 0x10B8
     0x10B8 [0x1B] RETURN
     0x10B9 [0x05] ExtData[1]->WorkLocal[31] = 1
     0x10BC [0x1B] RETURN
     0x10BD [0x42] SET_CLI_EVENT_CANCEL_DATA()
     0x10BE [0x45] LOAD_SCHEDULED_TASK: Load scheduler "whi1" with entities [LocalPlayer, LocalPlayer], work=[201*, 0*]
     0x10CF [0x45] LOAD_SCHEDULED_TASK: Load scheduler "blof" with entities [LocalPlayer, LocalPlayer], work=[200*, 0*]
     0x10E0 [0x45] LOAD_SCHEDULED_TASK: Load scheduler "fdi0" with entities [LocalPlayer, LocalPlayer], work=[200*, 0*]
     0x10F1 [0x1B] RETURN
     0x10F2 [0x02] IF !(ExtData[1]->WorkLocal[26] == 0*) GOTO 0x1102
     0x10FA [0x03] ExtData[1]->WorkLocal[24] = 2*
     0x10FF [0x01] GOTO 0x1102
     0x1102 [0x1B] RETURN
     0x1103 [0x46] CAMERA_CONTROL: Disable user control
     0x1105 [0x1A] CALL_SUBROUTINE(address=0x1136)
     0x1108 [0x1A] CALL_SUBROUTINE(address=0x1285)
     0x110B [0x46] CAMERA_CONTROL: Restore default settings
     0x110D [0x1B] RETURN
     0x110E [0x02] IF !(ExtData[1]->WorkLocal[5] == 0*) GOTO 0x1119
     0x1116 [0x01] GOTO 0x1119
     0x1119 [0x1B] RETURN
     0x111A [0x02] IF !(ExtData[1]->WorkLocal[6] == 0*) GOTO 0x1135
     0x1122 [0x5C] MUSIC_CONTROL: Set Idle (Day) music to song 137*
     0x1126 [0x5C] MUSIC_CONTROL: Set Idle (Night) music to song 137*
     0x112A [0x5C] MUSIC_CONTROL: Set Combat (Solo) music to song 137*
     0x112E [0x5C] MUSIC_CONTROL: Set Combat (Party) music to song 137*
     0x1132 [0x01] GOTO 0x1135
     0x1135 [0x1B] RETURN
     0x1136 [0x45] LOAD_SCHEDULED_TASK: Load scheduler "back" with entities [LocalPlayer, LocalPlayer], work=[108*, 0*]
     0x1147 [0x1B] RETURN
     0x1148 [0x45] LOAD_SCHEDULED_TASK: Load scheduler "fdi0" with entities [LocalPlayer, LocalPlayer], work=[200*, 0*]
     0x1159 [0x55] WAIT_LOAD_SCHEDULER: Wait for scheduler "fdi0" with entities [LocalPlayer, LocalPlayer], work=200*
     0x1168 [0x1B] RETURN
     0x1169 [0x45] LOAD_SCHEDULED_TASK: Load scheduler "fdo0" with entities [LocalPlayer, LocalPlayer], work=[200*, 0*]
     0x117A [0x55] WAIT_LOAD_SCHEDULER: Wait for scheduler "fdo0" with entities [LocalPlayer, LocalPlayer], work=200*
     0x1189 [0x1B] RETURN
     0x118A [0x45] LOAD_SCHEDULED_TASK: Load scheduler "fdi1" with entities [LocalPlayer, LocalPlayer], work=[200*, 0*]
     0x119B [0x55] WAIT_LOAD_SCHEDULER: Wait for scheduler "fdi1" with entities [LocalPlayer, LocalPlayer], work=200*
     0x11AA [0x1B] RETURN
     0x11AB [0x45] LOAD_SCHEDULED_TASK: Load scheduler "fdo1" with entities [LocalPlayer, LocalPlayer], work=[200*, 0*]
     0x11BC [0x55] WAIT_LOAD_SCHEDULER: Wait for scheduler "fdo1" with entities [LocalPlayer, LocalPlayer], work=200*
     0x11CB [0x1B] RETURN
     0x11CC [0x45] LOAD_SCHEDULED_TASK: Load scheduler "whi1" with entities [LocalPlayer, LocalPlayer], work=[201*, 0*]
     0x11DD [0x55] WAIT_LOAD_SCHEDULER: Wait for scheduler "whi1" with entities [LocalPlayer, LocalPlayer], work=201*
     0x11EC [0x1B] RETURN
     0x11ED [0x45] LOAD_SCHEDULED_TASK: Load scheduler "who1" with entities [LocalPlayer, LocalPlayer], work=[201*, 0*]
     0x11FE [0x55] WAIT_LOAD_SCHEDULER: Wait for scheduler "who1" with entities [LocalPlayer, LocalPlayer], work=201*
     0x120D [0x1B] RETURN
     0x120E [0x45] LOAD_SCHEDULED_TASK: Load scheduler "who2" with entities [LocalPlayer, LocalPlayer], work=[201*, 0*]
     0x121F [0x55] WAIT_LOAD_SCHEDULER: Wait for scheduler "who2" with entities [LocalPlayer, LocalPlayer], work=201*
     0x122E [0x1B] RETURN
     0x122F [0x45] LOAD_SCHEDULED_TASK: Load scheduler "who3" with entities [LocalPlayer, LocalPlayer], work=[201*, 0*]
     0x1240 [0x55] WAIT_LOAD_SCHEDULER: Wait for scheduler "who3" with entities [LocalPlayer, LocalPlayer], work=201*
     0x124F [0x1B] RETURN
     0x1250 [0x62] LOAD_EVENT_SCHEDULER: Load scheduler "main" with entities [LocalPlayer, LocalPlayer], work=[1*, 0*]
     0x1261 [0x1C] WAIT(45* ticks)
     0x1264 [0x45] LOAD_SCHEDULED_TASK: Load scheduler "fdo1" with entities [LocalPlayer, LocalPlayer], work=[200*, 0*]
     0x1275 [0x55] WAIT_LOAD_SCHEDULER: Wait for scheduler "fdo1" with entities [LocalPlayer, LocalPlayer], work=200*
     0x1284 [0x1B] RETURN
     0x1285 [0x45] LOAD_SCHEDULED_TASK: Load scheduler "fdi1" with entities [LocalPlayer, LocalPlayer], work=[200*, 0*]
     0x1296 [0x62] LOAD_EVENT_SCHEDULER: Load scheduler "main" with entities [LocalPlayer, LocalPlayer], work=[2*, 0*]
     0x12A7 [0x1C] WAIT(30* ticks)
     0x12AA [0x55] WAIT_LOAD_SCHEDULER: Wait for scheduler "fdi1" with entities [LocalPlayer, LocalPlayer], work=200*
     0x12B9 [0x1B] RETURN
     0x12BA [0x45] LOAD_SCHEDULED_TASK: Load scheduler "blon" with entities [LocalPlayer, LocalPlayer], work=[200*, 0*]
     0x12CB [0x45] LOAD_SCHEDULED_TASK: Load scheduler "blon" with entities [LocalPlayer, LocalPlayer], work=[201*, 0*]
     0x12DC [0x1B] RETURN
     0x12DD [0x45] LOAD_SCHEDULED_TASK: Load scheduler "whi0" with entities [LocalPlayer, LocalPlayer], work=[201*, 0*]
     0x12EE [0x55] WAIT_LOAD_SCHEDULER: Wait for scheduler "whi0" with entities [LocalPlayer, LocalPlayer], work=201*
     0x12FD [0x1B] RETURN
     0x12FE [0x45] LOAD_SCHEDULED_TASK: Load scheduler "who0" with entities [LocalPlayer, LocalPlayer], work=[201*, 0*]
     0x130F [0x55] WAIT_LOAD_SCHEDULER: Wait for scheduler "who0" with entities [LocalPlayer, LocalPlayer], work=201*
     0x131E [0x1B] RETURN
     0x131F [0x45] LOAD_SCHEDULED_TASK: Load scheduler "efon" with entities [LocalPlayer, LocalPlayer], work=[215*, 0*]
     0x1330 [0x55] WAIT_LOAD_SCHEDULER: Wait for scheduler "efon" with entities [LocalPlayer, LocalPlayer], work=215*
     0x133F [0x1B] RETURN
     0x1340 [0x45] LOAD_SCHEDULED_TASK: Load scheduler "fdis" with entities [LocalPlayer, LocalPlayer], work=[200*, 0*]
     0x1351 [0x1B] RETURN
     0x1352 [0x45] LOAD_SCHEDULED_TASK: Load scheduler "fdos" with entities [LocalPlayer, LocalPlayer], work=[200*, 0*]
     0x1363 [0x55] WAIT_LOAD_SCHEDULER: Wait for scheduler "fdos" with entities [LocalPlayer, LocalPlayer], work=200*
     0x1372 [0x1B] RETURN
     0x1373 [0x45] LOAD_SCHEDULED_TASK: Load scheduler "fdif" with entities [LocalPlayer, LocalPlayer], work=[200*, 0*]
     0x1384 [0x1B] RETURN
     0x1385 [0x45] LOAD_SCHEDULED_TASK: Load scheduler "fdof" with entities [LocalPlayer, LocalPlayer], work=[200*, 0*]
     0x1396 [0x55] WAIT_LOAD_SCHEDULER: Wait for scheduler "fdof" with entities [LocalPlayer, LocalPlayer], work=200*
     0x13A5 [0x1B] RETURN
     0x13A6 [0x45] LOAD_SCHEDULED_TASK: Load scheduler "fdip" with entities [LocalPlayer, LocalPlayer], work=[200*, 0*]
     0x13B7 [0x1B] RETURN
     0x13B8 [0x45] LOAD_SCHEDULED_TASK: Load scheduler "fdop" with entities [LocalPlayer, LocalPlayer], work=[200*, 0*]
     0x13C9 [0x55] WAIT_LOAD_SCHEDULER: Wait for scheduler "fdop" with entities [LocalPlayer, LocalPlayer], work=200*
     0x13D8 [0x1B] RETURN
```
