# 17498670

## Common Data

| Field            | Value                        |
|------------------|------------------------------|
| Zone             | Sea Serpent Grotto (ID: 176) |
| Block Size       | 4592 bytes                   |
| Total Events     | 2                            |
| References Count | 132                          |

## List of Events

| Event ID              | Entrypoint   |   Size |   Instructions |
|-----------------------|--------------|--------|----------------|
| [65535](#event-65535) | 0x0000       |      1 |              1 |
| [34](#event-34)       | 0x0001       |   4036 |            413 |

## DAT References (imed_data)

|   Index | Hex Value   |   Dec Value |
|---------|-------------|-------------|
|       0 | 0x00C8      |         200 |
|       1 | 0x0000      |           0 |
|       2 | 0x001B      |          27 |
|       3 | 0x1E32A     |      123690 |
|       4 | 0xFFFFBA5B  |  4294949467 |
|       5 | 0x2AE5      |       10981 |
|       6 | 0x0800      |        2048 |
|       7 | 0x1F714     |      128788 |
|       8 | 0xFFFFB930  |  4294949168 |
|       9 | 0x29B0      |       10672 |
|      10 | 0x1CECA     |      118474 |
|      11 | 0xFFFFFD00  |  4294966528 |
|      12 | 0x270F      |        9999 |
|      13 | 0x0665      |        1637 |
|      14 | 0x1B09A     |      110746 |
|      15 | 0xFFFFE4C3  |  4294960323 |
|      16 | 0x2386      |        9094 |
|      17 | 0x060B      |        1547 |
|      18 | 0x1A736     |      108342 |
|      19 | 0xFFFFDBB8  |  4294958008 |
|      20 | 0x1FAF      |        8111 |
|      21 | 0x0E31      |        3633 |
|      22 | 0x1CD3B     |      118075 |
|      23 | 0x0641      |        1601 |
|      24 | 0x2652      |        9810 |
|      25 | 0x1BC7      |        7111 |
|      26 | 0x001E      |          30 |
|      27 | 0x0F27      |        3879 |
|      28 | 0x008E      |         142 |
|      29 | 0x009D      |         157 |
|      30 | 0x0CB4      |        3252 |
|      31 | 0x02FA      |         762 |
|      32 | 0x000F      |          15 |
|      33 | 0x00D2      |         210 |
|      34 | 0x003C      |          60 |
|      35 | 0x0096      |         150 |
|      36 | 0x1B88E     |      112782 |
|      37 | 0xFFFFE6CF  |  4294960847 |
|      38 | 0x23C6      |        9158 |
|      39 | 0x02BC      |         700 |
|      40 | 0x0208      |         520 |
|      41 | 0x0F1B      |        3867 |
|      42 | 0x1D544     |      120132 |
|      43 | 0xFFFFDDEC  |  4294958572 |
|      44 | 0x27AD      |       10157 |
|      45 | 0x060C      |        1548 |
|      46 | 0x2A23      |       10787 |
|      47 | 0x0078      |         120 |
|      48 | 0x007F      |         127 |
|      49 | 0x0065      |         101 |
|      50 | 0x0064      |         100 |
|      51 | 0x2A24      |       10788 |
|      52 | 0x2A25      |       10789 |
|      53 | 0x2A26      |       10790 |
|      54 | 0x2A27      |       10791 |
|      55 | 0x2A28      |       10792 |
|      56 | 0x2A29      |       10793 |
|      57 | 0x0F12      |        3858 |
|      58 | 0x2A2A      |       10794 |
|      59 | 0x1B291     |      111249 |
|      60 | 0xFFFFE2EF  |  4294959855 |
|      61 | 0x23F3      |        9203 |
|      62 | 0x2A2B      |       10795 |
|      63 | 0x2A2C      |       10796 |
|      64 | 0x00B4      |         180 |
|      65 | 0x2A2D      |       10797 |
|      66 | 0x1D6E2     |      120546 |
|      67 | 0xFFFFB174  |  4294947188 |
|      68 | 0x2AF6      |       10998 |
|      69 | 0x03E8      |        1000 |
|      70 | 0x1CAB3     |      117427 |
|      71 | 0xFFFFB93B  |  4294949179 |
|      72 | 0x2AF7      |       10999 |
|      73 | 0x0050      |          80 |
|      74 | 0x1B9C5     |      113093 |
|      75 | 0xFFFFB614  |  4294948372 |
|      76 | 0x2397      |        9111 |
|      77 | 0x0D6E      |        3438 |
|      78 | 0x0F30      |        3888 |
|      79 | 0x0F18      |        3864 |
|      80 | 0x0032      |          50 |
|      81 | 0x2A2E      |       10798 |
|      82 | 0x0AC6      |        2758 |
|      83 | 0x00F7      |         247 |
|      84 | 0x0D66      |        3430 |
|      85 | 0x006C      |         108 |
|      86 | 0x0028      |          40 |
|      87 | 0x2A2F      |       10799 |
|      88 | 0x005A      |          90 |
|      89 | 0x1B9F3     |      113139 |
|      90 | 0xFFFFBA45  |  4294949445 |
|      91 | 0x23D6      |        9174 |
|      92 | 0x0F31      |        3889 |
|      93 | 0x1D63D     |      120381 |
|      94 | 0x25CB      |        9675 |
|      95 | 0x2854      |       10324 |
|      96 | 0x04A8      |        1192 |
|      97 | 0x0F19      |        3865 |
|      98 | 0x0071      |         113 |
|      99 | 0x0079      |         121 |
|     100 | 0x1000      |        4096 |
|     101 | 0x0F32      |        3890 |
|     102 | 0x2A30      |       10800 |
|     103 | 0x007A      |         122 |
|     104 | 0x0001      |           1 |
|     105 | 0x008C      |         140 |
|     106 | 0x0002      |           2 |
|     107 | 0x0003      |           3 |
|     108 | 0x00A0      |         160 |
|     109 | 0x0004      |           4 |
|     110 | 0x00AA      |         170 |
|     111 | 0x0005      |           5 |
|     112 | 0x0006      |           6 |
|     113 | 0x0007      |           7 |
|     114 | 0x00BE      |         190 |
|     115 | 0x0008      |           8 |
|     116 | 0x00C9      |         201 |
|     117 | 0x1AF5A     |      110426 |
|     118 | 0xFFFFC1FD  |  4294951421 |
|     119 | 0x1D6C9     |      120521 |
|     120 | 0xFFFFAFBF  |  4294946751 |
|     121 | 0x0068      |         104 |
|     122 | 0x0077      |         119 |
|     123 | 0x0825      |        2085 |
|     124 | 0x012C      |         300 |
|     125 | 0x0072      |         114 |
|     126 | 0x0F28      |        3880 |
|     127 | 0x01A4      |         420 |
|     128 | 0x2A31      |       10801 |
|     129 | 0x1A2A4     |      107172 |
|     130 | 0xFFFFB42A  |  4294947882 |
|     131 | 0x2A32      |       10802 |

## Events

### Event 65535

#### Metadata

| Field        | Value   |
|--------------|---------|
| Entrypoint   | 0x0000  |
| Data Size    | 1 bytes |
| Instructions | 1       |

```
      00 01 02 03 04 05 06 07  08 09 0A 0B 0C 0D 0E 0F
      -- -- -- -- -- -- -- --  -- -- -- -- -- -- -- --
0000: 00                                                .               
```

#### Opcodes

```
  0: 0x0000 [0x00] END_REQSTACK()
```

### Event 34

#### Metadata

| Field        | Value      |
|--------------|------------|
| Entrypoint   | 0x0001     |
| Data Size    | 4036 bytes |
| Instructions | 413        |

```
      00 01 02 03 04 05 06 07  08 09 0A 0B 0C 0D 0E 0F
      -- -- -- -- -- -- -- --  -- -- -- -- -- -- -- --
0000:    42 45 00 80 F8 FF FF  7F F8 FF FF 7F 66 64 6F   BE..........fdo
0010: 31 01 80 55 00 80 F8 FF  FF 7F F8 FF FF 7F 66 64  1..U..........fd
0020: 6F 31 46 01 38 02 80 2F  00 35 02 0B 01 2F 00 33  o1F.8../.5.../.3
0030: 02 0B 01 2F 00 34 02 0B  01 2F 00 31 02 0B 01 2F  .../.4.../.1.../
0040: 00 30 02 0B 01 2F 00 32  02 0B 01 4E 00 35 02 0B  .0.../.2...N.5..
0050: 01 4E 00 33 02 0B 01 4E  00 30 02 0B 01 4E 00 31  .N.3...N.0...N.1
0060: 02 0B 01 4E 00 34 02 0B  01 92 01 33 02 0B 01 92  ...N.4.....3....
0070: 01 32 02 0B 01 92 01 31  02 0B 01 92 01 30 02 0B  .2.....1.....0..
0080: 01 92 01 36 02 0B 01 94  01 35 02 0B 01 94 01 31  ...6.....5.....1
0090: 02 0B 01 94 01 33 02 0B  01 94 01 32 02 0B 01 94  .....3.....2....
00A0: 01 F0 FF FF 7F 94 01 34  02 0B 01 94 01 30 02 0B  .......4.....0..
00B0: 01 59 05 35 02 0B 01 01  59 05 32 02 0B 01 01 59  .Y.5....Y.2....Y
00C0: 05 34 02 0B 01 01 59 05  31 02 0B 01 01 27 05 31  .4....Y.1....'.1
00D0: 02 0B 01 02 BA 35 02 0B  01 03 80 04 80 05 80 06  .....5..........
00E0: 80 BA 32 02 0B 01 07 80  08 80 09 80 06 80 BA 33  ..2............3
00F0: 02 0B 01 0A 80 0B 80 0C  80 0D 80 BA F0 FF FF 7F  ................
0100: 0E 80 0F 80 10 80 11 80  BA 31 02 0B 01 12 80 13  .........1......
0110: 80 14 80 15 80 BA 30 02  0B 01 16 80 17 80 18 80  ......0.........
0120: 17 80 BA 34 02 0B 01 12  80 13 80 19 80 15 80 80  ...4............
0130: F0 FF FF 7F 80 30 02 0B  01 80 33 02 0B 01 80 34  .....0....3....4
0140: 02 0B 01 80 35 02 0B 01  4A F0 FF FF 7F 34 02 0B  ....5...J....4..
0150: 01 1C 1A 80 81 00 31 02  0B 01 7C 00 31 02 0B 01  ......1...|.1...
0160: 5B 1B 80 31 02 0B 01 31  02 0B 01 70 6F 70 6C 5F  [..1...1...popl_
0170: 04 1C 80 32 02 0B 01 32  02 0B 01 64 61 69 30 CD  ...2...2...dai0.
0180: 1D 80 34 02 0B 01 34 02  0B 01 73 74 61 72 01 80  ..4...4...star..
0190: 5B 1E 80 34 02 0B 01 34  02 0B 01 79 72 65 30 45  [..4...4...yre0E
01A0: 1F 80 F8 FF FF 7F F8 FF  FF 7F 73 31 32 30 01 80  ..........s120..
01B0: 1C 20 80 45 00 80 F8 FF  FF 7F F8 FF FF 7F 66 64  . .E..........fd
01C0: 69 31 01 80 1C 21 80 27  05 33 02 0B 01 02 1C 20  i1...!.'.3..... 
01D0: 80 27 05 30 02 0B 01 02  1C 20 80 52 1F 80 F8 FF  .'.0..... .R....
01E0: FF 7F F8 FF FF 7F 73 31  32 30 45 1F 80 F8 FF FF  ......s120E.....
01F0: 7F F8 FF FF 7F 73 31 32  31 01 80 1C 22 80 5B 1E  .....s121...".[.
0200: 80 34 02 0B 01 34 02 0B  01 6F 74 69 30 1C 22 80  .4...4...oti0.".
0210: CD 1D 80 34 02 0B 01 34  02 0B 01 73 74 6F 70 01  ...4...4...stop.
0220: 80 52 1F 80 F8 FF FF 7F  F8 FF FF 7F 73 31 32 31  .R..........s121
0230: 45 1F 80 F8 FF FF 7F F8  FF FF 7F 73 31 32 32 01  E..........s122.
0240: 80 1C 23 80 BA 33 02 0B  01 24 80 25 80 26 80 27  ..#..3...$.%.&.'
0250: 80 1C 22 80 5B 28 80 33  02 0B 01 33 02 0B 01 6D  ..".[(.3...3...m
0260: 69 67 30 1C 22 80 52 1F  80 F8 FF FF 7F F8 FF FF  ig0.".R.........
0270: 7F 73 31 32 32 45 1F 80  F8 FF FF 7F F8 FF FF 7F  .s122E..........
0280: 73 31 32 33 01 80 5B 29  80 30 02 0B 01 30 02 0B  s123..[).0...0..
0290: 01 6B 61 6F 32 6B 69 64  6C 30 34 02 0B 01 27 05  .kao2kidl04...'.
02A0: 34 02 0B 01 02 BA 34 02  0B 01 2A 80 2B 80 2C 80  4.....4...*.+.,.
02B0: 2D 80 2B 33 02 0B 01 2E  80 1C 2F 80 23 5C 00 30  -.+3....../.#\.0
02C0: 80 5C 01 30 80 9A 52 1F  80 F8 FF FF 7F F8 FF FF  .\.0..R.........
02D0: 7F 73 31 32 33 45 1F 80  F8 FF FF 7F F8 FF FF 7F  .s123E..........
02E0: 73 31 32 34 01 80 D0 31  80 31 02 0B 01 31 02 0B  s124...1.1...1..
02F0: 01 6D 61 69 6E 01 80 1C  32 80 52 1F 80 F8 FF FF  .main...2.R.....
0300: 7F F8 FF FF 7F 73 31 32  34 45 1F 80 F8 FF FF 7F  .....s124E......
0310: F8 FF FF 7F 73 31 32 35  01 80 79 00 F0 FF FF 7F  ....s125..y.....
0320: 31 02 0B 01 1C 00 80 81  01 31 02 0B 01 7C 01 31  1........1...|.1
0330: 02 0B 01 52 1F 80 F8 FF  FF 7F F8 FF FF 7F 73 31  ...R..........s1
0340: 32 35 45 1F 80 F8 FF FF  7F F8 FF FF 7F 73 31 32  25E..........s12
0350: 36 01 80 1C 32 80 52 1F  80 F8 FF FF 7F F8 FF FF  6...2.R.........
0360: 7F 73 31 32 36 45 1F 80  F8 FF FF 7F F8 FF FF 7F  .s126E..........
0370: 73 31 32 37 01 80 1C 23  80 52 1F 80 F8 FF FF 7F  s127...#.R......
0380: F8 FF FF 7F 73 31 32 37  45 1F 80 F8 FF FF 7F F8  ....s127E.......
0390: FF FF 7F 73 31 32 38 01  80 2B 33 02 0B 01 33 80  ...s128..+3...3.
03A0: 23 52 1F 80 F8 FF FF 7F  F8 FF FF 7F 73 31 32 38  #R..........s128
03B0: 45 1F 80 F8 FF FF 7F F8  FF FF 7F 73 31 32 39 01  E..........s129.
03C0: 80 2B 31 02 0B 01 34 80  23 2B 31 02 0B 01 35 80  .+1...4.#+1...5.
03D0: 23 5B 29 80 30 02 0B 01  30 02 0B 01 6B 61 6F 33  #[).0...0...kao3
03E0: 52 1F 80 F8 FF FF 7F F8  FF FF 7F 73 31 32 39 45  R..........s129E
03F0: 1F 80 F8 FF FF 7F F8 FF  FF 7F 73 31 33 30 01 80  ..........s130..
0400: 29 05 31 02 0B 01 04 2B  30 02 0B 01 36 80 23 55  ).1....+0...6.#U
0410: 1F 80 F8 FF FF 7F F8 FF  FF 7F 73 31 33 30 45 1F  ..........s130E.
0420: 80 F8 FF FF 7F F8 FF FF  7F 73 31 33 31 01 80 2B  .........s131..+
0430: 31 02 0B 01 37 80 23 2B  31 02 0B 01 38 80 23 81  1...7.#+1...8.#.
0440: 00 30 02 0B 01 7C 00 30  02 0B 01 5B 39 80 30 02  .0...|.0...[9.0.
0450: 0B 01 30 02 0B 01 66 64  30 31 52 1F 80 F8 FF FF  ..0...fd01R.....
0460: 7F F8 FF FF 7F 73 31 33  31 45 1F 80 F8 FF FF 7F  .....s131E......
0470: F8 FF FF 7F 73 31 33 32  01 80 2B 30 02 0B 01 3A  ....s132..+0...:
0480: 80 BA F0 FF FF 7F 3B 80  3C 80 3D 80 2D 80 80 F0  ......;.<.=.-...
0490: FF FF 7F 55 1F 80 F8 FF  FF 7F F8 FF FF 7F 73 31  ...U..........s1
04A0: 33 32 1C 1A 80 45 1F 80  F8 FF FF 7F F8 FF FF 7F  32...E..........
04B0: 73 31 33 33 01 80 2B 30  02 0B 01 3E 80 23 5B 39  s133..+0...>.#[9
04C0: 80 30 02 0B 01 30 02 0B  01 66 64 30 30 52 1F 80  .0...0...fd00R..
04D0: F8 FF FF 7F F8 FF FF 7F  73 31 33 33 45 1F 80 F8  ........s133E...
04E0: FF FF 7F F8 FF FF 7F 73  31 33 34 01 80 2B 31 02  .......s134..+1.
04F0: 0B 01 3F 80 23 5D 01 80  40 80 52 1F 80 F8 FF FF  ..?.#]..@.R.....
0500: 7F F8 FF FF 7F 73 31 33  34 45 1F 80 F8 FF FF 7F  .....s134E......
0510: F8 FF FF 7F 73 31 33 35  01 80 2B 31 02 0B 01 41  ....s135..+1...A
0520: 80 23 4E 00 32 02 0B 01  D3 00 30 02 0B 01 6B 69  .#N.2.....0...ki
0530: 64 6C 30 30 02 0B 01 59  05 30 02 0B 01 01 59 05  dl00...Y.0....Y.
0540: F0 FF FF 7F 01 59 05 33  02 0B 01 01 BA 33 02 0B  .....Y.3.....3..
0550: 01 42 80 43 80 44 80 45  80 BA 30 02 0B 01 03 80  .B.C.D.E..0.....
0560: 04 80 05 80 06 80 BA F0  FF FF 7F 46 80 47 80 48  ...........F.G.H
0570: 80 11 80 80 32 02 0B 01  80 30 02 0B 01 80 F0 FF  ....2....0......
0580: FF 7F 80 33 02 0B 01 5C  00 49 80 5C 01 49 80 9A  ...3...\.I.\.I..
0590: 52 1F 80 F8 FF FF 7F F8  FF FF 7F 73 31 33 35 45  R..........s135E
05A0: 1F 80 F8 FF FF 7F F8 FF  FF 7F 73 31 33 36 01 80  ..........s136..
05B0: 1C 1A 80 BA 31 02 0B 01  4A 80 4B 80 4C 80 01 80  ....1...J.K.L...
05C0: 1C 22 80 52 1F 80 F8 FF  FF 7F F8 FF FF 7F 73 31  .".R..........s1
05D0: 33 36 45 1F 80 F8 FF FF  7F F8 FF FF 7F 73 31 33  36E..........s13
05E0: 37 01 80 1C 2F 80 52 1F  80 F8 FF FF 7F F8 FF FF  7.../.R.........
05F0: 7F 73 31 33 37 5F 03 4D  80 35 02 0B 01 35 02 0B  .s137_.M.5...5..
0600: 01 66 72 69 30 5F 03 4E  80 32 02 0B 01 32 02 0B  .fri0_.N.2...2..
0610: 01 74 6F 62 30 5F 03 4F  80 30 02 0B 01 30 02 0B  .tob0_.O.0...0..
0620: 01 66 72 69 30 D0 2F 80  32 02 0B 01 32 02 0B 01  .fri0./.2...2...
0630: 6B 65 30 30 01 80 D0 2F  80 32 02 0B 01 30 02 0B  ke00.../.2...0..
0640: 01 69 65 30 30 01 80 1C  50 80 2B 30 02 0B 01 51  .ie00...P.+0...Q
0650: 80 BA 33 02 0B 01 42 80  43 80 44 80 52 80 5B 53  ..3...B.C.D.R.[S
0660: 80 33 02 0B 01 33 02 0B  01 6B 65 6E 30 1C 23 80  .3...3...ken0.#.
0670: 27 05 30 02 0B 01 03 5F  03 54 80 35 02 0B 01 35  '.0...._.T.5...5
0680: 02 0B 01 63 6D 6F 66 5F  02 35 02 0B 01 45 1F 80  ...cmof_.5...E..
0690: F8 FF FF 7F F8 FF FF 7F  73 31 35 34 01 80 D0 55  ........s154...U
06A0: 80 34 02 0B 01 34 02 0B  01 73 74 30 31 01 80 1C  .4...4...st01...
06B0: 56 80 BA F0 FF FF 7F 46  80 47 80 48 80 01 80 1C  V......F.G.H....
06C0: 00 80 52 1F 80 F8 FF FF  7F F8 FF FF 7F 73 31 35  ..R..........s15
06D0: 34 5F 03 4D 80 35 02 0B  01 35 02 0B 01 6B 65 6E  4_.M.5...5...ken
06E0: 30 5B 53 80 33 02 0B 01  33 02 0B 01 6B 65 6E 31  0[S.3...3...ken1
06F0: 2B 33 02 0B 01 57 80 1C  58 80 5F 03 4D 80 35 02  +3...W..X._.M.5.
0700: 0B 01 35 02 0B 01 6B 65  6E 31 1C 2F 80 5F 03 4D  ..5...ken1./._.M
0710: 80 35 02 0B 01 35 02 0B  01 6B 65 6E 32 1C 50 80  .5...5...ken2.P.
0720: 4E 01 31 02 0B 01 BA 32  02 0B 01 59 80 5A 80 5B  N.1....2...Y.Z.[
0730: 80 01 80 5F 03 5C 80 32  02 0B 01 32 02 0B 01 66  ..._.\.2...2...f
0740: 79 75 30 1C 50 80 5F 03  54 80 35 02 0B 01 35 02  yu0.P._.T.5...5.
0750: 0B 01 63 6D 6F 66 5F 02  35 02 0B 01 45 1F 80 F8  ..cmof_.5...E...
0760: FF FF 7F F8 FF FF 7F 73  31 33 38 01 80 5F 03 5C  .......s138.._.\
0770: 80 32 02 0B 01 32 02 0B  01 66 79 75 31 1C 23 80  .2...2...fyu1.#.
0780: 52 1F 80 F8 FF FF 7F F8  FF FF 7F 73 31 33 38 45  R..........s138E
0790: 1F 80 F8 FF FF 7F F8 FF  FF 7F 73 31 33 39 01 80  ..........s139..
07A0: 27 05 30 02 0B 01 04 BA  30 02 0B 01 5D 80 5E 80  '.0.....0...].^.
07B0: 5F 80 60 80 2C 30 02 0B  01 30 02 0B 01 77 34 6F  _.`.,0...0...w4o
07C0: 6E 5B 61 80 30 02 0B 01  30 02 0B 01 79 75 6D 30  n[a.0...0...yum0
07D0: D0 62 80 30 02 0B 01 30  02 0B 01 69 65 30 30 01  .b.0...0...ie00.
07E0: 80 D0 63 80 30 02 0B 01  30 02 0B 01 69 65 30 32  ..c.0...0...ie02
07F0: 01 80 1C 2F 80 52 1F 80  F8 FF FF 7F F8 FF FF 7F  .../.R..........
0800: 73 31 33 39 45 1F 80 F8  FF FF 7F F8 FF FF 7F 73  s139E..........s
0810: 31 34 30 01 80 1C 2F 80  52 1F 80 F8 FF FF 7F F8  140.../.R.......
0820: FF FF 7F 73 31 34 30 45  1F 80 F8 FF FF 7F F8 FF  ...s140E........
0830: FF 7F 73 31 34 31 01 80  1C 22 80 BA 32 02 0B 01  ..s141..."..2...
0840: 59 80 5A 80 5B 80 64 80  BA 35 02 0B 01 5D 80 5E  Y.Z.[.d..5...].^
0850: 80 5F 80 60 80 1C 22 80  52 1F 80 F8 FF FF 7F F8  ._.`..".R.......
0860: FF FF 7F 73 31 34 31 45  1F 80 F8 FF FF 7F F8 FF  ...s141E........
0870: FF 7F 73 31 34 32 01 80  5F 03 65 80 32 02 0B 01  ..s142.._.e.2...
0880: 32 02 0B 01 66 79 75 32  1C 2F 80 27 05 36 02 0B  2...fyu2./.'.6..
0890: 01 02 1C 1A 80 52 1F 80  F8 FF FF 7F F8 FF FF 7F  .....R..........
08A0: 73 31 34 32 AE 05 35 02  0B 01 30 02 0B 01 5F 03  s142..5...0..._.
08B0: 4D 80 35 02 0B 01 35 02  0B 01 6B 61 6B 30 5F 03  M.5...5...kak0_.
08C0: 61 80 30 02 0B 01 30 02  0B 01 6B 61 6B 30 2B 30  a.0...0...kak0+0
08D0: 02 0B 01 66 80 1C 32 80  AE 06 30 02 0B 01 5F 03  ...f..2...0..._.
08E0: 54 80 35 02 0B 01 35 02  0B 01 63 6D 6F 66 5F 02  T.5...5...cmof_.
08F0: 35 02 0B 01 45 1F 80 F8  FF FF 7F F8 FF FF 7F 73  5...E..........s
0900: 31 34 33 01 80 5F 03 61  80 30 02 0B 01 30 02 0B  143.._.a.0...0..
0910: 01 6B 61 6B 31 D0 62 80  30 02 0B 01 30 02 0B 01  .kak1.b.0...0...
0920: 69 65 30 31 01 80 D0 63  80 30 02 0B 01 30 02 0B  ie01...c.0...0..
0930: 01 69 65 30 33 01 80 4A  F0 FF FF 7F 32 02 0B 01  .ie03..J....2...
0940: 1C 22 80 52 1F 80 F8 FF  FF 7F F8 FF FF 7F 73 31  .".R..........s1
0950: 34 33 45 1F 80 F8 FF FF  7F F8 FF FF 7F 73 31 34  43E..........s14
0960: 34 01 80 BA 35 02 0B 01  59 80 5A 80 5B 80 64 80  4...5...Y.Z.[.d.
0970: 27 05 36 02 0B 01 03 1C  1A 80 52 1F 80 F8 FF FF  '.6.......R.....
0980: 7F F8 FF FF 7F 73 31 34  34 AE 05 35 02 0B 01 32  .....s144..5...2
0990: 02 0B 01 5F 03 4D 80 35  02 0B 01 35 02 0B 01 74  ..._.M.5...5...t
09A0: 75 72 30 5F 03 65 80 32  02 0B 01 32 02 0B 01 74  ur0_.e.2...2...t
09B0: 75 72 30 D0 67 80 32 02  0B 01 32 02 0B 01 6B 65  ur0.g.2...2...ke
09C0: 30 30 01 80 1C 22 80 AE  06 32 02 0B 01 5F 03 54  00..."...2..._.T
09D0: 80 35 02 0B 01 35 02 0B  01 63 6D 6F 66 5F 02 35  .5...5...cmof_.5
09E0: 02 0B 01 45 1F 80 F8 FF  FF 7F F8 FF FF 7F 73 31  ...E..........s1
09F0: 34 35 01 80 5F 03 65 80  32 02 0B 01 32 02 0B 01  45.._.e.2...2...
0A00: 74 75 72 31 02 87 7F 68  80 80 1E 0A 66 69 80 F0  tur1...h....fi..
0A10: FF FF 7F F0 FF FF 7F 6D  61 62 30 01 D4 0A 02 87  .......mab0.....
0A20: 7F 6A 80 80 38 0A 66 23  80 F0 FF FF 7F F0 FF FF  .j..8.f#........
0A30: 7F 6D 61 62 30 01 D4 0A  02 87 7F 6B 80 80 52 0A  .mab0......k..R.
0A40: 66 6C 80 F0 FF FF 7F F0  FF FF 7F 6D 61 62 30 01  fl.........mab0.
0A50: D4 0A 02 87 7F 6D 80 80  6C 0A 66 6E 80 F0 FF FF  .....m..l.fn....
0A60: 7F F0 FF FF 7F 6D 61 62  30 01 D4 0A 02 87 7F 6F  .....mab0......o
0A70: 80 80 86 0A 66 40 80 F0  FF FF 7F F0 FF FF 7F 6D  ....f@.........m
0A80: 61 62 30 01 D4 0A 02 87  7F 70 80 80 A0 0A 66 40  ab0......p....f@
0A90: 80 F0 FF FF 7F F0 FF FF  7F 6D 61 62 30 01 D4 0A  .........mab0...
0AA0: 02 87 7F 71 80 80 BA 0A  66 72 80 F0 FF FF 7F F0  ...q....fr......
0AB0: FF FF 7F 6D 61 62 30 01  D4 0A 02 87 7F 73 80 80  ...mab0......s..
0AC0: D4 0A 66 00 80 F0 FF FF  7F F0 FF FF 7F 6D 61 62  ..f..........mab
0AD0: 30 01 D4 0A 1C 58 80 45  74 80 F0 FF FF 7F F0 FF  0....X.Et.......
0AE0: FF 7F 77 68 6F 31 01 80  55 74 80 F0 FF FF 7F F0  ..who1..Ut......
0AF0: FF FF 7F 77 68 6F 31 52  1F 80 F8 FF FF 7F F8 FF  ...who1R........
0B00: FF 7F 73 31 34 35 2C 30  02 0B 01 30 02 0B 01 77  ..s145,0...0...w
0B10: 34 6F 66 6B 69 64 6C 30  32 02 0B 01 27 05 34 02  4ofkidl02...'.4.
0B20: 0B 01 03 59 05 33 02 0B  01 00 BA 31 02 0B 01 75  ...Y.3.....1...u
0B30: 80 76 80 4C 80 01 80 BA  33 02 0B 01 77 80 78 80  .v.L....3...w.x.
0B40: 44 80 45 80 1C 1A 80 5F  03 65 80 32 02 0B 01 32  D.E...._.e.2...2
0B50: 02 0B 01 66 79 75 33 5B  39 80 30 02 0B 01 30 02  ...fyu3[9.0...0.
0B60: 0B 01 66 66 30 30 5F 03  61 80 30 02 0B 01 30 02  ..ff00_.a.0...0.
0B70: 0B 01 68 69 7A 30 D0 79  80 30 02 0B 01 30 02 0B  ..hiz0.y.0...0..
0B80: 01 6B 69 65 30 01 80 D0  7A 80 32 02 0B 01 32 02  .kie0...z.2...2.
0B90: 0B 01 6B 30 30 30 01 80  1C 1A 80 4E 01 34 02 0B  ..k000.....N.4..
0BA0: 01 45 1F 80 F8 FF FF 7F  F8 FF FF 7F 73 31 34 36  .E..........s146
0BB0: 01 80 1C 20 80 45 74 80  F0 FF FF 7F F0 FF FF 7F  ... .Et.........
0BC0: 77 68 69 30 01 80 02 87  7F 68 80 80 E0 0B 66 69  whi0.....h....fi
0BD0: 80 F0 FF FF 7F F0 FF FF  7F 6D 61 62 31 01 96 0C  .........mab1...
0BE0: 02 87 7F 6A 80 80 FA 0B  66 23 80 F0 FF FF 7F F0  ...j....f#......
0BF0: FF FF 7F 6D 61 62 31 01  96 0C 02 87 7F 6B 80 80  ...mab1......k..
0C00: 14 0C 66 6C 80 F0 FF FF  7F F0 FF FF 7F 6D 61 62  ..fl.........mab
0C10: 31 01 96 0C 02 87 7F 6D  80 80 2E 0C 66 6E 80 F0  1......m....fn..
0C20: FF FF 7F F0 FF FF 7F 6D  61 62 31 01 96 0C 02 87  .......mab1.....
0C30: 7F 6F 80 80 48 0C 66 40  80 F0 FF FF 7F F0 FF FF  .o..H.f@........
0C40: 7F 6D 61 62 31 01 96 0C  02 87 7F 70 80 80 62 0C  .mab1......p..b.
0C50: 66 40 80 F0 FF FF 7F F0  FF FF 7F 6D 61 62 31 01  f@.........mab1.
0C60: 96 0C 02 87 7F 71 80 80  7C 0C 66 72 80 F0 FF FF  .....q..|.fr....
0C70: 7F F0 FF FF 7F 6D 61 62  31 01 96 0C 02 87 7F 73  .....mab1......s
0C80: 80 80 96 0C 66 00 80 F0  FF FF 7F F0 FF FF 7F 6D  ....f..........m
0C90: 61 62 31 01 96 0C 1C 2F  80 52 1F 80 F8 FF FF 7F  ab1..../.R......
0CA0: F8 FF FF 7F 73 31 34 36  45 1F 80 F8 FF FF 7F F8  ....s146E.......
0CB0: FF FF 7F 73 31 34 37 01  80 1C 2F 80 52 1F 80 F8  ...s147.../.R...
0CC0: FF FF 7F F8 FF FF 7F 73  31 34 37 45 1F 80 F8 FF  .......s147E....
0CD0: FF 7F F8 FF FF 7F 73 31  34 38 01 80 1C 49 80 6B  ......s148...I.k
0CE0: 69 64 6C 30 F0 FF FF 7F  1C 32 80 52 1F 80 F8 FF  idl0.....2.R....
0CF0: FF 7F F8 FF FF 7F 73 31  34 38 45 1F 80 F8 FF FF  ......s148E.....
0D00: 7F F8 FF FF 7F 73 31 34  39 01 80 1C 22 80 4E 00  .....s149...".N.
0D10: 31 02 0B 01 1C 1A 80 52  1F 80 F8 FF FF 7F F8 FF  1......R........
0D20: FF 7F 73 31 34 39 45 1F  80 F8 FF FF 7F F8 FF FF  ..s149E.........
0D30: 7F 73 31 35 30 01 80 BA  35 02 0B 01 46 80 47 80  .s150...5...F.G.
0D40: 48 80 7B 80 1C 2F 80 52  1F 80 F8 FF FF 7F F8 FF  H.{../.R........
0D50: FF 7F 73 31 35 30 45 1F  80 F8 FF FF 7F F8 FF FF  ..s150E.........
0D60: 7F 73 31 35 37 01 80 5F  03 61 80 30 02 0B 01 30  .s157.._.a.0...0
0D70: 02 0B 01 68 69 7A 31 D0  79 80 30 02 0B 01 30 02  ...hiz1.y.0...0.
0D80: 0B 01 6B 69 65 31 01 80  1C 58 80 52 1F 80 F8 FF  ..kie1...X.R....
0D90: FF 7F F8 FF FF 7F 73 31  35 37 45 1F 80 F8 FF FF  ......s157E.....
0DA0: 7F F8 FF FF 7F 73 31 35  38 01 80 1C 7C 80 52 1F  .....s158...|.R.
0DB0: 80 F8 FF FF 7F F8 FF FF  7F 73 31 35 38 45 1F 80  .........s158E..
0DC0: F8 FF FF 7F F8 FF FF 7F  73 30 38 32 01 80 5F 03  ........s082.._.
0DD0: 4E 80 32 02 0B 01 32 02  0B 01 6B 79 75 30 D0 7D  N.2...2...kyu0.}
0DE0: 80 31 02 0B 01 32 02 0B  01 73 30 30 30 01 80 1C  .1...2...s000...
0DF0: 50 80 5F 03 7E 80 31 02  0B 01 31 02 0B 01 64 65  P._.~.1...1...de
0E00: 64 30 1C 50 80 52 1F 80  F8 FF FF 7F F8 FF FF 7F  d0.P.R..........
0E10: 73 30 38 32 45 1F 80 F8  FF FF 7F F8 FF FF 7F 73  s082E..........s
0E20: 31 35 31 01 80 81 00 33  02 0B 01 7C 00 33 02 0B  151....3...|.3..
0E30: 01 BA 33 02 0B 01 77 80  78 80 44 80 7B 80 5B 53  ..3...w.x.D.{.[S
0E40: 80 33 02 0B 01 33 02 0B  01 66 30 30 32 1C 7F 80  .3...3...f002...
0E50: 52 1F 80 F8 FF FF 7F F8  FF FF 7F 73 31 35 31 45  R..........s151E
0E60: 1F 80 F8 FF FF 7F F8 FF  FF 7F 73 31 35 32 01 80  ..........s152..
0E70: 2B 33 02 0B 01 80 80 23  BA 32 02 0B 01 81 80 82  +3.....#.2......
0E80: 80 5B 80 64 80 1C 1A 80  52 1F 80 F8 FF FF 7F F8  .[.d....R.......
0E90: FF FF 7F 73 31 35 32 5F  03 4D 80 35 02 0B 01 35  ...s152_.M.5...5
0EA0: 02 0B 01 74 6F 75 30 5F  03 5C 80 32 02 0B 01 32  ...tou0_.\.2...2
0EB0: 02 0B 01 74 6F 75 30 D0  7A 80 32 02 0B 01 32 02  ...tou0.z.2...2.
0EC0: 0B 01 6B 30 30 31 01 80  1C 40 80 5F 03 4D 80 35  ..k001...@._.M.5
0ED0: 02 0B 01 35 02 0B 01 74  6F 75 31 1C 22 80 5F 03  ...5...tou1."._.
0EE0: 4D 80 35 02 0B 01 35 02  0B 01 74 6F 75 32 1C 32  M.5...5...tou2.2
0EF0: 80 6B 69 64 6C 30 33 02  0B 01 4A 33 02 0B 01 F0  .kidl03...J3....
0F00: FF FF 7F 4B F0 FF FF 7F  01 80 1C 22 80 5F 03 54  ...K......."._.T
0F10: 80 35 02 0B 01 35 02 0B  01 63 6D 6F 66 5F 02 35  .5...5...cmof_.5
0F20: 02 0B 01 45 1F 80 F8 FF  FF 7F F8 FF FF 7F 73 31  ...E..........s1
0F30: 35 33 01 80 79 00 F0 FF  FF 7F 33 02 0B 01 2B 33  53..y.....3...+3
0F40: 02 0B 01 83 80 23 55 1F  80 F8 FF FF 7F F8 FF FF  .....#U.........
0F50: 7F 73 31 35 33 27 05 33  02 0B 01 03 1C 1A 80 45  .s153'.3.......E
0F60: 1F 80 F8 FF FF 7F F8 FF  FF 7F 73 31 36 30 01 80  ..........s160..
0F70: 1C 58 80 5D 01 80 40 80  45 00 80 F8 FF FF 7F F8  .X.]..@.E.......
0F80: FF FF 7F 66 64 6F 31 01  80 55 00 80 F8 FF FF 7F  ...fdo1..U......
0F90: F8 FF FF 7F 66 64 6F 31  52 1F 80 F8 FF FF 7F F8  ....fdo1R.......
0FA0: FF FF 7F 73 31 36 30 5C  00 01 80 5C 01 01 80 9A  ...s160\...\....
0FB0: 46 00 45 00 80 F8 FF FF  7F F8 FF FF 7F 66 64 69  F.E..........fdi
0FC0: 32 01 80 21 00                                    2..!.           
```

#### Opcodes

```
  0: 0x0001 [0x42] SET_CLI_EVENT_CANCEL_DATA()
  1: 0x0002 [0x45] LOAD_SCHEDULED_TASK: Load scheduler "fdo1" with entities [EventEntity, EventEntity], work=[200*, 0*]
  2: 0x0013 [0x55] WAIT_LOAD_SCHEDULER: Wait for scheduler "fdo1" with entities [EventEntity, EventEntity], work=200*
  3: 0x0022 [0x46] CAMERA_CONTROL: Disable user control
  4: 0x0024 [0x38] SET_CLIENT_EVENT_MODE(mode=27*)
  5: 0x0027 [0x2F] Unnamed NPC (ID: 17498677/0x010B0235)->Render.Flags0 &= ~0x80000 // Bit 19
  6: 0x002D [0x2F] Zeid (ID: 17498675/0x010B0233)->Render.Flags0 &= ~0x80000 // Bit 19
  7: 0x0033 [0x2F] Unnamed NPC (ID: 17498676/0x010B0234)->Render.Flags0 &= ~0x80000 // Bit 19
  8: 0x0039 [0x2F] Siren (ID: 17498673/0x010B0231)->Render.Flags0 &= ~0x80000 // Bit 19
  9: 0x003F [0x2F] Iroha (ID: 17498672/0x010B0230)->Render.Flags0 &= ~0x80000 // Bit 19
 10: 0x0045 [0x2F] Unnamed NPC (ID: 17498674/0x010B0232)->Render.Flags0 &= ~0x80000 // Bit 19
 11: 0x004B [0x4E] SET_ENTITY_HIDE_FLAG: Show Unnamed NPC (ID: 17498677/0x010B0235)
 12: 0x0051 [0x4E] SET_ENTITY_HIDE_FLAG: Show Zeid (ID: 17498675/0x010B0233)
 13: 0x0057 [0x4E] SET_ENTITY_HIDE_FLAG: Show Iroha (ID: 17498672/0x010B0230)
 14: 0x005D [0x4E] SET_ENTITY_HIDE_FLAG: Show Siren (ID: 17498673/0x010B0231)
 15: 0x0063 [0x4E] SET_ENTITY_HIDE_FLAG: Show Unnamed NPC (ID: 17498676/0x010B0234)
 16: 0x0069 [0x92] Zeid (ID: 17498675/0x010B0233)->Render.Flags3 ^= 0x01
 17: 0x006F [0x92] Unnamed NPC (ID: 17498674/0x010B0232)->Render.Flags3 ^= 0x01
 18: 0x0075 [0x92] Siren (ID: 17498673/0x010B0231)->Render.Flags3 ^= 0x01
 19: 0x007B [0x92] Iroha (ID: 17498672/0x010B0230)->Render.Flags3 ^= 0x01
 20: 0x0081 [0x92] ??? (ID: 17498678/0x010B0236)->Render.Flags3 ^= 0x01
 21: 0x0087 [0x94] Unnamed NPC (ID: 17498677/0x010B0235)->Render.Flags3 ^= 0x01
 22: 0x008D [0x94] Siren (ID: 17498673/0x010B0231)->Render.Flags3 ^= 0x01
 23: 0x0093 [0x94] Zeid (ID: 17498675/0x010B0233)->Render.Flags3 ^= 0x01
 24: 0x0099 [0x94] Unnamed NPC (ID: 17498674/0x010B0232)->Render.Flags3 ^= 0x01
 25: 0x009F [0x94] LocalPlayer->Render.Flags3 ^= 0x01
 26: 0x00A5 [0x94] Unnamed NPC (ID: 17498676/0x010B0234)->Render.Flags3 ^= 0x01
 27: 0x00AB [0x94] Iroha (ID: 17498672/0x010B0230)->Render.Flags3 ^= 0x01
 28: 0x00B1 [0x59] UPDATE_ENTITY_DATA: Unnamed NPC (ID: 17498677/0x010B0235)->Render.Flags0 |= 0x200000
 29: 0x00B8 [0x59] UPDATE_ENTITY_DATA: Unnamed NPC (ID: 17498674/0x010B0232)->Render.Flags0 |= 0x200000
 30: 0x00BF [0x59] UPDATE_ENTITY_DATA: Unnamed NPC (ID: 17498676/0x010B0234)->Render.Flags0 |= 0x200000
 31: 0x00C6 [0x59] UPDATE_ENTITY_DATA: Siren (ID: 17498673/0x010B0231)->Render.Flags0 |= 0x200000
 32: 0x00CD [0x27] REQ_SET(priority=0x05, entity_id=Siren (ID: 17498673/0x010B0231), tag_num=0x02)
 33: 0x00D4 [0xBA] SET_ENTITY_POSITION(entity_id=Unnamed NPC (ID: 17498677/0x010B0235), pos_x=123.690*, pos_z=-17.829*, pos_y=10.981*, direction=180.0°*)
 34: 0x00E1 [0xBA] SET_ENTITY_POSITION(entity_id=Unnamed NPC (ID: 17498674/0x010B0232), pos_x=128.788*, pos_z=-18.128*, pos_y=10.672*, direction=180.0°*)
 35: 0x00EE [0xBA] SET_ENTITY_POSITION(entity_id=Zeid (ID: 17498675/0x010B0233), pos_x=118.474*, pos_z=-0.768*, pos_y=9.999*, direction=143.9°*)
 36: 0x00FB [0xBA] SET_ENTITY_POSITION(entity_id=LocalPlayer, pos_x=110.746*, pos_z=-6.973*, pos_y=9.094*, direction=136.0°*)
 37: 0x0108 [0xBA] SET_ENTITY_POSITION(entity_id=Siren (ID: 17498673/0x010B0231), pos_x=108.342*, pos_z=-9.288*, pos_y=8.111*, direction=319.3°*)
 38: 0x0115 [0xBA] SET_ENTITY_POSITION(entity_id=Iroha (ID: 17498672/0x010B0230), pos_x=118.075*, pos_z=1.601*, pos_y=9.810*, direction=140.7°*)
 39: 0x0122 [0xBA] SET_ENTITY_POSITION(entity_id=Unnamed NPC (ID: 17498676/0x010B0234), pos_x=108.342*, pos_z=-9.288*, pos_y=7.111*, direction=319.3°*)
 40: 0x012F [0x80] LOAD_WAIT(entity=LocalPlayer)
 41: 0x0134 [0x80] LOAD_WAIT(entity=Iroha (ID: 17498672/0x010B0230))
 42: 0x0139 [0x80] LOAD_WAIT(entity=Zeid (ID: 17498675/0x010B0233))
 43: 0x013E [0x80] LOAD_WAIT(entity=Unnamed NPC (ID: 17498676/0x010B0234))
 44: 0x0143 [0x80] LOAD_WAIT(entity=Unnamed NPC (ID: 17498677/0x010B0235))
 45: 0x0148 [0x4A] LocalPlayer looks at Unnamed NPC (ID: 17498676/0x010B0234)
 46: 0x0151 [0x1C] WAIT(30* ticks)
 47: 0x0154 [0x81] SET_ENTITY_BLINKING(blink_flag=0x00, entity=Siren (ID: 17498673/0x010B0231))
 48: 0x015A [0x7C] Siren (ID: 17498673/0x010B0231)->Render.Flags2 |= 0x00
 49: 0x0160 [0x5B] LOAD_EXT_SCHEDULER: Load scheduler "popl" with entities [Siren (ID: 17498673/0x010B0231), Siren (ID: 17498673/0x010B0231)], work=3879*
 50: 0x016F [0x5F] MULTI_HANDLER_COMPLEX(mode=0x04 - Load ext scheduler (OpCode 0x5B mode 1), ref=142*, entity1=Unnamed NPC (ID: 17498674/0x010B0232), entity2=Unnamed NPC (ID: 17498674/0x010B0232), string="dai0")
 51: 0x017F [0xCD] LOAD_SCHEDULED_TASK_ALT4: Load scheduler "star" with entities [Unnamed NPC (ID: 17498676/0x010B0234), Unnamed NPC (ID: 17498676/0x010B0234)], work=[157*, 0*]
 52: 0x0190 [0x5B] LOAD_EXT_SCHEDULER: Load scheduler "yre0" with entities [Unnamed NPC (ID: 17498676/0x010B0234), Unnamed NPC (ID: 17498676/0x010B0234)], work=3252*
 53: 0x019F [0x45] LOAD_SCHEDULED_TASK: Load scheduler "s120" with entities [EventEntity, EventEntity], work=[762*, 0*]
 54: 0x01B0 [0x1C] WAIT(15* ticks)
 55: 0x01B3 [0x45] LOAD_SCHEDULED_TASK: Load scheduler "fdi1" with entities [EventEntity, EventEntity], work=[200*, 0*]
 56: 0x01C4 [0x1C] WAIT(210* ticks)
 57: 0x01C7 [0x27] REQ_SET(priority=0x05, entity_id=Zeid (ID: 17498675/0x010B0233), tag_num=0x02)
 58: 0x01CE [0x1C] WAIT(15* ticks)
 59: 0x01D1 [0x27] REQ_SET(priority=0x05, entity_id=Iroha (ID: 17498672/0x010B0230), tag_num=0x02)
 60: 0x01D8 [0x1C] WAIT(15* ticks)
 61: 0x01DB [0x52] END_LOAD_SCHEDULER: End scheduler "s120" with entities [EventEntity, EventEntity], work=762*
 62: 0x01EA [0x45] LOAD_SCHEDULED_TASK: Load scheduler "s121" with entities [EventEntity, EventEntity], work=[762*, 0*]
 63: 0x01FB [0x1C] WAIT(60* ticks)
 64: 0x01FE [0x5B] LOAD_EXT_SCHEDULER: Load scheduler "oti0" with entities [Unnamed NPC (ID: 17498676/0x010B0234), Unnamed NPC (ID: 17498676/0x010B0234)], work=3252*
 65: 0x020D [0x1C] WAIT(60* ticks)
 66: 0x0210 [0xCD] LOAD_SCHEDULED_TASK_ALT4: Load scheduler "stop" with entities [Unnamed NPC (ID: 17498676/0x010B0234), Unnamed NPC (ID: 17498676/0x010B0234)], work=[157*, 0*]
 67: 0x0221 [0x52] END_LOAD_SCHEDULER: End scheduler "s121" with entities [EventEntity, EventEntity], work=762*
 68: 0x0230 [0x45] LOAD_SCHEDULED_TASK: Load scheduler "s122" with entities [EventEntity, EventEntity], work=[762*, 0*]
 69: 0x0241 [0x1C] WAIT(150* ticks)
 70: 0x0244 [0xBA] SET_ENTITY_POSITION(entity_id=Zeid (ID: 17498675/0x010B0233), pos_x=112.782*, pos_z=-6.449*, pos_y=9.158*, direction=61.5°*)
 71: 0x0251 [0x1C] WAIT(60* ticks)
 72: 0x0254 [0x5B] LOAD_EXT_SCHEDULER: Load scheduler "mig0" with entities [Zeid (ID: 17498675/0x010B0233), Zeid (ID: 17498675/0x010B0233)], work=520*
 73: 0x0263 [0x1C] WAIT(60* ticks)
 74: 0x0266 [0x52] END_LOAD_SCHEDULER: End scheduler "s122" with entities [EventEntity, EventEntity], work=762*
 75: 0x0275 [0x45] LOAD_SCHEDULED_TASK: Load scheduler "s123" with entities [EventEntity, EventEntity], work=[762*, 0*]
 76: 0x0286 [0x5B] LOAD_EXT_SCHEDULER: Load scheduler "kao2" with entities [Iroha (ID: 17498672/0x010B0230), Iroha (ID: 17498672/0x010B0230)], work=3867*
 77: 0x0295 [0x6B] STOP_AND_IDLE: Unnamed NPC (ID: 17498676/0x010B0234) stops current action and resets to idle (animation="idl0")
 78: 0x029E [0x27] REQ_SET(priority=0x05, entity_id=Unnamed NPC (ID: 17498676/0x010B0234), tag_num=0x02)
 79: 0x02A5 [0xBA] SET_ENTITY_POSITION(entity_id=Unnamed NPC (ID: 17498676/0x010B0234), pos_x=120.132*, pos_z=-8.724*, pos_y=10.157*, direction=136.1°*)
 80: 0x02B2 [0x2B] Zeid (ID: 17498675/0x010B0233) [10787*]:
    → "Something's horribly wrong!"
 81: 0x02B9 [0x1C] WAIT(120* ticks)
 82: 0x02BC [0x23] WAIT_FOR_DIALOG_INTERACTION
 83: 0x02BD [0x5C] MUSIC_CONTROL: Set Idle (Day) music to song 127*
 84: 0x02C1 [0x5C] MUSIC_CONTROL: Set Idle (Night) music to song 127*
 85: 0x02C5 [0x9A] WAIT_MUSIC_SERVER()
 86: 0x02C6 [0x52] END_LOAD_SCHEDULER: End scheduler "s123" with entities [EventEntity, EventEntity], work=762*
 87: 0x02D5 [0x45] LOAD_SCHEDULED_TASK: Load scheduler "s124" with entities [EventEntity, EventEntity], work=[762*, 0*]
 88: 0x02E6 [0xD0] LOAD_SCHEDULED_TASK_ALT5: Load scheduler "main" with entities [Siren (ID: 17498673/0x010B0231), Siren (ID: 17498673/0x010B0231)], work=[101*, 0*]
 89: 0x02F7 [0x1C] WAIT(100* ticks)
 90: 0x02FA [0x52] END_LOAD_SCHEDULER: End scheduler "s124" with entities [EventEntity, EventEntity], work=762*
 91: 0x0309 [0x45] LOAD_SCHEDULED_TASK: Load scheduler "s125" with entities [EventEntity, EventEntity], work=[762*, 0*]
 92: 0x031A [0x79] LocalPlayer looks at Siren (ID: 17498673/0x010B0231) (Basic look)
 93: 0x0324 [0x1C] WAIT(200* ticks)
 94: 0x0327 [0x81] SET_ENTITY_BLINKING(blink_flag=0x01, entity=Siren (ID: 17498673/0x010B0231))
 95: 0x032D [0x7C] Siren (ID: 17498673/0x010B0231)->Render.Flags2 |= 0x01
 96: 0x0333 [0x52] END_LOAD_SCHEDULER: End scheduler "s125" with entities [EventEntity, EventEntity], work=762*
 97: 0x0342 [0x45] LOAD_SCHEDULED_TASK: Load scheduler "s126" with entities [EventEntity, EventEntity], work=[762*, 0*]
 98: 0x0353 [0x1C] WAIT(100* ticks)
 99: 0x0356 [0x52] END_LOAD_SCHEDULER: End scheduler "s126" with entities [EventEntity, EventEntity], work=762*
100: 0x0365 [0x45] LOAD_SCHEDULED_TASK: Load scheduler "s127" with entities [EventEntity, EventEntity], work=[762*, 0*]
101: 0x0376 [0x1C] WAIT(150* ticks)
102: 0x0379 [0x52] END_LOAD_SCHEDULER: End scheduler "s127" with entities [EventEntity, EventEntity], work=762*
103: 0x0388 [0x45] LOAD_SCHEDULED_TASK: Load scheduler "s128" with entities [EventEntity, EventEntity], work=[762*, 0*]
104: 0x0399 [0x2B] Zeid (ID: 17498675/0x010B0233) [10788*]:
    → "You are not Garuda. Then what...?"
105: 0x03A0 [0x23] WAIT_FOR_DIALOG_INTERACTION
106: 0x03A1 [0x52] END_LOAD_SCHEDULER: End scheduler "s128" with entities [EventEntity, EventEntity], work=762*
107: 0x03B0 [0x45] LOAD_SCHEDULED_TASK: Load scheduler "s129" with entities [EventEntity, EventEntity], work=[762*, 0*]
108: 0x03C1 [0x2B] Siren (ID: 17498673/0x010B0231) [10789*]:
    → "Pitiful humans. You cannot hear nature, though she aches for one to listen.."
109: 0x03C8 [0x23] WAIT_FOR_DIALOG_INTERACTION
110: 0x03C9 [0x2B] Siren (ID: 17498673/0x010B0231) [10790*]:
    → "I am left breathless knowing my name has been forgotten."
111: 0x03D0 [0x23] WAIT_FOR_DIALOG_INTERACTION
112: 0x03D1 [0x5B] LOAD_EXT_SCHEDULER: Load scheduler "kao3" with entities [Iroha (ID: 17498672/0x010B0230), Iroha (ID: 17498672/0x010B0230)], work=3867*
113: 0x03E0 [0x52] END_LOAD_SCHEDULER: End scheduler "s129" with entities [EventEntity, EventEntity], work=762*
114: 0x03EF [0x45] LOAD_SCHEDULED_TASK: Load scheduler "s130" with entities [EventEntity, EventEntity], work=[762*, 0*]
115: 0x0400 [0x29] REQ_SET_WAIT(priority=0x05, entity_id=Siren (ID: 17498673/0x010B0231), tag_num=0x04)
116: 0x0407 [0x2B] Iroha (ID: 17498672/0x010B0230) [10791*]:
    → "No. Your vestige is known to me. The seductress, Siren!"
117: 0x040E [0x23] WAIT_FOR_DIALOG_INTERACTION
118: 0x040F [0x55] WAIT_LOAD_SCHEDULER: Wait for scheduler "s130" with entities [EventEntity, EventEntity], work=762*
119: 0x041E [0x45] LOAD_SCHEDULED_TASK: Load scheduler "s131" with entities [EventEntity, EventEntity], work=[762*, 0*]
120: 0x042F [0x2B] Siren (ID: 17498673/0x010B0231) [10792*]:
    → "Ah, young daughter. Have you come from a faraway age?"
121: 0x0436 [0x23] WAIT_FOR_DIALOG_INTERACTION
122: 0x0437 [0x2B] Siren (ID: 17498673/0x010B0231) [10793*]:
    → "One is mere happenstance, but to think...two..."
123: 0x043E [0x23] WAIT_FOR_DIALOG_INTERACTION
124: 0x043F [0x81] SET_ENTITY_BLINKING(blink_flag=0x00, entity=Iroha (ID: 17498672/0x010B0230))
125: 0x0445 [0x7C] Iroha (ID: 17498672/0x010B0230)->Render.Flags2 |= 0x00
126: 0x044B [0x5B] LOAD_EXT_SCHEDULER: Load scheduler "fd01" with entities [Iroha (ID: 17498672/0x010B0230), Iroha (ID: 17498672/0x010B0230)], work=3858*
127: 0x045A [0x52] END_LOAD_SCHEDULER: End scheduler "s131" with entities [EventEntity, EventEntity], work=762*
128: 0x0469 [0x45] LOAD_SCHEDULED_TASK: Load scheduler "s132" with entities [EventEntity, EventEntity], work=[762*, 0*]
129: 0x047A [0x2B] Iroha (ID: 17498672/0x010B0230) [10794*]:
    → "Your words confound me."
130: 0x0481 [0xBA] SET_ENTITY_POSITION(entity_id=LocalPlayer, pos_x=111.249*, pos_z=-7.441*, pos_y=9.203*, direction=136.1°*)
131: 0x048E [0x80] LOAD_WAIT(entity=LocalPlayer)
132: 0x0493 [0x55] WAIT_LOAD_SCHEDULER: Wait for scheduler "s132" with entities [EventEntity, EventEntity], work=762*
133: 0x04A2 [0x1C] WAIT(30* ticks)
134: 0x04A5 [0x45] LOAD_SCHEDULED_TASK: Load scheduler "s133" with entities [EventEntity, EventEntity], work=[762*, 0*]
135: 0x04B6 [0x2B] Iroha (ID: 17498672/0x010B0230) [10795*]:
    → "Do you mean to say that yet another has come from the future?"
136: 0x04BD [0x23] WAIT_FOR_DIALOG_INTERACTION
137: 0x04BE [0x5B] LOAD_EXT_SCHEDULER: Load scheduler "fd00" with entities [Iroha (ID: 17498672/0x010B0230), Iroha (ID: 17498672/0x010B0230)], work=3858*
138: 0x04CD [0x52] END_LOAD_SCHEDULER: End scheduler "s133" with entities [EventEntity, EventEntity], work=762*
139: 0x04DC [0x45] LOAD_SCHEDULED_TASK: Load scheduler "s134" with entities [EventEntity, EventEntity], work=[762*, 0*]
140: 0x04ED [0x2B] Siren (ID: 17498673/0x010B0231) [10796*]:
    → "I do. Not all are equal before Father Time, least of all one who can devour him."
141: 0x04F4 [0x23] WAIT_FOR_DIALOG_INTERACTION
142: 0x04F5 [0x5D] SET_MUSIC_VOLUME(volume=0*, fade_time=180*)
143: 0x04FA [0x52] END_LOAD_SCHEDULER: End scheduler "s134" with entities [EventEntity, EventEntity], work=762*
144: 0x0509 [0x45] LOAD_SCHEDULED_TASK: Load scheduler "s135" with entities [EventEntity, EventEntity], work=[762*, 0*]
145: 0x051A [0x2B] Siren (ID: 17498673/0x010B0231) [10797*]:
    → "It no longer needs wait for the future, and has sent its emissary to this time. Even now, he stands tall, cackling at your backs."
146: 0x0521 [0x23] WAIT_FOR_DIALOG_INTERACTION
147: 0x0522 [0x4E] SET_ENTITY_HIDE_FLAG: Show Unnamed NPC (ID: 17498674/0x010B0232)
148: 0x0528 [0xD3] CLEAR_ENTITY_MOTION_QUEUE(condition_flag=0x00, entity_server_id=0x010B0230)
149: 0x052E [0x6B] STOP_AND_IDLE: Iroha (ID: 17498672/0x010B0230) stops current action and resets to idle (animation="idl0")
150: 0x0537 [0x59] UPDATE_ENTITY_DATA: Iroha (ID: 17498672/0x010B0230)->Render.Flags0 |= 0x200000
151: 0x053E [0x59] UPDATE_ENTITY_DATA: LocalPlayer->Render.Flags0 |= 0x200000
152: 0x0545 [0x59] UPDATE_ENTITY_DATA: Zeid (ID: 17498675/0x010B0233)->Render.Flags0 |= 0x200000
153: 0x054C [0xBA] SET_ENTITY_POSITION(entity_id=Zeid (ID: 17498675/0x010B0233), pos_x=120.546*, pos_z=-20.108*, pos_y=10.998*, direction=87.9°*)
154: 0x0559 [0xBA] SET_ENTITY_POSITION(entity_id=Iroha (ID: 17498672/0x010B0230), pos_x=123.690*, pos_z=-17.829*, pos_y=10.981*, direction=180.0°*)
155: 0x0566 [0xBA] SET_ENTITY_POSITION(entity_id=LocalPlayer, pos_x=117.427*, pos_z=-18.117*, pos_y=10.999*, direction=136.0°*)
156: 0x0573 [0x80] LOAD_WAIT(entity=Unnamed NPC (ID: 17498674/0x010B0232))
157: 0x0578 [0x80] LOAD_WAIT(entity=Iroha (ID: 17498672/0x010B0230))
158: 0x057D [0x80] LOAD_WAIT(entity=LocalPlayer)
159: 0x0582 [0x80] LOAD_WAIT(entity=Zeid (ID: 17498675/0x010B0233))
160: 0x0587 [0x5C] MUSIC_CONTROL: Set Idle (Day) music to song 80*
161: 0x058B [0x5C] MUSIC_CONTROL: Set Idle (Night) music to song 80*
162: 0x058F [0x9A] WAIT_MUSIC_SERVER()
163: 0x0590 [0x52] END_LOAD_SCHEDULER: End scheduler "s135" with entities [EventEntity, EventEntity], work=762*
164: 0x059F [0x45] LOAD_SCHEDULED_TASK: Load scheduler "s136" with entities [EventEntity, EventEntity], work=[762*, 0*]
165: 0x05B0 [0x1C] WAIT(30* ticks)
166: 0x05B3 [0xBA] SET_ENTITY_POSITION(entity_id=Siren (ID: 17498673/0x010B0231), pos_x=113.093*, pos_z=-18.924*, pos_y=9.111*, direction=0.0°*)
167: 0x05C0 [0x1C] WAIT(60* ticks)
168: 0x05C3 [0x52] END_LOAD_SCHEDULER: End scheduler "s136" with entities [EventEntity, EventEntity], work=762*
169: 0x05D2 [0x45] LOAD_SCHEDULED_TASK: Load scheduler "s137" with entities [EventEntity, EventEntity], work=[762*, 0*]
170: 0x05E3 [0x1C] WAIT(120* ticks)
171: 0x05E6 [0x52] END_LOAD_SCHEDULER: End scheduler "s137" with entities [EventEntity, EventEntity], work=762*
172: 0x05F5 [0x5F] MULTI_HANDLER_COMPLEX(mode=0x03 - Load ext scheduler (OpCode 0x5B mode 0), ref=3438*, entity1=Unnamed NPC (ID: 17498677/0x010B0235), entity2=Unnamed NPC (ID: 17498677/0x010B0235), string="fri0")
173: 0x0605 [0x5F] MULTI_HANDLER_COMPLEX(mode=0x03 - Load ext scheduler (OpCode 0x5B mode 0), ref=3888*, entity1=Unnamed NPC (ID: 17498674/0x010B0232), entity2=Unnamed NPC (ID: 17498674/0x010B0232), string="tob0")
174: 0x0615 [0x5F] MULTI_HANDLER_COMPLEX(mode=0x03 - Load ext scheduler (OpCode 0x5B mode 0), ref=3864*, entity1=Iroha (ID: 17498672/0x010B0230), entity2=Iroha (ID: 17498672/0x010B0230), string="fri0")
175: 0x0625 [0xD0] LOAD_SCHEDULED_TASK_ALT5: Load scheduler "ke00" with entities [Unnamed NPC (ID: 17498674/0x010B0232), Unnamed NPC (ID: 17498674/0x010B0232)], work=[120*, 0*]
176: 0x0636 [0xD0] LOAD_SCHEDULED_TASK_ALT5: Load scheduler "ie00" with entities [Unnamed NPC (ID: 17498674/0x010B0232), Iroha (ID: 17498672/0x010B0230)], work=[120*, 0*]
177: 0x0647 [0x1C] WAIT(50* ticks)
178: 0x064A [0x2B] Iroha (ID: 17498672/0x010B0230) [10798*]:
    → "<Gasp>"
179: 0x0651 [0xBA] SET_ENTITY_POSITION(entity_id=Zeid (ID: 17498675/0x010B0233), pos_x=120.546*, pos_z=-20.108*, pos_y=10.998*, direction=242.4°*)
180: 0x065E [0x5B] LOAD_EXT_SCHEDULER: Load scheduler "ken0" with entities [Zeid (ID: 17498675/0x010B0233), Zeid (ID: 17498675/0x010B0233)], work=247*
181: 0x066D [0x1C] WAIT(150* ticks)
182: 0x0670 [0x27] REQ_SET(priority=0x05, entity_id=Iroha (ID: 17498672/0x010B0230), tag_num=0x03)
183: 0x0677 [0x5F] MULTI_HANDLER_COMPLEX(mode=0x03 - Load ext scheduler (OpCode 0x5B mode 0), ref=3430*, entity1=Unnamed NPC (ID: 17498677/0x010B0235), entity2=Unnamed NPC (ID: 17498677/0x010B0235), string="cmof")
184: 0x0687 [0x5F] MULTI_HANDLER_COMPLEX(mode=0x02 - Kill entity action (OpCode 0xC1))
185: 0x068D [0x45] LOAD_SCHEDULED_TASK: Load scheduler "s154" with entities [EventEntity, EventEntity], work=[762*, 0*]
186: 0x069E [0xD0] LOAD_SCHEDULED_TASK_ALT5: Load scheduler "st01" with entities [Unnamed NPC (ID: 17498676/0x010B0234), Unnamed NPC (ID: 17498676/0x010B0234)], work=[108*, 0*]
187: 0x06AF [0x1C] WAIT(40* ticks)
188: 0x06B2 [0xBA] SET_ENTITY_POSITION(entity_id=LocalPlayer, pos_x=117.427*, pos_z=-18.117*, pos_y=10.999*, direction=0.0°*)
189: 0x06BF [0x1C] WAIT(200* ticks)
190: 0x06C2 [0x52] END_LOAD_SCHEDULER: End scheduler "s154" with entities [EventEntity, EventEntity], work=762*
191: 0x06D1 [0x5F] MULTI_HANDLER_COMPLEX(mode=0x03 - Load ext scheduler (OpCode 0x5B mode 0), ref=3438*, entity1=Unnamed NPC (ID: 17498677/0x010B0235), entity2=Unnamed NPC (ID: 17498677/0x010B0235), string="ken0")
192: 0x06E1 [0x5B] LOAD_EXT_SCHEDULER: Load scheduler "ken1" with entities [Zeid (ID: 17498675/0x010B0233), Zeid (ID: 17498675/0x010B0233)], work=247*
193: 0x06F0 [0x2B] Zeid (ID: 17498675/0x010B0233) [10799*]:
    → "Iroha!"
194: 0x06F7 [0x1C] WAIT(90* ticks)
195: 0x06FA [0x5F] MULTI_HANDLER_COMPLEX(mode=0x03 - Load ext scheduler (OpCode 0x5B mode 0), ref=3438*, entity1=Unnamed NPC (ID: 17498677/0x010B0235), entity2=Unnamed NPC (ID: 17498677/0x010B0235), string="ken1")
196: 0x070A [0x1C] WAIT(120* ticks)
197: 0x070D [0x5F] MULTI_HANDLER_COMPLEX(mode=0x03 - Load ext scheduler (OpCode 0x5B mode 0), ref=3438*, entity1=Unnamed NPC (ID: 17498677/0x010B0235), entity2=Unnamed NPC (ID: 17498677/0x010B0235), string="ken2")
198: 0x071D [0x1C] WAIT(50* ticks)
199: 0x0720 [0x4E] SET_ENTITY_HIDE_FLAG: Hide Siren (ID: 17498673/0x010B0231)
200: 0x0726 [0xBA] SET_ENTITY_POSITION(entity_id=Unnamed NPC (ID: 17498674/0x010B0232), pos_x=113.139*, pos_z=-17.851*, pos_y=9.174*, direction=0.0°*)
201: 0x0733 [0x5F] MULTI_HANDLER_COMPLEX(mode=0x03 - Load ext scheduler (OpCode 0x5B mode 0), ref=3889*, entity1=Unnamed NPC (ID: 17498674/0x010B0232), entity2=Unnamed NPC (ID: 17498674/0x010B0232), string="fyu0")
202: 0x0743 [0x1C] WAIT(50* ticks)
203: 0x0746 [0x5F] MULTI_HANDLER_COMPLEX(mode=0x03 - Load ext scheduler (OpCode 0x5B mode 0), ref=3430*, entity1=Unnamed NPC (ID: 17498677/0x010B0235), entity2=Unnamed NPC (ID: 17498677/0x010B0235), string="cmof")
204: 0x0756 [0x5F] MULTI_HANDLER_COMPLEX(mode=0x02 - Kill entity action (OpCode 0xC1))
205: 0x075C [0x45] LOAD_SCHEDULED_TASK: Load scheduler "s138" with entities [EventEntity, EventEntity], work=[762*, 0*]
206: 0x076D [0x5F] MULTI_HANDLER_COMPLEX(mode=0x03 - Load ext scheduler (OpCode 0x5B mode 0), ref=3889*, entity1=Unnamed NPC (ID: 17498674/0x010B0232), entity2=Unnamed NPC (ID: 17498674/0x010B0232), string="fyu1")
207: 0x077D [0x1C] WAIT(150* ticks)
208: 0x0780 [0x52] END_LOAD_SCHEDULER: End scheduler "s138" with entities [EventEntity, EventEntity], work=762*
209: 0x078F [0x45] LOAD_SCHEDULED_TASK: Load scheduler "s139" with entities [EventEntity, EventEntity], work=[762*, 0*]
210: 0x07A0 [0x27] REQ_SET(priority=0x05, entity_id=Iroha (ID: 17498672/0x010B0230), tag_num=0x04)
211: 0x07A7 [0xBA] SET_ENTITY_POSITION(entity_id=Iroha (ID: 17498672/0x010B0230), pos_x=120.381*, pos_z=9.675*, pos_y=10.324*, direction=104.8°*)
212: 0x07B4 [0x2C] CREATE_SCHEDULER_TASK: Create scheduler "w4on" with entities [Iroha (ID: 17498672/0x010B0230), Iroha (ID: 17498672/0x010B0230)]
213: 0x07C1 [0x5B] LOAD_EXT_SCHEDULER: Load scheduler "yum0" with entities [Iroha (ID: 17498672/0x010B0230), Iroha (ID: 17498672/0x010B0230)], work=3865*
214: 0x07D0 [0xD0] LOAD_SCHEDULED_TASK_ALT5: Load scheduler "ie00" with entities [Iroha (ID: 17498672/0x010B0230), Iroha (ID: 17498672/0x010B0230)], work=[113*, 0*]
215: 0x07E1 [0xD0] LOAD_SCHEDULED_TASK_ALT5: Load scheduler "ie02" with entities [Iroha (ID: 17498672/0x010B0230), Iroha (ID: 17498672/0x010B0230)], work=[121*, 0*]
216: 0x07F2 [0x1C] WAIT(120* ticks)
217: 0x07F5 [0x52] END_LOAD_SCHEDULER: End scheduler "s139" with entities [EventEntity, EventEntity], work=762*
218: 0x0804 [0x45] LOAD_SCHEDULED_TASK: Load scheduler "s140" with entities [EventEntity, EventEntity], work=[762*, 0*]
219: 0x0815 [0x1C] WAIT(120* ticks)
220: 0x0818 [0x52] END_LOAD_SCHEDULER: End scheduler "s140" with entities [EventEntity, EventEntity], work=762*
221: 0x0827 [0x45] LOAD_SCHEDULED_TASK: Load scheduler "s141" with entities [EventEntity, EventEntity], work=[762*, 0*]
222: 0x0838 [0x1C] WAIT(60* ticks)
223: 0x083B [0xBA] SET_ENTITY_POSITION(entity_id=Unnamed NPC (ID: 17498674/0x010B0232), pos_x=113.139*, pos_z=-17.851*, pos_y=9.174*, direction=360.0°*)
224: 0x0848 [0xBA] SET_ENTITY_POSITION(entity_id=Unnamed NPC (ID: 17498677/0x010B0235), pos_x=120.381*, pos_z=9.675*, pos_y=10.324*, direction=104.8°*)
225: 0x0855 [0x1C] WAIT(60* ticks)
226: 0x0858 [0x52] END_LOAD_SCHEDULER: End scheduler "s141" with entities [EventEntity, EventEntity], work=762*
227: 0x0867 [0x45] LOAD_SCHEDULED_TASK: Load scheduler "s142" with entities [EventEntity, EventEntity], work=[762*, 0*]
228: 0x0878 [0x5F] MULTI_HANDLER_COMPLEX(mode=0x03 - Load ext scheduler (OpCode 0x5B mode 0), ref=3890*, entity1=Unnamed NPC (ID: 17498674/0x010B0232), entity2=Unnamed NPC (ID: 17498674/0x010B0232), string="fyu2")
229: 0x0888 [0x1C] WAIT(120* ticks)
230: 0x088B [0x27] REQ_SET(priority=0x05, entity_id=??? (ID: 17498678/0x010B0236), tag_num=0x02)
231: 0x0892 [0x1C] WAIT(30* ticks)
232: 0x0895 [0x52] END_LOAD_SCHEDULER: End scheduler "s142" with entities [EventEntity, EventEntity], work=762*
233: 0x08A4 [0xAE] MULTI_PURPOSE_ENTITY_HANDLER(case_type=0x05 - Link ActorPointer, entity1=Unnamed NPC (ID: 17498677/0x010B0235), entity2=Iroha (ID: 17498672/0x010B0230))
234: 0x08AE [0x5F] MULTI_HANDLER_COMPLEX(mode=0x03 - Load ext scheduler (OpCode 0x5B mode 0), ref=3438*, entity1=Unnamed NPC (ID: 17498677/0x010B0235), entity2=Unnamed NPC (ID: 17498677/0x010B0235), string="kak0")
235: 0x08BE [0x5F] MULTI_HANDLER_COMPLEX(mode=0x03 - Load ext scheduler (OpCode 0x5B mode 0), ref=3865*, entity1=Iroha (ID: 17498672/0x010B0230), entity2=Iroha (ID: 17498672/0x010B0230), string="kak0")
236: 0x08CE [0x2B] Iroha (ID: 17498672/0x010B0230) [10800*]:
    → "May this arrow strike true, fiend!"
237: 0x08D5 [0x1C] WAIT(100* ticks)
238: 0x08D8 [0xAE] MULTI_PURPOSE_ENTITY_HANDLER(case_type=0x06 - Unset ActorPointer, entity=Iroha (ID: 17498672/0x010B0230))
239: 0x08DE [0x5F] MULTI_HANDLER_COMPLEX(mode=0x03 - Load ext scheduler (OpCode 0x5B mode 0), ref=3430*, entity1=Unnamed NPC (ID: 17498677/0x010B0235), entity2=Unnamed NPC (ID: 17498677/0x010B0235), string="cmof")
240: 0x08EE [0x5F] MULTI_HANDLER_COMPLEX(mode=0x02 - Kill entity action (OpCode 0xC1))
241: 0x08F4 [0x45] LOAD_SCHEDULED_TASK: Load scheduler "s143" with entities [EventEntity, EventEntity], work=[762*, 0*]
242: 0x0905 [0x5F] MULTI_HANDLER_COMPLEX(mode=0x03 - Load ext scheduler (OpCode 0x5B mode 0), ref=3865*, entity1=Iroha (ID: 17498672/0x010B0230), entity2=Iroha (ID: 17498672/0x010B0230), string="kak1")
243: 0x0915 [0xD0] LOAD_SCHEDULED_TASK_ALT5: Load scheduler "ie01" with entities [Iroha (ID: 17498672/0x010B0230), Iroha (ID: 17498672/0x010B0230)], work=[113*, 0*]
244: 0x0926 [0xD0] LOAD_SCHEDULED_TASK_ALT5: Load scheduler "ie03" with entities [Iroha (ID: 17498672/0x010B0230), Iroha (ID: 17498672/0x010B0230)], work=[121*, 0*]
245: 0x0937 [0x4A] LocalPlayer looks at Unnamed NPC (ID: 17498674/0x010B0232)
246: 0x0940 [0x1C] WAIT(60* ticks)
247: 0x0943 [0x52] END_LOAD_SCHEDULER: End scheduler "s143" with entities [EventEntity, EventEntity], work=762*
248: 0x0952 [0x45] LOAD_SCHEDULED_TASK: Load scheduler "s144" with entities [EventEntity, EventEntity], work=[762*, 0*]
249: 0x0963 [0xBA] SET_ENTITY_POSITION(entity_id=Unnamed NPC (ID: 17498677/0x010B0235), pos_x=113.139*, pos_z=-17.851*, pos_y=9.174*, direction=360.0°*)
250: 0x0970 [0x27] REQ_SET(priority=0x05, entity_id=??? (ID: 17498678/0x010B0236), tag_num=0x03)
251: 0x0977 [0x1C] WAIT(30* ticks)
252: 0x097A [0x52] END_LOAD_SCHEDULER: End scheduler "s144" with entities [EventEntity, EventEntity], work=762*
253: 0x0989 [0xAE] MULTI_PURPOSE_ENTITY_HANDLER(case_type=0x05 - Link ActorPointer, entity1=Unnamed NPC (ID: 17498677/0x010B0235), entity2=Unnamed NPC (ID: 17498674/0x010B0232))
254: 0x0993 [0x5F] MULTI_HANDLER_COMPLEX(mode=0x03 - Load ext scheduler (OpCode 0x5B mode 0), ref=3438*, entity1=Unnamed NPC (ID: 17498677/0x010B0235), entity2=Unnamed NPC (ID: 17498677/0x010B0235), string="tur0")
255: 0x09A3 [0x5F] MULTI_HANDLER_COMPLEX(mode=0x03 - Load ext scheduler (OpCode 0x5B mode 0), ref=3890*, entity1=Unnamed NPC (ID: 17498674/0x010B0232), entity2=Unnamed NPC (ID: 17498674/0x010B0232), string="tur0")
256: 0x09B3 [0xD0] LOAD_SCHEDULED_TASK_ALT5: Load scheduler "ke00" with entities [Unnamed NPC (ID: 17498674/0x010B0232), Unnamed NPC (ID: 17498674/0x010B0232)], work=[122*, 0*]
257: 0x09C4 [0x1C] WAIT(60* ticks)
258: 0x09C7 [0xAE] MULTI_PURPOSE_ENTITY_HANDLER(case_type=0x06 - Unset ActorPointer, entity=Unnamed NPC (ID: 17498674/0x010B0232))
259: 0x09CD [0x5F] MULTI_HANDLER_COMPLEX(mode=0x03 - Load ext scheduler (OpCode 0x5B mode 0), ref=3430*, entity1=Unnamed NPC (ID: 17498677/0x010B0235), entity2=Unnamed NPC (ID: 17498677/0x010B0235), string="cmof")
260: 0x09DD [0x5F] MULTI_HANDLER_COMPLEX(mode=0x02 - Kill entity action (OpCode 0xC1))
261: 0x09E3 [0x45] LOAD_SCHEDULED_TASK: Load scheduler "s145" with entities [EventEntity, EventEntity], work=[762*, 0*]
262: 0x09F4 [0x5F] MULTI_HANDLER_COMPLEX(mode=0x03 - Load ext scheduler (OpCode 0x5B mode 0), ref=3890*, entity1=Unnamed NPC (ID: 17498674/0x010B0232), entity2=Unnamed NPC (ID: 17498674/0x010B0232), string="tur1")
263: 0x0A04 [0x02] IF !(LocalPlayer->Race == 1*) GOTO 0x0A1E
264: 0x0A0C [0x66] LOAD_EXT_SCHEDULER_MAIN: Load scheduler "mab0" with entities [LocalPlayer, LocalPlayer], work=140*
265: 0x0A1B [0x01] GOTO 0x0AD4
266: 0x0A1E [0x02] IF !(LocalPlayer->Race == 2*) GOTO 0x0A38
267: 0x0A26 [0x66] LOAD_EXT_SCHEDULER_MAIN: Load scheduler "mab0" with entities [LocalPlayer, LocalPlayer], work=150*
268: 0x0A35 [0x01] GOTO 0x0AD4
269: 0x0A38 [0x02] IF !(LocalPlayer->Race == 3*) GOTO 0x0A52
270: 0x0A40 [0x66] LOAD_EXT_SCHEDULER_MAIN: Load scheduler "mab0" with entities [LocalPlayer, LocalPlayer], work=160*
271: 0x0A4F [0x01] GOTO 0x0AD4
272: 0x0A52 [0x02] IF !(LocalPlayer->Race == 4*) GOTO 0x0A6C
273: 0x0A5A [0x66] LOAD_EXT_SCHEDULER_MAIN: Load scheduler "mab0" with entities [LocalPlayer, LocalPlayer], work=170*
274: 0x0A69 [0x01] GOTO 0x0AD4
275: 0x0A6C [0x02] IF !(LocalPlayer->Race == 5*) GOTO 0x0A86
276: 0x0A74 [0x66] LOAD_EXT_SCHEDULER_MAIN: Load scheduler "mab0" with entities [LocalPlayer, LocalPlayer], work=180*
277: 0x0A83 [0x01] GOTO 0x0AD4
278: 0x0A86 [0x02] IF !(LocalPlayer->Race == 6*) GOTO 0x0AA0
279: 0x0A8E [0x66] LOAD_EXT_SCHEDULER_MAIN: Load scheduler "mab0" with entities [LocalPlayer, LocalPlayer], work=180*
280: 0x0A9D [0x01] GOTO 0x0AD4
281: 0x0AA0 [0x02] IF !(LocalPlayer->Race == 7*) GOTO 0x0ABA
282: 0x0AA8 [0x66] LOAD_EXT_SCHEDULER_MAIN: Load scheduler "mab0" with entities [LocalPlayer, LocalPlayer], work=190*
283: 0x0AB7 [0x01] GOTO 0x0AD4
284: 0x0ABA [0x02] IF !(LocalPlayer->Race == 8*) GOTO 0x0AD4
285: 0x0AC2 [0x66] LOAD_EXT_SCHEDULER_MAIN: Load scheduler "mab0" with entities [LocalPlayer, LocalPlayer], work=200*
286: 0x0AD1 [0x01] GOTO 0x0AD4

SUBROUTINE_0AD4:
287: 0x0AD4 [0x1C] WAIT(90* ticks)
288: 0x0AD7 [0x45] LOAD_SCHEDULED_TASK: Load scheduler "who1" with entities [LocalPlayer, LocalPlayer], work=[201*, 0*]
289: 0x0AE8 [0x55] WAIT_LOAD_SCHEDULER: Wait for scheduler "who1" with entities [LocalPlayer, LocalPlayer], work=201*
290: 0x0AF7 [0x52] END_LOAD_SCHEDULER: End scheduler "s145" with entities [EventEntity, EventEntity], work=762*
291: 0x0B06 [0x2C] CREATE_SCHEDULER_TASK: Create scheduler "w4of" with entities [Iroha (ID: 17498672/0x010B0230), Iroha (ID: 17498672/0x010B0230)]
292: 0x0B13 [0x6B] STOP_AND_IDLE: Unnamed NPC (ID: 17498674/0x010B0232) stops current action and resets to idle (animation="idl0")
293: 0x0B1C [0x27] REQ_SET(priority=0x05, entity_id=Unnamed NPC (ID: 17498676/0x010B0234), tag_num=0x03)
294: 0x0B23 [0x59] UPDATE_ENTITY_DATA: Zeid (ID: 17498675/0x010B0233)->Render.Flags0 &= ~0x200000
295: 0x0B2A [0xBA] SET_ENTITY_POSITION(entity_id=Siren (ID: 17498673/0x010B0231), pos_x=110.426*, pos_z=-15.875*, pos_y=9.111*, direction=0.0°*)
296: 0x0B37 [0xBA] SET_ENTITY_POSITION(entity_id=Zeid (ID: 17498675/0x010B0233), pos_x=120.521*, pos_z=-20.545*, pos_y=10.998*, direction=87.9°*)
297: 0x0B44 [0x1C] WAIT(30* ticks)
298: 0x0B47 [0x5F] MULTI_HANDLER_COMPLEX(mode=0x03 - Load ext scheduler (OpCode 0x5B mode 0), ref=3890*, entity1=Unnamed NPC (ID: 17498674/0x010B0232), entity2=Unnamed NPC (ID: 17498674/0x010B0232), string="fyu3")
299: 0x0B57 [0x5B] LOAD_EXT_SCHEDULER: Load scheduler "ff00" with entities [Iroha (ID: 17498672/0x010B0230), Iroha (ID: 17498672/0x010B0230)], work=3858*
300: 0x0B66 [0x5F] MULTI_HANDLER_COMPLEX(mode=0x03 - Load ext scheduler (OpCode 0x5B mode 0), ref=3865*, entity1=Iroha (ID: 17498672/0x010B0230), entity2=Iroha (ID: 17498672/0x010B0230), string="hiz0")
301: 0x0B76 [0xD0] LOAD_SCHEDULED_TASK_ALT5: Load scheduler "kie0" with entities [Iroha (ID: 17498672/0x010B0230), Iroha (ID: 17498672/0x010B0230)], work=[104*, 0*]
302: 0x0B87 [0xD0] LOAD_SCHEDULED_TASK_ALT5: Load scheduler "k000" with entities [Unnamed NPC (ID: 17498674/0x010B0232), Unnamed NPC (ID: 17498674/0x010B0232)], work=[119*, 0*]
303: 0x0B98 [0x1C] WAIT(30* ticks)
304: 0x0B9B [0x4E] SET_ENTITY_HIDE_FLAG: Hide Unnamed NPC (ID: 17498676/0x010B0234)
305: 0x0BA1 [0x45] LOAD_SCHEDULED_TASK: Load scheduler "s146" with entities [EventEntity, EventEntity], work=[762*, 0*]
306: 0x0BB2 [0x1C] WAIT(15* ticks)
307: 0x0BB5 [0x45] LOAD_SCHEDULED_TASK: Load scheduler "whi0" with entities [LocalPlayer, LocalPlayer], work=[201*, 0*]
308: 0x0BC6 [0x02] IF !(LocalPlayer->Race == 1*) GOTO 0x0BE0
309: 0x0BCE [0x66] LOAD_EXT_SCHEDULER_MAIN: Load scheduler "mab1" with entities [LocalPlayer, LocalPlayer], work=140*
310: 0x0BDD [0x01] GOTO 0x0C96
311: 0x0BE0 [0x02] IF !(LocalPlayer->Race == 2*) GOTO 0x0BFA
312: 0x0BE8 [0x66] LOAD_EXT_SCHEDULER_MAIN: Load scheduler "mab1" with entities [LocalPlayer, LocalPlayer], work=150*
313: 0x0BF7 [0x01] GOTO 0x0C96
314: 0x0BFA [0x02] IF !(LocalPlayer->Race == 3*) GOTO 0x0C14
315: 0x0C02 [0x66] LOAD_EXT_SCHEDULER_MAIN: Load scheduler "mab1" with entities [LocalPlayer, LocalPlayer], work=160*
316: 0x0C11 [0x01] GOTO 0x0C96
317: 0x0C14 [0x02] IF !(LocalPlayer->Race == 4*) GOTO 0x0C2E
318: 0x0C1C [0x66] LOAD_EXT_SCHEDULER_MAIN: Load scheduler "mab1" with entities [LocalPlayer, LocalPlayer], work=170*
319: 0x0C2B [0x01] GOTO 0x0C96
320: 0x0C2E [0x02] IF !(LocalPlayer->Race == 5*) GOTO 0x0C48
321: 0x0C36 [0x66] LOAD_EXT_SCHEDULER_MAIN: Load scheduler "mab1" with entities [LocalPlayer, LocalPlayer], work=180*
322: 0x0C45 [0x01] GOTO 0x0C96
323: 0x0C48 [0x02] IF !(LocalPlayer->Race == 6*) GOTO 0x0C62
324: 0x0C50 [0x66] LOAD_EXT_SCHEDULER_MAIN: Load scheduler "mab1" with entities [LocalPlayer, LocalPlayer], work=180*
325: 0x0C5F [0x01] GOTO 0x0C96
326: 0x0C62 [0x02] IF !(LocalPlayer->Race == 7*) GOTO 0x0C7C
327: 0x0C6A [0x66] LOAD_EXT_SCHEDULER_MAIN: Load scheduler "mab1" with entities [LocalPlayer, LocalPlayer], work=190*
328: 0x0C79 [0x01] GOTO 0x0C96
329: 0x0C7C [0x02] IF !(LocalPlayer->Race == 8*) GOTO 0x0C96
330: 0x0C84 [0x66] LOAD_EXT_SCHEDULER_MAIN: Load scheduler "mab1" with entities [LocalPlayer, LocalPlayer], work=200*
331: 0x0C93 [0x01] GOTO 0x0C96

SUBROUTINE_0C96:
332: 0x0C96 [0x1C] WAIT(120* ticks)
333: 0x0C99 [0x52] END_LOAD_SCHEDULER: End scheduler "s146" with entities [EventEntity, EventEntity], work=762*
334: 0x0CA8 [0x45] LOAD_SCHEDULED_TASK: Load scheduler "s147" with entities [EventEntity, EventEntity], work=[762*, 0*]
335: 0x0CB9 [0x1C] WAIT(120* ticks)
336: 0x0CBC [0x52] END_LOAD_SCHEDULER: End scheduler "s147" with entities [EventEntity, EventEntity], work=762*
337: 0x0CCB [0x45] LOAD_SCHEDULED_TASK: Load scheduler "s148" with entities [EventEntity, EventEntity], work=[762*, 0*]
338: 0x0CDC [0x1C] WAIT(80* ticks)
339: 0x0CDF [0x6B] STOP_AND_IDLE: LocalPlayer stops current action and resets to idle (animation="idl0")
340: 0x0CE8 [0x1C] WAIT(100* ticks)
341: 0x0CEB [0x52] END_LOAD_SCHEDULER: End scheduler "s148" with entities [EventEntity, EventEntity], work=762*
342: 0x0CFA [0x45] LOAD_SCHEDULED_TASK: Load scheduler "s149" with entities [EventEntity, EventEntity], work=[762*, 0*]
343: 0x0D0B [0x1C] WAIT(60* ticks)
344: 0x0D0E [0x4E] SET_ENTITY_HIDE_FLAG: Show Siren (ID: 17498673/0x010B0231)
345: 0x0D14 [0x1C] WAIT(30* ticks)
346: 0x0D17 [0x52] END_LOAD_SCHEDULER: End scheduler "s149" with entities [EventEntity, EventEntity], work=762*
347: 0x0D26 [0x45] LOAD_SCHEDULED_TASK: Load scheduler "s150" with entities [EventEntity, EventEntity], work=[762*, 0*]
348: 0x0D37 [0xBA] SET_ENTITY_POSITION(entity_id=Unnamed NPC (ID: 17498677/0x010B0235), pos_x=117.427*, pos_z=-18.117*, pos_y=10.999*, direction=183.2°*)
349: 0x0D44 [0x1C] WAIT(120* ticks)
350: 0x0D47 [0x52] END_LOAD_SCHEDULER: End scheduler "s150" with entities [EventEntity, EventEntity], work=762*
351: 0x0D56 [0x45] LOAD_SCHEDULED_TASK: Load scheduler "s157" with entities [EventEntity, EventEntity], work=[762*, 0*]
352: 0x0D67 [0x5F] MULTI_HANDLER_COMPLEX(mode=0x03 - Load ext scheduler (OpCode 0x5B mode 0), ref=3865*, entity1=Iroha (ID: 17498672/0x010B0230), entity2=Iroha (ID: 17498672/0x010B0230), string="hiz1")
353: 0x0D77 [0xD0] LOAD_SCHEDULED_TASK_ALT5: Load scheduler "kie1" with entities [Iroha (ID: 17498672/0x010B0230), Iroha (ID: 17498672/0x010B0230)], work=[104*, 0*]
354: 0x0D88 [0x1C] WAIT(90* ticks)
355: 0x0D8B [0x52] END_LOAD_SCHEDULER: End scheduler "s157" with entities [EventEntity, EventEntity], work=762*
356: 0x0D9A [0x45] LOAD_SCHEDULED_TASK: Load scheduler "s158" with entities [EventEntity, EventEntity], work=[762*, 0*]
357: 0x0DAB [0x1C] WAIT(300* ticks)
358: 0x0DAE [0x52] END_LOAD_SCHEDULER: End scheduler "s158" with entities [EventEntity, EventEntity], work=762*
359: 0x0DBD [0x45] LOAD_SCHEDULED_TASK: Load scheduler "s082" with entities [EventEntity, EventEntity], work=[762*, 0*]
360: 0x0DCE [0x5F] MULTI_HANDLER_COMPLEX(mode=0x03 - Load ext scheduler (OpCode 0x5B mode 0), ref=3888*, entity1=Unnamed NPC (ID: 17498674/0x010B0232), entity2=Unnamed NPC (ID: 17498674/0x010B0232), string="kyu0")
361: 0x0DDE [0xD0] LOAD_SCHEDULED_TASK_ALT5: Load scheduler "s000" with entities [Siren (ID: 17498673/0x010B0231), Unnamed NPC (ID: 17498674/0x010B0232)], work=[114*, 0*]
362: 0x0DEF [0x1C] WAIT(50* ticks)
363: 0x0DF2 [0x5F] MULTI_HANDLER_COMPLEX(mode=0x03 - Load ext scheduler (OpCode 0x5B mode 0), ref=3880*, entity1=Siren (ID: 17498673/0x010B0231), entity2=Siren (ID: 17498673/0x010B0231), string="ded0")
364: 0x0E02 [0x1C] WAIT(50* ticks)
365: 0x0E05 [0x52] END_LOAD_SCHEDULER: End scheduler "s082" with entities [EventEntity, EventEntity], work=762*
366: 0x0E14 [0x45] LOAD_SCHEDULED_TASK: Load scheduler "s151" with entities [EventEntity, EventEntity], work=[762*, 0*]
367: 0x0E25 [0x81] SET_ENTITY_BLINKING(blink_flag=0x00, entity=Zeid (ID: 17498675/0x010B0233))
368: 0x0E2B [0x7C] Zeid (ID: 17498675/0x010B0233)->Render.Flags2 |= 0x00
369: 0x0E31 [0xBA] SET_ENTITY_POSITION(entity_id=Zeid (ID: 17498675/0x010B0233), pos_x=120.521*, pos_z=-20.545*, pos_y=10.998*, direction=183.2°*)
370: 0x0E3E [0x5B] LOAD_EXT_SCHEDULER: Load scheduler "f002" with entities [Zeid (ID: 17498675/0x010B0233), Zeid (ID: 17498675/0x010B0233)], work=247*
371: 0x0E4D [0x1C] WAIT(420* ticks)
372: 0x0E50 [0x52] END_LOAD_SCHEDULER: End scheduler "s151" with entities [EventEntity, EventEntity], work=762*
373: 0x0E5F [0x45] LOAD_SCHEDULED_TASK: Load scheduler "s152" with entities [EventEntity, EventEntity], work=[762*, 0*]
374: 0x0E70 [0x2B] Zeid (ID: 17498675/0x010B0233) [10801*]:
    → "I-impossible!"
375: 0x0E77 [0x23] WAIT_FOR_DIALOG_INTERACTION
376: 0x0E78 [0xBA] SET_ENTITY_POSITION(entity_id=Unnamed NPC (ID: 17498674/0x010B0232), pos_x=107.172*, pos_z=-19.414*, pos_y=9.174*, direction=360.0°*)
377: 0x0E85 [0x1C] WAIT(30* ticks)
378: 0x0E88 [0x52] END_LOAD_SCHEDULER: End scheduler "s152" with entities [EventEntity, EventEntity], work=762*
379: 0x0E97 [0x5F] MULTI_HANDLER_COMPLEX(mode=0x03 - Load ext scheduler (OpCode 0x5B mode 0), ref=3438*, entity1=Unnamed NPC (ID: 17498677/0x010B0235), entity2=Unnamed NPC (ID: 17498677/0x010B0235), string="tou0")
380: 0x0EA7 [0x5F] MULTI_HANDLER_COMPLEX(mode=0x03 - Load ext scheduler (OpCode 0x5B mode 0), ref=3889*, entity1=Unnamed NPC (ID: 17498674/0x010B0232), entity2=Unnamed NPC (ID: 17498674/0x010B0232), string="tou0")
381: 0x0EB7 [0xD0] LOAD_SCHEDULED_TASK_ALT5: Load scheduler "k001" with entities [Unnamed NPC (ID: 17498674/0x010B0232), Unnamed NPC (ID: 17498674/0x010B0232)], work=[119*, 0*]
382: 0x0EC8 [0x1C] WAIT(180* ticks)
383: 0x0ECB [0x5F] MULTI_HANDLER_COMPLEX(mode=0x03 - Load ext scheduler (OpCode 0x5B mode 0), ref=3438*, entity1=Unnamed NPC (ID: 17498677/0x010B0235), entity2=Unnamed NPC (ID: 17498677/0x010B0235), string="tou1")
384: 0x0EDB [0x1C] WAIT(60* ticks)
385: 0x0EDE [0x5F] MULTI_HANDLER_COMPLEX(mode=0x03 - Load ext scheduler (OpCode 0x5B mode 0), ref=3438*, entity1=Unnamed NPC (ID: 17498677/0x010B0235), entity2=Unnamed NPC (ID: 17498677/0x010B0235), string="tou2")
386: 0x0EEE [0x1C] WAIT(100* ticks)
387: 0x0EF1 [0x6B] STOP_AND_IDLE: Zeid (ID: 17498675/0x010B0233) stops current action and resets to idle (animation="idl0")
388: 0x0EFA [0x4A] Zeid (ID: 17498675/0x010B0233) looks at LocalPlayer
389: 0x0F03 [0x4B] UPDATE_ENTITY_YAW(entity=LocalPlayer, yaw=0.0°*)
390: 0x0F0A [0x1C] WAIT(60* ticks)
391: 0x0F0D [0x5F] MULTI_HANDLER_COMPLEX(mode=0x03 - Load ext scheduler (OpCode 0x5B mode 0), ref=3430*, entity1=Unnamed NPC (ID: 17498677/0x010B0235), entity2=Unnamed NPC (ID: 17498677/0x010B0235), string="cmof")
392: 0x0F1D [0x5F] MULTI_HANDLER_COMPLEX(mode=0x02 - Kill entity action (OpCode 0xC1))
393: 0x0F23 [0x45] LOAD_SCHEDULED_TASK: Load scheduler "s153" with entities [EventEntity, EventEntity], work=[762*, 0*]
394: 0x0F34 [0x79] LocalPlayer looks at Zeid (ID: 17498675/0x010B0233) (Basic look)
395: 0x0F3E [0x2B] Zeid (ID: 17498675/0x010B0233) [10802*]:
    → "We cannot let it escape!"
396: 0x0F45 [0x23] WAIT_FOR_DIALOG_INTERACTION
397: 0x0F46 [0x55] WAIT_LOAD_SCHEDULER: Wait for scheduler "s153" with entities [EventEntity, EventEntity], work=762*
398: 0x0F55 [0x27] REQ_SET(priority=0x05, entity_id=Zeid (ID: 17498675/0x010B0233), tag_num=0x03)
399: 0x0F5C [0x1C] WAIT(30* ticks)
400: 0x0F5F [0x45] LOAD_SCHEDULED_TASK: Load scheduler "s160" with entities [EventEntity, EventEntity], work=[762*, 0*]
401: 0x0F70 [0x1C] WAIT(90* ticks)
402: 0x0F73 [0x5D] SET_MUSIC_VOLUME(volume=0*, fade_time=180*)
403: 0x0F78 [0x45] LOAD_SCHEDULED_TASK: Load scheduler "fdo1" with entities [EventEntity, EventEntity], work=[200*, 0*]
404: 0x0F89 [0x55] WAIT_LOAD_SCHEDULER: Wait for scheduler "fdo1" with entities [EventEntity, EventEntity], work=200*
405: 0x0F98 [0x52] END_LOAD_SCHEDULER: End scheduler "s160" with entities [EventEntity, EventEntity], work=762*
406: 0x0FA7 [0x5C] MUSIC_CONTROL: Set Idle (Day) music to song 0*
407: 0x0FAB [0x5C] MUSIC_CONTROL: Set Idle (Night) music to song 0*
408: 0x0FAF [0x9A] WAIT_MUSIC_SERVER()
409: 0x0FB0 [0x46] CAMERA_CONTROL: Restore default settings
410: 0x0FB2 [0x45] LOAD_SCHEDULED_TASK: Load scheduler "fdi2" with entities [EventEntity, EventEntity], work=[200*, 0*]
411: 0x0FC3 [0x21] END_EVENT
412: 0x0FC4 [0x00] END_REQSTACK()
```
