# 17498629 - Ren

## Common Data

| Field            | Value                        |
|------------------|------------------------------|
| Zone             | Sea Serpent Grotto (ID: 176) |
| Block Size       | 172 bytes                    |
| Total Events     | 4                            |
| References Count | 13                           |

## List of Events

| Event ID                 | Entrypoint   |   Size |   Instructions |
|--------------------------|--------------|--------|----------------|
| [65535](#event-65535)    | 0x0000       |      1 |              1 |
| [1](#event-1)            | 0x0001       |     33 |              6 |
| [65535.1](#event-655351) | 0x0022       |     32 |              7 |
| [65535.2](#event-655352) | 0x0042       |     20 |              6 |

## DAT References (imed_data)

|   Index | Hex Value   |   Dec Value |
|---------|-------------|-------------|
|       0 | 0x0000      |           0 |
|       1 | 0x0001      |           1 |
|       2 | 0x4A160     |      303456 |
|       3 | 0x3637D     |      222077 |
|       4 | 0x6F0F      |       28431 |
|       5 | 0x05D1      |        1489 |
|       6 | 0x000D      |          13 |
|       7 | 0x48BA9     |      297897 |
|       8 | 0x34B53     |      215891 |
|       9 | 0x6E7F      |       28287 |
|      10 | 0x49A31     |      301617 |
|      11 | 0x35B9E     |      220062 |
|      12 | 0x6F27      |       28455 |

## Events

### Event 65535

#### Metadata

| Field        | Value   |
|--------------|---------|
| Entrypoint   | 0x0000  |
| Data Size    | 1 bytes |
| Instructions | 1       |

```
      00 01 02 03 04 05 06 07  08 09 0A 0B 0C 0D 0E 0F
      -- -- -- -- -- -- -- --  -- -- -- -- -- -- -- --
0000: 00                                                .               
```

#### Opcodes

```
  0: 0x0000 [0x00] END_REQSTACK()
```

### Event 1

#### Metadata

| Field        | Value    |
|--------------|----------|
| Entrypoint   | 0x0001   |
| Data Size    | 33 bytes |
| Instructions | 6        |

```
      00 01 02 03 04 05 06 07  08 09 0A 0B 0C 0D 0E 0F
      -- -- -- -- -- -- -- --  -- -- -- -- -- -- -- --
0000:    92 01 05 02 0B 01 22  00 2F 00 F8 FF FF 7F 6C   ......"./.....l
0010: F8 FF FF 7F 00 80 01 80  37 02 80 03 80 04 80 05  ........7.......
0020: 80 00                                             ..              
```

#### Opcodes

```
  0: 0x0001 [0x92] Ren (ID: 17498629/0x010B0205)->Render.Flags3 ^= 0x01
  1: 0x0007 [0x22] ENTITY_HIDE_FLAG(enabled=0x00)
  2: 0x0009 [0x2F] EventEntity->Render.Flags0 &= ~0x80000 // Bit 19
  3: 0x000F [0x6C] FADE_ENTITY_COLOR(entity_id=EventEntity, end_alpha=0*, fade_time=1*)
  4: 0x0018 [0x37] UPDATE_EVENT_POSITION_AND_DIR: x=303.456*, z=222.077*, y=28.431*, direction=130.9°*
  5: 0x0021 [0x00] END_REQSTACK()
```

### Event 65535.1

#### Metadata

| Field        | Value    |
|--------------|----------|
| Entrypoint   | 0x0022   |
| Data Size    | 32 bytes |
| Instructions | 7        |

```
      00 01 02 03 04 05 06 07  08 09 0A 0B 0C 0D 0E 0F
      -- -- -- -- -- -- -- --  -- -- -- -- -- -- -- --
0020:       27 10 06 02 0B 01  02 79 00 F8 FF FF 7F F0    '......y......
0030: FF FF 7F 32 06 80 1F 00  07 80 08 80 09 80 1F 01  ...2............
0040: 6F 00                                             o.              
```

#### Opcodes

```
  0: 0x0022 [0x27] REQ_SET(priority=0x10, entity_id=Unnamed NPC (ID: 17498630/0x010B0206), tag_num=0x02)
  1: 0x0029 [0x79] EventEntity looks at LocalPlayer (Basic look)
  2: 0x0033 [0x32] ExtData[1]->MainSpeed = 13* * 0.1
  3: 0x0036 [0x1F] MOVE_ENTITY: EventEntity moves to X=297.897*, Z=215.891*, Y=28.287*
  4: 0x003E [0x1F] MOVE_ENTITY: Update entity position (mode=1)
  5: 0x0040 [0x6F] WAIT_FRAME_DELAY: Yield until WaitTime reaches zero
  6: 0x0041 [0x00] END_REQSTACK()
```

### Event 65535.2

#### Metadata

| Field        | Value    |
|--------------|----------|
| Entrypoint   | 0x0042   |
| Data Size    | 20 bytes |
| Instructions | 6        |

```
      00 01 02 03 04 05 06 07  08 09 0A 0B 0C 0D 0E 0F
      -- -- -- -- -- -- -- --  -- -- -- -- -- -- -- --
0040:       7B F8 FF FF 7F 32  06 80 1F 00 0A 80 0B 80    {....2........
0050: 0C 80 1F 01 6F 00                                 ....o.          
```

#### Opcodes

```
  0: 0x0042 [0x7B] EventEntity stops talking
  1: 0x0047 [0x32] ExtData[1]->MainSpeed = 13* * 0.1
  2: 0x004A [0x1F] MOVE_ENTITY: EventEntity moves to X=301.617*, Z=220.062*, Y=28.455*
  3: 0x0052 [0x1F] MOVE_ENTITY: Update entity position (mode=1)
  4: 0x0054 [0x6F] WAIT_FRAME_DELAY: Yield until WaitTime reaches zero
  5: 0x0055 [0x00] END_REQSTACK()
```
