# 17498678

## Common Data

| Field            | Value                        |
|------------------|------------------------------|
| Zone             | Sea Serpent Grotto (ID: 176) |
| Block Size       | 112 bytes                    |
| Total Events     | 4                            |
| References Count | 3                            |

## List of Events

| Event ID                 | Entrypoint   |   Size |   Instructions |
|--------------------------|--------------|--------|----------------|
| [65535](#event-65535)    | 0x0000       |      1 |              1 |
| [34](#event-34)          | 0x0001       |      1 |              1 |
| [65535.1](#event-655351) | 0x0002       |     33 |              3 |
| [65535.2](#event-655352) | 0x0023       |     33 |              3 |

## DAT References (imed_data)

|   Index | Hex Value   |   Dec Value |
|---------|-------------|-------------|
|       0 | 0x0D6E      |        3438 |
|       1 | 0x0F19      |        3865 |
|       2 | 0x0F32      |        3890 |

## Events

### Event 65535

#### Metadata

| Field        | Value   |
|--------------|---------|
| Entrypoint   | 0x0000  |
| Data Size    | 1 bytes |
| Instructions | 1       |

```
      00 01 02 03 04 05 06 07  08 09 0A 0B 0C 0D 0E 0F
      -- -- -- -- -- -- -- --  -- -- -- -- -- -- -- --
0000: 00                                                .               
```

#### Opcodes

```
  0: 0x0000 [0x00] END_REQSTACK()
```

### Event 34

#### Metadata

| Field        | Value   |
|--------------|---------|
| Entrypoint   | 0x0001  |
| Data Size    | 1 bytes |
| Instructions | 1       |

```
      00 01 02 03 04 05 06 07  08 09 0A 0B 0C 0D 0E 0F
      -- -- -- -- -- -- -- --  -- -- -- -- -- -- -- --
0000:    00                                              .              
```

#### Opcodes

```
  0: 0x0001 [0x00] END_REQSTACK()
```

### Event 65535.1

#### Metadata

| Field        | Value    |
|--------------|----------|
| Entrypoint   | 0x0002   |
| Data Size    | 33 bytes |
| Instructions | 3        |

```
      00 01 02 03 04 05 06 07  08 09 0A 0B 0C 0D 0E 0F
      -- -- -- -- -- -- -- --  -- -- -- -- -- -- -- --
0000:       5F 03 00 80 35 02  0B 01 35 02 0B 01 78 78    _...5...5...xx
0010: 78 78 5F 03 01 80 30 02  0B 01 30 02 0B 01 78 78  xx_...0...0...xx
0020: 78 78 00                                          xx.             
```

#### Opcodes

```
  0: 0x0002 [0x5F] MULTI_HANDLER_COMPLEX(mode=0x03 - Load ext scheduler (OpCode 0x5B mode 0), ref=3438*, entity1=Unnamed NPC (ID: 17498677/0x010B0235), entity2=Unnamed NPC (ID: 17498677/0x010B0235), string="xxxx")
  1: 0x0012 [0x5F] MULTI_HANDLER_COMPLEX(mode=0x03 - Load ext scheduler (OpCode 0x5B mode 0), ref=3865*, entity1=Iroha (ID: 17498672/0x010B0230), entity2=Iroha (ID: 17498672/0x010B0230), string="xxxx")
  2: 0x0022 [0x00] END_REQSTACK()
```

### Event 65535.2

#### Metadata

| Field        | Value    |
|--------------|----------|
| Entrypoint   | 0x0023   |
| Data Size    | 33 bytes |
| Instructions | 3        |

```
      00 01 02 03 04 05 06 07  08 09 0A 0B 0C 0D 0E 0F
      -- -- -- -- -- -- -- --  -- -- -- -- -- -- -- --
0020:          5F 03 00 80 35  02 0B 01 35 02 0B 01 78     _...5...5...x
0030: 78 78 78 5F 03 02 80 32  02 0B 01 32 02 0B 01 78  xxx_...2...2...x
0040: 78 78 78 00                                       xxx.            
```

#### Opcodes

```
  0: 0x0023 [0x5F] MULTI_HANDLER_COMPLEX(mode=0x03 - Load ext scheduler (OpCode 0x5B mode 0), ref=3438*, entity1=Unnamed NPC (ID: 17498677/0x010B0235), entity2=Unnamed NPC (ID: 17498677/0x010B0235), string="xxxx")
  1: 0x0033 [0x5F] MULTI_HANDLER_COMPLEX(mode=0x03 - Load ext scheduler (OpCode 0x5B mode 0), ref=3890*, entity1=Unnamed NPC (ID: 17498674/0x010B0232), entity2=Unnamed NPC (ID: 17498674/0x010B0232), string="xxxx")
  2: 0x0043 [0x00] END_REQSTACK()
```
