# 17498658

## Common Data

| Field            | Value                        |
|------------------|------------------------------|
| Zone             | Sea Serpent Grotto (ID: 176) |
| Block Size       | 2208 bytes                   |
| Total Events     | 3                            |
| References Count | 65                           |

## List of Events

| Event ID              | Entrypoint   |   Size |   Instructions |
|-----------------------|--------------|--------|----------------|
| [65535](#event-65535) | 0x0000       |      1 |              1 |
| [19](#event-19)       | 0x0001       |    488 |             87 |
| [20](#event-20)       | 0x01E9       |   1430 |            218 |

## DAT References (imed_data)

|   Index | Hex Value   |   Dec Value |
|---------|-------------|-------------|
|       0 | 0x1DA9      |        7593 |
|       1 | 0x0001      |           1 |
|       2 | 0x0000      |           0 |
|       3 | 0x00EA      |         234 |
|       4 | 0x0013      |          19 |
|       5 | 0xFFFD4D6C  |  4294790508 |
|       6 | 0x4211D     |      270621 |
|       7 | 0x6383      |       25475 |
|       8 | 0x0FA0      |        4000 |
|       9 | 0xFFFD48B0  |  4294789296 |
|      10 | 0x42A68     |      273000 |
|      11 | 0x03E8      |        1000 |
|      12 | 0x000F      |          15 |
|      13 | 0x001E      |          30 |
|      14 | 0x0004      |           4 |
|      15 | 0x0002      |           2 |
|      16 | 0x00C8      |         200 |
|      17 | 0x1DAA      |        7594 |
|      18 | 0x01D2      |         466 |
|      19 | 0x0003      |           3 |
|      20 | 0x1DAB      |        7595 |
|      21 | 0x1DAC      |        7596 |
|      22 | 0x1DAD      |        7597 |
|      23 | 0x1B012     |      110610 |
|      24 | 0xFFFE1072  |  4294840434 |
|      25 | 0x0320      |         800 |
|      26 | 0x04FA      |        1274 |
|      27 | 0x1AE25     |      110117 |
|      28 | 0xFFFE4F4C  |  4294856524 |
|      29 | 0x01F3      |         499 |
|      30 | 0x0B3F      |        2879 |
|      31 | 0x1ABD7     |      109527 |
|      32 | 0xFFFE442F  |  4294853679 |
|      33 | 0x01DA      |         474 |
|      34 | 0x0E42      |        3650 |
|      35 | 0x000C      |          12 |
|      36 | 0x1DAE      |        7598 |
|      37 | 0x01D3      |         467 |
|      38 | 0x003C      |          60 |
|      39 | 0x0064      |         100 |
|      40 | 0x0014      |          20 |
|      41 | 0x005A      |          90 |
|      42 | 0x00B4      |         180 |
|      43 | 0x1DBA      |        7610 |
|      44 | 0x0032      |          50 |
|      45 | 0x1DAF      |        7599 |
|      46 | 0x1DB0      |        7600 |
|      47 | 0x0005      |           5 |
|      48 | 0x1DB1      |        7601 |
|      49 | 0x1DB2      |        7602 |
|      50 | 0x0006      |           6 |
|      51 | 0x1DB3      |        7603 |
|      52 | 0x1DB4      |        7604 |
|      53 | 0x1DB5      |        7605 |
|      54 | 0x0007      |           7 |
|      55 | 0x0008      |           8 |
|      56 | 0x0009      |           9 |
|      57 | 0x1DB6      |        7606 |
|      58 | 0x1DB7      |        7607 |
|      59 | 0x000A      |          10 |
|      60 | 0x1DB8      |        7608 |
|      61 | 0x1DB9      |        7609 |
|      62 | 0x000B      |          11 |
|      63 | 0x00C9      |         201 |
|      64 | 0x00D7      |         215 |

## String References

- **7593**: Hold out your hand? [Yes./No.]
- **7594**: Yeah? Whaddaya want, kupo?
- **7598**: Yeah, I'm Riko all right. What's it to ya, kid?
- **7610**: @@

## Events

### Event 65535

#### Metadata

| Field        | Value   |
|--------------|---------|
| Entrypoint   | 0x0000  |
| Data Size    | 1 bytes |
| Instructions | 1       |

```
      00 01 02 03 04 05 06 07  08 09 0A 0B 0C 0D 0E 0F
      -- -- -- -- -- -- -- --  -- -- -- -- -- -- -- --
0000: 00                                                .               
```

#### Opcodes

```
  0: 0x0000 [0x00] END_REQSTACK()
```

### Event 19

#### Metadata

| Field        | Value     |
|--------------|-----------|
| Entrypoint   | 0x0001    |
| Data Size    | 488 bytes |
| Instructions | 76        |

```
      00 01 02 03 04 05 06 07  08 09 0A 0B 0C 0D 0E 0F
      -- -- -- -- -- -- -- --  -- -- -- -- -- -- -- --
0000:    42 24 00 80 01 80 02  80 25 02 00 10 02 80 00   B$......%......
0010: 32 00 43 00 43 01 03 01  10 01 80 45 03 80 F0 FF  2.C.C......E....
0020: FF 7F F0 FF FF 7F 6B 75  70 6F 02 80 01 47 00 01  ......kupo...G..
0030: 47 00 02 00 10 01 80 00  47 00 03 01 10 02 80 1A  G.......G.......
0040: 98 06 21 00 01 47 00 42  1A B9 06 46 01 38 04 80  ..!..G.B...F.8..
0050: 27 10 F0 FF FF 7F 08 27  10 26 02 0B 01 03 BA F0  '......'.&......
0060: FF FF 7F 05 80 06 80 07  80 08 80 BA 26 02 0B 01  ............&...
0070: 09 80 0A 80 07 80 0B 80  80 F0 FF FF 7F 80 26 02  ..............&.
0080: 0B 01 1C 0C 80 4A F0 FF  FF 7F 26 02 0B 01 4A 26  .....J....&...J&
0090: 02 0B 01 F0 FF FF 7F 6F  76 F0 FF FF 7F 6F 76 26  .......ov....ov&
00A0: 02 0B 01 1C 0D 80 03 00  00 01 80 02 00 00 0E 80  ................
00B0: 05 D4 00 02 02 80 00 00  04 CC 00 02 00 00 0F 80  ................
00C0: 80 CC 00 1A 98 06 1A 98  06 01 CC 00 07 00 00 01  ................
00D0: 80 01 AB 00 03 00 00 01  80 02 00 00 0E 80 05 F4  ................
00E0: 00 02 02 80 00 00 05 EC  00 1A 1C 01 07 00 00 01  ................
00F0: 80 01 D9 00 1A B9 06 1C  0D 80 46 00 45 10 80 F0  ..........F.E...
0100: FF FF 7F F0 FF FF 7F 66  64 69 32 02 80 21 00 02  .......fdi2..!..
0110: 02 80 01 80 00 1B 01 48  11 80 23 1B 02 00 00 01  .......H..#.....
0120: 80 80 27 01 01 E8 01 02  00 00 0F 80 80 64 01 45  ..'..........d.E
0130: 12 80 F0 FF FF 7F F0 FF  FF 7F 67 30 30 32 02 80  ..........g002..
0140: 1A 98 06 27 10 26 02 0B  01 04 2B 26 02 0B 01 11  ...'.&....+&....
0150: 80 23 52 12 80 F0 FF FF  7F F0 FF FF 7F 67 30 30  .#R..........g00
0160: 32 01 E8 01 02 00 00 13  80 80 A6 01 7B 26 02 0B  2...........{&..
0170: 01 45 12 80 F0 FF FF 7F  F0 FF FF 7F 67 30 30 33  .E..........g003
0180: 02 80 2B 26 02 0B 01 14  80 23 52 12 80 F0 FF FF  ..+&.....#R.....
0190: 7F F0 FF FF 7F 67 30 30  33 79 00 26 02 0B 01 F0  .....g003y.&....
01A0: FF FF 7F 01 E8 01 02 00  00 0E 80 80 E8 01 45 12  ..............E.
01B0: 80 F0 FF FF 7F F0 FF FF  7F 67 30 30 34 02 80 2B  .........g004..+
01C0: 26 02 0B 01 15 80 23 2B  26 02 0B 01 16 80 23 27  &.....#+&.....#'
01D0: 10 26 02 0B 01 05 52 12  80 F0 FF FF 7F F0 FF FF  .&....R.........
01E0: 7F 67 30 30 34 01 E8 01  1B                       .g004....       
```

#### Opcodes

```
  0: 0x0001 [0x42] SET_CLI_EVENT_CANCEL_DATA()
  1: 0x0002 [0x24] CREATE_DIALOG(message_id=7593*, default_option=1*, option_flags=0*)
    → "Hold out your hand? [Yes./No.]"
  2: 0x0009 [0x25] WAIT_DIALOG_SELECT()
  3: 0x000A [0x02] IF !(Work_Zone[0] == 0*) GOTO 0x0032
  4: 0x0012 [0x43] SEND_EVENT_UPDATE: Send pending tag to server (packet 0x005B)
  5: 0x0014 [0x43] SEND_EVENT_UPDATE: Check pending flag (skip if not pending)
  6: 0x0016 [0x03] Work_Zone[1] = 1*
  7: 0x001B [0x45] LOAD_SCHEDULED_TASK: Load scheduler "kupo" with entities [LocalPlayer, LocalPlayer], work=[234*, 0*]
  8: 0x002C [0x01] GOTO 0x0047

SUBROUTINE_0047:
  9: 0x0047 [0x42] SET_CLI_EVENT_CANCEL_DATA()
 10: 0x0048 [0x1A] CALL_SUBROUTINE(address=0x06B9)
 11: 0x004B [0x46] CAMERA_CONTROL: Disable user control
 12: 0x004D [0x38] SET_CLIENT_EVENT_MODE(mode=19*)
 13: 0x0050 [0x27] REQ_SET(priority=0x10, entity_id=LocalPlayer, tag_num=0x08)
 14: 0x0057 [0x27] REQ_SET(priority=0x10, entity_id=Henchman Moogle (ID: 17498662/0x010B0226), tag_num=0x03)
 15: 0x005E [0xBA] SET_ENTITY_POSITION(entity_id=LocalPlayer, pos_x=-176.788*, pos_z=270.621*, pos_y=25.475*, direction=351.6°*)
 16: 0x006B [0xBA] SET_ENTITY_POSITION(entity_id=Henchman Moogle (ID: 17498662/0x010B0226), pos_x=-178.000*, pos_z=273.000*, pos_y=25.475*, direction=87.9°*)
 17: 0x0078 [0x80] LOAD_WAIT(entity=LocalPlayer)
 18: 0x007D [0x80] LOAD_WAIT(entity=Henchman Moogle (ID: 17498662/0x010B0226))
 19: 0x0082 [0x1C] WAIT(15* ticks)
 20: 0x0085 [0x4A] LocalPlayer looks at Henchman Moogle (ID: 17498662/0x010B0226)
 21: 0x008E [0x4A] Henchman Moogle (ID: 17498662/0x010B0226) looks at LocalPlayer
 22: 0x0097 [0x6F] WAIT_FRAME_DELAY: Yield until WaitTime reaches zero
 23: 0x0098 [0x76] CHECK_ENTITY_RENDER_FLAGS: Wait until LocalPlayer Render.Flags0 and Render.Flags3 conditions are met
 24: 0x009D [0x6F] WAIT_FRAME_DELAY: Yield until WaitTime reaches zero
 25: 0x009E [0x76] CHECK_ENTITY_RENDER_FLAGS: Wait until Henchman Moogle (ID: 17498662/0x010B0226) Render.Flags0 and Render.Flags3 conditions are met
 26: 0x00A3 [0x1C] WAIT(30* ticks)
 27: 0x00A6 [0x03] ExtData[1]->WorkLocal[0] = 1*

SUBROUTINE_00AB:
 28: 0x00AB [0x02] IF !(ExtData[1]->WorkLocal[0] > 4*) GOTO 0x00D4
 29: 0x00B3 [0x02] IF !(0* < ExtData[1]->WorkLocal[0]) GOTO 0x00CC
 30: 0x00BB [0x02] IF !(ExtData[1]->WorkLocal[0] == 2*) GOTO 0x00CC
 31: 0x00C3 [0x1A] CALL_SUBROUTINE(address=0x0698)
 32: 0x00C6 [0x1A] CALL_SUBROUTINE(address=0x0698)
 33: 0x00C9 [0x01] GOTO 0x00CC

SUBROUTINE_00CC:
 34: 0x00CC [0x07] ExtData[1]->WorkLocal[0] += 1*
 35: 0x00D1 [0x01] GOTO 0x00AB
 36: 0x00D4 [0x03] ExtData[1]->WorkLocal[0] = 1*

SUBROUTINE_00D9:
 37: 0x00D9 [0x02] IF !(ExtData[1]->WorkLocal[0] > 4*) GOTO 0x00F4
 38: 0x00E1 [0x02] IF !(0* > ExtData[1]->WorkLocal[0]) GOTO 0x00EC
 39: 0x00E9 [0x1A] CALL_SUBROUTINE(address=0x011C)
 40: 0x00EC [0x07] ExtData[1]->WorkLocal[0] += 1*
 41: 0x00F1 [0x01] GOTO 0x00D9
 42: 0x00F4 [0x1A] CALL_SUBROUTINE(address=0x06B9)
 43: 0x00F7 [0x1C] WAIT(30* ticks)
 44: 0x00FA [0x46] CAMERA_CONTROL: Restore default settings
 45: 0x00FC [0x45] LOAD_SCHEDULED_TASK: Load scheduler "fdi2" with entities [LocalPlayer, LocalPlayer], work=[200*, 0*]
 46: 0x010D [0x21] END_EVENT
 47: 0x010E [0x00] END_REQSTACK()

SUBROUTINE_011C:
 48: 0x011C [0x02] IF !(ExtData[1]->WorkLocal[0] == 1*) GOTO 0x0127
 49: 0x0124 [0x01] GOTO 0x01E8
 50: 0x0127 [0x02] IF !(ExtData[1]->WorkLocal[0] == 2*) GOTO 0x0164
 51: 0x012F [0x45] LOAD_SCHEDULED_TASK: Load scheduler "g002" with entities [LocalPlayer, LocalPlayer], work=[466*, 0*]
 52: 0x0140 [0x1A] CALL_SUBROUTINE(address=0x0698)
 53: 0x0143 [0x27] REQ_SET(priority=0x10, entity_id=Henchman Moogle (ID: 17498662/0x010B0226), tag_num=0x04)
 54: 0x014A [0x2B] Henchman Moogle (ID: 17498662/0x010B0226) [7594*]:
    → "Yeah? Whaddaya want, kupo?"
 55: 0x0151 [0x23] WAIT_FOR_DIALOG_INTERACTION
 56: 0x0152 [0x52] END_LOAD_SCHEDULER: End scheduler "g002" with entities [LocalPlayer, LocalPlayer], work=466*
 57: 0x0161 [0x01] GOTO 0x01E8
 58: 0x0164 [0x02] IF !(ExtData[1]->WorkLocal[0] == 3*) GOTO 0x01A6
 59: 0x016C [0x7B] Henchman Moogle (ID: 17498662/0x010B0226) stops talking
 60: 0x0171 [0x45] LOAD_SCHEDULED_TASK: Load scheduler "g003" with entities [LocalPlayer, LocalPlayer], work=[466*, 0*]
 61: 0x0182 [0x2B] Henchman Moogle (ID: 17498662/0x010B0226) [7595*]:
    → "Yer lookin' for the boss, y'say? Looks like it ain't your lucky day. He just left."
 62: 0x0189 [0x23] WAIT_FOR_DIALOG_INTERACTION
 63: 0x018A [0x52] END_LOAD_SCHEDULER: End scheduler "g003" with entities [LocalPlayer, LocalPlayer], work=466*
 64: 0x0199 [0x79] Henchman Moogle (ID: 17498662/0x010B0226) looks at LocalPlayer (Basic look)
 65: 0x01A3 [0x01] GOTO 0x01E8
 66: 0x01A6 [0x02] IF !(ExtData[1]->WorkLocal[0] == 4*) GOTO 0x01E8
 67: 0x01AE [0x45] LOAD_SCHEDULED_TASK: Load scheduler "g004" with entities [LocalPlayer, LocalPlayer], work=[466*, 0*]
 68: 0x01BF [0x2B] Henchman Moogle (ID: 17498662/0x010B0226) [7596*]:
    → "Where'd he go, y'say? Hah! As if I'd tell a punk like you, kupo!"
 69: 0x01C6 [0x23] WAIT_FOR_DIALOG_INTERACTION
 70: 0x01C7 [0x2B] Henchman Moogle (ID: 17498662/0x010B0226) [7597*]:
    → "I mean, if the boss caught me blabbin' to everyone 'n their uncle about his favorite huntin' spot past the Sahagins' ornamented door, I'd be cruisin' for a serious bruisin'. So scram!"
 71: 0x01CE [0x23] WAIT_FOR_DIALOG_INTERACTION
 72: 0x01CF [0x27] REQ_SET(priority=0x10, entity_id=Henchman Moogle (ID: 17498662/0x010B0226), tag_num=0x05)
 73: 0x01D6 [0x52] END_LOAD_SCHEDULER: End scheduler "g004" with entities [LocalPlayer, LocalPlayer], work=466*
 74: 0x01E5 [0x01] GOTO 0x01E8

SUBROUTINE_01E8:
 75: 0x01E8 [0x1B] RETURN
```

#### Data or dead code:

```
# Dead code (unreachable instructions):
     0x002F [0x01] GOTO 0x0047
     0x0044 [0x01] GOTO 0x0047
# Dead code (unreachable instructions):
     0x010F [0x02] IF !(0* == 1*) GOTO 0x011B
     0x0117 [0x48] [System] [7594*]:
    → "Yeah? Whaddaya want, kupo?"
     0x011A [0x23] WAIT_FOR_DIALOG_INTERACTION
     0x011B [0x1B] RETURN
```

### Event 20

#### Metadata

| Field        | Value      |
|--------------|------------|
| Entrypoint   | 0x01E9     |
| Data Size    | 1430 bytes |
| Instructions | 193        |

```
      00 01 02 03 04 05 06 07  08 09 0A 0B 0C 0D 0E 0F
      -- -- -- -- -- -- -- --  -- -- -- -- -- -- -- --
01E0:                             42 1A B9 06 46 01 38           B...F.8
01F0: 04 80 27 10 F0 FF FF 7F  08 27 10 24 02 0B 01 01  ..'......'.$....
0200: 27 10 25 02 0B 01 02 BA  F0 FF FF 7F 17 80 18 80  '.%.............
0210: 19 80 1A 80 BA 24 02 0B  01 1B 80 1C 80 1D 80 1E  .....$..........
0220: 80 BA 25 02 0B 01 1F 80  20 80 21 80 22 80 80 F0  ..%..... .!."...
0230: FF FF 7F 80 24 02 0B 01  80 25 02 0B 01 1C 0C 80  ....$....%......
0240: 4A 24 02 0B 01 25 02 0B  01 4A 25 02 0B 01 24 02  J$...%...J%...$.
0250: 0B 01 6F 76 24 02 0B 01  6F 76 25 02 0B 01 29 10  ..ov$...ov%...).
0260: F0 FF FF 7F 06 1C 0D 80  03 01 00 01 80 02 01 00  ................
0270: 23 80 05 E8 02 02 02 80  01 00 04 E0 02 02 01 00  #...............
0280: 0F 80 80 9B 02 1A 98 06  27 10 24 02 0B 01 02 4A  ........'.$....J
0290: F0 FF FF 7F 25 02 0B 01  01 E0 02 02 01 00 13 80  ....%...........
02A0: 80 BC 02 7B 25 02 0B 01  4A 25 02 0B 01 F0 FF FF  ...{%...J%......
02B0: 7F 7B 25 02 0B 01 1A B9  06 01 E0 02 02 01 00 0E  .{%.............
02C0: 80 80 E0 02 4E 01 24 02  0B 01 27 10 25 02 0B 01  ....N.$...'.%...
02D0: 03 4A 25 02 0B 01 F0 FF  FF 7F 1A 98 06 01 E0 02  .J%.............
02E0: 07 01 00 01 80 01 6D 02  03 01 00 01 80 02 01 00  ......m.........
02F0: 23 80 05 08 03 02 02 80  01 00 05 00 03 1A 39 03  #.............9.
0300: 07 01 00 01 80 01 ED 02  1A B9 06 1C 0D 80 5C 00  ..............\.
0310: 02 80 5C 01 02 80 9A 46  00 45 10 80 F0 FF FF 7F  ..\....F.E......
0320: F0 FF FF 7F 66 64 69 32  02 80 21 00 02 02 80 01  ....fdi2..!.....
0330: 80 00 38 03 48 24 80 23  1B 02 01 00 01 80 80 AE  ..8.H$.#........
0340: 03 45 25 80 F0 FF FF 7F  F0 FF FF 7F 68 30 30 31  .E%.........h001
0350: 02 80 1A 98 06 1C 26 80  27 10 F0 FF FF 7F 07 1C  ......&.'.......
0360: 27 80 45 25 80 25 02 0B  01 25 02 0B 01 68 69 74  '.E%.%...%...hit
0370: 30 02 80 1C 28 80 27 10  24 02 0B 01 02 1C 0D 80  0...(.'.$.......
0380: 4A F0 FF FF 7F 25 02 0B  01 1C 29 80 1C 2A 80 27  J....%....)..*.'
0390: 10 F0 FF FF 7F 09 1C 26  80 1A B9 06 52 25 80 F0  .......&....R%..
03A0: FF FF 7F F0 FF FF 7F 68  30 30 31 01 55 06 02 01  .......h001.U...
03B0: 00 0F 80 80 B9 03 01 55  06 02 01 00 13 80 80 52  .......U.......R
03C0: 04 2A 10 F0 FF FF 7F 1C  0C 80 4A F0 FF FF 7F 25  .*........J....%
03D0: 02 0B 01 4A 25 02 0B 01  F0 FF FF 7F 6F 76 F0 FF  ...J%.......ov..
03E0: FF 7F 6F 76 25 02 0B 01  5C 00 10 80 5C 01 10 80  ..ov%...\...\...
03F0: 9A 48 2B 80 23 1C 0D 80  45 25 80 F0 FF FF 7F F0  .H+.#...E%......
0400: FF FF 7F 68 30 30 33 02  80 1A 98 06 1C 0D 80 27  ...h003........'
0410: 10 F0 FF FF 7F 0C 2A 10  F0 FF FF 7F 1C 29 80 7B  ......*......).{
0420: 25 02 0B 01 27 10 25 02  0B 01 04 2B 25 02 0B 01  %...'.%....+%...
0430: 24 80 23 27 10 25 02 0B  01 05 2A 10 25 02 0B 01  $.#'.%....*.%...
0440: 52 25 80 F0 FF FF 7F F0  FF FF 7F 68 30 30 33 01  R%.........h003.
0450: 55 06 02 01 00 0E 80 80  BB 04 79 00 25 02 0B 01  U.........y.%...
0460: F0 FF FF 7F 45 25 80 F0  FF FF 7F F0 FF FF 7F 68  ....E%.........h
0470: 30 30 34 02 80 1C 2C 80  29 10 F0 FF FF 7F 0C 1C  004...,.).......
0480: 2C 80 27 10 25 02 0B 01  08 1C 0D 80 2B 25 02 0B  ,.'.%.......+%..
0490: 01 2D 80 23 2A 10 25 02  0B 01 27 10 25 02 0B 01  .-.#*.%...'.%...
04A0: 04 2B 25 02 0B 01 2E 80  23 55 25 80 F0 FF FF 7F  .+%.....#U%.....
04B0: F0 FF FF 7F 68 30 30 34  01 55 06 02 01 00 2F 80  ....h004.U..../.
04C0: 80 0A 05 45 25 80 F0 FF  FF 7F F0 FF FF 7F 68 30  ...E%.........h0
04D0: 30 35 02 80 29 10 F0 FF  FF 7F 0C 2B 25 02 0B 01  05..)......+%...
04E0: 30 80 23 2B 25 02 0B 01  31 80 23 27 10 25 02 0B  0.#+%...1.#'.%..
04F0: 01 05 2A 10 25 02 0B 01  52 25 80 F0 FF FF 7F F0  ..*.%...R%......
0500: FF FF 7F 68 30 30 35 01  55 06 02 01 00 32 80 80  ...h005.U....2..
0510: 74 05 45 25 80 F0 FF FF  7F F0 FF FF 7F 68 30 30  t.E%.........h00
0520: 36 02 80 7B 25 02 0B 01  27 10 25 02 0B 01 06 2B  6..{%...'.%....+
0530: 25 02 0B 01 33 80 23 27  10 25 02 0B 01 07 2B 25  %...3.#'.%....+%
0540: 02 0B 01 34 80 23 2A 10  25 02 0B 01 27 10 25 02  ...4.#*.%...'.%.
0550: 0B 01 04 2B 25 02 0B 01  35 80 23 27 10 25 02 0B  ...+%...5.#'.%..
0560: 01 05 52 25 80 F0 FF FF  7F F0 FF FF 7F 68 30 30  ..R%.........h00
0570: 36 01 55 06 02 01 00 36  80 80 7F 05 01 55 06 02  6.U....6.....U..
0580: 01 00 37 80 80 8A 05 01  55 06 02 01 00 38 80 80  ..7.....U....8..
0590: EB 05 45 25 80 F0 FF FF  7F F0 FF FF 7F 68 30 30  ..E%.........h00
05A0: 39 02 80 79 00 25 02 0B  01 F0 FF FF 7F 27 10 25  9..y.%.......'.%
05B0: 02 0B 01 09 1C 29 80 6E  F0 FF FF 7F 02 80 99 F0  .....).n........
05C0: FF FF 7F 2B 25 02 0B 01  39 80 23 2A 10 25 02 0B  ...+%...9.#*.%..
05D0: 01 2B 25 02 0B 01 3A 80  23 52 25 80 F0 FF FF 7F  .+%...:.#R%.....
05E0: F0 FF FF 7F 68 30 30 39  01 55 06 02 01 00 3B 80  ....h009.U....;.
05F0: 80 3F 06 45 25 80 F0 FF  FF 7F F0 FF FF 7F 68 30  .?.E%.........h0
0600: 30 61 02 80 7B 25 02 0B  01 27 10 25 02 0B 01 04  0a..{%...'.%....
0610: 2B 25 02 0B 01 3C 80 23  2B 25 02 0B 01 3D 80 23  +%...<.#+%...=.#
0620: 27 10 25 02 0B 01 05 1A  B9 06 1C 0D 80 52 25 80  '.%..........R%.
0630: F0 FF FF 7F F0 FF FF 7F  68 30 30 61 01 55 06 02  ........h00a.U..
0640: 01 00 3E 80 80 4A 06 01  55 06 02 01 00 23 80 80  ..>..J..U....#..
0650: 55 06 01 55 06 1B 45 10  80 F0 FF FF 7F F0 FF FF  U..U..E.........
0660: 7F 66 64 69 30 02 80 55  10 80 F0 FF FF 7F F0 FF  .fdi0..U........
0670: FF 7F 66 64 69 30 1B 45  10 80 F0 FF FF 7F F0 FF  ..fdi0.E........
0680: FF 7F 66 64 6F 30 02 80  55 10 80 F0 FF FF 7F F0  ..fdo0..U.......
0690: FF FF 7F 66 64 6F 30 1B  45 10 80 F0 FF FF 7F F0  ...fdo0.E.......
06A0: FF FF 7F 66 64 69 31 02  80 55 10 80 F0 FF FF 7F  ...fdi1..U......
06B0: F0 FF FF 7F 66 64 69 31  1B 45 10 80 F0 FF FF 7F  ....fdi1.E......
06C0: F0 FF FF 7F 66 64 6F 31  02 80 55 10 80 F0 FF FF  ....fdo1..U.....
06D0: 7F F0 FF FF 7F 66 64 6F  31 1B 45 3F 80 F0 FF FF  .....fdo1.E?....
06E0: 7F F0 FF FF 7F 77 68 69  31 02 80 55 3F 80 F0 FF  .....whi1..U?...
06F0: FF 7F F0 FF FF 7F 77 68  69 31 1B 45 3F 80 F0 FF  ......whi1.E?...
0700: FF 7F F0 FF FF 7F 77 68  6F 31 02 80 55 3F 80 F0  ......who1..U?..
0710: FF FF 7F F0 FF FF 7F 77  68 6F 31 1B 45 3F 80 F0  .......who1.E?..
0720: FF FF 7F F0 FF FF 7F 77  68 69 30 02 80 55 3F 80  .......whi0..U?.
0730: F0 FF FF 7F F0 FF FF 7F  77 68 69 30 1B 45 3F 80  ........whi0.E?.
0740: F0 FF FF 7F F0 FF FF 7F  77 68 6F 30 02 80 55 3F  ........who0..U?
0750: 80 F0 FF FF 7F F0 FF FF  7F 77 68 6F 30 1B 45 40  .........who0.E@
0760: 80 F0 FF FF 7F F0 FF FF  7F 65 66 6F 6E 02 80 55  .........efon..U
0770: 40 80 F0 FF FF 7F F0 FF  FF 7F 65 66 6F 6E 1B     @.........efon. 
```

#### Opcodes

```
  0: 0x01E9 [0x42] SET_CLI_EVENT_CANCEL_DATA()
  1: 0x01EA [0x1A] CALL_SUBROUTINE(address=0x06B9)
  2: 0x01ED [0x46] CAMERA_CONTROL: Disable user control
  3: 0x01EF [0x38] SET_CLIENT_EVENT_MODE(mode=19*)
  4: 0x01F2 [0x27] REQ_SET(priority=0x10, entity_id=LocalPlayer, tag_num=0x08)
  5: 0x01F9 [0x27] REQ_SET(priority=0x10, entity_id=Unnamed NPC (ID: 17498660/0x010B0224), tag_num=0x01)
  6: 0x0200 [0x27] REQ_SET(priority=0x10, entity_id=Riko Kupenreich (ID: 17498661/0x010B0225), tag_num=0x02)
  7: 0x0207 [0xBA] SET_ENTITY_POSITION(entity_id=LocalPlayer, pos_x=110.610*, pos_z=-126.862*, pos_y=0.800*, direction=112.0°*)
  8: 0x0214 [0xBA] SET_ENTITY_POSITION(entity_id=Unnamed NPC (ID: 17498660/0x010B0224), pos_x=110.117*, pos_z=-110.772*, pos_y=0.499*, direction=253.0°*)
  9: 0x0221 [0xBA] SET_ENTITY_POSITION(entity_id=Riko Kupenreich (ID: 17498661/0x010B0225), pos_x=109.527*, pos_z=-113.617*, pos_y=0.474*, direction=320.8°*)
 10: 0x022E [0x80] LOAD_WAIT(entity=LocalPlayer)
 11: 0x0233 [0x80] LOAD_WAIT(entity=Unnamed NPC (ID: 17498660/0x010B0224))
 12: 0x0238 [0x80] LOAD_WAIT(entity=Riko Kupenreich (ID: 17498661/0x010B0225))
 13: 0x023D [0x1C] WAIT(15* ticks)
 14: 0x0240 [0x4A] Unnamed NPC (ID: 17498660/0x010B0224) looks at Riko Kupenreich (ID: 17498661/0x010B0225)
 15: 0x0249 [0x4A] Riko Kupenreich (ID: 17498661/0x010B0225) looks at Unnamed NPC (ID: 17498660/0x010B0224)
 16: 0x0252 [0x6F] WAIT_FRAME_DELAY: Yield until WaitTime reaches zero
 17: 0x0253 [0x76] CHECK_ENTITY_RENDER_FLAGS: Wait until Unnamed NPC (ID: 17498660/0x010B0224) Render.Flags0 and Render.Flags3 conditions are met
 18: 0x0258 [0x6F] WAIT_FRAME_DELAY: Yield until WaitTime reaches zero
 19: 0x0259 [0x76] CHECK_ENTITY_RENDER_FLAGS: Wait until Riko Kupenreich (ID: 17498661/0x010B0225) Render.Flags0 and Render.Flags3 conditions are met
 20: 0x025E [0x29] REQ_SET_WAIT(priority=0x10, entity_id=LocalPlayer, tag_num=0x06)
 21: 0x0265 [0x1C] WAIT(30* ticks)
 22: 0x0268 [0x03] ExtData[1]->WorkLocal[1] = 1*
 23: 0x026D [0x02] IF !(ExtData[1]->WorkLocal[1] > 12*) GOTO 0x02E8
 24: 0x0275 [0x02] IF !(0* < ExtData[1]->WorkLocal[1]) GOTO 0x02E0
 25: 0x027D [0x02] IF !(ExtData[1]->WorkLocal[1] == 2*) GOTO 0x029B
 26: 0x0285 [0x1A] CALL_SUBROUTINE(address=0x0698)
 27: 0x0288 [0x27] REQ_SET(priority=0x10, entity_id=Unnamed NPC (ID: 17498660/0x010B0224), tag_num=0x02)
 28: 0x028F [0x4A] LocalPlayer looks at Riko Kupenreich (ID: 17498661/0x010B0225)
 29: 0x0298 [0x01] GOTO 0x02E0
 30: 0x029B [0x02] IF !(ExtData[1]->WorkLocal[1] == 3*) GOTO 0x02BC
 31: 0x02A3 [0x7B] Riko Kupenreich (ID: 17498661/0x010B0225) stops talking
 32: 0x02A8 [0x4A] Riko Kupenreich (ID: 17498661/0x010B0225) looks at LocalPlayer
 33: 0x02B1 [0x7B] Riko Kupenreich (ID: 17498661/0x010B0225) stops talking
 34: 0x02B6 [0x1A] CALL_SUBROUTINE(address=0x06B9)
 35: 0x02B9 [0x01] GOTO 0x02E0
 36: 0x02BC [0x02] IF !(ExtData[1]->WorkLocal[1] == 4*) GOTO 0x02E0
 37: 0x02C4 [0x4E] SET_ENTITY_HIDE_FLAG: Hide Unnamed NPC (ID: 17498660/0x010B0224)
 38: 0x02CA [0x27] REQ_SET(priority=0x10, entity_id=Riko Kupenreich (ID: 17498661/0x010B0225), tag_num=0x03)
 39: 0x02D1 [0x4A] Riko Kupenreich (ID: 17498661/0x010B0225) looks at LocalPlayer
 40: 0x02DA [0x1A] CALL_SUBROUTINE(address=0x0698)
 41: 0x02DD [0x01] GOTO 0x02E0

SUBROUTINE_02E0:
 42: 0x02E0 [0x07] ExtData[1]->WorkLocal[1] += 1*
 43: 0x02E5 [0x01] GOTO 0x026D
 44: 0x02E8 [0x03] ExtData[1]->WorkLocal[1] = 1*

SUBROUTINE_02ED:
 45: 0x02ED [0x02] IF !(ExtData[1]->WorkLocal[1] > 12*) GOTO 0x0308
 46: 0x02F5 [0x02] IF !(0* > ExtData[1]->WorkLocal[1]) GOTO 0x0300
 47: 0x02FD [0x1A] CALL_SUBROUTINE(address=0x0339)
 48: 0x0300 [0x07] ExtData[1]->WorkLocal[1] += 1*
 49: 0x0305 [0x01] GOTO 0x02ED
 50: 0x0308 [0x1A] CALL_SUBROUTINE(address=0x06B9)
 51: 0x030B [0x1C] WAIT(30* ticks)
 52: 0x030E [0x5C] MUSIC_CONTROL: Set Idle (Day) music to song 0*
 53: 0x0312 [0x5C] MUSIC_CONTROL: Set Idle (Night) music to song 0*
 54: 0x0316 [0x9A] WAIT_MUSIC_SERVER()
 55: 0x0317 [0x46] CAMERA_CONTROL: Restore default settings
 56: 0x0319 [0x45] LOAD_SCHEDULED_TASK: Load scheduler "fdi2" with entities [LocalPlayer, LocalPlayer], work=[200*, 0*]
 57: 0x032A [0x21] END_EVENT
 58: 0x032B [0x00] END_REQSTACK()

SUBROUTINE_0339:
 59: 0x0339 [0x02] IF !(ExtData[1]->WorkLocal[1] == 1*) GOTO 0x03AE
 60: 0x0341 [0x45] LOAD_SCHEDULED_TASK: Load scheduler "h001" with entities [LocalPlayer, LocalPlayer], work=[467*, 0*]
 61: 0x0352 [0x1A] CALL_SUBROUTINE(address=0x0698)
 62: 0x0355 [0x1C] WAIT(60* ticks)
 63: 0x0358 [0x27] REQ_SET(priority=0x10, entity_id=LocalPlayer, tag_num=0x07)
 64: 0x035F [0x1C] WAIT(100* ticks)
 65: 0x0362 [0x45] LOAD_SCHEDULED_TASK: Load scheduler "hit0" with entities [Riko Kupenreich (ID: 17498661/0x010B0225), Riko Kupenreich (ID: 17498661/0x010B0225)], work=[467*, 0*]
 66: 0x0373 [0x1C] WAIT(20* ticks)
 67: 0x0376 [0x27] REQ_SET(priority=0x10, entity_id=Unnamed NPC (ID: 17498660/0x010B0224), tag_num=0x02)
 68: 0x037D [0x1C] WAIT(30* ticks)
 69: 0x0380 [0x4A] LocalPlayer looks at Riko Kupenreich (ID: 17498661/0x010B0225)
 70: 0x0389 [0x1C] WAIT(90* ticks)
 71: 0x038C [0x1C] WAIT(180* ticks)
 72: 0x038F [0x27] REQ_SET(priority=0x10, entity_id=LocalPlayer, tag_num=0x09)
 73: 0x0396 [0x1C] WAIT(60* ticks)
 74: 0x0399 [0x1A] CALL_SUBROUTINE(address=0x06B9)
 75: 0x039C [0x52] END_LOAD_SCHEDULER: End scheduler "h001" with entities [LocalPlayer, LocalPlayer], work=467*
 76: 0x03AB [0x01] GOTO 0x0655
 77: 0x03AE [0x02] IF !(ExtData[1]->WorkLocal[1] == 2*) GOTO 0x03B9
 78: 0x03B6 [0x01] GOTO 0x0655
 79: 0x03B9 [0x02] IF !(ExtData[1]->WorkLocal[1] == 3*) GOTO 0x0452
 80: 0x03C1 [0x2A] GET_REQ_LEVEL(level=16, entity_id=LocalPlayer)
 81: 0x03C7 [0x1C] WAIT(15* ticks)
 82: 0x03CA [0x4A] LocalPlayer looks at Riko Kupenreich (ID: 17498661/0x010B0225)
 83: 0x03D3 [0x4A] Riko Kupenreich (ID: 17498661/0x010B0225) looks at LocalPlayer
 84: 0x03DC [0x6F] WAIT_FRAME_DELAY: Yield until WaitTime reaches zero
 85: 0x03DD [0x76] CHECK_ENTITY_RENDER_FLAGS: Wait until LocalPlayer Render.Flags0 and Render.Flags3 conditions are met
 86: 0x03E2 [0x6F] WAIT_FRAME_DELAY: Yield until WaitTime reaches zero
 87: 0x03E3 [0x76] CHECK_ENTITY_RENDER_FLAGS: Wait until Riko Kupenreich (ID: 17498661/0x010B0225) Render.Flags0 and Render.Flags3 conditions are met
 88: 0x03E8 [0x5C] MUSIC_CONTROL: Set Idle (Day) music to song 200*
 89: 0x03EC [0x5C] MUSIC_CONTROL: Set Idle (Night) music to song 200*
 90: 0x03F0 [0x9A] WAIT_MUSIC_SERVER()
 91: 0x03F1 [0x48] [System] [7610*]:
    → "@@"
 92: 0x03F4 [0x23] WAIT_FOR_DIALOG_INTERACTION
 93: 0x03F5 [0x1C] WAIT(30* ticks)
 94: 0x03F8 [0x45] LOAD_SCHEDULED_TASK: Load scheduler "h003" with entities [LocalPlayer, LocalPlayer], work=[467*, 0*]
 95: 0x0409 [0x1A] CALL_SUBROUTINE(address=0x0698)
 96: 0x040C [0x1C] WAIT(30* ticks)
 97: 0x040F [0x27] REQ_SET(priority=0x10, entity_id=LocalPlayer, tag_num=0x0C)
 98: 0x0416 [0x2A] GET_REQ_LEVEL(level=16, entity_id=LocalPlayer)
 99: 0x041C [0x1C] WAIT(90* ticks)
100: 0x041F [0x7B] Riko Kupenreich (ID: 17498661/0x010B0225) stops talking
101: 0x0424 [0x27] REQ_SET(priority=0x10, entity_id=Riko Kupenreich (ID: 17498661/0x010B0225), tag_num=0x04)
102: 0x042B [0x2B] Riko Kupenreich (ID: 17498661/0x010B0225) [7598*]:
    → "Yeah, I'm Riko all right. What's it to ya, kid?"
103: 0x0432 [0x23] WAIT_FOR_DIALOG_INTERACTION
104: 0x0433 [0x27] REQ_SET(priority=0x10, entity_id=Riko Kupenreich (ID: 17498661/0x010B0225), tag_num=0x05)
105: 0x043A [0x2A] GET_REQ_LEVEL(level=16, entity_id=Riko Kupenreich (ID: 17498661/0x010B0225))
106: 0x0440 [0x52] END_LOAD_SCHEDULER: End scheduler "h003" with entities [LocalPlayer, LocalPlayer], work=467*
107: 0x044F [0x01] GOTO 0x0655
108: 0x0452 [0x02] IF !(ExtData[1]->WorkLocal[1] == 4*) GOTO 0x04BB
109: 0x045A [0x79] Riko Kupenreich (ID: 17498661/0x010B0225) looks at LocalPlayer (Basic look)
110: 0x0464 [0x45] LOAD_SCHEDULED_TASK: Load scheduler "h004" with entities [LocalPlayer, LocalPlayer], work=[467*, 0*]
111: 0x0475 [0x1C] WAIT(50* ticks)
112: 0x0478 [0x29] REQ_SET_WAIT(priority=0x10, entity_id=LocalPlayer, tag_num=0x0C)
113: 0x047F [0x1C] WAIT(50* ticks)
114: 0x0482 [0x27] REQ_SET(priority=0x10, entity_id=Riko Kupenreich (ID: 17498661/0x010B0225), tag_num=0x08)
115: 0x0489 [0x1C] WAIT(30* ticks)
116: 0x048C [0x2B] Riko Kupenreich (ID: 17498661/0x010B0225) [7599*]:
    → "...!? You want me to lend ya how much!?"
117: 0x0493 [0x23] WAIT_FOR_DIALOG_INTERACTION
118: 0x0494 [0x2A] GET_REQ_LEVEL(level=16, entity_id=Riko Kupenreich (ID: 17498661/0x010B0225))
119: 0x049A [0x27] REQ_SET(priority=0x10, entity_id=Riko Kupenreich (ID: 17498661/0x010B0225), tag_num=0x04)
120: 0x04A1 [0x2B] Riko Kupenreich (ID: 17498661/0x010B0225) [7600*]:
    → "What's a little [boy/girl] like you gonna do with that kind o' cash? Eh? I ain't one to talk, but sounds to me like you're up to no good."
121: 0x04A8 [0x23] WAIT_FOR_DIALOG_INTERACTION
122: 0x04A9 [0x55] WAIT_LOAD_SCHEDULER: Wait for scheduler "h004" with entities [LocalPlayer, LocalPlayer], work=467*
123: 0x04B8 [0x01] GOTO 0x0655
124: 0x04BB [0x02] IF !(ExtData[1]->WorkLocal[1] == 5*) GOTO 0x050A
125: 0x04C3 [0x45] LOAD_SCHEDULED_TASK: Load scheduler "h005" with entities [LocalPlayer, LocalPlayer], work=[467*, 0*]
126: 0x04D4 [0x29] REQ_SET_WAIT(priority=0x10, entity_id=LocalPlayer, tag_num=0x0C)
127: 0x04DB [0x2B] Riko Kupenreich (ID: 17498661/0x010B0225) [7601*]:
    → "What!? That snot-nosed Toto Kupeliaure is trying to privatize the Mog Houses, you say?"
128: 0x04E2 [0x23] WAIT_FOR_DIALOG_INTERACTION
129: 0x04E3 [0x2B] Riko Kupenreich (ID: 17498661/0x010B0225) [7602*]:
    → "...And he's billing you for years of unpaid rent!?"
130: 0x04EA [0x23] WAIT_FOR_DIALOG_INTERACTION
131: 0x04EB [0x27] REQ_SET(priority=0x10, entity_id=Riko Kupenreich (ID: 17498661/0x010B0225), tag_num=0x05)
132: 0x04F2 [0x2A] GET_REQ_LEVEL(level=16, entity_id=Riko Kupenreich (ID: 17498661/0x010B0225))
133: 0x04F8 [0x52] END_LOAD_SCHEDULER: End scheduler "h005" with entities [LocalPlayer, LocalPlayer], work=467*
134: 0x0507 [0x01] GOTO 0x0655
135: 0x050A [0x02] IF !(ExtData[1]->WorkLocal[1] == 6*) GOTO 0x0574
136: 0x0512 [0x45] LOAD_SCHEDULED_TASK: Load scheduler "h006" with entities [LocalPlayer, LocalPlayer], work=[467*, 0*]
137: 0x0523 [0x7B] Riko Kupenreich (ID: 17498661/0x010B0225) stops talking
138: 0x0528 [0x27] REQ_SET(priority=0x10, entity_id=Riko Kupenreich (ID: 17498661/0x010B0225), tag_num=0x06)
139: 0x052F [0x2B] Riko Kupenreich (ID: 17498661/0x010B0225) [7603*]:
    → "Hah. Well, that's what I've been saying all along. Those Kupeliaures are born with a silver spoon in their mouths. Leave the operation to them and nothin' good will come of it."
140: 0x0536 [0x23] WAIT_FOR_DIALOG_INTERACTION
141: 0x0537 [0x27] REQ_SET(priority=0x10, entity_id=Riko Kupenreich (ID: 17498661/0x010B0225), tag_num=0x07)
142: 0x053E [0x2B] Riko Kupenreich (ID: 17498661/0x010B0225) [7604*]:
    → "But don't worry, kid. Uncle Riko's got ya covered."
143: 0x0545 [0x23] WAIT_FOR_DIALOG_INTERACTION
144: 0x0546 [0x2A] GET_REQ_LEVEL(level=16, entity_id=Riko Kupenreich (ID: 17498661/0x010B0225))
145: 0x054C [0x27] REQ_SET(priority=0x10, entity_id=Riko Kupenreich (ID: 17498661/0x010B0225), tag_num=0x04)
146: 0x0553 [0x2B] Riko Kupenreich (ID: 17498661/0x010B0225) [7605*]:
    → "You've got yourself a loan. We'll give the Kupeliaure brat what he's asking for...heh heh heh."
147: 0x055A [0x23] WAIT_FOR_DIALOG_INTERACTION
148: 0x055B [0x27] REQ_SET(priority=0x10, entity_id=Riko Kupenreich (ID: 17498661/0x010B0225), tag_num=0x05)
149: 0x0562 [0x52] END_LOAD_SCHEDULER: End scheduler "h006" with entities [LocalPlayer, LocalPlayer], work=467*
150: 0x0571 [0x01] GOTO 0x0655
151: 0x0574 [0x02] IF !(ExtData[1]->WorkLocal[1] == 7*) GOTO 0x057F
152: 0x057C [0x01] GOTO 0x0655
153: 0x057F [0x02] IF !(ExtData[1]->WorkLocal[1] == 8*) GOTO 0x058A
154: 0x0587 [0x01] GOTO 0x0655
155: 0x058A [0x02] IF !(ExtData[1]->WorkLocal[1] == 9*) GOTO 0x05EB
156: 0x0592 [0x45] LOAD_SCHEDULED_TASK: Load scheduler "h009" with entities [LocalPlayer, LocalPlayer], work=[467*, 0*]
157: 0x05A3 [0x79] Riko Kupenreich (ID: 17498661/0x010B0225) looks at LocalPlayer (Basic look)
158: 0x05AD [0x27] REQ_SET(priority=0x10, entity_id=Riko Kupenreich (ID: 17498661/0x010B0225), tag_num=0x09)
159: 0x05B4 [0x1C] WAIT(90* ticks)
160: 0x05B7 [0x6E] LocalPlayer uses emote 0*
161: 0x05BE [0x99] Wait for LocalPlayer animation to complete
162: 0x05C3 [0x2B] Riko Kupenreich (ID: 17498661/0x010B0225) [7606*]:
    → "What, you thought you'd be gettin' cash? I don't think so. We'll be keepin' this deal on the down-low, ya see? This draft is good for all the gil Toto asked ya for. And you're gonna carry it so that nobody's gonna see even a bulge in your pocket. Got it?"
163: 0x05CA [0x23] WAIT_FOR_DIALOG_INTERACTION
164: 0x05CB [0x2A] GET_REQ_LEVEL(level=16, entity_id=Riko Kupenreich (ID: 17498661/0x010B0225))
165: 0x05D1 [0x2B] Riko Kupenreich (ID: 17498661/0x010B0225) [7607*]:
    → "Anyway, I'll be gettin' my people on this. Uncle Riko'll find out what Toto is up to."
166: 0x05D8 [0x23] WAIT_FOR_DIALOG_INTERACTION
167: 0x05D9 [0x52] END_LOAD_SCHEDULER: End scheduler "h009" with entities [LocalPlayer, LocalPlayer], work=467*
168: 0x05E8 [0x01] GOTO 0x0655
169: 0x05EB [0x02] IF !(ExtData[1]->WorkLocal[1] == 10*) GOTO 0x063F
170: 0x05F3 [0x45] LOAD_SCHEDULED_TASK: Load scheduler "h00a" with entities [LocalPlayer, LocalPlayer], work=[467*, 0*]
171: 0x0604 [0x7B] Riko Kupenreich (ID: 17498661/0x010B0225) stops talking
172: 0x0609 [0x27] REQ_SET(priority=0x10, entity_id=Riko Kupenreich (ID: 17498661/0x010B0225), tag_num=0x04)
173: 0x0610 [0x2B] Riko Kupenreich (ID: 17498661/0x010B0225) [7608*]:
    → "In the meantime, ya better not speak a word of this to no one, ya hear me?"
174: 0x0617 [0x23] WAIT_FOR_DIALOG_INTERACTION
175: 0x0618 [0x2B] Riko Kupenreich (ID: 17498661/0x010B0225) [7609*]:
    → "If news of Toto's plot went public, nobody would trust us Moogles ever again. That wouldn't be good for business. And what ain't good for Uncle Riko's business, ain't good for no one's business. Ya catch my drift, kid?"
176: 0x061F [0x23] WAIT_FOR_DIALOG_INTERACTION
177: 0x0620 [0x27] REQ_SET(priority=0x10, entity_id=Riko Kupenreich (ID: 17498661/0x010B0225), tag_num=0x05)
178: 0x0627 [0x1A] CALL_SUBROUTINE(address=0x06B9)
179: 0x062A [0x1C] WAIT(30* ticks)
180: 0x062D [0x52] END_LOAD_SCHEDULER: End scheduler "h00a" with entities [LocalPlayer, LocalPlayer], work=467*
181: 0x063C [0x01] GOTO 0x0655
182: 0x063F [0x02] IF !(ExtData[1]->WorkLocal[1] == 11*) GOTO 0x064A
183: 0x0647 [0x01] GOTO 0x0655
184: 0x064A [0x02] IF !(ExtData[1]->WorkLocal[1] == 12*) GOTO 0x0655
185: 0x0652 [0x01] GOTO 0x0655

SUBROUTINE_0655:
186: 0x0655 [0x1B] RETURN

SUBROUTINE_0698:
187: 0x0698 [0x45] LOAD_SCHEDULED_TASK: Load scheduler "fdi1" with entities [LocalPlayer, LocalPlayer], work=[200*, 0*]
188: 0x06A9 [0x55] WAIT_LOAD_SCHEDULER: Wait for scheduler "fdi1" with entities [LocalPlayer, LocalPlayer], work=200*
189: 0x06B8 [0x1B] RETURN

SUBROUTINE_06B9:
190: 0x06B9 [0x45] LOAD_SCHEDULED_TASK: Load scheduler "fdo1" with entities [LocalPlayer, LocalPlayer], work=[200*, 0*]
191: 0x06CA [0x55] WAIT_LOAD_SCHEDULER: Wait for scheduler "fdo1" with entities [LocalPlayer, LocalPlayer], work=200*
192: 0x06D9 [0x1B] RETURN
```

#### Data or dead code:

```
# Dead code (unreachable instructions):
     0x032C [0x02] IF !(0* == 1*) GOTO 0x0338
     0x0334 [0x48] [System] [7598*]:
    → "Yeah, I'm Riko all right. What's it to ya, kid?"
     0x0337 [0x23] WAIT_FOR_DIALOG_INTERACTION
     0x0338 [0x1B] RETURN
# Dead code (unreachable instructions):
     0x0656 [0x45] LOAD_SCHEDULED_TASK: Load scheduler "fdi0" with entities [LocalPlayer, LocalPlayer], work=[200*, 0*]
     0x0667 [0x55] WAIT_LOAD_SCHEDULER: Wait for scheduler "fdi0" with entities [LocalPlayer, LocalPlayer], work=200*
     0x0676 [0x1B] RETURN
     0x0677 [0x45] LOAD_SCHEDULED_TASK: Load scheduler "fdo0" with entities [LocalPlayer, LocalPlayer], work=[200*, 0*]
     0x0688 [0x55] WAIT_LOAD_SCHEDULER: Wait for scheduler "fdo0" with entities [LocalPlayer, LocalPlayer], work=200*
     0x0697 [0x1B] RETURN
# Dead code (unreachable instructions):
     0x06DA [0x45] LOAD_SCHEDULED_TASK: Load scheduler "whi1" with entities [LocalPlayer, LocalPlayer], work=[201*, 0*]
     0x06EB [0x55] WAIT_LOAD_SCHEDULER: Wait for scheduler "whi1" with entities [LocalPlayer, LocalPlayer], work=201*
     0x06FA [0x1B] RETURN
     0x06FB [0x45] LOAD_SCHEDULED_TASK: Load scheduler "who1" with entities [LocalPlayer, LocalPlayer], work=[201*, 0*]
     0x070C [0x55] WAIT_LOAD_SCHEDULER: Wait for scheduler "who1" with entities [LocalPlayer, LocalPlayer], work=201*
     0x071B [0x1B] RETURN
     0x071C [0x45] LOAD_SCHEDULED_TASK: Load scheduler "whi0" with entities [LocalPlayer, LocalPlayer], work=[201*, 0*]
     0x072D [0x55] WAIT_LOAD_SCHEDULER: Wait for scheduler "whi0" with entities [LocalPlayer, LocalPlayer], work=201*
     0x073C [0x1B] RETURN
     0x073D [0x45] LOAD_SCHEDULED_TASK: Load scheduler "who0" with entities [LocalPlayer, LocalPlayer], work=[201*, 0*]
     0x074E [0x55] WAIT_LOAD_SCHEDULER: Wait for scheduler "who0" with entities [LocalPlayer, LocalPlayer], work=201*
     0x075D [0x1B] RETURN
     0x075E [0x45] LOAD_SCHEDULED_TASK: Load scheduler "efon" with entities [LocalPlayer, LocalPlayer], work=[215*, 0*]
     0x076F [0x55] WAIT_LOAD_SCHEDULER: Wait for scheduler "efon" with entities [LocalPlayer, LocalPlayer], work=215*
     0x077E [0x1B] RETURN
```
