# 0x7FFFFFF0 - Zone Events

## Common Data

| Field            | Value                        |
|------------------|------------------------------|
| Zone             | Sea Serpent Grotto (ID: 176) |
| Block Size       | 2828 bytes                   |
| Total Events     | 31                           |
| References Count | 136                          |

## List of Events

| Event ID                   | Entrypoint   |   Size |   Instructions |
|----------------------------|--------------|--------|----------------|
| [65535](#event-65535)      | 0x0000       |      1 |              1 |
| [65534](#event-65534)      | 0x0001       |      1 |              1 |
| [100](#event-100)          | 0x0002       |     13 |              3 |
| [101](#event-101)          | 0x000F       |     10 |              2 |
| [102](#event-102)          | 0x0019       |     14 |              4 |
| [65535.1](#event-655351)   | 0x0027       |     20 |              3 |
| [65535.2](#event-655352)   | 0x003B       |     37 |              5 |
| [65535.3](#event-655353)   | 0x0060       |    185 |             37 |
| [65535.4](#event-655354)   | 0x0119       |      9 |              3 |
| [65535.5](#event-655355)   | 0x0122       |     14 |              4 |
| [65535.6](#event-655356)   | 0x0130       |     24 |              4 |
| [65535.7](#event-655357)   | 0x0148       |     24 |              4 |
| [65535.8](#event-655358)   | 0x0160       |     42 |              6 |
| [18](#event-18)            | 0x018A       |   1556 |            192 |
| [65535.9](#event-655359)   | 0x079E       |     16 |              5 |
| [65535.10](#event-6553510) | 0x07AE       |     26 |              7 |
| [65535.11](#event-6553511) | 0x07C8       |     10 |              2 |
| [65535.12](#event-6553512) | 0x07D2       |     10 |              2 |
| [65535.13](#event-6553513) | 0x07DC       |     10 |              2 |
| [65535.14](#event-6553514) | 0x07E6       |     10 |              2 |
| [65535.15](#event-6553515) | 0x07F0       |     10 |              2 |
| [65535.16](#event-6553516) | 0x07FA       |     10 |              2 |
| [65535.17](#event-6553517) | 0x0804       |     10 |              2 |
| [65535.18](#event-6553518) | 0x080E       |     10 |              2 |
| [65535.19](#event-6553519) | 0x0818       |     10 |              2 |
| [65535.20](#event-6553520) | 0x0822       |     10 |              2 |
| [65535.21](#event-6553521) | 0x082C       |     10 |              2 |
| [65535.22](#event-6553522) | 0x0836       |     10 |              2 |
| [65535.23](#event-6553523) | 0x0840       |     10 |              2 |
| [65535.24](#event-6553524) | 0x084A       |     10 |              2 |
| [65535.25](#event-6553525) | 0x0854       |     10 |              2 |

## DAT References (imed_data)

|   Index | Hex Value   |   Dec Value |
|---------|-------------|-------------|
|       0 | 0x1861A     |       99866 |
|       1 | 0x8ED0      |       36560 |
|       2 | 0x0165      |         357 |
|       3 | 0x03BA      |         954 |
|       4 | 0x18642     |       99906 |
|       5 | 0xA4CD      |       42189 |
|       6 | 0x0000      |           0 |
|       7 | 0x03F2      |        1010 |
|       8 | 0x000D      |          13 |
|       9 | 0x489D9     |      297433 |
|      10 | 0x34552     |      214354 |
|      11 | 0x6E69      |       28265 |
|      12 | 0x085A      |        2138 |
|      13 | 0x0005      |           5 |
|      14 | 0x0001      |           1 |
|      15 | 0x0002      |           2 |
|      16 | 0x000A      |          10 |
|      17 | 0x0009      |           9 |
|      18 | 0x0046      |          70 |
|      19 | 0x008C      |         140 |
|      20 | 0x00D2      |         210 |
|      21 | 0x001E      |          30 |
|      22 | 0x1ADAD     |      109997 |
|      23 | 0xFFFE3D90  |  4294851984 |
|      24 | 0x01F3      |         499 |
|      25 | 0x003C      |          60 |
|      26 | 0x0078      |         120 |
|      27 | 0x00C8      |         200 |
|      28 | 0x0013      |          19 |
|      29 | 0x21FF3     |      139251 |
|      30 | 0x321AC     |      205228 |
|      31 | 0xFFFFDE86  |  4294958726 |
|      32 | 0x03D2      |         978 |
|      33 | 0x0004      |           4 |
|      34 | 0x1D92      |        7570 |
|      35 | 0x00A1      |         161 |
|      36 | 0x1D93      |        7571 |
|      37 | 0x0045      |          69 |
|      38 | 0x1D94      |        7572 |
|      39 | 0x1D95      |        7573 |
|      40 | 0x1D96      |        7574 |
|      41 | 0x005A      |          90 |
|      42 | 0x1D97      |        7575 |
|      43 | 0x1D98      |        7576 |
|      44 | 0x1D99      |        7577 |
|      45 | 0x1D9A      |        7578 |
|      46 | 0x1D9B      |        7579 |
|      47 | 0x00B4      |         180 |
|      48 | 0x1D9C      |        7580 |
|      49 | 0x1D9D      |        7581 |
|      50 | 0x00C9      |         201 |
|      51 | 0x0003      |           3 |
|      52 | 0x1D9E      |        7582 |
|      53 | 0x1D9F      |        7583 |
|      54 | 0x07BA      |        1978 |
|      55 | 0x003E      |          62 |
|      56 | 0x1DA0      |        7584 |
|      57 | 0x1DA1      |        7585 |
|      58 | 0x0096      |         150 |
|      59 | 0x1DA2      |        7586 |
|      60 | 0x1DA3      |        7587 |
|      61 | 0x1DA4      |        7588 |
|      62 | 0x1DA5      |        7589 |
|      63 | 0x1DA6      |        7590 |
|      64 | 0x1DA7      |        7591 |
|      65 | 0x1DA8      |        7592 |
|      66 | 0x0258      |         600 |
|      67 | 0x012C      |         300 |
|      68 | 0x22412     |      140306 |
|      69 | 0x314BC     |      201916 |
|      70 | 0xFFFFDDDE  |  4294958558 |
|      71 | 0x0028      |          40 |
|      72 | 0x228FF     |      141567 |
|      73 | 0x3059A     |      198042 |
|      74 | 0xFFFFDC99  |  4294958233 |
|      75 | 0x20704     |      132868 |
|      76 | 0x2E5B4     |      189876 |
|      77 | 0xFFFFD6D4  |  4294956756 |
|      78 | 0xFFFE6D84  |  4294864260 |
|      79 | 0x1521D     |       86557 |
|      80 | 0xFFFEE6C0  |  4294895296 |
|      81 | 0x064C      |        1612 |
|      82 | 0x9DC49     |      646217 |
|      83 | 0xFFFD6E64  |  4294798948 |
|      84 | 0x0C85      |        3205 |
|      85 | 0xFFFFADA3  |  4294946211 |
|      86 | 0xE9CA      |       59850 |
|      87 | 0xFFFFF799  |  4294965145 |
|      88 | 0x0D28      |        3368 |
|      89 | 0xFFFEABF4  |  4294880244 |
|      90 | 0xFFFA4EB6  |  4294594230 |
|      91 | 0x012D      |         301 |
|      92 | 0x06A4      |        1700 |
|      93 | 0xFFFDB3A7  |  4294816679 |
|      94 | 0x4EF1      |       20209 |
|      95 | 0xFFFFBFF4  |  4294950900 |
|      96 | 0x084E      |        2126 |
|      97 | 0xFFFF6A35  |  4294928949 |
|      98 | 0x2327      |        8999 |
|      99 | 0x03ED      |        1005 |
|     100 | 0xFFFCAEE9  |  4294749929 |
|     101 | 0x70C05     |      461829 |
|     102 | 0x17BF0     |       97264 |
|     103 | 0x08E7      |        2279 |
|     104 | 0xFFFC4F0B  |  4294725387 |
|     105 | 0x51564     |      333156 |
|     106 | 0xFFFFD0E8  |  4294955240 |
|     107 | 0x0278      |         632 |
|     108 | 0xFFFA9423  |  4294612003 |
|     109 | 0xFFFE6DB2  |  4294864306 |
|     110 | 0x3C71      |       15473 |
|     111 | 0x08EC      |        2284 |
|     112 | 0x6D91F     |      448799 |
|     113 | 0xFFFF8D5B  |  4294937947 |
|     114 | 0xFFFF64E1  |  4294927585 |
|     115 | 0x0240      |         576 |
|     116 | 0xFFFFBB04  |  4294949636 |
|     117 | 0xD3E9      |       54249 |
|     118 | 0xFFFFFE47  |  4294966855 |
|     119 | 0x0AC4      |        2756 |
|     120 | 0xFFFFB53C  |  4294948156 |
|     121 | 0x4B66      |       19302 |
|     122 | 0x9EA9      |       40617 |
|     123 | 0x03A7      |         935 |
|     124 | 0x11D84     |       73092 |
|     125 | 0xFFFD607B  |  4294795387 |
|     126 | 0x0F9F      |        3999 |
|     127 | 0x0402      |        1026 |
|     128 | 0xFFFFB137  |  4294947127 |
|     129 | 0x7A43      |       31299 |
|     130 | 0xFFFFD8F2  |  4294957298 |
|     131 | 0x0D4B      |        3403 |
|     132 | 0xFFFFC860  |  4294953056 |
|     133 | 0xD01B      |       53275 |
|     134 | 0xFFFFFD7F  |  4294966655 |
|     135 | 0x0BF0      |        3056 |

## Events

### Event 65535

#### Metadata

| Field        | Value   |
|--------------|---------|
| Entrypoint   | 0x0000  |
| Data Size    | 1 bytes |
| Instructions | 1       |

```
      00 01 02 03 04 05 06 07  08 09 0A 0B 0C 0D 0E 0F
      -- -- -- -- -- -- -- --  -- -- -- -- -- -- -- --
0000: 00                                                .               
```

#### Opcodes

```
  0: 0x0000 [0x00] END_REQSTACK()
```

### Event 65534

#### Metadata

| Field        | Value   |
|--------------|---------|
| Entrypoint   | 0x0001  |
| Data Size    | 1 bytes |
| Instructions | 1       |

```
      00 01 02 03 04 05 06 07  08 09 0A 0B 0C 0D 0E 0F
      -- -- -- -- -- -- -- --  -- -- -- -- -- -- -- --
0000:    00                                              .              
```

#### Opcodes

```
  0: 0x0001 [0x00] END_REQSTACK()
```

### Event 100

#### Metadata

| Field        | Value    |
|--------------|----------|
| Entrypoint   | 0x0002   |
| Data Size    | 13 bytes |
| Instructions | 3        |

```
      00 01 02 03 04 05 06 07  08 09 0A 0B 0C 0D 0E 0F
      -- -- -- -- -- -- -- --  -- -- -- -- -- -- -- --
0000:       47 00 00 80 01 80  02 80 03 80 47 01 00       G.........G.. 
```

#### Opcodes

```
  0: 0x0002 [0x47] UPDATE_PLAYER_POS(99.866*, 36.560*, 0.357*, yaw=83.8°*)
  1: 0x000C [0x47] WAIT_PLAYER_POS_UPDATE
  2: 0x000E [0x00] END_REQSTACK()
```

### Event 101

#### Metadata

| Field        | Value    |
|--------------|----------|
| Entrypoint   | 0x000F   |
| Data Size    | 10 bytes |
| Instructions | 2        |

```
      00 01 02 03 04 05 06 07  08 09 0A 0B 0C 0D 0E 0F
      -- -- -- -- -- -- -- --  -- -- -- -- -- -- -- --
0000:                                               37                 7
0010: 04 80 05 80 06 80 07 80  00                       .........       
```

#### Opcodes

```
  0: 0x000F [0x37] UPDATE_EVENT_POSITION_AND_DIR: x=99.906*, z=42.189*, y=0.000*, direction=88.8°*
  1: 0x0018 [0x00] END_REQSTACK()
```

### Event 102

#### Metadata

| Field        | Value    |
|--------------|----------|
| Entrypoint   | 0x0019   |
| Data Size    | 14 bytes |
| Instructions | 4        |

```
      00 01 02 03 04 05 06 07  08 09 0A 0B 0C 0D 0E 0F
      -- -- -- -- -- -- -- --  -- -- -- -- -- -- -- --
0010:                             32 08 80 1F 00 00 80           2......
0020: 01 80 02 80 1F 01 00                              .......         
```

#### Opcodes

```
  0: 0x0019 [0x32] ExtData[1]->MainSpeed = 13* * 0.1
  1: 0x001C [0x1F] MOVE_ENTITY: EventEntity moves to X=99.866*, Z=36.560*, Y=0.357*
  2: 0x0024 [0x1F] MOVE_ENTITY: Update entity position (mode=1)
  3: 0x0026 [0x00] END_REQSTACK()
```

### Event 65535.1

#### Metadata

| Field        | Value    |
|--------------|----------|
| Entrypoint   | 0x0027   |
| Data Size    | 20 bytes |
| Instructions | 3        |

```
      00 01 02 03 04 05 06 07  08 09 0A 0B 0C 0D 0E 0F
      -- -- -- -- -- -- -- --  -- -- -- -- -- -- -- --
0020:                      37  09 80 0A 80 0B 80 0C 80         7........
0030: 79 00 F8 FF FF 7F 04 02  0B 01 00                 y..........     
```

#### Opcodes

```
  0: 0x0027 [0x37] UPDATE_EVENT_POSITION_AND_DIR: x=297.433*, z=214.354*, y=28.265*, direction=187.9°*
  1: 0x0030 [0x79] EventEntity looks at ??? (ID: 17498628/0x010B0204) (Basic look)
  2: 0x003A [0x00] END_REQSTACK()
```

### Event 65535.2

#### Metadata

| Field        | Value    |
|--------------|----------|
| Entrypoint   | 0x003B   |
| Data Size    | 37 bytes |
| Instructions | 5        |

```
      00 01 02 03 04 05 06 07  08 09 0A 0B 0C 0D 0E 0F
      -- -- -- -- -- -- -- --  -- -- -- -- -- -- -- --
0030:                                   03 00 00 07 7F             .....
0040: 1A 85 00 66 01 00 F8 FF  FF 7F F8 FF FF 7F 73 68  ...f..........sh
0050: 61 30 53 F8 FF FF 7F F8  FF FF 7F 73 68 61 30 00  a0S........sha0.
```

#### Opcodes

```
  0: 0x003B [0x03] ExtData[1]->WorkLocal[0] = Entity->Race
  1: 0x0040 [0x1A] CALL_SUBROUTINE(address=0x0085)
  2: 0x0043 [0x66] LOAD_EXT_SCHEDULER_MAIN: Load scheduler "sha0" with entities [EventEntity, EventEntity], work=ExtData[1]->WorkLocal[1]
  3: 0x0052 [0x53] WAIT_SCHEDULER_TASK: Wait for scheduler "sha0" with entities [EventEntity, EventEntity]
  4: 0x005F [0x00] END_REQSTACK()
```

### Event 65535.3

#### Metadata

| Field        | Value     |
|--------------|-----------|
| Entrypoint   | 0x0060    |
| Data Size    | 185 bytes |
| Instructions | 13        |

```
      00 01 02 03 04 05 06 07  08 09 0A 0B 0C 0D 0E 0F
      -- -- -- -- -- -- -- --  -- -- -- -- -- -- -- --
0060: 03 00 00 07 7F 1A 85 00  66 01 00 F8 FF FF 7F F8  ........f.......
0070: FF FF 7F 73 68 61 31 53  F8 FF FF 7F F8 FF FF 7F  ...sha1S........
0080: 73 68 61 31 00 03 01 00  00 00 02 01 00 0D 80 05  sha1............
0090: 9A 00 08 01 00 0E 80 01  9F 00 08 01 00 0F 80 14  ................
00A0: 01 00 10 80 07 01 00 11  80 1B 03 01 00 00 00 02  ................
00B0: 01 00 0D 80 05 BF 00 08  01 00 0E 80 01 C4 00 08  ................
00C0: 01 00 0F 80 14 01 00 10  80 07 01 00 12 80 1B 03  ................
00D0: 01 00 00 00 02 01 00 0D  80 05 E4 00 08 01 00 0E  ................
00E0: 80 01 E9 00 08 01 00 0F  80 14 01 00 10 80 07 01  ................
00F0: 00 13 80 1B 03 01 00 00  00 02 01 00 0D 80 05 09  ................
0100: 01 08 01 00 0E 80 01 0E  01 08 01 00 0F 80 14 01  ................
0110: 00 10 80 07 01 00 14 80  1B                       .........       
```

#### Opcodes

```
  0: 0x0060 [0x03] ExtData[1]->WorkLocal[0] = Entity->Race
  1: 0x0065 [0x1A] CALL_SUBROUTINE(address=0x0085)
  2: 0x0068 [0x66] LOAD_EXT_SCHEDULER_MAIN: Load scheduler "sha1" with entities [EventEntity, EventEntity], work=ExtData[1]->WorkLocal[1]
  3: 0x0077 [0x53] WAIT_SCHEDULER_TASK: Wait for scheduler "sha1" with entities [EventEntity, EventEntity]
  4: 0x0084 [0x00] END_REQSTACK()

SUBROUTINE_0085:
  5: 0x0085 [0x03] ExtData[1]->WorkLocal[1] = ExtData[1]->WorkLocal[0]
  6: 0x008A [0x02] IF !(ExtData[1]->WorkLocal[1] > 5*) GOTO 0x009A
  7: 0x0092 [0x08] ExtData[1]->WorkLocal[1] -= 1*
  8: 0x0097 [0x01] GOTO 0x009F
  9: 0x009A [0x08] ExtData[1]->WorkLocal[1] -= 2*

SUBROUTINE_009F:
 10: 0x009F [0x14] ExtData[1]->WorkLocal[1] *= 10*
 11: 0x00A4 [0x07] ExtData[1]->WorkLocal[1] += 9*
 12: 0x00A9 [0x1B] RETURN
```

#### Data or dead code:

```
# Dead code (unreachable instructions):
     0x00AA [0x03] ExtData[1]->WorkLocal[1] = ExtData[1]->WorkLocal[0]
     0x00AF [0x02] IF !(ExtData[1]->WorkLocal[1] > 5*) GOTO 0x00BF
     0x00B7 [0x08] ExtData[1]->WorkLocal[1] -= 1*
     0x00BC [0x01] GOTO 0x00C4
     0x00BF [0x08] ExtData[1]->WorkLocal[1] -= 2*
     0x00C4 [0x14] ExtData[1]->WorkLocal[1] *= 10*
     0x00C9 [0x07] ExtData[1]->WorkLocal[1] += 70*
     0x00CE [0x1B] RETURN
     0x00CF [0x03] ExtData[1]->WorkLocal[1] = ExtData[1]->WorkLocal[0]
     0x00D4 [0x02] IF !(ExtData[1]->WorkLocal[1] > 5*) GOTO 0x00E4
     0x00DC [0x08] ExtData[1]->WorkLocal[1] -= 1*
     0x00E1 [0x01] GOTO 0x00E9
     0x00E4 [0x08] ExtData[1]->WorkLocal[1] -= 2*
     0x00E9 [0x14] ExtData[1]->WorkLocal[1] *= 10*
     0x00EE [0x07] ExtData[1]->WorkLocal[1] += 140*
     0x00F3 [0x1B] RETURN
     0x00F4 [0x03] ExtData[1]->WorkLocal[1] = ExtData[1]->WorkLocal[0]
     0x00F9 [0x02] IF !(ExtData[1]->WorkLocal[1] > 5*) GOTO 0x0109
     0x0101 [0x08] ExtData[1]->WorkLocal[1] -= 1*
     0x0106 [0x01] GOTO 0x010E
     0x0109 [0x08] ExtData[1]->WorkLocal[1] -= 2*
     0x010E [0x14] ExtData[1]->WorkLocal[1] *= 10*
     0x0113 [0x07] ExtData[1]->WorkLocal[1] += 210*
     0x0118 [0x1B] RETURN
```

### Event 65535.4

#### Metadata

| Field        | Value   |
|--------------|---------|
| Entrypoint   | 0x0119  |
| Data Size    | 9 bytes |
| Instructions | 3       |

```
      00 01 02 03 04 05 06 07  08 09 0A 0B 0C 0D 0E 0F
      -- -- -- -- -- -- -- --  -- -- -- -- -- -- -- --
0110:                             22 00 94 01 F8 FF FF           "......
0120: 7F 00                                             ..              
```

#### Opcodes

```
  0: 0x0119 [0x22] ENTITY_HIDE_FLAG(enabled=0x00)
  1: 0x011B [0x94] EventEntity->Render.Flags3 ^= 0x01
  2: 0x0121 [0x00] END_REQSTACK()
```

### Event 65535.5

#### Metadata

| Field        | Value    |
|--------------|----------|
| Entrypoint   | 0x0122   |
| Data Size    | 14 bytes |
| Instructions | 4        |

```
      00 01 02 03 04 05 06 07  08 09 0A 0B 0C 0D 0E 0F
      -- -- -- -- -- -- -- --  -- -- -- -- -- -- -- --
0120:       32 15 80 1F 00 16  80 17 80 18 80 1F 01 00    2.............
```

#### Opcodes

```
  0: 0x0122 [0x32] ExtData[1]->MainSpeed = 30* * 0.1
  1: 0x0125 [0x1F] MOVE_ENTITY: EventEntity moves to X=109.997*, Z=-115.312*, Y=0.499*
  2: 0x012D [0x1F] MOVE_ENTITY: Update entity position (mode=1)
  3: 0x012F [0x00] END_REQSTACK()
```

### Event 65535.6

#### Metadata

| Field        | Value    |
|--------------|----------|
| Entrypoint   | 0x0130   |
| Data Size    | 24 bytes |
| Instructions | 4        |

```
      00 01 02 03 04 05 06 07  08 09 0A 0B 0C 0D 0E 0F
      -- -- -- -- -- -- -- --  -- -- -- -- -- -- -- --
0130: 03 00 00 07 7F 1A 85 00  66 01 00 F8 FF FF 7F F8  ........f.......
0140: FF FF 7F 74 6C 6B 30 00                           ...tlk0.        
```

#### Opcodes

```
  0: 0x0130 [0x03] ExtData[1]->WorkLocal[0] = Entity->Race
  1: 0x0135 [0x1A] CALL_SUBROUTINE(address=0x0085)
  2: 0x0138 [0x66] LOAD_EXT_SCHEDULER_MAIN: Load scheduler "tlk0" with entities [EventEntity, EventEntity], work=ExtData[1]->WorkLocal[1]
  3: 0x0147 [0x00] END_REQSTACK()
```

### Event 65535.7

#### Metadata

| Field        | Value    |
|--------------|----------|
| Entrypoint   | 0x0148   |
| Data Size    | 24 bytes |
| Instructions | 4        |

```
      00 01 02 03 04 05 06 07  08 09 0A 0B 0C 0D 0E 0F
      -- -- -- -- -- -- -- --  -- -- -- -- -- -- -- --
0140:                          03 00 00 07 7F 1A 85 00          ........
0150: 66 01 00 F8 FF FF 7F F8  FF FF 7F 74 6C 6B 31 00  f..........tlk1.
```

#### Opcodes

```
  0: 0x0148 [0x03] ExtData[1]->WorkLocal[0] = Entity->Race
  1: 0x014D [0x1A] CALL_SUBROUTINE(address=0x0085)
  2: 0x0150 [0x66] LOAD_EXT_SCHEDULER_MAIN: Load scheduler "tlk1" with entities [EventEntity, EventEntity], work=ExtData[1]->WorkLocal[1]
  3: 0x015F [0x00] END_REQSTACK()
```

### Event 65535.8

#### Metadata

| Field        | Value    |
|--------------|----------|
| Entrypoint   | 0x0160   |
| Data Size    | 42 bytes |
| Instructions | 6        |

```
      00 01 02 03 04 05 06 07  08 09 0A 0B 0C 0D 0E 0F
      -- -- -- -- -- -- -- --  -- -- -- -- -- -- -- --
0160: 03 00 00 07 7F 1A 85 00  66 01 00 F8 FF FF 7F F8  ........f.......
0170: FF FF 7F 74 6C 6B 30 1C  19 80 66 01 00 F8 FF FF  ...tlk0...f.....
0180: 7F F8 FF FF 7F 74 6C 6B  31 00                    .....tlk1.      
```

#### Opcodes

```
  0: 0x0160 [0x03] ExtData[1]->WorkLocal[0] = Entity->Race
  1: 0x0165 [0x1A] CALL_SUBROUTINE(address=0x0085)
  2: 0x0168 [0x66] LOAD_EXT_SCHEDULER_MAIN: Load scheduler "tlk0" with entities [EventEntity, EventEntity], work=ExtData[1]->WorkLocal[1]
  3: 0x0177 [0x1C] WAIT(60* ticks)
  4: 0x017A [0x66] LOAD_EXT_SCHEDULER_MAIN: Load scheduler "tlk1" with entities [EventEntity, EventEntity], work=ExtData[1]->WorkLocal[1]
  5: 0x0189 [0x00] END_REQSTACK()
```

### Event 18

#### Metadata

| Field        | Value      |
|--------------|------------|
| Entrypoint   | 0x018A     |
| Data Size    | 1556 bytes |
| Instructions | 192        |

```
      00 01 02 03 04 05 06 07  08 09 0A 0B 0C 0D 0E 0F
      -- -- -- -- -- -- -- --  -- -- -- -- -- -- -- --
0180:                                42 5D 06 80 1A 80            B]....
0190: 45 1B 80 F8 FF FF 7F F8  FF FF 7F 66 64 6F 31 06  E..........fdo1.
01A0: 80 55 1B 80 F8 FF FF 7F  F8 FF FF 7F 66 64 6F 31  .U..........fdo1
01B0: 46 01 38 1C 80 2F 00 1A  02 0B 01 4E 00 1A 02 0B  F.8../.....N....
01C0: 01 2F 00 1B 02 0B 01 4E  00 1B 02 0B 01 27 0F 1B  ./.....N.....'..
01D0: 02 0B 01 02 2A 0F 1B 02  0B 01 37 1D 80 1E 80 1F  ....*.....7.....
01E0: 80 20 80 27 0A 1A 02 0B  01 02 27 0F F0 FF FF 7F  . .'......'.....
01F0: 0E 45 21 80 F0 FF FF 7F  F0 FF FF 7F 73 30 33 37  .E!.........s037
0200: 06 80 1C 1A 80 45 1B 80  F8 FF FF 7F F8 FF FF 7F  .....E..........
0210: 66 64 69 32 06 80 2A 0A  1A 02 0B 01 2A 0F F0 FF  fdi2..*.....*...
0220: FF 7F 1C 1A 80 4A 1A 02  0B 01 1B 02 0B 01 52 21  .....J........R!
0230: 80 F0 FF FF 7F F0 FF FF  7F 73 30 33 37 45 21 80  .........s037E!.
0240: F0 FF FF 7F F0 FF FF 7F  73 30 33 36 06 80 79 00  ........s036..y.
0250: 1A 02 0B 01 1B 02 0B 01  2B 1A 02 0B 01 22 80 23  ........+....".#
0260: 4A F0 FF FF 7F 1B 02 0B  01 79 00 F0 FF FF 7F 1A  J........y......
0270: 02 0B 01 1C 1A 80 52 21  80 F0 FF FF 7F F0 FF FF  ......R!........
0280: 7F 73 30 33 36 5C 00 23  80 5C 01 23 80 45 21 80  .s036\.#.\.#.E!.
0290: F0 FF FF 7F F0 FF FF 7F  73 30 33 35 06 80 55 21  ........s035..U!
02A0: 80 F0 FF FF 7F F0 FF FF  7F 73 30 33 35 1C 1A 80  .........s035...
02B0: 52 21 80 F0 FF FF 7F F0  FF FF 7F 73 30 33 35 45  R!.........s035E
02C0: 21 80 F0 FF FF 7F F0 FF  FF 7F 73 30 33 38 06 80  !.........s038..
02D0: 27 0F 1A 02 0B 01 03 2A  0F 1A 02 0B 01 4A 1A 02  '......*.....J..
02E0: 0B 01 1B 02 0B 01 2B 1A  02 0B 01 24 80 23 79 00  ......+....$.#y.
02F0: 1B 02 0B 01 1A 02 0B 01  1C 19 80 66 25 80 1A 02  ...........f%...
0300: 0B 01 1A 02 0B 01 73 68  61 30 52 21 80 F0 FF FF  ......sha0R!....
0310: 7F F0 FF FF 7F 73 30 33  38 45 21 80 F0 FF FF 7F  .....s038E!.....
0320: F0 FF FF 7F 73 30 33 39  06 80 27 0A F0 FF FF 7F  ....s039..'.....
0330: 0F 2B 1A 02 0B 01 26 80  23 2B 1B 02 0B 01 27 80  .+....&.#+....'.
0340: 23 2A 0A F0 FF FF 7F 4A  F0 FF FF 7F 1B 02 0B 01  #*.....J........
0350: 79 00 F0 FF FF 7F 1B 02  0B 01 1C 19 80 2B 1B 02  y............+..
0360: 0B 01 28 80 23 52 21 80  F0 FF FF 7F F0 FF FF 7F  ..(.#R!.........
0370: 73 30 33 39 45 21 80 F0  FF FF 7F F0 FF FF 7F 73  s039E!.........s
0380: 30 34 30 06 80 1C 29 80  2B 1A 02 0B 01 2A 80 23  040...).+....*.#
0390: 2B 1B 02 0B 01 2B 80 23  2B 1B 02 0B 01 2C 80 23  +....+.#+....,.#
03A0: 2B 1B 02 0B 01 2D 80 23  1C 1A 80 66 25 80 1A 02  +....-.#...f%...
03B0: 0B 01 1A 02 0B 01 73 69  72 30 2B 1A 02 0B 01 2E  ......sir0+.....
03C0: 80 23 1C 1A 80 52 21 80  F0 FF FF 7F F0 FF FF 7F  .#...R!.........
03D0: 73 30 34 30 45 21 80 F0  FF FF 7F F0 FF FF 7F 73  s040E!.........s
03E0: 30 34 31 06 80 1C 2F 80  2B 1B 02 0B 01 30 80 23  041.../.+....0.#
03F0: 2B 1B 02 0B 01 31 80 23  45 32 80 F0 FF FF 7F F0  +....1.#E2......
0400: FF FF 7F 77 68 6F 31 06  80 55 32 80 F0 FF FF 7F  ...who1..U2.....
0410: F0 FF FF 7F 77 68 6F 31  52 21 80 F0 FF FF 7F F0  ....who1R!......
0420: FF FF 7F 73 30 34 31 2F  00 1D 02 0B 01 4E 00 1D  ...s041/.....N..
0430: 02 0B 01 45 21 80 F0 FF  FF 7F F0 FF FF 7F 73 30  ...E!.........s0
0440: 34 32 06 80 1C 19 80 66  33 80 1D 02 0B 01 1D 02  42.....f3.......
0450: 0B 01 73 67 6D 30 45 32  80 F0 FF FF 7F F0 FF FF  ..sgm0E2........
0460: 7F 77 68 69 31 06 80 1C  1A 80 2B 1D 02 0B 01 34  .whi1.....+....4
0470: 80 23 1C 1A 80 2B 1B 02  0B 01 35 80 23 1C 19 80  .#...+....5.#...
0480: 45 1B 80 F8 FF FF 7F F8  FF FF 7F 6F 76 6C 31 06  E..........ovl1.
0490: 80 52 21 80 F0 FF FF 7F  F0 FF FF 7F 73 30 34 32  .R!.........s042
04A0: 2F 00 1C 02 0B 01 4E 00  1C 02 0B 01 45 21 80 F0  /.....N.....E!..
04B0: FF FF 7F F0 FF FF 7F 73  30 34 33 06 80 1C 19 80  .......s043.....
04C0: 27 0F 1C 02 0B 01 02 2A  0F 1C 02 0B 01 4B 1C 02  '......*.....K..
04D0: 0B 01 36 80 1C 1A 80 79  00 1B 02 0B 01 1C 02 0B  ..6....y........
04E0: 01 45 1B 80 F8 FF FF 7F  F8 FF FF 7F 66 64 6F 31  .E..........fdo1
04F0: 06 80 55 1B 80 F8 FF FF  7F F8 FF FF 7F 66 64 6F  ..U..........fdo
0500: 31 52 21 80 F0 FF FF 7F  F0 FF FF 7F 73 30 34 33  1R!.........s043
0510: 66 33 80 1D 02 0B 01 1D  02 0B 01 74 61 74 30 66  f3.........tat0f
0520: 37 80 1C 02 0B 01 1C 02  0B 01 6B 69 64 30 66 37  7.........kid0f7
0530: 80 1C 02 0B 01 1C 02 0B  01 68 75 6B 30 45 21 80  .........huk0E!.
0540: F0 FF FF 7F F0 FF FF 7F  73 30 34 34 06 80 1C 19  ........s044....
0550: 80 2B 1B 02 0B 01 38 80  23 1C 19 80 27 0F 1D 02  .+....8.#...'...
0560: 0B 01 02 45 1B 80 F8 FF  FF 7F F8 FF FF 7F 66 64  ...E..........fd
0570: 69 31 06 80 1C 19 80 2B  1D 02 0B 01 39 80 23 1C  i1.....+....9.#.
0580: 3A 80 45 32 80 F0 FF FF  7F F0 FF FF 7F 77 68 6F  :.E2.........who
0590: 31 06 80 55 32 80 F0 FF  FF 7F F0 FF FF 7F 77 68  1..U2.........wh
05A0: 6F 31 52 21 80 F0 FF FF  7F F0 FF FF 7F 73 30 34  o1R!.........s04
05B0: 34 1C 29 80 2B 1B 02 0B  01 3B 80 23 1C 2F 80 45  4.).+....;.#./.E
05C0: 21 80 F0 FF FF 7F F0 FF  FF 7F 73 30 34 35 06 80  !.........s045..
05D0: 45 32 80 F0 FF FF 7F F0  FF FF 7F 77 68 69 31 06  E2.........whi1.
05E0: 80 1C 1A 80 2B 1B 02 0B  01 3C 80 23 79 00 1B 02  ....+....<.#y...
05F0: 0B 01 1C 02 0B 01 1C 19  80 27 0F 1D 02 0B 01 03  .........'......
0600: 2B 1B 02 0B 01 3D 80 23  2A 0F 1D 02 0B 01 1C 19  +....=.#*.......
0610: 80 52 21 80 F0 FF FF 7F  F0 FF FF 7F 73 30 34 35  .R!.........s045
0620: 45 21 80 F0 FF FF 7F F0  FF FF 7F 73 30 35 30 06  E!.........s050.
0630: 80 1C 29 80 2B 1B 02 0B  01 3E 80 23 1C 1A 80 45  ..).+....>.#...E
0640: 1B 80 F8 FF FF 7F F8 FF  FF 7F 6F 76 6C 32 06 80  ..........ovl2..
0650: 52 21 80 F0 FF FF 7F F0  FF FF 7F 73 30 35 30 45  R!.........s050E
0660: 21 80 F0 FF FF 7F F0 FF  FF 7F 73 30 34 36 06 80  !.........s046..
0670: 1C 19 80 2B 1B 02 0B 01  3F 80 23 45 1B 80 F8 FF  ...+....?.#E....
0680: FF 7F F8 FF FF 7F 6F 76  6C 31 06 80 52 21 80 F0  ......ovl1..R!..
0690: FF FF 7F F0 FF FF 7F 73  30 34 36 45 21 80 F0 FF  .......s046E!...
06A0: FF 7F F0 FF FF 7F 73 30  34 37 06 80 4E 00 1F 02  ......s047..N...
06B0: 0B 01 2F 00 1F 02 0B 01  2B 1B 02 0B 01 40 80 23  ../.....+....@.#
06C0: 1C 29 80 79 00 1B 02 0B  01 1F 02 0B 01 1C 1A 80  .).y............
06D0: 81 00 1B 02 0B 01 1C 19  80 45 1B 80 F8 FF FF 7F  .........E......
06E0: F8 FF FF 7F 6F 76 6C 32  06 80 52 21 80 F0 FF FF  ....ovl2..R!....
06F0: 7F F0 FF FF 7F 73 30 34  37 4E 01 1F 02 0B 01 45  .....s047N.....E
0700: 21 80 F0 FF FF 7F F0 FF  FF 7F 73 30 34 38 06 80  !.........s048..
0710: 1C 15 80 2B 1A 02 0B 01  41 80 23 52 21 80 F0 FF  ...+....A.#R!...
0720: FF 7F F0 FF FF 7F 73 30  34 38 45 21 80 F0 FF FF  ......s048E!....
0730: 7F F0 FF FF 7F 73 30 34  39 06 80 1C 42 80 5D 06  .....s049...B.].
0740: 80 1A 80 45 1B 80 F8 FF  FF 7F F8 FF FF 7F 66 64  ...E..........fd
0750: 6F 32 06 80 55 1B 80 F8  FF FF 7F F8 FF FF 7F 66  o2..U..........f
0760: 64 6F 32 52 21 80 F0 FF  FF 7F F0 FF FF 7F 73 30  do2R!.........s0
0770: 34 39 4E 01 1A 02 0B 01  4E 01 1B 02 0B 01 5C 00  49N.....N.....\.
0780: 06 80 5C 01 06 80 46 00  1C 43 80 45 1B 80 F8 FF  ..\...F..C.E....
0790: FF 7F F8 FF FF 7F 66 64  69 31 06 80 21 00        ......fdi1..!.  
```

#### Opcodes

```
  0: 0x018A [0x42] SET_CLI_EVENT_CANCEL_DATA()
  1: 0x018B [0x5D] SET_MUSIC_VOLUME(volume=0*, fade_time=120*)
  2: 0x0190 [0x45] LOAD_SCHEDULED_TASK: Load scheduler "fdo1" with entities [EventEntity, EventEntity], work=[200*, 0*]
  3: 0x01A1 [0x55] WAIT_LOAD_SCHEDULER: Wait for scheduler "fdo1" with entities [EventEntity, EventEntity], work=200*
  4: 0x01B0 [0x46] CAMERA_CONTROL: Disable user control
  5: 0x01B2 [0x38] SET_CLIENT_EVENT_MODE(mode=19*)
  6: 0x01B5 [0x2F] Gubokka (ID: 17498650/0x010B021A)->Render.Flags0 &= ~0x80000 // Bit 19
  7: 0x01BB [0x4E] SET_ENTITY_HIDE_FLAG: Show Gubokka (ID: 17498650/0x010B021A)
  8: 0x01C1 [0x2F] Vigsterkr (ID: 17498651/0x010B021B)->Render.Flags0 &= ~0x80000 // Bit 19
  9: 0x01C7 [0x4E] SET_ENTITY_HIDE_FLAG: Show Vigsterkr (ID: 17498651/0x010B021B)
 10: 0x01CD [0x27] REQ_SET(priority=0x0F, entity_id=Vigsterkr (ID: 17498651/0x010B021B), tag_num=0x02)
 11: 0x01D4 [0x2A] GET_REQ_LEVEL(level=15, entity_id=Vigsterkr (ID: 17498651/0x010B021B))
 12: 0x01DA [0x37] UPDATE_EVENT_POSITION_AND_DIR: x=139.251*, z=205.228*, y=-8.570*, direction=86.0°*
 13: 0x01E3 [0x27] REQ_SET(priority=0x0A, entity_id=Gubokka (ID: 17498650/0x010B021A), tag_num=0x02)
 14: 0x01EA [0x27] REQ_SET(priority=0x0F, entity_id=LocalPlayer, tag_num=0x0E)
 15: 0x01F1 [0x45] LOAD_SCHEDULED_TASK: Load scheduler "s037" with entities [LocalPlayer, LocalPlayer], work=[4*, 0*]
 16: 0x0202 [0x1C] WAIT(120* ticks)
 17: 0x0205 [0x45] LOAD_SCHEDULED_TASK: Load scheduler "fdi2" with entities [EventEntity, EventEntity], work=[200*, 0*]
 18: 0x0216 [0x2A] GET_REQ_LEVEL(level=10, entity_id=Gubokka (ID: 17498650/0x010B021A))
 19: 0x021C [0x2A] GET_REQ_LEVEL(level=15, entity_id=LocalPlayer)
 20: 0x0222 [0x1C] WAIT(120* ticks)
 21: 0x0225 [0x4A] Gubokka (ID: 17498650/0x010B021A) looks at Vigsterkr (ID: 17498651/0x010B021B)
 22: 0x022E [0x52] END_LOAD_SCHEDULER: End scheduler "s037" with entities [LocalPlayer, LocalPlayer], work=4*
 23: 0x023D [0x45] LOAD_SCHEDULED_TASK: Load scheduler "s036" with entities [LocalPlayer, LocalPlayer], work=[4*, 0*]
 24: 0x024E [0x79] Gubokka (ID: 17498650/0x010B021A) looks at Vigsterkr (ID: 17498651/0x010B021B) (Basic look)
 25: 0x0258 [0x2B] Gubokka (ID: 17498650/0x010B021A) [7570*]:
    → "Th-that's...!"
 26: 0x025F [0x23] WAIT_FOR_DIALOG_INTERACTION
 27: 0x0260 [0x4A] LocalPlayer looks at Vigsterkr (ID: 17498651/0x010B021B)
 28: 0x0269 [0x79] LocalPlayer looks at Gubokka (ID: 17498650/0x010B021A) (Basic look)
 29: 0x0273 [0x1C] WAIT(120* ticks)
 30: 0x0276 [0x52] END_LOAD_SCHEDULER: End scheduler "s036" with entities [LocalPlayer, LocalPlayer], work=4*
 31: 0x0285 [0x5C] MUSIC_CONTROL: Set Idle (Day) music to song 161*
 32: 0x0289 [0x5C] MUSIC_CONTROL: Set Idle (Night) music to song 161*
 33: 0x028D [0x45] LOAD_SCHEDULED_TASK: Load scheduler "s035" with entities [LocalPlayer, LocalPlayer], work=[4*, 0*]
 34: 0x029E [0x55] WAIT_LOAD_SCHEDULER: Wait for scheduler "s035" with entities [LocalPlayer, LocalPlayer], work=4*
 35: 0x02AD [0x1C] WAIT(120* ticks)
 36: 0x02B0 [0x52] END_LOAD_SCHEDULER: End scheduler "s035" with entities [LocalPlayer, LocalPlayer], work=4*
 37: 0x02BF [0x45] LOAD_SCHEDULED_TASK: Load scheduler "s038" with entities [LocalPlayer, LocalPlayer], work=[4*, 0*]
 38: 0x02D0 [0x27] REQ_SET(priority=0x0F, entity_id=Gubokka (ID: 17498650/0x010B021A), tag_num=0x03)
 39: 0x02D7 [0x2A] GET_REQ_LEVEL(level=15, entity_id=Gubokka (ID: 17498650/0x010B021A))
 40: 0x02DD [0x4A] Gubokka (ID: 17498650/0x010B021A) looks at Vigsterkr (ID: 17498651/0x010B021B)
 41: 0x02E6 [0x2B] Gubokka (ID: 17498650/0x010B021A) [7571*]:
    → "Hey... Hey! Are you all right!?"
 42: 0x02ED [0x23] WAIT_FOR_DIALOG_INTERACTION
 43: 0x02EE [0x79] Vigsterkr (ID: 17498651/0x010B021B) looks at Gubokka (ID: 17498650/0x010B021A) (Basic look)
 44: 0x02F8 [0x1C] WAIT(60* ticks)
 45: 0x02FB [0x66] LOAD_EXT_SCHEDULER_MAIN: Load scheduler "sha0" with entities [Gubokka (ID: 17498650/0x010B021A), Gubokka (ID: 17498650/0x010B021A)], work=69*
 46: 0x030A [0x52] END_LOAD_SCHEDULER: End scheduler "s038" with entities [LocalPlayer, LocalPlayer], work=4*
 47: 0x0319 [0x45] LOAD_SCHEDULED_TASK: Load scheduler "s039" with entities [LocalPlayer, LocalPlayer], work=[4*, 0*]
 48: 0x032A [0x27] REQ_SET(priority=0x0A, entity_id=LocalPlayer, tag_num=0x0F)
 49: 0x0331 [0x2B] Gubokka (ID: 17498650/0x010B021A) [7572*]:
    → "Hey! C'mon, hang in there!"
 50: 0x0338 [0x23] WAIT_FOR_DIALOG_INTERACTION
 51: 0x0339 [0x2B] Vigsterkr (ID: 17498651/0x010B021B) [7573*]:
    → "Ugh... Huh? Y-you are...? Oh... ...So you're safe..."
 52: 0x0340 [0x23] WAIT_FOR_DIALOG_INTERACTION
 53: 0x0341 [0x2A] GET_REQ_LEVEL(level=10, entity_id=LocalPlayer)
 54: 0x0347 [0x4A] LocalPlayer looks at Vigsterkr (ID: 17498651/0x010B021B)
 55: 0x0350 [0x79] LocalPlayer looks at Vigsterkr (ID: 17498651/0x010B021B) (Basic look)
 56: 0x035A [0x1C] WAIT(60* ticks)
 57: 0x035D [0x2B] Vigsterkr (ID: 17498651/0x010B021B) [7574*]:
    → "...Ow! P-pathetic..."
 58: 0x0364 [0x23] WAIT_FOR_DIALOG_INTERACTION
 59: 0x0365 [0x52] END_LOAD_SCHEDULER: End scheduler "s039" with entities [LocalPlayer, LocalPlayer], work=4*
 60: 0x0374 [0x45] LOAD_SCHEDULED_TASK: Load scheduler "s040" with entities [LocalPlayer, LocalPlayer], work=[4*, 0*]
 61: 0x0385 [0x1C] WAIT(90* ticks)
 62: 0x0388 [0x2B] Gubokka (ID: 17498650/0x010B021A) [7575*]:
    → "I'm sorry... I'm really sorry! I left you alone to save my own skin..."
 63: 0x038F [0x23] WAIT_FOR_DIALOG_INTERACTION
 64: 0x0390 [0x2B] Vigsterkr (ID: 17498651/0x010B021B) [7576*]:
    → "...Heh... Don't...let it bother you... You'd have to be a crazy bastard...to be unafraid of a beast like that."
 65: 0x0397 [0x23] WAIT_FOR_DIALOG_INTERACTION
 66: 0x0398 [0x2B] Vigsterkr (ID: 17498651/0x010B021B) [7577*]:
    → "M-more importantly... You're...safe..."
 67: 0x039F [0x23] WAIT_FOR_DIALOG_INTERACTION
 68: 0x03A0 [0x2B] Vigsterkr (ID: 17498651/0x010B021B) [7578*]:
    → "Imagine if you would've stayed and been done in yourself... What a joke that would be..."
 69: 0x03A7 [0x23] WAIT_FOR_DIALOG_INTERACTION
 70: 0x03A8 [0x1C] WAIT(120* ticks)
 71: 0x03AB [0x66] LOAD_EXT_SCHEDULER_MAIN: Load scheduler "sir0" with entities [Gubokka (ID: 17498650/0x010B021A), Gubokka (ID: 17498650/0x010B021A)], work=69*
 72: 0x03BA [0x2B] Gubokka (ID: 17498650/0x010B021A) [7579*]:
    → "What have I done...? How could I have let this happen...!?"
 73: 0x03C1 [0x23] WAIT_FOR_DIALOG_INTERACTION
 74: 0x03C2 [0x1C] WAIT(120* ticks)
 75: 0x03C5 [0x52] END_LOAD_SCHEDULER: End scheduler "s040" with entities [LocalPlayer, LocalPlayer], work=4*
 76: 0x03D4 [0x45] LOAD_SCHEDULED_TASK: Load scheduler "s041" with entities [LocalPlayer, LocalPlayer], work=[4*, 0*]
 77: 0x03E5 [0x1C] WAIT(180* ticks)
 78: 0x03E8 [0x2B] Vigsterkr (ID: 17498651/0x010B021B) [7580*]:
    → "...Heh... Don't worry about it..."
 79: 0x03EF [0x23] WAIT_FOR_DIALOG_INTERACTION
 80: 0x03F0 [0x2B] Vigsterkr (ID: 17498651/0x010B021B) [7581*]:
    → "Actually... Long ago, someone saved me, too."
 81: 0x03F7 [0x23] WAIT_FOR_DIALOG_INTERACTION
 82: 0x03F8 [0x45] LOAD_SCHEDULED_TASK: Load scheduler "who1" with entities [LocalPlayer, LocalPlayer], work=[201*, 0*]
 83: 0x0409 [0x55] WAIT_LOAD_SCHEDULER: Wait for scheduler "who1" with entities [LocalPlayer, LocalPlayer], work=201*
 84: 0x0418 [0x52] END_LOAD_SCHEDULER: End scheduler "s041" with entities [LocalPlayer, LocalPlayer], work=4*
 85: 0x0427 [0x2F] Vigsterkr (ID: 17498653/0x010B021D)->Render.Flags0 &= ~0x80000 // Bit 19
 86: 0x042D [0x4E] SET_ENTITY_HIDE_FLAG: Show Vigsterkr (ID: 17498653/0x010B021D)
 87: 0x0433 [0x45] LOAD_SCHEDULED_TASK: Load scheduler "s042" with entities [LocalPlayer, LocalPlayer], work=[4*, 0*]
 88: 0x0444 [0x1C] WAIT(60* ticks)
 89: 0x0447 [0x66] LOAD_EXT_SCHEDULER_MAIN: Load scheduler "sgm0" with entities [Vigsterkr (ID: 17498653/0x010B021D), Vigsterkr (ID: 17498653/0x010B021D)], work=3*
 90: 0x0456 [0x45] LOAD_SCHEDULED_TASK: Load scheduler "whi1" with entities [LocalPlayer, LocalPlayer], work=[201*, 0*]
 91: 0x0467 [0x1C] WAIT(120* ticks)
 92: 0x046A [0x2B] Vigsterkr (ID: 17498653/0x010B021D) [7582*]:
    → "Dammit! It's too strong!"
 93: 0x0471 [0x23] WAIT_FOR_DIALOG_INTERACTION
 94: 0x0472 [0x1C] WAIT(120* ticks)
 95: 0x0475 [0x2B] Vigsterkr (ID: 17498651/0x010B021B) [7583*]:
    → "Just when I thought I was done for, a man appeared out of the blue and rescued me..."
 96: 0x047C [0x23] WAIT_FOR_DIALOG_INTERACTION
 97: 0x047D [0x1C] WAIT(60* ticks)
 98: 0x0480 [0x45] LOAD_SCHEDULED_TASK: Load scheduler "ovl1" with entities [EventEntity, EventEntity], work=[200*, 0*]
 99: 0x0491 [0x52] END_LOAD_SCHEDULER: End scheduler "s042" with entities [LocalPlayer, LocalPlayer], work=4*
100: 0x04A0 [0x2F] Gomoya (ID: 17498652/0x010B021C)->Render.Flags0 &= ~0x80000 // Bit 19
101: 0x04A6 [0x4E] SET_ENTITY_HIDE_FLAG: Show Gomoya (ID: 17498652/0x010B021C)
102: 0x04AC [0x45] LOAD_SCHEDULED_TASK: Load scheduler "s043" with entities [LocalPlayer, LocalPlayer], work=[4*, 0*]
103: 0x04BD [0x1C] WAIT(60* ticks)
104: 0x04C0 [0x27] REQ_SET(priority=0x0F, entity_id=Gomoya (ID: 17498652/0x010B021C), tag_num=0x02)
105: 0x04C7 [0x2A] GET_REQ_LEVEL(level=15, entity_id=Gomoya (ID: 17498652/0x010B021C))
106: 0x04CD [0x4B] UPDATE_ENTITY_YAW(entity=Gomoya (ID: 17498652/0x010B021C), yaw=10.9°*)
107: 0x04D4 [0x1C] WAIT(120* ticks)
108: 0x04D7 [0x79] Vigsterkr (ID: 17498651/0x010B021B) looks at Gomoya (ID: 17498652/0x010B021C) (Basic look)
109: 0x04E1 [0x45] LOAD_SCHEDULED_TASK: Load scheduler "fdo1" with entities [EventEntity, EventEntity], work=[200*, 0*]
110: 0x04F2 [0x55] WAIT_LOAD_SCHEDULER: Wait for scheduler "fdo1" with entities [EventEntity, EventEntity], work=200*
111: 0x0501 [0x52] END_LOAD_SCHEDULER: End scheduler "s043" with entities [LocalPlayer, LocalPlayer], work=4*
112: 0x0510 [0x66] LOAD_EXT_SCHEDULER_MAIN: Load scheduler "tat0" with entities [Vigsterkr (ID: 17498653/0x010B021D), Vigsterkr (ID: 17498653/0x010B021D)], work=3*
113: 0x051F [0x66] LOAD_EXT_SCHEDULER_MAIN: Load scheduler "kid0" with entities [Gomoya (ID: 17498652/0x010B021C), Gomoya (ID: 17498652/0x010B021C)], work=62*
114: 0x052E [0x66] LOAD_EXT_SCHEDULER_MAIN: Load scheduler "huk0" with entities [Gomoya (ID: 17498652/0x010B021C), Gomoya (ID: 17498652/0x010B021C)], work=62*
115: 0x053D [0x45] LOAD_SCHEDULED_TASK: Load scheduler "s044" with entities [LocalPlayer, LocalPlayer], work=[4*, 0*]
116: 0x054E [0x1C] WAIT(60* ticks)
117: 0x0551 [0x2B] Vigsterkr (ID: 17498651/0x010B021B) [7584*]:
    → "But as soon as I was free from the monster, I grew afraid. I also ran away, leaving my rescuer behind."
118: 0x0558 [0x23] WAIT_FOR_DIALOG_INTERACTION
119: 0x0559 [0x1C] WAIT(60* ticks)
120: 0x055C [0x27] REQ_SET(priority=0x0F, entity_id=Vigsterkr (ID: 17498653/0x010B021D), tag_num=0x02)
121: 0x0563 [0x45] LOAD_SCHEDULED_TASK: Load scheduler "fdi1" with entities [EventEntity, EventEntity], work=[200*, 0*]
122: 0x0574 [0x1C] WAIT(60* ticks)
123: 0x0577 [0x2B] Vigsterkr (ID: 17498653/0x010B021D) [7585*]:
    → "Ahh...!!! H-help me!!!"
124: 0x057E [0x23] WAIT_FOR_DIALOG_INTERACTION
125: 0x057F [0x1C] WAIT(150* ticks)
126: 0x0582 [0x45] LOAD_SCHEDULED_TASK: Load scheduler "who1" with entities [LocalPlayer, LocalPlayer], work=[201*, 0*]
127: 0x0593 [0x55] WAIT_LOAD_SCHEDULER: Wait for scheduler "who1" with entities [LocalPlayer, LocalPlayer], work=201*
128: 0x05A2 [0x52] END_LOAD_SCHEDULER: End scheduler "s044" with entities [LocalPlayer, LocalPlayer], work=4*
129: 0x05B1 [0x1C] WAIT(90* ticks)
130: 0x05B4 [0x2B] Vigsterkr (ID: 17498651/0x010B021B) [7586*]:
    → "When I began to wonder about the man and turned around, he was already lying in a bloody heap. He had given his life to save mine..."
131: 0x05BB [0x23] WAIT_FOR_DIALOG_INTERACTION
132: 0x05BC [0x1C] WAIT(180* ticks)
133: 0x05BF [0x45] LOAD_SCHEDULED_TASK: Load scheduler "s045" with entities [LocalPlayer, LocalPlayer], work=[4*, 0*]
134: 0x05D0 [0x45] LOAD_SCHEDULED_TASK: Load scheduler "whi1" with entities [LocalPlayer, LocalPlayer], work=[201*, 0*]
135: 0x05E1 [0x1C] WAIT(120* ticks)
136: 0x05E4 [0x2B] Vigsterkr (ID: 17498651/0x010B021B) [7587*]:
    → "He made me want to use my power to help others... No, he showed me that using the strength we have for the sake of others is our duty..."
137: 0x05EB [0x23] WAIT_FOR_DIALOG_INTERACTION
138: 0x05EC [0x79] Vigsterkr (ID: 17498651/0x010B021B) looks at Gomoya (ID: 17498652/0x010B021C) (Basic look)
139: 0x05F6 [0x1C] WAIT(60* ticks)
140: 0x05F9 [0x27] REQ_SET(priority=0x0F, entity_id=Vigsterkr (ID: 17498653/0x010B021D), tag_num=0x03)
141: 0x0600 [0x2B] Vigsterkr (ID: 17498651/0x010B021B) [7588*]:
    → "I have a favor to ask of you..."
142: 0x0607 [0x23] WAIT_FOR_DIALOG_INTERACTION
143: 0x0608 [0x2A] GET_REQ_LEVEL(level=15, entity_id=Vigsterkr (ID: 17498653/0x010B021D))
144: 0x060E [0x1C] WAIT(60* ticks)
145: 0x0611 [0x52] END_LOAD_SCHEDULER: End scheduler "s045" with entities [LocalPlayer, LocalPlayer], work=4*
146: 0x0620 [0x45] LOAD_SCHEDULED_TASK: Load scheduler "s050" with entities [LocalPlayer, LocalPlayer], work=[4*, 0*]
147: 0x0631 [0x1C] WAIT(90* ticks)
148: 0x0634 [0x2B] Vigsterkr (ID: 17498651/0x010B021B) [7589*]:
    → "Take...this sword..."
149: 0x063B [0x23] WAIT_FOR_DIALOG_INTERACTION
150: 0x063C [0x1C] WAIT(120* ticks)
151: 0x063F [0x45] LOAD_SCHEDULED_TASK: Load scheduler "ovl2" with entities [EventEntity, EventEntity], work=[200*, 0*]
152: 0x0650 [0x52] END_LOAD_SCHEDULER: End scheduler "s050" with entities [LocalPlayer, LocalPlayer], work=4*
153: 0x065F [0x45] LOAD_SCHEDULED_TASK: Load scheduler "s046" with entities [LocalPlayer, LocalPlayer], work=[4*, 0*]
154: 0x0670 [0x1C] WAIT(60* ticks)
155: 0x0673 [0x2B] Vigsterkr (ID: 17498651/0x010B021B) [7590*]:
    → "I...I want you to bury this sword with me. It's my treasure...the sword of the man who rescued me."
156: 0x067A [0x23] WAIT_FOR_DIALOG_INTERACTION
157: 0x067B [0x45] LOAD_SCHEDULED_TASK: Load scheduler "ovl1" with entities [EventEntity, EventEntity], work=[200*, 0*]
158: 0x068C [0x52] END_LOAD_SCHEDULER: End scheduler "s046" with entities [LocalPlayer, LocalPlayer], work=4*
159: 0x069B [0x45] LOAD_SCHEDULED_TASK: Load scheduler "s047" with entities [LocalPlayer, LocalPlayer], work=[4*, 0*]
160: 0x06AC [0x4E] SET_ENTITY_HIDE_FLAG: Show eventtrigger (ID: 17498655/0x010B021F)
161: 0x06B2 [0x2F] eventtrigger (ID: 17498655/0x010B021F)->Render.Flags0 &= ~0x80000 // Bit 19
162: 0x06B8 [0x2B] Vigsterkr (ID: 17498651/0x010B021B) [7591*]:
    → "With this...I can...I can finally...atone...for my sin... Please...let me...sleep now..."
163: 0x06BF [0x23] WAIT_FOR_DIALOG_INTERACTION
164: 0x06C0 [0x1C] WAIT(90* ticks)
165: 0x06C3 [0x79] Vigsterkr (ID: 17498651/0x010B021B) looks at eventtrigger (ID: 17498655/0x010B021F) (Basic look)
166: 0x06CD [0x1C] WAIT(120* ticks)
167: 0x06D0 [0x81] SET_ENTITY_BLINKING(blink_flag=0x00, entity=Vigsterkr (ID: 17498651/0x010B021B))
168: 0x06D6 [0x1C] WAIT(60* ticks)
169: 0x06D9 [0x45] LOAD_SCHEDULED_TASK: Load scheduler "ovl2" with entities [EventEntity, EventEntity], work=[200*, 0*]
170: 0x06EA [0x52] END_LOAD_SCHEDULER: End scheduler "s047" with entities [LocalPlayer, LocalPlayer], work=4*
171: 0x06F9 [0x4E] SET_ENTITY_HIDE_FLAG: Hide eventtrigger (ID: 17498655/0x010B021F)
172: 0x06FF [0x45] LOAD_SCHEDULED_TASK: Load scheduler "s048" with entities [LocalPlayer, LocalPlayer], work=[4*, 0*]
173: 0x0710 [0x1C] WAIT(30* ticks)
174: 0x0713 [0x2B] Gubokka (ID: 17498650/0x010B021A) [7592*]:
    → "No! Wake up! Don't go! No...!!!"
175: 0x071A [0x23] WAIT_FOR_DIALOG_INTERACTION
176: 0x071B [0x52] END_LOAD_SCHEDULER: End scheduler "s048" with entities [LocalPlayer, LocalPlayer], work=4*
177: 0x072A [0x45] LOAD_SCHEDULED_TASK: Load scheduler "s049" with entities [LocalPlayer, LocalPlayer], work=[4*, 0*]
178: 0x073B [0x1C] WAIT(600* ticks)
179: 0x073E [0x5D] SET_MUSIC_VOLUME(volume=0*, fade_time=120*)
180: 0x0743 [0x45] LOAD_SCHEDULED_TASK: Load scheduler "fdo2" with entities [EventEntity, EventEntity], work=[200*, 0*]
181: 0x0754 [0x55] WAIT_LOAD_SCHEDULER: Wait for scheduler "fdo2" with entities [EventEntity, EventEntity], work=200*
182: 0x0763 [0x52] END_LOAD_SCHEDULER: End scheduler "s049" with entities [LocalPlayer, LocalPlayer], work=4*
183: 0x0772 [0x4E] SET_ENTITY_HIDE_FLAG: Hide Gubokka (ID: 17498650/0x010B021A)
184: 0x0778 [0x4E] SET_ENTITY_HIDE_FLAG: Hide Vigsterkr (ID: 17498651/0x010B021B)
185: 0x077E [0x5C] MUSIC_CONTROL: Set Idle (Day) music to song 0*
186: 0x0782 [0x5C] MUSIC_CONTROL: Set Idle (Night) music to song 0*
187: 0x0786 [0x46] CAMERA_CONTROL: Restore default settings
188: 0x0788 [0x1C] WAIT(300* ticks)
189: 0x078B [0x45] LOAD_SCHEDULED_TASK: Load scheduler "fdi1" with entities [EventEntity, EventEntity], work=[200*, 0*]
190: 0x079C [0x21] END_EVENT
191: 0x079D [0x00] END_REQSTACK()
```

### Event 65535.9

#### Metadata

| Field        | Value    |
|--------------|----------|
| Entrypoint   | 0x079E   |
| Data Size    | 16 bytes |
| Instructions | 5        |

```
      00 01 02 03 04 05 06 07  08 09 0A 0B 0C 0D 0E 0F
      -- -- -- -- -- -- -- --  -- -- -- -- -- -- -- --
0790:                                            61 00                a.
07A0: 32 08 80 1F 00 44 80 45  80 46 80 1F 01 00        2....D.E.F....  
```

#### Opcodes

```
  0: 0x079E [0x61] EventEntity->Render.Flags2 &= ~0x00000001
  1: 0x07A0 [0x32] ExtData[1]->MainSpeed = 13* * 0.1
  2: 0x07A3 [0x1F] MOVE_ENTITY: EventEntity moves to X=140.306*, Z=201.916*, Y=-8.738*
  3: 0x07AB [0x1F] MOVE_ENTITY: Update entity position (mode=1)
  4: 0x07AD [0x00] END_REQSTACK()
```

### Event 65535.10

#### Metadata

| Field        | Value    |
|--------------|----------|
| Entrypoint   | 0x07AE   |
| Data Size    | 26 bytes |
| Instructions | 7        |

```
      00 01 02 03 04 05 06 07  08 09 0A 0B 0C 0D 0E 0F
      -- -- -- -- -- -- -- --  -- -- -- -- -- -- -- --
07A0:                                            61 01                a.
07B0: 32 47 80 1F 00 48 80 49  80 4A 80 1F 01 1F 00 4B  2G...H.I.J.....K
07C0: 80 4C 80 4D 80 1F 01 00                           .L.M....        
```

#### Opcodes

```
  0: 0x07AE [0x61] EventEntity->Render.Flags2 |= 0x00000001
  1: 0x07B0 [0x32] ExtData[1]->MainSpeed = 40* * 0.1
  2: 0x07B3 [0x1F] MOVE_ENTITY: EventEntity moves to X=141.567*, Z=198.042*, Y=-9.063*
  3: 0x07BB [0x1F] MOVE_ENTITY: Update entity position (mode=1)
  4: 0x07BD [0x1F] MOVE_ENTITY: EventEntity moves to X=132.868*, Z=189.876*, Y=-10.540*
  5: 0x07C5 [0x1F] MOVE_ENTITY: Update entity position (mode=1)
  6: 0x07C7 [0x00] END_REQSTACK()
```

### Event 65535.11

#### Metadata

| Field        | Value    |
|--------------|----------|
| Entrypoint   | 0x07C8   |
| Data Size    | 10 bytes |
| Instructions | 2        |

```
      00 01 02 03 04 05 06 07  08 09 0A 0B 0C 0D 0E 0F
      -- -- -- -- -- -- -- --  -- -- -- -- -- -- -- --
07C0:                          37 4E 80 4F 80 50 80 51          7N.O.P.Q
07D0: 80 00                                             ..              
```

#### Opcodes

```
  0: 0x07C8 [0x37] UPDATE_EVENT_POSITION_AND_DIR: x=-103.036*, z=86.557*, y=-72.000*, direction=141.7°*
  1: 0x07D1 [0x00] END_REQSTACK()
```

### Event 65535.12

#### Metadata

| Field        | Value    |
|--------------|----------|
| Entrypoint   | 0x07D2   |
| Data Size    | 10 bytes |
| Instructions | 2        |

```
      00 01 02 03 04 05 06 07  08 09 0A 0B 0C 0D 0E 0F
      -- -- -- -- -- -- -- --  -- -- -- -- -- -- -- --
07D0:       37 52 80 53 80 23  80 54 80 00                7R.S.#.T..    
```

#### Opcodes

```
  0: 0x07D2 [0x37] UPDATE_EVENT_POSITION_AND_DIR: x=646.217*, z=-168.348*, y=0.161*, direction=281.7°*
  1: 0x07DB [0x00] END_REQSTACK()
```

### Event 65535.13

#### Metadata

| Field        | Value    |
|--------------|----------|
| Entrypoint   | 0x07DC   |
| Data Size    | 10 bytes |
| Instructions | 2        |

```
      00 01 02 03 04 05 06 07  08 09 0A 0B 0C 0D 0E 0F
      -- -- -- -- -- -- -- --  -- -- -- -- -- -- -- --
07D0:                                      37 55 80 56              7U.V
07E0: 80 57 80 58 80 00                                 .W.X..          
```

#### Opcodes

```
  0: 0x07DC [0x37] UPDATE_EVENT_POSITION_AND_DIR: x=-21.085*, z=59.850*, y=-2.151*, direction=296.0°*
  1: 0x07E5 [0x00] END_REQSTACK()
```

### Event 65535.14

#### Metadata

| Field        | Value    |
|--------------|----------|
| Entrypoint   | 0x07E6   |
| Data Size    | 10 bytes |
| Instructions | 2        |

```
      00 01 02 03 04 05 06 07  08 09 0A 0B 0C 0D 0E 0F
      -- -- -- -- -- -- -- --  -- -- -- -- -- -- -- --
07E0:                   37 59  80 5A 80 5B 80 5C 80 00        7Y.Z.[.\..
```

#### Opcodes

```
  0: 0x07E6 [0x37] UPDATE_EVENT_POSITION_AND_DIR: x=-87.052*, z=-373.066*, y=0.301*, direction=149.4°*
  1: 0x07EF [0x00] END_REQSTACK()
```

### Event 65535.15

#### Metadata

| Field        | Value    |
|--------------|----------|
| Entrypoint   | 0x07F0   |
| Data Size    | 10 bytes |
| Instructions | 2        |

```
      00 01 02 03 04 05 06 07  08 09 0A 0B 0C 0D 0E 0F
      -- -- -- -- -- -- -- --  -- -- -- -- -- -- -- --
07F0: 37 5D 80 5E 80 5F 80 60  80 00                    7].^._.`..      
```

#### Opcodes

```
  0: 0x07F0 [0x37] UPDATE_EVENT_POSITION_AND_DIR: x=-150.617*, z=20.209*, y=-16.396*, direction=186.8°*
  1: 0x07F9 [0x00] END_REQSTACK()
```

### Event 65535.16

#### Metadata

| Field        | Value    |
|--------------|----------|
| Entrypoint   | 0x07FA   |
| Data Size    | 10 bytes |
| Instructions | 2        |

```
      00 01 02 03 04 05 06 07  08 09 0A 0B 0C 0D 0E 0F
      -- -- -- -- -- -- -- --  -- -- -- -- -- -- -- --
07F0:                                37 10 80 61 80 62            7..a.b
0800: 80 63 80 00                                       .c..            
```

#### Opcodes

```
  0: 0x07FA [0x37] UPDATE_EVENT_POSITION_AND_DIR: x=0.010*, z=-38.347*, y=8.999*, direction=88.3°*
  1: 0x0803 [0x00] END_REQSTACK()
```

### Event 65535.17

#### Metadata

| Field        | Value    |
|--------------|----------|
| Entrypoint   | 0x0804   |
| Data Size    | 10 bytes |
| Instructions | 2        |

```
      00 01 02 03 04 05 06 07  08 09 0A 0B 0C 0D 0E 0F
      -- -- -- -- -- -- -- --  -- -- -- -- -- -- -- --
0800:             37 64 80 65  80 66 80 67 80 00            7d.e.f.g..  
```

#### Opcodes

```
  0: 0x0804 [0x37] UPDATE_EVENT_POSITION_AND_DIR: x=-217.367*, z=461.829*, y=97.264*, direction=200.3°*
  1: 0x080D [0x00] END_REQSTACK()
```

### Event 65535.18

#### Metadata

| Field        | Value    |
|--------------|----------|
| Entrypoint   | 0x080E   |
| Data Size    | 10 bytes |
| Instructions | 2        |

```
      00 01 02 03 04 05 06 07  08 09 0A 0B 0C 0D 0E 0F
      -- -- -- -- -- -- -- --  -- -- -- -- -- -- -- --
0800:                                            37 68                7h
0810: 80 69 80 6A 80 6B 80 00                           .i.j.k..        
```

#### Opcodes

```
  0: 0x080E [0x37] UPDATE_EVENT_POSITION_AND_DIR: x=-241.909*, z=333.156*, y=-12.056*, direction=55.5°*
  1: 0x0817 [0x00] END_REQSTACK()
```

### Event 65535.19

#### Metadata

| Field        | Value    |
|--------------|----------|
| Entrypoint   | 0x0818   |
| Data Size    | 10 bytes |
| Instructions | 2        |

```
      00 01 02 03 04 05 06 07  08 09 0A 0B 0C 0D 0E 0F
      -- -- -- -- -- -- -- --  -- -- -- -- -- -- -- --
0810:                          37 6C 80 6D 80 6E 80 6F          7l.m.n.o
0820: 80 00                                             ..              
```

#### Opcodes

```
  0: 0x0818 [0x37] UPDATE_EVENT_POSITION_AND_DIR: x=-355.293*, z=-102.990*, y=15.473*, direction=200.7°*
  1: 0x0821 [0x00] END_REQSTACK()
```

### Event 65535.20

#### Metadata

| Field        | Value    |
|--------------|----------|
| Entrypoint   | 0x0822   |
| Data Size    | 10 bytes |
| Instructions | 2        |

```
      00 01 02 03 04 05 06 07  08 09 0A 0B 0C 0D 0E 0F
      -- -- -- -- -- -- -- --  -- -- -- -- -- -- -- --
0820:       37 70 80 71 80 72  80 73 80 00                7p.q.r.s..    
```

#### Opcodes

```
  0: 0x0822 [0x37] UPDATE_EVENT_POSITION_AND_DIR: x=448.799*, z=-29.349*, y=-39.711*, direction=50.6°*
  1: 0x082B [0x00] END_REQSTACK()
```

### Event 65535.21

#### Metadata

| Field        | Value    |
|--------------|----------|
| Entrypoint   | 0x082C   |
| Data Size    | 10 bytes |
| Instructions | 2        |

```
      00 01 02 03 04 05 06 07  08 09 0A 0B 0C 0D 0E 0F
      -- -- -- -- -- -- -- --  -- -- -- -- -- -- -- --
0820:                                      37 74 80 75              7t.u
0830: 80 76 80 77 80 00                                 .v.w..          
```

#### Opcodes

```
  0: 0x082C [0x37] UPDATE_EVENT_POSITION_AND_DIR: x=-17.660*, z=54.249*, y=-0.441*, direction=242.2°*
  1: 0x0835 [0x00] END_REQSTACK()
```

### Event 65535.22

#### Metadata

| Field        | Value    |
|--------------|----------|
| Entrypoint   | 0x0836   |
| Data Size    | 10 bytes |
| Instructions | 2        |

```
      00 01 02 03 04 05 06 07  08 09 0A 0B 0C 0D 0E 0F
      -- -- -- -- -- -- -- --  -- -- -- -- -- -- -- --
0830:                   37 78  80 79 80 7A 80 7B 80 00        7x.y.z.{..
```

#### Opcodes

```
  0: 0x0836 [0x37] UPDATE_EVENT_POSITION_AND_DIR: x=-19.140*, z=19.302*, y=40.617*, direction=82.2°*
  1: 0x083F [0x00] END_REQSTACK()
```

### Event 65535.23

#### Metadata

| Field        | Value    |
|--------------|----------|
| Entrypoint   | 0x0840   |
| Data Size    | 10 bytes |
| Instructions | 2        |

```
      00 01 02 03 04 05 06 07  08 09 0A 0B 0C 0D 0E 0F
      -- -- -- -- -- -- -- --  -- -- -- -- -- -- -- --
0840: 37 7C 80 7D 80 7E 80 7F  80 00                    7|.}.~....      
```

#### Opcodes

```
  0: 0x0840 [0x37] UPDATE_EVENT_POSITION_AND_DIR: x=73.092*, z=-171.909*, y=3.999*, direction=90.2°*
  1: 0x0849 [0x00] END_REQSTACK()
```

### Event 65535.24

#### Metadata

| Field        | Value    |
|--------------|----------|
| Entrypoint   | 0x084A   |
| Data Size    | 10 bytes |
| Instructions | 2        |

```
      00 01 02 03 04 05 06 07  08 09 0A 0B 0C 0D 0E 0F
      -- -- -- -- -- -- -- --  -- -- -- -- -- -- -- --
0840:                                37 80 80 81 80 82            7.....
0850: 80 83 80 00                                       ....            
```

#### Opcodes

```
  0: 0x084A [0x37] UPDATE_EVENT_POSITION_AND_DIR: x=-20.169*, z=31.299*, y=-9.998*, direction=299.1°*
  1: 0x0853 [0x00] END_REQSTACK()
```

### Event 65535.25

#### Metadata

| Field        | Value    |
|--------------|----------|
| Entrypoint   | 0x0854   |
| Data Size    | 10 bytes |
| Instructions | 2        |

```
      00 01 02 03 04 05 06 07  08 09 0A 0B 0C 0D 0E 0F
      -- -- -- -- -- -- -- --  -- -- -- -- -- -- -- --
0850:             37 84 80 85  80 86 80 87 80 00            7.........  
```

#### Opcodes

```
  0: 0x0854 [0x37] UPDATE_EVENT_POSITION_AND_DIR: x=-14.240*, z=53.275*, y=-0.641*, direction=268.6°*
  1: 0x085D [0x00] END_REQSTACK()
```
