# Event 65535

## Metadata

| Field           | Value    |
|-----------------|----------|
| Event Index     | 5/5      |
| Offset          | 0x0767   |
| Data Size       | 73 bytes |
| Calculated Size | 73 bytes |
| Instructions    | 9        |

```
      00 01 02 03 04 05 06 07  08 09 0A 0B 0C 0D 0E 0F
      -- -- -- -- -- -- -- --  -- -- -- -- -- -- -- --
0760:                      66  3D 80 9E 20 03 01 9E 20         f=.. ... 
0770: 03 01 6B 61 73 30 1C 51  80 66 52 80 9F 20 03 01  ..kas0.Q.fR.. ..
0780: 9F 20 03 01 74 68 6B 31  1C 53 80 66 52 80 9F 20  . ..thk1.S.fR.. 
0790: 03 01 9F 20 03 01 74 68  6B 32 1C 54 80 66 0B 80  ... ..thk2.T.f..
07A0: A0 20 03 01 A0 20 03 01  70 6F 69 30 1C 53 80 00  . ... ..poi0.S..
```

## Opcodes

```
  0: 0x0767 [0x66] LOAD_EXT_SCHEDULER_MAIN: Load scheduler "kas0" with entities [Yahsra (ID: 16982174/0x0103209E), Yahsra (ID: 16982174/0x0103209E)], work=11*
  1: 0x0776 [0x1C] WAIT(200* ticks)
  2: 0x0779 [0x66] LOAD_EXT_SCHEDULER_MAIN: Load scheduler "thk1" with entities [Isdebaaq (ID: 16982175/0x0103209F), Isdebaaq (ID: 16982175/0x0103209F)], work=20*
  3: 0x0788 [0x1C] WAIT(120* ticks)
  4: 0x078B [0x66] LOAD_EXT_SCHEDULER_MAIN: Load scheduler "thk2" with entities [Isdebaaq (ID: 16982175/0x0103209F), Isdebaaq (ID: 16982175/0x0103209F)], work=20*
  5: 0x079A [0x1C] WAIT(240* ticks)
  6: 0x079D [0x66] LOAD_EXT_SCHEDULER_MAIN: Load scheduler "poi0" with entities [Famad (ID: 16982176/0x010320A0), Famad (ID: 16982176/0x010320A0)], work=3*
  7: 0x07AC [0x1C] WAIT(120* ticks)
  8: 0x07AF [0x00] END_REQSTACK()
```
