# Event 10093

## Metadata

| Field           | Value    |
|-----------------|----------|
| Event Index     | 12/12    |
| Offset          | 0x014C   |
| Data Size       | 52 bytes |
| Calculated Size | 52 bytes |
| Instructions    | 12       |

```
      00 01 02 03 04 05 06 07  08 09 0A 0B 0C 0D 0E 0F
      -- -- -- -- -- -- -- --  -- -- -- -- -- -- -- --
0140:                                      42 48 3A 80              BH:.
0150: 1E F0 FF FF 7F 1C 29 80  66 00 80 F8 FF FF 7F F8  ......).f.......
0160: FF FF 7F 74 6C 6B 30 1D  3B 80 23 1D 3C 80 23 66  ...tlk0.;.#.<.#f
0170: 00 80 F8 FF FF 7F F8 FF  FF 7F 74 6C 6B 31 21 00  ..........tlk1!.
```

## Opcodes

```
  0: 0x014C [0x42] SET_CLI_EVENT_CANCEL_DATA()
  1: 0x014D [0x48] [System] [13840*]:
    → "\u001F\u000F\u0008's badge flashes brightly.\u007F1\u0000\u0007"
  2: 0x0150 [0x1E] EventEntity looks at LocalPlayer and starts talking
  3: 0x0155 [0x1C] WAIT(30* ticks)
  4: 0x0158 [0x66] LOAD_EXT_SCHEDULER_MAIN: Load scheduler "tlk0" with entities [EventEntity, EventEntity], work=49*
  5: 0x0167 [0x1D] PRINT_EVENT_MESSAGE(message_id=13849*)
    → "Lately, the Empire of Aht Urhgan has been building up her army. That's sure to make waves internationally...\u007F1\u0000\u0007"
  6: 0x016A [0x23] WAIT_FOR_DIALOG_INTERACTION
  7: 0x016B [0x1D] PRINT_EVENT_MESSAGE(message_id=13850*)
    → "Do you think we can continue to preserve friendly relations with all three major nations as the balance of power hangs by a thread?\u007F1\u0000\u0007"
  8: 0x016E [0x23] WAIT_FOR_DIALOG_INTERACTION
  9: 0x016F [0x66] LOAD_EXT_SCHEDULER_MAIN: Load scheduler "tlk1" with entities [EventEntity, EventEntity], work=49*
 10: 0x017E [0x21] END_EVENT
 11: 0x017F [0x00] END_REQSTACK()
```
