# Event 65535

## Metadata

| Field           | Value    |
|-----------------|----------|
| Event Index     | 9/12     |
| Offset          | 0x00CD   |
| Data Size       | 61 bytes |
| Calculated Size | 61 bytes |
| Instructions    | 13       |

```
      00 01 02 03 04 05 06 07  08 09 0A 0B 0C 0D 0E 0F
      -- -- -- -- -- -- -- --  -- -- -- -- -- -- -- --
00C0:                                         37 24 80               7$.
00D0: 25 80 0E 80 26 80 80 F8  FF FF 7F 32 03 80 1F 00  %...&......2....
00E0: 27 80 28 80 0E 80 1F 01  1C 29 80 4B 18 30 0F 01  '.(......).K.0..
00F0: 2A 80 1C 1D 80 4B 18 30  0F 01 2B 80 1C 1D 80 1F  *....K.0..+.....
0100: 00 2C 80 2D 80 0E 80 1F  01 00                    .,.-......      
```

## Opcodes

```
  0: 0x00CD [0x37] UPDATE_EVENT_POSITION_AND_DIR: x=0.036*, z=20.403*, y=2.999*, direction=95.6°*
  1: 0x00D6 [0x80] LOAD_WAIT(entity=EventEntity)
  2: 0x00DB [0x32] ExtData[1]->MainSpeed = 13* * 0.1
  3: 0x00DE [0x1F] MOVE_ENTITY: EventEntity moves to X=0.092*, Z=16.341*, Y=2.999*
  4: 0x00E6 [0x1F] MOVE_ENTITY: Update entity position (mode=1)
  5: 0x00E8 [0x1C] WAIT(30* ticks)
  6: 0x00EB [0x4B] UPDATE_ENTITY_YAW(entity=Muhoho (ID: 17772568/0x010F3018), yaw=16.5°*)
  7: 0x00F2 [0x1C] WAIT(60* ticks)
  8: 0x00F5 [0x4B] UPDATE_ENTITY_YAW(entity=Muhoho (ID: 17772568/0x010F3018), yaw=6.0°*)
  9: 0x00FC [0x1C] WAIT(60* ticks)
 10: 0x00FF [0x1F] MOVE_ENTITY: EventEntity moves to X=0.295*, Z=20.134*, Y=2.999*
 11: 0x0107 [0x1F] MOVE_ENTITY: Update entity position (mode=1)
 12: 0x0109 [0x00] END_REQSTACK()
```
