# Event 65535

## Metadata

| Field           | Value    |
|-----------------|----------|
| Event Index     | 7/12     |
| Offset          | 0x0088   |
| Data Size       | 55 bytes |
| Calculated Size | 55 bytes |
| Instructions    | 11       |

```
      00 01 02 03 04 05 06 07  08 09 0A 0B 0C 0D 0E 0F
      -- -- -- -- -- -- -- --  -- -- -- -- -- -- -- --
0080:                          37 16 80 17 80 18 80 19          7.......
0090: 80 80 F8 FF FF 7F 1F 00  1A 80 1B 80 18 80 1F 01  ................
00A0: 4B 18 30 0F 01 1C 80 1C  1D 80 4B 18 30 0F 01 1E  K.0.......K.0...
00B0: 80 1C 1D 80 1F 00 1F 80  20 80 15 80 1F 01 00     ........ ...... 
```

## Opcodes

```
  0: 0x0088 [0x37] UPDATE_EVENT_POSITION_AND_DIR: x=31.444*, z=-52.191*, y=9.003*, direction=8.9°*
  1: 0x0091 [0x80] LOAD_WAIT(entity=EventEntity)
  2: 0x0096 [0x1F] MOVE_ENTITY: EventEntity moves to X=44.657*, Z=-52.671*, Y=9.003*
  3: 0x009E [0x1F] MOVE_ENTITY: Update entity position (mode=1)
  4: 0x00A0 [0x4B] UPDATE_ENTITY_YAW(entity=Muhoho (ID: 17772568/0x010F3018), yaw=16.58°*)
  5: 0x00A7 [0x1C] WAIT(60* ticks)
  6: 0x00AA [0x4B] UPDATE_ENTITY_YAW(entity=Muhoho (ID: 17772568/0x010F3018), yaw=4.31°*)
  7: 0x00B1 [0x1C] WAIT(60* ticks)
  8: 0x00B4 [0x1F] MOVE_ENTITY: EventEntity moves to X=45.541*, Z=-56.553*, Y=8.999*
  9: 0x00BC [0x1F] MOVE_ENTITY: Update entity position (mode=1)
 10: 0x00BE [0x00] END_REQSTACK()
```
