# 17453347 - 1

## Common Data

| Field            | Value                 |
|------------------|-----------------------|
| Zone             | Throne Room (ID: 165) |
| Block Size       | 240 bytes             |
| Total Events     | 10                    |
| References Count | 7                     |

## List of Events

| Event ID                 | Entrypoint   |   Size |   Instructions |
|--------------------------|--------------|--------|----------------|
| [65535](#event-65535)    | 0x0000       |      1 |              1 |
| [65535.1](#event-655351) | 0x0001       |     19 |              5 |
| [65535.2](#event-655352) | 0x0014       |     12 |              3 |
| [65535.3](#event-655353) | 0x0020       |     12 |              3 |
| [4](#event-4)            | 0x002C       |      1 |              1 |
| [65535.4](#event-655354) | 0x002D       |     33 |              3 |
| [65535.5](#event-655355) | 0x004E       |     33 |              3 |
| [65535.6](#event-655356) | 0x006F       |     33 |              3 |
| [5](#event-5)            | 0x0090       |      1 |              1 |
| [65535.7](#event-655357) | 0x0091       |     11 |              3 |

## DAT References (imed_data)

|   Index | Hex Value   |   Dec Value |
|---------|-------------|-------------|
|       0 | 0x093C      |        2364 |
|       1 | 0x0000      |           0 |
|       2 | 0x0080      |         128 |
|       3 | 0x0088      |         136 |
|       4 | 0x10A5123   |    17453347 |
|       5 | 0xFFF96880  |  4294535296 |
|       6 | 0xFFFC5E50  |  4294729296 |

## Events

### Event 65535

#### Metadata

| Field        | Value   |
|--------------|---------|
| Entrypoint   | 0x0000  |
| Data Size    | 1 bytes |
| Instructions | 1       |

```
      00 01 02 03 04 05 06 07  08 09 0A 0B 0C 0D 0E 0F
      -- -- -- -- -- -- -- --  -- -- -- -- -- -- -- --
0000: 00                                                .               
```

#### Opcodes

```
  0: 0x0000 [0x00] END_REQSTACK()
```

### Event 65535.1

#### Metadata

| Field        | Value    |
|--------------|----------|
| Entrypoint   | 0x0001   |
| Data Size    | 19 bytes |
| Instructions | 5        |

```
      00 01 02 03 04 05 06 07  08 09 0A 0B 0C 0D 0E 0F
      -- -- -- -- -- -- -- --  -- -- -- -- -- -- -- --
0000:    22 00 B6 00 00 80 92  01 F8 FF FF 7F 94 01 F8   "..............
0010: FF FF 7F 00                                       ....            
```

#### Opcodes

```
  0: 0x0001 [0x22] ENTITY_HIDE_FLAG(enabled=0x00)
  1: 0x0003 [0xB6] ENTITY_APPEARANCE_HANDLER(case=Hair style, value=2364*)
  2: 0x0007 [0x92] EventEntity->Render.Flags3 ^= 0x01
  3: 0x000D [0x94] EventEntity->Render.Flags3 ^= 0x01
  4: 0x0013 [0x00] END_REQSTACK()
```

### Event 65535.2

#### Metadata

| Field        | Value    |
|--------------|----------|
| Entrypoint   | 0x0014   |
| Data Size    | 12 bytes |
| Instructions | 3        |

```
      00 01 02 03 04 05 06 07  08 09 0A 0B 0C 0D 0E 0F
      -- -- -- -- -- -- -- --  -- -- -- -- -- -- -- --
0010:             A4 00 6C F8  FF FF 7F 01 80 01 80 00      ..l.........
```

#### Opcodes

```
  0: 0x0014 [0xA4] EventEntity->Flags3.unknown_3_2 = 0
  1: 0x0016 [0x6C] FADE_ENTITY_COLOR(entity_id=EventEntity, end_alpha=0*, fade_time=0*)
  2: 0x001F [0x00] END_REQSTACK()
```

### Event 65535.3

#### Metadata

| Field        | Value    |
|--------------|----------|
| Entrypoint   | 0x0020   |
| Data Size    | 12 bytes |
| Instructions | 3        |

```
      00 01 02 03 04 05 06 07  08 09 0A 0B 0C 0D 0E 0F
      -- -- -- -- -- -- -- --  -- -- -- -- -- -- -- --
0020: A4 01 6C F8 FF FF 7F 02  80 01 80 00              ..l.........    
```

#### Opcodes

```
  0: 0x0020 [0xA4] EventEntity->Flags3.unknown_3_2 = 1
  1: 0x0022 [0x6C] FADE_ENTITY_COLOR(entity_id=EventEntity, end_alpha=128*, fade_time=0*)
  2: 0x002B [0x00] END_REQSTACK()
```

### Event 4

#### Metadata

| Field        | Value   |
|--------------|---------|
| Entrypoint   | 0x002C  |
| Data Size    | 1 bytes |
| Instructions | 1       |

```
      00 01 02 03 04 05 06 07  08 09 0A 0B 0C 0D 0E 0F
      -- -- -- -- -- -- -- --  -- -- -- -- -- -- -- --
0020:                                      00                       .   
```

#### Opcodes

```
  0: 0x002C [0x00] END_REQSTACK()
```

### Event 65535.4

#### Metadata

| Field        | Value    |
|--------------|----------|
| Entrypoint   | 0x002D   |
| Data Size    | 33 bytes |
| Instructions | 3        |

```
      00 01 02 03 04 05 06 07  08 09 0A 0B 0C 0D 0E 0F
      -- -- -- -- -- -- -- --  -- -- -- -- -- -- -- --
0020:                                         C5 03 80               ...
0030: F8 FF FF 7F F8 FF FF 7F  73 74 72 30 01 80 C6 03  ........str0....
0040: 80 F8 FF FF 7F F8 FF FF  7F 73 74 72 30 00        .........str0.  
```

#### Opcodes

```
  0: 0x002D [0xC5] LOAD_SCHEDULED_TASK_ALT3: Load scheduler 0x80013072 for entities [EventEntity, EventEntity], work=136*, param=29811
  1: 0x003E [0xC6] WAIT_LOAD_SCHEDULER_ALT3: Wait for scheduler "str0" with entities [EventEntity, EventEntity], work=136*
  2: 0x004D [0x00] END_REQSTACK()
```

### Event 65535.5

#### Metadata

| Field        | Value    |
|--------------|----------|
| Entrypoint   | 0x004E   |
| Data Size    | 33 bytes |
| Instructions | 3        |

```
      00 01 02 03 04 05 06 07  08 09 0A 0B 0C 0D 0E 0F
      -- -- -- -- -- -- -- --  -- -- -- -- -- -- -- --
0040:                                            C5 03                ..
0050: 80 F8 FF FF 7F F8 FF FF  7F 73 74 72 31 01 80 C6  .........str1...
0060: 03 80 F8 FF FF 7F F8 FF  FF 7F 73 74 72 31 00     ..........str1. 
```

#### Opcodes

```
  0: 0x004E [0xC5] LOAD_SCHEDULED_TASK_ALT3: Load scheduler 0x80013172 for entities [EventEntity, EventEntity], work=136*, param=29811
  1: 0x005F [0xC6] WAIT_LOAD_SCHEDULER_ALT3: Wait for scheduler "str1" with entities [EventEntity, EventEntity], work=136*
  2: 0x006E [0x00] END_REQSTACK()
```

### Event 65535.6

#### Metadata

| Field        | Value    |
|--------------|----------|
| Entrypoint   | 0x006F   |
| Data Size    | 33 bytes |
| Instructions | 3        |

```
      00 01 02 03 04 05 06 07  08 09 0A 0B 0C 0D 0E 0F
      -- -- -- -- -- -- -- --  -- -- -- -- -- -- -- --
0060:                                               C5                 .
0070: 03 80 F8 FF FF 7F F8 FF  FF 7F 6B 69 6C 61 01 80  ..........kila..
0080: C6 03 80 F8 FF FF 7F F8  FF FF 7F 6B 69 6C 61 00  ...........kila.
```

#### Opcodes

```
  0: 0x006F [0xC5] LOAD_SCHEDULED_TASK_ALT3: Load scheduler 0x8001616C for entities [EventEntity, EventEntity], work=136*, param=26987
  1: 0x0080 [0xC6] WAIT_LOAD_SCHEDULER_ALT3: Wait for scheduler "kila" with entities [EventEntity, EventEntity], work=136*
  2: 0x008F [0x00] END_REQSTACK()
```

### Event 5

#### Metadata

| Field        | Value   |
|--------------|---------|
| Entrypoint   | 0x0090  |
| Data Size    | 1 bytes |
| Instructions | 1       |

```
      00 01 02 03 04 05 06 07  08 09 0A 0B 0C 0D 0E 0F
      -- -- -- -- -- -- -- --  -- -- -- -- -- -- -- --
0090: 00                                                .               
```

#### Opcodes

```
  0: 0x0090 [0x00] END_REQSTACK()
```

### Event 65535.7

#### Metadata

| Field        | Value    |
|--------------|----------|
| Entrypoint   | 0x0091   |
| Data Size    | 11 bytes |
| Instructions | 3        |

```
      00 01 02 03 04 05 06 07  08 09 0A 0B 0C 0D 0E 0F
      -- -- -- -- -- -- -- --  -- -- -- -- -- -- -- --
0090:    5A 00 04 80 05 80 06  80 5A 01 00               Z.......Z..    
```

#### Opcodes

```
  0: 0x0091 [0x5A] UPDATE_EVENT_POSITION: Set EventEntity MovePosition to X=17453.347*, Z=-432.000*, Y=-238.000*
  1: 0x0099 [0x5A] UPDATE_EVENT_POSITION: Move EventEntity incrementally towards MovePosition
  2: 0x009B [0x00] END_REQSTACK()
```
