# 17453312 - Raogrimm

## Common Data

| Field            | Value                 |
|------------------|-----------------------|
| Zone             | Throne Room (ID: 165) |
| Block Size       | 292 bytes             |
| Total Events     | 5                     |
| References Count | 24                    |

## List of Events

| Event ID                 | Entrypoint   |   Size |   Instructions |
|--------------------------|--------------|--------|----------------|
| [65535](#event-65535)    | 0x0000       |      1 |              1 |
| [7](#event-7)            | 0x0001       |     18 |              4 |
| [65535.1](#event-655351) | 0x0013       |     25 |              3 |
| [65535.2](#event-655352) | 0x002C       |    103 |             13 |
| [65535.3](#event-655353) | 0x0093       |     10 |              2 |

## DAT References (imed_data)

|   Index | Hex Value   |   Dec Value |
|---------|-------------|-------------|
|       0 | 0x0000      |           0 |
|       1 | 0x0001      |           1 |
|       2 | 0xFFF908BE  |  4294510782 |
|       3 | 0xFFFC56A4  |  4294727332 |
|       4 | 0xFFFD72E1  |  4294800097 |
|       5 | 0x0011      |          17 |
|       6 | 0x017E      |         382 |
|       7 | 0x003C      |          60 |
|       8 | 0x0040      |          64 |
|       9 | 0x0020      |          32 |
|      10 | 0x0038      |          56 |
|      11 | 0x0018      |          24 |
|      12 | 0x0048      |          72 |
|      13 | 0x0030      |          48 |
|      14 | 0x0068      |         104 |
|      15 | 0x0010      |          16 |
|      16 | 0x0050      |          80 |
|      17 | 0x0008      |           8 |
|      18 | 0x0080      |         128 |
|      19 | 0x00B4      |         180 |
|      20 | 0xFFF9D8D9  |  4294564057 |
|      21 | 0xFFFC51EE  |  4294726126 |
|      22 | 0xFFFD7B78  |  4294802296 |
|      23 | 0x0FCD      |        4045 |

## Events

### Event 65535

#### Metadata

| Field        | Value   |
|--------------|---------|
| Entrypoint   | 0x0000  |
| Data Size    | 1 bytes |
| Instructions | 1       |

```
      00 01 02 03 04 05 06 07  08 09 0A 0B 0C 0D 0E 0F
      -- -- -- -- -- -- -- --  -- -- -- -- -- -- -- --
0000: 00                                                .               
```

#### Opcodes

```
  0: 0x0000 [0x00] END_REQSTACK()
```

### Event 7

#### Metadata

| Field        | Value    |
|--------------|----------|
| Entrypoint   | 0x0001   |
| Data Size    | 18 bytes |
| Instructions | 4        |

```
      00 01 02 03 04 05 06 07  08 09 0A 0B 0C 0D 0E 0F
      -- -- -- -- -- -- -- --  -- -- -- -- -- -- -- --
0000:    22 00 2F 00 F8 FF FF  7F 6C F8 FF FF 7F 00 80   "./.....l......
0010: 01 80 00                                          ...             
```

#### Opcodes

```
  0: 0x0001 [0x22] ENTITY_HIDE_FLAG(enabled=0x00)
  1: 0x0003 [0x2F] EventEntity->Render.Flags0 &= ~0x80000 // Bit 19
  2: 0x0009 [0x6C] FADE_ENTITY_COLOR(entity_id=EventEntity, end_alpha=0*, fade_time=1*)
  3: 0x0012 [0x00] END_REQSTACK()
```

### Event 65535.1

#### Metadata

| Field        | Value    |
|--------------|----------|
| Entrypoint   | 0x0013   |
| Data Size    | 25 bytes |
| Instructions | 3        |

```
      00 01 02 03 04 05 06 07  08 09 0A 0B 0C 0D 0E 0F
      -- -- -- -- -- -- -- --  -- -- -- -- -- -- -- --
0010:          37 02 80 03 80  04 80 05 80 5B 06 80 00     7........[...
0020: 51 0A 01 00 51 0A 01 79  6F 74 30 00              Q...Q..yot0.    
```

#### Opcodes

```
  0: 0x0013 [0x37] UPDATE_EVENT_POSITION_AND_DIR: x=-456.514*, z=-239.964*, y=-167.199*, direction=1.5°*
  1: 0x001C [0x5B] LOAD_EXT_SCHEDULER: Load scheduler "yot0" with entities [Raogrimm (ID: 17453312/0x010A5100), Raogrimm (ID: 17453312/0x010A5100)], work=382*
  2: 0x002B [0x00] END_REQSTACK()
```

### Event 65535.2

#### Metadata

| Field        | Value     |
|--------------|-----------|
| Entrypoint   | 0x002C    |
| Data Size    | 103 bytes |
| Instructions | 13        |

```
      00 01 02 03 04 05 06 07  08 09 0A 0B 0C 0D 0E 0F
      -- -- -- -- -- -- -- --  -- -- -- -- -- -- -- --
0020:                                      1C 07 80 6C              ...l
0030: F8 FF FF 7F 08 80 07 80  6C F8 FF FF 7F 09 80 07  ........l.......
0040: 80 6C F8 FF FF 7F 0A 80  07 80 6C F8 FF FF 7F 0B  .l........l.....
0050: 80 07 80 6C F8 FF FF 7F  0C 80 07 80 6C F8 FF FF  ...l........l...
0060: 7F 0D 80 07 80 6C F8 FF  FF 7F 0E 80 07 80 6C F8  .....l........l.
0070: FF FF 7F 0F 80 07 80 6C  F8 FF FF 7F 10 80 07 80  .......l........
0080: 6C F8 FF FF 7F 11 80 07  80 6C F8 FF FF 7F 12 80  l........l......
0090: 13 80 00                                          ...             
```

#### Opcodes

```
  0: 0x002C [0x1C] WAIT(60* ticks)
  1: 0x002F [0x6C] FADE_ENTITY_COLOR(entity_id=EventEntity, end_alpha=64*, fade_time=60*)
  2: 0x0038 [0x6C] FADE_ENTITY_COLOR(entity_id=EventEntity, end_alpha=32*, fade_time=60*)
  3: 0x0041 [0x6C] FADE_ENTITY_COLOR(entity_id=EventEntity, end_alpha=56*, fade_time=60*)
  4: 0x004A [0x6C] FADE_ENTITY_COLOR(entity_id=EventEntity, end_alpha=24*, fade_time=60*)
  5: 0x0053 [0x6C] FADE_ENTITY_COLOR(entity_id=EventEntity, end_alpha=72*, fade_time=60*)
  6: 0x005C [0x6C] FADE_ENTITY_COLOR(entity_id=EventEntity, end_alpha=48*, fade_time=60*)
  7: 0x0065 [0x6C] FADE_ENTITY_COLOR(entity_id=EventEntity, end_alpha=104*, fade_time=60*)
  8: 0x006E [0x6C] FADE_ENTITY_COLOR(entity_id=EventEntity, end_alpha=16*, fade_time=60*)
  9: 0x0077 [0x6C] FADE_ENTITY_COLOR(entity_id=EventEntity, end_alpha=80*, fade_time=60*)
 10: 0x0080 [0x6C] FADE_ENTITY_COLOR(entity_id=EventEntity, end_alpha=8*, fade_time=60*)
 11: 0x0089 [0x6C] FADE_ENTITY_COLOR(entity_id=EventEntity, end_alpha=128*, fade_time=180*)
 12: 0x0092 [0x00] END_REQSTACK()
```

### Event 65535.3

#### Metadata

| Field        | Value    |
|--------------|----------|
| Entrypoint   | 0x0093   |
| Data Size    | 10 bytes |
| Instructions | 2        |

```
      00 01 02 03 04 05 06 07  08 09 0A 0B 0C 0D 0E 0F
      -- -- -- -- -- -- -- --  -- -- -- -- -- -- -- --
0090:          37 14 80 15 80  16 80 17 80 00              7.........   
```

#### Opcodes

```
  0: 0x0093 [0x37] UPDATE_EVENT_POSITION_AND_DIR: x=-403.239*, z=-241.170*, y=-165.000*, direction=355.5°*
  1: 0x009C [0x00] END_REQSTACK()
```
