# 17453315

## Common Data

| Field            | Value                 |
|------------------|-----------------------|
| Zone             | Throne Room (ID: 165) |
| Block Size       | 320 bytes             |
| Total Events     | 7                     |
| References Count | 11                    |

## List of Events

| Event ID                 | Entrypoint   |   Size |   Instructions |
|--------------------------|--------------|--------|----------------|
| [65535](#event-65535)    | 0x0000       |      1 |              1 |
| [32000](#event-32000)    | 0x0001       |      1 |              1 |
| [32001](#event-32001)    | 0x0002       |      7 |              2 |
| [7](#event-7)            | 0x0009       |      7 |              2 |
| [65535.1](#event-655351) | 0x0010       |    122 |             10 |
| [65535.2](#event-655352) | 0x008A       |     78 |              6 |
| [6](#event-6)            | 0x00D8       |     16 |              3 |

## DAT References (imed_data)

|   Index | Hex Value   |   Dec Value |
|---------|-------------|-------------|
|       0 | 0x0041      |          65 |
|       1 | 0x0000      |           0 |
|       2 | 0x0017      |          23 |
|       3 | 0x002D      |          45 |
|       4 | 0x00C8      |         200 |
|       5 | 0x00B4      |         180 |
|       6 | 0x000C      |          12 |
|       7 | 0xFFF87E26  |  4294475302 |
|       8 | 0xFFFC56B7  |  4294727351 |
|       9 | 0xFFFD6021  |  4294795297 |
|      10 | 0x07E0      |        2016 |

## Events

### Event 65535

#### Metadata

| Field        | Value   |
|--------------|---------|
| Entrypoint   | 0x0000  |
| Data Size    | 1 bytes |
| Instructions | 1       |

```
      00 01 02 03 04 05 06 07  08 09 0A 0B 0C 0D 0E 0F
      -- -- -- -- -- -- -- --  -- -- -- -- -- -- -- --
0000: 00                                                .               
```

#### Opcodes

```
  0: 0x0000 [0x00] END_REQSTACK()
```

### Event 32000

#### Metadata

| Field        | Value   |
|--------------|---------|
| Entrypoint   | 0x0001  |
| Data Size    | 1 bytes |
| Instructions | 1       |

```
      00 01 02 03 04 05 06 07  08 09 0A 0B 0C 0D 0E 0F
      -- -- -- -- -- -- -- --  -- -- -- -- -- -- -- --
0000:    00                                              .              
```

#### Opcodes

```
  0: 0x0001 [0x00] END_REQSTACK()
```

### Event 32001

#### Metadata

| Field        | Value   |
|--------------|---------|
| Entrypoint   | 0x0002  |
| Data Size    | 7 bytes |
| Instructions | 2       |

```
      00 01 02 03 04 05 06 07  08 09 0A 0B 0C 0D 0E 0F
      -- -- -- -- -- -- -- --  -- -- -- -- -- -- -- --
0000:       2F 00 F8 FF FF 7F  00                         /......       
```

#### Opcodes

```
  0: 0x0002 [0x2F] EventEntity->Render.Flags0 &= ~0x80000 // Bit 19
  1: 0x0008 [0x00] END_REQSTACK()
```

### Event 7

#### Metadata

| Field        | Value   |
|--------------|---------|
| Entrypoint   | 0x0009  |
| Data Size    | 7 bytes |
| Instructions | 2       |

```
      00 01 02 03 04 05 06 07  08 09 0A 0B 0C 0D 0E 0F
      -- -- -- -- -- -- -- --  -- -- -- -- -- -- -- --
0000:                             2F 00 F8 FF FF 7F 00           /......
```

#### Opcodes

```
  0: 0x0009 [0x2F] EventEntity->Render.Flags0 &= ~0x80000 // Bit 19
  1: 0x000F [0x00] END_REQSTACK()
```

### Event 65535.1

#### Metadata

| Field        | Value     |
|--------------|-----------|
| Entrypoint   | 0x0010    |
| Data Size    | 122 bytes |
| Instructions | 10        |

```
      00 01 02 03 04 05 06 07  08 09 0A 0B 0C 0D 0E 0F
      -- -- -- -- -- -- -- --  -- -- -- -- -- -- -- --
0010: 45 00 80 F0 FF FF 7F F0  FF FF 7F 73 67 33 37 01  E..........sg37.
0020: 80 62 02 80 FD 50 0A 01  FD 50 0A 01 73 6D 61 73  .b...P...P..smas
0030: 01 80 55 00 80 F0 FF FF  7F F0 FF FF 7F 73 67 33  ..U..........sg3
0040: 37 1C 03 80 45 04 80 F0  FF FF 7F F0 FF FF 7F 62  7...E..........b
0050: 6C 6F 6E 01 80 45 00 80  F0 FF FF 7F F0 FF FF 7F  lon..E..........
0060: 73 67 33 38 01 80 55 00  80 F0 FF FF 7F F0 FF FF  sg38..U.........
0070: 7F 73 67 33 38 45 04 80  F0 FF FF 7F F0 FF FF 7F  .sg38E..........
0080: 62 6C 6F 66 01 80 1C 05  80 00                    blof......      
```

#### Opcodes

```
  0: 0x0010 [0x45] LOAD_SCHEDULED_TASK: Load scheduler "sg37" with entities [LocalPlayer, LocalPlayer], work=[65*, 0*]
  1: 0x0021 [0x62] LOAD_EVENT_SCHEDULER: Load scheduler "smas" with entities [Shadow Lord (ID: 17453309/0x010A50FD), Shadow Lord (ID: 17453309/0x010A50FD)], work=[23*, 0*]
  2: 0x0032 [0x55] WAIT_LOAD_SCHEDULER: Wait for scheduler "sg37" with entities [LocalPlayer, LocalPlayer], work=65*
  3: 0x0041 [0x1C] WAIT(45* ticks)
  4: 0x0044 [0x45] LOAD_SCHEDULED_TASK: Load scheduler "blon" with entities [LocalPlayer, LocalPlayer], work=[200*, 0*]
  5: 0x0055 [0x45] LOAD_SCHEDULED_TASK: Load scheduler "sg38" with entities [LocalPlayer, LocalPlayer], work=[65*, 0*]
  6: 0x0066 [0x55] WAIT_LOAD_SCHEDULER: Wait for scheduler "sg38" with entities [LocalPlayer, LocalPlayer], work=65*
  7: 0x0075 [0x45] LOAD_SCHEDULED_TASK: Load scheduler "blof" with entities [LocalPlayer, LocalPlayer], work=[200*, 0*]
  8: 0x0086 [0x1C] WAIT(180* ticks)
  9: 0x0089 [0x00] END_REQSTACK()
```

### Event 65535.2

#### Metadata

| Field        | Value    |
|--------------|----------|
| Entrypoint   | 0x008A   |
| Data Size    | 78 bytes |
| Instructions | 6        |

```
      00 01 02 03 04 05 06 07  08 09 0A 0B 0C 0D 0E 0F
      -- -- -- -- -- -- -- --  -- -- -- -- -- -- -- --
0080:                                55 00 80 F0 FF FF            U.....
0090: 7F F0 FF FF 7F 73 67 35  38 45 00 80 F0 FF FF 7F  .....sg58E......
00A0: F0 FF FF 7F 73 67 35 36  01 80 66 06 80 01 51 0A  ....sg56..f...Q.
00B0: 01 01 51 0A 01 64 6B 75  30 53 01 51 0A 01 01 51  ..Q..dku0S.Q...Q
00C0: 0A 01 64 6B 75 30 45 00  80 F0 FF FF 7F F0 FF FF  ..dku0E.........
00D0: 7F 73 67 36 35 01 80 00                           .sg65...        
```

#### Opcodes

```
  0: 0x008A [0x55] WAIT_LOAD_SCHEDULER: Wait for scheduler "sg58" with entities [LocalPlayer, LocalPlayer], work=65*
  1: 0x0099 [0x45] LOAD_SCHEDULED_TASK: Load scheduler "sg56" with entities [LocalPlayer, LocalPlayer], work=[65*, 0*]
  2: 0x00AA [0x66] LOAD_EXT_SCHEDULER_MAIN: Load scheduler "dku0" with entities [Cornelia (ID: 17453313/0x010A5101), Cornelia (ID: 17453313/0x010A5101)], work=12*
  3: 0x00B9 [0x53] WAIT_SCHEDULER_TASK: Wait for scheduler "dku0" with entities [Cornelia (ID: 17453313/0x010A5101), Cornelia (ID: 17453313/0x010A5101)]
  4: 0x00C6 [0x45] LOAD_SCHEDULED_TASK: Load scheduler "sg65" with entities [LocalPlayer, LocalPlayer], work=[65*, 0*]
  5: 0x00D7 [0x00] END_REQSTACK()
```

### Event 6

#### Metadata

| Field        | Value    |
|--------------|----------|
| Entrypoint   | 0x00D8   |
| Data Size    | 16 bytes |
| Instructions | 3        |

```
      00 01 02 03 04 05 06 07  08 09 0A 0B 0C 0D 0E 0F
      -- -- -- -- -- -- -- --  -- -- -- -- -- -- -- --
00D0:                          2F 00 F8 FF FF 7F 37 07          /.....7.
00E0: 80 08 80 09 80 0A 80 00                           ........        
```

#### Opcodes

```
  0: 0x00D8 [0x2F] EventEntity->Render.Flags0 &= ~0x80000 // Bit 19
  1: 0x00DE [0x37] UPDATE_EVENT_POSITION_AND_DIR: x=-491.994*, z=-239.945*, y=-171.999*, direction=177.2°*
  2: 0x00E7 [0x00] END_REQSTACK()
```
