# 17453313 - Cornelia

## Common Data

| Field            | Value                 |
|------------------|-----------------------|
| Zone             | Throne Room (ID: 165) |
| Block Size       | 260 bytes             |
| Total Events     | 5                     |
| References Count | 17                    |

## List of Events

| Event ID                 | Entrypoint   |   Size |   Instructions |
|--------------------------|--------------|--------|----------------|
| [65535](#event-65535)    | 0x0000       |      1 |              1 |
| [7](#event-7)            | 0x0001       |     18 |              4 |
| [65535.1](#event-655351) | 0x0013       |     95 |             10 |
| [65535.2](#event-655352) | 0x0072       |     30 |              4 |
| [65535.3](#event-655353) | 0x0090       |     10 |              2 |

## DAT References (imed_data)

|   Index | Hex Value   |   Dec Value |
|---------|-------------|-------------|
|       0 | 0x0000      |           0 |
|       1 | 0x0001      |           1 |
|       2 | 0xFFF91B61  |  4294515553 |
|       3 | 0xFFFC56E0  |  4294727392 |
|       4 | 0xFFFD72E1  |  4294800097 |
|       5 | 0x07F9      |        2041 |
|       6 | 0x0016      |          22 |
|       7 | 0x0096      |         150 |
|       8 | 0x0048      |          72 |
|       9 | 0x010E      |         270 |
|      10 | 0x0041      |          65 |
|      11 | 0x000C      |          12 |
|      12 | 0x0078      |         120 |
|      13 | 0xFFF9D87A  |  4294563962 |
|      14 | 0xFFFC5C85  |  4294728837 |
|      15 | 0xFFFD7B78  |  4294802296 |
|      16 | 0x0FD8      |        4056 |

## Events

### Event 65535

#### Metadata

| Field        | Value   |
|--------------|---------|
| Entrypoint   | 0x0000  |
| Data Size    | 1 bytes |
| Instructions | 1       |

```
      00 01 02 03 04 05 06 07  08 09 0A 0B 0C 0D 0E 0F
      -- -- -- -- -- -- -- --  -- -- -- -- -- -- -- --
0000: 00                                                .               
```

#### Opcodes

```
  0: 0x0000 [0x00] END_REQSTACK()
```

### Event 7

#### Metadata

| Field        | Value    |
|--------------|----------|
| Entrypoint   | 0x0001   |
| Data Size    | 18 bytes |
| Instructions | 4        |

```
      00 01 02 03 04 05 06 07  08 09 0A 0B 0C 0D 0E 0F
      -- -- -- -- -- -- -- --  -- -- -- -- -- -- -- --
0000:    22 00 2F 00 F8 FF FF  7F 6C F8 FF FF 7F 00 80   "./.....l......
0010: 01 80 00                                          ...             
```

#### Opcodes

```
  0: 0x0001 [0x22] ENTITY_HIDE_FLAG(enabled=0x00)
  1: 0x0003 [0x2F] EventEntity->Render.Flags0 &= ~0x80000 // Bit 19
  2: 0x0009 [0x6C] FADE_ENTITY_COLOR(entity_id=EventEntity, end_alpha=0*, fade_time=1*)
  3: 0x0012 [0x00] END_REQSTACK()
```

### Event 65535.1

#### Metadata

| Field        | Value    |
|--------------|----------|
| Entrypoint   | 0x0013   |
| Data Size    | 95 bytes |
| Instructions | 10       |

```
      00 01 02 03 04 05 06 07  08 09 0A 0B 0C 0D 0E 0F
      -- -- -- -- -- -- -- --  -- -- -- -- -- -- -- --
0010:          37 02 80 03 80  04 80 05 80 62 06 80 01     7........b...
0020: 51 0A 01 01 51 0A 01 6B  6F 6E 65 00 80 1C 07 80  Q...Q..kone.....
0030: 6C F8 FF FF 7F 08 80 09  80 55 0A 80 F0 FF FF 7F  l........U......
0040: F0 FF FF 7F 73 67 36 36  4E 00 F0 FF FF 7F 45 0A  ....sg66N.....E.
0050: 80 F0 FF FF 7F F0 FF FF  7F 73 67 36 34 00 80 66  .........sg64..f
0060: 0B 80 01 51 0A 01 01 51  0A 01 64 6B 30 30 1C 0C  ...Q...Q..dk00..
0070: 80 00                                             ..              
```

#### Opcodes

```
  0: 0x0013 [0x37] UPDATE_EVENT_POSITION_AND_DIR: x=-451.743*, z=-239.904*, y=-167.199*, direction=179.4°*
  1: 0x001C [0x62] LOAD_EVENT_SCHEDULER: Load scheduler "kone" with entities [Cornelia (ID: 17453313/0x010A5101), Cornelia (ID: 17453313/0x010A5101)], work=[22*, 0*]
  2: 0x002D [0x1C] WAIT(150* ticks)
  3: 0x0030 [0x6C] FADE_ENTITY_COLOR(entity_id=EventEntity, end_alpha=72*, fade_time=270*)
  4: 0x0039 [0x55] WAIT_LOAD_SCHEDULER: Wait for scheduler "sg66" with entities [LocalPlayer, LocalPlayer], work=65*
  5: 0x0048 [0x4E] SET_ENTITY_HIDE_FLAG: Show LocalPlayer
  6: 0x004E [0x45] LOAD_SCHEDULED_TASK: Load scheduler "sg64" with entities [LocalPlayer, LocalPlayer], work=[65*, 0*]
  7: 0x005F [0x66] LOAD_EXT_SCHEDULER_MAIN: Load scheduler "dk00" with entities [Cornelia (ID: 17453313/0x010A5101), Cornelia (ID: 17453313/0x010A5101)], work=12*
  8: 0x006E [0x1C] WAIT(120* ticks)
  9: 0x0071 [0x00] END_REQSTACK()
```

### Event 65535.2

#### Metadata

| Field        | Value    |
|--------------|----------|
| Entrypoint   | 0x0072   |
| Data Size    | 30 bytes |
| Instructions | 4        |

```
      00 01 02 03 04 05 06 07  08 09 0A 0B 0C 0D 0E 0F
      -- -- -- -- -- -- -- --  -- -- -- -- -- -- -- --
0070:       62 06 80 01 51 0A  01 01 51 0A 01 6B 6F 6E    b...Q...Q..kon
0080: 31 00 80 1C 0C 80 6C F8  FF FF 7F 00 80 0C 80 00  1.....l.........
```

#### Opcodes

```
  0: 0x0072 [0x62] LOAD_EVENT_SCHEDULER: Load scheduler "kon1" with entities [Cornelia (ID: 17453313/0x010A5101), Cornelia (ID: 17453313/0x010A5101)], work=[22*, 0*]
  1: 0x0083 [0x1C] WAIT(120* ticks)
  2: 0x0086 [0x6C] FADE_ENTITY_COLOR(entity_id=EventEntity, end_alpha=0*, fade_time=120*)
  3: 0x008F [0x00] END_REQSTACK()
```

### Event 65535.3

#### Metadata

| Field        | Value    |
|--------------|----------|
| Entrypoint   | 0x0090   |
| Data Size    | 10 bytes |
| Instructions | 2        |

```
      00 01 02 03 04 05 06 07  08 09 0A 0B 0C 0D 0E 0F
      -- -- -- -- -- -- -- --  -- -- -- -- -- -- -- --
0090: 37 0D 80 0E 80 0F 80 10  80 00                    7.........      
```

#### Opcodes

```
  0: 0x0090 [0x37] UPDATE_EVENT_POSITION_AND_DIR: x=-403.334*, z=-238.459*, y=-165.000*, direction=356.5°*
  1: 0x0099 [0x00] END_REQSTACK()
```
