# 17453327 - Volker

## Common Data

| Field            | Value                 |
|------------------|-----------------------|
| Zone             | Throne Room (ID: 165) |
| Block Size       | 200 bytes             |
| Total Events     | 7                     |
| References Count | 16                    |

## List of Events

| Event ID                 | Entrypoint   |   Size |   Instructions |
|--------------------------|--------------|--------|----------------|
| [65535](#event-65535)    | 0x0000       |      1 |              1 |
| [32004](#event-32004)    | 0x0001       |      1 |              1 |
| [32001](#event-32001)    | 0x0002       |      1 |              1 |
| [65535.1](#event-655351) | 0x0003       |     25 |              6 |
| [65535.2](#event-655352) | 0x001C       |     64 |             10 |

## DAT References (imed_data)

|   Index | Hex Value   |   Dec Value |
|---------|-------------|-------------|
|       0 | 0xFFF91474  |  4294513780 |
|       1 | 0xFFFC5177  |  4294726007 |
|       2 | 0xFFFD7356  |  4294800214 |
|       3 | 0x07E2      |        2018 |
|       4 | 0x000D      |          13 |
|       5 | 0xFFF8FE5B  |  4294508123 |
|       6 | 0xFFFC52A3  |  4294726307 |
|       7 | 0xFFFD7384  |  4294800260 |
|       8 | 0xFFF8FB10  |  4294507280 |
|       9 | 0xFFFC6D63  |  4294733155 |
|      10 | 0xFFFD72E1  |  4294800097 |
|      11 | 0x045F      |        1119 |
|      12 | 0x0028      |          40 |
|      13 | 0xFFF8F446  |  4294505542 |
|      14 | 0xFFFC591D  |  4294727965 |
|      15 | 0x00CA      |         202 |

## Events

### Event 65535

#### Metadata

| Field        | Value   |
|--------------|---------|
| Entrypoint   | 0x0000  |
| Data Size    | 1 bytes |
| Instructions | 1       |

```
      00 01 02 03 04 05 06 07  08 09 0A 0B 0C 0D 0E 0F
      -- -- -- -- -- -- -- --  -- -- -- -- -- -- -- --
0000: 00                                                .               
```

#### Opcodes

```
  0: 0x0000 [0x00] END_REQSTACK()
```

### Event 32004

#### Metadata

| Field        | Value   |
|--------------|---------|
| Entrypoint   | 0x0001  |
| Data Size    | 1 bytes |
| Instructions | 1       |

```
      00 01 02 03 04 05 06 07  08 09 0A 0B 0C 0D 0E 0F
      -- -- -- -- -- -- -- --  -- -- -- -- -- -- -- --
0000:    00                                              .              
```

#### Opcodes

```
  0: 0x0001 [0x00] END_REQSTACK()
```

### Event 32001

#### Metadata

| Field        | Value   |
|--------------|---------|
| Entrypoint   | 0x0002  |
| Data Size    | 1 bytes |
| Instructions | 1       |

```
      00 01 02 03 04 05 06 07  08 09 0A 0B 0C 0D 0E 0F
      -- -- -- -- -- -- -- --  -- -- -- -- -- -- -- --
0000:       00                                            .             
```

#### Opcodes

```
  0: 0x0002 [0x00] END_REQSTACK()
```

### Event 65535.1

#### Metadata

| Field        | Value    |
|--------------|----------|
| Entrypoint   | 0x0003   |
| Data Size    | 25 bytes |
| Instructions | 6        |

```
      00 01 02 03 04 05 06 07  08 09 0A 0B 0C 0D 0E 0F
      -- -- -- -- -- -- -- --  -- -- -- -- -- -- -- --
0000:          22 00 37 00 80  01 80 02 80 03 80 32 04     ".7........2.
0010: 80 1F 00 05 80 06 80 07  80 1F 01 00              ............    
```

#### Opcodes

```
  0: 0x0003 [0x22] ENTITY_HIDE_FLAG(enabled=0x00)
  1: 0x0005 [0x37] UPDATE_EVENT_POSITION_AND_DIR: x=-453.516*, z=-241.289*, y=-167.082*, direction=177.4°*
  2: 0x000E [0x32] ExtData[1]->MainSpeed = 13* * 0.1
  3: 0x0011 [0x1F] MOVE_ENTITY: EventEntity moves to X=-459.173*, Z=-240.989*, Y=-167.036*
  4: 0x0019 [0x1F] MOVE_ENTITY: Update entity position (mode=1)
  5: 0x001B [0x00] END_REQSTACK()
```

### Event 65535.2

#### Metadata

| Field        | Value    |
|--------------|----------|
| Entrypoint   | 0x001C   |
| Data Size    | 64 bytes |
| Instructions | 10       |

```
      00 01 02 03 04 05 06 07  08 09 0A 0B 0C 0D 0E 0F
      -- -- -- -- -- -- -- --  -- -- -- -- -- -- -- --
0010:                                      22 00 79 00              ".y.
0020: F8 FF FF 7F FF 50 0A 01  37 08 80 09 80 0A 80 0B  .....P..7.......
0030: 80 32 0C 80 1F 00 0D 80  0E 80 0A 80 1F 01 6F 5B  .2............o[
0040: 0F 80 0F 51 0A 01 0F 51  0A 01 73 67 6D 30 53 0F  ...Q...Q..sgm0S.
0050: 51 0A 01 0F 51 0A 01 73  67 6D 30 00              Q...Q..sgm0.    
```

#### Opcodes

```
  0: 0x001C [0x22] ENTITY_HIDE_FLAG(enabled=0x00)
  1: 0x001E [0x79] EventEntity looks at Zeid (ID: 17453311/0x010A50FF) (Basic look)
  2: 0x0028 [0x37] UPDATE_EVENT_POSITION_AND_DIR: x=-460.016*, z=-234.141*, y=-167.199*, direction=98.3°*
  3: 0x0031 [0x32] ExtData[1]->MainSpeed = 40* * 0.1
  4: 0x0034 [0x1F] MOVE_ENTITY: EventEntity moves to X=-461.754*, Z=-239.331*, Y=-167.199*
  5: 0x003C [0x1F] MOVE_ENTITY: Update entity position (mode=1)
  6: 0x003E [0x6F] WAIT_FRAME_DELAY: Yield until WaitTime reaches zero
  7: 0x003F [0x5B] LOAD_EXT_SCHEDULER: Load scheduler "sgm0" with entities [Volker (ID: 17453327/0x010A510F), Volker (ID: 17453327/0x010A510F)], work=202*
  8: 0x004E [0x53] WAIT_SCHEDULER_TASK: Wait for scheduler "sgm0" with entities [Volker (ID: 17453327/0x010A510F), Volker (ID: 17453327/0x010A510F)]
  9: 0x005B [0x00] END_REQSTACK()
```
