# 17453360 - Chaos

## Common Data

| Field            | Value                 |
|------------------|-----------------------|
| Zone             | Throne Room (ID: 165) |
| Block Size       | 392 bytes             |
| Total Events     | 20                    |
| References Count | 4                     |

## List of Events

| Event ID                   | Entrypoint   |   Size |   Instructions |
|----------------------------|--------------|--------|----------------|
| [65535](#event-65535)      | 0x0000       |      1 |              1 |
| [32001](#event-32001)      | 0x0001       |      7 |              2 |
| [65535.1](#event-655351)   | 0x0008       |     16 |              2 |
| [65535.2](#event-655352)   | 0x0018       |     14 |              2 |
| [65535.3](#event-655353)   | 0x0026       |     16 |              2 |
| [65535.4](#event-655354)   | 0x0036       |     14 |              2 |
| [65535.5](#event-655355)   | 0x0044       |     16 |              2 |
| [65535.6](#event-655356)   | 0x0054       |     14 |              2 |
| [65535.7](#event-655357)   | 0x0062       |     16 |              2 |
| [65535.8](#event-655358)   | 0x0072       |     14 |              2 |
| [65535.9](#event-655359)   | 0x0080       |     16 |              2 |
| [65535.10](#event-6553510) | 0x0090       |     14 |              2 |
| [65535.11](#event-6553511) | 0x009E       |     16 |              2 |
| [65535.12](#event-6553512) | 0x00AE       |     14 |              2 |
| [65535.13](#event-6553513) | 0x00BC       |     16 |              2 |
| [65535.14](#event-6553514) | 0x00CC       |     14 |              2 |
| [65535.15](#event-6553515) | 0x00DA       |     16 |              2 |
| [65535.16](#event-6553516) | 0x00EA       |     14 |              2 |
| [65535.17](#event-6553517) | 0x00F8       |     16 |              2 |
| [65535.18](#event-6553518) | 0x0108       |     14 |              2 |

## DAT References (imed_data)

|   Index | Hex Value   |   Dec Value |
|---------|-------------|-------------|
|       0 | 0x01F3      |         499 |
|       1 | 0x01F4      |         500 |
|       2 | 0x01F5      |         501 |
|       3 | 0x01F6      |         502 |

## Events

### Event 65535

#### Metadata

| Field        | Value   |
|--------------|---------|
| Entrypoint   | 0x0000  |
| Data Size    | 1 bytes |
| Instructions | 1       |

```
      00 01 02 03 04 05 06 07  08 09 0A 0B 0C 0D 0E 0F
      -- -- -- -- -- -- -- --  -- -- -- -- -- -- -- --
0000: 00                                                .               
```

#### Opcodes

```
  0: 0x0000 [0x00] END_REQSTACK()
```

### Event 32001

#### Metadata

| Field        | Value   |
|--------------|---------|
| Entrypoint   | 0x0001  |
| Data Size    | 7 bytes |
| Instructions | 2       |

```
      00 01 02 03 04 05 06 07  08 09 0A 0B 0C 0D 0E 0F
      -- -- -- -- -- -- -- --  -- -- -- -- -- -- -- --
0000:    92 01 F8 FF FF 7F 00                            .......        
```

#### Opcodes

```
  0: 0x0001 [0x92] EventEntity->Render.Flags3 ^= 0x01
  1: 0x0007 [0x00] END_REQSTACK()
```

### Event 65535.1

#### Metadata

| Field        | Value    |
|--------------|----------|
| Entrypoint   | 0x0008   |
| Data Size    | 16 bytes |
| Instructions | 2        |

```
      00 01 02 03 04 05 06 07  08 09 0A 0B 0C 0D 0E 0F
      -- -- -- -- -- -- -- --  -- -- -- -- -- -- -- --
0000:                          5B 00 80 F8 FF FF 7F F8          [.......
0010: FF FF 7F 64 65 66 30 00                           ...def0.        
```

#### Opcodes

```
  0: 0x0008 [0x5B] LOAD_EXT_SCHEDULER: Load scheduler "def0" with entities [EventEntity, EventEntity], work=499*
  1: 0x0017 [0x00] END_REQSTACK()
```

### Event 65535.2

#### Metadata

| Field        | Value    |
|--------------|----------|
| Entrypoint   | 0x0018   |
| Data Size    | 14 bytes |
| Instructions | 2        |

```
      00 01 02 03 04 05 06 07  08 09 0A 0B 0C 0D 0E 0F
      -- -- -- -- -- -- -- --  -- -- -- -- -- -- -- --
0010:                          53 F8 FF FF 7F F8 FF FF          S.......
0020: 7F 64 65 66 30 00                                 .def0.          
```

#### Opcodes

```
  0: 0x0018 [0x53] WAIT_SCHEDULER_TASK: Wait for scheduler "def0" with entities [EventEntity, EventEntity]
  1: 0x0025 [0x00] END_REQSTACK()
```

### Event 65535.3

#### Metadata

| Field        | Value    |
|--------------|----------|
| Entrypoint   | 0x0026   |
| Data Size    | 16 bytes |
| Instructions | 2        |

```
      00 01 02 03 04 05 06 07  08 09 0A 0B 0C 0D 0E 0F
      -- -- -- -- -- -- -- --  -- -- -- -- -- -- -- --
0020:                   5B 00  80 F8 FF FF 7F F8 FF FF        [.........
0030: 7F 68 6F 75 30 00                                 .hou0.          
```

#### Opcodes

```
  0: 0x0026 [0x5B] LOAD_EXT_SCHEDULER: Load scheduler "hou0" with entities [EventEntity, EventEntity], work=499*
  1: 0x0035 [0x00] END_REQSTACK()
```

### Event 65535.4

#### Metadata

| Field        | Value    |
|--------------|----------|
| Entrypoint   | 0x0036   |
| Data Size    | 14 bytes |
| Instructions | 2        |

```
      00 01 02 03 04 05 06 07  08 09 0A 0B 0C 0D 0E 0F
      -- -- -- -- -- -- -- --  -- -- -- -- -- -- -- --
0030:                   53 F8  FF FF 7F F8 FF FF 7F 68        S........h
0040: 6F 75 30 00                                       ou0.            
```

#### Opcodes

```
  0: 0x0036 [0x53] WAIT_SCHEDULER_TASK: Wait for scheduler "hou0" with entities [EventEntity, EventEntity]
  1: 0x0043 [0x00] END_REQSTACK()
```

### Event 65535.5

#### Metadata

| Field        | Value    |
|--------------|----------|
| Entrypoint   | 0x0044   |
| Data Size    | 16 bytes |
| Instructions | 2        |

```
      00 01 02 03 04 05 06 07  08 09 0A 0B 0C 0D 0E 0F
      -- -- -- -- -- -- -- --  -- -- -- -- -- -- -- --
0040:             5B 01 80 F8  FF FF 7F F8 FF FF 7F 6D      [..........m
0050: 67 61 30 00                                       ga0.            
```

#### Opcodes

```
  0: 0x0044 [0x5B] LOAD_EXT_SCHEDULER: Load scheduler "mga0" with entities [EventEntity, EventEntity], work=500*
  1: 0x0053 [0x00] END_REQSTACK()
```

### Event 65535.6

#### Metadata

| Field        | Value    |
|--------------|----------|
| Entrypoint   | 0x0054   |
| Data Size    | 14 bytes |
| Instructions | 2        |

```
      00 01 02 03 04 05 06 07  08 09 0A 0B 0C 0D 0E 0F
      -- -- -- -- -- -- -- --  -- -- -- -- -- -- -- --
0050:             53 F8 FF FF  7F F8 FF FF 7F 6D 67 61      S........mga
0060: 30 00                                             0.              
```

#### Opcodes

```
  0: 0x0054 [0x53] WAIT_SCHEDULER_TASK: Wait for scheduler "mga0" with entities [EventEntity, EventEntity]
  1: 0x0061 [0x00] END_REQSTACK()
```

### Event 65535.7

#### Metadata

| Field        | Value    |
|--------------|----------|
| Entrypoint   | 0x0062   |
| Data Size    | 16 bytes |
| Instructions | 2        |

```
      00 01 02 03 04 05 06 07  08 09 0A 0B 0C 0D 0E 0F
      -- -- -- -- -- -- -- --  -- -- -- -- -- -- -- --
0060:       5B 01 80 F8 FF FF  7F F8 FF FF 7F 6D 67 61    [..........mga
0070: 31 00                                             1.              
```

#### Opcodes

```
  0: 0x0062 [0x5B] LOAD_EXT_SCHEDULER: Load scheduler "mga1" with entities [EventEntity, EventEntity], work=500*
  1: 0x0071 [0x00] END_REQSTACK()
```

### Event 65535.8

#### Metadata

| Field        | Value    |
|--------------|----------|
| Entrypoint   | 0x0072   |
| Data Size    | 14 bytes |
| Instructions | 2        |

```
      00 01 02 03 04 05 06 07  08 09 0A 0B 0C 0D 0E 0F
      -- -- -- -- -- -- -- --  -- -- -- -- -- -- -- --
0070:       53 F8 FF FF 7F F8  FF FF 7F 6D 67 61 31 00    S........mga1.
```

#### Opcodes

```
  0: 0x0072 [0x53] WAIT_SCHEDULER_TASK: Wait for scheduler "mga1" with entities [EventEntity, EventEntity]
  1: 0x007F [0x00] END_REQSTACK()
```

### Event 65535.9

#### Metadata

| Field        | Value    |
|--------------|----------|
| Entrypoint   | 0x0080   |
| Data Size    | 16 bytes |
| Instructions | 2        |

```
      00 01 02 03 04 05 06 07  08 09 0A 0B 0C 0D 0E 0F
      -- -- -- -- -- -- -- --  -- -- -- -- -- -- -- --
0080: 5B 02 80 F8 FF FF 7F F8  FF FF 7F 6D 6B 75 30 00  [..........mku0.
```

#### Opcodes

```
  0: 0x0080 [0x5B] LOAD_EXT_SCHEDULER: Load scheduler "mku0" with entities [EventEntity, EventEntity], work=501*
  1: 0x008F [0x00] END_REQSTACK()
```

### Event 65535.10

#### Metadata

| Field        | Value    |
|--------------|----------|
| Entrypoint   | 0x0090   |
| Data Size    | 14 bytes |
| Instructions | 2        |

```
      00 01 02 03 04 05 06 07  08 09 0A 0B 0C 0D 0E 0F
      -- -- -- -- -- -- -- --  -- -- -- -- -- -- -- --
0090: 53 F8 FF FF 7F F8 FF FF  7F 6D 6B 75 30 00        S........mku0.  
```

#### Opcodes

```
  0: 0x0090 [0x53] WAIT_SCHEDULER_TASK: Wait for scheduler "mku0" with entities [EventEntity, EventEntity]
  1: 0x009D [0x00] END_REQSTACK()
```

### Event 65535.11

#### Metadata

| Field        | Value    |
|--------------|----------|
| Entrypoint   | 0x009E   |
| Data Size    | 16 bytes |
| Instructions | 2        |

```
      00 01 02 03 04 05 06 07  08 09 0A 0B 0C 0D 0E 0F
      -- -- -- -- -- -- -- --  -- -- -- -- -- -- -- --
0090:                                            5B 02                [.
00A0: 80 F8 FF FF 7F F8 FF FF  7F 68 6F 75 31 00        .........hou1.  
```

#### Opcodes

```
  0: 0x009E [0x5B] LOAD_EXT_SCHEDULER: Load scheduler "hou1" with entities [EventEntity, EventEntity], work=501*
  1: 0x00AD [0x00] END_REQSTACK()
```

### Event 65535.12

#### Metadata

| Field        | Value    |
|--------------|----------|
| Entrypoint   | 0x00AE   |
| Data Size    | 14 bytes |
| Instructions | 2        |

```
      00 01 02 03 04 05 06 07  08 09 0A 0B 0C 0D 0E 0F
      -- -- -- -- -- -- -- --  -- -- -- -- -- -- -- --
00A0:                                            53 F8                S.
00B0: FF FF 7F F8 FF FF 7F 68  6F 75 31 00              .......hou1.    
```

#### Opcodes

```
  0: 0x00AE [0x53] WAIT_SCHEDULER_TASK: Wait for scheduler "hou1" with entities [EventEntity, EventEntity]
  1: 0x00BB [0x00] END_REQSTACK()
```

### Event 65535.13

#### Metadata

| Field        | Value    |
|--------------|----------|
| Entrypoint   | 0x00BC   |
| Data Size    | 16 bytes |
| Instructions | 2        |

```
      00 01 02 03 04 05 06 07  08 09 0A 0B 0C 0D 0E 0F
      -- -- -- -- -- -- -- --  -- -- -- -- -- -- -- --
00B0:                                      5B 03 80 F8              [...
00C0: FF FF 7F F8 FF FF 7F 68  62 61 30 00              .......hba0.    
```

#### Opcodes

```
  0: 0x00BC [0x5B] LOAD_EXT_SCHEDULER: Load scheduler "hba0" with entities [EventEntity, EventEntity], work=502*
  1: 0x00CB [0x00] END_REQSTACK()
```

### Event 65535.14

#### Metadata

| Field        | Value    |
|--------------|----------|
| Entrypoint   | 0x00CC   |
| Data Size    | 14 bytes |
| Instructions | 2        |

```
      00 01 02 03 04 05 06 07  08 09 0A 0B 0C 0D 0E 0F
      -- -- -- -- -- -- -- --  -- -- -- -- -- -- -- --
00C0:                                      53 F8 FF FF              S...
00D0: 7F F8 FF FF 7F 68 62 61  30 00                    .....hba0.      
```

#### Opcodes

```
  0: 0x00CC [0x53] WAIT_SCHEDULER_TASK: Wait for scheduler "hba0" with entities [EventEntity, EventEntity]
  1: 0x00D9 [0x00] END_REQSTACK()
```

### Event 65535.15

#### Metadata

| Field        | Value    |
|--------------|----------|
| Entrypoint   | 0x00DA   |
| Data Size    | 16 bytes |
| Instructions | 2        |

```
      00 01 02 03 04 05 06 07  08 09 0A 0B 0C 0D 0E 0F
      -- -- -- -- -- -- -- --  -- -- -- -- -- -- -- --
00D0:                                5B 03 80 F8 FF FF            [.....
00E0: 7F F8 FF FF 7F 6D 67 61  30 00                    .....mga0.      
```

#### Opcodes

```
  0: 0x00DA [0x5B] LOAD_EXT_SCHEDULER: Load scheduler "mga0" with entities [EventEntity, EventEntity], work=502*
  1: 0x00E9 [0x00] END_REQSTACK()
```

### Event 65535.16

#### Metadata

| Field        | Value    |
|--------------|----------|
| Entrypoint   | 0x00EA   |
| Data Size    | 14 bytes |
| Instructions | 2        |

```
      00 01 02 03 04 05 06 07  08 09 0A 0B 0C 0D 0E 0F
      -- -- -- -- -- -- -- --  -- -- -- -- -- -- -- --
00E0:                                53 F8 FF FF 7F F8            S.....
00F0: FF FF 7F 6D 67 61 30 00                           ...mga0.        
```

#### Opcodes

```
  0: 0x00EA [0x53] WAIT_SCHEDULER_TASK: Wait for scheduler "mga0" with entities [EventEntity, EventEntity]
  1: 0x00F7 [0x00] END_REQSTACK()
```

### Event 65535.17

#### Metadata

| Field        | Value    |
|--------------|----------|
| Entrypoint   | 0x00F8   |
| Data Size    | 16 bytes |
| Instructions | 2        |

```
      00 01 02 03 04 05 06 07  08 09 0A 0B 0C 0D 0E 0F
      -- -- -- -- -- -- -- --  -- -- -- -- -- -- -- --
00F0:                          5B 03 80 F8 FF FF 7F F8          [.......
0100: FF FF 7F 68 6B 69 30 00                           ...hki0.        
```

#### Opcodes

```
  0: 0x00F8 [0x5B] LOAD_EXT_SCHEDULER: Load scheduler "hki0" with entities [EventEntity, EventEntity], work=502*
  1: 0x0107 [0x00] END_REQSTACK()
```

### Event 65535.18

#### Metadata

| Field        | Value    |
|--------------|----------|
| Entrypoint   | 0x0108   |
| Data Size    | 14 bytes |
| Instructions | 2        |

```
      00 01 02 03 04 05 06 07  08 09 0A 0B 0C 0D 0E 0F
      -- -- -- -- -- -- -- --  -- -- -- -- -- -- -- --
0100:                          53 F8 FF FF 7F F8 FF FF          S.......
0110: 7F 68 6B 69 30 00                                 .hki0.          
```

#### Opcodes

```
  0: 0x0108 [0x53] WAIT_SCHEDULER_TASK: Wait for scheduler "hki0" with entities [EventEntity, EventEntity]
  1: 0x0115 [0x00] END_REQSTACK()
```
