# 17453356 - Orcish Warchief

## Common Data

| Field            | Value                 |
|------------------|-----------------------|
| Zone             | Throne Room (ID: 165) |
| Block Size       | 3232 bytes            |
| Total Events     | 162                   |
| References Count | 32                    |

## List of Events

| Event ID                     | Entrypoint   |   Size |   Instructions |
|------------------------------|--------------|--------|----------------|
| [65535](#event-65535)        | 0x0000       |      1 |              1 |
| [65535.1](#event-655351)     | 0x0001       |     16 |              2 |
| [65535.2](#event-655352)     | 0x0011       |     14 |              2 |
| [65535.3](#event-655353)     | 0x001F       |     16 |              2 |
| [65535.4](#event-655354)     | 0x002F       |     14 |              2 |
| [65535.5](#event-655355)     | 0x003D       |     16 |              2 |
| [65535.6](#event-655356)     | 0x004D       |     14 |              2 |
| [65535.7](#event-655357)     | 0x005B       |     16 |              2 |
| [65535.8](#event-655358)     | 0x006B       |     14 |              2 |
| [65535.9](#event-655359)     | 0x0079       |     16 |              2 |
| [65535.10](#event-6553510)   | 0x0089       |     14 |              2 |
| [65535.11](#event-6553511)   | 0x0097       |     16 |              2 |
| [65535.12](#event-6553512)   | 0x00A7       |     14 |              2 |
| [65535.13](#event-6553513)   | 0x00B5       |     16 |              2 |
| [65535.14](#event-6553514)   | 0x00C5       |     14 |              2 |
| [65535.15](#event-6553515)   | 0x00D3       |     16 |              2 |
| [65535.16](#event-6553516)   | 0x00E3       |     14 |              2 |
| [65535.17](#event-6553517)   | 0x00F1       |     16 |              2 |
| [65535.18](#event-6553518)   | 0x0101       |     14 |              2 |
| [65535.19](#event-6553519)   | 0x010F       |     29 |              3 |
| [65535.20](#event-6553520)   | 0x012C       |     29 |              3 |
| [65535.21](#event-6553521)   | 0x0149       |     29 |              3 |
| [65535.22](#event-6553522)   | 0x0166       |     29 |              3 |
| [65535.23](#event-6553523)   | 0x0183       |     16 |              2 |
| [65535.24](#event-6553524)   | 0x0193       |     14 |              2 |
| [65535.25](#event-6553525)   | 0x01A1       |     16 |              2 |
| [65535.26](#event-6553526)   | 0x01B1       |     14 |              2 |
| [65535.27](#event-6553527)   | 0x01BF       |     16 |              2 |
| [65535.28](#event-6553528)   | 0x01CF       |     14 |              2 |
| [65535.29](#event-6553529)   | 0x01DD       |     16 |              2 |
| [65535.30](#event-6553530)   | 0x01ED       |     14 |              2 |
| [65535.31](#event-6553531)   | 0x01FB       |     16 |              2 |
| [65535.32](#event-6553532)   | 0x020B       |     14 |              2 |
| [65535.33](#event-6553533)   | 0x0219       |     16 |              2 |
| [65535.34](#event-6553534)   | 0x0229       |     14 |              2 |
| [65535.35](#event-6553535)   | 0x0237       |     16 |              2 |
| [65535.36](#event-6553536)   | 0x0247       |     14 |              2 |
| [65535.37](#event-6553537)   | 0x0255       |     16 |              2 |
| [65535.38](#event-6553538)   | 0x0265       |     14 |              2 |
| [65535.39](#event-6553539)   | 0x0273       |     16 |              2 |
| [65535.40](#event-6553540)   | 0x0283       |     14 |              2 |
| [65535.41](#event-6553541)   | 0x0291       |     16 |              2 |
| [65535.42](#event-6553542)   | 0x02A1       |     14 |              2 |
| [65535.43](#event-6553543)   | 0x02AF       |     16 |              2 |
| [65535.44](#event-6553544)   | 0x02BF       |     14 |              2 |
| [65535.45](#event-6553545)   | 0x02CD       |     16 |              2 |
| [65535.46](#event-6553546)   | 0x02DD       |     14 |              2 |
| [65535.47](#event-6553547)   | 0x02EB       |     16 |              2 |
| [65535.48](#event-6553548)   | 0x02FB       |     14 |              2 |
| [65535.49](#event-6553549)   | 0x0309       |     16 |              2 |
| [65535.50](#event-6553550)   | 0x0319       |     14 |              2 |
| [65535.51](#event-6553551)   | 0x0327       |     16 |              2 |
| [65535.52](#event-6553552)   | 0x0337       |     14 |              2 |
| [65535.53](#event-6553553)   | 0x0345       |     16 |              2 |
| [65535.54](#event-6553554)   | 0x0355       |     14 |              2 |
| [65535.55](#event-6553555)   | 0x0363       |     16 |              2 |
| [65535.56](#event-6553556)   | 0x0373       |     14 |              2 |
| [65535.57](#event-6553557)   | 0x0381       |     16 |              2 |
| [65535.58](#event-6553558)   | 0x0391       |     14 |              2 |
| [65535.59](#event-6553559)   | 0x039F       |     16 |              2 |
| [65535.60](#event-6553560)   | 0x03AF       |     14 |              2 |
| [65535.61](#event-6553561)   | 0x03BD       |     16 |              2 |
| [65535.62](#event-6553562)   | 0x03CD       |     14 |              2 |
| [65535.63](#event-6553563)   | 0x03DB       |     16 |              2 |
| [65535.64](#event-6553564)   | 0x03EB       |     14 |              2 |
| [65535.65](#event-6553565)   | 0x03F9       |     16 |              2 |
| [65535.66](#event-6553566)   | 0x0409       |     14 |              2 |
| [65535.67](#event-6553567)   | 0x0417       |     16 |              2 |
| [65535.68](#event-6553568)   | 0x0427       |     14 |              2 |
| [65535.69](#event-6553569)   | 0x0435       |     16 |              2 |
| [65535.70](#event-6553570)   | 0x0445       |     14 |              2 |
| [65535.71](#event-6553571)   | 0x0453       |     16 |              2 |
| [65535.72](#event-6553572)   | 0x0463       |     14 |              2 |
| [65535.73](#event-6553573)   | 0x0471       |     16 |              2 |
| [65535.74](#event-6553574)   | 0x0481       |     14 |              2 |
| [65535.75](#event-6553575)   | 0x048F       |     16 |              2 |
| [65535.76](#event-6553576)   | 0x049F       |     14 |              2 |
| [65535.77](#event-6553577)   | 0x04AD       |     16 |              2 |
| [65535.78](#event-6553578)   | 0x04BD       |     14 |              2 |
| [65535.79](#event-6553579)   | 0x04CB       |     16 |              2 |
| [65535.80](#event-6553580)   | 0x04DB       |     14 |              2 |
| [65535.81](#event-6553581)   | 0x04E9       |     16 |              2 |
| [65535.82](#event-6553582)   | 0x04F9       |     14 |              2 |
| [65535.83](#event-6553583)   | 0x0507       |     16 |              2 |
| [65535.84](#event-6553584)   | 0x0517       |     14 |              2 |
| [65535.85](#event-6553585)   | 0x0525       |     16 |              2 |
| [65535.86](#event-6553586)   | 0x0535       |     14 |              2 |
| [65535.87](#event-6553587)   | 0x0543       |     16 |              2 |
| [65535.88](#event-6553588)   | 0x0553       |     14 |              2 |
| [65535.89](#event-6553589)   | 0x0561       |     16 |              2 |
| [65535.90](#event-6553590)   | 0x0571       |     14 |              2 |
| [65535.91](#event-6553591)   | 0x057F       |     16 |              2 |
| [65535.92](#event-6553592)   | 0x058F       |     14 |              2 |
| [65535.93](#event-6553593)   | 0x059D       |     16 |              2 |
| [65535.94](#event-6553594)   | 0x05AD       |     14 |              2 |
| [65535.95](#event-6553595)   | 0x05BB       |     16 |              2 |
| [65535.96](#event-6553596)   | 0x05CB       |     14 |              2 |
| [65535.97](#event-6553597)   | 0x05D9       |     16 |              2 |
| [65535.98](#event-6553598)   | 0x05E9       |     14 |              2 |
| [65535.99](#event-6553599)   | 0x05F7       |     16 |              2 |
| [65535.100](#event-65535100) | 0x0607       |     14 |              2 |
| [65535.101](#event-65535101) | 0x0615       |     16 |              2 |
| [65535.102](#event-65535102) | 0x0625       |     14 |              2 |
| [65535.103](#event-65535103) | 0x0633       |     16 |              2 |
| [65535.104](#event-65535104) | 0x0643       |     14 |              2 |
| [65535.105](#event-65535105) | 0x0651       |     16 |              2 |
| [65535.106](#event-65535106) | 0x0661       |     14 |              2 |
| [65535.107](#event-65535107) | 0x066F       |     16 |              2 |
| [65535.108](#event-65535108) | 0x067F       |     14 |              2 |
| [65535.109](#event-65535109) | 0x068D       |     16 |              2 |
| [65535.110](#event-65535110) | 0x069D       |     14 |              2 |
| [65535.111](#event-65535111) | 0x06AB       |     16 |              2 |
| [65535.112](#event-65535112) | 0x06BB       |     14 |              2 |
| [65535.113](#event-65535113) | 0x06C9       |     16 |              2 |
| [65535.114](#event-65535114) | 0x06D9       |     14 |              2 |
| [65535.115](#event-65535115) | 0x06E7       |     16 |              2 |
| [65535.116](#event-65535116) | 0x06F7       |     14 |              2 |
| [65535.117](#event-65535117) | 0x0705       |     16 |              2 |
| [65535.118](#event-65535118) | 0x0715       |     14 |              2 |
| [65535.119](#event-65535119) | 0x0723       |     16 |              2 |
| [65535.120](#event-65535120) | 0x0733       |     14 |              2 |
| [65535.121](#event-65535121) | 0x0741       |     16 |              2 |
| [65535.122](#event-65535122) | 0x0751       |     14 |              2 |
| [65535.123](#event-65535123) | 0x075F       |     16 |              2 |
| [65535.124](#event-65535124) | 0x076F       |     14 |              2 |
| [65535.125](#event-65535125) | 0x077D       |     16 |              2 |
| [65535.126](#event-65535126) | 0x078D       |     14 |              2 |
| [65535.127](#event-65535127) | 0x079B       |     16 |              2 |
| [65535.128](#event-65535128) | 0x07AB       |     14 |              2 |
| [65535.129](#event-65535129) | 0x07B9       |     16 |              2 |
| [65535.130](#event-65535130) | 0x07C9       |     14 |              2 |
| [65535.131](#event-65535131) | 0x07D7       |     16 |              2 |
| [65535.132](#event-65535132) | 0x07E7       |     14 |              2 |
| [65535.133](#event-65535133) | 0x07F5       |     16 |              2 |
| [65535.134](#event-65535134) | 0x0805       |     14 |              2 |
| [65535.135](#event-65535135) | 0x0813       |     16 |              2 |
| [65535.136](#event-65535136) | 0x0823       |     14 |              2 |
| [65535.137](#event-65535137) | 0x0831       |     16 |              2 |
| [65535.138](#event-65535138) | 0x0841       |     14 |              2 |
| [65535.139](#event-65535139) | 0x084F       |     16 |              2 |
| [65535.140](#event-65535140) | 0x085F       |     14 |              2 |
| [65535.141](#event-65535141) | 0x086D       |     16 |              2 |
| [65535.142](#event-65535142) | 0x087D       |     14 |              2 |
| [65535.143](#event-65535143) | 0x088B       |     16 |              2 |
| [65535.144](#event-65535144) | 0x089B       |     14 |              2 |
| [65535.145](#event-65535145) | 0x08A9       |     16 |              2 |
| [65535.146](#event-65535146) | 0x08B9       |     14 |              2 |
| [65535.147](#event-65535147) | 0x08C7       |     16 |              2 |
| [65535.148](#event-65535148) | 0x08D7       |     14 |              2 |
| [65535.149](#event-65535149) | 0x08E5       |     16 |              2 |
| [65535.150](#event-65535150) | 0x08F5       |     14 |              2 |
| [65535.151](#event-65535151) | 0x0903       |     16 |              2 |
| [65535.152](#event-65535152) | 0x0913       |     14 |              2 |
| [65535.153](#event-65535153) | 0x0921       |     16 |              2 |
| [65535.154](#event-65535154) | 0x0931       |     14 |              2 |
| [65535.155](#event-65535155) | 0x093F       |     16 |              2 |
| [65535.156](#event-65535156) | 0x094F       |     14 |              2 |
| [65535.157](#event-65535157) | 0x095D       |      7 |              3 |
| [65535.158](#event-65535158) | 0x0964       |      7 |              3 |
| [8](#event-8)                | 0x096B       |      7 |              2 |
| [65535.159](#event-65535159) | 0x0972       |     15 |              5 |
| [32001](#event-32001)        | 0x0981       |      7 |              2 |

## DAT References (imed_data)

|   Index | Hex Value   |   Dec Value |
|---------|-------------|-------------|
|       0 | 0x0597      |        1431 |
|       1 | 0x09A0      |        2464 |
|       2 | 0x04EE      |        1262 |
|       3 | 0x0587      |        1415 |
|       4 | 0x00E1      |         225 |
|       5 | 0x058A      |        1418 |
|       6 | 0x058C      |        1420 |
|       7 | 0x0A7E      |        2686 |
|       8 | 0x0598      |        1432 |
|       9 | 0x0588      |        1416 |
|      10 | 0x0589      |        1417 |
|      11 | 0x0A23      |        2595 |
|      12 | 0x0A28      |        2600 |
|      13 | 0x0A87      |        2695 |
|      14 | 0x0C5E      |        3166 |
|      15 | 0x0A81      |        2689 |
|      16 | 0x0A22      |        2594 |
|      17 | 0x0C5F      |        3167 |
|      18 | 0x0A20      |        2592 |
|      19 | 0x0A21      |        2593 |
|      20 | 0x0A24      |        2596 |
|      21 | 0x0A25      |        2597 |
|      22 | 0x0A34      |        2612 |
|      23 | 0x0A26      |        2598 |
|      24 | 0x0A85      |        2693 |
|      25 | 0x0018      |          24 |
|      26 | 0x0001      |           1 |
|      27 | 0x0000      |           0 |
|      28 | 0x000D      |          13 |
|      29 | 0xFFF8EE03  |  4294503939 |
|      30 | 0xFFFC5522  |  4294726946 |
|      31 | 0xFFFD72E1  |  4294800097 |

## Events

### Event 65535

#### Metadata

| Field        | Value   |
|--------------|---------|
| Entrypoint   | 0x0000  |
| Data Size    | 1 bytes |
| Instructions | 1       |

```
      00 01 02 03 04 05 06 07  08 09 0A 0B 0C 0D 0E 0F
      -- -- -- -- -- -- -- --  -- -- -- -- -- -- -- --
0000: 00                                                .               
```

#### Opcodes

```
  0: 0x0000 [0x00] END_REQSTACK()
```

### Event 65535.1

#### Metadata

| Field        | Value    |
|--------------|----------|
| Entrypoint   | 0x0001   |
| Data Size    | 16 bytes |
| Instructions | 2        |

```
      00 01 02 03 04 05 06 07  08 09 0A 0B 0C 0D 0E 0F
      -- -- -- -- -- -- -- --  -- -- -- -- -- -- -- --
0000:    5B 00 80 F8 FF FF 7F  F8 FF FF 7F 64 65 64 62   [..........dedb
0010: 00                                                .               
```

#### Opcodes

```
  0: 0x0001 [0x5B] LOAD_EXT_SCHEDULER: Load scheduler "dedb" with entities [EventEntity, EventEntity], work=1431*
  1: 0x0010 [0x00] END_REQSTACK()
```

### Event 65535.2

#### Metadata

| Field        | Value    |
|--------------|----------|
| Entrypoint   | 0x0011   |
| Data Size    | 14 bytes |
| Instructions | 2        |

```
      00 01 02 03 04 05 06 07  08 09 0A 0B 0C 0D 0E 0F
      -- -- -- -- -- -- -- --  -- -- -- -- -- -- -- --
0010:    53 F8 FF FF 7F F8 FF  FF 7F 64 65 64 62 00      S........dedb. 
```

#### Opcodes

```
  0: 0x0011 [0x53] WAIT_SCHEDULER_TASK: Wait for scheduler "dedb" with entities [EventEntity, EventEntity]
  1: 0x001E [0x00] END_REQSTACK()
```

### Event 65535.3

#### Metadata

| Field        | Value    |
|--------------|----------|
| Entrypoint   | 0x001F   |
| Data Size    | 16 bytes |
| Instructions | 2        |

```
      00 01 02 03 04 05 06 07  08 09 0A 0B 0C 0D 0E 0F
      -- -- -- -- -- -- -- --  -- -- -- -- -- -- -- --
0010:                                               5B                 [
0020: 01 80 F8 FF FF 7F F8 FF  FF 7F 77 72 64 31 00     ..........wrd1. 
```

#### Opcodes

```
  0: 0x001F [0x5B] LOAD_EXT_SCHEDULER: Load scheduler "wrd1" with entities [EventEntity, EventEntity], work=2464*
  1: 0x002E [0x00] END_REQSTACK()
```

### Event 65535.4

#### Metadata

| Field        | Value    |
|--------------|----------|
| Entrypoint   | 0x002F   |
| Data Size    | 14 bytes |
| Instructions | 2        |

```
      00 01 02 03 04 05 06 07  08 09 0A 0B 0C 0D 0E 0F
      -- -- -- -- -- -- -- --  -- -- -- -- -- -- -- --
0020:                                               53                 S
0030: F8 FF FF 7F F8 FF FF 7F  77 72 64 31 00           ........wrd1.   
```

#### Opcodes

```
  0: 0x002F [0x53] WAIT_SCHEDULER_TASK: Wait for scheduler "wrd1" with entities [EventEntity, EventEntity]
  1: 0x003C [0x00] END_REQSTACK()
```

### Event 65535.5

#### Metadata

| Field        | Value    |
|--------------|----------|
| Entrypoint   | 0x003D   |
| Data Size    | 16 bytes |
| Instructions | 2        |

```
      00 01 02 03 04 05 06 07  08 09 0A 0B 0C 0D 0E 0F
      -- -- -- -- -- -- -- --  -- -- -- -- -- -- -- --
0030:                                         5B 02 80               [..
0040: F8 FF FF 7F F8 FF FF 7F  70 76 61 30 00           ........pva0.   
```

#### Opcodes

```
  0: 0x003D [0x5B] LOAD_EXT_SCHEDULER: Load scheduler "pva0" with entities [EventEntity, EventEntity], work=1262*
  1: 0x004C [0x00] END_REQSTACK()
```

### Event 65535.6

#### Metadata

| Field        | Value    |
|--------------|----------|
| Entrypoint   | 0x004D   |
| Data Size    | 14 bytes |
| Instructions | 2        |

```
      00 01 02 03 04 05 06 07  08 09 0A 0B 0C 0D 0E 0F
      -- -- -- -- -- -- -- --  -- -- -- -- -- -- -- --
0040:                                         53 F8 FF               S..
0050: FF 7F F8 FF FF 7F 70 76  61 30 00                 ......pva0.     
```

#### Opcodes

```
  0: 0x004D [0x53] WAIT_SCHEDULER_TASK: Wait for scheduler "pva0" with entities [EventEntity, EventEntity]
  1: 0x005A [0x00] END_REQSTACK()
```

### Event 65535.7

#### Metadata

| Field        | Value    |
|--------------|----------|
| Entrypoint   | 0x005B   |
| Data Size    | 16 bytes |
| Instructions | 2        |

```
      00 01 02 03 04 05 06 07  08 09 0A 0B 0C 0D 0E 0F
      -- -- -- -- -- -- -- --  -- -- -- -- -- -- -- --
0050:                                   5B 03 80 F8 FF             [....
0060: FF 7F F8 FF FF 7F 68 6F  75 30 00                 ......hou0.     
```

#### Opcodes

```
  0: 0x005B [0x5B] LOAD_EXT_SCHEDULER: Load scheduler "hou0" with entities [EventEntity, EventEntity], work=1415*
  1: 0x006A [0x00] END_REQSTACK()
```

### Event 65535.8

#### Metadata

| Field        | Value    |
|--------------|----------|
| Entrypoint   | 0x006B   |
| Data Size    | 14 bytes |
| Instructions | 2        |

```
      00 01 02 03 04 05 06 07  08 09 0A 0B 0C 0D 0E 0F
      -- -- -- -- -- -- -- --  -- -- -- -- -- -- -- --
0060:                                   53 F8 FF FF 7F             S....
0070: F8 FF FF 7F 68 6F 75 30  00                       ....hou0.       
```

#### Opcodes

```
  0: 0x006B [0x53] WAIT_SCHEDULER_TASK: Wait for scheduler "hou0" with entities [EventEntity, EventEntity]
  1: 0x0078 [0x00] END_REQSTACK()
```

### Event 65535.9

#### Metadata

| Field        | Value    |
|--------------|----------|
| Entrypoint   | 0x0079   |
| Data Size    | 16 bytes |
| Instructions | 2        |

```
      00 01 02 03 04 05 06 07  08 09 0A 0B 0C 0D 0E 0F
      -- -- -- -- -- -- -- --  -- -- -- -- -- -- -- --
0070:                             5B 04 80 F8 FF FF 7F           [......
0080: F8 FF FF 7F 68 6F 75 31  00                       ....hou1.       
```

#### Opcodes

```
  0: 0x0079 [0x5B] LOAD_EXT_SCHEDULER: Load scheduler "hou1" with entities [EventEntity, EventEntity], work=225*
  1: 0x0088 [0x00] END_REQSTACK()
```

### Event 65535.10

#### Metadata

| Field        | Value    |
|--------------|----------|
| Entrypoint   | 0x0089   |
| Data Size    | 14 bytes |
| Instructions | 2        |

```
      00 01 02 03 04 05 06 07  08 09 0A 0B 0C 0D 0E 0F
      -- -- -- -- -- -- -- --  -- -- -- -- -- -- -- --
0080:                             53 F8 FF FF 7F F8 FF           S......
0090: FF 7F 68 6F 75 31 00                              ..hou1.         
```

#### Opcodes

```
  0: 0x0089 [0x53] WAIT_SCHEDULER_TASK: Wait for scheduler "hou1" with entities [EventEntity, EventEntity]
  1: 0x0096 [0x00] END_REQSTACK()
```

### Event 65535.11

#### Metadata

| Field        | Value    |
|--------------|----------|
| Entrypoint   | 0x0097   |
| Data Size    | 16 bytes |
| Instructions | 2        |

```
      00 01 02 03 04 05 06 07  08 09 0A 0B 0C 0D 0E 0F
      -- -- -- -- -- -- -- --  -- -- -- -- -- -- -- --
0090:                      5B  04 80 F8 FF FF 7F F8 FF         [........
00A0: FF 7F 61 64 61 30 00                              ..ada0.         
```

#### Opcodes

```
  0: 0x0097 [0x5B] LOAD_EXT_SCHEDULER: Load scheduler "ada0" with entities [EventEntity, EventEntity], work=225*
  1: 0x00A6 [0x00] END_REQSTACK()
```

### Event 65535.12

#### Metadata

| Field        | Value    |
|--------------|----------|
| Entrypoint   | 0x00A7   |
| Data Size    | 14 bytes |
| Instructions | 2        |

```
      00 01 02 03 04 05 06 07  08 09 0A 0B 0C 0D 0E 0F
      -- -- -- -- -- -- -- --  -- -- -- -- -- -- -- --
00A0:                      53  F8 FF FF 7F F8 FF FF 7F         S........
00B0: 61 64 61 30 00                                    ada0.           
```

#### Opcodes

```
  0: 0x00A7 [0x53] WAIT_SCHEDULER_TASK: Wait for scheduler "ada0" with entities [EventEntity, EventEntity]
  1: 0x00B4 [0x00] END_REQSTACK()
```

### Event 65535.13

#### Metadata

| Field        | Value    |
|--------------|----------|
| Entrypoint   | 0x00B5   |
| Data Size    | 16 bytes |
| Instructions | 2        |

```
      00 01 02 03 04 05 06 07  08 09 0A 0B 0C 0D 0E 0F
      -- -- -- -- -- -- -- --  -- -- -- -- -- -- -- --
00B0:                5B 04 80  F8 FF FF 7F F8 FF FF 7F       [..........
00C0: 61 64 61 31 00                                    ada1.           
```

#### Opcodes

```
  0: 0x00B5 [0x5B] LOAD_EXT_SCHEDULER: Load scheduler "ada1" with entities [EventEntity, EventEntity], work=225*
  1: 0x00C4 [0x00] END_REQSTACK()
```

### Event 65535.14

#### Metadata

| Field        | Value    |
|--------------|----------|
| Entrypoint   | 0x00C5   |
| Data Size    | 14 bytes |
| Instructions | 2        |

```
      00 01 02 03 04 05 06 07  08 09 0A 0B 0C 0D 0E 0F
      -- -- -- -- -- -- -- --  -- -- -- -- -- -- -- --
00C0:                53 F8 FF  FF 7F F8 FF FF 7F 61 64       S........ad
00D0: 61 31 00                                          a1.             
```

#### Opcodes

```
  0: 0x00C5 [0x53] WAIT_SCHEDULER_TASK: Wait for scheduler "ada1" with entities [EventEntity, EventEntity]
  1: 0x00D2 [0x00] END_REQSTACK()
```

### Event 65535.15

#### Metadata

| Field        | Value    |
|--------------|----------|
| Entrypoint   | 0x00D3   |
| Data Size    | 16 bytes |
| Instructions | 2        |

```
      00 01 02 03 04 05 06 07  08 09 0A 0B 0C 0D 0E 0F
      -- -- -- -- -- -- -- --  -- -- -- -- -- -- -- --
00D0:          5B 05 80 F8 FF  FF 7F F8 FF FF 7F 65 6F     [..........eo
00E0: 61 30 00                                          a0.             
```

#### Opcodes

```
  0: 0x00D3 [0x5B] LOAD_EXT_SCHEDULER: Load scheduler "eoa0" with entities [EventEntity, EventEntity], work=1418*
  1: 0x00E2 [0x00] END_REQSTACK()
```

### Event 65535.16

#### Metadata

| Field        | Value    |
|--------------|----------|
| Entrypoint   | 0x00E3   |
| Data Size    | 14 bytes |
| Instructions | 2        |

```
      00 01 02 03 04 05 06 07  08 09 0A 0B 0C 0D 0E 0F
      -- -- -- -- -- -- -- --  -- -- -- -- -- -- -- --
00E0:          53 F8 FF FF 7F  F8 FF FF 7F 65 6F 61 30     S........eoa0
00F0: 00                                                .               
```

#### Opcodes

```
  0: 0x00E3 [0x53] WAIT_SCHEDULER_TASK: Wait for scheduler "eoa0" with entities [EventEntity, EventEntity]
  1: 0x00F0 [0x00] END_REQSTACK()
```

### Event 65535.17

#### Metadata

| Field        | Value    |
|--------------|----------|
| Entrypoint   | 0x00F1   |
| Data Size    | 16 bytes |
| Instructions | 2        |

```
      00 01 02 03 04 05 06 07  08 09 0A 0B 0C 0D 0E 0F
      -- -- -- -- -- -- -- --  -- -- -- -- -- -- -- --
00F0:    5B 05 80 F8 FF FF 7F  F8 FF FF 7F 65 6F 61 31   [..........eoa1
0100: 00                                                .               
```

#### Opcodes

```
  0: 0x00F1 [0x5B] LOAD_EXT_SCHEDULER: Load scheduler "eoa1" with entities [EventEntity, EventEntity], work=1418*
  1: 0x0100 [0x00] END_REQSTACK()
```

### Event 65535.18

#### Metadata

| Field        | Value    |
|--------------|----------|
| Entrypoint   | 0x0101   |
| Data Size    | 14 bytes |
| Instructions | 2        |

```
      00 01 02 03 04 05 06 07  08 09 0A 0B 0C 0D 0E 0F
      -- -- -- -- -- -- -- --  -- -- -- -- -- -- -- --
0100:    53 F8 FF FF 7F F8 FF  FF 7F 65 6F 61 31 00      S........eoa1. 
```

#### Opcodes

```
  0: 0x0101 [0x53] WAIT_SCHEDULER_TASK: Wait for scheduler "eoa1" with entities [EventEntity, EventEntity]
  1: 0x010E [0x00] END_REQSTACK()
```

### Event 65535.19

#### Metadata

| Field        | Value    |
|--------------|----------|
| Entrypoint   | 0x010F   |
| Data Size    | 29 bytes |
| Instructions | 3        |

```
      00 01 02 03 04 05 06 07  08 09 0A 0B 0C 0D 0E 0F
      -- -- -- -- -- -- -- --  -- -- -- -- -- -- -- --
0100:                                               5B                 [
0110: 06 80 F8 FF FF 7F F8 FF  FF 7F 72 6F 30 31 53 F8  ..........ro01S.
0120: FF FF 7F F8 FF FF 7F 72  6F 30 31 00              .......ro01.    
```

#### Opcodes

```
  0: 0x010F [0x5B] LOAD_EXT_SCHEDULER: Load scheduler "ro01" with entities [EventEntity, EventEntity], work=1420*
  1: 0x011E [0x53] WAIT_SCHEDULER_TASK: Wait for scheduler "ro01" with entities [EventEntity, EventEntity]
  2: 0x012B [0x00] END_REQSTACK()
```

### Event 65535.20

#### Metadata

| Field        | Value    |
|--------------|----------|
| Entrypoint   | 0x012C   |
| Data Size    | 29 bytes |
| Instructions | 3        |

```
      00 01 02 03 04 05 06 07  08 09 0A 0B 0C 0D 0E 0F
      -- -- -- -- -- -- -- --  -- -- -- -- -- -- -- --
0120:                                      5B 06 80 F8              [...
0130: FF FF 7F F8 FF FF 7F 61  6F 30 31 53 F8 FF FF 7F  .......ao01S....
0140: F8 FF FF 7F 61 6F 30 31  00                       ....ao01.       
```

#### Opcodes

```
  0: 0x012C [0x5B] LOAD_EXT_SCHEDULER: Load scheduler "ao01" with entities [EventEntity, EventEntity], work=1420*
  1: 0x013B [0x53] WAIT_SCHEDULER_TASK: Wait for scheduler "ao01" with entities [EventEntity, EventEntity]
  2: 0x0148 [0x00] END_REQSTACK()
```

### Event 65535.21

#### Metadata

| Field        | Value    |
|--------------|----------|
| Entrypoint   | 0x0149   |
| Data Size    | 29 bytes |
| Instructions | 3        |

```
      00 01 02 03 04 05 06 07  08 09 0A 0B 0C 0D 0E 0F
      -- -- -- -- -- -- -- --  -- -- -- -- -- -- -- --
0140:                             5B 00 80 F8 FF FF 7F           [......
0150: F8 FF FF 7F 62 6F 73 30  53 F8 FF FF 7F F8 FF FF  ....bos0S.......
0160: 7F 62 6F 73 30 00                                 .bos0.          
```

#### Opcodes

```
  0: 0x0149 [0x5B] LOAD_EXT_SCHEDULER: Load scheduler "bos0" with entities [EventEntity, EventEntity], work=1431*
  1: 0x0158 [0x53] WAIT_SCHEDULER_TASK: Wait for scheduler "bos0" with entities [EventEntity, EventEntity]
  2: 0x0165 [0x00] END_REQSTACK()
```

### Event 65535.22

#### Metadata

| Field        | Value    |
|--------------|----------|
| Entrypoint   | 0x0166   |
| Data Size    | 29 bytes |
| Instructions | 3        |

```
      00 01 02 03 04 05 06 07  08 09 0A 0B 0C 0D 0E 0F
      -- -- -- -- -- -- -- --  -- -- -- -- -- -- -- --
0160:                   5B 00  80 F8 FF FF 7F F8 FF FF        [.........
0170: 7F 61 64 61 30 53 F8 FF  FF 7F F8 FF FF 7F 61 64  .ada0S........ad
0180: 61 30 00                                          a0.             
```

#### Opcodes

```
  0: 0x0166 [0x5B] LOAD_EXT_SCHEDULER: Load scheduler "ada0" with entities [EventEntity, EventEntity], work=1431*
  1: 0x0175 [0x53] WAIT_SCHEDULER_TASK: Wait for scheduler "ada0" with entities [EventEntity, EventEntity]
  2: 0x0182 [0x00] END_REQSTACK()
```

### Event 65535.23

#### Metadata

| Field        | Value    |
|--------------|----------|
| Entrypoint   | 0x0183   |
| Data Size    | 16 bytes |
| Instructions | 2        |

```
      00 01 02 03 04 05 06 07  08 09 0A 0B 0C 0D 0E 0F
      -- -- -- -- -- -- -- --  -- -- -- -- -- -- -- --
0180:          5B 07 80 F8 FF  FF 7F F8 FF FF 7F 67 61     [..........ga
0190: 6B 30 00                                          k0.             
```

#### Opcodes

```
  0: 0x0183 [0x5B] LOAD_EXT_SCHEDULER: Load scheduler "gak0" with entities [EventEntity, EventEntity], work=2686*
  1: 0x0192 [0x00] END_REQSTACK()
```

### Event 65535.24

#### Metadata

| Field        | Value    |
|--------------|----------|
| Entrypoint   | 0x0193   |
| Data Size    | 14 bytes |
| Instructions | 2        |

```
      00 01 02 03 04 05 06 07  08 09 0A 0B 0C 0D 0E 0F
      -- -- -- -- -- -- -- --  -- -- -- -- -- -- -- --
0190:          53 F8 FF FF 7F  F8 FF FF 7F 67 61 6B 30     S........gak0
01A0: 00                                                .               
```

#### Opcodes

```
  0: 0x0193 [0x53] WAIT_SCHEDULER_TASK: Wait for scheduler "gak0" with entities [EventEntity, EventEntity]
  1: 0x01A0 [0x00] END_REQSTACK()
```

### Event 65535.25

#### Metadata

| Field        | Value    |
|--------------|----------|
| Entrypoint   | 0x01A1   |
| Data Size    | 16 bytes |
| Instructions | 2        |

```
      00 01 02 03 04 05 06 07  08 09 0A 0B 0C 0D 0E 0F
      -- -- -- -- -- -- -- --  -- -- -- -- -- -- -- --
01A0:    5B 07 80 F8 FF FF 7F  F8 FF FF 7F 67 61 6B 31   [..........gak1
01B0: 00                                                .               
```

#### Opcodes

```
  0: 0x01A1 [0x5B] LOAD_EXT_SCHEDULER: Load scheduler "gak1" with entities [EventEntity, EventEntity], work=2686*
  1: 0x01B0 [0x00] END_REQSTACK()
```

### Event 65535.26

#### Metadata

| Field        | Value    |
|--------------|----------|
| Entrypoint   | 0x01B1   |
| Data Size    | 14 bytes |
| Instructions | 2        |

```
      00 01 02 03 04 05 06 07  08 09 0A 0B 0C 0D 0E 0F
      -- -- -- -- -- -- -- --  -- -- -- -- -- -- -- --
01B0:    53 F8 FF FF 7F F8 FF  FF 7F 67 61 6B 31 00      S........gak1. 
```

#### Opcodes

```
  0: 0x01B1 [0x53] WAIT_SCHEDULER_TASK: Wait for scheduler "gak1" with entities [EventEntity, EventEntity]
  1: 0x01BE [0x00] END_REQSTACK()
```

### Event 65535.27

#### Metadata

| Field        | Value    |
|--------------|----------|
| Entrypoint   | 0x01BF   |
| Data Size    | 16 bytes |
| Instructions | 2        |

```
      00 01 02 03 04 05 06 07  08 09 0A 0B 0C 0D 0E 0F
      -- -- -- -- -- -- -- --  -- -- -- -- -- -- -- --
01B0:                                               5B                 [
01C0: 07 80 F8 FF FF 7F F8 FF  FF 7F 6E 61 72 30 00     ..........nar0. 
```

#### Opcodes

```
  0: 0x01BF [0x5B] LOAD_EXT_SCHEDULER: Load scheduler "nar0" with entities [EventEntity, EventEntity], work=2686*
  1: 0x01CE [0x00] END_REQSTACK()
```

### Event 65535.28

#### Metadata

| Field        | Value    |
|--------------|----------|
| Entrypoint   | 0x01CF   |
| Data Size    | 14 bytes |
| Instructions | 2        |

```
      00 01 02 03 04 05 06 07  08 09 0A 0B 0C 0D 0E 0F
      -- -- -- -- -- -- -- --  -- -- -- -- -- -- -- --
01C0:                                               53                 S
01D0: F8 FF FF 7F F8 FF FF 7F  6E 61 72 30 00           ........nar0.   
```

#### Opcodes

```
  0: 0x01CF [0x53] WAIT_SCHEDULER_TASK: Wait for scheduler "nar0" with entities [EventEntity, EventEntity]
  1: 0x01DC [0x00] END_REQSTACK()
```

### Event 65535.29

#### Metadata

| Field        | Value    |
|--------------|----------|
| Entrypoint   | 0x01DD   |
| Data Size    | 16 bytes |
| Instructions | 2        |

```
      00 01 02 03 04 05 06 07  08 09 0A 0B 0C 0D 0E 0F
      -- -- -- -- -- -- -- --  -- -- -- -- -- -- -- --
01D0:                                         5B 07 80               [..
01E0: F8 FF FF 7F F8 FF FF 7F  6E 61 72 31 00           ........nar1.   
```

#### Opcodes

```
  0: 0x01DD [0x5B] LOAD_EXT_SCHEDULER: Load scheduler "nar1" with entities [EventEntity, EventEntity], work=2686*
  1: 0x01EC [0x00] END_REQSTACK()
```

### Event 65535.30

#### Metadata

| Field        | Value    |
|--------------|----------|
| Entrypoint   | 0x01ED   |
| Data Size    | 14 bytes |
| Instructions | 2        |

```
      00 01 02 03 04 05 06 07  08 09 0A 0B 0C 0D 0E 0F
      -- -- -- -- -- -- -- --  -- -- -- -- -- -- -- --
01E0:                                         53 F8 FF               S..
01F0: FF 7F F8 FF FF 7F 6E 61  72 31 00                 ......nar1.     
```

#### Opcodes

```
  0: 0x01ED [0x53] WAIT_SCHEDULER_TASK: Wait for scheduler "nar1" with entities [EventEntity, EventEntity]
  1: 0x01FA [0x00] END_REQSTACK()
```

### Event 65535.31

#### Metadata

| Field        | Value    |
|--------------|----------|
| Entrypoint   | 0x01FB   |
| Data Size    | 16 bytes |
| Instructions | 2        |

```
      00 01 02 03 04 05 06 07  08 09 0A 0B 0C 0D 0E 0F
      -- -- -- -- -- -- -- --  -- -- -- -- -- -- -- --
01F0:                                   5B 08 80 F8 FF             [....
0200: FF 7F F8 FF FF 7F 77 61  72 30 00                 ......war0.     
```

#### Opcodes

```
  0: 0x01FB [0x5B] LOAD_EXT_SCHEDULER: Load scheduler "war0" with entities [EventEntity, EventEntity], work=1432*
  1: 0x020A [0x00] END_REQSTACK()
```

### Event 65535.32

#### Metadata

| Field        | Value    |
|--------------|----------|
| Entrypoint   | 0x020B   |
| Data Size    | 14 bytes |
| Instructions | 2        |

```
      00 01 02 03 04 05 06 07  08 09 0A 0B 0C 0D 0E 0F
      -- -- -- -- -- -- -- --  -- -- -- -- -- -- -- --
0200:                                   53 F8 FF FF 7F             S....
0210: F8 FF FF 7F 77 61 72 30  00                       ....war0.       
```

#### Opcodes

```
  0: 0x020B [0x53] WAIT_SCHEDULER_TASK: Wait for scheduler "war0" with entities [EventEntity, EventEntity]
  1: 0x0218 [0x00] END_REQSTACK()
```

### Event 65535.33

#### Metadata

| Field        | Value    |
|--------------|----------|
| Entrypoint   | 0x0219   |
| Data Size    | 16 bytes |
| Instructions | 2        |

```
      00 01 02 03 04 05 06 07  08 09 0A 0B 0C 0D 0E 0F
      -- -- -- -- -- -- -- --  -- -- -- -- -- -- -- --
0210:                             5B 08 80 F8 FF FF 7F           [......
0220: F8 FF FF 7F 77 61 72 31  00                       ....war1.       
```

#### Opcodes

```
  0: 0x0219 [0x5B] LOAD_EXT_SCHEDULER: Load scheduler "war1" with entities [EventEntity, EventEntity], work=1432*
  1: 0x0228 [0x00] END_REQSTACK()
```

### Event 65535.34

#### Metadata

| Field        | Value    |
|--------------|----------|
| Entrypoint   | 0x0229   |
| Data Size    | 14 bytes |
| Instructions | 2        |

```
      00 01 02 03 04 05 06 07  08 09 0A 0B 0C 0D 0E 0F
      -- -- -- -- -- -- -- --  -- -- -- -- -- -- -- --
0220:                             53 F8 FF FF 7F F8 FF           S......
0230: FF 7F 77 61 72 31 00                              ..war1.         
```

#### Opcodes

```
  0: 0x0229 [0x53] WAIT_SCHEDULER_TASK: Wait for scheduler "war1" with entities [EventEntity, EventEntity]
  1: 0x0236 [0x00] END_REQSTACK()
```

### Event 65535.35

#### Metadata

| Field        | Value    |
|--------------|----------|
| Entrypoint   | 0x0237   |
| Data Size    | 16 bytes |
| Instructions | 2        |

```
      00 01 02 03 04 05 06 07  08 09 0A 0B 0C 0D 0E 0F
      -- -- -- -- -- -- -- --  -- -- -- -- -- -- -- --
0230:                      5B  08 80 F8 FF FF 7F F8 FF         [........
0240: FF 7F 77 61 64 30 00                              ..wad0.         
```

#### Opcodes

```
  0: 0x0237 [0x5B] LOAD_EXT_SCHEDULER: Load scheduler "wad0" with entities [EventEntity, EventEntity], work=1432*
  1: 0x0246 [0x00] END_REQSTACK()
```

### Event 65535.36

#### Metadata

| Field        | Value    |
|--------------|----------|
| Entrypoint   | 0x0247   |
| Data Size    | 14 bytes |
| Instructions | 2        |

```
      00 01 02 03 04 05 06 07  08 09 0A 0B 0C 0D 0E 0F
      -- -- -- -- -- -- -- --  -- -- -- -- -- -- -- --
0240:                      53  F8 FF FF 7F F8 FF FF 7F         S........
0250: 77 61 64 30 00                                    wad0.           
```

#### Opcodes

```
  0: 0x0247 [0x53] WAIT_SCHEDULER_TASK: Wait for scheduler "wad0" with entities [EventEntity, EventEntity]
  1: 0x0254 [0x00] END_REQSTACK()
```

### Event 65535.37

#### Metadata

| Field        | Value    |
|--------------|----------|
| Entrypoint   | 0x0255   |
| Data Size    | 16 bytes |
| Instructions | 2        |

```
      00 01 02 03 04 05 06 07  08 09 0A 0B 0C 0D 0E 0F
      -- -- -- -- -- -- -- --  -- -- -- -- -- -- -- --
0250:                5B 08 80  F8 FF FF 7F F8 FF FF 7F       [..........
0260: 77 61 64 31 00                                    wad1.           
```

#### Opcodes

```
  0: 0x0255 [0x5B] LOAD_EXT_SCHEDULER: Load scheduler "wad1" with entities [EventEntity, EventEntity], work=1432*
  1: 0x0264 [0x00] END_REQSTACK()
```

### Event 65535.38

#### Metadata

| Field        | Value    |
|--------------|----------|
| Entrypoint   | 0x0265   |
| Data Size    | 14 bytes |
| Instructions | 2        |

```
      00 01 02 03 04 05 06 07  08 09 0A 0B 0C 0D 0E 0F
      -- -- -- -- -- -- -- --  -- -- -- -- -- -- -- --
0260:                53 F8 FF  FF 7F F8 FF FF 7F 77 61       S........wa
0270: 64 31 00                                          d1.             
```

#### Opcodes

```
  0: 0x0265 [0x53] WAIT_SCHEDULER_TASK: Wait for scheduler "wad1" with entities [EventEntity, EventEntity]
  1: 0x0272 [0x00] END_REQSTACK()
```

### Event 65535.39

#### Metadata

| Field        | Value    |
|--------------|----------|
| Entrypoint   | 0x0273   |
| Data Size    | 16 bytes |
| Instructions | 2        |

```
      00 01 02 03 04 05 06 07  08 09 0A 0B 0C 0D 0E 0F
      -- -- -- -- -- -- -- --  -- -- -- -- -- -- -- --
0270:          5B 09 80 F8 FF  FF 7F F8 FF FF 7F 6C 6B     [..........lk
0280: 6C 30 00                                          l0.             
```

#### Opcodes

```
  0: 0x0273 [0x5B] LOAD_EXT_SCHEDULER: Load scheduler "lkl0" with entities [EventEntity, EventEntity], work=1416*
  1: 0x0282 [0x00] END_REQSTACK()
```

### Event 65535.40

#### Metadata

| Field        | Value    |
|--------------|----------|
| Entrypoint   | 0x0283   |
| Data Size    | 14 bytes |
| Instructions | 2        |

```
      00 01 02 03 04 05 06 07  08 09 0A 0B 0C 0D 0E 0F
      -- -- -- -- -- -- -- --  -- -- -- -- -- -- -- --
0280:          53 F8 FF FF 7F  F8 FF FF 7F 6C 6B 6C 30     S........lkl0
0290: 00                                                .               
```

#### Opcodes

```
  0: 0x0283 [0x53] WAIT_SCHEDULER_TASK: Wait for scheduler "lkl0" with entities [EventEntity, EventEntity]
  1: 0x0290 [0x00] END_REQSTACK()
```

### Event 65535.41

#### Metadata

| Field        | Value    |
|--------------|----------|
| Entrypoint   | 0x0291   |
| Data Size    | 16 bytes |
| Instructions | 2        |

```
      00 01 02 03 04 05 06 07  08 09 0A 0B 0C 0D 0E 0F
      -- -- -- -- -- -- -- --  -- -- -- -- -- -- -- --
0290:    5B 09 80 F8 FF FF 7F  F8 FF FF 7F 6C 6B 6C 74   [..........lklt
02A0: 00                                                .               
```

#### Opcodes

```
  0: 0x0291 [0x5B] LOAD_EXT_SCHEDULER: Load scheduler "lklt" with entities [EventEntity, EventEntity], work=1416*
  1: 0x02A0 [0x00] END_REQSTACK()
```

### Event 65535.42

#### Metadata

| Field        | Value    |
|--------------|----------|
| Entrypoint   | 0x02A1   |
| Data Size    | 14 bytes |
| Instructions | 2        |

```
      00 01 02 03 04 05 06 07  08 09 0A 0B 0C 0D 0E 0F
      -- -- -- -- -- -- -- --  -- -- -- -- -- -- -- --
02A0:    53 F8 FF FF 7F F8 FF  FF 7F 6C 6B 6C 74 00      S........lklt. 
```

#### Opcodes

```
  0: 0x02A1 [0x53] WAIT_SCHEDULER_TASK: Wait for scheduler "lklt" with entities [EventEntity, EventEntity]
  1: 0x02AE [0x00] END_REQSTACK()
```

### Event 65535.43

#### Metadata

| Field        | Value    |
|--------------|----------|
| Entrypoint   | 0x02AF   |
| Data Size    | 16 bytes |
| Instructions | 2        |

```
      00 01 02 03 04 05 06 07  08 09 0A 0B 0C 0D 0E 0F
      -- -- -- -- -- -- -- --  -- -- -- -- -- -- -- --
02A0:                                               5B                 [
02B0: 0A 80 F8 FF FF 7F F8 FF  FF 7F 6C 6B 6C 31 00     ..........lkl1. 
```

#### Opcodes

```
  0: 0x02AF [0x5B] LOAD_EXT_SCHEDULER: Load scheduler "lkl1" with entities [EventEntity, EventEntity], work=1417*
  1: 0x02BE [0x00] END_REQSTACK()
```

### Event 65535.44

#### Metadata

| Field        | Value    |
|--------------|----------|
| Entrypoint   | 0x02BF   |
| Data Size    | 14 bytes |
| Instructions | 2        |

```
      00 01 02 03 04 05 06 07  08 09 0A 0B 0C 0D 0E 0F
      -- -- -- -- -- -- -- --  -- -- -- -- -- -- -- --
02B0:                                               53                 S
02C0: F8 FF FF 7F F8 FF FF 7F  6C 6B 6C 31 00           ........lkl1.   
```

#### Opcodes

```
  0: 0x02BF [0x53] WAIT_SCHEDULER_TASK: Wait for scheduler "lkl1" with entities [EventEntity, EventEntity]
  1: 0x02CC [0x00] END_REQSTACK()
```

### Event 65535.45

#### Metadata

| Field        | Value    |
|--------------|----------|
| Entrypoint   | 0x02CD   |
| Data Size    | 16 bytes |
| Instructions | 2        |

```
      00 01 02 03 04 05 06 07  08 09 0A 0B 0C 0D 0E 0F
      -- -- -- -- -- -- -- --  -- -- -- -- -- -- -- --
02C0:                                         5B 0A 80               [..
02D0: F8 FF FF 7F F8 FF FF 7F  73 70 6C 30 00           ........spl0.   
```

#### Opcodes

```
  0: 0x02CD [0x5B] LOAD_EXT_SCHEDULER: Load scheduler "spl0" with entities [EventEntity, EventEntity], work=1417*
  1: 0x02DC [0x00] END_REQSTACK()
```

### Event 65535.46

#### Metadata

| Field        | Value    |
|--------------|----------|
| Entrypoint   | 0x02DD   |
| Data Size    | 14 bytes |
| Instructions | 2        |

```
      00 01 02 03 04 05 06 07  08 09 0A 0B 0C 0D 0E 0F
      -- -- -- -- -- -- -- --  -- -- -- -- -- -- -- --
02D0:                                         53 F8 FF               S..
02E0: FF 7F F8 FF FF 7F 73 70  6C 30 00                 ......spl0.     
```

#### Opcodes

```
  0: 0x02DD [0x53] WAIT_SCHEDULER_TASK: Wait for scheduler "spl0" with entities [EventEntity, EventEntity]
  1: 0x02EA [0x00] END_REQSTACK()
```

### Event 65535.47

#### Metadata

| Field        | Value    |
|--------------|----------|
| Entrypoint   | 0x02EB   |
| Data Size    | 16 bytes |
| Instructions | 2        |

```
      00 01 02 03 04 05 06 07  08 09 0A 0B 0C 0D 0E 0F
      -- -- -- -- -- -- -- --  -- -- -- -- -- -- -- --
02E0:                                   5B 0A 80 F8 FF             [....
02F0: FF 7F F8 FF FF 7F 73 70  6C 61 00                 ......spla.     
```

#### Opcodes

```
  0: 0x02EB [0x5B] LOAD_EXT_SCHEDULER: Load scheduler "spla" with entities [EventEntity, EventEntity], work=1417*
  1: 0x02FA [0x00] END_REQSTACK()
```

### Event 65535.48

#### Metadata

| Field        | Value    |
|--------------|----------|
| Entrypoint   | 0x02FB   |
| Data Size    | 14 bytes |
| Instructions | 2        |

```
      00 01 02 03 04 05 06 07  08 09 0A 0B 0C 0D 0E 0F
      -- -- -- -- -- -- -- --  -- -- -- -- -- -- -- --
02F0:                                   53 F8 FF FF 7F             S....
0300: F8 FF FF 7F 73 70 6C 61  00                       ....spla.       
```

#### Opcodes

```
  0: 0x02FB [0x53] WAIT_SCHEDULER_TASK: Wait for scheduler "spla" with entities [EventEntity, EventEntity]
  1: 0x0308 [0x00] END_REQSTACK()
```

### Event 65535.49

#### Metadata

| Field        | Value    |
|--------------|----------|
| Entrypoint   | 0x0309   |
| Data Size    | 16 bytes |
| Instructions | 2        |

```
      00 01 02 03 04 05 06 07  08 09 0A 0B 0C 0D 0E 0F
      -- -- -- -- -- -- -- --  -- -- -- -- -- -- -- --
0300:                             5B 0B 80 F8 FF FF 7F           [......
0310: F8 FF FF 7F 72 6C 6B 30  00                       ....rlk0.       
```

#### Opcodes

```
  0: 0x0309 [0x5B] LOAD_EXT_SCHEDULER: Load scheduler "rlk0" with entities [EventEntity, EventEntity], work=2595*
  1: 0x0318 [0x00] END_REQSTACK()
```

### Event 65535.50

#### Metadata

| Field        | Value    |
|--------------|----------|
| Entrypoint   | 0x0319   |
| Data Size    | 14 bytes |
| Instructions | 2        |

```
      00 01 02 03 04 05 06 07  08 09 0A 0B 0C 0D 0E 0F
      -- -- -- -- -- -- -- --  -- -- -- -- -- -- -- --
0310:                             53 F8 FF FF 7F F8 FF           S......
0320: FF 7F 72 6C 6B 30 00                              ..rlk0.         
```

#### Opcodes

```
  0: 0x0319 [0x53] WAIT_SCHEDULER_TASK: Wait for scheduler "rlk0" with entities [EventEntity, EventEntity]
  1: 0x0326 [0x00] END_REQSTACK()
```

### Event 65535.51

#### Metadata

| Field        | Value    |
|--------------|----------|
| Entrypoint   | 0x0327   |
| Data Size    | 16 bytes |
| Instructions | 2        |

```
      00 01 02 03 04 05 06 07  08 09 0A 0B 0C 0D 0E 0F
      -- -- -- -- -- -- -- --  -- -- -- -- -- -- -- --
0320:                      5B  09 80 F8 FF FF 7F F8 FF         [........
0330: FF 7F 6C 6B 72 30 00                              ..lkr0.         
```

#### Opcodes

```
  0: 0x0327 [0x5B] LOAD_EXT_SCHEDULER: Load scheduler "lkr0" with entities [EventEntity, EventEntity], work=1416*
  1: 0x0336 [0x00] END_REQSTACK()
```

### Event 65535.52

#### Metadata

| Field        | Value    |
|--------------|----------|
| Entrypoint   | 0x0337   |
| Data Size    | 14 bytes |
| Instructions | 2        |

```
      00 01 02 03 04 05 06 07  08 09 0A 0B 0C 0D 0E 0F
      -- -- -- -- -- -- -- --  -- -- -- -- -- -- -- --
0330:                      53  F8 FF FF 7F F8 FF FF 7F         S........
0340: 6C 6B 72 30 00                                    lkr0.           
```

#### Opcodes

```
  0: 0x0337 [0x53] WAIT_SCHEDULER_TASK: Wait for scheduler "lkr0" with entities [EventEntity, EventEntity]
  1: 0x0344 [0x00] END_REQSTACK()
```

### Event 65535.53

#### Metadata

| Field        | Value    |
|--------------|----------|
| Entrypoint   | 0x0345   |
| Data Size    | 16 bytes |
| Instructions | 2        |

```
      00 01 02 03 04 05 06 07  08 09 0A 0B 0C 0D 0E 0F
      -- -- -- -- -- -- -- --  -- -- -- -- -- -- -- --
0340:                5B 0A 80  F8 FF FF 7F F8 FF FF 7F       [..........
0350: 6C 6B 72 31 00                                    lkr1.           
```

#### Opcodes

```
  0: 0x0345 [0x5B] LOAD_EXT_SCHEDULER: Load scheduler "lkr1" with entities [EventEntity, EventEntity], work=1417*
  1: 0x0354 [0x00] END_REQSTACK()
```

### Event 65535.54

#### Metadata

| Field        | Value    |
|--------------|----------|
| Entrypoint   | 0x0355   |
| Data Size    | 14 bytes |
| Instructions | 2        |

```
      00 01 02 03 04 05 06 07  08 09 0A 0B 0C 0D 0E 0F
      -- -- -- -- -- -- -- --  -- -- -- -- -- -- -- --
0350:                53 F8 FF  FF 7F F8 FF FF 7F 6C 6B       S........lk
0360: 72 31 00                                          r1.             
```

#### Opcodes

```
  0: 0x0355 [0x53] WAIT_SCHEDULER_TASK: Wait for scheduler "lkr1" with entities [EventEntity, EventEntity]
  1: 0x0362 [0x00] END_REQSTACK()
```

### Event 65535.55

#### Metadata

| Field        | Value    |
|--------------|----------|
| Entrypoint   | 0x0363   |
| Data Size    | 16 bytes |
| Instructions | 2        |

```
      00 01 02 03 04 05 06 07  08 09 0A 0B 0C 0D 0E 0F
      -- -- -- -- -- -- -- --  -- -- -- -- -- -- -- --
0360:          5B 0C 80 F8 FF  FF 7F F8 FF FF 7F 66 6B     [..........fk
0370: 69 62 00                                          ib.             
```

#### Opcodes

```
  0: 0x0363 [0x5B] LOAD_EXT_SCHEDULER: Load scheduler "fkib" with entities [EventEntity, EventEntity], work=2600*
  1: 0x0372 [0x00] END_REQSTACK()
```

### Event 65535.56

#### Metadata

| Field        | Value    |
|--------------|----------|
| Entrypoint   | 0x0373   |
| Data Size    | 14 bytes |
| Instructions | 2        |

```
      00 01 02 03 04 05 06 07  08 09 0A 0B 0C 0D 0E 0F
      -- -- -- -- -- -- -- --  -- -- -- -- -- -- -- --
0370:          53 F8 FF FF 7F  F8 FF FF 7F 66 6B 69 62     S........fkib
0380: 00                                                .               
```

#### Opcodes

```
  0: 0x0373 [0x53] WAIT_SCHEDULER_TASK: Wait for scheduler "fkib" with entities [EventEntity, EventEntity]
  1: 0x0380 [0x00] END_REQSTACK()
```

### Event 65535.57

#### Metadata

| Field        | Value    |
|--------------|----------|
| Entrypoint   | 0x0381   |
| Data Size    | 16 bytes |
| Instructions | 2        |

```
      00 01 02 03 04 05 06 07  08 09 0A 0B 0C 0D 0E 0F
      -- -- -- -- -- -- -- --  -- -- -- -- -- -- -- --
0380:    5B 0D 80 F8 FF FF 7F  F8 FF FF 7F 75 70 70 30   [..........upp0
0390: 00                                                .               
```

#### Opcodes

```
  0: 0x0381 [0x5B] LOAD_EXT_SCHEDULER: Load scheduler "upp0" with entities [EventEntity, EventEntity], work=2695*
  1: 0x0390 [0x00] END_REQSTACK()
```

### Event 65535.58

#### Metadata

| Field        | Value    |
|--------------|----------|
| Entrypoint   | 0x0391   |
| Data Size    | 14 bytes |
| Instructions | 2        |

```
      00 01 02 03 04 05 06 07  08 09 0A 0B 0C 0D 0E 0F
      -- -- -- -- -- -- -- --  -- -- -- -- -- -- -- --
0390:    53 F8 FF FF 7F F8 FF  FF 7F 75 70 70 30 00      S........upp0. 
```

#### Opcodes

```
  0: 0x0391 [0x53] WAIT_SCHEDULER_TASK: Wait for scheduler "upp0" with entities [EventEntity, EventEntity]
  1: 0x039E [0x00] END_REQSTACK()
```

### Event 65535.59

#### Metadata

| Field        | Value    |
|--------------|----------|
| Entrypoint   | 0x039F   |
| Data Size    | 16 bytes |
| Instructions | 2        |

```
      00 01 02 03 04 05 06 07  08 09 0A 0B 0C 0D 0E 0F
      -- -- -- -- -- -- -- --  -- -- -- -- -- -- -- --
0390:                                               5B                 [
03A0: 0D 80 F8 FF FF 7F F8 FF  FF 7F 75 70 70 31 00     ..........upp1. 
```

#### Opcodes

```
  0: 0x039F [0x5B] LOAD_EXT_SCHEDULER: Load scheduler "upp1" with entities [EventEntity, EventEntity], work=2695*
  1: 0x03AE [0x00] END_REQSTACK()
```

### Event 65535.60

#### Metadata

| Field        | Value    |
|--------------|----------|
| Entrypoint   | 0x03AF   |
| Data Size    | 14 bytes |
| Instructions | 2        |

```
      00 01 02 03 04 05 06 07  08 09 0A 0B 0C 0D 0E 0F
      -- -- -- -- -- -- -- --  -- -- -- -- -- -- -- --
03A0:                                               53                 S
03B0: F8 FF FF 7F F8 FF FF 7F  75 70 70 31 00           ........upp1.   
```

#### Opcodes

```
  0: 0x03AF [0x53] WAIT_SCHEDULER_TASK: Wait for scheduler "upp1" with entities [EventEntity, EventEntity]
  1: 0x03BC [0x00] END_REQSTACK()
```

### Event 65535.61

#### Metadata

| Field        | Value    |
|--------------|----------|
| Entrypoint   | 0x03BD   |
| Data Size    | 16 bytes |
| Instructions | 2        |

```
      00 01 02 03 04 05 06 07  08 09 0A 0B 0C 0D 0E 0F
      -- -- -- -- -- -- -- --  -- -- -- -- -- -- -- --
03B0:                                         5B 0E 80               [..
03C0: F8 FF FF 7F F8 FF FF 7F  74 6F 62 30 00           ........tob0.   
```

#### Opcodes

```
  0: 0x03BD [0x5B] LOAD_EXT_SCHEDULER: Load scheduler "tob0" with entities [EventEntity, EventEntity], work=3166*
  1: 0x03CC [0x00] END_REQSTACK()
```

### Event 65535.62

#### Metadata

| Field        | Value    |
|--------------|----------|
| Entrypoint   | 0x03CD   |
| Data Size    | 14 bytes |
| Instructions | 2        |

```
      00 01 02 03 04 05 06 07  08 09 0A 0B 0C 0D 0E 0F
      -- -- -- -- -- -- -- --  -- -- -- -- -- -- -- --
03C0:                                         53 F8 FF               S..
03D0: FF 7F F8 FF FF 7F 74 6F  62 30 00                 ......tob0.     
```

#### Opcodes

```
  0: 0x03CD [0x53] WAIT_SCHEDULER_TASK: Wait for scheduler "tob0" with entities [EventEntity, EventEntity]
  1: 0x03DA [0x00] END_REQSTACK()
```

### Event 65535.63

#### Metadata

| Field        | Value    |
|--------------|----------|
| Entrypoint   | 0x03DB   |
| Data Size    | 16 bytes |
| Instructions | 2        |

```
      00 01 02 03 04 05 06 07  08 09 0A 0B 0C 0D 0E 0F
      -- -- -- -- -- -- -- --  -- -- -- -- -- -- -- --
03D0:                                   5B 0F 80 F8 FF             [....
03E0: FF 7F F8 FF FF 7F 7A 61  6B 30 00                 ......zak0.     
```

#### Opcodes

```
  0: 0x03DB [0x5B] LOAD_EXT_SCHEDULER: Load scheduler "zak0" with entities [EventEntity, EventEntity], work=2689*
  1: 0x03EA [0x00] END_REQSTACK()
```

### Event 65535.64

#### Metadata

| Field        | Value    |
|--------------|----------|
| Entrypoint   | 0x03EB   |
| Data Size    | 14 bytes |
| Instructions | 2        |

```
      00 01 02 03 04 05 06 07  08 09 0A 0B 0C 0D 0E 0F
      -- -- -- -- -- -- -- --  -- -- -- -- -- -- -- --
03E0:                                   53 F8 FF FF 7F             S....
03F0: F8 FF FF 7F 7A 61 6B 30  00                       ....zak0.       
```

#### Opcodes

```
  0: 0x03EB [0x53] WAIT_SCHEDULER_TASK: Wait for scheduler "zak0" with entities [EventEntity, EventEntity]
  1: 0x03F8 [0x00] END_REQSTACK()
```

### Event 65535.65

#### Metadata

| Field        | Value    |
|--------------|----------|
| Entrypoint   | 0x03F9   |
| Data Size    | 16 bytes |
| Instructions | 2        |

```
      00 01 02 03 04 05 06 07  08 09 0A 0B 0C 0D 0E 0F
      -- -- -- -- -- -- -- --  -- -- -- -- -- -- -- --
03F0:                             5B 0F 80 F8 FF FF 7F           [......
0400: F8 FF FF 7F 7A 61 6B 31  00                       ....zak1.       
```

#### Opcodes

```
  0: 0x03F9 [0x5B] LOAD_EXT_SCHEDULER: Load scheduler "zak1" with entities [EventEntity, EventEntity], work=2689*
  1: 0x0408 [0x00] END_REQSTACK()
```

### Event 65535.66

#### Metadata

| Field        | Value    |
|--------------|----------|
| Entrypoint   | 0x0409   |
| Data Size    | 14 bytes |
| Instructions | 2        |

```
      00 01 02 03 04 05 06 07  08 09 0A 0B 0C 0D 0E 0F
      -- -- -- -- -- -- -- --  -- -- -- -- -- -- -- --
0400:                             53 F8 FF FF 7F F8 FF           S......
0410: FF 7F 7A 61 6B 31 00                              ..zak1.         
```

#### Opcodes

```
  0: 0x0409 [0x53] WAIT_SCHEDULER_TASK: Wait for scheduler "zak1" with entities [EventEntity, EventEntity]
  1: 0x0416 [0x00] END_REQSTACK()
```

### Event 65535.67

#### Metadata

| Field        | Value    |
|--------------|----------|
| Entrypoint   | 0x0417   |
| Data Size    | 16 bytes |
| Instructions | 2        |

```
      00 01 02 03 04 05 06 07  08 09 0A 0B 0C 0D 0E 0F
      -- -- -- -- -- -- -- --  -- -- -- -- -- -- -- --
0410:                      5B  09 80 F8 FF FF 7F F8 FF         [........
0420: FF 7F 6B 62 69 30 00                              ..kbi0.         
```

#### Opcodes

```
  0: 0x0417 [0x5B] LOAD_EXT_SCHEDULER: Load scheduler "kbi0" with entities [EventEntity, EventEntity], work=1416*
  1: 0x0426 [0x00] END_REQSTACK()
```

### Event 65535.68

#### Metadata

| Field        | Value    |
|--------------|----------|
| Entrypoint   | 0x0427   |
| Data Size    | 14 bytes |
| Instructions | 2        |

```
      00 01 02 03 04 05 06 07  08 09 0A 0B 0C 0D 0E 0F
      -- -- -- -- -- -- -- --  -- -- -- -- -- -- -- --
0420:                      53  F8 FF FF 7F F8 FF FF 7F         S........
0430: 6B 62 69 30 00                                    kbi0.           
```

#### Opcodes

```
  0: 0x0427 [0x53] WAIT_SCHEDULER_TASK: Wait for scheduler "kbi0" with entities [EventEntity, EventEntity]
  1: 0x0434 [0x00] END_REQSTACK()
```

### Event 65535.69

#### Metadata

| Field        | Value    |
|--------------|----------|
| Entrypoint   | 0x0435   |
| Data Size    | 16 bytes |
| Instructions | 2        |

```
      00 01 02 03 04 05 06 07  08 09 0A 0B 0C 0D 0E 0F
      -- -- -- -- -- -- -- --  -- -- -- -- -- -- -- --
0430:                5B 10 80  F8 FF FF 7F F8 FF FF 7F       [..........
0440: 61 77 61 30 00                                    awa0.           
```

#### Opcodes

```
  0: 0x0435 [0x5B] LOAD_EXT_SCHEDULER: Load scheduler "awa0" with entities [EventEntity, EventEntity], work=2594*
  1: 0x0444 [0x00] END_REQSTACK()
```

### Event 65535.70

#### Metadata

| Field        | Value    |
|--------------|----------|
| Entrypoint   | 0x0445   |
| Data Size    | 14 bytes |
| Instructions | 2        |

```
      00 01 02 03 04 05 06 07  08 09 0A 0B 0C 0D 0E 0F
      -- -- -- -- -- -- -- --  -- -- -- -- -- -- -- --
0440:                53 F8 FF  FF 7F F8 FF FF 7F 61 77       S........aw
0450: 61 30 00                                          a0.             
```

#### Opcodes

```
  0: 0x0445 [0x53] WAIT_SCHEDULER_TASK: Wait for scheduler "awa0" with entities [EventEntity, EventEntity]
  1: 0x0452 [0x00] END_REQSTACK()
```

### Event 65535.71

#### Metadata

| Field        | Value    |
|--------------|----------|
| Entrypoint   | 0x0453   |
| Data Size    | 16 bytes |
| Instructions | 2        |

```
      00 01 02 03 04 05 06 07  08 09 0A 0B 0C 0D 0E 0F
      -- -- -- -- -- -- -- --  -- -- -- -- -- -- -- --
0450:          5B 10 80 F8 FF  FF 7F F8 FF FF 7F 64 67     [..........dg
0460: 65 30 00                                          e0.             
```

#### Opcodes

```
  0: 0x0453 [0x5B] LOAD_EXT_SCHEDULER: Load scheduler "dge0" with entities [EventEntity, EventEntity], work=2594*
  1: 0x0462 [0x00] END_REQSTACK()
```

### Event 65535.72

#### Metadata

| Field        | Value    |
|--------------|----------|
| Entrypoint   | 0x0463   |
| Data Size    | 14 bytes |
| Instructions | 2        |

```
      00 01 02 03 04 05 06 07  08 09 0A 0B 0C 0D 0E 0F
      -- -- -- -- -- -- -- --  -- -- -- -- -- -- -- --
0460:          53 F8 FF FF 7F  F8 FF FF 7F 64 67 65 30     S........dge0
0470: 00                                                .               
```

#### Opcodes

```
  0: 0x0463 [0x53] WAIT_SCHEDULER_TASK: Wait for scheduler "dge0" with entities [EventEntity, EventEntity]
  1: 0x0470 [0x00] END_REQSTACK()
```

### Event 65535.73

#### Metadata

| Field        | Value    |
|--------------|----------|
| Entrypoint   | 0x0471   |
| Data Size    | 16 bytes |
| Instructions | 2        |

```
      00 01 02 03 04 05 06 07  08 09 0A 0B 0C 0D 0E 0F
      -- -- -- -- -- -- -- --  -- -- -- -- -- -- -- --
0470:    5B 10 80 F8 FF FF 7F  F8 FF FF 7F 69 6E 6F 30   [..........ino0
0480: 00                                                .               
```

#### Opcodes

```
  0: 0x0471 [0x5B] LOAD_EXT_SCHEDULER: Load scheduler "ino0" with entities [EventEntity, EventEntity], work=2594*
  1: 0x0480 [0x00] END_REQSTACK()
```

### Event 65535.74

#### Metadata

| Field        | Value    |
|--------------|----------|
| Entrypoint   | 0x0481   |
| Data Size    | 14 bytes |
| Instructions | 2        |

```
      00 01 02 03 04 05 06 07  08 09 0A 0B 0C 0D 0E 0F
      -- -- -- -- -- -- -- --  -- -- -- -- -- -- -- --
0480:    53 F8 FF FF 7F F8 FF  FF 7F 69 6E 6F 30 00      S........ino0. 
```

#### Opcodes

```
  0: 0x0481 [0x53] WAIT_SCHEDULER_TASK: Wait for scheduler "ino0" with entities [EventEntity, EventEntity]
  1: 0x048E [0x00] END_REQSTACK()
```

### Event 65535.75

#### Metadata

| Field        | Value    |
|--------------|----------|
| Entrypoint   | 0x048F   |
| Data Size    | 16 bytes |
| Instructions | 2        |

```
      00 01 02 03 04 05 06 07  08 09 0A 0B 0C 0D 0E 0F
      -- -- -- -- -- -- -- --  -- -- -- -- -- -- -- --
0480:                                               5B                 [
0490: 10 80 F8 FF FF 7F F8 FF  FF 7F 69 6E 6F 31 00     ..........ino1. 
```

#### Opcodes

```
  0: 0x048F [0x5B] LOAD_EXT_SCHEDULER: Load scheduler "ino1" with entities [EventEntity, EventEntity], work=2594*
  1: 0x049E [0x00] END_REQSTACK()
```

### Event 65535.76

#### Metadata

| Field        | Value    |
|--------------|----------|
| Entrypoint   | 0x049F   |
| Data Size    | 14 bytes |
| Instructions | 2        |

```
      00 01 02 03 04 05 06 07  08 09 0A 0B 0C 0D 0E 0F
      -- -- -- -- -- -- -- --  -- -- -- -- -- -- -- --
0490:                                               53                 S
04A0: F8 FF FF 7F F8 FF FF 7F  69 6E 6F 31 00           ........ino1.   
```

#### Opcodes

```
  0: 0x049F [0x53] WAIT_SCHEDULER_TASK: Wait for scheduler "ino1" with entities [EventEntity, EventEntity]
  1: 0x04AC [0x00] END_REQSTACK()
```

### Event 65535.77

#### Metadata

| Field        | Value    |
|--------------|----------|
| Entrypoint   | 0x04AD   |
| Data Size    | 16 bytes |
| Instructions | 2        |

```
      00 01 02 03 04 05 06 07  08 09 0A 0B 0C 0D 0E 0F
      -- -- -- -- -- -- -- --  -- -- -- -- -- -- -- --
04A0:                                         5B 10 80               [..
04B0: F8 FF FF 7F F8 FF FF 7F  69 6E 6F 32 00           ........ino2.   
```

#### Opcodes

```
  0: 0x04AD [0x5B] LOAD_EXT_SCHEDULER: Load scheduler "ino2" with entities [EventEntity, EventEntity], work=2594*
  1: 0x04BC [0x00] END_REQSTACK()
```

### Event 65535.78

#### Metadata

| Field        | Value    |
|--------------|----------|
| Entrypoint   | 0x04BD   |
| Data Size    | 14 bytes |
| Instructions | 2        |

```
      00 01 02 03 04 05 06 07  08 09 0A 0B 0C 0D 0E 0F
      -- -- -- -- -- -- -- --  -- -- -- -- -- -- -- --
04B0:                                         53 F8 FF               S..
04C0: FF 7F F8 FF FF 7F 69 6E  6F 32 00                 ......ino2.     
```

#### Opcodes

```
  0: 0x04BD [0x53] WAIT_SCHEDULER_TASK: Wait for scheduler "ino2" with entities [EventEntity, EventEntity]
  1: 0x04CA [0x00] END_REQSTACK()
```

### Event 65535.79

#### Metadata

| Field        | Value    |
|--------------|----------|
| Entrypoint   | 0x04CB   |
| Data Size    | 16 bytes |
| Instructions | 2        |

```
      00 01 02 03 04 05 06 07  08 09 0A 0B 0C 0D 0E 0F
      -- -- -- -- -- -- -- --  -- -- -- -- -- -- -- --
04C0:                                   5B 10 80 F8 FF             [....
04D0: FF 7F F8 FF FF 7F 69 6E  6F 33 00                 ......ino3.     
```

#### Opcodes

```
  0: 0x04CB [0x5B] LOAD_EXT_SCHEDULER: Load scheduler "ino3" with entities [EventEntity, EventEntity], work=2594*
  1: 0x04DA [0x00] END_REQSTACK()
```

### Event 65535.80

#### Metadata

| Field        | Value    |
|--------------|----------|
| Entrypoint   | 0x04DB   |
| Data Size    | 14 bytes |
| Instructions | 2        |

```
      00 01 02 03 04 05 06 07  08 09 0A 0B 0C 0D 0E 0F
      -- -- -- -- -- -- -- --  -- -- -- -- -- -- -- --
04D0:                                   53 F8 FF FF 7F             S....
04E0: F8 FF FF 7F 69 6E 6F 33  00                       ....ino3.       
```

#### Opcodes

```
  0: 0x04DB [0x53] WAIT_SCHEDULER_TASK: Wait for scheduler "ino3" with entities [EventEntity, EventEntity]
  1: 0x04E8 [0x00] END_REQSTACK()
```

### Event 65535.81

#### Metadata

| Field        | Value    |
|--------------|----------|
| Entrypoint   | 0x04E9   |
| Data Size    | 16 bytes |
| Instructions | 2        |

```
      00 01 02 03 04 05 06 07  08 09 0A 0B 0C 0D 0E 0F
      -- -- -- -- -- -- -- --  -- -- -- -- -- -- -- --
04E0:                             5B 10 80 F8 FF FF 7F           [......
04F0: F8 FF FF 7F 61 74 61 30  00                       ....ata0.       
```

#### Opcodes

```
  0: 0x04E9 [0x5B] LOAD_EXT_SCHEDULER: Load scheduler "ata0" with entities [EventEntity, EventEntity], work=2594*
  1: 0x04F8 [0x00] END_REQSTACK()
```

### Event 65535.82

#### Metadata

| Field        | Value    |
|--------------|----------|
| Entrypoint   | 0x04F9   |
| Data Size    | 14 bytes |
| Instructions | 2        |

```
      00 01 02 03 04 05 06 07  08 09 0A 0B 0C 0D 0E 0F
      -- -- -- -- -- -- -- --  -- -- -- -- -- -- -- --
04F0:                             53 F8 FF FF 7F F8 FF           S......
0500: FF 7F 61 74 61 30 00                              ..ata0.         
```

#### Opcodes

```
  0: 0x04F9 [0x53] WAIT_SCHEDULER_TASK: Wait for scheduler "ata0" with entities [EventEntity, EventEntity]
  1: 0x0506 [0x00] END_REQSTACK()
```

### Event 65535.83

#### Metadata

| Field        | Value    |
|--------------|----------|
| Entrypoint   | 0x0507   |
| Data Size    | 16 bytes |
| Instructions | 2        |

```
      00 01 02 03 04 05 06 07  08 09 0A 0B 0C 0D 0E 0F
      -- -- -- -- -- -- -- --  -- -- -- -- -- -- -- --
0500:                      5B  11 80 F8 FF FF 7F F8 FF         [........
0510: FF 7F 75 67 6F 30 00                              ..ugo0.         
```

#### Opcodes

```
  0: 0x0507 [0x5B] LOAD_EXT_SCHEDULER: Load scheduler "ugo0" with entities [EventEntity, EventEntity], work=3167*
  1: 0x0516 [0x00] END_REQSTACK()
```

### Event 65535.84

#### Metadata

| Field        | Value    |
|--------------|----------|
| Entrypoint   | 0x0517   |
| Data Size    | 14 bytes |
| Instructions | 2        |

```
      00 01 02 03 04 05 06 07  08 09 0A 0B 0C 0D 0E 0F
      -- -- -- -- -- -- -- --  -- -- -- -- -- -- -- --
0510:                      53  F8 FF FF 7F F8 FF FF 7F         S........
0520: 75 67 6F 30 00                                    ugo0.           
```

#### Opcodes

```
  0: 0x0517 [0x53] WAIT_SCHEDULER_TASK: Wait for scheduler "ugo0" with entities [EventEntity, EventEntity]
  1: 0x0524 [0x00] END_REQSTACK()
```

### Event 65535.85

#### Metadata

| Field        | Value    |
|--------------|----------|
| Entrypoint   | 0x0525   |
| Data Size    | 16 bytes |
| Instructions | 2        |

```
      00 01 02 03 04 05 06 07  08 09 0A 0B 0C 0D 0E 0F
      -- -- -- -- -- -- -- --  -- -- -- -- -- -- -- --
0520:                5B 12 80  F8 FF FF 7F F8 FF FF 7F       [..........
0530: 61 6B 30 33 00                                    ak03.           
```

#### Opcodes

```
  0: 0x0525 [0x5B] LOAD_EXT_SCHEDULER: Load scheduler "ak03" with entities [EventEntity, EventEntity], work=2592*
  1: 0x0534 [0x00] END_REQSTACK()
```

### Event 65535.86

#### Metadata

| Field        | Value    |
|--------------|----------|
| Entrypoint   | 0x0535   |
| Data Size    | 14 bytes |
| Instructions | 2        |

```
      00 01 02 03 04 05 06 07  08 09 0A 0B 0C 0D 0E 0F
      -- -- -- -- -- -- -- --  -- -- -- -- -- -- -- --
0530:                53 F8 FF  FF 7F F8 FF FF 7F 61 6B       S........ak
0540: 30 33 00                                          03.             
```

#### Opcodes

```
  0: 0x0535 [0x53] WAIT_SCHEDULER_TASK: Wait for scheduler "ak03" with entities [EventEntity, EventEntity]
  1: 0x0542 [0x00] END_REQSTACK()
```

### Event 65535.87

#### Metadata

| Field        | Value    |
|--------------|----------|
| Entrypoint   | 0x0543   |
| Data Size    | 16 bytes |
| Instructions | 2        |

```
      00 01 02 03 04 05 06 07  08 09 0A 0B 0C 0D 0E 0F
      -- -- -- -- -- -- -- --  -- -- -- -- -- -- -- --
0540:          5B 12 80 F8 FF  FF 7F F8 FF FF 7F 61 6B     [..........ak
0550: 30 34 00                                          04.             
```

#### Opcodes

```
  0: 0x0543 [0x5B] LOAD_EXT_SCHEDULER: Load scheduler "ak04" with entities [EventEntity, EventEntity], work=2592*
  1: 0x0552 [0x00] END_REQSTACK()
```

### Event 65535.88

#### Metadata

| Field        | Value    |
|--------------|----------|
| Entrypoint   | 0x0553   |
| Data Size    | 14 bytes |
| Instructions | 2        |

```
      00 01 02 03 04 05 06 07  08 09 0A 0B 0C 0D 0E 0F
      -- -- -- -- -- -- -- --  -- -- -- -- -- -- -- --
0550:          53 F8 FF FF 7F  F8 FF FF 7F 61 6B 30 34     S........ak04
0560: 00                                                .               
```

#### Opcodes

```
  0: 0x0553 [0x53] WAIT_SCHEDULER_TASK: Wait for scheduler "ak04" with entities [EventEntity, EventEntity]
  1: 0x0560 [0x00] END_REQSTACK()
```

### Event 65535.89

#### Metadata

| Field        | Value    |
|--------------|----------|
| Entrypoint   | 0x0561   |
| Data Size    | 16 bytes |
| Instructions | 2        |

```
      00 01 02 03 04 05 06 07  08 09 0A 0B 0C 0D 0E 0F
      -- -- -- -- -- -- -- --  -- -- -- -- -- -- -- --
0560:    5B 10 80 F8 FF FF 7F  F8 FF FF 7F 68 68 61 30   [..........hha0
0570: 00                                                .               
```

#### Opcodes

```
  0: 0x0561 [0x5B] LOAD_EXT_SCHEDULER: Load scheduler "hha0" with entities [EventEntity, EventEntity], work=2594*
  1: 0x0570 [0x00] END_REQSTACK()
```

### Event 65535.90

#### Metadata

| Field        | Value    |
|--------------|----------|
| Entrypoint   | 0x0571   |
| Data Size    | 14 bytes |
| Instructions | 2        |

```
      00 01 02 03 04 05 06 07  08 09 0A 0B 0C 0D 0E 0F
      -- -- -- -- -- -- -- --  -- -- -- -- -- -- -- --
0570:    53 F8 FF FF 7F F8 FF  FF 7F 68 68 61 30 00      S........hha0. 
```

#### Opcodes

```
  0: 0x0571 [0x53] WAIT_SCHEDULER_TASK: Wait for scheduler "hha0" with entities [EventEntity, EventEntity]
  1: 0x057E [0x00] END_REQSTACK()
```

### Event 65535.91

#### Metadata

| Field        | Value    |
|--------------|----------|
| Entrypoint   | 0x057F   |
| Data Size    | 16 bytes |
| Instructions | 2        |

```
      00 01 02 03 04 05 06 07  08 09 0A 0B 0C 0D 0E 0F
      -- -- -- -- -- -- -- --  -- -- -- -- -- -- -- --
0570:                                               5B                 [
0580: 0B 80 F8 FF FF 7F F8 FF  FF 7F 67 75 66 30 00     ..........guf0. 
```

#### Opcodes

```
  0: 0x057F [0x5B] LOAD_EXT_SCHEDULER: Load scheduler "guf0" with entities [EventEntity, EventEntity], work=2595*
  1: 0x058E [0x00] END_REQSTACK()
```

### Event 65535.92

#### Metadata

| Field        | Value    |
|--------------|----------|
| Entrypoint   | 0x058F   |
| Data Size    | 14 bytes |
| Instructions | 2        |

```
      00 01 02 03 04 05 06 07  08 09 0A 0B 0C 0D 0E 0F
      -- -- -- -- -- -- -- --  -- -- -- -- -- -- -- --
0580:                                               53                 S
0590: F8 FF FF 7F F8 FF FF 7F  67 75 66 30 00           ........guf0.   
```

#### Opcodes

```
  0: 0x058F [0x53] WAIT_SCHEDULER_TASK: Wait for scheduler "guf0" with entities [EventEntity, EventEntity]
  1: 0x059C [0x00] END_REQSTACK()
```

### Event 65535.93

#### Metadata

| Field        | Value    |
|--------------|----------|
| Entrypoint   | 0x059D   |
| Data Size    | 16 bytes |
| Instructions | 2        |

```
      00 01 02 03 04 05 06 07  08 09 0A 0B 0C 0D 0E 0F
      -- -- -- -- -- -- -- --  -- -- -- -- -- -- -- --
0590:                                         5B 13 80               [..
05A0: F8 FF FF 7F F8 FF FF 7F  74 6C 6B 30 00           ........tlk0.   
```

#### Opcodes

```
  0: 0x059D [0x5B] LOAD_EXT_SCHEDULER: Load scheduler "tlk0" with entities [EventEntity, EventEntity], work=2593*
  1: 0x05AC [0x00] END_REQSTACK()
```

### Event 65535.94

#### Metadata

| Field        | Value    |
|--------------|----------|
| Entrypoint   | 0x05AD   |
| Data Size    | 14 bytes |
| Instructions | 2        |

```
      00 01 02 03 04 05 06 07  08 09 0A 0B 0C 0D 0E 0F
      -- -- -- -- -- -- -- --  -- -- -- -- -- -- -- --
05A0:                                         53 F8 FF               S..
05B0: FF 7F F8 FF FF 7F 74 6C  6B 30 00                 ......tlk0.     
```

#### Opcodes

```
  0: 0x05AD [0x53] WAIT_SCHEDULER_TASK: Wait for scheduler "tlk0" with entities [EventEntity, EventEntity]
  1: 0x05BA [0x00] END_REQSTACK()
```

### Event 65535.95

#### Metadata

| Field        | Value    |
|--------------|----------|
| Entrypoint   | 0x05BB   |
| Data Size    | 16 bytes |
| Instructions | 2        |

```
      00 01 02 03 04 05 06 07  08 09 0A 0B 0C 0D 0E 0F
      -- -- -- -- -- -- -- --  -- -- -- -- -- -- -- --
05B0:                                   5B 13 80 F8 FF             [....
05C0: FF 7F F8 FF FF 7F 74 6C  6B 31 00                 ......tlk1.     
```

#### Opcodes

```
  0: 0x05BB [0x5B] LOAD_EXT_SCHEDULER: Load scheduler "tlk1" with entities [EventEntity, EventEntity], work=2593*
  1: 0x05CA [0x00] END_REQSTACK()
```

### Event 65535.96

#### Metadata

| Field        | Value    |
|--------------|----------|
| Entrypoint   | 0x05CB   |
| Data Size    | 14 bytes |
| Instructions | 2        |

```
      00 01 02 03 04 05 06 07  08 09 0A 0B 0C 0D 0E 0F
      -- -- -- -- -- -- -- --  -- -- -- -- -- -- -- --
05C0:                                   53 F8 FF FF 7F             S....
05D0: F8 FF FF 7F 74 6C 6B 31  00                       ....tlk1.       
```

#### Opcodes

```
  0: 0x05CB [0x53] WAIT_SCHEDULER_TASK: Wait for scheduler "tlk1" with entities [EventEntity, EventEntity]
  1: 0x05D8 [0x00] END_REQSTACK()
```

### Event 65535.97

#### Metadata

| Field        | Value    |
|--------------|----------|
| Entrypoint   | 0x05D9   |
| Data Size    | 16 bytes |
| Instructions | 2        |

```
      00 01 02 03 04 05 06 07  08 09 0A 0B 0C 0D 0E 0F
      -- -- -- -- -- -- -- --  -- -- -- -- -- -- -- --
05D0:                             5B 13 80 F8 FF FF 7F           [......
05E0: F8 FF FF 7F 74 68 6B 30  00                       ....thk0.       
```

#### Opcodes

```
  0: 0x05D9 [0x5B] LOAD_EXT_SCHEDULER: Load scheduler "thk0" with entities [EventEntity, EventEntity], work=2593*
  1: 0x05E8 [0x00] END_REQSTACK()
```

### Event 65535.98

#### Metadata

| Field        | Value    |
|--------------|----------|
| Entrypoint   | 0x05E9   |
| Data Size    | 14 bytes |
| Instructions | 2        |

```
      00 01 02 03 04 05 06 07  08 09 0A 0B 0C 0D 0E 0F
      -- -- -- -- -- -- -- --  -- -- -- -- -- -- -- --
05E0:                             53 F8 FF FF 7F F8 FF           S......
05F0: FF 7F 74 68 6B 30 00                              ..thk0.         
```

#### Opcodes

```
  0: 0x05E9 [0x53] WAIT_SCHEDULER_TASK: Wait for scheduler "thk0" with entities [EventEntity, EventEntity]
  1: 0x05F6 [0x00] END_REQSTACK()
```

### Event 65535.99

#### Metadata

| Field        | Value    |
|--------------|----------|
| Entrypoint   | 0x05F7   |
| Data Size    | 16 bytes |
| Instructions | 2        |

```
      00 01 02 03 04 05 06 07  08 09 0A 0B 0C 0D 0E 0F
      -- -- -- -- -- -- -- --  -- -- -- -- -- -- -- --
05F0:                      5B  13 80 F8 FF FF 7F F8 FF         [........
0600: FF 7F 74 68 6B 31 00                              ..thk1.         
```

#### Opcodes

```
  0: 0x05F7 [0x5B] LOAD_EXT_SCHEDULER: Load scheduler "thk1" with entities [EventEntity, EventEntity], work=2593*
  1: 0x0606 [0x00] END_REQSTACK()
```

### Event 65535.100

#### Metadata

| Field        | Value    |
|--------------|----------|
| Entrypoint   | 0x0607   |
| Data Size    | 14 bytes |
| Instructions | 2        |

```
      00 01 02 03 04 05 06 07  08 09 0A 0B 0C 0D 0E 0F
      -- -- -- -- -- -- -- --  -- -- -- -- -- -- -- --
0600:                      53  F8 FF FF 7F F8 FF FF 7F         S........
0610: 74 68 6B 31 00                                    thk1.           
```

#### Opcodes

```
  0: 0x0607 [0x53] WAIT_SCHEDULER_TASK: Wait for scheduler "thk1" with entities [EventEntity, EventEntity]
  1: 0x0614 [0x00] END_REQSTACK()
```

### Event 65535.101

#### Metadata

| Field        | Value    |
|--------------|----------|
| Entrypoint   | 0x0615   |
| Data Size    | 16 bytes |
| Instructions | 2        |

```
      00 01 02 03 04 05 06 07  08 09 0A 0B 0C 0D 0E 0F
      -- -- -- -- -- -- -- --  -- -- -- -- -- -- -- --
0610:                5B 13 80  F8 FF FF 7F F8 FF FF 7F       [..........
0620: 79 65 73 30 00                                    yes0.           
```

#### Opcodes

```
  0: 0x0615 [0x5B] LOAD_EXT_SCHEDULER: Load scheduler "yes0" with entities [EventEntity, EventEntity], work=2593*
  1: 0x0624 [0x00] END_REQSTACK()
```

### Event 65535.102

#### Metadata

| Field        | Value    |
|--------------|----------|
| Entrypoint   | 0x0625   |
| Data Size    | 14 bytes |
| Instructions | 2        |

```
      00 01 02 03 04 05 06 07  08 09 0A 0B 0C 0D 0E 0F
      -- -- -- -- -- -- -- --  -- -- -- -- -- -- -- --
0620:                53 F8 FF  FF 7F F8 FF FF 7F 79 65       S........ye
0630: 73 30 00                                          s0.             
```

#### Opcodes

```
  0: 0x0625 [0x53] WAIT_SCHEDULER_TASK: Wait for scheduler "yes0" with entities [EventEntity, EventEntity]
  1: 0x0632 [0x00] END_REQSTACK()
```

### Event 65535.103

#### Metadata

| Field        | Value    |
|--------------|----------|
| Entrypoint   | 0x0633   |
| Data Size    | 16 bytes |
| Instructions | 2        |

```
      00 01 02 03 04 05 06 07  08 09 0A 0B 0C 0D 0E 0F
      -- -- -- -- -- -- -- --  -- -- -- -- -- -- -- --
0630:          5B 0B 80 F8 FF  FF 7F F8 FF FF 7F 61 6E     [..........an
0640: 67 30 00                                          g0.             
```

#### Opcodes

```
  0: 0x0633 [0x5B] LOAD_EXT_SCHEDULER: Load scheduler "ang0" with entities [EventEntity, EventEntity], work=2595*
  1: 0x0642 [0x00] END_REQSTACK()
```

### Event 65535.104

#### Metadata

| Field        | Value    |
|--------------|----------|
| Entrypoint   | 0x0643   |
| Data Size    | 14 bytes |
| Instructions | 2        |

```
      00 01 02 03 04 05 06 07  08 09 0A 0B 0C 0D 0E 0F
      -- -- -- -- -- -- -- --  -- -- -- -- -- -- -- --
0640:          53 F8 FF FF 7F  F8 FF FF 7F 61 6E 67 30     S........ang0
0650: 00                                                .               
```

#### Opcodes

```
  0: 0x0643 [0x53] WAIT_SCHEDULER_TASK: Wait for scheduler "ang0" with entities [EventEntity, EventEntity]
  1: 0x0650 [0x00] END_REQSTACK()
```

### Event 65535.105

#### Metadata

| Field        | Value    |
|--------------|----------|
| Entrypoint   | 0x0651   |
| Data Size    | 16 bytes |
| Instructions | 2        |

```
      00 01 02 03 04 05 06 07  08 09 0A 0B 0C 0D 0E 0F
      -- -- -- -- -- -- -- --  -- -- -- -- -- -- -- --
0650:    5B 0B 80 F8 FF FF 7F  F8 FF FF 7F 61 6E 67 31   [..........ang1
0660: 00                                                .               
```

#### Opcodes

```
  0: 0x0651 [0x5B] LOAD_EXT_SCHEDULER: Load scheduler "ang1" with entities [EventEntity, EventEntity], work=2595*
  1: 0x0660 [0x00] END_REQSTACK()
```

### Event 65535.106

#### Metadata

| Field        | Value    |
|--------------|----------|
| Entrypoint   | 0x0661   |
| Data Size    | 14 bytes |
| Instructions | 2        |

```
      00 01 02 03 04 05 06 07  08 09 0A 0B 0C 0D 0E 0F
      -- -- -- -- -- -- -- --  -- -- -- -- -- -- -- --
0660:    53 F8 FF FF 7F F8 FF  FF 7F 61 6E 67 31 00      S........ang1. 
```

#### Opcodes

```
  0: 0x0661 [0x53] WAIT_SCHEDULER_TASK: Wait for scheduler "ang1" with entities [EventEntity, EventEntity]
  1: 0x066E [0x00] END_REQSTACK()
```

### Event 65535.107

#### Metadata

| Field        | Value    |
|--------------|----------|
| Entrypoint   | 0x066F   |
| Data Size    | 16 bytes |
| Instructions | 2        |

```
      00 01 02 03 04 05 06 07  08 09 0A 0B 0C 0D 0E 0F
      -- -- -- -- -- -- -- --  -- -- -- -- -- -- -- --
0660:                                               5B                 [
0670: 14 80 F8 FF FF 7F F8 FF  FF 7F 70 6E 74 30 00     ..........pnt0. 
```

#### Opcodes

```
  0: 0x066F [0x5B] LOAD_EXT_SCHEDULER: Load scheduler "pnt0" with entities [EventEntity, EventEntity], work=2596*
  1: 0x067E [0x00] END_REQSTACK()
```

### Event 65535.108

#### Metadata

| Field        | Value    |
|--------------|----------|
| Entrypoint   | 0x067F   |
| Data Size    | 14 bytes |
| Instructions | 2        |

```
      00 01 02 03 04 05 06 07  08 09 0A 0B 0C 0D 0E 0F
      -- -- -- -- -- -- -- --  -- -- -- -- -- -- -- --
0670:                                               53                 S
0680: F8 FF FF 7F F8 FF FF 7F  70 6E 74 30 00           ........pnt0.   
```

#### Opcodes

```
  0: 0x067F [0x53] WAIT_SCHEDULER_TASK: Wait for scheduler "pnt0" with entities [EventEntity, EventEntity]
  1: 0x068C [0x00] END_REQSTACK()
```

### Event 65535.109

#### Metadata

| Field        | Value    |
|--------------|----------|
| Entrypoint   | 0x068D   |
| Data Size    | 16 bytes |
| Instructions | 2        |

```
      00 01 02 03 04 05 06 07  08 09 0A 0B 0C 0D 0E 0F
      -- -- -- -- -- -- -- --  -- -- -- -- -- -- -- --
0680:                                         5B 15 80               [..
0690: F8 FF FF 7F F8 FF FF 7F  6B 79 6F 30 00           ........kyo0.   
```

#### Opcodes

```
  0: 0x068D [0x5B] LOAD_EXT_SCHEDULER: Load scheduler "kyo0" with entities [EventEntity, EventEntity], work=2597*
  1: 0x069C [0x00] END_REQSTACK()
```

### Event 65535.110

#### Metadata

| Field        | Value    |
|--------------|----------|
| Entrypoint   | 0x069D   |
| Data Size    | 14 bytes |
| Instructions | 2        |

```
      00 01 02 03 04 05 06 07  08 09 0A 0B 0C 0D 0E 0F
      -- -- -- -- -- -- -- --  -- -- -- -- -- -- -- --
0690:                                         53 F8 FF               S..
06A0: FF 7F F8 FF FF 7F 6B 79  6F 30 00                 ......kyo0.     
```

#### Opcodes

```
  0: 0x069D [0x53] WAIT_SCHEDULER_TASK: Wait for scheduler "kyo0" with entities [EventEntity, EventEntity]
  1: 0x06AA [0x00] END_REQSTACK()
```

### Event 65535.111

#### Metadata

| Field        | Value    |
|--------------|----------|
| Entrypoint   | 0x06AB   |
| Data Size    | 16 bytes |
| Instructions | 2        |

```
      00 01 02 03 04 05 06 07  08 09 0A 0B 0C 0D 0E 0F
      -- -- -- -- -- -- -- --  -- -- -- -- -- -- -- --
06A0:                                   5B 15 80 F8 FF             [....
06B0: FF 7F F8 FF FF 7F 6B 79  6F 31 00                 ......kyo1.     
```

#### Opcodes

```
  0: 0x06AB [0x5B] LOAD_EXT_SCHEDULER: Load scheduler "kyo1" with entities [EventEntity, EventEntity], work=2597*
  1: 0x06BA [0x00] END_REQSTACK()
```

### Event 65535.112

#### Metadata

| Field        | Value    |
|--------------|----------|
| Entrypoint   | 0x06BB   |
| Data Size    | 14 bytes |
| Instructions | 2        |

```
      00 01 02 03 04 05 06 07  08 09 0A 0B 0C 0D 0E 0F
      -- -- -- -- -- -- -- --  -- -- -- -- -- -- -- --
06B0:                                   53 F8 FF FF 7F             S....
06C0: F8 FF FF 7F 6B 79 6F 31  00                       ....kyo1.       
```

#### Opcodes

```
  0: 0x06BB [0x53] WAIT_SCHEDULER_TASK: Wait for scheduler "kyo1" with entities [EventEntity, EventEntity]
  1: 0x06C8 [0x00] END_REQSTACK()
```

### Event 65535.113

#### Metadata

| Field        | Value    |
|--------------|----------|
| Entrypoint   | 0x06C9   |
| Data Size    | 16 bytes |
| Instructions | 2        |

```
      00 01 02 03 04 05 06 07  08 09 0A 0B 0C 0D 0E 0F
      -- -- -- -- -- -- -- --  -- -- -- -- -- -- -- --
06C0:                             5B 15 80 F8 FF FF 7F           [......
06D0: F8 FF FF 7F 6B 79 6F 32  00                       ....kyo2.       
```

#### Opcodes

```
  0: 0x06C9 [0x5B] LOAD_EXT_SCHEDULER: Load scheduler "kyo2" with entities [EventEntity, EventEntity], work=2597*
  1: 0x06D8 [0x00] END_REQSTACK()
```

### Event 65535.114

#### Metadata

| Field        | Value    |
|--------------|----------|
| Entrypoint   | 0x06D9   |
| Data Size    | 14 bytes |
| Instructions | 2        |

```
      00 01 02 03 04 05 06 07  08 09 0A 0B 0C 0D 0E 0F
      -- -- -- -- -- -- -- --  -- -- -- -- -- -- -- --
06D0:                             53 F8 FF FF 7F F8 FF           S......
06E0: FF 7F 6B 79 6F 32 00                              ..kyo2.         
```

#### Opcodes

```
  0: 0x06D9 [0x53] WAIT_SCHEDULER_TASK: Wait for scheduler "kyo2" with entities [EventEntity, EventEntity]
  1: 0x06E6 [0x00] END_REQSTACK()
```

### Event 65535.115

#### Metadata

| Field        | Value    |
|--------------|----------|
| Entrypoint   | 0x06E7   |
| Data Size    | 16 bytes |
| Instructions | 2        |

```
      00 01 02 03 04 05 06 07  08 09 0A 0B 0C 0D 0E 0F
      -- -- -- -- -- -- -- --  -- -- -- -- -- -- -- --
06E0:                      5B  15 80 F8 FF FF 7F F8 FF         [........
06F0: FF 7F 6B 79 6F 33 00                              ..kyo3.         
```

#### Opcodes

```
  0: 0x06E7 [0x5B] LOAD_EXT_SCHEDULER: Load scheduler "kyo3" with entities [EventEntity, EventEntity], work=2597*
  1: 0x06F6 [0x00] END_REQSTACK()
```

### Event 65535.116

#### Metadata

| Field        | Value    |
|--------------|----------|
| Entrypoint   | 0x06F7   |
| Data Size    | 14 bytes |
| Instructions | 2        |

```
      00 01 02 03 04 05 06 07  08 09 0A 0B 0C 0D 0E 0F
      -- -- -- -- -- -- -- --  -- -- -- -- -- -- -- --
06F0:                      53  F8 FF FF 7F F8 FF FF 7F         S........
0700: 6B 79 6F 33 00                                    kyo3.           
```

#### Opcodes

```
  0: 0x06F7 [0x53] WAIT_SCHEDULER_TASK: Wait for scheduler "kyo3" with entities [EventEntity, EventEntity]
  1: 0x0704 [0x00] END_REQSTACK()
```

### Event 65535.117

#### Metadata

| Field        | Value    |
|--------------|----------|
| Entrypoint   | 0x0705   |
| Data Size    | 16 bytes |
| Instructions | 2        |

```
      00 01 02 03 04 05 06 07  08 09 0A 0B 0C 0D 0E 0F
      -- -- -- -- -- -- -- --  -- -- -- -- -- -- -- --
0700:                5B 16 80  F8 FF FF 7F F8 FF FF 7F       [..........
0710: 65 64 30 30 00                                    ed00.           
```

#### Opcodes

```
  0: 0x0705 [0x5B] LOAD_EXT_SCHEDULER: Load scheduler "ed00" with entities [EventEntity, EventEntity], work=2612*
  1: 0x0714 [0x00] END_REQSTACK()
```

### Event 65535.118

#### Metadata

| Field        | Value    |
|--------------|----------|
| Entrypoint   | 0x0715   |
| Data Size    | 14 bytes |
| Instructions | 2        |

```
      00 01 02 03 04 05 06 07  08 09 0A 0B 0C 0D 0E 0F
      -- -- -- -- -- -- -- --  -- -- -- -- -- -- -- --
0710:                53 F8 FF  FF 7F F8 FF FF 7F 65 64       S........ed
0720: 30 30 00                                          00.             
```

#### Opcodes

```
  0: 0x0715 [0x53] WAIT_SCHEDULER_TASK: Wait for scheduler "ed00" with entities [EventEntity, EventEntity]
  1: 0x0722 [0x00] END_REQSTACK()
```

### Event 65535.119

#### Metadata

| Field        | Value    |
|--------------|----------|
| Entrypoint   | 0x0723   |
| Data Size    | 16 bytes |
| Instructions | 2        |

```
      00 01 02 03 04 05 06 07  08 09 0A 0B 0C 0D 0E 0F
      -- -- -- -- -- -- -- --  -- -- -- -- -- -- -- --
0720:          5B 16 80 F8 FF  FF 7F F8 FF FF 7F 65 64     [..........ed
0730: 61 6C 00                                          al.             
```

#### Opcodes

```
  0: 0x0723 [0x5B] LOAD_EXT_SCHEDULER: Load scheduler "edal" with entities [EventEntity, EventEntity], work=2612*
  1: 0x0732 [0x00] END_REQSTACK()
```

### Event 65535.120

#### Metadata

| Field        | Value    |
|--------------|----------|
| Entrypoint   | 0x0733   |
| Data Size    | 14 bytes |
| Instructions | 2        |

```
      00 01 02 03 04 05 06 07  08 09 0A 0B 0C 0D 0E 0F
      -- -- -- -- -- -- -- --  -- -- -- -- -- -- -- --
0730:          53 F8 FF FF 7F  F8 FF FF 7F 65 64 61 6C     S........edal
0740: 00                                                .               
```

#### Opcodes

```
  0: 0x0733 [0x53] WAIT_SCHEDULER_TASK: Wait for scheduler "edal" with entities [EventEntity, EventEntity]
  1: 0x0740 [0x00] END_REQSTACK()
```

### Event 65535.121

#### Metadata

| Field        | Value    |
|--------------|----------|
| Entrypoint   | 0x0741   |
| Data Size    | 16 bytes |
| Instructions | 2        |

```
      00 01 02 03 04 05 06 07  08 09 0A 0B 0C 0D 0E 0F
      -- -- -- -- -- -- -- --  -- -- -- -- -- -- -- --
0740:    5B 16 80 F8 FF FF 7F  F8 FF FF 7F 65 64 61 30   [..........eda0
0750: 00                                                .               
```

#### Opcodes

```
  0: 0x0741 [0x5B] LOAD_EXT_SCHEDULER: Load scheduler "eda0" with entities [EventEntity, EventEntity], work=2612*
  1: 0x0750 [0x00] END_REQSTACK()
```

### Event 65535.122

#### Metadata

| Field        | Value    |
|--------------|----------|
| Entrypoint   | 0x0751   |
| Data Size    | 14 bytes |
| Instructions | 2        |

```
      00 01 02 03 04 05 06 07  08 09 0A 0B 0C 0D 0E 0F
      -- -- -- -- -- -- -- --  -- -- -- -- -- -- -- --
0750:    53 F8 FF FF 7F F8 FF  FF 7F 65 64 61 30 00      S........eda0. 
```

#### Opcodes

```
  0: 0x0751 [0x53] WAIT_SCHEDULER_TASK: Wait for scheduler "eda0" with entities [EventEntity, EventEntity]
  1: 0x075E [0x00] END_REQSTACK()
```

### Event 65535.123

#### Metadata

| Field        | Value    |
|--------------|----------|
| Entrypoint   | 0x075F   |
| Data Size    | 16 bytes |
| Instructions | 2        |

```
      00 01 02 03 04 05 06 07  08 09 0A 0B 0C 0D 0E 0F
      -- -- -- -- -- -- -- --  -- -- -- -- -- -- -- --
0750:                                               5B                 [
0760: 16 80 F8 FF FF 7F F8 FF  FF 7F 65 64 61 31 00     ..........eda1. 
```

#### Opcodes

```
  0: 0x075F [0x5B] LOAD_EXT_SCHEDULER: Load scheduler "eda1" with entities [EventEntity, EventEntity], work=2612*
  1: 0x076E [0x00] END_REQSTACK()
```

### Event 65535.124

#### Metadata

| Field        | Value    |
|--------------|----------|
| Entrypoint   | 0x076F   |
| Data Size    | 14 bytes |
| Instructions | 2        |

```
      00 01 02 03 04 05 06 07  08 09 0A 0B 0C 0D 0E 0F
      -- -- -- -- -- -- -- --  -- -- -- -- -- -- -- --
0760:                                               53                 S
0770: F8 FF FF 7F F8 FF FF 7F  65 64 61 31 00           ........eda1.   
```

#### Opcodes

```
  0: 0x076F [0x53] WAIT_SCHEDULER_TASK: Wait for scheduler "eda1" with entities [EventEntity, EventEntity]
  1: 0x077C [0x00] END_REQSTACK()
```

### Event 65535.125

#### Metadata

| Field        | Value    |
|--------------|----------|
| Entrypoint   | 0x077D   |
| Data Size    | 16 bytes |
| Instructions | 2        |

```
      00 01 02 03 04 05 06 07  08 09 0A 0B 0C 0D 0E 0F
      -- -- -- -- -- -- -- --  -- -- -- -- -- -- -- --
0770:                                         5B 06 80               [..
0780: F8 FF FF 7F F8 FF FF 7F  72 6F 30 30 00           ........ro00.   
```

#### Opcodes

```
  0: 0x077D [0x5B] LOAD_EXT_SCHEDULER: Load scheduler "ro00" with entities [EventEntity, EventEntity], work=1420*
  1: 0x078C [0x00] END_REQSTACK()
```

### Event 65535.126

#### Metadata

| Field        | Value    |
|--------------|----------|
| Entrypoint   | 0x078D   |
| Data Size    | 14 bytes |
| Instructions | 2        |

```
      00 01 02 03 04 05 06 07  08 09 0A 0B 0C 0D 0E 0F
      -- -- -- -- -- -- -- --  -- -- -- -- -- -- -- --
0780:                                         53 F8 FF               S..
0790: FF 7F F8 FF FF 7F 72 6F  30 30 00                 ......ro00.     
```

#### Opcodes

```
  0: 0x078D [0x53] WAIT_SCHEDULER_TASK: Wait for scheduler "ro00" with entities [EventEntity, EventEntity]
  1: 0x079A [0x00] END_REQSTACK()
```

### Event 65535.127

#### Metadata

| Field        | Value    |
|--------------|----------|
| Entrypoint   | 0x079B   |
| Data Size    | 16 bytes |
| Instructions | 2        |

```
      00 01 02 03 04 05 06 07  08 09 0A 0B 0C 0D 0E 0F
      -- -- -- -- -- -- -- --  -- -- -- -- -- -- -- --
0790:                                   5B 10 80 F8 FF             [....
07A0: FF 7F F8 FF FF 7F 6F 65  30 30 00                 ......oe00.     
```

#### Opcodes

```
  0: 0x079B [0x5B] LOAD_EXT_SCHEDULER: Load scheduler "oe00" with entities [EventEntity, EventEntity], work=2594*
  1: 0x07AA [0x00] END_REQSTACK()
```

### Event 65535.128

#### Metadata

| Field        | Value    |
|--------------|----------|
| Entrypoint   | 0x07AB   |
| Data Size    | 14 bytes |
| Instructions | 2        |

```
      00 01 02 03 04 05 06 07  08 09 0A 0B 0C 0D 0E 0F
      -- -- -- -- -- -- -- --  -- -- -- -- -- -- -- --
07A0:                                   53 F8 FF FF 7F             S....
07B0: F8 FF FF 7F 6F 65 30 30  00                       ....oe00.       
```

#### Opcodes

```
  0: 0x07AB [0x53] WAIT_SCHEDULER_TASK: Wait for scheduler "oe00" with entities [EventEntity, EventEntity]
  1: 0x07B8 [0x00] END_REQSTACK()
```

### Event 65535.129

#### Metadata

| Field        | Value    |
|--------------|----------|
| Entrypoint   | 0x07B9   |
| Data Size    | 16 bytes |
| Instructions | 2        |

```
      00 01 02 03 04 05 06 07  08 09 0A 0B 0C 0D 0E 0F
      -- -- -- -- -- -- -- --  -- -- -- -- -- -- -- --
07B0:                             5B 17 80 F8 FF FF 7F           [......
07C0: F8 FF FF 7F 68 79 61 30  00                       ....hya0.       
```

#### Opcodes

```
  0: 0x07B9 [0x5B] LOAD_EXT_SCHEDULER: Load scheduler "hya0" with entities [EventEntity, EventEntity], work=2598*
  1: 0x07C8 [0x00] END_REQSTACK()
```

### Event 65535.130

#### Metadata

| Field        | Value    |
|--------------|----------|
| Entrypoint   | 0x07C9   |
| Data Size    | 14 bytes |
| Instructions | 2        |

```
      00 01 02 03 04 05 06 07  08 09 0A 0B 0C 0D 0E 0F
      -- -- -- -- -- -- -- --  -- -- -- -- -- -- -- --
07C0:                             53 F8 FF FF 7F F8 FF           S......
07D0: FF 7F 68 79 61 30 00                              ..hya0.         
```

#### Opcodes

```
  0: 0x07C9 [0x53] WAIT_SCHEDULER_TASK: Wait for scheduler "hya0" with entities [EventEntity, EventEntity]
  1: 0x07D6 [0x00] END_REQSTACK()
```

### Event 65535.131

#### Metadata

| Field        | Value    |
|--------------|----------|
| Entrypoint   | 0x07D7   |
| Data Size    | 16 bytes |
| Instructions | 2        |

```
      00 01 02 03 04 05 06 07  08 09 0A 0B 0C 0D 0E 0F
      -- -- -- -- -- -- -- --  -- -- -- -- -- -- -- --
07D0:                      5B  17 80 F8 FF FF 7F F8 FF         [........
07E0: FF 7F 68 79 61 31 00                              ..hya1.         
```

#### Opcodes

```
  0: 0x07D7 [0x5B] LOAD_EXT_SCHEDULER: Load scheduler "hya1" with entities [EventEntity, EventEntity], work=2598*
  1: 0x07E6 [0x00] END_REQSTACK()
```

### Event 65535.132

#### Metadata

| Field        | Value    |
|--------------|----------|
| Entrypoint   | 0x07E7   |
| Data Size    | 14 bytes |
| Instructions | 2        |

```
      00 01 02 03 04 05 06 07  08 09 0A 0B 0C 0D 0E 0F
      -- -- -- -- -- -- -- --  -- -- -- -- -- -- -- --
07E0:                      53  F8 FF FF 7F F8 FF FF 7F         S........
07F0: 68 79 61 31 00                                    hya1.           
```

#### Opcodes

```
  0: 0x07E7 [0x53] WAIT_SCHEDULER_TASK: Wait for scheduler "hya1" with entities [EventEntity, EventEntity]
  1: 0x07F4 [0x00] END_REQSTACK()
```

### Event 65535.133

#### Metadata

| Field        | Value    |
|--------------|----------|
| Entrypoint   | 0x07F5   |
| Data Size    | 16 bytes |
| Instructions | 2        |

```
      00 01 02 03 04 05 06 07  08 09 0A 0B 0C 0D 0E 0F
      -- -- -- -- -- -- -- --  -- -- -- -- -- -- -- --
07F0:                5B 00 80  F8 FF FF 7F F8 FF FF 7F       [..........
0800: 75 72 6F 30 00                                    uro0.           
```

#### Opcodes

```
  0: 0x07F5 [0x5B] LOAD_EXT_SCHEDULER: Load scheduler "uro0" with entities [EventEntity, EventEntity], work=1431*
  1: 0x0804 [0x00] END_REQSTACK()
```

### Event 65535.134

#### Metadata

| Field        | Value    |
|--------------|----------|
| Entrypoint   | 0x0805   |
| Data Size    | 14 bytes |
| Instructions | 2        |

```
      00 01 02 03 04 05 06 07  08 09 0A 0B 0C 0D 0E 0F
      -- -- -- -- -- -- -- --  -- -- -- -- -- -- -- --
0800:                53 F8 FF  FF 7F F8 FF FF 7F 75 72       S........ur
0810: 6F 30 00                                          o0.             
```

#### Opcodes

```
  0: 0x0805 [0x53] WAIT_SCHEDULER_TASK: Wait for scheduler "uro0" with entities [EventEntity, EventEntity]
  1: 0x0812 [0x00] END_REQSTACK()
```

### Event 65535.135

#### Metadata

| Field        | Value    |
|--------------|----------|
| Entrypoint   | 0x0813   |
| Data Size    | 16 bytes |
| Instructions | 2        |

```
      00 01 02 03 04 05 06 07  08 09 0A 0B 0C 0D 0E 0F
      -- -- -- -- -- -- -- --  -- -- -- -- -- -- -- --
0810:          5B 14 80 F8 FF  FF 7F F8 FF FF 7F 66 72     [..........fr
0820: 69 30 00                                          i0.             
```

#### Opcodes

```
  0: 0x0813 [0x5B] LOAD_EXT_SCHEDULER: Load scheduler "fri0" with entities [EventEntity, EventEntity], work=2596*
  1: 0x0822 [0x00] END_REQSTACK()
```

### Event 65535.136

#### Metadata

| Field        | Value    |
|--------------|----------|
| Entrypoint   | 0x0823   |
| Data Size    | 14 bytes |
| Instructions | 2        |

```
      00 01 02 03 04 05 06 07  08 09 0A 0B 0C 0D 0E 0F
      -- -- -- -- -- -- -- --  -- -- -- -- -- -- -- --
0820:          53 F8 FF FF 7F  F8 FF FF 7F 66 72 69 30     S........fri0
0830: 00                                                .               
```

#### Opcodes

```
  0: 0x0823 [0x53] WAIT_SCHEDULER_TASK: Wait for scheduler "fri0" with entities [EventEntity, EventEntity]
  1: 0x0830 [0x00] END_REQSTACK()
```

### Event 65535.137

#### Metadata

| Field        | Value    |
|--------------|----------|
| Entrypoint   | 0x0831   |
| Data Size    | 16 bytes |
| Instructions | 2        |

```
      00 01 02 03 04 05 06 07  08 09 0A 0B 0C 0D 0E 0F
      -- -- -- -- -- -- -- --  -- -- -- -- -- -- -- --
0830:    5B 14 80 F8 FF FF 7F  F8 FF FF 7F 66 72 69 31   [..........fri1
0840: 00                                                .               
```

#### Opcodes

```
  0: 0x0831 [0x5B] LOAD_EXT_SCHEDULER: Load scheduler "fri1" with entities [EventEntity, EventEntity], work=2596*
  1: 0x0840 [0x00] END_REQSTACK()
```

### Event 65535.138

#### Metadata

| Field        | Value    |
|--------------|----------|
| Entrypoint   | 0x0841   |
| Data Size    | 14 bytes |
| Instructions | 2        |

```
      00 01 02 03 04 05 06 07  08 09 0A 0B 0C 0D 0E 0F
      -- -- -- -- -- -- -- --  -- -- -- -- -- -- -- --
0840:    53 F8 FF FF 7F F8 FF  FF 7F 66 72 69 31 00      S........fri1. 
```

#### Opcodes

```
  0: 0x0841 [0x53] WAIT_SCHEDULER_TASK: Wait for scheduler "fri1" with entities [EventEntity, EventEntity]
  1: 0x084E [0x00] END_REQSTACK()
```

### Event 65535.139

#### Metadata

| Field        | Value    |
|--------------|----------|
| Entrypoint   | 0x084F   |
| Data Size    | 16 bytes |
| Instructions | 2        |

```
      00 01 02 03 04 05 06 07  08 09 0A 0B 0C 0D 0E 0F
      -- -- -- -- -- -- -- --  -- -- -- -- -- -- -- --
0840:                                               5B                 [
0850: 14 80 F8 FF FF 7F F8 FF  FF 7F 66 72 69 32 00     ..........fri2. 
```

#### Opcodes

```
  0: 0x084F [0x5B] LOAD_EXT_SCHEDULER: Load scheduler "fri2" with entities [EventEntity, EventEntity], work=2596*
  1: 0x085E [0x00] END_REQSTACK()
```

### Event 65535.140

#### Metadata

| Field        | Value    |
|--------------|----------|
| Entrypoint   | 0x085F   |
| Data Size    | 14 bytes |
| Instructions | 2        |

```
      00 01 02 03 04 05 06 07  08 09 0A 0B 0C 0D 0E 0F
      -- -- -- -- -- -- -- --  -- -- -- -- -- -- -- --
0850:                                               53                 S
0860: F8 FF FF 7F F8 FF FF 7F  66 72 69 32 00           ........fri2.   
```

#### Opcodes

```
  0: 0x085F [0x53] WAIT_SCHEDULER_TASK: Wait for scheduler "fri2" with entities [EventEntity, EventEntity]
  1: 0x086C [0x00] END_REQSTACK()
```

### Event 65535.141

#### Metadata

| Field        | Value    |
|--------------|----------|
| Entrypoint   | 0x086D   |
| Data Size    | 16 bytes |
| Instructions | 2        |

```
      00 01 02 03 04 05 06 07  08 09 0A 0B 0C 0D 0E 0F
      -- -- -- -- -- -- -- --  -- -- -- -- -- -- -- --
0860:                                         5B 09 80               [..
0870: F8 FF FF 7F F8 FF FF 7F  65 73 63 30 00           ........esc0.   
```

#### Opcodes

```
