# 17453343 - Moogle

## Common Data

| Field            | Value                 |
|------------------|-----------------------|
| Zone             | Throne Room (ID: 165) |
| Block Size       | 548 bytes             |
| Total Events     | 22                    |
| References Count | 29                    |

## List of Events

| Event ID                   | Entrypoint   |   Size |   Instructions |
|----------------------------|--------------|--------|----------------|
| [65535](#event-65535)      | 0x0000       |      1 |              1 |
| [65535.1](#event-655351)   | 0x0001       |     12 |              3 |
| [65535.2](#event-655352)   | 0x000D       |     12 |              3 |
| [65535.3](#event-655353)   | 0x0019       |     19 |              5 |
| [4](#event-4)              | 0x002C       |      1 |              1 |
| [65535.4](#event-655354)   | 0x002D       |     12 |              4 |
| [65535.5](#event-655355)   | 0x0039       |     33 |              7 |
| [65535.6](#event-655356)   | 0x005A       |     19 |              3 |
| [65535.7](#event-655357)   | 0x006D       |     16 |              2 |
| [65535.8](#event-655358)   | 0x007D       |     19 |              3 |
| [65535.9](#event-655359)   | 0x0090       |     16 |              2 |
| [65535.10](#event-6553510) | 0x00A0       |     16 |              2 |
| [65535.11](#event-6553511) | 0x00B0       |     16 |              2 |
| [65535.12](#event-6553512) | 0x00C0       |     19 |              3 |
| [65535.13](#event-6553513) | 0x00D3       |     16 |              2 |
| [65535.14](#event-6553514) | 0x00E3       |     16 |              2 |
| [65535.15](#event-6553515) | 0x00F3       |     19 |              3 |
| [5](#event-5)              | 0x0106       |      1 |              1 |
| [65535.16](#event-6553516) | 0x0107       |     14 |              4 |
| [65535.17](#event-6553517) | 0x0115       |     15 |              5 |
| [65535.18](#event-6553518) | 0x0124       |     14 |              4 |
| [65535.19](#event-6553519) | 0x0132       |     19 |              3 |

## DAT References (imed_data)

|   Index | Hex Value   |   Dec Value |
|---------|-------------|-------------|
|       0 | 0x0000      |           0 |
|       1 | 0x0080      |         128 |
|       2 | 0x0939      |        2361 |
|       3 | 0xFFF90E6F  |  4294512239 |
|       4 | 0xFFFC5163  |  4294725987 |
|       5 | 0xFFFD72C5  |  4294800069 |
|       6 | 0xFFF902B7  |  4294509239 |
|       7 | 0x001E      |          30 |
|       8 | 0x0A52      |        2642 |
|       9 | 0x00C8      |         200 |
|      10 | 0x0A57      |        2647 |
|      11 | 0x0168      |         360 |
|      12 | 0x0A4C      |        2636 |
|      13 | 0x0A53      |        2643 |
|      14 | 0x0AC2      |        2754 |
|      15 | 0x0078      |         120 |
|      16 | 0x000A      |          10 |
|      17 | 0xFFF902F0  |  4294509296 |
|      18 | 0xFFFC50A4  |  4294725796 |
|      19 | 0xFFFD72E0  |  4294800096 |
|      20 | 0x000C      |          12 |
|      21 | 0xFFFEBDCE  |  4294884814 |
|      22 | 0xFFFFFCE0  |  4294966496 |
|      23 | 0xFFFFE98B  |  4294961547 |
|      24 | 0x12F56     |       77654 |
|      25 | 0xFFFFFE0C  |  4294966796 |
|      26 | 0xFFFFF060  |  4294963296 |
|      27 | 0x0AC3      |        2755 |
|      28 | 0x00A0      |         160 |

## Events

### Event 65535

#### Metadata

| Field        | Value   |
|--------------|---------|
| Entrypoint   | 0x0000  |
| Data Size    | 1 bytes |
| Instructions | 1       |

```
      00 01 02 03 04 05 06 07  08 09 0A 0B 0C 0D 0E 0F
      -- -- -- -- -- -- -- --  -- -- -- -- -- -- -- --
0000: 00                                                .               
```

#### Opcodes

```
  0: 0x0000 [0x00] END_REQSTACK()
```

### Event 65535.1

#### Metadata

| Field        | Value    |
|--------------|----------|
| Entrypoint   | 0x0001   |
| Data Size    | 12 bytes |
| Instructions | 3        |

```
      00 01 02 03 04 05 06 07  08 09 0A 0B 0C 0D 0E 0F
      -- -- -- -- -- -- -- --  -- -- -- -- -- -- -- --
0000:    A4 00 6C F8 FF FF 7F  00 80 00 80 00            ..l.........   
```

#### Opcodes

```
  0: 0x0001 [0xA4] EventEntity->Flags3.unknown_3_2 = 0
  1: 0x0003 [0x6C] FADE_ENTITY_COLOR(entity_id=EventEntity, end_alpha=0*, fade_time=0*)
  2: 0x000C [0x00] END_REQSTACK()
```

### Event 65535.2

#### Metadata

| Field        | Value    |
|--------------|----------|
| Entrypoint   | 0x000D   |
| Data Size    | 12 bytes |
| Instructions | 3        |

```
      00 01 02 03 04 05 06 07  08 09 0A 0B 0C 0D 0E 0F
      -- -- -- -- -- -- -- --  -- -- -- -- -- -- -- --
0000:                                         A4 01 6C               ..l
0010: F8 FF FF 7F 01 80 00 80  00                       .........       
```

#### Opcodes

```
  0: 0x000D [0xA4] EventEntity->Flags3.unknown_3_2 = 1
  1: 0x000F [0x6C] FADE_ENTITY_COLOR(entity_id=EventEntity, end_alpha=128*, fade_time=0*)
  2: 0x0018 [0x00] END_REQSTACK()
```

### Event 65535.3

#### Metadata

| Field        | Value    |
|--------------|----------|
| Entrypoint   | 0x0019   |
| Data Size    | 19 bytes |
| Instructions | 5        |

```
      00 01 02 03 04 05 06 07  08 09 0A 0B 0C 0D 0E 0F
      -- -- -- -- -- -- -- --  -- -- -- -- -- -- -- --
0010:                             22 00 B6 00 02 80 92           "......
0020: 01 F8 FF FF 7F 94 01 F8  FF FF 7F 00              ............    
```

#### Opcodes

```
  0: 0x0019 [0x22] ENTITY_HIDE_FLAG(enabled=0x00)
  1: 0x001B [0xB6] ENTITY_APPEARANCE_HANDLER(case=Hair style, value=2361*)
  2: 0x001F [0x92] EventEntity->Render.Flags3 ^= 0x01
  3: 0x0025 [0x94] EventEntity->Render.Flags3 ^= 0x01
  4: 0x002B [0x00] END_REQSTACK()
```

### Event 4

#### Metadata

| Field        | Value   |
|--------------|---------|
| Entrypoint   | 0x002C  |
| Data Size    | 1 bytes |
| Instructions | 1       |

```
      00 01 02 03 04 05 06 07  08 09 0A 0B 0C 0D 0E 0F
      -- -- -- -- -- -- -- --  -- -- -- -- -- -- -- --
0020:                                      00                       .   
```

#### Opcodes

```
  0: 0x002C [0x00] END_REQSTACK()
```

### Event 65535.4

#### Metadata

| Field        | Value    |
|--------------|----------|
| Entrypoint   | 0x002D   |
| Data Size    | 12 bytes |
| Instructions | 4        |

```
      00 01 02 03 04 05 06 07  08 09 0A 0B 0C 0D 0E 0F
      -- -- -- -- -- -- -- --  -- -- -- -- -- -- -- --
0020:                                         1F 00 03               ...
0030: 80 04 80 05 80 1F 01 6F  00                       .......o.       
```

#### Opcodes

```
  0: 0x002D [0x1F] MOVE_ENTITY: EventEntity moves to X=-455.057*, Z=-241.309*, Y=-167.227*
  1: 0x0035 [0x1F] MOVE_ENTITY: Update entity position (mode=1)
  2: 0x0037 [0x6F] WAIT_FRAME_DELAY: Yield until WaitTime reaches zero
  3: 0x0038 [0x00] END_REQSTACK()
```

### Event 65535.5

#### Metadata

| Field        | Value    |
|--------------|----------|
| Entrypoint   | 0x0039   |
| Data Size    | 33 bytes |
| Instructions | 7        |

```
      00 01 02 03 04 05 06 07  08 09 0A 0B 0C 0D 0E 0F
      -- -- -- -- -- -- -- --  -- -- -- -- -- -- -- --
0030:                             1F 00 06 80 04 80 05           .......
0040: 80 1F 01 6F 1C 07 80 5B  08 80 F8 FF FF 7F F8 FF  ...o...[........
0050: FF 7F 6B 79 6F 30 1C 09  80 00                    ..kyo0....      
```

#### Opcodes

```
  0: 0x0039 [0x1F] MOVE_ENTITY: EventEntity moves to X=-458.057*, Z=-241.309*, Y=-167.227*
  1: 0x0041 [0x1F] MOVE_ENTITY: Update entity position (mode=1)
  2: 0x0043 [0x6F] WAIT_FRAME_DELAY: Yield until WaitTime reaches zero
  3: 0x0044 [0x1C] WAIT(30* ticks)
  4: 0x0047 [0x5B] LOAD_EXT_SCHEDULER: Load scheduler "kyo0" with entities [EventEntity, EventEntity], work=2642*
  5: 0x0056 [0x1C] WAIT(200* ticks)
  6: 0x0059 [0x00] END_REQSTACK()
```

### Event 65535.6

#### Metadata

| Field        | Value    |
|--------------|----------|
| Entrypoint   | 0x005A   |
| Data Size    | 19 bytes |
| Instructions | 3        |

```
      00 01 02 03 04 05 06 07  08 09 0A 0B 0C 0D 0E 0F
      -- -- -- -- -- -- -- --  -- -- -- -- -- -- -- --
0050:                                5B 08 80 F8 FF FF            [.....
0060: 7F F8 FF FF 7F 6B 79 6F  30 1C 09 80 00           .....kyo0....   
```

#### Opcodes

```
  0: 0x005A [0x5B] LOAD_EXT_SCHEDULER: Load scheduler "kyo0" with entities [EventEntity, EventEntity], work=2642*
  1: 0x0069 [0x1C] WAIT(200* ticks)
  2: 0x006C [0x00] END_REQSTACK()
```

### Event 65535.7

#### Metadata

| Field        | Value    |
|--------------|----------|
| Entrypoint   | 0x006D   |
| Data Size    | 16 bytes |
| Instructions | 2        |

```
      00 01 02 03 04 05 06 07  08 09 0A 0B 0C 0D 0E 0F
      -- -- -- -- -- -- -- --  -- -- -- -- -- -- -- --
0060:                                         5B 0A 80               [..
0070: F8 FF FF 7F F8 FF FF 7F  6D 64 77 30 00           ........mdw0.   
```

#### Opcodes

```
  0: 0x006D [0x5B] LOAD_EXT_SCHEDULER: Load scheduler "mdw0" with entities [EventEntity, EventEntity], work=2647*
  1: 0x007C [0x00] END_REQSTACK()
```

### Event 65535.8

#### Metadata

| Field        | Value    |
|--------------|----------|
| Entrypoint   | 0x007D   |
| Data Size    | 19 bytes |
| Instructions | 3        |

```
      00 01 02 03 04 05 06 07  08 09 0A 0B 0C 0D 0E 0F
      -- -- -- -- -- -- -- --  -- -- -- -- -- -- -- --
0070:                                         5B 0A 80               [..
0080: F8 FF FF 7F F8 FF FF 7F  6D 64 77 31 1C 0B 80 00  ........mdw1....
```

#### Opcodes

```
  0: 0x007D [0x5B] LOAD_EXT_SCHEDULER: Load scheduler "mdw1" with entities [EventEntity, EventEntity], work=2647*
  1: 0x008C [0x1C] WAIT(360* ticks)
  2: 0x008F [0x00] END_REQSTACK()
```

### Event 65535.9

#### Metadata

| Field        | Value    |
|--------------|----------|
| Entrypoint   | 0x0090   |
| Data Size    | 16 bytes |
| Instructions | 2        |

```
      00 01 02 03 04 05 06 07  08 09 0A 0B 0C 0D 0E 0F
      -- -- -- -- -- -- -- --  -- -- -- -- -- -- -- --
0090: 5B 0C 80 F8 FF FF 7F F8  FF FF 7F 74 6C 6B 30 00  [..........tlk0.
```

#### Opcodes

```
  0: 0x0090 [0x5B] LOAD_EXT_SCHEDULER: Load scheduler "tlk0" with entities [EventEntity, EventEntity], work=2636*
  1: 0x009F [0x00] END_REQSTACK()
```

### Event 65535.10

#### Metadata

| Field        | Value    |
|--------------|----------|
| Entrypoint   | 0x00A0   |
| Data Size    | 16 bytes |
| Instructions | 2        |

```
      00 01 02 03 04 05 06 07  08 09 0A 0B 0C 0D 0E 0F
      -- -- -- -- -- -- -- --  -- -- -- -- -- -- -- --
00A0: 5B 0C 80 F8 FF FF 7F F8  FF FF 7F 68 61 70 30 00  [..........hap0.
```

#### Opcodes

```
  0: 0x00A0 [0x5B] LOAD_EXT_SCHEDULER: Load scheduler "hap0" with entities [EventEntity, EventEntity], work=2636*
  1: 0x00AF [0x00] END_REQSTACK()
```

### Event 65535.11

#### Metadata

| Field        | Value    |
|--------------|----------|
| Entrypoint   | 0x00B0   |
| Data Size    | 16 bytes |
| Instructions | 2        |

```
      00 01 02 03 04 05 06 07  08 09 0A 0B 0C 0D 0E 0F
      -- -- -- -- -- -- -- --  -- -- -- -- -- -- -- --
00B0: 5B 0C 80 F8 FF FF 7F F8  FF FF 7F 6B 72 75 30 00  [..........kru0.
```

#### Opcodes

```
  0: 0x00B0 [0x5B] LOAD_EXT_SCHEDULER: Load scheduler "kru0" with entities [EventEntity, EventEntity], work=2636*
  1: 0x00BF [0x00] END_REQSTACK()
```

### Event 65535.12

#### Metadata

| Field        | Value    |
|--------------|----------|
| Entrypoint   | 0x00C0   |
| Data Size    | 19 bytes |
| Instructions | 3        |

```
      00 01 02 03 04 05 06 07  08 09 0A 0B 0C 0D 0E 0F
      -- -- -- -- -- -- -- --  -- -- -- -- -- -- -- --
00C0: 5B 0C 80 F8 FF FF 7F F8  FF FF 7F 73 74 64 30 1C  [..........std0.
00D0: 07 80 00                                          ...             
```

#### Opcodes

```
  0: 0x00C0 [0x5B] LOAD_EXT_SCHEDULER: Load scheduler "std0" with entities [EventEntity, EventEntity], work=2636*
  1: 0x00CF [0x1C] WAIT(30* ticks)
  2: 0x00D2 [0x00] END_REQSTACK()
```

### Event 65535.13

#### Metadata

| Field        | Value    |
|--------------|----------|
| Entrypoint   | 0x00D3   |
| Data Size    | 16 bytes |
| Instructions | 2        |

```
      00 01 02 03 04 05 06 07  08 09 0A 0B 0C 0D 0E 0F
      -- -- -- -- -- -- -- --  -- -- -- -- -- -- -- --
00D0:          5B 0D 80 F8 FF  FF 7F F8 FF FF 7F 67 61     [..........ga
00E0: 6B 30 00                                          k0.             
```

#### Opcodes

```
  0: 0x00D3 [0x5B] LOAD_EXT_SCHEDULER: Load scheduler "gak0" with entities [EventEntity, EventEntity], work=2643*
  1: 0x00E2 [0x00] END_REQSTACK()
```

### Event 65535.14

#### Metadata

| Field        | Value    |
|--------------|----------|
| Entrypoint   | 0x00E3   |
| Data Size    | 16 bytes |
| Instructions | 2        |

```
      00 01 02 03 04 05 06 07  08 09 0A 0B 0C 0D 0E 0F
      -- -- -- -- -- -- -- --  -- -- -- -- -- -- -- --
00E0:          5B 0D 80 F8 FF  FF 7F F8 FF FF 7F 67 61     [..........ga
00F0: 6B 31 00                                          k1.             
```

#### Opcodes

```
  0: 0x00E3 [0x5B] LOAD_EXT_SCHEDULER: Load scheduler "gak1" with entities [EventEntity, EventEntity], work=2643*
  1: 0x00F2 [0x00] END_REQSTACK()
```

### Event 65535.15

#### Metadata

| Field        | Value    |
|--------------|----------|
| Entrypoint   | 0x00F3   |
| Data Size    | 19 bytes |
| Instructions | 3        |

```
      00 01 02 03 04 05 06 07  08 09 0A 0B 0C 0D 0E 0F
      -- -- -- -- -- -- -- --  -- -- -- -- -- -- -- --
00F0:          5B 0E 80 F8 FF  FF 7F F8 FF FF 7F 62 69     [..........bi
0100: 6B 30 1C 0F 80 00                                 k0....          
```

#### Opcodes

```
  0: 0x00F3 [0x5B] LOAD_EXT_SCHEDULER: Load scheduler "bik0" with entities [EventEntity, EventEntity], work=2754*
  1: 0x0102 [0x1C] WAIT(120* ticks)
  2: 0x0105 [0x00] END_REQSTACK()
```

### Event 5

#### Metadata

| Field        | Value   |
|--------------|---------|
| Entrypoint   | 0x0106  |
| Data Size    | 1 bytes |
| Instructions | 1       |

```
      00 01 02 03 04 05 06 07  08 09 0A 0B 0C 0D 0E 0F
      -- -- -- -- -- -- -- --  -- -- -- -- -- -- -- --
0100:                   00                                    .         
```

#### Opcodes

```
  0: 0x0106 [0x00] END_REQSTACK()
```

### Event 65535.16

#### Metadata

| Field        | Value    |
|--------------|----------|
| Entrypoint   | 0x0107   |
| Data Size    | 14 bytes |
| Instructions | 4        |

```
      00 01 02 03 04 05 06 07  08 09 0A 0B 0C 0D 0E 0F
      -- -- -- -- -- -- -- --  -- -- -- -- -- -- -- --
0100:                      32  10 80 1F 00 11 80 12 80         2........
0110: 13 80 1F 01 00                                    .....           
```

#### Opcodes

```
  0: 0x0107 [0x32] ExtData[1]->MainSpeed = 10* * 0.1
  1: 0x010A [0x1F] MOVE_ENTITY: EventEntity moves to X=-458.000*, Z=-241.500*, Y=-167.200*
  2: 0x0112 [0x1F] MOVE_ENTITY: Update entity position (mode=1)
  3: 0x0114 [0x00] END_REQSTACK()
```

### Event 65535.17

#### Metadata

| Field        | Value    |
|--------------|----------|
| Entrypoint   | 0x0115   |
| Data Size    | 15 bytes |
| Instructions | 5        |

```
      00 01 02 03 04 05 06 07  08 09 0A 0B 0C 0D 0E 0F
      -- -- -- -- -- -- -- --  -- -- -- -- -- -- -- --
0110:                32 14 80  1F 00 15 80 16 80 17 80       2..........
0120: 1F 01 6F 00                                       ..o.            
```

#### Opcodes

```
  0: 0x0115 [0x32] ExtData[1]->MainSpeed = 12* * 0.1
  1: 0x0118 [0x1F] MOVE_ENTITY: EventEntity moves to X=-82.482*, Z=-0.800*, Y=-5.749*
  2: 0x0120 [0x1F] MOVE_ENTITY: Update entity position (mode=1)
  3: 0x0122 [0x6F] WAIT_FRAME_DELAY: Yield until WaitTime reaches zero
  4: 0x0123 [0x00] END_REQSTACK()
```

### Event 65535.18

#### Metadata

| Field        | Value    |
|--------------|----------|
| Entrypoint   | 0x0124   |
| Data Size    | 14 bytes |
| Instructions | 4        |

```
      00 01 02 03 04 05 06 07  08 09 0A 0B 0C 0D 0E 0F
      -- -- -- -- -- -- -- --  -- -- -- -- -- -- -- --
0120:             32 10 80 5A  00 18 80 19 80 1A 80 5A      2..Z.......Z
0130: 01 00                                             ..              
```

#### Opcodes

```
  0: 0x0124 [0x32] ExtData[1]->MainSpeed = 10* * 0.1
  1: 0x0127 [0x5A] UPDATE_EVENT_POSITION: Set EventEntity MovePosition to X=77.654*, Z=-0.500*, Y=-4.000*
  2: 0x012F [0x5A] UPDATE_EVENT_POSITION: Move EventEntity incrementally towards MovePosition
  3: 0x0131 [0x00] END_REQSTACK()
```

### Event 65535.19

#### Metadata

| Field        | Value    |
|--------------|----------|
| Entrypoint   | 0x0132   |
| Data Size    | 19 bytes |
| Instructions | 3        |

```
      00 01 02 03 04 05 06 07  08 09 0A 0B 0C 0D 0E 0F
      -- -- -- -- -- -- -- --  -- -- -- -- -- -- -- --
0130:       5B 1B 80 F8 FF FF  7F F8 FF FF 7F 79 72 6F    [..........yro
0140: 30 1C 1C 80 00                                    0....           
```

#### Opcodes

```
  0: 0x0132 [0x5B] LOAD_EXT_SCHEDULER: Load scheduler "yro0" with entities [EventEntity, EventEntity], work=2755*
  1: 0x0141 [0x1C] WAIT(160* ticks)
  2: 0x0144 [0x00] END_REQSTACK()
```
