# 17453344 - Toto Kupeliaure

## Common Data

| Field            | Value                 |
|------------------|-----------------------|
| Zone             | Throne Room (ID: 165) |
| Block Size       | 828 bytes             |
| Total Events     | 27                    |
| References Count | 34                    |

## List of Events

| Event ID                   | Entrypoint   |   Size |   Instructions |
|----------------------------|--------------|--------|----------------|
| [65535](#event-65535)      | 0x0000       |      1 |              1 |
| [4](#event-4)              | 0x0001       |      1 |              1 |
| [65535.1](#event-655351)   | 0x0002       |     19 |              5 |
| [65535.2](#event-655352)   | 0x0015       |     12 |              3 |
| [65535.3](#event-655353)   | 0x0021       |     12 |              3 |
| [65535.4](#event-655354)   | 0x002D       |     18 |              2 |
| [65535.5](#event-655355)   | 0x003F       |     18 |              2 |
| [65535.6](#event-655356)   | 0x0051       |     16 |              2 |
| [65535.7](#event-655357)   | 0x0061       |     16 |              2 |
| [65535.8](#event-655358)   | 0x0071       |     16 |              2 |
| [65535.9](#event-655359)   | 0x0081       |     19 |              3 |
| [65535.10](#event-6553510) | 0x0094       |     16 |              2 |
| [65535.11](#event-6553511) | 0x00A4       |     19 |              3 |
| [65535.12](#event-6553512) | 0x00B7       |     19 |              3 |
| [65535.13](#event-6553513) | 0x00CA       |     16 |              2 |
| [65535.14](#event-6553514) | 0x00DA       |     19 |              3 |
| [65535.15](#event-6553515) | 0x00ED       |     87 |             15 |
| [5](#event-5)              | 0x0144       |      1 |              1 |
| [65535.16](#event-6553516) | 0x0145       |     14 |              4 |
| [65535.17](#event-6553517) | 0x0153       |     36 |              4 |
| [65535.18](#event-6553518) | 0x0177       |     16 |              2 |
| [65535.19](#event-6553519) | 0x0187       |     16 |              2 |
| [65535.20](#event-6553520) | 0x0197       |     16 |              2 |
| [65535.21](#event-6553521) | 0x01A7       |     19 |              3 |
| [65535.22](#event-6553522) | 0x01BA       |     19 |              3 |
| [65535.23](#event-6553523) | 0x01CD       |     33 |              3 |
| [65535.24](#event-6553524) | 0x01EE       |     73 |              9 |

## DAT References (imed_data)

|   Index | Hex Value   |   Dec Value |
|---------|-------------|-------------|
|       0 | 0x093B      |        2363 |
|       1 | 0x0000      |           0 |
|       2 | 0x0080      |         128 |
|       3 | 0x0087      |         135 |
|       4 | 0x0AC1      |        2753 |
|       5 | 0x008C      |         140 |
|       6 | 0x0140      |         320 |
|       7 | 0x0AC2      |        2754 |
|       8 | 0x0078      |         120 |
|       9 | 0x0A4C      |        2636 |
|      10 | 0x001E      |          30 |
|      11 | 0x00A0      |         160 |
|      12 | 0x0050      |          80 |
|      13 | 0xFFF8A7F1  |  4294486001 |
|      14 | 0xFFFC4AC1  |  4294724289 |
|      15 | 0xFFFD5F59  |  4294795097 |
|      16 | 0xFFF8A4BA  |  4294485178 |
|      17 | 0xFFFC3F22  |  4294721314 |
|      18 | 0xFFFD6020  |  4294795296 |
|      19 | 0xFFF8A836  |  4294486070 |
|      20 | 0xFFFC3BFD  |  4294720509 |
|      21 | 0x0A4A      |        2634 |
|      22 | 0x000A      |          10 |
|      23 | 0xFFF8C858  |  4294494296 |
|      24 | 0xFFFC5298  |  4294726296 |
|      25 | 0xFFFD6EC3  |  4294799043 |
|      26 | 0x02BC      |         700 |
|      27 | 0x00C8      |         200 |
|      28 | 0x0A5A      |        2650 |
|      29 | 0x00CB      |         203 |
|      30 | 0x01A0      |         416 |
|      31 | 0x008F      |         143 |
|      32 | 0x000F      |          15 |
|      33 | 0x0160      |         352 |

## Events

### Event 65535

#### Metadata

| Field        | Value   |
|--------------|---------|
| Entrypoint   | 0x0000  |
| Data Size    | 1 bytes |
| Instructions | 1       |

```
      00 01 02 03 04 05 06 07  08 09 0A 0B 0C 0D 0E 0F
      -- -- -- -- -- -- -- --  -- -- -- -- -- -- -- --
0000: 00                                                .               
```

#### Opcodes

```
  0: 0x0000 [0x00] END_REQSTACK()
```

### Event 4

#### Metadata

| Field        | Value   |
|--------------|---------|
| Entrypoint   | 0x0001  |
| Data Size    | 1 bytes |
| Instructions | 1       |

```
      00 01 02 03 04 05 06 07  08 09 0A 0B 0C 0D 0E 0F
      -- -- -- -- -- -- -- --  -- -- -- -- -- -- -- --
0000:    00                                              .              
```

#### Opcodes

```
  0: 0x0001 [0x00] END_REQSTACK()
```

### Event 65535.1

#### Metadata

| Field        | Value    |
|--------------|----------|
| Entrypoint   | 0x0002   |
| Data Size    | 19 bytes |
| Instructions | 5        |

```
      00 01 02 03 04 05 06 07  08 09 0A 0B 0C 0D 0E 0F
      -- -- -- -- -- -- -- --  -- -- -- -- -- -- -- --
0000:       22 00 B6 00 00 80  92 01 F8 FF FF 7F 94 01    ".............
0010: F8 FF FF 7F 00                                    .....           
```

#### Opcodes

```
  0: 0x0002 [0x22] ENTITY_HIDE_FLAG(enabled=0x00)
  1: 0x0004 [0xB6] ENTITY_APPEARANCE_HANDLER(case=Hair style, value=2363*)
  2: 0x0008 [0x92] EventEntity->Render.Flags3 ^= 0x01
  3: 0x000E [0x94] EventEntity->Render.Flags3 ^= 0x01
  4: 0x0014 [0x00] END_REQSTACK()
```

### Event 65535.2

#### Metadata

| Field        | Value    |
|--------------|----------|
| Entrypoint   | 0x0015   |
| Data Size    | 12 bytes |
| Instructions | 3        |

```
      00 01 02 03 04 05 06 07  08 09 0A 0B 0C 0D 0E 0F
      -- -- -- -- -- -- -- --  -- -- -- -- -- -- -- --
0010:                A4 00 6C  F8 FF FF 7F 01 80 01 80       ..l........
0020: 00                                                .               
```

#### Opcodes

```
  0: 0x0015 [0xA4] EventEntity->Flags3.unknown_3_2 = 0
  1: 0x0017 [0x6C] FADE_ENTITY_COLOR(entity_id=EventEntity, end_alpha=0*, fade_time=0*)
  2: 0x0020 [0x00] END_REQSTACK()
```

### Event 65535.3

#### Metadata

| Field        | Value    |
|--------------|----------|
| Entrypoint   | 0x0021   |
| Data Size    | 12 bytes |
| Instructions | 3        |

```
      00 01 02 03 04 05 06 07  08 09 0A 0B 0C 0D 0E 0F
      -- -- -- -- -- -- -- --  -- -- -- -- -- -- -- --
0020:    A4 01 6C F8 FF FF 7F  02 80 01 80 00            ..l.........   
```

#### Opcodes

```
  0: 0x0021 [0xA4] EventEntity->Flags3.unknown_3_2 = 1
  1: 0x0023 [0x6C] FADE_ENTITY_COLOR(entity_id=EventEntity, end_alpha=128*, fade_time=0*)
  2: 0x002C [0x00] END_REQSTACK()
```

### Event 65535.4

#### Metadata

| Field        | Value    |
|--------------|----------|
| Entrypoint   | 0x002D   |
| Data Size    | 18 bytes |
| Instructions | 2        |

```
      00 01 02 03 04 05 06 07  08 09 0A 0B 0C 0D 0E 0F
      -- -- -- -- -- -- -- --  -- -- -- -- -- -- -- --
0020:                                         C5 03 80               ...
0030: F8 FF FF 7F F8 FF FF 7F  73 74 30 31 01 80 00     ........st01... 
```

#### Opcodes

```
  0: 0x002D [0xC5] LOAD_SCHEDULED_TASK_ALT3: Load scheduler 0x80013130 for entities [EventEntity, EventEntity], work=135*, param=29811
  1: 0x003E [0x00] END_REQSTACK()
```

### Event 65535.5

#### Metadata

| Field        | Value    |
|--------------|----------|
| Entrypoint   | 0x003F   |
| Data Size    | 18 bytes |
| Instructions | 2        |

```
      00 01 02 03 04 05 06 07  08 09 0A 0B 0C 0D 0E 0F
      -- -- -- -- -- -- -- --  -- -- -- -- -- -- -- --
0030:                                               C5                 .
0040: 03 80 F8 FF FF 7F F8 FF  FF 7F 73 74 30 32 01 80  ..........st02..
0050: 00                                                .               
```

#### Opcodes

```
  0: 0x003F [0xC5] LOAD_SCHEDULED_TASK_ALT3: Load scheduler 0x80013230 for entities [EventEntity, EventEntity], work=135*, param=29811
  1: 0x0050 [0x00] END_REQSTACK()
```

### Event 65535.6

#### Metadata

| Field        | Value    |
|--------------|----------|
| Entrypoint   | 0x0051   |
| Data Size    | 16 bytes |
| Instructions | 2        |

```
      00 01 02 03 04 05 06 07  08 09 0A 0B 0C 0D 0E 0F
      -- -- -- -- -- -- -- --  -- -- -- -- -- -- -- --
0050:    5B 04 80 F8 FF FF 7F  F8 FF FF 7F 74 74 6C 30   [..........ttl0
0060: 00                                                .               
```

#### Opcodes

```
  0: 0x0051 [0x5B] LOAD_EXT_SCHEDULER: Load scheduler "ttl0" with entities [EventEntity, EventEntity], work=2753*
  1: 0x0060 [0x00] END_REQSTACK()
```

### Event 65535.7

#### Metadata

| Field        | Value    |
|--------------|----------|
| Entrypoint   | 0x0061   |
| Data Size    | 16 bytes |
| Instructions | 2        |

```
      00 01 02 03 04 05 06 07  08 09 0A 0B 0C 0D 0E 0F
      -- -- -- -- -- -- -- --  -- -- -- -- -- -- -- --
0060:    5B 04 80 F8 FF FF 7F  F8 FF FF 7F 74 74 6C 31   [..........ttl1
0070: 00                                                .               
```

#### Opcodes

```
  0: 0x0061 [0x5B] LOAD_EXT_SCHEDULER: Load scheduler "ttl1" with entities [EventEntity, EventEntity], work=2753*
  1: 0x0070 [0x00] END_REQSTACK()
```

### Event 65535.8

#### Metadata

| Field        | Value    |
|--------------|----------|
| Entrypoint   | 0x0071   |
| Data Size    | 16 bytes |
| Instructions | 2        |

```
      00 01 02 03 04 05 06 07  08 09 0A 0B 0C 0D 0E 0F
      -- -- -- -- -- -- -- --  -- -- -- -- -- -- -- --
0070:    5B 04 80 F8 FF FF 7F  F8 FF FF 7F 74 6C 61 75   [..........tlau
0080: 00                                                .               
```

#### Opcodes

```
  0: 0x0071 [0x5B] LOAD_EXT_SCHEDULER: Load scheduler "tlau" with entities [EventEntity, EventEntity], work=2753*
  1: 0x0080 [0x00] END_REQSTACK()
```

### Event 65535.9

#### Metadata

| Field        | Value    |
|--------------|----------|
| Entrypoint   | 0x0081   |
| Data Size    | 19 bytes |
| Instructions | 3        |

```
      00 01 02 03 04 05 06 07  08 09 0A 0B 0C 0D 0E 0F
      -- -- -- -- -- -- -- --  -- -- -- -- -- -- -- --
0080:    5B 04 80 F8 FF FF 7F  F8 FF FF 7F 74 73 64 31   [..........tsd1
0090: 1C 05 80 00                                       ....            
```

#### Opcodes

```
  0: 0x0081 [0x5B] LOAD_EXT_SCHEDULER: Load scheduler "tsd1" with entities [EventEntity, EventEntity], work=2753*
  1: 0x0090 [0x1C] WAIT(140* ticks)
  2: 0x0093 [0x00] END_REQSTACK()
```

### Event 65535.10

#### Metadata

| Field        | Value    |
|--------------|----------|
| Entrypoint   | 0x0094   |
| Data Size    | 16 bytes |
| Instructions | 2        |

```
      00 01 02 03 04 05 06 07  08 09 0A 0B 0C 0D 0E 0F
      -- -- -- -- -- -- -- --  -- -- -- -- -- -- -- --
0090:             5B 04 80 F8  FF FF 7F F8 FF FF 7F 74      [..........t
00A0: 64 77 30 00                                       dw0.            
```

#### Opcodes

```
  0: 0x0094 [0x5B] LOAD_EXT_SCHEDULER: Load scheduler "tdw0" with entities [EventEntity, EventEntity], work=2753*
  1: 0x00A3 [0x00] END_REQSTACK()
```

### Event 65535.11

#### Metadata

| Field        | Value    |
|--------------|----------|
| Entrypoint   | 0x00A4   |
| Data Size    | 19 bytes |
| Instructions | 3        |

```
      00 01 02 03 04 05 06 07  08 09 0A 0B 0C 0D 0E 0F
      -- -- -- -- -- -- -- --  -- -- -- -- -- -- -- --
00A0:             5B 04 80 F8  FF FF 7F F8 FF FF 7F 74      [..........t
00B0: 64 77 31 1C 06 80 00                              dw1....         
```

#### Opcodes

```
  0: 0x00A4 [0x5B] LOAD_EXT_SCHEDULER: Load scheduler "tdw1" with entities [EventEntity, EventEntity], work=2753*
  1: 0x00B3 [0x1C] WAIT(320* ticks)
  2: 0x00B6 [0x00] END_REQSTACK()
```

### Event 65535.12

#### Metadata

| Field        | Value    |
|--------------|----------|
| Entrypoint   | 0x00B7   |
| Data Size    | 19 bytes |
| Instructions | 3        |

```
      00 01 02 03 04 05 06 07  08 09 0A 0B 0C 0D 0E 0F
      -- -- -- -- -- -- -- --  -- -- -- -- -- -- -- --
00B0:                      5B  07 80 F8 FF FF 7F F8 FF         [........
00C0: FF 7F 62 69 6B 30 1C 08  80 00                    ..bik0....      
```

#### Opcodes

```
  0: 0x00B7 [0x5B] LOAD_EXT_SCHEDULER: Load scheduler "bik0" with entities [EventEntity, EventEntity], work=2754*
  1: 0x00C6 [0x1C] WAIT(120* ticks)
  2: 0x00C9 [0x00] END_REQSTACK()
```

### Event 65535.13

#### Metadata

| Field        | Value    |
|--------------|----------|
| Entrypoint   | 0x00CA   |
| Data Size    | 16 bytes |
| Instructions | 2        |

```
      00 01 02 03 04 05 06 07  08 09 0A 0B 0C 0D 0E 0F
      -- -- -- -- -- -- -- --  -- -- -- -- -- -- -- --
00C0:                                5B 09 80 F8 FF FF            [.....
00D0: 7F F8 FF FF 7F 68 61 70  30 00                    .....hap0.      
```

#### Opcodes

```
  0: 0x00CA [0x5B] LOAD_EXT_SCHEDULER: Load scheduler "hap0" with entities [EventEntity, EventEntity], work=2636*
  1: 0x00D9 [0x00] END_REQSTACK()
```

### Event 65535.14

#### Metadata

| Field        | Value    |
|--------------|----------|
| Entrypoint   | 0x00DA   |
| Data Size    | 19 bytes |
| Instructions | 3        |

```
      00 01 02 03 04 05 06 07  08 09 0A 0B 0C 0D 0E 0F
      -- -- -- -- -- -- -- --  -- -- -- -- -- -- -- --
00D0:                                5B 09 80 F8 FF FF            [.....
00E0: 7F F8 FF FF 7F 73 74 64  30 1C 0A 80 00           .....std0....   
```

#### Opcodes

```
  0: 0x00DA [0x5B] LOAD_EXT_SCHEDULER: Load scheduler "std0" with entities [EventEntity, EventEntity], work=2636*
  1: 0x00E9 [0x1C] WAIT(30* ticks)
  2: 0x00EC [0x00] END_REQSTACK()
```

### Event 65535.15

#### Metadata

| Field        | Value    |
|--------------|----------|
| Entrypoint   | 0x00ED   |
| Data Size    | 87 bytes |
| Instructions | 15       |

```
      00 01 02 03 04 05 06 07  08 09 0A 0B 0C 0D 0E 0F
      -- -- -- -- -- -- -- --  -- -- -- -- -- -- -- --
00E0:                                         5B 09 80               [..
00F0: F8 FF FF 7F F8 FF FF 7F  70 6E 63 30 1C 0B 80 32  ........pnc0...2
0100: 0C 80 5A 00 0D 80 0E 80  0F 80 5A 01 1F 00 10 80  ..Z.......Z.....
0110: 11 80 12 80 1F 01 1F 00  13 80 14 80 12 80 1F 01  ................
0120: 4A F8 FF FF 7F 21 51 0A  01 6F 76 F8 FF FF 7F 7B  J....!Q..ov....{
0130: F8 FF FF 7F 5B 15 80 F8  FF FF 7F F8 FF FF 7F 62  ....[..........b
0140: 72 75 30 00                                       ru0.            
```

#### Opcodes

```
  0: 0x00ED [0x5B] LOAD_EXT_SCHEDULER: Load scheduler "pnc0" with entities [EventEntity, EventEntity], work=2636*
  1: 0x00FC [0x1C] WAIT(160* ticks)
  2: 0x00FF [0x32] ExtData[1]->MainSpeed = 80* * 0.1
  3: 0x0102 [0x5A] UPDATE_EVENT_POSITION: Set EventEntity MovePosition to X=-481.295*, Z=-243.007*, Y=-172.199*
  4: 0x010A [0x5A] UPDATE_EVENT_POSITION: Move EventEntity incrementally towards MovePosition
  5: 0x010C [0x1F] MOVE_ENTITY: EventEntity moves to X=-482.118*, Z=-245.982*, Y=-172.000*
  6: 0x0114 [0x1F] MOVE_ENTITY: Update entity position (mode=1)
  7: 0x0116 [0x1F] MOVE_ENTITY: EventEntity moves to X=-481.226*, Z=-246.787*, Y=-172.000*
  8: 0x011E [0x1F] MOVE_ENTITY: Update entity position (mode=1)
  9: 0x0120 [0x4A] EventEntity looks at Riko Kupenreich (ID: 17453345/0x010A5121)
 10: 0x0129 [0x6F] WAIT_FRAME_DELAY: Yield until WaitTime reaches zero
 11: 0x012A [0x76] CHECK_ENTITY_RENDER_FLAGS: Wait until EventEntity Render.Flags0 and Render.Flags3 conditions are met
 12: 0x012F [0x7B] EventEntity stops talking
 13: 0x0134 [0x5B] LOAD_EXT_SCHEDULER: Load scheduler "bru0" with entities [EventEntity, EventEntity], work=2634*
 14: 0x0143 [0x00] END_REQSTACK()
```

### Event 5

#### Metadata

| Field        | Value   |
|--------------|---------|
| Entrypoint   | 0x0144  |
| Data Size    | 1 bytes |
| Instructions | 1       |

```
      00 01 02 03 04 05 06 07  08 09 0A 0B 0C 0D 0E 0F
      -- -- -- -- -- -- -- --  -- -- -- -- -- -- -- --
0140:             00                                        .           
```

#### Opcodes

```
  0: 0x0144 [0x00] END_REQSTACK()
```

### Event 65535.16

#### Metadata

| Field        | Value    |
|--------------|----------|
| Entrypoint   | 0x0145   |
| Data Size    | 14 bytes |
| Instructions | 4        |

```
      00 01 02 03 04 05 06 07  08 09 0A 0B 0C 0D 0E 0F
      -- -- -- -- -- -- -- --  -- -- -- -- -- -- -- --
0140:                32 16 80  5A 00 17 80 18 80 19 80       2..Z.......
0150: 5A 01 00                                          Z..             
```

#### Opcodes

```
  0: 0x0145 [0x32] ExtData[1]->MainSpeed = 10* * 0.1
  1: 0x0148 [0x5A] UPDATE_EVENT_POSITION: Set EventEntity MovePosition to X=-473.000*, Z=-241.000*, Y=-168.253*
  2: 0x0150 [0x5A] UPDATE_EVENT_POSITION: Move EventEntity incrementally towards MovePosition
  3: 0x0152 [0x00] END_REQSTACK()
```

### Event 65535.17

#### Metadata

| Field        | Value    |
|--------------|----------|
| Entrypoint   | 0x0153   |
| Data Size    | 36 bytes |
| Instructions | 4        |

```
      00 01 02 03 04 05 06 07  08 09 0A 0B 0C 0D 0E 0F
      -- -- -- -- -- -- -- --  -- -- -- -- -- -- -- --
0150:          1C 1A 80 45 1B  80 F0 FF FF 7F F0 FF FF     ...E.........
0160: 7F 66 64 6F 31 01 80 55  1B 80 F0 FF FF 7F F0 FF  .fdo1..U........
0170: FF 7F 66 64 6F 31 00                              ..fdo1.         
```

#### Opcodes

```
  0: 0x0153 [0x1C] WAIT(700* ticks)
  1: 0x0156 [0x45] LOAD_SCHEDULED_TASK: Load scheduler "fdo1" with entities [LocalPlayer, LocalPlayer], work=[200*, 0*]
  2: 0x0167 [0x55] WAIT_LOAD_SCHEDULER: Wait for scheduler "fdo1" with entities [LocalPlayer, LocalPlayer], work=200*
  3: 0x0176 [0x00] END_REQSTACK()
```

### Event 65535.18

#### Metadata

| Field        | Value    |
|--------------|----------|
| Entrypoint   | 0x0177   |
| Data Size    | 16 bytes |
| Instructions | 2        |

```
      00 01 02 03 04 05 06 07  08 09 0A 0B 0C 0D 0E 0F
      -- -- -- -- -- -- -- --  -- -- -- -- -- -- -- --
0170:                      5B  1C 80 F8 FF FF 7F F8 FF         [........
0180: FF 7F 6E 6B 61 30 00                              ..nka0.         
```

#### Opcodes

```
  0: 0x0177 [0x5B] LOAD_EXT_SCHEDULER: Load scheduler "nka0" with entities [EventEntity, EventEntity], work=2650*
  1: 0x0186 [0x00] END_REQSTACK()
```

### Event 65535.19

#### Metadata

| Field        | Value    |
|--------------|----------|
| Entrypoint   | 0x0187   |
| Data Size    | 16 bytes |
| Instructions | 2        |

```
      00 01 02 03 04 05 06 07  08 09 0A 0B 0C 0D 0E 0F
      -- -- -- -- -- -- -- --  -- -- -- -- -- -- -- --
0180:                      5B  1C 80 F8 FF FF 7F F8 FF         [........
0190: FF 7F 6E 6B 61 31 00                              ..nka1.         
```

#### Opcodes

```
  0: 0x0187 [0x5B] LOAD_EXT_SCHEDULER: Load scheduler "nka1" with entities [EventEntity, EventEntity], work=2650*
  1: 0x0196 [0x00] END_REQSTACK()
```

### Event 65535.20

#### Metadata

| Field        | Value    |
|--------------|----------|
| Entrypoint   | 0x0197   |
| Data Size    | 16 bytes |
| Instructions | 2        |

```
      00 01 02 03 04 05 06 07  08 09 0A 0B 0C 0D 0E 0F
      -- -- -- -- -- -- -- --  -- -- -- -- -- -- -- --
0190:                      5B  1C 80 F8 FF FF 7F F8 FF         [........
01A0: FF 7F 6E 6B 62 30 00                              ..nkb0.         
```

#### Opcodes

```
  0: 0x0197 [0x5B] LOAD_EXT_SCHEDULER: Load scheduler "nkb0" with entities [EventEntity, EventEntity], work=2650*
  1: 0x01A6 [0x00] END_REQSTACK()
```

### Event 65535.21

#### Metadata

| Field        | Value    |
|--------------|----------|
| Entrypoint   | 0x01A7   |
| Data Size    | 19 bytes |
| Instructions | 3        |

```
      00 01 02 03 04 05 06 07  08 09 0A 0B 0C 0D 0E 0F
      -- -- -- -- -- -- -- --  -- -- -- -- -- -- -- --
01A0:                      5B  1C 80 F8 FF FF 7F F8 FF         [........
01B0: FF 7F 6E 6B 62 31 1C 1D  80 00                    ..nkb1....      
```

#### Opcodes

```
  0: 0x01A7 [0x5B] LOAD_EXT_SCHEDULER: Load scheduler "nkb1" with entities [EventEntity, EventEntity], work=2650*
  1: 0x01B6 [0x1C] WAIT(203* ticks)
  2: 0x01B9 [0x00] END_REQSTACK()
```

### Event 65535.22

#### Metadata

| Field        | Value    |
|--------------|----------|
| Entrypoint   | 0x01BA   |
| Data Size    | 19 bytes |
| Instructions | 3        |

```
      00 01 02 03 04 05 06 07  08 09 0A 0B 0C 0D 0E 0F
      -- -- -- -- -- -- -- --  -- -- -- -- -- -- -- --
01B0:                                5B 1C 80 F8 FF FF            [.....
01C0: 7F F8 FF FF 7F 6E 6B 62  32 1C 1E 80 00           .....nkb2....   
```

#### Opcodes

```
  0: 0x01BA [0x5B] LOAD_EXT_SCHEDULER: Load scheduler "nkb2" with entities [EventEntity, EventEntity], work=2650*
  1: 0x01C9 [0x1C] WAIT(416* ticks)
  2: 0x01CC [0x00] END_REQSTACK()
```

### Event 65535.23

#### Metadata

| Field        | Value    |
|--------------|----------|
| Entrypoint   | 0x01CD   |
| Data Size    | 33 bytes |
| Instructions | 3        |

```
      00 01 02 03 04 05 06 07  08 09 0A 0B 0C 0D 0E 0F
      -- -- -- -- -- -- -- --  -- -- -- -- -- -- -- --
01C0:                                         C5 1F 80               ...
01D0: F8 FF FF 7F F8 FF FF 7F  73 74 30 31 01 80 5B 1C  ........st01..[.
01E0: 80 F8 FF FF 7F F8 FF FF  7F 6E 6B 73 33 00        .........nks3.  
```

#### Opcodes

```
  0: 0x01CD [0xC5] LOAD_SCHEDULED_TASK_ALT3: Load scheduler 0x80013130 for entities [EventEntity, EventEntity], work=143*, param=29811
  1: 0x01DE [0x5B] LOAD_EXT_SCHEDULER: Load scheduler "nks3" with entities [EventEntity, EventEntity], work=2650*
  2: 0x01ED [0x00] END_REQSTACK()
```

### Event 65535.24

#### Metadata

| Field        | Value    |
|--------------|----------|
| Entrypoint   | 0x01EE   |
| Data Size    | 73 bytes |
| Instructions | 9        |

```
      00 01 02 03 04 05 06 07  08 09 0A 0B 0C 0D 0E 0F
      -- -- -- -- -- -- -- --  -- -- -- -- -- -- -- --
01E0:                                            5B 1C                [.
01F0: 80 F8 FF FF 7F F8 FF FF  7F 6E 6B 62 30 1C 20 80  .........nkb0. .
0200: 5B 1C 80 F8 FF FF 7F F8  FF FF 7F 6E 6B 62 31 1C  [..........nkb1.
0210: 1D 80 5B 1C 80 F8 FF FF  7F F8 FF FF 7F 6E 6B 62  ..[..........nkb
0220: 32 1C 1E 80 5B 1C 80 F8  FF FF 7F F8 FF FF 7F 6E  2...[..........n
0230: 6B 62 33 1C 21 80 00                              kb3.!..         
```

#### Opcodes

```
  0: 0x01EE [0x5B] LOAD_EXT_SCHEDULER: Load scheduler "nkb0" with entities [EventEntity, EventEntity], work=2650*
  1: 0x01FD [0x1C] WAIT(15* ticks)
  2: 0x0200 [0x5B] LOAD_EXT_SCHEDULER: Load scheduler "nkb1" with entities [EventEntity, EventEntity], work=2650*
  3: 0x020F [0x1C] WAIT(203* ticks)
  4: 0x0212 [0x5B] LOAD_EXT_SCHEDULER: Load scheduler "nkb2" with entities [EventEntity, EventEntity], work=2650*
  5: 0x0221 [0x1C] WAIT(416* ticks)
  6: 0x0224 [0x5B] LOAD_EXT_SCHEDULER: Load scheduler "nkb3" with entities [EventEntity, EventEntity], work=2650*
  7: 0x0233 [0x1C] WAIT(352* ticks)
  8: 0x0236 [0x00] END_REQSTACK()
```
