# 17453340

## Common Data

| Field            | Value                 |
|------------------|-----------------------|
| Zone             | Throne Room (ID: 165) |
| Block Size       | 8428 bytes            |
| Total Events     | 3                     |
| References Count | 179                   |

## List of Events

| Event ID              | Entrypoint   |   Size |   Instructions |
|-----------------------|--------------|--------|----------------|
| [65535](#event-65535) | 0x0000       |      1 |              1 |
| [4](#event-4)         | 0x0001       |   4394 |            645 |
| [5](#event-5)         | 0x112B       |   3286 |            487 |

## DAT References (imed_data)

|   Index | Hex Value   |   Dec Value |
|---------|-------------|-------------|
|       0 | 0x0013      |          19 |
|       1 | 0x0000      |           0 |
|       2 | 0x0078      |         120 |
|       3 | 0xFFF9674C  |  4294534988 |
|       4 | 0xFFFC5674  |  4294727284 |
|       5 | 0xFFFD7343  |  4294800195 |
|       6 | 0x07FF      |        2047 |
|       7 | 0x000F      |          15 |
|       8 | 0x0041      |          65 |
|       9 | 0x00D2      |         210 |
|      10 | 0xFFF9183A  |  4294514746 |
|      11 | 0xFFFC5680  |  4294727296 |
|      12 | 0xFFFD7312  |  4294800146 |
|      13 | 0xFFF92B81  |  4294519681 |
|      14 | 0xFFFC5298  |  4294726296 |
|      15 | 0xFFFD72E1  |  4294800097 |
|      16 | 0xFFF8AD00  |  4294487296 |
|      17 | 0xFFFD72E0  |  4294800096 |
|      18 | 0xFFF8A724  |  4294485796 |
|      19 | 0xFFF8BE94  |  4294491796 |
|      20 | 0xFFFC4AC8  |  4294724296 |
|      21 | 0xFFFD5C38  |  4294794296 |
|      22 | 0xFFFC6238  |  4294730296 |
|      23 | 0x001E      |          30 |
|      24 | 0x0001      |           1 |
|      25 | 0x002A      |          42 |
|      26 | 0x0002      |           2 |
|      27 | 0x0003      |           3 |
|      28 | 0x0004      |           4 |
|      29 | 0x0005      |           5 |
|      30 | 0x0006      |           6 |
|      31 | 0x0007      |           7 |
|      32 | 0x0008      |           8 |
|      33 | 0x0009      |           9 |
|      34 | 0x000A      |          10 |
|      35 | 0x000B      |          11 |
|      36 | 0x000C      |          12 |
|      37 | 0x000D      |          13 |
|      38 | 0x000E      |          14 |
|      39 | 0x0010      |          16 |
|      40 | 0x0011      |          17 |
|      41 | 0x0012      |          18 |
|      42 | 0x0014      |          20 |
|      43 | 0x0015      |          21 |
|      44 | 0x0016      |          22 |
|      45 | 0x0017      |          23 |
|      46 | 0x0018      |          24 |
|      47 | 0x0019      |          25 |
|      48 | 0x001A      |          26 |
|      49 | 0x001B      |          27 |
|      50 | 0x001C      |          28 |
|      51 | 0x001D      |          29 |
|      52 | 0x001F      |          31 |
|      53 | 0x0020      |          32 |
|      54 | 0x0021      |          33 |
|      55 | 0x0022      |          34 |
|      56 | 0x0023      |          35 |
|      57 | 0x0024      |          36 |
|      58 | 0x0025      |          37 |
|      59 | 0x0026      |          38 |
|      60 | 0x0027      |          39 |
|      61 | 0x0028      |          40 |
|      62 | 0x0029      |          41 |
|      63 | 0x002B      |          43 |
|      64 | 0x003C      |          60 |
|      65 | 0x009B      |         155 |
|      66 | 0x0077      |         119 |
|      67 | 0x00C8      |         200 |
|      68 | 0x1E85      |        7813 |
|      69 | 0x01D0      |         464 |
|      70 | 0x1E84      |        7812 |
|      71 | 0x0400      |        1024 |
|      72 | 0x00E3      |         227 |
|      73 | 0x1E86      |        7814 |
|      74 | 0x1E87      |        7815 |
|      75 | 0x1E88      |        7816 |
|      76 | 0x1E89      |        7817 |
|      77 | 0x0096      |         150 |
|      78 | 0x1E8A      |        7818 |
|      79 | 0x010E      |         270 |
|      80 | 0x1E8B      |        7819 |
|      81 | 0x00AA      |         170 |
|      82 | 0x1E8C      |        7820 |
|      83 | 0x1E8D      |        7821 |
|      84 | 0x1E8E      |        7822 |
|      85 | 0x1E8F      |        7823 |
|      86 | 0x1E90      |        7824 |
|      87 | 0x1E91      |        7825 |
|      88 | 0x1E92      |        7826 |
|      89 | 0x1E93      |        7827 |
|      90 | 0x1E94      |        7828 |
|      91 | 0x1E95      |        7829 |
|      92 | 0x1E96      |        7830 |
|      93 | 0x1E97      |        7831 |
|      94 | 0x1E98      |        7832 |
|      95 | 0x1E99      |        7833 |
|      96 | 0x1E9A      |        7834 |
|      97 | 0x1E9B      |        7835 |
|      98 | 0x1E9C      |        7836 |
|      99 | 0x1E9D      |        7837 |
|     100 | 0x1E9E      |        7838 |
|     101 | 0x1E9F      |        7839 |
|     102 | 0x1EA0      |        7840 |
|     103 | 0x1EA1      |        7841 |
|     104 | 0x1EA2      |        7842 |
|     105 | 0x1EA3      |        7843 |
|     106 | 0x1EA4      |        7844 |
|     107 | 0x1EA5      |        7845 |
|     108 | 0x0031      |          49 |
|     109 | 0x0040      |          64 |
|     110 | 0x1EA6      |        7846 |
|     111 | 0x1EA7      |        7847 |
|     112 | 0x1EA8      |        7848 |
|     113 | 0x1EA9      |        7849 |
|     114 | 0x1EAA      |        7850 |
|     115 | 0x1EAB      |        7851 |
|     116 | 0x0A50      |        2640 |
|     117 | 0x1EAC      |        7852 |
|     118 | 0x008E      |         142 |
|     119 | 0x1EAD      |        7853 |
|     120 | 0x1EAE      |        7854 |
|     121 | 0x1EAF      |        7855 |
|     122 | 0x1EB0      |        7856 |
|     123 | 0x00B4      |         180 |
|     124 | 0x0089      |         137 |
|     125 | 0xFFF8EB80  |  4294503296 |
|     126 | 0xFFF8EF68  |  4294504296 |
|     127 | 0xFFFC50A4  |  4294725796 |
|     128 | 0xFFF8DB66  |  4294499174 |
|     129 | 0xFFFC5BB2  |  4294728626 |
|     130 | 0xFFFD73A8  |  4294800296 |
|     131 | 0x0C1C      |        3100 |
|     132 | 0xFFF8FDAA  |  4294507946 |
|     133 | 0xFFFD738F  |  4294800271 |
|     134 | 0x0801      |        2049 |
|     135 | 0xFFF96498  |  4294534296 |
|     136 | 0xFFFC5E50  |  4294729296 |
|     137 | 0xFFFC4EB0  |  4294725296 |
|     138 | 0xFFF983D8  |  4294542296 |
|     139 | 0xFFF8F92C  |  4294506796 |
|     140 | 0xFFFC6CB4  |  4294732980 |
|     141 | 0xFFFFFFEC  |  4294967276 |
|     142 | 0xFFFE40BC  |  4294852796 |
|     143 | 0xFFFFE82B  |  4294961195 |
|     144 | 0xFFFE448D  |  4294853773 |
|     145 | 0xFFFFFCE0  |  4294966496 |
|     146 | 0x1EB1      |        7857 |
|     147 | 0x0258      |         600 |
|     148 | 0x1EC5      |        7877 |
|     149 | 0x1EB2      |        7858 |
|     150 | 0x0081      |         129 |
|     151 | 0x1EB3      |        7859 |
|     152 | 0x1EB4      |        7860 |
|     153 | 0x1EB5      |        7861 |
|     154 | 0x1EB6      |        7862 |
|     155 | 0x1EB7      |        7863 |
|     156 | 0x1EB8      |        7864 |
|     157 | 0x1EB9      |        7865 |
|     158 | 0x1EBA      |        7866 |
|     159 | 0x1EBB      |        7867 |
|     160 | 0x1EBC      |        7868 |
|     161 | 0x1EBD      |        7869 |
|     162 | 0x005A      |          90 |
|     163 | 0x0032      |          50 |
|     164 | 0x0050      |          80 |
|     165 | 0x00A3      |         163 |
|     166 | 0x1EBE      |        7870 |
|     167 | 0x1EBF      |        7871 |
|     168 | 0x0118      |         280 |
|     169 | 0x1EC0      |        7872 |
|     170 | 0x1EC1      |        7873 |
|     171 | 0x1EC2      |        7874 |
|     172 | 0x006C      |         108 |
|     173 | 0x1EC3      |        7875 |
|     174 | 0x1EC4      |        7876 |
|     175 | 0xFFFE505C  |  4294856796 |
|     176 | 0xFFFE542D  |  4294857773 |
|     177 | 0x00C9      |         201 |
|     178 | 0x00D7      |         215 |

## String References

- **7813**: I'm here! Let the games begin!
- **7857**: Wh-what the--!? Whowhatwherewhenwhyhow--!?
- **7877**: @@

## Events

### Event 65535

#### Metadata

| Field        | Value   |
|--------------|---------|
| Entrypoint   | 0x0000  |
| Data Size    | 1 bytes |
| Instructions | 1       |

```
      00 01 02 03 04 05 06 07  08 09 0A 0B 0C 0D 0E 0F
      -- -- -- -- -- -- -- --  -- -- -- -- -- -- -- --
0000: 00                                                .               
```

#### Opcodes

```
  0: 0x0000 [0x00] END_REQSTACK()
```

### Event 4

#### Metadata

| Field        | Value      |
|--------------|------------|
| Entrypoint   | 0x0001     |
| Data Size    | 4394 bytes |
| Instructions | 641        |

```
      00 01 02 03 04 05 06 07  08 09 0A 0B 0C 0D 0E 0F
      -- -- -- -- -- -- -- --  -- -- -- -- -- -- -- --
0000:    42 1A 3B 1D 46 01 38  00 80 5D 01 80 02 80 27   B.;.F.8..]....'
0010: 10 F0 FF FF 7F 1A 27 10  1F 51 0A 01 03 27 10 20  ......'..Q...'. 
0020: 51 0A 01 02 27 10 21 51  0A 01 01 27 10 22 51 0A  Q...'.!Q...'."Q.
0030: 01 01 27 10 23 51 0A 01  01 27 10 24 51 0A 01 01  ..'.#Q...'.$Q...
0040: 59 05 23 51 0A 01 01 59  05 24 51 0A 01 01 BA F0  Y.#Q...Y.$Q.....
0050: FF FF 7F 03 80 04 80 05  80 06 80 80 F0 FF FF 7F  ................
0060: 1C 07 80 27 10 F6 50 0A  01 05 45 08 80 F0 FF FF  ...'..P...E.....
0070: 7F F0 FF FF 7F 73 67 30  77 01 80 1A 1A 1D 2A 10  .....sg0w.....*.
0080: F6 50 0A 01 27 10 F0 FF  FF 7F 14 1C 09 80 29 10  .P..'.........).
0090: F6 50 0A 01 06 1A 3B 1D  1C 02 80 7A 00 F0 FF FF  .P....;....z....
00A0: 7F 52 08 80 F0 FF FF 7F  F0 FF FF 7F 73 67 30 77  .R..........sg0w
00B0: 59 05 F0 FF FF 7F 01 BA  F0 FF FF 7F 0A 80 0B 80  Y...............
00C0: 0C 80 01 80 BA 1F 51 0A  01 0D 80 0E 80 0F 80 01  ......Q.........
00D0: 80 BA 20 51 0A 01 10 80  0E 80 11 80 01 80 BA 21  .. Q...........!
00E0: 51 0A 01 12 80 0B 80 11  80 01 80 BA 22 51 0A 01  Q..........."Q..
00F0: 12 80 0B 80 11 80 01 80  BA 23 51 0A 01 13 80 14  .........#Q.....
0100: 80 15 80 01 80 BA 24 51  0A 01 13 80 16 80 15 80  ......$Q........
0110: 01 80 80 F0 FF FF 7F 80  1F 51 0A 01 80 20 51 0A  .........Q... Q.
0120: 01 80 21 51 0A 01 80 22  51 0A 01 80 23 51 0A 01  ..!Q..."Q...#Q..
0130: 80 24 51 0A 01 1C 07 80  4A F0 FF FF 7F 22 51 0A  .$Q.....J...."Q.
0140: 01 4A 1F 51 0A 01 F0 FF  FF 7F 4A 20 51 0A 01 F0  .J.Q......J Q...
0150: FF FF 7F 4A 21 51 0A 01  F0 FF FF 7F 4A 22 51 0A  ...J!Q......J"Q.
0160: 01 F0 FF FF 7F 4A 23 51  0A 01 F0 FF FF 7F 4A 24  .....J#Q......J$
0170: 51 0A 01 F0 FF FF 7F 6F  76 F0 FF FF 7F 6F 76 1F  Q......ov....ov.
0180: 51 0A 01 6F 76 20 51 0A  01 6F 76 21 51 0A 01 6F  Q..ov Q..ov!Q..o
0190: 76 22 51 0A 01 6F 76 23  51 0A 01 6F 76 24 51 0A  v"Q..ov#Q..ov$Q.
01A0: 01 1C 07 80 7B F0 FF FF  7F 7B 1F 51 0A 01 7B 20  ....{....{.Q..{ 
01B0: 51 0A 01 7B 21 51 0A 01  7B 22 51 0A 01 7B 23 51  Q..{!Q..{"Q..{#Q
01C0: 0A 01 7B 24 51 0A 01 27  10 20 51 0A 01 0B 27 10  ..{$Q..'. Q...'.
01D0: 21 51 0A 01 0C 27 10 20  51 0A 01 03 27 10 21 51  !Q...'. Q...'.!Q
01E0: 0A 01 02 27 10 22 51 0A  01 02 27 10 23 51 0A 01  ...'."Q...'.#Q..
01F0: 02 27 10 24 51 0A 01 02  27 10 22 51 0A 01 06 1C  .'.$Q...'."Q....
0200: 17 80 03 00 00 18 80 02  00 00 19 80 05 F4 05 02  ................
0210: 01 80 00 00 04 EC 05 02  00 00 1A 80 80 87 02 27  ...............'
0220: 10 F0 FF FF 7F 1B 27 10  1F 51 0A 01 01 1A 1A 1D  ......'..Q......
0230: 27 10 1F 51 0A 01 02 27  10 1F 51 0A 01 05 4A F0  '..Q...'..Q...J.
0240: FF FF 7F 1F 51 0A 01 7B  F0 FF FF 7F 79 00 F0 FF  ....Q..{....y...
0250: FF 7F 1F 51 0A 01 4A 1F  51 0A 01 F0 FF FF 7F 6F  ...Q..J.Q......o
0260: 76 1F 51 0A 01 79 00 1F  51 0A 01 F0 FF FF 7F 27  v.Q..y..Q......'
0270: 10 1F 51 0A 01 0B 27 10  1F 51 0A 01 0D 59 05 F0  ..Q...'..Q...Y..
0280: FF FF 7F 00 01 EC 05 02  00 00 1B 80 80 A5 02 7B  ...............{
0290: 1F 51 0A 01 27 10 1F 51  0A 01 0A 27 10 1F 51 0A  .Q..'..Q...'..Q.
02A0: 01 0D 01 EC 05 02 00 00  1C 80 80 BE 02 27 10 F0  .............'..
02B0: FF FF 7F 1D 27 10 1F 51  0A 01 06 01 EC 05 02 00  ....'..Q........
02C0: 00 1D 80 80 C9 02 01 EC  05 02 00 00 1E 80 80 DB  ................
02D0: 02 27 10 20 51 0A 01 05  01 EC 05 02 00 00 1F 80  .'. Q...........
02E0: 80 10 03 4A 1F 51 0A 01  21 51 0A 01 4A F0 FF FF  ...J.Q..!Q..J...
02F0: 7F 21 51 0A 01 79 00 F0  FF FF 7F 21 51 0A 01 27  .!Q..y.....!Q..'
0300: 10 20 51 0A 01 04 27 10  20 51 0A 01 0C 01 EC 05  . Q...'. Q......
0310: 02 00 00 20 80 80 29 03  27 10 1F 51 0A 01 0A 27  ... ..).'..Q...'
0320: 10 1F 51 0A 01 0D 01 EC  05 02 00 00 21 80 80 50  ..Q.........!..P
0330: 03 27 10 21 51 0A 01 03  27 10 21 51 0A 01 0D 27  .'.!Q...'.!Q...'
0340: 10 20 51 0A 01 03 27 10  20 51 0A 01 06 01 EC 05  . Q...'. Q......
0350: 02 00 00 22 80 80 62 03  27 10 20 51 0A 01 04 01  ..."..b.'. Q....
0360: EC 05 02 00 00 23 80 80  6D 03 01 EC 05 02 00 00  .....#..m.......
0370: 24 80 80 86 03 27 10 1F  51 0A 01 0A 27 10 1F 51  $....'..Q...'..Q
0380: 0A 01 0D 01 EC 05 02 00  00 25 80 80 91 03 01 EC  .........%......
0390: 05 02 00 00 26 80 80 9C  03 01 EC 05 02 00 00 07  ....&...........
03A0: 80 80 A7 03 01 EC 05 02  00 00 27 80 80 CE 03 27  ..........'....'
03B0: 10 1F 51 0A 01 0B 27 10  1F 51 0A 01 0D 27 10 1F  ..Q...'..Q...'..
03C0: 51 0A 01 0A 27 10 1F 51  0A 01 0D 01 EC 05 02 00  Q...'..Q........
03D0: 00 28 80 80 D9 03 01 EC  05 02 00 00 29 80 80 E4  .(..........)...
03E0: 03 01 EC 05 02 00 00 00  80 80 EF 03 01 EC 05 02  ................
03F0: 00 00 2A 80 80 FA 03 01  EC 05 02 00 00 2B 80 80  ..*..........+..
0400: 05 04 01 EC 05 02 00 00  2C 80 80 1E 04 27 10 21  ........,....'.!
0410: 51 0A 01 06 27 10 21 51  0A 01 09 01 EC 05 02 00  Q...'.!Q........
0420: 00 2D 80 80 29 04 01 EC  05 02 00 00 2E 80 80 34  .-..)..........4
0430: 04 01 EC 05 02 00 00 2F  80 80 3F 04 01 EC 05 02  ......./..?.....
0440: 00 00 30 80 80 4A 04 01  EC 05 02 00 00 31 80 80  ..0..J.......1..
0450: 5C 04 27 10 21 51 0A 01  0B 01 EC 05 02 00 00 32  \.'.!Q.........2
0460: 80 80 7C 04 27 10 21 51  0A 01 02 27 10 20 51 0A  ..|.'.!Q...'. Q.
0470: 01 07 27 10 20 51 0A 01  08 01 EC 05 02 00 00 33  ..'. Q.........3
0480: 80 80 87 04 01 EC 05 02  00 00 17 80 80 C5 04 27  ...............'
0490: 10 21 51 0A 01 08 27 10  21 51 0A 01 03 4A 21 51  .!Q...'.!Q...J!Q
04A0: 0A 01 20 51 0A 01 6F 76  21 51 0A 01 27 10 20 51  .. Q..ov!Q..'. Q
04B0: 0A 01 0A 4A 20 51 0A 01  22 51 0A 01 6F 76 20 51  ...J Q.."Q..ov Q
04C0: 0A 01 01 EC 05 02 00 00  34 80 80 D0 04 01 EC 05  ........4.......
04D0: 02 00 00 35 80 80 E9 04  27 10 20 51 0A 01 0D 27  ...5....'. Q...'
04E0: 10 20 51 0A 01 0E 01 EC  05 02 00 00 36 80 80 09  . Q.........6...
04F0: 05 4A 21 51 0A 01 F0 FF  FF 7F 7B 21 51 0A 01 27  .J!Q......{!Q..'
0500: 10 21 51 0A 01 0E 01 EC  05 02 00 00 37 80 80 29  .!Q.........7..)
0510: 05 27 10 20 51 0A 01 0F  59 05 20 51 0A 01 01 27  .'. Q...Y. Q...'
0520: 10 20 51 0A 01 10 01 EC  05 02 00 00 38 80 80 34  . Q.........8..4
0530: 05 01 EC 05 02 00 00 39  80 80 64 05 27 10 22 51  .......9..d.'."Q
0540: 0A 01 03 27 10 22 51 0A  01 09 27 10 21 51 0A 01  ...'."Q...'.!Q..
0550: 02 27 10 21 51 0A 01 0F  4A 22 51 0A 01 F0 FF FF  .'.!Q...J"Q.....
0560: 7F 01 EC 05 02 00 00 3A  80 80 7D 05 27 10 22 51  .......:..}.'."Q
0570: 0A 01 07 27 10 22 51 0A  01 08 01 EC 05 02 00 00  ...'."Q.........
0580: 3B 80 80 88 05 01 EC 05  02 00 00 3C 80 80 9A 05  ;..........<....
0590: 27 10 22 51 0A 01 0A 01  EC 05 02 00 00 3D 80 80  '."Q.........=..
05A0: C1 05 27 10 23 51 0A 01  05 27 10 24 51 0A 01 05  ..'.#Q...'.$Q...
05B0: 27 10 23 51 0A 01 06 29  10 24 51 0A 01 06 01 EC  '.#Q...).$Q.....
05C0: 05 02 00 00 3E 80 80 CC  05 01 EC 05 02 00 00 19  ....>...........
05D0: 80 80 D7 05 01 EC 05 02  00 00 3F 80 80 EC 05 27  ..........?....'
05E0: 10 F0 FF FF 7F 1E 1A 3B  1D 01 EC 05 07 00 00 18  .......;........
05F0: 80 01 07 02 03 00 00 18  80 02 00 00 19 80 05 14  ................
0600: 06 02 01 80 00 00 05 0C  06 1A 58 06 07 00 00 18  ..........X.....
0610: 80 01 F9 05 27 10 F0 FF  FF 7F 1F 27 10 22 51 0A  ....'......'."Q.
0620: 01 06 1C 40 80 5C 00 41  80 5C 01 41 80 5C 02 42  ...@.\.A.\.A.\.B
0630: 80 5C 03 42 80 9A 46 00  45 43 80 F0 FF FF 7F F0  .\.B..F.EC......
0640: FF FF 7F 66 64 69 32 01  80 21 00 02 01 80 18 80  ...fdi2..!......
0650: 00 57 06 48 44 80 23 1B  02 00 00 18 80 80 34 07  .W.HD.#.......4.
0660: 27 10 F0 FF FF 7F 1B 27  10 1F 51 0A 01 01 45 45  '......'..Q...EE
0670: 80 F0 FF FF 7F F0 FF FF  7F 6F 30 30 31 01 80 1A  .........o001...
0680: 1A 1D 1C 02 80 2B 15 51  0A 01 46 80 2A 10 F0 FF  .....+.Q..F.*...
0690: FF 7F 79 02 F0 FF FF 7F  01 80 47 80 1C 17 80 27  ..y.......G....'
06A0: 10 1F 51 0A 01 02 27 10  1F 51 0A 01 05 1C 17 80  ..Q...'..Q......
06B0: 79 02 F0 FF FF 7F 01 80  47 80 59 01 F0 FF FF 7F  y.......G.Y.....
06C0: 3D 80 4A F0 FF FF 7F 1F  51 0A 01 7B F0 FF FF 7F  =.J.....Q..{....
06D0: 1C 40 80 79 00 F0 FF FF  7F 1F 51 0A 01 2A 10 1F  .@.y......Q..*..
06E0: 51 0A 01 4A 1F 51 0A 01  F0 FF FF 7F 6F 76 1F 51  Q..J.Q......ov.Q
06F0: 0A 01 79 00 1F 51 0A 01  F0 FF FF 7F 27 10 1F 51  ..y..Q......'..Q
0700: 0A 01 0B 2B 1F 51 0A 01  44 80 23 29 10 1F 51 0A  ...+.Q..D.#)..Q.
0710: 01 0D 5C 00 48 80 5C 01  48 80 9A 52 45 80 F0 FF  ..\.H.\.H..RE...
0720: FF 7F F0 FF FF 7F 6F 30  30 31 59 05 F0 FF FF 7F  ......o001Y.....
0730: 00 01 2A 11 02 00 00 1A  80 80 7A 07 45 45 80 F0  ..*.......z.EE..
0740: FF FF 7F F0 FF FF 7F 6F  30 30 32 01 80 7B 1F 51  .......o002..{.Q
0750: 0A 01 27 10 1F 51 0A 01  0A 2B 1F 51 0A 01 49 80  ..'..Q...+.Q..I.
0760: 23 29 10 1F 51 0A 01 0D  52 45 80 F0 FF FF 7F F0  #)..Q...RE......
0770: FF FF 7F 6F 30 30 32 01  2A 11 02 00 00 1B 80 80  ...o002.*.......
0780: C4 07 45 45 80 F0 FF FF  7F F0 FF FF 7F 6F 30 30  ..EE.........o00
0790: 33 01 80 1C 17 80 27 10  F0 FF FF 7F 1D 27 10 1F  3.....'......'..
07A0: 51 0A 01 06 2B 1F 51 0A  01 4A 80 23 2A 10 1F 51  Q...+.Q..J.#*..Q
07B0: 0A 01 52 45 80 F0 FF FF  7F F0 FF FF 7F 6F 30 30  ..RE.........o00
07C0: 33 01 2A 11 02 00 00 1C  80 80 FC 07 45 45 80 F0  3.*.........EE..
07D0: FF FF 7F F0 FF FF 7F 6F  30 30 34 01 80 5D 01 80  .......o004..]..
07E0: 40 80 2B 1F 51 0A 01 4B  80 23 52 45 80 F0 FF FF  @.+.Q..K.#RE....
07F0: 7F F0 FF FF 7F 6F 30 30  34 01 2A 11 02 00 00 1D  .....o004.*.....
0800: 80 80 39 08 45 45 80 F0  FF FF 7F F0 FF FF 7F 6F  ..9.EE.........o
0810: 30 30 35 01 80 2B 1F 51  0A 01 4C 80 23 27 10 20  005..+.Q..L.#'. 
0820: 51 0A 01 05 1C 02 80 52  45 80 F0 FF FF 7F F0 FF  Q......RE.......
0830: FF 7F 6F 30 30 35 01 2A  11 02 00 00 1E 80 80 A1  ..o005.*........
0840: 08 45 45 80 F0 FF FF 7F  F0 FF FF 7F 6F 30 30 36  .EE.........o006
0850: 01 80 4A 1F 51 0A 01 21  51 0A 01 4A F0 FF FF 7F  ..J.Q..!Q..J....
0860: 21 51 0A 01 79 00 F0 FF  FF 7F 21 51 0A 01 1C 17  !Q..y.....!Q....
0870: 80 1C 4D 80 2B 15 51 0A  01 4E 80 27 10 20 51 0A  ..M.+.Q..N.'. Q.
0880: 01 04 27 10 20 51 0A 01  0C 1C 40 80 1C 4F 80 55  ..'. Q....@..O.U
0890: 45 80 F0 FF FF 7F F0 FF  FF 7F 6F 30 30 36 01 2A  E.........o006.*
08A0: 11 02 00 00 1F 80 80 E2  08 45 45 80 F0 FF FF 7F  .........EE.....
08B0: F0 FF FF 7F 6F 30 30 37  01 80 27 10 1F 51 0A 01  ....o007..'..Q..
08C0: 0A 2B 1F 51 0A 01 50 80  23 27 10 1F 51 0A 01 0D  .+.Q..P.#'..Q...
08D0: 52 45 80 F0 FF FF 7F F0  FF FF 7F 6F 30 30 37 01  RE.........o007.
08E0: 2A 11 02 00 00 20 80 80  38 09 45 45 80 F0 FF FF  *.... ..8.EE....
08F0: 7F F0 FF FF 7F 6F 30 30  38 01 80 27 10 21 51 0A  .....o008..'.!Q.
0900: 01 03 27 10 21 51 0A 01  0D 1C 22 80 27 10 20 51  ..'.!Q....".'. Q
0910: 0A 01 03 1C 51 80 2B 15  51 0A 01 52 80 2A 10 21  ....Q.+.Q..R.*.!
0920: 51 0A 01 1C 17 80 55 45  80 F0 FF FF 7F F0 FF FF  Q.....UE........
0930: 7F 6F 30 30 38 01 2A 11  02 00 00 21 80 80 81 09  .o008.*....!....
0940: 45 45 80 F0 FF FF 7F F0  FF FF 7F 6F 30 30 39 01  EE.........o009.
0950: 80 27 10 20 51 0A 01 04  2B 1F 51 0A 01 53 80 23  .'. Q...+.Q..S.#
0960: 2A 10 1F 51 0A 01 5C 00  51 80 5C 01 51 80 9A 52  *..Q..\.Q.\.Q..R
0970: 45 80 F0 FF FF 7F F0 FF  FF 7F 6F 30 30 39 01 2A  E.........o009.*
0980: 11 02 00 00 22 80 80 B4  09 45 45 80 F0 FF FF 7F  ...."....EE.....
0990: F0 FF FF 7F 6F 30 30 61  01 80 2B 21 51 0A 01 54  ....o00a..+!Q..T
09A0: 80 23 52 45 80 F0 FF FF  7F F0 FF FF 7F 6F 30 30  .#RE.........o00
09B0: 61 01 2A 11 02 00 00 23  80 80 F5 09 45 45 80 F0  a.*....#....EE..
09C0: FF FF 7F F0 FF FF 7F 6F  30 30 62 01 80 27 10 1F  .......o00b..'..
09D0: 51 0A 01 0A 2B 1F 51 0A  01 55 80 23 27 10 1F 51  Q...+.Q..U.#'..Q
09E0: 0A 01 0D 52 45 80 F0 FF  FF 7F F0 FF FF 7F 6F 30  ...RE.........o0
09F0: 30 62 01 2A 11 02 00 00  24 80 80 5F 0A 45 45 80  0b.*....$.._.EE.
0A00: F0 FF FF 7F F0 FF FF 7F  6F 30 30 63 01 80 27 10  ........o00c..'.
0A10: 20 51 0A 01 06 2B 21 51  0A 01 56 80 23 2B 21 51   Q...+!Q..V.#+!Q
0A20: 0A 01 57 80 23 52 45 80  F0 FF FF 7F F0 FF FF 7F  ..W.#RE.........
0A30: 6F 30 30 63 45 45 80 F0  FF FF 7F F0 FF FF 7F 6F  o00cEE.........o
0A40: 30 31 63 01 80 2B 21 51  0A 01 58 80 23 52 45 80  01c..+!Q..X.#RE.
0A50: F0 FF FF 7F F0 FF FF 7F  6F 30 31 63 01 2A 11 02  ........o01c.*..
0A60: 00 00 25 80 80 6A 0A 01  2A 11 02 00 00 26 80 80  ..%..j..*....&..
0A70: 75 0A 01 2A 11 02 00 00  07 80 80 CC 0A 45 45 80  u..*.........EE.
0A80: F0 FF FF 7F F0 FF FF 7F  6F 30 30 66 01 80 27 10  ........o00f..'.
0A90: 1F 51 0A 01 0B 2B 1F 51  0A 01 59 80 23 29 10 1F  .Q...+.Q..Y.#)..
0AA0: 51 0A 01 0D 27 10 1F 51  0A 01 0A 2B 1F 51 0A 01  Q...'..Q...+.Q..
0AB0: 5A 80 23 27 10 1F 51 0A  01 0D 52 45 80 F0 FF FF  Z.#'..Q...RE....
0AC0: 7F F0 FF FF 7F 6F 30 30  66 01 2A 11 02 00 00 27  .....o00f.*....'
0AD0: 80 80 D7 0A 01 2A 11 02  00 00 28 80 80 22 0B 45  .....*....(..".E
0AE0: 45 80 F0 FF FF 7F F0 FF  FF 7F 6F 30 30 68 01 80  E.........o00h..
0AF0: 2B 21 51 0A 01 5B 80 23  2B 21 51 0A 01 5C 80 23  +!Q..[.#+!Q..\.#
0B00: 2B 21 51 0A 01 5D 80 23  2B 21 51 0A 01 5E 80 23  +!Q..].#+!Q..^.#
0B10: 52 45 80 F0 FF FF 7F F0  FF FF 7F 6F 30 30 68 01  RE.........o00h.
0B20: 2A 11 02 00 00 29 80 80  2D 0B 01 2A 11 02 00 00  *....)..-..*....
0B30: 00 80 80 38 0B 01 2A 11  02 00 00 2A 80 80 43 0B  ...8..*....*..C.
0B40: 01 2A 11 02 00 00 2B 80  80 95 0B 45 45 80 F0 FF  .*....+....EE...
0B50: FF 7F F0 FF FF 7F 6F 30  30 6C 01 80 1C 3D 80 27  ......o00l...=.'
0B60: 10 21 51 0A 01 06 2B 21  51 0A 01 5F 80 23 2A 10  .!Q...+!Q.._.#*.
0B70: 21 51 0A 01 27 10 21 51  0A 01 09 2B 21 51 0A 01  !Q..'.!Q...+!Q..
0B80: 60 80 23 52 45 80 F0 FF  FF 7F F0 FF FF 7F 6F 30  `.#RE.........o0
0B90: 30 6C 01 2A 11 02 00 00  2C 80 80 A0 0B 01 2A 11  0l.*....,.....*.
0BA0: 02 00 00 2D 80 80 DB 0B  45 45 80 F0 FF FF 7F F0  ...-....EE......
0BB0: FF FF 7F 6F 30 30 6E 01  80 2B 21 51 0A 01 61 80  ...o00n..+!Q..a.
0BC0: 23 2B 21 51 0A 01 62 80  23 52 45 80 F0 FF FF 7F  #+!Q..b.#RE.....
0BD0: F0 FF FF 7F 6F 30 30 6E  01 2A 11 02 00 00 2E 80  ....o00n.*......
0BE0: 80 E6 0B 01 2A 11 02 00  00 2F 80 80 F1 0B 01 2A  ....*..../.....*
0BF0: 11 02 00 00 30 80 80 3C  0C 45 45 80 F0 FF FF 7F  ....0..<.EE.....
0C00: F0 FF FF 7F 6F 30 30 71  01 80 2B 21 51 0A 01 63  ....o00q..+!Q..c
0C10: 80 23 1C 3D 80 27 10 21  51 0A 01 0B 2B 21 51 0A  .#.=.'.!Q...+!Q.
0C20: 01 64 80 23 2A 10 21 51  0A 01 52 45 80 F0 FF FF  .d.#*.!Q..RE....
0C30: 7F F0 FF FF 7F 6F 30 30  71 01 2A 11 02 00 00 31  .....o00q.*....1
0C40: 80 80 8F 0C 27 10 21 51  0A 01 02 45 45 80 F0 FF  ....'.!Q...EE...
0C50: FF 7F F0 FF FF 7F 6F 30  30 72 01 80 1C 38 80 27  ......o00r...8.'
0C60: 10 20 51 0A 01 07 2B 20  51 0A 01 65 80 23 2B 20  . Q...+ Q..e.#+ 
0C70: 51 0A 01 66 80 23 27 10  20 51 0A 01 08 52 45 80  Q..f.#'. Q...RE.
0C80: F0 FF FF 7F F0 FF FF 7F  6F 30 30 72 01 2A 11 02  ........o00r.*..
0C90: 00 00 32 80 80 9A 0C 01  2A 11 02 00 00 33 80 80  ..2.....*....3..
0CA0: 1C 0D 27 10 21 51 0A 01  08 27 10 21 51 0A 01 03  ..'.!Q...'.!Q...
0CB0: 1C 1B 80 45 45 80 F0 FF  FF 7F F0 FF FF 7F 6F 30  ...EE.........o0
0CC0: 30 74 01 80 1C 17 80 4A  21 51 0A 01 20 51 0A 01  0t.....J!Q.. Q..
0CD0: 6F 76 21 51 0A 01 1C 07  80 5D 01 80 40 80 2B 21  ov!Q.....]..@.+!
0CE0: 51 0A 01 67 80 23 27 10  20 51 0A 01 0A 1C 40 80  Q..g.#'. Q....@.
0CF0: 4A 20 51 0A 01 22 51 0A  01 6F 76 20 51 0A 01 1C  J Q.."Q..ov Q...
0D00: 17 80 2B 22 51 0A 01 68  80 23 52 45 80 F0 FF FF  ..+"Q..h.#RE....
0D10: 7F F0 FF FF 7F 6F 30 30  74 01 2A 11 02 00 00 17  .....o00t.*.....
0D20: 80 80 27 0D 01 2A 11 02  00 00 34 80 80 7C 0D 45  ..'..*....4..|.E
0D30: 45 80 F0 FF FF 7F F0 FF  FF 7F 6F 30 30 76 01 80  E.........o00v..
0D40: 1C 3D 80 27 10 20 51 0A  01 0D 2B 20 51 0A 01 69  .=.'. Q...+ Q..i
0D50: 80 23 2A 10 20 51 0A 01  1C 17 80 27 10 20 51 0A  .#*. Q.....'. Q.
0D60: 01 0E 2B 20 51 0A 01 6A  80 23 52 45 80 F0 FF FF  ..+ Q..j.#RE....
0D70: 7F F0 FF FF 7F 6F 30 30  76 01 2A 11 02 00 00 35  .....o00v.*....5
0D80: 80 80 34 0E 4A 21 51 0A  01 F0 FF FF 7F 7B 21 51  ..4.J!Q......{!Q
0D90: 0A 01 6F 76 21 51 0A 01  1C 07 80 45 45 80 F0 FF  ..ov!Q.....EE...
0DA0: FF 7F F0 FF FF 7F 6F 30  31 77 01 80 2B 21 51 0A  ......o01w..+!Q.
0DB0: 01 6B 80 23 5C 80 6C 80  6D 80 5C 81 6C 80 6D 80  .k.#\.l.m.\.l.m.
0DC0: 5C 82 6C 80 6D 80 5C 83  6C 80 6D 80 9A 55 45 80  \.l.m.\.l.m..UE.
0DD0: F0 FF FF 7F F0 FF FF 7F  6F 30 31 77 45 45 80 F0  ........o01wEE..
0DE0: FF FF 7F F0 FF FF 7F 6F  30 30 77 01 80 27 10 21  .......o00w..'.!
0DF0: 51 0A 01 0E 2A 10 21 51  0A 01 55 45 80 F0 FF FF  Q...*.!Q..UE....
0E00: 7F F0 FF FF 7F 6F 30 30  77 45 45 80 F0 FF FF 7F  .....o00wEE.....
0E10: F0 FF FF 7F 6F 30 30 78  01 80 2B 21 51 0A 01 6E  ....o00x..+!Q..n
0E20: 80 23 52 45 80 F0 FF FF  7F F0 FF FF 7F 6F 30 30  .#RE.........o00
0E30: 78 01 2A 11 02 00 00 36  80 80 74 0E 45 45 80 F0  x.*....6..t.EE..
0E40: FF FF 7F F0 FF FF 7F 6F  31 30 77 01 80 27 10 20  .......o10w..'. 
0E50: 51 0A 01 0F 59 05 20 51  0A 01 01 27 10 20 51 0A  Q...Y. Q...'. Q.
0E60: 01 10 55 45 80 F0 FF FF  7F F0 FF FF 7F 6F 31 30  ..UE.........o10
0E70: 77 01 2A 11 02 00 00 37  80 80 CF 0E 45 45 80 F0  w.*....7....EE..
0E80: FF FF 7F F0 FF FF 7F 6F  30 30 79 01 80 2B 1F 51  .......o00y..+.Q
0E90: 0A 01 6F 80 23 52 45 80  F0 FF FF 7F F0 FF FF 7F  ..o.#RE.........
0EA0: 6F 30 30 79 45 45 80 F0  FF FF 7F F0 FF FF 7F 6F  o00yEE.........o
0EB0: 31 30 79 01 80 2B 22 51  0A 01 70 80 23 52 45 80  10y..+"Q..p.#RE.
0EC0: F0 FF FF 7F F0 FF FF 7F  6F 31 30 79 01 2A 11 02  ........o10y.*..
0ED0: 00 00 38 80 80 27 0F 45  45 80 F0 FF FF 7F F0 FF  ..8..'.EE.......
0EE0: FF 7F 6F 32 30 79 01 80  27 10 22 51 0A 01 03 27  ..o20y..'."Q...'
0EF0: 10 22 51 0A 01 09 27 10  21 51 0A 01 02 27 10 21  ."Q...'.!Q...'.!
0F00: 51 0A 01 0F 4A 22 51 0A  01 F0 FF FF 7F 2B 22 51  Q...J"Q......+"Q
0F10: 0A 01 71 80 23 52 45 80  F0 FF FF 7F F0 FF FF 7F  ..q.#RE.........
0F20: 6F 32 30 79 01 2A 11 02  00 00 39 80 80 94 0F 45  o20y.*....9....E
0F30: 45 80 F0 FF FF 7F F0 FF  FF 7F 6F 30 31 31 01 80  E.........o011..
0F40: 2B 22 51 0A 01 72 80 23  27 10 22 51 0A 01 07 2B  +"Q..r.#'."Q...+
0F50: 22 51 0A 01 73 80 23 5B  74 80 23 51 0A 01 23 51  "Q..s.#[t.#Q..#Q
0F60: 0A 01 62 6B 61 6C 5B 74  80 24 51 0A 01 24 51 0A  ..bkal[t.$Q..$Q.
0F70: 01 62 6B 61 6C 2A 10 22  51 0A 01 29 10 22 51 0A  .bkal*."Q..)."Q.
0F80: 01 08 52 45 80 F0 FF FF  7F F0 FF FF 7F 6F 30 31  ..RE.........o01
0F90: 31 01 2A 11 02 00 00 3A  80 80 9F 0F 01 2A 11 02  1.*....:.....*..
0FA0: 00 00 3B 80 80 DF 0F 45  45 80 F0 FF FF 7F F0 FF  ..;....EE.......
0FB0: FF 7F 6F 30 31 33 01 80  27 10 22 51 0A 01 0A 2B  ..o013..'."Q...+
0FC0: 22 51 0A 01 75 80 23 2A  10 22 51 0A 01 52 45 80  "Q..u.#*."Q..RE.
0FD0: F0 FF FF 7F F0 FF FF 7F  6F 30 31 33 01 2A 11 02  ........o013.*..
0FE0: 00 00 3C 80 80 4F 10 45  45 80 F0 FF FF 7F F0 FF  ..<..O.EE.......
0FF0: FF 7F 6F 30 31 34 01 80  C5 76 80 22 51 0A 01 22  ..o014...v."Q.."
1000: 51 0A 01 6B 6C 73 30 01  80 2B 22 51 0A 01 77 80  Q..kls0..+"Q..w.
1010: 45 45 80 F0 FF FF 7F F0  FF FF 7F 73 6D 6E 30 01  EE.........smn0.
1020: 80 27 10 23 51 0A 01 05  27 10 24 51 0A 01 05 27  .'.#Q...'.$Q...'
1030: 10 23 51 0A 01 06 29 10  24 51 0A 01 06 55 45 80  .#Q...).$Q...UE.
1040: F0 FF FF 7F F0 FF FF 7F  6F 30 31 34 01 2A 11 02  ........o014.*..
1050: 00 00 3D 80 80 82 10 45  45 80 F0 FF FF 7F F0 FF  ..=....EE.......
1060: FF 7F 6F 30 31 35 01 80  2B 22 51 0A 01 78 80 23  ..o015..+"Q..x.#
1070: 52 45 80 F0 FF FF 7F F0  FF FF 7F 6F 30 31 35 01  RE.........o015.
1080: 2A 11 02 00 00 3E 80 80  B5 10 45 45 80 F0 FF FF  *....>....EE....
1090: 7F F0 FF FF 7F 6F 30 31  36 01 80 2B 22 51 0A 01  .....o016..+"Q..
10A0: 79 80 23 55 45 80 F0 FF  FF 7F F0 FF FF 7F 6F 30  y.#UE.........o0
10B0: 31 36 01 2A 11 02 00 00  19 80 80 2A 11 45 45 80  16.*.......*.EE.
10C0: F0 FF FF 7F F0 FF FF 7F  6F 30 31 37 01 80 2B 22  ........o017..+"
10D0: 51 0A 01 7A 80 27 10 F0  FF FF 7F 1E 1C 7B 80 1A  Q..z.'.......{..
10E0: 3B 1D 1C 40 80 C5 7C 80  21 51 0A 01 21 51 0A 01  ;..@..|.!Q..!Q..
10F0: 6B 6C 73 30 01 80 C5 76  80 22 51 0A 01 22 51 0A  kls0...v."Q.."Q.
1100: 01 6B 6C 73 31 01 80 52  45 80 F0 FF FF 7F F0 FF  .kls1..RE.......
1110: FF 7F 6F 30 31 37 45 45  80 F0 FF FF 7F F0 FF FF  ..o017EE........
1120: 7F 30 62 6C 66 01 80 01  2A 11 1B                 .0blf...*..     
```

#### Opcodes

```
  0: 0x0001 [0x42] SET_CLI_EVENT_CANCEL_DATA()
  1: 0x0002 [0x1A] CALL_SUBROUTINE(address=0x1D3B)
  2: 0x0005 [0x46] CAMERA_CONTROL: Disable user control
  3: 0x0007 [0x38] SET_CLIENT_EVENT_MODE(mode=19*)
  4: 0x000A [0x5D] SET_MUSIC_VOLUME(volume=0*, fade_time=120*)
  5: 0x000F [0x27] REQ_SET(priority=0x10, entity_id=LocalPlayer, tag_num=0x1A)
  6: 0x0016 [0x27] REQ_SET(priority=0x10, entity_id=Moogle (ID: 17453343/0x010A511F), tag_num=0x03)
  7: 0x001D [0x27] REQ_SET(priority=0x10, entity_id=Toto Kupeliaure (ID: 17453344/0x010A5120), tag_num=0x02)
  8: 0x0024 [0x27] REQ_SET(priority=0x10, entity_id=Riko Kupenreich (ID: 17453345/0x010A5121), tag_num=0x01)
  9: 0x002B [0x27] REQ_SET(priority=0x10, entity_id=Riko Kupenreich (ID: 17453346/0x010A5122), tag_num=0x01)
 10: 0x0032 [0x27] REQ_SET(priority=0x10, entity_id=1 (ID: 17453347/0x010A5123), tag_num=0x01)
 11: 0x0039 [0x27] REQ_SET(priority=0x10, entity_id=2 (ID: 17453348/0x010A5124), tag_num=0x01)
 12: 0x0040 [0x59] UPDATE_ENTITY_DATA: 1 (ID: 17453347/0x010A5123)->Render.Flags0 |= 0x200000
 13: 0x0047 [0x59] UPDATE_ENTITY_DATA: 2 (ID: 17453348/0x010A5124)->Render.Flags0 |= 0x200000
 14: 0x004E [0xBA] SET_ENTITY_POSITION(entity_id=LocalPlayer, pos_x=-432.308*, pos_z=-240.012*, pos_y=-167.101*, direction=179.9°*)
 15: 0x005B [0x80] LOAD_WAIT(entity=LocalPlayer)
 16: 0x0060 [0x1C] WAIT(15* ticks)
 17: 0x0063 [0x27] REQ_SET(priority=0x10, entity_id=Ore Door (ID: 17453302/0x010A50F6), tag_num=0x05)
 18: 0x006A [0x45] LOAD_SCHEDULED_TASK: Load scheduler "sg0w" with entities [LocalPlayer, LocalPlayer], work=[65*, 0*]
 19: 0x007B [0x1A] CALL_SUBROUTINE(address=0x1D1A)
 20: 0x007E [0x2A] GET_REQ_LEVEL(level=16, entity_id=Ore Door (ID: 17453302/0x010A50F6))
 21: 0x0084 [0x27] REQ_SET(priority=0x10, entity_id=LocalPlayer, tag_num=0x14)
 22: 0x008B [0x1C] WAIT(210* ticks)
 23: 0x008E [0x29] REQ_SET_WAIT(priority=0x10, entity_id=Ore Door (ID: 17453302/0x010A50F6), tag_num=0x06)
 24: 0x0095 [0x1A] CALL_SUBROUTINE(address=0x1D3B)
 25: 0x0098 [0x1C] WAIT(120* ticks)
 26: 0x009B [0x7A] VM_CONTROL: Reset VM for LocalPlayer
 27: 0x00A1 [0x52] END_LOAD_SCHEDULER: End scheduler "sg0w" with entities [LocalPlayer, LocalPlayer], work=65*
 28: 0x00B0 [0x59] UPDATE_ENTITY_DATA: LocalPlayer->Render.Flags0 |= 0x200000
 29: 0x00B7 [0xBA] SET_ENTITY_POSITION(entity_id=LocalPlayer, pos_x=-452.550*, pos_z=-240.000*, pos_y=-167.150*, direction=0.0°*)
 30: 0x00C4 [0xBA] SET_ENTITY_POSITION(entity_id=Moogle (ID: 17453343/0x010A511F), pos_x=-447.615*, pos_z=-241.000*, pos_y=-167.199*, direction=0.0°*)
 31: 0x00D1 [0xBA] SET_ENTITY_POSITION(entity_id=Toto Kupeliaure (ID: 17453344/0x010A5120), pos_x=-480.000*, pos_z=-241.000*, pos_y=-167.200*, direction=0.0°*)
 32: 0x00DE [0xBA] SET_ENTITY_POSITION(entity_id=Riko Kupenreich (ID: 17453345/0x010A5121), pos_x=-481.500*, pos_z=-240.000*, pos_y=-167.200*, direction=0.0°*)
 33: 0x00EB [0xBA] SET_ENTITY_POSITION(entity_id=Riko Kupenreich (ID: 17453346/0x010A5122), pos_x=-481.500*, pos_z=-240.000*, pos_y=-167.200*, direction=0.0°*)
 34: 0x00F8 [0xBA] SET_ENTITY_POSITION(entity_id=1 (ID: 17453347/0x010A5123), pos_x=-475.500*, pos_z=-243.000*, pos_y=-173.000*, direction=0.0°*)
 35: 0x0105 [0xBA] SET_ENTITY_POSITION(entity_id=2 (ID: 17453348/0x010A5124), pos_x=-475.500*, pos_z=-237.000*, pos_y=-173.000*, direction=0.0°*)
 36: 0x0112 [0x80] LOAD_WAIT(entity=LocalPlayer)
 37: 0x0117 [0x80] LOAD_WAIT(entity=Moogle (ID: 17453343/0x010A511F))
 38: 0x011C [0x80] LOAD_WAIT(entity=Toto Kupeliaure (ID: 17453344/0x010A5120))
 39: 0x0121 [0x80] LOAD_WAIT(entity=Riko Kupenreich (ID: 17453345/0x010A5121))
 40: 0x0126 [0x80] LOAD_WAIT(entity=Riko Kupenreich (ID: 17453346/0x010A5122))
 41: 0x012B [0x80] LOAD_WAIT(entity=1 (ID: 17453347/0x010A5123))
 42: 0x0130 [0x80] LOAD_WAIT(entity=2 (ID: 17453348/0x010A5124))
 43: 0x0135 [0x1C] WAIT(15* ticks)
 44: 0x0138 [0x4A] LocalPlayer looks at Riko Kupenreich (ID: 17453346/0x010A5122)
 45: 0x0141 [0x4A] Moogle (ID: 17453343/0x010A511F) looks at LocalPlayer
 46: 0x014A [0x4A] Toto Kupeliaure (ID: 17453344/0x010A5120) looks at LocalPlayer
 47: 0x0153 [0x4A] Riko Kupenreich (ID: 17453345/0x010A5121) looks at LocalPlayer
 48: 0x015C [0x4A] Riko Kupenreich (ID: 17453346/0x010A5122) looks at LocalPlayer
 49: 0x0165 [0x4A] 1 (ID: 17453347/0x010A5123) looks at LocalPlayer
 50: 0x016E [0x4A] 2 (ID: 17453348/0x010A5124) looks at LocalPlayer
 51: 0x0177 [0x6F] WAIT_FRAME_DELAY: Yield until WaitTime reaches zero
 52: 0x0178 [0x76] CHECK_ENTITY_RENDER_FLAGS: Wait until LocalPlayer Render.Flags0 and Render.Flags3 conditions are met
 53: 0x017D [0x6F] WAIT_FRAME_DELAY: Yield until WaitTime reaches zero
 54: 0x017E [0x76] CHECK_ENTITY_RENDER_FLAGS: Wait until Moogle (ID: 17453343/0x010A511F) Render.Flags0 and Render.Flags3 conditions are met
 55: 0x0183 [0x6F] WAIT_FRAME_DELAY: Yield until WaitTime reaches zero
 56: 0x0184 [0x76] CHECK_ENTITY_RENDER_FLAGS: Wait until Toto Kupeliaure (ID: 17453344/0x010A5120) Render.Flags0 and Render.Flags3 conditions are met
 57: 0x0189 [0x6F] WAIT_FRAME_DELAY: Yield until WaitTime reaches zero
 58: 0x018A [0x76] CHECK_ENTITY_RENDER_FLAGS: Wait until Riko Kupenreich (ID: 17453345/0x010A5121) Render.Flags0 and Render.Flags3 conditions are met
 59: 0x018F [0x6F] WAIT_FRAME_DELAY: Yield until WaitTime reaches zero
 60: 0x0190 [0x76] CHECK_ENTITY_RENDER_FLAGS: Wait until Riko Kupenreich (ID: 17453346/0x010A5122) Render.Flags0 and Render.Flags3 conditions are met
 61: 0x0195 [0x6F] WAIT_FRAME_DELAY: Yield until WaitTime reaches zero
 62: 0x0196 [0x76] CHECK_ENTITY_RENDER_FLAGS: Wait until 1 (ID: 17453347/0x010A5123) Render.Flags0 and Render.Flags3 conditions are met
 63: 0x019B [0x6F] WAIT_FRAME_DELAY: Yield until WaitTime reaches zero
 64: 0x019C [0x76] CHECK_ENTITY_RENDER_FLAGS: Wait until 2 (ID: 17453348/0x010A5124) Render.Flags0 and Render.Flags3 conditions are met
 65: 0x01A1 [0x1C] WAIT(15* ticks)
 66: 0x01A4 [0x7B] LocalPlayer stops talking
 67: 0x01A9 [0x7B] Moogle (ID: 17453343/0x010A511F) stops talking
 68: 0x01AE [0x7B] Toto Kupeliaure (ID: 17453344/0x010A5120) stops talking
 69: 0x01B3 [0x7B] Riko Kupenreich (ID: 17453345/0x010A5121) stops talking
 70: 0x01B8 [0x7B] Riko Kupenreich (ID: 17453346/0x010A5122) stops talking
 71: 0x01BD [0x7B] 1 (ID: 17453347/0x010A5123) stops talking
 72: 0x01C2 [0x7B] 2 (ID: 17453348/0x010A5124) stops talking
 73: 0x01C7 [0x27] REQ_SET(priority=0x10, entity_id=Toto Kupeliaure (ID: 17453344/0x010A5120), tag_num=0x0B)
 74: 0x01CE [0x27] REQ_SET(priority=0x10, entity_id=Riko Kupenreich (ID: 17453345/0x010A5121), tag_num=0x0C)
 75: 0x01D5 [0x27] REQ_SET(priority=0x10, entity_id=Toto Kupeliaure (ID: 17453344/0x010A5120), tag_num=0x03)
 76: 0x01DC [0x27] REQ_SET(priority=0x10, entity_id=Riko Kupenreich (ID: 17453345/0x010A5121), tag_num=0x02)
 77: 0x01E3 [0x27] REQ_SET(priority=0x10, entity_id=Riko Kupenreich (ID: 17453346/0x010A5122), tag_num=0x02)
 78: 0x01EA [0x27] REQ_SET(priority=0x10, entity_id=1 (ID: 17453347/0x010A5123), tag_num=0x02)
 79: 0x01F1 [0x27] REQ_SET(priority=0x10, entity_id=2 (ID: 17453348/0x010A5124), tag_num=0x02)
 80: 0x01F8 [0x27] REQ_SET(priority=0x10, entity_id=Riko Kupenreich (ID: 17453346/0x010A5122), tag_num=0x06)
 81: 0x01FF [0x1C] WAIT(30* ticks)
 82: 0x0202 [0x03] ExtData[1]->WorkLocal[0] = 1*
 83: 0x0207 [0x02] IF !(ExtData[1]->WorkLocal[0] > 42*) GOTO 0x05F4
 84: 0x020F [0x02] IF !(0* < ExtData[1]->WorkLocal[0]) GOTO 0x05EC
 85: 0x0217 [0x02] IF !(ExtData[1]->WorkLocal[0] == 2*) GOTO 0x0287
 86: 0x021F [0x27] REQ_SET(priority=0x10, entity_id=LocalPlayer, tag_num=0x1B)
 87: 0x0226 [0x27] REQ_SET(priority=0x10, entity_id=Moogle (ID: 17453343/0x010A511F), tag_num=0x01)
 88: 0x022D [0x1A] CALL_SUBROUTINE(address=0x1D1A)
 89: 0x0230 [0x27] REQ_SET(priority=0x10, entity_id=Moogle (ID: 17453343/0x010A511F), tag_num=0x02)
 90: 0x0237 [0x27] REQ_SET(priority=0x10, entity_id=Moogle (ID: 17453343/0x010A511F), tag_num=0x05)
 91: 0x023E [0x4A] LocalPlayer looks at Moogle (ID: 17453343/0x010A511F)
 92: 0x0247 [0x7B] LocalPlayer stops talking
 93: 0x024C [0x79] LocalPlayer looks at Moogle (ID: 17453343/0x010A511F) (Basic look)
 94: 0x0256 [0x4A] Moogle (ID: 17453343/0x010A511F) looks at LocalPlayer
 95: 0x025F [0x6F] WAIT_FRAME_DELAY: Yield until WaitTime reaches zero
 96: 0x0260 [0x76] CHECK_ENTITY_RENDER_FLAGS: Wait until Moogle (ID: 17453343/0x010A511F) Render.Flags0 and Render.Flags3 conditions are met
 97: 0x0265 [0x79] Moogle (ID: 17453343/0x010A511F) looks at LocalPlayer (Basic look)
 98: 0x026F [0x27] REQ_SET(priority=0x10, entity_id=Moogle (ID: 17453343/0x010A511F), tag_num=0x0B)
 99: 0x0276 [0x27] REQ_SET(priority=0x10, entity_id=Moogle (ID: 17453343/0x010A511F), tag_num=0x0D)
100: 0x027D [0x59] UPDATE_ENTITY_DATA: LocalPlayer->Render.Flags0 &= ~0x200000
101: 0x0284 [0x01] GOTO 0x05EC
102: 0x0287 [0x02] IF !(ExtData[1]->WorkLocal[0] == 3*) GOTO 0x02A5
103: 0x028F [0x7B] Moogle (ID: 17453343/0x010A511F) stops talking
104: 0x0294 [0x27] REQ_SET(priority=0x10, entity_id=Moogle (ID: 17453343/0x010A511F), tag_num=0x0A)
105: 0x029B [0x27] REQ_SET(priority=0x10, entity_id=Moogle (ID: 17453343/0x010A511F), tag_num=0x0D)
106: 0x02A2 [0x01] GOTO 0x05EC
107: 0x02A5 [0x02] IF !(ExtData[1]->WorkLocal[0] == 4*) GOTO 0x02BE
108: 0x02AD [0x27] REQ_SET(priority=0x10, entity_id=LocalPlayer, tag_num=0x1D)
109: 0x02B4 [0x27] REQ_SET(priority=0x10, entity_id=Moogle (ID: 17453343/0x010A511F), tag_num=0x06)
110: 0x02BB [0x01] GOTO 0x05EC
111: 0x02BE [0x02] IF !(ExtData[1]->WorkLocal[0] == 5*) GOTO 0x02C9
112: 0x02C6 [0x01] GOTO 0x05EC
113: 0x02C9 [0x02] IF !(ExtData[1]->WorkLocal[0] == 6*) GOTO 0x02DB
114: 0x02D1 [0x27] REQ_SET(priority=0x10, entity_id=Toto Kupeliaure (ID: 17453344/0x010A5120), tag_num=0x05)
115: 0x02D8 [0x01] GOTO 0x05EC
116: 0x02DB [0x02] IF !(ExtData[1]->WorkLocal[0] == 7*) GOTO 0x0310
117: 0x02E3 [0x4A] Moogle (ID: 17453343/0x010A511F) looks at Riko Kupenreich (ID: 17453345/0x010A5121)
118: 0x02EC [0x4A] LocalPlayer looks at Riko Kupenreich (ID: 17453345/0x010A5121)
119: 0x02F5 [0x79] LocalPlayer looks at Riko Kupenreich (ID: 17453345/0x010A5121) (Basic look)
120: 0x02FF [0x27] REQ_SET(priority=0x10, entity_id=Toto Kupeliaure (ID: 17453344/0x010A5120), tag_num=0x04)
121: 0x0306 [0x27] REQ_SET(priority=0x10, entity_id=Toto Kupeliaure (ID: 17453344/0x010A5120), tag_num=0x0C)
122: 0x030D [0x01] GOTO 0x05EC
123: 0x0310 [0x02] IF !(ExtData[1]->WorkLocal[0] == 8*) GOTO 0x0329
124: 0x0318 [0x27] REQ_SET(priority=0x10, entity_id=Moogle (ID: 17453343/0x010A511F), tag_num=0x0A)
125: 0x031F [0x27] REQ_SET(priority=0x10, entity_id=Moogle (ID: 17453343/0x010A511F), tag_num=0x0D)
126: 0x0326 [0x01] GOTO 0x05EC
127: 0x0329 [0x02] IF !(ExtData[1]->WorkLocal[0] == 9*) GOTO 0x0350
128: 0x0331 [0x27] REQ_SET(priority=0x10, entity_id=Riko Kupenreich (ID: 17453345/0x010A5121), tag_num=0x03)
129: 0x0338 [0x27] REQ_SET(priority=0x10, entity_id=Riko Kupenreich (ID: 17453345/0x010A5121), tag_num=0x0D)
130: 0x033F [0x27] REQ_SET(priority=0x10, entity_id=Toto Kupeliaure (ID: 17453344/0x010A5120), tag_num=0x03)
131: 0x0346 [0x27] REQ_SET(priority=0x10, entity_id=Toto Kupeliaure (ID: 17453344/0x010A5120), tag_num=0x06)
132: 0x034D [0x01] GOTO 0x05EC
133: 0x0350 [0x02] IF !(ExtData[1]->WorkLocal[0] == 10*) GOTO 0x0362
134: 0x0358 [0x27] REQ_SET(priority=0x10, entity_id=Toto Kupeliaure (ID: 17453344/0x010A5120), tag_num=0x04)
135: 0x035F [0x01] GOTO 0x05EC
136: 0x0362 [0x02] IF !(ExtData[1]->WorkLocal[0] == 11*) GOTO 0x036D
137: 0x036A [0x01] GOTO 0x05EC
138: 0x036D [0x02] IF !(ExtData[1]->WorkLocal[0] == 12*) GOTO 0x0386
139: 0x0375 [0x27] REQ_SET(priority=0x10, entity_id=Moogle (ID: 17453343/0x010A511F), tag_num=0x0A)
140: 0x037C [0x27] REQ_SET(priority=0x10, entity_id=Moogle (ID: 17453343/0x010A511F), tag_num=0x0D)
141: 0x0383 [0x01] GOTO 0x05EC
142: 0x0386 [0x02] IF !(ExtData[1]->WorkLocal[0] == 13*) GOTO 0x0391
143: 0x038E [0x01] GOTO 0x05EC
144: 0x0391 [0x02] IF !(ExtData[1]->WorkLocal[0] == 14*) GOTO 0x039C
145: 0x0399 [0x01] GOTO 0x05EC
146: 0x039C [0x02] IF !(ExtData[1]->WorkLocal[0] == 15*) GOTO 0x03A7
147: 0x03A4 [0x01] GOTO 0x05EC
148: 0x03A7 [0x02] IF !(ExtData[1]->WorkLocal[0] == 16*) GOTO 0x03CE
149: 0x03AF [0x27] REQ_SET(priority=0x10, entity_id=Moogle (ID: 17453343/0x010A511F), tag_num=0x0B)
150: 0x03B6 [0x27] REQ_SET(priority=0x10, entity_id=Moogle (ID: 17453343/0x010A511F), tag_num=0x0D)
151: 0x03BD [0x27] REQ_SET(priority=0x10, entity_id=Moogle (ID: 17453343/0x010A511F), tag_num=0x0A)
152: 0x03C4 [0x27] REQ_SET(priority=0x10, entity_id=Moogle (ID: 17453343/0x010A511F), tag_num=0x0D)
153: 0x03CB [0x01] GOTO 0x05EC
154: 0x03CE [0x02] IF !(ExtData[1]->WorkLocal[0] == 17*) GOTO 0x03D9
155: 0x03D6 [0x01] GOTO 0x05EC
156: 0x03D9 [0x02] IF !(ExtData[1]->WorkLocal[0] == 18*) GOTO 0x03E4
157: 0x03E1 [0x01] GOTO 0x05EC
158: 0x03E4 [0x02] IF !(ExtData[1]->WorkLocal[0] == 19*) GOTO 0x03EF
159: 0x03EC [0x01] GOTO 0x05EC
160: 0x03EF [0x02] IF !(ExtData[1]->WorkLocal[0] == 20*) GOTO 0x03FA
161: 0x03F7 [0x01] GOTO 0x05EC
162: 0x03FA [0x02] IF !(ExtData[1]->WorkLocal[0] == 21*) GOTO 0x0405
163: 0x0402 [0x01] GOTO 0x05EC
164: 0x0405 [0x02] IF !(ExtData[1]->WorkLocal[0] == 22*) GOTO 0x041E
165: 0x040D [0x27] REQ_SET(priority=0x10, entity_id=Riko Kupenreich (ID: 17453345/0x010A5121), tag_num=0x06)
166: 0x0414 [0x27] REQ_SET(priority=0x10, entity_id=Riko Kupenreich (ID: 17453345/0x010A5121), tag_num=0x09)
167: 0x041B [0x01] GOTO 0x05EC
168: 0x041E [0x02] IF !(ExtData[1]->WorkLocal[0] == 23*) GOTO 0x0429
169: 0x0426 [0x01] GOTO 0x05EC
170: 0x0429 [0x02] IF !(ExtData[1]->WorkLocal[0] == 24*) GOTO 0x0434
171: 0x0431 [0x01] GOTO 0x05EC
172: 0x0434 [0x02] IF !(ExtData[1]->WorkLocal[0] == 25*) GOTO 0x043F
173: 0x043C [0x01] GOTO 0x05EC
174: 0x043F [0x02] IF !(ExtData[1]->WorkLocal[0] == 26*) GOTO 0x044A
175: 0x0447 [0x01] GOTO 0x05EC
176: 0x044A [0x02] IF !(ExtData[1]->WorkLocal[0] == 27*) GOTO 0x045C
177: 0x0452 [0x27] REQ_SET(priority=0x10, entity_id=Riko Kupenreich (ID: 17453345/0x010A5121), tag_num=0x0B)
178: 0x0459 [0x01] GOTO 0x05EC
179: 0x045C [0x02] IF !(ExtData[1]->WorkLocal[0] == 28*) GOTO 0x047C
180: 0x0464 [0x27] REQ_SET(priority=0x10, entity_id=Riko Kupenreich (ID: 17453345/0x010A5121), tag_num=0x02)
181: 0x046B [0x27] REQ_SET(priority=0x10, entity_id=Toto Kupeliaure (ID: 17453344/0x010A5120), tag_num=0x07)
182: 0x0472 [0x27] REQ_SET(priority=0x10, entity_id=Toto Kupeliaure (ID: 17453344/0x010A5120), tag_num=0x08)
183: 0x0479 [0x01] GOTO 0x05EC
184: 0x047C [0x02] IF !(ExtData[1]->WorkLocal[0] == 29*) GOTO 0x0487
185: 0x0484 [0x01] GOTO 0x05EC
186: 0x0487 [0x02] IF !(ExtData[1]->WorkLocal[0] == 30*) GOTO 0x04C5
187: 0x048F [0x27] REQ_SET(priority=0x10, entity_id=Riko Kupenreich (ID: 17453345/0x010A5121), tag_num=0x08)
188: 0x0496 [0x27] REQ_SET(priority=0x10, entity_id=Riko Kupenreich (ID: 17453345/0x010A5121), tag_num=0x03)
189: 0x049D [0x4A] Riko Kupenreich (ID: 17453345/0x010A5121) looks at Toto Kupeliaure (ID: 17453344/0x010A5120)
190: 0x04A6 [0x6F] WAIT_FRAME_DELAY: Yield until WaitTime reaches zero
191: 0x04A7 [0x76] CHECK_ENTITY_RENDER_FLAGS: Wait until Riko Kupenreich (ID: 17453345/0x010A5121) Render.Flags0 and Render.Flags3 conditions are met
192: 0x04AC [0x27] REQ_SET(priority=0x10, entity_id=Toto Kupeliaure (ID: 17453344/0x010A5120), tag_num=0x0A)
193: 0x04B3 [0x4A] Toto Kupeliaure (ID: 17453344/0x010A5120) looks at Riko Kupenreich (ID: 17453346/0x010A5122)
194: 0x04BC [0x6F] WAIT_FRAME_DELAY: Yield until WaitTime reaches zero
195: 0x04BD [0x76] CHECK_ENTITY_RENDER_FLAGS: Wait until Toto Kupeliaure (ID: 17453344/0x010A5120) Render.Flags0 and Render.Flags3 conditions are met
196: 0x04C2 [0x01] GOTO 0x05EC
197: 0x04C5 [0x02] IF !(ExtData[1]->WorkLocal[0] == 31*) GOTO 0x04D0
198: 0x04CD [0x01] GOTO 0x05EC
199: 0x04D0 [0x02] IF !(ExtData[1]->WorkLocal[0] == 32*) GOTO 0x04E9
200: 0x04D8 [0x27] REQ_SET(priority=0x10, entity_id=Toto Kupeliaure (ID: 17453344/0x010A5120), tag_num=0x0D)
201: 0x04DF [0x27] REQ_SET(priority=0x10, entity_id=Toto Kupeliaure (ID: 17453344/0x010A5120), tag_num=0x0E)
202: 0x04E6 [0x01] GOTO 0x05EC
203: 0x04E9 [0x02] IF !(ExtData[1]->WorkLocal[0] == 33*) GOTO 0x0509
204: 0x04F1 [0x4A] Riko Kupenreich (ID: 17453345/0x010A5121) looks at LocalPlayer
205: 0x04FA [0x7B] Riko Kupenreich (ID: 17453345/0x010A5121) stops talking
206: 0x04FF [0x27] REQ_SET(priority=0x10, entity_id=Riko Kupenreich (ID: 17453345/0x010A5121), tag_num=0x0E)
207: 0x0506 [0x01] GOTO 0x05EC
208: 0x0509 [0x02] IF !(ExtData[1]->WorkLocal[0] == 34*) GOTO 0x0529
209: 0x0511 [0x27] REQ_SET(priority=0x10, entity_id=Toto Kupeliaure (ID: 17453344/0x010A5120), tag_num=0x0F)
210: 0x0518 [0x59] UPDATE_ENTITY_DATA: Toto Kupeliaure (ID: 17453344/0x010A5120)->Render.Flags0 |= 0x200000
211: 0x051F [0x27] REQ_SET(priority=0x10, entity_id=Toto Kupeliaure (ID: 17453344/0x010A5120), tag_num=0x10)
212: 0x0526 [0x01] GOTO 0x05EC
213: 0x0529 [0x02] IF !(ExtData[1]->WorkLocal[0] == 35*) GOTO 0x0534
214: 0x0531 [0x01] GOTO 0x05EC
215: 0x0534 [0x02] IF !(ExtData[1]->WorkLocal[0] == 36*) GOTO 0x0564
216: 0x053C [0x27] REQ_SET(priority=0x10, entity_id=Riko Kupenreich (ID: 17453346/0x010A5122), tag_num=0x03)
217: 0x0543 [0x27] REQ_SET(priority=0x10, entity_id=Riko Kupenreich (ID: 17453346/0x010A5122), tag_num=0x09)
218: 0x054A [0x27] REQ_SET(priority=0x10, entity_id=Riko Kupenreich (ID: 17453345/0x010A5121), tag_num=0x02)
219: 0x0551 [0x27] REQ_SET(priority=0x10, entity_id=Riko Kupenreich (ID: 17453345/0x010A5121), tag_num=0x0F)
220: 0x0558 [0x4A] Riko Kupenreich (ID: 17453346/0x010A5122) looks at LocalPlayer
221: 0x0561 [0x01] GOTO 0x05EC
222: 0x0564 [0x02] IF !(ExtData[1]->WorkLocal[0] == 37*) GOTO 0x057D
223: 0x056C [0x27] REQ_SET(priority=0x10, entity_id=Riko Kupenreich (ID: 17453346/0x010A5122), tag_num=0x07)
224: 0x0573 [0x27] REQ_SET(priority=0x10, entity_id=Riko Kupenreich (ID: 17453346/0x010A5122), tag_num=0x08)
225: 0x057A [0x01] GOTO 0x05EC
226: 0x057D [0x02] IF !(ExtData[1]->WorkLocal[0] == 38*) GOTO 0x0588
227: 0x0585 [0x01] GOTO 0x05EC
228: 0x0588 [0x02] IF !(ExtData[1]->WorkLocal[0] == 39*) GOTO 0x059A
229: 0x0590 [0x27] REQ_SET(priority=0x10, entity_id=Riko Kupenreich (ID: 17453346/0x010A5122), tag_num=0x0A)
230: 0x0597 [0x01] GOTO 0x05EC
231: 0x059A [0x02] IF !(ExtData[1]->WorkLocal[0] == 40*) GOTO 0x05C1
232: 0x05A2 [0x27] REQ_SET(priority=0x10, entity_id=1 (ID: 17453347/0x010A5123), tag_num=0x05)
233: 0x05A9 [0x27] REQ_SET(priority=0x10, entity_id=2 (ID: 17453348/0x010A5124), tag_num=0x05)
234: 0x05B0 [0x27] REQ_SET(priority=0x10, entity_id=1 (ID: 17453347/0x010A5123), tag_num=0x06)
235: 0x05B7 [0x29] REQ_SET_WAIT(priority=0x10, entity_id=2 (ID: 17453348/0x010A5124), tag_num=0x06)
236: 0x05BE [0x01] GOTO 0x05EC
237: 0x05C1 [0x02] IF !(ExtData[1]->WorkLocal[0] == 41*) GOTO 0x05CC
238: 0x05C9 [0x01] GOTO 0x05EC
239: 0x05CC [0x02] IF !(ExtData[1]->WorkLocal[0] == 42*) GOTO 0x05D7
240: 0x05D4 [0x01] GOTO 0x05EC
241: 0x05D7 [0x02] IF !(ExtData[1]->WorkLocal[0] == 43*) GOTO 0x05EC
242: 0x05DF [0x27] REQ_SET(priority=0x10, entity_id=LocalPlayer, tag_num=0x1E)
243: 0x05E6 [0x1A] CALL_SUBROUTINE(address=0x1D3B)
244: 0x05E9 [0x01] GOTO 0x05EC

SUBROUTINE_05EC:
245: 0x05EC [0x07] ExtData[1]->WorkLocal[0] += 1*
246: 0x05F1 [0x01] GOTO 0x0207
247: 0x05F4 [0x03] ExtData[1]->WorkLocal[0] = 1*

SUBROUTINE_05F9:
248: 0x05F9 [0x02] IF !(ExtData[1]->WorkLocal[0] > 42*) GOTO 0x0614
249: 0x0601 [0x02] IF !(0* > ExtData[1]->WorkLocal[0]) GOTO 0x060C
250: 0x0609 [0x1A] CALL_SUBROUTINE(address=0x0658)
251: 0x060C [0x07] ExtData[1]->WorkLocal[0] += 1*
252: 0x0611 [0x01] GOTO 0x05F9
253: 0x0614 [0x27] REQ_SET(priority=0x10, entity_id=LocalPlayer, tag_num=0x1F)
254: 0x061B [0x27] REQ_SET(priority=0x10, entity_id=Riko Kupenreich (ID: 17453346/0x010A5122), tag_num=0x06)
255: 0x0622 [0x1C] WAIT(60* ticks)
256: 0x0625 [0x5C] MUSIC_CONTROL: Set Idle (Day) music to song 155*
257: 0x0629 [0x5C] MUSIC_CONTROL: Set Idle (Night) music to song 155*
258: 0x062D [0x5C] MUSIC_CONTROL: Set Combat (Solo) music to song 119*
259: 0x0631 [0x5C] MUSIC_CONTROL: Set Combat (Party) music to song 119*
260: 0x0635 [0x9A] WAIT_MUSIC_SERVER()
261: 0x0636 [0x46] CAMERA_CONTROL: Restore default settings
262: 0x0638 [0x45] LOAD_SCHEDULED_TASK: Load scheduler "fdi2" with entities [LocalPlayer, LocalPlayer], work=[200*, 0*]
263: 0x0649 [0x21] END_EVENT
264: 0x064A [0x00] END_REQSTACK()

SUBROUTINE_0658:
265: 0x0658 [0x02] IF !(ExtData[1]->WorkLocal[0] == 1*) GOTO 0x0734
266: 0x0660 [0x27] REQ_SET(priority=0x10, entity_id=LocalPlayer, tag_num=0x1B)
267: 0x0667 [0x27] REQ_SET(priority=0x10, entity_id=Moogle (ID: 17453343/0x010A511F), tag_num=0x01)
268: 0x066E [0x45] LOAD_SCHEDULED_TASK: Load scheduler "o001" with entities [LocalPlayer, LocalPlayer], work=[464*, 0*]
269: 0x067F [0x1A] CALL_SUBROUTINE(address=0x1D1A)
270: 0x0682 [0x1C] WAIT(120* ticks)
271: 0x0685 [0x2B] ??? (ID: 17453333/0x010A5115) [7812*]:
    → "Wait up, Master!"
272: 0x068C [0x2A] GET_REQ_LEVEL(level=16, entity_id=LocalPlayer)
273: 0x0692 [0x79] LocalPlayer looks at Unknown NPC (ID: 2152169473/0x80478001) (Direct axis set)
274: 0x069C [0x1C] WAIT(30* ticks)
275: 0x069F [0x27] REQ_SET(priority=0x10, entity_id=Moogle (ID: 17453343/0x010A511F), tag_num=0x02)
276: 0x06A6 [0x27] REQ_SET(priority=0x10, entity_id=Moogle (ID: 17453343/0x010A511F), tag_num=0x05)
277: 0x06AD [0x1C] WAIT(30* ticks)
278: 0x06B0 [0x79] LocalPlayer looks at Unknown NPC (ID: 2152169473/0x80478001) (Direct axis set)
279: 0x06BA [0x59] UPDATE_ENTITY_DATA: Set LocalPlayer turn speed = 40*
280: 0x06C2 [0x4A] LocalPlayer looks at Moogle (ID: 17453343/0x010A511F)
281: 0x06CB [0x7B] LocalPlayer stops talking
282: 0x06D0 [0x1C] WAIT(60* ticks)
283: 0x06D3 [0x79] LocalPlayer looks at Moogle (ID: 17453343/0x010A511F) (Basic look)
284: 0x06DD [0x2A] GET_REQ_LEVEL(level=16, entity_id=Moogle (ID: 17453343/0x010A511F))
285: 0x06E3 [0x4A] Moogle (ID: 17453343/0x010A511F) looks at LocalPlayer
286: 0x06EC [0x6F] WAIT_FRAME_DELAY: Yield until WaitTime reaches zero
287: 0x06ED [0x76] CHECK_ENTITY_RENDER_FLAGS: Wait until Moogle (ID: 17453343/0x010A511F) Render.Flags0 and Render.Flags3 conditions are met
288: 0x06F2 [0x79] Moogle (ID: 17453343/0x010A511F) looks at LocalPlayer (Basic look)
289: 0x06FC [0x27] REQ_SET(priority=0x10, entity_id=Moogle (ID: 17453343/0x010A511F), tag_num=0x0B)
290: 0x0703 [0x2B] Moogle (ID: 17453343/0x010A511F) [7813*]:
    → "I'm here! Let the games begin!"
291: 0x070A [0x23] WAIT_FOR_DIALOG_INTERACTION
292: 0x070B [0x29] REQ_SET_WAIT(priority=0x10, entity_id=Moogle (ID: 17453343/0x010A511F), tag_num=0x0D)
293: 0x0712 [0x5C] MUSIC_CONTROL: Set Idle (Day) music to song 227*
294: 0x0716 [0x5C] MUSIC_CONTROL: Set Idle (Night) music to song 227*
295: 0x071A [0x9A] WAIT_MUSIC_SERVER()
296: 0x071B [0x52] END_LOAD_SCHEDULER: End scheduler "o001" with entities [LocalPlayer, LocalPlayer], work=464*
297: 0x072A [0x59] UPDATE_ENTITY_DATA: LocalPlayer->Render.Flags0 &= ~0x200000
298: 0x0731 [0x01] GOTO 0x112A
299: 0x0734 [0x02] IF !(ExtData[1]->WorkLocal[0] == 2*) GOTO 0x077A
300: 0x073C [0x45] LOAD_SCHEDULED_TASK: Load scheduler "o002" with entities [LocalPlayer, LocalPlayer], work=[464*, 0*]
301: 0x074D [0x7B] Moogle (ID: 17453343/0x010A511F) stops talking
302: 0x0752 [0x27] REQ_SET(priority=0x10, entity_id=Moogle (ID: 17453343/0x010A511F), tag_num=0x0A)
303: 0x0759 [0x2B] Moogle (ID: 17453343/0x010A511F) [7814*]:
    → "Surely you weren't going to walk off with all the prizes yourself, kupo?"
304: 0x0760 [0x23] WAIT_FOR_DIALOG_INTERACTION
305: 0x0761 [0x29] REQ_SET_WAIT(priority=0x10, entity_id=Moogle (ID: 17453343/0x010A511F), tag_num=0x0D)
306: 0x0768 [0x52] END_LOAD_SCHEDULER: End scheduler "o002" with entities [LocalPlayer, LocalPlayer], work=464*
307: 0x0777 [0x01] GOTO 0x112A
308: 0x077A [0x02] IF !(ExtData[1]->WorkLocal[0] == 3*) GOTO 0x07C4
309: 0x0782 [0x45] LOAD_SCHEDULED_TASK: Load scheduler "o003" with entities [LocalPlayer, LocalPlayer], work=[464*, 0*]
310: 0x0793 [0x1C] WAIT(30* ticks)
311: 0x0796 [0x27] REQ_SET(priority=0x10, entity_id=LocalPlayer, tag_num=0x1D)
312: 0x079D [0x27] REQ_SET(priority=0x10, entity_id=Moogle (ID: 17453343/0x010A511F), tag_num=0x06)
313: 0x07A4 [0x2B] Moogle (ID: 17453343/0x010A511F) [7815*]:
    → "But how odd... Where are all the games!? The chocobo shoe toss! The Whack-a-Mole-Crab! Wherever is the Mega Mog Bonanza-Rama-Pamama!?"
314: 0x07AB [0x23] WAIT_FOR_DIALOG_INTERACTION
315: 0x07AC [0x2A] GET_REQ_LEVEL(level=16, entity_id=Moogle (ID: 17453343/0x010A511F))
316: 0x07B2 [0x52] END_LOAD_SCHEDULER: End scheduler "o003" with entities [LocalPlayer, LocalPlayer], work=464*
317: 0x07C1 [0x01] GOTO 0x112A
318: 0x07C4 [0x02] IF !(ExtData[1]->WorkLocal[0] == 4*) GOTO 0x07FC
319: 0x07CC [0x45] LOAD_SCHEDULED_TASK: Load scheduler "o004" with entities [LocalPlayer, LocalPlayer], work=[464*, 0*]
320: 0x07DD [0x5D] SET_MUSIC_VOLUME(volume=0*, fade_time=60*)
321: 0x07E2 [0x2B] Moogle (ID: 17453343/0x010A511F) [7816*]:
    → "Kupo?"
322: 0x07E9 [0x23] WAIT_FOR_DIALOG_INTERACTION
323: 0x07EA [0x52] END_LOAD_SCHEDULER: End scheduler "o004" with entities [LocalPlayer, LocalPlayer], work=464*
324: 0x07F9 [0x01] GOTO 0x112A
325: 0x07FC [0x02] IF !(ExtData[1]->WorkLocal[0] == 5*) GOTO 0x0839
326: 0x0804 [0x45] LOAD_SCHEDULED_TASK: Load scheduler "o005" with entities [LocalPlayer, LocalPlayer], work=[464*, 0*]
327: 0x0815 [0x2B] Moogle (ID: 17453343/0x010A511F) [7817*]:
    → "I have a bad feeling about this..."
328: 0x081C [0x23] WAIT_FOR_DIALOG_INTERACTION
329: 0x081D [0x27] REQ_SET(priority=0x10, entity_id=Toto Kupeliaure (ID: 17453344/0x010A5120), tag_num=0x05)
330: 0x0824 [0x1C] WAIT(120* ticks)
331: 0x0827 [0x52] END_LOAD_SCHEDULER: End scheduler "o005" with entities [LocalPlayer, LocalPlayer], work=464*
332: 0x0836 [0x01] GOTO 0x112A
333: 0x0839 [0x02] IF !(ExtData[1]->WorkLocal[0] == 6*) GOTO 0x08A1
334: 0x0841 [0x45] LOAD_SCHEDULED_TASK: Load scheduler "o006" with entities [LocalPlayer, LocalPlayer], work=[464*, 0*]
335: 0x0852 [0x4A] Moogle (ID: 17453343/0x010A511F) looks at Riko Kupenreich (ID: 17453345/0x010A5121)
336: 0x085B [0x4A] LocalPlayer looks at Riko Kupenreich (ID: 17453345/0x010A5121)
337: 0x0864 [0x79] LocalPlayer looks at Riko Kupenreich (ID: 17453345/0x010A5121) (Basic look)
338: 0x086E [0x1C] WAIT(30* ticks)
339: 0x0871 [0x1C] WAIT(150* ticks)
340: 0x0874 [0x2B] ??? (ID: 17453333/0x010A5115) [7818*]:
    → "Hehhehheh... Didn't think ya'd make it this far."
341: 0x087B [0x27] REQ_SET(priority=0x10, entity_id=Toto Kupeliaure (ID: 17453344/0x010A5120), tag_num=0x04)
342: 0x0882 [0x27] REQ_SET(priority=0x10, entity_id=Toto Kupeliaure (ID: 17453344/0x010A5120), tag_num=0x0C)
343: 0x0889 [0x1C] WAIT(60* ticks)
344: 0x088C [0x1C] WAIT(270* ticks)
345: 0x088F [0x55] WAIT_LOAD_SCHEDULER: Wait for scheduler "o006" with entities [LocalPlayer, LocalPlayer], work=464*
346: 0x089E [0x01] GOTO 0x112A
347: 0x08A1 [0x02] IF !(ExtData[1]->WorkLocal[0] == 7*) GOTO 0x08E2
348: 0x08A9 [0x45] LOAD_SCHEDULED_TASK: Load scheduler "o007" with entities [LocalPlayer, LocalPlayer], work=[464*, 0*]
349: 0x08BA [0x27] REQ_SET(priority=0x10, entity_id=Moogle (ID: 17453343/0x010A511F), tag_num=0x0A)
350: 0x08C1 [0x2B] Moogle (ID: 17453343/0x010A511F) [7819*]:
    → "Toto! What's the meaning of this, kupo!? Where are the games you promised!?"
351: 0x08C8 [0x23] WAIT_FOR_DIALOG_INTERACTION
352: 0x08C9 [0x27] REQ_SET(priority=0x10, entity_id=Moogle (ID: 17453343/0x010A511F), tag_num=0x0D)
353: 0x08D0 [0x52] END_LOAD_SCHEDULER: End scheduler "o007" with entities [LocalPlayer, LocalPlayer], work=464*
354: 0x08DF [0x01] GOTO 0x112A
355: 0x08E2 [0x02] IF !(ExtData[1]->WorkLocal[0] == 8*) GOTO 0x0938
356: 0x08EA [0x45] LOAD_SCHEDULED_TASK: Load scheduler "o008" with entities [LocalPlayer, LocalPlayer], work=[464*, 0*]
357: 0x08FB [0x27] REQ_SET(priority=0x10, entity_id=Riko Kupenreich (ID: 17453345/0x010A5121), tag_num=0x03)
358: 0x0902 [0x27] REQ_SET(priority=0x10, entity_id=Riko Kupenreich (ID: 17453345/0x010A5121), tag_num=0x0D)
359: 0x0909 [0x1C] WAIT(10* ticks)
360: 0x090C [0x27] REQ_SET(priority=0x10, entity_id=Toto Kupeliaure (ID: 17453344/0x010A5120), tag_num=0x03)
361: 0x0913 [0x1C] WAIT(170* ticks)
362: 0x0916 [0x2B] ??? (ID: 17453333/0x010A5115) [7820*]:
    → "Oh, you'll get your games alright, kid. Whaddaya say we start with "Pin the Sword in the Meddling Moogle." Hehhehheh..."
363: 0x091D [0x2A] GET_REQ_LEVEL(level=16, entity_id=Riko Kupenreich (ID: 17453345/0x010A5121))
364: 0x0923 [0x1C] WAIT(30* ticks)
365: 0x0926 [0x55] WAIT_LOAD_SCHEDULER: Wait for scheduler "o008" with entities [LocalPlayer, LocalPlayer], work=464*
366: 0x0935 [0x01] GOTO 0x112A
367: 0x0938 [0x02] IF !(ExtData[1]->WorkLocal[0] == 9*) GOTO 0x0981
368: 0x0940 [0x45] LOAD_SCHEDULED_TASK: Load scheduler "o009" with entities [LocalPlayer, LocalPlayer], work=[464*, 0*]
369: 0x0951 [0x27] REQ_SET(priority=0x10, entity_id=Toto Kupeliaure (ID: 17453344/0x010A5120), tag_num=0x04)
370: 0x0958 [0x2B] Moogle (ID: 17453343/0x010A511F) [7821*]:
    → "R-Riko!?"
371: 0x095F [0x23] WAIT_FOR_DIALOG_INTERACTION
372: 0x0960 [0x2A] GET_REQ_LEVEL(level=16, entity_id=Moogle (ID: 17453343/0x010A511F))
373: 0x0966 [0x5C] MUSIC_CONTROL: Set Idle (Day) music to song 170*
374: 0x096A [0x5C] MUSIC_CONTROL: Set Idle (Night) music to song 170*
375: 0x096E [0x9A] WAIT_MUSIC_SERVER()
376: 0x096F [0x52] END_LOAD_SCHEDULER: End scheduler "o009" with entities [LocalPlayer, LocalPlayer], work=464*
377: 0x097E [0x01] GOTO 0x112A
378: 0x0981 [0x02] IF !(ExtData[1]->WorkLocal[0] == 10*) GOTO 0x09B4
379: 0x0989 [0x45] LOAD_SCHEDULED_TASK: Load scheduler "o00a" with entities [LocalPlayer, LocalPlayer], work=[464*, 0*]
380: 0x099A [0x2B] Riko Kupenreich (ID: 17453345/0x010A5121) [7822*]:
    → "I've swindled many a sucker in my day, but to think you'd fall for this festival flimflam..."
381: 0x09A1 [0x23] WAIT_FOR_DIALOG_INTERACTION
382: 0x09A2 [0x52] END_LOAD_SCHEDULER: End scheduler "o00a" with entities [LocalPlayer, LocalPlayer], work=464*
383: 0x09B1 [0x01] GOTO 0x112A
384: 0x09B4 [0x02] IF !(ExtData[1]->WorkLocal[0] == 11*) GOTO 0x09F5
385: 0x09BC [0x45] LOAD_SCHEDULED_TASK: Load scheduler "o00b" with entities [LocalPlayer, LocalPlayer], work=[464*, 0*]
386: 0x09CD [0x27] REQ_SET(priority=0x10, entity_id=Moogle (ID: 17453343/0x010A511F), tag_num=0x0A)
387: 0x09D4 [0x2B] Moogle (ID: 17453343/0x010A511F) [7823*]:
    → "Wh-what's the meaning of this? What are you doing here, kupo!?"
388: 0x09DB [0x23] WAIT_FOR_DIALOG_INTERACTION
389: 0x09DC [0x27] REQ_SET(priority=0x10, entity_id=Moogle (ID: 17453343/0x010A511F), tag_num=0x0D)
390: 0x09E3 [0x52] END_LOAD_SCHEDULER: End scheduler "o00b" with entities [LocalPlayer, LocalPlayer], work=464*
391: 0x09F2 [0x01] GOTO 0x112A
392: 0x09F5 [0x02] IF !(ExtData[1]->WorkLocal[0] == 12*) GOTO 0x0A5F
393: 0x09FD [0x45] LOAD_SCHEDULED_TASK: Load scheduler "o00c" with entities [LocalPlayer, LocalPlayer], work=[464*, 0*]
394: 0x0A0E [0x27] REQ_SET(priority=0x10, entity_id=Toto Kupeliaure (ID: 17453344/0x010A5120), tag_num=0x06)
395: 0x0A15 [0x2B] Riko Kupenreich (ID: 17453345/0x010A5121) [7824*]:
    → "Ya still don't get it, do ya?"
396: 0x0A1C [0x23] WAIT_FOR_DIALOG_INTERACTION
397: 0x0A1D [0x2B] Riko Kupenreich (ID: 17453345/0x010A5121) [7825*]:
    → "Uncle Riko gave ya the perfect opportunity to end this quick-and-easy, like. But ya just hadta play the hero, didn't ya?"
398: 0x0A24 [0x23] WAIT_FOR_DIALOG_INTERACTION
399: 0x0A25 [0x52] END_LOAD_SCHEDULER: End scheduler "o00c" with entities [LocalPlayer, LocalPlayer], work=464*
400: 0x0A34 [0x45] LOAD_SCHEDULED_TASK: Load scheduler "o01c" with entities [LocalPlayer, LocalPlayer], work=[464*, 0*]
401: 0x0A45 [0x2B] Riko Kupenreich (ID: 17453345/0x010A5121) [7826*]:
    → "I was hoping it wouldn't come ta this. Disposin' of bodies--even puny ones like yours--ain't cheap, ya know. But hey, that's the way the cinna-cookie crumbles."
402: 0x0A4C [0x23] WAIT_FOR_DIALOG_INTERACTION
403: 0x0A4D [0x52] END_LOAD_SCHEDULER: End scheduler "o01c" with entities [LocalPlayer, LocalPlayer], work=464*
404: 0x0A5C [0x01] GOTO 0x112A
405: 0x0A5F [0x02] IF !(ExtData[1]->WorkLocal[0] == 13*) GOTO 0x0A6A
406: 0x0A67 [0x01] GOTO 0x112A
407: 0x0A6A [0x02] IF !(ExtData[1]->WorkLocal[0] == 14*) GOTO 0x0A75
408: 0x0A72 [0x01] GOTO 0x112A
409: 0x0A75 [0x02] IF !(ExtData[1]->WorkLocal[0] == 15*) GOTO 0x0ACC
410: 0x0A7D [0x45] LOAD_SCHEDULED_TASK: Load scheduler "o00f" with entities [LocalPlayer, LocalPlayer], work=[464*, 0*]
411: 0x0A8E [0x27] REQ_SET(priority=0x10, entity_id=Moogle (ID: 17453343/0x010A511F), tag_num=0x0B)
412: 0x0A95 [0x2B] Moogle (ID: 17453343/0x010A511F) [7827*]:
    → "Riko! I should have known you were the one behind this shady scam!"
413: 0x0A9C [0x23] WAIT_FOR_DIALOG_INTERACTION
414: 0x0A9D [0x29] REQ_SET_WAIT(priority=0x10, entity_id=Moogle (ID: 17453343/0x010A511F), tag_num=0x0D)
415: 0x0AA4 [0x27] REQ_SET(priority=0x10, entity_id=Moogle (ID: 17453343/0x010A511F), tag_num=0x0A)
416: 0x0AAB [0x2B] Moogle (ID: 17453343/0x010A511F) [7828*]:
    → "It was far too conniving for that cerebrally challenged Toto to have hatched all by himself, kupo!"
417: 0x0AB2 [0x23] WAIT_FOR_DIALOG_INTERACTION
418: 0x0AB3 [0x27] REQ_SET(priority=0x10, entity_id=Moogle (ID: 17453343/0x010A511F), tag_num=0x0D)
419: 0x0ABA [0x52] END_LOAD_SCHEDULER: End scheduler "o00f" with entities [LocalPlayer, LocalPlayer], work=464*
420: 0x0AC9 [0x01] GOTO 0x112A
421: 0x0ACC [0x02] IF !(ExtData[1]->WorkLocal[0] == 16*) GOTO 0x0AD7
422: 0x0AD4 [0x01] GOTO 0x112A
423: 0x0AD7 [0x02] IF !(ExtData[1]->WorkLocal[0] == 17*) GOTO 0x0B22
424: 0x0ADF [0x45] LOAD_SCHEDULED_TASK: Load scheduler "o00h" with entities [LocalPlayer, LocalPlayer], work=[464*, 0*]
425: 0x0AF0 [0x2B] Riko Kupenreich (ID: 17453345/0x010A5121) [7829*]:
    → "Listen up, you no-good moochers."
426: 0x0AF7 [0x23] WAIT_FOR_DIALOG_INTERACTION
427: 0x0AF8 [0x2B] Riko Kupenreich (ID: 17453345/0x010A5121) [7830*]:
    → "You've gotten away with yer rent-free Mog Houses for long enough."
428: 0x0AFF [0x23] WAIT_FOR_DIALOG_INTERACTION
429: 0x0B00 [0x2B] Riko Kupenreich (ID: 17453345/0x010A5121) [7831*]:
    → "Ya want repairs and renovations? A penthouse suite with a Ru'Lude Gardens view?"
430: 0x0B07 [0x23] WAIT_FOR_DIALOG_INTERACTION
431: 0x0B08 [0x2B] Riko Kupenreich (ID: 17453345/0x010A5121) [7832*]:
    → "Fine, here's the deal. And before ya ask, this one ain't negotiable."
432: 0x0B0F [0x23] WAIT_FOR_DIALOG_INTERACTION
433: 0x0B10 [0x52] END_LOAD_SCHEDULER: End scheduler "o00h" with entities [LocalPlayer, LocalPlayer], work=464*
434: 0x0B1F [0x01] GOTO 0x112A
435: 0x0B22 [0x02] IF !(ExtData[1]->WorkLocal[0] == 18*) GOTO 0x0B2D
436: 0x0B2A [0x01] GOTO 0x112A
437: 0x0B2D [0x02] IF !(ExtData[1]->WorkLocal[0] == 19*) GOTO 0x0B38
438: 0x0B35 [0x01] GOTO 0x112A
439: 0x0B38 [0x02] IF !(ExtData[1]->WorkLocal[0] == 20*) GOTO 0x0B43
440: 0x0B40 [0x01] GOTO 0x112A
441: 0x0B43 [0x02] IF !(ExtData[1]->WorkLocal[0] == 21*) GOTO 0x0B95
442: 0x0B4B [0x45] LOAD_SCHEDULED_TASK: Load scheduler "o00l" with entities [LocalPlayer, LocalPlayer], work=[464*, 0*]
443: 0x0B5C [0x1C] WAIT(40* ticks)
444: 0x0B5F [0x27] REQ_SET(priority=0x10, entity_id=Riko Kupenreich (ID: 17453345/0x010A5121), tag_num=0x06)
445: 0x0B66 [0x2B] Riko Kupenreich (ID: 17453345/0x010A5121) [7833*]:
    → "First, we tear up each and every one of those sorry shacks you call Mog Houses."
446: 0x0B6D [0x23] WAIT_FOR_DIALOG_INTERACTION
447: 0x0B6E [0x2A] GET_REQ_LEVEL(level=16, entity_id=Riko Kupenreich (ID: 17453345/0x010A5121))
448: 0x0B74 [0x27] REQ_SET(priority=0x10, entity_id=Riko Kupenreich (ID: 17453345/0x010A5121), tag_num=0x09)
449: 0x0B7B [0x2B] Riko Kupenreich (ID: 17453345/0x010A5121) [7834*]:
    → "In their place, we put up luxury apartments with all the modern accoutrements. Glorious, massive Mog Towers reaching high into the clouds!"
450: 0x0B82 [0x23] WAIT_FOR_DIALOG_INTERACTION
451: 0x0B83 [0x52] END_LOAD_SCHEDULER: End scheduler "o00l" with entities [LocalPlayer, LocalPlayer], work=464*
452: 0x0B92 [0x01] GOTO 0x112A
453: 0x0B95 [0x02] IF !(ExtData[1]->WorkLocal[0] == 22*) GOTO 0x0BA0
454: 0x0B9D [0x01] GOTO 0x112A
455: 0x0BA0 [0x02] IF !(ExtData[1]->WorkLocal[0] == 23*) GOTO 0x0BDB
456: 0x0BA8 [0x45] LOAD_SCHEDULED_TASK: Load scheduler "o00n" with entities [LocalPlayer, LocalPlayer], work=[464*, 0*]
457: 0x0BB9 [0x2B] Riko Kupenreich (ID: 17453345/0x010A5121) [7835*]:
    → "But here's the kicker: no more free rides for you freeloading adventurers. I'll cater to only the richest of the rich--fat cats and bigwigs with the loosest of purse-strings!"
458: 0x0BC0 [0x23] WAIT_FOR_DIALOG_INTERACTION
459: 0x0BC1 [0x2B] Riko Kupenreich (ID: 17453345/0x010A5121) [7836*]:
    → "Since you two seem so eager, I've already decided to start with your place..."
460: 0x0BC8 [0x23] WAIT_FOR_DIALOG_INTERACTION
461: 0x0BC9 [0x52] END_LOAD_SCHEDULER: End scheduler "o00n" with entities [LocalPlayer, LocalPlayer], work=464*
462: 0x0BD8 [0x01] GOTO 0x112A
463: 0x0BDB [0x02] IF !(ExtData[1]->WorkLocal[0] == 24*) GOTO 0x0BE6
464: 0x0BE3 [0x01] GOTO 0x112A
465: 0x0BE6 [0x02] IF !(ExtData[1]->WorkLocal[0] == 25*) GOTO 0x0BF1
466: 0x0BEE [0x01] GOTO 0x112A
467: 0x0BF1 [0x02] IF !(ExtData[1]->WorkLocal[0] == 26*) GOTO 0x0C3C
468: 0x0BF9 [0x45] LOAD_SCHEDULED_TASK: Load scheduler "o00q" with entities [LocalPlayer, LocalPlayer], work=[464*, 0*]
469: 0x0C0A [0x2B] Riko Kupenreich (ID: 17453345/0x010A5121) [7837*]:
    → "Hm. Ya ain't looking too happy 'bout this. But that's no biggie. 'Cause the two of you are gonna be movin' out, ya see? ...Permanently, like."
470: 0x0C11 [0x23] WAIT_FOR_DIALOG_INTERACTION
471: 0x0C12 [0x1C] WAIT(40* ticks)
472: 0x0C15 [0x27] REQ_SET(priority=0x10, entity_id=Riko Kupenreich (ID: 17453345/0x010A5121), tag_num=0x0B)
473: 0x0C1C [0x2B] Riko Kupenreich (ID: 17453345/0x010A5121) [7838*]:
    → "No more skulking in the shadows for me. Soon, all of Vana'diel will know the name of Riko Kupenreich, mog estate tycoon! Bwahahahahahaha!"
474: 0x0C23 [0x23] WAIT_FOR_DIALOG_INTERACTION
475: 0x0C24 [0x2A] GET_REQ_LEVEL(level=16, entity_id=Riko Kupenreich (ID: 17453345/0x010A5121))
476: 0x0C2A [0x52] END_LOAD_SCHEDULER: End scheduler "o00q" with entities [LocalPlayer, LocalPlayer], work=464*
477: 0x0C39 [0x01] GOTO 0x112A
478: 0x0C3C [0x02] IF !(ExtData[1]->WorkLocal[0] == 27*) GOTO 0x0C8F
479: 0x0C44 [0x27] REQ_SET(priority=0x10, entity_id=Riko Kupenreich (ID: 17453345/0x010A5121), tag_num=0x02)
480: 0x0C4B [0x45] LOAD_SCHEDULED_TASK: Load scheduler "o00r" with entities [LocalPlayer, LocalPlayer], work=[464*, 0*]
481: 0x0C5C [0x1C] WAIT(35* ticks)
482: 0x0C5F [0x27] REQ_SET(priority=0x10, entity_id=Toto Kupeliaure (ID: 17453344/0x010A5120), tag_num=0x07)
483: 0x0C66 [0x2B] Toto Kupeliaure (ID: 17453344/0x010A5120) [7839*]:
    → "Yeah! With me as your Chief Expectorative Officer!"
484: 0x0C6D [0x23] WAIT_FOR_DIALOG_INTERACTION
485: 0x0C6E [0x2B] Toto Kupeliaure (ID: 17453344/0x010A5120) [7840*]:
    → "With your money and my brains...we'll be unstoppable!"
486: 0x0C75 [0x23] WAIT_FOR_DIALOG_INTERACTION
487: 0x0C76 [0x27] REQ_SET(priority=0x10, entity_id=Toto Kupeliaure (ID: 17453344/0x010A5120), tag_num=0x08)
488: 0x0C7D [0x52] END_LOAD_SCHEDULER: End scheduler "o00r" with entities [LocalPlayer, LocalPlayer], work=464*
489: 0x0C8C [0x01] GOTO 0x112A
490: 0x0C8F [0x02] IF !(ExtData[1]->WorkLocal[0] == 28*) GOTO 0x0C9A
491: 0x0C97 [0x01] GOTO 0x112A
492: 0x0C9A [0x02] IF !(ExtData[1]->WorkLocal[0] == 29*) GOTO 0x0D1C
493: 0x0CA2 [0x27] REQ_SET(priority=0x10, entity_id=Riko Kupenreich (ID: 17453345/0x010A5121), tag_num=0x08)
494: 0x0CA9 [0x27] REQ_SET(priority=0x10, entity_id=Riko Kupenreich (ID: 17453345/0x010A5121), tag_num=0x03)
495: 0x0CB0 [0x1C] WAIT(3* ticks)
496: 0x0CB3 [0x45] LOAD_SCHEDULED_TASK: Load scheduler "o00t" with entities [LocalPlayer, LocalPlayer], work=[464*, 0*]
497: 0x0CC4 [0x1C] WAIT(30* ticks)
498: 0x0CC7 [0x4A] Riko Kupenreich (ID: 17453345/0x010A5121) looks at Toto Kupeliaure (ID: 17453344/0x010A5120)
499: 0x0CD0 [0x6F] WAIT_FRAME_DELAY: Yield until WaitTime reaches zero
500: 0x0CD1 [0x76] CHECK_ENTITY_RENDER_FLAGS: Wait until Riko Kupenreich (ID: 17453345/0x010A5121) Render.Flags0 and Render.Flags3 conditions are met
501: 0x0CD6 [0x1C] WAIT(15* ticks)
502: 0x0CD9 [0x5D] SET_MUSIC_VOLUME(volume=0*, fade_time=60*)
503: 0x0CDE [0x2B] Riko Kupenreich (ID: 17453345/0x010A5121) [7841*]:
    → "Don't think so, kid. See, I've got you pegged for an early retirement."
504: 0x0CE5 [0x23] WAIT_FOR_DIALOG_INTERACTION
505: 0x0CE6 [0x27] REQ_SET(priority=0x10, entity_id=Toto Kupeliaure (ID: 17453344/0x010A5120), tag_num=0x0A)
506: 0x0CED [0x1C] WAIT(60* ticks)
507: 0x0CF0 [0x4A] Toto Kupeliaure (ID: 17453344/0x010A5120) looks at Riko Kupenreich (ID: 17453346/0x010A5122)
508: 0x0CF9 [0x6F] WAIT_FRAME_DELAY: Yield until WaitTime reaches zero
509: 0x0CFA [0x76] CHECK_ENTITY_RENDER_FLAGS: Wait until Toto Kupeliaure (ID: 17453344/0x010A5120) Render.Flags0 and Render.Flags3 conditions are met
510: 0x0CFF [0x1C] WAIT(30* ticks)
511: 0x0D02 [0x2B] Riko Kupenreich (ID: 17453346/0x010A5122) [7842*]:
    → "Maybe you can join yer old man on his cruise... I hear Mount Zhayolm is beautiful this time of year."
512: 0x0D09 [0x23] WAIT_FOR_DIALOG_INTERACTION
513: 0x0D0A [0x52] END_LOAD_SCHEDULER: End scheduler "o00t" with entities [LocalPlayer, LocalPlayer], work=464*
514: 0x0D19 [0x01] GOTO 0x112A
515: 0x0D1C [0x02] IF !(ExtData[1]->WorkLocal[0] == 30*) GOTO 0x0D27
516: 0x0D24 [0x01] GOTO 0x112A
517: 0x0D27 [0x02] IF !(ExtData[1]->WorkLocal[0] == 31*) GOTO 0x0D7C
518: 0x0D2F [0x45] LOAD_SCHEDULED_TASK: Load scheduler "o00v" with entities [LocalPlayer, LocalPlayer], work=[464*, 0*]
519: 0x0D40 [0x1C] WAIT(40* ticks)
520: 0x0D43 [0x27] REQ_SET(priority=0x10, entity_id=Toto Kupeliaure (ID: 17453344/0x010A5120), tag_num=0x0D)
521: 0x0D4A [0x2B] Toto Kupeliaure (ID: 17453344/0x010A5120) [7843*]:
    → "Wh-what!?"
522: 0x0D51 [0x23] WAIT_FOR_DIALOG_INTERACTION
523: 0x0D52 [0x2A] GET_REQ_LEVEL(level=16, entity_id=Toto Kupeliaure (ID: 17453344/0x010A5120))
524: 0x0D58 [0x1C] WAIT(30* ticks)
525: 0x0D5B [0x27] REQ_SET(priority=0x10, entity_id=Toto Kupeliaure (ID: 17453344/0x010A5120), tag_num=0x0E)
526: 0x0D62 [0x2B] Toto Kupeliaure (ID: 17453344/0x010A5120) [7844*]:
    → "Y-you can't do this to me! I'm a Kupeliaure!"
527: 0x0D69 [0x23] WAIT_FOR_DIALOG_INTERACTION
528: 0x0D6A [0x52] END_LOAD_SCHEDULER: End scheduler "o00v" with entities [LocalPlayer, LocalPlayer], work=464*
529: 0x0D79 [0x01] GOTO 0x112A
530: 0x0D7C [0x02] IF !(ExtData[1]->WorkLocal[0] == 32*) GOTO 0x0E34
531: 0x0D84 [0x4A] Riko Kupenreich (ID: 17453345/0x010A5121) looks at LocalPlayer
532: 0x0D8D [0x7B] Riko Kupenreich (ID: 17453345/0x010A5121) stops talking
533: 0x0D92 [0x6F] WAIT_FRAME_DELAY: Yield until WaitTime reaches zero
534: 0x0D93 [0x76] CHECK_ENTITY_RENDER_FLAGS: Wait until Riko Kupenreich (ID: 17453345/0x010A5121) Render.Flags0 and Render.Flags3 conditions are met
535: 0x0D98 [0x1C] WAIT(15* ticks)
536: 0x0D9B [0x45] LOAD_SCHEDULED_TASK: Load scheduler "o01w" with entities [LocalPlayer, LocalPlayer], work=[464*, 0*]
537: 0x0DAC [0x2B] Riko Kupenreich (ID: 17453345/0x010A5121) [7845*]:
    → "Enough! ...Behold!"
538: 0x0DB3 [0x23] WAIT_FOR_DIALOG_INTERACTION
539: 0x0DB4 [0x5C] MUSIC_CONTROL: Set Idle (Day) music to song 49*, volume=64*
540: 0x0DBA [0x5C] MUSIC_CONTROL: Set Idle (Night) music to song 49*, volume=64*
541: 0x0DC0 [0x5C] MUSIC_CONTROL: Set Combat (Solo) music to song 49*, volume=64*
542: 0x0DC6 [0x5C] MUSIC_CONTROL: Set Combat (Party) music to song 49*, volume=64*
543: 0x0DCC [0x9A] WAIT_MUSIC_SERVER()
544: 0x0DCD [0x55] WAIT_LOAD_SCHEDULER: Wait for scheduler "o01w" with entities [LocalPlayer, LocalPlayer], work=464*
545: 0x0DDC [0x45] LOAD_SCHEDULED_TASK: Load scheduler "o00w" with entities [LocalPlayer, LocalPlayer], work=[464*, 0*]
546: 0x0DED [0x27] REQ_SET(priority=0x10, entity_id=Riko Kupenreich (ID: 17453345/0x010A5121), tag_num=0x0E)
547: 0x0DF4 [0x2A] GET_REQ_LEVEL(level=16, entity_id=Riko Kupenreich (ID: 17453345/0x010A5121))
548: 0x0DFA [0x55] WAIT_LOAD_SCHEDULER: Wait for scheduler "o00w" with entities [LocalPlayer, LocalPlayer], work=464*
549: 0x0E09 [0x45] LOAD_SCHEDULED_TASK: Load scheduler "o00x" with entities [LocalPlayer, LocalPlayer], work=[464*, 0*]
550: 0x0E1A [0x2B] Riko Kupenreich (ID: 17453345/0x010A5121) [7846*]:
    → "Look upon this majestic, multifaceted jewel! See it shimmer with the light of innumerable galaxies!"
551: 0x0E21 [0x23] WAIT_FOR_DIALOG_INTERACTION
552: 0x0E22 [0x52] END_LOAD_SCHEDULER: End scheduler "o00x" with entities [LocalPlayer, LocalPlayer], work=464*
553: 0x0E31 [0x01] GOTO 0x112A
554: 0x0E34 [0x02] IF !(ExtData[1]->WorkLocal[0] == 33*) GOTO 0x0E74
555: 0x0E3C [0x45] LOAD_SCHEDULED_TASK: Load scheduler "o10w" with entities [LocalPlayer, LocalPlayer], work=[464*, 0*]
556: 0x0E4D [0x27] REQ_SET(priority=0x10, entity_id=Toto Kupeliaure (ID: 17453344/0x010A5120), tag_num=0x0F)
557: 0x0E54 [0x59] UPDATE_ENTITY_DATA: Toto Kupeliaure (ID: 17453344/0x010A5120)->Render.Flags0 |= 0x200000
558: 0x0E5B [0x27] REQ_SET(priority=0x10, entity_id=Toto Kupeliaure (ID: 17453344/0x010A5120), tag_num=0x10)
559: 0x0E62 [0x55] WAIT_LOAD_SCHEDULER: Wait for scheduler "o10w" with entities [LocalPlayer, LocalPlayer], work=464*
560: 0x0E71 [0x01] GOTO 0x112A
561: 0x0E74 [0x02] IF !(ExtData[1]->WorkLocal[0] == 34*) GOTO 0x0ECF
562: 0x0E7C [0x45] LOAD_SCHEDULED_TASK: Load scheduler "o00y" with entities [LocalPlayer, LocalPlayer], work=[464*, 0*]
563: 0x0E8D [0x2B] Moogle (ID: 17453343/0x010A511F) [7847*]:
    → "I-is that...a giant...c-c-crystal!? ...In his stomach, kupo?"
564: 0x0E94 [0x23] WAIT_FOR_DIALOG_INTERACTION
565: 0x0E95 [0x52] END_LOAD_SCHEDULER: End scheduler "o00y" with entities [LocalPlayer, LocalPlayer], work=464*
566: 0x0EA4 [0x45] LOAD_SCHEDULED_TASK: Load scheduler "o10y" with entities [LocalPlayer, LocalPlayer], work=[464*, 0*]
567: 0x0EB5 [0x2B] Riko Kupenreich (ID: 17453346/0x010A5122) [7848*]:
    → "Even a half-wit dunce knows magicite when he sees it."
568: 0x0EBC [0x23] WAIT_FOR_DIALOG_INTERACTION
569: 0x0EBD [0x52] END_LOAD_SCHEDULER: End scheduler "o10y" with entities [LocalPlayer, LocalPlayer], work=464*
570: 0x0ECC [0x01] GOTO 0x112A
571: 0x0ECF [0x02] IF !(ExtData[1]->WorkLocal[0] == 35*) GOTO 0x0F27
572: 0x0ED7 [0x45] LOAD_SCHEDULED_TASK: Load scheduler "o20y" with entities [LocalPlayer, LocalPlayer], work=[464*, 0*]
573: 0x0EE8 [0x27] REQ_SET(priority=0x10, entity_id=Riko Kupenreich (ID: 17453346/0x010A5122), tag_num=0x03)
574: 0x0EEF [0x27] REQ_SET(priority=0x10, entity_id=Riko Kupenreich (ID: 17453346/0x010A5122), tag_num=0x09)
575: 0x0EF6 [0x27] REQ_SET(priority=0x10, entity_id=Riko Kupenreich (ID: 17453345/0x010A5121), tag_num=0x02)
576: 0x0EFD [0x27] REQ_SET(priority=0x10, entity_id=Riko Kupenreich (ID: 17453345/0x010A5121), tag_num=0x0F)
577: 0x0F04 [0x4A] Riko Kupenreich (ID: 17453346/0x010A5122) looks at LocalPlayer
578: 0x0F0D [0x2B] Riko Kupenreich (ID: 17453346/0x010A5122) [7849*]:
    → "Hehhehheh...I know just what you're thinking."
579: 0x0F14 [0x23] WAIT_FOR_DIALOG_INTERACTION
580: 0x0F15 [0x52] END_LOAD_SCHEDULER: End scheduler "o20y" with entities [LocalPlayer, LocalPlayer], work=464*
581: 0x0F24 [0x01] GOTO 0x112A
582: 0x0F27 [0x02] IF !(ExtData[1]->WorkLocal[0] == 36*) GOTO 0x0F94
583: 0x0F2F [0x45] LOAD_SCHEDULED_TASK: Load scheduler "o011" with entities [LocalPlayer, LocalPlayer], work=[464*, 0*]
584: 0x0F40 [0x2B] Riko Kupenreich (ID: 17453346/0x010A5122) [7850*]:
    → ""Uncle Riko stumbled onto some weird crystal, and got himself possessed by another supernatural force," eh?"
585: 0x0F47 [0x23] WAIT_FOR_DIALOG_INTERACTION
586: 0x0F48 [0x27] REQ_SET(priority=0x10, entity_id=Riko Kupenreich (ID: 17453346/0x010A5122), tag_num=0x07)
587: 0x0F4F [0x2B] Riko Kupenreich (ID: 17453346/0x010A5122) [7851*]:
    → "Hah! I pity your lack of vision!"
588: 0x0F56 [0x23] WAIT_FOR_DIALOG_INTERACTION
589: 0x0F57 [0x5B] LOAD_EXT_SCHEDULER: Load scheduler "bkal" with entities [1 (ID: 17453347/0x010A5123), 1 (ID: 17453347/0x010A5123)], work=2640*
590: 0x0F66 [0x5B] LOAD_EXT_SCHEDULER: Load scheduler "bkal" with entities [2 (ID: 17453348/0x010A5124), 2 (ID: 17453348/0x010A5124)], work=2640*
591: 0x0F75 [0x2A] GET_REQ_LEVEL(level=16, entity_id=Riko Kupenreich (ID: 17453346/0x010A5122))
592: 0x0F7B [0x29] REQ_SET_WAIT(priority=0x10, entity_id=Riko Kupenreich (ID: 17453346/0x010A5122), tag_num=0x08)
593: 0x0F82 [0x52] END_LOAD_SCHEDULER: End scheduler "o011" with entities [LocalPlayer, LocalPlayer], work=464*
594: 0x0F91 [0x01] GOTO 0x112A
595: 0x0F94 [0x02] IF !(ExtData[1]->WorkLocal[0] == 37*) GOTO 0x0F9F
596: 0x0F9C [0x01] GOTO 0x112A
597: 0x0F9F [0x02] IF !(ExtData[1]->WorkLocal[0] == 38*) GOTO 0x0FDF
598: 0x0FA7 [0x45] LOAD_SCHEDULED_TASK: Load scheduler "o013" with entities [LocalPlayer, LocalPlayer], work=[464*, 0*]
599: 0x0FB8 [0x27] REQ_SET(priority=0x10, entity_id=Riko Kupenreich (ID: 17453346/0x010A5122), tag_num=0x0A)
600: 0x0FBF [0x2B] Riko Kupenreich (ID: 17453346/0x010A5122) [7852*]:
    → "For I, truly, am the Moogle to End All Moogles! The Alpha and the Omega! The Keeper of the Kupocalypse!"
601: 0x0FC6 [0x23] WAIT_FOR_DIALOG_INTERACTION
602: 0x0FC7 [0x2A] GET_REQ_LEVEL(level=16, entity_id=Riko Kupenreich (ID: 17453346/0x010A5122))
603: 0x0FCD [0x52] END_LOAD_SCHEDULER: End scheduler "o013" with entities [LocalPlayer, LocalPlayer], work=464*
604: 0x0FDC [0x01] GOTO 0x112A
605: 0x0FDF [0x02] IF !(ExtData[1]->WorkLocal[0] == 39*) GOTO 0x104F
606: 0x0FE7 [0x45] LOAD_SCHEDULED_TASK: Load scheduler "o014" with entities [LocalPlayer, LocalPlayer], work=[464*, 0*]
607: 0x0FF8 [0xC5] LOAD_SCHEDULED_TASK_ALT3: Load scheduler 0x80013073 for entities [Riko Kupenreich (ID: 17453346/0x010A5122), Riko Kupenreich (ID: 17453346/0x010A5122)], work=142*, param=27755
608: 0x1009 [0x2B] Riko Kupenreich (ID: 17453346/0x010A5122) [7853*]:
    → "Arise, my minions!"
609: 0x1010 [0x45] LOAD_SCHEDULED_TASK: Load scheduler "smn0" with entities [LocalPlayer, LocalPlayer], work=[464*, 0*]
610: 0x1021 [0x27] REQ_SET(priority=0x10, entity_id=1 (ID: 17453347/0x010A5123), tag_num=0x05)
611: 0x1028 [0x27] REQ_SET(priority=0x10, entity_id=2 (ID: 17453348/0x010A5124), tag_num=0x05)
612: 0x102F [0x27] REQ_SET(priority=0x10, entity_id=1 (ID: 17453347/0x010A5123), tag_num=0x06)
613: 0x1036 [0x29] REQ_SET_WAIT(priority=0x10, entity_id=2 (ID: 17453348/0x010A5124), tag_num=0x06)
614: 0x103D [0x55] WAIT_LOAD_SCHEDULER: Wait for scheduler "o014" with entities [LocalPlayer, LocalPlayer], work=464*
615: 0x104C [0x01] GOTO 0x112A
616: 0x104F [0x02] IF !(ExtData[1]->WorkLocal[0] == 40*) GOTO 0x1082
617: 0x1057 [0x45] LOAD_SCHEDULED_TASK: Load scheduler "o015" with entities [LocalPlayer, LocalPlayer], work=[464*, 0*]
618: 0x1068 [0x2B] Riko Kupenreich (ID: 17453346/0x010A5122) [7854*]:
    → "Millennia of indentured servitude... Of our noble race being used, abused, and taken for granted by self-absorbed adventurers like you... The injustice has burned a hole in the belly of the very fabric of my being!"
619: 0x106F [0x23] WAIT_FOR_DIALOG_INTERACTION
620: 0x1070 [0x52] END_LOAD_SCHEDULER: End scheduler "o015" with entities [LocalPlayer, LocalPlayer], work=464*
621: 0x107F [0x01] GOTO 0x112A
622: 0x1082 [0x02] IF !(ExtData[1]->WorkLocal[0] == 41*) GOTO 0x10B5
623: 0x108A [0x45] LOAD_SCHEDULED_TASK: Load scheduler "o016" with entities [LocalPlayer, LocalPlayer], work=[464*, 0*]
624: 0x109B [0x2B] Riko Kupenreich (ID: 17453346/0x010A5122) [7855*]:
    → "Seething flames of agony rage deep within my moogle soul! Flames that can only be quelled by...yes! Your complete and utter destruction!"
625: 0x10A2 [0x23] WAIT_FOR_DIALOG_INTERACTION
626: 0x10A3 [0x55] WAIT_LOAD_SCHEDULER: Wait for scheduler "o016" with entities [LocalPlayer, LocalPlayer], work=464*
627: 0x10B2 [0x01] GOTO 0x112A
628: 0x10B5 [0x02] IF !(ExtData[1]->WorkLocal[0] == 42*) GOTO 0x112A
629: 0x10BD [0x45] LOAD_SCHEDULED_TASK: Load scheduler "o017" with entities [LocalPlayer, LocalPlayer], work=[464*, 0*]
630: 0x10CE [0x2B] Riko Kupenreich (ID: 17453346/0x010A5122) [7856*]:
    → "Feel the fury of innumerous pairs of purple wings beating as one! This...is Mogmageddon!"
631: 0x10D5 [0x27] REQ_SET(priority=0x10, entity_id=LocalPlayer, tag_num=0x1E)
632: 0x10DC [0x1C] WAIT(180* ticks)
633: 0x10DF [0x1A] CALL_SUBROUTINE(address=0x1D3B)
634: 0x10E2 [0x1C] WAIT(60* ticks)
635: 0x10E5 [0xC5] LOAD_SCHEDULED_TASK_ALT3: Load scheduler 0x80013073 for entities [Riko Kupenreich (ID: 17453345/0x010A5121), Riko Kupenreich (ID: 17453345/0x010A5121)], work=137*, param=27755
636: 0x10F6 [0xC5] LOAD_SCHEDULED_TASK_ALT3: Load scheduler 0x80013173 for entities [Riko Kupenreich (ID: 17453346/0x010A5122), Riko Kupenreich (ID: 17453346/0x010A5122)], work=142*, param=27755
637: 0x1107 [0x52] END_LOAD_SCHEDULER: End scheduler "o017" with entities [LocalPlayer, LocalPlayer], work=464*
638: 0x1116 [0x45] LOAD_SCHEDULED_TASK: Load scheduler "0blf" with entities [LocalPlayer, LocalPlayer], work=[464*, 0*]
639: 0x1127 [0x01] GOTO 0x112A

SUBROUTINE_112A:
640: 0x112A [0x1B] RETURN
```

#### Data or dead code:

```
# Dead code (unreachable instructions):
     0x064B [0x02] IF !(0* == 1*) GOTO 0x0657
     0x0653 [0x48] [System] [7813*]:
    → "I'm here! Let the games begin!"
     0x0656 [0x23] WAIT_FOR_DIALOG_INTERACTION
     0x0657 [0x1B] RETURN
```

### Event 5

#### Metadata

| Field        | Value      |
|--------------|------------|
| Entrypoint   | 0x112B     |
| Data Size    | 3286 bytes |
| Instructions | 462        |

```
      00 01 02 03 04 05 06 07  08 09 0A 0B 0C 0D 0E 0F
      -- -- -- -- -- -- -- --  -- -- -- -- -- -- -- --
1120:                                   42 1A 3B 1D 46             B.;.F
1130: 01 38 00 80 4E 00 F0 FF  FF 7F 94 01 F0 FF FF 7F  .8..N...........
1140: 27 10 1F 51 0A 01 03 27  10 20 51 0A 01 02 27 10  '..Q...'. Q...'.
1150: 21 51 0A 01 01 27 10 22  51 0A 01 01 27 10 23 51  !Q...'."Q...'.#Q
1160: 0A 01 01 27 10 24 51 0A  01 01 27 10 1D 51 0A 01  ...'.$Q...'..Q..
1170: 01 27 10 1E 51 0A 01 01  27 10 1D 51 0A 01 04 27  .'..Q...'..Q...'
1180: 10 1E 51 0A 01 03 1C 07  80 4E 01 02 51 0A 01 4E  ..Q......N..Q..N
1190: 01 01 51 0A 01 4E 01 00  51 0A 01 BA F0 FF FF 7F  ..Q..N..Q.......
11A0: 7D 80 0B 80 11 80 01 80  BA 1F 51 0A 01 7E 80 7F  }.........Q..~..
11B0: 80 11 80 01 80 BA 20 51  0A 01 80 80 81 80 82 80  ...... Q........
11C0: 83 80 BA 21 51 0A 01 84  80 0B 80 85 80 86 80 BA  ...!Q...........
11D0: 22 51 0A 01 84 80 0B 80  85 80 86 80 BA 23 51 0A  "Q...........#Q.
11E0: 01 87 80 88 80 85 80 86  80 BA 24 51 0A 01 87 80  ..........$Q....
11F0: 89 80 85 80 86 80 BA 1D  51 0A 01 87 80 0B 80 85  ........Q.......
1200: 80 86 80 BA 1E 51 0A 01  8A 80 0B 80 85 80 86 80  .....Q..........
1210: 80 F0 FF FF 7F 80 1F 51  0A 01 80 20 51 0A 01 80  .......Q... Q...
1220: 21 51 0A 01 80 22 51 0A  01 80 23 51 0A 01 80 24  !Q..."Q...#Q...$
1230: 51 0A 01 80 1D 51 0A 01  80 1E 51 0A 01 1C 17 80  Q....Q....Q.....
1240: 4A F0 FF FF 7F 21 51 0A  01 4A 1F 51 0A 01 21 51  J....!Q..J.Q..!Q
1250: 0A 01 4A 21 51 0A 01 F0  FF FF 7F 4A 22 51 0A 01  ..J!Q......J"Q..
1260: F0 FF FF 7F 4A 23 51 0A  01 21 51 0A 01 4A 24 51  ....J#Q..!Q..J$Q
1270: 0A 01 21 51 0A 01 6F 76  F0 FF FF 7F 6F 76 1F 51  ..!Q..ov....ov.Q
1280: 0A 01 6F 76 21 51 0A 01  6F 76 22 51 0A 01 6F 76  ..ov!Q..ov"Q..ov
1290: 23 51 0A 01 6F 76 24 51  0A 01 1C 17 80 7B 1F 51  #Q..ov$Q.....{.Q
12A0: 0A 01 7B 20 51 0A 01 7B  21 51 0A 01 7B 22 51 0A  ..{ Q..{!Q..{"Q.
12B0: 01 7B 23 51 0A 01 7B 24  51 0A 01 1C 07 80 5C 80  .{#Q..{$Q.....\.
12C0: 6C 80 6D 80 5C 81 6C 80  6D 80 5C 82 6C 80 6D 80  l.m.\.l.m.\.l.m.
12D0: 5C 83 6C 80 6D 80 9A 1C  07 80 27 10 F0 FF FF 7F  \.l.m.....'.....
12E0: 1E 27 10 20 51 0A 01 03  27 10 20 51 0A 01 14 27  .'. Q...'. Q...'
12F0: 10 21 51 0A 01 02 27 10  21 51 0A 01 16 29 10 22  .!Q...'.!Q...)."
1300: 51 0A 01 0C 29 10 22 51  0A 01 0F 1C 40 80 03 01  Q...)."Q....@...
1310: 00 18 80 02 01 00 2C 80  05 82 15 02 01 80 01 00  ......,.........
1320: 04 7A 15 02 01 00 1A 80  80 31 13 1A 1A 1D 01 7A  .z.......1.....z
1330: 15 02 01 00 1B 80 80 43  13 27 10 22 51 0A 01 10  .......C.'."Q...
1340: 01 7A 15 02 01 00 1C 80  80 55 13 27 10 22 51 0A  .z.......U.'."Q.
1350: 01 11 01 7A 15 02 01 00  1D 80 80 63 13 1A 3B 1D  ...z.......c..;.
1360: 01 7A 15 02 01 00 1E 80  80 8D 13 27 10 22 51 0A  .z.........'."Q.
1370: 01 0D 27 10 21 51 0A 01  03 27 10 22 51 0A 01 02  ..'.!Q...'."Q...
1380: 1A 1A 1D 27 10 21 51 0A  01 17 01 7A 15 02 01 00  ...'.!Q....z....
1390: 1F 80 80 98 13 01 7A 15  02 01 00 20 80 80 B1 13  ......z.... ....
13A0: 27 10 21 51 0A 01 18 27  10 21 51 0A 01 19 01 7A  '.!Q...'.!Q....z
13B0: 15 02 01 00 21 80 80 BC  13 01 7A 15 02 01 00 22  ....!.....z...."
13C0: 80 80 D5 13 27 10 20 51  0A 01 04 27 10 20 51 0A  ....'. Q...'. Q.
13D0: 01 15 01 7A 15 02 01 00  23 80 80 F5 13 27 10 20  ...z....#....'. 
13E0: 51 0A 01 04 27 10 F6 50  0A 01 05 27 10 21 51 0A  Q...'..P...'.!Q.
13F0: 01 13 01 7A 15 02 01 00  24 80 80 07 14 27 10 20  ...z....$....'. 
1400: 51 0A 01 04 01 7A 15 02  01 00 25 80 80 12 14 01  Q....z....%.....
1410: 7A 15 02 01 00 26 80 80  3F 14 27 10 20 51 0A 01  z....&..?.'. Q..
1420: 03 BA 20 51 0A 01 8B 80  8C 80 0F 80 8D 80 27 10  .. Q..........'.
1430: 21 51 0A 01 14 27 10 21  51 0A 01 15 01 7A 15 02  !Q...'.!Q....z..
1440: 01 00 07 80 80 51 14 27  10 21 51 0A 01 02 01 7A  .....Q.'.!Q....z
1450: 15 02 01 00 27 80 80 83  14 27 10 20 51 0A 01 04  ....'....'. Q...
1460: 27 10 20 51 0A 01 16 4A  F0 FF FF 7F 20 51 0A 01  '. Q...J.... Q..
1470: 4A 1F 51 0A 01 20 51 0A  01 27 10 20 51 0A 01 17  J.Q.. Q..'. Q...
1480: 01 7A 15 02 01 00 28 80  80 A7 14 4A 1F 51 0A 01  .z....(....J.Q..
1490: 20 51 0A 01 4A F0 FF FF  7F 20 51 0A 01 27 10 20   Q..J.... Q..'. 
14A0: 51 0A 01 18 01 7A 15 02  01 00 29 80 80 BC 14 27  Q....z....)....'
14B0: 10 20 51 0A 01 19 1A 3B  1D 01 7A 15 02 01 00 00  . Q....;..z.....
14C0: 80 80 EF 14 27 10 20 51  0A 01 03 4A 1F 51 0A 01  ....'. Q...J.Q..
14D0: F0 FF FF 7F 4A F0 FF FF  7F 1F 51 0A 01 6F 76 1F  ....J.....Q..ov.
14E0: 51 0A 01 6F 76 F0 FF FF  7F 1A 1A 1D 01 7A 15 02  Q..ov........z..
14F0: 01 00 2A 80 80 08 15 27  10 1F 51 0A 01 0A 27 10  ..*....'..Q...'.
1500: 1F 51 0A 01 0D 01 7A 15  02 01 00 2B 80 80 21 15  .Q....z....+..!.
1510: 27 10 1F 51 0A 01 0B 27  10 1F 51 0A 01 0D 01 7A  '..Q...'..Q....z
1520: 15 02 01 00 2C 80 80 3D  15 7B F0 FF FF 7F 7B 1F  ....,..=.{....{.
1530: 51 0A 01 27 10 1F 51 0A  01 12 01 7A 15 02 01 00  Q..'..Q....z....
1540: 2D 80 80 7A 15 BA F0 FF  FF 7F 8E 80 01 80 8F 80  -..z............
1550: 01 80 BA 1F 51 0A 01 90  80 91 80 8F 80 01 80 80  ....Q...........
1560: F0 FF FF 7F 80 1F 51 0A  01 27 10 1F 51 0A 01 13  ......Q..'..Q...
1570: 27 10 20 51 0A 01 13 01  7A 15 07 01 00 18 80 01  '. Q....z.......
1580: 13 13 03 01 00 18 80 02  01 00 2C 80 05 A2 15 02  ..........,.....
1590: 01 80 01 00 05 9A 15 1A  E7 15 07 01 00 18 80 01  ................
15A0: 87 15 1C 17 80 7A 00 F0  FF FF 7F 7A 00 1F 51 0A  .....z.....z..Q.
15B0: 01 1C 17 80 5C 00 41 80  5C 01 41 80 5C 02 42 80  ....\.A.\.A.\.B.
15C0: 5C 03 42 80 9A 46 00 45  43 80 F0 FF FF 7F F0 FF  \.B..F.EC.......
15D0: FF 7F 66 64 69 32 01 80  21 00 02 01 80 18 80 00  ..fdi2..!.......
15E0: E6 15 48 92 80 23 1B 02  01 00 18 80 80 15 16 45  ..H..#.........E
15F0: 45 80 F0 FF FF 7F F0 FF  FF 7F 71 30 30 31 01 80  E.........q001..
1600: 1A 1A 1D 55 45 80 F0 FF  FF 7F F0 FF FF 7F 71 30  ...UE.........q0
1610: 30 31 01 D7 1C 02 01 00  1A 80 80 47 16 45 45 80  01.........G.EE.
1620: F0 FF FF 7F F0 FF FF 7F  71 30 30 32 01 80 29 10  ........q002..).
1630: 22 51 0A 01 10 55 45 80  F0 FF FF 7F F0 FF FF 7F  "Q...UE.........
1640: 71 30 30 32 01 D7 1C 02  01 00 1B 80 80 7E 16 45  q002.........~.E
1650: 45 80 F0 FF FF 7F F0 FF  FF 7F 71 32 30 31 01 80  E.........q201..
1660: 5D 01 80 93 80 29 10 22  51 0A 01 11 55 45 80 F0  ]....)."Q...UE..
1670: FF FF 7F F0 FF FF 7F 71  32 30 31 01 D7 1C 02 01  .......q201.....
1680: 00 1C 80 80 B9 16 45 45  80 F0 FF FF 7F F0 FF FF  ......EE........
1690: 7F 71 33 30 31 01 80 1C  40 80 27 10 F0 FF FF 7F  .q301...@.'.....
16A0: 1F 1C 7B 80 1A 3B 1D 55  45 80 F0 FF FF 7F F0 FF  ..{..;.UE.......
16B0: FF 7F 71 33 30 31 01 D7  1C 02 01 00 1D 80 80 18  ..q301..........
16C0: 17 27 10 22 51 0A 01 0D  27 10 21 51 0A 01 03 27  .'."Q...'.!Q...'
16D0: 10 22 51 0A 01 02 48 94  80 23 1C 40 80 45 45 80  ."Q...H..#.@.EE.
16E0: F0 FF FF 7F F0 FF FF 7F  71 30 30 33 01 80 1A 1A  ........q003....
16F0: 1D 27 10 21 51 0A 01 17  2B 21 51 0A 01 92 80 23  .'.!Q...+!Q....#
1700: 2A 10 21 51 0A 01 52 45  80 F0 FF FF 7F F0 FF FF  *.!Q..RE........
1710: 7F 71 30 30 33 01 D7 1C  02 01 00 1E 80 80 23 17  .q003.........#.
1720: 01 D7 1C 02 01 00 1F 80  80 B2 17 45 45 80 F0 FF  ...........EE...
1730: FF 7F F0 FF FF 7F 71 30  30 35 01 80 1C 02 80 27  ......q005.....'
1740: 10 21 51 0A 01 18 2B 21  51 0A 01 95 80 23 2A 10  .!Q...+!Q....#*.
1750: 21 51 0A 01 5C 00 96 80  5C 01 96 80 5C 02 96 80  !Q..\...\...\...
1760: 5C 03 96 80 9A 52 45 80  F0 FF FF 7F F0 FF FF 7F  \....RE.........
1770: 71 30 30 35 45 45 80 F0  FF FF 7F F0 FF FF 7F 71  q005EE.........q
1780: 31 30 35 01 80 1C 17 80  27 10 21 51 0A 01 19 1C  105.....'.!Q....
1790: 17 80 2B 21 51 0A 01 97  80 23 2A 10 21 51 0A 01  ..+!Q....#*.!Q..
17A0: 52 45 80 F0 FF FF 7F F0  FF FF 7F 71 31 30 35 01  RE.........q105.
17B0: D7 1C 02 01 00 20 80 80  21 18 45 45 80 F0 FF FF  ..... ..!.EE....
17C0: 7F F0 FF FF 7F 71 30 30  38 01 80 27 10 20 51 0A  .....q008..'. Q.
17D0: 01 04 27 10 20 51 0A 01  15 2B 21 51 0A 01 98 80  ..'. Q...+!Q....
17E0: 55 45 80 F0 FF FF 7F F0  FF FF 7F 71 30 30 38 45  UE.........q008E
17F0: 45 80 F0 FF FF 7F F0 FF  FF 7F 71 31 30 36 01 80  E.........q106..
1800: 27 10 20 51 0A 01 03 2B  21 51 0A 01 99 80 23 52  '. Q...+!Q....#R
1810: 45 80 F0 FF FF 7F F0 FF  FF 7F 71 31 30 36 01 D7  E.........q106..
1820: 1C 02 01 00 21 80 80 2C  18 01 D7 1C 02 01 00 22  ....!..,......."
1830: 80 80 75 18 45 45 80 F0  FF FF 7F F0 FF FF 7F 71  ..u.EE.........q
1840: 31 30 38 01 80 2B 21 51  0A 01 9A 80 23 2B 21 51  108..+!Q....#+!Q
1850: 0A 01 9B 80 23 27 10 F6  50 0A 01 05 29 10 21 51  ....#'..P...).!Q
1860: 0A 01 13 52 45 80 F0 FF  FF 7F F0 FF FF 7F 71 31  ...RE.........q1
1870: 30 38 01 D7 1C 02 01 00  23 80 80 B0 18 45 45 80  08......#....EE.
1880: F0 FF FF 7F F0 FF FF 7F  71 30 30 61 01 80 2B 21  ........q00a..+!
1890: 51 0A 01 9C 80 23 2B 21  51 0A 01 9D 80 23 52 45  Q....#+!Q....#RE
18A0: 80 F0 FF FF 7F F0 FF FF  7F 71 30 30 61 01 D7 1C  .........q00a...
18B0: 02 01 00 24 80 80 EB 18  45 45 80 F0 FF FF 7F F0  ...$....EE......
18C0: FF FF 7F 71 30 30 62 01  80 2B 21 51 0A 01 9E 80  ...q00b..+!Q....
18D0: 23 2B 21 51 0A 01 9F 80  23 52 45 80 F0 FF FF 7F  #+!Q....#RE.....
18E0: F0 FF FF 7F 71 30 30 62  01 D7 1C 02 01 00 25 80  ....q00b......%.
18F0: 80 4E 19 BA 20 51 0A 01  8B 80 8C 80 0F 80 8D 80  .N.. Q..........
1900: 45 45 80 F0 FF FF 7F F0  FF FF 7F 71 30 30 65 01  EE.........q00e.
1910: 80 27 10 21 51 0A 01 14  2B 21 51 0A 01 A0 80 23  .'.!Q...+!Q....#
1920: 2A 10 21 51 0A 01 2B 21  51 0A 01 A1 80 5D 01 80  *.!Q..+!Q....]..
1930: 02 80 27 10 21 51 0A 01  15 1C 4D 80 52 45 80 F0  ..'.!Q....M.RE..
1940: FF FF 7F F0 FF FF 7F 71  30 30 65 01 D7 1C 02 01  .......q00e.....
1950: 00 26 80 80 E0 19 45 45  80 F0 FF FF 7F F0 FF FF  .&....EE........
1960: 7F 71 30 30 66 01 80 1C  40 80 27 10 21 51 0A 01  .q00f...@.'.!Q..
1970: 02 1C 40 80 4A 23 51 0A  01 1D 51 0A 01 4A 24 51  ..@.J#Q...Q..J$Q
1980: 0A 01 1D 51 0A 01 6F 76  23 51 0A 01 6F 76 24 51  ...Q..ov#Q..ov$Q
1990: 0A 01 4A 23 51 0A 01 1E  51 0A 01 4A 24 51 0A 01  ..J#Q...Q..J$Q..
19A0: 1E 51 0A 01 7B 23 51 0A  01 7B 24 51 0A 01 6F 76  .Q..{#Q..{$Q..ov
19B0: 23 51 0A 01 6F 76 24 51  0A 01 1C 17 80 27 10 23  #Q..ov$Q.....'.#
19C0: 51 0A 01 09 1C 22 80 27  10 24 51 0A 01 09 55 45  Q....".'.$Q...UE
19D0: 80 F0 FF FF 7F F0 FF FF  7F 71 30 30 66 01 D7 1C  .........q00f...
19E0: 02 01 00 07 80 80 76 1A  27 10 20 51 0A 01 16 1C  ......v.'. Q....
19F0: 40 80 45 45 80 F0 FF FF  7F F0 FF FF 7F 71 31 30  @.EE.........q10
1A00: 66 01 80 27 10 20 51 0A  01 04 4E 01 23 51 0A 01  f..'. Q...N.#Q..
1A10: 4E 01 24 51 0A 01 1C A2  80 79 00 F0 FF FF 7F 20  N.$Q.....y..... 
1A20: 51 0A 01 1C A3 80 4A F0  FF FF 7F 20 51 0A 01 1C  Q.....J.... Q...
1A30: 22 80 4A 1F 51 0A 01 20  51 0A 01 1C A4 80 27 10  ".J.Q.. Q.....'.
1A40: 20 51 0A 01 17 2A 10 20  51 0A 01 5C 80 A5 80 6D   Q...*. Q..\...m
1A50: 80 5C 81 A5 80 6D 80 5C  82 A5 80 6D 80 5C 83 A5  .\...m.\...m.\..
1A60: 80 6D 80 9A 55 45 80 F0  FF FF 7F F0 FF FF 7F 71  .m..UE.........q
1A70: 31 30 66 01 D7 1C 02 01  00 27 80 80 D1 1A 1C 40  10f......'.....@
1A80: 80 45 45 80 F0 FF FF 7F  F0 FF FF 7F 71 30 30 67  .EE.........q00g
1A90: 01 80 1C 40 80 4A 1F 51  0A 01 20 51 0A 01 1C 22  ...@.J.Q.. Q..."
1AA0: 80 4A F0 FF FF 7F 20 51  0A 01 27 10 20 51 0A 01  .J.... Q..'. Q..
1AB0: 18 2B 20 51 0A 01 A6 80  23 2A 10 20 51 0A 01 52  .+ Q....#*. Q..R
1AC0: 45 80 F0 FF FF 7F F0 FF  FF 7F 71 30 30 67 01 D7  E.........q00g..
1AD0: 1C 02 01 00 28 80 80 18  1B 1C 07 80 45 45 80 F0  ....(.......EE..
1AE0: FF FF 7F F0 FF FF 7F 71  30 30 68 01 80 2B 20 51  .......q00h..+ Q
1AF0: 0A 01 A7 80 27 10 20 51  0A 01 19 1C A8 80 5D 01  ....'. Q......].
1B00: 80 02 80 1A 3B 1D 52 45  80 F0 FF FF 7F F0 FF FF  ....;.RE........
1B10: 7F 71 30 30 68 01 D7 1C  02 01 00 29 80 80 87 1B  .q00h......)....
1B20: 27 10 20 51 0A 01 03 4A  1F 51 0A 01 F0 FF FF 7F  '. Q...J.Q......
1B30: 4A F0 FF FF 7F 1F 51 0A  01 6F 76 1F 51 0A 01 6F  J.....Q..ov.Q..o
1B40: 76 F0 FF FF 7F 48 94 80  23 1C 3D 80 45 45 80 F0  v....H..#.=.EE..
1B50: FF FF 7F F0 FF FF 7F 71  30 30 69 01 80 1A 1A 1D  .......q00i.....
1B60: 2B 1F 51 0A 01 A9 80 23  59 03 1F 51 0A 01 A3 80  +.Q....#Y..Q....
1B70: 7B 1F 51 0A 01 52 45 80  F0 FF FF 7F F0 FF FF 7F  {.Q..RE.........
1B80: 71 30 30 69 01 D7 1C 02  01 00 00 80 80 EB 1B 45  q00i...........E
1B90: 45 80 F0 FF FF 7F F0 FF  FF 7F 71 30 30 6A 01 80  E.........q00j..
1BA0: 27 10 1F 51 0A 01 0A 2B  1F 51 0A 01 AA 80 23 2B  '..Q...+.Q....#+
1BB0: 1F 51 0A 01 AB 80 23 27  10 1F 51 0A 01 0D 79 00  .Q....#'..Q...y.
1BC0: 1F 51 0A 01 F0 FF FF 7F  5C 00 AC 80 5C 01 AC 80  .Q......\...\...
1BD0: 5C 02 AC 80 5C 03 AC 80  9A 52 45 80 F0 FF FF 7F  \...\....RE.....
1BE0: F0 FF FF 7F 71 30 30 6A  01 D7 1C 02 01 00 2A 80  ....q00j......*.
1BF0: 80 F6 1B 01 D7 1C 02 01  00 2B 80 80 61 1C 45 45  .........+..a.EE
1C00: 80 F0 FF FF 7F F0 FF FF  7F 71 30 30 6C 01 80 27  .........q00l..'
1C10: 10 1F 51 0A 01 0B 2B 1F  51 0A 01 AD 80 1C 02 80  ..Q...+.Q.......
1C20: 2B 1F 51 0A 01 AE 80 27  10 1F 51 0A 01 0D 1C A4  +.Q....'..Q.....
1C30: 80 7B F0 FF FF 7F 7B 1F  51 0A 01 27 10 1F 51 0A  .{....{.Q..'..Q.
1C40: 01 12 1C 40 80 27 10 F0  FF FF 7F 20 1C 7B 80 52  ...@.'..... .{.R
1C50: 45 80 F0 FF FF 7F F0 FF  FF 7F 71 30 30 6C 01 D7  E.........q00l..
1C60: 1C 02 01 00 2C 80 80 D7  1C 45 45 80 F0 FF FF 7F  ....,....EE.....
1C70: F0 FF FF 7F 71 31 30 6C  01 80 7A 00 1F 51 0A 01  ....q10l..z..Q..
1C80: 7A 00 F0 FF FF 7F 1C 07  80 BA F0 FF FF 7F AF 80  z...............
1C90: 01 80 8F 80 01 80 BA 1F  51 0A 01 B0 80 91 80 8F  ........Q.......
1CA0: 80 01 80 80 F0 FF FF 7F  80 1F 51 0A 01 1C 07 80  ..........Q.....
1CB0: 27 10 1F 51 0A 01 13 27  10 20 51 0A 01 13 27 10  '..Q...'. Q...'.
1CC0: F0 FF FF 7F 21 55 45 80  F0 FF FF 7F F0 FF FF 7F  ....!UE.........
1CD0: 71 31 30 6C 01 D7 1C 1B  45 43 80 F0 FF FF 7F F0  q10l....EC......
1CE0: FF FF 7F 66 64 69 30 01  80 55 43 80 F0 FF FF 7F  ...fdi0..UC.....
1CF0: F0 FF FF 7F 66 64 69 30  1B 45 43 80 F0 FF FF 7F  ....fdi0.EC.....
1D00: F0 FF FF 7F 66 64 6F 30  01 80 55 43 80 F0 FF FF  ....fdo0..UC....
1D10: 7F F0 FF FF 7F 66 64 6F  30 1B 45 43 80 F0 FF FF  .....fdo0.EC....
1D20: 7F F0 FF FF 7F 66 64 69  31 01 80 55 43 80 F0 FF  .....fdi1..UC...
1D30: FF 7F F0 FF FF 7F 66 64  69 31 1B 45 43 80 F0 FF  ......fdi1.EC...
1D40: FF 7F F0 FF FF 7F 66 64  6F 31 01 80 55 43 80 F0  ......fdo1..UC..
1D50: FF FF 7F F0 FF FF 7F 66  64 6F 31 1B 45 B1 80 F0  .......fdo1.E...
1D60: FF FF 7F F0 FF FF 7F 77  68 69 31 01 80 55 B1 80  .......whi1..U..
1D70: F0 FF FF 7F F0 FF FF 7F  77 68 69 31 1B 45 B1 80  ........whi1.E..
1D80: F0 FF FF 7F F0 FF FF 7F  77 68 6F 31 01 80 55 B1  ........who1..U.
1D90: 80 F0 FF FF 7F F0 FF FF  7F 77 68 6F 31 1B 45 B1  .........who1.E.
1DA0: 80 F0 FF FF 7F F0 FF FF  7F 77 68 69 30 01 80 55  .........whi0..U
1DB0: B1 80 F0 FF FF 7F F0 FF  FF 7F 77 68 69 30 1B 45  ..........whi0.E
1DC0: B1 80 F0 FF FF 7F F0 FF  FF 7F 77 68 6F 30 01 80  ..........who0..
1DD0: 55 B1 80 F0 FF FF 7F F0  FF FF 7F 77 68 6F 30 1B  U..........who0.
1DE0: 45 B2 80 F0 FF FF 7F F0  FF FF 7F 65 66 6F 6E 01  E..........efon.
1DF0: 80 55 B2 80 F0 FF FF 7F  F0 FF FF 7F 65 66 6F 6E  .U..........efon
1E00: 1B                                                .               
```

#### Opcodes

```
  0: 0x112B [0x42] SET_CLI_EVENT_CANCEL_DATA()
  1: 0x112C [0x1A] CALL_SUBROUTINE(address=0x1D3B)
  2: 0x112F [0x46] CAMERA_CONTROL: Disable user control
  3: 0x1131 [0x38] SET_CLIENT_EVENT_MODE(mode=19*)
  4: 0x1134 [0x4E] SET_ENTITY_HIDE_FLAG: Show LocalPlayer
  5: 0x113A [0x94] LocalPlayer->Render.Flags3 ^= 0x01
  6: 0x1140 [0x27] REQ_SET(priority=0x10, entity_id=Moogle (ID: 17453343/0x010A511F), tag_num=0x03)
  7: 0x1147 [0x27] REQ_SET(priority=0x10, entity_id=Toto Kupeliaure (ID: 17453344/0x010A5120), tag_num=0x02)
  8: 0x114E [0x27] REQ_SET(priority=0x10, entity_id=Riko Kupenreich (ID: 17453345/0x010A5121), tag_num=0x01)
  9: 0x1155 [0x27] REQ_SET(priority=0x10, entity_id=Riko Kupenreich (ID: 17453346/0x010A5122), tag_num=0x01)
 10: 0x115C [0x27] REQ_SET(priority=0x10, entity_id=1 (ID: 17453347/0x010A5123), tag_num=0x01)
 11: 0x1163 [0x27] REQ_SET(priority=0x10, entity_id=2 (ID: 17453348/0x010A5124), tag_num=0x01)
 12: 0x116A [0x27] REQ_SET(priority=0x10, entity_id=??? (ID: 17453341/0x010A511D), tag_num=0x01)
 13: 0x1171 [0x27] REQ_SET(priority=0x10, entity_id=Unnamed NPC (ID: 17453342/0x010A511E), tag_num=0x01)
 14: 0x1178 [0x27] REQ_SET(priority=0x10, entity_id=??? (ID: 17453341/0x010A511D), tag_num=0x04)
 15: 0x117F [0x27] REQ_SET(priority=0x10, entity_id=Unnamed NPC (ID: 17453342/0x010A511E), tag_num=0x03)
 16: 0x1186 [0x1C] WAIT(15* ticks)
 17: 0x1189 [0x4E] SET_ENTITY_HIDE_FLAG: Hide Lion (ID: 17453314/0x010A5102)
 18: 0x118F [0x4E] SET_ENTITY_HIDE_FLAG: Hide Cornelia (ID: 17453313/0x010A5101)
 19: 0x1195 [0x4E] SET_ENTITY_HIDE_FLAG: Hide Raogrimm (ID: 17453312/0x010A5100)
 20: 0x119B [0xBA] SET_ENTITY_POSITION(entity_id=LocalPlayer, pos_x=-464.000*, pos_z=-240.000*, pos_y=-167.200*, direction=0.0°*)
 21: 0x11A8 [0xBA] SET_ENTITY_POSITION(entity_id=Moogle (ID: 17453343/0x010A511F), pos_x=-463.000*, pos_z=-241.500*, pos_y=-167.200*, direction=0.0°*)
 22: 0x11B5 [0xBA] SET_ENTITY_POSITION(entity_id=Toto Kupeliaure (ID: 17453344/0x010A5120), pos_x=-468.122*, pos_z=-238.670*, pos_y=-167.000*, direction=272.5°*)
 23: 0x11C2 [0xBA] SET_ENTITY_POSITION(entity_id=Riko Kupenreich (ID: 17453345/0x010A5121), pos_x=-459.350*, pos_z=-240.000*, pos_y=-167.025*, direction=180.1°*)
