# 0x7FFFFFF0 - Zone Events

## Common Data

| Field            | Value                 |
|------------------|-----------------------|
| Zone             | Throne Room (ID: 165) |
| Block Size       | 24312 bytes           |
| Total Events     | 43                    |
| References Count | 557                   |

## List of Events

| Event ID                   | Entrypoint   |   Size |   Instructions |
|----------------------------|--------------|--------|----------------|
| [65535](#event-65535)      | 0x0000       |      1 |              1 |
| [65534](#event-65534)      | 0x0001       |      1 |              1 |
| [65535.1](#event-655351)   | 0x0002       |     15 |              5 |
| [65535.2](#event-655352)   | 0x0011       |     15 |              5 |
| [65535.3](#event-655353)   | 0x0020       |     10 |              2 |
| [65535.4](#event-655354)   | 0x002A       |     24 |              6 |
| [65535.5](#event-655355)   | 0x0042       |     10 |              2 |
| [32000](#event-32000)      | 0x004C       |   2172 |            424 |
| [32002](#event-32002)      | 0x08C8       |    494 |             83 |
| [32001](#event-32001)      | 0x0AB6       |   1103 |            194 |
| [32003](#event-32003)      | 0x0F05       |    435 |             77 |
| [32004](#event-32004)      | 0x10B8       |   2453 |            348 |
| [32005](#event-32005)      | 0x1A4D       |    626 |            114 |
| [11](#event-11)            | 0x1CBF       |     10 |              5 |
| [12](#event-12)            | 0x1CC9       |     10 |              5 |
| [13](#event-13)            | 0x1CD3       |  13905 |           1776 |
| [65535.6](#event-655356)   | 0x5324       |     24 |              4 |
| [65535.7](#event-655357)   | 0x533C       |     24 |              4 |
| [65535.8](#event-655358)   | 0x5354       |     16 |              4 |
| [65535.9](#event-655359)   | 0x5364       |     45 |              7 |
| [65535.10](#event-6553510) | 0x5391       |     15 |              5 |
| [65535.11](#event-6553511) | 0x53A0       |     25 |              6 |
| [65535.12](#event-6553512) | 0x53B9       |     16 |              4 |
| [65535.13](#event-6553513) | 0x53C9       |      9 |              3 |
| [65535.14](#event-6553514) | 0x53D2       |     37 |              5 |
| [65535.15](#event-6553515) | 0x53F7       |    185 |             37 |
| [65535.16](#event-6553516) | 0x54B0       |      9 |              3 |
| [65535.17](#event-6553517) | 0x54B9       |     14 |              4 |
| [65535.18](#event-6553518) | 0x54C7       |      4 |              2 |
| [65535.19](#event-6553519) | 0x54CB       |     13 |              3 |
| [65535.20](#event-6553520) | 0x54D8       |      7 |              3 |
| [65535.21](#event-6553521) | 0x54DF       |      7 |              3 |
| [65535.22](#event-6553522) | 0x54E6       |     16 |              4 |
| [65535.23](#event-6553523) | 0x54F6       |     16 |              4 |
| [65535.24](#event-6553524) | 0x5506       |     32 |              8 |
| [65535.25](#event-6553525) | 0x5526       |      6 |              2 |
| [65535.26](#event-6553526) | 0x552C       |      7 |              3 |
| [65535.27](#event-6553527) | 0x5533       |      7 |              3 |
| [65535.28](#event-6553528) | 0x553A       |     15 |              5 |
| [65535.29](#event-6553529) | 0x5549       |     15 |              5 |
| [65535.30](#event-6553530) | 0x5558       |     15 |              5 |
| [65535.31](#event-6553531) | 0x5567       |     15 |              5 |
| [65535.32](#event-6553532) | 0x5576       |     15 |              5 |

## DAT References (imed_data)

|   Index | Hex Value   |   Dec Value |
|---------|-------------|-------------|
|       0 | 0x000D      |          13 |
|       1 | 0xFFF8F129  |  4294504745 |
|       2 | 0xFFFC5949  |  4294728009 |
|       3 | 0xFFFD72E1  |  4294800097 |
|       4 | 0xFFF91262  |  4294513250 |
|       5 | 0xFFFC57B4  |  4294727604 |
|       6 | 0xFFFD7339  |  4294800185 |
|       7 | 0xFFF94F7E  |  4294528894 |
|       8 | 0xFFFC56F4  |  4294727412 |
|       9 | 0xFFFD7343  |  4294800195 |
|      10 | 0x0020      |          32 |
|      11 | 0x0028      |          40 |
|      12 | 0xFFF980DA  |  4294541530 |
|      13 | 0xFFFC5580  |  4294727040 |
|      14 | 0xFFFD73A8  |  4294800296 |
|      15 | 0xFFF9AD07  |  4294552839 |
|      16 | 0xFFFC5733  |  4294727475 |
|      17 | 0xFFFD74A2  |  4294800546 |
|      18 | 0x000C      |          12 |
|      19 | 0x5B6DC     |      374492 |
|      20 | 0xFFFFAD41  |  4294946113 |
|      21 | 0xFFFFD11B  |  4294955291 |
|      22 | 0x0ECF      |        3791 |
|      23 | 0x0000      |           0 |
|      24 | 0x000F      |          15 |
|      25 | 0x0010      |          16 |
|      26 | 0x001F      |          31 |
|      27 | 0xFFFFFFFF  |  4294967295 |
|      28 | 0x0001      |           1 |
|      29 | 0x1DB5      |        7605 |
|      30 | 0x1DA8      |        7592 |
|      31 | 0x0005      |           5 |
|      32 | 0x0002      |           2 |
|      33 | 0x0003      |           3 |
|      34 | 0x0004      |           4 |
|      35 | 0x1C3B      |        7227 |
|      36 | 0x00FF      |         255 |
|      37 | 0x00C8      |         200 |
|      38 | 0x0013      |          19 |
|      39 | 0x0008      |           8 |
|      40 | 0x0009      |           9 |
|      41 | 0x000B      |          11 |
|      42 | 0x1C46      |        7238 |
|      43 | 0x1C47      |        7239 |
|      44 | 0x1C48      |        7240 |
|      45 | 0x1C49      |        7241 |
|      46 | 0x1C6D      |        7277 |
|      47 | 0x0006      |           6 |
|      48 | 0x0007      |           7 |
|      49 | 0x000A      |          10 |
|      50 | 0x000E      |          14 |
|      51 | 0x0011      |          17 |
|      52 | 0x0012      |          18 |
|      53 | 0x0014      |          20 |
|      54 | 0x0015      |          21 |
|      55 | 0x0016      |          22 |
|      56 | 0x0017      |          23 |
|      57 | 0x0018      |          24 |
|      58 | 0x0019      |          25 |
|      59 | 0x001A      |          26 |
|      60 | 0x001B      |          27 |
|      61 | 0x001C      |          28 |
|      62 | 0x001D      |          29 |
|      63 | 0x001E      |          30 |
|      64 | 0x1DA2      |        7586 |
|      65 | 0x1DA7      |        7591 |
|      66 | 0x1DA6      |        7590 |
|      67 | 0x003C      |          60 |
|      68 | 0x1DB3      |        7603 |
|      69 | 0x1DB2      |        7602 |
|      70 | 0x0064      |         100 |
|      71 | 0x1D8E      |        7566 |
|      72 | 0x0077      |         119 |
|      73 | 0x0031      |          49 |
|      74 | 0x00FE      |         254 |
|      75 | 0x1C3E      |        7230 |
|      76 | 0x00C9      |         201 |
|      77 | 0x009B      |         155 |
|      78 | 0x00B4      |         180 |
|      79 | 0xFFF6C42B  |  4294362155 |
|      80 | 0x752B9     |      479929 |
|      81 | 0xFFFFA767  |  4294944615 |
|      82 | 0x03E0      |         992 |
|      83 | 0xFFFBFE43  |  4294704707 |
|      84 | 0x5C401     |      377857 |
|      85 | 0xFFFDE79F  |  4294829983 |
|      86 | 0x0D92      |        3474 |
|      87 | 0x47AC      |       18348 |
|      88 | 0x76E1C     |      486940 |
|      89 | 0xFFFC93B2  |  4294742962 |
|      90 | 0x00C2      |         194 |
|      91 | 0x388A9     |      231593 |
|      92 | 0x57E9E     |      360094 |
|      93 | 0xFFFD59FC  |  4294793724 |
|      94 | 0x0726      |        1830 |
|      95 | 0x872C0     |      553664 |
|      96 | 0x7FEA3     |      523939 |
|      97 | 0xFFFF6AC3  |  4294929091 |
|      98 | 0x0A65      |        2661 |
|      99 | 0xFFFFFF9B  |  4294967195 |
|     100 | 0xFFF2A593  |  4294092179 |
|     101 | 0xFFFF548C  |  4294923404 |
|     102 | 0xFFFF442C  |  4294919212 |
|     103 | 0x0201      |         513 |
|     104 | 0xFFF478D5  |  4294211797 |
|     105 | 0x89AEB     |      563947 |
|     106 | 0xFFFE4A5D  |  4294855261 |
|     107 | 0x0DEF      |        3567 |
|     108 | 0x1E173     |      123251 |
|     109 | 0xB8221     |      754209 |
|     110 | 0xFFFD5FA4  |  4294795172 |
|     111 | 0x01B8      |         440 |
|     112 | 0xFFF81ECC  |  4294450892 |
|     113 | 0xFFF3BE05  |  4294163973 |
|     114 | 0x5E8E      |       24206 |
|     115 | 0x01B5      |         437 |
|     116 | 0x012C      |         300 |
|     117 | 0x0080      |         128 |
|     118 | 0xFFF690A7  |  4294348967 |
|     119 | 0xFFF62CE4  |  4294323428 |
|     120 | 0xFFFF9B33  |  4294941491 |
|     121 | 0x0EB1      |        3761 |
|     122 | 0xFFFAEE7D  |  4294635133 |
|     123 | 0xFFF941C6  |  4294525382 |
|     124 | 0xFFFE8CB1  |  4294872241 |
|     125 | 0x0EB0      |        3760 |
|     126 | 0xFFFFCF50  |  4294954832 |
|     127 | 0xFFF61B47  |  4294318919 |
|     128 | 0xFFFD07BB  |  4294772667 |
|     129 | 0x0EBA      |        3770 |
|     130 | 0x4EF35     |      323381 |
|     131 | 0xFFF93A6F  |  4294523503 |
|     132 | 0xFFFE5868  |  4294858856 |
|     133 | 0x0EA0      |        3744 |
|     134 | 0x92763     |      599907 |
|     135 | 0xFFF5AB97  |  4294290327 |
|     136 | 0xFFFFA837  |  4294944823 |
|     137 | 0x0EB3      |        3763 |
|     138 | 0x16139     |       90425 |
|     139 | 0x0059      |          89 |
|     140 | 0xFFFFE98B  |  4294961547 |
|     141 | 0x0034      |          52 |
|     142 | 0x00A8      |         168 |
|     143 | 0x30D7B     |      200059 |
|     144 | 0xFFFFAA3A  |  4294945338 |
|     145 | 0xFFFFFF06  |  4294967046 |
|     146 | 0x0411      |        1041 |
|     147 | 0x00CA      |         202 |
|     148 | 0x837EC     |      538604 |
|     149 | 0x7A88C     |      501900 |
|     150 | 0xFFFFC98A  |  4294953354 |
|     151 | 0x0CBC      |        3260 |
|     152 | 0x00CB      |         203 |
|     153 | 0x870F5     |      553205 |
|     154 | 0x8FF41     |      589633 |
|     155 | 0xFFFFFFEB  |  4294967275 |
|     156 | 0x0587      |        1415 |
|     157 | 0x00D3      |         211 |
|     158 | 0x8AF88     |      569224 |
|     159 | 0x85E6E     |      548462 |
|     160 | 0x8FE5      |       36837 |
|     161 | 0x02A1      |         673 |
|     162 | 0x009D      |         157 |
|     163 | 0x0024      |          36 |
|     164 | 0x1D90      |        7568 |
|     165 | 0x1D8F      |        7567 |
|     166 | 0x1DB1      |        7601 |
|     167 | 0x1D92      |        7570 |
|     168 | 0x1D91      |        7569 |
|     169 | 0x0078      |         120 |
|     170 | 0x0041      |          65 |
|     171 | 0x00FB      |         251 |
|     172 | 0x032A      |         810 |
|     173 | 0x023A      |         570 |
|     174 | 0x002D      |          45 |
|     175 | 0xFFF92E18  |  4294520344 |
|     176 | 0xFFFC568A  |  4294727306 |
|     177 | 0x0803      |        2051 |
|     178 | 0xFFF93526  |  4294522150 |
|     179 | 0xFFFC5689  |  4294727305 |
|     180 | 0x07DC      |        2012 |
|     181 | 0xFFF935D5  |  4294522325 |
|     182 | 0xFFFC4FEF  |  4294725615 |
|     183 | 0x0823      |        2083 |
|     184 | 0xFFF93654  |  4294522452 |
|     185 | 0xFFFC5C74  |  4294728820 |
|     186 | 0x06FE      |        1790 |
|     187 | 0xFFF92D60  |  4294520160 |
|     188 | 0xFFFC4A9A  |  4294724250 |
|     189 | 0x08D1      |        2257 |
|     190 | 0xFFF92E61  |  4294520417 |
|     191 | 0xFFFC61B3  |  4294730163 |
|     192 | 0xFFFD7384  |  4294800260 |
|     193 | 0x073D      |        1853 |
|     194 | 0xFFF44C64  |  4294200420 |
|     195 | 0xFFF8ACF2  |  4294487282 |
|     196 | 0xFFF9C961  |  4294560097 |
|     197 | 0x0812      |        2066 |
|     198 | 0xFFF45479  |  4294202489 |
|     199 | 0xFFF8AC33  |  4294487091 |
|     200 | 0x07E3      |        2019 |
|     201 | 0xFFF4544C  |  4294202444 |
|     202 | 0xFFF8A291  |  4294484625 |
|     203 | 0x08A1      |        2209 |
|     204 | 0xFFF45432  |  4294202418 |
|     205 | 0xFFF8B70B  |  4294489867 |
|     206 | 0x076E      |        1902 |
|     207 | 0xFFF44B63  |  4294200163 |
|     208 | 0xFFF8A045  |  4294484037 |
|     209 | 0xFFF9CA28  |  4294560296 |
|     210 | 0x08DF      |        2271 |
|     211 | 0xFFF44BC9  |  4294200265 |
|     212 | 0xFFF8B913  |  4294490387 |
|     213 | 0xFFF9CA16  |  4294560278 |
|     214 | 0x070A      |        1802 |
|     215 | 0xFFEF6AFB  |  4293880571 |
|     216 | 0xFFF50374  |  4294247284 |
|     217 | 0xFFF61FE2  |  4294320098 |
|     218 | 0x07EF      |        2031 |
|     219 | 0xFFEF72AE  |  4293882542 |
|     220 | 0xFFF502EA  |  4294247146 |
|     221 | 0xFFF61FE1  |  4294320097 |
|     222 | 0x07D3      |        2003 |
|     223 | 0xFFEF71DE  |  4293882334 |
|     224 | 0xFFF4FA2E  |  4294244910 |
|     225 | 0x08C9      |        2249 |
|     226 | 0xFFEF725F  |  4293882463 |
|     227 | 0xFFF50C7B  |  4294249595 |
|     228 | 0x074F      |        1871 |
|     229 | 0xFFEF695B  |  4293880155 |
|     230 | 0xFFF4F684  |  4294243972 |
|     231 | 0xFFF620A8  |  4294320296 |
|     232 | 0x08F4      |        2292 |
|     233 | 0xFFEF6A83  |  4293880451 |
|     234 | 0xFFF50F96  |  4294250390 |
|     235 | 0xFFF62070  |  4294320240 |
|     236 | 0x06DB      |        1755 |
|     237 | 0xFFF8F38F  |  4294505359 |
|     238 | 0xFFFC5A0E  |  4294728206 |
|     239 | 0x04EC      |        1260 |
|     240 | 0x01E0      |         480 |
|     241 | 0xFFF94304  |  4294525700 |
|     242 | 0xFFFC55CA  |  4294727114 |
|     243 | 0x07B0      |        1968 |
|     244 | 0xFFF46137  |  4294205751 |
|     245 | 0xFFF8AC53  |  4294487123 |
|     246 | 0x07E0      |        2016 |
|     247 | 0xFFEF7FD9  |  4293885913 |
|     248 | 0xFFF502E2  |  4294247138 |
|     249 | 0x0801      |        2049 |
|     250 | 0xFFF90DA5  |  4294512037 |
|     251 | 0xFFFC585F  |  4294727775 |
|     252 | 0x07FC      |        2044 |
|     253 | 0x054A      |        1354 |
|     254 | 0x052B      |        1323 |
|     255 | 0x017B      |         379 |
|     256 | 0x1E44      |        7748 |
|     257 | 0x010E      |         270 |
|     258 | 0x0093      |         147 |
|     259 | 0xFFF915DF  |  4294514143 |
|     260 | 0xFFFC54CD  |  4294726861 |
|     261 | 0xFFFD733F  |  4294800191 |
|     262 | 0x08A4      |        2212 |
|     263 | 0xFFF916C4  |  4294514372 |
|     264 | 0xFFFC5D26  |  4294728998 |
|     265 | 0xFFFD72C9  |  4294800073 |
|     266 | 0x0802      |        2050 |
|     267 | 0xFFF8F76C  |  4294506348 |
|     268 | 0xFFFC4C96  |  4294724758 |
|     269 | 0x07EA      |        2026 |
|     270 | 0xFFF8E1E6  |  4294500838 |
|     271 | 0xFFFC5147  |  4294725959 |
|     272 | 0xFFFD738E  |  4294800270 |
|     273 | 0x007B      |         123 |
|     274 | 0xFFF8DA59  |  4294498905 |
|     275 | 0xFFFC5CE3  |  4294728931 |
|     276 | 0x01F4      |         500 |
|     277 | 0xFFF870C7  |  4294471879 |
|     278 | 0xFFFC562D  |  4294727213 |
|     279 | 0xFFFD5080  |  4294791296 |
|     280 | 0xFFF87E67  |  4294475367 |
|     281 | 0xFFFC4AD4  |  4294724308 |
|     282 | 0xFFFD6021  |  4294795297 |
|     283 | 0x0815      |        2069 |
|     284 | 0xFFF89742  |  4294481730 |
|     285 | 0xFFFC57AC  |  4294727596 |
|     286 | 0xFFFD6020  |  4294795296 |
|     287 | 0xFFF8F1C9  |  4294504905 |
|     288 | 0xFFFC524C  |  4294726220 |
|     289 | 0x0F02      |        3842 |
|     290 | 0xFFFD4E8C  |  4294790796 |
|     291 | 0xFFFD7B78  |  4294802296 |
|     292 | 0xFFF9E237  |  4294566455 |
|     293 | 0x514E      |       20814 |
|     294 | 0xFFFF572E  |  4294924078 |
|     295 | 0x0800      |        2048 |
|     296 | 0xFFF90626  |  4294510118 |
|     297 | 0xFFFC56C0  |  4294727360 |
|     298 | 0x07E6      |        2022 |
|     299 | 0x007F      |         127 |
|     300 | 0x008A      |         138 |
|     301 | 0x00B0      |         176 |
|     302 | 0x03A6      |         934 |
|     303 | 0x0063      |          99 |
|     304 | 0x18F8      |        6392 |
|     305 | 0x1EDF      |        7903 |
|     306 | 0x1EE0      |        7904 |
|     307 | 0xFFF87EE6  |  4294475494 |
|     308 | 0xFFFC61AE  |  4294730158 |
|     309 | 0x0FDA      |        4058 |
|     310 | 0x1EE1      |        7905 |
|     311 | 0x1EE2      |        7906 |
|     312 | 0x005A      |          90 |
|     313 | 0x1EE3      |        7907 |
|     314 | 0x1EE4      |        7908 |
|     315 | 0x1EE5      |        7909 |
|     316 | 0xFFF90ED0  |  4294512336 |
|     317 | 0xFFFC52B9  |  4294726329 |
|     318 | 0xFFFD71E4  |  4294799844 |
|     319 | 0x07D0      |        2000 |
|     320 | 0x0092      |         146 |
|     321 | 0x1EE6      |        7910 |
|     322 | 0x0070      |         112 |
|     323 | 0xFFF98BC7  |  4294544327 |
|     324 | 0x4EB9      |       20153 |
|     325 | 0xFFFF5420  |  4294923296 |
|     326 | 0xFFF9B4EC  |  4294554860 |
|     327 | 0x49A9      |       18857 |
|     328 | 0xFFFF5421  |  4294923297 |
|     329 | 0xFFF9A038  |  4294549560 |
|     330 | 0x5612      |       22034 |
|     331 | 0xFFFF57F6  |  4294924278 |
|     332 | 0x0082      |         130 |
|     333 | 0x1EE7      |        7911 |
|     334 | 0x1EE8      |        7912 |
|     335 | 0x0036      |          54 |
|     336 | 0x1EE9      |        7913 |
|     337 | 0x1EEA      |        7914 |
|     338 | 0x1EEB      |        7915 |
|     339 | 0x1EEC      |        7916 |
|     340 | 0x1EED      |        7917 |
|     341 | 0x1EEE      |        7918 |
|     342 | 0x1EEF      |        7919 |
|     343 | 0x1EF0      |        7920 |
|     344 | 0x1EF1      |        7921 |
|     345 | 0x1EF2      |        7922 |
|     346 | 0x1EF3      |        7923 |
|     347 | 0x1EF4      |        7924 |
|     348 | 0x1EF5      |        7925 |
|     349 | 0x1EF6      |        7926 |
|     350 | 0x1EF7      |        7927 |
|     351 | 0x1EF8      |        7928 |
|     352 | 0x00AC      |         172 |
|     353 | 0x1EF9      |        7929 |
|     354 | 0x1EFA      |        7930 |
|     355 | 0x1EFB      |        7931 |
|     356 | 0x1EFC      |        7932 |
|     357 | 0x1EFD      |        7933 |
|     358 | 0x1EFE      |        7934 |
|     359 | 0x1EFF      |        7935 |
|     360 | 0x1F00      |        7936 |
|     361 | 0x1F01      |        7937 |
|     362 | 0x1F02      |        7938 |
|     363 | 0xFFF9AA8F  |  4294552207 |
|     364 | 0x4183      |       16771 |
|     365 | 0xFFFEBB91  |  4294884241 |
|     366 | 0x0400      |        1024 |
|     367 | 0x0042      |          66 |
|     368 | 0xFFF9E6EA  |  4294567658 |
|     369 | 0x4F17      |       20247 |
|     370 | 0xFFFF57F1  |  4294924273 |
|     371 | 0x0FE2      |        4066 |
|     372 | 0x03CB      |         971 |
|     373 | 0x1F03      |        7939 |
|     374 | 0x1F04      |        7940 |
|     375 | 0x1F05      |        7941 |
|     376 | 0x1F06      |        7942 |
|     377 | 0xFFF9DFCA  |  4294565834 |
|     378 | 0x4F6A      |       20330 |
|     379 | 0xFFFF5667  |  4294923879 |
|     380 | 0x1F07      |        7943 |
|     381 | 0xFFFF572F  |  4294924079 |
|     382 | 0x1F08      |        7944 |
|     383 | 0x1F09      |        7945 |
|     384 | 0x1F0A      |        7946 |
|     385 | 0x1F0B      |        7947 |
|     386 | 0x1F0C      |        7948 |
|     387 | 0x1F0D      |        7949 |
|     388 | 0x1F0E      |        7950 |
|     389 | 0x1F0F      |        7951 |
|     390 | 0x1F10      |        7952 |
|     391 | 0x1F11      |        7953 |
|     392 | 0x1F12      |        7954 |
|     393 | 0x00A5      |         165 |
|     394 | 0xFFF8F31F  |  4294505247 |
|     395 | 0xFFFC5E34  |  4294729268 |
|     396 | 0x03FC      |        1020 |
|     397 | 0xFFF8F32C  |  4294505260 |
|     398 | 0xFFFC4BCA  |  4294724554 |
|     399 | 0x0BFC      |        3068 |
|     400 | 0x1E45      |        7749 |
|     401 | 0x1E46      |        7750 |
|     402 | 0x1E47      |        7751 |
|     403 | 0x1E48      |        7752 |
|     404 | 0x1E49      |        7753 |
|     405 | 0x1E4A      |        7754 |
|     406 | 0x1E4B      |        7755 |
|     407 | 0x1E4C      |        7756 |
|     408 | 0x006C      |         108 |
|     409 | 0x1E4D      |        7757 |
|     410 | 0x1E4E      |        7758 |
|     411 | 0x1E4F      |        7759 |
|     412 | 0x1E50      |        7760 |
|     413 | 0x1E51      |        7761 |
|     414 | 0x1E52      |        7762 |
|     415 | 0x0510      |        1296 |
|     416 | 0x1E53      |        7763 |
|     417 | 0x1E54      |        7764 |
|     418 | 0x1E55      |        7765 |
|     419 | 0x1E56      |        7766 |
|     420 | 0x05C0      |        1472 |
|     421 | 0x1E57      |        7767 |
|     422 | 0x1E58      |        7768 |
|     423 | 0x1E5E      |        7774 |
|     424 | 0x1E59      |        7769 |
|     425 | 0x1E5A      |        7770 |
|     426 | 0x1E5B      |        7771 |
|     427 | 0x1E5C      |        7772 |
|     428 | 0x1E5D      |        7773 |
|     429 | 0x1E5F      |        7775 |
|     430 | 0x1E60      |        7776 |
|     431 | 0x00DC      |         220 |
|     432 | 0x1E61      |        7777 |
|     433 | 0x1E62      |        7778 |
|     434 | 0x1E63      |        7779 |
|     435 | 0x1E64      |        7780 |
|     436 | 0x1E65      |        7781 |
|     437 | 0x035F      |         863 |
|     438 | 0x1E66      |        7782 |
|     439 | 0x1E67      |        7783 |
|     440 | 0x1E68      |        7784 |
|     441 | 0x1E69      |        7785 |
|     442 | 0x1E6A      |        7786 |
|     443 | 0x0096      |         150 |
|     444 | 0x1C3C      |        7228 |
|     445 | 0xFFF94CEE  |  4294528238 |
|     446 | 0xFFFC5699  |  4294727321 |
|     447 | 0xFFF95FA9  |  4294533033 |
|     448 | 0xFFFC56D7  |  4294727383 |
|     449 | 0xFFF97176  |  4294537590 |
|     450 | 0xFFFC56BE  |  4294727358 |
|     451 | 0x0067      |         103 |
|     452 | 0x006A      |         106 |
|     453 | 0x006D      |         109 |
|     454 | 0x0081      |         129 |
|     455 | 0x0071      |         113 |
|     456 | 0x0074      |         116 |
|     457 | 0x0087      |         135 |
|     458 | 0x00D7      |         215 |
|     459 | 0xFFF92FFD  |  4294520829 |
|     460 | 0xFFFC55FC  |  4294727164 |
|     461 | 0x0867      |        2151 |
|     462 | 0xFFF91B36  |  4294515510 |
|     463 | 0xFFFC55FA  |  4294727162 |
|     464 | 0x1DF1      |        7665 |
|     465 | 0x1DF2      |        7666 |
|     466 | 0x1DF3      |        7667 |
|     467 | 0x1DF4      |        7668 |
|     468 | 0x00F5      |         245 |
|     469 | 0x1DF5      |        7669 |
|     470 | 0x1DF6      |        7670 |
|     471 | 0xFFF90C5F  |  4294511711 |
|     472 | 0xFFFC5D86  |  4294729094 |
|     473 | 0xFFFD72D4  |  4294800084 |
|     474 | 0x071A      |        1818 |
|     475 | 0x1DF8      |        7672 |
|     476 | 0x1DF9      |        7673 |
|     477 | 0x1DFA      |        7674 |
|     478 | 0x0463      |        1123 |
|     479 | 0x1DFB      |        7675 |
|     480 | 0x1DFC      |        7676 |
|     481 | 0x1DFD      |        7677 |
|     482 | 0x1DFE      |        7678 |
|     483 | 0x1DFF      |        7679 |
|     484 | 0x1E00      |        7680 |
|     485 | 0x1E01      |        7681 |
|     486 | 0x1E02      |        7682 |
|     487 | 0x1E03      |        7683 |
|     488 | 0x1E04      |        7684 |
|     489 | 0x1E05      |        7685 |
|     490 | 0x1E06      |        7686 |
|     491 | 0x1E07      |        7687 |
|     492 | 0x1E08      |        7688 |
|     493 | 0x1E09      |        7689 |
|     494 | 0x007A      |         122 |
|     495 | 0x1E0A      |        7690 |
|     496 | 0x1E0B      |        7691 |
|     497 | 0x1E0C      |        7692 |
|     498 | 0x1E0D      |        7693 |
|     499 | 0x1E0E      |        7694 |
|     500 | 0x1E0F      |        7695 |
|     501 | 0x1E10      |        7696 |
|     502 | 0x1E11      |        7697 |
|     503 | 0x1E12      |        7698 |
|     504 | 0x1E13      |        7699 |
|     505 | 0x1E14      |        7700 |
|     506 | 0x1E15      |        7701 |
|     507 | 0x1E16      |        7702 |
|     508 | 0x1E17      |        7703 |
|     509 | 0x0045      |          69 |
|     510 | 0x1E18      |        7704 |
|     511 | 0x1E19      |        7705 |
|     512 | 0x1E1A      |        7706 |
|     513 | 0x1E1B      |        7707 |
|     514 | 0x1E1C      |        7708 |
|     515 | 0x1E1D      |        7709 |
|     516 | 0x1E1E      |        7710 |
|     517 | 0x03E1      |         993 |
|     518 | 0x1E1F      |        7711 |
|     519 | 0x1E20      |        7712 |
|     520 | 0x1E21      |        7713 |
|     521 | 0x1E22      |        7714 |
|     522 | 0x1E23      |        7715 |
|     523 | 0x1E24      |        7716 |
|     524 | 0x1E25      |        7717 |
|     525 | 0x1E26      |        7718 |
|     526 | 0xFFF95268  |  4294529640 |
|     527 | 0xFFFC5665  |  4294727269 |
|     528 | 0xFFF8E478  |  4294501496 |
|     529 | 0xFFFC5680  |  4294727296 |
|     530 | 0xFFFD72D8  |  4294800088 |
|     531 | 0x0046      |          70 |
|     532 | 0x008C      |         140 |
|     533 | 0x00D2      |         210 |
|     534 | 0xFFF9089A  |  4294510746 |
|     535 | 0xFFFD72AE  |  4294800046 |
|     536 | 0xFFF902F0  |  4294509296 |
|     537 | 0xFFFD72E0  |  4294800096 |
|     538 | 0xFFFEAE2E  |  4294880814 |
|     539 | 0xFFFFF060  |  4294963296 |
|     540 | 0x04B0      |        1200 |
|     541 | 0xFFF948E0  |  4294527200 |
|     542 | 0xFFFC5671  |  4294727281 |
|     543 | 0xFFFE3F82  |  4294852482 |
|     544 | 0xFFFFFFC8  |  4294967240 |
|     545 | 0xFFFFE82B  |  4294961195 |
|     546 | 0xFFF92D99  |  4294520217 |
|     547 | 0xFFFD7170  |  4294799728 |
|     548 | 0xFFF8FCD4  |  4294507732 |
|     549 | 0xFFFC5407  |  4294726663 |
|     550 | 0xFFFD736A  |  4294800234 |
|     551 | 0xFFF9568A  |  4294530698 |
|     552 | 0xFFFC5788  |  4294727560 |
|     553 | 0xFFFD7345  |  4294800197 |
|     554 | 0xFFF9CCDC  |  4294560988 |
|     555 | 0x5052      |       20562 |
|     556 | 0xFFFF573C  |  4294924092 |

## String References

- **6392**: Obtained $0 gil.
- **7227**: Enter the battlefield? [Enter./Decline.]
- **7228**: Leave the battlefield? [Run away./Stay.]
- **7230**: You cannot enter the battlefield at present. Please wait a little longer.
- **7238**: You are cleared to enter the battlefield, but you cannot while party members are engaged in combat.
- **7239**: You are cleared to enter the battlefield, but you cannot while party members are engaged in combat.
- **7240**: You are cleared to enter the battlefield, but you cannot while party members are engaged in combat.
- **7241**: You are cleared to enter the battlefield, but you cannot while party members are engaged in combat.
- **7277**: You do not meet the requirements to enter the battlefield. Access is denied.
- **7566**: Skip the event? [Yes./No.]
- **7567**: Battlefield clear time: $3 second[/s]!
- **7568**: Battlefield clear time: $3 minute[/s], $2 second[/s]!
- **7569**: The current battlefield clear time record is $3 second[/s].
- **7570**: The current battlefield clear time record is $3 minute[/s] $2 second[/s].
- **7586**: Only $3 [member/members] have clearance to enter the battlefield. This room has reached its maximum capacity.
- **7590**: That record is held by $5 adventurers, including %0!
- **7591**: That record is held by %0!
- **7592**: Select difficulty. [Very difficult. (Level: ???)/Difficult. (Level: ???)/Normal. (Level: $18)/Easy. (Level: $17)/Very Easy. (Level: $16)/Leave.]
- **7601**: You have broken the clear time record for "[The Shadow Lord Battle/Where Two Paths Converge/Kindred Spirits/Survival of the Wisest/Smash! A Malevolent Menace/$26Kindred Spirits/$26The Shadow Lord Battle/True Love/A Fond Farewell/Kipdrix the Faithful]"!
- **7602**: The current battlefield clear time record for "[The Shadow Lord Battle/Where Two Paths Converge/Kindred Spirits/Survival of the Wisest/Smash! A Malevolent Menace/$26Kindred Spirits/$26The Shadow Lord Battle/True Love/A Fond Farewell/Kipdrix the Faithful]" is $3 second[/s].
- **7603**: The current battlefield clear time record for "[The Shadow Lord Battle/Where Two Paths Converge/Kindred Spirits/Survival of the Wisest/Smash! A Malevolent Menace/$26Kindred Spirits/$26The Shadow Lord Battle/True Love/A Fond Farewell/Kipdrix the Faithful]" is $3 minute[/s] $2 second[/s].
- **7605**: Which battlefield will you enter? [None./The Shadow Lord Battle./Where Two Paths Converge./Kindred Spirits./Survival of the Wisest./Smash! A Malevolent Menace./$26Kindred Spirits./$26The Shadow Lord Battle./True Love./A Fond Farewell./Kipdrix the Faithful./]
- **7768**: Do you know what became of them? [I do not wish to know./No. What happened?]
- **7947**: Can you beat Chaos and its minions? [Of course./No way./I'm not sure.]

## Events

### Event 65535

#### Metadata

| Field        | Value   |
|--------------|---------|
| Entrypoint   | 0x0000  |
| Data Size    | 1 bytes |
| Instructions | 1       |

```
      00 01 02 03 04 05 06 07  08 09 0A 0B 0C 0D 0E 0F
      -- -- -- -- -- -- -- --  -- -- -- -- -- -- -- --
0000: 00                                                .               
```

#### Opcodes

```
  0: 0x0000 [0x00] END_REQSTACK()
```

### Event 65534

#### Metadata

| Field        | Value   |
|--------------|---------|
| Entrypoint   | 0x0001  |
| Data Size    | 1 bytes |
| Instructions | 1       |

```
      00 01 02 03 04 05 06 07  08 09 0A 0B 0C 0D 0E 0F
      -- -- -- -- -- -- -- --  -- -- -- -- -- -- -- --
0000:    00                                              .              
```

#### Opcodes

```
  0: 0x0001 [0x00] END_REQSTACK()
```

### Event 65535.1

#### Metadata

| Field        | Value    |
|--------------|----------|
| Entrypoint   | 0x0002   |
| Data Size    | 15 bytes |
| Instructions | 5        |

```
      00 01 02 03 04 05 06 07  08 09 0A 0B 0C 0D 0E 0F
      -- -- -- -- -- -- -- --  -- -- -- -- -- -- -- --
0000:       32 00 80 1F 00 01  80 02 80 03 80 1F 01 6F    2............o
0010: 00                                                .               
```

#### Opcodes

```
  0: 0x0002 [0x32] ExtData[1]->MainSpeed = 13* * 0.1
  1: 0x0005 [0x1F] MOVE_ENTITY: EventEntity moves to X=-462.551*, Z=-239.287*, Y=-167.199*
  2: 0x000D [0x1F] MOVE_ENTITY: Update entity position (mode=1)
  3: 0x000F [0x6F] WAIT_FRAME_DELAY: Yield until WaitTime reaches zero
  4: 0x0010 [0x00] END_REQSTACK()
```

### Event 65535.2

#### Metadata

| Field        | Value    |
|--------------|----------|
| Entrypoint   | 0x0011   |
| Data Size    | 15 bytes |
| Instructions | 5        |

```
      00 01 02 03 04 05 06 07  08 09 0A 0B 0C 0D 0E 0F
      -- -- -- -- -- -- -- --  -- -- -- -- -- -- -- --
0010:    32 00 80 1F 00 04 80  05 80 06 80 1F 01 6F 00   2............o.
```

#### Opcodes

```
  0: 0x0011 [0x32] ExtData[1]->MainSpeed = 13* * 0.1
  1: 0x0014 [0x1F] MOVE_ENTITY: EventEntity moves to X=-454.046*, Z=-239.692*, Y=-167.111*
  2: 0x001C [0x1F] MOVE_ENTITY: Update entity position (mode=1)
  3: 0x001E [0x6F] WAIT_FRAME_DELAY: Yield until WaitTime reaches zero
  4: 0x001F [0x00] END_REQSTACK()
```

### Event 65535.3

#### Metadata

| Field        | Value    |
|--------------|----------|
| Entrypoint   | 0x0020   |
| Data Size    | 10 bytes |
| Instructions | 2        |

```
      00 01 02 03 04 05 06 07  08 09 0A 0B 0C 0D 0E 0F
      -- -- -- -- -- -- -- --  -- -- -- -- -- -- -- --
0020: 37 07 80 08 80 09 80 0A  80 00                    7.........      
```

#### Opcodes

```
  0: 0x0020 [0x37] UPDATE_EVENT_POSITION_AND_DIR: x=-438.402*, z=-239.884*, y=-167.101*, direction=2.8°*
  1: 0x0029 [0x00] END_REQSTACK()
```

### Event 65535.4

#### Metadata

| Field        | Value    |
|--------------|----------|
| Entrypoint   | 0x002A   |
| Data Size    | 24 bytes |
| Instructions | 6        |

```
      00 01 02 03 04 05 06 07  08 09 0A 0B 0C 0D 0E 0F
      -- -- -- -- -- -- -- --  -- -- -- -- -- -- -- --
0020:                                32 0B 80 1F 00 0C            2.....
0030: 80 0D 80 0E 80 1F 01 6F  37 0F 80 10 80 11 80 12  .......o7.......
0040: 80 00                                             ..              
```

#### Opcodes

```
  0: 0x002A [0x32] ExtData[1]->MainSpeed = 40* * 0.1
  1: 0x002D [0x1F] MOVE_ENTITY: EventEntity moves to X=-425.766*, Z=-240.256*, Y=-167.000*
  2: 0x0035 [0x1F] MOVE_ENTITY: Update entity position (mode=1)
  3: 0x0037 [0x6F] WAIT_FRAME_DELAY: Yield until WaitTime reaches zero
  4: 0x0038 [0x37] UPDATE_EVENT_POSITION_AND_DIR: x=-414.457*, z=-239.821*, y=-166.750*, direction=1.1°*
  5: 0x0041 [0x00] END_REQSTACK()
```

### Event 65535.5

#### Metadata

| Field        | Value    |
|--------------|----------|
| Entrypoint   | 0x0042   |
| Data Size    | 10 bytes |
| Instructions | 2        |

```
      00 01 02 03 04 05 06 07  08 09 0A 0B 0C 0D 0E 0F
      -- -- -- -- -- -- -- --  -- -- -- -- -- -- -- --
0040:       37 13 80 14 80 15  80 16 80 00                7.........    
```

#### Opcodes

```
  0: 0x0042 [0x37] UPDATE_EVENT_POSITION_AND_DIR: x=374.492*, z=-21.183*, y=-12.005*, direction=333.2°*
  1: 0x004B [0x00] END_REQSTACK()
```

### Event 32000

#### Metadata

| Field        | Value      |
|--------------|------------|
| Entrypoint   | 0x004C     |
| Data Size    | 2172 bytes |
| Instructions | 291        |

```
      00 01 02 03 04 05 06 07  08 09 0A 0B 0C 0D 0E 0F
      -- -- -- -- -- -- -- --  -- -- -- -- -- -- -- --
0040:                                      20 01 79 00               .y.
0050: F0 FF FF 7F F0 FF FF 7F  03 02 00 02 10 03 03 00  ................
0060: 03 10 03 05 00 04 10 03  06 00 05 10 03 0F 00 06  ................
0070: 10 03 10 00 07 10 03 11  00 08 10 41 17 80 18 80  ...........A....
0080: 09 10 07 00 41 19 80 1A  80 09 10 06 10 06 01 00  ....A...........
0090: 02 07 00 17 80 00 8F 01  03 08 00 1B 80 0F 08 00  ................
00A0: 06 00 10 08 00 1C 80 24  1D 80 17 80 08 00 25 02  .......$......%.
00B0: 00 10 17 80 00 BD 00 01  AD 08 01 8F 01 03 03 00  ................
00C0: 00 10 0C 03 00 06 16 00  06 13 00 3E 0F 00 03 00  ...........>....
00D0: 6B 01 06 0F 00 06 08 00  3E 11 00 03 00 E2 00 01  k.......>.......
00E0: E9 00 3C 08 00 17 80 1C  80 3E 10 00 03 00 F3 00  ..<......>......
00F0: 01 FA 00 3C 08 00 1C 80  1C 80 1A 22 46 24 1E 80  ...<......."F$..
0100: 1F 80 08 00 25 02 00 10  17 80 00 15 01 03 0F 00  ....%...........
0110: 1C 80 01 68 01 02 00 10  1C 80 00 25 01 03 0F 00  ...h.......%....
0120: 20 80 01 68 01 02 00 10  20 80 00 35 01 03 0F 00   ..h.... ..5....
0130: 21 80 01 68 01 02 00 10  21 80 00 45 01 03 0F 00  !..h....!..E....
0140: 22 80 01 68 01 02 00 10  22 80 00 55 01 03 0F 00  "..h...."..U....
0150: 1F 80 01 68 01 02 00 10  1F 80 00 63 01 01 AD 08  ...h.......c....
0160: 01 68 01 03 0F 00 21 80  01 8F 01 06 0F 00 1A C7  .h....!.........
0170: 08 02 16 00 1C 80 00 8F  01 24 23 80 1C 80 17 80  .........$#.....
0180: 25 02 00 10 1C 80 00 8F  01 01 AD 08 01 8F 01 42  %..............B
0190: 03 01 10 24 80 43 00 43  01 06 01 10 45 25 80 F0  ...$.C.C....E%..
01A0: FF FF 7F F0 FF FF 7F 66  64 6F 31 17 80 55 25 80  .......fdo1..U%.
01B0: F0 FF FF 7F F0 FF FF 7F  66 64 6F 31 3B F0 FF FF  ........fdo1;...
01C0: 7F 20 10 21 10 22 10 38  26 80 02 07 00 1C 80 00  . .!.".8&.......
01D0: E9 01 03 00 00 1C 80 03  04 00 03 00 03 02 00 17  ................
01E0: 80 03 1C 00 17 80 01 A9  05 03 00 00 1C 80 02 00  ................
01F0: 00 21 80 05 76 08 02 17  80 1C 80 00 03 02 03 00  .!..v...........
0200: 00 05 00 40 17 80 21 80  01 10 00 00 40 22 80 27  ...@..!.....@".'
0210: 80 01 10 03 00 40 28 80  29 80 01 10 0F 00 06 02  .....@(.).......
0220: 10 06 03 10 06 04 10 1A  FC 48 47 00 09 00 0A 00  .........HG.....
0230: 0B 00 0C 00 47 01 03 04  00 03 10 03 02 00 04 10  ....G...........
0240: 03 1A 00 05 10 03 0D 00  06 10 03 0E 00 07 10 03  ................
0250: 1C 00 09 10 02 02 10 1C  80 80 5F 02 01 63 08 02  .........._..c..
0260: 02 10 22 80 80 A9 02 02  00 00 1C 80 80 76 02 48  .."..........v.H
0270: 2A 80 23 01 A3 02 02 00  00 20 80 80 85 02 48 2B  *.#...... ....H+
0280: 80 23 01 A3 02 02 00 00  21 80 80 94 02 48 2C 80  .#......!....H,.
0290: 23 01 A3 02 02 00 00 22  80 80 A3 02 48 2D 80 23  #......"....H-.#
02A0: 01 A3 02 01 7A 08 01 63  08 02 02 10 1F 80 80 BB  ....z..c........
02B0: 02 48 2E 80 23 01 7A 08  01 63 08 02 02 10 2F 80  .H..#.z..c..../.
02C0: 80 BD 04 02 04 00 17 80  80 D3 02 03 05 10 2F 80  ............../.
02D0: 01 B3 04 02 04 00 1C 80  80 E3 02 03 05 10 2F 80  ............../.
02E0: 01 B3 04 02 04 00 20 80  80 F3 02 03 05 10 2F 80  ...... ......./.
02F0: 01 B3 04 02 04 00 21 80  80 03 03 03 05 10 1C 80  ......!.........
0300: 01 B3 04 02 04 00 22 80  80 13 03 03 05 10 2F 80  ......"......./.
0310: 01 B3 04 02 04 00 1F 80  80 23 03 03 05 10 2F 80  .........#..../.
0320: 01 B3 04 02 04 00 2F 80  80 33 03 03 05 10 2F 80  ....../..3..../.
0330: 01 B3 04 02 04 00 30 80  80 43 03 03 05 10 2F 80  ......0..C..../.
0340: 01 B3 04 02 04 00 27 80  80 53 03 03 05 10 2F 80  ......'..S..../.
0350: 01 B3 04 02 04 00 28 80  80 63 03 03 05 10 2F 80  ......(..c..../.
0360: 01 B3 04 02 04 00 31 80  80 73 03 03 05 10 17 80  ......1..s......
0370: 01 B3 04 02 04 00 29 80  80 83 03 03 05 10 17 80  ......).........
0380: 01 B3 04 02 04 00 12 80  80 93 03 03 05 10 17 80  ................
0390: 01 B3 04 02 04 00 00 80  80 A3 03 03 05 10 17 80  ................
03A0: 01 B3 04 02 04 00 32 80  80 B3 03 03 05 10 17 80  ......2.........
03B0: 01 B3 04 02 04 00 18 80  80 C3 03 03 05 10 17 80  ................
03C0: 01 B3 04 02 04 00 19 80  80 D3 03 03 05 10 17 80  ................
03D0: 01 B3 04 02 04 00 33 80  80 E3 03 03 05 10 17 80  ......3.........
03E0: 01 B3 04 02 04 00 34 80  80 F3 03 03 05 10 17 80  ......4.........
03F0: 01 B3 04 02 04 00 26 80  80 03 04 03 05 10 17 80  ......&.........
0400: 01 B3 04 02 04 00 35 80  80 13 04 03 05 10 17 80  ......5.........
0410: 01 B3 04 02 04 00 36 80  80 23 04 03 05 10 17 80  ......6..#......
0420: 01 B3 04 02 04 00 37 80  80 33 04 03 05 10 17 80  ......7..3......
0430: 01 B3 04 02 04 00 38 80  80 43 04 03 05 10 17 80  ......8..C......
0440: 01 B3 04 02 04 00 39 80  80 53 04 03 05 10 17 80  ......9..S......
0450: 01 B3 04 02 04 00 3A 80  80 63 04 03 05 10 17 80  ......:..c......
0460: 01 B3 04 02 04 00 3B 80  80 73 04 03 05 10 17 80  ......;..s......
0470: 01 B3 04 02 04 00 3C 80  80 83 04 03 05 10 17 80  ......<.........
0480: 01 B3 04 02 04 00 3D 80  80 93 04 03 05 10 17 80  ......=.........
0490: 01 B3 04 02 04 00 3E 80  80 A3 04 03 05 10 17 80  ......>.........
04A0: 01 B3 04 02 04 00 3F 80  80 B3 04 03 05 10 17 80  ......?.........
04B0: 01 B3 04 48 40 80 23 01  7A 08 01 63 08 02 02 10  ...H@.#.z..c....
04C0: 21 80 80 CB 04 01 E9 01  01 63 08 02 02 10 20 80  !........c.... .
04D0: 80 63 08 02 0D 00 17 80  01 5F 05 02 13 00 17 80  .c......._......
04E0: 01 13 05 03 05 10 1A 00  02 1A 00 17 80 02 F0 04  ................
04F0: 02 0D 00 1C 80 05 FF 04  48 41 80 23 01 10 05 03  ........HA.#....
0500: 06 10 0D 00 0C 06 10 03  07 10 0D 00 48 42 80 23  ............HB.#
0510: 01 5F 05 03 05 10 1A 00  02 1A 00 17 80 02 3F 05  ._............?.
0520: 02 1A 00 43 80 04 3B 05  3F 04 10 05 10 43 80 15  ...C..;.?....C..
0530: 05 10 43 80 48 44 80 23  01 3F 05 48 45 80 23 02  ..C.HD.#.?.HE.#.
0540: 0D 00 1C 80 05 4E 05 48  41 80 23 01 5F 05 03 06  .....N.HA.#._...
0550: 10 0D 00 0C 06 10 03 07  10 0D 00 48 42 80 23 03  ...........HB.#.
0560: 03 00 04 00 03 14 00 46  80 07 14 00 03 00 02 02  .......F........
0570: 00 14 00 00 7E 05 03 02  00 1C 80 01 83 05 03 02  ....~...........
0580: 00 17 80 02 02 00 17 80  00 A9 05 02 0E 00 1C 80  ................
0590: 00 A9 05 24 47 80 1C 80  17 80 25 02 00 10 17 80  ...$G.....%.....
05A0: 00 A9 05 05 02 00 01 A9  05 06 15 00 02 04 00 17  ................
05B0: 80 80 BC 05 03 15 00 1C  80 01 A1 07 02 04 00 1C  ................
05C0: 80 80 CC 05 03 15 00 17  80 01 A1 07 02 04 00 20  ............... 
05D0: 80 80 DC 05 03 15 00 17  80 01 A1 07 02 04 00 21  ...............!
05E0: 80 80 EC 05 03 15 00 17  80 01 A1 07 02 04 00 22  ..............."
05F0: 80 80 FC 05 03 15 00 1C  80 01 A1 07 02 04 00 1F  ................
0600: 80 80 0C 06 03 15 00 17  80 01 A1 07 02 04 00 2F  .............../
0610: 80 80 1C 06 03 15 00 1C  80 01 A1 07 02 04 00 30  ...............0
0620: 80 80 2C 06 03 15 00 17  80 01 A1 07 02 04 00 27  ..,............'
0630: 80 80 3C 06 03 15 00 17  80 01 A1 07 02 04 00 28  ..<............(
0640: 80 80 4C 06 03 15 00 17  80 01 A1 07 02 04 00 31  ..L............1
0650: 80 80 5C 06 03 15 00 17  80 01 A1 07 02 04 00 29  ..\............)
0660: 80 80 6C 06 03 15 00 17  80 01 A1 07 02 04 00 12  ..l.............
0670: 80 80 7C 06 03 15 00 17  80 01 A1 07 02 04 00 00  ..|.............
0680: 80 80 8C 06 03 15 00 17  80 01 A1 07 02 04 00 32  ...............2
0690: 80 80 9C 06 03 15 00 17  80 01 A1 07 02 04 00 18  ................
06A0: 80 80 AC 06 03 15 00 17  80 01 A1 07 02 04 00 19  ................
06B0: 80 80 BC 06 03 15 00 17  80 01 A1 07 02 04 00 33  ...............3
06C0: 80 80 CC 06 03 15 00 17  80 01 A1 07 02 04 00 34  ...............4
06D0: 80 80 DC 06 03 15 00 17  80 01 A1 07 02 04 00 26  ...............&
06E0: 80 80 EC 06 03 15 00 17  80 01 A1 07 02 04 00 35  ...............5
06F0: 80 80 FC 06 03 15 00 17  80 01 A1 07 02 04 00 36  ...............6
0700: 80 80 0C 07 03 15 00 17  80 01 A1 07 02 04 00 37  ...............7
0710: 80 80 1C 07 03 15 00 17  80 01 A1 07 02 04 00 38  ...............8
0720: 80 80 2C 07 03 15 00 17  80 01 A1 07 02 04 00 39  ..,............9
0730: 80 80 3C 07 03 15 00 17  80 01 A1 07 02 04 00 3A  ..<............:
0740: 80 80 4C 07 03 15 00 17  80 01 A1 07 02 04 00 3B  ..L............;
0750: 80 80 5C 07 03 15 00 17  80 01 A1 07 02 04 00 3C  ..\............<
0760: 80 80 6C 07 03 15 00 17  80 01 A1 07 02 04 00 3D  ..l............=
0770: 80 80 7C 07 03 15 00 17  80 01 A1 07 02 04 00 3E  ..|............>
0780: 80 80 8C 07 03 15 00 17  80 01 A1 07 02 04 00 3F  ...............?
0790: 80 80 9C 07 03 15 00 17  80 01 A1 07 03 15 00 17  ................
07A0: 80 02 02 00 1C 80 00 F4  07 5C 00 48 80 5C 01 48  .........\.H.\.H
07B0: 80 5C 02 48 80 5C 03 48  80 02 04 00 22 80 80 D4  .\.H.\.H...."...
07C0: 07 5C 00 49 80 5C 01 49  80 5C 02 49 80 5C 03 49  .\.I.\.I.\.I.\.I
07D0: 80 01 F1 07 02 04 00 2F  80 80 F1 07 03 01 10 4A  ......./.......J
07E0: 80 40 19 80 1A 80 01 10  2F 80 43 00 43 01 01 F1  .@....../.C.C...
07F0: 07 01 0C 08 02 15 00 17  80 00 0C 08 5C 00 48 80  ............\.H.
0800: 5C 01 48 80 5C 02 48 80  5C 03 48 80 02 02 00 17  \.H.\.H.\.H.....
0810: 80 00 1A 08 1A F4 1C 01  53 08 6C F0 FF FF 7F 17  ........S.l.....
0820: 80 1C 80 62 20 80 F0 FF  FF 7F F0 FF FF 7F 6D 61  ...b .........ma
0830: 69 6E 17 80 45 25 80 F0  FF FF 7F F0 FF FF 7F 6F  in..E%.........o
0840: 76 6C 31 17 80 46 02 12  00 02 12 00 17 80 00 53  vl1..F.........S
0850: 08 46 00 03 01 10 46 80  07 01 10 03 00 01 7A 08  .F....F.......z.
0860: 01 63 08 0B 00 00 02 17  80 1C 80 00 73 08 03 00  .c..........s...
0870: 00 22 80 01 EE 01 48 4B  80 23 45 4C 80 F0 FF FF  ."....HK.#EL....
0880: 7F F0 FF FF 7F 77 68 69  31 17 80 45 25 80 F0 FF  .....whi1..E%...
0890: FF 7F F0 FF FF 7F 62 6C  6F 66 17 80 45 25 80 F0  ......blof..E%..
08A0: FF FF 7F F0 FF FF 7F 66  64 69 30 17 80 02 07 00  .......fdi0.....
08B0: 1C 80 00 C5 08 5C 00 4D  80 5C 01 4D 80 5C 02 48  .....\.M.\.M.\.H
08C0: 80 5C 03 48 80 21 00 1B                           .\.H.!..        
```

#### Opcodes

```
  0: 0x004C [0x20] SET_CLI_EVENT_UC_FLAG: Lock player control
  1: 0x004E [0x79] LocalPlayer looks at LocalPlayer (Basic look)
  2: 0x0058 [0x03] ExtData[1]->WorkLocal[2] = Work_Zone[2]
  3: 0x005D [0x03] ExtData[1]->WorkLocal[3] = Work_Zone[3]
  4: 0x0062 [0x03] ExtData[1]->WorkLocal[5] = Work_Zone[4]
  5: 0x0067 [0x03] ExtData[1]->WorkLocal[6] = Work_Zone[5]
  6: 0x006C [0x03] ExtData[1]->WorkLocal[15] = Work_Zone[6]
  7: 0x0071 [0x03] ExtData[1]->WorkLocal[16] = Work_Zone[7]
  8: 0x0076 [0x03] ExtData[1]->WorkLocal[17] = Work_Zone[8]
  9: 0x007B [0x41] ExtData[1]->WorkLocal[7] = Work_Zone[9] (bits 0*-15*)
 10: 0x0084 [0x41] Work_Zone[6] = Work_Zone[9] (bits 16*-31*)
 11: 0x008D [0x06] ExtData[1]->WorkLocal[1] = 0
 12: 0x0090 [0x02] IF !(ExtData[1]->WorkLocal[7] == 0*) GOTO 0x018F
 13: 0x0098 [0x03] ExtData[1]->WorkLocal[8] = 4294967295*
 14: 0x009D [0x0F] ExtData[1]->WorkLocal[8] ^= ExtData[1]->WorkLocal[6]
 15: 0x00A2 [0x10] ExtData[1]->WorkLocal[8] <<= 1*
 16: 0x00A7 [0x24] CREATE_DIALOG(message_id=7605*, default_option=0*, option_flags=ExtData[1]->WorkLocal[8])
    → "Which battlefield will you enter? [None./The Shadow Lord Battle./Where Two Paths Converge./Kindred Spirits./Survival of the Wisest./Smash! A Malevolent Menace./$26Kindred Spirits./$26The Shadow Lord Battle./True Love./A Fond Farewell./Kipdrix the Faithful./]"
 17: 0x00AE [0x25] WAIT_DIALOG_SELECT()
 18: 0x00AF [0x02] IF !(Work_Zone[0] == 0*) GOTO 0x00BD
 19: 0x00B7 [0x01] GOTO 0x08AD

SUBROUTINE_00E9:
 20: 0x00E9 [0x3E] IF !(ExtData[1]->WorkLocal[16] bit ExtData[1]->WorkLocal[3]) GOTO 0x00F3
 21: 0x00F0 [0x01] GOTO 0x00FA
 22: 0x00F3 [0x3C] SET_BIT_FLAG_CONDITIONAL(target_work_offset=ExtData[1]->WorkLocal[8], bit_index_work_offset=1*, condition_work_offset=1*)

SUBROUTINE_00FA:
 23: 0x00FA [0x1A] CALL_SUBROUTINE(address=0x4622)
 24: 0x00FD [0x24] CREATE_DIALOG(message_id=7592*, default_option=5*, option_flags=ExtData[1]->WorkLocal[8])
    → "Select difficulty. [Very difficult. (Level: ???)/Difficult. (Level: ???)/Normal. (Level: $18)/Easy. (Level: $17)/Very Easy. (Level: $16)/Leave.]"
 25: 0x0104 [0x25] WAIT_DIALOG_SELECT()
 26: 0x0105 [0x02] IF !(Work_Zone[0] == 0*) GOTO 0x0115
 27: 0x010D [0x03] ExtData[1]->WorkLocal[15] = 1*
 28: 0x0112 [0x01] GOTO 0x0168
 29: 0x0115 [0x02] IF !(Work_Zone[0] == 1*) GOTO 0x0125
 30: 0x011D [0x03] ExtData[1]->WorkLocal[15] = 2*
 31: 0x0122 [0x01] GOTO 0x0168
 32: 0x0125 [0x02] IF !(Work_Zone[0] == 2*) GOTO 0x0135
 33: 0x012D [0x03] ExtData[1]->WorkLocal[15] = 3*
 34: 0x0132 [0x01] GOTO 0x0168
 35: 0x0135 [0x02] IF !(Work_Zone[0] == 3*) GOTO 0x0145
 36: 0x013D [0x03] ExtData[1]->WorkLocal[15] = 4*
 37: 0x0142 [0x01] GOTO 0x0168
 38: 0x0145 [0x02] IF !(Work_Zone[0] == 4*) GOTO 0x0155
 39: 0x014D [0x03] ExtData[1]->WorkLocal[15] = 5*
 40: 0x0152 [0x01] GOTO 0x0168
 41: 0x0155 [0x02] IF !(Work_Zone[0] == 5*) GOTO 0x0163
 42: 0x015D [0x01] GOTO 0x08AD

SUBROUTINE_0168:
 43: 0x0168 [0x01] GOTO 0x018F
 44: 0x016B [0x06] ExtData[1]->WorkLocal[15] = 0
 45: 0x016E [0x1A] CALL_SUBROUTINE(address=0x08C7)
 46: 0x0171 [0x02] IF !(ExtData[1]->WorkLocal[22] == 1*) GOTO 0x018F
 47: 0x0179 [0x24] CREATE_DIALOG(message_id=7227*, default_option=1*, option_flags=0*)
    → "Enter the battlefield? [Enter./Decline.]"
 48: 0x0180 [0x25] WAIT_DIALOG_SELECT()
 49: 0x0181 [0x02] IF !(Work_Zone[0] == 1*) GOTO 0x018F
 50: 0x0189 [0x01] GOTO 0x08AD

SUBROUTINE_018F:
 51: 0x018F [0x42] SET_CLI_EVENT_CANCEL_DATA()
 52: 0x0190 [0x03] Work_Zone[1] = 255*
 53: 0x0195 [0x43] SEND_EVENT_UPDATE: Send pending tag to server (packet 0x005B)
 54: 0x0197 [0x43] SEND_EVENT_UPDATE: Check pending flag (skip if not pending)
 55: 0x0199 [0x06] Work_Zone[1] = 0
 56: 0x019C [0x45] LOAD_SCHEDULED_TASK: Load scheduler "fdo1" with entities [LocalPlayer, LocalPlayer], work=[200*, 0*]
 57: 0x01AD [0x55] WAIT_LOAD_SCHEDULER: Wait for scheduler "fdo1" with entities [LocalPlayer, LocalPlayer], work=200*
 58: 0x01BC [0x3B] GET_ENTITY_POSITION(entity=LocalPlayer, x_destination=Work_Zone[32], y_destination=Work_Zone[33], z_destination=Work_Zone[34])
 59: 0x01C7 [0x38] SET_CLIENT_EVENT_MODE(mode=19*)
 60: 0x01CA [0x02] IF !(ExtData[1]->WorkLocal[7] == 1*) GOTO 0x01E9
 61: 0x01D2 [0x03] ExtData[1]->WorkLocal[0] = 1*
 62: 0x01D7 [0x03] ExtData[1]->WorkLocal[4] = ExtData[1]->WorkLocal[3]
 63: 0x01DC [0x03] ExtData[1]->WorkLocal[2] = 0*
 64: 0x01E1 [0x03] ExtData[1]->WorkLocal[28] = 0*
 65: 0x01E6 [0x01] GOTO 0x05A9

SUBROUTINE_01E9:
 66: 0x01E9 [0x03] ExtData[1]->WorkLocal[0] = 1*

SUBROUTINE_01EE:
 67: 0x01EE [0x02] IF !(ExtData[1]->WorkLocal[0] > 3*) GOTO 0x0876
 68: 0x01F6 [0x02] IF !(0* == 1*) GOTO 0x0203
 69: 0x01FE [0x03] ExtData[1]->WorkLocal[0] = ExtData[1]->WorkLocal[5]
 70: 0x0203 [0x40] SET_BIT_WORK_RANGE(start_bit=0*, end_bit=3*, target=Work_Zone[1], source=ExtData[1]->WorkLocal[0])
 71: 0x020C [0x40] SET_BIT_WORK_RANGE(start_bit=4*, end_bit=8*, target=Work_Zone[1], source=ExtData[1]->WorkLocal[3])
 72: 0x0215 [0x40] SET_BIT_WORK_RANGE(start_bit=9*, end_bit=11*, target=Work_Zone[1], source=ExtData[1]->WorkLocal[15])
 73: 0x021E [0x06] Work_Zone[2] = 0
 74: 0x0221 [0x06] Work_Zone[3] = 0
 75: 0x0224 [0x06] Work_Zone[4] = 0
 76: 0x0227 [0x1A] CALL_SUBROUTINE(address=0x48FC)
 77: 0x022A [0x47] UPDATE_PLAYER_POS(ExtData[1]->WorkLocal[9], ExtData[1]->WorkLocal[10], ExtData[1]->WorkLocal[11], yaw=ExtData[1]->WorkLocal[12])
 78: 0x0234 [0x47] WAIT_PLAYER_POS_UPDATE
 79: 0x0236 [0x03] ExtData[1]->WorkLocal[4] = Work_Zone[3]
 80: 0x023B [0x03] ExtData[1]->WorkLocal[2] = Work_Zone[4]
 81: 0x0240 [0x03] ExtData[1]->WorkLocal[26] = Work_Zone[5]
 82: 0x0245 [0x03] ExtData[1]->WorkLocal[13] = Work_Zone[6]
 83: 0x024A [0x03] ExtData[1]->WorkLocal[14] = Work_Zone[7]
 84: 0x024F [0x03] ExtData[1]->WorkLocal[28] = Work_Zone[9]
 85: 0x0254 [0x02] IF !(Work_Zone[2] == 1*) GOTO 0x025F
 86: 0x025C [0x01] GOTO 0x0863
 87: 0x025F [0x02] IF !(Work_Zone[2] == 4*) GOTO 0x02A9
 88: 0x0267 [0x02] IF !(ExtData[1]->WorkLocal[0] == 1*) GOTO 0x0276
 89: 0x026F [0x48] [System] [7238*]:
    → "You are cleared to enter the battlefield, but you cannot while party members are engaged in combat."
 90: 0x0272 [0x23] WAIT_FOR_DIALOG_INTERACTION
 91: 0x0273 [0x01] GOTO 0x02A3
 92: 0x0276 [0x02] IF !(ExtData[1]->WorkLocal[0] == 2*) GOTO 0x0285
 93: 0x027E [0x48] [System] [7239*]:
    → "You are cleared to enter the battlefield, but you cannot while party members are engaged in combat."
 94: 0x0281 [0x23] WAIT_FOR_DIALOG_INTERACTION
 95: 0x0282 [0x01] GOTO 0x02A3
 96: 0x0285 [0x02] IF !(ExtData[1]->WorkLocal[0] == 3*) GOTO 0x0294
 97: 0x028D [0x48] [System] [7240*]:
    → "You are cleared to enter the battlefield, but you cannot while party members are engaged in combat."
 98: 0x0290 [0x23] WAIT_FOR_DIALOG_INTERACTION
 99: 0x0291 [0x01] GOTO 0x02A3
100: 0x0294 [0x02] IF !(ExtData[1]->WorkLocal[0] == 4*) GOTO 0x02A3
101: 0x029C [0x48] [System] [7241*]:
    → "You are cleared to enter the battlefield, but you cannot while party members are engaged in combat."
102: 0x029F [0x23] WAIT_FOR_DIALOG_INTERACTION
103: 0x02A0 [0x01] GOTO 0x02A3

SUBROUTINE_02A3:
104: 0x02A3 [0x01] GOTO 0x087A

SUBROUTINE_04B3:
105: 0x04B3 [0x48] [System] [7586*]:
    → "Only $3 [member/members] have clearance to enter the battlefield. This room has reached its maximum capacity."
106: 0x04B6 [0x23] WAIT_FOR_DIALOG_INTERACTION
107: 0x04B7 [0x01] GOTO 0x087A

SUBROUTINE_0510:
108: 0x0510 [0x01] GOTO 0x055F
109: 0x0513 [0x03] Work_Zone[5] = ExtData[1]->WorkLocal[26]
110: 0x0518 [0x02] IF !(ExtData[1]->WorkLocal[26] <= 0*) GOTO 0x053F
111: 0x0520 [0x02] IF !(ExtData[1]->WorkLocal[26] < 60*) GOTO 0x053B
112: 0x0528 [0x3F] Work_Zone[4] = Work_Zone[5] % 60*
113: 0x052F [0x15] Work_Zone[5] /= 60*
114: 0x0534 [0x48] [System] [7603*]:
    → "The current battlefield clear time record for "[The Shadow Lord Battle/Where Two Paths Converge/Kindred Spirits/Survival of the Wisest/Smash! A Malevolent Menace/$26Kindred Spirits/$26The Shadow Lord Battle/True Love/A Fond Farewell/Kipdrix the Faithful]" is $3 minute[/s] $2 second[/s]."
115: 0x0537 [0x23] WAIT_FOR_DIALOG_INTERACTION
116: 0x0538 [0x01] GOTO 0x053F
117: 0x053B [0x48] [System] [7602*]:
    → "The current battlefield clear time record for "[The Shadow Lord Battle/Where Two Paths Converge/Kindred Spirits/Survival of the Wisest/Smash! A Malevolent Menace/$26Kindred Spirits/$26The Shadow Lord Battle/True Love/A Fond Farewell/Kipdrix the Faithful]" is $3 second[/s]."
118: 0x053E [0x23] WAIT_FOR_DIALOG_INTERACTION

SUBROUTINE_053F:
119: 0x053F [0x02] IF !(ExtData[1]->WorkLocal[13] > 1*) GOTO 0x054E
120: 0x0547 [0x48] [System] [7591*]:
    → "That record is held by %0!"
121: 0x054A [0x23] WAIT_FOR_DIALOG_INTERACTION
122: 0x054B [0x01] GOTO 0x055F
123: 0x054E [0x03] Work_Zone[6] = ExtData[1]->WorkLocal[13]
124: 0x0553 [0x0C] Work_Zone[6]--
125: 0x0556 [0x03] Work_Zone[7] = ExtData[1]->WorkLocal[13]
126: 0x055B [0x48] [System] [7590*]:
    → "That record is held by $5 adventurers, including %0!"
127: 0x055E [0x23] WAIT_FOR_DIALOG_INTERACTION

SUBROUTINE_055F:
128: 0x055F [0x03] ExtData[1]->WorkLocal[3] = ExtData[1]->WorkLocal[4]
129: 0x0564 [0x03] ExtData[1]->WorkLocal[20] = 100*
130: 0x0569 [0x07] ExtData[1]->WorkLocal[20] += ExtData[1]->WorkLocal[3]
131: 0x056E [0x02] IF !(ExtData[1]->WorkLocal[2] == ExtData[1]->WorkLocal[20]) GOTO 0x057E
132: 0x0576 [0x03] ExtData[1]->WorkLocal[2] = 1*
133: 0x057B [0x01] GOTO 0x0583
134: 0x057E [0x03] ExtData[1]->WorkLocal[2] = 0*

SUBROUTINE_0583:
135: 0x0583 [0x02] IF !(ExtData[1]->WorkLocal[2] == 0*) GOTO 0x05A9
136: 0x058B [0x02] IF !(ExtData[1]->WorkLocal[14] == 1*) GOTO 0x05A9
137: 0x0593 [0x24] CREATE_DIALOG(message_id=7566*, default_option=1*, option_flags=0*)
    → "Skip the event? [Yes./No.]"
138: 0x059A [0x25] WAIT_DIALOG_SELECT()
139: 0x059B [0x02] IF !(Work_Zone[0] == 0*) GOTO 0x05A9
140: 0x05A3 [0x05] ExtData[1]->WorkLocal[2] = 1
141: 0x05A6 [0x01] GOTO 0x05A9

SUBROUTINE_05A9:
142: 0x05A9 [0x06] ExtData[1]->WorkLocal[21] = 0
143: 0x05AC [0x02] IF !(ExtData[1]->WorkLocal[4] == 0*) GOTO 0x05BC
144: 0x05B4 [0x03] ExtData[1]->WorkLocal[21] = 1*
145: 0x05B9 [0x01] GOTO 0x07A1
146: 0x05BC [0x02] IF !(ExtData[1]->WorkLocal[4] == 1*) GOTO 0x05CC
147: 0x05C4 [0x03] ExtData[1]->WorkLocal[21] = 0*
148: 0x05C9 [0x01] GOTO 0x07A1
149: 0x05CC [0x02] IF !(ExtData[1]->WorkLocal[4] == 2*) GOTO 0x05DC
150: 0x05D4 [0x03] ExtData[1]->WorkLocal[21] = 0*
151: 0x05D9 [0x01] GOTO 0x07A1
152: 0x05DC [0x02] IF !(ExtData[1]->WorkLocal[4] == 3*) GOTO 0x05EC
153: 0x05E4 [0x03] ExtData[1]->WorkLocal[21] = 0*
154: 0x05E9 [0x01] GOTO 0x07A1
155: 0x05EC [0x02] IF !(ExtData[1]->WorkLocal[4] == 4*) GOTO 0x05FC
156: 0x05F4 [0x03] ExtData[1]->WorkLocal[21] = 1*
157: 0x05F9 [0x01] GOTO 0x07A1
158: 0x05FC [0x02] IF !(ExtData[1]->WorkLocal[4] == 5*) GOTO 0x060C
159: 0x0604 [0x03] ExtData[1]->WorkLocal[21] = 0*
160: 0x0609 [0x01] GOTO 0x07A1
161: 0x060C [0x02] IF !(ExtData[1]->WorkLocal[4] == 6*) GOTO 0x061C
162: 0x0614 [0x03] ExtData[1]->WorkLocal[21] = 1*
163: 0x0619 [0x01] GOTO 0x07A1
164: 0x061C [0x02] IF !(ExtData[1]->WorkLocal[4] == 7*) GOTO 0x062C
165: 0x0624 [0x03] ExtData[1]->WorkLocal[21] = 0*
166: 0x0629 [0x01] GOTO 0x07A1
167: 0x062C [0x02] IF !(ExtData[1]->WorkLocal[4] == 8*) GOTO 0x063C
168: 0x0634 [0x03] ExtData[1]->WorkLocal[21] = 0*
169: 0x0639 [0x01] GOTO 0x07A1
170: 0x063C [0x02] IF !(ExtData[1]->WorkLocal[4] == 9*) GOTO 0x064C
171: 0x0644 [0x03] ExtData[1]->WorkLocal[21] = 0*
172: 0x0649 [0x01] GOTO 0x07A1
173: 0x064C [0x02] IF !(ExtData[1]->WorkLocal[4] == 10*) GOTO 0x065C
174: 0x0654 [0x03] ExtData[1]->WorkLocal[21] = 0*
175: 0x0659 [0x01] GOTO 0x07A1
176: 0x065C [0x02] IF !(ExtData[1]->WorkLocal[4] == 11*) GOTO 0x066C
177: 0x0664 [0x03] ExtData[1]->WorkLocal[21] = 0*
178: 0x0669 [0x01] GOTO 0x07A1
179: 0x066C [0x02] IF !(ExtData[1]->WorkLocal[4] == 12*) GOTO 0x067C
180: 0x0674 [0x03] ExtData[1]->WorkLocal[21] = 0*
181: 0x0679 [0x01] GOTO 0x07A1
182: 0x067C [0x02] IF !(ExtData[1]->WorkLocal[4] == 13*) GOTO 0x068C
183: 0x0684 [0x03] ExtData[1]->WorkLocal[21] = 0*
184: 0x0689 [0x01] GOTO 0x07A1
185: 0x068C [0x02] IF !(ExtData[1]->WorkLocal[4] == 14*) GOTO 0x069C
186: 0x0694 [0x03] ExtData[1]->WorkLocal[21] = 0*
187: 0x0699 [0x01] GOTO 0x07A1
188: 0x069C [0x02] IF !(ExtData[1]->WorkLocal[4] == 15*) GOTO 0x06AC
189: 0x06A4 [0x03] ExtData[1]->WorkLocal[21] = 0*
190: 0x06A9 [0x01] GOTO 0x07A1
191: 0x06AC [0x02] IF !(ExtData[1]->WorkLocal[4] == 16*) GOTO 0x06BC
192: 0x06B4 [0x03] ExtData[1]->WorkLocal[21] = 0*
193: 0x06B9 [0x01] GOTO 0x07A1
194: 0x06BC [0x02] IF !(ExtData[1]->WorkLocal[4] == 17*) GOTO 0x06CC
195: 0x06C4 [0x03] ExtData[1]->WorkLocal[21] = 0*
196: 0x06C9 [0x01] GOTO 0x07A1
197: 0x06CC [0x02] IF !(ExtData[1]->WorkLocal[4] == 18*) GOTO 0x06DC
198: 0x06D4 [0x03] ExtData[1]->WorkLocal[21] = 0*
199: 0x06D9 [0x01] GOTO 0x07A1
200: 0x06DC [0x02] IF !(ExtData[1]->WorkLocal[4] == 19*) GOTO 0x06EC
201: 0x06E4 [0x03] ExtData[1]->WorkLocal[21] = 0*
202: 0x06E9 [0x01] GOTO 0x07A1
203: 0x06EC [0x02] IF !(ExtData[1]->WorkLocal[4] == 20*) GOTO 0x06FC
204: 0x06F4 [0x03] ExtData[1]->WorkLocal[21] = 0*
205: 0x06F9 [0x01] GOTO 0x07A1
206: 0x06FC [0x02] IF !(ExtData[1]->WorkLocal[4] == 21*) GOTO 0x070C
207: 0x0704 [0x03] ExtData[1]->WorkLocal[21] = 0*
208: 0x0709 [0x01] GOTO 0x07A1
209: 0x070C [0x02] IF !(ExtData[1]->WorkLocal[4] == 22*) GOTO 0x071C
210: 0x0714 [0x03] ExtData[1]->WorkLocal[21] = 0*
211: 0x0719 [0x01] GOTO 0x07A1
212: 0x071C [0x02] IF !(ExtData[1]->WorkLocal[4] == 23*) GOTO 0x072C
213: 0x0724 [0x03] ExtData[1]->WorkLocal[21] = 0*
214: 0x0729 [0x01] GOTO 0x07A1
215: 0x072C [0x02] IF !(ExtData[1]->WorkLocal[4] == 24*) GOTO 0x073C
216: 0x0734 [0x03] ExtData[1]->WorkLocal[21] = 0*
217: 0x0739 [0x01] GOTO 0x07A1
218: 0x073C [0x02] IF !(ExtData[1]->WorkLocal[4] == 25*) GOTO 0x074C
219: 0x0744 [0x03] ExtData[1]->WorkLocal[21] = 0*
220: 0x0749 [0x01] GOTO 0x07A1
221: 0x074C [0x02] IF !(ExtData[1]->WorkLocal[4] == 26*) GOTO 0x075C
222: 0x0754 [0x03] ExtData[1]->WorkLocal[21] = 0*
223: 0x0759 [0x01] GOTO 0x07A1
224: 0x075C [0x02] IF !(ExtData[1]->WorkLocal[4] == 27*) GOTO 0x076C
225: 0x0764 [0x03] ExtData[1]->WorkLocal[21] = 0*
226: 0x0769 [0x01] GOTO 0x07A1
227: 0x076C [0x02] IF !(ExtData[1]->WorkLocal[4] == 28*) GOTO 0x077C
228: 0x0774 [0x03] ExtData[1]->WorkLocal[21] = 0*
229: 0x0779 [0x01] GOTO 0x07A1
230: 0x077C [0x02] IF !(ExtData[1]->WorkLocal[4] == 29*) GOTO 0x078C
231: 0x0784 [0x03] ExtData[1]->WorkLocal[21] = 0*
232: 0x0789 [0x01] GOTO 0x07A1
233: 0x078C [0x02] IF !(ExtData[1]->WorkLocal[4] == 30*) GOTO 0x079C
234: 0x0794 [0x03] ExtData[1]->WorkLocal[21] = 0*
235: 0x0799 [0x01] GOTO 0x07A1
236: 0x079C [0x03] ExtData[1]->WorkLocal[21] = 0*

SUBROUTINE_07A1:
237: 0x07A1 [0x02] IF !(ExtData[1]->WorkLocal[2] == 1*) GOTO 0x07F4
238: 0x07A9 [0x5C] MUSIC_CONTROL: Set Idle (Day) music to song 119*
239: 0x07AD [0x5C] MUSIC_CONTROL: Set Idle (Night) music to song 119*
240: 0x07B1 [0x5C] MUSIC_CONTROL: Set Combat (Solo) music to song 119*
241: 0x07B5 [0x5C] MUSIC_CONTROL: Set Combat (Party) music to song 119*
242: 0x07B9 [0x02] IF !(ExtData[1]->WorkLocal[4] == 4*) GOTO 0x07D4
243: 0x07C1 [0x5C] MUSIC_CONTROL: Set Idle (Day) music to song 49*
244: 0x07C5 [0x5C] MUSIC_CONTROL: Set Idle (Night) music to song 49*
245: 0x07C9 [0x5C] MUSIC_CONTROL: Set Combat (Solo) music to song 49*
246: 0x07CD [0x5C] MUSIC_CONTROL: Set Combat (Party) music to song 49*
247: 0x07D1 [0x01] GOTO 0x07F1
248: 0x07D4 [0x02] IF !(ExtData[1]->WorkLocal[4] == 6*) GOTO 0x07F1
249: 0x07DC [0x03] Work_Zone[1] = 254*
250: 0x07E1 [0x40] SET_BIT_WORK_RANGE(start_bit=16*, end_bit=31*, target=Work_Zone[1], source=6*)
251: 0x07EA [0x43] SEND_EVENT_UPDATE: Send pending tag to server (packet 0x005B)
252: 0x07EC [0x43] SEND_EVENT_UPDATE: Check pending flag (skip if not pending)
253: 0x07EE [0x01] GOTO 0x07F1

SUBROUTINE_07F1:
254: 0x07F1 [0x01] GOTO 0x080C
255: 0x07F4 [0x02] IF !(ExtData[1]->WorkLocal[21] == 0*) GOTO 0x080C
256: 0x07FC [0x5C] MUSIC_CONTROL: Set Idle (Day) music to song 119*
257: 0x0800 [0x5C] MUSIC_CONTROL: Set Idle (Night) music to song 119*
258: 0x0804 [0x5C] MUSIC_CONTROL: Set Combat (Solo) music to song 119*
259: 0x0808 [0x5C] MUSIC_CONTROL: Set Combat (Party) music to song 119*

SUBROUTINE_080C:
260: 0x080C [0x02] IF !(ExtData[1]->WorkLocal[2] == 0*) GOTO 0x081A
261: 0x0814 [0x1A] CALL_SUBROUTINE(address=0x1CF4)
262: 0x0817 [0x01] GOTO 0x0853
263: 0x081A [0x6C] FADE_ENTITY_COLOR(entity_id=LocalPlayer, end_alpha=0*, fade_time=1*)
264: 0x0823 [0x62] LOAD_EVENT_SCHEDULER: Load scheduler "main" with entities [LocalPlayer, LocalPlayer], work=[2*, 0*]
265: 0x0834 [0x45] LOAD_SCHEDULED_TASK: Load scheduler "ovl1" with entities [LocalPlayer, LocalPlayer], work=[200*, 0*]
266: 0x0845 [0x46] CAMERA_CONTROL: Query status
267: 0x0847 [0x12] 0x0200 = rand()
268: 0x084A [0x12] Work_Zone_1700[0] = rand()
269: 0x084D [0x80] LOAD_WAIT(entity=Unknown NPC (ID: 1174950656/0x46085300))
270: 0x0852 [0x00] END_REQSTACK()

SUBROUTINE_0853:
271: 0x0853 [0x03] Work_Zone[1] = 100*
272: 0x0858 [0x07] Work_Zone[1] += ExtData[1]->WorkLocal[3]
273: 0x085D [0x01] GOTO 0x087A

SUBROUTINE_0863:
274: 0x0863 [0x0B] ExtData[1]->WorkLocal[0]++
275: 0x0866 [0x02] IF !(0* == 1*) GOTO 0x0873
276: 0x086E [0x03] ExtData[1]->WorkLocal[0] = 4*
277: 0x0873 [0x01] GOTO 0x01EE
278: 0x0876 [0x48] [System] [7230*]:
    → "You cannot enter the battlefield at present. Please wait a little longer."
279: 0x0879 [0x23] WAIT_FOR_DIALOG_INTERACTION

SUBROUTINE_087A:
280: 0x087A [0x45] LOAD_SCHEDULED_TASK: Load scheduler "whi1" with entities [LocalPlayer, LocalPlayer], work=[201*, 0*]
281: 0x088B [0x45] LOAD_SCHEDULED_TASK: Load scheduler "blof" with entities [LocalPlayer, LocalPlayer], work=[200*, 0*]
282: 0x089C [0x45] LOAD_SCHEDULED_TASK: Load scheduler "fdi0" with entities [LocalPlayer, LocalPlayer], work=[200*, 0*]

SUBROUTINE_08AD:
283: 0x08AD [0x02] IF !(ExtData[1]->WorkLocal[7] == 1*) GOTO 0x08C5
284: 0x08B5 [0x5C] MUSIC_CONTROL: Set Idle (Day) music to song 155*
285: 0x08B9 [0x5C] MUSIC_CONTROL: Set Idle (Night) music to song 155*
286: 0x08BD [0x5C] MUSIC_CONTROL: Set Combat (Solo) music to song 119*
287: 0x08C1 [0x5C] MUSIC_CONTROL: Set Combat (Party) music to song 119*
288: 0x08C5 [0x21] END_EVENT
289: 0x08C6 [0x00] END_REQSTACK()

SUBROUTINE_08C7:
290: 0x08C7 [0x1B] RETURN
```

#### Data or dead code:

```
# Dead code (unreachable instructions):
     0x00BA [0x01] GOTO 0x018F
# Dead code (unreachable instructions):
     0x0160 [0x01] GOTO 0x0168
# Dead code (unreachable instructions):
     0x018C [0x01] GOTO 0x018F
# Dead code (unreachable instructions):
     0x02A6 [0x01] GOTO 0x0863
     0x02B8 [0x01] GOTO 0x0863
# Dead code (unreachable instructions):
     0x04BA [0x01] GOTO 0x0863
     0x04C8 [0x01] GOTO 0x0863
# Dead code (unreachable instructions):
     0x0860 [0x01] GOTO 0x0863
```

### Event 32002

#### Metadata

| Field        | Value     |
|--------------|-----------|
| Entrypoint   | 0x08C8    |
| Data Size    | 494 bytes |
| Instructions | 83        |

```
      00 01 02 03 04 05 06 07  08 09 0A 0B 0C 0D 0E 0F
      -- -- -- -- -- -- -- --  -- -- -- -- -- -- -- --
08C0:                          03 05 00 06 10 03 21 00          ......!.
08D0: 07 10 03 20 00 08 10 20  01 42 3B F0 FF FF 7F 20  ... ... .B;.... 
08E0: 10 21 10 22 10 3A F0 FF  FF 7F 23 10 45 25 80 F0  .!.".:....#.E%..
08F0: FF FF 7F F0 FF FF 7F 66  64 6F 31 17 80 55 25 80  .......fdo1..U%.
0900: F0 FF FF 7F F0 FF FF 7F  66 64 6F 31 02 17 80 1C  ........fdo1....
0910: 80 00 73 09 02 05 00 1C  80 80 2B 09 47 00 17 80  ..s.......+.G...
0920: 17 80 17 80 17 80 47 01  01 70 09 02 05 00 20 80  ......G..p.... .
0930: 80 42 09 47 00 17 80 17  80 17 80 17 80 47 01 01  .B.G.........G..
0940: 70 09 02 05 00 21 80 80  59 09 47 00 17 80 17 80  p....!..Y.G.....
0950: 17 80 17 80 47 01 01 70  09 02 05 00 22 80 80 70  ....G..p...."..p
0960: 09 47 00 17 80 17 80 17  80 17 80 47 01 01 70 09  .G.........G..p.
0970: 01 7C 0A 02 20 00 4E 80  80 FD 09 02 21 00 17 80  .|.. .N.....!...
0980: 80 92 09 47 00 4F 80 50  80 51 80 52 80 47 01 01  ...G.O.P.Q.R.G..
0990: FA 09 02 21 00 1C 80 80  A9 09 47 00 53 80 54 80  ...!......G.S.T.
09A0: 55 80 56 80 47 01 01 FA  09 02 21 00 20 80 80 C0  U.V.G.....!. ...
09B0: 09 47 00 57 80 58 80 59  80 5A 80 47 01 01 FA 09  .G.W.X.Y.Z.G....
09C0: 02 21 00 21 80 80 D7 09  47 00 5B 80 5C 80 5D 80  .!.!....G.[.\.].
09D0: 5E 80 47 01 01 FA 09 02  21 00 22 80 80 EE 09 47  ^.G.....!."....G
09E0: 00 5F 80 60 80 61 80 62  80 47 01 01 FA 09 47 00  ._.`.a.b.G....G.
09F0: 17 80 17 80 63 80 17 80  47 01 01 7C 0A 02 20 00  ....c...G..|.. .
0A00: 2F 80 80 70 0A 02 21 00  1C 80 80 1C 0A 47 00 64  /..p..!......G.d
0A10: 80 65 80 66 80 67 80 47  01 01 6D 0A 02 21 00 20  .e.f.g.G..m..!. 
0A20: 80 80 33 0A 47 00 68 80  69 80 6A 80 6B 80 47 01  ..3.G.h.i.j.k.G.
0A30: 01 6D 0A 02 21 00 21 80  80 4A 0A 47 00 6C 80 6D  .m..!.!..J.G.l.m
0A40: 80 6E 80 6F 80 47 01 01  6D 0A 02 21 00 22 80 80  .n.o.G..m..!."..
0A50: 61 0A 47 00 70 80 71 80  72 80 73 80 47 01 01 6D  a.G.p.q.r.s.G..m
0A60: 0A 47 00 17 80 17 80 63  80 17 80 47 01 01 7C 0A  .G.....c...G..|.
0A70: 47 00 17 80 17 80 63 80  17 80 47 01 38 26 80 1A  G.....c...G.8&..
0A80: FA 45 45 4C 80 F0 FF FF  7F F0 FF FF 7F 77 68 69  .EEL.........whi
0A90: 31 17 80 45 25 80 F0 FF  FF 7F F0 FF FF 7F 62 6C  1..E%.........bl
0AA0: 6F 66 17 80 5C 00 4D 80  5C 01 4D 80 5C 02 48 80  of..\.M.\.M.\.H.
0AB0: 5C 03 48 80 21 00                                 \.H.!.          
```

#### Opcodes

```
  0: 0x08C8 [0x03] ExtData[1]->WorkLocal[5] = Work_Zone[6]
  1: 0x08CD [0x03] ExtData[1]->WorkLocal[33] = Work_Zone[7]
  2: 0x08D2 [0x03] ExtData[1]->WorkLocal[32] = Work_Zone[8]
  3: 0x08D7 [0x20] SET_CLI_EVENT_UC_FLAG: Lock player control
  4: 0x08D9 [0x42] SET_CLI_EVENT_CANCEL_DATA()
  5: 0x08DA [0x3B] GET_ENTITY_POSITION(entity=LocalPlayer, x_destination=Work_Zone[32], y_destination=Work_Zone[33], z_destination=Work_Zone[34])
  6: 0x08E5 [0x3A] CONVERT_YAW_TO_BYTE(entity=LocalPlayer, result_destination=Work_Zone[35])
  7: 0x08EC [0x45] LOAD_SCHEDULED_TASK: Load scheduler "fdo1" with entities [LocalPlayer, LocalPlayer], work=[200*, 0*]
  8: 0x08FD [0x55] WAIT_LOAD_SCHEDULER: Wait for scheduler "fdo1" with entities [LocalPlayer, LocalPlayer], work=200*
  9: 0x090C [0x02] IF !(0* == 1*) GOTO 0x0973
 10: 0x0914 [0x02] IF !(ExtData[1]->WorkLocal[5] == 1*) GOTO 0x092B
 11: 0x091C [0x47] UPDATE_PLAYER_POS(0.000*, 0.000*, 0.000*, yaw=0.0°*)
 12: 0x0926 [0x47] WAIT_PLAYER_POS_UPDATE
 13: 0x0928 [0x01] GOTO 0x0970
 14: 0x092B [0x02] IF !(ExtData[1]->WorkLocal[5] == 2*) GOTO 0x0942
 15: 0x0933 [0x47] UPDATE_PLAYER_POS(0.000*, 0.000*, 0.000*, yaw=0.0°*)
 16: 0x093D [0x47] WAIT_PLAYER_POS_UPDATE
 17: 0x093F [0x01] GOTO 0x0970
 18: 0x0942 [0x02] IF !(ExtData[1]->WorkLocal[5] == 3*) GOTO 0x0959
 19: 0x094A [0x47] UPDATE_PLAYER_POS(0.000*, 0.000*, 0.000*, yaw=0.0°*)
 20: 0x0954 [0x47] WAIT_PLAYER_POS_UPDATE
 21: 0x0956 [0x01] GOTO 0x0970
 22: 0x0959 [0x02] IF !(ExtData[1]->WorkLocal[5] == 4*) GOTO 0x0970
 23: 0x0961 [0x47] UPDATE_PLAYER_POS(0.000*, 0.000*, 0.000*, yaw=0.0°*)
 24: 0x096B [0x47] WAIT_PLAYER_POS_UPDATE
 25: 0x096D [0x01] GOTO 0x0970

SUBROUTINE_0970:
 26: 0x0970 [0x01] GOTO 0x0A7C
 27: 0x0973 [0x02] IF !(ExtData[1]->WorkLocal[32] == 180*) GOTO 0x09FD
 28: 0x097B [0x02] IF !(ExtData[1]->WorkLocal[33] == 0*) GOTO 0x0992
 29: 0x0983 [0x47] UPDATE_PLAYER_POS(-605.141*, 479.929*, -22.681*, yaw=87.2°*)
 30: 0x098D [0x47] WAIT_PLAYER_POS_UPDATE
 31: 0x098F [0x01] GOTO 0x09FA
 32: 0x0992 [0x02] IF !(ExtData[1]->WorkLocal[33] == 1*) GOTO 0x09A9
 33: 0x099A [0x47] UPDATE_PLAYER_POS(-262.589*, 377.857*, -137.313*, yaw=305.3°*)
 34: 0x09A4 [0x47] WAIT_PLAYER_POS_UPDATE
 35: 0x09A6 [0x01] GOTO 0x09FA
 36: 0x09A9 [0x02] IF !(ExtData[1]->WorkLocal[33] == 2*) GOTO 0x09C0
 37: 0x09B1 [0x47] UPDATE_PLAYER_POS(18.348*, 486.940*, -224.334*, yaw=17.1°*)
 38: 0x09BB [0x47] WAIT_PLAYER_POS_UPDATE
 39: 0x09BD [0x01] GOTO 0x09FA
 40: 0x09C0 [0x02] IF !(ExtData[1]->WorkLocal[33] == 3*) GOTO 0x09D7
 41: 0x09C8 [0x47] UPDATE_PLAYER_POS(231.593*, 360.094*, -173.572*, yaw=160.8°*)
 42: 0x09D2 [0x47] WAIT_PLAYER_POS_UPDATE
 43: 0x09D4 [0x01] GOTO 0x09FA
 44: 0x09D7 [0x02] IF !(ExtData[1]->WorkLocal[33] == 4*) GOTO 0x09EE
 45: 0x09DF [0x47] UPDATE_PLAYER_POS(553.664*, 523.939*, -38.205*, yaw=233.9°*)
 46: 0x09E9 [0x47] WAIT_PLAYER_POS_UPDATE
 47: 0x09EB [0x01] GOTO 0x09FA
 48: 0x09EE [0x47] UPDATE_PLAYER_POS(0.000*, 0.000*, -0.101*, yaw=0.0°*)
 49: 0x09F8 [0x47] WAIT_PLAYER_POS_UPDATE

SUBROUTINE_09FA:
 50: 0x09FA [0x01] GOTO 0x0A7C
 51: 0x09FD [0x02] IF !(ExtData[1]->WorkLocal[32] == 6*) GOTO 0x0A70
 52: 0x0A05 [0x02] IF !(ExtData[1]->WorkLocal[33] == 1*) GOTO 0x0A1C
 53: 0x0A0D [0x47] UPDATE_PLAYER_POS(-875.117*, -43.892*, -48.084*, yaw=45.1°*)
 54: 0x0A17 [0x47] WAIT_PLAYER_POS_UPDATE
 55: 0x0A19 [0x01] GOTO 0x0A6D
 56: 0x0A1C [0x02] IF !(ExtData[1]->WorkLocal[33] == 2*) GOTO 0x0A33
 57: 0x0A24 [0x47] UPDATE_PLAYER_POS(-755.499*, 563.947*, -112.035*, yaw=313.5°*)
 58: 0x0A2E [0x47] WAIT_PLAYER_POS_UPDATE
 59: 0x0A30 [0x01] GOTO 0x0A6D
 60: 0x0A33 [0x02] IF !(ExtData[1]->WorkLocal[33] == 3*) GOTO 0x0A4A
 61: 0x0A3B [0x47] UPDATE_PLAYER_POS(123.251*, 754.209*, -172.124*, yaw=38.7°*)
 62: 0x0A45 [0x47] WAIT_PLAYER_POS_UPDATE
 63: 0x0A47 [0x01] GOTO 0x0A6D
 64: 0x0A4A [0x02] IF !(ExtData[1]->WorkLocal[33] == 4*) GOTO 0x0A61
 65: 0x0A52 [0x47] UPDATE_PLAYER_POS(-516.404*, -803.323*, 24.206*, yaw=38.4°*)
 66: 0x0A5C [0x47] WAIT_PLAYER_POS_UPDATE
 67: 0x0A5E [0x01] GOTO 0x0A6D
 68: 0x0A61 [0x47] UPDATE_PLAYER_POS(0.000*, 0.000*, -0.101*, yaw=0.0°*)
 69: 0x0A6B [0x47] WAIT_PLAYER_POS_UPDATE

SUBROUTINE_0A6D:
 70: 0x0A6D [0x01] GOTO 0x0A7C
 71: 0x0A70 [0x47] UPDATE_PLAYER_POS(0.000*, 0.000*, -0.101*, yaw=0.0°*)
 72: 0x0A7A [0x47] WAIT_PLAYER_POS_UPDATE

SUBROUTINE_0A7C:
 73: 0x0A7C [0x38] SET_CLIENT_EVENT_MODE(mode=19*)
 74: 0x0A7F [0x1A] CALL_SUBROUTINE(address=0x45FA)
 75: 0x0A82 [0x45] LOAD_SCHEDULED_TASK: Load scheduler "whi1" with entities [LocalPlayer, LocalPlayer], work=[201*, 0*]
 76: 0x0A93 [0x45] LOAD_SCHEDULED_TASK: Load scheduler "blof" with entities [LocalPlayer, LocalPlayer], work=[200*, 0*]
 77: 0x0AA4 [0x5C] MUSIC_CONTROL: Set Idle (Day) music to song 155*
 78: 0x0AA8 [0x5C] MUSIC_CONTROL: Set Idle (Night) music to song 155*
 79: 0x0AAC [0x5C] MUSIC_CONTROL: Set Combat (Solo) music to song 119*
 80: 0x0AB0 [0x5C] MUSIC_CONTROL: Set Combat (Party) music to song 119*
 81: 0x0AB4 [0x21] END_EVENT
 82: 0x0AB5 [0x00] END_REQSTACK()
```

### Event 32001

#### Metadata

| Field        | Value      |
|--------------|------------|
| Entrypoint   | 0x0AB6     |
| Data Size    | 1103 bytes |
| Instructions | 192        |

```
      00 01 02 03 04 05 06 07  08 09 0A 0B 0C 0D 0E 0F
      -- -- -- -- -- -- -- --  -- -- -- -- -- -- -- --
0AB0:                   79 00  F0 FF FF 7F F0 FF FF 7F        y.........
0AC0: 03 21 00 02 10 03 1A 00  03 10 03 1B 00 05 10 03  .!..............
0AD0: 20 00 06 10 03 19 00 07  10 03 17 00 08 10 02 17   ...............
0AE0: 00 21 80 04 EB 0A 03 17  00 17 80 02 19 00 2F 80  .!............/.
0AF0: 80 FB 0A 03 17 00 20 80  01 FB 0A 03 1C 00 09 10  ...... .........
0B00: 20 01 42 3B F0 FF FF 7F  20 10 21 10 22 10 3A F0   .B;.... .!.".:.
0B10: FF FF 7F 23 10 02 20 00  4E 80 01 20 0B 1C 74 80  ...#.. .N.. ..t.
0B20: 45 4C 80 F0 FF FF 7F F0  FF FF 7F 77 68 69 31 17  EL.........whi1.
0B30: 80 45 25 80 F0 FF FF 7F  F0 FF FF 7F 62 6C 6F 66  .E%.........blof
0B40: 17 80 45 25 80 F0 FF FF  7F F0 FF FF 7F 66 64 6F  ..E%.........fdo
0B50: 31 17 80 55 25 80 F0 FF  FF 7F F0 FF FF 7F 66 64  1..U%.........fd
0B60: 6F 31 6C F0 FF FF 7F 75  80 1C 80 06 01 10 02 17  o1l....u........
0B70: 00 17 80 03 79 0B 01 C7  0C 02 20 00 4E 80 80 03  ....y..... .N...
0B80: 0C 02 21 00 17 80 80 98  0B 47 00 76 80 77 80 78  ..!......G.v.w.x
0B90: 80 79 80 47 01 01 00 0C  02 21 00 1C 80 80 AF 0B  .y.G.....!......
0BA0: 47 00 7A 80 7B 80 7C 80  7D 80 47 01 01 00 0C 02  G.z.{.|.}.G.....
0BB0: 21 00 20 80 80 C6 0B 47  00 7E 80 7F 80 80 80 81  !. ....G.~......
0BC0: 80 47 01 01 00 0C 02 21  00 21 80 80 DD 0B 47 00  .G.....!.!....G.
0BD0: 82 80 83 80 84 80 85 80  47 01 01 00 0C 02 21 00  ........G.....!.
0BE0: 22 80 80 F4 0B 47 00 86  80 87 80 88 80 89 80 47  "....G.........G
0BF0: 01 01 00 0C 47 00 8A 80  8B 80 8C 80 8D 80 47 01  ....G.........G.
0C00: 01 C7 0C 02 20 00 8E 80  80 31 0C 02 19 00 17 80  .... ....1......
0C10: 80 22 0C 47 00 8A 80 8B  80 8C 80 8D 80 47 01 01  .".G.........G..
0C20: 2E 0C 47 00 8F 80 90 80  91 80 92 80 47 01 01 C7  ..G.........G...
0C30: 0C 02 20 00 93 80 80 5F  0C 02 19 00 22 80 80 50  .. ...._...."..P
0C40: 0C 47 00 94 80 95 80 96  80 97 80 47 01 01 5C 0C  .G.........G..\.
0C50: 47 00 8A 80 8B 80 8C 80  8D 80 47 01 01 C7 0C 02  G.........G.....
0C60: 20 00 98 80 80 8D 0C 02  19 00 22 80 80 7E 0C 47   ........."..~.G
0C70: 00 99 80 9A 80 9B 80 9C  80 47 01 01 8A 0C 47 00  .........G....G.
0C80: 8A 80 8B 80 8C 80 8D 80  47 01 01 C7 0C 02 20 00  ........G..... .
0C90: 9D 80 80 BB 0C 02 19 00  21 80 80 AC 0C 47 00 9E  ........!....G..
0CA0: 80 9F 80 A0 80 A1 80 47  01 01 B8 0C 47 00 8A 80  .......G....G...
0CB0: 8B 80 8C 80 8D 80 47 01  01 C7 0C 47 00 8A 80 8B  ......G....G....
0CC0: 80 8C 80 8D 80 47 01 38  26 80 02 17 00 20 80 00  .....G.8&.... ..
0CD0: D5 0C 01 F0 0C 02 17 00  1C 80 00 A0 0D 1C 18 80  ................
0CE0: 24 47 80 1C 80 17 80 25  02 00 10 17 80 00 A0 0D  $G.....%........
0CF0: 02 20 00 4E 80 00 5C 0D  02 21 00 17 80 80 0A 0D  . .N..\..!......
0D00: 36 76 80 77 80 78 80 01  59 0D 02 21 00 1C 80 80  6v.w.x..Y..!....
0D10: 1C 0D 36 7A 80 7B 80 7C  80 01 59 0D 02 21 00 20  ..6z.{.|..Y..!. 
0D20: 80 80 2E 0D 36 7E 80 7F  80 80 80 01 59 0D 02 21  ....6~......Y..!
0D30: 00 21 80 80 40 0D 36 82  80 83 80 84 80 01 59 0D  .!..@.6.......Y.
0D40: 02 21 00 22 80 80 52 0D  36 86 80 87 80 88 80 01  .!."..R.6.......
0D50: 59 0D 36 8A 80 8B 80 8C  80 01 65 0D 37 8A 80 8B  Y.6.......e.7...
0D60: 80 8C 80 8D 80 80 F0 FF  FF 7F 62 20 80 F0 FF FF  ..........b ....
0D70: 7F F0 FF FF 7F 6D 61 69  6E 17 80 45 25 80 F0 FF  .....main..E%...
0D80: FF 7F F0 FF FF 7F 66 64  69 32 17 80 46 02 12 00  ......fdi2..F...
0D90: 02 12 00 17 80 00 9A 0D  46 00 01 FD 0D 01 A0 0D  ........F.......
0DA0: 02 17 00 1B 80 04 EF 0D  5C 00 48 80 5C 01 48 80  ........\.H.\.H.
0DB0: 5C 02 48 80 5C 03 48 80  02 19 00 1C 80 80 D3 0D  \.H.\.H.........
0DC0: 5C 00 A2 80 5C 01 A2 80  5C 02 A2 80 5C 03 A2 80  \...\...\...\...
0DD0: 01 EE 0D 02 19 00 22 80  80 EE 0D 5C 00 17 80 5C  ......"....\...\
0DE0: 01 17 80 5C 02 17 80 5C  03 17 80 01 EE 0D 9A 1A  ...\...\........
0DF0: FA 1F 02 17 00 17 80 03  FD 0D 01 9D 0E 02 20 00  .............. .
0E00: A3 80 80 08 0E 01 08 0E  02 20 00 33 80 80 13 0E  ......... .3....
0E10: 01 9D 0E 02 20 00 26 80  80 1E 0E 01 9D 0E 02 20  .... .&........ 
0E20: 00 36 80 80 29 0E 01 9D  0E 02 20 00 38 80 80 34  .6..)..... .8..4
0E30: 0E 01 9D 0E 03 05 10 1B  00 02 05 10 17 80 02 9D  ................
0E40: 0E 02 05 10 43 80 04 5C  0E 3F 04 10 05 10 43 80  ....C..\.?....C.
0E50: 15 05 10 43 80 48 A4 80  23 01 60 0E 48 A5 80 23  ...C.H..#.`.H..#
0E60: 02 1B 00 1A 00 05 74 0E  03 07 10 19 00 48 A6 80  ......t......H..
0E70: 23 01 9D 0E 02 1A 00 43  80 04 94 0E 03 05 10 1A  #......C........
0E80: 00 3F 04 10 05 10 43 80  15 05 10 43 80 48 A7 80  .?....C....C.H..
0E90: 23 01 9D 0E 03 05 10 1A  00 48 A8 80 23 02 18 00  #........H..#...
0EA0: 17 80 00 B5 0E 5C 00 4D  80 5C 01 4D 80 5C 02 48  .....\.M.\.M.\.H
0EB0: 80 5C 03 48 80 02 17 00  17 80 03 DE 0E 45 25 80  .\.H.........E%.
0EC0: F0 FF FF 7F F0 FF FF 7F  66 64 69 32 17 80 5C 00  ........fdi2..\.
0ED0: 4D 80 5C 01 4D 80 5C 02  48 80 5C 03 48 80 06 18  M.\.M.\.H.\.H...
0EE0: 00 45 4C 80 F0 FF FF 7F  F0 FF FF 7F 77 68 69 31  .EL.........whi1
0EF0: 17 80 45 25 80 F0 FF FF  7F F0 FF FF 7F 62 6C 6F  ..E%.........blo
0F00: 66 17 80 21 00                                    f..!.           
```

#### Opcodes

```
  0: 0x0AB6 [0x79] LocalPlayer looks at LocalPlayer (Basic look)
  1: 0x0AC0 [0x03] ExtData[1]->WorkLocal[33] = Work_Zone[2]
  2: 0x0AC5 [0x03] ExtData[1]->WorkLocal[26] = Work_Zone[3]
  3: 0x0ACA [0x03] ExtData[1]->WorkLocal[27] = Work_Zone[5]
  4: 0x0ACF [0x03] ExtData[1]->WorkLocal[32] = Work_Zone[6]
  5: 0x0AD4 [0x03] ExtData[1]->WorkLocal[25] = Work_Zone[7]
  6: 0x0AD9 [0x03] ExtData[1]->WorkLocal[23] = Work_Zone[8]
  7: 0x0ADE [0x02] IF !(ExtData[1]->WorkLocal[23] < 3*) GOTO 0x0AEB
  8: 0x0AE6 [0x03] ExtData[1]->WorkLocal[23] = 0*
  9: 0x0AEB [0x02] IF !(ExtData[1]->WorkLocal[25] == 6*) GOTO 0x0AFB
 10: 0x0AF3 [0x03] ExtData[1]->WorkLocal[23] = 2*
 11: 0x0AF8 [0x01] GOTO 0x0AFB

SUBROUTINE_0AFB:
 12: 0x0AFB [0x03] ExtData[1]->WorkLocal[28] = Work_Zone[9]
 13: 0x0B00 [0x20] SET_CLI_EVENT_UC_FLAG: Lock player control
 14: 0x0B02 [0x42] SET_CLI_EVENT_CANCEL_DATA()
 15: 0x0B03 [0x3B] GET_ENTITY_POSITION(entity=LocalPlayer, x_destination=Work_Zone[32], y_destination=Work_Zone[33], z_destination=Work_Zone[34])
 16: 0x0B0E [0x3A] CONVERT_YAW_TO_BYTE(entity=LocalPlayer, result_destination=Work_Zone[35])
 17: 0x0B15 [0x02] IF !(ExtData[1]->WorkLocal[32] == 180*) GOTO 0x0B20
 18: 0x0B1D [0x1C] WAIT(300* ticks)
 19: 0x0B20 [0x45] LOAD_SCHEDULED_TASK: Load scheduler "whi1" with entities [LocalPlayer, LocalPlayer], work=[201*, 0*]
 20: 0x0B31 [0x45] LOAD_SCHEDULED_TASK: Load scheduler "blof" with entities [LocalPlayer, LocalPlayer], work=[200*, 0*]
 21: 0x0B42 [0x45] LOAD_SCHEDULED_TASK: Load scheduler "fdo1" with entities [LocalPlayer, LocalPlayer], work=[200*, 0*]
 22: 0x0B53 [0x55] WAIT_LOAD_SCHEDULER: Wait for scheduler "fdo1" with entities [LocalPlayer, LocalPlayer], work=200*
 23: 0x0B62 [0x6C] FADE_ENTITY_COLOR(entity_id=LocalPlayer, end_alpha=128*, fade_time=1*)
 24: 0x0B6B [0x06] Work_Zone[1] = 0
 25: 0x0B6E [0x02] IF !(ExtData[1]->WorkLocal[23] >= 0*) GOTO 0x0B79
 26: 0x0B76 [0x01] GOTO 0x0CC7
 27: 0x0B79 [0x02] IF !(ExtData[1]->WorkLocal[32] == 180*) GOTO 0x0C03
 28: 0x0B81 [0x02] IF !(ExtData[1]->WorkLocal[33] == 0*) GOTO 0x0B98
 29: 0x0B89 [0x47] UPDATE_PLAYER_POS(-618.329*, -643.868*, -25.805*, yaw=330.5°*)
 30: 0x0B93 [0x47] WAIT_PLAYER_POS_UPDATE
 31: 0x0B95 [0x01] GOTO 0x0C00
 32: 0x0B98 [0x02] IF !(ExtData[1]->WorkLocal[33] == 1*) GOTO 0x0BAF
 33: 0x0BA0 [0x47] UPDATE_PLAYER_POS(-332.163*, -441.914*, -95.055*, yaw=330.5°*)
 34: 0x0BAA [0x47] WAIT_PLAYER_POS_UPDATE
 35: 0x0BAC [0x01] GOTO 0x0C00
 36: 0x0BAF [0x02] IF !(ExtData[1]->WorkLocal[33] == 2*) GOTO 0x0BC6
 37: 0x0BB7 [0x47] UPDATE_PLAYER_POS(-12.464*, -648.377*, -194.629*, yaw=331.3°*)
 38: 0x0BC1 [0x47] WAIT_PLAYER_POS_UPDATE
 39: 0x0BC3 [0x01] GOTO 0x0C00
 40: 0x0BC6 [0x02] IF !(ExtData[1]->WorkLocal[33] == 3*) GOTO 0x0BDD
 41: 0x0BCE [0x47] UPDATE_PLAYER_POS(323.381*, -443.793*, -108.440*, yaw=329.1°*)
 42: 0x0BD8 [0x47] WAIT_PLAYER_POS_UPDATE
 43: 0x0BDA [0x01] GOTO 0x0C00
 44: 0x0BDD [0x02] IF !(ExtData[1]->WorkLocal[33] == 4*) GOTO 0x0BF4
 45: 0x0BE5 [0x47] UPDATE_PLAYER_POS(599.907*, -676.969*, -22.473*, yaw=330.7°*)
 46: 0x0BEF [0x47] WAIT_PLAYER_POS_UPDATE
 47: 0x0BF1 [0x01] GOTO 0x0C00
 48: 0x0BF4 [0x47] UPDATE_PLAYER_POS(90.425*, 0.089*, -5.749*, yaw=4.6°*)
 49: 0x0BFE [0x47] WAIT_PLAYER_POS_UPDATE

SUBROUTINE_0C00:
 50: 0x0C00 [0x01] GOTO 0x0CC7
 51: 0x0C03 [0x02] IF !(ExtData[1]->WorkLocal[32] == 168*) GOTO 0x0C31
 52: 0x0C0B [0x02] IF !(ExtData[1]->WorkLocal[25] == 0*) GOTO 0x0C22
 53: 0x0C13 [0x47] UPDATE_PLAYER_POS(90.425*, 0.089*, -5.749*, yaw=4.6°*)
 54: 0x0C1D [0x47] WAIT_PLAYER_POS_UPDATE
 55: 0x0C1F [0x01] GOTO 0x0C2E
 56: 0x0C22 [0x47] UPDATE_PLAYER_POS(200.059*, -21.958*, -0.250*, yaw=91.5°*)
 57: 0x0C2C [0x47] WAIT_PLAYER_POS_UPDATE

SUBROUTINE_0C2E:
 58: 0x0C2E [0x01] GOTO 0x0CC7
 59: 0x0C31 [0x02] IF !(ExtData[1]->WorkLocal[32] == 202*) GOTO 0x0C5F
 60: 0x0C39 [0x02] IF !(ExtData[1]->WorkLocal[25] == 4*) GOTO 0x0C50
 61: 0x0C41 [0x47] UPDATE_PLAYER_POS(538.604*, 501.900*, -13.942*, yaw=286.5°*)
 62: 0x0C4B [0x47] WAIT_PLAYER_POS_UPDATE
 63: 0x0C4D [0x01] GOTO 0x0C5C
 64: 0x0C50 [0x47] UPDATE_PLAYER_POS(90.425*, 0.089*, -5.749*, yaw=4.6°*)
 65: 0x0C5A [0x47] WAIT_PLAYER_POS_UPDATE

SUBROUTINE_0C5C:
 66: 0x0C5C [0x01] GOTO 0x0CC7
 67: 0x0C5F [0x02] IF !(ExtData[1]->WorkLocal[32] == 203*) GOTO 0x0C8D
 68: 0x0C67 [0x02] IF !(ExtData[1]->WorkLocal[25] == 4*) GOTO 0x0C7E
 69: 0x0C6F [0x47] UPDATE_PLAYER_POS(553.205*, 589.633*, -0.021*, yaw=124.4°*)
 70: 0x0C79 [0x47] WAIT_PLAYER_POS_UPDATE
 71: 0x0C7B [0x01] GOTO 0x0C8A
 72: 0x0C7E [0x47] UPDATE_PLAYER_POS(90.425*, 0.089*, -5.749*, yaw=4.6°*)
 73: 0x0C88 [0x47] WAIT_PLAYER_POS_UPDATE

SUBROUTINE_0C8A:
 74: 0x0C8A [0x01] GOTO 0x0CC7
 75: 0x0C8D [0x02] IF !(ExtData[1]->WorkLocal[32] == 211*) GOTO 0x0CBB
 76: 0x0C95 [0x02] IF !(ExtData[1]->WorkLocal[25] == 3*) GOTO 0x0CAC
 77: 0x0C9D [0x47] UPDATE_PLAYER_POS(569.224*, 548.462*, 36.837*, yaw=59.1°*)
 78: 0x0CA7 [0x47] WAIT_PLAYER_POS_UPDATE
 79: 0x0CA9 [0x01] GOTO 0x0CB8
 80: 0x0CAC [0x47] UPDATE_PLAYER_POS(90.425*, 0.089*, -5.749*, yaw=4.6°*)
 81: 0x0CB6 [0x47] WAIT_PLAYER_POS_UPDATE

SUBROUTINE_0CB8:
 82: 0x0CB8 [0x01] GOTO 0x0CC7
 83: 0x0CBB [0x47] UPDATE_PLAYER_POS(90.425*, 0.089*, -5.749*, yaw=4.6°*)
 84: 0x0CC5 [0x47] WAIT_PLAYER_POS_UPDATE

SUBROUTINE_0CC7:
 85: 0x0CC7 [0x38] SET_CLIENT_EVENT_MODE(mode=19*)
 86: 0x0CCA [0x02] IF !(ExtData[1]->WorkLocal[23] == 2*) GOTO 0x0CD5
 87: 0x0CD2 [0x01] GOTO 0x0CF0
 88: 0x0CD5 [0x02] IF !(ExtData[1]->WorkLocal[23] == 1*) GOTO 0x0DA0
 89: 0x0CDD [0x1C] WAIT(15* ticks)
 90: 0x0CE0 [0x24] CREATE_DIALOG(message_id=7566*, default_option=1*, option_flags=0*)
    → "Skip the event? [Yes./No.]"
 91: 0x0CE7 [0x25] WAIT_DIALOG_SELECT()
 92: 0x0CE8 [0x02] IF !(Work_Zone[0] == 0*) GOTO 0x0DA0

SUBROUTINE_0CF0:
 93: 0x0CF0 [0x02] IF !(ExtData[1]->WorkLocal[32] == 180*) GOTO 0x0D5C
 94: 0x0CF8 [0x02] IF !(ExtData[1]->WorkLocal[33] == 0*) GOTO 0x0D0A
 95: 0x0D00 [0x36] SET_ENTITY_EVENT_POSITION(pos_x=-618.329*, pos_z=-643.868*, pos_y=-25.805*)
 96: 0x0D07 [0x01] GOTO 0x0D59
 97: 0x0D0A [0x02] IF !(ExtData[1]->WorkLocal[33] == 1*) GOTO 0x0D1C
 98: 0x0D12 [0x36] SET_ENTITY_EVENT_POSITION(pos_x=-332.163*, pos_z=-441.914*, pos_y=-95.055*)
 99: 0x0D19 [0x01] GOTO 0x0D59
100: 0x0D1C [0x02] IF !(ExtData[1]->WorkLocal[33] == 2*) GOTO 0x0D2E
101: 0x0D24 [0x36] SET_ENTITY_EVENT_POSITION(pos_x=-12.464*, pos_z=-648.377*, pos_y=-194.629*)
102: 0x0D2B [0x01] GOTO 0x0D59
103: 0x0D2E [0x02] IF !(ExtData[1]->WorkLocal[33] == 3*) GOTO 0x0D40
104: 0x0D36 [0x36] SET_ENTITY_EVENT_POSITION(pos_x=323.381*, pos_z=-443.793*, pos_y=-108.440*)
105: 0x0D3D [0x01] GOTO 0x0D59
106: 0x0D40 [0x02] IF !(ExtData[1]->WorkLocal[33] == 4*) GOTO 0x0D52
107: 0x0D48 [0x36] SET_ENTITY_EVENT_POSITION(pos_x=599.907*, pos_z=-676.969*, pos_y=-22.473*)
108: 0x0D4F [0x01] GOTO 0x0D59
109: 0x0D52 [0x36] SET_ENTITY_EVENT_POSITION(pos_x=90.425*, pos_z=0.089*, pos_y=-5.749*)

SUBROUTINE_0D59:
110: 0x0D59 [0x01] GOTO 0x0D65
111: 0x0D5C [0x37] UPDATE_EVENT_POSITION_AND_DIR: x=90.425*, z=0.089*, y=-5.749*, direction=4.6°*

SUBROUTINE_0D65:
112: 0x0D65 [0x80] LOAD_WAIT(entity=LocalPlayer)
113: 0x0D6A [0x62] LOAD_EVENT_SCHEDULER: Load scheduler "main" with entities [LocalPlayer, LocalPlayer], work=[2*, 0*]
114: 0x0D7B [0x45] LOAD_SCHEDULED_TASK: Load scheduler "fdi2" with entities [LocalPlayer, LocalPlayer], work=[200*, 0*]
115: 0x0D8C [0x46] CAMERA_CONTROL: Query status
116: 0x0D8E [0x12] 0x0200 = rand()
117: 0x0D91 [0x12] Work_Zone_1700[0] = rand()
118: 0x0D94 [0x80] LOAD_WAIT(entity=Unknown NPC (ID: 1175296512/0x460D9A00))
119: 0x0D99 [0x00] END_REQSTACK()

SUBROUTINE_0DA0:
120: 0x0DA0 [0x02] IF !(ExtData[1]->WorkLocal[23] < 4294967295*) GOTO 0x0DEF
121: 0x0DA8 [0x5C] MUSIC_CONTROL: Set Idle (Day) music to song 119*
122: 0x0DAC [0x5C] MUSIC_CONTROL: Set Idle (Night) music to song 119*
123: 0x0DB0 [0x5C] MUSIC_CONTROL: Set Combat (Solo) music to song 119*
124: 0x0DB4 [0x5C] MUSIC_CONTROL: Set Combat (Party) music to song 119*
125: 0x0DB8 [0x02] IF !(ExtData[1]->WorkLocal[25] == 1*) GOTO 0x0DD3
126: 0x0DC0 [0x5C] MUSIC_CONTROL: Set Idle (Day) music to song 157*
127: 0x0DC4 [0x5C] MUSIC_CONTROL: Set Idle (Night) music to song 157*
128: 0x0DC8 [0x5C] MUSIC_CONTROL: Set Combat (Solo) music to song 157*
129: 0x0DCC [0x5C] MUSIC_CONTROL: Set Combat (Party) music to song 157*
130: 0x0DD0 [0x01] GOTO 0x0DEE
131: 0x0DD3 [0x02] IF !(ExtData[1]->WorkLocal[25] == 4*) GOTO 0x0DEE
132: 0x0DDB [0x5C] MUSIC_CONTROL: Set Idle (Day) music to song 0*
133: 0x0DDF [0x5C] MUSIC_CONTROL: Set Idle (Night) music to song 0*
134: 0x0DE3 [0x5C] MUSIC_CONTROL: Set Combat (Solo) music to song 0*
135: 0x0DE7 [0x5C] MUSIC_CONTROL: Set Combat (Party) music to song 0*
136: 0x0DEB [0x01] GOTO 0x0DEE

SUBROUTINE_0DEE:
137: 0x0DEE [0x9A] WAIT_MUSIC_SERVER()
138: 0x0DEF [0x1A] CALL_SUBROUTINE(address=0x1FFA)
139: 0x0DF2 [0x02] IF !(ExtData[1]->WorkLocal[23] >= 0*) GOTO 0x0DFD
140: 0x0DFA [0x01] GOTO 0x0E9D

SUBROUTINE_0DFD:
141: 0x0DFD [0x02] IF !(ExtData[1]->WorkLocal[32] == 36*) GOTO 0x0E08
142: 0x0E05 [0x01] GOTO 0x0E08

SUBROUTINE_0E08:
143: 0x0E08 [0x02] IF !(ExtData[1]->WorkLocal[32] == 17*) GOTO 0x0E13
144: 0x0E10 [0x01] GOTO 0x0E9D
145: 0x0E13 [0x02] IF !(ExtData[1]->WorkLocal[32] == 19*) GOTO 0x0E1E
146: 0x0E1B [0x01] GOTO 0x0E9D
147: 0x0E1E [0x02] IF !(ExtData[1]->WorkLocal[32] == 21*) GOTO 0x0E29
148: 0x0E26 [0x01] GOTO 0x0E9D
149: 0x0E29 [0x02] IF !(ExtData[1]->WorkLocal[32] == 23*) GOTO 0x0E34
150: 0x0E31 [0x01] GOTO 0x0E9D
151: 0x0E34 [0x03] Work_Zone[5] = ExtData[1]->WorkLocal[27]
152: 0x0E39 [0x02] IF !(Work_Zone[5] <= 0*) GOTO 0x0E9D
153: 0x0E41 [0x02] IF !(Work_Zone[5] < 60*) GOTO 0x0E5C
154: 0x0E49 [0x3F] Work_Zone[4] = Work_Zone[5] % 60*
155: 0x0E50 [0x15] Work_Zone[5] /= 60*
156: 0x0E55 [0x48] [System] [7568*]:
    → "Battlefield clear time: $3 minute[/s], $2 second[/s]!"
157: 0x0E58 [0x23] WAIT_FOR_DIALOG_INTERACTION
158: 0x0E59 [0x01] GOTO 0x0E60
159: 0x0E5C [0x48] [System] [7567*]:
    → "Battlefield clear time: $3 second[/s]!"
160: 0x0E5F [0x23] WAIT_FOR_DIALOG_INTERACTION

SUBROUTINE_0E60:
161: 0x0E60 [0x02] IF !(ExtData[1]->WorkLocal[27] > ExtData[1]->WorkLocal[26]) GOTO 0x0E74
162: 0x0E68 [0x03] Work_Zone[7] = ExtData[1]->WorkLocal[25]
163: 0x0E6D [0x48] [System] [7601*]:
    → "You have broken the clear time record for "[The Shadow Lord Battle/Where Two Paths Converge/Kindred Spirits/Survival of the Wisest/Smash! A Malevolent Menace/$26Kindred Spirits/$26The Shadow Lord Battle/True Love/A Fond Farewell/Kipdrix the Faithful]"!"
164: 0x0E70 [0x23] WAIT_FOR_DIALOG_INTERACTION
165: 0x0E71 [0x01] GOTO 0x0E9D
166: 0x0E74 [0x02] IF !(ExtData[1]->WorkLocal[26] < 60*) GOTO 0x0E94
167: 0x0E7C [0x03] Work_Zone[5] = ExtData[1]->WorkLocal[26]
168: 0x0E81 [0x3F] Work_Zone[4] = Work_Zone[5] % 60*
169: 0x0E88 [0x15] Work_Zone[5] /= 60*
170: 0x0E8D [0x48] [System] [7570*]:
    → "The current battlefield clear time record is $3 minute[/s] $2 second[/s]."
171: 0x0E90 [0x23] WAIT_FOR_DIALOG_INTERACTION
172: 0x0E91 [0x01] GOTO 0x0E9D
173: 0x0E94 [0x03] Work_Zone[5] = ExtData[1]->WorkLocal[26]
174: 0x0E99 [0x48] [System] [7569*]:
    → "The current battlefield clear time record is $3 second[/s]."
175: 0x0E9C [0x23] WAIT_FOR_DIALOG_INTERACTION

SUBROUTINE_0E9D:
176: 0x0E9D [0x02] IF !(ExtData[1]->WorkLocal[24] == 0*) GOTO 0x0EB5
177: 0x0EA5 [0x5C] MUSIC_CONTROL: Set Idle (Day) music to song 155*
178: 0x0EA9 [0x5C] MUSIC_CONTROL: Set Idle (Night) music to song 155*
179: 0x0EAD [0x5C] MUSIC_CONTROL: Set Combat (Solo) music to song 119*
180: 0x0EB1 [0x5C] MUSIC_CONTROL: Set Combat (Party) music to song 119*
181: 0x0EB5 [0x02] IF !(ExtData[1]->WorkLocal[23] >= 0*) GOTO 0x0EDE
182: 0x0EBD [0x45] LOAD_SCHEDULED_TASK: Load scheduler "fdi2" with entities [LocalPlayer, LocalPlayer], work=[200*, 0*]
183: 0x0ECE [0x5C] MUSIC_CONTROL: Set Idle (Day) music to song 155*
184: 0x0ED2 [0x5C] MUSIC_CONTROL: Set Idle (Night) music to song 155*
185: 0x0ED6 [0x5C] MUSIC_CONTROL: Set Combat (Solo) music to song 119*
186: 0x0EDA [0x5C] MUSIC_CONTROL: Set Combat (Party) music to song 119*
187: 0x0EDE [0x06] ExtData[1]->WorkLocal[24] = 0
188: 0x0EE1 [0x45] LOAD_SCHEDULED_TASK: Load scheduler "whi1" with entities [LocalPlayer, LocalPlayer], work=[201*, 0*]
189: 0x0EF2 [0x45] LOAD_SCHEDULED_TASK: Load scheduler "blof" with entities [LocalPlayer, LocalPlayer], work=[200*, 0*]
190: 0x0F03 [0x21] END_EVENT
191: 0x0F04 [0x00] END_REQSTACK()
```

#### Data or dead code:

```
# Dead code (unreachable instructions):
     0x0D9A [0x01] GOTO 0x0DFD
     0x0D9D [0x01] GOTO 0x0DA0
```

### Event 32003

#### Metadata

| Field        | Value     |
|--------------|-----------|
| Entrypoint   | 0x0F05    |
| Data Size    | 435 bytes |
| Instructions | 77        |

```
      00 01 02 03 04 05 06 07  08 09 0A 0B 0C 0D 0E 0F
      -- -- -- -- -- -- -- --  -- -- -- -- -- -- -- --
0F00:                06 1D 00  06 1E 00 03 21 00 06 10       .......!...
0F10: 03 20 00 07 10 03 1F 00  08 10 06 01 10 1A 58 45  . ............XE
0F20: 02 1D 00 1C 80 00 B6 10  42 03 01 10 20 80 43 00  ........B... .C.
0F30: 43 01 03 01 10 21 80 43  00 43 01 1A 6F 45 02 1E  C....!.C.C..oE..
0F40: 00 1C 80 00 B6 10 45 25  80 F0 FF FF 7F F0 FF FF  ......E%........
0F50: 7F 66 64 6F 31 17 80 55  25 80 F0 FF FF 7F F0 FF  .fdo1..U%.......
0F60: FF 7F 66 64 6F 31 03 01  10 22 80 02 20 00 4E 80  ..fdo1...".. .N.
0F70: 80 F5 0F 02 21 00 17 80  80 8A 0F 47 00 4F 80 50  ....!......G.O.P
0F80: 80 51 80 52 80 47 01 01  F2 0F 02 21 00 1C 80 80  .Q.R.G.....!....
0F90: A1 0F 47 00 53 80 54 80  55 80 56 80 47 01 01 F2  ..G.S.T.U.V.G...
0FA0: 0F 02 21 00 20 80 80 B8  0F 47 00 57 80 58 80 59  ..!. ....G.W.X.Y
0FB0: 80 5A 80 47 01 01 F2 0F  02 21 00 21 80 80 CF 0F  .Z.G.....!.!....
0FC0: 47 00 5B 80 5C 80 5D 80  5E 80 47 01 01 F2 0F 02  G.[.\.].^.G.....
0FD0: 21 00 22 80 80 E6 0F 47  00 5F 80 60 80 61 80 62  !."....G._.`.a.b
0FE0: 80 47 01 01 F2 0F 47 00  17 80 17 80 63 80 17 80  .G....G.....c...
0FF0: 47 01 01 74 10 02 20 00  2F 80 80 68 10 02 1F 00  G..t.. ./..h....
1000: 1C 80 80 14 10 47 00 64  80 65 80 66 80 67 80 47  .....G.d.e.f.g.G
1010: 01 01 65 10 02 1F 00 20  80 80 2B 10 47 00 68 80  ..e.... ..+.G.h.
1020: 69 80 6A 80 6B 80 47 01  01 65 10 02 1F 00 21 80  i.j.k.G..e....!.
1030: 80 42 10 47 00 6C 80 6D  80 6E 80 6F 80 47 01 01  .B.G.l.m.n.o.G..
1040: 65 10 02 1F 00 22 80 80  59 10 47 00 70 80 71 80  e...."..Y.G.p.q.
1050: 72 80 73 80 47 01 01 65  10 47 00 17 80 17 80 63  r.s.G..e.G.....c
1060: 80 17 80 47 01 01 74 10  47 00 17 80 17 80 63 80  ...G..t.G.....c.
1070: 17 80 47 01 38 26 80 79  00 F0 FF FF 7F F0 FF FF  ..G.8&.y........
1080: 7F 1A 73 45 45 4C 80 F0  FF FF 7F F0 FF FF 7F 77  ..sEEL.........w
1090: 68 69 31 17 80 45 25 80  F0 FF FF 7F F0 FF FF 7F  hi1..E%.........
10A0: 62 6C 6F 66 17 80 5C 00  4D 80 5C 01 4D 80 5C 02  blof..\.M.\.M.\.
10B0: 48 80 5C 03 48 80 21 00                           H.\.H.!.        
```

#### Opcodes

```
  0: 0x0F05 [0x06] ExtData[1]->WorkLocal[29] = 0
  1: 0x0F08 [0x06] ExtData[1]->WorkLocal[30] = 0
  2: 0x0F0B [0x03] ExtData[1]->WorkLocal[33] = Work_Zone[6]
  3: 0x0F10 [0x03] ExtData[1]->WorkLocal[32] = Work_Zone[7]
  4: 0x0F15 [0x03] ExtData[1]->WorkLocal[31] = Work_Zone[8]
  5: 0x0F1A [0x06] Work_Zone[1] = 0
  6: 0x0F1D [0x1A] CALL_SUBROUTINE(address=0x4558)
  7: 0x0F20 [0x02] IF !(ExtData[1]->WorkLocal[29] == 1*) GOTO 0x10B6
  8: 0x0F28 [0x42] SET_CLI_EVENT_CANCEL_DATA()
  9: 0x0F29 [0x03] Work_Zone[1] = 2*
 10: 0x0F2E [0x43] SEND_EVENT_UPDATE: Send pending tag to server (packet 0x005B)
 11: 0x0F30 [0x43] SEND_EVENT_UPDATE: Check pending flag (skip if not pending)
 12: 0x0F32 [0x03] Work_Zone[1] = 3*
 13: 0x0F37 [0x43] SEND_EVENT_UPDATE: Send pending tag to server (packet 0x005B)
 14: 0x0F39 [0x43] SEND_EVENT_UPDATE: Check pending flag (skip if not pending)
 15: 0x0F3B [0x1A] CALL_SUBROUTINE(address=0x456F)
 16: 0x0F3E [0x02] IF !(ExtData[1]->WorkLocal[30] == 1*) GOTO 0x10B6
 17: 0x0F46 [0x45] LOAD_SCHEDULED_TASK: Load scheduler "fdo1" with entities [LocalPlayer, LocalPlayer], work=[200*, 0*]
 18: 0x0F57 [0x55] WAIT_LOAD_SCHEDULER: Wait for scheduler "fdo1" with entities [LocalPlayer, LocalPlayer], work=200*
 19: 0x0F66 [0x03] Work_Zone[1] = 4*
 20: 0x0F6B [0x02] IF !(ExtData[1]->WorkLocal[32] == 180*) GOTO 0x0FF5
 21: 0x0F73 [0x02] IF !(ExtData[1]->WorkLocal[33] == 0*) GOTO 0x0F8A
 22: 0x0F7B [0x47] UPDATE_PLAYER_POS(-605.141*, 479.929*, -22.681*, yaw=87.2°*)
 23: 0x0F85 [0x47] WAIT_PLAYER_POS_UPDATE
 24: 0x0F87 [0x01] GOTO 0x0FF2
 25: 0x0F8A [0x02] IF !(ExtData[1]->WorkLocal[33] == 1*) GOTO 0x0FA1
 26: 0x0F92 [0x47] UPDATE_PLAYER_POS(-262.589*, 377.857*, -137.313*, yaw=305.3°*)
 27: 0x0F9C [0x47] WAIT_PLAYER_POS_UPDATE
 28: 0x0F9E [0x01] GOTO 0x0FF2
 29: 0x0FA1 [0x02] IF !(ExtData[1]->WorkLocal[33] == 2*) GOTO 0x0FB8
 30: 0x0FA9 [0x47] UPDATE_PLAYER_POS(18.348*, 486.940*, -224.334*, yaw=17.1°*)
 31: 0x0FB3 [0x47] WAIT_PLAYER_POS_UPDATE
 32: 0x0FB5 [0x01] GOTO 0x0FF2
 33: 0x0FB8 [0x02] IF !(ExtData[1]->WorkLocal[33] == 3*) GOTO 0x0FCF
 34: 0x0FC0 [0x47] UPDATE_PLAYER_POS(231.593*, 360.094*, -173.572*, yaw=160.8°*)
 35: 0x0FCA [0x47] WAIT_PLAYER_POS_UPDATE
 36: 0x0FCC [0x01] GOTO 0x0FF2
 37: 0x0FCF [0x02] IF !(ExtData[1]->WorkLocal[33] == 4*) GOTO 0x0FE6
 38: 0x0FD7 [0x47] UPDATE_PLAYER_POS(553.664*, 523.939*, -38.205*, yaw=233.9°*)
 39: 0x0FE1 [0x47] WAIT_PLAYER_POS_UPDATE
 40: 0x0FE3 [0x01] GOTO 0x0FF2
 41: 0x0FE6 [0x47] UPDATE_PLAYER_POS(0.000*, 0.000*, -0.101*, yaw=0.0°*)
 42: 0x0FF0 [0x47] WAIT_PLAYER_POS_UPDATE

SUBROUTINE_0FF2:
 43: 0x0FF2 [0x01] GOTO 0x1074
 44: 0x0FF5 [0x02] IF !(ExtData[1]->WorkLocal[32] == 6*) GOTO 0x1068
 45: 0x0FFD [0x02] IF !(ExtData[1]->WorkLocal[31] == 1*) GOTO 0x1014
 46: 0x1005 [0x47] UPDATE_PLAYER_POS(-875.117*, -43.892*, -48.084*, yaw=45.1°*)
 47: 0x100F [0x47] WAIT_PLAYER_POS_UPDATE
 48: 0x1011 [0x01] GOTO 0x1065
 49: 0x1014 [0x02] IF !(ExtData[1]->WorkLocal[31] == 2*) GOTO 0x102B
 50: 0x101C [0x47] UPDATE_PLAYER_POS(-755.499*, 563.947*, -112.035*, yaw=313.5°*)
 51: 0x1026 [0x47] WAIT_PLAYER_POS_UPDATE
 52: 0x1028 [0x01] GOTO 0x1065
 53: 0x102B [0x02] IF !(ExtData[1]->WorkLocal[31] == 3*) GOTO 0x1042
 54: 0x1033 [0x47] UPDATE_PLAYER_POS(123.251*, 754.209*, -172.124*, yaw=38.7°*)
 55: 0x103D [0x47] WAIT_PLAYER_POS_UPDATE
 56: 0x103F [0x01] GOTO 0x1065
 57: 0x1042 [0x02] IF !(ExtData[1]->WorkLocal[31] == 4*) GOTO 0x1059
 58: 0x104A [0x47] UPDATE_PLAYER_POS(-516.404*, -803.323*, 24.206*, yaw=38.4°*)
 59: 0x1054 [0x47] WAIT_PLAYER_POS_UPDATE
 60: 0x1056 [0x01] GOTO 0x1065
 61: 0x1059 [0x47] UPDATE_PLAYER_POS(0.000*, 0.000*, -0.101*, yaw=0.0°*)
 62: 0x1063 [0x47] WAIT_PLAYER_POS_UPDATE

SUBROUTINE_1065:
 63: 0x1065 [0x01] GOTO 0x1074
 64: 0x1068 [0x47] UPDATE_PLAYER_POS(0.000*, 0.000*, -0.101*, yaw=0.0°*)
 65: 0x1072 [0x47] WAIT_PLAYER_POS_UPDATE

SUBROUTINE_1074:
 66: 0x1074 [0x38] SET_CLIENT_EVENT_MODE(mode=19*)
 67: 0x1077 [0x79] LocalPlayer looks at LocalPlayer (Basic look)
 68: 0x1081 [0x1A] CALL_SUBROUTINE(address=0x4573)
 69: 0x1084 [0x45] LOAD_SCHEDULED_TASK: Load scheduler "whi1" with entities [LocalPlayer, LocalPlayer], work=[201*, 0*]
 70: 0x1095 [0x45] LOAD_SCHEDULED_TASK: Load scheduler "blof" with entities [LocalPlayer, LocalPlayer], work=[200*, 0*]
 71: 0x10A6 [0x5C] MUSIC_CONTROL: Set Idle (Day) music to song 155*
 72: 0x10AA [0x5C] MUSIC_CONTROL: Set Idle (Night) music to song 155*
 73: 0x10AE [0x5C] MUSIC_CONTROL: Set Combat (Solo) music to song 119*
 74: 0x10B2 [0x5C] MUSIC_CONTROL: Set Combat (Party) music to song 119*
 75: 0x10B6 [0x21] END_EVENT
 76: 0x10B7 [0x00] END_REQSTACK()
```

### Event 32004

#### Metadata

| Field        | Value      |
|--------------|------------|
| Entrypoint   | 0x10B8     |
| Data Size    | 2453 bytes |
| Instructions | 348        |

```
      00 01 02 03 04 05 06 07  08 09 0A 0B 0C 0D 0E 0F
      -- -- -- -- -- -- -- --  -- -- -- -- -- -- -- --
10B0:                          03 22 00 02 10 03 23 00          ."....#.
10C0: 03 10 03 1F 00 04 10 03  24 00 05 10 42 38 26 80  ........$...B8&.
10D0: 02 24 00 17 80 00 DB 10  1C A9 80 02 1F 00 17 80  .$..............
10E0: 80 5A 14 5C 00 48 80 5C  01 48 80 5C 02 48 80 5C  .Z.\.H.\.H.\.H.\
10F0: 03 48 80 1A 8C 46 1A F7  1A 1C 18 80 27 10 01 50  .H...F......'..P
1100: 0A 01 01 27 10 03 50 0A  01 01 27 10 05 50 0A 01  ...'..P...'..P..
1110: 01 6C 01 50 0A 01 17 80  1C 80 6C 03 50 0A 01 17  .l.P......l.P...
1120: 80 1C 80 6C 05 50 0A 01  17 80 1C 80 45 AA 80 F0  ...l.P......E...
1130: FF FF 7F F0 FF FF 7F 73  67 39 39 17 80 5B AB 80  .......sg99..[..
1140: FE 50 0A 01 FE 50 0A 01  00 FE FE FE 62 39 80 FD  .P...P......b9..
1150: 50 0A 01 FD 50 0A 01 00  FE FE FE 17 80 62 3A 80  P...P........b:.
1160: FE 50 0A 01 FE 50 0A 01  00 FE FE FE 17 80 46 01  .P...P........F.
1170: 4E 01 F0 FF FF 7F 4E 00  FD 50 0A 01 4E 00 FE 50  N.....N..P..N..P
1180: 0A 01 1C 1C 80 5B AB 80  FE 50 0A 01 FE 50 0A 01  .....[...P...P..
1190: 62 74 6C 30 62 39 80 FD  50 0A 01 FD 50 0A 01 6D  btl0b9..P...P..m
11A0: 61 69 6E 17 80 62 3A 80  FE 50 0A 01 FE 50 0A 01  ain..b:..P...P..
11B0: 6D 61 69 6E 17 80 1C 43  80 45 AA 80 F0 FF FF 7F  main...C.E......
11C0: F0 FF FF 7F 73 67 36 37  17 80 1A AD 46 1C AC 80  ....sg67....F...
11D0: 1A CE 46 1C AD 80 55 AA  80 F0 FF FF 7F F0 FF FF  ..F...U.........
11E0: 7F 73 67 36 37 02 24 00  17 80 00 57 14 4E 00 F0  .sg67.$....W.N..
11F0: FF FF 7F 4E 01 FD 50 0A  01 1C AE 80 5B AB 80 FE  ...N..P.....[...
1200: 50 0A 01 FE 50 0A 01 62  74 6C 30 38 37 80 02 22  P...P..btl087.."
1210: 00 1C 80 80 A9 12 27 10  FE 50 0A 01 06 45 AA 80  ......'..P...E..
1220: F0 FF FF 7F F0 FF FF 7F  73 67 36 38 17 80 02 23  ........sg68...#
1230: 00 17 80 80 42 12 37 AF  80 B0 80 03 80 B1 80 01  ....B.7.........
1240: A6 12 02 23 00 1C 80 80  56 12 37 B2 80 B3 80 03  ...#....V.7.....
1250: 80 B4 80 01 A6 12 02 23  00 20 80 80 6A 12 37 B5  .......#. ..j.7.
1260: 80 B6 80 03 80 B7 80 01  A6 12 02 23 00 21 80 80  ...........#.!..
1270: 7E 12 37 B8 80 B9 80 03  80 BA 80 01 A6 12 02 23  ~.7............#
1280: 00 22 80 80 92 12 37 BB  80 BC 80 0E 80 BD 80 01  ."....7.........
1290: A6 12 02 23 00 1F 80 80  A6 12 37 BE 80 BF 80 C0  ...#......7.....
12A0: 80 C1 80 01 A6 12 01 DF  13 02 22 00 20 80 80 44  ..........". ..D
12B0: 13 27 10 FE 50 0A 01 07  45 AA 80 F0 FF FF 7F F0  .'..P...E.......
12C0: FF FF 7F 73 67 36 39 17  80 02 23 00 17 80 80 DD  ...sg69...#.....
12D0: 12 37 C2 80 C3 80 C4 80  C5 80 01 41 13 02 23 00  .7.........A..#.
12E0: 1C 80 80 F1 12 37 C6 80  C7 80 C4 80 C8 80 01 41  .....7.........A
12F0: 13 02 23 00 20 80 80 05  13 37 C9 80 CA 80 C4 80  ..#. ....7......
1300: CB 80 01 41 13 02 23 00  21 80 80 19 13 37 CC 80  ...A..#.!....7..
1310: CD 80 C4 80 CE 80 01 41  13 02 23 00 22 80 80 2D  .......A..#."..-
1320: 13 37 CF 80 D0 80 D1 80  D2 80 01 41 13 02 23 00  .7.........A..#.
1330: 1F 80 80 41 13 37 D3 80  D4 80 D5 80 D6 80 01 41  ...A.7.........A
1340: 13 01 DF 13 02 22 00 21  80 80 DF 13 27 10 FE 50  .....".!....'..P
1350: 0A 01 08 45 AA 80 F0 FF  FF 7F F0 FF FF 7F 73 67  ...E..........sg
1360: 37 30 17 80 02 23 00 17  80 80 78 13 37 D7 80 D8  70...#....x.7...
1370: 80 D9 80 DA 80 01 DC 13  02 23 00 1C 80 80 8C 13  .........#......
1380: 37 DB 80 DC 80 DD 80 DE  80 01 DC 13 02 23 00 20  7............#. 
1390: 80 80 A0 13 37 DF 80 E0  80 DD 80 E1 80 01 DC 13  ....7...........
13A0: 02 23 00 21 80 80 B4 13  37 E2 80 E3 80 DD 80 E4  .#.!....7.......
13B0: 80 01 DC 13 02 23 00 22  80 80 C8 13 37 E5 80 E6  .....#."....7...
13C0: 80 E7 80 E8 80 01 DC 13  02 23 00 1F 80 80 DC 13  .........#......
13D0: 37 E9 80 EA 80 EB 80 EC  80 01 DC 13 01 DF 13 1A  7...............
13E0: AD 46 02 22 00 1C 80 80  FC 13 55 AA 80 F0 FF FF  .F."......U.....
13F0: 7F F0 FF FF 7F 73 67 36  38 01 30 14 02 22 00 20  .....sg68.0..". 
1400: 80 80 16 14 55 AA 80 F0  FF FF 7F F0 FF FF 7F 73  ....U..........s
1410: 67 36 39 01 30 14 02 22  00 21 80 80 30 14 55 AA  g69.0..".!..0.U.
1420: 80 F0 FF FF 7F F0 FF FF  7F 73 67 37 30 01 30 14  .........sg70.0.
1430: 1A 8C 46 1C 18 80 4E 01  FE 50 0A 01 6C 01 50 0A  ..F...N..P..l.P.
1440: 01 75 80 1C 80 6C 03 50  0A 01 75 80 1C 80 6C 05  .u...l.P..u...l.
1450: 50 0A 01 75 80 1C 80 01  20 1A 02 1F 00 1C 80 80  P..u.... .......
1460: 90 16 5C 00 48 80 5C 01  48 80 5C 02 48 80 5C 03  ..\.H.\.H.\.H.\.
1470: 48 80 1A FD 4A 02 24 00  17 80 00 8D 16 38 37 80  H...J.$......87.
1480: 02 22 00 1C 80 80 14 15  45 AA 80 F0 FF FF 7F F0  ."......E.......
1490: FF FF 7F 73 67 36 38 17  80 02 23 00 17 80 80 AD  ...sg68...#.....
14A0: 14 37 AF 80 B0 80 03 80  B1 80 01 11 15 02 23 00  .7............#.
14B0: 1C 80 80 C1 14 37 B2 80  B3 80 03 80 B4 80 01 11  .....7..........
14C0: 15 02 23 00 20 80 80 D5  14 37 B5 80 B6 80 03 80  ..#. ....7......
