# Event 118

## Metadata

| Field           | Value    |
|-----------------|----------|
| Event Index     | 11/32    |
| Offset          | 0x0086   |
| Data Size       | 19 bytes |
| Calculated Size | 19 bytes |
| Instructions    | 10       |

```
      00 01 02 03 04 05 06 07  08 09 0A 0B 0C 0D 0E 0F
      -- -- -- -- -- -- -- --  -- -- -- -- -- -- -- --
0080:                   1E F0  FF FF 7F 6F 70 1D 10 80        .....op...
0090: 23 1D 11 80 23 20 00 21  00                       #...# .!.       
```

## Opcodes

```
  0: 0x0086 [0x1E] EventEntity looks at LocalPlayer and starts talking
  1: 0x008B [0x6F] WAIT_FRAME_DELAY: Yield until WaitTime reaches zero
  2: 0x008C [0x70] WAIT_ENTITY_RENDER_FLAG: Wait while EventEntity->Render.Flags3 bit 2 is set (cancel turn if not)
  3: 0x008D [0x1D] PRINT_EVENT_MESSAGE(message_id=3434*)
    → "As cArdIAns\u0001\u001AbEcOmE mOrE\u0001\u001AAnd mOrE\u0001\u001AlIkE rEAl\u0001\u001ApEOplE thEy\u0001\u001AbEcOmE strOngEr!\u007F1\u0000\u0007"
  4: 0x0090 [0x23] WAIT_FOR_DIALOG_INTERACTION
  5: 0x0091 [0x1D] PRINT_EVENT_MESSAGE(message_id=3435*)
    → "bUt\u0001\u001AIt Is\u0001\u001AA lOng\u0001\u001AAnd slOw\u0001\u001ArOAd...!\u007F1\u0000\u0007"
  6: 0x0094 [0x23] WAIT_FOR_DIALOG_INTERACTION
  7: 0x0095 [0x20] SET_CLI_EVENT_UC_FLAG: Unlock player control
  8: 0x0097 [0x21] END_EVENT
  9: 0x0098 [0x00] END_REQSTACK()
```
