# Event 167

## Metadata

| Field           | Value    |
|-----------------|----------|
| Event Index     | 18/32    |
| Offset          | 0x0103   |
| Data Size       | 19 bytes |
| Calculated Size | 19 bytes |
| Instructions    | 10       |

```
      00 01 02 03 04 05 06 07  08 09 0A 0B 0C 0D 0E 0F
      -- -- -- -- -- -- -- --  -- -- -- -- -- -- -- --
0100:          1E F0 FF FF 7F  6F 70 1D 1C 80 23 1D 1D     .....op...#..
0110: 80 23 20 00 21 00                                 .# .!.          
```

## Opcodes

```
  0: 0x0103 [0x1E] EventEntity looks at LocalPlayer and starts talking
  1: 0x0108 [0x6F] WAIT_FRAME_DELAY: Yield until WaitTime reaches zero
  2: 0x0109 [0x70] WAIT_ENTITY_RENDER_FLAG: Wait while EventEntity->Render.Flags3 bit 2 is set (cancel turn if not)
  3: 0x010A [0x1D] PRINT_EVENT_MESSAGE(message_id=3531*)
    → "It\u0001\u001AlOOks lIkE\u0001\u001AthE cAptAIns\u0001\u001AOf thE\u0001\u001AgUArds In\u0001\u001AEAch dIstrIct\u0001\u001AhAvE hAd\u0001\u001AEmErgEncy EquIpmEnt\u0001\u001AdIstrIbUtEd tO\u0001\u001AthEm!\u007F1\u0000\u0007"
  4: 0x010D [0x23] WAIT_FOR_DIALOG_INTERACTION
  5: 0x010E [0x1D] PRINT_EVENT_MESSAGE(message_id=3532*)
    → "bUt thE\u0001\u001AEmErgEncy lImItErs\u0001\u001AOn thE\u0001\u001AcArdIAns hAvE\u0001\u001AnOt bEEn\u0001\u001ArEmOvEd yEt...\u007F1\u0000\u0007"
  6: 0x0111 [0x23] WAIT_FOR_DIALOG_INTERACTION
  7: 0x0112 [0x20] SET_CLI_EVENT_UC_FLAG: Unlock player control
  8: 0x0114 [0x21] END_EVENT
  9: 0x0115 [0x00] END_REQSTACK()
```
