# Event 177

## Metadata

| Field           | Value    |
|-----------------|----------|
| Event Index     | 20/32    |
| Offset          | 0x0129   |
| Data Size       | 19 bytes |
| Calculated Size | 19 bytes |
| Instructions    | 10       |

```
      00 01 02 03 04 05 06 07  08 09 0A 0B 0C 0D 0E 0F
      -- -- -- -- -- -- -- --  -- -- -- -- -- -- -- --
0120:                             1E F0 FF FF 7F 6F 70           .....op
0130: 1D 20 80 23 1D 21 80 23  20 00 21 00              . .#.!.# .!.    
```

## Opcodes

```
  0: 0x0129 [0x1E] EventEntity looks at LocalPlayer and starts talking
  1: 0x012E [0x6F] WAIT_FRAME_DELAY: Yield until WaitTime reaches zero
  2: 0x012F [0x70] WAIT_ENTITY_RENDER_FLAG: Wait while EventEntity->Render.Flags3 bit 2 is set (cancel turn if not)
  3: 0x0130 [0x1D] PRINT_EVENT_MESSAGE(message_id=3552*)
    → "hEAvEns\u0001\u001AtOwEr Is\u0001\u001AcAllIng fOr\u0001\u001AyOU AgAIn!\u0001\u001AtEn thInks\u0001\u001AAnOthEr mAjOr\u0001\u001AmIssIOn wIll\u0001\u001AbE pUshEd\u0001\u001AUpOn yOU!\u007F1\u0000\u0007"
  4: 0x0133 [0x23] WAIT_FOR_DIALOG_INTERACTION
  5: 0x0134 [0x1D] PRINT_EVENT_MESSAGE(message_id=3553*)
    → "plEAsE cOmE bAck tO wIndUrst sAfE And sOUnd thIs tIme tOO!\u007F1\u0000\u0007"
  6: 0x0137 [0x23] WAIT_FOR_DIALOG_INTERACTION
  7: 0x0138 [0x20] SET_CLI_EVENT_UC_FLAG: Unlock player control
  8: 0x013A [0x21] END_EVENT
  9: 0x013B [0x00] END_REQSTACK()
```
