# Event 455

## Metadata

| Field           | Value    |
|-----------------|----------|
| Event Index     | 23/32    |
| Offset          | 0x0162   |
| Data Size       | 19 bytes |
| Calculated Size | 19 bytes |
| Instructions    | 10       |

```
      00 01 02 03 04 05 06 07  08 09 0A 0B 0C 0D 0E 0F
      -- -- -- -- -- -- -- --  -- -- -- -- -- -- -- --
0160:       1E F0 FF FF 7F 6F  70 1D 26 80 23 1D 27 80    .....op.&.#.'.
0170: 23 20 00 21 00                                    # .!.           
```

## Opcodes

```
  0: 0x0162 [0x1E] EventEntity looks at LocalPlayer and starts talking
  1: 0x0167 [0x6F] WAIT_FRAME_DELAY: Yield until WaitTime reaches zero
  2: 0x0168 [0x70] WAIT_ENTITY_RENDER_FLAG: Wait while EventEntity->Render.Flags3 bit 2 is set (cancel turn if not)
  3: 0x0169 [0x1D] PRINT_EVENT_MESSAGE(message_id=12277*)
    → "THe\u0001\u001AmAgIC ToWeRS\u0001\u001AiN SaRuTa-bArUtA\u0001\u001AaRe nOT\u0001\u001AfUnCTiON-aL...\u0001\u001ABuT rEcEntLY\u0001\u001AthEY hAvE\u0001\u001AbEEn ACtiVE\u0001\u001AfOr sHOrt\u0001\u001ApERioDs oF\u0001\u001AtIMe.\u007F1\u0000\u0007"
  4: 0x016C [0x23] WAIT_FOR_DIALOG_INTERACTION
  5: 0x016D [0x1D] PRINT_EVENT_MESSAGE(message_id=12278*)
    → "TeN\u0001\u001AwONdErs iF\u0001\u001AsOmEOnE\u0001\u001AiS rEpaIR-iNg\u0001\u001AtHEm...\u007F1\u0000\u0007"
  6: 0x0170 [0x23] WAIT_FOR_DIALOG_INTERACTION
  7: 0x0171 [0x20] SET_CLI_EVENT_UC_FLAG: Unlock player control
  8: 0x0173 [0x21] END_EVENT
  9: 0x0174 [0x00] END_REQSTACK()
```
