# Event 486

## Metadata

| Field           | Value    |
|-----------------|----------|
| Event Index     | 28/32    |
| Offset          | 0x01C1   |
| Data Size       | 19 bytes |
| Calculated Size | 19 bytes |
| Instructions    | 10       |

```
      00 01 02 03 04 05 06 07  08 09 0A 0B 0C 0D 0E 0F
      -- -- -- -- -- -- -- --  -- -- -- -- -- -- -- --
01C0:    1E F0 FF FF 7F 6F 70  1D 30 80 23 1D 31 80 23   .....op.0.#.1.#
01D0: 20 00 21 00                                        .!.            
```

## Opcodes

```
  0: 0x01C1 [0x1E] EventEntity looks at LocalPlayer and starts talking
  1: 0x01C6 [0x6F] WAIT_FRAME_DELAY: Yield until WaitTime reaches zero
  2: 0x01C7 [0x70] WAIT_ENTITY_RENDER_FLAG: Wait while EventEntity->Render.Flags3 bit 2 is set (cancel turn if not)
  3: 0x01C8 [0x1D] PRINT_EVENT_MESSAGE(message_id=12366*)
    → "ThE\u0001\u001ARogUE cARdIAns\u0001\u001Ain tHE\u0001\u001AHoRuToTo RuINs\u0001\u001AaRe aLL\u0001\u001AsTiRReD up\u0001\u001AfOr SoMe\u0001\u001ArEAsOn.\u007F1\u0000\u0007"
  4: 0x01CB [0x23] WAIT_FOR_DIALOG_INTERACTION
  5: 0x01CC [0x1D] PRINT_EVENT_MESSAGE(message_id=12367*)
    → "ThOSe cARdIAns\u0001\u001AwErE aLL\u0001\u001AcREatEd bY\u0001\u001AMoTHeR ApUrUrU's\u0001\u001AfaTHeR, bUt\u0001\u001AI DoN't\u0001\u001AtHInK tHAt\u0001\u001AhAs aNY\u0001\u001AcOnNEctIOn...\u007F1\u0000\u0007"
  6: 0x01CF [0x23] WAIT_FOR_DIALOG_INTERACTION
  7: 0x01D0 [0x20] SET_CLI_EVENT_UC_FLAG: Unlock player control
  8: 0x01D2 [0x21] END_EVENT
  9: 0x01D3 [0x00] END_REQSTACK()
```
