# Event 490

## Metadata

| Field           | Value    |
|-----------------|----------|
| Event Index     | 22/32    |
| Offset          | 0x014F   |
| Data Size       | 19 bytes |
| Calculated Size | 19 bytes |
| Instructions    | 10       |

```
      00 01 02 03 04 05 06 07  08 09 0A 0B 0C 0D 0E 0F
      -- -- -- -- -- -- -- --  -- -- -- -- -- -- -- --
0140:                                               1E                 .
0150: F0 FF FF 7F 6F 70 1D 24  80 23 1D 25 80 23 20 00  ....op.$.#.%.# .
0160: 21 00                                             !.              
```

## Opcodes

```
  0: 0x014F [0x1E] EventEntity looks at LocalPlayer and starts talking
  1: 0x0154 [0x6F] WAIT_FRAME_DELAY: Yield until WaitTime reaches zero
  2: 0x0155 [0x70] WAIT_ENTITY_RENDER_FLAG: Wait while EventEntity->Render.Flags3 bit 2 is set (cancel turn if not)
  3: 0x0156 [0x1D] PRINT_EVENT_MESSAGE(message_id=12267*)
    → "TeN\u0001\u001AhAs FiNaLLy\u0001\u001ALeARnEd tHe\u0001\u001AnAmES aNd aDDreSSeS oF\u0001\u001AaLL tHe\u0001\u001ApEOpLE iN\u0001\u001AWiNdURst.\u007F1\u0000\u0007"
  4: 0x0159 [0x23] WAIT_FOR_DIALOG_INTERACTION
  5: 0x015A [0x1D] PRINT_EVENT_MESSAGE(message_id=12268*)
    → "NeXT,\u0001\u001ATeN woULd\u0001\u001ALiKe tO\u0001\u001ALeARn aBoUT\u0001\u001AtHe pEOpLE\u0001\u001AoF SaN d'OriA\u0001\u001AaND BaSToK...\u0007TeN\u0001\u001AReaLLy wAnTs\u0001\u001AtO tRaVeL...\u007F1\u0000\u0007"
  6: 0x015D [0x23] WAIT_FOR_DIALOG_INTERACTION
  7: 0x015E [0x20] SET_CLI_EVENT_UC_FLAG: Unlock player control
  8: 0x0160 [0x21] END_EVENT
  9: 0x0161 [0x00] END_REQSTACK()
```
