# Event 557

## Metadata

| Field           | Value    |
|-----------------|----------|
| Event Index     | 29/32    |
| Offset          | 0x01D4   |
| Data Size       | 19 bytes |
| Calculated Size | 19 bytes |
| Instructions    | 10       |

```
      00 01 02 03 04 05 06 07  08 09 0A 0B 0C 0D 0E 0F
      -- -- -- -- -- -- -- --  -- -- -- -- -- -- -- --
01D0:             1E F0 FF FF  7F 6F 70 1D 32 80 23 1D      .....op.2.#.
01E0: 33 80 23 20 00 21 00                              3.# .!.         
```

## Opcodes

```
  0: 0x01D4 [0x1E] EventEntity looks at LocalPlayer and starts talking
  1: 0x01D9 [0x6F] WAIT_FRAME_DELAY: Yield until WaitTime reaches zero
  2: 0x01DA [0x70] WAIT_ENTITY_RENDER_FLAG: Wait while EventEntity->Render.Flags3 bit 2 is set (cancel turn if not)
  3: 0x01DB [0x1D] PRINT_EVENT_MESSAGE(message_id=12595*)
    → "SiNCe\u0001\u001AtHIs iNciDEnT\u0001\u001AbEgAn, wE hAVe\u0001\u001ANoTicED sEVeRaL\u0001\u001AAbiLiTiEs wiTHiN\u0001\u001AuS.\u007F1\u0000\u0007"
  4: 0x01DE [0x23] WAIT_FOR_DIALOG_INTERACTION
  5: 0x01DF [0x1D] PRINT_EVENT_MESSAGE(message_id=12596*)
    → "OnCe\u0001\u001AtHiNgs hAVe\u0001\u001ASetTLed dOWn\u0001\u001AfOr MoTHeR ApUrUrU,\u0001\u001ATeN wAnTS\u0001\u001AtO REpoRt\u0001\u001AthEsE FiNdiNGs\u0001\u001AtO hEr.\u007F1\u0000\u0007"
  6: 0x01E2 [0x23] WAIT_FOR_DIALOG_INTERACTION
  7: 0x01E3 [0x20] SET_CLI_EVENT_UC_FLAG: Unlock player control
  8: 0x01E5 [0x21] END_EVENT
  9: 0x01E6 [0x00] END_REQSTACK()
```
