# Event 80

## Metadata

| Field           | Value    |
|-----------------|----------|
| Event Index     | 3/32     |
| Offset          | 0x0018   |
| Data Size       | 19 bytes |
| Calculated Size | 19 bytes |
| Instructions    | 10       |

```
      00 01 02 03 04 05 06 07  08 09 0A 0B 0C 0D 0E 0F
      -- -- -- -- -- -- -- --  -- -- -- -- -- -- -- --
0010:                          1E F0 FF FF 7F 6F 70 1D          .....op.
0020: 03 80 23 1D 04 80 23 20  00 21 00                 ..#...# .!.     
```

## Opcodes

```
  0: 0x0018 [0x1E] EventEntity looks at LocalPlayer and starts talking
  1: 0x001D [0x6F] WAIT_FRAME_DELAY: Yield until WaitTime reaches zero
  2: 0x001E [0x70] WAIT_ENTITY_RENDER_FLAG: Wait while EventEntity->Render.Flags3 bit 2 is set (cancel turn if not)
  3: 0x001F [0x1D] PRINT_EVENT_MESSAGE(message_id=3314*)
    → "CArdIAns wErE\u0001\u001AoRiG-iNallY CreATed\u0001\u001Ato DEfeAt\u0001\u001AbAd PeoPle\u0001\u001AaNd BaD\u0001\u001AmOnStErs!\u007F1\u0000\u0007"
  4: 0x0022 [0x23] WAIT_FOR_DIALOG_INTERACTION
  5: 0x0023 [0x1D] PRINT_EVENT_MESSAGE(message_id=3315*)
    → "thE prEvIOUs gEnErAtIOn\u0001\u001AOf CArdIAns ArE sAId\u0001\u001AtO hAvE plAyEd A grEAt\u0001\u001ArOlE In thE wAr!\u007F1\u0000\u0007"
  6: 0x0026 [0x23] WAIT_FOR_DIALOG_INTERACTION
  7: 0x0027 [0x20] SET_CLI_EVENT_UC_FLAG: Unlock player control
  8: 0x0029 [0x21] END_EVENT
  9: 0x002A [0x00] END_REQSTACK()
```
