# Event 65535

## Metadata

| Field           | Value    |
|-----------------|----------|
| Event Index     | 15/22    |
| Offset          | 0x0133   |
| Data Size       | 66 bytes |
| Calculated Size | 66 bytes |
| Instructions    | 16       |

```
      00 01 02 03 04 05 06 07  08 09 0A 0B 0C 0D 0E 0F
      -- -- -- -- -- -- -- --  -- -- -- -- -- -- -- --
0130:          1C 18 80 39 19  80 6F 70 1C 1A 80 32 03     ...9..op...2.
0140: 80 1F 00 1B 80 1C 80 1D  80 1F 01 1F 00 1E 80 1F  ................
0150: 80 1D 80 1F 01 1F 00 20  80 21 80 1D 80 1F 01 39  ....... .!.....9
0160: 22 80 1C 23 80 66 00 80  F8 FF FF 7F F8 FF FF 7F  "..#.f..........
0170: 74 68 6B 31 00                                    thk1.           
```

## Opcodes

```
  0: 0x0133 [0x1C] WAIT(60* ticks)
  1: 0x0136 [0x39] SET_ENTITY_DIRECTION(direction=23592951.6°*)
  2: 0x0139 [0x6F] WAIT_FRAME_DELAY: Yield until WaitTime reaches zero
  3: 0x013A [0x70] WAIT_ENTITY_RENDER_FLAG: Wait while EventEntity->Render.Flags3 bit 2 is set (cancel turn if not)
  4: 0x013B [0x1C] WAIT(10* ticks)
  5: 0x013E [0x32] ExtData[1]->MainSpeed = 13* * 0.1
  6: 0x0141 [0x1F] MOVE_ENTITY: EventEntity moves to X=92.110*, Z=-78.100*, Y=-0.650*
  7: 0x0149 [0x1F] MOVE_ENTITY: Update entity position (mode=1)
  8: 0x014B [0x1F] MOVE_ENTITY: EventEntity moves to X=91.560*, Z=-78.240*, Y=-0.650*
  9: 0x0153 [0x1F] MOVE_ENTITY: Update entity position (mode=1)
 10: 0x0155 [0x1F] MOVE_ENTITY: EventEntity moves to X=91.000*, Z=-78.360*, Y=-0.650*
 11: 0x015D [0x1F] MOVE_ENTITY: Update entity position (mode=1)
 12: 0x015F [0x39] SET_ENTITY_DIRECTION(direction=8.4°*)
 13: 0x0162 [0x1C] WAIT(15* ticks)
 14: 0x0165 [0x66] LOAD_EXT_SCHEDULER_MAIN: Load scheduler "thk1" with entities [EventEntity, EventEntity], work=30*
 15: 0x0174 [0x00] END_REQSTACK()
```
