# Event 199

## Metadata

| Field           | Value    |
|-----------------|----------|
| Event Index     | 25/29    |
| Offset          | 0x01B3   |
| Data Size       | 52 bytes |
| Calculated Size | 52 bytes |
| Instructions    | 12       |

```
      00 01 02 03 04 05 06 07  08 09 0A 0B 0C 0D 0E 0F
      -- -- -- -- -- -- -- --  -- -- -- -- -- -- -- --
01B0:          20 01 42 1E F0  FF FF 7F 6F 70 29 0B 7B      .B.....op).{
01C0: 00 0F 01 19 29 0B 7B 00  0F 01 1A 29 0B 7B 00 0F  ....).{....).{..
01D0: 01 1B 45 0B 80 F0 FF FF  7F F0 FF FF 7F 71 73 74  ..E..........qst
01E0: 63 0C 80 20 00 21 00                              c.. .!.         
```

## Opcodes

```
  0: 0x01B3 [0x20] SET_CLI_EVENT_UC_FLAG: Lock player control
  1: 0x01B5 [0x42] SET_CLI_EVENT_CANCEL_DATA()
  2: 0x01B6 [0x1E] EventEntity looks at LocalPlayer and starts talking
  3: 0x01BB [0x6F] WAIT_FRAME_DELAY: Yield until WaitTime reaches zero
  4: 0x01BC [0x70] WAIT_ENTITY_RENDER_FLAG: Wait while EventEntity->Render.Flags3 bit 2 is set (cancel turn if not)
  5: 0x01BD [0x29] REQ_SET_WAIT(priority=0x0B, entity_id=Sigismund (ID: 17760379/0x010F007B), tag_num=0x19)
  6: 0x01C4 [0x29] REQ_SET_WAIT(priority=0x0B, entity_id=Sigismund (ID: 17760379/0x010F007B), tag_num=0x1A)
  7: 0x01CB [0x29] REQ_SET_WAIT(priority=0x0B, entity_id=Sigismund (ID: 17760379/0x010F007B), tag_num=0x1B)
  8: 0x01D2 [0x45] LOAD_SCHEDULED_TASK(work_offset1=201*, entity1=LocalPlayer, entity2=LocalPlayer, scheduler_id="qstc", work_offset2=0*)
  9: 0x01E3 [0x20] SET_CLI_EVENT_UC_FLAG: Unlock player control
 10: 0x01E5 [0x21] END_EVENT
 11: 0x01E6 [0x00] END_REQSTACK()
```
