# Event 200

## Metadata

| Field           | Value    |
|-----------------|----------|
| Event Index     | 29/29    |
| Offset          | 0x0240   |
| Data Size       | 33 bytes |
| Calculated Size | 33 bytes |
| Instructions    | 12       |

```
      00 01 02 03 04 05 06 07  08 09 0A 0B 0C 0D 0E 0F
      -- -- -- -- -- -- -- --  -- -- -- -- -- -- -- --
0240: 1E F0 FF FF 7F 6F 70 29  08 7B 00 0F 01 01 1D 11  .....op).{......
0250: 80 23 1D 12 80 23 29 08  7B 00 0F 01 11 20 00 21  .#...#).{.... .!
0260: 00                                                .               
```

## Opcodes

```
  0: 0x0240 [0x1E] EventEntity looks at LocalPlayer and starts talking
  1: 0x0245 [0x6F] WAIT_FRAME_DELAY: Yield until WaitTime reaches zero
  2: 0x0246 [0x70] WAIT_ENTITY_RENDER_FLAG: Wait while EventEntity->Render.Flags3 bit 2 is set (cancel turn if not)
  3: 0x0247 [0x29] REQ_SET_WAIT(priority=0x08, entity_id=Sigismund (ID: 17760379/0x010F007B), tag_num=0x01)
  4: 0x024E [0x1D] PRINT_EVENT_MESSAGE(message_id=3595*)
    → "If I had known it was that delicate I wouldn't have asked for one. It's impossible for me to carry such a fragile thing back home.\u007F1\u0000\u0007"
  5: 0x0251 [0x23] WAIT_FOR_DIALOG_INTERACTION
  6: 0x0252 [0x1D] PRINT_EVENT_MESSAGE(message_id=3596*)
    → "Looks like I have to think of some other souvenir to take back, otherwise the little missus is gonna kill me. Umm... Let me see...\u007F1\u0000\u0007"
  7: 0x0255 [0x23] WAIT_FOR_DIALOG_INTERACTION
  8: 0x0256 [0x29] REQ_SET_WAIT(priority=0x08, entity_id=Sigismund (ID: 17760379/0x010F007B), tag_num=0x11)
  9: 0x025D [0x20] SET_CLI_EVENT_UC_FLAG: Unlock player control
 10: 0x025F [0x21] END_EVENT
 11: 0x0260 [0x00] END_REQSTACK()
```
