# Event 65535

## Metadata

| Field           | Value    |
|-----------------|----------|
| Event Index     | 21/29    |
| Offset          | 0x0143   |
| Data Size       | 37 bytes |
| Calculated Size | 37 bytes |
| Instructions    | 9        |

```
      00 01 02 03 04 05 06 07  08 09 0A 0B 0C 0D 0E 0F
      -- -- -- -- -- -- -- --  -- -- -- -- -- -- -- --
0140:          29 08 7B 00 0F  01 03 1D 04 80 23 29 08     ).{.......#).
0150: 7B 00 0F 01 04 29 08 7B  00 0F 01 05 1D 05 80 23  {....).{.......#
0160: 29 08 7B 00 0F 01 06 00                           ).{.....        
```

## Opcodes

```
  0: 0x0143 [0x29] REQ_SET_WAIT(priority=0x08, entity_id=Sigismund (ID: 17760379/0x010F007B), tag_num=0x03)
  1: 0x014A [0x1D] PRINT_EVENT_MESSAGE(message_id=3581*)
    → "Well, I've had a great time in Windurst, and seen a lot of amazing stuff. Guess it's about time to head on home...\u007F1\u0000\u0007"
  2: 0x014D [0x23] WAIT_FOR_DIALOG_INTERACTION
  3: 0x014E [0x29] REQ_SET_WAIT(priority=0x08, entity_id=Sigismund (ID: 17760379/0x010F007B), tag_num=0x04)
  4: 0x0155 [0x29] REQ_SET_WAIT(priority=0x08, entity_id=Sigismund (ID: 17760379/0x010F007B), tag_num=0x05)
  5: 0x015C [0x1D] PRINT_EVENT_MESSAGE(message_id=3582*)
    → "Before I go, I have to find a souvenir of my stay that's unique to Windurst. But none of the stuff sold in the shops here is worth showing off to people...\u007F1\u0000\u0007"
  6: 0x015F [0x23] WAIT_FOR_DIALOG_INTERACTION
  7: 0x0160 [0x29] REQ_SET_WAIT(priority=0x08, entity_id=Sigismund (ID: 17760379/0x010F007B), tag_num=0x06)
  8: 0x0167 [0x00] END_REQSTACK()
```
