# Event 65535

## Metadata

| Field           | Value    |
|-----------------|----------|
| Event Index     | 26/34    |
| Offset          | 0x01FA   |
| Data Size       | 78 bytes |
| Calculated Size | 78 bytes |
| Instructions    | 10       |

```
      00 01 02 03 04 05 06 07  08 09 0A 0B 0C 0D 0E 0F
      -- -- -- -- -- -- -- --  -- -- -- -- -- -- -- --
01F0:                                45 22 80 F0 FF FF            E"....
0200: 7F F0 FF FF 7F 63 6D 30  32 08 80 55 22 80 F0 FF  .....cm02..U"...
0210: FF 7F F0 FF FF 7F 63 6D  30 32 37 23 80 24 80 25  ......cm027#.$.%
0220: 80 26 80 1C 27 80 45 1B  80 F0 FF FF 7F F0 FF FF  .&..'.E.........
0230: 7F 66 64 69 31 08 80 1C  28 80 1F 00 29 80 2A 80  .fdi1...(...).*.
0240: 25 80 1F 01 1C 27 80 00                           %....'..        
```

## Opcodes

```
  0: 0x01FA [0x45] LOAD_SCHEDULED_TASK: Load scheduler "cm02" with entities [LocalPlayer, LocalPlayer], work=[130*, 0*]
  1: 0x020B [0x55] WAIT_LOAD_SCHEDULER: Wait for scheduler "cm02" with entities [LocalPlayer, LocalPlayer], work=130*
  2: 0x021A [0x37] UPDATE_EVENT_POSITION_AND_DIR: x=124.393*, z=113.001*, y=6.499*, direction=41.7°*
  3: 0x0223 [0x1C] WAIT(60* ticks)
  4: 0x0226 [0x45] LOAD_SCHEDULED_TASK: Load scheduler "fdi1" with entities [LocalPlayer, LocalPlayer], work=[200*, 0*]
  5: 0x0237 [0x1C] WAIT(10* ticks)
  6: 0x023A [0x1F] MOVE_ENTITY: EventEntity moves to X=126.509*, Z=110.734*, Y=6.499*
  7: 0x0242 [0x1F] MOVE_ENTITY: Update entity position (mode=1)
  8: 0x0244 [0x1C] WAIT(60* ticks)
  9: 0x0247 [0x00] END_REQSTACK()
```
