# Event 65535

## Metadata

| Field           | Value    |
|-----------------|----------|
| Event Index     | 9/10     |
| Offset          | 0x0041   |
| Data Size       | 58 bytes |
| Calculated Size | 58 bytes |
| Instructions    | 10       |

```
      00 01 02 03 04 05 06 07  08 09 0A 0B 0C 0D 0E 0F
      -- -- -- -- -- -- -- --  -- -- -- -- -- -- -- --
0040:    3B F8 FF FF 7F 00 00  01 00 02 00 3A F8 FF FF   ;..........:...
0050: 7F 03 00 17 04 00 03 00  0A 80 16 05 00 03 00 0A  ................
0060: 80 07 00 00 04 00 07 01  00 05 00 32 04 80 31 00  ...........2..1.
0070: 00 00 01 00 02 00 0B 80  31 01 00                 ........1..     
```

## Opcodes

```
  0: 0x0041 [0x3B] GET_ENTITY_POSITION(entity=EventEntity, x_destination=ExtData[1]->WorkLocal[0], y_destination=ExtData[1]->WorkLocal[1], z_destination=ExtData[1]->WorkLocal[2])
  1: 0x004C [0x3A] CONVERT_YAW_TO_BYTE(entity=EventEntity, result_destination=ExtData[1]->WorkLocal[3])
  2: 0x0053 [0x17] ExtData[1]->WorkLocal[4] = cos(ExtData[1]->WorkLocal[3]) * 5000*
  3: 0x005A [0x16] ExtData[1]->WorkLocal[5] = sin(ExtData[1]->WorkLocal[3]) * 5000*
  4: 0x0061 [0x07] ExtData[1]->WorkLocal[0] += ExtData[1]->WorkLocal[4]
  5: 0x0066 [0x07] ExtData[1]->WorkLocal[1] += ExtData[1]->WorkLocal[5]
  6: 0x006B [0x32] ExtData[1]->MainSpeed = 13* * 0.1
  7: 0x006E [0x31] UPDATE_ENTITY_POSITION: Set EventEntity goal position to X=ExtData[1]->WorkLocal[0], Z=ExtData[1]->WorkLocal[1], Y=ExtData[1]->WorkLocal[2], Time=220*
  8: 0x0078 [0x31] UPDATE_ENTITY_POSITION: Move EventEntity towards goal position
  9: 0x007A [0x00] END_REQSTACK()
```
