# Event 32

## Metadata

| Field           | Value    |
|-----------------|----------|
| Event Index     | 4/117    |
| Offset          | 0x0020   |
| Data Size       | 33 bytes |
| Calculated Size | 33 bytes |
| Instructions    | 10       |

```
      00 01 02 03 04 05 06 07  08 09 0A 0B 0C 0D 0E 0F
      -- -- -- -- -- -- -- --  -- -- -- -- -- -- -- --
0020: 20 01 1E F0 FF FF 7F 2B  14 50 0F 01 02 80 23 2B   ......+.P....#+
0030: 14 50 0F 01 03 80 23 2B  14 50 0F 01 04 80 23 21  .P....#+.P....#!
0040: 00                                                .               
```

## Opcodes

```
  0: 0x0020 [0x20] SET_CLI_EVENT_UC_FLAG: Lock player control
  1: 0x0022 [0x1E] EventEntity looks at LocalPlayer and starts talking
  2: 0x0027 [0x2B] Teigero-Bangero (ID: 17780756/0x010F5014) [7300*]:
    → "I salvaged that Cardian when Panta was just a cub. We didn't think he'd make it, but somehow he started up.\u007F1\u0000\u0007"
  3: 0x002E [0x23] WAIT_FOR_DIALOG_INTERACTION
  4: 0x002F [0x2B] Teigero-Bangero (ID: 17780756/0x010F5014) [7301*]:
    → "Both me and my wife used to work back then, doing all we could to make ends meet. But how could we take care of little Panta with both of us slavey-waving away?\u007F1\u0000\u0007"
  5: 0x0036 [0x23] WAIT_FOR_DIALOG_INTERACTION
  6: 0x0037 [0x2B] Teigero-Bangero (ID: 17780756/0x010F5014) [7302*]:
    → "That's where Two came in. We were so grateful for his help. He's such an earnest Cardian. We don't know what we'd do without him.\u007F1\u0000\u0007"
  7: 0x003E [0x23] WAIT_FOR_DIALOG_INTERACTION
  8: 0x003F [0x21] END_EVENT
  9: 0x0040 [0x00] END_REQSTACK()
```
