# Event 74

## Metadata

| Field           | Value    |
|-----------------|----------|
| Event Index     | 9/117    |
| Offset          | 0x0090   |
| Data Size       | 33 bytes |
| Calculated Size | 33 bytes |
| Instructions    | 13       |

```
      00 01 02 03 04 05 06 07  08 09 0A 0B 0C 0D 0E 0F
      -- -- -- -- -- -- -- --  -- -- -- -- -- -- -- --
0090: 20 01 42 1E F0 FF FF 7F  1D 0A 80 23 02 02 10 0B   .B........#....
00A0: 80 00 AB 00 48 0C 80 23  01 AF 00 48 0D 80 23 21  ....H..#...H..#!
00B0: 00                                                .               
```

## Opcodes

```
  0: 0x0090 [0x20] SET_CLI_EVENT_UC_FLAG: Lock player control
  1: 0x0092 [0x42] SET_CLI_EVENT_CANCEL_DATA()
  2: 0x0093 [0x1E] EventEntity looks at LocalPlayer and starts talking
  3: 0x0098 [0x1D] PRINT_EVENT_MESSAGE(message_id=7388*)
    → "What? You want me to sign your petition for the clock tower? Well, why not?\u007F1\u0000\u0007"
  4: 0x009B [0x23] WAIT_FOR_DIALOG_INTERACTION
  5: 0x009C [0x02] IF !(Work_Zone[2] == 0*) GOTO 0x00AB
  6: 0x00A4 [0x48] [System] [7164*]:
    → "The petition is complete!\u007F1\u0000\u0007"
  7: 0x00A7 [0x23] WAIT_FOR_DIALOG_INTERACTION
  8: 0x00A8 [0x01] GOTO 0x00AF
  9: 0x00AB [0x48] [System] [7165*]:
    → "You have 
\u0000 more \u007F\u0012\u0000[signature/signatures] to go.\u007F1\u0000\u0007"
 10: 0x00AE [0x23] WAIT_FOR_DIALOG_INTERACTION
 11: 0x00AF [0x21] END_EVENT
 12: 0x00B0 [0x00] END_REQSTACK()
```
