# Event 65535

## Metadata

| Field           | Value    |
|-----------------|----------|
| Event Index     | 10/14    |
| Offset          | 0x0070   |
| Data Size       | 49 bytes |
| Calculated Size | 49 bytes |
| Instructions    | 13       |

```
      00 01 02 03 04 05 06 07  08 09 0A 0B 0C 0D 0E 0F
      -- -- -- -- -- -- -- --  -- -- -- -- -- -- -- --
0070: 7B F8 FF FF 7F 32 1B 80  1F 00 1C 80 1D 80 16 80  {....2..........
0080: 1F 01 1F 00 1E 80 1F 80  20 80 1F 01 1F 00 21 80  ........ .....!.
0090: 22 80 07 80 1F 01 6F 39  23 80 1C 13 80 39 24 80  ".....o9#....9$.
00A0: 00                                                .               
```

## Opcodes

```
  0: 0x0070 [0x7B] EventEntity stops talking
  1: 0x0075 [0x32] ExtData[1]->MainSpeed = 40* * 0.1
  2: 0x0078 [0x1F] MOVE_ENTITY: EventEntity moves to X=-48.813*, Z=18.454*, Y=8.999*
  3: 0x0080 [0x1F] MOVE_ENTITY: Update entity position (mode=1)
  4: 0x0082 [0x1F] MOVE_ENTITY: EventEntity moves to X=-41.398*, Z=20.060*, Y=8.000*
  5: 0x008A [0x1F] MOVE_ENTITY: Update entity position (mode=1)
  6: 0x008C [0x1F] MOVE_ENTITY: EventEntity moves to X=-35.919*, Z=21.510*, Y=7.500*
  7: 0x0094 [0x1F] MOVE_ENTITY: Update entity position (mode=1)
  8: 0x0096 [0x6F] WAIT_FRAME_DELAY: Yield until WaitTime reaches zero
  9: 0x0097 [0x39] SET_ENTITY_DIRECTION(direction=3.2°*)
 10: 0x009A [0x1C] WAIT(60* ticks)
 11: 0x009D [0x39] SET_ENTITY_DIRECTION(direction=20.4°*)
 12: 0x00A0 [0x00] END_REQSTACK()
```
