# 16888106

## Common Data

| Field            | Value                       |
|------------------|-----------------------------|
| Zone             | Phomiuna Aqueducts (ID: 27) |
| Block Size       | 132 bytes                   |
| Total Events     | 2                           |
| References Count | 8                           |

## List of Events

| Event ID              | Entrypoint   |   Size |   Instructions |
|-----------------------|--------------|--------|----------------|
| [65535](#event-65535) | 0x0000       |      1 |              1 |
| [56](#event-56)       | 0x0001       |     73 |             22 |

## DAT References (imed_data)

|   Index | Hex Value   |   Dec Value |
|---------|-------------|-------------|
|       0 | 0x1C4F      |        7247 |
|       1 | 0x1C50      |        7248 |
|       2 | 0x0001      |           1 |
|       3 | 0x0000      |           0 |
|       4 | 0xFFFFFFFC  |  4294967292 |
|       5 | 0x0003      |           3 |
|       6 | 0x1C51      |        7249 |
|       7 | 0x001E      |          30 |

## String References

- **7247**: A rolled-up piece of parchment is inside the jar.
- **7248**: Unfurl the parchment? [Yes./No.]
- **7249**: The parchment is an elemental correlation chart. Perhaps it has something to do with this facility...?

## Events

### Event 65535

#### Metadata

| Field        | Value   |
|--------------|---------|
| Entrypoint   | 0x0000  |
| Data Size    | 1 bytes |
| Instructions | 1       |

```
      00 01 02 03 04 05 06 07  08 09 0A 0B 0C 0D 0E 0F
      -- -- -- -- -- -- -- --  -- -- -- -- -- -- -- --
0000: 00                                                .               
```

#### Opcodes

```
  0: 0x0000 [0x00] END_REQSTACK()
```

### Event 56

#### Metadata

| Field        | Value    |
|--------------|----------|
| Entrypoint   | 0x0001   |
| Data Size    | 73 bytes |
| Instructions | 22       |

```
      00 01 02 03 04 05 06 07  08 09 0A 0B 0C 0D 0E 0F
      -- -- -- -- -- -- -- --  -- -- -- -- -- -- -- --
0000:    20 01 48 00 80 23 24  01 80 02 80 03 80 25 02    .H..#$......%.
0010: 00 10 03 80 00 3B 00 42  9C 00 00 02 00 00 02 80  .....;.B........
0020: 00 2B 00 8D 04 80 02 80  01 30 00 8D 04 80 05 80  .+.......0......
0030: 48 06 80 23 1C 07 80 8A  01 46 00 02 00 10 02 80  H..#.....F......
0040: 00 46 00 01 46 00 20 00  21 00                    .F..F. .!.      
```

#### Opcodes

```
  0: 0x0001 [0x20] SET_CLI_EVENT_UC_FLAG: Lock player control
  1: 0x0003 [0x48] [System] [7247*]:
    → "A rolled-up piece of parchment is inside the jar."
  2: 0x0006 [0x23] WAIT_FOR_DIALOG_INTERACTION
  3: 0x0007 [0x24] CREATE_DIALOG(message_id=7248*, default_option=1*, option_flags=0*)
    → "Unfurl the parchment? [Yes./No.]"
  4: 0x000E [0x25] WAIT_DIALOG_SELECT()
  5: 0x000F [0x02] IF !(Work_Zone[0] == 0*) GOTO 0x003B
  6: 0x0017 [0x42] SET_CLI_EVENT_CANCEL_DATA()
  7: 0x0018 [0x9C] STORE_CLIENT_LANGUAGE_ID(result=0x00)
  8: 0x001B [0x02] IF !(ExtData[1]->WorkLocal[0] == 1*) GOTO 0x002B
  9: 0x0023 [0x8D] OPEN_MAP_WITH_PROPERTIES(map_id=4294967292*, properties=1*)
 10: 0x0028 [0x01] GOTO 0x0030
 11: 0x002B [0x8D] OPEN_MAP_WITH_PROPERTIES(map_id=4294967292*, properties=3*)

SUBROUTINE_0030:
 12: 0x0030 [0x48] [System] [7249*]:
    → "The parchment is an elemental correlation chart. Perhaps it has something to do with this facility...?"
 13: 0x0033 [0x23] WAIT_FOR_DIALOG_INTERACTION
 14: 0x0034 [0x1C] WAIT(30* ticks)
 15: 0x0037 [0x8A] CLOSE_MAP()
 16: 0x0038 [0x01] GOTO 0x0046
 17: 0x003B [0x02] IF !(Work_Zone[0] == 1*) GOTO 0x0046
 18: 0x0043 [0x01] GOTO 0x0046

SUBROUTINE_0046:
 19: 0x0046 [0x20] SET_CLI_EVENT_UC_FLAG: Unlock player control
 20: 0x0048 [0x21] END_EVENT
 21: 0x0049 [0x00] END_REQSTACK()
```
