# 0x7FFFFFF0 - Zone Events

## Common Data

| Field            | Value                       |
|------------------|-----------------------------|
| Zone             | Phomiuna Aqueducts (ID: 27) |
| Block Size       | 2396 bytes                  |
| Total Events     | 27                          |
| References Count | 106                         |

## List of Events

| Event ID                   | Entrypoint   |   Size |   Instructions |
|----------------------------|--------------|--------|----------------|
| [65535](#event-65535)      | 0x0000       |      1 |              1 |
| [65534](#event-65534)      | 0x0001       |      1 |              1 |
| [65535.1](#event-655351)   | 0x0002       |      6 |              2 |
| [65535.2](#event-655352)   | 0x0008       |      6 |              2 |
| [65535.3](#event-655353)   | 0x000E       |      6 |              2 |
| [65535.4](#event-655354)   | 0x0014       |      6 |              2 |
| [65535.5](#event-655355)   | 0x001A       |      6 |              2 |
| [10](#event-10)            | 0x0020       |     13 |              3 |
| [11](#event-11)            | 0x002D       |     13 |              3 |
| [12](#event-12)            | 0x003A       |     13 |              3 |
| [13](#event-13)            | 0x0047       |     13 |              3 |
| [14](#event-14)            | 0x0054       |     13 |              3 |
| [15](#event-15)            | 0x0061       |     13 |              3 |
| [16](#event-16)            | 0x006E       |     13 |              3 |
| [17](#event-17)            | 0x007B       |     13 |              3 |
| [18](#event-18)            | 0x0088       |     13 |              3 |
| [19](#event-19)            | 0x0095       |     13 |              3 |
| [20](#event-20)            | 0x00A2       |     13 |              3 |
| [65535.6](#event-655356)   | 0x00AF       |     10 |              2 |
| [65535.7](#event-655357)   | 0x00B9       |     23 |              5 |
| [65535.8](#event-655358)   | 0x00D0       |     16 |              4 |
| [65535.9](#event-655359)   | 0x00E0       |     10 |              2 |
| [65535.10](#event-6553510) | 0x00EA       |     14 |              4 |
| [65535.11](#event-6553511) | 0x00F8       |     14 |              4 |
| [65535.12](#event-6553512) | 0x0106       |     10 |              2 |
| [65535.13](#event-6553513) | 0x0110       |     15 |              5 |
| [38](#event-38)            | 0x011F       |   1558 |            219 |

## DAT References (imed_data)

|   Index | Hex Value   |   Dec Value |
|---------|-------------|-------------|
|       0 | 0x18A6A     |      100970 |
|       1 | 0xFFFE75C3  |  4294866371 |
|       2 | 0xFFFFE890  |  4294961296 |
|       3 | 0x0A10      |        2576 |
|       4 | 0x189DC     |      100828 |
|       5 | 0xFFFFB543  |  4294948163 |
|       6 | 0x05F6      |        1526 |
|       7 | 0xFFFF1238  |  4294906424 |
|       8 | 0xFFFFB582  |  4294948226 |
|       9 | 0x0213      |         531 |
|      10 | 0xFFFCA824  |  4294748196 |
|      11 | 0x4AD1      |       19153 |
|      12 | 0x09FE      |        2558 |
|      13 | 0xFFFF122D  |  4294906413 |
|      14 | 0x21F40     |      139072 |
|      15 | 0x0E19      |        3609 |
|      16 | 0x51B0      |       20912 |
|      17 | 0x21F5D     |      139101 |
|      18 | 0x09FC      |        2556 |
|      19 | 0x189FC     |      100860 |
|      20 | 0x2C295     |      180885 |
|      21 | 0x05F8      |        1528 |
|      22 | 0xFFFD8B79  |  4294806393 |
|      23 | 0xEA47      |       59975 |
|      24 | 0xFFFFA628  |  4294944296 |
|      25 | 0x07FE      |        2046 |
|      26 | 0xFFFD9880  |  4294809728 |
|      27 | 0xEA38      |       59960 |
|      28 | 0xFFFFFC19  |  4294966297 |
|      29 | 0x0FFD      |        4093 |
|      30 | 0x310B1     |      200881 |
|      31 | 0x0004      |           4 |
|      32 | 0x30359     |      197465 |
|      33 | 0xEA37      |       59959 |
|      34 | 0xFFFFFC18  |  4294966296 |
|      35 | 0x07F9      |        2041 |
|      36 | 0xFFFD98BB  |  4294809787 |
|      37 | 0xEC54      |       60500 |
|      38 | 0x05DC      |        1500 |
|      39 | 0xED1C      |       60700 |
|      40 | 0x000D      |          13 |
|      41 | 0xFFFDA209  |  4294812169 |
|      42 | 0xFFFE8A2C  |  4294871596 |
|      43 | 0xEA60      |       60000 |
|      44 | 0xFFFFA240  |  4294943296 |
|      45 | 0x07A9      |        1961 |
|      46 | 0xFFFE7578  |  4294866296 |
|      47 | 0x21B98     |      138136 |
|      48 | 0xFFFFA241  |  4294943297 |
|      49 | 0x00AC      |         172 |
|      50 | 0x22FDB     |      143323 |
|      51 | 0x0001      |           1 |
|      52 | 0x1C3B      |        7227 |
|      53 | 0x0000      |           0 |
|      54 | 0x00C8      |         200 |
|      55 | 0x0078      |         120 |
|      56 | 0x001B      |          27 |
|      57 | 0x00A0      |         160 |
|      58 | 0x003C      |          60 |
|      59 | 0x02C5      |         709 |
|      60 | 0xFFFCA3FC  |  4294747132 |
|      61 | 0x48D3      |       18643 |
|      62 | 0xFFFFE891  |  4294961297 |
|      63 | 0x08D0      |        2256 |
|      64 | 0x0010      |          16 |
|      65 | 0x0012      |          18 |
|      66 | 0x007F      |         127 |
|      67 | 0x00A5      |         165 |
|      68 | 0x001E      |          30 |
|      69 | 0x00AA      |         170 |
|      70 | 0x1CE9      |        7401 |
|      71 | 0xFFFCA045  |  4294746181 |
|      72 | 0x4AC0      |       19136 |
|      73 | 0x0096      |         150 |
|      74 | 0x005A      |          90 |
|      75 | 0x1CEA      |        7402 |
|      76 | 0x1CEB      |        7403 |
|      77 | 0x001D      |          29 |
|      78 | 0x1CEC      |        7404 |
|      79 | 0x1CED      |        7405 |
|      80 | 0x1CEE      |        7406 |
|      81 | 0x1CEF      |        7407 |
|      82 | 0x1CF0      |        7408 |
|      83 | 0x1CF1      |        7409 |
|      84 | 0x1CF2      |        7410 |
|      85 | 0x1CF3      |        7411 |
|      86 | 0x0006      |           6 |
|      87 | 0x1CF4      |        7412 |
|      88 | 0x1CF5      |        7413 |
|      89 | 0x000A      |          10 |
|      90 | 0x1CF6      |        7414 |
|      91 | 0x1CF7      |        7415 |
|      92 | 0x1CF8      |        7416 |
|      93 | 0x1CF9      |        7417 |
|      94 | 0x1CFA      |        7418 |
|      95 | 0x1CFB      |        7419 |
|      96 | 0x1CFC      |        7420 |
|      97 | 0x1CFD      |        7421 |
|      98 | 0x0291      |         657 |
|      99 | 0x1CFE      |        7422 |
|     100 | 0x1CFF      |        7423 |
|     101 | 0x0168      |         360 |
|     102 | 0x1D00      |        7424 |
|     103 | 0x1D01      |        7425 |
|     104 | 0x1D02      |        7426 |
|     105 | 0x40000000  |  1073741824 |

## String References

- **7227**: Climb up the ladder? [Yes./No.]

## Events

### Event 65535

#### Metadata

| Field        | Value   |
|--------------|---------|
| Entrypoint   | 0x0000  |
| Data Size    | 1 bytes |
| Instructions | 1       |

```
      00 01 02 03 04 05 06 07  08 09 0A 0B 0C 0D 0E 0F
      -- -- -- -- -- -- -- --  -- -- -- -- -- -- -- --
0000: 00                                                .               
```

#### Opcodes

```
  0: 0x0000 [0x00] END_REQSTACK()
```

### Event 65534

#### Metadata

| Field        | Value   |
|--------------|---------|
| Entrypoint   | 0x0001  |
| Data Size    | 1 bytes |
| Instructions | 1       |

```
      00 01 02 03 04 05 06 07  08 09 0A 0B 0C 0D 0E 0F
      -- -- -- -- -- -- -- --  -- -- -- -- -- -- -- --
0000:    00                                              .              
```

#### Opcodes

```
  0: 0x0001 [0x00] END_REQSTACK()
```

### Event 65535.1

#### Metadata

| Field        | Value   |
|--------------|---------|
| Entrypoint   | 0x0002  |
| Data Size    | 6 bytes |
| Instructions | 2       |

```
      00 01 02 03 04 05 06 07  08 09 0A 0B 0C 0D 0E 0F
      -- -- -- -- -- -- -- --  -- -- -- -- -- -- -- --
0000:       03 02 10 0B 7F 00                             ......        
```

#### Opcodes

```
  0: 0x0002 [0x03] Work_Zone[2] = (Entity->Render.Flags01 >> 25) & 1
  1: 0x0007 [0x00] END_REQSTACK()
```

### Event 65535.2

#### Metadata

| Field        | Value   |
|--------------|---------|
| Entrypoint   | 0x0008  |
| Data Size    | 6 bytes |
| Instructions | 2       |

```
      00 01 02 03 04 05 06 07  08 09 0A 0B 0C 0D 0E 0F
      -- -- -- -- -- -- -- --  -- -- -- -- -- -- -- --
0000:                          03 02 10 07 7F 00                ......  
```

#### Opcodes

```
  0: 0x0008 [0x03] Work_Zone[2] = Entity->Race
  1: 0x000D [0x00] END_REQSTACK()
```

### Event 65535.3

#### Metadata

| Field        | Value   |
|--------------|---------|
| Entrypoint   | 0x000E  |
| Data Size    | 6 bytes |
| Instructions | 2       |

```
      00 01 02 03 04 05 06 07  08 09 0A 0B 0C 0D 0E 0F
      -- -- -- -- -- -- -- --  -- -- -- -- -- -- -- --
0000:                                            03 09                ..
0010: 10 07 7F 00                                       ....            
```

#### Opcodes

```
  0: 0x000E [0x03] Work_Zone[9] = Entity->Race
  1: 0x0013 [0x00] END_REQSTACK()
```

### Event 65535.4

#### Metadata

| Field        | Value   |
|--------------|---------|
| Entrypoint   | 0x0014  |
| Data Size    | 6 bytes |
| Instructions | 2       |

```
      00 01 02 03 04 05 06 07  08 09 0A 0B 0C 0D 0E 0F
      -- -- -- -- -- -- -- --  -- -- -- -- -- -- -- --
0010:             03 02 10 06  7F 00                        ......      
```

#### Opcodes

```
  0: 0x0014 [0x03] Work_Zone[2] = Entity->JobId (if LocalPlayer)
  1: 0x0019 [0x00] END_REQSTACK()
```

### Event 65535.5

#### Metadata

| Field        | Value   |
|--------------|---------|
| Entrypoint   | 0x001A  |
| Data Size    | 6 bytes |
| Instructions | 2       |

```
      00 01 02 03 04 05 06 07  08 09 0A 0B 0C 0D 0E 0F
      -- -- -- -- -- -- -- --  -- -- -- -- -- -- -- --
0010:                                03 08 10 07 7F 00            ......
```

#### Opcodes

```
  0: 0x001A [0x03] Work_Zone[8] = Entity->Race
  1: 0x001F [0x00] END_REQSTACK()
```

### Event 10

#### Metadata

| Field        | Value    |
|--------------|----------|
| Entrypoint   | 0x0020   |
| Data Size    | 13 bytes |
| Instructions | 3        |

```
      00 01 02 03 04 05 06 07  08 09 0A 0B 0C 0D 0E 0F
      -- -- -- -- -- -- -- --  -- -- -- -- -- -- -- --
0020: 47 00 00 80 01 80 02 80  03 80 47 01 00           G.........G..   
```

#### Opcodes

```
  0: 0x0020 [0x47] UPDATE_PLAYER_POS(100.970*, -100.925*, -6.000*, yaw=226.4°*)
  1: 0x002A [0x47] WAIT_PLAYER_POS_UPDATE
  2: 0x002C [0x00] END_REQSTACK()
```

### Event 11

#### Metadata

| Field        | Value    |
|--------------|----------|
| Entrypoint   | 0x002D   |
| Data Size    | 13 bytes |
| Instructions | 3        |

```
      00 01 02 03 04 05 06 07  08 09 0A 0B 0C 0D 0E 0F
      -- -- -- -- -- -- -- --  -- -- -- -- -- -- -- --
0020:                                         47 00 04               G..
0030: 80 05 80 02 80 06 80 47  01 00                    .......G..      
```

#### Opcodes

```
  0: 0x002D [0x47] UPDATE_PLAYER_POS(100.828*, -19.133*, -6.000*, yaw=134.1°*)
  1: 0x0037 [0x47] WAIT_PLAYER_POS_UPDATE
  2: 0x0039 [0x00] END_REQSTACK()
```

### Event 12

#### Metadata

| Field        | Value    |
|--------------|----------|
| Entrypoint   | 0x003A   |
| Data Size    | 13 bytes |
| Instructions | 3        |

```
      00 01 02 03 04 05 06 07  08 09 0A 0B 0C 0D 0E 0F
      -- -- -- -- -- -- -- --  -- -- -- -- -- -- -- --
0030:                                47 00 07 80 08 80            G.....
0040: 02 80 09 80 47 01 00                              ....G..         
```

#### Opcodes

```
  0: 0x003A [0x47] UPDATE_PLAYER_POS(-60.872*, -19.070*, -6.000*, yaw=46.7°*)
  1: 0x0044 [0x47] WAIT_PLAYER_POS_UPDATE
  2: 0x0046 [0x00] END_REQSTACK()
```

### Event 13

#### Metadata

| Field        | Value    |
|--------------|----------|
| Entrypoint   | 0x0047   |
| Data Size    | 13 bytes |
| Instructions | 3        |

```
      00 01 02 03 04 05 06 07  08 09 0A 0B 0C 0D 0E 0F
      -- -- -- -- -- -- -- --  -- -- -- -- -- -- -- --
0040:                      47  00 0A 80 0B 80 02 80 0C         G........
0050: 80 47 01 00                                       .G..            
```

#### Opcodes

```
  0: 0x0047 [0x47] UPDATE_PLAYER_POS(-219.100*, 19.153*, -6.000*, yaw=224.8°*)
  1: 0x0051 [0x47] WAIT_PLAYER_POS_UPDATE
  2: 0x0053 [0x00] END_REQSTACK()
```

### Event 14

#### Metadata

| Field        | Value    |
|--------------|----------|
| Entrypoint   | 0x0054   |
| Data Size    | 13 bytes |
| Instructions | 3        |

```
      00 01 02 03 04 05 06 07  08 09 0A 0B 0C 0D 0E 0F
      -- -- -- -- -- -- -- --  -- -- -- -- -- -- -- --
0050:             47 00 0D 80  0E 80 02 80 0F 80 47 01      G.........G.
0060: 00                                                .               
```

#### Opcodes

```
  0: 0x0054 [0x47] UPDATE_PLAYER_POS(-60.883*, 139.072*, -6.000*, yaw=317.2°*)
  1: 0x005E [0x47] WAIT_PLAYER_POS_UPDATE
  2: 0x0060 [0x00] END_REQSTACK()
```

### Event 15

#### Metadata

| Field        | Value    |
|--------------|----------|
| Entrypoint   | 0x0061   |
| Data Size    | 13 bytes |
| Instructions | 3        |

```
      00 01 02 03 04 05 06 07  08 09 0A 0B 0C 0D 0E 0F
      -- -- -- -- -- -- -- --  -- -- -- -- -- -- -- --
0060:    47 00 10 80 11 80 02  80 12 80 47 01 00         G.........G..  
```

#### Opcodes

```
  0: 0x0061 [0x47] UPDATE_PLAYER_POS(20.912*, 139.101*, -6.000*, yaw=224.6°*)
  1: 0x006B [0x47] WAIT_PLAYER_POS_UPDATE
  2: 0x006D [0x00] END_REQSTACK()
```

### Event 16

#### Metadata

| Field        | Value    |
|--------------|----------|
| Entrypoint   | 0x006E   |
| Data Size    | 13 bytes |
| Instructions | 3        |

```
      00 01 02 03 04 05 06 07  08 09 0A 0B 0C 0D 0E 0F
      -- -- -- -- -- -- -- --  -- -- -- -- -- -- -- --
0060:                                            47 00                G.
0070: 13 80 14 80 02 80 15 80  47 01 00                 ........G..     
```

#### Opcodes

```
  0: 0x006E [0x47] UPDATE_PLAYER_POS(100.860*, 180.885*, -6.000*, yaw=134.3°*)
  1: 0x0078 [0x47] WAIT_PLAYER_POS_UPDATE
  2: 0x007A [0x00] END_REQSTACK()
```

### Event 17

#### Metadata

| Field        | Value    |
|--------------|----------|
| Entrypoint   | 0x007B   |
| Data Size    | 13 bytes |
| Instructions | 3        |

```
      00 01 02 03 04 05 06 07  08 09 0A 0B 0C 0D 0E 0F
      -- -- -- -- -- -- -- --  -- -- -- -- -- -- -- --
0070:                                   47 00 16 80 17             G....
0080: 80 18 80 19 80 47 01 00                           .....G..        
```

#### Opcodes

```
  0: 0x007B [0x47] UPDATE_PLAYER_POS(-160.903*, 59.975*, -23.000*, yaw=179.8°*)
  1: 0x0085 [0x47] WAIT_PLAYER_POS_UPDATE
  2: 0x0087 [0x00] END_REQSTACK()
```

### Event 18

#### Metadata

| Field        | Value    |
|--------------|----------|
| Entrypoint   | 0x0088   |
| Data Size    | 13 bytes |
| Instructions | 3        |

```
      00 01 02 03 04 05 06 07  08 09 0A 0B 0C 0D 0E 0F
      -- -- -- -- -- -- -- --  -- -- -- -- -- -- -- --
0080:                          47 00 1A 80 1B 80 1C 80          G.......
0090: 1D 80 47 01 00                                    ..G..           
```

#### Opcodes

```
  0: 0x0088 [0x47] UPDATE_PLAYER_POS(-157.568*, 59.960*, -0.999*, yaw=359.7°*)
  1: 0x0092 [0x47] WAIT_PLAYER_POS_UPDATE
  2: 0x0094 [0x00] END_REQSTACK()
```

### Event 19

#### Metadata

| Field        | Value    |
|--------------|----------|
| Entrypoint   | 0x0095   |
| Data Size    | 13 bytes |
| Instructions | 3        |

```
      00 01 02 03 04 05 06 07  08 09 0A 0B 0C 0D 0E 0F
      -- -- -- -- -- -- -- --  -- -- -- -- -- -- -- --
0090:                47 00 1E  80 17 80 18 80 1F 80 47       G.........G
00A0: 01 00                                             ..              
```

#### Opcodes

```
  0: 0x0095 [0x47] UPDATE_PLAYER_POS(200.881*, 59.975*, -23.000*, yaw=0.4°*)
  1: 0x009F [0x47] WAIT_PLAYER_POS_UPDATE
  2: 0x00A1 [0x00] END_REQSTACK()
```

### Event 20

#### Metadata

| Field        | Value    |
|--------------|----------|
| Entrypoint   | 0x00A2   |
| Data Size    | 13 bytes |
| Instructions | 3        |

```
      00 01 02 03 04 05 06 07  08 09 0A 0B 0C 0D 0E 0F
      -- -- -- -- -- -- -- --  -- -- -- -- -- -- -- --
00A0:       47 00 20 80 21 80  22 80 23 80 47 01 00       G. .!.".#.G.. 
```

#### Opcodes

```
  0: 0x00A2 [0x47] UPDATE_PLAYER_POS(197.465*, 59.959*, -1.000*, yaw=179.4°*)
  1: 0x00AC [0x47] WAIT_PLAYER_POS_UPDATE
  2: 0x00AE [0x00] END_REQSTACK()
```

### Event 65535.6

#### Metadata

| Field        | Value    |
|--------------|----------|
| Entrypoint   | 0x00AF   |
| Data Size    | 10 bytes |
| Instructions | 2        |

```
      00 01 02 03 04 05 06 07  08 09 0A 0B 0C 0D 0E 0F
      -- -- -- -- -- -- -- --  -- -- -- -- -- -- -- --
00A0:                                               37                 7
00B0: 24 80 25 80 1C 80 26 80  00                       $.%...&..       
```

#### Opcodes

```
  0: 0x00AF [0x37] UPDATE_EVENT_POSITION_AND_DIR: x=-157.509*, z=60.500*, y=-0.999*, direction=131.8°*
  1: 0x00B8 [0x00] END_REQSTACK()
```

### Event 65535.7

#### Metadata

| Field        | Value    |
|--------------|----------|
| Entrypoint   | 0x00B9   |
| Data Size    | 23 bytes |
| Instructions | 5        |

```
      00 01 02 03 04 05 06 07  08 09 0A 0B 0C 0D 0E 0F
      -- -- -- -- -- -- -- --  -- -- -- -- -- -- -- --
00B0:                             37 24 80 27 80 1C 80           7$.'...
00C0: 26 80 32 28 80 1F 00 29  80 27 80 22 80 1F 01 00  &.2(...).'."....
```

#### Opcodes

```
  0: 0x00B9 [0x37] UPDATE_EVENT_POSITION_AND_DIR: x=-157.509*, z=60.700*, y=-0.999*, direction=131.8°*
  1: 0x00C2 [0x32] ExtData[1]->MainSpeed = 13* * 0.1
  2: 0x00C5 [0x1F] MOVE_ENTITY: EventEntity moves to X=-155.127*, Z=60.700*, Y=-1.000*
  3: 0x00CD [0x1F] MOVE_ENTITY: Update entity position (mode=1)
  4: 0x00CF [0x00] END_REQSTACK()
```

### Event 65535.8

#### Metadata

| Field        | Value    |
|--------------|----------|
| Entrypoint   | 0x00D0   |
| Data Size    | 16 bytes |
| Instructions | 4        |

```
      00 01 02 03 04 05 06 07  08 09 0A 0B 0C 0D 0E 0F
      -- -- -- -- -- -- -- --  -- -- -- -- -- -- -- --
00D0: 4A F0 FF FF 7F 2D B1 01  01 6F 76 F0 FF FF 7F 00  J....-...ov.....
```

#### Opcodes

```
  0: 0x00D0 [0x4A] LocalPlayer looks at Nag'molada (ID: 16888109/0x0101B12D)
  1: 0x00D9 [0x6F] WAIT_FRAME_DELAY: Yield until WaitTime reaches zero
  2: 0x00DA [0x76] CHECK_ENTITY_RENDER_FLAGS: Wait until LocalPlayer Render.Flags0 and Render.Flags3 conditions are met
  3: 0x00DF [0x00] END_REQSTACK()
```

### Event 65535.9

#### Metadata

| Field        | Value    |
|--------------|----------|
| Entrypoint   | 0x00E0   |
| Data Size    | 10 bytes |
| Instructions | 2        |

```
      00 01 02 03 04 05 06 07  08 09 0A 0B 0C 0D 0E 0F
      -- -- -- -- -- -- -- --  -- -- -- -- -- -- -- --
00E0: 37 2A 80 2B 80 2C 80 2D  80 00                    7*.+.,.-..      
```

#### Opcodes

```
  0: 0x00E0 [0x37] UPDATE_EVENT_POSITION_AND_DIR: x=-95.700*, z=60.000*, y=-24.000*, direction=172.3°*
  1: 0x00E9 [0x00] END_REQSTACK()
```

### Event 65535.10

#### Metadata

| Field        | Value    |
|--------------|----------|
| Entrypoint   | 0x00EA   |
| Data Size    | 14 bytes |
| Instructions | 4        |

```
      00 01 02 03 04 05 06 07  08 09 0A 0B 0C 0D 0E 0F
      -- -- -- -- -- -- -- --  -- -- -- -- -- -- -- --
00E0:                                32 28 80 1F 00 2E            2(....
00F0: 80 2B 80 2C 80 1F 01 00                           .+.,....        
```

#### Opcodes

```
  0: 0x00EA [0x32] ExtData[1]->MainSpeed = 13* * 0.1
  1: 0x00ED [0x1F] MOVE_ENTITY: EventEntity moves to X=-101.000*, Z=60.000*, Y=-24.000*
  2: 0x00F5 [0x1F] MOVE_ENTITY: Update entity position (mode=1)
  3: 0x00F7 [0x00] END_REQSTACK()
```

### Event 65535.11

#### Metadata

| Field        | Value    |
|--------------|----------|
| Entrypoint   | 0x00F8   |
| Data Size    | 14 bytes |
| Instructions | 4        |

```
      00 01 02 03 04 05 06 07  08 09 0A 0B 0C 0D 0E 0F
      -- -- -- -- -- -- -- --  -- -- -- -- -- -- -- --
00F0:                          32 28 80 1F 00 2A 80 2B          2(...*.+
0100: 80 2C 80 1F 01 00                                 .,....          
```

#### Opcodes

```
  0: 0x00F8 [0x32] ExtData[1]->MainSpeed = 13* * 0.1
  1: 0x00FB [0x1F] MOVE_ENTITY: EventEntity moves to X=-95.700*, Z=60.000*, Y=-24.000*
  2: 0x0103 [0x1F] MOVE_ENTITY: Update entity position (mode=1)
  3: 0x0105 [0x00] END_REQSTACK()
```

### Event 65535.12

#### Metadata

| Field        | Value    |
|--------------|----------|
| Entrypoint   | 0x0106   |
| Data Size    | 10 bytes |
| Instructions | 2        |

```
      00 01 02 03 04 05 06 07  08 09 0A 0B 0C 0D 0E 0F
      -- -- -- -- -- -- -- --  -- -- -- -- -- -- -- --
0100:                   37 2F  80 2B 80 30 80 31 80 00        7/.+.0.1..
```

#### Opcodes

```
  0: 0x0106 [0x37] UPDATE_EVENT_POSITION_AND_DIR: x=138.136*, z=60.000*, y=-23.999*, direction=15.1°*
  1: 0x010F [0x00] END_REQSTACK()
```

### Event 65535.13

#### Metadata

| Field        | Value    |
|--------------|----------|
| Entrypoint   | 0x0110   |
| Data Size    | 15 bytes |
| Instructions | 5        |

```
      00 01 02 03 04 05 06 07  08 09 0A 0B 0C 0D 0E 0F
      -- -- -- -- -- -- -- --  -- -- -- -- -- -- -- --
0110: 32 28 80 1F 00 32 80 2B  80 30 80 1F 01 6F 00     2(...2.+.0...o. 
```

#### Opcodes

```
  0: 0x0110 [0x32] ExtData[1]->MainSpeed = 13* * 0.1
  1: 0x0113 [0x1F] MOVE_ENTITY: EventEntity moves to X=143.323*, Z=60.000*, Y=-23.999*
  2: 0x011B [0x1F] MOVE_ENTITY: Update entity position (mode=1)
  3: 0x011D [0x6F] WAIT_FRAME_DELAY: Yield until WaitTime reaches zero
  4: 0x011E [0x00] END_REQSTACK()
```

### Event 38

#### Metadata

| Field        | Value      |
|--------------|------------|
| Entrypoint   | 0x011F     |
| Data Size    | 1558 bytes |
| Instructions | 214        |

```
      00 01 02 03 04 05 06 07  08 09 0A 0B 0C 0D 0E 0F
      -- -- -- -- -- -- -- --  -- -- -- -- -- -- -- --
0110:                                               20                  
0120: 01 02 03 10 33 80 00 2C  01 01 40 01 24 34 80 33  ....3..,..@.$4.3
0130: 80 35 80 25 02 00 10 35  80 00 21 07 43 00 43 01  .5.%...5..!.C.C.
0140: 42 46 01 45 36 80 F0 FF  FF 7F F0 FF FF 7F 66 64  BF.E6.........fd
0150: 6F 31 35 80 1C 37 80 38  38 80 45 39 80 F8 FF FF  o15..7.88.E9....
0160: 7F F8 FF FF 7F 6C 31 75  70 35 80 45 36 80 F0 FF  .....l1up5.E6...
0170: FF 7F F0 FF FF 7F 66 64  69 31 35 80 1C 3A 80 55  ......fdi15..:.U
0180: 39 80 F8 FF FF 7F F8 FF  FF 7F 6C 31 75 70 45 36  9.........l1upE6
0190: 80 F0 FF FF 7F F0 FF FF  7F 66 64 6F 31 35 80 1C  .........fdo15..
01A0: 3A 80 29 01 F0 FF FF 7F  0A 5D 35 80 37 80 1C 37  :.)......]5.7..7
01B0: 80 03 02 10 3B 80 38 38  80 37 3C 80 3D 80 3E 80  ....;.88.7<.=.>.
01C0: 3F 80 2F 00 3D B1 01 01  4E 00 3D B1 01 01 2F 00  ?./.=...N.=.../.
01D0: 3E B1 01 01 4E 00 3E B1  01 01 77 40 80 41 80 5C  >...N.>...w@.A.\
01E0: 00 42 80 5C 01 42 80 45  43 80 F0 FF FF 7F F0 FF  .B.\.B.EC.......
01F0: FF 7F 73 34 30 30 35 80  1C 44 80 45 36 80 F8 FF  ..s4005..D.E6...
0200: FF 7F F8 FF FF 7F 66 64  69 31 35 80 55 36 80 F8  ......fdi15.U6..
0210: FF FF 7F F8 FF FF 7F 66  64 69 31 79 00 F0 FF FF  .......fdi1y....
0220: 7F 3D B1 01 01 79 00 3E  B1 01 01 3D B1 01 01 27  .=...y.>...=...'
0230: 01 3D B1 01 01 02 1C 45  80 2B 3D B1 01 01 46 80  .=.....E.+=...F.
0240: 23 1C 3A 80 27 05 3E B1  01 01 02 1C 39 80 32 28  #.:.'.>.....9.2(
0250: 80 1F 00 47 80 48 80 3E  80 1F 01 1C 49 80 52 43  ...G.H.>....I.RC
0260: 80 F0 FF FF 7F F0 FF FF  7F 73 34 30 30 45 43 80  .........s400EC.
0270: F0 FF FF 7F F0 FF FF 7F  73 34 30 32 35 80 1C 4A  ........s4025..J
0280: 80 2B 3E B1 01 01 4B 80  23 1C 3A 80 2B 3D B1 01  .+>...K.#.:.+=..
0290: 01 4C 80 23 1C 37 80 66  4D 80 3D B1 01 01 3D B1  .L.#.7.fM.=...=.
02A0: 01 01 74 77 61 30 2B 3D  B1 01 01 4E 80 23 66 4D  ..twa0+=...N.#fM
02B0: 80 3D B1 01 01 3D B1 01  01 74 77 61 31 1C 44 80  .=...=...twa1.D.
02C0: 52 43 80 F0 FF FF 7F F0  FF FF 7F 73 34 30 32 45  RC.........s402E
02D0: 43 80 F0 FF FF 7F F0 FF  FF 7F 73 34 30 35 35 80  C.........s4055.
02E0: 1C 3A 80 2B 3E B1 01 01  4F 80 23 1C 3A 80 52 43  .:.+>...O.#.:.RC
02F0: 80 F0 FF FF 7F F0 FF FF  7F 73 34 30 35 45 43 80  .........s405EC.
0300: F0 FF FF 7F F0 FF FF 7F  73 34 30 34 35 80 1C 44  ........s4045..D
0310: 80 79 00 3D B1 01 01 3E  B1 01 01 2B 3D B1 01 01  .y.=...>...+=...
0320: 50 80 23 1C 3A 80 2B 3D  B1 01 01 51 80 23 79 00  P.#.:.+=...Q.#y.
0330: 3D B1 01 01 F0 FF FF 7F  1C 3A 80 52 43 80 F0 FF  =........:.RC...
0340: FF 7F F0 FF FF 7F 73 34  30 34 45 43 80 F0 FF FF  ......s404EC....
0350: 7F F0 FF FF 7F 73 34 30  33 35 80 1C 44 80 79 00  .....s4035..D.y.
0360: 3D B1 01 01 3E B1 01 01  2B 3D B1 01 01 52 80 23  =...>...+=...R.#
0370: 1C 3A 80 2B 3E B1 01 01  53 80 23 1C 4A 80 45 36  .:.+>...S.#.J.E6
0380: 80 F8 FF FF 7F F8 FF FF  7F 66 64 6F 31 35 80 55  .........fdo15.U
0390: 36 80 F8 FF FF 7F F8 FF  FF 7F 66 64 6F 31 52 43  6.........fdo1RC
03A0: 80 F0 FF FF 7F F0 FF FF  7F 73 34 30 33 1C 4A 80  .........s403.J.
03B0: 45 43 80 F0 FF FF 7F F0  FF FF 7F 73 34 30 32 35  EC.........s4025
03C0: 80 45 36 80 F8 FF FF 7F  F8 FF FF 7F 66 64 69 31  .E6.........fdi1
03D0: 35 80 55 36 80 F8 FF FF  7F F8 FF FF 7F 66 64 69  5.U6.........fdi
03E0: 31 1C 3A 80 2B 3D B1 01  01 54 80 23 7B 3D B1 01  1.:.+=...T.#{=..
03F0: 01 2B 3D B1 01 01 55 80  23 6E 3D B1 01 01 56 80  .+=...U.#n=...V.
0400: 99 3D B1 01 01 1C 4A 80  66 4D 80 3D B1 01 01 3D  .=....J.fM.=...=
0410: B1 01 01 74 77 61 30 2B  3D B1 01 01 57 80 23 1C  ...twa0+=...W.#.
0420: 44 80 66 4D 80 3D B1 01  01 3D B1 01 01 74 77 61  D.fM.=...=...twa
0430: 31 1C 3A 80 52 43 80 F0  FF FF 7F F0 FF FF 7F 73  1.:.RC.........s
0440: 34 30 32 45 43 80 F0 FF  FF 7F F0 FF FF 7F 73 34  402EC.........s4
0450: 30 36 35 80 1C 3A 80 27  0F 3D B1 01 01 03 1C 44  065..:.'.=.....D
0460: 80 2B 3D B1 01 01 58 80  23 1C 59 80 2B 3E B1 01  .+=...X.#.Y.+>..
0470: 01 5A 80 23 4A 3E B1 01  01 3D B1 01 01 1C 3A 80  .Z.#J>...=....:.
0480: 79 00 3D B1 01 01 3E B1  01 01 2B 3D B1 01 01 5B  y.=...>...+=...[
0490: 80 23 1C 44 80 52 43 80  F0 FF FF 7F F0 FF FF 7F  .#.D.RC.........
04A0: 73 34 30 36 45 43 80 F0  FF FF 7F F0 FF FF 7F 73  s406EC.........s
04B0: 34 31 33 35 80 1C 3A 80  2B 3D B1 01 01 5C 80 23  4135..:.+=...\.#
04C0: 2B 3D B1 01 01 5D 80 23  1C 44 80 66 4D 80 3D B1  +=...].#.D.fM.=.
04D0: 01 01 3D B1 01 01 74 77  62 30 2B 3D B1 01 01 5E  ..=...twb0+=...^
04E0: 80 23 66 4D 80 3D B1 01  01 3D B1 01 01 74 77 62  .#fM.=...=...twb
04F0: 31 1C 44 80 7B 3D B1 01  01 52 43 80 F0 FF FF 7F  1.D.{=...RC.....
0500: F0 FF FF 7F 73 34 31 33  45 43 80 F0 FF FF 7F F0  ....s413EC......
0510: FF FF 7F 73 34 30 37 35  80 4A 3D B1 01 01 3E B1  ...s4075.J=...>.
0520: 01 01 1C 44 80 2B 3D B1  01 01 5F 80 23 1C 3A 80  ...D.+=..._.#.:.
0530: 52 43 80 F0 FF FF 7F F0  FF FF 7F 73 34 30 37 45  RC.........s407E
0540: 43 80 F0 FF FF 7F F0 FF  FF 7F 73 34 30 38 35 80  C.........s4085.
0550: 1C 3A 80 2B 3D B1 01 01  60 80 23 1C 3A 80 52 43  .:.+=...`.#.:.RC
0560: 80 F0 FF FF 7F F0 FF FF  7F 73 34 30 38 27 14 3D  .........s408'.=
0570: B1 01 01 04 1C 59 80 45  43 80 F0 FF FF 7F F0 FF  .....Y.EC.......
0580: FF 7F 73 34 30 39 35 80  2B 3D B1 01 01 61 80 23  ..s4095.+=...a.#
0590: 1C 3A 80 52 43 80 F0 FF  FF 7F F0 FF FF 7F 73 34  .:.RC.........s4
05A0: 30 39 45 43 80 F0 FF FF  7F F0 FF FF 7F 73 34 31  09EC.........s41
05B0: 30 35 80 1C 4A 80 4B 3D  B1 01 01 62 80 79 00 3D  05..J.K=...b.y.=
05C0: B1 01 01 F0 FF FF 7F 2B  3D B1 01 01 63 80 23 1C  .......+=...c.#.
05D0: 3A 80 27 19 3D B1 01 01  05 1C 59 80 2B 3D B1 01  :.'.=.....Y.+=..
05E0: 01 64 80 23 1C 65 80 45  36 80 F8 FF FF 7F F8 FF  .d.#.e.E6.......
05F0: FF 7F 66 64 6F 31 35 80  55 36 80 F8 FF FF 7F F8  ..fdo15.U6......
0600: FF FF 7F 66 64 6F 31 52  43 80 F0 FF FF 7F F0 FF  ...fdo1RC.......
0610: FF 7F 73 34 31 30 4E 01  3D B1 01 01 4A 3E B1 01  ..s410N.=...J>..
0620: 01 F0 FF FF 7F 1C 44 80  66 4D 80 3E B1 01 01 3E  ......D.fM.>...>
0630: B1 01 01 74 68 6B 31 1C  44 80 45 43 80 F0 FF FF  ...thk1.D.EC....
0640: 7F F0 FF FF 7F 73 34 31  31 35 80 45 36 80 F8 FF  .....s4115.E6...
0650: FF 7F F8 FF FF 7F 66 64  69 31 35 80 55 36 80 F8  ......fdi15.U6..
0660: FF FF 7F F8 FF FF 7F 66  64 69 31 1C 4A 80 2B 3E  .......fdi1.J.+>
0670: B1 01 01 66 80 23 66 4D  80 3E B1 01 01 3E B1 01  ...f.#fM.>...>..
0680: 01 74 68 6B 32 1C 3A 80  2B 3E B1 01 01 67 80 23  .thk2.:.+>...g.#
0690: 1C 3A 80 4A F0 FF FF 7F  3E B1 01 01 52 43 80 F0  .:.J....>...RC..
06A0: FF FF 7F F0 FF FF 7F 73  34 31 31 45 43 80 F0 FF  .......s411EC...
06B0: FF 7F F0 FF FF 7F 73 34  31 32 35 80 1C 3A 80 2B  ......s4125..:.+
06C0: 3E B1 01 01 68 80 23 1C  4A 80 5D 35 80 37 80 45  >...h.#.J.]5.7.E
06D0: 36 80 F8 FF FF 7F F8 FF  FF 7F 66 64 6F 31 35 80  6.........fdo15.
06E0: 55 36 80 F8 FF FF 7F F8  FF FF 7F 66 64 6F 31 52  U6.........fdo1R
06F0: 43 80 F0 FF FF 7F F0 FF  FF 7F 73 34 31 32 78 46  C.........s412xF
0700: 00 5C 00 35 80 5C 01 35  80 1C 3A 80 45 36 80 F8  .\.5.\.5..:.E6..
0710: FF FF 7F F8 FF FF 7F 66  64 69 31 35 80 21 01 32  .......fdi15.!.2
0720: 07 02 00 10 33 80 00 32  07 03 01 10 69 80 21 01  ....3..2....i.!.
0730: 32 07 20 00 00                                    2. ..           
```

#### Opcodes

```
  0: 0x011F [0x20] SET_CLI_EVENT_UC_FLAG: Lock player control
  1: 0x0121 [0x02] IF !(Work_Zone[3] == 1*) GOTO 0x012C
  2: 0x0129 [0x01] GOTO 0x0140
  3: 0x012C [0x24] CREATE_DIALOG(message_id=7227*, default_option=1*, option_flags=0*)
    → "Climb up the ladder? [Yes./No.]"
  4: 0x0133 [0x25] WAIT_DIALOG_SELECT()
  5: 0x0134 [0x02] IF !(Work_Zone[0] == 0*) GOTO 0x0721
  6: 0x013C [0x43] SEND_EVENT_UPDATE: Send pending tag to server (packet 0x005B)
  7: 0x013E [0x43] SEND_EVENT_UPDATE: Check pending flag (skip if not pending)

SUBROUTINE_0140:
  8: 0x0140 [0x42] SET_CLI_EVENT_CANCEL_DATA()
  9: 0x0141 [0x46] CAMERA_CONTROL: Disable user control
 10: 0x0143 [0x45] LOAD_SCHEDULED_TASK: Load scheduler "fdo1" with entities [LocalPlayer, LocalPlayer], work=[200*, 0*]
 11: 0x0154 [0x1C] WAIT(120* ticks)
 12: 0x0157 [0x38] SET_CLIENT_EVENT_MODE(mode=27*)
 13: 0x015A [0x45] LOAD_SCHEDULED_TASK: Load scheduler "l1up" with entities [EventEntity, EventEntity], work=[160*, 0*]
 14: 0x016B [0x45] LOAD_SCHEDULED_TASK: Load scheduler "fdi1" with entities [LocalPlayer, LocalPlayer], work=[200*, 0*]
 15: 0x017C [0x1C] WAIT(60* ticks)
 16: 0x017F [0x55] WAIT_LOAD_SCHEDULER: Wait for scheduler "l1up" with entities [EventEntity, EventEntity], work=160*
 17: 0x018E [0x45] LOAD_SCHEDULED_TASK: Load scheduler "fdo1" with entities [LocalPlayer, LocalPlayer], work=[200*, 0*]
 18: 0x019F [0x1C] WAIT(60* ticks)
 19: 0x01A2 [0x29] REQ_SET_WAIT(priority=0x01, entity_id=LocalPlayer, tag_num=0x0A)
 20: 0x01A9 [0x5D] SET_MUSIC_VOLUME(volume=0*, fade_time=120*)
 21: 0x01AE [0x1C] WAIT(120* ticks)
 22: 0x01B1 [0x03] Work_Zone[2] = 709*
 23: 0x01B6 [0x38] SET_CLIENT_EVENT_MODE(mode=27*)
 24: 0x01B9 [0x37] UPDATE_EVENT_POSITION_AND_DIR: x=-220.164*, z=18.643*, y=-5.999*, direction=198.3°*
 25: 0x01C2 [0x2F] Fardimant (ID: 16888125/0x0101B13D)->Render.Flags0 &= ~0x80000 // Bit 19
 26: 0x01C8 [0x4E] SET_ENTITY_HIDE_FLAG: Show Fardimant (ID: 16888125/0x0101B13D)
 27: 0x01CE [0x2F] Enaremand (ID: 16888126/0x0101B13E)->Render.Flags0 &= ~0x80000 // Bit 19
 28: 0x01D4 [0x4E] SET_ENTITY_HIDE_FLAG: Show Enaremand (ID: 16888126/0x0101B13E)
 29: 0x01DA [0x77] SET_EVENT_TIME_WEATHER(hour=16*, weather=18*)
 30: 0x01DF [0x5C] MUSIC_CONTROL: Set Idle (Day) music to song 127*
 31: 0x01E3 [0x5C] MUSIC_CONTROL: Set Idle (Night) music to song 127*
 32: 0x01E7 [0x45] LOAD_SCHEDULED_TASK: Load scheduler "s400" with entities [LocalPlayer, LocalPlayer], work=[165*, 0*]
 33: 0x01F8 [0x1C] WAIT(30* ticks)
 34: 0x01FB [0x45] LOAD_SCHEDULED_TASK: Load scheduler "fdi1" with entities [EventEntity, EventEntity], work=[200*, 0*]
 35: 0x020C [0x55] WAIT_LOAD_SCHEDULER: Wait for scheduler "fdi1" with entities [EventEntity, EventEntity], work=200*
 36: 0x021B [0x79] LocalPlayer looks at Fardimant (ID: 16888125/0x0101B13D) (Basic look)
 37: 0x0225 [0x79] Enaremand (ID: 16888126/0x0101B13E) looks at Fardimant (ID: 16888125/0x0101B13D) (Basic look)
 38: 0x022F [0x27] REQ_SET(priority=0x01, entity_id=Fardimant (ID: 16888125/0x0101B13D), tag_num=0x02)
 39: 0x0236 [0x1C] WAIT(170* ticks)
 40: 0x0239 [0x2B] Fardimant (ID: 16888125/0x0101B13D) [7401*]:
    → "Well, well, well, what have we here? Long has it been since I had any visitors...of this world."
 41: 0x0240 [0x23] WAIT_FOR_DIALOG_INTERACTION
 42: 0x0241 [0x1C] WAIT(60* ticks)
 43: 0x0244 [0x27] REQ_SET(priority=0x05, entity_id=Enaremand (ID: 16888126/0x0101B13E), tag_num=0x02)
 44: 0x024B [0x1C] WAIT(160* ticks)
 45: 0x024E [0x32] ExtData[1]->MainSpeed = 13* * 0.1
 46: 0x0251 [0x1F] MOVE_ENTITY: EventEntity moves to X=-221.115*, Z=19.136*, Y=-5.999*
 47: 0x0259 [0x1F] MOVE_ENTITY: Update entity position (mode=1)
 48: 0x025B [0x1C] WAIT(150* ticks)
 49: 0x025E [0x52] END_LOAD_SCHEDULER: End scheduler "s400" with entities [LocalPlayer, LocalPlayer], work=165*
 50: 0x026D [0x45] LOAD_SCHEDULED_TASK: Load scheduler "s402" with entities [LocalPlayer, LocalPlayer], work=[165*, 0*]
 51: 0x027E [0x1C] WAIT(90* ticks)
 52: 0x0281 [0x2B] Enaremand (ID: 16888126/0x0101B13E) [7402*]:
    → "Are y-you the great n-necromancer of whom the people whisper?"
 53: 0x0288 [0x23] WAIT_FOR_DIALOG_INTERACTION
 54: 0x0289 [0x1C] WAIT(60* ticks)
 55: 0x028C [0x2B] Fardimant (ID: 16888125/0x0101B13D) [7403*]:
    → "None other. My name is Fardimant X Boncourge, heir to the House of Boncourge, or what remains of it..."
 56: 0x0293 [0x23] WAIT_FOR_DIALOG_INTERACTION
 57: 0x0294 [0x1C] WAIT(120* ticks)
 58: 0x0297 [0x66] LOAD_EXT_SCHEDULER_MAIN: Load scheduler "twa0" with entities [Fardimant (ID: 16888125/0x0101B13D), Fardimant (ID: 16888125/0x0101B13D)], work=29*
 59: 0x02A6 [0x2B] Fardimant (ID: 16888125/0x0101B13D) [7404*]:
    → "Ho ho...? I sense a hint of familiarity between you and me, Sir..."
 60: 0x02AD [0x23] WAIT_FOR_DIALOG_INTERACTION
 61: 0x02AE [0x66] LOAD_EXT_SCHEDULER_MAIN: Load scheduler "twa1" with entities [Fardimant (ID: 16888125/0x0101B13D), Fardimant (ID: 16888125/0x0101B13D)], work=29*
 62: 0x02BD [0x1C] WAIT(30* ticks)
 63: 0x02C0 [0x52] END_LOAD_SCHEDULER: End scheduler "s402" with entities [LocalPlayer, LocalPlayer], work=165*
 64: 0x02CF [0x45] LOAD_SCHEDULED_TASK: Load scheduler "s405" with entities [LocalPlayer, LocalPlayer], work=[165*, 0*]
 65: 0x02E0 [0x1C] WAIT(60* ticks)
 66: 0x02E3 [0x2B] Enaremand (ID: 16888126/0x0101B13E) [7405*]:
    → "Enaremand. Wh-what exactly do you m-m-m-mean...?"
 67: 0x02EA [0x23] WAIT_FOR_DIALOG_INTERACTION
 68: 0x02EB [0x1C] WAIT(60* ticks)
 69: 0x02EE [0x52] END_LOAD_SCHEDULER: End scheduler "s405" with entities [LocalPlayer, LocalPlayer], work=165*
 70: 0x02FD [0x45] LOAD_SCHEDULED_TASK: Load scheduler "s404" with entities [LocalPlayer, LocalPlayer], work=[165*, 0*]
 71: 0x030E [0x1C] WAIT(30* ticks)
 72: 0x0311 [0x79] Fardimant (ID: 16888125/0x0101B13D) looks at Enaremand (ID: 16888126/0x0101B13E) (Basic look)
 73: 0x031B [0x2B] Fardimant (ID: 16888125/0x0101B13D) [7406*]:
    → "Sir Enaremand. Yes... There is an air about you that does not quite fit in this plane of existence..."
 74: 0x0322 [0x23] WAIT_FOR_DIALOG_INTERACTION
 75: 0x0323 [0x1C] WAIT(60* ticks)
 76: 0x0326 [0x2B] Fardimant (ID: 16888125/0x0101B13D) [7407*]:
    → "But that is of no matter."
 77: 0x032D [0x23] WAIT_FOR_DIALOG_INTERACTION
 78: 0x032E [0x79] Fardimant (ID: 16888125/0x0101B13D) looks at LocalPlayer (Basic look)
 79: 0x0338 [0x1C] WAIT(60* ticks)
 80: 0x033B [0x52] END_LOAD_SCHEDULER: End scheduler "s404" with entities [LocalPlayer, LocalPlayer], work=165*
 81: 0x034A [0x45] LOAD_SCHEDULED_TASK: Load scheduler "s403" with entities [LocalPlayer, LocalPlayer], work=[165*, 0*]
 82: 0x035B [0x1C] WAIT(30* ticks)
 83: 0x035E [0x79] Fardimant (ID: 16888125/0x0101B13D) looks at Enaremand (ID: 16888126/0x0101B13E) (Basic look)
 84: 0x0368 [0x2B] Fardimant (ID: 16888125/0x0101B13D) [7408*]:
    → "May I inquire what has brought you to my stygian abode?"
 85: 0x036F [0x23] WAIT_FOR_DIALOG_INTERACTION
 86: 0x0370 [0x1C] WAIT(60* ticks)
 87: 0x0373 [0x2B] Enaremand (ID: 16888126/0x0101B13E) [7409*]:
    → "I... Well... Eh......"
 88: 0x037A [0x23] WAIT_FOR_DIALOG_INTERACTION
 89: 0x037B [0x1C] WAIT(90* ticks)
 90: 0x037E [0x45] LOAD_SCHEDULED_TASK: Load scheduler "fdo1" with entities [EventEntity, EventEntity], work=[200*, 0*]
 91: 0x038F [0x55] WAIT_LOAD_SCHEDULER: Wait for scheduler "fdo1" with entities [EventEntity, EventEntity], work=200*
 92: 0x039E [0x52] END_LOAD_SCHEDULER: End scheduler "s403" with entities [LocalPlayer, LocalPlayer], work=165*
 93: 0x03AD [0x1C] WAIT(90* ticks)
 94: 0x03B0 [0x45] LOAD_SCHEDULED_TASK: Load scheduler "s402" with entities [LocalPlayer, LocalPlayer], work=[165*, 0*]
 95: 0x03C1 [0x45] LOAD_SCHEDULED_TASK: Load scheduler "fdi1" with entities [EventEntity, EventEntity], work=[200*, 0*]
 96: 0x03D2 [0x55] WAIT_LOAD_SCHEDULER: Wait for scheduler "fdi1" with entities [EventEntity, EventEntity], work=200*
 97: 0x03E1 [0x1C] WAIT(60* ticks)
 98: 0x03E4 [0x2B] Fardimant (ID: 16888125/0x0101B13D) [7410*]:
    → "I see..."
 99: 0x03EB [0x23] WAIT_FOR_DIALOG_INTERACTION
100: 0x03EC [0x7B] Fardimant (ID: 16888125/0x0101B13D) stops talking
101: 0x03F1 [0x2B] Fardimant (ID: 16888125/0x0101B13D) [7411*]:
    → "The feelings you harbor for your fianc<Player>ie are so great, that you wish to perform an act that will ultimately commit your soul into the depths of the underworld. For a moment of happiness, you are willing to condemn yourself to an eternity of damnation."
102: 0x03F8 [0x23] WAIT_FOR_DIALOG_INTERACTION
103: 0x03F9 [0x6E] Fardimant (ID: 16888125/0x0101B13D) uses emote 6*
104: 0x0400 [0x99] Wait for Fardimant (ID: 16888125/0x0101B13D) animation to complete
105: 0x0405 [0x1C] WAIT(90* ticks)
106: 0x0408 [0x66] LOAD_EXT_SCHEDULER_MAIN: Load scheduler "twa0" with entities [Fardimant (ID: 16888125/0x0101B13D), Fardimant (ID: 16888125/0x0101B13D)], work=29*
107: 0x0417 [0x2B] Fardimant (ID: 16888125/0x0101B13D) [7412*]:
    → "Hmph... Little do I know of these emotions that drive your heart to the brink of insanity, but little do I care."
108: 0x041E [0x23] WAIT_FOR_DIALOG_INTERACTION
109: 0x041F [0x1C] WAIT(30* ticks)
110: 0x0422 [0x66] LOAD_EXT_SCHEDULER_MAIN: Load scheduler "twa1" with entities [Fardimant (ID: 16888125/0x0101B13D), Fardimant (ID: 16888125/0x0101B13D)], work=29*
111: 0x0431 [0x1C] WAIT(60* ticks)
112: 0x0434 [0x52] END_LOAD_SCHEDULER: End scheduler "s402" with entities [LocalPlayer, LocalPlayer], work=165*
113: 0x0443 [0x45] LOAD_SCHEDULED_TASK: Load scheduler "s406" with entities [LocalPlayer, LocalPlayer], work=[165*, 0*]
114: 0x0454 [0x1C] WAIT(60* ticks)
115: 0x0457 [0x27] REQ_SET(priority=0x0F, entity_id=Fardimant (ID: 16888125/0x0101B13D), tag_num=0x03)
116: 0x045E [0x1C] WAIT(30* ticks)
117: 0x0461 [0x2B] Fardimant (ID: 16888125/0x0101B13D) [7413*]:
    → "I shall help you, but only because the darkness that dwells inside me resonates with the beast that has a grip on your feeble mind."
118: 0x0468 [0x23] WAIT_FOR_DIALOG_INTERACTION
119: 0x0469 [0x1C] WAIT(10* ticks)
120: 0x046C [0x2B] Enaremand (ID: 16888126/0x0101B13E) [7414*]:
    → "I... You... B-but... Oh, thank you!"
121: 0x0473 [0x23] WAIT_FOR_DIALOG_INTERACTION
122: 0x0474 [0x4A] Enaremand (ID: 16888126/0x0101B13E) looks at Fardimant (ID: 16888125/0x0101B13D)
123: 0x047D [0x1C] WAIT(60* ticks)
124: 0x0480 [0x79] Fardimant (ID: 16888125/0x0101B13D) looks at Enaremand (ID: 16888126/0x0101B13E) (Basic look)
125: 0x048A [0x2B] Fardimant (ID: 16888125/0x0101B13D) [7415*]:
    → "Remember, I cannot guarantee that the result of our undertakings shall match the outcome you envision."
126: 0x0491 [0x23] WAIT_FOR_DIALOG_INTERACTION
127: 0x0492 [0x1C] WAIT(30* ticks)
128: 0x0495 [0x52] END_LOAD_SCHEDULER: End scheduler "s406" with entities [LocalPlayer, LocalPlayer], work=165*
129: 0x04A4 [0x45] LOAD_SCHEDULED_TASK: Load scheduler "s413" with entities [LocalPlayer, LocalPlayer], work=[165*, 0*]
130: 0x04B5 [0x1C] WAIT(60* ticks)
131: 0x04B8 [0x2B] Fardimant (ID: 16888125/0x0101B13D) [7416*]:
    → "But there is nothing you need to worry of...yet."
132: 0x04BF [0x23] WAIT_FOR_DIALOG_INTERACTION
133: 0x04C0 [0x2B] Fardimant (ID: 16888125/0x0101B13D) [7417*]:
    → "What I need of you now, is the procurement of an item necessary for the ceremony of rebirth."
134: 0x04C7 [0x23] WAIT_FOR_DIALOG_INTERACTION
135: 0x04C8 [0x1C] WAIT(30* ticks)
136: 0x04CB [0x66] LOAD_EXT_SCHEDULER_MAIN: Load scheduler "twb0" with entities [Fardimant (ID: 16888125/0x0101B13D), Fardimant (ID: 16888125/0x0101B13D)], work=29*
137: 0x04DA [0x2B] Fardimant (ID: 16888125/0x0101B13D) [7418*]:
    → "There is a certain type of reed that grows near the rivers and swamps of Tavnazia. When certain natural conditions are met, this reed decays into a hard substance that resembles a type of incense. Though quite rare, without one of these reeds, I will be unable to call forth the essence of your loved one's being."
138: 0x04E1 [0x23] WAIT_FOR_DIALOG_INTERACTION
139: 0x04E2 [0x66] LOAD_EXT_SCHEDULER_MAIN: Load scheduler "twb1" with entities [Fardimant (ID: 16888125/0x0101B13D), Fardimant (ID: 16888125/0x0101B13D)], work=29*
140: 0x04F1 [0x1C] WAIT(30* ticks)
141: 0x04F4 [0x7B] Fardimant (ID: 16888125/0x0101B13D) stops talking
142: 0x04F9 [0x52] END_LOAD_SCHEDULER: End scheduler "s413" with entities [LocalPlayer, LocalPlayer], work=165*
143: 0x0508 [0x45] LOAD_SCHEDULED_TASK: Load scheduler "s407" with entities [LocalPlayer, LocalPlayer], work=[165*, 0*]
144: 0x0519 [0x4A] Fardimant (ID: 16888125/0x0101B13D) looks at Enaremand (ID: 16888126/0x0101B13E)
145: 0x0522 [0x1C] WAIT(30* ticks)
146: 0x0525 [0x2B] Fardimant (ID: 16888125/0x0101B13D) [7419*]:
    → "And again, I must warn you that nothing is certain when dealing with souls that have once crossed over into the nethers."
147: 0x052C [0x23] WAIT_FOR_DIALOG_INTERACTION
148: 0x052D [0x1C] WAIT(60* ticks)
149: 0x0530 [0x52] END_LOAD_SCHEDULER: End scheduler "s407" with entities [LocalPlayer, LocalPlayer], work=165*
150: 0x053F [0x45] LOAD_SCHEDULED_TASK: Load scheduler "s408" with entities [LocalPlayer, LocalPlayer], work=[165*, 0*]
151: 0x0550 [0x1C] WAIT(60* ticks)
152: 0x0553 [0x2B] Fardimant (ID: 16888125/0x0101B13D) [7420*]:
    → "You must be prepared to compensate for your actions."
153: 0x055A [0x23] WAIT_FOR_DIALOG_INTERACTION
154: 0x055B [0x1C] WAIT(60* ticks)
155: 0x055E [0x52] END_LOAD_SCHEDULER: End scheduler "s408" with entities [LocalPlayer, LocalPlayer], work=165*
156: 0x056D [0x27] REQ_SET(priority=0x14, entity_id=Fardimant (ID: 16888125/0x0101B13D), tag_num=0x04)
157: 0x0574 [0x1C] WAIT(10* ticks)
158: 0x0577 [0x45] LOAD_SCHEDULED_TASK: Load scheduler "s409" with entities [LocalPlayer, LocalPlayer], work=[165*, 0*]
159: 0x0588 [0x2B] Fardimant (ID: 16888125/0x0101B13D) [7421*]:
    → "Though ultimately you will end up paying more than you receive. But you already know this, do you not?"
160: 0x058F [0x23] WAIT_FOR_DIALOG_INTERACTION
161: 0x0590 [0x1C] WAIT(60* ticks)
162: 0x0593 [0x52] END_LOAD_SCHEDULER: End scheduler "s409" with entities [LocalPlayer, LocalPlayer], work=165*
163: 0x05A2 [0x45] LOAD_SCHEDULED_TASK: Load scheduler "s410" with entities [LocalPlayer, LocalPlayer], work=[165*, 0*]
164: 0x05B3 [0x1C] WAIT(90* ticks)
165: 0x05B6 [0x4B] UPDATE_ENTITY_YAW(entity=Fardimant (ID: 16888125/0x0101B13D), yaw=3.6°*)
166: 0x05BD [0x79] Fardimant (ID: 16888125/0x0101B13D) looks at LocalPlayer (Basic look)
167: 0x05C7 [0x2B] Fardimant (ID: 16888125/0x0101B13D) [7422*]:
    → "When you have obtained the item, travel to the base of the Cascade Edellaine."
168: 0x05CE [0x23] WAIT_FOR_DIALOG_INTERACTION
169: 0x05CF [0x1C] WAIT(60* ticks)
170: 0x05D2 [0x27] REQ_SET(priority=0x19, entity_id=Fardimant (ID: 16888125/0x0101B13D), tag_num=0x05)
171: 0x05D9 [0x1C] WAIT(10* ticks)
172: 0x05DC [0x2B] Fardimant (ID: 16888125/0x0101B13D) [7423*]:
    → "I shall be waiting for you there."
173: 0x05E3 [0x23] WAIT_FOR_DIALOG_INTERACTION
174: 0x05E4 [0x1C] WAIT(360* ticks)
175: 0x05E7 [0x45] LOAD_SCHEDULED_TASK: Load scheduler "fdo1" with entities [EventEntity, EventEntity], work=[200*, 0*]
176: 0x05F8 [0x55] WAIT_LOAD_SCHEDULER: Wait for scheduler "fdo1" with entities [EventEntity, EventEntity], work=200*
177: 0x0607 [0x52] END_LOAD_SCHEDULER: End scheduler "s410" with entities [LocalPlayer, LocalPlayer], work=165*
178: 0x0616 [0x4E] SET_ENTITY_HIDE_FLAG: Hide Fardimant (ID: 16888125/0x0101B13D)
179: 0x061C [0x4A] Enaremand (ID: 16888126/0x0101B13E) looks at LocalPlayer
180: 0x0625 [0x1C] WAIT(30* ticks)
181: 0x0628 [0x66] LOAD_EXT_SCHEDULER_MAIN: Load scheduler "thk1" with entities [Enaremand (ID: 16888126/0x0101B13E), Enaremand (ID: 16888126/0x0101B13E)], work=29*
182: 0x0637 [0x1C] WAIT(30* ticks)
183: 0x063A [0x45] LOAD_SCHEDULED_TASK: Load scheduler "s411" with entities [LocalPlayer, LocalPlayer], work=[165*, 0*]
184: 0x064B [0x45] LOAD_SCHEDULED_TASK: Load scheduler "fdi1" with entities [EventEntity, EventEntity], work=[200*, 0*]
185: 0x065C [0x55] WAIT_LOAD_SCHEDULER: Wait for scheduler "fdi1" with entities [EventEntity, EventEntity], work=200*
186: 0x066B [0x1C] WAIT(90* ticks)
187: 0x066E [0x2B] Enaremand (ID: 16888126/0x0101B13E) [7424*]:
    → "R-reeds? R-rivers? S-swamps? That sounds like Lufa...no, Misareaux. Yes, Misareaux..."
188: 0x0675 [0x23] WAIT_FOR_DIALOG_INTERACTION
189: 0x0676 [0x66] LOAD_EXT_SCHEDULER_MAIN: Load scheduler "thk2" with entities [Enaremand (ID: 16888126/0x0101B13E), Enaremand (ID: 16888126/0x0101B13E)], work=29*
190: 0x0685 [0x1C] WAIT(60* ticks)
191: 0x0688 [0x2B] Enaremand (ID: 16888126/0x0101B13E) [7425*]:
    → "I will return to the s-safehold and prepare for the ceremony."
192: 0x068F [0x23] WAIT_FOR_DIALOG_INTERACTION
193: 0x0690 [0x1C] WAIT(60* ticks)
194: 0x0693 [0x4A] LocalPlayer looks at Enaremand (ID: 16888126/0x0101B13E)
195: 0x069C [0x52] END_LOAD_SCHEDULER: End scheduler "s411" with entities [LocalPlayer, LocalPlayer], work=165*
196: 0x06AB [0x45] LOAD_SCHEDULED_TASK: Load scheduler "s412" with entities [LocalPlayer, LocalPlayer], work=[165*, 0*]
197: 0x06BC [0x1C] WAIT(60* ticks)
198: 0x06BF [0x2B] Enaremand (ID: 16888126/0x0101B13E) [7426*]:
    → "When you find the reed, t-take it directly to the waterfall... Yes, g-go there at once. I will m-m-m-meet you beneath it."
199: 0x06C6 [0x23] WAIT_FOR_DIALOG_INTERACTION
200: 0x06C7 [0x1C] WAIT(90* ticks)
201: 0x06CA [0x5D] SET_MUSIC_VOLUME(volume=0*, fade_time=120*)
202: 0x06CF [0x45] LOAD_SCHEDULED_TASK: Load scheduler "fdo1" with entities [EventEntity, EventEntity], work=[200*, 0*]
203: 0x06E0 [0x55] WAIT_LOAD_SCHEDULER: Wait for scheduler "fdo1" with entities [EventEntity, EventEntity], work=200*
204: 0x06EF [0x52] END_LOAD_SCHEDULER: End scheduler "s412" with entities [LocalPlayer, LocalPlayer], work=165*
205: 0x06FE [0x78] ENABLE_GAME_TIMER_RESET_WEATHER()
206: 0x06FF [0x46] CAMERA_CONTROL: Restore default settings
207: 0x0701 [0x5C] MUSIC_CONTROL: Set Idle (Day) music to song 0*
208: 0x0705 [0x5C] MUSIC_CONTROL: Set Idle (Night) music to song 0*
209: 0x0709 [0x1C] WAIT(60* ticks)
210: 0x070C [0x45] LOAD_SCHEDULED_TASK: Load scheduler "fdi1" with entities [EventEntity, EventEntity], work=[200*, 0*]
211: 0x071D [0x21] END_EVENT

SUBROUTINE_0732:
212: 0x0732 [0x20] SET_CLI_EVENT_UC_FLAG: Unlock player control
213: 0x0734 [0x00] END_REQSTACK()
```

#### Data or dead code:

```
# Dead code (unreachable instructions):
     0x071E [0x01] GOTO 0x0732
     0x072F [0x01] GOTO 0x0732
```
