# Event 32004

## Metadata

| Field           | Value    |
|-----------------|----------|
| Event Index     | 13/32    |
| Offset          | 0x1040   |
| Data Size       | 73 bytes |
| Calculated Size | 73 bytes |
| Instructions    | 16       |

```
      00 01 02 03 04 05 06 07  08 09 0A 0B 0C 0D 0E 0F
      -- -- -- -- -- -- -- --  -- -- -- -- -- -- -- --
1040: 03 23 00 02 10 03 24 00  03 10 03 20 00 04 10 03  .#....$.... ....
1050: 25 00 05 10 42 38 36 80  02 25 00 08 80 00 63 10  %...B86..%....c.
1060: 1C 89 80 02 20 00 02 80  80 74 10 1A 29 29 1A 1F  .... ....t..))..
1070: 11 01 74 10 45 13 80 F0  FF FF 7F F0 FF FF 7F 66  ..t.E..........f
1080: 64 69 32 08 80 46 00 21  00                       di2..F.!.       
```

## Opcodes

```
  0: 0x1040 [0x03] ExtData[1]->WorkLocal[35] = Work_Zone[2]
  1: 0x1045 [0x03] ExtData[1]->WorkLocal[36] = Work_Zone[3]
  2: 0x104A [0x03] ExtData[1]->WorkLocal[32] = Work_Zone[4]
  3: 0x104F [0x03] ExtData[1]->WorkLocal[37] = Work_Zone[5]
  4: 0x1054 [0x42] SET_CLI_EVENT_CANCEL_DATA()
  5: 0x1055 [0x38] SET_CLIENT_EVENT_MODE(mode=27*)
  6: 0x1058 [0x02] IF !(ExtData[1]->WorkLocal[37] == 0*) GOTO 0x1063
  7: 0x1060 [0x1C] WAIT(120* ticks)
  8: 0x1063 [0x02] IF !(ExtData[1]->WorkLocal[32] == 2*) GOTO 0x1074
  9: 0x106B [0x1A] CALL_SUBROUTINE(address=0x2929)
 10: 0x106E [0x1A] CALL_SUBROUTINE(address=0x111F)
 11: 0x1071 [0x01] GOTO 0x1074

SUBROUTINE_1074:
 12: 0x1074 [0x45] LOAD_SCHEDULED_TASK(work_offset1=200*, entity1=LocalPlayer, entity2=LocalPlayer, scheduler_id="fdi2", work_offset2=0*)
 13: 0x1085 [0x46] CAMERA_CONTROL: Restore default settings
 14: 0x1087 [0x21] END_EVENT
 15: 0x1088 [0x00] END_REQSTACK()
```
