# 17506814

## Common Data

| Field            | Value                             |
|------------------|-----------------------------------|
| Zone             | The Shrine of Ru'Avitau (ID: 178) |
| Block Size       | 1604 bytes                        |
| Total Events     | 2                                 |
| References Count | 39                                |

## List of Events

| Event ID              | Entrypoint   |   Size |   Instructions |
|-----------------------|--------------|--------|----------------|
| [65535](#event-65535) | 0x0000       |      1 |              1 |
| [51](#event-51)       | 0x0001       |   1423 |            183 |

## DAT References (imed_data)

|   Index | Hex Value   |   Dec Value |
|---------|-------------|-------------|
|       0 | 0x0013      |          19 |
|       1 | 0x0099      |         153 |
|       2 | 0x1CA2      |        7330 |
|       3 | 0x1CA3      |        7331 |
|       4 | 0x1CA4      |        7332 |
|       5 | 0x1CA5      |        7333 |
|       6 | 0x1CA6      |        7334 |
|       7 | 0x1CA7      |        7335 |
|       8 | 0x1CA8      |        7336 |
|       9 | 0x1CA9      |        7337 |
|      10 | 0x1CB3      |        7347 |
|      11 | 0x00E7      |         231 |
|      12 | 0x0000      |           0 |
|      13 | 0x1CAA      |        7338 |
|      14 | 0x010E      |         270 |
|      15 | 0x000F      |          15 |
|      16 | 0x021A      |         538 |
|      17 | 0x1CAB      |        7339 |
|      18 | 0x1CAC      |        7340 |
|      19 | 0x00C7      |         199 |
|      20 | 0x001E      |          30 |
|      21 | 0x1CAD      |        7341 |
|      22 | 0x1CAE      |        7342 |
|      23 | 0x1CAF      |        7343 |
|      24 | 0x0078      |         120 |
|      25 | 0x0060      |          96 |
|      26 | 0x1CB0      |        7344 |
|      27 | 0x002D      |          45 |
|      28 | 0x1CB1      |        7345 |
|      29 | 0x1CB2      |        7346 |
|      30 | 0x005A      |          90 |
|      31 | 0x00CF      |         207 |
|      32 | 0x0073      |         115 |
|      33 | 0x00C0      |         192 |
|      34 | 0x00C8      |         200 |
|      35 | 0x00C9      |         201 |
|      36 | 0x0001      |           1 |
|      37 | 0x0002      |           2 |
|      38 | 0x00D7      |         215 |

## String References

- **7330**: You are the great bane--the nightmare that will devour the fair land of Vana'diel and thrust the world into fear and despair.
- **7331**: But as one bright star shines through the clouds at night...
- **7332**: And as one song rings clear above the roar of beasts...
- **7333**: We hold to one hope in these darkest of times.
- **7334**: The darkness must be vanquished. The bane must be purified.
- **7335**: No matter the consequences.
- **7336**: That they will come, with the wisdom of ages and the strength of thousands, to deliver us from our plight.
- **7337**: We await the awakening of the Warriors of the Crystal.
- **7347**: @@

## Events

### Event 65535

#### Metadata

| Field        | Value   |
|--------------|---------|
| Entrypoint   | 0x0000  |
| Data Size    | 1 bytes |
| Instructions | 1       |

```
      00 01 02 03 04 05 06 07  08 09 0A 0B 0C 0D 0E 0F
      -- -- -- -- -- -- -- --  -- -- -- -- -- -- -- --
0000: 00                                                .               
```

#### Opcodes

```
  0: 0x0000 [0x00] END_REQSTACK()
```

### Event 51

#### Metadata

| Field        | Value      |
|--------------|------------|
| Entrypoint   | 0x0001     |
| Data Size    | 1423 bytes |
| Instructions | 131        |

```
      00 01 02 03 04 05 06 07  08 09 0A 0B 0C 0D 0E 0F
      -- -- -- -- -- -- -- --  -- -- -- -- -- -- -- --
0000:    42 1A 20 03 46 01 38  00 80 4E 00 F0 FF FF 7F   B. .F.8..N.....
0010: 80 F0 FF FF 7F 27 10 FD  21 0B 01 04 80 FD 21 0B  .....'..!.....!.
0020: 01 5C 00 01 80 5C 01 01  80 5C 02 01 80 5C 03 01  .\...\...\...\..
0030: 80 9A 27 10 F0 FF FF 7F  16 27 10 FD 21 0B 01 09  ..'......'..!...
0040: 92 01 FD 21 0B 01 94 01  FD 21 0B 01 48 02 80 23  ...!.....!..H..#
0050: 48 03 80 23 48 04 80 23  48 05 80 23 48 06 80 23  H..#H..#H..#H..#
0060: 48 07 80 23 48 08 80 23  48 09 80 23 48 0A 80 23  H..#H..#H..#H..#
0070: 27 10 F0 FF FF 7F 17 45  0B 80 F0 FF FF 7F F0 FF  '......E........
0080: FF 7F 73 65 38 30 0C 80  1A 41 03 2A 10 F0 FF FF  ..se80...A.*....
0090: 7F 55 0B 80 F0 FF FF 7F  F0 FF FF 7F 73 65 38 30  .U..........se80
00A0: 2B FD 21 0B 01 0D 80 23  5D 0C 80 0E 80 45 0B 80  +.!....#]....E..
00B0: F0 FF FF 7F F0 FF FF 7F  73 65 38 31 0C 80 4A F0  ........se81..J.
00C0: FF FF 7F FD 21 0B 01 29  10 FD 21 0B 01 0A 55 0B  ....!..)..!...U.
00D0: 80 F0 FF FF 7F F0 FF FF  7F 73 65 38 31 1A 62 03  .........se81.b.
00E0: 1C 0F 80 79 00 FD 21 0B  01 F0 FF FF 7F 27 10 FD  ...y..!......'..
00F0: 21 0B 01 0B 45 0B 80 F0  FF FF 7F F0 FF FF 7F 73  !...E..........s
0100: 65 38 33 0C 80 1A 41 03  2A 10 FD 21 0B 01 5B 10  e83...A.*..!..[.
0110: 80 FD 21 0B 01 FD 21 0B  01 74 6C 34 30 2B FD 21  ..!...!..tl40+.!
0120: 0B 01 11 80 23 2B FD 21  0B 01 12 80 23 5B 10 80  ....#+.!....#[..
0130: FD 21 0B 01 FD 21 0B 01  74 6C 34 31 53 FD 21 0B  .!...!..tl41S.!.
0140: 01 FD 21 0B 01 74 6C 34  31 1C 0F 80 27 10 FD 21  ..!..tl41...'..!
0150: 0B 01 0C 52 0B 80 F0 FF  FF 7F F0 FF FF 7F 73 65  ...R..........se
0160: 38 33 45 0B 80 F0 FF FF  7F F0 FF FF 7F 73 65 38  83E..........se8
0170: 34 0C 80 5C 00 13 80 5C  01 13 80 5C 02 13 80 5C  4..\...\...\...\
0180: 03 13 80 9A 1C 14 80 4A  F0 FF FF 7F FD 21 0B 01  .......J.....!..
0190: 2A 10 FD 21 0B 01 2B FD  21 0B 01 15 80 23 5B 10  *..!..+.!....#[.
01A0: 80 FD 21 0B 01 FD 21 0B  01 74 6B 32 30 1C 0F 80  ..!...!..tk20...
01B0: 52 0B 80 F0 FF FF 7F F0  FF FF 7F 73 65 38 34 45  R..........se84E
01C0: 0B 80 F0 FF FF 7F F0 FF  FF 7F 73 65 38 36 0C 80  ..........se86..
01D0: 2B FD 21 0B 01 16 80 23  2B FD 21 0B 01 17 80 23  +.!....#+.!....#
01E0: 1C 18 80 5B 10 80 FD 21  0B 01 FD 21 0B 01 74 6B  ...[...!...!..tk
01F0: 32 31 52 0B 80 F0 FF FF  7F F0 FF FF 7F 73 65 38  21R..........se8
0200: 36 45 0B 80 F0 FF FF 7F  F0 FF FF 7F 73 65 38 35  6E..........se85
0210: 0C 80 53 FD 21 0B 01 FD  21 0B 01 74 6B 32 31 4A  ..S.!...!..tk21J
0220: FD 21 0B 01 F0 FF FF 7F  6F 76 FD 21 0B 01 5B 19  .!......ov.!..[.
0230: 80 FD 21 0B 01 FD 21 0B  01 74 6C 63 32 2B FD 21  ..!...!..tlc2+.!
0240: 0B 01 1A 80 23 53 FD 21  0B 01 FD 21 0B 01 74 6C  ....#S.!...!..tl
0250: 63 32 1C 1B 80 5B 19 80  FD 21 0B 01 FD 21 0B 01  c2...[...!...!..
0260: 74 6C 62 32 2B FD 21 0B  01 1C 80 23 53 FD 21 0B  tlb2+.!....#S.!.
0270: 01 FD 21 0B 01 74 6C 62  32 1C 0F 80 2B FD 21 0B  ..!..tlb2...+.!.
0280: 01 1D 80 23 5D 0C 80 1E  80 7B FD 21 0B 01 52 0B  ...#]....{.!..R.
0290: 80 F0 FF FF 7F F0 FF FF  7F 73 65 38 35 45 0B 80  .........se85E..
02A0: F0 FF FF 7F F0 FF FF 7F  73 65 38 37 0C 80 27 10  ........se87..'.
02B0: FD 21 0B 01 0D 1C 1B 80  4A F0 FF FF 7F FD 21 0B  .!......J.....!.
02C0: 01 2A 10 FD 21 0B 01 1A  62 03 55 0B 80 F0 FF FF  .*..!...b.U.....
02D0: 7F F0 FF FF 7F 73 65 38  37 5C 00 1F 80 5C 01 1F  .....se87\...\..
02E0: 80 5C 02 20 80 5C 03 21  80 9A 46 00 45 22 80 F0  .\. .\.!..F.E"..
02F0: FF FF 7F F0 FF FF 7F 66  64 69 32 0C 80 21 00 45  .......fdi2..!.E
0300: 22 80 F0 FF FF 7F F0 FF  FF 7F 66 64 69 30 0C 80  ".........fdi0..
0310: 55 22 80 F0 FF FF 7F F0  FF FF 7F 66 64 69 30 1B  U".........fdi0.
0320: 45 22 80 F0 FF FF 7F F0  FF FF 7F 66 64 6F 30 0C  E".........fdo0.
0330: 80 55 22 80 F0 FF FF 7F  F0 FF FF 7F 66 64 6F 30  .U".........fdo0
0340: 1B 45 22 80 F0 FF FF 7F  F0 FF FF 7F 66 64 69 31  .E".........fdi1
0350: 0C 80 55 22 80 F0 FF FF  7F F0 FF FF 7F 66 64 69  ..U".........fdi
0360: 31 1B 45 22 80 F0 FF FF  7F F0 FF FF 7F 66 64 6F  1.E".........fdo
0370: 31 0C 80 55 22 80 F0 FF  FF 7F F0 FF FF 7F 66 64  1..U".........fd
0380: 6F 31 1B 45 23 80 F0 FF  FF 7F F0 FF FF 7F 77 68  o1.E#.........wh
0390: 69 31 0C 80 55 23 80 F0  FF FF 7F F0 FF FF 7F 77  i1..U#.........w
03A0: 68 69 31 1B 45 23 80 F0  FF FF 7F F0 FF FF 7F 77  hi1.E#.........w
03B0: 68 6F 31 0C 80 55 23 80  F0 FF FF 7F F0 FF FF 7F  ho1..U#.........
03C0: 77 68 6F 31 1B 45 23 80  F0 FF FF 7F F0 FF FF 7F  who1.E#.........
03D0: 77 68 6F 32 0C 80 55 23  80 F0 FF FF 7F F0 FF FF  who2..U#........
03E0: 7F 77 68 6F 32 1B 45 23  80 F0 FF FF 7F F0 FF FF  .who2.E#........
03F0: 7F 77 68 6F 33 0C 80 55  23 80 F0 FF FF 7F F0 FF  .who3..U#.......
0400: FF 7F 77 68 6F 33 1B 62  24 80 F0 FF FF 7F F0 FF  ..who3.b$.......
0410: FF 7F 6D 61 69 6E 0C 80  1C 1B 80 45 22 80 F0 FF  ..main.....E"...
0420: FF 7F F0 FF FF 7F 66 64  6F 31 0C 80 55 22 80 F0  ......fdo1..U"..
0430: FF FF 7F F0 FF FF 7F 66  64 6F 31 1B 45 22 80 F0  .......fdo1.E"..
0440: FF FF 7F F0 FF FF 7F 66  64 69 31 0C 80 62 25 80  .......fdi1..b%.
0450: F0 FF FF 7F F0 FF FF 7F  6D 61 69 6E 0C 80 1C 14  ........main....
0460: 80 55 22 80 F0 FF FF 7F  F0 FF FF 7F 66 64 69 31  .U".........fdi1
0470: 1B 45 22 80 F0 FF FF 7F  F0 FF FF 7F 62 6C 6F 6E  .E".........blon
0480: 0C 80 45 23 80 F0 FF FF  7F F0 FF FF 7F 62 6C 6F  ..E#.........blo
0490: 6E 0C 80 1B 45 23 80 F0  FF FF 7F F0 FF FF 7F 77  n...E#.........w
04A0: 68 69 30 0C 80 55 23 80  F0 FF FF 7F F0 FF FF 7F  hi0..U#.........
04B0: 77 68 69 30 1B 45 23 80  F0 FF FF 7F F0 FF FF 7F  whi0.E#.........
04C0: 77 68 6F 30 0C 80 55 23  80 F0 FF FF 7F F0 FF FF  who0..U#........
04D0: 7F 77 68 6F 30 1B 45 26  80 F0 FF FF 7F F0 FF FF  .who0.E&........
04E0: 7F 65 66 6F 6E 0C 80 55  26 80 F0 FF FF 7F F0 FF  .efon..U&.......
04F0: FF 7F 65 66 6F 6E 1B 45  22 80 F0 FF FF 7F F0 FF  ..efon.E".......
0500: FF 7F 66 64 69 73 0C 80  1B 45 22 80 F0 FF FF 7F  ..fdis...E".....
0510: F0 FF FF 7F 66 64 6F 73  0C 80 55 22 80 F0 FF FF  ....fdos..U"....
0520: 7F F0 FF FF 7F 66 64 6F  73 1B 45 22 80 F0 FF FF  .....fdos.E"....
0530: 7F F0 FF FF 7F 66 64 69  66 0C 80 1B 45 22 80 F0  .....fdif...E"..
0540: FF FF 7F F0 FF FF 7F 66  64 6F 66 0C 80 55 22 80  .......fdof..U".
0550: F0 FF FF 7F F0 FF FF 7F  66 64 6F 66 1B 45 22 80  ........fdof.E".
0560: F0 FF FF 7F F0 FF FF 7F  66 64 69 70 0C 80 1B 45  ........fdip...E
0570: 22 80 F0 FF FF 7F F0 FF  FF 7F 66 64 6F 70 0C 80  ".........fdop..
0580: 55 22 80 F0 FF FF 7F F0  FF FF 7F 66 64 6F 70 1B  U".........fdop.
```

#### Opcodes

```
  0: 0x0001 [0x42] SET_CLI_EVENT_CANCEL_DATA()
  1: 0x0002 [0x1A] CALL_SUBROUTINE(address=0x0320)
  2: 0x0005 [0x46] CAMERA_CONTROL: Disable user control
  3: 0x0007 [0x38] SET_CLIENT_EVENT_MODE(mode=19*)
  4: 0x000A [0x4E] SET_ENTITY_HIDE_FLAG: Show LocalPlayer
  5: 0x0010 [0x80] LOAD_WAIT(entity=LocalPlayer)
  6: 0x0015 [0x27] REQ_SET(priority=0x10, entity_id=Lion (ID: 17506813/0x010B21FD), tag_num=0x04)
  7: 0x001C [0x80] LOAD_WAIT(entity=Lion (ID: 17506813/0x010B21FD))
  8: 0x0021 [0x5C] MUSIC_CONTROL: Set Idle (Day) music to song 153*
  9: 0x0025 [0x5C] MUSIC_CONTROL: Set Idle (Night) music to song 153*
 10: 0x0029 [0x5C] MUSIC_CONTROL: Set Combat (Solo) music to song 153*
 11: 0x002D [0x5C] MUSIC_CONTROL: Set Combat (Party) music to song 153*
 12: 0x0031 [0x9A] WAIT_MUSIC_SERVER()
 13: 0x0032 [0x27] REQ_SET(priority=0x10, entity_id=LocalPlayer, tag_num=0x16)
 14: 0x0039 [0x27] REQ_SET(priority=0x10, entity_id=Lion (ID: 17506813/0x010B21FD), tag_num=0x09)
 15: 0x0040 [0x92] Lion (ID: 17506813/0x010B21FD)->Render.Flags3 ^= 0x01
 16: 0x0046 [0x94] Lion (ID: 17506813/0x010B21FD)->Render.Flags3 ^= 0x01
 17: 0x004C [0x48] [System] [7330*]:
    → "You are the great bane--the nightmare that will devour the fair land of Vana'diel and thrust the world into fear and despair."
 18: 0x004F [0x23] WAIT_FOR_DIALOG_INTERACTION
 19: 0x0050 [0x48] [System] [7331*]:
    → "But as one bright star shines through the clouds at night..."
 20: 0x0053 [0x23] WAIT_FOR_DIALOG_INTERACTION
 21: 0x0054 [0x48] [System] [7332*]:
    → "And as one song rings clear above the roar of beasts..."
 22: 0x0057 [0x23] WAIT_FOR_DIALOG_INTERACTION
 23: 0x0058 [0x48] [System] [7333*]:
    → "We hold to one hope in these darkest of times."
 24: 0x005B [0x23] WAIT_FOR_DIALOG_INTERACTION
 25: 0x005C [0x48] [System] [7334*]:
    → "The darkness must be vanquished. The bane must be purified."
 26: 0x005F [0x23] WAIT_FOR_DIALOG_INTERACTION
 27: 0x0060 [0x48] [System] [7335*]:
    → "No matter the consequences."
 28: 0x0063 [0x23] WAIT_FOR_DIALOG_INTERACTION
 29: 0x0064 [0x48] [System] [7336*]:
    → "That they will come, with the wisdom of ages and the strength of thousands, to deliver us from our plight."
 30: 0x0067 [0x23] WAIT_FOR_DIALOG_INTERACTION
 31: 0x0068 [0x48] [System] [7337*]:
    → "We await the awakening of the Warriors of the Crystal."
 32: 0x006B [0x23] WAIT_FOR_DIALOG_INTERACTION
 33: 0x006C [0x48] [System] [7347*]:
    → "@@"
 34: 0x006F [0x23] WAIT_FOR_DIALOG_INTERACTION
 35: 0x0070 [0x27] REQ_SET(priority=0x10, entity_id=LocalPlayer, tag_num=0x17)
 36: 0x0077 [0x45] LOAD_SCHEDULED_TASK: Load scheduler "se80" with entities [LocalPlayer, LocalPlayer], work=[231*, 0*]
 37: 0x0088 [0x1A] CALL_SUBROUTINE(address=0x0341)
 38: 0x008B [0x2A] GET_REQ_LEVEL(level=16, entity_id=LocalPlayer)
 39: 0x0091 [0x55] WAIT_LOAD_SCHEDULER: Wait for scheduler "se80" with entities [LocalPlayer, LocalPlayer], work=231*
 40: 0x00A0 [0x2B] Lion (ID: 17506813/0x010B21FD) [7338*]:
    → "So you've made it this far, <Player>."
 41: 0x00A7 [0x23] WAIT_FOR_DIALOG_INTERACTION
 42: 0x00A8 [0x5D] SET_MUSIC_VOLUME(volume=0*, fade_time=270*)
 43: 0x00AD [0x45] LOAD_SCHEDULED_TASK: Load scheduler "se81" with entities [LocalPlayer, LocalPlayer], work=[231*, 0*]
 44: 0x00BE [0x4A] LocalPlayer looks at Lion (ID: 17506813/0x010B21FD)
 45: 0x00C7 [0x29] REQ_SET_WAIT(priority=0x10, entity_id=Lion (ID: 17506813/0x010B21FD), tag_num=0x0A)
 46: 0x00CE [0x55] WAIT_LOAD_SCHEDULER: Wait for scheduler "se81" with entities [LocalPlayer, LocalPlayer], work=231*
 47: 0x00DD [0x1A] CALL_SUBROUTINE(address=0x0362)
 48: 0x00E0 [0x1C] WAIT(15* ticks)
 49: 0x00E3 [0x79] Lion (ID: 17506813/0x010B21FD) looks at LocalPlayer (Basic look)
 50: 0x00ED [0x27] REQ_SET(priority=0x10, entity_id=Lion (ID: 17506813/0x010B21FD), tag_num=0x0B)
 51: 0x00F4 [0x45] LOAD_SCHEDULED_TASK: Load scheduler "se83" with entities [LocalPlayer, LocalPlayer], work=[231*, 0*]
 52: 0x0105 [0x1A] CALL_SUBROUTINE(address=0x0341)
 53: 0x0108 [0x2A] GET_REQ_LEVEL(level=16, entity_id=Lion (ID: 17506813/0x010B21FD))
 54: 0x010E [0x5B] LOAD_EXT_SCHEDULER: Load scheduler "tl40" with entities [Lion (ID: 17506813/0x010B21FD), Lion (ID: 17506813/0x010B21FD)], work=538*
 55: 0x011D [0x2B] Lion (ID: 17506813/0x010B21FD) [7339*]:
    → "Wait, don't tell me that I shouldn't be here."
 56: 0x0124 [0x23] WAIT_FOR_DIALOG_INTERACTION
 57: 0x0125 [0x2B] Lion (ID: 17506813/0x010B21FD) [7340*]:
    → "I know my father forbade me from coming, but I can't just sit back and watch Eald'narche wreak havoc on our Vana'diel. I'm ready to fight to the finish!"
 58: 0x012C [0x23] WAIT_FOR_DIALOG_INTERACTION
 59: 0x012D [0x5B] LOAD_EXT_SCHEDULER: Load scheduler "tl41" with entities [Lion (ID: 17506813/0x010B21FD), Lion (ID: 17506813/0x010B21FD)], work=538*
 60: 0x013C [0x53] WAIT_SCHEDULER_TASK: Wait for scheduler "tl41" with entities [Lion (ID: 17506813/0x010B21FD), Lion (ID: 17506813/0x010B21FD)]
 61: 0x0149 [0x1C] WAIT(15* ticks)
 62: 0x014C [0x27] REQ_SET(priority=0x10, entity_id=Lion (ID: 17506813/0x010B21FD), tag_num=0x0C)
 63: 0x0153 [0x52] END_LOAD_SCHEDULER: End scheduler "se83" with entities [LocalPlayer, LocalPlayer], work=231*
 64: 0x0162 [0x45] LOAD_SCHEDULED_TASK: Load scheduler "se84" with entities [LocalPlayer, LocalPlayer], work=[231*, 0*]
 65: 0x0173 [0x5C] MUSIC_CONTROL: Set Idle (Day) music to song 199*
 66: 0x0177 [0x5C] MUSIC_CONTROL: Set Idle (Night) music to song 199*
 67: 0x017B [0x5C] MUSIC_CONTROL: Set Combat (Solo) music to song 199*
 68: 0x017F [0x5C] MUSIC_CONTROL: Set Combat (Party) music to song 199*
 69: 0x0183 [0x9A] WAIT_MUSIC_SERVER()
 70: 0x0184 [0x1C] WAIT(30* ticks)
 71: 0x0187 [0x4A] LocalPlayer looks at Lion (ID: 17506813/0x010B21FD)
 72: 0x0190 [0x2A] GET_REQ_LEVEL(level=16, entity_id=Lion (ID: 17506813/0x010B21FD))
 73: 0x0196 [0x2B] Lion (ID: 17506813/0x010B21FD) [7341*]:
    → "When I first met you, you were just another little fish in a big pond of adventurers."
 74: 0x019D [0x23] WAIT_FOR_DIALOG_INTERACTION
 75: 0x019E [0x5B] LOAD_EXT_SCHEDULER: Load scheduler "tk20" with entities [Lion (ID: 17506813/0x010B21FD), Lion (ID: 17506813/0x010B21FD)], work=538*
 76: 0x01AD [0x1C] WAIT(15* ticks)
 77: 0x01B0 [0x52] END_LOAD_SCHEDULER: End scheduler "se84" with entities [LocalPlayer, LocalPlayer], work=231*
 78: 0x01BF [0x45] LOAD_SCHEDULED_TASK: Load scheduler "se86" with entities [LocalPlayer, LocalPlayer], work=[231*, 0*]
 79: 0x01D0 [0x2B] Lion (ID: 17506813/0x010B21FD) [7342*]:
    → "But now, look at you. You're putting your life on the line for the fate of all those on Vana'diel..."
 80: 0x01D7 [0x23] WAIT_FOR_DIALOG_INTERACTION
 81: 0x01D8 [0x2B] Lion (ID: 17506813/0x010B21FD) [7343*]:
    → "Even though no one will know you did."
 82: 0x01DF [0x23] WAIT_FOR_DIALOG_INTERACTION
 83: 0x01E0 [0x1C] WAIT(120* ticks)
 84: 0x01E3 [0x5B] LOAD_EXT_SCHEDULER: Load scheduler "tk21" with entities [Lion (ID: 17506813/0x010B21FD), Lion (ID: 17506813/0x010B21FD)], work=538*
 85: 0x01F2 [0x52] END_LOAD_SCHEDULER: End scheduler "se86" with entities [LocalPlayer, LocalPlayer], work=231*
 86: 0x0201 [0x45] LOAD_SCHEDULED_TASK: Load scheduler "se85" with entities [LocalPlayer, LocalPlayer], work=[231*, 0*]
 87: 0x0212 [0x53] WAIT_SCHEDULER_TASK: Wait for scheduler "tk21" with entities [Lion (ID: 17506813/0x010B21FD), Lion (ID: 17506813/0x010B21FD)]
 88: 0x021F [0x4A] Lion (ID: 17506813/0x010B21FD) looks at LocalPlayer
 89: 0x0228 [0x6F] WAIT_FRAME_DELAY: Yield until WaitTime reaches zero
 90: 0x0229 [0x76] CHECK_ENTITY_RENDER_FLAGS: Wait until Lion (ID: 17506813/0x010B21FD) Render.Flags0 and Render.Flags3 conditions are met
 91: 0x022E [0x5B] LOAD_EXT_SCHEDULER: Load scheduler "tlc2" with entities [Lion (ID: 17506813/0x010B21FD), Lion (ID: 17506813/0x010B21FD)], work=96*
 92: 0x023D [0x2B] Lion (ID: 17506813/0x010B21FD) [7344*]:
    → "You know... When this is all over, how about we hop on a ferry and sail around the world, [just the two of us?/just us two girls?]"
 93: 0x0244 [0x23] WAIT_FOR_DIALOG_INTERACTION
 94: 0x0245 [0x53] WAIT_SCHEDULER_TASK: Wait for scheduler "tlc2" with entities [Lion (ID: 17506813/0x010B21FD), Lion (ID: 17506813/0x010B21FD)]
 95: 0x0252 [0x1C] WAIT(45* ticks)
 96: 0x0255 [0x5B] LOAD_EXT_SCHEDULER: Load scheduler "tlb2" with entities [Lion (ID: 17506813/0x010B21FD), Lion (ID: 17506813/0x010B21FD)], work=96*
 97: 0x0264 [0x2B] Lion (ID: 17506813/0x010B21FD) [7345*]:
    → "Ha ha. [It doesn't look like you were ready for that. Well, just think about it, okay?/Well, just think about it, okay?]"
 98: 0x026B [0x23] WAIT_FOR_DIALOG_INTERACTION
 99: 0x026C [0x53] WAIT_SCHEDULER_TASK: Wait for scheduler "tlb2" with entities [Lion (ID: 17506813/0x010B21FD), Lion (ID: 17506813/0x010B21FD)]
100: 0x0279 [0x1C] WAIT(15* ticks)
101: 0x027C [0x2B] Lion (ID: 17506813/0x010B21FD) [7346*]:
    → "I've got to go now. Don't forget what I said, <Player>..."
102: 0x0283 [0x23] WAIT_FOR_DIALOG_INTERACTION
103: 0x0284 [0x5D] SET_MUSIC_VOLUME(volume=0*, fade_time=90*)
104: 0x0289 [0x7B] Lion (ID: 17506813/0x010B21FD) stops talking
105: 0x028E [0x52] END_LOAD_SCHEDULER: End scheduler "se85" with entities [LocalPlayer, LocalPlayer], work=231*
106: 0x029D [0x45] LOAD_SCHEDULED_TASK: Load scheduler "se87" with entities [LocalPlayer, LocalPlayer], work=[231*, 0*]
107: 0x02AE [0x27] REQ_SET(priority=0x10, entity_id=Lion (ID: 17506813/0x010B21FD), tag_num=0x0D)
108: 0x02B5 [0x1C] WAIT(45* ticks)
109: 0x02B8 [0x4A] LocalPlayer looks at Lion (ID: 17506813/0x010B21FD)
110: 0x02C1 [0x2A] GET_REQ_LEVEL(level=16, entity_id=Lion (ID: 17506813/0x010B21FD))
111: 0x02C7 [0x1A] CALL_SUBROUTINE(address=0x0362)
112: 0x02CA [0x55] WAIT_LOAD_SCHEDULER: Wait for scheduler "se87" with entities [LocalPlayer, LocalPlayer], work=231*
113: 0x02D9 [0x5C] MUSIC_CONTROL: Set Idle (Day) music to song 207*
114: 0x02DD [0x5C] MUSIC_CONTROL: Set Idle (Night) music to song 207*
115: 0x02E1 [0x5C] MUSIC_CONTROL: Set Combat (Solo) music to song 115*
116: 0x02E5 [0x5C] MUSIC_CONTROL: Set Combat (Party) music to song 192*
117: 0x02E9 [0x9A] WAIT_MUSIC_SERVER()
118: 0x02EA [0x46] CAMERA_CONTROL: Restore default settings
119: 0x02EC [0x45] LOAD_SCHEDULED_TASK: Load scheduler "fdi2" with entities [LocalPlayer, LocalPlayer], work=[200*, 0*]
120: 0x02FD [0x21] END_EVENT
121: 0x02FE [0x00] END_REQSTACK()

SUBROUTINE_0320:
122: 0x0320 [0x45] LOAD_SCHEDULED_TASK: Load scheduler "fdo0" with entities [LocalPlayer, LocalPlayer], work=[200*, 0*]
123: 0x0331 [0x55] WAIT_LOAD_SCHEDULER: Wait for scheduler "fdo0" with entities [LocalPlayer, LocalPlayer], work=200*
124: 0x0340 [0x1B] RETURN

SUBROUTINE_0341:
125: 0x0341 [0x45] LOAD_SCHEDULED_TASK: Load scheduler "fdi1" with entities [LocalPlayer, LocalPlayer], work=[200*, 0*]
126: 0x0352 [0x55] WAIT_LOAD_SCHEDULER: Wait for scheduler "fdi1" with entities [LocalPlayer, LocalPlayer], work=200*
127: 0x0361 [0x1B] RETURN

SUBROUTINE_0362:
128: 0x0362 [0x45] LOAD_SCHEDULED_TASK: Load scheduler "fdo1" with entities [LocalPlayer, LocalPlayer], work=[200*, 0*]
129: 0x0373 [0x55] WAIT_LOAD_SCHEDULER: Wait for scheduler "fdo1" with entities [LocalPlayer, LocalPlayer], work=200*
130: 0x0382 [0x1B] RETURN
```

#### Data or dead code:

```
# Dead code (unreachable instructions):
     0x02FF [0x45] LOAD_SCHEDULED_TASK: Load scheduler "fdi0" with entities [LocalPlayer, LocalPlayer], work=[200*, 0*]
     0x0310 [0x55] WAIT_LOAD_SCHEDULER: Wait for scheduler "fdi0" with entities [LocalPlayer, LocalPlayer], work=200*
     0x031F [0x1B] RETURN
# Dead code (unreachable instructions):
     0x0383 [0x45] LOAD_SCHEDULED_TASK: Load scheduler "whi1" with entities [LocalPlayer, LocalPlayer], work=[201*, 0*]
     0x0394 [0x55] WAIT_LOAD_SCHEDULER: Wait for scheduler "whi1" with entities [LocalPlayer, LocalPlayer], work=201*
     0x03A3 [0x1B] RETURN
     0x03A4 [0x45] LOAD_SCHEDULED_TASK: Load scheduler "who1" with entities [LocalPlayer, LocalPlayer], work=[201*, 0*]
     0x03B5 [0x55] WAIT_LOAD_SCHEDULER: Wait for scheduler "who1" with entities [LocalPlayer, LocalPlayer], work=201*
     0x03C4 [0x1B] RETURN
     0x03C5 [0x45] LOAD_SCHEDULED_TASK: Load scheduler "who2" with entities [LocalPlayer, LocalPlayer], work=[201*, 0*]
     0x03D6 [0x55] WAIT_LOAD_SCHEDULER: Wait for scheduler "who2" with entities [LocalPlayer, LocalPlayer], work=201*
     0x03E5 [0x1B] RETURN
     0x03E6 [0x45] LOAD_SCHEDULED_TASK: Load scheduler "who3" with entities [LocalPlayer, LocalPlayer], work=[201*, 0*]
     0x03F7 [0x55] WAIT_LOAD_SCHEDULER: Wait for scheduler "who3" with entities [LocalPlayer, LocalPlayer], work=201*
     0x0406 [0x1B] RETURN
     0x0407 [0x62] LOAD_EVENT_SCHEDULER: Load scheduler "main" with entities [LocalPlayer, LocalPlayer], work=[1*, 0*]
     0x0418 [0x1C] WAIT(45* ticks)
     0x041B [0x45] LOAD_SCHEDULED_TASK: Load scheduler "fdo1" with entities [LocalPlayer, LocalPlayer], work=[200*, 0*]
     0x042C [0x55] WAIT_LOAD_SCHEDULER: Wait for scheduler "fdo1" with entities [LocalPlayer, LocalPlayer], work=200*
     0x043B [0x1B] RETURN
     0x043C [0x45] LOAD_SCHEDULED_TASK: Load scheduler "fdi1" with entities [LocalPlayer, LocalPlayer], work=[200*, 0*]
     0x044D [0x62] LOAD_EVENT_SCHEDULER: Load scheduler "main" with entities [LocalPlayer, LocalPlayer], work=[2*, 0*]
     0x045E [0x1C] WAIT(30* ticks)
     0x0461 [0x55] WAIT_LOAD_SCHEDULER: Wait for scheduler "fdi1" with entities [LocalPlayer, LocalPlayer], work=200*
     0x0470 [0x1B] RETURN
     0x0471 [0x45] LOAD_SCHEDULED_TASK: Load scheduler "blon" with entities [LocalPlayer, LocalPlayer], work=[200*, 0*]
     0x0482 [0x45] LOAD_SCHEDULED_TASK: Load scheduler "blon" with entities [LocalPlayer, LocalPlayer], work=[201*, 0*]
     0x0493 [0x1B] RETURN
     0x0494 [0x45] LOAD_SCHEDULED_TASK: Load scheduler "whi0" with entities [LocalPlayer, LocalPlayer], work=[201*, 0*]
     0x04A5 [0x55] WAIT_LOAD_SCHEDULER: Wait for scheduler "whi0" with entities [LocalPlayer, LocalPlayer], work=201*
     0x04B4 [0x1B] RETURN
     0x04B5 [0x45] LOAD_SCHEDULED_TASK: Load scheduler "who0" with entities [LocalPlayer, LocalPlayer], work=[201*, 0*]
     0x04C6 [0x55] WAIT_LOAD_SCHEDULER: Wait for scheduler "who0" with entities [LocalPlayer, LocalPlayer], work=201*
     0x04D5 [0x1B] RETURN
     0x04D6 [0x45] LOAD_SCHEDULED_TASK: Load scheduler "efon" with entities [LocalPlayer, LocalPlayer], work=[215*, 0*]
     0x04E7 [0x55] WAIT_LOAD_SCHEDULER: Wait for scheduler "efon" with entities [LocalPlayer, LocalPlayer], work=215*
     0x04F6 [0x1B] RETURN
     0x04F7 [0x45] LOAD_SCHEDULED_TASK: Load scheduler "fdis" with entities [LocalPlayer, LocalPlayer], work=[200*, 0*]
     0x0508 [0x1B] RETURN
     0x0509 [0x45] LOAD_SCHEDULED_TASK: Load scheduler "fdos" with entities [LocalPlayer, LocalPlayer], work=[200*, 0*]
     0x051A [0x55] WAIT_LOAD_SCHEDULER: Wait for scheduler "fdos" with entities [LocalPlayer, LocalPlayer], work=200*
     0x0529 [0x1B] RETURN
     0x052A [0x45] LOAD_SCHEDULED_TASK: Load scheduler "fdif" with entities [LocalPlayer, LocalPlayer], work=[200*, 0*]
     0x053B [0x1B] RETURN
     0x053C [0x45] LOAD_SCHEDULED_TASK: Load scheduler "fdof" with entities [LocalPlayer, LocalPlayer], work=[200*, 0*]
     0x054D [0x55] WAIT_LOAD_SCHEDULER: Wait for scheduler "fdof" with entities [LocalPlayer, LocalPlayer], work=200*
     0x055C [0x1B] RETURN
     0x055D [0x45] LOAD_SCHEDULED_TASK: Load scheduler "fdip" with entities [LocalPlayer, LocalPlayer], work=[200*, 0*]
     0x056E [0x1B] RETURN
     0x056F [0x45] LOAD_SCHEDULED_TASK: Load scheduler "fdop" with entities [LocalPlayer, LocalPlayer], work=[200*, 0*]
     0x0580 [0x55] WAIT_LOAD_SCHEDULER: Wait for scheduler "fdop" with entities [LocalPlayer, LocalPlayer], work=200*
     0x058F [0x1B] RETURN
```
