# 17506693

## Common Data

| Field            | Value                             |
|------------------|-----------------------------------|
| Zone             | The Shrine of Ru'Avitau (ID: 178) |
| Block Size       | 108 bytes                         |
| Total Events     | 3                                 |
| References Count | 9                                 |

## List of Events

| Event ID              | Entrypoint   |   Size |   Instructions |
|-----------------------|--------------|--------|----------------|
| [65535](#event-65535) | 0x0000       |      1 |              1 |
| [100](#event-100)     | 0x0001       |     22 |             12 |
| [101](#event-101)     | 0x0017       |     18 |             10 |

## DAT References (imed_data)

|   Index | Hex Value   |   Dec Value |
|---------|-------------|-------------|
|       0 | 0x1CBD      |        7357 |
|       1 | 0x1CBE      |        7358 |
|       2 | 0x1CBF      |        7359 |
|       3 | 0x1CC0      |        7360 |
|       4 | 0x1CC1      |        7361 |
|       5 | 0x1CC2      |        7362 |
|       6 | 0x1CC3      |        7363 |
|       7 | 0x1CC4      |        7364 |
|       8 | 0x1CC5      |        7365 |

## String References

- **7357**: Four strange insignia have been etched into the wall, each pointing to one of the cardinal directions.
- **7358**: You sense a presence looming above you...
- **7359**: A soft voice echoes throughout the hall.
- **7360**: "You are not yet ready for the trial that awaits you..."
- **7361**: "Return when you can show proof of your worth..."
- **7362**: A soft voice echoes throughout the hall.
- **7363**: "You..."
- **7364**: "You, who have proven your worth in body and spirit..."
- **7365**: "You, who have demonstrated that worth through your offering..."

## Events

### Event 65535

#### Metadata

| Field        | Value   |
|--------------|---------|
| Entrypoint   | 0x0000  |
| Data Size    | 1 bytes |
| Instructions | 1       |

```
      00 01 02 03 04 05 06 07  08 09 0A 0B 0C 0D 0E 0F
      -- -- -- -- -- -- -- --  -- -- -- -- -- -- -- --
0000: 00                                                .               
```

#### Opcodes

```
  0: 0x0000 [0x00] END_REQSTACK()
```

### Event 100

#### Metadata

| Field        | Value    |
|--------------|----------|
| Entrypoint   | 0x0001   |
| Data Size    | 22 bytes |
| Instructions | 12       |

```
      00 01 02 03 04 05 06 07  08 09 0A 0B 0C 0D 0E 0F
      -- -- -- -- -- -- -- --  -- -- -- -- -- -- -- --
0000:    48 00 80 23 48 01 80  23 48 02 80 23 1D 03 80   H..#H..#H..#...
0010: 23 1D 04 80 23 21 00                              #...#!.         
```

#### Opcodes

```
  0: 0x0001 [0x48] [System] [7357*]:
    → "Four strange insignia have been etched into the wall, each pointing to one of the cardinal directions."
  1: 0x0004 [0x23] WAIT_FOR_DIALOG_INTERACTION
  2: 0x0005 [0x48] [System] [7358*]:
    → "You sense a presence looming above you..."
  3: 0x0008 [0x23] WAIT_FOR_DIALOG_INTERACTION
  4: 0x0009 [0x48] [System] [7359*]:
    → "A soft voice echoes throughout the hall."
  5: 0x000C [0x23] WAIT_FOR_DIALOG_INTERACTION
  6: 0x000D [0x1D] PRINT_EVENT_MESSAGE(message_id=7360*)
    → ""You are not yet ready for the trial that awaits you...""
  7: 0x0010 [0x23] WAIT_FOR_DIALOG_INTERACTION
  8: 0x0011 [0x1D] PRINT_EVENT_MESSAGE(message_id=7361*)
    → ""Return when you can show proof of your worth...""
  9: 0x0014 [0x23] WAIT_FOR_DIALOG_INTERACTION
 10: 0x0015 [0x21] END_EVENT
 11: 0x0016 [0x00] END_REQSTACK()
```

### Event 101

#### Metadata

| Field        | Value    |
|--------------|----------|
| Entrypoint   | 0x0017   |
| Data Size    | 18 bytes |
| Instructions | 10       |

```
      00 01 02 03 04 05 06 07  08 09 0A 0B 0C 0D 0E 0F
      -- -- -- -- -- -- -- --  -- -- -- -- -- -- -- --
0010:                      48  05 80 23 1D 06 80 23 1D         H..#...#.
0020: 07 80 23 1D 08 80 23 21  00                       ..#...#!.       
```

#### Opcodes

```
  0: 0x0017 [0x48] [System] [7362*]:
    → "A soft voice echoes throughout the hall."
  1: 0x001A [0x23] WAIT_FOR_DIALOG_INTERACTION
  2: 0x001B [0x1D] PRINT_EVENT_MESSAGE(message_id=7363*)
    → ""You...""
  3: 0x001E [0x23] WAIT_FOR_DIALOG_INTERACTION
  4: 0x001F [0x1D] PRINT_EVENT_MESSAGE(message_id=7364*)
    → ""You, who have proven your worth in body and spirit...""
  5: 0x0022 [0x23] WAIT_FOR_DIALOG_INTERACTION
  6: 0x0023 [0x1D] PRINT_EVENT_MESSAGE(message_id=7365*)
    → ""You, who have demonstrated that worth through your offering...""
  7: 0x0026 [0x23] WAIT_FOR_DIALOG_INTERACTION
  8: 0x0027 [0x21] END_EVENT
  9: 0x0028 [0x00] END_REQSTACK()
```
