# 0x7FFFFFF0 - Zone Events

## Common Data

| Field            | Value                             |
|------------------|-----------------------------------|
| Zone             | The Shrine of Ru'Avitau (ID: 178) |
| Block Size       | 3464 bytes                        |
| Total Events     | 27                                |
| References Count | 159                               |

## List of Events

| Event ID                 | Entrypoint   |   Size |   Instructions |
|--------------------------|--------------|--------|----------------|
| [65535](#event-65535)    | 0x0000       |      1 |              1 |
| [65534](#event-65534)    | 0x0001       |      1 |              1 |
| [0](#event-0)            | 0x0002       |    103 |             21 |
| [1](#event-1)            | 0x0069       |    165 |             32 |
| [2](#event-2)            | 0x010E       |    103 |             21 |
| [3](#event-3)            | 0x0175       |    103 |             21 |
| [4](#event-4)            | 0x01DC       |    103 |             21 |
| [5](#event-5)            | 0x0243       |    103 |             21 |
| [6](#event-6)            | 0x02AA       |    165 |             32 |
| [7](#event-7)            | 0x034F       |    103 |             21 |
| [8](#event-8)            | 0x03B6       |    326 |             60 |
| [9](#event-9)            | 0x04FC       |    103 |             21 |
| [10](#event-10)          | 0x0563       |    103 |             21 |
| [11](#event-11)          | 0x05CA       |    326 |             60 |
| [12](#event-12)          | 0x0710       |    103 |             21 |
| [13](#event-13)          | 0x0777       |    103 |             21 |
| [14](#event-14)          | 0x07DE       |    103 |             21 |
| [15](#event-15)          | 0x0845       |    103 |             21 |
| [16](#event-16)          | 0x08AC       |    103 |             21 |
| [17](#event-17)          | 0x0913       |    103 |             21 |
| [18](#event-18)          | 0x097A       |    103 |             21 |
| [19](#event-19)          | 0x09E1       |    103 |             21 |
| [65535.1](#event-655351) | 0x0A48       |     10 |              2 |
| [65535.2](#event-655352) | 0x0A52       |     15 |              5 |
| [65535.3](#event-655353) | 0x0A61       |     10 |              2 |
| [65535.4](#event-655354) | 0x0A6B       |     25 |              4 |
| [65535.5](#event-655355) | 0x0A84       |     10 |              2 |

## DAT References (imed_data)

|   Index | Hex Value   |   Dec Value |
|---------|-------------|-------------|
|       0 | 0x1C9F      |        7327 |
|       1 | 0x0001      |           1 |
|       2 | 0x0000      |           0 |
|       3 | 0x00B4      |         180 |
|       4 | 0xFFFE3A4C  |  4294851148 |
|       5 | 0x1F42      |        8002 |
|       6 | 0x7E40      |       32320 |
|       7 | 0x0FFC      |        4092 |
|       8 | 0x0002      |           2 |
|       9 | 0xAFC98     |      720024 |
|      10 | 0x9C3FE     |      639998 |
|      11 | 0x188DE     |      100574 |
|      12 | 0x0154      |         340 |
|      13 | 0xC34AD     |      799917 |
|      14 | 0x9C517     |      640279 |
|      15 | 0x0393      |         915 |
|      16 | 0xD6D11     |      879889 |
|      17 | 0x9C48E     |      640142 |
|      18 | 0x028A      |         650 |
|      19 | 0x11A1D     |       72221 |
|      20 | 0xAA6A      |       43626 |
|      21 | 0xFFFFC2D1  |  4294951633 |
|      22 | 0x0A4A      |        2634 |
|      23 | 0xFFFFC3BF  |  4294951871 |
|      24 | 0x0F80      |        3968 |
|      25 | 0xAFBFE     |      719870 |
|      26 | 0x88A13     |      559635 |
|      27 | 0x0DB5      |        3509 |
|      28 | 0xC34F2     |      799986 |
|      29 | 0x88D1D     |      560413 |
|      30 | 0x0498      |        1176 |
|      31 | 0xD6CA3     |      879779 |
|      32 | 0x88B0B     |      559883 |
|      33 | 0x0DEC      |        3564 |
|      34 | 0xFFFEE61B  |  4294895131 |
|      35 | 0xFFFF55EE  |  4294923758 |
|      36 | 0xFFFFC2CD  |  4294951629 |
|      37 | 0x02B8      |         696 |
|      38 | 0x0009      |           9 |
|      39 | 0xCA9FE     |      829950 |
|      40 | 0x1B598     |      112024 |
|      41 | 0x0070      |         112 |
|      42 | 0x03AA      |         938 |
|      43 | 0xC5C15     |      810005 |
|      44 | 0x1B50B     |      111883 |
|      45 | 0x0076      |         118 |
|      46 | 0x04DC      |        1244 |
|      47 | 0xC0E06     |      790022 |
|      48 | 0x1B55C     |      111964 |
|      49 | 0x0073      |         115 |
|      50 | 0x03A9      |         937 |
|      51 | 0x0003      |           3 |
|      52 | 0xBBFAF     |      769967 |
|      53 | 0x1B58B     |      112011 |
|      54 | 0x0071      |         113 |
|      55 | 0x0427      |        1063 |
|      56 | 0x0004      |           4 |
|      57 | 0xBC017     |      770071 |
|      58 | 0x118EC     |       71916 |
|      59 | 0x0074      |         116 |
|      60 | 0x0408      |        1032 |
|      61 | 0x0005      |           5 |
|      62 | 0xC0DF6     |      790006 |
|      63 | 0x11932     |       71986 |
|      64 | 0x0072      |         114 |
|      65 | 0x045B      |        1115 |
|      66 | 0x0006      |           6 |
|      67 | 0xBBF88     |      769928 |
|      68 | 0x1EE6      |        7910 |
|      69 | 0x006D      |         109 |
|      70 | 0x0BBD      |        3005 |
|      71 | 0x0007      |           7 |
|      72 | 0xC0DA1     |      789921 |
|      73 | 0x1F3E      |        7998 |
|      74 | 0x0C50      |        3152 |
|      75 | 0x0008      |           8 |
|      76 | 0xC5C0A     |      809994 |
|      77 | 0x1EFA      |        7930 |
|      78 | 0x006E      |         110 |
|      79 | 0x0C20      |        3104 |
|      80 | 0xCA9F6     |      829942 |
|      81 | 0x1F36      |        7990 |
|      82 | 0x0BC9      |        3017 |
|      83 | 0x1C63F     |      116287 |
|      84 | 0xFFFFE098  |  4294959256 |
|      85 | 0x7E3D      |       32317 |
|      86 | 0x08BE      |        2238 |
|      87 | 0xBBFFF     |      770047 |
|      88 | 0xFFFE4A24  |  4294855204 |
|      89 | 0x0BA4      |        2980 |
|      90 | 0xC0DD8     |      789976 |
|      91 | 0xFFFE4A7B  |  4294855291 |
|      92 | 0x0C9E      |        3230 |
|      93 | 0xC5C08     |      809992 |
|      94 | 0xFFFE4A65  |  4294855269 |
|      95 | 0x0C38      |        3128 |
|      96 | 0xCAA02     |      829954 |
|      97 | 0xFFFE4B0B  |  4294855435 |
|      98 | 0x0077      |         119 |
|      99 | 0x0CA9      |        3241 |
|     100 | 0xC5C57     |      810071 |
|     101 | 0xFFFEE740  |  4294895424 |
|     102 | 0x0C21      |        3105 |
|     103 | 0xCAA51     |      830033 |
|     104 | 0xFFFEE675  |  4294895221 |
|     105 | 0x0C43      |        3139 |
|     106 | 0xCAA22     |      829986 |
|     107 | 0xFFFFE093  |  4294959251 |
|     108 | 0x04B5      |        1205 |
|     109 | 0xC5C5D     |      810077 |
|     110 | 0xFFFFE07D  |  4294959229 |
|     111 | 0x0419      |        1049 |
|     112 | 0xC0E2A     |      790058 |
|     113 | 0xFFFFE08D  |  4294959245 |
|     114 | 0x04E6      |        1254 |
|     115 | 0xBBFA4     |      769956 |
|     116 | 0xFFFFE041  |  4294959169 |
|     117 | 0x0417      |        1047 |
|     118 | 0xFFFDDCDD  |  4294827229 |
|     119 | 0x4E24      |       20004 |
|     120 | 0x018E      |         398 |
|     121 | 0x0087      |         135 |
|     122 | 0xB4A76     |      739958 |
|     123 | 0xFFF5ED97  |  4294307223 |
|     124 | 0xFFFE7AEF  |  4294867695 |
|     125 | 0x0C73      |        3187 |
|     126 | 0xD1F59     |      859993 |
|     127 | 0xFFF5EDE8  |  4294307304 |
|     128 | 0x0C23      |        3107 |
|     129 | 0x22316     |      140054 |
|     130 | 0x4ED4      |       20180 |
|     131 | 0x0713      |        1811 |
|     132 | 0xFFFE9178  |  4294873464 |
|     133 | 0xFFFEF8B3  |  4294899891 |
|     134 | 0x004A      |          74 |
|     135 | 0x049A      |        1178 |
|     136 | 0x1A62F     |      108079 |
|     137 | 0xFFFF2FC9  |  4294913993 |
|     138 | 0x0057      |          87 |
|     139 | 0x0478      |        1144 |
|     140 | 0xFFFF63E2  |  4294927330 |
|     141 | 0xFFFD658F  |  4294796687 |
|     142 | 0xFFFFFF29  |  4294967081 |
|     143 | 0x0BEE      |        3054 |
|     144 | 0x000A      |          10 |
|     145 | 0xFFFF63EF  |  4294927343 |
|     146 | 0xFFFD743A  |  4294800442 |
|     147 | 0xFFFFFE72  |  4294966898 |
|     148 | 0xFFFF63C3  |  4294927299 |
|     149 | 0xFFFDB52C  |  4294817068 |
|     150 | 0xFFFFFD12  |  4294966546 |
|     151 | 0x0BED      |        3053 |
|     152 | 0xFFFFFDB3  |  4294966707 |
|     153 | 0xF7C7      |       63431 |
|     154 | 0xFFFF8D74  |  4294937972 |
|     155 | 0x0DED      |        3565 |
|     156 | 0xFFFF63E0  |  4294927328 |
|     157 | 0xFFFDAB33  |  4294814515 |
|     158 | 0x0BFE      |        3070 |

## String References

- **7327**: Use the portal? [Yes./No.]

## Events

### Event 65535

#### Metadata

| Field        | Value   |
|--------------|---------|
| Entrypoint   | 0x0000  |
| Data Size    | 1 bytes |
| Instructions | 1       |

```
      00 01 02 03 04 05 06 07  08 09 0A 0B 0C 0D 0E 0F
      -- -- -- -- -- -- -- --  -- -- -- -- -- -- -- --
0000: 00                                                .               
```

#### Opcodes

```
  0: 0x0000 [0x00] END_REQSTACK()
```

### Event 65534

#### Metadata

| Field        | Value   |
|--------------|---------|
| Entrypoint   | 0x0001  |
| Data Size    | 1 bytes |
| Instructions | 1       |

```
      00 01 02 03 04 05 06 07  08 09 0A 0B 0C 0D 0E 0F
      -- -- -- -- -- -- -- --  -- -- -- -- -- -- -- --
0000:    00                                              .              
```

#### Opcodes

```
  0: 0x0001 [0x00] END_REQSTACK()
```

### Event 0

#### Metadata

| Field        | Value     |
|--------------|-----------|
| Entrypoint   | 0x0002    |
| Data Size    | 103 bytes |
| Instructions | 21        |

```
      00 01 02 03 04 05 06 07  08 09 0A 0B 0C 0D 0E 0F
      -- -- -- -- -- -- -- --  -- -- -- -- -- -- -- --
0000:       24 00 80 01 80 02  80 25 02 00 10 02 80 00    $......%......
0010: 55 00 20 01 42 43 00 43  01 62 01 80 F8 FF FF 7F  U. .BC.C.b......
0020: F8 FF FF 7F 6D 61 69 6E  02 80 1C 03 80 47 00 04  ....main.....G..
0030: 80 05 80 06 80 07 80 47  01 62 08 80 F8 FF FF 7F  .......G.b......
0040: F8 FF FF 7F 6D 61 69 6E  02 80 1C 03 80 03 01 10  ....main........
0050: 01 80 01 65 00 02 00 10  01 80 00 65 00 03 01 10  ...e.......e....
0060: 01 80 01 65 00 20 00 21  00                       ...e. .!.       
```

#### Opcodes

```
  0: 0x0002 [0x24] CREATE_DIALOG(message_id=7327*, default_option=1*, option_flags=0*)
    → "Use the portal? [Yes./No.]"
  1: 0x0009 [0x25] WAIT_DIALOG_SELECT()
  2: 0x000A [0x02] IF !(Work_Zone[0] == 0*) GOTO 0x0055
  3: 0x0012 [0x20] SET_CLI_EVENT_UC_FLAG: Lock player control
  4: 0x0014 [0x42] SET_CLI_EVENT_CANCEL_DATA()
  5: 0x0015 [0x43] SEND_EVENT_UPDATE: Send pending tag to server (packet 0x005B)
  6: 0x0017 [0x43] SEND_EVENT_UPDATE: Check pending flag (skip if not pending)
  7: 0x0019 [0x62] LOAD_EVENT_SCHEDULER: Load scheduler "main" with entities [EventEntity, EventEntity], work=[1*, 0*]
  8: 0x002A [0x1C] WAIT(180* ticks)
  9: 0x002D [0x47] UPDATE_PLAYER_POS(-116.148*, 8.002*, 32.320*, yaw=359.6°*)
 10: 0x0037 [0x47] WAIT_PLAYER_POS_UPDATE
 11: 0x0039 [0x62] LOAD_EVENT_SCHEDULER: Load scheduler "main" with entities [EventEntity, EventEntity], work=[2*, 0*]
 12: 0x004A [0x1C] WAIT(180* ticks)
 13: 0x004D [0x03] Work_Zone[1] = 1*
 14: 0x0052 [0x01] GOTO 0x0065
 15: 0x0055 [0x02] IF !(Work_Zone[0] == 1*) GOTO 0x0065
 16: 0x005D [0x03] Work_Zone[1] = 1*
 17: 0x0062 [0x01] GOTO 0x0065

SUBROUTINE_0065:
 18: 0x0065 [0x20] SET_CLI_EVENT_UC_FLAG: Unlock player control
 19: 0x0067 [0x21] END_EVENT
 20: 0x0068 [0x00] END_REQSTACK()
```

### Event 1

#### Metadata

| Field        | Value     |
|--------------|-----------|
| Entrypoint   | 0x0069    |
| Data Size    | 165 bytes |
| Instructions | 32        |

```
      00 01 02 03 04 05 06 07  08 09 0A 0B 0C 0D 0E 0F
      -- -- -- -- -- -- -- --  -- -- -- -- -- -- -- --
0060:                             24 00 80 01 80 02 80           $......
0070: 25 02 00 10 02 80 00 FA  00 20 01 42 43 00 43 01  %........ .BC.C.
0080: 62 01 80 F8 FF FF 7F F8  FF FF 7F 6D 61 69 6E 02  b..........main.
0090: 80 1C 03 80 13 01 00 08  80 02 01 00 02 80 80 B0  ................
00A0: 00 47 00 09 80 0A 80 0B  80 0C 80 47 01 01 DE 00  .G.........G....
00B0: 02 01 00 01 80 80 C7 00  47 00 0D 80 0E 80 0B 80  ........G.......
00C0: 0F 80 47 01 01 DE 00 02  01 00 08 80 80 DE 00 47  ..G............G
00D0: 00 10 80 11 80 0B 80 12  80 47 01 01 DE 00 62 08  .........G....b.
00E0: 80 F8 FF FF 7F F8 FF FF  7F 6D 61 69 6E 02 80 1C  .........main...
00F0: 03 80 03 01 10 01 80 01  0A 01 02 00 10 01 80 00  ................
0100: 0A 01 03 01 10 01 80 01  0A 01 20 00 21 00        .......... .!.  
```

#### Opcodes

```
  0: 0x0069 [0x24] CREATE_DIALOG(message_id=7327*, default_option=1*, option_flags=0*)
    → "Use the portal? [Yes./No.]"
  1: 0x0070 [0x25] WAIT_DIALOG_SELECT()
  2: 0x0071 [0x02] IF !(Work_Zone[0] == 0*) GOTO 0x00FA
  3: 0x0079 [0x20] SET_CLI_EVENT_UC_FLAG: Lock player control
  4: 0x007B [0x42] SET_CLI_EVENT_CANCEL_DATA()
  5: 0x007C [0x43] SEND_EVENT_UPDATE: Send pending tag to server (packet 0x005B)
  6: 0x007E [0x43] SEND_EVENT_UPDATE: Check pending flag (skip if not pending)
  7: 0x0080 [0x62] LOAD_EVENT_SCHEDULER: Load scheduler "main" with entities [EventEntity, EventEntity], work=[1*, 0*]
  8: 0x0091 [0x1C] WAIT(180* ticks)
  9: 0x0094 [0x13] ExtData[1]->WorkLocal[1] = rand() % 2*
 10: 0x0099 [0x02] IF !(ExtData[1]->WorkLocal[1] == 0*) GOTO 0x00B0
 11: 0x00A1 [0x47] UPDATE_PLAYER_POS(720.024*, 639.998*, 100.574*, yaw=29.9°*)
 12: 0x00AB [0x47] WAIT_PLAYER_POS_UPDATE
 13: 0x00AD [0x01] GOTO 0x00DE
 14: 0x00B0 [0x02] IF !(ExtData[1]->WorkLocal[1] == 1*) GOTO 0x00C7
 15: 0x00B8 [0x47] UPDATE_PLAYER_POS(799.917*, 640.279*, 100.574*, yaw=80.4°*)
 16: 0x00C2 [0x47] WAIT_PLAYER_POS_UPDATE
 17: 0x00C4 [0x01] GOTO 0x00DE
 18: 0x00C7 [0x02] IF !(ExtData[1]->WorkLocal[1] == 2*) GOTO 0x00DE
 19: 0x00CF [0x47] UPDATE_PLAYER_POS(879.889*, 640.142*, 100.574*, yaw=57.1°*)
 20: 0x00D9 [0x47] WAIT_PLAYER_POS_UPDATE
 21: 0x00DB [0x01] GOTO 0x00DE

SUBROUTINE_00DE:
 22: 0x00DE [0x62] LOAD_EVENT_SCHEDULER: Load scheduler "main" with entities [EventEntity, EventEntity], work=[2*, 0*]
 23: 0x00EF [0x1C] WAIT(180* ticks)
 24: 0x00F2 [0x03] Work_Zone[1] = 1*
 25: 0x00F7 [0x01] GOTO 0x010A
 26: 0x00FA [0x02] IF !(Work_Zone[0] == 1*) GOTO 0x010A
 27: 0x0102 [0x03] Work_Zone[1] = 1*
 28: 0x0107 [0x01] GOTO 0x010A

SUBROUTINE_010A:
 29: 0x010A [0x20] SET_CLI_EVENT_UC_FLAG: Unlock player control
 30: 0x010C [0x21] END_EVENT
 31: 0x010D [0x00] END_REQSTACK()
```

### Event 2

#### Metadata

| Field        | Value     |
|--------------|-----------|
| Entrypoint   | 0x010E    |
| Data Size    | 103 bytes |
| Instructions | 21        |

```
      00 01 02 03 04 05 06 07  08 09 0A 0B 0C 0D 0E 0F
      -- -- -- -- -- -- -- --  -- -- -- -- -- -- -- --
0100:                                            24 00                $.
0110: 80 01 80 02 80 25 02 00  10 02 80 00 61 01 20 01  .....%......a. .
0120: 42 43 00 43 01 62 01 80  F8 FF FF 7F F8 FF FF 7F  BC.C.b..........
0130: 6D 61 69 6E 02 80 1C 03  80 47 00 13 80 14 80 15  main.....G......
0140: 80 16 80 47 01 62 08 80  F8 FF FF 7F F8 FF FF 7F  ...G.b..........
0150: 6D 61 69 6E 02 80 1C 03  80 03 01 10 01 80 01 71  main...........q
0160: 01 02 00 10 01 80 00 71  01 03 01 10 01 80 01 71  .......q.......q
0170: 01 20 00 21 00                                    . .!.           
```

#### Opcodes

```
  0: 0x010E [0x24] CREATE_DIALOG(message_id=7327*, default_option=1*, option_flags=0*)
    → "Use the portal? [Yes./No.]"
  1: 0x0115 [0x25] WAIT_DIALOG_SELECT()
  2: 0x0116 [0x02] IF !(Work_Zone[0] == 0*) GOTO 0x0161
  3: 0x011E [0x20] SET_CLI_EVENT_UC_FLAG: Lock player control
  4: 0x0120 [0x42] SET_CLI_EVENT_CANCEL_DATA()
  5: 0x0121 [0x43] SEND_EVENT_UPDATE: Send pending tag to server (packet 0x005B)
  6: 0x0123 [0x43] SEND_EVENT_UPDATE: Check pending flag (skip if not pending)
  7: 0x0125 [0x62] LOAD_EVENT_SCHEDULER: Load scheduler "main" with entities [EventEntity, EventEntity], work=[1*, 0*]
  8: 0x0136 [0x1C] WAIT(180* ticks)
  9: 0x0139 [0x47] UPDATE_PLAYER_POS(72.221*, 43.626*, -15.663*, yaw=231.5°*)
 10: 0x0143 [0x47] WAIT_PLAYER_POS_UPDATE
 11: 0x0145 [0x62] LOAD_EVENT_SCHEDULER: Load scheduler "main" with entities [EventEntity, EventEntity], work=[2*, 0*]
 12: 0x0156 [0x1C] WAIT(180* ticks)
 13: 0x0159 [0x03] Work_Zone[1] = 1*
 14: 0x015E [0x01] GOTO 0x0171
 15: 0x0161 [0x02] IF !(Work_Zone[0] == 1*) GOTO 0x0171
 16: 0x0169 [0x03] Work_Zone[1] = 1*
 17: 0x016E [0x01] GOTO 0x0171

SUBROUTINE_0171:
 18: 0x0171 [0x20] SET_CLI_EVENT_UC_FLAG: Unlock player control
 19: 0x0173 [0x21] END_EVENT
 20: 0x0174 [0x00] END_REQSTACK()
```

### Event 3

#### Metadata

| Field        | Value     |
|--------------|-----------|
| Entrypoint   | 0x0175    |
| Data Size    | 103 bytes |
| Instructions | 21        |

```
      00 01 02 03 04 05 06 07  08 09 0A 0B 0C 0D 0E 0F
      -- -- -- -- -- -- -- --  -- -- -- -- -- -- -- --
0170:                24 00 80  01 80 02 80 25 02 00 10       $......%...
0180: 02 80 00 C8 01 20 01 42  43 00 43 01 62 01 80 F8  ..... .BC.C.b...
0190: FF FF 7F F8 FF FF 7F 6D  61 69 6E 02 80 1C 03 80  .......main.....
01A0: 47 00 02 80 02 80 17 80  18 80 47 01 62 08 80 F8  G.........G.b...
01B0: FF FF 7F F8 FF FF 7F 6D  61 69 6E 02 80 1C 03 80  .......main.....
01C0: 03 01 10 01 80 01 D8 01  02 00 10 01 80 00 D8 01  ................
01D0: 03 01 10 01 80 01 D8 01  20 00 21 00              ........ .!.    
```

#### Opcodes

```
  0: 0x0175 [0x24] CREATE_DIALOG(message_id=7327*, default_option=1*, option_flags=0*)
    → "Use the portal? [Yes./No.]"
  1: 0x017C [0x25] WAIT_DIALOG_SELECT()
  2: 0x017D [0x02] IF !(Work_Zone[0] == 0*) GOTO 0x01C8
  3: 0x0185 [0x20] SET_CLI_EVENT_UC_FLAG: Lock player control
  4: 0x0187 [0x42] SET_CLI_EVENT_CANCEL_DATA()
  5: 0x0188 [0x43] SEND_EVENT_UPDATE: Send pending tag to server (packet 0x005B)
  6: 0x018A [0x43] SEND_EVENT_UPDATE: Check pending flag (skip if not pending)
  7: 0x018C [0x62] LOAD_EVENT_SCHEDULER: Load scheduler "main" with entities [EventEntity, EventEntity], work=[1*, 0*]
  8: 0x019D [0x1C] WAIT(180* ticks)
  9: 0x01A0 [0x47] UPDATE_PLAYER_POS(0.000*, 0.000*, -15.425*, yaw=348.7°*)
 10: 0x01AA [0x47] WAIT_PLAYER_POS_UPDATE
 11: 0x01AC [0x62] LOAD_EVENT_SCHEDULER: Load scheduler "main" with entities [EventEntity, EventEntity], work=[2*, 0*]
 12: 0x01BD [0x1C] WAIT(180* ticks)
 13: 0x01C0 [0x03] Work_Zone[1] = 1*
 14: 0x01C5 [0x01] GOTO 0x01D8
 15: 0x01C8 [0x02] IF !(Work_Zone[0] == 1*) GOTO 0x01D8
 16: 0x01D0 [0x03] Work_Zone[1] = 1*
 17: 0x01D5 [0x01] GOTO 0x01D8

SUBROUTINE_01D8:
 18: 0x01D8 [0x20] SET_CLI_EVENT_UC_FLAG: Unlock player control
 19: 0x01DA [0x21] END_EVENT
 20: 0x01DB [0x00] END_REQSTACK()
```

### Event 4

#### Metadata

| Field        | Value     |
|--------------|-----------|
| Entrypoint   | 0x01DC    |
| Data Size    | 103 bytes |
| Instructions | 21        |

```
      00 01 02 03 04 05 06 07  08 09 0A 0B 0C 0D 0E 0F
      -- -- -- -- -- -- -- --  -- -- -- -- -- -- -- --
01D0:                                      24 00 80 01              $...
01E0: 80 02 80 25 02 00 10 02  80 00 2F 02 20 01 42 43  ...%....../. .BC
01F0: 00 43 01 62 01 80 F8 FF  FF 7F F8 FF FF 7F 6D 61  .C.b..........ma
0200: 69 6E 02 80 1C 03 80 47  00 13 80 14 80 15 80 16  in.....G........
0210: 80 47 01 62 08 80 F8 FF  FF 7F F8 FF FF 7F 6D 61  .G.b..........ma
0220: 69 6E 02 80 1C 03 80 03  01 10 01 80 01 3F 02 02  in...........?..
0230: 00 10 01 80 00 3F 02 03  01 10 01 80 01 3F 02 20  .....?.......?. 
0240: 00 21 00                                          .!.             
```

#### Opcodes

```
  0: 0x01DC [0x24] CREATE_DIALOG(message_id=7327*, default_option=1*, option_flags=0*)
    → "Use the portal? [Yes./No.]"
  1: 0x01E3 [0x25] WAIT_DIALOG_SELECT()
  2: 0x01E4 [0x02] IF !(Work_Zone[0] == 0*) GOTO 0x022F
  3: 0x01EC [0x20] SET_CLI_EVENT_UC_FLAG: Lock player control
  4: 0x01EE [0x42] SET_CLI_EVENT_CANCEL_DATA()
  5: 0x01EF [0x43] SEND_EVENT_UPDATE: Send pending tag to server (packet 0x005B)
  6: 0x01F1 [0x43] SEND_EVENT_UPDATE: Check pending flag (skip if not pending)
  7: 0x01F3 [0x62] LOAD_EVENT_SCHEDULER: Load scheduler "main" with entities [EventEntity, EventEntity], work=[1*, 0*]
  8: 0x0204 [0x1C] WAIT(180* ticks)
  9: 0x0207 [0x47] UPDATE_PLAYER_POS(72.221*, 43.626*, -15.663*, yaw=231.5°*)
 10: 0x0211 [0x47] WAIT_PLAYER_POS_UPDATE
 11: 0x0213 [0x62] LOAD_EVENT_SCHEDULER: Load scheduler "main" with entities [EventEntity, EventEntity], work=[2*, 0*]
 12: 0x0224 [0x1C] WAIT(180* ticks)
 13: 0x0227 [0x03] Work_Zone[1] = 1*
 14: 0x022C [0x01] GOTO 0x023F
 15: 0x022F [0x02] IF !(Work_Zone[0] == 1*) GOTO 0x023F
 16: 0x0237 [0x03] Work_Zone[1] = 1*
 17: 0x023C [0x01] GOTO 0x023F

SUBROUTINE_023F:
 18: 0x023F [0x20] SET_CLI_EVENT_UC_FLAG: Unlock player control
 19: 0x0241 [0x21] END_EVENT
 20: 0x0242 [0x00] END_REQSTACK()
```

### Event 5

#### Metadata

| Field        | Value     |
|--------------|-----------|
| Entrypoint   | 0x0243    |
| Data Size    | 103 bytes |
| Instructions | 21        |

```
      00 01 02 03 04 05 06 07  08 09 0A 0B 0C 0D 0E 0F
      -- -- -- -- -- -- -- --  -- -- -- -- -- -- -- --
0240:          24 00 80 01 80  02 80 25 02 00 10 02 80     $......%.....
0250: 00 96 02 20 01 42 43 00  43 01 62 01 80 F8 FF FF  ... .BC.C.b.....
0260: 7F F8 FF FF 7F 6D 61 69  6E 02 80 1C 03 80 47 00  .....main.....G.
0270: 04 80 05 80 06 80 07 80  47 01 62 08 80 F8 FF FF  ........G.b.....
0280: 7F F8 FF FF 7F 6D 61 69  6E 02 80 1C 03 80 03 01  .....main.......
0290: 10 01 80 01 A6 02 02 00  10 01 80 00 A6 02 03 01  ................
02A0: 10 01 80 01 A6 02 20 00  21 00                    ...... .!.      
```

#### Opcodes

```
  0: 0x0243 [0x24] CREATE_DIALOG(message_id=7327*, default_option=1*, option_flags=0*)
    → "Use the portal? [Yes./No.]"
  1: 0x024A [0x25] WAIT_DIALOG_SELECT()
  2: 0x024B [0x02] IF !(Work_Zone[0] == 0*) GOTO 0x0296
  3: 0x0253 [0x20] SET_CLI_EVENT_UC_FLAG: Lock player control
  4: 0x0255 [0x42] SET_CLI_EVENT_CANCEL_DATA()
  5: 0x0256 [0x43] SEND_EVENT_UPDATE: Send pending tag to server (packet 0x005B)
  6: 0x0258 [0x43] SEND_EVENT_UPDATE: Check pending flag (skip if not pending)
  7: 0x025A [0x62] LOAD_EVENT_SCHEDULER: Load scheduler "main" with entities [EventEntity, EventEntity], work=[1*, 0*]
  8: 0x026B [0x1C] WAIT(180* ticks)
  9: 0x026E [0x47] UPDATE_PLAYER_POS(-116.148*, 8.002*, 32.320*, yaw=359.6°*)
 10: 0x0278 [0x47] WAIT_PLAYER_POS_UPDATE
 11: 0x027A [0x62] LOAD_EVENT_SCHEDULER: Load scheduler "main" with entities [EventEntity, EventEntity], work=[2*, 0*]
 12: 0x028B [0x1C] WAIT(180* ticks)
 13: 0x028E [0x03] Work_Zone[1] = 1*
 14: 0x0293 [0x01] GOTO 0x02A6
 15: 0x0296 [0x02] IF !(Work_Zone[0] == 1*) GOTO 0x02A6
 16: 0x029E [0x03] Work_Zone[1] = 1*
 17: 0x02A3 [0x01] GOTO 0x02A6

SUBROUTINE_02A6:
 18: 0x02A6 [0x20] SET_CLI_EVENT_UC_FLAG: Unlock player control
 19: 0x02A8 [0x21] END_EVENT
 20: 0x02A9 [0x00] END_REQSTACK()
```

### Event 6

#### Metadata

| Field        | Value     |
|--------------|-----------|
| Entrypoint   | 0x02AA    |
| Data Size    | 165 bytes |
| Instructions | 32        |

```
      00 01 02 03 04 05 06 07  08 09 0A 0B 0C 0D 0E 0F
      -- -- -- -- -- -- -- --  -- -- -- -- -- -- -- --
02A0:                                24 00 80 01 80 02            $.....
02B0: 80 25 02 00 10 02 80 00  3B 03 20 01 42 43 00 43  .%......;. .BC.C
02C0: 01 62 01 80 F8 FF FF 7F  F8 FF FF 7F 6D 61 69 6E  .b..........main
02D0: 02 80 1C 03 80 13 02 00  08 80 02 02 00 02 80 80  ................
02E0: F1 02 47 00 19 80 1A 80  0B 80 1B 80 47 01 01 1F  ..G.........G...
02F0: 03 02 02 00 01 80 80 08  03 47 00 1C 80 1D 80 0B  .........G......
0300: 80 1E 80 47 01 01 1F 03  02 02 00 08 80 80 1F 03  ...G............
0310: 47 00 1F 80 20 80 0B 80  21 80 47 01 01 1F 03 62  G... ...!.G....b
0320: 08 80 F8 FF FF 7F F8 FF  FF 7F 6D 61 69 6E 02 80  ..........main..
0330: 1C 03 80 03 01 10 01 80  01 4B 03 02 00 10 01 80  .........K......
0340: 00 4B 03 03 01 10 01 80  01 4B 03 20 00 21 00     .K.......K. .!. 
```

#### Opcodes

```
  0: 0x02AA [0x24] CREATE_DIALOG(message_id=7327*, default_option=1*, option_flags=0*)
    → "Use the portal? [Yes./No.]"
  1: 0x02B1 [0x25] WAIT_DIALOG_SELECT()
  2: 0x02B2 [0x02] IF !(Work_Zone[0] == 0*) GOTO 0x033B
  3: 0x02BA [0x20] SET_CLI_EVENT_UC_FLAG: Lock player control
  4: 0x02BC [0x42] SET_CLI_EVENT_CANCEL_DATA()
  5: 0x02BD [0x43] SEND_EVENT_UPDATE: Send pending tag to server (packet 0x005B)
  6: 0x02BF [0x43] SEND_EVENT_UPDATE: Check pending flag (skip if not pending)
  7: 0x02C1 [0x62] LOAD_EVENT_SCHEDULER: Load scheduler "main" with entities [EventEntity, EventEntity], work=[1*, 0*]
  8: 0x02D2 [0x1C] WAIT(180* ticks)
  9: 0x02D5 [0x13] ExtData[1]->WorkLocal[2] = rand() % 2*
 10: 0x02DA [0x02] IF !(ExtData[1]->WorkLocal[2] == 0*) GOTO 0x02F1
 11: 0x02E2 [0x47] UPDATE_PLAYER_POS(719.870*, 559.635*, 100.574*, yaw=308.4°*)
 12: 0x02EC [0x47] WAIT_PLAYER_POS_UPDATE
 13: 0x02EE [0x01] GOTO 0x031F
 14: 0x02F1 [0x02] IF !(ExtData[1]->WorkLocal[2] == 1*) GOTO 0x0308
 15: 0x02F9 [0x47] UPDATE_PLAYER_POS(799.986*, 560.413*, 100.574*, yaw=103.4°*)
 16: 0x0303 [0x47] WAIT_PLAYER_POS_UPDATE
 17: 0x0305 [0x01] GOTO 0x031F
 18: 0x0308 [0x02] IF !(ExtData[1]->WorkLocal[2] == 2*) GOTO 0x031F
 19: 0x0310 [0x47] UPDATE_PLAYER_POS(879.779*, 559.883*, 100.574*, yaw=313.2°*)
 20: 0x031A [0x47] WAIT_PLAYER_POS_UPDATE
 21: 0x031C [0x01] GOTO 0x031F

SUBROUTINE_031F:
 22: 0x031F [0x62] LOAD_EVENT_SCHEDULER: Load scheduler "main" with entities [EventEntity, EventEntity], work=[2*, 0*]
 23: 0x0330 [0x1C] WAIT(180* ticks)
 24: 0x0333 [0x03] Work_Zone[1] = 1*
 25: 0x0338 [0x01] GOTO 0x034B
 26: 0x033B [0x02] IF !(Work_Zone[0] == 1*) GOTO 0x034B
 27: 0x0343 [0x03] Work_Zone[1] = 1*
 28: 0x0348 [0x01] GOTO 0x034B

SUBROUTINE_034B:
 29: 0x034B [0x20] SET_CLI_EVENT_UC_FLAG: Unlock player control
 30: 0x034D [0x21] END_EVENT
 31: 0x034E [0x00] END_REQSTACK()
```

### Event 7

#### Metadata

| Field        | Value     |
|--------------|-----------|
| Entrypoint   | 0x034F    |
| Data Size    | 103 bytes |
| Instructions | 21        |

```
      00 01 02 03 04 05 06 07  08 09 0A 0B 0C 0D 0E 0F
      -- -- -- -- -- -- -- --  -- -- -- -- -- -- -- --
0340:                                               24                 $
0350: 00 80 01 80 02 80 25 02  00 10 02 80 00 A2 03 20  ......%........ 
0360: 01 42 43 00 43 01 62 01  80 F8 FF FF 7F F8 FF FF  .BC.C.b.........
0370: 7F 6D 61 69 6E 02 80 1C  03 80 47 00 22 80 23 80  .main.....G.".#.
0380: 24 80 25 80 47 01 62 08  80 F8 FF FF 7F F8 FF FF  $.%.G.b.........
0390: 7F 6D 61 69 6E 02 80 1C  03 80 03 01 10 01 80 01  .main...........
03A0: B2 03 02 00 10 01 80 00  B2 03 03 01 10 01 80 01  ................
03B0: B2 03 20 00 21 00                                 .. .!.          
```

#### Opcodes

```
  0: 0x034F [0x24] CREATE_DIALOG(message_id=7327*, default_option=1*, option_flags=0*)
    → "Use the portal? [Yes./No.]"
  1: 0x0356 [0x25] WAIT_DIALOG_SELECT()
  2: 0x0357 [0x02] IF !(Work_Zone[0] == 0*) GOTO 0x03A2
  3: 0x035F [0x20] SET_CLI_EVENT_UC_FLAG: Lock player control
  4: 0x0361 [0x42] SET_CLI_EVENT_CANCEL_DATA()
  5: 0x0362 [0x43] SEND_EVENT_UPDATE: Send pending tag to server (packet 0x005B)
  6: 0x0364 [0x43] SEND_EVENT_UPDATE: Check pending flag (skip if not pending)
  7: 0x0366 [0x62] LOAD_EVENT_SCHEDULER: Load scheduler "main" with entities [EventEntity, EventEntity], work=[1*, 0*]
  8: 0x0377 [0x1C] WAIT(180* ticks)
  9: 0x037A [0x47] UPDATE_PLAYER_POS(-72.165*, -43.538*, -15.667*, yaw=61.2°*)
 10: 0x0384 [0x47] WAIT_PLAYER_POS_UPDATE
 11: 0x0386 [0x62] LOAD_EVENT_SCHEDULER: Load scheduler "main" with entities [EventEntity, EventEntity], work=[2*, 0*]
 12: 0x0397 [0x1C] WAIT(180* ticks)
 13: 0x039A [0x03] Work_Zone[1] = 1*
 14: 0x039F [0x01] GOTO 0x03B2
 15: 0x03A2 [0x02] IF !(Work_Zone[0] == 1*) GOTO 0x03B2
 16: 0x03AA [0x03] Work_Zone[1] = 1*
 17: 0x03AF [0x01] GOTO 0x03B2

SUBROUTINE_03B2:
 18: 0x03B2 [0x20] SET_CLI_EVENT_UC_FLAG: Unlock player control
 19: 0x03B4 [0x21] END_EVENT
 20: 0x03B5 [0x00] END_REQSTACK()
```

### Event 8

#### Metadata

| Field        | Value     |
|--------------|-----------|
| Entrypoint   | 0x03B6    |
| Data Size    | 326 bytes |
| Instructions | 60        |

```
      00 01 02 03 04 05 06 07  08 09 0A 0B 0C 0D 0E 0F
      -- -- -- -- -- -- -- --  -- -- -- -- -- -- -- --
03B0:                   24 00  80 01 80 02 80 25 02 00        $......%..
03C0: 10 02 80 00 E8 04 20 01  42 43 00 43 01 62 01 80  ...... .BC.C.b..
03D0: F8 FF FF 7F F8 FF FF 7F  6D 61 69 6E 02 80 1C 03  ........main....
03E0: 80 13 03 00 26 80 02 03  00 02 80 80 FD 03 47 00  ....&.........G.
03F0: 27 80 28 80 29 80 2A 80  47 01 01 CC 04 02 03 00  '.(.).*.G.......
0400: 01 80 80 14 04 47 00 2B  80 2C 80 2D 80 2E 80 47  .....G.+.,.-...G
0410: 01 01 CC 04 02 03 00 08  80 80 2B 04 47 00 2F 80  ..........+.G./.
0420: 30 80 31 80 32 80 47 01  01 CC 04 02 03 00 33 80  0.1.2.G.......3.
0430: 80 42 04 47 00 34 80 35  80 36 80 37 80 47 01 01  .B.G.4.5.6.7.G..
0440: CC 04 02 03 00 38 80 80  59 04 47 00 39 80 3A 80  .....8..Y.G.9.:.
0450: 3B 80 3C 80 47 01 01 CC  04 02 03 00 3D 80 80 70  ;.<.G.......=..p
0460: 04 47 00 3E 80 3F 80 40  80 41 80 47 01 01 CC 04  .G.>.?.@.A.G....
0470: 02 03 00 42 80 80 87 04  47 00 43 80 44 80 45 80  ...B....G.C.D.E.
0480: 46 80 47 01 01 CC 04 02  03 00 47 80 80 9E 04 47  F.G.......G....G
0490: 00 48 80 49 80 36 80 4A  80 47 01 01 CC 04 02 03  .H.I.6.J.G......
04A0: 00 4B 80 80 B5 04 47 00  4C 80 4D 80 4E 80 4F 80  .K....G.L.M.N.O.
04B0: 47 01 01 CC 04 02 03 00  26 80 80 CC 04 47 00 50  G.......&....G.P
04C0: 80 51 80 29 80 52 80 47  01 01 CC 04 62 08 80 F8  .Q.).R.G....b...
04D0: FF FF 7F F8 FF FF 7F 6D  61 69 6E 02 80 1C 03 80  .......main.....
04E0: 03 01 10 01 80 01 F8 04  02 00 10 01 80 00 F8 04  ................
04F0: 03 01 10 01 80 01 F8 04  20 00 21 00              ........ .!.    
```

#### Opcodes

```
  0: 0x03B6 [0x24] CREATE_DIALOG(message_id=7327*, default_option=1*, option_flags=0*)
    → "Use the portal? [Yes./No.]"
  1: 0x03BD [0x25] WAIT_DIALOG_SELECT()
  2: 0x03BE [0x02] IF !(Work_Zone[0] == 0*) GOTO 0x04E8
  3: 0x03C6 [0x20] SET_CLI_EVENT_UC_FLAG: Lock player control
  4: 0x03C8 [0x42] SET_CLI_EVENT_CANCEL_DATA()
  5: 0x03C9 [0x43] SEND_EVENT_UPDATE: Send pending tag to server (packet 0x005B)
  6: 0x03CB [0x43] SEND_EVENT_UPDATE: Check pending flag (skip if not pending)
  7: 0x03CD [0x62] LOAD_EVENT_SCHEDULER: Load scheduler "main" with entities [EventEntity, EventEntity], work=[1*, 0*]
  8: 0x03DE [0x1C] WAIT(180* ticks)
  9: 0x03E1 [0x13] ExtData[1]->WorkLocal[3] = rand() % 9*
 10: 0x03E6 [0x02] IF !(ExtData[1]->WorkLocal[3] == 0*) GOTO 0x03FD
 11: 0x03EE [0x47] UPDATE_PLAYER_POS(829.950*, 112.024*, 0.112*, yaw=82.4°*)
 12: 0x03F8 [0x47] WAIT_PLAYER_POS_UPDATE
 13: 0x03FA [0x01] GOTO 0x04CC
 14: 0x03FD [0x02] IF !(ExtData[1]->WorkLocal[3] == 1*) GOTO 0x0414
 15: 0x0405 [0x47] UPDATE_PLAYER_POS(810.005*, 111.883*, 0.118*, yaw=109.3°*)
 16: 0x040F [0x47] WAIT_PLAYER_POS_UPDATE
 17: 0x0411 [0x01] GOTO 0x04CC
 18: 0x0414 [0x02] IF !(ExtData[1]->WorkLocal[3] == 2*) GOTO 0x042B
 19: 0x041C [0x47] UPDATE_PLAYER_POS(790.022*, 111.964*, 0.115*, yaw=82.4°*)
 20: 0x0426 [0x47] WAIT_PLAYER_POS_UPDATE
 21: 0x0428 [0x01] GOTO 0x04CC
 22: 0x042B [0x02] IF !(ExtData[1]->WorkLocal[3] == 3*) GOTO 0x0442
 23: 0x0433 [0x47] UPDATE_PLAYER_POS(769.967*, 112.011*, 0.113*, yaw=93.4°*)
 24: 0x043D [0x47] WAIT_PLAYER_POS_UPDATE
 25: 0x043F [0x01] GOTO 0x04CC
 26: 0x0442 [0x02] IF !(ExtData[1]->WorkLocal[3] == 4*) GOTO 0x0459
 27: 0x044A [0x47] UPDATE_PLAYER_POS(770.071*, 71.916*, 0.116*, yaw=90.7°*)
 28: 0x0454 [0x47] WAIT_PLAYER_POS_UPDATE
 29: 0x0456 [0x01] GOTO 0x04CC
 30: 0x0459 [0x02] IF !(ExtData[1]->WorkLocal[3] == 5*) GOTO 0x0470
 31: 0x0461 [0x47] UPDATE_PLAYER_POS(790.006*, 71.986*, 0.114*, yaw=98.0°*)
 32: 0x046B [0x47] WAIT_PLAYER_POS_UPDATE
 33: 0x046D [0x01] GOTO 0x04CC
 34: 0x0470 [0x02] IF !(ExtData[1]->WorkLocal[3] == 6*) GOTO 0x0487
 35: 0x0478 [0x47] UPDATE_PLAYER_POS(769.928*, 7.910*, 0.109*, yaw=264.1°*)
 36: 0x0482 [0x47] WAIT_PLAYER_POS_UPDATE
 37: 0x0484 [0x01] GOTO 0x04CC
 38: 0x0487 [0x02] IF !(ExtData[1]->WorkLocal[3] == 7*) GOTO 0x049E
 39: 0x048F [0x47] UPDATE_PLAYER_POS(789.921*, 7.998*, 0.113*, yaw=277.0°*)
 40: 0x0499 [0x47] WAIT_PLAYER_POS_UPDATE
 41: 0x049B [0x01] GOTO 0x04CC
 42: 0x049E [0x02] IF !(ExtData[1]->WorkLocal[3] == 8*) GOTO 0x04B5
 43: 0x04A6 [0x47] UPDATE_PLAYER_POS(809.994*, 7.930*, 0.110*, yaw=272.8°*)
 44: 0x04B0 [0x47] WAIT_PLAYER_POS_UPDATE
 45: 0x04B2 [0x01] GOTO 0x04CC
 46: 0x04B5 [0x02] IF !(ExtData[1]->WorkLocal[3] == 9*) GOTO 0x04CC
 47: 0x04BD [0x47] UPDATE_PLAYER_POS(829.942*, 7.990*, 0.112*, yaw=265.2°*)
 48: 0x04C7 [0x47] WAIT_PLAYER_POS_UPDATE
 49: 0x04C9 [0x01] GOTO 0x04CC

SUBROUTINE_04CC:
 50: 0x04CC [0x62] LOAD_EVENT_SCHEDULER: Load scheduler "main" with entities [EventEntity, EventEntity], work=[2*, 0*]
 51: 0x04DD [0x1C] WAIT(180* ticks)
 52: 0x04E0 [0x03] Work_Zone[1] = 1*
 53: 0x04E5 [0x01] GOTO 0x04F8
 54: 0x04E8 [0x02] IF !(Work_Zone[0] == 1*) GOTO 0x04F8
 55: 0x04F0 [0x03] Work_Zone[1] = 1*
 56: 0x04F5 [0x01] GOTO 0x04F8

SUBROUTINE_04F8:
 57: 0x04F8 [0x20] SET_CLI_EVENT_UC_FLAG: Unlock player control
 58: 0x04FA [0x21] END_EVENT
 59: 0x04FB [0x00] END_REQSTACK()
```

### Event 9

#### Metadata

| Field        | Value     |
|--------------|-----------|
| Entrypoint   | 0x04FC    |
| Data Size    | 103 bytes |
| Instructions | 21        |

```
      00 01 02 03 04 05 06 07  08 09 0A 0B 0C 0D 0E 0F
      -- -- -- -- -- -- -- --  -- -- -- -- -- -- -- --
04F0:                                      24 00 80 01              $...
0500: 80 02 80 25 02 00 10 02  80 00 4F 05 20 01 42 43  ...%......O. .BC
0510: 00 43 01 62 01 80 F8 FF  FF 7F F8 FF FF 7F 6D 61  .C.b..........ma
0520: 69 6E 02 80 1C 03 80 47  00 02 80 02 80 17 80 18  in.....G........
0530: 80 47 01 62 08 80 F8 FF  FF 7F F8 FF FF 7F 6D 61  .G.b..........ma
0540: 69 6E 02 80 1C 03 80 03  01 10 01 80 01 5F 05 02  in..........._..
0550: 00 10 01 80 00 5F 05 03  01 10 01 80 01 5F 05 20  ....._......._. 
0560: 00 21 00                                          .!.             
```

#### Opcodes

```
  0: 0x04FC [0x24] CREATE_DIALOG(message_id=7327*, default_option=1*, option_flags=0*)
    → "Use the portal? [Yes./No.]"
  1: 0x0503 [0x25] WAIT_DIALOG_SELECT()
  2: 0x0504 [0x02] IF !(Work_Zone[0] == 0*) GOTO 0x054F
  3: 0x050C [0x20] SET_CLI_EVENT_UC_FLAG: Lock player control
  4: 0x050E [0x42] SET_CLI_EVENT_CANCEL_DATA()
  5: 0x050F [0x43] SEND_EVENT_UPDATE: Send pending tag to server (packet 0x005B)
  6: 0x0511 [0x43] SEND_EVENT_UPDATE: Check pending flag (skip if not pending)
  7: 0x0513 [0x62] LOAD_EVENT_SCHEDULER: Load scheduler "main" with entities [EventEntity, EventEntity], work=[1*, 0*]
  8: 0x0524 [0x1C] WAIT(180* ticks)
  9: 0x0527 [0x47] UPDATE_PLAYER_POS(0.000*, 0.000*, -15.425*, yaw=348.7°*)
 10: 0x0531 [0x47] WAIT_PLAYER_POS_UPDATE
 11: 0x0533 [0x62] LOAD_EVENT_SCHEDULER: Load scheduler "main" with entities [EventEntity, EventEntity], work=[2*, 0*]
 12: 0x0544 [0x1C] WAIT(180* ticks)
 13: 0x0547 [0x03] Work_Zone[1] = 1*
 14: 0x054C [0x01] GOTO 0x055F
 15: 0x054F [0x02] IF !(Work_Zone[0] == 1*) GOTO 0x055F
 16: 0x0557 [0x03] Work_Zone[1] = 1*
 17: 0x055C [0x01] GOTO 0x055F

SUBROUTINE_055F:
 18: 0x055F [0x20] SET_CLI_EVENT_UC_FLAG: Unlock player control
 19: 0x0561 [0x21] END_EVENT
 20: 0x0562 [0x00] END_REQSTACK()
```

### Event 10

#### Metadata

| Field        | Value     |
|--------------|-----------|
| Entrypoint   | 0x0563    |
| Data Size    | 103 bytes |
| Instructions | 21        |

```
      00 01 02 03 04 05 06 07  08 09 0A 0B 0C 0D 0E 0F
      -- -- -- -- -- -- -- --  -- -- -- -- -- -- -- --
0560:          24 00 80 01 80  02 80 25 02 00 10 02 80     $......%.....
0570: 00 B6 05 20 01 42 43 00  43 01 62 01 80 F8 FF FF  ... .BC.C.b.....
0580: 7F F8 FF FF 7F 6D 61 69  6E 02 80 1C 03 80 47 00  .....main.....G.
0590: 53 80 54 80 55 80 56 80  47 01 62 08 80 F8 FF FF  S.T.U.V.G.b.....
05A0: 7F F8 FF FF 7F 6D 61 69  6E 02 80 1C 03 80 03 01  .....main.......
05B0: 10 01 80 01 C6 05 02 00  10 01 80 00 C6 05 03 01  ................
05C0: 10 01 80 01 C6 05 20 00  21 00                    ...... .!.      
```

#### Opcodes

```
  0: 0x0563 [0x24] CREATE_DIALOG(message_id=7327*, default_option=1*, option_flags=0*)
    → "Use the portal? [Yes./No.]"
  1: 0x056A [0x25] WAIT_DIALOG_SELECT()
  2: 0x056B [0x02] IF !(Work_Zone[0] == 0*) GOTO 0x05B6
  3: 0x0573 [0x20] SET_CLI_EVENT_UC_FLAG: Lock player control
  4: 0x0575 [0x42] SET_CLI_EVENT_CANCEL_DATA()
  5: 0x0576 [0x43] SEND_EVENT_UPDATE: Send pending tag to server (packet 0x005B)
  6: 0x0578 [0x43] SEND_EVENT_UPDATE: Check pending flag (skip if not pending)
  7: 0x057A [0x62] LOAD_EVENT_SCHEDULER: Load scheduler "main" with entities [EventEntity, EventEntity], work=[1*, 0*]
  8: 0x058B [0x1C] WAIT(180* ticks)
  9: 0x058E [0x47] UPDATE_PLAYER_POS(116.287*, -8.040*, 32.317*, yaw=196.7°*)
 10: 0x0598 [0x47] WAIT_PLAYER_POS_UPDATE
 11: 0x059A [0x62] LOAD_EVENT_SCHEDULER: Load scheduler "main" with entities [EventEntity, EventEntity], work=[2*, 0*]
 12: 0x05AB [0x1C] WAIT(180* ticks)
 13: 0x05AE [0x03] Work_Zone[1] = 1*
 14: 0x05B3 [0x01] GOTO 0x05C6
 15: 0x05B6 [0x02] IF !(Work_Zone[0] == 1*) GOTO 0x05C6
 16: 0x05BE [0x03] Work_Zone[1] = 1*
 17: 0x05C3 [0x01] GOTO 0x05C6

SUBROUTINE_05C6:
 18: 0x05C6 [0x20] SET_CLI_EVENT_UC_FLAG: Unlock player control
 19: 0x05C8 [0x21] END_EVENT
 20: 0x05C9 [0x00] END_REQSTACK()
```

### Event 11

#### Metadata

| Field        | Value     |
|--------------|-----------|
| Entrypoint   | 0x05CA    |
| Data Size    | 326 bytes |
| Instructions | 60        |

```
      00 01 02 03 04 05 06 07  08 09 0A 0B 0C 0D 0E 0F
      -- -- -- -- -- -- -- --  -- -- -- -- -- -- -- --
05C0:                                24 00 80 01 80 02            $.....
05D0: 80 25 02 00 10 02 80 00  FC 06 20 01 42 43 00 43  .%........ .BC.C
05E0: 01 62 01 80 F8 FF FF 7F  F8 FF FF 7F 6D 61 69 6E  .b..........main
05F0: 02 80 1C 03 80 13 04 00  26 80 02 04 00 02 80 80  ........&.......
0600: 11 06 47 00 57 80 58 80  45 80 59 80 47 01 01 E0  ..G.W.X.E.Y.G...
0610: 06 02 04 00 01 80 80 28  06 47 00 5A 80 5B 80 36  .......(.G.Z.[.6
0620: 80 5C 80 47 01 01 E0 06  02 04 00 08 80 80 3F 06  .\.G..........?.
0630: 47 00 5D 80 5E 80 29 80  5F 80 47 01 01 E0 06 02  G.].^.)._.G.....
0640: 04 00 33 80 80 56 06 47  00 60 80 61 80 62 80 63  ..3..V.G.`.a.b.c
0650: 80 47 01 01 E0 06 02 04  00 38 80 80 6D 06 47 00  .G.......8..m.G.
0660: 64 80 65 80 2D 80 66 80  47 01 01 E0 06 02 04 00  d.e.-.f.G.......
0670: 3D 80 80 84 06 47 00 67  80 68 80 4E 80 69 80 47  =....G.g.h.N.i.G
0680: 01 01 E0 06 02 04 00 42  80 80 9B 06 47 00 6A 80  .......B....G.j.
0690: 6B 80 31 80 6C 80 47 01  01 E0 06 02 04 00 47 80  k.1.l.G.......G.
06A0: 80 B2 06 47 00 6D 80 6E  80 31 80 6F 80 47 01 01  ...G.m.n.1.o.G..
06B0: E0 06 02 04 00 4B 80 80  C9 06 47 00 70 80 71 80  .....K....G.p.q.
06C0: 31 80 72 80 47 01 01 E0  06 02 04 00 26 80 80 E0  1.r.G.......&...
06D0: 06 47 00 73 80 74 80 2D  80 75 80 47 01 01 E0 06  .G.s.t.-.u.G....
06E0: 62 08 80 F8 FF FF 7F F8  FF FF 7F 6D 61 69 6E 02  b..........main.
06F0: 80 1C 03 80 03 01 10 01  80 01 0C 07 02 00 10 01  ................
0700: 80 00 0C 07 03 01 10 01  80 01 0C 07 20 00 21 00  ............ .!.
```

#### Opcodes

```
  0: 0x05CA [0x24] CREATE_DIALOG(message_id=7327*, default_option=1*, option_flags=0*)
    → "Use the portal? [Yes./No.]"
  1: 0x05D1 [0x25] WAIT_DIALOG_SELECT()
  2: 0x05D2 [0x02] IF !(Work_Zone[0] == 0*) GOTO 0x06FC
  3: 0x05DA [0x20] SET_CLI_EVENT_UC_FLAG: Lock player control
  4: 0x05DC [0x42] SET_CLI_EVENT_CANCEL_DATA()
  5: 0x05DD [0x43] SEND_EVENT_UPDATE: Send pending tag to server (packet 0x005B)
  6: 0x05DF [0x43] SEND_EVENT_UPDATE: Check pending flag (skip if not pending)
  7: 0x05E1 [0x62] LOAD_EVENT_SCHEDULER: Load scheduler "main" with entities [EventEntity, EventEntity], work=[1*, 0*]
  8: 0x05F2 [0x1C] WAIT(180* ticks)
  9: 0x05F5 [0x13] ExtData[1]->WorkLocal[4] = rand() % 9*
 10: 0x05FA [0x02] IF !(ExtData[1]->WorkLocal[4] == 0*) GOTO 0x0611
 11: 0x0602 [0x47] UPDATE_PLAYER_POS(770.047*, -112.092*, 0.109*, yaw=261.9°*)
 12: 0x060C [0x47] WAIT_PLAYER_POS_UPDATE
 13: 0x060E [0x01] GOTO 0x06E0
 14: 0x0611 [0x02] IF !(ExtData[1]->WorkLocal[4] == 1*) GOTO 0x0628
 15: 0x0619 [0x47] UPDATE_PLAYER_POS(789.976*, -112.005*, 0.113*, yaw=283.9°*)
 16: 0x0623 [0x47] WAIT_PLAYER_POS_UPDATE
 17: 0x0625 [0x01] GOTO 0x06E0
 18: 0x0628 [0x02] IF !(ExtData[1]->WorkLocal[4] == 2*) GOTO 0x063F
 19: 0x0630 [0x47] UPDATE_PLAYER_POS(809.992*, -112.027*, 0.112*, yaw=274.9°*)
 20: 0x063A [0x47] WAIT_PLAYER_POS_UPDATE
 21: 0x063C [0x01] GOTO 0x06E0
 22: 0x063F [0x02] IF !(ExtData[1]->WorkLocal[4] == 3*) GOTO 0x0656
 23: 0x0647 [0x47] UPDATE_PLAYER_POS(829.954*, -111.861*, 0.119*, yaw=284.8°*)
 24: 0x0651 [0x47] WAIT_PLAYER_POS_UPDATE
 25: 0x0653 [0x01] GOTO 0x06E0
 26: 0x0656 [0x02] IF !(ExtData[1]->WorkLocal[4] == 4*) GOTO 0x066D
 27: 0x065E [0x47] UPDATE_PLAYER_POS(810.071*, -71.872*, 0.118*, yaw=272.9°*)
 28: 0x0668 [0x47] WAIT_PLAYER_POS_UPDATE
 29: 0x066A [0x01] GOTO 0x06E0
 30: 0x066D [0x02] IF !(ExtData[1]->WorkLocal[4] == 5*) GOTO 0x0684
 31: 0x0675 [0x47] UPDATE_PLAYER_POS(830.033*, -72.075*, 0.110*, yaw=275.9°*)
 32: 0x067F [0x47] WAIT_PLAYER_POS_UPDATE
 33: 0x0681 [0x01] GOTO 0x06E0
 34: 0x0684 [0x02] IF !(ExtData[1]->WorkLocal[4] == 6*) GOTO 0x069B
 35: 0x068C [0x47] UPDATE_PLAYER_POS(829.986*, -8.045*, 0.115*, yaw=105.9°*)
 36: 0x0696 [0x47] WAIT_PLAYER_POS_UPDATE
 37: 0x0698 [0x01] GOTO 0x06E0
 38: 0x069B [0x02] IF !(ExtData[1]->WorkLocal[4] == 7*) GOTO 0x06B2
 39: 0x06A3 [0x47] UPDATE_PLAYER_POS(810.077*, -8.067*, 0.115*, yaw=92.2°*)
 40: 0x06AD [0x47] WAIT_PLAYER_POS_UPDATE
 41: 0x06AF [0x01] GOTO 0x06E0
 42: 0x06B2 [0x02] IF !(ExtData[1]->WorkLocal[4] == 8*) GOTO 0x06C9
 43: 0x06BA [0x47] UPDATE_PLAYER_POS(790.058*, -8.051*, 0.115*, yaw=110.2°*)
 44: 0x06C4 [0x47] WAIT_PLAYER_POS_UPDATE
 45: 0x06C6 [0x01] GOTO 0x06E0
 46: 0x06C9 [0x02] IF !(ExtData[1]->WorkLocal[4] == 9*) GOTO 0x06E0
 47: 0x06D1 [0x47] UPDATE_PLAYER_POS(769.956*, -8.127*, 0.118*, yaw=92.0°*)
 48: 0x06DB [0x47] WAIT_PLAYER_POS_UPDATE
 49: 0x06DD [0x01] GOTO 0x06E0

SUBROUTINE_06E0:
 50: 0x06E0 [0x62] LOAD_EVENT_SCHEDULER: Load scheduler "main" with entities [EventEntity, EventEntity], work=[2*, 0*]
 51: 0x06F1 [0x1C] WAIT(180* ticks)
 52: 0x06F4 [0x03] Work_Zone[1] = 1*
 53: 0x06F9 [0x01] GOTO 0x070C
 54: 0x06FC [0x02] IF !(Work_Zone[0] == 1*) GOTO 0x070C
 55: 0x0704 [0x03] Work_Zone[1] = 1*
 56: 0x0709 [0x01] GOTO 0x070C

SUBROUTINE_070C:
 57: 0x070C [0x20] SET_CLI_EVENT_UC_FLAG: Unlock player control
 58: 0x070E [0x21] END_EVENT
 59: 0x070F [0x00] END_REQSTACK()
```

### Event 12

#### Metadata

| Field        | Value     |
|--------------|-----------|
| Entrypoint   | 0x0710    |
| Data Size    | 103 bytes |
| Instructions | 21        |

```
      00 01 02 03 04 05 06 07  08 09 0A 0B 0C 0D 0E 0F
      -- -- -- -- -- -- -- --  -- -- -- -- -- -- -- --
0710: 24 00 80 01 80 02 80 25  02 00 10 02 80 00 63 07  $......%......c.
0720: 20 01 42 43 00 43 01 62  01 80 F8 FF FF 7F F8 FF   .BC.C.b........
0730: FF 7F 6D 61 69 6E 02 80  1C 03 80 47 00 76 80 77  ..main.....G.v.w
0740: 80 78 80 79 80 47 01 62  08 80 F8 FF FF 7F F8 FF  .x.y.G.b........
0750: FF 7F 6D 61 69 6E 02 80  1C 03 80 03 01 10 01 80  ..main..........
0760: 01 73 07 02 00 10 01 80  00 73 07 03 01 10 01 80  .s.......s......
0770: 01 73 07 20 00 21 00                              .s. .!.         
```

#### Opcodes

```
  0: 0x0710 [0x24] CREATE_DIALOG(message_id=7327*, default_option=1*, option_flags=0*)
    → "Use the portal? [Yes./No.]"
  1: 0x0717 [0x25] WAIT_DIALOG_SELECT()
  2: 0x0718 [0x02] IF !(Work_Zone[0] == 0*) GOTO 0x0763
  3: 0x0720 [0x20] SET_CLI_EVENT_UC_FLAG: Lock player control
  4: 0x0722 [0x42] SET_CLI_EVENT_CANCEL_DATA()
  5: 0x0723 [0x43] SEND_EVENT_UPDATE: Send pending tag to server (packet 0x005B)
  6: 0x0725 [0x43] SEND_EVENT_UPDATE: Check pending flag (skip if not pending)
  7: 0x0727 [0x62] LOAD_EVENT_SCHEDULER: Load scheduler "main" with entities [EventEntity, EventEntity], work=[1*, 0*]
  8: 0x0738 [0x1C] WAIT(180* ticks)
  9: 0x073B [0x47] UPDATE_PLAYER_POS(-140.067*, 20.004*, 0.398*, yaw=11.9°*)
 10: 0x0745 [0x47] WAIT_PLAYER_POS_UPDATE
 11: 0x0747 [0x62] LOAD_EVENT_SCHEDULER: Load scheduler "main" with entities [EventEntity, EventEntity], work=[2*, 0*]
 12: 0x0758 [0x1C] WAIT(180* ticks)
 13: 0x075B [0x03] Work_Zone[1] = 1*
 14: 0x0760 [0x01] GOTO 0x0773
 15: 0x0763 [0x02] IF !(Work_Zone[0] == 1*) GOTO 0x0773
 16: 0x076B [0x03] Work_Zone[1] = 1*
 17: 0x0770 [0x01] GOTO 0x0773

SUBROUTINE_0773:
 18: 0x0773 [0x20] SET_CLI_EVENT_UC_FLAG: Unlock player control
 19: 0x0775 [0x21] END_EVENT
 20: 0x0776 [0x00] END_REQSTACK()
```

### Event 13

#### Metadata

| Field        | Value     |
|--------------|-----------|
| Entrypoint   | 0x0777    |
| Data Size    | 103 bytes |
| Instructions | 21        |

```
      00 01 02 03 04 05 06 07  08 09 0A 0B 0C 0D 0E 0F
      -- -- -- -- -- -- -- --  -- -- -- -- -- -- -- --
0770:                      24  00 80 01 80 02 80 25 02         $......%.
0780: 00 10 02 80 00 CA 07 20  01 42 43 00 43 01 62 01  ....... .BC.C.b.
0790: 80 F8 FF FF 7F F8 FF FF  7F 6D 61 69 6E 02 80 1C  .........main...
07A0: 03 80 47 00 7A 80 7B 80  7C 80 7D 80 47 01 62 08  ..G.z.{.|.}.G.b.
07B0: 80 F8 FF FF 7F F8 FF FF  7F 6D 61 69 6E 02 80 1C  .........main...
07C0: 03 80 03 01 10 01 80 01  DA 07 02 00 10 01 80 00  ................
07D0: DA 07 03 01 10 01 80 01  DA 07 20 00 21 00        .......... .!.  
```

#### Opcodes

```
  0: 0x0777 [0x24] CREATE_DIALOG(message_id=7327*, default_option=1*, option_flags=0*)
    → "Use the portal? [Yes./No.]"
  1: 0x077E [0x25] WAIT_DIALOG_SELECT()
  2: 0x077F [0x02] IF !(Work_Zone[0] == 0*) GOTO 0x07CA
  3: 0x0787 [0x20] SET_CLI_EVENT_UC_FLAG: Lock player control
  4: 0x0789 [0x42] SET_CLI_EVENT_CANCEL_DATA()
  5: 0x078A [0x43] SEND_EVENT_UPDATE: Send pending tag to server (packet 0x005B)
  6: 0x078C [0x43] SEND_EVENT_UPDATE: Check pending flag (skip if not pending)
  7: 0x078E [0x62] LOAD_EVENT_SCHEDULER: Load scheduler "main" with entities [EventEntity, EventEntity], work=[1*, 0*]
  8: 0x079F [0x1C] WAIT(180* ticks)
  9: 0x07A2 [0x47] UPDATE_PLAYER_POS(739.958*, -660.073*, -99.601*, yaw=280.1°*)
 10: 0x07AC [0x47] WAIT_PLAYER_POS_UPDATE
 11: 0x07AE [0x62] LOAD_EVENT_SCHEDULER: Load scheduler "main" with entities [EventEntity, EventEntity], work=[2*, 0*]
 12: 0x07BF [0x1C] WAIT(180* ticks)
 13: 0x07C2 [0x03] Work_Zone[1] = 1*
 14: 0x07C7 [0x01] GOTO 0x07DA
 15: 0x07CA [0x02] IF !(Work_Zone[0] == 1*) GOTO 0x07DA
 16: 0x07D2 [0x03] Work_Zone[1] = 1*
 17: 0x07D7 [0x01] GOTO 0x07DA

SUBROUTINE_07DA:
 18: 0x07DA [0x20] SET_CLI_EVENT_UC_FLAG: Unlock player control
 19: 0x07DC [0x21] END_EVENT
 20: 0x07DD [0x00] END_REQSTACK()
```

### Event 14

#### Metadata

| Field        | Value     |
|--------------|-----------|
| Entrypoint   | 0x07DE    |
| Data Size    | 103 bytes |
| Instructions | 21        |

```
      00 01 02 03 04 05 06 07  08 09 0A 0B 0C 0D 0E 0F
      -- -- -- -- -- -- -- --  -- -- -- -- -- -- -- --
07D0:                                            24 00                $.
07E0: 80 01 80 02 80 25 02 00  10 02 80 00 31 08 20 01  .....%......1. .
07F0: 42 43 00 43 01 62 01 80  F8 FF FF 7F F8 FF FF 7F  BC.C.b..........
0800: 6D 61 69 6E 02 80 1C 03  80 47 00 7E 80 7F 80 7C  main.....G.~...|
0810: 80 80 80 47 01 62 08 80  F8 FF FF 7F F8 FF FF 7F  ...G.b..........
0820: 6D 61 69 6E 02 80 1C 03  80 03 01 10 01 80 01 41  main...........A
0830: 08 02 00 10 01 80 00 41  08 03 01 10 01 80 01 41  .......A.......A
0840: 08 20 00 21 00                                    . .!.           
```

#### Opcodes

```
  0: 0x07DE [0x24] CREATE_DIALOG(message_id=7327*, default_option=1*, option_flags=0*)
    → "Use the portal? [Yes./No.]"
  1: 0x07E5 [0x25] WAIT_DIALOG_SELECT()
  2: 0x07E6 [0x02] IF !(Work_Zone[0] == 0*) GOTO 0x0831
  3: 0x07EE [0x20] SET_CLI_EVENT_UC_FLAG: Lock player control
  4: 0x07F0 [0x42] SET_CLI_EVENT_CANCEL_DATA()
  5: 0x07F1 [0x43] SEND_EVENT_UPDATE: Send pending tag to server (packet 0x005B)
  6: 0x07F3 [0x43] SEND_EVENT_UPDATE: Check pending flag (skip if not pending)
  7: 0x07F5 [0x62] LOAD_EVENT_SCHEDULER: Load scheduler "main" with entities [EventEntity, EventEntity], work=[1*, 0*]
  8: 0x0806 [0x1C] WAIT(180* ticks)
  9: 0x0809 [0x47] UPDATE_PLAYER_POS(859.993*, -659.992*, -99.601*, yaw=273.1°*)
 10: 0x0813 [0x47] WAIT_PLAYER_POS_UPDATE
 11: 0x0815 [0x62] LOAD_EVENT_SCHEDULER: Load scheduler "main" with entities [EventEntity, EventEntity], work=[2*, 0*]
 12: 0x0826 [0x1C] WAIT(180* ticks)
 13: 0x0829 [0x03] Work_Zone[1] = 1*
 14: 0x082E [0x01] GOTO 0x0841
 15: 0x0831 [0x02] IF !(Work_Zone[0] == 1*) GOTO 0x0841
 16: 0x0839 [0x03] Work_Zone[1] = 1*
 17: 0x083E [0x01] GOTO 0x0841

SUBROUTINE_0841:
 18: 0x0841 [0x20] SET_CLI_EVENT_UC_FLAG: Unlock player control
 19: 0x0843 [0x21] END_EVENT
 20: 0x0844 [0x00] END_REQSTACK()
```

### Event 15

#### Metadata

| Field        | Value     |
|--------------|-----------|
| Entrypoint   | 0x0845    |
| Data Size    | 103 bytes |
| Instructions | 21        |

```
      00 01 02 03 04 05 06 07  08 09 0A 0B 0C 0D 0E 0F
      -- -- -- -- -- -- -- --  -- -- -- -- -- -- -- --
0840:                24 00 80  01 80 02 80 25 02 00 10       $......%...
0850: 02 80 00 98 08 20 01 42  43 00 43 01 62 01 80 F8  ..... .BC.C.b...
0860: FF FF 7F F8 FF FF 7F 6D  61 69 6E 02 80 1C 03 80  .......main.....
0870: 47 00 81 80 82 80 78 80  83 80 47 01 62 08 80 F8  G.....x...G.b...
0880: FF FF 7F F8 FF FF 7F 6D  61 69 6E 02 80 1C 03 80  .......main.....
0890: 03 01 10 01 80 01 A8 08  02 00 10 01 80 00 A8 08  ................
08A0: 03 01 10 01 80 01 A8 08  20 00 21 00              ........ .!.    
```

#### Opcodes

```
  0: 0x0845 [0x24] CREATE_DIALOG(message_id=7327*, default_option=1*, option_flags=0*)
    → "Use the portal? [Yes./No.]"
  1: 0x084C [0x25] WAIT_DIALOG_SELECT()
  2: 0x084D [0x02] IF !(Work_Zone[0] == 0*) GOTO 0x0898
  3: 0x0855 [0x20] SET_CLI_EVENT_UC_FLAG: Lock player control
  4: 0x0857 [0x42] SET_CLI_EVENT_CANCEL_DATA()
  5: 0x0858 [0x43] SEND_EVENT_UPDATE: Send pending tag to server (packet 0x005B)
  6: 0x085A [0x43] SEND_EVENT_UPDATE: Check pending flag (skip if not pending)
  7: 0x085C [0x62] LOAD_EVENT_SCHEDULER: Load scheduler "main" with entities [EventEntity, EventEntity], work=[1*, 0*]
  8: 0x086D [0x1C] WAIT(180* ticks)
  9: 0x0870 [0x47] UPDATE_PLAYER_POS(140.054*, 20.180*, 0.398*, yaw=159.2°*)
 10: 0x087A [0x47] WAIT_PLAYER_POS_UPDATE
 11: 0x087C [0x62] LOAD_EVENT_SCHEDULER: Load scheduler "main" with entities [EventEntity, EventEntity], work=[2*, 0*]
 12: 0x088D [0x1C] WAIT(180* ticks)
 13: 0x0890 [0x03] Work_Zone[1] = 1*
 14: 0x0895 [0x01] GOTO 0x08A8
 15: 0x0898 [0x02] IF !(Work_Zone[0] == 1*) GOTO 0x08A8
 16: 0x08A0 [0x03] Work_Zone[1] = 1*
 17: 0x08A5 [0x01] GOTO 0x08A8

SUBROUTINE_08A8:
 18: 0x08A8 [0x20] SET_CLI_EVENT_UC_FLAG: Unlock player control
 19: 0x08AA [0x21] END_EVENT
 20: 0x08AB [0x00] END_REQSTACK()
```

### Event 16

#### Metadata

| Field        | Value     |
|--------------|-----------|
| Entrypoint   | 0x08AC    |
| Data Size    | 103 bytes |
| Instructions | 21        |

```
      00 01 02 03 04 05 06 07  08 09 0A 0B 0C 0D 0E 0F
      -- -- -- -- -- -- -- --  -- -- -- -- -- -- -- --
08A0:                                      24 00 80 01              $...
08B0: 80 02 80 25 02 00 10 02  80 00 FF 08 20 01 42 43  ...%........ .BC
08C0: 00 43 01 62 01 80 F8 FF  FF 7F F8 FF FF 7F 6D 61  .C.b..........ma
08D0: 69 6E 02 80 1C 03 80 47  00 84 80 85 80 86 80 87  in.....G........
08E0: 80 47 01 62 08 80 F8 FF  FF 7F F8 FF FF 7F 6D 61  .G.b..........ma
08F0: 69 6E 02 80 1C 03 80 03  01 10 01 80 01 0F 09 02  in..............
0900: 00 10 01 80 00 0F 09 03  01 10 01 80 01 0F 09 20  ............... 
0910: 00 21 00                                          .!.             
```

#### Opcodes

```
  0: 0x08AC [0x24] CREATE_DIALOG(message_id=7327*, default_option=1*, option_flags=0*)
    → "Use the portal? [Yes./No.]"
  1: 0x08B3 [0x25] WAIT_DIALOG_SELECT()
  2: 0x08B4 [0x02] IF !(Work_Zone[0] == 0*) GOTO 0x08FF
  3: 0x08BC [0x20] SET_CLI_EVENT_UC_FLAG: Lock player control
  4: 0x08BE [0x42] SET_CLI_EVENT_CANCEL_DATA()
  5: 0x08BF [0x43] SEND_EVENT_UPDATE: Send pending tag to server (packet 0x005B)
  6: 0x08C1 [0x43] SEND_EVENT_UPDATE: Check pending flag (skip if not pending)
  7: 0x08C3 [0x62] LOAD_EVENT_SCHEDULER: Load scheduler "main" with entities [EventEntity, EventEntity], work=[1*, 0*]
  8: 0x08D4 [0x1C] WAIT(180* ticks)
  9: 0x08D7 [0x47] UPDATE_PLAYER_POS(-93.832*, -67.405*, 0.074*, yaw=103.5°*)
 10: 0x08E1 [0x47] WAIT_PLAYER_POS_UPDATE
 11: 0x08E3 [0x62] LOAD_EVENT_SCHEDULER: Load scheduler "main" with entities [EventEntity, EventEntity], work=[2*, 0*]
 12: 0x08F4 [0x1C] WAIT(180* ticks)
 13: 0x08F7 [0x03] Work_Zone[1] = 1*
 14: 0x08FC [0x01] GOTO 0x090F
 15: 0x08FF [0x02] IF !(Work_Zone[0] == 1*) GOTO 0x090F
 16: 0x0907 [0x03] Work_Zone[1] = 1*
 17: 0x090C [0x01] GOTO 0x090F

SUBROUTINE_090F:
 18: 0x090F [0x20] SET_CLI_EVENT_UC_FLAG: Unlock player control
 19: 0x0911 [0x21] END_EVENT
 20: 0x0912 [0x00] END_REQSTACK()
```

### Event 17

#### Metadata

| Field        | Value     |
|--------------|-----------|
| Entrypoint   | 0x0913    |
| Data Size    | 103 bytes |
| Instructions | 21        |

```
      00 01 02 03 04 05 06 07  08 09 0A 0B 0C 0D 0E 0F
      -- -- -- -- -- -- -- --  -- -- -- -- -- -- -- --
0910:          24 00 80 01 80  02 80 25 02 00 10 02 80     $......%.....
0920: 00 66 09 20 01 42 43 00  43 01 62 01 80 F8 FF FF  .f. .BC.C.b.....
0930: 7F F8 FF FF 7F 6D 61 69  6E 02 80 1C 03 80 47 00  .....main.....G.
0940: 88 80 89 80 8A 80 8B 80  47 01 62 08 80 F8 FF FF  ........G.b.....
0950: 7F F8 FF FF 7F 6D 61 69  6E 02 80 1C 03 80 03 01  .....main.......
0960: 10 01 80 01 76 09 02 00  10 01 80 00 76 09 03 01  ....v.......v...
0970: 10 01 80 01 76 09 20 00  21 00                    ....v. .!.      
```

#### Opcodes

```
  0: 0x0913 [0x24] CREATE_DIALOG(message_id=7327*, default_option=1*, option_flags=0*)
    → "Use the portal? [Yes./No.]"
  1: 0x091A [0x25] WAIT_DIALOG_SELECT()
  2: 0x091B [0x02] IF !(Work_Zone[0] == 0*) GOTO 0x0966
  3: 0x0923 [0x20] SET_CLI_EVENT_UC_FLAG: Lock player control
  4: 0x0925 [0x42] SET_CLI_EVENT_CANCEL_DATA()
  5: 0x0926 [0x43] SEND_EVENT_UPDATE: Send pending tag to server (packet 0x005B)
  6: 0x0928 [0x43] SEND_EVENT_UPDATE: Check pending flag (skip if not pending)
  7: 0x092A [0x62] LOAD_EVENT_SCHEDULER: Load scheduler "main" with entities [EventEntity, EventEntity], work=[1*, 0*]
  8: 0x093B [0x1C] WAIT(180* ticks)
  9: 0x093E [0x47] UPDATE_PLAYER_POS(108.079*, -53.303*, 0.087*, yaw=100.5°*)
 10: 0x0948 [0x47] WAIT_PLAYER_POS_UPDATE
 11: 0x094A [0x62] LOAD_EVENT_SCHEDULER: Load scheduler "main" with entities [EventEntity, EventEntity], work=[2*, 0*]
 12: 0x095B [0x1C] WAIT(180* ticks)
 13: 0x095E [0x03] Work_Zone[1] = 1*
 14: 0x0963 [0x01] GOTO 0x0976
 15: 0x0966 [0x02] IF !(Work_Zone[0] == 1*) GOTO 0x0976
 16: 0x096E [0x03] Work_Zone[1] = 1*
 17: 0x0973 [0x01] GOTO 0x0976

SUBROUTINE_0976:
 18: 0x0976 [0x20] SET_CLI_EVENT_UC_FLAG: Unlock player control
 19: 0x0978 [0x21] END_EVENT
 20: 0x0979 [0x00] END_REQSTACK()
```

### Event 18

#### Metadata

| Field        | Value     |
|--------------|-----------|
| Entrypoint   | 0x097A    |
| Data Size    | 103 bytes |
| Instructions | 21        |

```
      00 01 02 03 04 05 06 07  08 09 0A 0B 0C 0D 0E 0F
      -- -- -- -- -- -- -- --  -- -- -- -- -- -- -- --
0970:                                24 00 80 01 80 02            $.....
0980: 80 25 02 00 10 02 80 00  CD 09 20 01 42 43 00 43  .%........ .BC.C
0990: 01 62 01 80 F8 FF FF 7F  F8 FF FF 7F 6D 61 69 6E  .b..........main
09A0: 02 80 1C 03 80 47 00 88  80 89 80 8A 80 8B 80 47  .....G.........G
09B0: 01 62 08 80 F8 FF FF 7F  F8 FF FF 7F 6D 61 69 6E  .b..........main
09C0: 02 80 1C 03 80 03 01 10  01 80 01 DD 09 02 00 10  ................
09D0: 01 80 00 DD 09 03 01 10  01 80 01 DD 09 20 00 21  ............. .!
09E0: 00                                                .               
```

#### Opcodes

```
  0: 0x097A [0x24] CREATE_DIALOG(message_id=7327*, default_option=1*, option_flags=0*)
    → "Use the portal? [Yes./No.]"
  1: 0x0981 [0x25] WAIT_DIALOG_SELECT()
  2: 0x0982 [0x02] IF !(Work_Zone[0] == 0*) GOTO 0x09CD
  3: 0x098A [0x20] SET_CLI_EVENT_UC_FLAG: Lock player control
  4: 0x098C [0x42] SET_CLI_EVENT_CANCEL_DATA()
  5: 0x098D [0x43] SEND_EVENT_UPDATE: Send pending tag to server (packet 0x005B)
  6: 0x098F [0x43] SEND_EVENT_UPDATE: Check pending flag (skip if not pending)
  7: 0x0991 [0x62] LOAD_EVENT_SCHEDULER: Load scheduler "main" with entities [EventEntity, EventEntity], work=[1*, 0*]
  8: 0x09A2 [0x1C] WAIT(180* ticks)
  9: 0x09A5 [0x47] UPDATE_PLAYER_POS(108.079*, -53.303*, 0.087*, yaw=100.5°*)
 10: 0x09AF [0x47] WAIT_PLAYER_POS_UPDATE
 11: 0x09B1 [0x62] LOAD_EVENT_SCHEDULER: Load scheduler "main" with entities [EventEntity, EventEntity], work=[2*, 0*]
 12: 0x09C2 [0x1C] WAIT(180* ticks)
 13: 0x09C5 [0x03] Work_Zone[1] = 1*
 14: 0x09CA [0x01] GOTO 0x09DD
 15: 0x09CD [0x02] IF !(Work_Zone[0] == 1*) GOTO 0x09DD
 16: 0x09D5 [0x03] Work_Zone[1] = 1*
 17: 0x09DA [0x01] GOTO 0x09DD

SUBROUTINE_09DD:
 18: 0x09DD [0x20] SET_CLI_EVENT_UC_FLAG: Unlock player control
 19: 0x09DF [0x21] END_EVENT
 20: 0x09E0 [0x00] END_REQSTACK()
```

### Event 19

#### Metadata

| Field        | Value     |
|--------------|-----------|
| Entrypoint   | 0x09E1    |
| Data Size    | 103 bytes |
| Instructions | 21        |

```
      00 01 02 03 04 05 06 07  08 09 0A 0B 0C 0D 0E 0F
      -- -- -- -- -- -- -- --  -- -- -- -- -- -- -- --
09E0:    24 00 80 01 80 02 80  25 02 00 10 02 80 00 34   $......%......4
09F0: 0A 20 01 42 43 00 43 01  62 01 80 F8 FF FF 7F F8  . .BC.C.b.......
0A00: FF FF 7F 6D 61 69 6E 02  80 1C 03 80 47 00 84 80  ...main.....G...
0A10: 85 80 86 80 87 80 47 01  62 08 80 F8 FF FF 7F F8  ......G.b.......
0A20: FF FF 7F 6D 61 69 6E 02  80 1C 03 80 03 01 10 01  ...main.........
0A30: 80 01 44 0A 02 00 10 01  80 00 44 0A 03 01 10 01  ..D.......D.....
0A40: 80 01 44 0A 20 00 21 00                           ..D. .!.        
```

#### Opcodes

```
  0: 0x09E1 [0x24] CREATE_DIALOG(message_id=7327*, default_option=1*, option_flags=0*)
    → "Use the portal? [Yes./No.]"
  1: 0x09E8 [0x25] WAIT_DIALOG_SELECT()
  2: 0x09E9 [0x02] IF !(Work_Zone[0] == 0*) GOTO 0x0A34
  3: 0x09F1 [0x20] SET_CLI_EVENT_UC_FLAG: Lock player control
  4: 0x09F3 [0x42] SET_CLI_EVENT_CANCEL_DATA()
  5: 0x09F4 [0x43] SEND_EVENT_UPDATE: Send pending tag to server (packet 0x005B)
  6: 0x09F6 [0x43] SEND_EVENT_UPDATE: Check pending flag (skip if not pending)
  7: 0x09F8 [0x62] LOAD_EVENT_SCHEDULER: Load scheduler "main" with entities [EventEntity, EventEntity], work=[1*, 0*]
  8: 0x0A09 [0x1C] WAIT(180* ticks)
  9: 0x0A0C [0x47] UPDATE_PLAYER_POS(-93.832*, -67.405*, 0.074*, yaw=103.5°*)
 10: 0x0A16 [0x47] WAIT_PLAYER_POS_UPDATE
 11: 0x0A18 [0x62] LOAD_EVENT_SCHEDULER: Load scheduler "main" with entities [EventEntity, EventEntity], work=[2*, 0*]
 12: 0x0A29 [0x1C] WAIT(180* ticks)
 13: 0x0A2C [0x03] Work_Zone[1] = 1*
 14: 0x0A31 [0x01] GOTO 0x0A44
 15: 0x0A34 [0x02] IF !(Work_Zone[0] == 1*) GOTO 0x0A44
 16: 0x0A3C [0x03] Work_Zone[1] = 1*
 17: 0x0A41 [0x01] GOTO 0x0A44

SUBROUTINE_0A44:
 18: 0x0A44 [0x20] SET_CLI_EVENT_UC_FLAG: Unlock player control
 19: 0x0A46 [0x21] END_EVENT
 20: 0x0A47 [0x00] END_REQSTACK()
```

### Event 65535.1

#### Metadata

| Field        | Value    |
|--------------|----------|
| Entrypoint   | 0x0A48   |
| Data Size    | 10 bytes |
| Instructions | 2        |

```
      00 01 02 03 04 05 06 07  08 09 0A 0B 0C 0D 0E 0F
      -- -- -- -- -- -- -- --  -- -- -- -- -- -- -- --
0A40:                          37 8C 80 8D 80 8E 80 8F          7.......
0A50: 80 00                                             ..              
```

#### Opcodes

```
  0: 0x0A48 [0x37] UPDATE_EVENT_POSITION_AND_DIR: x=-39.966*, z=-170.609*, y=-0.215*, direction=268.4°*
  1: 0x0A51 [0x00] END_REQSTACK()
```

### Event 65535.2

#### Metadata

| Field        | Value    |
|--------------|----------|
| Entrypoint   | 0x0A52   |
| Data Size    | 15 bytes |
| Instructions | 5        |

```
      00 01 02 03 04 05 06 07  08 09 0A 0B 0C 0D 0E 0F
      -- -- -- -- -- -- -- --  -- -- -- -- -- -- -- --
0A50:       32 90 80 1F 00 91  80 92 80 93 80 1F 01 6F    2............o
0A60: 00                                                .               
```

#### Opcodes

```
  0: 0x0A52 [0x32] ExtData[1]->MainSpeed = 10* * 0.1
  1: 0x0A55 [0x1F] MOVE_ENTITY: EventEntity moves to X=-39.953*, Z=-166.854*, Y=-0.398*
  2: 0x0A5D [0x1F] MOVE_ENTITY: Update entity position (mode=1)
  3: 0x0A5F [0x6F] WAIT_FRAME_DELAY: Yield until WaitTime reaches zero
  4: 0x0A60 [0x00] END_REQSTACK()
```

### Event 65535.3

#### Metadata

| Field        | Value    |
|--------------|----------|
| Entrypoint   | 0x0A61   |
| Data Size    | 10 bytes |
| Instructions | 2        |

```
      00 01 02 03 04 05 06 07  08 09 0A 0B 0C 0D 0E 0F
      -- -- -- -- -- -- -- --  -- -- -- -- -- -- -- --
0A60:    37 94 80 95 80 96 80  97 80 00                  7.........     
```

#### Opcodes

```
  0: 0x0A61 [0x37] UPDATE_EVENT_POSITION_AND_DIR: x=-39.997*, z=-150.228*, y=-0.750*, direction=268.3°*
  1: 0x0A6A [0x00] END_REQSTACK()
```

### Event 65535.4

#### Metadata

| Field        | Value    |
|--------------|----------|
| Entrypoint   | 0x0A6B   |
| Data Size    | 25 bytes |
| Instructions | 4        |

```
      00 01 02 03 04 05 06 07  08 09 0A 0B 0C 0D 0E 0F
      -- -- -- -- -- -- -- --  -- -- -- -- -- -- -- --
0A60:                                   92 01 F0 FF FF             .....
0A70: 7F 6C F8 FF FF 7F 02 80  01 80 37 98 80 99 80 9A  .l........7.....
0A80: 80 9B 80 00                                       ....            
```

#### Opcodes

```
  0: 0x0A6B [0x92] LocalPlayer->Render.Flags3 ^= 0x01
  1: 0x0A71 [0x6C] FADE_ENTITY_COLOR(entity_id=EventEntity, end_alpha=0*, fade_time=1*)
  2: 0x0A7A [0x37] UPDATE_EVENT_POSITION_AND_DIR: x=-0.589*, z=63.431*, y=-29.324*, direction=313.3°*
  3: 0x0A83 [0x00] END_REQSTACK()
```

### Event 65535.5

#### Metadata

| Field        | Value    |
|--------------|----------|
| Entrypoint   | 0x0A84   |
| Data Size    | 10 bytes |
| Instructions | 2        |

```
      00 01 02 03 04 05 06 07  08 09 0A 0B 0C 0D 0E 0F
      -- -- -- -- -- -- -- --  -- -- -- -- -- -- -- --
0A80:             37 9C 80 9D  80 93 80 9E 80 00            7.........  
```

#### Opcodes

```
  0: 0x0A84 [0x37] UPDATE_EVENT_POSITION_AND_DIR: x=-39.968*, z=-152.781*, y=-0.398*, direction=269.8°*
  1: 0x0A8D [0x00] END_REQSTACK()
```
