# Event 109

## Metadata

| Field           | Value    |
|-----------------|----------|
| Event Index     | 7/10     |
| Offset          | 0x0089   |
| Data Size       | 67 bytes |
| Calculated Size | 67 bytes |
| Instructions    | 12       |

```
      00 01 02 03 04 05 06 07  08 09 0A 0B 0C 0D 0E 0F
      -- -- -- -- -- -- -- --  -- -- -- -- -- -- -- --
0080:                             03 09 10 17 80 20 01           ..... .
0090: 42 1E F0 FF FF 7F 1C 1B  80 5B 19 80 F8 FF FF 7F  B........[......
00A0: F8 FF FF 7F 70 61 73 30  1D 1C 80 23 53 F8 FF FF  ....pas0...#S...
00B0: 7F F8 FF FF 7F 70 61 73  30 45 1D 80 F0 FF FF 7F  .....pas0E......
00C0: F0 FF FF 7F 71 73 74 63  08 80 21 00              ....qstc..!.    
```

## Opcodes

```
  0: 0x0089 [0x03] Work_Zone[9] = 560*
  1: 0x008E [0x20] SET_CLI_EVENT_UC_FLAG: Lock player control
  2: 0x0090 [0x42] SET_CLI_EVENT_CANCEL_DATA()
  3: 0x0091 [0x1E] EventEntity looks at LocalPlayer and starts talking
  4: 0x0096 [0x1C] WAIT(10* ticks)
  5: 0x0099 [0x5B] LOAD_EXT_SCHEDULER: Load scheduler "pas0" with entities [EventEntity, EventEntity], work=55*
  6: 0x00A8 [0x1D] PRINT_EVENT_MESSAGE(message_id=10816*)
    → "Good work!\u0007We could use more people like you!\u007F1\u0000\u0007"
  7: 0x00AB [0x23] WAIT_FOR_DIALOG_INTERACTION
  8: 0x00AC [0x53] WAIT_SCHEDULER_TASK: Wait for scheduler "pas0" with entities [EventEntity, EventEntity]
  9: 0x00B9 [0x45] LOAD_SCHEDULED_TASK: Load scheduler "qstc" with entities [LocalPlayer, LocalPlayer], work=[201*, 0*]
 10: 0x00CA [0x21] END_EVENT
 11: 0x00CB [0x00] END_REQSTACK()
```
