# Event 2001

## Metadata

| Field           | Value     |
|-----------------|-----------|
| Event Index     | 2/2       |
| Offset          | 0x0001    |
| Data Size       | 805 bytes |
| Calculated Size | 805 bytes |
| Instructions    | 212       |

```
      00 01 02 03 04 05 06 07  08 09 0A 0B 0C 0D 0E 0F
      -- -- -- -- -- -- -- --  -- -- -- -- -- -- -- --
0000:    1E F0 FF FF 7F 1D 00  80 23 1D 01 80 23 1A DA   ........#...#..
0010: 02 24 02 80 03 80 03 80  25 02 00 10 03 80 00 29  .$......%......)
0020: 00 03 01 10 04 80 01 00  01 02 00 10 04 80 00 92  ................
0030: 00 02 04 00 03 80 01 4A  00 1D 05 80 23 03 01 10  .......J....#...
0040: 04 80 03 09 00 04 80 01  8F 00 02 88 7F 06 80 03  ................
0050: 63 00 1D 07 80 23 03 01  10 04 80 03 09 00 08 80  c....#..........
0060: 01 8F 00 3E 05 00 8B 7F  70 00 01 77 01 01 8F 00  ...>....p..w....
0070: 3E 05 00 08 80 7D 00 01  03 01 01 8F 00 1D 09 80  >....}..........
0080: 23 1D 0A 80 23 03 01 10  04 80 03 09 00 0B 80 01  #...#...........
0090: 00 01 02 00 10 08 80 00  B8 00 1D 0C 80 23 1D 0D  .............#..
00A0: 80 23 1D 0E 80 23 1D 0F  80 23 1D 10 80 23 1D 11  .#...#...#...#..
00B0: 80 23 01 11 00 01 00 01  02 00 10 0B 80 00 D2 00  .#..............
00C0: 1D 12 80 23 1D 13 80 23  1D 14 80 23 01 11 00 01  ...#...#...#....
00D0: 00 01 02 00 10 15 80 00  00 01 1D 16 80 23 1D 17  .............#..
00E0: 80 23 1D 18 80 23 1D 19  80 23 1D 1A 80 23 1D 1B  .#...#...#...#..
00F0: 80 23 1D 1C 80 23 1D 1D  80 23 01 11 00 01 00 01  .#...#...#......
0100: 01 1F 03 02 02 00 03 80  01 31 01 02 02 00 01 00  .........1......
0110: 01 24 01 1D 1E 80 23 03  01 10 04 80 03 09 00 15  .$....#.........
0120: 80 01 2E 01 03 01 10 08  80 03 09 00 1F 80 01 74  ...............t
0130: 01 03 03 10 01 00 1D 20  80 23 24 21 80 04 80 03  ....... .#$!....
0140: 80 25 02 00 10 03 80 00  5F 01 1D 22 80 23 1D 23  .%......_..".#.#
0150: 80 23 03 01 10 08 80 03  09 00 24 80 01 74 01 02  .#........$..t..
0160: 00 10 04 80 00 74 01 03  01 10 04 80 03 09 00 03  .....t..........
0170: 80 01 74 01 01 1F 03 02  07 00 03 80 00 94 01 1D  ..t.............
0180: 09 80 23 1D 0A 80 23 03  01 10 04 80 03 09 00 25  ..#...#........%
0190: 80 01 D0 01 02 8B 7F 08  00 00 B1 01 1D 09 80 23  ...............#
01A0: 1D 0A 80 23 03 01 10 04  80 03 09 00 26 80 01 D0  ...#........&...
01B0: 01 3E 06 00 08 00 BE 01  01 D3 01 01 D0 01 1D 09  .>..............
01C0: 80 23 1D 0A 80 23 03 01  10 04 80 03 09 00 27 80  .#...#........'.
01D0: 01 1F 03 02 02 00 03 80  01 33 02 02 02 00 01 00  .........3......
01E0: 01 F4 01 1D 1E 80 23 03  01 10 04 80 03 09 00 28  ......#........(
01F0: 80 01 30 02 02 03 00 03  80 01 26 02 02 03 00 01  ..0.......&.....
0200: 00 01 19 02 1D 29 80 23  1D 2A 80 23 03 01 10 04  .....).#.*.#....
0210: 80 03 09 00 2B 80 01 23  02 03 01 10 15 80 03 09  ....+..#........
0220: 00 2C 80 01 30 02 03 01  10 15 80 03 09 00 2D 80  .,..0.........-.
0230: 01 D7 02 02 03 00 03 80  01 99 02 02 03 00 01 00  ................
0240: 01 58 02 1D 29 80 23 1D  2A 80 23 03 01 10 04 80  .X..).#.*.#.....
0250: 03 09 00 2E 80 01 96 02  1D 2F 80 23 24 21 80 04  ........./.#$!..
0260: 80 03 80 25 02 00 10 03  80 00 81 02 1D 22 80 23  ...%.........".#
0270: 1D 23 80 23 03 01 10 15  80 03 09 00 30 80 01 96  .#.#........0...
0280: 02 02 00 10 04 80 00 96  02 03 01 10 04 80 03 09  ................
0290: 00 03 80 01 96 02 01 D7  02 1D 2F 80 23 24 21 80  ........../.#$!.
02A0: 04 80 03 80 25 02 00 10  03 80 00 C2 02 1D 22 80  ....%.........".
02B0: 23 1D 23 80 23 03 01 10  15 80 03 09 00 31 80 01  #.#.#........1..
02C0: D7 02 02 00 10 04 80 00  D7 02 03 01 10 04 80 03  ................
02D0: 09 00 03 80 01 D7 02 01  1F 03 41 03 80 04 80 02  ..........A.....
02E0: 10 01 00 41 08 80 0B 80  02 10 02 00 41 15 80 26  ...A........A..&
02F0: 80 02 10 04 00 41 27 80  32 80 02 10 05 00 41 33  .....A'.2.....A3
0300: 80 2B 80 02 10 06 00 41  2E 80 2E 80 02 10 08 00  .+.....A........
0310: 41 34 80 35 80 02 10 03  00 03 07 00 03 10 1B 03  A4.5............
0320: 02 10 09 00 21 00                                 ....!.          
```

## Opcodes

```
  0: 0x0001 [0x1E] EventEntity looks at LocalPlayer and starts talking
  1: 0x0006 [0x1D] PRINT_EVENT_MESSAGE(message_id=10816*)
    → "Greetings, friend. I am Registrar Cloud Walker.\u0007My duty is to issue marriage certificates to married couples.\u007F1\u0000\u0007"
  2: 0x0009 [0x23] WAIT_FOR_DIALOG_INTERACTION
  3: 0x000A [0x1D] PRINT_EVENT_MESSAGE(message_id=10817*)
    → "What can I do for you today?\u007F1\u0000\u0007"
  4: 0x000D [0x23] WAIT_FOR_DIALOG_INTERACTION
  5: 0x000E [0x1A] CALL_SUBROUTINE(address=0x02DA)
  6: 0x0011 [0x24] CREATE_DIALOG(message_id=10846*, default_option=0*, option_flags=0*)
    → "What would you like to do?\u0007\u000BNothing.\u0007Request a marriage certificate.\u0007Learn about marriage certificates.\u0007Learn about wedding ceremonies.\u0007Learn about ceremonial items.\u007F1\u0000\u0007"
  7: 0x0018 [0x25] WAIT_DIALOG_SELECT()
  8: 0x0019 [0x02] IF !(Work_Zone[0] == 0*) GOTO 0x0029
  9: 0x0021 [0x03] Work_Zone[1] = 1*
 10: 0x0026 [0x01] GOTO 0x0100

SUBROUTINE_0029:
 11: 0x0029 [0x02] IF !(Work_Zone[0] == 1*) GOTO 0x0092
 12: 0x0031 [0x02] IF !(ExtData[1]->WorkLocal[4] == 0*) GOTO 0x004A
 13: 0x0039 [0x1D] PRINT_EVENT_MESSAGE(message_id=10835*)
    → "It looks like you already have a marriage certificate in your possession.\u0007I'm afraid I'm not authorized to issue you another.\u007F1\u0000\u0007"
 14: 0x003C [0x23] WAIT_FOR_DIALOG_INTERACTION
 15: 0x003D [0x03] Work_Zone[1] = 1*
 16: 0x0042 [0x03] ExtData[1]->WorkLocal[9] = 1*
 17: 0x0047 [0x01] GOTO 0x008F

SUBROUTINE_004A:
 18: 0x004A [0x02] IF !(LocalPlayer->JobLevel >= 20*) GOTO 0x0063
 19: 0x0052 [0x1D] PRINT_EVENT_MESSAGE(message_id=10836*)
    → "Your current job level must be level 
\u0002 or higher if you wish to receive a marriage certificate.\u007F1\u0000\u0007"
 20: 0x0055 [0x23] WAIT_FOR_DIALOG_INTERACTION
 21: 0x0056 [0x03] Work_Zone[1] = 1*
 22: 0x005B [0x03] ExtData[1]->WorkLocal[9] = 2*
 23: 0x0060 [0x01] GOTO 0x008F

SUBROUTINE_0063:
 24: 0x0063 [0x3E] IF !(ExtData[1]->WorkLocal[5] bit (LocalPlayer->Render.Flags01 >> 25) & 1) GOTO 0x0070
 25: 0x006A [0x01] GOTO 0x0177

SUBROUTINE_0070:
 26: 0x0070 [0x3E] IF !(ExtData[1]->WorkLocal[5] bit 2*) GOTO 0x007D
 27: 0x0077 [0x01] GOTO 0x0103

SUBROUTINE_007D:
 28: 0x007D [0x1D] PRINT_EVENT_MESSAGE(message_id=10837*)
    → "I'm afraid I'm not authorized to issue you a marriage certificate.\u007F1\u0000\u0007"
 29: 0x0080 [0x23] WAIT_FOR_DIALOG_INTERACTION
 30: 0x0081 [0x1D] PRINT_EVENT_MESSAGE(message_id=10838*)
    → "Married couples wishing to receive marriage certificates should form a party while the husband is wearing his \u001E\u0005matrimony ring\u001E\u0001, and his wife, her \u001E\u0005matrimony band\u001E\u0001. After that, speak to an official in charge, and the certificates will be drawn up for you.\u007F1\u0000\u0007"
 31: 0x0084 [0x23] WAIT_FOR_DIALOG_INTERACTION
 32: 0x0085 [0x03] Work_Zone[1] = 1*
 33: 0x008A [0x03] ExtData[1]->WorkLocal[9] = 3*
 34: 0x008F [0x01] GOTO 0x0100

SUBROUTINE_0092:
 35: 0x0092 [0x02] IF !(Work_Zone[0] == 2*) GOTO 0x00B8
 36: 0x009A [0x1D] PRINT_EVENT_MESSAGE(message_id=10818*)
    → "The marriage certificate is a legal document issued in recognition of the matrimony of two individuals.\u0007It can also be used as a wall decoration for your Mog House.\u007F1\u0000\u0007"
 37: 0x009D [0x23] WAIT_FOR_DIALOG_INTERACTION
 38: 0x009E [0x1D] PRINT_EVENT_MESSAGE(message_id=10819*)
    → "Couples wishing to receive the certificate must show proof of their marriage, and this can be done in a number of ways.\u007F1\u0000\u0007"
 39: 0x00A1 [0x23] WAIT_FOR_DIALOG_INTERACTION
 40: 0x00A2 [0x1D] PRINT_EVENT_MESSAGE(message_id=10820*)
    → "The couple should form a party while the husband is wearing his \u001E\u0005matrimony ring\u001E\u0001, and his wife, her \u001E\u0005matrimony band\u001E\u0001.\u0007After that, speak to me, and I'll draw up the certificates for you.\u007F1\u0000\u0007"
 41: 0x00A5 [0x23] WAIT_FOR_DIALOG_INTERACTION
 42: 0x00A6 [0x1D] PRINT_EVENT_MESSAGE(message_id=10821*)
    → "But if you possess a \u001E\u0005wedding ring\u001E\u0001, the procedure can be completed on your own.\u007F1\u0000\u0007"
 43: 0x00A9 [0x23] WAIT_FOR_DIALOG_INTERACTION
 44: 0x00AA [0x1D] PRINT_EVENT_MESSAGE(message_id=10822*)
    → "Keep in mind though, that you can't have more than one certificate at any given time.\u0007Also, the nation of issuance for your certificate must be the same as your partner's.\u007F1\u0000\u0007"
 45: 0x00AD [0x23] WAIT_FOR_DIALOG_INTERACTION
 46: 0x00AE [0x1D] PRINT_EVENT_MESSAGE(message_id=10823*)
    → "One last thing. A misplaced certificate can be reissued, but only by the same officiating body that you originally received it from.\u007F1\u0000\u0007"
 47: 0x00B1 [0x23] WAIT_FOR_DIALOG_INTERACTION
 48: 0x00B2 [0x01] GOTO 0x0011

SUBROUTINE_00B8:
 49: 0x00B8 [0x02] IF !(Work_Zone[0] == 3*) GOTO 0x00D2
 50: 0x00C0 [0x1D] PRINT_EVENT_MESSAGE(message_id=10824*)
    → "A wedding is a joyful occasion in which two souls brought together by fate are joined as partners in life.\u007F1\u0000\u0007"
 51: 0x00C3 [0x23] WAIT_FOR_DIALOG_INTERACTION
 52: 0x00C4 [0x1D] PRINT_EVENT_MESSAGE(message_id=10825*)
    → "In Bastok, it's customary for the bride and groom to swear an oath of endless love in the presence of witnesses. After which, wedding rings are exchanged.\u007F1\u0000\u0007"
 53: 0x00C7 [0x23] WAIT_FOR_DIALOG_INTERACTION
 54: 0x00C8 [0x1D] PRINT_EVENT_MESSAGE(message_id=10826*)
    → "To conclude the proceedings, all those present join in a toast with \u001E\u0005bottles of grape juice\u001E\u0001 in hand and share in the newly joined couple's happiness.\u007F1\u0000\u0007"
 55: 0x00CB [0x23] WAIT_FOR_DIALOG_INTERACTION
 56: 0x00CC [0x01] GOTO 0x0011

SUBROUTINE_00D2:
 57: 0x00D2 [0x02] IF !(Work_Zone[0] == 4*) GOTO 0x0100
 58: 0x00DA [0x1D] PRINT_EVENT_MESSAGE(message_id=10827*)
    → "First of all, you'll need to prepare wedding rings--a \u001E\u0005matrimony ring\u001E\u0001 and a \u001E\u0005matrimony band\u001E\u0001, to be precise.\u007F1\u0000\u0007"
 59: 0x00DD [0x23] WAIT_FOR_DIALOG_INTERACTION
 60: 0x00DE [0x1D] PRINT_EVENT_MESSAGE(message_id=10828*)
    → "As their synthesis requires rare, hard-to-find ingredients, there truly is no better token of undying devotion between two people.\u007F1\u0000\u0007"
 61: 0x00E1 [0x23] WAIT_FOR_DIALOG_INTERACTION
 62: 0x00E2 [0x1D] PRINT_EVENT_MESSAGE(message_id=10829*)
    → "Before you present the ring to your partner, you should consider engraving your name onto it using a \u001E\u0005cyclone crystal\u001E\u0001.\u0007This practice is widespread among adventurers nowadays.\u007F1\u0000\u0007"
 63: 0x00E5 [0x23] WAIT_FOR_DIALOG_INTERACTION
 64: 0x00E6 [0x1D] PRINT_EVENT_MESSAGE(message_id=10830*)
    → "You'll also find that \u001E\u0005benedight coats\u001E\u0001 and \u001E\u0005wedding dresses\u001E\u0001 are popular as ceremonial attire for men and women, respectively.\u007F1\u0000\u0007"
 65: 0x00E9 [0x23] WAIT_FOR_DIALOG_INTERACTION
 66: 0x00EA [0x1D] PRINT_EVENT_MESSAGE(message_id=10831*)
    → "Similar garments exist that can be synthesized. Whether you perform the synthesis yourself or employ a friend to do so, though, is entirely your decision. Gathering the needed ingredients can be pricey, but it's for this reason they're highly valued.\u007F1\u0000\u0007"
 67: 0x00ED [0x23] WAIT_FOR_DIALOG_INTERACTION
 68: 0x00EE [0x1D] PRINT_EVENT_MESSAGE(message_id=10832*)
    → "There's no need to feel dejected, though, if they don't fall within your budget.\u0007There's no law dictating what couples have to wear at their own wedding, after all.\u007F1\u0000\u0007"
 69: 0x00F1 [0x23] WAIT_FOR_DIALOG_INTERACTION
 70: 0x00F2 [0x1D] PRINT_EVENT_MESSAGE(message_id=10833*)
    → "If you have trouble obtaining any of the ceremonial items I've mentioned, they can also be purchased from the chests you see here.\u007F1\u0000\u0007"
 71: 0x00F5 [0x23] WAIT_FOR_DIALOG_INTERACTION
 72: 0x00F6 [0x1D] PRINT_EVENT_MESSAGE(message_id=10834*)
    → "Fireworks, \u001E\u0005wedding bells\u001E\u0001, and the like are also available to help add flavor to your special day, so feel free to purchase whatever you need.\u007F1\u0000\u0007"
 73: 0x00F9 [0x23] WAIT_FOR_DIALOG_INTERACTION
 74: 0x00FA [0x01] GOTO 0x0011

SUBROUTINE_0100:
 75: 0x0100 [0x01] GOTO 0x031F

SUBROUTINE_0103:
 76: 0x0103 [0x02] IF !(ExtData[1]->WorkLocal[2] == 0*) GOTO 0x0131
 77: 0x010B [0x02] IF !(ExtData[1]->WorkLocal[2] == ExtData[1]->WorkLocal[1]) GOTO 0x0124
 78: 0x0113 [0x1D] PRINT_EVENT_MESSAGE(message_id=10839*)
    → "It looks like you've already been issued a marriage certificate by another nation.\u0007A misplaced certificate can be reissued, but only by the same officiating body that you originally received it from.\u007F1\u0000\u0007"
 79: 0x0116 [0x23] WAIT_FOR_DIALOG_INTERACTION
 80: 0x0117 [0x03] Work_Zone[1] = 1*
 81: 0x011C [0x03] ExtData[1]->WorkLocal[9] = 4*
 82: 0x0121 [0x01] GOTO 0x012E

SUBROUTINE_0124:
 83: 0x0124 [0x03] Work_Zone[1] = 2*
 84: 0x0129 [0x03] ExtData[1]->WorkLocal[9] = 100*
 85: 0x012E [0x01] GOTO 0x0174

SUBROUTINE_0131:
 86: 0x0131 [0x03] Work_Zone[3] = ExtData[1]->WorkLocal[1]
 87: 0x0136 [0x1D] PRINT_EVENT_MESSAGE(message_id=10843*)
    → "Accepting a marriage certificate from our nation will render you ineligible to receive one from another.\u007F1\u0000\u0007"
 88: 0x0139 [0x23] WAIT_FOR_DIALOG_INTERACTION
 89: 0x013A [0x24] CREATE_DIALOG(message_id=10847*, default_option=1*, option_flags=0*)
    → "Have a marriage certificate issued?\u0007\u000BYes.\u0007No.\u007F1\u0000\u0007"
 90: 0x0141 [0x25] WAIT_DIALOG_SELECT()
 91: 0x0142 [0x02] IF !(Work_Zone[0] == 0*) GOTO 0x015F
 92: 0x014A [0x1D] PRINT_EVENT_MESSAGE(message_id=10844*)
    → "By the power vested in me by the Republic of Bastok, I hereby pronounce you husband and wife.\u007F1\u0000\u0007"
 93: 0x014D [0x23] WAIT_FOR_DIALOG_INTERACTION
 94: 0x014E [0x1D] PRINT_EVENT_MESSAGE(message_id=10845*)
    → "You are all now officially permitted to eat, drink, sing, and have a joyous night!\u007F1\u0000\u0007"
 95: 0x0151 [0x23] WAIT_FOR_DIALOG_INTERACTION
 96: 0x0152 [0x03] Work_Zone[1] = 2*
 97: 0x0157 [0x03] ExtData[1]->WorkLocal[9] = 101*
 98: 0x015C [0x01] GOTO 0x0174

SUBROUTINE_015F:
 99: 0x015F [0x02] IF !(Work_Zone[0] == 1*) GOTO 0x0174
100: 0x0167 [0x03] Work_Zone[1] = 1*
101: 0x016C [0x03] ExtData[1]->WorkLocal[9] = 0*
102: 0x0171 [0x01] GOTO 0x0174

SUBROUTINE_0174:
103: 0x0174 [0x01] GOTO 0x031F

SUBROUTINE_0177:
104: 0x0177 [0x02] IF !(ExtData[1]->WorkLocal[7] == 0*) GOTO 0x0194
105: 0x017F [0x1D] PRINT_EVENT_MESSAGE(message_id=10837*)
    → "I'm afraid I'm not authorized to issue you a marriage certificate.\u007F1\u0000\u0007"
106: 0x0182 [0x23] WAIT_FOR_DIALOG_INTERACTION
107: 0x0183 [0x1D] PRINT_EVENT_MESSAGE(message_id=10838*)
    → "Married couples wishing to receive marriage certificates should form a party while the husband is wearing his \u001E\u0005matrimony ring\u001E\u0001, and his wife, her \u001E\u0005matrimony band\u001E\u0001. After that, speak to an official in charge, and the certificates will be drawn up for you.\u007F1\u0000\u0007"
108: 0x0186 [0x23] WAIT_FOR_DIALOG_INTERACTION
109: 0x0187 [0x03] Work_Zone[1] = 1*
110: 0x018C [0x03] ExtData[1]->WorkLocal[9] = 5*
111: 0x0191 [0x01] GOTO 0x01D0

SUBROUTINE_0194:
112: 0x0194 [0x02] IF !((LocalPlayer->Render.Flags01 >> 25) & 1 == ExtData[1]->WorkLocal[8]) GOTO 0x01B1
113: 0x019C [0x1D] PRINT_EVENT_MESSAGE(message_id=10837*)
    → "I'm afraid I'm not authorized to issue you a marriage certificate.\u007F1\u0000\u0007"
114: 0x019F [0x23] WAIT_FOR_DIALOG_INTERACTION
115: 0x01A0 [0x1D] PRINT_EVENT_MESSAGE(message_id=10838*)
    → "Married couples wishing to receive marriage certificates should form a party while the husband is wearing his \u001E\u0005matrimony ring\u001E\u0001, and his wife, her \u001E\u0005matrimony band\u001E\u0001. After that, speak to an official in charge, and the certificates will be drawn up for you.\u007F1\u0000\u0007"
116: 0x01A3 [0x23] WAIT_FOR_DIALOG_INTERACTION
117: 0x01A4 [0x03] Work_Zone[1] = 1*
118: 0x01A9 [0x03] ExtData[1]->WorkLocal[9] = 6*
119: 0x01AE [0x01] GOTO 0x01D0

SUBROUTINE_01B1:
120: 0x01B1 [0x3E] IF !(ExtData[1]->WorkLocal[6] bit ExtData[1]->WorkLocal[8]) GOTO 0x01BE
121: 0x01B8 [0x01] GOTO 0x01D3

SUBROUTINE_01BE:
122: 0x01BE [0x1D] PRINT_EVENT_MESSAGE(message_id=10837*)
    → "I'm afraid I'm not authorized to issue you a marriage certificate.\u007F1\u0000\u0007"
123: 0x01C1 [0x23] WAIT_FOR_DIALOG_INTERACTION
124: 0x01C2 [0x1D] PRINT_EVENT_MESSAGE(message_id=10838*)
    → "Married couples wishing to receive marriage certificates should form a party while the husband is wearing his \u001E\u0005matrimony ring\u001E\u0001, and his wife, her \u001E\u0005matrimony band\u001E\u0001. After that, speak to an official in charge, and the certificates will be drawn up for you.\u007F1\u0000\u0007"
125: 0x01C5 [0x23] WAIT_FOR_DIALOG_INTERACTION
126: 0x01C6 [0x03] Work_Zone[1] = 1*
127: 0x01CB [0x03] ExtData[1]->WorkLocal[9] = 7*
128: 0x01D0 [0x01] GOTO 0x031F

SUBROUTINE_01D3:
129: 0x01D3 [0x02] IF !(ExtData[1]->WorkLocal[2] == 0*) GOTO 0x0233
130: 0x01DB [0x02] IF !(ExtData[1]->WorkLocal[2] == ExtData[1]->WorkLocal[1]) GOTO 0x01F4
131: 0x01E3 [0x1D] PRINT_EVENT_MESSAGE(message_id=10839*)
    → "It looks like you've already been issued a marriage certificate by another nation.\u0007A misplaced certificate can be reissued, but only by the same officiating body that you originally received it from.\u007F1\u0000\u0007"
132: 0x01E6 [0x23] WAIT_FOR_DIALOG_INTERACTION
133: 0x01E7 [0x03] Work_Zone[1] = 1*
134: 0x01EC [0x03] ExtData[1]->WorkLocal[9] = 11*
135: 0x01F1 [0x01] GOTO 0x0230

SUBROUTINE_01F4:
136: 0x01F4 [0x02] IF !(ExtData[1]->WorkLocal[3] == 0*) GOTO 0x0226
137: 0x01FC [0x02] IF !(ExtData[1]->WorkLocal[3] == ExtData[1]->WorkLocal[1]) GOTO 0x0219
138: 0x0204 [0x1D] PRINT_EVENT_MESSAGE(message_id=10840*)
    → "It looks like your spouse's marriage certificate was issued by another nation.\u007F1\u0000\u0007"
139: 0x0207 [0x23] WAIT_FOR_DIALOG_INTERACTION
140: 0x0208 [0x1D] PRINT_EVENT_MESSAGE(message_id=10841*)
    → "It looks like your spouse's marriage certificate was issued by another nation.\u0007If you want one of your own, you'll have to speak with the same officiating body that issued your spouse's.\u007F1\u0000\u0007"
141: 0x020B [0x23] WAIT_FOR_DIALOG_INTERACTION
142: 0x020C [0x03] Work_Zone[1] = 1*
143: 0x0211 [0x03] ExtData[1]->WorkLocal[9] = 12*
144: 0x0216 [0x01] GOTO 0x0223

SUBROUTINE_0219:
145: 0x0219 [0x03] Work_Zone[1] = 4*
146: 0x021E [0x03] ExtData[1]->WorkLocal[9] = 102*
147: 0x0223 [0x01] GOTO 0x0230

SUBROUTINE_0226:
148: 0x0226 [0x03] Work_Zone[1] = 4*
149: 0x022B [0x03] ExtData[1]->WorkLocal[9] = 103*
150: 0x0230 [0x01] GOTO 0x02D7

SUBROUTINE_0233:
151: 0x0233 [0x02] IF !(ExtData[1]->WorkLocal[3] == 0*) GOTO 0x0299
152: 0x023B [0x02] IF !(ExtData[1]->WorkLocal[3] == ExtData[1]->WorkLocal[1]) GOTO 0x0258
153: 0x0243 [0x1D] PRINT_EVENT_MESSAGE(message_id=10840*)
    → "It looks like your spouse's marriage certificate was issued by another nation.\u007F1\u0000\u0007"
154: 0x0246 [0x23] WAIT_FOR_DIALOG_INTERACTION
155: 0x0247 [0x1D] PRINT_EVENT_MESSAGE(message_id=10841*)
    → "It looks like your spouse's marriage certificate was issued by another nation.\u0007If you want one of your own, you'll have to speak with the same officiating body that issued your spouse's.\u007F1\u0000\u0007"
156: 0x024A [0x23] WAIT_FOR_DIALOG_INTERACTION
157: 0x024B [0x03] Work_Zone[1] = 1*
158: 0x0250 [0x03] ExtData[1]->WorkLocal[9] = 13*
159: 0x0255 [0x01] GOTO 0x0296

SUBROUTINE_0258:
160: 0x0258 [0x1D] PRINT_EVENT_MESSAGE(message_id=10842*)
    → "Accepting a marriage certificate from our nation will render you ineligible to receive one from another.\u0007Also, the nation of issuance for your marriage certificate must be the same as your partner's.\u007F1\u0000\u0007"
161: 0x025B [0x23] WAIT_FOR_DIALOG_INTERACTION
162: 0x025C [0x24] CREATE_DIALOG(message_id=10847*, default_option=1*, option_flags=0*)
    → "Have a marriage certificate issued?\u0007\u000BYes.\u0007No.\u007F1\u0000\u0007"
163: 0x0263 [0x25] WAIT_DIALOG_SELECT()
164: 0x0264 [0x02] IF !(Work_Zone[0] == 0*) GOTO 0x0281
165: 0x026C [0x1D] PRINT_EVENT_MESSAGE(message_id=10844*)
    → "By the power vested in me by the Republic of Bastok, I hereby pronounce you husband and wife.\u007F1\u0000\u0007"
166: 0x026F [0x23] WAIT_FOR_DIALOG_INTERACTION
167: 0x0270 [0x1D] PRINT_EVENT_MESSAGE(message_id=10845*)
    → "You are all now officially permitted to eat, drink, sing, and have a joyous night!\u007F1\u0000\u0007"
168: 0x0273 [0x23] WAIT_FOR_DIALOG_INTERACTION
169: 0x0274 [0x03] Work_Zone[1] = 4*
170: 0x0279 [0x03] ExtData[1]->WorkLocal[9] = 104*
171: 0x027E [0x01] GOTO 0x0296

SUBROUTINE_0281:
172: 0x0281 [0x02] IF !(Work_Zone[0] == 1*) GOTO 0x0296
173: 0x0289 [0x03] Work_Zone[1] = 1*
174: 0x028E [0x03] ExtData[1]->WorkLocal[9] = 0*
175: 0x0293 [0x01] GOTO 0x0296

SUBROUTINE_0296:
176: 0x0296 [0x01] GOTO 0x02D7

SUBROUTINE_0299:
177: 0x0299 [0x1D] PRINT_EVENT_MESSAGE(message_id=10842*)
    → "Accepting a marriage certificate from our nation will render you ineligible to receive one from another.\u0007Also, the nation of issuance for your marriage certificate must be the same as your partner's.\u007F1\u0000\u0007"
178: 0x029C [0x23] WAIT_FOR_DIALOG_INTERACTION
179: 0x029D [0x24] CREATE_DIALOG(message_id=10847*, default_option=1*, option_flags=0*)
    → "Have a marriage certificate issued?\u0007\u000BYes.\u0007No.\u007F1\u0000\u0007"
180: 0x02A4 [0x25] WAIT_DIALOG_SELECT()
181: 0x02A5 [0x02] IF !(Work_Zone[0] == 0*) GOTO 0x02C2
182: 0x02AD [0x1D] PRINT_EVENT_MESSAGE(message_id=10844*)
    → "By the power vested in me by the Republic of Bastok, I hereby pronounce you husband and wife.\u007F1\u0000\u0007"
183: 0x02B0 [0x23] WAIT_FOR_DIALOG_INTERACTION
184: 0x02B1 [0x1D] PRINT_EVENT_MESSAGE(message_id=10845*)
    → "You are all now officially permitted to eat, drink, sing, and have a joyous night!\u007F1\u0000\u0007"
185: 0x02B4 [0x23] WAIT_FOR_DIALOG_INTERACTION
186: 0x02B5 [0x03] Work_Zone[1] = 4*
187: 0x02BA [0x03] ExtData[1]->WorkLocal[9] = 105*
188: 0x02BF [0x01] GOTO 0x02D7

SUBROUTINE_02C2:
189: 0x02C2 [0x02] IF !(Work_Zone[0] == 1*) GOTO 0x02D7
190: 0x02CA [0x03] Work_Zone[1] = 1*
191: 0x02CF [0x03] ExtData[1]->WorkLocal[9] = 0*
192: 0x02D4 [0x01] GOTO 0x02D7

SUBROUTINE_02D7:
193: 0x02D7 [0x01] GOTO 0x031F

SUBROUTINE_02DA:
194: 0x02DA [0x41] GET_BIT_WORK_RANGE(start_bit=0*, end_bit=1*, source=Work_Zone[2], result=ExtData[1]->WorkLocal[1])
195: 0x02E3 [0x41] GET_BIT_WORK_RANGE(start_bit=2*, end_bit=3*, source=Work_Zone[2], result=ExtData[1]->WorkLocal[2])
196: 0x02EC [0x41] GET_BIT_WORK_RANGE(start_bit=4*, end_bit=6*, source=Work_Zone[2], result=ExtData[1]->WorkLocal[4])
197: 0x02F5 [0x41] GET_BIT_WORK_RANGE(start_bit=7*, end_bit=9*, source=Work_Zone[2], result=ExtData[1]->WorkLocal[5])
198: 0x02FE [0x41] GET_BIT_WORK_RANGE(start_bit=10*, end_bit=12*, source=Work_Zone[2], result=ExtData[1]->WorkLocal[6])
199: 0x0307 [0x41] GET_BIT_WORK_RANGE(start_bit=13*, end_bit=13*, source=Work_Zone[2], result=ExtData[1]->WorkLocal[8])
200: 0x0310 [0x41] GET_BIT_WORK_RANGE(start_bit=14*, end_bit=15*, source=Work_Zone[2], result=ExtData[1]->WorkLocal[3])
201: 0x0319 [0x03] ExtData[1]->WorkLocal[7] = Work_Zone[3]
202: 0x031E [0x1B] RETURN

SUBROUTINE_031F:
203: 0x031F [0x03] Work_Zone[2] = ExtData[1]->WorkLocal[9]
204: 0x0324 [0x21] END_EVENT
205: 0x0325 [0x00] END_REQSTACK()
```

## Data or dead code:

```
# Dead code (unreachable instructions):
     0x006D [0x01] GOTO 0x008F
# Dead code (unreachable instructions):
     0x007A [0x01] GOTO 0x008F
# Dead code (unreachable instructions):
     0x00B5 [0x01] GOTO 0x0100
# Dead code (unreachable instructions):
     0x00CF [0x01] GOTO 0x0100
# Dead code (unreachable instructions):
     0x00FD [0x01] GOTO 0x0100
# Dead code (unreachable instructions):
     0x01BB [0x01] GOTO 0x01D0
```