# Event 65535

## Metadata

| Field           | Value    |
|-----------------|----------|
| Event Index     | 17/25    |
| Offset          | 0x007E   |
| Data Size       | 45 bytes |
| Calculated Size | 45 bytes |
| Instructions    | 9        |

```
      00 01 02 03 04 05 06 07  08 09 0A 0B 0C 0D 0E 0F
      -- -- -- -- -- -- -- --  -- -- -- -- -- -- -- --
0070:                                            32 0F                2.
0080: 80 1F 00 12 80 13 80 14  80 1F 01 1E F0 FF FF 7F  ................
0090: 7B AD 50 12 01 1C 07 80  5B 08 80 AD 50 12 01 AD  {.P.....[...P...
00A0: 50 12 01 74 6C 63 30 1C  09 80 00                 P..tlc0....     
```

## Opcodes

```
  0: 0x007E [0x32] ExtData[1]->MainSpeed = 40* * 0.1
  1: 0x0081 [0x1F] MOVE_ENTITY: EventEntity moves to X=2.078*, Z=11.982*, Y=3.999*
  2: 0x0089 [0x1F] MOVE_ENTITY: Update entity position (mode=1)
  3: 0x008B [0x1E] EventEntity looks at LocalPlayer and starts talking
  4: 0x0090 [0x7B] Iroha (ID: 17977517/0x011250AD) stops talking
  5: 0x0095 [0x1C] WAIT(30* ticks)
  6: 0x0098 [0x5B] LOAD_EXT_SCHEDULER: Load scheduler "tlc0" with entities [Iroha (ID: 17977517/0x011250AD), Iroha (ID: 17977517/0x011250AD)], work=3863*
  7: 0x00A7 [0x1C] WAIT(100* ticks)
  8: 0x00AA [0x00] END_REQSTACK()
```
