# Event 65535

## Metadata

| Field           | Value    |
|-----------------|----------|
| Event Index     | 92/118   |
| Offset          | 0xEA64   |
| Data Size       | 53 bytes |
| Calculated Size | 53 bytes |
| Instructions    | 10       |

```
      00 01 02 03 04 05 06 07  08 09 0A 0B 0C 0D 0E 0F
      -- -- -- -- -- -- -- --  -- -- -- -- -- -- -- --
EA60:             32 4B 80 1F  00 DD 85 DE 85 DF 85 1F      2K..........
EA70: 01 79 00 F0 FF FF 7F 91  A0 01 01 1F 00 E0 85 E1  .y..............
EA80: 85 E2 85 1F 01 37 E3 85  E4 85 E5 85 E6 85 1F 00  .....7..........
EA90: E7 85 E8 85 91 82 1F 01  00                       .........       
```

## Opcodes

```
  0: 0xEA64 [0x32] ExtData[1]->MainSpeed = 40* * 0.1
  1: 0xEA67 [0x1F] MOVE_ENTITY: EventEntity moves to X=1.444*, Z=12.562*, Y=-22.210*
  2: 0xEA6F [0x1F] MOVE_ENTITY: Update entity position (mode=1)
  3: 0xEA71 [0x79] LocalPlayer looks at Miledo-Shiraddo (ID: 16883857/0x0101A091) (Basic look)
  4: 0xEA7B [0x1F] MOVE_ENTITY: EventEntity moves to X=0.275*, Z=2.199*, Y=-21.878*
  5: 0xEA83 [0x1F] MOVE_ENTITY: Update entity position (mode=1)
  6: 0xEA85 [0x37] UPDATE_EVENT_POSITION_AND_DIR: x=-0.229*, z=-10.109*, y=-22.134*, direction=87.5°*
  7: 0xEA8E [0x1F] MOVE_ENTITY: EventEntity moves to X=-0.122*, Z=-22.469*, Y=-22.749*
  8: 0xEA96 [0x1F] MOVE_ENTITY: Update entity position (mode=1)
  9: 0xEA98 [0x00] END_REQSTACK()
```
