# Event 65535

## Metadata

| Field           | Value    |
|-----------------|----------|
| Event Index     | 8/118    |
| Offset          | 0x0070   |
| Data Size       | 67 bytes |
| Calculated Size | 67 bytes |
| Instructions    | 12       |

```
      00 01 02 03 04 05 06 07  08 09 0A 0B 0C 0D 0E 0F
      -- -- -- -- -- -- -- --  -- -- -- -- -- -- -- --
0070: 79 00 F0 FF FF 7F F0 FF  FF 7F 37 08 80 09 80 03  y.........7.....
0080: 80 0A 80 03 02 00 0B 80  1A F1 00 37 03 00 04 00  ...........7....
0090: 05 00 06 00 03 02 00 0C  80 1A F1 00 32 00 80 31  ............2..1
00A0: 00 03 00 04 00 05 00 0D  80 31 01 27 03 1C A0 01  .........1.'....
00B0: 01 03 00                                          ...             
```

## Opcodes

```
  0: 0x0070 [0x79] LocalPlayer looks at LocalPlayer (Basic look)
  1: 0x007A [0x37] UPDATE_EVENT_POSITION_AND_DIR: x=119.718*, z=42.014*, y=-41.500*, direction=0.0°*
  2: 0x0083 [0x03] ExtData[1]->WorkLocal[2] = 4294962296*
  3: 0x0088 [0x1A] CALL_SUBROUTINE(address=0x00F1)
  4: 0x008B [0x37] UPDATE_EVENT_POSITION_AND_DIR: x=ExtData[1]->WorkLocal[3], z=ExtData[1]->WorkLocal[4], y=ExtData[1]->WorkLocal[5], direction=ExtData[1]->WorkLocal[6]
  5: 0x0094 [0x03] ExtData[1]->WorkLocal[2] = 10000*
  6: 0x0099 [0x1A] CALL_SUBROUTINE(address=0x00F1)
  7: 0x009C [0x32] ExtData[1]->MainSpeed = 13* * 0.1
  8: 0x009F [0x31] UPDATE_ENTITY_POSITION: Set EventEntity goal position to X=ExtData[1]->WorkLocal[3], Z=ExtData[1]->WorkLocal[4], Y=ExtData[1]->WorkLocal[5], Time=300*
  9: 0x00A9 [0x31] UPDATE_ENTITY_POSITION: Move EventEntity towards goal position
 10: 0x00AB [0x27] REQ_SET(priority=0x03, entity_id=Walnut Door (ID: 16883740/0x0101A01C), tag_num=0x03)
 11: 0x00B2 [0x00] END_REQSTACK()
```
