# Event 17

## Metadata

| Field           | Value    |
|-----------------|----------|
| Event Index     | 5/7      |
| Offset          | 0x00B8   |
| Data Size       | 35 bytes |
| Calculated Size | 35 bytes |
| Instructions    | 11       |

```
      00 01 02 03 04 05 06 07  08 09 0A 0B 0C 0D 0E 0F
      -- -- -- -- -- -- -- --  -- -- -- -- -- -- -- --
00B0:                          1E F0 FF FF 7F 6F 70 03          .....op.
00C0: 02 10 03 80 03 03 10 04  80 2B F2 01 03 01 0F 80  .........+......
00D0: 23 2B F2 01 03 01 10 80  23 21 00                 #+......#!.     
```

## Opcodes

```
  0: 0x00B8 [0x1E] EventEntity looks at LocalPlayer and starts talking
  1: 0x00BD [0x6F] WAIT_FRAME_DELAY: Yield until WaitTime reaches zero
  2: 0x00BE [0x70] WAIT_ENTITY_RENDER_FLAG: Wait while EventEntity->Render.Flags3 bit 2 is set (cancel turn if not)
  3: 0x00BF [0x03] Work_Zone[2] = 2163*
  4: 0x00C4 [0x03] Work_Zone[3] = 2*
  5: 0x00C9 [0x2B] Suldiran (ID: 16974322/0x010301F2) [7958*]:
    → "I must have more charms!\u0007Please, bring me sets of 
\u0001 \u0001	)\u0002\u0001\u0000\u0000\u0002\u0000\u0000\u0000!\u007F1\u0000\u0007"
  6: 0x00D0 [0x23] WAIT_FOR_DIALOG_INTERACTION
  7: 0x00D1 [0x2B] Suldiran (ID: 16974322/0x010301F2) [7959*]:
    → "I promise you shall not leave empty-handed!\u007F1\u0000\u0007"
  8: 0x00D8 [0x23] WAIT_FOR_DIALOG_INTERACTION
  9: 0x00D9 [0x21] END_EVENT
 10: 0x00DA [0x00] END_REQSTACK()
```
