# Event 30

## Metadata

| Field           | Value    |
|-----------------|----------|
| Event Index     | 5/7      |
| Offset          | 0x00A6   |
| Data Size       | 32 bytes |
| Calculated Size | 32 bytes |
| Instructions    | 13       |

```
      00 01 02 03 04 05 06 07  08 09 0A 0B 0C 0D 0E 0F
      -- -- -- -- -- -- -- --  -- -- -- -- -- -- -- --
00A0:                   42 1E  F0 FF FF 7F 1D 15 80 23        B........#
00B0: 1D 16 80 23 43 00 43 01  02 02 10 00 80 02 C4 00  ...#C.C.........
00C0: 1D 0F 80 23 21 00                                 ...#!.          
```

## Opcodes

```
  0: 0x00A6 [0x42] SET_CLI_EVENT_CANCEL_DATA()
  1: 0x00A7 [0x1E] EventEntity looks at LocalPlayer and starts talking
  2: 0x00AC [0x1D] PRINT_EVENT_MESSAGE(message_id=12491*)
    → "The magnificent Mumor mentioned your exciting exploits, kupo! Thanks for showing everyone a good time!\u007F1\u0000\u0007"
  3: 0x00AF [0x23] WAIT_FOR_DIALOG_INTERACTION
  4: 0x00B0 [0x1D] PRINT_EVENT_MESSAGE(message_id=12492*)
    → "As promised, here's your extra-special reward!\u007F1\u0000\u0007"
  5: 0x00B3 [0x23] WAIT_FOR_DIALOG_INTERACTION
  6: 0x00B4 [0x43] SEND_EVENT_UPDATE: Send pending tag to server (packet 0x005B)
  7: 0x00B6 [0x43] SEND_EVENT_UPDATE: Check pending flag (skip if not pending)
  8: 0x00B8 [0x02] IF !(Work_Zone[2] <= 0*) GOTO 0x00C4
  9: 0x00C0 [0x1D] PRINT_EVENT_MESSAGE(message_id=12490*)
    → "Kupopo?\u0007You need to have at least 
\u0000 free space\u007F\u0012\u0000[/s] in your inventory to receive your reward! Come back after sorting out your bags.\u007F1\u0000\u0007"
 10: 0x00C3 [0x23] WAIT_FOR_DIALOG_INTERACTION
 11: 0x00C4 [0x21] END_EVENT
 12: 0x00C5 [0x00] END_REQSTACK()
```
