# Event 65535

## Metadata

| Field           | Value    |
|-----------------|----------|
| Event Index     | 46/46    |
| Offset          | 0x02B4   |
| Data Size       | 36 bytes |
| Calculated Size | 36 bytes |
| Instructions    | 10       |

```
      00 01 02 03 04 05 06 07  08 09 0A 0B 0C 0D 0E 0F
      -- -- -- -- -- -- -- --  -- -- -- -- -- -- -- --
02B0:             32 11 80 1F  00 12 80 13 80 14 80 1F      2...........
02C0: 01 6F 1E 53 91 01 01 6F  70 29 08 52 91 01 01 23  .o.S...op).R...#
02D0: 29 08 52 91 01 01 24 00                           ).R...$.        
```

## Opcodes

```
  0: 0x02B4 [0x32] ExtData[1]->MainSpeed = 40* * 0.1
  1: 0x02B7 [0x1F] MOVE_ENTITY: EventEntity moves to X=-521.096*, Z=359.756*, Y=-31.799*
  2: 0x02BF [0x1F] MOVE_ENTITY: Update entity position (mode=1)
  3: 0x02C1 [0x6F] WAIT_FRAME_DELAY: Yield until WaitTime reaches zero
  4: 0x02C2 [0x1E] EventEntity looks at Makki-Chebukki (ID: 16879955/0x01019153) and starts talking
  5: 0x02C7 [0x6F] WAIT_FRAME_DELAY: Yield until WaitTime reaches zero
  6: 0x02C8 [0x70] WAIT_ENTITY_RENDER_FLAG: Wait while EventEntity->Render.Flags3 bit 2 is set (cancel turn if not)
  7: 0x02C9 [0x29] REQ_SET_WAIT(priority=0x08, entity_id=Justinius (ID: 16879954/0x01019152), tag_num=0x23)
  8: 0x02D0 [0x29] REQ_SET_WAIT(priority=0x08, entity_id=Justinius (ID: 16879954/0x01019152), tag_num=0x24)
  9: 0x02D7 [0x00] END_REQSTACK()
```
