# Event 290

## Metadata

| Field           | Value    |
|-----------------|----------|
| Event Index     | 7/9      |
| Offset          | 0x006E   |
| Data Size       | 33 bytes |
| Calculated Size | 33 bytes |
| Instructions    | 12       |

```
      00 01 02 03 04 05 06 07  08 09 0A 0B 0C 0D 0E 0F
      -- -- -- -- -- -- -- --  -- -- -- -- -- -- -- --
0060:                                            1E F0                ..
0070: FF FF 7F 6F 70 29 08 1C  E0 0E 01 01 1D 05 80 23  ...op).........#
0080: 1D 06 80 23 29 08 1C E0  0E 01 02 20 00 21 00     ...#)...... .!. 
```

## Opcodes

```
  0: 0x006E [0x1E] EventEntity looks at LocalPlayer and starts talking
  1: 0x0073 [0x6F] WAIT_FRAME_DELAY: Yield until WaitTime reaches zero
  2: 0x0074 [0x70] WAIT_ENTITY_RENDER_FLAG: Wait while EventEntity->Render.Flags3 bit 2 is set (cancel turn if not)
  3: 0x0075 [0x29] REQ_SET_WAIT(priority=0x08, entity_id=Mejina-Monjina (ID: 17752092/0x010EE01C), tag_num=0x01)
  4: 0x007C [0x1D] PRINT_EVENT_MESSAGE(message_id=7987*)
    → "In olden days, pirates used the ancient Tarutaru money, which had the constellations drawn on them, to help them navigate by the stars...or so the folktales go.\u007F1\u0000\u0007"
  5: 0x007F [0x23] WAIT_FOR_DIALOG_INTERACTION
  6: 0x0080 [0x1D] PRINT_EVENT_MESSAGE(message_id=7988*)
    → "But now that most of the open seas have been charted into set shipping routes, they don't need \u0001\u0005%\u0002\u0002\u0000\u0000 anymore.\u007F1\u0000\u0007"
  7: 0x0083 [0x23] WAIT_FOR_DIALOG_INTERACTION
  8: 0x0084 [0x29] REQ_SET_WAIT(priority=0x08, entity_id=Mejina-Monjina (ID: 17752092/0x010EE01C), tag_num=0x02)
  9: 0x008B [0x20] SET_CLI_EVENT_UC_FLAG: Unlock player control
 10: 0x008D [0x21] END_EVENT
 11: 0x008E [0x00] END_REQSTACK()
```
