# Event 294

## Metadata

| Field           | Value    |
|-----------------|----------|
| Event Index     | 8/9      |
| Offset          | 0x008F   |
| Data Size       | 33 bytes |
| Calculated Size | 33 bytes |
| Instructions    | 12       |

```
      00 01 02 03 04 05 06 07  08 09 0A 0B 0C 0D 0E 0F
      -- -- -- -- -- -- -- --  -- -- -- -- -- -- -- --
0080:                                               1E                 .
0090: F0 FF FF 7F 6F 70 29 08  1C E0 0E 01 01 1D 07 80  ....op).........
00A0: 23 1D 08 80 23 29 08 1C  E0 0E 01 02 20 00 21 00  #...#)...... .!.
```

## Opcodes

```
  0: 0x008F [0x1E] EventEntity looks at LocalPlayer and starts talking
  1: 0x0094 [0x6F] WAIT_FRAME_DELAY: Yield until WaitTime reaches zero
  2: 0x0095 [0x70] WAIT_ENTITY_RENDER_FLAG: Wait while EventEntity->Render.Flags3 bit 2 is set (cancel turn if not)
  3: 0x0096 [0x29] REQ_SET_WAIT(priority=0x08, entity_id=Mejina-Monjina (ID: 17752092/0x010EE01C), tag_num=0x01)
  4: 0x009D [0x1D] PRINT_EVENT_MESSAGE(message_id=7996*)
    → "How did you manage to get your hands on \u0001\u0001\u0001 \u0001\u0005$\u0002\u0002\u0000\u0000? I never thought we'd see one of those again!\u007F1\u0000\u0007"
  5: 0x00A0 [0x23] WAIT_FOR_DIALOG_INTERACTION
  6: 0x00A1 [0x1D] PRINT_EVENT_MESSAGE(message_id=7997*)
    → "Oh, I see... Wa-ha-ha!\u0007Those old buccaneers had some hidden away, eh? Even pirates come in useful at times too, huh?\u007F1\u0000\u0007"
  7: 0x00A4 [0x23] WAIT_FOR_DIALOG_INTERACTION
  8: 0x00A5 [0x29] REQ_SET_WAIT(priority=0x08, entity_id=Mejina-Monjina (ID: 17752092/0x010EE01C), tag_num=0x02)
  9: 0x00AC [0x20] SET_CLI_EVENT_UC_FLAG: Unlock player control
 10: 0x00AE [0x21] END_EVENT
 11: 0x00AF [0x00] END_REQSTACK()
```
