# Event 65535

## Metadata

| Field           | Value    |
|-----------------|----------|
| Event Index     | 17/17    |
| Offset          | 0x0208   |
| Data Size       | 98 bytes |
| Calculated Size | 98 bytes |
| Instructions    | 10       |

```
      00 01 02 03 04 05 06 07  08 09 0A 0B 0C 0D 0E 0F
      -- -- -- -- -- -- -- --  -- -- -- -- -- -- -- --
0200:                          6E F0 FF FF 7F 19 80 99          n.......
0210: F0 FF FF 7F 27 10 C2 91  00 01 04 45 01 80 F0 FF  ....'......E....
0220: FF 7F F0 FF FF 7F 70 73  37 36 02 80 9F 1A 80 F0  ......ps76......
0230: FF FF 7F F0 FF FF 7F 73  74 72 30 02 80 1C 00 80  .......str0.....
0240: 27 10 C3 91 00 01 04 45  01 80 F0 FF FF 7F F0 FF  '......E........
0250: FF 7F 6E 73 37 36 02 80  9F 1A 80 C9 91 00 01 C9  ..ns76..........
0260: 91 00 01 73 74 72 30 02  80 00                    ...str0...      
```

## Opcodes

```
  0: 0x0208 [0x6E] LocalPlayer uses emote 29*
  1: 0x020F [0x99] Wait for LocalPlayer animation to complete
  2: 0x0214 [0x27] REQ_SET(priority=0x10, entity_id=Unnamed NPC (ID: 16814530/0x010091C2), tag_num=0x04)
  3: 0x021B [0x45] LOAD_SCHEDULED_TASK: Load scheduler "ps76" with entities [LocalPlayer, LocalPlayer], work=[153*, 0*]
  4: 0x022C [0x9F] LOAD_SCHEDULED_TASK_ALT: Load scheduler "str0" with entities [LocalPlayer, LocalPlayer], work=[94*, 0*]
  5: 0x023D [0x1C] WAIT(30* ticks)
  6: 0x0240 [0x27] REQ_SET(priority=0x10, entity_id=Unnamed NPC (ID: 16814531/0x010091C3), tag_num=0x04)
  7: 0x0247 [0x45] LOAD_SCHEDULED_TASK: Load scheduler "ns76" with entities [LocalPlayer, LocalPlayer], work=[153*, 0*]
  8: 0x0258 [0x9F] LOAD_SCHEDULED_TASK_ALT: Load scheduler "str0" with entities [Nag'molada (ID: 16814537/0x010091C9), Nag'molada (ID: 16814537/0x010091C9)], work=[94*, 0*]
  9: 0x0269 [0x00] END_REQSTACK()
```
