# Event 65535

## Metadata

| Field           | Value    |
|-----------------|----------|
| Event Index     | 4/17     |
| Offset          | 0x0037   |
| Data Size       | 83 bytes |
| Calculated Size | 83 bytes |
| Instructions    | 7        |

```
      00 01 02 03 04 05 06 07  08 09 0A 0B 0C 0D 0E 0F
      -- -- -- -- -- -- -- --  -- -- -- -- -- -- -- --
0030:                      45  01 80 F0 FF FF 7F F0 FF         E........
0040: FF 7F 73 30 34 35 02 80  5B 03 80 C7 91 00 01 C7  ..s045..[.......
0050: 91 00 01 63 34 30 30 1C  04 80 45 01 80 F0 FF FF  ...c400...E.....
0060: 7F F0 FF FF 7F 73 30 34  36 02 80 5B 05 80 CA 91  .....s046..[....
0070: 00 01 CA 91 00 01 6B 65  69 30 5B 06 80 C8 91 00  ......kei0[.....
0080: 01 C8 91 00 01 63 34 30  30 00                    .....c400.      
```

## Opcodes

```
  0: 0x0037 [0x45] LOAD_SCHEDULED_TASK(work_offset1=153*, entity1=LocalPlayer, entity2=LocalPlayer, scheduler_id="s045", work_offset2=0*)
  1: 0x0048 [0x5B] LOAD_EXT_SCHEDULER(work_offset=429*, entity1=Tenzen (ID: 16814535/0x010091C7), entity2=Tenzen (ID: 16814535/0x010091C7), action="c400")
  2: 0x0057 [0x1C] WAIT(2* ticks)
  3: 0x005A [0x45] LOAD_SCHEDULED_TASK(work_offset1=153*, entity1=LocalPlayer, entity2=LocalPlayer, scheduler_id="s046", work_offset2=0*)
  4: 0x006B [0x5B] LOAD_EXT_SCHEDULER(work_offset=418*, entity1=Louverance (ID: 16814538/0x010091CA), entity2=Louverance (ID: 16814538/0x010091CA), action="kei0")
  5: 0x007A [0x5B] LOAD_EXT_SCHEDULER(work_offset=424*, entity1=Ulmia (ID: 16814536/0x010091C8), entity2=Ulmia (ID: 16814536/0x010091C8), action="c400")
  6: 0x0089 [0x00] END_REQSTACK()
```
