# Event 65535

## Metadata

| Field           | Value    |
|-----------------|----------|
| Event Index     | 12/17    |
| Offset          | 0x0117   |
| Data Size       | 65 bytes |
| Calculated Size | 65 bytes |
| Instructions    | 9        |

```
      00 01 02 03 04 05 06 07  08 09 0A 0B 0C 0D 0E 0F
      -- -- -- -- -- -- -- --  -- -- -- -- -- -- -- --
0110:                      94  01 C7 91 00 01 94 01 CA         .........
0120: 91 00 01 27 10 C7 91 00  01 11 80 C7 91 00 01 4B  ...'...........K
0130: CA 91 00 01 10 80 1C 11  80 5B 12 80 C7 91 00 01  .........[......
0140: C7 91 00 01 63 34 30 32  5B 13 80 CA 91 00 01 CA  ....c402[.......
0150: 91 00 01 62 74 6C 73 00                           ...btls.        
```

## Opcodes

```
  0: 0x0117 [0x94] Tenzen (ID: 16814535/0x010091C7)->Render.Flags3 ^= 0x01
  1: 0x011D [0x94] Louverance (ID: 16814538/0x010091CA)->Render.Flags3 ^= 0x01
  2: 0x0123 [0x27] REQ_SET(priority=0x10, entity_id=Tenzen (ID: 16814535/0x010091C7), tag_num=0x11)
  3: 0x012A [0x80] LOAD_WAIT(entity=Tenzen (ID: 16814535/0x010091C7))
  4: 0x012F [0x4B] UPDATE_ENTITY_YAW(entity=Louverance (ID: 16814538/0x010091CA), yaw=9.89°*)
  5: 0x0136 [0x1C] WAIT(15* ticks)
  6: 0x0139 [0x5B] LOAD_EXT_SCHEDULER: Load scheduler "c402" with entities [Tenzen (ID: 16814535/0x010091C7), Tenzen (ID: 16814535/0x010091C7)], work=641*
  7: 0x0148 [0x5B] LOAD_EXT_SCHEDULER: Load scheduler "btls" with entities [Louverance (ID: 16814538/0x010091CA), Louverance (ID: 16814538/0x010091CA)], work=417*
  8: 0x0157 [0x00] END_REQSTACK()
```
