# 17379798 - Hani

## Common Data

| Field            | Value              |
|------------------|--------------------|
| Zone             | Beadeaux (ID: 147) |
| Block Size       | 124 bytes          |
| Total Events     | 3                  |
| References Count | 11                 |

## List of Events

| Event ID                 | Entrypoint   |   Size |   Instructions |
|--------------------------|--------------|--------|----------------|
| [65535](#event-65535)    | 0x0000       |      1 |              1 |
| [120](#event-120)        | 0x0001       |     12 |              3 |
| [65535.1](#event-655351) | 0x000D       |     36 |              9 |

## DAT References (imed_data)

|   Index | Hex Value   |   Dec Value |
|---------|-------------|-------------|
|       0 | 0xFFFA8D78  |  4294610296 |
|       1 | 0xD2F0      |       54000 |
|       2 | 0x03E7      |         999 |
|       3 | 0x0ED8      |        3800 |
|       4 | 0x0028      |          40 |
|       5 | 0xFFFA9B97  |  4294613911 |
|       6 | 0xD542      |       54594 |
|       7 | 0xFFFACCE7  |  4294626535 |
|       8 | 0x101D2     |       66002 |
|       9 | 0xFFFAD4C4  |  4294628548 |
|      10 | 0x116C5     |       71365 |

## Events

### Event 65535

#### Metadata

| Field        | Value   |
|--------------|---------|
| Entrypoint   | 0x0000  |
| Data Size    | 1 bytes |
| Instructions | 1       |

```
      00 01 02 03 04 05 06 07  08 09 0A 0B 0C 0D 0E 0F
      -- -- -- -- -- -- -- --  -- -- -- -- -- -- -- --
0000: 00                                                .               
```

#### Opcodes

```
  0: 0x0000 [0x00] END_REQSTACK()
```

### Event 120

#### Metadata

| Field        | Value    |
|--------------|----------|
| Entrypoint   | 0x0001   |
| Data Size    | 12 bytes |
| Instructions | 3        |

```
      00 01 02 03 04 05 06 07  08 09 0A 0B 0C 0D 0E 0F
      -- -- -- -- -- -- -- --  -- -- -- -- -- -- -- --
0000:    22 00 37 00 80 01 80  02 80 03 80 00            ".7.........   
```

#### Opcodes

```
  0: 0x0001 [0x22] ENTITY_HIDE_FLAG(enabled=0x00)
  1: 0x0003 [0x37] UPDATE_EVENT_POSITION_AND_DIR: x=-357.000*, z=54.000*, y=0.999*, direction=334.0°*
  2: 0x000C [0x00] END_REQSTACK()
```

### Event 65535.1

#### Metadata

| Field        | Value    |
|--------------|----------|
| Entrypoint   | 0x000D   |
| Data Size    | 36 bytes |
| Instructions | 9        |

```
      00 01 02 03 04 05 06 07  08 09 0A 0B 0C 0D 0E 0F
      -- -- -- -- -- -- -- --  -- -- -- -- -- -- -- --
0000:                                         32 04 80               2..
0010: 1F 00 05 80 06 80 02 80  1F 01 1F 00 07 80 08 80  ................
0020: 02 80 1F 01 1F 00 09 80  0A 80 02 80 1F 01 22 01  ..............".
0030: 00                                                .               
```

#### Opcodes

```
  0: 0x000D [0x32] ExtData[1]->MainSpeed = 40* * 0.1
  1: 0x0010 [0x1F] MOVE_ENTITY: EventEntity moves to X=-353.385*, Z=54.594*, Y=0.999*
  2: 0x0018 [0x1F] MOVE_ENTITY: Update entity position (mode=1)
  3: 0x001A [0x1F] MOVE_ENTITY: EventEntity moves to X=-340.761*, Z=66.002*, Y=0.999*
  4: 0x0022 [0x1F] MOVE_ENTITY: Update entity position (mode=1)
  5: 0x0024 [0x1F] MOVE_ENTITY: EventEntity moves to X=-338.748*, Z=71.365*, Y=0.999*
  6: 0x002C [0x1F] MOVE_ENTITY: Update entity position (mode=1)
  7: 0x002E [0x22] ENTITY_HIDE_FLAG(enabled=0x01)
  8: 0x0030 [0x00] END_REQSTACK()
```
