# 17379840 - Serafin

## Common Data

| Field            | Value              |
|------------------|--------------------|
| Zone             | Beadeaux (ID: 147) |
| Block Size       | 420 bytes          |
| Total Events     | 5                  |
| References Count | 13                 |

## List of Events

| Event ID                 | Entrypoint   |   Size |   Instructions |
|--------------------------|--------------|--------|----------------|
| [65535](#event-65535)    | 0x0000       |      1 |              1 |
| [1000](#event-1000)      | 0x0001       |      9 |              3 |
| [65535.1](#event-655351) | 0x000A       |     16 |              2 |
| [65535.2](#event-655352) | 0x001A       |    271 |             32 |
| [65535.3](#event-655353) | 0x0129       |     32 |             10 |

## DAT References (imed_data)

|   Index | Hex Value   |   Dec Value |
|---------|-------------|-------------|
|       0 | 0x0003      |           3 |
|       1 | 0x0094      |         148 |
|       2 | 0x0000      |           0 |
|       3 | 0x0028      |          40 |
|       4 | 0x9FED      |       40941 |
|       5 | 0xFFFF6C24  |  4294929444 |
|       6 | 0x0CE5      |        3301 |
|       7 | 0x1C3B      |        7227 |
|       8 | 0x1C3D      |        7229 |
|       9 | 0x0DE8      |        3560 |
|      10 | 0xCE95      |       52885 |
|      11 | 0xFFFF96CC  |  4294940364 |
|      12 | 0x0387      |         903 |

## String References

- **7227**: W-we're saved! I thought they were going to kill us! Thank you!

## Events

### Event 65535

#### Metadata

| Field        | Value   |
|--------------|---------|
| Entrypoint   | 0x0000  |
| Data Size    | 1 bytes |
| Instructions | 1       |

```
      00 01 02 03 04 05 06 07  08 09 0A 0B 0C 0D 0E 0F
      -- -- -- -- -- -- -- --  -- -- -- -- -- -- -- --
0000: 00                                                .               
```

#### Opcodes

```
  0: 0x0000 [0x00] END_REQSTACK()
```

### Event 1000

#### Metadata

| Field        | Value   |
|--------------|---------|
| Entrypoint   | 0x0001  |
| Data Size    | 9 bytes |
| Instructions | 3       |

```
      00 01 02 03 04 05 06 07  08 09 0A 0B 0C 0D 0E 0F
      -- -- -- -- -- -- -- --  -- -- -- -- -- -- -- --
0000:    22 00 2F 00 00 32 09  01 00                     "./..2...      
```

#### Opcodes

```
  0: 0x0001 [0x22] ENTITY_HIDE_FLAG(enabled=0x00)
  1: 0x0003 [0x2F] Serafin (ID: 17379840/0x01093200)->Render.Flags0 &= ~0x80000 // Bit 19
  2: 0x0009 [0x00] END_REQSTACK()
```

### Event 65535.1

#### Metadata

| Field        | Value    |
|--------------|----------|
| Entrypoint   | 0x000A   |
| Data Size    | 16 bytes |
| Instructions | 2        |

```
      00 01 02 03 04 05 06 07  08 09 0A 0B 0C 0D 0E 0F
      -- -- -- -- -- -- -- --  -- -- -- -- -- -- -- --
0000:                                66 00 80 F8 FF FF            f.....
0010: 7F F8 FF FF 7F 73 67 6D  30 00                    .....sgm0.      
```

#### Opcodes

```
  0: 0x000A [0x66] LOAD_EXT_SCHEDULER_MAIN: Load scheduler "sgm0" with entities [EventEntity, EventEntity], work=3*
  1: 0x0019 [0x00] END_REQSTACK()
```

### Event 65535.2

#### Metadata

| Field        | Value     |
|--------------|-----------|
| Entrypoint   | 0x001A    |
| Data Size    | 271 bytes |
| Instructions | 32        |

```
      00 01 02 03 04 05 06 07  08 09 0A 0B 0C 0D 0E 0F
      -- -- -- -- -- -- -- --  -- -- -- -- -- -- -- --
0010:                                53 F8 FF FF 7F F8            S.....
0020: FF FF 7F 73 67 6D 30 66  00 80 F8 FF FF 7F F8 FF  ...sgm0f........
0030: FF 7F 74 61 74 30 53 F8  FF FF 7F F8 FF FF 7F 74  ..tat0S........t
0040: 61 74 30 45 01 80 F0 FF  FF 7F F0 FF FF 7F 73 62  at0E..........sb
0050: 64 31 02 80 5E 69 64 6C  30 27 80 01 32 09 01 03  d1..^idl0'..2...
0060: 32 03 80 1F 00 04 80 05  80 06 80 1F 01 6F 1E F0  2............o..
0070: FF FF 7F 6F 70 79 00 F0  FF FF 7F F8 FF FF 7F 66  ...opy.........f
0080: 02 80 F8 FF FF 7F F8 FF  FF 7F 74 6C 6B 30 1D 07  ..........tlk0..
0090: 80 23 53 F8 FF FF 7F F8  FF FF 7F 74 6C 6B 30 66  .#S........tlk0f
00A0: 02 80 F8 FF FF 7F F8 FF  FF 7F 74 65 6E 30 55 01  ..........ten0U.
00B0: 80 F0 FF FF 7F F0 FF FF  7F 73 62 64 31 2A 80 01  .........sbd1*..
00C0: 32 09 01 29 80 01 32 09  01 04 53 F8 FF FF 7F F8  2..)..2...S.....
00D0: FF FF 7F 74 65 6E 30 66  02 80 F8 FF FF 7F F8 FF  ...ten0f........
00E0: FF 7F 74 6C 6B 31 79 00  F0 FF FF 7F F8 FF FF 7F  ..tlk1y.........
00F0: 2B 00 32 09 01 08 80 23  53 F8 FF FF 7F F8 FF FF  +.2....#S.......
0100: 7F 74 6C 6B 31 66 02 80  F8 FF FF 7F F8 FF FF 7F  .tlk1f..........
0110: 74 65 6E 31 29 80 01 32  09 01 05 53 F8 FF FF 7F  ten1)..2...S....
0120: F8 FF FF 7F 74 65 6E 31  00                       ....ten1.       
```

#### Opcodes

```
  0: 0x001A [0x53] WAIT_SCHEDULER_TASK: Wait for scheduler "sgm0" with entities [EventEntity, EventEntity]
  1: 0x0027 [0x66] LOAD_EXT_SCHEDULER_MAIN: Load scheduler "tat0" with entities [EventEntity, EventEntity], work=3*
  2: 0x0036 [0x53] WAIT_SCHEDULER_TASK: Wait for scheduler "tat0" with entities [EventEntity, EventEntity]
  3: 0x0043 [0x45] LOAD_SCHEDULED_TASK: Load scheduler "sbd1" with entities [LocalPlayer, LocalPlayer], work=[148*, 0*]
  4: 0x0054 [0x5E] EventEntity goes idle (kills current action) (animation: "idl0")
  5: 0x0059 [0x27] REQ_SET(priority=0x80, entity_id=Evrard (ID: 17379841/0x01093201), tag_num=0x03)
  6: 0x0060 [0x32] ExtData[1]->MainSpeed = 40* * 0.1
  7: 0x0063 [0x1F] MOVE_ENTITY: EventEntity moves to X=40.941*, Z=-37.852*, Y=3.301*
  8: 0x006B [0x1F] MOVE_ENTITY: Update entity position (mode=1)
  9: 0x006D [0x6F] WAIT_FRAME_DELAY: Yield until WaitTime reaches zero
 10: 0x006E [0x1E] EventEntity looks at LocalPlayer and starts talking
 11: 0x0073 [0x6F] WAIT_FRAME_DELAY: Yield until WaitTime reaches zero
 12: 0x0074 [0x70] WAIT_ENTITY_RENDER_FLAG: Wait while EventEntity->Render.Flags3 bit 2 is set (cancel turn if not)
 13: 0x0075 [0x79] LocalPlayer looks at EventEntity (Basic look)
 14: 0x007F [0x66] LOAD_EXT_SCHEDULER_MAIN: Load scheduler "tlk0" with entities [EventEntity, EventEntity], work=0*
 15: 0x008E [0x1D] PRINT_EVENT_MESSAGE(message_id=7227*)
    → "W-we're saved! I thought they were going to kill us! Thank you!"
 16: 0x0091 [0x23] WAIT_FOR_DIALOG_INTERACTION
 17: 0x0092 [0x53] WAIT_SCHEDULER_TASK: Wait for scheduler "tlk0" with entities [EventEntity, EventEntity]
 18: 0x009F [0x66] LOAD_EXT_SCHEDULER_MAIN: Load scheduler "ten0" with entities [EventEntity, EventEntity], work=0*
 19: 0x00AE [0x55] WAIT_LOAD_SCHEDULER: Wait for scheduler "sbd1" with entities [LocalPlayer, LocalPlayer], work=148*
 20: 0x00BD [0x2A] GET_REQ_LEVEL(level=128, entity_id=Evrard (ID: 17379841/0x01093201))
 21: 0x00C3 [0x29] REQ_SET_WAIT(priority=0x80, entity_id=Evrard (ID: 17379841/0x01093201), tag_num=0x04)
 22: 0x00CA [0x53] WAIT_SCHEDULER_TASK: Wait for scheduler "ten0" with entities [EventEntity, EventEntity]
 23: 0x00D7 [0x66] LOAD_EXT_SCHEDULER_MAIN: Load scheduler "tlk1" with entities [EventEntity, EventEntity], work=0*
 24: 0x00E6 [0x79] LocalPlayer looks at EventEntity (Basic look)
 25: 0x00F0 [0x2B] Serafin (ID: 17379840/0x01093200) [7229*]:
    → "We're so glad you came. As long as you carry our packs for us, we can watch the enemy as we make our way to safety."
 26: 0x00F7 [0x23] WAIT_FOR_DIALOG_INTERACTION
 27: 0x00F8 [0x53] WAIT_SCHEDULER_TASK: Wait for scheduler "tlk1" with entities [EventEntity, EventEntity]
 28: 0x0105 [0x66] LOAD_EXT_SCHEDULER_MAIN: Load scheduler "ten1" with entities [EventEntity, EventEntity], work=0*
 29: 0x0114 [0x29] REQ_SET_WAIT(priority=0x80, entity_id=Evrard (ID: 17379841/0x01093201), tag_num=0x05)
 30: 0x011B [0x53] WAIT_SCHEDULER_TASK: Wait for scheduler "ten1" with entities [EventEntity, EventEntity]
 31: 0x0128 [0x00] END_REQSTACK()
```

### Event 65535.3

#### Metadata

| Field        | Value    |
|--------------|----------|
| Entrypoint   | 0x0129   |
| Data Size    | 32 bytes |
| Instructions | 10       |

```
      00 01 02 03 04 05 06 07  08 09 0A 0B 0C 0D 0E 0F
      -- -- -- -- -- -- -- --  -- -- -- -- -- -- -- --
0120:                             7B F8 FF FF 7F 39 09           {....9.
0130: 80 6F 70 32 03 80 1F 00  0A 80 0B 80 0C 80 1F 01  .op2............
0140: 22 01 2F 01 00 32 09 01  00                       "./..2...       
```

#### Opcodes

```
  0: 0x0129 [0x7B] EventEntity stops talking
  1: 0x012E [0x39] SET_ENTITY_DIRECTION(direction=19.6°*)
  2: 0x0131 [0x6F] WAIT_FRAME_DELAY: Yield until WaitTime reaches zero
  3: 0x0132 [0x70] WAIT_ENTITY_RENDER_FLAG: Wait while EventEntity->Render.Flags3 bit 2 is set (cancel turn if not)
  4: 0x0133 [0x32] ExtData[1]->MainSpeed = 40* * 0.1
  5: 0x0136 [0x1F] MOVE_ENTITY: EventEntity moves to X=52.885*, Z=-26.932*, Y=0.903*
  6: 0x013E [0x1F] MOVE_ENTITY: Update entity position (mode=1)
  7: 0x0140 [0x22] ENTITY_HIDE_FLAG(enabled=0x01)
  8: 0x0142 [0x2F] Serafin (ID: 17379840/0x01093200)->Render.Flags0 |= 0x80000 // Bit 19
  9: 0x0148 [0x00] END_REQSTACK()
```
