# 17379841 - Evrard

## Common Data

| Field            | Value              |
|------------------|--------------------|
| Zone             | Beadeaux (ID: 147) |
| Block Size       | 408 bytes          |
| Total Events     | 7                  |
| References Count | 14                 |

## List of Events

| Event ID                 | Entrypoint   |   Size |   Instructions |
|--------------------------|--------------|--------|----------------|
| [65535](#event-65535)    | 0x0000       |      1 |              1 |
| [1000](#event-1000)      | 0x0001       |      9 |              3 |
| [65535.1](#event-655351) | 0x000A       |     16 |              2 |
| [65535.2](#event-655352) | 0x001A       |     61 |              9 |
| [65535.3](#event-655353) | 0x0057       |     79 |              8 |
| [65535.4](#event-655354) | 0x00A6       |    108 |             11 |
| [65535.5](#event-655355) | 0x0112       |     32 |             10 |

## DAT References (imed_data)

|   Index | Hex Value   |   Dec Value |
|---------|-------------|-------------|
|       0 | 0x0003      |           3 |
|       1 | 0x0028      |          40 |
|       2 | 0xA57D      |       42365 |
|       3 | 0xFFFF66BE  |  4294928062 |
|       4 | 0x0CDF      |        3295 |
|       5 | 0x0001      |           1 |
|       6 | 0x0094      |         148 |
|       7 | 0x0000      |           0 |
|       8 | 0x1C3C      |        7228 |
|       9 | 0x1C3E      |        7230 |
|      10 | 0x0DE8      |        3560 |
|      11 | 0xCE95      |       52885 |
|      12 | 0xFFFF96CC  |  4294940364 |
|      13 | 0x0387      |         903 |

## Events

### Event 65535

#### Metadata

| Field        | Value   |
|--------------|---------|
| Entrypoint   | 0x0000  |
| Data Size    | 1 bytes |
| Instructions | 1       |

```
      00 01 02 03 04 05 06 07  08 09 0A 0B 0C 0D 0E 0F
      -- -- -- -- -- -- -- --  -- -- -- -- -- -- -- --
0000: 00                                                .               
```

#### Opcodes

```
  0: 0x0000 [0x00] END_REQSTACK()
```

### Event 1000

#### Metadata

| Field        | Value   |
|--------------|---------|
| Entrypoint   | 0x0001  |
| Data Size    | 9 bytes |
| Instructions | 3       |

```
      00 01 02 03 04 05 06 07  08 09 0A 0B 0C 0D 0E 0F
      -- -- -- -- -- -- -- --  -- -- -- -- -- -- -- --
0000:    22 00 2F 00 01 32 09  01 00                     "./..2...      
```

#### Opcodes

```
  0: 0x0001 [0x22] ENTITY_HIDE_FLAG(enabled=0x00)
  1: 0x0003 [0x2F] Evrard (ID: 17379841/0x01093201)->Render.Flags0 &= ~0x80000 // Bit 19
  2: 0x0009 [0x00] END_REQSTACK()
```

### Event 65535.1

#### Metadata

| Field        | Value    |
|--------------|----------|
| Entrypoint   | 0x000A   |
| Data Size    | 16 bytes |
| Instructions | 2        |

```
      00 01 02 03 04 05 06 07  08 09 0A 0B 0C 0D 0E 0F
      -- -- -- -- -- -- -- --  -- -- -- -- -- -- -- --
0000:                                66 00 80 F8 FF FF            f.....
0010: 7F F8 FF FF 7F 73 67 6D  30 00                    .....sgm0.      
```

#### Opcodes

```
  0: 0x000A [0x66] LOAD_EXT_SCHEDULER_MAIN: Load scheduler "sgm0" with entities [EventEntity, EventEntity], work=3*
  1: 0x0019 [0x00] END_REQSTACK()
```

### Event 65535.2

#### Metadata

| Field        | Value    |
|--------------|----------|
| Entrypoint   | 0x001A   |
| Data Size    | 61 bytes |
| Instructions | 9        |

```
      00 01 02 03 04 05 06 07  08 09 0A 0B 0C 0D 0E 0F
      -- -- -- -- -- -- -- --  -- -- -- -- -- -- -- --
0010:                                53 F8 FF FF 7F F8            S.....
0020: FF FF 7F 73 67 6D 30 66  00 80 F8 FF FF 7F F8 FF  ...sgm0f........
0030: FF 7F 74 61 74 30 53 F8  FF FF 7F F8 FF FF 7F 74  ..tat0S........t
0040: 61 74 30 32 01 80 1F 00  02 80 03 80 04 80 1F 01  at02............
0050: 6F 1E F0 FF FF 7F 00                              o......         
```

#### Opcodes

```
  0: 0x001A [0x53] WAIT_SCHEDULER_TASK: Wait for scheduler "sgm0" with entities [EventEntity, EventEntity]
  1: 0x0027 [0x66] LOAD_EXT_SCHEDULER_MAIN: Load scheduler "tat0" with entities [EventEntity, EventEntity], work=3*
  2: 0x0036 [0x53] WAIT_SCHEDULER_TASK: Wait for scheduler "tat0" with entities [EventEntity, EventEntity]
  3: 0x0043 [0x32] ExtData[1]->MainSpeed = 40* * 0.1
  4: 0x0046 [0x1F] MOVE_ENTITY: EventEntity moves to X=42.365*, Z=-39.234*, Y=3.295*
  5: 0x004E [0x1F] MOVE_ENTITY: Update entity position (mode=1)
  6: 0x0050 [0x6F] WAIT_FRAME_DELAY: Yield until WaitTime reaches zero
  7: 0x0051 [0x1E] EventEntity looks at LocalPlayer and starts talking
  8: 0x0056 [0x00] END_REQSTACK()
```

### Event 65535.3

#### Metadata

| Field        | Value    |
|--------------|----------|
| Entrypoint   | 0x0057   |
| Data Size    | 79 bytes |
| Instructions | 8        |

```
      00 01 02 03 04 05 06 07  08 09 0A 0B 0C 0D 0E 0F
      -- -- -- -- -- -- -- --  -- -- -- -- -- -- -- --
0050:                      66  05 80 01 32 09 01 01 32         f...2...2
0060: 09 01 67 6F 6D 30 45 06  80 F0 FF FF 7F F0 FF FF  ..gom0E.........
0070: 7F 73 62 64 32 07 80 79  00 F0 FF FF 7F F8 FF FF  .sbd2..y........
0080: 7F 2B 01 32 09 01 08 80  23 53 01 32 09 01 01 32  .+.2....#S.2...2
0090: 09 01 67 6F 6D 30 66 05  80 01 32 09 01 01 32 09  ..gom0f...2...2.
00A0: 01 67 6F 6D 31 00                                 .gom1.          
```

#### Opcodes

```
  0: 0x0057 [0x66] LOAD_EXT_SCHEDULER_MAIN: Load scheduler "gom0" with entities [Evrard (ID: 17379841/0x01093201), Evrard (ID: 17379841/0x01093201)], work=1*
  1: 0x0066 [0x45] LOAD_SCHEDULED_TASK: Load scheduler "sbd2" with entities [LocalPlayer, LocalPlayer], work=[148*, 0*]
  2: 0x0077 [0x79] LocalPlayer looks at EventEntity (Basic look)
  3: 0x0081 [0x2B] Evrard (ID: 17379841/0x01093201) [7228*]:
    → "Please, take our things back to Selbina for us. We can run well enough on our own."
  4: 0x0088 [0x23] WAIT_FOR_DIALOG_INTERACTION
  5: 0x0089 [0x53] WAIT_SCHEDULER_TASK: Wait for scheduler "gom0" with entities [Evrard (ID: 17379841/0x01093201), Evrard (ID: 17379841/0x01093201)]
  6: 0x0096 [0x66] LOAD_EXT_SCHEDULER_MAIN: Load scheduler "gom1" with entities [Evrard (ID: 17379841/0x01093201), Evrard (ID: 17379841/0x01093201)], work=1*
  7: 0x00A5 [0x00] END_REQSTACK()
```

### Event 65535.4

#### Metadata

| Field        | Value     |
|--------------|-----------|
| Entrypoint   | 0x00A6    |
| Data Size    | 108 bytes |
| Instructions | 11        |

```
      00 01 02 03 04 05 06 07  08 09 0A 0B 0C 0D 0E 0F
      -- -- -- -- -- -- -- --  -- -- -- -- -- -- -- --
00A0:                   53 01  32 09 01 01 32 09 01 67        S.2...2..g
00B0: 6F 6D 31 66 07 80 01 32  09 01 01 32 09 01 74 6C  om1f...2...2..tl
00C0: 6B 30 79 00 F0 FF FF 7F  F8 FF FF 7F 2B 01 32 09  k0y.........+.2.
00D0: 01 09 80 23 53 01 32 09  01 01 32 09 01 74 6C 6B  ...#S.2...2..tlk
00E0: 30 66 07 80 01 32 09 01  01 32 09 01 74 65 6E 30  0f...2...2..ten0
00F0: 55 06 80 F0 FF FF 7F F0  FF FF 7F 73 62 64 32 53  U..........sbd2S
0100: 01 32 09 01 01 32 09 01  74 65 6E 30 7B F0 FF FF  .2...2..ten0{...
0110: 7F 00                                             ..              
```

#### Opcodes

```
  0: 0x00A6 [0x53] WAIT_SCHEDULER_TASK: Wait for scheduler "gom1" with entities [Evrard (ID: 17379841/0x01093201), Evrard (ID: 17379841/0x01093201)]
  1: 0x00B3 [0x66] LOAD_EXT_SCHEDULER_MAIN: Load scheduler "tlk0" with entities [Evrard (ID: 17379841/0x01093201), Evrard (ID: 17379841/0x01093201)], work=0*
  2: 0x00C2 [0x79] LocalPlayer looks at EventEntity (Basic look)
  3: 0x00CC [0x2B] Evrard (ID: 17379841/0x01093201) [7230*]:
    → "Once back in Selbina, give them to Thunder Hawk. He'll make sure we get them. Thank you, brave one!"
  4: 0x00D3 [0x23] WAIT_FOR_DIALOG_INTERACTION
  5: 0x00D4 [0x53] WAIT_SCHEDULER_TASK: Wait for scheduler "tlk0" with entities [Evrard (ID: 17379841/0x01093201), Evrard (ID: 17379841/0x01093201)]
  6: 0x00E1 [0x66] LOAD_EXT_SCHEDULER_MAIN: Load scheduler "ten0" with entities [Evrard (ID: 17379841/0x01093201), Evrard (ID: 17379841/0x01093201)], work=0*
  7: 0x00F0 [0x55] WAIT_LOAD_SCHEDULER: Wait for scheduler "sbd2" with entities [LocalPlayer, LocalPlayer], work=148*
  8: 0x00FF [0x53] WAIT_SCHEDULER_TASK: Wait for scheduler "ten0" with entities [Evrard (ID: 17379841/0x01093201), Evrard (ID: 17379841/0x01093201)]
  9: 0x010C [0x7B] LocalPlayer stops talking
 10: 0x0111 [0x00] END_REQSTACK()
```

### Event 65535.5

#### Metadata

| Field        | Value    |
|--------------|----------|
| Entrypoint   | 0x0112   |
| Data Size    | 32 bytes |
| Instructions | 10       |

```
      00 01 02 03 04 05 06 07  08 09 0A 0B 0C 0D 0E 0F
      -- -- -- -- -- -- -- --  -- -- -- -- -- -- -- --
0110:       7B F8 FF FF 7F 39  0A 80 6F 70 32 01 80 1F    {....9..op2...
0120: 00 0B 80 0C 80 0D 80 1F  01 22 01 2F 01 01 32 09  ........."./..2.
0130: 01 00                                             ..              
```

#### Opcodes

```
  0: 0x0112 [0x7B] EventEntity stops talking
  1: 0x0117 [0x39] SET_ENTITY_DIRECTION(direction=19.6°*)
  2: 0x011A [0x6F] WAIT_FRAME_DELAY: Yield until WaitTime reaches zero
  3: 0x011B [0x70] WAIT_ENTITY_RENDER_FLAG: Wait while EventEntity->Render.Flags3 bit 2 is set (cancel turn if not)
  4: 0x011C [0x32] ExtData[1]->MainSpeed = 40* * 0.1
  5: 0x011F [0x1F] MOVE_ENTITY: EventEntity moves to X=52.885*, Z=-26.932*, Y=0.903*
  6: 0x0127 [0x1F] MOVE_ENTITY: Update entity position (mode=1)
  7: 0x0129 [0x22] ENTITY_HIDE_FLAG(enabled=0x01)
  8: 0x012B [0x2F] Evrard (ID: 17379841/0x01093201)->Render.Flags0 |= 0x80000 // Bit 19
  9: 0x0131 [0x00] END_REQSTACK()
```
