# 17379845

## Common Data

| Field            | Value              |
|------------------|--------------------|
| Zone             | Beadeaux (ID: 147) |
| Block Size       | 80 bytes           |
| Total Events     | 2                  |
| References Count | 5                  |

## List of Events

| Event ID              | Entrypoint   |   Size |   Instructions |
|-----------------------|--------------|--------|----------------|
| [65535](#event-65535) | 0x0000       |      1 |              1 |
| [113](#event-113)     | 0x0001       |     33 |             12 |

## DAT References (imed_data)

|   Index | Hex Value   |   Dec Value |
|---------|-------------|-------------|
|       0 | 0x1CDB      |        7387 |
|       1 | 0x1CDC      |        7388 |
|       2 | 0x0000      |           0 |
|       3 | 0x1CDD      |        7389 |
|       4 | 0x1CDE      |        7390 |

## String References

- **7387**: A piece of parchment has been nailed here.
- **7388**: Do you want to read it? [Yes./Not now.]
- **7389**: Mrahcva dauqe htsi yekllec eht.
- **7390**: Vada uqons naem dnuos on.

## Events

### Event 65535

#### Metadata

| Field        | Value   |
|--------------|---------|
| Entrypoint   | 0x0000  |
| Data Size    | 1 bytes |
| Instructions | 1       |

```
      00 01 02 03 04 05 06 07  08 09 0A 0B 0C 0D 0E 0F
      -- -- -- -- -- -- -- --  -- -- -- -- -- -- -- --
0000: 00                                                .               
```

#### Opcodes

```
  0: 0x0000 [0x00] END_REQSTACK()
```

### Event 113

#### Metadata

| Field        | Value    |
|--------------|----------|
| Entrypoint   | 0x0001   |
| Data Size    | 33 bytes |
| Instructions | 12       |

```
      00 01 02 03 04 05 06 07  08 09 0A 0B 0C 0D 0E 0F
      -- -- -- -- -- -- -- --  -- -- -- -- -- -- -- --
0000:    48 00 80 23 24 01 80  02 80 02 80 25 02 00 10   H..#$......%...
0010: 02 80 00 20 00 48 03 80  23 48 04 80 23 01 20 00  ... .H..#H..#. .
0020: 21 00                                             !.              
```

#### Opcodes

```
  0: 0x0001 [0x48] [System] [7387*]:
    → "A piece of parchment has been nailed here."
  1: 0x0004 [0x23] WAIT_FOR_DIALOG_INTERACTION
  2: 0x0005 [0x24] CREATE_DIALOG(message_id=7388*, default_option=0*, option_flags=0*)
    → "Do you want to read it? [Yes./Not now.]"
  3: 0x000C [0x25] WAIT_DIALOG_SELECT()
  4: 0x000D [0x02] IF !(Work_Zone[0] == 0*) GOTO 0x0020
  5: 0x0015 [0x48] [System] [7389*]:
    → "Mrahcva dauqe htsi yekllec eht."
  6: 0x0018 [0x23] WAIT_FOR_DIALOG_INTERACTION
  7: 0x0019 [0x48] [System] [7390*]:
    → "Vada uqons naem dnuos on."
  8: 0x001C [0x23] WAIT_FOR_DIALOG_INTERACTION
  9: 0x001D [0x01] GOTO 0x0020

SUBROUTINE_0020:
 10: 0x0020 [0x21] END_EVENT
 11: 0x0021 [0x00] END_REQSTACK()
```
