# 17379871

## Common Data

| Field            | Value              |
|------------------|--------------------|
| Zone             | Beadeaux (ID: 147) |
| Block Size       | 92 bytes           |
| Total Events     | 3                  |
| References Count | 2                  |

## List of Events

| Event ID              | Entrypoint   |   Size |   Instructions |
|-----------------------|--------------|--------|----------------|
| [65535](#event-65535) | 0x0000       |      1 |              1 |
| [15000](#event-15000) | 0x0001       |      1 |              1 |
| [15001](#event-15001) | 0x0002       |     53 |             11 |

## DAT References (imed_data)

|   Index | Hex Value   |   Dec Value |
|---------|-------------|-------------|
|       0 | 0x0000      |           0 |
|       1 | 0x0001      |           1 |

## Events

### Event 65535

#### Metadata

| Field        | Value   |
|--------------|---------|
| Entrypoint   | 0x0000  |
| Data Size    | 1 bytes |
| Instructions | 1       |

```
      00 01 02 03 04 05 06 07  08 09 0A 0B 0C 0D 0E 0F
      -- -- -- -- -- -- -- --  -- -- -- -- -- -- -- --
0000: 00                                                .               
```

#### Opcodes

```
  0: 0x0000 [0x00] END_REQSTACK()
```

### Event 15000

#### Metadata

| Field        | Value   |
|--------------|---------|
| Entrypoint   | 0x0001  |
| Data Size    | 1 bytes |
| Instructions | 1       |

```
      00 01 02 03 04 05 06 07  08 09 0A 0B 0C 0D 0E 0F
      -- -- -- -- -- -- -- --  -- -- -- -- -- -- -- --
0000:    00                                              .              
```

#### Opcodes

```
  0: 0x0001 [0x00] END_REQSTACK()
```

### Event 15001

#### Metadata

| Field        | Value    |
|--------------|----------|
| Entrypoint   | 0x0002   |
| Data Size    | 53 bytes |
| Instructions | 11       |

```
      00 01 02 03 04 05 06 07  08 09 0A 0B 0C 0D 0E 0F
      -- -- -- -- -- -- -- --  -- -- -- -- -- -- -- --
0000:       03 00 00 02 10 03  03 00 00 80 03 02 00 00    ..............
0010: 80 02 03 00 00 80 00 36  00 1C 01 80 57 02 00 02  .......6....W...
0020: 00 00 02 00 05 33 00 28  10 1E 32 09 01 02 03 03  .....3.(..2.....
0030: 00 01 80 01 11 00 00                              .......         
```

#### Opcodes

```
  0: 0x0002 [0x03] ExtData[1]->WorkLocal[0] = Work_Zone[2]
  1: 0x0007 [0x03] ExtData[1]->WorkLocal[3] = 0*
  2: 0x000C [0x03] ExtData[1]->WorkLocal[2] = 0*
  3: 0x0011 [0x02] IF !(ExtData[1]->WorkLocal[3] == 0*) GOTO 0x0036
  4: 0x0019 [0x1C] WAIT(1* ticks)
  5: 0x001C [0x57] CREATE_FRAME_DELAY(delay=ExtData[1]->WorkLocal[2])
  6: 0x001F [0x02] IF !(ExtData[1]->WorkLocal[0] > ExtData[1]->WorkLocal[2]) GOTO 0x0033
  7: 0x0027 [0x28] REQ_SET_WITH_CONDITIONS(priority=0x10, target_entity=Geomantic Reservoir (ID: 17379870/0x0109321E), tag_num=0x02)
  8: 0x002E [0x03] ExtData[1]->WorkLocal[3] = 1*
  9: 0x0033 [0x01] GOTO 0x0011
 10: 0x0036 [0x00] END_REQSTACK()
```
