# 17068551 - Abhrem

## Common Data

| Field            | Value                  |
|------------------|------------------------|
| Zone             | The Colosseum (ID: 71) |
| Block Size       | 3500 bytes             |
| Total Events     | 4                      |
| References Count | 108                    |

## List of Events

| Event ID              | Entrypoint   |   Size |   Instructions |
|-----------------------|--------------|--------|----------------|
| [65535](#event-65535) | 0x0000       |      1 |              1 |
| [110](#event-110)     | 0x0001       |    221 |             71 |
| [112](#event-112)     | 0x00DE       |   2396 |            549 |
| [111](#event-111)     | 0x0A3A       |    415 |             74 |

## DAT References (imed_data)

|   Index | Hex Value   |   Dec Value |
|---------|-------------|-------------|
|       0 | 0x09AE      |        2478 |
|       1 | 0x09AD      |        2477 |
|       2 | 0x2D41      |       11585 |
|       3 | 0x0000      |           0 |
|       4 | 0x1001      |        4097 |
|       5 | 0x2D42      |       11586 |
|       6 | 0x2D43      |       11587 |
|       7 | 0x0001      |           1 |
|       8 | 0x2D44      |       11588 |
|       9 | 0x2D45      |       11589 |
|      10 | 0x2D76      |       11638 |
|      11 | 0x2D46      |       11590 |
|      12 | 0x2D47      |       11591 |
|      13 | 0x2D48      |       11592 |
|      14 | 0x2D49      |       11593 |
|      15 | 0x0002      |           2 |
|      16 | 0x2D4A      |       11594 |
|      17 | 0x09C4      |        2500 |
|      18 | 0x2D4C      |       11596 |
|      19 | 0x2D4D      |       11597 |
|      20 | 0x0003      |           3 |
|      21 | 0x2D4E      |       11598 |
|      22 | 0x2D4F      |       11599 |
|      23 | 0x2D50      |       11600 |
|      24 | 0x4921      |       18721 |
|      25 | 0x4922      |       18722 |
|      26 | 0x2D51      |       11601 |
|      27 | 0x2D52      |       11602 |
|      28 | 0x0004      |           4 |
|      29 | 0x2D77      |       11639 |
|      30 | 0x0008      |           8 |
|      31 | 0x0009      |           9 |
|      32 | 0x000D      |          13 |
|      33 | 0x000E      |          14 |
|      34 | 0x0014      |          20 |
|      35 | 0x0015      |          21 |
|      36 | 0x0007      |           7 |
|      37 | 0x0011      |          17 |
|      38 | 0x0012      |          18 |
|      39 | 0x001B      |          27 |
|      40 | 0x2D53      |       11603 |
|      41 | 0x2D54      |       11604 |
|      42 | 0x2D55      |       11605 |
|      43 | 0x2D56      |       11606 |
|      44 | 0x2D57      |       11607 |
|      45 | 0x2D58      |       11608 |
|      46 | 0x2D59      |       11609 |
|      47 | 0x0010      |          16 |
|      48 | 0x2D5A      |       11610 |
|      49 | 0x2D5B      |       11611 |
|      50 | 0x0020      |          32 |
|      51 | 0x2D5C      |       11612 |
|      52 | 0x0030      |          48 |
|      53 | 0x000B      |          11 |
|      54 | 0x2D5D      |       11613 |
|      55 | 0x2D5E      |       11614 |
|      56 | 0x2D5F      |       11615 |
|      57 | 0x2D60      |       11616 |
|      58 | 0x0040      |          64 |
|      59 | 0x000C      |          12 |
|      60 | 0x0013      |          19 |
|      61 | 0x2D61      |       11617 |
|      62 | 0x2D62      |       11618 |
|      63 | 0x2D64      |       11620 |
|      64 | 0x2D68      |       11624 |
|      65 | 0x2D66      |       11622 |
|      66 | 0x0005      |           5 |
|      67 | 0x0006      |           6 |
|      68 | 0x2D65      |       11621 |
|      69 | 0x2D69      |       11625 |
|      70 | 0x2D67      |       11623 |
|      71 | 0x1CE1      |        7393 |
|      72 | 0x2D6A      |       11626 |
|      73 | 0x003E      |          62 |
|      74 | 0x2D6B      |       11627 |
|      75 | 0x2D6C      |       11628 |
|      76 | 0x2D6D      |       11629 |
|      77 | 0x2D72      |       11634 |
|      78 | 0x00C8      |         200 |
|      79 | 0x2D73      |       11635 |
|      80 | 0x2D74      |       11636 |
|      81 | 0x2D75      |       11637 |
|      82 | 0x2D78      |       11640 |
|      83 | 0x2D79      |       11641 |
|      84 | 0x2D7A      |       11642 |
|      85 | 0x2D7B      |       11643 |
|      86 | 0x2D7C      |       11644 |
|      87 | 0x2D7D      |       11645 |
|      88 | 0x2D7E      |       11646 |
|      89 | 0x2D7F      |       11647 |
|      90 | 0x2D80      |       11648 |
|      91 | 0x2D81      |       11649 |
|      92 | 0x2D82      |       11650 |
|      93 | 0x2D83      |       11651 |
|      94 | 0x2D84      |       11652 |
|      95 | 0x2D85      |       11653 |
|      96 | 0x2D86      |       11654 |
|      97 | 0x2D93      |       11667 |
|      98 | 0x2D92      |       11666 |
|      99 | 0x2D94      |       11668 |
|     100 | 0x2D95      |       11669 |
|     101 | 0x2D96      |       11670 |
|     102 | 0x001C      |          28 |
|     103 | 0x001F      |          31 |
|     104 | 0x000F      |          15 |
|     105 | 0x001A      |          26 |
|     106 | 0x0019      |          25 |
|     107 | 0x0018      |          24 |

## String References

- **11585**: Welcome to the Pit. I deal in the $0 necessary for calling monsters to participate in Pankration. How may I help you?
- **11586**: I would like to... [Forge $0./Add a skill to my $0./Learn about $0./Learn about $1./Sharpen the fangs on your helm.]
- **11587**: To forge $0 you must first have $1 engraved with the image of a monster.
- **11588**: Trade me the plate and a single $2, and for a mere $10 [jetton/jettons] I shall create what you desire.
- **11589**: Please note that there are some $1 that I am not yet skilled enough to handle. I will inform you in the event you bring one of these.
- **11590**: To add a new feral skill to any $0, you must first obtain $1 containing the image of that skill.
- **11591**: Then trade me the plate and $0, and for a mere $10 [jetton/jettons] I shall meld the two items.
- **11592**: However, please remember that all monsters have what is called a feral point capacity and that I cannot add any new skills to a reflector if the imprinted monster has already exceeded that limit.
- **11593**: Also, there are certain skills that cannot be added to a reflector due to the recorded monster's job and or type.
- **11594**: % reflect images imposed on a soul plate, calling forth the recorded monster. Adding more soul plate images to a reflector can change the makeup of a monster, rendering it more powerful than the original image.
- **11596**: If you wish to enter a monster in a Pankration battle, you must first transfer it from your $0 to $5.
- **11597**: Ask the attendant to my right for more details.
- **11598**: $1 are thin glass plates upon which the images of monsters have been superimposed.
- **11599**: These images can be used to faithfully transfer the various skills and abilities of those monsters.
- **11600**: In addition, there are some attributes which are more clearly defined than others. These are called feral skills and can be used to enhance monsters of differing families.
- **11601**: To create $1, you must first equip $3 and $4, then use the device on a living, breathing creature.
- **11602**: Of course, there exist monsters with wills too strong to be trapped in $1. Ask your fellow adventurers for hints on which monsters fall into this category.
- **11603**: This $0 contains the following image: Name: $1 Family: $3
- **11604**: Main Job: [None/Warrior/Monk/White Mage/Black Mage/Red Mage/Thief/Paladin/Dark Knight/Beastmaster/Bard/Ranger/Samurai/Ninja/Dragoon/Summoner/Blue Mage/Corsair/Puppetmaster/Dancer/Scholar] Support Job: [None/Warrior/Monk/White Mage/Black Mage/Red Mage/Thief/Paladin/Dark Knight/Beastmaster/Bard/Ranger/Samurai/Ninja/Dragoon/Summoner/Blue Mage/Corsair/Puppetmaster/Dancer/Scholar] Level: $4
- **11605**: Now, do you need any further assistance?
- **11606**: What would you like to do? [Quit./Change monster name./Confirm feral skills./Remove feral skills./Confirm FP total./Confirm level and EXP./Confirm monster temperament./Review terminology.]
- **11607**: Your monster's current name is $1 .
- **11608**: Would you like to change this? [Yes./No.]
- **11609**: Select a first name: [Pit./Bloody./Brutal./Celestial./Combat./Cyclopean./Dark./Deadly./Drachen./Giant./Hostile./Howling./Hyper./Invincible./Merciless./Mighty./Next page.]
- **11610**: Select a first name: [Necro./Nimble./Poison./Putrid./Rabid./Radiant./Raging./Relentless./Savage./Silent./Tenebrous./The./Triple./Undead./Writhing./Serpentine./Next page./Previous page.]
- **11611**: Select a first name: [Aile./Bete./Croc./Babine./Carapace./Colosse./Corne./Fauve./Flamme./Griffe./Machoire./Mandibule./Patte./Rapace./Tentacule./Voyou./Next page./Previous page.]
- **11612**: Select a first name: [Zaubernder./Brutaler./Explosives./Funkelnder./Kraftvoller./Moderndes./Tosender./Schwerer./Sprintender./Starker./Stinkender./Taumelnder./Tolles./Verlorenes./Wendiger./Wuchtiger./Previous page.]
- **11613**: Select a second name: [Monster./Beast./Butcher./Carnifex./Critter./Cyclone./Dancer./Darkness./Erudite./Fang./Fist./Flayer./Gladiator./Heart./Howl./Hunter./Next page.]
- **11614**: Select a second name: [Jack./Machine./Mountain./Nemesis./Raven./Reaver./Rock./Stalker./T./Tiger./Tornado./Vermin./Vortex./Whispers./X./Prime./Next page./Previous page.]
- **11615**: Select a second name: [Agile./Brave./Coriace./Diabolique./Espiegle./Feroce./Fidele./Fourbe./Impitoyable./Nuisible./Robuste./Sanguinaire./Sauvage./Stupide./Tenace./Tendre./Next page./Previous page.]
- **11616**: Select a second name: [Boesewicht./Engel./Flitzpiepe./Gottkaiser./Klotz./Muelleimer./Pechvogel./Postbote./Prinzessin./Raecherin./Riesenbaby./Hexer./Teufel./Vieh./Vielfrass./Fleischer./Previous page.]
- **11617**: The name you have selected is $1 .
- **11618**: Is this acceptable? [But of course!/Absolutely not!/Never mind.]
- **11620**: Please select an option: [Quit./Confirm skills (without help)./Confirm skills (with help).]
- **11621**: This monster has no additional feral skills.
- **11622**: (lv. $1)
- **11623**: (lv. $1) This skill has the following effect:
- **11624**: 
- **11625**: This skill has the following effect:
- **11626**: That's about it.
- **11627**: Remove which skill? [None./././././.]
- **11628**: If you remove "" from your monster, you will require another soul plate of the same skill to reapply it.
- **11629**: Do you wish to proceed? [Yes./No, wait!]
- **11634**: Your monster's current FP count is $0/$1.
- **11635**: Your monster is currently level $0. $1 experience [point/points] are necessary to attain the next level.
- **11636**: Your monster's discipline level is [extremely low/very low/low/slightly below normal/slightly above normal/high/very high/extremely high].
- **11637**: Its temperament is [extremely tame/very tame/tame/somewhat tame/somewhat wild/wild/very wild/extremely wild] while [extremely defensive/very defensive/defensive/somewhat defensive/somewhat aggressive/aggressive/very aggressive/extremely aggressive].
- **11638**: Is there anything else you require?
- **11639**: Thank you, come again!
- **11640**: Pankration has a long list of terminology unique to the sport.
- **11641**: Which would you like me to explain? [Nothing./Feral skills./FP./Discipline./Temperament.]
- **11642**: "Feral skills" is the collective term used when referring to the various abilities and attributes assigned to monsters participating in Pankration.
- **11643**: Some feral skills have job, monster family, and level restrictions and cannot be assigned to monsters who do not meet certain requirements.
- **11644**: In addition, most feral skills have levels, with higher-level skills yielding better results. However, keep in mind that there are some feral skills which never increase in level.
- **11645**: Feral skills will generally improve after a monster's continued participation in Pankration events.
- **11646**: While most monsters possess no feral skills upon capture, there are rare cases when a subject will already be blessed with one or two skills.
- **11647**: These special monsters usually are more receptive to additional feral skills, though it is impossible to remove the skills they are born with.
- **11648**: FP is the abbreviation for feral points. These points are used when assigning feral skills to monsters.
- **11649**: Assigning a feral skill requires a certain amount of a monster's total FP capacity. Generally speaking, the more powerful a skill, the more FP will be required when assigning it.
- **11650**: Every monster has a different FP capacity, and once that capacity is reached, additional feral skills can no longer be assigned.
- **11651**: Discipline describes how seasoned a monster's battle senses are.
- **11652**: The more disciplined a monster is, the more receptive the beast is to commands during battle.
- **11653**: Temperament describes the overall nature of a monster.
- **11654**: Most monsters range from wild to tame, and defensive to aggressive. A monster's temperament greatly affects its battle style.
- **11666**: Using this $0, I can forge $1 containing a level $3 $2-type monster or add the following skill to an existing reflector:
- **11667**: I cannot forge a new $1 from this $0. I can, however, add the following skill to an existing reflector:
- **11668**: \` (lv. $5)\`
- **11669**: \`\`
- **11670**: FP requirement: $6

## Events

### Event 65535

#### Metadata

| Field        | Value   |
|--------------|---------|
| Entrypoint   | 0x0000  |
| Data Size    | 1 bytes |
| Instructions | 1       |

```
      00 01 02 03 04 05 06 07  08 09 0A 0B 0C 0D 0E 0F
      -- -- -- -- -- -- -- --  -- -- -- -- -- -- -- --
0000: 00                                                .               
```

#### Opcodes

```
  0: 0x0000 [0x00] END_REQSTACK()
```

### Event 110

#### Metadata

| Field        | Value     |
|--------------|-----------|
| Entrypoint   | 0x0001    |
| Data Size    | 221 bytes |
| Instructions | 71        |

```
      00 01 02 03 04 05 06 07  08 09 0A 0B 0C 0D 0E 0F
      -- -- -- -- -- -- -- --  -- -- -- -- -- -- -- --
0000:    03 02 10 00 80 03 03  10 01 80 1E F0 FF FF 7F   ...............
0010: 1D 02 80 23 05 1C 00 02  1C 00 03 80 01 D8 00 03  ...#............
0020: 02 10 00 80 03 03 10 01  80 03 04 10 04 80 24 05  ..............$.
0030: 80 03 80 03 80 25 02 00  10 03 80 00 56 00 1D 06  .....%......V...
0040: 80 23 03 02 17 07 80 1D  08 80 23 1D 09 80 23 1D  .#........#...#.
0050: 0A 80 23 01 D5 00 02 00  10 07 80 00 7A 00 1D 0B  ..#.........z...
0060: 80 23 03 02 17 07 80 1D  0C 80 23 1D 0D 80 23 1D  .#........#...#.
0070: 0E 80 23 1D 0A 80 23 01  D5 00 02 00 10 0F 80 00  ..#...#.........
0080: 9A 00 1D 10 80 23 03 07  10 11 80 1D 12 80 23 1D  .....#........#.
0090: 13 80 23 1D 0A 80 23 01  D5 00 02 00 10 14 80 00  ..#...#.........
00A0: C7 00 1D 15 80 23 1D 16  80 23 1D 17 80 23 03 05  .....#...#...#..
00B0: 10 18 80 03 06 10 19 80  1D 1A 80 23 1D 1B 80 23  ...........#...#
00C0: 1D 0A 80 23 01 D5 00 02  00 10 1C 80 00 D5 00 06  ...#............
00D0: 1C 00 01 D5 00 01 17 00  1D 1D 80 23 21 00        ...........#!.  
```

#### Opcodes

```
  0: 0x0001 [0x03] Work_Zone[2] = 2478*
  1: 0x0006 [0x03] Work_Zone[3] = 2477*
  2: 0x000B [0x1E] EventEntity looks at LocalPlayer and starts talking
  3: 0x0010 [0x1D] PRINT_EVENT_MESSAGE(message_id=11585*)
    → "Welcome to the Pit. I deal in the $0 necessary for calling monsters to participate in Pankration. How may I help you?"
  4: 0x0013 [0x23] WAIT_FOR_DIALOG_INTERACTION
  5: 0x0014 [0x05] ExtData[1]->WorkLocal[28] = 1
  6: 0x0017 [0x02] IF !(ExtData[1]->WorkLocal[28] == 0*) GOTO 0x00D8
  7: 0x001F [0x03] Work_Zone[2] = 2478*
  8: 0x0024 [0x03] Work_Zone[3] = 2477*
  9: 0x0029 [0x03] Work_Zone[4] = 4097*
 10: 0x002E [0x24] CREATE_DIALOG(message_id=11586*, default_option=0*, option_flags=0*)
    → "I would like to... [Forge $0./Add a skill to my $0./Learn about $0./Learn about $1./Sharpen the fangs on your helm.]"
 11: 0x0035 [0x25] WAIT_DIALOG_SELECT()
 12: 0x0036 [0x02] IF !(Work_Zone[0] == 0*) GOTO 0x0056
 13: 0x003E [0x1D] PRINT_EVENT_MESSAGE(message_id=11587*)
    → "To forge $0 you must first have $1 engraved with the image of a monster."
 14: 0x0041 [0x23] WAIT_FOR_DIALOG_INTERACTION
 15: 0x0042 [0x03] Work_Zone_1700[2] = 1*
 16: 0x0047 [0x1D] PRINT_EVENT_MESSAGE(message_id=11588*)
    → "Trade me the plate and a single $2, and for a mere $10 [jetton/jettons] I shall create what you desire."
 17: 0x004A [0x23] WAIT_FOR_DIALOG_INTERACTION
 18: 0x004B [0x1D] PRINT_EVENT_MESSAGE(message_id=11589*)
    → "Please note that there are some $1 that I am not yet skilled enough to handle. I will inform you in the event you bring one of these."
 19: 0x004E [0x23] WAIT_FOR_DIALOG_INTERACTION
 20: 0x004F [0x1D] PRINT_EVENT_MESSAGE(message_id=11638*)
    → "Is there anything else you require?"
 21: 0x0052 [0x23] WAIT_FOR_DIALOG_INTERACTION
 22: 0x0053 [0x01] GOTO 0x00D5
 23: 0x0056 [0x02] IF !(Work_Zone[0] == 1*) GOTO 0x007A
 24: 0x005E [0x1D] PRINT_EVENT_MESSAGE(message_id=11590*)
    → "To add a new feral skill to any $0, you must first obtain $1 containing the image of that skill."
 25: 0x0061 [0x23] WAIT_FOR_DIALOG_INTERACTION
 26: 0x0062 [0x03] Work_Zone_1700[2] = 1*
 27: 0x0067 [0x1D] PRINT_EVENT_MESSAGE(message_id=11591*)
    → "Then trade me the plate and $0, and for a mere $10 [jetton/jettons] I shall meld the two items."
 28: 0x006A [0x23] WAIT_FOR_DIALOG_INTERACTION
 29: 0x006B [0x1D] PRINT_EVENT_MESSAGE(message_id=11592*)
    → "However, please remember that all monsters have what is called a feral point capacity and that I cannot add any new skills to a reflector if the imprinted monster has already exceeded that limit."
 30: 0x006E [0x23] WAIT_FOR_DIALOG_INTERACTION
 31: 0x006F [0x1D] PRINT_EVENT_MESSAGE(message_id=11593*)
    → "Also, there are certain skills that cannot be added to a reflector due to the recorded monster's job and or type."
 32: 0x0072 [0x23] WAIT_FOR_DIALOG_INTERACTION
 33: 0x0073 [0x1D] PRINT_EVENT_MESSAGE(message_id=11638*)
    → "Is there anything else you require?"
 34: 0x0076 [0x23] WAIT_FOR_DIALOG_INTERACTION
 35: 0x0077 [0x01] GOTO 0x00D5
 36: 0x007A [0x02] IF !(Work_Zone[0] == 2*) GOTO 0x009A
 37: 0x0082 [0x1D] PRINT_EVENT_MESSAGE(message_id=11594*)
    → "% reflect images imposed on a soul plate, calling forth the recorded monster. Adding more soul plate images to a reflector can change the makeup of a monster, rendering it more powerful than the original image."
 38: 0x0085 [0x23] WAIT_FOR_DIALOG_INTERACTION
 39: 0x0086 [0x03] Work_Zone[7] = 2500*
 40: 0x008B [0x1D] PRINT_EVENT_MESSAGE(message_id=11596*)
    → "If you wish to enter a monster in a Pankration battle, you must first transfer it from your $0 to $5."
 41: 0x008E [0x23] WAIT_FOR_DIALOG_INTERACTION
 42: 0x008F [0x1D] PRINT_EVENT_MESSAGE(message_id=11597*)
    → "Ask the attendant to my right for more details."
 43: 0x0092 [0x23] WAIT_FOR_DIALOG_INTERACTION
 44: 0x0093 [0x1D] PRINT_EVENT_MESSAGE(message_id=11638*)
    → "Is there anything else you require?"
 45: 0x0096 [0x23] WAIT_FOR_DIALOG_INTERACTION
 46: 0x0097 [0x01] GOTO 0x00D5
 47: 0x009A [0x02] IF !(Work_Zone[0] == 3*) GOTO 0x00C7
 48: 0x00A2 [0x1D] PRINT_EVENT_MESSAGE(message_id=11598*)
    → "$1 are thin glass plates upon which the images of monsters have been superimposed."
 49: 0x00A5 [0x23] WAIT_FOR_DIALOG_INTERACTION
 50: 0x00A6 [0x1D] PRINT_EVENT_MESSAGE(message_id=11599*)
    → "These images can be used to faithfully transfer the various skills and abilities of those monsters."
 51: 0x00A9 [0x23] WAIT_FOR_DIALOG_INTERACTION
 52: 0x00AA [0x1D] PRINT_EVENT_MESSAGE(message_id=11600*)
    → "In addition, there are some attributes which are more clearly defined than others. These are called feral skills and can be used to enhance monsters of differing families."
 53: 0x00AD [0x23] WAIT_FOR_DIALOG_INTERACTION
 54: 0x00AE [0x03] Work_Zone[5] = 18721*
 55: 0x00B3 [0x03] Work_Zone[6] = 18722*
 56: 0x00B8 [0x1D] PRINT_EVENT_MESSAGE(message_id=11601*)
    → "To create $1, you must first equip $3 and $4, then use the device on a living, breathing creature."
 57: 0x00BB [0x23] WAIT_FOR_DIALOG_INTERACTION
 58: 0x00BC [0x1D] PRINT_EVENT_MESSAGE(message_id=11602*)
    → "Of course, there exist monsters with wills too strong to be trapped in $1. Ask your fellow adventurers for hints on which monsters fall into this category."
 59: 0x00BF [0x23] WAIT_FOR_DIALOG_INTERACTION
 60: 0x00C0 [0x1D] PRINT_EVENT_MESSAGE(message_id=11638*)
    → "Is there anything else you require?"
 61: 0x00C3 [0x23] WAIT_FOR_DIALOG_INTERACTION
 62: 0x00C4 [0x01] GOTO 0x00D5
 63: 0x00C7 [0x02] IF !(Work_Zone[0] == 4*) GOTO 0x00D5
 64: 0x00CF [0x06] ExtData[1]->WorkLocal[28] = 0
 65: 0x00D2 [0x01] GOTO 0x00D5

SUBROUTINE_00D5:
 66: 0x00D5 [0x01] GOTO 0x0017
 67: 0x00D8 [0x1D] PRINT_EVENT_MESSAGE(message_id=11639*)
    → "Thank you, come again!"
 68: 0x00DB [0x23] WAIT_FOR_DIALOG_INTERACTION
 69: 0x00DC [0x21] END_EVENT
 70: 0x00DD [0x00] END_REQSTACK()
```

### Event 112

#### Metadata

| Field        | Value      |
|--------------|------------|
| Entrypoint   | 0x00DE     |
| Data Size    | 2396 bytes |
| Instructions | 549        |

```
      00 01 02 03 04 05 06 07  08 09 0A 0B 0C 0D 0E 0F
      -- -- -- -- -- -- -- --  -- -- -- -- -- -- -- --
00D0:                                            03 01                ..
00E0: 10 03 80 42 41 03 80 14  80 02 10 01 00 41 1C 80  ...BA........A..
00F0: 1E 80 02 10 23 00 41 1F  80 20 80 02 10 24 00 41  ....#.A.. ...$.A
0100: 21 80 22 80 02 10 25 00  03 21 00 03 80 3E 02 10  !."...%..!...>..
0110: 23 80 22 01 3C 21 00 07  80 07 80 3C 21 00 14 80  #.".<!.....<!...
0120: 07 80 02 01 00 03 80 80  32 01 03 01 00 00 80 01  ........2.......
0130: 42 01 02 01 00 07 80 80  42 01 03 01 00 11 80 01  B.......B.......
0140: 42 01 41 03 80 24 80 09  10 05 00 41 1E 80 25 80  B.A..$.....A..%.
0150: 09 10 1A 00 41 26 80 27  80 09 10 19 00 1A CA 0A  ....A&.'........
0160: 1E F0 FF FF 7F 03 02 10  01 00 03 03 10 03 00 03  ................
0170: 04 10 04 00 03 05 10 05  00 03 06 10 0A 00 03 07  ................
0180: 10 23 00 03 08 10 24 00  1D 28 80 23 1D 29 80 23  .#....$..(.#.).#
0190: 1D 2A 80 23 05 1C 00 02  1C 00 03 80 01 38 0A 24  .*.#.........8.$
01A0: 2B 80 03 80 21 00 25 02  00 10 03 80 00 BE 01 06  +...!.%.........
01B0: 1C 00 1D 1D 80 23 03 01  10 03 80 01 35 0A 02 00  .....#......5...
01C0: 10 07 80 00 CC 04 03 03  10 03 00 03 04 10 04 00  ................
01D0: 1D 2C 80 23 24 2D 80 07  80 03 80 25 02 00 10 03  .,.#$-.....%....
01E0: 80 00 BA 04 05 1D 00 02  1D 00 03 80 01 B7 04 05  ................
01F0: 1E 00 03 00 00 03 80 02  1E 00 03 80 01 1D 03 02  ................
0200: 00 00 03 80 80 3B 02 24  2E 80 03 80 03 80 25 02  .....;.$......%.
0210: 00 10 03 80 00 1A 02 01  28 02 02 00 10 2F 80 00  ........(..../..
0220: 28 02 0B 00 00 01 28 02  02 00 10 2F 80 03 38 02  (.....(..../..8.
0230: 06 1E 00 03 1F 00 00 10  01 1A 03 02 00 00 07 80  ................
0240: 80 8A 02 24 30 80 03 80  03 80 25 02 00 10 03 80  ...$0.....%.....
0250: 00 56 02 01 72 02 02 00  10 2F 80 00 64 02 0B 00  .V..r..../..d...
0260: 00 01 72 02 02 00 10 25  80 00 72 02 0C 00 00 01  ..r....%..r.....
0270: 72 02 02 00 10 2F 80 03  87 02 06 1E 00 03 1F 00  r..../..........
0280: 2F 80 07 1F 00 00 10 01  1A 03 02 00 00 0F 80 80  /...............
0290: D9 02 24 31 80 03 80 03  80 25 02 00 10 03 80 00  ..$1.....%......
02A0: A5 02 01 C1 02 02 00 10  2F 80 00 B3 02 0B 00 00  ......../.......
02B0: 01 C1 02 02 00 10 25 80  00 C1 02 0C 00 00 01 C1  ......%.........
02C0: 02 02 00 10 2F 80 03 D6  02 06 1E 00 03 1F 00 32  ..../..........2
02D0: 80 07 1F 00 00 10 01 1A  03 02 00 00 14 80 80 1A  ................
02E0: 03 24 33 80 03 80 03 80  25 02 00 10 03 80 00 F4  .$3.....%.......
02F0: 02 01 02 03 02 00 10 2F  80 00 02 03 0C 00 00 01  ......./........
0300: 02 03 02 00 10 2F 80 03  17 03 06 1E 00 03 1F 00  ...../..........
0310: 34 80 07 1F 00 00 10 01  1A 03 01 F7 01 40 1C 80  4............@..
0320: 35 80 01 10 1F 00 03 00  00 03 80 05 1E 00 02 1E  5...............
0330: 00 03 80 01 54 04 02 00  00 03 80 80 72 03 24 36  ....T.......r.$6
0340: 80 03 80 03 80 25 02 00  10 03 80 00 51 03 01 5F  .....%......Q.._
0350: 03 02 00 10 2F 80 00 5F  03 0B 00 00 01 5F 03 02  ..../.._....._..
0360: 00 10 2F 80 03 6F 03 06  1E 00 03 20 00 00 10 01  ../..o..... ....
0370: 51 04 02 00 00 07 80 80  C1 03 24 37 80 03 80 03  Q.........$7....
0380: 80 25 02 00 10 03 80 00  8D 03 01 A9 03 02 00 10  .%..............
0390: 2F 80 00 9B 03 0B 00 00  01 A9 03 02 00 10 25 80  /.............%.
03A0: 00 A9 03 0C 00 00 01 A9  03 02 00 10 2F 80 03 BE  ............/...
03B0: 03 06 1E 00 03 20 00 2F  80 07 20 00 00 10 01 51  ..... ./.. ....Q
03C0: 04 02 00 00 0F 80 80 10  04 24 38 80 03 80 03 80  .........$8.....
03D0: 25 02 00 10 03 80 00 DC  03 01 F8 03 02 00 10 2F  %............../
03E0: 80 00 EA 03 0B 00 00 01  F8 03 02 00 10 25 80 00  .............%..
03F0: F8 03 0C 00 00 01 F8 03  02 00 10 2F 80 03 0D 04  .........../....
0400: 06 1E 00 03 20 00 32 80  07 20 00 00 10 01 51 04  .... .2.. ....Q.
0410: 02 00 00 14 80 80 51 04  24 39 80 03 80 03 80 25  ......Q.$9.....%
0420: 02 00 10 03 80 00 2B 04  01 39 04 02 00 10 2F 80  ......+..9..../.
0430: 00 39 04 0C 00 00 01 39  04 02 00 10 2F 80 03 4E  .9.....9..../..N
0440: 04 06 1E 00 03 20 00 34  80 07 20 00 00 10 01 51  ..... .4.. ....Q
0450: 04 01 2E 03 07 20 00 3A  80 40 3B 80 3C 80 01 10  ..... .:.@;.<...
0460: 20 00 03 03 10 1F 00 03  04 10 20 00 1D 3D 80 23   ......... ..=.#
0470: 24 3E 80 07 80 03 80 25  02 00 10 03 80 00 92 04  $>.....%........
0480: 40 03 80 14 80 01 10 07  80 06 1D 00 06 1C 00 01  @...............
0490: B4 04 02 00 10 07 80 00  9D 04 01 B4 04 02 00 10  ................
04A0: 0F 80 00 B4 04 03 01 10  03 80 06 1D 00 1D 0A 80  ................
04B0: 23 01 B4 04 01 E7 01 01  C9 04 02 00 10 07 80 00  #...............
04C0: C9 04 1D 0A 80 23 01 C9  04 01 35 0A 02 00 10 0F  .....#....5.....
04D0: 80 00 E9 07 24 3F 80 03  80 03 80 25 02 00 10 03  ....$?.....%....
04E0: 80 00 E7 04 01 E2 07 02  00 10 07 80 00 FF 05 03  ................
04F0: 02 10 03 80 02 0B 00 03  80 01 18 05 03 02 10 0B  ................
0500: 00 03 03 10 0C 00 3E 25  00 03 80 14 05 1D 40 80  ......>%......@.
0510: 23 01 18 05 1D 41 80 23  02 0D 00 03 80 01 3C 05  #....A.#......<.
0520: 03 02 10 0D 00 03 03 10  0E 00 3E 25 00 07 80 38  ..........>%...8
0530: 05 1D 40 80 23 01 3C 05  1D 41 80 23 02 0F 00 03  ..@.#.<..A.#....
0540: 80 01 60 05 03 02 10 0F  00 03 03 10 10 00 3E 25  ..`...........>%
0550: 00 0F 80 5C 05 1D 40 80  23 01 60 05 1D 41 80 23  ...\..@.#.`..A.#
0560: 02 11 00 03 80 01 84 05  03 02 10 11 00 03 03 10  ................
0570: 12 00 3E 25 00 14 80 80  05 1D 40 80 23 01 84 05  ..>%......@.#...
0580: 1D 41 80 23 02 13 00 03  80 01 A8 05 03 02 10 13  .A.#............
0590: 00 03 03 10 14 00 3E 25  00 1C 80 A4 05 1D 40 80  ......>%......@.
05A0: 23 01 A8 05 1D 41 80 23  02 15 00 03 80 01 CC 05  #....A.#........
05B0: 03 02 10 15 00 03 03 10  16 00 3E 25 00 42 80 C8  ..........>%.B..
05C0: 05 1D 40 80 23 01 CC 05  1D 41 80 23 02 17 00 03  ..@.#....A.#....
05D0: 80 01 F0 05 03 02 10 17  00 03 03 10 18 00 3E 25  ..............>%
05E0: 00 43 80 EC 05 1D 40 80  23 01 F0 05 1D 41 80 23  .C....@.#....A.#
05F0: 02 02 10 03 80 00 FC 05  1D 44 80 23 01 E2 07 02  .........D.#....
0600: 00 10 0F 80 00 E2 07 03  02 10 03 80 02 0B 00 03  ................
0610: 80 01 4D 06 03 02 10 0B  00 03 03 10 0C 00 3E 25  ..M...........>%
0620: 00 03 80 2C 06 1D 45 80  23 01 30 06 1D 46 80 23  ...,..E.#.0..F.#
0630: 03 1B 00 47 80 07 1B 00  0B 00 1D 1B 00 23 9C 00  ...G.........#..
0640: 00 02 00 00 07 80 00 4D  06 1D 48 80 23 02 0D 00  .......M..H.#...
0650: 03 80 01 8E 06 03 02 10  0D 00 03 03 10 0E 00 3E  ...............>
0660: 25 00 07 80 6D 06 1D 45  80 23 01 71 06 1D 46 80  %...m..E.#.q..F.
0670: 23 03 1B 00 47 80 07 1B  00 0D 00 1D 1B 00 23 9C  #...G.........#.
0680: 00 00 02 00 00 07 80 00  8E 06 1D 48 80 23 02 0F  ...........H.#..
0690: 00 03 80 01 CF 06 03 02  10 0F 00 03 03 10 10 00  ................
06A0: 3E 25 00 0F 80 AE 06 1D  45 80 23 01 B2 06 1D 46  >%......E.#....F
06B0: 80 23 03 1B 00 47 80 07  1B 00 0F 00 1D 1B 00 23  .#...G.........#
06C0: 9C 00 00 02 00 00 07 80  00 CF 06 1D 48 80 23 02  ............H.#.
06D0: 11 00 03 80 01 10 07 03  02 10 11 00 03 03 10 12  ................
06E0: 00 3E 25 00 14 80 EF 06  1D 45 80 23 01 F3 06 1D  .>%......E.#....
06F0: 46 80 23 03 1B 00 47 80  07 1B 00 11 00 1D 1B 00  F.#...G.........
0700: 23 9C 00 00 02 00 00 07  80 00 10 07 1D 48 80 23  #............H.#
0710: 02 13 00 03 80 01 51 07  03 02 10 13 00 03 03 10  ......Q.........
0720: 14 00 3E 25 00 1C 80 30  07 1D 45 80 23 01 34 07  ..>%...0..E.#.4.
0730: 1D 46 80 23 03 1B 00 47  80 07 1B 00 13 00 1D 1B  .F.#...G........
0740: 00 23 9C 00 00 02 00 00  07 80 00 51 07 1D 48 80  .#.........Q..H.
0750: 23 02 15 00 03 80 01 92  07 03 02 10 15 00 03 03  #...............
0760: 10 16 00 3E 25 00 42 80  71 07 1D 45 80 23 01 75  ...>%.B.q..E.#.u
0770: 07 1D 46 80 23 03 1B 00  47 80 07 1B 00 15 00 1D  ..F.#...G.......
0780: 1B 00 23 9C 00 00 02 00  00 07 80 00 92 07 1D 48  ..#............H
0790: 80 23 02 17 00 03 80 01  D3 07 03 02 10 17 00 03  .#..............
07A0: 03 10 18 00 3E 25 00 43  80 B2 07 1D 45 80 23 01  ....>%.C....E.#.
07B0: B6 07 1D 46 80 23 03 1B  00 47 80 07 1B 00 17 00  ...F.#...G......
07C0: 1D 1B 00 23 9C 00 00 02  00 00 07 80 00 D3 07 1D  ...#............
07D0: 48 80 23 02 02 10 03 80  00 DF 07 1D 44 80 23 01  H.#.........D.#.
07E0: E2 07 1D 0A 80 23 01 35  0A 02 00 10 14 80 00 2E  .....#.5........
07F0: 09 05 1D 00 02 1D 00 03  80 01 2B 09 03 02 10 0B  ..........+.....
0800: 00 03 03 10 0D 00 03 04  10 0F 00 03 05 10 11 00  ................
0810: 03 06 10 13 00 03 22 00  03 80 02 0B 00 03 80 00  ......".........
0820: 29 08 3C 22 00 07 80 07  80 02 0D 00 03 80 00 38  ).<"...........8
0830: 08 3C 22 00 0F 80 07 80  02 0F 00 03 80 00 47 08  .<"...........G.
0840: 3C 22 00 14 80 07 80 02  11 00 03 80 00 56 08 3C  <"...........V.<
0850: 22 00 1C 80 07 80 02 13  00 03 80 00 65 08 3C 22  "...........e.<"
0860: 00 42 80 07 80 02 22 00  49 80 00 77 08 06 1D 00  .B....".I..w....
0870: 1D 44 80 23 01 28 09 24  4A 80 03 80 22 00 25 02  .D.#.(.$J...".%.
0880: 00 10 03 80 00 91 08 06  1D 00 1D 0A 80 23 01 E1  .............#..
0890: 08 02 00 10 07 80 00 A1  08 03 00 17 0B 00 01 E1  ................
08A0: 08 02 00 10 0F 80 00 B1  08 03 00 17 0D 00 01 E1  ................
08B0: 08 02 00 10 14 80 00 C1  08 03 00 17 0F 00 01 E1  ................
08C0: 08 02 00 10 1C 80 00 D1  08 03 00 17 11 00 01 E1  ................
08D0: 08 02 00 10 42 80 00 E1  08 03 00 17 13 00 01 E1  ....B...........
08E0: 08 02 00 10 03 80 01 28  09 40 1C 80 35 80 01 10  .......(.@..5...
08F0: 00 10 1D 4B 80 23 24 4C  80 07 80 03 80 25 02 00  ...K.#$L.....%..
0900: 10 03 80 00 18 09 06 1C  00 06 1D 00 40 03 80 14  ............@...
0910: 80 01 10 0F 80 01 28 09  02 00 10 07 80 00 28 09  ......(.......(.
0920: 03 01 10 03 80 01 28 09  01 F4 07 01 35 0A 02 00  ......(.....5...
0930: 10 1C 80 00 4B 09 03 02  10 19 00 03 03 10 1A 00  ....K...........
0940: 1D 4D 80 23 1D 0A 80 23  01 35 0A 02 00 10 42 80  .M.#...#.5....B.
0950: 00 6D 09 03 02 10 0A 00  03 03 10 4E 80 08 03 10  .m.........N....
0960: 06 00 1D 4F 80 23 1D 0A  80 23 01 35 0A 02 00 10  ...O.#...#.5....
0970: 43 80 00 A2 09 03 02 10  07 00 15 02 10 2F 80 1D  C............/..
0980: 50 80 23 03 03 10 08 00  15 03 10 0F 80 03 04 10  P.#.............
0990: 09 00 15 04 10 0F 80 1D  51 80 23 1D 0A 80 23 01  ........Q.#...#.
09A0: 35 0A 02 00 10 24 80 00  35 0A 1D 52 80 23 05 1D  5....$..5..R.#..
09B0: 00 02 1D 00 03 80 01 32  0A 24 53 80 03 80 03 80  .......2.$S.....
09C0: 25 02 00 10 03 80 00 CF  09 06 1D 00 01 2F 0A 02  %............/..
09D0: 00 10 07 80 00 F2 09 1D  54 80 23 1D 55 80 23 1D  ........T.#.U.#.
09E0: 56 80 23 1D 57 80 23 1D  58 80 23 1D 59 80 23 01  V.#.W.#.X.#.Y.#.
09F0: 2F 0A 02 00 10 0F 80 00  09 0A 1D 5A 80 23 1D 5B  /..........Z.#.[
0A00: 80 23 1D 5C 80 23 01 2F  0A 02 00 10 14 80 00 1C  .#.\.#./........
0A10: 0A 1D 5D 80 23 1D 5E 80  23 01 2F 0A 02 00 10 1C  ..].#.^.#./.....
0A20: 80 00 2F 0A 1D 5F 80 23  1D 60 80 23 01 2F 0A 01  ../.._.#.`.#./..
0A30: B1 09 01 35 0A 01 97 01  21 00                    ...5....!.      
```

#### Opcodes

```
  0: 0x00DE [0x03] Work_Zone[1] = 0*
  1: 0x00E3 [0x42] SET_CLI_EVENT_CANCEL_DATA()
  2: 0x00E4 [0x41] ExtData[1]->WorkLocal[1] = Work_Zone[2] (bits 0*-3*)
  3: 0x00ED [0x41] ExtData[1]->WorkLocal[35] = Work_Zone[2] (bits 4*-8*)
  4: 0x00F6 [0x41] ExtData[1]->WorkLocal[36] = Work_Zone[2] (bits 9*-13*)
  5: 0x00FF [0x41] ExtData[1]->WorkLocal[37] = Work_Zone[2] (bits 14*-20*)
  6: 0x0108 [0x03] ExtData[1]->WorkLocal[33] = 0*
  7: 0x010D [0x3E] IF !(Work_Zone[2] bit 21*) GOTO 0x0122
  8: 0x0114 [0x3C] SET_BIT_FLAG_CONDITIONAL(target_work_offset=ExtData[1]->WorkLocal[33], bit_index_work_offset=1*, condition_work_offset=1*)
  9: 0x011B [0x3C] SET_BIT_FLAG_CONDITIONAL(target_work_offset=ExtData[1]->WorkLocal[33], bit_index_work_offset=3*, condition_work_offset=1*)
 10: 0x0122 [0x02] IF !(ExtData[1]->WorkLocal[1] == 0*) GOTO 0x0132
 11: 0x012A [0x03] ExtData[1]->WorkLocal[1] = 2478*
 12: 0x012F [0x01] GOTO 0x0142
 13: 0x0132 [0x02] IF !(ExtData[1]->WorkLocal[1] == 1*) GOTO 0x0142
 14: 0x013A [0x03] ExtData[1]->WorkLocal[1] = 2500*
 15: 0x013F [0x01] GOTO 0x0142

SUBROUTINE_0142:
 16: 0x0142 [0x41] ExtData[1]->WorkLocal[5] = Work_Zone[9] (bits 0*-7*)
 17: 0x014B [0x41] ExtData[1]->WorkLocal[26] = Work_Zone[9] (bits 8*-17*)
 18: 0x0154 [0x41] ExtData[1]->WorkLocal[25] = Work_Zone[9] (bits 18*-27*)
 19: 0x015D [0x1A] CALL_SUBROUTINE(address=0x0ACA)
 20: 0x0160 [0x1E] EventEntity looks at LocalPlayer and starts talking
 21: 0x0165 [0x03] Work_Zone[2] = ExtData[1]->WorkLocal[1]
 22: 0x016A [0x03] Work_Zone[3] = ExtData[1]->WorkLocal[3]
 23: 0x016F [0x03] Work_Zone[4] = ExtData[1]->WorkLocal[4]
 24: 0x0174 [0x03] Work_Zone[5] = ExtData[1]->WorkLocal[5]
 25: 0x0179 [0x03] Work_Zone[6] = ExtData[1]->WorkLocal[10]
 26: 0x017E [0x03] Work_Zone[7] = ExtData[1]->WorkLocal[35]
 27: 0x0183 [0x03] Work_Zone[8] = ExtData[1]->WorkLocal[36]
 28: 0x0188 [0x1D] PRINT_EVENT_MESSAGE(message_id=11603*)
    → "This $0 contains the following image: Name: $1 Family: $3"
 29: 0x018B [0x23] WAIT_FOR_DIALOG_INTERACTION
 30: 0x018C [0x1D] PRINT_EVENT_MESSAGE(message_id=11604*)
    → "Main Job: [None/Warrior/Monk/White Mage/Black Mage/Red Mage/Thief/Paladin/Dark Knight/Beastmaster/Bard/Ranger/Samurai/Ninja/Dragoon/Summoner/Blue Mage/Corsair/Puppetmaster/Dancer/Scholar] Support Job: [None/Warrior/Monk/White Mage/Black Mage/Red Mage/Thief/Paladin/Dark Knight/Beastmaster/Bard/Ranger/Samurai/Ninja/Dragoon/Summoner/Blue Mage/Corsair/Puppetmaster/Dancer/Scholar] Level: $4"
 31: 0x018F [0x23] WAIT_FOR_DIALOG_INTERACTION
 32: 0x0190 [0x1D] PRINT_EVENT_MESSAGE(message_id=11605*)
    → "Now, do you need any further assistance?"
 33: 0x0193 [0x23] WAIT_FOR_DIALOG_INTERACTION
 34: 0x0194 [0x05] ExtData[1]->WorkLocal[28] = 1

SUBROUTINE_0197:
 35: 0x0197 [0x02] IF !(ExtData[1]->WorkLocal[28] == 0*) GOTO 0x0A38
 36: 0x019F [0x24] CREATE_DIALOG(message_id=11606*, default_option=0*, option_flags=ExtData[1]->WorkLocal[33])
    → "What would you like to do? [Quit./Change monster name./Confirm feral skills./Remove feral skills./Confirm FP total./Confirm level and EXP./Confirm monster temperament./Review terminology.]"
 37: 0x01A6 [0x25] WAIT_DIALOG_SELECT()
 38: 0x01A7 [0x02] IF !(Work_Zone[0] == 0*) GOTO 0x01BE
 39: 0x01AF [0x06] ExtData[1]->WorkLocal[28] = 0
 40: 0x01B2 [0x1D] PRINT_EVENT_MESSAGE(message_id=11639*)
    → "Thank you, come again!"
 41: 0x01B5 [0x23] WAIT_FOR_DIALOG_INTERACTION
 42: 0x01B6 [0x03] Work_Zone[1] = 0*
 43: 0x01BB [0x01] GOTO 0x0A35
 44: 0x01BE [0x02] IF !(Work_Zone[0] == 1*) GOTO 0x04CC
 45: 0x01C6 [0x03] Work_Zone[3] = ExtData[1]->WorkLocal[3]
 46: 0x01CB [0x03] Work_Zone[4] = ExtData[1]->WorkLocal[4]
 47: 0x01D0 [0x1D] PRINT_EVENT_MESSAGE(message_id=11607*)
    → "Your monster's current name is $1 ."
 48: 0x01D3 [0x23] WAIT_FOR_DIALOG_INTERACTION
 49: 0x01D4 [0x24] CREATE_DIALOG(message_id=11608*, default_option=1*, option_flags=0*)
    → "Would you like to change this? [Yes./No.]"
 50: 0x01DB [0x25] WAIT_DIALOG_SELECT()
 51: 0x01DC [0x02] IF !(Work_Zone[0] == 0*) GOTO 0x04BA
 52: 0x01E4 [0x05] ExtData[1]->WorkLocal[29] = 1

SUBROUTINE_01E7:
 53: 0x01E7 [0x02] IF !(ExtData[1]->WorkLocal[29] == 0*) GOTO 0x04B7
 54: 0x01EF [0x05] ExtData[1]->WorkLocal[30] = 1
 55: 0x01F2 [0x03] ExtData[1]->WorkLocal[0] = 0*

SUBROUTINE_01F7:
 56: 0x01F7 [0x02] IF !(ExtData[1]->WorkLocal[30] == 0*) GOTO 0x031D
 57: 0x01FF [0x02] IF !(ExtData[1]->WorkLocal[0] == 0*) GOTO 0x023B
 58: 0x0207 [0x24] CREATE_DIALOG(message_id=11609*, default_option=0*, option_flags=0*)
    → "Select a first name: [Pit./Bloody./Brutal./Celestial./Combat./Cyclopean./Dark./Deadly./Drachen./Giant./Hostile./Howling./Hyper./Invincible./Merciless./Mighty./Next page.]"
 59: 0x020E [0x25] WAIT_DIALOG_SELECT()
 60: 0x020F [0x02] IF !(Work_Zone[0] == 0*) GOTO 0x021A
 61: 0x0217 [0x01] GOTO 0x0228
 62: 0x021A [0x02] IF !(Work_Zone[0] == 16*) GOTO 0x0228
 63: 0x0222 [0x0B] ExtData[1]->WorkLocal[0]++
 64: 0x0225 [0x01] GOTO 0x0228

SUBROUTINE_0228:
 65: 0x0228 [0x02] IF !(Work_Zone[0] >= 16*) GOTO 0x0238
 66: 0x0230 [0x06] ExtData[1]->WorkLocal[30] = 0
 67: 0x0233 [0x03] ExtData[1]->WorkLocal[31] = Work_Zone[0]
 68: 0x0238 [0x01] GOTO 0x031A
 69: 0x023B [0x02] IF !(ExtData[1]->WorkLocal[0] == 1*) GOTO 0x028A
 70: 0x0243 [0x24] CREATE_DIALOG(message_id=11610*, default_option=0*, option_flags=0*)
    → "Select a first name: [Necro./Nimble./Poison./Putrid./Rabid./Radiant./Raging./Relentless./Savage./Silent./Tenebrous./The./Triple./Undead./Writhing./Serpentine./Next page./Previous page.]"
 71: 0x024A [0x25] WAIT_DIALOG_SELECT()
 72: 0x024B [0x02] IF !(Work_Zone[0] == 0*) GOTO 0x0256
 73: 0x0253 [0x01] GOTO 0x0272
 74: 0x0256 [0x02] IF !(Work_Zone[0] == 16*) GOTO 0x0264
 75: 0x025E [0x0B] ExtData[1]->WorkLocal[0]++
 76: 0x0261 [0x01] GOTO 0x0272
 77: 0x0264 [0x02] IF !(Work_Zone[0] == 17*) GOTO 0x0272
 78: 0x026C [0x0C] ExtData[1]->WorkLocal[0]--
 79: 0x026F [0x01] GOTO 0x0272

SUBROUTINE_0272:
 80: 0x0272 [0x02] IF !(Work_Zone[0] >= 16*) GOTO 0x0287
 81: 0x027A [0x06] ExtData[1]->WorkLocal[30] = 0
 82: 0x027D [0x03] ExtData[1]->WorkLocal[31] = 16*
 83: 0x0282 [0x07] ExtData[1]->WorkLocal[31] += Work_Zone[0]
 84: 0x0287 [0x01] GOTO 0x031A
 85: 0x028A [0x02] IF !(ExtData[1]->WorkLocal[0] == 2*) GOTO 0x02D9
 86: 0x0292 [0x24] CREATE_DIALOG(message_id=11611*, default_option=0*, option_flags=0*)
    → "Select a first name: [Aile./Bete./Croc./Babine./Carapace./Colosse./Corne./Fauve./Flamme./Griffe./Machoire./Mandibule./Patte./Rapace./Tentacule./Voyou./Next page./Previous page.]"
 87: 0x0299 [0x25] WAIT_DIALOG_SELECT()
 88: 0x029A [0x02] IF !(Work_Zone[0] == 0*) GOTO 0x02A5
 89: 0x02A2 [0x01] GOTO 0x02C1
 90: 0x02A5 [0x02] IF !(Work_Zone[0] == 16*) GOTO 0x02B3
 91: 0x02AD [0x0B] ExtData[1]->WorkLocal[0]++
 92: 0x02B0 [0x01] GOTO 0x02C1
 93: 0x02B3 [0x02] IF !(Work_Zone[0] == 17*) GOTO 0x02C1
 94: 0x02BB [0x0C] ExtData[1]->WorkLocal[0]--
 95: 0x02BE [0x01] GOTO 0x02C1

SUBROUTINE_02C1:
 96: 0x02C1 [0x02] IF !(Work_Zone[0] >= 16*) GOTO 0x02D6
 97: 0x02C9 [0x06] ExtData[1]->WorkLocal[30] = 0
 98: 0x02CC [0x03] ExtData[1]->WorkLocal[31] = 32*
 99: 0x02D1 [0x07] ExtData[1]->WorkLocal[31] += Work_Zone[0]
100: 0x02D6 [0x01] GOTO 0x031A
101: 0x02D9 [0x02] IF !(ExtData[1]->WorkLocal[0] == 3*) GOTO 0x031A
102: 0x02E1 [0x24] CREATE_DIALOG(message_id=11612*, default_option=0*, option_flags=0*)
    → "Select a first name: [Zaubernder./Brutaler./Explosives./Funkelnder./Kraftvoller./Moderndes./Tosender./Schwerer./Sprintender./Starker./Stinkender./Taumelnder./Tolles./Verlorenes./Wendiger./Wuchtiger./Previous page.]"
103: 0x02E8 [0x25] WAIT_DIALOG_SELECT()
104: 0x02E9 [0x02] IF !(Work_Zone[0] == 0*) GOTO 0x02F4
105: 0x02F1 [0x01] GOTO 0x0302
106: 0x02F4 [0x02] IF !(Work_Zone[0] == 16*) GOTO 0x0302
107: 0x02FC [0x0C] ExtData[1]->WorkLocal[0]--
108: 0x02FF [0x01] GOTO 0x0302

SUBROUTINE_0302:
109: 0x0302 [0x02] IF !(Work_Zone[0] >= 16*) GOTO 0x0317
110: 0x030A [0x06] ExtData[1]->WorkLocal[30] = 0
111: 0x030D [0x03] ExtData[1]->WorkLocal[31] = 48*
112: 0x0312 [0x07] ExtData[1]->WorkLocal[31] += Work_Zone[0]
113: 0x0317 [0x01] GOTO 0x031A

SUBROUTINE_031A:
114: 0x031A [0x01] GOTO 0x01F7
115: 0x031D [0x40] SET_BIT_WORK_RANGE(start_bit=4*, end_bit=11*, target=Work_Zone[1], source=ExtData[1]->WorkLocal[31])
116: 0x0326 [0x03] ExtData[1]->WorkLocal[0] = 0*
117: 0x032B [0x05] ExtData[1]->WorkLocal[30] = 1

SUBROUTINE_032E:
118: 0x032E [0x02] IF !(ExtData[1]->WorkLocal[30] == 0*) GOTO 0x0454
119: 0x0336 [0x02] IF !(ExtData[1]->WorkLocal[0] == 0*) GOTO 0x0372
120: 0x033E [0x24] CREATE_DIALOG(message_id=11613*, default_option=0*, option_flags=0*)
    → "Select a second name: [Monster./Beast./Butcher./Carnifex./Critter./Cyclone./Dancer./Darkness./Erudite./Fang./Fist./Flayer./Gladiator./Heart./Howl./Hunter./Next page.]"
121: 0x0345 [0x25] WAIT_DIALOG_SELECT()
122: 0x0346 [0x02] IF !(Work_Zone[0] == 0*) GOTO 0x0351
123: 0x034E [0x01] GOTO 0x035F
124: 0x0351 [0x02] IF !(Work_Zone[0] == 16*) GOTO 0x035F
125: 0x0359 [0x0B] ExtData[1]->WorkLocal[0]++
126: 0x035C [0x01] GOTO 0x035F

SUBROUTINE_035F:
127: 0x035F [0x02] IF !(Work_Zone[0] >= 16*) GOTO 0x036F
128: 0x0367 [0x06] ExtData[1]->WorkLocal[30] = 0
129: 0x036A [0x03] ExtData[1]->WorkLocal[32] = Work_Zone[0]
130: 0x036F [0x01] GOTO 0x0451
131: 0x0372 [0x02] IF !(ExtData[1]->WorkLocal[0] == 1*) GOTO 0x03C1
132: 0x037A [0x24] CREATE_DIALOG(message_id=11614*, default_option=0*, option_flags=0*)
    → "Select a second name: [Jack./Machine./Mountain./Nemesis./Raven./Reaver./Rock./Stalker./T./Tiger./Tornado./Vermin./Vortex./Whispers./X./Prime./Next page./Previous page.]"
133: 0x0381 [0x25] WAIT_DIALOG_SELECT()
134: 0x0382 [0x02] IF !(Work_Zone[0] == 0*) GOTO 0x038D
135: 0x038A [0x01] GOTO 0x03A9
136: 0x038D [0x02] IF !(Work_Zone[0] == 16*) GOTO 0x039B
137: 0x0395 [0x0B] ExtData[1]->WorkLocal[0]++
138: 0x0398 [0x01] GOTO 0x03A9
139: 0x039B [0x02] IF !(Work_Zone[0] == 17*) GOTO 0x03A9
140: 0x03A3 [0x0C] ExtData[1]->WorkLocal[0]--
141: 0x03A6 [0x01] GOTO 0x03A9

SUBROUTINE_03A9:
142: 0x03A9 [0x02] IF !(Work_Zone[0] >= 16*) GOTO 0x03BE
143: 0x03B1 [0x06] ExtData[1]->WorkLocal[30] = 0
144: 0x03B4 [0x03] ExtData[1]->WorkLocal[32] = 16*
145: 0x03B9 [0x07] ExtData[1]->WorkLocal[32] += Work_Zone[0]
146: 0x03BE [0x01] GOTO 0x0451
147: 0x03C1 [0x02] IF !(ExtData[1]->WorkLocal[0] == 2*) GOTO 0x0410
148: 0x03C9 [0x24] CREATE_DIALOG(message_id=11615*, default_option=0*, option_flags=0*)
    → "Select a second name: [Agile./Brave./Coriace./Diabolique./Espiegle./Feroce./Fidele./Fourbe./Impitoyable./Nuisible./Robuste./Sanguinaire./Sauvage./Stupide./Tenace./Tendre./Next page./Previous page.]"
149: 0x03D0 [0x25] WAIT_DIALOG_SELECT()
150: 0x03D1 [0x02] IF !(Work_Zone[0] == 0*) GOTO 0x03DC
151: 0x03D9 [0x01] GOTO 0x03F8
152: 0x03DC [0x02] IF !(Work_Zone[0] == 16*) GOTO 0x03EA
153: 0x03E4 [0x0B] ExtData[1]->WorkLocal[0]++
154: 0x03E7 [0x01] GOTO 0x03F8
155: 0x03EA [0x02] IF !(Work_Zone[0] == 17*) GOTO 0x03F8
156: 0x03F2 [0x0C] ExtData[1]->WorkLocal[0]--
157: 0x03F5 [0x01] GOTO 0x03F8

SUBROUTINE_03F8:
158: 0x03F8 [0x02] IF !(Work_Zone[0] >= 16*) GOTO 0x040D
159: 0x0400 [0x06] ExtData[1]->WorkLocal[30] = 0
160: 0x0403 [0x03] ExtData[1]->WorkLocal[32] = 32*
161: 0x0408 [0x07] ExtData[1]->WorkLocal[32] += Work_Zone[0]
162: 0x040D [0x01] GOTO 0x0451
163: 0x0410 [0x02] IF !(ExtData[1]->WorkLocal[0] == 3*) GOTO 0x0451
164: 0x0418 [0x24] CREATE_DIALOG(message_id=11616*, default_option=0*, option_flags=0*)
    → "Select a second name: [Boesewicht./Engel./Flitzpiepe./Gottkaiser./Klotz./Muelleimer./Pechvogel./Postbote./Prinzessin./Raecherin./Riesenbaby./Hexer./Teufel./Vieh./Vielfrass./Fleischer./Previous page.]"
165: 0x041F [0x25] WAIT_DIALOG_SELECT()
166: 0x0420 [0x02] IF !(Work_Zone[0] == 0*) GOTO 0x042B
167: 0x0428 [0x01] GOTO 0x0439
168: 0x042B [0x02] IF !(Work_Zone[0] == 16*) GOTO 0x0439
169: 0x0433 [0x0C] ExtData[1]->WorkLocal[0]--
170: 0x0436 [0x01] GOTO 0x0439

SUBROUTINE_0439:
171: 0x0439 [0x02] IF !(Work_Zone[0] >= 16*) GOTO 0x044E
172: 0x0441 [0x06] ExtData[1]->WorkLocal[30] = 0
173: 0x0444 [0x03] ExtData[1]->WorkLocal[32] = 48*
174: 0x0449 [0x07] ExtData[1]->WorkLocal[32] += Work_Zone[0]
175: 0x044E [0x01] GOTO 0x0451

SUBROUTINE_0451:
176: 0x0451 [0x01] GOTO 0x032E
177: 0x0454 [0x07] ExtData[1]->WorkLocal[32] += 64*
178: 0x0459 [0x40] SET_BIT_WORK_RANGE(start_bit=12*, end_bit=19*, target=Work_Zone[1], source=ExtData[1]->WorkLocal[32])
179: 0x0462 [0x03] Work_Zone[3] = ExtData[1]->WorkLocal[31]
180: 0x0467 [0x03] Work_Zone[4] = ExtData[1]->WorkLocal[32]
181: 0x046C [0x1D] PRINT_EVENT_MESSAGE(message_id=11617*)
    → "The name you have selected is $1 ."
182: 0x046F [0x23] WAIT_FOR_DIALOG_INTERACTION
183: 0x0470 [0x24] CREATE_DIALOG(message_id=11618*, default_option=1*, option_flags=0*)
    → "Is this acceptable? [But of course!/Absolutely not!/Never mind.]"
184: 0x0477 [0x25] WAIT_DIALOG_SELECT()
185: 0x0478 [0x02] IF !(Work_Zone[0] == 0*) GOTO 0x0492
186: 0x0480 [0x40] SET_BIT_WORK_RANGE(start_bit=0*, end_bit=3*, target=Work_Zone[1], source=1*)
187: 0x0489 [0x06] ExtData[1]->WorkLocal[29] = 0
188: 0x048C [0x06] ExtData[1]->WorkLocal[28] = 0
189: 0x048F [0x01] GOTO 0x04B4
190: 0x0492 [0x02] IF !(Work_Zone[0] == 1*) GOTO 0x049D
191: 0x049A [0x01] GOTO 0x04B4
192: 0x049D [0x02] IF !(Work_Zone[0] == 2*) GOTO 0x04B4
193: 0x04A5 [0x03] Work_Zone[1] = 0*
194: 0x04AA [0x06] ExtData[1]->WorkLocal[29] = 0
195: 0x04AD [0x1D] PRINT_EVENT_MESSAGE(message_id=11638*)
    → "Is there anything else you require?"
196: 0x04B0 [0x23] WAIT_FOR_DIALOG_INTERACTION
197: 0x04B1 [0x01] GOTO 0x04B4

SUBROUTINE_04B4:
198: 0x04B4 [0x01] GOTO 0x01E7
199: 0x04B7 [0x01] GOTO 0x04C9
200: 0x04BA [0x02] IF !(Work_Zone[0] == 1*) GOTO 0x04C9
201: 0x04C2 [0x1D] PRINT_EVENT_MESSAGE(message_id=11638*)
    → "Is there anything else you require?"
202: 0x04C5 [0x23] WAIT_FOR_DIALOG_INTERACTION
203: 0x04C6 [0x01] GOTO 0x04C9

SUBROUTINE_04C9:
204: 0x04C9 [0x01] GOTO 0x0A35
205: 0x04CC [0x02] IF !(Work_Zone[0] == 2*) GOTO 0x07E9
206: 0x04D4 [0x24] CREATE_DIALOG(message_id=11620*, default_option=0*, option_flags=0*)
    → "Please select an option: [Quit./Confirm skills (without help)./Confirm skills (with help).]"
207: 0x04DB [0x25] WAIT_DIALOG_SELECT()
208: 0x04DC [0x02] IF !(Work_Zone[0] == 0*) GOTO 0x04E7
209: 0x04E4 [0x01] GOTO 0x07E2
210: 0x04E7 [0x02] IF !(Work_Zone[0] == 1*) GOTO 0x05FF
211: 0x04EF [0x03] Work_Zone[2] = 0*
212: 0x04F4 [0x02] IF !(ExtData[1]->WorkLocal[11] == 0*) GOTO 0x0518
213: 0x04FC [0x03] Work_Zone[2] = ExtData[1]->WorkLocal[11]
214: 0x0501 [0x03] Work_Zone[3] = ExtData[1]->WorkLocal[12]
215: 0x0506 [0x3E] IF !(ExtData[1]->WorkLocal[37] bit 0*) GOTO 0x0514
216: 0x050D [0x1D] PRINT_EVENT_MESSAGE(message_id=11624*)
    → ""
217: 0x0510 [0x23] WAIT_FOR_DIALOG_INTERACTION
218: 0x0511 [0x01] GOTO 0x0518
219: 0x0514 [0x1D] PRINT_EVENT_MESSAGE(message_id=11622*)
    → "(lv. $1)"
220: 0x0517 [0x23] WAIT_FOR_DIALOG_INTERACTION

SUBROUTINE_0518:
221: 0x0518 [0x02] IF !(ExtData[1]->WorkLocal[13] == 0*) GOTO 0x053C
222: 0x0520 [0x03] Work_Zone[2] = ExtData[1]->WorkLocal[13]
223: 0x0525 [0x03] Work_Zone[3] = ExtData[1]->WorkLocal[14]
224: 0x052A [0x3E] IF !(ExtData[1]->WorkLocal[37] bit 1*) GOTO 0x0538
225: 0x0531 [0x1D] PRINT_EVENT_MESSAGE(message_id=11624*)
    → ""
226: 0x0534 [0x23] WAIT_FOR_DIALOG_INTERACTION
227: 0x0535 [0x01] GOTO 0x053C
228: 0x0538 [0x1D] PRINT_EVENT_MESSAGE(message_id=11622*)
    → "(lv. $1)"
229: 0x053B [0x23] WAIT_FOR_DIALOG_INTERACTION

SUBROUTINE_053C:
230: 0x053C [0x02] IF !(ExtData[1]->WorkLocal[15] == 0*) GOTO 0x0560
231: 0x0544 [0x03] Work_Zone[2] = ExtData[1]->WorkLocal[15]
232: 0x0549 [0x03] Work_Zone[3] = ExtData[1]->WorkLocal[16]
233: 0x054E [0x3E] IF !(ExtData[1]->WorkLocal[37] bit 2*) GOTO 0x055C
234: 0x0555 [0x1D] PRINT_EVENT_MESSAGE(message_id=11624*)
    → ""
235: 0x0558 [0x23] WAIT_FOR_DIALOG_INTERACTION
236: 0x0559 [0x01] GOTO 0x0560
237: 0x055C [0x1D] PRINT_EVENT_MESSAGE(message_id=11622*)
    → "(lv. $1)"
238: 0x055F [0x23] WAIT_FOR_DIALOG_INTERACTION

SUBROUTINE_0560:
239: 0x0560 [0x02] IF !(ExtData[1]->WorkLocal[17] == 0*) GOTO 0x0584
240: 0x0568 [0x03] Work_Zone[2] = ExtData[1]->WorkLocal[17]
241: 0x056D [0x03] Work_Zone[3] = ExtData[1]->WorkLocal[18]
242: 0x0572 [0x3E] IF !(ExtData[1]->WorkLocal[37] bit 3*) GOTO 0x0580
243: 0x0579 [0x1D] PRINT_EVENT_MESSAGE(message_id=11624*)
    → ""
244: 0x057C [0x23] WAIT_FOR_DIALOG_INTERACTION
245: 0x057D [0x01] GOTO 0x0584
246: 0x0580 [0x1D] PRINT_EVENT_MESSAGE(message_id=11622*)
    → "(lv. $1)"
247: 0x0583 [0x23] WAIT_FOR_DIALOG_INTERACTION

SUBROUTINE_0584:
248: 0x0584 [0x02] IF !(ExtData[1]->WorkLocal[19] == 0*) GOTO 0x05A8
249: 0x058C [0x03] Work_Zone[2] = ExtData[1]->WorkLocal[19]
250: 0x0591 [0x03] Work_Zone[3] = ExtData[1]->WorkLocal[20]
251: 0x0596 [0x3E] IF !(ExtData[1]->WorkLocal[37] bit 4*) GOTO 0x05A4
252: 0x059D [0x1D] PRINT_EVENT_MESSAGE(message_id=11624*)
    → ""
253: 0x05A0 [0x23] WAIT_FOR_DIALOG_INTERACTION
254: 0x05A1 [0x01] GOTO 0x05A8
255: 0x05A4 [0x1D] PRINT_EVENT_MESSAGE(message_id=11622*)
    → "(lv. $1)"
256: 0x05A7 [0x23] WAIT_FOR_DIALOG_INTERACTION

SUBROUTINE_05A8:
257: 0x05A8 [0x02] IF !(ExtData[1]->WorkLocal[21] == 0*) GOTO 0x05CC
258: 0x05B0 [0x03] Work_Zone[2] = ExtData[1]->WorkLocal[21]
259: 0x05B5 [0x03] Work_Zone[3] = ExtData[1]->WorkLocal[22]
260: 0x05BA [0x3E] IF !(ExtData[1]->WorkLocal[37] bit 5*) GOTO 0x05C8
261: 0x05C1 [0x1D] PRINT_EVENT_MESSAGE(message_id=11624*)
    → ""
262: 0x05C4 [0x23] WAIT_FOR_DIALOG_INTERACTION
263: 0x05C5 [0x01] GOTO 0x05CC
264: 0x05C8 [0x1D] PRINT_EVENT_MESSAGE(message_id=11622*)
    → "(lv. $1)"
265: 0x05CB [0x23] WAIT_FOR_DIALOG_INTERACTION

SUBROUTINE_05CC:
266: 0x05CC [0x02] IF !(ExtData[1]->WorkLocal[23] == 0*) GOTO 0x05F0
267: 0x05D4 [0x03] Work_Zone[2] = ExtData[1]->WorkLocal[23]
268: 0x05D9 [0x03] Work_Zone[3] = ExtData[1]->WorkLocal[24]
269: 0x05DE [0x3E] IF !(ExtData[1]->WorkLocal[37] bit 6*) GOTO 0x05EC
270: 0x05E5 [0x1D] PRINT_EVENT_MESSAGE(message_id=11624*)
    → ""
271: 0x05E8 [0x23] WAIT_FOR_DIALOG_INTERACTION
272: 0x05E9 [0x01] GOTO 0x05F0
273: 0x05EC [0x1D] PRINT_EVENT_MESSAGE(message_id=11622*)
    → "(lv. $1)"
274: 0x05EF [0x23] WAIT_FOR_DIALOG_INTERACTION

SUBROUTINE_05F0:
275: 0x05F0 [0x02] IF !(Work_Zone[2] == 0*) GOTO 0x05FC
276: 0x05F8 [0x1D] PRINT_EVENT_MESSAGE(message_id=11621*)
    → "This monster has no additional feral skills."
277: 0x05FB [0x23] WAIT_FOR_DIALOG_INTERACTION
278: 0x05FC [0x01] GOTO 0x07E2
279: 0x05FF [0x02] IF !(Work_Zone[0] == 2*) GOTO 0x07E2
280: 0x0607 [0x03] Work_Zone[2] = 0*
281: 0x060C [0x02] IF !(ExtData[1]->WorkLocal[11] == 0*) GOTO 0x064D
282: 0x0614 [0x03] Work_Zone[2] = ExtData[1]->WorkLocal[11]
283: 0x0619 [0x03] Work_Zone[3] = ExtData[1]->WorkLocal[12]
284: 0x061E [0x3E] IF !(ExtData[1]->WorkLocal[37] bit 0*) GOTO 0x062C
285: 0x0625 [0x1D] PRINT_EVENT_MESSAGE(message_id=11625*)
    → "This skill has the following effect:"
286: 0x0628 [0x23] WAIT_FOR_DIALOG_INTERACTION
287: 0x0629 [0x01] GOTO 0x0630
288: 0x062C [0x1D] PRINT_EVENT_MESSAGE(message_id=11623*)
    → "(lv. $1) This skill has the following effect:"
289: 0x062F [0x23] WAIT_FOR_DIALOG_INTERACTION

SUBROUTINE_0630:
290: 0x0630 [0x03] ExtData[1]->WorkLocal[27] = 7393*
291: 0x0635 [0x07] ExtData[1]->WorkLocal[27] += ExtData[1]->WorkLocal[11]
292: 0x063A [0x1D] PRINT_EVENT_MESSAGE(message_id=ExtData[1]->WorkLocal[27])
293: 0x063D [0x23] WAIT_FOR_DIALOG_INTERACTION
294: 0x063E [0x9C] STORE_CLIENT_LANGUAGE_ID(result=0x00)
295: 0x0641 [0x02] IF !(ExtData[1]->WorkLocal[0] == 1*) GOTO 0x064D
296: 0x0649 [0x1D] PRINT_EVENT_MESSAGE(message_id=11626*)
    → "That's about it."
297: 0x064C [0x23] WAIT_FOR_DIALOG_INTERACTION
298: 0x064D [0x02] IF !(ExtData[1]->WorkLocal[13] == 0*) GOTO 0x068E
299: 0x0655 [0x03] Work_Zone[2] = ExtData[1]->WorkLocal[13]
300: 0x065A [0x03] Work_Zone[3] = ExtData[1]->WorkLocal[14]
301: 0x065F [0x3E] IF !(ExtData[1]->WorkLocal[37] bit 1*) GOTO 0x066D
302: 0x0666 [0x1D] PRINT_EVENT_MESSAGE(message_id=11625*)
    → "This skill has the following effect:"
303: 0x0669 [0x23] WAIT_FOR_DIALOG_INTERACTION
304: 0x066A [0x01] GOTO 0x0671
305: 0x066D [0x1D] PRINT_EVENT_MESSAGE(message_id=11623*)
    → "(lv. $1) This skill has the following effect:"
306: 0x0670 [0x23] WAIT_FOR_DIALOG_INTERACTION

SUBROUTINE_0671:
307: 0x0671 [0x03] ExtData[1]->WorkLocal[27] = 7393*
308: 0x0676 [0x07] ExtData[1]->WorkLocal[27] += ExtData[1]->WorkLocal[13]
309: 0x067B [0x1D] PRINT_EVENT_MESSAGE(message_id=ExtData[1]->WorkLocal[27])
310: 0x067E [0x23] WAIT_FOR_DIALOG_INTERACTION
311: 0x067F [0x9C] STORE_CLIENT_LANGUAGE_ID(result=0x00)
312: 0x0682 [0x02] IF !(ExtData[1]->WorkLocal[0] == 1*) GOTO 0x068E
313: 0x068A [0x1D] PRINT_EVENT_MESSAGE(message_id=11626*)
    → "That's about it."
314: 0x068D [0x23] WAIT_FOR_DIALOG_INTERACTION
315: 0x068E [0x02] IF !(ExtData[1]->WorkLocal[15] == 0*) GOTO 0x06CF
316: 0x0696 [0x03] Work_Zone[2] = ExtData[1]->WorkLocal[15]
317: 0x069B [0x03] Work_Zone[3] = ExtData[1]->WorkLocal[16]
318: 0x06A0 [0x3E] IF !(ExtData[1]->WorkLocal[37] bit 2*) GOTO 0x06AE
319: 0x06A7 [0x1D] PRINT_EVENT_MESSAGE(message_id=11625*)
    → "This skill has the following effect:"
320: 0x06AA [0x23] WAIT_FOR_DIALOG_INTERACTION
321: 0x06AB [0x01] GOTO 0x06B2
322: 0x06AE [0x1D] PRINT_EVENT_MESSAGE(message_id=11623*)
    → "(lv. $1) This skill has the following effect:"
323: 0x06B1 [0x23] WAIT_FOR_DIALOG_INTERACTION

SUBROUTINE_06B2:
324: 0x06B2 [0x03] ExtData[1]->WorkLocal[27] = 7393*
325: 0x06B7 [0x07] ExtData[1]->WorkLocal[27] += ExtData[1]->WorkLocal[15]
326: 0x06BC [0x1D] PRINT_EVENT_MESSAGE(message_id=ExtData[1]->WorkLocal[27])
327: 0x06BF [0x23] WAIT_FOR_DIALOG_INTERACTION
328: 0x06C0 [0x9C] STORE_CLIENT_LANGUAGE_ID(result=0x00)
329: 0x06C3 [0x02] IF !(ExtData[1]->WorkLocal[0] == 1*) GOTO 0x06CF
330: 0x06CB [0x1D] PRINT_EVENT_MESSAGE(message_id=11626*)
    → "That's about it."
331: 0x06CE [0x23] WAIT_FOR_DIALOG_INTERACTION
332: 0x06CF [0x02] IF !(ExtData[1]->WorkLocal[17] == 0*) GOTO 0x0710
333: 0x06D7 [0x03] Work_Zone[2] = ExtData[1]->WorkLocal[17]
334: 0x06DC [0x03] Work_Zone[3] = ExtData[1]->WorkLocal[18]
335: 0x06E1 [0x3E] IF !(ExtData[1]->WorkLocal[37] bit 3*) GOTO 0x06EF
336: 0x06E8 [0x1D] PRINT_EVENT_MESSAGE(message_id=11625*)
    → "This skill has the following effect:"
337: 0x06EB [0x23] WAIT_FOR_DIALOG_INTERACTION
338: 0x06EC [0x01] GOTO 0x06F3
339: 0x06EF [0x1D] PRINT_EVENT_MESSAGE(message_id=11623*)
    → "(lv. $1) This skill has the following effect:"
340: 0x06F2 [0x23] WAIT_FOR_DIALOG_INTERACTION

SUBROUTINE_06F3:
341: 0x06F3 [0x03] ExtData[1]->WorkLocal[27] = 7393*
342: 0x06F8 [0x07] ExtData[1]->WorkLocal[27] += ExtData[1]->WorkLocal[17]
343: 0x06FD [0x1D] PRINT_EVENT_MESSAGE(message_id=ExtData[1]->WorkLocal[27])
344: 0x0700 [0x23] WAIT_FOR_DIALOG_INTERACTION
345: 0x0701 [0x9C] STORE_CLIENT_LANGUAGE_ID(result=0x00)
346: 0x0704 [0x02] IF !(ExtData[1]->WorkLocal[0] == 1*) GOTO 0x0710
347: 0x070C [0x1D] PRINT_EVENT_MESSAGE(message_id=11626*)
    → "That's about it."
348: 0x070F [0x23] WAIT_FOR_DIALOG_INTERACTION
349: 0x0710 [0x02] IF !(ExtData[1]->WorkLocal[19] == 0*) GOTO 0x0751
350: 0x0718 [0x03] Work_Zone[2] = ExtData[1]->WorkLocal[19]
351: 0x071D [0x03] Work_Zone[3] = ExtData[1]->WorkLocal[20]
352: 0x0722 [0x3E] IF !(ExtData[1]->WorkLocal[37] bit 4*) GOTO 0x0730
353: 0x0729 [0x1D] PRINT_EVENT_MESSAGE(message_id=11625*)
    → "This skill has the following effect:"
354: 0x072C [0x23] WAIT_FOR_DIALOG_INTERACTION
355: 0x072D [0x01] GOTO 0x0734
356: 0x0730 [0x1D] PRINT_EVENT_MESSAGE(message_id=11623*)
    → "(lv. $1) This skill has the following effect:"
357: 0x0733 [0x23] WAIT_FOR_DIALOG_INTERACTION

SUBROUTINE_0734:
358: 0x0734 [0x03] ExtData[1]->WorkLocal[27] = 7393*
359: 0x0739 [0x07] ExtData[1]->WorkLocal[27] += ExtData[1]->WorkLocal[19]
360: 0x073E [0x1D] PRINT_EVENT_MESSAGE(message_id=ExtData[1]->WorkLocal[27])
361: 0x0741 [0x23] WAIT_FOR_DIALOG_INTERACTION
362: 0x0742 [0x9C] STORE_CLIENT_LANGUAGE_ID(result=0x00)
363: 0x0745 [0x02] IF !(ExtData[1]->WorkLocal[0] == 1*) GOTO 0x0751
364: 0x074D [0x1D] PRINT_EVENT_MESSAGE(message_id=11626*)
    → "That's about it."
365: 0x0750 [0x23] WAIT_FOR_DIALOG_INTERACTION
366: 0x0751 [0x02] IF !(ExtData[1]->WorkLocal[21] == 0*) GOTO 0x0792
367: 0x0759 [0x03] Work_Zone[2] = ExtData[1]->WorkLocal[21]
368: 0x075E [0x03] Work_Zone[3] = ExtData[1]->WorkLocal[22]
369: 0x0763 [0x3E] IF !(ExtData[1]->WorkLocal[37] bit 5*) GOTO 0x0771
370: 0x076A [0x1D] PRINT_EVENT_MESSAGE(message_id=11625*)
    → "This skill has the following effect:"
371: 0x076D [0x23] WAIT_FOR_DIALOG_INTERACTION
372: 0x076E [0x01] GOTO 0x0775
373: 0x0771 [0x1D] PRINT_EVENT_MESSAGE(message_id=11623*)
    → "(lv. $1) This skill has the following effect:"
374: 0x0774 [0x23] WAIT_FOR_DIALOG_INTERACTION

SUBROUTINE_0775:
375: 0x0775 [0x03] ExtData[1]->WorkLocal[27] = 7393*
376: 0x077A [0x07] ExtData[1]->WorkLocal[27] += ExtData[1]->WorkLocal[21]
377: 0x077F [0x1D] PRINT_EVENT_MESSAGE(message_id=ExtData[1]->WorkLocal[27])
378: 0x0782 [0x23] WAIT_FOR_DIALOG_INTERACTION
379: 0x0783 [0x9C] STORE_CLIENT_LANGUAGE_ID(result=0x00)
380: 0x0786 [0x02] IF !(ExtData[1]->WorkLocal[0] == 1*) GOTO 0x0792
381: 0x078E [0x1D] PRINT_EVENT_MESSAGE(message_id=11626*)
    → "That's about it."
382: 0x0791 [0x23] WAIT_FOR_DIALOG_INTERACTION
383: 0x0792 [0x02] IF !(ExtData[1]->WorkLocal[23] == 0*) GOTO 0x07D3
384: 0x079A [0x03] Work_Zone[2] = ExtData[1]->WorkLocal[23]
385: 0x079F [0x03] Work_Zone[3] = ExtData[1]->WorkLocal[24]
386: 0x07A4 [0x3E] IF !(ExtData[1]->WorkLocal[37] bit 6*) GOTO 0x07B2
387: 0x07AB [0x1D] PRINT_EVENT_MESSAGE(message_id=11625*)
    → "This skill has the following effect:"
388: 0x07AE [0x23] WAIT_FOR_DIALOG_INTERACTION
389: 0x07AF [0x01] GOTO 0x07B6
390: 0x07B2 [0x1D] PRINT_EVENT_MESSAGE(message_id=11623*)
    → "(lv. $1) This skill has the following effect:"
391: 0x07B5 [0x23] WAIT_FOR_DIALOG_INTERACTION

SUBROUTINE_07B6:
392: 0x07B6 [0x03] ExtData[1]->WorkLocal[27] = 7393*
393: 0x07BB [0x07] ExtData[1]->WorkLocal[27] += ExtData[1]->WorkLocal[23]
394: 0x07C0 [0x1D] PRINT_EVENT_MESSAGE(message_id=ExtData[1]->WorkLocal[27])
395: 0x07C3 [0x23] WAIT_FOR_DIALOG_INTERACTION
396: 0x07C4 [0x9C] STORE_CLIENT_LANGUAGE_ID(result=0x00)
397: 0x07C7 [0x02] IF !(ExtData[1]->WorkLocal[0] == 1*) GOTO 0x07D3
398: 0x07CF [0x1D] PRINT_EVENT_MESSAGE(message_id=11626*)
    → "That's about it."
399: 0x07D2 [0x23] WAIT_FOR_DIALOG_INTERACTION
400: 0x07D3 [0x02] IF !(Work_Zone[2] == 0*) GOTO 0x07DF
401: 0x07DB [0x1D] PRINT_EVENT_MESSAGE(message_id=11621*)
    → "This monster has no additional feral skills."
402: 0x07DE [0x23] WAIT_FOR_DIALOG_INTERACTION
403: 0x07DF [0x01] GOTO 0x07E2

SUBROUTINE_07E2:
404: 0x07E2 [0x1D] PRINT_EVENT_MESSAGE(message_id=11638*)
    → "Is there anything else you require?"
405: 0x07E5 [0x23] WAIT_FOR_DIALOG_INTERACTION
406: 0x07E6 [0x01] GOTO 0x0A35
407: 0x07E9 [0x02] IF !(Work_Zone[0] == 3*) GOTO 0x092E
408: 0x07F1 [0x05] ExtData[1]->WorkLocal[29] = 1

SUBROUTINE_07F4:
409: 0x07F4 [0x02] IF !(ExtData[1]->WorkLocal[29] == 0*) GOTO 0x092B
410: 0x07FC [0x03] Work_Zone[2] = ExtData[1]->WorkLocal[11]
411: 0x0801 [0x03] Work_Zone[3] = ExtData[1]->WorkLocal[13]
412: 0x0806 [0x03] Work_Zone[4] = ExtData[1]->WorkLocal[15]
413: 0x080B [0x03] Work_Zone[5] = ExtData[1]->WorkLocal[17]
414: 0x0810 [0x03] Work_Zone[6] = ExtData[1]->WorkLocal[19]
415: 0x0815 [0x03] ExtData[1]->WorkLocal[34] = 0*
416: 0x081A [0x02] IF !(ExtData[1]->WorkLocal[11] == 0*) GOTO 0x0829
417: 0x0822 [0x3C] SET_BIT_FLAG_CONDITIONAL(target_work_offset=ExtData[1]->WorkLocal[34], bit_index_work_offset=1*, condition_work_offset=1*)
418: 0x0829 [0x02] IF !(ExtData[1]->WorkLocal[13] == 0*) GOTO 0x0838
419: 0x0831 [0x3C] SET_BIT_FLAG_CONDITIONAL(target_work_offset=ExtData[1]->WorkLocal[34], bit_index_work_offset=2*, condition_work_offset=1*)
420: 0x0838 [0x02] IF !(ExtData[1]->WorkLocal[15] == 0*) GOTO 0x0847
421: 0x0840 [0x3C] SET_BIT_FLAG_CONDITIONAL(target_work_offset=ExtData[1]->WorkLocal[34], bit_index_work_offset=3*, condition_work_offset=1*)
422: 0x0847 [0x02] IF !(ExtData[1]->WorkLocal[17] == 0*) GOTO 0x0856
423: 0x084F [0x3C] SET_BIT_FLAG_CONDITIONAL(target_work_offset=ExtData[1]->WorkLocal[34], bit_index_work_offset=4*, condition_work_offset=1*)
424: 0x0856 [0x02] IF !(ExtData[1]->WorkLocal[19] == 0*) GOTO 0x0865
425: 0x085E [0x3C] SET_BIT_FLAG_CONDITIONAL(target_work_offset=ExtData[1]->WorkLocal[34], bit_index_work_offset=5*, condition_work_offset=1*)
426: 0x0865 [0x02] IF !(ExtData[1]->WorkLocal[34] == 62*) GOTO 0x0877
427: 0x086D [0x06] ExtData[1]->WorkLocal[29] = 0
428: 0x0870 [0x1D] PRINT_EVENT_MESSAGE(message_id=11621*)
    → "This monster has no additional feral skills."
429: 0x0873 [0x23] WAIT_FOR_DIALOG_INTERACTION
430: 0x0874 [0x01] GOTO 0x0928
431: 0x0877 [0x24] CREATE_DIALOG(message_id=11627*, default_option=0*, option_flags=ExtData[1]->WorkLocal[34])
    → "Remove which skill? [None./././././.]"
432: 0x087E [0x25] WAIT_DIALOG_SELECT()
433: 0x087F [0x02] IF !(Work_Zone[0] == 0*) GOTO 0x0891
434: 0x0887 [0x06] ExtData[1]->WorkLocal[29] = 0
435: 0x088A [0x1D] PRINT_EVENT_MESSAGE(message_id=11638*)
    → "Is there anything else you require?"
436: 0x088D [0x23] WAIT_FOR_DIALOG_INTERACTION
437: 0x088E [0x01] GOTO 0x08E1
438: 0x0891 [0x02] IF !(Work_Zone[0] == 1*) GOTO 0x08A1
439: 0x0899 [0x03] Work_Zone_1700[0] = ExtData[1]->WorkLocal[11]
440: 0x089E [0x01] GOTO 0x08E1
441: 0x08A1 [0x02] IF !(Work_Zone[0] == 2*) GOTO 0x08B1
442: 0x08A9 [0x03] Work_Zone_1700[0] = ExtData[1]->WorkLocal[13]
443: 0x08AE [0x01] GOTO 0x08E1
444: 0x08B1 [0x02] IF !(Work_Zone[0] == 3*) GOTO 0x08C1
445: 0x08B9 [0x03] Work_Zone_1700[0] = ExtData[1]->WorkLocal[15]
446: 0x08BE [0x01] GOTO 0x08E1
447: 0x08C1 [0x02] IF !(Work_Zone[0] == 4*) GOTO 0x08D1
448: 0x08C9 [0x03] Work_Zone_1700[0] = ExtData[1]->WorkLocal[17]
449: 0x08CE [0x01] GOTO 0x08E1
450: 0x08D1 [0x02] IF !(Work_Zone[0] == 5*) GOTO 0x08E1
451: 0x08D9 [0x03] Work_Zone_1700[0] = ExtData[1]->WorkLocal[19]
452: 0x08DE [0x01] GOTO 0x08E1

SUBROUTINE_08E1:
453: 0x08E1 [0x02] IF !(Work_Zone[0] == 0*) GOTO 0x0928
454: 0x08E9 [0x40] SET_BIT_WORK_RANGE(start_bit=4*, end_bit=11*, target=Work_Zone[1], source=Work_Zone[0])
455: 0x08F2 [0x1D] PRINT_EVENT_MESSAGE(message_id=11628*)
    → "If you remove "" from your monster, you will require another soul plate of the same skill to reapply it."
456: 0x08F5 [0x23] WAIT_FOR_DIALOG_INTERACTION
457: 0x08F6 [0x24] CREATE_DIALOG(message_id=11629*, default_option=1*, option_flags=0*)
    → "Do you wish to proceed? [Yes./No, wait!]"
458: 0x08FD [0x25] WAIT_DIALOG_SELECT()
459: 0x08FE [0x02] IF !(Work_Zone[0] == 0*) GOTO 0x0918
460: 0x0906 [0x06] ExtData[1]->WorkLocal[28] = 0
461: 0x0909 [0x06] ExtData[1]->WorkLocal[29] = 0
462: 0x090C [0x40] SET_BIT_WORK_RANGE(start_bit=0*, end_bit=3*, target=Work_Zone[1], source=2*)
463: 0x0915 [0x01] GOTO 0x0928
464: 0x0918 [0x02] IF !(Work_Zone[0] == 1*) GOTO 0x0928
465: 0x0920 [0x03] Work_Zone[1] = 0*
466: 0x0925 [0x01] GOTO 0x0928

SUBROUTINE_0928:
467: 0x0928 [0x01] GOTO 0x07F4
468: 0x092B [0x01] GOTO 0x0A35
469: 0x092E [0x02] IF !(Work_Zone[0] == 4*) GOTO 0x094B
470: 0x0936 [0x03] Work_Zone[2] = ExtData[1]->WorkLocal[25]
471: 0x093B [0x03] Work_Zone[3] = ExtData[1]->WorkLocal[26]
472: 0x0940 [0x1D] PRINT_EVENT_MESSAGE(message_id=11634*)
    → "Your monster's current FP count is $0/$1."
473: 0x0943 [0x23] WAIT_FOR_DIALOG_INTERACTION
474: 0x0944 [0x1D] PRINT_EVENT_MESSAGE(message_id=11638*)
    → "Is there anything else you require?"
475: 0x0947 [0x23] WAIT_FOR_DIALOG_INTERACTION
476: 0x0948 [0x01] GOTO 0x0A35
477: 0x094B [0x02] IF !(Work_Zone[0] == 5*) GOTO 0x096D
478: 0x0953 [0x03] Work_Zone[2] = ExtData[1]->WorkLocal[10]
479: 0x0958 [0x03] Work_Zone[3] = 200*
480: 0x095D [0x08] Work_Zone[3] -= ExtData[1]->WorkLocal[6]
481: 0x0962 [0x1D] PRINT_EVENT_MESSAGE(message_id=11635*)
    → "Your monster is currently level $0. $1 experience [point/points] are necessary to attain the next level."
482: 0x0965 [0x23] WAIT_FOR_DIALOG_INTERACTION
483: 0x0966 [0x1D] PRINT_EVENT_MESSAGE(message_id=11638*)
    → "Is there anything else you require?"
484: 0x0969 [0x23] WAIT_FOR_DIALOG_INTERACTION
485: 0x096A [0x01] GOTO 0x0A35
486: 0x096D [0x02] IF !(Work_Zone[0] == 6*) GOTO 0x09A2
487: 0x0975 [0x03] Work_Zone[2] = ExtData[1]->WorkLocal[7]
488: 0x097A [0x15] Work_Zone[2] /= 16*
489: 0x097F [0x1D] PRINT_EVENT_MESSAGE(message_id=11636*)
    → "Your monster's discipline level is [extremely low/very low/low/slightly below normal/slightly above normal/high/very high/extremely high]."
490: 0x0982 [0x23] WAIT_FOR_DIALOG_INTERACTION
491: 0x0983 [0x03] Work_Zone[3] = ExtData[1]->WorkLocal[8]
492: 0x0988 [0x15] Work_Zone[3] /= 2*
493: 0x098D [0x03] Work_Zone[4] = ExtData[1]->WorkLocal[9]
494: 0x0992 [0x15] Work_Zone[4] /= 2*
495: 0x0997 [0x1D] PRINT_EVENT_MESSAGE(message_id=11637*)
    → "Its temperament is [extremely tame/very tame/tame/somewhat tame/somewhat wild/wild/very wild/extremely wild] while [extremely defensive/very defensive/defensive/somewhat defensive/somewhat aggressive/aggressive/very aggressive/extremely aggressive]."
496: 0x099A [0x23] WAIT_FOR_DIALOG_INTERACTION
497: 0x099B [0x1D] PRINT_EVENT_MESSAGE(message_id=11638*)
    → "Is there anything else you require?"
498: 0x099E [0x23] WAIT_FOR_DIALOG_INTERACTION
499: 0x099F [0x01] GOTO 0x0A35
500: 0x09A2 [0x02] IF !(Work_Zone[0] == 7*) GOTO 0x0A35
501: 0x09AA [0x1D] PRINT_EVENT_MESSAGE(message_id=11640*)
    → "Pankration has a long list of terminology unique to the sport."
502: 0x09AD [0x23] WAIT_FOR_DIALOG_INTERACTION
503: 0x09AE [0x05] ExtData[1]->WorkLocal[29] = 1

SUBROUTINE_09B1:
504: 0x09B1 [0x02] IF !(ExtData[1]->WorkLocal[29] == 0*) GOTO 0x0A32
505: 0x09B9 [0x24] CREATE_DIALOG(message_id=11641*, default_option=0*, option_flags=0*)
    → "Which would you like me to explain? [Nothing./Feral skills./FP./Discipline./Temperament.]"
506: 0x09C0 [0x25] WAIT_DIALOG_SELECT()
507: 0x09C1 [0x02] IF !(Work_Zone[0] == 0*) GOTO 0x09CF
508: 0x09C9 [0x06] ExtData[1]->WorkLocal[29] = 0
509: 0x09CC [0x01] GOTO 0x0A2F
510: 0x09CF [0x02] IF !(Work_Zone[0] == 1*) GOTO 0x09F2
511: 0x09D7 [0x1D] PRINT_EVENT_MESSAGE(message_id=11642*)
    → ""Feral skills" is the collective term used when referring to the various abilities and attributes assigned to monsters participating in Pankration."
512: 0x09DA [0x23] WAIT_FOR_DIALOG_INTERACTION
513: 0x09DB [0x1D] PRINT_EVENT_MESSAGE(message_id=11643*)
    → "Some feral skills have job, monster family, and level restrictions and cannot be assigned to monsters who do not meet certain requirements."
514: 0x09DE [0x23] WAIT_FOR_DIALOG_INTERACTION
515: 0x09DF [0x1D] PRINT_EVENT_MESSAGE(message_id=11644*)
    → "In addition, most feral skills have levels, with higher-level skills yielding better results. However, keep in mind that there are some feral skills which never increase in level."
516: 0x09E2 [0x23] WAIT_FOR_DIALOG_INTERACTION
517: 0x09E3 [0x1D] PRINT_EVENT_MESSAGE(message_id=11645*)
    → "Feral skills will generally improve after a monster's continued participation in Pankration events."
518: 0x09E6 [0x23] WAIT_FOR_DIALOG_INTERACTION
519: 0x09E7 [0x1D] PRINT_EVENT_MESSAGE(message_id=11646*)
    → "While most monsters possess no feral skills upon capture, there are rare cases when a subject will already be blessed with one or two skills."
520: 0x09EA [0x23] WAIT_FOR_DIALOG_INTERACTION
521: 0x09EB [0x1D] PRINT_EVENT_MESSAGE(message_id=11647*)
    → "These special monsters usually are more receptive to additional feral skills, though it is impossible to remove the skills they are born with."
522: 0x09EE [0x23] WAIT_FOR_DIALOG_INTERACTION
523: 0x09EF [0x01] GOTO 0x0A2F
524: 0x09F2 [0x02] IF !(Work_Zone[0] == 2*) GOTO 0x0A09
525: 0x09FA [0x1D] PRINT_EVENT_MESSAGE(message_id=11648*)
    → "FP is the abbreviation for feral points. These points are used when assigning feral skills to monsters."
526: 0x09FD [0x23] WAIT_FOR_DIALOG_INTERACTION
527: 0x09FE [0x1D] PRINT_EVENT_MESSAGE(message_id=11649*)
    → "Assigning a feral skill requires a certain amount of a monster's total FP capacity. Generally speaking, the more powerful a skill, the more FP will be required when assigning it."
528: 0x0A01 [0x23] WAIT_FOR_DIALOG_INTERACTION
529: 0x0A02 [0x1D] PRINT_EVENT_MESSAGE(message_id=11650*)
    → "Every monster has a different FP capacity, and once that capacity is reached, additional feral skills can no longer be assigned."
530: 0x0A05 [0x23] WAIT_FOR_DIALOG_INTERACTION
531: 0x0A06 [0x01] GOTO 0x0A2F
532: 0x0A09 [0x02] IF !(Work_Zone[0] == 3*) GOTO 0x0A1C
533: 0x0A11 [0x1D] PRINT_EVENT_MESSAGE(message_id=11651*)
    → "Discipline describes how seasoned a monster's battle senses are."
534: 0x0A14 [0x23] WAIT_FOR_DIALOG_INTERACTION
535: 0x0A15 [0x1D] PRINT_EVENT_MESSAGE(message_id=11652*)
    → "The more disciplined a monster is, the more receptive the beast is to commands during battle."
536: 0x0A18 [0x23] WAIT_FOR_DIALOG_INTERACTION
537: 0x0A19 [0x01] GOTO 0x0A2F
538: 0x0A1C [0x02] IF !(Work_Zone[0] == 4*) GOTO 0x0A2F
539: 0x0A24 [0x1D] PRINT_EVENT_MESSAGE(message_id=11653*)
    → "Temperament describes the overall nature of a monster."
540: 0x0A27 [0x23] WAIT_FOR_DIALOG_INTERACTION
541: 0x0A28 [0x1D] PRINT_EVENT_MESSAGE(message_id=11654*)
    → "Most monsters range from wild to tame, and defensive to aggressive. A monster's temperament greatly affects its battle style."
542: 0x0A2B [0x23] WAIT_FOR_DIALOG_INTERACTION
543: 0x0A2C [0x01] GOTO 0x0A2F

SUBROUTINE_0A2F:
544: 0x0A2F [0x01] GOTO 0x09B1
545: 0x0A32 [0x01] GOTO 0x0A35

SUBROUTINE_0A35:
546: 0x0A35 [0x01] GOTO 0x0197
547: 0x0A38 [0x21] END_EVENT
548: 0x0A39 [0x00] END_REQSTACK()
```

### Event 111

#### Metadata

| Field        | Value     |
|--------------|-----------|
| Entrypoint   | 0x0A3A    |
| Data Size    | 415 bytes |
| Instructions | 39        |

```
      00 01 02 03 04 05 06 07  08 09 0A 0B 0C 0D 0E 0F
      -- -- -- -- -- -- -- --  -- -- -- -- -- -- -- --
0A30:                                42 03 00 00 02 10            B.....
0A40: 03 05 00 03 10 03 0A 00  04 10 03 0B 00 05 10 03  ................
0A50: 0C 00 06 10 03 19 00 07  10 1E F0 FF FF 7F 03 02  ................
0A60: 10 01 80 03 03 10 00 80  03 04 10 05 00 03 05 10  ................
0A70: 0A 00 02 00 00 03 80 00  81 0A 1D 61 80 23 01 85  ...........a.#..
0A80: 0A 1D 62 80 23 03 06 10  0B 00 03 07 10 0C 00 02  ..b.#...........
0A90: 08 10 03 80 01 9E 0A 1D  63 80 23 01 A2 0A 1D 64  ........c.#....d
0AA0: 80 23 03 1B 00 47 80 07  1B 00 0B 00 1D 1B 00 23  .#...G.........#
0AB0: 9C 00 00 02 00 00 07 80  00 BF 0A 1D 48 80 23 03  ............H.#.
0AC0: 08 10 19 00 1D 65 80 23  21 00 41 03 80 42 80 03  .....e.#!.A..B..
0AD0: 10 03 00 41 43 80 35 80  03 10 04 00 07 04 00 3A  ...AC.5........:
0AE0: 80 41 66 80 67 80 03 10  06 00 41 03 80 14 80 04  .Af.g.....A.....
0AF0: 10 00 00 10 00 00 1C 80  07 06 00 00 00 41 1C 80  .............A..
0B00: 35 80 04 10 07 00 41 3B  80 68 80 04 10 08 00 41  5.....A;.h.....A
0B10: 2F 80 3C 80 04 10 09 00  41 22 80 69 80 04 10 0A  /.<.....A".i....
0B20: 00 41 27 80 67 80 04 10  0B 00 41 03 80 43 80 05  .A'.g.....A..C..
0B30: 10 00 00 10 00 00 42 80  07 0B 00 00 00 41 24 80  ......B......A$.
0B40: 20 80 05 10 0C 00 41 21  80 6A 80 05 10 0D 00 41   .....A!.j.....A
0B50: 69 80 67 80 05 10 0E 00  41 03 80 03 80 06 10 00  i.g.....A.......
0B60: 00 10 00 00 43 80 07 0E  00 00 00 41 07 80 3B 80  ....C......A..;.
0B70: 06 10 0F 00 41 20 80 3C  80 06 10 10 00 41 22 80  ....A .<.....A".
0B80: 67 80 06 10 11 00 41 03  80 43 80 07 10 12 00 41  g.....A..C.....A
0B90: 24 80 26 80 07 10 13 00  41 3C 80 6A 80 07 10 14  $.&.....A<.j....
0BA0: 00 41 69 80 67 80 07 10  15 00 41 03 80 42 80 08  .Ai.g.....A..B..
0BB0: 10 00 00 10 00 00 43 80  07 15 00 00 00 41 43 80  ......C......AC.
0BC0: 3B 80 08 10 16 00 41 20  80 6B 80 08 10 17 00 41  ;.....A .k.....A
0BD0: 6A 80 67 80 08 10 18 00  1B                       j.g......       
```

#### Opcodes

```
  0: 0x0A3A [0x42] SET_CLI_EVENT_CANCEL_DATA()
  1: 0x0A3B [0x03] ExtData[1]->WorkLocal[0] = Work_Zone[2]
  2: 0x0A40 [0x03] ExtData[1]->WorkLocal[5] = Work_Zone[3]
  3: 0x0A45 [0x03] ExtData[1]->WorkLocal[10] = Work_Zone[4]
  4: 0x0A4A [0x03] ExtData[1]->WorkLocal[11] = Work_Zone[5]
  5: 0x0A4F [0x03] ExtData[1]->WorkLocal[12] = Work_Zone[6]
  6: 0x0A54 [0x03] ExtData[1]->WorkLocal[25] = Work_Zone[7]
  7: 0x0A59 [0x1E] EventEntity looks at LocalPlayer and starts talking
  8: 0x0A5E [0x03] Work_Zone[2] = 2477*
  9: 0x0A63 [0x03] Work_Zone[3] = 2478*
 10: 0x0A68 [0x03] Work_Zone[4] = ExtData[1]->WorkLocal[5]
 11: 0x0A6D [0x03] Work_Zone[5] = ExtData[1]->WorkLocal[10]
 12: 0x0A72 [0x02] IF !(ExtData[1]->WorkLocal[0] == 0*) GOTO 0x0A81
 13: 0x0A7A [0x1D] PRINT_EVENT_MESSAGE(message_id=11667*)
    → "I cannot forge a new $1 from this $0. I can, however, add the following skill to an existing reflector:"
 14: 0x0A7D [0x23] WAIT_FOR_DIALOG_INTERACTION
 15: 0x0A7E [0x01] GOTO 0x0A85
 16: 0x0A81 [0x1D] PRINT_EVENT_MESSAGE(message_id=11666*)
    → "Using this $0, I can forge $1 containing a level $3 $2-type monster or add the following skill to an existing reflector:"
 17: 0x0A84 [0x23] WAIT_FOR_DIALOG_INTERACTION

SUBROUTINE_0A85:
 18: 0x0A85 [0x03] Work_Zone[6] = ExtData[1]->WorkLocal[11]
 19: 0x0A8A [0x03] Work_Zone[7] = ExtData[1]->WorkLocal[12]
 20: 0x0A8F [0x02] IF !(Work_Zone[8] == 0*) GOTO 0x0A9E
 21: 0x0A97 [0x1D] PRINT_EVENT_MESSAGE(message_id=11668*)
    → "` (lv. $5)`"
 22: 0x0A9A [0x23] WAIT_FOR_DIALOG_INTERACTION
 23: 0x0A9B [0x01] GOTO 0x0AA2
 24: 0x0A9E [0x1D] PRINT_EVENT_MESSAGE(message_id=11669*)
    → "``"
 25: 0x0AA1 [0x23] WAIT_FOR_DIALOG_INTERACTION

SUBROUTINE_0AA2:
 26: 0x0AA2 [0x03] ExtData[1]->WorkLocal[27] = 7393*
 27: 0x0AA7 [0x07] ExtData[1]->WorkLocal[27] += ExtData[1]->WorkLocal[11]
 28: 0x0AAC [0x1D] PRINT_EVENT_MESSAGE(message_id=ExtData[1]->WorkLocal[27])
 29: 0x0AAF [0x23] WAIT_FOR_DIALOG_INTERACTION
 30: 0x0AB0 [0x9C] STORE_CLIENT_LANGUAGE_ID(result=0x00)
 31: 0x0AB3 [0x02] IF !(ExtData[1]->WorkLocal[0] == 1*) GOTO 0x0ABF
 32: 0x0ABB [0x1D] PRINT_EVENT_MESSAGE(message_id=11626*)
    → "That's about it."
 33: 0x0ABE [0x23] WAIT_FOR_DIALOG_INTERACTION
 34: 0x0ABF [0x03] Work_Zone[8] = ExtData[1]->WorkLocal[25]
 35: 0x0AC4 [0x1D] PRINT_EVENT_MESSAGE(message_id=11670*)
    → "FP requirement: $6"
 36: 0x0AC7 [0x23] WAIT_FOR_DIALOG_INTERACTION
 37: 0x0AC8 [0x21] END_EVENT
 38: 0x0AC9 [0x00] END_REQSTACK()
```

#### Data or dead code:

```
# Dead code (unreachable instructions):
     0x0ACA [0x41] ExtData[1]->WorkLocal[3] = Work_Zone[3] (bits 0*-5*)
     0x0AD3 [0x41] ExtData[1]->WorkLocal[4] = Work_Zone[3] (bits 6*-11*)
     0x0ADC [0x07] ExtData[1]->WorkLocal[4] += 64*
     0x0AE1 [0x41] ExtData[1]->WorkLocal[6] = Work_Zone[3] (bits 28*-31*)
     0x0AEA [0x41] ExtData[1]->WorkLocal[0] = Work_Zone[4] (bits 0*-3*)
     0x0AF3 [0x10] ExtData[1]->WorkLocal[0] <<= 4*
     0x0AF8 [0x07] ExtData[1]->WorkLocal[6] += ExtData[1]->WorkLocal[0]
     0x0AFD [0x41] ExtData[1]->WorkLocal[7] = Work_Zone[4] (bits 4*-11*)
     0x0B06 [0x41] ExtData[1]->WorkLocal[8] = Work_Zone[4] (bits 12*-15*)
     0x0B0F [0x41] ExtData[1]->WorkLocal[9] = Work_Zone[4] (bits 16*-19*)
     0x0B18 [0x41] ExtData[1]->WorkLocal[10] = Work_Zone[4] (bits 20*-26*)
     0x0B21 [0x41] ExtData[1]->WorkLocal[11] = Work_Zone[4] (bits 27*-31*)
     0x0B2A [0x41] ExtData[1]->WorkLocal[0] = Work_Zone[5] (bits 0*-6*)
     0x0B33 [0x10] ExtData[1]->WorkLocal[0] <<= 5*
     0x0B38 [0x07] ExtData[1]->WorkLocal[11] += ExtData[1]->WorkLocal[0]
     0x0B3D [0x41] ExtData[1]->WorkLocal[12] = Work_Zone[5] (bits 7*-13*)
     0x0B46 [0x41] ExtData[1]->WorkLocal[13] = Work_Zone[5] (bits 14*-25*)
     0x0B4F [0x41] ExtData[1]->WorkLocal[14] = Work_Zone[5] (bits 26*-31*)
     0x0B58 [0x41] ExtData[1]->WorkLocal[0] = Work_Zone[6] (bits 0*-0*)
     0x0B61 [0x10] ExtData[1]->WorkLocal[0] <<= 6*
     0x0B66 [0x07] ExtData[1]->WorkLocal[14] += ExtData[1]->WorkLocal[0]
     0x0B6B [0x41] ExtData[1]->WorkLocal[15] = Work_Zone[6] (bits 1*-12*)
     0x0B74 [0x41] ExtData[1]->WorkLocal[16] = Work_Zone[6] (bits 13*-19*)
     0x0B7D [0x41] ExtData[1]->WorkLocal[17] = Work_Zone[6] (bits 20*-31*)
     0x0B86 [0x41] ExtData[1]->WorkLocal[18] = Work_Zone[7] (bits 0*-6*)
     0x0B8F [0x41] ExtData[1]->WorkLocal[19] = Work_Zone[7] (bits 7*-18*)
     0x0B98 [0x41] ExtData[1]->WorkLocal[20] = Work_Zone[7] (bits 19*-25*)
     0x0BA1 [0x41] ExtData[1]->WorkLocal[21] = Work_Zone[7] (bits 26*-31*)
     0x0BAA [0x41] ExtData[1]->WorkLocal[0] = Work_Zone[8] (bits 0*-5*)
     0x0BB3 [0x10] ExtData[1]->WorkLocal[0] <<= 6*
     0x0BB8 [0x07] ExtData[1]->WorkLocal[21] += ExtData[1]->WorkLocal[0]
     0x0BBD [0x41] ExtData[1]->WorkLocal[22] = Work_Zone[8] (bits 6*-12*)
     0x0BC6 [0x41] ExtData[1]->WorkLocal[23] = Work_Zone[8] (bits 13*-24*)
     0x0BCF [0x41] ExtData[1]->WorkLocal[24] = Work_Zone[8] (bits 25*-31*)
     0x0BD8 [0x1B] RETURN
```
