# 17068554 - Rayeewa

## Common Data

| Field            | Value                  |
|------------------|------------------------|
| Zone             | The Colosseum (ID: 71) |
| Block Size       | 2696 bytes             |
| Total Events     | 10                     |
| References Count | 73                     |

## List of Events

| Event ID              | Entrypoint   |   Size |   Instructions |
|-----------------------|--------------|--------|----------------|
| [65535](#event-65535) | 0x0000       |      1 |              1 |
| [200](#event-200)     | 0x0001       |    250 |             66 |
| [201](#event-201)     | 0x00FB       |    442 |            104 |
| [202](#event-202)     | 0x02B5       |    345 |             84 |
| [203](#event-203)     | 0x040E       |    294 |             76 |
| [204](#event-204)     | 0x0534       |    106 |             26 |
| [205](#event-205)     | 0x059E       |    339 |             75 |
| [207](#event-207)     | 0x06F1       |     65 |             21 |
| [206](#event-206)     | 0x0732       |    117 |             28 |
| [208](#event-208)     | 0x07A7       |    388 |             63 |

## DAT References (imed_data)

|   Index | Hex Value   |   Dec Value |
|---------|-------------|-------------|
|       0 | 0x0000      |           0 |
|       1 | 0x09C4      |        2500 |
|       2 | 0x0001      |           1 |
|       3 | 0x0002      |           2 |
|       4 | 0x0003      |           3 |
|       5 | 0x2D02      |       11522 |
|       6 | 0x2D03      |       11523 |
|       7 | 0x2D04      |       11524 |
|       8 | 0x2D05      |       11525 |
|       9 | 0x2D06      |       11526 |
|      10 | 0x2D07      |       11527 |
|      11 | 0x2D08      |       11528 |
|      12 | 0x2D09      |       11529 |
|      13 | 0x2D0A      |       11530 |
|      14 | 0x2D0B      |       11531 |
|      15 | 0x2D0C      |       11532 |
|      16 | 0x2D0D      |       11533 |
|      17 | 0x2D0E      |       11534 |
|      18 | 0x2D0F      |       11535 |
|      19 | 0x0005      |           5 |
|      20 | 0x0006      |           6 |
|      21 | 0x000B      |          11 |
|      22 | 0x0040      |          64 |
|      23 | 0x000F      |          15 |
|      24 | 0x0010      |          16 |
|      25 | 0x001F      |          31 |
|      26 | 0x2D10      |       11536 |
|      27 | 0x2D14      |       11540 |
|      28 | 0x2D15      |       11541 |
|      29 | 0x2D1B      |       11547 |
|      30 | 0x2D1C      |       11548 |
|      31 | 0x2D19      |       11545 |
|      32 | 0x2D1D      |       11549 |
|      33 | 0x0004      |           4 |
|      34 | 0x2D11      |       11537 |
|      35 | 0x2D13      |       11539 |
|      36 | 0x2D12      |       11538 |
|      37 | 0x2D1E      |       11550 |
|      38 | 0x2D1F      |       11551 |
|      39 | 0x2D20      |       11552 |
|      40 | 0x2D2C      |       11564 |
|      41 | 0x2D2D      |       11565 |
|      42 | 0x2D2E      |       11566 |
|      43 | 0x001E      |          30 |
|      44 | 0x0017      |          23 |
|      45 | 0x001D      |          29 |
|      46 | 0x2D21      |       11553 |
|      47 | 0x2D22      |       11554 |
|      48 | 0x00C8      |         200 |
|      49 | 0x0032      |          50 |
|      50 | 0x2D23      |       11555 |
|      51 | 0x2D24      |       11556 |
|      52 | 0x2D26      |       11558 |
|      53 | 0x2D27      |       11559 |
|      54 | 0x2D28      |       11560 |
|      55 | 0x2D29      |       11561 |
|      56 | 0x2D2A      |       11562 |
|      57 | 0x2D34      |       11572 |
|      58 | 0x2D35      |       11573 |
|      59 | 0x2D38      |       11576 |
|      60 | 0x2D39      |       11577 |
|      61 | 0x001C      |          28 |
|      62 | 0x000C      |          12 |
|      63 | 0x0013      |          19 |
|      64 | 0x0014      |          20 |
|      65 | 0x001A      |          26 |
|      66 | 0x001B      |          27 |
|      67 | 0x0007      |           7 |
|      68 | 0x000D      |          13 |
|      69 | 0x000E      |          14 |
|      70 | 0x0019      |          25 |
|      71 | 0x0012      |          18 |
|      72 | 0x0018      |          24 |

## String References

- **11522**: Welcome to the Pit. If you have any questions regarding Pankration, I'm the one to ask.
- **11523**: What do you need? [A Pankration application form./A Pankration rule refresher./Match Information./Nothing, actually.]
- **11524**: To participate, you must first trade me $0. % can be obtained at the counter opposite this one.
- **11525**: I will also require $10 [jetton/jettons] to process your application. Visit the attendant stationed at the Pit's entrance for more information on jettons.
- **11526**: Pankration (pan-krat-ee-on) is a battle venue in which you can "pit" your very own monsters against the monsters of others.
- **11527**: By participating in these battles, your monster will gain experience points and become stronger, just as you do when fighting fiends.
- **11528**: After each battle, you must speak with a registration official in order to reflect the results of the previous match. Battle results will only be saved for $2 [day/days] (Earth time), after which they will become void, so it is recommended that you complete this task immediately after a match has ended.
- **11529**: Currently, we are holding a Pankration tournament.
- **11530**: The rules are simple--only the winners of their respective battles advance to the next fight, with the final monster standing declared the victor.
- **11531**: Currently, we are conducting versus battles.
- **11532**: These are basic matches pitting one monster against another, with the winner taking all.
- **11533**: If you apply as a two-person party, you will be able to reserve a registration slot for him or her, ensuring that your monster will be pit against that of your party member.
- **11534**: Currently, we are conducting group battles.
- **11535**: Group battles are three-on-three melees which require adventurers to register small parties of monsters to fight in the Pit.
- **11536**: May I help you? [I'd like to cancel my application./I'd like to confirm my opponent./I'd like to confirm the match time./I'd like information on Pankration./I'd like a rule refresher./No, but thank you for asking.]
- **11537**: May I help you? [I'd like to cancel my application./I'd like to confirm my opponent./I'd like information on Pankration./I'd like a rule refresher./No, but thank you for asking.]
- **11538**: May I help you? [I'd like to reflect match results./I lost my $0./I'd like information on Pankration./I'd like a rule refresher./No, I'm finished here.]
- **11539**: I'm sorry, but monsters currently participating in Pankration battles cannot be removed from their matches.
- **11540**: $0$0 is currently registered for an upcoming match. Do you really want to cancel its entry?
- **11541**: Final answer... [Yes./No.]
- **11545**: \`Opponent Data\` Name: $0$0 Family: $2 Level: $3
- **11547**: I'm sorry. It seems your opponent has yet to complete the registration process.
- **11548**: \`Opponent Data\` Name: $0$0 Family: $2 Level: Approximately $3
- **11549**: Your match is scheduled to begin at ( Earth Time).
- **11550**: Trade me the $0 used in the last match and I can tell you how your monster fared.
- **11551**: I'm sorry, but before you can create a new $0, we must first nullify all records of the matches played by your "misplaced" monster.
- **11552**: ... ... Alright. The data has been erased from our books.
- **11553**: [I'm sorry,/Congratulations!/Well, it seems] $0$7807067as defeated in its previous match.../ was victorious in its previous match!/'s last match was a draw.]
- **11554**: $0$0 gained $2 [experience point/experience points].
- **11555**: $0$0 has attained level $2!
- **11556**: The feral skill "" is now level $4!
- **11558**: I'm sorry, but I don't seem to have the results of any matches featuring that monster. Either its most recent match just ended and the results are still being tallied, or the data has been lost.
- **11559**: You have the option to either wait for the results to arrive, or cancel the results of the match completely.
- **11560**: Which do you choose? [Cancel the results./I'll wait a little longer.]
- **11561**: Understood. The results of your monster's last match have been erased from our official records.
- **11562**: We will continue looking for your results, but if we have not found them in a few minutes, chances are they were eaten by one of the monsters.
- **11564**: \`Registration Application\` Name: $0$0 Family: $2 Level: $3
- **11565**: Upon application submission, an opponent and a match time will automatically be set.
- **11566**: Submit application? [Yes. ($10 jetton fee required)/No.]
- **11572**: If you wish, I can also reserve a registration slot for your party member, thus ensuring that your monsters will be pit against one another. However, this may considerably delay the match starting time.
- **11573**: Submit entry and reserve slot? [Quit./Yes. ($10 [jetton/jettons])/Submit entry only. ($10 [jetton/jettons])]
- **11576**: Your party member has reserved you a registration slot. Would you like to submit your application for participation?
- **11577**: Submit application? [Yes. ($10 jetton fee required)/No./Cancel reservation.]

## Events

### Event 65535

#### Metadata

| Field        | Value   |
|--------------|---------|
| Entrypoint   | 0x0000  |
| Data Size    | 1 bytes |
| Instructions | 1       |

```
      00 01 02 03 04 05 06 07  08 09 0A 0B 0C 0D 0E 0F
      -- -- -- -- -- -- -- --  -- -- -- -- -- -- -- --
0000: 00                                                .               
```

#### Opcodes

```
  0: 0x0000 [0x00] END_REQSTACK()
```

### Event 200

#### Metadata

| Field        | Value     |
|--------------|-----------|
| Entrypoint   | 0x0001    |
| Data Size    | 250 bytes |
| Instructions | 66        |

```
      00 01 02 03 04 05 06 07  08 09 0A 0B 0C 0D 0E 0F
      -- -- -- -- -- -- -- --  -- -- -- -- -- -- -- --
0000:    02 02 10 00 80 80 11  00 03 01 00 01 80 01 41   ..............A
0010: 00 02 02 10 02 80 80 21  00 03 01 00 01 80 01 41  .......!.......A
0020: 00 02 02 10 03 80 80 31  00 03 01 00 01 80 01 41  .......1.......A
0030: 00 02 02 10 04 80 80 41  00 03 01 00 01 80 01 41  .......A.......A
0040: 00 03 02 00 03 10 03 03  00 04 10 05 04 00 1E F0  ................
0050: FF FF 7F 1D 05 80 23 02  04 00 00 80 01 F9 00 24  ......#........$
0060: 06 80 00 80 00 80 25 02  00 10 00 80 00 84 00 03  ......%.........
0070: 02 10 01 00 03 02 17 02  80 1D 07 80 23 1D 08 80  ............#...
0080: 23 01 F6 00 02 00 10 02  80 00 A0 00 1D 09 80 23  #..............#
0090: 1D 0A 80 23 03 04 10 03  00 1D 0B 80 23 01 F6 00  ...#........#...
00A0: 02 00 10 03 80 00 E8 00  02 02 00 00 80 80 BB 00  ................
00B0: 1D 0C 80 23 1D 0D 80 23  01 E5 00 02 02 00 02 80  ...#...#........
00C0: 80 D2 00 1D 0E 80 23 1D  0F 80 23 1D 10 80 23 01  ......#...#...#.
00D0: E5 00 02 02 00 03 80 80  E5 00 1D 11 80 23 1D 12  .............#..
00E0: 80 23 01 E5 00 01 F6 00  02 00 10 04 80 00 F6 00  .#..............
00F0: 06 04 00 01 F6 00 01 57  00 21 00                 .......W.!.     
```

#### Opcodes

```
  0: 0x0001 [0x02] IF !(Work_Zone[2] == 0*) GOTO 0x0011
  1: 0x0009 [0x03] ExtData[1]->WorkLocal[1] = 2500*
  2: 0x000E [0x01] GOTO 0x0041
  3: 0x0011 [0x02] IF !(Work_Zone[2] == 1*) GOTO 0x0021
  4: 0x0019 [0x03] ExtData[1]->WorkLocal[1] = 2500*
  5: 0x001E [0x01] GOTO 0x0041
  6: 0x0021 [0x02] IF !(Work_Zone[2] == 2*) GOTO 0x0031
  7: 0x0029 [0x03] ExtData[1]->WorkLocal[1] = 2500*
  8: 0x002E [0x01] GOTO 0x0041
  9: 0x0031 [0x02] IF !(Work_Zone[2] == 3*) GOTO 0x0041
 10: 0x0039 [0x03] ExtData[1]->WorkLocal[1] = 2500*
 11: 0x003E [0x01] GOTO 0x0041

SUBROUTINE_0041:
 12: 0x0041 [0x03] ExtData[1]->WorkLocal[2] = Work_Zone[3]
 13: 0x0046 [0x03] ExtData[1]->WorkLocal[3] = Work_Zone[4]
 14: 0x004B [0x05] ExtData[1]->WorkLocal[4] = 1
 15: 0x004E [0x1E] EventEntity looks at LocalPlayer and starts talking
 16: 0x0053 [0x1D] PRINT_EVENT_MESSAGE(message_id=11522*)
    → "Welcome to the Pit. If you have any questions regarding Pankration, I'm the one to ask."
 17: 0x0056 [0x23] WAIT_FOR_DIALOG_INTERACTION

SUBROUTINE_0057:
 18: 0x0057 [0x02] IF !(ExtData[1]->WorkLocal[4] == 0*) GOTO 0x00F9
 19: 0x005F [0x24] CREATE_DIALOG(message_id=11523*, default_option=0*, option_flags=0*)
    → "What do you need? [A Pankration application form./A Pankration rule refresher./Match Information./Nothing, actually.]"
 20: 0x0066 [0x25] WAIT_DIALOG_SELECT()
 21: 0x0067 [0x02] IF !(Work_Zone[0] == 0*) GOTO 0x0084
 22: 0x006F [0x03] Work_Zone[2] = ExtData[1]->WorkLocal[1]
 23: 0x0074 [0x03] Work_Zone_1700[2] = 1*
 24: 0x0079 [0x1D] PRINT_EVENT_MESSAGE(message_id=11524*)
    → "To participate, you must first trade me $0. % can be obtained at the counter opposite this one."
 25: 0x007C [0x23] WAIT_FOR_DIALOG_INTERACTION
 26: 0x007D [0x1D] PRINT_EVENT_MESSAGE(message_id=11525*)
    → "I will also require $10 [jetton/jettons] to process your application. Visit the attendant stationed at the Pit's entrance for more information on jettons."
 27: 0x0080 [0x23] WAIT_FOR_DIALOG_INTERACTION
 28: 0x0081 [0x01] GOTO 0x00F6
 29: 0x0084 [0x02] IF !(Work_Zone[0] == 1*) GOTO 0x00A0
 30: 0x008C [0x1D] PRINT_EVENT_MESSAGE(message_id=11526*)
    → "Pankration (pan-krat-ee-on) is a battle venue in which you can "pit" your very own monsters against the monsters of others."
 31: 0x008F [0x23] WAIT_FOR_DIALOG_INTERACTION
 32: 0x0090 [0x1D] PRINT_EVENT_MESSAGE(message_id=11527*)
    → "By participating in these battles, your monster will gain experience points and become stronger, just as you do when fighting fiends."
 33: 0x0093 [0x23] WAIT_FOR_DIALOG_INTERACTION
 34: 0x0094 [0x03] Work_Zone[4] = ExtData[1]->WorkLocal[3]
 35: 0x0099 [0x1D] PRINT_EVENT_MESSAGE(message_id=11528*)
    → "After each battle, you must speak with a registration official in order to reflect the results of the previous match. Battle results will only be saved for $2 [day/days] (Earth time), after which they will become void, so it is recommended that you complete this task immediately after a match has ended."
 36: 0x009C [0x23] WAIT_FOR_DIALOG_INTERACTION
 37: 0x009D [0x01] GOTO 0x00F6
 38: 0x00A0 [0x02] IF !(Work_Zone[0] == 2*) GOTO 0x00E8
 39: 0x00A8 [0x02] IF !(ExtData[1]->WorkLocal[2] == 0*) GOTO 0x00BB
 40: 0x00B0 [0x1D] PRINT_EVENT_MESSAGE(message_id=11529*)
    → "Currently, we are holding a Pankration tournament."
 41: 0x00B3 [0x23] WAIT_FOR_DIALOG_INTERACTION
 42: 0x00B4 [0x1D] PRINT_EVENT_MESSAGE(message_id=11530*)
    → "The rules are simple--only the winners of their respective battles advance to the next fight, with the final monster standing declared the victor."
 43: 0x00B7 [0x23] WAIT_FOR_DIALOG_INTERACTION
 44: 0x00B8 [0x01] GOTO 0x00E5
 45: 0x00BB [0x02] IF !(ExtData[1]->WorkLocal[2] == 1*) GOTO 0x00D2
 46: 0x00C3 [0x1D] PRINT_EVENT_MESSAGE(message_id=11531*)
    → "Currently, we are conducting versus battles."
 47: 0x00C6 [0x23] WAIT_FOR_DIALOG_INTERACTION
 48: 0x00C7 [0x1D] PRINT_EVENT_MESSAGE(message_id=11532*)
    → "These are basic matches pitting one monster against another, with the winner taking all."
 49: 0x00CA [0x23] WAIT_FOR_DIALOG_INTERACTION
 50: 0x00CB [0x1D] PRINT_EVENT_MESSAGE(message_id=11533*)
    → "If you apply as a two-person party, you will be able to reserve a registration slot for him or her, ensuring that your monster will be pit against that of your party member."
 51: 0x00CE [0x23] WAIT_FOR_DIALOG_INTERACTION
 52: 0x00CF [0x01] GOTO 0x00E5
 53: 0x00D2 [0x02] IF !(ExtData[1]->WorkLocal[2] == 2*) GOTO 0x00E5
 54: 0x00DA [0x1D] PRINT_EVENT_MESSAGE(message_id=11534*)
    → "Currently, we are conducting group battles."
 55: 0x00DD [0x23] WAIT_FOR_DIALOG_INTERACTION
 56: 0x00DE [0x1D] PRINT_EVENT_MESSAGE(message_id=11535*)
    → "Group battles are three-on-three melees which require adventurers to register small parties of monsters to fight in the Pit."
 57: 0x00E1 [0x23] WAIT_FOR_DIALOG_INTERACTION
 58: 0x00E2 [0x01] GOTO 0x00E5

SUBROUTINE_00E5:
 59: 0x00E5 [0x01] GOTO 0x00F6
 60: 0x00E8 [0x02] IF !(Work_Zone[0] == 3*) GOTO 0x00F6
 61: 0x00F0 [0x06] ExtData[1]->WorkLocal[4] = 0
 62: 0x00F3 [0x01] GOTO 0x00F6

SUBROUTINE_00F6:
 63: 0x00F6 [0x01] GOTO 0x0057
 64: 0x00F9 [0x21] END_EVENT
 65: 0x00FA [0x00] END_REQSTACK()
```

### Event 201

#### Metadata

| Field        | Value     |
|--------------|-----------|
| Entrypoint   | 0x00FB    |
| Data Size    | 442 bytes |
| Instructions | 104       |

```
      00 01 02 03 04 05 06 07  08 09 0A 0B 0C 0D 0E 0F
      -- -- -- -- -- -- -- --  -- -- -- -- -- -- -- --
00F0:                                   03 01 10 00 80             .....
0100: 02 02 10 00 80 80 10 01  03 01 00 01 80 01 40 01  ..............@.
0110: 02 02 10 02 80 80 20 01  03 01 00 01 80 01 40 01  ...... .......@.
0120: 02 02 10 03 80 80 30 01  03 01 00 01 80 01 40 01  ......0.......@.
0130: 02 02 10 04 80 80 40 01  03 01 00 01 80 01 40 01  ......@.......@.
0140: 03 02 00 03 10 03 03 00  04 10 41 00 80 13 80 05  ..........A.....
0150: 10 09 00 41 14 80 15 80  05 10 0A 00 07 0A 00 16  ...A............
0160: 80 41 00 80 17 80 06 10  0D 00 41 18 80 19 80 06  .A........A.....
0170: 10 12 00 03 21 00 07 10  41 00 80 13 80 08 10 0B  ....!...A.......
0180: 00 41 14 80 15 80 08 10  0C 00 07 0C 00 16 80 05  .A..............
0190: 04 00 1E F0 FF FF 7F 1D  05 80 23 02 04 00 00 80  ..........#.....
01A0: 01 B3 02 24 1A 80 00 80  00 80 25 02 00 10 00 80  ...$......%.....
01B0: 00 EB 01 03 02 10 0B 00  03 03 10 0C 00 1D 1B 80  ................
01C0: 23 24 1C 80 02 80 00 80  25 02 00 10 00 80 00 DD  #$......%.......
01D0: 01 42 03 01 10 02 80 06  04 00 01 E8 01 02 00 10  .B..............
01E0: 02 80 00 E8 01 01 E8 01  01 B0 02 02 00 10 02 80  ................
01F0: 00 2A 02 3E 09 10 02 80  01 02 1D 1D 80 23 01 27  .*.>.........#.'
0200: 02 03 02 10 09 00 03 03  10 0A 00 03 04 10 0D 00  ................
0210: 03 05 10 12 00 3E 09 10  04 80 23 02 1D 1E 80 23  .....>....#....#
0220: 01 27 02 1D 1F 80 23 01  B0 02 02 00 10 03 80 00  .'....#.........
0230: 3E 02 03 02 10 21 00 1D  20 80 23 01 B0 02 02 00  >....!.. .#.....
0240: 10 04 80 00 5A 02 1D 09  80 23 1D 0A 80 23 03 04  ....Z....#...#..
0250: 10 03 00 1D 0B 80 23 01  B0 02 02 00 10 21 80 00  ......#......!..
0260: A2 02 02 02 00 00 80 80  75 02 1D 0C 80 23 1D 0D  ........u....#..
0270: 80 23 01 9F 02 02 02 00  02 80 80 8C 02 1D 0E 80  .#..............
0280: 23 1D 0F 80 23 1D 10 80  23 01 9F 02 02 02 00 03  #...#...#.......
0290: 80 80 9F 02 1D 11 80 23  1D 12 80 23 01 9F 02 01  .......#...#....
02A0: B0 02 02 00 10 13 80 00  B0 02 06 04 00 01 B0 02  ................
02B0: 01 9B 01 21 00                                    ...!.           
```

#### Opcodes

```
  0: 0x00FB [0x03] Work_Zone[1] = 0*
  1: 0x0100 [0x02] IF !(Work_Zone[2] == 0*) GOTO 0x0110
  2: 0x0108 [0x03] ExtData[1]->WorkLocal[1] = 2500*
  3: 0x010D [0x01] GOTO 0x0140
  4: 0x0110 [0x02] IF !(Work_Zone[2] == 1*) GOTO 0x0120
  5: 0x0118 [0x03] ExtData[1]->WorkLocal[1] = 2500*
  6: 0x011D [0x01] GOTO 0x0140
  7: 0x0120 [0x02] IF !(Work_Zone[2] == 2*) GOTO 0x0130
  8: 0x0128 [0x03] ExtData[1]->WorkLocal[1] = 2500*
  9: 0x012D [0x01] GOTO 0x0140
 10: 0x0130 [0x02] IF !(Work_Zone[2] == 3*) GOTO 0x0140
 11: 0x0138 [0x03] ExtData[1]->WorkLocal[1] = 2500*
 12: 0x013D [0x01] GOTO 0x0140

SUBROUTINE_0140:
 13: 0x0140 [0x03] ExtData[1]->WorkLocal[2] = Work_Zone[3]
 14: 0x0145 [0x03] ExtData[1]->WorkLocal[3] = Work_Zone[4]
 15: 0x014A [0x41] ExtData[1]->WorkLocal[9] = Work_Zone[5] (bits 0*-5*)
 16: 0x0153 [0x41] ExtData[1]->WorkLocal[10] = Work_Zone[5] (bits 6*-11*)
 17: 0x015C [0x07] ExtData[1]->WorkLocal[10] += 64*
 18: 0x0161 [0x41] ExtData[1]->WorkLocal[13] = Work_Zone[6] (bits 0*-15*)
 19: 0x016A [0x41] ExtData[1]->WorkLocal[18] = Work_Zone[6] (bits 16*-31*)
 20: 0x0173 [0x03] ExtData[1]->WorkLocal[33] = Work_Zone[7]
 21: 0x0178 [0x41] ExtData[1]->WorkLocal[11] = Work_Zone[8] (bits 0*-5*)
 22: 0x0181 [0x41] ExtData[1]->WorkLocal[12] = Work_Zone[8] (bits 6*-11*)
 23: 0x018A [0x07] ExtData[1]->WorkLocal[12] += 64*
 24: 0x018F [0x05] ExtData[1]->WorkLocal[4] = 1
 25: 0x0192 [0x1E] EventEntity looks at LocalPlayer and starts talking
 26: 0x0197 [0x1D] PRINT_EVENT_MESSAGE(message_id=11522*)
    → "Welcome to the Pit. If you have any questions regarding Pankration, I'm the one to ask."
 27: 0x019A [0x23] WAIT_FOR_DIALOG_INTERACTION

SUBROUTINE_019B:
 28: 0x019B [0x02] IF !(ExtData[1]->WorkLocal[4] == 0*) GOTO 0x02B3
 29: 0x01A3 [0x24] CREATE_DIALOG(message_id=11536*, default_option=0*, option_flags=0*)
    → "May I help you? [I'd like to cancel my application./I'd like to confirm my opponent./I'd like to confirm the match time./I'd like information on Pankration./I'd like a rule refresher./No, but thank you for asking.]"
 30: 0x01AA [0x25] WAIT_DIALOG_SELECT()
 31: 0x01AB [0x02] IF !(Work_Zone[0] == 0*) GOTO 0x01EB
 32: 0x01B3 [0x03] Work_Zone[2] = ExtData[1]->WorkLocal[11]
 33: 0x01B8 [0x03] Work_Zone[3] = ExtData[1]->WorkLocal[12]
 34: 0x01BD [0x1D] PRINT_EVENT_MESSAGE(message_id=11540*)
    → "$0$0 is currently registered for an upcoming match. Do you really want to cancel its entry?"
 35: 0x01C0 [0x23] WAIT_FOR_DIALOG_INTERACTION
 36: 0x01C1 [0x24] CREATE_DIALOG(message_id=11541*, default_option=1*, option_flags=0*)
    → "Final answer... [Yes./No.]"
 37: 0x01C8 [0x25] WAIT_DIALOG_SELECT()
 38: 0x01C9 [0x02] IF !(Work_Zone[0] == 0*) GOTO 0x01DD
 39: 0x01D1 [0x42] SET_CLI_EVENT_CANCEL_DATA()
 40: 0x01D2 [0x03] Work_Zone[1] = 1*
 41: 0x01D7 [0x06] ExtData[1]->WorkLocal[4] = 0
 42: 0x01DA [0x01] GOTO 0x01E8
 43: 0x01DD [0x02] IF !(Work_Zone[0] == 1*) GOTO 0x01E8
 44: 0x01E5 [0x01] GOTO 0x01E8

SUBROUTINE_01E8:
 45: 0x01E8 [0x01] GOTO 0x02B0
 46: 0x01EB [0x02] IF !(Work_Zone[0] == 1*) GOTO 0x022A
 47: 0x01F3 [0x3E] IF !(Work_Zone[9] bit 1*) GOTO 0x0201
 48: 0x01FA [0x1D] PRINT_EVENT_MESSAGE(message_id=11547*)
    → "I'm sorry. It seems your opponent has yet to complete the registration process."
 49: 0x01FD [0x23] WAIT_FOR_DIALOG_INTERACTION
 50: 0x01FE [0x01] GOTO 0x0227
 51: 0x0201 [0x03] Work_Zone[2] = ExtData[1]->WorkLocal[9]
 52: 0x0206 [0x03] Work_Zone[3] = ExtData[1]->WorkLocal[10]
 53: 0x020B [0x03] Work_Zone[4] = ExtData[1]->WorkLocal[13]
 54: 0x0210 [0x03] Work_Zone[5] = ExtData[1]->WorkLocal[18]
 55: 0x0215 [0x3E] IF !(Work_Zone[9] bit 3*) GOTO 0x0223
 56: 0x021C [0x1D] PRINT_EVENT_MESSAGE(message_id=11548*)
    → "`Opponent Data` Name: $0$0 Family: $2 Level: Approximately $3"
 57: 0x021F [0x23] WAIT_FOR_DIALOG_INTERACTION
 58: 0x0220 [0x01] GOTO 0x0227
 59: 0x0223 [0x1D] PRINT_EVENT_MESSAGE(message_id=11545*)
    → "`Opponent Data` Name: $0$0 Family: $2 Level: $3"
 60: 0x0226 [0x23] WAIT_FOR_DIALOG_INTERACTION

SUBROUTINE_0227:
 61: 0x0227 [0x01] GOTO 0x02B0
 62: 0x022A [0x02] IF !(Work_Zone[0] == 2*) GOTO 0x023E
 63: 0x0232 [0x03] Work_Zone[2] = ExtData[1]->WorkLocal[33]
 64: 0x0237 [0x1D] PRINT_EVENT_MESSAGE(message_id=11549*)
    → "Your match is scheduled to begin at ( Earth Time)."
 65: 0x023A [0x23] WAIT_FOR_DIALOG_INTERACTION
 66: 0x023B [0x01] GOTO 0x02B0
 67: 0x023E [0x02] IF !(Work_Zone[0] == 3*) GOTO 0x025A
 68: 0x0246 [0x1D] PRINT_EVENT_MESSAGE(message_id=11526*)
    → "Pankration (pan-krat-ee-on) is a battle venue in which you can "pit" your very own monsters against the monsters of others."
 69: 0x0249 [0x23] WAIT_FOR_DIALOG_INTERACTION
 70: 0x024A [0x1D] PRINT_EVENT_MESSAGE(message_id=11527*)
    → "By participating in these battles, your monster will gain experience points and become stronger, just as you do when fighting fiends."
 71: 0x024D [0x23] WAIT_FOR_DIALOG_INTERACTION
 72: 0x024E [0x03] Work_Zone[4] = ExtData[1]->WorkLocal[3]
 73: 0x0253 [0x1D] PRINT_EVENT_MESSAGE(message_id=11528*)
    → "After each battle, you must speak with a registration official in order to reflect the results of the previous match. Battle results will only be saved for $2 [day/days] (Earth time), after which they will become void, so it is recommended that you complete this task immediately after a match has ended."
 74: 0x0256 [0x23] WAIT_FOR_DIALOG_INTERACTION
 75: 0x0257 [0x01] GOTO 0x02B0
 76: 0x025A [0x02] IF !(Work_Zone[0] == 4*) GOTO 0x02A2
 77: 0x0262 [0x02] IF !(ExtData[1]->WorkLocal[2] == 0*) GOTO 0x0275
 78: 0x026A [0x1D] PRINT_EVENT_MESSAGE(message_id=11529*)
    → "Currently, we are holding a Pankration tournament."
 79: 0x026D [0x23] WAIT_FOR_DIALOG_INTERACTION
 80: 0x026E [0x1D] PRINT_EVENT_MESSAGE(message_id=11530*)
    → "The rules are simple--only the winners of their respective battles advance to the next fight, with the final monster standing declared the victor."
 81: 0x0271 [0x23] WAIT_FOR_DIALOG_INTERACTION
 82: 0x0272 [0x01] GOTO 0x029F
 83: 0x0275 [0x02] IF !(ExtData[1]->WorkLocal[2] == 1*) GOTO 0x028C
 84: 0x027D [0x1D] PRINT_EVENT_MESSAGE(message_id=11531*)
    → "Currently, we are conducting versus battles."
 85: 0x0280 [0x23] WAIT_FOR_DIALOG_INTERACTION
 86: 0x0281 [0x1D] PRINT_EVENT_MESSAGE(message_id=11532*)
    → "These are basic matches pitting one monster against another, with the winner taking all."
 87: 0x0284 [0x23] WAIT_FOR_DIALOG_INTERACTION
 88: 0x0285 [0x1D] PRINT_EVENT_MESSAGE(message_id=11533*)
    → "If you apply as a two-person party, you will be able to reserve a registration slot for him or her, ensuring that your monster will be pit against that of your party member."
 89: 0x0288 [0x23] WAIT_FOR_DIALOG_INTERACTION
 90: 0x0289 [0x01] GOTO 0x029F
 91: 0x028C [0x02] IF !(ExtData[1]->WorkLocal[2] == 2*) GOTO 0x029F
 92: 0x0294 [0x1D] PRINT_EVENT_MESSAGE(message_id=11534*)
    → "Currently, we are conducting group battles."
 93: 0x0297 [0x23] WAIT_FOR_DIALOG_INTERACTION
 94: 0x0298 [0x1D] PRINT_EVENT_MESSAGE(message_id=11535*)
    → "Group battles are three-on-three melees which require adventurers to register small parties of monsters to fight in the Pit."
 95: 0x029B [0x23] WAIT_FOR_DIALOG_INTERACTION
 96: 0x029C [0x01] GOTO 0x029F

SUBROUTINE_029F:
 97: 0x029F [0x01] GOTO 0x02B0
 98: 0x02A2 [0x02] IF !(Work_Zone[0] == 5*) GOTO 0x02B0
 99: 0x02AA [0x06] ExtData[1]->WorkLocal[4] = 0
100: 0x02AD [0x01] GOTO 0x02B0

SUBROUTINE_02B0:
101: 0x02B0 [0x01] GOTO 0x019B
102: 0x02B3 [0x21] END_EVENT
103: 0x02B4 [0x00] END_REQSTACK()
```

### Event 202

#### Metadata

| Field        | Value     |
|--------------|-----------|
| Entrypoint   | 0x02B5    |
| Data Size    | 345 bytes |
| Instructions | 84        |

```
      00 01 02 03 04 05 06 07  08 09 0A 0B 0C 0D 0E 0F
      -- -- -- -- -- -- -- --  -- -- -- -- -- -- -- --
02B0:                02 02 10  00 80 80 C5 02 03 01 00       ...........
02C0: 01 80 01 F5 02 02 02 10  02 80 80 D5 02 03 01 00  ................
02D0: 01 80 01 F5 02 02 02 10  03 80 80 E5 02 03 01 00  ................
02E0: 01 80 01 F5 02 02 02 10  04 80 80 F5 02 03 01 00  ................
02F0: 01 80 01 F5 02 03 02 00  03 10 03 03 00 04 10 41  ...............A
0300: 00 80 13 80 05 10 09 00  41 14 80 15 80 05 10 0A  ........A.......
0310: 00 07 0A 00 16 80 41 00  80 17 80 06 10 0D 00 41  ......A........A
0320: 18 80 19 80 06 10 12 00  03 21 00 07 10 05 04 00  .........!......
0330: 1E F0 FF FF 7F 1D 05 80  23 02 04 00 00 80 01 0C  ........#.......
0340: 04 24 22 80 00 80 00 80  25 02 00 10 00 80 00 58  .$".....%......X
0350: 03 1D 23 80 23 01 09 04  02 00 10 02 80 00 97 03  ..#.#...........
0360: 3E 09 10 02 80 6E 03 1D  1D 80 23 01 94 03 03 02  >....n....#.....
0370: 10 09 00 03 03 10 0A 00  03 04 10 0D 00 03 05 10  ................
0380: 12 00 3E 09 10 04 80 90  03 1D 1E 80 23 01 94 03  ..>.........#...
0390: 1D 1F 80 23 01 09 04 02  00 10 03 80 00 B3 03 1D  ...#............
03A0: 09 80 23 1D 0A 80 23 03  04 10 03 00 1D 0B 80 23  ..#...#........#
03B0: 01 09 04 02 00 10 04 80  00 FB 03 02 02 00 00 80  ................
03C0: 80 CE 03 1D 0C 80 23 1D  0D 80 23 01 F8 03 02 02  ......#...#.....
03D0: 00 02 80 80 E5 03 1D 0E  80 23 1D 0F 80 23 1D 10  .........#...#..
03E0: 80 23 01 F8 03 02 02 00  03 80 80 F8 03 1D 11 80  .#..............
03F0: 23 1D 12 80 23 01 F8 03  01 09 04 02 00 10 21 80  #...#.........!.
0400: 00 09 04 06 04 00 01 09  04 01 39 03 21 00        ..........9.!.  
```

#### Opcodes

```
  0: 0x02B5 [0x02] IF !(Work_Zone[2] == 0*) GOTO 0x02C5
  1: 0x02BD [0x03] ExtData[1]->WorkLocal[1] = 2500*
  2: 0x02C2 [0x01] GOTO 0x02F5
  3: 0x02C5 [0x02] IF !(Work_Zone[2] == 1*) GOTO 0x02D5
  4: 0x02CD [0x03] ExtData[1]->WorkLocal[1] = 2500*
  5: 0x02D2 [0x01] GOTO 0x02F5
  6: 0x02D5 [0x02] IF !(Work_Zone[2] == 2*) GOTO 0x02E5
  7: 0x02DD [0x03] ExtData[1]->WorkLocal[1] = 2500*
  8: 0x02E2 [0x01] GOTO 0x02F5
  9: 0x02E5 [0x02] IF !(Work_Zone[2] == 3*) GOTO 0x02F5
 10: 0x02ED [0x03] ExtData[1]->WorkLocal[1] = 2500*
 11: 0x02F2 [0x01] GOTO 0x02F5

SUBROUTINE_02F5:
 12: 0x02F5 [0x03] ExtData[1]->WorkLocal[2] = Work_Zone[3]
 13: 0x02FA [0x03] ExtData[1]->WorkLocal[3] = Work_Zone[4]
 14: 0x02FF [0x41] ExtData[1]->WorkLocal[9] = Work_Zone[5] (bits 0*-5*)
 15: 0x0308 [0x41] ExtData[1]->WorkLocal[10] = Work_Zone[5] (bits 6*-11*)
 16: 0x0311 [0x07] ExtData[1]->WorkLocal[10] += 64*
 17: 0x0316 [0x41] ExtData[1]->WorkLocal[13] = Work_Zone[6] (bits 0*-15*)
 18: 0x031F [0x41] ExtData[1]->WorkLocal[18] = Work_Zone[6] (bits 16*-31*)
 19: 0x0328 [0x03] ExtData[1]->WorkLocal[33] = Work_Zone[7]
 20: 0x032D [0x05] ExtData[1]->WorkLocal[4] = 1
 21: 0x0330 [0x1E] EventEntity looks at LocalPlayer and starts talking
 22: 0x0335 [0x1D] PRINT_EVENT_MESSAGE(message_id=11522*)
    → "Welcome to the Pit. If you have any questions regarding Pankration, I'm the one to ask."
 23: 0x0338 [0x23] WAIT_FOR_DIALOG_INTERACTION

SUBROUTINE_0339:
 24: 0x0339 [0x02] IF !(ExtData[1]->WorkLocal[4] == 0*) GOTO 0x040C
 25: 0x0341 [0x24] CREATE_DIALOG(message_id=11537*, default_option=0*, option_flags=0*)
    → "May I help you? [I'd like to cancel my application./I'd like to confirm my opponent./I'd like information on Pankration./I'd like a rule refresher./No, but thank you for asking.]"
 26: 0x0348 [0x25] WAIT_DIALOG_SELECT()
 27: 0x0349 [0x02] IF !(Work_Zone[0] == 0*) GOTO 0x0358
 28: 0x0351 [0x1D] PRINT_EVENT_MESSAGE(message_id=11539*)
    → "I'm sorry, but monsters currently participating in Pankration battles cannot be removed from their matches."
 29: 0x0354 [0x23] WAIT_FOR_DIALOG_INTERACTION
 30: 0x0355 [0x01] GOTO 0x0409
 31: 0x0358 [0x02] IF !(Work_Zone[0] == 1*) GOTO 0x0397
 32: 0x0360 [0x3E] IF !(Work_Zone[9] bit 1*) GOTO 0x036E
 33: 0x0367 [0x1D] PRINT_EVENT_MESSAGE(message_id=11547*)
    → "I'm sorry. It seems your opponent has yet to complete the registration process."
 34: 0x036A [0x23] WAIT_FOR_DIALOG_INTERACTION
 35: 0x036B [0x01] GOTO 0x0394
 36: 0x036E [0x03] Work_Zone[2] = ExtData[1]->WorkLocal[9]
 37: 0x0373 [0x03] Work_Zone[3] = ExtData[1]->WorkLocal[10]
 38: 0x0378 [0x03] Work_Zone[4] = ExtData[1]->WorkLocal[13]
 39: 0x037D [0x03] Work_Zone[5] = ExtData[1]->WorkLocal[18]
 40: 0x0382 [0x3E] IF !(Work_Zone[9] bit 3*) GOTO 0x0390
 41: 0x0389 [0x1D] PRINT_EVENT_MESSAGE(message_id=11548*)
    → "`Opponent Data` Name: $0$0 Family: $2 Level: Approximately $3"
 42: 0x038C [0x23] WAIT_FOR_DIALOG_INTERACTION
 43: 0x038D [0x01] GOTO 0x0394
 44: 0x0390 [0x1D] PRINT_EVENT_MESSAGE(message_id=11545*)
    → "`Opponent Data` Name: $0$0 Family: $2 Level: $3"
 45: 0x0393 [0x23] WAIT_FOR_DIALOG_INTERACTION

SUBROUTINE_0394:
 46: 0x0394 [0x01] GOTO 0x0409
 47: 0x0397 [0x02] IF !(Work_Zone[0] == 2*) GOTO 0x03B3
 48: 0x039F [0x1D] PRINT_EVENT_MESSAGE(message_id=11526*)
    → "Pankration (pan-krat-ee-on) is a battle venue in which you can "pit" your very own monsters against the monsters of others."
 49: 0x03A2 [0x23] WAIT_FOR_DIALOG_INTERACTION
 50: 0x03A3 [0x1D] PRINT_EVENT_MESSAGE(message_id=11527*)
    → "By participating in these battles, your monster will gain experience points and become stronger, just as you do when fighting fiends."
 51: 0x03A6 [0x23] WAIT_FOR_DIALOG_INTERACTION
 52: 0x03A7 [0x03] Work_Zone[4] = ExtData[1]->WorkLocal[3]
 53: 0x03AC [0x1D] PRINT_EVENT_MESSAGE(message_id=11528*)
    → "After each battle, you must speak with a registration official in order to reflect the results of the previous match. Battle results will only be saved for $2 [day/days] (Earth time), after which they will become void, so it is recommended that you complete this task immediately after a match has ended."
 54: 0x03AF [0x23] WAIT_FOR_DIALOG_INTERACTION
 55: 0x03B0 [0x01] GOTO 0x0409
 56: 0x03B3 [0x02] IF !(Work_Zone[0] == 3*) GOTO 0x03FB
 57: 0x03BB [0x02] IF !(ExtData[1]->WorkLocal[2] == 0*) GOTO 0x03CE
 58: 0x03C3 [0x1D] PRINT_EVENT_MESSAGE(message_id=11529*)
    → "Currently, we are holding a Pankration tournament."
 59: 0x03C6 [0x23] WAIT_FOR_DIALOG_INTERACTION
 60: 0x03C7 [0x1D] PRINT_EVENT_MESSAGE(message_id=11530*)
    → "The rules are simple--only the winners of their respective battles advance to the next fight, with the final monster standing declared the victor."
 61: 0x03CA [0x23] WAIT_FOR_DIALOG_INTERACTION
 62: 0x03CB [0x01] GOTO 0x03F8
 63: 0x03CE [0x02] IF !(ExtData[1]->WorkLocal[2] == 1*) GOTO 0x03E5
 64: 0x03D6 [0x1D] PRINT_EVENT_MESSAGE(message_id=11531*)
    → "Currently, we are conducting versus battles."
 65: 0x03D9 [0x23] WAIT_FOR_DIALOG_INTERACTION
 66: 0x03DA [0x1D] PRINT_EVENT_MESSAGE(message_id=11532*)
    → "These are basic matches pitting one monster against another, with the winner taking all."
 67: 0x03DD [0x23] WAIT_FOR_DIALOG_INTERACTION
 68: 0x03DE [0x1D] PRINT_EVENT_MESSAGE(message_id=11533*)
    → "If you apply as a two-person party, you will be able to reserve a registration slot for him or her, ensuring that your monster will be pit against that of your party member."
 69: 0x03E1 [0x23] WAIT_FOR_DIALOG_INTERACTION
 70: 0x03E2 [0x01] GOTO 0x03F8
 71: 0x03E5 [0x02] IF !(ExtData[1]->WorkLocal[2] == 2*) GOTO 0x03F8
 72: 0x03ED [0x1D] PRINT_EVENT_MESSAGE(message_id=11534*)
    → "Currently, we are conducting group battles."
 73: 0x03F0 [0x23] WAIT_FOR_DIALOG_INTERACTION
 74: 0x03F1 [0x1D] PRINT_EVENT_MESSAGE(message_id=11535*)
    → "Group battles are three-on-three melees which require adventurers to register small parties of monsters to fight in the Pit."
 75: 0x03F4 [0x23] WAIT_FOR_DIALOG_INTERACTION
 76: 0x03F5 [0x01] GOTO 0x03F8

SUBROUTINE_03F8:
 77: 0x03F8 [0x01] GOTO 0x0409
 78: 0x03FB [0x02] IF !(Work_Zone[0] == 4*) GOTO 0x0409
 79: 0x0403 [0x06] ExtData[1]->WorkLocal[4] = 0
 80: 0x0406 [0x01] GOTO 0x0409

SUBROUTINE_0409:
 81: 0x0409 [0x01] GOTO 0x0339
 82: 0x040C [0x21] END_EVENT
 83: 0x040D [0x00] END_REQSTACK()
```

### Event 203

#### Metadata

| Field        | Value     |
|--------------|-----------|
| Entrypoint   | 0x040E    |
| Data Size    | 294 bytes |
| Instructions | 76        |

```
      00 01 02 03 04 05 06 07  08 09 0A 0B 0C 0D 0E 0F
      -- -- -- -- -- -- -- --  -- -- -- -- -- -- -- --
0400:                                            03 01                ..
0410: 10 00 80 02 02 10 00 80  80 23 04 03 01 00 01 80  .........#......
0420: 01 53 04 02 02 10 02 80  80 33 04 03 01 00 01 80  .S.......3......
0430: 01 53 04 02 02 10 03 80  80 43 04 03 01 00 01 80  .S.......C......
0440: 01 53 04 02 02 10 04 80  80 53 04 03 01 00 01 80  .S.......S......
0450: 01 53 04 02 05 10 00 80  01 63 04 03 05 10 03 80  .S.......c......
0460: 01 68 04 03 05 10 02 80  03 02 00 03 10 03 03 00  .h..............
0470: 04 10 05 04 00 1E F0 FF  FF 7F 1D 05 80 23 02 04  .............#..
0480: 00 00 80 01 32 05 03 02  10 01 00 24 24 80 00 80  ....2......$$...
0490: 05 10 25 02 00 10 00 80  00 A2 04 1D 25 80 23 01  ..%.........%.#.
04A0: 2F 05 02 00 10 02 80 00  BD 04 1D 26 80 23 1D 27  /..........&.#.'
04B0: 80 23 03 01 10 02 80 06  04 00 01 2F 05 02 00 10  .#........./....
04C0: 03 80 00 D9 04 1D 09 80  23 1D 0A 80 23 03 04 10  ........#...#...
04D0: 03 00 1D 0B 80 23 01 2F  05 02 00 10 04 80 00 21  .....#./.......!
04E0: 05 02 02 00 00 80 80 F4  04 1D 0C 80 23 1D 0D 80  ............#...
04F0: 23 01 1E 05 02 02 00 02  80 80 0B 05 1D 0E 80 23  #..............#
0500: 1D 0F 80 23 1D 10 80 23  01 1E 05 02 02 00 03 80  ...#...#........
0510: 80 1E 05 1D 11 80 23 1D  12 80 23 01 1E 05 01 2F  ......#...#..../
0520: 05 02 00 10 21 80 00 2F  05 06 04 00 01 2F 05 01  ....!../...../..
0530: 7E 04 21 00                                       ~.!.            
```

#### Opcodes

```
  0: 0x040E [0x03] Work_Zone[1] = 0*
  1: 0x0413 [0x02] IF !(Work_Zone[2] == 0*) GOTO 0x0423
  2: 0x041B [0x03] ExtData[1]->WorkLocal[1] = 2500*
  3: 0x0420 [0x01] GOTO 0x0453
  4: 0x0423 [0x02] IF !(Work_Zone[2] == 1*) GOTO 0x0433
  5: 0x042B [0x03] ExtData[1]->WorkLocal[1] = 2500*
  6: 0x0430 [0x01] GOTO 0x0453
  7: 0x0433 [0x02] IF !(Work_Zone[2] == 2*) GOTO 0x0443
  8: 0x043B [0x03] ExtData[1]->WorkLocal[1] = 2500*
  9: 0x0440 [0x01] GOTO 0x0453
 10: 0x0443 [0x02] IF !(Work_Zone[2] == 3*) GOTO 0x0453
 11: 0x044B [0x03] ExtData[1]->WorkLocal[1] = 2500*
 12: 0x0450 [0x01] GOTO 0x0453

SUBROUTINE_0453:
 13: 0x0453 [0x02] IF !(Work_Zone[5] == 0*) GOTO 0x0463
 14: 0x045B [0x03] Work_Zone[5] = 2*
 15: 0x0460 [0x01] GOTO 0x0468
 16: 0x0463 [0x03] Work_Zone[5] = 1*

SUBROUTINE_0468:
 17: 0x0468 [0x03] ExtData[1]->WorkLocal[2] = Work_Zone[3]
 18: 0x046D [0x03] ExtData[1]->WorkLocal[3] = Work_Zone[4]
 19: 0x0472 [0x05] ExtData[1]->WorkLocal[4] = 1
 20: 0x0475 [0x1E] EventEntity looks at LocalPlayer and starts talking
 21: 0x047A [0x1D] PRINT_EVENT_MESSAGE(message_id=11522*)
    → "Welcome to the Pit. If you have any questions regarding Pankration, I'm the one to ask."
 22: 0x047D [0x23] WAIT_FOR_DIALOG_INTERACTION

SUBROUTINE_047E:
 23: 0x047E [0x02] IF !(ExtData[1]->WorkLocal[4] == 0*) GOTO 0x0532
 24: 0x0486 [0x03] Work_Zone[2] = ExtData[1]->WorkLocal[1]
 25: 0x048B [0x24] CREATE_DIALOG(message_id=11538*, default_option=0*, option_flags=Work_Zone[5])
    → "May I help you? [I'd like to reflect match results./I lost my $0./I'd like information on Pankration./I'd like a rule refresher./No, I'm finished here.]"
 26: 0x0492 [0x25] WAIT_DIALOG_SELECT()
 27: 0x0493 [0x02] IF !(Work_Zone[0] == 0*) GOTO 0x04A2
 28: 0x049B [0x1D] PRINT_EVENT_MESSAGE(message_id=11550*)
    → "Trade me the $0 used in the last match and I can tell you how your monster fared."
 29: 0x049E [0x23] WAIT_FOR_DIALOG_INTERACTION
 30: 0x049F [0x01] GOTO 0x052F
 31: 0x04A2 [0x02] IF !(Work_Zone[0] == 1*) GOTO 0x04BD
 32: 0x04AA [0x1D] PRINT_EVENT_MESSAGE(message_id=11551*)
    → "I'm sorry, but before you can create a new $0, we must first nullify all records of the matches played by your "misplaced" monster."
 33: 0x04AD [0x23] WAIT_FOR_DIALOG_INTERACTION
 34: 0x04AE [0x1D] PRINT_EVENT_MESSAGE(message_id=11552*)
    → "... ... Alright. The data has been erased from our books."
 35: 0x04B1 [0x23] WAIT_FOR_DIALOG_INTERACTION
 36: 0x04B2 [0x03] Work_Zone[1] = 1*
 37: 0x04B7 [0x06] ExtData[1]->WorkLocal[4] = 0
 38: 0x04BA [0x01] GOTO 0x052F
 39: 0x04BD [0x02] IF !(Work_Zone[0] == 2*) GOTO 0x04D9
 40: 0x04C5 [0x1D] PRINT_EVENT_MESSAGE(message_id=11526*)
    → "Pankration (pan-krat-ee-on) is a battle venue in which you can "pit" your very own monsters against the monsters of others."
 41: 0x04C8 [0x23] WAIT_FOR_DIALOG_INTERACTION
 42: 0x04C9 [0x1D] PRINT_EVENT_MESSAGE(message_id=11527*)
    → "By participating in these battles, your monster will gain experience points and become stronger, just as you do when fighting fiends."
 43: 0x04CC [0x23] WAIT_FOR_DIALOG_INTERACTION
 44: 0x04CD [0x03] Work_Zone[4] = ExtData[1]->WorkLocal[3]
 45: 0x04D2 [0x1D] PRINT_EVENT_MESSAGE(message_id=11528*)
    → "After each battle, you must speak with a registration official in order to reflect the results of the previous match. Battle results will only be saved for $2 [day/days] (Earth time), after which they will become void, so it is recommended that you complete this task immediately after a match has ended."
 46: 0x04D5 [0x23] WAIT_FOR_DIALOG_INTERACTION
 47: 0x04D6 [0x01] GOTO 0x052F
 48: 0x04D9 [0x02] IF !(Work_Zone[0] == 3*) GOTO 0x0521
 49: 0x04E1 [0x02] IF !(ExtData[1]->WorkLocal[2] == 0*) GOTO 0x04F4
 50: 0x04E9 [0x1D] PRINT_EVENT_MESSAGE(message_id=11529*)
    → "Currently, we are holding a Pankration tournament."
 51: 0x04EC [0x23] WAIT_FOR_DIALOG_INTERACTION
 52: 0x04ED [0x1D] PRINT_EVENT_MESSAGE(message_id=11530*)
    → "The rules are simple--only the winners of their respective battles advance to the next fight, with the final monster standing declared the victor."
 53: 0x04F0 [0x23] WAIT_FOR_DIALOG_INTERACTION
 54: 0x04F1 [0x01] GOTO 0x051E
 55: 0x04F4 [0x02] IF !(ExtData[1]->WorkLocal[2] == 1*) GOTO 0x050B
 56: 0x04FC [0x1D] PRINT_EVENT_MESSAGE(message_id=11531*)
    → "Currently, we are conducting versus battles."
 57: 0x04FF [0x23] WAIT_FOR_DIALOG_INTERACTION
 58: 0x0500 [0x1D] PRINT_EVENT_MESSAGE(message_id=11532*)
    → "These are basic matches pitting one monster against another, with the winner taking all."
 59: 0x0503 [0x23] WAIT_FOR_DIALOG_INTERACTION
 60: 0x0504 [0x1D] PRINT_EVENT_MESSAGE(message_id=11533*)
    → "If you apply as a two-person party, you will be able to reserve a registration slot for him or her, ensuring that your monster will be pit against that of your party member."
 61: 0x0507 [0x23] WAIT_FOR_DIALOG_INTERACTION
 62: 0x0508 [0x01] GOTO 0x051E
 63: 0x050B [0x02] IF !(ExtData[1]->WorkLocal[2] == 2*) GOTO 0x051E
 64: 0x0513 [0x1D] PRINT_EVENT_MESSAGE(message_id=11534*)
    → "Currently, we are conducting group battles."
 65: 0x0516 [0x23] WAIT_FOR_DIALOG_INTERACTION
 66: 0x0517 [0x1D] PRINT_EVENT_MESSAGE(message_id=11535*)
    → "Group battles are three-on-three melees which require adventurers to register small parties of monsters to fight in the Pit."
 67: 0x051A [0x23] WAIT_FOR_DIALOG_INTERACTION
 68: 0x051B [0x01] GOTO 0x051E

SUBROUTINE_051E:
 69: 0x051E [0x01] GOTO 0x052F
 70: 0x0521 [0x02] IF !(Work_Zone[0] == 4*) GOTO 0x052F
 71: 0x0529 [0x06] ExtData[1]->WorkLocal[4] = 0
 72: 0x052C [0x01] GOTO 0x052F

SUBROUTINE_052F:
 73: 0x052F [0x01] GOTO 0x047E
 74: 0x0532 [0x21] END_EVENT
 75: 0x0533 [0x00] END_REQSTACK()
```

### Event 204

#### Metadata

| Field        | Value     |
|--------------|-----------|
| Entrypoint   | 0x0534    |
| Data Size    | 106 bytes |
| Instructions | 26        |

```
      00 01 02 03 04 05 06 07  08 09 0A 0B 0C 0D 0E 0F
      -- -- -- -- -- -- -- --  -- -- -- -- -- -- -- --
0530:             42 03 01 10  00 80 1E F0 FF FF 7F 03      B...........
0540: 09 00 02 10 03 0A 00 03  10 03 0D 00 04 10 03 12  ................
0550: 00 05 10 03 02 10 09 00  03 03 10 0A 00 03 04 10  ................
0560: 0D 00 03 05 10 12 00 1D  28 80 23 1D 29 80 23 03  ........(.#.).#.
0570: 02 17 02 80 24 2A 80 02  80 00 80 25 02 00 10 00  ....$*.....%....
0580: 80 00 8C 05 03 01 10 02  80 01 9C 05 02 00 10 02  ................
0590: 80 00 9C 05 03 01 10 00  80 01 9C 05 21 00        ............!.  
```

#### Opcodes

```
  0: 0x0534 [0x42] SET_CLI_EVENT_CANCEL_DATA()
  1: 0x0535 [0x03] Work_Zone[1] = 0*
  2: 0x053A [0x1E] EventEntity looks at LocalPlayer and starts talking
  3: 0x053F [0x03] ExtData[1]->WorkLocal[9] = Work_Zone[2]
  4: 0x0544 [0x03] ExtData[1]->WorkLocal[10] = Work_Zone[3]
  5: 0x0549 [0x03] ExtData[1]->WorkLocal[13] = Work_Zone[4]
  6: 0x054E [0x03] ExtData[1]->WorkLocal[18] = Work_Zone[5]
  7: 0x0553 [0x03] Work_Zone[2] = ExtData[1]->WorkLocal[9]
  8: 0x0558 [0x03] Work_Zone[3] = ExtData[1]->WorkLocal[10]
  9: 0x055D [0x03] Work_Zone[4] = ExtData[1]->WorkLocal[13]
 10: 0x0562 [0x03] Work_Zone[5] = ExtData[1]->WorkLocal[18]
 11: 0x0567 [0x1D] PRINT_EVENT_MESSAGE(message_id=11564*)
    → "`Registration Application` Name: $0$0 Family: $2 Level: $3"
 12: 0x056A [0x23] WAIT_FOR_DIALOG_INTERACTION
 13: 0x056B [0x1D] PRINT_EVENT_MESSAGE(message_id=11565*)
    → "Upon application submission, an opponent and a match time will automatically be set."
 14: 0x056E [0x23] WAIT_FOR_DIALOG_INTERACTION
 15: 0x056F [0x03] Work_Zone_1700[2] = 1*
 16: 0x0574 [0x24] CREATE_DIALOG(message_id=11566*, default_option=1*, option_flags=0*)
    → "Submit application? [Yes. ($10 jetton fee required)/No.]"
 17: 0x057B [0x25] WAIT_DIALOG_SELECT()
 18: 0x057C [0x02] IF !(Work_Zone[0] == 0*) GOTO 0x058C
 19: 0x0584 [0x03] Work_Zone[1] = 1*
 20: 0x0589 [0x01] GOTO 0x059C
 21: 0x058C [0x02] IF !(Work_Zone[0] == 1*) GOTO 0x059C
 22: 0x0594 [0x03] Work_Zone[1] = 0*
 23: 0x0599 [0x01] GOTO 0x059C

SUBROUTINE_059C:
 24: 0x059C [0x21] END_EVENT
 25: 0x059D [0x00] END_REQSTACK()
```

### Event 205

#### Metadata

| Field        | Value     |
|--------------|-----------|
| Entrypoint   | 0x059E    |
| Data Size    | 339 bytes |
| Instructions | 75        |

```
      00 01 02 03 04 05 06 07  08 09 0A 0B 0C 0D 0E 0F
      -- -- -- -- -- -- -- --  -- -- -- -- -- -- -- --
0590:                                            42 1E                B.
05A0: F0 FF FF 7F 41 2B 80 19  80 02 10 06 00 03 07 00  ....A+..........
05B0: 09 10 41 2C 80 2D 80 02  10 08 00 1A 1C 08 03 02  ..A,.-..........
05C0: 10 09 00 03 03 10 0A 00  03 04 10 06 00 1D 2E 80  ................
05D0: 23 03 04 10 07 00 48 2F  80 23 07 0E 00 07 00 15  #.....H/.#......
05E0: 0E 00 30 80 02 0E 00 00  80 02 0F 06 02 12 00 31  ..0............1
05F0: 80 03 0F 06 07 12 00 0E  00 02 12 00 31 80 02 06  ............1...
0600: 06 03 12 00 31 80 03 04  10 12 00 48 32 80 23 3E  ....1......H2.#>
0610: 08 00 00 80 2F 06 02 14  00 31 80 03 2F 06 03 05  ..../....1../...
0620: 10 13 00 03 06 10 14 00  0B 06 10 48 33 80 23 3E  ...........H3.#>
0630: 08 00 02 80 4F 06 02 16  00 31 80 03 4F 06 03 05  ....O....1..O...
0640: 10 15 00 03 06 10 16 00  0B 06 10 48 33 80 23 3E  ...........H3.#>
0650: 08 00 03 80 6F 06 02 18  00 31 80 03 6F 06 03 05  ....o....1..o...
0660: 10 17 00 03 06 10 18 00  0B 06 10 48 33 80 23 3E  ...........H3.#>
0670: 08 00 04 80 8F 06 02 1A  00 31 80 03 8F 06 03 05  .........1......
0680: 10 19 00 03 06 10 1A 00  0B 06 10 48 33 80 23 3E  ...........H3.#>
0690: 08 00 21 80 AF 06 02 1C  00 31 80 03 AF 06 03 05  ..!......1......
06A0: 10 1B 00 03 06 10 1C 00  0B 06 10 48 33 80 23 3E  ...........H3.#>
06B0: 08 00 13 80 CF 06 02 1E  00 31 80 03 CF 06 03 05  .........1......
06C0: 10 1D 00 03 06 10 1E 00  0B 06 10 48 33 80 23 3E  ...........H3.#>
06D0: 08 00 14 80 EF 06 02 20  00 31 80 03 EF 06 03 05  ....... .1......
06E0: 10 1F 00 03 06 10 20 00  0B 06 10 48 33 80 23 21  ...... ....H3.#!
06F0: 00                                                .               
```

#### Opcodes

```
  0: 0x059E [0x42] SET_CLI_EVENT_CANCEL_DATA()
  1: 0x059F [0x1E] EventEntity looks at LocalPlayer and starts talking
  2: 0x05A4 [0x41] ExtData[1]->WorkLocal[6] = Work_Zone[2] (bits 30*-31*)
  3: 0x05AD [0x03] ExtData[1]->WorkLocal[7] = Work_Zone[9]
  4: 0x05B2 [0x41] ExtData[1]->WorkLocal[8] = Work_Zone[2] (bits 23*-29*)
  5: 0x05BB [0x1A] CALL_SUBROUTINE(address=0x081C)
  6: 0x05BE [0x03] Work_Zone[2] = ExtData[1]->WorkLocal[9]
  7: 0x05C3 [0x03] Work_Zone[3] = ExtData[1]->WorkLocal[10]
  8: 0x05C8 [0x03] Work_Zone[4] = ExtData[1]->WorkLocal[6]
  9: 0x05CD [0x1D] PRINT_EVENT_MESSAGE(message_id=11553*)
    → "[I'm sorry,/Congratulations!/Well, it seems] $0$7807067as defeated in its previous match.../ was victorious in its previous match!/'s last match was a draw.]"
 10: 0x05D0 [0x23] WAIT_FOR_DIALOG_INTERACTION
 11: 0x05D1 [0x03] Work_Zone[4] = ExtData[1]->WorkLocal[7]
 12: 0x05D6 [0x48] [System] [11554*]:
    → "$0$0 gained $2 [experience point/experience points]."
 13: 0x05D9 [0x23] WAIT_FOR_DIALOG_INTERACTION
 14: 0x05DA [0x07] ExtData[1]->WorkLocal[14] += ExtData[1]->WorkLocal[7]
 15: 0x05DF [0x15] ExtData[1]->WorkLocal[14] /= 200*
 16: 0x05E4 [0x02] IF !(ExtData[1]->WorkLocal[14] <= 0*) GOTO 0x060F
 17: 0x05EC [0x02] IF !(ExtData[1]->WorkLocal[18] >= 50*) GOTO 0x060F
 18: 0x05F4 [0x07] ExtData[1]->WorkLocal[18] += ExtData[1]->WorkLocal[14]
 19: 0x05F9 [0x02] IF !(ExtData[1]->WorkLocal[18] <= 50*) GOTO 0x0606
 20: 0x0601 [0x03] ExtData[1]->WorkLocal[18] = 50*
 21: 0x0606 [0x03] Work_Zone[4] = ExtData[1]->WorkLocal[18]
 22: 0x060B [0x48] [System] [11555*]:
    → "$0$0 has attained level $2!"
 23: 0x060E [0x23] WAIT_FOR_DIALOG_INTERACTION
 24: 0x060F [0x3E] IF !(ExtData[1]->WorkLocal[8] bit 0*) GOTO 0x062F
 25: 0x0616 [0x02] IF !(ExtData[1]->WorkLocal[20] >= 50*) GOTO 0x062F
 26: 0x061E [0x03] Work_Zone[5] = ExtData[1]->WorkLocal[19]
 27: 0x0623 [0x03] Work_Zone[6] = ExtData[1]->WorkLocal[20]
 28: 0x0628 [0x0B] Work_Zone[6]++
 29: 0x062B [0x48] [System] [11556*]:
    → "The feral skill "" is now level $4!"
 30: 0x062E [0x23] WAIT_FOR_DIALOG_INTERACTION
 31: 0x062F [0x3E] IF !(ExtData[1]->WorkLocal[8] bit 1*) GOTO 0x064F
 32: 0x0636 [0x02] IF !(ExtData[1]->WorkLocal[22] >= 50*) GOTO 0x064F
 33: 0x063E [0x03] Work_Zone[5] = ExtData[1]->WorkLocal[21]
 34: 0x0643 [0x03] Work_Zone[6] = ExtData[1]->WorkLocal[22]
 35: 0x0648 [0x0B] Work_Zone[6]++
 36: 0x064B [0x48] [System] [11556*]:
    → "The feral skill "" is now level $4!"
 37: 0x064E [0x23] WAIT_FOR_DIALOG_INTERACTION
 38: 0x064F [0x3E] IF !(ExtData[1]->WorkLocal[8] bit 2*) GOTO 0x066F
 39: 0x0656 [0x02] IF !(ExtData[1]->WorkLocal[24] >= 50*) GOTO 0x066F
 40: 0x065E [0x03] Work_Zone[5] = ExtData[1]->WorkLocal[23]
 41: 0x0663 [0x03] Work_Zone[6] = ExtData[1]->WorkLocal[24]
 42: 0x0668 [0x0B] Work_Zone[6]++
 43: 0x066B [0x48] [System] [11556*]:
    → "The feral skill "" is now level $4!"
 44: 0x066E [0x23] WAIT_FOR_DIALOG_INTERACTION
 45: 0x066F [0x3E] IF !(ExtData[1]->WorkLocal[8] bit 3*) GOTO 0x068F
 46: 0x0676 [0x02] IF !(ExtData[1]->WorkLocal[26] >= 50*) GOTO 0x068F
 47: 0x067E [0x03] Work_Zone[5] = ExtData[1]->WorkLocal[25]
 48: 0x0683 [0x03] Work_Zone[6] = ExtData[1]->WorkLocal[26]
 49: 0x0688 [0x0B] Work_Zone[6]++
 50: 0x068B [0x48] [System] [11556*]:
    → "The feral skill "" is now level $4!"
 51: 0x068E [0x23] WAIT_FOR_DIALOG_INTERACTION
 52: 0x068F [0x3E] IF !(ExtData[1]->WorkLocal[8] bit 4*) GOTO 0x06AF
 53: 0x0696 [0x02] IF !(ExtData[1]->WorkLocal[28] >= 50*) GOTO 0x06AF
 54: 0x069E [0x03] Work_Zone[5] = ExtData[1]->WorkLocal[27]
 55: 0x06A3 [0x03] Work_Zone[6] = ExtData[1]->WorkLocal[28]
 56: 0x06A8 [0x0B] Work_Zone[6]++
 57: 0x06AB [0x48] [System] [11556*]:
    → "The feral skill "" is now level $4!"
 58: 0x06AE [0x23] WAIT_FOR_DIALOG_INTERACTION
 59: 0x06AF [0x3E] IF !(ExtData[1]->WorkLocal[8] bit 5*) GOTO 0x06CF
 60: 0x06B6 [0x02] IF !(ExtData[1]->WorkLocal[30] >= 50*) GOTO 0x06CF
 61: 0x06BE [0x03] Work_Zone[5] = ExtData[1]->WorkLocal[29]
 62: 0x06C3 [0x03] Work_Zone[6] = ExtData[1]->WorkLocal[30]
 63: 0x06C8 [0x0B] Work_Zone[6]++
 64: 0x06CB [0x48] [System] [11556*]:
    → "The feral skill "" is now level $4!"
 65: 0x06CE [0x23] WAIT_FOR_DIALOG_INTERACTION
 66: 0x06CF [0x3E] IF !(ExtData[1]->WorkLocal[8] bit 6*) GOTO 0x06EF
 67: 0x06D6 [0x02] IF !(ExtData[1]->WorkLocal[32] >= 50*) GOTO 0x06EF
 68: 0x06DE [0x03] Work_Zone[5] = ExtData[1]->WorkLocal[31]
 69: 0x06E3 [0x03] Work_Zone[6] = ExtData[1]->WorkLocal[32]
 70: 0x06E8 [0x0B] Work_Zone[6]++
 71: 0x06EB [0x48] [System] [11556*]:
    → "The feral skill "" is now level $4!"
 72: 0x06EE [0x23] WAIT_FOR_DIALOG_INTERACTION
 73: 0x06EF [0x21] END_EVENT
 74: 0x06F0 [0x00] END_REQSTACK()
```

### Event 207

#### Metadata

| Field        | Value    |
|--------------|----------|
| Entrypoint   | 0x06F1   |
| Data Size    | 65 bytes |
| Instructions | 21       |

```
      00 01 02 03 04 05 06 07  08 09 0A 0B 0C 0D 0E 0F
      -- -- -- -- -- -- -- --  -- -- -- -- -- -- -- --
06F0:    42 1E F0 FF FF 7F 1D  34 80 23 1D 35 80 23 24   B......4.#.5.#$
0700: 36 80 02 80 00 80 25 02  00 10 00 80 00 1C 07 42  6.....%........B
0710: 03 01 10 02 80 1D 37 80  23 01 30 07 02 00 10 02  ......7.#.0.....
0720: 80 00 30 07 03 01 10 00  80 1D 38 80 23 01 30 07  ..0.......8.#.0.
0730: 21 00                                             !.              
```

#### Opcodes

```
  0: 0x06F1 [0x42] SET_CLI_EVENT_CANCEL_DATA()
  1: 0x06F2 [0x1E] EventEntity looks at LocalPlayer and starts talking
  2: 0x06F7 [0x1D] PRINT_EVENT_MESSAGE(message_id=11558*)
    → "I'm sorry, but I don't seem to have the results of any matches featuring that monster. Either its most recent match just ended and the results are still being tallied, or the data has been lost."
  3: 0x06FA [0x23] WAIT_FOR_DIALOG_INTERACTION
  4: 0x06FB [0x1D] PRINT_EVENT_MESSAGE(message_id=11559*)
    → "You have the option to either wait for the results to arrive, or cancel the results of the match completely."
  5: 0x06FE [0x23] WAIT_FOR_DIALOG_INTERACTION
  6: 0x06FF [0x24] CREATE_DIALOG(message_id=11560*, default_option=1*, option_flags=0*)
    → "Which do you choose? [Cancel the results./I'll wait a little longer.]"
  7: 0x0706 [0x25] WAIT_DIALOG_SELECT()
  8: 0x0707 [0x02] IF !(Work_Zone[0] == 0*) GOTO 0x071C
  9: 0x070F [0x42] SET_CLI_EVENT_CANCEL_DATA()
 10: 0x0710 [0x03] Work_Zone[1] = 1*
 11: 0x0715 [0x1D] PRINT_EVENT_MESSAGE(message_id=11561*)
    → "Understood. The results of your monster's last match have been erased from our official records."
 12: 0x0718 [0x23] WAIT_FOR_DIALOG_INTERACTION
 13: 0x0719 [0x01] GOTO 0x0730
 14: 0x071C [0x02] IF !(Work_Zone[0] == 1*) GOTO 0x0730
 15: 0x0724 [0x03] Work_Zone[1] = 0*
 16: 0x0729 [0x1D] PRINT_EVENT_MESSAGE(message_id=11562*)
    → "We will continue looking for your results, but if we have not found them in a few minutes, chances are they were eaten by one of the monsters."
 17: 0x072C [0x23] WAIT_FOR_DIALOG_INTERACTION
 18: 0x072D [0x01] GOTO 0x0730

SUBROUTINE_0730:
 19: 0x0730 [0x21] END_EVENT
 20: 0x0731 [0x00] END_REQSTACK()
```

### Event 206

#### Metadata

| Field        | Value     |
|--------------|-----------|
| Entrypoint   | 0x0732    |
| Data Size    | 117 bytes |
| Instructions | 28        |

```
      00 01 02 03 04 05 06 07  08 09 0A 0B 0C 0D 0E 0F
      -- -- -- -- -- -- -- --  -- -- -- -- -- -- -- --
0730:       42 03 01 10 00 80  1E F0 FF FF 7F 03 09 00    B.............
0740: 02 10 03 0A 00 03 10 03  0D 00 04 10 03 12 00 05  ................
0750: 10 03 02 10 09 00 03 03  10 0A 00 03 04 10 0D 00  ................
0760: 03 05 10 12 00 1D 28 80  23 1D 39 80 23 03 02 17  ......(.#.9.#...
0770: 02 80 24 3A 80 00 80 00  80 25 02 00 10 00 80 00  ..$:.....%......
0780: 85 07 01 A5 07 02 00 10  02 80 00 95 07 03 01 10  ................
0790: 03 80 01 A5 07 02 00 10  03 80 00 A5 07 03 01 10  ................
07A0: 02 80 01 A5 07 21 00                              .....!.         
```

#### Opcodes

```
  0: 0x0732 [0x42] SET_CLI_EVENT_CANCEL_DATA()
  1: 0x0733 [0x03] Work_Zone[1] = 0*
  2: 0x0738 [0x1E] EventEntity looks at LocalPlayer and starts talking
  3: 0x073D [0x03] ExtData[1]->WorkLocal[9] = Work_Zone[2]
  4: 0x0742 [0x03] ExtData[1]->WorkLocal[10] = Work_Zone[3]
  5: 0x0747 [0x03] ExtData[1]->WorkLocal[13] = Work_Zone[4]
  6: 0x074C [0x03] ExtData[1]->WorkLocal[18] = Work_Zone[5]
  7: 0x0751 [0x03] Work_Zone[2] = ExtData[1]->WorkLocal[9]
  8: 0x0756 [0x03] Work_Zone[3] = ExtData[1]->WorkLocal[10]
  9: 0x075B [0x03] Work_Zone[4] = ExtData[1]->WorkLocal[13]
 10: 0x0760 [0x03] Work_Zone[5] = ExtData[1]->WorkLocal[18]
 11: 0x0765 [0x1D] PRINT_EVENT_MESSAGE(message_id=11564*)
    → "`Registration Application` Name: $0$0 Family: $2 Level: $3"
 12: 0x0768 [0x23] WAIT_FOR_DIALOG_INTERACTION
 13: 0x0769 [0x1D] PRINT_EVENT_MESSAGE(message_id=11572*)
    → "If you wish, I can also reserve a registration slot for your party member, thus ensuring that your monsters will be pit against one another. However, this may considerably delay the match starting time."
 14: 0x076C [0x23] WAIT_FOR_DIALOG_INTERACTION
 15: 0x076D [0x03] Work_Zone_1700[2] = 1*
 16: 0x0772 [0x24] CREATE_DIALOG(message_id=11573*, default_option=0*, option_flags=0*)
    → "Submit entry and reserve slot? [Quit./Yes. ($10 [jetton/jettons])/Submit entry only. ($10 [jetton/jettons])]"
 17: 0x0779 [0x25] WAIT_DIALOG_SELECT()
 18: 0x077A [0x02] IF !(Work_Zone[0] == 0*) GOTO 0x0785
 19: 0x0782 [0x01] GOTO 0x07A5
 20: 0x0785 [0x02] IF !(Work_Zone[0] == 1*) GOTO 0x0795
 21: 0x078D [0x03] Work_Zone[1] = 2*
 22: 0x0792 [0x01] GOTO 0x07A5
 23: 0x0795 [0x02] IF !(Work_Zone[0] == 2*) GOTO 0x07A5
 24: 0x079D [0x03] Work_Zone[1] = 1*
 25: 0x07A2 [0x01] GOTO 0x07A5

SUBROUTINE_07A5:
 26: 0x07A5 [0x21] END_EVENT
 27: 0x07A6 [0x00] END_REQSTACK()
```

### Event 208

#### Metadata

| Field        | Value     |
|--------------|-----------|
| Entrypoint   | 0x07A7    |
| Data Size    | 388 bytes |
| Instructions | 28        |

```
      00 01 02 03 04 05 06 07  08 09 0A 0B 0C 0D 0E 0F
      -- -- -- -- -- -- -- --  -- -- -- -- -- -- -- --
07A0:                      42  03 01 10 00 80 1E F0 FF         B........
07B0: FF 7F 03 09 00 02 10 03  0A 00 03 10 03 0D 00 04  ................
07C0: 10 03 12 00 05 10 03 02  10 09 00 03 03 10 0A 00  ................
07D0: 03 04 10 0D 00 03 05 10  12 00 1D 28 80 23 1D 3B  ...........(.#.;
07E0: 80 23 03 02 17 02 80 24  3C 80 02 80 00 80 25 02  .#.....$<.....%.
07F0: 00 10 00 80 00 FF 07 03  01 10 02 80 01 1A 08 02  ................
0800: 00 10 02 80 00 0A 08 01  1A 08 02 00 10 03 80 00  ................
0810: 1A 08 03 01 10 03 80 01  1A 08 21 00 41 00 80 13  ..........!.A...
0820: 80 03 10 09 00 41 14 80  15 80 03 10 0A 00 07 0A  .....A..........
0830: 00 16 80 41 3D 80 19 80  03 10 0E 00 41 00 80 04  ...A=.......A...
0840: 80 04 10 00 00 10 00 00  21 80 07 0E 00 00 00 41  ........!......A
0850: 21 80 15 80 04 10 0F 00  41 3E 80 17 80 04 10 10  !.......A>......
0860: 00 41 18 80 3F 80 04 10  11 00 41 40 80 41 80 04  .A..?.....A@.A..
0870: 10 12 00 41 42 80 19 80  04 10 13 00 41 00 80 14  ...AB.......A...
0880: 80 05 10 00 00 10 00 00  13 80 07 13 00 00 00 41  ...............A
0890: 43 80 44 80 05 10 14 00  41 45 80 46 80 05 10 15  C.D.....AE.F....
08A0: 00 41 41 80 19 80 05 10  16 00 41 00 80 00 80 06  .AA.......A.....
08B0: 10 00 00 10 00 00 14 80  07 16 00 00 00 41 02 80  .............A..
08C0: 3E 80 06 10 17 00 41 44  80 3F 80 06 10 18 00 41  >.....AD.?.....A
08D0: 40 80 19 80 06 10 19 00  41 00 80 14 80 07 10 1A  @.......A.......
08E0: 00 41 43 80 47 80 07 10  1B 00 41 3F 80 46 80 07  .AC.G.....A?.F..
08F0: 10 1C 00 41 41 80 19 80  07 10 1D 00 41 00 80 13  ...AA.......A...
0900: 80 08 10 00 00 10 00 00  14 80 07 1D 00 00 00 41  ...............A
0910: 14 80 3E 80 08 10 1E 00  41 44 80 48 80 08 10 1F  ..>.....AD.H....
0920: 00 41 46 80 19 80 08 10  20 00 1B                 .AF..... ..     
```

#### Opcodes

```
  0: 0x07A7 [0x42] SET_CLI_EVENT_CANCEL_DATA()
  1: 0x07A8 [0x03] Work_Zone[1] = 0*
  2: 0x07AD [0x1E] EventEntity looks at LocalPlayer and starts talking
  3: 0x07B2 [0x03] ExtData[1]->WorkLocal[9] = Work_Zone[2]
  4: 0x07B7 [0x03] ExtData[1]->WorkLocal[10] = Work_Zone[3]
  5: 0x07BC [0x03] ExtData[1]->WorkLocal[13] = Work_Zone[4]
  6: 0x07C1 [0x03] ExtData[1]->WorkLocal[18] = Work_Zone[5]
  7: 0x07C6 [0x03] Work_Zone[2] = ExtData[1]->WorkLocal[9]
  8: 0x07CB [0x03] Work_Zone[3] = ExtData[1]->WorkLocal[10]
  9: 0x07D0 [0x03] Work_Zone[4] = ExtData[1]->WorkLocal[13]
 10: 0x07D5 [0x03] Work_Zone[5] = ExtData[1]->WorkLocal[18]
 11: 0x07DA [0x1D] PRINT_EVENT_MESSAGE(message_id=11564*)
    → "`Registration Application` Name: $0$0 Family: $2 Level: $3"
 12: 0x07DD [0x23] WAIT_FOR_DIALOG_INTERACTION
 13: 0x07DE [0x1D] PRINT_EVENT_MESSAGE(message_id=11576*)
    → "Your party member has reserved you a registration slot. Would you like to submit your application for participation?"
 14: 0x07E1 [0x23] WAIT_FOR_DIALOG_INTERACTION
 15: 0x07E2 [0x03] Work_Zone_1700[2] = 1*
 16: 0x07E7 [0x24] CREATE_DIALOG(message_id=11577*, default_option=1*, option_flags=0*)
    → "Submit application? [Yes. ($10 jetton fee required)/No./Cancel reservation.]"
 17: 0x07EE [0x25] WAIT_DIALOG_SELECT()
 18: 0x07EF [0x02] IF !(Work_Zone[0] == 0*) GOTO 0x07FF
 19: 0x07F7 [0x03] Work_Zone[1] = 1*
 20: 0x07FC [0x01] GOTO 0x081A
 21: 0x07FF [0x02] IF !(Work_Zone[0] == 1*) GOTO 0x080A
 22: 0x0807 [0x01] GOTO 0x081A
 23: 0x080A [0x02] IF !(Work_Zone[0] == 2*) GOTO 0x081A
 24: 0x0812 [0x03] Work_Zone[1] = 2*
 25: 0x0817 [0x01] GOTO 0x081A

SUBROUTINE_081A:
 26: 0x081A [0x21] END_EVENT
 27: 0x081B [0x00] END_REQSTACK()
```

#### Data or dead code:

```
# Dead code (unreachable instructions):
     0x081C [0x41] ExtData[1]->WorkLocal[9] = Work_Zone[3] (bits 0*-5*)
     0x0825 [0x41] ExtData[1]->WorkLocal[10] = Work_Zone[3] (bits 6*-11*)
     0x082E [0x07] ExtData[1]->WorkLocal[10] += 64*
     0x0833 [0x41] ExtData[1]->WorkLocal[14] = Work_Zone[3] (bits 28*-31*)
     0x083C [0x41] ExtData[1]->WorkLocal[0] = Work_Zone[4] (bits 0*-3*)
     0x0845 [0x10] ExtData[1]->WorkLocal[0] <<= 4*
     0x084A [0x07] ExtData[1]->WorkLocal[14] += ExtData[1]->WorkLocal[0]
     0x084F [0x41] ExtData[1]->WorkLocal[15] = Work_Zone[4] (bits 4*-11*)
     0x0858 [0x41] ExtData[1]->WorkLocal[16] = Work_Zone[4] (bits 12*-15*)
     0x0861 [0x41] ExtData[1]->WorkLocal[17] = Work_Zone[4] (bits 16*-19*)
     0x086A [0x41] ExtData[1]->WorkLocal[18] = Work_Zone[4] (bits 20*-26*)
     0x0873 [0x41] ExtData[1]->WorkLocal[19] = Work_Zone[4] (bits 27*-31*)
     0x087C [0x41] ExtData[1]->WorkLocal[0] = Work_Zone[5] (bits 0*-6*)
     0x0885 [0x10] ExtData[1]->WorkLocal[0] <<= 5*
     0x088A [0x07] ExtData[1]->WorkLocal[19] += ExtData[1]->WorkLocal[0]
     0x088F [0x41] ExtData[1]->WorkLocal[20] = Work_Zone[5] (bits 7*-13*)
     0x0898 [0x41] ExtData[1]->WorkLocal[21] = Work_Zone[5] (bits 14*-25*)
     0x08A1 [0x41] ExtData[1]->WorkLocal[22] = Work_Zone[5] (bits 26*-31*)
     0x08AA [0x41] ExtData[1]->WorkLocal[0] = Work_Zone[6] (bits 0*-0*)
     0x08B3 [0x10] ExtData[1]->WorkLocal[0] <<= 6*
     0x08B8 [0x07] ExtData[1]->WorkLocal[22] += ExtData[1]->WorkLocal[0]
     0x08BD [0x41] ExtData[1]->WorkLocal[23] = Work_Zone[6] (bits 1*-12*)
     0x08C6 [0x41] ExtData[1]->WorkLocal[24] = Work_Zone[6] (bits 13*-19*)
     0x08CF [0x41] ExtData[1]->WorkLocal[25] = Work_Zone[6] (bits 20*-31*)
     0x08D8 [0x41] ExtData[1]->WorkLocal[26] = Work_Zone[7] (bits 0*-6*)
     0x08E1 [0x41] ExtData[1]->WorkLocal[27] = Work_Zone[7] (bits 7*-18*)
     0x08EA [0x41] ExtData[1]->WorkLocal[28] = Work_Zone[7] (bits 19*-25*)
     0x08F3 [0x41] ExtData[1]->WorkLocal[29] = Work_Zone[7] (bits 26*-31*)
     0x08FC [0x41] ExtData[1]->WorkLocal[0] = Work_Zone[8] (bits 0*-5*)
     0x0905 [0x10] ExtData[1]->WorkLocal[0] <<= 6*
     0x090A [0x07] ExtData[1]->WorkLocal[29] += ExtData[1]->WorkLocal[0]
     0x090F [0x41] ExtData[1]->WorkLocal[30] = Work_Zone[8] (bits 6*-12*)
     0x0918 [0x41] ExtData[1]->WorkLocal[31] = Work_Zone[8] (bits 13*-24*)
     0x0921 [0x41] ExtData[1]->WorkLocal[32] = Work_Zone[8] (bits 25*-31*)
     0x092A [0x1B] RETURN
```
