# 17068533 - Zhayard

## Common Data

| Field            | Value                  |
|------------------|------------------------|
| Zone             | The Colosseum (ID: 71) |
| Block Size       | 252 bytes              |
| Total Events     | 3                      |
| References Count | 15                     |

## List of Events

| Event ID              | Entrypoint   |   Size |   Instructions |
|-----------------------|--------------|--------|----------------|
| [65535](#event-65535) | 0x0000       |      1 |              1 |
| [504](#event-504)     | 0x0001       |     80 |             15 |
| [514](#event-514)     | 0x0051       |     80 |             15 |

## DAT References (imed_data)

|   Index | Hex Value   |   Dec Value |
|---------|-------------|-------------|
|       0 | 0x2DAC      |       11692 |
|       1 | 0x2DAD      |       11693 |
|       2 | 0x0001      |           1 |
|       3 | 0x0000      |           0 |
|       4 | 0x00C8      |         200 |
|       5 | 0x003C      |          60 |
|       6 | 0xFFF83B54  |  4294458196 |
|       7 | 0xA830      |       43056 |
|       8 | 0xFFFFF1F0  |  4294963696 |
|       9 | 0x0FF5      |        4085 |
|      10 | 0x2DAE      |       11694 |
|      11 | 0xFFF82A0A  |  4294453770 |
|      12 | 0xA6FA      |       42746 |
|      13 | 0xFFFFE890  |  4294961296 |
|      14 | 0x07ED      |        2029 |

## String References

- **11692**: From this area you may give orders to your monsters.
- **11693**: Do you wish to enter? [Yes./Not yet.]
- **11694**: Return through the gate?

## Events

### Event 65535

#### Metadata

| Field        | Value   |
|--------------|---------|
| Entrypoint   | 0x0000  |
| Data Size    | 1 bytes |
| Instructions | 1       |

```
      00 01 02 03 04 05 06 07  08 09 0A 0B 0C 0D 0E 0F
      -- -- -- -- -- -- -- --  -- -- -- -- -- -- -- --
0000: 00                                                .               
```

#### Opcodes

```
  0: 0x0000 [0x00] END_REQSTACK()
```

### Event 504

#### Metadata

| Field        | Value    |
|--------------|----------|
| Entrypoint   | 0x0001   |
| Data Size    | 80 bytes |
| Instructions | 15       |

```
      00 01 02 03 04 05 06 07  08 09 0A 0B 0C 0D 0E 0F
      -- -- -- -- -- -- -- --  -- -- -- -- -- -- -- --
0000:    1E F0 FF FF 7F 1D 00  80 23 24 01 80 02 80 03   ........#$.....
0010: 80 25 02 00 10 03 80 00  4F 00 42 45 04 80 F8 FF  .%......O.BE....
0020: FF 7F F8 FF FF 7F 66 64  6F 31 03 80 1C 05 80 47  ......fdo1.....G
0030: 00 06 80 07 80 08 80 09  80 47 01 45 04 80 F8 FF  .........G.E....
0040: FF 7F F8 FF FF 7F 66 64  69 31 03 80 01 4F 00 21  ......fdi1...O.!
0050: 00                                                .               
```

#### Opcodes

```
  0: 0x0001 [0x1E] EventEntity looks at LocalPlayer and starts talking
  1: 0x0006 [0x1D] PRINT_EVENT_MESSAGE(message_id=11692*)
    → "From this area you may give orders to your monsters."
  2: 0x0009 [0x23] WAIT_FOR_DIALOG_INTERACTION
  3: 0x000A [0x24] CREATE_DIALOG(message_id=11693*, default_option=1*, option_flags=0*)
    → "Do you wish to enter? [Yes./Not yet.]"
  4: 0x0011 [0x25] WAIT_DIALOG_SELECT()
  5: 0x0012 [0x02] IF !(Work_Zone[0] == 0*) GOTO 0x004F
  6: 0x001A [0x42] SET_CLI_EVENT_CANCEL_DATA()
  7: 0x001B [0x45] LOAD_SCHEDULED_TASK: Load scheduler "fdo1" with entities [EventEntity, EventEntity], work=[200*, 0*]
  8: 0x002C [0x1C] WAIT(60* ticks)
  9: 0x002F [0x47] UPDATE_PLAYER_POS(-509.100*, 43.056*, -3.600*, yaw=359.0°*)
 10: 0x0039 [0x47] WAIT_PLAYER_POS_UPDATE
 11: 0x003B [0x45] LOAD_SCHEDULED_TASK: Load scheduler "fdi1" with entities [EventEntity, EventEntity], work=[200*, 0*]
 12: 0x004C [0x01] GOTO 0x004F

SUBROUTINE_004F:
 13: 0x004F [0x21] END_EVENT
 14: 0x0050 [0x00] END_REQSTACK()
```

### Event 514

#### Metadata

| Field        | Value    |
|--------------|----------|
| Entrypoint   | 0x0051   |
| Data Size    | 80 bytes |
| Instructions | 15       |

```
      00 01 02 03 04 05 06 07  08 09 0A 0B 0C 0D 0E 0F
      -- -- -- -- -- -- -- --  -- -- -- -- -- -- -- --
0050:    1E F0 FF FF 7F 1D 0A  80 23 24 01 80 02 80 03   ........#$.....
0060: 80 25 02 00 10 03 80 00  9F 00 42 45 04 80 F8 FF  .%........BE....
0070: FF 7F F8 FF FF 7F 66 64  6F 31 03 80 1C 05 80 47  ......fdo1.....G
0080: 00 0B 80 0C 80 0D 80 0E  80 47 01 45 04 80 F8 FF  .........G.E....
0090: FF 7F F8 FF FF 7F 66 64  69 31 03 80 01 9F 00 21  ......fdi1.....!
00A0: 00                                                .               
```

#### Opcodes

```
  0: 0x0051 [0x1E] EventEntity looks at LocalPlayer and starts talking
  1: 0x0056 [0x1D] PRINT_EVENT_MESSAGE(message_id=11694*)
    → "Return through the gate?"
  2: 0x0059 [0x23] WAIT_FOR_DIALOG_INTERACTION
  3: 0x005A [0x24] CREATE_DIALOG(message_id=11693*, default_option=1*, option_flags=0*)
    → "Do you wish to enter? [Yes./Not yet.]"
  4: 0x0061 [0x25] WAIT_DIALOG_SELECT()
  5: 0x0062 [0x02] IF !(Work_Zone[0] == 0*) GOTO 0x009F
  6: 0x006A [0x42] SET_CLI_EVENT_CANCEL_DATA()
  7: 0x006B [0x45] LOAD_SCHEDULED_TASK: Load scheduler "fdo1" with entities [EventEntity, EventEntity], work=[200*, 0*]
  8: 0x007C [0x1C] WAIT(60* ticks)
  9: 0x007F [0x47] UPDATE_PLAYER_POS(-513.526*, 42.746*, -6.000*, yaw=178.3°*)
 10: 0x0089 [0x47] WAIT_PLAYER_POS_UPDATE
 11: 0x008B [0x45] LOAD_SCHEDULED_TASK: Load scheduler "fdi1" with entities [EventEntity, EventEntity], work=[200*, 0*]
 12: 0x009C [0x01] GOTO 0x009F

SUBROUTINE_009F:
 13: 0x009F [0x21] END_EVENT
 14: 0x00A0 [0x00] END_REQSTACK()
```
