# 17068562 - Salyadh

## Common Data

| Field            | Value                  |
|------------------|------------------------|
| Zone             | The Colosseum (ID: 71) |
| Block Size       | 2728 bytes             |
| Total Events     | 10                     |
| References Count | 73                     |

## List of Events

| Event ID              | Entrypoint   |   Size |   Instructions |
|-----------------------|--------------|--------|----------------|
| [65535](#event-65535) | 0x0000       |      1 |              1 |
| [400](#event-400)     | 0x0001       |    250 |             66 |
| [401](#event-401)     | 0x00FB       |    473 |            109 |
| [402](#event-402)     | 0x02D4       |    345 |             84 |
| [403](#event-403)     | 0x042D       |    294 |             76 |
| [404](#event-404)     | 0x0553       |    106 |             26 |
| [405](#event-405)     | 0x05BD       |    339 |             75 |
| [407](#event-407)     | 0x0710       |     65 |             21 |
| [406](#event-406)     | 0x0751       |    117 |             28 |
| [408](#event-408)     | 0x07C6       |    388 |             63 |

## DAT References (imed_data)

|   Index | Hex Value   |   Dec Value |
|---------|-------------|-------------|
|       0 | 0x0000      |           0 |
|       1 | 0x09C4      |        2500 |
|       2 | 0x0001      |           1 |
|       3 | 0x0002      |           2 |
|       4 | 0x0003      |           3 |
|       5 | 0x2D02      |       11522 |
|       6 | 0x2D03      |       11523 |
|       7 | 0x2D04      |       11524 |
|       8 | 0x2D05      |       11525 |
|       9 | 0x2D06      |       11526 |
|      10 | 0x2D07      |       11527 |
|      11 | 0x2D08      |       11528 |
|      12 | 0x2D09      |       11529 |
|      13 | 0x2D0A      |       11530 |
|      14 | 0x2D0B      |       11531 |
|      15 | 0x2D0C      |       11532 |
|      16 | 0x2D0D      |       11533 |
|      17 | 0x2D0E      |       11534 |
|      18 | 0x2D0F      |       11535 |
|      19 | 0x0005      |           5 |
|      20 | 0x0006      |           6 |
|      21 | 0x000B      |          11 |
|      22 | 0x0040      |          64 |
|      23 | 0x000F      |          15 |
|      24 | 0x0010      |          16 |
|      25 | 0x001F      |          31 |
|      26 | 0x2D10      |       11536 |
|      27 | 0x2D14      |       11540 |
|      28 | 0x2D15      |       11541 |
|      29 | 0x2D1B      |       11547 |
|      30 | 0x2D1C      |       11548 |
|      31 | 0x2D19      |       11545 |
|      32 | 0x2D1D      |       11549 |
|      33 | 0x0004      |           4 |
|      34 | 0x2D11      |       11537 |
|      35 | 0x2D13      |       11539 |
|      36 | 0x2D12      |       11538 |
|      37 | 0x2D1E      |       11550 |
|      38 | 0x2D1F      |       11551 |
|      39 | 0x2D20      |       11552 |
|      40 | 0x2D2C      |       11564 |
|      41 | 0x2D2D      |       11565 |
|      42 | 0x2D2E      |       11566 |
|      43 | 0x001E      |          30 |
|      44 | 0x0017      |          23 |
|      45 | 0x001D      |          29 |
|      46 | 0x2D21      |       11553 |
|      47 | 0x2D22      |       11554 |
|      48 | 0x00C8      |         200 |
|      49 | 0x0032      |          50 |
|      50 | 0x2D23      |       11555 |
|      51 | 0x2D24      |       11556 |
|      52 | 0x2D26      |       11558 |
|      53 | 0x2D27      |       11559 |
|      54 | 0x2D28      |       11560 |
|      55 | 0x2D29      |       11561 |
|      56 | 0x2D2A      |       11562 |
|      57 | 0x2D34      |       11572 |
|      58 | 0x2D35      |       11573 |
|      59 | 0x2D38      |       11576 |
|      60 | 0x2D39      |       11577 |
|      61 | 0x001C      |          28 |
|      62 | 0x000C      |          12 |
|      63 | 0x0013      |          19 |
|      64 | 0x0014      |          20 |
|      65 | 0x001A      |          26 |
|      66 | 0x001B      |          27 |
|      67 | 0x0007      |           7 |
|      68 | 0x000D      |          13 |
|      69 | 0x000E      |          14 |
|      70 | 0x0019      |          25 |
|      71 | 0x0012      |          18 |
|      72 | 0x0018      |          24 |

## String References

- **11522**: Welcome to the Pit. If you have any questions regarding Pankration, I'm the one to ask.
- **11523**: What do you need? [A Pankration application form./A Pankration rule refresher./Match Information./Nothing, actually.]
- **11524**: To participate, you must first trade me $0. % can be obtained at the counter opposite this one.
- **11525**: I will also require $10 [jetton/jettons] to process your application. Visit the attendant stationed at the Pit's entrance for more information on jettons.
- **11526**: Pankration (pan-krat-ee-on) is a battle venue in which you can "pit" your very own monsters against the monsters of others.
- **11527**: By participating in these battles, your monster will gain experience points and become stronger, just as you do when fighting fiends.
- **11528**: After each battle, you must speak with a registration official in order to reflect the results of the previous match. Battle results will only be saved for $2 [day/days] (Earth time), after which they will become void, so it is recommended that you complete this task immediately after a match has ended.
- **11529**: Currently, we are holding a Pankration tournament.
- **11530**: The rules are simple--only the winners of their respective battles advance to the next fight, with the final monster standing declared the victor.
- **11531**: Currently, we are conducting versus battles.
- **11532**: These are basic matches pitting one monster against another, with the winner taking all.
- **11533**: If you apply as a two-person party, you will be able to reserve a registration slot for him or her, ensuring that your monster will be pit against that of your party member.
- **11534**: Currently, we are conducting group battles.
- **11535**: Group battles are three-on-three melees which require adventurers to register small parties of monsters to fight in the Pit.
- **11536**: May I help you? [I'd like to cancel my application./I'd like to confirm my opponent./I'd like to confirm the match time./I'd like information on Pankration./I'd like a rule refresher./No, but thank you for asking.]
- **11537**: May I help you? [I'd like to cancel my application./I'd like to confirm my opponent./I'd like information on Pankration./I'd like a rule refresher./No, but thank you for asking.]
- **11538**: May I help you? [I'd like to reflect match results./I lost my $0./I'd like information on Pankration./I'd like a rule refresher./No, I'm finished here.]
- **11539**: I'm sorry, but monsters currently participating in Pankration battles cannot be removed from their matches.
- **11540**: $0$0 is currently registered for an upcoming match. Do you really want to cancel its entry?
- **11541**: Final answer... [Yes./No.]
- **11545**: \`Opponent Data\` Name: $0$0 Family: $2 Level: $3
- **11547**: I'm sorry. It seems your opponent has yet to complete the registration process.
- **11548**: \`Opponent Data\` Name: $0$0 Family: $2 Level: Approximately $3
- **11549**: Your match is scheduled to begin at ( Earth Time).
- **11550**: Trade me the $0 used in the last match and I can tell you how your monster fared.
- **11551**: I'm sorry, but before you can create a new $0, we must first nullify all records of the matches played by your "misplaced" monster.
- **11552**: ... ... Alright. The data has been erased from our books.
- **11553**: [I'm sorry,/Congratulations!/Well, it seems] $0$7807067as defeated in its previous match.../ was victorious in its previous match!/'s last match was a draw.]
- **11554**: $0$0 gained $2 [experience point/experience points].
- **11555**: $0$0 has attained level $2!
- **11556**: The feral skill "" is now level $4!
- **11558**: I'm sorry, but I don't seem to have the results of any matches featuring that monster. Either its most recent match just ended and the results are still being tallied, or the data has been lost.
- **11559**: You have the option to either wait for the results to arrive, or cancel the results of the match completely.
- **11560**: Which do you choose? [Cancel the results./I'll wait a little longer.]
- **11561**: Understood. The results of your monster's last match have been erased from our official records.
- **11562**: We will continue looking for your results, but if we have not found them in a few minutes, chances are they were eaten by one of the monsters.
- **11564**: \`Registration Application\` Name: $0$0 Family: $2 Level: $3
- **11565**: Upon application submission, an opponent and a match time will automatically be set.
- **11566**: Submit application? [Yes. ($10 jetton fee required)/No.]
- **11572**: If you wish, I can also reserve a registration slot for your party member, thus ensuring that your monsters will be pit against one another. However, this may considerably delay the match starting time.
- **11573**: Submit entry and reserve slot? [Quit./Yes. ($10 [jetton/jettons])/Submit entry only. ($10 [jetton/jettons])]
- **11576**: Your party member has reserved you a registration slot. Would you like to submit your application for participation?
- **11577**: Submit application? [Yes. ($10 jetton fee required)/No./Cancel reservation.]

## Events

### Event 65535

#### Metadata

| Field        | Value   |
|--------------|---------|
| Entrypoint   | 0x0000  |
| Data Size    | 1 bytes |
| Instructions | 1       |

```
      00 01 02 03 04 05 06 07  08 09 0A 0B 0C 0D 0E 0F
      -- -- -- -- -- -- -- --  -- -- -- -- -- -- -- --
0000: 00                                                .               
```

#### Opcodes

```
  0: 0x0000 [0x00] END_REQSTACK()
```

### Event 400

#### Metadata

| Field        | Value     |
|--------------|-----------|
| Entrypoint   | 0x0001    |
| Data Size    | 250 bytes |
| Instructions | 66        |

```
      00 01 02 03 04 05 06 07  08 09 0A 0B 0C 0D 0E 0F
      -- -- -- -- -- -- -- --  -- -- -- -- -- -- -- --
0000:    02 02 10 00 80 80 11  00 03 01 00 01 80 01 41   ..............A
0010: 00 02 02 10 02 80 80 21  00 03 01 00 01 80 01 41  .......!.......A
0020: 00 02 02 10 03 80 80 31  00 03 01 00 01 80 01 41  .......1.......A
0030: 00 02 02 10 04 80 80 41  00 03 01 00 01 80 01 41  .......A.......A
0040: 00 03 02 00 03 10 03 03  00 04 10 05 04 00 1E F0  ................
0050: FF FF 7F 1D 05 80 23 02  04 00 00 80 01 F9 00 24  ......#........$
0060: 06 80 00 80 00 80 25 02  00 10 00 80 00 84 00 03  ......%.........
0070: 02 10 01 00 03 02 17 02  80 1D 07 80 23 1D 08 80  ............#...
0080: 23 01 F6 00 02 00 10 02  80 00 A0 00 1D 09 80 23  #..............#
0090: 1D 0A 80 23 03 04 10 03  00 1D 0B 80 23 01 F6 00  ...#........#...
00A0: 02 00 10 03 80 00 E8 00  02 02 00 00 80 80 BB 00  ................
00B0: 1D 0C 80 23 1D 0D 80 23  01 E5 00 02 02 00 02 80  ...#...#........
00C0: 80 D2 00 1D 0E 80 23 1D  0F 80 23 1D 10 80 23 01  ......#...#...#.
00D0: E5 00 02 02 00 03 80 80  E5 00 1D 11 80 23 1D 12  .............#..
00E0: 80 23 01 E5 00 01 F6 00  02 00 10 04 80 00 F6 00  .#..............
00F0: 06 04 00 01 F6 00 01 57  00 21 00                 .......W.!.     
```

#### Opcodes

```
  0: 0x0001 [0x02] IF !(Work_Zone[2] == 0*) GOTO 0x0011
  1: 0x0009 [0x03] ExtData[1]->WorkLocal[1] = 2500*
  2: 0x000E [0x01] GOTO 0x0041
  3: 0x0011 [0x02] IF !(Work_Zone[2] == 1*) GOTO 0x0021
  4: 0x0019 [0x03] ExtData[1]->WorkLocal[1] = 2500*
  5: 0x001E [0x01] GOTO 0x0041
  6: 0x0021 [0x02] IF !(Work_Zone[2] == 2*) GOTO 0x0031
  7: 0x0029 [0x03] ExtData[1]->WorkLocal[1] = 2500*
  8: 0x002E [0x01] GOTO 0x0041
  9: 0x0031 [0x02] IF !(Work_Zone[2] == 3*) GOTO 0x0041
 10: 0x0039 [0x03] ExtData[1]->WorkLocal[1] = 2500*
 11: 0x003E [0x01] GOTO 0x0041

SUBROUTINE_0041:
 12: 0x0041 [0x03] ExtData[1]->WorkLocal[2] = Work_Zone[3]
 13: 0x0046 [0x03] ExtData[1]->WorkLocal[3] = Work_Zone[4]
 14: 0x004B [0x05] ExtData[1]->WorkLocal[4] = 1
 15: 0x004E [0x1E] EventEntity looks at LocalPlayer and starts talking
 16: 0x0053 [0x1D] PRINT_EVENT_MESSAGE(message_id=11522*)
    → "Welcome to the Pit. If you have any questions regarding Pankration, I'm the one to ask."
 17: 0x0056 [0x23] WAIT_FOR_DIALOG_INTERACTION

SUBROUTINE_0057:
 18: 0x0057 [0x02] IF !(ExtData[1]->WorkLocal[4] == 0*) GOTO 0x00F9
 19: 0x005F [0x24] CREATE_DIALOG(message_id=11523*, default_option=0*, option_flags=0*)
    → "What do you need? [A Pankration application form./A Pankration rule refresher./Match Information./Nothing, actually.]"
 20: 0x0066 [0x25] WAIT_DIALOG_SELECT()
 21: 0x0067 [0x02] IF !(Work_Zone[0] == 0*) GOTO 0x0084
 22: 0x006F [0x03] Work_Zone[2] = ExtData[1]->WorkLocal[1]
 23: 0x0074 [0x03] Work_Zone_1700[2] = 1*
 24: 0x0079 [0x1D] PRINT_EVENT_MESSAGE(message_id=11524*)
    → "To participate, you must first trade me $0. % can be obtained at the counter opposite this one."
 25: 0x007C [0x23] WAIT_FOR_DIALOG_INTERACTION
 26: 0x007D [0x1D] PRINT_EVENT_MESSAGE(message_id=11525*)
    → "I will also require $10 [jetton/jettons] to process your application. Visit the attendant stationed at the Pit's entrance for more information on jettons."
 27: 0x0080 [0x23] WAIT_FOR_DIALOG_INTERACTION
 28: 0x0081 [0x01] GOTO 0x00F6
 29: 0x0084 [0x02] IF !(Work_Zone[0] == 1*) GOTO 0x00A0
 30: 0x008C [0x1D] PRINT_EVENT_MESSAGE(message_id=11526*)
    → "Pankration (pan-krat-ee-on) is a battle venue in which you can "pit" your very own monsters against the monsters of others."
 31: 0x008F [0x23] WAIT_FOR_DIALOG_INTERACTION
 32: 0x0090 [0x1D] PRINT_EVENT_MESSAGE(message_id=11527*)
    → "By participating in these battles, your monster will gain experience points and become stronger, just as you do when fighting fiends."
 33: 0x0093 [0x23] WAIT_FOR_DIALOG_INTERACTION
 34: 0x0094 [0x03] Work_Zone[4] = ExtData[1]->WorkLocal[3]
 35: 0x0099 [0x1D] PRINT_EVENT_MESSAGE(message_id=11528*)
    → "After each battle, you must speak with a registration official in order to reflect the results of the previous match. Battle results will only be saved for $2 [day/days] (Earth time), after which they will become void, so it is recommended that you complete this task immediately after a match has ended."
 36: 0x009C [0x23] WAIT_FOR_DIALOG_INTERACTION
 37: 0x009D [0x01] GOTO 0x00F6
 38: 0x00A0 [0x02] IF !(Work_Zone[0] == 2*) GOTO 0x00E8
 39: 0x00A8 [0x02] IF !(ExtData[1]->WorkLocal[2] == 0*) GOTO 0x00BB
 40: 0x00B0 [0x1D] PRINT_EVENT_MESSAGE(message_id=11529*)
    → "Currently, we are holding a Pankration tournament."
 41: 0x00B3 [0x23] WAIT_FOR_DIALOG_INTERACTION
 42: 0x00B4 [0x1D] PRINT_EVENT_MESSAGE(message_id=11530*)
    → "The rules are simple--only the winners of their respective battles advance to the next fight, with the final monster standing declared the victor."
 43: 0x00B7 [0x23] WAIT_FOR_DIALOG_INTERACTION
 44: 0x00B8 [0x01] GOTO 0x00E5
 45: 0x00BB [0x02] IF !(ExtData[1]->WorkLocal[2] == 1*) GOTO 0x00D2
 46: 0x00C3 [0x1D] PRINT_EVENT_MESSAGE(message_id=11531*)
    → "Currently, we are conducting versus battles."
 47: 0x00C6 [0x23] WAIT_FOR_DIALOG_INTERACTION
 48: 0x00C7 [0x1D] PRINT_EVENT_MESSAGE(message_id=11532*)
    → "These are basic matches pitting one monster against another, with the winner taking all."
 49: 0x00CA [0x23] WAIT_FOR_DIALOG_INTERACTION
 50: 0x00CB [0x1D] PRINT_EVENT_MESSAGE(message_id=11533*)
    → "If you apply as a two-person party, you will be able to reserve a registration slot for him or her, ensuring that your monster will be pit against that of your party member."
 51: 0x00CE [0x23] WAIT_FOR_DIALOG_INTERACTION
 52: 0x00CF [0x01] GOTO 0x00E5
 53: 0x00D2 [0x02] IF !(ExtData[1]->WorkLocal[2] == 2*) GOTO 0x00E5
 54: 0x00DA [0x1D] PRINT_EVENT_MESSAGE(message_id=11534*)
    → "Currently, we are conducting group battles."
 55: 0x00DD [0x23] WAIT_FOR_DIALOG_INTERACTION
 56: 0x00DE [0x1D] PRINT_EVENT_MESSAGE(message_id=11535*)
    → "Group battles are three-on-three melees which require adventurers to register small parties of monsters to fight in the Pit."
 57: 0x00E1 [0x23] WAIT_FOR_DIALOG_INTERACTION
 58: 0x00E2 [0x01] GOTO 0x00E5

SUBROUTINE_00E5:
 59: 0x00E5 [0x01] GOTO 0x00F6
 60: 0x00E8 [0x02] IF !(Work_Zone[0] == 3*) GOTO 0x00F6
 61: 0x00F0 [0x06] ExtData[1]->WorkLocal[4] = 0
 62: 0x00F3 [0x01] GOTO 0x00F6

SUBROUTINE_00F6:
 63: 0x00F6 [0x01] GOTO 0x0057
 64: 0x00F9 [0x21] END_EVENT
 65: 0x00FA [0x00] END_REQSTACK()
```

### Event 401

#### Metadata

| Field        | Value     |
|--------------|-----------|
| Entrypoint   | 0x00FB    |
| Data Size    | 473 bytes |
| Instructions | 109       |

```
      00 01 02 03 04 05 06 07  08 09 0A 0B 0C 0D 0E 0F
      -- -- -- -- -- -- -- --  -- -- -- -- -- -- -- --
00F0:                                   03 01 10 00 80             .....
0100: 02 02 10 00 80 80 10 01  03 01 00 01 80 01 40 01  ..............@.
0110: 02 02 10 02 80 80 20 01  03 01 00 01 80 01 40 01  ...... .......@.
0120: 02 02 10 03 80 80 30 01  03 01 00 01 80 01 40 01  ......0.......@.
0130: 02 02 10 04 80 80 40 01  03 01 00 01 80 01 40 01  ......@.......@.
0140: 03 02 00 03 10 03 03 00  04 10 41 00 80 13 80 05  ..........A.....
0150: 10 09 00 41 14 80 15 80  05 10 0A 00 07 0A 00 16  ...A............
0160: 80 41 00 80 17 80 06 10  0D 00 41 18 80 19 80 06  .A........A.....
0170: 10 12 00 03 21 00 07 10  41 00 80 13 80 08 10 0B  ....!...A.......
0180: 00 41 14 80 15 80 08 10  0C 00 07 0C 00 16 80 05  .A..............
0190: 04 00 1E F0 FF FF 7F 1D  05 80 23 02 04 00 00 80  ..........#.....
01A0: 01 D2 02 03 00 00 03 80  3E 09 10 03 80 C2 01 03  ........>.......
01B0: 00 00 00 80 3C 00 00 02  80 02 80 3C 00 00 03 80  ....<......<....
01C0: 02 80 24 1A 80 00 80 00  00 25 02 00 10 00 80 00  ..$......%......
01D0: 0A 02 03 02 10 0B 00 03  03 10 0C 00 1D 1B 80 23  ...............#
01E0: 24 1C 80 02 80 00 80 25  02 00 10 00 80 00 FC 01  $......%........
01F0: 42 03 01 10 02 80 06 04  00 01 07 02 02 00 10 02  B...............
0200: 80 00 07 02 01 07 02 01  CF 02 02 00 10 02 80 00  ................
0210: 49 02 3E 09 10 02 80 20  02 1D 1D 80 23 01 46 02  I.>.... ....#.F.
0220: 03 02 10 09 00 03 03 10  0A 00 03 04 10 0D 00 03  ................
0230: 05 10 12 00 3E 09 10 04  80 42 02 1D 1E 80 23 01  ....>....B....#.
0240: 46 02 1D 1F 80 23 01 CF  02 02 00 10 03 80 00 5D  F....#.........]
0250: 02 03 02 10 21 00 1D 20  80 23 01 CF 02 02 00 10  ....!.. .#......
0260: 04 80 00 79 02 1D 09 80  23 1D 0A 80 23 03 04 10  ...y....#...#...
0270: 03 00 1D 0B 80 23 01 CF  02 02 00 10 21 80 00 C1  .....#......!...
0280: 02 02 02 00 00 80 80 94  02 1D 0C 80 23 1D 0D 80  ............#...
0290: 23 01 BE 02 02 02 00 02  80 80 AB 02 1D 0E 80 23  #..............#
02A0: 1D 0F 80 23 1D 10 80 23  01 BE 02 02 02 00 03 80  ...#...#........
02B0: 80 BE 02 1D 11 80 23 1D  12 80 23 01 BE 02 01 CF  ......#...#.....
02C0: 02 02 00 10 13 80 00 CF  02 06 04 00 01 CF 02 01  ................
02D0: 9B 01 21 00                                       ..!.            
```

#### Opcodes

```
  0: 0x00FB [0x03] Work_Zone[1] = 0*
  1: 0x0100 [0x02] IF !(Work_Zone[2] == 0*) GOTO 0x0110
  2: 0x0108 [0x03] ExtData[1]->WorkLocal[1] = 2500*
  3: 0x010D [0x01] GOTO 0x0140
  4: 0x0110 [0x02] IF !(Work_Zone[2] == 1*) GOTO 0x0120
  5: 0x0118 [0x03] ExtData[1]->WorkLocal[1] = 2500*
  6: 0x011D [0x01] GOTO 0x0140
  7: 0x0120 [0x02] IF !(Work_Zone[2] == 2*) GOTO 0x0130
  8: 0x0128 [0x03] ExtData[1]->WorkLocal[1] = 2500*
  9: 0x012D [0x01] GOTO 0x0140
 10: 0x0130 [0x02] IF !(Work_Zone[2] == 3*) GOTO 0x0140
 11: 0x0138 [0x03] ExtData[1]->WorkLocal[1] = 2500*
 12: 0x013D [0x01] GOTO 0x0140

SUBROUTINE_0140:
 13: 0x0140 [0x03] ExtData[1]->WorkLocal[2] = Work_Zone[3]
 14: 0x0145 [0x03] ExtData[1]->WorkLocal[3] = Work_Zone[4]
 15: 0x014A [0x41] ExtData[1]->WorkLocal[9] = Work_Zone[5] (bits 0*-5*)
 16: 0x0153 [0x41] ExtData[1]->WorkLocal[10] = Work_Zone[5] (bits 6*-11*)
 17: 0x015C [0x07] ExtData[1]->WorkLocal[10] += 64*
 18: 0x0161 [0x41] ExtData[1]->WorkLocal[13] = Work_Zone[6] (bits 0*-15*)
 19: 0x016A [0x41] ExtData[1]->WorkLocal[18] = Work_Zone[6] (bits 16*-31*)
 20: 0x0173 [0x03] ExtData[1]->WorkLocal[33] = Work_Zone[7]
 21: 0x0178 [0x41] ExtData[1]->WorkLocal[11] = Work_Zone[8] (bits 0*-5*)
 22: 0x0181 [0x41] ExtData[1]->WorkLocal[12] = Work_Zone[8] (bits 6*-11*)
 23: 0x018A [0x07] ExtData[1]->WorkLocal[12] += 64*
 24: 0x018F [0x05] ExtData[1]->WorkLocal[4] = 1
 25: 0x0192 [0x1E] EventEntity looks at LocalPlayer and starts talking
 26: 0x0197 [0x1D] PRINT_EVENT_MESSAGE(message_id=11522*)
    → "Welcome to the Pit. If you have any questions regarding Pankration, I'm the one to ask."
 27: 0x019A [0x23] WAIT_FOR_DIALOG_INTERACTION

SUBROUTINE_019B:
 28: 0x019B [0x02] IF !(ExtData[1]->WorkLocal[4] == 0*) GOTO 0x02D2
 29: 0x01A3 [0x03] ExtData[1]->WorkLocal[0] = 2*
 30: 0x01A8 [0x3E] IF !(Work_Zone[9] bit 2*) GOTO 0x01C2
 31: 0x01AF [0x03] ExtData[1]->WorkLocal[0] = 0*
 32: 0x01B4 [0x3C] SET_BIT_FLAG_CONDITIONAL(target_work_offset=ExtData[1]->WorkLocal[0], bit_index_work_offset=1*, condition_work_offset=1*)
 33: 0x01BB [0x3C] SET_BIT_FLAG_CONDITIONAL(target_work_offset=ExtData[1]->WorkLocal[0], bit_index_work_offset=2*, condition_work_offset=1*)
 34: 0x01C2 [0x24] CREATE_DIALOG(message_id=11536*, default_option=0*, option_flags=ExtData[1]->WorkLocal[0])
    → "May I help you? [I'd like to cancel my application./I'd like to confirm my opponent./I'd like to confirm the match time./I'd like information on Pankration./I'd like a rule refresher./No, but thank you for asking.]"
 35: 0x01C9 [0x25] WAIT_DIALOG_SELECT()
 36: 0x01CA [0x02] IF !(Work_Zone[0] == 0*) GOTO 0x020A
 37: 0x01D2 [0x03] Work_Zone[2] = ExtData[1]->WorkLocal[11]
 38: 0x01D7 [0x03] Work_Zone[3] = ExtData[1]->WorkLocal[12]
 39: 0x01DC [0x1D] PRINT_EVENT_MESSAGE(message_id=11540*)
    → "$0$0 is currently registered for an upcoming match. Do you really want to cancel its entry?"
 40: 0x01DF [0x23] WAIT_FOR_DIALOG_INTERACTION
 41: 0x01E0 [0x24] CREATE_DIALOG(message_id=11541*, default_option=1*, option_flags=0*)
    → "Final answer... [Yes./No.]"
 42: 0x01E7 [0x25] WAIT_DIALOG_SELECT()
 43: 0x01E8 [0x02] IF !(Work_Zone[0] == 0*) GOTO 0x01FC
 44: 0x01F0 [0x42] SET_CLI_EVENT_CANCEL_DATA()
 45: 0x01F1 [0x03] Work_Zone[1] = 1*
 46: 0x01F6 [0x06] ExtData[1]->WorkLocal[4] = 0
 47: 0x01F9 [0x01] GOTO 0x0207
 48: 0x01FC [0x02] IF !(Work_Zone[0] == 1*) GOTO 0x0207
 49: 0x0204 [0x01] GOTO 0x0207

SUBROUTINE_0207:
 50: 0x0207 [0x01] GOTO 0x02CF
 51: 0x020A [0x02] IF !(Work_Zone[0] == 1*) GOTO 0x0249
 52: 0x0212 [0x3E] IF !(Work_Zone[9] bit 1*) GOTO 0x0220
 53: 0x0219 [0x1D] PRINT_EVENT_MESSAGE(message_id=11547*)
    → "I'm sorry. It seems your opponent has yet to complete the registration process."
 54: 0x021C [0x23] WAIT_FOR_DIALOG_INTERACTION
 55: 0x021D [0x01] GOTO 0x0246
 56: 0x0220 [0x03] Work_Zone[2] = ExtData[1]->WorkLocal[9]
 57: 0x0225 [0x03] Work_Zone[3] = ExtData[1]->WorkLocal[10]
 58: 0x022A [0x03] Work_Zone[4] = ExtData[1]->WorkLocal[13]
 59: 0x022F [0x03] Work_Zone[5] = ExtData[1]->WorkLocal[18]
 60: 0x0234 [0x3E] IF !(Work_Zone[9] bit 3*) GOTO 0x0242
 61: 0x023B [0x1D] PRINT_EVENT_MESSAGE(message_id=11548*)
    → "`Opponent Data` Name: $0$0 Family: $2 Level: Approximately $3"
 62: 0x023E [0x23] WAIT_FOR_DIALOG_INTERACTION
 63: 0x023F [0x01] GOTO 0x0246
 64: 0x0242 [0x1D] PRINT_EVENT_MESSAGE(message_id=11545*)
    → "`Opponent Data` Name: $0$0 Family: $2 Level: $3"
 65: 0x0245 [0x23] WAIT_FOR_DIALOG_INTERACTION

SUBROUTINE_0246:
 66: 0x0246 [0x01] GOTO 0x02CF
 67: 0x0249 [0x02] IF !(Work_Zone[0] == 2*) GOTO 0x025D
 68: 0x0251 [0x03] Work_Zone[2] = ExtData[1]->WorkLocal[33]
 69: 0x0256 [0x1D] PRINT_EVENT_MESSAGE(message_id=11549*)
    → "Your match is scheduled to begin at ( Earth Time)."
 70: 0x0259 [0x23] WAIT_FOR_DIALOG_INTERACTION
 71: 0x025A [0x01] GOTO 0x02CF
 72: 0x025D [0x02] IF !(Work_Zone[0] == 3*) GOTO 0x0279
 73: 0x0265 [0x1D] PRINT_EVENT_MESSAGE(message_id=11526*)
    → "Pankration (pan-krat-ee-on) is a battle venue in which you can "pit" your very own monsters against the monsters of others."
 74: 0x0268 [0x23] WAIT_FOR_DIALOG_INTERACTION
 75: 0x0269 [0x1D] PRINT_EVENT_MESSAGE(message_id=11527*)
    → "By participating in these battles, your monster will gain experience points and become stronger, just as you do when fighting fiends."
 76: 0x026C [0x23] WAIT_FOR_DIALOG_INTERACTION
 77: 0x026D [0x03] Work_Zone[4] = ExtData[1]->WorkLocal[3]
 78: 0x0272 [0x1D] PRINT_EVENT_MESSAGE(message_id=11528*)
    → "After each battle, you must speak with a registration official in order to reflect the results of the previous match. Battle results will only be saved for $2 [day/days] (Earth time), after which they will become void, so it is recommended that you complete this task immediately after a match has ended."
 79: 0x0275 [0x23] WAIT_FOR_DIALOG_INTERACTION
 80: 0x0276 [0x01] GOTO 0x02CF
 81: 0x0279 [0x02] IF !(Work_Zone[0] == 4*) GOTO 0x02C1
 82: 0x0281 [0x02] IF !(ExtData[1]->WorkLocal[2] == 0*) GOTO 0x0294
 83: 0x0289 [0x1D] PRINT_EVENT_MESSAGE(message_id=11529*)
    → "Currently, we are holding a Pankration tournament."
 84: 0x028C [0x23] WAIT_FOR_DIALOG_INTERACTION
 85: 0x028D [0x1D] PRINT_EVENT_MESSAGE(message_id=11530*)
    → "The rules are simple--only the winners of their respective battles advance to the next fight, with the final monster standing declared the victor."
 86: 0x0290 [0x23] WAIT_FOR_DIALOG_INTERACTION
 87: 0x0291 [0x01] GOTO 0x02BE
 88: 0x0294 [0x02] IF !(ExtData[1]->WorkLocal[2] == 1*) GOTO 0x02AB
 89: 0x029C [0x1D] PRINT_EVENT_MESSAGE(message_id=11531*)
    → "Currently, we are conducting versus battles."
 90: 0x029F [0x23] WAIT_FOR_DIALOG_INTERACTION
 91: 0x02A0 [0x1D] PRINT_EVENT_MESSAGE(message_id=11532*)
    → "These are basic matches pitting one monster against another, with the winner taking all."
 92: 0x02A3 [0x23] WAIT_FOR_DIALOG_INTERACTION
 93: 0x02A4 [0x1D] PRINT_EVENT_MESSAGE(message_id=11533*)
    → "If you apply as a two-person party, you will be able to reserve a registration slot for him or her, ensuring that your monster will be pit against that of your party member."
 94: 0x02A7 [0x23] WAIT_FOR_DIALOG_INTERACTION
 95: 0x02A8 [0x01] GOTO 0x02BE
 96: 0x02AB [0x02] IF !(ExtData[1]->WorkLocal[2] == 2*) GOTO 0x02BE
 97: 0x02B3 [0x1D] PRINT_EVENT_MESSAGE(message_id=11534*)
    → "Currently, we are conducting group battles."
 98: 0x02B6 [0x23] WAIT_FOR_DIALOG_INTERACTION
 99: 0x02B7 [0x1D] PRINT_EVENT_MESSAGE(message_id=11535*)
    → "Group battles are three-on-three melees which require adventurers to register small parties of monsters to fight in the Pit."
100: 0x02BA [0x23] WAIT_FOR_DIALOG_INTERACTION
101: 0x02BB [0x01] GOTO 0x02BE

SUBROUTINE_02BE:
102: 0x02BE [0x01] GOTO 0x02CF
103: 0x02C1 [0x02] IF !(Work_Zone[0] == 5*) GOTO 0x02CF
104: 0x02C9 [0x06] ExtData[1]->WorkLocal[4] = 0
105: 0x02CC [0x01] GOTO 0x02CF

SUBROUTINE_02CF:
106: 0x02CF [0x01] GOTO 0x019B
107: 0x02D2 [0x21] END_EVENT
108: 0x02D3 [0x00] END_REQSTACK()
```

### Event 402

#### Metadata

| Field        | Value     |
|--------------|-----------|
| Entrypoint   | 0x02D4    |
| Data Size    | 345 bytes |
| Instructions | 84        |

```
      00 01 02 03 04 05 06 07  08 09 0A 0B 0C 0D 0E 0F
      -- -- -- -- -- -- -- --  -- -- -- -- -- -- -- --
02D0:             02 02 10 00  80 80 E4 02 03 01 00 01      ............
02E0: 80 01 14 03 02 02 10 02  80 80 F4 02 03 01 00 01  ................
02F0: 80 01 14 03 02 02 10 03  80 80 04 03 03 01 00 01  ................
0300: 80 01 14 03 02 02 10 04  80 80 14 03 03 01 00 01  ................
0310: 80 01 14 03 03 02 00 03  10 03 03 00 04 10 41 00  ..............A.
0320: 80 13 80 05 10 09 00 41  14 80 15 80 05 10 0A 00  .......A........
0330: 07 0A 00 16 80 41 00 80  17 80 06 10 0D 00 41 18  .....A........A.
0340: 80 19 80 06 10 12 00 03  21 00 07 10 05 04 00 1E  ........!.......
0350: F0 FF FF 7F 1D 05 80 23  02 04 00 00 80 01 2B 04  .......#......+.
0360: 24 22 80 00 80 02 80 25  02 00 10 00 80 00 77 03  $".....%......w.
0370: 1D 23 80 23 01 28 04 02  00 10 02 80 00 B6 03 3E  .#.#.(.........>
0380: 09 10 02 80 8D 03 1D 1D  80 23 01 B3 03 03 02 10  .........#......
0390: 09 00 03 03 10 0A 00 03  04 10 0D 00 03 05 10 12  ................
03A0: 00 3E 09 10 04 80 AF 03  1D 1E 80 23 01 B3 03 1D  .>.........#....
03B0: 1F 80 23 01 28 04 02 00  10 03 80 00 D2 03 1D 09  ..#.(...........
03C0: 80 23 1D 0A 80 23 03 04  10 03 00 1D 0B 80 23 01  .#...#........#.
03D0: 28 04 02 00 10 04 80 00  1A 04 02 02 00 00 80 80  (...............
03E0: ED 03 1D 0C 80 23 1D 0D  80 23 01 17 04 02 02 00  .....#...#......
03F0: 02 80 80 04 04 1D 0E 80  23 1D 0F 80 23 1D 10 80  ........#...#...
0400: 23 01 17 04 02 02 00 03  80 80 17 04 1D 11 80 23  #..............#
0410: 1D 12 80 23 01 17 04 01  28 04 02 00 10 21 80 00  ...#....(....!..
0420: 28 04 06 04 00 01 28 04  01 58 03 21 00           (.....(..X.!.   
```

#### Opcodes

```
  0: 0x02D4 [0x02] IF !(Work_Zone[2] == 0*) GOTO 0x02E4
  1: 0x02DC [0x03] ExtData[1]->WorkLocal[1] = 2500*
  2: 0x02E1 [0x01] GOTO 0x0314
  3: 0x02E4 [0x02] IF !(Work_Zone[2] == 1*) GOTO 0x02F4
  4: 0x02EC [0x03] ExtData[1]->WorkLocal[1] = 2500*
  5: 0x02F1 [0x01] GOTO 0x0314
  6: 0x02F4 [0x02] IF !(Work_Zone[2] == 2*) GOTO 0x0304
  7: 0x02FC [0x03] ExtData[1]->WorkLocal[1] = 2500*
  8: 0x0301 [0x01] GOTO 0x0314
  9: 0x0304 [0x02] IF !(Work_Zone[2] == 3*) GOTO 0x0314
 10: 0x030C [0x03] ExtData[1]->WorkLocal[1] = 2500*
 11: 0x0311 [0x01] GOTO 0x0314

SUBROUTINE_0314:
 12: 0x0314 [0x03] ExtData[1]->WorkLocal[2] = Work_Zone[3]
 13: 0x0319 [0x03] ExtData[1]->WorkLocal[3] = Work_Zone[4]
 14: 0x031E [0x41] ExtData[1]->WorkLocal[9] = Work_Zone[5] (bits 0*-5*)
 15: 0x0327 [0x41] ExtData[1]->WorkLocal[10] = Work_Zone[5] (bits 6*-11*)
 16: 0x0330 [0x07] ExtData[1]->WorkLocal[10] += 64*
 17: 0x0335 [0x41] ExtData[1]->WorkLocal[13] = Work_Zone[6] (bits 0*-15*)
 18: 0x033E [0x41] ExtData[1]->WorkLocal[18] = Work_Zone[6] (bits 16*-31*)
 19: 0x0347 [0x03] ExtData[1]->WorkLocal[33] = Work_Zone[7]
 20: 0x034C [0x05] ExtData[1]->WorkLocal[4] = 1
 21: 0x034F [0x1E] EventEntity looks at LocalPlayer and starts talking
 22: 0x0354 [0x1D] PRINT_EVENT_MESSAGE(message_id=11522*)
    → "Welcome to the Pit. If you have any questions regarding Pankration, I'm the one to ask."
 23: 0x0357 [0x23] WAIT_FOR_DIALOG_INTERACTION

SUBROUTINE_0358:
 24: 0x0358 [0x02] IF !(ExtData[1]->WorkLocal[4] == 0*) GOTO 0x042B
 25: 0x0360 [0x24] CREATE_DIALOG(message_id=11537*, default_option=0*, option_flags=1*)
    → "May I help you? [I'd like to cancel my application./I'd like to confirm my opponent./I'd like information on Pankration./I'd like a rule refresher./No, but thank you for asking.]"
 26: 0x0367 [0x25] WAIT_DIALOG_SELECT()
 27: 0x0368 [0x02] IF !(Work_Zone[0] == 0*) GOTO 0x0377
 28: 0x0370 [0x1D] PRINT_EVENT_MESSAGE(message_id=11539*)
    → "I'm sorry, but monsters currently participating in Pankration battles cannot be removed from their matches."
 29: 0x0373 [0x23] WAIT_FOR_DIALOG_INTERACTION
 30: 0x0374 [0x01] GOTO 0x0428
 31: 0x0377 [0x02] IF !(Work_Zone[0] == 1*) GOTO 0x03B6
 32: 0x037F [0x3E] IF !(Work_Zone[9] bit 1*) GOTO 0x038D
 33: 0x0386 [0x1D] PRINT_EVENT_MESSAGE(message_id=11547*)
    → "I'm sorry. It seems your opponent has yet to complete the registration process."
 34: 0x0389 [0x23] WAIT_FOR_DIALOG_INTERACTION
 35: 0x038A [0x01] GOTO 0x03B3
 36: 0x038D [0x03] Work_Zone[2] = ExtData[1]->WorkLocal[9]
 37: 0x0392 [0x03] Work_Zone[3] = ExtData[1]->WorkLocal[10]
 38: 0x0397 [0x03] Work_Zone[4] = ExtData[1]->WorkLocal[13]
 39: 0x039C [0x03] Work_Zone[5] = ExtData[1]->WorkLocal[18]
 40: 0x03A1 [0x3E] IF !(Work_Zone[9] bit 3*) GOTO 0x03AF
 41: 0x03A8 [0x1D] PRINT_EVENT_MESSAGE(message_id=11548*)
    → "`Opponent Data` Name: $0$0 Family: $2 Level: Approximately $3"
 42: 0x03AB [0x23] WAIT_FOR_DIALOG_INTERACTION
 43: 0x03AC [0x01] GOTO 0x03B3
 44: 0x03AF [0x1D] PRINT_EVENT_MESSAGE(message_id=11545*)
    → "`Opponent Data` Name: $0$0 Family: $2 Level: $3"
 45: 0x03B2 [0x23] WAIT_FOR_DIALOG_INTERACTION

SUBROUTINE_03B3:
 46: 0x03B3 [0x01] GOTO 0x0428
 47: 0x03B6 [0x02] IF !(Work_Zone[0] == 2*) GOTO 0x03D2
 48: 0x03BE [0x1D] PRINT_EVENT_MESSAGE(message_id=11526*)
    → "Pankration (pan-krat-ee-on) is a battle venue in which you can "pit" your very own monsters against the monsters of others."
 49: 0x03C1 [0x23] WAIT_FOR_DIALOG_INTERACTION
 50: 0x03C2 [0x1D] PRINT_EVENT_MESSAGE(message_id=11527*)
    → "By participating in these battles, your monster will gain experience points and become stronger, just as you do when fighting fiends."
 51: 0x03C5 [0x23] WAIT_FOR_DIALOG_INTERACTION
 52: 0x03C6 [0x03] Work_Zone[4] = ExtData[1]->WorkLocal[3]
 53: 0x03CB [0x1D] PRINT_EVENT_MESSAGE(message_id=11528*)
    → "After each battle, you must speak with a registration official in order to reflect the results of the previous match. Battle results will only be saved for $2 [day/days] (Earth time), after which they will become void, so it is recommended that you complete this task immediately after a match has ended."
 54: 0x03CE [0x23] WAIT_FOR_DIALOG_INTERACTION
 55: 0x03CF [0x01] GOTO 0x0428
 56: 0x03D2 [0x02] IF !(Work_Zone[0] == 3*) GOTO 0x041A
 57: 0x03DA [0x02] IF !(ExtData[1]->WorkLocal[2] == 0*) GOTO 0x03ED
 58: 0x03E2 [0x1D] PRINT_EVENT_MESSAGE(message_id=11529*)
    → "Currently, we are holding a Pankration tournament."
 59: 0x03E5 [0x23] WAIT_FOR_DIALOG_INTERACTION
 60: 0x03E6 [0x1D] PRINT_EVENT_MESSAGE(message_id=11530*)
    → "The rules are simple--only the winners of their respective battles advance to the next fight, with the final monster standing declared the victor."
 61: 0x03E9 [0x23] WAIT_FOR_DIALOG_INTERACTION
 62: 0x03EA [0x01] GOTO 0x0417
 63: 0x03ED [0x02] IF !(ExtData[1]->WorkLocal[2] == 1*) GOTO 0x0404
 64: 0x03F5 [0x1D] PRINT_EVENT_MESSAGE(message_id=11531*)
    → "Currently, we are conducting versus battles."
 65: 0x03F8 [0x23] WAIT_FOR_DIALOG_INTERACTION
 66: 0x03F9 [0x1D] PRINT_EVENT_MESSAGE(message_id=11532*)
    → "These are basic matches pitting one monster against another, with the winner taking all."
 67: 0x03FC [0x23] WAIT_FOR_DIALOG_INTERACTION
 68: 0x03FD [0x1D] PRINT_EVENT_MESSAGE(message_id=11533*)
    → "If you apply as a two-person party, you will be able to reserve a registration slot for him or her, ensuring that your monster will be pit against that of your party member."
 69: 0x0400 [0x23] WAIT_FOR_DIALOG_INTERACTION
 70: 0x0401 [0x01] GOTO 0x0417
 71: 0x0404 [0x02] IF !(ExtData[1]->WorkLocal[2] == 2*) GOTO 0x0417
 72: 0x040C [0x1D] PRINT_EVENT_MESSAGE(message_id=11534*)
    → "Currently, we are conducting group battles."
 73: 0x040F [0x23] WAIT_FOR_DIALOG_INTERACTION
 74: 0x0410 [0x1D] PRINT_EVENT_MESSAGE(message_id=11535*)
    → "Group battles are three-on-three melees which require adventurers to register small parties of monsters to fight in the Pit."
 75: 0x0413 [0x23] WAIT_FOR_DIALOG_INTERACTION
 76: 0x0414 [0x01] GOTO 0x0417

SUBROUTINE_0417:
 77: 0x0417 [0x01] GOTO 0x0428
 78: 0x041A [0x02] IF !(Work_Zone[0] == 4*) GOTO 0x0428
 79: 0x0422 [0x06] ExtData[1]->WorkLocal[4] = 0
 80: 0x0425 [0x01] GOTO 0x0428

SUBROUTINE_0428:
 81: 0x0428 [0x01] GOTO 0x0358
 82: 0x042B [0x21] END_EVENT
 83: 0x042C [0x00] END_REQSTACK()
```

### Event 403

#### Metadata

| Field        | Value     |
|--------------|-----------|
| Entrypoint   | 0x042D    |
| Data Size    | 294 bytes |
| Instructions | 76        |

```
      00 01 02 03 04 05 06 07  08 09 0A 0B 0C 0D 0E 0F
      -- -- -- -- -- -- -- --  -- -- -- -- -- -- -- --
0420:                                         03 01 10               ...
0430: 00 80 02 02 10 00 80 80  42 04 03 01 00 01 80 01  ........B.......
0440: 72 04 02 02 10 02 80 80  52 04 03 01 00 01 80 01  r.......R.......
0450: 72 04 02 02 10 03 80 80  62 04 03 01 00 01 80 01  r.......b.......
0460: 72 04 02 02 10 04 80 80  72 04 03 01 00 01 80 01  r.......r.......
0470: 72 04 02 05 10 00 80 01  82 04 03 05 10 03 80 01  r...............
0480: 87 04 03 05 10 02 80 03  02 00 03 10 03 03 00 04  ................
0490: 10 05 04 00 1E F0 FF FF  7F 1D 05 80 23 02 04 00  ............#...
04A0: 00 80 01 51 05 03 02 10  01 00 24 24 80 00 80 05  ...Q......$$....
04B0: 10 25 02 00 10 00 80 00  C1 04 1D 25 80 23 01 4E  .%.........%.#.N
04C0: 05 02 00 10 02 80 00 DC  04 1D 26 80 23 1D 27 80  ..........&.#.'.
04D0: 23 03 01 10 02 80 06 04  00 01 4E 05 02 00 10 03  #.........N.....
04E0: 80 00 F8 04 1D 09 80 23  1D 0A 80 23 03 04 10 03  .......#...#....
04F0: 00 1D 0B 80 23 01 4E 05  02 00 10 04 80 00 40 05  ....#.N.......@.
0500: 02 02 00 00 80 80 13 05  1D 0C 80 23 1D 0D 80 23  ...........#...#
0510: 01 3D 05 02 02 00 02 80  80 2A 05 1D 0E 80 23 1D  .=.......*....#.
0520: 0F 80 23 1D 10 80 23 01  3D 05 02 02 00 03 80 80  ..#...#.=.......
0530: 3D 05 1D 11 80 23 1D 12  80 23 01 3D 05 01 4E 05  =....#...#.=..N.
0540: 02 00 10 21 80 00 4E 05  06 04 00 01 4E 05 01 9D  ...!..N.....N...
0550: 04 21 00                                          .!.             
```

#### Opcodes

```
  0: 0x042D [0x03] Work_Zone[1] = 0*
  1: 0x0432 [0x02] IF !(Work_Zone[2] == 0*) GOTO 0x0442
  2: 0x043A [0x03] ExtData[1]->WorkLocal[1] = 2500*
  3: 0x043F [0x01] GOTO 0x0472
  4: 0x0442 [0x02] IF !(Work_Zone[2] == 1*) GOTO 0x0452
  5: 0x044A [0x03] ExtData[1]->WorkLocal[1] = 2500*
  6: 0x044F [0x01] GOTO 0x0472
  7: 0x0452 [0x02] IF !(Work_Zone[2] == 2*) GOTO 0x0462
  8: 0x045A [0x03] ExtData[1]->WorkLocal[1] = 2500*
  9: 0x045F [0x01] GOTO 0x0472
 10: 0x0462 [0x02] IF !(Work_Zone[2] == 3*) GOTO 0x0472
 11: 0x046A [0x03] ExtData[1]->WorkLocal[1] = 2500*
 12: 0x046F [0x01] GOTO 0x0472

SUBROUTINE_0472:
 13: 0x0472 [0x02] IF !(Work_Zone[5] == 0*) GOTO 0x0482
 14: 0x047A [0x03] Work_Zone[5] = 2*
 15: 0x047F [0x01] GOTO 0x0487
 16: 0x0482 [0x03] Work_Zone[5] = 1*

SUBROUTINE_0487:
 17: 0x0487 [0x03] ExtData[1]->WorkLocal[2] = Work_Zone[3]
 18: 0x048C [0x03] ExtData[1]->WorkLocal[3] = Work_Zone[4]
 19: 0x0491 [0x05] ExtData[1]->WorkLocal[4] = 1
 20: 0x0494 [0x1E] EventEntity looks at LocalPlayer and starts talking
 21: 0x0499 [0x1D] PRINT_EVENT_MESSAGE(message_id=11522*)
    → "Welcome to the Pit. If you have any questions regarding Pankration, I'm the one to ask."
 22: 0x049C [0x23] WAIT_FOR_DIALOG_INTERACTION

SUBROUTINE_049D:
 23: 0x049D [0x02] IF !(ExtData[1]->WorkLocal[4] == 0*) GOTO 0x0551
 24: 0x04A5 [0x03] Work_Zone[2] = ExtData[1]->WorkLocal[1]
 25: 0x04AA [0x24] CREATE_DIALOG(message_id=11538*, default_option=0*, option_flags=Work_Zone[5])
    → "May I help you? [I'd like to reflect match results./I lost my $0./I'd like information on Pankration./I'd like a rule refresher./No, I'm finished here.]"
 26: 0x04B1 [0x25] WAIT_DIALOG_SELECT()
 27: 0x04B2 [0x02] IF !(Work_Zone[0] == 0*) GOTO 0x04C1
 28: 0x04BA [0x1D] PRINT_EVENT_MESSAGE(message_id=11550*)
    → "Trade me the $0 used in the last match and I can tell you how your monster fared."
 29: 0x04BD [0x23] WAIT_FOR_DIALOG_INTERACTION
 30: 0x04BE [0x01] GOTO 0x054E
 31: 0x04C1 [0x02] IF !(Work_Zone[0] == 1*) GOTO 0x04DC
 32: 0x04C9 [0x1D] PRINT_EVENT_MESSAGE(message_id=11551*)
    → "I'm sorry, but before you can create a new $0, we must first nullify all records of the matches played by your "misplaced" monster."
 33: 0x04CC [0x23] WAIT_FOR_DIALOG_INTERACTION
 34: 0x04CD [0x1D] PRINT_EVENT_MESSAGE(message_id=11552*)
    → "... ... Alright. The data has been erased from our books."
 35: 0x04D0 [0x23] WAIT_FOR_DIALOG_INTERACTION
 36: 0x04D1 [0x03] Work_Zone[1] = 1*
 37: 0x04D6 [0x06] ExtData[1]->WorkLocal[4] = 0
 38: 0x04D9 [0x01] GOTO 0x054E
 39: 0x04DC [0x02] IF !(Work_Zone[0] == 2*) GOTO 0x04F8
 40: 0x04E4 [0x1D] PRINT_EVENT_MESSAGE(message_id=11526*)
    → "Pankration (pan-krat-ee-on) is a battle venue in which you can "pit" your very own monsters against the monsters of others."
 41: 0x04E7 [0x23] WAIT_FOR_DIALOG_INTERACTION
 42: 0x04E8 [0x1D] PRINT_EVENT_MESSAGE(message_id=11527*)
    → "By participating in these battles, your monster will gain experience points and become stronger, just as you do when fighting fiends."
 43: 0x04EB [0x23] WAIT_FOR_DIALOG_INTERACTION
 44: 0x04EC [0x03] Work_Zone[4] = ExtData[1]->WorkLocal[3]
 45: 0x04F1 [0x1D] PRINT_EVENT_MESSAGE(message_id=11528*)
    → "After each battle, you must speak with a registration official in order to reflect the results of the previous match. Battle results will only be saved for $2 [day/days] (Earth time), after which they will become void, so it is recommended that you complete this task immediately after a match has ended."
 46: 0x04F4 [0x23] WAIT_FOR_DIALOG_INTERACTION
 47: 0x04F5 [0x01] GOTO 0x054E
 48: 0x04F8 [0x02] IF !(Work_Zone[0] == 3*) GOTO 0x0540
 49: 0x0500 [0x02] IF !(ExtData[1]->WorkLocal[2] == 0*) GOTO 0x0513
 50: 0x0508 [0x1D] PRINT_EVENT_MESSAGE(message_id=11529*)
    → "Currently, we are holding a Pankration tournament."
 51: 0x050B [0x23] WAIT_FOR_DIALOG_INTERACTION
 52: 0x050C [0x1D] PRINT_EVENT_MESSAGE(message_id=11530*)
    → "The rules are simple--only the winners of their respective battles advance to the next fight, with the final monster standing declared the victor."
 53: 0x050F [0x23] WAIT_FOR_DIALOG_INTERACTION
 54: 0x0510 [0x01] GOTO 0x053D
 55: 0x0513 [0x02] IF !(ExtData[1]->WorkLocal[2] == 1*) GOTO 0x052A
 56: 0x051B [0x1D] PRINT_EVENT_MESSAGE(message_id=11531*)
    → "Currently, we are conducting versus battles."
 57: 0x051E [0x23] WAIT_FOR_DIALOG_INTERACTION
 58: 0x051F [0x1D] PRINT_EVENT_MESSAGE(message_id=11532*)
    → "These are basic matches pitting one monster against another, with the winner taking all."
 59: 0x0522 [0x23] WAIT_FOR_DIALOG_INTERACTION
 60: 0x0523 [0x1D] PRINT_EVENT_MESSAGE(message_id=11533*)
    → "If you apply as a two-person party, you will be able to reserve a registration slot for him or her, ensuring that your monster will be pit against that of your party member."
 61: 0x0526 [0x23] WAIT_FOR_DIALOG_INTERACTION
 62: 0x0527 [0x01] GOTO 0x053D
 63: 0x052A [0x02] IF !(ExtData[1]->WorkLocal[2] == 2*) GOTO 0x053D
 64: 0x0532 [0x1D] PRINT_EVENT_MESSAGE(message_id=11534*)
    → "Currently, we are conducting group battles."
 65: 0x0535 [0x23] WAIT_FOR_DIALOG_INTERACTION
 66: 0x0536 [0x1D] PRINT_EVENT_MESSAGE(message_id=11535*)
    → "Group battles are three-on-three melees which require adventurers to register small parties of monsters to fight in the Pit."
 67: 0x0539 [0x23] WAIT_FOR_DIALOG_INTERACTION
 68: 0x053A [0x01] GOTO 0x053D

SUBROUTINE_053D:
 69: 0x053D [0x01] GOTO 0x054E
 70: 0x0540 [0x02] IF !(Work_Zone[0] == 4*) GOTO 0x054E
 71: 0x0548 [0x06] ExtData[1]->WorkLocal[4] = 0
 72: 0x054B [0x01] GOTO 0x054E

SUBROUTINE_054E:
 73: 0x054E [0x01] GOTO 0x049D
 74: 0x0551 [0x21] END_EVENT
 75: 0x0552 [0x00] END_REQSTACK()
```

### Event 404

#### Metadata

| Field        | Value     |
|--------------|-----------|
| Entrypoint   | 0x0553    |
| Data Size    | 106 bytes |
| Instructions | 26        |

```
      00 01 02 03 04 05 06 07  08 09 0A 0B 0C 0D 0E 0F
      -- -- -- -- -- -- -- --  -- -- -- -- -- -- -- --
0550:          42 03 01 10 00  80 1E F0 FF FF 7F 03 09     B............
0560: 00 02 10 03 0A 00 03 10  03 0D 00 04 10 03 12 00  ................
0570: 05 10 03 02 10 09 00 03  03 10 0A 00 03 04 10 0D  ................
0580: 00 03 05 10 12 00 1D 28  80 23 1D 29 80 23 03 02  .......(.#.).#..
0590: 17 02 80 24 2A 80 02 80  00 80 25 02 00 10 00 80  ...$*.....%.....
05A0: 00 AB 05 03 01 10 02 80  01 BB 05 02 00 10 02 80  ................
05B0: 00 BB 05 03 01 10 00 80  01 BB 05 21 00           ...........!.   
```

#### Opcodes

```
  0: 0x0553 [0x42] SET_CLI_EVENT_CANCEL_DATA()
  1: 0x0554 [0x03] Work_Zone[1] = 0*
  2: 0x0559 [0x1E] EventEntity looks at LocalPlayer and starts talking
  3: 0x055E [0x03] ExtData[1]->WorkLocal[9] = Work_Zone[2]
  4: 0x0563 [0x03] ExtData[1]->WorkLocal[10] = Work_Zone[3]
  5: 0x0568 [0x03] ExtData[1]->WorkLocal[13] = Work_Zone[4]
  6: 0x056D [0x03] ExtData[1]->WorkLocal[18] = Work_Zone[5]
  7: 0x0572 [0x03] Work_Zone[2] = ExtData[1]->WorkLocal[9]
  8: 0x0577 [0x03] Work_Zone[3] = ExtData[1]->WorkLocal[10]
  9: 0x057C [0x03] Work_Zone[4] = ExtData[1]->WorkLocal[13]
 10: 0x0581 [0x03] Work_Zone[5] = ExtData[1]->WorkLocal[18]
 11: 0x0586 [0x1D] PRINT_EVENT_MESSAGE(message_id=11564*)
    → "`Registration Application` Name: $0$0 Family: $2 Level: $3"
 12: 0x0589 [0x23] WAIT_FOR_DIALOG_INTERACTION
 13: 0x058A [0x1D] PRINT_EVENT_MESSAGE(message_id=11565*)
    → "Upon application submission, an opponent and a match time will automatically be set."
 14: 0x058D [0x23] WAIT_FOR_DIALOG_INTERACTION
 15: 0x058E [0x03] Work_Zone_1700[2] = 1*
 16: 0x0593 [0x24] CREATE_DIALOG(message_id=11566*, default_option=1*, option_flags=0*)
    → "Submit application? [Yes. ($10 jetton fee required)/No.]"
 17: 0x059A [0x25] WAIT_DIALOG_SELECT()
 18: 0x059B [0x02] IF !(Work_Zone[0] == 0*) GOTO 0x05AB
 19: 0x05A3 [0x03] Work_Zone[1] = 1*
 20: 0x05A8 [0x01] GOTO 0x05BB
 21: 0x05AB [0x02] IF !(Work_Zone[0] == 1*) GOTO 0x05BB
 22: 0x05B3 [0x03] Work_Zone[1] = 0*
 23: 0x05B8 [0x01] GOTO 0x05BB

SUBROUTINE_05BB:
 24: 0x05BB [0x21] END_EVENT
 25: 0x05BC [0x00] END_REQSTACK()
```

### Event 405

#### Metadata

| Field        | Value     |
|--------------|-----------|
| Entrypoint   | 0x05BD    |
| Data Size    | 339 bytes |
| Instructions | 75        |

```
      00 01 02 03 04 05 06 07  08 09 0A 0B 0C 0D 0E 0F
      -- -- -- -- -- -- -- --  -- -- -- -- -- -- -- --
05B0:                                         42 1E F0               B..
05C0: FF FF 7F 41 2B 80 19 80  02 10 06 00 03 07 00 09  ...A+...........
05D0: 10 41 2C 80 2D 80 02 10  08 00 1A 3B 08 03 02 10  .A,.-......;....
05E0: 09 00 03 03 10 0A 00 03  04 10 06 00 1D 2E 80 23  ...............#
05F0: 03 04 10 07 00 48 2F 80  23 07 0E 00 07 00 15 0E  .....H/.#.......
0600: 00 30 80 02 0E 00 00 80  02 2E 06 02 12 00 31 80  .0............1.
0610: 03 2E 06 07 12 00 0E 00  02 12 00 31 80 02 25 06  ...........1..%.
0620: 03 12 00 31 80 03 04 10  12 00 48 32 80 23 3E 08  ...1......H2.#>.
0630: 00 00 80 4E 06 02 14 00  31 80 03 4E 06 03 05 10  ...N....1..N....
0640: 13 00 03 06 10 14 00 0B  06 10 48 33 80 23 3E 08  ..........H3.#>.
0650: 00 02 80 6E 06 02 16 00  31 80 03 6E 06 03 05 10  ...n....1..n....
0660: 15 00 03 06 10 16 00 0B  06 10 48 33 80 23 3E 08  ..........H3.#>.
0670: 00 03 80 8E 06 02 18 00  31 80 03 8E 06 03 05 10  ........1.......
0680: 17 00 03 06 10 18 00 0B  06 10 48 33 80 23 3E 08  ..........H3.#>.
0690: 00 04 80 AE 06 02 1A 00  31 80 03 AE 06 03 05 10  ........1.......
06A0: 19 00 03 06 10 1A 00 0B  06 10 48 33 80 23 3E 08  ..........H3.#>.
06B0: 00 21 80 CE 06 02 1C 00  31 80 03 CE 06 03 05 10  .!......1.......
06C0: 1B 00 03 06 10 1C 00 0B  06 10 48 33 80 23 3E 08  ..........H3.#>.
06D0: 00 13 80 EE 06 02 1E 00  31 80 03 EE 06 03 05 10  ........1.......
06E0: 1D 00 03 06 10 1E 00 0B  06 10 48 33 80 23 3E 08  ..........H3.#>.
06F0: 00 14 80 0E 07 02 20 00  31 80 03 0E 07 03 05 10  ...... .1.......
0700: 1F 00 03 06 10 20 00 0B  06 10 48 33 80 23 21 00  ..... ....H3.#!.
```

#### Opcodes

```
  0: 0x05BD [0x42] SET_CLI_EVENT_CANCEL_DATA()
  1: 0x05BE [0x1E] EventEntity looks at LocalPlayer and starts talking
  2: 0x05C3 [0x41] ExtData[1]->WorkLocal[6] = Work_Zone[2] (bits 30*-31*)
  3: 0x05CC [0x03] ExtData[1]->WorkLocal[7] = Work_Zone[9]
  4: 0x05D1 [0x41] ExtData[1]->WorkLocal[8] = Work_Zone[2] (bits 23*-29*)
  5: 0x05DA [0x1A] CALL_SUBROUTINE(address=0x083B)
  6: 0x05DD [0x03] Work_Zone[2] = ExtData[1]->WorkLocal[9]
  7: 0x05E2 [0x03] Work_Zone[3] = ExtData[1]->WorkLocal[10]
  8: 0x05E7 [0x03] Work_Zone[4] = ExtData[1]->WorkLocal[6]
  9: 0x05EC [0x1D] PRINT_EVENT_MESSAGE(message_id=11553*)
    → "[I'm sorry,/Congratulations!/Well, it seems] $0$7807067as defeated in its previous match.../ was victorious in its previous match!/'s last match was a draw.]"
 10: 0x05EF [0x23] WAIT_FOR_DIALOG_INTERACTION
 11: 0x05F0 [0x03] Work_Zone[4] = ExtData[1]->WorkLocal[7]
 12: 0x05F5 [0x48] [System] [11554*]:
    → "$0$0 gained $2 [experience point/experience points]."
 13: 0x05F8 [0x23] WAIT_FOR_DIALOG_INTERACTION
 14: 0x05F9 [0x07] ExtData[1]->WorkLocal[14] += ExtData[1]->WorkLocal[7]
 15: 0x05FE [0x15] ExtData[1]->WorkLocal[14] /= 200*
 16: 0x0603 [0x02] IF !(ExtData[1]->WorkLocal[14] <= 0*) GOTO 0x062E
 17: 0x060B [0x02] IF !(ExtData[1]->WorkLocal[18] >= 50*) GOTO 0x062E
 18: 0x0613 [0x07] ExtData[1]->WorkLocal[18] += ExtData[1]->WorkLocal[14]
 19: 0x0618 [0x02] IF !(ExtData[1]->WorkLocal[18] <= 50*) GOTO 0x0625
 20: 0x0620 [0x03] ExtData[1]->WorkLocal[18] = 50*
 21: 0x0625 [0x03] Work_Zone[4] = ExtData[1]->WorkLocal[18]
 22: 0x062A [0x48] [System] [11555*]:
    → "$0$0 has attained level $2!"
 23: 0x062D [0x23] WAIT_FOR_DIALOG_INTERACTION
 24: 0x062E [0x3E] IF !(ExtData[1]->WorkLocal[8] bit 0*) GOTO 0x064E
 25: 0x0635 [0x02] IF !(ExtData[1]->WorkLocal[20] >= 50*) GOTO 0x064E
 26: 0x063D [0x03] Work_Zone[5] = ExtData[1]->WorkLocal[19]
 27: 0x0642 [0x03] Work_Zone[6] = ExtData[1]->WorkLocal[20]
 28: 0x0647 [0x0B] Work_Zone[6]++
 29: 0x064A [0x48] [System] [11556*]:
    → "The feral skill "" is now level $4!"
 30: 0x064D [0x23] WAIT_FOR_DIALOG_INTERACTION
 31: 0x064E [0x3E] IF !(ExtData[1]->WorkLocal[8] bit 1*) GOTO 0x066E
 32: 0x0655 [0x02] IF !(ExtData[1]->WorkLocal[22] >= 50*) GOTO 0x066E
 33: 0x065D [0x03] Work_Zone[5] = ExtData[1]->WorkLocal[21]
 34: 0x0662 [0x03] Work_Zone[6] = ExtData[1]->WorkLocal[22]
 35: 0x0667 [0x0B] Work_Zone[6]++
 36: 0x066A [0x48] [System] [11556*]:
    → "The feral skill "" is now level $4!"
 37: 0x066D [0x23] WAIT_FOR_DIALOG_INTERACTION
 38: 0x066E [0x3E] IF !(ExtData[1]->WorkLocal[8] bit 2*) GOTO 0x068E
 39: 0x0675 [0x02] IF !(ExtData[1]->WorkLocal[24] >= 50*) GOTO 0x068E
 40: 0x067D [0x03] Work_Zone[5] = ExtData[1]->WorkLocal[23]
 41: 0x0682 [0x03] Work_Zone[6] = ExtData[1]->WorkLocal[24]
 42: 0x0687 [0x0B] Work_Zone[6]++
 43: 0x068A [0x48] [System] [11556*]:
    → "The feral skill "" is now level $4!"
 44: 0x068D [0x23] WAIT_FOR_DIALOG_INTERACTION
 45: 0x068E [0x3E] IF !(ExtData[1]->WorkLocal[8] bit 3*) GOTO 0x06AE
 46: 0x0695 [0x02] IF !(ExtData[1]->WorkLocal[26] >= 50*) GOTO 0x06AE
 47: 0x069D [0x03] Work_Zone[5] = ExtData[1]->WorkLocal[25]
 48: 0x06A2 [0x03] Work_Zone[6] = ExtData[1]->WorkLocal[26]
 49: 0x06A7 [0x0B] Work_Zone[6]++
 50: 0x06AA [0x48] [System] [11556*]:
    → "The feral skill "" is now level $4!"
 51: 0x06AD [0x23] WAIT_FOR_DIALOG_INTERACTION
 52: 0x06AE [0x3E] IF !(ExtData[1]->WorkLocal[8] bit 4*) GOTO 0x06CE
 53: 0x06B5 [0x02] IF !(ExtData[1]->WorkLocal[28] >= 50*) GOTO 0x06CE
 54: 0x06BD [0x03] Work_Zone[5] = ExtData[1]->WorkLocal[27]
 55: 0x06C2 [0x03] Work_Zone[6] = ExtData[1]->WorkLocal[28]
 56: 0x06C7 [0x0B] Work_Zone[6]++
 57: 0x06CA [0x48] [System] [11556*]:
    → "The feral skill "" is now level $4!"
 58: 0x06CD [0x23] WAIT_FOR_DIALOG_INTERACTION
 59: 0x06CE [0x3E] IF !(ExtData[1]->WorkLocal[8] bit 5*) GOTO 0x06EE
 60: 0x06D5 [0x02] IF !(ExtData[1]->WorkLocal[30] >= 50*) GOTO 0x06EE
 61: 0x06DD [0x03] Work_Zone[5] = ExtData[1]->WorkLocal[29]
 62: 0x06E2 [0x03] Work_Zone[6] = ExtData[1]->WorkLocal[30]
 63: 0x06E7 [0x0B] Work_Zone[6]++
 64: 0x06EA [0x48] [System] [11556*]:
    → "The feral skill "" is now level $4!"
 65: 0x06ED [0x23] WAIT_FOR_DIALOG_INTERACTION
 66: 0x06EE [0x3E] IF !(ExtData[1]->WorkLocal[8] bit 6*) GOTO 0x070E
 67: 0x06F5 [0x02] IF !(ExtData[1]->WorkLocal[32] >= 50*) GOTO 0x070E
 68: 0x06FD [0x03] Work_Zone[5] = ExtData[1]->WorkLocal[31]
 69: 0x0702 [0x03] Work_Zone[6] = ExtData[1]->WorkLocal[32]
 70: 0x0707 [0x0B] Work_Zone[6]++
 71: 0x070A [0x48] [System] [11556*]:
    → "The feral skill "" is now level $4!"
 72: 0x070D [0x23] WAIT_FOR_DIALOG_INTERACTION
 73: 0x070E [0x21] END_EVENT
 74: 0x070F [0x00] END_REQSTACK()
```

### Event 407

#### Metadata

| Field        | Value    |
|--------------|----------|
| Entrypoint   | 0x0710   |
| Data Size    | 65 bytes |
| Instructions | 21       |

```
      00 01 02 03 04 05 06 07  08 09 0A 0B 0C 0D 0E 0F
      -- -- -- -- -- -- -- --  -- -- -- -- -- -- -- --
0710: 42 1E F0 FF FF 7F 1D 34  80 23 1D 35 80 23 24 36  B......4.#.5.#$6
0720: 80 02 80 00 80 25 02 00  10 00 80 00 3B 07 42 03  .....%......;.B.
0730: 01 10 02 80 1D 37 80 23  01 4F 07 02 00 10 02 80  .....7.#.O......
0740: 00 4F 07 03 01 10 00 80  1D 38 80 23 01 4F 07 21  .O.......8.#.O.!
0750: 00                                                .               
```

#### Opcodes

```
  0: 0x0710 [0x42] SET_CLI_EVENT_CANCEL_DATA()
  1: 0x0711 [0x1E] EventEntity looks at LocalPlayer and starts talking
  2: 0x0716 [0x1D] PRINT_EVENT_MESSAGE(message_id=11558*)
    → "I'm sorry, but I don't seem to have the results of any matches featuring that monster. Either its most recent match just ended and the results are still being tallied, or the data has been lost."
  3: 0x0719 [0x23] WAIT_FOR_DIALOG_INTERACTION
  4: 0x071A [0x1D] PRINT_EVENT_MESSAGE(message_id=11559*)
    → "You have the option to either wait for the results to arrive, or cancel the results of the match completely."
  5: 0x071D [0x23] WAIT_FOR_DIALOG_INTERACTION
  6: 0x071E [0x24] CREATE_DIALOG(message_id=11560*, default_option=1*, option_flags=0*)
    → "Which do you choose? [Cancel the results./I'll wait a little longer.]"
  7: 0x0725 [0x25] WAIT_DIALOG_SELECT()
  8: 0x0726 [0x02] IF !(Work_Zone[0] == 0*) GOTO 0x073B
  9: 0x072E [0x42] SET_CLI_EVENT_CANCEL_DATA()
 10: 0x072F [0x03] Work_Zone[1] = 1*
 11: 0x0734 [0x1D] PRINT_EVENT_MESSAGE(message_id=11561*)
    → "Understood. The results of your monster's last match have been erased from our official records."
 12: 0x0737 [0x23] WAIT_FOR_DIALOG_INTERACTION
 13: 0x0738 [0x01] GOTO 0x074F
 14: 0x073B [0x02] IF !(Work_Zone[0] == 1*) GOTO 0x074F
 15: 0x0743 [0x03] Work_Zone[1] = 0*
 16: 0x0748 [0x1D] PRINT_EVENT_MESSAGE(message_id=11562*)
    → "We will continue looking for your results, but if we have not found them in a few minutes, chances are they were eaten by one of the monsters."
 17: 0x074B [0x23] WAIT_FOR_DIALOG_INTERACTION
 18: 0x074C [0x01] GOTO 0x074F

SUBROUTINE_074F:
 19: 0x074F [0x21] END_EVENT
 20: 0x0750 [0x00] END_REQSTACK()
```

### Event 406

#### Metadata

| Field        | Value     |
|--------------|-----------|
| Entrypoint   | 0x0751    |
| Data Size    | 117 bytes |
| Instructions | 28        |

```
      00 01 02 03 04 05 06 07  08 09 0A 0B 0C 0D 0E 0F
      -- -- -- -- -- -- -- --  -- -- -- -- -- -- -- --
0750:    42 03 01 10 00 80 1E  F0 FF FF 7F 03 09 00 02   B..............
0760: 10 03 0A 00 03 10 03 0D  00 04 10 03 12 00 05 10  ................
0770: 03 02 10 09 00 03 03 10  0A 00 03 04 10 0D 00 03  ................
0780: 05 10 12 00 1D 28 80 23  1D 39 80 23 03 02 17 02  .....(.#.9.#....
0790: 80 24 3A 80 00 80 00 80  25 02 00 10 00 80 00 A4  .$:.....%.......
07A0: 07 01 C4 07 02 00 10 02  80 00 B4 07 03 01 10 03  ................
07B0: 80 01 C4 07 02 00 10 03  80 00 C4 07 03 01 10 02  ................
07C0: 80 01 C4 07 21 00                                 ....!.          
```

#### Opcodes

```
  0: 0x0751 [0x42] SET_CLI_EVENT_CANCEL_DATA()
  1: 0x0752 [0x03] Work_Zone[1] = 0*
  2: 0x0757 [0x1E] EventEntity looks at LocalPlayer and starts talking
  3: 0x075C [0x03] ExtData[1]->WorkLocal[9] = Work_Zone[2]
  4: 0x0761 [0x03] ExtData[1]->WorkLocal[10] = Work_Zone[3]
  5: 0x0766 [0x03] ExtData[1]->WorkLocal[13] = Work_Zone[4]
  6: 0x076B [0x03] ExtData[1]->WorkLocal[18] = Work_Zone[5]
  7: 0x0770 [0x03] Work_Zone[2] = ExtData[1]->WorkLocal[9]
  8: 0x0775 [0x03] Work_Zone[3] = ExtData[1]->WorkLocal[10]
  9: 0x077A [0x03] Work_Zone[4] = ExtData[1]->WorkLocal[13]
 10: 0x077F [0x03] Work_Zone[5] = ExtData[1]->WorkLocal[18]
 11: 0x0784 [0x1D] PRINT_EVENT_MESSAGE(message_id=11564*)
    → "`Registration Application` Name: $0$0 Family: $2 Level: $3"
 12: 0x0787 [0x23] WAIT_FOR_DIALOG_INTERACTION
 13: 0x0788 [0x1D] PRINT_EVENT_MESSAGE(message_id=11572*)
    → "If you wish, I can also reserve a registration slot for your party member, thus ensuring that your monsters will be pit against one another. However, this may considerably delay the match starting time."
 14: 0x078B [0x23] WAIT_FOR_DIALOG_INTERACTION
 15: 0x078C [0x03] Work_Zone_1700[2] = 1*
 16: 0x0791 [0x24] CREATE_DIALOG(message_id=11573*, default_option=0*, option_flags=0*)
    → "Submit entry and reserve slot? [Quit./Yes. ($10 [jetton/jettons])/Submit entry only. ($10 [jetton/jettons])]"
 17: 0x0798 [0x25] WAIT_DIALOG_SELECT()
 18: 0x0799 [0x02] IF !(Work_Zone[0] == 0*) GOTO 0x07A4
 19: 0x07A1 [0x01] GOTO 0x07C4
 20: 0x07A4 [0x02] IF !(Work_Zone[0] == 1*) GOTO 0x07B4
 21: 0x07AC [0x03] Work_Zone[1] = 2*
 22: 0x07B1 [0x01] GOTO 0x07C4
 23: 0x07B4 [0x02] IF !(Work_Zone[0] == 2*) GOTO 0x07C4
 24: 0x07BC [0x03] Work_Zone[1] = 1*
 25: 0x07C1 [0x01] GOTO 0x07C4

SUBROUTINE_07C4:
 26: 0x07C4 [0x21] END_EVENT
 27: 0x07C5 [0x00] END_REQSTACK()
```

### Event 408

#### Metadata

| Field        | Value     |
|--------------|-----------|
| Entrypoint   | 0x07C6    |
| Data Size    | 388 bytes |
| Instructions | 28        |

```
      00 01 02 03 04 05 06 07  08 09 0A 0B 0C 0D 0E 0F
      -- -- -- -- -- -- -- --  -- -- -- -- -- -- -- --
07C0:                   42 03  01 10 00 80 1E F0 FF FF        B.........
07D0: 7F 03 09 00 02 10 03 0A  00 03 10 03 0D 00 04 10  ................
07E0: 03 12 00 05 10 03 02 10  09 00 03 03 10 0A 00 03  ................
07F0: 04 10 0D 00 03 05 10 12  00 1D 28 80 23 1D 3B 80  ..........(.#.;.
0800: 23 03 02 17 02 80 24 3C  80 02 80 00 80 25 02 00  #.....$<.....%..
0810: 10 00 80 00 1E 08 03 01  10 02 80 01 39 08 02 00  ............9...
0820: 10 02 80 00 29 08 01 39  08 02 00 10 03 80 00 39  ....)..9.......9
0830: 08 03 01 10 03 80 01 39  08 21 00 41 00 80 13 80  .......9.!.A....
0840: 03 10 09 00 41 14 80 15  80 03 10 0A 00 07 0A 00  ....A...........
0850: 16 80 41 3D 80 19 80 03  10 0E 00 41 00 80 04 80  ..A=.......A....
0860: 04 10 00 00 10 00 00 21  80 07 0E 00 00 00 41 21  .......!......A!
0870: 80 15 80 04 10 0F 00 41  3E 80 17 80 04 10 10 00  .......A>.......
0880: 41 18 80 3F 80 04 10 11  00 41 40 80 41 80 04 10  A..?.....A@.A...
0890: 12 00 41 42 80 19 80 04  10 13 00 41 00 80 14 80  ..AB.......A....
08A0: 05 10 00 00 10 00 00 13  80 07 13 00 00 00 41 43  ..............AC
08B0: 80 44 80 05 10 14 00 41  45 80 46 80 05 10 15 00  .D.....AE.F.....
08C0: 41 41 80 19 80 05 10 16  00 41 00 80 00 80 06 10  AA.......A......
08D0: 00 00 10 00 00 14 80 07  16 00 00 00 41 02 80 3E  ............A..>
08E0: 80 06 10 17 00 41 44 80  3F 80 06 10 18 00 41 40  .....AD.?.....A@
08F0: 80 19 80 06 10 19 00 41  00 80 14 80 07 10 1A 00  .......A........
0900: 41 43 80 47 80 07 10 1B  00 41 3F 80 46 80 07 10  AC.G.....A?.F...
0910: 1C 00 41 41 80 19 80 07  10 1D 00 41 00 80 13 80  ..AA.......A....
0920: 08 10 00 00 10 00 00 14  80 07 1D 00 00 00 41 14  ..............A.
0930: 80 3E 80 08 10 1E 00 41  44 80 48 80 08 10 1F 00  .>.....AD.H.....
0940: 41 46 80 19 80 08 10 20  00 1B                    AF..... ..      
```

#### Opcodes

```
  0: 0x07C6 [0x42] SET_CLI_EVENT_CANCEL_DATA()
  1: 0x07C7 [0x03] Work_Zone[1] = 0*
  2: 0x07CC [0x1E] EventEntity looks at LocalPlayer and starts talking
  3: 0x07D1 [0x03] ExtData[1]->WorkLocal[9] = Work_Zone[2]
  4: 0x07D6 [0x03] ExtData[1]->WorkLocal[10] = Work_Zone[3]
  5: 0x07DB [0x03] ExtData[1]->WorkLocal[13] = Work_Zone[4]
  6: 0x07E0 [0x03] ExtData[1]->WorkLocal[18] = Work_Zone[5]
  7: 0x07E5 [0x03] Work_Zone[2] = ExtData[1]->WorkLocal[9]
  8: 0x07EA [0x03] Work_Zone[3] = ExtData[1]->WorkLocal[10]
  9: 0x07EF [0x03] Work_Zone[4] = ExtData[1]->WorkLocal[13]
 10: 0x07F4 [0x03] Work_Zone[5] = ExtData[1]->WorkLocal[18]
 11: 0x07F9 [0x1D] PRINT_EVENT_MESSAGE(message_id=11564*)
    → "`Registration Application` Name: $0$0 Family: $2 Level: $3"
 12: 0x07FC [0x23] WAIT_FOR_DIALOG_INTERACTION
 13: 0x07FD [0x1D] PRINT_EVENT_MESSAGE(message_id=11576*)
    → "Your party member has reserved you a registration slot. Would you like to submit your application for participation?"
 14: 0x0800 [0x23] WAIT_FOR_DIALOG_INTERACTION
 15: 0x0801 [0x03] Work_Zone_1700[2] = 1*
 16: 0x0806 [0x24] CREATE_DIALOG(message_id=11577*, default_option=1*, option_flags=0*)
    → "Submit application? [Yes. ($10 jetton fee required)/No./Cancel reservation.]"
 17: 0x080D [0x25] WAIT_DIALOG_SELECT()
 18: 0x080E [0x02] IF !(Work_Zone[0] == 0*) GOTO 0x081E
 19: 0x0816 [0x03] Work_Zone[1] = 1*
 20: 0x081B [0x01] GOTO 0x0839
 21: 0x081E [0x02] IF !(Work_Zone[0] == 1*) GOTO 0x0829
 22: 0x0826 [0x01] GOTO 0x0839
 23: 0x0829 [0x02] IF !(Work_Zone[0] == 2*) GOTO 0x0839
 24: 0x0831 [0x03] Work_Zone[1] = 2*
 25: 0x0836 [0x01] GOTO 0x0839

SUBROUTINE_0839:
 26: 0x0839 [0x21] END_EVENT
 27: 0x083A [0x00] END_REQSTACK()
```

#### Data or dead code:

```
# Dead code (unreachable instructions):
     0x083B [0x41] ExtData[1]->WorkLocal[9] = Work_Zone[3] (bits 0*-5*)
     0x0844 [0x41] ExtData[1]->WorkLocal[10] = Work_Zone[3] (bits 6*-11*)
     0x084D [0x07] ExtData[1]->WorkLocal[10] += 64*
     0x0852 [0x41] ExtData[1]->WorkLocal[14] = Work_Zone[3] (bits 28*-31*)
     0x085B [0x41] ExtData[1]->WorkLocal[0] = Work_Zone[4] (bits 0*-3*)
     0x0864 [0x10] ExtData[1]->WorkLocal[0] <<= 4*
     0x0869 [0x07] ExtData[1]->WorkLocal[14] += ExtData[1]->WorkLocal[0]
     0x086E [0x41] ExtData[1]->WorkLocal[15] = Work_Zone[4] (bits 4*-11*)
     0x0877 [0x41] ExtData[1]->WorkLocal[16] = Work_Zone[4] (bits 12*-15*)
     0x0880 [0x41] ExtData[1]->WorkLocal[17] = Work_Zone[4] (bits 16*-19*)
     0x0889 [0x41] ExtData[1]->WorkLocal[18] = Work_Zone[4] (bits 20*-26*)
     0x0892 [0x41] ExtData[1]->WorkLocal[19] = Work_Zone[4] (bits 27*-31*)
     0x089B [0x41] ExtData[1]->WorkLocal[0] = Work_Zone[5] (bits 0*-6*)
     0x08A4 [0x10] ExtData[1]->WorkLocal[0] <<= 5*
     0x08A9 [0x07] ExtData[1]->WorkLocal[19] += ExtData[1]->WorkLocal[0]
     0x08AE [0x41] ExtData[1]->WorkLocal[20] = Work_Zone[5] (bits 7*-13*)
     0x08B7 [0x41] ExtData[1]->WorkLocal[21] = Work_Zone[5] (bits 14*-25*)
     0x08C0 [0x41] ExtData[1]->WorkLocal[22] = Work_Zone[5] (bits 26*-31*)
     0x08C9 [0x41] ExtData[1]->WorkLocal[0] = Work_Zone[6] (bits 0*-0*)
     0x08D2 [0x10] ExtData[1]->WorkLocal[0] <<= 6*
     0x08D7 [0x07] ExtData[1]->WorkLocal[22] += ExtData[1]->WorkLocal[0]
     0x08DC [0x41] ExtData[1]->WorkLocal[23] = Work_Zone[6] (bits 1*-12*)
     0x08E5 [0x41] ExtData[1]->WorkLocal[24] = Work_Zone[6] (bits 13*-19*)
     0x08EE [0x41] ExtData[1]->WorkLocal[25] = Work_Zone[6] (bits 20*-31*)
     0x08F7 [0x41] ExtData[1]->WorkLocal[26] = Work_Zone[7] (bits 0*-6*)
     0x0900 [0x41] ExtData[1]->WorkLocal[27] = Work_Zone[7] (bits 7*-18*)
     0x0909 [0x41] ExtData[1]->WorkLocal[28] = Work_Zone[7] (bits 19*-25*)
     0x0912 [0x41] ExtData[1]->WorkLocal[29] = Work_Zone[7] (bits 26*-31*)
     0x091B [0x41] ExtData[1]->WorkLocal[0] = Work_Zone[8] (bits 0*-5*)
     0x0924 [0x10] ExtData[1]->WorkLocal[0] <<= 6*
     0x0929 [0x07] ExtData[1]->WorkLocal[29] += ExtData[1]->WorkLocal[0]
     0x092E [0x41] ExtData[1]->WorkLocal[30] = Work_Zone[8] (bits 6*-12*)
     0x0937 [0x41] ExtData[1]->WorkLocal[31] = Work_Zone[8] (bits 13*-24*)
     0x0940 [0x41] ExtData[1]->WorkLocal[32] = Work_Zone[8] (bits 25*-31*)
     0x0949 [0x1B] RETURN
```
