# Event 65535

## Metadata

| Field           | Value    |
|-----------------|----------|
| Event Index     | 16/19    |
| Offset          | 0x00CA   |
| Data Size       | 80 bytes |
| Calculated Size | 80 bytes |
| Instructions    | 11       |

```
      00 01 02 03 04 05 06 07  08 09 0A 0B 0C 0D 0E 0F
      -- -- -- -- -- -- -- --  -- -- -- -- -- -- -- --
00C0:                                5B 14 80 3C 42 0A            [..<B.
00D0: 01 3C 42 0A 01 79 65 73  30 1C 15 80 59 01 3C 42  .<B..yes0...Y.<B
00E0: 0A 01 16 80 4A 3C 42 0A  01 F0 FF FF 7F 7B 3C 42  ....J<B......{<B
00F0: 0A 01 6F 76 3C 42 0A 01  5B 17 80 3C 42 0A 01 3C  ..ov<B..[..<B..<
0100: 42 0A 01 74 6C 61 30 1C  18 80 5B 17 80 3C 42 0A  B..tla0...[..<B.
0110: 01 3C 42 0A 01 74 6C 61  31 00                    .<B..tla1.      
```

## Opcodes

```
  0: 0x00CA [0x5B] LOAD_EXT_SCHEDULER: Load scheduler "yes0" with entities [Rahal (ID: 17449532/0x010A423C), Rahal (ID: 17449532/0x010A423C)], work=2349*
  1: 0x00D9 [0x1C] WAIT(160* ticks)
  2: 0x00DC [0x59] UPDATE_ENTITY_DATA: Set Rahal (ID: 17449532/0x010A423C) turn speed = 80*
  3: 0x00E4 [0x4A] Rahal (ID: 17449532/0x010A423C) looks at LocalPlayer
  4: 0x00ED [0x7B] Rahal (ID: 17449532/0x010A423C) stops talking
  5: 0x00F2 [0x6F] WAIT_FRAME_DELAY: Yield until WaitTime reaches zero
  6: 0x00F3 [0x76] CHECK_ENTITY_RENDER_FLAGS: Wait until Rahal (ID: 17449532/0x010A423C) Render.Flags0 and Render.Flags3 conditions are met
  7: 0x00F8 [0x5B] LOAD_EXT_SCHEDULER: Load scheduler "tla0" with entities [Rahal (ID: 17449532/0x010A423C), Rahal (ID: 17449532/0x010A423C)], work=1272*
  8: 0x0107 [0x1C] WAIT(108* ticks)
  9: 0x010A [0x5B] LOAD_EXT_SCHEDULER: Load scheduler "tla1" with entities [Rahal (ID: 17449532/0x010A423C), Rahal (ID: 17449532/0x010A423C)], work=1272*
 10: 0x0119 [0x00] END_REQSTACK()
```
