# Event 38

## Metadata

| Field           | Value    |
|-----------------|----------|
| Event Index     | 3/9      |
| Offset          | 0x002C   |
| Data Size       | 48 bytes |
| Calculated Size | 48 bytes |
| Instructions    | 10       |

```
      00 01 02 03 04 05 06 07  08 09 0A 0B 0C 0D 0E 0F
      -- -- -- -- -- -- -- --  -- -- -- -- -- -- -- --
0020:                                      1E F0 FF FF              ....
0030: 7F 6F 70 66 00 80 F8 FF  FF 7F F8 FF FF 7F 74 77  .opf..........tw
0040: 62 30 03 02 10 02 80 1D  03 80 23 66 00 80 F8 FF  b0........#f....
0050: FF 7F F8 FF FF 7F 74 77  62 31 21 00              ......twb1!.    
```

## Opcodes

```
  0: 0x002C [0x1E] EventEntity looks at LocalPlayer and starts talking
  1: 0x0031 [0x6F] WAIT_FRAME_DELAY: Yield until WaitTime reaches zero
  2: 0x0032 [0x70] WAIT_ENTITY_RENDER_FLAG: Wait while EventEntity->Render.Flags3 bit 2 is set (cancel turn if not)
  3: 0x0033 [0x66] LOAD_EXT_SCHEDULER_MAIN(work_offset=29*, entity1=EventEntity, entity2=EventEntity, action="twb0")
  4: 0x0042 [0x03] Work_Zone[2] = 2157*
  5: 0x0047 [0x1D] PRINT_EVENT_MESSAGE(message_id=7813*)
    → "How quaint. A stranger in these lands, without so much as \u0001\u00056\u0002\u0000\u0000\u0000 to prove \u007F\u0005[his/her] worth. Begone until you have procured the requisite authentication.\u007F1\u0000\u0007"
  6: 0x004A [0x23] WAIT_FOR_DIALOG_INTERACTION
  7: 0x004B [0x66] LOAD_EXT_SCHEDULER_MAIN(work_offset=29*, entity1=EventEntity, entity2=EventEntity, action="twb1")
  8: 0x005A [0x21] END_EVENT
  9: 0x005B [0x00] END_REQSTACK()
```
