# Event 42

## Metadata

| Field           | Value    |
|-----------------|----------|
| Event Index     | 5/9      |
| Offset          | 0x00B4   |
| Data Size       | 64 bytes |
| Calculated Size | 64 bytes |
| Instructions    | 14       |

```
      00 01 02 03 04 05 06 07  08 09 0A 0B 0C 0D 0E 0F
      -- -- -- -- -- -- -- --  -- -- -- -- -- -- -- --
00B0:             1E F0 FF FF  7F 42 6F 70 03 02 10 06      .....Bop....
00C0: 80 03 03 10 07 80 03 04  10 08 80 66 00 80 F8 FF  ...........f....
00D0: FF 7F F8 FF FF 7F 74 77  62 30 1D 0F 80 23 66 00  ......twb0...#f.
00E0: 80 F8 FF FF 7F F8 FF FF  7F 74 77 62 31 03 01 10  .........twb1...
00F0: 0E 80 21 00                                       ..!.            
```

## Opcodes

```
  0: 0x00B4 [0x1E] EventEntity looks at LocalPlayer and starts talking
  1: 0x00B9 [0x42] SET_CLI_EVENT_CANCEL_DATA()
  2: 0x00BA [0x6F] WAIT_FRAME_DELAY: Yield until WaitTime reaches zero
  3: 0x00BB [0x70] WAIT_ENTITY_RENDER_FLAG: Wait while EventEntity->Render.Flags3 bit 2 is set (cancel turn if not)
  4: 0x00BC [0x03] Work_Zone[2] = 3928*
  5: 0x00C1 [0x03] Work_Zone[3] = 3929*
  6: 0x00C6 [0x03] Work_Zone[4] = 2*
  7: 0x00CB [0x66] LOAD_EXT_SCHEDULER_MAIN(work_offset=29*, entity1=EventEntity, entity2=EventEntity, action="twb0")
  8: 0x00DA [0x1D] PRINT_EVENT_MESSAGE(message_id=7827*)
    → "Should you happen to come across \u0001\u0005%\u0002\u0000\u0000\u0000 or \u0001\u0005%\u0002\u0001\u0000\u0000 again, you only need bring them to me.\u007F1\u0000\u0007"
  9: 0x00DD [0x23] WAIT_FOR_DIALOG_INTERACTION
 10: 0x00DE [0x66] LOAD_EXT_SCHEDULER_MAIN(work_offset=29*, entity1=EventEntity, entity2=EventEntity, action="twb1")
 11: 0x00ED [0x03] Work_Zone[1] = 1*
 12: 0x00F2 [0x21] END_EVENT
 13: 0x00F3 [0x00] END_REQSTACK()
```
