# Event 43

## Metadata

| Field           | Value    |
|-----------------|----------|
| Event Index     | 8/9      |
| Offset          | 0x0191   |
| Data Size       | 58 bytes |
| Calculated Size | 58 bytes |
| Instructions    | 12       |

```
      00 01 02 03 04 05 06 07  08 09 0A 0B 0C 0D 0E 0F
      -- -- -- -- -- -- -- --  -- -- -- -- -- -- -- --
0190:    1E F0 FF FF 7F 6F 70  03 02 10 06 80 03 03 10   .....op........
01A0: 07 80 03 04 10 08 80 66  00 80 F8 FF FF 7F F8 FF  .......f........
01B0: FF 7F 74 77 62 30 1D 09  80 23 66 00 80 F8 FF FF  ..twb0...#f.....
01C0: 7F F8 FF FF 7F 74 77 62  31 21 00                 .....twb1!.     
```

## Opcodes

```
  0: 0x0191 [0x1E] EventEntity looks at LocalPlayer and starts talking
  1: 0x0196 [0x6F] WAIT_FRAME_DELAY: Yield until WaitTime reaches zero
  2: 0x0197 [0x70] WAIT_ENTITY_RENDER_FLAG: Wait while EventEntity->Render.Flags3 bit 2 is set (cancel turn if not)
  3: 0x0198 [0x03] Work_Zone[2] = 3928*
  4: 0x019D [0x03] Work_Zone[3] = 3929*
  5: 0x01A2 [0x03] Work_Zone[4] = 2*
  6: 0x01A7 [0x66] LOAD_EXT_SCHEDULER_MAIN: Load scheduler "twb0" with entities [EventEntity, EventEntity], work=29*
  7: 0x01B6 [0x1D] PRINT_EVENT_MESSAGE(message_id=7817*)
    → "I require that you secure Velkk equipment to prove that you have helped cement our operations in this area. A total of 
\u0002 \u0001\u0005%\u0002\u0000\u0000\u0000 or \u0001\u0005%\u0002\u0001\u0000\u0000 should suffice.\u007F1\u0000\u0007"
  8: 0x01B9 [0x23] WAIT_FOR_DIALOG_INTERACTION
  9: 0x01BA [0x66] LOAD_EXT_SCHEDULER_MAIN: Load scheduler "twb1" with entities [EventEntity, EventEntity], work=29*
 10: 0x01C9 [0x21] END_EVENT
 11: 0x01CA [0x00] END_REQSTACK()
```
