# Event 807

## Metadata

| Field           | Value    |
|-----------------|----------|
| Event Index     | 12/21    |
| Offset          | 0x0050   |
| Data Size       | 49 bytes |
| Calculated Size | 49 bytes |
| Instructions    | 11       |

```
      00 01 02 03 04 05 06 07  08 09 0A 0B 0C 0D 0E 0F
      -- -- -- -- -- -- -- --  -- -- -- -- -- -- -- --
0050: 42 48 08 80 1E F0 FF FF  7F 1D 09 80 23 66 07 80  BH..........#f..
0060: F8 FF FF 7F F8 FF FF 7F  74 6C 6B 30 1D 0A 80 23  ........tlk0...#
0070: 66 07 80 F8 FF FF 7F F8  FF FF 7F 74 6C 6B 31 21  f..........tlk1!
0080: 00                                                .               
```

## Opcodes

```
  0: 0x0050 [0x42] SET_CLI_EVENT_CANCEL_DATA()
  1: 0x0051 [0x48] [System] [10363*]:
    → "\u001F\u000F\u0008's badge flashes brightly.\u007F1\u0000\u0007"
  2: 0x0054 [0x1E] EventEntity looks at LocalPlayer and starts talking
  3: 0x0059 [0x1D] PRINT_EVENT_MESSAGE(message_id=10364*)
    → "The design on that badge...\u0007Is it, perchance, related to that mercenary company all of San d'Oria is gossiping about?\u0007The Near East...\u007F1\u0000\u0007"
  4: 0x005C [0x23] WAIT_FOR_DIALOG_INTERACTION
  5: 0x005D [0x66] LOAD_EXT_SCHEDULER_MAIN(work_offset=30*, entity1=EventEntity, entity2=EventEntity, action="tlk0")
  6: 0x006C [0x1D] PRINT_EVENT_MESSAGE(message_id=10365*)
    → "You adventurers always seem to be two steps ahead.\u0007If only my fellow countrymen were as perceptive...\u007F1\u0000\u0007"
  7: 0x006F [0x23] WAIT_FOR_DIALOG_INTERACTION
  8: 0x0070 [0x66] LOAD_EXT_SCHEDULER_MAIN(work_offset=30*, entity1=EventEntity, entity2=EventEntity, action="tlk1")
  9: 0x007F [0x21] END_EVENT
 10: 0x0080 [0x00] END_REQSTACK()
```
