# Event 65535

## Metadata

| Field           | Value    |
|-----------------|----------|
| Event Index     | 6/23     |
| Offset          | 0x000D   |
| Data Size       | 47 bytes |
| Calculated Size | 47 bytes |
| Instructions    | 11       |

```
      00 01 02 03 04 05 06 07  08 09 0A 0B 0C 0D 0E 0F
      -- -- -- -- -- -- -- --  -- -- -- -- -- -- -- --
0000:                                         4B F8 FF               K..
0010: FF 7F 02 80 6F 76 F8 FF  FF 7F 32 03 80 1F 00 04  ....ov....2.....
0020: 80 05 80 06 80 1F 01 1F  00 07 80 08 80 06 80 1F  ................
0030: 01 1F 00 09 80 0A 80 06  80 1F 01 00              ............    
```

## Opcodes

```
  0: 0x000D [0x4B] UPDATE_ENTITY_YAW(entity=EventEntity, yaw=5.49°*)
  1: 0x0014 [0x6F] WAIT_FRAME_DELAY: Yield until WaitTime reaches zero
  2: 0x0015 [0x76] CHECK_ENTITY_RENDER_FLAGS: Wait until EventEntity Render.Flags0 and Render.Flags3 conditions are met
  3: 0x001A [0x32] ExtData[1]->MainSpeed = 43* * 0.1
  4: 0x001D [0x1F] MOVE_ENTITY: EventEntity moves to X=-301.911*, Z=-2.487*, Y=-47.999*
  5: 0x0025 [0x1F] MOVE_ENTITY: Update entity position (mode=1)
  6: 0x0027 [0x1F] MOVE_ENTITY: EventEntity moves to X=-307.836*, Z=-14.388*, Y=-47.999*
  7: 0x002F [0x1F] MOVE_ENTITY: Update entity position (mode=1)
  8: 0x0031 [0x1F] MOVE_ENTITY: EventEntity moves to X=-310.765*, Z=-15.803*, Y=-47.999*
  9: 0x0039 [0x1F] MOVE_ENTITY: Update entity position (mode=1)
 10: 0x003B [0x00] END_REQSTACK()
```
