# Event 149

## Metadata

| Field           | Value    |
|-----------------|----------|
| Event Index     | 71/96    |
| Offset          | 0x04FD   |
| Data Size       | 46 bytes |
| Calculated Size | 46 bytes |
| Instructions    | 11       |

```
      00 01 02 03 04 05 06 07  08 09 0A 0B 0C 0D 0E 0F
      -- -- -- -- -- -- -- --  -- -- -- -- -- -- -- --
04F0:                                         1E F0 FF               ...
0500: FF 7F 6F 70 29 0B 26 20  0F 01 47 29 0B 26 20 0F  ..op).& ..G).& .
0510: 01 48 29 0B 26 20 0F 01  49 29 0B 26 20 0F 01 4A  .H).& ..I).& ..J
0520: 29 0B 26 20 0F 01 4B 20  00 21 00                 ).& ..K .!.     
```

## Opcodes

```
  0: 0x04FD [0x1E] EventEntity looks at LocalPlayer and starts talking
  1: 0x0502 [0x6F] WAIT_FRAME_DELAY: Yield until WaitTime reaches zero
  2: 0x0503 [0x70] WAIT_ENTITY_RENDER_FLAG: Wait while EventEntity->Render.Flags3 bit 2 is set (cancel turn if not)
  3: 0x0504 [0x29] REQ_SET_WAIT(priority=0x0B, entity_id=Zubaba (ID: 17768486/0x010F2026), tag_num=0x47)
  4: 0x050B [0x29] REQ_SET_WAIT(priority=0x0B, entity_id=Zubaba (ID: 17768486/0x010F2026), tag_num=0x48)
  5: 0x0512 [0x29] REQ_SET_WAIT(priority=0x0B, entity_id=Zubaba (ID: 17768486/0x010F2026), tag_num=0x49)
  6: 0x0519 [0x29] REQ_SET_WAIT(priority=0x0B, entity_id=Zubaba (ID: 17768486/0x010F2026), tag_num=0x4A)
  7: 0x0520 [0x29] REQ_SET_WAIT(priority=0x0B, entity_id=Zubaba (ID: 17768486/0x010F2026), tag_num=0x4B)
  8: 0x0527 [0x20] SET_CLI_EVENT_UC_FLAG: Unlock player control
  9: 0x0529 [0x21] END_EVENT
 10: 0x052A [0x00] END_REQSTACK()
```
