# Event 328

## Metadata

| Field           | Value    |
|-----------------|----------|
| Event Index     | 89/96    |
| Offset          | 0x0766   |
| Data Size       | 33 bytes |
| Calculated Size | 33 bytes |
| Instructions    | 12       |

```
      00 01 02 03 04 05 06 07  08 09 0A 0B 0C 0D 0E 0F
      -- -- -- -- -- -- -- --  -- -- -- -- -- -- -- --
0760:                   1E F0  FF FF 7F 6F 70 1D 58 80        .....op.X.
0770: 23 29 08 26 20 0F 01 13  1D 59 80 23 29 08 26 20  #).& ....Y.#).& 
0780: 0F 01 14 20 00 21 00                              ... .!.         
```

## Opcodes

```
  0: 0x0766 [0x1E] EventEntity looks at LocalPlayer and starts talking
  1: 0x076B [0x6F] WAIT_FRAME_DELAY: Yield until WaitTime reaches zero
  2: 0x076C [0x70] WAIT_ENTITY_RENDER_FLAG: Wait while EventEntity->Render.Flags3 bit 2 is set (cancel turn if not)
  3: 0x076D [0x1D] PRINT_EVENT_MESSAGE(message_id=8214*)
    → "You want to know how to make the charm that opens the Dark Dungeon...?\u0007Whatever do you hope to gain by asking me such a ridiculous question?\u007F1\u0000\u0007"
  4: 0x0770 [0x23] WAIT_FOR_DIALOG_INTERACTION
  5: 0x0771 [0x29] REQ_SET_WAIT(priority=0x08, entity_id=Zubaba (ID: 17768486/0x010F2026), tag_num=0x13)
  6: 0x0778 [0x1D] PRINT_EVENT_MESSAGE(message_id=8215*)
    → "I will never betray the Star Sibyl! While I still have breath in my body, I will stand against anyone who tries to do so!\u007F1\u0000\u0007"
  7: 0x077B [0x23] WAIT_FOR_DIALOG_INTERACTION
  8: 0x077C [0x29] REQ_SET_WAIT(priority=0x08, entity_id=Zubaba (ID: 17768486/0x010F2026), tag_num=0x14)
  9: 0x0783 [0x20] SET_CLI_EVENT_UC_FLAG: Unlock player control
 10: 0x0785 [0x21] END_EVENT
 11: 0x0786 [0x00] END_REQSTACK()
```
