# Event 65535

## Metadata

| Field           | Value    |
|-----------------|----------|
| Event Index     | 45/96    |
| Offset          | 0x0325   |
| Data Size       | 37 bytes |
| Calculated Size | 37 bytes |
| Instructions    | 9        |

```
      00 01 02 03 04 05 06 07  08 09 0A 0B 0C 0D 0E 0F
      -- -- -- -- -- -- -- --  -- -- -- -- -- -- -- --
0320:                29 08 26  20 0F 01 03 1D 1C 80 23       ).& ......#
0330: 29 08 26 20 0F 01 04 29  08 26 20 0F 01 05 1D 1D  ).& ...).& .....
0340: 80 23 29 08 26 20 0F 01  06 00                    .#).& ....      
```

## Opcodes

```
  0: 0x0325 [0x29] REQ_SET_WAIT(priority=0x08, entity_id=Zubaba (ID: 17768486/0x010F2026), tag_num=0x03)
  1: 0x032C [0x1D] PRINT_EVENT_MESSAGE(message_id=218*)
    → "I have heard of your exploits from the young lady in the Clerical Chamber.\u007F1\u0000\u0007"
  2: 0x032F [0x23] WAIT_FOR_DIALOG_INTERACTION
  3: 0x0330 [0x29] REQ_SET_WAIT(priority=0x08, entity_id=Zubaba (ID: 17768486/0x010F2026), tag_num=0x04)
  4: 0x0337 [0x29] REQ_SET_WAIT(priority=0x08, entity_id=Zubaba (ID: 17768486/0x010F2026), tag_num=0x05)
  5: 0x033E [0x1D] PRINT_EVENT_MESSAGE(message_id=219*)
    → "What we ladies-in-waiting need right now is an adventurer of good standing.\u007F1\u0000\u0007"
  6: 0x0341 [0x23] WAIT_FOR_DIALOG_INTERACTION
  7: 0x0342 [0x29] REQ_SET_WAIT(priority=0x08, entity_id=Zubaba (ID: 17768486/0x010F2026), tag_num=0x06)
  8: 0x0349 [0x00] END_REQSTACK()
```
