# Event 65535

## Metadata

| Field           | Value    |
|-----------------|----------|
| Event Index     | 15/15    |
| Offset          | 0x00DB   |
| Data Size       | 85 bytes |
| Calculated Size | 85 bytes |
| Instructions    | 12       |

```
      00 01 02 03 04 05 06 07  08 09 0A 0B 0C 0D 0E 0F
      -- -- -- -- -- -- -- --  -- -- -- -- -- -- -- --
00D0:                                   4E 00 49 90 0C             N.I..
00E0: 01 4E 00 48 90 0C 01 80  49 90 0C 01 80 48 90 0C  .N.H....I....H..
00F0: 01 66 04 80 F8 FF FF 7F  F8 FF FF 7F 6D 61 69 6E  .f..........main
0100: 53 F8 FF FF 7F F8 FF FF  7F 6D 61 69 6E 1C 05 80  S........main...
0110: 66 04 80 F8 FF FF 7F F8  FF FF 7F 6D 61 69 6E 53  f..........mainS
0120: F8 FF FF 7F F8 FF FF 7F  6D 61 69 6E 20 00 21 00  ........main .!.
```

## Opcodes

```
  0: 0x00DB [0x4E] SET_ENTITY_HIDE_FLAG: Show Ildy-Goldy (ID: 17600585/0x010C9049)
  1: 0x00E1 [0x4E] SET_ENTITY_HIDE_FLAG: Show EV_GARUDA (ID: 17600584/0x010C9048)
  2: 0x00E7 [0x80] LOAD_WAIT(entity=Ildy-Goldy (ID: 17600585/0x010C9049))
  3: 0x00EC [0x80] LOAD_WAIT(entity=EV_GARUDA (ID: 17600584/0x010C9048))
  4: 0x00F1 [0x66] LOAD_EXT_SCHEDULER_MAIN: Load scheduler "main" with entities [EventEntity, EventEntity], work=47*
  5: 0x0100 [0x53] WAIT_SCHEDULER_TASK: Wait for scheduler "main" with entities [EventEntity, EventEntity]
  6: 0x010D [0x1C] WAIT(100* ticks)
  7: 0x0110 [0x66] LOAD_EXT_SCHEDULER_MAIN: Load scheduler "main" with entities [EventEntity, EventEntity], work=47*
  8: 0x011F [0x53] WAIT_SCHEDULER_TASK: Wait for scheduler "main" with entities [EventEntity, EventEntity]
  9: 0x012C [0x20] SET_CLI_EVENT_UC_FLAG: Unlock player control
 10: 0x012E [0x21] END_EVENT
 11: 0x012F [0x00] END_REQSTACK()
```
