# 17584456

## Common Data

| Field            | Value                    |
|------------------|--------------------------|
| Zone             | Crawlers' Nest (ID: 197) |
| Block Size       | 44 bytes                 |
| Total Events     | 2                        |
| References Count | 2                        |

## List of Events

| Event ID              | Entrypoint   |   Size |   Instructions |
|-----------------------|--------------|--------|----------------|
| [65535](#event-65535) | 0x0000       |      1 |              1 |
| [3](#event-3)         | 0x0001       |      9 |              5 |

## DAT References (imed_data)

|   Index | Hex Value   |   Dec Value |
|---------|-------------|-------------|
|       0 | 0x0078      |         120 |
|       1 | 0x1C5E      |        7262 |

## String References

- **7262**: Nothing happens.

## Events

### Event 65535

#### Metadata

| Field        | Value   |
|--------------|---------|
| Entrypoint   | 0x0000  |
| Data Size    | 1 bytes |
| Instructions | 1       |

```
      00 01 02 03 04 05 06 07  08 09 0A 0B 0C 0D 0E 0F
      -- -- -- -- -- -- -- --  -- -- -- -- -- -- -- --
0000: 00                                                .               
```

#### Opcodes

```
  0: 0x0000 [0x00] END_REQSTACK()
```

### Event 3

#### Metadata

| Field        | Value   |
|--------------|---------|
| Entrypoint   | 0x0001  |
| Data Size    | 9 bytes |
| Instructions | 5       |

```
      00 01 02 03 04 05 06 07  08 09 0A 0B 0C 0D 0E 0F
      -- -- -- -- -- -- -- --  -- -- -- -- -- -- -- --
0000:    1C 00 80 48 01 80 23  21 00                     ...H..#!.      
```

#### Opcodes

```
  0: 0x0001 [0x1C] WAIT(120* ticks)
  1: 0x0004 [0x48] [System] [7262*]:
    → "Nothing happens."
  2: 0x0007 [0x23] WAIT_FOR_DIALOG_INTERACTION
  3: 0x0008 [0x21] END_EVENT
  4: 0x0009 [0x00] END_REQSTACK()
```
