# Event 609

## Metadata

| Field           | Value    |
|-----------------|----------|
| Event Index     | 4/18     |
| Offset          | 0x005E   |
| Data Size       | 43 bytes |
| Calculated Size | 43 bytes |
| Instructions    | 13       |

```
      00 01 02 03 04 05 06 07  08 09 0A 0B 0C 0D 0E 0F
      -- -- -- -- -- -- -- --  -- -- -- -- -- -- -- --
0050:                                            1E F0                ..
0060: FF FF 7F 6F 70 5B 00 80  F8 FF FF 7F F8 FF FF 7F  ...op[..........
0070: 74 6C 6B 30 1D 07 80 23  1C 02 80 1D 08 80 23 5E  tlk0...#......#^
0080: 69 64 6C 30 1C 02 80 21  00                       idl0...!.       
```

## Opcodes

```
  0: 0x005E [0x1E] EventEntity looks at LocalPlayer and starts talking
  1: 0x0063 [0x6F] WAIT_FRAME_DELAY: Yield until WaitTime reaches zero
  2: 0x0064 [0x70] WAIT_ENTITY_RENDER_FLAG: Wait while EventEntity->Render.Flags3 bit 2 is set (cancel turn if not)
  3: 0x0065 [0x5B] LOAD_EXT_SCHEDULER: Load scheduler "tlk0" with entities [EventEntity, EventEntity], work=35*
  4: 0x0074 [0x1D] PRINT_EVENT_MESSAGE(message_id=8085*)
    → "You found Vicasque Arnau and he took my donation? Thank you so much!\u007F1\u0000\u0007"
  5: 0x0077 [0x23] WAIT_FOR_DIALOG_INTERACTION
  6: 0x0078 [0x1C] WAIT(30* ticks)
  7: 0x007B [0x1D] PRINT_EVENT_MESSAGE(message_id=8086*)
    → "Please accept this as a token of my gratitude.\u007F1\u0000\u0007"
  8: 0x007E [0x23] WAIT_FOR_DIALOG_INTERACTION
  9: 0x007F [0x5E] EventEntity goes idle (kills current action) (animation: "idl0")
 10: 0x0084 [0x1C] WAIT(30* ticks)
 11: 0x0087 [0x21] END_EVENT
 12: 0x0088 [0x00] END_REQSTACK()
```
