# Event 64

## Metadata

| Field           | Value    |
|-----------------|----------|
| Event Index     | 9/10     |
| Offset          | 0x007F   |
| Data Size       | 26 bytes |
| Calculated Size | 26 bytes |
| Instructions    | 10       |

```
      00 01 02 03 04 05 06 07  08 09 0A 0B 0C 0D 0E 0F
      -- -- -- -- -- -- -- --  -- -- -- -- -- -- -- --
0070:                                               42                 B
0080: 1E F0 FF FF 7F 03 02 10  0C 80 1D 0D 80 23 03 03  .............#..
0090: 10 0E 80 1D 0F 80 23 21  00                       ......#!.       
```

## Opcodes

```
  0: 0x007F [0x42] SET_CLI_EVENT_CANCEL_DATA()
  1: 0x0080 [0x1E] EventEntity looks at LocalPlayer and starts talking
  2: 0x0085 [0x03] Work_Zone[2] = 971*
  3: 0x008A [0x1D] PRINT_EVENT_MESSAGE(message_id=7346*)
    → "Ack-ack-ack!\u0007Why smoothskin here? Squawk? You are searching for \u0001\u00053\u0002\u0000\u0000\u0000?\u007F1\u0000\u0007"
  4: 0x008D [0x23] WAIT_FOR_DIALOG_INTERACTION
  5: 0x008E [0x03] Work_Zone[3] = 749*
  6: 0x0093 [0x1D] PRINT_EVENT_MESSAGE(message_id=7347*)
    → "I am having that book. You are giving me \u0001\u0005#\u0002\u0001\u0000\u0000, and I give book.\u007F1\u0000\u0007"
  7: 0x0096 [0x23] WAIT_FOR_DIALOG_INTERACTION
  8: 0x0097 [0x21] END_EVENT
  9: 0x0098 [0x00] END_REQSTACK()
```
