# Event 65535

## Metadata

| Field           | Value    |
|-----------------|----------|
| Event Index     | 83/171   |
| Offset          | 0x0AD5   |
| Data Size       | 73 bytes |
| Calculated Size | 73 bytes |
| Instructions    | 7        |

```
      00 01 02 03 04 05 06 07  08 09 0A 0B 0C 0D 0E 0F
      -- -- -- -- -- -- -- --  -- -- -- -- -- -- -- --
0AD0:                C5 47 80  F5 02 05 01 F5 02 05 01       .G.........
0AE0: 6D 61 69 6E 02 80 C5 47  80 F6 02 05 01 F6 02 05  main...G........
0AF0: 01 6D 61 69 6E 02 80 1C  88 80 52 86 80 F0 FF FF  .main.....R.....
0B00: 7F F0 FF FF 7F 30 36 30  76 45 86 80 F0 FF FF 7F  .....060vE......
0B10: F0 FF FF 7F 30 36 31 6A  02 80 1C 89 80 00        ....061j......  
```

## Opcodes

```
  0: 0x0AD5 [0xC5] LOAD_SCHEDULED_TASK_ALT3: Load scheduler 0x80026E69 for entities [Unnamed NPC (ID: 17105653/0x010502F5), Unnamed NPC (ID: 17105653/0x010502F5)], work=76*, param=24941
  1: 0x0AE6 [0xC5] LOAD_SCHEDULED_TASK_ALT3: Load scheduler 0x80026E69 for entities [Unnamed NPC (ID: 17105654/0x010502F6), Unnamed NPC (ID: 17105654/0x010502F6)], work=76*, param=24941
  2: 0x0AF7 [0x1C] WAIT(50* ticks)
  3: 0x0AFA [0x52] END_LOAD_SCHEDULER: End scheduler "060v" with entities [LocalPlayer, LocalPlayer], work=501*
  4: 0x0B09 [0x45] LOAD_SCHEDULED_TASK(work_offset1=501*, entity1=LocalPlayer, entity2=LocalPlayer, scheduler_id="061j", work_offset2=0*)
  5: 0x0B1A [0x1C] WAIT(300* ticks)
  6: 0x0B1D [0x00] END_REQSTACK()
```
