# Event 65535

## Metadata

| Field           | Value    |
|-----------------|----------|
| Event Index     | 76/171   |
| Offset          | 0x0870   |
| Data Size       | 78 bytes |
| Calculated Size | 78 bytes |
| Instructions    | 8        |

```
      00 01 02 03 04 05 06 07  08 09 0A 0B 0C 0D 0E 0F
      -- -- -- -- -- -- -- --  -- -- -- -- -- -- -- --
0870: C5 82 80 F9 02 05 01 F9  02 05 01 73 30 30 30 02  ...........s000.
0880: 80 1C 1D 80 C5 83 80 F9  02 05 01 F5 02 05 01 6D  ...............m
0890: 61 69 6E 02 80 1C 5B 80  C5 82 80 F9 02 05 01 F9  ain...[.........
08A0: 02 05 01 73 30 30 31 02  80 1C 84 80 C5 82 80 F9  ...s001.........
08B0: 02 05 01 F9 02 05 01 6B  69 6C 61 02 80 00        .......kila...  
```

## Opcodes

```
  0: 0x0870 [0xC5] LOAD_SCHEDULED_TASK_ALT3: Load scheduler 0x80023030 for entities [Unnamed NPC (ID: 17105657/0x010502F9), Unnamed NPC (ID: 17105657/0x010502F9)], work=16*, param=12403
  1: 0x0881 [0x1C] WAIT(30* ticks)
  2: 0x0884 [0xC5] LOAD_SCHEDULED_TASK_ALT3: Load scheduler 0x80026E69 for entities [Unnamed NPC (ID: 17105657/0x010502F9), Unnamed NPC (ID: 17105653/0x010502F5)], work=153*, param=24941
  3: 0x0895 [0x1C] WAIT(60* ticks)
  4: 0x0898 [0xC5] LOAD_SCHEDULED_TASK_ALT3: Load scheduler 0x80023130 for entities [Unnamed NPC (ID: 17105657/0x010502F9), Unnamed NPC (ID: 17105657/0x010502F9)], work=16*, param=12403
  5: 0x08A9 [0x1C] WAIT(120* ticks)
  6: 0x08AC [0xC5] LOAD_SCHEDULED_TASK_ALT3: Load scheduler 0x8002616C for entities [Unnamed NPC (ID: 17105657/0x010502F9), Unnamed NPC (ID: 17105657/0x010502F9)], work=16*, param=26987
  7: 0x08BD [0x00] END_REQSTACK()
```
