# Event 65535

## Metadata

| Field           | Value    |
|-----------------|----------|
| Event Index     | 113/171  |
| Offset          | 0x0ED6   |
| Data Size       | 49 bytes |
| Calculated Size | 49 bytes |
| Instructions    | 11       |

```
      00 01 02 03 04 05 06 07  08 09 0A 0B 0C 0D 0E 0F
      -- -- -- -- -- -- -- --  -- -- -- -- -- -- -- --
0ED0:                   32 07  80 1F 00 8B 80 8C 80 02        2.........
0EE0: 80 1F 01 59 05 F0 FF FF  7F 01 5A 00 8D 80 8E 80  ...Y......Z.....
0EF0: 29 80 5A 01 59 05 F0 FF  FF 7F 00 1F 00 8F 80 90  ).Z.Y...........
0F00: 80 29 80 1F 01 6F 00                              .)...o.         
```

## Opcodes

```
  0: 0x0ED6 [0x32] ExtData[1]->MainSpeed = 13* * 0.1
  1: 0x0ED9 [0x1F] MOVE_ENTITY: EventEntity moves to X=106.445*, Z=-50.229*, Y=0.000*
  2: 0x0EE1 [0x1F] MOVE_ENTITY: Update entity position (mode=1)
  3: 0x0EE3 [0x59] UPDATE_ENTITY_DATA: LocalPlayer->Render.Flags0 |= 0x200000
  4: 0x0EEA [0x5A] UPDATE_EVENT_POSITION: Set EventEntity MovePosition to X=105.069*, Z=-48.784*, Y=0.999*
  5: 0x0EF2 [0x5A] UPDATE_EVENT_POSITION: Move EventEntity incrementally towards MovePosition
  6: 0x0EF4 [0x59] UPDATE_ENTITY_DATA: LocalPlayer->Render.Flags0 &= ~0x200000
  7: 0x0EFB [0x1F] MOVE_ENTITY: EventEntity moves to X=103.758*, Z=-47.563*, Y=0.999*
  8: 0x0F03 [0x1F] MOVE_ENTITY: Update entity position (mode=1)
  9: 0x0F05 [0x6F] WAIT_FRAME_DELAY: Yield until WaitTime reaches zero
 10: 0x0F06 [0x00] END_REQSTACK()
```
