# Event 65535

## Metadata

| Field           | Value    |
|-----------------|----------|
| Event Index     | 86/171   |
| Offset          | 0x0C1D   |
| Data Size       | 72 bytes |
| Calculated Size | 72 bytes |
| Instructions    | 8        |

```
      00 01 02 03 04 05 06 07  08 09 0A 0B 0C 0D 0E 0F
      -- -- -- -- -- -- -- --  -- -- -- -- -- -- -- --
0C10:                                         52 86 80               R..
0C20: F0 FF FF 7F F0 FF FF 7F  30 36 31 31 45 86 80 F0  ........0611E...
0C30: FF FF 7F F0 FF FF 7F 30  36 31 39 02 80 1C 1D 80  .......0619.....
0C40: C5 00 80 F7 02 05 01 FA  02 05 01 6D 61 69 6E 02  ...........main.
0C50: 80 1C 21 80 2C FA 02 05  01 FA 02 05 01 64 65 61  ..!.,........dea
0C60: 64 1C 87 80 00                                    d....           
```

## Opcodes

```
  0: 0x0C1D [0x52] END_LOAD_SCHEDULER: End scheduler "0611" with entities [LocalPlayer, LocalPlayer], work=501*
  1: 0x0C2C [0x45] LOAD_SCHEDULED_TASK: Load scheduler "0619" with entities [LocalPlayer, LocalPlayer], work=[501*, 0*]
  2: 0x0C3D [0x1C] WAIT(30* ticks)
  3: 0x0C40 [0xC5] LOAD_SCHEDULED_TASK_ALT3: Load scheduler 0x80026E69 for entities [Unnamed NPC (ID: 17105655/0x010502F7), Unnamed NPC (ID: 17105658/0x010502FA)], work=154*, param=24941
  4: 0x0C51 [0x1C] WAIT(90* ticks)
  5: 0x0C54 [0x2C] CREATE_SCHEDULER_TASK: Create scheduler "dead" with entities [Unnamed NPC (ID: 17105658/0x010502FA), Unnamed NPC (ID: 17105658/0x010502FA)]
  6: 0x0C61 [0x1C] WAIT(240* ticks)
  7: 0x0C64 [0x00] END_REQSTACK()
```
