# Event 65535

## Metadata

| Field           | Value    |
|-----------------|----------|
| Event Index     | 19/27    |
| Offset          | 0x0127   |
| Data Size       | 45 bytes |
| Calculated Size | 45 bytes |
| Instructions    | 8        |

```
      00 01 02 03 04 05 06 07  08 09 0A 0B 0C 0D 0E 0F
      -- -- -- -- -- -- -- --  -- -- -- -- -- -- -- --
0120:                      79  02 F8 FF FF 7F 0C 80 0D         y........
0130: 80 1C 0E 80 79 02 F8 FF  FF 7F 0C 80 0F 80 1C 0E  ....y...........
0140: 80 79 02 F8 FF FF 7F 0C  80 0D 80 1C 0E 80 7B F8  .y............{.
0150: FF FF 7F 00                                       ....            
```

## Opcodes

```
  0: 0x0127 [0x79] EventEntity looks at Unknown NPC (ID: 2148368396/0x800D800C) (Direct axis set)
  1: 0x0131 [0x1C] WAIT(180* ticks)
  2: 0x0134 [0x79] EventEntity looks at Unknown NPC (ID: 2148499468/0x800F800C) (Direct axis set)
  3: 0x013E [0x1C] WAIT(180* ticks)
  4: 0x0141 [0x79] EventEntity looks at Unknown NPC (ID: 2148368396/0x800D800C) (Direct axis set)
  5: 0x014B [0x1C] WAIT(180* ticks)
  6: 0x014E [0x7B] EventEntity stops talking
  7: 0x0153 [0x00] END_REQSTACK()
```
