# Event 296

## Metadata

| Field           | Value    |
|-----------------|----------|
| Event Index     | 6/12     |
| Offset          | 0x0120   |
| Data Size       | 28 bytes |
| Calculated Size | 28 bytes |
| Instructions    | 11       |

```
      00 01 02 03 04 05 06 07  08 09 0A 0B 0C 0D 0E 0F
      -- -- -- -- -- -- -- --  -- -- -- -- -- -- -- --
0120: 1E F0 FF FF 7F 6F 70 02  03 10 08 80 00 36 01 1D  .....op......6..
0130: 15 80 23 01 3A 01 1D 16  80 23 21 00              ..#.:....#!.    
```

## Opcodes

```
  0: 0x0120 [0x1E] EventEntity looks at LocalPlayer and starts talking
  1: 0x0125 [0x6F] WAIT_FRAME_DELAY: Yield until WaitTime reaches zero
  2: 0x0126 [0x70] WAIT_ENTITY_RENDER_FLAG: Wait while EventEntity->Render.Flags3 bit 2 is set (cancel turn if not)
  3: 0x0127 [0x02] IF !(Work_Zone[3] == 1*) GOTO 0x0136
  4: 0x012F [0x1D] PRINT_EVENT_MESSAGE(message_id=7959*)
    → "I would not have expected to find a \u007F\u0005[brother/sister] of the path on these distant shores.\u0007Though it does little to avail us now...\u007F1\u0000\u0007"
  5: 0x0132 [0x23] WAIT_FOR_DIALOG_INTERACTION
  6: 0x0133 [0x01] GOTO 0x013A
  7: 0x0136 [0x1D] PRINT_EVENT_MESSAGE(message_id=7960*)
    → "Please leave me alone with my thoughts for a while.\u0007Unless you'd like me to kill you. That could be arranged.\u007F1\u0000\u0007"
  8: 0x0139 [0x23] WAIT_FOR_DIALOG_INTERACTION

SUBROUTINE_013A:
  9: 0x013A [0x21] END_EVENT
 10: 0x013B [0x00] END_REQSTACK()
```
