# Event 185

## Metadata

| Field           | Value    |
|-----------------|----------|
| Event Index     | 20/35    |
| Offset          | 0x012B   |
| Data Size       | 33 bytes |
| Calculated Size | 33 bytes |
| Instructions    | 12       |

```
      00 01 02 03 04 05 06 07  08 09 0A 0B 0C 0D 0E 0F
      -- -- -- -- -- -- -- --  -- -- -- -- -- -- -- --
0120:                                   1E F0 FF FF 7F             .....
0130: 6F 70 29 08 34 E0 0E 01  01 1D 07 80 23 1D 08 80  op).4.......#...
0140: 23 29 08 34 E0 0E 01 02  20 00 21 00              #).4.... .!.    
```

## Opcodes

```
  0: 0x012B [0x1E] EventEntity looks at LocalPlayer and starts talking
  1: 0x0130 [0x6F] WAIT_FRAME_DELAY: Yield until WaitTime reaches zero
  2: 0x0131 [0x70] WAIT_ENTITY_RENDER_FLAG: Wait while EventEntity->Render.Flags3 bit 2 is set (cancel turn if not)
  3: 0x0132 [0x29] REQ_SET_WAIT(priority=0x08, entity_id=Pechiru-Mashiru (ID: 17752116/0x010EE034), tag_num=0x01)
  4: 0x0139 [0x1D] PRINT_EVENT_MESSAGE(message_id=7747*)
    → "There, there, don't be such a square.\u0007Loosen up a little, gee...\u0007Be more footloose and fancy free.\u007F1\u0000\u0007"
  5: 0x013C [0x23] WAIT_FOR_DIALOG_INTERACTION
  6: 0x013D [0x1D] PRINT_EVENT_MESSAGE(message_id=7748*)
    → "Do not worry that your grading shall\u0007smite the student's fate forever, pal.\u0007When he grows up, pray, he's not going to say,\u0007\u00072That teacher made me who I am today.\u00073\u007F1\u0000\u0007"
  7: 0x0140 [0x23] WAIT_FOR_DIALOG_INTERACTION
  8: 0x0141 [0x29] REQ_SET_WAIT(priority=0x08, entity_id=Pechiru-Mashiru (ID: 17752116/0x010EE034), tag_num=0x02)
  9: 0x0148 [0x20] SET_CLI_EVENT_UC_FLAG: Unlock player control
 10: 0x014A [0x21] END_EVENT
 11: 0x014B [0x00] END_REQSTACK()
```
