# Event 445

## Metadata

| Field           | Value    |
|-----------------|----------|
| Event Index     | 32/35    |
| Offset          | 0x02BE   |
| Data Size       | 33 bytes |
| Calculated Size | 33 bytes |
| Instructions    | 12       |

```
      00 01 02 03 04 05 06 07  08 09 0A 0B 0C 0D 0E 0F
      -- -- -- -- -- -- -- --  -- -- -- -- -- -- -- --
02B0:                                            1E F0                ..
02C0: FF FF 7F 6F 70 29 08 34  E0 0E 01 09 1D 1A 80 23  ...op).4.......#
02D0: 1D 1B 80 23 29 08 34 E0  0E 01 0F 20 00 21 00     ...#).4.... .!. 
```

## Opcodes

```
  0: 0x02BE [0x1E] EventEntity looks at LocalPlayer and starts talking
  1: 0x02C3 [0x6F] WAIT_FRAME_DELAY: Yield until WaitTime reaches zero
  2: 0x02C4 [0x70] WAIT_ENTITY_RENDER_FLAG: Wait while EventEntity->Render.Flags3 bit 2 is set (cancel turn if not)
  3: 0x02C5 [0x29] REQ_SET_WAIT(priority=0x08, entity_id=Pechiru-Mashiru (ID: 17752116/0x010EE034), tag_num=0x09)
  4: 0x02CC [0x1D] PRINT_EVENT_MESSAGE(message_id=8390*)
    → "Tests are a load of mumbo jumbo, you bet!\u0007Even if the students cram for an exam, I regret,\u0007the moment it's over they all but everything forget.\u007F1\u0000\u0007"
  5: 0x02CF [0x23] WAIT_FOR_DIALOG_INTERACTION
  6: 0x02D0 [0x1D] PRINT_EVENT_MESSAGE(message_id=8391*)
    → "A bit like life. And you ask why?\u0007You strive and strive, and then you die!\u0007And everyone forgets you. <sigh!>\u007F1\u0000\u0007"
  7: 0x02D3 [0x23] WAIT_FOR_DIALOG_INTERACTION
  8: 0x02D4 [0x29] REQ_SET_WAIT(priority=0x08, entity_id=Pechiru-Mashiru (ID: 17752116/0x010EE034), tag_num=0x0F)
  9: 0x02DB [0x20] SET_CLI_EVENT_UC_FLAG: Unlock player control
 10: 0x02DD [0x21] END_EVENT
 11: 0x02DE [0x00] END_REQSTACK()
```
