# Event 65535

## Metadata

| Field           | Value    |
|-----------------|----------|
| Event Index     | 5/8      |
| Offset          | 0x0023   |
| Data Size       | 65 bytes |
| Calculated Size | 65 bytes |
| Instructions    | 12       |

```
      00 01 02 03 04 05 06 07  08 09 0A 0B 0C 0D 0E 0F
      -- -- -- -- -- -- -- --  -- -- -- -- -- -- -- --
0020:          61 00 32 08 80  5B 09 80 4D 83 05 01 4D     a.2..[..M...M
0030: 83 05 01 6B 69 7A 31 53  4D 83 05 01 4D 83 05 01  ...kiz1SM...M...
0040: 6B 69 7A 31 1C 0A 80 4A  F8 FF FF 7F 48 83 05 01  kiz1...J....H...
0050: 6F 76 F8 FF FF 7F 1C 0B  80 1F 00 0C 80 0D 80 0E  ov..............
0060: 80 1F 01 00                                       ....            
```

## Opcodes

```
  0: 0x0023 [0x61] EventEntity->Render.Flags2 &= ~0x00000001
  1: 0x0025 [0x32] ExtData[1]->MainSpeed = 7* * 0.1
  2: 0x0028 [0x5B] LOAD_EXT_SCHEDULER(work_offset=2155*, entity1=Unnamed NPC (ID: 17138509/0x0105834D), entity2=Unnamed NPC (ID: 17138509/0x0105834D), action="kiz1")
  3: 0x0037 [0x53] WAIT_SCHEDULER_TASK(entity1=Unnamed NPC (ID: 17138509/0x0105834D), entity2=Unnamed NPC (ID: 17138509/0x0105834D), action_id="kiz1")
  4: 0x0044 [0x1C] WAIT(15* ticks)
  5: 0x0047 [0x4A] EventEntity looks at Babban Ny Mheillea (ID: 17138504/0x01058348)
  6: 0x0050 [0x6F] WAIT_FRAME_DELAY: Yield until WaitTime reaches zero
  7: 0x0051 [0x76] CHECK_ENTITY_RENDER_FLAGS: Wait until EventEntity Render.Flags0 and Render.Flags3 conditions are met
  8: 0x0056 [0x1C] WAIT(30* ticks)
  9: 0x0059 [0x1F] MOVE_ENTITY: EventEntity moves to X=-89.472*, Z=-331.024*, Y=7.067*
 10: 0x0061 [0x1F] MOVE_ENTITY: Update entity position (mode=1)
 11: 0x0063 [0x00] END_REQSTACK()
```
