# Event 65535

## Metadata

| Field           | Value    |
|-----------------|----------|
| Event Index     | 7/7      |
| Offset          | 0x0058   |
| Data Size       | 50 bytes |
| Calculated Size | 50 bytes |
| Instructions    | 10       |

```
      00 01 02 03 04 05 06 07  08 09 0A 0B 0C 0D 0E 0F
      -- -- -- -- -- -- -- --  -- -- -- -- -- -- -- --
0050:                          32 00 80 1F 00 02 80 03          2.......
0060: 80 04 80 1F 01 6F 4A 4C  42 0A 01 22 42 0A 01 7B  .....oJLB.."B..{
0070: 4C 42 0A 01 6F 76 4C 42  0A 01 5B 05 80 4C 42 0A  LB..ovLB..[..LB.
0080: 01 4C 42 0A 01 63 6F 6D  30 00                    .LB..com0.      
```

## Opcodes

```
  0: 0x0058 [0x32] ExtData[1]->MainSpeed = 40* * 0.1
  1: 0x005B [0x1F] MOVE_ENTITY: EventEntity moves to X=-27.964*, Z=-271.902*, Y=0.899*
  2: 0x0063 [0x1F] MOVE_ENTITY: Update entity position (mode=1)
  3: 0x0065 [0x6F] WAIT_FRAME_DELAY: Yield until WaitTime reaches zero
  4: 0x0066 [0x4A] D (ID: 17449548/0x010A424C) looks at Phyatte (ID: 17449506/0x010A4222)
  5: 0x006F [0x7B] D (ID: 17449548/0x010A424C) stops talking
  6: 0x0074 [0x6F] WAIT_FRAME_DELAY: Yield until WaitTime reaches zero
  7: 0x0075 [0x76] CHECK_ENTITY_RENDER_FLAGS: Wait until D (ID: 17449548/0x010A424C) Render.Flags0 and Render.Flags3 conditions are met
  8: 0x007A [0x5B] LOAD_EXT_SCHEDULER: Load scheduler "com0" with entities [D (ID: 17449548/0x010A424C), D (ID: 17449548/0x010A424C)], work=1433*
  9: 0x0089 [0x00] END_REQSTACK()
```
