# Event 65535

## Metadata

| Field           | Value    |
|-----------------|----------|
| Event Index     | 5/7      |
| Offset          | 0x0038   |
| Data Size       | 54 bytes |
| Calculated Size | 54 bytes |
| Instructions    | 11       |

```
      00 01 02 03 04 05 06 07  08 09 0A 0B 0C 0D 0E 0F
      -- -- -- -- -- -- -- --  -- -- -- -- -- -- -- --
0030:                          1E D3 30 04 01 37 09 80          ..0..7..
0040: 0A 80 0B 80 0C 80 32 0D  80 61 01 1F 00 0E 80 0F  ......2..a......
0050: 80 10 80 1F 01 6F 1E D3  30 04 01 1C 11 80 5B 12  .....o..0.....[.
0060: 80 00 31 04 01 00 31 04  01 77 6E 64 30 00        ..1...1..wnd0.  
```

## Opcodes

```
  0: 0x0038 [0x1E] EventEntity looks at ??? (ID: 17051859/0x010430D3) and starts talking
  1: 0x003D [0x37] UPDATE_EVENT_POSITION_AND_DIR: x=240.484*, z=237.547*, y=-31.439*, direction=34.4°*
  2: 0x0046 [0x32] ExtData[1]->MainSpeed = 11* * 0.1
  3: 0x0049 [0x61] EventEntity->Render.Flags2 |= 0x00000001
  4: 0x004B [0x1F] MOVE_ENTITY: EventEntity moves to X=241.369*, Z=237.725*, Y=-31.500*
  5: 0x0053 [0x1F] MOVE_ENTITY: Update entity position (mode=1)
  6: 0x0055 [0x6F] WAIT_FRAME_DELAY: Yield until WaitTime reaches zero
  7: 0x0056 [0x1E] EventEntity looks at ??? (ID: 17051859/0x010430D3) and starts talking
  8: 0x005B [0x1C] WAIT(3* ticks)
  9: 0x005E [0x5B] LOAD_EXT_SCHEDULER(work_offset=828*, entity1=Unnamed NPC (ID: 17051904/0x01043100), entity2=Unnamed NPC (ID: 17051904/0x01043100), action="wnd0")
 10: 0x006D [0x00] END_REQSTACK()
```
