# Event 13

## Metadata

| Field           | Value    |
|-----------------|----------|
| Event Index     | 11/13    |
| Offset          | 0x013D   |
| Data Size       | 65 bytes |
| Calculated Size | 65 bytes |
| Instructions    | 11       |

```
      00 01 02 03 04 05 06 07  08 09 0A 0B 0C 0D 0E 0F
      -- -- -- -- -- -- -- --  -- -- -- -- -- -- -- --
0130:                                         42 1E F0               B..
0140: FF FF 7F 6F 76 F8 FF FF  7F 5B 00 80 C4 B2 0A 01  ...ov....[......
0150: C4 B2 0A 01 74 6C 6B 30  2B C4 B2 0A 01 10 80 23  ....tlk0+......#
0160: 5B 00 80 C4 B2 0A 01 C4  B2 0A 01 74 6C 6B 31 53  [..........tlk1S
0170: C4 B2 0A 01 C4 B2 0A 01  74 6C 6B 31 21 00        ........tlk1!.  
```

## Opcodes

```
  0: 0x013D [0x42] SET_CLI_EVENT_CANCEL_DATA()
  1: 0x013E [0x1E] EventEntity looks at LocalPlayer and starts talking
  2: 0x0143 [0x6F] WAIT_FRAME_DELAY: Yield until WaitTime reaches zero
  3: 0x0144 [0x76] CHECK_ENTITY_RENDER_FLAGS: Wait until EventEntity Render.Flags0 and Render.Flags3 conditions are met
  4: 0x0149 [0x5B] LOAD_EXT_SCHEDULER(work_offset=238*, entity1=Tucker (ID: 17478340/0x010AB2C4), entity2=Tucker (ID: 17478340/0x010AB2C4), action="tlk0")
  5: 0x0158 [0x2B] Tucker (ID: 17478340/0x010AB2C4) [7660*]:
    → "Well, tickle my belly.\u0007I don't get too many customers all the way out here in this day and age.\u007F1\u0000\u0007"
  6: 0x015F [0x23] WAIT_FOR_DIALOG_INTERACTION
  7: 0x0160 [0x5B] LOAD_EXT_SCHEDULER(work_offset=238*, entity1=Tucker (ID: 17478340/0x010AB2C4), entity2=Tucker (ID: 17478340/0x010AB2C4), action="tlk1")
  8: 0x016F [0x53] WAIT_SCHEDULER_TASK(entity1=Tucker (ID: 17478340/0x010AB2C4), entity2=Tucker (ID: 17478340/0x010AB2C4), action_id="tlk1")
  9: 0x017C [0x21] END_EVENT
 10: 0x017D [0x00] END_REQSTACK()
```
