# Event 65535

## Metadata

| Field           | Value    |
|-----------------|----------|
| Event Index     | 4/12     |
| Offset          | 0x0010   |
| Data Size       | 70 bytes |
| Calculated Size | 70 bytes |
| Instructions    | 8        |

```
      00 01 02 03 04 05 06 07  08 09 0A 0B 0C 0D 0E 0F
      -- -- -- -- -- -- -- --  -- -- -- -- -- -- -- --
0010: 5B 03 80 99 62 0B 01 99  62 0B 01 66 79 75 30 1C  [...b...b..fyu0.
0020: 04 80 5B 03 80 9A 62 0B  01 9A 62 0B 01 66 79 75  ..[...b...b..fyu
0030: 30 1C 04 80 5B 03 80 9B  62 0B 01 9B 62 0B 01 66  0...[...b...b..f
0040: 79 75 30 1C 04 80 5B 03  80 9C 62 0B 01 9C 62 0B  yu0...[...b...b.
0050: 01 66 79 75 30 00                                 .fyu0.          
```

## Opcodes

```
  0: 0x0010 [0x5B] LOAD_EXT_SCHEDULER(work_offset=3176*, entity1=Unnamed NPC (ID: 17523353/0x010B6299), entity2=Unnamed NPC (ID: 17523353/0x010B6299), action="fyu0")
  1: 0x001F [0x1C] WAIT(30* ticks)
  2: 0x0022 [0x5B] LOAD_EXT_SCHEDULER(work_offset=3176*, entity1=Unnamed NPC (ID: 17523354/0x010B629A), entity2=Unnamed NPC (ID: 17523354/0x010B629A), action="fyu0")
  3: 0x0031 [0x1C] WAIT(30* ticks)
  4: 0x0034 [0x5B] LOAD_EXT_SCHEDULER(work_offset=3176*, entity1=Unnamed NPC (ID: 17523355/0x010B629B), entity2=Unnamed NPC (ID: 17523355/0x010B629B), action="fyu0")
  5: 0x0043 [0x1C] WAIT(30* ticks)
  6: 0x0046 [0x5B] LOAD_EXT_SCHEDULER(work_offset=3176*, entity1=Unnamed NPC (ID: 17523356/0x010B629C), entity2=Unnamed NPC (ID: 17523356/0x010B629C), action="fyu0")
  7: 0x0055 [0x00] END_REQSTACK()
```
