# 17932302

## Common Data

| Field            | Value                  |
|------------------|------------------------|
| Zone             | Mount Kamihr (ID: 282) |
| Block Size       | 168 bytes              |
| Total Events     | 6                      |
| References Count | 9                      |

## List of Events

| Event ID                 | Entrypoint   |   Size |   Instructions |
|--------------------------|--------------|--------|----------------|
| [65535](#event-65535)    | 0x0000       |      1 |              1 |
| [3](#event-3)            | 0x0001       |     25 |              3 |
| [5](#event-5)            | 0x001A       |     21 |              2 |
| [65535.1](#event-655351) | 0x002F       |     10 |              2 |
| [65535.2](#event-655352) | 0x0039       |     13 |              3 |
| [65535.3](#event-655353) | 0x0046       |     21 |              2 |

## DAT References (imed_data)

|   Index | Hex Value   |   Dec Value |
|---------|-------------|-------------|
|       0 | 0x0001      |           1 |
|       1 | 0x0019      |          25 |
|       2 | 0x0000      |           0 |
|       3 | 0x0039      |          57 |
|       4 | 0x008E      |         142 |
|       5 | 0x0003      |           3 |
|       6 | 0x0078      |         120 |
|       7 | 0x0040      |          64 |
|       8 | 0x008C      |         140 |

## Events

### Event 65535

#### Metadata

| Field        | Value   |
|--------------|---------|
| Entrypoint   | 0x0000  |
| Data Size    | 1 bytes |
| Instructions | 1       |

```
      00 01 02 03 04 05 06 07  08 09 0A 0B 0C 0D 0E 0F
      -- -- -- -- -- -- -- --  -- -- -- -- -- -- -- --
0000: 00                                                .               
```

#### Opcodes

```
  0: 0x0000 [0x00] END_REQSTACK()
```

### Event 3

#### Metadata

| Field        | Value    |
|--------------|----------|
| Entrypoint   | 0x0001   |
| Data Size    | 25 bytes |
| Instructions | 3        |

```
      00 01 02 03 04 05 06 07  08 09 0A 0B 0C 0D 0E 0F
      -- -- -- -- -- -- -- --  -- -- -- -- -- -- -- --
0000:    B6 0B 00 80 01 80 02  80 03 80 02 80 04 80 05   ...............
0010: 80 02 80 02 80 B6 0F 06  80 00                    ..........      
```

#### Opcodes

```
  0: 0x0001 [0xB6] ENTITY_APPEARANCE_HANDLER(case=Full entity look, race=1*, hair=25*, head=0*, body=57*, hands=0*, legs=142*, feet=3*, main=0*, sub=0*)
  1: 0x0015 [0xB6] ENTITY_APPEARANCE_HANDLER(case=Model size, value=120*)
  2: 0x0019 [0x00] END_REQSTACK()
```

### Event 5

#### Metadata

| Field        | Value    |
|--------------|----------|
| Entrypoint   | 0x001A   |
| Data Size    | 21 bytes |
| Instructions | 2        |

```
      00 01 02 03 04 05 06 07  08 09 0A 0B 0C 0D 0E 0F
      -- -- -- -- -- -- -- --  -- -- -- -- -- -- -- --
0010:                                B6 0B 00 80 01 80            ......
0020: 02 80 03 80 02 80 04 80  05 80 02 80 02 80 00     ............... 
```

#### Opcodes

```
  0: 0x001A [0xB6] ENTITY_APPEARANCE_HANDLER(case=Full entity look, race=1*, hair=25*, head=0*, body=57*, hands=0*, legs=142*, feet=3*, main=0*, sub=0*)
  1: 0x002E [0x00] END_REQSTACK()
```

### Event 65535.1

#### Metadata

| Field        | Value    |
|--------------|----------|
| Entrypoint   | 0x002F   |
| Data Size    | 10 bytes |
| Instructions | 2        |

```
      00 01 02 03 04 05 06 07  08 09 0A 0B 0C 0D 0E 0F
      -- -- -- -- -- -- -- --  -- -- -- -- -- -- -- --
0020:                                               6C                 l
0030: F8 FF FF 7F 07 80 00 80  00                       .........       
```

#### Opcodes

```
  0: 0x002F [0x6C] FADE_ENTITY_COLOR(entity_id=EventEntity, end_alpha=64*, fade_time=1*)
  1: 0x0038 [0x00] END_REQSTACK()
```

### Event 65535.2

#### Metadata

| Field        | Value    |
|--------------|----------|
| Entrypoint   | 0x0039   |
| Data Size    | 13 bytes |
| Instructions | 3        |

```
      00 01 02 03 04 05 06 07  08 09 0A 0B 0C 0D 0E 0F
      -- -- -- -- -- -- -- --  -- -- -- -- -- -- -- --
0030:                             1C 08 80 6C F8 FF FF           ...l...
0040: 7F 02 80 06 80 00                                 ......          
```

#### Opcodes

```
  0: 0x0039 [0x1C] WAIT(140* ticks)
  1: 0x003C [0x6C] FADE_ENTITY_COLOR(entity_id=EventEntity, end_alpha=0*, fade_time=120*)
  2: 0x0045 [0x00] END_REQSTACK()
```

### Event 65535.3

#### Metadata

| Field        | Value    |
|--------------|----------|
| Entrypoint   | 0x0046   |
| Data Size    | 21 bytes |
| Instructions | 2        |

```
      00 01 02 03 04 05 06 07  08 09 0A 0B 0C 0D 0E 0F
      -- -- -- -- -- -- -- --  -- -- -- -- -- -- -- --
0040:                   B6 0B  00 80 02 80 02 80 02 80        ..........
0050: 02 80 02 80 02 80 02 80  02 80 00                 ...........     
```

#### Opcodes

```
  0: 0x0046 [0xB6] ENTITY_APPEARANCE_HANDLER(case=Full entity look, race=1*, hair=0*, head=0*, body=0*, hands=0*, legs=0*, feet=0*, main=0*, sub=0*)
  1: 0x005A [0x00] END_REQSTACK()
```
