# 17932294

## Common Data

| Field            | Value                  |
|------------------|------------------------|
| Zone             | Mount Kamihr (ID: 282) |
| Block Size       | 49324 bytes            |
| Total Events     | 9                      |
| References Count | 987                    |

## List of Events

| Event ID              | Entrypoint   |   Size |   Instructions |
|-----------------------|--------------|--------|----------------|
| [65535](#event-65535) | 0x0000       |      1 |              1 |
| [1](#event-1)         | 0x0001       |   5290 |            623 |
| [2](#event-2)         | 0x14AB       |  10480 |           1233 |
| [3](#event-3)         | 0x3D9B       |  11047 |           1274 |
| [4](#event-4)         | 0x68C2       |    384 |             64 |
| [5](#event-5)         | 0x6A42       |   7540 |            832 |
| [6](#event-6)         | 0x87B6       |   3053 |            381 |
| [7](#event-7)         | 0x93A3       |   5780 |            702 |
| [8](#event-8)         | 0xAA37       |   1746 |            214 |

## DAT References (imed_data)

|   Index | Hex Value   |   Dec Value |
|---------|-------------|-------------|
|       0 | 0x0000      |           0 |
|       1 | 0x0078      |         120 |
|       2 | 0x00C8      |         200 |
|       3 | 0x0093      |         147 |
|       4 | 0x0001      |           1 |
|       5 | 0x02D6      |         726 |
|       6 | 0x00FF      |         255 |
|       7 | 0x0005      |           5 |
|       8 | 0x0006      |           6 |
|       9 | 0x0007      |           7 |
|      10 | 0x0008      |           8 |
|      11 | 0x46500     |      288000 |
|      12 | 0x0400      |        1024 |
|      13 | 0x45F5B     |      286555 |
|      14 | 0x1BC2      |        7106 |
|      15 | 0xFFFFD2DE  |  4294955742 |
|      16 | 0x04E7      |        1255 |
|      17 | 0x48E27     |      298535 |
|      18 | 0xFFFFD069  |  4294955113 |
|      19 | 0xFFFFE8A8  |  4294961320 |
|      20 | 0x09B1      |        2481 |
|      21 | 0x48758     |      296792 |
|      22 | 0xFFFFCA97  |  4294953623 |
|      23 | 0xFFFFE893  |  4294961299 |
|      24 | 0x0A48      |        2632 |
|      25 | 0x47AA6     |      293542 |
|      26 | 0xFFFFEB52  |  4294962002 |
|      27 | 0xFFFFE6EC  |  4294960876 |
|      28 | 0x0003      |           3 |
|      29 | 0xFFFFEAEE  |  4294961902 |
|      30 | 0xFFFFE23C  |  4294959676 |
|      31 | 0x0004      |           4 |
|      32 | 0xFFFFE5C0  |  4294960576 |
|      33 | 0xFFFFEA8A  |  4294961802 |
|      34 | 0xFFFFE304  |  4294959876 |
|      35 | 0x001E      |          30 |
|      36 | 0x0D62      |        3426 |
|      37 | 0x0CAE      |        3246 |
|      38 | 0x0002      |           2 |
|      39 | 0x0048      |          72 |
|      40 | 0x000F      |          15 |
|      41 | 0x0290      |         656 |
|      42 | 0x005A      |          90 |
|      43 | 0x0D67      |        3431 |
|      44 | 0x00D0      |         208 |
|      45 | 0x012C      |         300 |
|      46 | 0x0044      |          68 |
|      47 | 0x47C6F     |      293999 |
|      48 | 0xFFFFF179  |  4294963577 |
|      49 | 0xFFFFE76E  |  4294961006 |
|      50 | 0x0150      |         336 |
|      51 | 0x0D82      |        3458 |
|      52 | 0x0D66      |        3430 |
|      53 | 0x0DA8      |        3496 |
|      54 | 0x1B9C      |        7068 |
|      55 | 0x1B9D      |        7069 |
|      56 | 0x0168      |         360 |
|      57 | 0x0CA2      |        3234 |
|      58 | 0x1B9E      |        7070 |
|      59 | 0x0D88      |        3464 |
|      60 | 0x1B9F      |        7071 |
|      61 | 0x001C      |          28 |
|      62 | 0x0D63      |        3427 |
|      63 | 0x000A      |          10 |
|      64 | 0x1BA0      |        7072 |
|      65 | 0x096A      |        2410 |
|      66 | 0x1BA1      |        7073 |
|      67 | 0x1BA2      |        7074 |
|      68 | 0x007F      |         127 |
|      69 | 0x0D89      |        3465 |
|      70 | 0x00B4      |         180 |
|      71 | 0x1BA4      |        7076 |
|      72 | 0x1BA5      |        7077 |
|      73 | 0x1BA6      |        7078 |
|      74 | 0x1BA7      |        7079 |
|      75 | 0x0097      |         151 |
|      76 | 0x1BA8      |        7080 |
|      77 | 0x1BA9      |        7081 |
|      78 | 0x0C90      |        3216 |
|      79 | 0x0016      |          22 |
|      80 | 0x1BA3      |        7075 |
|      81 | 0x0096      |         150 |
|      82 | 0x1BAA      |        7082 |
|      83 | 0x1BAB      |        7083 |
|      84 | 0x1BAC      |        7084 |
|      85 | 0x1BAD      |        7085 |
|      86 | 0x1BAE      |        7086 |
|      87 | 0x1BAF      |        7087 |
|      88 | 0x0DE0      |        3552 |
|      89 | 0xFFFFFF86  |  4294967174 |
|      90 | 0x003C      |          60 |
|      91 | 0xFFFED00E  |  4294889486 |
|      92 | 0x1A05E     |      106590 |
|      93 | 0x0780      |        1920 |
|      94 | 0xFFFED130  |  4294889776 |
|      95 | 0x1A1F8     |      107000 |
|      96 | 0x0654      |        1620 |
|      97 | 0x1BB0      |        7088 |
|      98 | 0xFFFF808A  |  4294934666 |
|      99 | 0x22CE      |        8910 |
|     100 | 0x058C      |        1420 |
|     101 | 0x03E8      |        1000 |
|     102 | 0x1BB1      |        7089 |
|     103 | 0x1BB2      |        7090 |
|     104 | 0x1BB3      |        7091 |
|     105 | 0x1BB4      |        7092 |
|     106 | 0x1BB5      |        7093 |
|     107 | 0x1BB6      |        7094 |
|     108 | 0x1BB7      |        7095 |
|     109 | 0x1BB8      |        7096 |
|     110 | 0x1BB9      |        7097 |
|     111 | 0x1BBA      |        7098 |
|     112 | 0x1BBB      |        7099 |
|     113 | 0x1BBC      |        7100 |
|     114 | 0x0DC5      |        3525 |
|     115 | 0x1BBD      |        7101 |
|     116 | 0x1BBE      |        7102 |
|     117 | 0x1BBF      |        7103 |
|     118 | 0x1BC0      |        7104 |
|     119 | 0x1BC1      |        7105 |
|     120 | 0x1BC3      |        7107 |
|     121 | 0x1BC4      |        7108 |
|     122 | 0x1BC5      |        7109 |
|     123 | 0x0D8C      |        3468 |
|     124 | 0x0082      |         130 |
|     125 | 0x1BC6      |        7110 |
|     126 | 0x00D2      |         210 |
|     127 | 0x1BC7      |        7111 |
|     128 | 0x1BC8      |        7112 |
|     129 | 0x1BC9      |        7113 |
|     130 | 0x1BCA      |        7114 |
|     131 | 0x1BCB      |        7115 |
|     132 | 0x1BCC      |        7116 |
|     133 | 0x1BCD      |        7117 |
|     134 | 0x1BCE      |        7118 |
|     135 | 0x0186      |         390 |
|     136 | 0x1BCF      |        7119 |
|     137 | 0x0C9E      |        3230 |
|     138 | 0x1BD0      |        7120 |
|     139 | 0x1BD1      |        7121 |
|     140 | 0x1BD2      |        7122 |
|     141 | 0x0C91      |        3217 |
|     142 | 0x1BD3      |        7123 |
|     143 | 0x02C7      |         711 |
|     144 | 0xFFFC5E9C  |  4294729372 |
|     145 | 0x07D6      |        2006 |
|     146 | 0xFFFFF63B  |  4294964795 |
|     147 | 0x07FE      |        2046 |
|     148 | 0x0DA5      |        3493 |
|     149 | 0x000E      |          14 |
|     150 | 0x010E      |         270 |
|     151 | 0x01AC      |         428 |
|     152 | 0x00C0      |         192 |
|     153 | 0x0278      |         632 |
|     154 | 0x1BD4      |        7124 |
|     155 | 0x1BD5      |        7125 |
|     156 | 0x1BD6      |        7126 |
|     157 | 0x1BD7      |        7127 |
|     158 | 0x003E      |          62 |
|     159 | 0x0190      |         400 |
|     160 | 0x1BD8      |        7128 |
|     161 | 0x1BD9      |        7129 |
|     162 | 0x1BDA      |        7130 |
|     163 | 0x1BDB      |        7131 |
|     164 | 0x1BDC      |        7132 |
|     165 | 0x1BDD      |        7133 |
|     166 | 0x1BDF      |        7135 |
|     167 | 0x1BE0      |        7136 |
|     168 | 0x1BE1      |        7137 |
|     169 | 0x1BE2      |        7138 |
|     170 | 0x1BE3      |        7139 |
|     171 | 0x1BE4      |        7140 |
|     172 | 0x1BE5      |        7141 |
|     173 | 0x1BE6      |        7142 |
|     174 | 0x1BE7      |        7143 |
|     175 | 0x1BE8      |        7144 |
|     176 | 0x1BE9      |        7145 |
|     177 | 0x1BEA      |        7146 |
|     178 | 0x1BEB      |        7147 |
|     179 | 0x1BEC      |        7148 |
|     180 | 0x1BED      |        7149 |
|     181 | 0x1BEE      |        7150 |
|     182 | 0x1BEF      |        7151 |
|     183 | 0x1BF0      |        7152 |
|     184 | 0x1BF1      |        7153 |
|     185 | 0x1BF2      |        7154 |
|     186 | 0x1BF3      |        7155 |
|     187 | 0x1BF4      |        7156 |
|     188 | 0x1BF5      |        7157 |
|     189 | 0x0DCA      |        3530 |
|     190 | 0x1BF6      |        7158 |
|     191 | 0x002C      |          44 |
|     192 | 0x1BF7      |        7159 |
|     193 | 0x1BF8      |        7160 |
|     194 | 0x1BF9      |        7161 |
|     195 | 0x1BFA      |        7162 |
|     196 | 0x1BFB      |        7163 |
|     197 | 0x1BFC      |        7164 |
|     198 | 0x1BFD      |        7165 |
|     199 | 0x1BFE      |        7166 |
|     200 | 0x1BFF      |        7167 |
|     201 | 0x1C00      |        7168 |
|     202 | 0x1C01      |        7169 |
|     203 | 0x1C02      |        7170 |
|     204 | 0x1C03      |        7171 |
|     205 | 0x1C04      |        7172 |
|     206 | 0x1C05      |        7173 |
|     207 | 0x1C06      |        7174 |
|     208 | 0x1C07      |        7175 |
|     209 | 0x1C08      |        7176 |
|     210 | 0x1C09      |        7177 |
|     211 | 0x1C0A      |        7178 |
|     212 | 0x1C0B      |        7179 |
|     213 | 0x1C0C      |        7180 |
|     214 | 0x1C0D      |        7181 |
|     215 | 0x1C0E      |        7182 |
|     216 | 0x1C0F      |        7183 |
|     217 | 0x1C10      |        7184 |
|     218 | 0x1C11      |        7185 |
|     219 | 0x1C12      |        7186 |
|     220 | 0x1C13      |        7187 |
|     221 | 0x1C14      |        7188 |
|     222 | 0x1C15      |        7189 |
|     223 | 0x1C16      |        7190 |
|     224 | 0x1C17      |        7191 |
|     225 | 0x1C18      |        7192 |
|     226 | 0x476B2     |      292530 |
|     227 | 0xFFFFEE22  |  4294962722 |
|     228 | 0xFFFFE747  |  4294960967 |
|     229 | 0x0A94      |        2708 |
|     230 | 0x00A0      |         160 |
|     231 | 0x1C19      |        7193 |
|     232 | 0x1C1A      |        7194 |
|     233 | 0x1C1B      |        7195 |
|     234 | 0x1C1C      |        7196 |
|     235 | 0x1C1D      |        7197 |
|     236 | 0x1C1E      |        7198 |
|     237 | 0x1C1F      |        7199 |
|     238 | 0x1C20      |        7200 |
|     239 | 0x0D83      |        3459 |
|     240 | 0x1C21      |        7201 |
|     241 | 0x1C22      |        7202 |
|     242 | 0x1C23      |        7203 |
|     243 | 0x1C24      |        7204 |
|     244 | 0x1C25      |        7205 |
|     245 | 0x1C26      |        7206 |
|     246 | 0x1C27      |        7207 |
|     247 | 0x0015      |          21 |
|     248 | 0x1C28      |        7208 |
|     249 | 0x1C29      |        7209 |
|     250 | 0x1C2A      |        7210 |
|     251 | 0x1C2B      |        7211 |
|     252 | 0x1C2C      |        7212 |
|     253 | 0x1C2D      |        7213 |
|     254 | 0x0DCC      |        3532 |
|     255 | 0x1C2E      |        7214 |
|     256 | 0x1C2F      |        7215 |
|     257 | 0x1C30      |        7216 |
|     258 | 0x1C31      |        7217 |
|     259 | 0x1C32      |        7218 |
|     260 | 0x1C33      |        7219 |
|     261 | 0x1C34      |        7220 |
|     262 | 0x1C35      |        7221 |
|     263 | 0x1C36      |        7222 |
|     264 | 0x1C37      |        7223 |
|     265 | 0x1C38      |        7224 |
|     266 | 0x0D85      |        3461 |
|     267 | 0x1C39      |        7225 |
|     268 | 0x1C3A      |        7226 |
|     269 | 0x0041      |          65 |
|     270 | 0x1C3B      |        7227 |
|     271 | 0x1C3C      |        7228 |
|     272 | 0x1C3D      |        7229 |
|     273 | 0x1C3E      |        7230 |
|     274 | 0x1C3F      |        7231 |
|     275 | 0x1C40      |        7232 |
|     276 | 0x1C41      |        7233 |
|     277 | 0x1C42      |        7234 |
|     278 | 0x1E1C      |        7708 |
|     279 | 0xFFFFFF95  |  4294967189 |
|     280 | 0x049C      |        1180 |
|     281 | 0x1C43      |        7235 |
|     282 | 0x1C44      |        7236 |
|     283 | 0x1C45      |        7237 |
|     284 | 0x1C46      |        7238 |
|     285 | 0x1C47      |        7239 |
|     286 | 0x1C48      |        7240 |
|     287 | 0x1C49      |        7241 |
|     288 | 0x1C4A      |        7242 |
|     289 | 0xFFFFFF80  |  4294967168 |
|     290 | 0x11AB2     |       72370 |
|     291 | 0x1A860     |      108640 |
|     292 | 0x0686      |        1670 |
|     293 | 0xFFFFBF78  |  4294950776 |
|     294 | 0x1C4B      |        7243 |
|     295 | 0x0474      |        1140 |
|     296 | 0x1C4C      |        7244 |
|     297 | 0x1C4D      |        7245 |
|     298 | 0x1C4E      |        7246 |
|     299 | 0x1C4F      |        7247 |
|     300 | 0x1C50      |        7248 |
|     301 | 0x1C51      |        7249 |
|     302 | 0x1C52      |        7250 |
|     303 | 0x1C53      |        7251 |
|     304 | 0xFFFFFF7F  |  4294967167 |
|     305 | 0xE646      |       58950 |
|     306 | 0x4EAC      |       20140 |
|     307 | 0x06C2      |        1730 |
|     308 | 0x19438     |      103480 |
|     309 | 0x1C54      |        7252 |
|     310 | 0x7896      |       30870 |
|     311 | 0x04A6      |        1190 |
|     312 | 0xFFFF76DA  |  4294932186 |
|     313 | 0x00F0      |         240 |
|     314 | 0x1C55      |        7253 |
|     315 | 0x1C56      |        7254 |
|     316 | 0x1C57      |        7255 |
|     317 | 0x1C58      |        7256 |
|     318 | 0x00DA      |         218 |
|     319 | 0x1C59      |        7257 |
|     320 | 0x0079      |         121 |
|     321 | 0x1C5A      |        7258 |
|     322 | 0x00D7      |         215 |
|     323 | 0x0050      |          80 |
|     324 | 0x0028      |          40 |
|     325 | 0x1C5B      |        7259 |
|     326 | 0x1C5C      |        7260 |
|     327 | 0x0014      |          20 |
|     328 | 0x1C5D      |        7261 |
|     329 | 0x1C5E      |        7262 |
|     330 | 0x014A      |         330 |
|     331 | 0x0032      |          50 |
|     332 | 0x1C5F      |        7263 |
|     333 | 0x1C60      |        7264 |
|     334 | 0x1C61      |        7265 |
|     335 | 0x1C62      |        7266 |
|     336 | 0x1C63      |        7267 |
|     337 | 0x1C64      |        7268 |
|     338 | 0x1C65      |        7269 |
|     339 | 0x1C66      |        7270 |
|     340 | 0x1C67      |        7271 |
|     341 | 0x1C68      |        7272 |
|     342 | 0x1C69      |        7273 |
|     343 | 0x1C6A      |        7274 |
|     344 | 0x1C6B      |        7275 |
|     345 | 0x1C6C      |        7276 |
|     346 | 0x1C6D      |        7277 |
|     347 | 0x1C6E      |        7278 |
|     348 | 0x009F      |         159 |
|     349 | 0x1C6F      |        7279 |
|     350 | 0x1C70      |        7280 |
|     351 | 0xFFFFFF97  |  4294967191 |
|     352 | 0x8FFC      |       36860 |
|     353 | 0x04BA      |        1210 |
|     354 | 0xFFFF84A4  |  4294935716 |
|     355 | 0x1C71      |        7281 |
|     356 | 0x00CC      |         204 |
|     357 | 0x1C72      |        7282 |
|     358 | 0x0258      |         600 |
|     359 | 0x1C73      |        7283 |
|     360 | 0x1C74      |        7284 |
|     361 | 0x1C75      |        7285 |
|     362 | 0x1C76      |        7286 |
|     363 | 0x1C77      |        7287 |
|     364 | 0x1C78      |        7288 |
|     365 | 0x1C79      |        7289 |
|     366 | 0x1C7A      |        7290 |
|     367 | 0x1C7B      |        7291 |
|     368 | 0x1C7C      |        7292 |
|     369 | 0x1C7D      |        7293 |
|     370 | 0x1C7E      |        7294 |
|     371 | 0x0C93      |        3219 |
|     372 | 0x1C7F      |        7295 |
|     373 | 0x48C88     |      298120 |
|     374 | 0xFFFFE746  |  4294960966 |
|     375 | 0xFFFFE796  |  4294961046 |
|     376 | 0x09AB      |        2475 |
|     377 | 0x478D4     |      293076 |
|     378 | 0xFFFFF0BB  |  4294963387 |
|     379 | 0xFFFFE765  |  4294960997 |
|     380 | 0x09F0      |        2544 |
|     381 | 0x47BBF     |      293823 |
|     382 | 0xFFFFE6B0  |  4294960816 |
|     383 | 0xFFFFE6E4  |  4294960868 |
|     384 | 0x0A11      |        2577 |
|     385 | 0x47BD4     |      293844 |
|     386 | 0xFFFFE1DA  |  4294959578 |
|     387 | 0xFFFFE6E2  |  4294960866 |
|     388 | 0x0A72      |        2674 |
|     389 | 0x45302     |      283394 |
|     390 | 0xFFFED0BE  |  4294889662 |
|     391 | 0xFFFE3A1B  |  4294851099 |
|     392 | 0x0460      |        1120 |
|     393 | 0x0D97      |        3479 |
|     394 | 0x0DE7      |        3559 |
|     395 | 0x0DC3      |        3523 |
|     396 | 0x0BC4      |        3012 |
|     397 | 0x00D5      |         213 |
|     398 | 0x027A      |         634 |
|     399 | 0x1C80      |        7296 |
|     400 | 0x1C81      |        7297 |
|     401 | 0x1C82      |        7298 |
|     402 | 0x1C83      |        7299 |
|     403 | 0x1C84      |        7300 |
|     404 | 0x1C85      |        7301 |
|     405 | 0x1C86      |        7302 |
|     406 | 0x1C87      |        7303 |
|     407 | 0x1C88      |        7304 |
|     408 | 0x1C89      |        7305 |
|     409 | 0x0064      |         100 |
|     410 | 0x1C8A      |        7306 |
|     411 | 0x1C8B      |        7307 |
|     412 | 0x1C8C      |        7308 |
|     413 | 0x1C8D      |        7309 |
|     414 | 0x1C8E      |        7310 |
|     415 | 0x0049      |          73 |
|     416 | 0x1C8F      |        7311 |
|     417 | 0x1C90      |        7312 |
|     418 | 0x1C91      |        7313 |
|     419 | 0x1C92      |        7314 |
|     420 | 0x1C93      |        7315 |
|     421 | 0x1C94      |        7316 |
|     422 | 0x1C95      |        7317 |
|     423 | 0x1C96      |        7318 |
|     424 | 0x1C97      |        7319 |
|     425 | 0x1C98      |        7320 |
|     426 | 0x1C99      |        7321 |
|     427 | 0x0D93      |        3475 |
|     428 | 0x1C9A      |        7322 |
|     429 | 0x1C9B      |        7323 |
|     430 | 0x1C9C      |        7324 |
|     431 | 0x1C9D      |        7325 |
|     432 | 0x0D9B      |        3483 |
|     433 | 0x1C9E      |        7326 |
|     434 | 0x1C9F      |        7327 |
|     435 | 0x1CA0      |        7328 |
|     436 | 0x1CA1      |        7329 |
|     437 | 0x1CA2      |        7330 |
|     438 | 0x0DCD      |        3533 |
|     439 | 0x00AA      |         170 |
|     440 | 0x1CA3      |        7331 |
|     441 | 0x1CA4      |        7332 |
|     442 | 0x015E      |         350 |
|     443 | 0x1CA5      |        7333 |
|     444 | 0x1CA6      |        7334 |
|     445 | 0x0D95      |        3477 |
|     446 | 0x0D3D      |        3389 |
|     447 | 0x1CA7      |        7335 |
|     448 | 0x1CA8      |        7336 |
|     449 | 0x1CA9      |        7337 |
|     450 | 0x0DE5      |        3557 |
|     451 | 0x002D      |          45 |
|     452 | 0x1CAA      |        7338 |
|     453 | 0x0D94      |        3476 |
|     454 | 0x1CAB      |        7339 |
|     455 | 0x1CAC      |        7340 |
|     456 | 0x1CAD      |        7341 |
|     457 | 0x1CAE      |        7342 |
|     458 | 0x1CAF      |        7343 |
|     459 | 0x1CB0      |        7344 |
|     460 | 0x1CB1      |        7345 |
|     461 | 0x45C28     |      285736 |
|     462 | 0xFFFED36F  |  4294890351 |
|     463 | 0xFFFE3A1D  |  4294851101 |
|     464 | 0x0859      |        2137 |
|     465 | 0x0D1B      |        3355 |
|     466 | 0x1CB2      |        7346 |
|     467 | 0x1CB3      |        7347 |
|     468 | 0x1CB4      |        7348 |
|     469 | 0x00C4      |         196 |
|     470 | 0xFFFFE6CE  |  4294960846 |
|     471 | 0x1CB5      |        7349 |
|     472 | 0x1CB6      |        7350 |
|     473 | 0x1CB7      |        7351 |
|     474 | 0x0DF2      |        3570 |
|     475 | 0x004B      |          75 |
|     476 | 0x1CB8      |        7352 |
|     477 | 0x1CB9      |        7353 |
|     478 | 0x1CBA      |        7354 |
|     479 | 0x1CBB      |        7355 |
|     480 | 0x1CBC      |        7356 |
|     481 | 0x1CBD      |        7357 |
|     482 | 0x1CBE      |        7358 |
|     483 | 0x1CBF      |        7359 |
|     484 | 0x1CC0      |        7360 |
|     485 | 0x1CC1      |        7361 |
|     486 | 0x1CC2      |        7362 |
|     487 | 0x1CC3      |        7363 |
|     488 | 0x0D8A      |        3466 |
|     489 | 0x1CC4      |        7364 |
|     490 | 0x0DE8      |        3560 |
|     491 | 0x1CC5      |        7365 |
|     492 | 0x1CC6      |        7366 |
|     493 | 0x1CC7      |        7367 |
|     494 | 0x1CC8      |        7368 |
|     495 | 0x1CC9      |        7369 |
|     496 | 0x1CCA      |        7370 |
|     497 | 0x1CCB      |        7371 |
|     498 | 0x1CCC      |        7372 |
|     499 | 0x1CCD      |        7373 |
|     500 | 0x1CCE      |        7374 |
|     501 | 0x1CCF      |        7375 |
|     502 | 0x1CD0      |        7376 |
|     503 | 0x1CD1      |        7377 |
|     504 | 0x0D9C      |        3484 |
|     505 | 0x1CD2      |        7378 |
|     506 | 0x1CD3      |        7379 |
|     507 | 0x1CD4      |        7380 |
|     508 | 0x1CD5      |        7381 |
|     509 | 0x1CD6      |        7382 |
|     510 | 0x1CD7      |        7383 |
|     511 | 0x1CD8      |        7384 |
|     512 | 0x0D98      |        3480 |
|     513 | 0x1CD9      |        7385 |
|     514 | 0x1CDA      |        7386 |
|     515 | 0x1CDB      |        7387 |
|     516 | 0x1CDC      |        7388 |
|     517 | 0x0D9A      |        3482 |
|     518 | 0x1CDD      |        7389 |
|     519 | 0x1CDE      |        7390 |
|     520 | 0x0D9D      |        3485 |
|     521 | 0x1CDF      |        7391 |
|     522 | 0x0D99      |        3481 |
|     523 | 0x1CE0      |        7392 |
|     524 | 0x1CE1      |        7393 |
|     525 | 0x1CE2      |        7394 |
|     526 | 0x1CE3      |        7395 |
|     527 | 0x1CE4      |        7396 |
|     528 | 0x1CE5      |        7397 |
|     529 | 0x1CE6      |        7398 |
|     530 | 0x1CE7      |        7399 |
|     531 | 0x1CE8      |        7400 |
|     532 | 0x1CE9      |        7401 |
|     533 | 0x1CEA      |        7402 |
|     534 | 0x0040      |          64 |
|     535 | 0x1CEB      |        7403 |
|     536 | 0x0C99      |        3225 |
|     537 | 0x1CEC      |        7404 |
|     538 | 0x1CED      |        7405 |
|     539 | 0x1CEE      |        7406 |
|     540 | 0x1CEF      |        7407 |
|     541 | 0x1CF0      |        7408 |
|     542 | 0x1CF1      |        7409 |
|     543 | 0x1CF2      |        7410 |
|     544 | 0x1CF3      |        7411 |
|     545 | 0x1CF4      |        7412 |
|     546 | 0x1CF5      |        7413 |
|     547 | 0x1CF6      |        7414 |
|     548 | 0x1CF7      |        7415 |
|     549 | 0x1CF8      |        7416 |
|     550 | 0x1CF9      |        7417 |
|     551 | 0x1CFA      |        7418 |
|     552 | 0x1CFB      |        7419 |
|     553 | 0x1CFC      |        7420 |
|     554 | 0x1CFD      |        7421 |
|     555 | 0x1CFE      |        7422 |
|     556 | 0x1CFF      |        7423 |
|     557 | 0x1D00      |        7424 |
|     558 | 0x1D01      |        7425 |
|     559 | 0x47842     |      292930 |
|     560 | 0xFFFFE8CB  |  4294961355 |
|     561 | 0xFFFFE6CB  |  4294960843 |
|     562 | 0x00DC      |         220 |
|     563 | 0x1D02      |        7426 |
|     564 | 0x1D03      |        7427 |
|     565 | 0x1D04      |        7428 |
|     566 | 0x0DCF      |        3535 |
|     567 | 0x00DE      |         222 |
|     568 | 0x1D05      |        7429 |
|     569 | 0x1D06      |        7430 |
|     570 | 0x1D07      |        7431 |
|     571 | 0x1D08      |        7432 |
|     572 | 0x0042      |          66 |
|     573 | 0x1D09      |        7433 |
|     574 | 0x1D0A      |        7434 |
|     575 | 0x1D0B      |        7435 |
|     576 | 0x1D0C      |        7436 |
|     577 | 0x1D0D      |        7437 |
|     578 | 0x0C9F      |        3231 |
|     579 | 0x1D0E      |        7438 |
|     580 | 0x1D0F      |        7439 |
|     581 | 0x1D10      |        7440 |
|     582 | 0x00FA      |         250 |
|     583 | 0x1D11      |        7441 |
|     584 | 0x1D12      |        7442 |
|     585 | 0x1D13      |        7443 |
|     586 | 0x1D14      |        7444 |
|     587 | 0x1D15      |        7445 |
|     588 | 0x1D16      |        7446 |
|     589 | 0x1D17      |        7447 |
|     590 | 0x0DC0      |        3520 |
|     591 | 0x1D18      |        7448 |
|     592 | 0x0D96      |        3478 |
|     593 | 0x1D19      |        7449 |
|     594 | 0x1D1A      |        7450 |
|     595 | 0x1D1B      |        7451 |
|     596 | 0x1D1C      |        7452 |
|     597 | 0x1D1D      |        7453 |
|     598 | 0x1D1E      |        7454 |
|     599 | 0x1D1F      |        7455 |
|     600 | 0x1D20      |        7456 |
|     601 | 0x1D21      |        7457 |
|     602 | 0x1D22      |        7458 |
|     603 | 0x1D23      |        7459 |
|     604 | 0x1D24      |        7460 |
|     605 | 0x48362     |      295778 |
|     606 | 0xFFFFEB92  |  4294962066 |
|     607 | 0xFFFFE65E  |  4294960734 |
|     608 | 0x09D8      |        2520 |
|     609 | 0x49083     |      299139 |
|     610 | 0xFFFFE662  |  4294960738 |
|     611 | 0xFFFFE871  |  4294961265 |
|     612 | 0x09A8      |        2472 |
|     613 | 0x49C41     |      302145 |
|     614 | 0x150D      |        5389 |
|     615 | 0xFFFE05F6  |  4294837750 |
|     616 | 0x481F1     |      295409 |
|     617 | 0xFFFFE642  |  4294960706 |
|     618 | 0xFFFFE6A4  |  4294960804 |
|     619 | 0x0A02      |        2562 |
|     620 | 0x47B46     |      293702 |
|     621 | 0xFFFFEFED  |  4294963181 |
|     622 | 0xFFFFE75E  |  4294960990 |
|     623 | 0x09DF      |        2527 |
|     624 | 0x0C60      |        3168 |
|     625 | 0x0094      |         148 |
|     626 | 0x00D9      |         217 |
|     627 | 0x1D25      |        7461 |
|     628 | 0x0024      |          36 |
|     629 | 0x0D68      |        3432 |
|     630 | 0x0DE1      |        3553 |
|     631 | 0x00D8      |         216 |
|     632 | 0x008C      |         140 |
|     633 | 0x1D26      |        7462 |
|     634 | 0x1D27      |        7463 |
|     635 | 0x1D28      |        7464 |
|     636 | 0x00C9      |         201 |
|     637 | 0x0DE2      |        3554 |
|     638 | 0x1D29      |        7465 |
|     639 | 0x00DB      |         219 |
|     640 | 0x0DE3      |        3555 |
|     641 | 0x00AE      |         174 |
|     642 | 0xFFFFBE7D  |  4294950525 |
|     643 | 0x0DE4      |        3556 |
|     644 | 0x1D2A      |        7466 |
|     645 | 0x0068      |         104 |
|     646 | 0x1D2B      |        7467 |
|     647 | 0x1D2C      |        7468 |
|     648 | 0x000C      |          12 |
|     649 | 0xFFFB730C  |  4294669068 |
|     650 | 0x85CC      |       34252 |
|     651 | 0xFFFF38D3  |  4294916307 |
|     652 | 0xFFFC5DD9  |  4294729177 |
|     653 | 0x0837      |        2103 |
|     654 | 0xFFFFF80E  |  4294965262 |
|     655 | 0x028E      |         654 |
|     656 | 0x0D64      |        3428 |
|     657 | 0x00CD      |         205 |
|     658 | 0x0060      |          96 |
|     659 | 0xFFFDAB3A  |  4294814522 |
|     660 | 0x0AD4      |        2772 |
|     661 | 0xFFFF6094  |  4294926484 |
|     662 | 0x00CF      |         207 |
|     663 | 0x0D65      |        3429 |
|     664 | 0x0104      |         260 |
|     665 | 0x0046      |          70 |
|     666 | 0x00A4      |         164 |
|     667 | 0x0DA2      |        3490 |
|     668 | 0x0156      |         342 |
|     669 | 0x0019      |          25 |
|     670 | 0x006E      |         110 |
|     671 | 0x0DA3      |        3491 |
|     672 | 0x00CE      |         206 |
|     673 | 0x00D1      |         209 |
|     674 | 0xFFFBC883  |  4294690947 |
|     675 | 0xFFFFA6F5  |  4294944501 |
|     676 | 0xFFFF9E25  |  4294942245 |
|     677 | 0xFFFBC7C1  |  4294690753 |
|     678 | 0xFFFFA756  |  4294944598 |
|     679 | 0xFFFF9FF8  |  4294942712 |
|     680 | 0x0DA4      |        3492 |
|     681 | 0xFFFC93DE  |  4294743006 |
|     682 | 0x207A      |        8314 |
|     683 | 0xFFFFB2DC  |  4294947548 |
|     684 | 0x0010      |          16 |
|     685 | 0x47C06     |      293894 |
|     686 | 0xFFFFE283  |  4294959747 |
|     687 | 0xFFFFE6B9  |  4294960825 |
|     688 | 0x0A8C      |        2700 |
|     689 | 0x47ADC     |      293596 |
|     690 | 0xFFFFEBAB  |  4294962091 |
|     691 | 0xFFFFE6F3  |  4294960883 |
|     692 | 0x0A0E      |        2574 |
|     693 | 0xFFFFF14C  |  4294963532 |
|     694 | 0xFFFFE75D  |  4294960989 |
|     695 | 0xFFFFE80D  |  4294961165 |
|     696 | 0x0DEA      |        3562 |
|     697 | 0x0D1A      |        3354 |
|     698 | 0x09FE      |        2558 |
|     699 | 0x1D2D      |        7469 |
|     700 | 0x1D2F      |        7471 |
|     701 | 0x1D30      |        7472 |
|     702 | 0x1D31      |        7473 |
|     703 | 0x1D32      |        7474 |
|     704 | 0x1D33      |        7475 |
|     705 | 0x1D34      |        7476 |
|     706 | 0x1D35      |        7477 |
|     707 | 0x1D36      |        7478 |
|     708 | 0x1D37      |        7479 |
|     709 | 0x1D38      |        7480 |
|     710 | 0x1D39      |        7481 |
|     711 | 0x1D3A      |        7482 |
|     712 | 0x1D3B      |        7483 |
|     713 | 0x1D3C      |        7484 |
|     714 | 0x1D3D      |        7485 |
|     715 | 0x1D3E      |        7486 |
|     716 | 0x1D3F      |        7487 |
|     717 | 0x1D40      |        7488 |
|     718 | 0x1D41      |        7489 |
|     719 | 0x1D42      |        7490 |
|     720 | 0x1D43      |        7491 |
|     721 | 0x1D44      |        7492 |
|     722 | 0x1D45      |        7493 |
|     723 | 0x1D46      |        7494 |
|     724 | 0x1D47      |        7495 |
|     725 | 0x4771F     |      292639 |
|     726 | 0xFFFFEFB2  |  4294963122 |
|     727 | 0xFFFFE770  |  4294961008 |
|     728 | 0x007A      |         122 |
|     729 | 0x1D48      |        7496 |
|     730 | 0x1D49      |        7497 |
|     731 | 0x1D4A      |        7498 |
|     732 | 0x1D4B      |        7499 |
|     733 | 0x1D4C      |        7500 |
|     734 | 0x1D4D      |        7501 |
|     735 | 0x1D4E      |        7502 |
|     736 | 0x1D4F      |        7503 |
|     737 | 0x1D50      |        7504 |
|     738 | 0x1D51      |        7505 |
|     739 | 0x1D52      |        7506 |
|     740 | 0x1D53      |        7507 |
|     741 | 0x1D54      |        7508 |
|     742 | 0x003A      |          58 |
|     743 | 0x1D55      |        7509 |
|     744 | 0x1D56      |        7510 |
|     745 | 0x452B1     |      283313 |
|     746 | 0xFFFECCA7  |  4294888615 |
|     747 | 0xFFFE3A1C  |  4294851100 |
|     748 | 0x1D57      |        7511 |
|     749 | 0x1D58      |        7512 |
|     750 | 0x1D59      |        7513 |
|     751 | 0x1D5A      |        7514 |
|     752 | 0x1D5B      |        7515 |
|     753 | 0x1D5C      |        7516 |
|     754 | 0x1D5D      |        7517 |
|     755 | 0x1D5E      |        7518 |
|     756 | 0x1D5F      |        7519 |
|     757 | 0x48058     |      295000 |
|     758 | 0xFFFFF202  |  4294963714 |
|     759 | 0xFFFFE66A  |  4294960746 |
|     760 | 0x09E0      |        2528 |
|     761 | 0x48C03     |      297987 |
|     762 | 0xFFFFF284  |  4294963844 |
|     763 | 0xFFFFE783  |  4294961027 |
|     764 | 0x09C5      |        2501 |
|     765 | 0x49698     |      300696 |
|     766 | 0xFFFFD09B  |  4294955163 |
|     767 | 0xFFFFE9B4  |  4294961588 |
|     768 | 0x0A0D      |        2573 |
|     769 | 0x4908B     |      299147 |
|     770 | 0xFFFFCB8E  |  4294953870 |
|     771 | 0xFFFFEA8B  |  4294961803 |
|     772 | 0x09F7      |        2551 |
|     773 | 0x02E3      |         739 |
|     774 | 0x1D60      |        7520 |
|     775 | 0x1D61      |        7521 |
|     776 | 0x1D62      |        7522 |
|     777 | 0x1D63      |        7523 |
|     778 | 0x1D64      |        7524 |
|     779 | 0x0DF3      |        3571 |
|     780 | 0x1D65      |        7525 |
|     781 | 0x1D66      |        7526 |
|     782 | 0x1D67      |        7527 |
|     783 | 0xFFFFFF7B  |  4294967163 |
|     784 | 0xFFFFEE9E  |  4294962846 |
|     785 | 0xFFFF3954  |  4294916436 |
|     786 | 0x0081      |         129 |
|     787 | 0xFFFFF5BA  |  4294964666 |
|     788 | 0x0424      |        1060 |
|     789 | 0x1D68      |        7528 |
|     790 | 0x1D69      |        7529 |
|     791 | 0x1D6A      |        7530 |
|     792 | 0x1D6B      |        7531 |
|     793 | 0x1D6C      |        7532 |
|     794 | 0x1D6D      |        7533 |
|     795 | 0x1D6E      |        7534 |
|     796 | 0x1D6F      |        7535 |
|     797 | 0x1D70      |        7536 |
|     798 | 0x1D71      |        7537 |
|     799 | 0x1D72      |        7538 |
|     800 | 0x1D73      |        7539 |
|     801 | 0x1D74      |        7540 |
|     802 | 0x1D75      |        7541 |
|     803 | 0x1D76      |        7542 |
|     804 | 0x1D77      |        7543 |
|     805 | 0x1D78      |        7544 |
|     806 | 0x1D79      |        7545 |
|     807 | 0x1D7A      |        7546 |
|     808 | 0x1D7B      |        7547 |
|     809 | 0x1D7C      |        7548 |
|     810 | 0x1D7D      |        7549 |
|     811 | 0x1D7E      |        7550 |
|     812 | 0x1D7F      |        7551 |
|     813 | 0x1D80      |        7552 |
|     814 | 0x1D81      |        7553 |
|     815 | 0x1D82      |        7554 |
|     816 | 0x1D83      |        7555 |
|     817 | 0x1D84      |        7556 |
|     818 | 0x1D85      |        7557 |
|     819 | 0x1D86      |        7558 |
|     820 | 0x1D87      |        7559 |
|     821 | 0x1D88      |        7560 |
|     822 | 0x1D89      |        7561 |
|     823 | 0x01E0      |         480 |
|     824 | 0x1D8A      |        7562 |
|     825 | 0x1D8B      |        7563 |
|     826 | 0x1D8C      |        7564 |
|     827 | 0x1D8D      |        7565 |
|     828 | 0x1D8E      |        7566 |
|     829 | 0x1D8F      |        7567 |
|     830 | 0x1D90      |        7568 |
|     831 | 0x0020      |          32 |
|     832 | 0x1D91      |        7569 |
|     833 | 0x1D92      |        7570 |
|     834 | 0x49C57     |      302167 |
|     835 | 0xFFFFCE36  |  4294954550 |
|     836 | 0xFFFFEB84  |  4294962052 |
|     837 | 0x0BFB      |        3067 |
|     838 | 0xFFFFE60B  |  4294960651 |
|     839 | 0x0277      |         631 |
|     840 | 0x1D93      |        7571 |
|     841 | 0x0CC4      |        3268 |
|     842 | 0x1D94      |        7572 |
|     843 | 0x1D95      |        7573 |
|     844 | 0x1D96      |        7574 |
|     845 | 0x1D97      |        7575 |
|     846 | 0x1D98      |        7576 |
|     847 | 0x0CC3      |        3267 |
|     848 | 0x1D99      |        7577 |
|     849 | 0x1D9A      |        7578 |
|     850 | 0x0CC8      |        3272 |
|     851 | 0x1D9B      |        7579 |
|     852 | 0x1D9C      |        7580 |
|     853 | 0x1D9D      |        7581 |
|     854 | 0x0CFD      |        3325 |
|     855 | 0x1D9E      |        7582 |
|     856 | 0x005E      |          94 |
|     857 | 0x00F2      |         242 |
|     858 | 0x1D9F      |        7583 |
|     859 | 0x1DA0      |        7584 |
|     860 | 0x1DA1      |        7585 |
|     861 | 0x0CC2      |        3266 |
|     862 | 0x1DA2      |        7586 |
|     863 | 0x1DA3      |        7587 |
|     864 | 0x0CC7      |        3271 |
|     865 | 0x1DA4      |        7588 |
|     866 | 0x1DA5      |        7589 |
|     867 | 0x0DD1      |        3537 |
|     868 | 0x1DA6      |        7590 |
|     869 | 0x1DA7      |        7591 |
|     870 | 0x1DA8      |        7592 |
|     871 | 0x1DA9      |        7593 |
|     872 | 0x1DAA      |        7594 |
|     873 | 0x1DAB      |        7595 |
|     874 | 0x1DAC      |        7596 |
|     875 | 0x1DAD      |        7597 |
|     876 | 0x1DAE      |        7598 |
|     877 | 0x1DAF      |        7599 |
|     878 | 0x1DB0      |        7600 |
|     879 | 0x1DB1      |        7601 |
|     880 | 0x1DB2      |        7602 |
|     881 | 0x0E1D      |        3613 |
|     882 | 0x48B1C     |      297756 |
|     883 | 0xFFFFE8E0  |  4294961376 |
|     884 | 0xFFFFE693  |  4294960787 |
|     885 | 0x481E7     |      295399 |
|     886 | 0xFFFFE3C3  |  4294960067 |
|     887 | 0xFFFFE6EB  |  4294960875 |
|     888 | 0x4939A     |      299930 |
|     889 | 0xFFFFE482  |  4294960258 |
|     890 | 0xFFFFE852  |  4294961234 |
|     891 | 0x0BB9      |        3001 |
|     892 | 0x1DB3      |        7603 |
|     893 | 0x1DB4      |        7604 |
|     894 | 0x1DB5      |        7605 |
|     895 | 0x0CCB      |        3275 |
|     896 | 0x1DB6      |        7606 |
|     897 | 0x1DB7      |        7607 |
|     898 | 0x1DB8      |        7608 |
|     899 | 0x1DB9      |        7609 |
|     900 | 0x1DBA      |        7610 |
|     901 | 0x1DBB      |        7611 |
|     902 | 0x1DBC      |        7612 |
|     903 | 0x1DBD      |        7613 |
|     904 | 0x1DBE      |        7614 |
|     905 | 0x1DBF      |        7615 |
|     906 | 0x1DC0      |        7616 |
|     907 | 0x1DC1      |        7617 |
|     908 | 0x1DC2      |        7618 |
|     909 | 0x1DC3      |        7619 |
|     910 | 0x1DC4      |        7620 |
|     911 | 0x1DC5      |        7621 |
|     912 | 0x1DC6      |        7622 |
|     913 | 0x1DC7      |        7623 |
|     914 | 0x1DC8      |        7624 |
|     915 | 0x1DC9      |        7625 |
|     916 | 0x1DCA      |        7626 |
|     917 | 0x1DCB      |        7627 |
|     918 | 0x1DCC      |        7628 |
|     919 | 0x1DCD      |        7629 |
|     920 | 0x1DCE      |        7630 |
|     921 | 0x0DB9      |        3513 |
|     922 | 0x1DCF      |        7631 |
|     923 | 0x1DD0      |        7632 |
|     924 | 0x1DD1      |        7633 |
|     925 | 0x1DD2      |        7634 |
|     926 | 0x1DD3      |        7635 |
|     927 | 0x1DD4      |        7636 |
|     928 | 0x1DD5      |        7637 |
|     929 | 0x1DD6      |        7638 |
|     930 | 0x1DD7      |        7639 |
|     931 | 0x1DD8      |        7640 |
|     932 | 0x1DD9      |        7641 |
|     933 | 0x1DDA      |        7642 |
|     934 | 0x1DDB      |        7643 |
|     935 | 0x1DDC      |        7644 |
|     936 | 0x0CA3      |        3235 |
|     937 | 0x1DDD      |        7645 |
|     938 | 0x1DDE      |        7646 |
|     939 | 0x1DDF      |        7647 |
|     940 | 0x1DE0      |        7648 |
|     941 | 0x1DE1      |        7649 |
|     942 | 0x1DE2      |        7650 |
|     943 | 0x1DE3      |        7651 |
|     944 | 0x1DE4      |        7652 |
|     945 | 0x1DE5      |        7653 |
|     946 | 0x1DE6      |        7654 |
|     947 | 0x0CEC      |        3308 |
|     948 | 0x1DE7      |        7655 |
|     949 | 0x1DE8      |        7656 |
|     950 | 0x1DE9      |        7657 |
|     951 | 0x1DEA      |        7658 |
|     952 | 0x1DEB      |        7659 |
|     953 | 0x1DEC      |        7660 |
|     954 | 0x1DED      |        7661 |
|     955 | 0x1DEE      |        7662 |
|     956 | 0x1DEF      |        7663 |
|     957 | 0x47D1C     |      294172 |
|     958 | 0xFFFFECE0  |  4294962400 |
|     959 | 0xFFFFE6F4  |  4294960884 |
|     960 | 0x09FF      |        2559 |
|     961 | 0x1DF0      |        7664 |
|     962 | 0x1DF1      |        7665 |
|     963 | 0x1DF2      |        7666 |
|     964 | 0x1DF3      |        7667 |
|     965 | 0x1DF4      |        7668 |
|     966 | 0x1DF5      |        7669 |
|     967 | 0x1DF6      |        7670 |
|     968 | 0x1DF7      |        7671 |
|     969 | 0x1DF8      |        7672 |
|     970 | 0x1DF9      |        7673 |
|     971 | 0x1DFA      |        7674 |
|     972 | 0x1DFB      |        7675 |
|     973 | 0x1DFC      |        7676 |
|     974 | 0x1DFD      |        7677 |
|     975 | 0x1DFE      |        7678 |
|     976 | 0x1DFF      |        7679 |
|     977 | 0x1E00      |        7680 |
|     978 | 0x1E01      |        7681 |
|     979 | 0x1E02      |        7682 |
|     980 | 0x1E03      |        7683 |
|     981 | 0x1E04      |        7684 |
|     982 | 0x1E05      |        7685 |
|     983 | 0x1E06      |        7686 |
|     984 | 0x1E07      |        7687 |
|     985 | 0x1E08      |        7688 |
|     986 | 0x1E09      |        7689 |

## String References

- **7074**: Show your $3? [Sounds like a plan./No can do.]
- **7075**: You bring forth the $3 before the Winged Scourge.
- **7078**: Did you leave it behind? [Yes, silly me./No, I've got it right here.]
- **7082**: The Winged Scourge casts a burning stare in your direction.
- **7135**: Where did the fight occur? [Marjami Ravine./Yorcia Weald./Morimar Basalt Fields.]
- **7145**: What was the man's name? [Morigan./Morimar./Morison.]
- **7153**: Where did the last battle occur? [Abyssea./Promyvion./The Serpentine Labyrinth.]
- **7166**: Does the story sound familiar? [Yes, it does./Not one iota.]
- **7175**: What will you ask? [But isn't it your homeland?/Who are "they"?]
- **7260**: What will you do? [Pet and comfort him./Unleash a feral scream.]
- **7270**: What will you inquire? [What are you proposing?/What can we do?]
- **7307**: What do you think of Sajj'aka's claim? [It's relevant./It's preposterous.]
- **7330**: What is your opinion? [There's some deeper meaning./It's just the winds of chance.]
- **7367**: Do you remember? [Tiana. Of course./I've seen lots of little girls...]
- **7374**: How do you react? [Assent./Dissent.]
- **7411**: You take a long look at your $3.
- **7452**: Should Darrcuiln speak with Arciela? [Yes. She has a right to know./No. I'd rather keep her safe.]
- **7567**: How do you respond? [Just where are we going?/"Fly"?]
- **7594**: How do you respond? [What does that mean?/Then our attacks against him...]
- **7651**: How do you respond? [You knew each other?/I thought he was a libertine, myself.]
- **7708**: @@

## Events

### Event 65535

#### Metadata

| Field        | Value   |
|--------------|---------|
| Entrypoint   | 0x0000  |
| Data Size    | 1 bytes |
| Instructions | 1       |

```
      00 01 02 03 04 05 06 07  08 09 0A 0B 0C 0D 0E 0F
      -- -- -- -- -- -- -- --  -- -- -- -- -- -- -- --
0000: 00                                                .               
```

#### Opcodes

```
  0: 0x0000 [0x00] END_REQSTACK()
```

### Event 1

#### Metadata

| Field        | Value      |
|--------------|------------|
| Entrypoint   | 0x0001     |
| Data Size    | 5290 bytes |
| Instructions | 623        |

```
      00 01 02 03 04 05 06 07  08 09 0A 0B 0C 0D 0E 0F
      -- -- -- -- -- -- -- --  -- -- -- -- -- -- -- --
0000:    42 5D 00 80 01 80 45  02 80 F0 FF FF 7F F0 FF   B]....E........
0010: FF 7F 66 64 6F 31 00 80  55 02 80 F0 FF FF 7F F0  ..fdo1..U.......
0020: FF FF 7F 66 64 6F 31 46  01 38 03 80 03 01 10 04  ...fdo1F.8......
0030: 80 43 00 43 01 02 09 10  04 80 00 51 00 34 05 80  .C.C.......Q.4..
0040: 77 06 80 00 80 1C 04 80  5C 00 00 80 5C 01 00 80  w.......\...\...
0050: 9A 03 00 00 02 10 2F 00  07 A0 11 01 2F 00 0F A0  ....../...../...
0060: 11 01 2F 00 08 A0 11 01  2F 00 09 A0 11 01 2F 00  ../...../...../.
0070: 0A A0 11 01 4E 00 07 A0  11 01 4E 00 0F A0 11 01  ....N.....N.....
0080: 4E 00 08 A0 11 01 4E 00  09 A0 11 01 4E 00 0A A0  N.....N.....N...
0090: 11 01 4E 00 F0 FF FF 7F  92 01 07 A0 11 01 92 01  ..N.............
00A0: 08 A0 11 01 94 01 07 A0  11 01 94 01 0F A0 11 01  ................
00B0: 94 01 08 A0 11 01 94 01  09 A0 11 01 94 01 0A A0  ................
00C0: 11 01 94 01 F0 FF FF 7F  59 05 0F A0 11 01 01 59  ........Y......Y
00D0: 05 08 A0 11 01 01 59 05  09 A0 11 01 01 59 05 0A  ......Y......Y..
00E0: A0 11 01 01 59 05 07 A0  11 01 01 59 05 F0 FF FF  ....Y......Y....
00F0: 7F 01 02 87 7F 07 80 80  04 01 27 05 F0 FF FF 7F  ..........'.....
0100: 02 01 41 01 02 87 7F 08  80 80 16 01 27 05 F0 FF  ..A.........'...
0110: FF 7F 02 01 41 01 02 87  7F 09 80 80 28 01 27 05  ....A.......(.'.
0120: F0 FF FF 7F 03 01 41 01  02 87 7F 0A 80 80 3A 01  ......A.......:.
0130: 27 05 F0 FF FF 7F 04 01  41 01 27 05 F0 FF FF 7F  '.......A.'.....
0140: 05 BA 0F A0 11 01 0B 80  00 80 00 80 0C 80 BA 08  ................
0150: A0 11 01 0D 80 0E 80 0F  80 10 80 BA 07 A0 11 01  ................
0160: 11 80 12 80 13 80 14 80  BA F0 FF FF 7F 15 80 16  ................
0170: 80 17 80 18 80 BA 09 A0  11 01 19 80 1A 80 1B 80  ................
0180: 18 80 02 87 7F 1C 80 80  9A 01 BA 0A A0 11 01 19  ................
0190: 80 1D 80 1E 80 18 80 01  07 02 02 87 7F 1F 80 80  ................
01A0: B2 01 BA 0A A0 11 01 19  80 1D 80 1E 80 18 80 01  ................
01B0: 07 02 02 87 7F 07 80 80  CA 01 BA 0A A0 11 01 19  ................
01C0: 80 1D 80 20 80 18 80 01  07 02 02 87 7F 08 80 80  ... ............
01D0: E2 01 BA 0A A0 11 01 19  80 1D 80 20 80 18 80 01  ........... ....
01E0: 07 02 02 87 7F 0A 80 80  FA 01 BA 0A A0 11 01 19  ................
01F0: 80 21 80 1E 80 18 80 01  07 02 BA 0A A0 11 01 19  .!..............
0200: 80 1D 80 22 80 18 80 80  07 A0 11 01 80 08 A0 11  ..."............
0210: 01 80 09 A0 11 01 80 0A  A0 11 01 1C 23 80 81 00  ............#...
0220: 08 A0 11 01 2C 08 A0 11  01 08 A0 11 01 77 33 6F  ....,........w3o
0230: 66 5B 24 80 08 A0 11 01  08 A0 11 01 73 6C 70 30  f[$.........slp0
0240: 02 87 7F 04 80 80 61 02  27 10 09 A0 11 01 05 5B  ......a.'......[
0250: 25 80 09 A0 11 01 09 A0  11 01 68 6D 6C 30 01 48  %.........hml0.H
0260: 03 02 87 7F 26 80 80 82  02 27 10 09 A0 11 01 05  ....&....'......
0270: 5B 25 80 09 A0 11 01 09  A0 11 01 68 66 6C 30 01  [%.........hfl0.
0280: 48 03 02 87 7F 1C 80 80  A3 02 27 10 09 A0 11 01  H.........'.....
0290: 05 5B 25 80 09 A0 11 01  09 A0 11 01 65 6D 6C 30  .[%.........eml0
02A0: 01 48 03 02 87 7F 1F 80  80 C4 02 27 10 09 A0 11  .H.........'....
02B0: 01 05 5B 25 80 09 A0 11  01 09 A0 11 01 65 66 6C  ..[%.........efl
02C0: 30 01 48 03 02 87 7F 07  80 80 E5 02 27 10 09 A0  0.H.........'...
02D0: 11 01 02 5B 25 80 09 A0  11 01 09 A0 11 01 74 72  ...[%.........tr
02E0: 6C 30 01 48 03 02 87 7F  08 80 80 06 03 27 10 09  l0.H.........'..
02F0: A0 11 01 02 5B 25 80 09  A0 11 01 09 A0 11 01 74  ....[%.........t
0300: 72 6C 30 01 48 03 02 87  7F 09 80 80 27 03 27 10  rl0.H.......'.'.
0310: 09 A0 11 01 03 5B 25 80  09 A0 11 01 09 A0 11 01  .....[%.........
0320: 6D 66 6C 30 01 48 03 02  87 7F 0A 80 80 48 03 27  mfl0.H.......H.'
0330: 10 09 A0 11 01 04 5B 25  80 09 A0 11 01 09 A0 11  ......[%........
0340: 01 67 6D 6C 30 01 48 03  5C 00 27 80 5C 01 27 80  .gml0.H.\.'.\.'.
0350: 9A 27 05 07 A0 11 01 02  1C 28 80 27 05 F0 FF FF  .'.......(.'....
0360: 7F 06 45 29 80 F8 FF FF  7F F8 FF FF 7F 73 30 38  ..E).........s08
0370: 36 00 80 1C 28 80 45 02  80 F0 FF FF 7F F0 FF FF  6...(.E.........
0380: 7F 66 64 69 30 00 80 1C  02 80 52 29 80 F8 FF FF  .fdi0.....R)....
0390: 7F F8 FF FF 7F 73 30 38  36 45 29 80 F8 FF FF 7F  .....s086E).....
03A0: F8 FF FF 7F 32 34 30 31  00 80 1C 2A 80 2A 05 07  ....2401...*.*..
03B0: A0 11 01 27 10 13 A0 11  01 0A 1C 23 80 52 29 80  ...'.......#.R).
03C0: F8 FF FF 7F F8 FF FF 7F  32 34 30 31 5B 2B 80 0F  ........2401[+..
03D0: A0 11 01 0F A0 11 01 73  6C 70 31 5B 24 80 08 A0  .......slp1[$...
03E0: 11 01 08 A0 11 01 73 6C  70 31 CD 2C 80 08 A0 11  ......slp1.,....
03F0: 01 08 A0 11 01 61 73 69  31 00 80 1C 2D 80 5B 2B  .....asi1...-.[+
0400: 80 0F A0 11 01 0F A0 11  01 73 6C 70 32 1C 2E 80  .........slp2...
0410: BA 07 A0 11 01 2F 80 30  80 31 80 14 80 BA F0 FF  ...../.0.1......
0420: FF 7F 19 80 1A 80 1B 80  18 80 79 00 F0 FF FF 7F  ..........y.....
0430: 08 A0 11 01 5B 2B 80 0F  A0 11 01 0F A0 11 01 73  ....[+.........s
0440: 6C 70 33 1C 32 80 5B 33  80 07 A0 11 01 07 A0 11  lp3.2.[3........
0450: 01 6B 6F 75 6C 5B 2B 80  0F A0 11 01 0F A0 11 01  .koul[+.........
0460: 73 6C 70 34 1C 02 80 5B  34 80 0F A0 11 01 0F A0  slp4...[4.......
0470: 11 01 63 6D 6F 66 45 29  80 F8 FF FF 7F F8 FF FF  ..cmofE)........
0480: 7F 73 30 38 37 00 80 CD  09 80 F8 FF FF 7F F8 FF  .s087...........
0490: FF 7F 00 FE FE FE 00 80  5B 35 80 08 A0 11 01 08  ........[5......
04A0: A0 11 01 00 FE FE FE CD  2C 80 08 A0 11 01 08 A0  ........,.......
04B0: 11 01 00 FE FE FE 00 80  81 01 08 A0 11 01 2B 08  ..............+.
04C0: A0 11 01 36 80 23 2B 08  A0 11 01 37 80 23 52 29  ...6.#+....7.#R)
04D0: 80 F8 FF FF 7F F8 FF FF  7F 73 30 38 37 45 29 80  .........s087E).
04E0: F8 FF FF 7F F8 FF FF 7F  73 30 38 39 00 80 5B 35  ........s089..[5
04F0: 80 08 A0 11 01 08 A0 11  01 69 6B 61 30 CD 2C 80  .........ika0.,.
0500: 08 A0 11 01 08 A0 11 01  68 6F 75 30 00 80 03 02  ........hou0....
0510: 10 38 80 27 10 12 A0 11  01 01 27 10 F0 FF FF 7F  .8.'......'.....
0520: 0A 5B 39 80 07 A0 11 01  07 A0 11 01 6B 61 6D 31  .[9.........kam1
0530: 7C 00 08 A0 11 01 2B 08  A0 11 01 3A 80 1C 28 80  |.....+....:..(.
0540: CD 09 80 F8 FF FF 7F F8  FF FF 7F 73 30 30 33 00  ...........s003.
0550: 80 1C 23 80 1C 28 80 23  2A 10 12 A0 11 01 52 29  ..#..(.#*.....R)
0560: 80 F8 FF FF 7F F8 FF FF  7F 73 30 38 39 45 29 80  .........s089E).
0570: F8 FF FF 7F F8 FF FF 7F  73 30 39 30 00 80 5B 3B  ........s090..[;
0580: 80 07 A0 11 01 07 A0 11  01 6B 61 6D 32 2B 07 A0  .........kam2+..
0590: 11 01 3C 80 1C 3D 80 27  10 F0 FF FF 7F 0B 7C 00  ..<..=.'......|.
05A0: 08 A0 11 01 5B 3E 80 08  A0 11 01 08 A0 11 01 73  ....[>.........s
05B0: 6C 74 30 1C 02 80 52 29  80 F8 FF FF 7F F8 FF FF  lt0...R)........
05C0: 7F 73 30 39 30 45 29 80  F8 FF FF 7F F8 FF FF 7F  .s090E).........
05D0: 73 30 39 31 00 80 1C 2A  80 CD 09 80 F8 FF FF 7F  s091...*........
05E0: F8 FF FF 7F 73 74 30 33  00 80 1C 23 80 23 5B 3E  ....st03...#.#[>
05F0: 80 08 A0 11 01 08 A0 11  01 73 6C 74 31 7C 01 08  .........slt1|..
0600: A0 11 01 1C 3F 80 52 29  80 F8 FF FF 7F F8 FF FF  ....?.R)........
0610: 7F 73 30 39 31 45 29 80  F8 FF FF 7F F8 FF FF 7F  .s091E).........
0620: 73 30 39 32 00 80 1C 28  80 6B 69 64 6C 30 F0 FF  s092...(.kidl0..
0630: FF 7F 7C 01 08 A0 11 01  2B 08 A0 11 01 40 80 23  ..|.....+....@.#
0640: 52 29 80 F8 FF FF 7F F8  FF FF 7F 73 30 39 32 45  R).........s092E
0650: 29 80 F8 FF FF 7F F8 FF  FF 7F 73 30 39 33 00 80  ).........s093..
0660: 79 00 F0 FF FF 7F 07 A0  11 01 03 02 10 41 80 2B  y............A.+
0670: 07 A0 11 01 42 80 23 52  29 80 F8 FF FF 7F F8 FF  ....B.#R).......
0680: FF 7F 73 30 39 33 02 87  7F 07 80 80 A2 06 45 29  ..s093........E)
0690: 80 F8 FF FF 7F F8 FF FF  7F 73 30 39 35 00 80 01  .........s095...
06A0: CF 06 02 87 7F 08 80 80  BE 06 45 29 80 F8 FF FF  ..........E)....
06B0: 7F F8 FF FF 7F 73 30 39  35 00 80 01 CF 06 45 29  .....s095.....E)
06C0: 80 F8 FF FF 7F F8 FF FF  7F 73 30 39 34 00 80 1C  .........s094...
06D0: 23 80 6C 07 A0 11 01 00  80 04 80 6B 69 64 6C 30  #.l........kidl0
06E0: 07 A0 11 01 4A 07 A0 11  01 F0 FF FF 7F 7B 07 A0  ....J........{..
06F0: 11 01 40 1F 80 07 80 01  00 00 80 40 08 80 09 80  ..@........@....
0700: 01 00 00 80 03 02 10 41  80 24 43 80 00 80 00 80  .......A.$C.....
0710: 25 02 00 10 00 80 00 50  07 6C 07 A0 11 01 44 80  %......P.l....D.
0720: 04 80 52 29 80 F8 FF FF  7F F8 FF FF 7F 73 30 39  ..R).........s09
0730: 34 52 29 80 F8 FF FF 7F  F8 FF FF 7F 73 30 39 35  4R).........s095
0740: 02 00 00 00 80 00 4D 07  03 01 10 1C 80 01 CA 09  ......M.........
0750: 02 00 10 04 80 00 CA 09  02 00 00 00 80 00 65 07  ..............e.
0760: 03 01 10 1F 80 81 00 07  A0 11 01 7C 00 07 A0 11  ...........|....
0770: 01 5B 45 80 07 A0 11 01  07 A0 11 01 66 64 30 31  .[E.........fd01
0780: 6C 07 A0 11 01 44 80 04  80 1C 23 80 5B 45 80 07  l....D....#.[E..
0790: A0 11 01 07 A0 11 01 70  75 6E 30 03 02 10 46 80  .......pun0...F.
07A0: 27 10 12 A0 11 01 01 52  29 80 F8 FF FF 7F F8 FF  '......R).......
07B0: FF 7F 73 30 39 34 52 29  80 F8 FF FF 7F F8 FF FF  ..s094R)........
07C0: 7F 73 30 39 35 45 29 80  F8 FF FF 7F F8 FF FF 7F  .s095E).........
07D0: 73 30 39 36 00 80 2B 07  A0 11 01 47 80 23 2B 07  s096..+....G.#+.
07E0: A0 11 01 48 80 23 52 29  80 F8 FF FF 7F F8 FF FF  ...H.#R)........
07F0: 7F 73 30 39 36 45 29 80  F8 FF FF 7F F8 FF FF 7F  .s096E).........
0800: 73 30 39 37 00 80 24 49  80 00 80 00 80 25 02 00  s097..$I.....%..
0810: 10 00 80 00 6D 09 52 29  80 F8 FF FF 7F F8 FF FF  ....m.R)........
0820: 7F 73 30 39 37 45 29 80  F8 FF FF 7F F8 FF FF 7F  .s097E).........
0830: 73 30 39 38 00 80 2B 07  A0 11 01 4A 80 23 2A 10  s098..+....J.#*.
0840: 12 A0 11 01 5B 45 80 07  A0 11 01 07 A0 11 01 66  ....[E.........f
0850: 64 30 30 52 29 80 F8 FF  FF 7F F8 FF FF 7F 73 30  d00R).........s0
0860: 39 38 02 87 7F 1C 80 80  7E 08 45 29 80 F8 FF FF  98......~.E)....
0870: 7F F8 FF FF 7F 73 31 30  30 00 80 01 FF 08 02 87  .....s100.......
0880: 7F 1F 80 80 9A 08 45 29  80 F8 FF FF 7F F8 FF FF  ......E)........
0890: 7F 73 31 30 30 00 80 01  FF 08 02 87 7F 07 80 80  .s100...........
08A0: B6 08 45 29 80 F8 FF FF  7F F8 FF FF 7F 73 31 30  ..E).........s10
08B0: 31 00 80 01 FF 08 02 87  7F 08 80 80 D2 08 45 29  1.............E)
08C0: 80 F8 FF FF 7F F8 FF FF  7F 73 31 30 31 00 80 01  .........s101...
08D0: FF 08 02 87 7F 0A 80 80  EE 08 45 29 80 F8 FF FF  ..........E)....
08E0: 7F F8 FF FF 7F 73 31 30  30 00 80 01 FF 08 45 29  .....s100.....E)
08F0: 80 F8 FF FF 7F F8 FF FF  7F 73 30 39 39 00 80 CD  .........s099...
0900: 4B 80 0A A0 11 01 0A A0  11 01 73 74 61 31 00 80  K.........sta1..
0910: 1C 01 80 52 29 80 F8 FF  FF 7F F8 FF FF 7F 73 30  ...R).........s0
0920: 39 39 52 29 80 F8 FF FF  7F F8 FF FF 7F 73 31 30  99R).........s10
0930: 30 52 29 80 F8 FF FF 7F  F8 FF FF 7F 73 31 30 31  0R).........s101
0940: 45 29 80 F8 FF FF 7F F8  FF FF 7F 73 31 30 32 00  E).........s102.
0950: 80 2B 07 A0 11 01 4C 80  23 CD 4B 80 0A A0 11 01  .+....L.#.K.....
0960: 0A A0 11 01 6B 69 6C 31  00 80 01 A6 09 02 00 10  ....kil1........
0970: 04 80 00 A6 09 52 29 80  F8 FF FF 7F F8 FF FF 7F  .....R).........
0980: 73 30 39 37 45 29 80 F8  FF FF 7F F8 FF FF 7F 73  s097E).........s
0990: 31 30 32 00 80 2B 07 A0  11 01 4D 80 23 2A 10 12  102..+....M.#*..
09A0: A0 11 01 01 A6 09 7C 01  07 A0 11 01 81 01 07 A0  ......|.........
09B0: 11 01 5B 4E 80 07 A0 11  01 07 A0 11 01 66 30 30  ..[N.........f00
09C0: 30 D3 00 07 A0 11 01 01  CA 09 27 10 F0 FF FF 7F  0.........'.....
09D0: 0C 45 29 80 F8 FF FF 7F  F8 FF FF 7F 30 62 6C 66  .E).........0blf
09E0: 00 80 52 29 80 F8 FF FF  7F F8 FF FF 7F 73 31 30  ..R).........s10
09F0: 32 02 87 7F 04 80 80 1C  0A 45 29 80 F8 FF FF 7F  2........E).....
0A00: F8 FF FF 7F 73 31 30 33  00 80 5B 25 80 09 A0 11  ....s103..[%....
0A10: 01 09 A0 11 01 68 6D 6C  31 01 49 0B 02 87 7F 26  .....hml1.I....&
0A20: 80 80 47 0A 45 29 80 F8  FF FF 7F F8 FF FF 7F 73  ..G.E).........s
0A30: 31 30 33 00 80 5B 25 80  09 A0 11 01 09 A0 11 01  103..[%.........
0A40: 68 66 6C 31 01 49 0B 02  87 7F 1C 80 80 72 0A 45  hfl1.I.......r.E
0A50: 29 80 F8 FF FF 7F F8 FF  FF 7F 73 31 30 34 00 80  ).........s104..
0A60: 5B 25 80 09 A0 11 01 09  A0 11 01 65 6D 6C 31 01  [%.........eml1.
0A70: 49 0B 02 87 7F 1F 80 80  9D 0A 45 29 80 F8 FF FF  I.........E)....
0A80: 7F F8 FF FF 7F 73 31 30  34 00 80 5B 25 80 09 A0  .....s104..[%...
0A90: 11 01 09 A0 11 01 65 66  6C 31 01 49 0B 02 87 7F  ......efl1.I....
0AA0: 07 80 80 C8 0A 45 29 80  F8 FF FF 7F F8 FF FF 7F  .....E).........
0AB0: 73 31 30 35 00 80 5B 25  80 09 A0 11 01 09 A0 11  s105..[%........
0AC0: 01 74 72 6C 31 01 49 0B  02 87 7F 08 80 80 F3 0A  .trl1.I.........
0AD0: 45 29 80 F8 FF FF 7F F8  FF FF 7F 73 31 30 35 00  E).........s105.
0AE0: 80 5B 25 80 09 A0 11 01  09 A0 11 01 74 72 6C 31  .[%.........trl1
0AF0: 01 49 0B 02 87 7F 09 80  80 1E 0B 45 29 80 F8 FF  .I.........E)...
0B00: FF 7F F8 FF FF 7F 73 31  30 33 00 80 5B 25 80 09  ......s103..[%..
0B10: A0 11 01 09 A0 11 01 6D  66 6C 31 01 49 0B 02 87  .......mfl1.I...
0B20: 7F 0A 80 80 49 0B 45 29  80 F8 FF FF 7F F8 FF FF  ....I.E)........
0B30: 7F 73 31 30 34 00 80 5B  25 80 09 A0 11 01 09 A0  .s104..[%.......
0B40: 11 01 67 6D 6C 31 01 49  0B 1C 3D 80 7B F0 FF FF  ..gml1.I..=.{...
0B50: 7F BA 07 A0 11 01 2F 80  30 80 31 80 14 80 5B 33  ....../.0.1...[3
0B60: 80 07 A0 11 01 07 A0 11  01 6B 6F 75 6C 1C 02 80  .........koul...
0B70: 79 00 F0 FF FF 7F 08 A0  11 01 52 29 80 F8 FF FF  y.........R)....
0B80: 7F F8 FF FF 7F 73 31 30  33 52 29 80 F8 FF FF 7F  .....s103R).....
0B90: F8 FF FF 7F 73 31 30 34  45 29 80 F8 FF FF 7F F8  ....s104E)......
0BA0: FF FF 7F 73 31 30 36 00  80 02 87 7F 04 80 80 C3  ...s106.........
0BB0: 0B 5B 25 80 09 A0 11 01  09 A0 11 01 68 6D 6C 32  .[%.........hml2
0BC0: 01 79 0C 02 87 7F 26 80  80 DD 0B 5B 25 80 09 A0  .y....&....[%...
0BD0: 11 01 09 A0 11 01 68 66  6C 32 01 79 0C 02 87 7F  ......hfl2.y....
0BE0: 1C 80 80 F7 0B 5B 25 80  09 A0 11 01 09 A0 11 01  .....[%.........
0BF0: 65 6D 6C 32 01 79 0C 02  87 7F 1F 80 80 11 0C 5B  eml2.y.........[
0C00: 25 80 09 A0 11 01 09 A0  11 01 65 66 6C 32 01 79  %.........efl2.y
0C10: 0C 02 87 7F 07 80 80 2B  0C 5B 25 80 09 A0 11 01  .......+.[%.....
0C20: 09 A0 11 01 74 72 6C 32  01 79 0C 02 87 7F 08 80  ....trl2.y......
0C30: 80 45 0C 5B 25 80 09 A0  11 01 09 A0 11 01 74 72  .E.[%.........tr
0C40: 6C 32 01 79 0C 02 87 7F  09 80 80 5F 0C 5B 25 80  l2.y......._.[%.
0C50: 09 A0 11 01 09 A0 11 01  6D 66 6C 32 01 79 0C 02  ........mfl2.y..
0C60: 87 7F 0A 80 80 79 0C 5B  25 80 09 A0 11 01 09 A0  .....y.[%.......
0C70: 11 01 67 6D 6C 32 01 79  0C 27 10 F0 FF FF 7F 0D  ..gml2.y.'......
0C80: 1C 4F 80 03 02 10 41 80  48 50 80 1C 51 80 52 29  .O....A.HP..Q.R)
0C90: 80 F8 FF FF 7F F8 FF FF  7F 73 31 30 36 45 29 80  .........s106E).
0CA0: F8 FF FF 7F F8 FF FF 7F  73 31 30 37 00 80 48 52  ........s107..HR
0CB0: 80 1C 51 80 52 29 80 F8  FF FF 7F F8 FF FF 7F 73  ..Q.R).........s
0CC0: 31 30 37 45 29 80 F8 FF  FF 7F F8 FF FF 7F 73 31  107E).........s1
0CD0: 30 38 00 80 7C 00 08 A0  11 01 5B 3E 80 08 A0 11  08..|.....[>....
0CE0: 01 08 A0 11 01 73 6C 74  30 03 02 10 41 80 2B 08  .....slt0...A.+.
0CF0: A0 11 01 53 80 23 2B 08  A0 11 01 54 80 23 5B 3E  ...S.#+....T.#[>
0D00: 80 08 A0 11 01 08 A0 11  01 73 6C 74 31 7C 01 08  .........slt1|..
0D10: A0 11 01 52 29 80 F8 FF  FF 7F F8 FF FF 7F 73 31  ...R).........s1
0D20: 30 38 45 29 80 F8 FF FF  7F F8 FF FF 7F 73 31 30  08E).........s10
0D30: 39 00 80 5B 33 80 07 A0  11 01 07 A0 11 01 6B 6F  9..[3.........ko
0D40: 75 30 2B 07 A0 11 01 55  80 23 2B 07 A0 11 01 56  u0+....U.#+....V
0D50: 80 23 52 29 80 F8 FF FF  7F F8 FF FF 7F 73 31 30  .#R).........s10
0D60: 39 45 29 80 F8 FF FF 7F  F8 FF FF 7F 73 31 31 30  9E).........s110
0D70: 00 80 5B 33 80 07 A0 11  01 07 A0 11 01 6B 6F 75  ..[3.........kou
0D80: 31 29 10 08 A0 11 01 0A  2B 08 A0 11 01 57 80 23  1)......+....W.#
0D90: 45 02 80 F0 FF FF 7F F0  FF FF 7F 66 64 6F 31 00  E..........fdo1.
0DA0: 80 55 02 80 F0 FF FF 7F  F0 FF FF 7F 66 64 6F 31  .U..........fdo1
0DB0: 52 29 80 F8 FF FF 7F F8  FF FF 7F 73 31 31 30 5B  R).........s110[
0DC0: 58 80 08 A0 11 01 08 A0  11 01 73 6B 79 30 6B 69  X.........sky0ki
0DD0: 64 6C 30 F0 FF FF 7F 4E  01 09 A0 11 01 1A 82 B0  dl0....N........
0DE0: 89 59 80 1C 5A 80 B4 14  5B 80 5C 80 5D 80 00 80  .Y..Z...[.\.]...
0DF0: 04 80 1C 5A 80 B4 14 5E  80 5F 80 60 80 2D 80 04  ...Z...^._.`.-..
0E00: 80 1A 70 B0 2B 08 A0 11  01 61 80 23 1A 82 B0 B4  ..p.+....a.#....
0E10: 14 62 80 63 80 64 80 00  80 04 80 1C 5A 80 B4 14  .b.c.d......Z...
0E20: 65 80 65 80 65 80 2D 80  04 80 1A 70 B0 03 02 10  e.e.e.-....p....
0E30: 01 80 27 10 12 A0 11 01  01 2B 08 A0 11 01 66 80  ..'......+....f.
0E40: 23 2B 08 A0 11 01 67 80  23 2A 10 12 A0 11 01 1A  #+....g.#*......
0E50: 82 B0 8A B4 15 1A 70 B0  45 29 80 F8 FF FF 7F F8  ......p.E)......
0E60: FF FF 7F 73 31 31 31 00  80 1C 28 80 45 02 80 F0  ...s111...(.E...
0E70: FF FF 7F F0 FF FF 7F 66  64 69 30 00 80 2B 08 A0  .......fdi0..+..
0E80: 11 01 68 80 23 5B 58 80  08 A0 11 01 08 A0 11 01  ..h.#[X.........
0E90: 73 6B 79 31 2B 08 A0 11  01 69 80 23 52 29 80 F8  sky1+....i.#R)..
0EA0: FF FF 7F F8 FF FF 7F 73  31 31 31 45 29 80 F8 FF  .......s111E)...
0EB0: FF 7F F8 FF FF 7F 73 31  31 32 00 80 7C 00 08 A0  ......s112..|...
0EC0: 11 01 5B 3E 80 08 A0 11  01 08 A0 11 01 73 6C 74  ..[>.........slt
0ED0: 30 2B 08 A0 11 01 6A 80  23 2B 08 A0 11 01 6B 80  0+....j.#+....k.
0EE0: 23 2B 08 A0 11 01 6C 80  23 52 29 80 F8 FF FF 7F  #+....l.#R).....
0EF0: F8 FF FF 7F 73 31 31 32  45 29 80 F8 FF FF 7F F8  ....s112E)......
0F00: FF FF 7F 73 31 31 33 00  80 5B 3E 80 08 A0 11 01  ...s113..[>.....
0F10: 08 A0 11 01 73 6C 74 31  7C 01 08 A0 11 01 2B 08  ....slt1|.....+.
0F20: A0 11 01 6D 80 23 2B 08  A0 11 01 6E 80 23 52 29  ...m.#+....n.#R)
0F30: 80 F8 FF FF 7F F8 FF FF  7F 73 31 31 33 45 29 80  .........s113E).
0F40: F8 FF FF 7F F8 FF FF 7F  73 31 31 34 00 80 2B 07  ........s114..+.
0F50: A0 11 01 6F 80 23 52 29  80 F8 FF FF 7F F8 FF FF  ...o.#R)........
0F60: 7F 73 31 31 34 45 29 80  F8 FF FF 7F F8 FF FF 7F  .s114E).........
0F70: 73 31 31 35 00 80 7C 00  08 A0 11 01 5B 35 80 08  s115..|.....[5..
0F80: A0 11 01 08 A0 11 01 73  6C 70 33 2B 08 A0 11 01  .......slp3+....
0F90: 70 80 23 2B 08 A0 11 01  71 80 23 5B 72 80 08 A0  p.#+....q.#[r...
0FA0: 11 01 08 A0 11 01 73 6C  70 34 7C 01 08 A0 11 01  ......slp4|.....
0FB0: 52 29 80 F8 FF FF 7F F8  FF FF 7F 73 31 31 35 45  R).........s115E
0FC0: 29 80 F8 FF FF 7F F8 FF  FF 7F 73 31 31 36 00 80  ).........s116..
0FD0: 2B 07 A0 11 01 73 80 23  2B 08 A0 11 01 74 80 23  +....s.#+....t.#
0FE0: 7C 00 08 A0 11 01 5B 3E  80 08 A0 11 01 08 A0 11  |.....[>........
0FF0: 01 73 6C 74 30 2B 08 A0  11 01 75 80 23 2B 08 A0  .slt0+....u.#+..
1000: 11 01 76 80 23 52 29 80  F8 FF FF 7F F8 FF FF 7F  ..v.#R).........
1010: 73 31 31 36 45 29 80 F8  FF FF 7F F8 FF FF 7F 73  s116E).........s
1020: 31 31 37 00 80 5B 33 80  07 A0 11 01 07 A0 11 01  117..[3.........
1030: 6B 6F 75 32 2B 07 A0 11  01 77 80 23 2B 07 A0 11  kou2+....w.#+...
1040: 01 0E 80 23 2B 07 A0 11  01 78 80 23 52 29 80 F8  ...#+....x.#R)..
1050: FF FF 7F F8 FF FF 7F 73  31 31 37 45 29 80 F8 FF  .......s117E)...
1060: FF 7F F8 FF FF 7F 73 31  31 38 00 80 5B 3E 80 08  ......s118..[>..
1070: A0 11 01 08 A0 11 01 73  6C 74 31 7C 01 08 A0 11  .......slt1|....
1080: 01 5B 33 80 07 A0 11 01  07 A0 11 01 6B 6F 75 33  .[3.........kou3
1090: 2B 08 A0 11 01 79 80 23  52 29 80 F8 FF FF 7F F8  +....y.#R)......
10A0: FF FF 7F 73 31 31 38 45  29 80 F8 FF FF 7F F8 FF  ...s118E).......
10B0: FF 7F 73 31 31 39 00 80  7C 00 08 A0 11 01 5B 35  ..s119..|.....[5
10C0: 80 08 A0 11 01 08 A0 11  01 73 6C 70 33 2B 08 A0  .........slp3+..
10D0: 11 01 7A 80 23 5B 72 80  08 A0 11 01 08 A0 11 01  ..z.#[r.........
10E0: 73 6C 70 34 7C 01 08 A0  11 01 52 29 80 F8 FF FF  slp4|.....R)....
10F0: 7F F8 FF FF 7F 73 31 31  39 45 29 80 F8 FF FF 7F  .....s119E).....
1100: F8 FF FF 7F 73 31 32 30  00 80 5B 7B 80 07 A0 11  ....s120..[{....
1110: 01 07 A0 11 01 6B 6F 74  30 03 02 10 7C 80 27 10  .....kot0...|.'.
1120: 12 A0 11 01 01 2B 07 A0  11 01 7D 80 23 2A 10 12  .....+....}.#*..
1130: A0 11 01 5B 7B 80 07 A0  11 01 07 A0 11 01 6B 6F  ...[{.........ko
1140: 74 32 03 02 10 7E 80 27  10 12 A0 11 01 01 52 29  t2...~.'......R)
1150: 80 F8 FF FF 7F F8 FF FF  7F 73 31 32 30 45 29 80  .........s120E).
1160: F8 FF FF 7F F8 FF FF 7F  73 31 32 31 00 80 79 00  ........s121..y.
1170: F0 FF FF 7F 07 A0 11 01  2B 07 A0 11 01 7F 80 23  ........+......#
1180: 2A 10 12 A0 11 01 81 00  07 A0 11 01 7C 00 07 A0  *...........|...
1190: 11 01 5B 4E 80 07 A0 11  01 07 A0 11 01 66 6B 30  ..[N.........fk0
11A0: 31 52 29 80 F8 FF FF 7F  F8 FF FF 7F 73 31 32 31  1R).........s121
11B0: 45 29 80 F8 FF FF 7F F8  FF FF 7F 32 34 30 36 00  E).........2406.
11C0: 80 2B 07 A0 11 01 80 80  23 52 29 80 F8 FF FF 7F  .+......#R).....
11D0: F8 FF FF 7F 32 34 30 36  45 29 80 F8 FF FF 7F F8  ....2406E)......
11E0: FF FF 7F 73 31 32 32 00  80 7C 00 08 A0 11 01 5B  ...s122..|.....[
11F0: 3E 80 08 A0 11 01 08 A0  11 01 73 6C 74 30 79 00  >.........slt0y.
1200: F0 FF FF 7F 08 A0 11 01  2B 08 A0 11 01 81 80 23  ........+......#
1210: 81 01 07 A0 11 01 7C 01  07 A0 11 01 5B 4E 80 07  ......|.....[N..
1220: A0 11 01 07 A0 11 01 66  30 30 30 D3 00 07 A0 11  .......f000.....
1230: 01 5B 33 80 07 A0 11 01  07 A0 11 01 6B 6F 75 6C  .[3.........koul
1240: 2B 08 A0 11 01 82 80 23  2B 08 A0 11 01 83 80 23  +......#+......#
1250: 52 29 80 F8 FF FF 7F F8  FF FF 7F 73 31 32 32 45  R).........s122E
1260: 29 80 F8 FF FF 7F F8 FF  FF 7F 73 31 32 33 00 80  ).........s123..
1270: 5B 3E 80 08 A0 11 01 08  A0 11 01 73 6C 74 31 7C  [>.........slt1|
1280: 01 08 A0 11 01 2B 08 A0  11 01 84 80 23 2B 08 A0  .....+......#+..
1290: 11 01 85 80 23 2B 08 A0  11 01 86 80 23 52 29 80  ....#+......#R).
12A0: F8 FF FF 7F F8 FF FF 7F  73 31 32 33 45 29 80 F8  ........s123E)..
12B0: FF FF 7F F8 FF FF 7F 73  31 32 34 00 80 5B 3E 80  .......s124..[>.
12C0: 08 A0 11 01 08 A0 11 01  73 6C 70 32 03 02 10 87  ........slp2....
12D0: 80 27 10 12 A0 11 01 01  1C 28 80 6B 69 64 6C 30  .'.......(.kidl0
12E0: 07 A0 11 01 2B 08 A0 11  01 88 80 1C 2D 80 52 29  ....+.......-.R)
12F0: 80 F8 FF FF 7F F8 FF FF  7F 73 31 32 34 45 29 80  .........s124E).
1300: F8 FF FF 7F F8 FF FF 7F  32 34 30 35 00 80 7C 00  ........2405..|.
1310: 08 A0 11 01 2A 10 12 A0  11 01 23 4A 07 A0 11 01  ....*.....#J....
1320: F0 FF FF 7F 52 29 80 F8  FF FF 7F F8 FF FF 7F 32  ....R).........2
1330: 34 30 35 45 29 80 F8 FF  FF 7F F8 FF FF 7F 73 31  405E).........s1
1340: 32 35 00 80 1C 23 80 79  00 F0 FF FF 7F 07 A0 11  25...#.y........
1350: 01 81 00 07 A0 11 01 7C  00 07 A0 11 01 7B 07 A0  .......|.....{..
1360: 11 01 5B 89 80 07 A0 11  01 07 A0 11 01 75 74 75  ..[..........utu
1370: 30 2B 07 A0 11 01 8A 80  23 2B 07 A0 11 01 8B 80  0+......#+......
1380: 23 52 29 80 F8 FF FF 7F  F8 FF FF 7F 73 31 32 35  #R).........s125
1390: 45 29 80 F8 FF FF 7F F8  FF FF 7F 73 31 32 36 00  E).........s126.
13A0: 80 81 01 07 A0 11 01 7C  01 07 A0 11 01 5B 89 80  .......|.....[..
13B0: 07 A0 11 01 07 A0 11 01  75 74 75 31 1C 23 80 2B  ........utu1.#.+
13C0: 07 A0 11 01 8C 80 23 53  07 A0 11 01 07 A0 11 01  ......#S........
13D0: 75 74 75 31 5B 8D 80 07  A0 11 01 07 A0 11 01 74  utu1[..........t
13E0: 6C 6B 30 2B 07 A0 11 01  8E 80 23 5B 8D 80 07 A0  lk0+......#[....
13F0: 11 01 07 A0 11 01 74 6C  6B 31 02 09 10 04 80 00  ......tlk1......
1400: 05 14 01 0A 14 5D 00 80  01 80 45 02 80 F0 FF FF  .....]....E.....
1410: 7F F0 FF FF 7F 66 64 6F  31 00 80 55 02 80 F0 FF  .....fdo1..U....
1420: FF 7F F0 FF FF 7F 66 64  6F 31 1C 23 80 53 07 A0  ......fdo1.#.S..
1430: 11 01 07 A0 11 01 74 6C  6B 31 52 29 80 F8 FF FF  ......tlk1R)....
1440: 7F F8 FF FF 7F 73 31 32  36 45 29 80 F8 FF FF 7F  .....s126E).....
1450: F8 FF FF 7F 30 62 6C 66  00 80 27 05 08 A0 11 01  ....0blf..'.....
1460: 0E 27 05 09 A0 11 01 12  27 05 0A A0 11 01 0B 1C  .'......'.......
1470: 28 80 AB 11 00 80 1C 04  80 02 09 10 04 80 00 8B  (...............
1480: 14 35 8F 80 78 1C 28 80  01 94 14 5C 00 00 80 5C  .5..x.(....\...\
1490: 01 00 80 9A AB 0A 46 00  45 02 80 F0 FF FF 7F F0  ......F.E.......
14A0: FF FF 7F 66 64 69 32 00  80 21 00                 ...fdi2..!.     
```

#### Opcodes

```
  0: 0x0001 [0x42] SET_CLI_EVENT_CANCEL_DATA()
  1: 0x0002 [0x5D] SET_MUSIC_VOLUME(volume=0*, fade_time=120*)
  2: 0x0007 [0x45] LOAD_SCHEDULED_TASK: Load scheduler "fdo1" with entities [LocalPlayer, LocalPlayer], work=[200*, 0*]
  3: 0x0018 [0x55] WAIT_LOAD_SCHEDULER: Wait for scheduler "fdo1" with entities [LocalPlayer, LocalPlayer], work=200*
  4: 0x0027 [0x46] CAMERA_CONTROL: Disable user control
  5: 0x0029 [0x38] SET_CLIENT_EVENT_MODE(mode=147*)
  6: 0x002C [0x03] Work_Zone[1] = 1*
  7: 0x0031 [0x43] SEND_EVENT_UPDATE: Send pending tag to server (packet 0x005B)
  8: 0x0033 [0x43] SEND_EVENT_UPDATE: Check pending flag (skip if not pending)
  9: 0x0035 [0x02] IF !(Work_Zone[9] == 1*) GOTO 0x0051
 10: 0x003D [0x34] LOAD_UNLOAD_ZONE(zone_id=726*)
 11: 0x0040 [0x77] SET_EVENT_TIME_WEATHER(hour=255*, weather=0*)
 12: 0x0045 [0x1C] WAIT(1* ticks)
 13: 0x0048 [0x5C] MUSIC_CONTROL: Set Idle (Day) music to song 0*
 14: 0x004C [0x5C] MUSIC_CONTROL: Set Idle (Night) music to song 0*
 15: 0x0050 [0x9A] WAIT_MUSIC_SERVER()
 16: 0x0051 [0x03] ExtData[1]->WorkLocal[0] = Work_Zone[2]
 17: 0x0056 [0x2F] Arciela (ID: 17932295/0x0111A007)->Render.Flags0 &= ~0x80000 // Bit 19
 18: 0x005C [0x2F] Unnamed NPC (ID: 17932303/0x0111A00F)->Render.Flags0 &= ~0x80000 // Bit 19
 19: 0x0062 [0x2F] Unnamed NPC (ID: 17932296/0x0111A008)->Render.Flags0 &= ~0x80000 // Bit 19
 20: 0x0068 [0x2F] Unnamed NPC (ID: 17932297/0x0111A009)->Render.Flags0 &= ~0x80000 // Bit 19
 21: 0x006E [0x2F] Unnamed NPC (ID: 17932298/0x0111A00A)->Render.Flags0 &= ~0x80000 // Bit 19
 22: 0x0074 [0x4E] SET_ENTITY_HIDE_FLAG: Show Arciela (ID: 17932295/0x0111A007)
 23: 0x007A [0x4E] SET_ENTITY_HIDE_FLAG: Show Unnamed NPC (ID: 17932303/0x0111A00F)
 24: 0x0080 [0x4E] SET_ENTITY_HIDE_FLAG: Show Unnamed NPC (ID: 17932296/0x0111A008)
 25: 0x0086 [0x4E] SET_ENTITY_HIDE_FLAG: Show Unnamed NPC (ID: 17932297/0x0111A009)
 26: 0x008C [0x4E] SET_ENTITY_HIDE_FLAG: Show Unnamed NPC (ID: 17932298/0x0111A00A)
 27: 0x0092 [0x4E] SET_ENTITY_HIDE_FLAG: Show LocalPlayer
 28: 0x0098 [0x92] Arciela (ID: 17932295/0x0111A007)->Render.Flags3 ^= 0x01
 29: 0x009E [0x92] Unnamed NPC (ID: 17932296/0x0111A008)->Render.Flags3 ^= 0x01
 30: 0x00A4 [0x94] Arciela (ID: 17932295/0x0111A007)->Render.Flags3 ^= 0x01
 31: 0x00AA [0x94] Unnamed NPC (ID: 17932303/0x0111A00F)->Render.Flags3 ^= 0x01
 32: 0x00B0 [0x94] Unnamed NPC (ID: 17932296/0x0111A008)->Render.Flags3 ^= 0x01
 33: 0x00B6 [0x94] Unnamed NPC (ID: 17932297/0x0111A009)->Render.Flags3 ^= 0x01
 34: 0x00BC [0x94] Unnamed NPC (ID: 17932298/0x0111A00A)->Render.Flags3 ^= 0x01
 35: 0x00C2 [0x94] LocalPlayer->Render.Flags3 ^= 0x01
 36: 0x00C8 [0x59] UPDATE_ENTITY_DATA: Unnamed NPC (ID: 17932303/0x0111A00F)->Render.Flags0 |= 0x200000
 37: 0x00CF [0x59] UPDATE_ENTITY_DATA: Unnamed NPC (ID: 17932296/0x0111A008)->Render.Flags0 |= 0x200000
 38: 0x00D6 [0x59] UPDATE_ENTITY_DATA: Unnamed NPC (ID: 17932297/0x0111A009)->Render.Flags0 |= 0x200000
 39: 0x00DD [0x59] UPDATE_ENTITY_DATA: Unnamed NPC (ID: 17932298/0x0111A00A)->Render.Flags0 |= 0x200000
 40: 0x00E4 [0x59] UPDATE_ENTITY_DATA: Arciela (ID: 17932295/0x0111A007)->Render.Flags0 |= 0x200000
 41: 0x00EB [0x59] UPDATE_ENTITY_DATA: LocalPlayer->Render.Flags0 |= 0x200000
 42: 0x00F2 [0x02] IF !(LocalPlayer->Race == 5*) GOTO 0x0104
 43: 0x00FA [0x27] REQ_SET(priority=0x05, entity_id=LocalPlayer, tag_num=0x02)
 44: 0x0101 [0x01] GOTO 0x0141
 45: 0x0104 [0x02] IF !(LocalPlayer->Race == 6*) GOTO 0x0116
 46: 0x010C [0x27] REQ_SET(priority=0x05, entity_id=LocalPlayer, tag_num=0x02)
 47: 0x0113 [0x01] GOTO 0x0141
 48: 0x0116 [0x02] IF !(LocalPlayer->Race == 7*) GOTO 0x0128
 49: 0x011E [0x27] REQ_SET(priority=0x05, entity_id=LocalPlayer, tag_num=0x03)
 50: 0x0125 [0x01] GOTO 0x0141
 51: 0x0128 [0x02] IF !(LocalPlayer->Race == 8*) GOTO 0x013A
 52: 0x0130 [0x27] REQ_SET(priority=0x05, entity_id=LocalPlayer, tag_num=0x04)
 53: 0x0137 [0x01] GOTO 0x0141
 54: 0x013A [0x27] REQ_SET(priority=0x05, entity_id=LocalPlayer, tag_num=0x05)

SUBROUTINE_0141:
 55: 0x0141 [0xBA] SET_ENTITY_POSITION(entity_id=Unnamed NPC (ID: 17932303/0x0111A00F), pos_x=288.000*, pos_z=0.000*, pos_y=0.000*, direction=90.0*)
 56: 0x014E [0xBA] SET_ENTITY_POSITION(entity_id=Unnamed NPC (ID: 17932296/0x0111A008), pos_x=286.555*, pos_z=7.106*, pos_y=-11.554*, direction=110.3*)
 57: 0x015B [0xBA] SET_ENTITY_POSITION(entity_id=Arciela (ID: 17932295/0x0111A007), pos_x=298.535*, pos_z=-12.183*, pos_y=-5.976*, direction=218.1*)
 58: 0x0168 [0xBA] SET_ENTITY_POSITION(entity_id=LocalPlayer, pos_x=296.792*, pos_z=-13.673*, pos_y=-5.997*, direction=231.3*)
 59: 0x0175 [0xBA] SET_ENTITY_POSITION(entity_id=Unnamed NPC (ID: 17932297/0x0111A009), pos_x=293.542*, pos_z=-5.294*, pos_y=-6.420*, direction=231.3*)
 60: 0x0182 [0x02] IF !(LocalPlayer->Race == 3*) GOTO 0x019A
 61: 0x018A [0xBA] SET_ENTITY_POSITION(entity_id=Unnamed NPC (ID: 17932298/0x0111A00A), pos_x=293.542*, pos_z=-5.394*, pos_y=-7.620*, direction=231.3*)
 62: 0x0197 [0x01] GOTO 0x0207
 63: 0x019A [0x02] IF !(LocalPlayer->Race == 4*) GOTO 0x01B2
 64: 0x01A2 [0xBA] SET_ENTITY_POSITION(entity_id=Unnamed NPC (ID: 17932298/0x0111A00A), pos_x=293.542*, pos_z=-5.394*, pos_y=-7.620*, direction=231.3*)
 65: 0x01AF [0x01] GOTO 0x0207
 66: 0x01B2 [0x02] IF !(LocalPlayer->Race == 5*) GOTO 0x01CA
 67: 0x01BA [0xBA] SET_ENTITY_POSITION(entity_id=Unnamed NPC (ID: 17932298/0x0111A00A), pos_x=293.542*, pos_z=-5.394*, pos_y=-6.720*, direction=231.3*)
 68: 0x01C7 [0x01] GOTO 0x0207
 69: 0x01CA [0x02] IF !(LocalPlayer->Race == 6*) GOTO 0x01E2
 70: 0x01D2 [0xBA] SET_ENTITY_POSITION(entity_id=Unnamed NPC (ID: 17932298/0x0111A00A), pos_x=293.542*, pos_z=-5.394*, pos_y=-6.720*, direction=231.3*)
 71: 0x01DF [0x01] GOTO 0x0207
 72: 0x01E2 [0x02] IF !(LocalPlayer->Race == 8*) GOTO 0x01FA
 73: 0x01EA [0xBA] SET_ENTITY_POSITION(entity_id=Unnamed NPC (ID: 17932298/0x0111A00A), pos_x=293.542*, pos_z=-5.494*, pos_y=-7.620*, direction=231.3*)
 74: 0x01F7 [0x01] GOTO 0x0207
 75: 0x01FA [0xBA] SET_ENTITY_POSITION(entity_id=Unnamed NPC (ID: 17932298/0x0111A00A), pos_x=293.542*, pos_z=-5.394*, pos_y=-7.420*, direction=231.3*)

SUBROUTINE_0207:
 76: 0x0207 [0x80] LOAD_WAIT(entity=Arciela (ID: 17932295/0x0111A007))
 77: 0x020C [0x80] LOAD_WAIT(entity=Unnamed NPC (ID: 17932296/0x0111A008))
 78: 0x0211 [0x80] LOAD_WAIT(entity=Unnamed NPC (ID: 17932297/0x0111A009))
 79: 0x0216 [0x80] LOAD_WAIT(entity=Unnamed NPC (ID: 17932298/0x0111A00A))
 80: 0x021B [0x1C] WAIT(30* ticks)
 81: 0x021E [0x81] SET_ENTITY_BLINKING(blink_flag=0x00, entity=Unnamed NPC (ID: 17932296/0x0111A008))
 82: 0x0224 [0x2C] CREATE_SCHEDULER_TASK: Create scheduler "w3of" with entities [Unnamed NPC (ID: 17932296/0x0111A008), Unnamed NPC (ID: 17932296/0x0111A008)]
 83: 0x0231 [0x5B] LOAD_EXT_SCHEDULER: Load scheduler "slp0" with entities [Unnamed NPC (ID: 17932296/0x0111A008), Unnamed NPC (ID: 17932296/0x0111A008)], work=3426*
 84: 0x0240 [0x02] IF !(LocalPlayer->Race == 1*) GOTO 0x0261
 85: 0x0248 [0x27] REQ_SET(priority=0x10, entity_id=Unnamed NPC (ID: 17932297/0x0111A009), tag_num=0x05)
 86: 0x024F [0x5B] LOAD_EXT_SCHEDULER: Load scheduler "hml0" with entities [Unnamed NPC (ID: 17932297/0x0111A009), Unnamed NPC (ID: 17932297/0x0111A009)], work=3246*
 87: 0x025E [0x01] GOTO 0x0348
 88: 0x0261 [0x02] IF !(LocalPlayer->Race == 2*) GOTO 0x0282
 89: 0x0269 [0x27] REQ_SET(priority=0x10, entity_id=Unnamed NPC (ID: 17932297/0x0111A009), tag_num=0x05)
 90: 0x0270 [0x5B] LOAD_EXT_SCHEDULER: Load scheduler "hfl0" with entities [Unnamed NPC (ID: 17932297/0x0111A009), Unnamed NPC (ID: 17932297/0x0111A009)], work=3246*
 91: 0x027F [0x01] GOTO 0x0348
 92: 0x0282 [0x02] IF !(LocalPlayer->Race == 3*) GOTO 0x02A3
 93: 0x028A [0x27] REQ_SET(priority=0x10, entity_id=Unnamed NPC (ID: 17932297/0x0111A009), tag_num=0x05)
 94: 0x0291 [0x5B] LOAD_EXT_SCHEDULER: Load scheduler "eml0" with entities [Unnamed NPC (ID: 17932297/0x0111A009), Unnamed NPC (ID: 17932297/0x0111A009)], work=3246*
 95: 0x02A0 [0x01] GOTO 0x0348
 96: 0x02A3 [0x02] IF !(LocalPlayer->Race == 4*) GOTO 0x02C4
 97: 0x02AB [0x27] REQ_SET(priority=0x10, entity_id=Unnamed NPC (ID: 17932297/0x0111A009), tag_num=0x05)
 98: 0x02B2 [0x5B] LOAD_EXT_SCHEDULER: Load scheduler "efl0" with entities [Unnamed NPC (ID: 17932297/0x0111A009), Unnamed NPC (ID: 17932297/0x0111A009)], work=3246*
 99: 0x02C1 [0x01] GOTO 0x0348
100: 0x02C4 [0x02] IF !(LocalPlayer->Race == 5*) GOTO 0x02E5
101: 0x02CC [0x27] REQ_SET(priority=0x10, entity_id=Unnamed NPC (ID: 17932297/0x0111A009), tag_num=0x02)
102: 0x02D3 [0x5B] LOAD_EXT_SCHEDULER: Load scheduler "trl0" with entities [Unnamed NPC (ID: 17932297/0x0111A009), Unnamed NPC (ID: 17932297/0x0111A009)], work=3246*
103: 0x02E2 [0x01] GOTO 0x0348
104: 0x02E5 [0x02] IF !(LocalPlayer->Race == 6*) GOTO 0x0306
105: 0x02ED [0x27] REQ_SET(priority=0x10, entity_id=Unnamed NPC (ID: 17932297/0x0111A009), tag_num=0x02)
106: 0x02F4 [0x5B] LOAD_EXT_SCHEDULER: Load scheduler "trl0" with entities [Unnamed NPC (ID: 17932297/0x0111A009), Unnamed NPC (ID: 17932297/0x0111A009)], work=3246*
107: 0x0303 [0x01] GOTO 0x0348
108: 0x0306 [0x02] IF !(LocalPlayer->Race == 7*) GOTO 0x0327
109: 0x030E [0x27] REQ_SET(priority=0x10, entity_id=Unnamed NPC (ID: 17932297/0x0111A009), tag_num=0x03)
110: 0x0315 [0x5B] LOAD_EXT_SCHEDULER: Load scheduler "mfl0" with entities [Unnamed NPC (ID: 17932297/0x0111A009), Unnamed NPC (ID: 17932297/0x0111A009)], work=3246*
111: 0x0324 [0x01] GOTO 0x0348
112: 0x0327 [0x02] IF !(LocalPlayer->Race == 8*) GOTO 0x0348
113: 0x032F [0x27] REQ_SET(priority=0x10, entity_id=Unnamed NPC (ID: 17932297/0x0111A009), tag_num=0x04)
114: 0x0336 [0x5B] LOAD_EXT_SCHEDULER: Load scheduler "gml0" with entities [Unnamed NPC (ID: 17932297/0x0111A009), Unnamed NPC (ID: 17932297/0x0111A009)], work=3246*
115: 0x0345 [0x01] GOTO 0x0348

SUBROUTINE_0348:
116: 0x0348 [0x5C] MUSIC_CONTROL: Set Idle (Day) music to song 72*
117: 0x034C [0x5C] MUSIC_CONTROL: Set Idle (Night) music to song 72*
118: 0x0350 [0x9A] WAIT_MUSIC_SERVER()
119: 0x0351 [0x27] REQ_SET(priority=0x05, entity_id=Arciela (ID: 17932295/0x0111A007), tag_num=0x02)
120: 0x0358 [0x1C] WAIT(15* ticks)
121: 0x035B [0x27] REQ_SET(priority=0x05, entity_id=LocalPlayer, tag_num=0x06)
122: 0x0362 [0x45] LOAD_SCHEDULED_TASK: Load scheduler "s086" with entities [EventEntity, EventEntity], work=[656*, 0*]
123: 0x0373 [0x1C] WAIT(15* ticks)
124: 0x0376 [0x45] LOAD_SCHEDULED_TASK: Load scheduler "fdi0" with entities [LocalPlayer, LocalPlayer], work=[200*, 0*]
125: 0x0387 [0x1C] WAIT(200* ticks)
126: 0x038A [0x52] END_LOAD_SCHEDULER: End scheduler "s086" with entities [EventEntity, EventEntity], work=656*
127: 0x0399 [0x45] LOAD_SCHEDULED_TASK: Load scheduler "2401" with entities [EventEntity, EventEntity], work=[656*, 0*]
128: 0x03AA [0x1C] WAIT(90* ticks)
129: 0x03AD [0x2A] GET_REQ_LEVEL(level=5, entity_id=Arciela (ID: 17932295/0x0111A007))
130: 0x03B3 [0x27] REQ_SET(priority=0x10, entity_id=Unnamed NPC (ID: 17932307/0x0111A013), tag_num=0x0A)
131: 0x03BA [0x1C] WAIT(30* ticks)
132: 0x03BD [0x52] END_LOAD_SCHEDULER: End scheduler "2401" with entities [EventEntity, EventEntity], work=656*
133: 0x03CC [0x5B] LOAD_EXT_SCHEDULER: Load scheduler "slp1" with entities [Unnamed NPC (ID: 17932303/0x0111A00F), Unnamed NPC (ID: 17932303/0x0111A00F)], work=3431*
134: 0x03DB [0x5B] LOAD_EXT_SCHEDULER: Load scheduler "slp1" with entities [Unnamed NPC (ID: 17932296/0x0111A008), Unnamed NPC (ID: 17932296/0x0111A008)], work=3426*
135: 0x03EA [0xCD] LOAD_SCHEDULED_TASK_ALT4: Load scheduler "asi1" with entities [Unnamed NPC (ID: 17932296/0x0111A008), Unnamed NPC (ID: 17932296/0x0111A008)], work=[208*, 0*]
136: 0x03FB [0x1C] WAIT(300* ticks)
137: 0x03FE [0x5B] LOAD_EXT_SCHEDULER: Load scheduler "slp2" with entities [Unnamed NPC (ID: 17932303/0x0111A00F), Unnamed NPC (ID: 17932303/0x0111A00F)], work=3431*
138: 0x040D [0x1C] WAIT(68* ticks)
139: 0x0410 [0xBA] SET_ENTITY_POSITION(entity_id=Arciela (ID: 17932295/0x0111A007), pos_x=293.999*, pos_z=-3.719*, pos_y=-6.290*, direction=218.1*)
140: 0x041D [0xBA] SET_ENTITY_POSITION(entity_id=LocalPlayer, pos_x=293.542*, pos_z=-5.294*, pos_y=-6.420*, direction=231.3*)
141: 0x042A [0x79] LocalPlayer looks at Unnamed NPC (ID: 17932296/0x0111A008) (Basic look)
142: 0x0434 [0x5B] LOAD_EXT_SCHEDULER: Load scheduler "slp3" with entities [Unnamed NPC (ID: 17932303/0x0111A00F), Unnamed NPC (ID: 17932303/0x0111A00F)], work=3431*
143: 0x0443 [0x1C] WAIT(336* ticks)
144: 0x0446 [0x5B] LOAD_EXT_SCHEDULER: Load scheduler "koul" with entities [Arciela (ID: 17932295/0x0111A007), Arciela (ID: 17932295/0x0111A007)], work=3458*
145: 0x0455 [0x5B] LOAD_EXT_SCHEDULER: Load scheduler "slp4" with entities [Unnamed NPC (ID: 17932303/0x0111A00F), Unnamed NPC (ID: 17932303/0x0111A00F)], work=3431*
146: 0x0464 [0x1C] WAIT(200* ticks)
147: 0x0467 [0x5B] LOAD_EXT_SCHEDULER: Load scheduler "cmof" with entities [Unnamed NPC (ID: 17932303/0x0111A00F), Unnamed NPC (ID: 17932303/0x0111A00F)], work=3430*
148: 0x0476 [0x45] LOAD_SCHEDULED_TASK: Load scheduler "s087" with entities [EventEntity, EventEntity], work=[656*, 0*]
149: 0x0487 [0xCD] LOAD_SCHEDULED_TASK_ALT4: Load scheduler 0xFEFEFE00 with entities [EventEntity, EventEntity], work=[7*, 0*]
150: 0x0498 [0x5B] LOAD_EXT_SCHEDULER: Load scheduler 0xFEFEFE00 with entities [Unnamed NPC (ID: 17932296/0x0111A008), Unnamed NPC (ID: 17932296/0x0111A008)], work=3496*
151: 0x04A7 [0xCD] LOAD_SCHEDULED_TASK_ALT4: Load scheduler 0xFEFEFE00 with entities [Unnamed NPC (ID: 17932296/0x0111A008), Unnamed NPC (ID: 17932296/0x0111A008)], work=[208*, 0*]
152: 0x04B8 [0x81] SET_ENTITY_BLINKING(blink_flag=0x01, entity=Unnamed NPC (ID: 17932296/0x0111A008))
153: 0x04BE [0x2B] Unnamed NPC (ID: 17932296/0x0111A008) [7068*]:
     "Begone from here. You frail mortals should have thought twice before assscending this peak."
154: 0x04C5 [0x23] WAIT_FOR_DIALOG_INTERACTION
155: 0x04C6 [0x2B] Unnamed NPC (ID: 17932296/0x0111A008) [7069*]:
     "I have no patience for those who desssecrate the forest. Depart at once."
156: 0x04CD [0x23] WAIT_FOR_DIALOG_INTERACTION
157: 0x04CE [0x52] END_LOAD_SCHEDULER: End scheduler "s087" with entities [EventEntity, EventEntity], work=656*
158: 0x04DD [0x45] LOAD_SCHEDULED_TASK: Load scheduler "s089" with entities [EventEntity, EventEntity], work=[656*, 0*]
159: 0x04EE [0x5B] LOAD_EXT_SCHEDULER: Load scheduler "ika0" with entities [Unnamed NPC (ID: 17932296/0x0111A008), Unnamed NPC (ID: 17932296/0x0111A008)], work=3496*
160: 0x04FD [0xCD] LOAD_SCHEDULED_TASK_ALT4: Load scheduler "hou0" with entities [Unnamed NPC (ID: 17932296/0x0111A008), Unnamed NPC (ID: 17932296/0x0111A008)], work=[208*, 0*]
161: 0x050E [0x03] Work_Zone[2] = 360*
162: 0x0513 [0x27] REQ_SET(priority=0x10, entity_id=??? (ID: 17932306/0x0111A012), tag_num=0x01)
163: 0x051A [0x27] REQ_SET(priority=0x10, entity_id=LocalPlayer, tag_num=0x0A)
164: 0x0521 [0x5B] LOAD_EXT_SCHEDULER: Load scheduler "kam1" with entities [Arciela (ID: 17932295/0x0111A007), Arciela (ID: 17932295/0x0111A007)], work=3234*
165: 0x0530 [0x7C] Unnamed NPC (ID: 17932296/0x0111A008)->Render.Flags2 |= 0x00
166: 0x0536 [0x2B] Unnamed NPC (ID: 17932296/0x0111A008) [7070*]:
     "If you do not, then I have no choice but to ssswing the radiant hammer of vengeance down upon your meager frames!"
167: 0x053D [0x1C] WAIT(15* ticks)
168: 0x0540 [0xCD] LOAD_SCHEDULED_TASK_ALT4: Load scheduler "s003" with entities [EventEntity, EventEntity], work=[7*, 0*]
169: 0x0551 [0x1C] WAIT(30* ticks)
170: 0x0554 [0x1C] WAIT(15* ticks)
171: 0x0557 [0x23] WAIT_FOR_DIALOG_INTERACTION
172: 0x0558 [0x2A] GET_REQ_LEVEL(level=16, entity_id=??? (ID: 17932306/0x0111A012))
173: 0x055E [0x52] END_LOAD_SCHEDULER: End scheduler "s089" with entities [EventEntity, EventEntity], work=656*
174: 0x056D [0x45] LOAD_SCHEDULED_TASK: Load scheduler "s090" with entities [EventEntity, EventEntity], work=[656*, 0*]
175: 0x057E [0x5B] LOAD_EXT_SCHEDULER: Load scheduler "kam2" with entities [Arciela (ID: 17932295/0x0111A007), Arciela (ID: 17932295/0x0111A007)], work=3464*
176: 0x058D [0x2B] Arciela (ID: 17932295/0x0111A007) [7071*]:
     "Wait! ...Your Eminence. Before you judge us, I would like you to take a look at this."
177: 0x0594 [0x1C] WAIT(28* ticks)
178: 0x0597 [0x27] REQ_SET(priority=0x10, entity_id=LocalPlayer, tag_num=0x0B)
179: 0x059E [0x7C] Unnamed NPC (ID: 17932296/0x0111A008)->Render.Flags2 |= 0x00
180: 0x05A4 [0x5B] LOAD_EXT_SCHEDULER: Load scheduler "slt0" with entities [Unnamed NPC (ID: 17932296/0x0111A008), Unnamed NPC (ID: 17932296/0x0111A008)], work=3427*
181: 0x05B3 [0x1C] WAIT(200* ticks)
182: 0x05B6 [0x52] END_LOAD_SCHEDULER: End scheduler "s090" with entities [EventEntity, EventEntity], work=656*
183: 0x05C5 [0x45] LOAD_SCHEDULED_TASK: Load scheduler "s091" with entities [EventEntity, EventEntity], work=[656*, 0*]
184: 0x05D6 [0x1C] WAIT(90* ticks)
185: 0x05D9 [0xCD] LOAD_SCHEDULED_TASK_ALT4: Load scheduler "st03" with entities [EventEntity, EventEntity], work=[7*, 0*]
186: 0x05EA [0x1C] WAIT(30* ticks)
187: 0x05ED [0x23] WAIT_FOR_DIALOG_INTERACTION
188: 0x05EE [0x5B] LOAD_EXT_SCHEDULER: Load scheduler "slt1" with entities [Unnamed NPC (ID: 17932296/0x0111A008), Unnamed NPC (ID: 17932296/0x0111A008)], work=3427*
189: 0x05FD [0x7C] Unnamed NPC (ID: 17932296/0x0111A008)->Render.Flags2 |= 0x01
190: 0x0603 [0x1C] WAIT(10* ticks)
191: 0x0606 [0x52] END_LOAD_SCHEDULER: End scheduler "s091" with entities [EventEntity, EventEntity], work=656*
192: 0x0615 [0x45] LOAD_SCHEDULED_TASK: Load scheduler "s092" with entities [EventEntity, EventEntity], work=[656*, 0*]
193: 0x0626 [0x1C] WAIT(15* ticks)
194: 0x0629 [0x6B] STOP_AND_IDLE: LocalPlayer stops current action and resets to idle (animation="idl0")
195: 0x0632 [0x7C] Unnamed NPC (ID: 17932296/0x0111A008)->Render.Flags2 |= 0x01
196: 0x0638 [0x2B] Unnamed NPC (ID: 17932296/0x0111A008) [7072*]:
     "That blade..."
197: 0x063F [0x23] WAIT_FOR_DIALOG_INTERACTION
198: 0x0640 [0x52] END_LOAD_SCHEDULER: End scheduler "s092" with entities [EventEntity, EventEntity], work=656*
199: 0x064F [0x45] LOAD_SCHEDULED_TASK: Load scheduler "s093" with entities [EventEntity, EventEntity], work=[656*, 0*]
200: 0x0660 [0x79] LocalPlayer looks at Arciela (ID: 17932295/0x0111A007) (Basic look)
201: 0x066A [0x03] Work_Zone[2] = 2410*
202: 0x066F [0x2B] Arciela (ID: 17932295/0x0111A007) [7073*]:
     "<Player>, can you show him the proof of your bonds to this forest, too?"
203: 0x0676 [0x23] WAIT_FOR_DIALOG_INTERACTION
204: 0x0677 [0x52] END_LOAD_SCHEDULER: End scheduler "s093" with entities [EventEntity, EventEntity], work=656*
205: 0x0686 [0x02] IF !(LocalPlayer->Race == 5*) GOTO 0x06A2
206: 0x068E [0x45] LOAD_SCHEDULED_TASK: Load scheduler "s095" with entities [EventEntity, EventEntity], work=[656*, 0*]
207: 0x069F [0x01] GOTO 0x06CF
208: 0x06A2 [0x02] IF !(LocalPlayer->Race == 6*) GOTO 0x06BE
209: 0x06AA [0x45] LOAD_SCHEDULED_TASK: Load scheduler "s095" with entities [EventEntity, EventEntity], work=[656*, 0*]
210: 0x06BB [0x01] GOTO 0x06CF
211: 0x06BE [0x45] LOAD_SCHEDULED_TASK: Load scheduler "s094" with entities [EventEntity, EventEntity], work=[656*, 0*]

SUBROUTINE_06CF:
212: 0x06CF [0x1C] WAIT(30* ticks)
213: 0x06D2 [0x6C] FADE_ENTITY_COLOR(entity_id=Arciela (ID: 17932295/0x0111A007), end_alpha=0*, fade_time=1*)
214: 0x06DB [0x6B] STOP_AND_IDLE: Arciela (ID: 17932295/0x0111A007) stops current action and resets to idle (animation="idl0")
215: 0x06E4 [0x4A] Arciela (ID: 17932295/0x0111A007) looks at LocalPlayer
216: 0x06ED [0x7B] Arciela (ID: 17932295/0x0111A007) stops talking
217: 0x06F2 [0x40] SET_BIT_WORK_RANGE(start_bit=4*, end_bit=5*, target=ExtData[1]->WorkLocal[1], source=0*)
218: 0x06FB [0x40] SET_BIT_WORK_RANGE(start_bit=6*, end_bit=7*, target=ExtData[1]->WorkLocal[1], source=0*)
219: 0x0704 [0x03] Work_Zone[2] = 2410*
220: 0x0709 [0x24] CREATE_DIALOG(message_id=7074*, default_option=0*, option_flags=0*)
     "Show your $3? [Sounds like a plan./No can do.]"
221: 0x0710 [0x25] WAIT_DIALOG_SELECT()
222: 0x0711 [0x02] IF !(Work_Zone[0] == 0*) GOTO 0x0750
223: 0x0719 [0x6C] FADE_ENTITY_COLOR(entity_id=Arciela (ID: 17932295/0x0111A007), end_alpha=127*, fade_time=1*)
224: 0x0722 [0x52] END_LOAD_SCHEDULER: End scheduler "s094" with entities [EventEntity, EventEntity], work=656*
225: 0x0731 [0x52] END_LOAD_SCHEDULER: End scheduler "s095" with entities [EventEntity, EventEntity], work=656*
226: 0x0740 [0x02] IF !(ExtData[1]->WorkLocal[0] == 0*) GOTO 0x074D
227: 0x0748 [0x03] Work_Zone[1] = 3*
228: 0x074D [0x01] GOTO 0x09CA
229: 0x0750 [0x02] IF !(Work_Zone[0] == 1*) GOTO 0x09CA
230: 0x0758 [0x02] IF !(ExtData[1]->WorkLocal[0] == 0*) GOTO 0x0765
231: 0x0760 [0x03] Work_Zone[1] = 4*
232: 0x0765 [0x81] SET_ENTITY_BLINKING(blink_flag=0x00, entity=Arciela (ID: 17932295/0x0111A007))
233: 0x076B [0x7C] Arciela (ID: 17932295/0x0111A007)->Render.Flags2 |= 0x00
234: 0x0771 [0x5B] LOAD_EXT_SCHEDULER: Load scheduler "fd01" with entities [Arciela (ID: 17932295/0x0111A007), Arciela (ID: 17932295/0x0111A007)], work=3465*
235: 0x0780 [0x6C] FADE_ENTITY_COLOR(entity_id=Arciela (ID: 17932295/0x0111A007), end_alpha=127*, fade_time=1*)
236: 0x0789 [0x1C] WAIT(30* ticks)
237: 0x078C [0x5B] LOAD_EXT_SCHEDULER: Load scheduler "pun0" with entities [Arciela (ID: 17932295/0x0111A007), Arciela (ID: 17932295/0x0111A007)], work=3465*
238: 0x079B [0x03] Work_Zone[2] = 180*
239: 0x07A0 [0x27] REQ_SET(priority=0x10, entity_id=??? (ID: 17932306/0x0111A012), tag_num=0x01)
240: 0x07A7 [0x52] END_LOAD_SCHEDULER: End scheduler "s094" with entities [EventEntity, EventEntity], work=656*
241: 0x07B6 [0x52] END_LOAD_SCHEDULER: End scheduler "s095" with entities [EventEntity, EventEntity], work=656*
242: 0x07C5 [0x45] LOAD_SCHEDULED_TASK: Load scheduler "s096" with entities [EventEntity, EventEntity], work=[656*, 0*]
243: 0x07D6 [0x2B] Arciela (ID: 17932295/0x0111A007) [7076*]:
     "<Player>! Do you want to get us burned to a crisp!?"
244: 0x07DD [0x23] WAIT_FOR_DIALOG_INTERACTION
245: 0x07DE [0x2B] Arciela (ID: 17932295/0x0111A007) [7077*]:
     "...Or are you saying that because you <gasp> left it back in Adoulin?"
246: 0x07E5 [0x23] WAIT_FOR_DIALOG_INTERACTION
247: 0x07E6 [0x52] END_LOAD_SCHEDULER: End scheduler "s096" with entities [EventEntity, EventEntity], work=656*
248: 0x07F5 [0x45] LOAD_SCHEDULED_TASK: Load scheduler "s097" with entities [EventEntity, EventEntity], work=[656*, 0*]
249: 0x0806 [0x24] CREATE_DIALOG(message_id=7078*, default_option=0*, option_flags=0*)
     "Did you leave it behind? [Yes, silly me./No, I've got it right here.]"
250: 0x080D [0x25] WAIT_DIALOG_SELECT()
251: 0x080E [0x02] IF !(Work_Zone[0] == 0*) GOTO 0x096D
252: 0x0816 [0x52] END_LOAD_SCHEDULER: End scheduler "s097" with entities [EventEntity, EventEntity], work=656*
253: 0x0825 [0x45] LOAD_SCHEDULED_TASK: Load scheduler "s098" with entities [EventEntity, EventEntity], work=[656*, 0*]
254: 0x0836 [0x2B] Arciela (ID: 17932295/0x0111A007) [7079*]:
     "How could you!?"
255: 0x083D [0x23] WAIT_FOR_DIALOG_INTERACTION
256: 0x083E [0x2A] GET_REQ_LEVEL(level=16, entity_id=??? (ID: 17932306/0x0111A012))
257: 0x0844 [0x5B] LOAD_EXT_SCHEDULER: Load scheduler "fd00" with entities [Arciela (ID: 17932295/0x0111A007), Arciela (ID: 17932295/0x0111A007)], work=3465*
258: 0x0853 [0x52] END_LOAD_SCHEDULER: End scheduler "s098" with entities [EventEntity, EventEntity], work=656*
259: 0x0862 [0x02] IF !(LocalPlayer->Race == 3*) GOTO 0x087E
260: 0x086A [0x45] LOAD_SCHEDULED_TASK: Load scheduler "s100" with entities [EventEntity, EventEntity], work=[656*, 0*]
261: 0x087B [0x01] GOTO 0x08FF
262: 0x087E [0x02] IF !(LocalPlayer->Race == 4*) GOTO 0x089A
263: 0x0886 [0x45] LOAD_SCHEDULED_TASK: Load scheduler "s100" with entities [EventEntity, EventEntity], work=[656*, 0*]
264: 0x0897 [0x01] GOTO 0x08FF
265: 0x089A [0x02] IF !(LocalPlayer->Race == 5*) GOTO 0x08B6
266: 0x08A2 [0x45] LOAD_SCHEDULED_TASK: Load scheduler "s101" with entities [EventEntity, EventEntity], work=[656*, 0*]
267: 0x08B3 [0x01] GOTO 0x08FF
268: 0x08B6 [0x02] IF !(LocalPlayer->Race == 6*) GOTO 0x08D2
269: 0x08BE [0x45] LOAD_SCHEDULED_TASK: Load scheduler "s101" with entities [EventEntity, EventEntity], work=[656*, 0*]
270: 0x08CF [0x01] GOTO 0x08FF
271: 0x08D2 [0x02] IF !(LocalPlayer->Race == 8*) GOTO 0x08EE
272: 0x08DA [0x45] LOAD_SCHEDULED_TASK: Load scheduler "s100" with entities [EventEntity, EventEntity], work=[656*, 0*]
273: 0x08EB [0x01] GOTO 0x08FF
274: 0x08EE [0x45] LOAD_SCHEDULED_TASK: Load scheduler "s099" with entities [EventEntity, EventEntity], work=[656*, 0*]

SUBROUTINE_08FF:
275: 0x08FF [0xCD] LOAD_SCHEDULED_TASK_ALT4: Load scheduler "sta1" with entities [Unnamed NPC (ID: 17932298/0x0111A00A), Unnamed NPC (ID: 17932298/0x0111A00A)], work=[151*, 0*]
276: 0x0910 [0x1C] WAIT(120* ticks)
277: 0x0913 [0x52] END_LOAD_SCHEDULER: End scheduler "s099" with entities [EventEntity, EventEntity], work=656*
278: 0x0922 [0x52] END_LOAD_SCHEDULER: End scheduler "s100" with entities [EventEntity, EventEntity], work=656*
279: 0x0931 [0x52] END_LOAD_SCHEDULER: End scheduler "s101" with entities [EventEntity, EventEntity], work=656*
280: 0x0940 [0x45] LOAD_SCHEDULED_TASK: Load scheduler "s102" with entities [EventEntity, EventEntity], work=[656*, 0*]
281: 0x0951 [0x2B] Arciela (ID: 17932295/0x0111A007) [7080*]:
     "Wait a minute..."
282: 0x0958 [0x23] WAIT_FOR_DIALOG_INTERACTION
283: 0x0959 [0xCD] LOAD_SCHEDULED_TASK_ALT4: Load scheduler "kil1" with entities [Unnamed NPC (ID: 17932298/0x0111A00A), Unnamed NPC (ID: 17932298/0x0111A00A)], work=[151*, 0*]
284: 0x096A [0x01] GOTO 0x09A6
285: 0x096D [0x02] IF !(Work_Zone[0] == 1*) GOTO 0x09A6
286: 0x0975 [0x52] END_LOAD_SCHEDULER: End scheduler "s097" with entities [EventEntity, EventEntity], work=656*
287: 0x0984 [0x45] LOAD_SCHEDULED_TASK: Load scheduler "s102" with entities [EventEntity, EventEntity], work=[656*, 0*]
288: 0x0995 [0x2B] Arciela (ID: 17932295/0x0111A007) [7081*]:
     "Ugh! This better be the last time you try to pull my leg like that, <Player>! I don't think my heart can take much more."
289: 0x099C [0x23] WAIT_FOR_DIALOG_INTERACTION
290: 0x099D [0x2A] GET_REQ_LEVEL(level=16, entity_id=??? (ID: 17932306/0x0111A012))
291: 0x09A3 [0x01] GOTO 0x09A6

SUBROUTINE_09A6:
292: 0x09A6 [0x7C] Arciela (ID: 17932295/0x0111A007)->Render.Flags2 |= 0x01
293: 0x09AC [0x81] SET_ENTITY_BLINKING(blink_flag=0x01, entity=Arciela (ID: 17932295/0x0111A007))
294: 0x09B2 [0x5B] LOAD_EXT_SCHEDULER: Load scheduler "f000" with entities [Arciela (ID: 17932295/0x0111A007), Arciela (ID: 17932295/0x0111A007)], work=3216*
295: 0x09C1 [0xD3] CLEAR_ENTITY_MOTION_QUEUE(condition_flag=0x00, entity_server_id=0x0111A007)
296: 0x09C7 [0x01] GOTO 0x09CA

SUBROUTINE_09CA:
297: 0x09CA [0x27] REQ_SET(priority=0x10, entity_id=LocalPlayer, tag_num=0x0C)
298: 0x09D1 [0x45] LOAD_SCHEDULED_TASK: Load scheduler "0blf" with entities [EventEntity, EventEntity], work=[656*, 0*]
299: 0x09E2 [0x52] END_LOAD_SCHEDULER: End scheduler "s102" with entities [EventEntity, EventEntity], work=656*
300: 0x09F1 [0x02] IF !(LocalPlayer->Race == 1*) GOTO 0x0A1C
301: 0x09F9 [0x45] LOAD_SCHEDULED_TASK: Load scheduler "s103" with entities [EventEntity, EventEntity], work=[656*, 0*]
302: 0x0A0A [0x5B] LOAD_EXT_SCHEDULER: Load scheduler "hml1" with entities [Unnamed NPC (ID: 17932297/0x0111A009), Unnamed NPC (ID: 17932297/0x0111A009)], work=3246*
303: 0x0A19 [0x01] GOTO 0x0B49
304: 0x0A1C [0x02] IF !(LocalPlayer->Race == 2*) GOTO 0x0A47
305: 0x0A24 [0x45] LOAD_SCHEDULED_TASK: Load scheduler "s103" with entities [EventEntity, EventEntity], work=[656*, 0*]
306: 0x0A35 [0x5B] LOAD_EXT_SCHEDULER: Load scheduler "hfl1" with entities [Unnamed NPC (ID: 17932297/0x0111A009), Unnamed NPC (ID: 17932297/0x0111A009)], work=3246*
307: 0x0A44 [0x01] GOTO 0x0B49
308: 0x0A47 [0x02] IF !(LocalPlayer->Race == 3*) GOTO 0x0A72
309: 0x0A4F [0x45] LOAD_SCHEDULED_TASK: Load scheduler "s104" with entities [EventEntity, EventEntity], work=[656*, 0*]
310: 0x0A60 [0x5B] LOAD_EXT_SCHEDULER: Load scheduler "eml1" with entities [Unnamed NPC (ID: 17932297/0x0111A009), Unnamed NPC (ID: 17932297/0x0111A009)], work=3246*
311: 0x0A6F [0x01] GOTO 0x0B49
312: 0x0A72 [0x02] IF !(LocalPlayer->Race == 4*) GOTO 0x0A9D
313: 0x0A7A [0x45] LOAD_SCHEDULED_TASK: Load scheduler "s104" with entities [EventEntity, EventEntity], work=[656*, 0*]
314: 0x0A8B [0x5B] LOAD_EXT_SCHEDULER: Load scheduler "efl1" with entities [Unnamed NPC (ID: 17932297/0x0111A009), Unnamed NPC (ID: 17932297/0x0111A009)], work=3246*
315: 0x0A9A [0x01] GOTO 0x0B49
316: 0x0A9D [0x02] IF !(LocalPlayer->Race == 5*) GOTO 0x0AC8
317: 0x0AA5 [0x45] LOAD_SCHEDULED_TASK: Load scheduler "s105" with entities [EventEntity, EventEntity], work=[656*, 0*]
318: 0x0AB6 [0x5B] LOAD_EXT_SCHEDULER: Load scheduler "trl1" with entities [Unnamed NPC (ID: 17932297/0x0111A009), Unnamed NPC (ID: 17932297/0x0111A009)], work=3246*
319: 0x0AC5 [0x01] GOTO 0x0B49
320: 0x0AC8 [0x02] IF !(LocalPlayer->Race == 6*) GOTO 0x0AF3
321: 0x0AD0 [0x45] LOAD_SCHEDULED_TASK: Load scheduler "s105" with entities [EventEntity, EventEntity], work=[656*, 0*]
322: 0x0AE1 [0x5B] LOAD_EXT_SCHEDULER: Load scheduler "trl1" with entities [Unnamed NPC (ID: 17932297/0x0111A009), Unnamed NPC (ID: 17932297/0x0111A009)], work=3246*
323: 0x0AF0 [0x01] GOTO 0x0B49
324: 0x0AF3 [0x02] IF !(LocalPlayer->Race == 7*) GOTO 0x0B1E
325: 0x0AFB [0x45] LOAD_SCHEDULED_TASK: Load scheduler "s103" with entities [EventEntity, EventEntity], work=[656*, 0*]
326: 0x0B0C [0x5B] LOAD_EXT_SCHEDULER: Load scheduler "mfl1" with entities [Unnamed NPC (ID: 17932297/0x0111A009), Unnamed NPC (ID: 17932297/0x0111A009)], work=3246*
327: 0x0B1B [0x01] GOTO 0x0B49
328: 0x0B1E [0x02] IF !(LocalPlayer->Race == 8*) GOTO 0x0B49
329: 0x0B26 [0x45] LOAD_SCHEDULED_TASK: Load scheduler "s104" with entities [EventEntity, EventEntity], work=[656*, 0*]
330: 0x0B37 [0x5B] LOAD_EXT_SCHEDULER: Load scheduler "gml1" with entities [Unnamed NPC (ID: 17932297/0x0111A009), Unnamed NPC (ID: 17932297/0x0111A009)], work=3246*
331: 0x0B46 [0x01] GOTO 0x0B49

SUBROUTINE_0B49:
332: 0x0B49 [0x1C] WAIT(28* ticks)
333: 0x0B4C [0x7B] LocalPlayer stops talking
334: 0x0B51 [0xBA] SET_ENTITY_POSITION(entity_id=Arciela (ID: 17932295/0x0111A007), pos_x=293.999*, pos_z=-3.719*, pos_y=-6.290*, direction=218.1*)
335: 0x0B5E [0x5B] LOAD_EXT_SCHEDULER: Load scheduler "koul" with entities [Arciela (ID: 17932295/0x0111A007), Arciela (ID: 17932295/0x0111A007)], work=3458*
336: 0x0B6D [0x1C] WAIT(200* ticks)
337: 0x0B70 [0x79] LocalPlayer looks at Unnamed NPC (ID: 17932296/0x0111A008) (Basic look)
338: 0x0B7A [0x52] END_LOAD_SCHEDULER: End scheduler "s103" with entities [EventEntity, EventEntity], work=656*
339: 0x0B89 [0x52] END_LOAD_SCHEDULER: End scheduler "s104" with entities [EventEntity, EventEntity], work=656*
340: 0x0B98 [0x45] LOAD_SCHEDULED_TASK: Load scheduler "s106" with entities [EventEntity, EventEntity], work=[656*, 0*]
341: 0x0BA9 [0x02] IF !(LocalPlayer->Race == 1*) GOTO 0x0BC3
342: 0x0BB1 [0x5B] LOAD_EXT_SCHEDULER: Load scheduler "hml2" with entities [Unnamed NPC (ID: 17932297/0x0111A009), Unnamed NPC (ID: 17932297/0x0111A009)], work=3246*
343: 0x0BC0 [0x01] GOTO 0x0C79
344: 0x0BC3 [0x02] IF !(LocalPlayer->Race == 2*) GOTO 0x0BDD
345: 0x0BCB [0x5B] LOAD_EXT_SCHEDULER: Load scheduler "hfl2" with entities [Unnamed NPC (ID: 17932297/0x0111A009), Unnamed NPC (ID: 17932297/0x0111A009)], work=3246*
346: 0x0BDA [0x01] GOTO 0x0C79
347: 0x0BDD [0x02] IF !(LocalPlayer->Race == 3*) GOTO 0x0BF7
348: 0x0BE5 [0x5B] LOAD_EXT_SCHEDULER: Load scheduler "eml2" with entities [Unnamed NPC (ID: 17932297/0x0111A009), Unnamed NPC (ID: 17932297/0x0111A009)], work=3246*
349: 0x0BF4 [0x01] GOTO 0x0C79
350: 0x0BF7 [0x02] IF !(LocalPlayer->Race == 4*) GOTO 0x0C11
351: 0x0BFF [0x5B] LOAD_EXT_SCHEDULER: Load scheduler "efl2" with entities [Unnamed NPC (ID: 17932297/0x0111A009), Unnamed NPC (ID: 17932297/0x0111A009)], work=3246*
352: 0x0C0E [0x01] GOTO 0x0C79
353: 0x0C11 [0x02] IF !(LocalPlayer->Race == 5*) GOTO 0x0C2B
354: 0x0C19 [0x5B] LOAD_EXT_SCHEDULER: Load scheduler "trl2" with entities [Unnamed NPC (ID: 17932297/0x0111A009), Unnamed NPC (ID: 17932297/0x0111A009)], work=3246*
355: 0x0C28 [0x01] GOTO 0x0C79
356: 0x0C2B [0x02] IF !(LocalPlayer->Race == 6*) GOTO 0x0C45
357: 0x0C33 [0x5B] LOAD_EXT_SCHEDULER: Load scheduler "trl2" with entities [Unnamed NPC (ID: 17932297/0x0111A009), Unnamed NPC (ID: 17932297/0x0111A009)], work=3246*
358: 0x0C42 [0x01] GOTO 0x0C79
359: 0x0C45 [0x02] IF !(LocalPlayer->Race == 7*) GOTO 0x0C5F
360: 0x0C4D [0x5B] LOAD_EXT_SCHEDULER: Load scheduler "mfl2" with entities [Unnamed NPC (ID: 17932297/0x0111A009), Unnamed NPC (ID: 17932297/0x0111A009)], work=3246*
361: 0x0C5C [0x01] GOTO 0x0C79
362: 0x0C5F [0x02] IF !(LocalPlayer->Race == 8*) GOTO 0x0C79
