# 0x7FFFFFF0 - Zone Events

## Common Data

| Field            | Value                  |
|------------------|------------------------|
| Zone             | Mount Kamihr (ID: 282) |
| Block Size       | 1544 bytes             |
| Total Events     | 32                     |
| References Count | 53                     |

## List of Events

| Event ID                   | Entrypoint   |   Size |   Instructions |
|----------------------------|--------------|--------|----------------|
| [65535](#event-65535)      | 0x0000       |      1 |              1 |
| [65534](#event-65534)      | 0x0001       |      1 |              1 |
| [65535.1](#event-655351)   | 0x0002       |      5 |              2 |
| [65535.2](#event-655352)   | 0x0007       |      5 |              2 |
| [65535.3](#event-655353)   | 0x000C       |      5 |              2 |
| [65535.4](#event-655354)   | 0x0011       |      5 |              2 |
| [65535.5](#event-655355)   | 0x0016       |     14 |              4 |
| [65535.6](#event-655356)   | 0x0024       |     14 |              4 |
| [65535.7](#event-655357)   | 0x0032       |     10 |              2 |
| [65535.8](#event-655358)   | 0x003C       |     10 |              2 |
| [65535.9](#event-655359)   | 0x0046       |     24 |              4 |
| [65535.10](#event-6553510) | 0x005E       |     24 |              4 |
| [65535.11](#event-6553511) | 0x0076       |     29 |              5 |
| [65535.12](#event-6553512) | 0x0093       |     29 |              5 |
| [65535.13](#event-6553513) | 0x00B0       |     10 |              2 |
| [65535.14](#event-6553514) | 0x00BA       |     10 |              2 |
| [65535.15](#event-6553515) | 0x00C4       |     27 |              5 |
| [65535.16](#event-6553516) | 0x00DF       |     22 |              6 |
| [65535.17](#event-6553517) | 0x00F5       |     19 |              5 |
| [65535.18](#event-6553518) | 0x0108       |     24 |              5 |
| [65535.19](#event-6553519) | 0x0120       |     24 |              4 |
| [65535.20](#event-6553520) | 0x0138       |     24 |              4 |
| [65535.21](#event-6553521) | 0x0150       |     38 |              5 |
| [65535.22](#event-6553522) | 0x0176       |     38 |              5 |
| [65535.23](#event-6553523) | 0x019C       |     38 |              5 |
| [65535.24](#event-6553524) | 0x01C2       |     37 |              5 |
| [65535.25](#event-6553525) | 0x01E7       |     37 |              5 |
| [65535.26](#event-6553526) | 0x020C       |     42 |              6 |
| [65535.27](#event-6553527) | 0x0236       |    353 |             41 |
| [65535.28](#event-6553528) | 0x0397       |     47 |              7 |
| [65535.29](#event-6553529) | 0x03C6       |     37 |              5 |
| [65535.30](#event-6553530) | 0x03EB       |    185 |             37 |

## DAT References (imed_data)

|   Index | Hex Value   |   Dec Value |
|---------|-------------|-------------|
|       0 | 0x0057      |          87 |
|       1 | 0x005D      |          93 |
|       2 | 0x0060      |          96 |
|       3 | 0x0064      |         100 |
|       4 | 0x000D      |          13 |
|       5 | 0x47AA6     |      293542 |
|       6 | 0xFFFFEB52  |  4294962002 |
|       7 | 0xFFFFE6EC  |  4294960876 |
|       8 | 0x47821     |      292897 |
|       9 | 0xFFFFEF2B  |  4294962987 |
|      10 | 0xFFFFE767  |  4294960999 |
|      11 | 0x0000      |           0 |
|      12 | 0x003C      |          60 |
|      13 | 0x0080      |         128 |
|      14 | 0x0001      |           1 |
|      15 | 0x007F      |         127 |
|      16 | 0x0078      |         120 |
|      17 | 0x0028      |          40 |
|      18 | 0x48073     |      295027 |
|      19 | 0xFFFFE44E  |  4294960206 |
|      20 | 0xFFFFE6ED  |  4294960877 |
|      21 | 0x001E      |          30 |
|      22 | 0x47714     |      292628 |
|      23 | 0xFFFFF297  |  4294963863 |
|      24 | 0xFFFFE6BA  |  4294960826 |
|      25 | 0x0008      |           8 |
|      26 | 0x0007      |           7 |
|      27 | 0x0091      |         145 |
|      28 | 0x004F      |          79 |
|      29 | 0x004C      |          76 |
|      30 | 0x00C9      |         201 |
|      31 | 0x0018      |          24 |
|      32 | 0x0020      |          32 |
|      33 | 0x0030      |          48 |
|      34 | 0x0005      |           5 |
|      35 | 0x0040      |          64 |
|      36 | 0x0095      |         149 |
|      37 | 0x0002      |           2 |
|      38 | 0x009F      |         159 |
|      39 | 0x0003      |           3 |
|      40 | 0x00A9      |         169 |
|      41 | 0x0004      |           4 |
|      42 | 0x00B3      |         179 |
|      43 | 0x00BD      |         189 |
|      44 | 0x0006      |           6 |
|      45 | 0x00C7      |         199 |
|      46 | 0x00D1      |         209 |
|      47 | 0x00B4      |         180 |
|      48 | 0x000A      |          10 |
|      49 | 0x0009      |           9 |
|      50 | 0x0046      |          70 |
|      51 | 0x008C      |         140 |
|      52 | 0x00D2      |         210 |

## Events

### Event 65535

#### Metadata

| Field        | Value   |
|--------------|---------|
| Entrypoint   | 0x0000  |
| Data Size    | 1 bytes |
| Instructions | 1       |

```
      00 01 02 03 04 05 06 07  08 09 0A 0B 0C 0D 0E 0F
      -- -- -- -- -- -- -- --  -- -- -- -- -- -- -- --
0000: 00                                                .               
```

#### Opcodes

```
  0: 0x0000 [0x00] END_REQSTACK()
```

### Event 65534

#### Metadata

| Field        | Value   |
|--------------|---------|
| Entrypoint   | 0x0001  |
| Data Size    | 1 bytes |
| Instructions | 1       |

```
      00 01 02 03 04 05 06 07  08 09 0A 0B 0C 0D 0E 0F
      -- -- -- -- -- -- -- --  -- -- -- -- -- -- -- --
0000:    00                                              .              
```

#### Opcodes

```
  0: 0x0001 [0x00] END_REQSTACK()
```

### Event 65535.1

#### Metadata

| Field        | Value   |
|--------------|---------|
| Entrypoint   | 0x0002  |
| Data Size    | 5 bytes |
| Instructions | 2       |

```
      00 01 02 03 04 05 06 07  08 09 0A 0B 0C 0D 0E 0F
      -- -- -- -- -- -- -- --  -- -- -- -- -- -- -- --
0000:       B6 0F 00 80 00                                .....         
```

#### Opcodes

```
  0: 0x0002 [0xB6] ENTITY_APPEARANCE_HANDLER(case=Model size, value=87*)
  1: 0x0006 [0x00] END_REQSTACK()
```

### Event 65535.2

#### Metadata

| Field        | Value   |
|--------------|---------|
| Entrypoint   | 0x0007  |
| Data Size    | 5 bytes |
| Instructions | 2       |

```
      00 01 02 03 04 05 06 07  08 09 0A 0B 0C 0D 0E 0F
      -- -- -- -- -- -- -- --  -- -- -- -- -- -- -- --
0000:                      B6  0F 01 80 00                     .....    
```

#### Opcodes

```
  0: 0x0007 [0xB6] ENTITY_APPEARANCE_HANDLER(case=Model size, value=93*)
  1: 0x000B [0x00] END_REQSTACK()
```

### Event 65535.3

#### Metadata

| Field        | Value   |
|--------------|---------|
| Entrypoint   | 0x000C  |
| Data Size    | 5 bytes |
| Instructions | 2       |

```
      00 01 02 03 04 05 06 07  08 09 0A 0B 0C 0D 0E 0F
      -- -- -- -- -- -- -- --  -- -- -- -- -- -- -- --
0000:                                      B6 0F 02 80              ....
0010: 00                                                .               
```

#### Opcodes

```
  0: 0x000C [0xB6] ENTITY_APPEARANCE_HANDLER(case=Model size, value=96*)
  1: 0x0010 [0x00] END_REQSTACK()
```

### Event 65535.4

#### Metadata

| Field        | Value   |
|--------------|---------|
| Entrypoint   | 0x0011  |
| Data Size    | 5 bytes |
| Instructions | 2       |

```
      00 01 02 03 04 05 06 07  08 09 0A 0B 0C 0D 0E 0F
      -- -- -- -- -- -- -- --  -- -- -- -- -- -- -- --
0010:    B6 0F 03 80 00                                  .....          
```

#### Opcodes

```
  0: 0x0011 [0xB6] ENTITY_APPEARANCE_HANDLER(case=Model size, value=100*)
  1: 0x0015 [0x00] END_REQSTACK()
```

### Event 65535.5

#### Metadata

| Field        | Value    |
|--------------|----------|
| Entrypoint   | 0x0016   |
| Data Size    | 14 bytes |
| Instructions | 4        |

```
      00 01 02 03 04 05 06 07  08 09 0A 0B 0C 0D 0E 0F
      -- -- -- -- -- -- -- --  -- -- -- -- -- -- -- --
0010:                   32 04  80 1F 00 05 80 06 80 07        2.........
0020: 80 1F 01 00                                       ....            
```

#### Opcodes

```
  0: 0x0016 [0x32] ExtData[1]->MainSpeed = 13* * 0.1
  1: 0x0019 [0x1F] MOVE_ENTITY: EventEntity moves to X=293.542*, Z=-5.294*, Y=-6.420*
  2: 0x0021 [0x1F] MOVE_ENTITY: Update entity position (mode=1)
  3: 0x0023 [0x00] END_REQSTACK()
```

### Event 65535.6

#### Metadata

| Field        | Value    |
|--------------|----------|
| Entrypoint   | 0x0024   |
| Data Size    | 14 bytes |
| Instructions | 4        |

```
      00 01 02 03 04 05 06 07  08 09 0A 0B 0C 0D 0E 0F
      -- -- -- -- -- -- -- --  -- -- -- -- -- -- -- --
0020:             32 04 80 1F  00 08 80 09 80 0A 80 1F      2...........
0030: 01 00                                             ..              
```

#### Opcodes

```
  0: 0x0024 [0x32] ExtData[1]->MainSpeed = 13* * 0.1
  1: 0x0027 [0x1F] MOVE_ENTITY: EventEntity moves to X=292.897*, Z=-4.309*, Y=-6.297*
  2: 0x002F [0x1F] MOVE_ENTITY: Update entity position (mode=1)
  3: 0x0031 [0x00] END_REQSTACK()
```

### Event 65535.7

#### Metadata

| Field        | Value    |
|--------------|----------|
| Entrypoint   | 0x0032   |
| Data Size    | 10 bytes |
| Instructions | 2        |

```
      00 01 02 03 04 05 06 07  08 09 0A 0B 0C 0D 0E 0F
      -- -- -- -- -- -- -- --  -- -- -- -- -- -- -- --
0030:       6C F8 FF FF 7F 0B  80 0C 80 00                l.........    
```

#### Opcodes

```
  0: 0x0032 [0x6C] FADE_ENTITY_COLOR(entity_id=EventEntity, end_alpha=0*, fade_time=60*)
  1: 0x003B [0x00] END_REQSTACK()
```

### Event 65535.8

#### Metadata

| Field        | Value    |
|--------------|----------|
| Entrypoint   | 0x003C   |
| Data Size    | 10 bytes |
| Instructions | 2        |

```
      00 01 02 03 04 05 06 07  08 09 0A 0B 0C 0D 0E 0F
      -- -- -- -- -- -- -- --  -- -- -- -- -- -- -- --
0030:                                      6C F8 FF FF              l...
0040: 7F 0D 80 0C 80 00                                 ......          
```

#### Opcodes

```
  0: 0x003C [0x6C] FADE_ENTITY_COLOR(entity_id=EventEntity, end_alpha=128*, fade_time=60*)
  1: 0x0045 [0x00] END_REQSTACK()
```

### Event 65535.9

#### Metadata

| Field        | Value    |
|--------------|----------|
| Entrypoint   | 0x0046   |
| Data Size    | 24 bytes |
| Instructions | 4        |

```
      00 01 02 03 04 05 06 07  08 09 0A 0B 0C 0D 0E 0F
      -- -- -- -- -- -- -- --  -- -- -- -- -- -- -- --
0040:                   03 00  00 07 7F 1A 5A 04 66 01        ......Z.f.
0050: 00 F8 FF FF 7F F8 FF FF  7F 6D 61 62 30 00        .........mab0.  
```

#### Opcodes

```
  0: 0x0046 [0x03] ExtData[1]->WorkLocal[0] = Entity->Race
  1: 0x004B [0x1A] CALL_SUBROUTINE(address=0x045A)
  2: 0x004E [0x66] LOAD_EXT_SCHEDULER_MAIN: Load scheduler "mab0" with entities [EventEntity, EventEntity], work=ExtData[1]->WorkLocal[1]
  3: 0x005D [0x00] END_REQSTACK()
```

### Event 65535.10

#### Metadata

| Field        | Value    |
|--------------|----------|
| Entrypoint   | 0x005E   |
| Data Size    | 24 bytes |
| Instructions | 4        |

```
      00 01 02 03 04 05 06 07  08 09 0A 0B 0C 0D 0E 0F
      -- -- -- -- -- -- -- --  -- -- -- -- -- -- -- --
0050:                                            03 00                ..
0060: 00 07 7F 1A 5A 04 66 01  00 F8 FF FF 7F F8 FF FF  ....Z.f.........
0070: 7F 6D 61 62 31 00                                 .mab1.          
```

#### Opcodes

```
  0: 0x005E [0x03] ExtData[1]->WorkLocal[0] = Entity->Race
  1: 0x0063 [0x1A] CALL_SUBROUTINE(address=0x045A)
  2: 0x0066 [0x66] LOAD_EXT_SCHEDULER_MAIN: Load scheduler "mab1" with entities [EventEntity, EventEntity], work=ExtData[1]->WorkLocal[1]
  3: 0x0075 [0x00] END_REQSTACK()
```

### Event 65535.11

#### Metadata

| Field        | Value    |
|--------------|----------|
| Entrypoint   | 0x0076   |
| Data Size    | 29 bytes |
| Instructions | 5        |

```
      00 01 02 03 04 05 06 07  08 09 0A 0B 0C 0D 0E 0F
      -- -- -- -- -- -- -- --  -- -- -- -- -- -- -- --
0070:                   03 00  00 07 7F 1A 5A 04 07 01        ......Z...
0080: 00 0E 80 66 01 00 F8 FF  FF 7F F8 FF FF 7F 6B 69  ...f..........ki
0090: 7A 30 00                                          z0.             
```

#### Opcodes

```
  0: 0x0076 [0x03] ExtData[1]->WorkLocal[0] = Entity->Race
  1: 0x007B [0x1A] CALL_SUBROUTINE(address=0x045A)
  2: 0x007E [0x07] ExtData[1]->WorkLocal[1] += 1*
  3: 0x0083 [0x66] LOAD_EXT_SCHEDULER_MAIN: Load scheduler "kiz0" with entities [EventEntity, EventEntity], work=ExtData[1]->WorkLocal[1]
  4: 0x0092 [0x00] END_REQSTACK()
```

### Event 65535.12

#### Metadata

| Field        | Value    |
|--------------|----------|
| Entrypoint   | 0x0093   |
| Data Size    | 29 bytes |
| Instructions | 5        |

```
      00 01 02 03 04 05 06 07  08 09 0A 0B 0C 0D 0E 0F
      -- -- -- -- -- -- -- --  -- -- -- -- -- -- -- --
0090:          03 00 00 07 7F  1A 5A 04 07 01 00 0E 80     ......Z......
00A0: 66 01 00 F8 FF FF 7F F8  FF FF 7F 6B 69 7A 31 00  f..........kiz1.
```

#### Opcodes

```
  0: 0x0093 [0x03] ExtData[1]->WorkLocal[0] = Entity->Race
  1: 0x0098 [0x1A] CALL_SUBROUTINE(address=0x045A)
  2: 0x009B [0x07] ExtData[1]->WorkLocal[1] += 1*
  3: 0x00A0 [0x66] LOAD_EXT_SCHEDULER_MAIN: Load scheduler "kiz1" with entities [EventEntity, EventEntity], work=ExtData[1]->WorkLocal[1]
  4: 0x00AF [0x00] END_REQSTACK()
```

### Event 65535.13

#### Metadata

| Field        | Value    |
|--------------|----------|
| Entrypoint   | 0x00B0   |
| Data Size    | 10 bytes |
| Instructions | 2        |

```
      00 01 02 03 04 05 06 07  08 09 0A 0B 0C 0D 0E 0F
      -- -- -- -- -- -- -- --  -- -- -- -- -- -- -- --
00B0: 6C F8 FF FF 7F 0F 80 10  80 00                    l.........      
```

#### Opcodes

```
  0: 0x00B0 [0x6C] FADE_ENTITY_COLOR(entity_id=EventEntity, end_alpha=127*, fade_time=120*)
  1: 0x00B9 [0x00] END_REQSTACK()
```

### Event 65535.14

#### Metadata

| Field        | Value    |
|--------------|----------|
| Entrypoint   | 0x00BA   |
| Data Size    | 10 bytes |
| Instructions | 2        |

```
      00 01 02 03 04 05 06 07  08 09 0A 0B 0C 0D 0E 0F
      -- -- -- -- -- -- -- --  -- -- -- -- -- -- -- --
00B0:                                6C F8 FF FF 7F 0B            l.....
00C0: 80 10 80 00                                       ....            
```

#### Opcodes

```
  0: 0x00BA [0x6C] FADE_ENTITY_COLOR(entity_id=EventEntity, end_alpha=0*, fade_time=120*)
  1: 0x00C3 [0x00] END_REQSTACK()
```

### Event 65535.15

#### Metadata

| Field        | Value    |
|--------------|----------|
| Entrypoint   | 0x00C4   |
| Data Size    | 27 bytes |
| Instructions | 5        |

```
      00 01 02 03 04 05 06 07  08 09 0A 0B 0C 0D 0E 0F
      -- -- -- -- -- -- -- --  -- -- -- -- -- -- -- --
00C0:             03 00 00 07  7F 1A 35 04 0B 01 00 66      ......5....f
00D0: 01 00 F8 FF FF 7F F8 FF  FF 7F 70 61 73 30 00     ..........pas0. 
```

#### Opcodes

```
  0: 0x00C4 [0x03] ExtData[1]->WorkLocal[0] = Entity->Race
  1: 0x00C9 [0x1A] CALL_SUBROUTINE(address=0x0435)
  2: 0x00CC [0x0B] ExtData[1]->WorkLocal[1]++
  3: 0x00CF [0x66] LOAD_EXT_SCHEDULER_MAIN: Load scheduler "pas0" with entities [EventEntity, EventEntity], work=ExtData[1]->WorkLocal[1]
  4: 0x00DE [0x00] END_REQSTACK()
```

### Event 65535.16

#### Metadata

| Field        | Value    |
|--------------|----------|
| Entrypoint   | 0x00DF   |
| Data Size    | 22 bytes |
| Instructions | 6        |

```
      00 01 02 03 04 05 06 07  08 09 0A 0B 0C 0D 0E 0F
      -- -- -- -- -- -- -- --  -- -- -- -- -- -- -- --
00D0:                                               32                 2
00E0: 11 80 1F 00 12 80 13 80  14 80 1F 01 1E 0A A0 11  ................
00F0: 01 1C 15 80 00                                    .....           
```

#### Opcodes

```
  0: 0x00DF [0x32] ExtData[1]->MainSpeed = 40* * 0.1
  1: 0x00E2 [0x1F] MOVE_ENTITY: EventEntity moves to X=295.027*, Z=-7.090*, Y=-6.419*
  2: 0x00EA [0x1F] MOVE_ENTITY: Update entity position (mode=1)
  3: 0x00EC [0x1E] EventEntity looks at Unnamed NPC (ID: 17932298/0x0111A00A) and starts talking
  4: 0x00F1 [0x1C] WAIT(30* ticks)
  5: 0x00F4 [0x00] END_REQSTACK()
```

### Event 65535.17

#### Metadata

| Field        | Value    |
|--------------|----------|
| Entrypoint   | 0x00F5   |
| Data Size    | 19 bytes |
| Instructions | 5        |

```
      00 01 02 03 04 05 06 07  08 09 0A 0B 0C 0D 0E 0F
      -- -- -- -- -- -- -- --  -- -- -- -- -- -- -- --
00F0:                32 04 80  1F 00 12 80 13 80 14 80       2..........
0100: 1F 01 1E 0A A0 11 01 00                           ........        
```

#### Opcodes

```
  0: 0x00F5 [0x32] ExtData[1]->MainSpeed = 13* * 0.1
  1: 0x00F8 [0x1F] MOVE_ENTITY: EventEntity moves to X=295.027*, Z=-7.090*, Y=-6.419*
  2: 0x0100 [0x1F] MOVE_ENTITY: Update entity position (mode=1)
  3: 0x0102 [0x1E] EventEntity looks at Unnamed NPC (ID: 17932298/0x0111A00A) and starts talking
  4: 0x0107 [0x00] END_REQSTACK()
```

### Event 65535.18

#### Metadata

| Field        | Value    |
|--------------|----------|
| Entrypoint   | 0x0108   |
| Data Size    | 24 bytes |
| Instructions | 5        |

```
      00 01 02 03 04 05 06 07  08 09 0A 0B 0C 0D 0E 0F
      -- -- -- -- -- -- -- --  -- -- -- -- -- -- -- --
0100:                          32 04 80 1F 00 16 80 17          2.......
0110: 80 18 80 1F 01 79 00 F0  FF FF 7F 08 A0 11 01 00  .....y..........
```

#### Opcodes

```
  0: 0x0108 [0x32] ExtData[1]->MainSpeed = 13* * 0.1
  1: 0x010B [0x1F] MOVE_ENTITY: EventEntity moves to X=292.628*, Z=-3.433*, Y=-6.470*
  2: 0x0113 [0x1F] MOVE_ENTITY: Update entity position (mode=1)
  3: 0x0115 [0x79] LocalPlayer looks at Unnamed NPC (ID: 17932296/0x0111A008) (Basic look)
  4: 0x011F [0x00] END_REQSTACK()
```

### Event 65535.19

#### Metadata

| Field        | Value    |
|--------------|----------|
| Entrypoint   | 0x0120   |
| Data Size    | 24 bytes |
| Instructions | 4        |

```
      00 01 02 03 04 05 06 07  08 09 0A 0B 0C 0D 0E 0F
      -- -- -- -- -- -- -- --  -- -- -- -- -- -- -- --
0120: 03 00 00 07 7F 1A 10 04  66 01 00 F8 FF FF 7F F8  ........f.......
0130: FF FF 7F 74 6C 6B 30 00                           ...tlk0.        
```

#### Opcodes

```
  0: 0x0120 [0x03] ExtData[1]->WorkLocal[0] = Entity->Race
  1: 0x0125 [0x1A] CALL_SUBROUTINE(address=0x0410)
  2: 0x0128 [0x66] LOAD_EXT_SCHEDULER_MAIN: Load scheduler "tlk0" with entities [EventEntity, EventEntity], work=ExtData[1]->WorkLocal[1]
  3: 0x0137 [0x00] END_REQSTACK()
```

### Event 65535.20

#### Metadata

| Field        | Value    |
|--------------|----------|
| Entrypoint   | 0x0138   |
| Data Size    | 24 bytes |
| Instructions | 4        |

```
      00 01 02 03 04 05 06 07  08 09 0A 0B 0C 0D 0E 0F
      -- -- -- -- -- -- -- --  -- -- -- -- -- -- -- --
0130:                          03 00 00 07 7F 1A 10 04          ........
0140: 66 01 00 F8 FF FF 7F F8  FF FF 7F 74 6C 6B 31 00  f..........tlk1.
```

#### Opcodes

```
  0: 0x0138 [0x03] ExtData[1]->WorkLocal[0] = Entity->Race
  1: 0x013D [0x1A] CALL_SUBROUTINE(address=0x0410)
  2: 0x0140 [0x66] LOAD_EXT_SCHEDULER_MAIN: Load scheduler "tlk1" with entities [EventEntity, EventEntity], work=ExtData[1]->WorkLocal[1]
  3: 0x014F [0x00] END_REQSTACK()
```

### Event 65535.21

#### Metadata

| Field        | Value    |
|--------------|----------|
| Entrypoint   | 0x0150   |
| Data Size    | 38 bytes |
| Instructions | 5        |

```
      00 01 02 03 04 05 06 07  08 09 0A 0B 0C 0D 0E 0F
      -- -- -- -- -- -- -- --  -- -- -- -- -- -- -- --
0150: 22 00 2F 00 F8 FF FF 7F  B6 0B 19 80 1A 80 1B 80  "./.............
0160: 1C 80 1D 80 1D 80 1D 80  1E 80 1F 80 6C F8 FF FF  ............l...
0170: 7F 20 80 0E 80 00                                 . ....          
```

#### Opcodes

```
  0: 0x0150 [0x22] ENTITY_HIDE_FLAG(enabled=0x00)
  1: 0x0152 [0x2F] EventEntity->Render.Flags0 &= ~0x80000 // Bit 19
  2: 0x0158 [0xB6] ENTITY_APPEARANCE_HANDLER(case=Full entity look, race=8*, hair=7*, head=145*, body=79*, hands=76*, legs=76*, feet=76*, main=201*, sub=24*)
  3: 0x016C [0x6C] FADE_ENTITY_COLOR(entity_id=EventEntity, end_alpha=32*, fade_time=1*)
  4: 0x0175 [0x00] END_REQSTACK()
```

### Event 65535.22

#### Metadata

| Field        | Value    |
|--------------|----------|
| Entrypoint   | 0x0176   |
| Data Size    | 38 bytes |
| Instructions | 5        |

```
      00 01 02 03 04 05 06 07  08 09 0A 0B 0C 0D 0E 0F
      -- -- -- -- -- -- -- --  -- -- -- -- -- -- -- --
0170:                   22 00  2F 00 F8 FF FF 7F B6 0B        "./.......
0180: 1A 80 1A 80 1B 80 1C 80  1D 80 1D 80 1D 80 1E 80  ................
0190: 1F 80 6C F8 FF FF 7F 21  80 0E 80 00              ..l....!....    
```

#### Opcodes

```
  0: 0x0176 [0x22] ENTITY_HIDE_FLAG(enabled=0x00)
  1: 0x0178 [0x2F] EventEntity->Render.Flags0 &= ~0x80000 // Bit 19
  2: 0x017E [0xB6] ENTITY_APPEARANCE_HANDLER(case=Full entity look, race=7*, hair=7*, head=145*, body=79*, hands=76*, legs=76*, feet=76*, main=201*, sub=24*)
  3: 0x0192 [0x6C] FADE_ENTITY_COLOR(entity_id=EventEntity, end_alpha=48*, fade_time=1*)
  4: 0x019B [0x00] END_REQSTACK()
```

### Event 65535.23

#### Metadata

| Field        | Value    |
|--------------|----------|
| Entrypoint   | 0x019C   |
| Data Size    | 38 bytes |
| Instructions | 5        |

```
      00 01 02 03 04 05 06 07  08 09 0A 0B 0C 0D 0E 0F
      -- -- -- -- -- -- -- --  -- -- -- -- -- -- -- --
0190:                                      22 00 2F 00              "./.
01A0: F8 FF FF 7F B6 0B 22 80  1A 80 1B 80 1C 80 1D 80  ......".........
01B0: 1D 80 1D 80 1E 80 1F 80  6C F8 FF FF 7F 23 80 0E  ........l....#..
01C0: 80 00                                             ..              
```

#### Opcodes

```
  0: 0x019C [0x22] ENTITY_HIDE_FLAG(enabled=0x00)
  1: 0x019E [0x2F] EventEntity->Render.Flags0 &= ~0x80000 // Bit 19
  2: 0x01A4 [0xB6] ENTITY_APPEARANCE_HANDLER(case=Full entity look, race=5*, hair=7*, head=145*, body=79*, hands=76*, legs=76*, feet=76*, main=201*, sub=24*)
  3: 0x01B8 [0x6C] FADE_ENTITY_COLOR(entity_id=EventEntity, end_alpha=64*, fade_time=1*)
  4: 0x01C1 [0x00] END_REQSTACK()
```

### Event 65535.24

#### Metadata

| Field        | Value    |
|--------------|----------|
| Entrypoint   | 0x01C2   |
| Data Size    | 37 bytes |
| Instructions | 5        |

```
      00 01 02 03 04 05 06 07  08 09 0A 0B 0C 0D 0E 0F
      -- -- -- -- -- -- -- --  -- -- -- -- -- -- -- --
01C0:       03 00 00 07 7F 1A  10 04 66 01 00 F8 FF FF    ........f.....
01D0: 7F F8 FF FF 7F 73 69 74  30 53 F8 FF FF 7F F8 FF  .....sit0S......
01E0: FF 7F 73 69 74 30 00                              ..sit0.         
```

#### Opcodes

```
  0: 0x01C2 [0x03] ExtData[1]->WorkLocal[0] = Entity->Race
  1: 0x01C7 [0x1A] CALL_SUBROUTINE(address=0x0410)
  2: 0x01CA [0x66] LOAD_EXT_SCHEDULER_MAIN: Load scheduler "sit0" with entities [EventEntity, EventEntity], work=ExtData[1]->WorkLocal[1]
  3: 0x01D9 [0x53] WAIT_SCHEDULER_TASK: Wait for scheduler "sit0" with entities [EventEntity, EventEntity]
  4: 0x01E6 [0x00] END_REQSTACK()
```

### Event 65535.25

#### Metadata

| Field        | Value    |
|--------------|----------|
| Entrypoint   | 0x01E7   |
| Data Size    | 37 bytes |
| Instructions | 5        |

```
      00 01 02 03 04 05 06 07  08 09 0A 0B 0C 0D 0E 0F
      -- -- -- -- -- -- -- --  -- -- -- -- -- -- -- --
01E0:                      03  00 00 07 7F 1A 10 04 66         ........f
01F0: 01 00 F8 FF FF 7F F8 FF  FF 7F 73 69 74 31 53 F8  ..........sit1S.
0200: FF FF 7F F8 FF FF 7F 73  69 74 31 00              .......sit1.    
```

#### Opcodes

```
  0: 0x01E7 [0x03] ExtData[1]->WorkLocal[0] = Entity->Race
  1: 0x01EC [0x1A] CALL_SUBROUTINE(address=0x0410)
  2: 0x01EF [0x66] LOAD_EXT_SCHEDULER_MAIN: Load scheduler "sit1" with entities [EventEntity, EventEntity], work=ExtData[1]->WorkLocal[1]
  3: 0x01FE [0x53] WAIT_SCHEDULER_TASK: Wait for scheduler "sit1" with entities [EventEntity, EventEntity]
  4: 0x020B [0x00] END_REQSTACK()
```

### Event 65535.26

#### Metadata

| Field        | Value    |
|--------------|----------|
| Entrypoint   | 0x020C   |
| Data Size    | 42 bytes |
| Instructions | 6        |

```
      00 01 02 03 04 05 06 07  08 09 0A 0B 0C 0D 0E 0F
      -- -- -- -- -- -- -- --  -- -- -- -- -- -- -- --
0200:                                      03 00 00 07              ....
0210: 7F 1A 10 04 66 01 00 F8  FF FF 7F F8 FF FF 7F 74  ....f..........t
0220: 6C 6B 30 1C 0C 80 66 01  00 F8 FF FF 7F F8 FF FF  lk0...f.........
0230: 7F 74 6C 6B 31 00                                 .tlk1.          
```

#### Opcodes

```
  0: 0x020C [0x03] ExtData[1]->WorkLocal[0] = Entity->Race
  1: 0x0211 [0x1A] CALL_SUBROUTINE(address=0x0410)
  2: 0x0214 [0x66] LOAD_EXT_SCHEDULER_MAIN: Load scheduler "tlk0" with entities [EventEntity, EventEntity], work=ExtData[1]->WorkLocal[1]
  3: 0x0223 [0x1C] WAIT(60* ticks)
  4: 0x0226 [0x66] LOAD_EXT_SCHEDULER_MAIN: Load scheduler "tlk1" with entities [EventEntity, EventEntity], work=ExtData[1]->WorkLocal[1]
  5: 0x0235 [0x00] END_REQSTACK()
```

### Event 65535.27

#### Metadata

| Field        | Value     |
|--------------|-----------|
| Entrypoint   | 0x0236    |
| Data Size    | 353 bytes |
| Instructions | 41        |

```
      00 01 02 03 04 05 06 07  08 09 0A 0B 0C 0D 0E 0F
      -- -- -- -- -- -- -- --  -- -- -- -- -- -- -- --
0230:                   02 07  7F 0E 80 80 62 02 66 24        ......b.f$
0240: 80 F8 FF FF 7F F8 FF FF  7F 74 6C 6B 30 1C 10 80  .........tlk0...
0250: 66 24 80 F8 FF FF 7F F8  FF FF 7F 74 6C 6B 31 01  f$.........tlk1.
0260: 96 03 02 07 7F 25 80 80  8E 02 66 26 80 F8 FF FF  .....%....f&....
0270: 7F F8 FF FF 7F 74 6C 6B  30 1C 10 80 66 26 80 F8  .....tlk0...f&..
0280: FF FF 7F F8 FF FF 7F 74  6C 6B 31 01 96 03 02 07  .......tlk1.....
0290: 7F 27 80 80 BA 02 66 28  80 F8 FF FF 7F F8 FF FF  .'....f(........
02A0: 7F 74 6C 6B 30 1C 10 80  66 28 80 F8 FF FF 7F F8  .tlk0...f(......
02B0: FF FF 7F 74 6C 6B 31 01  96 03 02 07 7F 29 80 80  ...tlk1......)..
02C0: E6 02 66 2A 80 F8 FF FF  7F F8 FF FF 7F 74 6C 6B  ..f*.........tlk
02D0: 30 1C 10 80 66 2A 80 F8  FF FF 7F F8 FF FF 7F 74  0...f*.........t
02E0: 6C 6B 31 01 96 03 02 07  7F 22 80 80 12 03 66 2B  lk1......"....f+
02F0: 80 F8 FF FF 7F F8 FF FF  7F 74 6C 6B 30 1C 10 80  .........tlk0...
0300: 66 2B 80 F8 FF FF 7F F8  FF FF 7F 74 6C 6B 31 01  f+.........tlk1.
0310: 96 03 02 07 7F 2C 80 80  3E 03 66 2B 80 F8 FF FF  .....,..>.f+....
0320: 7F F8 FF FF 7F 74 6C 6B  30 1C 10 80 66 2B 80 F8  .....tlk0...f+..
0330: FF FF 7F F8 FF FF 7F 74  6C 6B 31 01 96 03 02 07  .......tlk1.....
0340: 7F 1A 80 80 6A 03 66 2D  80 F8 FF FF 7F F8 FF FF  ....j.f-........
0350: 7F 74 6C 6B 30 1C 10 80  66 2D 80 F8 FF FF 7F F8  .tlk0...f-......
0360: FF FF 7F 74 6C 6B 31 01  96 03 02 07 7F 19 80 80  ...tlk1.........
0370: 96 03 66 2E 80 F8 FF FF  7F F8 FF FF 7F 74 6C 6B  ..f..........tlk
0380: 30 1C 10 80 66 2E 80 F8  FF FF 7F F8 FF FF 7F 74  0...f..........t
0390: 6C 6B 31 01 96 03 00                              lk1....         
```

#### Opcodes

```
  0: 0x0236 [0x02] IF !(Entity->Race == 1*) GOTO 0x0262
  1: 0x023E [0x66] LOAD_EXT_SCHEDULER_MAIN: Load scheduler "tlk0" with entities [EventEntity, EventEntity], work=149*
  2: 0x024D [0x1C] WAIT(120* ticks)
  3: 0x0250 [0x66] LOAD_EXT_SCHEDULER_MAIN: Load scheduler "tlk1" with entities [EventEntity, EventEntity], work=149*
  4: 0x025F [0x01] GOTO 0x0396
  5: 0x0262 [0x02] IF !(Entity->Race == 2*) GOTO 0x028E
  6: 0x026A [0x66] LOAD_EXT_SCHEDULER_MAIN: Load scheduler "tlk0" with entities [EventEntity, EventEntity], work=159*
  7: 0x0279 [0x1C] WAIT(120* ticks)
  8: 0x027C [0x66] LOAD_EXT_SCHEDULER_MAIN: Load scheduler "tlk1" with entities [EventEntity, EventEntity], work=159*
  9: 0x028B [0x01] GOTO 0x0396
 10: 0x028E [0x02] IF !(Entity->Race == 3*) GOTO 0x02BA
 11: 0x0296 [0x66] LOAD_EXT_SCHEDULER_MAIN: Load scheduler "tlk0" with entities [EventEntity, EventEntity], work=169*
 12: 0x02A5 [0x1C] WAIT(120* ticks)
 13: 0x02A8 [0x66] LOAD_EXT_SCHEDULER_MAIN: Load scheduler "tlk1" with entities [EventEntity, EventEntity], work=169*
 14: 0x02B7 [0x01] GOTO 0x0396
 15: 0x02BA [0x02] IF !(Entity->Race == 4*) GOTO 0x02E6
 16: 0x02C2 [0x66] LOAD_EXT_SCHEDULER_MAIN: Load scheduler "tlk0" with entities [EventEntity, EventEntity], work=179*
 17: 0x02D1 [0x1C] WAIT(120* ticks)
 18: 0x02D4 [0x66] LOAD_EXT_SCHEDULER_MAIN: Load scheduler "tlk1" with entities [EventEntity, EventEntity], work=179*
 19: 0x02E3 [0x01] GOTO 0x0396
 20: 0x02E6 [0x02] IF !(Entity->Race == 5*) GOTO 0x0312
 21: 0x02EE [0x66] LOAD_EXT_SCHEDULER_MAIN: Load scheduler "tlk0" with entities [EventEntity, EventEntity], work=189*
 22: 0x02FD [0x1C] WAIT(120* ticks)
 23: 0x0300 [0x66] LOAD_EXT_SCHEDULER_MAIN: Load scheduler "tlk1" with entities [EventEntity, EventEntity], work=189*
 24: 0x030F [0x01] GOTO 0x0396
 25: 0x0312 [0x02] IF !(Entity->Race == 6*) GOTO 0x033E
 26: 0x031A [0x66] LOAD_EXT_SCHEDULER_MAIN: Load scheduler "tlk0" with entities [EventEntity, EventEntity], work=189*
 27: 0x0329 [0x1C] WAIT(120* ticks)
 28: 0x032C [0x66] LOAD_EXT_SCHEDULER_MAIN: Load scheduler "tlk1" with entities [EventEntity, EventEntity], work=189*
 29: 0x033B [0x01] GOTO 0x0396
 30: 0x033E [0x02] IF !(Entity->Race == 7*) GOTO 0x036A
 31: 0x0346 [0x66] LOAD_EXT_SCHEDULER_MAIN: Load scheduler "tlk0" with entities [EventEntity, EventEntity], work=199*
 32: 0x0355 [0x1C] WAIT(120* ticks)
 33: 0x0358 [0x66] LOAD_EXT_SCHEDULER_MAIN: Load scheduler "tlk1" with entities [EventEntity, EventEntity], work=199*
 34: 0x0367 [0x01] GOTO 0x0396
 35: 0x036A [0x02] IF !(Entity->Race == 8*) GOTO 0x0396
 36: 0x0372 [0x66] LOAD_EXT_SCHEDULER_MAIN: Load scheduler "tlk0" with entities [EventEntity, EventEntity], work=209*
 37: 0x0381 [0x1C] WAIT(120* ticks)
 38: 0x0384 [0x66] LOAD_EXT_SCHEDULER_MAIN: Load scheduler "tlk1" with entities [EventEntity, EventEntity], work=209*
 39: 0x0393 [0x01] GOTO 0x0396

SUBROUTINE_0396:
 40: 0x0396 [0x00] END_REQSTACK()
```

### Event 65535.28

#### Metadata

| Field        | Value    |
|--------------|----------|
| Entrypoint   | 0x0397   |
| Data Size    | 47 bytes |
| Instructions | 7        |

```
      00 01 02 03 04 05 06 07  08 09 0A 0B 0C 0D 0E 0F
      -- -- -- -- -- -- -- --  -- -- -- -- -- -- -- --
0390:                      03  00 00 07 7F 1A 5A 04 07         ......Z..
03A0: 01 00 0E 80 66 01 00 F8  FF FF 7F F8 FF FF 7F 6B  ....f..........k
03B0: 69 7A 30 1C 2F 80 66 01  00 F8 FF FF 7F F8 FF FF  iz0./.f.........
03C0: 7F 6B 69 7A 31 00                                 .kiz1.          
```

#### Opcodes

```
  0: 0x0397 [0x03] ExtData[1]->WorkLocal[0] = Entity->Race
  1: 0x039C [0x1A] CALL_SUBROUTINE(address=0x045A)
  2: 0x039F [0x07] ExtData[1]->WorkLocal[1] += 1*
  3: 0x03A4 [0x66] LOAD_EXT_SCHEDULER_MAIN: Load scheduler "kiz0" with entities [EventEntity, EventEntity], work=ExtData[1]->WorkLocal[1]
  4: 0x03B3 [0x1C] WAIT(180* ticks)
  5: 0x03B6 [0x66] LOAD_EXT_SCHEDULER_MAIN: Load scheduler "kiz1" with entities [EventEntity, EventEntity], work=ExtData[1]->WorkLocal[1]
  6: 0x03C5 [0x00] END_REQSTACK()
```

### Event 65535.29

#### Metadata

| Field        | Value    |
|--------------|----------|
| Entrypoint   | 0x03C6   |
| Data Size    | 37 bytes |
| Instructions | 5        |

```
      00 01 02 03 04 05 06 07  08 09 0A 0B 0C 0D 0E 0F
      -- -- -- -- -- -- -- --  -- -- -- -- -- -- -- --
03C0:                   03 00  00 07 7F 1A 10 04 66 01        ........f.
03D0: 00 F8 FF FF 7F F8 FF FF  7F 73 68 61 30 53 F8 FF  .........sha0S..
03E0: FF 7F F8 FF FF 7F 73 68  61 30 00                 ......sha0.     
```

#### Opcodes

```
  0: 0x03C6 [0x03] ExtData[1]->WorkLocal[0] = Entity->Race
  1: 0x03CB [0x1A] CALL_SUBROUTINE(address=0x0410)
  2: 0x03CE [0x66] LOAD_EXT_SCHEDULER_MAIN: Load scheduler "sha0" with entities [EventEntity, EventEntity], work=ExtData[1]->WorkLocal[1]
  3: 0x03DD [0x53] WAIT_SCHEDULER_TASK: Wait for scheduler "sha0" with entities [EventEntity, EventEntity]
  4: 0x03EA [0x00] END_REQSTACK()
```

### Event 65535.30

#### Metadata

| Field        | Value     |
|--------------|-----------|
| Entrypoint   | 0x03EB    |
| Data Size    | 185 bytes |
| Instructions | 13        |

```
      00 01 02 03 04 05 06 07  08 09 0A 0B 0C 0D 0E 0F
      -- -- -- -- -- -- -- --  -- -- -- -- -- -- -- --
03E0:                                   03 00 00 07 7F             .....
03F0: 1A 10 04 66 01 00 F8 FF  FF 7F F8 FF FF 7F 73 68  ...f..........sh
0400: 61 31 53 F8 FF FF 7F F8  FF FF 7F 73 68 61 31 00  a1S........sha1.
0410: 03 01 00 00 00 02 01 00  22 80 05 25 04 08 01 00  ........"..%....
0420: 0E 80 01 2A 04 08 01 00  25 80 14 01 00 30 80 07  ...*....%....0..
0430: 01 00 31 80 1B 03 01 00  00 00 02 01 00 22 80 05  ..1.........."..
0440: 4A 04 08 01 00 0E 80 01  4F 04 08 01 00 25 80 14  J.......O....%..
0450: 01 00 30 80 07 01 00 32  80 1B 03 01 00 00 00 02  ..0....2........
0460: 01 00 22 80 05 6F 04 08  01 00 0E 80 01 74 04 08  .."..o.......t..
0470: 01 00 25 80 14 01 00 30  80 07 01 00 33 80 1B 03  ..%....0....3...
0480: 01 00 00 00 02 01 00 22  80 05 94 04 08 01 00 0E  ......."........
0490: 80 01 99 04 08 01 00 25  80 14 01 00 30 80 07 01  .......%....0...
04A0: 00 34 80 1B                                       .4..            
```

#### Opcodes

```
  0: 0x03EB [0x03] ExtData[1]->WorkLocal[0] = Entity->Race
  1: 0x03F0 [0x1A] CALL_SUBROUTINE(address=0x0410)
  2: 0x03F3 [0x66] LOAD_EXT_SCHEDULER_MAIN: Load scheduler "sha1" with entities [EventEntity, EventEntity], work=ExtData[1]->WorkLocal[1]
  3: 0x0402 [0x53] WAIT_SCHEDULER_TASK: Wait for scheduler "sha1" with entities [EventEntity, EventEntity]
  4: 0x040F [0x00] END_REQSTACK()

SUBROUTINE_0410:
  5: 0x0410 [0x03] ExtData[1]->WorkLocal[1] = ExtData[1]->WorkLocal[0]
  6: 0x0415 [0x02] IF !(ExtData[1]->WorkLocal[1] > 5*) GOTO 0x0425
  7: 0x041D [0x08] ExtData[1]->WorkLocal[1] -= 1*
  8: 0x0422 [0x01] GOTO 0x042A
  9: 0x0425 [0x08] ExtData[1]->WorkLocal[1] -= 2*

SUBROUTINE_042A:
 10: 0x042A [0x14] ExtData[1]->WorkLocal[1] *= 10*
 11: 0x042F [0x07] ExtData[1]->WorkLocal[1] += 9*
 12: 0x0434 [0x1B] RETURN
```

#### Data or dead code:

```
# Dead code (unreachable instructions):
     0x0435 [0x03] ExtData[1]->WorkLocal[1] = ExtData[1]->WorkLocal[0]
     0x043A [0x02] IF !(ExtData[1]->WorkLocal[1] > 5*) GOTO 0x044A
     0x0442 [0x08] ExtData[1]->WorkLocal[1] -= 1*
     0x0447 [0x01] GOTO 0x044F
     0x044A [0x08] ExtData[1]->WorkLocal[1] -= 2*
     0x044F [0x14] ExtData[1]->WorkLocal[1] *= 10*
     0x0454 [0x07] ExtData[1]->WorkLocal[1] += 70*
     0x0459 [0x1B] RETURN
     0x045A [0x03] ExtData[1]->WorkLocal[1] = ExtData[1]->WorkLocal[0]
     0x045F [0x02] IF !(ExtData[1]->WorkLocal[1] > 5*) GOTO 0x046F
     0x0467 [0x08] ExtData[1]->WorkLocal[1] -= 1*
     0x046C [0x01] GOTO 0x0474
     0x046F [0x08] ExtData[1]->WorkLocal[1] -= 2*
     0x0474 [0x14] ExtData[1]->WorkLocal[1] *= 10*
     0x0479 [0x07] ExtData[1]->WorkLocal[1] += 140*
     0x047E [0x1B] RETURN
     0x047F [0x03] ExtData[1]->WorkLocal[1] = ExtData[1]->WorkLocal[0]
     0x0484 [0x02] IF !(ExtData[1]->WorkLocal[1] > 5*) GOTO 0x0494
     0x048C [0x08] ExtData[1]->WorkLocal[1] -= 1*
     0x0491 [0x01] GOTO 0x0499
     0x0494 [0x08] ExtData[1]->WorkLocal[1] -= 2*
     0x0499 [0x14] ExtData[1]->WorkLocal[1] *= 10*
     0x049E [0x07] ExtData[1]->WorkLocal[1] += 210*
     0x04A3 [0x1B] RETURN
```
