# Event 10231

## Metadata

| Field           | Value    |
|-----------------|----------|
| Event Index     | 19/22    |
| Offset          | 0x19ED   |
| Data Size       | 36 bytes |
| Calculated Size | 36 bytes |
| Instructions    | 12       |

```
      00 01 02 03 04 05 06 07  08 09 0A 0B 0C 0D 0E 0F
      -- -- -- -- -- -- -- --  -- -- -- -- -- -- -- --
19E0:                                         03 05 00               ...
19F0: 02 10 42 1E F0 FF FF 7F  03 02 10 C5 80 03 03 10  ..B.............
1A00: 05 00 1D C8 80 23 1D C9  80 23 03 01 10 08 80 21  .....#...#.....!
1A10: 00                                                .               
```

## Opcodes

```
  0: 0x19ED [0x03] ExtData[1]->WorkLocal[5] = Work_Zone[2]
  1: 0x19F2 [0x42] SET_CLI_EVENT_CANCEL_DATA()
  2: 0x19F3 [0x1E] EventEntity looks at LocalPlayer and starts talking
  3: 0x19F8 [0x03] Work_Zone[2] = 2379*
  4: 0x19FD [0x03] Work_Zone[3] = ExtData[1]->WorkLocal[5]
  5: 0x1A02 [0x1D] PRINT_EVENT_MESSAGE(message_id=15332*)
    → "Thank you for checking up on \u000C\u0001[Jillia/Zurko-Bazurko/Quwi Orihbhe/Wistful Bison]. I am relieved to hear that all is well.\u007F1\u0000\u0007"
  6: 0x1A05 [0x23] WAIT_FOR_DIALOG_INTERACTION
  7: 0x1A06 [0x1D] PRINT_EVENT_MESSAGE(message_id=15333*)
    → "Please tell Alienor that I am grateful for her gift and that the people here in Jeuno are treating me with the utmost kindness.\u007F1\u0000\u0007"
  8: 0x1A09 [0x23] WAIT_FOR_DIALOG_INTERACTION
  9: 0x1A0A [0x03] Work_Zone[1] = 1*
 10: 0x1A0F [0x21] END_EVENT
 11: 0x1A10 [0x00] END_REQSTACK()
```
