# 17936408

## Common Data

| Field            | Value                  |
|------------------|------------------------|
| Zone             | Silver Knife (ID: 283) |
| Block Size       | 20044 bytes            |
| Total Events     | 14                     |
| References Count | 372                    |

## List of Events

| Event ID              | Entrypoint   |   Size |   Instructions |
|-----------------------|--------------|--------|----------------|
| [65535](#event-65535) | 0x0000       |    658 |             62 |
| [9](#event-9)         | 0x0292       |   7541 |            999 |
| [10](#event-10)       | 0x2007       |    126 |             26 |
| [11](#event-11)       | 0x2085       |   3522 |            462 |
| [12](#event-12)       | 0x2E47       |   4758 |            654 |
| [13](#event-13)       | 0x40DD       |    181 |             35 |
| [14](#event-14)       | 0x4192       |    215 |             42 |
| [15](#event-15)       | 0x4269       |    167 |             33 |
| [16](#event-16)       | 0x4310       |    201 |             38 |
| [17](#event-17)       | 0x43D9       |    130 |             24 |
| [18](#event-18)       | 0x445B       |    285 |             48 |
| [19](#event-19)       | 0x4578       |    247 |             41 |
| [20](#event-20)       | 0x466F       |    251 |             43 |
| [21](#event-21)       | 0x476A       |    201 |             39 |

## DAT References (imed_data)

|   Index | Hex Value   |   Dec Value |
|---------|-------------|-------------|
|       0 | 0x00C8      |         200 |
|       1 | 0x0000      |           0 |
|       2 | 0x00C9      |         201 |
|       3 | 0x0001      |           1 |
|       4 | 0x002D      |          45 |
|       5 | 0x0002      |           2 |
|       6 | 0x001E      |          30 |
|       7 | 0x00D7      |         215 |
|       8 | 0x003C      |          60 |
|       9 | 0x012C      |         300 |
|      10 | 0x0093      |         147 |
|      11 | 0xFFFF63C0  |  4294927296 |
|      12 | 0x652C      |       25900 |
|      13 | 0x0546      |        1350 |
|      14 | 0xFFFFFC01  |  4294966273 |
|      15 | 0xFFFF4C50  |  4294921296 |
|      16 | 0x6144      |       24900 |
|      17 | 0x053C      |        1340 |
|      18 | 0xFFFF7A63  |  4294933091 |
|      19 | 0x67FB      |       26619 |
|      20 | 0x0545      |        1349 |
|      21 | 0x0BD2      |        3026 |
|      22 | 0xB798      |       47000 |
|      23 | 0xFFFFFD6C  |  4294966636 |
|      24 | 0x03FF      |        1023 |
|      25 | 0xFFFF7B30  |  4294933296 |
|      26 | 0xFFFF4DF2  |  4294921714 |
|      27 | 0x7FFC      |       32764 |
|      28 | 0x0893      |        2195 |
|      29 | 0xFFFF4DF3  |  4294921715 |
|      30 | 0x87E3      |       34787 |
|      31 | 0x06FA      |        1786 |
|      32 | 0xFFFF7D94  |  4294933908 |
|      33 | 0x93A7      |       37799 |
|      34 | 0xFFFF51C8  |  4294922696 |
|      35 | 0xA7F8      |       43000 |
|      36 | 0xFFFF6B2D  |  4294929197 |
|      37 | 0x7FEE      |       32750 |
|      38 | 0x070B      |        1803 |
|      39 | 0xFFFF7962  |  4294932834 |
|      40 | 0x4F19      |       20249 |
|      41 | 0x053A      |        1338 |
|      42 | 0x0C18      |        3096 |
|      43 | 0xFFFF7803  |  4294932483 |
|      44 | 0x4AD6      |       19158 |
|      45 | 0x0C2B      |        3115 |
|      46 | 0xFFFF7969  |  4294932841 |
|      47 | 0x550C      |       21772 |
|      48 | 0x0C48      |        3144 |
|      49 | 0x7530      |       30000 |
|      50 | 0x0005      |           5 |
|      51 | 0xFFFF635E  |  4294927198 |
|      52 | 0x73EF      |       29679 |
|      53 | 0x03FD      |        1021 |
|      54 | 0x0006      |           6 |
|      55 | 0xFFFF63B7  |  4294927287 |
|      56 | 0x6FC1      |       28609 |
|      57 | 0x0DA3      |        3491 |
|      58 | 0x0028      |          40 |
|      59 | 0x0382      |         898 |
|      60 | 0x1C82      |        7298 |
|      61 | 0x1C83      |        7299 |
|      62 | 0x0003      |           3 |
|      63 | 0x0008      |           8 |
|      64 | 0x1C84      |        7300 |
|      65 | 0x1C85      |        7301 |
|      66 | 0x1C86      |        7302 |
|      67 | 0x0080      |         128 |
|      68 | 0x0064      |         100 |
|      69 | 0x1C87      |        7303 |
|      70 | 0x1C88      |        7304 |
|      71 | 0x1C89      |        7305 |
|      72 | 0x0007      |           7 |
|      73 | 0x1C8A      |        7306 |
|      74 | 0x005A      |          90 |
|      75 | 0x1C8B      |        7307 |
|      76 | 0x1C8C      |        7308 |
|      77 | 0x18F8      |        6392 |
|      78 | 0x001C      |          28 |
|      79 | 0x007F      |         127 |
|      80 | 0x0014      |          20 |
|      81 | 0xFFFF6F88  |  4294930312 |
|      82 | 0xAE90      |       44688 |
|      83 | 0xFFFFFD77  |  4294966647 |
|      84 | 0x0339      |         825 |
|      85 | 0xFFFF6952  |  4294928722 |
|      86 | 0x7512      |       29970 |
|      87 | 0x0013      |          19 |
|      88 | 0x000A      |          10 |
|      89 | 0x1C8D      |        7309 |
|      90 | 0xFFFF56F1  |  4294924017 |
|      91 | 0x6B93      |       27539 |
|      92 | 0x0D0D      |        3341 |
|      93 | 0x1C8E      |        7310 |
|      94 | 0x06B2      |        1714 |
|      95 | 0x1C8F      |        7311 |
|      96 | 0x00E0      |         224 |
|      97 | 0x1C90      |        7312 |
|      98 | 0x1C91      |        7313 |
|      99 | 0x1C92      |        7314 |
|     100 | 0x1C93      |        7315 |
|     101 | 0x1C94      |        7316 |
|     102 | 0x1C95      |        7317 |
|     103 | 0xFFFF6B62  |  4294929250 |
|     104 | 0x7E22      |       32290 |
|     105 | 0x0A01      |        2561 |
|     106 | 0xFFFF6346  |  4294927174 |
|     107 | 0x75B5      |       30133 |
|     108 | 0x0CAB      |        3243 |
|     109 | 0x1C96      |        7318 |
|     110 | 0x1C97      |        7319 |
|     111 | 0x1C98      |        7320 |
|     112 | 0x1C99      |        7321 |
|     113 | 0x1C9A      |        7322 |
|     114 | 0x1C9B      |        7323 |
|     115 | 0x1C9C      |        7324 |
|     116 | 0x1C9D      |        7325 |
|     117 | 0x1C9E      |        7326 |
|     118 | 0x0032      |          50 |
|     119 | 0xFFFF771A  |  4294932250 |
|     120 | 0x66CA      |       26314 |
|     121 | 0xFFFF53E1  |  4294923233 |
|     122 | 0x65D2      |       26066 |
|     123 | 0xFFFF4DD3  |  4294921683 |
|     124 | 0x7737      |       30519 |
|     125 | 0x0400      |        1024 |
|     126 | 0x001B      |          27 |
|     127 | 0x1C9F      |        7327 |
|     128 | 0x1CA0      |        7328 |
|     129 | 0x1CA1      |        7329 |
|     130 | 0x1CA2      |        7330 |
|     131 | 0x1CA3      |        7331 |
|     132 | 0x1CA4      |        7332 |
|     133 | 0x0049      |          73 |
|     134 | 0x1CA5      |        7333 |
|     135 | 0x00BD      |         189 |
|     136 | 0x1CA6      |        7334 |
|     137 | 0x1CA7      |        7335 |
|     138 | 0x1CA8      |        7336 |
|     139 | 0x1CA9      |        7337 |
|     140 | 0xFFFFFC00  |  4294966272 |
|     141 | 0x1CAA      |        7338 |
|     142 | 0x1CAB      |        7339 |
|     143 | 0x1CAC      |        7340 |
|     144 | 0x1CAD      |        7341 |
|     145 | 0x1CAE      |        7342 |
|     146 | 0x0078      |         120 |
|     147 | 0x1CAF      |        7343 |
|     148 | 0xFFFF4F7F  |  4294922111 |
|     149 | 0x6223      |       25123 |
|     150 | 0xFFFF6240  |  4294926912 |
|     151 | 0x7A32      |       31282 |
|     152 | 0x064A      |        1610 |
|     153 | 0x1CB0      |        7344 |
|     154 | 0x1CB1      |        7345 |
|     155 | 0x003F      |          63 |
|     156 | 0x000F      |          15 |
|     157 | 0x1CC1      |        7361 |
|     158 | 0x1CC2      |        7362 |
|     159 | 0x1CC3      |        7363 |
|     160 | 0x0096      |         150 |
|     161 | 0x1CC4      |        7364 |
|     162 | 0x1CC5      |        7365 |
|     163 | 0xFFFF5808  |  4294924296 |
|     164 | 0x6590      |       26000 |
|     165 | 0xFFFF7AD2  |  4294933202 |
|     166 | 0x67FD      |       26621 |
|     167 | 0x03F0      |        1008 |
|     168 | 0xFFFFF72D  |  4294965037 |
|     169 | 0x0BE2      |        3042 |
|     170 | 0x02E2      |         738 |
|     171 | 0x0762      |        1890 |
|     172 | 0xFFFFF626  |  4294964774 |
|     173 | 0x0BDC      |        3036 |
|     174 | 0x0099      |         153 |
|     175 | 0xFFFFEF12  |  4294962962 |
|     176 | 0x0894      |        2196 |
|     177 | 0x0020      |          32 |
|     178 | 0x03A2      |         930 |
|     179 | 0x1CE2      |        7394 |
|     180 | 0x1CE3      |        7395 |
|     181 | 0x1CE4      |        7396 |
|     182 | 0x0251      |         593 |
|     183 | 0x00FF      |         255 |
|     184 | 0x0DF5      |        3573 |
|     185 | 0xFFFFFC23  |  4294966307 |
|     186 | 0xFFFFFBCE  |  4294966222 |
|     187 | 0xFFFFFCEB  |  4294966507 |
|     188 | 0xFFFFECE0  |  4294962400 |
|     189 | 0x0BAC      |        2988 |
|     190 | 0x1CE5      |        7397 |
|     191 | 0x1CE6      |        7398 |
|     192 | 0x1CE7      |        7399 |
|     193 | 0x1CE8      |        7400 |
|     194 | 0x1CE9      |        7401 |
|     195 | 0x1CEA      |        7402 |
|     196 | 0x1CEB      |        7403 |
|     197 | 0x1CEC      |        7404 |
|     198 | 0x1CED      |        7405 |
|     199 | 0x1CEE      |        7406 |
|     200 | 0x1CEF      |        7407 |
|     201 | 0x1CF0      |        7408 |
|     202 | 0x1CF1      |        7409 |
|     203 | 0x0F60      |        3936 |
|     204 | 0x1CF2      |        7410 |
|     205 | 0x02D7      |         727 |
|     206 | 0xFFFF4B6E  |  4294921070 |
|     207 | 0x68EE      |       26862 |
|     208 | 0x02F6      |         758 |
|     209 | 0xFFFF4C9D  |  4294921373 |
|     210 | 0x7878      |       30840 |
|     211 | 0x03C7      |         967 |
|     212 | 0xFFFF4E7B  |  4294921851 |
|     213 | 0x8EA4      |       36516 |
|     214 | 0x0F0B      |        3851 |
|     215 | 0xFFFFFA28  |  4294965800 |
|     216 | 0x03C9      |         969 |
|     217 | 0x0019      |          25 |
|     218 | 0x1CFE      |        7422 |
|     219 | 0x071C      |        1820 |
|     220 | 0x1CFF      |        7423 |
|     221 | 0x1D00      |        7424 |
|     222 | 0x1D01      |        7425 |
|     223 | 0x1D02      |        7426 |
|     224 | 0x1D03      |        7427 |
|     225 | 0xFFFFF8C0  |  4294965440 |
|     226 | 0xFFFFFB41  |  4294966081 |
|     227 | 0xFFFFF5BD  |  4294964669 |
|     228 | 0x0342      |         834 |
|     229 | 0x1000      |        4096 |
|     230 | 0x0021      |          33 |
|     231 | 0x1D04      |        7428 |
|     232 | 0x1D05      |        7429 |
|     233 | 0x1D06      |        7430 |
|     234 | 0x1D07      |        7431 |
|     235 | 0x1D08      |        7432 |
|     236 | 0x1D09      |        7433 |
|     237 | 0x1D0A      |        7434 |
|     238 | 0x1D0B      |        7435 |
|     239 | 0x1D0C      |        7436 |
|     240 | 0x1D0D      |        7437 |
|     241 | 0x1D0E      |        7438 |
|     242 | 0x1C3C      |        7228 |
|     243 | 0xFFFFFF1D  |  4294967069 |
|     244 | 0x15F90     |       90000 |
|     245 | 0x04B0      |        1200 |
|     246 | 0x03E8      |        1000 |
|     247 | 0x1D0F      |        7439 |
|     248 | 0x1D10      |        7440 |
|     249 | 0x1D11      |        7441 |
|     250 | 0x1D12      |        7442 |
|     251 | 0x1D13      |        7443 |
|     252 | 0x1D14      |        7444 |
|     253 | 0x1D15      |        7445 |
|     254 | 0x1D16      |        7446 |
|     255 | 0x1D17      |        7447 |
|     256 | 0x1D18      |        7448 |
|     257 | 0x1D19      |        7449 |
|     258 | 0x1D1A      |        7450 |
|     259 | 0x1D1B      |        7451 |
|     260 | 0x0025      |          37 |
|     261 | 0x1D1C      |        7452 |
|     262 | 0x1D1D      |        7453 |
|     263 | 0x1D1E      |        7454 |
|     264 | 0x1D1F      |        7455 |
|     265 | 0x1D20      |        7456 |
|     266 | 0x1D21      |        7457 |
|     267 | 0x1D22      |        7458 |
|     268 | 0x1D23      |        7459 |
|     269 | 0x1D24      |        7460 |
|     270 | 0x1D25      |        7461 |
|     271 | 0x1D26      |        7462 |
|     272 | 0x1D27      |        7463 |
|     273 | 0x1D28      |        7464 |
|     274 | 0x0CE6      |        3302 |
|     275 | 0x1D29      |        7465 |
|     276 | 0x1D2A      |        7466 |
|     277 | 0x1D2B      |        7467 |
|     278 | 0xFFFF53B5  |  4294923189 |
|     279 | 0x868B      |       34443 |
|     280 | 0x0A78      |        2680 |
|     281 | 0x1D2C      |        7468 |
|     282 | 0x1D2D      |        7469 |
|     283 | 0x1D2E      |        7470 |
|     284 | 0x1D2F      |        7471 |
|     285 | 0xFFFF6885  |  4294928517 |
|     286 | 0x73CA      |       29642 |
|     287 | 0x0A25      |        2597 |
|     288 | 0x1D30      |        7472 |
|     289 | 0x1D31      |        7473 |
|     290 | 0x1D32      |        7474 |
|     291 | 0x1D33      |        7475 |
|     292 | 0x0050      |          80 |
|     293 | 0x0216      |         534 |
|     294 | 0x021C      |         540 |
|     295 | 0x1D34      |        7476 |
|     296 | 0x1D35      |        7477 |
|     297 | 0x1D36      |        7478 |
|     298 | 0x1CB2      |        7346 |
|     299 | 0x1CB3      |        7347 |
|     300 | 0x1CE1      |        7393 |
|     301 | 0x0214      |         532 |
|     302 | 0x1C75      |        7285 |
|     303 | 0x1C76      |        7286 |
|     304 | 0x0218      |         536 |
|     305 | 0x1CB7      |        7351 |
|     306 | 0x1CB8      |        7352 |
|     307 | 0x1CB9      |        7353 |
|     308 | 0x1CFC      |        7420 |
|     309 | 0x1CFD      |        7421 |
|     310 | 0x1CD7      |        7383 |
|     311 | 0x1CD8      |        7384 |
|     312 | 0x1C77      |        7287 |
|     313 | 0x1C78      |        7288 |
|     314 | 0x1C79      |        7289 |
|     315 | 0x1CC6      |        7366 |
|     316 | 0x1CC7      |        7367 |
|     317 | 0x1CFA      |        7418 |
|     318 | 0x1CFB      |        7419 |
|     319 | 0x1CB4      |        7348 |
|     320 | 0x1CB5      |        7349 |
|     321 | 0x1C49      |        7241 |
|     322 | 0x1CD3      |        7379 |
|     323 | 0x1C4A      |        7242 |
|     324 | 0x1C4B      |        7243 |
|     325 | 0x1CD5      |        7381 |
|     326 | 0x1C4C      |        7244 |
|     327 | 0x1C7C      |        7292 |
|     328 | 0x1C7D      |        7293 |
|     329 | 0x1CBC      |        7356 |
|     330 | 0x1CBD      |        7357 |
|     331 | 0x00EE      |         238 |
|     332 | 0x1CBE      |        7358 |
|     333 | 0x1CCD      |        7373 |
|     334 | 0x1CCE      |        7374 |
|     335 | 0x1CDF      |        7391 |
|     336 | 0x1CE0      |        7392 |
|     337 | 0x021A      |         538 |
|     338 | 0x1CF7      |        7415 |
|     339 | 0x1CF8      |        7416 |
|     340 | 0x1CF9      |        7417 |
|     341 | 0x1C7E      |        7294 |
|     342 | 0x1C7F      |        7295 |
|     343 | 0x1CBA      |        7354 |
|     344 | 0x1CBB      |        7355 |
|     345 | 0x1CCB      |        7371 |
|     346 | 0x1CCC      |        7372 |
|     347 | 0x1CDD      |        7389 |
|     348 | 0x1CDE      |        7390 |
|     349 | 0x1CF5      |        7413 |
|     350 | 0x1CF6      |        7414 |
|     351 | 0x1C80      |        7296 |
|     352 | 0x1C81      |        7297 |
|     353 | 0x1CBF      |        7359 |
|     354 | 0x0023      |          35 |
|     355 | 0x1CC0      |        7360 |
|     356 | 0x1CC8      |        7368 |
|     357 | 0x1CC9      |        7369 |
|     358 | 0x1CCA      |        7370 |
|     359 | 0x1CDB      |        7387 |
|     360 | 0x1CDC      |        7388 |
|     361 | 0x1CF3      |        7411 |
|     362 | 0x1CF4      |        7412 |
|     363 | 0x1CCF      |        7375 |
|     364 | 0x1CD0      |        7376 |
|     365 | 0x1CD1      |        7377 |
|     366 | 0x1CD2      |        7378 |
|     367 | 0x1C7A      |        7290 |
|     368 | 0x1C7B      |        7291 |
|     369 | 0x1CD9      |        7385 |
|     370 | 0x0010      |          16 |
|     371 | 0x1CDA      |        7386 |

## String References

- **6392**: Obtained $0 gil.
- **7228**: @@
- **7242**: Leave? [Yes./No.]
- **7244**: Leave? [Yes./No.]
- **7305**: Have you seen anyone suspicious? [Yes, I have./No, not really./I haven't spoken to everyone yet.]
- **7320**: Do you know them? [Yes, I do./No, I've never seen them before.]
- **7324**: What did they mean? [A boiled egg./The World Eater Egg./An egg sandwich.]

## Events

### Event 65535

#### Metadata

| Field        | Value     |
|--------------|-----------|
| Entrypoint   | 0x0000    |
| Data Size    | 658 bytes |
| Instructions | 1         |

```
      00 01 02 03 04 05 06 07  08 09 0A 0B 0C 0D 0E 0F
      -- -- -- -- -- -- -- --  -- -- -- -- -- -- -- --
0000: 00 45 00 80 F0 FF FF 7F  F0 FF FF 7F 66 64 69 30  .E..........fdi0
0010: 01 80 55 00 80 F0 FF FF  7F F0 FF FF 7F 66 64 69  ..U..........fdi
0020: 30 1B 45 00 80 F0 FF FF  7F F0 FF FF 7F 66 64 6F  0.E..........fdo
0030: 30 01 80 55 00 80 F0 FF  FF 7F F0 FF FF 7F 66 64  0..U..........fd
0040: 6F 30 1B 45 00 80 F0 FF  FF 7F F0 FF FF 7F 66 64  o0.E..........fd
0050: 69 31 01 80 55 00 80 F0  FF FF 7F F0 FF FF 7F 66  i1..U..........f
0060: 64 69 31 1B 45 00 80 F0  FF FF 7F F0 FF FF 7F 66  di1.E..........f
0070: 64 6F 31 01 80 55 00 80  F0 FF FF 7F F0 FF FF 7F  do1..U..........
0080: 66 64 6F 31 1B 45 02 80  F0 FF FF 7F F0 FF FF 7F  fdo1.E..........
0090: 77 68 69 31 01 80 55 02  80 F0 FF FF 7F F0 FF FF  whi1..U.........
00A0: 7F 77 68 69 31 1B 45 02  80 F0 FF FF 7F F0 FF FF  .whi1.E.........
00B0: 7F 77 68 6F 31 01 80 55  02 80 F0 FF FF 7F F0 FF  .who1..U........
00C0: FF 7F 77 68 6F 31 1B 45  02 80 F0 FF FF 7F F0 FF  ..who1.E........
00D0: FF 7F 77 68 6F 32 01 80  55 02 80 F0 FF FF 7F F0  ..who2..U.......
00E0: FF FF 7F 77 68 6F 32 1B  45 02 80 F0 FF FF 7F F0  ...who2.E.......
00F0: FF FF 7F 77 68 6F 33 01  80 55 02 80 F0 FF FF 7F  ...who3..U......
0100: F0 FF FF 7F 77 68 6F 33  1B 62 03 80 F0 FF FF 7F  ....who3.b......
0110: F0 FF FF 7F 6D 61 69 6E  01 80 1C 04 80 45 00 80  ....main.....E..
0120: F0 FF FF 7F F0 FF FF 7F  66 64 6F 31 01 80 55 00  ........fdo1..U.
0130: 80 F0 FF FF 7F F0 FF FF  7F 66 64 6F 31 1B 45 00  .........fdo1.E.
0140: 80 F0 FF FF 7F F0 FF FF  7F 66 64 69 31 01 80 62  .........fdi1..b
0150: 05 80 F0 FF FF 7F F0 FF  FF 7F 6D 61 69 6E 01 80  ..........main..
0160: 1C 06 80 55 00 80 F0 FF  FF 7F F0 FF FF 7F 66 64  ...U..........fd
0170: 69 31 1B 45 00 80 F0 FF  FF 7F F0 FF FF 7F 62 6C  i1.E..........bl
0180: 6F 6E 01 80 45 02 80 F0  FF FF 7F F0 FF FF 7F 62  on..E..........b
0190: 6C 6F 6E 01 80 1B 45 02  80 F0 FF FF 7F F0 FF FF  lon...E.........
01A0: 7F 77 68 69 30 01 80 55  02 80 F0 FF FF 7F F0 FF  .whi0..U........
01B0: FF 7F 77 68 69 30 1B 45  02 80 F0 FF FF 7F F0 FF  ..whi0.E........
01C0: FF 7F 77 68 6F 30 01 80  55 02 80 F0 FF FF 7F F0  ..who0..U.......
01D0: FF FF 7F 77 68 6F 30 1B  45 07 80 F0 FF FF 7F F0  ...who0.E.......
01E0: FF FF 7F 65 66 6F 6E 01  80 55 07 80 F0 FF FF 7F  ...efon..U......
01F0: F0 FF FF 7F 65 66 6F 6E  1B 45 00 80 F0 FF FF 7F  ....efon.E......
0200: F0 FF FF 7F 66 64 69 73  01 80 1B 45 00 80 F0 FF  ....fdis...E....
0210: FF 7F F0 FF FF 7F 66 64  6F 73 01 80 55 00 80 F0  ......fdos..U...
0220: FF FF 7F F0 FF FF 7F 66  64 6F 73 1B 45 00 80 F0  .......fdos.E...
0230: FF FF 7F F0 FF FF 7F 66  64 69 66 01 80 1B 45 00  .......fdif...E.
0240: 80 F0 FF FF 7F F0 FF FF  7F 66 64 6F 66 01 80 55  .........fdof..U
0250: 00 80 F0 FF FF 7F F0 FF  FF 7F 66 64 6F 66 1B 45  ..........fdof.E
0260: 00 80 F0 FF FF 7F F0 FF  FF 7F 66 64 69 70 01 80  ..........fdip..
0270: 1B 45 00 80 F0 FF FF 7F  F0 FF FF 7F 66 64 6F 70  .E..........fdop
0280: 01 80 55 00 80 F0 FF FF  7F F0 FF FF 7F 66 64 6F  ..U..........fdo
0290: 70 1B                                             p.              
```

#### Opcodes

```
  0: 0x0000 [0x00] END_REQSTACK()
```

#### Data or dead code:

```
# Dead code (unreachable instructions):
     0x0001 [0x45] LOAD_SCHEDULED_TASK: Load scheduler "fdi0" with entities [LocalPlayer, LocalPlayer], work=[200*, 0*]
     0x0012 [0x55] WAIT_LOAD_SCHEDULER: Wait for scheduler "fdi0" with entities [LocalPlayer, LocalPlayer], work=200*
     0x0021 [0x1B] RETURN
     0x0022 [0x45] LOAD_SCHEDULED_TASK: Load scheduler "fdo0" with entities [LocalPlayer, LocalPlayer], work=[200*, 0*]
     0x0033 [0x55] WAIT_LOAD_SCHEDULER: Wait for scheduler "fdo0" with entities [LocalPlayer, LocalPlayer], work=200*
     0x0042 [0x1B] RETURN
     0x0043 [0x45] LOAD_SCHEDULED_TASK: Load scheduler "fdi1" with entities [LocalPlayer, LocalPlayer], work=[200*, 0*]
     0x0054 [0x55] WAIT_LOAD_SCHEDULER: Wait for scheduler "fdi1" with entities [LocalPlayer, LocalPlayer], work=200*
     0x0063 [0x1B] RETURN
     0x0064 [0x45] LOAD_SCHEDULED_TASK: Load scheduler "fdo1" with entities [LocalPlayer, LocalPlayer], work=[200*, 0*]
     0x0075 [0x55] WAIT_LOAD_SCHEDULER: Wait for scheduler "fdo1" with entities [LocalPlayer, LocalPlayer], work=200*
     0x0084 [0x1B] RETURN
     0x0085 [0x45] LOAD_SCHEDULED_TASK: Load scheduler "whi1" with entities [LocalPlayer, LocalPlayer], work=[201*, 0*]
     0x0096 [0x55] WAIT_LOAD_SCHEDULER: Wait for scheduler "whi1" with entities [LocalPlayer, LocalPlayer], work=201*
     0x00A5 [0x1B] RETURN
     0x00A6 [0x45] LOAD_SCHEDULED_TASK: Load scheduler "who1" with entities [LocalPlayer, LocalPlayer], work=[201*, 0*]
     0x00B7 [0x55] WAIT_LOAD_SCHEDULER: Wait for scheduler "who1" with entities [LocalPlayer, LocalPlayer], work=201*
     0x00C6 [0x1B] RETURN
     0x00C7 [0x45] LOAD_SCHEDULED_TASK: Load scheduler "who2" with entities [LocalPlayer, LocalPlayer], work=[201*, 0*]
     0x00D8 [0x55] WAIT_LOAD_SCHEDULER: Wait for scheduler "who2" with entities [LocalPlayer, LocalPlayer], work=201*
     0x00E7 [0x1B] RETURN
     0x00E8 [0x45] LOAD_SCHEDULED_TASK: Load scheduler "who3" with entities [LocalPlayer, LocalPlayer], work=[201*, 0*]
     0x00F9 [0x55] WAIT_LOAD_SCHEDULER: Wait for scheduler "who3" with entities [LocalPlayer, LocalPlayer], work=201*
     0x0108 [0x1B] RETURN
     0x0109 [0x62] LOAD_EVENT_SCHEDULER: Load scheduler "main" with entities [LocalPlayer, LocalPlayer], work=[1*, 0*]
     0x011A [0x1C] WAIT(45* ticks)
     0x011D [0x45] LOAD_SCHEDULED_TASK: Load scheduler "fdo1" with entities [LocalPlayer, LocalPlayer], work=[200*, 0*]
     0x012E [0x55] WAIT_LOAD_SCHEDULER: Wait for scheduler "fdo1" with entities [LocalPlayer, LocalPlayer], work=200*
     0x013D [0x1B] RETURN
     0x013E [0x45] LOAD_SCHEDULED_TASK: Load scheduler "fdi1" with entities [LocalPlayer, LocalPlayer], work=[200*, 0*]
     0x014F [0x62] LOAD_EVENT_SCHEDULER: Load scheduler "main" with entities [LocalPlayer, LocalPlayer], work=[2*, 0*]
     0x0160 [0x1C] WAIT(30* ticks)
     0x0163 [0x55] WAIT_LOAD_SCHEDULER: Wait for scheduler "fdi1" with entities [LocalPlayer, LocalPlayer], work=200*
     0x0172 [0x1B] RETURN
     0x0173 [0x45] LOAD_SCHEDULED_TASK: Load scheduler "blon" with entities [LocalPlayer, LocalPlayer], work=[200*, 0*]
     0x0184 [0x45] LOAD_SCHEDULED_TASK: Load scheduler "blon" with entities [LocalPlayer, LocalPlayer], work=[201*, 0*]
     0x0195 [0x1B] RETURN
     0x0196 [0x45] LOAD_SCHEDULED_TASK: Load scheduler "whi0" with entities [LocalPlayer, LocalPlayer], work=[201*, 0*]
     0x01A7 [0x55] WAIT_LOAD_SCHEDULER: Wait for scheduler "whi0" with entities [LocalPlayer, LocalPlayer], work=201*
     0x01B6 [0x1B] RETURN
     0x01B7 [0x45] LOAD_SCHEDULED_TASK: Load scheduler "who0" with entities [LocalPlayer, LocalPlayer], work=[201*, 0*]
     0x01C8 [0x55] WAIT_LOAD_SCHEDULER: Wait for scheduler "who0" with entities [LocalPlayer, LocalPlayer], work=201*
     0x01D7 [0x1B] RETURN
     0x01D8 [0x45] LOAD_SCHEDULED_TASK: Load scheduler "efon" with entities [LocalPlayer, LocalPlayer], work=[215*, 0*]
     0x01E9 [0x55] WAIT_LOAD_SCHEDULER: Wait for scheduler "efon" with entities [LocalPlayer, LocalPlayer], work=215*
     0x01F8 [0x1B] RETURN
     0x01F9 [0x45] LOAD_SCHEDULED_TASK: Load scheduler "fdis" with entities [LocalPlayer, LocalPlayer], work=[200*, 0*]
     0x020A [0x1B] RETURN
     0x020B [0x45] LOAD_SCHEDULED_TASK: Load scheduler "fdos" with entities [LocalPlayer, LocalPlayer], work=[200*, 0*]
     0x021C [0x55] WAIT_LOAD_SCHEDULER: Wait for scheduler "fdos" with entities [LocalPlayer, LocalPlayer], work=200*
     0x022B [0x1B] RETURN
     0x022C [0x45] LOAD_SCHEDULED_TASK: Load scheduler "fdif" with entities [LocalPlayer, LocalPlayer], work=[200*, 0*]
     0x023D [0x1B] RETURN
     0x023E [0x45] LOAD_SCHEDULED_TASK: Load scheduler "fdof" with entities [LocalPlayer, LocalPlayer], work=[200*, 0*]
     0x024F [0x55] WAIT_LOAD_SCHEDULER: Wait for scheduler "fdof" with entities [LocalPlayer, LocalPlayer], work=200*
     0x025E [0x1B] RETURN
     0x025F [0x45] LOAD_SCHEDULED_TASK: Load scheduler "fdip" with entities [LocalPlayer, LocalPlayer], work=[200*, 0*]
     0x0270 [0x1B] RETURN
     0x0271 [0x45] LOAD_SCHEDULED_TASK: Load scheduler "fdop" with entities [LocalPlayer, LocalPlayer], work=[200*, 0*]
     0x0282 [0x55] WAIT_LOAD_SCHEDULER: Wait for scheduler "fdop" with entities [LocalPlayer, LocalPlayer], work=200*
     0x0291 [0x1B] RETURN
```

### Event 9

#### Metadata

| Field        | Value      |
|--------------|------------|
| Entrypoint   | 0x0292     |
| Data Size    | 7541 bytes |
| Instructions | 999        |

```
      00 01 02 03 04 05 06 07  08 09 0A 0B 0C 0D 0E 0F
      -- -- -- -- -- -- -- --  -- -- -- -- -- -- -- --
0290:       42 03 02 00 01 80  5D 08 80 09 80 1A 64 00    B.....].....d.
02A0: 46 01 38 0A 80 2F 00 19  B0 11 01 2F 00 1B B0 11  F.8../...../....
02B0: 01 2F 00 1C B0 11 01 2F  00 1D B0 11 01 2F 00 1E  ./...../...../..
02C0: B0 11 01 2F 00 1F B0 11  01 4E 00 19 B0 11 01 4E  .../.....N.....N
02D0: 00 1B B0 11 01 4E 00 1C  B0 11 01 4E 00 1D B0 11  .....N.....N....
02E0: 01 4E 00 1E B0 11 01 4E  00 1F B0 11 01 92 01 02  .N.....N........
02F0: B0 11 01 92 01 03 B0 11  01 92 01 04 B0 11 01 92  ................
0300: 01 05 B0 11 01 92 01 06  B0 11 01 92 01 07 B0 11  ................
0310: 01 92 01 08 B0 11 01 92  01 09 B0 11 01 92 01 17  ................
0320: B0 11 01 92 01 1E B0 11  01 92 01 1F B0 11 01 92  ................
0330: 01 1B B0 11 01 92 01 1C  B0 11 01 92 01 1D B0 11  ................
0340: 01 94 01 02 B0 11 01 94  01 03 B0 11 01 94 01 04  ................
0350: B0 11 01 94 01 05 B0 11  01 94 01 06 B0 11 01 94  ................
0360: 01 07 B0 11 01 94 01 08  B0 11 01 94 01 09 B0 11  ................
0370: 01 94 01 17 B0 11 01 94  01 19 B0 11 01 94 01 1B  ................
0380: B0 11 01 94 01 1C B0 11  01 94 01 1D B0 11 01 94  ................
0390: 01 1E B0 11 01 94 01 1F  B0 11 01 94 01 F0 FF FF  ................
03A0: 7F BA 02 B0 11 01 0B 80  0C 80 0D 80 0E 80 BA 03  ................
03B0: B0 11 01 0F 80 10 80 11  80 0E 80 59 05 04 B0 11  ...........Y....
03C0: 01 01 BA 04 B0 11 01 12  80 13 80 14 80 15 80 BA  ................
03D0: 05 B0 11 01 0F 80 16 80  17 80 18 80 BA 06 B0 11  ................
03E0: 01 19 80 16 80 17 80 18  80 BA 07 B0 11 01 1A 80  ................
03F0: 1B 80 14 80 1C 80 BA 08  B0 11 01 1D 80 1E 80 14  ................
0400: 80 1F 80 BA 09 B0 11 01  20 80 21 80 0D 80 01 80  ........ .!.....
0410: BA 17 B0 11 01 22 80 23  80 0D 80 18 80 BA 19 B0  .....".#........
0420: 11 01 24 80 25 80 14 80  26 80 59 05 1B B0 11 01  ..$.%...&.Y.....
0430: 01 59 05 1C B0 11 01 01  59 05 1D B0 11 01 01 BA  .Y......Y.......
0440: 1B B0 11 01 27 80 28 80  29 80 2A 80 BA 1C B0 11  ....'.(.).*.....
0450: 01 2B 80 2C 80 29 80 2D  80 BA 1D B0 11 01 2E 80  .+.,.).-........
0460: 2F 80 29 80 30 80 59 05  1E B0 11 01 01 BA 1E B0  /.).0.Y.........
0470: 11 01 27 80 28 80 29 80  2A 80 59 05 1F B0 11 01  ..'.(.).*.Y.....
0480: 01 BA 1F B0 11 01 2B 80  2C 80 29 80 2D 80 BA F0  ......+.,.).-...
0490: FF FF 7F 0B 80 31 80 0D  80 18 80 80 02 B0 11 01  .....1..........
04A0: 80 03 B0 11 01 80 04 B0  11 01 80 05 B0 11 01 80  ................
04B0: 06 B0 11 01 80 07 B0 11  01 80 08 B0 11 01 80 09  ................
04C0: B0 11 01 80 17 B0 11 01  80 19 B0 11 01 80 1B B0  ................
04D0: 11 01 80 1C B0 11 01 80  1D B0 11 01 80 1E B0 11  ................
04E0: 01 80 1F B0 11 01 80 F0  FF FF 7F 6C 1B B0 11 01  ...........l....
04F0: 01 80 03 80 6C 1C B0 11  01 01 80 03 80 6C 1D B0  ....l........l..
0500: 11 01 01 80 03 80 29 0F  F0 FF FF 7F 02 02 09 10  ......).........
0510: 32 80 00 25 05 BA F0 FF  FF 7F 33 80 34 80 29 80  2..%......3.4.).
0520: 35 80 01 4A 05 02 09 10  36 80 00 3D 05 BA F0 FF  5..J....6..=....
0530: FF 7F 33 80 34 80 29 80  35 80 01 4A 05 BA F0 FF  ..3.4.).5..J....
0540: FF 7F 37 80 38 80 29 80  39 80 80 19 B0 11 01 4A  ..7.8.).9......J
0550: F0 FF FF 7F 02 B0 11 01  4A 19 B0 11 01 02 B0 11  ........J.......
0560: 01 6F 76 19 B0 11 01 6F  76 F0 FF FF 7F 6C 1E B0  .ov....ov....l..
0570: 11 01 01 80 03 80 6C 1F  B0 11 01 01 80 03 80 6C  ......l........l
0580: 19 B0 11 01 01 80 03 80  2C 1B B0 11 01 1B B0 11  ........,.......
0590: 01 77 70 6F 66 02 02 00  01 80 00 72 0B 1C 3A 80  .wpof......r..:.
05A0: 29 0F 02 B0 11 01 01 45  3B 80 F8 FF FF 7F F8 FF  )......E;.......
05B0: FF 7F 73 30 38 39 01 80  1A 43 00 2B 02 B0 11 01  ..s089...C.+....
05C0: 3C 80 23 2B 02 B0 11 01  3D 80 23 29 0F 02 B0 11  <.#+....=.#)....
05D0: 01 02 52 3B 80 F8 FF FF  7F F8 FF FF 7F 73 30 38  ..R;.........s08
05E0: 39 02 09 10 3E 80 00 FD  05 45 3B 80 F8 FF FF 7F  9...>....E;.....
05F0: F8 FF FF 7F 73 30 38 38  01 80 01 62 06 02 09 10  ....s088...b....
0600: 32 80 00 19 06 45 3B 80  F8 FF FF 7F F8 FF FF 7F  2....E;.........
0610: 73 31 32 39 01 80 01 62  06 02 09 10 36 80 00 35  s129...b....6..5
0620: 06 45 3B 80 F8 FF FF 7F  F8 FF FF 7F 73 31 32 39  .E;.........s129
0630: 01 80 01 62 06 02 09 10  3F 80 00 51 06 45 3B 80  ...b....?..Q.E;.
0640: F8 FF FF 7F F8 FF FF 7F  73 30 38 38 01 80 01 62  ........s088...b
0650: 06 45 3B 80 F8 FF FF 7F  F8 FF FF 7F 73 31 33 38  .E;.........s138
0660: 01 80 79 00 02 B0 11 01  F0 FF FF 7F 29 0F 02 B0  ..y.........)...
0670: 11 01 15 2B 02 B0 11 01  40 80 23 2B 02 B0 11 01  ...+....@.#+....
0680: 41 80 23 29 0F 02 B0 11  01 16 02 09 10 3E 80 00  A.#).........>..
0690: A4 06 52 3B 80 F8 FF FF  7F F8 FF FF 7F 73 30 38  ..R;.........s08
06A0: 39 01 01 07 02 09 10 32  80 00 BE 06 52 3B 80 F8  9......2....R;..
06B0: FF FF 7F F8 FF FF 7F 73  31 32 39 01 01 07 02 09  .......s129.....
06C0: 10 36 80 00 D8 06 52 3B  80 F8 FF FF 7F F8 FF FF  .6....R;........
06D0: 7F 73 31 32 39 01 01 07  02 09 10 3F 80 00 F2 06  .s129......?....
06E0: 52 3B 80 F8 FF FF 7F F8  FF FF 7F 73 30 38 39 01  R;.........s089.
06F0: 01 07 52 3B 80 F8 FF FF  7F F8 FF FF 7F 73 31 33  ..R;.........s13
0700: 38 02 09 10 3E 80 00 1D  07 45 3B 80 F8 FF FF 7F  8...>....E;.....
0710: F8 FF FF 7F 73 30 39 30  01 80 01 82 07 02 09 10  ....s090........
0720: 32 80 00 39 07 45 3B 80  F8 FF FF 7F F8 FF FF 7F  2..9.E;.........
0730: 73 31 33 36 01 80 01 82  07 02 09 10 36 80 00 55  s136........6..U
0740: 07 45 3B 80 F8 FF FF 7F  F8 FF FF 7F 73 31 33 36  .E;.........s136
0750: 01 80 01 82 07 02 09 10  3F 80 00 71 07 45 3B 80  ........?..q.E;.
0760: F8 FF FF 7F F8 FF FF 7F  73 30 39 30 01 80 01 82  ........s090....
0770: 07 45 3B 80 F8 FF FF 7F  F8 FF FF 7F 73 31 33 39  .E;.........s139
0780: 01 80 29 0F 02 B0 11 01  17 2B 02 B0 11 01 42 80  ..)......+....B.
0790: 23 29 0F 02 B0 11 01 18  79 00 19 B0 11 01 02 B0  #)......y.......
07A0: 11 01 6C 19 B0 11 01 43  80 03 80 27 0F 19 B0 11  ..l....C...'....
07B0: 01 4A 1C 32 80 02 09 10  3E 80 00 CF 07 52 3B 80  .J.2....>....R;.
07C0: F8 FF FF 7F F8 FF FF 7F  73 30 39 30 01 2C 08 02  ........s090.,..
07D0: 09 10 32 80 00 E9 07 52  3B 80 F8 FF FF 7F F8 FF  ..2....R;.......
07E0: FF 7F 73 31 33 36 01 2C  08 02 09 10 36 80 00 03  ..s136.,....6...
07F0: 08 52 3B 80 F8 FF FF 7F  F8 FF FF 7F 73 31 33 36  .R;.........s136
0800: 01 2C 08 02 09 10 3F 80  00 1D 08 52 3B 80 F8 FF  .,....?....R;...
0810: FF 7F F8 FF FF 7F 73 30  39 30 01 2C 08 52 3B 80  ......s090.,.R;.
0820: F8 FF FF 7F F8 FF FF 7F  73 31 33 39 45 3B 80 F8  ........s139E;..
0830: FF FF 7F F8 FF FF 7F 73  30 39 31 01 80 79 00 02  .......s091..y..
0840: B0 11 01 19 B0 11 01 1C  06 80 5D 01 80 44 80 2B  ..........]..D.+
0850: 19 B0 11 01 45 80 1C 06  80 4A F0 FF FF 7F 19 B0  ....E....J......
0860: 11 01 6F 76 F0 FF FF 7F  52 3B 80 F8 FF FF 7F F8  ..ov....R;......
0870: FF FF 7F 73 30 39 31 02  09 10 32 80 00 93 08 45  ...s091...2....E
0880: 3B 80 F8 FF FF 7F F8 FF  FF 7F 73 31 33 37 01 80  ;.........s137..
0890: 01 C0 08 02 09 10 36 80  00 AF 08 45 3B 80 F8 FF  ......6....E;...
08A0: FF 7F F8 FF FF 7F 73 31  33 37 01 80 01 C0 08 45  ......s137.....E
08B0: 3B 80 F8 FF FF 7F F8 FF  FF 7F 73 30 39 33 01 80  ;.........s093..
08C0: 27 0F 02 B0 11 01 11 1C  08 80 23 2A 0F 19 B0 11  '.........#*....
08D0: 01 4A F0 FF FF 7F 19 B0  11 01 02 09 10 32 80 00  .J...........2..
08E0: F4 08 52 3B 80 F8 FF FF  7F F8 FF FF 7F 73 31 33  ..R;.........s13
08F0: 37 01 1D 09 02 09 10 36  80 00 0E 09 52 3B 80 F8  7......6....R;..
0900: FF FF 7F F8 FF FF 7F 73  31 33 37 01 1D 09 52 3B  .......s137...R;
0910: 80 F8 FF FF 7F F8 FF FF  7F 73 30 39 33 02 09 10  .........s093...
0920: 32 80 00 39 09 45 3B 80  F8 FF FF 7F F8 FF FF 7F  2..9.E;.........
0930: 73 31 33 30 01 80 01 66  09 02 09 10 36 80 00 55  s130...f....6..U
0940: 09 45 3B 80 F8 FF FF 7F  F8 FF FF 7F 73 31 33 30  .E;.........s130
0950: 01 80 01 66 09 45 3B 80  F8 FF FF 7F F8 FF FF 7F  ...f.E;.........
0960: 73 30 39 32 01 80 4A 19  B0 11 01 F0 FF FF 7F 6F  s092..J........o
0970: 76 19 B0 11 01 6F 76 F0  FF FF 7F 2B 19 B0 11 01  v....ov....+....
0980: 46 80 23 24 47 80 01 80  01 80 25 02 00 10 01 80  F.#$G.....%.....
0990: 00 01 0A 6E F0 FF FF 7F  48 80 99 F0 FF FF 7F 1C  ...n....H.......
09A0: 06 80 29 0F 19 B0 11 01  21 1C 08 80 2B 19 B0 11  ..).....!...+...
09B0: 01 49 80 23 29 0F 19 B0  11 01 22 02 09 10 32 80  .I.#)....."...2.
09C0: 00 D5 09 52 3B 80 F8 FF  FF 7F F8 FF FF 7F 73 31  ...R;.........s1
09D0: 33 30 01 FE 09 02 09 10  36 80 00 EF 09 52 3B 80  30......6....R;.
09E0: F8 FF FF 7F F8 FF FF 7F  73 31 33 30 01 FE 09 52  ........s130...R
09F0: 3B 80 F8 FF FF 7F F8 FF  FF 7F 73 30 39 32 01 6C  ;.........s092.l
0A00: 0B 02 00 10 03 80 00 AF  0A 6E F0 FF FF 7F 36 80  .........n....6.
0A10: 99 F0 FF FF 7F 1C 4A 80  02 09 10 32 80 00 32 0A  ......J....2..2.
0A20: 52 3B 80 F8 FF FF 7F F8  FF FF 7F 73 31 33 30 01  R;.........s130.
0A30: 5B 0A 02 09 10 36 80 00  4C 0A 52 3B 80 F8 FF FF  [....6..L.R;....
0A40: 7F F8 FF FF 7F 73 31 33  30 01 5B 0A 52 3B 80 F8  .....s130.[.R;..
0A50: FF FF 7F F8 FF FF 7F 73  30 39 32 45 3B 80 F8 FF  .......s092E;...
0A60: FF 7F F8 FF FF 7F 73 30  39 34 01 80 7B 19 B0 11  ......s094..{...
0A70: 01 29 0F 19 B0 11 01 03  2B 19 B0 11 01 4B 80 23  .)......+....K.#
0A80: 29 0F 19 B0 11 01 04 29  0F 19 B0 11 01 05 2B 19  )......)......+.
0A90: B0 11 01 4C 80 23 29 0F  19 B0 11 01 06 52 3B 80  ...L.#)......R;.
0AA0: F8 FF FF 7F F8 FF FF 7F  73 30 39 34 01 6C 0B 02  ........s094.l..
0AB0: 00 10 05 80 00 6C 0B 6E  F0 FF FF 7F 36 80 99 F0  .....l.n....6...
0AC0: FF FF 7F 1C 4A 80 02 09  10 32 80 00 E0 0A 52 3B  ....J....2....R;
0AD0: 80 F8 FF FF 7F F8 FF FF  7F 73 31 33 30 01 09 0B  .........s130...
0AE0: 02 09 10 36 80 00 FA 0A  52 3B 80 F8 FF FF 7F F8  ...6....R;......
0AF0: FF FF 7F 73 31 33 30 01  09 0B 52 3B 80 F8 FF FF  ...s130...R;....
0B00: 7F F8 FF FF 7F 73 30 39  32 45 3B 80 F8 FF FF 7F  .....s092E;.....
0B10: F8 FF FF 7F 73 30 39 34  01 80 7B 19 B0 11 01 29  ....s094..{....)
0B20: 0F 19 B0 11 01 03 6E F0  FF FF 7F 36 80 99 F0 FF  ......n....6....
0B30: FF 7F 1C 4A 80 2B 19 B0  11 01 4B 80 23 29 0F 19  ...J.+....K.#)..
0B40: B0 11 01 04 29 0F 19 B0  11 01 05 2B 19 B0 11 01  ....)......+....
0B50: 4C 80 23 29 0F 19 B0 11  01 06 52 3B 80 F8 FF FF  L.#)......R;....
0B60: 7F F8 FF FF 7F 73 30 39  34 01 6C 0B 2A 0F 02 B0  .....s094.l.*...
0B70: 11 01 5D 01 80 44 80 02  02 00 03 80 00 A6 0B 45  ..]..D.........E
0B80: 3B 80 F8 FF FF 7F F8 FF  FF 7F 73 30 39 34 01 80  ;.........s094..
0B90: 1A 43 00 48 4D 80 23 52  3B 80 F8 FF FF 7F F8 FF  .C.HM.#R;.......
0BA0: FF 7F 73 30 39 34 6C 1B  B0 11 01 43 80 03 80 6C  ..s094l....C...l
0BB0: 1C B0 11 01 43 80 03 80  6C 1D B0 11 01 43 80 03  ....C...l....C..
0BC0: 80 6C 04 B0 11 01 01 80  03 80 6C 19 B0 11 01 43  .l........l....C
0BD0: 80 03 80 6C 1E B0 11 01  43 80 03 80 5C 00 4E 80  ...l....C...\.N.
0BE0: 5C 01 4E 80 9A 5D 4F 80  03 80 27 0F 1B B0 11 01  \.N..]O...'.....
0BF0: 4C 27 0F 1C B0 11 01 14  27 0F 1D B0 11 01 11 1C  L'......'.......
0C00: 50 80 45 3B 80 F8 FF FF  7F F8 FF FF 7F 73 30 39  P.E;.........s09
0C10: 35 01 80 BA 06 B0 11 01  51 80 52 80 53 80 54 80  5.......Q.R.S.T.
0C20: 1C 50 80 BA 19 B0 11 01  55 80 56 80 29 80 57 80  .P......U.V.).W.
0C30: 27 0F 05 B0 11 01 23 1C  50 80 1C 58 80 29 0F 19  '.....#.P..X.)..
0C40: B0 11 01 21 1C 58 80 52  3B 80 F8 FF FF 7F F8 FF  ...!.X.R;.......
0C50: FF 7F 73 30 39 35 45 3B  80 F8 FF FF 7F F8 FF FF  ..s095E;........
0C60: 7F 73 30 39 39 01 80 45  3B 80 F8 FF FF 7F F8 FF  .s099..E;.......
0C70: FF 7F 38 31 36 30 01 80  4A F0 FF FF 7F 1B B0 11  ..8160..J.......
0C80: 01 2B 19 B0 11 01 59 80  23 6C 1F B0 11 01 43 80  .+....Y.#l....C.
0C90: 03 80 27 0F 1F B0 11 01  22 4A 07 B0 11 01 1B B0  ..'....."J......
0CA0: 11 01 4A 08 B0 11 01 1B  B0 11 01 2A 0F 1B B0 11  ..J........*....
0CB0: 01 2A 0F 1D B0 11 01 27  0F 1B B0 11 01 4D 27 0F  .*.....'.....M'.
0CC0: 1D B0 11 01 12 6C 04 B0  11 01 43 80 03 80 1C 3E  .....l....C....>
0CD0: 80 52 3B 80 F8 FF FF 7F  F8 FF FF 7F 73 30 39 39  .R;.........s099
0CE0: 45 3B 80 F8 FF FF 7F F8  FF FF 7F 73 30 39 37 01  E;.........s097.
0CF0: 80 27 0F 1E B0 11 01 1F  27 0F 04 B0 11 01 3D 1C  .'......'.....=.
0D00: 32 80 BA 03 B0 11 01 5A  80 5B 80 14 80 5C 80 79  2......Z.[...\.y
0D10: 00 03 B0 11 01 1E B0 11  01 79 00 02 B0 11 01 1E  .........y......
0D20: B0 11 01 2B 1E B0 11 01  5D 80 23 4B 09 B0 11 01  ...+....].#K....
0D30: 5E 80 1C 3A 80 45 3B 80  F8 FF FF 7F F8 FF FF 7F  ^..:.E;.........
0D40: 30 30 31 31 01 80 6F 76  09 B0 11 01 29 0F 09 B0  0011..ov....)...
0D50: 11 01 07 6F 76 07 B0 11  01 6F 76 08 B0 11 01 2A  ...ov....ov....*
0D60: 0F 05 B0 11 01 1C 3E 80  52 3B 80 F8 FF FF 7F F8  ......>.R;......
0D70: FF FF 7F 73 30 39 37 45  3B 80 F8 FF FF 7F F8 FF  ...s097E;.......
0D80: FF 7F 73 30 39 36 01 80  6E 05 B0 11 01 58 80 99  ..s096..n....X..
0D90: 05 B0 11 01 2A 0F 1B B0  11 01 4A F0 FF FF 7F 1B  ....*.....J.....
0DA0: B0 11 01 4A 19 B0 11 01  1B B0 11 01 1C 50 80 4A  ...J.........P.J
0DB0: 1B B0 11 01 1F B0 11 01  6F 76 1B B0 11 01 29 0F  ........ov....).
0DC0: 1B B0 11 01 17 45 3B 80  F8 FF FF 7F F8 FF FF 7F  .....E;.........
0DD0: 31 30 31 35 01 80 6F 76  F0 FF FF 7F 6F 76 19 B0  1015..ov....ov..
0DE0: 11 01 52 3B 80 F8 FF FF  7F F8 FF FF 7F 73 30 39  ..R;.........s09
0DF0: 36 45 3B 80 F8 FF FF 7F  F8 FF FF 7F 73 30 39 38  6E;.........s098
0E00: 01 80 27 0F 02 B0 11 01  11 2A 0F 1D B0 11 01 29  ..'......*.....)
0E10: 0F 1D B0 11 01 0E 1C 4A  80 29 0F 09 B0 11 01 08  .......J.)......
0E20: 29 0F 09 B0 11 01 09 27  0F F0 FF FF 7F 05 29 0F  )......'......).
0E30: 19 B0 11 01 23 52 3B 80  F8 FF FF 7F F8 FF FF 7F  ....#R;.........
0E40: 73 30 39 38 45 3B 80 F8  FF FF 7F F8 FF FF 7F 73  s098E;.........s
0E50: 31 30 30 01 80 2A 0F 1E  B0 11 01 7B 1E B0 11 01  100..*.....{....
0E60: 1C 4A 80 29 0F 1E B0 11  01 20 29 0F 1B B0 11 01  .J.)..... ).....
0E70: 18 6E 1E B0 11 01 48 80  99 1E B0 11 01 29 0F 1F  .n....H......)..
0E80: B0 11 01 15 29 0F 19 B0  11 01 24 2B 1E B0 11 01  ....).....$+....
0E90: 5F 80 1C 50 80 79 00 F0  FF FF 7F 1E B0 11 01 4A  _..P.y.........J
0EA0: 19 B0 11 01 1E B0 11 01  4A 17 B0 11 01 1E B0 11  ........J.......
0EB0: 01 6F 76 19 B0 11 01 6F  76 17 B0 11 01 23 2A 0F  .ov....ov....#*.
0EC0: 1C B0 11 01 4B 1E B0 11  01 60 80 6F 76 1E B0 11  ....K....`.ov...
0ED0: 01 2A 0F F0 FF FF 7F 52  3B 80 F8 FF FF 7F F8 FF  .*.....R;.......
0EE0: FF 7F 73 31 30 30 45 3B  80 F8 FF FF 7F F8 FF FF  ..s100E;........
0EF0: 7F 73 31 30 31 01 80 79  00 1E B0 11 01 1B B0 11  .s101..y........
0F00: 01 1C 08 80 29 0F 1C B0  11 01 0F 29 0F 1D B0 11  ....)......)....
0F10: 01 0F 29 0F 1D B0 11 01  0A 4A 19 B0 11 01 1D B0  ..)......J......
0F20: 11 01 2B 1E B0 11 01 61  80 23 6F 76 19 B0 11 01  ..+....a.#ov....
0F30: 29 0F 19 B0 11 01 07 2B  19 B0 11 01 62 80 1C 50  )......+....b..P
0F40: 80 79 00 1E B0 11 01 19  B0 11 01 23 2A 0F 02 B0  .y.........#*...
0F50: 11 01 52 3B 80 F8 FF FF  7F F8 FF FF 7F 73 31 30  ..R;.........s10
0F60: 31 45 3B 80 F8 FF FF 7F  F8 FF FF 7F 73 31 30 32  1E;.........s102
0F70: 01 80 4A 1B B0 11 01 F0  FF FF 7F 29 0F 1B B0 11  ..J........)....
0F80: 01 19 79 00 19 B0 11 01  1E B0 11 01 2B 1E B0 11  ..y.........+...
0F90: 01 63 80 29 0F 19 B0 11  01 08 23 29 0F 1B B0 11  .c.)......#)....
0FA0: 01 1A 6F 76 1B B0 11 01  52 3B 80 F8 FF FF 7F F8  ..ov....R;......
0FB0: FF FF 7F 73 31 30 32 45  3B 80 F8 FF FF 7F F8 FF  ...s102E;.......
0FC0: FF 7F 73 31 30 33 01 80  79 00 F0 FF FF 7F 1B B0  ..s103..y.......
0FD0: 11 01 79 00 1E B0 11 01  1B B0 11 01 79 00 19 B0  ..y.........y...
0FE0: 11 01 1B B0 11 01 79 00  02 B0 11 01 1B B0 11 01  ......y.........
0FF0: 29 0F 1B B0 11 01 1F 29  0F 1F B0 11 01 17 2B 1B  )......)......+.
1000: B0 11 01 64 80 1C 58 80  45 3B 80 F8 FF FF 7F F8  ...d..X.E;......
1010: FF FF 7F 31 30 30 31 01  80 4A 1D B0 11 01 F0 FF  ...1001..J......
1020: FF 7F 6F 76 1D B0 11 01  29 0F 1B B0 11 01 20 29  ..ov....)..... )
1030: 0F 1B B0 11 01 21 23 29  0F 1F B0 11 01 18 52 3B  .....!#)......R;
1040: 80 F8 FF FF 7F F8 FF FF  7F 73 31 30 33 45 3B 80  .........s103E;.
1050: F8 FF FF 7F F8 FF FF 7F  73 31 31 31 01 80 59 05  ........s111..Y.
1060: 1B B0 11 01 00 59 05 1C  B0 11 01 00 59 05 1D B0  .....Y......Y...
1070: 11 01 00 29 0F 1F B0 11  01 0D 79 00 05 B0 11 01  ...)......y.....
1080: 1F B0 11 01 2B 1F B0 11  01 65 80 1C 06 80 29 0F  ....+....e....).
1090: 1B B0 11 01 22 4A 1B B0  11 01 1F B0 11 01 6F 76  ...."J........ov
10A0: 1B B0 11 01 6F 76 1D B0  11 01 23 29 0F 1F B0 11  ....ov....#)....
10B0: 01 18 29 0F 1B B0 11 01  31 27 0F 05 B0 11 01 24  ..).....1'.....$
10C0: 27 0F 1C B0 11 01 16 29  0F 1D B0 11 01 0B 27 0F  '......)......'.
10D0: 1D B0 11 01 13 1C 32 80  52 3B 80 F8 FF FF 7F F8  ......2.R;......
10E0: FF FF 7F 73 31 31 31 45  3B 80 F8 FF FF 7F F8 FF  ...s111E;.......
10F0: FF 7F 73 31 30 35 01 80  29 0F 1B B0 11 01 32 27  ..s105..).....2'
1100: 0F 1B B0 11 01 4E 1C 06  80 27 0F 1F B0 11 01 23  .....N...'.....#
1110: 4A 1E B0 11 01 1B B0 11  01 6F 76 1E B0 11 01 2A  J........ov....*
1120: 0F 1B B0 11 01 52 3B 80  F8 FF FF 7F F8 FF FF 7F  .....R;.........
1130: 73 31 30 35 45 3B 80 F8  FF FF 7F F8 FF FF 7F 73  s105E;.........s
1140: 31 30 38 01 80 29 0F 1B  B0 11 01 3D 45 3B 80 F8  108..).....=E;..
1150: FF FF 7F F8 FF FF 7F 31  30 30 31 01 80 2B 1B B0  .......1001..+..
1160: 11 01 66 80 23 2A 0F 1F  B0 11 01 59 05 1E B0 11  ..f.#*.....Y....
1170: 01 01 59 05 1F B0 11 01  01 29 0F 1B B0 11 01 3E  ..Y......).....>
1180: 27 0F 1B B0 11 01 4F 52  3B 80 F8 FF FF 7F F8 FF  '.....OR;.......
1190: FF 7F 73 31 30 38 45 3B  80 F8 FF FF 7F F8 FF FF  ..s108E;........
11A0: 7F 73 31 30 34 01 80 BA  1E B0 11 01 67 80 68 80  .s104.......g.h.
11B0: 14 80 69 80 BA F0 FF FF  7F 6A 80 6B 80 29 80 6C  ..i......j.k.).l
11C0: 80 27 0F 1F B0 11 01 24  2A 0F 1B B0 11 01 29 0F  .'.....$*.....).
11D0: 1B B0 11 01 17 45 3B 80  F8 FF FF 7F F8 FF FF 7F  .....E;.........
11E0: 31 30 30 31 01 80 2B 1B  B0 11 01 6D 80 1C 4A 80  1001..+....m..J.
11F0: 52 3B 80 F8 FF FF 7F F8  FF FF 7F 73 31 30 34 02  R;.........s104.
1200: 09 10 32 80 00 1B 12 45  3B 80 F8 FF FF 7F F8 FF  ..2....E;.......
1210: FF 7F 73 31 33 31 01 80  01 48 12 02 09 10 36 80  ..s131...H....6.
1220: 00 37 12 45 3B 80 F8 FF  FF 7F F8 FF FF 7F 73 31  .7.E;.........s1
1230: 33 31 01 80 01 48 12 45  3B 80 F8 FF FF 7F F8 FF  31...H.E;.......
1240: FF 7F 73 31 30 39 01 80  23 29 0F 1B B0 11 01 18  ..s109..#)......
1250: 29 0F 1B B0 11 01 19 29  0F 1B B0 11 01 1A 2A 0F  )......)......*.
1260: 1F B0 11 01 1C 06 80 27  0F 1B B0 11 01 50 1C 06  .......'.....P..
1270: 80 27 0F 1E B0 11 01 21  27 0F 1F B0 11 01 25 27  .'.....!'.....%'
1280: 0F 02 B0 11 01 13 1C 06  80 1C 06 80 02 09 10 32  ...............2
1290: 80 00 A6 12 52 3B 80 F8  FF FF 7F F8 FF FF 7F 73  ....R;.........s
12A0: 31 33 31 01 CF 12 02 09  10 36 80 00 C0 12 52 3B  131......6....R;
12B0: 80 F8 FF FF 7F F8 FF FF  7F 73 31 33 31 01 CF 12  .........s131...
12C0: 52 3B 80 F8 FF FF 7F F8  FF FF 7F 73 31 30 39 02  R;.........s109.
12D0: 09 10 32 80 00 EB 12 45  3B 80 F8 FF FF 7F F8 FF  ..2....E;.......
12E0: FF 7F 73 31 33 32 01 80  01 18 13 02 09 10 36 80  ..s132........6.
12F0: 00 07 13 45 3B 80 F8 FF  FF 7F F8 FF FF 7F 73 31  ...E;.........s1
1300: 33 32 01 80 01 18 13 45  3B 80 F8 FF FF 7F F8 FF  32.....E;.......
1310: FF 7F 73 31 30 36 01 80  1C 44 80 4A 19 B0 11 01  ..s106...D.J....
1320: F0 FF FF 7F 6F 76 19 B0  11 01 2B 19 B0 11 01 6E  ....ov....+....n
1330: 80 1C 50 80 4A F0 FF FF  7F 19 B0 11 01 6F 76 F0  ..P.J........ov.
1340: FF FF 7F 23 24 6F 80 01  80 01 80 25 02 00 10 01  ...#$o.....%....
1350: 80 00 08 14 6E F0 FF FF  7F 48 80 99 F0 FF FF 7F  ....n....H......
1360: 1C 4A 80 02 09 10 32 80  00 7D 13 52 3B 80 F8 FF  .J....2..}.R;...
1370: FF 7F F8 FF FF 7F 73 31  33 32 01 A6 13 02 09 10  ......s132......
1380: 36 80 00 97 13 52 3B 80  F8 FF FF 7F F8 FF FF 7F  6....R;.........
1390: 73 31 33 32 01 A6 13 52  3B 80 F8 FF FF 7F F8 FF  s132...R;.......
13A0: FF 7F 73 31 30 36 02 09  10 32 80 00 C2 13 45 3B  ..s106...2....E;
13B0: 80 F8 FF FF 7F F8 FF FF  7F 73 31 33 33 01 80 01  .........s133...
13C0: EF 13 02 09 10 36 80 00  DE 13 45 3B 80 F8 FF FF  .....6....E;....
13D0: 7F F8 FF FF 7F 73 31 33  33 01 80 01 EF 13 45 3B  .....s133.....E;
13E0: 80 F8 FF FF 7F F8 FF FF  7F 73 31 30 37 01 80 29  .........s107..)
13F0: 0F 19 B0 11 01 21 2B 19  B0 11 01 70 80 23 29 0F  .....!+....p.#).
1400: 19 B0 11 01 22 01 C4 14  02 00 10 03 80 00 C4 14  ...."...........
1410: 6E F0 FF FF 7F 36 80 99  F0 FF FF 7F 1C 4A 80 02  n....6.......J..
1420: 09 10 32 80 00 39 14 52  3B 80 F8 FF FF 7F F8 FF  ..2..9.R;.......
1430: FF 7F 73 31 33 32 01 62  14 02 09 10 36 80 00 53  ..s132.b....6..S
1440: 14 52 3B 80 F8 FF FF 7F  F8 FF FF 7F 73 31 33 32  .R;.........s132
1450: 01 62 14 52 3B 80 F8 FF  FF 7F F8 FF FF 7F 73 31  .b.R;.........s1
1460: 30 36 02 09 10 32 80 00  7E 14 45 3B 80 F8 FF FF  06...2..~.E;....
1470: 7F F8 FF FF 7F 73 31 33  33 01 80 01 AB 14 02 09  .....s133.......
1480: 10 36 80 00 9A 14 45 3B  80 F8 FF FF 7F F8 FF FF  .6....E;........
1490: 7F 73 31 33 33 01 80 01  AB 14 45 3B 80 F8 FF FF  .s133.....E;....
14A0: 7F F8 FF FF 7F 73 31 30  37 01 80 29 0F 19 B0 11  .....s107..)....
14B0: 01 21 2B 19 B0 11 01 71  80 23 29 0F 19 B0 11 01  .!+....q.#).....
14C0: 22 01 C4 14 6C 05 B0 11  01 01 80 03 80 6C 1E B0  "...l........l..
14D0: 11 01 01 80 03 80 6C 1F  B0 11 01 01 80 03 80 6C  ......l........l
14E0: 1B B0 11 01 01 80 03 80  6C 1C B0 11 01 01 80 03  ........l.......
14F0: 80 6C 1D B0 11 01 01 80  03 80 2A 0F 02 B0 11 01  .l........*.....
1500: 79 00 19 B0 11 01 F0 FF  FF 7F 29 0F 19 B0 11 01  y.........).....
1510: 23 2B 19 B0 11 01 72 80  23 29 0F 19 B0 11 01 24  #+....r.#).....$
1520: 03 01 00 01 80 03 00 10  01 80 02 00 10 03 80 01  ................
1530: 78 17 24 73 80 01 80 01  00 25 02 00 10 01 80 00  x.$s.....%......
1540: 1D 16 29 0F F0 FF FF 7F  03 1C 4A 80 29 0F F0 FF  ..).......J.)...
1550: FF 7F 04 02 09 10 32 80  00 6D 15 52 3B 80 F8 FF  ......2..m.R;...
1560: FF 7F F8 FF FF 7F 73 31  33 33 01 96 15 02 09 10  ......s133......
1570: 36 80 00 87 15 52 3B 80  F8 FF FF 7F F8 FF FF 7F  6....R;.........
1580: 73 31 33 33 01 96 15 52  3B 80 F8 FF FF 7F F8 FF  s133...R;.......
1590: FF 7F 73 31 30 37 45 3B  80 F8 FF FF 7F F8 FF FF  ..s107E;........
15A0: 7F 73 31 32 37 01 80 6E  19 B0 11 01 48 80 99 19  .s127..n....H...
15B0: B0 11 01 2B 19 B0 11 01  74 80 23 52 3B 80 F8 FF  ...+....t.#R;...
15C0: FF 7F F8 FF FF 7F 73 31  32 37 02 09 10 32 80 00  ......s127...2..
15D0: E6 15 45 3B 80 F8 FF FF  7F F8 FF FF 7F 73 31 33  ..E;.........s13
15E0: 33 01 80 01 13 16 02 09  10 36 80 00 02 16 45 3B  3........6....E;
15F0: 80 F8 FF FF 7F F8 FF FF  7F 73 31 33 33 01 80 01  .........s133...
1600: 13 16 45 3B 80 F8 FF FF  7F F8 FF FF 7F 73 31 30  ..E;.........s10
1610: 37 01 80 3C 01 00 00 10  03 80 01 75 17 02 00 10  7..<.......u....
1620: 03 80 00 92 16 29 0F F0  FF FF 7F 03 1C 4A 80 29  .....).......J.)
1630: 0F F0 FF FF 7F 04 29 0F  19 B0 11 01 07 2B 19 B0  ......)......+..
1640: 11 01 75 80 23 29 0F 19  B0 11 01 08 02 09 10 32  ..u.#).........2
1650: 80 00 66 16 52 3B 80 F8  FF FF 7F F8 FF FF 7F 73  ..f.R;.........s
1660: 31 33 33 01 8F 16 02 09  10 36 80 00 80 16 52 3B  133......6....R;
1670: 80 F8 FF FF 7F F8 FF FF  7F 73 31 33 33 01 8F 16  .........s133...
1680: 52 3B 80 F8 FF FF 7F F8  FF FF 7F 73 31 30 37 01  R;.........s107.
1690: 75 17 02 00 10 05 80 00  75 17 29 0F F0 FF FF 7F  u.......u.).....
16A0: 03 1C 4A 80 29 0F F0 FF  FF 7F 04 02 09 10 32 80  ..J.).........2.
16B0: 00 C5 16 52 3B 80 F8 FF  FF 7F F8 FF FF 7F 73 31  ...R;.........s1
16C0: 33 33 01 EE 16 02 09 10  36 80 00 DF 16 52 3B 80  33......6....R;.
16D0: F8 FF FF 7F F8 FF FF 7F  73 31 33 33 01 EE 16 52  ........s133...R
16E0: 3B 80 F8 FF FF 7F F8 FF  FF 7F 73 31 30 37 45 3B  ;.........s107E;
16F0: 80 F8 FF FF 7F F8 FF FF  7F 73 31 32 37 01 80 6E  .........s127..n
1700: 19 B0 11 01 48 80 99 19  B0 11 01 2B 19 B0 11 01  ....H......+....
1710: 74 80 23 52 3B 80 F8 FF  FF 7F F8 FF FF 7F 73 31  t.#R;.........s1
1720: 32 37 02 09 10 32 80 00  3E 17 45 3B 80 F8 FF FF  27...2..>.E;....
1730: 7F F8 FF FF 7F 73 31 33  33 01 80 01 6B 17 02 09  .....s133...k...
1740: 10 36 80 00 5A 17 45 3B  80 F8 FF FF 7F F8 FF FF  .6..Z.E;........
1750: 7F 73 31 33 33 01 80 01  6B 17 45 3B 80 F8 FF FF  .s133...k.E;....
1760: 7F F8 FF FF 7F 73 31 30  37 01 80 3C 01 00 00 10  .....s107..<....
1770: 03 80 01 75 17 01 2A 15  02 09 10 32 80 00 94 17  ...u..*....2....
1780: 45 3B 80 F8 FF FF 7F F8  FF FF 7F 73 31 33 34 01  E;.........s134.
1790: 80 01 C1 17 02 09 10 36  80 00 B0 17 45 3B 80 F8  .......6....E;..
17A0: FF FF 7F F8 FF FF 7F 73  31 33 34 01 80 01 C1 17  .......s134.....
17B0: 45 3B 80 F8 FF FF 7F F8  FF FF 7F 73 31 31 32 01  E;.........s112.
17C0: 80 5D 01 80 09 80 29 0F  F0 FF FF 7F 03 1C 76 80  .]....).......v.
17D0: 1A 64 00 02 09 10 32 80  00 ED 17 52 3B 80 F8 FF  .d....2....R;...
17E0: FF 7F F8 FF FF 7F 73 31  33 34 01 16 18 02 09 10  ......s134......
17F0: 36 80 00 07 18 52 3B 80  F8 FF FF 7F F8 FF FF 7F  6....R;.........
1800: 73 31 33 34 01 16 18 52  3B 80 F8 FF FF 7F F8 FF  s134...R;.......
1810: FF 7F 73 31 31 32 7B 19  B0 11 01 4B 09 B0 11 01  ..s112{....K....
1820: 01 80 4A 08 B0 11 01 07  B0 11 01 4A 07 B0 11 01  ..J........J....
1830: 08 B0 11 01 4A 17 B0 11  01 F0 FF FF 7F 6F 76 08  ....J........ov.
1840: B0 11 01 6F 76 07 B0 11  01 6F 76 09 B0 11 01 6F  ...ov....ov....o
1850: 76 17 B0 11 01 7B 05 B0  11 01 7B 06 B0 11 01 BA  v....{....{.....
1860: 05 B0 11 01 0F 80 16 80  17 80 18 80 BA 06 B0 11  ................
1870: 01 19 80 16 80 17 80 18  80 BA 04 B0 11 01 77 80  ..............w.
1880: 78 80 14 80 0E 80 BA 03  B0 11 01 79 80 7A 80 14  x..........y.z..
1890: 80 0E 80 BA 1D B0 11 01  7B 80 7C 80 14 80 7D 80  ........{.|...}.
18A0: 29 0F 02 B0 11 01 26 7B  04 B0 11 01 29 0F 19 B0  ).....&{....)...
18B0: 11 01 03 29 0F 19 B0 11  01 04 29 0F 1D B0 11 01  ...)......).....
18C0: 17 29 0F 02 B0 11 01 28  6C 1D B0 11 01 01 80 03  .).....(l.......
18D0: 80 6C 05 B0 11 01 43 80  03 80 1C 03 80 5C 00 7E  .l....C......\.~
18E0: 80 5C 01 7E 80 9A 5D 4F  80 03 80 45 3B 80 F8 FF  .\.~..]O...E;...
18F0: FF 7F F8 FF FF 7F 73 31  31 30 01 80 1A 43 00 29  ......s110...C.)
1900: 0F F0 FF FF 7F 04 1C 4A  80 2B 19 B0 11 01 7F 80  .......J.+......
1910: 23 52 3B 80 F8 FF FF 7F  F8 FF FF 7F 73 31 31 30  #R;.........s110
1920: 45 3B 80 F8 FF FF 7F F8  FF FF 7F 73 31 31 33 01  E;.........s113.
1930: 80 2B 19 B0 11 01 80 80  23 2B 19 B0 11 01 81 80  .+......#+......
1940: 23 52 3B 80 F8 FF FF 7F  F8 FF FF 7F 73 31 31 33  #R;.........s113
1950: 02 09 10 32 80 00 6C 19  45 3B 80 F8 FF FF 7F F8  ...2..l.E;......
1960: FF FF 7F 73 31 33 34 01  80 01 99 19 02 09 10 36  ...s134........6
1970: 80 00 88 19 45 3B 80 F8  FF FF 7F F8 FF FF 7F 73  ....E;.........s
1980: 31 33 34 01 80 01 99 19  45 3B 80 F8 FF FF 7F F8  134.....E;......
1990: FF FF 7F 73 31 31 32 01  80 29 0F 19 B0 11 01 05  ...s112..)......
19A0: 2B 19 B0 11 01 82 80 23  29 0F 19 B0 11 01 06 29  +......#)......)
19B0: 0F 19 B0 11 01 01 2B 19  B0 11 01 83 80 23 79 00  ......+......#y.
19C0: 19 B0 11 01 F0 FF FF 7F  2B 19 B0 11 01 84 80 23  ........+......#
19D0: 29 0F 19 B0 11 01 02 02  09 10 32 80 00 F1 19 52  ).........2....R
19E0: 3B 80 F8 FF FF 7F F8 FF  FF 7F 73 31 33 34 01 1A  ;.........s134..
19F0: 1A 02 09 10 36 80 00 0B  1A 52 3B 80 F8 FF FF 7F  ....6....R;.....
1A00: F8 FF FF 7F 73 31 33 34  01 1A 1A 52 3B 80 F8 FF  ....s134...R;...
1A10: FF 7F F8 FF FF 7F 73 31  31 32 45 3B 80 F8 FF FF  ......s112E;....
1A20: 7F F8 FF FF 7F 73 31 31  34 01 80 5D 01 80 44 80  .....s114..]..D.
1A30: 6E 02 B0 11 01 85 80 99  02 B0 11 01 2B 02 B0 11  n...........+...
1A40: 01 86 80 1C 50 80 45 3B  80 F8 FF FF 7F F8 FF FF  ....P.E;........
1A50: 7F 31 31 31 38 01 80 4A  F0 FF FF 7F 02 B0 11 01  .1118..J........
1A60: 6F 76 F0 FF FF 7F 4A 19  B0 11 01 02 B0 11 01 4A  ov....J........J
1A70: 09 B0 11 01 02 B0 11 01  4A 07 B0 11 01 02 B0 11  ........J.......
1A80: 01 1C 50 80 6F 76 19 B0  11 01 52 3B 80 F8 FF FF  ..P.ov....R;....
1A90: 7F F8 FF FF 7F 73 31 31  34 45 3B 80 F8 FF FF 7F  .....s114E;.....
1AA0: F8 FF FF 7F 73 31 31 35  01 80 29 0F 19 B0 11 01  ....s115..).....
1AB0: 07 4A 04 B0 11 01 02 B0  11 01 1C 06 80 4A 03 B0  .J...........J..
1AC0: 11 01 02 B0 11 01 23 6F  76 09 B0 11 01 6F 76 07  ......#ov....ov.
1AD0: B0 11 01 6F 76 03 B0 11  01 6F 76 04 B0 11 01 52  ...ov....ov....R
1AE0: 3B 80 F8 FF FF 7F F8 FF  FF 7F 73 31 31 35 45 3B  ;.........s115E;
1AF0: 80 F8 FF FF 7F F8 FF FF  7F 73 31 31 36 01 80 29  .........s116..)
1B00: 0F 19 B0 11 01 1D 4B F0  FF FF 7F 87 80 29 0F 02  ......K......)..
1B10: B0 11 01 0D 2B 19 B0 11  01 88 80 29 0F 02 B0 11  ....+......)....
1B20: 01 29 1C 32 80 29 0F 02  B0 11 01 27 23 29 0F 19  .).2.).....'#)..
1B30: B0 11 01 1E 6F 76 F0 FF  FF 7F 52 3B 80 F8 FF FF  ....ov....R;....
1B40: 7F F8 FF FF 7F 73 31 31  36 45 3B 80 F8 FF FF 7F  .....s116E;.....
1B50: F8 FF FF 7F 73 31 31 37  01 80 5D 4F 80 09 80 79  ....s117..]O...y
1B60: 00 02 B0 11 01 19 B0 11  01 27 0F 19 B0 11 01 4C  .........'.....L
1B70: 2B 19 B0 11 01 89 80 23  2A 0F 19 B0 11 01 52 3B  +......#*.....R;
1B80: 80 F8 FF FF 7F F8 FF FF  7F 73 31 31 37 45 3B 80  .........s117E;.
1B90: F8 FF FF 7F F8 FF FF 7F  73 31 31 38 01 80 29 0F  ........s118..).
1BA0: 02 B0 11 01 01 2B 02 B0  11 01 8A 80 23 2B 02 B0  .....+......#+..
1BB0: 11 01 8B 80 23 29 0F 02  B0 11 01 02 52 3B 80 F8  ....#)......R;..
1BC0: FF FF 7F F8 FF FF 7F 73  31 31 38 45 3B 80 F8 FF  .......s118E;...
1BD0: FF 7F F8 FF FF 7F 73 31  31 39 01 80 29 0F 02 B0  ......s119..)...
1BE0: 11 01 03 4B 04 B0 11 01  8C 80 7B 19 B0 11 01 2B  ...K......{....+
1BF0: 19 B0 11 01 8D 80 6E 19  B0 11 01 36 80 99 19 B0  ......n....6....
1C00: 11 01 1C 4A 80 4A 07 B0  11 01 08 B0 11 01 23 6F  ...J.J........#o
1C10: 76 04 B0 11 01 6F 76 07  B0 11 01 29 0F 02 B0 11  v....ov....)....
1C20: 01 04 52 3B 80 F8 FF FF  7F F8 FF FF 7F 73 31 31  ..R;.........s11
1C30: 39 45 3B 80 F8 FF FF 7F  F8 FF FF 7F 73 31 32 30  9E;.........s120
1C40: 01 80 29 0F 19 B0 11 01  4D 5D 4F 80 09 80 4A F0  ..).....M]O...J.
1C50: FF FF 7F 19 B0 11 01 2B  19 B0 11 01 8E 80 23 6F  .......+......#o
1C60: 76 F0 FF FF 7F 52 3B 80  F8 FF FF 7F F8 FF FF 7F  v....R;.........
1C70: 73 31 32 30 02 09 10 3E  80 00 90 1C 45 3B 80 F8  s120...>....E;..
1C80: FF FF 7F F8 FF FF 7F 73  31 32 31 01 80 01 F5 1C  .......s121.....
1C90: 02 09 10 32 80 00 AC 1C  45 3B 80 F8 FF FF 7F F8  ...2....E;......
1CA0: FF FF 7F 73 31 33 35 01  80 01 F5 1C 02 09 10 36  ...s135........6
1CB0: 80 00 C8 1C 45 3B 80 F8  FF FF 7F F8 FF FF 7F 73  ....E;.........s
1CC0: 31 33 35 01 80 01 F5 1C  02 09 10 3F 80 00 E4 1C  135........?....
1CD0: 45 3B 80 F8 FF FF 7F F8  FF FF 7F 73 31 32 31 01  E;.........s121.
1CE0: 80 01 F5 1C 45 3B 80 F8  FF FF 7F F8 FF FF 7F 73  ....E;.........s
1CF0: 31 34 30 01 80 4A 19 B0  11 01 F0 FF FF 7F 6F 76  140..J........ov
1D00: 19 B0 11 01 29 0F 19 B0  11 01 17 2B 19 B0 11 01  ....)......+....
1D10: 8F 80 1C 50 80 4A F0 FF  FF 7F 19 B0 11 01 6F 76  ...P.J........ov
1D20: F0 FF FF 7F 23 02 09 10  3E 80 00 3F 1D 52 3B 80  ....#...>..?.R;.
1D30: F8 FF FF 7F F8 FF FF 7F  73 31 32 31 01 9C 1D 02  ........s121....
1D40: 09 10 32 80 00 59 1D 52  3B 80 F8 FF FF 7F F8 FF  ..2..Y.R;.......
1D50: FF 7F 73 31 33 35 01 9C  1D 02 09 10 36 80 00 73  ..s135......6..s
1D60: 1D 52 3B 80 F8 FF FF 7F  F8 FF FF 7F 73 31 33 35  .R;.........s135
1D70: 01 9C 1D 02 09 10 3F 80  00 8D 1D 52 3B 80 F8 FF  ......?....R;...
1D80: FF 7F F8 FF FF 7F 73 31  32 31 01 9C 1D 52 3B 80  ......s121...R;.
1D90: F8 FF FF 7F F8 FF FF 7F  73 31 34 30 45 3B 80 F8  ........s140E;..
1DA0: FF FF 7F F8 FF FF 7F 73  31 32 32 01 80 2B 19 B0  .......s122..+..
1DB0: 11 01 90 80 29 0F 19 B0  11 01 18 29 0F 19 B0 11  ....)......)....
1DC0: 01 19 29 0F 19 B0 11 01  1A 79 00 19 B0 11 01 04  ..)......y......
1DD0: B0 11 01 1C 50 80 52 3B  80 F8 FF FF 7F F8 FF FF  ....P.R;........
1DE0: 7F 73 31 32 32 45 3B 80  F8 FF FF 7F F8 FF FF 7F  .s122E;.........
1DF0: 73 31 32 33 01 80 1C 4A  80 23 2B 19 B0 11 01 91  s123...J.#+.....
1E00: 80 23 52 3B 80 F8 FF FF  7F F8 FF FF 7F 73 31 32  .#R;.........s12
1E10: 33 45 3B 80 F8 FF FF 7F  F8 FF FF 7F 73 31 32 34  3E;.........s124
1E20: 01 80 6C 1D B0 11 01 43  80 92 80 45 3B 80 F8 FF  ..l....C...E;...
1E30: FF 7F F8 FF FF 7F 38 31  36 30 01 80 4A 19 B0 11  ......8160..J...
1E40: 01 1D B0 11 01 27 0F 1D  B0 11 01 14 6F 76 19 B0  .....'......ov..
1E50: 11 01 7B 19 B0 11 01 29  0F 19 B0 11 01 07 2B 19  ..{....)......+.
1E60: B0 11 01 93 80 1C 06 80  4A F0 FF FF 7F 03 B0 11  ........J.......
1E70: 01 23 29 0F 19 B0 11 01  08 52 3B 80 F8 FF FF 7F  .#)......R;.....
1E80: F8 FF FF 7F 73 31 32 34  45 3B 80 F8 FF FF 7F F8  ....s124E;......
1E90: FF FF 7F 73 31 32 36 01  80 2A 0F 1D B0 11 01 4B  ...s126..*.....K
1EA0: 03 B0 11 01 8C 80 6F 76  03 B0 11 01 BA 1D B0 11  ......ov........
1EB0: 01 94 80 95 80 29 80 7D  80 BA 19 B0 11 01 96 80  .....).}........
1EC0: 97 80 14 80 98 80 79 00  03 B0 11 01 07 B0 11 01  ......y.........
1ED0: 1C 08 80 6F 76 F0 FF FF  7F 27 0F 19 B0 11 01 4E  ...ov....'.....N
1EE0: 1C 32 80 52 3B 80 F8 FF  FF 7F F8 FF FF 7F 73 31  .2.R;.........s1
1EF0: 32 36 45 3B 80 F8 FF FF  7F F8 FF FF 7F 73 31 32  26E;.........s12
1F00: 35 01 80 4A 19 B0 11 01  03 B0 11 01 6C 1D B0 11  5..J........l...
1F10: 01 01 80 03 80 6F 76 19  B0 11 01 79 00 F0 FF FF  .....ov....y....
1F20: 7F 19 B0 11 01 2B 19 B0  11 01 99 80 23 2A 0F 19  .....+......#*..
1F30: B0 11 01 52 3B 80 F8 FF  FF 7F F8 FF FF 7F 73 31  ...R;.........s1
1F40: 32 35 45 3B 80 F8 FF FF  7F F8 FF FF 7F 73 31 32  25E;.........s12
1F50: 38 01 80 4A 19 B0 11 01  F0 FF FF 7F 6F 76 19 B0  8..J........ov..
1F60: 11 01 4A F0 FF FF 7F 19  B0 11 01 29 0F 19 B0 11  ..J........)....
1F70: 01 1D 2B 19 B0 11 01 9A  80 23 29 0F 19 B0 11 01  ..+......#).....
1F80: 1E 6F 76 F0 FF FF 7F 5D  01 80 09 80 7B 19 B0 11  .ov....]....{...
1F90: 01 27 0F 19 B0 11 01 4F  79 00 03 B0 11 01 19 B0  .'.....Oy.......
1FA0: 11 01 1C 06 80 4A F0 FF  FF 7F 19 B0 11 01 6F 76  .....J........ov
1FB0: F0 FF FF 7F 1C 06 80 1A  64 00 52 3B 80 F8 FF FF  ........d.R;....
1FC0: 7F F8 FF FF 7F 73 31 32  38 29 0F 1D B0 11 01 1B  .....s128)......
1FD0: 29 0F 02 B0 11 01 27 1C  03 80 5C 00 9B 80 5C 01  ).....'...\...\.
1FE0: 9B 80 9A 5D 4F 80 03 80  1C 9C 80 AB 11 01 80 1C  ...]O...........
1FF0: 03 80 46 00 45 00 80 F8  FF FF 7F F8 FF FF 7F 66  ..F.E..........f
2000: 64 69 32 01 80 21 00                              di2..!.         
```

#### Opcodes

```
  0: 0x0292 [0x42] SET_CLI_EVENT_CANCEL_DATA()
  1: 0x0293 [0x03] ExtData[1]->WorkLocal[2] = 0*
  2: 0x0298 [0x5D] SET_MUSIC_VOLUME(volume=60*, fade_time=300*)
  3: 0x029D [0x1A] CALL_SUBROUTINE(address=0x0064)
  4: 0x02A0 [0x46] CAMERA_CONTROL: Disable user control
  5: 0x02A2 [0x38] SET_CLIENT_EVENT_MODE(mode=147*)
  6: 0x02A5 [0x2F] Oshasha (ID: 17936409/0x0111B019)->Render.Flags0 &= ~0x80000 // Bit 19
  7: 0x02AB [0x2F] Gloom Phantom (ID: 17936411/0x0111B01B)->Render.Flags0 &= ~0x80000 // Bit 19
  8: 0x02B1 [0x2F] Magh Bihu (ID: 17936412/0x0111B01C)->Render.Flags0 &= ~0x80000 // Bit 19
  9: 0x02B7 [0x2F] Dazbog (ID: 17936413/0x0111B01D)->Render.Flags0 &= ~0x80000 // Bit 19
 10: 0x02BD [0x2F] Rabid Chameleon (ID: 17936414/0x0111B01E)->Render.Flags0 &= ~0x80000 // Bit 19
 11: 0x02C3 [0x2F] Falbala (ID: 17936415/0x0111B01F)->Render.Flags0 &= ~0x80000 // Bit 19
 12: 0x02C9 [0x4E] SET_ENTITY_HIDE_FLAG: Show Oshasha (ID: 17936409/0x0111B019)
 13: 0x02CF [0x4E] SET_ENTITY_HIDE_FLAG: Show Gloom Phantom (ID: 17936411/0x0111B01B)
 14: 0x02D5 [0x4E] SET_ENTITY_HIDE_FLAG: Show Magh Bihu (ID: 17936412/0x0111B01C)
 15: 0x02DB [0x4E] SET_ENTITY_HIDE_FLAG: Show Dazbog (ID: 17936413/0x0111B01D)
 16: 0x02E1 [0x4E] SET_ENTITY_HIDE_FLAG: Show Rabid Chameleon (ID: 17936414/0x0111B01E)
 17: 0x02E7 [0x4E] SET_ENTITY_HIDE_FLAG: Show Falbala (ID: 17936415/0x0111B01F)
 18: 0x02ED [0x92] Oscarnot (ID: 17936386/0x0111B002)->Render.Flags3 ^= 0x01
 19: 0x02F3 [0x92] Andelmine (ID: 17936387/0x0111B003)->Render.Flags3 ^= 0x01
 20: 0x02F9 [0x92] Zemerine (ID: 17936388/0x0111B004)->Render.Flags3 ^= 0x01
 21: 0x02FF [0x92] Dusky Forest (ID: 17936389/0x0111B005)->Render.Flags3 ^= 0x01
 22: 0x0305 [0x92] Reglert (ID: 17936390/0x0111B006)->Render.Flags3 ^= 0x01
 23: 0x030B [0x92] Wuger (ID: 17936391/0x0111B007)->Render.Flags3 ^= 0x01
 24: 0x0311 [0x92] Joliese (ID: 17936392/0x0111B008)->Render.Flags3 ^= 0x01
 25: 0x0317 [0x92] Estevanie (ID: 17936393/0x0111B009)->Render.Flags3 ^= 0x01
 26: 0x031D [0x92] Gama-Shama (ID: 17936407/0x0111B017)->Render.Flags3 ^= 0x01
 27: 0x0323 [0x92] Rabid Chameleon (ID: 17936414/0x0111B01E)->Render.Flags3 ^= 0x01
 28: 0x0329 [0x92] Falbala (ID: 17936415/0x0111B01F)->Render.Flags3 ^= 0x01
 29: 0x032F [0x92] Gloom Phantom (ID: 17936411/0x0111B01B)->Render.Flags3 ^= 0x01
 30: 0x0335 [0x92] Magh Bihu (ID: 17936412/0x0111B01C)->Render.Flags3 ^= 0x01
 31: 0x033B [0x92] Dazbog (ID: 17936413/0x0111B01D)->Render.Flags3 ^= 0x01
 32: 0x0341 [0x94] Oscarnot (ID: 17936386/0x0111B002)->Render.Flags3 ^= 0x01
 33: 0x0347 [0x94] Andelmine (ID: 17936387/0x0111B003)->Render.Flags3 ^= 0x01
 34: 0x034D [0x94] Zemerine (ID: 17936388/0x0111B004)->Render.Flags3 ^= 0x01
 35: 0x0353 [0x94] Dusky Forest (ID: 17936389/0x0111B005)->Render.Flags3 ^= 0x01
 36: 0x0359 [0x94] Reglert (ID: 17936390/0x0111B006)->Render.Flags3 ^= 0x01
 37: 0x035F [0x94] Wuger (ID: 17936391/0x0111B007)->Render.Flags3 ^= 0x01
 38: 0x0365 [0x94] Joliese (ID: 17936392/0x0111B008)->Render.Flags3 ^= 0x01
 39: 0x036B [0x94] Estevanie (ID: 17936393/0x0111B009)->Render.Flags3 ^= 0x01
 40: 0x0371 [0x94] Gama-Shama (ID: 17936407/0x0111B017)->Render.Flags3 ^= 0x01
 41: 0x0377 [0x94] Oshasha (ID: 17936409/0x0111B019)->Render.Flags3 ^= 0x01
 42: 0x037D [0x94] Gloom Phantom (ID: 17936411/0x0111B01B)->Render.Flags3 ^= 0x01
 43: 0x0383 [0x94] Magh Bihu (ID: 17936412/0x0111B01C)->Render.Flags3 ^= 0x01
 44: 0x0389 [0x94] Dazbog (ID: 17936413/0x0111B01D)->Render.Flags3 ^= 0x01
 45: 0x038F [0x94] Rabid Chameleon (ID: 17936414/0x0111B01E)->Render.Flags3 ^= 0x01
 46: 0x0395 [0x94] Falbala (ID: 17936415/0x0111B01F)->Render.Flags3 ^= 0x01
 47: 0x039B [0x94] LocalPlayer->Render.Flags3 ^= 0x01
 48: 0x03A1 [0xBA] SET_ENTITY_POSITION(entity_id=Oscarnot (ID: 17936386/0x0111B002), pos_x=-40.000*, pos_z=25.900*, pos_y=1.350*, direction=377476129.3*)
 49: 0x03AE [0xBA] SET_ENTITY_POSITION(entity_id=Andelmine (ID: 17936387/0x0111B003), pos_x=-46.000*, pos_z=24.900*, pos_y=1.340*, direction=377476129.3*)
 50: 0x03BB [0x59] UPDATE_ENTITY_DATA: Zemerine (ID: 17936388/0x0111B004)->Render.Flags0 |= 0x200000
 51: 0x03C2 [0xBA] SET_ENTITY_POSITION(entity_id=Zemerine (ID: 17936388/0x0111B004), pos_x=-34.205*, pos_z=26.619*, pos_y=1.349*, direction=265.9*)
 52: 0x03CF [0xBA] SET_ENTITY_POSITION(entity_id=Dusky Forest (ID: 17936389/0x0111B005), pos_x=-46.000*, pos_z=47.000*, pos_y=-0.660*, direction=89.9*)
 53: 0x03DC [0xBA] SET_ENTITY_POSITION(entity_id=Reglert (ID: 17936390/0x0111B006), pos_x=-34.000*, pos_z=47.000*, pos_y=-0.660*, direction=89.9*)
 54: 0x03E9 [0xBA] SET_ENTITY_POSITION(entity_id=Wuger (ID: 17936391/0x0111B007), pos_x=-45.582*, pos_z=32.764*, pos_y=1.349*, direction=192.9*)
 55: 0x03F6 [0xBA] SET_ENTITY_POSITION(entity_id=Joliese (ID: 17936392/0x0111B008), pos_x=-45.581*, pos_z=34.787*, pos_y=1.349*, direction=157.0*)
 56: 0x0403 [0xBA] SET_ENTITY_POSITION(entity_id=Estevanie (ID: 17936393/0x0111B009), pos_x=-33.388*, pos_z=37.799*, pos_y=1.350*, direction=0.0*)
 57: 0x0410 [0xBA] SET_ENTITY_POSITION(entity_id=Gama-Shama (ID: 17936407/0x0111B017), pos_x=-44.600*, pos_z=43.000*, pos_y=1.350*, direction=89.9*)
 58: 0x041D [0xBA] SET_ENTITY_POSITION(entity_id=Oshasha (ID: 17936409/0x0111B019), pos_x=-38.099*, pos_z=32.750*, pos_y=1.349*, direction=158.5*)
 59: 0x042A [0x59] UPDATE_ENTITY_DATA: Gloom Phantom (ID: 17936411/0x0111B01B)->Render.Flags0 |= 0x200000
 60: 0x0431 [0x59] UPDATE_ENTITY_DATA: Magh Bihu (ID: 17936412/0x0111B01C)->Render.Flags0 |= 0x200000
 61: 0x0438 [0x59] UPDATE_ENTITY_DATA: Dazbog (ID: 17936413/0x0111B01D)->Render.Flags0 |= 0x200000
 62: 0x043F [0xBA] SET_ENTITY_POSITION(entity_id=Gloom Phantom (ID: 17936411/0x0111B01B), pos_x=-34.462*, pos_z=20.249*, pos_y=1.338*, direction=272.1*)
 63: 0x044C [0xBA] SET_ENTITY_POSITION(entity_id=Magh Bihu (ID: 17936412/0x0111B01C), pos_x=-34.813*, pos_z=19.158*, pos_y=1.338*, direction=273.8*)
 64: 0x0459 [0xBA] SET_ENTITY_POSITION(entity_id=Dazbog (ID: 17936413/0x0111B01D), pos_x=-34.455*, pos_z=21.772*, pos_y=1.338*, direction=276.3*)
 65: 0x0466 [0x59] UPDATE_ENTITY_DATA: Rabid Chameleon (ID: 17936414/0x0111B01E)->Render.Flags0 |= 0x200000
 66: 0x046D [0xBA] SET_ENTITY_POSITION(entity_id=Rabid Chameleon (ID: 17936414/0x0111B01E), pos_x=-34.462*, pos_z=20.249*, pos_y=1.338*, direction=272.1*)
 67: 0x047A [0x59] UPDATE_ENTITY_DATA: Falbala (ID: 17936415/0x0111B01F)->Render.Flags0 |= 0x200000
 68: 0x0481 [0xBA] SET_ENTITY_POSITION(entity_id=Falbala (ID: 17936415/0x0111B01F), pos_x=-34.813*, pos_z=19.158*, pos_y=1.338*, direction=273.8*)
 69: 0x048E [0xBA] SET_ENTITY_POSITION(entity_id=LocalPlayer, pos_x=-40.000*, pos_z=30.000*, pos_y=1.350*, direction=89.9*)
 70: 0x049B [0x80] LOAD_WAIT(entity=Oscarnot (ID: 17936386/0x0111B002))
 71: 0x04A0 [0x80] LOAD_WAIT(entity=Andelmine (ID: 17936387/0x0111B003))
 72: 0x04A5 [0x80] LOAD_WAIT(entity=Zemerine (ID: 17936388/0x0111B004))
 73: 0x04AA [0x80] LOAD_WAIT(entity=Dusky Forest (ID: 17936389/0x0111B005))
 74: 0x04AF [0x80] LOAD_WAIT(entity=Reglert (ID: 17936390/0x0111B006))
 75: 0x04B4 [0x80] LOAD_WAIT(entity=Wuger (ID: 17936391/0x0111B007))
 76: 0x04B9 [0x80] LOAD_WAIT(entity=Joliese (ID: 17936392/0x0111B008))
 77: 0x04BE [0x80] LOAD_WAIT(entity=Estevanie (ID: 17936393/0x0111B009))
 78: 0x04C3 [0x80] LOAD_WAIT(entity=Gama-Shama (ID: 17936407/0x0111B017))
 79: 0x04C8 [0x80] LOAD_WAIT(entity=Oshasha (ID: 17936409/0x0111B019))
 80: 0x04CD [0x80] LOAD_WAIT(entity=Gloom Phantom (ID: 17936411/0x0111B01B))
 81: 0x04D2 [0x80] LOAD_WAIT(entity=Magh Bihu (ID: 17936412/0x0111B01C))
 82: 0x04D7 [0x80] LOAD_WAIT(entity=Dazbog (ID: 17936413/0x0111B01D))
 83: 0x04DC [0x80] LOAD_WAIT(entity=Rabid Chameleon (ID: 17936414/0x0111B01E))
 84: 0x04E1 [0x80] LOAD_WAIT(entity=Falbala (ID: 17936415/0x0111B01F))
 85: 0x04E6 [0x80] LOAD_WAIT(entity=LocalPlayer)
 86: 0x04EB [0x6C] FADE_ENTITY_COLOR(entity_id=Gloom Phantom (ID: 17936411/0x0111B01B), end_alpha=0*, fade_time=1*)
 87: 0x04F4 [0x6C] FADE_ENTITY_COLOR(entity_id=Magh Bihu (ID: 17936412/0x0111B01C), end_alpha=0*, fade_time=1*)
 88: 0x04FD [0x6C] FADE_ENTITY_COLOR(entity_id=Dazbog (ID: 17936413/0x0111B01D), end_alpha=0*, fade_time=1*)
 89: 0x0506 [0x29] REQ_SET_WAIT(priority=0x0F, entity_id=LocalPlayer, tag_num=0x02)
 90: 0x050D [0x02] IF !(Work_Zone[9] == 5*) GOTO 0x0525
 91: 0x0515 [0xBA] SET_ENTITY_POSITION(entity_id=LocalPlayer, pos_x=-40.098*, pos_z=29.679*, pos_y=1.338*, direction=89.7*)
 92: 0x0522 [0x01] GOTO 0x054A
 93: 0x0525 [0x02] IF !(Work_Zone[9] == 6*) GOTO 0x053D
 94: 0x052D [0xBA] SET_ENTITY_POSITION(entity_id=LocalPlayer, pos_x=-40.098*, pos_z=29.679*, pos_y=1.338*, direction=89.7*)
 95: 0x053A [0x01] GOTO 0x054A
 96: 0x053D [0xBA] SET_ENTITY_POSITION(entity_id=LocalPlayer, pos_x=-40.009*, pos_z=28.609*, pos_y=1.338*, direction=306.8*)

SUBROUTINE_054A:
 97: 0x054A [0x80] LOAD_WAIT(entity=Oshasha (ID: 17936409/0x0111B019))
 98: 0x054F [0x4A] LocalPlayer looks at Oscarnot (ID: 17936386/0x0111B002)
 99: 0x0558 [0x4A] Oshasha (ID: 17936409/0x0111B019) looks at Oscarnot (ID: 17936386/0x0111B002)
100: 0x0561 [0x6F] WAIT_FRAME_DELAY: Yield until WaitTime reaches zero
101: 0x0562 [0x76] CHECK_ENTITY_RENDER_FLAGS: Wait until Oshasha (ID: 17936409/0x0111B019) Render.Flags0 and Render.Flags3 conditions are met
102: 0x0567 [0x6F] WAIT_FRAME_DELAY: Yield until WaitTime reaches zero
103: 0x0568 [0x76] CHECK_ENTITY_RENDER_FLAGS: Wait until LocalPlayer Render.Flags0 and Render.Flags3 conditions are met
104: 0x056D [0x6C] FADE_ENTITY_COLOR(entity_id=Rabid Chameleon (ID: 17936414/0x0111B01E), end_alpha=0*, fade_time=1*)
105: 0x0576 [0x6C] FADE_ENTITY_COLOR(entity_id=Falbala (ID: 17936415/0x0111B01F), end_alpha=0*, fade_time=1*)
106: 0x057F [0x6C] FADE_ENTITY_COLOR(entity_id=Oshasha (ID: 17936409/0x0111B019), end_alpha=0*, fade_time=1*)
107: 0x0588 [0x2C] CREATE_SCHEDULER_TASK: Create scheduler "wpof" with entities [Gloom Phantom (ID: 17936411/0x0111B01B), Gloom Phantom (ID: 17936411/0x0111B01B)]
108: 0x0595 [0x02] IF !(ExtData[1]->WorkLocal[2] == 0*) GOTO 0x0B72
109: 0x059D [0x1C] WAIT(40* ticks)
110: 0x05A0 [0x29] REQ_SET_WAIT(priority=0x0F, entity_id=Oscarnot (ID: 17936386/0x0111B002), tag_num=0x01)
111: 0x05A7 [0x45] LOAD_SCHEDULED_TASK: Load scheduler "s089" with entities [EventEntity, EventEntity], work=[898*, 0*]
112: 0x05B8 [0x1A] CALL_SUBROUTINE(address=0x0043)
113: 0x05BB [0x2B] Oscarnot (ID: 17936386/0x0111B002) [7298*]:
     "Welcome, [sir/madame]."
114: 0x05C2 [0x23] WAIT_FOR_DIALOG_INTERACTION
115: 0x05C3 [0x2B] Oscarnot (ID: 17936386/0x0111B002) [7299*]:
     "My name is Oscarnot and I will be serving as the auctioneer."
116: 0x05CA [0x23] WAIT_FOR_DIALOG_INTERACTION
117: 0x05CB [0x29] REQ_SET_WAIT(priority=0x0F, entity_id=Oscarnot (ID: 17936386/0x0111B002), tag_num=0x02)
118: 0x05D2 [0x52] END_LOAD_SCHEDULER: End scheduler "s089" with entities [EventEntity, EventEntity], work=898*
119: 0x05E1 [0x02] IF !(Work_Zone[9] == 3*) GOTO 0x05FD
120: 0x05E9 [0x45] LOAD_SCHEDULED_TASK: Load scheduler "s088" with entities [EventEntity, EventEntity], work=[898*, 0*]
121: 0x05FA [0x01] GOTO 0x0662
122: 0x05FD [0x02] IF !(Work_Zone[9] == 5*) GOTO 0x0619
123: 0x0605 [0x45] LOAD_SCHEDULED_TASK: Load scheduler "s129" with entities [EventEntity, EventEntity], work=[898*, 0*]
124: 0x0616 [0x01] GOTO 0x0662
125: 0x0619 [0x02] IF !(Work_Zone[9] == 6*) GOTO 0x0635
126: 0x0621 [0x45] LOAD_SCHEDULED_TASK: Load scheduler "s129" with entities [EventEntity, EventEntity], work=[898*, 0*]
127: 0x0632 [0x01] GOTO 0x0662
128: 0x0635 [0x02] IF !(Work_Zone[9] == 8*) GOTO 0x0651
129: 0x063D [0x45] LOAD_SCHEDULED_TASK: Load scheduler "s088" with entities [EventEntity, EventEntity], work=[898*, 0*]
130: 0x064E [0x01] GOTO 0x0662
131: 0x0651 [0x45] LOAD_SCHEDULED_TASK: Load scheduler "s138" with entities [EventEntity, EventEntity], work=[898*, 0*]

SUBROUTINE_0662:
132: 0x0662 [0x79] Oscarnot (ID: 17936386/0x0111B002) looks at LocalPlayer (Basic look)
133: 0x066C [0x29] REQ_SET_WAIT(priority=0x0F, entity_id=Oscarnot (ID: 17936386/0x0111B002), tag_num=0x15)
134: 0x0673 [0x2B] Oscarnot (ID: 17936386/0x0111B002) [7300*]:
     "I trust that you received the catalog containing our wares on offer?"
135: 0x067A [0x23] WAIT_FOR_DIALOG_INTERACTION
136: 0x067B [0x2B] Oscarnot (ID: 17936386/0x0111B002) [7301*]:
     "If you see an item that catches your fancy, please write down your bid on the included bid sheet."
137: 0x0682 [0x23] WAIT_FOR_DIALOG_INTERACTION
138: 0x0683 [0x29] REQ_SET_WAIT(priority=0x0F, entity_id=Oscarnot (ID: 17936386/0x0111B002), tag_num=0x16)
139: 0x068A [0x02] IF !(Work_Zone[9] == 3*) GOTO 0x06A4
140: 0x0692 [0x52] END_LOAD_SCHEDULER: End scheduler "s089" with entities [EventEntity, EventEntity], work=898*
141: 0x06A1 [0x01] GOTO 0x0701
142: 0x06A4 [0x02] IF !(Work_Zone[9] == 5*) GOTO 0x06BE
143: 0x06AC [0x52] END_LOAD_SCHEDULER: End scheduler "s129" with entities [EventEntity, EventEntity], work=898*
144: 0x06BB [0x01] GOTO 0x0701
145: 0x06BE [0x02] IF !(Work_Zone[9] == 6*) GOTO 0x06D8
146: 0x06C6 [0x52] END_LOAD_SCHEDULER: End scheduler "s129" with entities [EventEntity, EventEntity], work=898*
147: 0x06D5 [0x01] GOTO 0x0701
148: 0x06D8 [0x02] IF !(Work_Zone[9] == 8*) GOTO 0x06F2
149: 0x06E0 [0x52] END_LOAD_SCHEDULER: End scheduler "s089" with entities [EventEntity, EventEntity], work=898*
150: 0x06EF [0x01] GOTO 0x0701
151: 0x06F2 [0x52] END_LOAD_SCHEDULER: End scheduler "s138" with entities [EventEntity, EventEntity], work=898*

SUBROUTINE_0701:
152: 0x0701 [0x02] IF !(Work_Zone[9] == 3*) GOTO 0x071D
153: 0x0709 [0x45] LOAD_SCHEDULED_TASK: Load scheduler "s090" with entities [EventEntity, EventEntity], work=[898*, 0*]
154: 0x071A [0x01] GOTO 0x0782
155: 0x071D [0x02] IF !(Work_Zone[9] == 5*) GOTO 0x0739
156: 0x0725 [0x45] LOAD_SCHEDULED_TASK: Load scheduler "s136" with entities [EventEntity, EventEntity], work=[898*, 0*]
157: 0x0736 [0x01] GOTO 0x0782
158: 0x0739 [0x02] IF !(Work_Zone[9] == 6*) GOTO 0x0755
159: 0x0741 [0x45] LOAD_SCHEDULED_TASK: Load scheduler "s136" with entities [EventEntity, EventEntity], work=[898*, 0*]
160: 0x0752 [0x01] GOTO 0x0782
161: 0x0755 [0x02] IF !(Work_Zone[9] == 8*) GOTO 0x0771
162: 0x075D [0x45] LOAD_SCHEDULED_TASK: Load scheduler "s090" with entities [EventEntity, EventEntity], work=[898*, 0*]
163: 0x076E [0x01] GOTO 0x0782
164: 0x0771 [0x45] LOAD_SCHEDULED_TASK: Load scheduler "s139" with entities [EventEntity, EventEntity], work=[898*, 0*]

SUBROUTINE_0782:
165: 0x0782 [0x29] REQ_SET_WAIT(priority=0x0F, entity_id=Oscarnot (ID: 17936386/0x0111B002), tag_num=0x17)
166: 0x0789 [0x2B] Oscarnot (ID: 17936386/0x0111B002) [7302*]:
     "Also, please note that while we are still currently accepting bids, the cutoff time is rapidly approaching."
167: 0x0790 [0x23] WAIT_FOR_DIALOG_INTERACTION
168: 0x0791 [0x29] REQ_SET_WAIT(priority=0x0F, entity_id=Oscarnot (ID: 17936386/0x0111B002), tag_num=0x18)
169: 0x0798 [0x79] Oshasha (ID: 17936409/0x0111B019) looks at Oscarnot (ID: 17936386/0x0111B002) (Basic look)
170: 0x07A2 [0x6C] FADE_ENTITY_COLOR(entity_id=Oshasha (ID: 17936409/0x0111B019), end_alpha=128*, fade_time=1*)
171: 0x07AB [0x27] REQ_SET(priority=0x0F, entity_id=Oshasha (ID: 17936409/0x0111B019), tag_num=0x4A)
172: 0x07B2 [0x1C] WAIT(5* ticks)
173: 0x07B5 [0x02] IF !(Work_Zone[9] == 3*) GOTO 0x07CF
174: 0x07BD [0x52] END_LOAD_SCHEDULER: End scheduler "s090" with entities [EventEntity, EventEntity], work=898*
175: 0x07CC [0x01] GOTO 0x082C
176: 0x07CF [0x02] IF !(Work_Zone[9] == 5*) GOTO 0x07E9
177: 0x07D7 [0x52] END_LOAD_SCHEDULER: End scheduler "s136" with entities [EventEntity, EventEntity], work=898*
178: 0x07E6 [0x01] GOTO 0x082C
179: 0x07E9 [0x02] IF !(Work_Zone[9] == 6*) GOTO 0x0803
180: 0x07F1 [0x52] END_LOAD_SCHEDULER: End scheduler "s136" with entities [EventEntity, EventEntity], work=898*
181: 0x0800 [0x01] GOTO 0x082C
182: 0x0803 [0x02] IF !(Work_Zone[9] == 8*) GOTO 0x081D
183: 0x080B [0x52] END_LOAD_SCHEDULER: End scheduler "s090" with entities [EventEntity, EventEntity], work=898*
184: 0x081A [0x01] GOTO 0x082C
185: 0x081D [0x52] END_LOAD_SCHEDULER: End scheduler "s139" with entities [EventEntity, EventEntity], work=898*

SUBROUTINE_082C:
186: 0x082C [0x45] LOAD_SCHEDULED_TASK: Load scheduler "s091" with entities [EventEntity, EventEntity], work=[898*, 0*]
187: 0x083D [0x79] Oscarnot (ID: 17936386/0x0111B002) looks at Oshasha (ID: 17936409/0x0111B019) (Basic look)
188: 0x0847 [0x1C] WAIT(30* ticks)
189: 0x084A [0x5D] SET_MUSIC_VOLUME(volume=0*, fade_time=100*)
190: 0x084F [0x2B] Oshasha (ID: 17936409/0x0111B019) [7303*]:
     "I have the catalog and bid sheets, but I am not planning to bid on anything at the currentaru time."
191: 0x0856 [0x1C] WAIT(30* ticks)
192: 0x0859 [0x4A] LocalPlayer looks at Oshasha (ID: 17936409/0x0111B019)
193: 0x0862 [0x6F] WAIT_FRAME_DELAY: Yield until WaitTime reaches zero
194: 0x0863 [0x76] CHECK_ENTITY_RENDER_FLAGS: Wait until LocalPlayer Render.Flags0 and Render.Flags3 conditions are met
195: 0x0868 [0x52] END_LOAD_SCHEDULER: End scheduler "s091" with entities [EventEntity, EventEntity], work=898*
196: 0x0877 [0x02] IF !(Work_Zone[9] == 5*) GOTO 0x0893
197: 0x087F [0x45] LOAD_SCHEDULED_TASK: Load scheduler "s137" with entities [EventEntity, EventEntity], work=[898*, 0*]
198: 0x0890 [0x01] GOTO 0x08C0
199: 0x0893 [0x02] IF !(Work_Zone[9] == 6*) GOTO 0x08AF
200: 0x089B [0x45] LOAD_SCHEDULED_TASK: Load scheduler "s137" with entities [EventEntity, EventEntity], work=[898*, 0*]
201: 0x08AC [0x01] GOTO 0x08C0
202: 0x08AF [0x45] LOAD_SCHEDULED_TASK: Load scheduler "s093" with entities [EventEntity, EventEntity], work=[898*, 0*]

SUBROUTINE_08C0:
203: 0x08C0 [0x27] REQ_SET(priority=0x0F, entity_id=Oscarnot (ID: 17936386/0x0111B002), tag_num=0x11)
204: 0x08C7 [0x1C] WAIT(60* ticks)
205: 0x08CA [0x23] WAIT_FOR_DIALOG_INTERACTION
206: 0x08CB [0x2A] GET_REQ_LEVEL(level=15, entity_id=Oshasha (ID: 17936409/0x0111B019))
207: 0x08D1 [0x4A] LocalPlayer looks at Oshasha (ID: 17936409/0x0111B019)
208: 0x08DA [0x02] IF !(Work_Zone[9] == 5*) GOTO 0x08F4
209: 0x08E2 [0x52] END_LOAD_SCHEDULER: End scheduler "s137" with entities [EventEntity, EventEntity], work=898*
210: 0x08F1 [0x01] GOTO 0x091D
211: 0x08F4 [0x02] IF !(Work_Zone[9] == 6*) GOTO 0x090E
212: 0x08FC [0x52] END_LOAD_SCHEDULER: End scheduler "s137" with entities [EventEntity, EventEntity], work=898*
213: 0x090B [0x01] GOTO 0x091D
214: 0x090E [0x52] END_LOAD_SCHEDULER: End scheduler "s093" with entities [EventEntity, EventEntity], work=898*

SUBROUTINE_091D:
215: 0x091D [0x02] IF !(Work_Zone[9] == 5*) GOTO 0x0939
216: 0x0925 [0x45] LOAD_SCHEDULED_TASK: Load scheduler "s130" with entities [EventEntity, EventEntity], work=[898*, 0*]
217: 0x0936 [0x01] GOTO 0x0966
218: 0x0939 [0x02] IF !(Work_Zone[9] == 6*) GOTO 0x0955
219: 0x0941 [0x45] LOAD_SCHEDULED_TASK: Load scheduler "s130" with entities [EventEntity, EventEntity], work=[898*, 0*]
220: 0x0952 [0x01] GOTO 0x0966
221: 0x0955 [0x45] LOAD_SCHEDULED_TASK: Load scheduler "s092" with entities [EventEntity, EventEntity], work=[898*, 0*]

SUBROUTINE_0966:
222: 0x0966 [0x4A] Oshasha (ID: 17936409/0x0111B019) looks at LocalPlayer
223: 0x096F [0x6F] WAIT_FRAME_DELAY: Yield until WaitTime reaches zero
224: 0x0970 [0x76] CHECK_ENTITY_RENDER_FLAGS: Wait until Oshasha (ID: 17936409/0x0111B019) Render.Flags0 and Render.Flags3 conditions are met
225: 0x0975 [0x6F] WAIT_FRAME_DELAY: Yield until WaitTime reaches zero
226: 0x0976 [0x76] CHECK_ENTITY_RENDER_FLAGS: Wait until LocalPlayer Render.Flags0 and Render.Flags3 conditions are met
227: 0x097B [0x2B] Oshasha (ID: 17936409/0x0111B019) [7304*]:
     "More importantly, <Player>... Have you seen anyone suspicious yet?"
228: 0x0982 [0x23] WAIT_FOR_DIALOG_INTERACTION
229: 0x0983 [0x24] CREATE_DIALOG(message_id=7305*, default_option=0*, option_flags=0*)
     "Have you seen anyone suspicious? [Yes, I have./No, not really./I haven't spoken to everyone yet.]"
230: 0x098A [0x25] WAIT_DIALOG_SELECT()
231: 0x098B [0x02] IF !(Work_Zone[0] == 0*) GOTO 0x0A01
232: 0x0993 [0x6E] LocalPlayer uses emote 7*
233: 0x099A [0x99] Wait for LocalPlayer animation to complete
234: 0x099F [0x1C] WAIT(30* ticks)
235: 0x09A2 [0x29] REQ_SET_WAIT(priority=0x0F, entity_id=Oshasha (ID: 17936409/0x0111B019), tag_num=0x21)
236: 0x09A9 [0x1C] WAIT(60* ticks)
237: 0x09AC [0x2B] Oshasha (ID: 17936409/0x0111B019) [7306*]:
     "Seriously!? Who?"
238: 0x09B3 [0x23] WAIT_FOR_DIALOG_INTERACTION
239: 0x09B4 [0x29] REQ_SET_WAIT(priority=0x0F, entity_id=Oshasha (ID: 17936409/0x0111B019), tag_num=0x22)
240: 0x09BB [0x02] IF !(Work_Zone[9] == 5*) GOTO 0x09D5
241: 0x09C3 [0x52] END_LOAD_SCHEDULER: End scheduler "s130" with entities [EventEntity, EventEntity], work=898*
242: 0x09D2 [0x01] GOTO 0x09FE
243: 0x09D5 [0x02] IF !(Work_Zone[9] == 6*) GOTO 0x09EF
244: 0x09DD [0x52] END_LOAD_SCHEDULER: End scheduler "s130" with entities [EventEntity, EventEntity], work=898*
245: 0x09EC [0x01] GOTO 0x09FE
246: 0x09EF [0x52] END_LOAD_SCHEDULER: End scheduler "s092" with entities [EventEntity, EventEntity], work=898*

SUBROUTINE_09FE:
247: 0x09FE [0x01] GOTO 0x0B6C
248: 0x0A01 [0x02] IF !(Work_Zone[0] == 1*) GOTO 0x0AAF
249: 0x0A09 [0x6E] LocalPlayer uses emote 6*
250: 0x0A10 [0x99] Wait for LocalPlayer animation to complete
251: 0x0A15 [0x1C] WAIT(90* ticks)
252: 0x0A18 [0x02] IF !(Work_Zone[9] == 5*) GOTO 0x0A32
253: 0x0A20 [0x52] END_LOAD_SCHEDULER: End scheduler "s130" with entities [EventEntity, EventEntity], work=898*
254: 0x0A2F [0x01] GOTO 0x0A5B
255: 0x0A32 [0x02] IF !(Work_Zone[9] == 6*) GOTO 0x0A4C
256: 0x0A3A [0x52] END_LOAD_SCHEDULER: End scheduler "s130" with entities [EventEntity, EventEntity], work=898*
257: 0x0A49 [0x01] GOTO 0x0A5B
258: 0x0A4C [0x52] END_LOAD_SCHEDULER: End scheduler "s092" with entities [EventEntity, EventEntity], work=898*

SUBROUTINE_0A5B:
259: 0x0A5B [0x45] LOAD_SCHEDULED_TASK: Load scheduler "s094" with entities [EventEntity, EventEntity], work=[898*, 0*]
260: 0x0A6C [0x7B] Oshasha (ID: 17936409/0x0111B019) stops talking
261: 0x0A71 [0x29] REQ_SET_WAIT(priority=0x0F, entity_id=Oshasha (ID: 17936409/0x0111B019), tag_num=0x03)
262: 0x0A78 [0x2B] Oshasha (ID: 17936409/0x0111B019) [7307*]:
     "I talked to everyone here and nobody-wobody stuck out to me."
263: 0x0A7F [0x23] WAIT_FOR_DIALOG_INTERACTION
264: 0x0A80 [0x29] REQ_SET_WAIT(priority=0x0F, entity_id=Oshasha (ID: 17936409/0x0111B019), tag_num=0x04)
265: 0x0A87 [0x29] REQ_SET_WAIT(priority=0x0F, entity_id=Oshasha (ID: 17936409/0x0111B019), tag_num=0x05)
266: 0x0A8E [0x2B] Oshasha (ID: 17936409/0x0111B019) [7308*]:
     "Maybe Skhoh Undhreh has not arrived at the venue-wenue yet."
267: 0x0A95 [0x23] WAIT_FOR_DIALOG_INTERACTION
268: 0x0A96 [0x29] REQ_SET_WAIT(priority=0x0F, entity_id=Oshasha (ID: 17936409/0x0111B019), tag_num=0x06)
269: 0x0A9D [0x52] END_LOAD_SCHEDULER: End scheduler "s094" with entities [EventEntity, EventEntity], work=898*
270: 0x0AAC [0x01] GOTO 0x0B6C
271: 0x0AAF [0x02] IF !(Work_Zone[0] == 2*) GOTO 0x0B6C
272: 0x0AB7 [0x6E] LocalPlayer uses emote 6*
273: 0x0ABE [0x99] Wait for LocalPlayer animation to complete
274: 0x0AC3 [0x1C] WAIT(90* ticks)
275: 0x0AC6 [0x02] IF !(Work_Zone[9] == 5*) GOTO 0x0AE0
276: 0x0ACE [0x52] END_LOAD_SCHEDULER: End scheduler "s130" with entities [EventEntity, EventEntity], work=898*
277: 0x0ADD [0x01] GOTO 0x0B09
278: 0x0AE0 [0x02] IF !(Work_Zone[9] == 6*) GOTO 0x0AFA
279: 0x0AE8 [0x52] END_LOAD_SCHEDULER: End scheduler "s130" with entities [EventEntity, EventEntity], work=898*
280: 0x0AF7 [0x01] GOTO 0x0B09
281: 0x0AFA [0x52] END_LOAD_SCHEDULER: End scheduler "s092" with entities [EventEntity, EventEntity], work=898*

SUBROUTINE_0B09:
282: 0x0B09 [0x45] LOAD_SCHEDULED_TASK: Load scheduler "s094" with entities [EventEntity, EventEntity], work=[898*, 0*]
283: 0x0B1A [0x7B] Oshasha (ID: 17936409/0x0111B019) stops talking
284: 0x0B1F [0x29] REQ_SET_WAIT(priority=0x0F, entity_id=Oshasha (ID: 17936409/0x0111B019), tag_num=0x03)
285: 0x0B26 [0x6E] LocalPlayer uses emote 6*
286: 0x0B2D [0x99] Wait for LocalPlayer animation to complete
287: 0x0B32 [0x1C] WAIT(90* ticks)
288: 0x0B35 [0x2B] Oshasha (ID: 17936409/0x0111B019) [7307*]:
     "I talked to everyone here and nobody-wobody stuck out to me."
289: 0x0B3C [0x23] WAIT_FOR_DIALOG_INTERACTION
290: 0x0B3D [0x29] REQ_SET_WAIT(priority=0x0F, entity_id=Oshasha (ID: 17936409/0x0111B019), tag_num=0x04)
291: 0x0B44 [0x29] REQ_SET_WAIT(priority=0x0F, entity_id=Oshasha (ID: 17936409/0x0111B019), tag_num=0x05)
292: 0x0B4B [0x2B] Oshasha (ID: 17936409/0x0111B019) [7308*]:
     "Maybe Skhoh Undhreh has not arrived at the venue-wenue yet."
293: 0x0B52 [0x23] WAIT_FOR_DIALOG_INTERACTION
294: 0x0B53 [0x29] REQ_SET_WAIT(priority=0x0F, entity_id=Oshasha (ID: 17936409/0x0111B019), tag_num=0x06)
295: 0x0B5A [0x52] END_LOAD_SCHEDULER: End scheduler "s094" with entities [EventEntity, EventEntity], work=898*
296: 0x0B69 [0x01] GOTO 0x0B6C

SUBROUTINE_0B6C:
297: 0x0B6C [0x2A] GET_REQ_LEVEL(level=15, entity_id=Oscarnot (ID: 17936386/0x0111B002))
298: 0x0B72 [0x5D] SET_MUSIC_VOLUME(volume=0*, fade_time=100*)
299: 0x0B77 [0x02] IF !(ExtData[1]->WorkLocal[2] == 1*) GOTO 0x0BA6
300: 0x0B7F [0x45] LOAD_SCHEDULED_TASK: Load scheduler "s094" with entities [EventEntity, EventEntity], work=[898*, 0*]
301: 0x0B90 [0x1A] CALL_SUBROUTINE(address=0x0043)
302: 0x0B93 [0x48] [System] [6392*]:
     "Obtained $0 gil."
303: 0x0B96 [0x23] WAIT_FOR_DIALOG_INTERACTION
304: 0x0B97 [0x52] END_LOAD_SCHEDULER: End scheduler "s094" with entities [EventEntity, EventEntity], work=898*
305: 0x0BA6 [0x6C] FADE_ENTITY_COLOR(entity_id=Gloom Phantom (ID: 17936411/0x0111B01B), end_alpha=128*, fade_time=1*)
306: 0x0BAF [0x6C] FADE_ENTITY_COLOR(entity_id=Magh Bihu (ID: 17936412/0x0111B01C), end_alpha=128*, fade_time=1*)
307: 0x0BB8 [0x6C] FADE_ENTITY_COLOR(entity_id=Dazbog (ID: 17936413/0x0111B01D), end_alpha=128*, fade_time=1*)
308: 0x0BC1 [0x6C] FADE_ENTITY_COLOR(entity_id=Zemerine (ID: 17936388/0x0111B004), end_alpha=0*, fade_time=1*)
309: 0x0BCA [0x6C] FADE_ENTITY_COLOR(entity_id=Oshasha (ID: 17936409/0x0111B019), end_alpha=128*, fade_time=1*)
310: 0x0BD3 [0x6C] FADE_ENTITY_COLOR(entity_id=Rabid Chameleon (ID: 17936414/0x0111B01E), end_alpha=128*, fade_time=1*)
311: 0x0BDC [0x5C] MUSIC_CONTROL: Set Idle (Day) music to song 28*
312: 0x0BE0 [0x5C] MUSIC_CONTROL: Set Idle (Night) music to song 28*
313: 0x0BE4 [0x9A] WAIT_MUSIC_SERVER()
314: 0x0BE5 [0x5D] SET_MUSIC_VOLUME(volume=127*, fade_time=1*)
315: 0x0BEA [0x27] REQ_SET(priority=0x0F, entity_id=Gloom Phantom (ID: 17936411/0x0111B01B), tag_num=0x4C)
316: 0x0BF1 [0x27] REQ_SET(priority=0x0F, entity_id=Magh Bihu (ID: 17936412/0x0111B01C), tag_num=0x14)
317: 0x0BF8 [0x27] REQ_SET(priority=0x0F, entity_id=Dazbog (ID: 17936413/0x0111B01D), tag_num=0x11)
318: 0x0BFF [0x1C] WAIT(20* ticks)
319: 0x0C02 [0x45] LOAD_SCHEDULED_TASK: Load scheduler "s095" with entities [EventEntity, EventEntity], work=[898*, 0*]
320: 0x0C13 [0xBA] SET_ENTITY_POSITION(entity_id=Reglert (ID: 17936390/0x0111B006), pos_x=-36.984*, pos_z=44.688*, pos_y=-0.649*, direction=72.5*)
321: 0x0C20 [0x1C] WAIT(20* ticks)
322: 0x0C23 [0xBA] SET_ENTITY_POSITION(entity_id=Oshasha (ID: 17936409/0x0111B019), pos_x=-38.574*, pos_z=29.970*, pos_y=1.338*, direction=1.7*)
323: 0x0C30 [0x27] REQ_SET(priority=0x0F, entity_id=Dusky Forest (ID: 17936389/0x0111B005), tag_num=0x23)
324: 0x0C37 [0x1C] WAIT(20* ticks)
325: 0x0C3A [0x1C] WAIT(10* ticks)
326: 0x0C3D [0x29] REQ_SET_WAIT(priority=0x0F, entity_id=Oshasha (ID: 17936409/0x0111B019), tag_num=0x21)
327: 0x0C44 [0x1C] WAIT(10* ticks)
328: 0x0C47 [0x52] END_LOAD_SCHEDULER: End scheduler "s095" with entities [EventEntity, EventEntity], work=898*
329: 0x0C56 [0x45] LOAD_SCHEDULED_TASK: Load scheduler "s099" with entities [EventEntity, EventEntity], work=[898*, 0*]
330: 0x0C67 [0x45] LOAD_SCHEDULED_TASK: Load scheduler "8160" with entities [EventEntity, EventEntity], work=[898*, 0*]
331: 0x0C78 [0x4A] LocalPlayer looks at Gloom Phantom (ID: 17936411/0x0111B01B)
332: 0x0C81 [0x2B] Oshasha (ID: 17936409/0x0111B019) [7309*]:
     "Wh-whataru is this!?"
333: 0x0C88 [0x23] WAIT_FOR_DIALOG_INTERACTION
334: 0x0C89 [0x6C] FADE_ENTITY_COLOR(entity_id=Falbala (ID: 17936415/0x0111B01F), end_alpha=128*, fade_time=1*)
335: 0x0C92 [0x27] REQ_SET(priority=0x0F, entity_id=Falbala (ID: 17936415/0x0111B01F), tag_num=0x22)
336: 0x0C99 [0x4A] Wuger (ID: 17936391/0x0111B007) looks at Gloom Phantom (ID: 17936411/0x0111B01B)
337: 0x0CA2 [0x4A] Joliese (ID: 17936392/0x0111B008) looks at Gloom Phantom (ID: 17936411/0x0111B01B)
338: 0x0CAB [0x2A] GET_REQ_LEVEL(level=15, entity_id=Gloom Phantom (ID: 17936411/0x0111B01B))
339: 0x0CB1 [0x2A] GET_REQ_LEVEL(level=15, entity_id=Dazbog (ID: 17936413/0x0111B01D))
340: 0x0CB7 [0x27] REQ_SET(priority=0x0F, entity_id=Gloom Phantom (ID: 17936411/0x0111B01B), tag_num=0x4D)
341: 0x0CBE [0x27] REQ_SET(priority=0x0F, entity_id=Dazbog (ID: 17936413/0x0111B01D), tag_num=0x12)
342: 0x0CC5 [0x6C] FADE_ENTITY_COLOR(entity_id=Zemerine (ID: 17936388/0x0111B004), end_alpha=128*, fade_time=1*)
343: 0x0CCE [0x1C] WAIT(3* ticks)
344: 0x0CD1 [0x52] END_LOAD_SCHEDULER: End scheduler "s099" with entities [EventEntity, EventEntity], work=898*
345: 0x0CE0 [0x45] LOAD_SCHEDULED_TASK: Load scheduler "s097" with entities [EventEntity, EventEntity], work=[898*, 0*]
346: 0x0CF1 [0x27] REQ_SET(priority=0x0F, entity_id=Rabid Chameleon (ID: 17936414/0x0111B01E), tag_num=0x1F)
347: 0x0CF8 [0x27] REQ_SET(priority=0x0F, entity_id=Zemerine (ID: 17936388/0x0111B004), tag_num=0x3D)
348: 0x0CFF [0x1C] WAIT(5* ticks)
349: 0x0D02 [0xBA] SET_ENTITY_POSITION(entity_id=Andelmine (ID: 17936387/0x0111B003), pos_x=-43.279*, pos_z=27.539*, pos_y=1.349*, direction=293.6*)
350: 0x0D0F [0x79] Andelmine (ID: 17936387/0x0111B003) looks at Rabid Chameleon (ID: 17936414/0x0111B01E) (Basic look)
351: 0x0D19 [0x79] Oscarnot (ID: 17936386/0x0111B002) looks at Rabid Chameleon (ID: 17936414/0x0111B01E) (Basic look)
352: 0x0D23 [0x2B] Rabid Chameleon (ID: 17936414/0x0111B01E) [7310*]:
     "Hey, stop right there!"
353: 0x0D2A [0x23] WAIT_FOR_DIALOG_INTERACTION
354: 0x0D2B [0x4B] UPDATE_ENTITY_YAW(entity=Estevanie (ID: 17936393/0x0111B009), yaw=9.4*)
355: 0x0D32 [0x1C] WAIT(40* ticks)
356: 0x0D35 [0x45] LOAD_SCHEDULED_TASK: Load scheduler "0011" with entities [EventEntity, EventEntity], work=[898*, 0*]
357: 0x0D46 [0x6F] WAIT_FRAME_DELAY: Yield until WaitTime reaches zero
358: 0x0D47 [0x76] CHECK_ENTITY_RENDER_FLAGS: Wait until Estevanie (ID: 17936393/0x0111B009) Render.Flags0 and Render.Flags3 conditions are met
359: 0x0D4C [0x29] REQ_SET_WAIT(priority=0x0F, entity_id=Estevanie (ID: 17936393/0x0111B009), tag_num=0x07)
360: 0x0D53 [0x6F] WAIT_FRAME_DELAY: Yield until WaitTime reaches zero
361: 0x0D54 [0x76] CHECK_ENTITY_RENDER_FLAGS: Wait until Wuger (ID: 17936391/0x0111B007) Render.Flags0 and Render.Flags3 conditions are met
362: 0x0D59 [0x6F] WAIT_FRAME_DELAY: Yield until WaitTime reaches zero
363: 0x0D5A [0x76] CHECK_ENTITY_RENDER_FLAGS: Wait until Joliese (ID: 17936392/0x0111B008) Render.Flags0 and Render.Flags3 conditions are met
364: 0x0D5F [0x2A] GET_REQ_LEVEL(level=15, entity_id=Dusky Forest (ID: 17936389/0x0111B005))
365: 0x0D65 [0x1C] WAIT(3* ticks)
366: 0x0D68 [0x52] END_LOAD_SCHEDULER: End scheduler "s097" with entities [EventEntity, EventEntity], work=898*
367: 0x0D77 [0x45] LOAD_SCHEDULED_TASK: Load scheduler "s096" with entities [EventEntity, EventEntity], work=[898*, 0*]
368: 0x0D88 [0x6E] Dusky Forest (ID: 17936389/0x0111B005) uses emote 10*
369: 0x0D8F [0x99] Wait for Dusky Forest (ID: 17936389/0x0111B005) animation to complete
370: 0x0D94 [0x2A] GET_REQ_LEVEL(level=15, entity_id=Gloom Phantom (ID: 17936411/0x0111B01B))
371: 0x0D9A [0x4A] LocalPlayer looks at Gloom Phantom (ID: 17936411/0x0111B01B)
372: 0x0DA3 [0x4A] Oshasha (ID: 17936409/0x0111B019) looks at Gloom Phantom (ID: 17936411/0x0111B01B)
373: 0x0DAC [0x1C] WAIT(20* ticks)
374: 0x0DAF [0x4A] Gloom Phantom (ID: 17936411/0x0111B01B) looks at Falbala (ID: 17936415/0x0111B01F)
375: 0x0DB8 [0x6F] WAIT_FRAME_DELAY: Yield until WaitTime reaches zero
376: 0x0DB9 [0x76] CHECK_ENTITY_RENDER_FLAGS: Wait until Gloom Phantom (ID: 17936411/0x0111B01B) Render.Flags0 and Render.Flags3 conditions are met
377: 0x0DBE [0x29] REQ_SET_WAIT(priority=0x0F, entity_id=Gloom Phantom (ID: 17936411/0x0111B01B), tag_num=0x17)
378: 0x0DC5 [0x45] LOAD_SCHEDULED_TASK: Load scheduler "1015" with entities [EventEntity, EventEntity], work=[898*, 0*]
379: 0x0DD6 [0x6F] WAIT_FRAME_DELAY: Yield until WaitTime reaches zero
380: 0x0DD7 [0x76] CHECK_ENTITY_RENDER_FLAGS: Wait until LocalPlayer Render.Flags0 and Render.Flags3 conditions are met
381: 0x0DDC [0x6F] WAIT_FRAME_DELAY: Yield until WaitTime reaches zero
382: 0x0DDD [0x76] CHECK_ENTITY_RENDER_FLAGS: Wait until Oshasha (ID: 17936409/0x0111B019) Render.Flags0 and Render.Flags3 conditions are met
383: 0x0DE2 [0x52] END_LOAD_SCHEDULER: End scheduler "s096" with entities [EventEntity, EventEntity], work=898*
384: 0x0DF1 [0x45] LOAD_SCHEDULED_TASK: Load scheduler "s098" with entities [EventEntity, EventEntity], work=[898*, 0*]
385: 0x0E02 [0x27] REQ_SET(priority=0x0F, entity_id=Oscarnot (ID: 17936386/0x0111B002), tag_num=0x11)
386: 0x0E09 [0x2A] GET_REQ_LEVEL(level=15, entity_id=Dazbog (ID: 17936413/0x0111B01D))
387: 0x0E0F [0x29] REQ_SET_WAIT(priority=0x0F, entity_id=Dazbog (ID: 17936413/0x0111B01D), tag_num=0x0E)
388: 0x0E16 [0x1C] WAIT(90* ticks)
389: 0x0E19 [0x29] REQ_SET_WAIT(priority=0x0F, entity_id=Estevanie (ID: 17936393/0x0111B009), tag_num=0x08)
390: 0x0E20 [0x29] REQ_SET_WAIT(priority=0x0F, entity_id=Estevanie (ID: 17936393/0x0111B009), tag_num=0x09)
391: 0x0E27 [0x27] REQ_SET(priority=0x0F, entity_id=LocalPlayer, tag_num=0x05)
392: 0x0E2E [0x29] REQ_SET_WAIT(priority=0x0F, entity_id=Oshasha (ID: 17936409/0x0111B019), tag_num=0x23)
393: 0x0E35 [0x52] END_LOAD_SCHEDULER: End scheduler "s098" with entities [EventEntity, EventEntity], work=898*
394: 0x0E44 [0x45] LOAD_SCHEDULED_TASK: Load scheduler "s100" with entities [EventEntity, EventEntity], work=[898*, 0*]
395: 0x0E55 [0x2A] GET_REQ_LEVEL(level=15, entity_id=Rabid Chameleon (ID: 17936414/0x0111B01E))
396: 0x0E5B [0x7B] Rabid Chameleon (ID: 17936414/0x0111B01E) stops talking
397: 0x0E60 [0x1C] WAIT(90* ticks)
398: 0x0E63 [0x29] REQ_SET_WAIT(priority=0x0F, entity_id=Rabid Chameleon (ID: 17936414/0x0111B01E), tag_num=0x20)
399: 0x0E6A [0x29] REQ_SET_WAIT(priority=0x0F, entity_id=Gloom Phantom (ID: 17936411/0x0111B01B), tag_num=0x18)
400: 0x0E71 [0x6E] Rabid Chameleon (ID: 17936414/0x0111B01E) uses emote 7*
401: 0x0E78 [0x99] Wait for Rabid Chameleon (ID: 17936414/0x0111B01E) animation to complete
402: 0x0E7D [0x29] REQ_SET_WAIT(priority=0x0F, entity_id=Falbala (ID: 17936415/0x0111B01F), tag_num=0x15)
403: 0x0E84 [0x29] REQ_SET_WAIT(priority=0x0F, entity_id=Oshasha (ID: 17936409/0x0111B019), tag_num=0x24)
404: 0x0E8B [0x2B] Rabid Chameleon (ID: 17936414/0x0111B01E) [7311*]:
     "Please accept my apologies for the commotion."
405: 0x0E92 [0x1C] WAIT(20* ticks)
406: 0x0E95 [0x79] LocalPlayer looks at Rabid Chameleon (ID: 17936414/0x0111B01E) (Basic look)
407: 0x0E9F [0x4A] Oshasha (ID: 17936409/0x0111B019) looks at Rabid Chameleon (ID: 17936414/0x0111B01E)
408: 0x0EA8 [0x4A] Gama-Shama (ID: 17936407/0x0111B017) looks at Rabid Chameleon (ID: 17936414/0x0111B01E)
409: 0x0EB1 [0x6F] WAIT_FRAME_DELAY: Yield until WaitTime reaches zero
410: 0x0EB2 [0x76] CHECK_ENTITY_RENDER_FLAGS: Wait until Oshasha (ID: 17936409/0x0111B019) Render.Flags0 and Render.Flags3 conditions are met
411: 0x0EB7 [0x6F] WAIT_FRAME_DELAY: Yield until WaitTime reaches zero
412: 0x0EB8 [0x76] CHECK_ENTITY_RENDER_FLAGS: Wait until Gama-Shama (ID: 17936407/0x0111B017) Render.Flags0 and Render.Flags3 conditions are met
413: 0x0EBD [0x23] WAIT_FOR_DIALOG_INTERACTION
414: 0x0EBE [0x2A] GET_REQ_LEVEL(level=15, entity_id=Magh Bihu (ID: 17936412/0x0111B01C))
415: 0x0EC4 [0x4B] UPDATE_ENTITY_YAW(entity=Rabid Chameleon (ID: 17936414/0x0111B01E), yaw=1.2*)
416: 0x0ECB [0x6F] WAIT_FRAME_DELAY: Yield until WaitTime reaches zero
417: 0x0ECC [0x76] CHECK_ENTITY_RENDER_FLAGS: Wait until Rabid Chameleon (ID: 17936414/0x0111B01E) Render.Flags0 and Render.Flags3 conditions are met
418: 0x0ED1 [0x2A] GET_REQ_LEVEL(level=15, entity_id=LocalPlayer)
419: 0x0ED7 [0x52] END_LOAD_SCHEDULER: End scheduler "s100" with entities [EventEntity, EventEntity], work=898*
420: 0x0EE6 [0x45] LOAD_SCHEDULED_TASK: Load scheduler "s101" with entities [EventEntity, EventEntity], work=[898*, 0*]
421: 0x0EF7 [0x79] Rabid Chameleon (ID: 17936414/0x0111B01E) looks at Gloom Phantom (ID: 17936411/0x0111B01B) (Basic look)
422: 0x0F01 [0x1C] WAIT(60* ticks)
423: 0x0F04 [0x29] REQ_SET_WAIT(priority=0x0F, entity_id=Magh Bihu (ID: 17936412/0x0111B01C), tag_num=0x0F)
424: 0x0F0B [0x29] REQ_SET_WAIT(priority=0x0F, entity_id=Dazbog (ID: 17936413/0x0111B01D), tag_num=0x0F)
425: 0x0F12 [0x29] REQ_SET_WAIT(priority=0x0F, entity_id=Dazbog (ID: 17936413/0x0111B01D), tag_num=0x0A)
426: 0x0F19 [0x4A] Oshasha (ID: 17936409/0x0111B019) looks at Dazbog (ID: 17936413/0x0111B01D)
427: 0x0F22 [0x2B] Rabid Chameleon (ID: 17936414/0x0111B01E) [7312*]:
     "Please be assured that we will expunge these beastmen with the utmost haste."
428: 0x0F29 [0x23] WAIT_FOR_DIALOG_INTERACTION
429: 0x0F2A [0x6F] WAIT_FRAME_DELAY: Yield until WaitTime reaches zero
430: 0x0F2B [0x76] CHECK_ENTITY_RENDER_FLAGS: Wait until Oshasha (ID: 17936409/0x0111B019) Render.Flags0 and Render.Flags3 conditions are met
431: 0x0F30 [0x29] REQ_SET_WAIT(priority=0x0F, entity_id=Oshasha (ID: 17936409/0x0111B019), tag_num=0x07)
432: 0x0F37 [0x2B] Oshasha (ID: 17936409/0x0111B019) [7313*]:
     "Expunge? What do you mean by thataru?"
433: 0x0F3E [0x1C] WAIT(20* ticks)
434: 0x0F41 [0x79] Rabid Chameleon (ID: 17936414/0x0111B01E) looks at Oshasha (ID: 17936409/0x0111B019) (Basic look)
435: 0x0F4B [0x23] WAIT_FOR_DIALOG_INTERACTION
436: 0x0F4C [0x2A] GET_REQ_LEVEL(level=15, entity_id=Oscarnot (ID: 17936386/0x0111B002))
437: 0x0F52 [0x52] END_LOAD_SCHEDULER: End scheduler "s101" with entities [EventEntity, EventEntity], work=898*
438: 0x0F61 [0x45] LOAD_SCHEDULED_TASK: Load scheduler "s102" with entities [EventEntity, EventEntity], work=[898*, 0*]
439: 0x0F72 [0x4A] Gloom Phantom (ID: 17936411/0x0111B01B) looks at LocalPlayer
440: 0x0F7B [0x29] REQ_SET_WAIT(priority=0x0F, entity_id=Gloom Phantom (ID: 17936411/0x0111B01B), tag_num=0x19)
441: 0x0F82 [0x79] Oshasha (ID: 17936409/0x0111B019) looks at Rabid Chameleon (ID: 17936414/0x0111B01E) (Basic look)
442: 0x0F8C [0x2B] Rabid Chameleon (ID: 17936414/0x0111B01E) [7314*]:
     "They do not have an invitation, so we will simply remove them from the venue."
443: 0x0F93 [0x29] REQ_SET_WAIT(priority=0x0F, entity_id=Oshasha (ID: 17936409/0x0111B019), tag_num=0x08)
444: 0x0F9A [0x23] WAIT_FOR_DIALOG_INTERACTION
445: 0x0F9B [0x29] REQ_SET_WAIT(priority=0x0F, entity_id=Gloom Phantom (ID: 17936411/0x0111B01B), tag_num=0x1A)
446: 0x0FA2 [0x6F] WAIT_FRAME_DELAY: Yield until WaitTime reaches zero
447: 0x0FA3 [0x76] CHECK_ENTITY_RENDER_FLAGS: Wait until Gloom Phantom (ID: 17936411/0x0111B01B) Render.Flags0 and Render.Flags3 conditions are met
448: 0x0FA8 [0x52] END_LOAD_SCHEDULER: End scheduler "s102" with entities [EventEntity, EventEntity], work=898*
449: 0x0FB7 [0x45] LOAD_SCHEDULED_TASK: Load scheduler "s103" with entities [EventEntity, EventEntity], work=[898*, 0*]
450: 0x0FC8 [0x79] LocalPlayer looks at Gloom Phantom (ID: 17936411/0x0111B01B) (Basic look)
451: 0x0FD2 [0x79] Rabid Chameleon (ID: 17936414/0x0111B01E) looks at Gloom Phantom (ID: 17936411/0x0111B01B) (Basic look)
