# 17936407 - Gama-Shama

## Common Data

| Field            | Value                  |
|------------------|------------------------|
| Zone             | Silver Knife (ID: 283) |
| Block Size       | 3252 bytes             |
| Total Events     | 92                     |
| References Count | 92                     |

## List of Events

| Event ID                   | Entrypoint   |   Size |   Instructions |
|----------------------------|--------------|--------|----------------|
| [65535](#event-65535)      | 0x0000       |      1 |              1 |
| [22](#event-22)            | 0x0001       |     42 |             14 |
| [23](#event-23)            | 0x002B       |     51 |             17 |
| [24](#event-24)            | 0x005E       |     39 |             11 |
| [25](#event-25)            | 0x0085       |    466 |             88 |
| [27](#event-27)            | 0x0257       |     48 |             14 |
| [36](#event-36)            | 0x0287       |     48 |             14 |
| [37](#event-37)            | 0x02B7       |     48 |             14 |
| [26](#event-26)            | 0x02E7       |     44 |             12 |
| [32](#event-32)            | 0x0313       |     82 |             22 |
| [33](#event-33)            | 0x0365       |     75 |             23 |
| [34](#event-34)            | 0x03B0       |     67 |             19 |
| [35](#event-35)            | 0x03F3       |     67 |             19 |
| [28](#event-28)            | 0x0436       |     44 |             12 |
| [9](#event-9)              | 0x0462       |      1 |              1 |
| [11](#event-11)            | 0x0463       |      1 |              1 |
| [12](#event-12)            | 0x0464       |      1 |              1 |
| [21](#event-21)            | 0x0465       |      1 |              1 |
| [65535.1](#event-655351)   | 0x0466       |     16 |              2 |
| [65535.2](#event-655352)   | 0x0476       |     42 |              4 |
| [65535.3](#event-655353)   | 0x04A0       |     16 |              2 |
| [65535.4](#event-655354)   | 0x04B0       |     14 |              2 |
| [65535.5](#event-655355)   | 0x04BE       |     16 |              2 |
| [65535.6](#event-655356)   | 0x04CE       |     14 |              2 |
| [65535.7](#event-655357)   | 0x04DC       |     16 |              2 |
| [65535.8](#event-655358)   | 0x04EC       |     14 |              2 |
| [65535.9](#event-655359)   | 0x04FA       |     16 |              2 |
| [65535.10](#event-6553510) | 0x050A       |     14 |              2 |
| [65535.11](#event-6553511) | 0x0518       |     16 |              2 |
| [65535.12](#event-6553512) | 0x0528       |     14 |              2 |
| [65535.13](#event-6553513) | 0x0536       |     16 |              2 |
| [65535.14](#event-6553514) | 0x0546       |     14 |              2 |
| [65535.15](#event-6553515) | 0x0554       |     16 |              2 |
| [65535.16](#event-6553516) | 0x0564       |     14 |              2 |
| [65535.17](#event-6553517) | 0x0572       |     16 |              2 |
| [65535.18](#event-6553518) | 0x0582       |     14 |              2 |
| [65535.19](#event-6553519) | 0x0590       |     16 |              2 |
| [65535.20](#event-6553520) | 0x05A0       |     22 |              4 |
| [65535.21](#event-6553521) | 0x05B6       |     16 |              2 |
| [65535.22](#event-6553522) | 0x05C6       |     14 |              2 |
| [65535.23](#event-6553523) | 0x05D4       |     16 |              2 |
| [65535.24](#event-6553524) | 0x05E4       |     14 |              2 |
| [65535.25](#event-6553525) | 0x05F2       |     16 |              2 |
| [65535.26](#event-6553526) | 0x0602       |     22 |              4 |
| [65535.27](#event-6553527) | 0x0618       |     16 |              2 |
| [65535.28](#event-6553528) | 0x0628       |     14 |              2 |
| [65535.29](#event-6553529) | 0x0636       |     16 |              2 |
| [65535.30](#event-6553530) | 0x0646       |     14 |              2 |
| [65535.31](#event-6553531) | 0x0654       |     16 |              2 |
| [65535.32](#event-6553532) | 0x0664       |     14 |              2 |
| [65535.33](#event-6553533) | 0x0672       |     16 |              2 |
| [65535.34](#event-6553534) | 0x0682       |     14 |              2 |
| [65535.35](#event-6553535) | 0x0690       |     16 |              2 |
| [65535.36](#event-6553536) | 0x06A0       |     14 |              2 |
| [65535.37](#event-6553537) | 0x06AE       |     16 |              2 |
| [65535.38](#event-6553538) | 0x06BE       |     14 |              2 |
| [65535.39](#event-6553539) | 0x06CC       |     16 |              2 |
| [65535.40](#event-6553540) | 0x06DC       |     14 |              2 |
| [65535.41](#event-6553541) | 0x06EA       |     16 |              2 |
| [65535.42](#event-6553542) | 0x06FA       |     22 |              4 |
| [65535.43](#event-6553543) | 0x0710       |     44 |              4 |
| [65535.44](#event-6553544) | 0x073C       |     16 |              2 |
| [65535.45](#event-6553545) | 0x074C       |     14 |              2 |
| [65535.46](#event-6553546) | 0x075A       |     18 |              4 |
| [65535.47](#event-6553547) | 0x076C       |     18 |              4 |
| [65535.48](#event-6553548) | 0x077E       |     18 |              4 |
| [65535.49](#event-6553549) | 0x0790       |     18 |              4 |
| [65535.50](#event-6553550) | 0x07A2       |     18 |              4 |
| [65535.51](#event-6553551) | 0x07B4       |     27 |              3 |
| [65535.52](#event-6553552) | 0x07CF       |      9 |              3 |
| [65535.53](#event-6553553) | 0x07D8       |     16 |              2 |
| [65535.54](#event-6553554) | 0x07E8       |     14 |              2 |
| [65535.55](#event-6553555) | 0x07F6       |     16 |              2 |
| [65535.56](#event-6553556) | 0x0806       |     14 |              2 |
| [65535.57](#event-6553557) | 0x0814       |     16 |              2 |
| [65535.58](#event-6553558) | 0x0824       |     14 |              2 |
| [65535.59](#event-6553559) | 0x0832       |     16 |              2 |
| [65535.60](#event-6553560) | 0x0842       |     14 |              2 |
| [65535.61](#event-6553561) | 0x0850       |     16 |              2 |
| [65535.62](#event-6553562) | 0x0860       |     14 |              2 |
| [65535.63](#event-6553563) | 0x086E       |     16 |              2 |
| [65535.64](#event-6553564) | 0x087E       |     14 |              2 |
| [65535.65](#event-6553565) | 0x088C       |     16 |              2 |
| [65535.66](#event-6553566) | 0x089C       |     14 |              2 |
| [65535.67](#event-6553567) | 0x08AA       |     16 |              2 |
| [65535.68](#event-6553568) | 0x08BA       |     14 |              2 |
| [65535.69](#event-6553569) | 0x08C8       |     16 |              2 |
| [65535.70](#event-6553570) | 0x08D8       |     14 |              2 |
| [65535.71](#event-6553571) | 0x08E6       |     16 |              2 |
| [65535.72](#event-6553572) | 0x08F6       |     14 |              2 |
| [65535.73](#event-6553573) | 0x0904       |     16 |              2 |
| [65535.74](#event-6553574) | 0x0914       |    174 |             30 |

## DAT References (imed_data)

|   Index | Hex Value   |   Dec Value |
|---------|-------------|-------------|
|       0 | 0x1C57      |        7255 |
|       1 | 0x1C58      |        7256 |
|       2 | 0x1C59      |        7257 |
|       3 | 0x1C5A      |        7258 |
|       4 | 0x1C5B      |        7259 |
|       5 | 0x2710      |       10000 |
|       6 | 0x1C5C      |        7260 |
|       7 | 0x1C5D      |        7261 |
|       8 | 0x1C5E      |        7262 |
|       9 | 0x0000      |           0 |
|      10 | 0x0001      |           1 |
|      11 | 0x0006      |           6 |
|      12 | 0x1C69      |        7273 |
|      13 | 0x1C5F      |        7263 |
|      14 | 0x0010      |          16 |
|      15 | 0x1C60      |        7264 |
|      16 | 0x00FF      |         255 |
|      17 | 0x1C61      |        7265 |
|      18 | 0x1C62      |        7266 |
|      19 | 0x1C63      |        7267 |
|      20 | 0x1C65      |        7269 |
|      21 | 0x000F      |          15 |
|      22 | 0x1C64      |        7268 |
|      23 | 0x1C6D      |        7277 |
|      24 | 0x0002      |           2 |
|      25 | 0x1C66      |        7270 |
|      26 | 0x1C67      |        7271 |
|      27 | 0x1C73      |        7283 |
|      28 | 0x1C74      |        7284 |
|      29 | 0x26C9      |        9929 |
|      30 | 0x1C6A      |        7274 |
|      31 | 0x1C6B      |        7275 |
|      32 | 0x1C6C      |        7276 |
|      33 | 0x0007      |           7 |
|      34 | 0x1C6F      |        7279 |
|      35 | 0x1C70      |        7280 |
|      36 | 0x1C72      |        7282 |
|      37 | 0x000A      |          10 |
|      38 | 0x1C71      |        7281 |
|      39 | 0x000B      |          11 |
|      40 | 0x1C6E      |        7278 |
|      41 | 0x0028      |          40 |
|      42 | 0x0029      |          41 |
|      43 | 0x003C      |          60 |
|      44 | 0x002A      |          42 |
|      45 | 0x0008      |           8 |
|      46 | 0x000D      |          13 |
|      47 | 0x002B      |          43 |
|      48 | 0x01AE      |         430 |
|      49 | 0x01AF      |         431 |
|      50 | 0x002E      |          46 |
|      51 | 0x00BD      |         189 |
|      52 | 0x541B      |       21531 |
|      53 | 0x5452      |       21586 |
|      54 | 0x548A      |       21642 |
|      55 | 0x5492      |       21650 |
|      56 | 0x54DE      |       21726 |
|      57 | 0x5515      |       21781 |
|      58 | 0x5549      |       21833 |
|      59 | 0x557F      |       21887 |
|      60 | 0x55A8      |       21928 |
|      61 | 0x55DE      |       21982 |
|      62 | 0x55EF      |       21999 |
|      63 | 0x5656      |       22102 |
|      64 | 0x568B      |       22155 |
|      65 | 0x568F      |       22159 |
|      66 | 0x571F      |       22303 |
|      67 | 0x677B      |       26491 |
|      68 | 0x541F      |       21535 |
|      69 | 0x5456      |       21590 |
|      70 | 0x548E      |       21646 |
|      71 | 0x5491      |       21649 |
|      72 | 0x54E2      |       21730 |
|      73 | 0x5519      |       21785 |
|      74 | 0x554D      |       21837 |
|      75 | 0x5583      |       21891 |
|      76 | 0x55AC      |       21932 |
|      77 | 0x55E2      |       21986 |
|      78 | 0x55EE      |       21998 |
|      79 | 0x565A      |       22106 |
|      80 | 0x5693      |       22163 |
|      81 | 0x5694      |       22164 |
|      82 | 0x5723      |       22307 |
|      83 | 0x677F      |       26495 |
|      84 | 0x26CA      |        9930 |
|      85 | 0x26CB      |        9931 |
|      86 | 0x26CC      |        9932 |
|      87 | 0x0003      |           3 |
|      88 | 0x0004      |           4 |
|      89 | 0x7A120     |      500000 |
|      90 | 0x16E360    |     1500000 |
|      91 | 0x2DC6C0    |     3000000 |

## String References

- **7255**: Hey, I heard-weard all the details from Skokkr... Er, Skhoh Undhreh.
- **7256**: When you've found the World Eater Egg or other related paraphernalia, can you bring-wing them to me?
- **7257**: I got a guy who can handle such exotic items.
- **7258**: Oh, is this an avataru's spirit? My feelings are difficult to put into words.
- **7259**: But never mind that. Skhoh Undhreh told me that we needed-weeded a suitable vessel.
- **7260**: I'm led to believe that Ruspix in Leafallia is collecting gallimaufry. Can you bring me a little bit? Say...$0.
- **7261**: Goblins sure have a nose for the rare, even though I'm confident he has no idea what it actually is. Hence the name.
- **7262**: Remember, come back when you have $0 gallimaufry for me!
- **7263**: Which Prime Weapon would you like?
- **7265**: You wantaru the $0? It'll run you $1 gallimaufry.
- **7266**: Are you sure? ($0 gall.) [Positive./Hang on...]
- **7267**: A deal's a deal! Make sure to come back tomorrow.
- **7268**: I'm currently requisitioning your $0. One weapon at a time!
- **7269**: Hey, that's not enough-wough gallimaufry!
- **7270**: Good timing-wiming. Your $0 just arrived from Skhoh Undhreh, along with a message.
- **7271**: "The vessel is now ready, and I would implore you to test it well. Beware, lest the bearer's soul be devoured." Spooky!
- **7273**: Ask about what? [Forging a Prime Weapon./Tempering a Prime Weapon./Nothing.]
- **7274**: I've got a message-wessage from Skhoh Undhreh.
- **7275**: "The vessel may be prepared, but that does not mean it is complete. I require more materials."
- **7276**: And what do you know--she even gave me a list! "$3 $0 and $1 gallimaufry."
- **7277**: Can you bring-wing me the Prime Weapon you are interested in knowing the materials for?
- **7278**: Okay! I've got your $0 all safe and sound. Make sure to come back tomorrow!
- **7279**: "I have determined that the vessel required can be replicated with $6! We can counteract the corruption that way."
- **7280**: "When the time for Ragnarok is close at hand, the Prime Weapons can ascend to their final form at last. But new materials are required."
- **7281**: Yeah, yeah...keep on babbling-wabbling, Skhoh Undhreh. Huh? A message for you? Nope, nothing like that.
- **7282**: So here's your favorite list of materials: $1 gallimaufry, $3$0 , and $5$0$4 .
- **7283**: "Collect what I require and the ascension will be complete."
- **7284**: You have done all that is required. Enjoy your prize.

## Events

### Event 65535

#### Metadata

| Field        | Value   |
|--------------|---------|
| Entrypoint   | 0x0000  |
| Data Size    | 1 bytes |
| Instructions | 1       |

```
      00 01 02 03 04 05 06 07  08 09 0A 0B 0C 0D 0E 0F
      -- -- -- -- -- -- -- --  -- -- -- -- -- -- -- --
0000: 00                                                .               
```

#### Opcodes

```
  0: 0x0000 [0x00] END_REQSTACK()
```

### Event 22

#### Metadata

| Field        | Value    |
|--------------|----------|
| Entrypoint   | 0x0001   |
| Data Size    | 42 bytes |
| Instructions | 14       |

```
      00 01 02 03 04 05 06 07  08 09 0A 0B 0C 0D 0E 0F
      -- -- -- -- -- -- -- --  -- -- -- -- -- -- -- --
0000:    1E F0 FF FF 7F 6F 70  27 10 17 B0 11 01 58 1D   .....op'.....X.
0010: 00 80 23 1D 01 80 23 1D  02 80 23 27 10 17 B0 11  ..#...#...#'....
0020: 01 5A 29 10 17 B0 11 01  5B 21 00                 .Z).....[!.     
```

#### Opcodes

```
  0: 0x0001 [0x1E] EventEntity looks at LocalPlayer and starts talking
  1: 0x0006 [0x6F] WAIT_FRAME_DELAY: Yield until WaitTime reaches zero
  2: 0x0007 [0x70] WAIT_ENTITY_RENDER_FLAG: Wait while EventEntity->Render.Flags3 bit 2 is set (cancel turn if not)
  3: 0x0008 [0x27] REQ_SET(priority=0x10, entity_id=Gama-Shama (ID: 17936407/0x0111B017), tag_num=0x58)
  4: 0x000F [0x1D] PRINT_EVENT_MESSAGE(message_id=7255*)
    → "Hey, I heard-weard all the details from Skokkr... Er, Skhoh Undhreh."
  5: 0x0012 [0x23] WAIT_FOR_DIALOG_INTERACTION
  6: 0x0013 [0x1D] PRINT_EVENT_MESSAGE(message_id=7256*)
    → "When you've found the World Eater Egg or other related paraphernalia, can you bring-wing them to me?"
  7: 0x0016 [0x23] WAIT_FOR_DIALOG_INTERACTION
  8: 0x0017 [0x1D] PRINT_EVENT_MESSAGE(message_id=7257*)
    → "I got a guy who can handle such exotic items."
  9: 0x001A [0x23] WAIT_FOR_DIALOG_INTERACTION
 10: 0x001B [0x27] REQ_SET(priority=0x10, entity_id=Gama-Shama (ID: 17936407/0x0111B017), tag_num=0x5A)
 11: 0x0022 [0x29] REQ_SET_WAIT(priority=0x10, entity_id=Gama-Shama (ID: 17936407/0x0111B017), tag_num=0x5B)
 12: 0x0029 [0x21] END_EVENT
 13: 0x002A [0x00] END_REQSTACK()
```

### Event 23

#### Metadata

| Field        | Value    |
|--------------|----------|
| Entrypoint   | 0x002B   |
| Data Size    | 51 bytes |
| Instructions | 17       |

```
      00 01 02 03 04 05 06 07  08 09 0A 0B 0C 0D 0E 0F
      -- -- -- -- -- -- -- --  -- -- -- -- -- -- -- --
0020:                                   1E F0 FF FF 7F             .....
0030: 6F 70 27 10 17 B0 11 01  58 1D 03 80 23 1D 04 80  op'.....X...#...
0040: 23 03 02 10 05 80 1D 06  80 23 1D 07 80 23 27 10  #........#...#'.
0050: 17 B0 11 01 5A 29 10 17  B0 11 01 5B 21 00        ....Z).....[!.  
```

#### Opcodes

```
  0: 0x002B [0x1E] EventEntity looks at LocalPlayer and starts talking
  1: 0x0030 [0x6F] WAIT_FRAME_DELAY: Yield until WaitTime reaches zero
  2: 0x0031 [0x70] WAIT_ENTITY_RENDER_FLAG: Wait while EventEntity->Render.Flags3 bit 2 is set (cancel turn if not)
  3: 0x0032 [0x27] REQ_SET(priority=0x10, entity_id=Gama-Shama (ID: 17936407/0x0111B017), tag_num=0x58)
  4: 0x0039 [0x1D] PRINT_EVENT_MESSAGE(message_id=7258*)
    → "Oh, is this an avataru's spirit? My feelings are difficult to put into words."
  5: 0x003C [0x23] WAIT_FOR_DIALOG_INTERACTION
  6: 0x003D [0x1D] PRINT_EVENT_MESSAGE(message_id=7259*)
    → "But never mind that. Skhoh Undhreh told me that we needed-weeded a suitable vessel."
  7: 0x0040 [0x23] WAIT_FOR_DIALOG_INTERACTION
  8: 0x0041 [0x03] Work_Zone[2] = 10000*
  9: 0x0046 [0x1D] PRINT_EVENT_MESSAGE(message_id=7260*)
    → "I'm led to believe that Ruspix in Leafallia is collecting gallimaufry. Can you bring me a little bit? Say...$0."
 10: 0x0049 [0x23] WAIT_FOR_DIALOG_INTERACTION
 11: 0x004A [0x1D] PRINT_EVENT_MESSAGE(message_id=7261*)
    → "Goblins sure have a nose for the rare, even though I'm confident he has no idea what it actually is. Hence the name."
 12: 0x004D [0x23] WAIT_FOR_DIALOG_INTERACTION
 13: 0x004E [0x27] REQ_SET(priority=0x10, entity_id=Gama-Shama (ID: 17936407/0x0111B017), tag_num=0x5A)
 14: 0x0055 [0x29] REQ_SET_WAIT(priority=0x10, entity_id=Gama-Shama (ID: 17936407/0x0111B017), tag_num=0x5B)
 15: 0x005C [0x21] END_EVENT
 16: 0x005D [0x00] END_REQSTACK()
```

### Event 24

#### Metadata

| Field        | Value    |
|--------------|----------|
| Entrypoint   | 0x005E   |
| Data Size    | 39 bytes |
| Instructions | 11       |

```
      00 01 02 03 04 05 06 07  08 09 0A 0B 0C 0D 0E 0F
      -- -- -- -- -- -- -- --  -- -- -- -- -- -- -- --
0050:                                            1E F0                ..
0060: FF FF 7F 6F 70 27 10 17  B0 11 01 58 03 02 10 05  ...op'.....X....
0070: 80 1D 08 80 23 27 10 17  B0 11 01 5A 29 10 17 B0  ....#'.....Z)...
0080: 11 01 5B 21 00                                    ..[!.           
```

#### Opcodes

```
  0: 0x005E [0x1E] EventEntity looks at LocalPlayer and starts talking
  1: 0x0063 [0x6F] WAIT_FRAME_DELAY: Yield until WaitTime reaches zero
  2: 0x0064 [0x70] WAIT_ENTITY_RENDER_FLAG: Wait while EventEntity->Render.Flags3 bit 2 is set (cancel turn if not)
  3: 0x0065 [0x27] REQ_SET(priority=0x10, entity_id=Gama-Shama (ID: 17936407/0x0111B017), tag_num=0x58)
  4: 0x006C [0x03] Work_Zone[2] = 10000*
  5: 0x0071 [0x1D] PRINT_EVENT_MESSAGE(message_id=7262*)
    → "Remember, come back when you have $0 gallimaufry for me!"
  6: 0x0074 [0x23] WAIT_FOR_DIALOG_INTERACTION
  7: 0x0075 [0x27] REQ_SET(priority=0x10, entity_id=Gama-Shama (ID: 17936407/0x0111B017), tag_num=0x5A)
  8: 0x007C [0x29] REQ_SET_WAIT(priority=0x10, entity_id=Gama-Shama (ID: 17936407/0x0111B017), tag_num=0x5B)
  9: 0x0083 [0x21] END_EVENT
 10: 0x0084 [0x00] END_REQSTACK()
```

### Event 25

#### Metadata

| Field        | Value     |
|--------------|-----------|
| Entrypoint   | 0x0085    |
| Data Size    | 466 bytes |
| Instructions | 73        |

```
      00 01 02 03 04 05 06 07  08 09 0A 0B 0C 0D 0E 0F
      -- -- -- -- -- -- -- --  -- -- -- -- -- -- -- --
0080:                03 04 00  09 80 03 01 00 02 10 03       ...........
0090: 03 00 03 10 03 05 00 04  10 3C 06 00 0A 80 0A 80  .........<......
00A0: 3E 05 00 0B 80 AE 00 3D  06 00 0A 80 0A 80 1E F0  >......=........
00B0: FF FF 7F 6F 70 24 0C 80  09 80 06 00 25 02 00 10  ...op$......%...
00C0: 09 80 00 1C 02 03 01 10  09 80 27 10 17 B0 11 01  ..........'.....
00D0: 58 03 02 10 01 00 1D 0D  80 23 27 10 17 B0 11 01  X........#'.....
00E0: 5A 29 10 17 B0 11 01 5B  03 00 00 09 80 02 00 00  Z).....[........
00F0: 0E 80 03 15 01 9D 0A 22  09 02 00 00 00 0E 80 9D  ......."........
0100: 0F 62 09 02 00 00 00 0E  80 D4 03 00 00 02 00 0B  .b..............
0110: 00 00 01 ED 00 D4 02 0F  80 04 00 09 80 25 02 00  .............%..
0120: 10 0E 80 00 33 01 03 01  10 10 80 03 04 00 01 10  ....3...........
0130: 01 38 01 03 04 00 00 10  02 04 00 10 80 00 43 01  .8............C.
0140: 01 19 02 02 03 00 09 80  00 CB 01 02 01 00 05 80  ................
0150: 04 AF 01 27 10 17 B0 11  01 58 9D 0A 22 09 02 10  ...'.....X.."...
0160: 04 00 0E 80 03 03 10 05  80 1D 11 80 23 27 10 17  ............#'..
0170: B0 11 01 5A 29 10 17 B0  11 01 5B 03 02 10 01 00  ...Z).....[.....
0180: 24 12 80 0A 80 09 80 25  02 00 10 09 80 00 9C 01  $......%........
0190: 1D 13 80 23 03 01 10 04  00 01 AC 01 02 00 10 0A  ...#............
01A0: 80 00 AC 01 03 01 10 10  80 01 AC 01 01 C8 01 27  ...............'
01B0: 10 17 B0 11 01 58 1D 14  80 23 27 10 17 B0 11 01  .....X...#'.....
01C0: 5A 29 10 17 B0 11 01 5B  01 19 02 27 10 17 B0 11  Z).....[...'....
01D0: 01 58 03 02 10 03 00 03  07 00 09 80 02 07 00 15  .X..............
01E0: 80 05 07 02 9D 0A 22 09  08 00 07 00 0E 80 0B 08  ......".........
01F0: 00 02 02 10 08 00 00 01  02 0C 02 10 03 07 00 10  ................
0200: 80 0B 07 00 01 DC 01 1D  16 80 23 27 10 17 B0 11  ..........#'....
0210: 01 5A 29 10 17 B0 11 01  5B 01 55 02 02 00 10 0A  .Z).....[.U.....
0220: 80 00 45 02 27 10 17 B0  11 01 58 1D 17 80 23 27  ..E.'.....X...#'
0230: 10 17 B0 11 01 5A 29 10  17 B0 11 01 5B 03 01 10  .....Z).....[...
0240: 10 80 01 55 02 02 00 10  18 80 00 55 02 03 01 10  ...U.......U....
0250: 10 80 01 55 02 21 00                              ...U.!.         
```

#### Opcodes

```
  0: 0x0085 [0x03] ExtData[1]->WorkLocal[4] = 0*
  1: 0x008A [0x03] ExtData[1]->WorkLocal[1] = Work_Zone[2]
  2: 0x008F [0x03] ExtData[1]->WorkLocal[3] = Work_Zone[3]
  3: 0x0094 [0x03] ExtData[1]->WorkLocal[5] = Work_Zone[4]
  4: 0x0099 [0x3C] SET_BIT_FLAG_CONDITIONAL(target_work_offset=ExtData[1]->WorkLocal[6], bit_index_work_offset=1*, condition_work_offset=1*)
  5: 0x00A0 [0x3E] IF !(ExtData[1]->WorkLocal[5] bit 6*) GOTO 0x00AE
  6: 0x00A7 [0x3D] CLEAR_BIT_FLAG_CONDITIONAL(target_work_offset=ExtData[1]->WorkLocal[6], bit_index_work_offset=1*, condition_work_offset=1*)
  7: 0x00AE [0x1E] EventEntity looks at LocalPlayer and starts talking
  8: 0x00B3 [0x6F] WAIT_FRAME_DELAY: Yield until WaitTime reaches zero
  9: 0x00B4 [0x70] WAIT_ENTITY_RENDER_FLAG: Wait while EventEntity->Render.Flags3 bit 2 is set (cancel turn if not)
 10: 0x00B5 [0x24] CREATE_DIALOG(message_id=7273*, default_option=0*, option_flags=ExtData[1]->WorkLocal[6])
    → "Ask about what? [Forging a Prime Weapon./Tempering a Prime Weapon./Nothing.]"
 11: 0x00BC [0x25] WAIT_DIALOG_SELECT()
 12: 0x00BD [0x02] IF !(Work_Zone[0] == 0*) GOTO 0x021C
 13: 0x00C5 [0x03] Work_Zone[1] = 0*
 14: 0x00CA [0x27] REQ_SET(priority=0x10, entity_id=Gama-Shama (ID: 17936407/0x0111B017), tag_num=0x58)
 15: 0x00D1 [0x03] Work_Zone[2] = ExtData[1]->WorkLocal[1]
 16: 0x00D6 [0x1D] PRINT_EVENT_MESSAGE(message_id=7263*)
    → "Which Prime Weapon would you like?"
 17: 0x00D9 [0x23] WAIT_FOR_DIALOG_INTERACTION
 18: 0x00DA [0x27] REQ_SET(priority=0x10, entity_id=Gama-Shama (ID: 17936407/0x0111B017), tag_num=0x5A)
 19: 0x00E1 [0x29] REQ_SET_WAIT(priority=0x10, entity_id=Gama-Shama (ID: 17936407/0x0111B017), tag_num=0x5B)
 20: 0x00E8 [0x03] ExtData[1]->WorkLocal[0] = 0*
 21: 0x00ED [0x02] IF !(ExtData[1]->WorkLocal[0] >= 16*) GOTO 0x0115
 22: 0x00F5 [0x9D] IF (0x0922) ExtData[1]->WorkLocal[0] = ExtData[1]->WorkLocal[2] // extra=0x800E
 23: 0x00FF [0x9D] Table[0x0962] = ExtData[1]->WorkLocal[2] // p3=ExtData[1]->WorkLocal[0], p4=0x800E
 24: 0x0109 [0xD4] MAP_QUERY_WINDOW: Prepare buffer configuration A (buffer=[00 00 02 00 0B 00 00 01...])
 25: 0x0127 [0x01] GOTO 0x1010
 26: 0x012A [0x80] LOAD_WAIT(entity=Unknown NPC (ID: 16778243/0x01000403))
 27: 0x012F [0x10] 0x3801 <<= 0x0301
 28: 0x0134 [0x04] DEPRECATED_NOP(unused=0x00)
 29: 0x0137 [0x10] 0x0402 <<= Work_Zone[0]
 30: 0x013C [0x80] LOAD_WAIT(entity=Unknown NPC (ID: 16859904/0x01014300))
 31: 0x0141 [0x19] SWAP(0x0202, ExtData[1]->WorkLocal[3])
 32: 0x0146 [0x09] 0x80 |= (1 << 0x01CB)
 33: 0x014B [0x02] IF !(ExtData[1]->WorkLocal[1] < 10000*) GOTO 0x01AF
 34: 0x0153 [0x27] REQ_SET(priority=0x10, entity_id=Gama-Shama (ID: 17936407/0x0111B017), tag_num=0x58)
 35: 0x015A [0x9D] IF (0x0922) ExtData[1]->WorkLocal[4] = Work_Zone[2] // extra=0x800E
 36: 0x0164 [0x03] Work_Zone[3] = 10000*
 37: 0x0169 [0x1D] PRINT_EVENT_MESSAGE(message_id=7265*)
    → "You wantaru the $0? It'll run you $1 gallimaufry."
 38: 0x016C [0x23] WAIT_FOR_DIALOG_INTERACTION
 39: 0x016D [0x27] REQ_SET(priority=0x10, entity_id=Gama-Shama (ID: 17936407/0x0111B017), tag_num=0x5A)
 40: 0x0174 [0x29] REQ_SET_WAIT(priority=0x10, entity_id=Gama-Shama (ID: 17936407/0x0111B017), tag_num=0x5B)
 41: 0x017B [0x03] Work_Zone[2] = ExtData[1]->WorkLocal[1]
 42: 0x0180 [0x24] CREATE_DIALOG(message_id=7266*, default_option=1*, option_flags=0*)
    → "Are you sure? ($0 gall.) [Positive./Hang on...]"
 43: 0x0187 [0x25] WAIT_DIALOG_SELECT()
 44: 0x0188 [0x02] IF !(Work_Zone[0] == 0*) GOTO 0x019C
 45: 0x0190 [0x1D] PRINT_EVENT_MESSAGE(message_id=7267*)
    → "A deal's a deal! Make sure to come back tomorrow."
 46: 0x0193 [0x23] WAIT_FOR_DIALOG_INTERACTION
 47: 0x0194 [0x03] Work_Zone[1] = ExtData[1]->WorkLocal[4]
 48: 0x0199 [0x01] GOTO 0x01AC
 49: 0x019C [0x02] IF !(Work_Zone[0] == 1*) GOTO 0x01AC
 50: 0x01A4 [0x03] Work_Zone[1] = 255*
 51: 0x01A9 [0x01] GOTO 0x01AC

SUBROUTINE_01AC:
 52: 0x01AC [0x01] GOTO 0x01C8
 53: 0x01AF [0x27] REQ_SET(priority=0x10, entity_id=Gama-Shama (ID: 17936407/0x0111B017), tag_num=0x58)
 54: 0x01B6 [0x1D] PRINT_EVENT_MESSAGE(message_id=7269*)
    → "Hey, that's not enough-wough gallimaufry!"
 55: 0x01B9 [0x23] WAIT_FOR_DIALOG_INTERACTION
 56: 0x01BA [0x27] REQ_SET(priority=0x10, entity_id=Gama-Shama (ID: 17936407/0x0111B017), tag_num=0x5A)
 57: 0x01C1 [0x29] REQ_SET_WAIT(priority=0x10, entity_id=Gama-Shama (ID: 17936407/0x0111B017), tag_num=0x5B)

SUBROUTINE_01C8:
 58: 0x01C8 [0x01] GOTO 0x0219

SUBROUTINE_0219:
 59: 0x0219 [0x01] GOTO 0x0255
 60: 0x021C [0x02] IF !(Work_Zone[0] == 1*) GOTO 0x0245
 61: 0x0224 [0x27] REQ_SET(priority=0x10, entity_id=Gama-Shama (ID: 17936407/0x0111B017), tag_num=0x58)
 62: 0x022B [0x1D] PRINT_EVENT_MESSAGE(message_id=7277*)
    → "Can you bring-wing me the Prime Weapon you are interested in knowing the materials for?"
 63: 0x022E [0x23] WAIT_FOR_DIALOG_INTERACTION
 64: 0x022F [0x27] REQ_SET(priority=0x10, entity_id=Gama-Shama (ID: 17936407/0x0111B017), tag_num=0x5A)
 65: 0x0236 [0x29] REQ_SET_WAIT(priority=0x10, entity_id=Gama-Shama (ID: 17936407/0x0111B017), tag_num=0x5B)
 66: 0x023D [0x03] Work_Zone[1] = 255*
 67: 0x0242 [0x01] GOTO 0x0255
 68: 0x0245 [0x02] IF !(Work_Zone[0] == 2*) GOTO 0x0255
 69: 0x024D [0x03] Work_Zone[1] = 255*
 70: 0x0252 [0x01] GOTO 0x0255

SUBROUTINE_0255:
 71: 0x0255 [0x21] END_EVENT
 72: 0x0256 [0x00] END_REQSTACK()
```

#### Data or dead code:

```
# Dead code (unreachable instructions):
     0x01CB [0x27] REQ_SET(priority=0x10, entity_id=Gama-Shama (ID: 17936407/0x0111B017), tag_num=0x58)
     0x01D2 [0x03] Work_Zone[2] = ExtData[1]->WorkLocal[3]
     0x01D7 [0x03] ExtData[1]->WorkLocal[7] = 0*
     0x01DC [0x02] IF !(ExtData[1]->WorkLocal[7] > 15*) GOTO 0x0207
     0x01E4 [0x9D] IF (0x0922) ExtData[1]->WorkLocal[7] = ExtData[1]->WorkLocal[8] // extra=0x800E
     0x01EE [0x0B] ExtData[1]->WorkLocal[8]++
     0x01F1 [0x02] IF !(Work_Zone[2] == ExtData[1]->WorkLocal[8]) GOTO 0x0201
     0x01F9 [0x0C] Work_Zone[2]--
     0x01FC [0x03] ExtData[1]->WorkLocal[7] = 255*
     0x0201 [0x0B] ExtData[1]->WorkLocal[7]++
     0x0204 [0x01] GOTO 0x01DC
     0x0207 [0x1D] PRINT_EVENT_MESSAGE(message_id=7268*)
    → "I'm currently requisitioning your $0. One weapon at a time!"
     0x020A [0x23] WAIT_FOR_DIALOG_INTERACTION
     0x020B [0x27] REQ_SET(priority=0x10, entity_id=Gama-Shama (ID: 17936407/0x0111B017), tag_num=0x5A)
     0x0212 [0x29] REQ_SET_WAIT(priority=0x10, entity_id=Gama-Shama (ID: 17936407/0x0111B017), tag_num=0x5B)
```

### Event 27

#### Metadata

| Field        | Value    |
|--------------|----------|
| Entrypoint   | 0x0257   |
| Data Size    | 48 bytes |
| Instructions | 14       |

```
      00 01 02 03 04 05 06 07  08 09 0A 0B 0C 0D 0E 0F
      -- -- -- -- -- -- -- --  -- -- -- -- -- -- -- --
0250:                      03  02 00 02 10 1E F0 FF FF         .........
0260: 7F 6F 70 27 10 17 B0 11  01 58 03 02 10 02 00 1D  .op'.....X......
0270: 19 80 23 1D 1A 80 23 27  10 17 B0 11 01 5A 29 10  ..#...#'.....Z).
0280: 17 B0 11 01 5B 21 00                              ....[!.         
```

#### Opcodes

```
  0: 0x0257 [0x03] ExtData[1]->WorkLocal[2] = Work_Zone[2]
  1: 0x025C [0x1E] EventEntity looks at LocalPlayer and starts talking
  2: 0x0261 [0x6F] WAIT_FRAME_DELAY: Yield until WaitTime reaches zero
  3: 0x0262 [0x70] WAIT_ENTITY_RENDER_FLAG: Wait while EventEntity->Render.Flags3 bit 2 is set (cancel turn if not)
  4: 0x0263 [0x27] REQ_SET(priority=0x10, entity_id=Gama-Shama (ID: 17936407/0x0111B017), tag_num=0x58)
  5: 0x026A [0x03] Work_Zone[2] = ExtData[1]->WorkLocal[2]
  6: 0x026F [0x1D] PRINT_EVENT_MESSAGE(message_id=7270*)
    → "Good timing-wiming. Your $0 just arrived from Skhoh Undhreh, along with a message."
  7: 0x0272 [0x23] WAIT_FOR_DIALOG_INTERACTION
  8: 0x0273 [0x1D] PRINT_EVENT_MESSAGE(message_id=7271*)
    → ""The vessel is now ready, and I would implore you to test it well. Beware, lest the bearer's soul be devoured." Spooky!"
  9: 0x0276 [0x23] WAIT_FOR_DIALOG_INTERACTION
 10: 0x0277 [0x27] REQ_SET(priority=0x10, entity_id=Gama-Shama (ID: 17936407/0x0111B017), tag_num=0x5A)
 11: 0x027E [0x29] REQ_SET_WAIT(priority=0x10, entity_id=Gama-Shama (ID: 17936407/0x0111B017), tag_num=0x5B)
 12: 0x0285 [0x21] END_EVENT
 13: 0x0286 [0x00] END_REQSTACK()
```

### Event 36

#### Metadata

| Field        | Value    |
|--------------|----------|
| Entrypoint   | 0x0287   |
| Data Size    | 48 bytes |
| Instructions | 14       |

```
      00 01 02 03 04 05 06 07  08 09 0A 0B 0C 0D 0E 0F
      -- -- -- -- -- -- -- --  -- -- -- -- -- -- -- --
0280:                      03  02 00 02 10 1E F0 FF FF         .........
0290: 7F 6F 70 27 10 17 B0 11  01 58 03 02 10 02 00 1D  .op'.....X......
02A0: 19 80 23 1D 1B 80 23 27  10 17 B0 11 01 5A 29 10  ..#...#'.....Z).
02B0: 17 B0 11 01 5B 21 00                              ....[!.         
```

#### Opcodes

```
  0: 0x0287 [0x03] ExtData[1]->WorkLocal[2] = Work_Zone[2]
  1: 0x028C [0x1E] EventEntity looks at LocalPlayer and starts talking
  2: 0x0291 [0x6F] WAIT_FRAME_DELAY: Yield until WaitTime reaches zero
  3: 0x0292 [0x70] WAIT_ENTITY_RENDER_FLAG: Wait while EventEntity->Render.Flags3 bit 2 is set (cancel turn if not)
  4: 0x0293 [0x27] REQ_SET(priority=0x10, entity_id=Gama-Shama (ID: 17936407/0x0111B017), tag_num=0x58)
  5: 0x029A [0x03] Work_Zone[2] = ExtData[1]->WorkLocal[2]
  6: 0x029F [0x1D] PRINT_EVENT_MESSAGE(message_id=7270*)
    → "Good timing-wiming. Your $0 just arrived from Skhoh Undhreh, along with a message."
  7: 0x02A2 [0x23] WAIT_FOR_DIALOG_INTERACTION
  8: 0x02A3 [0x1D] PRINT_EVENT_MESSAGE(message_id=7283*)
    → ""Collect what I require and the ascension will be complete.""
  9: 0x02A6 [0x23] WAIT_FOR_DIALOG_INTERACTION
 10: 0x02A7 [0x27] REQ_SET(priority=0x10, entity_id=Gama-Shama (ID: 17936407/0x0111B017), tag_num=0x5A)
 11: 0x02AE [0x29] REQ_SET_WAIT(priority=0x10, entity_id=Gama-Shama (ID: 17936407/0x0111B017), tag_num=0x5B)
 12: 0x02B5 [0x21] END_EVENT
 13: 0x02B6 [0x00] END_REQSTACK()
```

### Event 37

#### Metadata

| Field        | Value    |
|--------------|----------|
| Entrypoint   | 0x02B7   |
| Data Size    | 48 bytes |
| Instructions | 14       |

```
      00 01 02 03 04 05 06 07  08 09 0A 0B 0C 0D 0E 0F
      -- -- -- -- -- -- -- --  -- -- -- -- -- -- -- --
02B0:                      03  02 00 02 10 1E F0 FF FF         .........
02C0: 7F 6F 70 27 10 17 B0 11  01 58 03 02 10 02 00 1D  .op'.....X......
02D0: 19 80 23 1D 1C 80 23 27  10 17 B0 11 01 5A 29 10  ..#...#'.....Z).
02E0: 17 B0 11 01 5B 21 00                              ....[!.         
```

#### Opcodes

```
  0: 0x02B7 [0x03] ExtData[1]->WorkLocal[2] = Work_Zone[2]
  1: 0x02BC [0x1E] EventEntity looks at LocalPlayer and starts talking
  2: 0x02C1 [0x6F] WAIT_FRAME_DELAY: Yield until WaitTime reaches zero
  3: 0x02C2 [0x70] WAIT_ENTITY_RENDER_FLAG: Wait while EventEntity->Render.Flags3 bit 2 is set (cancel turn if not)
  4: 0x02C3 [0x27] REQ_SET(priority=0x10, entity_id=Gama-Shama (ID: 17936407/0x0111B017), tag_num=0x58)
  5: 0x02CA [0x03] Work_Zone[2] = ExtData[1]->WorkLocal[2]
  6: 0x02CF [0x1D] PRINT_EVENT_MESSAGE(message_id=7270*)
    → "Good timing-wiming. Your $0 just arrived from Skhoh Undhreh, along with a message."
  7: 0x02D2 [0x23] WAIT_FOR_DIALOG_INTERACTION
  8: 0x02D3 [0x1D] PRINT_EVENT_MESSAGE(message_id=7284*)
    → "You have done all that is required. Enjoy your prize."
  9: 0x02D6 [0x23] WAIT_FOR_DIALOG_INTERACTION
 10: 0x02D7 [0x27] REQ_SET(priority=0x10, entity_id=Gama-Shama (ID: 17936407/0x0111B017), tag_num=0x5A)
 11: 0x02DE [0x29] REQ_SET_WAIT(priority=0x10, entity_id=Gama-Shama (ID: 17936407/0x0111B017), tag_num=0x5B)
 12: 0x02E5 [0x21] END_EVENT
 13: 0x02E6 [0x00] END_REQSTACK()
```

### Event 26

#### Metadata

| Field        | Value    |
|--------------|----------|
| Entrypoint   | 0x02E7   |
| Data Size    | 44 bytes |
| Instructions | 12       |

```
      00 01 02 03 04 05 06 07  08 09 0A 0B 0C 0D 0E 0F
      -- -- -- -- -- -- -- --  -- -- -- -- -- -- -- --
02E0:                      03  02 00 02 10 1E F0 FF FF         .........
02F0: 7F 6F 70 27 10 17 B0 11  01 58 03 02 10 02 00 1D  .op'.....X......
0300: 16 80 23 27 10 17 B0 11  01 5A 29 10 17 B0 11 01  ..#'.....Z).....
0310: 5B 21 00                                          [!.             
```

#### Opcodes

```
  0: 0x02E7 [0x03] ExtData[1]->WorkLocal[2] = Work_Zone[2]
  1: 0x02EC [0x1E] EventEntity looks at LocalPlayer and starts talking
  2: 0x02F1 [0x6F] WAIT_FRAME_DELAY: Yield until WaitTime reaches zero
  3: 0x02F2 [0x70] WAIT_ENTITY_RENDER_FLAG: Wait while EventEntity->Render.Flags3 bit 2 is set (cancel turn if not)
  4: 0x02F3 [0x27] REQ_SET(priority=0x10, entity_id=Gama-Shama (ID: 17936407/0x0111B017), tag_num=0x58)
  5: 0x02FA [0x03] Work_Zone[2] = ExtData[1]->WorkLocal[2]
  6: 0x02FF [0x1D] PRINT_EVENT_MESSAGE(message_id=7268*)
    → "I'm currently requisitioning your $0. One weapon at a time!"
  7: 0x0302 [0x23] WAIT_FOR_DIALOG_INTERACTION
  8: 0x0303 [0x27] REQ_SET(priority=0x10, entity_id=Gama-Shama (ID: 17936407/0x0111B017), tag_num=0x5A)
  9: 0x030A [0x29] REQ_SET_WAIT(priority=0x10, entity_id=Gama-Shama (ID: 17936407/0x0111B017), tag_num=0x5B)
 10: 0x0311 [0x21] END_EVENT
 11: 0x0312 [0x00] END_REQSTACK()
```

### Event 32

#### Metadata

| Field        | Value    |
|--------------|----------|
| Entrypoint   | 0x0313   |
| Data Size    | 82 bytes |
| Instructions | 22       |

```
      00 01 02 03 04 05 06 07  08 09 0A 0B 0C 0D 0E 0F
      -- -- -- -- -- -- -- --  -- -- -- -- -- -- -- --
0310:          03 05 00 02 10  1E F0 FF FF 7F 6F 70 27     ..........op'
0320: 10 17 B0 11 01 58 3E 05  00 0B 80 35 03 03 02 10  .....X>....5....
0330: 0A 80 01 3A 03 03 02 10  09 80 03 03 10 05 80 03  ...:............
0340: 04 10 1D 80 03 05 10 0A  80 1D 1E 80 23 1D 1F 80  ............#...
0350: 23 1D 20 80 23 27 10 17  B0 11 01 5A 29 10 17 B0  #. .#'.....Z)...
0360: 11 01 5B 21 00                                    ..[!.           
```

#### Opcodes

```
  0: 0x0313 [0x03] ExtData[1]->WorkLocal[5] = Work_Zone[2]
  1: 0x0318 [0x1E] EventEntity looks at LocalPlayer and starts talking
  2: 0x031D [0x6F] WAIT_FRAME_DELAY: Yield until WaitTime reaches zero
  3: 0x031E [0x70] WAIT_ENTITY_RENDER_FLAG: Wait while EventEntity->Render.Flags3 bit 2 is set (cancel turn if not)
  4: 0x031F [0x27] REQ_SET(priority=0x10, entity_id=Gama-Shama (ID: 17936407/0x0111B017), tag_num=0x58)
  5: 0x0326 [0x3E] IF !(ExtData[1]->WorkLocal[5] bit 6*) GOTO 0x0335
  6: 0x032D [0x03] Work_Zone[2] = 1*
  7: 0x0332 [0x01] GOTO 0x033A
  8: 0x0335 [0x03] Work_Zone[2] = 0*

SUBROUTINE_033A:
  9: 0x033A [0x03] Work_Zone[3] = 10000*
 10: 0x033F [0x03] Work_Zone[4] = 9929*
 11: 0x0344 [0x03] Work_Zone[5] = 1*
 12: 0x0349 [0x1D] PRINT_EVENT_MESSAGE(message_id=7274*)
    → "I've got a message-wessage from Skhoh Undhreh."
 13: 0x034C [0x23] WAIT_FOR_DIALOG_INTERACTION
 14: 0x034D [0x1D] PRINT_EVENT_MESSAGE(message_id=7275*)
    → ""The vessel may be prepared, but that does not mean it is complete. I require more materials.""
 15: 0x0350 [0x23] WAIT_FOR_DIALOG_INTERACTION
 16: 0x0351 [0x1D] PRINT_EVENT_MESSAGE(message_id=7276*)
    → "And what do you know--she even gave me a list! "$3 $0 and $1 gallimaufry.""
 17: 0x0354 [0x23] WAIT_FOR_DIALOG_INTERACTION
 18: 0x0355 [0x27] REQ_SET(priority=0x10, entity_id=Gama-Shama (ID: 17936407/0x0111B017), tag_num=0x5A)
 19: 0x035C [0x29] REQ_SET_WAIT(priority=0x10, entity_id=Gama-Shama (ID: 17936407/0x0111B017), tag_num=0x5B)
 20: 0x0363 [0x21] END_EVENT
 21: 0x0364 [0x00] END_REQSTACK()
```

### Event 33

#### Metadata

| Field        | Value    |
|--------------|----------|
| Entrypoint   | 0x0365   |
| Data Size    | 75 bytes |
| Instructions | 23       |

```
      00 01 02 03 04 05 06 07  08 09 0A 0B 0C 0D 0E 0F
      -- -- -- -- -- -- -- --  -- -- -- -- -- -- -- --
0360:                03 05 00  02 10 1E F0 FF FF 7F 6F       ..........o
0370: 70 27 10 17 B0 11 01 58  43 00 43 01 3E 05 00 21  p'.....XC.C.>..!
0380: 80 8B 03 03 02 10 0A 80  01 90 03 03 02 10 09 80  ................
0390: 1D 1E 80 23 1D 22 80 23  1D 23 80 23 1D 24 80 23  ...#.".#.#.#.$.#
03A0: 27 10 17 B0 11 01 5A 29  10 17 B0 11 01 5B 21 00  '.....Z).....[!.
```

#### Opcodes

```
  0: 0x0365 [0x03] ExtData[1]->WorkLocal[5] = Work_Zone[2]
  1: 0x036A [0x1E] EventEntity looks at LocalPlayer and starts talking
  2: 0x036F [0x6F] WAIT_FRAME_DELAY: Yield until WaitTime reaches zero
  3: 0x0370 [0x70] WAIT_ENTITY_RENDER_FLAG: Wait while EventEntity->Render.Flags3 bit 2 is set (cancel turn if not)
  4: 0x0371 [0x27] REQ_SET(priority=0x10, entity_id=Gama-Shama (ID: 17936407/0x0111B017), tag_num=0x58)
  5: 0x0378 [0x43] SEND_EVENT_UPDATE: Send pending tag to server (packet 0x005B)
  6: 0x037A [0x43] SEND_EVENT_UPDATE: Check pending flag (skip if not pending)
  7: 0x037C [0x3E] IF !(ExtData[1]->WorkLocal[5] bit 7*) GOTO 0x038B
  8: 0x0383 [0x03] Work_Zone[2] = 1*
  9: 0x0388 [0x01] GOTO 0x0390
 10: 0x038B [0x03] Work_Zone[2] = 0*

SUBROUTINE_0390:
 11: 0x0390 [0x1D] PRINT_EVENT_MESSAGE(message_id=7274*)
    → "I've got a message-wessage from Skhoh Undhreh."
 12: 0x0393 [0x23] WAIT_FOR_DIALOG_INTERACTION
 13: 0x0394 [0x1D] PRINT_EVENT_MESSAGE(message_id=7279*)
    → ""I have determined that the vessel required can be replicated with $6! We can counteract the corruption that way.""
 14: 0x0397 [0x23] WAIT_FOR_DIALOG_INTERACTION
 15: 0x0398 [0x1D] PRINT_EVENT_MESSAGE(message_id=7280*)
    → ""When the time for Ragnarok is close at hand, the Prime Weapons can ascend to their final form at last. But new materials are required.""
 16: 0x039B [0x23] WAIT_FOR_DIALOG_INTERACTION
 17: 0x039C [0x1D] PRINT_EVENT_MESSAGE(message_id=7282*)
    → "So here's your favorite list of materials: $1 gallimaufry, $3$0 , and $5$0$4 ."
 18: 0x039F [0x23] WAIT_FOR_DIALOG_INTERACTION
 19: 0x03A0 [0x27] REQ_SET(priority=0x10, entity_id=Gama-Shama (ID: 17936407/0x0111B017), tag_num=0x5A)
 20: 0x03A7 [0x29] REQ_SET_WAIT(priority=0x10, entity_id=Gama-Shama (ID: 17936407/0x0111B017), tag_num=0x5B)
 21: 0x03AE [0x21] END_EVENT
 22: 0x03AF [0x00] END_REQSTACK()
```

### Event 34

#### Metadata

| Field        | Value    |
|--------------|----------|
| Entrypoint   | 0x03B0   |
| Data Size    | 67 bytes |
| Instructions | 19       |

```
      00 01 02 03 04 05 06 07  08 09 0A 0B 0C 0D 0E 0F
      -- -- -- -- -- -- -- --  -- -- -- -- -- -- -- --
03B0: 03 05 00 02 10 1E F0 FF  FF 7F 6F 70 27 10 17 B0  ..........op'...
03C0: 11 01 58 3E 05 00 25 80  D2 03 03 02 10 0A 80 01  ..X>..%.........
03D0: D7 03 03 02 10 09 80 43  00 43 01 1D 26 80 23 1D  .......C.C..&.#.
03E0: 24 80 23 27 10 17 B0 11  01 5A 29 10 17 B0 11 01  $.#'.....Z).....
03F0: 5B 21 00                                          [!.             
```

#### Opcodes

```
  0: 0x03B0 [0x03] ExtData[1]->WorkLocal[5] = Work_Zone[2]
  1: 0x03B5 [0x1E] EventEntity looks at LocalPlayer and starts talking
  2: 0x03BA [0x6F] WAIT_FRAME_DELAY: Yield until WaitTime reaches zero
  3: 0x03BB [0x70] WAIT_ENTITY_RENDER_FLAG: Wait while EventEntity->Render.Flags3 bit 2 is set (cancel turn if not)
  4: 0x03BC [0x27] REQ_SET(priority=0x10, entity_id=Gama-Shama (ID: 17936407/0x0111B017), tag_num=0x58)
  5: 0x03C3 [0x3E] IF !(ExtData[1]->WorkLocal[5] bit 10*) GOTO 0x03D2
  6: 0x03CA [0x03] Work_Zone[2] = 1*
  7: 0x03CF [0x01] GOTO 0x03D7
  8: 0x03D2 [0x03] Work_Zone[2] = 0*

SUBROUTINE_03D7:
  9: 0x03D7 [0x43] SEND_EVENT_UPDATE: Send pending tag to server (packet 0x005B)
 10: 0x03D9 [0x43] SEND_EVENT_UPDATE: Check pending flag (skip if not pending)
 11: 0x03DB [0x1D] PRINT_EVENT_MESSAGE(message_id=7281*)
    → "Yeah, yeah...keep on babbling-wabbling, Skhoh Undhreh. Huh? A message for you? Nope, nothing like that."
 12: 0x03DE [0x23] WAIT_FOR_DIALOG_INTERACTION
 13: 0x03DF [0x1D] PRINT_EVENT_MESSAGE(message_id=7282*)
    → "So here's your favorite list of materials: $1 gallimaufry, $3$0 , and $5$0$4 ."
 14: 0x03E2 [0x23] WAIT_FOR_DIALOG_INTERACTION
 15: 0x03E3 [0x27] REQ_SET(priority=0x10, entity_id=Gama-Shama (ID: 17936407/0x0111B017), tag_num=0x5A)
 16: 0x03EA [0x29] REQ_SET_WAIT(priority=0x10, entity_id=Gama-Shama (ID: 17936407/0x0111B017), tag_num=0x5B)
 17: 0x03F1 [0x21] END_EVENT
 18: 0x03F2 [0x00] END_REQSTACK()
```

### Event 35

#### Metadata

| Field        | Value    |
|--------------|----------|
| Entrypoint   | 0x03F3   |
| Data Size    | 67 bytes |
| Instructions | 19       |

```
      00 01 02 03 04 05 06 07  08 09 0A 0B 0C 0D 0E 0F
      -- -- -- -- -- -- -- --  -- -- -- -- -- -- -- --
03F0:          03 05 00 02 10  1E F0 FF FF 7F 6F 70 27     ..........op'
0400: 10 17 B0 11 01 58 3E 05  00 27 80 15 04 03 02 10  .....X>..'......
0410: 0A 80 01 1A 04 03 02 10  09 80 43 00 43 01 1D 26  ..........C.C..&
0420: 80 23 1D 24 80 23 27 10  17 B0 11 01 5A 29 10 17  .#.$.#'.....Z)..
0430: B0 11 01 5B 21 00                                 ...[!.          
```

#### Opcodes

```
  0: 0x03F3 [0x03] ExtData[1]->WorkLocal[5] = Work_Zone[2]
  1: 0x03F8 [0x1E] EventEntity looks at LocalPlayer and starts talking
  2: 0x03FD [0x6F] WAIT_FRAME_DELAY: Yield until WaitTime reaches zero
  3: 0x03FE [0x70] WAIT_ENTITY_RENDER_FLAG: Wait while EventEntity->Render.Flags3 bit 2 is set (cancel turn if not)
  4: 0x03FF [0x27] REQ_SET(priority=0x10, entity_id=Gama-Shama (ID: 17936407/0x0111B017), tag_num=0x58)
  5: 0x0406 [0x3E] IF !(ExtData[1]->WorkLocal[5] bit 11*) GOTO 0x0415
  6: 0x040D [0x03] Work_Zone[2] = 1*
  7: 0x0412 [0x01] GOTO 0x041A
  8: 0x0415 [0x03] Work_Zone[2] = 0*

SUBROUTINE_041A:
  9: 0x041A [0x43] SEND_EVENT_UPDATE: Send pending tag to server (packet 0x005B)
 10: 0x041C [0x43] SEND_EVENT_UPDATE: Check pending flag (skip if not pending)
 11: 0x041E [0x1D] PRINT_EVENT_MESSAGE(message_id=7281*)
    → "Yeah, yeah...keep on babbling-wabbling, Skhoh Undhreh. Huh? A message for you? Nope, nothing like that."
 12: 0x0421 [0x23] WAIT_FOR_DIALOG_INTERACTION
 13: 0x0422 [0x1D] PRINT_EVENT_MESSAGE(message_id=7282*)
    → "So here's your favorite list of materials: $1 gallimaufry, $3$0 , and $5$0$4 ."
 14: 0x0425 [0x23] WAIT_FOR_DIALOG_INTERACTION
 15: 0x0426 [0x27] REQ_SET(priority=0x10, entity_id=Gama-Shama (ID: 17936407/0x0111B017), tag_num=0x5A)
 16: 0x042D [0x29] REQ_SET_WAIT(priority=0x10, entity_id=Gama-Shama (ID: 17936407/0x0111B017), tag_num=0x5B)
 17: 0x0434 [0x21] END_EVENT
 18: 0x0435 [0x00] END_REQSTACK()
```

### Event 28

#### Metadata

| Field        | Value    |
|--------------|----------|
| Entrypoint   | 0x0436   |
| Data Size    | 44 bytes |
| Instructions | 12       |

```
      00 01 02 03 04 05 06 07  08 09 0A 0B 0C 0D 0E 0F
      -- -- -- -- -- -- -- --  -- -- -- -- -- -- -- --
0430:                   03 02  00 02 10 1E F0 FF FF 7F        ..........
0440: 6F 70 27 10 17 B0 11 01  58 03 02 00 02 10 1D 28  op'.....X......(
0450: 80 23 27 10 17 B0 11 01  5A 29 10 17 B0 11 01 5B  .#'.....Z).....[
0460: 21 00                                             !.              
```

#### Opcodes

```
  0: 0x0436 [0x03] ExtData[1]->WorkLocal[2] = Work_Zone[2]
  1: 0x043B [0x1E] EventEntity looks at LocalPlayer and starts talking
  2: 0x0440 [0x6F] WAIT_FRAME_DELAY: Yield until WaitTime reaches zero
  3: 0x0441 [0x70] WAIT_ENTITY_RENDER_FLAG: Wait while EventEntity->Render.Flags3 bit 2 is set (cancel turn if not)
  4: 0x0442 [0x27] REQ_SET(priority=0x10, entity_id=Gama-Shama (ID: 17936407/0x0111B017), tag_num=0x58)
  5: 0x0449 [0x03] ExtData[1]->WorkLocal[2] = Work_Zone[2]
  6: 0x044E [0x1D] PRINT_EVENT_MESSAGE(message_id=7278*)
    → "Okay! I've got your $0 all safe and sound. Make sure to come back tomorrow!"
  7: 0x0451 [0x23] WAIT_FOR_DIALOG_INTERACTION
  8: 0x0452 [0x27] REQ_SET(priority=0x10, entity_id=Gama-Shama (ID: 17936407/0x0111B017), tag_num=0x5A)
  9: 0x0459 [0x29] REQ_SET_WAIT(priority=0x10, entity_id=Gama-Shama (ID: 17936407/0x0111B017), tag_num=0x5B)
 10: 0x0460 [0x21] END_EVENT
 11: 0x0461 [0x00] END_REQSTACK()
```

### Event 9

#### Metadata

| Field        | Value   |
|--------------|---------|
| Entrypoint   | 0x0462  |
| Data Size    | 1 bytes |
| Instructions | 1       |

```
      00 01 02 03 04 05 06 07  08 09 0A 0B 0C 0D 0E 0F
      -- -- -- -- -- -- -- --  -- -- -- -- -- -- -- --
0460:       00                                            .             
```

#### Opcodes

```
  0: 0x0462 [0x00] END_REQSTACK()
```

### Event 11

#### Metadata

| Field        | Value   |
|--------------|---------|
| Entrypoint   | 0x0463  |
| Data Size    | 1 bytes |
| Instructions | 1       |

```
      00 01 02 03 04 05 06 07  08 09 0A 0B 0C 0D 0E 0F
      -- -- -- -- -- -- -- --  -- -- -- -- -- -- -- --
0460:          00                                          .            
```

#### Opcodes

```
  0: 0x0463 [0x00] END_REQSTACK()
```

### Event 12

#### Metadata

| Field        | Value   |
|--------------|---------|
| Entrypoint   | 0x0464  |
| Data Size    | 1 bytes |
| Instructions | 1       |

```
      00 01 02 03 04 05 06 07  08 09 0A 0B 0C 0D 0E 0F
      -- -- -- -- -- -- -- --  -- -- -- -- -- -- -- --
0460:             00                                        .           
```

#### Opcodes

```
  0: 0x0464 [0x00] END_REQSTACK()
```

### Event 21

#### Metadata

| Field        | Value   |
|--------------|---------|
| Entrypoint   | 0x0465  |
| Data Size    | 1 bytes |
| Instructions | 1       |

```
      00 01 02 03 04 05 06 07  08 09 0A 0B 0C 0D 0E 0F
      -- -- -- -- -- -- -- --  -- -- -- -- -- -- -- --
0460:                00                                      .          
```

#### Opcodes

```
  0: 0x0465 [0x00] END_REQSTACK()
```

### Event 65535.1

#### Metadata

| Field        | Value    |
|--------------|----------|
| Entrypoint   | 0x0466   |
| Data Size    | 16 bytes |
| Instructions | 2        |

```
      00 01 02 03 04 05 06 07  08 09 0A 0B 0C 0D 0E 0F
      -- -- -- -- -- -- -- --  -- -- -- -- -- -- -- --
0460:                   66 29  80 F8 FF FF 7F F8 FF FF        f)........
0470: 7F 74 6C 6B 30 00                                 .tlk0.          
```

#### Opcodes

```
  0: 0x0466 [0x66] LOAD_EXT_SCHEDULER_MAIN: Load scheduler "tlk0" with entities [EventEntity, EventEntity], work=40*
  1: 0x0475 [0x00] END_REQSTACK()
```

### Event 65535.2

#### Metadata

| Field        | Value    |
|--------------|----------|
| Entrypoint   | 0x0476   |
| Data Size    | 42 bytes |
| Instructions | 4        |

```
      00 01 02 03 04 05 06 07  08 09 0A 0B 0C 0D 0E 0F
      -- -- -- -- -- -- -- --  -- -- -- -- -- -- -- --
0470:                   53 F8  FF FF 7F F8 FF FF 7F 74        S........t
0480: 6C 6B 30 66 29 80 F8 FF  FF 7F F8 FF FF 7F 74 6C  lk0f).........tl
0490: 6B 31 53 F8 FF FF 7F F8  FF FF 7F 74 6C 6B 31 00  k1S........tlk1.
```

#### Opcodes

```
  0: 0x0476 [0x53] WAIT_SCHEDULER_TASK: Wait for scheduler "tlk0" with entities [EventEntity, EventEntity]
  1: 0x0483 [0x66] LOAD_EXT_SCHEDULER_MAIN: Load scheduler "tlk1" with entities [EventEntity, EventEntity], work=40*
  2: 0x0492 [0x53] WAIT_SCHEDULER_TASK: Wait for scheduler "tlk1" with entities [EventEntity, EventEntity]
  3: 0x049F [0x00] END_REQSTACK()
```

### Event 65535.3

#### Metadata

| Field        | Value    |
|--------------|----------|
| Entrypoint   | 0x04A0   |
| Data Size    | 16 bytes |
| Instructions | 2        |

```
      00 01 02 03 04 05 06 07  08 09 0A 0B 0C 0D 0E 0F
      -- -- -- -- -- -- -- --  -- -- -- -- -- -- -- --
04A0: 66 29 80 F8 FF FF 7F F8  FF FF 7F 74 68 6B 31 00  f).........thk1.
```

#### Opcodes

```
  0: 0x04A0 [0x66] LOAD_EXT_SCHEDULER_MAIN: Load scheduler "thk1" with entities [EventEntity, EventEntity], work=40*
  1: 0x04AF [0x00] END_REQSTACK()
```

### Event 65535.4

#### Metadata

| Field        | Value    |
|--------------|----------|
| Entrypoint   | 0x04B0   |
| Data Size    | 14 bytes |
| Instructions | 2        |

```
      00 01 02 03 04 05 06 07  08 09 0A 0B 0C 0D 0E 0F
      -- -- -- -- -- -- -- --  -- -- -- -- -- -- -- --
04B0: 53 F8 FF FF 7F F8 FF FF  7F 74 68 6B 31 00        S........thk1.  
```

#### Opcodes

```
  0: 0x04B0 [0x53] WAIT_SCHEDULER_TASK: Wait for scheduler "thk1" with entities [EventEntity, EventEntity]
  1: 0x04BD [0x00] END_REQSTACK()
```

### Event 65535.5

#### Metadata

| Field        | Value    |
|--------------|----------|
| Entrypoint   | 0x04BE   |
| Data Size    | 16 bytes |
| Instructions | 2        |

```
      00 01 02 03 04 05 06 07  08 09 0A 0B 0C 0D 0E 0F
      -- -- -- -- -- -- -- --  -- -- -- -- -- -- -- --
04B0:                                            66 29                f)
04C0: 80 F8 FF FF 7F F8 FF FF  7F 74 68 6B 32 00        .........thk2.  
```

#### Opcodes

```
  0: 0x04BE [0x66] LOAD_EXT_SCHEDULER_MAIN: Load scheduler "thk2" with entities [EventEntity, EventEntity], work=40*
  1: 0x04CD [0x00] END_REQSTACK()
```

### Event 65535.6

#### Metadata

| Field        | Value    |
|--------------|----------|
| Entrypoint   | 0x04CE   |
| Data Size    | 14 bytes |
| Instructions | 2        |

```
      00 01 02 03 04 05 06 07  08 09 0A 0B 0C 0D 0E 0F
      -- -- -- -- -- -- -- --  -- -- -- -- -- -- -- --
04C0:                                            53 F8                S.
04D0: FF FF 7F F8 FF FF 7F 74  68 6B 32 00              .......thk2.    
```

#### Opcodes

```
  0: 0x04CE [0x53] WAIT_SCHEDULER_TASK: Wait for scheduler "thk2" with entities [EventEntity, EventEntity]
  1: 0x04DB [0x00] END_REQSTACK()
```

### Event 65535.7

#### Metadata

| Field        | Value    |
|--------------|----------|
| Entrypoint   | 0x04DC   |
| Data Size    | 16 bytes |
| Instructions | 2        |

```
      00 01 02 03 04 05 06 07  08 09 0A 0B 0C 0D 0E 0F
      -- -- -- -- -- -- -- --  -- -- -- -- -- -- -- --
04D0:                                      66 2A 80 F8              f*..
04E0: FF FF 7F F8 FF FF 7F 73  68 6B 30 00              .......shk0.    
```

#### Opcodes

```
  0: 0x04DC [0x66] LOAD_EXT_SCHEDULER_MAIN: Load scheduler "shk0" with entities [EventEntity, EventEntity], work=41*
  1: 0x04EB [0x00] END_REQSTACK()
```

### Event 65535.8

#### Metadata

| Field        | Value    |
|--------------|----------|
| Entrypoint   | 0x04EC   |
| Data Size    | 14 bytes |
| Instructions | 2        |

```
      00 01 02 03 04 05 06 07  08 09 0A 0B 0C 0D 0E 0F
      -- -- -- -- -- -- -- --  -- -- -- -- -- -- -- --
04E0:                                      53 F8 FF FF              S...
04F0: 7F F8 FF FF 7F 73 68 6B  30 00                    .....shk0.      
```

#### Opcodes

```
  0: 0x04EC [0x53] WAIT_SCHEDULER_TASK: Wait for scheduler "shk0" with entities [EventEntity, EventEntity]
  1: 0x04F9 [0x00] END_REQSTACK()
```

### Event 65535.9

#### Metadata

| Field        | Value    |
|--------------|----------|
| Entrypoint   | 0x04FA   |
| Data Size    | 16 bytes |
| Instructions | 2        |

```
      00 01 02 03 04 05 06 07  08 09 0A 0B 0C 0D 0E 0F
      -- -- -- -- -- -- -- --  -- -- -- -- -- -- -- --
04F0:                                66 29 80 F8 FF FF            f)....
0500: 7F F8 FF FF 7F 64 69 73  30 00                    .....dis0.      
```

#### Opcodes

```
  0: 0x04FA [0x66] LOAD_EXT_SCHEDULER_MAIN: Load scheduler "dis0" with entities [EventEntity, EventEntity], work=40*
  1: 0x0509 [0x00] END_REQSTACK()
```

### Event 65535.10

#### Metadata

| Field        | Value    |
|--------------|----------|
| Entrypoint   | 0x050A   |
| Data Size    | 14 bytes |
| Instructions | 2        |

```
      00 01 02 03 04 05 06 07  08 09 0A 0B 0C 0D 0E 0F
      -- -- -- -- -- -- -- --  -- -- -- -- -- -- -- --
0500:                                53 F8 FF FF 7F F8            S.....
0510: FF FF 7F 64 69 73 30 00                           ...dis0.        
```

#### Opcodes

```
  0: 0x050A [0x53] WAIT_SCHEDULER_TASK: Wait for scheduler "dis0" with entities [EventEntity, EventEntity]
  1: 0x0517 [0x00] END_REQSTACK()
```

### Event 65535.11

#### Metadata

| Field        | Value    |
|--------------|----------|
| Entrypoint   | 0x0518   |
| Data Size    | 16 bytes |
| Instructions | 2        |

```
      00 01 02 03 04 05 06 07  08 09 0A 0B 0C 0D 0E 0F
      -- -- -- -- -- -- -- --  -- -- -- -- -- -- -- --
0510:                          66 29 80 F8 FF FF 7F F8          f)......
0520: FF FF 7F 70 6F 69 30 00                           ...poi0.        
```

#### Opcodes

```
  0: 0x0518 [0x66] LOAD_EXT_SCHEDULER_MAIN: Load scheduler "poi0" with entities [EventEntity, EventEntity], work=40*
  1: 0x0527 [0x00] END_REQSTACK()
```

### Event 65535.12

#### Metadata

| Field        | Value    |
|--------------|----------|
| Entrypoint   | 0x0528   |
| Data Size    | 14 bytes |
| Instructions | 2        |

```
      00 01 02 03 04 05 06 07  08 09 0A 0B 0C 0D 0E 0F
      -- -- -- -- -- -- -- --  -- -- -- -- -- -- -- --
0520:                          53 F8 FF FF 7F F8 FF FF          S.......
0530: 7F 70 6F 69 30 00                                 .poi0.          
```

#### Opcodes

```
  0: 0x0528 [0x53] WAIT_SCHEDULER_TASK: Wait for scheduler "poi0" with entities [EventEntity, EventEntity]
  1: 0x0535 [0x00] END_REQSTACK()
```

### Event 65535.13

#### Metadata

| Field        | Value    |
|--------------|----------|
| Entrypoint   | 0x0536   |
| Data Size    | 16 bytes |
| Instructions | 2        |

```
      00 01 02 03 04 05 06 07  08 09 0A 0B 0C 0D 0E 0F
      -- -- -- -- -- -- -- --  -- -- -- -- -- -- -- --
0530:                   66 29  80 F8 FF FF 7F F8 FF FF        f)........
0540: 7F 70 61 73 30 00                                 .pas0.          
```

#### Opcodes

```
  0: 0x0536 [0x66] LOAD_EXT_SCHEDULER_MAIN: Load scheduler "pas0" with entities [EventEntity, EventEntity], work=40*
  1: 0x0545 [0x00] END_REQSTACK()
```

### Event 65535.14

#### Metadata

| Field        | Value    |
|--------------|----------|
| Entrypoint   | 0x0546   |
| Data Size    | 14 bytes |
| Instructions | 2        |

```
      00 01 02 03 04 05 06 07  08 09 0A 0B 0C 0D 0E 0F
      -- -- -- -- -- -- -- --  -- -- -- -- -- -- -- --
0540:                   53 F8  FF FF 7F F8 FF FF 7F 70        S........p
0550: 61 73 30 00                                       as0.            
```

#### Opcodes

```
  0: 0x0546 [0x53] WAIT_SCHEDULER_TASK: Wait for scheduler "pas0" with entities [EventEntity, EventEntity]
  1: 0x0553 [0x00] END_REQSTACK()
```

### Event 65535.15

#### Metadata

| Field        | Value    |
|--------------|----------|
| Entrypoint   | 0x0554   |
| Data Size    | 16 bytes |
| Instructions | 2        |

```
      00 01 02 03 04 05 06 07  08 09 0A 0B 0C 0D 0E 0F
      -- -- -- -- -- -- -- --  -- -- -- -- -- -- -- --
0550:             66 29 80 F8  FF FF 7F F8 FF FF 7F 73      f).........s
0560: 79 75 30 00                                       yu0.            
```

#### Opcodes

```
  0: 0x0554 [0x66] LOAD_EXT_SCHEDULER_MAIN: Load scheduler "syu0" with entities [EventEntity, EventEntity], work=40*
  1: 0x0563 [0x00] END_REQSTACK()
```

### Event 65535.16

#### Metadata

| Field        | Value    |
|--------------|----------|
| Entrypoint   | 0x0564   |
| Data Size    | 14 bytes |
| Instructions | 2        |

```
      00 01 02 03 04 05 06 07  08 09 0A 0B 0C 0D 0E 0F
      -- -- -- -- -- -- -- --  -- -- -- -- -- -- -- --
0560:             53 F8 FF FF  7F F8 FF FF 7F 73 79 75      S........syu
0570: 30 00                                             0.              
```

#### Opcodes

```
  0: 0x0564 [0x53] WAIT_SCHEDULER_TASK: Wait for scheduler "syu0" with entities [EventEntity, EventEntity]
  1: 0x0571 [0x00] END_REQSTACK()
```

### Event 65535.17

#### Metadata

| Field        | Value    |
|--------------|----------|
| Entrypoint   | 0x0572   |
| Data Size    | 16 bytes |
| Instructions | 2        |

```
      00 01 02 03 04 05 06 07  08 09 0A 0B 0C 0D 0E 0F
      -- -- -- -- -- -- -- --  -- -- -- -- -- -- -- --
0570:       66 29 80 F8 FF FF  7F F8 FF FF 7F 77 61 76    f).........wav
0580: 30 00                                             0.              
```

#### Opcodes

```
  0: 0x0572 [0x66] LOAD_EXT_SCHEDULER_MAIN: Load scheduler "wav0" with entities [EventEntity, EventEntity], work=40*
  1: 0x0581 [0x00] END_REQSTACK()
```

### Event 65535.18

#### Metadata

| Field        | Value    |
|--------------|----------|
| Entrypoint   | 0x0582   |
| Data Size    | 14 bytes |
| Instructions | 2        |

```
      00 01 02 03 04 05 06 07  08 09 0A 0B 0C 0D 0E 0F
      -- -- -- -- -- -- -- --  -- -- -- -- -- -- -- --
0580:       53 F8 FF FF 7F F8  FF FF 7F 77 61 76 30 00    S........wav0.
```

#### Opcodes

```
  0: 0x0582 [0x53] WAIT_SCHEDULER_TASK: Wait for scheduler "wav0" with entities [EventEntity, EventEntity]
  1: 0x058F [0x00] END_REQSTACK()
```

### Event 65535.19

#### Metadata

| Field        | Value    |
|--------------|----------|
| Entrypoint   | 0x0590   |
| Data Size    | 16 bytes |
| Instructions | 2        |

```
      00 01 02 03 04 05 06 07  08 09 0A 0B 0C 0D 0E 0F
      -- -- -- -- -- -- -- --  -- -- -- -- -- -- -- --
0590: 66 2A 80 F8 FF FF 7F F8  FF FF 7F 65 68 6E 30 00  f*.........ehn0.
```

#### Opcodes

```
  0: 0x0590 [0x66] LOAD_EXT_SCHEDULER_MAIN: Load scheduler "ehn0" with entities [EventEntity, EventEntity], work=41*
  1: 0x059F [0x00] END_REQSTACK()
```

### Event 65535.20

#### Metadata

| Field        | Value    |
|--------------|----------|
| Entrypoint   | 0x05A0   |
| Data Size    | 22 bytes |
| Instructions | 4        |

```
      00 01 02 03 04 05 06 07  08 09 0A 0B 0C 0D 0E 0F
      -- -- -- -- -- -- -- --  -- -- -- -- -- -- -- --
05A0: 53 F8 FF FF 7F F8 FF FF  7F 65 68 6E 30 5E 69 64  S........ehn0^id
05B0: 6C 30 1C 2B 80 00                                 l0.+..          
```

#### Opcodes

```
  0: 0x05A0 [0x53] WAIT_SCHEDULER_TASK: Wait for scheduler "ehn0" with entities [EventEntity, EventEntity]
  1: 0x05AD [0x5E] EventEntity goes idle (kills current action) (animation: "idl0")
  2: 0x05B2 [0x1C] WAIT(60* ticks)
  3: 0x05B5 [0x00] END_REQSTACK()
```

### Event 65535.21

#### Metadata

| Field        | Value    |
|--------------|----------|
| Entrypoint   | 0x05B6   |
| Data Size    | 16 bytes |
| Instructions | 2        |

```
      00 01 02 03 04 05 06 07  08 09 0A 0B 0C 0D 0E 0F
      -- -- -- -- -- -- -- --  -- -- -- -- -- -- -- --
05B0:                   66 2A  80 F8 FF FF 7F F8 FF FF        f*........
05C0: 7F 65 68 6E 31 00                                 .ehn1.          
```

#### Opcodes

```
  0: 0x05B6 [0x66] LOAD_EXT_SCHEDULER_MAIN: Load scheduler "ehn1" with entities [EventEntity, EventEntity], work=41*
  1: 0x05C5 [0x00] END_REQSTACK()
```

### Event 65535.22

#### Metadata

| Field        | Value    |
|--------------|----------|
| Entrypoint   | 0x05C6   |
| Data Size    | 14 bytes |
| Instructions | 2        |

```
      00 01 02 03 04 05 06 07  08 09 0A 0B 0C 0D 0E 0F
      -- -- -- -- -- -- -- --  -- -- -- -- -- -- -- --
05C0:                   53 F8  FF FF 7F F8 FF FF 7F 65        S........e
05D0: 68 6E 31 00                                       hn1.            
```

#### Opcodes

```
  0: 0x05C6 [0x53] WAIT_SCHEDULER_TASK: Wait for scheduler "ehn1" with entities [EventEntity, EventEntity]
  1: 0x05D3 [0x00] END_REQSTACK()
```

### Event 65535.23

#### Metadata

| Field        | Value    |
|--------------|----------|
| Entrypoint   | 0x05D4   |
| Data Size    | 16 bytes |
| Instructions | 2        |

```
      00 01 02 03 04 05 06 07  08 09 0A 0B 0C 0D 0E 0F
      -- -- -- -- -- -- -- --  -- -- -- -- -- -- -- --
05D0:             66 2C 80 F8  FF FF 7F F8 FF FF 7F 6D      f,.........m
05E0: 73 75 30 00                                       su0.            
```

#### Opcodes

```
  0: 0x05D4 [0x66] LOAD_EXT_SCHEDULER_MAIN: Load scheduler "msu0" with entities [EventEntity, EventEntity], work=42*
  1: 0x05E3 [0x00] END_REQSTACK()
```

### Event 65535.24

#### Metadata

| Field        | Value    |
|--------------|----------|
| Entrypoint   | 0x05E4   |
| Data Size    | 14 bytes |
| Instructions | 2        |

```
      00 01 02 03 04 05 06 07  08 09 0A 0B 0C 0D 0E 0F
      -- -- -- -- -- -- -- --  -- -- -- -- -- -- -- --
05E0:             53 F8 FF FF  7F F8 FF FF 7F 6D 73 75      S........msu
05F0: 30 00                                             0.              
```

#### Opcodes

```
  0: 0x05E4 [0x53] WAIT_SCHEDULER_TASK: Wait for scheduler "msu0" with entities [EventEntity, EventEntity]
  1: 0x05F1 [0x00] END_REQSTACK()
```

### Event 65535.25

#### Metadata

| Field        | Value    |
|--------------|----------|
| Entrypoint   | 0x05F2   |
| Data Size    | 16 bytes |
| Instructions | 2        |

```
      00 01 02 03 04 05 06 07  08 09 0A 0B 0C 0D 0E 0F
      -- -- -- -- -- -- -- --  -- -- -- -- -- -- -- --
05F0:       66 2C 80 F8 FF FF  7F F8 FF FF 7F 6D 73 75    f,.........msu
0600: 31 00                                             1.              
```

#### Opcodes

```
  0: 0x05F2 [0x66] LOAD_EXT_SCHEDULER_MAIN: Load scheduler "msu1" with entities [EventEntity, EventEntity], work=42*
  1: 0x0601 [0x00] END_REQSTACK()
```

### Event 65535.26

#### Metadata

| Field        | Value    |
|--------------|----------|
| Entrypoint   | 0x0602   |
| Data Size    | 22 bytes |
| Instructions | 4        |

```
      00 01 02 03 04 05 06 07  08 09 0A 0B 0C 0D 0E 0F
      -- -- -- -- -- -- -- --  -- -- -- -- -- -- -- --
0600:       53 F8 FF FF 7F F8  FF FF 7F 6D 73 75 31 5E    S........msu1^
0610: 69 64 6C 30 1C 2B 80 00                           idl0.+..        
```

#### Opcodes

```
  0: 0x0602 [0x53] WAIT_SCHEDULER_TASK: Wait for scheduler "msu1" with entities [EventEntity, EventEntity]
  1: 0x060F [0x5E] EventEntity goes idle (kills current action) (animation: "idl0")
  2: 0x0614 [0x1C] WAIT(60* ticks)
  3: 0x0617 [0x00] END_REQSTACK()
```

### Event 65535.27

#### Metadata

| Field        | Value    |
|--------------|----------|
| Entrypoint   | 0x0618   |
| Data Size    | 16 bytes |
| Instructions | 2        |

```
      00 01 02 03 04 05 06 07  08 09 0A 0B 0C 0D 0E 0F
      -- -- -- -- -- -- -- --  -- -- -- -- -- -- -- --
0610:                          66 2A 80 F8 FF FF 7F F8          f*......
0620: FF FF 7F 67 68 6E 31 00                           ...ghn1.        
```

#### Opcodes

```
  0: 0x0618 [0x66] LOAD_EXT_SCHEDULER_MAIN: Load scheduler "ghn1" with entities [EventEntity, EventEntity], work=41*
  1: 0x0627 [0x00] END_REQSTACK()
```

### Event 65535.28

#### Metadata

| Field        | Value    |
|--------------|----------|
| Entrypoint   | 0x0628   |
| Data Size    | 14 bytes |
| Instructions | 2        |

```
      00 01 02 03 04 05 06 07  08 09 0A 0B 0C 0D 0E 0F
      -- -- -- -- -- -- -- --  -- -- -- -- -- -- -- --
0620:                          53 F8 FF FF 7F F8 FF FF          S.......
0630: 7F 67 68 6E 31 00                                 .ghn1.          
```

#### Opcodes

```
  0: 0x0628 [0x53] WAIT_SCHEDULER_TASK: Wait for scheduler "ghn1" with entities [EventEntity, EventEntity]
  1: 0x0635 [0x00] END_REQSTACK()
```

### Event 65535.29

#### Metadata

| Field        | Value    |
|--------------|----------|
| Entrypoint   | 0x0636   |
| Data Size    | 16 bytes |
| Instructions | 2        |

```
      00 01 02 03 04 05 06 07  08 09 0A 0B 0C 0D 0E 0F
      -- -- -- -- -- -- -- --  -- -- -- -- -- -- -- --
0630:                   66 29  80 F8 FF FF 7F F8 FF FF        f)........
0640: 7F 69 72 6F 30 00                                 .iro0.          
```

#### Opcodes

```
  0: 0x0636 [0x66] LOAD_EXT_SCHEDULER_MAIN: Load scheduler "iro0" with entities [EventEntity, EventEntity], work=40*
  1: 0x0645 [0x00] END_REQSTACK()
```

### Event 65535.30

#### Metadata

| Field        | Value    |
|--------------|----------|
| Entrypoint   | 0x0646   |
| Data Size    | 14 bytes |
| Instructions | 2        |

```
      00 01 02 03 04 05 06 07  08 09 0A 0B 0C 0D 0E 0F
      -- -- -- -- -- -- -- --  -- -- -- -- -- -- -- --
0640:                   53 F8  FF FF 7F F8 FF FF 7F 69        S........i
0650: 72 6F 30 00                                       ro0.            
```

#### Opcodes

```
  0: 0x0646 [0x53] WAIT_SCHEDULER_TASK: Wait for scheduler "iro0" with entities [EventEntity, EventEntity]
  1: 0x0653 [0x00] END_REQSTACK()
```

### Event 65535.31

#### Metadata

| Field        | Value    |
|--------------|----------|
| Entrypoint   | 0x0654   |
| Data Size    | 16 bytes |
| Instructions | 2        |

```
      00 01 02 03 04 05 06 07  08 09 0A 0B 0C 0D 0E 0F
      -- -- -- -- -- -- -- --  -- -- -- -- -- -- -- --
0650:             66 29 80 F8  FF FF 7F F8 FF FF 7F 77      f).........w
0660: 61 69 30 00                                       ai0.            
```

#### Opcodes

```
  0: 0x0654 [0x66] LOAD_EXT_SCHEDULER_MAIN: Load scheduler "wai0" with entities [EventEntity, EventEntity], work=40*
  1: 0x0663 [0x00] END_REQSTACK()
```

### Event 65535.32

#### Metadata

| Field        | Value    |
|--------------|----------|
| Entrypoint   | 0x0664   |
| Data Size    | 14 bytes |
| Instructions | 2        |

```
      00 01 02 03 04 05 06 07  08 09 0A 0B 0C 0D 0E 0F
      -- -- -- -- -- -- -- --  -- -- -- -- -- -- -- --
0660:             53 F8 FF FF  7F F8 FF FF 7F 77 61 69      S........wai
0670: 30 00                                             0.              
```

#### Opcodes

```
  0: 0x0664 [0x53] WAIT_SCHEDULER_TASK: Wait for scheduler "wai0" with entities [EventEntity, EventEntity]
  1: 0x0671 [0x00] END_REQSTACK()
```

### Event 65535.33

#### Metadata

| Field        | Value    |
|--------------|----------|
| Entrypoint   | 0x0672   |
| Data Size    | 16 bytes |
| Instructions | 2        |

```
      00 01 02 03 04 05 06 07  08 09 0A 0B 0C 0D 0E 0F
      -- -- -- -- -- -- -- --  -- -- -- -- -- -- -- --
0670:       66 2C 80 F8 FF FF  7F F8 FF FF 7F 62 69 6B    f,.........bik
0680: 30 00                                             0.              
```

#### Opcodes

```
  0: 0x0672 [0x66] LOAD_EXT_SCHEDULER_MAIN: Load scheduler "bik0" with entities [EventEntity, EventEntity], work=42*
  1: 0x0681 [0x00] END_REQSTACK()
```

### Event 65535.34

#### Metadata

| Field        | Value    |
|--------------|----------|
| Entrypoint   | 0x0682   |
| Data Size    | 14 bytes |
| Instructions | 2        |

```
      00 01 02 03 04 05 06 07  08 09 0A 0B 0C 0D 0E 0F
      -- -- -- -- -- -- -- --  -- -- -- -- -- -- -- --
0680:       53 F8 FF FF 7F F8  FF FF 7F 62 69 6B 30 00    S........bik0.
```

#### Opcodes

```
  0: 0x0682 [0x53] WAIT_SCHEDULER_TASK: Wait for scheduler "bik0" with entities [EventEntity, EventEntity]
  1: 0x068F [0x00] END_REQSTACK()
```

### Event 65535.35

#### Metadata

| Field        | Value    |
|--------------|----------|
| Entrypoint   | 0x0690   |
| Data Size    | 16 bytes |
| Instructions | 2        |

```
      00 01 02 03 04 05 06 07  08 09 0A 0B 0C 0D 0E 0F
      -- -- -- -- -- -- -- --  -- -- -- -- -- -- -- --
0690: 66 2C 80 F8 FF FF 7F F8  FF FF 7F 62 69 6B 31 00  f,.........bik1.
```

#### Opcodes

```
  0: 0x0690 [0x66] LOAD_EXT_SCHEDULER_MAIN: Load scheduler "bik1" with entities [EventEntity, EventEntity], work=42*
  1: 0x069F [0x00] END_REQSTACK()
```

### Event 65535.36

#### Metadata

| Field        | Value    |
|--------------|----------|
| Entrypoint   | 0x06A0   |
| Data Size    | 14 bytes |
| Instructions | 2        |

```
      00 01 02 03 04 05 06 07  08 09 0A 0B 0C 0D 0E 0F
      -- -- -- -- -- -- -- --  -- -- -- -- -- -- -- --
06A0: 53 F8 FF FF 7F F8 FF FF  7F 62 69 6B 31 00        S........bik1.  
```

#### Opcodes

```
  0: 0x06A0 [0x53] WAIT_SCHEDULER_TASK: Wait for scheduler "bik1" with entities [EventEntity, EventEntity]
  1: 0x06AD [0x00] END_REQSTACK()
```

### Event 65535.37

#### Metadata

| Field        | Value    |
|--------------|----------|
| Entrypoint   | 0x06AE   |
| Data Size    | 16 bytes |
| Instructions | 2        |

```
      00 01 02 03 04 05 06 07  08 09 0A 0B 0C 0D 0E 0F
      -- -- -- -- -- -- -- --  -- -- -- -- -- -- -- --
06A0:                                            66 29                f)
06B0: 80 F8 FF FF 7F F8 FF FF  7F 67 6B 72 30 00        .........gkr0.  
```

#### Opcodes

```
  0: 0x06AE [0x66] LOAD_EXT_SCHEDULER_MAIN: Load scheduler "gkr0" with entities [EventEntity, EventEntity], work=40*
  1: 0x06BD [0x00] END_REQSTACK()
```

### Event 65535.38

#### Metadata

| Field        | Value    |
|--------------|----------|
| Entrypoint   | 0x06BE   |
| Data Size    | 14 bytes |
| Instructions | 2        |

```
      00 01 02 03 04 05 06 07  08 09 0A 0B 0C 0D 0E 0F
      -- -- -- -- -- -- -- --  -- -- -- -- -- -- -- --
06B0:                                            53 F8                S.
06C0: FF FF 7F F8 FF FF 7F 67  6B 72 30 00              .......gkr0.    
```

#### Opcodes

```
  0: 0x06BE [0x53] WAIT_SCHEDULER_TASK: Wait for scheduler "gkr0" with entities [EventEntity, EventEntity]
  1: 0x06CB [0x00] END_REQSTACK()
```

### Event 65535.39

#### Metadata

| Field        | Value    |
|--------------|----------|
| Entrypoint   | 0x06CC   |
| Data Size    | 16 bytes |
| Instructions | 2        |

```
      00 01 02 03 04 05 06 07  08 09 0A 0B 0C 0D 0E 0F
      -- -- -- -- -- -- -- --  -- -- -- -- -- -- -- --
06C0:                                      66 29 80 F8              f)..
06D0: FF FF 7F F8 FF FF 7F 67  6B 72 31 00              .......gkr1.    
```

#### Opcodes

```
  0: 0x06CC [0x66] LOAD_EXT_SCHEDULER_MAIN: Load scheduler "gkr1" with entities [EventEntity, EventEntity], work=40*
  1: 0x06DB [0x00] END_REQSTACK()
```

### Event 65535.40

#### Metadata

| Field        | Value    |
|--------------|----------|
| Entrypoint   | 0x06DC   |
| Data Size    | 14 bytes |
| Instructions | 2        |

```
      00 01 02 03 04 05 06 07  08 09 0A 0B 0C 0D 0E 0F
      -- -- -- -- -- -- -- --  -- -- -- -- -- -- -- --
06D0:                                      53 F8 FF FF              S...
06E0: 7F F8 FF FF 7F 67 6B 72  31 00                    .....gkr1.      
```

#### Opcodes

```
  0: 0x06DC [0x53] WAIT_SCHEDULER_TASK: Wait for scheduler "gkr1" with entities [EventEntity, EventEntity]
  1: 0x06E9 [0x00] END_REQSTACK()
```

### Event 65535.41

#### Metadata

| Field        | Value    |
|--------------|----------|
| Entrypoint   | 0x06EA   |
| Data Size    | 16 bytes |
| Instructions | 2        |

```
      00 01 02 03 04 05 06 07  08 09 0A 0B 0C 0D 0E 0F
      -- -- -- -- -- -- -- --  -- -- -- -- -- -- -- --
06E0:                                66 2A 80 F8 FF FF            f*....
06F0: 7F F8 FF FF 7F 6F 68 68  30 00                    .....ohh0.      
```

#### Opcodes

```
  0: 0x06EA [0x66] LOAD_EXT_SCHEDULER_MAIN: Load scheduler "ohh0" with entities [EventEntity, EventEntity], work=41*
  1: 0x06F9 [0x00] END_REQSTACK()
```

### Event 65535.42

#### Metadata

| Field        | Value    |
|--------------|----------|
| Entrypoint   | 0x06FA   |
| Data Size    | 22 bytes |
| Instructions | 4        |

```
      00 01 02 03 04 05 06 07  08 09 0A 0B 0C 0D 0E 0F
      -- -- -- -- -- -- -- --  -- -- -- -- -- -- -- --
06F0:                                53 F8 FF FF 7F F8            S.....
0700: FF FF 7F 6F 68 68 30 5E  69 64 6C 30 1C 2B 80 00  ...ohh0^idl0.+..
```

#### Opcodes

```
  0: 0x06FA [0x53] WAIT_SCHEDULER_TASK: Wait for scheduler "ohh0" with entities [EventEntity, EventEntity]
  1: 0x0707 [0x5E] EventEntity goes idle (kills current action) (animation: "idl0")
  2: 0x070C [0x1C] WAIT(60* ticks)
  3: 0x070F [0x00] END_REQSTACK()
```

### Event 65535.43

#### Metadata

| Field        | Value    |
|--------------|----------|
| Entrypoint   | 0x0710   |
| Data Size    | 44 bytes |
| Instructions | 4        |

```
      00 01 02 03 04 05 06 07  08 09 0A 0B 0C 0D 0E 0F
      -- -- -- -- -- -- -- --  -- -- -- -- -- -- -- --
0710: 66 2A 80 F8 FF FF 7F F8  FF FF 7F 73 68 6B 30 53  f*.........shk0S
0720: F8 FF FF 7F F8 FF FF 7F  73 68 6B 30 66 29 80 F8  ........shk0f)..
0730: FF FF 7F F8 FF FF 7F 7A  69 74 30 00              .......zit0.    
```

#### Opcodes

```
  0: 0x0710 [0x66] LOAD_EXT_SCHEDULER_MAIN: Load scheduler "shk0" with entities [EventEntity, EventEntity], work=41*
  1: 0x071F [0x53] WAIT_SCHEDULER_TASK: Wait for scheduler "shk0" with entities [EventEntity, EventEntity]
  2: 0x072C [0x66] LOAD_EXT_SCHEDULER_MAIN: Load scheduler "zit0" with entities [EventEntity, EventEntity], work=40*
  3: 0x073B [0x00] END_REQSTACK()
```

### Event 65535.44

#### Metadata

| Field        | Value    |
|--------------|----------|
| Entrypoint   | 0x073C   |
| Data Size    | 16 bytes |
| Instructions | 2        |

```
      00 01 02 03 04 05 06 07  08 09 0A 0B 0C 0D 0E 0F
      -- -- -- -- -- -- -- --  -- -- -- -- -- -- -- --
0730:                                      66 29 80 F8              f)..
0740: FF FF 7F F8 FF FF 7F 7A  69 74 30 00              .......zit0.    
```

#### Opcodes

```
  0: 0x073C [0x66] LOAD_EXT_SCHEDULER_MAIN: Load scheduler "zit0" with entities [EventEntity, EventEntity], work=40*
  1: 0x074B [0x00] END_REQSTACK()
```

### Event 65535.45

#### Metadata

| Field        | Value    |
|--------------|----------|
| Entrypoint   | 0x074C   |
| Data Size    | 14 bytes |
| Instructions | 2        |

```
      00 01 02 03 04 05 06 07  08 09 0A 0B 0C 0D 0E 0F
      -- -- -- -- -- -- -- --  -- -- -- -- -- -- -- --
0740:                                      53 F8 FF FF              S...
0750: 7F F8 FF FF 7F 7A 69 74  30 00                    .....zit0.      
```

#### Opcodes

```
  0: 0x074C [0x53] WAIT_SCHEDULER_TASK: Wait for scheduler "zit0" with entities [EventEntity, EventEntity]
  1: 0x0759 [0x00] END_REQSTACK()
```

### Event 65535.46

#### Metadata

| Field        | Value    |
|--------------|----------|
| Entrypoint   | 0x075A   |
| Data Size    | 18 bytes |
| Instructions | 4        |

```
      00 01 02 03 04 05 06 07  08 09 0A 0B 0C 0D 0E 0F
      -- -- -- -- -- -- -- --  -- -- -- -- -- -- -- --
0750:                                6E F8 FF FF 7F 0A            n.....
0760: 80 99 F8 FF FF 7F 99 F8  FF FF 7F 00              ............    
```

#### Opcodes

```
  0: 0x075A [0x6E] EventEntity uses emote 1*
  1: 0x0761 [0x99] Wait for EventEntity animation to complete
  2: 0x0766 [0x99] Wait for EventEntity animation to complete
  3: 0x076B [0x00] END_REQSTACK()
```

### Event 65535.47

#### Metadata

| Field        | Value    |
|--------------|----------|
| Entrypoint   | 0x076C   |
| Data Size    | 18 bytes |
| Instructions | 4        |

```
      00 01 02 03 04 05 06 07  08 09 0A 0B 0C 0D 0E 0F
      -- -- -- -- -- -- -- --  -- -- -- -- -- -- -- --
0760:                                      6E F8 FF FF              n...
0770: 7F 21 80 99 F8 FF FF 7F  99 F8 FF FF 7F 00        .!............  
```

#### Opcodes

```
  0: 0x076C [0x6E] EventEntity uses emote 7*
  1: 0x0773 [0x99] Wait for EventEntity animation to complete
  2: 0x0778 [0x99] Wait for EventEntity animation to complete
  3: 0x077D [0x00] END_REQSTACK()
```

### Event 65535.48

#### Metadata

| Field        | Value    |
|--------------|----------|
| Entrypoint   | 0x077E   |
| Data Size    | 18 bytes |
| Instructions | 4        |

```
      00 01 02 03 04 05 06 07  08 09 0A 0B 0C 0D 0E 0F
      -- -- -- -- -- -- -- --  -- -- -- -- -- -- -- --
0770:                                            6E F8                n.
0780: FF FF 7F 0B 80 99 F8 FF  FF 7F 99 F8 FF FF 7F 00  ................
```

#### Opcodes

```
  0: 0x077E [0x6E] EventEntity uses emote 6*
  1: 0x0785 [0x99] Wait for EventEntity animation to complete
  2: 0x078A [0x99] Wait for EventEntity animation to complete
  3: 0x078F [0x00] END_REQSTACK()
```

### Event 65535.49

#### Metadata

| Field        | Value    |
|--------------|----------|
| Entrypoint   | 0x0790   |
| Data Size    | 18 bytes |
| Instructions | 4        |

```
      00 01 02 03 04 05 06 07  08 09 0A 0B 0C 0D 0E 0F
      -- -- -- -- -- -- -- --  -- -- -- -- -- -- -- --
0790: 6E F8 FF FF 7F 2D 80 99  F8 FF FF 7F 99 F8 FF FF  n....-..........
07A0: 7F 00                                             ..              
```

#### Opcodes

```
  0: 0x0790 [0x6E] EventEntity uses emote 8*
  1: 0x0797 [0x99] Wait for EventEntity animation to complete
  2: 0x079C [0x99] Wait for EventEntity animation to complete
  3: 0x07A1 [0x00] END_REQSTACK()
```

### Event 65535.50

#### Metadata

| Field        | Value    |
|--------------|----------|
| Entrypoint   | 0x07A2   |
| Data Size    | 18 bytes |
| Instructions | 4        |

```
      00 01 02 03 04 05 06 07  08 09 0A 0B 0C 0D 0E 0F
      -- -- -- -- -- -- -- --  -- -- -- -- -- -- -- --
07A0:       6E F8 FF FF 7F 2E  80 99 F8 FF FF 7F 99 F8    n.............
07B0: FF FF 7F 00                                       ....            
```

#### Opcodes

```
  0: 0x07A2 [0x6E] EventEntity uses emote 13*
  1: 0x07A9 [0x99] Wait for EventEntity animation to complete
  2: 0x07AE [0x99] Wait for EventEntity animation to complete
  3: 0x07B3 [0x00] END_REQSTACK()
```

### Event 65535.51

#### Metadata

| Field        | Value    |
|--------------|----------|
| Entrypoint   | 0x07B4   |
| Data Size    | 27 bytes |
| Instructions | 3        |

```
      00 01 02 03 04 05 06 07  08 09 0A 0B 0C 0D 0E 0F
      -- -- -- -- -- -- -- --  -- -- -- -- -- -- -- --
07B0:             2C F8 FF FF  7F F8 FF FF 7F 64 65 61      ,........dea
07C0: 64 53 F8 FF FF 7F F8 FF  FF 7F 64 65 61 64 00     dS........dead. 
```

#### Opcodes

```
  0: 0x07B4 [0x2C] CREATE_SCHEDULER_TASK: Create scheduler "dead" with entities [EventEntity, EventEntity]
  1: 0x07C1 [0x53] WAIT_SCHEDULER_TASK: Wait for scheduler "dead" with entities [EventEntity, EventEntity]
  2: 0x07CE [0x00] END_REQSTACK()
```

### Event 65535.52

#### Metadata

| Field        | Value   |
|--------------|---------|
| Entrypoint   | 0x07CF  |
| Data Size    | 9 bytes |
| Instructions | 3       |

```
      00 01 02 03 04 05 06 07  08 09 0A 0B 0C 0D 0E 0F
      -- -- -- -- -- -- -- --  -- -- -- -- -- -- -- --
07C0:                                               5E                 ^
07D0: 69 64 6C 30 1C 2B 80 00                           idl0.+..        
```

#### Opcodes

```
  0: 0x07CF [0x5E] EventEntity goes idle (kills current action) (animation: "idl0")
  1: 0x07D4 [0x1C] WAIT(60* ticks)
  2: 0x07D7 [0x00] END_REQSTACK()
```

### Event 65535.53

#### Metadata

| Field        | Value    |
|--------------|----------|
| Entrypoint   | 0x07D8   |
| Data Size    | 16 bytes |
| Instructions | 2        |

```
      00 01 02 03 04 05 06 07  08 09 0A 0B 0C 0D 0E 0F
      -- -- -- -- -- -- -- --  -- -- -- -- -- -- -- --
07D0:                          66 2A 80 F8 FF FF 7F F8          f*......
07E0: FF FF 7F 63 61 62 6B 00                           ...cabk.        
```

#### Opcodes

```
  0: 0x07D8 [0x66] LOAD_EXT_SCHEDULER_MAIN: Load scheduler "cabk" with entities [EventEntity, EventEntity], work=41*
  1: 0x07E7 [0x00] END_REQSTACK()
```

### Event 65535.54

#### Metadata

| Field        | Value    |
|--------------|----------|
| Entrypoint   | 0x07E8   |
| Data Size    | 14 bytes |
| Instructions | 2        |

```
      00 01 02 03 04 05 06 07  08 09 0A 0B 0C 0D 0E 0F
      -- -- -- -- -- -- -- --  -- -- -- -- -- -- -- --
07E0:                          53 F8 FF FF 7F F8 FF FF          S.......
07F0: 7F 63 61 62 6B 00                                 .cabk.          
```

#### Opcodes

```
  0: 0x07E8 [0x53] WAIT_SCHEDULER_TASK: Wait for scheduler "cabk" with entities [EventEntity, EventEntity]
  1: 0x07F5 [0x00] END_REQSTACK()
```

### Event 65535.55

#### Metadata

| Field        | Value    |
|--------------|----------|
| Entrypoint   | 0x07F6   |
| Data Size    | 16 bytes |
| Instructions | 2        |

```
      00 01 02 03 04 05 06 07  08 09 0A 0B 0C 0D 0E 0F
      -- -- -- -- -- -- -- --  -- -- -- -- -- -- -- --
07F0:                   66 2F  80 F8 FF FF 7F F8 FF FF        f/........
0800: 7F 73 70 65 66 00                                 .spef.          
```

#### Opcodes

```
  0: 0x07F6 [0x66] LOAD_EXT_SCHEDULER_MAIN: Load scheduler "spef" with entities [EventEntity, EventEntity], work=43*
  1: 0x0805 [0x00] END_REQSTACK()
```

### Event 65535.56

#### Metadata

| Field        | Value    |
|--------------|----------|
| Entrypoint   | 0x0806   |
| Data Size    | 14 bytes |
| Instructions | 2        |

```
      00 01 02 03 04 05 06 07  08 09 0A 0B 0C 0D 0E 0F
      -- -- -- -- -- -- -- --  -- -- -- -- -- -- -- --
0800:                   53 F8  FF FF 7F F8 FF FF 7F 73        S........s
0810: 70 65 66 00                                       pef.            
```

#### Opcodes

```
  0: 0x0806 [0x53] WAIT_SCHEDULER_TASK: Wait for scheduler "spef" with entities [EventEntity, EventEntity]
  1: 0x0813 [0x00] END_REQSTACK()
```

### Event 65535.57

#### Metadata

| Field        | Value    |
|--------------|----------|
| Entrypoint   | 0x0814   |
| Data Size    | 16 bytes |
| Instructions | 2        |

```
      00 01 02 03 04 05 06 07  08 09 0A 0B 0C 0D 0E 0F
      -- -- -- -- -- -- -- --  -- -- -- -- -- -- -- --
0810:             5B 30 80 F8  FF FF 7F F8 FF FF 7F 6F      [0.........o
0820: 6B 69 72 00                                       kir.            
```

#### Opcodes

```
  0: 0x0814 [0x5B] LOAD_EXT_SCHEDULER: Load scheduler "okir" with entities [EventEntity, EventEntity], work=430*
  1: 0x0823 [0x00] END_REQSTACK()
```

### Event 65535.58

#### Metadata

| Field        | Value    |
|--------------|----------|
| Entrypoint   | 0x0824   |
| Data Size    | 14 bytes |
| Instructions | 2        |

```
      00 01 02 03 04 05 06 07  08 09 0A 0B 0C 0D 0E 0F
      -- -- -- -- -- -- -- --  -- -- -- -- -- -- -- --
0820:             53 F8 FF FF  7F F8 FF FF 7F 6F 6B 69      S........oki
0830: 72 00                                             r.              
```

#### Opcodes

```
  0: 0x0824 [0x53] WAIT_SCHEDULER_TASK: Wait for scheduler "okir" with entities [EventEntity, EventEntity]
  1: 0x0831 [0x00] END_REQSTACK()
```

### Event 65535.59

#### Metadata

| Field        | Value    |
|--------------|----------|
| Entrypoint   | 0x0832   |
| Data Size    | 16 bytes |
| Instructions | 2        |

```
      00 01 02 03 04 05 06 07  08 09 0A 0B 0C 0D 0E 0F
      -- -- -- -- -- -- -- --  -- -- -- -- -- -- -- --
0830:       5B 31 80 F8 FF FF  7F F8 FF FF 7F 75 73 69    [1.........usi
0840: 30 00                                             0.              
```

#### Opcodes

```
  0: 0x0832 [0x5B] LOAD_EXT_SCHEDULER: Load scheduler "usi0" with entities [EventEntity, EventEntity], work=431*
  1: 0x0841 [0x00] END_REQSTACK()
```

### Event 65535.60

#### Metadata

| Field        | Value    |
|--------------|----------|
| Entrypoint   | 0x0842   |
| Data Size    | 14 bytes |
| Instructions | 2        |

```
      00 01 02 03 04 05 06 07  08 09 0A 0B 0C 0D 0E 0F
      -- -- -- -- -- -- -- --  -- -- -- -- -- -- -- --
0840:       53 F8 FF FF 7F F8  FF FF 7F 75 73 69 30 00    S........usi0.
```

#### Opcodes

```
  0: 0x0842 [0x53] WAIT_SCHEDULER_TASK: Wait for scheduler "usi0" with entities [EventEntity, EventEntity]
  1: 0x084F [0x00] END_REQSTACK()
```

### Event 65535.61

#### Metadata

| Field        | Value    |
|--------------|----------|
| Entrypoint   | 0x0850   |
| Data Size    | 16 bytes |
| Instructions | 2        |

```
      00 01 02 03 04 05 06 07  08 09 0A 0B 0C 0D 0E 0F
      -- -- -- -- -- -- -- --  -- -- -- -- -- -- -- --
0850: 5B 31 80 F8 FF FF 7F F8  FF FF 7F 75 73 69 31 00  [1.........usi1.
```

#### Opcodes

```
  0: 0x0850 [0x5B] LOAD_EXT_SCHEDULER: Load scheduler "usi1" with entities [EventEntity, EventEntity], work=431*
  1: 0x085F [0x00] END_REQSTACK()
```

### Event 65535.62

#### Metadata

| Field        | Value    |
|--------------|----------|
| Entrypoint   | 0x0860   |
| Data Size    | 14 bytes |
| Instructions | 2        |

```
      00 01 02 03 04 05 06 07  08 09 0A 0B 0C 0D 0E 0F
      -- -- -- -- -- -- -- --  -- -- -- -- -- -- -- --
0860: 53 F8 FF FF 7F F8 FF FF  7F 75 73 69 31 00        S........usi1.  
```

#### Opcodes

```
  0: 0x0860 [0x53] WAIT_SCHEDULER_TASK: Wait for scheduler "usi1" with entities [EventEntity, EventEntity]
  1: 0x086D [0x00] END_REQSTACK()
```

### Event 65535.63

#### Metadata

| Field        | Value    |
|--------------|----------|
| Entrypoint   | 0x086E   |
| Data Size    | 16 bytes |
| Instructions | 2        |

```
      00 01 02 03 04 05 06 07  08 09 0A 0B 0C 0D 0E 0F
      -- -- -- -- -- -- -- --  -- -- -- -- -- -- -- --
0860:                                            66 2C                f,
0870: 80 F8 FF FF 7F F8 FF FF  7F 74 65 68 30 00        .........teh0.  
```

#### Opcodes

```
  0: 0x086E [0x66] LOAD_EXT_SCHEDULER_MAIN: Load scheduler "teh0" with entities [EventEntity, EventEntity], work=42*
  1: 0x087D [0x00] END_REQSTACK()
```

### Event 65535.64

#### Metadata

| Field        | Value    |
|--------------|----------|
| Entrypoint   | 0x087E   |
| Data Size    | 14 bytes |
| Instructions | 2        |

```
      00 01 02 03 04 05 06 07  08 09 0A 0B 0C 0D 0E 0F
      -- -- -- -- -- -- -- --  -- -- -- -- -- -- -- --
0870:                                            53 F8                S.
0880: FF FF 7F F8 FF FF 7F 74  65 68 30 00              .......teh0.    
```

#### Opcodes

```
  0: 0x087E [0x53] WAIT_SCHEDULER_TASK: Wait for scheduler "teh0" with entities [EventEntity, EventEntity]
  1: 0x088B [0x00] END_REQSTACK()
```

### Event 65535.65

#### Metadata

| Field        | Value    |
|--------------|----------|
| Entrypoint   | 0x088C   |
| Data Size    | 16 bytes |
| Instructions | 2        |

```
      00 01 02 03 04 05 06 07  08 09 0A 0B 0C 0D 0E 0F
      -- -- -- -- -- -- -- --  -- -- -- -- -- -- -- --
0880:                                      66 2C 80 F8              f,..
0890: FF FF 7F F8 FF FF 7F 74  65 68 31 00              .......teh1.    
```

#### Opcodes

```
  0: 0x088C [0x66] LOAD_EXT_SCHEDULER_MAIN: Load scheduler "teh1" with entities [EventEntity, EventEntity], work=42*
  1: 0x089B [0x00] END_REQSTACK()
```

### Event 65535.66

#### Metadata

| Field        | Value    |
|--------------|----------|
| Entrypoint   | 0x089C   |
| Data Size    | 14 bytes |
| Instructions | 2        |

```
      00 01 02 03 04 05 06 07  08 09 0A 0B 0C 0D 0E 0F
      -- -- -- -- -- -- -- --  -- -- -- -- -- -- -- --
0890:                                      53 F8 FF FF              S...
08A0: 7F F8 FF FF 7F 74 65 68  31 00                    .....teh1.      
```

#### Opcodes

```
  0: 0x089C [0x53] WAIT_SCHEDULER_TASK: Wait for scheduler "teh1" with entities [EventEntity, EventEntity]
  1: 0x08A9 [0x00] END_REQSTACK()
```

### Event 65535.67

#### Metadata

| Field        | Value    |
|--------------|----------|
| Entrypoint   | 0x08AA   |
| Data Size    | 16 bytes |
| Instructions | 2        |

```
      00 01 02 03 04 05 06 07  08 09 0A 0B 0C 0D 0E 0F
      -- -- -- -- -- -- -- --  -- -- -- -- -- -- -- --
08A0:                                66 32 80 F8 FF FF            f2....
08B0: 7F F8 FF FF 7F 6D 64 71  30 00                    .....mdq0.      
```

#### Opcodes

```
  0: 0x08AA [0x66] LOAD_EXT_SCHEDULER_MAIN: Load scheduler "mdq0" with entities [EventEntity, EventEntity], work=46*
  1: 0x08B9 [0x00] END_REQSTACK()
```

### Event 65535.68

#### Metadata

| Field        | Value    |
|--------------|----------|
| Entrypoint   | 0x08BA   |
| Data Size    | 14 bytes |
| Instructions | 2        |

```
      00 01 02 03 04 05 06 07  08 09 0A 0B 0C 0D 0E 0F
      -- -- -- -- -- -- -- --  -- -- -- -- -- -- -- --
08B0:                                53 F8 FF FF 7F F8            S.....
08C0: FF FF 7F 6D 64 71 30 00                           ...mdq0.        
```

#### Opcodes

```
  0: 0x08BA [0x53] WAIT_SCHEDULER_TASK: Wait for scheduler "mdq0" with entities [EventEntity, EventEntity]
  1: 0x08C7 [0x00] END_REQSTACK()
```

### Event 65535.69

#### Metadata

| Field        | Value    |
|--------------|----------|
| Entrypoint   | 0x08C8   |
| Data Size    | 16 bytes |
| Instructions | 2        |

```
      00 01 02 03 04 05 06 07  08 09 0A 0B 0C 0D 0E 0F
      -- -- -- -- -- -- -- --  -- -- -- -- -- -- -- --
08C0:                          66 32 80 F8 FF FF 7F F8          f2......
08D0: FF FF 7F 6D 64 71 33 00                           ...mdq3.        
```

#### Opcodes

```
  0: 0x08C8 [0x66] LOAD_EXT_SCHEDULER_MAIN: Load scheduler "mdq3" with entities [EventEntity, EventEntity], work=46*
  1: 0x08D7 [0x00] END_REQSTACK()
```

### Event 65535.70

#### Metadata

| Field        | Value    |
|--------------|----------|
| Entrypoint   | 0x08D8   |
| Data Size    | 14 bytes |
| Instructions | 2        |

```
      00 01 02 03 04 05 06 07  08 09 0A 0B 0C 0D 0E 0F
      -- -- -- -- -- -- -- --  -- -- -- -- -- -- -- --
08D0:                          53 F8 FF FF 7F F8 FF FF          S.......
08E0: 7F 6D 64 71 33 00                                 .mdq3.          
```

#### Opcodes

```
  0: 0x08D8 [0x53] WAIT_SCHEDULER_TASK: Wait for scheduler "mdq3" with entities [EventEntity, EventEntity]
  1: 0x08E5 [0x00] END_REQSTACK()
```

### Event 65535.71

#### Metadata

| Field        | Value    |
|--------------|----------|
| Entrypoint   | 0x08E6   |
| Data Size    | 16 bytes |
| Instructions | 2        |

```
      00 01 02 03 04 05 06 07  08 09 0A 0B 0C 0D 0E 0F
      -- -- -- -- -- -- -- --  -- -- -- -- -- -- -- --
08E0:                   66 33  80 F8 FF FF 7F F8 FF FF        f3........
08F0: 7F 74 6C 6B 30 00                                 .tlk0.          
```

#### Opcodes

```
  0: 0x08E6 [0x66] LOAD_EXT_SCHEDULER_MAIN: Load scheduler "tlk0" with entities [EventEntity, EventEntity], work=189*
  1: 0x08F5 [0x00] END_REQSTACK()
```

### Event 65535.72

#### Metadata

| Field        | Value    |
|--------------|----------|
| Entrypoint   | 0x08F6   |
| Data Size    | 14 bytes |
| Instructions | 2        |

```
      00 01 02 03 04 05 06 07  08 09 0A 0B 0C 0D 0E 0F
      -- -- -- -- -- -- -- --  -- -- -- -- -- -- -- --
08F0:                   53 F8  FF FF 7F F8 FF FF 7F 74        S........t
0900: 6C 6B 30 00                                       lk0.            
```

#### Opcodes

```
  0: 0x08F6 [0x53] WAIT_SCHEDULER_TASK: Wait for scheduler "tlk0" with entities [EventEntity, EventEntity]
  1: 0x0903 [0x00] END_REQSTACK()
```

### Event 65535.73

#### Metadata

| Field        | Value    |
|--------------|----------|
| Entrypoint   | 0x0904   |
| Data Size    | 16 bytes |
| Instructions | 2        |

```
      00 01 02 03 04 05 06 07  08 09 0A 0B 0C 0D 0E 0F
      -- -- -- -- -- -- -- --  -- -- -- -- -- -- -- --
0900:             66 33 80 F8  FF FF 7F F8 FF FF 7F 74      f3.........t
0910: 6C 6B 31 00                                       lk1.            
```

#### Opcodes

```
  0: 0x0904 [0x66] LOAD_EXT_SCHEDULER_MAIN: Load scheduler "tlk1" with entities [EventEntity, EventEntity], work=189*
  1: 0x0913 [0x00] END_REQSTACK()
```

### Event 65535.74

#### Metadata

| Field        | Value     |
|--------------|-----------|
| Entrypoint   | 0x0914    |
| Data Size    | 174 bytes |
| Instructions | 2         |

```
      00 01 02 03 04 05 06 07  08 09 0A 0B 0C 0D 0E 0F
      -- -- -- -- -- -- -- --  -- -- -- -- -- -- -- --
0910:             53 F8 FF FF  7F F8 FF FF 7F 74 6C 6B      S........tlk
0920: 31 00 34 80 35 80 36 80  37 80 38 80 39 80 3A 80  1.4.5.6.7.8.9.:.
0930: 3B 80 3C 80 3D 80 3E 80  3F 80 40 80 41 80 42 80  ;.<.=.>.?.@.A.B.
0940: 43 80 44 80 45 80 46 80  47 80 48 80 49 80 4A 80  C.D.E.F.G.H.I.J.
0950: 4B 80 4C 80 4D 80 4E 80  4F 80 50 80 51 80 52 80  K.L.M.N.O.P.Q.R.
0960: 53 80 03 10 04 10 05 10  06 10 07 10 08 10 09 10  S...............
0970: 00 17 01 17 02 17 03 17  04 17 05 17 06 17 07 17  ................
0980: 08 17 1D 80 54 80 55 80  56 80 09 80 09 80 09 80  ....T.U.V.......
0990: 09 80 0A 80 18 80 57 80  58 80 09 80 09 80 09 80  ......W.X.......
09A0: 09 80 09 80 0A 80 18 80  57 80 09 80 09 80 09 80  ........W.......
09B0: 09 80 05 80 59 80 5A 80  5B 80 09 80 09 80 09 80  ....Y.Z.[.......
09C0: 09 80                                             ..              
```

#### Opcodes

```
  0: 0x0914 [0x53] WAIT_SCHEDULER_TASK: Wait for scheduler "tlk1" with entities [EventEntity, EventEntity]
  1: 0x0921 [0x00] END_REQSTACK()
```

#### Data or dead code:

```
# Dead code (unreachable instructions):
     0x0922 [0x34] LOAD_UNLOAD_ZONE(zone_id=0x3580)
     0x0925 [0x80] LOAD_WAIT(entity=Unknown NPC (ID: 2151120950/0x80378036))
     0x092A [0x38] SET_CLIENT_EVENT_MODE(mode=0x3980)
     0x092D [0x80] LOAD_WAIT(entity=Unknown NPC (ID: 2151383098/0x803B803A))
     0x0932 [0x3C] SET_BIT_FLAG_CONDITIONAL(target_work_offset=0x3D80, bit_index_work_offset=0x3E80, condition_work_offset=0x3F80)
     0x0939 [0x80] LOAD_WAIT(entity=Unknown NPC (ID: 2151776320/0x80418040))
     0x093E [0x42] SET_CLI_EVENT_CANCEL_DATA()
     0x093F [0x80] LOAD_WAIT(entity=Unknown NPC (ID: 2151972931/0x80448043))
     0x0944 [0x45] LOAD_SCHEDULED_TASK: Load scheduler 0x4C804B80 with entities [Unknown NPC (ID: 1216366464/0x48804780), Unknown NPC (ID: 1249921408/0x4A804980)], work=[0x4680, 0x4D80]
     0x0955 [0x80] LOAD_WAIT(entity=Unknown NPC (ID: 2152693838/0x804F804E))
     0x095A [0x50] END_SCHEDULER_TASK: End scheduler 0x00000410 with entities [0x5180, 0x5380], work=[21120, 896]
     0x0967 [0x10] Work_Zone[6] <<= Work_Zone[7]
     0x096C [0x08] 0x0910 -= ExtData[1]->WorkLocal[16]
     0x0971 [0x17] Work_Zone_1700[1] = cos(Work_Zone_1700[2]) * Work_Zone_1700[3]
     0x0978 [0x04] DEPRECATED_NOP(unused=0x0517)
     0x097B [0x17] Work_Zone_1700[6] = cos(Work_Zone_1700[7]) * Work_Zone_1700[8]
     0x0982 [0x1D] PRINT_EVENT_MESSAGE(message_id=0x5480)
     0x0985 [0x80] LOAD_WAIT(entity=Unknown NPC (ID: 2153152597/0x80568055))
     0x098A [0x09] 0x0980 |= (1 << 0x0980)
     0x098F [0x80] LOAD_WAIT(entity=Unknown NPC (ID: 2148171785/0x800A8009))
     0x0994 [0x18] 0x5780 = atan2(0x5880, 0x0980)
     0x099B [0x80] LOAD_WAIT(entity=Unknown NPC (ID: 2148106249/0x80098009))
     0x09A0 [0x09] 0x0980 |= (1 << 0x0A80)
     0x09A5 [0x80] LOAD_WAIT(entity=Unknown NPC (ID: 2153218072/0x80578018))
     0x09AA [0x09] 0x0980 |= (1 << 0x0980)
     0x09AF [0x80] LOAD_WAIT(entity=Unknown NPC (ID: 2147844105/0x80058009))
     0x09B4 [0x59] UPDATE_ENTITY_DATA: Unknown mode 128
     0x09B8 [0x80] LOAD_WAIT(entity=Unknown NPC (ID: 2148106249/0x80098009))
```
