# 17445221 - Shantotto

## Common Data

| Field            | Value                         |
|------------------|-------------------------------|
| Zone             | Sacrificial Chamber (ID: 163) |
| Block Size       | 1608 bytes                    |
| Total Events     | 57                            |
| References Count | 46                            |

## List of Events

| Event ID                   | Entrypoint   |   Size |   Instructions |
|----------------------------|--------------|--------|----------------|
| [65535](#event-65535)      | 0x0000       |      1 |              1 |
| [65535.1](#event-655351)   | 0x0001       |     67 |             13 |
| [65535.2](#event-655352)   | 0x0044       |     25 |              3 |
| [65535.3](#event-655353)   | 0x005D       |     10 |              2 |
| [65535.4](#event-655354)   | 0x0067       |     10 |              2 |
| [65535.5](#event-655355)   | 0x0071       |      2 |              2 |
| [5](#event-5)              | 0x0073       |      1 |              1 |
| [65535.6](#event-655356)   | 0x0074       |     19 |              3 |
| [65535.7](#event-655357)   | 0x0087       |     19 |              3 |
| [65535.8](#event-655358)   | 0x009A       |     21 |              5 |
| [65535.9](#event-655359)   | 0x00AF       |     16 |              2 |
| [65535.10](#event-6553510) | 0x00BF       |     19 |              3 |
| [65535.11](#event-6553511) | 0x00D2       |     29 |              3 |
| [65535.12](#event-6553512) | 0x00EF       |     16 |              2 |
| [65535.13](#event-6553513) | 0x00FF       |     19 |              3 |
| [65535.14](#event-6553514) | 0x0112       |     19 |              3 |
| [65535.15](#event-6553515) | 0x0125       |     19 |              3 |
| [65535.16](#event-6553516) | 0x0138       |     19 |              3 |
| [65535.17](#event-6553517) | 0x014B       |     19 |              3 |
| [65535.18](#event-6553518) | 0x015E       |     19 |              3 |
| [65535.19](#event-6553519) | 0x0171       |     16 |              2 |
| [65535.20](#event-6553520) | 0x0181       |     29 |              3 |
| [65535.21](#event-6553521) | 0x019E       |     18 |              4 |
| [65535.22](#event-6553522) | 0x01B0       |     18 |              4 |
| [65535.23](#event-6553523) | 0x01C2       |     16 |              2 |
| [65535.24](#event-6553524) | 0x01D2       |     29 |              3 |
| [65535.25](#event-6553525) | 0x01EF       |     16 |              2 |
| [65535.26](#event-6553526) | 0x01FF       |     16 |              2 |
| [65535.27](#event-6553527) | 0x020F       |     16 |              2 |
| [65535.28](#event-6553528) | 0x021F       |     22 |              4 |
| [65535.29](#event-6553529) | 0x0235       |     56 |             11 |
| [65535.30](#event-6553530) | 0x026D       |     64 |             11 |
| [65535.31](#event-6553531) | 0x02AD       |     18 |              2 |
| [65535.32](#event-6553532) | 0x02BF       |     13 |              3 |
| [65535.33](#event-6553533) | 0x02CC       |     16 |              2 |
| [65535.34](#event-6553534) | 0x02DC       |     39 |              5 |
| [65535.35](#event-6553535) | 0x0303       |     19 |              3 |
| [65535.36](#event-6553536) | 0x0316       |     19 |              3 |
| [65535.37](#event-6553537) | 0x0329       |     16 |              2 |
| [65535.38](#event-6553538) | 0x0339       |     16 |              2 |
| [65535.39](#event-6553539) | 0x0349       |     16 |              2 |
| [65535.40](#event-6553540) | 0x0359       |     16 |              2 |
| [65535.41](#event-6553541) | 0x0369       |     16 |              2 |
| [65535.42](#event-6553542) | 0x0379       |     16 |              2 |
| [65535.43](#event-6553543) | 0x0389       |     16 |              2 |
| [65535.44](#event-6553544) | 0x0399       |     16 |              2 |
| [65535.45](#event-6553545) | 0x03A9       |     16 |              2 |
| [65535.46](#event-6553546) | 0x03B9       |     16 |              2 |
| [65535.47](#event-6553547) | 0x03C9       |     16 |              2 |
| [65535.48](#event-6553548) | 0x03D9       |     21 |              3 |
| [65535.49](#event-6553549) | 0x03EE       |     24 |              4 |
| [65535.50](#event-6553550) | 0x0406       |     21 |              3 |
| [65535.51](#event-6553551) | 0x041B       |     18 |              2 |
| [65535.52](#event-6553552) | 0x042D       |     18 |              2 |
| [65535.53](#event-6553553) | 0x043F       |     33 |              3 |
| [65535.54](#event-6553554) | 0x0460       |     39 |              5 |
| [65535.55](#event-6553555) | 0x0487       |     18 |              2 |

## DAT References (imed_data)

|   Index | Hex Value   |   Dec Value |
|---------|-------------|-------------|
|       0 | 0x0006      |           6 |
|       1 | 0x0000      |           0 |
|       2 | 0x0013      |          19 |
|       3 | 0x0080      |         128 |
|       4 | 0x0029      |          41 |
|       5 | 0x003C      |          60 |
|       6 | 0x0005      |           5 |
|       7 | 0xFFFFE854  |  4294961236 |
|       8 | 0xB414      |       46100 |
|       9 | 0xFFFFFE0C  |  4294966796 |
|      10 | 0x0560      |        1376 |
|      11 | 0x0038      |          56 |
|      12 | 0x002B      |          43 |
|      13 | 0x04FE      |        1278 |
|      14 | 0x0040      |          64 |
|      15 | 0x0078      |         120 |
|      16 | 0x001E      |          30 |
|      17 | 0x0801      |        2049 |
|      18 | 0x0055      |          85 |
|      19 | 0x0097      |         151 |
|      20 | 0x0050      |          80 |
|      21 | 0x0031      |          49 |
|      22 | 0x0007      |           7 |
|      23 | 0x0028      |          40 |
|      24 | 0x025C      |         604 |
|      25 | 0x01D6      |         470 |
|      26 | 0x00C8      |         200 |
|      27 | 0x0032      |          50 |
|      28 | 0x005A      |          90 |
|      29 | 0x0064      |         100 |
|      30 | 0x00C9      |         201 |
|      31 | 0x0ADB      |        2779 |
|      32 | 0x000F      |          15 |
|      33 | 0x00C5      |         197 |
|      34 | 0x0100      |         256 |
|      35 | 0x002A      |          42 |
|      36 | 0x0022      |          34 |
|      37 | 0x055D      |        1373 |
|      38 | 0x0140      |         320 |
|      39 | 0x00E6      |         230 |
|      40 | 0x00C6      |         198 |
|      41 | 0x0091      |         145 |
|      42 | 0x0ACF      |        2767 |
|      43 | 0x00B5      |         181 |
|      44 | 0x002D      |          45 |
|      45 | 0x001B      |          27 |

## Events

### Event 65535

#### Metadata

| Field        | Value   |
|--------------|---------|
| Entrypoint   | 0x0000  |
| Data Size    | 1 bytes |
| Instructions | 1       |

```
      00 01 02 03 04 05 06 07  08 09 0A 0B 0C 0D 0E 0F
      -- -- -- -- -- -- -- --  -- -- -- -- -- -- -- --
0000: 00                                                .               
```

#### Opcodes

```
  0: 0x0000 [0x00] END_REQSTACK()
```

### Event 65535.1

#### Metadata

| Field        | Value    |
|--------------|----------|
| Entrypoint   | 0x0001   |
| Data Size    | 67 bytes |
| Instructions | 2        |

```
      00 01 02 03 04 05 06 07  08 09 0A 0B 0C 0D 0E 0F
      -- -- -- -- -- -- -- --  -- -- -- -- -- -- -- --
0000:    B7 01 01 00 F8 FF FF  7F B4 13 00 00 53 68 61   ............Sha
0010: 6E 74 6F 74 74 6F 00 00  00 00 00 00 00 B5 00 00  ntotto..........
0020: 00 B6 0B 00 80 00 80 01  80 02 80 02 80 02 80 02  ................
0030: 80 01 80 01 80 22 00 92  01 F8 FF FF 7F 94 01 F8  ....."..........
0040: FF FF 7F 00                                       ....            
```

#### Opcodes

```
  0: 0x0001 [0xB7] ENTITY_DATA_HANDLER: Set Unknown NPC (ID: 4294443009/0xFFF80001) name from 0x7FFF (monstrosity: 0x13B4)
  1: 0x000B [0x00] END_REQSTACK()
```

#### Data or dead code:

```
# Dead code (unreachable instructions):
     0x000C [0x00] END_REQSTACK()
     0x000D [0x53] WAIT_SCHEDULER_TASK: Wait for scheduler 0x00000000 with entities [Unknown NPC (ID: 1953390952/0x746E6168), Unknown NPC (ID: 1869902959/0x6F74746F)]
     0x001A [0x00] END_REQSTACK()
     0x001B [0x00] END_REQSTACK()
     0x001C [0x00] END_REQSTACK()
     0x001D [0xB5] SET_EVENT_ENTITY_NAME: Change EventEntity name to ExtData[1]->WorkLocal[0]
     0x0021 [0xB6] ENTITY_APPEARANCE_HANDLER(case=Full entity look, race=6*, hair=6*, head=0*, body=19*, hands=19*, legs=19*, feet=19*, main=0*, sub=0*)
     0x0035 [0x22] ENTITY_HIDE_FLAG(enabled=0x00)
     0x0037 [0x92] EventEntity->Render.Flags3 ^= 0x01
     0x003D [0x94] EventEntity->Render.Flags3 ^= 0x01
     0x0043 [0x00] END_REQSTACK()
```

### Event 65535.2

#### Metadata

| Field        | Value    |
|--------------|----------|
| Entrypoint   | 0x0044   |
| Data Size    | 25 bytes |
| Instructions | 3        |

```
      00 01 02 03 04 05 06 07  08 09 0A 0B 0C 0D 0E 0F
      -- -- -- -- -- -- -- --  -- -- -- -- -- -- -- --
0040:             B4 13 00 00  50 72 65 76 4E 61 6D 65      ....PrevName
0050: 00 00 00 00 00 00 00 00  B5 00 00 00 00           .............   
```

#### Opcodes

```
  0: 0x0044 [0xB4] UI_WINDOW_STRING_HANDLER(case=0x13 - Copy string and replace @ with space, work_offset=ExtData[1]->WorkLocal[0], string="PrevName")
  1: 0x0058 [0xB5] SET_EVENT_ENTITY_NAME: Change EventEntity name to ExtData[1]->WorkLocal[0]
  2: 0x005C [0x00] END_REQSTACK()
```

### Event 65535.3

#### Metadata

| Field        | Value    |
|--------------|----------|
| Entrypoint   | 0x005D   |
| Data Size    | 10 bytes |
| Instructions | 2        |

```
      00 01 02 03 04 05 06 07  08 09 0A 0B 0C 0D 0E 0F
      -- -- -- -- -- -- -- --  -- -- -- -- -- -- -- --
0050:                                         6C F8 FF               l..
0060: FF 7F 03 80 01 80 00                              .......         
```

#### Opcodes

```
  0: 0x005D [0x6C] FADE_ENTITY_COLOR(entity_id=EventEntity, end_alpha=128*, fade_time=0*)
  1: 0x0066 [0x00] END_REQSTACK()
```

### Event 65535.4

#### Metadata

| Field        | Value    |
|--------------|----------|
| Entrypoint   | 0x0067   |
| Data Size    | 10 bytes |
| Instructions | 2        |

```
      00 01 02 03 04 05 06 07  08 09 0A 0B 0C 0D 0E 0F
      -- -- -- -- -- -- -- --  -- -- -- -- -- -- -- --
0060:                      6C  F8 FF FF 7F 01 80 01 80         l........
0070: 00                                                .               
```

#### Opcodes

```
  0: 0x0067 [0x6C] FADE_ENTITY_COLOR(entity_id=EventEntity, end_alpha=0*, fade_time=0*)
  1: 0x0070 [0x00] END_REQSTACK()
```

### Event 65535.5

#### Metadata

| Field        | Value   |
|--------------|---------|
| Entrypoint   | 0x0071  |
| Data Size    | 2 bytes |
| Instructions | 2       |

```
      00 01 02 03 04 05 06 07  08 09 0A 0B 0C 0D 0E 0F
      -- -- -- -- -- -- -- --  -- -- -- -- -- -- -- --
0070:    84 00                                           ..             
```

#### Opcodes

```
  0: 0x0071 [0x84] ADJUST_RENDER_FLAGS3_BIT0()
  1: 0x0072 [0x00] END_REQSTACK()
```

### Event 5

#### Metadata

| Field        | Value   |
|--------------|---------|
| Entrypoint   | 0x0073  |
| Data Size    | 1 bytes |
| Instructions | 1       |

```
      00 01 02 03 04 05 06 07  08 09 0A 0B 0C 0D 0E 0F
      -- -- -- -- -- -- -- --  -- -- -- -- -- -- -- --
0070:          00                                          .            
```

#### Opcodes

```
  0: 0x0073 [0x00] END_REQSTACK()
```

### Event 65535.6

#### Metadata

| Field        | Value    |
|--------------|----------|
| Entrypoint   | 0x0074   |
| Data Size    | 19 bytes |
| Instructions | 3        |

```
      00 01 02 03 04 05 06 07  08 09 0A 0B 0C 0D 0E 0F
      -- -- -- -- -- -- -- --  -- -- -- -- -- -- -- --
0070:             66 04 80 F8  FF FF 7F F8 FF FF 7F 6F      f..........o
0080: 68 68 30 1C 05 80 00                              hh0....         
```

#### Opcodes

```
  0: 0x0074 [0x66] LOAD_EXT_SCHEDULER_MAIN: Load scheduler "ohh0" with entities [EventEntity, EventEntity], work=41*
  1: 0x0083 [0x1C] WAIT(60* ticks)
  2: 0x0086 [0x00] END_REQSTACK()
```

### Event 65535.7

#### Metadata

| Field        | Value    |
|--------------|----------|
| Entrypoint   | 0x0087   |
| Data Size    | 19 bytes |
| Instructions | 3        |

```
      00 01 02 03 04 05 06 07  08 09 0A 0B 0C 0D 0E 0F
      -- -- -- -- -- -- -- --  -- -- -- -- -- -- -- --
0080:                      66  04 80 F8 FF FF 7F F8 FF         f........
0090: FF 7F 6F 68 68 31 1C 05  80 00                    ..ohh1....      
```

#### Opcodes

```
  0: 0x0087 [0x66] LOAD_EXT_SCHEDULER_MAIN: Load scheduler "ohh1" with entities [EventEntity, EventEntity], work=41*
  1: 0x0096 [0x1C] WAIT(60* ticks)
  2: 0x0099 [0x00] END_REQSTACK()
```

### Event 65535.8

#### Metadata

| Field        | Value    |
|--------------|----------|
| Entrypoint   | 0x009A   |
| Data Size    | 21 bytes |
| Instructions | 5        |

```
      00 01 02 03 04 05 06 07  08 09 0A 0B 0C 0D 0E 0F
      -- -- -- -- -- -- -- --  -- -- -- -- -- -- -- --
0090:                                32 06 80 59 05 F8            2..Y..
00A0: FF FF 7F 00 1F 00 07 80  08 80 09 80 1F 01 00     ............... 
```

#### Opcodes

```
  0: 0x009A [0x32] ExtData[1]->MainSpeed = 5* * 0.1
  1: 0x009D [0x59] UPDATE_ENTITY_DATA: EventEntity->Render.Flags0 &= ~0x200000
  2: 0x00A4 [0x1F] MOVE_ENTITY: EventEntity moves to X=-6.060*, Z=46.100*, Y=-0.500*
  3: 0x00AC [0x1F] MOVE_ENTITY: Update entity position (mode=1)
  4: 0x00AE [0x00] END_REQSTACK()
```

### Event 65535.9

#### Metadata

| Field        | Value    |
|--------------|----------|
| Entrypoint   | 0x00AF   |
| Data Size    | 16 bytes |
| Instructions | 2        |

```
      00 01 02 03 04 05 06 07  08 09 0A 0B 0C 0D 0E 0F
      -- -- -- -- -- -- -- --  -- -- -- -- -- -- -- --
00A0:                                               5B                 [
00B0: 0A 80 F8 FF FF 7F F8 FF  FF 7F 68 6F 6B 30 00     ..........hok0. 
```

#### Opcodes

```
  0: 0x00AF [0x5B] LOAD_EXT_SCHEDULER: Load scheduler "hok0" with entities [EventEntity, EventEntity], work=1376*
  1: 0x00BE [0x00] END_REQSTACK()
```

### Event 65535.10

#### Metadata

| Field        | Value    |
|--------------|----------|
| Entrypoint   | 0x00BF   |
| Data Size    | 19 bytes |
| Instructions | 3        |

```
      00 01 02 03 04 05 06 07  08 09 0A 0B 0C 0D 0E 0F
      -- -- -- -- -- -- -- --  -- -- -- -- -- -- -- --
00B0:                                               5B                 [
00C0: 0A 80 F8 FF FF 7F F8 FF  FF 7F 68 6F 6B 31 1C 0B  ..........hok1..
00D0: 80 00                                             ..              
```

#### Opcodes

```
  0: 0x00BF [0x5B] LOAD_EXT_SCHEDULER: Load scheduler "hok1" with entities [EventEntity, EventEntity], work=1376*
  1: 0x00CE [0x1C] WAIT(56* ticks)
  2: 0x00D1 [0x00] END_REQSTACK()
```

### Event 65535.11

#### Metadata

| Field        | Value    |
|--------------|----------|
| Entrypoint   | 0x00D2   |
| Data Size    | 29 bytes |
| Instructions | 3        |

```
      00 01 02 03 04 05 06 07  08 09 0A 0B 0C 0D 0E 0F
      -- -- -- -- -- -- -- --  -- -- -- -- -- -- -- --
00D0:       66 0C 80 F8 FF FF  7F F8 FF FF 7F 63 61 77    f..........caw
00E0: 68 53 F8 FF FF 7F F8 FF  FF 7F 63 61 77 68 00     hS........cawh. 
```

#### Opcodes

```
  0: 0x00D2 [0x66] LOAD_EXT_SCHEDULER_MAIN: Load scheduler "cawh" with entities [EventEntity, EventEntity], work=43*
  1: 0x00E1 [0x53] WAIT_SCHEDULER_TASK: Wait for scheduler "cawh" with entities [EventEntity, EventEntity]
  2: 0x00EE [0x00] END_REQSTACK()
```

### Event 65535.12

#### Metadata

| Field        | Value    |
|--------------|----------|
| Entrypoint   | 0x00EF   |
| Data Size    | 16 bytes |
| Instructions | 2        |

```
      00 01 02 03 04 05 06 07  08 09 0A 0B 0C 0D 0E 0F
      -- -- -- -- -- -- -- --  -- -- -- -- -- -- -- --
00E0:                                               66                 f
00F0: 0C 80 F8 FF FF 7F F8 FF  FF 7F 73 68 77 68 00     ..........shwh. 
```

#### Opcodes

```
  0: 0x00EF [0x66] LOAD_EXT_SCHEDULER_MAIN: Load scheduler "shwh" with entities [EventEntity, EventEntity], work=43*
  1: 0x00FE [0x00] END_REQSTACK()
```

### Event 65535.13

#### Metadata

| Field        | Value    |
|--------------|----------|
| Entrypoint   | 0x00FF   |
| Data Size    | 19 bytes |
| Instructions | 3        |

```
      00 01 02 03 04 05 06 07  08 09 0A 0B 0C 0D 0E 0F
      -- -- -- -- -- -- -- --  -- -- -- -- -- -- -- --
00F0:                                               5B                 [
0100: 0D 80 F8 FF FF 7F F8 FF  FF 7F 70 76 30 30 1C 0E  ..........pv00..
0110: 80 00                                             ..              
```

#### Opcodes

```
  0: 0x00FF [0x5B] LOAD_EXT_SCHEDULER: Load scheduler "pv00" with entities [EventEntity, EventEntity], work=1278*
  1: 0x010E [0x1C] WAIT(64* ticks)
  2: 0x0111 [0x00] END_REQSTACK()
```

### Event 65535.14

#### Metadata

| Field        | Value    |
|--------------|----------|
| Entrypoint   | 0x0112   |
| Data Size    | 19 bytes |
| Instructions | 3        |

```
      00 01 02 03 04 05 06 07  08 09 0A 0B 0C 0D 0E 0F
      -- -- -- -- -- -- -- --  -- -- -- -- -- -- -- --
0110:       5B 0D 80 F8 FF FF  7F F8 FF FF 7F 70 76 30    [..........pv0
0120: 31 1C 0F 80 00                                    1....           
```

#### Opcodes

```
  0: 0x0112 [0x5B] LOAD_EXT_SCHEDULER: Load scheduler "pv01" with entities [EventEntity, EventEntity], work=1278*
  1: 0x0121 [0x1C] WAIT(120* ticks)
  2: 0x0124 [0x00] END_REQSTACK()
```

### Event 65535.15

#### Metadata

| Field        | Value    |
|--------------|----------|
| Entrypoint   | 0x0125   |
| Data Size    | 19 bytes |
| Instructions | 3        |

```
      00 01 02 03 04 05 06 07  08 09 0A 0B 0C 0D 0E 0F
      -- -- -- -- -- -- -- --  -- -- -- -- -- -- -- --
0120:                5B 0D 80  F8 FF FF 7F F8 FF FF 7F       [..........
0130: 70 76 30 32 1C 10 80 00                           pv02....        
```

#### Opcodes

```
  0: 0x0125 [0x5B] LOAD_EXT_SCHEDULER: Load scheduler "pv02" with entities [EventEntity, EventEntity], work=1278*
  1: 0x0134 [0x1C] WAIT(30* ticks)
  2: 0x0137 [0x00] END_REQSTACK()
```

### Event 65535.16

#### Metadata

| Field        | Value    |
|--------------|----------|
| Entrypoint   | 0x0138   |
| Data Size    | 19 bytes |
| Instructions | 3        |

```
      00 01 02 03 04 05 06 07  08 09 0A 0B 0C 0D 0E 0F
      -- -- -- -- -- -- -- --  -- -- -- -- -- -- -- --
0130:                          5B 11 80 F8 FF FF 7F F8          [.......
0140: FF FF 7F 68 6F 75 30 1C  12 80 00                 ...hou0....     
```

#### Opcodes

```
  0: 0x0138 [0x5B] LOAD_EXT_SCHEDULER: Load scheduler "hou0" with entities [EventEntity, EventEntity], work=2049*
  1: 0x0147 [0x1C] WAIT(85* ticks)
  2: 0x014A [0x00] END_REQSTACK()
```

### Event 65535.17

#### Metadata

| Field        | Value    |
|--------------|----------|
| Entrypoint   | 0x014B   |
| Data Size    | 19 bytes |
| Instructions | 3        |

```
      00 01 02 03 04 05 06 07  08 09 0A 0B 0C 0D 0E 0F
      -- -- -- -- -- -- -- --  -- -- -- -- -- -- -- --
0140:                                   5B 11 80 F8 FF             [....
0150: FF 7F F8 FF FF 7F 68 6F  75 32 1C 13 80 00        ......hou2....  
```

#### Opcodes

```
  0: 0x014B [0x5B] LOAD_EXT_SCHEDULER: Load scheduler "hou2" with entities [EventEntity, EventEntity], work=2049*
  1: 0x015A [0x1C] WAIT(151* ticks)
  2: 0x015D [0x00] END_REQSTACK()
```

### Event 65535.18

#### Metadata

| Field        | Value    |
|--------------|----------|
| Entrypoint   | 0x015E   |
| Data Size    | 19 bytes |
| Instructions | 3        |

```
      00 01 02 03 04 05 06 07  08 09 0A 0B 0C 0D 0E 0F
      -- -- -- -- -- -- -- --  -- -- -- -- -- -- -- --
0150:                                            5B 11                [.
0160: 80 F8 FF FF 7F F8 FF FF  7F 68 6F 75 31 1C 14 80  .........hou1...
0170: 00                                                .               
```

#### Opcodes

```
  0: 0x015E [0x5B] LOAD_EXT_SCHEDULER: Load scheduler "hou1" with entities [EventEntity, EventEntity], work=2049*
  1: 0x016D [0x1C] WAIT(80* ticks)
  2: 0x0170 [0x00] END_REQSTACK()
```

### Event 65535.19

#### Metadata

| Field        | Value    |
|--------------|----------|
| Entrypoint   | 0x0171   |
| Data Size    | 16 bytes |
| Instructions | 2        |

```
      00 01 02 03 04 05 06 07  08 09 0A 0B 0C 0D 0E 0F
      -- -- -- -- -- -- -- --  -- -- -- -- -- -- -- --
0170:    66 15 80 F8 FF FF 7F  F8 FF FF 7F 74 6C 6B 30   f..........tlk0
0180: 00                                                .               
```

#### Opcodes

```
  0: 0x0171 [0x66] LOAD_EXT_SCHEDULER_MAIN: Load scheduler "tlk0" with entities [EventEntity, EventEntity], work=49*
  1: 0x0180 [0x00] END_REQSTACK()
```

### Event 65535.20

#### Metadata

| Field        | Value    |
|--------------|----------|
| Entrypoint   | 0x0181   |
| Data Size    | 29 bytes |
| Instructions | 3        |

```
      00 01 02 03 04 05 06 07  08 09 0A 0B 0C 0D 0E 0F
      -- -- -- -- -- -- -- --  -- -- -- -- -- -- -- --
0180:    66 15 80 F8 FF FF 7F  F8 FF FF 7F 74 6C 6B 31   f..........tlk1
0190: 53 F8 FF FF 7F F8 FF FF  7F 74 6C 6B 31 00        S........tlk1.  
```

#### Opcodes

```
  0: 0x0181 [0x66] LOAD_EXT_SCHEDULER_MAIN: Load scheduler "tlk1" with entities [EventEntity, EventEntity], work=49*
  1: 0x0190 [0x53] WAIT_SCHEDULER_TASK: Wait for scheduler "tlk1" with entities [EventEntity, EventEntity]
  2: 0x019D [0x00] END_REQSTACK()
```

### Event 65535.21

#### Metadata

| Field        | Value    |
|--------------|----------|
| Entrypoint   | 0x019E   |
| Data Size    | 18 bytes |
| Instructions | 4        |

```
      00 01 02 03 04 05 06 07  08 09 0A 0B 0C 0D 0E 0F
      -- -- -- -- -- -- -- --  -- -- -- -- -- -- -- --
0190:                                            6E F8                n.
01A0: FF FF 7F 16 80 99 F8 FF  FF 7F 99 F8 FF FF 7F 00  ................
```

#### Opcodes

```
  0: 0x019E [0x6E] EventEntity uses emote 7*
  1: 0x01A5 [0x99] Wait for EventEntity animation to complete
  2: 0x01AA [0x99] Wait for EventEntity animation to complete
  3: 0x01AF [0x00] END_REQSTACK()
```

### Event 65535.22

#### Metadata

| Field        | Value    |
|--------------|----------|
| Entrypoint   | 0x01B0   |
| Data Size    | 18 bytes |
| Instructions | 4        |

```
      00 01 02 03 04 05 06 07  08 09 0A 0B 0C 0D 0E 0F
      -- -- -- -- -- -- -- --  -- -- -- -- -- -- -- --
01B0: 6E F8 FF FF 7F 00 80 99  F8 FF FF 7F 99 F8 FF FF  n...............
01C0: 7F 00                                             ..              
```

#### Opcodes

```
  0: 0x01B0 [0x6E] EventEntity uses emote 6*
  1: 0x01B7 [0x99] Wait for EventEntity animation to complete
  2: 0x01BC [0x99] Wait for EventEntity animation to complete
  3: 0x01C1 [0x00] END_REQSTACK()
```

### Event 65535.23

#### Metadata

| Field        | Value    |
|--------------|----------|
| Entrypoint   | 0x01C2   |
| Data Size    | 16 bytes |
| Instructions | 2        |

```
      00 01 02 03 04 05 06 07  08 09 0A 0B 0C 0D 0E 0F
      -- -- -- -- -- -- -- --  -- -- -- -- -- -- -- --
01C0:       66 04 80 F8 FF FF  7F F8 FF FF 7F 65 68 6E    f..........ehn
01D0: 30 00                                             0.              
```

#### Opcodes

```
  0: 0x01C2 [0x66] LOAD_EXT_SCHEDULER_MAIN: Load scheduler "ehn0" with entities [EventEntity, EventEntity], work=41*
  1: 0x01D1 [0x00] END_REQSTACK()
```

### Event 65535.24

#### Metadata

| Field        | Value    |
|--------------|----------|
| Entrypoint   | 0x01D2   |
| Data Size    | 29 bytes |
| Instructions | 3        |

```
      00 01 02 03 04 05 06 07  08 09 0A 0B 0C 0D 0E 0F
      -- -- -- -- -- -- -- --  -- -- -- -- -- -- -- --
01D0:       66 04 80 F8 FF FF  7F F8 FF FF 7F 65 68 6E    f..........ehn
01E0: 31 53 F8 FF FF 7F F8 FF  FF 7F 65 68 6E 31 00     1S........ehn1. 
```

#### Opcodes

```
  0: 0x01D2 [0x66] LOAD_EXT_SCHEDULER_MAIN: Load scheduler "ehn1" with entities [EventEntity, EventEntity], work=41*
  1: 0x01E1 [0x53] WAIT_SCHEDULER_TASK: Wait for scheduler "ehn1" with entities [EventEntity, EventEntity]
  2: 0x01EE [0x00] END_REQSTACK()
```

### Event 65535.25

#### Metadata

| Field        | Value    |
|--------------|----------|
| Entrypoint   | 0x01EF   |
| Data Size    | 16 bytes |
| Instructions | 2        |

```
      00 01 02 03 04 05 06 07  08 09 0A 0B 0C 0D 0E 0F
      -- -- -- -- -- -- -- --  -- -- -- -- -- -- -- --
01E0:                                               66                 f
01F0: 17 80 F8 FF FF 7F F8 FF  FF 7F 64 69 73 30 00     ..........dis0. 
```

#### Opcodes

```
  0: 0x01EF [0x66] LOAD_EXT_SCHEDULER_MAIN: Load scheduler "dis0" with entities [EventEntity, EventEntity], work=40*
  1: 0x01FE [0x00] END_REQSTACK()
```

### Event 65535.26

#### Metadata

| Field        | Value    |
|--------------|----------|
| Entrypoint   | 0x01FF   |
| Data Size    | 16 bytes |
| Instructions | 2        |

```
      00 01 02 03 04 05 06 07  08 09 0A 0B 0C 0D 0E 0F
      -- -- -- -- -- -- -- --  -- -- -- -- -- -- -- --
01F0:                                               5B                 [
0200: 18 80 F8 FF FF 7F F8 FF  FF 7F 65 72 73 30 00     ..........ers0. 
```

#### Opcodes

```
  0: 0x01FF [0x5B] LOAD_EXT_SCHEDULER: Load scheduler "ers0" with entities [EventEntity, EventEntity], work=604*
  1: 0x020E [0x00] END_REQSTACK()
```

### Event 65535.27

#### Metadata

| Field        | Value    |
|--------------|----------|
| Entrypoint   | 0x020F   |
| Data Size    | 16 bytes |
| Instructions | 2        |

```
      00 01 02 03 04 05 06 07  08 09 0A 0B 0C 0D 0E 0F
      -- -- -- -- -- -- -- --  -- -- -- -- -- -- -- --
0200:                                               5B                 [
0210: 18 80 F8 FF FF 7F F8 FF  FF 7F 65 72 73 31 00     ..........ers1. 
```

#### Opcodes

```
  0: 0x020F [0x5B] LOAD_EXT_SCHEDULER: Load scheduler "ers1" with entities [EventEntity, EventEntity], work=604*
  1: 0x021E [0x00] END_REQSTACK()
```

### Event 65535.28

#### Metadata

| Field        | Value    |
|--------------|----------|
| Entrypoint   | 0x021F   |
| Data Size    | 22 bytes |
| Instructions | 4        |

```
      00 01 02 03 04 05 06 07  08 09 0A 0B 0C 0D 0E 0F
      -- -- -- -- -- -- -- --  -- -- -- -- -- -- -- --
0210:                                               1C                 .
0220: 10 80 5B 11 80 F8 FF FF  7F F8 FF FF 7F 79 67 6F  ..[..........ygo
0230: 30 1C 0F 80 00                                    0....           
```

#### Opcodes

```
  0: 0x021F [0x1C] WAIT(30* ticks)
  1: 0x0222 [0x5B] LOAD_EXT_SCHEDULER: Load scheduler "ygo0" with entities [EventEntity, EventEntity], work=2049*
  2: 0x0231 [0x1C] WAIT(120* ticks)
  3: 0x0234 [0x00] END_REQSTACK()
```

### Event 65535.29

#### Metadata

| Field        | Value    |
|--------------|----------|
| Entrypoint   | 0x0235   |
| Data Size    | 56 bytes |
| Instructions | 11       |

```
      00 01 02 03 04 05 06 07  08 09 0A 0B 0C 0D 0E 0F
      -- -- -- -- -- -- -- --  -- -- -- -- -- -- -- --
0230:                4B F8 FF  FF 7F 19 80 6F 76 F8 FF       K......ov..
0240: FF 7F 59 03 F8 FF FF 7F  1A 80 79 00 F8 FF FF 7F  ..Y.......y.....
0250: 63 31 0A 01 1C 0F 80 79  00 F8 FF FF 7F 64 31 0A  c1.....y.....d1.
0260: 01 1C 0F 80 7B F8 FF FF  7F 1C 05 80 00           ....{........   
```

#### Opcodes

```
  0: 0x0235 [0x4B] UPDATE_ENTITY_YAW(entity=EventEntity, yaw=2.6°*)
  1: 0x023C [0x6F] WAIT_FRAME_DELAY: Yield until WaitTime reaches zero
  2: 0x023D [0x76] CHECK_ENTITY_RENDER_FLAGS: Wait until EventEntity Render.Flags0 and Render.Flags3 conditions are met
  3: 0x0242 [0x59] UPDATE_ENTITY_DATA: Set EventEntity turn speed head = 200*
  4: 0x024A [0x79] EventEntity looks at Shantotto (ID: 17445219/0x010A3163) (Basic look)
  5: 0x0254 [0x1C] WAIT(120* ticks)
  6: 0x0257 [0x79] EventEntity looks at Shantotto (ID: 17445220/0x010A3164) (Basic look)
  7: 0x0261 [0x1C] WAIT(120* ticks)
  8: 0x0264 [0x7B] EventEntity stops talking
  9: 0x0269 [0x1C] WAIT(60* ticks)
 10: 0x026C [0x00] END_REQSTACK()
```

### Event 65535.30

#### Metadata

| Field        | Value    |
|--------------|----------|
| Entrypoint   | 0x026D   |
| Data Size    | 64 bytes |
| Instructions | 11       |

```
      00 01 02 03 04 05 06 07  08 09 0A 0B 0C 0D 0E 0F
      -- -- -- -- -- -- -- --  -- -- -- -- -- -- -- --
0260:                                         59 03 F8               Y..
0270: FF FF 7F 1B 80 79 00 F8  FF FF 7F 63 31 0A 01 1C  .....y.....c1...
0280: 05 80 79 00 F8 FF FF 7F  66 31 0A 01 1C 05 80 79  ..y.....f1.....y
0290: 00 F8 FF FF 7F 64 31 0A  01 1C 1C 80 59 03 F8 FF  .....d1.....Y...
02A0: FF 7F 1D 80 7B F8 FF FF  7F 1C 1C 80 00           ....{........   
```

#### Opcodes

```
  0: 0x026D [0x59] UPDATE_ENTITY_DATA: Set EventEntity turn speed head = 50*
  1: 0x0275 [0x79] EventEntity looks at Shantotto (ID: 17445219/0x010A3163) (Basic look)
  2: 0x027F [0x1C] WAIT(60* ticks)
  3: 0x0282 [0x79] EventEntity looks at Aldo (ID: 17445222/0x010A3166) (Basic look)
  4: 0x028C [0x1C] WAIT(60* ticks)
  5: 0x028F [0x79] EventEntity looks at Shantotto (ID: 17445220/0x010A3164) (Basic look)
  6: 0x0299 [0x1C] WAIT(90* ticks)
  7: 0x029C [0x59] UPDATE_ENTITY_DATA: Set EventEntity turn speed head = 100*
  8: 0x02A4 [0x7B] EventEntity stops talking
  9: 0x02A9 [0x1C] WAIT(90* ticks)
 10: 0x02AC [0x00] END_REQSTACK()
```

### Event 65535.31

#### Metadata

| Field        | Value    |
|--------------|----------|
| Entrypoint   | 0x02AD   |
| Data Size    | 18 bytes |
| Instructions | 2        |

```
      00 01 02 03 04 05 06 07  08 09 0A 0B 0C 0D 0E 0F
      -- -- -- -- -- -- -- --  -- -- -- -- -- -- -- --
02A0:                                         C5 1E 80               ...
02B0: F8 FF FF 7F F8 FF FF 7F  6D 61 69 6E 01 80 00     ........main... 
```

#### Opcodes

```
  0: 0x02AD [0xC5] LOAD_SCHEDULED_TASK_ALT3: Load scheduler 0x80016E69 for entities [EventEntity, EventEntity], work=201*, param=24941
  1: 0x02BE [0x00] END_REQSTACK()
```

### Event 65535.32

#### Metadata

| Field        | Value    |
|--------------|----------|
| Entrypoint   | 0x02BF   |
| Data Size    | 13 bytes |
| Instructions | 3        |

```
      00 01 02 03 04 05 06 07  08 09 0A 0B 0C 0D 0E 0F
      -- -- -- -- -- -- -- --  -- -- -- -- -- -- -- --
02B0:                                               6E                 n
02C0: F8 FF FF 7F 00 80 99 F8  FF FF 7F 00              ............    
```

#### Opcodes

```
  0: 0x02BF [0x6E] EventEntity uses emote 6*
  1: 0x02C6 [0x99] Wait for EventEntity animation to complete
  2: 0x02CB [0x00] END_REQSTACK()
```

### Event 65535.33

#### Metadata

| Field        | Value    |
|--------------|----------|
| Entrypoint   | 0x02CC   |
| Data Size    | 16 bytes |
| Instructions | 2        |

```
      00 01 02 03 04 05 06 07  08 09 0A 0B 0C 0D 0E 0F
      -- -- -- -- -- -- -- --  -- -- -- -- -- -- -- --
02C0:                                      5B 1F 80 F8              [...
02D0: FF FF 7F F8 FF FF 7F 68  6B 74 30 00              .......hkt0.    
```

#### Opcodes

```
  0: 0x02CC [0x5B] LOAD_EXT_SCHEDULER: Load scheduler "hkt0" with entities [EventEntity, EventEntity], work=2779*
  1: 0x02DB [0x00] END_REQSTACK()
```

### Event 65535.34

#### Metadata

| Field        | Value    |
|--------------|----------|
| Entrypoint   | 0x02DC   |
| Data Size    | 39 bytes |
| Instructions | 5        |

```
      00 01 02 03 04 05 06 07  08 09 0A 0B 0C 0D 0E 0F
      -- -- -- -- -- -- -- --  -- -- -- -- -- -- -- --
02D0:                                      5B 1F 80 F8              [...
02E0: FF FF 7F F8 FF FF 7F 68  6B 74 31 1C 20 80 C5 21  .......hkt1. ..!
02F0: 80 F8 FF FF 7F F8 FF FF  7F 73 30 30 31 01 80 1C  .........s001...
0300: 22 80 00                                          "..             
```

#### Opcodes

```
  0: 0x02DC [0x5B] LOAD_EXT_SCHEDULER: Load scheduler "hkt1" with entities [EventEntity, EventEntity], work=2779*
  1: 0x02EB [0x1C] WAIT(15* ticks)
  2: 0x02EE [0xC5] LOAD_SCHEDULED_TASK_ALT3: Load scheduler 0x80013130 for entities [EventEntity, EventEntity], work=197*, param=12403
  3: 0x02FF [0x1C] WAIT(256* ticks)
  4: 0x0302 [0x00] END_REQSTACK()
```

### Event 65535.35

#### Metadata

| Field        | Value    |
|--------------|----------|
| Entrypoint   | 0x0303   |
| Data Size    | 19 bytes |
| Instructions | 3        |

```
      00 01 02 03 04 05 06 07  08 09 0A 0B 0C 0D 0E 0F
      -- -- -- -- -- -- -- --  -- -- -- -- -- -- -- --
0300:          5B 1F 80 F8 FF  FF 7F F8 FF FF 7F 68 6B     [..........hk
0310: 74 32 1C 14 80 00                                 t2....          
```

#### Opcodes

```
  0: 0x0303 [0x5B] LOAD_EXT_SCHEDULER: Load scheduler "hkt2" with entities [EventEntity, EventEntity], work=2779*
  1: 0x0312 [0x1C] WAIT(80* ticks)
  2: 0x0315 [0x00] END_REQSTACK()
```

### Event 65535.36

#### Metadata

| Field        | Value    |
|--------------|----------|
| Entrypoint   | 0x0316   |
| Data Size    | 19 bytes |
| Instructions | 3        |

```
      00 01 02 03 04 05 06 07  08 09 0A 0B 0C 0D 0E 0F
      -- -- -- -- -- -- -- --  -- -- -- -- -- -- -- --
0310:                   5B 1F  80 F8 FF FF 7F F8 FF FF        [.........
0320: 7F 68 6B 74 33 1C 1D 80  00                       .hkt3....       
```

#### Opcodes

```
  0: 0x0316 [0x5B] LOAD_EXT_SCHEDULER: Load scheduler "hkt3" with entities [EventEntity, EventEntity], work=2779*
  1: 0x0325 [0x1C] WAIT(100* ticks)
  2: 0x0328 [0x00] END_REQSTACK()
```

### Event 65535.37

#### Metadata

| Field        | Value    |
|--------------|----------|
| Entrypoint   | 0x0329   |
| Data Size    | 16 bytes |
| Instructions | 2        |

```
      00 01 02 03 04 05 06 07  08 09 0A 0B 0C 0D 0E 0F
      -- -- -- -- -- -- -- --  -- -- -- -- -- -- -- --
0320:                             66 17 80 F8 FF FF 7F           f......
0330: F8 FF FF 7F 74 6C 6B 30  00                       ....tlk0.       
```

#### Opcodes

```
  0: 0x0329 [0x66] LOAD_EXT_SCHEDULER_MAIN: Load scheduler "tlk0" with entities [EventEntity, EventEntity], work=40*
  1: 0x0338 [0x00] END_REQSTACK()
```

### Event 65535.38

#### Metadata

| Field        | Value    |
|--------------|----------|
| Entrypoint   | 0x0339   |
| Data Size    | 16 bytes |
| Instructions | 2        |

```
      00 01 02 03 04 05 06 07  08 09 0A 0B 0C 0D 0E 0F
      -- -- -- -- -- -- -- --  -- -- -- -- -- -- -- --
0330:                             66 17 80 F8 FF FF 7F           f......
0340: F8 FF FF 7F 74 6C 6B 31  00                       ....tlk1.       
```

#### Opcodes

```
  0: 0x0339 [0x66] LOAD_EXT_SCHEDULER_MAIN: Load scheduler "tlk1" with entities [EventEntity, EventEntity], work=40*
  1: 0x0348 [0x00] END_REQSTACK()
```

### Event 65535.39

#### Metadata

| Field        | Value    |
|--------------|----------|
| Entrypoint   | 0x0349   |
| Data Size    | 16 bytes |
| Instructions | 2        |

```
      00 01 02 03 04 05 06 07  08 09 0A 0B 0C 0D 0E 0F
      -- -- -- -- -- -- -- --  -- -- -- -- -- -- -- --
0340:                             66 23 80 F8 FF FF 7F           f#.....
0350: F8 FF FF 7F 6D 73 75 30  00                       ....msu0.       
```

#### Opcodes

```
  0: 0x0349 [0x66] LOAD_EXT_SCHEDULER_MAIN: Load scheduler "msu0" with entities [EventEntity, EventEntity], work=42*
  1: 0x0358 [0x00] END_REQSTACK()
```

### Event 65535.40

#### Metadata

| Field        | Value    |
|--------------|----------|
| Entrypoint   | 0x0359   |
| Data Size    | 16 bytes |
| Instructions | 2        |

```
      00 01 02 03 04 05 06 07  08 09 0A 0B 0C 0D 0E 0F
      -- -- -- -- -- -- -- --  -- -- -- -- -- -- -- --
0350:                             66 23 80 F8 FF FF 7F           f#.....
0360: F8 FF FF 7F 6D 73 75 31  00                       ....msu1.       
```

#### Opcodes

```
  0: 0x0359 [0x66] LOAD_EXT_SCHEDULER_MAIN: Load scheduler "msu1" with entities [EventEntity, EventEntity], work=42*
  1: 0x0368 [0x00] END_REQSTACK()
```

### Event 65535.41

#### Metadata

| Field        | Value    |
|--------------|----------|
| Entrypoint   | 0x0369   |
| Data Size    | 16 bytes |
| Instructions | 2        |

```
      00 01 02 03 04 05 06 07  08 09 0A 0B 0C 0D 0E 0F
      -- -- -- -- -- -- -- --  -- -- -- -- -- -- -- --
0360:                             66 15 80 F8 FF FF 7F           f......
0370: F8 FF FF 7F 74 68 6B 31  00                       ....thk1.       
```

#### Opcodes

```
  0: 0x0369 [0x66] LOAD_EXT_SCHEDULER_MAIN: Load scheduler "thk1" with entities [EventEntity, EventEntity], work=49*
  1: 0x0378 [0x00] END_REQSTACK()
```

### Event 65535.42

#### Metadata

| Field        | Value    |
|--------------|----------|
| Entrypoint   | 0x0379   |
| Data Size    | 16 bytes |
| Instructions | 2        |

```
      00 01 02 03 04 05 06 07  08 09 0A 0B 0C 0D 0E 0F
      -- -- -- -- -- -- -- --  -- -- -- -- -- -- -- --
0370:                             66 15 80 F8 FF FF 7F           f......
0380: F8 FF FF 7F 74 68 6B 32  00                       ....thk2.       
```

#### Opcodes

```
  0: 0x0379 [0x66] LOAD_EXT_SCHEDULER_MAIN: Load scheduler "thk2" with entities [EventEntity, EventEntity], work=49*
  1: 0x0388 [0x00] END_REQSTACK()
```

### Event 65535.43

#### Metadata

| Field        | Value    |
|--------------|----------|
| Entrypoint   | 0x0389   |
| Data Size    | 16 bytes |
| Instructions | 2        |

```
      00 01 02 03 04 05 06 07  08 09 0A 0B 0C 0D 0E 0F
      -- -- -- -- -- -- -- --  -- -- -- -- -- -- -- --
0380:                             66 24 80 F8 FF FF 7F           f$.....
0390: F8 FF FF 7F 74 6C 62 30  00                       ....tlb0.       
```

#### Opcodes

```
  0: 0x0389 [0x66] LOAD_EXT_SCHEDULER_MAIN: Load scheduler "tlb0" with entities [EventEntity, EventEntity], work=34*
  1: 0x0398 [0x00] END_REQSTACK()
```

### Event 65535.44

#### Metadata

| Field        | Value    |
|--------------|----------|
| Entrypoint   | 0x0399   |
| Data Size    | 16 bytes |
| Instructions | 2        |

```
      00 01 02 03 04 05 06 07  08 09 0A 0B 0C 0D 0E 0F
      -- -- -- -- -- -- -- --  -- -- -- -- -- -- -- --
0390:                             66 24 80 F8 FF FF 7F           f$.....
03A0: F8 FF FF 7F 74 6C 62 31  00                       ....tlb1.       
```

#### Opcodes

```
  0: 0x0399 [0x66] LOAD_EXT_SCHEDULER_MAIN: Load scheduler "tlb1" with entities [EventEntity, EventEntity], work=34*
  1: 0x03A8 [0x00] END_REQSTACK()
```

### Event 65535.45

#### Metadata

| Field        | Value    |
|--------------|----------|
| Entrypoint   | 0x03A9   |
| Data Size    | 16 bytes |
| Instructions | 2        |

```
      00 01 02 03 04 05 06 07  08 09 0A 0B 0C 0D 0E 0F
      -- -- -- -- -- -- -- --  -- -- -- -- -- -- -- --
03A0:                             5B 25 80 F8 FF FF 7F           [%.....
03B0: F8 FF FF 7F 67 65 6E 30  00                       ....gen0.       
```

#### Opcodes

```
  0: 0x03A9 [0x5B] LOAD_EXT_SCHEDULER: Load scheduler "gen0" with entities [EventEntity, EventEntity], work=1373*
  1: 0x03B8 [0x00] END_REQSTACK()
```

### Event 65535.46

#### Metadata

| Field        | Value    |
|--------------|----------|
| Entrypoint   | 0x03B9   |
| Data Size    | 16 bytes |
| Instructions | 2        |

```
      00 01 02 03 04 05 06 07  08 09 0A 0B 0C 0D 0E 0F
      -- -- -- -- -- -- -- --  -- -- -- -- -- -- -- --
03B0:                             5B 25 80 F8 FF FF 7F           [%.....
03C0: F8 FF FF 7F 67 75 64 30  00                       ....gud0.       
```

#### Opcodes

```
  0: 0x03B9 [0x5B] LOAD_EXT_SCHEDULER: Load scheduler "gud0" with entities [EventEntity, EventEntity], work=1373*
  1: 0x03C8 [0x00] END_REQSTACK()
```

### Event 65535.47

#### Metadata

| Field        | Value    |
|--------------|----------|
| Entrypoint   | 0x03C9   |
| Data Size    | 16 bytes |
| Instructions | 2        |

```
      00 01 02 03 04 05 06 07  08 09 0A 0B 0C 0D 0E 0F
      -- -- -- -- -- -- -- --  -- -- -- -- -- -- -- --
03C0:                             5B 25 80 F8 FF FF 7F           [%.....
03D0: F8 FF FF 7F 67 75 64 31  00                       ....gud1.       
```

#### Opcodes

```
  0: 0x03C9 [0x5B] LOAD_EXT_SCHEDULER: Load scheduler "gud1" with entities [EventEntity, EventEntity], work=1373*
  1: 0x03D8 [0x00] END_REQSTACK()
```

### Event 65535.48

#### Metadata

| Field        | Value    |
|--------------|----------|
| Entrypoint   | 0x03D9   |
| Data Size    | 21 bytes |
| Instructions | 3        |

```
      00 01 02 03 04 05 06 07  08 09 0A 0B 0C 0D 0E 0F
      -- -- -- -- -- -- -- --  -- -- -- -- -- -- -- --
03D0:                             C5 21 80 F8 FF FF 7F           .!.....
03E0: F8 FF FF 7F 73 30 30 30  01 80 1C 26 80 00        ....s000...&..  
```

#### Opcodes

```
  0: 0x03D9 [0xC5] LOAD_SCHEDULED_TASK_ALT3: Load scheduler 0x80013030 for entities [EventEntity, EventEntity], work=197*, param=12403
  1: 0x03EA [0x1C] WAIT(320* ticks)
  2: 0x03ED [0x00] END_REQSTACK()
```

### Event 65535.49

#### Metadata

| Field        | Value    |
|--------------|----------|
| Entrypoint   | 0x03EE   |
| Data Size    | 24 bytes |
| Instructions | 4        |

```
      00 01 02 03 04 05 06 07  08 09 0A 0B 0C 0D 0E 0F
      -- -- -- -- -- -- -- --  -- -- -- -- -- -- -- --
03E0:                                            1C 0F                ..
03F0: 80 C5 21 80 F8 FF FF 7F  F8 FF FF 7F 73 30 30 31  ..!.........s001
0400: 01 80 1C 27 80 00                                 ...'..          
```

#### Opcodes

```
  0: 0x03EE [0x1C] WAIT(120* ticks)
  1: 0x03F1 [0xC5] LOAD_SCHEDULED_TASK_ALT3: Load scheduler 0x80013130 for entities [EventEntity, EventEntity], work=197*, param=12403
  2: 0x0402 [0x1C] WAIT(230* ticks)
  3: 0x0405 [0x00] END_REQSTACK()
```

### Event 65535.50

#### Metadata

| Field        | Value    |
|--------------|----------|
| Entrypoint   | 0x0406   |
| Data Size    | 21 bytes |
| Instructions | 3        |

```
      00 01 02 03 04 05 06 07  08 09 0A 0B 0C 0D 0E 0F
      -- -- -- -- -- -- -- --  -- -- -- -- -- -- -- --
0400:                   C5 28  80 F8 FF FF 7F F8 FF FF        .(........
0410: 7F 73 74 30 31 01 80 1C  29 80 00                 .st01...)..     
```

#### Opcodes

```
  0: 0x0406 [0xC5] LOAD_SCHEDULED_TASK_ALT3: Load scheduler 0x80013130 for entities [EventEntity, EventEntity], work=198*, param=29811
  1: 0x0417 [0x1C] WAIT(145* ticks)
  2: 0x041A [0x00] END_REQSTACK()
```

### Event 65535.51

#### Metadata

| Field        | Value    |
|--------------|----------|
| Entrypoint   | 0x041B   |
| Data Size    | 18 bytes |
| Instructions | 2        |

```
      00 01 02 03 04 05 06 07  08 09 0A 0B 0C 0D 0E 0F
      -- -- -- -- -- -- -- --  -- -- -- -- -- -- -- --
0410:                                   C5 28 80 F8 FF             .(...
0420: FF 7F F8 FF FF 7F 73 74  30 33 01 80 00           ......st03...   
```

#### Opcodes

```
  0: 0x041B [0xC5] LOAD_SCHEDULED_TASK_ALT3: Load scheduler 0x80013330 for entities [EventEntity, EventEntity], work=198*, param=29811
  1: 0x042C [0x00] END_REQSTACK()
```

### Event 65535.52

#### Metadata

| Field        | Value    |
|--------------|----------|
| Entrypoint   | 0x042D   |
| Data Size    | 18 bytes |
| Instructions | 2        |

```
      00 01 02 03 04 05 06 07  08 09 0A 0B 0C 0D 0E 0F
      -- -- -- -- -- -- -- --  -- -- -- -- -- -- -- --
0420:                                         C5 28 80               .(.
0430: F8 FF FF 7F F8 FF FF 7F  73 74 30 32 01 80 00     ........st02... 
```

#### Opcodes

```
  0: 0x042D [0xC5] LOAD_SCHEDULED_TASK_ALT3: Load scheduler 0x80013230 for entities [EventEntity, EventEntity], work=198*, param=29811
  1: 0x043E [0x00] END_REQSTACK()
```

### Event 65535.53

#### Metadata

| Field        | Value    |
|--------------|----------|
| Entrypoint   | 0x043F   |
| Data Size    | 33 bytes |
| Instructions | 3        |

```
      00 01 02 03 04 05 06 07  08 09 0A 0B 0C 0D 0E 0F
      -- -- -- -- -- -- -- --  -- -- -- -- -- -- -- --
0430:                                               5B                 [
0440: 2A 80 F8 FF FF 7F F8 FF  FF 7F 6F 70 30 30 C5 2B  *.........op00.+
0450: 80 F8 FF FF 7F F8 FF FF  7F 73 74 63 31 01 80 00  .........stc1...
```

#### Opcodes

```
  0: 0x043F [0x5B] LOAD_EXT_SCHEDULER: Load scheduler "op00" with entities [EventEntity, EventEntity], work=2767*
  1: 0x044E [0xC5] LOAD_SCHEDULED_TASK_ALT3: Load scheduler 0x80013163 for entities [EventEntity, EventEntity], work=181*, param=29811
  2: 0x045F [0x00] END_REQSTACK()
```

### Event 65535.54

#### Metadata

| Field        | Value    |
|--------------|----------|
| Entrypoint   | 0x0460   |
| Data Size    | 39 bytes |
| Instructions | 5        |

```
      00 01 02 03 04 05 06 07  08 09 0A 0B 0C 0D 0E 0F
      -- -- -- -- -- -- -- --  -- -- -- -- -- -- -- --
0460: 5B 2A 80 F8 FF FF 7F F8  FF FF 7F 6F 70 30 31 1C  [*.........op01.
0470: 2C 80 C5 2B 80 F8 FF FF  7F F8 FF FF 7F 73 74 63  ,..+.........stc
0480: 32 01 80 1C 2D 80 00                              2...-..         
```

#### Opcodes

```
  0: 0x0460 [0x5B] LOAD_EXT_SCHEDULER: Load scheduler "op01" with entities [EventEntity, EventEntity], work=2767*
  1: 0x046F [0x1C] WAIT(45* ticks)
  2: 0x0472 [0xC5] LOAD_SCHEDULED_TASK_ALT3: Load scheduler 0x80013263 for entities [EventEntity, EventEntity], work=181*, param=29811
  3: 0x0483 [0x1C] WAIT(27* ticks)
  4: 0x0486 [0x00] END_REQSTACK()
```

### Event 65535.55

#### Metadata

| Field        | Value    |
|--------------|----------|
| Entrypoint   | 0x0487   |
| Data Size    | 18 bytes |
| Instructions | 2        |

```
      00 01 02 03 04 05 06 07  08 09 0A 0B 0C 0D 0E 0F
      -- -- -- -- -- -- -- --  -- -- -- -- -- -- -- --
0480:                      C5  2B 80 F8 FF FF 7F F8 FF         .+.......
0490: FF 7F 6B 69 6C 61 01 80  00                       ..kila...       
```

#### Opcodes

```
  0: 0x0487 [0xC5] LOAD_SCHEDULED_TASK_ALT3: Load scheduler 0x8001616C for entities [EventEntity, EventEntity], work=181*, param=26987
  1: 0x0498 [0x00] END_REQSTACK()
```
