# 17445232 - 9

## Common Data

| Field            | Value                         |
|------------------|-------------------------------|
| Zone             | Sacrificial Chamber (ID: 163) |
| Block Size       | 444 bytes                     |
| Total Events     | 14                            |
| References Count | 25                            |

## List of Events

| Event ID                   | Entrypoint   |   Size |   Instructions |
|----------------------------|--------------|--------|----------------|
| [65535](#event-65535)      | 0x0000       |      1 |              1 |
| [65535.1](#event-655351)   | 0x0001       |     15 |              4 |
| [65535.2](#event-655352)   | 0x0010       |     10 |              2 |
| [65535.3](#event-655353)   | 0x001A       |     10 |              2 |
| [65535.4](#event-655354)   | 0x0024       |     37 |              5 |
| [65535.5](#event-655355)   | 0x0049       |     10 |              2 |
| [5](#event-5)              | 0x0053       |      1 |              1 |
| [65535.6](#event-655356)   | 0x0054       |     21 |              2 |
| [65535.7](#event-655357)   | 0x0069       |     16 |              2 |
| [65535.8](#event-655358)   | 0x0079       |     30 |              3 |
| [65535.9](#event-655359)   | 0x0097       |     30 |              3 |
| [65535.10](#event-6553510) | 0x00B5       |     37 |              5 |
| [65535.11](#event-6553511) | 0x00DA       |     21 |              2 |
| [65535.12](#event-6553512) | 0x00EF       |     30 |              3 |

## DAT References (imed_data)

|   Index | Hex Value   |   Dec Value |
|---------|-------------|-------------|
|       0 | 0x0080      |         128 |
|       1 | 0x0000      |           0 |
|       2 | 0xFFFF1C68  |  4294909032 |
|       3 | 0x1979B     |      104347 |
|       4 | 0x015E      |         350 |
|       5 | 0x0006      |           6 |
|       6 | 0x00C9      |         201 |
|       7 | 0x0AC8      |        2760 |
|       8 | 0x0001      |           1 |
|       9 | 0x0002      |           2 |
|      10 | 0x0014      |          20 |
|      11 | 0x0019      |          25 |
|      12 | 0xFFFF1A46  |  4294908486 |
|      13 | 0x3BE4      |       15332 |
|      14 | 0x03E8      |        1000 |
|      15 | 0x05E4      |        1508 |
|      16 | 0x0008      |           8 |
|      17 | 0xFFFF30B0  |  4294914224 |
|      18 | 0x193D4     |      103380 |
|      19 | 0x0A5E      |        2654 |
|      20 | 0x0007      |           7 |
|      21 | 0x0013      |          19 |
|      22 | 0xFFFF3558  |  4294915416 |
|      23 | 0x19FF6     |      106486 |
|      24 | 0x0583      |        1411 |

## Events

### Event 65535

#### Metadata

| Field        | Value   |
|--------------|---------|
| Entrypoint   | 0x0000  |
| Data Size    | 1 bytes |
| Instructions | 1       |

```
      00 01 02 03 04 05 06 07  08 09 0A 0B 0C 0D 0E 0F
      -- -- -- -- -- -- -- --  -- -- -- -- -- -- -- --
0000: 00                                                .               
```

#### Opcodes

```
  0: 0x0000 [0x00] END_REQSTACK()
```

### Event 65535.1

#### Metadata

| Field        | Value    |
|--------------|----------|
| Entrypoint   | 0x0001   |
| Data Size    | 15 bytes |
| Instructions | 4        |

```
      00 01 02 03 04 05 06 07  08 09 0A 0B 0C 0D 0E 0F
      -- -- -- -- -- -- -- --  -- -- -- -- -- -- -- --
0000:    22 00 92 01 F8 FF FF  7F 94 01 F8 FF FF 7F 00   "..............
```

#### Opcodes

```
  0: 0x0001 [0x22] ENTITY_HIDE_FLAG(enabled=0x00)
  1: 0x0003 [0x92] EventEntity->Render.Flags3 ^= 0x01
  2: 0x0009 [0x94] EventEntity->Render.Flags3 ^= 0x01
  3: 0x000F [0x00] END_REQSTACK()
```

### Event 65535.2

#### Metadata

| Field        | Value    |
|--------------|----------|
| Entrypoint   | 0x0010   |
| Data Size    | 10 bytes |
| Instructions | 2        |

```
      00 01 02 03 04 05 06 07  08 09 0A 0B 0C 0D 0E 0F
      -- -- -- -- -- -- -- --  -- -- -- -- -- -- -- --
0010: 6C F8 FF FF 7F 00 80 01  80 00                    l.........      
```

#### Opcodes

```
  0: 0x0010 [0x6C] FADE_ENTITY_COLOR(entity_id=EventEntity, end_alpha=128*, fade_time=0*)
  1: 0x0019 [0x00] END_REQSTACK()
```

### Event 65535.3

#### Metadata

| Field        | Value    |
|--------------|----------|
| Entrypoint   | 0x001A   |
| Data Size    | 10 bytes |
| Instructions | 2        |

```
      00 01 02 03 04 05 06 07  08 09 0A 0B 0C 0D 0E 0F
      -- -- -- -- -- -- -- --  -- -- -- -- -- -- -- --
0010:                                6C F8 FF FF 7F 01            l.....
0020: 80 01 80 00                                       ....            
```

#### Opcodes

```
  0: 0x001A [0x6C] FADE_ENTITY_COLOR(entity_id=EventEntity, end_alpha=0*, fade_time=0*)
  1: 0x0023 [0x00] END_REQSTACK()
```

### Event 65535.4

#### Metadata

| Field        | Value    |
|--------------|----------|
| Entrypoint   | 0x0024   |
| Data Size    | 37 bytes |
| Instructions | 5        |

```
      00 01 02 03 04 05 06 07  08 09 0A 0B 0C 0D 0E 0F
      -- -- -- -- -- -- -- --  -- -- -- -- -- -- -- --
0020:             3B 7A 31 0A  01 00 00 01 00 02 00 3A      ;z1........:
0030: 7A 31 0A 01 03 00 BA F8  FF FF 7F 00 00 01 00 02  z1..............
0040: 00 03 00 80 F8 FF FF 7F  00                       .........       
```

#### Opcodes

```
  0: 0x0024 [0x3B] GET_ENTITY_POSITION(entity=19 (ID: 17445242/0x010A317A), x_destination=ExtData[1]->WorkLocal[0], y_destination=ExtData[1]->WorkLocal[1], z_destination=ExtData[1]->WorkLocal[2])
  1: 0x002F [0x3A] CONVERT_YAW_TO_BYTE(entity=19 (ID: 17445242/0x010A317A), result_destination=ExtData[1]->WorkLocal[3])
  2: 0x0036 [0xBA] SET_ENTITY_POSITION(entity_id=EventEntity, pos_x=ExtData[1]->WorkLocal[0], pos_z=ExtData[1]->WorkLocal[1], pos_y=ExtData[1]->WorkLocal[2], direction=ExtData[1]->WorkLocal[3])
  3: 0x0043 [0x80] LOAD_WAIT(entity=EventEntity)
  4: 0x0048 [0x00] END_REQSTACK()
```

### Event 65535.5

#### Metadata

| Field        | Value    |
|--------------|----------|
| Entrypoint   | 0x0049   |
| Data Size    | 10 bytes |
| Instructions | 2        |

```
      00 01 02 03 04 05 06 07  08 09 0A 0B 0C 0D 0E 0F
      -- -- -- -- -- -- -- --  -- -- -- -- -- -- -- --
0040:                             37 02 80 03 80 01 80           7......
0050: 04 80 00                                          ...             
```

#### Opcodes

```
  0: 0x0049 [0x37] UPDATE_EVENT_POSITION_AND_DIR: x=-58.264*, z=104.347*, y=0.000*, direction=30.8째*
  1: 0x0052 [0x00] END_REQSTACK()
```

### Event 5

#### Metadata

| Field        | Value   |
|--------------|---------|
| Entrypoint   | 0x0053  |
| Data Size    | 1 bytes |
| Instructions | 1       |

```
      00 01 02 03 04 05 06 07  08 09 0A 0B 0C 0D 0E 0F
      -- -- -- -- -- -- -- --  -- -- -- -- -- -- -- --
0050:          00                                          .            
```

#### Opcodes

```
  0: 0x0053 [0x00] END_REQSTACK()
```

### Event 65535.6

#### Metadata

| Field        | Value    |
|--------------|----------|
| Entrypoint   | 0x0054   |
| Data Size    | 21 bytes |
| Instructions | 2        |

```
      00 01 02 03 04 05 06 07  08 09 0A 0B 0C 0D 0E 0F
      -- -- -- -- -- -- -- --  -- -- -- -- -- -- -- --
0050:             B6 0B 05 80  05 80 01 80 06 80 06 80      ............
0060: 06 80 06 80 01 80 01 80  00                       .........       
```

#### Opcodes

```
  0: 0x0054 [0xB6] ENTITY_APPEARANCE_HANDLER(case=Full entity look, race=6*, hair=6*, head=0*, body=201*, hands=201*, legs=201*, feet=201*, main=0*, sub=0*)
  1: 0x0068 [0x00] END_REQSTACK()
```

### Event 65535.7

#### Metadata

| Field        | Value    |
|--------------|----------|
| Entrypoint   | 0x0069   |
| Data Size    | 16 bytes |
| Instructions | 2        |

```
      00 01 02 03 04 05 06 07  08 09 0A 0B 0C 0D 0E 0F
      -- -- -- -- -- -- -- --  -- -- -- -- -- -- -- --
0060:                             5B 07 80 F8 FF FF 7F           [......
0070: F8 FF FF 7F 6F 68 68 6C  00                       ....ohhl.       
```

#### Opcodes

```
  0: 0x0069 [0x5B] LOAD_EXT_SCHEDULER: Load scheduler "ohhl" with entities [EventEntity, EventEntity], work=2760*
  1: 0x0078 [0x00] END_REQSTACK()
```

### Event 65535.8

#### Metadata

| Field        | Value    |
|--------------|----------|
| Entrypoint   | 0x0079   |
| Data Size    | 30 bytes |
| Instructions | 3        |

```
      00 01 02 03 04 05 06 07  08 09 0A 0B 0C 0D 0E 0F
      -- -- -- -- -- -- -- --  -- -- -- -- -- -- -- --
0070:                             B6 0B 08 80 09 80 0A           .......
0080: 80 0B 80 0B 80 0B 80 0B  80 01 80 01 80 37 0C 80  .............7..
0090: 0D 80 0E 80 0F 80 00                              .......         
```

#### Opcodes

```
  0: 0x0079 [0xB6] ENTITY_APPEARANCE_HANDLER(case=Full entity look, race=1*, hair=2*, head=20*, body=25*, hands=25*, legs=25*, feet=25*, main=0*, sub=0*)
  1: 0x008D [0x37] UPDATE_EVENT_POSITION_AND_DIR: x=-58.810*, z=15.332*, y=1.000*, direction=132.5째*
  2: 0x0096 [0x00] END_REQSTACK()
```

### Event 65535.9

#### Metadata

| Field        | Value    |
|--------------|----------|
| Entrypoint   | 0x0097   |
| Data Size    | 30 bytes |
| Instructions | 3        |

```
      00 01 02 03 04 05 06 07  08 09 0A 0B 0C 0D 0E 0F
      -- -- -- -- -- -- -- --  -- -- -- -- -- -- -- --
0090:                      B6  0B 10 80 01 80 01 80 01         .........
00A0: 80 01 80 01 80 01 80 01  80 01 80 37 11 80 12 80  ...........7....
00B0: 01 80 13 80 00                                    .....           
```

#### Opcodes

```
  0: 0x0097 [0xB6] ENTITY_APPEARANCE_HANDLER(case=Full entity look, race=8*, hair=0*, head=0*, body=0*, hands=0*, legs=0*, feet=0*, main=0*, sub=0*)
  1: 0x00AB [0x37] UPDATE_EVENT_POSITION_AND_DIR: x=-53.072*, z=103.380*, y=0.000*, direction=233.3째*
  2: 0x00B4 [0x00] END_REQSTACK()
```

### Event 65535.10

#### Metadata

| Field        | Value    |
|--------------|----------|
| Entrypoint   | 0x00B5   |
| Data Size    | 37 bytes |
| Instructions | 5        |

```
      00 01 02 03 04 05 06 07  08 09 0A 0B 0C 0D 0E 0F
      -- -- -- -- -- -- -- --  -- -- -- -- -- -- -- --
00B0:                3B 6C 31  0A 01 00 00 01 00 02 00       ;l1........
00C0: 3A 6C 31 0A 01 03 00 BA  F8 FF FF 7F 00 00 01 00  :l1.............
00D0: 02 00 03 00 80 F8 FF FF  7F 00                    ..........      
```

#### Opcodes

```
  0: 0x00B5 [0x3B] GET_ENTITY_POSITION(entity=5 (ID: 17445228/0x010A316C), x_destination=ExtData[1]->WorkLocal[0], y_destination=ExtData[1]->WorkLocal[1], z_destination=ExtData[1]->WorkLocal[2])
  1: 0x00C0 [0x3A] CONVERT_YAW_TO_BYTE(entity=5 (ID: 17445228/0x010A316C), result_destination=ExtData[1]->WorkLocal[3])
  2: 0x00C7 [0xBA] SET_ENTITY_POSITION(entity_id=EventEntity, pos_x=ExtData[1]->WorkLocal[0], pos_z=ExtData[1]->WorkLocal[1], pos_y=ExtData[1]->WorkLocal[2], direction=ExtData[1]->WorkLocal[3])
  3: 0x00D4 [0x80] LOAD_WAIT(entity=EventEntity)
  4: 0x00D9 [0x00] END_REQSTACK()
```

### Event 65535.11

#### Metadata

| Field        | Value    |
|--------------|----------|
| Entrypoint   | 0x00DA   |
| Data Size    | 21 bytes |
| Instructions | 2        |

```
      00 01 02 03 04 05 06 07  08 09 0A 0B 0C 0D 0E 0F
      -- -- -- -- -- -- -- --  -- -- -- -- -- -- -- --
00D0:                                B6 0B 10 80 14 80            ......
00E0: 01 80 10 80 15 80 05 80  05 80 01 80 01 80 00     ............... 
```

#### Opcodes

```
  0: 0x00DA [0xB6] ENTITY_APPEARANCE_HANDLER(case=Full entity look, race=8*, hair=7*, head=0*, body=8*, hands=19*, legs=6*, feet=6*, main=0*, sub=0*)
  1: 0x00EE [0x00] END_REQSTACK()
```

### Event 65535.12

#### Metadata

| Field        | Value    |
|--------------|----------|
| Entrypoint   | 0x00EF   |
| Data Size    | 30 bytes |
| Instructions | 3        |

```
      00 01 02 03 04 05 06 07  08 09 0A 0B 0C 0D 0E 0F
      -- -- -- -- -- -- -- --  -- -- -- -- -- -- -- --
00E0:                                               B6                 .
00F0: 0B 05 80 05 80 01 80 06  80 06 80 06 80 06 80 01  ................
0100: 80 01 80 37 16 80 17 80  01 80 18 80 00           ...7.........   
```

#### Opcodes

```
  0: 0x00EF [0xB6] ENTITY_APPEARANCE_HANDLER(case=Full entity look, race=6*, hair=6*, head=0*, body=201*, hands=201*, legs=201*, feet=201*, main=0*, sub=0*)
  1: 0x0103 [0x37] UPDATE_EVENT_POSITION_AND_DIR: x=-51.880*, z=106.486*, y=0.000*, direction=124.0째*
  2: 0x010C [0x00] END_REQSTACK()
```
