# 17445228 - 5

## Common Data

| Field            | Value                         |
|------------------|-------------------------------|
| Zone             | Sacrificial Chamber (ID: 163) |
| Block Size       | 376 bytes                     |
| Total Events     | 12                            |
| References Count | 20                            |

## List of Events

| Event ID                   | Entrypoint   |   Size |   Instructions |
|----------------------------|--------------|--------|----------------|
| [65535](#event-65535)      | 0x0000       |      1 |              1 |
| [65535.1](#event-655351)   | 0x0001       |     15 |              4 |
| [65535.2](#event-655352)   | 0x0010       |     10 |              2 |
| [65535.3](#event-655353)   | 0x001A       |     10 |              2 |
| [65535.4](#event-655354)   | 0x0024       |     37 |              5 |
| [5](#event-5)              | 0x0049       |      1 |              1 |
| [65535.5](#event-655355)   | 0x004A       |     21 |              2 |
| [65535.6](#event-655356)   | 0x005F       |     30 |              3 |
| [65535.7](#event-655357)   | 0x007D       |     30 |              3 |
| [65535.8](#event-655358)   | 0x009B       |     16 |              2 |
| [65535.9](#event-655359)   | 0x00AB       |     30 |              3 |
| [65535.10](#event-6553510) | 0x00C9       |     30 |              3 |

## DAT References (imed_data)

|   Index | Hex Value   |   Dec Value |
|---------|-------------|-------------|
|       0 | 0x0080      |         128 |
|       1 | 0x0000      |           0 |
|       2 | 0x0006      |           6 |
|       3 | 0x00C9      |         201 |
|       4 | 0x0007      |           7 |
|       5 | 0x0011      |          17 |
|       6 | 0x1D3E5     |      119781 |
|       7 | 0x1719E     |       94622 |
|       8 | 0xFFFFF15B  |  4294963547 |
|       9 | 0x0BE3      |        3043 |
|      10 | 0x0008      |           8 |
|      11 | 0x0013      |          19 |
|      12 | 0xFFFF52CD  |  4294922957 |
|      13 | 0x15C4C     |       89164 |
|      14 | 0x1F3F      |        7999 |
|      15 | 0x076D      |        1901 |
|      16 | 0x0AC8      |        2760 |
|      17 | 0xFFFF2464  |  4294911076 |
|      18 | 0x18DAD     |      101805 |
|      19 | 0x0A5E      |        2654 |

## Events

### Event 65535

#### Metadata

| Field        | Value   |
|--------------|---------|
| Entrypoint   | 0x0000  |
| Data Size    | 1 bytes |
| Instructions | 1       |

```
      00 01 02 03 04 05 06 07  08 09 0A 0B 0C 0D 0E 0F
      -- -- -- -- -- -- -- --  -- -- -- -- -- -- -- --
0000: 00                                                .               
```

#### Opcodes

```
  0: 0x0000 [0x00] END_REQSTACK()
```

### Event 65535.1

#### Metadata

| Field        | Value    |
|--------------|----------|
| Entrypoint   | 0x0001   |
| Data Size    | 15 bytes |
| Instructions | 4        |

```
      00 01 02 03 04 05 06 07  08 09 0A 0B 0C 0D 0E 0F
      -- -- -- -- -- -- -- --  -- -- -- -- -- -- -- --
0000:    22 00 92 01 F8 FF FF  7F 94 01 F8 FF FF 7F 00   "..............
```

#### Opcodes

```
  0: 0x0001 [0x22] ENTITY_HIDE_FLAG(enabled=0x00)
  1: 0x0003 [0x92] EventEntity->Render.Flags3 ^= 0x01
  2: 0x0009 [0x94] EventEntity->Render.Flags3 ^= 0x01
  3: 0x000F [0x00] END_REQSTACK()
```

### Event 65535.2

#### Metadata

| Field        | Value    |
|--------------|----------|
| Entrypoint   | 0x0010   |
| Data Size    | 10 bytes |
| Instructions | 2        |

```
      00 01 02 03 04 05 06 07  08 09 0A 0B 0C 0D 0E 0F
      -- -- -- -- -- -- -- --  -- -- -- -- -- -- -- --
0010: 6C F8 FF FF 7F 00 80 01  80 00                    l.........      
```

#### Opcodes

```
  0: 0x0010 [0x6C] FADE_ENTITY_COLOR(entity_id=EventEntity, end_alpha=128*, fade_time=0*)
  1: 0x0019 [0x00] END_REQSTACK()
```

### Event 65535.3

#### Metadata

| Field        | Value    |
|--------------|----------|
| Entrypoint   | 0x001A   |
| Data Size    | 10 bytes |
| Instructions | 2        |

```
      00 01 02 03 04 05 06 07  08 09 0A 0B 0C 0D 0E 0F
      -- -- -- -- -- -- -- --  -- -- -- -- -- -- -- --
0010:                                6C F8 FF FF 7F 01            l.....
0020: 80 01 80 00                                       ....            
```

#### Opcodes

```
  0: 0x001A [0x6C] FADE_ENTITY_COLOR(entity_id=EventEntity, end_alpha=0*, fade_time=0*)
  1: 0x0023 [0x00] END_REQSTACK()
```

### Event 65535.4

#### Metadata

| Field        | Value    |
|--------------|----------|
| Entrypoint   | 0x0024   |
| Data Size    | 37 bytes |
| Instructions | 5        |

```
      00 01 02 03 04 05 06 07  08 09 0A 0B 0C 0D 0E 0F
      -- -- -- -- -- -- -- --  -- -- -- -- -- -- -- --
0020:             3B 76 31 0A  01 00 00 01 00 02 00 3A      ;v1........:
0030: 76 31 0A 01 03 00 BA F8  FF FF 7F 00 00 01 00 02  v1..............
0040: 00 03 00 80 F8 FF FF 7F  00                       .........       
```

#### Opcodes

```
  0: 0x0024 [0x3B] GET_ENTITY_POSITION(entity=15 (ID: 17445238/0x010A3176), x_destination=ExtData[1]->WorkLocal[0], y_destination=ExtData[1]->WorkLocal[1], z_destination=ExtData[1]->WorkLocal[2])
  1: 0x002F [0x3A] CONVERT_YAW_TO_BYTE(entity=15 (ID: 17445238/0x010A3176), result_destination=ExtData[1]->WorkLocal[3])
  2: 0x0036 [0xBA] SET_ENTITY_POSITION(entity_id=EventEntity, pos_x=ExtData[1]->WorkLocal[0], pos_z=ExtData[1]->WorkLocal[1], pos_y=ExtData[1]->WorkLocal[2], direction=ExtData[1]->WorkLocal[3])
  3: 0x0043 [0x80] LOAD_WAIT(entity=EventEntity)
  4: 0x0048 [0x00] END_REQSTACK()
```

### Event 5

#### Metadata

| Field        | Value   |
|--------------|---------|
| Entrypoint   | 0x0049  |
| Data Size    | 1 bytes |
| Instructions | 1       |

```
      00 01 02 03 04 05 06 07  08 09 0A 0B 0C 0D 0E 0F
      -- -- -- -- -- -- -- --  -- -- -- -- -- -- -- --
0040:                             00                             .      
```

#### Opcodes

```
  0: 0x0049 [0x00] END_REQSTACK()
```

### Event 65535.5

#### Metadata

| Field        | Value    |
|--------------|----------|
| Entrypoint   | 0x004A   |
| Data Size    | 21 bytes |
| Instructions | 2        |

```
      00 01 02 03 04 05 06 07  08 09 0A 0B 0C 0D 0E 0F
      -- -- -- -- -- -- -- --  -- -- -- -- -- -- -- --
0040:                                B6 0B 02 80 02 80            ......
0050: 01 80 03 80 03 80 03 80  03 80 01 80 01 80 00     ............... 
```

#### Opcodes

```
  0: 0x004A [0xB6] ENTITY_APPEARANCE_HANDLER(case=Full entity look, race=6*, hair=6*, head=0*, body=201*, hands=201*, legs=201*, feet=201*, main=0*, sub=0*)
  1: 0x005E [0x00] END_REQSTACK()
```

### Event 65535.6

#### Metadata

| Field        | Value    |
|--------------|----------|
| Entrypoint   | 0x005F   |
| Data Size    | 30 bytes |
| Instructions | 3        |

```
      00 01 02 03 04 05 06 07  08 09 0A 0B 0C 0D 0E 0F
      -- -- -- -- -- -- -- --  -- -- -- -- -- -- -- --
0050:                                               B6                 .
0060: 0B 04 80 01 80 01 80 05  80 05 80 05 80 05 80 01  ................
0070: 80 01 80 37 06 80 07 80  08 80 09 80 00           ...7.........   
```

#### Opcodes

```
  0: 0x005F [0xB6] ENTITY_APPEARANCE_HANDLER(case=Full entity look, race=7*, hair=0*, head=0*, body=17*, hands=17*, legs=17*, feet=17*, main=0*, sub=0*)
  1: 0x0073 [0x37] UPDATE_EVENT_POSITION_AND_DIR: x=119.781*, z=94.622*, y=-3.749*, direction=267.4째*
  2: 0x007C [0x00] END_REQSTACK()
```

### Event 65535.7

#### Metadata

| Field        | Value    |
|--------------|----------|
| Entrypoint   | 0x007D   |
| Data Size    | 30 bytes |
| Instructions | 3        |

```
      00 01 02 03 04 05 06 07  08 09 0A 0B 0C 0D 0E 0F
      -- -- -- -- -- -- -- --  -- -- -- -- -- -- -- --
0070:                                         B6 0B 0A               ...
0080: 80 04 80 01 80 0A 80 0B  80 02 80 02 80 01 80 01  ................
0090: 80 37 0C 80 0D 80 0E 80  0F 80 00                 .7.........     
```

#### Opcodes

```
  0: 0x007D [0xB6] ENTITY_APPEARANCE_HANDLER(case=Full entity look, race=8*, hair=7*, head=0*, body=8*, hands=19*, legs=6*, feet=6*, main=0*, sub=0*)
  1: 0x0091 [0x37] UPDATE_EVENT_POSITION_AND_DIR: x=-44.339*, z=89.164*, y=7.999*, direction=167.1째*
  2: 0x009A [0x00] END_REQSTACK()
```

### Event 65535.8

#### Metadata

| Field        | Value    |
|--------------|----------|
| Entrypoint   | 0x009B   |
| Data Size    | 16 bytes |
| Instructions | 2        |

```
      00 01 02 03 04 05 06 07  08 09 0A 0B 0C 0D 0E 0F
      -- -- -- -- -- -- -- --  -- -- -- -- -- -- -- --
0090:                                   5B 10 80 F8 FF             [....
00A0: FF 7F F8 FF FF 7F 6F 68  68 6C 00                 ......ohhl.     
```

#### Opcodes

```
  0: 0x009B [0x5B] LOAD_EXT_SCHEDULER: Load scheduler "ohhl" with entities [EventEntity, EventEntity], work=2760*
  1: 0x00AA [0x00] END_REQSTACK()
```

### Event 65535.9

#### Metadata

| Field        | Value    |
|--------------|----------|
| Entrypoint   | 0x00AB   |
| Data Size    | 30 bytes |
| Instructions | 3        |

```
      00 01 02 03 04 05 06 07  08 09 0A 0B 0C 0D 0E 0F
      -- -- -- -- -- -- -- --  -- -- -- -- -- -- -- --
00A0:                                   B6 0B 02 80 02             .....
00B0: 80 01 80 03 80 03 80 03  80 03 80 01 80 01 80 37  ...............7
00C0: 0C 80 0D 80 0E 80 0F 80  00                       .........       
```

#### Opcodes

```
  0: 0x00AB [0xB6] ENTITY_APPEARANCE_HANDLER(case=Full entity look, race=6*, hair=6*, head=0*, body=201*, hands=201*, legs=201*, feet=201*, main=0*, sub=0*)
  1: 0x00BF [0x37] UPDATE_EVENT_POSITION_AND_DIR: x=-44.339*, z=89.164*, y=7.999*, direction=167.1째*
  2: 0x00C8 [0x00] END_REQSTACK()
```

### Event 65535.10

#### Metadata

| Field        | Value    |
|--------------|----------|
| Entrypoint   | 0x00C9   |
| Data Size    | 30 bytes |
| Instructions | 3        |

```
      00 01 02 03 04 05 06 07  08 09 0A 0B 0C 0D 0E 0F
      -- -- -- -- -- -- -- --  -- -- -- -- -- -- -- --
00C0:                             B6 0B 02 80 02 80 01           .......
00D0: 80 03 80 03 80 03 80 03  80 01 80 01 80 37 11 80  .............7..
00E0: 12 80 01 80 13 80 00                              .......         
```

#### Opcodes

```
  0: 0x00C9 [0xB6] ENTITY_APPEARANCE_HANDLER(case=Full entity look, race=6*, hair=6*, head=0*, body=201*, hands=201*, legs=201*, feet=201*, main=0*, sub=0*)
  1: 0x00DD [0x37] UPDATE_EVENT_POSITION_AND_DIR: x=-56.220*, z=101.805*, y=0.000*, direction=233.3째*
  2: 0x00E6 [0x00] END_REQSTACK()
```
