# 17445235 - 12

## Common Data

| Field            | Value                         |
|------------------|-------------------------------|
| Zone             | Sacrificial Chamber (ID: 163) |
| Block Size       | 416 bytes                     |
| Total Events     | 20                            |
| References Count | 20                            |

## List of Events

| Event ID                   | Entrypoint   |   Size |   Instructions |
|----------------------------|--------------|--------|----------------|
| [65535](#event-65535)      | 0x0000       |      1 |              1 |
| [65535.1](#event-655351)   | 0x0001       |     19 |              5 |
| [65535.2](#event-655352)   | 0x0014       |     10 |              2 |
| [65535.3](#event-655353)   | 0x001E       |     10 |              2 |
| [65535.4](#event-655354)   | 0x0028       |      5 |              2 |
| [65535.5](#event-655355)   | 0x002D       |     19 |              3 |
| [65535.6](#event-655356)   | 0x0040       |     19 |              3 |
| [65535.7](#event-655357)   | 0x0053       |     18 |              3 |
| [65535.8](#event-655358)   | 0x0065       |     18 |              3 |
| [5](#event-5)              | 0x0077       |      1 |              1 |
| [65535.9](#event-655359)   | 0x0078       |     37 |              5 |
| [65535.10](#event-6553510) | 0x009D       |      5 |              2 |
| [0](#event-0)              | 0x00A2       |      1 |              1 |
| [65535.11](#event-6553511) | 0x00A3       |     18 |              4 |
| [65535.12](#event-6553512) | 0x00B5       |     10 |              2 |
| [65535.13](#event-6553513) | 0x00BF       |      9 |              3 |
| [65535.14](#event-6553514) | 0x00C8       |      9 |              3 |
| [65535.15](#event-6553515) | 0x00D1       |     10 |              2 |
| [65535.16](#event-6553516) | 0x00DB       |     10 |              2 |
| [65535.17](#event-6553517) | 0x00E5       |      9 |              3 |

## DAT References (imed_data)

|   Index | Hex Value   |   Dec Value |
|---------|-------------|-------------|
|       0 | 0x0064      |         100 |
|       1 | 0x0080      |         128 |
|       2 | 0x0000      |           0 |
|       3 | 0x004C      |          76 |
|       4 | 0x0AD4      |        2772 |
|       5 | 0x0104      |         260 |
|       6 | 0x01A4      |         420 |
|       7 | 0x0059      |          89 |
|       8 | 0xFFFF21BC  |  4294910396 |
|       9 | 0x14A78     |       84600 |
|      10 | 0x2007      |        8199 |
|      11 | 0x02CD      |         717 |
|      12 | 0x004E      |          78 |
|      13 | 0x0E08      |        3592 |
|      14 | 0x1E4A4     |      124068 |
|      15 | 0xFFFFC180  |  4294951296 |
|      16 | 0x0A11      |        2577 |
|      17 | 0x0001      |           1 |
|      18 | 0x0940      |        2368 |
|      19 | 0x30D4      |       12500 |

## Events

### Event 65535

#### Metadata

| Field        | Value   |
|--------------|---------|
| Entrypoint   | 0x0000  |
| Data Size    | 1 bytes |
| Instructions | 1       |

```
      00 01 02 03 04 05 06 07  08 09 0A 0B 0C 0D 0E 0F
      -- -- -- -- -- -- -- --  -- -- -- -- -- -- -- --
0000: 00                                                .               
```

#### Opcodes

```
  0: 0x0000 [0x00] END_REQSTACK()
```

### Event 65535.1

#### Metadata

| Field        | Value    |
|--------------|----------|
| Entrypoint   | 0x0001   |
| Data Size    | 19 bytes |
| Instructions | 5        |

```
      00 01 02 03 04 05 06 07  08 09 0A 0B 0C 0D 0E 0F
      -- -- -- -- -- -- -- --  -- -- -- -- -- -- -- --
0000:    22 00 92 01 F8 FF FF  7F 94 01 F8 FF FF 7F B6   "..............
0010: 0F 00 80 00                                       ....            
```

#### Opcodes

```
  0: 0x0001 [0x22] ENTITY_HIDE_FLAG(enabled=0x00)
  1: 0x0003 [0x92] EventEntity->Render.Flags3 ^= 0x01
  2: 0x0009 [0x94] EventEntity->Render.Flags3 ^= 0x01
  3: 0x000F [0xB6] ENTITY_APPEARANCE_HANDLER(case=Model size, value=100*)
  4: 0x0013 [0x00] END_REQSTACK()
```

### Event 65535.2

#### Metadata

| Field        | Value    |
|--------------|----------|
| Entrypoint   | 0x0014   |
| Data Size    | 10 bytes |
| Instructions | 2        |

```
      00 01 02 03 04 05 06 07  08 09 0A 0B 0C 0D 0E 0F
      -- -- -- -- -- -- -- --  -- -- -- -- -- -- -- --
0010:             6C F8 FF FF  7F 01 80 02 80 00            l.........  
```

#### Opcodes

```
  0: 0x0014 [0x6C] FADE_ENTITY_COLOR(entity_id=EventEntity, end_alpha=128*, fade_time=0*)
  1: 0x001D [0x00] END_REQSTACK()
```

### Event 65535.3

#### Metadata

| Field        | Value    |
|--------------|----------|
| Entrypoint   | 0x001E   |
| Data Size    | 10 bytes |
| Instructions | 2        |

```
      00 01 02 03 04 05 06 07  08 09 0A 0B 0C 0D 0E 0F
      -- -- -- -- -- -- -- --  -- -- -- -- -- -- -- --
0010:                                            6C F8                l.
0020: FF FF 7F 02 80 02 80 00                           ........        
```

#### Opcodes

```
  0: 0x001E [0x6C] FADE_ENTITY_COLOR(entity_id=EventEntity, end_alpha=0*, fade_time=0*)
  1: 0x0027 [0x00] END_REQSTACK()
```

### Event 65535.4

#### Metadata

| Field        | Value   |
|--------------|---------|
| Entrypoint   | 0x0028  |
| Data Size    | 5 bytes |
| Instructions | 2       |

```
      00 01 02 03 04 05 06 07  08 09 0A 0B 0C 0D 0E 0F
      -- -- -- -- -- -- -- --  -- -- -- -- -- -- -- --
0020:                          B6 00 03 80 00                   .....   
```

#### Opcodes

```
  0: 0x0028 [0xB6] ENTITY_APPEARANCE_HANDLER(case=Hair style, value=76*)
  1: 0x002C [0x00] END_REQSTACK()
```

### Event 65535.5

#### Metadata

| Field        | Value    |
|--------------|----------|
| Entrypoint   | 0x002D   |
| Data Size    | 19 bytes |
| Instructions | 3        |

```
      00 01 02 03 04 05 06 07  08 09 0A 0B 0C 0D 0E 0F
      -- -- -- -- -- -- -- --  -- -- -- -- -- -- -- --
0020:                                         5B 04 80               [..
0030: F8 FF FF 7F F8 FF FF 7F  6F 68 68 30 1C 05 80 00  ........ohh0....
```

#### Opcodes

```
  0: 0x002D [0x5B] LOAD_EXT_SCHEDULER: Load scheduler "ohh0" with entities [EventEntity, EventEntity], work=2772*
  1: 0x003C [0x1C] WAIT(260* ticks)
  2: 0x003F [0x00] END_REQSTACK()
```

### Event 65535.6

#### Metadata

| Field        | Value    |
|--------------|----------|
| Entrypoint   | 0x0040   |
| Data Size    | 19 bytes |
| Instructions | 3        |

```
      00 01 02 03 04 05 06 07  08 09 0A 0B 0C 0D 0E 0F
      -- -- -- -- -- -- -- --  -- -- -- -- -- -- -- --
0040: 5B 04 80 F8 FF FF 7F F8  FF FF 7F 6F 68 68 31 1C  [..........ohh1.
0050: 06 80 00                                          ...             
```

#### Opcodes

```
  0: 0x0040 [0x5B] LOAD_EXT_SCHEDULER: Load scheduler "ohh1" with entities [EventEntity, EventEntity], work=2772*
  1: 0x004F [0x1C] WAIT(420* ticks)
  2: 0x0052 [0x00] END_REQSTACK()
```

### Event 65535.7

#### Metadata

| Field        | Value    |
|--------------|----------|
| Entrypoint   | 0x0053   |
| Data Size    | 18 bytes |
| Instructions | 3        |

```
      00 01 02 03 04 05 06 07  08 09 0A 0B 0C 0D 0E 0F
      -- -- -- -- -- -- -- --  -- -- -- -- -- -- -- --
0050:          B6 00 07 80 BA  F8 FF FF 7F 08 80 09 80     .............
0060: 0A 80 0B 80 00                                    .....           
```

#### Opcodes

```
  0: 0x0053 [0xB6] ENTITY_APPEARANCE_HANDLER(case=Hair style, value=89*)
  1: 0x0057 [0xBA] SET_ENTITY_POSITION(entity_id=EventEntity, pos_x=-56.900*, pos_z=84.600*, pos_y=8.199*, direction=63.0°*)
  2: 0x0064 [0x00] END_REQSTACK()
```

### Event 65535.8

#### Metadata

| Field        | Value    |
|--------------|----------|
| Entrypoint   | 0x0065   |
| Data Size    | 18 bytes |
| Instructions | 3        |

```
      00 01 02 03 04 05 06 07  08 09 0A 0B 0C 0D 0E 0F
      -- -- -- -- -- -- -- --  -- -- -- -- -- -- -- --
0060:                B6 00 0C  80 BA F8 FF FF 7F 0D 80       ...........
0070: 0E 80 0F 80 10 80 00                              .......         
```

#### Opcodes

```
  0: 0x0065 [0xB6] ENTITY_APPEARANCE_HANDLER(case=Hair style, value=78*)
  1: 0x0069 [0xBA] SET_ENTITY_POSITION(entity_id=EventEntity, pos_x=3.592*, pos_z=124.068*, pos_y=-16.000*, direction=226.5°*)
  2: 0x0076 [0x00] END_REQSTACK()
```

### Event 5

#### Metadata

| Field        | Value   |
|--------------|---------|
| Entrypoint   | 0x0077  |
| Data Size    | 1 bytes |
| Instructions | 1       |

```
      00 01 02 03 04 05 06 07  08 09 0A 0B 0C 0D 0E 0F
      -- -- -- -- -- -- -- --  -- -- -- -- -- -- -- --
0070:                      00                                  .        
```

#### Opcodes

```
  0: 0x0077 [0x00] END_REQSTACK()
```

### Event 65535.9

#### Metadata

| Field        | Value    |
|--------------|----------|
| Entrypoint   | 0x0078   |
| Data Size    | 37 bytes |
| Instructions | 5        |

```
      00 01 02 03 04 05 06 07  08 09 0A 0B 0C 0D 0E 0F
      -- -- -- -- -- -- -- --  -- -- -- -- -- -- -- --
0070:                          3B 69 31 0A 01 00 00 01          ;i1.....
0080: 00 02 00 3A 69 31 0A 01  03 00 BA F8 FF FF 7F 00  ...:i1..........
0090: 00 01 00 02 00 03 00 80  F8 FF FF 7F 00           .............   
```

#### Opcodes

```
  0: 0x0078 [0x3B] GET_ENTITY_POSITION(entity=2 (ID: 17445225/0x010A3169), x_destination=ExtData[1]->WorkLocal[0], y_destination=ExtData[1]->WorkLocal[1], z_destination=ExtData[1]->WorkLocal[2])
  1: 0x0083 [0x3A] CONVERT_YAW_TO_BYTE(entity=2 (ID: 17445225/0x010A3169), result_destination=ExtData[1]->WorkLocal[3])
  2: 0x008A [0xBA] SET_ENTITY_POSITION(entity_id=EventEntity, pos_x=ExtData[1]->WorkLocal[0], pos_z=ExtData[1]->WorkLocal[1], pos_y=ExtData[1]->WorkLocal[2], direction=ExtData[1]->WorkLocal[3])
  3: 0x0097 [0x80] LOAD_WAIT(entity=EventEntity)
  4: 0x009C [0x00] END_REQSTACK()
```

### Event 65535.10

#### Metadata

| Field        | Value   |
|--------------|---------|
| Entrypoint   | 0x009D  |
| Data Size    | 5 bytes |
| Instructions | 2       |

```
      00 01 02 03 04 05 06 07  08 09 0A 0B 0C 0D 0E 0F
      -- -- -- -- -- -- -- --  -- -- -- -- -- -- -- --
0090:                                         B6 00 0C               ...
00A0: 80 00                                             ..              
```

#### Opcodes

```
  0: 0x009D [0xB6] ENTITY_APPEARANCE_HANDLER(case=Hair style, value=78*)
  1: 0x00A1 [0x00] END_REQSTACK()
```

### Event 0

#### Metadata

| Field        | Value   |
|--------------|---------|
| Entrypoint   | 0x00A2  |
| Data Size    | 1 bytes |
| Instructions | 1       |

```
      00 01 02 03 04 05 06 07  08 09 0A 0B 0C 0D 0E 0F
      -- -- -- -- -- -- -- --  -- -- -- -- -- -- -- --
00A0:       00                                            .             
```

#### Opcodes

```
  0: 0x00A2 [0x00] END_REQSTACK()
```

### Event 65535.11

#### Metadata

| Field        | Value    |
|--------------|----------|
| Entrypoint   | 0x00A3   |
| Data Size    | 18 bytes |
| Instructions | 4        |

```
      00 01 02 03 04 05 06 07  08 09 0A 0B 0C 0D 0E 0F
      -- -- -- -- -- -- -- --  -- -- -- -- -- -- -- --
00A0:          22 00 2F 00 F8  FF FF 7F 6C F8 FF FF 7F     "./.....l....
00B0: 02 80 11 80 00                                    .....           
```

#### Opcodes

```
  0: 0x00A3 [0x22] ENTITY_HIDE_FLAG(enabled=0x00)
  1: 0x00A5 [0x2F] EventEntity->Render.Flags0 &= ~0x80000 // Bit 19
  2: 0x00AB [0x6C] FADE_ENTITY_COLOR(entity_id=EventEntity, end_alpha=0*, fade_time=1*)
  3: 0x00B4 [0x00] END_REQSTACK()
```

### Event 65535.12

#### Metadata

| Field        | Value    |
|--------------|----------|
| Entrypoint   | 0x00B5   |
| Data Size    | 10 bytes |
| Instructions | 2        |

```
      00 01 02 03 04 05 06 07  08 09 0A 0B 0C 0D 0E 0F
      -- -- -- -- -- -- -- --  -- -- -- -- -- -- -- --
00B0:                6C F8 FF  FF 7F 01 80 11 80 00          l......... 
```

#### Opcodes

```
  0: 0x00B5 [0x6C] FADE_ENTITY_COLOR(entity_id=EventEntity, end_alpha=128*, fade_time=1*)
  1: 0x00BE [0x00] END_REQSTACK()
```

### Event 65535.13

#### Metadata

| Field        | Value   |
|--------------|---------|
| Entrypoint   | 0x00BF  |
| Data Size    | 9 bytes |
| Instructions | 3       |

```
      00 01 02 03 04 05 06 07  08 09 0A 0B 0C 0D 0E 0F
      -- -- -- -- -- -- -- --  -- -- -- -- -- -- -- --
00B0:                                               22                 "
00C0: 00 2F 00 F8 FF FF 7F 00                           ./......        
```

#### Opcodes

```
  0: 0x00BF [0x22] ENTITY_HIDE_FLAG(enabled=0x00)
  1: 0x00C1 [0x2F] EventEntity->Render.Flags0 &= ~0x80000 // Bit 19
  2: 0x00C7 [0x00] END_REQSTACK()
```

### Event 65535.14

#### Metadata

| Field        | Value   |
|--------------|---------|
| Entrypoint   | 0x00C8  |
| Data Size    | 9 bytes |
| Instructions | 3       |

```
      00 01 02 03 04 05 06 07  08 09 0A 0B 0C 0D 0E 0F
      -- -- -- -- -- -- -- --  -- -- -- -- -- -- -- --
00C0:                          22 01 2F 01 F8 FF FF 7F          "./.....
00D0: 00                                                .               
```

#### Opcodes

```
  0: 0x00C8 [0x22] ENTITY_HIDE_FLAG(enabled=0x01)
  1: 0x00CA [0x2F] EventEntity->Render.Flags0 |= 0x80000 // Bit 19
  2: 0x00D0 [0x00] END_REQSTACK()
```

### Event 65535.15

#### Metadata

| Field        | Value    |
|--------------|----------|
| Entrypoint   | 0x00D1   |
| Data Size    | 10 bytes |
| Instructions | 2        |

```
      00 01 02 03 04 05 06 07  08 09 0A 0B 0C 0D 0E 0F
      -- -- -- -- -- -- -- --  -- -- -- -- -- -- -- --
00D0:    6C F8 FF FF 7F 02 80  11 80 00                  l.........     
```

#### Opcodes

```
  0: 0x00D1 [0x6C] FADE_ENTITY_COLOR(entity_id=EventEntity, end_alpha=0*, fade_time=1*)
  1: 0x00DA [0x00] END_REQSTACK()
```

### Event 65535.16

#### Metadata

| Field        | Value    |
|--------------|----------|
| Entrypoint   | 0x00DB   |
| Data Size    | 10 bytes |
| Instructions | 2        |

```
      00 01 02 03 04 05 06 07  08 09 0A 0B 0C 0D 0E 0F
      -- -- -- -- -- -- -- --  -- -- -- -- -- -- -- --
00D0:                                   6C F8 FF FF 7F             l....
00E0: 01 80 11 80 00                                    .....           
```

#### Opcodes

```
  0: 0x00DB [0x6C] FADE_ENTITY_COLOR(entity_id=EventEntity, end_alpha=128*, fade_time=1*)
  1: 0x00E4 [0x00] END_REQSTACK()
```

### Event 65535.17

#### Metadata

| Field        | Value   |
|--------------|---------|
| Entrypoint   | 0x00E5  |
| Data Size    | 9 bytes |
| Instructions | 3       |

```
      00 01 02 03 04 05 06 07  08 09 0A 0B 0C 0D 0E 0F
      -- -- -- -- -- -- -- --  -- -- -- -- -- -- -- --
00E0:                B6 00 12  80 B6 0F 13 80 00             .........  
```

#### Opcodes

```
  0: 0x00E5 [0xB6] ENTITY_APPEARANCE_HANDLER(case=Hair style, value=2368*)
  1: 0x00E9 [0xB6] ENTITY_APPEARANCE_HANDLER(case=Model size, value=12500*)
  2: 0x00ED [0x00] END_REQSTACK()
```
