# 17445225 - 2

## Common Data

| Field            | Value                         |
|------------------|-------------------------------|
| Zone             | Sacrificial Chamber (ID: 163) |
| Block Size       | 396 bytes                     |
| Total Events     | 12                            |
| References Count | 18                            |

## List of Events

| Event ID                   | Entrypoint   |   Size |   Instructions |
|----------------------------|--------------|--------|----------------|
| [65535](#event-65535)      | 0x0000       |      1 |              1 |
| [65535.1](#event-655351)   | 0x0001       |     15 |              4 |
| [65535.2](#event-655352)   | 0x0010       |     10 |              2 |
| [65535.3](#event-655353)   | 0x001A       |     10 |              2 |
| [5](#event-5)              | 0x0024       |      1 |              1 |
| [65535.4](#event-655354)   | 0x0025       |     21 |              2 |
| [65535.5](#event-655355)   | 0x003A       |     30 |              3 |
| [65535.6](#event-655356)   | 0x0058       |     37 |              5 |
| [65535.7](#event-655357)   | 0x007D       |     47 |              7 |
| [65535.8](#event-655358)   | 0x00AC       |     37 |              5 |
| [65535.9](#event-655359)   | 0x00D1       |     16 |              2 |
| [65535.10](#event-6553510) | 0x00E1       |     34 |              3 |

## DAT References (imed_data)

|   Index | Hex Value   |   Dec Value |
|---------|-------------|-------------|
|       0 | 0x0080      |         128 |
|       1 | 0x0000      |           0 |
|       2 | 0x0006      |           6 |
|       3 | 0x00C9      |         201 |
|       4 | 0x001E      |          30 |
|       5 | 0x0004      |           4 |
|       6 | 0x0001      |           1 |
|       7 | 0x0002      |           2 |
|       8 | 0xFFFF5576  |  4294923638 |
|       9 | 0x1A1CB     |      106955 |
|      10 | 0x001D      |          29 |
|      11 | 0x005A      |          90 |
|      12 | 0x0186      |         390 |
|      13 | 0x0AC8      |        2760 |
|      14 | 0xFFFF21BC  |  4294910396 |
|      15 | 0x14A78     |       84600 |
|      16 | 0x2007      |        8199 |
|      17 | 0x02CD      |         717 |

## Events

### Event 65535

#### Metadata

| Field        | Value   |
|--------------|---------|
| Entrypoint   | 0x0000  |
| Data Size    | 1 bytes |
| Instructions | 1       |

```
      00 01 02 03 04 05 06 07  08 09 0A 0B 0C 0D 0E 0F
      -- -- -- -- -- -- -- --  -- -- -- -- -- -- -- --
0000: 00                                                .               
```

#### Opcodes

```
  0: 0x0000 [0x00] END_REQSTACK()
```

### Event 65535.1

#### Metadata

| Field        | Value    |
|--------------|----------|
| Entrypoint   | 0x0001   |
| Data Size    | 15 bytes |
| Instructions | 4        |

```
      00 01 02 03 04 05 06 07  08 09 0A 0B 0C 0D 0E 0F
      -- -- -- -- -- -- -- --  -- -- -- -- -- -- -- --
0000:    22 00 92 01 F8 FF FF  7F 94 01 F8 FF FF 7F 00   "..............
```

#### Opcodes

```
  0: 0x0001 [0x22] ENTITY_HIDE_FLAG(enabled=0x00)
  1: 0x0003 [0x92] EventEntity->Render.Flags3 ^= 0x01
  2: 0x0009 [0x94] EventEntity->Render.Flags3 ^= 0x01
  3: 0x000F [0x00] END_REQSTACK()
```

### Event 65535.2

#### Metadata

| Field        | Value    |
|--------------|----------|
| Entrypoint   | 0x0010   |
| Data Size    | 10 bytes |
| Instructions | 2        |

```
      00 01 02 03 04 05 06 07  08 09 0A 0B 0C 0D 0E 0F
      -- -- -- -- -- -- -- --  -- -- -- -- -- -- -- --
0010: 6C F8 FF FF 7F 00 80 01  80 00                    l.........      
```

#### Opcodes

```
  0: 0x0010 [0x6C] FADE_ENTITY_COLOR(entity_id=EventEntity, end_alpha=128*, fade_time=0*)
  1: 0x0019 [0x00] END_REQSTACK()
```

### Event 65535.3

#### Metadata

| Field        | Value    |
|--------------|----------|
| Entrypoint   | 0x001A   |
| Data Size    | 10 bytes |
| Instructions | 2        |

```
      00 01 02 03 04 05 06 07  08 09 0A 0B 0C 0D 0E 0F
      -- -- -- -- -- -- -- --  -- -- -- -- -- -- -- --
0010:                                6C F8 FF FF 7F 01            l.....
0020: 80 01 80 00                                       ....            
```

#### Opcodes

```
  0: 0x001A [0x6C] FADE_ENTITY_COLOR(entity_id=EventEntity, end_alpha=0*, fade_time=0*)
  1: 0x0023 [0x00] END_REQSTACK()
```

### Event 5

#### Metadata

| Field        | Value   |
|--------------|---------|
| Entrypoint   | 0x0024  |
| Data Size    | 1 bytes |
| Instructions | 1       |

```
      00 01 02 03 04 05 06 07  08 09 0A 0B 0C 0D 0E 0F
      -- -- -- -- -- -- -- --  -- -- -- -- -- -- -- --
0020:             00                                        .           
```

#### Opcodes

```
  0: 0x0024 [0x00] END_REQSTACK()
```

### Event 65535.4

#### Metadata

| Field        | Value    |
|--------------|----------|
| Entrypoint   | 0x0025   |
| Data Size    | 21 bytes |
| Instructions | 2        |

```
      00 01 02 03 04 05 06 07  08 09 0A 0B 0C 0D 0E 0F
      -- -- -- -- -- -- -- --  -- -- -- -- -- -- -- --
0020:                B6 0B 02  80 02 80 01 80 03 80 03       ...........
0030: 80 03 80 03 80 01 80 01  80 00                    ..........      
```

#### Opcodes

```
  0: 0x0025 [0xB6] ENTITY_APPEARANCE_HANDLER(case=Full entity look, race=6*, hair=6*, head=0*, body=201*, hands=201*, legs=201*, feet=201*, main=0*, sub=0*)
  1: 0x0039 [0x00] END_REQSTACK()
```

### Event 65535.5

#### Metadata

| Field        | Value    |
|--------------|----------|
| Entrypoint   | 0x003A   |
| Data Size    | 30 bytes |
| Instructions | 3        |

```
      00 01 02 03 04 05 06 07  08 09 0A 0B 0C 0D 0E 0F
      -- -- -- -- -- -- -- --  -- -- -- -- -- -- -- --
0030:                                B6 0B 04 80 01 80            ......
0040: 01 80 05 80 06 80 07 80  07 80 01 80 01 80 37 08  ..............7.
0050: 80 09 80 01 80 0A 80 00                           ........        
```

#### Opcodes

```
  0: 0x003A [0xB6] ENTITY_APPEARANCE_HANDLER(case=Full entity look, race=30*, hair=0*, head=0*, body=4*, hands=1*, legs=2*, feet=2*, main=0*, sub=0*)
  1: 0x004E [0x37] UPDATE_EVENT_POSITION_AND_DIR: x=-43.658*, z=106.955*, y=0.000*, direction=2.5°*
  2: 0x0057 [0x00] END_REQSTACK()
```

### Event 65535.6

#### Metadata

| Field        | Value    |
|--------------|----------|
| Entrypoint   | 0x0058   |
| Data Size    | 37 bytes |
| Instructions | 5        |

```
      00 01 02 03 04 05 06 07  08 09 0A 0B 0C 0D 0E 0F
      -- -- -- -- -- -- -- --  -- -- -- -- -- -- -- --
0050:                          3B 73 31 0A 01 00 00 01          ;s1.....
0060: 00 02 00 3A 73 31 0A 01  03 00 BA F8 FF FF 7F 00  ...:s1..........
0070: 00 01 00 02 00 03 00 80  F8 FF FF 7F 00           .............   
```

#### Opcodes

```
  0: 0x0058 [0x3B] GET_ENTITY_POSITION(entity=12 (ID: 17445235/0x010A3173), x_destination=ExtData[1]->WorkLocal[0], y_destination=ExtData[1]->WorkLocal[1], z_destination=ExtData[1]->WorkLocal[2])
  1: 0x0063 [0x3A] CONVERT_YAW_TO_BYTE(entity=12 (ID: 17445235/0x010A3173), result_destination=ExtData[1]->WorkLocal[3])
  2: 0x006A [0xBA] SET_ENTITY_POSITION(entity_id=EventEntity, pos_x=ExtData[1]->WorkLocal[0], pos_z=ExtData[1]->WorkLocal[1], pos_y=ExtData[1]->WorkLocal[2], direction=ExtData[1]->WorkLocal[3])
  3: 0x0077 [0x80] LOAD_WAIT(entity=EventEntity)
  4: 0x007C [0x00] END_REQSTACK()
```

### Event 65535.7

#### Metadata

| Field        | Value    |
|--------------|----------|
| Entrypoint   | 0x007D   |
| Data Size    | 47 bytes |
| Instructions | 7        |

```
      00 01 02 03 04 05 06 07  08 09 0A 0B 0C 0D 0E 0F
      -- -- -- -- -- -- -- --  -- -- -- -- -- -- -- --
0070:                                         3B 73 31               ;s1
0080: 0A 01 00 00 01 00 02 00  3A 73 31 0A 01 03 00 08  ........:s1.....
0090: 01 00 0B 80 08 02 00 0C  80 BA F8 FF FF 7F 00 00  ................
00A0: 01 00 02 00 03 00 80 F8  FF FF 7F 00              ............    
```

#### Opcodes

```
  0: 0x007D [0x3B] GET_ENTITY_POSITION(entity=12 (ID: 17445235/0x010A3173), x_destination=ExtData[1]->WorkLocal[0], y_destination=ExtData[1]->WorkLocal[1], z_destination=ExtData[1]->WorkLocal[2])
  1: 0x0088 [0x3A] CONVERT_YAW_TO_BYTE(entity=12 (ID: 17445235/0x010A3173), result_destination=ExtData[1]->WorkLocal[3])
  2: 0x008F [0x08] ExtData[1]->WorkLocal[1] -= 90*
  3: 0x0094 [0x08] ExtData[1]->WorkLocal[2] -= 390*
  4: 0x0099 [0xBA] SET_ENTITY_POSITION(entity_id=EventEntity, pos_x=ExtData[1]->WorkLocal[0], pos_z=ExtData[1]->WorkLocal[1], pos_y=ExtData[1]->WorkLocal[2], direction=ExtData[1]->WorkLocal[3])
  5: 0x00A6 [0x80] LOAD_WAIT(entity=EventEntity)
  6: 0x00AB [0x00] END_REQSTACK()
```

### Event 65535.8

#### Metadata

| Field        | Value    |
|--------------|----------|
| Entrypoint   | 0x00AC   |
| Data Size    | 37 bytes |
| Instructions | 5        |

```
      00 01 02 03 04 05 06 07  08 09 0A 0B 0C 0D 0E 0F
      -- -- -- -- -- -- -- --  -- -- -- -- -- -- -- --
00A0:                                      3B 6A 31 0A              ;j1.
00B0: 01 00 00 01 00 02 00 3A  6A 31 0A 01 03 00 BA F8  .......:j1......
00C0: FF FF 7F 00 00 01 00 02  00 03 00 80 F8 FF FF 7F  ................
00D0: 00                                                .               
```

#### Opcodes

```
  0: 0x00AC [0x3B] GET_ENTITY_POSITION(entity=3 (ID: 17445226/0x010A316A), x_destination=ExtData[1]->WorkLocal[0], y_destination=ExtData[1]->WorkLocal[1], z_destination=ExtData[1]->WorkLocal[2])
  1: 0x00B7 [0x3A] CONVERT_YAW_TO_BYTE(entity=3 (ID: 17445226/0x010A316A), result_destination=ExtData[1]->WorkLocal[3])
  2: 0x00BE [0xBA] SET_ENTITY_POSITION(entity_id=EventEntity, pos_x=ExtData[1]->WorkLocal[0], pos_z=ExtData[1]->WorkLocal[1], pos_y=ExtData[1]->WorkLocal[2], direction=ExtData[1]->WorkLocal[3])
  3: 0x00CB [0x80] LOAD_WAIT(entity=EventEntity)
  4: 0x00D0 [0x00] END_REQSTACK()
```

### Event 65535.9

#### Metadata

| Field        | Value    |
|--------------|----------|
| Entrypoint   | 0x00D1   |
| Data Size    | 16 bytes |
| Instructions | 2        |

```
      00 01 02 03 04 05 06 07  08 09 0A 0B 0C 0D 0E 0F
      -- -- -- -- -- -- -- --  -- -- -- -- -- -- -- --
00D0:    5B 0D 80 F8 FF FF 7F  F8 FF FF 7F 6F 68 68 6C   [..........ohhl
00E0: 00                                                .               
```

#### Opcodes

```
  0: 0x00D1 [0x5B] LOAD_EXT_SCHEDULER: Load scheduler "ohhl" with entities [EventEntity, EventEntity], work=2760*
  1: 0x00E0 [0x00] END_REQSTACK()
```

### Event 65535.10

#### Metadata

| Field        | Value    |
|--------------|----------|
| Entrypoint   | 0x00E1   |
| Data Size    | 34 bytes |
| Instructions | 3        |

```
      00 01 02 03 04 05 06 07  08 09 0A 0B 0C 0D 0E 0F
      -- -- -- -- -- -- -- --  -- -- -- -- -- -- -- --
00E0:    B6 0B 02 80 02 80 01  80 03 80 03 80 03 80 03   ...............
00F0: 80 01 80 01 80 BA F8 FF  FF 7F 0E 80 0F 80 10 80  ................
0100: 11 80 00                                          ...             
```

#### Opcodes

```
  0: 0x00E1 [0xB6] ENTITY_APPEARANCE_HANDLER(case=Full entity look, race=6*, hair=6*, head=0*, body=201*, hands=201*, legs=201*, feet=201*, main=0*, sub=0*)
  1: 0x00F5 [0xBA] SET_ENTITY_POSITION(entity_id=EventEntity, pos_x=-56.900*, pos_z=84.600*, pos_y=8.199*, direction=63.0°*)
  2: 0x0102 [0x00] END_REQSTACK()
```
