# 17445220 - Shantotto

## Common Data

| Field            | Value                         |
|------------------|-------------------------------|
| Zone             | Sacrificial Chamber (ID: 163) |
| Block Size       | 1348 bytes                    |
| Total Events     | 34                            |
| References Count | 42                            |

## List of Events

| Event ID                   | Entrypoint   |   Size |   Instructions |
|----------------------------|--------------|--------|----------------|
| [65535](#event-65535)      | 0x0000       |      1 |              1 |
| [65535.1](#event-655351)   | 0x0001       |     18 |              2 |
| [65535.2](#event-655352)   | 0x0013       |     18 |              2 |
| [65535.3](#event-655353)   | 0x0025       |    288 |             44 |
| [65535.4](#event-655354)   | 0x0145       |     19 |              5 |
| [65535.5](#event-655355)   | 0x0158       |      2 |              2 |
| [65535.6](#event-655356)   | 0x015A       |     39 |              6 |
| [65535.7](#event-655357)   | 0x0181       |     25 |              3 |
| [65535.8](#event-655358)   | 0x019A       |     25 |              3 |
| [65535.9](#event-655359)   | 0x01B3       |     10 |              2 |
| [65535.10](#event-6553510) | 0x01BD       |     10 |              2 |
| [4](#event-4)              | 0x01C7       |      1 |              1 |
| [65535.11](#event-6553511) | 0x01C8       |     19 |              3 |
| [65535.12](#event-6553512) | 0x01DB       |     19 |              3 |
| [65535.13](#event-6553513) | 0x01EE       |     16 |              2 |
| [65535.14](#event-6553514) | 0x01FE       |     19 |              3 |
| [65535.15](#event-6553515) | 0x0211       |     16 |              2 |
| [65535.16](#event-6553516) | 0x0221       |     16 |              2 |
| [65535.17](#event-6553517) | 0x0231       |     19 |              3 |
| [65535.18](#event-6553518) | 0x0244       |     19 |              3 |
| [65535.19](#event-6553519) | 0x0257       |     21 |              3 |
| [65535.20](#event-6553520) | 0x026C       |     18 |              2 |
| [5](#event-5)              | 0x027E       |      1 |              1 |
| [65535.21](#event-6553521) | 0x027F       |     16 |              2 |
| [65535.22](#event-6553522) | 0x028F       |    148 |             23 |
| [65535.23](#event-6553523) | 0x0323       |     38 |              6 |
| [65535.24](#event-6553524) | 0x0349       |     14 |              2 |
| [65535.25](#event-6553525) | 0x0357       |     22 |              3 |
| [65535.26](#event-6553526) | 0x036D       |     25 |              4 |
| [65535.27](#event-6553527) | 0x0386       |     25 |              4 |
| [65535.28](#event-6553528) | 0x039F       |     25 |              4 |
| [65535.29](#event-6553529) | 0x03B8       |     25 |              4 |
| [65535.30](#event-6553530) | 0x03D1       |     25 |              4 |
| [65535.31](#event-6553531) | 0x03EA       |     25 |              4 |

## DAT References (imed_data)

|   Index | Hex Value   |   Dec Value |
|---------|-------------|-------------|
|       0 | 0x00C8      |         200 |
|       1 | 0x0000      |           0 |
|       2 | 0x0003      |           3 |
|       3 | 0x0040      |          64 |
|       4 | 0x0001      |           1 |
|       5 | 0x0050      |          80 |
|       6 | 0x0AD5      |        2773 |
|       7 | 0x0002      |           2 |
|       8 | 0x00D9      |         217 |
|       9 | 0x00A5      |         165 |
|      10 | 0x0004      |           4 |
|      11 | 0x006C      |         108 |
|      12 | 0x0AD6      |        2774 |
|      13 | 0x0005      |           5 |
|      14 | 0x0006      |           6 |
|      15 | 0x0074      |         116 |
|      16 | 0x0800      |        2048 |
|      17 | 0x0941      |        2369 |
|      18 | 0x0080      |         128 |
|      19 | 0x0AC7      |        2759 |
|      20 | 0x0043      |          67 |
|      21 | 0x003C      |          60 |
|      22 | 0x006F      |         111 |
|      23 | 0x0029      |          41 |
|      24 | 0x0ACF      |        2767 |
|      25 | 0x0044      |          68 |
|      26 | 0x0061      |          97 |
|      27 | 0x00C0      |         192 |
|      28 | 0x005A      |          90 |
|      29 | 0x0AD1      |        2769 |
|      30 | 0xFFFFEFCA  |  4294963146 |
|      31 | 0xA3AC      |       41900 |
|      32 | 0xFFFFFE70  |  4294966896 |
|      33 | 0x01D6      |         470 |
|      34 | 0x001E      |          30 |
|      35 | 0xFFFFF056  |  4294963286 |
|      36 | 0x9AC4      |       39620 |
|      37 | 0x0064      |         100 |
|      38 | 0xFFFFF16F  |  4294963567 |
|      39 | 0xAAC8      |       43720 |
|      40 | 0xFFFFF830  |  4294965296 |
|      41 | 0x00B4      |         180 |

## Events

### Event 65535

#### Metadata

| Field        | Value   |
|--------------|---------|
| Entrypoint   | 0x0000  |
| Data Size    | 1 bytes |
| Instructions | 1       |

```
      00 01 02 03 04 05 06 07  08 09 0A 0B 0C 0D 0E 0F
      -- -- -- -- -- -- -- --  -- -- -- -- -- -- -- --
0000: 00                                                .               
```

#### Opcodes

```
  0: 0x0000 [0x00] END_REQSTACK()
```

### Event 65535.1

#### Metadata

| Field        | Value    |
|--------------|----------|
| Entrypoint   | 0x0001   |
| Data Size    | 18 bytes |
| Instructions | 2        |

```
      00 01 02 03 04 05 06 07  08 09 0A 0B 0C 0D 0E 0F
      -- -- -- -- -- -- -- --  -- -- -- -- -- -- -- --
0000:    C5 00 80 F8 FF FF 7F  63 31 0A 01 73 74 74 32   .......c1..stt2
0010: 01 80 00                                          ...             
```

#### Opcodes

```
  0: 0x0001 [0xC5] LOAD_SCHEDULED_TASK_ALT3: Load scheduler 0x80013274 for entities [EventEntity, Shantotto (ID: 17445219/0x010A3163)], work=200*, param=29811
  1: 0x0012 [0x00] END_REQSTACK()
```

### Event 65535.2

#### Metadata

| Field        | Value    |
|--------------|----------|
| Entrypoint   | 0x0013   |
| Data Size    | 18 bytes |
| Instructions | 2        |

```
      00 01 02 03 04 05 06 07  08 09 0A 0B 0C 0D 0E 0F
      -- -- -- -- -- -- -- --  -- -- -- -- -- -- -- --
0010:          C5 00 80 64 31  0A 01 61 31 0A 01 73 74     ...d1..a1..st
0020: 74 33 01 80 00                                    t3...           
```

#### Opcodes

```
  0: 0x0013 [0xC5] LOAD_SCHEDULED_TASK_ALT3: Load scheduler 0x80013374 for entities [Shantotto (ID: 17445220/0x010A3164), ??? (ID: 17445217/0x010A3161)], work=200*, param=29811
  1: 0x0024 [0x00] END_REQSTACK()
```

### Event 65535.3

#### Metadata

| Field        | Value     |
|--------------|-----------|
| Entrypoint   | 0x0025    |
| Data Size    | 288 bytes |
| Instructions | 41        |

```
      00 01 02 03 04 05 06 07  08 09 0A 0B 0C 0D 0E 0F
      -- -- -- -- -- -- -- --  -- -- -- -- -- -- -- --
0020:                33 01 3B  F8 FF FF 7F 00 00 01 00       3.;........
0030: 02 00 06 05 00 16 04 00  05 00 02 80 07 02 00 04  ................
0040: 00 3A F8 FF FF 7F 03 00  37 00 00 01 00 02 00 03  .:......7.......
0050: 00 07 05 00 03 80 1C 01  80 02 27 10 04 80 00 23  ..........'....#
0060: 01 03 29 10 01 80 02 25  10 04 80 80 85 00 03 29  ..)....%.......)
0070: 10 05 80 5B 06 80 F8 FF  FF 7F F8 FF FF 7F 6C 62  ...[..........lb
0080: 30 31 01 20 01 02 25 10  07 80 80 A4 00 03 29 10  01. ..%.......).
0090: 08 80 5B 06 80 F8 FF FF  7F F8 FF FF 7F 6C 62 30  ..[..........lb0
00A0: 32 01 20 01 02 25 10 02  80 80 C3 00 03 29 10 09  2. ..%.......)..
00B0: 80 5B 06 80 F8 FF FF 7F  F8 FF FF 7F 6C 62 30 33  .[..........lb03
00C0: 01 20 01 02 25 10 0A 80  80 E2 00 03 29 10 0B 80  . ..%.......)...
00D0: 5B 0C 80 F8 FF FF 7F F8  FF FF 7F 6C 62 30 34 01  [..........lb04.
00E0: 20 01 02 25 10 0D 80 80  01 01 03 29 10 03 80 5B   ..%.......)...[
00F0: 0C 80 F8 FF FF 7F F8 FF  FF 7F 6C 62 30 35 01 20  ..........lb05. 
0100: 01 02 25 10 0E 80 80 20  01 03 29 10 0F 80 5B 0C  ..%.... ..)...[.
0110: 80 F8 FF FF 7F F8 FF FF  7F 6C 62 30 36 01 20 01  .........lb06. .
0120: 06 27 10 02 29 10 01 80  02 33 01 08 29 10 04 80  .'..)....3..)...
0130: 01 36 01 06 29 10 01 35  00 02 05 00 10 80 04 44  .6..)..5.......D
0140: 01 06 05 00 00                                    .....           
```

#### Opcodes

```
  0: 0x0025 [0x33] EventEntity->Render.Flags0 |= 0x200000 // Bit 21 (flag=0x01)
  1: 0x0027 [0x3B] GET_ENTITY_POSITION(entity=EventEntity, x_destination=ExtData[1]->WorkLocal[0], y_destination=ExtData[1]->WorkLocal[1], z_destination=ExtData[1]->WorkLocal[2])
  2: 0x0032 [0x06] ExtData[1]->WorkLocal[5] = 0
  3: 0x0035 [0x16] ExtData[1]->WorkLocal[4] = sin(ExtData[1]->WorkLocal[5]) * 3*
  4: 0x003C [0x07] ExtData[1]->WorkLocal[2] += ExtData[1]->WorkLocal[4]
  5: 0x0041 [0x3A] CONVERT_YAW_TO_BYTE(entity=EventEntity, result_destination=ExtData[1]->WorkLocal[3])
  6: 0x0048 [0x37] UPDATE_EVENT_POSITION_AND_DIR: x=ExtData[1]->WorkLocal[0], z=ExtData[1]->WorkLocal[1], y=ExtData[1]->WorkLocal[2], direction=ExtData[1]->WorkLocal[3]
  7: 0x0051 [0x07] ExtData[1]->WorkLocal[5] += 64*
  8: 0x0056 [0x1C] WAIT(0* ticks)
  9: 0x0059 [0x02] IF !(Work_Zone[39] == 1*) GOTO 0x0123
 10: 0x0061 [0x03] Work_Zone[41] = 0*
 11: 0x0066 [0x02] IF !(Work_Zone[37] == 1*) GOTO 0x0085
 12: 0x006E [0x03] Work_Zone[41] = 80*
 13: 0x0073 [0x5B] LOAD_EXT_SCHEDULER: Load scheduler "lb01" with entities [EventEntity, EventEntity], work=2773*
 14: 0x0082 [0x01] GOTO 0x0120
 15: 0x0085 [0x02] IF !(Work_Zone[37] == 2*) GOTO 0x00A4
 16: 0x008D [0x03] Work_Zone[41] = 217*
 17: 0x0092 [0x5B] LOAD_EXT_SCHEDULER: Load scheduler "lb02" with entities [EventEntity, EventEntity], work=2773*
 18: 0x00A1 [0x01] GOTO 0x0120
 19: 0x00A4 [0x02] IF !(Work_Zone[37] == 3*) GOTO 0x00C3
 20: 0x00AC [0x03] Work_Zone[41] = 165*
 21: 0x00B1 [0x5B] LOAD_EXT_SCHEDULER: Load scheduler "lb03" with entities [EventEntity, EventEntity], work=2773*
 22: 0x00C0 [0x01] GOTO 0x0120
 23: 0x00C3 [0x02] IF !(Work_Zone[37] == 4*) GOTO 0x00E2
 24: 0x00CB [0x03] Work_Zone[41] = 108*
 25: 0x00D0 [0x5B] LOAD_EXT_SCHEDULER: Load scheduler "lb04" with entities [EventEntity, EventEntity], work=2774*
 26: 0x00DF [0x01] GOTO 0x0120
 27: 0x00E2 [0x02] IF !(Work_Zone[37] == 5*) GOTO 0x0101
 28: 0x00EA [0x03] Work_Zone[41] = 64*
 29: 0x00EF [0x5B] LOAD_EXT_SCHEDULER: Load scheduler "lb05" with entities [EventEntity, EventEntity], work=2774*
 30: 0x00FE [0x01] GOTO 0x0120
 31: 0x0101 [0x02] IF !(Work_Zone[37] == 6*) GOTO 0x0120
 32: 0x0109 [0x03] Work_Zone[41] = 116*
 33: 0x010E [0x5B] LOAD_EXT_SCHEDULER: Load scheduler "lb06" with entities [EventEntity, EventEntity], work=2774*
 34: 0x011D [0x01] GOTO 0x0120

SUBROUTINE_0120:
 35: 0x0120 [0x06] Work_Zone[39] = 0
 36: 0x0123 [0x02] IF !(Work_Zone[41] <= 0*) GOTO 0x0133
 37: 0x012B [0x08] Work_Zone[41] -= 1*
 38: 0x0130 [0x01] GOTO 0x0136
 39: 0x0133 [0x06] Work_Zone[41] = 0

SUBROUTINE_0136:
 40: 0x0136 [0x01] GOTO 0x0035
```

#### Data or dead code:

```
# Dead code (unreachable instructions):
     0x0139 [0x02] IF !(ExtData[1]->WorkLocal[5] < 2048*) GOTO 0x0144
     0x0141 [0x06] ExtData[1]->WorkLocal[5] = 0
     0x0144 [0x00] END_REQSTACK()
```

### Event 65535.4

#### Metadata

| Field        | Value    |
|--------------|----------|
| Entrypoint   | 0x0145   |
| Data Size    | 19 bytes |
| Instructions | 5        |

```
      00 01 02 03 04 05 06 07  08 09 0A 0B 0C 0D 0E 0F
      -- -- -- -- -- -- -- --  -- -- -- -- -- -- -- --
0140:                B6 00 11  80 22 00 92 01 F8 FF FF       ...."......
0150: 7F 94 01 F8 FF FF 7F 00                           ........        
```

#### Opcodes

```
  0: 0x0145 [0xB6] ENTITY_APPEARANCE_HANDLER(case=Hair style, value=2369*)
  1: 0x0149 [0x22] ENTITY_HIDE_FLAG(enabled=0x00)
  2: 0x014B [0x92] EventEntity->Render.Flags3 ^= 0x01
  3: 0x0151 [0x94] EventEntity->Render.Flags3 ^= 0x01
  4: 0x0157 [0x00] END_REQSTACK()
```

### Event 65535.5

#### Metadata

| Field        | Value   |
|--------------|---------|
| Entrypoint   | 0x0158  |
| Data Size    | 2 bytes |
| Instructions | 2       |

```
      00 01 02 03 04 05 06 07  08 09 0A 0B 0C 0D 0E 0F
      -- -- -- -- -- -- -- --  -- -- -- -- -- -- -- --
0150:                          84 00                            ..      
```

#### Opcodes

```
  0: 0x0158 [0x84] ADJUST_RENDER_FLAGS3_BIT0()
  1: 0x0159 [0x00] END_REQSTACK()
```

### Event 65535.6

#### Metadata

| Field        | Value    |
|--------------|----------|
| Entrypoint   | 0x015A   |
| Data Size    | 39 bytes |
| Instructions | 6        |

```
      00 01 02 03 04 05 06 07  08 09 0A 0B 0C 0D 0E 0F
      -- -- -- -- -- -- -- --  -- -- -- -- -- -- -- --
0150:                                B4 13 06 00 42 2E            ....B.
0160: 40 53 68 61 6E 74 6F 74  74 6F 00 00 00 00 B5 00  @Shantotto......
0170: 06 00 22 00 92 01 F8 FF  FF 7F 94 01 F8 FF FF 7F  ..".............
0180: 00                                                .               
```

#### Opcodes

```
  0: 0x015A [0xB4] UI_WINDOW_STRING_HANDLER(case=0x13 - Copy string and replace @ with space, work_offset=ExtData[1]->WorkLocal[6], string="B.@Shantotto")
  1: 0x016E [0xB5] SET_EVENT_ENTITY_NAME: Change EventEntity name to ExtData[1]->WorkLocal[6]
  2: 0x0172 [0x22] ENTITY_HIDE_FLAG(enabled=0x00)
  3: 0x0174 [0x92] EventEntity->Render.Flags3 ^= 0x01
  4: 0x017A [0x94] EventEntity->Render.Flags3 ^= 0x01
  5: 0x0180 [0x00] END_REQSTACK()
```

### Event 65535.7

#### Metadata

| Field        | Value    |
|--------------|----------|
| Entrypoint   | 0x0181   |
| Data Size    | 25 bytes |
| Instructions | 3        |

```
      00 01 02 03 04 05 06 07  08 09 0A 0B 0C 0D 0E 0F
      -- -- -- -- -- -- -- --  -- -- -- -- -- -- -- --
0180:    B4 00 06 00 53 68 61  6E 74 6F 74 74 6F 00 00   ....Shantotto..
0190: 00 00 00 00 00 B5 00 06  00 00                    ..........      
```

#### Opcodes

```
  0: 0x0181 [0xB4] UI_WINDOW_STRING_HANDLER(case=0x00 - Copy string from opcode, work_offset=ExtData[1]->WorkLocal[6], string="Shantotto")
  1: 0x0195 [0xB5] SET_EVENT_ENTITY_NAME: Change EventEntity name to ExtData[1]->WorkLocal[6]
  2: 0x0199 [0x00] END_REQSTACK()
```

### Event 65535.8

#### Metadata

| Field        | Value    |
|--------------|----------|
| Entrypoint   | 0x019A   |
| Data Size    | 25 bytes |
| Instructions | 3        |

```
      00 01 02 03 04 05 06 07  08 09 0A 0B 0C 0D 0E 0F
      -- -- -- -- -- -- -- --  -- -- -- -- -- -- -- --
0190:                                B4 13 06 00 3F 3F            ....??
01A0: 3F 40 53 68 61 6E 74 6F  74 74 6F 00 00 00 B5 00  ?@Shantotto.....
01B0: 06 00 00                                          ...             
```

#### Opcodes

```
  0: 0x019A [0xB4] UI_WINDOW_STRING_HANDLER(case=0x13 - Copy string and replace @ with space, work_offset=ExtData[1]->WorkLocal[6], string="???@Shantotto")
  1: 0x01AE [0xB5] SET_EVENT_ENTITY_NAME: Change EventEntity name to ExtData[1]->WorkLocal[6]
  2: 0x01B2 [0x00] END_REQSTACK()
```

### Event 65535.9

#### Metadata

| Field        | Value    |
|--------------|----------|
| Entrypoint   | 0x01B3   |
| Data Size    | 10 bytes |
| Instructions | 2        |

```
      00 01 02 03 04 05 06 07  08 09 0A 0B 0C 0D 0E 0F
      -- -- -- -- -- -- -- --  -- -- -- -- -- -- -- --
01B0:          6C F8 FF FF 7F  12 80 01 80 00              l.........   
```

#### Opcodes

```
  0: 0x01B3 [0x6C] FADE_ENTITY_COLOR(entity_id=EventEntity, end_alpha=128*, fade_time=0*)
  1: 0x01BC [0x00] END_REQSTACK()
```

### Event 65535.10

#### Metadata

| Field        | Value    |
|--------------|----------|
| Entrypoint   | 0x01BD   |
| Data Size    | 10 bytes |
| Instructions | 2        |

```
      00 01 02 03 04 05 06 07  08 09 0A 0B 0C 0D 0E 0F
      -- -- -- -- -- -- -- --  -- -- -- -- -- -- -- --
01B0:                                         6C F8 FF               l..
01C0: FF 7F 01 80 01 80 00                              .......         
```

#### Opcodes

```
  0: 0x01BD [0x6C] FADE_ENTITY_COLOR(entity_id=EventEntity, end_alpha=0*, fade_time=0*)
  1: 0x01C6 [0x00] END_REQSTACK()
```

### Event 4

#### Metadata

| Field        | Value   |
|--------------|---------|
| Entrypoint   | 0x01C7  |
| Data Size    | 1 bytes |
| Instructions | 1       |

```
      00 01 02 03 04 05 06 07  08 09 0A 0B 0C 0D 0E 0F
      -- -- -- -- -- -- -- --  -- -- -- -- -- -- -- --
01C0:                      00                                  .        
```

#### Opcodes

```
  0: 0x01C7 [0x00] END_REQSTACK()
```

### Event 65535.11

#### Metadata

| Field        | Value    |
|--------------|----------|
| Entrypoint   | 0x01C8   |
| Data Size    | 19 bytes |
| Instructions | 3        |

```
      00 01 02 03 04 05 06 07  08 09 0A 0B 0C 0D 0E 0F
      -- -- -- -- -- -- -- --  -- -- -- -- -- -- -- --
01C0:                          5B 13 80 F8 FF FF 7F F8          [.......
01D0: FF FF 7F 62 72 69 30 1C  14 80 00                 ...bri0....     
```

#### Opcodes

```
  0: 0x01C8 [0x5B] LOAD_EXT_SCHEDULER: Load scheduler "bri0" with entities [EventEntity, EventEntity], work=2759*
  1: 0x01D7 [0x1C] WAIT(67* ticks)
  2: 0x01DA [0x00] END_REQSTACK()
```

### Event 65535.12

#### Metadata

| Field        | Value    |
|--------------|----------|
| Entrypoint   | 0x01DB   |
| Data Size    | 19 bytes |
| Instructions | 3        |

```
      00 01 02 03 04 05 06 07  08 09 0A 0B 0C 0D 0E 0F
      -- -- -- -- -- -- -- --  -- -- -- -- -- -- -- --
01D0:                                   5B 13 80 F8 FF             [....
01E0: FF 7F F8 FF FF 7F 62 72  69 31 1C 15 80 00        ......bri1....  
```

#### Opcodes

```
  0: 0x01DB [0x5B] LOAD_EXT_SCHEDULER: Load scheduler "bri1" with entities [EventEntity, EventEntity], work=2759*
  1: 0x01EA [0x1C] WAIT(60* ticks)
  2: 0x01ED [0x00] END_REQSTACK()
```

### Event 65535.13

#### Metadata

| Field        | Value    |
|--------------|----------|
| Entrypoint   | 0x01EE   |
| Data Size    | 16 bytes |
| Instructions | 2        |

```
      00 01 02 03 04 05 06 07  08 09 0A 0B 0C 0D 0E 0F
      -- -- -- -- -- -- -- --  -- -- -- -- -- -- -- --
01E0:                                            5B 13                [.
01F0: 80 F8 FF FF 7F F8 FF FF  7F 62 72 69 6C 00        .........bril.  
```

#### Opcodes

```
  0: 0x01EE [0x5B] LOAD_EXT_SCHEDULER: Load scheduler "bril" with entities [EventEntity, EventEntity], work=2759*
  1: 0x01FD [0x00] END_REQSTACK()
```

### Event 65535.14

#### Metadata

| Field        | Value    |
|--------------|----------|
| Entrypoint   | 0x01FE   |
| Data Size    | 19 bytes |
| Instructions | 3        |

```
      00 01 02 03 04 05 06 07  08 09 0A 0B 0C 0D 0E 0F
      -- -- -- -- -- -- -- --  -- -- -- -- -- -- -- --
01F0:                                            5B 13                [.
0200: 80 F8 FF FF 7F F8 FF FF  7F 79 67 6F 30 1C 16 80  .........ygo0...
0210: 00                                                .               
```

#### Opcodes

```
  0: 0x01FE [0x5B] LOAD_EXT_SCHEDULER: Load scheduler "ygo0" with entities [EventEntity, EventEntity], work=2759*
  1: 0x020D [0x1C] WAIT(111* ticks)
  2: 0x0210 [0x00] END_REQSTACK()
```

### Event 65535.15

#### Metadata

| Field        | Value    |
|--------------|----------|
| Entrypoint   | 0x0211   |
| Data Size    | 16 bytes |
| Instructions | 2        |

```
      00 01 02 03 04 05 06 07  08 09 0A 0B 0C 0D 0E 0F
      -- -- -- -- -- -- -- --  -- -- -- -- -- -- -- --
0210:    66 17 80 F8 FF FF 7F  F8 FF FF 7F 6F 68 68 31   f..........ohh1
0220: 00                                                .               
```

#### Opcodes

```
  0: 0x0211 [0x66] LOAD_EXT_SCHEDULER_MAIN: Load scheduler "ohh1" with entities [EventEntity, EventEntity], work=41*
  1: 0x0220 [0x00] END_REQSTACK()
```

### Event 65535.16

#### Metadata

| Field        | Value    |
|--------------|----------|
| Entrypoint   | 0x0221   |
| Data Size    | 16 bytes |
| Instructions | 2        |

```
      00 01 02 03 04 05 06 07  08 09 0A 0B 0C 0D 0E 0F
      -- -- -- -- -- -- -- --  -- -- -- -- -- -- -- --
0220:    5B 18 80 F8 FF FF 7F  F8 FF FF 7F 6F 70 30 30   [..........op00
0230: 00                                                .               
```

#### Opcodes

```
  0: 0x0221 [0x5B] LOAD_EXT_SCHEDULER: Load scheduler "op00" with entities [EventEntity, EventEntity], work=2767*
  1: 0x0230 [0x00] END_REQSTACK()
```

### Event 65535.17

#### Metadata

| Field        | Value    |
|--------------|----------|
| Entrypoint   | 0x0231   |
| Data Size    | 19 bytes |
| Instructions | 3        |

```
      00 01 02 03 04 05 06 07  08 09 0A 0B 0C 0D 0E 0F
      -- -- -- -- -- -- -- --  -- -- -- -- -- -- -- --
0230:    5B 13 80 F8 FF FF 7F  F8 FF FF 7F 62 6F 68 30   [..........boh0
0240: 1C 19 80 00                                       ....            
```

#### Opcodes

```
  0: 0x0231 [0x5B] LOAD_EXT_SCHEDULER: Load scheduler "boh0" with entities [EventEntity, EventEntity], work=2759*
  1: 0x0240 [0x1C] WAIT(68* ticks)
  2: 0x0243 [0x00] END_REQSTACK()
```

### Event 65535.18

#### Metadata

| Field        | Value    |
|--------------|----------|
| Entrypoint   | 0x0244   |
| Data Size    | 19 bytes |
| Instructions | 3        |

```
      00 01 02 03 04 05 06 07  08 09 0A 0B 0C 0D 0E 0F
      -- -- -- -- -- -- -- --  -- -- -- -- -- -- -- --
0240:             5B 13 80 F8  FF FF 7F F8 FF FF 7F 79      [..........y
0250: 65 73 30 1C 1A 80 00                              es0....         
```

#### Opcodes

```
  0: 0x0244 [0x5B] LOAD_EXT_SCHEDULER: Load scheduler "yes0" with entities [EventEntity, EventEntity], work=2759*
  1: 0x0253 [0x1C] WAIT(97* ticks)
  2: 0x0256 [0x00] END_REQSTACK()
```

### Event 65535.19

#### Metadata

| Field        | Value    |
|--------------|----------|
| Entrypoint   | 0x0257   |
| Data Size    | 21 bytes |
| Instructions | 3        |

```
      00 01 02 03 04 05 06 07  08 09 0A 0B 0C 0D 0E 0F
      -- -- -- -- -- -- -- --  -- -- -- -- -- -- -- --
0250:                      C5  1B 80 F8 FF FF 7F F8 FF         .........
0260: FF 7F 73 74 62 31 01 80  1C 1C 80 00              ..stb1......    
```

#### Opcodes

```
  0: 0x0257 [0xC5] LOAD_SCHEDULED_TASK_ALT3: Load scheduler 0x80013162 for entities [EventEntity, EventEntity], work=192*, param=29811
  1: 0x0268 [0x1C] WAIT(90* ticks)
  2: 0x026B [0x00] END_REQSTACK()
```

### Event 65535.20

#### Metadata

| Field        | Value    |
|--------------|----------|
| Entrypoint   | 0x026C   |
| Data Size    | 18 bytes |
| Instructions | 2        |

```
      00 01 02 03 04 05 06 07  08 09 0A 0B 0C 0D 0E 0F
      -- -- -- -- -- -- -- --  -- -- -- -- -- -- -- --
0260:                                      C5 1B 80 F8              ....
0270: FF FF 7F F8 FF FF 7F 73  74 62 32 01 80 00        .......stb2...  
```

#### Opcodes

```
  0: 0x026C [0xC5] LOAD_SCHEDULED_TASK_ALT3: Load scheduler 0x80013262 for entities [EventEntity, EventEntity], work=192*, param=29811
  1: 0x027D [0x00] END_REQSTACK()
```

### Event 5

#### Metadata

| Field        | Value   |
|--------------|---------|
| Entrypoint   | 0x027E  |
| Data Size    | 1 bytes |
| Instructions | 1       |

```
      00 01 02 03 04 05 06 07  08 09 0A 0B 0C 0D 0E 0F
      -- -- -- -- -- -- -- --  -- -- -- -- -- -- -- --
0270:                                            00                   . 
```

#### Opcodes

```
  0: 0x027E [0x00] END_REQSTACK()
```

### Event 65535.21

#### Metadata

| Field        | Value    |
|--------------|----------|
| Entrypoint   | 0x027F   |
| Data Size    | 16 bytes |
| Instructions | 2        |

```
      00 01 02 03 04 05 06 07  08 09 0A 0B 0C 0D 0E 0F
      -- -- -- -- -- -- -- --  -- -- -- -- -- -- -- --
0270:                                               5B                 [
0280: 1D 80 F8 FF FF 7F F8 FF  FF 7F 6C 73 74 30 00     ..........lst0. 
```

#### Opcodes

```
  0: 0x027F [0x5B] LOAD_EXT_SCHEDULER: Load scheduler "lst0" with entities [EventEntity, EventEntity], work=2769*
  1: 0x028E [0x00] END_REQSTACK()
```

### Event 65535.22

#### Metadata

| Field        | Value     |
|--------------|-----------|
| Entrypoint   | 0x028F    |
| Data Size    | 148 bytes |
| Instructions | 23        |

```
      00 01 02 03 04 05 06 07  08 09 0A 0B 0C 0D 0E 0F
      -- -- -- -- -- -- -- --  -- -- -- -- -- -- -- --
0280:                                               7B                 {
0290: F8 FF FF 7F BA 61 31 0A  01 1E 80 1F 80 20 80 21  .....a1...... .!
02A0: 80 80 61 31 0A 01 1C 04  80 59 03 F8 FF FF 7F 00  ..a1.....Y......
02B0: 80 79 00 F8 FF FF 7F 61  31 0A 01 1C 22 80 7B F8  .y.....a1...".{.
02C0: FF FF 7F BA 61 31 0A 01  23 80 24 80 20 80 21 80  ....a1..#.$. .!.
02D0: 80 61 31 0A 01 79 00 F8  FF FF 7F 61 31 0A 01 1C  .a1..y.....a1...
02E0: 22 80 7B F8 FF FF 7F BA  61 31 0A 01 1E 80 1F 80  ".{.....a1......
02F0: 20 80 21 80 80 61 31 0A  01 79 00 F8 FF FF 7F 61   .!..a1..y.....a
0300: 31 0A 01 1C 22 80 59 03  F8 FF FF 7F 25 80 7B F8  1...".Y.....%.{.
0310: FF FF 7F 4A F8 FF FF 7F  67 31 0A 01 6F 76 F8 FF  ...J....g1..ov..
0320: FF 7F 00                                          ...             
```

#### Opcodes

```
  0: 0x028F [0x7B] EventEntity stops talking
  1: 0x0294 [0xBA] SET_ENTITY_POSITION(entity_id=??? (ID: 17445217/0x010A3161), pos_x=-4.150*, pos_z=41.900*, pos_y=-0.400*, direction=41.3째*)
  2: 0x02A1 [0x80] LOAD_WAIT(entity=??? (ID: 17445217/0x010A3161))
  3: 0x02A6 [0x1C] WAIT(1* ticks)
  4: 0x02A9 [0x59] UPDATE_ENTITY_DATA: Set EventEntity turn speed head = 200*
  5: 0x02B1 [0x79] EventEntity looks at ??? (ID: 17445217/0x010A3161) (Basic look)
  6: 0x02BB [0x1C] WAIT(30* ticks)
  7: 0x02BE [0x7B] EventEntity stops talking
  8: 0x02C3 [0xBA] SET_ENTITY_POSITION(entity_id=??? (ID: 17445217/0x010A3161), pos_x=-4.010*, pos_z=39.620*, pos_y=-0.400*, direction=41.3째*)
  9: 0x02D0 [0x80] LOAD_WAIT(entity=??? (ID: 17445217/0x010A3161))
 10: 0x02D5 [0x79] EventEntity looks at ??? (ID: 17445217/0x010A3161) (Basic look)
 11: 0x02DF [0x1C] WAIT(30* ticks)
 12: 0x02E2 [0x7B] EventEntity stops talking
 13: 0x02E7 [0xBA] SET_ENTITY_POSITION(entity_id=??? (ID: 17445217/0x010A3161), pos_x=-4.150*, pos_z=41.900*, pos_y=-0.400*, direction=41.3째*)
 14: 0x02F4 [0x80] LOAD_WAIT(entity=??? (ID: 17445217/0x010A3161))
 15: 0x02F9 [0x79] EventEntity looks at ??? (ID: 17445217/0x010A3161) (Basic look)
 16: 0x0303 [0x1C] WAIT(30* ticks)
 17: 0x0306 [0x59] UPDATE_ENTITY_DATA: Set EventEntity turn speed head = 100*
 18: 0x030E [0x7B] EventEntity stops talking
 19: 0x0313 [0x4A] EventEntity looks at Yoran-Oran (ID: 17445223/0x010A3167)
 20: 0x031C [0x6F] WAIT_FRAME_DELAY: Yield until WaitTime reaches zero
 21: 0x031D [0x76] CHECK_ENTITY_RENDER_FLAGS: Wait until EventEntity Render.Flags0 and Render.Flags3 conditions are met
 22: 0x0322 [0x00] END_REQSTACK()
```

### Event 65535.23

#### Metadata

| Field        | Value    |
|--------------|----------|
| Entrypoint   | 0x0323   |
| Data Size    | 38 bytes |
| Instructions | 6        |

```
      00 01 02 03 04 05 06 07  08 09 0A 0B 0C 0D 0E 0F
      -- -- -- -- -- -- -- --  -- -- -- -- -- -- -- --
0320:          59 05 F8 FF FF  7F 01 BA F8 FF FF 7F 26     Y...........&
0330: 80 27 80 28 80 21 80 80  F8 FF FF 7F 1C 15 80 6C  .'.(.!.........l
0340: F8 FF FF 7F 01 80 29 80  00                       ......)..       
```

#### Opcodes

```
  0: 0x0323 [0x59] UPDATE_ENTITY_DATA: EventEntity->Render.Flags0 |= 0x200000
  1: 0x032A [0xBA] SET_ENTITY_POSITION(entity_id=EventEntity, pos_x=-3.729*, pos_z=43.720*, pos_y=-2.000*, direction=41.3째*)
  2: 0x0337 [0x80] LOAD_WAIT(entity=EventEntity)
  3: 0x033C [0x1C] WAIT(60* ticks)
  4: 0x033F [0x6C] FADE_ENTITY_COLOR(entity_id=EventEntity, end_alpha=0*, fade_time=180*)
  5: 0x0348 [0x00] END_REQSTACK()
```

### Event 65535.24

#### Metadata

| Field        | Value    |
|--------------|----------|
| Entrypoint   | 0x0349   |
| Data Size    | 14 bytes |
| Instructions | 2        |

```
      00 01 02 03 04 05 06 07  08 09 0A 0B 0C 0D 0E 0F
      -- -- -- -- -- -- -- --  -- -- -- -- -- -- -- --
0340:                             2C F8 FF FF 7F F8 FF           ,......
0350: FF 7F 63 6F 72 70 00                              ..corp.         
```

#### Opcodes

```
  0: 0x0349 [0x2C] CREATE_SCHEDULER_TASK: Create scheduler "corp" with entities [EventEntity, EventEntity]
  1: 0x0356 [0x00] END_REQSTACK()
```

### Event 65535.25

#### Metadata

| Field        | Value    |
|--------------|----------|
| Entrypoint   | 0x0357   |
| Data Size    | 22 bytes |
| Instructions | 3        |

```
      00 01 02 03 04 05 06 07  08 09 0A 0B 0C 0D 0E 0F
      -- -- -- -- -- -- -- --  -- -- -- -- -- -- -- --
0350:                      81  00 F8 FF FF 7F 5B 06 80         ......[..
0360: F8 FF FF 7F F8 FF FF 7F  6C 62 30 30 00           ........lb00.   
```

#### Opcodes

```
  0: 0x0357 [0x81] SET_ENTITY_BLINKING(blink_flag=0x00, entity=EventEntity)
  1: 0x035D [0x5B] LOAD_EXT_SCHEDULER: Load scheduler "lb00" with entities [EventEntity, EventEntity], work=2773*
  2: 0x036C [0x00] END_REQSTACK()
```

### Event 65535.26

#### Metadata

| Field        | Value    |
|--------------|----------|
| Entrypoint   | 0x036D   |
| Data Size    | 25 bytes |
| Instructions | 4        |

```
      00 01 02 03 04 05 06 07  08 09 0A 0B 0C 0D 0E 0F
      -- -- -- -- -- -- -- --  -- -- -- -- -- -- -- --
0360:                                         81 00 F8               ...
0370: FF FF 7F 5B 06 80 F8 FF  FF 7F F8 FF FF 7F 6C 62  ...[..........lb
0380: 30 31 1C 05 80 00                                 01....          
```

#### Opcodes

```
  0: 0x036D [0x81] SET_ENTITY_BLINKING(blink_flag=0x00, entity=EventEntity)
  1: 0x0373 [0x5B] LOAD_EXT_SCHEDULER: Load scheduler "lb01" with entities [EventEntity, EventEntity], work=2773*
  2: 0x0382 [0x1C] WAIT(80* ticks)
  3: 0x0385 [0x00] END_REQSTACK()
```

### Event 65535.27

#### Metadata

| Field        | Value    |
|--------------|----------|
| Entrypoint   | 0x0386   |
| Data Size    | 25 bytes |
| Instructions | 4        |

```
      00 01 02 03 04 05 06 07  08 09 0A 0B 0C 0D 0E 0F
      -- -- -- -- -- -- -- --  -- -- -- -- -- -- -- --
0380:                   81 00  F8 FF FF 7F 5B 06 80 F8        ......[...
0390: FF FF 7F F8 FF FF 7F 6C  62 30 32 1C 08 80 00     .......lb02.... 
```

#### Opcodes

```
  0: 0x0386 [0x81] SET_ENTITY_BLINKING(blink_flag=0x00, entity=EventEntity)
  1: 0x038C [0x5B] LOAD_EXT_SCHEDULER: Load scheduler "lb02" with entities [EventEntity, EventEntity], work=2773*
  2: 0x039B [0x1C] WAIT(217* ticks)
  3: 0x039E [0x00] END_REQSTACK()
```

### Event 65535.28

#### Metadata

| Field        | Value    |
|--------------|----------|
| Entrypoint   | 0x039F   |
| Data Size    | 25 bytes |
| Instructions | 4        |

```
      00 01 02 03 04 05 06 07  08 09 0A 0B 0C 0D 0E 0F
      -- -- -- -- -- -- -- --  -- -- -- -- -- -- -- --
0390:                                               81                 .
03A0: 00 F8 FF FF 7F 5B 06 80  F8 FF FF 7F F8 FF FF 7F  .....[..........
03B0: 6C 62 30 33 1C 09 80 00                           lb03....        
```

#### Opcodes

```
  0: 0x039F [0x81] SET_ENTITY_BLINKING(blink_flag=0x00, entity=EventEntity)
  1: 0x03A5 [0x5B] LOAD_EXT_SCHEDULER: Load scheduler "lb03" with entities [EventEntity, EventEntity], work=2773*
  2: 0x03B4 [0x1C] WAIT(165* ticks)
  3: 0x03B7 [0x00] END_REQSTACK()
```

### Event 65535.29

#### Metadata

| Field        | Value    |
|--------------|----------|
| Entrypoint   | 0x03B8   |
| Data Size    | 25 bytes |
| Instructions | 4        |

```
      00 01 02 03 04 05 06 07  08 09 0A 0B 0C 0D 0E 0F
      -- -- -- -- -- -- -- --  -- -- -- -- -- -- -- --
03B0:                          81 00 F8 FF FF 7F 5B 0C          ......[.
03C0: 80 F8 FF FF 7F F8 FF FF  7F 6C 62 30 34 1C 09 80  .........lb04...
03D0: 00                                                .               
```

#### Opcodes

```
  0: 0x03B8 [0x81] SET_ENTITY_BLINKING(blink_flag=0x00, entity=EventEntity)
  1: 0x03BE [0x5B] LOAD_EXT_SCHEDULER: Load scheduler "lb04" with entities [EventEntity, EventEntity], work=2774*
  2: 0x03CD [0x1C] WAIT(165* ticks)
  3: 0x03D0 [0x00] END_REQSTACK()
```

### Event 65535.30

#### Metadata

| Field        | Value    |
|--------------|----------|
| Entrypoint   | 0x03D1   |
| Data Size    | 25 bytes |
| Instructions | 4        |

```
      00 01 02 03 04 05 06 07  08 09 0A 0B 0C 0D 0E 0F
      -- -- -- -- -- -- -- --  -- -- -- -- -- -- -- --
03D0:    81 00 F8 FF FF 7F 5B  0C 80 F8 FF FF 7F F8 FF   ......[........
03E0: FF 7F 6C 62 30 35 1C 03  80 00                    ..lb05....      
```

#### Opcodes

```
  0: 0x03D1 [0x81] SET_ENTITY_BLINKING(blink_flag=0x00, entity=EventEntity)
  1: 0x03D7 [0x5B] LOAD_EXT_SCHEDULER: Load scheduler "lb05" with entities [EventEntity, EventEntity], work=2774*
  2: 0x03E6 [0x1C] WAIT(64* ticks)
  3: 0x03E9 [0x00] END_REQSTACK()
```

### Event 65535.31

#### Metadata

| Field        | Value    |
|--------------|----------|
| Entrypoint   | 0x03EA   |
| Data Size    | 25 bytes |
| Instructions | 4        |

```
      00 01 02 03 04 05 06 07  08 09 0A 0B 0C 0D 0E 0F
      -- -- -- -- -- -- -- --  -- -- -- -- -- -- -- --
03E0:                                81 00 F8 FF FF 7F            ......
03F0: 5B 0C 80 F8 FF FF 7F F8  FF FF 7F 6C 62 30 36 1C  [..........lb06.
0400: 0F 80 00                                          ...             
```

#### Opcodes

```
  0: 0x03EA [0x81] SET_ENTITY_BLINKING(blink_flag=0x00, entity=EventEntity)
  1: 0x03F0 [0x5B] LOAD_EXT_SCHEDULER: Load scheduler "lb06" with entities [EventEntity, EventEntity], work=2774*
  2: 0x03FF [0x1C] WAIT(116* ticks)
  3: 0x0402 [0x00] END_REQSTACK()
```
