# 17445222 - Aldo

## Common Data

| Field            | Value                         |
|------------------|-------------------------------|
| Zone             | Sacrificial Chamber (ID: 163) |
| Block Size       | 704 bytes                     |
| Total Events     | 27                            |
| References Count | 25                            |

## List of Events

| Event ID                   | Entrypoint   |   Size |   Instructions |
|----------------------------|--------------|--------|----------------|
| [65535](#event-65535)      | 0x0000       |      1 |              1 |
| [65535.1](#event-655351)   | 0x0001       |     19 |              5 |
| [4](#event-4)              | 0x0014       |      1 |              1 |
| [65535.2](#event-655352)   | 0x0015       |     15 |              5 |
| [65535.3](#event-655353)   | 0x0024       |     19 |              3 |
| [65535.4](#event-655354)   | 0x0037       |     29 |              3 |
| [5](#event-5)              | 0x0054       |      1 |              1 |
| [65535.5](#event-655355)   | 0x0055       |     16 |              2 |
| [65535.6](#event-655356)   | 0x0065       |     16 |              2 |
| [65535.7](#event-655357)   | 0x0075       |     19 |              3 |
| [65535.8](#event-655358)   | 0x0088       |     29 |              3 |
| [65535.9](#event-655359)   | 0x00A5       |     16 |              2 |
| [65535.10](#event-6553510) | 0x00B5       |     19 |              3 |
| [65535.11](#event-6553511) | 0x00C8       |     19 |              3 |
| [65535.12](#event-6553512) | 0x00DB       |     19 |              3 |
| [65535.13](#event-6553513) | 0x00EE       |     19 |              3 |
| [65535.14](#event-6553514) | 0x0101       |     19 |              3 |
| [65535.15](#event-6553515) | 0x0114       |     19 |              3 |
| [65535.16](#event-6553516) | 0x0127       |     45 |              8 |
| [65535.17](#event-6553517) | 0x0154       |     14 |              4 |
| [65535.18](#event-6553518) | 0x0162       |     16 |              2 |
| [65535.19](#event-6553519) | 0x0172       |     16 |              2 |
| [65535.20](#event-6553520) | 0x0182       |     19 |              3 |
| [65535.21](#event-6553521) | 0x0195       |     16 |              2 |
| [65535.22](#event-6553522) | 0x01A5       |     19 |              3 |
| [65535.23](#event-6553523) | 0x01B8       |     19 |              3 |
| [65535.24](#event-6553524) | 0x01CB       |     19 |              3 |

## DAT References (imed_data)

|   Index | Hex Value   |   Dec Value |
|---------|-------------|-------------|
|       0 | 0x004E      |          78 |
|       1 | 0x0032      |          50 |
|       2 | 0xFFFFFA19  |  4294965785 |
|       3 | 0xA213      |       41491 |
|       4 | 0x0000      |           0 |
|       5 | 0x00B9      |         185 |
|       6 | 0x003C      |          60 |
|       7 | 0x0AC9      |        2761 |
|       8 | 0x0060      |          96 |
|       9 | 0x0087      |         135 |
|      10 | 0x0118      |         280 |
|      11 | 0x0084      |         132 |
|      12 | 0x012C      |         300 |
|      13 | 0x03E8      |        1000 |
|      14 | 0x00B4      |         180 |
|      15 | 0xFFFFFC18  |  4294966296 |
|      16 | 0x000A      |          10 |
|      17 | 0x17CA      |        6090 |
|      18 | 0x8502      |       34050 |
|      19 | 0x021D      |         541 |
|      20 | 0x005A      |          90 |
|      21 | 0x0ADC      |        2780 |
|      22 | 0x0104      |         260 |
|      23 | 0x00A0      |         160 |
|      24 | 0x0148      |         328 |

## Events

### Event 65535

#### Metadata

| Field        | Value   |
|--------------|---------|
| Entrypoint   | 0x0000  |
| Data Size    | 1 bytes |
| Instructions | 1       |

```
      00 01 02 03 04 05 06 07  08 09 0A 0B 0C 0D 0E 0F
      -- -- -- -- -- -- -- --  -- -- -- -- -- -- -- --
0000: 00                                                .               
```

#### Opcodes

```
  0: 0x0000 [0x00] END_REQSTACK()
```

### Event 65535.1

#### Metadata

| Field        | Value    |
|--------------|----------|
| Entrypoint   | 0x0001   |
| Data Size    | 19 bytes |
| Instructions | 5        |

```
      00 01 02 03 04 05 06 07  08 09 0A 0B 0C 0D 0E 0F
      -- -- -- -- -- -- -- --  -- -- -- -- -- -- -- --
0000:    B6 00 00 80 22 00 92  01 F8 FF FF 7F 94 01 F8   ...."..........
0010: FF FF 7F 00                                       ....            
```

#### Opcodes

```
  0: 0x0001 [0xB6] ENTITY_APPEARANCE_HANDLER(case=Hair style, value=78*)
  1: 0x0005 [0x22] ENTITY_HIDE_FLAG(enabled=0x00)
  2: 0x0007 [0x92] EventEntity->Render.Flags3 ^= 0x01
  3: 0x000D [0x94] EventEntity->Render.Flags3 ^= 0x01
  4: 0x0013 [0x00] END_REQSTACK()
```

### Event 4

#### Metadata

| Field        | Value   |
|--------------|---------|
| Entrypoint   | 0x0014  |
| Data Size    | 1 bytes |
| Instructions | 1       |

```
      00 01 02 03 04 05 06 07  08 09 0A 0B 0C 0D 0E 0F
      -- -- -- -- -- -- -- --  -- -- -- -- -- -- -- --
0010:             00                                        .           
```

#### Opcodes

```
  0: 0x0014 [0x00] END_REQSTACK()
```

### Event 65535.2

#### Metadata

| Field        | Value    |
|--------------|----------|
| Entrypoint   | 0x0015   |
| Data Size    | 15 bytes |
| Instructions | 5        |

```
      00 01 02 03 04 05 06 07  08 09 0A 0B 0C 0D 0E 0F
      -- -- -- -- -- -- -- --  -- -- -- -- -- -- -- --
0010:                32 01 80  1F 00 02 80 03 80 04 80       2..........
0020: 1F 01 6F 00                                       ..o.            
```

#### Opcodes

```
  0: 0x0015 [0x32] ExtData[1]->MainSpeed = 50* * 0.1
  1: 0x0018 [0x1F] MOVE_ENTITY: EventEntity moves to X=-1.511*, Z=41.491*, Y=0.000*
  2: 0x0020 [0x1F] MOVE_ENTITY: Update entity position (mode=1)
  3: 0x0022 [0x6F] WAIT_FRAME_DELAY: Yield until WaitTime reaches zero
  4: 0x0023 [0x00] END_REQSTACK()
```

### Event 65535.3

#### Metadata

| Field        | Value    |
|--------------|----------|
| Entrypoint   | 0x0024   |
| Data Size    | 19 bytes |
| Instructions | 3        |

```
      00 01 02 03 04 05 06 07  08 09 0A 0B 0C 0D 0E 0F
      -- -- -- -- -- -- -- --  -- -- -- -- -- -- -- --
0020:             5B 05 80 F8  FF FF 7F F8 FF FF 7F 74      [..........t
0030: 6C 6B 30 1C 06 80 00                              lk0....         
```

#### Opcodes

```
  0: 0x0024 [0x5B] LOAD_EXT_SCHEDULER: Load scheduler "tlk0" with entities [EventEntity, EventEntity], work=185*
  1: 0x0033 [0x1C] WAIT(60* ticks)
  2: 0x0036 [0x00] END_REQSTACK()
```

### Event 65535.4

#### Metadata

| Field        | Value    |
|--------------|----------|
| Entrypoint   | 0x0037   |
| Data Size    | 29 bytes |
| Instructions | 3        |

```
      00 01 02 03 04 05 06 07  08 09 0A 0B 0C 0D 0E 0F
      -- -- -- -- -- -- -- --  -- -- -- -- -- -- -- --
0030:                      5B  05 80 F8 FF FF 7F F8 FF         [........
0040: FF 7F 74 6C 6B 31 53 F8  FF FF 7F F8 FF FF 7F 74  ..tlk1S........t
0050: 6C 6B 31 00                                       lk1.            
```

#### Opcodes

```
  0: 0x0037 [0x5B] LOAD_EXT_SCHEDULER: Load scheduler "tlk1" with entities [EventEntity, EventEntity], work=185*
  1: 0x0046 [0x53] WAIT_SCHEDULER_TASK: Wait for scheduler "tlk1" with entities [EventEntity, EventEntity]
  2: 0x0053 [0x00] END_REQSTACK()
```

### Event 5

#### Metadata

| Field        | Value   |
|--------------|---------|
| Entrypoint   | 0x0054  |
| Data Size    | 1 bytes |
| Instructions | 1       |

```
      00 01 02 03 04 05 06 07  08 09 0A 0B 0C 0D 0E 0F
      -- -- -- -- -- -- -- --  -- -- -- -- -- -- -- --
0050:             00                                        .           
```

#### Opcodes

```
  0: 0x0054 [0x00] END_REQSTACK()
```

### Event 65535.5

#### Metadata

| Field        | Value    |
|--------------|----------|
| Entrypoint   | 0x0055   |
| Data Size    | 16 bytes |
| Instructions | 2        |

```
      00 01 02 03 04 05 06 07  08 09 0A 0B 0C 0D 0E 0F
      -- -- -- -- -- -- -- --  -- -- -- -- -- -- -- --
0050:                5B 05 80  F8 FF FF 7F F8 FF FF 7F       [..........
0060: 6B 6F 73 30 00                                    kos0.           
```

#### Opcodes

```
  0: 0x0055 [0x5B] LOAD_EXT_SCHEDULER: Load scheduler "kos0" with entities [EventEntity, EventEntity], work=185*
  1: 0x0064 [0x00] END_REQSTACK()
```

### Event 65535.6

#### Metadata

| Field        | Value    |
|--------------|----------|
| Entrypoint   | 0x0065   |
| Data Size    | 16 bytes |
| Instructions | 2        |

```
      00 01 02 03 04 05 06 07  08 09 0A 0B 0C 0D 0E 0F
      -- -- -- -- -- -- -- --  -- -- -- -- -- -- -- --
0060:                5B 05 80  F8 FF FF 7F F8 FF FF 7F       [..........
0070: 6B 6F 73 31 00                                    kos1.           
```

#### Opcodes

```
  0: 0x0065 [0x5B] LOAD_EXT_SCHEDULER: Load scheduler "kos1" with entities [EventEntity, EventEntity], work=185*
  1: 0x0074 [0x00] END_REQSTACK()
```

### Event 65535.7

#### Metadata

| Field        | Value    |
|--------------|----------|
| Entrypoint   | 0x0075   |
| Data Size    | 19 bytes |
| Instructions | 3        |

```
      00 01 02 03 04 05 06 07  08 09 0A 0B 0C 0D 0E 0F
      -- -- -- -- -- -- -- --  -- -- -- -- -- -- -- --
0070:                5B 05 80  F8 FF FF 7F F8 FF FF 7F       [..........
0080: 75 64 65 30 1C 06 80 00                           ude0....        
```

#### Opcodes

```
  0: 0x0075 [0x5B] LOAD_EXT_SCHEDULER: Load scheduler "ude0" with entities [EventEntity, EventEntity], work=185*
  1: 0x0084 [0x1C] WAIT(60* ticks)
  2: 0x0087 [0x00] END_REQSTACK()
```

### Event 65535.8

#### Metadata

| Field        | Value    |
|--------------|----------|
| Entrypoint   | 0x0088   |
| Data Size    | 29 bytes |
| Instructions | 3        |

```
      00 01 02 03 04 05 06 07  08 09 0A 0B 0C 0D 0E 0F
      -- -- -- -- -- -- -- --  -- -- -- -- -- -- -- --
0080:                          5B 05 80 F8 FF FF 7F F8          [.......
0090: FF FF 7F 75 64 65 31 53  F8 FF FF 7F F8 FF FF 7F  ...ude1S........
00A0: 75 64 65 31 00                                    ude1.           
```

#### Opcodes

```
  0: 0x0088 [0x5B] LOAD_EXT_SCHEDULER: Load scheduler "ude1" with entities [EventEntity, EventEntity], work=185*
  1: 0x0097 [0x53] WAIT_SCHEDULER_TASK: Wait for scheduler "ude1" with entities [EventEntity, EventEntity]
  2: 0x00A4 [0x00] END_REQSTACK()
```

### Event 65535.9

#### Metadata

| Field        | Value    |
|--------------|----------|
| Entrypoint   | 0x00A5   |
| Data Size    | 16 bytes |
| Instructions | 2        |

```
      00 01 02 03 04 05 06 07  08 09 0A 0B 0C 0D 0E 0F
      -- -- -- -- -- -- -- --  -- -- -- -- -- -- -- --
00A0:                5B 07 80  F8 FF FF 7F F8 FF FF 7F       [..........
00B0: 79 65 73 30 00                                    yes0.           
```

#### Opcodes

```
  0: 0x00A5 [0x5B] LOAD_EXT_SCHEDULER: Load scheduler "yes0" with entities [EventEntity, EventEntity], work=2761*
  1: 0x00B4 [0x00] END_REQSTACK()
```

### Event 65535.10

#### Metadata

| Field        | Value    |
|--------------|----------|
| Entrypoint   | 0x00B5   |
| Data Size    | 19 bytes |
| Instructions | 3        |

```
      00 01 02 03 04 05 06 07  08 09 0A 0B 0C 0D 0E 0F
      -- -- -- -- -- -- -- --  -- -- -- -- -- -- -- --
00B0:                5B 07 80  F8 FF FF 7F F8 FF FF 7F       [..........
00C0: 62 69 6B 30 1C 08 80 00                           bik0....        
```

#### Opcodes

```
  0: 0x00B5 [0x5B] LOAD_EXT_SCHEDULER: Load scheduler "bik0" with entities [EventEntity, EventEntity], work=2761*
  1: 0x00C4 [0x1C] WAIT(96* ticks)
  2: 0x00C7 [0x00] END_REQSTACK()
```

### Event 65535.11

#### Metadata

| Field        | Value    |
|--------------|----------|
| Entrypoint   | 0x00C8   |
| Data Size    | 19 bytes |
| Instructions | 3        |

```
      00 01 02 03 04 05 06 07  08 09 0A 0B 0C 0D 0E 0F
      -- -- -- -- -- -- -- --  -- -- -- -- -- -- -- --
00C0:                          5B 07 80 F8 FF FF 7F F8          [.......
00D0: FF FF 7F 62 69 6B 31 1C  09 80 00                 ...bik1....     
```

#### Opcodes

```
  0: 0x00C8 [0x5B] LOAD_EXT_SCHEDULER: Load scheduler "bik1" with entities [EventEntity, EventEntity], work=2761*
  1: 0x00D7 [0x1C] WAIT(135* ticks)
  2: 0x00DA [0x00] END_REQSTACK()
```

### Event 65535.12

#### Metadata

| Field        | Value    |
|--------------|----------|
| Entrypoint   | 0x00DB   |
| Data Size    | 19 bytes |
| Instructions | 3        |

```
      00 01 02 03 04 05 06 07  08 09 0A 0B 0C 0D 0E 0F
      -- -- -- -- -- -- -- --  -- -- -- -- -- -- -- --
00D0:                                   5B 07 80 F8 FF             [....
00E0: FF 7F F8 FF FF 7F 79 72  65 30 1C 0A 80 00        ......yre0....  
```

#### Opcodes

```
  0: 0x00DB [0x5B] LOAD_EXT_SCHEDULER: Load scheduler "yre0" with entities [EventEntity, EventEntity], work=2761*
  1: 0x00EA [0x1C] WAIT(280* ticks)
  2: 0x00ED [0x00] END_REQSTACK()
```

### Event 65535.13

#### Metadata

| Field        | Value    |
|--------------|----------|
| Entrypoint   | 0x00EE   |
| Data Size    | 19 bytes |
| Instructions | 3        |

```
      00 01 02 03 04 05 06 07  08 09 0A 0B 0C 0D 0E 0F
      -- -- -- -- -- -- -- --  -- -- -- -- -- -- -- --
00E0:                                            5B 07                [.
00F0: 80 F8 FF FF 7F F8 FF FF  7F 6B 61 6E 30 1C 08 80  .........kan0...
0100: 00                                                .               
```

#### Opcodes

```
  0: 0x00EE [0x5B] LOAD_EXT_SCHEDULER: Load scheduler "kan0" with entities [EventEntity, EventEntity], work=2761*
  1: 0x00FD [0x1C] WAIT(96* ticks)
  2: 0x0100 [0x00] END_REQSTACK()
```

### Event 65535.14

#### Metadata

| Field        | Value    |
|--------------|----------|
| Entrypoint   | 0x0101   |
| Data Size    | 19 bytes |
| Instructions | 3        |

```
      00 01 02 03 04 05 06 07  08 09 0A 0B 0C 0D 0E 0F
      -- -- -- -- -- -- -- --  -- -- -- -- -- -- -- --
0100:    5B 07 80 F8 FF FF 7F  F8 FF FF 7F 6B 61 6E 31   [..........kan1
0110: 1C 0B 80 00                                       ....            
```

#### Opcodes

```
  0: 0x0101 [0x5B] LOAD_EXT_SCHEDULER: Load scheduler "kan1" with entities [EventEntity, EventEntity], work=2761*
  1: 0x0110 [0x1C] WAIT(132* ticks)
  2: 0x0113 [0x00] END_REQSTACK()
```

### Event 65535.15

#### Metadata

| Field        | Value    |
|--------------|----------|
| Entrypoint   | 0x0114   |
| Data Size    | 19 bytes |
| Instructions | 3        |

```
      00 01 02 03 04 05 06 07  08 09 0A 0B 0C 0D 0E 0F
      -- -- -- -- -- -- -- --  -- -- -- -- -- -- -- --
0110:             5B 07 80 F8  FF FF 7F F8 FF FF 7F 61      [..........a
0120: 6B 69 30 1C 08 80 00                              ki0....         
```

#### Opcodes

```
  0: 0x0114 [0x5B] LOAD_EXT_SCHEDULER: Load scheduler "aki0" with entities [EventEntity, EventEntity], work=2761*
  1: 0x0123 [0x1C] WAIT(96* ticks)
  2: 0x0126 [0x00] END_REQSTACK()
```

### Event 65535.16

#### Metadata

| Field        | Value    |
|--------------|----------|
| Entrypoint   | 0x0127   |
| Data Size    | 45 bytes |
| Instructions | 8        |

```
      00 01 02 03 04 05 06 07  08 09 0A 0B 0C 0D 0E 0F
      -- -- -- -- -- -- -- --  -- -- -- -- -- -- -- --
0120:                      79  02 F8 FF FF 7F 0C 80 0D         y........
0130: 80 1C 0E 80 79 02 F8 FF  FF 7F 0C 80 0F 80 1C 0E  ....y...........
0140: 80 79 02 F8 FF FF 7F 0C  80 0D 80 1C 0E 80 7B F8  .y............{.
0150: FF FF 7F 00                                       ....            
```

#### Opcodes

```
  0: 0x0127 [0x79] EventEntity looks at Unknown NPC (ID: 2148368396/0x800D800C) (Direct axis set)
  1: 0x0131 [0x1C] WAIT(180* ticks)
  2: 0x0134 [0x79] EventEntity looks at Unknown NPC (ID: 2148499468/0x800F800C) (Direct axis set)
  3: 0x013E [0x1C] WAIT(180* ticks)
  4: 0x0141 [0x79] EventEntity looks at Unknown NPC (ID: 2148368396/0x800D800C) (Direct axis set)
  5: 0x014B [0x1C] WAIT(180* ticks)
  6: 0x014E [0x7B] EventEntity stops talking
  7: 0x0153 [0x00] END_REQSTACK()
```

### Event 65535.17

#### Metadata

| Field        | Value    |
|--------------|----------|
| Entrypoint   | 0x0154   |
| Data Size    | 14 bytes |
| Instructions | 4        |

```
      00 01 02 03 04 05 06 07  08 09 0A 0B 0C 0D 0E 0F
      -- -- -- -- -- -- -- --  -- -- -- -- -- -- -- --
0150:             32 10 80 1F  00 11 80 12 80 04 80 1F      2...........
0160: 01 00                                             ..              
```

#### Opcodes

```
  0: 0x0154 [0x32] ExtData[1]->MainSpeed = 10* * 0.1
  1: 0x0157 [0x1F] MOVE_ENTITY: EventEntity moves to X=6.090*, Z=34.050*, Y=0.000*
  2: 0x015F [0x1F] MOVE_ENTITY: Update entity position (mode=1)
  3: 0x0161 [0x00] END_REQSTACK()
```

### Event 65535.18

#### Metadata

| Field        | Value    |
|--------------|----------|
| Entrypoint   | 0x0162   |
| Data Size    | 16 bytes |
| Instructions | 2        |

```
      00 01 02 03 04 05 06 07  08 09 0A 0B 0C 0D 0E 0F
      -- -- -- -- -- -- -- --  -- -- -- -- -- -- -- --
0160:       5B 13 80 F8 FF FF  7F F8 FF FF 7F 64 6C 30    [..........dl0
0170: 61 00                                             a.              
```

#### Opcodes

```
  0: 0x0162 [0x5B] LOAD_EXT_SCHEDULER: Load scheduler "dl0a" with entities [EventEntity, EventEntity], work=541*
  1: 0x0171 [0x00] END_REQSTACK()
```

### Event 65535.19

#### Metadata

| Field        | Value    |
|--------------|----------|
| Entrypoint   | 0x0172   |
| Data Size    | 16 bytes |
| Instructions | 2        |

```
      00 01 02 03 04 05 06 07  08 09 0A 0B 0C 0D 0E 0F
      -- -- -- -- -- -- -- --  -- -- -- -- -- -- -- --
0170:       5B 13 80 F8 FF FF  7F F8 FF FF 7F 64 6C 30    [..........dl0
0180: 31 00                                             1.              
```

#### Opcodes

```
  0: 0x0172 [0x5B] LOAD_EXT_SCHEDULER: Load scheduler "dl01" with entities [EventEntity, EventEntity], work=541*
  1: 0x0181 [0x00] END_REQSTACK()
```

### Event 65535.20

#### Metadata

| Field        | Value    |
|--------------|----------|
| Entrypoint   | 0x0182   |
| Data Size    | 19 bytes |
| Instructions | 3        |

```
      00 01 02 03 04 05 06 07  08 09 0A 0B 0C 0D 0E 0F
      -- -- -- -- -- -- -- --  -- -- -- -- -- -- -- --
0180:       5B 13 80 F8 FF FF  7F F8 FF FF 7F 64 6C 30    [..........dl0
0190: 32 1C 14 80 00                                    2....           
```

#### Opcodes

```
  0: 0x0182 [0x5B] LOAD_EXT_SCHEDULER: Load scheduler "dl02" with entities [EventEntity, EventEntity], work=541*
  1: 0x0191 [0x1C] WAIT(90* ticks)
  2: 0x0194 [0x00] END_REQSTACK()
```

### Event 65535.21

#### Metadata

| Field        | Value    |
|--------------|----------|
| Entrypoint   | 0x0195   |
| Data Size    | 16 bytes |
| Instructions | 2        |

```
      00 01 02 03 04 05 06 07  08 09 0A 0B 0C 0D 0E 0F
      -- -- -- -- -- -- -- --  -- -- -- -- -- -- -- --
0190:                5B 13 80  F8 FF FF 7F F8 FF FF 7F       [..........
01A0: 64 6C 30 33 00                                    dl03.           
```

#### Opcodes

```
  0: 0x0195 [0x5B] LOAD_EXT_SCHEDULER: Load scheduler "dl03" with entities [EventEntity, EventEntity], work=541*
  1: 0x01A4 [0x00] END_REQSTACK()
```

### Event 65535.22

#### Metadata

| Field        | Value    |
|--------------|----------|
| Entrypoint   | 0x01A5   |
| Data Size    | 19 bytes |
| Instructions | 3        |

```
      00 01 02 03 04 05 06 07  08 09 0A 0B 0C 0D 0E 0F
      -- -- -- -- -- -- -- --  -- -- -- -- -- -- -- --
01A0:                5B 15 80  F8 FF FF 7F F8 FF FF 7F       [..........
01B0: 69 6B 7A 30 1C 16 80 00                           ikz0....        
```

#### Opcodes

```
  0: 0x01A5 [0x5B] LOAD_EXT_SCHEDULER: Load scheduler "ikz0" with entities [EventEntity, EventEntity], work=2780*
  1: 0x01B4 [0x1C] WAIT(260* ticks)
  2: 0x01B7 [0x00] END_REQSTACK()
```

### Event 65535.23

#### Metadata

| Field        | Value    |
|--------------|----------|
| Entrypoint   | 0x01B8   |
| Data Size    | 19 bytes |
| Instructions | 3        |

```
      00 01 02 03 04 05 06 07  08 09 0A 0B 0C 0D 0E 0F
      -- -- -- -- -- -- -- --  -- -- -- -- -- -- -- --
01B0:                          5B 15 80 F8 FF FF 7F F8          [.......
01C0: FF FF 7F 69 6B 7A 31 1C  17 80 00                 ...ikz1....     
```

#### Opcodes

```
  0: 0x01B8 [0x5B] LOAD_EXT_SCHEDULER: Load scheduler "ikz1" with entities [EventEntity, EventEntity], work=2780*
  1: 0x01C7 [0x1C] WAIT(160* ticks)
  2: 0x01CA [0x00] END_REQSTACK()
```

### Event 65535.24

#### Metadata

| Field        | Value    |
|--------------|----------|
| Entrypoint   | 0x01CB   |
| Data Size    | 19 bytes |
| Instructions | 3        |

```
      00 01 02 03 04 05 06 07  08 09 0A 0B 0C 0D 0E 0F
      -- -- -- -- -- -- -- --  -- -- -- -- -- -- -- --
01C0:                                   5B 15 80 F8 FF             [....
01D0: FF 7F F8 FF FF 7F 69 6B  7A 32 1C 18 80 00        ......ikz2....  
```

#### Opcodes

```
  0: 0x01CB [0x5B] LOAD_EXT_SCHEDULER: Load scheduler "ikz2" with entities [EventEntity, EventEntity], work=2780*
  1: 0x01DA [0x1C] WAIT(328* ticks)
  2: 0x01DD [0x00] END_REQSTACK()
```
