# 17445218

## Common Data

| Field            | Value                         |
|------------------|-------------------------------|
| Zone             | Sacrificial Chamber (ID: 163) |
| Block Size       | 1208 bytes                    |
| Total Events     | 15                            |
| References Count | 23                            |

## List of Events

| Event ID                   | Entrypoint   |   Size |   Instructions |
|----------------------------|--------------|--------|----------------|
| [65535](#event-65535)      | 0x0000       |      1 |              1 |
| [65535.1](#event-655351)   | 0x0001       |     15 |              4 |
| [65535.2](#event-655352)   | 0x0010       |     10 |              2 |
| [5](#event-5)              | 0x001A       |      1 |              1 |
| [65535.3](#event-655353)   | 0x001B       |     41 |              5 |
| [65535.4](#event-655354)   | 0x0044       |    121 |             13 |
| [65535.5](#event-655355)   | 0x00BD       |     81 |              9 |
| [65535.6](#event-655356)   | 0x010E       |     81 |              9 |
| [65535.7](#event-655357)   | 0x015F       |     81 |              9 |
| [65535.8](#event-655358)   | 0x01B0       |     81 |              9 |
| [65535.9](#event-655359)   | 0x0201       |     41 |              5 |
| [65535.10](#event-6553510) | 0x022A       |     41 |              5 |
| [65535.11](#event-6553511) | 0x0253       |    121 |             13 |
| [65535.12](#event-6553512) | 0x02CC       |    121 |             13 |
| [65535.13](#event-6553513) | 0x0345       |    201 |             21 |

## DAT References (imed_data)

|   Index | Hex Value   |   Dec Value |
|---------|-------------|-------------|
|       0 | 0x0000      |           0 |
|       1 | 0x0050      |          80 |
|       2 | 0x007F      |         127 |
|       3 | 0x002D      |          45 |
|       4 | 0x005A      |          90 |
|       5 | 0x0096      |         150 |
|       6 | 0x006E      |         110 |
|       7 | 0x0028      |          40 |
|       8 | 0x0032      |          50 |
|       9 | 0x003C      |          60 |
|      10 | 0x0064      |         100 |
|      11 | 0x00AA      |         170 |
|      12 | 0x0078      |         120 |
|      13 | 0x0046      |          70 |
|      14 | 0x001E      |          30 |
|      15 | 0x00E6      |         230 |
|      16 | 0x00A0      |         160 |
|      17 | 0x00EB      |         235 |
|      18 | 0x000A      |          10 |
|      19 | 0x0168      |         360 |
|      20 | 0x0073      |         115 |
|      21 | 0x000F      |          15 |
|      22 | 0x0014      |          20 |

## Events

### Event 65535

#### Metadata

| Field        | Value   |
|--------------|---------|
| Entrypoint   | 0x0000  |
| Data Size    | 1 bytes |
| Instructions | 1       |

```
      00 01 02 03 04 05 06 07  08 09 0A 0B 0C 0D 0E 0F
      -- -- -- -- -- -- -- --  -- -- -- -- -- -- -- --
0000: 00                                                .               
```

#### Opcodes

```
  0: 0x0000 [0x00] END_REQSTACK()
```

### Event 65535.1

#### Metadata

| Field        | Value    |
|--------------|----------|
| Entrypoint   | 0x0001   |
| Data Size    | 15 bytes |
| Instructions | 4        |

```
      00 01 02 03 04 05 06 07  08 09 0A 0B 0C 0D 0E 0F
      -- -- -- -- -- -- -- --  -- -- -- -- -- -- -- --
0000:    22 00 92 01 F8 FF FF  7F 94 01 F8 FF FF 7F 00   "..............
```

#### Opcodes

```
  0: 0x0001 [0x22] ENTITY_HIDE_FLAG(enabled=0x00)
  1: 0x0003 [0x92] EventEntity->Render.Flags3 ^= 0x01
  2: 0x0009 [0x94] EventEntity->Render.Flags3 ^= 0x01
  3: 0x000F [0x00] END_REQSTACK()
```

### Event 65535.2

#### Metadata

| Field        | Value    |
|--------------|----------|
| Entrypoint   | 0x0010   |
| Data Size    | 10 bytes |
| Instructions | 2        |

```
      00 01 02 03 04 05 06 07  08 09 0A 0B 0C 0D 0E 0F
      -- -- -- -- -- -- -- --  -- -- -- -- -- -- -- --
0010: 6C F8 FF FF 7F 00 80 00  80 00                    l.........      
```

#### Opcodes

```
  0: 0x0010 [0x6C] FADE_ENTITY_COLOR(entity_id=EventEntity, end_alpha=0*, fade_time=0*)
  1: 0x0019 [0x00] END_REQSTACK()
```

### Event 5

#### Metadata

| Field        | Value   |
|--------------|---------|
| Entrypoint   | 0x001A  |
| Data Size    | 1 bytes |
| Instructions | 1       |

```
      00 01 02 03 04 05 06 07  08 09 0A 0B 0C 0D 0E 0F
      -- -- -- -- -- -- -- --  -- -- -- -- -- -- -- --
0010:                                00                           .     
```

#### Opcodes

```
  0: 0x001A [0x00] END_REQSTACK()
```

### Event 65535.3

#### Metadata

| Field        | Value    |
|--------------|----------|
| Entrypoint   | 0x001B   |
| Data Size    | 41 bytes |
| Instructions | 5        |

```
      00 01 02 03 04 05 06 07  08 09 0A 0B 0C 0D 0E 0F
      -- -- -- -- -- -- -- --  -- -- -- -- -- -- -- --
0010:                                   1C 01 80 9F 02             .....
0020: 80 F8 FF FF 7F F8 FF FF  7F 73 74 72 30 00 80 1C  .........str0...
0030: 03 80 9F 02 80 F8 FF FF  7F F8 FF FF 7F 6B 69 6C  .............kil
0040: 6C 00 80 00                                       l...            
```

#### Opcodes

```
  0: 0x001B [0x1C] WAIT(80* ticks)
  1: 0x001E [0x9F] LOAD_SCHEDULED_TASK_ALT: Load scheduler "str0" with entities [EventEntity, EventEntity], work=[127*, 0*]
  2: 0x002F [0x1C] WAIT(45* ticks)
  3: 0x0032 [0x9F] LOAD_SCHEDULED_TASK_ALT: Load scheduler "kill" with entities [EventEntity, EventEntity], work=[127*, 0*]
  4: 0x0043 [0x00] END_REQSTACK()
```

### Event 65535.4

#### Metadata

| Field        | Value     |
|--------------|-----------|
| Entrypoint   | 0x0044    |
| Data Size    | 121 bytes |
| Instructions | 13        |

```
      00 01 02 03 04 05 06 07  08 09 0A 0B 0C 0D 0E 0F
      -- -- -- -- -- -- -- --  -- -- -- -- -- -- -- --
0040:             1C 04 80 9F  02 80 F8 FF FF 7F F8 FF      ............
0050: FF 7F 73 74 72 30 00 80  1C 05 80 9F 02 80 F8 FF  ..str0..........
0060: FF 7F F8 FF FF 7F 6B 69  6C 6C 00 80 1C 06 80 9F  ......kill......
0070: 02 80 F8 FF FF 7F F8 FF  FF 7F 73 74 72 30 00 80  ..........str0..
0080: 1C 07 80 9F 02 80 F8 FF  FF 7F F8 FF FF 7F 6B 69  ..............ki
0090: 6C 6C 00 80 1C 08 80 9F  02 80 F8 FF FF 7F F8 FF  ll..............
00A0: FF 7F 73 74 72 30 00 80  1C 07 80 9F 02 80 F8 FF  ..str0..........
00B0: FF 7F F8 FF FF 7F 6B 69  6C 6C 00 80 00           ......kill...   
```

#### Opcodes

```
  0: 0x0044 [0x1C] WAIT(90* ticks)
  1: 0x0047 [0x9F] LOAD_SCHEDULED_TASK_ALT: Load scheduler "str0" with entities [EventEntity, EventEntity], work=[127*, 0*]
  2: 0x0058 [0x1C] WAIT(150* ticks)
  3: 0x005B [0x9F] LOAD_SCHEDULED_TASK_ALT: Load scheduler "kill" with entities [EventEntity, EventEntity], work=[127*, 0*]
  4: 0x006C [0x1C] WAIT(110* ticks)
  5: 0x006F [0x9F] LOAD_SCHEDULED_TASK_ALT: Load scheduler "str0" with entities [EventEntity, EventEntity], work=[127*, 0*]
  6: 0x0080 [0x1C] WAIT(40* ticks)
  7: 0x0083 [0x9F] LOAD_SCHEDULED_TASK_ALT: Load scheduler "kill" with entities [EventEntity, EventEntity], work=[127*, 0*]
  8: 0x0094 [0x1C] WAIT(50* ticks)
  9: 0x0097 [0x9F] LOAD_SCHEDULED_TASK_ALT: Load scheduler "str0" with entities [EventEntity, EventEntity], work=[127*, 0*]
 10: 0x00A8 [0x1C] WAIT(40* ticks)
 11: 0x00AB [0x9F] LOAD_SCHEDULED_TASK_ALT: Load scheduler "kill" with entities [EventEntity, EventEntity], work=[127*, 0*]
 12: 0x00BC [0x00] END_REQSTACK()
```

### Event 65535.5

#### Metadata

| Field        | Value    |
|--------------|----------|
| Entrypoint   | 0x00BD   |
| Data Size    | 81 bytes |
| Instructions | 9        |

```
      00 01 02 03 04 05 06 07  08 09 0A 0B 0C 0D 0E 0F
      -- -- -- -- -- -- -- --  -- -- -- -- -- -- -- --
00B0:                                         1C 09 80               ...
00C0: 9F 02 80 F8 FF FF 7F F8  FF FF 7F 73 74 72 30 00  ...........str0.
00D0: 80 1C 07 80 9F 02 80 F8  FF FF 7F F8 FF FF 7F 6B  ...............k
00E0: 69 6C 6C 00 80 1C 0A 80  9F 02 80 F8 FF FF 7F F8  ill.............
00F0: FF FF 7F 73 74 72 30 00  80 1C 07 80 9F 02 80 F8  ...str0.........
0100: FF FF 7F F8 FF FF 7F 6B  69 6C 6C 00 80 00        .......kill...  
```

#### Opcodes

```
  0: 0x00BD [0x1C] WAIT(60* ticks)
  1: 0x00C0 [0x9F] LOAD_SCHEDULED_TASK_ALT: Load scheduler "str0" with entities [EventEntity, EventEntity], work=[127*, 0*]
  2: 0x00D1 [0x1C] WAIT(40* ticks)
  3: 0x00D4 [0x9F] LOAD_SCHEDULED_TASK_ALT: Load scheduler "kill" with entities [EventEntity, EventEntity], work=[127*, 0*]
  4: 0x00E5 [0x1C] WAIT(100* ticks)
  5: 0x00E8 [0x9F] LOAD_SCHEDULED_TASK_ALT: Load scheduler "str0" with entities [EventEntity, EventEntity], work=[127*, 0*]
  6: 0x00F9 [0x1C] WAIT(40* ticks)
  7: 0x00FC [0x9F] LOAD_SCHEDULED_TASK_ALT: Load scheduler "kill" with entities [EventEntity, EventEntity], work=[127*, 0*]
  8: 0x010D [0x00] END_REQSTACK()
```

### Event 65535.6

#### Metadata

| Field        | Value    |
|--------------|----------|
| Entrypoint   | 0x010E   |
| Data Size    | 81 bytes |
| Instructions | 9        |

```
      00 01 02 03 04 05 06 07  08 09 0A 0B 0C 0D 0E 0F
      -- -- -- -- -- -- -- --  -- -- -- -- -- -- -- --
0100:                                            1C 0B                ..
0110: 80 9F 02 80 F8 FF FF 7F  F8 FF FF 7F 73 74 72 30  ............str0
0120: 00 80 1C 07 80 9F 02 80  F8 FF FF 7F F8 FF FF 7F  ................
0130: 6B 69 6C 6C 00 80 1C 0C  80 9F 02 80 F8 FF FF 7F  kill............
0140: F8 FF FF 7F 73 74 72 30  00 80 1C 04 80 9F 02 80  ....str0........
0150: F8 FF FF 7F F8 FF FF 7F  6B 69 6C 6C 00 80 00     ........kill... 
```

#### Opcodes

```
  0: 0x010E [0x1C] WAIT(170* ticks)
  1: 0x0111 [0x9F] LOAD_SCHEDULED_TASK_ALT: Load scheduler "str0" with entities [EventEntity, EventEntity], work=[127*, 0*]
  2: 0x0122 [0x1C] WAIT(40* ticks)
  3: 0x0125 [0x9F] LOAD_SCHEDULED_TASK_ALT: Load scheduler "kill" with entities [EventEntity, EventEntity], work=[127*, 0*]
  4: 0x0136 [0x1C] WAIT(120* ticks)
  5: 0x0139 [0x9F] LOAD_SCHEDULED_TASK_ALT: Load scheduler "str0" with entities [EventEntity, EventEntity], work=[127*, 0*]
  6: 0x014A [0x1C] WAIT(90* ticks)
  7: 0x014D [0x9F] LOAD_SCHEDULED_TASK_ALT: Load scheduler "kill" with entities [EventEntity, EventEntity], work=[127*, 0*]
  8: 0x015E [0x00] END_REQSTACK()
```

### Event 65535.7

#### Metadata

| Field        | Value    |
|--------------|----------|
| Entrypoint   | 0x015F   |
| Data Size    | 81 bytes |
| Instructions | 9        |

```
      00 01 02 03 04 05 06 07  08 09 0A 0B 0C 0D 0E 0F
      -- -- -- -- -- -- -- --  -- -- -- -- -- -- -- --
0150:                                               1C                 .
0160: 0D 80 9F 02 80 F8 FF FF  7F F8 FF FF 7F 73 74 72  .............str
0170: 30 00 80 1C 0E 80 9F 02  80 F8 FF FF 7F F8 FF FF  0...............
0180: 7F 6B 69 6C 6C 00 80 1C  09 80 9F 02 80 F8 FF FF  .kill...........
0190: 7F F8 FF FF 7F 73 74 72  30 00 80 1C 0E 80 9F 02  .....str0.......
01A0: 80 F8 FF FF 7F F8 FF FF  7F 6B 69 6C 6C 00 80 00  .........kill...
```

#### Opcodes

```
  0: 0x015F [0x1C] WAIT(70* ticks)
  1: 0x0162 [0x9F] LOAD_SCHEDULED_TASK_ALT: Load scheduler "str0" with entities [EventEntity, EventEntity], work=[127*, 0*]
  2: 0x0173 [0x1C] WAIT(30* ticks)
  3: 0x0176 [0x9F] LOAD_SCHEDULED_TASK_ALT: Load scheduler "kill" with entities [EventEntity, EventEntity], work=[127*, 0*]
  4: 0x0187 [0x1C] WAIT(60* ticks)
  5: 0x018A [0x9F] LOAD_SCHEDULED_TASK_ALT: Load scheduler "str0" with entities [EventEntity, EventEntity], work=[127*, 0*]
  6: 0x019B [0x1C] WAIT(30* ticks)
  7: 0x019E [0x9F] LOAD_SCHEDULED_TASK_ALT: Load scheduler "kill" with entities [EventEntity, EventEntity], work=[127*, 0*]
  8: 0x01AF [0x00] END_REQSTACK()
```

### Event 65535.8

#### Metadata

| Field        | Value    |
|--------------|----------|
| Entrypoint   | 0x01B0   |
| Data Size    | 81 bytes |
| Instructions | 9        |

```
      00 01 02 03 04 05 06 07  08 09 0A 0B 0C 0D 0E 0F
      -- -- -- -- -- -- -- --  -- -- -- -- -- -- -- --
01B0: 1C 05 80 9F 02 80 F8 FF  FF 7F F8 FF FF 7F 73 74  ..............st
01C0: 72 30 00 80 1C 0E 80 9F  02 80 F8 FF FF 7F F8 FF  r0..............
01D0: FF 7F 6B 69 6C 6C 00 80  1C 04 80 9F 02 80 F8 FF  ..kill..........
01E0: FF 7F F8 FF FF 7F 73 74  72 30 00 80 1C 09 80 9F  ......str0......
01F0: 02 80 F8 FF FF 7F F8 FF  FF 7F 6B 69 6C 6C 00 80  ..........kill..
0200: 00                                                .               
```

#### Opcodes

```
  0: 0x01B0 [0x1C] WAIT(150* ticks)
  1: 0x01B3 [0x9F] LOAD_SCHEDULED_TASK_ALT: Load scheduler "str0" with entities [EventEntity, EventEntity], work=[127*, 0*]
  2: 0x01C4 [0x1C] WAIT(30* ticks)
  3: 0x01C7 [0x9F] LOAD_SCHEDULED_TASK_ALT: Load scheduler "kill" with entities [EventEntity, EventEntity], work=[127*, 0*]
  4: 0x01D8 [0x1C] WAIT(90* ticks)
  5: 0x01DB [0x9F] LOAD_SCHEDULED_TASK_ALT: Load scheduler "str0" with entities [EventEntity, EventEntity], work=[127*, 0*]
  6: 0x01EC [0x1C] WAIT(60* ticks)
  7: 0x01EF [0x9F] LOAD_SCHEDULED_TASK_ALT: Load scheduler "kill" with entities [EventEntity, EventEntity], work=[127*, 0*]
  8: 0x0200 [0x00] END_REQSTACK()
```

### Event 65535.9

#### Metadata

| Field        | Value    |
|--------------|----------|
| Entrypoint   | 0x0201   |
| Data Size    | 41 bytes |
| Instructions | 5        |

```
      00 01 02 03 04 05 06 07  08 09 0A 0B 0C 0D 0E 0F
      -- -- -- -- -- -- -- --  -- -- -- -- -- -- -- --
0200:    1C 0F 80 9F 02 80 F8  FF FF 7F F8 FF FF 7F 73   ..............s
0210: 74 72 30 00 80 1C 03 80  9F 02 80 F8 FF FF 7F F8  tr0.............
0220: FF FF 7F 6B 69 6C 6C 00  80 00                    ...kill...      
```

#### Opcodes

```
  0: 0x0201 [0x1C] WAIT(230* ticks)
  1: 0x0204 [0x9F] LOAD_SCHEDULED_TASK_ALT: Load scheduler "str0" with entities [EventEntity, EventEntity], work=[127*, 0*]
  2: 0x0215 [0x1C] WAIT(45* ticks)
  3: 0x0218 [0x9F] LOAD_SCHEDULED_TASK_ALT: Load scheduler "kill" with entities [EventEntity, EventEntity], work=[127*, 0*]
  4: 0x0229 [0x00] END_REQSTACK()
```

### Event 65535.10

#### Metadata

| Field        | Value    |
|--------------|----------|
| Entrypoint   | 0x022A   |
| Data Size    | 41 bytes |
| Instructions | 5        |

```
      00 01 02 03 04 05 06 07  08 09 0A 0B 0C 0D 0E 0F
      -- -- -- -- -- -- -- --  -- -- -- -- -- -- -- --
0220:                                1C 10 80 9F 02 80            ......
0230: F8 FF FF 7F F8 FF FF 7F  73 74 72 30 00 80 1C 0E  ........str0....
0240: 80 9F 02 80 F8 FF FF 7F  F8 FF FF 7F 6B 69 6C 6C  ............kill
0250: 00 80 00                                          ...             
```

#### Opcodes

```
  0: 0x022A [0x1C] WAIT(160* ticks)
  1: 0x022D [0x9F] LOAD_SCHEDULED_TASK_ALT: Load scheduler "str0" with entities [EventEntity, EventEntity], work=[127*, 0*]
  2: 0x023E [0x1C] WAIT(30* ticks)
  3: 0x0241 [0x9F] LOAD_SCHEDULED_TASK_ALT: Load scheduler "kill" with entities [EventEntity, EventEntity], work=[127*, 0*]
  4: 0x0252 [0x00] END_REQSTACK()
```

### Event 65535.11

#### Metadata

| Field        | Value     |
|--------------|-----------|
| Entrypoint   | 0x0253    |
| Data Size    | 121 bytes |
| Instructions | 13        |

```
      00 01 02 03 04 05 06 07  08 09 0A 0B 0C 0D 0E 0F
      -- -- -- -- -- -- -- --  -- -- -- -- -- -- -- --
0250:          1C 11 80 9F 02  80 F8 FF FF 7F F8 FF FF     .............
0260: 7F 73 74 72 30 00 80 1C  0E 80 9F 02 80 F8 FF FF  .str0...........
0270: 7F F8 FF FF 7F 6B 69 6C  6C 00 80 1C 12 80 9F 02  .....kill.......
0280: 80 F8 FF FF 7F F8 FF FF  7F 73 74 72 30 00 80 1C  .........str0...
0290: 0E 80 9F 02 80 F8 FF FF  7F F8 FF FF 7F 6B 69 6C  .............kil
02A0: 6C 00 80 1C 12 80 9F 02  80 F8 FF FF 7F F8 FF FF  l...............
02B0: 7F 73 74 72 30 00 80 1C  04 80 9F 02 80 F8 FF FF  .str0...........
02C0: 7F F8 FF FF 7F 6B 69 6C  6C 00 80 00              .....kill...    
```

#### Opcodes

```
  0: 0x0253 [0x1C] WAIT(235* ticks)
  1: 0x0256 [0x9F] LOAD_SCHEDULED_TASK_ALT: Load scheduler "str0" with entities [EventEntity, EventEntity], work=[127*, 0*]
  2: 0x0267 [0x1C] WAIT(30* ticks)
  3: 0x026A [0x9F] LOAD_SCHEDULED_TASK_ALT: Load scheduler "kill" with entities [EventEntity, EventEntity], work=[127*, 0*]
  4: 0x027B [0x1C] WAIT(10* ticks)
  5: 0x027E [0x9F] LOAD_SCHEDULED_TASK_ALT: Load scheduler "str0" with entities [EventEntity, EventEntity], work=[127*, 0*]
  6: 0x028F [0x1C] WAIT(30* ticks)
  7: 0x0292 [0x9F] LOAD_SCHEDULED_TASK_ALT: Load scheduler "kill" with entities [EventEntity, EventEntity], work=[127*, 0*]
  8: 0x02A3 [0x1C] WAIT(10* ticks)
  9: 0x02A6 [0x9F] LOAD_SCHEDULED_TASK_ALT: Load scheduler "str0" with entities [EventEntity, EventEntity], work=[127*, 0*]
 10: 0x02B7 [0x1C] WAIT(90* ticks)
 11: 0x02BA [0x9F] LOAD_SCHEDULED_TASK_ALT: Load scheduler "kill" with entities [EventEntity, EventEntity], work=[127*, 0*]
 12: 0x02CB [0x00] END_REQSTACK()
```

### Event 65535.12

#### Metadata

| Field        | Value     |
|--------------|-----------|
| Entrypoint   | 0x02CC    |
| Data Size    | 121 bytes |
| Instructions | 13        |

```
      00 01 02 03 04 05 06 07  08 09 0A 0B 0C 0D 0E 0F
      -- -- -- -- -- -- -- --  -- -- -- -- -- -- -- --
02C0:                                      1C 09 80 9F              ....
02D0: 02 80 F8 FF FF 7F F8 FF  FF 7F 73 74 72 30 00 80  ..........str0..
02E0: 1C 0E 80 9F 02 80 F8 FF  FF 7F F8 FF FF 7F 6B 69  ..............ki
02F0: 6C 6C 00 80 1C 04 80 9F  02 80 F8 FF FF 7F F8 FF  ll..............
0300: FF 7F 73 74 72 30 00 80  1C 04 80 9F 02 80 F8 FF  ..str0..........
0310: FF 7F F8 FF FF 7F 6B 69  6C 6C 00 80 1C 07 80 9F  ......kill......
0320: 02 80 F8 FF FF 7F F8 FF  FF 7F 73 74 72 30 00 80  ..........str0..
0330: 1C 04 80 9F 02 80 F8 FF  FF 7F F8 FF FF 7F 6B 69  ..............ki
0340: 6C 6C 00 80 00                                    ll...           
```

#### Opcodes

```
  0: 0x02CC [0x1C] WAIT(60* ticks)
  1: 0x02CF [0x9F] LOAD_SCHEDULED_TASK_ALT: Load scheduler "str0" with entities [EventEntity, EventEntity], work=[127*, 0*]
  2: 0x02E0 [0x1C] WAIT(30* ticks)
  3: 0x02E3 [0x9F] LOAD_SCHEDULED_TASK_ALT: Load scheduler "kill" with entities [EventEntity, EventEntity], work=[127*, 0*]
  4: 0x02F4 [0x1C] WAIT(90* ticks)
  5: 0x02F7 [0x9F] LOAD_SCHEDULED_TASK_ALT: Load scheduler "str0" with entities [EventEntity, EventEntity], work=[127*, 0*]
  6: 0x0308 [0x1C] WAIT(90* ticks)
  7: 0x030B [0x9F] LOAD_SCHEDULED_TASK_ALT: Load scheduler "kill" with entities [EventEntity, EventEntity], work=[127*, 0*]
  8: 0x031C [0x1C] WAIT(40* ticks)
  9: 0x031F [0x9F] LOAD_SCHEDULED_TASK_ALT: Load scheduler "str0" with entities [EventEntity, EventEntity], work=[127*, 0*]
 10: 0x0330 [0x1C] WAIT(90* ticks)
 11: 0x0333 [0x9F] LOAD_SCHEDULED_TASK_ALT: Load scheduler "kill" with entities [EventEntity, EventEntity], work=[127*, 0*]
 12: 0x0344 [0x00] END_REQSTACK()
```

### Event 65535.13

#### Metadata

| Field        | Value     |
|--------------|-----------|
| Entrypoint   | 0x0345    |
| Data Size    | 201 bytes |
| Instructions | 21        |

```
      00 01 02 03 04 05 06 07  08 09 0A 0B 0C 0D 0E 0F
      -- -- -- -- -- -- -- --  -- -- -- -- -- -- -- --
0340:                1C 13 80  9F 02 80 F8 FF FF 7F F8       ...........
0350: FF FF 7F 73 74 72 30 00  80 1C 0E 80 9F 02 80 F8  ...str0.........
0360: FF FF 7F F8 FF FF 7F 6B  69 6C 6C 00 80 1C 14 80  .......kill.....
0370: 9F 02 80 F8 FF FF 7F F8  FF FF 7F 73 74 72 30 00  ...........str0.
0380: 80 1C 15 80 9F 02 80 F8  FF FF 7F F8 FF FF 7F 6B  ...............k
0390: 69 6C 6C 00 80 1C 07 80  9F 02 80 F8 FF FF 7F F8  ill.............
03A0: FF FF 7F 73 74 72 30 00  80 1C 15 80 9F 02 80 F8  ...str0.........
03B0: FF FF 7F F8 FF FF 7F 6B  69 6C 6C 00 80 1C 16 80  .......kill.....
03C0: 9F 02 80 F8 FF FF 7F F8  FF FF 7F 73 74 72 30 00  ...........str0.
03D0: 80 1C 09 80 9F 02 80 F8  FF FF 7F F8 FF FF 7F 6B  ...............k
03E0: 69 6C 6C 00 80 1C 03 80  9F 02 80 F8 FF FF 7F F8  ill.............
03F0: FF FF 7F 73 74 72 30 00  80 1C 04 80 9F 02 80 F8  ...str0.........
0400: FF FF 7F F8 FF FF 7F 6B  69 6C 6C 00 80 00        .......kill...  
```

#### Opcodes

```
  0: 0x0345 [0x1C] WAIT(360* ticks)
  1: 0x0348 [0x9F] LOAD_SCHEDULED_TASK_ALT: Load scheduler "str0" with entities [EventEntity, EventEntity], work=[127*, 0*]
  2: 0x0359 [0x1C] WAIT(30* ticks)
  3: 0x035C [0x9F] LOAD_SCHEDULED_TASK_ALT: Load scheduler "kill" with entities [EventEntity, EventEntity], work=[127*, 0*]
  4: 0x036D [0x1C] WAIT(115* ticks)
  5: 0x0370 [0x9F] LOAD_SCHEDULED_TASK_ALT: Load scheduler "str0" with entities [EventEntity, EventEntity], work=[127*, 0*]
  6: 0x0381 [0x1C] WAIT(15* ticks)
  7: 0x0384 [0x9F] LOAD_SCHEDULED_TASK_ALT: Load scheduler "kill" with entities [EventEntity, EventEntity], work=[127*, 0*]
  8: 0x0395 [0x1C] WAIT(40* ticks)
  9: 0x0398 [0x9F] LOAD_SCHEDULED_TASK_ALT: Load scheduler "str0" with entities [EventEntity, EventEntity], work=[127*, 0*]
 10: 0x03A9 [0x1C] WAIT(15* ticks)
 11: 0x03AC [0x9F] LOAD_SCHEDULED_TASK_ALT: Load scheduler "kill" with entities [EventEntity, EventEntity], work=[127*, 0*]
 12: 0x03BD [0x1C] WAIT(20* ticks)
 13: 0x03C0 [0x9F] LOAD_SCHEDULED_TASK_ALT: Load scheduler "str0" with entities [EventEntity, EventEntity], work=[127*, 0*]
 14: 0x03D1 [0x1C] WAIT(60* ticks)
 15: 0x03D4 [0x9F] LOAD_SCHEDULED_TASK_ALT: Load scheduler "kill" with entities [EventEntity, EventEntity], work=[127*, 0*]
 16: 0x03E5 [0x1C] WAIT(45* ticks)
 17: 0x03E8 [0x9F] LOAD_SCHEDULED_TASK_ALT: Load scheduler "str0" with entities [EventEntity, EventEntity], work=[127*, 0*]
 18: 0x03F9 [0x1C] WAIT(90* ticks)
 19: 0x03FC [0x9F] LOAD_SCHEDULED_TASK_ALT: Load scheduler "kill" with entities [EventEntity, EventEntity], work=[127*, 0*]
 20: 0x040D [0x00] END_REQSTACK()
```
