# 17445234 - 11

## Common Data

| Field            | Value                         |
|------------------|-------------------------------|
| Zone             | Sacrificial Chamber (ID: 163) |
| Block Size       | 600 bytes                     |
| Total Events     | 25                            |
| References Count | 35                            |

## List of Events

| Event ID                   | Entrypoint   |   Size |   Instructions |
|----------------------------|--------------|--------|----------------|
| [65535](#event-65535)      | 0x0000       |      1 |              1 |
| [65535.1](#event-655351)   | 0x0001       |     19 |              5 |
| [65535.2](#event-655352)   | 0x0014       |     10 |              2 |
| [65535.3](#event-655353)   | 0x001E       |     10 |              2 |
| [65535.4](#event-655354)   | 0x0028       |      5 |              2 |
| [65535.5](#event-655355)   | 0x002D       |     22 |              6 |
| [65535.6](#event-655356)   | 0x0043       |     16 |              2 |
| [65535.7](#event-655357)   | 0x0053       |     19 |              3 |
| [65535.8](#event-655358)   | 0x0066       |     18 |              3 |
| [65535.9](#event-655359)   | 0x0078       |      5 |              2 |
| [5](#event-5)              | 0x007D       |      1 |              1 |
| [65535.10](#event-6553510) | 0x007E       |     18 |              3 |
| [65535.11](#event-6553511) | 0x0090       |     26 |              5 |
| [65535.12](#event-6553512) | 0x00AA       |     16 |              2 |
| [65535.13](#event-6553513) | 0x00BA       |     19 |              3 |
| [65535.14](#event-6553514) | 0x00CD       |     19 |              3 |
| [65535.15](#event-6553515) | 0x00E0       |     44 |              6 |
| [0](#event-0)              | 0x010C       |      1 |              1 |
| [65535.16](#event-6553516) | 0x010D       |     18 |              4 |
| [65535.17](#event-6553517) | 0x011F       |     10 |              2 |
| [65535.18](#event-6553518) | 0x0129       |      9 |              3 |
| [65535.19](#event-6553519) | 0x0132       |      9 |              3 |
| [65535.20](#event-6553520) | 0x013B       |     10 |              2 |
| [65535.21](#event-6553521) | 0x0145       |     10 |              2 |
| [65535.22](#event-6553522) | 0x014F       |      9 |              3 |

## DAT References (imed_data)

|   Index | Hex Value   |   Dec Value |
|---------|-------------|-------------|
|       0 | 0x0064      |         100 |
|       1 | 0x0080      |         128 |
|       2 | 0x0000      |           0 |
|       3 | 0x00A4      |         164 |
|       4 | 0x0008      |           8 |
|       5 | 0xFFFFAC34  |  4294945844 |
|       6 | 0xFFFFD527  |  4294956327 |
|       7 | 0xFFFFF63C  |  4294964796 |
|       8 | 0x05EE      |        1518 |
|       9 | 0x0A33      |        2611 |
|      10 | 0x0044      |          68 |
|      11 | 0x0057      |          87 |
|      12 | 0xFFFF4009  |  4294918153 |
|      13 | 0x159FD     |       88573 |
|      14 | 0x2007      |        8199 |
|      15 | 0x0260      |         608 |
|      16 | 0x004E      |          78 |
|      17 | 0x00AA      |         170 |
|      18 | 0x0F19      |        3865 |
|      19 | 0x1CA2E     |      117294 |
|      20 | 0xFFFFC374  |  4294951796 |
|      21 | 0x0B91      |        2961 |
|      22 | 0x00F9      |         249 |
|      23 | 0xFFFEC7B4  |  4294887348 |
|      24 | 0x1A653     |      108115 |
|      25 | 0xFFFFDAC7  |  4294957767 |
|      26 | 0x06AA      |        1706 |
|      27 | 0x000F      |          15 |
|      28 | 0x0ACB      |        2763 |
|      29 | 0x0101      |         257 |
|      30 | 0x0ACC      |        2764 |
|      31 | 0x037C      |         892 |
|      32 | 0x0001      |           1 |
|      33 | 0x0945      |        2373 |
|      34 | 0x30D4      |       12500 |

## Events

### Event 65535

#### Metadata

| Field        | Value   |
|--------------|---------|
| Entrypoint   | 0x0000  |
| Data Size    | 1 bytes |
| Instructions | 1       |

```
      00 01 02 03 04 05 06 07  08 09 0A 0B 0C 0D 0E 0F
      -- -- -- -- -- -- -- --  -- -- -- -- -- -- -- --
0000: 00                                                .               
```

#### Opcodes

```
  0: 0x0000 [0x00] END_REQSTACK()
```

### Event 65535.1

#### Metadata

| Field        | Value    |
|--------------|----------|
| Entrypoint   | 0x0001   |
| Data Size    | 19 bytes |
| Instructions | 5        |

```
      00 01 02 03 04 05 06 07  08 09 0A 0B 0C 0D 0E 0F
      -- -- -- -- -- -- -- --  -- -- -- -- -- -- -- --
0000:    22 00 92 01 F8 FF FF  7F 94 01 F8 FF FF 7F B6   "..............
0010: 0F 00 80 00                                       ....            
```

#### Opcodes

```
  0: 0x0001 [0x22] ENTITY_HIDE_FLAG(enabled=0x00)
  1: 0x0003 [0x92] EventEntity->Render.Flags3 ^= 0x01
  2: 0x0009 [0x94] EventEntity->Render.Flags3 ^= 0x01
  3: 0x000F [0xB6] ENTITY_APPEARANCE_HANDLER(case=Model size, value=100*)
  4: 0x0013 [0x00] END_REQSTACK()
```

### Event 65535.2

#### Metadata

| Field        | Value    |
|--------------|----------|
| Entrypoint   | 0x0014   |
| Data Size    | 10 bytes |
| Instructions | 2        |

```
      00 01 02 03 04 05 06 07  08 09 0A 0B 0C 0D 0E 0F
      -- -- -- -- -- -- -- --  -- -- -- -- -- -- -- --
0010:             6C F8 FF FF  7F 01 80 02 80 00            l.........  
```

#### Opcodes

```
  0: 0x0014 [0x6C] FADE_ENTITY_COLOR(entity_id=EventEntity, end_alpha=128*, fade_time=0*)
  1: 0x001D [0x00] END_REQSTACK()
```

### Event 65535.3

#### Metadata

| Field        | Value    |
|--------------|----------|
| Entrypoint   | 0x001E   |
| Data Size    | 10 bytes |
| Instructions | 2        |

```
      00 01 02 03 04 05 06 07  08 09 0A 0B 0C 0D 0E 0F
      -- -- -- -- -- -- -- --  -- -- -- -- -- -- -- --
0010:                                            6C F8                l.
0020: FF FF 7F 02 80 02 80 00                           ........        
```

#### Opcodes

```
  0: 0x001E [0x6C] FADE_ENTITY_COLOR(entity_id=EventEntity, end_alpha=0*, fade_time=0*)
  1: 0x0027 [0x00] END_REQSTACK()
```

### Event 65535.4

#### Metadata

| Field        | Value   |
|--------------|---------|
| Entrypoint   | 0x0028  |
| Data Size    | 5 bytes |
| Instructions | 2       |

```
      00 01 02 03 04 05 06 07  08 09 0A 0B 0C 0D 0E 0F
      -- -- -- -- -- -- -- --  -- -- -- -- -- -- -- --
0020:                          B6 00 03 80 00                   .....   
```

#### Opcodes

```
  0: 0x0028 [0xB6] ENTITY_APPEARANCE_HANDLER(case=Hair style, value=164*)
  1: 0x002C [0x00] END_REQSTACK()
```

### Event 65535.5

#### Metadata

| Field        | Value    |
|--------------|----------|
| Entrypoint   | 0x002D   |
| Data Size    | 22 bytes |
| Instructions | 6        |

```
      00 01 02 03 04 05 06 07  08 09 0A 0B 0C 0D 0E 0F
      -- -- -- -- -- -- -- --  -- -- -- -- -- -- -- --
0020:                                         32 04 80               2..
0030: 1F 00 05 80 06 80 07 80  1F 01 6F 4B F8 FF FF 7F  ..........oK....
0040: 08 80 00                                          ...             
```

#### Opcodes

```
  0: 0x002D [0x32] ExtData[1]->MainSpeed = 8* * 0.1
  1: 0x0030 [0x1F] MOVE_ENTITY: EventEntity moves to X=-21.452*, Z=-10.969*, Y=-2.500*
  2: 0x0038 [0x1F] MOVE_ENTITY: Update entity position (mode=1)
  3: 0x003A [0x6F] WAIT_FRAME_DELAY: Yield until WaitTime reaches zero
  4: 0x003B [0x4B] UPDATE_ENTITY_YAW(entity=EventEntity, yaw=8.3째*)
  5: 0x0042 [0x00] END_REQSTACK()
```

### Event 65535.6

#### Metadata

| Field        | Value    |
|--------------|----------|
| Entrypoint   | 0x0043   |
| Data Size    | 16 bytes |
| Instructions | 2        |

```
      00 01 02 03 04 05 06 07  08 09 0A 0B 0C 0D 0E 0F
      -- -- -- -- -- -- -- --  -- -- -- -- -- -- -- --
0040:          5B 09 80 F8 FF  FF 7F F8 FF FF 7F 61 6F     [..........ao
0050: 70 30 00                                          p0.             
```

#### Opcodes

```
  0: 0x0043 [0x5B] LOAD_EXT_SCHEDULER: Load scheduler "aop0" with entities [EventEntity, EventEntity], work=2611*
  1: 0x0052 [0x00] END_REQSTACK()
```

### Event 65535.7

#### Metadata

| Field        | Value    |
|--------------|----------|
| Entrypoint   | 0x0053   |
| Data Size    | 19 bytes |
| Instructions | 3        |

```
      00 01 02 03 04 05 06 07  08 09 0A 0B 0C 0D 0E 0F
      -- -- -- -- -- -- -- --  -- -- -- -- -- -- -- --
0050:          5B 09 80 F8 FF  FF 7F F8 FF FF 7F 6F 68     [..........oh
0060: 68 30 1C 0A 80 00                                 h0....          
```

#### Opcodes

```
  0: 0x0053 [0x5B] LOAD_EXT_SCHEDULER: Load scheduler "ohh0" with entities [EventEntity, EventEntity], work=2611*
  1: 0x0062 [0x1C] WAIT(68* ticks)
  2: 0x0065 [0x00] END_REQSTACK()
```

### Event 65535.8

#### Metadata

| Field        | Value    |
|--------------|----------|
| Entrypoint   | 0x0066   |
| Data Size    | 18 bytes |
| Instructions | 3        |

```
      00 01 02 03 04 05 06 07  08 09 0A 0B 0C 0D 0E 0F
      -- -- -- -- -- -- -- --  -- -- -- -- -- -- -- --
0060:                   B6 00  0B 80 BA F8 FF FF 7F 0C        ..........
0070: 80 0D 80 0E 80 0F 80 00                           ........        
```

#### Opcodes

```
  0: 0x0066 [0xB6] ENTITY_APPEARANCE_HANDLER(case=Hair style, value=87*)
  1: 0x006A [0xBA] SET_ENTITY_POSITION(entity_id=EventEntity, pos_x=-49.143*, pos_z=88.573*, pos_y=8.199*, direction=53.4째*)
  2: 0x0077 [0x00] END_REQSTACK()
```

### Event 65535.9

#### Metadata

| Field        | Value   |
|--------------|---------|
| Entrypoint   | 0x0078  |
| Data Size    | 5 bytes |
| Instructions | 2       |

```
      00 01 02 03 04 05 06 07  08 09 0A 0B 0C 0D 0E 0F
      -- -- -- -- -- -- -- --  -- -- -- -- -- -- -- --
0070:                          B6 00 10 80 00                   .....   
```

#### Opcodes

```
  0: 0x0078 [0xB6] ENTITY_APPEARANCE_HANDLER(case=Hair style, value=78*)
  1: 0x007C [0x00] END_REQSTACK()
```

### Event 5

#### Metadata

| Field        | Value   |
|--------------|---------|
| Entrypoint   | 0x007D  |
| Data Size    | 1 bytes |
| Instructions | 1       |

```
      00 01 02 03 04 05 06 07  08 09 0A 0B 0C 0D 0E 0F
      -- -- -- -- -- -- -- --  -- -- -- -- -- -- -- --
0070:                                         00                     .  
```

#### Opcodes

```
  0: 0x007D [0x00] END_REQSTACK()
```

### Event 65535.10

#### Metadata

| Field        | Value    |
|--------------|----------|
| Entrypoint   | 0x007E   |
| Data Size    | 18 bytes |
| Instructions | 3        |

```
      00 01 02 03 04 05 06 07  08 09 0A 0B 0C 0D 0E 0F
      -- -- -- -- -- -- -- --  -- -- -- -- -- -- -- --
0070:                                            B6 00                ..
0080: 11 80 BA F8 FF FF 7F 12  80 13 80 14 80 15 80 00  ................
```

#### Opcodes

```
  0: 0x007E [0xB6] ENTITY_APPEARANCE_HANDLER(case=Hair style, value=170*)
  1: 0x0082 [0xBA] SET_ENTITY_POSITION(entity_id=EventEntity, pos_x=3.865*, pos_z=117.294*, pos_y=-15.500*, direction=260.2째*)
  2: 0x008F [0x00] END_REQSTACK()
```

### Event 65535.11

#### Metadata

| Field        | Value    |
|--------------|----------|
| Entrypoint   | 0x0090   |
| Data Size    | 26 bytes |
| Instructions | 5        |

```
      00 01 02 03 04 05 06 07  08 09 0A 0B 0C 0D 0E 0F
      -- -- -- -- -- -- -- --  -- -- -- -- -- -- -- --
0090: B6 00 16 80 BA F8 FF FF  7F 17 80 18 80 19 80 1A  ................
00A0: 80 80 F8 FF FF 7F 1C 1B  80 00                    ..........      
```

#### Opcodes

```
  0: 0x0090 [0xB6] ENTITY_APPEARANCE_HANDLER(case=Hair style, value=249*)
  1: 0x0094 [0xBA] SET_ENTITY_POSITION(entity_id=EventEntity, pos_x=-79.948*, pos_z=108.115*, pos_y=-9.529*, direction=149.9째*)
  2: 0x00A1 [0x80] LOAD_WAIT(entity=EventEntity)
  3: 0x00A6 [0x1C] WAIT(15* ticks)
  4: 0x00A9 [0x00] END_REQSTACK()
```

### Event 65535.12

#### Metadata

| Field        | Value    |
|--------------|----------|
| Entrypoint   | 0x00AA   |
| Data Size    | 16 bytes |
| Instructions | 2        |

```
      00 01 02 03 04 05 06 07  08 09 0A 0B 0C 0D 0E 0F
      -- -- -- -- -- -- -- --  -- -- -- -- -- -- -- --
00A0:                                5B 1C 80 F8 FF FF            [.....
00B0: 7F F8 FF FF 7F 6F 68 68  30 00                    .....ohh0.      
```

#### Opcodes

```
  0: 0x00AA [0x5B] LOAD_EXT_SCHEDULER: Load scheduler "ohh0" with entities [EventEntity, EventEntity], work=2763*
  1: 0x00B9 [0x00] END_REQSTACK()
```

### Event 65535.13

#### Metadata

| Field        | Value    |
|--------------|----------|
| Entrypoint   | 0x00BA   |
| Data Size    | 19 bytes |
| Instructions | 3        |

```
      00 01 02 03 04 05 06 07  08 09 0A 0B 0C 0D 0E 0F
      -- -- -- -- -- -- -- --  -- -- -- -- -- -- -- --
00B0:                                5B 1C 80 F8 FF FF            [.....
00C0: 7F F8 FF FF 7F 6F 68 68  31 1C 1D 80 00           .....ohh1....   
```

#### Opcodes

```
  0: 0x00BA [0x5B] LOAD_EXT_SCHEDULER: Load scheduler "ohh1" with entities [EventEntity, EventEntity], work=2763*
  1: 0x00C9 [0x1C] WAIT(257* ticks)
  2: 0x00CC [0x00] END_REQSTACK()
```

### Event 65535.14

#### Metadata

| Field        | Value    |
|--------------|----------|
| Entrypoint   | 0x00CD   |
| Data Size    | 19 bytes |
| Instructions | 3        |

```
      00 01 02 03 04 05 06 07  08 09 0A 0B 0C 0D 0E 0F
      -- -- -- -- -- -- -- --  -- -- -- -- -- -- -- --
00C0:                                         5B 1E 80               [..
00D0: F8 FF FF 7F F8 FF FF 7F  6F 68 68 32 1C 1F 80 00  ........ohh2....
```

#### Opcodes

```
  0: 0x00CD [0x5B] LOAD_EXT_SCHEDULER: Load scheduler "ohh2" with entities [EventEntity, EventEntity], work=2764*
  1: 0x00DC [0x1C] WAIT(892* ticks)
  2: 0x00DF [0x00] END_REQSTACK()
```

### Event 65535.15

#### Metadata

| Field        | Value    |
|--------------|----------|
| Entrypoint   | 0x00E0   |
| Data Size    | 44 bytes |
| Instructions | 6        |

```
      00 01 02 03 04 05 06 07  08 09 0A 0B 0C 0D 0E 0F
      -- -- -- -- -- -- -- --  -- -- -- -- -- -- -- --
00E0: 59 05 F8 FF FF 7F 01 3B  68 31 0A 01 00 00 01 00  Y......;h1......
00F0: 02 00 3A 68 31 0A 01 03  00 BA F8 FF FF 7F 00 00  ..:h1...........
0100: 01 00 02 00 03 00 80 F8  FF FF 7F 00              ............    
```

#### Opcodes

```
  0: 0x00E0 [0x59] UPDATE_ENTITY_DATA: EventEntity->Render.Flags0 |= 0x200000
  1: 0x00E7 [0x3B] GET_ENTITY_POSITION(entity=1 (ID: 17445224/0x010A3168), x_destination=ExtData[1]->WorkLocal[0], y_destination=ExtData[1]->WorkLocal[1], z_destination=ExtData[1]->WorkLocal[2])
  2: 0x00F2 [0x3A] CONVERT_YAW_TO_BYTE(entity=1 (ID: 17445224/0x010A3168), result_destination=ExtData[1]->WorkLocal[3])
  3: 0x00F9 [0xBA] SET_ENTITY_POSITION(entity_id=EventEntity, pos_x=ExtData[1]->WorkLocal[0], pos_z=ExtData[1]->WorkLocal[1], pos_y=ExtData[1]->WorkLocal[2], direction=ExtData[1]->WorkLocal[3])
  4: 0x0106 [0x80] LOAD_WAIT(entity=EventEntity)
  5: 0x010B [0x00] END_REQSTACK()
```

### Event 0

#### Metadata

| Field        | Value   |
|--------------|---------|
| Entrypoint   | 0x010C  |
| Data Size    | 1 bytes |
| Instructions | 1       |

```
      00 01 02 03 04 05 06 07  08 09 0A 0B 0C 0D 0E 0F
      -- -- -- -- -- -- -- --  -- -- -- -- -- -- -- --
0100:                                      00                       .   
```

#### Opcodes

```
  0: 0x010C [0x00] END_REQSTACK()
```

### Event 65535.16

#### Metadata

| Field        | Value    |
|--------------|----------|
| Entrypoint   | 0x010D   |
| Data Size    | 18 bytes |
| Instructions | 4        |

```
      00 01 02 03 04 05 06 07  08 09 0A 0B 0C 0D 0E 0F
      -- -- -- -- -- -- -- --  -- -- -- -- -- -- -- --
0100:                                         22 00 2F               "./
0110: 00 F8 FF FF 7F 6C F8 FF  FF 7F 02 80 20 80 00     .....l...... .. 
```

#### Opcodes

```
  0: 0x010D [0x22] ENTITY_HIDE_FLAG(enabled=0x00)
  1: 0x010F [0x2F] EventEntity->Render.Flags0 &= ~0x80000 // Bit 19
  2: 0x0115 [0x6C] FADE_ENTITY_COLOR(entity_id=EventEntity, end_alpha=0*, fade_time=1*)
  3: 0x011E [0x00] END_REQSTACK()
```

### Event 65535.17

#### Metadata

| Field        | Value    |
|--------------|----------|
| Entrypoint   | 0x011F   |
| Data Size    | 10 bytes |
| Instructions | 2        |

```
      00 01 02 03 04 05 06 07  08 09 0A 0B 0C 0D 0E 0F
      -- -- -- -- -- -- -- --  -- -- -- -- -- -- -- --
0110:                                               6C                 l
0120: F8 FF FF 7F 01 80 20 80  00                       ...... ..       
```

#### Opcodes

```
  0: 0x011F [0x6C] FADE_ENTITY_COLOR(entity_id=EventEntity, end_alpha=128*, fade_time=1*)
  1: 0x0128 [0x00] END_REQSTACK()
```

### Event 65535.18

#### Metadata

| Field        | Value   |
|--------------|---------|
| Entrypoint   | 0x0129  |
| Data Size    | 9 bytes |
| Instructions | 3       |

```
      00 01 02 03 04 05 06 07  08 09 0A 0B 0C 0D 0E 0F
      -- -- -- -- -- -- -- --  -- -- -- -- -- -- -- --
0120:                             22 00 2F 00 F8 FF FF           "./....
0130: 7F 00                                             ..              
```

#### Opcodes

```
  0: 0x0129 [0x22] ENTITY_HIDE_FLAG(enabled=0x00)
  1: 0x012B [0x2F] EventEntity->Render.Flags0 &= ~0x80000 // Bit 19
  2: 0x0131 [0x00] END_REQSTACK()
```

### Event 65535.19

#### Metadata

| Field        | Value   |
|--------------|---------|
| Entrypoint   | 0x0132  |
| Data Size    | 9 bytes |
| Instructions | 3       |

```
      00 01 02 03 04 05 06 07  08 09 0A 0B 0C 0D 0E 0F
      -- -- -- -- -- -- -- --  -- -- -- -- -- -- -- --
0130:       22 01 2F 01 F8 FF  FF 7F 00                   "./......     
```

#### Opcodes

```
  0: 0x0132 [0x22] ENTITY_HIDE_FLAG(enabled=0x01)
  1: 0x0134 [0x2F] EventEntity->Render.Flags0 |= 0x80000 // Bit 19
  2: 0x013A [0x00] END_REQSTACK()
```

### Event 65535.20

#### Metadata

| Field        | Value    |
|--------------|----------|
| Entrypoint   | 0x013B   |
| Data Size    | 10 bytes |
| Instructions | 2        |

```
      00 01 02 03 04 05 06 07  08 09 0A 0B 0C 0D 0E 0F
      -- -- -- -- -- -- -- --  -- -- -- -- -- -- -- --
0130:                                   6C F8 FF FF 7F             l....
0140: 02 80 20 80 00                                    .. ..           
```

#### Opcodes

```
  0: 0x013B [0x6C] FADE_ENTITY_COLOR(entity_id=EventEntity, end_alpha=0*, fade_time=1*)
  1: 0x0144 [0x00] END_REQSTACK()
```

### Event 65535.21

#### Metadata

| Field        | Value    |
|--------------|----------|
| Entrypoint   | 0x0145   |
| Data Size    | 10 bytes |
| Instructions | 2        |

```
      00 01 02 03 04 05 06 07  08 09 0A 0B 0C 0D 0E 0F
      -- -- -- -- -- -- -- --  -- -- -- -- -- -- -- --
0140:                6C F8 FF  FF 7F 01 80 20 80 00          l...... .. 
```

#### Opcodes

```
  0: 0x0145 [0x6C] FADE_ENTITY_COLOR(entity_id=EventEntity, end_alpha=128*, fade_time=1*)
  1: 0x014E [0x00] END_REQSTACK()
```

### Event 65535.22

#### Metadata

| Field        | Value   |
|--------------|---------|
| Entrypoint   | 0x014F  |
| Data Size    | 9 bytes |
| Instructions | 3       |

```
      00 01 02 03 04 05 06 07  08 09 0A 0B 0C 0D 0E 0F
      -- -- -- -- -- -- -- --  -- -- -- -- -- -- -- --
0140:                                               B6                 .
0150: 00 21 80 B6 0F 22 80 00                           .!..."..        
```

#### Opcodes

```
  0: 0x014F [0xB6] ENTITY_APPEARANCE_HANDLER(case=Hair style, value=2373*)
  1: 0x0153 [0xB6] ENTITY_APPEARANCE_HANDLER(case=Model size, value=12500*)
  2: 0x0157 [0x00] END_REQSTACK()
```
