# 17445224 - 1

## Common Data

| Field            | Value                         |
|------------------|-------------------------------|
| Zone             | Sacrificial Chamber (ID: 163) |
| Block Size       | 436 bytes                     |
| Total Events     | 15                            |
| References Count | 25                            |

## List of Events

| Event ID                   | Entrypoint   |   Size |   Instructions |
|----------------------------|--------------|--------|----------------|
| [65535](#event-65535)      | 0x0000       |      1 |              1 |
| [65535.1](#event-655351)   | 0x0001       |     15 |              4 |
| [65535.2](#event-655352)   | 0x0010       |     10 |              2 |
| [65535.3](#event-655353)   | 0x001A       |     10 |              2 |
| [4](#event-4)              | 0x0024       |      1 |              1 |
| [65535.4](#event-655354)   | 0x0025       |     30 |              3 |
| [5](#event-5)              | 0x0043       |      1 |              1 |
| [65535.5](#event-655355)   | 0x0044       |     21 |              2 |
| [65535.6](#event-655356)   | 0x0059       |     44 |              5 |
| [65535.7](#event-655357)   | 0x0085       |     34 |              3 |
| [65535.8](#event-655358)   | 0x00A7       |     30 |              3 |
| [65535.9](#event-655359)   | 0x00C5       |     37 |              5 |
| [65535.10](#event-6553510) | 0x00EA       |     16 |              2 |
| [65535.11](#event-6553511) | 0x00FA       |     10 |              2 |

## DAT References (imed_data)

|   Index | Hex Value   |   Dec Value |
|---------|-------------|-------------|
|       0 | 0x0080      |         128 |
|       1 | 0x0000      |           0 |
|       2 | 0x0005      |           5 |
|       3 | 0x000D      |          13 |
|       4 | 0x0013      |          19 |
|       5 | 0x0017      |          23 |
|       6 | 0x0006      |           6 |
|       7 | 0x00C9      |         201 |
|       8 | 0x0008      |           8 |
|       9 | 0x000E      |          14 |
|      10 | 0x0010      |          16 |
|      11 | 0x0007      |           7 |
|      12 | 0x000F      |          15 |
|      13 | 0xFFFFA048  |  4294942792 |
|      14 | 0x19BE1     |      105441 |
|      15 | 0xFFFFDC10  |  4294958096 |
|      16 | 0x061F      |        1567 |
|      17 | 0xFFFF4009  |  4294918153 |
|      18 | 0x159FD     |       88573 |
|      19 | 0x2007      |        8199 |
|      20 | 0x0260      |         608 |
|      21 | 0xFFFF5576  |  4294923638 |
|      22 | 0x1A1CB     |      106955 |
|      23 | 0x001D      |          29 |
|      24 | 0x0AC8      |        2760 |

## Events

### Event 65535

#### Metadata

| Field        | Value   |
|--------------|---------|
| Entrypoint   | 0x0000  |
| Data Size    | 1 bytes |
| Instructions | 1       |

```
      00 01 02 03 04 05 06 07  08 09 0A 0B 0C 0D 0E 0F
      -- -- -- -- -- -- -- --  -- -- -- -- -- -- -- --
0000: 00                                                .               
```

#### Opcodes

```
  0: 0x0000 [0x00] END_REQSTACK()
```

### Event 65535.1

#### Metadata

| Field        | Value    |
|--------------|----------|
| Entrypoint   | 0x0001   |
| Data Size    | 15 bytes |
| Instructions | 4        |

```
      00 01 02 03 04 05 06 07  08 09 0A 0B 0C 0D 0E 0F
      -- -- -- -- -- -- -- --  -- -- -- -- -- -- -- --
0000:    22 00 92 01 F8 FF FF  7F 94 01 F8 FF FF 7F 00   "..............
```

#### Opcodes

```
  0: 0x0001 [0x22] ENTITY_HIDE_FLAG(enabled=0x00)
  1: 0x0003 [0x92] EventEntity->Render.Flags3 ^= 0x01
  2: 0x0009 [0x94] EventEntity->Render.Flags3 ^= 0x01
  3: 0x000F [0x00] END_REQSTACK()
```

### Event 65535.2

#### Metadata

| Field        | Value    |
|--------------|----------|
| Entrypoint   | 0x0010   |
| Data Size    | 10 bytes |
| Instructions | 2        |

```
      00 01 02 03 04 05 06 07  08 09 0A 0B 0C 0D 0E 0F
      -- -- -- -- -- -- -- --  -- -- -- -- -- -- -- --
0010: 6C F8 FF FF 7F 00 80 01  80 00                    l.........      
```

#### Opcodes

```
  0: 0x0010 [0x6C] FADE_ENTITY_COLOR(entity_id=EventEntity, end_alpha=128*, fade_time=0*)
  1: 0x0019 [0x00] END_REQSTACK()
```

### Event 65535.3

#### Metadata

| Field        | Value    |
|--------------|----------|
| Entrypoint   | 0x001A   |
| Data Size    | 10 bytes |
| Instructions | 2        |

```
      00 01 02 03 04 05 06 07  08 09 0A 0B 0C 0D 0E 0F
      -- -- -- -- -- -- -- --  -- -- -- -- -- -- -- --
0010:                                6C F8 FF FF 7F 01            l.....
0020: 80 01 80 00                                       ....            
```

#### Opcodes

```
  0: 0x001A [0x6C] FADE_ENTITY_COLOR(entity_id=EventEntity, end_alpha=0*, fade_time=0*)
  1: 0x0023 [0x00] END_REQSTACK()
```

### Event 4

#### Metadata

| Field        | Value   |
|--------------|---------|
| Entrypoint   | 0x0024  |
| Data Size    | 1 bytes |
| Instructions | 1       |

```
      00 01 02 03 04 05 06 07  08 09 0A 0B 0C 0D 0E 0F
      -- -- -- -- -- -- -- --  -- -- -- -- -- -- -- --
0020:             00                                        .           
```

#### Opcodes

```
  0: 0x0024 [0x00] END_REQSTACK()
```

### Event 65535.4

#### Metadata

| Field        | Value    |
|--------------|----------|
| Entrypoint   | 0x0025   |
| Data Size    | 30 bytes |
| Instructions | 3        |

```
      00 01 02 03 04 05 06 07  08 09 0A 0B 0C 0D 0E 0F
      -- -- -- -- -- -- -- --  -- -- -- -- -- -- -- --
0020:                B6 0B 02  80 03 80 04 80 05 80 05       ...........
0030: 80 05 80 05 80 01 80 01  80 6C F8 FF FF 7F 01 80  .........l......
0040: 01 80 00                                          ...             
```

#### Opcodes

```
  0: 0x0025 [0xB6] ENTITY_APPEARANCE_HANDLER(case=Full entity look, race=5*, hair=13*, head=19*, body=23*, hands=23*, legs=23*, feet=23*, main=0*, sub=0*)
  1: 0x0039 [0x6C] FADE_ENTITY_COLOR(entity_id=EventEntity, end_alpha=0*, fade_time=0*)
  2: 0x0042 [0x00] END_REQSTACK()
```

### Event 5

#### Metadata

| Field        | Value   |
|--------------|---------|
| Entrypoint   | 0x0043  |
| Data Size    | 1 bytes |
| Instructions | 1       |

```
      00 01 02 03 04 05 06 07  08 09 0A 0B 0C 0D 0E 0F
      -- -- -- -- -- -- -- --  -- -- -- -- -- -- -- --
0040:          00                                          .            
```

#### Opcodes

```
  0: 0x0043 [0x00] END_REQSTACK()
```

### Event 65535.5

#### Metadata

| Field        | Value    |
|--------------|----------|
| Entrypoint   | 0x0044   |
| Data Size    | 21 bytes |
| Instructions | 2        |

```
      00 01 02 03 04 05 06 07  08 09 0A 0B 0C 0D 0E 0F
      -- -- -- -- -- -- -- --  -- -- -- -- -- -- -- --
0040:             B6 0B 06 80  06 80 01 80 07 80 07 80      ............
0050: 07 80 07 80 01 80 01 80  00                       .........       
```

#### Opcodes

```
  0: 0x0044 [0xB6] ENTITY_APPEARANCE_HANDLER(case=Full entity look, race=6*, hair=6*, head=0*, body=201*, hands=201*, legs=201*, feet=201*, main=0*, sub=0*)
  1: 0x0058 [0x00] END_REQSTACK()
```

### Event 65535.6

#### Metadata

| Field        | Value    |
|--------------|----------|
| Entrypoint   | 0x0059   |
| Data Size    | 44 bytes |
| Instructions | 5        |

```
      00 01 02 03 04 05 06 07  08 09 0A 0B 0C 0D 0E 0F
      -- -- -- -- -- -- -- --  -- -- -- -- -- -- -- --
0050:                             59 05 F8 FF FF 7F 01           Y......
0060: B6 0B 08 80 09 80 01 80  09 80 0A 80 0B 80 0B 80  ................
0070: 01 80 01 80 1C 0C 80 BA  F8 FF FF 7F 0D 80 0E 80  ................
0080: 0F 80 10 80 00                                    .....           
```

#### Opcodes

```
  0: 0x0059 [0x59] UPDATE_ENTITY_DATA: EventEntity->Render.Flags0 |= 0x200000
  1: 0x0060 [0xB6] ENTITY_APPEARANCE_HANDLER(case=Full entity look, race=8*, hair=14*, head=0*, body=14*, hands=16*, legs=7*, feet=7*, main=0*, sub=0*)
  2: 0x0074 [0x1C] WAIT(15* ticks)
  3: 0x0077 [0xBA] SET_ENTITY_POSITION(entity_id=EventEntity, pos_x=-24.504*, pos_z=105.441*, pos_y=-9.200*, direction=137.7째*)
  4: 0x0084 [0x00] END_REQSTACK()
```

### Event 65535.7

#### Metadata

| Field        | Value    |
|--------------|----------|
| Entrypoint   | 0x0085   |
| Data Size    | 34 bytes |
| Instructions | 3        |

```
      00 01 02 03 04 05 06 07  08 09 0A 0B 0C 0D 0E 0F
      -- -- -- -- -- -- -- --  -- -- -- -- -- -- -- --
0080:                B6 0B 06  80 06 80 01 80 07 80 07       ...........
0090: 80 07 80 07 80 01 80 01  80 BA F8 FF FF 7F 11 80  ................
00A0: 12 80 13 80 14 80 00                              .......         
```

#### Opcodes

```
  0: 0x0085 [0xB6] ENTITY_APPEARANCE_HANDLER(case=Full entity look, race=6*, hair=6*, head=0*, body=201*, hands=201*, legs=201*, feet=201*, main=0*, sub=0*)
  1: 0x0099 [0xBA] SET_ENTITY_POSITION(entity_id=EventEntity, pos_x=-49.143*, pos_z=88.573*, pos_y=8.199*, direction=53.4째*)
  2: 0x00A6 [0x00] END_REQSTACK()
```

### Event 65535.8

#### Metadata

| Field        | Value    |
|--------------|----------|
| Entrypoint   | 0x00A7   |
| Data Size    | 30 bytes |
| Instructions | 3        |

```
      00 01 02 03 04 05 06 07  08 09 0A 0B 0C 0D 0E 0F
      -- -- -- -- -- -- -- --  -- -- -- -- -- -- -- --
00A0:                      B6  0B 06 80 06 80 01 80 07         .........
00B0: 80 07 80 07 80 07 80 01  80 01 80 37 15 80 16 80  ...........7....
00C0: 01 80 17 80 00                                    .....           
```

#### Opcodes

```
  0: 0x00A7 [0xB6] ENTITY_APPEARANCE_HANDLER(case=Full entity look, race=6*, hair=6*, head=0*, body=201*, hands=201*, legs=201*, feet=201*, main=0*, sub=0*)
  1: 0x00BB [0x37] UPDATE_EVENT_POSITION_AND_DIR: x=-43.658*, z=106.955*, y=0.000*, direction=2.5째*
  2: 0x00C4 [0x00] END_REQSTACK()
```

### Event 65535.9

#### Metadata

| Field        | Value    |
|--------------|----------|
| Entrypoint   | 0x00C5   |
| Data Size    | 37 bytes |
| Instructions | 5        |

```
      00 01 02 03 04 05 06 07  08 09 0A 0B 0C 0D 0E 0F
      -- -- -- -- -- -- -- --  -- -- -- -- -- -- -- --
00C0:                3B 72 31  0A 01 00 00 01 00 02 00       ;r1........
00D0: 3A 72 31 0A 01 03 00 BA  F8 FF FF 7F 00 00 01 00  :r1.............
00E0: 02 00 03 00 80 F8 FF FF  7F 00                    ..........      
```

#### Opcodes

```
  0: 0x00C5 [0x3B] GET_ENTITY_POSITION(entity=11 (ID: 17445234/0x010A3172), x_destination=ExtData[1]->WorkLocal[0], y_destination=ExtData[1]->WorkLocal[1], z_destination=ExtData[1]->WorkLocal[2])
  1: 0x00D0 [0x3A] CONVERT_YAW_TO_BYTE(entity=11 (ID: 17445234/0x010A3172), result_destination=ExtData[1]->WorkLocal[3])
  2: 0x00D7 [0xBA] SET_ENTITY_POSITION(entity_id=EventEntity, pos_x=ExtData[1]->WorkLocal[0], pos_z=ExtData[1]->WorkLocal[1], pos_y=ExtData[1]->WorkLocal[2], direction=ExtData[1]->WorkLocal[3])
  3: 0x00E4 [0x80] LOAD_WAIT(entity=EventEntity)
  4: 0x00E9 [0x00] END_REQSTACK()
```

### Event 65535.10

#### Metadata

| Field        | Value    |
|--------------|----------|
| Entrypoint   | 0x00EA   |
| Data Size    | 16 bytes |
| Instructions | 2        |

```
      00 01 02 03 04 05 06 07  08 09 0A 0B 0C 0D 0E 0F
      -- -- -- -- -- -- -- --  -- -- -- -- -- -- -- --
00E0:                                5B 18 80 F8 FF FF            [.....
00F0: 7F F8 FF FF 7F 6F 68 68  6C 00                    .....ohhl.      
```

#### Opcodes

```
  0: 0x00EA [0x5B] LOAD_EXT_SCHEDULER: Load scheduler "ohhl" with entities [EventEntity, EventEntity], work=2760*
  1: 0x00F9 [0x00] END_REQSTACK()
```

### Event 65535.11

#### Metadata

| Field        | Value    |
|--------------|----------|
| Entrypoint   | 0x00FA   |
| Data Size    | 10 bytes |
| Instructions | 2        |

```
      00 01 02 03 04 05 06 07  08 09 0A 0B 0C 0D 0E 0F
      -- -- -- -- -- -- -- --  -- -- -- -- -- -- -- --
00F0:                                37 15 80 16 80 01            7.....
0100: 80 17 80 00                                       ....            
```

#### Opcodes

```
  0: 0x00FA [0x37] UPDATE_EVENT_POSITION_AND_DIR: x=-43.658*, z=106.955*, y=0.000*, direction=2.5째*
  1: 0x0103 [0x00] END_REQSTACK()
```
