# 17445217

## Common Data

| Field            | Value                         |
|------------------|-------------------------------|
| Zone             | Sacrificial Chamber (ID: 163) |
| Block Size       | 2532 bytes                    |
| Total Events     | 68                            |
| References Count | 31                            |

## List of Events

| Event ID                   | Entrypoint   |   Size |   Instructions |
|----------------------------|--------------|--------|----------------|
| [65535](#event-65535)      | 0x0000       |      1 |              1 |
| [65535.1](#event-655351)   | 0x0001       |     39 |              6 |
| [65535.2](#event-655352)   | 0x0028       |     10 |              2 |
| [65535.3](#event-655353)   | 0x0032       |     18 |              2 |
| [65535.4](#event-655354)   | 0x0044       |     18 |              2 |
| [65535.5](#event-655355)   | 0x0056       |     21 |              3 |
| [65535.6](#event-655356)   | 0x006B       |     18 |              2 |
| [65535.7](#event-655357)   | 0x007D       |     18 |              2 |
| [65535.8](#event-655358)   | 0x008F       |     18 |              2 |
| [65535.9](#event-655359)   | 0x00A1       |     18 |              2 |
| [65535.10](#event-6553510) | 0x00B3       |     18 |              2 |
| [65535.11](#event-6553511) | 0x00C5       |     18 |              2 |
| [65535.12](#event-6553512) | 0x00D7       |     18 |              2 |
| [65535.13](#event-6553513) | 0x00E9       |     18 |              2 |
| [65535.14](#event-6553514) | 0x00FB       |     18 |              2 |
| [65535.15](#event-6553515) | 0x010D       |     18 |              2 |
| [65535.16](#event-6553516) | 0x011F       |     18 |              2 |
| [65535.17](#event-6553517) | 0x0131       |     18 |              2 |
| [65535.18](#event-6553518) | 0x0143       |     18 |              2 |
| [65535.19](#event-6553519) | 0x0155       |     18 |              2 |
| [65535.20](#event-6553520) | 0x0167       |     18 |              2 |
| [65535.21](#event-6553521) | 0x0179       |     18 |              2 |
| [65535.22](#event-6553522) | 0x018B       |     18 |              2 |
| [65535.23](#event-6553523) | 0x019D       |     18 |              2 |
| [65535.24](#event-6553524) | 0x01AF       |     18 |              2 |
| [65535.25](#event-6553525) | 0x01C1       |     21 |              3 |
| [65535.26](#event-6553526) | 0x01D6       |     18 |              2 |
| [65535.27](#event-6553527) | 0x01E8       |     18 |              2 |
| [65535.28](#event-6553528) | 0x01FA       |     18 |              2 |
| [65535.29](#event-6553529) | 0x020C       |     18 |              2 |
| [65535.30](#event-6553530) | 0x021E       |     18 |              2 |
| [65535.31](#event-6553531) | 0x0230       |     18 |              2 |
| [65535.32](#event-6553532) | 0x0242       |     18 |              2 |
| [65535.33](#event-6553533) | 0x0254       |     18 |              2 |
| [65535.34](#event-6553534) | 0x0266       |     18 |              2 |
| [65535.35](#event-6553535) | 0x0278       |     18 |              2 |
| [65535.36](#event-6553536) | 0x028A       |     18 |              2 |
| [65535.37](#event-6553537) | 0x029C       |     18 |              2 |
| [65535.38](#event-6553538) | 0x02AE       |     18 |              2 |
| [65535.39](#event-6553539) | 0x02C0       |     18 |              2 |
| [65535.40](#event-6553540) | 0x02D2       |     18 |              2 |
| [65535.41](#event-6553541) | 0x02E4       |     18 |              2 |
| [65535.42](#event-6553542) | 0x02F6       |     18 |              2 |
| [65535.43](#event-6553543) | 0x0308       |     18 |              2 |
| [65535.44](#event-6553544) | 0x031A       |     18 |              2 |
| [5](#event-5)              | 0x032C       |      1 |              1 |
| [65535.45](#event-6553545) | 0x032D       |     18 |              2 |
| [65535.46](#event-6553546) | 0x033F       |     21 |              3 |
| [65535.47](#event-6553547) | 0x0354       |     21 |              3 |
| [65535.48](#event-6553548) | 0x0369       |     21 |              3 |
| [65535.49](#event-6553549) | 0x037E       |     18 |              2 |
| [65535.50](#event-6553550) | 0x0390       |     21 |              3 |
| [65535.51](#event-6553551) | 0x03A5       |     21 |              3 |
| [65535.52](#event-6553552) | 0x03BA       |     18 |              2 |
| [65535.53](#event-6553553) | 0x03CC       |     18 |              2 |
| [65535.54](#event-6553554) | 0x03DE       |     35 |              3 |
| [65535.55](#event-6553555) | 0x0401       |     81 |              9 |
| [65535.56](#event-6553556) | 0x0452       |     41 |              5 |
| [65535.57](#event-6553557) | 0x047B       |    121 |             13 |
| [65535.58](#event-6553558) | 0x04F4       |     81 |              9 |
| [65535.59](#event-6553559) | 0x0545       |     81 |              9 |
| [65535.60](#event-6553560) | 0x0596       |     81 |              9 |
| [65535.61](#event-6553561) | 0x05E7       |     81 |              9 |
| [65535.62](#event-6553562) | 0x0638       |     41 |              5 |
| [65535.63](#event-6553563) | 0x0661       |     41 |              5 |
| [65535.64](#event-6553564) | 0x068A       |    121 |             13 |
| [65535.65](#event-6553565) | 0x0703       |    121 |             13 |
| [65535.66](#event-6553566) | 0x077C       |    201 |             21 |

## DAT References (imed_data)

|   Index | Hex Value   |   Dec Value |
|---------|-------------|-------------|
|       0 | 0x0000      |           0 |
|       1 | 0x00C4      |         196 |
|       2 | 0x00C7      |         199 |
|       3 | 0x001E      |          30 |
|       4 | 0x00BC      |         188 |
|       5 | 0x0032      |          50 |
|       6 | 0x00CD      |         205 |
|       7 | 0x00C2      |         194 |
|       8 | 0x00C8      |         200 |
|       9 | 0x0140      |         320 |
|      10 | 0x003C      |          60 |
|      11 | 0x007F      |         127 |
|      12 | 0x00B4      |         180 |
|      13 | 0x00A0      |         160 |
|      14 | 0x0050      |          80 |
|      15 | 0x002D      |          45 |
|      16 | 0x005A      |          90 |
|      17 | 0x0096      |         150 |
|      18 | 0x006E      |         110 |
|      19 | 0x0028      |          40 |
|      20 | 0x0064      |         100 |
|      21 | 0x00AA      |         170 |
|      22 | 0x0078      |         120 |
|      23 | 0x0046      |          70 |
|      24 | 0x00E6      |         230 |
|      25 | 0x00EB      |         235 |
|      26 | 0x000A      |          10 |
|      27 | 0x0168      |         360 |
|      28 | 0x0073      |         115 |
|      29 | 0x000F      |          15 |
|      30 | 0x0014      |          20 |

## Events

### Event 65535

#### Metadata

| Field        | Value   |
|--------------|---------|
| Entrypoint   | 0x0000  |
| Data Size    | 1 bytes |
| Instructions | 1       |

```
      00 01 02 03 04 05 06 07  08 09 0A 0B 0C 0D 0E 0F
      -- -- -- -- -- -- -- --  -- -- -- -- -- -- -- --
0000: 00                                                .               
```

#### Opcodes

```
  0: 0x0000 [0x00] END_REQSTACK()
```

### Event 65535.1

#### Metadata

| Field        | Value    |
|--------------|----------|
| Entrypoint   | 0x0001   |
| Data Size    | 39 bytes |
| Instructions | 6        |

```
      00 01 02 03 04 05 06 07  08 09 0A 0B 0C 0D 0E 0F
      -- -- -- -- -- -- -- --  -- -- -- -- -- -- -- --
0000:    B4 00 00 00 3F 3F 3F  00 00 00 00 00 00 00 00   ....???........
0010: 00 00 00 00 00 B5 00 00  00 22 00 92 01 F8 FF FF  ........."......
0020: 7F 94 01 F8 FF FF 7F 00                           ........        
```

#### Opcodes

```
  0: 0x0001 [0xB4] UI_WINDOW_STRING_HANDLER(case=0x00 - Copy string from opcode, work_offset=ExtData[1]->WorkLocal[0], string="???")
  1: 0x0015 [0xB5] SET_EVENT_ENTITY_NAME: Change EventEntity name to ExtData[1]->WorkLocal[0]
  2: 0x0019 [0x22] ENTITY_HIDE_FLAG(enabled=0x00)
  3: 0x001B [0x92] EventEntity->Render.Flags3 ^= 0x01
  4: 0x0021 [0x94] EventEntity->Render.Flags3 ^= 0x01
  5: 0x0027 [0x00] END_REQSTACK()
```

### Event 65535.2

#### Metadata

| Field        | Value    |
|--------------|----------|
| Entrypoint   | 0x0028   |
| Data Size    | 10 bytes |
| Instructions | 2        |

```
      00 01 02 03 04 05 06 07  08 09 0A 0B 0C 0D 0E 0F
      -- -- -- -- -- -- -- --  -- -- -- -- -- -- -- --
0020:                          6C F8 FF FF 7F 00 80 00          l.......
0030: 80 00                                             ..              
```

#### Opcodes

```
  0: 0x0028 [0x6C] FADE_ENTITY_COLOR(entity_id=EventEntity, end_alpha=0*, fade_time=0*)
  1: 0x0031 [0x00] END_REQSTACK()
```

### Event 65535.3

#### Metadata

| Field        | Value    |
|--------------|----------|
| Entrypoint   | 0x0032   |
| Data Size    | 18 bytes |
| Instructions | 2        |

```
      00 01 02 03 04 05 06 07  08 09 0A 0B 0C 0D 0E 0F
      -- -- -- -- -- -- -- --  -- -- -- -- -- -- -- --
0030:       C5 01 80 F8 FF FF  7F F8 FF FF 7F 73 30 30    ...........s00
0040: 30 00 80 00                                       0...            
```

#### Opcodes

```
  0: 0x0032 [0xC5] LOAD_SCHEDULED_TASK_ALT3: Load scheduler 0x80003030 for entities [EventEntity, EventEntity], work=196*, param=12403
  1: 0x0043 [0x00] END_REQSTACK()
```

### Event 65535.4

#### Metadata

| Field        | Value    |
|--------------|----------|
| Entrypoint   | 0x0044   |
| Data Size    | 18 bytes |
| Instructions | 2        |

```
      00 01 02 03 04 05 06 07  08 09 0A 0B 0C 0D 0E 0F
      -- -- -- -- -- -- -- --  -- -- -- -- -- -- -- --
0040:             C5 02 80 F8  FF FF 7F F8 FF FF 7F 73      ...........s
0050: 30 30 30 00 80 00                                 000...          
```

#### Opcodes

```
  0: 0x0044 [0xC5] LOAD_SCHEDULED_TASK_ALT3: Load scheduler 0x80003030 for entities [EventEntity, EventEntity], work=199*, param=12403
  1: 0x0055 [0x00] END_REQSTACK()
```

### Event 65535.5

#### Metadata

| Field        | Value    |
|--------------|----------|
| Entrypoint   | 0x0056   |
| Data Size    | 21 bytes |
| Instructions | 3        |

```
      00 01 02 03 04 05 06 07  08 09 0A 0B 0C 0D 0E 0F
      -- -- -- -- -- -- -- --  -- -- -- -- -- -- -- --
0050:                   C5 01  80 68 31 0A 01 68 31 0A        ...h1..h1.
0060: 01 73 30 30 31 00 80 1C  03 80 00                 .s001......     
```

#### Opcodes

```
  0: 0x0056 [0xC5] LOAD_SCHEDULED_TASK_ALT3: Load scheduler 0x80003130 for entities [1 (ID: 17445224/0x010A3168), 1 (ID: 17445224/0x010A3168)], work=196*, param=12403
  1: 0x0067 [0x1C] WAIT(30* ticks)
  2: 0x006A [0x00] END_REQSTACK()
```

### Event 65535.6

#### Metadata

| Field        | Value    |
|--------------|----------|
| Entrypoint   | 0x006B   |
| Data Size    | 18 bytes |
| Instructions | 2        |

```
      00 01 02 03 04 05 06 07  08 09 0A 0B 0C 0D 0E 0F
      -- -- -- -- -- -- -- --  -- -- -- -- -- -- -- --
0060:                                   C5 02 80 68 31             ...h1
0070: 0A 01 68 31 0A 01 73 30  30 31 00 80 00           ..h1..s001...   
```

#### Opcodes

```
  0: 0x006B [0xC5] LOAD_SCHEDULED_TASK_ALT3: Load scheduler 0x80003130 for entities [1 (ID: 17445224/0x010A3168), 1 (ID: 17445224/0x010A3168)], work=199*, param=12403
  1: 0x007C [0x00] END_REQSTACK()
```

### Event 65535.7

#### Metadata

| Field        | Value    |
|--------------|----------|
| Entrypoint   | 0x007D   |
| Data Size    | 18 bytes |
| Instructions | 2        |

```
      00 01 02 03 04 05 06 07  08 09 0A 0B 0C 0D 0E 0F
      -- -- -- -- -- -- -- --  -- -- -- -- -- -- -- --
0070:                                         C5 01 80               ...
0080: 69 31 0A 01 69 31 0A 01  73 30 30 31 00 80 00     i1..i1..s001... 
```

#### Opcodes

```
  0: 0x007D [0xC5] LOAD_SCHEDULED_TASK_ALT3: Load scheduler 0x80003130 for entities [2 (ID: 17445225/0x010A3169), 2 (ID: 17445225/0x010A3169)], work=196*, param=12403
  1: 0x008E [0x00] END_REQSTACK()
```

### Event 65535.8

#### Metadata

| Field        | Value    |
|--------------|----------|
| Entrypoint   | 0x008F   |
| Data Size    | 18 bytes |
| Instructions | 2        |

```
      00 01 02 03 04 05 06 07  08 09 0A 0B 0C 0D 0E 0F
      -- -- -- -- -- -- -- --  -- -- -- -- -- -- -- --
0080:                                               C5                 .
0090: 02 80 69 31 0A 01 69 31  0A 01 73 30 30 31 00 80  ..i1..i1..s001..
00A0: 00                                                .               
```

#### Opcodes

```
  0: 0x008F [0xC5] LOAD_SCHEDULED_TASK_ALT3: Load scheduler 0x80003130 for entities [2 (ID: 17445225/0x010A3169), 2 (ID: 17445225/0x010A3169)], work=199*, param=12403
  1: 0x00A0 [0x00] END_REQSTACK()
```

### Event 65535.9

#### Metadata

| Field        | Value    |
|--------------|----------|
| Entrypoint   | 0x00A1   |
| Data Size    | 18 bytes |
| Instructions | 2        |

```
      00 01 02 03 04 05 06 07  08 09 0A 0B 0C 0D 0E 0F
      -- -- -- -- -- -- -- --  -- -- -- -- -- -- -- --
00A0:    C5 01 80 6A 31 0A 01  6A 31 0A 01 73 30 30 31   ...j1..j1..s001
00B0: 00 80 00                                          ...             
```

#### Opcodes

```
  0: 0x00A1 [0xC5] LOAD_SCHEDULED_TASK_ALT3: Load scheduler 0x80003130 for entities [3 (ID: 17445226/0x010A316A), 3 (ID: 17445226/0x010A316A)], work=196*, param=12403
  1: 0x00B2 [0x00] END_REQSTACK()
```

### Event 65535.10

#### Metadata

| Field        | Value    |
|--------------|----------|
| Entrypoint   | 0x00B3   |
| Data Size    | 18 bytes |
| Instructions | 2        |

```
      00 01 02 03 04 05 06 07  08 09 0A 0B 0C 0D 0E 0F
      -- -- -- -- -- -- -- --  -- -- -- -- -- -- -- --
00B0:          C5 02 80 6A 31  0A 01 6A 31 0A 01 73 30     ...j1..j1..s0
00C0: 30 31 00 80 00                                    01...           
```

#### Opcodes

```
  0: 0x00B3 [0xC5] LOAD_SCHEDULED_TASK_ALT3: Load scheduler 0x80003130 for entities [3 (ID: 17445226/0x010A316A), 3 (ID: 17445226/0x010A316A)], work=199*, param=12403
  1: 0x00C4 [0x00] END_REQSTACK()
```

### Event 65535.11

#### Metadata

| Field        | Value    |
|--------------|----------|
| Entrypoint   | 0x00C5   |
| Data Size    | 18 bytes |
| Instructions | 2        |

```
      00 01 02 03 04 05 06 07  08 09 0A 0B 0C 0D 0E 0F
      -- -- -- -- -- -- -- --  -- -- -- -- -- -- -- --
00C0:                C5 01 80  6B 31 0A 01 6B 31 0A 01       ...k1..k1..
00D0: 73 30 30 31 00 80 00                              s001...         
```

#### Opcodes

```
  0: 0x00C5 [0xC5] LOAD_SCHEDULED_TASK_ALT3: Load scheduler 0x80003130 for entities [4 (ID: 17445227/0x010A316B), 4 (ID: 17445227/0x010A316B)], work=196*, param=12403
  1: 0x00D6 [0x00] END_REQSTACK()
```

### Event 65535.12

#### Metadata

| Field        | Value    |
|--------------|----------|
| Entrypoint   | 0x00D7   |
| Data Size    | 18 bytes |
| Instructions | 2        |

```
      00 01 02 03 04 05 06 07  08 09 0A 0B 0C 0D 0E 0F
      -- -- -- -- -- -- -- --  -- -- -- -- -- -- -- --
00D0:                      C5  02 80 6B 31 0A 01 6B 31         ...k1..k1
00E0: 0A 01 73 30 30 31 00 80  00                       ..s001...       
```

#### Opcodes

```
  0: 0x00D7 [0xC5] LOAD_SCHEDULED_TASK_ALT3: Load scheduler 0x80003130 for entities [4 (ID: 17445227/0x010A316B), 4 (ID: 17445227/0x010A316B)], work=199*, param=12403
  1: 0x00E8 [0x00] END_REQSTACK()
```

### Event 65535.13

#### Metadata

| Field        | Value    |
|--------------|----------|
| Entrypoint   | 0x00E9   |
| Data Size    | 18 bytes |
| Instructions | 2        |

```
      00 01 02 03 04 05 06 07  08 09 0A 0B 0C 0D 0E 0F
      -- -- -- -- -- -- -- --  -- -- -- -- -- -- -- --
00E0:                             C5 01 80 6C 31 0A 01           ...l1..
00F0: 6C 31 0A 01 73 30 30 31  00 80 00                 l1..s001...     
```

#### Opcodes

```
  0: 0x00E9 [0xC5] LOAD_SCHEDULED_TASK_ALT3: Load scheduler 0x80003130 for entities [5 (ID: 17445228/0x010A316C), 5 (ID: 17445228/0x010A316C)], work=196*, param=12403
  1: 0x00FA [0x00] END_REQSTACK()
```

### Event 65535.14

#### Metadata

| Field        | Value    |
|--------------|----------|
| Entrypoint   | 0x00FB   |
| Data Size    | 18 bytes |
| Instructions | 2        |

```
      00 01 02 03 04 05 06 07  08 09 0A 0B 0C 0D 0E 0F
      -- -- -- -- -- -- -- --  -- -- -- -- -- -- -- --
00F0:                                   C5 02 80 6C 31             ...l1
0100: 0A 01 6C 31 0A 01 73 30  30 31 00 80 00           ..l1..s001...   
```

#### Opcodes

```
  0: 0x00FB [0xC5] LOAD_SCHEDULED_TASK_ALT3: Load scheduler 0x80003130 for entities [5 (ID: 17445228/0x010A316C), 5 (ID: 17445228/0x010A316C)], work=199*, param=12403
  1: 0x010C [0x00] END_REQSTACK()
```

### Event 65535.15

#### Metadata

| Field        | Value    |
|--------------|----------|
| Entrypoint   | 0x010D   |
| Data Size    | 18 bytes |
| Instructions | 2        |

```
      00 01 02 03 04 05 06 07  08 09 0A 0B 0C 0D 0E 0F
      -- -- -- -- -- -- -- --  -- -- -- -- -- -- -- --
0100:                                         C5 01 80               ...
0110: 6D 31 0A 01 6D 31 0A 01  73 30 30 31 00 80 00     m1..m1..s001... 
```

#### Opcodes

```
  0: 0x010D [0xC5] LOAD_SCHEDULED_TASK_ALT3: Load scheduler 0x80003130 for entities [6 (ID: 17445229/0x010A316D), 6 (ID: 17445229/0x010A316D)], work=196*, param=12403
  1: 0x011E [0x00] END_REQSTACK()
```

### Event 65535.16

#### Metadata

| Field        | Value    |
|--------------|----------|
| Entrypoint   | 0x011F   |
| Data Size    | 18 bytes |
| Instructions | 2        |

```
      00 01 02 03 04 05 06 07  08 09 0A 0B 0C 0D 0E 0F
      -- -- -- -- -- -- -- --  -- -- -- -- -- -- -- --
0110:                                               C5                 .
0120: 02 80 6D 31 0A 01 6D 31  0A 01 73 30 30 31 00 80  ..m1..m1..s001..
0130: 00                                                .               
```

#### Opcodes

```
  0: 0x011F [0xC5] LOAD_SCHEDULED_TASK_ALT3: Load scheduler 0x80003130 for entities [6 (ID: 17445229/0x010A316D), 6 (ID: 17445229/0x010A316D)], work=199*, param=12403
  1: 0x0130 [0x00] END_REQSTACK()
```

### Event 65535.17

#### Metadata

| Field        | Value    |
|--------------|----------|
| Entrypoint   | 0x0131   |
| Data Size    | 18 bytes |
| Instructions | 2        |

```
      00 01 02 03 04 05 06 07  08 09 0A 0B 0C 0D 0E 0F
      -- -- -- -- -- -- -- --  -- -- -- -- -- -- -- --
0130:    C5 01 80 6E 31 0A 01  6E 31 0A 01 73 30 30 31   ...n1..n1..s001
0140: 00 80 00                                          ...             
```

#### Opcodes

```
  0: 0x0131 [0xC5] LOAD_SCHEDULED_TASK_ALT3: Load scheduler 0x80003130 for entities [7 (ID: 17445230/0x010A316E), 7 (ID: 17445230/0x010A316E)], work=196*, param=12403
  1: 0x0142 [0x00] END_REQSTACK()
```

### Event 65535.18

#### Metadata

| Field        | Value    |
|--------------|----------|
| Entrypoint   | 0x0143   |
| Data Size    | 18 bytes |
| Instructions | 2        |

```
      00 01 02 03 04 05 06 07  08 09 0A 0B 0C 0D 0E 0F
      -- -- -- -- -- -- -- --  -- -- -- -- -- -- -- --
0140:          C5 02 80 6E 31  0A 01 6E 31 0A 01 73 30     ...n1..n1..s0
0150: 30 31 00 80 00                                    01...           
```

#### Opcodes

```
  0: 0x0143 [0xC5] LOAD_SCHEDULED_TASK_ALT3: Load scheduler 0x80003130 for entities [7 (ID: 17445230/0x010A316E), 7 (ID: 17445230/0x010A316E)], work=199*, param=12403
  1: 0x0154 [0x00] END_REQSTACK()
```

### Event 65535.19

#### Metadata

| Field        | Value    |
|--------------|----------|
| Entrypoint   | 0x0155   |
| Data Size    | 18 bytes |
| Instructions | 2        |

```
      00 01 02 03 04 05 06 07  08 09 0A 0B 0C 0D 0E 0F
      -- -- -- -- -- -- -- --  -- -- -- -- -- -- -- --
0150:                C5 01 80  6F 31 0A 01 6F 31 0A 01       ...o1..o1..
0160: 73 30 30 31 00 80 00                              s001...         
```

#### Opcodes

```
  0: 0x0155 [0xC5] LOAD_SCHEDULED_TASK_ALT3: Load scheduler 0x80003130 for entities [8 (ID: 17445231/0x010A316F), 8 (ID: 17445231/0x010A316F)], work=196*, param=12403
  1: 0x0166 [0x00] END_REQSTACK()
```

### Event 65535.20

#### Metadata

| Field        | Value    |
|--------------|----------|
| Entrypoint   | 0x0167   |
| Data Size    | 18 bytes |
| Instructions | 2        |

```
      00 01 02 03 04 05 06 07  08 09 0A 0B 0C 0D 0E 0F
      -- -- -- -- -- -- -- --  -- -- -- -- -- -- -- --
0160:                      C5  02 80 6F 31 0A 01 6F 31         ...o1..o1
0170: 0A 01 73 30 30 31 00 80  00                       ..s001...       
```

#### Opcodes

```
  0: 0x0167 [0xC5] LOAD_SCHEDULED_TASK_ALT3: Load scheduler 0x80003130 for entities [8 (ID: 17445231/0x010A316F), 8 (ID: 17445231/0x010A316F)], work=199*, param=12403
  1: 0x0178 [0x00] END_REQSTACK()
```

### Event 65535.21

#### Metadata

| Field        | Value    |
|--------------|----------|
| Entrypoint   | 0x0179   |
| Data Size    | 18 bytes |
| Instructions | 2        |

```
      00 01 02 03 04 05 06 07  08 09 0A 0B 0C 0D 0E 0F
      -- -- -- -- -- -- -- --  -- -- -- -- -- -- -- --
0170:                             C5 01 80 70 31 0A 01           ...p1..
0180: 70 31 0A 01 73 30 30 31  00 80 00                 p1..s001...     
```

#### Opcodes

```
  0: 0x0179 [0xC5] LOAD_SCHEDULED_TASK_ALT3: Load scheduler 0x80003130 for entities [9 (ID: 17445232/0x010A3170), 9 (ID: 17445232/0x010A3170)], work=196*, param=12403
  1: 0x018A [0x00] END_REQSTACK()
```

### Event 65535.22

#### Metadata

| Field        | Value    |
|--------------|----------|
| Entrypoint   | 0x018B   |
| Data Size    | 18 bytes |
| Instructions | 2        |

```
      00 01 02 03 04 05 06 07  08 09 0A 0B 0C 0D 0E 0F
      -- -- -- -- -- -- -- --  -- -- -- -- -- -- -- --
0180:                                   C5 02 80 70 31             ...p1
0190: 0A 01 70 31 0A 01 73 30  30 31 00 80 00           ..p1..s001...   
```

#### Opcodes

```
  0: 0x018B [0xC5] LOAD_SCHEDULED_TASK_ALT3: Load scheduler 0x80003130 for entities [9 (ID: 17445232/0x010A3170), 9 (ID: 17445232/0x010A3170)], work=199*, param=12403
  1: 0x019C [0x00] END_REQSTACK()
```

### Event 65535.23

#### Metadata

| Field        | Value    |
|--------------|----------|
| Entrypoint   | 0x019D   |
| Data Size    | 18 bytes |
| Instructions | 2        |

```
      00 01 02 03 04 05 06 07  08 09 0A 0B 0C 0D 0E 0F
      -- -- -- -- -- -- -- --  -- -- -- -- -- -- -- --
0190:                                         C5 01 80               ...
01A0: 71 31 0A 01 71 31 0A 01  73 30 30 31 00 80 00     q1..q1..s001... 
```

#### Opcodes

```
  0: 0x019D [0xC5] LOAD_SCHEDULED_TASK_ALT3: Load scheduler 0x80003130 for entities [10 (ID: 17445233/0x010A3171), 10 (ID: 17445233/0x010A3171)], work=196*, param=12403
  1: 0x01AE [0x00] END_REQSTACK()
```

### Event 65535.24

#### Metadata

| Field        | Value    |
|--------------|----------|
| Entrypoint   | 0x01AF   |
| Data Size    | 18 bytes |
| Instructions | 2        |

```
      00 01 02 03 04 05 06 07  08 09 0A 0B 0C 0D 0E 0F
      -- -- -- -- -- -- -- --  -- -- -- -- -- -- -- --
01A0:                                               C5                 .
01B0: 02 80 71 31 0A 01 71 31  0A 01 73 30 30 31 00 80  ..q1..q1..s001..
01C0: 00                                                .               
```

#### Opcodes

```
  0: 0x01AF [0xC5] LOAD_SCHEDULED_TASK_ALT3: Load scheduler 0x80003130 for entities [10 (ID: 17445233/0x010A3171), 10 (ID: 17445233/0x010A3171)], work=199*, param=12403
  1: 0x01C0 [0x00] END_REQSTACK()
```

### Event 65535.25

#### Metadata

| Field        | Value    |
|--------------|----------|
| Entrypoint   | 0x01C1   |
| Data Size    | 21 bytes |
| Instructions | 3        |

```
      00 01 02 03 04 05 06 07  08 09 0A 0B 0C 0D 0E 0F
      -- -- -- -- -- -- -- --  -- -- -- -- -- -- -- --
01C0:    C5 01 80 72 31 0A 01  72 31 0A 01 73 30 30 31   ...r1..r1..s001
01D0: 00 80 1C 03 80 00                                 ......          
```

#### Opcodes

```
  0: 0x01C1 [0xC5] LOAD_SCHEDULED_TASK_ALT3: Load scheduler 0x80003130 for entities [11 (ID: 17445234/0x010A3172), 11 (ID: 17445234/0x010A3172)], work=196*, param=12403
  1: 0x01D2 [0x1C] WAIT(30* ticks)
  2: 0x01D5 [0x00] END_REQSTACK()
```

### Event 65535.26

#### Metadata

| Field        | Value    |
|--------------|----------|
| Entrypoint   | 0x01D6   |
| Data Size    | 18 bytes |
| Instructions | 2        |

```
      00 01 02 03 04 05 06 07  08 09 0A 0B 0C 0D 0E 0F
      -- -- -- -- -- -- -- --  -- -- -- -- -- -- -- --
01D0:                   C5 02  80 72 31 0A 01 72 31 0A        ...r1..r1.
01E0: 01 73 30 30 31 00 80 00                           .s001...        
```

#### Opcodes

```
  0: 0x01D6 [0xC5] LOAD_SCHEDULED_TASK_ALT3: Load scheduler 0x80003130 for entities [11 (ID: 17445234/0x010A3172), 11 (ID: 17445234/0x010A3172)], work=199*, param=12403
  1: 0x01E7 [0x00] END_REQSTACK()
```

### Event 65535.27

#### Metadata

| Field        | Value    |
|--------------|----------|
| Entrypoint   | 0x01E8   |
| Data Size    | 18 bytes |
| Instructions | 2        |

```
      00 01 02 03 04 05 06 07  08 09 0A 0B 0C 0D 0E 0F
      -- -- -- -- -- -- -- --  -- -- -- -- -- -- -- --
01E0:                          C5 01 80 73 31 0A 01 73          ...s1..s
01F0: 31 0A 01 73 30 30 31 00  80 00                    1..s001...      
```

#### Opcodes

```
  0: 0x01E8 [0xC5] LOAD_SCHEDULED_TASK_ALT3: Load scheduler 0x80003130 for entities [12 (ID: 17445235/0x010A3173), 12 (ID: 17445235/0x010A3173)], work=196*, param=12403
  1: 0x01F9 [0x00] END_REQSTACK()
```

### Event 65535.28

#### Metadata

| Field        | Value    |
|--------------|----------|
| Entrypoint   | 0x01FA   |
| Data Size    | 18 bytes |
| Instructions | 2        |

```
      00 01 02 03 04 05 06 07  08 09 0A 0B 0C 0D 0E 0F
      -- -- -- -- -- -- -- --  -- -- -- -- -- -- -- --
01F0:                                C5 02 80 73 31 0A            ...s1.
0200: 01 73 31 0A 01 73 30 30  31 00 80 00              .s1..s001...    
```

#### Opcodes

```
  0: 0x01FA [0xC5] LOAD_SCHEDULED_TASK_ALT3: Load scheduler 0x80003130 for entities [12 (ID: 17445235/0x010A3173), 12 (ID: 17445235/0x010A3173)], work=199*, param=12403
  1: 0x020B [0x00] END_REQSTACK()
```

### Event 65535.29

#### Metadata

| Field        | Value    |
|--------------|----------|
| Entrypoint   | 0x020C   |
| Data Size    | 18 bytes |
| Instructions | 2        |

```
      00 01 02 03 04 05 06 07  08 09 0A 0B 0C 0D 0E 0F
      -- -- -- -- -- -- -- --  -- -- -- -- -- -- -- --
0200:                                      C5 01 80 74              ...t
0210: 31 0A 01 74 31 0A 01 73  30 30 31 00 80 00        1..t1..s001...  
```

#### Opcodes

```
  0: 0x020C [0xC5] LOAD_SCHEDULED_TASK_ALT3: Load scheduler 0x80003130 for entities [13 (ID: 17445236/0x010A3174), 13 (ID: 17445236/0x010A3174)], work=196*, param=12403
  1: 0x021D [0x00] END_REQSTACK()
```

### Event 65535.30

#### Metadata

| Field        | Value    |
|--------------|----------|
| Entrypoint   | 0x021E   |
| Data Size    | 18 bytes |
| Instructions | 2        |

```
      00 01 02 03 04 05 06 07  08 09 0A 0B 0C 0D 0E 0F
      -- -- -- -- -- -- -- --  -- -- -- -- -- -- -- --
0210:                                            C5 02                ..
0220: 80 74 31 0A 01 74 31 0A  01 73 30 30 31 00 80 00  .t1..t1..s001...
```

#### Opcodes

```
  0: 0x021E [0xC5] LOAD_SCHEDULED_TASK_ALT3: Load scheduler 0x80003130 for entities [13 (ID: 17445236/0x010A3174), 13 (ID: 17445236/0x010A3174)], work=199*, param=12403
  1: 0x022F [0x00] END_REQSTACK()
```

### Event 65535.31

#### Metadata

| Field        | Value    |
|--------------|----------|
| Entrypoint   | 0x0230   |
| Data Size    | 18 bytes |
| Instructions | 2        |

```
      00 01 02 03 04 05 06 07  08 09 0A 0B 0C 0D 0E 0F
      -- -- -- -- -- -- -- --  -- -- -- -- -- -- -- --
0230: C5 01 80 75 31 0A 01 75  31 0A 01 73 30 30 31 00  ...u1..u1..s001.
0240: 80 00                                             ..              
```

#### Opcodes

```
  0: 0x0230 [0xC5] LOAD_SCHEDULED_TASK_ALT3: Load scheduler 0x80003130 for entities [14 (ID: 17445237/0x010A3175), 14 (ID: 17445237/0x010A3175)], work=196*, param=12403
  1: 0x0241 [0x00] END_REQSTACK()
```

### Event 65535.32

#### Metadata

| Field        | Value    |
|--------------|----------|
| Entrypoint   | 0x0242   |
| Data Size    | 18 bytes |
| Instructions | 2        |

```
      00 01 02 03 04 05 06 07  08 09 0A 0B 0C 0D 0E 0F
      -- -- -- -- -- -- -- --  -- -- -- -- -- -- -- --
0240:       C5 02 80 75 31 0A  01 75 31 0A 01 73 30 30    ...u1..u1..s00
0250: 31 00 80 00                                       1...            
```

#### Opcodes

```
  0: 0x0242 [0xC5] LOAD_SCHEDULED_TASK_ALT3: Load scheduler 0x80003130 for entities [14 (ID: 17445237/0x010A3175), 14 (ID: 17445237/0x010A3175)], work=199*, param=12403
  1: 0x0253 [0x00] END_REQSTACK()
```

### Event 65535.33

#### Metadata

| Field        | Value    |
|--------------|----------|
| Entrypoint   | 0x0254   |
| Data Size    | 18 bytes |
| Instructions | 2        |

```
      00 01 02 03 04 05 06 07  08 09 0A 0B 0C 0D 0E 0F
      -- -- -- -- -- -- -- --  -- -- -- -- -- -- -- --
0250:             C5 01 80 76  31 0A 01 76 31 0A 01 73      ...v1..v1..s
0260: 30 30 31 00 80 00                                 001...          
```

#### Opcodes

```
  0: 0x0254 [0xC5] LOAD_SCHEDULED_TASK_ALT3: Load scheduler 0x80003130 for entities [15 (ID: 17445238/0x010A3176), 15 (ID: 17445238/0x010A3176)], work=196*, param=12403
  1: 0x0265 [0x00] END_REQSTACK()
```

### Event 65535.34

#### Metadata

| Field        | Value    |
|--------------|----------|
| Entrypoint   | 0x0266   |
| Data Size    | 18 bytes |
| Instructions | 2        |

```
      00 01 02 03 04 05 06 07  08 09 0A 0B 0C 0D 0E 0F
      -- -- -- -- -- -- -- --  -- -- -- -- -- -- -- --
0260:                   C5 02  80 76 31 0A 01 76 31 0A        ...v1..v1.
0270: 01 73 30 30 31 00 80 00                           .s001...        
```

#### Opcodes

```
  0: 0x0266 [0xC5] LOAD_SCHEDULED_TASK_ALT3: Load scheduler 0x80003130 for entities [15 (ID: 17445238/0x010A3176), 15 (ID: 17445238/0x010A3176)], work=199*, param=12403
  1: 0x0277 [0x00] END_REQSTACK()
```

### Event 65535.35

#### Metadata

| Field        | Value    |
|--------------|----------|
| Entrypoint   | 0x0278   |
| Data Size    | 18 bytes |
| Instructions | 2        |

```
      00 01 02 03 04 05 06 07  08 09 0A 0B 0C 0D 0E 0F
      -- -- -- -- -- -- -- --  -- -- -- -- -- -- -- --
0270:                          C5 01 80 77 31 0A 01 77          ...w1..w
0280: 31 0A 01 73 30 30 31 00  80 00                    1..s001...      
```

#### Opcodes

```
  0: 0x0278 [0xC5] LOAD_SCHEDULED_TASK_ALT3: Load scheduler 0x80003130 for entities [16 (ID: 17445239/0x010A3177), 16 (ID: 17445239/0x010A3177)], work=196*, param=12403
  1: 0x0289 [0x00] END_REQSTACK()
```

### Event 65535.36

#### Metadata

| Field        | Value    |
|--------------|----------|
| Entrypoint   | 0x028A   |
| Data Size    | 18 bytes |
| Instructions | 2        |

```
      00 01 02 03 04 05 06 07  08 09 0A 0B 0C 0D 0E 0F
      -- -- -- -- -- -- -- --  -- -- -- -- -- -- -- --
0280:                                C5 02 80 77 31 0A            ...w1.
0290: 01 77 31 0A 01 73 30 30  31 00 80 00              .w1..s001...    
```

#### Opcodes

```
  0: 0x028A [0xC5] LOAD_SCHEDULED_TASK_ALT3: Load scheduler 0x80003130 for entities [16 (ID: 17445239/0x010A3177), 16 (ID: 17445239/0x010A3177)], work=199*, param=12403
  1: 0x029B [0x00] END_REQSTACK()
```

### Event 65535.37

#### Metadata

| Field        | Value    |
|--------------|----------|
| Entrypoint   | 0x029C   |
| Data Size    | 18 bytes |
| Instructions | 2        |

```
      00 01 02 03 04 05 06 07  08 09 0A 0B 0C 0D 0E 0F
      -- -- -- -- -- -- -- --  -- -- -- -- -- -- -- --
0290:                                      C5 01 80 78              ...x
02A0: 31 0A 01 78 31 0A 01 73  30 30 31 00 80 00        1..x1..s001...  
```

#### Opcodes

```
  0: 0x029C [0xC5] LOAD_SCHEDULED_TASK_ALT3: Load scheduler 0x80003130 for entities [17 (ID: 17445240/0x010A3178), 17 (ID: 17445240/0x010A3178)], work=196*, param=12403
  1: 0x02AD [0x00] END_REQSTACK()
```

### Event 65535.38

#### Metadata

| Field        | Value    |
|--------------|----------|
| Entrypoint   | 0x02AE   |
| Data Size    | 18 bytes |
| Instructions | 2        |

```
      00 01 02 03 04 05 06 07  08 09 0A 0B 0C 0D 0E 0F
      -- -- -- -- -- -- -- --  -- -- -- -- -- -- -- --
02A0:                                            C5 02                ..
02B0: 80 78 31 0A 01 78 31 0A  01 73 30 30 31 00 80 00  .x1..x1..s001...
```

#### Opcodes

```
  0: 0x02AE [0xC5] LOAD_SCHEDULED_TASK_ALT3: Load scheduler 0x80003130 for entities [17 (ID: 17445240/0x010A3178), 17 (ID: 17445240/0x010A3178)], work=199*, param=12403
  1: 0x02BF [0x00] END_REQSTACK()
```

### Event 65535.39

#### Metadata

| Field        | Value    |
|--------------|----------|
| Entrypoint   | 0x02C0   |
| Data Size    | 18 bytes |
| Instructions | 2        |

```
      00 01 02 03 04 05 06 07  08 09 0A 0B 0C 0D 0E 0F
      -- -- -- -- -- -- -- --  -- -- -- -- -- -- -- --
02C0: C5 01 80 79 31 0A 01 79  31 0A 01 73 30 30 31 00  ...y1..y1..s001.
02D0: 80 00                                             ..              
```

#### Opcodes

```
  0: 0x02C0 [0xC5] LOAD_SCHEDULED_TASK_ALT3: Load scheduler 0x80003130 for entities [18 (ID: 17445241/0x010A3179), 18 (ID: 17445241/0x010A3179)], work=196*, param=12403
  1: 0x02D1 [0x00] END_REQSTACK()
```

### Event 65535.40

#### Metadata

| Field        | Value    |
|--------------|----------|
| Entrypoint   | 0x02D2   |
| Data Size    | 18 bytes |
| Instructions | 2        |

```
      00 01 02 03 04 05 06 07  08 09 0A 0B 0C 0D 0E 0F
      -- -- -- -- -- -- -- --  -- -- -- -- -- -- -- --
02D0:       C5 02 80 79 31 0A  01 79 31 0A 01 73 30 30    ...y1..y1..s00
02E0: 31 00 80 00                                       1...            
```

#### Opcodes

```
  0: 0x02D2 [0xC5] LOAD_SCHEDULED_TASK_ALT3: Load scheduler 0x80003130 for entities [18 (ID: 17445241/0x010A3179), 18 (ID: 17445241/0x010A3179)], work=199*, param=12403
  1: 0x02E3 [0x00] END_REQSTACK()
```

### Event 65535.41

#### Metadata

| Field        | Value    |
|--------------|----------|
| Entrypoint   | 0x02E4   |
| Data Size    | 18 bytes |
| Instructions | 2        |

```
      00 01 02 03 04 05 06 07  08 09 0A 0B 0C 0D 0E 0F
      -- -- -- -- -- -- -- --  -- -- -- -- -- -- -- --
02E0:             C5 01 80 7A  31 0A 01 7A 31 0A 01 73      ...z1..z1..s
02F0: 30 30 31 00 80 00                                 001...          
```

#### Opcodes

```
  0: 0x02E4 [0xC5] LOAD_SCHEDULED_TASK_ALT3: Load scheduler 0x80003130 for entities [19 (ID: 17445242/0x010A317A), 19 (ID: 17445242/0x010A317A)], work=196*, param=12403
  1: 0x02F5 [0x00] END_REQSTACK()
```

### Event 65535.42

#### Metadata

| Field        | Value    |
|--------------|----------|
| Entrypoint   | 0x02F6   |
| Data Size    | 18 bytes |
| Instructions | 2        |

```
      00 01 02 03 04 05 06 07  08 09 0A 0B 0C 0D 0E 0F
      -- -- -- -- -- -- -- --  -- -- -- -- -- -- -- --
02F0:                   C5 02  80 7A 31 0A 01 7A 31 0A        ...z1..z1.
0300: 01 73 30 30 31 00 80 00                           .s001...        
```

#### Opcodes

```
  0: 0x02F6 [0xC5] LOAD_SCHEDULED_TASK_ALT3: Load scheduler 0x80003130 for entities [19 (ID: 17445242/0x010A317A), 19 (ID: 17445242/0x010A317A)], work=199*, param=12403
  1: 0x0307 [0x00] END_REQSTACK()
```

### Event 65535.43

#### Metadata

| Field        | Value    |
|--------------|----------|
| Entrypoint   | 0x0308   |
| Data Size    | 18 bytes |
| Instructions | 2        |

```
      00 01 02 03 04 05 06 07  08 09 0A 0B 0C 0D 0E 0F
      -- -- -- -- -- -- -- --  -- -- -- -- -- -- -- --
0300:                          C5 01 80 7B 31 0A 01 7B          ...{1..{
0310: 31 0A 01 73 30 30 31 00  80 00                    1..s001...      
```

#### Opcodes

```
  0: 0x0308 [0xC5] LOAD_SCHEDULED_TASK_ALT3: Load scheduler 0x80003130 for entities [20 (ID: 17445243/0x010A317B), 20 (ID: 17445243/0x010A317B)], work=196*, param=12403
  1: 0x0319 [0x00] END_REQSTACK()
```

### Event 65535.44

#### Metadata

| Field        | Value    |
|--------------|----------|
| Entrypoint   | 0x031A   |
| Data Size    | 18 bytes |
| Instructions | 2        |

```
      00 01 02 03 04 05 06 07  08 09 0A 0B 0C 0D 0E 0F
      -- -- -- -- -- -- -- --  -- -- -- -- -- -- -- --
0310:                                C5 02 80 7B 31 0A            ...{1.
0320: 01 7B 31 0A 01 73 30 30  31 00 80 00              .{1..s001...    
```

#### Opcodes

```
  0: 0x031A [0xC5] LOAD_SCHEDULED_TASK_ALT3: Load scheduler 0x80003130 for entities [20 (ID: 17445243/0x010A317B), 20 (ID: 17445243/0x010A317B)], work=199*, param=12403
  1: 0x032B [0x00] END_REQSTACK()
```

### Event 5

#### Metadata

| Field        | Value   |
|--------------|---------|
| Entrypoint   | 0x032C  |
| Data Size    | 1 bytes |
| Instructions | 1       |

```
      00 01 02 03 04 05 06 07  08 09 0A 0B 0C 0D 0E 0F
      -- -- -- -- -- -- -- --  -- -- -- -- -- -- -- --
0320:                                      00                       .   
```

#### Opcodes

```
  0: 0x032C [0x00] END_REQSTACK()
```

### Event 65535.45

#### Metadata

| Field        | Value    |
|--------------|----------|
| Entrypoint   | 0x032D   |
| Data Size    | 18 bytes |
| Instructions | 2        |

```
      00 01 02 03 04 05 06 07  08 09 0A 0B 0C 0D 0E 0F
      -- -- -- -- -- -- -- --  -- -- -- -- -- -- -- --
0320:                                         C5 04 80               ...
0330: F8 FF FF 7F F8 FF FF 7F  66 64 30 30 00 80 00     ........fd00... 
```

#### Opcodes

```
  0: 0x032D [0xC5] LOAD_SCHEDULED_TASK_ALT3: Load scheduler 0x80003030 for entities [EventEntity, EventEntity], work=188*, param=25702
  1: 0x033E [0x00] END_REQSTACK()
```

### Event 65535.46

#### Metadata

| Field        | Value    |
|--------------|----------|
| Entrypoint   | 0x033F   |
| Data Size    | 21 bytes |
| Instructions | 3        |

```
      00 01 02 03 04 05 06 07  08 09 0A 0B 0C 0D 0E 0F
      -- -- -- -- -- -- -- --  -- -- -- -- -- -- -- --
0330:                                               C5                 .
0340: 04 80 F8 FF FF 7F F8 FF  FF 7F 66 64 30 31 00 80  ..........fd01..
0350: 1C 05 80 00                                       ....            
```

#### Opcodes

```
  0: 0x033F [0xC5] LOAD_SCHEDULED_TASK_ALT3: Load scheduler 0x80003130 for entities [EventEntity, EventEntity], work=188*, param=25702
  1: 0x0350 [0x1C] WAIT(50* ticks)
  2: 0x0353 [0x00] END_REQSTACK()
```

### Event 65535.47

#### Metadata

| Field        | Value    |
|--------------|----------|
| Entrypoint   | 0x0354   |
| Data Size    | 21 bytes |
| Instructions | 3        |

```
      00 01 02 03 04 05 06 07  08 09 0A 0B 0C 0D 0E 0F
      -- -- -- -- -- -- -- --  -- -- -- -- -- -- -- --
0350:             C5 04 80 F8  FF FF 7F F8 FF FF 7F 73      ...........s
0360: 30 30 31 00 80 1C 06 80  00                       001......       
```

#### Opcodes

```
  0: 0x0354 [0xC5] LOAD_SCHEDULED_TASK_ALT3: Load scheduler 0x80003130 for entities [EventEntity, EventEntity], work=188*, param=12403
  1: 0x0365 [0x1C] WAIT(205* ticks)
  2: 0x0368 [0x00] END_REQSTACK()
```

### Event 65535.48

#### Metadata

| Field        | Value    |
|--------------|----------|
| Entrypoint   | 0x0369   |
| Data Size    | 21 bytes |
| Instructions | 3        |

```
      00 01 02 03 04 05 06 07  08 09 0A 0B 0C 0D 0E 0F
      -- -- -- -- -- -- -- --  -- -- -- -- -- -- -- --
0360:                             C5 07 80 F8 FF FF 7F           .......
0370: F8 FF FF 7F 73 30 30 30  00 80 1C 05 80 00        ....s000......  
```

#### Opcodes

```
  0: 0x0369 [0xC5] LOAD_SCHEDULED_TASK_ALT3: Load scheduler 0x80003030 for entities [EventEntity, EventEntity], work=194*, param=12403
  1: 0x037A [0x1C] WAIT(50* ticks)
  2: 0x037D [0x00] END_REQSTACK()
```

### Event 65535.49

#### Metadata

| Field        | Value    |
|--------------|----------|
| Entrypoint   | 0x037E   |
| Data Size    | 18 bytes |
| Instructions | 2        |

```
      00 01 02 03 04 05 06 07  08 09 0A 0B 0C 0D 0E 0F
      -- -- -- -- -- -- -- --  -- -- -- -- -- -- -- --
0370:                                            C5 07                ..
0380: 80 F8 FF FF 7F F8 FF FF  7F 73 30 30 31 00 80 00  .........s001...
```

#### Opcodes

```
  0: 0x037E [0xC5] LOAD_SCHEDULED_TASK_ALT3: Load scheduler 0x80003130 for entities [EventEntity, EventEntity], work=194*, param=12403
  1: 0x038F [0x00] END_REQSTACK()
```

### Event 65535.50

#### Metadata

| Field        | Value    |
|--------------|----------|
| Entrypoint   | 0x0390   |
| Data Size    | 21 bytes |
| Instructions | 3        |

```
      00 01 02 03 04 05 06 07  08 09 0A 0B 0C 0D 0E 0F
      -- -- -- -- -- -- -- --  -- -- -- -- -- -- -- --
0390: C5 08 80 F8 FF FF 7F F8  FF FF 7F 73 74 63 31 00  ...........stc1.
03A0: 80 1C 06 80 00                                    .....           
```

#### Opcodes

```
  0: 0x0390 [0xC5] LOAD_SCHEDULED_TASK_ALT3: Load scheduler 0x80003163 for entities [EventEntity, EventEntity], work=200*, param=29811
  1: 0x03A1 [0x1C] WAIT(205* ticks)
  2: 0x03A4 [0x00] END_REQSTACK()
```

### Event 65535.51

#### Metadata

| Field        | Value    |
|--------------|----------|
| Entrypoint   | 0x03A5   |
| Data Size    | 21 bytes |
| Instructions | 3        |

```
      00 01 02 03 04 05 06 07  08 09 0A 0B 0C 0D 0E 0F
      -- -- -- -- -- -- -- --  -- -- -- -- -- -- -- --
03A0:                C5 08 80  F8 FF FF 7F F8 FF FF 7F       ...........
03B0: 73 74 63 32 00 80 1C 09  80 00                    stc2......      
```

#### Opcodes

```
  0: 0x03A5 [0xC5] LOAD_SCHEDULED_TASK_ALT3: Load scheduler 0x80003263 for entities [EventEntity, EventEntity], work=200*, param=29811
  1: 0x03B6 [0x1C] WAIT(320* ticks)
  2: 0x03B9 [0x00] END_REQSTACK()
```

### Event 65535.52

#### Metadata

| Field        | Value    |
|--------------|----------|
| Entrypoint   | 0x03BA   |
| Data Size    | 18 bytes |
| Instructions | 2        |

```
      00 01 02 03 04 05 06 07  08 09 0A 0B 0C 0D 0E 0F
      -- -- -- -- -- -- -- --  -- -- -- -- -- -- -- --
03B0:                                C5 08 80 F8 FF FF            ......
03C0: 7F 63 31 0A 01 73 74 74  31 00 80 00              .c1..stt1...    
```

#### Opcodes

```
  0: 0x03BA [0xC5] LOAD_SCHEDULED_TASK_ALT3: Load scheduler 0x80003174 for entities [EventEntity, Shantotto (ID: 17445219/0x010A3163)], work=200*, param=29811
  1: 0x03CB [0x00] END_REQSTACK()
```

### Event 65535.53

#### Metadata

| Field        | Value    |
|--------------|----------|
| Entrypoint   | 0x03CC   |
| Data Size    | 18 bytes |
| Instructions | 2        |

```
      00 01 02 03 04 05 06 07  08 09 0A 0B 0C 0D 0E 0F
      -- -- -- -- -- -- -- --  -- -- -- -- -- -- -- --
03C0:                                      C5 08 80 F8              ....
03D0: FF FF 7F 64 31 0A 01 73  74 74 32 00 80 00        ...d1..stt2...  
```

#### Opcodes

```
  0: 0x03CC [0xC5] LOAD_SCHEDULED_TASK_ALT3: Load scheduler 0x80003274 for entities [EventEntity, Shantotto (ID: 17445220/0x010A3164)], work=200*, param=29811
  1: 0x03DD [0x00] END_REQSTACK()
```

### Event 65535.54

#### Metadata

| Field        | Value    |
|--------------|----------|
| Entrypoint   | 0x03DE   |
| Data Size    | 35 bytes |
| Instructions | 3        |

```
      00 01 02 03 04 05 06 07  08 09 0A 0B 0C 0D 0E 0F
      -- -- -- -- -- -- -- --  -- -- -- -- -- -- -- --
03D0:                                            C5 08                ..
03E0: 80 F8 FF FF 7F 64 31 0A  01 73 74 74 33 00 80 C5  .....d1..stt3...
03F0: 08 80 F8 FF FF 7F 63 31  0A 01 73 74 74 33 00 80  ......c1..stt3..
0400: 00                                                .               
```

#### Opcodes

```
  0: 0x03DE [0xC5] LOAD_SCHEDULED_TASK_ALT3: Load scheduler 0x80003374 for entities [EventEntity, Shantotto (ID: 17445220/0x010A3164)], work=200*, param=29811
  1: 0x03EF [0xC5] LOAD_SCHEDULED_TASK_ALT3: Load scheduler 0x80003374 for entities [EventEntity, Shantotto (ID: 17445219/0x010A3163)], work=200*, param=29811
  2: 0x0400 [0x00] END_REQSTACK()
```

### Event 65535.55

#### Metadata

| Field        | Value    |
|--------------|----------|
| Entrypoint   | 0x0401   |
| Data Size    | 81 bytes |
| Instructions | 9        |

```
      00 01 02 03 04 05 06 07  08 09 0A 0B 0C 0D 0E 0F
      -- -- -- -- -- -- -- --  -- -- -- -- -- -- -- --
0400:    1C 0A 80 9F 0B 80 F8  FF FF 7F F8 FF FF 7F 73   ..............s
0410: 74 72 30 00 80 1C 0C 80  9F 0B 80 F8 FF FF 7F F8  tr0.............
0420: FF FF 7F 6B 69 6C 6C 00  80 1C 0D 80 9F 0B 80 F8  ...kill.........
0430: FF FF 7F F8 FF FF 7F 73  74 72 30 00 80 1C 0A 80  .......str0.....
0440: 9F 0B 80 F8 FF FF 7F F8  FF FF 7F 6B 69 6C 6C 00  ...........kill.
0450: 80 00                                             ..              
```

#### Opcodes

```
  0: 0x0401 [0x1C] WAIT(60* ticks)
  1: 0x0404 [0x9F] LOAD_SCHEDULED_TASK_ALT: Load scheduler "str0" with entities [EventEntity, EventEntity], work=[127*, 0*]
  2: 0x0415 [0x1C] WAIT(180* ticks)
  3: 0x0418 [0x9F] LOAD_SCHEDULED_TASK_ALT: Load scheduler "kill" with entities [EventEntity, EventEntity], work=[127*, 0*]
  4: 0x0429 [0x1C] WAIT(160* ticks)
  5: 0x042C [0x9F] LOAD_SCHEDULED_TASK_ALT: Load scheduler "str0" with entities [EventEntity, EventEntity], work=[127*, 0*]
  6: 0x043D [0x1C] WAIT(60* ticks)
  7: 0x0440 [0x9F] LOAD_SCHEDULED_TASK_ALT: Load scheduler "kill" with entities [EventEntity, EventEntity], work=[127*, 0*]
  8: 0x0451 [0x00] END_REQSTACK()
```

### Event 65535.56

#### Metadata

| Field        | Value    |
|--------------|----------|
| Entrypoint   | 0x0452   |
| Data Size    | 41 bytes |
| Instructions | 5        |

```
      00 01 02 03 04 05 06 07  08 09 0A 0B 0C 0D 0E 0F
      -- -- -- -- -- -- -- --  -- -- -- -- -- -- -- --
0450:       1C 0E 80 9F 0B 80  F8 FF FF 7F F8 FF FF 7F    ..............
0460: 73 74 72 30 00 80 1C 0F  80 9F 0B 80 F8 FF FF 7F  str0............
0470: F8 FF FF 7F 6B 69 6C 6C  00 80 00                 ....kill...     
```

#### Opcodes

```
  0: 0x0452 [0x1C] WAIT(80* ticks)
  1: 0x0455 [0x9F] LOAD_SCHEDULED_TASK_ALT: Load scheduler "str0" with entities [EventEntity, EventEntity], work=[127*, 0*]
  2: 0x0466 [0x1C] WAIT(45* ticks)
  3: 0x0469 [0x9F] LOAD_SCHEDULED_TASK_ALT: Load scheduler "kill" with entities [EventEntity, EventEntity], work=[127*, 0*]
  4: 0x047A [0x00] END_REQSTACK()
```

### Event 65535.57

#### Metadata

| Field        | Value     |
|--------------|-----------|
| Entrypoint   | 0x047B    |
| Data Size    | 121 bytes |
| Instructions | 13        |

```
      00 01 02 03 04 05 06 07  08 09 0A 0B 0C 0D 0E 0F
      -- -- -- -- -- -- -- --  -- -- -- -- -- -- -- --
0470:                                   1C 10 80 9F 0B             .....
0480: 80 F8 FF FF 7F F8 FF FF  7F 73 74 72 30 00 80 1C  .........str0...
0490: 11 80 9F 0B 80 F8 FF FF  7F F8 FF FF 7F 6B 69 6C  .............kil
04A0: 6C 00 80 1C 12 80 9F 0B  80 F8 FF FF 7F F8 FF FF  l...............
04B0: 7F 73 74 72 30 00 80 1C  13 80 9F 0B 80 F8 FF FF  .str0...........
04C0: 7F F8 FF FF 7F 6B 69 6C  6C 00 80 1C 05 80 9F 0B  .....kill.......
04D0: 80 F8 FF FF 7F F8 FF FF  7F 73 74 72 30 00 80 1C  .........str0...
04E0: 13 80 9F 0B 80 F8 FF FF  7F F8 FF FF 7F 6B 69 6C  .............kil
04F0: 6C 00 80 00                                       l...            
```

#### Opcodes

```
  0: 0x047B [0x1C] WAIT(90* ticks)
  1: 0x047E [0x9F] LOAD_SCHEDULED_TASK_ALT: Load scheduler "str0" with entities [EventEntity, EventEntity], work=[127*, 0*]
  2: 0x048F [0x1C] WAIT(150* ticks)
  3: 0x0492 [0x9F] LOAD_SCHEDULED_TASK_ALT: Load scheduler "kill" with entities [EventEntity, EventEntity], work=[127*, 0*]
  4: 0x04A3 [0x1C] WAIT(110* ticks)
  5: 0x04A6 [0x9F] LOAD_SCHEDULED_TASK_ALT: Load scheduler "str0" with entities [EventEntity, EventEntity], work=[127*, 0*]
  6: 0x04B7 [0x1C] WAIT(40* ticks)
  7: 0x04BA [0x9F] LOAD_SCHEDULED_TASK_ALT: Load scheduler "kill" with entities [EventEntity, EventEntity], work=[127*, 0*]
  8: 0x04CB [0x1C] WAIT(50* ticks)
  9: 0x04CE [0x9F] LOAD_SCHEDULED_TASK_ALT: Load scheduler "str0" with entities [EventEntity, EventEntity], work=[127*, 0*]
 10: 0x04DF [0x1C] WAIT(40* ticks)
 11: 0x04E2 [0x9F] LOAD_SCHEDULED_TASK_ALT: Load scheduler "kill" with entities [EventEntity, EventEntity], work=[127*, 0*]
 12: 0x04F3 [0x00] END_REQSTACK()
```

### Event 65535.58

#### Metadata

| Field        | Value    |
|--------------|----------|
| Entrypoint   | 0x04F4   |
| Data Size    | 81 bytes |
| Instructions | 9        |

```
      00 01 02 03 04 05 06 07  08 09 0A 0B 0C 0D 0E 0F
      -- -- -- -- -- -- -- --  -- -- -- -- -- -- -- --
04F0:             1C 0A 80 9F  0B 80 F8 FF FF 7F F8 FF      ............
0500: FF 7F 73 74 72 30 00 80  1C 13 80 9F 0B 80 F8 FF  ..str0..........
0510: FF 7F F8 FF FF 7F 6B 69  6C 6C 00 80 1C 14 80 9F  ......kill......
0520: 0B 80 F8 FF FF 7F F8 FF  FF 7F 73 74 72 30 00 80  ..........str0..
0530: 1C 13 80 9F 0B 80 F8 FF  FF 7F F8 FF FF 7F 6B 69  ..............ki
0540: 6C 6C 00 80 00                                    ll...           
```

#### Opcodes

```
  0: 0x04F4 [0x1C] WAIT(60* ticks)
  1: 0x04F7 [0x9F] LOAD_SCHEDULED_TASK_ALT: Load scheduler "str0" with entities [EventEntity, EventEntity], work=[127*, 0*]
  2: 0x0508 [0x1C] WAIT(40* ticks)
  3: 0x050B [0x9F] LOAD_SCHEDULED_TASK_ALT: Load scheduler "kill" with entities [EventEntity, EventEntity], work=[127*, 0*]
  4: 0x051C [0x1C] WAIT(100* ticks)
  5: 0x051F [0x9F] LOAD_SCHEDULED_TASK_ALT: Load scheduler "str0" with entities [EventEntity, EventEntity], work=[127*, 0*]
  6: 0x0530 [0x1C] WAIT(40* ticks)
  7: 0x0533 [0x9F] LOAD_SCHEDULED_TASK_ALT: Load scheduler "kill" with entities [EventEntity, EventEntity], work=[127*, 0*]
  8: 0x0544 [0x00] END_REQSTACK()
```

### Event 65535.59

#### Metadata

| Field        | Value    |
|--------------|----------|
| Entrypoint   | 0x0545   |
| Data Size    | 81 bytes |
| Instructions | 9        |

```
      00 01 02 03 04 05 06 07  08 09 0A 0B 0C 0D 0E 0F
      -- -- -- -- -- -- -- --  -- -- -- -- -- -- -- --
0540:                1C 15 80  9F 0B 80 F8 FF FF 7F F8       ...........
0550: FF FF 7F 73 74 72 30 00  80 1C 13 80 9F 0B 80 F8  ...str0.........
0560: FF FF 7F F8 FF FF 7F 6B  69 6C 6C 00 80 1C 16 80  .......kill.....
0570: 9F 0B 80 F8 FF FF 7F F8  FF FF 7F 73 74 72 30 00  ...........str0.
0580: 80 1C 10 80 9F 0B 80 F8  FF FF 7F F8 FF FF 7F 6B  ...............k
0590: 69 6C 6C 00 80 00                                 ill...          
```

#### Opcodes

```
  0: 0x0545 [0x1C] WAIT(170* ticks)
  1: 0x0548 [0x9F] LOAD_SCHEDULED_TASK_ALT: Load scheduler "str0" with entities [EventEntity, EventEntity], work=[127*, 0*]
  2: 0x0559 [0x1C] WAIT(40* ticks)
  3: 0x055C [0x9F] LOAD_SCHEDULED_TASK_ALT: Load scheduler "kill" with entities [EventEntity, EventEntity], work=[127*, 0*]
  4: 0x056D [0x1C] WAIT(120* ticks)
  5: 0x0570 [0x9F] LOAD_SCHEDULED_TASK_ALT: Load scheduler "str0" with entities [EventEntity, EventEntity], work=[127*, 0*]
  6: 0x0581 [0x1C] WAIT(90* ticks)
  7: 0x0584 [0x9F] LOAD_SCHEDULED_TASK_ALT: Load scheduler "kill" with entities [EventEntity, EventEntity], work=[127*, 0*]
  8: 0x0595 [0x00] END_REQSTACK()
```

### Event 65535.60

#### Metadata

| Field        | Value    |
|--------------|----------|
| Entrypoint   | 0x0596   |
| Data Size    | 81 bytes |
| Instructions | 9        |

```
      00 01 02 03 04 05 06 07  08 09 0A 0B 0C 0D 0E 0F
      -- -- -- -- -- -- -- --  -- -- -- -- -- -- -- --
0590:                   1C 17  80 9F 0B 80 F8 FF FF 7F        ..........
05A0: F8 FF FF 7F 73 74 72 30  00 80 1C 03 80 9F 0B 80  ....str0........
05B0: F8 FF FF 7F F8 FF FF 7F  6B 69 6C 6C 00 80 1C 0A  ........kill....
05C0: 80 9F 0B 80 F8 FF FF 7F  F8 FF FF 7F 73 74 72 30  ............str0
05D0: 00 80 1C 03 80 9F 0B 80  F8 FF FF 7F F8 FF FF 7F  ................
05E0: 6B 69 6C 6C 00 80 00                              kill...         
```

#### Opcodes

```
  0: 0x0596 [0x1C] WAIT(70* ticks)
  1: 0x0599 [0x9F] LOAD_SCHEDULED_TASK_ALT: Load scheduler "str0" with entities [EventEntity, EventEntity], work=[127*, 0*]
  2: 0x05AA [0x1C] WAIT(30* ticks)
  3: 0x05AD [0x9F] LOAD_SCHEDULED_TASK_ALT: Load scheduler "kill" with entities [EventEntity, EventEntity], work=[127*, 0*]
  4: 0x05BE [0x1C] WAIT(60* ticks)
  5: 0x05C1 [0x9F] LOAD_SCHEDULED_TASK_ALT: Load scheduler "str0" with entities [EventEntity, EventEntity], work=[127*, 0*]
  6: 0x05D2 [0x1C] WAIT(30* ticks)
  7: 0x05D5 [0x9F] LOAD_SCHEDULED_TASK_ALT: Load scheduler "kill" with entities [EventEntity, EventEntity], work=[127*, 0*]
  8: 0x05E6 [0x00] END_REQSTACK()
```

### Event 65535.61

#### Metadata

| Field        | Value    |
|--------------|----------|
| Entrypoint   | 0x05E7   |
| Data Size    | 81 bytes |
| Instructions | 9        |

```
      00 01 02 03 04 05 06 07  08 09 0A 0B 0C 0D 0E 0F
      -- -- -- -- -- -- -- --  -- -- -- -- -- -- -- --
05E0:                      1C  11 80 9F 0B 80 F8 FF FF         .........
05F0: 7F F8 FF FF 7F 73 74 72  30 00 80 1C 03 80 9F 0B  .....str0.......
0600: 80 F8 FF FF 7F F8 FF FF  7F 6B 69 6C 6C 00 80 1C  .........kill...
0610: 10 80 9F 0B 80 F8 FF FF  7F F8 FF FF 7F 73 74 72  .............str
0620: 30 00 80 1C 0A 80 9F 0B  80 F8 FF FF 7F F8 FF FF  0...............
0630: 7F 6B 69 6C 6C 00 80 00                           .kill...        
```

#### Opcodes

```
  0: 0x05E7 [0x1C] WAIT(150* ticks)
  1: 0x05EA [0x9F] LOAD_SCHEDULED_TASK_ALT: Load scheduler "str0" with entities [EventEntity, EventEntity], work=[127*, 0*]
  2: 0x05FB [0x1C] WAIT(30* ticks)
  3: 0x05FE [0x9F] LOAD_SCHEDULED_TASK_ALT: Load scheduler "kill" with entities [EventEntity, EventEntity], work=[127*, 0*]
  4: 0x060F [0x1C] WAIT(90* ticks)
  5: 0x0612 [0x9F] LOAD_SCHEDULED_TASK_ALT: Load scheduler "str0" with entities [EventEntity, EventEntity], work=[127*, 0*]
  6: 0x0623 [0x1C] WAIT(60* ticks)
  7: 0x0626 [0x9F] LOAD_SCHEDULED_TASK_ALT: Load scheduler "kill" with entities [EventEntity, EventEntity], work=[127*, 0*]
  8: 0x0637 [0x00] END_REQSTACK()
```

### Event 65535.62

#### Metadata

| Field        | Value    |
|--------------|----------|
| Entrypoint   | 0x0638   |
| Data Size    | 41 bytes |
| Instructions | 5        |

```
      00 01 02 03 04 05 06 07  08 09 0A 0B 0C 0D 0E 0F
      -- -- -- -- -- -- -- --  -- -- -- -- -- -- -- --
0630:                          1C 18 80 9F 0B 80 F8 FF          ........
0640: FF 7F F8 FF FF 7F 73 74  72 30 00 80 1C 0F 80 9F  ......str0......
0650: 0B 80 F8 FF FF 7F F8 FF  FF 7F 6B 69 6C 6C 00 80  ..........kill..
0660: 00                                                .               
```

#### Opcodes

```
  0: 0x0638 [0x1C] WAIT(230* ticks)
  1: 0x063B [0x9F] LOAD_SCHEDULED_TASK_ALT: Load scheduler "str0" with entities [EventEntity, EventEntity], work=[127*, 0*]
  2: 0x064C [0x1C] WAIT(45* ticks)
  3: 0x064F [0x9F] LOAD_SCHEDULED_TASK_ALT: Load scheduler "kill" with entities [EventEntity, EventEntity], work=[127*, 0*]
  4: 0x0660 [0x00] END_REQSTACK()
```

### Event 65535.63

#### Metadata

| Field        | Value    |
|--------------|----------|
| Entrypoint   | 0x0661   |
| Data Size    | 41 bytes |
| Instructions | 5        |

```
      00 01 02 03 04 05 06 07  08 09 0A 0B 0C 0D 0E 0F
      -- -- -- -- -- -- -- --  -- -- -- -- -- -- -- --
0660:    1C 0D 80 9F 0B 80 F8  FF FF 7F F8 FF FF 7F 73   ..............s
0670: 74 72 30 00 80 1C 03 80  9F 0B 80 F8 FF FF 7F F8  tr0.............
0680: FF FF 7F 6B 69 6C 6C 00  80 00                    ...kill...      
```

#### Opcodes

```
  0: 0x0661 [0x1C] WAIT(160* ticks)
  1: 0x0664 [0x9F] LOAD_SCHEDULED_TASK_ALT: Load scheduler "str0" with entities [EventEntity, EventEntity], work=[127*, 0*]
  2: 0x0675 [0x1C] WAIT(30* ticks)
  3: 0x0678 [0x9F] LOAD_SCHEDULED_TASK_ALT: Load scheduler "kill" with entities [EventEntity, EventEntity], work=[127*, 0*]
  4: 0x0689 [0x00] END_REQSTACK()
```

### Event 65535.64

#### Metadata

| Field        | Value     |
|--------------|-----------|
| Entrypoint   | 0x068A    |
| Data Size    | 121 bytes |
| Instructions | 13        |

```
      00 01 02 03 04 05 06 07  08 09 0A 0B 0C 0D 0E 0F
      -- -- -- -- -- -- -- --  -- -- -- -- -- -- -- --
0680:                                1C 19 80 9F 0B 80            ......
0690: F8 FF FF 7F F8 FF FF 7F  73 74 72 30 00 80 1C 03  ........str0....
06A0: 80 9F 0B 80 F8 FF FF 7F  F8 FF FF 7F 6B 69 6C 6C  ............kill
06B0: 00 80 1C 1A 80 9F 0B 80  F8 FF FF 7F F8 FF FF 7F  ................
06C0: 73 74 72 30 00 80 1C 03  80 9F 0B 80 F8 FF FF 7F  str0............
06D0: F8 FF FF 7F 6B 69 6C 6C  00 80 1C 1A 80 9F 0B 80  ....kill........
06E0: F8 FF FF 7F F8 FF FF 7F  73 74 72 30 00 80 1C 10  ........str0....
06F0: 80 9F 0B 80 F8 FF FF 7F  F8 FF FF 7F 6B 69 6C 6C  ............kill
0700: 00 80 00                                          ...             
```

#### Opcodes

```
  0: 0x068A [0x1C] WAIT(235* ticks)
  1: 0x068D [0x9F] LOAD_SCHEDULED_TASK_ALT: Load scheduler "str0" with entities [EventEntity, EventEntity], work=[127*, 0*]
  2: 0x069E [0x1C] WAIT(30* ticks)
  3: 0x06A1 [0x9F] LOAD_SCHEDULED_TASK_ALT: Load scheduler "kill" with entities [EventEntity, EventEntity], work=[127*, 0*]
  4: 0x06B2 [0x1C] WAIT(10* ticks)
  5: 0x06B5 [0x9F] LOAD_SCHEDULED_TASK_ALT: Load scheduler "str0" with entities [EventEntity, EventEntity], work=[127*, 0*]
  6: 0x06C6 [0x1C] WAIT(30* ticks)
  7: 0x06C9 [0x9F] LOAD_SCHEDULED_TASK_ALT: Load scheduler "kill" with entities [EventEntity, EventEntity], work=[127*, 0*]
  8: 0x06DA [0x1C] WAIT(10* ticks)
  9: 0x06DD [0x9F] LOAD_SCHEDULED_TASK_ALT: Load scheduler "str0" with entities [EventEntity, EventEntity], work=[127*, 0*]
 10: 0x06EE [0x1C] WAIT(90* ticks)
 11: 0x06F1 [0x9F] LOAD_SCHEDULED_TASK_ALT: Load scheduler "kill" with entities [EventEntity, EventEntity], work=[127*, 0*]
 12: 0x0702 [0x00] END_REQSTACK()
```

### Event 65535.65

#### Metadata

| Field        | Value     |
|--------------|-----------|
| Entrypoint   | 0x0703    |
| Data Size    | 121 bytes |
| Instructions | 13        |

```
      00 01 02 03 04 05 06 07  08 09 0A 0B 0C 0D 0E 0F
      -- -- -- -- -- -- -- --  -- -- -- -- -- -- -- --
0700:          1C 0A 80 9F 0B  80 F8 FF FF 7F F8 FF FF     .............
0710: 7F 73 74 72 30 00 80 1C  03 80 9F 0B 80 F8 FF FF  .str0...........
0720: 7F F8 FF FF 7F 6B 69 6C  6C 00 80 1C 10 80 9F 0B  .....kill.......
0730: 80 F8 FF FF 7F F8 FF FF  7F 73 74 72 30 00 80 1C  .........str0...
0740: 10 80 9F 0B 80 F8 FF FF  7F F8 FF FF 7F 6B 69 6C  .............kil
0750: 6C 00 80 1C 13 80 9F 0B  80 F8 FF FF 7F F8 FF FF  l...............
0760: 7F 73 74 72 30 00 80 1C  10 80 9F 0B 80 F8 FF FF  .str0...........
0770: 7F F8 FF FF 7F 6B 69 6C  6C 00 80 00              .....kill...    
```

#### Opcodes

```
  0: 0x0703 [0x1C] WAIT(60* ticks)
  1: 0x0706 [0x9F] LOAD_SCHEDULED_TASK_ALT: Load scheduler "str0" with entities [EventEntity, EventEntity], work=[127*, 0*]
  2: 0x0717 [0x1C] WAIT(30* ticks)
  3: 0x071A [0x9F] LOAD_SCHEDULED_TASK_ALT: Load scheduler "kill" with entities [EventEntity, EventEntity], work=[127*, 0*]
  4: 0x072B [0x1C] WAIT(90* ticks)
  5: 0x072E [0x9F] LOAD_SCHEDULED_TASK_ALT: Load scheduler "str0" with entities [EventEntity, EventEntity], work=[127*, 0*]
  6: 0x073F [0x1C] WAIT(90* ticks)
  7: 0x0742 [0x9F] LOAD_SCHEDULED_TASK_ALT: Load scheduler "kill" with entities [EventEntity, EventEntity], work=[127*, 0*]
  8: 0x0753 [0x1C] WAIT(40* ticks)
  9: 0x0756 [0x9F] LOAD_SCHEDULED_TASK_ALT: Load scheduler "str0" with entities [EventEntity, EventEntity], work=[127*, 0*]
 10: 0x0767 [0x1C] WAIT(90* ticks)
 11: 0x076A [0x9F] LOAD_SCHEDULED_TASK_ALT: Load scheduler "kill" with entities [EventEntity, EventEntity], work=[127*, 0*]
 12: 0x077B [0x00] END_REQSTACK()
```

### Event 65535.66

#### Metadata

| Field        | Value     |
|--------------|-----------|
| Entrypoint   | 0x077C    |
| Data Size    | 201 bytes |
| Instructions | 21        |

```
      00 01 02 03 04 05 06 07  08 09 0A 0B 0C 0D 0E 0F
      -- -- -- -- -- -- -- --  -- -- -- -- -- -- -- --
0770:                                      1C 1B 80 9F              ....
0780: 0B 80 F8 FF FF 7F F8 FF  FF 7F 73 74 72 30 00 80  ..........str0..
0790: 1C 03 80 9F 0B 80 F8 FF  FF 7F F8 FF FF 7F 6B 69  ..............ki
07A0: 6C 6C 00 80 1C 1C 80 9F  0B 80 F8 FF FF 7F F8 FF  ll..............
07B0: FF 7F 73 74 72 30 00 80  1C 1D 80 9F 0B 80 F8 FF  ..str0..........
07C0: FF 7F F8 FF FF 7F 6B 69  6C 6C 00 80 1C 13 80 9F  ......kill......
07D0: 0B 80 F8 FF FF 7F F8 FF  FF 7F 73 74 72 30 00 80  ..........str0..
07E0: 1C 1D 80 9F 0B 80 F8 FF  FF 7F F8 FF FF 7F 6B 69  ..............ki
07F0: 6C 6C 00 80 1C 1E 80 9F  0B 80 F8 FF FF 7F F8 FF  ll..............
0800: FF 7F 73 74 72 30 00 80  1C 0A 80 9F 0B 80 F8 FF  ..str0..........
0810: FF 7F F8 FF FF 7F 6B 69  6C 6C 00 80 1C 0F 80 9F  ......kill......
0820: 0B 80 F8 FF FF 7F F8 FF  FF 7F 73 74 72 30 00 80  ..........str0..
0830: 1C 10 80 9F 0B 80 F8 FF  FF 7F F8 FF FF 7F 6B 69  ..............ki
0840: 6C 6C 00 80 00                                    ll...           
```

#### Opcodes

```
  0: 0x077C [0x1C] WAIT(360* ticks)
  1: 0x077F [0x9F] LOAD_SCHEDULED_TASK_ALT: Load scheduler "str0" with entities [EventEntity, EventEntity], work=[127*, 0*]
  2: 0x0790 [0x1C] WAIT(30* ticks)
  3: 0x0793 [0x9F] LOAD_SCHEDULED_TASK_ALT: Load scheduler "kill" with entities [EventEntity, EventEntity], work=[127*, 0*]
  4: 0x07A4 [0x1C] WAIT(115* ticks)
  5: 0x07A7 [0x9F] LOAD_SCHEDULED_TASK_ALT: Load scheduler "str0" with entities [EventEntity, EventEntity], work=[127*, 0*]
  6: 0x07B8 [0x1C] WAIT(15* ticks)
  7: 0x07BB [0x9F] LOAD_SCHEDULED_TASK_ALT: Load scheduler "kill" with entities [EventEntity, EventEntity], work=[127*, 0*]
  8: 0x07CC [0x1C] WAIT(40* ticks)
  9: 0x07CF [0x9F] LOAD_SCHEDULED_TASK_ALT: Load scheduler "str0" with entities [EventEntity, EventEntity], work=[127*, 0*]
 10: 0x07E0 [0x1C] WAIT(15* ticks)
 11: 0x07E3 [0x9F] LOAD_SCHEDULED_TASK_ALT: Load scheduler "kill" with entities [EventEntity, EventEntity], work=[127*, 0*]
 12: 0x07F4 [0x1C] WAIT(20* ticks)
 13: 0x07F7 [0x9F] LOAD_SCHEDULED_TASK_ALT: Load scheduler "str0" with entities [EventEntity, EventEntity], work=[127*, 0*]
 14: 0x0808 [0x1C] WAIT(60* ticks)
 15: 0x080B [0x9F] LOAD_SCHEDULED_TASK_ALT: Load scheduler "kill" with entities [EventEntity, EventEntity], work=[127*, 0*]
 16: 0x081C [0x1C] WAIT(45* ticks)
 17: 0x081F [0x9F] LOAD_SCHEDULED_TASK_ALT: Load scheduler "str0" with entities [EventEntity, EventEntity], work=[127*, 0*]
 18: 0x0830 [0x1C] WAIT(90* ticks)
 19: 0x0833 [0x9F] LOAD_SCHEDULED_TASK_ALT: Load scheduler "kill" with entities [EventEntity, EventEntity], work=[127*, 0*]
 20: 0x0844 [0x00] END_REQSTACK()
```
