# 17445231 - 8

## Common Data

| Field            | Value                         |
|------------------|-------------------------------|
| Zone             | Sacrificial Chamber (ID: 163) |
| Block Size       | 420 bytes                     |
| Total Events     | 14                            |
| References Count | 25                            |

## List of Events

| Event ID                   | Entrypoint   |   Size |   Instructions |
|----------------------------|--------------|--------|----------------|
| [65535](#event-65535)      | 0x0000       |      1 |              1 |
| [65535.1](#event-655351)   | 0x0001       |     15 |              4 |
| [65535.2](#event-655352)   | 0x0010       |     10 |              2 |
| [65535.3](#event-655353)   | 0x001A       |     10 |              2 |
| [65535.4](#event-655354)   | 0x0024       |     37 |              5 |
| [65535.5](#event-655355)   | 0x0049       |     10 |              2 |
| [65535.6](#event-655356)   | 0x0053       |      8 |              2 |
| [5](#event-5)              | 0x005B       |      1 |              1 |
| [65535.7](#event-655357)   | 0x005C       |     21 |              2 |
| [65535.8](#event-655358)   | 0x0071       |     30 |              3 |
| [65535.9](#event-655359)   | 0x008F       |     16 |              2 |
| [65535.10](#event-6553510) | 0x009F       |     37 |              5 |
| [65535.11](#event-6553511) | 0x00C4       |     21 |              2 |
| [65535.12](#event-6553512) | 0x00D9       |     30 |              3 |

## DAT References (imed_data)

|   Index | Hex Value   |   Dec Value |
|---------|-------------|-------------|
|       0 | 0x0080      |         128 |
|       1 | 0x0000      |           0 |
|       2 | 0xFFFF3558  |  4294915416 |
|       3 | 0x19FF6     |      106486 |
|       4 | 0x0583      |        1411 |
|       5 | 0x33FC      |       13308 |
|       6 | 0x1370F     |       79631 |
|       7 | 0x0006      |           6 |
|       8 | 0x00C9      |         201 |
|       9 | 0x001F      |          31 |
|      10 | 0x0016      |          22 |
|      11 | 0x0002      |           2 |
|      12 | 0x0015      |          21 |
|      13 | 0x0014      |          20 |
|      14 | 0xFFFED581  |  4294890881 |
|      15 | 0x1388B     |       80011 |
|      16 | 0xFFFFFB51  |  4294966097 |
|      17 | 0x0E82      |        3714 |
|      18 | 0x0AC8      |        2760 |
|      19 | 0x001E      |          30 |
|      20 | 0x0001      |           1 |
|      21 | 0x0003      |           3 |
|      22 | 0xFFFF1C68  |  4294909032 |
|      23 | 0x1979B     |      104347 |
|      24 | 0x015E      |         350 |

## Events

### Event 65535

#### Metadata

| Field        | Value   |
|--------------|---------|
| Entrypoint   | 0x0000  |
| Data Size    | 1 bytes |
| Instructions | 1       |

```
      00 01 02 03 04 05 06 07  08 09 0A 0B 0C 0D 0E 0F
      -- -- -- -- -- -- -- --  -- -- -- -- -- -- -- --
0000: 00                                                .               
```

#### Opcodes

```
  0: 0x0000 [0x00] END_REQSTACK()
```

### Event 65535.1

#### Metadata

| Field        | Value    |
|--------------|----------|
| Entrypoint   | 0x0001   |
| Data Size    | 15 bytes |
| Instructions | 4        |

```
      00 01 02 03 04 05 06 07  08 09 0A 0B 0C 0D 0E 0F
      -- -- -- -- -- -- -- --  -- -- -- -- -- -- -- --
0000:    22 00 92 01 F8 FF FF  7F 94 01 F8 FF FF 7F 00   "..............
```

#### Opcodes

```
  0: 0x0001 [0x22] ENTITY_HIDE_FLAG(enabled=0x00)
  1: 0x0003 [0x92] EventEntity->Render.Flags3 ^= 0x01
  2: 0x0009 [0x94] EventEntity->Render.Flags3 ^= 0x01
  3: 0x000F [0x00] END_REQSTACK()
```

### Event 65535.2

#### Metadata

| Field        | Value    |
|--------------|----------|
| Entrypoint   | 0x0010   |
| Data Size    | 10 bytes |
| Instructions | 2        |

```
      00 01 02 03 04 05 06 07  08 09 0A 0B 0C 0D 0E 0F
      -- -- -- -- -- -- -- --  -- -- -- -- -- -- -- --
0010: 6C F8 FF FF 7F 00 80 01  80 00                    l.........      
```

#### Opcodes

```
  0: 0x0010 [0x6C] FADE_ENTITY_COLOR(entity_id=EventEntity, end_alpha=128*, fade_time=0*)
  1: 0x0019 [0x00] END_REQSTACK()
```

### Event 65535.3

#### Metadata

| Field        | Value    |
|--------------|----------|
| Entrypoint   | 0x001A   |
| Data Size    | 10 bytes |
| Instructions | 2        |

```
      00 01 02 03 04 05 06 07  08 09 0A 0B 0C 0D 0E 0F
      -- -- -- -- -- -- -- --  -- -- -- -- -- -- -- --
0010:                                6C F8 FF FF 7F 01            l.....
0020: 80 01 80 00                                       ....            
```

#### Opcodes

```
  0: 0x001A [0x6C] FADE_ENTITY_COLOR(entity_id=EventEntity, end_alpha=0*, fade_time=0*)
  1: 0x0023 [0x00] END_REQSTACK()
```

### Event 65535.4

#### Metadata

| Field        | Value    |
|--------------|----------|
| Entrypoint   | 0x0024   |
| Data Size    | 37 bytes |
| Instructions | 5        |

```
      00 01 02 03 04 05 06 07  08 09 0A 0B 0C 0D 0E 0F
      -- -- -- -- -- -- -- --  -- -- -- -- -- -- -- --
0020:             3B 79 31 0A  01 00 00 01 00 02 00 3A      ;y1........:
0030: 79 31 0A 01 03 00 BA F8  FF FF 7F 00 00 01 00 02  y1..............
0040: 00 03 00 80 F8 FF FF 7F  00                       .........       
```

#### Opcodes

```
  0: 0x0024 [0x3B] GET_ENTITY_POSITION(entity=18 (ID: 17445241/0x010A3179), x_destination=ExtData[1]->WorkLocal[0], y_destination=ExtData[1]->WorkLocal[1], z_destination=ExtData[1]->WorkLocal[2])
  1: 0x002F [0x3A] CONVERT_YAW_TO_BYTE(entity=18 (ID: 17445241/0x010A3179), result_destination=ExtData[1]->WorkLocal[3])
  2: 0x0036 [0xBA] SET_ENTITY_POSITION(entity_id=EventEntity, pos_x=ExtData[1]->WorkLocal[0], pos_z=ExtData[1]->WorkLocal[1], pos_y=ExtData[1]->WorkLocal[2], direction=ExtData[1]->WorkLocal[3])
  3: 0x0043 [0x80] LOAD_WAIT(entity=EventEntity)
  4: 0x0048 [0x00] END_REQSTACK()
```

### Event 65535.5

#### Metadata

| Field        | Value    |
|--------------|----------|
| Entrypoint   | 0x0049   |
| Data Size    | 10 bytes |
| Instructions | 2        |

```
      00 01 02 03 04 05 06 07  08 09 0A 0B 0C 0D 0E 0F
      -- -- -- -- -- -- -- --  -- -- -- -- -- -- -- --
0040:                             37 02 80 03 80 01 80           7......
0050: 04 80 00                                          ...             
```

#### Opcodes

```
  0: 0x0049 [0x37] UPDATE_EVENT_POSITION_AND_DIR: x=-51.880*, z=106.486*, y=0.000*, direction=124.0°*
  1: 0x0052 [0x00] END_REQSTACK()
```

### Event 65535.6

#### Metadata

| Field        | Value   |
|--------------|---------|
| Entrypoint   | 0x0053  |
| Data Size    | 8 bytes |
| Instructions | 2       |

```
      00 01 02 03 04 05 06 07  08 09 0A 0B 0C 0D 0E 0F
      -- -- -- -- -- -- -- --  -- -- -- -- -- -- -- --
0050:          36 05 80 06 80  01 80 00                    6.......     
```

#### Opcodes

```
  0: 0x0053 [0x36] SET_ENTITY_EVENT_POSITION(pos_x=13.308*, pos_z=79.631*, pos_y=0.000*)
  1: 0x005A [0x00] END_REQSTACK()
```

### Event 5

#### Metadata

| Field        | Value   |
|--------------|---------|
| Entrypoint   | 0x005B  |
| Data Size    | 1 bytes |
| Instructions | 1       |

```
      00 01 02 03 04 05 06 07  08 09 0A 0B 0C 0D 0E 0F
      -- -- -- -- -- -- -- --  -- -- -- -- -- -- -- --
0050:                                   00                         .    
```

#### Opcodes

```
  0: 0x005B [0x00] END_REQSTACK()
```

### Event 65535.7

#### Metadata

| Field        | Value    |
|--------------|----------|
| Entrypoint   | 0x005C   |
| Data Size    | 21 bytes |
| Instructions | 2        |

```
      00 01 02 03 04 05 06 07  08 09 0A 0B 0C 0D 0E 0F
      -- -- -- -- -- -- -- --  -- -- -- -- -- -- -- --
0050:                                      B6 0B 07 80              ....
0060: 07 80 01 80 08 80 08 80  08 80 08 80 01 80 01 80  ................
0070: 00                                                .               
```

#### Opcodes

```
  0: 0x005C [0xB6] ENTITY_APPEARANCE_HANDLER(case=Full entity look, race=6*, hair=6*, head=0*, body=201*, hands=201*, legs=201*, feet=201*, main=0*, sub=0*)
  1: 0x0070 [0x00] END_REQSTACK()
```

### Event 65535.8

#### Metadata

| Field        | Value    |
|--------------|----------|
| Entrypoint   | 0x0071   |
| Data Size    | 30 bytes |
| Instructions | 3        |

```
      00 01 02 03 04 05 06 07  08 09 0A 0B 0C 0D 0E 0F
      -- -- -- -- -- -- -- --  -- -- -- -- -- -- -- --
0070:    B6 0B 09 80 0A 80 0B  80 0C 80 0D 80 0C 80 0C   ...............
0080: 80 01 80 01 80 37 0E 80  0F 80 10 80 11 80 00     .....7......... 
```

#### Opcodes

```
  0: 0x0071 [0xB6] ENTITY_APPEARANCE_HANDLER(case=Full entity look, race=31*, hair=22*, head=2*, body=21*, hands=20*, legs=21*, feet=21*, main=0*, sub=0*)
  1: 0x0085 [0x37] UPDATE_EVENT_POSITION_AND_DIR: x=-76.415*, z=80.011*, y=-1.199*, direction=326.4°*
  2: 0x008E [0x00] END_REQSTACK()
```

### Event 65535.9

#### Metadata

| Field        | Value    |
|--------------|----------|
| Entrypoint   | 0x008F   |
| Data Size    | 16 bytes |
| Instructions | 2        |

```
      00 01 02 03 04 05 06 07  08 09 0A 0B 0C 0D 0E 0F
      -- -- -- -- -- -- -- --  -- -- -- -- -- -- -- --
0080:                                               5B                 [
0090: 12 80 F8 FF FF 7F F8 FF  FF 7F 6F 68 68 6C 00     ..........ohhl. 
```

#### Opcodes

```
  0: 0x008F [0x5B] LOAD_EXT_SCHEDULER: Load scheduler "ohhl" with entities [EventEntity, EventEntity], work=2760*
  1: 0x009E [0x00] END_REQSTACK()
```

### Event 65535.10

#### Metadata

| Field        | Value    |
|--------------|----------|
| Entrypoint   | 0x009F   |
| Data Size    | 37 bytes |
| Instructions | 5        |

```
      00 01 02 03 04 05 06 07  08 09 0A 0B 0C 0D 0E 0F
      -- -- -- -- -- -- -- --  -- -- -- -- -- -- -- --
0090:                                               3B                 ;
00A0: 6B 31 0A 01 00 00 01 00  02 00 3A 6B 31 0A 01 03  k1........:k1...
00B0: 00 BA F8 FF FF 7F 00 00  01 00 02 00 03 00 80 F8  ................
00C0: FF FF 7F 00                                       ....            
```

#### Opcodes

```
  0: 0x009F [0x3B] GET_ENTITY_POSITION(entity=4 (ID: 17445227/0x010A316B), x_destination=ExtData[1]->WorkLocal[0], y_destination=ExtData[1]->WorkLocal[1], z_destination=ExtData[1]->WorkLocal[2])
  1: 0x00AA [0x3A] CONVERT_YAW_TO_BYTE(entity=4 (ID: 17445227/0x010A316B), result_destination=ExtData[1]->WorkLocal[3])
  2: 0x00B1 [0xBA] SET_ENTITY_POSITION(entity_id=EventEntity, pos_x=ExtData[1]->WorkLocal[0], pos_z=ExtData[1]->WorkLocal[1], pos_y=ExtData[1]->WorkLocal[2], direction=ExtData[1]->WorkLocal[3])
  3: 0x00BE [0x80] LOAD_WAIT(entity=EventEntity)
  4: 0x00C3 [0x00] END_REQSTACK()
```

### Event 65535.11

#### Metadata

| Field        | Value    |
|--------------|----------|
| Entrypoint   | 0x00C4   |
| Data Size    | 21 bytes |
| Instructions | 2        |

```
      00 01 02 03 04 05 06 07  08 09 0A 0B 0C 0D 0E 0F
      -- -- -- -- -- -- -- --  -- -- -- -- -- -- -- --
00C0:             B6 0B 13 80  14 80 15 80 0B 80 14 80      ............
00D0: 14 80 14 80 01 80 01 80  00                       .........       
```

#### Opcodes

```
  0: 0x00C4 [0xB6] ENTITY_APPEARANCE_HANDLER(case=Full entity look, race=30*, hair=1*, head=3*, body=2*, hands=1*, legs=1*, feet=1*, main=0*, sub=0*)
  1: 0x00D8 [0x00] END_REQSTACK()
```

### Event 65535.12

#### Metadata

| Field        | Value    |
|--------------|----------|
| Entrypoint   | 0x00D9   |
| Data Size    | 30 bytes |
| Instructions | 3        |

```
      00 01 02 03 04 05 06 07  08 09 0A 0B 0C 0D 0E 0F
      -- -- -- -- -- -- -- --  -- -- -- -- -- -- -- --
00D0:                             B6 0B 07 80 07 80 01           .......
00E0: 80 08 80 08 80 08 80 08  80 01 80 01 80 37 16 80  .............7..
00F0: 17 80 01 80 18 80 00                              .......         
```

#### Opcodes

```
  0: 0x00D9 [0xB6] ENTITY_APPEARANCE_HANDLER(case=Full entity look, race=6*, hair=6*, head=0*, body=201*, hands=201*, legs=201*, feet=201*, main=0*, sub=0*)
  1: 0x00ED [0x37] UPDATE_EVENT_POSITION_AND_DIR: x=-58.264*, z=104.347*, y=0.000*, direction=30.8°*
  2: 0x00F6 [0x00] END_REQSTACK()
```
