# 17445229 - 6

## Common Data

| Field            | Value                         |
|------------------|-------------------------------|
| Zone             | Sacrificial Chamber (ID: 163) |
| Block Size       | 440 bytes                     |
| Total Events     | 13                            |
| References Count | 25                            |

## List of Events

| Event ID                   | Entrypoint   |   Size |   Instructions |
|----------------------------|--------------|--------|----------------|
| [65535](#event-65535)      | 0x0000       |      1 |              1 |
| [65535.1](#event-655351)   | 0x0001       |     15 |              4 |
| [65535.2](#event-655352)   | 0x0010       |     10 |              2 |
| [65535.3](#event-655353)   | 0x001A       |     10 |              2 |
| [65535.4](#event-655354)   | 0x0024       |     37 |              5 |
| [5](#event-5)              | 0x0049       |      1 |              1 |
| [65535.5](#event-655355)   | 0x004A       |     21 |              2 |
| [65535.6](#event-655356)   | 0x005F       |     30 |              3 |
| [65535.7](#event-655357)   | 0x007D       |     30 |              3 |
| [65535.8](#event-655358)   | 0x009B       |     16 |              2 |
| [65535.9](#event-655359)   | 0x00AB       |     30 |              3 |
| [65535.10](#event-6553510) | 0x00C9       |     30 |              3 |
| [65535.11](#event-6553511) | 0x00E7       |     41 |              4 |

## DAT References (imed_data)

|   Index | Hex Value   |   Dec Value |
|---------|-------------|-------------|
|       0 | 0x0080      |         128 |
|       1 | 0x0000      |           0 |
|       2 | 0x0006      |           6 |
|       3 | 0x00C9      |         201 |
|       4 | 0x0007      |           7 |
|       5 | 0x0001      |           1 |
|       6 | 0x0011      |          17 |
|       7 | 0x1C041     |      114753 |
|       8 | 0x171B9     |       94649 |
|       9 | 0xFFFFF15B  |  4294963547 |
|      10 | 0x0CB5      |        3253 |
|      11 | 0x001F      |          31 |
|      12 | 0x0002      |           2 |
|      13 | 0xFFFF1013  |  4294905875 |
|      14 | 0x16FD2     |       94162 |
|      15 | 0x2007      |        8199 |
|      16 | 0x051F      |        1311 |
|      17 | 0x0AC8      |        2760 |
|      18 | 0xFFFF1AB7  |  4294908599 |
|      19 | 0x19481     |      103553 |
|      20 | 0x0083      |         131 |
|      21 | 0xFFFFA048  |  4294942792 |
|      22 | 0x19BE1     |      105441 |
|      23 | 0xFFFFDC10  |  4294958096 |
|      24 | 0x061F      |        1567 |

## Events

### Event 65535

#### Metadata

| Field        | Value   |
|--------------|---------|
| Entrypoint   | 0x0000  |
| Data Size    | 1 bytes |
| Instructions | 1       |

```
      00 01 02 03 04 05 06 07  08 09 0A 0B 0C 0D 0E 0F
      -- -- -- -- -- -- -- --  -- -- -- -- -- -- -- --
0000: 00                                                .               
```

#### Opcodes

```
  0: 0x0000 [0x00] END_REQSTACK()
```

### Event 65535.1

#### Metadata

| Field        | Value    |
|--------------|----------|
| Entrypoint   | 0x0001   |
| Data Size    | 15 bytes |
| Instructions | 4        |

```
      00 01 02 03 04 05 06 07  08 09 0A 0B 0C 0D 0E 0F
      -- -- -- -- -- -- -- --  -- -- -- -- -- -- -- --
0000:    22 00 92 01 F8 FF FF  7F 94 01 F8 FF FF 7F 00   "..............
```

#### Opcodes

```
  0: 0x0001 [0x22] ENTITY_HIDE_FLAG(enabled=0x00)
  1: 0x0003 [0x92] EventEntity->Render.Flags3 ^= 0x01
  2: 0x0009 [0x94] EventEntity->Render.Flags3 ^= 0x01
  3: 0x000F [0x00] END_REQSTACK()
```

### Event 65535.2

#### Metadata

| Field        | Value    |
|--------------|----------|
| Entrypoint   | 0x0010   |
| Data Size    | 10 bytes |
| Instructions | 2        |

```
      00 01 02 03 04 05 06 07  08 09 0A 0B 0C 0D 0E 0F
      -- -- -- -- -- -- -- --  -- -- -- -- -- -- -- --
0010: 6C F8 FF FF 7F 00 80 01  80 00                    l.........      
```

#### Opcodes

```
  0: 0x0010 [0x6C] FADE_ENTITY_COLOR(entity_id=EventEntity, end_alpha=128*, fade_time=0*)
  1: 0x0019 [0x00] END_REQSTACK()
```

### Event 65535.3

#### Metadata

| Field        | Value    |
|--------------|----------|
| Entrypoint   | 0x001A   |
| Data Size    | 10 bytes |
| Instructions | 2        |

```
      00 01 02 03 04 05 06 07  08 09 0A 0B 0C 0D 0E 0F
      -- -- -- -- -- -- -- --  -- -- -- -- -- -- -- --
0010:                                6C F8 FF FF 7F 01            l.....
0020: 80 01 80 00                                       ....            
```

#### Opcodes

```
  0: 0x001A [0x6C] FADE_ENTITY_COLOR(entity_id=EventEntity, end_alpha=0*, fade_time=0*)
  1: 0x0023 [0x00] END_REQSTACK()
```

### Event 65535.4

#### Metadata

| Field        | Value    |
|--------------|----------|
| Entrypoint   | 0x0024   |
| Data Size    | 37 bytes |
| Instructions | 5        |

```
      00 01 02 03 04 05 06 07  08 09 0A 0B 0C 0D 0E 0F
      -- -- -- -- -- -- -- --  -- -- -- -- -- -- -- --
0020:             3B 77 31 0A  01 00 00 01 00 02 00 3A      ;w1........:
0030: 77 31 0A 01 03 00 BA F8  FF FF 7F 00 00 01 00 02  w1..............
0040: 00 03 00 80 F8 FF FF 7F  00                       .........       
```

#### Opcodes

```
  0: 0x0024 [0x3B] GET_ENTITY_POSITION(entity=16 (ID: 17445239/0x010A3177), x_destination=ExtData[1]->WorkLocal[0], y_destination=ExtData[1]->WorkLocal[1], z_destination=ExtData[1]->WorkLocal[2])
  1: 0x002F [0x3A] CONVERT_YAW_TO_BYTE(entity=16 (ID: 17445239/0x010A3177), result_destination=ExtData[1]->WorkLocal[3])
  2: 0x0036 [0xBA] SET_ENTITY_POSITION(entity_id=EventEntity, pos_x=ExtData[1]->WorkLocal[0], pos_z=ExtData[1]->WorkLocal[1], pos_y=ExtData[1]->WorkLocal[2], direction=ExtData[1]->WorkLocal[3])
  3: 0x0043 [0x80] LOAD_WAIT(entity=EventEntity)
  4: 0x0048 [0x00] END_REQSTACK()
```

### Event 5

#### Metadata

| Field        | Value   |
|--------------|---------|
| Entrypoint   | 0x0049  |
| Data Size    | 1 bytes |
| Instructions | 1       |

```
      00 01 02 03 04 05 06 07  08 09 0A 0B 0C 0D 0E 0F
      -- -- -- -- -- -- -- --  -- -- -- -- -- -- -- --
0040:                             00                             .      
```

#### Opcodes

```
  0: 0x0049 [0x00] END_REQSTACK()
```

### Event 65535.5

#### Metadata

| Field        | Value    |
|--------------|----------|
| Entrypoint   | 0x004A   |
| Data Size    | 21 bytes |
| Instructions | 2        |

```
      00 01 02 03 04 05 06 07  08 09 0A 0B 0C 0D 0E 0F
      -- -- -- -- -- -- -- --  -- -- -- -- -- -- -- --
0040:                                B6 0B 02 80 02 80            ......
0050: 01 80 03 80 03 80 03 80  03 80 01 80 01 80 00     ............... 
```

#### Opcodes

```
  0: 0x004A [0xB6] ENTITY_APPEARANCE_HANDLER(case=Full entity look, race=6*, hair=6*, head=0*, body=201*, hands=201*, legs=201*, feet=201*, main=0*, sub=0*)
  1: 0x005E [0x00] END_REQSTACK()
```

### Event 65535.6

#### Metadata

| Field        | Value    |
|--------------|----------|
| Entrypoint   | 0x005F   |
| Data Size    | 30 bytes |
| Instructions | 3        |

```
      00 01 02 03 04 05 06 07  08 09 0A 0B 0C 0D 0E 0F
      -- -- -- -- -- -- -- --  -- -- -- -- -- -- -- --
0050:                                               B6                 .
0060: 0B 04 80 05 80 01 80 06  80 06 80 06 80 06 80 01  ................
0070: 80 01 80 37 07 80 08 80  09 80 0A 80 00           ...7.........   
```

#### Opcodes

```
  0: 0x005F [0xB6] ENTITY_APPEARANCE_HANDLER(case=Full entity look, race=7*, hair=1*, head=0*, body=17*, hands=17*, legs=17*, feet=17*, main=0*, sub=0*)
  1: 0x0073 [0x37] UPDATE_EVENT_POSITION_AND_DIR: x=114.753*, z=94.649*, y=-3.749*, direction=285.9°*
  2: 0x007C [0x00] END_REQSTACK()
```

### Event 65535.7

#### Metadata

| Field        | Value    |
|--------------|----------|
| Entrypoint   | 0x007D   |
| Data Size    | 30 bytes |
| Instructions | 3        |

```
      00 01 02 03 04 05 06 07  08 09 0A 0B 0C 0D 0E 0F
      -- -- -- -- -- -- -- --  -- -- -- -- -- -- -- --
0070:                                         B6 0B 0B               ...
0080: 80 05 80 0C 80 0C 80 05  80 05 80 05 80 01 80 01  ................
0090: 80 37 0D 80 0E 80 0F 80  10 80 00                 .7.........     
```

#### Opcodes

```
  0: 0x007D [0xB6] ENTITY_APPEARANCE_HANDLER(case=Full entity look, race=31*, hair=1*, head=2*, body=2*, hands=1*, legs=1*, feet=1*, main=0*, sub=0*)
  1: 0x0091 [0x37] UPDATE_EVENT_POSITION_AND_DIR: x=-61.421*, z=94.162*, y=8.199*, direction=115.2°*
  2: 0x009A [0x00] END_REQSTACK()
```

### Event 65535.8

#### Metadata

| Field        | Value    |
|--------------|----------|
| Entrypoint   | 0x009B   |
| Data Size    | 16 bytes |
| Instructions | 2        |

```
      00 01 02 03 04 05 06 07  08 09 0A 0B 0C 0D 0E 0F
      -- -- -- -- -- -- -- --  -- -- -- -- -- -- -- --
0090:                                   5B 11 80 F8 FF             [....
00A0: FF 7F F8 FF FF 7F 6F 68  68 6C 00                 ......ohhl.     
```

#### Opcodes

```
  0: 0x009B [0x5B] LOAD_EXT_SCHEDULER: Load scheduler "ohhl" with entities [EventEntity, EventEntity], work=2760*
  1: 0x00AA [0x00] END_REQSTACK()
```

### Event 65535.9

#### Metadata

| Field        | Value    |
|--------------|----------|
| Entrypoint   | 0x00AB   |
| Data Size    | 30 bytes |
| Instructions | 3        |

```
      00 01 02 03 04 05 06 07  08 09 0A 0B 0C 0D 0E 0F
      -- -- -- -- -- -- -- --  -- -- -- -- -- -- -- --
00A0:                                   B6 0B 02 80 02             .....
00B0: 80 01 80 03 80 03 80 03  80 03 80 01 80 01 80 37  ...............7
00C0: 0D 80 0E 80 0F 80 10 80  00                       .........       
```

#### Opcodes

```
  0: 0x00AB [0xB6] ENTITY_APPEARANCE_HANDLER(case=Full entity look, race=6*, hair=6*, head=0*, body=201*, hands=201*, legs=201*, feet=201*, main=0*, sub=0*)
  1: 0x00BF [0x37] UPDATE_EVENT_POSITION_AND_DIR: x=-61.421*, z=94.162*, y=8.199*, direction=115.2°*
  2: 0x00C8 [0x00] END_REQSTACK()
```

### Event 65535.10

#### Metadata

| Field        | Value    |
|--------------|----------|
| Entrypoint   | 0x00C9   |
| Data Size    | 30 bytes |
| Instructions | 3        |

```
      00 01 02 03 04 05 06 07  08 09 0A 0B 0C 0D 0E 0F
      -- -- -- -- -- -- -- --  -- -- -- -- -- -- -- --
00C0:                             B6 0B 02 80 02 80 01           .......
00D0: 80 03 80 03 80 03 80 03  80 01 80 01 80 37 12 80  .............7..
00E0: 13 80 01 80 14 80 00                              .......         
```

#### Opcodes

```
  0: 0x00C9 [0xB6] ENTITY_APPEARANCE_HANDLER(case=Full entity look, race=6*, hair=6*, head=0*, body=201*, hands=201*, legs=201*, feet=201*, main=0*, sub=0*)
  1: 0x00DD [0x37] UPDATE_EVENT_POSITION_AND_DIR: x=-58.697*, z=103.553*, y=0.000*, direction=11.5°*
  2: 0x00E6 [0x00] END_REQSTACK()
```

### Event 65535.11

#### Metadata

| Field        | Value    |
|--------------|----------|
| Entrypoint   | 0x00E7   |
| Data Size    | 41 bytes |
| Instructions | 4        |

```
      00 01 02 03 04 05 06 07  08 09 0A 0B 0C 0D 0E 0F
      -- -- -- -- -- -- -- --  -- -- -- -- -- -- -- --
00E0:                      59  05 F8 FF FF 7F 01 B6 0B         Y........
00F0: 02 80 02 80 01 80 03 80  03 80 03 80 03 80 01 80  ................
0100: 01 80 BA F8 FF FF 7F 15  80 16 80 17 80 18 80 00  ................
```

#### Opcodes

```
  0: 0x00E7 [0x59] UPDATE_ENTITY_DATA: EventEntity->Render.Flags0 |= 0x200000
  1: 0x00EE [0xB6] ENTITY_APPEARANCE_HANDLER(case=Full entity look, race=6*, hair=6*, head=0*, body=201*, hands=201*, legs=201*, feet=201*, main=0*, sub=0*)
  2: 0x0102 [0xBA] SET_ENTITY_POSITION(entity_id=EventEntity, pos_x=-24.504*, pos_z=105.441*, pos_y=-9.200*, direction=137.7°*)
  3: 0x010F [0x00] END_REQSTACK()
```
