# 17445219 - Shantotto

## Common Data

| Field            | Value                         |
|------------------|-------------------------------|
| Zone             | Sacrificial Chamber (ID: 163) |
| Block Size       | 1328 bytes                    |
| Total Events     | 43                            |
| References Count | 36                            |

## List of Events

| Event ID                   | Entrypoint   |   Size |   Instructions |
|----------------------------|--------------|--------|----------------|
| [65535](#event-65535)      | 0x0000       |      1 |              1 |
| [65535.1](#event-655351)   | 0x0001       |    288 |             44 |
| [65535.2](#event-655352)   | 0x0121       |     35 |              5 |
| [65535.3](#event-655353)   | 0x0144       |      2 |              2 |
| [65535.4](#event-655354)   | 0x0146       |     39 |              6 |
| [65535.5](#event-655355)   | 0x016D       |     10 |              2 |
| [65535.6](#event-655356)   | 0x0177       |     10 |              2 |
| [65535.7](#event-655357)   | 0x0181       |      3 |              2 |
| [65535.8](#event-655358)   | 0x0184       |      3 |              2 |
| [4](#event-4)              | 0x0187       |      1 |              1 |
| [65535.9](#event-655359)   | 0x0188       |     19 |              3 |
| [65535.10](#event-6553510) | 0x019B       |     16 |              2 |
| [65535.11](#event-6553511) | 0x01AB       |     16 |              2 |
| [65535.12](#event-6553512) | 0x01BB       |     19 |              3 |
| [65535.13](#event-6553513) | 0x01CE       |     16 |              2 |
| [65535.14](#event-6553514) | 0x01DE       |     16 |              2 |
| [65535.15](#event-6553515) | 0x01EE       |     16 |              2 |
| [65535.16](#event-6553516) | 0x01FE       |     16 |              2 |
| [65535.17](#event-6553517) | 0x020E       |     16 |              2 |
| [65535.18](#event-6553518) | 0x021E       |     16 |              2 |
| [65535.19](#event-6553519) | 0x022E       |     16 |              2 |
| [65535.20](#event-6553520) | 0x023E       |     19 |              3 |
| [65535.21](#event-6553521) | 0x0251       |     21 |              3 |
| [65535.22](#event-6553522) | 0x0266       |     18 |              2 |
| [65535.23](#event-6553523) | 0x0278       |     21 |              3 |
| [65535.24](#event-6553524) | 0x028D       |     18 |              2 |
| [5](#event-5)              | 0x029F       |      1 |              1 |
| [65535.25](#event-6553525) | 0x02A0       |     16 |              2 |
| [65535.26](#event-6553526) | 0x02B0       |     19 |              3 |
| [65535.27](#event-6553527) | 0x02C3       |     19 |              3 |
| [65535.28](#event-6553528) | 0x02D6       |     19 |              3 |
| [65535.29](#event-6553529) | 0x02E9       |     38 |              6 |
| [65535.30](#event-6553530) | 0x030F       |     19 |              3 |
| [65535.31](#event-6553531) | 0x0322       |     19 |              3 |
| [65535.32](#event-6553532) | 0x0335       |     19 |              3 |
| [65535.33](#event-6553533) | 0x0348       |     19 |              3 |
| [65535.34](#event-6553534) | 0x035B       |     19 |              3 |
| [65535.35](#event-6553535) | 0x036E       |     19 |              3 |
| [65535.36](#event-6553536) | 0x0381       |     21 |              3 |
| [65535.37](#event-6553537) | 0x0396       |     21 |              3 |
| [65535.38](#event-6553538) | 0x03AB       |     18 |              2 |
| [65535.39](#event-6553539) | 0x03BD       |     18 |              2 |
| [65535.40](#event-6553540) | 0x03CF       |     18 |              2 |

## DAT References (imed_data)

|   Index | Hex Value   |   Dec Value |
|---------|-------------|-------------|
|       0 | 0x0003      |           3 |
|       1 | 0x0040      |          64 |
|       2 | 0x0000      |           0 |
|       3 | 0x0001      |           1 |
|       4 | 0x000A      |          10 |
|       5 | 0x0AD7      |        2775 |
|       6 | 0x0002      |           2 |
|       7 | 0x0184      |         388 |
|       8 | 0x0096      |         150 |
|       9 | 0x0004      |           4 |
|      10 | 0x0AD8      |        2776 |
|      11 | 0x0005      |           5 |
|      12 | 0x0080      |         128 |
|      13 | 0x0006      |           6 |
|      14 | 0x0074      |         116 |
|      15 | 0x0800      |        2048 |
|      16 | 0x00C9      |         201 |
|      17 | 0x0AC8      |        2760 |
|      18 | 0x000F      |          15 |
|      19 | 0x003C      |          60 |
|      20 | 0x0ACF      |        2767 |
|      21 | 0x0044      |          68 |
|      22 | 0x00C0      |         192 |
|      23 | 0x005A      |          90 |
|      24 | 0x0AD1      |        2769 |
|      25 | 0x00DC      |         220 |
|      26 | 0x0140      |         320 |
|      27 | 0x008C      |         140 |
|      28 | 0xFFFFF16F  |  4294963567 |
|      29 | 0xAAC8      |       43720 |
|      30 | 0xFFFFF830  |  4294965296 |
|      31 | 0x01D6      |         470 |
|      32 | 0x00B4      |         180 |
|      33 | 0x00C1      |         193 |
|      34 | 0x011D      |         285 |
|      35 | 0x00C8      |         200 |

## Events

### Event 65535

#### Metadata

| Field        | Value   |
|--------------|---------|
| Entrypoint   | 0x0000  |
| Data Size    | 1 bytes |
| Instructions | 1       |

```
      00 01 02 03 04 05 06 07  08 09 0A 0B 0C 0D 0E 0F
      -- -- -- -- -- -- -- --  -- -- -- -- -- -- -- --
0000: 00                                                .               
```

#### Opcodes

```
  0: 0x0000 [0x00] END_REQSTACK()
```

### Event 65535.1

#### Metadata

| Field        | Value     |
|--------------|-----------|
| Entrypoint   | 0x0001    |
| Data Size    | 288 bytes |
| Instructions | 41        |

```
      00 01 02 03 04 05 06 07  08 09 0A 0B 0C 0D 0E 0F
      -- -- -- -- -- -- -- --  -- -- -- -- -- -- -- --
0000:    33 01 3B F8 FF FF 7F  00 00 01 00 02 00 06 05   3.;............
0010: 00 16 04 00 05 00 00 80  07 02 00 04 00 3A F8 FF  .............:..
0020: FF 7F 03 00 37 00 00 01  00 02 00 03 00 07 05 00  ....7...........
0030: 01 80 1C 02 80 02 26 10  03 80 00 FF 00 03 28 10  ......&.......(.
0040: 02 80 02 24 10 03 80 80  61 00 03 28 10 04 80 5B  ...$....a..(...[
0050: 05 80 F8 FF FF 7F F8 FF  FF 7F 6C 62 30 30 01 FC  ..........lb00..
0060: 00 02 24 10 06 80 80 80  00 03 28 10 07 80 5B 05  ..$.......(...[.
0070: 80 F8 FF FF 7F F8 FF FF  7F 6C 62 30 31 01 FC 00  .........lb01...
0080: 02 24 10 00 80 80 9F 00  03 28 10 08 80 5B 05 80  .$.......(...[..
0090: F8 FF FF 7F F8 FF FF 7F  6C 62 30 32 01 FC 00 02  ........lb02....
00A0: 24 10 09 80 80 BE 00 03  28 10 01 80 5B 0A 80 F8  $.......(...[...
00B0: FF FF 7F F8 FF FF 7F 6C  62 30 33 01 FC 00 02 24  .......lb03....$
00C0: 10 0B 80 80 DD 00 03 28  10 0C 80 5B 0A 80 F8 FF  .......(...[....
00D0: FF 7F F8 FF FF 7F 6C 62  30 34 01 FC 00 02 24 10  ......lb04....$.
00E0: 0D 80 80 FC 00 03 28 10  0E 80 5B 0A 80 F8 FF FF  ......(...[.....
00F0: 7F F8 FF FF 7F 6C 62 30  35 01 FC 00 06 26 10 02  .....lb05....&..
0100: 28 10 02 80 02 0F 01 08  28 10 03 80 01 12 01 06  (.......(.......
0110: 28 10 01 11 00 02 05 00  0F 80 04 20 01 06 05 00  (.......... ....
0120: 00                                                .               
```

#### Opcodes

```
  0: 0x0001 [0x33] EventEntity->Render.Flags0 |= 0x200000 // Bit 21 (flag=0x01)
  1: 0x0003 [0x3B] GET_ENTITY_POSITION(entity=EventEntity, x_destination=ExtData[1]->WorkLocal[0], y_destination=ExtData[1]->WorkLocal[1], z_destination=ExtData[1]->WorkLocal[2])
  2: 0x000E [0x06] ExtData[1]->WorkLocal[5] = 0
  3: 0x0011 [0x16] ExtData[1]->WorkLocal[4] = sin(ExtData[1]->WorkLocal[5]) * 3*
  4: 0x0018 [0x07] ExtData[1]->WorkLocal[2] += ExtData[1]->WorkLocal[4]
  5: 0x001D [0x3A] CONVERT_YAW_TO_BYTE(entity=EventEntity, result_destination=ExtData[1]->WorkLocal[3])
  6: 0x0024 [0x37] UPDATE_EVENT_POSITION_AND_DIR: x=ExtData[1]->WorkLocal[0], z=ExtData[1]->WorkLocal[1], y=ExtData[1]->WorkLocal[2], direction=ExtData[1]->WorkLocal[3]
  7: 0x002D [0x07] ExtData[1]->WorkLocal[5] += 64*
  8: 0x0032 [0x1C] WAIT(0* ticks)
  9: 0x0035 [0x02] IF !(Work_Zone[38] == 1*) GOTO 0x00FF
 10: 0x003D [0x03] Work_Zone[40] = 0*
 11: 0x0042 [0x02] IF !(Work_Zone[36] == 1*) GOTO 0x0061
 12: 0x004A [0x03] Work_Zone[40] = 10*
 13: 0x004F [0x5B] LOAD_EXT_SCHEDULER: Load scheduler "lb00" with entities [EventEntity, EventEntity], work=2775*
 14: 0x005E [0x01] GOTO 0x00FC
 15: 0x0061 [0x02] IF !(Work_Zone[36] == 2*) GOTO 0x0080
 16: 0x0069 [0x03] Work_Zone[40] = 388*
 17: 0x006E [0x5B] LOAD_EXT_SCHEDULER: Load scheduler "lb01" with entities [EventEntity, EventEntity], work=2775*
 18: 0x007D [0x01] GOTO 0x00FC
 19: 0x0080 [0x02] IF !(Work_Zone[36] == 3*) GOTO 0x009F
 20: 0x0088 [0x03] Work_Zone[40] = 150*
 21: 0x008D [0x5B] LOAD_EXT_SCHEDULER: Load scheduler "lb02" with entities [EventEntity, EventEntity], work=2775*
 22: 0x009C [0x01] GOTO 0x00FC
 23: 0x009F [0x02] IF !(Work_Zone[36] == 4*) GOTO 0x00BE
 24: 0x00A7 [0x03] Work_Zone[40] = 64*
 25: 0x00AC [0x5B] LOAD_EXT_SCHEDULER: Load scheduler "lb03" with entities [EventEntity, EventEntity], work=2776*
 26: 0x00BB [0x01] GOTO 0x00FC
 27: 0x00BE [0x02] IF !(Work_Zone[36] == 5*) GOTO 0x00DD
 28: 0x00C6 [0x03] Work_Zone[40] = 128*
 29: 0x00CB [0x5B] LOAD_EXT_SCHEDULER: Load scheduler "lb04" with entities [EventEntity, EventEntity], work=2776*
 30: 0x00DA [0x01] GOTO 0x00FC
 31: 0x00DD [0x02] IF !(Work_Zone[36] == 6*) GOTO 0x00FC
 32: 0x00E5 [0x03] Work_Zone[40] = 116*
 33: 0x00EA [0x5B] LOAD_EXT_SCHEDULER: Load scheduler "lb05" with entities [EventEntity, EventEntity], work=2776*
 34: 0x00F9 [0x01] GOTO 0x00FC

SUBROUTINE_00FC:
 35: 0x00FC [0x06] Work_Zone[38] = 0
 36: 0x00FF [0x02] IF !(Work_Zone[40] <= 0*) GOTO 0x010F
 37: 0x0107 [0x08] Work_Zone[40] -= 1*
 38: 0x010C [0x01] GOTO 0x0112
 39: 0x010F [0x06] Work_Zone[40] = 0

SUBROUTINE_0112:
 40: 0x0112 [0x01] GOTO 0x0011
```

#### Data or dead code:

```
# Dead code (unreachable instructions):
     0x0115 [0x02] IF !(ExtData[1]->WorkLocal[5] < 2048*) GOTO 0x0120
     0x011D [0x06] ExtData[1]->WorkLocal[5] = 0
     0x0120 [0x00] END_REQSTACK()
```

### Event 65535.2

#### Metadata

| Field        | Value    |
|--------------|----------|
| Entrypoint   | 0x0121   |
| Data Size    | 35 bytes |
| Instructions | 5        |

```
      00 01 02 03 04 05 06 07  08 09 0A 0B 0C 0D 0E 0F
      -- -- -- -- -- -- -- --  -- -- -- -- -- -- -- --
0120:    B6 0B 0D 80 0D 80 02  80 10 80 10 80 10 80 10   ...............
0130: 80 02 80 02 80 22 00 92  01 F8 FF FF 7F 94 01 F8  ....."..........
0140: FF FF 7F 00                                       ....            
```

#### Opcodes

```
  0: 0x0121 [0xB6] ENTITY_APPEARANCE_HANDLER(case=Full entity look, race=6*, hair=6*, head=0*, body=201*, hands=201*, legs=201*, feet=201*, main=0*, sub=0*)
  1: 0x0135 [0x22] ENTITY_HIDE_FLAG(enabled=0x00)
  2: 0x0137 [0x92] EventEntity->Render.Flags3 ^= 0x01
  3: 0x013D [0x94] EventEntity->Render.Flags3 ^= 0x01
  4: 0x0143 [0x00] END_REQSTACK()
```

### Event 65535.3

#### Metadata

| Field        | Value   |
|--------------|---------|
| Entrypoint   | 0x0144  |
| Data Size    | 2 bytes |
| Instructions | 2       |

```
      00 01 02 03 04 05 06 07  08 09 0A 0B 0C 0D 0E 0F
      -- -- -- -- -- -- -- --  -- -- -- -- -- -- -- --
0140:             84 00                                     ..          
```

#### Opcodes

```
  0: 0x0144 [0x84] ADJUST_RENDER_FLAGS3_BIT0()
  1: 0x0145 [0x00] END_REQSTACK()
```

### Event 65535.4

#### Metadata

| Field        | Value    |
|--------------|----------|
| Entrypoint   | 0x0146   |
| Data Size    | 39 bytes |
| Instructions | 6        |

```
      00 01 02 03 04 05 06 07  08 09 0A 0B 0C 0D 0E 0F
      -- -- -- -- -- -- -- --  -- -- -- -- -- -- -- --
0140:                   B4 13  06 00 44 2E 40 53 68 61        ....D.@Sha
0150: 6E 74 6F 74 74 6F 00 00  00 00 B5 00 06 00 22 00  ntotto........".
0160: 92 01 F8 FF FF 7F 94 01  F8 FF FF 7F 00           .............   
```

#### Opcodes

```
  0: 0x0146 [0xB4] UI_WINDOW_STRING_HANDLER(case=0x13 - Copy string and replace @ with space, work_offset=ExtData[1]->WorkLocal[6], string="D.@Shantotto")
  1: 0x015A [0xB5] SET_EVENT_ENTITY_NAME: Change EventEntity name to ExtData[1]->WorkLocal[6]
  2: 0x015E [0x22] ENTITY_HIDE_FLAG(enabled=0x00)
  3: 0x0160 [0x92] EventEntity->Render.Flags3 ^= 0x01
  4: 0x0166 [0x94] EventEntity->Render.Flags3 ^= 0x01
  5: 0x016C [0x00] END_REQSTACK()
```

### Event 65535.5

#### Metadata

| Field        | Value    |
|--------------|----------|
| Entrypoint   | 0x016D   |
| Data Size    | 10 bytes |
| Instructions | 2        |

```
      00 01 02 03 04 05 06 07  08 09 0A 0B 0C 0D 0E 0F
      -- -- -- -- -- -- -- --  -- -- -- -- -- -- -- --
0160:                                         6C F8 FF               l..
0170: FF 7F 0C 80 02 80 00                              .......         
```

#### Opcodes

```
  0: 0x016D [0x6C] FADE_ENTITY_COLOR(entity_id=EventEntity, end_alpha=128*, fade_time=0*)
  1: 0x0176 [0x00] END_REQSTACK()
```

### Event 65535.6

#### Metadata

| Field        | Value    |
|--------------|----------|
| Entrypoint   | 0x0177   |
| Data Size    | 10 bytes |
| Instructions | 2        |

```
      00 01 02 03 04 05 06 07  08 09 0A 0B 0C 0D 0E 0F
      -- -- -- -- -- -- -- --  -- -- -- -- -- -- -- --
0170:                      6C  F8 FF FF 7F 02 80 02 80         l........
0180: 00                                                .               
```

#### Opcodes

```
  0: 0x0177 [0x6C] FADE_ENTITY_COLOR(entity_id=EventEntity, end_alpha=0*, fade_time=0*)
  1: 0x0180 [0x00] END_REQSTACK()
```

### Event 65535.7

#### Metadata

| Field        | Value   |
|--------------|---------|
| Entrypoint   | 0x0181  |
| Data Size    | 3 bytes |
| Instructions | 2       |

```
      00 01 02 03 04 05 06 07  08 09 0A 0B 0C 0D 0E 0F
      -- -- -- -- -- -- -- --  -- -- -- -- -- -- -- --
0180:    A4 01 00                                        ...            
```

#### Opcodes

```
  0: 0x0181 [0xA4] EventEntity->Flags3.unknown_3_2 = 1
  1: 0x0183 [0x00] END_REQSTACK()
```

### Event 65535.8

#### Metadata

| Field        | Value   |
|--------------|---------|
| Entrypoint   | 0x0184  |
| Data Size    | 3 bytes |
| Instructions | 2       |

```
      00 01 02 03 04 05 06 07  08 09 0A 0B 0C 0D 0E 0F
      -- -- -- -- -- -- -- --  -- -- -- -- -- -- -- --
0180:             A4 00 00                                  ...         
```

#### Opcodes

```
  0: 0x0184 [0xA4] EventEntity->Flags3.unknown_3_2 = 0
  1: 0x0186 [0x00] END_REQSTACK()
```

### Event 4

#### Metadata

| Field        | Value   |
|--------------|---------|
| Entrypoint   | 0x0187  |
| Data Size    | 1 bytes |
| Instructions | 1       |

```
      00 01 02 03 04 05 06 07  08 09 0A 0B 0C 0D 0E 0F
      -- -- -- -- -- -- -- --  -- -- -- -- -- -- -- --
0180:                      00                                  .        
```

#### Opcodes

```
  0: 0x0187 [0x00] END_REQSTACK()
```

### Event 65535.9

#### Metadata

| Field        | Value    |
|--------------|----------|
| Entrypoint   | 0x0188   |
| Data Size    | 19 bytes |
| Instructions | 3        |

```
      00 01 02 03 04 05 06 07  08 09 0A 0B 0C 0D 0E 0F
      -- -- -- -- -- -- -- --  -- -- -- -- -- -- -- --
0180:                          5B 11 80 F8 FF FF 7F F8          [.......
0190: FF FF 7F 64 6F 6C 30 1C  12 80 00                 ...dol0....     
```

#### Opcodes

```
  0: 0x0188 [0x5B] LOAD_EXT_SCHEDULER: Load scheduler "dol0" with entities [EventEntity, EventEntity], work=2760*
  1: 0x0197 [0x1C] WAIT(15* ticks)
  2: 0x019A [0x00] END_REQSTACK()
```

### Event 65535.10

#### Metadata

| Field        | Value    |
|--------------|----------|
| Entrypoint   | 0x019B   |
| Data Size    | 16 bytes |
| Instructions | 2        |

```
      00 01 02 03 04 05 06 07  08 09 0A 0B 0C 0D 0E 0F
      -- -- -- -- -- -- -- --  -- -- -- -- -- -- -- --
0190:                                   5B 11 80 F8 FF             [....
01A0: FF 7F F8 FF FF 7F 64 6F  6C 6C 00                 ......doll.     
```

#### Opcodes

```
  0: 0x019B [0x5B] LOAD_EXT_SCHEDULER: Load scheduler "doll" with entities [EventEntity, EventEntity], work=2760*
  1: 0x01AA [0x00] END_REQSTACK()
```

### Event 65535.11

#### Metadata

| Field        | Value    |
|--------------|----------|
| Entrypoint   | 0x01AB   |
| Data Size    | 16 bytes |
| Instructions | 2        |

```
      00 01 02 03 04 05 06 07  08 09 0A 0B 0C 0D 0E 0F
      -- -- -- -- -- -- -- --  -- -- -- -- -- -- -- --
01A0:                                   5B 11 80 F8 FF             [....
01B0: FF 7F F8 FF FF 7F 74 6C  6B 30 00                 ......tlk0.     
```

#### Opcodes

```
  0: 0x01AB [0x5B] LOAD_EXT_SCHEDULER: Load scheduler "tlk0" with entities [EventEntity, EventEntity], work=2760*
  1: 0x01BA [0x00] END_REQSTACK()
```

### Event 65535.12

#### Metadata

| Field        | Value    |
|--------------|----------|
| Entrypoint   | 0x01BB   |
| Data Size    | 19 bytes |
| Instructions | 3        |

```
      00 01 02 03 04 05 06 07  08 09 0A 0B 0C 0D 0E 0F
      -- -- -- -- -- -- -- --  -- -- -- -- -- -- -- --
01B0:                                   5B 11 80 F8 FF             [....
01C0: FF 7F F8 FF FF 7F 74 6C  6B 31 1C 13 80 00        ......tlk1....  
```

#### Opcodes

```
  0: 0x01BB [0x5B] LOAD_EXT_SCHEDULER: Load scheduler "tlk1" with entities [EventEntity, EventEntity], work=2760*
  1: 0x01CA [0x1C] WAIT(60* ticks)
  2: 0x01CD [0x00] END_REQSTACK()
```

### Event 65535.13

#### Metadata

| Field        | Value    |
|--------------|----------|
| Entrypoint   | 0x01CE   |
| Data Size    | 16 bytes |
| Instructions | 2        |

```
      00 01 02 03 04 05 06 07  08 09 0A 0B 0C 0D 0E 0F
      -- -- -- -- -- -- -- --  -- -- -- -- -- -- -- --
01C0:                                            5B 11                [.
01D0: 80 F8 FF FF 7F F8 FF FF  7F 73 6A 69 30 00        .........sji0.  
```

#### Opcodes

```
  0: 0x01CE [0x5B] LOAD_EXT_SCHEDULER: Load scheduler "sji0" with entities [EventEntity, EventEntity], work=2760*
  1: 0x01DD [0x00] END_REQSTACK()
```

### Event 65535.14

#### Metadata

| Field        | Value    |
|--------------|----------|
| Entrypoint   | 0x01DE   |
| Data Size    | 16 bytes |
| Instructions | 2        |

```
      00 01 02 03 04 05 06 07  08 09 0A 0B 0C 0D 0E 0F
      -- -- -- -- -- -- -- --  -- -- -- -- -- -- -- --
01D0:                                            5B 11                [.
01E0: 80 F8 FF FF 7F F8 FF FF  7F 73 6A 69 31 00        .........sji1.  
```

#### Opcodes

```
  0: 0x01DE [0x5B] LOAD_EXT_SCHEDULER: Load scheduler "sji1" with entities [EventEntity, EventEntity], work=2760*
  1: 0x01ED [0x00] END_REQSTACK()
```

### Event 65535.15

#### Metadata

| Field        | Value    |
|--------------|----------|
| Entrypoint   | 0x01EE   |
| Data Size    | 16 bytes |
| Instructions | 2        |

```
      00 01 02 03 04 05 06 07  08 09 0A 0B 0C 0D 0E 0F
      -- -- -- -- -- -- -- --  -- -- -- -- -- -- -- --
01E0:                                            5B 11                [.
01F0: 80 F8 FF FF 7F F8 FF FF  7F 73 6A 69 6C 00        .........sjil.  
```

#### Opcodes

```
  0: 0x01EE [0x5B] LOAD_EXT_SCHEDULER: Load scheduler "sjil" with entities [EventEntity, EventEntity], work=2760*
  1: 0x01FD [0x00] END_REQSTACK()
```

### Event 65535.16

#### Metadata

| Field        | Value    |
|--------------|----------|
| Entrypoint   | 0x01FE   |
| Data Size    | 16 bytes |
| Instructions | 2        |

```
      00 01 02 03 04 05 06 07  08 09 0A 0B 0C 0D 0E 0F
      -- -- -- -- -- -- -- --  -- -- -- -- -- -- -- --
01F0:                                            5B 11                [.
0200: 80 F8 FF FF 7F F8 FF FF  7F 6F 68 68 30 00        .........ohh0.  
```

#### Opcodes

```
  0: 0x01FE [0x5B] LOAD_EXT_SCHEDULER: Load scheduler "ohh0" with entities [EventEntity, EventEntity], work=2760*
  1: 0x020D [0x00] END_REQSTACK()
```

### Event 65535.17

#### Metadata

| Field        | Value    |
|--------------|----------|
| Entrypoint   | 0x020E   |
| Data Size    | 16 bytes |
| Instructions | 2        |

```
      00 01 02 03 04 05 06 07  08 09 0A 0B 0C 0D 0E 0F
      -- -- -- -- -- -- -- --  -- -- -- -- -- -- -- --
0200:                                            5B 11                [.
0210: 80 F8 FF FF 7F F8 FF FF  7F 6F 68 68 31 00        .........ohh1.  
```

#### Opcodes

```
  0: 0x020E [0x5B] LOAD_EXT_SCHEDULER: Load scheduler "ohh1" with entities [EventEntity, EventEntity], work=2760*
  1: 0x021D [0x00] END_REQSTACK()
```

### Event 65535.18

#### Metadata

| Field        | Value    |
|--------------|----------|
| Entrypoint   | 0x021E   |
| Data Size    | 16 bytes |
| Instructions | 2        |

```
      00 01 02 03 04 05 06 07  08 09 0A 0B 0C 0D 0E 0F
      -- -- -- -- -- -- -- --  -- -- -- -- -- -- -- --
0210:                                            5B 11                [.
0220: 80 F8 FF FF 7F F8 FF FF  7F 6F 68 68 6C 00        .........ohhl.  
```

#### Opcodes

```
  0: 0x021E [0x5B] LOAD_EXT_SCHEDULER: Load scheduler "ohhl" with entities [EventEntity, EventEntity], work=2760*
  1: 0x022D [0x00] END_REQSTACK()
```

### Event 65535.19

#### Metadata

| Field        | Value    |
|--------------|----------|
| Entrypoint   | 0x022E   |
| Data Size    | 16 bytes |
| Instructions | 2        |

```
      00 01 02 03 04 05 06 07  08 09 0A 0B 0C 0D 0E 0F
      -- -- -- -- -- -- -- --  -- -- -- -- -- -- -- --
0220:                                            5B 14                [.
0230: 80 F8 FF FF 7F F8 FF FF  7F 6F 70 30 30 00        .........op00.  
```

#### Opcodes

```
  0: 0x022E [0x5B] LOAD_EXT_SCHEDULER: Load scheduler "op00" with entities [EventEntity, EventEntity], work=2767*
  1: 0x023D [0x00] END_REQSTACK()
```

### Event 65535.20

#### Metadata

| Field        | Value    |
|--------------|----------|
| Entrypoint   | 0x023E   |
| Data Size    | 19 bytes |
| Instructions | 3        |

```
      00 01 02 03 04 05 06 07  08 09 0A 0B 0C 0D 0E 0F
      -- -- -- -- -- -- -- --  -- -- -- -- -- -- -- --
0230:                                            5B 11                [.
0240: 80 F8 FF FF 7F F8 FF FF  7F 73 6F 68 30 1C 15 80  .........soh0...
0250: 00                                                .               
```

#### Opcodes

```
  0: 0x023E [0x5B] LOAD_EXT_SCHEDULER: Load scheduler "soh0" with entities [EventEntity, EventEntity], work=2760*
  1: 0x024D [0x1C] WAIT(68* ticks)
  2: 0x0250 [0x00] END_REQSTACK()
```

### Event 65535.21

#### Metadata

| Field        | Value    |
|--------------|----------|
| Entrypoint   | 0x0251   |
| Data Size    | 21 bytes |
| Instructions | 3        |

```
      00 01 02 03 04 05 06 07  08 09 0A 0B 0C 0D 0E 0F
      -- -- -- -- -- -- -- --  -- -- -- -- -- -- -- --
0250:    C5 16 80 F8 FF FF 7F  F8 FF FF 7F 73 74 30 31   ...........st01
0260: 02 80 1C 17 80 00                                 ......          
```

#### Opcodes

```
  0: 0x0251 [0xC5] LOAD_SCHEDULED_TASK_ALT3: Load scheduler 0x80023130 for entities [EventEntity, EventEntity], work=192*, param=29811
  1: 0x0262 [0x1C] WAIT(90* ticks)
  2: 0x0265 [0x00] END_REQSTACK()
```

### Event 65535.22

#### Metadata

| Field        | Value    |
|--------------|----------|
| Entrypoint   | 0x0266   |
| Data Size    | 18 bytes |
| Instructions | 2        |

```
      00 01 02 03 04 05 06 07  08 09 0A 0B 0C 0D 0E 0F
      -- -- -- -- -- -- -- --  -- -- -- -- -- -- -- --
0260:                   C5 16  80 F8 FF FF 7F F8 FF FF        ..........
0270: 7F 73 74 30 32 02 80 00                           .st02...        
```

#### Opcodes

```
  0: 0x0266 [0xC5] LOAD_SCHEDULED_TASK_ALT3: Load scheduler 0x80023230 for entities [EventEntity, EventEntity], work=192*, param=29811
  1: 0x0277 [0x00] END_REQSTACK()
```

### Event 65535.23

#### Metadata

| Field        | Value    |
|--------------|----------|
| Entrypoint   | 0x0278   |
| Data Size    | 21 bytes |
| Instructions | 3        |

```
      00 01 02 03 04 05 06 07  08 09 0A 0B 0C 0D 0E 0F
      -- -- -- -- -- -- -- --  -- -- -- -- -- -- -- --
0270:                          C5 16 80 F8 FF FF 7F F8          ........
0280: FF FF 7F 73 74 64 31 02  80 1C 17 80 00           ...std1......   
```

#### Opcodes

```
  0: 0x0278 [0xC5] LOAD_SCHEDULED_TASK_ALT3: Load scheduler 0x80023164 for entities [EventEntity, EventEntity], work=192*, param=29811
  1: 0x0289 [0x1C] WAIT(90* ticks)
  2: 0x028C [0x00] END_REQSTACK()
```

### Event 65535.24

#### Metadata

| Field        | Value    |
|--------------|----------|
| Entrypoint   | 0x028D   |
| Data Size    | 18 bytes |
| Instructions | 2        |

```
      00 01 02 03 04 05 06 07  08 09 0A 0B 0C 0D 0E 0F
      -- -- -- -- -- -- -- --  -- -- -- -- -- -- -- --
0280:                                         C5 16 80               ...
0290: F8 FF FF 7F F8 FF FF 7F  73 74 64 32 02 80 00     ........std2... 
```

#### Opcodes

```
  0: 0x028D [0xC5] LOAD_SCHEDULED_TASK_ALT3: Load scheduler 0x80023264 for entities [EventEntity, EventEntity], work=192*, param=29811
  1: 0x029E [0x00] END_REQSTACK()
```

### Event 5

#### Metadata

| Field        | Value   |
|--------------|---------|
| Entrypoint   | 0x029F  |
| Data Size    | 1 bytes |
| Instructions | 1       |

```
      00 01 02 03 04 05 06 07  08 09 0A 0B 0C 0D 0E 0F
      -- -- -- -- -- -- -- --  -- -- -- -- -- -- -- --
0290:                                               00                 .
```

#### Opcodes

```
  0: 0x029F [0x00] END_REQSTACK()
```

### Event 65535.25

#### Metadata

| Field        | Value    |
|--------------|----------|
| Entrypoint   | 0x02A0   |
| Data Size    | 16 bytes |
| Instructions | 2        |

```
      00 01 02 03 04 05 06 07  08 09 0A 0B 0C 0D 0E 0F
      -- -- -- -- -- -- -- --  -- -- -- -- -- -- -- --
02A0: 5B 18 80 F8 FF FF 7F F8  FF FF 7F 6C 73 74 30 00  [..........lst0.
```

#### Opcodes

```
  0: 0x02A0 [0x5B] LOAD_EXT_SCHEDULER: Load scheduler "lst0" with entities [EventEntity, EventEntity], work=2769*
  1: 0x02AF [0x00] END_REQSTACK()
```

### Event 65535.26

#### Metadata

| Field        | Value    |
|--------------|----------|
| Entrypoint   | 0x02B0   |
| Data Size    | 19 bytes |
| Instructions | 3        |

```
      00 01 02 03 04 05 06 07  08 09 0A 0B 0C 0D 0E 0F
      -- -- -- -- -- -- -- --  -- -- -- -- -- -- -- --
02B0: 5B 18 80 F8 FF FF 7F F8  FF FF 7F 6C 73 74 31 1C  [..........lst1.
02C0: 19 80 00                                          ...             
```

#### Opcodes

```
  0: 0x02B0 [0x5B] LOAD_EXT_SCHEDULER: Load scheduler "lst1" with entities [EventEntity, EventEntity], work=2769*
  1: 0x02BF [0x1C] WAIT(220* ticks)
  2: 0x02C2 [0x00] END_REQSTACK()
```

### Event 65535.27

#### Metadata

| Field        | Value    |
|--------------|----------|
| Entrypoint   | 0x02C3   |
| Data Size    | 19 bytes |
| Instructions | 3        |

```
      00 01 02 03 04 05 06 07  08 09 0A 0B 0C 0D 0E 0F
      -- -- -- -- -- -- -- --  -- -- -- -- -- -- -- --
02C0:          5B 18 80 F8 FF  FF 7F F8 FF FF 7F 6C 73     [..........ls
02D0: 74 32 1C 1A 80 00                                 t2....          
```

#### Opcodes

```
  0: 0x02C3 [0x5B] LOAD_EXT_SCHEDULER: Load scheduler "lst2" with entities [EventEntity, EventEntity], work=2769*
  1: 0x02D2 [0x1C] WAIT(320* ticks)
  2: 0x02D5 [0x00] END_REQSTACK()
```

### Event 65535.28

#### Metadata

| Field        | Value    |
|--------------|----------|
| Entrypoint   | 0x02D6   |
| Data Size    | 19 bytes |
| Instructions | 3        |

```
      00 01 02 03 04 05 06 07  08 09 0A 0B 0C 0D 0E 0F
      -- -- -- -- -- -- -- --  -- -- -- -- -- -- -- --
02D0:                   5B 18  80 F8 FF FF 7F F8 FF FF        [.........
02E0: 7F 6C 73 74 33 1C 1B 80  00                       .lst3....       
```

#### Opcodes

```
  0: 0x02D6 [0x5B] LOAD_EXT_SCHEDULER: Load scheduler "lst3" with entities [EventEntity, EventEntity], work=2769*
  1: 0x02E5 [0x1C] WAIT(140* ticks)
  2: 0x02E8 [0x00] END_REQSTACK()
```

### Event 65535.29

#### Metadata

| Field        | Value    |
|--------------|----------|
| Entrypoint   | 0x02E9   |
| Data Size    | 38 bytes |
| Instructions | 6        |

```
      00 01 02 03 04 05 06 07  08 09 0A 0B 0C 0D 0E 0F
      -- -- -- -- -- -- -- --  -- -- -- -- -- -- -- --
02E0:                             59 05 F8 FF FF 7F 01           Y......
02F0: BA F8 FF FF 7F 1C 80 1D  80 1E 80 1F 80 80 F8 FF  ................
0300: FF 7F 1C 13 80 6C F8 FF  FF 7F 02 80 20 80 00     .....l...... .. 
```

#### Opcodes

```
  0: 0x02E9 [0x59] UPDATE_ENTITY_DATA: EventEntity->Render.Flags0 |= 0x200000
  1: 0x02F0 [0xBA] SET_ENTITY_POSITION(entity_id=EventEntity, pos_x=-3.729*, pos_z=43.720*, pos_y=-2.000*, direction=41.3°*)
  2: 0x02FD [0x80] LOAD_WAIT(entity=EventEntity)
  3: 0x0302 [0x1C] WAIT(60* ticks)
  4: 0x0305 [0x6C] FADE_ENTITY_COLOR(entity_id=EventEntity, end_alpha=0*, fade_time=180*)
  5: 0x030E [0x00] END_REQSTACK()
```

### Event 65535.30

#### Metadata

| Field        | Value    |
|--------------|----------|
| Entrypoint   | 0x030F   |
| Data Size    | 19 bytes |
| Instructions | 3        |

```
      00 01 02 03 04 05 06 07  08 09 0A 0B 0C 0D 0E 0F
      -- -- -- -- -- -- -- --  -- -- -- -- -- -- -- --
0300:                                               5B                 [
0310: 05 80 F8 FF FF 7F F8 FF  FF 7F 6C 62 30 30 1C 0E  ..........lb00..
0320: 80 00                                             ..              
```

#### Opcodes

```
  0: 0x030F [0x5B] LOAD_EXT_SCHEDULER: Load scheduler "lb00" with entities [EventEntity, EventEntity], work=2775*
  1: 0x031E [0x1C] WAIT(116* ticks)
  2: 0x0321 [0x00] END_REQSTACK()
```

### Event 65535.31

#### Metadata

| Field        | Value    |
|--------------|----------|
| Entrypoint   | 0x0322   |
| Data Size    | 19 bytes |
| Instructions | 3        |

```
      00 01 02 03 04 05 06 07  08 09 0A 0B 0C 0D 0E 0F
      -- -- -- -- -- -- -- --  -- -- -- -- -- -- -- --
0320:       5B 05 80 F8 FF FF  7F F8 FF FF 7F 6C 62 30    [..........lb0
0330: 31 1C 07 80 00                                    1....           
```

#### Opcodes

```
  0: 0x0322 [0x5B] LOAD_EXT_SCHEDULER: Load scheduler "lb01" with entities [EventEntity, EventEntity], work=2775*
  1: 0x0331 [0x1C] WAIT(388* ticks)
  2: 0x0334 [0x00] END_REQSTACK()
```

### Event 65535.32

#### Metadata

| Field        | Value    |
|--------------|----------|
| Entrypoint   | 0x0335   |
| Data Size    | 19 bytes |
| Instructions | 3        |

```
      00 01 02 03 04 05 06 07  08 09 0A 0B 0C 0D 0E 0F
      -- -- -- -- -- -- -- --  -- -- -- -- -- -- -- --
0330:                5B 05 80  F8 FF FF 7F F8 FF FF 7F       [..........
0340: 6C 62 30 32 1C 08 80 00                           lb02....        
```

#### Opcodes

```
  0: 0x0335 [0x5B] LOAD_EXT_SCHEDULER: Load scheduler "lb02" with entities [EventEntity, EventEntity], work=2775*
  1: 0x0344 [0x1C] WAIT(150* ticks)
  2: 0x0347 [0x00] END_REQSTACK()
```

### Event 65535.33

#### Metadata

| Field        | Value    |
|--------------|----------|
| Entrypoint   | 0x0348   |
| Data Size    | 19 bytes |
| Instructions | 3        |

```
      00 01 02 03 04 05 06 07  08 09 0A 0B 0C 0D 0E 0F
      -- -- -- -- -- -- -- --  -- -- -- -- -- -- -- --
0340:                          5B 0A 80 F8 FF FF 7F F8          [.......
0350: FF FF 7F 6C 62 30 33 1C  08 80 00                 ...lb03....     
```

#### Opcodes

```
  0: 0x0348 [0x5B] LOAD_EXT_SCHEDULER: Load scheduler "lb03" with entities [EventEntity, EventEntity], work=2776*
  1: 0x0357 [0x1C] WAIT(150* ticks)
  2: 0x035A [0x00] END_REQSTACK()
```

### Event 65535.34

#### Metadata

| Field        | Value    |
|--------------|----------|
| Entrypoint   | 0x035B   |
| Data Size    | 19 bytes |
| Instructions | 3        |

```
      00 01 02 03 04 05 06 07  08 09 0A 0B 0C 0D 0E 0F
      -- -- -- -- -- -- -- --  -- -- -- -- -- -- -- --
0350:                                   5B 0A 80 F8 FF             [....
0360: FF 7F F8 FF FF 7F 6C 62  30 34 1C 0C 80 00        ......lb04....  
```

#### Opcodes

```
  0: 0x035B [0x5B] LOAD_EXT_SCHEDULER: Load scheduler "lb04" with entities [EventEntity, EventEntity], work=2776*
  1: 0x036A [0x1C] WAIT(128* ticks)
  2: 0x036D [0x00] END_REQSTACK()
```

### Event 65535.35

#### Metadata

| Field        | Value    |
|--------------|----------|
| Entrypoint   | 0x036E   |
| Data Size    | 19 bytes |
| Instructions | 3        |

```
      00 01 02 03 04 05 06 07  08 09 0A 0B 0C 0D 0E 0F
      -- -- -- -- -- -- -- --  -- -- -- -- -- -- -- --
0360:                                            5B 0A                [.
0370: 80 F8 FF FF 7F F8 FF FF  7F 6C 62 30 35 1C 0E 80  .........lb05...
0380: 00                                                .               
```

#### Opcodes

```
  0: 0x036E [0x5B] LOAD_EXT_SCHEDULER: Load scheduler "lb05" with entities [EventEntity, EventEntity], work=2776*
  1: 0x037D [0x1C] WAIT(116* ticks)
  2: 0x0380 [0x00] END_REQSTACK()
```

### Event 65535.36

#### Metadata

| Field        | Value    |
|--------------|----------|
| Entrypoint   | 0x0381   |
| Data Size    | 21 bytes |
| Instructions | 3        |

```
      00 01 02 03 04 05 06 07  08 09 0A 0B 0C 0D 0E 0F
      -- -- -- -- -- -- -- --  -- -- -- -- -- -- -- --
0380:    C5 21 80 F8 FF FF 7F  F8 FF FF 7F 73 74 30 31   .!.........st01
0390: 02 80 1C 22 80 00                                 ..."..          
```

#### Opcodes

```
  0: 0x0381 [0xC5] LOAD_SCHEDULED_TASK_ALT3: Load scheduler 0x80023130 for entities [EventEntity, EventEntity], work=193*, param=29811
  1: 0x0392 [0x1C] WAIT(285* ticks)
  2: 0x0395 [0x00] END_REQSTACK()
```

### Event 65535.37

#### Metadata

| Field        | Value    |
|--------------|----------|
| Entrypoint   | 0x0396   |
| Data Size    | 21 bytes |
| Instructions | 3        |

```
      00 01 02 03 04 05 06 07  08 09 0A 0B 0C 0D 0E 0F
      -- -- -- -- -- -- -- --  -- -- -- -- -- -- -- --
0390:                   C5 21  80 F8 FF FF 7F F8 FF FF        .!........
03A0: 7F 73 74 30 32 02 80 1C  17 80 00                 .st02......     
```

#### Opcodes

```
  0: 0x0396 [0xC5] LOAD_SCHEDULED_TASK_ALT3: Load scheduler 0x80023230 for entities [EventEntity, EventEntity], work=193*, param=29811
  1: 0x03A7 [0x1C] WAIT(90* ticks)
  2: 0x03AA [0x00] END_REQSTACK()
```

### Event 65535.38

#### Metadata

| Field        | Value    |
|--------------|----------|
| Entrypoint   | 0x03AB   |
| Data Size    | 18 bytes |
| Instructions | 2        |

```
      00 01 02 03 04 05 06 07  08 09 0A 0B 0C 0D 0E 0F
      -- -- -- -- -- -- -- --  -- -- -- -- -- -- -- --
03A0:                                   C5 21 80 F8 FF             .!...
03B0: FF 7F F8 FF FF 7F 6B 69  6C 61 02 80 00           ......kila...   
```

#### Opcodes

```
  0: 0x03AB [0xC5] LOAD_SCHEDULED_TASK_ALT3: Load scheduler 0x8002616C for entities [EventEntity, EventEntity], work=193*, param=26987
  1: 0x03BC [0x00] END_REQSTACK()
```

### Event 65535.39

#### Metadata

| Field        | Value    |
|--------------|----------|
| Entrypoint   | 0x03BD   |
| Data Size    | 18 bytes |
| Instructions | 2        |

```
      00 01 02 03 04 05 06 07  08 09 0A 0B 0C 0D 0E 0F
      -- -- -- -- -- -- -- --  -- -- -- -- -- -- -- --
03B0:                                         C5 23 80               .#.
03C0: F8 FF FF 7F 64 31 0A 01  73 74 74 31 02 80 00     ....d1..stt1... 
```

#### Opcodes

```
  0: 0x03BD [0xC5] LOAD_SCHEDULED_TASK_ALT3: Load scheduler 0x80023174 for entities [EventEntity, Shantotto (ID: 17445220/0x010A3164)], work=200*, param=29811
  1: 0x03CE [0x00] END_REQSTACK()
```

### Event 65535.40

#### Metadata

| Field        | Value    |
|--------------|----------|
| Entrypoint   | 0x03CF   |
| Data Size    | 18 bytes |
| Instructions | 2        |

```
      00 01 02 03 04 05 06 07  08 09 0A 0B 0C 0D 0E 0F
      -- -- -- -- -- -- -- --  -- -- -- -- -- -- -- --
03C0:                                               C5                 .
03D0: 23 80 61 31 0A 01 F8 FF  FF 7F 73 74 74 33 02 80  #.a1......stt3..
03E0: 00                                                .               
```

#### Opcodes

```
  0: 0x03CF [0xC5] LOAD_SCHEDULED_TASK_ALT3: Load scheduler 0x80023374 for entities [??? (ID: 17445217/0x010A3161), EventEntity], work=200*, param=29811
  1: 0x03E0 [0x00] END_REQSTACK()
```
