# 0x7FFFFFF0 - Zone Events

## Common Data

| Field            | Value                         |
|------------------|-------------------------------|
| Zone             | Sacrificial Chamber (ID: 163) |
| Block Size       | 7220 bytes                    |
| Total Events     | 23                            |
| References Count | 217                           |

## List of Events

| Event ID                   | Entrypoint   |   Size |   Instructions |
|----------------------------|--------------|--------|----------------|
| [65535](#event-65535)      | 0x0000       |      1 |              1 |
| [65534](#event-65534)      | 0x0001       |      1 |              1 |
| [65535.1](#event-655351)   | 0x0002       |     10 |              2 |
| [65535.2](#event-655352)   | 0x000C       |     32 |              8 |
| [65535.3](#event-655353)   | 0x002C       |     10 |              2 |
| [65535.4](#event-655354)   | 0x0036       |     32 |              8 |
| [65535.5](#event-655355)   | 0x0056       |     10 |              2 |
| [65535.6](#event-655356)   | 0x0060       |     32 |              8 |
| [65535.7](#event-655357)   | 0x0080       |     10 |              2 |
| [65535.8](#event-655358)   | 0x008A       |     20 |              6 |
| [65535.9](#event-655359)   | 0x009E       |     10 |              2 |
| [32000](#event-32000)      | 0x00A8       |   2143 |            418 |
| [32002](#event-32002)      | 0x0907       |    494 |             83 |
| [32001](#event-32001)      | 0x0AF5       |   1033 |            179 |
| [32003](#event-32003)      | 0x0EFE       |   2300 |            343 |
| [65535.10](#event-6553510) | 0x17FA       |      9 |              3 |
| [4](#event-4)              | 0x1803       |      1 |              1 |
| [65535.11](#event-6553511) | 0x1804       |     15 |              5 |
| [5](#event-5)              | 0x1813       |      1 |              1 |
| [65535.12](#event-6553512) | 0x1814       |     18 |              4 |
| [65535.13](#event-6553513) | 0x1826       |     15 |              5 |
| [65535.14](#event-6553514) | 0x1835       |     15 |              5 |
| [65535.15](#event-6553515) | 0x1844       |     32 |              8 |

## DAT References (imed_data)

|   Index | Hex Value   |   Dec Value |
|---------|-------------|-------------|
|       0 | 0x49389     |      299913 |
|       1 | 0x5594E     |      350542 |
|       2 | 0x0007      |           7 |
|       3 | 0x0C13      |        3091 |
|       4 | 0x000D      |          13 |
|       5 | 0x493C7     |      299975 |
|       6 | 0x56E9F     |      355999 |
|       7 | 0xFFFFFFFF  |  4294967295 |
|       8 | 0x4941C     |      300060 |
|       9 | 0x57632     |      357938 |
|      10 | 0xFFFFFFFD  |  4294967293 |
|      11 | 0x49380     |      299904 |
|      12 | 0xFFFB1957  |  4294646103 |
|      13 | 0x7CFF      |       31999 |
|      14 | 0x03FD      |        1021 |
|      15 | 0x0028      |          40 |
|      16 | 0x49425     |      300069 |
|      17 | 0xFFFB056B  |  4294641003 |
|      18 | 0x7CF2      |       31986 |
|      19 | 0x4938B     |      299915 |
|      20 | 0xFFFAF52F  |  4294636847 |
|      21 | 0x7D2F      |       32047 |
|      22 | 0xFFFB23A4  |  4294648740 |
|      23 | 0xFFFB6B8E  |  4294667150 |
|      24 | 0x0000      |           0 |
|      25 | 0x0821      |        2081 |
|      26 | 0xFFFB0729  |  4294641449 |
|      27 | 0xFFFB6BDE  |  4294667230 |
|      28 | 0xFFFFFFF9  |  4294967289 |
|      29 | 0xFFFAF863  |  4294637667 |
|      30 | 0xFFFB6B92  |  4294667154 |
|      31 | 0x43F64     |      278372 |
|      32 | 0xFFFBC09B  |  4294688923 |
|      33 | 0x09EC      |        2540 |
|      34 | 0x000B      |          11 |
|      35 | 0x43A2C     |      277036 |
|      36 | 0xFFFBC519  |  4294690073 |
|      37 | 0x7D00      |       32000 |
|      38 | 0x000F      |          15 |
|      39 | 0x0010      |          16 |
|      40 | 0x001F      |          31 |
|      41 | 0x0001      |           1 |
|      42 | 0x1DFC      |        7676 |
|      43 | 0x1DA8      |        7592 |
|      44 | 0x0005      |           5 |
|      45 | 0x0002      |           2 |
|      46 | 0x0003      |           3 |
|      47 | 0x0004      |           4 |
|      48 | 0x1C3B      |        7227 |
|      49 | 0x00FF      |         255 |
|      50 | 0x00C8      |         200 |
|      51 | 0x0013      |          19 |
|      52 | 0x0008      |           8 |
|      53 | 0x0009      |           9 |
|      54 | 0x1C46      |        7238 |
|      55 | 0x1C47      |        7239 |
|      56 | 0x1C48      |        7240 |
|      57 | 0x1C49      |        7241 |
|      58 | 0x1C6D      |        7277 |
|      59 | 0x0006      |           6 |
|      60 | 0x000A      |          10 |
|      61 | 0x000C      |          12 |
|      62 | 0x000E      |          14 |
|      63 | 0x0011      |          17 |
|      64 | 0x0012      |          18 |
|      65 | 0x0014      |          20 |
|      66 | 0x0015      |          21 |
|      67 | 0x0016      |          22 |
|      68 | 0x0017      |          23 |
|      69 | 0x0018      |          24 |
|      70 | 0x0019      |          25 |
|      71 | 0x001A      |          26 |
|      72 | 0x001B      |          27 |
|      73 | 0x001C      |          28 |
|      74 | 0x001D      |          29 |
|      75 | 0x001E      |          30 |
|      76 | 0x1DA2      |        7586 |
|      77 | 0x1DA7      |        7591 |
|      78 | 0x1DA6      |        7590 |
|      79 | 0x003C      |          60 |
|      80 | 0x1DFA      |        7674 |
|      81 | 0x1DF9      |        7673 |
|      82 | 0x0064      |         100 |
|      83 | 0x1D8E      |        7566 |
|      84 | 0x00C1      |         193 |
|      85 | 0x0032      |          50 |
|      86 | 0x1C3E      |        7230 |
|      87 | 0x00C9      |         201 |
|      88 | 0xFFFAEFFC  |  4294635516 |
|      89 | 0xFFFB712C  |  4294668588 |
|      90 | 0x00DC      |         220 |
|      91 | 0x0150      |         336 |
|      92 | 0x00B4      |         180 |
|      93 | 0xFFF6C42B  |  4294362155 |
|      94 | 0x752B9     |      479929 |
|      95 | 0xFFFFA767  |  4294944615 |
|      96 | 0x03E0      |         992 |
|      97 | 0xFFFBFE43  |  4294704707 |
|      98 | 0x5C401     |      377857 |
|      99 | 0xFFFDE79F  |  4294829983 |
|     100 | 0x0D92      |        3474 |
|     101 | 0x47AC      |       18348 |
|     102 | 0x76E1C     |      486940 |
|     103 | 0xFFFC93B2  |  4294742962 |
|     104 | 0x00C2      |         194 |
|     105 | 0x388A9     |      231593 |
|     106 | 0x57E9E     |      360094 |
|     107 | 0xFFFD59FC  |  4294793724 |
|     108 | 0x0726      |        1830 |
|     109 | 0x872C0     |      553664 |
|     110 | 0x7FEA3     |      523939 |
|     111 | 0xFFFF6AC3  |  4294929091 |
|     112 | 0x0A65      |        2661 |
|     113 | 0x49421     |      300065 |
|     114 | 0x5561D     |      349725 |
|     115 | 0x0419      |        1049 |
|     116 | 0xFFF2A593  |  4294092179 |
|     117 | 0xFFFF548C  |  4294923404 |
|     118 | 0xFFFF442C  |  4294919212 |
|     119 | 0x0201      |         513 |
|     120 | 0xFFF478D5  |  4294211797 |
|     121 | 0x89AEB     |      563947 |
|     122 | 0xFFFE4A5D  |  4294855261 |
|     123 | 0x0DEF      |        3567 |
|     124 | 0x1E173     |      123251 |
|     125 | 0xB8221     |      754209 |
|     126 | 0xFFFD5FA4  |  4294795172 |
|     127 | 0x01B8      |         440 |
|     128 | 0xFFF81ECC  |  4294450892 |
|     129 | 0xFFF3BE05  |  4294163973 |
|     130 | 0x5E8E      |       24206 |
|     131 | 0x01B5      |         437 |
|     132 | 0x012C      |         300 |
|     133 | 0x0080      |         128 |
|     134 | 0xFFF690A7  |  4294348967 |
|     135 | 0xFFF62CE4  |  4294323428 |
|     136 | 0xFFFF9B33  |  4294941491 |
|     137 | 0x0EB1      |        3761 |
|     138 | 0xFFFAEE7D  |  4294635133 |
|     139 | 0xFFF941C6  |  4294525382 |
|     140 | 0xFFFE8CB1  |  4294872241 |
|     141 | 0x0EB0      |        3760 |
|     142 | 0xFFFFCF50  |  4294954832 |
|     143 | 0xFFF61B47  |  4294318919 |
|     144 | 0xFFFD07BB  |  4294772667 |
|     145 | 0x0EBA      |        3770 |
|     146 | 0x4EF35     |      323381 |
|     147 | 0xFFF93A6F  |  4294523503 |
|     148 | 0xFFFE5868  |  4294858856 |
|     149 | 0x0EA0      |        3744 |
|     150 | 0x92763     |      599907 |
|     151 | 0xFFF5AB97  |  4294290327 |
|     152 | 0xFFFFA837  |  4294944823 |
|     153 | 0x0EB3      |        3763 |
|     154 | 0xFFFAF7DE  |  4294637534 |
|     155 | 0xFFFB6B74  |  4294667124 |
|     156 | 0xFFFFFFF1  |  4294967281 |
|     157 | 0x07FC      |        2044 |
|     158 | 0x00A8      |         168 |
|     159 | 0x30D7B     |      200059 |
|     160 | 0xFFFFAA3A  |  4294945338 |
|     161 | 0xFFFFFF06  |  4294967046 |
|     162 | 0x0411      |        1041 |
|     163 | 0x00CA      |         202 |
|     164 | 0x837EC     |      538604 |
|     165 | 0x7A88C     |      501900 |
|     166 | 0xFFFFC98A  |  4294953354 |
|     167 | 0x0CBC      |        3260 |
|     168 | 0x00CB      |         203 |
|     169 | 0x870F5     |      553205 |
|     170 | 0x8FF41     |      589633 |
|     171 | 0xFFFFFFEB  |  4294967275 |
|     172 | 0x0587      |        1415 |
|     173 | 0x00D3      |         211 |
|     174 | 0x8AF88     |      569224 |
|     175 | 0x85E6E     |      548462 |
|     176 | 0x8FE5      |       36837 |
|     177 | 0x02A1      |         673 |
|     178 | 0x0024      |          36 |
|     179 | 0x1D90      |        7568 |
|     180 | 0x1D8F      |        7567 |
|     181 | 0x1DF8      |        7672 |
|     182 | 0x1D92      |        7570 |
|     183 | 0x1D91      |        7569 |
|     184 | 0x00E6      |         230 |
|     185 | 0x002D      |          45 |
|     186 | 0xFFFC0835  |  4294707253 |
|     187 | 0x44556     |      279894 |
|     188 | 0xFFFF8300  |  4294935296 |
|     189 | 0x0BFD      |        3069 |
|     190 | 0x0240      |         576 |
|     191 | 0x0060      |          96 |
|     192 | 0x1DFD      |        7677 |
|     193 | 0x1DFE      |        7678 |
|     194 | 0x1DFF      |        7679 |
|     195 | 0x1E00      |        7680 |
|     196 | 0x1E01      |        7681 |
|     197 | 0x1E02      |        7682 |
|     198 | 0x1E03      |        7683 |
|     199 | 0x1E04      |        7684 |
|     200 | 0x0041      |          65 |
|     201 | 0x1C3C      |        7228 |
|     202 | 0x0067      |         103 |
|     203 | 0x006A      |         106 |
|     204 | 0x006D      |         109 |
|     205 | 0x0077      |         119 |
|     206 | 0x0081      |         129 |
|     207 | 0x00D7      |         215 |
|     208 | 0x4E03      |       19971 |
|     209 | 0xFFFFFFB6  |  4294967222 |
|     210 | 0x0C05      |        3077 |
|     211 | 0x49402     |      300034 |
|     212 | 0xFFFB1C05  |  4294646789 |
|     213 | 0x040E      |        1038 |
|     214 | 0x9F60      |       40800 |
|     215 | 0x11F1      |        4593 |
|     216 | 0x88BC      |       35004 |

## String References

- **7227**: Enter the battlefield? [Enter./Decline.]
- **7228**: Leave the battlefield? [Run away./Stay.]
- **7230**: You cannot enter the battlefield at present. Please wait a little longer.
- **7238**: You are cleared to enter the battlefield, but you cannot while party members are engaged in combat.
- **7239**: You are cleared to enter the battlefield, but you cannot while party members are engaged in combat.
- **7240**: You are cleared to enter the battlefield, but you cannot while party members are engaged in combat.
- **7241**: You are cleared to enter the battlefield, but you cannot while party members are engaged in combat.
- **7277**: You do not meet the requirements to enter the battlefield. Access is denied.
- **7566**: Skip the event? [Yes./No.]
- **7567**: Battlefield clear time: $3 second[/s]!
- **7568**: Battlefield clear time: $3 minute[/s], $2 second[/s]!
- **7569**: The current battlefield clear time record is $3 second[/s].
- **7570**: The current battlefield clear time record is $3 minute[/s] $2 second[/s].
- **7586**: Only $3 [member/members] have clearance to enter the battlefield. This room has reached its maximum capacity.
- **7590**: That record is held by $5 adventurers, including %0!
- **7591**: That record is held by %0!
- **7592**: Select difficulty. [Very difficult. (Level: ???)/Difficult. (Level: ???)/Normal. (Level: $18)/Easy. (Level: $17)/Very Easy. (Level: $16)/Leave.]
- **7672**: You have broken the clear time record for "[The Temple of Uggalepih/Jungle Boogymen/Amphibian Assault/Project: Shantottofication/Whom Wilt Thou Call/$26Jungle Boogymen/$26Amphibian Assault]"!
- **7673**: The current battlefield clear time record for "[The Temple of Uggalepih/Jungle Boogymen/Amphibian Assault/Project: Shantottofication/Whom Wilt Thou Call/$26Jungle Boogymen/$26Amphibian Assault]" is $3 second[/s].
- **7674**: The current battlefield clear time record for "[The Temple of Uggalepih/Jungle Boogymen/Amphibian Assault/Project: Shantottofication/Whom Wilt Thou Call/$26Jungle Boogymen/$26Amphibian Assault]" is $3 minute[/s] $2 second[/s].
- **7676**: Which battlefield will you enter? [None./The Temple of Uggalepih./Jungle Boogymen./Amphibian Assault./Project: Shantottofication./Whom Wilt Thou Call./$26Jungle Boogymen./$26Amphibian Assault././././././././././././././././././././././././././]
- **7677**: Wait. Lay down thy blades.

## Events

### Event 65535

#### Metadata

| Field        | Value   |
|--------------|---------|
| Entrypoint   | 0x0000  |
| Data Size    | 1 bytes |
| Instructions | 1       |

```
      00 01 02 03 04 05 06 07  08 09 0A 0B 0C 0D 0E 0F
      -- -- -- -- -- -- -- --  -- -- -- -- -- -- -- --
0000: 00                                                .               
```

#### Opcodes

```
  0: 0x0000 [0x00] END_REQSTACK()
```

### Event 65534

#### Metadata

| Field        | Value   |
|--------------|---------|
| Entrypoint   | 0x0001  |
| Data Size    | 1 bytes |
| Instructions | 1       |

```
      00 01 02 03 04 05 06 07  08 09 0A 0B 0C 0D 0E 0F
      -- -- -- -- -- -- -- --  -- -- -- -- -- -- -- --
0000:    00                                              .              
```

#### Opcodes

```
  0: 0x0001 [0x00] END_REQSTACK()
```

### Event 65535.1

#### Metadata

| Field        | Value    |
|--------------|----------|
| Entrypoint   | 0x0002   |
| Data Size    | 10 bytes |
| Instructions | 2        |

```
      00 01 02 03 04 05 06 07  08 09 0A 0B 0C 0D 0E 0F
      -- -- -- -- -- -- -- --  -- -- -- -- -- -- -- --
0000:       37 00 80 01 80 02  80 03 80 00                7.........    
```

#### Opcodes

```
  0: 0x0002 [0x37] UPDATE_EVENT_POSITION_AND_DIR: x=299.913*, z=350.542*, y=0.007*, direction=271.7°*
  1: 0x000B [0x00] END_REQSTACK()
```

### Event 65535.2

#### Metadata

| Field        | Value    |
|--------------|----------|
| Entrypoint   | 0x000C   |
| Data Size    | 32 bytes |
| Instructions | 8        |

```
      00 01 02 03 04 05 06 07  08 09 0A 0B 0C 0D 0E 0F
      -- -- -- -- -- -- -- --  -- -- -- -- -- -- -- --
0000:                                      32 04 80 1F              2...
0010: 00 05 80 06 80 07 80 1F  01 27 10 18 31 0A 01 05  .........'..1...
0020: 1F 00 08 80 09 80 0A 80  1F 01 6F 00              ..........o.    
```

#### Opcodes

```
  0: 0x000C [0x32] ExtData[1]->MainSpeed = 13* * 0.1
  1: 0x000F [0x1F] MOVE_ENTITY: EventEntity moves to X=299.975*, Z=355.999*, Y=-0.001*
  2: 0x0017 [0x1F] MOVE_ENTITY: Update entity position (mode=1)
  3: 0x0019 [0x27] REQ_SET(priority=0x10, entity_id=Mahogany Door (ID: 17445144/0x010A3118), tag_num=0x05)
  4: 0x0020 [0x1F] MOVE_ENTITY: EventEntity moves to X=300.060*, Z=357.938*, Y=-0.003*
  5: 0x0028 [0x1F] MOVE_ENTITY: Update entity position (mode=1)
  6: 0x002A [0x6F] WAIT_FRAME_DELAY: Yield until WaitTime reaches zero
  7: 0x002B [0x00] END_REQSTACK()
```

### Event 65535.3

#### Metadata

| Field        | Value    |
|--------------|----------|
| Entrypoint   | 0x002C   |
| Data Size    | 10 bytes |
| Instructions | 2        |

```
      00 01 02 03 04 05 06 07  08 09 0A 0B 0C 0D 0E 0F
      -- -- -- -- -- -- -- --  -- -- -- -- -- -- -- --
0020:                                      37 0B 80 0C              7...
0030: 80 0D 80 0E 80 00                                 ......          
```

#### Opcodes

```
  0: 0x002C [0x37] UPDATE_EVENT_POSITION_AND_DIR: x=299.904*, z=-321.193*, y=31.999*, direction=89.7°*
  1: 0x0035 [0x00] END_REQSTACK()
```

### Event 65535.4

#### Metadata

| Field        | Value    |
|--------------|----------|
| Entrypoint   | 0x0036   |
| Data Size    | 32 bytes |
| Instructions | 8        |

```
      00 01 02 03 04 05 06 07  08 09 0A 0B 0C 0D 0E 0F
      -- -- -- -- -- -- -- --  -- -- -- -- -- -- -- --
0030:                   32 0F  80 1F 00 10 80 11 80 12        2.........
0040: 80 1F 01 27 10 19 31 0A  01 04 1F 00 13 80 14 80  ...'..1.........
0050: 15 80 1F 01 6F 00                                 ....o.          
```

#### Opcodes

```
  0: 0x0036 [0x32] ExtData[1]->MainSpeed = 40* * 0.1
  1: 0x0039 [0x1F] MOVE_ENTITY: EventEntity moves to X=300.069*, Z=-326.293*, Y=31.986*
  2: 0x0041 [0x1F] MOVE_ENTITY: Update entity position (mode=1)
  3: 0x0043 [0x27] REQ_SET(priority=0x10, entity_id=Mahogany Door (ID: 17445145/0x010A3119), tag_num=0x04)
  4: 0x004A [0x1F] MOVE_ENTITY: EventEntity moves to X=299.915*, Z=-330.449*, Y=32.047*
  5: 0x0052 [0x1F] MOVE_ENTITY: Update entity position (mode=1)
  6: 0x0054 [0x6F] WAIT_FRAME_DELAY: Yield until WaitTime reaches zero
  7: 0x0055 [0x00] END_REQSTACK()
```

### Event 65535.5

#### Metadata

| Field        | Value    |
|--------------|----------|
| Entrypoint   | 0x0056   |
| Data Size    | 10 bytes |
| Instructions | 2        |

```
      00 01 02 03 04 05 06 07  08 09 0A 0B 0C 0D 0E 0F
      -- -- -- -- -- -- -- --  -- -- -- -- -- -- -- --
0050:                   37 16  80 17 80 18 80 19 80 00        7.........
```

#### Opcodes

```
  0: 0x0056 [0x37] UPDATE_EVENT_POSITION_AND_DIR: x=-318.556*, z=-300.146*, y=0.000*, direction=182.9°*
  1: 0x005F [0x00] END_REQSTACK()
```

### Event 65535.6

#### Metadata

| Field        | Value    |
|--------------|----------|
| Entrypoint   | 0x0060   |
| Data Size    | 32 bytes |
| Instructions | 8        |

```
      00 01 02 03 04 05 06 07  08 09 0A 0B 0C 0D 0E 0F
      -- -- -- -- -- -- -- --  -- -- -- -- -- -- -- --
0060: 32 04 80 1F 00 1A 80 1B  80 1C 80 1F 01 27 10 1C  2............'..
0070: 31 0A 01 06 1F 00 1D 80  1E 80 18 80 1F 01 6F 00  1.............o.
```

#### Opcodes

```
  0: 0x0060 [0x32] ExtData[1]->MainSpeed = 13* * 0.1
  1: 0x0063 [0x1F] MOVE_ENTITY: EventEntity moves to X=-325.847*, Z=-300.066*, Y=-0.007*
  2: 0x006B [0x1F] MOVE_ENTITY: Update entity position (mode=1)
  3: 0x006D [0x27] REQ_SET(priority=0x10, entity_id=Mahogany Door (ID: 17445148/0x010A311C), tag_num=0x06)
  4: 0x0074 [0x1F] MOVE_ENTITY: EventEntity moves to X=-329.629*, Z=-300.142*, Y=0.000*
  5: 0x007C [0x1F] MOVE_ENTITY: Update entity position (mode=1)
  6: 0x007E [0x6F] WAIT_FRAME_DELAY: Yield until WaitTime reaches zero
  7: 0x007F [0x00] END_REQSTACK()
```

### Event 65535.7

#### Metadata

| Field        | Value    |
|--------------|----------|
| Entrypoint   | 0x0080   |
| Data Size    | 10 bytes |
| Instructions | 2        |

```
      00 01 02 03 04 05 06 07  08 09 0A 0B 0C 0D 0E 0F
      -- -- -- -- -- -- -- --  -- -- -- -- -- -- -- --
0080: 37 1F 80 20 80 0D 80 21  80 00                    7.. ...!..      
```

#### Opcodes

```
  0: 0x0080 [0x37] UPDATE_EVENT_POSITION_AND_DIR: x=278.372*, z=-278.373*, y=31.999*, direction=223.2°*
  1: 0x0089 [0x00] END_REQSTACK()
```

### Event 65535.8

#### Metadata

| Field        | Value    |
|--------------|----------|
| Entrypoint   | 0x008A   |
| Data Size    | 20 bytes |
| Instructions | 6        |

```
      00 01 02 03 04 05 06 07  08 09 0A 0B 0C 0D 0E 0F
      -- -- -- -- -- -- -- --  -- -- -- -- -- -- -- --
0080:                                32 22 80 1F 00 23            2"...#
0090: 80 24 80 25 80 1F 01 6F  1E 21 31 0A 01 00        .$.%...o.!1...  
```

#### Opcodes

```
  0: 0x008A [0x32] ExtData[1]->MainSpeed = 11* * 0.1
  1: 0x008D [0x1F] MOVE_ENTITY: EventEntity moves to X=277.036*, Z=-277.223*, Y=32.000*
  2: 0x0095 [0x1F] MOVE_ENTITY: Update entity position (mode=1)
  3: 0x0097 [0x6F] WAIT_FRAME_DELAY: Yield until WaitTime reaches zero
  4: 0x0098 [0x1E] EventEntity looks at Grav'iton (ID: 17445153/0x010A3121) and starts talking
  5: 0x009D [0x00] END_REQSTACK()
```

### Event 65535.9

#### Metadata

| Field        | Value    |
|--------------|----------|
| Entrypoint   | 0x009E   |
| Data Size    | 10 bytes |
| Instructions | 2        |

```
      00 01 02 03 04 05 06 07  08 09 0A 0B 0C 0D 0E 0F
      -- -- -- -- -- -- -- --  -- -- -- -- -- -- -- --
0090:                                            37 1F                7.
00A0: 80 20 80 0D 80 21 80 00                           . ...!..        
```

#### Opcodes

```
  0: 0x009E [0x37] UPDATE_EVENT_POSITION_AND_DIR: x=278.372*, z=-278.373*, y=31.999*, direction=223.2°*
  1: 0x00A7 [0x00] END_REQSTACK()
```

### Event 32000

#### Metadata

| Field        | Value      |
|--------------|------------|
| Entrypoint   | 0x00A8     |
| Data Size    | 2143 bytes |
| Instructions | 285        |

```
      00 01 02 03 04 05 06 07  08 09 0A 0B 0C 0D 0E 0F
      -- -- -- -- -- -- -- --  -- -- -- -- -- -- -- --
00A0:                          20 01 79 00 F0 FF FF 7F           .y.....
00B0: F0 FF FF 7F 03 02 00 02  10 03 03 00 03 10 03 05  ................
00C0: 00 04 10 03 06 00 05 10  03 0F 00 06 10 03 10 00  ................
00D0: 07 10 03 11 00 08 10 41  18 80 26 80 09 10 07 00  .......A..&.....
00E0: 41 27 80 28 80 09 10 06  10 06 01 00 02 07 00 18  A'.(............
00F0: 80 00 EB 01 03 08 00 07  80 0F 08 00 06 00 10 08  ................
0100: 00 29 80 24 2A 80 18 80  08 00 25 02 00 10 18 80  .).$*.....%.....
0110: 00 19 01 01 EC 08 01 EB  01 03 03 00 00 10 0C 03  ................
0120: 00 06 16 00 06 13 00 3E  0F 00 03 00 C7 01 06 0F  .......>........
0130: 00 06 08 00 3E 11 00 03  00 3E 01 01 45 01 3C 08  ....>....>..E.<.
0140: 00 18 80 29 80 3E 10 00  03 00 4F 01 01 56 01 3C  ...).>....O..V.<
0150: 08 00 29 80 29 80 1A A3  14 24 2B 80 2C 80 08 00  ..).)....$+.,...
0160: 25 02 00 10 18 80 00 71  01 03 0F 00 29 80 01 C4  %......q....)...
0170: 01 02 00 10 29 80 00 81  01 03 0F 00 2D 80 01 C4  ....).......-...
0180: 01 02 00 10 2D 80 00 91  01 03 0F 00 2E 80 01 C4  ....-...........
0190: 01 02 00 10 2E 80 00 A1  01 03 0F 00 2F 80 01 C4  ............/...
01A0: 01 02 00 10 2F 80 00 B1  01 03 0F 00 2C 80 01 C4  ..../.......,...
01B0: 01 02 00 10 2C 80 00 BF  01 01 EC 08 01 C4 01 03  ....,...........
01C0: 0F 00 2E 80 01 EB 01 06  0F 00 1A 06 09 02 16 00  ................
01D0: 29 80 00 EB 01 24 30 80  29 80 18 80 25 02 00 10  )....$0.)...%...
01E0: 29 80 00 EB 01 01 EC 08  01 EB 01 42 03 01 10 31  )..........B...1
01F0: 80 43 00 43 01 06 01 10  45 32 80 F0 FF FF 7F F0  .C.C....E2......
0200: FF FF 7F 66 64 6F 31 18  80 55 32 80 F0 FF FF 7F  ...fdo1..U2.....
0210: F0 FF FF 7F 66 64 6F 31  3B F0 FF FF 7F 20 10 21  ....fdo1;.... .!
0220: 10 22 10 38 33 80 02 07  00 29 80 00 45 02 03 00  .".83....)..E...
0230: 00 29 80 03 04 00 03 00  03 02 00 18 80 03 1C 00  .)..............
0240: 18 80 01 05 06 03 00 00  29 80 02 00 00 2E 80 05  ........).......
0250: B5 08 02 18 80 29 80 00  5F 02 03 00 00 05 00 40  .....).._......@
0260: 18 80 2E 80 01 10 00 00  40 2F 80 34 80 01 10 03  ........@/.4....
0270: 00 40 35 80 22 80 01 10  0F 00 06 02 10 06 03 10  .@5."...........
0280: 06 04 10 1A 7D 17 47 00  09 00 0A 00 0B 00 0C 00  ....}.G.........
0290: 47 01 03 04 00 03 10 03  02 00 04 10 03 1A 00 05  G...............
02A0: 10 03 0D 00 06 10 03 0E  00 07 10 03 1C 00 09 10  ................
02B0: 02 02 10 29 80 80 BB 02  01 A2 08 02 02 10 2F 80  ...)........../.
02C0: 80 05 03 02 00 00 29 80  80 D2 02 48 36 80 23 01  ......)....H6.#.
02D0: FF 02 02 00 00 2D 80 80  E1 02 48 37 80 23 01 FF  .....-....H7.#..
02E0: 02 02 00 00 2E 80 80 F0  02 48 38 80 23 01 FF 02  .........H8.#...
02F0: 02 00 00 2F 80 80 FF 02  48 39 80 23 01 FF 02 01  .../....H9.#....
0300: B9 08 01 A2 08 02 02 10  2C 80 80 17 03 48 3A 80  ........,....H:.
0310: 23 01 B9 08 01 A2 08 02  02 10 3B 80 80 19 05 02  #.........;.....
0320: 04 00 18 80 80 2F 03 03  05 10 3B 80 01 0F 05 02  ...../....;.....
0330: 04 00 29 80 80 3F 03 03  05 10 3B 80 01 0F 05 02  ..)..?....;.....
0340: 04 00 2D 80 80 4F 03 03  05 10 3B 80 01 0F 05 02  ..-..O....;.....
0350: 04 00 2E 80 80 5F 03 03  05 10 3B 80 01 0F 05 02  ....._....;.....
0360: 04 00 2F 80 80 6F 03 03  05 10 3B 80 01 0F 05 02  ../..o....;.....
0370: 04 00 2C 80 80 7F 03 03  05 10 3B 80 01 0F 05 02  ..,.......;.....
0380: 04 00 3B 80 80 8F 03 03  05 10 3B 80 01 0F 05 02  ..;.......;.....
0390: 04 00 02 80 80 9F 03 03  05 10 18 80 01 0F 05 02  ................
03A0: 04 00 34 80 80 AF 03 03  05 10 18 80 01 0F 05 02  ..4.............
03B0: 04 00 35 80 80 BF 03 03  05 10 18 80 01 0F 05 02  ..5.............
03C0: 04 00 3C 80 80 CF 03 03  05 10 18 80 01 0F 05 02  ..<.............
03D0: 04 00 22 80 80 DF 03 03  05 10 18 80 01 0F 05 02  ..".............
03E0: 04 00 3D 80 80 EF 03 03  05 10 18 80 01 0F 05 02  ..=.............
03F0: 04 00 04 80 80 FF 03 03  05 10 18 80 01 0F 05 02  ................
0400: 04 00 3E 80 80 0F 04 03  05 10 18 80 01 0F 05 02  ..>.............
0410: 04 00 26 80 80 1F 04 03  05 10 18 80 01 0F 05 02  ..&.............
0420: 04 00 27 80 80 2F 04 03  05 10 18 80 01 0F 05 02  ..'../..........
0430: 04 00 3F 80 80 3F 04 03  05 10 18 80 01 0F 05 02  ..?..?..........
0440: 04 00 40 80 80 4F 04 03  05 10 18 80 01 0F 05 02  ..@..O..........
0450: 04 00 33 80 80 5F 04 03  05 10 18 80 01 0F 05 02  ..3.._..........
0460: 04 00 41 80 80 6F 04 03  05 10 18 80 01 0F 05 02  ..A..o..........
0470: 04 00 42 80 80 7F 04 03  05 10 18 80 01 0F 05 02  ..B.............
0480: 04 00 43 80 80 8F 04 03  05 10 18 80 01 0F 05 02  ..C.............
0490: 04 00 44 80 80 9F 04 03  05 10 18 80 01 0F 05 02  ..D.............
04A0: 04 00 45 80 80 AF 04 03  05 10 18 80 01 0F 05 02  ..E.............
04B0: 04 00 46 80 80 BF 04 03  05 10 18 80 01 0F 05 02  ..F.............
04C0: 04 00 47 80 80 CF 04 03  05 10 18 80 01 0F 05 02  ..G.............
04D0: 04 00 48 80 80 DF 04 03  05 10 18 80 01 0F 05 02  ..H.............
04E0: 04 00 49 80 80 EF 04 03  05 10 18 80 01 0F 05 02  ..I.............
04F0: 04 00 4A 80 80 FF 04 03  05 10 18 80 01 0F 05 02  ..J.............
0500: 04 00 4B 80 80 0F 05 03  05 10 18 80 01 0F 05 48  ..K............H
0510: 4C 80 23 01 B9 08 01 A2  08 02 02 10 2E 80 80 27  L.#............'
0520: 05 01 45 02 01 A2 08 02  02 10 2D 80 80 A2 08 02  ..E.......-.....
0530: 0D 00 18 80 01 BB 05 02  13 00 18 80 01 6F 05 03  .............o..
0540: 05 10 1A 00 02 1A 00 18  80 02 4C 05 02 0D 00 29  ..........L....)
0550: 80 05 5B 05 48 4D 80 23  01 6C 05 03 06 10 0D 00  ..[.HM.#.l......
0560: 0C 06 10 03 07 10 0D 00  48 4E 80 23 01 BB 05 03  ........HN.#....
0570: 05 10 1A 00 02 1A 00 18  80 02 9B 05 02 1A 00 4F  ...............O
0580: 80 04 97 05 3F 04 10 05  10 4F 80 15 05 10 4F 80  ....?....O....O.
0590: 48 50 80 23 01 9B 05 48  51 80 23 02 0D 00 29 80  HP.#...HQ.#...).
05A0: 05 AA 05 48 4D 80 23 01  BB 05 03 06 10 0D 00 0C  ...HM.#.........
05B0: 06 10 03 07 10 0D 00 48  4E 80 23 03 03 00 04 00  .......HN.#.....
05C0: 03 14 00 52 80 07 14 00  03 00 02 02 00 14 00 00  ...R............
05D0: DA 05 03 02 00 29 80 01  DF 05 03 02 00 18 80 02  .....)..........
05E0: 02 00 18 80 00 05 06 02  0E 00 29 80 00 05 06 24  ..........)....$
05F0: 53 80 29 80 18 80 25 02  00 10 18 80 00 05 06 05  S.)...%.........
0600: 02 00 01 05 06 06 15 00  02 04 00 18 80 80 18 06  ................
0610: 03 15 00 18 80 01 FD 07  02 04 00 29 80 80 28 06  ...........)..(.
0620: 03 15 00 18 80 01 FD 07  02 04 00 2D 80 80 38 06  ...........-..8.
0630: 03 15 00 18 80 01 FD 07  02 04 00 2E 80 80 48 06  ..............H.
0640: 03 15 00 29 80 01 FD 07  02 04 00 2F 80 80 58 06  ...)......./..X.
0650: 03 15 00 18 80 01 FD 07  02 04 00 2C 80 80 68 06  ...........,..h.
0660: 03 15 00 18 80 01 FD 07  02 04 00 3B 80 80 78 06  ...........;..x.
0670: 03 15 00 18 80 01 FD 07  02 04 00 02 80 80 88 06  ................
0680: 03 15 00 18 80 01 FD 07  02 04 00 34 80 80 98 06  ...........4....
0690: 03 15 00 18 80 01 FD 07  02 04 00 35 80 80 A8 06  ...........5....
06A0: 03 15 00 18 80 01 FD 07  02 04 00 3C 80 80 B8 06  ...........<....
06B0: 03 15 00 18 80 01 FD 07  02 04 00 22 80 80 C8 06  ..........."....
06C0: 03 15 00 18 80 01 FD 07  02 04 00 3D 80 80 D8 06  ...........=....
06D0: 03 15 00 18 80 01 FD 07  02 04 00 04 80 80 E8 06  ................
06E0: 03 15 00 18 80 01 FD 07  02 04 00 3E 80 80 F8 06  ...........>....
06F0: 03 15 00 18 80 01 FD 07  02 04 00 26 80 80 08 07  ...........&....
0700: 03 15 00 18 80 01 FD 07  02 04 00 27 80 80 18 07  ...........'....
0710: 03 15 00 18 80 01 FD 07  02 04 00 3F 80 80 28 07  ...........?..(.
0720: 03 15 00 18 80 01 FD 07  02 04 00 40 80 80 38 07  ...........@..8.
0730: 03 15 00 18 80 01 FD 07  02 04 00 33 80 80 48 07  ...........3..H.
0740: 03 15 00 18 80 01 FD 07  02 04 00 41 80 80 58 07  ...........A..X.
0750: 03 15 00 18 80 01 FD 07  02 04 00 42 80 80 68 07  ...........B..h.
0760: 03 15 00 18 80 01 FD 07  02 04 00 43 80 80 78 07  ...........C..x.
0770: 03 15 00 18 80 01 FD 07  02 04 00 44 80 80 88 07  ...........D....
0780: 03 15 00 18 80 01 FD 07  02 04 00 45 80 80 98 07  ...........E....
0790: 03 15 00 18 80 01 FD 07  02 04 00 46 80 80 A8 07  ...........F....
07A0: 03 15 00 18 80 01 FD 07  02 04 00 47 80 80 B8 07  ...........G....
07B0: 03 15 00 18 80 01 FD 07  02 04 00 48 80 80 C8 07  ...........H....
07C0: 03 15 00 18 80 01 FD 07  02 04 00 49 80 80 D8 07  ...........I....
07D0: 03 15 00 18 80 01 FD 07  02 04 00 4A 80 80 E8 07  ...........J....
07E0: 03 15 00 18 80 01 FD 07  02 04 00 4B 80 80 F8 07  ...........K....
07F0: 03 15 00 18 80 01 FD 07  03 15 00 18 80 02 02 00  ................
0800: 29 80 00 33 08 5C 00 54  80 5C 01 54 80 5C 02 54  )..3.\.T.\.T.\.T
0810: 80 5C 03 54 80 02 04 00  2E 80 80 30 08 5C 00 55  .\.T.......0.\.U
0820: 80 5C 01 55 80 5C 02 55  80 5C 03 55 80 01 30 08  .\.U.\.U.\.U..0.
0830: 01 4B 08 02 15 00 18 80  00 4B 08 5C 00 54 80 5C  .K.......K.\.T.\
0840: 01 54 80 5C 02 54 80 5C  03 54 80 02 02 00 18 80  .T.\.T.\.T......
0850: 00 59 08 1A C8 10 01 92  08 6C F0 FF FF 7F 18 80  .Y.......l......
0860: 29 80 62 2D 80 F0 FF FF  7F F0 FF FF 7F 6D 61 69  ).b-.........mai
0870: 6E 18 80 45 32 80 F0 FF  FF 7F F0 FF FF 7F 6F 76  n..E2.........ov
0880: 6C 31 18 80 46 02 12 00  02 12 00 18 80 00 92 08  l1..F...........
0890: 46 00 03 01 10 52 80 07  01 10 03 00 01 B9 08 01  F....R..........
08A0: A2 08 0B 00 00 02 18 80  29 80 00 B2 08 03 00 00  ........).......
08B0: 2F 80 01 4A 02 48 56 80  23 45 57 80 F0 FF FF 7F  /..J.HV.#EW.....
08C0: F0 FF FF 7F 77 68 69 31  18 80 45 32 80 F0 FF FF  ....whi1..E2....
08D0: 7F F0 FF FF 7F 62 6C 6F  66 18 80 45 32 80 F0 FF  .....blof..E2...
08E0: FF 7F F0 FF FF 7F 66 64  69 30 18 80 02 07 00 29  ......fdi0.....)
08F0: 80 00 04 09 5C 00 18 80  5C 01 18 80 5C 02 54 80  ....\...\...\.T.
0900: 5C 03 54 80 21 00 1B                              \.T.!..         
```

#### Opcodes

```
  0: 0x00A8 [0x20] SET_CLI_EVENT_UC_FLAG: Lock player control
  1: 0x00AA [0x79] LocalPlayer looks at LocalPlayer (Basic look)
  2: 0x00B4 [0x03] ExtData[1]->WorkLocal[2] = Work_Zone[2]
  3: 0x00B9 [0x03] ExtData[1]->WorkLocal[3] = Work_Zone[3]
  4: 0x00BE [0x03] ExtData[1]->WorkLocal[5] = Work_Zone[4]
  5: 0x00C3 [0x03] ExtData[1]->WorkLocal[6] = Work_Zone[5]
  6: 0x00C8 [0x03] ExtData[1]->WorkLocal[15] = Work_Zone[6]
  7: 0x00CD [0x03] ExtData[1]->WorkLocal[16] = Work_Zone[7]
  8: 0x00D2 [0x03] ExtData[1]->WorkLocal[17] = Work_Zone[8]
  9: 0x00D7 [0x41] ExtData[1]->WorkLocal[7] = Work_Zone[9] (bits 0*-15*)
 10: 0x00E0 [0x41] Work_Zone[6] = Work_Zone[9] (bits 16*-31*)
 11: 0x00E9 [0x06] ExtData[1]->WorkLocal[1] = 0
 12: 0x00EC [0x02] IF !(ExtData[1]->WorkLocal[7] == 0*) GOTO 0x01EB
 13: 0x00F4 [0x03] ExtData[1]->WorkLocal[8] = 4294967295*
 14: 0x00F9 [0x0F] ExtData[1]->WorkLocal[8] ^= ExtData[1]->WorkLocal[6]
 15: 0x00FE [0x10] ExtData[1]->WorkLocal[8] <<= 1*
 16: 0x0103 [0x24] CREATE_DIALOG(message_id=7676*, default_option=0*, option_flags=ExtData[1]->WorkLocal[8])
    → "Which battlefield will you enter? [None./The Temple of Uggalepih./Jungle Boogymen./Amphibian Assault./Project: Shantottofication./Whom Wilt Thou Call./$26Jungle Boogymen./$26Amphibian Assault././././././././././././././././././././././././././]"
 17: 0x010A [0x25] WAIT_DIALOG_SELECT()
 18: 0x010B [0x02] IF !(Work_Zone[0] == 0*) GOTO 0x0119
 19: 0x0113 [0x01] GOTO 0x08EC

SUBROUTINE_0145:
 20: 0x0145 [0x3E] IF !(ExtData[1]->WorkLocal[16] bit ExtData[1]->WorkLocal[3]) GOTO 0x014F
 21: 0x014C [0x01] GOTO 0x0156
 22: 0x014F [0x3C] SET_BIT_FLAG_CONDITIONAL(target_work_offset=ExtData[1]->WorkLocal[8], bit_index_work_offset=1*, condition_work_offset=1*)

SUBROUTINE_0156:
 23: 0x0156 [0x1A] CALL_SUBROUTINE(address=0x14A3)
 24: 0x0159 [0x24] CREATE_DIALOG(message_id=7592*, default_option=5*, option_flags=ExtData[1]->WorkLocal[8])
    → "Select difficulty. [Very difficult. (Level: ???)/Difficult. (Level: ???)/Normal. (Level: $18)/Easy. (Level: $17)/Very Easy. (Level: $16)/Leave.]"
 25: 0x0160 [0x25] WAIT_DIALOG_SELECT()
 26: 0x0161 [0x02] IF !(Work_Zone[0] == 0*) GOTO 0x0171
 27: 0x0169 [0x03] ExtData[1]->WorkLocal[15] = 1*
 28: 0x016E [0x01] GOTO 0x01C4
 29: 0x0171 [0x02] IF !(Work_Zone[0] == 1*) GOTO 0x0181
 30: 0x0179 [0x03] ExtData[1]->WorkLocal[15] = 2*
 31: 0x017E [0x01] GOTO 0x01C4
 32: 0x0181 [0x02] IF !(Work_Zone[0] == 2*) GOTO 0x0191
 33: 0x0189 [0x03] ExtData[1]->WorkLocal[15] = 3*
 34: 0x018E [0x01] GOTO 0x01C4
 35: 0x0191 [0x02] IF !(Work_Zone[0] == 3*) GOTO 0x01A1
 36: 0x0199 [0x03] ExtData[1]->WorkLocal[15] = 4*
 37: 0x019E [0x01] GOTO 0x01C4
 38: 0x01A1 [0x02] IF !(Work_Zone[0] == 4*) GOTO 0x01B1
 39: 0x01A9 [0x03] ExtData[1]->WorkLocal[15] = 5*
 40: 0x01AE [0x01] GOTO 0x01C4
 41: 0x01B1 [0x02] IF !(Work_Zone[0] == 5*) GOTO 0x01BF
 42: 0x01B9 [0x01] GOTO 0x08EC

SUBROUTINE_01C4:
 43: 0x01C4 [0x01] GOTO 0x01EB
 44: 0x01C7 [0x06] ExtData[1]->WorkLocal[15] = 0
 45: 0x01CA [0x1A] CALL_SUBROUTINE(address=0x0906)
 46: 0x01CD [0x02] IF !(ExtData[1]->WorkLocal[22] == 1*) GOTO 0x01EB
 47: 0x01D5 [0x24] CREATE_DIALOG(message_id=7227*, default_option=1*, option_flags=0*)
    → "Enter the battlefield? [Enter./Decline.]"
 48: 0x01DC [0x25] WAIT_DIALOG_SELECT()
 49: 0x01DD [0x02] IF !(Work_Zone[0] == 1*) GOTO 0x01EB
 50: 0x01E5 [0x01] GOTO 0x08EC

SUBROUTINE_01EB:
 51: 0x01EB [0x42] SET_CLI_EVENT_CANCEL_DATA()
 52: 0x01EC [0x03] Work_Zone[1] = 255*
 53: 0x01F1 [0x43] SEND_EVENT_UPDATE: Send pending tag to server (packet 0x005B)
 54: 0x01F3 [0x43] SEND_EVENT_UPDATE: Check pending flag (skip if not pending)
 55: 0x01F5 [0x06] Work_Zone[1] = 0
 56: 0x01F8 [0x45] LOAD_SCHEDULED_TASK: Load scheduler "fdo1" with entities [LocalPlayer, LocalPlayer], work=[200*, 0*]
 57: 0x0209 [0x55] WAIT_LOAD_SCHEDULER: Wait for scheduler "fdo1" with entities [LocalPlayer, LocalPlayer], work=200*
 58: 0x0218 [0x3B] GET_ENTITY_POSITION(entity=LocalPlayer, x_destination=Work_Zone[32], y_destination=Work_Zone[33], z_destination=Work_Zone[34])
 59: 0x0223 [0x38] SET_CLIENT_EVENT_MODE(mode=19*)
 60: 0x0226 [0x02] IF !(ExtData[1]->WorkLocal[7] == 1*) GOTO 0x0245
 61: 0x022E [0x03] ExtData[1]->WorkLocal[0] = 1*
 62: 0x0233 [0x03] ExtData[1]->WorkLocal[4] = ExtData[1]->WorkLocal[3]
 63: 0x0238 [0x03] ExtData[1]->WorkLocal[2] = 0*
 64: 0x023D [0x03] ExtData[1]->WorkLocal[28] = 0*
 65: 0x0242 [0x01] GOTO 0x0605

SUBROUTINE_0245:
 66: 0x0245 [0x03] ExtData[1]->WorkLocal[0] = 1*

SUBROUTINE_024A:
 67: 0x024A [0x02] IF !(ExtData[1]->WorkLocal[0] > 3*) GOTO 0x08B5
 68: 0x0252 [0x02] IF !(0* == 1*) GOTO 0x025F
 69: 0x025A [0x03] ExtData[1]->WorkLocal[0] = ExtData[1]->WorkLocal[5]
 70: 0x025F [0x40] SET_BIT_WORK_RANGE(start_bit=0*, end_bit=3*, target=Work_Zone[1], source=ExtData[1]->WorkLocal[0])
 71: 0x0268 [0x40] SET_BIT_WORK_RANGE(start_bit=4*, end_bit=8*, target=Work_Zone[1], source=ExtData[1]->WorkLocal[3])
 72: 0x0271 [0x40] SET_BIT_WORK_RANGE(start_bit=9*, end_bit=11*, target=Work_Zone[1], source=ExtData[1]->WorkLocal[15])
 73: 0x027A [0x06] Work_Zone[2] = 0
 74: 0x027D [0x06] Work_Zone[3] = 0
 75: 0x0280 [0x06] Work_Zone[4] = 0
 76: 0x0283 [0x1A] CALL_SUBROUTINE(address=0x177D)
 77: 0x0286 [0x47] UPDATE_PLAYER_POS(ExtData[1]->WorkLocal[9], ExtData[1]->WorkLocal[10], ExtData[1]->WorkLocal[11], yaw=ExtData[1]->WorkLocal[12])
 78: 0x0290 [0x47] WAIT_PLAYER_POS_UPDATE
 79: 0x0292 [0x03] ExtData[1]->WorkLocal[4] = Work_Zone[3]
 80: 0x0297 [0x03] ExtData[1]->WorkLocal[2] = Work_Zone[4]
 81: 0x029C [0x03] ExtData[1]->WorkLocal[26] = Work_Zone[5]
 82: 0x02A1 [0x03] ExtData[1]->WorkLocal[13] = Work_Zone[6]
 83: 0x02A6 [0x03] ExtData[1]->WorkLocal[14] = Work_Zone[7]
 84: 0x02AB [0x03] ExtData[1]->WorkLocal[28] = Work_Zone[9]
 85: 0x02B0 [0x02] IF !(Work_Zone[2] == 1*) GOTO 0x02BB
 86: 0x02B8 [0x01] GOTO 0x08A2
 87: 0x02BB [0x02] IF !(Work_Zone[2] == 4*) GOTO 0x0305
 88: 0x02C3 [0x02] IF !(ExtData[1]->WorkLocal[0] == 1*) GOTO 0x02D2
 89: 0x02CB [0x48] [System] [7238*]:
    → "You are cleared to enter the battlefield, but you cannot while party members are engaged in combat."
 90: 0x02CE [0x23] WAIT_FOR_DIALOG_INTERACTION
 91: 0x02CF [0x01] GOTO 0x02FF
 92: 0x02D2 [0x02] IF !(ExtData[1]->WorkLocal[0] == 2*) GOTO 0x02E1
 93: 0x02DA [0x48] [System] [7239*]:
    → "You are cleared to enter the battlefield, but you cannot while party members are engaged in combat."
 94: 0x02DD [0x23] WAIT_FOR_DIALOG_INTERACTION
 95: 0x02DE [0x01] GOTO 0x02FF
 96: 0x02E1 [0x02] IF !(ExtData[1]->WorkLocal[0] == 3*) GOTO 0x02F0
 97: 0x02E9 [0x48] [System] [7240*]:
    → "You are cleared to enter the battlefield, but you cannot while party members are engaged in combat."
 98: 0x02EC [0x23] WAIT_FOR_DIALOG_INTERACTION
 99: 0x02ED [0x01] GOTO 0x02FF
100: 0x02F0 [0x02] IF !(ExtData[1]->WorkLocal[0] == 4*) GOTO 0x02FF
101: 0x02F8 [0x48] [System] [7241*]:
    → "You are cleared to enter the battlefield, but you cannot while party members are engaged in combat."
102: 0x02FB [0x23] WAIT_FOR_DIALOG_INTERACTION
103: 0x02FC [0x01] GOTO 0x02FF

SUBROUTINE_02FF:
104: 0x02FF [0x01] GOTO 0x08B9

SUBROUTINE_050F:
105: 0x050F [0x48] [System] [7586*]:
    → "Only $3 [member/members] have clearance to enter the battlefield. This room has reached its maximum capacity."
106: 0x0512 [0x23] WAIT_FOR_DIALOG_INTERACTION
107: 0x0513 [0x01] GOTO 0x08B9

SUBROUTINE_056C:
108: 0x056C [0x01] GOTO 0x05BB
109: 0x056F [0x03] Work_Zone[5] = ExtData[1]->WorkLocal[26]
110: 0x0574 [0x02] IF !(ExtData[1]->WorkLocal[26] <= 0*) GOTO 0x059B
111: 0x057C [0x02] IF !(ExtData[1]->WorkLocal[26] < 60*) GOTO 0x0597
112: 0x0584 [0x3F] Work_Zone[4] = Work_Zone[5] % 60*
113: 0x058B [0x15] Work_Zone[5] /= 60*
114: 0x0590 [0x48] [System] [7674*]:
    → "The current battlefield clear time record for "[The Temple of Uggalepih/Jungle Boogymen/Amphibian Assault/Project: Shantottofication/Whom Wilt Thou Call/$26Jungle Boogymen/$26Amphibian Assault]" is $3 minute[/s] $2 second[/s]."
115: 0x0593 [0x23] WAIT_FOR_DIALOG_INTERACTION
116: 0x0594 [0x01] GOTO 0x059B
117: 0x0597 [0x48] [System] [7673*]:
    → "The current battlefield clear time record for "[The Temple of Uggalepih/Jungle Boogymen/Amphibian Assault/Project: Shantottofication/Whom Wilt Thou Call/$26Jungle Boogymen/$26Amphibian Assault]" is $3 second[/s]."
118: 0x059A [0x23] WAIT_FOR_DIALOG_INTERACTION

SUBROUTINE_059B:
119: 0x059B [0x02] IF !(ExtData[1]->WorkLocal[13] > 1*) GOTO 0x05AA
120: 0x05A3 [0x48] [System] [7591*]:
    → "That record is held by %0!"
121: 0x05A6 [0x23] WAIT_FOR_DIALOG_INTERACTION
122: 0x05A7 [0x01] GOTO 0x05BB
123: 0x05AA [0x03] Work_Zone[6] = ExtData[1]->WorkLocal[13]
124: 0x05AF [0x0C] Work_Zone[6]--
125: 0x05B2 [0x03] Work_Zone[7] = ExtData[1]->WorkLocal[13]
126: 0x05B7 [0x48] [System] [7590*]:
    → "That record is held by $5 adventurers, including %0!"
127: 0x05BA [0x23] WAIT_FOR_DIALOG_INTERACTION

SUBROUTINE_05BB:
128: 0x05BB [0x03] ExtData[1]->WorkLocal[3] = ExtData[1]->WorkLocal[4]
129: 0x05C0 [0x03] ExtData[1]->WorkLocal[20] = 100*
130: 0x05C5 [0x07] ExtData[1]->WorkLocal[20] += ExtData[1]->WorkLocal[3]
131: 0x05CA [0x02] IF !(ExtData[1]->WorkLocal[2] == ExtData[1]->WorkLocal[20]) GOTO 0x05DA
132: 0x05D2 [0x03] ExtData[1]->WorkLocal[2] = 1*
133: 0x05D7 [0x01] GOTO 0x05DF
134: 0x05DA [0x03] ExtData[1]->WorkLocal[2] = 0*

SUBROUTINE_05DF:
135: 0x05DF [0x02] IF !(ExtData[1]->WorkLocal[2] == 0*) GOTO 0x0605
136: 0x05E7 [0x02] IF !(ExtData[1]->WorkLocal[14] == 1*) GOTO 0x0605
137: 0x05EF [0x24] CREATE_DIALOG(message_id=7566*, default_option=1*, option_flags=0*)
    → "Skip the event? [Yes./No.]"
138: 0x05F6 [0x25] WAIT_DIALOG_SELECT()
139: 0x05F7 [0x02] IF !(Work_Zone[0] == 0*) GOTO 0x0605
140: 0x05FF [0x05] ExtData[1]->WorkLocal[2] = 1
141: 0x0602 [0x01] GOTO 0x0605

SUBROUTINE_0605:
142: 0x0605 [0x06] ExtData[1]->WorkLocal[21] = 0
143: 0x0608 [0x02] IF !(ExtData[1]->WorkLocal[4] == 0*) GOTO 0x0618
144: 0x0610 [0x03] ExtData[1]->WorkLocal[21] = 0*
145: 0x0615 [0x01] GOTO 0x07FD
146: 0x0618 [0x02] IF !(ExtData[1]->WorkLocal[4] == 1*) GOTO 0x0628
147: 0x0620 [0x03] ExtData[1]->WorkLocal[21] = 0*
148: 0x0625 [0x01] GOTO 0x07FD
149: 0x0628 [0x02] IF !(ExtData[1]->WorkLocal[4] == 2*) GOTO 0x0638
150: 0x0630 [0x03] ExtData[1]->WorkLocal[21] = 0*
151: 0x0635 [0x01] GOTO 0x07FD
152: 0x0638 [0x02] IF !(ExtData[1]->WorkLocal[4] == 3*) GOTO 0x0648
153: 0x0640 [0x03] ExtData[1]->WorkLocal[21] = 1*
154: 0x0645 [0x01] GOTO 0x07FD
155: 0x0648 [0x02] IF !(ExtData[1]->WorkLocal[4] == 4*) GOTO 0x0658
156: 0x0650 [0x03] ExtData[1]->WorkLocal[21] = 0*
157: 0x0655 [0x01] GOTO 0x07FD
158: 0x0658 [0x02] IF !(ExtData[1]->WorkLocal[4] == 5*) GOTO 0x0668
159: 0x0660 [0x03] ExtData[1]->WorkLocal[21] = 0*
160: 0x0665 [0x01] GOTO 0x07FD
161: 0x0668 [0x02] IF !(ExtData[1]->WorkLocal[4] == 6*) GOTO 0x0678
162: 0x0670 [0x03] ExtData[1]->WorkLocal[21] = 0*
163: 0x0675 [0x01] GOTO 0x07FD
164: 0x0678 [0x02] IF !(ExtData[1]->WorkLocal[4] == 7*) GOTO 0x0688
165: 0x0680 [0x03] ExtData[1]->WorkLocal[21] = 0*
166: 0x0685 [0x01] GOTO 0x07FD
167: 0x0688 [0x02] IF !(ExtData[1]->WorkLocal[4] == 8*) GOTO 0x0698
168: 0x0690 [0x03] ExtData[1]->WorkLocal[21] = 0*
169: 0x0695 [0x01] GOTO 0x07FD
170: 0x0698 [0x02] IF !(ExtData[1]->WorkLocal[4] == 9*) GOTO 0x06A8
171: 0x06A0 [0x03] ExtData[1]->WorkLocal[21] = 0*
172: 0x06A5 [0x01] GOTO 0x07FD
173: 0x06A8 [0x02] IF !(ExtData[1]->WorkLocal[4] == 10*) GOTO 0x06B8
174: 0x06B0 [0x03] ExtData[1]->WorkLocal[21] = 0*
175: 0x06B5 [0x01] GOTO 0x07FD
176: 0x06B8 [0x02] IF !(ExtData[1]->WorkLocal[4] == 11*) GOTO 0x06C8
177: 0x06C0 [0x03] ExtData[1]->WorkLocal[21] = 0*
178: 0x06C5 [0x01] GOTO 0x07FD
179: 0x06C8 [0x02] IF !(ExtData[1]->WorkLocal[4] == 12*) GOTO 0x06D8
180: 0x06D0 [0x03] ExtData[1]->WorkLocal[21] = 0*
181: 0x06D5 [0x01] GOTO 0x07FD
182: 0x06D8 [0x02] IF !(ExtData[1]->WorkLocal[4] == 13*) GOTO 0x06E8
183: 0x06E0 [0x03] ExtData[1]->WorkLocal[21] = 0*
184: 0x06E5 [0x01] GOTO 0x07FD
185: 0x06E8 [0x02] IF !(ExtData[1]->WorkLocal[4] == 14*) GOTO 0x06F8
186: 0x06F0 [0x03] ExtData[1]->WorkLocal[21] = 0*
187: 0x06F5 [0x01] GOTO 0x07FD
188: 0x06F8 [0x02] IF !(ExtData[1]->WorkLocal[4] == 15*) GOTO 0x0708
189: 0x0700 [0x03] ExtData[1]->WorkLocal[21] = 0*
190: 0x0705 [0x01] GOTO 0x07FD
191: 0x0708 [0x02] IF !(ExtData[1]->WorkLocal[4] == 16*) GOTO 0x0718
192: 0x0710 [0x03] ExtData[1]->WorkLocal[21] = 0*
193: 0x0715 [0x01] GOTO 0x07FD
194: 0x0718 [0x02] IF !(ExtData[1]->WorkLocal[4] == 17*) GOTO 0x0728
195: 0x0720 [0x03] ExtData[1]->WorkLocal[21] = 0*
196: 0x0725 [0x01] GOTO 0x07FD
197: 0x0728 [0x02] IF !(ExtData[1]->WorkLocal[4] == 18*) GOTO 0x0738
198: 0x0730 [0x03] ExtData[1]->WorkLocal[21] = 0*
199: 0x0735 [0x01] GOTO 0x07FD
200: 0x0738 [0x02] IF !(ExtData[1]->WorkLocal[4] == 19*) GOTO 0x0748
201: 0x0740 [0x03] ExtData[1]->WorkLocal[21] = 0*
202: 0x0745 [0x01] GOTO 0x07FD
203: 0x0748 [0x02] IF !(ExtData[1]->WorkLocal[4] == 20*) GOTO 0x0758
204: 0x0750 [0x03] ExtData[1]->WorkLocal[21] = 0*
205: 0x0755 [0x01] GOTO 0x07FD
206: 0x0758 [0x02] IF !(ExtData[1]->WorkLocal[4] == 21*) GOTO 0x0768
207: 0x0760 [0x03] ExtData[1]->WorkLocal[21] = 0*
208: 0x0765 [0x01] GOTO 0x07FD
209: 0x0768 [0x02] IF !(ExtData[1]->WorkLocal[4] == 22*) GOTO 0x0778
210: 0x0770 [0x03] ExtData[1]->WorkLocal[21] = 0*
211: 0x0775 [0x01] GOTO 0x07FD
212: 0x0778 [0x02] IF !(ExtData[1]->WorkLocal[4] == 23*) GOTO 0x0788
213: 0x0780 [0x03] ExtData[1]->WorkLocal[21] = 0*
214: 0x0785 [0x01] GOTO 0x07FD
215: 0x0788 [0x02] IF !(ExtData[1]->WorkLocal[4] == 24*) GOTO 0x0798
216: 0x0790 [0x03] ExtData[1]->WorkLocal[21] = 0*
217: 0x0795 [0x01] GOTO 0x07FD
218: 0x0798 [0x02] IF !(ExtData[1]->WorkLocal[4] == 25*) GOTO 0x07A8
219: 0x07A0 [0x03] ExtData[1]->WorkLocal[21] = 0*
220: 0x07A5 [0x01] GOTO 0x07FD
221: 0x07A8 [0x02] IF !(ExtData[1]->WorkLocal[4] == 26*) GOTO 0x07B8
222: 0x07B0 [0x03] ExtData[1]->WorkLocal[21] = 0*
223: 0x07B5 [0x01] GOTO 0x07FD
224: 0x07B8 [0x02] IF !(ExtData[1]->WorkLocal[4] == 27*) GOTO 0x07C8
225: 0x07C0 [0x03] ExtData[1]->WorkLocal[21] = 0*
226: 0x07C5 [0x01] GOTO 0x07FD
227: 0x07C8 [0x02] IF !(ExtData[1]->WorkLocal[4] == 28*) GOTO 0x07D8
228: 0x07D0 [0x03] ExtData[1]->WorkLocal[21] = 0*
229: 0x07D5 [0x01] GOTO 0x07FD
230: 0x07D8 [0x02] IF !(ExtData[1]->WorkLocal[4] == 29*) GOTO 0x07E8
231: 0x07E0 [0x03] ExtData[1]->WorkLocal[21] = 0*
232: 0x07E5 [0x01] GOTO 0x07FD
233: 0x07E8 [0x02] IF !(ExtData[1]->WorkLocal[4] == 30*) GOTO 0x07F8
234: 0x07F0 [0x03] ExtData[1]->WorkLocal[21] = 0*
235: 0x07F5 [0x01] GOTO 0x07FD
236: 0x07F8 [0x03] ExtData[1]->WorkLocal[21] = 0*

SUBROUTINE_07FD:
237: 0x07FD [0x02] IF !(ExtData[1]->WorkLocal[2] == 1*) GOTO 0x0833
238: 0x0805 [0x5C] MUSIC_CONTROL: Set Idle (Day) music to song 193*
239: 0x0809 [0x5C] MUSIC_CONTROL: Set Idle (Night) music to song 193*
240: 0x080D [0x5C] MUSIC_CONTROL: Set Combat (Solo) music to song 193*
241: 0x0811 [0x5C] MUSIC_CONTROL: Set Combat (Party) music to song 193*
242: 0x0815 [0x02] IF !(ExtData[1]->WorkLocal[4] == 3*) GOTO 0x0830
243: 0x081D [0x5C] MUSIC_CONTROL: Set Idle (Day) music to song 50*
244: 0x0821 [0x5C] MUSIC_CONTROL: Set Idle (Night) music to song 50*
245: 0x0825 [0x5C] MUSIC_CONTROL: Set Combat (Solo) music to song 50*
246: 0x0829 [0x5C] MUSIC_CONTROL: Set Combat (Party) music to song 50*
247: 0x082D [0x01] GOTO 0x0830

SUBROUTINE_0830:
248: 0x0830 [0x01] GOTO 0x084B
249: 0x0833 [0x02] IF !(ExtData[1]->WorkLocal[21] == 0*) GOTO 0x084B
250: 0x083B [0x5C] MUSIC_CONTROL: Set Idle (Day) music to song 193*
251: 0x083F [0x5C] MUSIC_CONTROL: Set Idle (Night) music to song 193*
252: 0x0843 [0x5C] MUSIC_CONTROL: Set Combat (Solo) music to song 193*
253: 0x0847 [0x5C] MUSIC_CONTROL: Set Combat (Party) music to song 193*

SUBROUTINE_084B:
254: 0x084B [0x02] IF !(ExtData[1]->WorkLocal[2] == 0*) GOTO 0x0859
255: 0x0853 [0x1A] CALL_SUBROUTINE(address=0x10C8)
256: 0x0856 [0x01] GOTO 0x0892
257: 0x0859 [0x6C] FADE_ENTITY_COLOR(entity_id=LocalPlayer, end_alpha=0*, fade_time=1*)
258: 0x0862 [0x62] LOAD_EVENT_SCHEDULER: Load scheduler "main" with entities [LocalPlayer, LocalPlayer], work=[2*, 0*]
259: 0x0873 [0x45] LOAD_SCHEDULED_TASK: Load scheduler "ovl1" with entities [LocalPlayer, LocalPlayer], work=[200*, 0*]
260: 0x0884 [0x46] CAMERA_CONTROL: Query status
261: 0x0886 [0x12] 0x0200 = rand()
262: 0x0889 [0x12] 0x1800 = rand()
263: 0x088C [0x80] LOAD_WAIT(entity=Unknown NPC (ID: 1174966784/0x46089200))
264: 0x0891 [0x00] END_REQSTACK()

SUBROUTINE_0892:
265: 0x0892 [0x03] Work_Zone[1] = 100*
266: 0x0897 [0x07] Work_Zone[1] += ExtData[1]->WorkLocal[3]
267: 0x089C [0x01] GOTO 0x08B9

SUBROUTINE_08A2:
268: 0x08A2 [0x0B] ExtData[1]->WorkLocal[0]++
269: 0x08A5 [0x02] IF !(0* == 1*) GOTO 0x08B2
270: 0x08AD [0x03] ExtData[1]->WorkLocal[0] = 4*
271: 0x08B2 [0x01] GOTO 0x024A
272: 0x08B5 [0x48] [System] [7230*]:
    → "You cannot enter the battlefield at present. Please wait a little longer."
273: 0x08B8 [0x23] WAIT_FOR_DIALOG_INTERACTION

SUBROUTINE_08B9:
274: 0x08B9 [0x45] LOAD_SCHEDULED_TASK: Load scheduler "whi1" with entities [LocalPlayer, LocalPlayer], work=[201*, 0*]
275: 0x08CA [0x45] LOAD_SCHEDULED_TASK: Load scheduler "blof" with entities [LocalPlayer, LocalPlayer], work=[200*, 0*]
276: 0x08DB [0x45] LOAD_SCHEDULED_TASK: Load scheduler "fdi0" with entities [LocalPlayer, LocalPlayer], work=[200*, 0*]

SUBROUTINE_08EC:
277: 0x08EC [0x02] IF !(ExtData[1]->WorkLocal[7] == 1*) GOTO 0x0904
278: 0x08F4 [0x5C] MUSIC_CONTROL: Set Idle (Day) music to song 0*
279: 0x08F8 [0x5C] MUSIC_CONTROL: Set Idle (Night) music to song 0*
280: 0x08FC [0x5C] MUSIC_CONTROL: Set Combat (Solo) music to song 193*
281: 0x0900 [0x5C] MUSIC_CONTROL: Set Combat (Party) music to song 193*
282: 0x0904 [0x21] END_EVENT
283: 0x0905 [0x00] END_REQSTACK()

SUBROUTINE_0906:
284: 0x0906 [0x1B] RETURN
```

#### Data or dead code:

```
# Dead code (unreachable instructions):
     0x0116 [0x01] GOTO 0x01EB
# Dead code (unreachable instructions):
     0x01BC [0x01] GOTO 0x01C4
# Dead code (unreachable instructions):
     0x01E8 [0x01] GOTO 0x01EB
# Dead code (unreachable instructions):
     0x0302 [0x01] GOTO 0x08A2
     0x0314 [0x01] GOTO 0x08A2
# Dead code (unreachable instructions):
     0x0516 [0x01] GOTO 0x08A2
     0x0524 [0x01] GOTO 0x08A2
# Dead code (unreachable instructions):
     0x089F [0x01] GOTO 0x08A2
```

### Event 32002

#### Metadata

| Field        | Value     |
|--------------|-----------|
| Entrypoint   | 0x0907    |
| Data Size    | 494 bytes |
| Instructions | 83        |

```
      00 01 02 03 04 05 06 07  08 09 0A 0B 0C 0D 0E 0F
      -- -- -- -- -- -- -- --  -- -- -- -- -- -- -- --
0900:                      03  05 00 06 10 03 21 00 07         ......!..
0910: 10 03 20 00 08 10 20 01  42 3B F0 FF FF 7F 20 10  .. ... .B;.... .
0920: 21 10 22 10 3A F0 FF FF  7F 23 10 45 32 80 F0 FF  !.".:....#.E2...
0930: FF 7F F0 FF FF 7F 66 64  6F 31 18 80 55 32 80 F0  ......fdo1..U2..
0940: FF FF 7F F0 FF FF 7F 66  64 6F 31 02 18 80 29 80  .......fdo1...).
0950: 00 B2 09 02 05 00 29 80  80 6A 09 47 00 58 80 59  ......)..j.G.X.Y
0960: 80 5A 80 5B 80 47 01 01  AF 09 02 05 00 2D 80 80  .Z.[.G.......-..
0970: 81 09 47 00 58 80 59 80  5A 80 5B 80 47 01 01 AF  ..G.X.Y.Z.[.G...
0980: 09 02 05 00 2E 80 80 98  09 47 00 58 80 59 80 5A  .........G.X.Y.Z
0990: 80 5B 80 47 01 01 AF 09  02 05 00 2F 80 80 AF 09  .[.G......./....
09A0: 47 00 58 80 59 80 5A 80  5B 80 47 01 01 AF 09 01  G.X.Y.Z.[.G.....
09B0: BB 0A 02 20 00 5C 80 80  3C 0A 02 21 00 18 80 80  ... .\..<..!....
09C0: D1 09 47 00 5D 80 5E 80  5F 80 60 80 47 01 01 39  ..G.].^._.`.G..9
09D0: 0A 02 21 00 29 80 80 E8  09 47 00 61 80 62 80 63  ..!.)....G.a.b.c
09E0: 80 64 80 47 01 01 39 0A  02 21 00 2D 80 80 FF 09  .d.G..9..!.-....
09F0: 47 00 65 80 66 80 67 80  68 80 47 01 01 39 0A 02  G.e.f.g.h.G..9..
0A00: 21 00 2E 80 80 16 0A 47  00 69 80 6A 80 6B 80 6C  !......G.i.j.k.l
0A10: 80 47 01 01 39 0A 02 21  00 2F 80 80 2D 0A 47 00  .G..9..!./..-.G.
0A20: 6D 80 6E 80 6F 80 70 80  47 01 01 39 0A 47 00 71  m.n.o.p.G..9.G.q
0A30: 80 72 80 26 80 73 80 47  01 01 BB 0A 02 20 00 3B  .r.&.s.G..... .;
0A40: 80 80 AF 0A 02 21 00 29  80 80 5B 0A 47 00 74 80  .....!.)..[.G.t.
0A50: 75 80 76 80 77 80 47 01  01 AC 0A 02 21 00 2D 80  u.v.w.G.....!.-.
0A60: 80 72 0A 47 00 78 80 79  80 7A 80 7B 80 47 01 01  .r.G.x.y.z.{.G..
0A70: AC 0A 02 21 00 2E 80 80  89 0A 47 00 7C 80 7D 80  ...!......G.|.}.
0A80: 7E 80 7F 80 47 01 01 AC  0A 02 21 00 2F 80 80 A0  ~...G.....!./...
0A90: 0A 47 00 80 80 81 80 82  80 83 80 47 01 01 AC 0A  .G.........G....
0AA0: 47 00 71 80 72 80 26 80  73 80 47 01 01 BB 0A 47  G.q.r.&.s.G....G
0AB0: 00 71 80 72 80 26 80 73  80 47 01 38 33 80 1A 6F  .q.r.&.s.G.83..o
0AC0: 14 45 57 80 F0 FF FF 7F  F0 FF FF 7F 77 68 69 31  .EW.........whi1
0AD0: 18 80 45 32 80 F0 FF FF  7F F0 FF FF 7F 62 6C 6F  ..E2.........blo
0AE0: 66 18 80 5C 00 18 80 5C  01 18 80 5C 02 54 80 5C  f..\...\...\.T.\
0AF0: 03 54 80 21 00                                    .T.!.           
```

#### Opcodes

```
  0: 0x0907 [0x03] ExtData[1]->WorkLocal[5] = Work_Zone[6]
  1: 0x090C [0x03] ExtData[1]->WorkLocal[33] = Work_Zone[7]
  2: 0x0911 [0x03] ExtData[1]->WorkLocal[32] = Work_Zone[8]
  3: 0x0916 [0x20] SET_CLI_EVENT_UC_FLAG: Lock player control
  4: 0x0918 [0x42] SET_CLI_EVENT_CANCEL_DATA()
  5: 0x0919 [0x3B] GET_ENTITY_POSITION(entity=LocalPlayer, x_destination=Work_Zone[32], y_destination=Work_Zone[33], z_destination=Work_Zone[34])
  6: 0x0924 [0x3A] CONVERT_YAW_TO_BYTE(entity=LocalPlayer, result_destination=Work_Zone[35])
  7: 0x092B [0x45] LOAD_SCHEDULED_TASK: Load scheduler "fdo1" with entities [LocalPlayer, LocalPlayer], work=[200*, 0*]
  8: 0x093C [0x55] WAIT_LOAD_SCHEDULER: Wait for scheduler "fdo1" with entities [LocalPlayer, LocalPlayer], work=200*
  9: 0x094B [0x02] IF !(0* == 1*) GOTO 0x09B2
 10: 0x0953 [0x02] IF !(ExtData[1]->WorkLocal[5] == 1*) GOTO 0x096A
 11: 0x095B [0x47] UPDATE_PLAYER_POS(-331.780*, -298.708*, 0.220*, yaw=29.5°*)
 12: 0x0965 [0x47] WAIT_PLAYER_POS_UPDATE
 13: 0x0967 [0x01] GOTO 0x09AF
 14: 0x096A [0x02] IF !(ExtData[1]->WorkLocal[5] == 2*) GOTO 0x0981
 15: 0x0972 [0x47] UPDATE_PLAYER_POS(-331.780*, -298.708*, 0.220*, yaw=29.5°*)
 16: 0x097C [0x47] WAIT_PLAYER_POS_UPDATE
 17: 0x097E [0x01] GOTO 0x09AF
 18: 0x0981 [0x02] IF !(ExtData[1]->WorkLocal[5] == 3*) GOTO 0x0998
 19: 0x0989 [0x47] UPDATE_PLAYER_POS(-331.780*, -298.708*, 0.220*, yaw=29.5°*)
 20: 0x0993 [0x47] WAIT_PLAYER_POS_UPDATE
 21: 0x0995 [0x01] GOTO 0x09AF
 22: 0x0998 [0x02] IF !(ExtData[1]->WorkLocal[5] == 4*) GOTO 0x09AF
 23: 0x09A0 [0x47] UPDATE_PLAYER_POS(-331.780*, -298.708*, 0.220*, yaw=29.5°*)
 24: 0x09AA [0x47] WAIT_PLAYER_POS_UPDATE
 25: 0x09AC [0x01] GOTO 0x09AF

SUBROUTINE_09AF:
 26: 0x09AF [0x01] GOTO 0x0ABB
 27: 0x09B2 [0x02] IF !(ExtData[1]->WorkLocal[32] == 180*) GOTO 0x0A3C
 28: 0x09BA [0x02] IF !(ExtData[1]->WorkLocal[33] == 0*) GOTO 0x09D1
 29: 0x09C2 [0x47] UPDATE_PLAYER_POS(-605.141*, 479.929*, -22.681*, yaw=87.2°*)
 30: 0x09CC [0x47] WAIT_PLAYER_POS_UPDATE
 31: 0x09CE [0x01] GOTO 0x0A39
 32: 0x09D1 [0x02] IF !(ExtData[1]->WorkLocal[33] == 1*) GOTO 0x09E8
 33: 0x09D9 [0x47] UPDATE_PLAYER_POS(-262.589*, 377.857*, -137.313*, yaw=305.3°*)
 34: 0x09E3 [0x47] WAIT_PLAYER_POS_UPDATE
 35: 0x09E5 [0x01] GOTO 0x0A39
 36: 0x09E8 [0x02] IF !(ExtData[1]->WorkLocal[33] == 2*) GOTO 0x09FF
 37: 0x09F0 [0x47] UPDATE_PLAYER_POS(18.348*, 486.940*, -224.334*, yaw=17.1°*)
 38: 0x09FA [0x47] WAIT_PLAYER_POS_UPDATE
 39: 0x09FC [0x01] GOTO 0x0A39
 40: 0x09FF [0x02] IF !(ExtData[1]->WorkLocal[33] == 3*) GOTO 0x0A16
 41: 0x0A07 [0x47] UPDATE_PLAYER_POS(231.593*, 360.094*, -173.572*, yaw=160.8°*)
 42: 0x0A11 [0x47] WAIT_PLAYER_POS_UPDATE
 43: 0x0A13 [0x01] GOTO 0x0A39
 44: 0x0A16 [0x02] IF !(ExtData[1]->WorkLocal[33] == 4*) GOTO 0x0A2D
 45: 0x0A1E [0x47] UPDATE_PLAYER_POS(553.664*, 523.939*, -38.205*, yaw=233.9°*)
 46: 0x0A28 [0x47] WAIT_PLAYER_POS_UPDATE
 47: 0x0A2A [0x01] GOTO 0x0A39
 48: 0x0A2D [0x47] UPDATE_PLAYER_POS(300.065*, 349.725*, 0.015*, yaw=92.2°*)
 49: 0x0A37 [0x47] WAIT_PLAYER_POS_UPDATE

SUBROUTINE_0A39:
 50: 0x0A39 [0x01] GOTO 0x0ABB
 51: 0x0A3C [0x02] IF !(ExtData[1]->WorkLocal[32] == 6*) GOTO 0x0AAF
 52: 0x0A44 [0x02] IF !(ExtData[1]->WorkLocal[33] == 1*) GOTO 0x0A5B
 53: 0x0A4C [0x47] UPDATE_PLAYER_POS(-875.117*, -43.892*, -48.084*, yaw=45.1°*)
 54: 0x0A56 [0x47] WAIT_PLAYER_POS_UPDATE
 55: 0x0A58 [0x01] GOTO 0x0AAC
 56: 0x0A5B [0x02] IF !(ExtData[1]->WorkLocal[33] == 2*) GOTO 0x0A72
 57: 0x0A63 [0x47] UPDATE_PLAYER_POS(-755.499*, 563.947*, -112.035*, yaw=313.5°*)
 58: 0x0A6D [0x47] WAIT_PLAYER_POS_UPDATE
 59: 0x0A6F [0x01] GOTO 0x0AAC
 60: 0x0A72 [0x02] IF !(ExtData[1]->WorkLocal[33] == 3*) GOTO 0x0A89
 61: 0x0A7A [0x47] UPDATE_PLAYER_POS(123.251*, 754.209*, -172.124*, yaw=38.7°*)
 62: 0x0A84 [0x47] WAIT_PLAYER_POS_UPDATE
 63: 0x0A86 [0x01] GOTO 0x0AAC
 64: 0x0A89 [0x02] IF !(ExtData[1]->WorkLocal[33] == 4*) GOTO 0x0AA0
 65: 0x0A91 [0x47] UPDATE_PLAYER_POS(-516.404*, -803.323*, 24.206*, yaw=38.4°*)
 66: 0x0A9B [0x47] WAIT_PLAYER_POS_UPDATE
 67: 0x0A9D [0x01] GOTO 0x0AAC
 68: 0x0AA0 [0x47] UPDATE_PLAYER_POS(300.065*, 349.725*, 0.015*, yaw=92.2°*)
 69: 0x0AAA [0x47] WAIT_PLAYER_POS_UPDATE

SUBROUTINE_0AAC:
 70: 0x0AAC [0x01] GOTO 0x0ABB
 71: 0x0AAF [0x47] UPDATE_PLAYER_POS(300.065*, 349.725*, 0.015*, yaw=92.2°*)
 72: 0x0AB9 [0x47] WAIT_PLAYER_POS_UPDATE

SUBROUTINE_0ABB:
 73: 0x0ABB [0x38] SET_CLIENT_EVENT_MODE(mode=19*)
 74: 0x0ABE [0x1A] CALL_SUBROUTINE(address=0x146F)
 75: 0x0AC1 [0x45] LOAD_SCHEDULED_TASK: Load scheduler "whi1" with entities [LocalPlayer, LocalPlayer], work=[201*, 0*]
 76: 0x0AD2 [0x45] LOAD_SCHEDULED_TASK: Load scheduler "blof" with entities [LocalPlayer, LocalPlayer], work=[200*, 0*]
 77: 0x0AE3 [0x5C] MUSIC_CONTROL: Set Idle (Day) music to song 0*
 78: 0x0AE7 [0x5C] MUSIC_CONTROL: Set Idle (Night) music to song 0*
 79: 0x0AEB [0x5C] MUSIC_CONTROL: Set Combat (Solo) music to song 193*
 80: 0x0AEF [0x5C] MUSIC_CONTROL: Set Combat (Party) music to song 193*
 81: 0x0AF3 [0x21] END_EVENT
 82: 0x0AF4 [0x00] END_REQSTACK()
```

### Event 32001

#### Metadata

| Field        | Value      |
|--------------|------------|
| Entrypoint   | 0x0AF5     |
| Data Size    | 1033 bytes |
| Instructions | 177        |

```
      00 01 02 03 04 05 06 07  08 09 0A 0B 0C 0D 0E 0F
      -- -- -- -- -- -- -- --  -- -- -- -- -- -- -- --
0AF0:                79 00 F0  FF FF 7F F0 FF FF 7F 03       y..........
0B00: 21 00 02 10 03 1A 00 03  10 03 1B 00 05 10 03 20  !.............. 
0B10: 00 06 10 03 19 00 07 10  03 17 00 08 10 02 17 00  ................
0B20: 2E 80 04 2A 0B 03 17 00  18 80 03 1C 00 09 10 20  ...*........... 
0B30: 01 42 3B F0 FF FF 7F 20  10 21 10 22 10 3A F0 FF  .B;.... .!.".:..
0B40: FF 7F 23 10 02 20 00 5C  80 01 4F 0B 1C 84 80 45  ..#.. .\..O....E
0B50: 57 80 F0 FF FF 7F F0 FF  FF 7F 77 68 69 31 18 80  W.........whi1..
0B60: 45 32 80 F0 FF FF 7F F0  FF FF 7F 62 6C 6F 66 18  E2.........blof.
0B70: 80 45 32 80 F0 FF FF 7F  F0 FF FF 7F 66 64 6F 31  .E2.........fdo1
0B80: 18 80 55 32 80 F0 FF FF  7F F0 FF FF 7F 66 64 6F  ..U2.........fdo
0B90: 31 6C F0 FF FF 7F 85 80  29 80 06 01 10 02 17 00  1l......).......
0BA0: 18 80 03 A8 0B 01 F6 0C  02 20 00 5C 80 80 32 0C  ......... .\..2.
0BB0: 02 21 00 18 80 80 C7 0B  47 00 86 80 87 80 88 80  .!......G.......
0BC0: 89 80 47 01 01 2F 0C 02  21 00 29 80 80 DE 0B 47  ..G../..!.)....G
0BD0: 00 8A 80 8B 80 8C 80 8D  80 47 01 01 2F 0C 02 21  .........G../..!
0BE0: 00 2D 80 80 F5 0B 47 00  8E 80 8F 80 90 80 91 80  .-....G.........
0BF0: 47 01 01 2F 0C 02 21 00  2E 80 80 0C 0C 47 00 92  G../..!......G..
0C00: 80 93 80 94 80 95 80 47  01 01 2F 0C 02 21 00 2F  .......G../..!./
0C10: 80 80 23 0C 47 00 96 80  97 80 98 80 99 80 47 01  ..#.G.........G.
0C20: 01 2F 0C 47 00 9A 80 9B  80 9C 80 9D 80 47 01 01  ./.G.........G..
0C30: F6 0C 02 20 00 9E 80 80  60 0C 02 19 00 18 80 80  ... ....`.......
0C40: 51 0C 47 00 9A 80 9B 80  9C 80 9D 80 47 01 01 5D  Q.G.........G..]
0C50: 0C 47 00 9F 80 A0 80 A1  80 A2 80 47 01 01 F6 0C  .G.........G....
0C60: 02 20 00 A3 80 80 8E 0C  02 19 00 2F 80 80 7F 0C  . ........./....
0C70: 47 00 A4 80 A5 80 A6 80  A7 80 47 01 01 8B 0C 47  G.........G....G
0C80: 00 9A 80 9B 80 9C 80 9D  80 47 01 01 F6 0C 02 20  .........G..... 
0C90: 00 A8 80 80 BC 0C 02 19  00 2F 80 80 AD 0C 47 00  ........./....G.
0CA0: A9 80 AA 80 AB 80 AC 80  47 01 01 B9 0C 47 00 9A  ........G....G..
0CB0: 80 9B 80 9C 80 9D 80 47  01 01 F6 0C 02 20 00 AD  .......G..... ..
0CC0: 80 80 EA 0C 02 19 00 2E  80 80 DB 0C 47 00 AE 80  ............G...
0CD0: AF 80 B0 80 B1 80 47 01  01 E7 0C 47 00 9A 80 9B  ......G....G....
0CE0: 80 9C 80 9D 80 47 01 01  F6 0C 47 00 9A 80 9B 80  .....G....G.....
0CF0: 9C 80 9D 80 47 01 38 33  80 02 17 00 2D 80 00 04  ....G.83....-...
0D00: 0D 01 1F 0D 02 17 00 29  80 00 CF 0D 1C 26 80 24  .......).....&.$
0D10: 53 80 29 80 18 80 25 02  00 10 18 80 00 CF 0D 02  S.)...%.........
0D20: 20 00 5C 80 00 8B 0D 02  21 00 18 80 80 39 0D 36   .\.....!....9.6
0D30: 86 80 87 80 88 80 01 88  0D 02 21 00 29 80 80 4B  ..........!.)..K
0D40: 0D 36 8A 80 8B 80 8C 80  01 88 0D 02 21 00 2D 80  .6..........!.-.
0D50: 80 5D 0D 36 8E 80 8F 80  90 80 01 88 0D 02 21 00  .].6..........!.
0D60: 2E 80 80 6F 0D 36 92 80  93 80 94 80 01 88 0D 02  ...o.6..........
0D70: 21 00 2F 80 80 81 0D 36  96 80 97 80 98 80 01 88  !./....6........
0D80: 0D 36 9A 80 9B 80 9C 80  01 94 0D 37 9A 80 9B 80  .6.........7....
0D90: 9C 80 9D 80 80 F0 FF FF  7F 62 2D 80 F0 FF FF 7F  .........b-.....
0DA0: F0 FF FF 7F 6D 61 69 6E  18 80 45 32 80 F0 FF FF  ....main..E2....
0DB0: 7F F0 FF FF 7F 66 64 69  32 18 80 46 02 12 00 02  .....fdi2..F....
0DC0: 12 00 18 80 00 C9 0D 46  00 01 F6 0D 01 CF 0D 02  .......F........
0DD0: 17 00 07 80 04 E8 0D 5C  00 54 80 5C 01 54 80 5C  .......\.T.\.T.\
0DE0: 02 54 80 5C 03 54 80 9A  1A 86 11 02 17 00 18 80  .T.\.T..........
0DF0: 03 F6 0D 01 96 0E 02 20  00 B2 80 80 01 0E 01 01  ....... ........
0E00: 0E 02 20 00 3F 80 80 0C  0E 01 96 0E 02 20 00 33  .. .?........ .3
0E10: 80 80 17 0E 01 96 0E 02  20 00 42 80 80 22 0E 01  ........ .B.."..
0E20: 96 0E 02 20 00 44 80 80  2D 0E 01 96 0E 03 05 10  ... .D..-.......
0E30: 1B 00 02 05 10 18 80 02  96 0E 02 05 10 4F 80 04  .............O..
0E40: 55 0E 3F 04 10 05 10 4F  80 15 05 10 4F 80 48 B3  U.?....O....O.H.
0E50: 80 23 01 59 0E 48 B4 80  23 02 1B 00 1A 00 05 6D  .#.Y.H..#......m
0E60: 0E 03 07 10 19 00 48 B5  80 23 01 96 0E 02 1A 00  ......H..#......
0E70: 4F 80 04 8D 0E 03 05 10  1A 00 3F 04 10 05 10 4F  O.........?....O
0E80: 80 15 05 10 4F 80 48 B6  80 23 01 96 0E 03 05 10  ....O.H..#......
0E90: 1A 00 48 B7 80 23 02 18  00 18 80 00 AE 0E 5C 00  ..H..#........\.
0EA0: 18 80 5C 01 18 80 5C 02  54 80 5C 03 54 80 02 17  ..\...\.T.\.T...
0EB0: 00 18 80 03 D7 0E 45 32  80 F0 FF FF 7F F0 FF FF  ......E2........
0EC0: 7F 66 64 69 32 18 80 5C  00 18 80 5C 01 18 80 5C  .fdi2..\...\...\
0ED0: 02 54 80 5C 03 54 80 06  18 00 45 57 80 F0 FF FF  .T.\.T....EW....
0EE0: 7F F0 FF FF 7F 77 68 69  31 18 80 45 32 80 F0 FF  .....whi1..E2...
0EF0: FF 7F F0 FF FF 7F 62 6C  6F 66 18 80 21 00        ......blof..!.  
```

#### Opcodes

```
  0: 0x0AF5 [0x79] LocalPlayer looks at LocalPlayer (Basic look)
  1: 0x0AFF [0x03] ExtData[1]->WorkLocal[33] = Work_Zone[2]
  2: 0x0B04 [0x03] ExtData[1]->WorkLocal[26] = Work_Zone[3]
  3: 0x0B09 [0x03] ExtData[1]->WorkLocal[27] = Work_Zone[5]
  4: 0x0B0E [0x03] ExtData[1]->WorkLocal[32] = Work_Zone[6]
  5: 0x0B13 [0x03] ExtData[1]->WorkLocal[25] = Work_Zone[7]
  6: 0x0B18 [0x03] ExtData[1]->WorkLocal[23] = Work_Zone[8]
  7: 0x0B1D [0x02] IF !(ExtData[1]->WorkLocal[23] < 3*) GOTO 0x0B2A
  8: 0x0B25 [0x03] ExtData[1]->WorkLocal[23] = 0*
  9: 0x0B2A [0x03] ExtData[1]->WorkLocal[28] = Work_Zone[9]
 10: 0x0B2F [0x20] SET_CLI_EVENT_UC_FLAG: Lock player control
 11: 0x0B31 [0x42] SET_CLI_EVENT_CANCEL_DATA()
 12: 0x0B32 [0x3B] GET_ENTITY_POSITION(entity=LocalPlayer, x_destination=Work_Zone[32], y_destination=Work_Zone[33], z_destination=Work_Zone[34])
 13: 0x0B3D [0x3A] CONVERT_YAW_TO_BYTE(entity=LocalPlayer, result_destination=Work_Zone[35])
 14: 0x0B44 [0x02] IF !(ExtData[1]->WorkLocal[32] == 180*) GOTO 0x0B4F
 15: 0x0B4C [0x1C] WAIT(300* ticks)
 16: 0x0B4F [0x45] LOAD_SCHEDULED_TASK: Load scheduler "whi1" with entities [LocalPlayer, LocalPlayer], work=[201*, 0*]
 17: 0x0B60 [0x45] LOAD_SCHEDULED_TASK: Load scheduler "blof" with entities [LocalPlayer, LocalPlayer], work=[200*, 0*]
 18: 0x0B71 [0x45] LOAD_SCHEDULED_TASK: Load scheduler "fdo1" with entities [LocalPlayer, LocalPlayer], work=[200*, 0*]
 19: 0x0B82 [0x55] WAIT_LOAD_SCHEDULER: Wait for scheduler "fdo1" with entities [LocalPlayer, LocalPlayer], work=200*
 20: 0x0B91 [0x6C] FADE_ENTITY_COLOR(entity_id=LocalPlayer, end_alpha=128*, fade_time=1*)
 21: 0x0B9A [0x06] Work_Zone[1] = 0
 22: 0x0B9D [0x02] IF !(ExtData[1]->WorkLocal[23] >= 0*) GOTO 0x0BA8
 23: 0x0BA5 [0x01] GOTO 0x0CF6
 24: 0x0BA8 [0x02] IF !(ExtData[1]->WorkLocal[32] == 180*) GOTO 0x0C32
 25: 0x0BB0 [0x02] IF !(ExtData[1]->WorkLocal[33] == 0*) GOTO 0x0BC7
 26: 0x0BB8 [0x47] UPDATE_PLAYER_POS(-618.329*, -643.868*, -25.805*, yaw=330.5°*)
 27: 0x0BC2 [0x47] WAIT_PLAYER_POS_UPDATE
 28: 0x0BC4 [0x01] GOTO 0x0C2F
 29: 0x0BC7 [0x02] IF !(ExtData[1]->WorkLocal[33] == 1*) GOTO 0x0BDE
 30: 0x0BCF [0x47] UPDATE_PLAYER_POS(-332.163*, -441.914*, -95.055*, yaw=330.5°*)
 31: 0x0BD9 [0x47] WAIT_PLAYER_POS_UPDATE
 32: 0x0BDB [0x01] GOTO 0x0C2F
 33: 0x0BDE [0x02] IF !(ExtData[1]->WorkLocal[33] == 2*) GOTO 0x0BF5
 34: 0x0BE6 [0x47] UPDATE_PLAYER_POS(-12.464*, -648.377*, -194.629*, yaw=331.3°*)
 35: 0x0BF0 [0x47] WAIT_PLAYER_POS_UPDATE
 36: 0x0BF2 [0x01] GOTO 0x0C2F
 37: 0x0BF5 [0x02] IF !(ExtData[1]->WorkLocal[33] == 3*) GOTO 0x0C0C
 38: 0x0BFD [0x47] UPDATE_PLAYER_POS(323.381*, -443.793*, -108.440*, yaw=329.1°*)
 39: 0x0C07 [0x47] WAIT_PLAYER_POS_UPDATE
 40: 0x0C09 [0x01] GOTO 0x0C2F
 41: 0x0C0C [0x02] IF !(ExtData[1]->WorkLocal[33] == 4*) GOTO 0x0C23
 42: 0x0C14 [0x47] UPDATE_PLAYER_POS(599.907*, -676.969*, -22.473*, yaw=330.7°*)
 43: 0x0C1E [0x47] WAIT_PLAYER_POS_UPDATE
 44: 0x0C20 [0x01] GOTO 0x0C2F
 45: 0x0C23 [0x47] UPDATE_PLAYER_POS(-329.762*, -300.172*, -0.015*, yaw=179.6°*)
 46: 0x0C2D [0x47] WAIT_PLAYER_POS_UPDATE

SUBROUTINE_0C2F:
 47: 0x0C2F [0x01] GOTO 0x0CF6
 48: 0x0C32 [0x02] IF !(ExtData[1]->WorkLocal[32] == 168*) GOTO 0x0C60
 49: 0x0C3A [0x02] IF !(ExtData[1]->WorkLocal[25] == 0*) GOTO 0x0C51
 50: 0x0C42 [0x47] UPDATE_PLAYER_POS(-329.762*, -300.172*, -0.015*, yaw=179.6°*)
 51: 0x0C4C [0x47] WAIT_PLAYER_POS_UPDATE
 52: 0x0C4E [0x01] GOTO 0x0C5D
 53: 0x0C51 [0x47] UPDATE_PLAYER_POS(200.059*, -21.958*, -0.250*, yaw=91.5°*)
 54: 0x0C5B [0x47] WAIT_PLAYER_POS_UPDATE

SUBROUTINE_0C5D:
 55: 0x0C5D [0x01] GOTO 0x0CF6
 56: 0x0C60 [0x02] IF !(ExtData[1]->WorkLocal[32] == 202*) GOTO 0x0C8E
 57: 0x0C68 [0x02] IF !(ExtData[1]->WorkLocal[25] == 4*) GOTO 0x0C7F
 58: 0x0C70 [0x47] UPDATE_PLAYER_POS(538.604*, 501.900*, -13.942*, yaw=286.5°*)
 59: 0x0C7A [0x47] WAIT_PLAYER_POS_UPDATE
 60: 0x0C7C [0x01] GOTO 0x0C8B
 61: 0x0C7F [0x47] UPDATE_PLAYER_POS(-329.762*, -300.172*, -0.015*, yaw=179.6°*)
 62: 0x0C89 [0x47] WAIT_PLAYER_POS_UPDATE

SUBROUTINE_0C8B:
 63: 0x0C8B [0x01] GOTO 0x0CF6
 64: 0x0C8E [0x02] IF !(ExtData[1]->WorkLocal[32] == 203*) GOTO 0x0CBC
 65: 0x0C96 [0x02] IF !(ExtData[1]->WorkLocal[25] == 4*) GOTO 0x0CAD
 66: 0x0C9E [0x47] UPDATE_PLAYER_POS(553.205*, 589.633*, -0.021*, yaw=124.4°*)
 67: 0x0CA8 [0x47] WAIT_PLAYER_POS_UPDATE
 68: 0x0CAA [0x01] GOTO 0x0CB9
 69: 0x0CAD [0x47] UPDATE_PLAYER_POS(-329.762*, -300.172*, -0.015*, yaw=179.6°*)
 70: 0x0CB7 [0x47] WAIT_PLAYER_POS_UPDATE

SUBROUTINE_0CB9:
 71: 0x0CB9 [0x01] GOTO 0x0CF6
 72: 0x0CBC [0x02] IF !(ExtData[1]->WorkLocal[32] == 211*) GOTO 0x0CEA
 73: 0x0CC4 [0x02] IF !(ExtData[1]->WorkLocal[25] == 3*) GOTO 0x0CDB
 74: 0x0CCC [0x47] UPDATE_PLAYER_POS(569.224*, 548.462*, 36.837*, yaw=59.1°*)
 75: 0x0CD6 [0x47] WAIT_PLAYER_POS_UPDATE
 76: 0x0CD8 [0x01] GOTO 0x0CE7
 77: 0x0CDB [0x47] UPDATE_PLAYER_POS(-329.762*, -300.172*, -0.015*, yaw=179.6°*)
 78: 0x0CE5 [0x47] WAIT_PLAYER_POS_UPDATE

SUBROUTINE_0CE7:
 79: 0x0CE7 [0x01] GOTO 0x0CF6
 80: 0x0CEA [0x47] UPDATE_PLAYER_POS(-329.762*, -300.172*, -0.015*, yaw=179.6°*)
 81: 0x0CF4 [0x47] WAIT_PLAYER_POS_UPDATE

SUBROUTINE_0CF6:
 82: 0x0CF6 [0x38] SET_CLIENT_EVENT_MODE(mode=19*)
 83: 0x0CF9 [0x02] IF !(ExtData[1]->WorkLocal[23] == 2*) GOTO 0x0D04
 84: 0x0D01 [0x01] GOTO 0x0D1F
 85: 0x0D04 [0x02] IF !(ExtData[1]->WorkLocal[23] == 1*) GOTO 0x0DCF
 86: 0x0D0C [0x1C] WAIT(15* ticks)
 87: 0x0D0F [0x24] CREATE_DIALOG(message_id=7566*, default_option=1*, option_flags=0*)
    → "Skip the event? [Yes./No.]"
 88: 0x0D16 [0x25] WAIT_DIALOG_SELECT()
 89: 0x0D17 [0x02] IF !(Work_Zone[0] == 0*) GOTO 0x0DCF

SUBROUTINE_0D1F:
 90: 0x0D1F [0x02] IF !(ExtData[1]->WorkLocal[32] == 180*) GOTO 0x0D8B
 91: 0x0D27 [0x02] IF !(ExtData[1]->WorkLocal[33] == 0*) GOTO 0x0D39
 92: 0x0D2F [0x36] SET_ENTITY_EVENT_POSITION(pos_x=-618.329*, pos_z=-643.868*, pos_y=-25.805*)
 93: 0x0D36 [0x01] GOTO 0x0D88
 94: 0x0D39 [0x02] IF !(ExtData[1]->WorkLocal[33] == 1*) GOTO 0x0D4B
 95: 0x0D41 [0x36] SET_ENTITY_EVENT_POSITION(pos_x=-332.163*, pos_z=-441.914*, pos_y=-95.055*)
 96: 0x0D48 [0x01] GOTO 0x0D88
 97: 0x0D4B [0x02] IF !(ExtData[1]->WorkLocal[33] == 2*) GOTO 0x0D5D
 98: 0x0D53 [0x36] SET_ENTITY_EVENT_POSITION(pos_x=-12.464*, pos_z=-648.377*, pos_y=-194.629*)
 99: 0x0D5A [0x01] GOTO 0x0D88
100: 0x0D5D [0x02] IF !(ExtData[1]->WorkLocal[33] == 3*) GOTO 0x0D6F
101: 0x0D65 [0x36] SET_ENTITY_EVENT_POSITION(pos_x=323.381*, pos_z=-443.793*, pos_y=-108.440*)
102: 0x0D6C [0x01] GOTO 0x0D88
103: 0x0D6F [0x02] IF !(ExtData[1]->WorkLocal[33] == 4*) GOTO 0x0D81
104: 0x0D77 [0x36] SET_ENTITY_EVENT_POSITION(pos_x=599.907*, pos_z=-676.969*, pos_y=-22.473*)
105: 0x0D7E [0x01] GOTO 0x0D88
106: 0x0D81 [0x36] SET_ENTITY_EVENT_POSITION(pos_x=-329.762*, pos_z=-300.172*, pos_y=-0.015*)

SUBROUTINE_0D88:
107: 0x0D88 [0x01] GOTO 0x0D94
108: 0x0D8B [0x37] UPDATE_EVENT_POSITION_AND_DIR: x=-329.762*, z=-300.172*, y=-0.015*, direction=179.6°*

SUBROUTINE_0D94:
109: 0x0D94 [0x80] LOAD_WAIT(entity=LocalPlayer)
110: 0x0D99 [0x62] LOAD_EVENT_SCHEDULER: Load scheduler "main" with entities [LocalPlayer, LocalPlayer], work=[2*, 0*]
111: 0x0DAA [0x45] LOAD_SCHEDULED_TASK: Load scheduler "fdi2" with entities [LocalPlayer, LocalPlayer], work=[200*, 0*]
112: 0x0DBB [0x46] CAMERA_CONTROL: Query status
113: 0x0DBD [0x12] 0x0200 = rand()
114: 0x0DC0 [0x12] 0x1800 = rand()
115: 0x0DC3 [0x80] LOAD_WAIT(entity=Unknown NPC (ID: 1175308544/0x460DC900))
116: 0x0DC8 [0x00] END_REQSTACK()

SUBROUTINE_0DCF:
117: 0x0DCF [0x02] IF !(ExtData[1]->WorkLocal[23] < 4294967295*) GOTO 0x0DE8
118: 0x0DD7 [0x5C] MUSIC_CONTROL: Set Idle (Day) music to song 193*
119: 0x0DDB [0x5C] MUSIC_CONTROL: Set Idle (Night) music to song 193*
120: 0x0DDF [0x5C] MUSIC_CONTROL: Set Combat (Solo) music to song 193*
121: 0x0DE3 [0x5C] MUSIC_CONTROL: Set Combat (Party) music to song 193*
122: 0x0DE7 [0x9A] WAIT_MUSIC_SERVER()
123: 0x0DE8 [0x1A] CALL_SUBROUTINE(address=0x1186)
124: 0x0DEB [0x02] IF !(ExtData[1]->WorkLocal[23] >= 0*) GOTO 0x0DF6
125: 0x0DF3 [0x01] GOTO 0x0E96

SUBROUTINE_0DF6:
126: 0x0DF6 [0x02] IF !(ExtData[1]->WorkLocal[32] == 36*) GOTO 0x0E01
127: 0x0DFE [0x01] GOTO 0x0E01

SUBROUTINE_0E01:
128: 0x0E01 [0x02] IF !(ExtData[1]->WorkLocal[32] == 17*) GOTO 0x0E0C
129: 0x0E09 [0x01] GOTO 0x0E96
130: 0x0E0C [0x02] IF !(ExtData[1]->WorkLocal[32] == 19*) GOTO 0x0E17
131: 0x0E14 [0x01] GOTO 0x0E96
132: 0x0E17 [0x02] IF !(ExtData[1]->WorkLocal[32] == 21*) GOTO 0x0E22
133: 0x0E1F [0x01] GOTO 0x0E96
134: 0x0E22 [0x02] IF !(ExtData[1]->WorkLocal[32] == 23*) GOTO 0x0E2D
135: 0x0E2A [0x01] GOTO 0x0E96
136: 0x0E2D [0x03] Work_Zone[5] = ExtData[1]->WorkLocal[27]
137: 0x0E32 [0x02] IF !(Work_Zone[5] <= 0*) GOTO 0x0E96
138: 0x0E3A [0x02] IF !(Work_Zone[5] < 60*) GOTO 0x0E55
139: 0x0E42 [0x3F] Work_Zone[4] = Work_Zone[5] % 60*
140: 0x0E49 [0x15] Work_Zone[5] /= 60*
141: 0x0E4E [0x48] [System] [7568*]:
    → "Battlefield clear time: $3 minute[/s], $2 second[/s]!"
142: 0x0E51 [0x23] WAIT_FOR_DIALOG_INTERACTION
143: 0x0E52 [0x01] GOTO 0x0E59
144: 0x0E55 [0x48] [System] [7567*]:
    → "Battlefield clear time: $3 second[/s]!"
145: 0x0E58 [0x23] WAIT_FOR_DIALOG_INTERACTION

SUBROUTINE_0E59:
146: 0x0E59 [0x02] IF !(ExtData[1]->WorkLocal[27] > ExtData[1]->WorkLocal[26]) GOTO 0x0E6D
147: 0x0E61 [0x03] Work_Zone[7] = ExtData[1]->WorkLocal[25]
148: 0x0E66 [0x48] [System] [7672*]:
    → "You have broken the clear time record for "[The Temple of Uggalepih/Jungle Boogymen/Amphibian Assault/Project: Shantottofication/Whom Wilt Thou Call/$26Jungle Boogymen/$26Amphibian Assault]"!"
149: 0x0E69 [0x23] WAIT_FOR_DIALOG_INTERACTION
150: 0x0E6A [0x01] GOTO 0x0E96
151: 0x0E6D [0x02] IF !(ExtData[1]->WorkLocal[26] < 60*) GOTO 0x0E8D
152: 0x0E75 [0x03] Work_Zone[5] = ExtData[1]->WorkLocal[26]
153: 0x0E7A [0x3F] Work_Zone[4] = Work_Zone[5] % 60*
154: 0x0E81 [0x15] Work_Zone[5] /= 60*
155: 0x0E86 [0x48] [System] [7570*]:
    → "The current battlefield clear time record is $3 minute[/s] $2 second[/s]."
156: 0x0E89 [0x23] WAIT_FOR_DIALOG_INTERACTION
157: 0x0E8A [0x01] GOTO 0x0E96
158: 0x0E8D [0x03] Work_Zone[5] = ExtData[1]->WorkLocal[26]
159: 0x0E92 [0x48] [System] [7569*]:
    → "The current battlefield clear time record is $3 second[/s]."
160: 0x0E95 [0x23] WAIT_FOR_DIALOG_INTERACTION

SUBROUTINE_0E96:
161: 0x0E96 [0x02] IF !(ExtData[1]->WorkLocal[24] == 0*) GOTO 0x0EAE
162: 0x0E9E [0x5C] MUSIC_CONTROL: Set Idle (Day) music to song 0*
163: 0x0EA2 [0x5C] MUSIC_CONTROL: Set Idle (Night) music to song 0*
164: 0x0EA6 [0x5C] MUSIC_CONTROL: Set Combat (Solo) music to song 193*
165: 0x0EAA [0x5C] MUSIC_CONTROL: Set Combat (Party) music to song 193*
166: 0x0EAE [0x02] IF !(ExtData[1]->WorkLocal[23] >= 0*) GOTO 0x0ED7
167: 0x0EB6 [0x45] LOAD_SCHEDULED_TASK: Load scheduler "fdi2" with entities [LocalPlayer, LocalPlayer], work=[200*, 0*]
168: 0x0EC7 [0x5C] MUSIC_CONTROL: Set Idle (Day) music to song 0*
169: 0x0ECB [0x5C] MUSIC_CONTROL: Set Idle (Night) music to song 0*
170: 0x0ECF [0x5C] MUSIC_CONTROL: Set Combat (Solo) music to song 193*
171: 0x0ED3 [0x5C] MUSIC_CONTROL: Set Combat (Party) music to song 193*
172: 0x0ED7 [0x06] ExtData[1]->WorkLocal[24] = 0
173: 0x0EDA [0x45] LOAD_SCHEDULED_TASK: Load scheduler "whi1" with entities [LocalPlayer, LocalPlayer], work=[201*, 0*]
174: 0x0EEB [0x45] LOAD_SCHEDULED_TASK: Load scheduler "blof" with entities [LocalPlayer, LocalPlayer], work=[200*, 0*]
175: 0x0EFC [0x21] END_EVENT
176: 0x0EFD [0x00] END_REQSTACK()
```

#### Data or dead code:

```
# Dead code (unreachable instructions):
     0x0DC9 [0x01] GOTO 0x0DF6
     0x0DCC [0x01] GOTO 0x0DCF
```

### Event 32003

#### Metadata

| Field        | Value      |
|--------------|------------|
| Entrypoint   | 0x0EFE     |
| Data Size    | 2300 bytes |
| Instructions | 118        |

```
      00 01 02 03 04 05 06 07  08 09 0A 0B 0C 0D 0E 0F
      -- -- -- -- -- -- -- --  -- -- -- -- -- -- -- --
0EF0:                                            06 1D                ..
0F00: 00 06 1E 00 03 21 00 06  10 03 20 00 07 10 03 1F  .....!.... .....
0F10: 00 08 10 06 01 10 1A C8  13 02 1D 00 29 80 00 AF  ............)...
0F20: 10 42 03 01 10 2D 80 43  00 43 01 03 01 10 2E 80  .B...-.C.C......
0F30: 43 00 43 01 1A DF 13 02  1E 00 29 80 00 AF 10 45  C.C.......)....E
0F40: 32 80 F0 FF FF 7F F0 FF  FF 7F 66 64 6F 31 18 80  2.........fdo1..
0F50: 55 32 80 F0 FF FF 7F F0  FF FF 7F 66 64 6F 31 03  U2.........fdo1.
0F60: 01 10 2F 80 02 20 00 5C  80 80 EE 0F 02 21 00 18  ../.. .\.....!..
0F70: 80 80 83 0F 47 00 5D 80  5E 80 5F 80 60 80 47 01  ....G.].^._.`.G.
0F80: 01 EB 0F 02 21 00 29 80  80 9A 0F 47 00 61 80 62  ....!.)....G.a.b
0F90: 80 63 80 64 80 47 01 01  EB 0F 02 21 00 2D 80 80  .c.d.G.....!.-..
0FA0: B1 0F 47 00 65 80 66 80  67 80 68 80 47 01 01 EB  ..G.e.f.g.h.G...
0FB0: 0F 02 21 00 2E 80 80 C8  0F 47 00 69 80 6A 80 6B  ..!......G.i.j.k
0FC0: 80 6C 80 47 01 01 EB 0F  02 21 00 2F 80 80 DF 0F  .l.G.....!./....
0FD0: 47 00 6D 80 6E 80 6F 80  70 80 47 01 01 EB 0F 47  G.m.n.o.p.G....G
0FE0: 00 71 80 72 80 26 80 73  80 47 01 01 6D 10 02 20  .q.r.&.s.G..m.. 
0FF0: 00 3B 80 80 61 10 02 1F  00 29 80 80 0D 10 47 00  .;..a....)....G.
1000: 74 80 75 80 76 80 77 80  47 01 01 5E 10 02 1F 00  t.u.v.w.G..^....
1010: 2D 80 80 24 10 47 00 78  80 79 80 7A 80 7B 80 47  -..$.G.x.y.z.{.G
1020: 01 01 5E 10 02 1F 00 2E  80 80 3B 10 47 00 7C 80  ..^.......;.G.|.
1030: 7D 80 7E 80 7F 80 47 01  01 5E 10 02 1F 00 2F 80  }.~...G..^..../.
1040: 80 52 10 47 00 80 80 81  80 82 80 83 80 47 01 01  .R.G.........G..
1050: 5E 10 47 00 71 80 72 80  26 80 73 80 47 01 01 6D  ^.G.q.r.&.s.G..m
1060: 10 47 00 71 80 72 80 26  80 73 80 47 01 38 33 80  .G.q.r.&.s.G.83.
1070: 79 00 F0 FF FF 7F F0 FF  FF 7F 1A E3 13 45 57 80  y............EW.
1080: F0 FF FF 7F F0 FF FF 7F  77 68 69 31 18 80 45 32  ........whi1..E2
1090: 80 F0 FF FF 7F F0 FF FF  7F 62 6C 6F 66 18 80 5C  .........blof..\
10A0: 00 18 80 5C 01 18 80 5C  02 54 80 5C 03 54 80 21  ...\...\.T.\.T.!
10B0: 00 24 30 80 29 80 18 80  25 02 00 10 18 80 00 C7  .$0.)...%.......
10C0: 10 05 01 00 01 C7 10 1B  1A 0D 15 46 01 79 00 F0  ...........F.y..
10D0: FF FF 7F F0 FF FF 7F 37  00 80 01 80 02 80 03 80  .......7........
10E0: 27 10 18 31 0A 01 04 45  B8 80 F0 FF FF 7F F0 FF  '..1...E........
10F0: FF 7F 73 67 30 67 18 80  1A 2E 15 1C B9 80 32 04  ..sg0g........2.
1100: 80 1F 00 05 80 06 80 07  80 1F 01 27 10 18 31 0A  ...........'..1.
1110: 01 05 1F 00 08 80 09 80  0A 80 1F 01 6F 1A 0D 15  ............o...
1120: 55 B8 80 F0 FF FF 7F F0  FF FF 7F 73 67 30 67 02  U..........sg0g.
1130: 03 00 18 80 80 3A 11 01  56 11 02 03 00 2E 80 80  .....:..V.......
1140: 56 11 5C 00 55 80 5C 01  55 80 5C 02 55 80 5C 03  V.\.U.\.U.\.U.\.
1150: 55 80 9A 01 56 11 37 BA  80 BB 80 BC 80 BD 80 45  U...V.7........E
1160: B8 80 F0 FF FF 7F F0 FF  FF 7F 73 67 30 63 18 80  ..........sg0c..
1170: 1A 29 16 55 B8 80 F0 FF  FF 7F F0 FF FF 7F 73 67  .).U..........sg
1180: 30 63 46 00 1B 1B 1A 0D  15 46 01 02 19 00 18 80  0cF......F......
1190: 80 C0 11 1A 44 12 03 01  10 3B 80 43 00 43 01 02  ....D....;.C.C..
11A0: 02 10 29 80 00 A9 11 30  1B 46 00 45 32 80 F0 FF  ..)....0.F.E2...
11B0: FF 7F F0 FF FF 7F 66 64  69 32 18 80 1B 01 DE 11  ......fdi2......
11C0: 02 19 00 2E 80 80 DE 11  03 01 10 2C 80 43 00 43  ...........,.C.C
11D0: 01 02 02 10 29 80 00 DB  11 30 1B 01 DE 11 1C 4B  ....)....0.....K
11E0: 80 37 16 80 17 80 18 80  19 80 27 10 1C 31 0A 01  .7........'..1..
11F0: 05 45 B8 80 F0 FF FF 7F  F0 FF FF 7F 73 67 30 65  .E..........sg0e
1200: 18 80 45 32 80 F0 FF FF  7F F0 FF FF 7F 66 64 69  ..E2.........fdi
1210: 32 18 80 32 3E 80 1F 00  1A 80 1B 80 1C 80 1F 01  2..2>...........
1220: 27 10 1C 31 0A 01 06 1F  00 1D 80 1E 80 18 80 1F  '..1............
1230: 01 6F 55 B8 80 F0 FF FF  7F F0 FF FF 7F 73 67 30  .oU..........sg0
1240: 65 46 00 1B 5B BE 80 21  31 0A 01 21 31 0A 01 00  eF..[..!1..!1...
1250: FE FE FE 37 1F 80 20 80  0D 80 21 80 27 10 22 31  ...7.. ...!.'."1
1260: 0A 01 04 27 10 23 31 0A  01 04 92 01 F0 FF FF 7F  ...'.#1.........
1270: 92 01 22 31 0A 01 92 01  23 31 0A 01 5C 00 54 80  .."1....#1..\.T.
1280: 5C 01 54 80 5C 02 54 80  5C 03 54 80 9A 5D BF 80  \.T.\.T.\.T..]..
1290: 4F 80 45 B8 80 F0 FF FF  7F F0 FF FF 7F 73 65 30  O.E..........se0
12A0: 31 18 80 45 32 80 F0 FF  FF 7F F0 FF FF 7F 66 64  1..E2.........fd
12B0: 69 32 18 80 27 10 22 31  0A 01 09 1C 4B 80 29 10  i2..'."1....K.).
12C0: 23 31 0A 01 09 1C B9 80  48 C0 80 23 27 10 17 31  #1......H..#'..1
12D0: 0A 01 03 52 B8 80 F0 FF  FF 7F F0 FF FF 7F 73 65  ...R..........se
12E0: 30 31 45 B8 80 F0 FF FF  7F F0 FF FF 7F 73 65 30  01E..........se0
12F0: 32 18 80 29 10 21 31 0A  01 09 2B 21 31 0A 01 C1  2..).!1...+!1...
1300: 80 23 52 B8 80 F0 FF FF  7F F0 FF FF 7F 73 65 30  .#R..........se0
1310: 32 45 B8 80 F0 FF FF 7F  F0 FF FF 7F 73 65 30 33  2E..........se03
1320: 18 80 2B 21 31 0A 01 C2  80 23 2B 21 31 0A 01 C3  ..+!1....#+!1...
1330: 80 23 45 B8 80 F0 FF FF  7F F0 FF FF 7F 73 65 30  .#E..........se0
1340: 34 18 80 5B BE 80 21 31  0A 01 21 31 0A 01 74 6C  4..[..!1..!1..tl
1350: 6B 30 2B 21 31 0A 01 C4  80 23 2B 21 31 0A 01 C5  k0+!1....#+!1...
1360: 80 23 52 B8 80 F0 FF FF  7F F0 FF FF 7F 73 65 30  .#R..........se0
1370: 34 45 B8 80 F0 FF FF 7F  F0 FF FF 7F 73 65 30 35  4E..........se05
1380: 18 80 2B 21 31 0A 01 C6  80 23 5B BE 80 21 31 0A  ..+!1....#[..!1.
1390: 01 21 31 0A 01 74 6C 6B  31 2B 21 31 0A 01 C7 80  .!1..tlk1+!1....
13A0: 23 1A 4F 15 1C 26 80 62  C8 80 21 31 0A 01 21 31  #.O..&.b..!1..!1
13B0: 0A 01 73 67 30 31 18 80  52 B8 80 F0 FF FF 7F F0  ..sg01..R.......
13C0: FF FF 7F 73 65 30 35 1B  24 C9 80 29 80 18 80 25  ...se05.$..)...%
13D0: 02 00 10 18 80 00 DE 13  05 1D 00 01 DE 13 1B 05  ................
13E0: 1E 00 1B 1A 0D 15 46 01  37 0B 80 0C 80 0D 80 0E  ......F.7.......
13F0: 80 27 10 19 31 0A 01 03  45 B8 80 F0 FF FF 7F F0  .'..1...E.......
1400: FF FF 7F 73 67 73 31 18  80 1A 2E 15 1C B9 80 32  ...sgs1........2
1410: 0F 80 1F 00 10 80 11 80  12 80 1F 01 27 10 19 31  ............'..1
1420: 0A 01 04 1F 00 13 80 14  80 15 80 1F 01 6F 1A 0D  .............o..
1430: 15 55 B8 80 F0 FF FF 7F  F0 FF FF 7F 73 67 73 31  .U..........sgs1
1440: 37 71 80 72 80 26 80 73  80 45 B8 80 F0 FF FF 7F  7q.r.&.s.E......
1450: F0 FF FF 7F 73 67 73 32  18 80 1A 29 16 55 B8 80  ....sgs2...).U..
1460: F0 FF FF 7F F0 FF FF 7F  73 67 73 32 46 00 1B 1A  ........sgs2F...
1470: 0D 15 46 01 37 71 80 72  80 26 80 73 80 45 B8 80  ..F.7q.r.&.s.E..
1480: F0 FF FF 7F F0 FF FF 7F  73 67 73 32 18 80 1A 29  ........sgs2...)
1490: 16 55 B8 80 F0 FF FF 7F  F0 FF FF 7F 73 67 73 32  .U..........sgs2
14A0: 46 00 1B 02 03 00 2C 80  80 C7 14 03 08 17 CA 80  F.....,.........
14B0: 03 09 17 CB 80 03 0A 17  CC 80 03 0B 17 CD 80 03  ................
14C0: 0C 17 CE 80 01 EB 14 02  03 00 3B 80 80 EB 14 03  ..........;.....
14D0: 08 17 CA 80 03 09 17 CB  80 03 0A 17 CC 80 03 0B  ................
14E0: 17 CD 80 03 0C 17 CE 80  01 EB 14 1B 45 32 80 F0  ............E2..
14F0: FF FF 7F F0 FF FF 7F 66  64 69 30 18 80 55 32 80  .......fdi0..U2.
1500: F0 FF FF 7F F0 FF FF 7F  66 64 69 30 1B 45 32 80  ........fdi0.E2.
1510: F0 FF FF 7F F0 FF FF 7F  66 64 6F 30 18 80 55 32  ........fdo0..U2
1520: 80 F0 FF FF 7F F0 FF FF  7F 66 64 6F 30 1B 45 32  .........fdo0.E2
1530: 80 F0 FF FF 7F F0 FF FF  7F 66 64 69 31 18 80 55  .........fdi1..U
1540: 32 80 F0 FF FF 7F F0 FF  FF 7F 66 64 69 31 1B 45  2.........fdi1.E
1550: 32 80 F0 FF FF 7F F0 FF  FF 7F 66 64 6F 31 18 80  2.........fdo1..
1560: 55 32 80 F0 FF FF 7F F0  FF FF 7F 66 64 6F 31 1B  U2.........fdo1.
1570: 45 57 80 F0 FF FF 7F F0  FF FF 7F 77 68 69 31 18  EW.........whi1.
1580: 80 55 57 80 F0 FF FF 7F  F0 FF FF 7F 77 68 69 31  .UW.........whi1
1590: 1B 45 57 80 F0 FF FF 7F  F0 FF FF 7F 77 68 6F 31  .EW.........who1
15A0: 18 80 55 57 80 F0 FF FF  7F F0 FF FF 7F 77 68 6F  ..UW.........who
15B0: 31 1B 45 57 80 F0 FF FF  7F F0 FF FF 7F 77 68 6F  1.EW.........who
15C0: 32 18 80 55 57 80 F0 FF  FF 7F F0 FF FF 7F 77 68  2..UW.........wh
15D0: 6F 32 1B 45 57 80 F0 FF  FF 7F F0 FF FF 7F 77 68  o2.EW.........wh
15E0: 6F 33 18 80 55 57 80 F0  FF FF 7F F0 FF FF 7F 77  o3..UW.........w
15F0: 68 6F 33 1B 62 29 80 F0  FF FF 7F F0 FF FF 7F 6D  ho3.b).........m
1600: 61 69 6E 18 80 1C B9 80  45 32 80 F0 FF FF 7F F0  ain.....E2......
1610: FF FF 7F 66 64 6F 31 18  80 55 32 80 F0 FF FF 7F  ...fdo1..U2.....
1620: F0 FF FF 7F 66 64 6F 31  1B 45 32 80 F0 FF FF 7F  ....fdo1.E2.....
1630: F0 FF FF 7F 66 64 69 31  18 80 62 2D 80 F0 FF FF  ....fdi1..b-....
1640: 7F F0 FF FF 7F 6D 61 69  6E 18 80 1C 4B 80 55 32  .....main...K.U2
1650: 80 F0 FF FF 7F F0 FF FF  7F 66 64 69 31 1B 45 32  .........fdi1.E2
1660: 80 F0 FF FF 7F F0 FF FF  7F 62 6C 6F 6E 18 80 45  .........blon..E
1670: 57 80 F0 FF FF 7F F0 FF  FF 7F 62 6C 6F 6E 18 80  W.........blon..
1680: 1B 45 57 80 F0 FF FF 7F  F0 FF FF 7F 77 68 69 30  .EW.........whi0
1690: 18 80 55 57 80 F0 FF FF  7F F0 FF FF 7F 77 68 69  ..UW.........whi
16A0: 30 1B 45 57 80 F0 FF FF  7F F0 FF FF 7F 77 68 6F  0.EW.........who
16B0: 30 18 80 55 57 80 F0 FF  FF 7F F0 FF FF 7F 77 68  0..UW.........wh
16C0: 6F 30 1B 45 CF 80 F0 FF  FF 7F F0 FF FF 7F 65 66  o0.E..........ef
16D0: 6F 6E 18 80 55 CF 80 F0  FF FF 7F F0 FF FF 7F 65  on..U..........e
16E0: 66 6F 6E 1B 45 32 80 F0  FF FF 7F F0 FF FF 7F 66  fon.E2.........f
16F0: 64 69 73 18 80 1B 45 32  80 F0 FF FF 7F F0 FF FF  dis...E2........
1700: 7F 66 64 6F 73 18 80 55  32 80 F0 FF FF 7F F0 FF  .fdos..U2.......
1710: FF 7F 66 64 6F 73 1B 45  32 80 F0 FF FF 7F F0 FF  ..fdos.E2.......
1720: FF 7F 66 64 69 66 18 80  1B 45 32 80 F0 FF FF 7F  ..fdif...E2.....
1730: F0 FF FF 7F 66 64 6F 66  18 80 55 32 80 F0 FF FF  ....fdof..U2....
1740: 7F F0 FF FF 7F 66 64 6F  66 1B 45 32 80 F0 FF FF  .....fdof.E2....
1750: 7F F0 FF FF 7F 66 64 69  70 18 80 1B 45 32 80 F0  .....fdip...E2..
1760: FF FF 7F F0 FF FF 7F 66  64 6F 70 18 80 55 32 80  .......fdop..U2.
1770: F0 FF FF 7F F0 FF FF 7F  66 64 6F 70 1B 02 00 00  ........fdop....
1780: 29 80 80 9C 17 03 09 00  BA 80 03 0A 00 BB 80 03  )...............
1790: 0B 00 BC 80 03 0C 00 BD  80 01 F9 17 02 00 00 2D  ...............-
17A0: 80 80 BB 17 03 09 00 D0  80 03 0A 00 D1 80 03 0B  ................
17B0: 00 18 80 03 0C 00 D2 80  01 F9 17 02 00 00 2E 80  ................
17C0: 80 DA 17 03 09 00 D3 80  03 0A 00 D4 80 03 0B 00  ................
17D0: 0D 80 03 0C 00 03 80 01  F9 17 02 00 00 2F 80 80  ............./..
17E0: F9 17 03 09 00 18 80 03  0A 00 18 80 03 0B 00 18  ................
17F0: 80 03 0C 00 18 80 01 F9  17 1B                    ..........      
```

#### Opcodes

```
  0: 0x0EFE [0x06] ExtData[1]->WorkLocal[29] = 0
  1: 0x0F01 [0x06] ExtData[1]->WorkLocal[30] = 0
  2: 0x0F04 [0x03] ExtData[1]->WorkLocal[33] = Work_Zone[6]
  3: 0x0F09 [0x03] ExtData[1]->WorkLocal[32] = Work_Zone[7]
  4: 0x0F0E [0x03] ExtData[1]->WorkLocal[31] = Work_Zone[8]
  5: 0x0F13 [0x06] Work_Zone[1] = 0
  6: 0x0F16 [0x1A] CALL_SUBROUTINE(address=0x13C8)
  7: 0x0F19 [0x02] IF !(ExtData[1]->WorkLocal[29] == 1*) GOTO 0x10AF
  8: 0x0F21 [0x42] SET_CLI_EVENT_CANCEL_DATA()
  9: 0x0F22 [0x03] Work_Zone[1] = 2*
 10: 0x0F27 [0x43] SEND_EVENT_UPDATE: Send pending tag to server (packet 0x005B)
 11: 0x0F29 [0x43] SEND_EVENT_UPDATE: Check pending flag (skip if not pending)
 12: 0x0F2B [0x03] Work_Zone[1] = 3*
 13: 0x0F30 [0x43] SEND_EVENT_UPDATE: Send pending tag to server (packet 0x005B)
 14: 0x0F32 [0x43] SEND_EVENT_UPDATE: Check pending flag (skip if not pending)
 15: 0x0F34 [0x1A] CALL_SUBROUTINE(address=0x13DF)
 16: 0x0F37 [0x02] IF !(ExtData[1]->WorkLocal[30] == 1*) GOTO 0x10AF
 17: 0x0F3F [0x45] LOAD_SCHEDULED_TASK: Load scheduler "fdo1" with entities [LocalPlayer, LocalPlayer], work=[200*, 0*]
 18: 0x0F50 [0x55] WAIT_LOAD_SCHEDULER: Wait for scheduler "fdo1" with entities [LocalPlayer, LocalPlayer], work=200*
 19: 0x0F5F [0x03] Work_Zone[1] = 4*
 20: 0x0F64 [0x02] IF !(ExtData[1]->WorkLocal[32] == 180*) GOTO 0x0FEE
 21: 0x0F6C [0x02] IF !(ExtData[1]->WorkLocal[33] == 0*) GOTO 0x0F83
 22: 0x0F74 [0x47] UPDATE_PLAYER_POS(-605.141*, 479.929*, -22.681*, yaw=87.2°*)
 23: 0x0F7E [0x47] WAIT_PLAYER_POS_UPDATE
 24: 0x0F80 [0x01] GOTO 0x0FEB
 25: 0x0F83 [0x02] IF !(ExtData[1]->WorkLocal[33] == 1*) GOTO 0x0F9A
 26: 0x0F8B [0x47] UPDATE_PLAYER_POS(-262.589*, 377.857*, -137.313*, yaw=305.3°*)
 27: 0x0F95 [0x47] WAIT_PLAYER_POS_UPDATE
 28: 0x0F97 [0x01] GOTO 0x0FEB
 29: 0x0F9A [0x02] IF !(ExtData[1]->WorkLocal[33] == 2*) GOTO 0x0FB1
 30: 0x0FA2 [0x47] UPDATE_PLAYER_POS(18.348*, 486.940*, -224.334*, yaw=17.1°*)
 31: 0x0FAC [0x47] WAIT_PLAYER_POS_UPDATE
 32: 0x0FAE [0x01] GOTO 0x0FEB
 33: 0x0FB1 [0x02] IF !(ExtData[1]->WorkLocal[33] == 3*) GOTO 0x0FC8
 34: 0x0FB9 [0x47] UPDATE_PLAYER_POS(231.593*, 360.094*, -173.572*, yaw=160.8°*)
 35: 0x0FC3 [0x47] WAIT_PLAYER_POS_UPDATE
 36: 0x0FC5 [0x01] GOTO 0x0FEB
 37: 0x0FC8 [0x02] IF !(ExtData[1]->WorkLocal[33] == 4*) GOTO 0x0FDF
 38: 0x0FD0 [0x47] UPDATE_PLAYER_POS(553.664*, 523.939*, -38.205*, yaw=233.9°*)
 39: 0x0FDA [0x47] WAIT_PLAYER_POS_UPDATE
 40: 0x0FDC [0x01] GOTO 0x0FEB
 41: 0x0FDF [0x47] UPDATE_PLAYER_POS(300.065*, 349.725*, 0.015*, yaw=92.2°*)
 42: 0x0FE9 [0x47] WAIT_PLAYER_POS_UPDATE

SUBROUTINE_0FEB:
 43: 0x0FEB [0x01] GOTO 0x106D
 44: 0x0FEE [0x02] IF !(ExtData[1]->WorkLocal[32] == 6*) GOTO 0x1061
 45: 0x0FF6 [0x02] IF !(ExtData[1]->WorkLocal[31] == 1*) GOTO 0x100D
 46: 0x0FFE [0x47] UPDATE_PLAYER_POS(-875.117*, -43.892*, -48.084*, yaw=45.1°*)
 47: 0x1008 [0x47] WAIT_PLAYER_POS_UPDATE
 48: 0x100A [0x01] GOTO 0x105E
 49: 0x100D [0x02] IF !(ExtData[1]->WorkLocal[31] == 2*) GOTO 0x1024
 50: 0x1015 [0x47] UPDATE_PLAYER_POS(-755.499*, 563.947*, -112.035*, yaw=313.5°*)
 51: 0x101F [0x47] WAIT_PLAYER_POS_UPDATE
 52: 0x1021 [0x01] GOTO 0x105E
 53: 0x1024 [0x02] IF !(ExtData[1]->WorkLocal[31] == 3*) GOTO 0x103B
 54: 0x102C [0x47] UPDATE_PLAYER_POS(123.251*, 754.209*, -172.124*, yaw=38.7°*)
 55: 0x1036 [0x47] WAIT_PLAYER_POS_UPDATE
 56: 0x1038 [0x01] GOTO 0x105E
 57: 0x103B [0x02] IF !(ExtData[1]->WorkLocal[31] == 4*) GOTO 0x1052
 58: 0x1043 [0x47] UPDATE_PLAYER_POS(-516.404*, -803.323*, 24.206*, yaw=38.4°*)
 59: 0x104D [0x47] WAIT_PLAYER_POS_UPDATE
 60: 0x104F [0x01] GOTO 0x105E
 61: 0x1052 [0x47] UPDATE_PLAYER_POS(300.065*, 349.725*, 0.015*, yaw=92.2°*)
 62: 0x105C [0x47] WAIT_PLAYER_POS_UPDATE

SUBROUTINE_105E:
 63: 0x105E [0x01] GOTO 0x106D
 64: 0x1061 [0x47] UPDATE_PLAYER_POS(300.065*, 349.725*, 0.015*, yaw=92.2°*)
 65: 0x106B [0x47] WAIT_PLAYER_POS_UPDATE

SUBROUTINE_106D:
 66: 0x106D [0x38] SET_CLIENT_EVENT_MODE(mode=19*)
 67: 0x1070 [0x79] LocalPlayer looks at LocalPlayer (Basic look)
 68: 0x107A [0x1A] CALL_SUBROUTINE(address=0x13E3)
 69: 0x107D [0x45] LOAD_SCHEDULED_TASK: Load scheduler "whi1" with entities [LocalPlayer, LocalPlayer], work=[201*, 0*]
 70: 0x108E [0x45] LOAD_SCHEDULED_TASK: Load scheduler "blof" with entities [LocalPlayer, LocalPlayer], work=[200*, 0*]
 71: 0x109F [0x5C] MUSIC_CONTROL: Set Idle (Day) music to song 0*
 72: 0x10A3 [0x5C] MUSIC_CONTROL: Set Idle (Night) music to song 0*
 73: 0x10A7 [0x5C] MUSIC_CONTROL: Set Combat (Solo) music to song 193*
 74: 0x10AB [0x5C] MUSIC_CONTROL: Set Combat (Party) music to song 193*
 75: 0x10AF [0x21] END_EVENT
 76: 0x10B0 [0x00] END_REQSTACK()

SUBROUTINE_13C8:
 77: 0x13C8 [0x24] CREATE_DIALOG(message_id=7228*, default_option=1*, option_flags=0*)
    → "Leave the battlefield? [Run away./Stay.]"
 78: 0x13CF [0x25] WAIT_DIALOG_SELECT()
 79: 0x13D0 [0x02] IF !(Work_Zone[0] == 0*) GOTO 0x13DE
 80: 0x13D8 [0x05] ExtData[1]->WorkLocal[29] = 1
 81: 0x13DB [0x01] GOTO 0x13DE

SUBROUTINE_13DE:
 82: 0x13DE [0x1B] RETURN

SUBROUTINE_13DF:
 83: 0x13DF [0x05] ExtData[1]->WorkLocal[30] = 1
 84: 0x13E2 [0x1B] RETURN

SUBROUTINE_13E3:
 85: 0x13E3 [0x1A] CALL_SUBROUTINE(address=0x150D)
 86: 0x13E6 [0x46] CAMERA_CONTROL: Disable user control
 87: 0x13E8 [0x37] UPDATE_EVENT_POSITION_AND_DIR: x=299.904*, z=-321.193*, y=31.999*, direction=89.7°*
 88: 0x13F1 [0x27] REQ_SET(priority=0x10, entity_id=Mahogany Door (ID: 17445145/0x010A3119), tag_num=0x03)
 89: 0x13F8 [0x45] LOAD_SCHEDULED_TASK: Load scheduler "sgs1" with entities [LocalPlayer, LocalPlayer], work=[230*, 0*]
 90: 0x1409 [0x1A] CALL_SUBROUTINE(address=0x152E)
 91: 0x140C [0x1C] WAIT(45* ticks)
 92: 0x140F [0x32] ExtData[1]->MainSpeed = 40* * 0.1
 93: 0x1412 [0x1F] MOVE_ENTITY: EventEntity moves to X=300.069*, Z=-326.293*, Y=31.986*
 94: 0x141A [0x1F] MOVE_ENTITY: Update entity position (mode=1)
 95: 0x141C [0x27] REQ_SET(priority=0x10, entity_id=Mahogany Door (ID: 17445145/0x010A3119), tag_num=0x04)
 96: 0x1423 [0x1F] MOVE_ENTITY: EventEntity moves to X=299.915*, Z=-330.449*, Y=32.047*
 97: 0x142B [0x1F] MOVE_ENTITY: Update entity position (mode=1)
 98: 0x142D [0x6F] WAIT_FRAME_DELAY: Yield until WaitTime reaches zero
 99: 0x142E [0x1A] CALL_SUBROUTINE(address=0x150D)
100: 0x1431 [0x55] WAIT_LOAD_SCHEDULER: Wait for scheduler "sgs1" with entities [LocalPlayer, LocalPlayer], work=230*
101: 0x1440 [0x37] UPDATE_EVENT_POSITION_AND_DIR: x=300.065*, z=349.725*, y=0.015*, direction=92.2°*
102: 0x1449 [0x45] LOAD_SCHEDULED_TASK: Load scheduler "sgs2" with entities [LocalPlayer, LocalPlayer], work=[230*, 0*]
103: 0x145A [0x1A] CALL_SUBROUTINE(address=0x1629)
104: 0x145D [0x55] WAIT_LOAD_SCHEDULER: Wait for scheduler "sgs2" with entities [LocalPlayer, LocalPlayer], work=230*
105: 0x146C [0x46] CAMERA_CONTROL: Restore default settings
106: 0x146E [0x1B] RETURN

SUBROUTINE_150D:
107: 0x150D [0x45] LOAD_SCHEDULED_TASK: Load scheduler "fdo0" with entities [LocalPlayer, LocalPlayer], work=[200*, 0*]
108: 0x151E [0x55] WAIT_LOAD_SCHEDULER: Wait for scheduler "fdo0" with entities [LocalPlayer, LocalPlayer], work=200*
109: 0x152D [0x1B] RETURN

SUBROUTINE_152E:
110: 0x152E [0x45] LOAD_SCHEDULED_TASK: Load scheduler "fdi1" with entities [LocalPlayer, LocalPlayer], work=[200*, 0*]
111: 0x153F [0x55] WAIT_LOAD_SCHEDULER: Wait for scheduler "fdi1" with entities [LocalPlayer, LocalPlayer], work=200*
112: 0x154E [0x1B] RETURN

SUBROUTINE_1629:
113: 0x1629 [0x45] LOAD_SCHEDULED_TASK: Load scheduler "fdi1" with entities [LocalPlayer, LocalPlayer], work=[200*, 0*]
114: 0x163A [0x62] LOAD_EVENT_SCHEDULER: Load scheduler "main" with entities [LocalPlayer, LocalPlayer], work=[2*, 0*]
115: 0x164B [0x1C] WAIT(30* ticks)
116: 0x164E [0x55] WAIT_LOAD_SCHEDULER: Wait for scheduler "fdi1" with entities [LocalPlayer, LocalPlayer], work=200*
117: 0x165D [0x1B] RETURN
```

#### Data or dead code:

```
# Dead code (unreachable instructions):
     0x10B1 [0x24] CREATE_DIALOG(message_id=7227*, default_option=1*, option_flags=0*)
    → "Enter the battlefield? [Enter./Decline.]"
     0x10B8 [0x25] WAIT_DIALOG_SELECT()
     0x10B9 [0x02] IF !(Work_Zone[0] == 0*) GOTO 0x10C7
     0x10C1 [0x05] ExtData[1]->WorkLocal[1] = 1
     0x10C4 [0x01] GOTO 0x10C7
     0x10C7 [0x1B] RETURN
     0x10C8 [0x1A] CALL_SUBROUTINE(address=0x150D)
     0x10CB [0x46] CAMERA_CONTROL: Disable user control
     0x10CD [0x79] LocalPlayer looks at LocalPlayer (Basic look)
     0x10D7 [0x37] UPDATE_EVENT_POSITION_AND_DIR: x=299.913*, z=350.542*, y=0.007*, direction=271.7°*
     0x10E0 [0x27] REQ_SET(priority=0x10, entity_id=Mahogany Door (ID: 17445144/0x010A3118), tag_num=0x04)
     0x10E7 [0x45] LOAD_SCHEDULED_TASK: Load scheduler "sg0g" with entities [LocalPlayer, LocalPlayer], work=[230*, 0*]
     0x10F8 [0x1A] CALL_SUBROUTINE(address=0x152E)
     0x10FB [0x1C] WAIT(45* ticks)
     0x10FE [0x32] ExtData[1]->MainSpeed = 13* * 0.1
     0x1101 [0x1F] MOVE_ENTITY: EventEntity moves to X=299.975*, Z=355.999*, Y=-0.001*
     0x1109 [0x1F] MOVE_ENTITY: Update entity position (mode=1)
     0x110B [0x27] REQ_SET(priority=0x10, entity_id=Mahogany Door (ID: 17445144/0x010A3118), tag_num=0x05)
     0x1112 [0x1F] MOVE_ENTITY: EventEntity moves to X=300.060*, Z=357.938*, Y=-0.003*
     0x111A [0x1F] MOVE_ENTITY: Update entity position (mode=1)
     0x111C [0x6F] WAIT_FRAME_DELAY: Yield until WaitTime reaches zero
     0x111D [0x1A] CALL_SUBROUTINE(address=0x150D)
     0x1120 [0x55] WAIT_LOAD_SCHEDULER: Wait for scheduler "sg0g" with entities [LocalPlayer, LocalPlayer], work=230*
     0x112F [0x02] IF !(ExtData[1]->WorkLocal[3] == 0*) GOTO 0x113A
     0x1137 [0x01] GOTO 0x1156
     0x113A [0x02] IF !(ExtData[1]->WorkLocal[3] == 3*) GOTO 0x1156
     0x1142 [0x5C] MUSIC_CONTROL: Set Idle (Day) music to song 50*
     0x1146 [0x5C] MUSIC_CONTROL: Set Idle (Night) music to song 50*
     0x114A [0x5C] MUSIC_CONTROL: Set Combat (Solo) music to song 50*
     0x114E [0x5C] MUSIC_CONTROL: Set Combat (Party) music to song 50*
     0x1152 [0x9A] WAIT_MUSIC_SERVER()
     0x1153 [0x01] GOTO 0x1156
     0x1156 [0x37] UPDATE_EVENT_POSITION_AND_DIR: x=-260.043*, z=279.894*, y=-32.000*, direction=269.7°*
     0x115F [0x45] LOAD_SCHEDULED_TASK: Load scheduler "sg0c" with entities [LocalPlayer, LocalPlayer], work=[230*, 0*]
     0x1170 [0x1A] CALL_SUBROUTINE(address=0x1629)
     0x1173 [0x55] WAIT_LOAD_SCHEDULER: Wait for scheduler "sg0c" with entities [LocalPlayer, LocalPlayer], work=230*
     0x1182 [0x46] CAMERA_CONTROL: Restore default settings
     0x1184 [0x1B] RETURN
     0x1185 [0x1B] RETURN
     0x1186 [0x1A] CALL_SUBROUTINE(address=0x150D)
     0x1189 [0x46] CAMERA_CONTROL: Disable user control
     0x118B [0x02] IF !(ExtData[1]->WorkLocal[25] == 0*) GOTO 0x11C0
     0x1193 [0x1A] CALL_SUBROUTINE(address=0x1244)
     0x1196 [0x03] Work_Zone[1] = 6*
     0x119B [0x43] SEND_EVENT_UPDATE: Send pending tag to server (packet 0x005B)
     0x119D [0x43] SEND_EVENT_UPDATE: Check pending flag (skip if not pending)
     0x119F [0x02] IF !(Work_Zone[2] == 1*) GOTO 0x11A9
     0x11A7 [0x30] SET_UCOFF_CONTINUE_ZERO()
     0x11A8 [0x1B] RETURN
     0x11A9 [0x46] CAMERA_CONTROL: Restore default settings
     0x11AB [0x45] LOAD_SCHEDULED_TASK: Load scheduler "fdi2" with entities [LocalPlayer, LocalPlayer], work=[200*, 0*]
     0x11BC [0x1B] RETURN
     0x11BD [0x01] GOTO 0x11DE
     0x11C0 [0x02] IF !(ExtData[1]->WorkLocal[25] == 3*) GOTO 0x11DE
     0x11C8 [0x03] Work_Zone[1] = 5*
     0x11CD [0x43] SEND_EVENT_UPDATE: Send pending tag to server (packet 0x005B)
     0x11CF [0x43] SEND_EVENT_UPDATE: Check pending flag (skip if not pending)
     0x11D1 [0x02] IF !(Work_Zone[2] == 1*) GOTO 0x11DB
     0x11D9 [0x30] SET_UCOFF_CONTINUE_ZERO()
     0x11DA [0x1B] RETURN
     0x11DB [0x01] GOTO 0x11DE
     0x11DE [0x1C] WAIT(30* ticks)
     0x11E1 [0x37] UPDATE_EVENT_POSITION_AND_DIR: x=-318.556*, z=-300.146*, y=0.000*, direction=182.9°*
     0x11EA [0x27] REQ_SET(priority=0x10, entity_id=Mahogany Door (ID: 17445148/0x010A311C), tag_num=0x05)
     0x11F1 [0x45] LOAD_SCHEDULED_TASK: Load scheduler "sg0e" with entities [LocalPlayer, LocalPlayer], work=[230*, 0*]
     0x1202 [0x45] LOAD_SCHEDULED_TASK: Load scheduler "fdi2" with entities [LocalPlayer, LocalPlayer], work=[200*, 0*]
     0x1213 [0x32] ExtData[1]->MainSpeed = 14* * 0.1
     0x1216 [0x1F] MOVE_ENTITY: EventEntity moves to X=-325.847*, Z=-300.066*, Y=-0.007*
     0x121E [0x1F] MOVE_ENTITY: Update entity position (mode=1)
     0x1220 [0x27] REQ_SET(priority=0x10, entity_id=Mahogany Door (ID: 17445148/0x010A311C), tag_num=0x06)
     0x1227 [0x1F] MOVE_ENTITY: EventEntity moves to X=-329.629*, Z=-300.142*, Y=0.000*
     0x122F [0x1F] MOVE_ENTITY: Update entity position (mode=1)
     0x1231 [0x6F] WAIT_FRAME_DELAY: Yield until WaitTime reaches zero
     0x1232 [0x55] WAIT_LOAD_SCHEDULER: Wait for scheduler "sg0e" with entities [LocalPlayer, LocalPlayer], work=230*
     0x1241 [0x46] CAMERA_CONTROL: Restore default settings
     0x1243 [0x1B] RETURN
     0x1244 [0x5B] LOAD_EXT_SCHEDULER: Load scheduler 0xFEFEFE00 with entities [Grav'iton (ID: 17445153/0x010A3121), Grav'iton (ID: 17445153/0x010A3121)], work=576*
     0x1253 [0x37] UPDATE_EVENT_POSITION_AND_DIR: x=278.372*, z=-278.373*, y=31.999*, direction=223.2°*
     0x125C [0x27] REQ_SET(priority=0x10, entity_id=Tonberi01 (ID: 17445154/0x010A3122), tag_num=0x04)
     0x1263 [0x27] REQ_SET(priority=0x10, entity_id=Tonberi02 (ID: 17445155/0x010A3123), tag_num=0x04)
     0x126A [0x92] LocalPlayer->Render.Flags3 ^= 0x01
     0x1270 [0x92] Tonberi01 (ID: 17445154/0x010A3122)->Render.Flags3 ^= 0x01
     0x1276 [0x92] Tonberi02 (ID: 17445155/0x010A3123)->Render.Flags3 ^= 0x01
     0x127C [0x5C] MUSIC_CONTROL: Set Idle (Day) music to song 193*
     0x1280 [0x5C] MUSIC_CONTROL: Set Idle (Night) music to song 193*
     0x1284 [0x5C] MUSIC_CONTROL: Set Combat (Solo) music to song 193*
     0x1288 [0x5C] MUSIC_CONTROL: Set Combat (Party) music to song 193*
     0x128C [0x9A] WAIT_MUSIC_SERVER()
     0x128D [0x5D] SET_MUSIC_VOLUME(volume=96*, fade_time=60*)
     0x1292 [0x45] LOAD_SCHEDULED_TASK: Load scheduler "se01" with entities [LocalPlayer, LocalPlayer], work=[230*, 0*]
     0x12A3 [0x45] LOAD_SCHEDULED_TASK: Load scheduler "fdi2" with entities [LocalPlayer, LocalPlayer], work=[200*, 0*]
     0x12B4 [0x27] REQ_SET(priority=0x10, entity_id=Tonberi01 (ID: 17445154/0x010A3122), tag_num=0x09)
     0x12BB [0x1C] WAIT(30* ticks)
     0x12BE [0x29] REQ_SET_WAIT(priority=0x10, entity_id=Tonberi02 (ID: 17445155/0x010A3123), tag_num=0x09)
     0x12C5 [0x1C] WAIT(45* ticks)
     0x12C8 [0x48] [System] [7677*]:
    → "Wait. Lay down thy blades."
     0x12CB [0x23] WAIT_FOR_DIALOG_INTERACTION
     0x12CC [0x27] REQ_SET(priority=0x10, entity_id=Unnamed NPC (ID: 17445143/0x010A3117), tag_num=0x03)
     0x12D3 [0x52] END_LOAD_SCHEDULER: End scheduler "se01" with entities [LocalPlayer, LocalPlayer], work=230*
     0x12E2 [0x45] LOAD_SCHEDULED_TASK: Load scheduler "se02" with entities [LocalPlayer, LocalPlayer], work=[230*, 0*]
     0x12F3 [0x29] REQ_SET_WAIT(priority=0x10, entity_id=Grav'iton (ID: 17445153/0x010A3121), tag_num=0x09)
     0x12FA [0x2B] Grav'iton (ID: 17445153/0x010A3121) [7678*]:
