# Event 36

## Metadata

| Field           | Value    |
|-----------------|----------|
| Event Index     | 5/26     |
| Offset          | 0x0086   |
| Data Size       | 56 bytes |
| Calculated Size | 56 bytes |
| Instructions    | 10       |

```
      00 01 02 03 04 05 06 07  08 09 0A 0B 0C 0D 0E 0F
      -- -- -- -- -- -- -- --  -- -- -- -- -- -- -- --
0080:                   42 4A  1A 42 0A 01 F0 FF FF 7F        BJ.B......
0090: 6F 76 1A 42 0A 01 66 01  80 F8 FF FF 7F F8 FF FF  ov.B..f.........
00A0: 7F 74 6C 6B 30 2B 1A 42  0A 01 04 80 23 66 01 80  .tlk0+.B....#f..
00B0: F8 FF FF 7F F8 FF FF 7F  74 6C 6B 31 21 00        ........tlk1!.  
```

## Opcodes

```
  0: 0x0086 [0x42] SET_CLI_EVENT_CANCEL_DATA()
  1: 0x0087 [0x4A] Diordinne (ID: 17449498/0x010A421A) looks at LocalPlayer
  2: 0x0090 [0x6F] WAIT_FRAME_DELAY: Yield until WaitTime reaches zero
  3: 0x0091 [0x76] CHECK_ENTITY_RENDER_FLAGS: Wait until Diordinne (ID: 17449498/0x010A421A) Render.Flags0 and Render.Flags3 conditions are met
  4: 0x0096 [0x66] LOAD_EXT_SCHEDULER_MAIN: Load scheduler "tlk0" with entities [EventEntity, EventEntity], work=29*
  5: 0x00A5 [0x2B] Diordinne (ID: 17449498/0x010A421A) [7788*]:
    → "Take this spare key to the number eight shelter. Be careful not to misplace it again.\u007F1\u0000\u0007"
  6: 0x00AC [0x23] WAIT_FOR_DIALOG_INTERACTION
  7: 0x00AD [0x66] LOAD_EXT_SCHEDULER_MAIN: Load scheduler "tlk1" with entities [EventEntity, EventEntity], work=29*
  8: 0x00BC [0x21] END_EVENT
  9: 0x00BD [0x00] END_REQSTACK()
```
