# Event 37

## Metadata

| Field           | Value    |
|-----------------|----------|
| Event Index     | 6/26     |
| Offset          | 0x00BE   |
| Data Size       | 55 bytes |
| Calculated Size | 55 bytes |
| Instructions    | 9        |

```
      00 01 02 03 04 05 06 07  08 09 0A 0B 0C 0D 0E 0F
      -- -- -- -- -- -- -- --  -- -- -- -- -- -- -- --
00B0:                                            4A 1A                J.
00C0: 42 0A 01 F0 FF FF 7F 6F  76 1A 42 0A 01 66 01 80  B......ov.B..f..
00D0: F8 FF FF 7F F8 FF FF 7F  74 6C 6B 30 2B 1A 42 0A  ........tlk0+.B.
00E0: 01 05 80 23 66 01 80 F8  FF FF 7F F8 FF FF 7F 74  ...#f..........t
00F0: 6C 6B 31 21 00                                    lk1!.           
```

## Opcodes

```
  0: 0x00BE [0x4A] Diordinne (ID: 17449498/0x010A421A) looks at LocalPlayer
  1: 0x00C7 [0x6F] WAIT_FRAME_DELAY: Yield until WaitTime reaches zero
  2: 0x00C8 [0x76] CHECK_ENTITY_RENDER_FLAGS: Wait until Diordinne (ID: 17449498/0x010A421A) Render.Flags0 and Render.Flags3 conditions are met
  3: 0x00CD [0x66] LOAD_EXT_SCHEDULER_MAIN: Load scheduler "tlk0" with entities [EventEntity, EventEntity], work=29*
  4: 0x00DC [0x2B] Diordinne (ID: 17449498/0x010A421A) [7784*]:
    → "The number eight shelter is accessible via a secret entrance at H-9 on your map.\u007F1\u0000\u0007"
  5: 0x00E3 [0x23] WAIT_FOR_DIALOG_INTERACTION
  6: 0x00E4 [0x66] LOAD_EXT_SCHEDULER_MAIN: Load scheduler "tlk1" with entities [EventEntity, EventEntity], work=29*
  7: 0x00F3 [0x21] END_EVENT
  8: 0x00F4 [0x00] END_REQSTACK()
```
