# Event 65535

## Metadata

| Field           | Value    |
|-----------------|----------|
| Event Index     | 5/25     |
| Offset          | 0x002F   |
| Data Size       | 52 bytes |
| Calculated Size | 52 bytes |
| Instructions    | 12       |

```
      00 01 02 03 04 05 06 07  08 09 0A 0B 0C 0D 0E 0F
      -- -- -- -- -- -- -- --  -- -- -- -- -- -- -- --
0020:                                               1C                 .
0030: 0B 80 32 08 80 86 01 F8  FF FF 7F 1E CF 70 0E 01  ..2..........p..
0040: 6F 70 86 00 F8 FF FF 7F  1F 00 0C 80 0D 80 06 80  op..............
0050: 1F 01 6F 66 0E 80 F8 FF  FF 7F F8 FF FF 7F 31 72  ..of..........1r
0060: 64 79 00                                          dy.             
```

## Opcodes

```
  0: 0x002F [0x1C] WAIT(120* ticks)
  1: 0x0032 [0x32] ExtData[1]->MainSpeed = 40* * 0.1
  2: 0x0035 [0x86] EventEntity->Render.Flags3 ^= 0x01
  3: 0x003B [0x1E] EventEntity looks at Rochefogne (ID: 17723599/0x010E70CF) and starts talking
  4: 0x0040 [0x6F] WAIT_FRAME_DELAY: Yield until WaitTime reaches zero
  5: 0x0041 [0x70] WAIT_ENTITY_RENDER_FLAG: Wait while EventEntity->Render.Flags3 bit 2 is set (cancel turn if not)
  6: 0x0042 [0x86] EventEntity->Render.Flags3 = Flags3  // No change (flag=0)
  7: 0x0048 [0x1F] MOVE_ENTITY: EventEntity moves to X=142.596*, Z=129.587*, Y=0.000*
  8: 0x0050 [0x1F] MOVE_ENTITY: Update entity position (mode=1)
  9: 0x0052 [0x6F] WAIT_FRAME_DELAY: Yield until WaitTime reaches zero
 10: 0x0053 [0x66] LOAD_EXT_SCHEDULER_MAIN: Load scheduler "1rdy" with entities [EventEntity, EventEntity], work=24*
 11: 0x0062 [0x00] END_REQSTACK()
```
