# Event 65535

## Metadata

| Field           | Value    |
|-----------------|----------|
| Event Index     | 100/113  |
| Offset          | 0x073C   |
| Data Size       | 62 bytes |
| Calculated Size | 62 bytes |
| Instructions    | 12       |

```
      00 01 02 03 04 05 06 07  08 09 0A 0B 0C 0D 0E 0F
      -- -- -- -- -- -- -- --  -- -- -- -- -- -- -- --
0730:                                      32 1C 80 1F              2...
0740: 00 26 80 27 80 28 80 1F  01 1F 00 29 80 2A 80 2B  .&.'.(.....).*.+
0750: 80 1F 01 6F 4B F8 FF FF  7F 2C 80 6F 70 66 05 80  ...oK....,.opf..
0760: F8 FF FF 7F F8 FF FF 7F  73 68 61 30 53 F8 FF FF  ........sha0S...
0770: 7F F8 FF FF 7F 73 68 61  30 00                    .....sha0.      
```

## Opcodes

```
  0: 0x073C [0x32] ExtData[1]->MainSpeed = 40* * 0.1
  1: 0x073F [0x1F] MOVE_ENTITY: EventEntity moves to X=327.199*, Z=393.665*, Y=-0.056*
  2: 0x0747 [0x1F] MOVE_ENTITY: Update entity position (mode=1)
  3: 0x0749 [0x1F] MOVE_ENTITY: EventEntity moves to X=336.992*, Z=393.921*, Y=-0.422*
  4: 0x0751 [0x1F] MOVE_ENTITY: Update entity position (mode=1)
  5: 0x0753 [0x6F] WAIT_FRAME_DELAY: Yield until WaitTime reaches zero
  6: 0x0754 [0x4B] UPDATE_ENTITY_YAW(entity=EventEntity, yaw=3.0°*)
  7: 0x075B [0x6F] WAIT_FRAME_DELAY: Yield until WaitTime reaches zero
  8: 0x075C [0x70] WAIT_ENTITY_RENDER_FLAG: Wait while EventEntity->Render.Flags3 bit 2 is set (cancel turn if not)
  9: 0x075D [0x66] LOAD_EXT_SCHEDULER_MAIN: Load scheduler "sha0" with entities [EventEntity, EventEntity], work=19*
 10: 0x076C [0x53] WAIT_SCHEDULER_TASK: Wait for scheduler "sha0" with entities [EventEntity, EventEntity]
 11: 0x0779 [0x00] END_REQSTACK()
```
