# Event 65535

## Metadata

| Field           | Value    |
|-----------------|----------|
| Event Index     | 112/113  |
| Offset          | 0x080D   |
| Data Size       | 54 bytes |
| Calculated Size | 54 bytes |
| Instructions    | 8        |

```
      00 01 02 03 04 05 06 07  08 09 0A 0B 0C 0D 0E 0F
      -- -- -- -- -- -- -- --  -- -- -- -- -- -- -- --
0800:                                         37 47 80               7G.
0810: 48 80 49 80 4A 80 32 20  80 1F 00 4B 80 4C 80 4D  H.I.J.2 ...K.L.M
0820: 80 1F 01 1C 34 80 66 03  80 F8 FF FF 7F F8 FF FF  ....4.f.........
0830: 7F 73 69 6E 30 53 F8 FF  FF 7F F8 FF FF 7F 73 69  .sin0S........si
0840: 6E 30 00                                          n0.             
```

## Opcodes

```
  0: 0x080D [0x37] UPDATE_EVENT_POSITION_AND_DIR: x=333.449*, z=395.466*, y=0.172*, direction=214.3°*
  1: 0x0816 [0x32] ExtData[1]->MainSpeed = 13* * 0.1
  2: 0x0819 [0x1F] MOVE_ENTITY: EventEntity moves to X=330.872*, Z=395.493*, Y=0.266*
  3: 0x0821 [0x1F] MOVE_ENTITY: Update entity position (mode=1)
  4: 0x0823 [0x1C] WAIT(20* ticks)
  5: 0x0826 [0x66] LOAD_EXT_SCHEDULER_MAIN(work_offset=88*, entity1=EventEntity, entity2=EventEntity, action="sin0")
  6: 0x0835 [0x53] WAIT_SCHEDULER_TASK(entity1=EventEntity, entity2=EventEntity, action_id="sin0")
  7: 0x0842 [0x00] END_REQSTACK()
```
