# Event 65535

## Metadata

| Field           | Value    |
|-----------------|----------|
| Event Index     | 74/75    |
| Offset          | 0x0393   |
| Data Size       | 40 bytes |
| Calculated Size | 40 bytes |
| Instructions    | 10       |

```
      00 01 02 03 04 05 06 07  08 09 0A 0B 0C 0D 0E 0F
      -- -- -- -- -- -- -- --  -- -- -- -- -- -- -- --
0390:          32 33 80 1F 00  3B 80 3C 80 12 80 1F 01     23...;.<.....
03A0: 1F 00 3D 80 3E 80 3F 80  1F 01 1F 00 40 80 41 80  ..=.>.?.....@.A.
03B0: 3F 80 1F 01 6F 1E D4 D0  00 01 00                 ?...o......     
```

## Opcodes

```
  0: 0x0393 [0x32] ExtData[1]->MainSpeed = 40* * 0.1
  1: 0x0396 [0x1F] MOVE_ENTITY: EventEntity moves to X=-458.247*, Z=11.978*, Y=121.999*
  2: 0x039E [0x1F] MOVE_ENTITY: Update entity position (mode=1)
  3: 0x03A0 [0x1F] MOVE_ENTITY: EventEntity moves to X=-460.218*, Z=19.216*, Y=122.032*
  4: 0x03A8 [0x1F] MOVE_ENTITY: Update entity position (mode=1)
  5: 0x03AA [0x1F] MOVE_ENTITY: EventEntity moves to X=-460.182*, Z=22.795*, Y=122.032*
  6: 0x03B2 [0x1F] MOVE_ENTITY: Update entity position (mode=1)
  7: 0x03B4 [0x6F] WAIT_FRAME_DELAY: Yield until WaitTime reaches zero
  8: 0x03B5 [0x1E] EventEntity looks at Gloom Phantom (ID: 16830676/0x0100D0D4) and starts talking
  9: 0x03BA [0x00] END_REQSTACK()
```
