# Event 65535

## Metadata

| Field           | Value    |
|-----------------|----------|
| Event Index     | 4/8      |
| Offset          | 0x0048   |
| Data Size       | 70 bytes |
| Calculated Size | 70 bytes |
| Instructions    | 8        |

```
      00 01 02 03 04 05 06 07  08 09 0A 0B 0C 0D 0E 0F
      -- -- -- -- -- -- -- --  -- -- -- -- -- -- -- --
0040:                          66 04 80 33 93 08 01 33          f..3...3
0050: 93 08 01 67 61 74 30 1C  05 80 66 04 80 34 93 08  ...gat0...f..4..
0060: 01 34 93 08 01 67 61 74  30 1C 06 80 66 04 80 33  .4...gat0...f..3
0070: 93 08 01 33 93 08 01 67  61 74 31 1C 05 80 66 04  ...3...gat1...f.
0080: 80 34 93 08 01 34 93 08  01 67 61 74 31 00        .4...4...gat1.  
```

## Opcodes

```
  0: 0x0048 [0x66] LOAD_EXT_SCHEDULER_MAIN: Load scheduler "gat0" with entities [ex05 (ID: 17339187/0x01089333), ex05 (ID: 17339187/0x01089333)], work=136*
  1: 0x0057 [0x1C] WAIT(10* ticks)
  2: 0x005A [0x66] LOAD_EXT_SCHEDULER_MAIN: Load scheduler "gat0" with entities [ex06 (ID: 17339188/0x01089334), ex06 (ID: 17339188/0x01089334)], work=136*
  3: 0x0069 [0x1C] WAIT(100* ticks)
  4: 0x006C [0x66] LOAD_EXT_SCHEDULER_MAIN: Load scheduler "gat1" with entities [ex05 (ID: 17339187/0x01089333), ex05 (ID: 17339187/0x01089333)], work=136*
  5: 0x007B [0x1C] WAIT(10* ticks)
  6: 0x007E [0x66] LOAD_EXT_SCHEDULER_MAIN: Load scheduler "gat1" with entities [ex06 (ID: 17339188/0x01089334), ex06 (ID: 17339188/0x01089334)], work=136*
  7: 0x008D [0x00] END_REQSTACK()
```
