# Event 65535

## Metadata

| Field           | Value    |
|-----------------|----------|
| Event Index     | 24/26    |
| Offset          | 0x0274   |
| Data Size       | 51 bytes |
| Calculated Size | 51 bytes |
| Instructions    | 11       |

```
      00 01 02 03 04 05 06 07  08 09 0A 0B 0C 0D 0E 0F
      -- -- -- -- -- -- -- --  -- -- -- -- -- -- -- --
0270:             32 4C 80 1F  00 5D 80 5E 80 5F 80 1F      2L...].^._..
0280: 01 1F 00 60 80 61 80 62  80 1F 01 1F 00 63 80 64  ...`.a.b.....c.d
0290: 80 65 80 1F 01 1E 19 61  0E 01 1C 45 80 4A 19 61  .e.....a...E.J.a
02A0: 0E 01 1B 61 0E 01 00                              ...a...         
```

## Opcodes

```
  0: 0x0274 [0x32] ExtData[1]->MainSpeed = 45* * 0.1
  1: 0x0277 [0x1F] MOVE_ENTITY: EventEntity moves to X=-604.257*, Z=586.573*, Y=0.057*
  2: 0x027F [0x1F] MOVE_ENTITY: Update entity position (mode=1)
  3: 0x0281 [0x1F] MOVE_ENTITY: EventEntity moves to X=-603.318*, Z=588.527*, Y=0.196*
  4: 0x0289 [0x1F] MOVE_ENTITY: Update entity position (mode=1)
  5: 0x028B [0x1F] MOVE_ENTITY: EventEntity moves to X=-601.495*, Z=586.040*, Y=0.496*
  6: 0x0293 [0x1F] MOVE_ENTITY: Update entity position (mode=1)
  7: 0x0295 [0x1E] EventEntity looks at Unnamed NPC (ID: 17719577/0x010E6119) and starts talking
  8: 0x029A [0x1C] WAIT(30* ticks)
  9: 0x029D [0x4A] Unnamed NPC (ID: 17719577/0x010E6119) looks at Unnamed NPC (ID: 17719579/0x010E611B)
 10: 0x02A6 [0x00] END_REQSTACK()
```
