# Event 65535

## Metadata

| Field           | Value    |
|-----------------|----------|
| Event Index     | 18/26    |
| Offset          | 0x0189   |
| Data Size       | 48 bytes |
| Calculated Size | 48 bytes |
| Instructions    | 11       |

```
      00 01 02 03 04 05 06 07  08 09 0A 0B 0C 0D 0E 0F
      -- -- -- -- -- -- -- --  -- -- -- -- -- -- -- --
0180:                             02 04 00 2B 80 01 B8           ...+...
0190: 01 32 19 80 1F 00 2C 80  2D 80 2E 80 1F 01 1F 00  .2....,.-.......
01A0: 2F 80 30 80 00 80 1F 01  1F 00 31 80 32 80 33 80  /.0.......1.2.3.
01B0: 1F 01 1C 34 80 01 89 01  00                       ...4.....       
```

## Opcodes

```
  0: 0x0189 [0x02] IF !(ExtData[1]->WorkLocal[4] == 2*) GOTO 0x01B8
  1: 0x0191 [0x32] ExtData[1]->MainSpeed = 15* * 0.1
  2: 0x0194 [0x1F] MOVE_ENTITY: EventEntity moves to X=-604.741*, Z=603.338*, Y=0.035*
  3: 0x019C [0x1F] MOVE_ENTITY: Update entity position (mode=1)
  4: 0x019E [0x1F] MOVE_ENTITY: EventEntity moves to X=-601.147*, Z=602.770*, Y=0.000*
  5: 0x01A6 [0x1F] MOVE_ENTITY: Update entity position (mode=1)
  6: 0x01A8 [0x1F] MOVE_ENTITY: EventEntity moves to X=-598.147*, Z=604.645*, Y=0.031*
  7: 0x01B0 [0x1F] MOVE_ENTITY: Update entity position (mode=1)
  8: 0x01B2 [0x1C] WAIT(60* ticks)
  9: 0x01B5 [0x01] GOTO 0x0189
 10: 0x01B8 [0x00] END_REQSTACK()
```
