# Event 65535

## Metadata

| Field           | Value    |
|-----------------|----------|
| Event Index     | 22/26    |
| Offset          | 0x0223   |
| Data Size       | 67 bytes |
| Calculated Size | 67 bytes |
| Instructions    | 15       |

```
      00 01 02 03 04 05 06 07  08 09 0A 0B 0C 0D 0E 0F
      -- -- -- -- -- -- -- --  -- -- -- -- -- -- -- --
0220:          32 4C 80 1F 00  4D 80 4E 80 4F 80 1F 01     2L...M.N.O...
0230: 4B 1B 61 0E 01 50 80 1C  34 80 1F 00 51 80 52 80  K.a..P..4...Q.R.
0240: 53 80 1F 01 4B 1B 61 0E  01 54 80 1C 55 80 1F 00  S...K.a..T..U...
0250: 56 80 57 80 58 80 1F 01  1C 45 80 4B 1B 61 0E 01  V.W.X....E.K.a..
0260: 59 80 1C 34 80 00                                 Y..4..          
```

## Opcodes

```
  0: 0x0223 [0x32] ExtData[1]->MainSpeed = 45* * 0.1
  1: 0x0226 [0x1F] MOVE_ENTITY: EventEntity moves to X=-599.295*, Z=590.678*, Y=0.264*
  2: 0x022E [0x1F] MOVE_ENTITY: Update entity position (mode=1)
  3: 0x0230 [0x4B] UPDATE_ENTITY_YAW(entity=Unnamed NPC (ID: 17719579/0x010E611B), yaw=5.3°*)
  4: 0x0237 [0x1C] WAIT(60* ticks)
  5: 0x023A [0x1F] MOVE_ENTITY: EventEntity moves to X=-604.353*, Z=586.292*, Y=0.138*
  6: 0x0242 [0x1F] MOVE_ENTITY: Update entity position (mode=1)
  7: 0x0244 [0x4B] UPDATE_ENTITY_YAW(entity=Unnamed NPC (ID: 17719579/0x010E611B), yaw=0.2°*)
  8: 0x024B [0x1C] WAIT(240* ticks)
  9: 0x024E [0x1F] MOVE_ENTITY: EventEntity moves to X=-600.328*, Z=582.410*, Y=0.802*
 10: 0x0256 [0x1F] MOVE_ENTITY: Update entity position (mode=1)
 11: 0x0258 [0x1C] WAIT(30* ticks)
 12: 0x025B [0x4B] UPDATE_ENTITY_YAW(entity=Unnamed NPC (ID: 17719579/0x010E611B), yaw=16.6°*)
 13: 0x0262 [0x1C] WAIT(60* ticks)
 14: 0x0265 [0x00] END_REQSTACK()
```
