# Event 65535

## Metadata

| Field           | Value    |
|-----------------|----------|
| Event Index     | 37/43    |
| Offset          | 0x021D   |
| Data Size       | 54 bytes |
| Calculated Size | 54 bytes |
| Instructions    | 10       |

```
      00 01 02 03 04 05 06 07  08 09 0A 0B 0C 0D 0E 0F
      -- -- -- -- -- -- -- --  -- -- -- -- -- -- -- --
0210:                                         32 1F 80               2..
0220: 1F 00 64 80 65 80 66 80  1F 01 79 00 65 43 05 01  ..d.e.f...y.eC..
0230: 64 43 05 01 79 00 F0 FF  FF 7F 64 43 05 01 1E 97  dC..y.....dC....
0240: 43 05 01 1C 67 80 4A 97  43 05 01 F8 FF FF 7F 1C  C...g.J.C.......
0250: 67 80 00                                          g..             
```

## Opcodes

```
  0: 0x021D [0x32] ExtData[1]->MainSpeed = 13* * 0.1
  1: 0x0220 [0x1F] MOVE_ENTITY: EventEntity moves to X=21.846*, Z=64.632*, Y=1.999*
  2: 0x0228 [0x1F] MOVE_ENTITY: Update entity position (mode=1)
  3: 0x022A [0x79] Barnabas (ID: 17122149/0x01054365) looks at Lysander (ID: 17122148/0x01054364) (Basic look)
  4: 0x0234 [0x79] LocalPlayer looks at Lysander (ID: 17122148/0x01054364) (Basic look)
  5: 0x023E [0x1E] EventEntity looks at Lilisette (ID: 17122199/0x01054397) and starts talking
  6: 0x0243 [0x1C] WAIT(30* ticks)
  7: 0x0246 [0x4A] Lilisette (ID: 17122199/0x01054397) looks at EventEntity
  8: 0x024F [0x1C] WAIT(30* ticks)
  9: 0x0252 [0x00] END_REQSTACK()
```
