# Event 509

## Metadata

| Field           | Value    |
|-----------------|----------|
| Event Index     | 5/5      |
| Offset          | 0x0A6F   |
| Data Size       | 24 bytes |
| Calculated Size | 24 bytes |
| Instructions    | 11       |

```
      00 01 02 03 04 05 06 07  08 09 0A 0B 0C 0D 0E 0F
      -- -- -- -- -- -- -- --  -- -- -- -- -- -- -- --
0A60:                                               20                  
0A70: 01 42 43 00 43 01 1E F0  FF FF 7F 6F 70 2B B2 F1  .BC.C......op+..
0A80: 06 01 2C 80 23 21 00                              ..,.#!.         
```

## Opcodes

```
  0: 0x0A6F [0x20] SET_CLI_EVENT_UC_FLAG: Lock player control
  1: 0x0A71 [0x42] SET_CLI_EVENT_CANCEL_DATA()
  2: 0x0A72 [0x43] SEND_EVENT_UPDATE: Send pending tag to server (packet 0x005B)
  3: 0x0A74 [0x43] SEND_EVENT_UPDATE: Check pending flag (skip if not pending)
  4: 0x0A76 [0x1E] EventEntity looks at LocalPlayer and starts talking
  5: 0x0A7B [0x6F] WAIT_FRAME_DELAY: Yield until WaitTime reaches zero
  6: 0x0A7C [0x70] WAIT_ENTITY_RENDER_FLAG: Wait while EventEntity->Render.Flags3 bit 2 is set (cancel turn if not)
  7: 0x0A7D [0x2B] Goblin Grenadier (ID: 17232306/0x0106F1B2) [7410*]:
    → "Yeah? I'm a b-b-busy Gobbie.\u0007I've got better things to do than listen to your y-y-yammerin'.\u007F1\u0000\u0007"
  8: 0x0A84 [0x23] WAIT_FOR_DIALOG_INTERACTION
  9: 0x0A85 [0x21] END_EVENT
 10: 0x0A86 [0x00] END_REQSTACK()
```
