# Event 65535

## Metadata

| Field           | Value    |
|-----------------|----------|
| Event Index     | 50/58    |
| Offset          | 0x02C3   |
| Data Size       | 56 bytes |
| Calculated Size | 56 bytes |
| Instructions    | 10       |

```
      00 01 02 03 04 05 06 07  08 09 0A 0B 0C 0D 0E 0F
      -- -- -- -- -- -- -- --  -- -- -- -- -- -- -- --
02C0:          32 03 80 1F 00  0B 80 0C 80 0D 80 1F 01     2............
02D0: 6F 4B F8 FF FF 7F 0E 80  6F 76 F8 FF FF 7F 5B 01  oK......ov....[.
02E0: 80 F8 FF FF 7F F8 FF FF  7F 68 61 70 30 53 F8 FF  .........hap0S..
02F0: FF 7F F8 FF FF 7F 68 61  70 30 00                 ......hap0.     
```

## Opcodes

```
  0: 0x02C3 [0x32] ExtData[1]->MainSpeed = 13* * 0.1
  1: 0x02C6 [0x1F] MOVE_ENTITY: EventEntity moves to X=200.103*, Z=284.033*, Y=-39.999*
  2: 0x02CE [0x1F] MOVE_ENTITY: Update entity position (mode=1)
  3: 0x02D0 [0x6F] WAIT_FRAME_DELAY: Yield until WaitTime reaches zero
  4: 0x02D1 [0x4B] UPDATE_ENTITY_YAW(entity=EventEntity, yaw=0.00°*)
  5: 0x02D8 [0x6F] WAIT_FRAME_DELAY: Yield until WaitTime reaches zero
  6: 0x02D9 [0x76] CHECK_ENTITY_RENDER_FLAGS: Wait until EventEntity Render.Flags0 and Render.Flags3 conditions are met
  7: 0x02DE [0x5B] LOAD_EXT_SCHEDULER(work_offset=216*, entity1=EventEntity, entity2=EventEntity, action="hap0")
  8: 0x02ED [0x53] WAIT_SCHEDULER_TASK(entity1=EventEntity, entity2=EventEntity, action_id="hap0")
  9: 0x02FA [0x00] END_REQSTACK()
```
