# Event 65535

## Metadata

| Field           | Value    |
|-----------------|----------|
| Event Index     | 85/133   |
| Offset          | 0x05E6   |
| Data Size       | 47 bytes |
| Calculated Size | 47 bytes |
| Instructions    | 5        |

```
      00 01 02 03 04 05 06 07  08 09 0A 0B 0C 0D 0E 0F
      -- -- -- -- -- -- -- --  -- -- -- -- -- -- -- --
05E0:                   5B 02  80 8C 20 03 01 8C 20 03        [... ... .
05F0: 01 74 6C 6B 30 1C 18 80  5B 02 80 8C 20 03 01 8C  .tlk0...[... ...
0600: 20 03 01 74 6C 6B 31 53  8C 20 03 01 8C 20 03 01   ..tlk1S. ... ..
0610: 74 6C 6B 31 00                                    tlk1.           
```

## Opcodes

```
  0: 0x05E6 [0x5B] LOAD_EXT_SCHEDULER(work_offset=833*, entity1=Naja Salaheem (ID: 16982156/0x0103208C), entity2=Naja Salaheem (ID: 16982156/0x0103208C), action="tlk0")
  1: 0x05F5 [0x1C] WAIT(20* ticks)
  2: 0x05F8 [0x5B] LOAD_EXT_SCHEDULER(work_offset=833*, entity1=Naja Salaheem (ID: 16982156/0x0103208C), entity2=Naja Salaheem (ID: 16982156/0x0103208C), action="tlk1")
  3: 0x0607 [0x53] WAIT_SCHEDULER_TASK(entity1=Naja Salaheem (ID: 16982156/0x0103208C), entity2=Naja Salaheem (ID: 16982156/0x0103208C), action_id="tlk1")
  4: 0x0614 [0x00] END_REQSTACK()
```
