# Event 108

## Metadata

| Field           | Value    |
|-----------------|----------|
| Event Index     | 28/49    |
| Offset          | 0x0169   |
| Data Size       | 19 bytes |
| Calculated Size | 19 bytes |
| Instructions    | 10       |

```
      00 01 02 03 04 05 06 07  08 09 0A 0B 0C 0D 0E 0F
      -- -- -- -- -- -- -- --  -- -- -- -- -- -- -- --
0160:                             1E F0 FF FF 7F 6F 70           .....op
0170: 1D 07 80 23 1D 08 80 23  20 00 21 00              ...#...# .!.    
```

## Opcodes

```
  0: 0x0169 [0x1E] EventEntity looks at LocalPlayer and starts talking
  1: 0x016E [0x6F] WAIT_FRAME_DELAY: Yield until WaitTime reaches zero
  2: 0x016F [0x70] WAIT_ENTITY_RENDER_FLAG: Wait while EventEntity->Render.Flags3 bit 2 is set (cancel turn if not)
  3: 0x0170 [0x1D] PRINT_EVENT_MESSAGE(message_id=179*)
    → "Orastery minister, Ajido-Marujido...\u007F1\u0000\u0007"
  4: 0x0173 [0x23] WAIT_FOR_DIALOG_INTERACTION
  5: 0x0174 [0x1D] PRINT_EVENT_MESSAGE(message_id=180*)
    → "He's so determined to decipher the mystery behind the forbidden magic that he cannot see what is rrreally going on around him.\u007F1\u0000\u0007"
  6: 0x0177 [0x23] WAIT_FOR_DIALOG_INTERACTION
  7: 0x0178 [0x20] SET_CLI_EVENT_UC_FLAG: Unlock player control
  8: 0x017A [0x21] END_EVENT
  9: 0x017B [0x00] END_REQSTACK()
```
