# Event 46

## Metadata

| Field           | Value    |
|-----------------|----------|
| Event Index     | 6/10     |
| Offset          | 0x0060   |
| Data Size       | 25 bytes |
| Calculated Size | 25 bytes |
| Instructions    | 10       |

```
      00 01 02 03 04 05 06 07  08 09 0A 0B 0C 0D 0E 0F
      -- -- -- -- -- -- -- --  -- -- -- -- -- -- -- --
0060: 42 1A C4 00 02 09 10 0A  80 00 73 00 1D 0B 80 23  B.........s....#
0070: 01 77 00 1D 0C 80 23 21  00                       .w....#!.       
```

## Opcodes

```
  0: 0x0060 [0x42] SET_CLI_EVENT_CANCEL_DATA()
  1: 0x0061 [0x1A] CALL_SUBROUTINE(address=0x00C4)
  2: 0x0064 [0x02] IF !(Work_Zone[9] == 1*) GOTO 0x0073
  3: 0x006C [0x1D] PRINT_EVENT_MESSAGE(message_id=10238*)
    → "\u007F\u0000\u0001\u0001\u0005%\u0002\u0001\u0000\u0000 do not come cheap. I will give you a new one only in exchange for \u0001\u0001\u0001 \u0001\u0005$\u0002\u0002\u0000\u0000.\u007F1\u0000\u0007"
  4: 0x006F [0x23] WAIT_FOR_DIALOG_INTERACTION
  5: 0x0070 [0x01] GOTO 0x0077
  6: 0x0073 [0x1D] PRINT_EVENT_MESSAGE(message_id=10237*)
    → "You need another \u0001\u0005#\u0002\u0001\u0000\u0000? Fine, but these do not come cheap. I will give you a new one only in exchange for \u0001\u0001\u0001 \u0001\u0005$\u0002\u0002\u0000\u0000.\u007F1\u0000\u0007"
  7: 0x0076 [0x23] WAIT_FOR_DIALOG_INTERACTION

SUBROUTINE_0077:
  8: 0x0077 [0x21] END_EVENT
  9: 0x0078 [0x00] END_REQSTACK()
```
