# Event 50

## Metadata

| Field           | Value    |
|-----------------|----------|
| Event Index     | 9/10     |
| Offset          | 0x00A9   |
| Data Size       | 17 bytes |
| Calculated Size | 17 bytes |
| Instructions    | 9        |

```
      00 01 02 03 04 05 06 07  08 09 0A 0B 0C 0D 0E 0F
      -- -- -- -- -- -- -- --  -- -- -- -- -- -- -- --
00A0:                             42 1A C4 00 1A F2 00           B......
00B0: 1D 0F 80 23 1D 10 80 23  21 00                    ...#...#!.      
```

## Opcodes

```
  0: 0x00A9 [0x42] SET_CLI_EVENT_CANCEL_DATA()
  1: 0x00AA [0x1A] CALL_SUBROUTINE(address=0x00C4)
  2: 0x00AD [0x1A] CALL_SUBROUTINE(address=0x00F2)
  3: 0x00B0 [0x1D] PRINT_EVENT_MESSAGE(message_id=10241*)
    → "You do not have to worry about your reward. Master Jaucribaix is a man of his word. Time is necessary for him to complete his work.\u007F1\u0000\u0007"
  4: 0x00B3 [0x23] WAIT_FOR_DIALOG_INTERACTION
  5: 0x00B4 [0x1D] PRINT_EVENT_MESSAGE(message_id=10242*)
    → "You must be patient. Nothing good can be gained by rushing things.\u007F1\u0000\u0007"
  6: 0x00B7 [0x23] WAIT_FOR_DIALOG_INTERACTION
  7: 0x00B8 [0x21] END_EVENT
  8: 0x00B9 [0x00] END_REQSTACK()
```
