# Event 65535

## Metadata

| Field           | Value    |
|-----------------|----------|
| Event Index     | 5/11     |
| Offset          | 0x001B   |
| Data Size       | 56 bytes |
| Calculated Size | 56 bytes |
| Instructions    | 12       |

```
      00 01 02 03 04 05 06 07  08 09 0A 0B 0C 0D 0E 0F
      -- -- -- -- -- -- -- --  -- -- -- -- -- -- -- --
0010:                                   6E B2 21 03 01             n.!..
0020: 05 80 99 B2 21 03 01 6E  B3 21 03 01 05 80 99 B3  ....!..n.!......
0030: 21 03 01 6E B4 21 03 01  05 80 99 B4 21 03 01 6E  !..n.!......!..n
0040: B5 21 03 01 05 80 99 B5  21 03 01 1C 06 80 1D 07  .!......!.......
0050: 80 23 00                                          .#.             
```

## Opcodes

```
  0: 0x001B [0x6E] Attendant (ID: 16982450/0x010321B2) uses emote 1*
  1: 0x0022 [0x99] Wait for Attendant (ID: 16982450/0x010321B2) animation to complete
  2: 0x0027 [0x6E] Attendant (ID: 16982451/0x010321B3) uses emote 1*
  3: 0x002E [0x99] Wait for Attendant (ID: 16982451/0x010321B3) animation to complete
  4: 0x0033 [0x6E] Attendant (ID: 16982452/0x010321B4) uses emote 1*
  5: 0x003A [0x99] Wait for Attendant (ID: 16982452/0x010321B4) animation to complete
  6: 0x003F [0x6E] Attendant (ID: 16982453/0x010321B5) uses emote 1*
  7: 0x0046 [0x99] Wait for Attendant (ID: 16982453/0x010321B5) animation to complete
  8: 0x004B [0x1C] WAIT(60* ticks)
  9: 0x004E [0x1D] PRINT_EVENT_MESSAGE(message_id=9716*)
    → "Welcome to the Kokba Hostel!\u0000\u0007"
 10: 0x0051 [0x23] WAIT_FOR_DIALOG_INTERACTION
 11: 0x0052 [0x00] END_REQSTACK()
```
