# Event 252

## Metadata

| Field           | Value    |
|-----------------|----------|
| Event Index     | 4/5      |
| Offset          | 0x006B   |
| Data Size       | 66 bytes |
| Calculated Size | 66 bytes |
| Instructions    | 12       |

```
      00 01 02 03 04 05 06 07  08 09 0A 0B 0C 0D 0E 0F
      -- -- -- -- -- -- -- --  -- -- -- -- -- -- -- --
0060:                                   42 03 09 10 03             B....
0070: 80 1E F0 FF FF 7F 1D 09  80 23 66 00 80 F8 FF FF  .........#f.....
0080: 7F F8 FF FF 7F 70 61 73  30 1D 0A 80 23 53 F8 FF  .....pas0...#S..
0090: FF 7F F8 FF FF 7F 70 61  73 30 45 0B 80 F0 FF FF  ......pas0E.....
00A0: 7F F0 FF FF 7F 71 73 74  63 0C 80 21 00           .....qstc..!.   
```

## Opcodes

```
  0: 0x006B [0x42] SET_CLI_EVENT_CANCEL_DATA()
  1: 0x006C [0x03] Work_Zone[9] = 139*
  2: 0x0071 [0x1E] EventEntity looks at LocalPlayer and starts talking
  3: 0x0076 [0x1D] PRINT_EVENT_MESSAGE(message_id=7655*)
    → "Good! The \u0001\u00053\u0002\u0007\u0000\u0000 is full!\u0007I can finally finish my research!\u0007Heh-heh-heh...\u007F1\u0000\u0007"
  4: 0x0079 [0x23] WAIT_FOR_DIALOG_INTERACTION
  5: 0x007A [0x66] LOAD_EXT_SCHEDULER_MAIN(work_offset=40*, entity1=EventEntity, entity2=EventEntity, action="pas0")
  6: 0x0089 [0x1D] PRINT_EVENT_MESSAGE(message_id=7656*)
    → "Oh yes, your reward!\u0007Here, they're yours, they're yours!\u007F1\u0000\u0007"
  7: 0x008C [0x23] WAIT_FOR_DIALOG_INTERACTION
  8: 0x008D [0x53] WAIT_SCHEDULER_TASK(entity1=EventEntity, entity2=EventEntity, action_id="pas0")
  9: 0x009A [0x45] LOAD_SCHEDULED_TASK(work_offset1=201*, entity1=LocalPlayer, entity2=LocalPlayer, scheduler_id="qstc", work_offset2=0*)
 10: 0x00AB [0x21] END_EVENT
 11: 0x00AC [0x00] END_REQSTACK()
```
