# Event 65535

## Metadata

| Field           | Value    |
|-----------------|----------|
| Event Index     | 28/36    |
| Offset          | 0x0268   |
| Data Size       | 48 bytes |
| Calculated Size | 48 bytes |
| Instructions    | 11       |

```
      00 01 02 03 04 05 06 07  08 09 0A 0B 0C 0D 0E 0F
      -- -- -- -- -- -- -- --  -- -- -- -- -- -- -- --
0260:                          02 04 00 58 80 01 97 02          ...X....
0270: 32 33 80 1F 00 59 80 5A  80 5B 80 1F 01 1F 00 5C  23...Y.Z.[.....\
0280: 80 5D 80 5E 80 1F 01 1C  5F 80 1F 00 60 80 61 80  .].^...._...`.a.
0290: 62 80 1F 01 01 68 02 00                           b....h..        
```

## Opcodes

```
  0: 0x0268 [0x02] IF !(ExtData[1]->WorkLocal[4] == 2*) GOTO 0x0297
  1: 0x0270 [0x32] ExtData[1]->MainSpeed = 15* * 0.1
  2: 0x0273 [0x1F] MOVE_ENTITY: EventEntity moves to X=-605.972*, Z=607.697*, Y=0.004*
  3: 0x027B [0x1F] MOVE_ENTITY: Update entity position (mode=1)
  4: 0x027D [0x1F] MOVE_ENTITY: EventEntity moves to X=-608.286*, Z=606.788*, Y=-0.064*
  5: 0x0285 [0x1F] MOVE_ENTITY: Update entity position (mode=1)
  6: 0x0287 [0x1C] WAIT(60* ticks)
  7: 0x028A [0x1F] MOVE_ENTITY: EventEntity moves to X=-606.508*, Z=607.958*, Y=-0.049*
  8: 0x0292 [0x1F] MOVE_ENTITY: Update entity position (mode=1)
  9: 0x0294 [0x01] GOTO 0x0268

SUBROUTINE_0297:
 10: 0x0297 [0x00] END_REQSTACK()
```
