# Event 65535

## Metadata

| Field           | Value    |
|-----------------|----------|
| Event Index     | 34/36    |
| Offset          | 0x034E   |
| Data Size       | 51 bytes |
| Calculated Size | 51 bytes |
| Instructions    | 11       |

```
      00 01 02 03 04 05 06 07  08 09 0A 0B 0C 0D 0E 0F
      -- -- -- -- -- -- -- --  -- -- -- -- -- -- -- --
0340:                                            32 7A                2z
0350: 80 1F 00 8B 80 8C 80 8D  80 1F 01 1F 00 8E 80 8F  ................
0360: 80 90 80 1F 01 1F 00 91  80 92 80 93 80 1F 01 1E  ................
0370: 4A 10 0F 01 1C 73 80 4A  4A 10 0F 01 4B 10 0F 01  J....s.JJ...K...
0380: 00                                                .               
```

## Opcodes

```
  0: 0x034E [0x32] ExtData[1]->MainSpeed = 45* * 0.1
  1: 0x0351 [0x1F] MOVE_ENTITY: EventEntity moves to X=-604.257*, Z=586.573*, Y=0.057*
  2: 0x0359 [0x1F] MOVE_ENTITY: Update entity position (mode=1)
  3: 0x035B [0x1F] MOVE_ENTITY: EventEntity moves to X=-603.318*, Z=588.527*, Y=0.196*
  4: 0x0363 [0x1F] MOVE_ENTITY: Update entity position (mode=1)
  5: 0x0365 [0x1F] MOVE_ENTITY: EventEntity moves to X=-601.495*, Z=586.040*, Y=0.496*
  6: 0x036D [0x1F] MOVE_ENTITY: Update entity position (mode=1)
  7: 0x036F [0x1E] EventEntity looks at Unnamed NPC (ID: 17764426/0x010F104A) and starts talking
  8: 0x0374 [0x1C] WAIT(30* ticks)
  9: 0x0377 [0x4A] Unnamed NPC (ID: 17764426/0x010F104A) looks at Unnamed NPC (ID: 17764427/0x010F104B)
 10: 0x0380 [0x00] END_REQSTACK()
```
