# Event 65535

## Metadata

| Field           | Value    |
|-----------------|----------|
| Event Index     | 32/36    |
| Offset          | 0x02FD   |
| Data Size       | 67 bytes |
| Calculated Size | 67 bytes |
| Instructions    | 15       |

```
      00 01 02 03 04 05 06 07  08 09 0A 0B 0C 0D 0E 0F
      -- -- -- -- -- -- -- --  -- -- -- -- -- -- -- --
02F0:                                         32 7A 80               2z.
0300: 1F 00 7B 80 7C 80 7D 80  1F 01 4B 4B 10 0F 01 7E  ..{.|.}...KK...~
0310: 80 1C 5F 80 1F 00 7F 80  80 80 81 80 1F 01 4B 4B  .._...........KK
0320: 10 0F 01 82 80 1C 83 80  1F 00 84 80 85 80 86 80  ................
0330: 1F 01 1C 73 80 4B 4B 10  0F 01 87 80 1C 5F 80 00  ...s.KK......_..
```

## Opcodes

```
  0: 0x02FD [0x32] ExtData[1]->MainSpeed = 45* * 0.1
  1: 0x0300 [0x1F] MOVE_ENTITY: EventEntity moves to X=-599.295*, Z=590.678*, Y=0.264*
  2: 0x0308 [0x1F] MOVE_ENTITY: Update entity position (mode=1)
  3: 0x030A [0x4B] UPDATE_ENTITY_YAW(entity=Unnamed NPC (ID: 17764427/0x010F104B), yaw=5.27°*)
  4: 0x0311 [0x1C] WAIT(60* ticks)
  5: 0x0314 [0x1F] MOVE_ENTITY: EventEntity moves to X=-604.353*, Z=586.292*, Y=0.138*
  6: 0x031C [0x1F] MOVE_ENTITY: Update entity position (mode=1)
  7: 0x031E [0x4B] UPDATE_ENTITY_YAW(entity=Unnamed NPC (ID: 17764427/0x010F104B), yaw=0.20°*)
  8: 0x0325 [0x1C] WAIT(240* ticks)
  9: 0x0328 [0x1F] MOVE_ENTITY: EventEntity moves to X=-600.328*, Z=582.410*, Y=0.802*
 10: 0x0330 [0x1F] MOVE_ENTITY: Update entity position (mode=1)
 11: 0x0332 [0x1C] WAIT(30* ticks)
 12: 0x0335 [0x4B] UPDATE_ENTITY_YAW(entity=Unnamed NPC (ID: 17764427/0x010F104B), yaw=16.63°*)
 13: 0x033C [0x1C] WAIT(60* ticks)
 14: 0x033F [0x00] END_REQSTACK()
```
