# Event 65535

## Metadata

| Field           | Value    |
|-----------------|----------|
| Event Index     | 11/22    |
| Offset          | 0x0044   |
| Data Size       | 93 bytes |
| Calculated Size | 93 bytes |
| Instructions    | 12       |

```
      00 01 02 03 04 05 06 07  08 09 0A 0B 0C 0D 0E 0F
      -- -- -- -- -- -- -- --  -- -- -- -- -- -- -- --
0040:             02 23 10 05  80 00 51 00 22 01 01 9D      .#....Q."...
0050: 00 1A D5 01 02 01 00 02  80 00 73 00 B6 0B 06 80  ..........s.....
0060: 07 80 02 80 08 80 07 80  07 80 07 80 02 80 02 80  ................
0070: 01 87 00 B6 0B 01 00 07  80 02 80 08 80 07 80 07  ................
0080: 80 07 80 02 80 02 80 7E  03 F8 FF FF 7F 02 00 02  .......~........
0090: 80 03 00 04 00 05 00 7E  04 F8 FF FF 7F 32 09 80  .......~.....2..
00A0: 00                                                .               
```

## Opcodes

```
  0: 0x0044 [0x02] IF !(Work_Zone[35] == 11*) GOTO 0x0051
  1: 0x004C [0x22] ENTITY_HIDE_FLAG(enabled=0x01)
  2: 0x004E [0x01] GOTO 0x009D

SUBROUTINE_0051:
  3: 0x0051 [0x1A] CALL_SUBROUTINE(address=0x01D5)
  4: 0x0054 [0x02] IF !(ExtData[1]->WorkLocal[1] == 0*) GOTO 0x0073
  5: 0x005C [0xB6] ENTITY_APPEARANCE_HANDLER(case=Full entity look, race=8*, hair=6*, head=0*, body=188*, hands=6*, legs=6*, feet=6*, main=0*, sub=0*)
  6: 0x0070 [0x01] GOTO 0x0087

SUBROUTINE_0073:
  7: 0x0073 [0xB6] ENTITY_APPEARANCE_HANDLER(case=Full entity look, race=1, hair=6*, head=0*, body=188*, hands=6*, legs=6*, feet=6*, main=0*, sub=0*)
  8: 0x0087 [0x7E] CHOCOBO_MOUNT: Mount custom chocobo on EventEntity (index=2, color=32770, name_id=3)
  9: 0x0097 [0x7E] CHOCOBO_MOUNT: Mode 4 on EventEntity
 10: 0x009D [0x32] ExtData[1]->MainSpeed = 80* * 0.1
 11: 0x00A0 [0x00] END_REQSTACK()
```
