# Event 65535

## Metadata

| Field           | Value    |
|-----------------|----------|
| Event Index     | 17/22    |
| Offset          | 0x0196   |
| Data Size       | 49 bytes |
| Calculated Size | 49 bytes |
| Instructions    | 6        |

```
      00 01 02 03 04 05 06 07  08 09 0A 0B 0C 0D 0E 0F
      -- -- -- -- -- -- -- --  -- -- -- -- -- -- -- --
0190:                   B6 0B  01 80 16 80 17 80 0C 80        ..........
01A0: 15 80 15 80 15 80 02 80  02 80 1A D5 01 7E 03 F8  .............~..
01B0: FF FF 7F 02 00 02 80 03  00 04 00 05 00 7E 04 F8  .............~..
01C0: FF FF 7F 32 09 80 00                              ...2...         
```

## Opcodes

```
  0: 0x0196 [0xB6] ENTITY_APPEARANCE_HANDLER(case=Full entity look, race=5*, hair=13*, head=19*, body=191*, hands=23*, legs=23*, feet=23*, main=0*, sub=0*)
  1: 0x01AA [0x1A] CALL_SUBROUTINE(address=0x01D5)
  2: 0x01AD [0x7E] CHOCOBO_MOUNT: Mount custom chocobo on EventEntity (index=2, color=32770, name_id=3)
  3: 0x01BD [0x7E] CHOCOBO_MOUNT: Mode 4 on EventEntity
  4: 0x01C3 [0x32] ExtData[1]->MainSpeed = 80* * 0.1
  5: 0x01C6 [0x00] END_REQSTACK()
```
