# Event 65535

## Metadata

| Field           | Value     |
|-----------------|-----------|
| Event Index     | 18/22     |
| Offset          | 0x01C7    |
| Data Size       | 107 bytes |
| Calculated Size | 107 bytes |
| Instructions    | 4         |

```
      00 01 02 03 04 05 06 07  08 09 0A 0B 0C 0D 0E 0F
      -- -- -- -- -- -- -- --  -- -- -- -- -- -- -- --
01C0:                      32  18 80 1F 00 19 80 1A 80         2........
01D0: 1B 80 1F 01 00 BF 20 02  80 1C 80 0D 80 00 00 41  ...... ........A
01E0: 1D 80 1E 80 00 00 01 00  41 1F 80 18 80 00 00 02  ........A.......
01F0: 00 BF 20 02 80 1C 80 00  80 00 00 3E 00 00 20 80  .. ........>.. .
0200: 0A 02 03 03 00 00 80 01  0D 02 06 03 00 3E 00 00  .............>..
0210: 02 80 1C 02 03 04 00 00  80 01 1F 02 06 04 00 3E  ...............>
0220: 00 00 06 80 2E 02 03 05  00 00 80 01 31 02 06 04  ............1...
0230: 00 1B                                             ..              
```

## Opcodes

```
  0: 0x01C7 [0x32] ExtData[1]->MainSpeed = 27* * 0.1
  1: 0x01CA [0x1F] MOVE_ENTITY: EventEntity moves to X=-93.702*, Z=-80.717*, Y=-0.500*
  2: 0x01D2 [0x1F] MOVE_ENTITY: Update entity position (mode=1)
  3: 0x01D4 [0x00] END_REQSTACK()
```

## Data or dead code:

```
# Dead code (unreachable instructions):
     0x01D5 [0xBF] CHOCOBO_RACING_PARAMETER_GETTER(param_type=0x20)
     0x01D7 [0x02] IF !(0x1C80 == 0x0D80) GOTO 0x0000
     0x01DF [0x41] ExtData[1]->WorkLocal[1] = ExtData[1]->WorkLocal[0] (bits 28*-30*)
     0x01E8 [0x41] ExtData[1]->WorkLocal[2] = ExtData[1]->WorkLocal[0] (bits 25*-27*)
     0x01F1 [0xBF] CHOCOBO_RACING_PARAMETER_GETTER(param_type=0x20)
     0x01F3 [0x02] IF !(0x1C80 == 0x80) GOTO 0x0000
     0x01FB [0x3E] IF !(ExtData[1]->WorkLocal[0] bit 16*) GOTO 0x020A
     0x0202 [0x03] ExtData[1]->WorkLocal[3] = 1*
     0x0207 [0x01] GOTO 0x020D
     0x020A [0x06] ExtData[1]->WorkLocal[3] = 0
     0x020D [0x3E] IF !(ExtData[1]->WorkLocal[0] bit 0*) GOTO 0x021C
     0x0214 [0x03] ExtData[1]->WorkLocal[4] = 1*
     0x0219 [0x01] GOTO 0x021F
     0x021C [0x06] ExtData[1]->WorkLocal[4] = 0
     0x021F [0x3E] IF !(ExtData[1]->WorkLocal[0] bit 8*) GOTO 0x022E
     0x0226 [0x03] ExtData[1]->WorkLocal[5] = 1*
     0x022B [0x01] GOTO 0x0231
     0x022E [0x06] ExtData[1]->WorkLocal[4] = 0
     0x0231 [0x1B] RETURN
```