# Event 65535

## Metadata

| Field           | Value     |
|-----------------|-----------|
| Event Index     | 18/22     |
| Offset          | 0x01C7    |
| Data Size       | 107 bytes |
| Calculated Size | 107 bytes |
| Instructions    | 5         |

```
      00 01 02 03 04 05 06 07  08 09 0A 0B 0C 0D 0E 0F
      -- -- -- -- -- -- -- --  -- -- -- -- -- -- -- --
01C0:                      32  18 80 1F 00 19 80 1A 80         2........
01D0: 1B 80 1F 01 00 BF 20 02  80 1C 80 0D 80 00 00 41  ...... ........A
01E0: 1D 80 1E 80 00 00 01 00  41 1F 80 18 80 00 00 02  ........A.......
01F0: 00 BF 20 02 80 1C 80 00  80 00 00 3E 00 00 20 80  .. ........>.. .
0200: 0A 02 03 03 00 00 80 01  0D 02 06 03 00 3E 00 00  .............>..
0210: 02 80 1C 02 03 04 00 00  80 01 1F 02 06 04 00 3E  ...............>
0220: 00 00 06 80 2E 02 03 05  00 00 80 01 31 02 06 04  ............1...
0230: 00 1B                                             ..              
```

## Opcodes

```
  0: 0x01C7 [0x32] ExtData[1]->MainSpeed = 27* * 0.1
  1: 0x01CA [0x1F] MOVE_ENTITY: EventEntity moves to X=-93.702*, Z=-80.717*, Y=-0.500*
  2: 0x01D2 [0x1F] MOVE_ENTITY: Update entity position (mode=1)
  3: 0x01D4 [0x00] END_REQSTACK()
```

## Data or dead code:

```
# Data Section: 0x01D5 (93 bytes)
     0x01D5: BF 20 02 80 1C 80 0D 80 00 00 41 1D 80 1E 80 00
     0x01E5: 00 01 00 41 1F 80 18 80 00 00 02 00 BF 20 02 80
     0x01F5: 1C 80 00 80 00 00 3E 00 00 20 80 0A 02 03 03 00
     0x0205: 00 80 01 0D 02 06 03 00 3E 00 00 02 80 1C 02 03
     0x0215: 04 00 00 80 01 1F 02 06 04 00 3E 00 00 06 80 2E
     0x0225: 02 03 05 00 00 80 01 31 02 06 04 00 1B
```