# Event 65535

## Metadata

| Field           | Value    |
|-----------------|----------|
| Event Index     | 15/32    |
| Offset          | 0x00CC   |
| Data Size       | 47 bytes |
| Calculated Size | 47 bytes |
| Instructions    | 12       |

```
      00 01 02 03 04 05 06 07  08 09 0A 0B 0C 0D 0E 0F
      -- -- -- -- -- -- -- --  -- -- -- -- -- -- -- --
00C0:                                      1F 00 20 80              .. .
00D0: 21 80 02 80 1F 01 1F 00  22 80 23 80 02 80 1F 01  !.......".#.....
00E0: 1F 00 24 80 25 80 15 80  1F 01 33 01 5A 00 26 80  ..$.%.....3.Z.&.
00F0: 27 80 28 80 5A 01 22 01  33 00 00                 '.(.Z.".3..     
```

## Opcodes

```
  0: 0x00CC [0x1F] MOVE_ENTITY: EventEntity moves to X=8.723*, Z=-119.572*, Y=-7.999*
  1: 0x00D4 [0x1F] MOVE_ENTITY: Update entity position (mode=1)
  2: 0x00D6 [0x1F] MOVE_ENTITY: EventEntity moves to X=8.599*, Z=-117.754*, Y=-7.999*
  3: 0x00DE [0x1F] MOVE_ENTITY: Update entity position (mode=1)
  4: 0x00E0 [0x1F] MOVE_ENTITY: EventEntity moves to X=7.716*, Z=-117.699*, Y=-8.000*
  5: 0x00E8 [0x1F] MOVE_ENTITY: Update entity position (mode=1)
  6: 0x00EA [0x33] EventEntity->Render.Flags0 |= 0x200000 // Bit 21 (flag=0x01)
  7: 0x00EC [0x5A] UPDATE_EVENT_POSITION: Set EventEntity MovePosition to X=-0.151*, Z=-117.549*, Y=-4.000*
  8: 0x00F4 [0x5A] UPDATE_EVENT_POSITION: Move EventEntity incrementally towards MovePosition
  9: 0x00F6 [0x22] ENTITY_HIDE_FLAG(enabled=0x01)
 10: 0x00F8 [0x33] EventEntity->Render.Flags0 &= ~ 0x200000 // Bit 21 (flag=0x00)
 11: 0x00FA [0x00] END_REQSTACK()
```
