# Event 65535

## Metadata

| Field           | Value    |
|-----------------|----------|
| Event Index     | 25/32    |
| Offset          | 0x01B1   |
| Data Size       | 31 bytes |
| Calculated Size | 31 bytes |
| Instructions    | 8        |

```
      00 01 02 03 04 05 06 07  08 09 0A 0B 0C 0D 0E 0F
      -- -- -- -- -- -- -- --  -- -- -- -- -- -- -- --
01B0:    1F 00 40 80 41 80 28  80 1F 01 27 03 62 80 0E   ..@.A.(...'.b..
01C0: 01 05 1F 00 43 80 44 80  28 80 1F 01 6F 22 01 00  ....C.D.(...o"..
```

## Opcodes

```
  0: 0x01B1 [0x1F] MOVE_ENTITY: EventEntity moves to X=3.984*, Z=-98.070*, Y=-4.000*
  1: 0x01B9 [0x1F] MOVE_ENTITY: Update entity position (mode=1)
  2: 0x01BB [0x27] REQ_SET(priority=0x03, entity_id=Door:Cargo Room A (ID: 17727586/0x010E8062), tag_num=0x05)
  3: 0x01C2 [0x1F] MOVE_ENTITY: EventEntity moves to X=3.935*, Z=-93.405*, Y=-4.000*
  4: 0x01CA [0x1F] MOVE_ENTITY: Update entity position (mode=1)
  5: 0x01CC [0x6F] WAIT_FRAME_DELAY: Yield until WaitTime reaches zero
  6: 0x01CD [0x22] ENTITY_HIDE_FLAG(enabled=0x01)
  7: 0x01CF [0x00] END_REQSTACK()
```
