# Event 65535

## Metadata

| Field           | Value    |
|-----------------|----------|
| Event Index     | 16/32    |
| Offset          | 0x00FB   |
| Data Size       | 45 bytes |
| Calculated Size | 45 bytes |
| Instructions    | 10       |

```
      00 01 02 03 04 05 06 07  08 09 0A 0B 0C 0D 0E 0F
      -- -- -- -- -- -- -- --  -- -- -- -- -- -- -- --
00F0:                                   22 00 32 04 80             ".2..
0100: 1F 00 29 80 2A 80 15 80  1F 01 4A F0 FF FF 7F 49  ..).*.....J....I
0110: 80 0E 01 1F 00 2B 80 2C  80 15 80 1F 01 1F 00 2D  .....+.,.......-
0120: 80 2E 80 15 80 1F 01 00                           ........        
```

## Opcodes

```
  0: 0x00FB [0x22] ENTITY_HIDE_FLAG(enabled=0x00)
  1: 0x00FD [0x32] ExtData[1]->MainSpeed = 13* * 0.1
  2: 0x0100 [0x1F] MOVE_ENTITY: EventEntity moves to X=8.798*, Z=-117.717*, Y=-8.000*
  3: 0x0108 [0x1F] MOVE_ENTITY: Update entity position (mode=1)
  4: 0x010A [0x4A] LocalPlayer looks at Brugaire (ID: 17727561/0x010E8049)
  5: 0x0113 [0x1F] MOVE_ENTITY: EventEntity moves to X=8.766*, Z=-119.392*, Y=-8.000*
  6: 0x011B [0x1F] MOVE_ENTITY: Update entity position (mode=1)
  7: 0x011D [0x1F] MOVE_ENTITY: EventEntity moves to X=1.372*, Z=-121.054*, Y=-8.000*
  8: 0x0125 [0x1F] MOVE_ENTITY: Update entity position (mode=1)
  9: 0x0127 [0x00] END_REQSTACK()
```
