# Event 65535

## Metadata

| Field           | Value    |
|-----------------|----------|
| Event Index     | 11/32    |
| Offset          | 0x0076   |
| Data Size       | 37 bytes |
| Calculated Size | 37 bytes |
| Instructions    | 8        |

```
      00 01 02 03 04 05 06 07  08 09 0A 0B 0C 0D 0E 0F
      -- -- -- -- -- -- -- --  -- -- -- -- -- -- -- --
0070:                   1F 00  16 80 17 80 02 80 1F 01        ..........
0080: 27 02 64 80 0E 01 06 27  03 64 80 0E 01 08 1F 00  '.d....'.d......
0090: 00 80 01 80 02 80 1F 01  22 01 00                 ........"..     
```

## Opcodes

```
  0: 0x0076 [0x1F] MOVE_ENTITY: EventEntity moves to X=3.981*, Z=-123.279*, Y=-7.999*
  1: 0x007E [0x1F] MOVE_ENTITY: Update entity position (mode=1)
  2: 0x0080 [0x27] REQ_SET(priority=0x02, entity_id=Door:Cargo Room A (ID: 17727588/0x010E8064), tag_num=0x06)
  3: 0x0087 [0x27] REQ_SET(priority=0x03, entity_id=Door:Cargo Room A (ID: 17727588/0x010E8064), tag_num=0x08)
  4: 0x008E [0x1F] MOVE_ENTITY: EventEntity moves to X=3.968*, Z=-127.515*, Y=-7.999*
  5: 0x0096 [0x1F] MOVE_ENTITY: Update entity position (mode=1)
  6: 0x0098 [0x22] ENTITY_HIDE_FLAG(enabled=0x01)
  7: 0x009A [0x00] END_REQSTACK()
```
