# Event 55

## Metadata

| Field           | Value    |
|-----------------|----------|
| Event Index     | 7/36     |
| Offset          | 0x002E   |
| Data Size       | 43 bytes |
| Calculated Size | 43 bytes |
| Instructions    | 10       |

```
      00 01 02 03 04 05 06 07  08 09 0A 0B 0C 0D 0E 0F
      -- -- -- -- -- -- -- --  -- -- -- -- -- -- -- --
0020:                                            20 01                 .
0030: 1E F0 FF FF 7F 6F 70 5B  08 80 F8 FF FF 7F F8 FF  .....op[........
0040: FF 7F 79 6F 72 30 53 F8  FF FF 7F F8 FF FF 7F 79  ..yor0S........y
0050: 6F 72 30 48 09 80 23 21  00                       or0H..#!.       
```

## Opcodes

```
  0: 0x002E [0x20] SET_CLI_EVENT_UC_FLAG: Lock player control
  1: 0x0030 [0x1E] EventEntity looks at LocalPlayer and starts talking
  2: 0x0035 [0x6F] WAIT_FRAME_DELAY: Yield until WaitTime reaches zero
  3: 0x0036 [0x70] WAIT_ENTITY_RENDER_FLAG: Wait while EventEntity->Render.Flags3 bit 2 is set (cancel turn if not)
  4: 0x0037 [0x5B] LOAD_EXT_SCHEDULER: Load scheduler "yor0" with entities [EventEntity, EventEntity], work=220*
  5: 0x0046 [0x53] WAIT_SCHEDULER_TASK: Wait for scheduler "yor0" with entities [EventEntity, EventEntity]
  6: 0x0053 [0x48] [System] [8221*]:
    → "The chocobo looks extremely happy.\u007F1\u0000\u0007"
  7: 0x0056 [0x23] WAIT_FOR_DIALOG_INTERACTION
  8: 0x0057 [0x21] END_EVENT
  9: 0x0058 [0x00] END_REQSTACK()
```
