# Event 57

## Metadata

| Field           | Value    |
|-----------------|----------|
| Event Index     | 13/36    |
| Offset          | 0x011B   |
| Data Size       | 43 bytes |
| Calculated Size | 43 bytes |
| Instructions    | 10       |

```
      00 01 02 03 04 05 06 07  08 09 0A 0B 0C 0D 0E 0F
      -- -- -- -- -- -- -- --  -- -- -- -- -- -- -- --
0110:                                   20 01 42 45 0A              .BE.
0120: 80 F0 FF FF 7F F0 FF FF  7F 6E 61 6B 31 0B 80 1D  .........nak1...
0130: 12 80 23 4A 0D 40 0F 01  F0 FF FF 7F 2B 0D 40 0F  ..#J.@......+.@.
0140: 01 13 80 23 21 00                                 ...#!.          
```

## Opcodes

```
  0: 0x011B [0x20] SET_CLI_EVENT_UC_FLAG: Lock player control
  1: 0x011D [0x42] SET_CLI_EVENT_CANCEL_DATA()
  2: 0x011E [0x45] LOAD_SCHEDULED_TASK(work_offset1=144*, entity1=LocalPlayer, entity2=LocalPlayer, scheduler_id="nak1", work_offset2=0*)
  3: 0x012F [0x1D] PRINT_EVENT_MESSAGE(message_id=7133*)
    → "Kweh...\u0007(He still looks terrified of you.)\u007F1\u0000\u0007"
  4: 0x0132 [0x23] WAIT_FOR_DIALOG_INTERACTION
  5: 0x0133 [0x4A] Osker (ID: 17776653/0x010F400D) looks at LocalPlayer
  6: 0x013C [0x2B] Osker (ID: 17776653/0x010F400D) [7134*]:
    → "They won't eat a thing until they're comfortable with you. Just keep at it, okay?\u007F1\u0000\u0007"
  7: 0x0143 [0x23] WAIT_FOR_DIALOG_INTERACTION
  8: 0x0144 [0x21] END_EVENT
  9: 0x0145 [0x00] END_REQSTACK()
```
