# Event 58

## Metadata

| Field           | Value    |
|-----------------|----------|
| Event Index     | 14/36    |
| Offset          | 0x0146   |
| Data Size       | 43 bytes |
| Calculated Size | 43 bytes |
| Instructions    | 10       |

```
      00 01 02 03 04 05 06 07  08 09 0A 0B 0C 0D 0E 0F
      -- -- -- -- -- -- -- --  -- -- -- -- -- -- -- --
0140:                   20 01  42 45 0A 80 F0 FF FF 7F         .BE......
0150: F0 FF FF 7F 6E 61 6B 31  0B 80 1D 14 80 23 4A 0D  ....nak1.....#J.
0160: 40 0F 01 F0 FF FF 7F 2B  0D 40 0F 01 15 80 23 21  @......+.@....#!
0170: 00                                                .               
```

## Opcodes

```
  0: 0x0146 [0x20] SET_CLI_EVENT_UC_FLAG: Lock player control
  1: 0x0148 [0x42] SET_CLI_EVENT_CANCEL_DATA()
  2: 0x0149 [0x45] LOAD_SCHEDULED_TASK(work_offset1=144*, entity1=LocalPlayer, entity2=LocalPlayer, scheduler_id="nak1", work_offset2=0*)
  3: 0x015A [0x1D] PRINT_EVENT_MESSAGE(message_id=7135*)
    → "Kweh...\u0007(He still looks a little wary of you.)\u007F1\u0000\u0007"
  4: 0x015D [0x23] WAIT_FOR_DIALOG_INTERACTION
  5: 0x015E [0x4A] Osker (ID: 17776653/0x010F400D) looks at LocalPlayer
  6: 0x0167 [0x2B] Osker (ID: 17776653/0x010F400D) [7136*]:
    → "Nope, still no go. A friendly chocobo would be eating already, but this one's different.\u007F1\u0000\u0007"
  7: 0x016E [0x23] WAIT_FOR_DIALOG_INTERACTION
  8: 0x016F [0x21] END_EVENT
  9: 0x0170 [0x00] END_REQSTACK()
```
