# Event 61

## Metadata

| Field           | Value    |
|-----------------|----------|
| Event Index     | 11/36    |
| Offset          | 0x00B5   |
| Data Size       | 51 bytes |
| Calculated Size | 51 bytes |
| Instructions    | 11       |

```
      00 01 02 03 04 05 06 07  08 09 0A 0B 0C 0D 0E 0F
      -- -- -- -- -- -- -- --  -- -- -- -- -- -- -- --
00B0:                1E F0 FF  FF 7F 6F 76 F8 FF FF 7F       .....ov....
00C0: 45 0A 80 F0 FF FF 7F F0  FF FF 7F 6E 61 6B 32 0B  E..........nak2.
00D0: 80 1D 0E 80 23 4A 0D 40  0F 01 F0 FF FF 7F 2B 0D  ....#J.@......+.
00E0: 40 0F 01 10 80 23 21 00                           @....#!.        
```

## Opcodes

```
  0: 0x00B5 [0x1E] EventEntity looks at LocalPlayer and starts talking
  1: 0x00BA [0x6F] WAIT_FRAME_DELAY: Yield until WaitTime reaches zero
  2: 0x00BB [0x76] CHECK_ENTITY_RENDER_FLAGS: Wait until EventEntity Render.Flags0 and Render.Flags3 conditions are met
  3: 0x00C0 [0x45] LOAD_SCHEDULED_TASK: Load scheduler "nak2" with entities [LocalPlayer, LocalPlayer], work=[144*, 0*]
  4: 0x00D1 [0x1D] PRINT_EVENT_MESSAGE(message_id=7097*)
    → "Kweh!!!\u007F1\u0000\u0007"
  5: 0x00D4 [0x23] WAIT_FOR_DIALOG_INTERACTION
  6: 0x00D5 [0x4A] Osker (ID: 17776653/0x010F400D) looks at LocalPlayer
  7: 0x00DE [0x2B] Osker (ID: 17776653/0x010F400D) [7185*]:
    → "Ha-ha! He's so docile now.\u007F1\u0000\u0007"
  8: 0x00E5 [0x23] WAIT_FOR_DIALOG_INTERACTION
  9: 0x00E6 [0x21] END_EVENT
 10: 0x00E7 [0x00] END_REQSTACK()
```
