# Event 63

## Metadata

| Field           | Value    |
|-----------------|----------|
| Event Index     | 10/36    |
| Offset          | 0x0082   |
| Data Size       | 51 bytes |
| Calculated Size | 51 bytes |
| Instructions    | 11       |

```
      00 01 02 03 04 05 06 07  08 09 0A 0B 0C 0D 0E 0F
      -- -- -- -- -- -- -- --  -- -- -- -- -- -- -- --
0080:       1E F0 FF FF 7F 6F  76 F8 FF FF 7F 45 0A 80    .....ov....E..
0090: F0 FF FF 7F F0 FF FF 7F  6E 61 6B 31 0B 80 1D 0E  ........nak1....
00A0: 80 23 4A 0D 40 0F 01 F0  FF FF 7F 2B 0D 40 0F 01  .#J.@......+.@..
00B0: 0F 80 23 21 00                                    ..#!.           
```

## Opcodes

```
  0: 0x0082 [0x1E] EventEntity looks at LocalPlayer and starts talking
  1: 0x0087 [0x6F] WAIT_FRAME_DELAY: Yield until WaitTime reaches zero
  2: 0x0088 [0x76] CHECK_ENTITY_RENDER_FLAGS: Wait until EventEntity Render.Flags0 and Render.Flags3 conditions are met
  3: 0x008D [0x45] LOAD_SCHEDULED_TASK(work_offset1=144*, entity1=LocalPlayer, entity2=LocalPlayer, scheduler_id="nak1", work_offset2=0*)
  4: 0x009E [0x1D] PRINT_EVENT_MESSAGE(message_id=7097*)
    → "Kweh!!!\u007F1\u0000\u0007"
  5: 0x00A1 [0x23] WAIT_FOR_DIALOG_INTERACTION
  6: 0x00A2 [0x4A] Osker (ID: 17776653/0x010F400D) looks at LocalPlayer
  7: 0x00AB [0x2B] Osker (ID: 17776653/0x010F400D) [7160*]:
    → "Looks like he's used to you. He's not scared at all anymore.\u007F1\u0000\u0007"
  8: 0x00B2 [0x23] WAIT_FOR_DIALOG_INTERACTION
  9: 0x00B3 [0x21] END_EVENT
 10: 0x00B4 [0x00] END_REQSTACK()
```
