# 17814131 - Ehrhard

## Common Data

| Field            | Value                          |
|------------------|--------------------------------|
| Zone             | Abyssea - Uleguerand (ID: 253) |
| Block Size       | 76 bytes                       |
| Total Events     | 2                              |
| References Count | 2                              |

## List of Events

| Event ID              | Entrypoint   |   Size |   Instructions |
|-----------------------|--------------|--------|----------------|
| [65535](#event-65535) | 0x0000       |      1 |              1 |
| [360](#event-360)     | 0x0001       |     43 |              9 |

## DAT References (imed_data)

|   Index | Hex Value   |   Dec Value |
|---------|-------------|-------------|
|       0 | 0x0009      |           9 |
|       1 | 0x1FA1      |        8097 |

## String References

- **8097**: Zazarg was a big-time hero of the Republican Army back in the Great War. He went off on a journey to the Near East after that, but came back to fight for us when the hordes struck. That's loyalty for you there.

## Events

### Event 65535

#### Metadata

| Field        | Value   |
|--------------|---------|
| Entrypoint   | 0x0000  |
| Data Size    | 1 bytes |
| Instructions | 1       |

```
      00 01 02 03 04 05 06 07  08 09 0A 0B 0C 0D 0E 0F
      -- -- -- -- -- -- -- --  -- -- -- -- -- -- -- --
0000: 00                                                .               
```

#### Opcodes

```
  0: 0x0000 [0x00] END_REQSTACK()
```

### Event 360

#### Metadata

| Field        | Value    |
|--------------|----------|
| Entrypoint   | 0x0001   |
| Data Size    | 43 bytes |
| Instructions | 9        |

```
      00 01 02 03 04 05 06 07  08 09 0A 0B 0C 0D 0E 0F
      -- -- -- -- -- -- -- --  -- -- -- -- -- -- -- --
0000:    1E F0 FF FF 7F 6F 70  66 00 80 73 D2 0F 01 73   .....opf..s...s
0010: D2 0F 01 74 6C 6B 30 1D  01 80 23 66 00 80 73 D2  ...tlk0...#f..s.
0020: 0F 01 73 D2 0F 01 74 6C  6B 31 21 00              ..s...tlk1!.    
```

#### Opcodes

```
  0: 0x0001 [0x1E] EventEntity looks at LocalPlayer and starts talking
  1: 0x0006 [0x6F] WAIT_FRAME_DELAY: Yield until WaitTime reaches zero
  2: 0x0007 [0x70] WAIT_ENTITY_RENDER_FLAG: Wait while EventEntity->Render.Flags3 bit 2 is set (cancel turn if not)
  3: 0x0008 [0x66] LOAD_EXT_SCHEDULER_MAIN: Load scheduler "tlk0" with entities [Ehrhard (ID: 17814131/0x010FD273), Ehrhard (ID: 17814131/0x010FD273)], work=9*
  4: 0x0017 [0x1D] PRINT_EVENT_MESSAGE(message_id=8097*)
    → "Zazarg was a big-time hero of the Republican Army back in the Great War. He went off on a journey to the Near East after that, but came back to fight for us when the hordes struck. That's loyalty for you there."
  5: 0x001A [0x23] WAIT_FOR_DIALOG_INTERACTION
  6: 0x001B [0x66] LOAD_EXT_SCHEDULER_MAIN: Load scheduler "tlk1" with entities [Ehrhard (ID: 17814131/0x010FD273), Ehrhard (ID: 17814131/0x010FD273)], work=9*
  7: 0x002A [0x21] END_EVENT
  8: 0x002B [0x00] END_REQSTACK()
```
