# 17814114 - Rondipur

## Common Data

| Field            | Value                          |
|------------------|--------------------------------|
| Zone             | Abyssea - Uleguerand (ID: 253) |
| Block Size       | 488 bytes                      |
| Total Events     | 7                              |
| References Count | 22                             |

## List of Events

| Event ID              | Entrypoint   |   Size |   Instructions |
|-----------------------|--------------|--------|----------------|
| [65535](#event-65535) | 0x0000       |      1 |              1 |
| [319](#event-319)     | 0x0001       |     21 |              7 |
| [320](#event-320)     | 0x0016       |    121 |             33 |
| [321](#event-321)     | 0x008F       |     47 |             11 |
| [343](#event-343)     | 0x00BE       |     50 |             12 |
| [344](#event-344)     | 0x00F0       |     13 |              7 |
| [345](#event-345)     | 0x00FD       |    103 |             33 |

## DAT References (imed_data)

|   Index | Hex Value   |   Dec Value |
|---------|-------------|-------------|
|       0 | 0x0013      |          19 |
|       1 | 0x003C      |          60 |
|       2 | 0x1F58      |        8024 |
|       3 | 0x001D      |          29 |
|       4 | 0x1F59      |        8025 |
|       5 | 0x1F5A      |        8026 |
|       6 | 0x1F5B      |        8027 |
|       7 | 0x1F5C      |        8028 |
|       8 | 0x0000      |           0 |
|       9 | 0x1F5D      |        8029 |
|      10 | 0x0001      |           1 |
|      11 | 0x1F5E      |        8030 |
|      12 | 0x0002      |           2 |
|      13 | 0x0007      |           7 |
|      14 | 0x1F5F      |        8031 |
|      15 | 0x1F60      |        8032 |
|      16 | 0x1F72      |        8050 |
|      17 | 0x1F73      |        8051 |
|      18 | 0x005B      |          91 |
|      19 | 0x00C9      |         201 |
|      20 | 0x1F74      |        8052 |
|      21 | 0x1F75      |        8053 |

## String References

- **8024**: ...Still no contact. If this persists, we'll have a serious situation on our hands.
- **8025**: You. You are <Player>, yes? I have heard much of you.
- **8026**: Time is of the essence, so I will be brief. I have lost contact with my three scouts.
- **8027**: Without their reports, we are all in grave danger. We must find them. Will you aid?
- **8028**: Search for the scouts? [I will./I will not.]
- **8029**: Excellent. You have my thanks.
- **8030**: ...Then leave me.
- **8031**: As I said a moment ago, the scouts are three. Cannau, dispatched to the northwestern reaches, Olavia in the southeast, and Wanzo-Unzozo, who last reported from north of Bearclaw Pinnacle.
- **8032**: I await word of your success.
- **8050**: Oh, there you are. I'm pleased to inform you that I received reports from all three of my scouts. Of course, only Olavia had anything of import to share...
- **8051**: And even that was no doubt more your doing than hers. Take this as a reward for your efforts, friend.
- **8052**: I hope I can count on you to bring my scouts in line again, should the need arise.
- **8053**: Ah, there you are, <Player>, and not a moment too soon. I suspect this will come as little surprise to you, but...

## Events

### Event 65535

#### Metadata

| Field        | Value   |
|--------------|---------|
| Entrypoint   | 0x0000  |
| Data Size    | 1 bytes |
| Instructions | 1       |

```
      00 01 02 03 04 05 06 07  08 09 0A 0B 0C 0D 0E 0F
      -- -- -- -- -- -- -- --  -- -- -- -- -- -- -- --
0000: 00                                                .               
```

#### Opcodes

```
  0: 0x0000 [0x00] END_REQSTACK()
```

### Event 319

#### Metadata

| Field        | Value    |
|--------------|----------|
| Entrypoint   | 0x0001   |
| Data Size    | 21 bytes |
| Instructions | 7        |

```
      00 01 02 03 04 05 06 07  08 09 0A 0B 0C 0D 0E 0F
      -- -- -- -- -- -- -- --  -- -- -- -- -- -- -- --
0000:    6E 62 D2 0F 01 00 80  99 62 D2 0F 01 1C 01 80   nb......b......
0010: 1D 02 80 23 21 00                                 ...#!.          
```

#### Opcodes

```
  0: 0x0001 [0x6E] Rondipur (ID: 17814114/0x010FD262) uses emote 19*
  1: 0x0008 [0x99] Wait for Rondipur (ID: 17814114/0x010FD262) animation to complete
  2: 0x000D [0x1C] WAIT(60* ticks)
  3: 0x0010 [0x1D] PRINT_EVENT_MESSAGE(message_id=8024*)
    → "...Still no contact. If this persists, we'll have a serious situation on our hands."
  4: 0x0013 [0x23] WAIT_FOR_DIALOG_INTERACTION
  5: 0x0014 [0x21] END_EVENT
  6: 0x0015 [0x00] END_REQSTACK()
```

### Event 320

#### Metadata

| Field        | Value     |
|--------------|-----------|
| Entrypoint   | 0x0016    |
| Data Size    | 121 bytes |
| Instructions | 32        |

```
      00 01 02 03 04 05 06 07  08 09 0A 0B 0C 0D 0E 0F
      -- -- -- -- -- -- -- --  -- -- -- -- -- -- -- --
0010:                   42 1E  F0 FF FF 7F 6F 70 66 03        B.....opf.
0020: 80 62 D2 0F 01 62 D2 0F  01 74 6C 6B 30 1D 04 80  .b...b...tlk0...
0030: 23 1D 05 80 23 1D 06 80  23 66 03 80 62 D2 0F 01  #...#...#f..b...
0040: 62 D2 0F 01 74 6C 6B 31  24 07 80 08 80 08 80 25  b...tlk1$......%
0050: 02 00 10 08 80 00 64 00  1D 09 80 23 03 01 10 0A  ......d....#....
0060: 80 01 79 00 02 00 10 0A  80 00 79 00 1D 0B 80 23  ..y.......y....#
0070: 03 01 10 0C 80 21 01 79  00 6E 62 D2 0F 01 0D 80  .....!.y.nb.....
0080: 99 62 D2 0F 01 1D 0E 80  23 1D 0F 80 23 21 00     .b......#...#!. 
```

#### Opcodes

```
  0: 0x0016 [0x42] SET_CLI_EVENT_CANCEL_DATA()
  1: 0x0017 [0x1E] EventEntity looks at LocalPlayer and starts talking
  2: 0x001C [0x6F] WAIT_FRAME_DELAY: Yield until WaitTime reaches zero
  3: 0x001D [0x70] WAIT_ENTITY_RENDER_FLAG: Wait while EventEntity->Render.Flags3 bit 2 is set (cancel turn if not)
  4: 0x001E [0x66] LOAD_EXT_SCHEDULER_MAIN: Load scheduler "tlk0" with entities [Rondipur (ID: 17814114/0x010FD262), Rondipur (ID: 17814114/0x010FD262)], work=29*
  5: 0x002D [0x1D] PRINT_EVENT_MESSAGE(message_id=8025*)
    → "You. You are <Player>, yes? I have heard much of you."
  6: 0x0030 [0x23] WAIT_FOR_DIALOG_INTERACTION
  7: 0x0031 [0x1D] PRINT_EVENT_MESSAGE(message_id=8026*)
    → "Time is of the essence, so I will be brief. I have lost contact with my three scouts."
  8: 0x0034 [0x23] WAIT_FOR_DIALOG_INTERACTION
  9: 0x0035 [0x1D] PRINT_EVENT_MESSAGE(message_id=8027*)
    → "Without their reports, we are all in grave danger. We must find them. Will you aid?"
 10: 0x0038 [0x23] WAIT_FOR_DIALOG_INTERACTION
 11: 0x0039 [0x66] LOAD_EXT_SCHEDULER_MAIN: Load scheduler "tlk1" with entities [Rondipur (ID: 17814114/0x010FD262), Rondipur (ID: 17814114/0x010FD262)], work=29*
 12: 0x0048 [0x24] CREATE_DIALOG(message_id=8028*, default_option=0*, option_flags=0*)
    → "Search for the scouts? [I will./I will not.]"
 13: 0x004F [0x25] WAIT_DIALOG_SELECT()
 14: 0x0050 [0x02] IF !(Work_Zone[0] == 0*) GOTO 0x0064
 15: 0x0058 [0x1D] PRINT_EVENT_MESSAGE(message_id=8029*)
    → "Excellent. You have my thanks."
 16: 0x005B [0x23] WAIT_FOR_DIALOG_INTERACTION
 17: 0x005C [0x03] Work_Zone[1] = 1*
 18: 0x0061 [0x01] GOTO 0x0079
 19: 0x0064 [0x02] IF !(Work_Zone[0] == 1*) GOTO 0x0079
 20: 0x006C [0x1D] PRINT_EVENT_MESSAGE(message_id=8030*)
    → "...Then leave me."
 21: 0x006F [0x23] WAIT_FOR_DIALOG_INTERACTION
 22: 0x0070 [0x03] Work_Zone[1] = 2*
 23: 0x0075 [0x21] END_EVENT

SUBROUTINE_0079:
 24: 0x0079 [0x6E] Rondipur (ID: 17814114/0x010FD262) uses emote 7*
 25: 0x0080 [0x99] Wait for Rondipur (ID: 17814114/0x010FD262) animation to complete
 26: 0x0085 [0x1D] PRINT_EVENT_MESSAGE(message_id=8031*)
    → "As I said a moment ago, the scouts are three. Cannau, dispatched to the northwestern reaches, Olavia in the southeast, and Wanzo-Unzozo, who last reported from north of Bearclaw Pinnacle."
 27: 0x0088 [0x23] WAIT_FOR_DIALOG_INTERACTION
 28: 0x0089 [0x1D] PRINT_EVENT_MESSAGE(message_id=8032*)
    → "I await word of your success."
 29: 0x008C [0x23] WAIT_FOR_DIALOG_INTERACTION
 30: 0x008D [0x21] END_EVENT
 31: 0x008E [0x00] END_REQSTACK()
```

#### Data or dead code:

```
# Dead code (unreachable instructions):
     0x0076 [0x01] GOTO 0x0079
```

### Event 321

#### Metadata

| Field        | Value    |
|--------------|----------|
| Entrypoint   | 0x008F   |
| Data Size    | 47 bytes |
| Instructions | 11       |

```
      00 01 02 03 04 05 06 07  08 09 0A 0B 0C 0D 0E 0F
      -- -- -- -- -- -- -- --  -- -- -- -- -- -- -- --
0080:                                               1E                 .
0090: F0 FF FF 7F 6F 70 66 03  80 62 D2 0F 01 62 D2 0F  ....opf..b...b..
00A0: 01 74 6C 6B 30 1D 0E 80  23 1D 0F 80 23 66 03 80  .tlk0...#...#f..
00B0: 62 D2 0F 01 62 D2 0F 01  74 6C 6B 31 21 00        b...b...tlk1!.  
```

#### Opcodes

```
  0: 0x008F [0x1E] EventEntity looks at LocalPlayer and starts talking
  1: 0x0094 [0x6F] WAIT_FRAME_DELAY: Yield until WaitTime reaches zero
  2: 0x0095 [0x70] WAIT_ENTITY_RENDER_FLAG: Wait while EventEntity->Render.Flags3 bit 2 is set (cancel turn if not)
  3: 0x0096 [0x66] LOAD_EXT_SCHEDULER_MAIN: Load scheduler "tlk0" with entities [Rondipur (ID: 17814114/0x010FD262), Rondipur (ID: 17814114/0x010FD262)], work=29*
  4: 0x00A5 [0x1D] PRINT_EVENT_MESSAGE(message_id=8031*)
    → "As I said a moment ago, the scouts are three. Cannau, dispatched to the northwestern reaches, Olavia in the southeast, and Wanzo-Unzozo, who last reported from north of Bearclaw Pinnacle."
  5: 0x00A8 [0x23] WAIT_FOR_DIALOG_INTERACTION
  6: 0x00A9 [0x1D] PRINT_EVENT_MESSAGE(message_id=8032*)
    → "I await word of your success."
  7: 0x00AC [0x23] WAIT_FOR_DIALOG_INTERACTION
  8: 0x00AD [0x66] LOAD_EXT_SCHEDULER_MAIN: Load scheduler "tlk1" with entities [Rondipur (ID: 17814114/0x010FD262), Rondipur (ID: 17814114/0x010FD262)], work=29*
  9: 0x00BC [0x21] END_EVENT
 10: 0x00BD [0x00] END_REQSTACK()
```

### Event 343

#### Metadata

| Field        | Value    |
|--------------|----------|
| Entrypoint   | 0x00BE   |
| Data Size    | 50 bytes |
| Instructions | 12       |

```
      00 01 02 03 04 05 06 07  08 09 0A 0B 0C 0D 0E 0F
      -- -- -- -- -- -- -- --  -- -- -- -- -- -- -- --
00B0:                                            42 1E                B.
00C0: F0 FF FF 7F 6F 70 1D 10  80 23 1D 11 80 23 66 12  ....op...#...#f.
00D0: 80 62 D2 0F 01 62 D2 0F  01 70 61 73 30 45 13 80  .b...b...pas0E..
00E0: F0 FF FF 7F F0 FF FF 7F  71 73 74 63 08 80 21 00  ........qstc..!.
```

#### Opcodes

```
  0: 0x00BE [0x42] SET_CLI_EVENT_CANCEL_DATA()
  1: 0x00BF [0x1E] EventEntity looks at LocalPlayer and starts talking
  2: 0x00C4 [0x6F] WAIT_FRAME_DELAY: Yield until WaitTime reaches zero
  3: 0x00C5 [0x70] WAIT_ENTITY_RENDER_FLAG: Wait while EventEntity->Render.Flags3 bit 2 is set (cancel turn if not)
  4: 0x00C6 [0x1D] PRINT_EVENT_MESSAGE(message_id=8050*)
    → "Oh, there you are. I'm pleased to inform you that I received reports from all three of my scouts. Of course, only Olavia had anything of import to share..."
  5: 0x00C9 [0x23] WAIT_FOR_DIALOG_INTERACTION
  6: 0x00CA [0x1D] PRINT_EVENT_MESSAGE(message_id=8051*)
    → "And even that was no doubt more your doing than hers. Take this as a reward for your efforts, friend."
  7: 0x00CD [0x23] WAIT_FOR_DIALOG_INTERACTION
  8: 0x00CE [0x66] LOAD_EXT_SCHEDULER_MAIN: Load scheduler "pas0" with entities [Rondipur (ID: 17814114/0x010FD262), Rondipur (ID: 17814114/0x010FD262)], work=91*
  9: 0x00DD [0x45] LOAD_SCHEDULED_TASK: Load scheduler "qstc" with entities [LocalPlayer, LocalPlayer], work=[201*, 0*]
 10: 0x00EE [0x21] END_EVENT
 11: 0x00EF [0x00] END_REQSTACK()
```

### Event 344

#### Metadata

| Field        | Value    |
|--------------|----------|
| Entrypoint   | 0x00F0   |
| Data Size    | 13 bytes |
| Instructions | 7        |

```
      00 01 02 03 04 05 06 07  08 09 0A 0B 0C 0D 0E 0F
      -- -- -- -- -- -- -- --  -- -- -- -- -- -- -- --
00F0: 1E F0 FF FF 7F 6F 70 1D  14 80 23 21 00           .....op...#!.   
```

#### Opcodes

```
  0: 0x00F0 [0x1E] EventEntity looks at LocalPlayer and starts talking
  1: 0x00F5 [0x6F] WAIT_FRAME_DELAY: Yield until WaitTime reaches zero
  2: 0x00F6 [0x70] WAIT_ENTITY_RENDER_FLAG: Wait while EventEntity->Render.Flags3 bit 2 is set (cancel turn if not)
  3: 0x00F7 [0x1D] PRINT_EVENT_MESSAGE(message_id=8052*)
    → "I hope I can count on you to bring my scouts in line again, should the need arise."
  4: 0x00FA [0x23] WAIT_FOR_DIALOG_INTERACTION
  5: 0x00FB [0x21] END_EVENT
  6: 0x00FC [0x00] END_REQSTACK()
```

### Event 345

#### Metadata

| Field        | Value     |
|--------------|-----------|
| Entrypoint   | 0x00FD    |
| Data Size    | 103 bytes |
| Instructions | 30        |

```
      00 01 02 03 04 05 06 07  08 09 0A 0B 0C 0D 0E 0F
      -- -- -- -- -- -- -- --  -- -- -- -- -- -- -- --
00F0:                                         42 1E F0               B..
0100: FF FF 7F 6F 70 6E 62 D2  0F 01 00 80 99 62 D2 0F  ...opnb......b..
0110: 01 1C 01 80 1D 15 80 23  1D 05 80 23 24 07 80 08  .......#...#$...
0120: 80 08 80 25 02 00 10 08  80 00 38 01 1D 09 80 23  ...%......8....#
0130: 03 01 10 0A 80 01 4D 01  02 00 10 0A 80 00 4D 01  ......M.......M.
0140: 1D 0B 80 23 03 01 10 0C  80 21 01 4D 01 6E 62 D2  ...#.....!.M.nb.
0150: 0F 01 0D 80 99 62 D2 0F  01 1D 0E 80 23 1D 0F 80  .....b......#...
0160: 23 21 21 00                                       #!!.            
```

#### Opcodes

```
  0: 0x00FD [0x42] SET_CLI_EVENT_CANCEL_DATA()
  1: 0x00FE [0x1E] EventEntity looks at LocalPlayer and starts talking
  2: 0x0103 [0x6F] WAIT_FRAME_DELAY: Yield until WaitTime reaches zero
  3: 0x0104 [0x70] WAIT_ENTITY_RENDER_FLAG: Wait while EventEntity->Render.Flags3 bit 2 is set (cancel turn if not)
  4: 0x0105 [0x6E] Rondipur (ID: 17814114/0x010FD262) uses emote 19*
  5: 0x010C [0x99] Wait for Rondipur (ID: 17814114/0x010FD262) animation to complete
  6: 0x0111 [0x1C] WAIT(60* ticks)
  7: 0x0114 [0x1D] PRINT_EVENT_MESSAGE(message_id=8053*)
    → "Ah, there you are, <Player>, and not a moment too soon. I suspect this will come as little surprise to you, but..."
  8: 0x0117 [0x23] WAIT_FOR_DIALOG_INTERACTION
  9: 0x0118 [0x1D] PRINT_EVENT_MESSAGE(message_id=8026*)
    → "Time is of the essence, so I will be brief. I have lost contact with my three scouts."
 10: 0x011B [0x23] WAIT_FOR_DIALOG_INTERACTION
 11: 0x011C [0x24] CREATE_DIALOG(message_id=8028*, default_option=0*, option_flags=0*)
    → "Search for the scouts? [I will./I will not.]"
 12: 0x0123 [0x25] WAIT_DIALOG_SELECT()
 13: 0x0124 [0x02] IF !(Work_Zone[0] == 0*) GOTO 0x0138
 14: 0x012C [0x1D] PRINT_EVENT_MESSAGE(message_id=8029*)
    → "Excellent. You have my thanks."
 15: 0x012F [0x23] WAIT_FOR_DIALOG_INTERACTION
 16: 0x0130 [0x03] Work_Zone[1] = 1*
 17: 0x0135 [0x01] GOTO 0x014D
 18: 0x0138 [0x02] IF !(Work_Zone[0] == 1*) GOTO 0x014D
 19: 0x0140 [0x1D] PRINT_EVENT_MESSAGE(message_id=8030*)
    → "...Then leave me."
 20: 0x0143 [0x23] WAIT_FOR_DIALOG_INTERACTION
 21: 0x0144 [0x03] Work_Zone[1] = 2*
 22: 0x0149 [0x21] END_EVENT

SUBROUTINE_014D:
 23: 0x014D [0x6E] Rondipur (ID: 17814114/0x010FD262) uses emote 7*
 24: 0x0154 [0x99] Wait for Rondipur (ID: 17814114/0x010FD262) animation to complete
 25: 0x0159 [0x1D] PRINT_EVENT_MESSAGE(message_id=8031*)
    → "As I said a moment ago, the scouts are three. Cannau, dispatched to the northwestern reaches, Olavia in the southeast, and Wanzo-Unzozo, who last reported from north of Bearclaw Pinnacle."
 26: 0x015C [0x23] WAIT_FOR_DIALOG_INTERACTION
 27: 0x015D [0x1D] PRINT_EVENT_MESSAGE(message_id=8032*)
    → "I await word of your success."
 28: 0x0160 [0x23] WAIT_FOR_DIALOG_INTERACTION
 29: 0x0161 [0x21] END_EVENT
```

#### Data or dead code:

```
# Dead code (unreachable instructions):
     0x014A [0x01] GOTO 0x014D
# Dead code (unreachable instructions):
     0x0162 [0x21] END_EVENT
     0x0163 [0x00] END_REQSTACK()
```
