# 17814092 - Bogharg

## Common Data

| Field            | Value                          |
|------------------|--------------------------------|
| Zone             | Abyssea - Uleguerand (ID: 253) |
| Block Size       | 168 bytes                      |
| Total Events     | 4                              |
| References Count | 7                              |

## List of Events

| Event ID              | Entrypoint   |   Size |   Instructions |
|-----------------------|--------------|--------|----------------|
| [65535](#event-65535) | 0x0000       |      1 |              1 |
| [257](#event-257)     | 0x0001       |     43 |              9 |
| [258](#event-258)     | 0x002C       |     34 |             12 |
| [259](#event-259)     | 0x004E       |     30 |             10 |

## DAT References (imed_data)

|   Index | Hex Value   |   Dec Value |
|---------|-------------|-------------|
|       0 | 0x0045      |          69 |
|       1 | 0x1EC6      |        7878 |
|       2 | 0x06B4      |        1716 |
|       3 | 0x0007      |           7 |
|       4 | 0x1EC7      |        7879 |
|       5 | 0x1EC8      |        7880 |
|       6 | 0x1EC9      |        7881 |

## String References

- **7878**: Welcome to the second outpost. We can't offer you much refuge from the cold, but you're free to rest awhile.
- **7879**: <Player>, is it? Zauko told me to expect you.
- **7880**: You'll have to forgive his daft ramblings. Poor man hasn't been the same since the Duchy fell. Still, we appreciate the delivery of this $3. You can deposit it right in the casket here.
- **7881**: Zauko takes his duties to an extreme, but it can't be denied that fire is a precious commodity in these parts. Both to shed light under these sunless skies, and to fend off the chill winds that blow ceaselessly. Your assistance is greatly appreciated.

## Events

### Event 65535

#### Metadata

| Field        | Value   |
|--------------|---------|
| Entrypoint   | 0x0000  |
| Data Size    | 1 bytes |
| Instructions | 1       |

```
      00 01 02 03 04 05 06 07  08 09 0A 0B 0C 0D 0E 0F
      -- -- -- -- -- -- -- --  -- -- -- -- -- -- -- --
0000: 00                                                .               
```

#### Opcodes

```
  0: 0x0000 [0x00] END_REQSTACK()
```

### Event 257

#### Metadata

| Field        | Value    |
|--------------|----------|
| Entrypoint   | 0x0001   |
| Data Size    | 43 bytes |
| Instructions | 9        |

```
      00 01 02 03 04 05 06 07  08 09 0A 0B 0C 0D 0E 0F
      -- -- -- -- -- -- -- --  -- -- -- -- -- -- -- --
0000:    1E F0 FF FF 7F 6F 70  66 00 80 4C D2 0F 01 4C   .....opf..L...L
0010: D2 0F 01 74 6C 6B 30 1D  01 80 23 66 00 80 4C D2  ...tlk0...#f..L.
0020: 0F 01 4C D2 0F 01 74 6C  6B 31 21 00              ..L...tlk1!.    
```

#### Opcodes

```
  0: 0x0001 [0x1E] EventEntity looks at LocalPlayer and starts talking
  1: 0x0006 [0x6F] WAIT_FRAME_DELAY: Yield until WaitTime reaches zero
  2: 0x0007 [0x70] WAIT_ENTITY_RENDER_FLAG: Wait while EventEntity->Render.Flags3 bit 2 is set (cancel turn if not)
  3: 0x0008 [0x66] LOAD_EXT_SCHEDULER_MAIN: Load scheduler "tlk0" with entities [Bogharg (ID: 17814092/0x010FD24C), Bogharg (ID: 17814092/0x010FD24C)], work=69*
  4: 0x0017 [0x1D] PRINT_EVENT_MESSAGE(message_id=7878*)
    → "Welcome to the second outpost. We can't offer you much refuge from the cold, but you're free to rest awhile."
  5: 0x001A [0x23] WAIT_FOR_DIALOG_INTERACTION
  6: 0x001B [0x66] LOAD_EXT_SCHEDULER_MAIN: Load scheduler "tlk1" with entities [Bogharg (ID: 17814092/0x010FD24C), Bogharg (ID: 17814092/0x010FD24C)], work=69*
  7: 0x002A [0x21] END_EVENT
  8: 0x002B [0x00] END_REQSTACK()
```

### Event 258

#### Metadata

| Field        | Value    |
|--------------|----------|
| Entrypoint   | 0x002C   |
| Data Size    | 34 bytes |
| Instructions | 12       |

```
      00 01 02 03 04 05 06 07  08 09 0A 0B 0C 0D 0E 0F
      -- -- -- -- -- -- -- --  -- -- -- -- -- -- -- --
0020:                                      1E F0 FF FF              ....
0030: 7F 6F 70 03 02 10 02 80  6E 4C D2 0F 01 03 80 99  .op.....nL......
0040: 4C D2 0F 01 1D 04 80 23  1D 05 80 23 21 00        L......#...#!.  
```

#### Opcodes

```
  0: 0x002C [0x1E] EventEntity looks at LocalPlayer and starts talking
  1: 0x0031 [0x6F] WAIT_FRAME_DELAY: Yield until WaitTime reaches zero
  2: 0x0032 [0x70] WAIT_ENTITY_RENDER_FLAG: Wait while EventEntity->Render.Flags3 bit 2 is set (cancel turn if not)
  3: 0x0033 [0x03] Work_Zone[2] = 1716*
  4: 0x0038 [0x6E] Bogharg (ID: 17814092/0x010FD24C) uses emote 7*
  5: 0x003F [0x99] Wait for Bogharg (ID: 17814092/0x010FD24C) animation to complete
  6: 0x0044 [0x1D] PRINT_EVENT_MESSAGE(message_id=7879*)
    → "<Player>, is it? Zauko told me to expect you."
  7: 0x0047 [0x23] WAIT_FOR_DIALOG_INTERACTION
  8: 0x0048 [0x1D] PRINT_EVENT_MESSAGE(message_id=7880*)
    → "You'll have to forgive his daft ramblings. Poor man hasn't been the same since the Duchy fell. Still, we appreciate the delivery of this $3. You can deposit it right in the casket here."
  9: 0x004B [0x23] WAIT_FOR_DIALOG_INTERACTION
 10: 0x004C [0x21] END_EVENT
 11: 0x004D [0x00] END_REQSTACK()
```

### Event 259

#### Metadata

| Field        | Value    |
|--------------|----------|
| Entrypoint   | 0x004E   |
| Data Size    | 30 bytes |
| Instructions | 10       |

```
      00 01 02 03 04 05 06 07  08 09 0A 0B 0C 0D 0E 0F
      -- -- -- -- -- -- -- --  -- -- -- -- -- -- -- --
0040:                                            1E F0                ..
0050: FF FF 7F 6F 70 03 02 10  02 80 6E 4C D2 0F 01 03  ...op.....nL....
0060: 80 99 4C D2 0F 01 1D 06  80 23 21 00              ..L......#!.    
```

#### Opcodes

```
  0: 0x004E [0x1E] EventEntity looks at LocalPlayer and starts talking
  1: 0x0053 [0x6F] WAIT_FRAME_DELAY: Yield until WaitTime reaches zero
  2: 0x0054 [0x70] WAIT_ENTITY_RENDER_FLAG: Wait while EventEntity->Render.Flags3 bit 2 is set (cancel turn if not)
  3: 0x0055 [0x03] Work_Zone[2] = 1716*
  4: 0x005A [0x6E] Bogharg (ID: 17814092/0x010FD24C) uses emote 7*
  5: 0x0061 [0x99] Wait for Bogharg (ID: 17814092/0x010FD24C) animation to complete
  6: 0x0066 [0x1D] PRINT_EVENT_MESSAGE(message_id=7881*)
    → "Zauko takes his duties to an extreme, but it can't be denied that fire is a precious commodity in these parts. Both to shed light under these sunless skies, and to fend off the chill winds that blow ceaselessly. Your assistance is greatly appreciated."
  7: 0x0069 [0x23] WAIT_FOR_DIALOG_INTERACTION
  8: 0x006A [0x21] END_EVENT
  9: 0x006B [0x00] END_REQSTACK()
```
