# 17814109 - Oruga

## Common Data

| Field            | Value                          |
|------------------|--------------------------------|
| Zone             | Abyssea - Uleguerand (ID: 253) |
| Block Size       | 600 bytes                      |
| Total Events     | 7                              |
| References Count | 26                             |

## List of Events

| Event ID              | Entrypoint   |   Size |   Instructions |
|-----------------------|--------------|--------|----------------|
| [65535](#event-65535) | 0x0000       |      1 |              1 |
| [304](#event-304)     | 0x0001       |     13 |              7 |
| [305](#event-305)     | 0x000E       |    197 |             51 |
| [306](#event-306)     | 0x00D3       |     52 |             12 |
| [310](#event-310)     | 0x0107       |     56 |             16 |
| [311](#event-311)     | 0x013F       |     13 |              7 |
| [312](#event-312)     | 0x014C       |    118 |             30 |

## DAT References (imed_data)

|   Index | Hex Value   |   Dec Value |
|---------|-------------|-------------|
|       0 | 0x1F2B      |        7979 |
|       1 | 0x06DE      |        1758 |
|       2 | 0x0013      |          19 |
|       3 | 0x1F2C      |        7980 |
|       4 | 0x1F2D      |        7981 |
|       5 | 0x1F2E      |        7982 |
|       6 | 0x1F09      |        7945 |
|       7 | 0x0000      |           0 |
|       8 | 0x0007      |           7 |
|       9 | 0x1F30      |        7984 |
|      10 | 0x0001      |           1 |
|      11 | 0x1F31      |        7985 |
|      12 | 0x1F32      |        7986 |
|      13 | 0x003C      |          60 |
|      14 | 0x1F33      |        7987 |
|      15 | 0x1F34      |        7988 |
|      16 | 0x1F35      |        7989 |
|      17 | 0x1F36      |        7990 |
|      18 | 0x1F37      |        7991 |
|      19 | 0x1F38      |        7992 |
|      20 | 0x1F3B      |        7995 |
|      21 | 0x1F3C      |        7996 |
|      22 | 0x1F3D      |        7997 |
|      23 | 0x00C9      |         201 |
|      24 | 0x1F3E      |        7998 |
|      25 | 0x1F3F      |        7999 |

## String References

- **7945**: Offer your aid? [Gladly./I think not.]
- **7979**: Arrr... Of all the times to run out o' salve, this be a poor one, aye...
- **7980**: You there, matey. Ye look like ye know yer way around these here parts.
- **7981**: I be searchin' for a flower that blooms forth from the deepest, chillest snow. This be the key ingredient in the salve we survivors use to ease frostbite, gooseflesh, ague, and a whole mess o' clime-induced ailments, aye.
- **7982**: Ye wouldn't be opposed to retrievin' some for us, aye?
- **7984**: Aye. I knew I'd not marked ye wrong.
- **7985**: Come again? Beg yer pardon, but I'm not quite understandin' ye, matey.
- **7986**: Ye may be callin' me Oruga of Norg...or formerly of Norg, aye. And yerself, matey?
- **7987**: ...<Player>. A name as refreshin' as a brisk sea breeze, aye.
- **7988**: Ah, the sea! What this sailor wouldn't give to be reunited with those endless fields o' blue! The wind whippin' at me face and the briny ropes chafin' at me hands, aye...
- **7989**: Anyhow, as I meant to be sayin', I be lookin' for a suitable quantity o' $5. Three or there'bouts should suffice, I'd wager.
- **7990**: Arr, that look o' surprise on yer face be as plain as a sail on a clear horizon, matey. Ye be thinkin', a salty sea maid like m'self and flowers make for a curious combination, aye?
- **7991**: Ever since me days in Norg, I be takin' an interest in rare flora, ye see. Merchants would sail in, bringin' rare specimens from far lands...
- **7992**: But those days be long past, and not like to return, aye...
- **7995**: Aye, no doubt about it. They be $5. And three o' them, no less.
- **7996**: This be all I need to be makin' the ointment we seek.
- **7997**: Ye've served us well, matey. Take this, and may fair winds blow at yer back, aye.
- **7998**: Delicate blossoms be bloomin' strong in this chill, windswept sea o' white. It be a message to all o' us, that though our hull may be breached and our sails tattered, we must never be givin' up the good fight, aye...
- **7999**: <Player>. I be needin' yer aid again. Ye savvy?

## Events

### Event 65535

#### Metadata

| Field        | Value   |
|--------------|---------|
| Entrypoint   | 0x0000  |
| Data Size    | 1 bytes |
| Instructions | 1       |

```
      00 01 02 03 04 05 06 07  08 09 0A 0B 0C 0D 0E 0F
      -- -- -- -- -- -- -- --  -- -- -- -- -- -- -- --
0000: 00                                                .               
```

#### Opcodes

```
  0: 0x0000 [0x00] END_REQSTACK()
```

### Event 304

#### Metadata

| Field        | Value    |
|--------------|----------|
| Entrypoint   | 0x0001   |
| Data Size    | 13 bytes |
| Instructions | 7        |

```
      00 01 02 03 04 05 06 07  08 09 0A 0B 0C 0D 0E 0F
      -- -- -- -- -- -- -- --  -- -- -- -- -- -- -- --
0000:    1E F0 FF FF 7F 6F 70  1D 00 80 23 21 00         .....op...#!.  
```

#### Opcodes

```
  0: 0x0001 [0x1E] EventEntity looks at LocalPlayer and starts talking
  1: 0x0006 [0x6F] WAIT_FRAME_DELAY: Yield until WaitTime reaches zero
  2: 0x0007 [0x70] WAIT_ENTITY_RENDER_FLAG: Wait while EventEntity->Render.Flags3 bit 2 is set (cancel turn if not)
  3: 0x0008 [0x1D] PRINT_EVENT_MESSAGE(message_id=7979*)
    → "Arrr... Of all the times to run out o' salve, this be a poor one, aye..."
  4: 0x000B [0x23] WAIT_FOR_DIALOG_INTERACTION
  5: 0x000C [0x21] END_EVENT
  6: 0x000D [0x00] END_REQSTACK()
```

### Event 305

#### Metadata

| Field        | Value     |
|--------------|-----------|
| Entrypoint   | 0x000E    |
| Data Size    | 197 bytes |
| Instructions | 50        |

```
      00 01 02 03 04 05 06 07  08 09 0A 0B 0C 0D 0E 0F
      -- -- -- -- -- -- -- --  -- -- -- -- -- -- -- --
0000:                                            42 03                B.
0010: 02 10 01 80 1E F0 FF FF  7F 6F 70 66 02 80 5D D2  .........opf..].
0020: 0F 01 5D D2 0F 01 74 6C  6B 30 1D 00 80 23 1D 03  ..]...tlk0...#..
0030: 80 23 1D 04 80 23 66 02  80 5D D2 0F 01 5D D2 0F  .#...#f..]...]..
0040: 01 74 6C 6B 31 1D 05 80  23 24 06 80 07 80 07 80  .tlk1...#$......
0050: 25 02 00 10 07 80 00 71  00 6E 5D D2 0F 01 08 80  %......q.n].....
0060: 99 5D D2 0F 01 1D 09 80  23 03 01 10 0A 80 01 86  .]......#.......
0070: 00 02 00 10 0A 80 00 86  00 1D 0B 80 23 03 01 10  ............#...
0080: 07 80 21 01 86 00 1D 0C  80 23 27 10 F0 FF FF 7F  ..!......#'.....
0090: 04 1C 0D 80 27 10 F0 FF  FF 7F 05 1D 0E 80 23 66  ....'.........#f
00A0: 02 80 5D D2 0F 01 5D D2  0F 01 74 6C 6B 30 1D 0F  ..]...]...tlk0..
00B0: 80 23 1D 10 80 23 1D 11  80 23 1D 12 80 23 66 02  .#...#...#...#f.
00C0: 80 5D D2 0F 01 5D D2 0F  01 74 6C 6B 31 1D 13 80  .]...]...tlk1...
00D0: 23 21 00                                          #!.             
```

#### Opcodes

```
  0: 0x000E [0x42] SET_CLI_EVENT_CANCEL_DATA()
  1: 0x000F [0x03] Work_Zone[2] = 1758*
  2: 0x0014 [0x1E] EventEntity looks at LocalPlayer and starts talking
  3: 0x0019 [0x6F] WAIT_FRAME_DELAY: Yield until WaitTime reaches zero
  4: 0x001A [0x70] WAIT_ENTITY_RENDER_FLAG: Wait while EventEntity->Render.Flags3 bit 2 is set (cancel turn if not)
  5: 0x001B [0x66] LOAD_EXT_SCHEDULER_MAIN: Load scheduler "tlk0" with entities [Oruga (ID: 17814109/0x010FD25D), Oruga (ID: 17814109/0x010FD25D)], work=19*
  6: 0x002A [0x1D] PRINT_EVENT_MESSAGE(message_id=7979*)
    → "Arrr... Of all the times to run out o' salve, this be a poor one, aye..."
  7: 0x002D [0x23] WAIT_FOR_DIALOG_INTERACTION
  8: 0x002E [0x1D] PRINT_EVENT_MESSAGE(message_id=7980*)
    → "You there, matey. Ye look like ye know yer way around these here parts."
  9: 0x0031 [0x23] WAIT_FOR_DIALOG_INTERACTION
 10: 0x0032 [0x1D] PRINT_EVENT_MESSAGE(message_id=7981*)
    → "I be searchin' for a flower that blooms forth from the deepest, chillest snow. This be the key ingredient in the salve we survivors use to ease frostbite, gooseflesh, ague, and a whole mess o' clime-induced ailments, aye."
 11: 0x0035 [0x23] WAIT_FOR_DIALOG_INTERACTION
 12: 0x0036 [0x66] LOAD_EXT_SCHEDULER_MAIN: Load scheduler "tlk1" with entities [Oruga (ID: 17814109/0x010FD25D), Oruga (ID: 17814109/0x010FD25D)], work=19*
 13: 0x0045 [0x1D] PRINT_EVENT_MESSAGE(message_id=7982*)
    → "Ye wouldn't be opposed to retrievin' some for us, aye?"
 14: 0x0048 [0x23] WAIT_FOR_DIALOG_INTERACTION
 15: 0x0049 [0x24] CREATE_DIALOG(message_id=7945*, default_option=0*, option_flags=0*)
    → "Offer your aid? [Gladly./I think not.]"
 16: 0x0050 [0x25] WAIT_DIALOG_SELECT()
 17: 0x0051 [0x02] IF !(Work_Zone[0] == 0*) GOTO 0x0071
 18: 0x0059 [0x6E] Oruga (ID: 17814109/0x010FD25D) uses emote 7*
 19: 0x0060 [0x99] Wait for Oruga (ID: 17814109/0x010FD25D) animation to complete
 20: 0x0065 [0x1D] PRINT_EVENT_MESSAGE(message_id=7984*)
    → "Aye. I knew I'd not marked ye wrong."
 21: 0x0068 [0x23] WAIT_FOR_DIALOG_INTERACTION
 22: 0x0069 [0x03] Work_Zone[1] = 1*
 23: 0x006E [0x01] GOTO 0x0086
 24: 0x0071 [0x02] IF !(Work_Zone[0] == 1*) GOTO 0x0086
 25: 0x0079 [0x1D] PRINT_EVENT_MESSAGE(message_id=7985*)
    → "Come again? Beg yer pardon, but I'm not quite understandin' ye, matey."
 26: 0x007C [0x23] WAIT_FOR_DIALOG_INTERACTION
 27: 0x007D [0x03] Work_Zone[1] = 0*
 28: 0x0082 [0x21] END_EVENT

SUBROUTINE_0086:
 29: 0x0086 [0x1D] PRINT_EVENT_MESSAGE(message_id=7986*)
    → "Ye may be callin' me Oruga of Norg...or formerly of Norg, aye. And yerself, matey?"
 30: 0x0089 [0x23] WAIT_FOR_DIALOG_INTERACTION
 31: 0x008A [0x27] REQ_SET(priority=0x10, entity_id=LocalPlayer, tag_num=0x04)
 32: 0x0091 [0x1C] WAIT(60* ticks)
 33: 0x0094 [0x27] REQ_SET(priority=0x10, entity_id=LocalPlayer, tag_num=0x05)
 34: 0x009B [0x1D] PRINT_EVENT_MESSAGE(message_id=7987*)
    → "...<Player>. A name as refreshin' as a brisk sea breeze, aye."
 35: 0x009E [0x23] WAIT_FOR_DIALOG_INTERACTION
 36: 0x009F [0x66] LOAD_EXT_SCHEDULER_MAIN: Load scheduler "tlk0" with entities [Oruga (ID: 17814109/0x010FD25D), Oruga (ID: 17814109/0x010FD25D)], work=19*
 37: 0x00AE [0x1D] PRINT_EVENT_MESSAGE(message_id=7988*)
    → "Ah, the sea! What this sailor wouldn't give to be reunited with those endless fields o' blue! The wind whippin' at me face and the briny ropes chafin' at me hands, aye..."
 38: 0x00B1 [0x23] WAIT_FOR_DIALOG_INTERACTION
 39: 0x00B2 [0x1D] PRINT_EVENT_MESSAGE(message_id=7989*)
    → "Anyhow, as I meant to be sayin', I be lookin' for a suitable quantity o' $5. Three or there'bouts should suffice, I'd wager."
 40: 0x00B5 [0x23] WAIT_FOR_DIALOG_INTERACTION
 41: 0x00B6 [0x1D] PRINT_EVENT_MESSAGE(message_id=7990*)
    → "Arr, that look o' surprise on yer face be as plain as a sail on a clear horizon, matey. Ye be thinkin', a salty sea maid like m'self and flowers make for a curious combination, aye?"
 42: 0x00B9 [0x23] WAIT_FOR_DIALOG_INTERACTION
 43: 0x00BA [0x1D] PRINT_EVENT_MESSAGE(message_id=7991*)
    → "Ever since me days in Norg, I be takin' an interest in rare flora, ye see. Merchants would sail in, bringin' rare specimens from far lands..."
 44: 0x00BD [0x23] WAIT_FOR_DIALOG_INTERACTION
 45: 0x00BE [0x66] LOAD_EXT_SCHEDULER_MAIN: Load scheduler "tlk1" with entities [Oruga (ID: 17814109/0x010FD25D), Oruga (ID: 17814109/0x010FD25D)], work=19*
 46: 0x00CD [0x1D] PRINT_EVENT_MESSAGE(message_id=7992*)
    → "But those days be long past, and not like to return, aye..."
 47: 0x00D0 [0x23] WAIT_FOR_DIALOG_INTERACTION
 48: 0x00D1 [0x21] END_EVENT
 49: 0x00D2 [0x00] END_REQSTACK()
```

#### Data or dead code:

```
# Dead code (unreachable instructions):
     0x0083 [0x01] GOTO 0x0086
```

### Event 306

#### Metadata

| Field        | Value    |
|--------------|----------|
| Entrypoint   | 0x00D3   |
| Data Size    | 52 bytes |
| Instructions | 12       |

```
      00 01 02 03 04 05 06 07  08 09 0A 0B 0C 0D 0E 0F
      -- -- -- -- -- -- -- --  -- -- -- -- -- -- -- --
00D0:          03 02 10 01 80  1E F0 FF FF 7F 6F 70 66     ..........opf
00E0: 02 80 5D D2 0F 01 5D D2  0F 01 74 6C 6B 30 1D 0F  ..]...]...tlk0..
00F0: 80 23 1D 10 80 23 66 02  80 5D D2 0F 01 5D D2 0F  .#...#f..]...]..
0100: 01 74 6C 6B 31 21 00                              .tlk1!.         
```

#### Opcodes

```
  0: 0x00D3 [0x03] Work_Zone[2] = 1758*
  1: 0x00D8 [0x1E] EventEntity looks at LocalPlayer and starts talking
  2: 0x00DD [0x6F] WAIT_FRAME_DELAY: Yield until WaitTime reaches zero
  3: 0x00DE [0x70] WAIT_ENTITY_RENDER_FLAG: Wait while EventEntity->Render.Flags3 bit 2 is set (cancel turn if not)
  4: 0x00DF [0x66] LOAD_EXT_SCHEDULER_MAIN: Load scheduler "tlk0" with entities [Oruga (ID: 17814109/0x010FD25D), Oruga (ID: 17814109/0x010FD25D)], work=19*
  5: 0x00EE [0x1D] PRINT_EVENT_MESSAGE(message_id=7988*)
    → "Ah, the sea! What this sailor wouldn't give to be reunited with those endless fields o' blue! The wind whippin' at me face and the briny ropes chafin' at me hands, aye..."
  6: 0x00F1 [0x23] WAIT_FOR_DIALOG_INTERACTION
  7: 0x00F2 [0x1D] PRINT_EVENT_MESSAGE(message_id=7989*)
    → "Anyhow, as I meant to be sayin', I be lookin' for a suitable quantity o' $5. Three or there'bouts should suffice, I'd wager."
  8: 0x00F5 [0x23] WAIT_FOR_DIALOG_INTERACTION
  9: 0x00F6 [0x66] LOAD_EXT_SCHEDULER_MAIN: Load scheduler "tlk1" with entities [Oruga (ID: 17814109/0x010FD25D), Oruga (ID: 17814109/0x010FD25D)], work=19*
 10: 0x0105 [0x21] END_EVENT
 11: 0x0106 [0x00] END_REQSTACK()
```

### Event 310

#### Metadata

| Field        | Value    |
|--------------|----------|
| Entrypoint   | 0x0107   |
| Data Size    | 56 bytes |
| Instructions | 16       |

```
      00 01 02 03 04 05 06 07  08 09 0A 0B 0C 0D 0E 0F
      -- -- -- -- -- -- -- --  -- -- -- -- -- -- -- --
0100:                      42  03 02 10 01 80 1E F0 FF         B........
0110: FF 7F 6F 70 6E 5D D2 0F  01 08 80 99 5D D2 0F 01  ..opn]......]...
0120: 1D 14 80 23 1D 15 80 23  1D 16 80 23 45 17 80 F0  ...#...#...#E...
0130: FF FF 7F F0 FF FF 7F 71  73 74 63 07 80 21 00     .......qstc..!. 
```

#### Opcodes

```
  0: 0x0107 [0x42] SET_CLI_EVENT_CANCEL_DATA()
  1: 0x0108 [0x03] Work_Zone[2] = 1758*
  2: 0x010D [0x1E] EventEntity looks at LocalPlayer and starts talking
  3: 0x0112 [0x6F] WAIT_FRAME_DELAY: Yield until WaitTime reaches zero
  4: 0x0113 [0x70] WAIT_ENTITY_RENDER_FLAG: Wait while EventEntity->Render.Flags3 bit 2 is set (cancel turn if not)
  5: 0x0114 [0x6E] Oruga (ID: 17814109/0x010FD25D) uses emote 7*
  6: 0x011B [0x99] Wait for Oruga (ID: 17814109/0x010FD25D) animation to complete
  7: 0x0120 [0x1D] PRINT_EVENT_MESSAGE(message_id=7995*)
    → "Aye, no doubt about it. They be $5. And three o' them, no less."
  8: 0x0123 [0x23] WAIT_FOR_DIALOG_INTERACTION
  9: 0x0124 [0x1D] PRINT_EVENT_MESSAGE(message_id=7996*)
    → "This be all I need to be makin' the ointment we seek."
 10: 0x0127 [0x23] WAIT_FOR_DIALOG_INTERACTION
 11: 0x0128 [0x1D] PRINT_EVENT_MESSAGE(message_id=7997*)
    → "Ye've served us well, matey. Take this, and may fair winds blow at yer back, aye."
 12: 0x012B [0x23] WAIT_FOR_DIALOG_INTERACTION
 13: 0x012C [0x45] LOAD_SCHEDULED_TASK: Load scheduler "qstc" with entities [LocalPlayer, LocalPlayer], work=[201*, 0*]
 14: 0x013D [0x21] END_EVENT
 15: 0x013E [0x00] END_REQSTACK()
```

### Event 311

#### Metadata

| Field        | Value    |
|--------------|----------|
| Entrypoint   | 0x013F   |
| Data Size    | 13 bytes |
| Instructions | 7        |

```
      00 01 02 03 04 05 06 07  08 09 0A 0B 0C 0D 0E 0F
      -- -- -- -- -- -- -- --  -- -- -- -- -- -- -- --
0130:                                               1E                 .
0140: F0 FF FF 7F 6F 70 1D 18  80 23 21 00              ....op...#!.    
```

#### Opcodes

```
  0: 0x013F [0x1E] EventEntity looks at LocalPlayer and starts talking
  1: 0x0144 [0x6F] WAIT_FRAME_DELAY: Yield until WaitTime reaches zero
  2: 0x0145 [0x70] WAIT_ENTITY_RENDER_FLAG: Wait while EventEntity->Render.Flags3 bit 2 is set (cancel turn if not)
  3: 0x0146 [0x1D] PRINT_EVENT_MESSAGE(message_id=7998*)
    → "Delicate blossoms be bloomin' strong in this chill, windswept sea o' white. It be a message to all o' us, that though our hull may be breached and our sails tattered, we must never be givin' up the good fight, aye..."
  4: 0x0149 [0x23] WAIT_FOR_DIALOG_INTERACTION
  5: 0x014A [0x21] END_EVENT
  6: 0x014B [0x00] END_REQSTACK()
```

### Event 312

#### Metadata

| Field        | Value     |
|--------------|-----------|
| Entrypoint   | 0x014C    |
| Data Size    | 118 bytes |
| Instructions | 29        |

```
      00 01 02 03 04 05 06 07  08 09 0A 0B 0C 0D 0E 0F
      -- -- -- -- -- -- -- --  -- -- -- -- -- -- -- --
0140:                                      42 03 02 10              B...
0150: 01 80 1E F0 FF FF 7F 6F  70 1D 19 80 23 24 06 80  .......op...#$..
0160: 07 80 07 80 25 02 00 10  07 80 00 85 01 6E 5D D2  ....%........n].
0170: 0F 01 08 80 99 5D D2 0F  01 1D 09 80 23 03 01 10  .....]......#...
0180: 0A 80 01 9A 01 02 00 10  0A 80 00 9A 01 1D 0B 80  ................
0190: 23 03 01 10 07 80 21 01  9A 01 66 02 80 5D D2 0F  #.....!...f..]..
01A0: 01 5D D2 0F 01 74 6C 6B  30 1D 0F 80 23 1D 10 80  .]...tlk0...#...
01B0: 23 66 02 80 5D D2 0F 01  5D D2 0F 01 74 6C 6B 31  #f..]...]...tlk1
01C0: 21 00                                             !.              
```

#### Opcodes

```
  0: 0x014C [0x42] SET_CLI_EVENT_CANCEL_DATA()
  1: 0x014D [0x03] Work_Zone[2] = 1758*
  2: 0x0152 [0x1E] EventEntity looks at LocalPlayer and starts talking
  3: 0x0157 [0x6F] WAIT_FRAME_DELAY: Yield until WaitTime reaches zero
  4: 0x0158 [0x70] WAIT_ENTITY_RENDER_FLAG: Wait while EventEntity->Render.Flags3 bit 2 is set (cancel turn if not)
  5: 0x0159 [0x1D] PRINT_EVENT_MESSAGE(message_id=7999*)
    → "<Player>. I be needin' yer aid again. Ye savvy?"
  6: 0x015C [0x23] WAIT_FOR_DIALOG_INTERACTION
  7: 0x015D [0x24] CREATE_DIALOG(message_id=7945*, default_option=0*, option_flags=0*)
    → "Offer your aid? [Gladly./I think not.]"
  8: 0x0164 [0x25] WAIT_DIALOG_SELECT()
  9: 0x0165 [0x02] IF !(Work_Zone[0] == 0*) GOTO 0x0185
 10: 0x016D [0x6E] Oruga (ID: 17814109/0x010FD25D) uses emote 7*
 11: 0x0174 [0x99] Wait for Oruga (ID: 17814109/0x010FD25D) animation to complete
 12: 0x0179 [0x1D] PRINT_EVENT_MESSAGE(message_id=7984*)
    → "Aye. I knew I'd not marked ye wrong."
 13: 0x017C [0x23] WAIT_FOR_DIALOG_INTERACTION
 14: 0x017D [0x03] Work_Zone[1] = 1*
 15: 0x0182 [0x01] GOTO 0x019A
 16: 0x0185 [0x02] IF !(Work_Zone[0] == 1*) GOTO 0x019A
 17: 0x018D [0x1D] PRINT_EVENT_MESSAGE(message_id=7985*)
    → "Come again? Beg yer pardon, but I'm not quite understandin' ye, matey."
 18: 0x0190 [0x23] WAIT_FOR_DIALOG_INTERACTION
 19: 0x0191 [0x03] Work_Zone[1] = 0*
 20: 0x0196 [0x21] END_EVENT

SUBROUTINE_019A:
 21: 0x019A [0x66] LOAD_EXT_SCHEDULER_MAIN: Load scheduler "tlk0" with entities [Oruga (ID: 17814109/0x010FD25D), Oruga (ID: 17814109/0x010FD25D)], work=19*
 22: 0x01A9 [0x1D] PRINT_EVENT_MESSAGE(message_id=7988*)
    → "Ah, the sea! What this sailor wouldn't give to be reunited with those endless fields o' blue! The wind whippin' at me face and the briny ropes chafin' at me hands, aye..."
 23: 0x01AC [0x23] WAIT_FOR_DIALOG_INTERACTION
 24: 0x01AD [0x1D] PRINT_EVENT_MESSAGE(message_id=7989*)
    → "Anyhow, as I meant to be sayin', I be lookin' for a suitable quantity o' $5. Three or there'bouts should suffice, I'd wager."
 25: 0x01B0 [0x23] WAIT_FOR_DIALOG_INTERACTION
 26: 0x01B1 [0x66] LOAD_EXT_SCHEDULER_MAIN: Load scheduler "tlk1" with entities [Oruga (ID: 17814109/0x010FD25D), Oruga (ID: 17814109/0x010FD25D)], work=19*
 27: 0x01C0 [0x21] END_EVENT
 28: 0x01C1 [0x00] END_REQSTACK()
```

#### Data or dead code:

```
# Dead code (unreachable instructions):
     0x0197 [0x01] GOTO 0x019A
```
