# 17814113 - Zazarg

## Common Data

| Field            | Value                          |
|------------------|--------------------------------|
| Zone             | Abyssea - Uleguerand (ID: 253) |
| Block Size       | 724 bytes                      |
| Total Events     | 8                              |
| References Count | 44                             |

## List of Events

| Event ID              | Entrypoint   |   Size |   Instructions |
|-----------------------|--------------|--------|----------------|
| [65535](#event-65535) | 0x0000       |      1 |              1 |
| [313](#event-313)     | 0x0001       |     29 |             11 |
| [314](#event-314)     | 0x001E       |    143 |             42 |
| [315](#event-315)     | 0x00AD       |     45 |             15 |
| [316](#event-316)     | 0x00DA       |    143 |             40 |
| [317](#event-317)     | 0x0169       |     29 |             11 |
| [318](#event-318)     | 0x0186       |      2 |              2 |
| [357](#event-357)     | 0x0188       |    105 |             35 |

## DAT References (imed_data)

|   Index | Hex Value   |   Dec Value |
|---------|-------------|-------------|
|       0 | 0x0004      |           4 |
|       1 | 0x1F40      |        8000 |
|       2 | 0x1F41      |        8001 |
|       3 | 0x0000      |           0 |
|       4 | 0x1F42      |        8002 |
|       5 | 0x1F43      |        8003 |
|       6 | 0x1F44      |        8004 |
|       7 | 0x1F45      |        8005 |
|       8 | 0x1F46      |        8006 |
|       9 | 0x1F47      |        8007 |
|      10 | 0x0007      |           7 |
|      11 | 0x1F48      |        8008 |
|      12 | 0x0001      |           1 |
|      13 | 0x1F4B      |        8011 |
|      14 | 0x0002      |           2 |
|      15 | 0x1F49      |        8009 |
|      16 | 0x1F4A      |        8010 |
|      17 | 0x1F4C      |        8012 |
|      18 | 0x1F4D      |        8013 |
|      19 | 0x003C      |          60 |
|      20 | 0x1F4E      |        8014 |
|      21 | 0x1F4F      |        8015 |
|      22 | 0x1F50      |        8016 |
|      23 | 0x1F51      |        8017 |
|      24 | 0x1F52      |        8018 |
|      25 | 0x1F53      |        8019 |
|      26 | 0x1F54      |        8020 |
|      27 | 0x1F55      |        8021 |
|      28 | 0x1F56      |        8022 |
|      29 | 0x00C9      |         201 |
|      30 | 0x0064      |         100 |
|      31 | 0x1FCB      |        8139 |
|      32 | 0x1FCC      |        8140 |
|      33 | 0x004B      |          75 |
|      34 | 0x1FC9      |        8137 |
|      35 | 0x1FCA      |        8138 |
|      36 | 0x0032      |          50 |
|      37 | 0x1FC7      |        8135 |
|      38 | 0x1FC8      |        8136 |
|      39 | 0x0019      |          25 |
|      40 | 0x1FC5      |        8133 |
|      41 | 0x1FC6      |        8134 |
|      42 | 0x1FC3      |        8131 |
|      43 | 0x1FC4      |        8132 |

## String References

- **8000**: Yours is a face I haven't seen before. What brings you to these parts, stranger?
- **8001**: Well, feel free to stick around. You'll be safe from the fiends as long as you stick close to me. Gahahaha!
- **8002**: Well, if it isn't <Player>. I was startin' to wonder when you might show up.
- **8003**: How do I know your name, you ask?
- **8004**: Gahahahahahaha! Like there's anyone in this barren hinterland that hasn't heard your name by now. But let's talk about something more stimulatin', shall we?
- **8005**: Perhaps you've heard of the fiend that they call the Blanga. A fearsome beast it is, said to be able to rend a fully armored man limb from limb with its gnarled claws.
- **8006**: Why, the foul thing descended upon my band just the other day. We were able to drive it off, of course, but not before it had made off with our linkpearl. Needless to say, the ability to communicate with our comrades is vital in these harsh environs.
- **8007**: Retrieve the pearl? [Consider it done./Do it yourself!]
- **8008**: Gahahaha! That's the <Player> I've heard so much about!
- **8009**: I would have long since gone myself, of course, but I need to stay here and intercept any potential attacks on the survivor camps.
- **8010**: But with the job in your hands, it's as good as done, right? Good luck out there, <Player>. Gahahaha!
- **8011**: Gahahaha! You've sure got some nerve! That's what I like about you, <Player>. Come back if ya change your mind, okay?
- **8012**: Surely you haven't forgotten the name of your quarry, have ya? The Blanga! Why, even now the beast's just waitin' for you to cut him down to size. Gahahaha!
- **8013**: Well, look who's back, and lookin' no worse for the wear, to boot!
- **8014**: Let's see here... No, this won't do at all.
- **8015**: Look for yourself...it's broken! Just like the oversized snout of the last fiend that thought he could get past ol' Zazarg. Gahahaha!
- **8016**: Ah, don't look so glum, <Player>. It's no fault of your own, after all.
- **8017**: Besides, I'm just glad to have it back as a memento of my brothers in arms. A stronger and more valorous band you'll never see. They'll have no troubles holdin' their own without me.
- **8018**: ...And you'd be right at home among them, <Player>. Come to think of it, it's as if we've met somewhere before... Nah, must just be my imagination.
- **8019**: ...And you'd be right at home among them, <Player>.
- **8020**: Anyhow, you have my thanks and more, for livenin' up what was going to be another dreary day in the boondocks.
- **8021**: Well, I should let you be on your way. Bet you can't wait to jump back into the thick of things, after all.
- **8022**: Gahahahaha!
- **8131**: Gahahaha! So our enemies think they've already won, do they?
- **8132**: Let's teach them a lesson they'll never forget!
- **8133**: Gahahaha! Those fiends know now that this'll be no easy battle.
- **8134**: You guys pack more of a punch than I gave you credit for. Keep up the good work!
- **8135**: Gahahaha! Thanks to your efforts, we've put a good scare into our foe.
- **8136**: But don't go getting comfortable yet. The toughest fight still lies ahead!
- **8137**: Gahahaha! We've got the enemy on their last legs!
- **8138**: Show no mercy! Bury their bones deep in the snowdrifts of Uleguerand!
- **8139**: Looks like all our enemies have gone home. And just when I was gettin' warmed up! Gahahaha!
- **8140**: You're no slouch on the battlefield, friend! Let's hope it's not long before we can wreak havoc on a new brood of fiends together! Gahahaha!

## Events

### Event 65535

#### Metadata

| Field        | Value   |
|--------------|---------|
| Entrypoint   | 0x0000  |
| Data Size    | 1 bytes |
| Instructions | 1       |

```
      00 01 02 03 04 05 06 07  08 09 0A 0B 0C 0D 0E 0F
      -- -- -- -- -- -- -- --  -- -- -- -- -- -- -- --
0000: 00                                                .               
```

#### Opcodes

```
  0: 0x0000 [0x00] END_REQSTACK()
```

### Event 313

#### Metadata

| Field        | Value    |
|--------------|----------|
| Entrypoint   | 0x0001   |
| Data Size    | 29 bytes |
| Instructions | 11       |

```
      00 01 02 03 04 05 06 07  08 09 0A 0B 0C 0D 0E 0F
      -- -- -- -- -- -- -- --  -- -- -- -- -- -- -- --
0000:    1E F0 FF FF 7F 6F 70  6E 61 D2 0F 01 00 80 99   .....opna......
0010: 61 D2 0F 01 1D 01 80 23  1D 02 80 23 21 00        a......#...#!.  
```

#### Opcodes

```
  0: 0x0001 [0x1E] EventEntity looks at LocalPlayer and starts talking
  1: 0x0006 [0x6F] WAIT_FRAME_DELAY: Yield until WaitTime reaches zero
  2: 0x0007 [0x70] WAIT_ENTITY_RENDER_FLAG: Wait while EventEntity->Render.Flags3 bit 2 is set (cancel turn if not)
  3: 0x0008 [0x6E] Zazarg (ID: 17814113/0x010FD261) uses emote 4*
  4: 0x000F [0x99] Wait for Zazarg (ID: 17814113/0x010FD261) animation to complete
  5: 0x0014 [0x1D] PRINT_EVENT_MESSAGE(message_id=8000*)
    → "Yours is a face I haven't seen before. What brings you to these parts, stranger?"
  6: 0x0017 [0x23] WAIT_FOR_DIALOG_INTERACTION
  7: 0x0018 [0x1D] PRINT_EVENT_MESSAGE(message_id=8001*)
    → "Well, feel free to stick around. You'll be safe from the fiends as long as you stick close to me. Gahahaha!"
  8: 0x001B [0x23] WAIT_FOR_DIALOG_INTERACTION
  9: 0x001C [0x21] END_EVENT
 10: 0x001D [0x00] END_REQSTACK()
```

### Event 314

#### Metadata

| Field        | Value     |
|--------------|-----------|
| Entrypoint   | 0x001E    |
| Data Size    | 143 bytes |
| Instructions | 41        |

```
      00 01 02 03 04 05 06 07  08 09 0A 0B 0C 0D 0E 0F
      -- -- -- -- -- -- -- --  -- -- -- -- -- -- -- --
0010:                                            42 1E                B.
0020: F0 FF FF 7F 6F 70 02 02  10 03 80 00 4A 00 1D 04  ....op......J...
0030: 80 23 1D 05 80 23 6E 61  D2 0F 01 00 80 99 61 D2  .#...#na......a.
0040: 0F 01 1D 06 80 23 1D 07  80 23 1D 08 80 23 24 09  .....#...#...#$.
0050: 80 03 80 03 80 25 02 00  10 03 80 00 76 00 6E 61  .....%......v.na
0060: D2 0F 01 0A 80 99 61 D2  0F 01 1D 0B 80 23 03 01  ......a......#..
0070: 10 0C 80 01 97 00 02 00  10 0C 80 00 97 00 6E 61  ..............na
0080: D2 0F 01 00 80 99 61 D2  0F 01 1D 0D 80 23 03 01  ......a......#..
0090: 10 0E 80 21 01 97 00 6E  61 D2 0F 01 00 80 99 61  ...!...na......a
00A0: D2 0F 01 1D 0F 80 23 1D  10 80 23 21 00           ......#...#!.   
```

#### Opcodes

```
  0: 0x001E [0x42] SET_CLI_EVENT_CANCEL_DATA()
  1: 0x001F [0x1E] EventEntity looks at LocalPlayer and starts talking
  2: 0x0024 [0x6F] WAIT_FRAME_DELAY: Yield until WaitTime reaches zero
  3: 0x0025 [0x70] WAIT_ENTITY_RENDER_FLAG: Wait while EventEntity->Render.Flags3 bit 2 is set (cancel turn if not)
  4: 0x0026 [0x02] IF !(Work_Zone[2] == 0*) GOTO 0x004A
  5: 0x002E [0x1D] PRINT_EVENT_MESSAGE(message_id=8002*)
    → "Well, if it isn't <Player>. I was startin' to wonder when you might show up."
  6: 0x0031 [0x23] WAIT_FOR_DIALOG_INTERACTION
  7: 0x0032 [0x1D] PRINT_EVENT_MESSAGE(message_id=8003*)
    → "How do I know your name, you ask?"
  8: 0x0035 [0x23] WAIT_FOR_DIALOG_INTERACTION
  9: 0x0036 [0x6E] Zazarg (ID: 17814113/0x010FD261) uses emote 4*
 10: 0x003D [0x99] Wait for Zazarg (ID: 17814113/0x010FD261) animation to complete
 11: 0x0042 [0x1D] PRINT_EVENT_MESSAGE(message_id=8004*)
    → "Gahahahahahaha! Like there's anyone in this barren hinterland that hasn't heard your name by now. But let's talk about something more stimulatin', shall we?"
 12: 0x0045 [0x23] WAIT_FOR_DIALOG_INTERACTION
 13: 0x0046 [0x1D] PRINT_EVENT_MESSAGE(message_id=8005*)
    → "Perhaps you've heard of the fiend that they call the Blanga. A fearsome beast it is, said to be able to rend a fully armored man limb from limb with its gnarled claws."
 14: 0x0049 [0x23] WAIT_FOR_DIALOG_INTERACTION
 15: 0x004A [0x1D] PRINT_EVENT_MESSAGE(message_id=8006*)
    → "Why, the foul thing descended upon my band just the other day. We were able to drive it off, of course, but not before it had made off with our linkpearl. Needless to say, the ability to communicate with our comrades is vital in these harsh environs."
 16: 0x004D [0x23] WAIT_FOR_DIALOG_INTERACTION
 17: 0x004E [0x24] CREATE_DIALOG(message_id=8007*, default_option=0*, option_flags=0*)
    → "Retrieve the pearl? [Consider it done./Do it yourself!]"
 18: 0x0055 [0x25] WAIT_DIALOG_SELECT()
 19: 0x0056 [0x02] IF !(Work_Zone[0] == 0*) GOTO 0x0076
 20: 0x005E [0x6E] Zazarg (ID: 17814113/0x010FD261) uses emote 7*
 21: 0x0065 [0x99] Wait for Zazarg (ID: 17814113/0x010FD261) animation to complete
 22: 0x006A [0x1D] PRINT_EVENT_MESSAGE(message_id=8008*)
    → "Gahahaha! That's the <Player> I've heard so much about!"
 23: 0x006D [0x23] WAIT_FOR_DIALOG_INTERACTION
 24: 0x006E [0x03] Work_Zone[1] = 1*
 25: 0x0073 [0x01] GOTO 0x0097
 26: 0x0076 [0x02] IF !(Work_Zone[0] == 1*) GOTO 0x0097
 27: 0x007E [0x6E] Zazarg (ID: 17814113/0x010FD261) uses emote 4*
 28: 0x0085 [0x99] Wait for Zazarg (ID: 17814113/0x010FD261) animation to complete
 29: 0x008A [0x1D] PRINT_EVENT_MESSAGE(message_id=8011*)
    → "Gahahaha! You've sure got some nerve! That's what I like about you, <Player>. Come back if ya change your mind, okay?"
 30: 0x008D [0x23] WAIT_FOR_DIALOG_INTERACTION
 31: 0x008E [0x03] Work_Zone[1] = 2*
 32: 0x0093 [0x21] END_EVENT

SUBROUTINE_0097:
 33: 0x0097 [0x6E] Zazarg (ID: 17814113/0x010FD261) uses emote 4*
 34: 0x009E [0x99] Wait for Zazarg (ID: 17814113/0x010FD261) animation to complete
 35: 0x00A3 [0x1D] PRINT_EVENT_MESSAGE(message_id=8009*)
    → "I would have long since gone myself, of course, but I need to stay here and intercept any potential attacks on the survivor camps."
 36: 0x00A6 [0x23] WAIT_FOR_DIALOG_INTERACTION
 37: 0x00A7 [0x1D] PRINT_EVENT_MESSAGE(message_id=8010*)
    → "But with the job in your hands, it's as good as done, right? Good luck out there, <Player>. Gahahaha!"
 38: 0x00AA [0x23] WAIT_FOR_DIALOG_INTERACTION
 39: 0x00AB [0x21] END_EVENT
 40: 0x00AC [0x00] END_REQSTACK()
```

#### Data or dead code:

```
# Dead code (unreachable instructions):
     0x0094 [0x01] GOTO 0x0097
```

### Event 315

#### Metadata

| Field        | Value    |
|--------------|----------|
| Entrypoint   | 0x00AD   |
| Data Size    | 45 bytes |
| Instructions | 15       |

```
      00 01 02 03 04 05 06 07  08 09 0A 0B 0C 0D 0E 0F
      -- -- -- -- -- -- -- --  -- -- -- -- -- -- -- --
00A0:                                         1E F0 FF               ...
00B0: FF 7F 6F 70 1D 11 80 23  6E 61 D2 0F 01 0A 80 99  ..op...#na......
00C0: 61 D2 0F 01 1D 0F 80 23  6E 61 D2 0F 01 00 80 99  a......#na......
00D0: 61 D2 0F 01 1D 10 80 23  21 00                    a......#!.      
```

#### Opcodes

```
  0: 0x00AD [0x1E] EventEntity looks at LocalPlayer and starts talking
  1: 0x00B2 [0x6F] WAIT_FRAME_DELAY: Yield until WaitTime reaches zero
  2: 0x00B3 [0x70] WAIT_ENTITY_RENDER_FLAG: Wait while EventEntity->Render.Flags3 bit 2 is set (cancel turn if not)
  3: 0x00B4 [0x1D] PRINT_EVENT_MESSAGE(message_id=8012*)
    → "Surely you haven't forgotten the name of your quarry, have ya? The Blanga! Why, even now the beast's just waitin' for you to cut him down to size. Gahahaha!"
  4: 0x00B7 [0x23] WAIT_FOR_DIALOG_INTERACTION
  5: 0x00B8 [0x6E] Zazarg (ID: 17814113/0x010FD261) uses emote 7*
  6: 0x00BF [0x99] Wait for Zazarg (ID: 17814113/0x010FD261) animation to complete
  7: 0x00C4 [0x1D] PRINT_EVENT_MESSAGE(message_id=8009*)
    → "I would have long since gone myself, of course, but I need to stay here and intercept any potential attacks on the survivor camps."
  8: 0x00C7 [0x23] WAIT_FOR_DIALOG_INTERACTION
  9: 0x00C8 [0x6E] Zazarg (ID: 17814113/0x010FD261) uses emote 4*
 10: 0x00CF [0x99] Wait for Zazarg (ID: 17814113/0x010FD261) animation to complete
 11: 0x00D4 [0x1D] PRINT_EVENT_MESSAGE(message_id=8010*)
    → "But with the job in your hands, it's as good as done, right? Good luck out there, <Player>. Gahahaha!"
 12: 0x00D7 [0x23] WAIT_FOR_DIALOG_INTERACTION
 13: 0x00D8 [0x21] END_EVENT
 14: 0x00D9 [0x00] END_REQSTACK()
```

### Event 316

#### Metadata

| Field        | Value     |
|--------------|-----------|
| Entrypoint   | 0x00DA    |
| Data Size    | 143 bytes |
| Instructions | 40        |

```
      00 01 02 03 04 05 06 07  08 09 0A 0B 0C 0D 0E 0F
      -- -- -- -- -- -- -- --  -- -- -- -- -- -- -- --
00D0:                                42 1E F0 FF FF 7F            B.....
00E0: 6F 70 6E 61 D2 0F 01 0A  80 99 61 D2 0F 01 1D 12  opna......a.....
00F0: 80 23 27 10 F0 FF FF 7F  04 1C 13 80 27 10 F0 FF  .#'.........'...
0100: FF 7F 05 1D 14 80 23 1D  15 80 23 6E 61 D2 0F 01  ......#...#na...
0110: 00 80 99 61 D2 0F 01 1D  16 80 23 1D 17 80 23 02  ...a......#...#.
0120: 03 10 0C 80 00 3A 01 6E  61 D2 0F 01 0A 80 99 61  .....:.na......a
0130: D2 0F 01 1D 18 80 23 01  3E 01 1D 19 80 23 1D 1A  ......#.>....#..
0140: 80 23 1D 1B 80 23 6E 61  D2 0F 01 00 80 99 61 D2  .#...#na......a.
0150: 0F 01 1D 1C 80 23 45 1D  80 F0 FF FF 7F F0 FF FF  .....#E.........
0160: 7F 71 73 74 63 03 80 21  00                       .qstc..!.       
```

#### Opcodes

```
  0: 0x00DA [0x42] SET_CLI_EVENT_CANCEL_DATA()
  1: 0x00DB [0x1E] EventEntity looks at LocalPlayer and starts talking
  2: 0x00E0 [0x6F] WAIT_FRAME_DELAY: Yield until WaitTime reaches zero
  3: 0x00E1 [0x70] WAIT_ENTITY_RENDER_FLAG: Wait while EventEntity->Render.Flags3 bit 2 is set (cancel turn if not)
  4: 0x00E2 [0x6E] Zazarg (ID: 17814113/0x010FD261) uses emote 7*
  5: 0x00E9 [0x99] Wait for Zazarg (ID: 17814113/0x010FD261) animation to complete
  6: 0x00EE [0x1D] PRINT_EVENT_MESSAGE(message_id=8013*)
    → "Well, look who's back, and lookin' no worse for the wear, to boot!"
  7: 0x00F1 [0x23] WAIT_FOR_DIALOG_INTERACTION
  8: 0x00F2 [0x27] REQ_SET(priority=0x10, entity_id=LocalPlayer, tag_num=0x04)
  9: 0x00F9 [0x1C] WAIT(60* ticks)
 10: 0x00FC [0x27] REQ_SET(priority=0x10, entity_id=LocalPlayer, tag_num=0x05)
 11: 0x0103 [0x1D] PRINT_EVENT_MESSAGE(message_id=8014*)
    → "Let's see here... No, this won't do at all."
 12: 0x0106 [0x23] WAIT_FOR_DIALOG_INTERACTION
 13: 0x0107 [0x1D] PRINT_EVENT_MESSAGE(message_id=8015*)
    → "Look for yourself...it's broken! Just like the oversized snout of the last fiend that thought he could get past ol' Zazarg. Gahahaha!"
 14: 0x010A [0x23] WAIT_FOR_DIALOG_INTERACTION
 15: 0x010B [0x6E] Zazarg (ID: 17814113/0x010FD261) uses emote 4*
 16: 0x0112 [0x99] Wait for Zazarg (ID: 17814113/0x010FD261) animation to complete
 17: 0x0117 [0x1D] PRINT_EVENT_MESSAGE(message_id=8016*)
    → "Ah, don't look so glum, <Player>. It's no fault of your own, after all."
 18: 0x011A [0x23] WAIT_FOR_DIALOG_INTERACTION
 19: 0x011B [0x1D] PRINT_EVENT_MESSAGE(message_id=8017*)
    → "Besides, I'm just glad to have it back as a memento of my brothers in arms. A stronger and more valorous band you'll never see. They'll have no troubles holdin' their own without me."
 20: 0x011E [0x23] WAIT_FOR_DIALOG_INTERACTION
 21: 0x011F [0x02] IF !(Work_Zone[3] == 1*) GOTO 0x013A
 22: 0x0127 [0x6E] Zazarg (ID: 17814113/0x010FD261) uses emote 7*
 23: 0x012E [0x99] Wait for Zazarg (ID: 17814113/0x010FD261) animation to complete
 24: 0x0133 [0x1D] PRINT_EVENT_MESSAGE(message_id=8018*)
    → "...And you'd be right at home among them, <Player>. Come to think of it, it's as if we've met somewhere before... Nah, must just be my imagination."
 25: 0x0136 [0x23] WAIT_FOR_DIALOG_INTERACTION
 26: 0x0137 [0x01] GOTO 0x013E
 27: 0x013A [0x1D] PRINT_EVENT_MESSAGE(message_id=8019*)
    → "...And you'd be right at home among them, <Player>."
 28: 0x013D [0x23] WAIT_FOR_DIALOG_INTERACTION

SUBROUTINE_013E:
 29: 0x013E [0x1D] PRINT_EVENT_MESSAGE(message_id=8020*)
    → "Anyhow, you have my thanks and more, for livenin' up what was going to be another dreary day in the boondocks."
 30: 0x0141 [0x23] WAIT_FOR_DIALOG_INTERACTION
 31: 0x0142 [0x1D] PRINT_EVENT_MESSAGE(message_id=8021*)
    → "Well, I should let you be on your way. Bet you can't wait to jump back into the thick of things, after all."
 32: 0x0145 [0x23] WAIT_FOR_DIALOG_INTERACTION
 33: 0x0146 [0x6E] Zazarg (ID: 17814113/0x010FD261) uses emote 4*
 34: 0x014D [0x99] Wait for Zazarg (ID: 17814113/0x010FD261) animation to complete
 35: 0x0152 [0x1D] PRINT_EVENT_MESSAGE(message_id=8022*)
    → "Gahahahaha!"
 36: 0x0155 [0x23] WAIT_FOR_DIALOG_INTERACTION
 37: 0x0156 [0x45] LOAD_SCHEDULED_TASK: Load scheduler "qstc" with entities [LocalPlayer, LocalPlayer], work=[201*, 0*]
 38: 0x0167 [0x21] END_EVENT
 39: 0x0168 [0x00] END_REQSTACK()
```

### Event 317

#### Metadata

| Field        | Value    |
|--------------|----------|
| Entrypoint   | 0x0169   |
| Data Size    | 29 bytes |
| Instructions | 11       |

```
      00 01 02 03 04 05 06 07  08 09 0A 0B 0C 0D 0E 0F
      -- -- -- -- -- -- -- --  -- -- -- -- -- -- -- --
0160:                             1E F0 FF FF 7F 6F 70           .....op
0170: 1D 1B 80 23 6E 61 D2 0F  01 00 80 99 61 D2 0F 01  ...#na......a...
0180: 1D 1C 80 23 21 00                                 ...#!.          
```

#### Opcodes

```
  0: 0x0169 [0x1E] EventEntity looks at LocalPlayer and starts talking
  1: 0x016E [0x6F] WAIT_FRAME_DELAY: Yield until WaitTime reaches zero
  2: 0x016F [0x70] WAIT_ENTITY_RENDER_FLAG: Wait while EventEntity->Render.Flags3 bit 2 is set (cancel turn if not)
  3: 0x0170 [0x1D] PRINT_EVENT_MESSAGE(message_id=8021*)
    → "Well, I should let you be on your way. Bet you can't wait to jump back into the thick of things, after all."
  4: 0x0173 [0x23] WAIT_FOR_DIALOG_INTERACTION
  5: 0x0174 [0x6E] Zazarg (ID: 17814113/0x010FD261) uses emote 4*
  6: 0x017B [0x99] Wait for Zazarg (ID: 17814113/0x010FD261) animation to complete
  7: 0x0180 [0x1D] PRINT_EVENT_MESSAGE(message_id=8022*)
    → "Gahahahaha!"
  8: 0x0183 [0x23] WAIT_FOR_DIALOG_INTERACTION
  9: 0x0184 [0x21] END_EVENT
 10: 0x0185 [0x00] END_REQSTACK()
```

### Event 318

#### Metadata

| Field        | Value   |
|--------------|---------|
| Entrypoint   | 0x0186  |
| Data Size    | 2 bytes |
| Instructions | 2       |

```
      00 01 02 03 04 05 06 07  08 09 0A 0B 0C 0D 0E 0F
      -- -- -- -- -- -- -- --  -- -- -- -- -- -- -- --
0180:                   21 00                                 !.        
```

#### Opcodes

```
  0: 0x0186 [0x21] END_EVENT
  1: 0x0187 [0x00] END_REQSTACK()
```

### Event 357

#### Metadata

| Field        | Value     |
|--------------|-----------|
| Entrypoint   | 0x0188    |
| Data Size    | 105 bytes |
| Instructions | 35        |

```
      00 01 02 03 04 05 06 07  08 09 0A 0B 0C 0D 0E 0F
      -- -- -- -- -- -- -- --  -- -- -- -- -- -- -- --
0180:                          1E F0 FF FF 7F 6F 70 6E          .....opn
0190: 61 D2 0F 01 00 80 99 61  D2 0F 01 02 02 10 1E 80  a......a........
01A0: 04 AE 01 1D 1F 80 23 1D  20 80 23 01 EF 01 02 02  ......#. .#.....
01B0: 10 21 80 02 C1 01 1D 22  80 23 1D 23 80 23 01 EF  .!.....".#.#.#..
01C0: 01 02 02 10 24 80 02 D4  01 1D 25 80 23 1D 26 80  ....$.....%.#.&.
01D0: 23 01 EF 01 02 02 10 27  80 02 E7 01 1D 28 80 23  #......'.....(.#
01E0: 1D 29 80 23 01 EF 01 1D  2A 80 23 1D 2B 80 23 21  .).#....*.#.+.#!
01F0: 00                                                .               
```

#### Opcodes

```
  0: 0x0188 [0x1E] EventEntity looks at LocalPlayer and starts talking
  1: 0x018D [0x6F] WAIT_FRAME_DELAY: Yield until WaitTime reaches zero
  2: 0x018E [0x70] WAIT_ENTITY_RENDER_FLAG: Wait while EventEntity->Render.Flags3 bit 2 is set (cancel turn if not)
  3: 0x018F [0x6E] Zazarg (ID: 17814113/0x010FD261) uses emote 4*
  4: 0x0196 [0x99] Wait for Zazarg (ID: 17814113/0x010FD261) animation to complete
  5: 0x019B [0x02] IF !(Work_Zone[2] < 100*) GOTO 0x01AE
  6: 0x01A3 [0x1D] PRINT_EVENT_MESSAGE(message_id=8139*)
    → "Looks like all our enemies have gone home. And just when I was gettin' warmed up! Gahahaha!"
  7: 0x01A6 [0x23] WAIT_FOR_DIALOG_INTERACTION
  8: 0x01A7 [0x1D] PRINT_EVENT_MESSAGE(message_id=8140*)
    → "You're no slouch on the battlefield, friend! Let's hope it's not long before we can wreak havoc on a new brood of fiends together! Gahahaha!"
  9: 0x01AA [0x23] WAIT_FOR_DIALOG_INTERACTION
 10: 0x01AB [0x01] GOTO 0x01EF
 11: 0x01AE [0x02] IF !(Work_Zone[2] <= 75*) GOTO 0x01C1
 12: 0x01B6 [0x1D] PRINT_EVENT_MESSAGE(message_id=8137*)
    → "Gahahaha! We've got the enemy on their last legs!"
 13: 0x01B9 [0x23] WAIT_FOR_DIALOG_INTERACTION
 14: 0x01BA [0x1D] PRINT_EVENT_MESSAGE(message_id=8138*)
    → "Show no mercy! Bury their bones deep in the snowdrifts of Uleguerand!"
 15: 0x01BD [0x23] WAIT_FOR_DIALOG_INTERACTION
 16: 0x01BE [0x01] GOTO 0x01EF
 17: 0x01C1 [0x02] IF !(Work_Zone[2] <= 50*) GOTO 0x01D4
 18: 0x01C9 [0x1D] PRINT_EVENT_MESSAGE(message_id=8135*)
    → "Gahahaha! Thanks to your efforts, we've put a good scare into our foe."
 19: 0x01CC [0x23] WAIT_FOR_DIALOG_INTERACTION
 20: 0x01CD [0x1D] PRINT_EVENT_MESSAGE(message_id=8136*)
    → "But don't go getting comfortable yet. The toughest fight still lies ahead!"
 21: 0x01D0 [0x23] WAIT_FOR_DIALOG_INTERACTION
 22: 0x01D1 [0x01] GOTO 0x01EF
 23: 0x01D4 [0x02] IF !(Work_Zone[2] <= 25*) GOTO 0x01E7
 24: 0x01DC [0x1D] PRINT_EVENT_MESSAGE(message_id=8133*)
    → "Gahahaha! Those fiends know now that this'll be no easy battle."
 25: 0x01DF [0x23] WAIT_FOR_DIALOG_INTERACTION
 26: 0x01E0 [0x1D] PRINT_EVENT_MESSAGE(message_id=8134*)
    → "You guys pack more of a punch than I gave you credit for. Keep up the good work!"
 27: 0x01E3 [0x23] WAIT_FOR_DIALOG_INTERACTION
 28: 0x01E4 [0x01] GOTO 0x01EF
 29: 0x01E7 [0x1D] PRINT_EVENT_MESSAGE(message_id=8131*)
    → "Gahahaha! So our enemies think they've already won, do they?"
 30: 0x01EA [0x23] WAIT_FOR_DIALOG_INTERACTION
 31: 0x01EB [0x1D] PRINT_EVENT_MESSAGE(message_id=8132*)
    → "Let's teach them a lesson they'll never forget!"
 32: 0x01EE [0x23] WAIT_FOR_DIALOG_INTERACTION

SUBROUTINE_01EF:
 33: 0x01EF [0x21] END_EVENT
 34: 0x01F0 [0x00] END_REQSTACK()
```
