# 17814125 - Ardea

## Common Data

| Field            | Value                          |
|------------------|--------------------------------|
| Zone             | Abyssea - Uleguerand (ID: 253) |
| Block Size       | 84 bytes                       |
| Total Events     | 2                              |
| References Count | 5                              |

## List of Events

| Event ID              | Entrypoint   |   Size |   Instructions |
|-----------------------|--------------|--------|----------------|
| [65535](#event-65535) | 0x0000       |      1 |              1 |
| [353](#event-353)     | 0x0001       |     38 |             12 |

## DAT References (imed_data)

|   Index | Hex Value   |   Dec Value |
|---------|-------------|-------------|
|       0 | 0x0028      |          40 |
|       1 | 0x0051      |          81 |
|       2 | 0x003C      |          60 |
|       3 | 0x1F9C      |        8092 |
|       4 | 0x1F9D      |        8093 |

## String References

- **8092**: Cruor, lovely cruor! You wouldn't happen to have any cruor for me, would you? Oh, pretty pretty please?
- **8093**: Then again, even if you did, you'd probably want to save it to trade for items. Or to power martellos and confluxes... If you were the rare person who didn't care about such things, however, your cruor could always find a home with me!

## Events

### Event 65535

#### Metadata

| Field        | Value   |
|--------------|---------|
| Entrypoint   | 0x0000  |
| Data Size    | 1 bytes |
| Instructions | 1       |

```
      00 01 02 03 04 05 06 07  08 09 0A 0B 0C 0D 0E 0F
      -- -- -- -- -- -- -- --  -- -- -- -- -- -- -- --
0000: 00                                                .               
```

#### Opcodes

```
  0: 0x0000 [0x00] END_REQSTACK()
```

### Event 353

#### Metadata

| Field        | Value    |
|--------------|----------|
| Entrypoint   | 0x0001   |
| Data Size    | 38 bytes |
| Instructions | 12       |

```
      00 01 02 03 04 05 06 07  08 09 0A 0B 0C 0D 0E 0F
      -- -- -- -- -- -- -- --  -- -- -- -- -- -- -- --
0000:    1E F0 FF FF 7F 6F 70  1C 00 80 66 01 80 6D D2   .....op...f..m.
0010: 0F 01 6D D2 0F 01 70 61  73 30 1C 02 80 1D 03 80  ..m...pas0......
0020: 23 1D 04 80 23 21 00                              #...#!.         
```

#### Opcodes

```
  0: 0x0001 [0x1E] EventEntity looks at LocalPlayer and starts talking
  1: 0x0006 [0x6F] WAIT_FRAME_DELAY: Yield until WaitTime reaches zero
  2: 0x0007 [0x70] WAIT_ENTITY_RENDER_FLAG: Wait while EventEntity->Render.Flags3 bit 2 is set (cancel turn if not)
  3: 0x0008 [0x1C] WAIT(40* ticks)
  4: 0x000B [0x66] LOAD_EXT_SCHEDULER_MAIN: Load scheduler "pas0" with entities [Ardea (ID: 17814125/0x010FD26D), Ardea (ID: 17814125/0x010FD26D)], work=81*
  5: 0x001A [0x1C] WAIT(60* ticks)
  6: 0x001D [0x1D] PRINT_EVENT_MESSAGE(message_id=8092*)
    → "Cruor, lovely cruor! You wouldn't happen to have any cruor for me, would you? Oh, pretty pretty please?"
  7: 0x0020 [0x23] WAIT_FOR_DIALOG_INTERACTION
  8: 0x0021 [0x1D] PRINT_EVENT_MESSAGE(message_id=8093*)
    → "Then again, even if you did, you'd probably want to save it to trade for items. Or to power martellos and confluxes... If you were the rare person who didn't care about such things, however, your cruor could always find a home with me!"
  9: 0x0024 [0x23] WAIT_FOR_DIALOG_INTERACTION
 10: 0x0025 [0x21] END_EVENT
 11: 0x0026 [0x00] END_REQSTACK()
```
