# 17814099 - Moogle

## Common Data

| Field            | Value                          |
|------------------|--------------------------------|
| Zone             | Abyssea - Uleguerand (ID: 253) |
| Block Size       | 604 bytes                      |
| Total Events     | 10                             |
| References Count | 27                             |

## List of Events

| Event ID              | Entrypoint   |   Size |   Instructions |
|-----------------------|--------------|--------|----------------|
| [65535](#event-65535) | 0x0000       |      1 |              1 |
| [276](#event-276)     | 0x0001       |    141 |             33 |
| [277](#event-277)     | 0x008E       |     18 |              8 |
| [280](#event-280)     | 0x00A0       |     53 |             15 |
| [281](#event-281)     | 0x00D5       |     48 |             12 |
| [284](#event-284)     | 0x0105       |     53 |             15 |
| [285](#event-285)     | 0x013A       |     26 |             12 |
| [286](#event-286)     | 0x0154       |     74 |             18 |
| [287](#event-287)     | 0x019E       |     13 |              7 |
| [366](#event-366)     | 0x01AB       |     13 |              7 |

## DAT References (imed_data)

|   Index | Hex Value   |   Dec Value |
|---------|-------------|-------------|
|       0 | 0x06B6      |        1718 |
|       1 | 0x1EF0      |        7920 |
|       2 | 0x1EF1      |        7921 |
|       3 | 0x1EF2      |        7922 |
|       4 | 0x1EF3      |        7923 |
|       5 | 0x1EF4      |        7924 |
|       6 | 0x0000      |           0 |
|       7 | 0x1EF5      |        7925 |
|       8 | 0x0001      |           1 |
|       9 | 0x1EF6      |        7926 |
|      10 | 0x1EF7      |        7927 |
|      11 | 0x06B7      |        1719 |
|      12 | 0x1EF9      |        7929 |
|      13 | 0x1EFA      |        7930 |
|      14 | 0x1EFB      |        7931 |
|      15 | 0x1EFC      |        7932 |
|      16 | 0x1EFD      |        7933 |
|      17 | 0x06B8      |        1720 |
|      18 | 0x1EFE      |        7934 |
|      19 | 0x1EFF      |        7935 |
|      20 | 0x1F00      |        7936 |
|      21 | 0x1F01      |        7937 |
|      22 | 0x1F02      |        7938 |
|      23 | 0x1F03      |        7939 |
|      24 | 0x1F04      |        7940 |
|      25 | 0x1F05      |        7941 |
|      26 | 0x00C9      |         201 |

## String References

- **7920**: <Sniff>... Why, a moogle without a Mog House is like a Mithra without a tail, kupo! A Galka without a perpetually furrowed brow! A pamama au lait without pamamas...or lait! (What is lait, anyway?)
- **7921**: Surely you see my plight, Master!? Can I call you Master? Just for old times' sake?
- **7922**: Oh, thank you, Master! Now that we're friends, perhaps you could heed my ever-so-humble request, kupo.
- **7923**: I have a mind to manufacture myself a makeshift Mog House of sorts, but I lack for a most vital material! 6, to be exact. Perhaps you could procure one for me, Master? Pretty, pretty please?
- **7924**: Help the poor moogle? [Like I have a choice, kupo./Not today, kupo.]
- **7925**: Oh, thank you, Master! What a beneficent and benevolent soul you are!
- **7926**: Why, certainly, Master. You are clearly a very busy [man/woman]. Pay no heed to this pathetic, pitiful moogle. Bereft of home and purpose in life, what does it matter if I...<shiver>...f-freeze to death out here...alone...friendless, f-forsaken and...<sniff>...forgotten, kupo-o-o-o...
- **7927**: I believe there should be some $5 in storage at one of the encampments. Steal one? What kind of a moogle miscreant do you take me for!? Why, it would just be a temporary loan, kupo!
- **7929**: Splendid! Why, you're every bit the adventurer that my former master was! My master, who was l-lost...<sniff>...in the attack on...<sob>...
- **7930**: Ah, but forgive this maudlin moogle! I seem to have forgotten another most important material for my new Mog House. A $3! Yes, a $3, kupo!
- **7931**: It's absolutely essential! Indispensible! You should be able to find a supply around one of the encampments, just like last time. Please! I'm counting on you, Master!
- **7932**: That $3 is essential! Indispensible, kupo! You should be able to find a supply of it around one of the encampments, just like before.
- **7933**: Please! I'm counting on you, Master!
- **7934**: Oh, there I go again. Now, all I'll be needing is $6 and my new Mog House will be good to go, kupo. Yes, $6. Didn't I mention that before?
- **7935**: Where can you find one, kupo? I fear that's beyond the knowledge of this humble, homeless moogle. But I trust in you implicitly! Go forth and you shall find your fortune, Master!
- **7936**: All I'll be needing is $6 and my new Mog House will be good to go. Yes, of course this is the last of it, kupo! Would I ever mislead you, master?
- **7937**: I fear you won't be finding a supply around camp this time. but this shouldn't present a problem to an able adventurer like yourself, kupo!
- **7938**: Do my snow-blinded eyes deceive me, or is this truly a $3 you've brought to me? Why, wherever did you find this?
- **7939**: Why, I had assumed that I had merely sent you out on a wild goobbue cha-- Ahem, kupo!
- **7940**: I now have everything I need to manufacture a magnificent new Mog House for my new master--that would be you, of course! Now where did I put my hammer, kupo...?
- **7941**: On second thought, this might take some time. In the meantime, you can have this, kupo!

## Events

### Event 65535

#### Metadata

| Field        | Value   |
|--------------|---------|
| Entrypoint   | 0x0000  |
| Data Size    | 1 bytes |
| Instructions | 1       |

```
      00 01 02 03 04 05 06 07  08 09 0A 0B 0C 0D 0E 0F
      -- -- -- -- -- -- -- --  -- -- -- -- -- -- -- --
0000: 00                                                .               
```

#### Opcodes

```
  0: 0x0000 [0x00] END_REQSTACK()
```

### Event 276

#### Metadata

| Field        | Value     |
|--------------|-----------|
| Entrypoint   | 0x0001    |
| Data Size    | 141 bytes |
| Instructions | 32        |

```
      00 01 02 03 04 05 06 07  08 09 0A 0B 0C 0D 0E 0F
      -- -- -- -- -- -- -- --  -- -- -- -- -- -- -- --
0000:    42 03 02 10 00 80 1E  F0 FF FF 7F 6F 70 2C 53   B..........op,S
0010: D2 0F 01 53 D2 0F 01 74  6C 6B 30 1D 01 80 23 1D  ...S...tlk0...#.
0020: 02 80 23 1D 03 80 23 2C  53 D2 0F 01 53 D2 0F 01  ..#...#,S...S...
0030: 74 6C 6B 31 1D 04 80 23  24 05 80 06 80 06 80 25  tlk1...#$......%
0040: 02 00 10 06 80 00 5C 00  2C 53 D2 0F 01 53 D2 0F  ......\.,S...S..
0050: 01 6A 6F 62 30 1D 07 80  23 01 7B 00 02 00 10 08  .job0...#.{.....
0060: 80 00 7B 00 2C 53 D2 0F  01 53 D2 0F 01 67 61 6B  ..{.,S...S...gak
0070: 30 1D 09 80 23 01 38 00  01 7B 00 1D 0A 80 23 2C  0...#.8..{....#,
0080: 53 D2 0F 01 53 D2 0F 01  6A 6F 62 31 21 00        S...S...job1!.  
```

#### Opcodes

```
  0: 0x0001 [0x42] SET_CLI_EVENT_CANCEL_DATA()
  1: 0x0002 [0x03] Work_Zone[2] = 1718*
  2: 0x0007 [0x1E] EventEntity looks at LocalPlayer and starts talking
  3: 0x000C [0x6F] WAIT_FRAME_DELAY: Yield until WaitTime reaches zero
  4: 0x000D [0x70] WAIT_ENTITY_RENDER_FLAG: Wait while EventEntity->Render.Flags3 bit 2 is set (cancel turn if not)
  5: 0x000E [0x2C] CREATE_SCHEDULER_TASK: Create scheduler "tlk0" with entities [Moogle (ID: 17814099/0x010FD253), Moogle (ID: 17814099/0x010FD253)]
  6: 0x001B [0x1D] PRINT_EVENT_MESSAGE(message_id=7920*)
    → "<Sniff>... Why, a moogle without a Mog House is like a Mithra without a tail, kupo! A Galka without a perpetually furrowed brow! A pamama au lait without pamamas...or lait! (What is lait, anyway?)"
  7: 0x001E [0x23] WAIT_FOR_DIALOG_INTERACTION
  8: 0x001F [0x1D] PRINT_EVENT_MESSAGE(message_id=7921*)
    → "Surely you see my plight, Master!? Can I call you Master? Just for old times' sake?"
  9: 0x0022 [0x23] WAIT_FOR_DIALOG_INTERACTION
 10: 0x0023 [0x1D] PRINT_EVENT_MESSAGE(message_id=7922*)
    → "Oh, thank you, Master! Now that we're friends, perhaps you could heed my ever-so-humble request, kupo."
 11: 0x0026 [0x23] WAIT_FOR_DIALOG_INTERACTION
 12: 0x0027 [0x2C] CREATE_SCHEDULER_TASK: Create scheduler "tlk1" with entities [Moogle (ID: 17814099/0x010FD253), Moogle (ID: 17814099/0x010FD253)]
 13: 0x0034 [0x1D] PRINT_EVENT_MESSAGE(message_id=7923*)
    → "I have a mind to manufacture myself a makeshift Mog House of sorts, but I lack for a most vital material! 6, to be exact. Perhaps you could procure one for me, Master? Pretty, pretty please?"
 14: 0x0037 [0x23] WAIT_FOR_DIALOG_INTERACTION
 15: 0x0038 [0x24] CREATE_DIALOG(message_id=7924*, default_option=0*, option_flags=0*)
    → "Help the poor moogle? [Like I have a choice, kupo./Not today, kupo.]"
 16: 0x003F [0x25] WAIT_DIALOG_SELECT()
 17: 0x0040 [0x02] IF !(Work_Zone[0] == 0*) GOTO 0x005C
 18: 0x0048 [0x2C] CREATE_SCHEDULER_TASK: Create scheduler "job0" with entities [Moogle (ID: 17814099/0x010FD253), Moogle (ID: 17814099/0x010FD253)]
 19: 0x0055 [0x1D] PRINT_EVENT_MESSAGE(message_id=7925*)
    → "Oh, thank you, Master! What a beneficent and benevolent soul you are!"
 20: 0x0058 [0x23] WAIT_FOR_DIALOG_INTERACTION
 21: 0x0059 [0x01] GOTO 0x007B
 22: 0x005C [0x02] IF !(Work_Zone[0] == 1*) GOTO 0x007B
 23: 0x0064 [0x2C] CREATE_SCHEDULER_TASK: Create scheduler "gak0" with entities [Moogle (ID: 17814099/0x010FD253), Moogle (ID: 17814099/0x010FD253)]
 24: 0x0071 [0x1D] PRINT_EVENT_MESSAGE(message_id=7926*)
    → "Why, certainly, Master. You are clearly a very busy [man/woman]. Pay no heed to this pathetic, pitiful moogle. Bereft of home and purpose in life, what does it matter if I...<shiver>...f-freeze to death out here...alone...friendless, f-forsaken and...<sniff>...forgotten, kupo-o-o-o..."
 25: 0x0074 [0x23] WAIT_FOR_DIALOG_INTERACTION
 26: 0x0075 [0x01] GOTO 0x0038

SUBROUTINE_007B:
 27: 0x007B [0x1D] PRINT_EVENT_MESSAGE(message_id=7927*)
    → "I believe there should be some $5 in storage at one of the encampments. Steal one? What kind of a moogle miscreant do you take me for!? Why, it would just be a temporary loan, kupo!"
 28: 0x007E [0x23] WAIT_FOR_DIALOG_INTERACTION
 29: 0x007F [0x2C] CREATE_SCHEDULER_TASK: Create scheduler "job1" with entities [Moogle (ID: 17814099/0x010FD253), Moogle (ID: 17814099/0x010FD253)]
 30: 0x008C [0x21] END_EVENT
 31: 0x008D [0x00] END_REQSTACK()
```

#### Data or dead code:

```
# Dead code (unreachable instructions):
     0x0078 [0x01] GOTO 0x007B
```

### Event 277

#### Metadata

| Field        | Value    |
|--------------|----------|
| Entrypoint   | 0x008E   |
| Data Size    | 18 bytes |
| Instructions | 8        |

```
      00 01 02 03 04 05 06 07  08 09 0A 0B 0C 0D 0E 0F
      -- -- -- -- -- -- -- --  -- -- -- -- -- -- -- --
0080:                                            03 02                ..
0090: 10 00 80 1E F0 FF FF 7F  6F 70 1D 0A 80 23 21 00  ........op...#!.
```

#### Opcodes

```
  0: 0x008E [0x03] Work_Zone[2] = 1718*
  1: 0x0093 [0x1E] EventEntity looks at LocalPlayer and starts talking
  2: 0x0098 [0x6F] WAIT_FRAME_DELAY: Yield until WaitTime reaches zero
  3: 0x0099 [0x70] WAIT_ENTITY_RENDER_FLAG: Wait while EventEntity->Render.Flags3 bit 2 is set (cancel turn if not)
  4: 0x009A [0x1D] PRINT_EVENT_MESSAGE(message_id=7927*)
    → "I believe there should be some $5 in storage at one of the encampments. Steal one? What kind of a moogle miscreant do you take me for!? Why, it would just be a temporary loan, kupo!"
  5: 0x009D [0x23] WAIT_FOR_DIALOG_INTERACTION
  6: 0x009E [0x21] END_EVENT
  7: 0x009F [0x00] END_REQSTACK()
```

### Event 280

#### Metadata

| Field        | Value    |
|--------------|----------|
| Entrypoint   | 0x00A0   |
| Data Size    | 53 bytes |
| Instructions | 15       |

```
      00 01 02 03 04 05 06 07  08 09 0A 0B 0C 0D 0E 0F
      -- -- -- -- -- -- -- --  -- -- -- -- -- -- -- --
00A0: 03 02 10 0B 80 42 1E F0  FF FF 7F 6F 70 2C 53 D2  .....B.....op,S.
00B0: 0F 01 53 D2 0F 01 74 6C  6B 30 1D 0C 80 23 1D 0D  ..S...tlk0...#..
00C0: 80 23 2C 53 D2 0F 01 53  D2 0F 01 74 6C 6B 31 1D  .#,S...S...tlk1.
00D0: 0E 80 23 21 00                                    ..#!.           
```

#### Opcodes

```
  0: 0x00A0 [0x03] Work_Zone[2] = 1719*
  1: 0x00A5 [0x42] SET_CLI_EVENT_CANCEL_DATA()
  2: 0x00A6 [0x1E] EventEntity looks at LocalPlayer and starts talking
  3: 0x00AB [0x6F] WAIT_FRAME_DELAY: Yield until WaitTime reaches zero
  4: 0x00AC [0x70] WAIT_ENTITY_RENDER_FLAG: Wait while EventEntity->Render.Flags3 bit 2 is set (cancel turn if not)
  5: 0x00AD [0x2C] CREATE_SCHEDULER_TASK: Create scheduler "tlk0" with entities [Moogle (ID: 17814099/0x010FD253), Moogle (ID: 17814099/0x010FD253)]
  6: 0x00BA [0x1D] PRINT_EVENT_MESSAGE(message_id=7929*)
    → "Splendid! Why, you're every bit the adventurer that my former master was! My master, who was l-lost...<sniff>...in the attack on...<sob>..."
  7: 0x00BD [0x23] WAIT_FOR_DIALOG_INTERACTION
  8: 0x00BE [0x1D] PRINT_EVENT_MESSAGE(message_id=7930*)
    → "Ah, but forgive this maudlin moogle! I seem to have forgotten another most important material for my new Mog House. A $3! Yes, a $3, kupo!"
  9: 0x00C1 [0x23] WAIT_FOR_DIALOG_INTERACTION
 10: 0x00C2 [0x2C] CREATE_SCHEDULER_TASK: Create scheduler "tlk1" with entities [Moogle (ID: 17814099/0x010FD253), Moogle (ID: 17814099/0x010FD253)]
 11: 0x00CF [0x1D] PRINT_EVENT_MESSAGE(message_id=7931*)
    → "It's absolutely essential! Indispensible! You should be able to find a supply around one of the encampments, just like last time. Please! I'm counting on you, Master!"
 12: 0x00D2 [0x23] WAIT_FOR_DIALOG_INTERACTION
 13: 0x00D3 [0x21] END_EVENT
 14: 0x00D4 [0x00] END_REQSTACK()
```

### Event 281

#### Metadata

| Field        | Value    |
|--------------|----------|
| Entrypoint   | 0x00D5   |
| Data Size    | 48 bytes |
| Instructions | 12       |

```
      00 01 02 03 04 05 06 07  08 09 0A 0B 0C 0D 0E 0F
      -- -- -- -- -- -- -- --  -- -- -- -- -- -- -- --
00D0:                03 02 10  0B 80 1E F0 FF FF 7F 6F       ..........o
00E0: 70 2C 53 D2 0F 01 53 D2  0F 01 74 6C 6B 30 1D 0F  p,S...S...tlk0..
00F0: 80 23 1D 10 80 23 2C 53  D2 0F 01 53 D2 0F 01 74  .#...#,S...S...t
0100: 6C 6B 31 21 00                                    lk1!.           
```

#### Opcodes

```
  0: 0x00D5 [0x03] Work_Zone[2] = 1719*
  1: 0x00DA [0x1E] EventEntity looks at LocalPlayer and starts talking
  2: 0x00DF [0x6F] WAIT_FRAME_DELAY: Yield until WaitTime reaches zero
  3: 0x00E0 [0x70] WAIT_ENTITY_RENDER_FLAG: Wait while EventEntity->Render.Flags3 bit 2 is set (cancel turn if not)
  4: 0x00E1 [0x2C] CREATE_SCHEDULER_TASK: Create scheduler "tlk0" with entities [Moogle (ID: 17814099/0x010FD253), Moogle (ID: 17814099/0x010FD253)]
  5: 0x00EE [0x1D] PRINT_EVENT_MESSAGE(message_id=7932*)
    → "That $3 is essential! Indispensible, kupo! You should be able to find a supply of it around one of the encampments, just like before."
  6: 0x00F1 [0x23] WAIT_FOR_DIALOG_INTERACTION
  7: 0x00F2 [0x1D] PRINT_EVENT_MESSAGE(message_id=7933*)
    → "Please! I'm counting on you, Master!"
  8: 0x00F5 [0x23] WAIT_FOR_DIALOG_INTERACTION
  9: 0x00F6 [0x2C] CREATE_SCHEDULER_TASK: Create scheduler "tlk1" with entities [Moogle (ID: 17814099/0x010FD253), Moogle (ID: 17814099/0x010FD253)]
 10: 0x0103 [0x21] END_EVENT
 11: 0x0104 [0x00] END_REQSTACK()
```

### Event 284

#### Metadata

| Field        | Value    |
|--------------|----------|
| Entrypoint   | 0x0105   |
| Data Size    | 53 bytes |
| Instructions | 15       |

```
      00 01 02 03 04 05 06 07  08 09 0A 0B 0C 0D 0E 0F
      -- -- -- -- -- -- -- --  -- -- -- -- -- -- -- --
0100:                42 03 02  10 11 80 1E F0 FF FF 7F       B..........
0110: 6F 70 2C 53 D2 0F 01 53  D2 0F 01 74 6C 6B 30 1D  op,S...S...tlk0.
0120: 0C 80 23 1D 12 80 23 1D  13 80 23 2C 53 D2 0F 01  ..#...#...#,S...
0130: 53 D2 0F 01 74 6C 6B 31  21 00                    S...tlk1!.      
```

#### Opcodes

```
  0: 0x0105 [0x42] SET_CLI_EVENT_CANCEL_DATA()
  1: 0x0106 [0x03] Work_Zone[2] = 1720*
  2: 0x010B [0x1E] EventEntity looks at LocalPlayer and starts talking
  3: 0x0110 [0x6F] WAIT_FRAME_DELAY: Yield until WaitTime reaches zero
  4: 0x0111 [0x70] WAIT_ENTITY_RENDER_FLAG: Wait while EventEntity->Render.Flags3 bit 2 is set (cancel turn if not)
  5: 0x0112 [0x2C] CREATE_SCHEDULER_TASK: Create scheduler "tlk0" with entities [Moogle (ID: 17814099/0x010FD253), Moogle (ID: 17814099/0x010FD253)]
  6: 0x011F [0x1D] PRINT_EVENT_MESSAGE(message_id=7929*)
    → "Splendid! Why, you're every bit the adventurer that my former master was! My master, who was l-lost...<sniff>...in the attack on...<sob>..."
  7: 0x0122 [0x23] WAIT_FOR_DIALOG_INTERACTION
  8: 0x0123 [0x1D] PRINT_EVENT_MESSAGE(message_id=7934*)
    → "Oh, there I go again. Now, all I'll be needing is $6 and my new Mog House will be good to go, kupo. Yes, $6. Didn't I mention that before?"
  9: 0x0126 [0x23] WAIT_FOR_DIALOG_INTERACTION
 10: 0x0127 [0x1D] PRINT_EVENT_MESSAGE(message_id=7935*)
    → "Where can you find one, kupo? I fear that's beyond the knowledge of this humble, homeless moogle. But I trust in you implicitly! Go forth and you shall find your fortune, Master!"
 11: 0x012A [0x23] WAIT_FOR_DIALOG_INTERACTION
 12: 0x012B [0x2C] CREATE_SCHEDULER_TASK: Create scheduler "tlk1" with entities [Moogle (ID: 17814099/0x010FD253), Moogle (ID: 17814099/0x010FD253)]
 13: 0x0138 [0x21] END_EVENT
 14: 0x0139 [0x00] END_REQSTACK()
```

### Event 285

#### Metadata

| Field        | Value    |
|--------------|----------|
| Entrypoint   | 0x013A   |
| Data Size    | 26 bytes |
| Instructions | 12       |

```
      00 01 02 03 04 05 06 07  08 09 0A 0B 0C 0D 0E 0F
      -- -- -- -- -- -- -- --  -- -- -- -- -- -- -- --
0130:                                03 02 10 11 80 1E            ......
0140: F0 FF FF 7F 6F 70 1D 14  80 23 1D 15 80 23 1D 13  ....op...#...#..
0150: 80 23 21 00                                       .#!.            
```

#### Opcodes

```
  0: 0x013A [0x03] Work_Zone[2] = 1720*
  1: 0x013F [0x1E] EventEntity looks at LocalPlayer and starts talking
  2: 0x0144 [0x6F] WAIT_FRAME_DELAY: Yield until WaitTime reaches zero
  3: 0x0145 [0x70] WAIT_ENTITY_RENDER_FLAG: Wait while EventEntity->Render.Flags3 bit 2 is set (cancel turn if not)
  4: 0x0146 [0x1D] PRINT_EVENT_MESSAGE(message_id=7936*)
    → "All I'll be needing is $6 and my new Mog House will be good to go. Yes, of course this is the last of it, kupo! Would I ever mislead you, master?"
  5: 0x0149 [0x23] WAIT_FOR_DIALOG_INTERACTION
  6: 0x014A [0x1D] PRINT_EVENT_MESSAGE(message_id=7937*)
    → "I fear you won't be finding a supply around camp this time. but this shouldn't present a problem to an able adventurer like yourself, kupo!"
  7: 0x014D [0x23] WAIT_FOR_DIALOG_INTERACTION
  8: 0x014E [0x1D] PRINT_EVENT_MESSAGE(message_id=7935*)
    → "Where can you find one, kupo? I fear that's beyond the knowledge of this humble, homeless moogle. But I trust in you implicitly! Go forth and you shall find your fortune, Master!"
  9: 0x0151 [0x23] WAIT_FOR_DIALOG_INTERACTION
 10: 0x0152 [0x21] END_EVENT
 11: 0x0153 [0x00] END_REQSTACK()
```

### Event 286

#### Metadata

| Field        | Value    |
|--------------|----------|
| Entrypoint   | 0x0154   |
| Data Size    | 74 bytes |
| Instructions | 18       |

```
      00 01 02 03 04 05 06 07  08 09 0A 0B 0C 0D 0E 0F
      -- -- -- -- -- -- -- --  -- -- -- -- -- -- -- --
0150:             42 03 02 10  11 80 1E F0 FF FF 7F 6F      B..........o
0160: 70 1D 16 80 23 1D 17 80  23 2C 53 D2 0F 01 53 D2  p...#...#,S...S.
0170: 0F 01 6A 6F 62 30 1D 18  80 23 1D 19 80 23 2C 53  ..job0...#...#,S
0180: D2 0F 01 53 D2 0F 01 6A  6F 62 31 45 1A 80 F0 FF  ...S...job1E....
0190: FF 7F F0 FF FF 7F 71 73  74 63 06 80 21 00        ......qstc..!.  
```

#### Opcodes

```
  0: 0x0154 [0x42] SET_CLI_EVENT_CANCEL_DATA()
  1: 0x0155 [0x03] Work_Zone[2] = 1720*
  2: 0x015A [0x1E] EventEntity looks at LocalPlayer and starts talking
  3: 0x015F [0x6F] WAIT_FRAME_DELAY: Yield until WaitTime reaches zero
  4: 0x0160 [0x70] WAIT_ENTITY_RENDER_FLAG: Wait while EventEntity->Render.Flags3 bit 2 is set (cancel turn if not)
  5: 0x0161 [0x1D] PRINT_EVENT_MESSAGE(message_id=7938*)
    → "Do my snow-blinded eyes deceive me, or is this truly a $3 you've brought to me? Why, wherever did you find this?"
  6: 0x0164 [0x23] WAIT_FOR_DIALOG_INTERACTION
  7: 0x0165 [0x1D] PRINT_EVENT_MESSAGE(message_id=7939*)
    → "Why, I had assumed that I had merely sent you out on a wild goobbue cha-- Ahem, kupo!"
  8: 0x0168 [0x23] WAIT_FOR_DIALOG_INTERACTION
  9: 0x0169 [0x2C] CREATE_SCHEDULER_TASK: Create scheduler "job0" with entities [Moogle (ID: 17814099/0x010FD253), Moogle (ID: 17814099/0x010FD253)]
 10: 0x0176 [0x1D] PRINT_EVENT_MESSAGE(message_id=7940*)
    → "I now have everything I need to manufacture a magnificent new Mog House for my new master--that would be you, of course! Now where did I put my hammer, kupo...?"
 11: 0x0179 [0x23] WAIT_FOR_DIALOG_INTERACTION
 12: 0x017A [0x1D] PRINT_EVENT_MESSAGE(message_id=7941*)
    → "On second thought, this might take some time. In the meantime, you can have this, kupo!"
 13: 0x017D [0x23] WAIT_FOR_DIALOG_INTERACTION
 14: 0x017E [0x2C] CREATE_SCHEDULER_TASK: Create scheduler "job1" with entities [Moogle (ID: 17814099/0x010FD253), Moogle (ID: 17814099/0x010FD253)]
 15: 0x018B [0x45] LOAD_SCHEDULED_TASK: Load scheduler "qstc" with entities [LocalPlayer, LocalPlayer], work=[201*, 0*]
 16: 0x019C [0x21] END_EVENT
 17: 0x019D [0x00] END_REQSTACK()
```

### Event 287

#### Metadata

| Field        | Value    |
|--------------|----------|
| Entrypoint   | 0x019E   |
| Data Size    | 13 bytes |
| Instructions | 7        |

```
      00 01 02 03 04 05 06 07  08 09 0A 0B 0C 0D 0E 0F
      -- -- -- -- -- -- -- --  -- -- -- -- -- -- -- --
0190:                                            1E F0                ..
01A0: FF FF 7F 6F 70 1D 18 80  23 21 00                 ...op...#!.     
```

#### Opcodes

```
  0: 0x019E [0x1E] EventEntity looks at LocalPlayer and starts talking
  1: 0x01A3 [0x6F] WAIT_FRAME_DELAY: Yield until WaitTime reaches zero
  2: 0x01A4 [0x70] WAIT_ENTITY_RENDER_FLAG: Wait while EventEntity->Render.Flags3 bit 2 is set (cancel turn if not)
  3: 0x01A5 [0x1D] PRINT_EVENT_MESSAGE(message_id=7940*)
    → "I now have everything I need to manufacture a magnificent new Mog House for my new master--that would be you, of course! Now where did I put my hammer, kupo...?"
  4: 0x01A8 [0x23] WAIT_FOR_DIALOG_INTERACTION
  5: 0x01A9 [0x21] END_EVENT
  6: 0x01AA [0x00] END_REQSTACK()
```

### Event 366

#### Metadata

| Field        | Value    |
|--------------|----------|
| Entrypoint   | 0x01AB   |
| Data Size    | 13 bytes |
| Instructions | 7        |

```
      00 01 02 03 04 05 06 07  08 09 0A 0B 0C 0D 0E 0F
      -- -- -- -- -- -- -- --  -- -- -- -- -- -- -- --
01A0:                                   1E F0 FF FF 7F             .....
01B0: 6F 70 1D 01 80 23 21 00                           op...#!.        
```

#### Opcodes

```
  0: 0x01AB [0x1E] EventEntity looks at LocalPlayer and starts talking
  1: 0x01B0 [0x6F] WAIT_FRAME_DELAY: Yield until WaitTime reaches zero
  2: 0x01B1 [0x70] WAIT_ENTITY_RENDER_FLAG: Wait while EventEntity->Render.Flags3 bit 2 is set (cancel turn if not)
  3: 0x01B2 [0x1D] PRINT_EVENT_MESSAGE(message_id=7920*)
    → "<Sniff>... Why, a moogle without a Mog House is like a Mithra without a tail, kupo! A Galka without a perpetually furrowed brow! A pamama au lait without pamamas...or lait! (What is lait, anyway?)"
  4: 0x01B5 [0x23] WAIT_FOR_DIALOG_INTERACTION
  5: 0x01B6 [0x21] END_EVENT
  6: 0x01B7 [0x00] END_REQSTACK()
```
