# 17814115 - Cannau

## Common Data

| Field            | Value                          |
|------------------|--------------------------------|
| Zone             | Abyssea - Uleguerand (ID: 253) |
| Block Size       | 240 bytes                      |
| Total Events     | 7                              |
| References Count | 9                              |

## List of Events

| Event ID              | Entrypoint   |   Size |   Instructions |
|-----------------------|--------------|--------|----------------|
| [65535](#event-65535) | 0x0000       |      1 |              1 |
| [322](#event-322)     | 0x0001       |     13 |              7 |
| [323](#event-323)     | 0x000E       |     52 |             16 |
| [324](#event-324)     | 0x0042       |     18 |              8 |
| [325](#event-325)     | 0x0054       |     26 |             10 |
| [327](#event-327)     | 0x006E       |     25 |              9 |
| [328](#event-328)     | 0x0087       |     25 |              9 |

## DAT References (imed_data)

|   Index | Hex Value   |   Dec Value |
|---------|-------------|-------------|
|       0 | 0x1F61      |        8033 |
|       1 | 0x1140      |        4416 |
|       2 | 0x003C      |          60 |
|       3 | 0x0020      |          32 |
|       4 | 0x1F62      |        8034 |
|       5 | 0x0007      |           7 |
|       6 | 0x1F63      |        8035 |
|       7 | 0x0016      |          22 |
|       8 | 0x1F64      |        8036 |

## String References

- **8033**: Is something the matter?
- **8034**: Because something is certainly the matter with me...my legs are positively freezing! You wouldn't happen to have $0 on your person, would you?
- **8035**: Splendid! Warms the legs and the heart, I do say. Which reminds me, I should be getting back in touch with Rondipur, shouldn't I?
- **8036**: Rondipur gave me a good chewing-out. The gall of that man! If he wanted me to be more industrious in my duties, he should have outfitted me with more than a pair of shabby subligar. Do you not agree!?

## Events

### Event 65535

#### Metadata

| Field        | Value   |
|--------------|---------|
| Entrypoint   | 0x0000  |
| Data Size    | 1 bytes |
| Instructions | 1       |

```
      00 01 02 03 04 05 06 07  08 09 0A 0B 0C 0D 0E 0F
      -- -- -- -- -- -- -- --  -- -- -- -- -- -- -- --
0000: 00                                                .               
```

#### Opcodes

```
  0: 0x0000 [0x00] END_REQSTACK()
```

### Event 322

#### Metadata

| Field        | Value    |
|--------------|----------|
| Entrypoint   | 0x0001   |
| Data Size    | 13 bytes |
| Instructions | 7        |

```
      00 01 02 03 04 05 06 07  08 09 0A 0B 0C 0D 0E 0F
      -- -- -- -- -- -- -- --  -- -- -- -- -- -- -- --
0000:    1E F0 FF FF 7F 6F 70  1D 00 80 23 21 00         .....op...#!.  
```

#### Opcodes

```
  0: 0x0001 [0x1E] EventEntity looks at LocalPlayer and starts talking
  1: 0x0006 [0x6F] WAIT_FRAME_DELAY: Yield until WaitTime reaches zero
  2: 0x0007 [0x70] WAIT_ENTITY_RENDER_FLAG: Wait while EventEntity->Render.Flags3 bit 2 is set (cancel turn if not)
  3: 0x0008 [0x1D] PRINT_EVENT_MESSAGE(message_id=8033*)
    → "Is something the matter?"
  4: 0x000B [0x23] WAIT_FOR_DIALOG_INTERACTION
  5: 0x000C [0x21] END_EVENT
  6: 0x000D [0x00] END_REQSTACK()
```

### Event 323

#### Metadata

| Field        | Value    |
|--------------|----------|
| Entrypoint   | 0x000E   |
| Data Size    | 52 bytes |
| Instructions | 16       |

```
      00 01 02 03 04 05 06 07  08 09 0A 0B 0C 0D 0E 0F
      -- -- -- -- -- -- -- --  -- -- -- -- -- -- -- --
0000:                                            42 1E                B.
0010: F0 FF FF 7F 6F 70 03 02  10 01 80 1D 00 80 23 27  ....op........#'
0020: 10 F0 FF FF 7F 04 1C 02  80 27 10 F0 FF FF 7F 05  .........'......
0030: 6E 63 D2 0F 01 03 80 99  63 D2 0F 01 1D 04 80 23  nc......c......#
0040: 21 00                                             !.              
```

#### Opcodes

```
  0: 0x000E [0x42] SET_CLI_EVENT_CANCEL_DATA()
  1: 0x000F [0x1E] EventEntity looks at LocalPlayer and starts talking
  2: 0x0014 [0x6F] WAIT_FRAME_DELAY: Yield until WaitTime reaches zero
  3: 0x0015 [0x70] WAIT_ENTITY_RENDER_FLAG: Wait while EventEntity->Render.Flags3 bit 2 is set (cancel turn if not)
  4: 0x0016 [0x03] Work_Zone[2] = 4416*
  5: 0x001B [0x1D] PRINT_EVENT_MESSAGE(message_id=8033*)
    → "Is something the matter?"
  6: 0x001E [0x23] WAIT_FOR_DIALOG_INTERACTION
  7: 0x001F [0x27] REQ_SET(priority=0x10, entity_id=LocalPlayer, tag_num=0x04)
  8: 0x0026 [0x1C] WAIT(60* ticks)
  9: 0x0029 [0x27] REQ_SET(priority=0x10, entity_id=LocalPlayer, tag_num=0x05)
 10: 0x0030 [0x6E] Cannau (ID: 17814115/0x010FD263) uses emote 32*
 11: 0x0037 [0x99] Wait for Cannau (ID: 17814115/0x010FD263) animation to complete
 12: 0x003C [0x1D] PRINT_EVENT_MESSAGE(message_id=8034*)
    → "Because something is certainly the matter with me...my legs are positively freezing! You wouldn't happen to have $0 on your person, would you?"
 13: 0x003F [0x23] WAIT_FOR_DIALOG_INTERACTION
 14: 0x0040 [0x21] END_EVENT
 15: 0x0041 [0x00] END_REQSTACK()
```

### Event 324

#### Metadata

| Field        | Value    |
|--------------|----------|
| Entrypoint   | 0x0042   |
| Data Size    | 18 bytes |
| Instructions | 8        |

```
      00 01 02 03 04 05 06 07  08 09 0A 0B 0C 0D 0E 0F
      -- -- -- -- -- -- -- --  -- -- -- -- -- -- -- --
0040:       03 02 10 01 80 1E  F0 FF FF 7F 6F 70 1D 04    ..........op..
0050: 80 23 21 00                                       .#!.            
```

#### Opcodes

```
  0: 0x0042 [0x03] Work_Zone[2] = 4416*
  1: 0x0047 [0x1E] EventEntity looks at LocalPlayer and starts talking
  2: 0x004C [0x6F] WAIT_FRAME_DELAY: Yield until WaitTime reaches zero
  3: 0x004D [0x70] WAIT_ENTITY_RENDER_FLAG: Wait while EventEntity->Render.Flags3 bit 2 is set (cancel turn if not)
  4: 0x004E [0x1D] PRINT_EVENT_MESSAGE(message_id=8034*)
    → "Because something is certainly the matter with me...my legs are positively freezing! You wouldn't happen to have $0 on your person, would you?"
  5: 0x0051 [0x23] WAIT_FOR_DIALOG_INTERACTION
  6: 0x0052 [0x21] END_EVENT
  7: 0x0053 [0x00] END_REQSTACK()
```

### Event 325

#### Metadata

| Field        | Value    |
|--------------|----------|
| Entrypoint   | 0x0054   |
| Data Size    | 26 bytes |
| Instructions | 10       |

```
      00 01 02 03 04 05 06 07  08 09 0A 0B 0C 0D 0E 0F
      -- -- -- -- -- -- -- --  -- -- -- -- -- -- -- --
0050:             42 1E F0 FF  FF 7F 6F 70 6E 63 D2 0F      B.....opnc..
0060: 01 05 80 99 63 D2 0F 01  1D 06 80 23 21 00        ....c......#!.  
```

#### Opcodes

```
  0: 0x0054 [0x42] SET_CLI_EVENT_CANCEL_DATA()
  1: 0x0055 [0x1E] EventEntity looks at LocalPlayer and starts talking
  2: 0x005A [0x6F] WAIT_FRAME_DELAY: Yield until WaitTime reaches zero
  3: 0x005B [0x70] WAIT_ENTITY_RENDER_FLAG: Wait while EventEntity->Render.Flags3 bit 2 is set (cancel turn if not)
  4: 0x005C [0x6E] Cannau (ID: 17814115/0x010FD263) uses emote 7*
  5: 0x0063 [0x99] Wait for Cannau (ID: 17814115/0x010FD263) animation to complete
  6: 0x0068 [0x1D] PRINT_EVENT_MESSAGE(message_id=8035*)
    → "Splendid! Warms the legs and the heart, I do say. Which reminds me, I should be getting back in touch with Rondipur, shouldn't I?"
  7: 0x006B [0x23] WAIT_FOR_DIALOG_INTERACTION
  8: 0x006C [0x21] END_EVENT
  9: 0x006D [0x00] END_REQSTACK()
```

### Event 327

#### Metadata

| Field        | Value    |
|--------------|----------|
| Entrypoint   | 0x006E   |
| Data Size    | 25 bytes |
| Instructions | 9        |

```
      00 01 02 03 04 05 06 07  08 09 0A 0B 0C 0D 0E 0F
      -- -- -- -- -- -- -- --  -- -- -- -- -- -- -- --
0060:                                            1E F0                ..
0070: FF FF 7F 6F 70 6E 63 D2  0F 01 05 80 99 63 D2 0F  ...opnc......c..
0080: 01 1D 06 80 23 21 00                              ....#!.         
```

#### Opcodes

```
  0: 0x006E [0x1E] EventEntity looks at LocalPlayer and starts talking
  1: 0x0073 [0x6F] WAIT_FRAME_DELAY: Yield until WaitTime reaches zero
  2: 0x0074 [0x70] WAIT_ENTITY_RENDER_FLAG: Wait while EventEntity->Render.Flags3 bit 2 is set (cancel turn if not)
  3: 0x0075 [0x6E] Cannau (ID: 17814115/0x010FD263) uses emote 7*
  4: 0x007C [0x99] Wait for Cannau (ID: 17814115/0x010FD263) animation to complete
  5: 0x0081 [0x1D] PRINT_EVENT_MESSAGE(message_id=8035*)
    → "Splendid! Warms the legs and the heart, I do say. Which reminds me, I should be getting back in touch with Rondipur, shouldn't I?"
  6: 0x0084 [0x23] WAIT_FOR_DIALOG_INTERACTION
  7: 0x0085 [0x21] END_EVENT
  8: 0x0086 [0x00] END_REQSTACK()
```

### Event 328

#### Metadata

| Field        | Value    |
|--------------|----------|
| Entrypoint   | 0x0087   |
| Data Size    | 25 bytes |
| Instructions | 9        |

```
      00 01 02 03 04 05 06 07  08 09 0A 0B 0C 0D 0E 0F
      -- -- -- -- -- -- -- --  -- -- -- -- -- -- -- --
0080:                      1E  F0 FF FF 7F 6F 70 6E 63         .....opnc
0090: D2 0F 01 07 80 99 63 D2  0F 01 1D 08 80 23 21 00  ......c......#!.
```

#### Opcodes

```
  0: 0x0087 [0x1E] EventEntity looks at LocalPlayer and starts talking
  1: 0x008C [0x6F] WAIT_FRAME_DELAY: Yield until WaitTime reaches zero
  2: 0x008D [0x70] WAIT_ENTITY_RENDER_FLAG: Wait while EventEntity->Render.Flags3 bit 2 is set (cancel turn if not)
  3: 0x008E [0x6E] Cannau (ID: 17814115/0x010FD263) uses emote 22*
  4: 0x0095 [0x99] Wait for Cannau (ID: 17814115/0x010FD263) animation to complete
  5: 0x009A [0x1D] PRINT_EVENT_MESSAGE(message_id=8036*)
    → "Rondipur gave me a good chewing-out. The gall of that man! If he wanted me to be more industrious in my duties, he should have outfitted me with more than a pair of shabby subligar. Do you not agree!?"
  6: 0x009D [0x23] WAIT_FOR_DIALOG_INTERACTION
  7: 0x009E [0x21] END_EVENT
  8: 0x009F [0x00] END_REQSTACK()
```
