# 17814117 - Olavia

## Common Data

| Field            | Value                          |
|------------------|--------------------------------|
| Zone             | Abyssea - Uleguerand (ID: 253) |
| Block Size       | 272 bytes                      |
| Total Events     | 7                              |
| References Count | 8                              |

## List of Events

| Event ID              | Entrypoint   |   Size |   Instructions |
|-----------------------|--------------|--------|----------------|
| [65535](#event-65535) | 0x0000       |      1 |              1 |
| [336](#event-336)     | 0x0001       |     13 |              7 |
| [337](#event-337)     | 0x000E       |     65 |             15 |
| [338](#event-338)     | 0x004F       |     43 |              9 |
| [339](#event-339)     | 0x007A       |     18 |             10 |
| [340](#event-340)     | 0x008C       |     29 |             11 |
| [342](#event-342)     | 0x00A9       |     25 |              9 |

## DAT References (imed_data)

|   Index | Hex Value   |   Dec Value |
|---------|-------------|-------------|
|       0 | 0x1F6C      |        8044 |
|       1 | 0x003C      |          60 |
|       2 | 0x0013      |          19 |
|       3 | 0x1F6D      |        8045 |
|       4 | 0x1F6F      |        8047 |
|       5 | 0x1F70      |        8048 |
|       6 | 0x0020      |          32 |
|       7 | 0x1F71      |        8049 |

## String References

- **8044**: Yes? Did you want something from me?
- **8045**: Curse my luck! I spotted the mammoth tiger-beast my superiors had briefed me on, but lost sight of him in a blizzard. We have reason to believe he vanished off to the north. Would you be so kind as to investigate for me?
- **8047**: Brrr...! A grisly sight. That's the work of the tiger-beast, no doubt. One can only hope that he's eaten his fill, and won't be coming back to feast on us for the nonce.
- **8048**: Speaking of hairy, cantankerous brutes, I should be reporting these findings back to Captain Rondipur, shouldn't I? Well, friend, be safe in your journeys!
- **8049**: Well, go figure. The old grouch actually praised me for my keen eye and dedicated efforts. I suppose it's easy to look competent compared to those other two slackers.

## Events

### Event 65535

#### Metadata

| Field        | Value   |
|--------------|---------|
| Entrypoint   | 0x0000  |
| Data Size    | 1 bytes |
| Instructions | 1       |

```
      00 01 02 03 04 05 06 07  08 09 0A 0B 0C 0D 0E 0F
      -- -- -- -- -- -- -- --  -- -- -- -- -- -- -- --
0000: 00                                                .               
```

#### Opcodes

```
  0: 0x0000 [0x00] END_REQSTACK()
```

### Event 336

#### Metadata

| Field        | Value    |
|--------------|----------|
| Entrypoint   | 0x0001   |
| Data Size    | 13 bytes |
| Instructions | 7        |

```
      00 01 02 03 04 05 06 07  08 09 0A 0B 0C 0D 0E 0F
      -- -- -- -- -- -- -- --  -- -- -- -- -- -- -- --
0000:    1E F0 FF FF 7F 6F 70  1D 00 80 23 21 00         .....op...#!.  
```

#### Opcodes

```
  0: 0x0001 [0x1E] EventEntity looks at LocalPlayer and starts talking
  1: 0x0006 [0x6F] WAIT_FRAME_DELAY: Yield until WaitTime reaches zero
  2: 0x0007 [0x70] WAIT_ENTITY_RENDER_FLAG: Wait while EventEntity->Render.Flags3 bit 2 is set (cancel turn if not)
  3: 0x0008 [0x1D] PRINT_EVENT_MESSAGE(message_id=8044*)
    → "Yes? Did you want something from me?"
  4: 0x000B [0x23] WAIT_FOR_DIALOG_INTERACTION
  5: 0x000C [0x21] END_EVENT
  6: 0x000D [0x00] END_REQSTACK()
```

### Event 337

#### Metadata

| Field        | Value    |
|--------------|----------|
| Entrypoint   | 0x000E   |
| Data Size    | 65 bytes |
| Instructions | 15       |

```
      00 01 02 03 04 05 06 07  08 09 0A 0B 0C 0D 0E 0F
      -- -- -- -- -- -- -- --  -- -- -- -- -- -- -- --
0000:                                            42 1E                B.
0010: F0 FF FF 7F 6F 70 1D 00  80 23 27 10 F0 FF FF 7F  ....op...#'.....
0020: 04 1C 01 80 27 10 F0 FF  FF 7F 05 66 02 80 65 D2  ....'......f..e.
0030: 0F 01 65 D2 0F 01 74 6C  6B 30 1D 03 80 23 66 02  ..e...tlk0...#f.
0040: 80 65 D2 0F 01 65 D2 0F  01 74 6C 6B 31 21 00     .e...e...tlk1!. 
```

#### Opcodes

```
  0: 0x000E [0x42] SET_CLI_EVENT_CANCEL_DATA()
  1: 0x000F [0x1E] EventEntity looks at LocalPlayer and starts talking
  2: 0x0014 [0x6F] WAIT_FRAME_DELAY: Yield until WaitTime reaches zero
  3: 0x0015 [0x70] WAIT_ENTITY_RENDER_FLAG: Wait while EventEntity->Render.Flags3 bit 2 is set (cancel turn if not)
  4: 0x0016 [0x1D] PRINT_EVENT_MESSAGE(message_id=8044*)
    → "Yes? Did you want something from me?"
  5: 0x0019 [0x23] WAIT_FOR_DIALOG_INTERACTION
  6: 0x001A [0x27] REQ_SET(priority=0x10, entity_id=LocalPlayer, tag_num=0x04)
  7: 0x0021 [0x1C] WAIT(60* ticks)
  8: 0x0024 [0x27] REQ_SET(priority=0x10, entity_id=LocalPlayer, tag_num=0x05)
  9: 0x002B [0x66] LOAD_EXT_SCHEDULER_MAIN: Load scheduler "tlk0" with entities [Olavia (ID: 17814117/0x010FD265), Olavia (ID: 17814117/0x010FD265)], work=19*
 10: 0x003A [0x1D] PRINT_EVENT_MESSAGE(message_id=8045*)
    → "Curse my luck! I spotted the mammoth tiger-beast my superiors had briefed me on, but lost sight of him in a blizzard. We have reason to believe he vanished off to the north. Would you be so kind as to investigate for me?"
 11: 0x003D [0x23] WAIT_FOR_DIALOG_INTERACTION
 12: 0x003E [0x66] LOAD_EXT_SCHEDULER_MAIN: Load scheduler "tlk1" with entities [Olavia (ID: 17814117/0x010FD265), Olavia (ID: 17814117/0x010FD265)], work=19*
 13: 0x004D [0x21] END_EVENT
 14: 0x004E [0x00] END_REQSTACK()
```

### Event 338

#### Metadata

| Field        | Value    |
|--------------|----------|
| Entrypoint   | 0x004F   |
| Data Size    | 43 bytes |
| Instructions | 9        |

```
      00 01 02 03 04 05 06 07  08 09 0A 0B 0C 0D 0E 0F
      -- -- -- -- -- -- -- --  -- -- -- -- -- -- -- --
0040:                                               1E                 .
0050: F0 FF FF 7F 6F 70 66 02  80 65 D2 0F 01 65 D2 0F  ....opf..e...e..
0060: 01 74 6C 6B 30 1D 03 80  23 66 02 80 65 D2 0F 01  .tlk0...#f..e...
0070: 65 D2 0F 01 74 6C 6B 31  21 00                    e...tlk1!.      
```

#### Opcodes

```
  0: 0x004F [0x1E] EventEntity looks at LocalPlayer and starts talking
  1: 0x0054 [0x6F] WAIT_FRAME_DELAY: Yield until WaitTime reaches zero
  2: 0x0055 [0x70] WAIT_ENTITY_RENDER_FLAG: Wait while EventEntity->Render.Flags3 bit 2 is set (cancel turn if not)
  3: 0x0056 [0x66] LOAD_EXT_SCHEDULER_MAIN: Load scheduler "tlk0" with entities [Olavia (ID: 17814117/0x010FD265), Olavia (ID: 17814117/0x010FD265)], work=19*
  4: 0x0065 [0x1D] PRINT_EVENT_MESSAGE(message_id=8045*)
    → "Curse my luck! I spotted the mammoth tiger-beast my superiors had briefed me on, but lost sight of him in a blizzard. We have reason to believe he vanished off to the north. Would you be so kind as to investigate for me?"
  5: 0x0068 [0x23] WAIT_FOR_DIALOG_INTERACTION
  6: 0x0069 [0x66] LOAD_EXT_SCHEDULER_MAIN: Load scheduler "tlk1" with entities [Olavia (ID: 17814117/0x010FD265), Olavia (ID: 17814117/0x010FD265)], work=19*
  7: 0x0078 [0x21] END_EVENT
  8: 0x0079 [0x00] END_REQSTACK()
```

### Event 339

#### Metadata

| Field        | Value    |
|--------------|----------|
| Entrypoint   | 0x007A   |
| Data Size    | 18 bytes |
| Instructions | 10       |

```
      00 01 02 03 04 05 06 07  08 09 0A 0B 0C 0D 0E 0F
      -- -- -- -- -- -- -- --  -- -- -- -- -- -- -- --
0070:                                42 1E F0 FF FF 7F            B.....
0080: 6F 70 1D 04 80 23 1D 05  80 23 21 00              op...#...#!.    
```

#### Opcodes

```
  0: 0x007A [0x42] SET_CLI_EVENT_CANCEL_DATA()
  1: 0x007B [0x1E] EventEntity looks at LocalPlayer and starts talking
  2: 0x0080 [0x6F] WAIT_FRAME_DELAY: Yield until WaitTime reaches zero
  3: 0x0081 [0x70] WAIT_ENTITY_RENDER_FLAG: Wait while EventEntity->Render.Flags3 bit 2 is set (cancel turn if not)
  4: 0x0082 [0x1D] PRINT_EVENT_MESSAGE(message_id=8047*)
    → "Brrr...! A grisly sight. That's the work of the tiger-beast, no doubt. One can only hope that he's eaten his fill, and won't be coming back to feast on us for the nonce."
  5: 0x0085 [0x23] WAIT_FOR_DIALOG_INTERACTION
  6: 0x0086 [0x1D] PRINT_EVENT_MESSAGE(message_id=8048*)
    → "Speaking of hairy, cantankerous brutes, I should be reporting these findings back to Captain Rondipur, shouldn't I? Well, friend, be safe in your journeys!"
  7: 0x0089 [0x23] WAIT_FOR_DIALOG_INTERACTION
  8: 0x008A [0x21] END_EVENT
  9: 0x008B [0x00] END_REQSTACK()
```

### Event 340

#### Metadata

| Field        | Value    |
|--------------|----------|
| Entrypoint   | 0x008C   |
| Data Size    | 29 bytes |
| Instructions | 11       |

```
      00 01 02 03 04 05 06 07  08 09 0A 0B 0C 0D 0E 0F
      -- -- -- -- -- -- -- --  -- -- -- -- -- -- -- --
0080:                                      1E F0 FF FF              ....
0090: 7F 6F 70 6E 65 D2 0F 01  06 80 99 65 D2 0F 01 1D  .opne......e....
00A0: 04 80 23 1D 05 80 23 21  00                       ..#...#!.       
```

#### Opcodes

```
  0: 0x008C [0x1E] EventEntity looks at LocalPlayer and starts talking
  1: 0x0091 [0x6F] WAIT_FRAME_DELAY: Yield until WaitTime reaches zero
  2: 0x0092 [0x70] WAIT_ENTITY_RENDER_FLAG: Wait while EventEntity->Render.Flags3 bit 2 is set (cancel turn if not)
  3: 0x0093 [0x6E] Olavia (ID: 17814117/0x010FD265) uses emote 32*
  4: 0x009A [0x99] Wait for Olavia (ID: 17814117/0x010FD265) animation to complete
  5: 0x009F [0x1D] PRINT_EVENT_MESSAGE(message_id=8047*)
    → "Brrr...! A grisly sight. That's the work of the tiger-beast, no doubt. One can only hope that he's eaten his fill, and won't be coming back to feast on us for the nonce."
  6: 0x00A2 [0x23] WAIT_FOR_DIALOG_INTERACTION
  7: 0x00A3 [0x1D] PRINT_EVENT_MESSAGE(message_id=8048*)
    → "Speaking of hairy, cantankerous brutes, I should be reporting these findings back to Captain Rondipur, shouldn't I? Well, friend, be safe in your journeys!"
  8: 0x00A6 [0x23] WAIT_FOR_DIALOG_INTERACTION
  9: 0x00A7 [0x21] END_EVENT
 10: 0x00A8 [0x00] END_REQSTACK()
```

### Event 342

#### Metadata

| Field        | Value    |
|--------------|----------|
| Entrypoint   | 0x00A9   |
| Data Size    | 25 bytes |
| Instructions | 9        |

```
      00 01 02 03 04 05 06 07  08 09 0A 0B 0C 0D 0E 0F
      -- -- -- -- -- -- -- --  -- -- -- -- -- -- -- --
00A0:                             1E F0 FF FF 7F 6F 70           .....op
00B0: 6E 65 D2 0F 01 06 80 99  65 D2 0F 01 1D 07 80 23  ne......e......#
00C0: 21 00                                             !.              
```

#### Opcodes

```
  0: 0x00A9 [0x1E] EventEntity looks at LocalPlayer and starts talking
  1: 0x00AE [0x6F] WAIT_FRAME_DELAY: Yield until WaitTime reaches zero
  2: 0x00AF [0x70] WAIT_ENTITY_RENDER_FLAG: Wait while EventEntity->Render.Flags3 bit 2 is set (cancel turn if not)
  3: 0x00B0 [0x6E] Olavia (ID: 17814117/0x010FD265) uses emote 32*
  4: 0x00B7 [0x99] Wait for Olavia (ID: 17814117/0x010FD265) animation to complete
  5: 0x00BC [0x1D] PRINT_EVENT_MESSAGE(message_id=8049*)
    → "Well, go figure. The old grouch actually praised me for my keen eye and dedicated efforts. I suppose it's easy to look competent compared to those other two slackers."
  6: 0x00BF [0x23] WAIT_FOR_DIALOG_INTERACTION
  7: 0x00C0 [0x21] END_EVENT
  8: 0x00C1 [0x00] END_REQSTACK()
```
