# 17814130 - Chamama

## Common Data

| Field            | Value                          |
|------------------|--------------------------------|
| Zone             | Abyssea - Uleguerand (ID: 253) |
| Block Size       | 76 bytes                       |
| Total Events     | 2                              |
| References Count | 2                              |

## List of Events

| Event ID              | Entrypoint   |   Size |   Instructions |
|-----------------------|--------------|--------|----------------|
| [65535](#event-65535) | 0x0000       |      1 |              1 |
| [359](#event-359)     | 0x0001       |     43 |              9 |

## DAT References (imed_data)

|   Index | Hex Value   |   Dec Value |
|---------|-------------|-------------|
|       0 | 0x0031      |          49 |
|       1 | 0x1FA0      |        8096 |

## String References

- **8096**: You see Romaa over there? She came racing-wacing all the way from Kazham the momentaru she heard the Federation was in danger. She's been through a lot, but she's been nothing but a true friend to us.

## Events

### Event 65535

#### Metadata

| Field        | Value   |
|--------------|---------|
| Entrypoint   | 0x0000  |
| Data Size    | 1 bytes |
| Instructions | 1       |

```
      00 01 02 03 04 05 06 07  08 09 0A 0B 0C 0D 0E 0F
      -- -- -- -- -- -- -- --  -- -- -- -- -- -- -- --
0000: 00                                                .               
```

#### Opcodes

```
  0: 0x0000 [0x00] END_REQSTACK()
```

### Event 359

#### Metadata

| Field        | Value    |
|--------------|----------|
| Entrypoint   | 0x0001   |
| Data Size    | 43 bytes |
| Instructions | 9        |

```
      00 01 02 03 04 05 06 07  08 09 0A 0B 0C 0D 0E 0F
      -- -- -- -- -- -- -- --  -- -- -- -- -- -- -- --
0000:    1E F0 FF FF 7F 6F 70  66 00 80 72 D2 0F 01 72   .....opf..r...r
0010: D2 0F 01 74 6C 6B 30 1D  01 80 23 66 00 80 72 D2  ...tlk0...#f..r.
0020: 0F 01 72 D2 0F 01 74 6C  6B 31 21 00              ..r...tlk1!.    
```

#### Opcodes

```
  0: 0x0001 [0x1E] EventEntity looks at LocalPlayer and starts talking
  1: 0x0006 [0x6F] WAIT_FRAME_DELAY: Yield until WaitTime reaches zero
  2: 0x0007 [0x70] WAIT_ENTITY_RENDER_FLAG: Wait while EventEntity->Render.Flags3 bit 2 is set (cancel turn if not)
  3: 0x0008 [0x66] LOAD_EXT_SCHEDULER_MAIN: Load scheduler "tlk0" with entities [Chamama (ID: 17814130/0x010FD272), Chamama (ID: 17814130/0x010FD272)], work=49*
  4: 0x0017 [0x1D] PRINT_EVENT_MESSAGE(message_id=8096*)
    → "You see Romaa over there? She came racing-wacing all the way from Kazham the momentaru she heard the Federation was in danger. She's been through a lot, but she's been nothing but a true friend to us."
  5: 0x001A [0x23] WAIT_FOR_DIALOG_INTERACTION
  6: 0x001B [0x66] LOAD_EXT_SCHEDULER_MAIN: Load scheduler "tlk1" with entities [Chamama (ID: 17814130/0x010FD272), Chamama (ID: 17814130/0x010FD272)], work=49*
  7: 0x002A [0x21] END_EVENT
  8: 0x002B [0x00] END_REQSTACK()
```
