# 17814088 - Zauko

## Common Data

| Field            | Value                          |
|------------------|--------------------------------|
| Zone             | Abyssea - Uleguerand (ID: 253) |
| Block Size       | 584 bytes                      |
| Total Events     | 6                              |
| References Count | 26                             |

## List of Events

| Event ID              | Entrypoint   |   Size |   Instructions |
|-----------------------|--------------|--------|----------------|
| [65535](#event-65535) | 0x0000       |      1 |              1 |
| [250](#event-250)     | 0x0001       |    223 |             56 |
| [251](#event-251)     | 0x00E0       |     56 |             14 |
| [263](#event-263)     | 0x0118       |     52 |             14 |
| [264](#event-264)     | 0x014C       |     18 |              8 |
| [265](#event-265)     | 0x015E       |     88 |             28 |

## DAT References (imed_data)

|   Index | Hex Value   |   Dec Value |
|---------|-------------|-------------|
|       0 | 0x06B4      |        1716 |
|       1 | 0x0001      |           1 |
|       2 | 0x1EB4      |        7860 |
|       3 | 0x0045      |          69 |
|       4 | 0x1EB5      |        7861 |
|       5 | 0x003C      |          60 |
|       6 | 0x0020      |          32 |
|       7 | 0x1EB6      |        7862 |
|       8 | 0x1EB7      |        7863 |
|       9 | 0x1EB8      |        7864 |
|      10 | 0x1EB9      |        7865 |
|      11 | 0x1EBA      |        7866 |
|      12 | 0x1EBB      |        7867 |
|      13 | 0x1EBC      |        7868 |
|      14 | 0x0000      |           0 |
|      15 | 0x0007      |           7 |
|      16 | 0x1EBD      |        7869 |
|      17 | 0x1EBE      |        7870 |
|      18 | 0x0002      |           2 |
|      19 | 0x1EBF      |        7871 |
|      20 | 0x1EC0      |        7872 |
|      21 | 0x1EC1      |        7873 |
|      22 | 0x1ECE      |        7886 |
|      23 | 0x1ECF      |        7887 |
|      24 | 0x00C9      |         201 |
|      25 | 0x1ED0      |        7888 |

## String References

- **7860**: In a world where the sun no longer rises, we have only the Torch to guide us through this dark, unending night. For as long as I stand here, Her flame shall ne'er gutter...
- **7861**: ...Yes? Who are you that disturbs my duties?
- **7862**: <Player>? I cannot say that I am familiar with your name. Then again, my devoted service to the Torch demands my full attention.
- **7863**: You may call me Zauko, First High Priest of the Order of the Undying Flame. It is my life's calling to maintain the Torch and see that Her light shines upon us for as long as we abide in this realm.
- **7864**: My duties involve rising each day at the break of dawn--or what would be dawn, if we still had a sun in the sky--performing twenty obeisances at the turn of every hour, and watching over Her every waking moment to ensure that She still burns strong. Ah, and yes, making a periodic offering of this $3 should ever Her flame waver or sputter.
- **7865**: You, friend, seem like a [man/woman] of piety. Perhaps you would be willing to perform a service for our order.
- **7866**: This flame that I keep vigil over, you see, is not the only manifestation of Her glory. My fellow acolytes at two other chapters of our Order have informed me that their supplies of $3 are running perilously low.
- **7867**: Would you be willing to make these two deliveries for me, that Her Radiance might shine bright upon on all the land?
- **7868**: Take up the task? [I shall./I shall not.]
- **7869**: Wonderful! Your devotion shall not go unnoticed by Her Radiance. The $3 may be found in the casket beside me. Take it, and may She light your way...
- **7870**: Blasphemy! Would you see our realm engulfed by the Shadow!? Ah...but forgive me. Pray return should you have a change of heart.
- **7871**: Ah, and remember these words from the Tome of Light. "Thou shalt avail thyself not of the confluxe, that heinous tool of Shadow, lest the source of Her power be fore'er quenched by unholy magicks." Consider it a part of the training that we must all endure in Her name.
- **7872**: Upon reaching each destination, you should see a casket similar to the one beside me. Deposit a portion of $3 within each, and your work shall be done. I shall notify my fellow acolytes of your impending arrival.
- **7873**: The $3 may be found in the casket beside me. Take it, and may She light your way...
- **7886**: We hail your safe return, [Brother/Sister]! My acolytes have sent word of your success. Know that your devoted service to Her Radiance shall not go unrewarded!
- **7887**: The divine Light of the Torch illuminates our cold realm anew, bringing us vision and warmth. But the Shadow is ever encroaching--pray lend us your aid again when the need should arise!
- **7888**: The Torch sputters and falters before our eyes, [Brother/Sister] <Player>. Pray lend us your aid, lest Her divine light be snuffed out for all eternity...

## Events

### Event 65535

#### Metadata

| Field        | Value   |
|--------------|---------|
| Entrypoint   | 0x0000  |
| Data Size    | 1 bytes |
| Instructions | 1       |

```
      00 01 02 03 04 05 06 07  08 09 0A 0B 0C 0D 0E 0F
      -- -- -- -- -- -- -- --  -- -- -- -- -- -- -- --
0000: 00                                                .               
```

#### Opcodes

```
  0: 0x0000 [0x00] END_REQSTACK()
```

### Event 250

#### Metadata

| Field        | Value     |
|--------------|-----------|
| Entrypoint   | 0x0001    |
| Data Size    | 223 bytes |
| Instructions | 55        |

```
      00 01 02 03 04 05 06 07  08 09 0A 0B 0C 0D 0E 0F
      -- -- -- -- -- -- -- --  -- -- -- -- -- -- -- --
0000:    42 03 02 10 00 80 02  04 10 01 80 00 68 00 1D   B...........h..
0010: 02 80 23 1E F0 FF FF 7F  6F 70 66 03 80 48 D2 0F  ..#.....opf..H..
0020: 01 48 D2 0F 01 74 6C 6B  30 1D 04 80 23 66 03 80  .H...tlk0...#f..
0030: 48 D2 0F 01 48 D2 0F 01  74 6C 6B 31 27 10 F0 FF  H...H...tlk1'...
0040: FF 7F 04 1C 05 80 27 10  F0 FF FF 7F 05 6E 48 D2  ......'......nH.
0050: 0F 01 06 80 99 48 D2 0F  01 1D 07 80 23 1D 08 80  .....H......#...
0060: 23 1D 09 80 23 01 6F 00  1E F0 FF FF 7F 6F 70 66  #...#.o......opf
0070: 03 80 48 D2 0F 01 48 D2  0F 01 74 6C 6B 30 1D 0A  ..H...H...tlk0..
0080: 80 23 1D 0B 80 23 1D 0C  80 23 66 03 80 48 D2 0F  .#...#...#f..H..
0090: 01 48 D2 0F 01 74 6C 6B  31 24 0D 80 0E 80 0E 80  .H...tlk1$......
00A0: 25 02 00 10 0E 80 00 C1  00 6E 48 D2 0F 01 0F 80  %........nH.....
00B0: 99 48 D2 0F 01 1D 10 80  23 03 01 10 01 80 01 D6  .H......#.......
00C0: 00 02 00 10 01 80 00 D6  00 1D 11 80 23 03 01 10  ............#...
00D0: 12 80 21 01 D6 00 1D 13  80 23 1D 14 80 23 21 00  ..!......#...#!.
```

#### Opcodes

```
  0: 0x0001 [0x42] SET_CLI_EVENT_CANCEL_DATA()
  1: 0x0002 [0x03] Work_Zone[2] = 1716*
  2: 0x0007 [0x02] IF !(Work_Zone[4] == 1*) GOTO 0x0068
  3: 0x000F [0x1D] PRINT_EVENT_MESSAGE(message_id=7860*)
    → "In a world where the sun no longer rises, we have only the Torch to guide us through this dark, unending night. For as long as I stand here, Her flame shall ne'er gutter..."
  4: 0x0012 [0x23] WAIT_FOR_DIALOG_INTERACTION
  5: 0x0013 [0x1E] EventEntity looks at LocalPlayer and starts talking
  6: 0x0018 [0x6F] WAIT_FRAME_DELAY: Yield until WaitTime reaches zero
  7: 0x0019 [0x70] WAIT_ENTITY_RENDER_FLAG: Wait while EventEntity->Render.Flags3 bit 2 is set (cancel turn if not)
  8: 0x001A [0x66] LOAD_EXT_SCHEDULER_MAIN: Load scheduler "tlk0" with entities [Zauko (ID: 17814088/0x010FD248), Zauko (ID: 17814088/0x010FD248)], work=69*
  9: 0x0029 [0x1D] PRINT_EVENT_MESSAGE(message_id=7861*)
    → "...Yes? Who are you that disturbs my duties?"
 10: 0x002C [0x23] WAIT_FOR_DIALOG_INTERACTION
 11: 0x002D [0x66] LOAD_EXT_SCHEDULER_MAIN: Load scheduler "tlk1" with entities [Zauko (ID: 17814088/0x010FD248), Zauko (ID: 17814088/0x010FD248)], work=69*
 12: 0x003C [0x27] REQ_SET(priority=0x10, entity_id=LocalPlayer, tag_num=0x04)
 13: 0x0043 [0x1C] WAIT(60* ticks)
 14: 0x0046 [0x27] REQ_SET(priority=0x10, entity_id=LocalPlayer, tag_num=0x05)
 15: 0x004D [0x6E] Zauko (ID: 17814088/0x010FD248) uses emote 32*
 16: 0x0054 [0x99] Wait for Zauko (ID: 17814088/0x010FD248) animation to complete
 17: 0x0059 [0x1D] PRINT_EVENT_MESSAGE(message_id=7862*)
    → "<Player>? I cannot say that I am familiar with your name. Then again, my devoted service to the Torch demands my full attention."
 18: 0x005C [0x23] WAIT_FOR_DIALOG_INTERACTION
 19: 0x005D [0x1D] PRINT_EVENT_MESSAGE(message_id=7863*)
    → "You may call me Zauko, First High Priest of the Order of the Undying Flame. It is my life's calling to maintain the Torch and see that Her light shines upon us for as long as we abide in this realm."
 20: 0x0060 [0x23] WAIT_FOR_DIALOG_INTERACTION
 21: 0x0061 [0x1D] PRINT_EVENT_MESSAGE(message_id=7864*)
    → "My duties involve rising each day at the break of dawn--or what would be dawn, if we still had a sun in the sky--performing twenty obeisances at the turn of every hour, and watching over Her every waking moment to ensure that She still burns strong. Ah, and yes, making a periodic offering of this $3 should ever Her flame waver or sputter."
 22: 0x0064 [0x23] WAIT_FOR_DIALOG_INTERACTION
 23: 0x0065 [0x01] GOTO 0x006F
 24: 0x0068 [0x1E] EventEntity looks at LocalPlayer and starts talking
 25: 0x006D [0x6F] WAIT_FRAME_DELAY: Yield until WaitTime reaches zero
 26: 0x006E [0x70] WAIT_ENTITY_RENDER_FLAG: Wait while EventEntity->Render.Flags3 bit 2 is set (cancel turn if not)

SUBROUTINE_006F:
 27: 0x006F [0x66] LOAD_EXT_SCHEDULER_MAIN: Load scheduler "tlk0" with entities [Zauko (ID: 17814088/0x010FD248), Zauko (ID: 17814088/0x010FD248)], work=69*
 28: 0x007E [0x1D] PRINT_EVENT_MESSAGE(message_id=7865*)
    → "You, friend, seem like a [man/woman] of piety. Perhaps you would be willing to perform a service for our order."
 29: 0x0081 [0x23] WAIT_FOR_DIALOG_INTERACTION
 30: 0x0082 [0x1D] PRINT_EVENT_MESSAGE(message_id=7866*)
    → "This flame that I keep vigil over, you see, is not the only manifestation of Her glory. My fellow acolytes at two other chapters of our Order have informed me that their supplies of $3 are running perilously low."
 31: 0x0085 [0x23] WAIT_FOR_DIALOG_INTERACTION
 32: 0x0086 [0x1D] PRINT_EVENT_MESSAGE(message_id=7867*)
    → "Would you be willing to make these two deliveries for me, that Her Radiance might shine bright upon on all the land?"
 33: 0x0089 [0x23] WAIT_FOR_DIALOG_INTERACTION
 34: 0x008A [0x66] LOAD_EXT_SCHEDULER_MAIN: Load scheduler "tlk1" with entities [Zauko (ID: 17814088/0x010FD248), Zauko (ID: 17814088/0x010FD248)], work=69*
 35: 0x0099 [0x24] CREATE_DIALOG(message_id=7868*, default_option=0*, option_flags=0*)
    → "Take up the task? [I shall./I shall not.]"
 36: 0x00A0 [0x25] WAIT_DIALOG_SELECT()
 37: 0x00A1 [0x02] IF !(Work_Zone[0] == 0*) GOTO 0x00C1
 38: 0x00A9 [0x6E] Zauko (ID: 17814088/0x010FD248) uses emote 7*
 39: 0x00B0 [0x99] Wait for Zauko (ID: 17814088/0x010FD248) animation to complete
 40: 0x00B5 [0x1D] PRINT_EVENT_MESSAGE(message_id=7869*)
    → "Wonderful! Your devotion shall not go unnoticed by Her Radiance. The $3 may be found in the casket beside me. Take it, and may She light your way..."
 41: 0x00B8 [0x23] WAIT_FOR_DIALOG_INTERACTION
 42: 0x00B9 [0x03] Work_Zone[1] = 1*
 43: 0x00BE [0x01] GOTO 0x00D6
 44: 0x00C1 [0x02] IF !(Work_Zone[0] == 1*) GOTO 0x00D6
 45: 0x00C9 [0x1D] PRINT_EVENT_MESSAGE(message_id=7870*)
    → "Blasphemy! Would you see our realm engulfed by the Shadow!? Ah...but forgive me. Pray return should you have a change of heart."
 46: 0x00CC [0x23] WAIT_FOR_DIALOG_INTERACTION
 47: 0x00CD [0x03] Work_Zone[1] = 2*
 48: 0x00D2 [0x21] END_EVENT

SUBROUTINE_00D6:
 49: 0x00D6 [0x1D] PRINT_EVENT_MESSAGE(message_id=7871*)
    → "Ah, and remember these words from the Tome of Light. "Thou shalt avail thyself not of the confluxe, that heinous tool of Shadow, lest the source of Her power be fore'er quenched by unholy magicks." Consider it a part of the training that we must all endure in Her name."
 50: 0x00D9 [0x23] WAIT_FOR_DIALOG_INTERACTION
 51: 0x00DA [0x1D] PRINT_EVENT_MESSAGE(message_id=7872*)
    → "Upon reaching each destination, you should see a casket similar to the one beside me. Deposit a portion of $3 within each, and your work shall be done. I shall notify my fellow acolytes of your impending arrival."
 52: 0x00DD [0x23] WAIT_FOR_DIALOG_INTERACTION
 53: 0x00DE [0x21] END_EVENT
 54: 0x00DF [0x00] END_REQSTACK()
```

#### Data or dead code:

```
# Dead code (unreachable instructions):
     0x00D3 [0x01] GOTO 0x00D6
```

### Event 251

#### Metadata

| Field        | Value    |
|--------------|----------|
| Entrypoint   | 0x00E0   |
| Data Size    | 56 bytes |
| Instructions | 14       |

```
      00 01 02 03 04 05 06 07  08 09 0A 0B 0C 0D 0E 0F
      -- -- -- -- -- -- -- --  -- -- -- -- -- -- -- --
00E0: 03 02 10 00 80 1E F0 FF  FF 7F 6F 70 66 03 80 48  ..........opf..H
00F0: D2 0F 01 48 D2 0F 01 74  6C 6B 30 1D 15 80 23 1D  ...H...tlk0...#.
0100: 13 80 23 66 03 80 48 D2  0F 01 48 D2 0F 01 74 6C  ..#f..H...H...tl
0110: 6B 31 1D 14 80 23 21 00                           k1...#!.        
```

#### Opcodes

```
  0: 0x00E0 [0x03] Work_Zone[2] = 1716*
  1: 0x00E5 [0x1E] EventEntity looks at LocalPlayer and starts talking
  2: 0x00EA [0x6F] WAIT_FRAME_DELAY: Yield until WaitTime reaches zero
  3: 0x00EB [0x70] WAIT_ENTITY_RENDER_FLAG: Wait while EventEntity->Render.Flags3 bit 2 is set (cancel turn if not)
  4: 0x00EC [0x66] LOAD_EXT_SCHEDULER_MAIN: Load scheduler "tlk0" with entities [Zauko (ID: 17814088/0x010FD248), Zauko (ID: 17814088/0x010FD248)], work=69*
  5: 0x00FB [0x1D] PRINT_EVENT_MESSAGE(message_id=7873*)
    → "The $3 may be found in the casket beside me. Take it, and may She light your way..."
  6: 0x00FE [0x23] WAIT_FOR_DIALOG_INTERACTION
  7: 0x00FF [0x1D] PRINT_EVENT_MESSAGE(message_id=7871*)
    → "Ah, and remember these words from the Tome of Light. "Thou shalt avail thyself not of the confluxe, that heinous tool of Shadow, lest the source of Her power be fore'er quenched by unholy magicks." Consider it a part of the training that we must all endure in Her name."
  8: 0x0102 [0x23] WAIT_FOR_DIALOG_INTERACTION
  9: 0x0103 [0x66] LOAD_EXT_SCHEDULER_MAIN: Load scheduler "tlk1" with entities [Zauko (ID: 17814088/0x010FD248), Zauko (ID: 17814088/0x010FD248)], work=69*
 10: 0x0112 [0x1D] PRINT_EVENT_MESSAGE(message_id=7872*)
    → "Upon reaching each destination, you should see a casket similar to the one beside me. Deposit a portion of $3 within each, and your work shall be done. I shall notify my fellow acolytes of your impending arrival."
 11: 0x0115 [0x23] WAIT_FOR_DIALOG_INTERACTION
 12: 0x0116 [0x21] END_EVENT
 13: 0x0117 [0x00] END_REQSTACK()
```

### Event 263

#### Metadata

| Field        | Value    |
|--------------|----------|
| Entrypoint   | 0x0118   |
| Data Size    | 52 bytes |
| Instructions | 14       |

```
      00 01 02 03 04 05 06 07  08 09 0A 0B 0C 0D 0E 0F
      -- -- -- -- -- -- -- --  -- -- -- -- -- -- -- --
0110:                          42 03 02 10 00 80 1E F0          B.......
0120: FF FF 7F 6F 70 6E 48 D2  0F 01 0F 80 99 48 D2 0F  ...opnH......H..
0130: 01 1D 16 80 23 1D 17 80  23 45 18 80 F0 FF FF 7F  ....#...#E......
0140: F0 FF FF 7F 71 73 74 63  0E 80 21 00              ....qstc..!.    
```

#### Opcodes

```
  0: 0x0118 [0x42] SET_CLI_EVENT_CANCEL_DATA()
  1: 0x0119 [0x03] Work_Zone[2] = 1716*
  2: 0x011E [0x1E] EventEntity looks at LocalPlayer and starts talking
  3: 0x0123 [0x6F] WAIT_FRAME_DELAY: Yield until WaitTime reaches zero
  4: 0x0124 [0x70] WAIT_ENTITY_RENDER_FLAG: Wait while EventEntity->Render.Flags3 bit 2 is set (cancel turn if not)
  5: 0x0125 [0x6E] Zauko (ID: 17814088/0x010FD248) uses emote 7*
  6: 0x012C [0x99] Wait for Zauko (ID: 17814088/0x010FD248) animation to complete
  7: 0x0131 [0x1D] PRINT_EVENT_MESSAGE(message_id=7886*)
    → "We hail your safe return, [Brother/Sister]! My acolytes have sent word of your success. Know that your devoted service to Her Radiance shall not go unrewarded!"
  8: 0x0134 [0x23] WAIT_FOR_DIALOG_INTERACTION
  9: 0x0135 [0x1D] PRINT_EVENT_MESSAGE(message_id=7887*)
    → "The divine Light of the Torch illuminates our cold realm anew, bringing us vision and warmth. But the Shadow is ever encroaching--pray lend us your aid again when the need should arise!"
 10: 0x0138 [0x23] WAIT_FOR_DIALOG_INTERACTION
 11: 0x0139 [0x45] LOAD_SCHEDULED_TASK: Load scheduler "qstc" with entities [LocalPlayer, LocalPlayer], work=[201*, 0*]
 12: 0x014A [0x21] END_EVENT
 13: 0x014B [0x00] END_REQSTACK()
```

### Event 264

#### Metadata

| Field        | Value    |
|--------------|----------|
| Entrypoint   | 0x014C   |
| Data Size    | 18 bytes |
| Instructions | 8        |

```
      00 01 02 03 04 05 06 07  08 09 0A 0B 0C 0D 0E 0F
      -- -- -- -- -- -- -- --  -- -- -- -- -- -- -- --
0140:                                      03 02 10 00              ....
0150: 80 1E F0 FF FF 7F 6F 70  1D 17 80 23 21 00        ......op...#!.  
```

#### Opcodes

```
  0: 0x014C [0x03] Work_Zone[2] = 1716*
  1: 0x0151 [0x1E] EventEntity looks at LocalPlayer and starts talking
  2: 0x0156 [0x6F] WAIT_FRAME_DELAY: Yield until WaitTime reaches zero
  3: 0x0157 [0x70] WAIT_ENTITY_RENDER_FLAG: Wait while EventEntity->Render.Flags3 bit 2 is set (cancel turn if not)
  4: 0x0158 [0x1D] PRINT_EVENT_MESSAGE(message_id=7887*)
    → "The divine Light of the Torch illuminates our cold realm anew, bringing us vision and warmth. But the Shadow is ever encroaching--pray lend us your aid again when the need should arise!"
  5: 0x015B [0x23] WAIT_FOR_DIALOG_INTERACTION
  6: 0x015C [0x21] END_EVENT
  7: 0x015D [0x00] END_REQSTACK()
```

### Event 265

#### Metadata

| Field        | Value    |
|--------------|----------|
| Entrypoint   | 0x015E   |
| Data Size    | 88 bytes |
| Instructions | 27       |

```
      00 01 02 03 04 05 06 07  08 09 0A 0B 0C 0D 0E 0F
      -- -- -- -- -- -- -- --  -- -- -- -- -- -- -- --
0150:                                            03 02                ..
0160: 10 00 80 42 1E F0 FF FF  7F 6F 70 1D 19 80 23 24  ...B.....op...#$
0170: 0D 80 0E 80 0E 80 25 02  00 10 0E 80 00 97 01 6E  ......%........n
0180: 48 D2 0F 01 0F 80 99 48  D2 0F 01 1D 10 80 23 03  H......H......#.
0190: 01 10 01 80 01 AC 01 02  00 10 01 80 00 AC 01 1D  ................
01A0: 11 80 23 03 01 10 12 80  21 01 AC 01 1D 13 80 23  ..#.....!......#
01B0: 1D 14 80 23 21 00                                 ...#!.          
```

#### Opcodes

```
  0: 0x015E [0x03] Work_Zone[2] = 1716*
  1: 0x0163 [0x42] SET_CLI_EVENT_CANCEL_DATA()
  2: 0x0164 [0x1E] EventEntity looks at LocalPlayer and starts talking
  3: 0x0169 [0x6F] WAIT_FRAME_DELAY: Yield until WaitTime reaches zero
  4: 0x016A [0x70] WAIT_ENTITY_RENDER_FLAG: Wait while EventEntity->Render.Flags3 bit 2 is set (cancel turn if not)
  5: 0x016B [0x1D] PRINT_EVENT_MESSAGE(message_id=7888*)
    → "The Torch sputters and falters before our eyes, [Brother/Sister] <Player>. Pray lend us your aid, lest Her divine light be snuffed out for all eternity..."
  6: 0x016E [0x23] WAIT_FOR_DIALOG_INTERACTION
  7: 0x016F [0x24] CREATE_DIALOG(message_id=7868*, default_option=0*, option_flags=0*)
    → "Take up the task? [I shall./I shall not.]"
  8: 0x0176 [0x25] WAIT_DIALOG_SELECT()
  9: 0x0177 [0x02] IF !(Work_Zone[0] == 0*) GOTO 0x0197
 10: 0x017F [0x6E] Zauko (ID: 17814088/0x010FD248) uses emote 7*
 11: 0x0186 [0x99] Wait for Zauko (ID: 17814088/0x010FD248) animation to complete
 12: 0x018B [0x1D] PRINT_EVENT_MESSAGE(message_id=7869*)
    → "Wonderful! Your devotion shall not go unnoticed by Her Radiance. The $3 may be found in the casket beside me. Take it, and may She light your way..."
 13: 0x018E [0x23] WAIT_FOR_DIALOG_INTERACTION
 14: 0x018F [0x03] Work_Zone[1] = 1*
 15: 0x0194 [0x01] GOTO 0x01AC
 16: 0x0197 [0x02] IF !(Work_Zone[0] == 1*) GOTO 0x01AC
 17: 0x019F [0x1D] PRINT_EVENT_MESSAGE(message_id=7870*)
    → "Blasphemy! Would you see our realm engulfed by the Shadow!? Ah...but forgive me. Pray return should you have a change of heart."
 18: 0x01A2 [0x23] WAIT_FOR_DIALOG_INTERACTION
 19: 0x01A3 [0x03] Work_Zone[1] = 2*
 20: 0x01A8 [0x21] END_EVENT

SUBROUTINE_01AC:
 21: 0x01AC [0x1D] PRINT_EVENT_MESSAGE(message_id=7871*)
    → "Ah, and remember these words from the Tome of Light. "Thou shalt avail thyself not of the confluxe, that heinous tool of Shadow, lest the source of Her power be fore'er quenched by unholy magicks." Consider it a part of the training that we must all endure in Her name."
 22: 0x01AF [0x23] WAIT_FOR_DIALOG_INTERACTION
 23: 0x01B0 [0x1D] PRINT_EVENT_MESSAGE(message_id=7872*)
    → "Upon reaching each destination, you should see a casket similar to the one beside me. Deposit a portion of $3 within each, and your work shall be done. I shall notify my fellow acolytes of your impending arrival."
 24: 0x01B3 [0x23] WAIT_FOR_DIALOG_INTERACTION
 25: 0x01B4 [0x21] END_EVENT
 26: 0x01B5 [0x00] END_REQSTACK()
```

#### Data or dead code:

```
# Dead code (unreachable instructions):
     0x01A9 [0x01] GOTO 0x01AC
```
