# 17814103 - Purere

## Common Data

| Field            | Value                          |
|------------------|--------------------------------|
| Zone             | Abyssea - Uleguerand (ID: 253) |
| Block Size       | 72 bytes                       |
| Total Events     | 2                              |
| References Count | 3                              |

## List of Events

| Event ID              | Entrypoint   |   Size |   Instructions |
|-----------------------|--------------|--------|----------------|
| [65535](#event-65535) | 0x0000       |      1 |              1 |
| [291](#event-291)     | 0x0001       |     34 |             11 |

## DAT References (imed_data)

|   Index | Hex Value   |   Dec Value |
|---------|-------------|-------------|
|       0 | 0x0001      |           1 |
|       1 | 0x0013      |          19 |
|       2 | 0x1F0F      |        7951 |

## String References

- **7951**: The horrors I saw that day have been burned into my memory. The Great Star Tree engulfed in flames...its verdant branches cracking and plummeting to the earth as women and children shrieked and fled in terror... Would that it were only a bad dream, but no...it was all too real.

## Events

### Event 65535

#### Metadata

| Field        | Value   |
|--------------|---------|
| Entrypoint   | 0x0000  |
| Data Size    | 1 bytes |
| Instructions | 1       |

```
      00 01 02 03 04 05 06 07  08 09 0A 0B 0C 0D 0E 0F
      -- -- -- -- -- -- -- --  -- -- -- -- -- -- -- --
0000: 00                                                .               
```

#### Opcodes

```
  0: 0x0000 [0x00] END_REQSTACK()
```

### Event 291

#### Metadata

| Field        | Value    |
|--------------|----------|
| Entrypoint   | 0x0001   |
| Data Size    | 34 bytes |
| Instructions | 11       |

```
      00 01 02 03 04 05 06 07  08 09 0A 0B 0C 0D 0E 0F
      -- -- -- -- -- -- -- --  -- -- -- -- -- -- -- --
0000:    02 02 10 00 80 00 0A  00 42 1E F0 FF FF 7F 6F   ........B.....o
0010: 70 6E 57 D2 0F 01 01 80  99 57 D2 0F 01 1D 02 80  pnW......W......
0020: 23 21 00                                          #!.             
```

#### Opcodes

```
  0: 0x0001 [0x02] IF !(Work_Zone[2] == 1*) GOTO 0x000A
  1: 0x0009 [0x42] SET_CLI_EVENT_CANCEL_DATA()
  2: 0x000A [0x1E] EventEntity looks at LocalPlayer and starts talking
  3: 0x000F [0x6F] WAIT_FRAME_DELAY: Yield until WaitTime reaches zero
  4: 0x0010 [0x70] WAIT_ENTITY_RENDER_FLAG: Wait while EventEntity->Render.Flags3 bit 2 is set (cancel turn if not)
  5: 0x0011 [0x6E] Purere (ID: 17814103/0x010FD257) uses emote 19*
  6: 0x0018 [0x99] Wait for Purere (ID: 17814103/0x010FD257) animation to complete
  7: 0x001D [0x1D] PRINT_EVENT_MESSAGE(message_id=7951*)
    → "The horrors I saw that day have been burned into my memory. The Great Star Tree engulfed in flames...its verdant branches cracking and plummeting to the earth as women and children shrieked and fled in terror... Would that it were only a bad dream, but no...it was all too real."
  8: 0x0020 [0x23] WAIT_FOR_DIALOG_INTERACTION
  9: 0x0021 [0x21] END_EVENT
 10: 0x0022 [0x00] END_REQSTACK()
```
