# 17363393

## Common Data

| Field            | Value                      |
|------------------|----------------------------|
| Zone             | Palborough Mines (ID: 143) |
| Block Size       | 15256 bytes                |
| Total Events     | 5                          |
| References Count | 251                        |

## List of Events

| Event ID              | Entrypoint   |   Size |   Instructions |
|-----------------------|--------------|--------|----------------|
| [65535](#event-65535) | 0x0000       |    658 |             62 |
| [129](#event-129)     | 0x0292       |   3451 |            440 |
| [130](#event-130)     | 0x100D       |   2097 |            288 |
| [131](#event-131)     | 0x183E       |   4645 |            593 |
| [132](#event-132)     | 0x2A63       |   3362 |            419 |

## DAT References (imed_data)

|   Index | Hex Value   |   Dec Value |
|---------|-------------|-------------|
|       0 | 0x00C8      |         200 |
|       1 | 0x0000      |           0 |
|       2 | 0x00C9      |         201 |
|       3 | 0x0001      |           1 |
|       4 | 0x002D      |          45 |
|       5 | 0x0002      |           2 |
|       6 | 0x001E      |          30 |
|       7 | 0x00D7      |         215 |
|       8 | 0x012C      |         300 |
|       9 | 0x0093      |         147 |
|      10 | 0xA99D      |       43421 |
|      11 | 0xE404      |       58372 |
|      12 | 0xFFFFFF6F  |  4294967151 |
|      13 | 0x0E3E      |        3646 |
|      14 | 0xC108      |       49416 |
|      15 | 0xFFFE745F  |  4294866015 |
|      16 | 0xFFFF82B4  |  4294935220 |
|      17 | 0x0A42      |        2626 |
|      18 | 0x9549      |       38217 |
|      19 | 0xFFFE784E  |  4294867022 |
|      20 | 0xFFFF83D2  |  4294935506 |
|      21 | 0x0802      |        2050 |
|      22 | 0xA53A      |       42298 |
|      23 | 0xFFFE740B  |  4294865931 |
|      24 | 0xFFFF834B  |  4294935371 |
|      25 | 0x0871      |        2161 |
|      26 | 0x9BCA      |       39882 |
|      27 | 0xFFFE7D70  |  4294868336 |
|      28 | 0xFFFF8372  |  4294935410 |
|      29 | 0x07FD      |        2045 |
|      30 | 0x2193      |        8595 |
|      31 | 0xFFFE8CCC  |  4294872268 |
|      32 | 0xFFFF7D81  |  4294933889 |
|      33 | 0x099F      |        2463 |
|      34 | 0xFFFFFBCE  |  4294966222 |
|      35 | 0x83F9      |       33785 |
|      36 | 0xE92E      |       59694 |
|      37 | 0x0028      |          40 |
|      38 | 0x000F      |          15 |
|      39 | 0x007F      |         127 |
|      40 | 0x0005      |           5 |
|      41 | 0x0355      |         853 |
|      42 | 0x0006      |           6 |
|      43 | 0x003C      |          60 |
|      44 | 0x005A      |          90 |
|      45 | 0x1D90      |        7568 |
|      46 | 0x0032      |          50 |
|      47 | 0x1D91      |        7569 |
|      48 | 0x0003      |           3 |
|      49 | 0x0008      |           8 |
|      50 | 0x1D92      |        7570 |
|      51 | 0x1D93      |        7571 |
|      52 | 0x1D94      |        7572 |
|      53 | 0x1D95      |        7573 |
|      54 | 0x000A      |          10 |
|      55 | 0x1D96      |        7574 |
|      56 | 0x1D97      |        7575 |
|      57 | 0x1D98      |        7576 |
|      58 | 0x1D99      |        7577 |
|      59 | 0x1D9A      |        7578 |
|      60 | 0x1D9B      |        7579 |
|      61 | 0x0070      |         112 |
|      62 | 0x1D8F      |        7567 |
|      63 | 0xFFFFFF25  |  4294967077 |
|      64 | 0xC350      |       50000 |
|      65 | 0x1E848     |      125000 |
|      66 | 0x05DC      |        1500 |
|      67 | 0x03E8      |        1000 |
|      68 | 0x1D9C      |        7580 |
|      69 | 0x1D9D      |        7581 |
|      70 | 0x1D9E      |        7582 |
|      71 | 0x001B      |          27 |
|      72 | 0x1D9F      |        7583 |
|      73 | 0x1DA0      |        7584 |
|      74 | 0x1DA1      |        7585 |
|      75 | 0x1DA2      |        7586 |
|      76 | 0x1DA3      |        7587 |
|      77 | 0x1DA4      |        7588 |
|      78 | 0x1DA5      |        7589 |
|      79 | 0x185BF     |       99775 |
|      80 | 0xFFFEC973  |  4294887795 |
|      81 | 0xFFFF819C  |  4294934940 |
|      82 | 0x0C14      |        3092 |
|      83 | 0x18BBC     |      101308 |
|      84 | 0xFFFEBC90  |  4294884496 |
|      85 | 0xFFFF8356  |  4294935382 |
|      86 | 0x0BCE      |        3022 |
|      87 | 0x18325     |       99109 |
|      88 | 0xFFFEAFD4  |  4294881236 |
|      89 | 0xFFFF82E0  |  4294935264 |
|      90 | 0x0C4C      |        3148 |
|      91 | 0x1854C     |       99660 |
|      92 | 0xFFFF1646  |  4294907462 |
|      93 | 0xFFFF82FF  |  4294935295 |
|      94 | 0x0D48      |        3400 |
|      95 | 0x17E1E     |       97822 |
|      96 | 0xFFFF1F82  |  4294909826 |
|      97 | 0xFFFF8301  |  4294935297 |
|      98 | 0x09E1      |        2529 |
|      99 | 0x17D64     |       97636 |
|     100 | 0xFFFF11F8  |  4294906360 |
|     101 | 0xFFFF830B  |  4294935307 |
|     102 | 0x062B      |        1579 |
|     103 | 0x18A2E     |      100910 |
|     104 | 0xFFFF211A  |  4294910234 |
|     105 | 0x0D41      |        3393 |
|     106 | 0x15BC1     |       89025 |
|     107 | 0xFFFF14F9  |  4294907129 |
|     108 | 0xFFFF8316  |  4294935318 |
|     109 | 0x0025      |          37 |
|     110 | 0x0096      |         150 |
|     111 | 0x1DA6      |        7590 |
|     112 | 0x1DA7      |        7591 |
|     113 | 0x1DA8      |        7592 |
|     114 | 0x0252      |         594 |
|     115 | 0x1DA9      |        7593 |
|     116 | 0x1DAA      |        7594 |
|     117 | 0x1DAB      |        7595 |
|     118 | 0x1DAC      |        7596 |
|     119 | 0x1DAD      |        7597 |
|     120 | 0x1DAE      |        7598 |
|     121 | 0x1DAF      |        7599 |
|     122 | 0x1DB0      |        7600 |
|     123 | 0x1DB1      |        7601 |
|     124 | 0x1DB2      |        7602 |
|     125 | 0x1DB3      |        7603 |
|     126 | 0x1DB4      |        7604 |
|     127 | 0x1DB5      |        7605 |
|     128 | 0x1DB6      |        7606 |
|     129 | 0x0014      |          20 |
|     130 | 0x0015      |          21 |
|     131 | 0x15994     |       88468 |
|     132 | 0xFFFF148F  |  4294907023 |
|     133 | 0xFFFF832D  |  4294935341 |
|     134 | 0x002F      |          47 |
|     135 | 0x1861F     |       99871 |
|     136 | 0xFFFEF66F  |  4294899311 |
|     137 | 0xFFFF8300  |  4294935296 |
|     138 | 0x18C10     |      101392 |
|     139 | 0xFFFEEEBF  |  4294897343 |
|     140 | 0xFFFF830F  |  4294935311 |
|     141 | 0x0BC8      |        3016 |
|     142 | 0x17F6E     |       98158 |
|     143 | 0xFFFEEEA5  |  4294897317 |
|     144 | 0xFFFF82FC  |  4294935292 |
|     145 | 0x0BB8      |        3000 |
|     146 | 0x186A0     |      100000 |
|     147 | 0xFFFF15A0  |  4294907296 |
|     148 | 0x09C4      |        2500 |
|     149 | 0x18F76     |      102262 |
|     150 | 0xFFFF913B  |  4294938939 |
|     151 | 0xFFFF831E  |  4294935326 |
|     152 | 0x0920      |        2336 |
|     153 | 0x18E0B     |      101899 |
|     154 | 0xFFFFA1E7  |  4294943207 |
|     155 | 0xFFFF8317  |  4294935319 |
|     156 | 0x0709      |        1801 |
|     157 | 0x17B1E     |       97054 |
|     158 | 0xFFFFA12E  |  4294943022 |
|     159 | 0x024E      |         590 |
|     160 | 0x17762     |       96098 |
|     161 | 0xFFFF0AF0  |  4294904560 |
|     162 | 0x0024      |          36 |
|     163 | 0x002A      |          42 |
|     164 | 0x0017      |          23 |
|     165 | 0x0064      |         100 |
|     166 | 0x1DB7      |        7607 |
|     167 | 0x1DB8      |        7608 |
|     168 | 0x0050      |          80 |
|     169 | 0x0BEA      |        3050 |
|     170 | 0x1DB9      |        7609 |
|     171 | 0x002E      |          46 |
|     172 | 0x1DBA      |        7610 |
|     173 | 0x0007      |           7 |
|     174 | 0x001C      |          28 |
|     175 | 0x1DBB      |        7611 |
|     176 | 0x0010      |          16 |
|     177 | 0x1DBC      |        7612 |
|     178 | 0x1DBD      |        7613 |
|     179 | 0x1DBE      |        7614 |
|     180 | 0x0099      |         153 |
|     181 | 0x1DBF      |        7615 |
|     182 | 0x1DC0      |        7616 |
|     183 | 0x1DC1      |        7617 |
|     184 | 0xFFFFFDE9  |  4294966761 |
|     185 | 0x1DC2      |        7618 |
|     186 | 0x1DC3      |        7619 |
|     187 | 0x1DC4      |        7620 |
|     188 | 0x17CBE     |       97470 |
|     189 | 0xFFFF145A  |  4294906970 |
|     190 | 0xFFFF8304  |  4294935300 |
|     191 | 0x039B      |         923 |
|     192 | 0x1DC5      |        7621 |
|     193 | 0x17301     |       94977 |
|     194 | 0xFFFF121B  |  4294906395 |
|     195 | 0x0392      |         914 |
|     196 | 0x1DC6      |        7622 |
|     197 | 0x1DC7      |        7623 |
|     198 | 0x1DC8      |        7624 |
|     199 | 0x1DC9      |        7625 |
|     200 | 0x1DCA      |        7626 |
|     201 | 0x1DCB      |        7627 |
|     202 | 0x1DCC      |        7628 |
|     203 | 0x1DCD      |        7629 |
|     204 | 0x0046      |          70 |
|     205 | 0x1DCE      |        7630 |
|     206 | 0x0400      |        1024 |
|     207 | 0x1DCF      |        7631 |
|     208 | 0x1DD0      |        7632 |
|     209 | 0x1DD1      |        7633 |
|     210 | 0x1DD2      |        7634 |
|     211 | 0x1DD3      |        7635 |
|     212 | 0x1DD4      |        7636 |
|     213 | 0x1DD5      |        7637 |
|     214 | 0x1DD6      |        7638 |
|     215 | 0x1DD7      |        7639 |
|     216 | 0x0078      |         120 |
|     217 | 0x1DD8      |        7640 |
|     218 | 0x1DD9      |        7641 |
|     219 | 0x1DDA      |        7642 |
|     220 | 0x1DDB      |        7643 |
|     221 | 0x1DDC      |        7644 |
|     222 | 0x0105      |         261 |
|     223 | 0x0073      |         115 |
|     224 | 0x0066      |         102 |
|     225 | 0x91DA      |       37338 |
|     226 | 0xEC7A      |       60538 |
|     227 | 0x00BB      |         187 |
|     228 | 0x0018      |          24 |
|     229 | 0xA641      |       42561 |
|     230 | 0xE7BC      |       59324 |
|     231 | 0xFFFFFF17  |  4294967063 |
|     232 | 0x0800      |        2048 |
|     233 | 0x000E      |          14 |
|     234 | 0x001A      |          26 |
|     235 | 0x0080      |         128 |
|     236 | 0x1DDE      |        7646 |
|     237 | 0x1DDF      |        7647 |
|     238 | 0x000C      |          12 |
|     239 | 0x1DE0      |        7648 |
|     240 | 0x1DE1      |        7649 |
|     241 | 0x1DE2      |        7650 |
|     242 | 0x1DE3      |        7651 |
|     243 | 0x1DE4      |        7652 |
|     244 | 0x1DE5      |        7653 |
|     245 | 0x1DE6      |        7654 |
|     246 | 0x1DE7      |        7655 |
|     247 | 0x1DE8      |        7656 |
|     248 | 0x1DE9      |        7657 |
|     249 | 0x00A0      |         160 |
|     250 | 0x1DEA      |        7658 |

## String References

- **7567**: @@
- **7570**: How do you respond? [Who are you?/What are you doing here?/I'm investigating the Quadav's plans.]
- **7636**: How do you respond? [Yes, of course./Not really...]

## Events

### Event 65535

#### Metadata

| Field        | Value     |
|--------------|-----------|
| Entrypoint   | 0x0000    |
| Data Size    | 658 bytes |
| Instructions | 1         |

```
      00 01 02 03 04 05 06 07  08 09 0A 0B 0C 0D 0E 0F
      -- -- -- -- -- -- -- --  -- -- -- -- -- -- -- --
0000: 00 45 00 80 F0 FF FF 7F  F0 FF FF 7F 66 64 69 30  .E..........fdi0
0010: 01 80 55 00 80 F0 FF FF  7F F0 FF FF 7F 66 64 69  ..U..........fdi
0020: 30 1B 45 00 80 F0 FF FF  7F F0 FF FF 7F 66 64 6F  0.E..........fdo
0030: 30 01 80 55 00 80 F0 FF  FF 7F F0 FF FF 7F 66 64  0..U..........fd
0040: 6F 30 1B 45 00 80 F0 FF  FF 7F F0 FF FF 7F 66 64  o0.E..........fd
0050: 69 31 01 80 55 00 80 F0  FF FF 7F F0 FF FF 7F 66  i1..U..........f
0060: 64 69 31 1B 45 00 80 F0  FF FF 7F F0 FF FF 7F 66  di1.E..........f
0070: 64 6F 31 01 80 55 00 80  F0 FF FF 7F F0 FF FF 7F  do1..U..........
0080: 66 64 6F 31 1B 45 02 80  F0 FF FF 7F F0 FF FF 7F  fdo1.E..........
0090: 77 68 69 31 01 80 55 02  80 F0 FF FF 7F F0 FF FF  whi1..U.........
00A0: 7F 77 68 69 31 1B 45 02  80 F0 FF FF 7F F0 FF FF  .whi1.E.........
00B0: 7F 77 68 6F 31 01 80 55  02 80 F0 FF FF 7F F0 FF  .who1..U........
00C0: FF 7F 77 68 6F 31 1B 45  02 80 F0 FF FF 7F F0 FF  ..who1.E........
00D0: FF 7F 77 68 6F 32 01 80  55 02 80 F0 FF FF 7F F0  ..who2..U.......
00E0: FF FF 7F 77 68 6F 32 1B  45 02 80 F0 FF FF 7F F0  ...who2.E.......
00F0: FF FF 7F 77 68 6F 33 01  80 55 02 80 F0 FF FF 7F  ...who3..U......
0100: F0 FF FF 7F 77 68 6F 33  1B 62 03 80 F0 FF FF 7F  ....who3.b......
0110: F0 FF FF 7F 6D 61 69 6E  01 80 1C 04 80 45 00 80  ....main.....E..
0120: F0 FF FF 7F F0 FF FF 7F  66 64 6F 31 01 80 55 00  ........fdo1..U.
0130: 80 F0 FF FF 7F F0 FF FF  7F 66 64 6F 31 1B 45 00  .........fdo1.E.
0140: 80 F0 FF FF 7F F0 FF FF  7F 66 64 69 31 01 80 62  .........fdi1..b
0150: 05 80 F0 FF FF 7F F0 FF  FF 7F 6D 61 69 6E 01 80  ..........main..
0160: 1C 06 80 55 00 80 F0 FF  FF 7F F0 FF FF 7F 66 64  ...U..........fd
0170: 69 31 1B 45 00 80 F0 FF  FF 7F F0 FF FF 7F 62 6C  i1.E..........bl
0180: 6F 6E 01 80 45 02 80 F0  FF FF 7F F0 FF FF 7F 62  on..E..........b
0190: 6C 6F 6E 01 80 1B 45 02  80 F0 FF FF 7F F0 FF FF  lon...E.........
01A0: 7F 77 68 69 30 01 80 55  02 80 F0 FF FF 7F F0 FF  .whi0..U........
01B0: FF 7F 77 68 69 30 1B 45  02 80 F0 FF FF 7F F0 FF  ..whi0.E........
01C0: FF 7F 77 68 6F 30 01 80  55 02 80 F0 FF FF 7F F0  ..who0..U.......
01D0: FF FF 7F 77 68 6F 30 1B  45 07 80 F0 FF FF 7F F0  ...who0.E.......
01E0: FF FF 7F 65 66 6F 6E 01  80 55 07 80 F0 FF FF 7F  ...efon..U......
01F0: F0 FF FF 7F 65 66 6F 6E  1B 45 00 80 F0 FF FF 7F  ....efon.E......
0200: F0 FF FF 7F 66 64 69 73  01 80 1B 45 00 80 F0 FF  ....fdis...E....
0210: FF 7F F0 FF FF 7F 66 64  6F 73 01 80 55 00 80 F0  ......fdos..U...
0220: FF FF 7F F0 FF FF 7F 66  64 6F 73 1B 45 00 80 F0  .......fdos.E...
0230: FF FF 7F F0 FF FF 7F 66  64 69 66 01 80 1B 45 00  .......fdif...E.
0240: 80 F0 FF FF 7F F0 FF FF  7F 66 64 6F 66 01 80 55  .........fdof..U
0250: 00 80 F0 FF FF 7F F0 FF  FF 7F 66 64 6F 66 1B 45  ..........fdof.E
0260: 00 80 F0 FF FF 7F F0 FF  FF 7F 66 64 69 70 01 80  ..........fdip..
0270: 1B 45 00 80 F0 FF FF 7F  F0 FF FF 7F 66 64 6F 70  .E..........fdop
0280: 01 80 55 00 80 F0 FF FF  7F F0 FF FF 7F 66 64 6F  ..U..........fdo
0290: 70 1B                                             p.              
```

#### Opcodes

```
  0: 0x0000 [0x00] END_REQSTACK()
```

#### Data or dead code:

```
# Dead code (unreachable instructions):
     0x0001 [0x45] LOAD_SCHEDULED_TASK: Load scheduler "fdi0" with entities [LocalPlayer, LocalPlayer], work=[200*, 0*]
     0x0012 [0x55] WAIT_LOAD_SCHEDULER: Wait for scheduler "fdi0" with entities [LocalPlayer, LocalPlayer], work=200*
     0x0021 [0x1B] RETURN
     0x0022 [0x45] LOAD_SCHEDULED_TASK: Load scheduler "fdo0" with entities [LocalPlayer, LocalPlayer], work=[200*, 0*]
     0x0033 [0x55] WAIT_LOAD_SCHEDULER: Wait for scheduler "fdo0" with entities [LocalPlayer, LocalPlayer], work=200*
     0x0042 [0x1B] RETURN
     0x0043 [0x45] LOAD_SCHEDULED_TASK: Load scheduler "fdi1" with entities [LocalPlayer, LocalPlayer], work=[200*, 0*]
     0x0054 [0x55] WAIT_LOAD_SCHEDULER: Wait for scheduler "fdi1" with entities [LocalPlayer, LocalPlayer], work=200*
     0x0063 [0x1B] RETURN
     0x0064 [0x45] LOAD_SCHEDULED_TASK: Load scheduler "fdo1" with entities [LocalPlayer, LocalPlayer], work=[200*, 0*]
     0x0075 [0x55] WAIT_LOAD_SCHEDULER: Wait for scheduler "fdo1" with entities [LocalPlayer, LocalPlayer], work=200*
     0x0084 [0x1B] RETURN
     0x0085 [0x45] LOAD_SCHEDULED_TASK: Load scheduler "whi1" with entities [LocalPlayer, LocalPlayer], work=[201*, 0*]
     0x0096 [0x55] WAIT_LOAD_SCHEDULER: Wait for scheduler "whi1" with entities [LocalPlayer, LocalPlayer], work=201*
     0x00A5 [0x1B] RETURN
     0x00A6 [0x45] LOAD_SCHEDULED_TASK: Load scheduler "who1" with entities [LocalPlayer, LocalPlayer], work=[201*, 0*]
     0x00B7 [0x55] WAIT_LOAD_SCHEDULER: Wait for scheduler "who1" with entities [LocalPlayer, LocalPlayer], work=201*
     0x00C6 [0x1B] RETURN
     0x00C7 [0x45] LOAD_SCHEDULED_TASK: Load scheduler "who2" with entities [LocalPlayer, LocalPlayer], work=[201*, 0*]
     0x00D8 [0x55] WAIT_LOAD_SCHEDULER: Wait for scheduler "who2" with entities [LocalPlayer, LocalPlayer], work=201*
     0x00E7 [0x1B] RETURN
     0x00E8 [0x45] LOAD_SCHEDULED_TASK: Load scheduler "who3" with entities [LocalPlayer, LocalPlayer], work=[201*, 0*]
     0x00F9 [0x55] WAIT_LOAD_SCHEDULER: Wait for scheduler "who3" with entities [LocalPlayer, LocalPlayer], work=201*
     0x0108 [0x1B] RETURN
     0x0109 [0x62] LOAD_EVENT_SCHEDULER: Load scheduler "main" with entities [LocalPlayer, LocalPlayer], work=[1*, 0*]
     0x011A [0x1C] WAIT(45* ticks)
     0x011D [0x45] LOAD_SCHEDULED_TASK: Load scheduler "fdo1" with entities [LocalPlayer, LocalPlayer], work=[200*, 0*]
     0x012E [0x55] WAIT_LOAD_SCHEDULER: Wait for scheduler "fdo1" with entities [LocalPlayer, LocalPlayer], work=200*
     0x013D [0x1B] RETURN
     0x013E [0x45] LOAD_SCHEDULED_TASK: Load scheduler "fdi1" with entities [LocalPlayer, LocalPlayer], work=[200*, 0*]
     0x014F [0x62] LOAD_EVENT_SCHEDULER: Load scheduler "main" with entities [LocalPlayer, LocalPlayer], work=[2*, 0*]
     0x0160 [0x1C] WAIT(30* ticks)
     0x0163 [0x55] WAIT_LOAD_SCHEDULER: Wait for scheduler "fdi1" with entities [LocalPlayer, LocalPlayer], work=200*
     0x0172 [0x1B] RETURN
     0x0173 [0x45] LOAD_SCHEDULED_TASK: Load scheduler "blon" with entities [LocalPlayer, LocalPlayer], work=[200*, 0*]
     0x0184 [0x45] LOAD_SCHEDULED_TASK: Load scheduler "blon" with entities [LocalPlayer, LocalPlayer], work=[201*, 0*]
     0x0195 [0x1B] RETURN
     0x0196 [0x45] LOAD_SCHEDULED_TASK: Load scheduler "whi0" with entities [LocalPlayer, LocalPlayer], work=[201*, 0*]
     0x01A7 [0x55] WAIT_LOAD_SCHEDULER: Wait for scheduler "whi0" with entities [LocalPlayer, LocalPlayer], work=201*
     0x01B6 [0x1B] RETURN
     0x01B7 [0x45] LOAD_SCHEDULED_TASK: Load scheduler "who0" with entities [LocalPlayer, LocalPlayer], work=[201*, 0*]
     0x01C8 [0x55] WAIT_LOAD_SCHEDULER: Wait for scheduler "who0" with entities [LocalPlayer, LocalPlayer], work=201*
     0x01D7 [0x1B] RETURN
     0x01D8 [0x45] LOAD_SCHEDULED_TASK: Load scheduler "efon" with entities [LocalPlayer, LocalPlayer], work=[215*, 0*]
     0x01E9 [0x55] WAIT_LOAD_SCHEDULER: Wait for scheduler "efon" with entities [LocalPlayer, LocalPlayer], work=215*
     0x01F8 [0x1B] RETURN
     0x01F9 [0x45] LOAD_SCHEDULED_TASK: Load scheduler "fdis" with entities [LocalPlayer, LocalPlayer], work=[200*, 0*]
     0x020A [0x1B] RETURN
     0x020B [0x45] LOAD_SCHEDULED_TASK: Load scheduler "fdos" with entities [LocalPlayer, LocalPlayer], work=[200*, 0*]
     0x021C [0x55] WAIT_LOAD_SCHEDULER: Wait for scheduler "fdos" with entities [LocalPlayer, LocalPlayer], work=200*
     0x022B [0x1B] RETURN
     0x022C [0x45] LOAD_SCHEDULED_TASK: Load scheduler "fdif" with entities [LocalPlayer, LocalPlayer], work=[200*, 0*]
     0x023D [0x1B] RETURN
     0x023E [0x45] LOAD_SCHEDULED_TASK: Load scheduler "fdof" with entities [LocalPlayer, LocalPlayer], work=[200*, 0*]
     0x024F [0x55] WAIT_LOAD_SCHEDULER: Wait for scheduler "fdof" with entities [LocalPlayer, LocalPlayer], work=200*
     0x025E [0x1B] RETURN
     0x025F [0x45] LOAD_SCHEDULED_TASK: Load scheduler "fdip" with entities [LocalPlayer, LocalPlayer], work=[200*, 0*]
     0x0270 [0x1B] RETURN
     0x0271 [0x45] LOAD_SCHEDULED_TASK: Load scheduler "fdop" with entities [LocalPlayer, LocalPlayer], work=[200*, 0*]
     0x0282 [0x55] WAIT_LOAD_SCHEDULER: Wait for scheduler "fdop" with entities [LocalPlayer, LocalPlayer], work=200*
     0x0291 [0x1B] RETURN
```

### Event 129

#### Metadata

| Field        | Value      |
|--------------|------------|
| Entrypoint   | 0x0292     |
| Data Size    | 3451 bytes |
| Instructions | 440        |

```
      00 01 02 03 04 05 06 07  08 09 0A 0B 0C 0D 0E 0F
      -- -- -- -- -- -- -- --  -- -- -- -- -- -- -- --
0290:       42 5D 01 80 08 80  1A 64 00 46 01 38 09 80    B].....d.F.8..
02A0: 2F 00 C5 F1 08 01 2F 00  C7 F1 08 01 2F 00 C2 F1  /...../...../...
02B0: 08 01 2F 00 C3 F1 08 01  2F 00 C4 F1 08 01 2F 00  ../...../...../.
02C0: CB F1 08 01 4E 00 C5 F1  08 01 4E 00 F0 FF FF 7F  ....N.....N.....
02D0: 4E 00 C7 F1 08 01 4E 00  C2 F1 08 01 4E 00 C3 F1  N.....N.....N...
02E0: 08 01 4E 00 C4 F1 08 01  4E 00 CB F1 08 01 94 01  ..N.....N.......
02F0: C5 F1 08 01 94 01 C7 F1  08 01 94 01 C2 F1 08 01  ................
0300: 94 01 C3 F1 08 01 94 01  C4 F1 08 01 94 01 CB F1  ................
0310: 08 01 94 01 F0 FF FF 7F  BA C5 F1 08 01 0A 80 0B  ................
0320: 80 0C 80 0D 80 BA C7 F1  08 01 0E 80 0F 80 10 80  ................
0330: 11 80 BA C2 F1 08 01 12  80 13 80 14 80 15 80 BA  ................
0340: C3 F1 08 01 16 80 17 80  18 80 19 80 BA C4 F1 08  ................
0350: 01 1A 80 1B 80 1C 80 1D  80 59 05 CB F1 08 01 01  .........Y......
0360: BA CB F1 08 01 1E 80 1F  80 20 80 21 80 D8 03 CB  ......... .!....
0370: F1 08 01 22 80 59 05 CB  F1 08 01 01 BA F0 FF FF  ...".Y..........
0380: 7F 23 80 24 80 25 80 04  80 80 C5 F1 08 01 80 C7  .#.$.%..........
0390: F1 08 01 80 C2 F1 08 01  80 C3 F1 08 01 80 C4 F1  ................
03A0: 08 01 80 F0 FF FF 7F 2C  C2 F1 08 01 C2 F1 08 01  .......,........
03B0: 77 70 6F 6E 66 26 80 F8  FF FF 7F F8 FF FF 7F 00  wponf&..........
03C0: FE FE FE 5C 00 27 80 5C  01 27 80 9A 5D 27 80 03  ...\.'.\.'..]'..
03D0: 80 29 0F F0 FF FF 7F 36  27 0F F0 FF FF 7F 37 02  .).....6'.....7.
03E0: 09 10 28 80 00 FB 03 45  29 80 F8 FF FF 7F F8 FF  ..(....E).......
03F0: FF 7F 73 30 31 39 01 80  01 28 04 02 09 10 2A 80  ..s019...(....*.
0400: 00 17 04 45 29 80 F8 FF  FF 7F F8 FF FF 7F 73 30  ...E).........s0
0410: 31 39 01 80 01 28 04 45  29 80 F8 FF FF 7F F8 FF  19...(.E).......
0420: FF 7F 73 30 30 30 01 80  1A 43 00 1C 2B 80 79 00  ..s000...C..+.y.
0430: F0 FF FF 7F C5 F1 08 01  1C 06 80 02 09 10 28 80  ..............(.
0440: 00 55 04 52 29 80 F8 FF  FF 7F F8 FF FF 7F 73 30  .U.R).........s0
0450: 31 39 01 7E 04 02 09 10  2A 80 00 6F 04 52 29 80  19.~....*..o.R).
0460: F8 FF FF 7F F8 FF FF 7F  73 30 31 39 01 7E 04 52  ........s019.~.R
0470: 29 80 F8 FF FF 7F F8 FF  FF 7F 73 30 30 30 45 29  ).........s000E)
0480: 80 F8 FF FF 7F F8 FF FF  7F 73 30 30 32 01 80 1C  .........s002...
0490: 2C 80 4A C5 F1 08 01 F0  FF FF 7F 6F 76 C5 F1 08  ,.J........ov...
04A0: 01 52 29 80 F8 FF FF 7F  F8 FF FF 7F 73 30 30 32  .R).........s002
04B0: 02 09 10 28 80 00 CC 04  45 29 80 F8 FF FF 7F F8  ...(....E)......
04C0: FF FF 7F 73 30 32 35 01  80 01 F9 04 02 09 10 2A  ...s025........*
04D0: 80 00 E8 04 45 29 80 F8  FF FF 7F F8 FF FF 7F 73  ....E).........s
04E0: 30 32 35 01 80 01 F9 04  45 29 80 F8 FF FF 7F F8  025.....E)......
04F0: FF FF 7F 73 30 30 31 01  80 2A 0F F0 FF FF 7F 4A  ...s001..*.....J
0500: C5 F1 08 01 F0 FF FF 7F  6F 76 C5 F1 08 01 29 0F  ........ov....).
0510: C5 F1 08 01 01 2B C5 F1  08 01 2D 80 23 29 0F C5  .....+....-.#)..
0520: F1 08 01 02 29 0F C5 F1  08 01 03 02 09 10 28 80  ....).........(.
0530: 00 45 05 55 29 80 F8 FF  FF 7F F8 FF FF 7F 73 30  .E.U).........s0
0540: 32 35 01 6E 05 02 09 10  2A 80 00 5F 05 55 29 80  25.n....*.._.U).
0550: F8 FF FF 7F F8 FF FF 7F  73 30 32 35 01 6E 05 55  ........s025.n.U
0560: 29 80 F8 FF FF 7F F8 FF  FF 7F 73 30 30 31 02 09  ).........s001..
0570: 10 28 80 00 8A 05 45 29  80 F8 FF FF 7F F8 FF FF  .(....E)........
0580: 7F 73 30 32 36 01 80 01  B7 05 02 09 10 2A 80 00  .s026........*..
0590: A6 05 45 29 80 F8 FF FF  7F F8 FF FF 7F 73 30 32  ..E).........s02
05A0: 36 01 80 01 B7 05 45 29  80 F8 FF FF 7F F8 FF FF  6.....E)........
05B0: 7F 73 30 31 36 01 80 45  29 80 F8 FF FF 7F F8 FF  .s016..E).......
05C0: FF 7F 38 30 39 33 01 80  1C 2E 80 29 0F C5 F1 08  ..8093.....)....
05D0: 01 08 02 09 10 28 80 00  EC 05 52 29 80 F8 FF FF  .....(....R)....
05E0: 7F F8 FF FF 7F 73 30 32  36 01 15 06 02 09 10 2A  .....s026......*
05F0: 80 00 06 06 52 29 80 F8  FF FF 7F F8 FF FF 7F 73  ....R).........s
0600: 30 32 36 01 15 06 52 29  80 F8 FF FF 7F F8 FF FF  026...R)........
0610: 7F 73 30 31 36 45 29 80  F8 FF FF 7F F8 FF FF 7F  .s016E).........
0620: 73 30 30 33 01 80 7B C5  F1 08 01 29 0F C5 F1 08  s003..{....)....
0630: 01 09 29 0F C5 F1 08 01  0A 29 0F C5 F1 08 01 0B  ..)......)......
0640: 2B C5 F1 08 01 2F 80 23  29 0F C5 F1 08 01 0C 52  +..../.#)......R
0650: 29 80 F8 FF FF 7F F8 FF  FF 7F 73 30 30 33 02 09  ).........s003..
0660: 10 30 80 00 7A 06 45 29  80 F8 FF FF 7F F8 FF FF  .0..z.E)........
0670: 7F 73 30 30 34 01 80 01  DF 06 02 09 10 28 80 00  .s004........(..
0680: 96 06 45 29 80 F8 FF FF  7F F8 FF FF 7F 73 30 32  ..E).........s02
0690: 30 01 80 01 DF 06 02 09  10 2A 80 00 B2 06 45 29  0........*....E)
06A0: 80 F8 FF FF 7F F8 FF FF  7F 73 30 32 30 01 80 01  .........s020...
06B0: DF 06 02 09 10 31 80 00  CE 06 45 29 80 F8 FF FF  .....1....E)....
06C0: 7F F8 FF FF 7F 73 30 30  34 01 80 01 DF 06 45 29  .....s004.....E)
06D0: 80 F8 FF FF 7F F8 FF FF  7F 73 30 32 37 01 80 79  .........s027..y
06E0: 00 C5 F1 08 01 F0 FF FF  7F 03 01 00 01 80 03 00  ................
06F0: 10 01 80 02 00 10 05 80  01 6F 0A 24 32 80 01 80  .........o.$2...
0700: 01 00 25 02 00 10 01 80  00 4A 08 02 09 10 30 80  ..%......J....0.
0710: 00 25 07 52 29 80 F8 FF  FF 7F F8 FF FF 7F 73 30  .%.R).........s0
0720: 30 34 01 82 07 02 09 10  28 80 00 3F 07 52 29 80  04......(..?.R).
0730: F8 FF FF 7F F8 FF FF 7F  73 30 32 30 01 82 07 02  ........s020....
0740: 09 10 2A 80 00 59 07 52  29 80 F8 FF FF 7F F8 FF  ..*..Y.R).......
0750: FF 7F 73 30 32 30 01 82  07 02 09 10 31 80 00 73  ..s020......1..s
0760: 07 52 29 80 F8 FF FF 7F  F8 FF FF 7F 73 30 30 34  .R).........s004
0770: 01 82 07 52 29 80 F8 FF  FF 7F F8 FF FF 7F 73 30  ...R).........s0
0780: 32 37 45 29 80 F8 FF FF  7F F8 FF FF 7F 73 30 30  27E).........s00
0790: 35 01 80 29 0F C5 F1 08  01 05 2B C5 F1 08 01 33  5..)......+....3
07A0: 80 23 29 0F C5 F1 08 01  06 29 0F C5 F1 08 01 07  .#)......)......
07B0: 29 0F C5 F1 08 01 08 52  29 80 F8 FF FF 7F F8 FF  )......R).......
07C0: FF 7F 73 30 30 35 02 09  10 30 80 00 E2 07 45 29  ..s005...0....E)
07D0: 80 F8 FF FF 7F F8 FF FF  7F 73 30 30 34 01 80 01  .........s004...
07E0: 47 08 02 09 10 28 80 00  FE 07 45 29 80 F8 FF FF  G....(....E)....
07F0: 7F F8 FF FF 7F 73 30 32  30 01 80 01 47 08 02 09  .....s020...G...
0800: 10 2A 80 00 1A 08 45 29  80 F8 FF FF 7F F8 FF FF  .*....E)........
0810: 7F 73 30 32 30 01 80 01  47 08 02 09 10 31 80 00  .s020...G....1..
0820: 36 08 45 29 80 F8 FF FF  7F F8 FF FF 7F 73 30 30  6.E).........s00
0830: 34 01 80 01 47 08 45 29  80 F8 FF FF 7F F8 FF FF  4...G.E)........
0840: 7F 73 30 32 37 01 80 01  65 0A 02 00 10 03 80 00  .s027...e.......
0850: 91 09 02 09 10 30 80 00  6C 08 52 29 80 F8 FF FF  .....0..l.R)....
0860: 7F F8 FF FF 7F 73 30 30  34 01 C9 08 02 09 10 28  .....s004......(
0870: 80 00 86 08 52 29 80 F8  FF FF 7F F8 FF FF 7F 73  ....R).........s
0880: 30 32 30 01 C9 08 02 09  10 2A 80 00 A0 08 52 29  020......*....R)
0890: 80 F8 FF FF 7F F8 FF FF  7F 73 30 32 30 01 C9 08  .........s020...
08A0: 02 09 10 31 80 00 BA 08  52 29 80 F8 FF FF 7F F8  ...1....R)......
08B0: FF FF 7F 73 30 30 34 01  C9 08 52 29 80 F8 FF FF  ...s004...R)....
08C0: 7F F8 FF FF 7F 73 30 32  37 45 29 80 F8 FF FF 7F  .....s027E).....
08D0: F8 FF FF 7F 73 30 30 35  01 80 29 0F C5 F1 08 01  ....s005..).....
08E0: 05 2B C5 F1 08 01 34 80  23 29 0F C5 F1 08 01 06  .+....4.#)......
08F0: 29 0F C5 F1 08 01 07 29  0F C5 F1 08 01 08 52 29  )......)......R)
0900: 80 F8 FF FF 7F F8 FF FF  7F 73 30 30 35 02 09 10  .........s005...
0910: 30 80 00 29 09 45 29 80  F8 FF FF 7F F8 FF FF 7F  0..).E).........
0920: 73 30 30 34 01 80 01 8E  09 02 09 10 28 80 00 45  s004........(..E
0930: 09 45 29 80 F8 FF FF 7F  F8 FF FF 7F 73 30 32 30  .E).........s020
0940: 01 80 01 8E 09 02 09 10  2A 80 00 61 09 45 29 80  ........*..a.E).
0950: F8 FF FF 7F F8 FF FF 7F  73 30 32 30 01 80 01 8E  ........s020....
0960: 09 02 09 10 31 80 00 7D  09 45 29 80 F8 FF FF 7F  ....1..}.E).....
0970: F8 FF FF 7F 73 30 30 34  01 80 01 8E 09 45 29 80  ....s004.....E).
0980: F8 FF FF 7F F8 FF FF 7F  73 30 32 37 01 80 01 65  ........s027...e
0990: 0A 02 00 10 05 80 00 65  0A 29 0F F0 FF FF 7F 38  .......e.).....8
09A0: 1C 2B 80 1A 64 00 02 09  10 30 80 00 C0 09 52 29  .+..d....0....R)
09B0: 80 F8 FF FF 7F F8 FF FF  7F 73 30 30 34 01 1D 0A  .........s004...
09C0: 02 09 10 28 80 00 DA 09  52 29 80 F8 FF FF 7F F8  ...(....R)......
09D0: FF FF 7F 73 30 32 30 01  1D 0A 02 09 10 2A 80 00  ...s020......*..
09E0: F4 09 52 29 80 F8 FF FF  7F F8 FF FF 7F 73 30 32  ..R).........s02
09F0: 30 01 1D 0A 02 09 10 31  80 00 0E 0A 52 29 80 F8  0......1....R)..
0A00: FF FF 7F F8 FF FF 7F 73  30 30 34 01 1D 0A 52 29  .......s004...R)
0A10: 80 F8 FF FF 7F F8 FF FF  7F 73 30 32 37 7B C5 F1  .........s027{..
0A20: 08 01 79 00 F0 FF FF 7F  C5 F1 08 01 4B F0 FF FF  ..y.........K...
0A30: 7F 01 80 6F 76 F0 FF FF  7F 29 0F C5 F1 08 01 09  ...ov....)......
0A40: 29 0F C5 F1 08 01 0A 29  0F F0 FF FF 7F 39 45 29  )......).....9E)
0A50: 80 F8 FF FF 7F F8 FF FF  7F 73 30 30 36 01 80 1A  .........s006...
0A60: 43 00 01 65 0A 3C 01 00  00 10 03 80 01 F3 06 1C  C..e.<..........
0A70: 2B 80 2B C5 F1 08 01 35  80 1C 06 80 52 29 80 F8  +.+....5....R)..
0A80: FF FF 7F F8 FF FF 7F 73  30 30 36 02 09 10 28 80  .......s006...(.
0A90: 00 A7 0A 45 29 80 F8 FF  FF 7F F8 FF FF 7F 73 30  ...E).........s0
0AA0: 32 31 01 80 01 D4 0A 02  09 10 2A 80 00 C3 0A 45  21........*....E
0AB0: 29 80 F8 FF FF 7F F8 FF  FF 7F 73 30 32 31 01 80  ).........s021..
0AC0: 01 D4 0A 45 29 80 F8 FF  FF 7F F8 FF FF 7F 73 30  ...E).........s0
0AD0: 30 37 01 80 23 29 0F C5  F1 08 01 0B 29 0F C5 F1  07..#)......)...
0AE0: 08 01 0C 27 0F C5 F1 08  01 32 1C 36 80 02 09 10  ...'.....2.6....
0AF0: 28 80 00 07 0B 52 29 80  F8 FF FF 7F F8 FF FF 7F  (....R).........
0B00: 73 30 32 31 01 30 0B 02  09 10 2A 80 00 21 0B 52  s021.0....*..!.R
0B10: 29 80 F8 FF FF 7F F8 FF  FF 7F 73 30 32 31 01 30  ).........s021.0
0B20: 0B 52 29 80 F8 FF FF 7F  F8 FF FF 7F 73 30 30 37  .R).........s007
0B30: 02 09 10 28 80 00 4C 0B  45 29 80 F8 FF FF 7F F8  ...(..L.E)......
0B40: FF FF 7F 73 30 32 32 01  80 01 79 0B 02 09 10 2A  ...s022...y....*
0B50: 80 00 68 0B 45 29 80 F8  FF FF 7F F8 FF FF 7F 73  ..h.E).........s
0B60: 30 32 32 01 80 01 79 0B  45 29 80 F8 FF FF 7F F8  022...y.E)......
0B70: FF FF 7F 73 30 30 38 01  80 2A 0F C5 F1 08 01 2B  ...s008..*.....+
0B80: C5 F1 08 01 37 80 23 02  09 10 28 80 00 A1 0B 52  ....7.#...(....R
0B90: 29 80 F8 FF FF 7F F8 FF  FF 7F 73 30 32 32 01 CA  ).........s022..
0BA0: 0B 02 09 10 2A 80 00 BB  0B 52 29 80 F8 FF FF 7F  ....*....R).....
0BB0: F8 FF FF 7F 73 30 32 32  01 CA 0B 52 29 80 F8 FF  ....s022...R)...
0BC0: FF 7F F8 FF FF 7F 73 30  30 38 45 29 80 F8 FF FF  ......s008E)....
0BD0: 7F F8 FF FF 7F 73 30 30  39 01 80 4A C5 F1 08 01  .....s009..J....
0BE0: F0 FF FF 7F 6F 76 C5 F1  08 01 29 0F C5 F1 08 01  ....ov....).....
0BF0: 01 2B C5 F1 08 01 38 80  23 2B C5 F1 08 01 39 80  .+....8.#+....9.
0C00: 23 29 0F C5 F1 08 01 02  5D 01 80 08 80 1A 64 00  #)......].....d.
0C10: 52 29 80 F8 FF FF 7F F8  FF FF 7F 73 30 30 39 27  R).........s009'
0C20: 0F C2 F1 08 01 4C 27 0F  C3 F1 08 01 14 27 0F C4  .....L'......'..
0C30: F1 08 01 11 27 0F C7 F1  08 01 02 1C 05 80 45 29  ....'.........E)
0C40: 80 F8 FF FF 7F F8 FF FF  7F 73 30 31 33 01 80 1A  .........s013...
0C50: 43 00 29 0F C5 F1 08 01  03 2B C5 F1 08 01 3A 80  C.)......+....:.
0C60: 23 29 0F C5 F1 08 01 04  45 29 80 CB F1 08 01 CB  #)......E)......
0C70: F1 08 01 38 32 37 34 01  80 52 29 80 F8 FF FF 7F  ...8274..R).....
0C80: F8 FF FF 7F 73 30 31 33  45 29 80 F8 FF FF 7F F8  ....s013E)......
0C90: FF FF 7F 73 30 31 34 01  80 6C C2 F1 08 01 01 80  ...s014..l......
0CA0: 03 80 45 29 80 F8 FF FF  7F F8 FF FF 7F 38 31 36  ..E).........816
0CB0: 30 01 80 2B C5 F1 08 01  3B 80 23 2B C5 F1 08 01  0..+....;.#+....
0CC0: 3C 80 23 52 29 80 F8 FF  FF 7F F8 FF FF 7F 73 30  <.#R).........s0
0CD0: 31 34 1C 36 80 45 29 80  CB F1 08 01 CB F1 08 01  14.6.E).........
0CE0: 6B 32 37 34 01 80 1C 03  80 9F 3D 80 CB F1 08 01  k274......=.....
0CF0: CB F1 08 01 6D 61 69 6E  01 80 1C 2C 80 1C 06 80  ....main...,....
0D00: 45 29 80 F8 FF FF 7F F8  FF FF 7F 36 30 33 36 01  E).........6036.
0D10: 80 1C 2B 80 48 3E 80 23  1A 0B 02 A2 3D 80 CB F1  ..+.H>.#....=...
0D20: 08 01 CB F1 08 01 6D 61  69 6E 9F 3D 80 CB F1 08  ......main.=....
0D30: 01 CB F1 08 01 6B 69 6C  6C 01 80 2A 0F C2 F1 08  .....kill..*....
0D40: 01 2A 0F C3 F1 08 01 2A  0F C4 F1 08 01 2A 0F C7  .*.....*.....*..
0D50: F1 08 01 1C 03 80 45 29  80 F8 FF FF 7F F8 FF FF  ......E)........
0D60: 7F 62 6C 6F 66 01 80 1C  03 80 89 3F 80 1C 2B 80  .blof......?..+.
0D70: B4 14 40 80 41 80 42 80  01 80 03 80 B4 14 01 80  ..@.A.B.........
0D80: 01 80 43 80 08 80 03 80  1A F9 01 2B C5 F1 08 01  ..C........+....
0D90: 44 80 23 1C 2B 80 2B C5  F1 08 01 45 80 23 1C 2B  D.#.+.+....E.#.+
0DA0: 80 2B C5 F1 08 01 46 80  23 1C 2B 80 1A 0B 02 8A  .+....F.#.+.....
0DB0: B4 15 1C 06 80 7B C5 F1  08 01 5C 00 47 80 5C 01  .....{....\.G.\.
0DC0: 47 80 9A 5D 27 80 03 80  1A 64 00 1A F9 01 2B C5  G..]'....d....+.
0DD0: F1 08 01 48 80 23 48 3E  80 23 02 09 10 28 80 00  ...H.#H>.#...(..
0DE0: F6 0D 45 29 80 F8 FF FF  7F F8 FF FF 7F 73 30 32  ..E).........s02
0DF0: 33 01 80 01 23 0E 02 09  10 2A 80 00 12 0E 45 29  3...#....*....E)
0E00: 80 F8 FF FF 7F F8 FF FF  7F 73 30 32 33 01 80 01  .........s023...
0E10: 23 0E 45 29 80 F8 FF FF  7F F8 FF FF 7F 73 30 31  #.E).........s01
0E20: 30 01 80 27 0F C5 F1 08  01 33 1A 43 00 2B C5 F1  0..'.....3.C.+..
0E30: 08 01 49 80 23 2A 0F C5  F1 08 01 29 0F C5 F1 08  ..I.#*.....)....
0E40: 01 0D 2B C5 F1 08 01 4A  80 23 29 0F C5 F1 08 01  ..+....J.#).....
0E50: 0E 02 09 10 28 80 00 6B  0E 52 29 80 F8 FF FF 7F  ....(..k.R).....
0E60: F8 FF FF 7F 73 30 32 33  01 94 0E 02 09 10 2A 80  ....s023......*.
0E70: 00 85 0E 52 29 80 F8 FF  FF 7F F8 FF FF 7F 73 30  ...R).........s0
0E80: 32 33 01 94 0E 52 29 80  F8 FF FF 7F F8 FF FF 7F  23...R).........
0E90: 73 30 31 30 02 09 10 28  80 00 B0 0E 45 29 80 F8  s010...(....E)..
0EA0: FF FF 7F F8 FF FF 7F 73  30 32 34 01 80 01 DD 0E  .......s024.....
0EB0: 02 09 10 2A 80 00 CC 0E  45 29 80 F8 FF FF 7F F8  ...*....E)......
0EC0: FF FF 7F 73 30 32 34 01  80 01 DD 0E 45 29 80 F8  ...s024.....E)..
0ED0: FF FF 7F F8 FF FF 7F 73  30 31 31 01 80 4A C5 F1  .......s011..J..
0EE0: 08 01 F0 FF FF 7F 6F 76  C5 F1 08 01 29 0F C5 F1  ......ov....)...
0EF0: 08 01 0F 2B C5 F1 08 01  4B 80 23 29 0F C5 F1 08  ...+....K.#)....
0F00: 01 10 02 09 10 28 80 00  1C 0F 52 29 80 F8 FF FF  .....(....R)....
0F10: 7F F8 FF FF 7F 73 30 32  34 01 45 0F 02 09 10 2A  .....s024.E....*
0F20: 80 00 36 0F 52 29 80 F8  FF FF 7F F8 FF FF 7F 73  ..6.R).........s
0F30: 30 32 34 01 45 0F 52 29  80 F8 FF FF 7F F8 FF FF  024.E.R)........
0F40: 7F 73 30 31 31 45 29 80  F8 FF FF 7F F8 FF FF 7F  .s011E).........
0F50: 73 30 31 35 01 80 29 0F  C5 F1 08 01 0F 2B C5 F1  s015..)......+..
0F60: 08 01 4C 80 23 2B C5 F1  08 01 4D 80 23 29 0F C5  ..L.#+....M.#)..
0F70: F1 08 01 10 52 29 80 F8  FF FF 7F F8 FF FF 7F 73  ....R).........s
0F80: 30 31 35 45 29 80 F8 FF  FF 7F F8 FF FF 7F 73 30  015E).........s0
0F90: 31 37 01 80 2B C5 F1 08  01 4E 80 23 52 29 80 F8  17..+....N.#R)..
0FA0: FF FF 7F F8 FF FF 7F 73  30 31 37 45 29 80 F8 FF  .......s017E)...
0FB0: FF 7F F8 FF FF 7F 73 30  31 38 01 80 5D 01 80 08  ......s018..]...
0FC0: 80 27 0F C5 F1 08 01 34  1C 2C 80 1C 06 80 1A 64  .'.....4.,.....d
0FD0: 00 52 29 80 F8 FF FF 7F  F8 FF FF 7F 73 30 31 38  .R).........s018
0FE0: 1C 26 80 5C 00 01 80 5C  01 01 80 9A 5D 27 80 03  .&.\...\....]'..
0FF0: 80 AB 11 01 80 1C 03 80  46 00 45 00 80 F8 FF FF  ........F.E.....
1000: 7F F8 FF FF 7F 66 64 69  32 01 80 21 00           .....fdi2..!.   
```

#### Opcodes

```
  0: 0x0292 [0x42] SET_CLI_EVENT_CANCEL_DATA()
  1: 0x0293 [0x5D] SET_MUSIC_VOLUME(volume=0*, fade_time=300*)
  2: 0x0298 [0x1A] CALL_SUBROUTINE(address=0x0064)
  3: 0x029B [0x46] CAMERA_CONTROL: Disable user control
  4: 0x029D [0x38] SET_CLIENT_EVENT_MODE(mode=147*)
  5: 0x02A0 [0x2F] Uran-Mafran (ID: 17363397/0x0108F1C5)->Render.Flags0 &= ~0x80000 // Bit 19
  6: 0x02A6 [0x2F] Mine Scorpion (ID: 17363399/0x0108F1C7)->Render.Flags0 &= ~0x80000 // Bit 19
  7: 0x02AC [0x2F] Gloom Phantom (ID: 17363394/0x0108F1C2)->Render.Flags0 &= ~0x80000 // Bit 19
  8: 0x02B2 [0x2F] Magh Bihu (ID: 17363395/0x0108F1C3)->Render.Flags0 &= ~0x80000 // Bit 19
  9: 0x02B8 [0x2F] Dazbog (ID: 17363396/0x0108F1C4)->Render.Flags0 &= ~0x80000 // Bit 19
 10: 0x02BE [0x2F] Unnamed NPC (ID: 17363403/0x0108F1CB)->Render.Flags0 &= ~0x80000 // Bit 19
 11: 0x02C4 [0x4E] SET_ENTITY_HIDE_FLAG: Show Uran-Mafran (ID: 17363397/0x0108F1C5)
 12: 0x02CA [0x4E] SET_ENTITY_HIDE_FLAG: Show LocalPlayer
 13: 0x02D0 [0x4E] SET_ENTITY_HIDE_FLAG: Show Mine Scorpion (ID: 17363399/0x0108F1C7)
 14: 0x02D6 [0x4E] SET_ENTITY_HIDE_FLAG: Show Gloom Phantom (ID: 17363394/0x0108F1C2)
 15: 0x02DC [0x4E] SET_ENTITY_HIDE_FLAG: Show Magh Bihu (ID: 17363395/0x0108F1C3)
 16: 0x02E2 [0x4E] SET_ENTITY_HIDE_FLAG: Show Dazbog (ID: 17363396/0x0108F1C4)
 17: 0x02E8 [0x4E] SET_ENTITY_HIDE_FLAG: Show Unnamed NPC (ID: 17363403/0x0108F1CB)
 18: 0x02EE [0x94] Uran-Mafran (ID: 17363397/0x0108F1C5)->Render.Flags3 ^= 0x01
 19: 0x02F4 [0x94] Mine Scorpion (ID: 17363399/0x0108F1C7)->Render.Flags3 ^= 0x01
 20: 0x02FA [0x94] Gloom Phantom (ID: 17363394/0x0108F1C2)->Render.Flags3 ^= 0x01
 21: 0x0300 [0x94] Magh Bihu (ID: 17363395/0x0108F1C3)->Render.Flags3 ^= 0x01
 22: 0x0306 [0x94] Dazbog (ID: 17363396/0x0108F1C4)->Render.Flags3 ^= 0x01
 23: 0x030C [0x94] Unnamed NPC (ID: 17363403/0x0108F1CB)->Render.Flags3 ^= 0x01
 24: 0x0312 [0x94] LocalPlayer->Render.Flags3 ^= 0x01
 25: 0x0318 [0xBA] SET_ENTITY_POSITION(entity_id=Uran-Mafran (ID: 17363397/0x0108F1C5), pos_x=43.421*, pos_z=58.372*, pos_y=-0.145*, direction=320.4°*)
 26: 0x0325 [0xBA] SET_ENTITY_POSITION(entity_id=Mine Scorpion (ID: 17363399/0x0108F1C7), pos_x=49.416*, pos_z=-101.281*, pos_y=-32.076*, direction=230.8°*)
 27: 0x0332 [0xBA] SET_ENTITY_POSITION(entity_id=Gloom Phantom (ID: 17363394/0x0108F1C2), pos_x=38.217*, pos_z=-100.274*, pos_y=-31.790*, direction=180.2°*)
 28: 0x033F [0xBA] SET_ENTITY_POSITION(entity_id=Magh Bihu (ID: 17363395/0x0108F1C3), pos_x=42.298*, pos_z=-101.365*, pos_y=-31.925*, direction=189.9°*)
 29: 0x034C [0xBA] SET_ENTITY_POSITION(entity_id=Dazbog (ID: 17363396/0x0108F1C4), pos_x=39.882*, pos_z=-98.960*, pos_y=-31.886*, direction=179.7°*)
 30: 0x0359 [0x59] UPDATE_ENTITY_DATA: Unnamed NPC (ID: 17363403/0x0108F1CB)->Render.Flags0 |= 0x200000
 31: 0x0360 [0xBA] SET_ENTITY_POSITION(entity_id=Unnamed NPC (ID: 17363403/0x0108F1CB), pos_x=8.595*, pos_z=-95.028*, pos_y=-33.407*, direction=216.5°*)
 32: 0x036D [0xD8] SET_ENTITY_EVENT_DIR: Set Unnamed NPC (ID: 17363403/0x0108F1CB) EventDir[2] = 4294966222*
 33: 0x0375 [0x59] UPDATE_ENTITY_DATA: Unnamed NPC (ID: 17363403/0x0108F1CB)->Render.Flags0 |= 0x200000
 34: 0x037C [0xBA] SET_ENTITY_POSITION(entity_id=LocalPlayer, pos_x=33.785*, pos_z=59.694*, pos_y=0.040*, direction=4.0°*)
 35: 0x0389 [0x80] LOAD_WAIT(entity=Uran-Mafran (ID: 17363397/0x0108F1C5))
 36: 0x038E [0x80] LOAD_WAIT(entity=Mine Scorpion (ID: 17363399/0x0108F1C7))
 37: 0x0393 [0x80] LOAD_WAIT(entity=Gloom Phantom (ID: 17363394/0x0108F1C2))
 38: 0x0398 [0x80] LOAD_WAIT(entity=Magh Bihu (ID: 17363395/0x0108F1C3))
 39: 0x039D [0x80] LOAD_WAIT(entity=Dazbog (ID: 17363396/0x0108F1C4))
 40: 0x03A2 [0x80] LOAD_WAIT(entity=LocalPlayer)
 41: 0x03A7 [0x2C] CREATE_SCHEDULER_TASK: Create scheduler "wpon" with entities [Gloom Phantom (ID: 17363394/0x0108F1C2), Gloom Phantom (ID: 17363394/0x0108F1C2)]
 42: 0x03B4 [0x66] LOAD_EXT_SCHEDULER_MAIN: Load scheduler 0xFEFEFE00 with entities [EventEntity, EventEntity], work=15*
 43: 0x03C3 [0x5C] MUSIC_CONTROL: Set Idle (Day) music to song 127*
 44: 0x03C7 [0x5C] MUSIC_CONTROL: Set Idle (Night) music to song 127*
 45: 0x03CB [0x9A] WAIT_MUSIC_SERVER()
 46: 0x03CC [0x5D] SET_MUSIC_VOLUME(volume=127*, fade_time=1*)
 47: 0x03D1 [0x29] REQ_SET_WAIT(priority=0x0F, entity_id=LocalPlayer, tag_num=0x36)
 48: 0x03D8 [0x27] REQ_SET(priority=0x0F, entity_id=LocalPlayer, tag_num=0x37)
 49: 0x03DF [0x02] IF !(Work_Zone[9] == 5*) GOTO 0x03FB
 50: 0x03E7 [0x45] LOAD_SCHEDULED_TASK: Load scheduler "s019" with entities [EventEntity, EventEntity], work=[853*, 0*]
 51: 0x03F8 [0x01] GOTO 0x0428
 52: 0x03FB [0x02] IF !(Work_Zone[9] == 6*) GOTO 0x0417
 53: 0x0403 [0x45] LOAD_SCHEDULED_TASK: Load scheduler "s019" with entities [EventEntity, EventEntity], work=[853*, 0*]
 54: 0x0414 [0x01] GOTO 0x0428
 55: 0x0417 [0x45] LOAD_SCHEDULED_TASK: Load scheduler "s000" with entities [EventEntity, EventEntity], work=[853*, 0*]

SUBROUTINE_0428:
 56: 0x0428 [0x1A] CALL_SUBROUTINE(address=0x0043)
 57: 0x042B [0x1C] WAIT(60* ticks)
 58: 0x042E [0x79] LocalPlayer looks at Uran-Mafran (ID: 17363397/0x0108F1C5) (Basic look)
 59: 0x0438 [0x1C] WAIT(30* ticks)
 60: 0x043B [0x02] IF !(Work_Zone[9] == 5*) GOTO 0x0455
 61: 0x0443 [0x52] END_LOAD_SCHEDULER: End scheduler "s019" with entities [EventEntity, EventEntity], work=853*
 62: 0x0452 [0x01] GOTO 0x047E
 63: 0x0455 [0x02] IF !(Work_Zone[9] == 6*) GOTO 0x046F
 64: 0x045D [0x52] END_LOAD_SCHEDULER: End scheduler "s019" with entities [EventEntity, EventEntity], work=853*
 65: 0x046C [0x01] GOTO 0x047E
 66: 0x046F [0x52] END_LOAD_SCHEDULER: End scheduler "s000" with entities [EventEntity, EventEntity], work=853*

SUBROUTINE_047E:
 67: 0x047E [0x45] LOAD_SCHEDULED_TASK: Load scheduler "s002" with entities [EventEntity, EventEntity], work=[853*, 0*]
 68: 0x048F [0x1C] WAIT(90* ticks)
 69: 0x0492 [0x4A] Uran-Mafran (ID: 17363397/0x0108F1C5) looks at LocalPlayer
 70: 0x049B [0x6F] WAIT_FRAME_DELAY: Yield until WaitTime reaches zero
 71: 0x049C [0x76] CHECK_ENTITY_RENDER_FLAGS: Wait until Uran-Mafran (ID: 17363397/0x0108F1C5) Render.Flags0 and Render.Flags3 conditions are met
 72: 0x04A1 [0x52] END_LOAD_SCHEDULER: End scheduler "s002" with entities [EventEntity, EventEntity], work=853*
 73: 0x04B0 [0x02] IF !(Work_Zone[9] == 5*) GOTO 0x04CC
 74: 0x04B8 [0x45] LOAD_SCHEDULED_TASK: Load scheduler "s025" with entities [EventEntity, EventEntity], work=[853*, 0*]
 75: 0x04C9 [0x01] GOTO 0x04F9
 76: 0x04CC [0x02] IF !(Work_Zone[9] == 6*) GOTO 0x04E8
 77: 0x04D4 [0x45] LOAD_SCHEDULED_TASK: Load scheduler "s025" with entities [EventEntity, EventEntity], work=[853*, 0*]
 78: 0x04E5 [0x01] GOTO 0x04F9
 79: 0x04E8 [0x45] LOAD_SCHEDULED_TASK: Load scheduler "s001" with entities [EventEntity, EventEntity], work=[853*, 0*]

SUBROUTINE_04F9:
 80: 0x04F9 [0x2A] GET_REQ_LEVEL(level=15, entity_id=LocalPlayer)
 81: 0x04FF [0x4A] Uran-Mafran (ID: 17363397/0x0108F1C5) looks at LocalPlayer
 82: 0x0508 [0x6F] WAIT_FRAME_DELAY: Yield until WaitTime reaches zero
 83: 0x0509 [0x76] CHECK_ENTITY_RENDER_FLAGS: Wait until Uran-Mafran (ID: 17363397/0x0108F1C5) Render.Flags0 and Render.Flags3 conditions are met
 84: 0x050E [0x29] REQ_SET_WAIT(priority=0x0F, entity_id=Uran-Mafran (ID: 17363397/0x0108F1C5), tag_num=0x01)
 85: 0x0515 [0x2B] Uran-Mafran (ID: 17363397/0x0108F1C5) [7568*]:
    → "Ah, it's you again. If you're here, that m-m-must m-m-mean that..."
 86: 0x051C [0x23] WAIT_FOR_DIALOG_INTERACTION
 87: 0x051D [0x29] REQ_SET_WAIT(priority=0x0F, entity_id=Uran-Mafran (ID: 17363397/0x0108F1C5), tag_num=0x02)
 88: 0x0524 [0x29] REQ_SET_WAIT(priority=0x0F, entity_id=Uran-Mafran (ID: 17363397/0x0108F1C5), tag_num=0x03)
 89: 0x052B [0x02] IF !(Work_Zone[9] == 5*) GOTO 0x0545
 90: 0x0533 [0x55] WAIT_LOAD_SCHEDULER: Wait for scheduler "s025" with entities [EventEntity, EventEntity], work=853*
 91: 0x0542 [0x01] GOTO 0x056E
 92: 0x0545 [0x02] IF !(Work_Zone[9] == 6*) GOTO 0x055F
 93: 0x054D [0x55] WAIT_LOAD_SCHEDULER: Wait for scheduler "s025" with entities [EventEntity, EventEntity], work=853*
 94: 0x055C [0x01] GOTO 0x056E
 95: 0x055F [0x55] WAIT_LOAD_SCHEDULER: Wait for scheduler "s001" with entities [EventEntity, EventEntity], work=853*

SUBROUTINE_056E:
 96: 0x056E [0x02] IF !(Work_Zone[9] == 5*) GOTO 0x058A
 97: 0x0576 [0x45] LOAD_SCHEDULED_TASK: Load scheduler "s026" with entities [EventEntity, EventEntity], work=[853*, 0*]
 98: 0x0587 [0x01] GOTO 0x05B7
 99: 0x058A [0x02] IF !(Work_Zone[9] == 6*) GOTO 0x05A6
100: 0x0592 [0x45] LOAD_SCHEDULED_TASK: Load scheduler "s026" with entities [EventEntity, EventEntity], work=[853*, 0*]
101: 0x05A3 [0x01] GOTO 0x05B7
102: 0x05A6 [0x45] LOAD_SCHEDULED_TASK: Load scheduler "s016" with entities [EventEntity, EventEntity], work=[853*, 0*]

SUBROUTINE_05B7:
103: 0x05B7 [0x45] LOAD_SCHEDULED_TASK: Load scheduler "8093" with entities [EventEntity, EventEntity], work=[853*, 0*]
104: 0x05C8 [0x1C] WAIT(50* ticks)
105: 0x05CB [0x29] REQ_SET_WAIT(priority=0x0F, entity_id=Uran-Mafran (ID: 17363397/0x0108F1C5), tag_num=0x08)
106: 0x05D2 [0x02] IF !(Work_Zone[9] == 5*) GOTO 0x05EC
107: 0x05DA [0x52] END_LOAD_SCHEDULER: End scheduler "s026" with entities [EventEntity, EventEntity], work=853*
108: 0x05E9 [0x01] GOTO 0x0615
109: 0x05EC [0x02] IF !(Work_Zone[9] == 6*) GOTO 0x0606
110: 0x05F4 [0x52] END_LOAD_SCHEDULER: End scheduler "s026" with entities [EventEntity, EventEntity], work=853*
111: 0x0603 [0x01] GOTO 0x0615
112: 0x0606 [0x52] END_LOAD_SCHEDULER: End scheduler "s016" with entities [EventEntity, EventEntity], work=853*

SUBROUTINE_0615:
113: 0x0615 [0x45] LOAD_SCHEDULED_TASK: Load scheduler "s003" with entities [EventEntity, EventEntity], work=[853*, 0*]
114: 0x0626 [0x7B] Uran-Mafran (ID: 17363397/0x0108F1C5) stops talking
115: 0x062B [0x29] REQ_SET_WAIT(priority=0x0F, entity_id=Uran-Mafran (ID: 17363397/0x0108F1C5), tag_num=0x09)
116: 0x0632 [0x29] REQ_SET_WAIT(priority=0x0F, entity_id=Uran-Mafran (ID: 17363397/0x0108F1C5), tag_num=0x0A)
117: 0x0639 [0x29] REQ_SET_WAIT(priority=0x0F, entity_id=Uran-Mafran (ID: 17363397/0x0108F1C5), tag_num=0x0B)
118: 0x0640 [0x2B] Uran-Mafran (ID: 17363397/0x0108F1C5) [7569*]:
    → "I have to ask why you are here. If you don't have a good reason, you should not venture any further."
119: 0x0647 [0x23] WAIT_FOR_DIALOG_INTERACTION
120: 0x0648 [0x29] REQ_SET_WAIT(priority=0x0F, entity_id=Uran-Mafran (ID: 17363397/0x0108F1C5), tag_num=0x0C)
121: 0x064F [0x52] END_LOAD_SCHEDULER: End scheduler "s003" with entities [EventEntity, EventEntity], work=853*
122: 0x065E [0x02] IF !(Work_Zone[9] == 3*) GOTO 0x067A
123: 0x0666 [0x45] LOAD_SCHEDULED_TASK: Load scheduler "s004" with entities [EventEntity, EventEntity], work=[853*, 0*]
124: 0x0677 [0x01] GOTO 0x06DF
125: 0x067A [0x02] IF !(Work_Zone[9] == 5*) GOTO 0x0696
126: 0x0682 [0x45] LOAD_SCHEDULED_TASK: Load scheduler "s020" with entities [EventEntity, EventEntity], work=[853*, 0*]
127: 0x0693 [0x01] GOTO 0x06DF
128: 0x0696 [0x02] IF !(Work_Zone[9] == 6*) GOTO 0x06B2
129: 0x069E [0x45] LOAD_SCHEDULED_TASK: Load scheduler "s020" with entities [EventEntity, EventEntity], work=[853*, 0*]
130: 0x06AF [0x01] GOTO 0x06DF
131: 0x06B2 [0x02] IF !(Work_Zone[9] == 8*) GOTO 0x06CE
132: 0x06BA [0x45] LOAD_SCHEDULED_TASK: Load scheduler "s004" with entities [EventEntity, EventEntity], work=[853*, 0*]
133: 0x06CB [0x01] GOTO 0x06DF
134: 0x06CE [0x45] LOAD_SCHEDULED_TASK: Load scheduler "s027" with entities [EventEntity, EventEntity], work=[853*, 0*]

SUBROUTINE_06DF:
135: 0x06DF [0x79] Uran-Mafran (ID: 17363397/0x0108F1C5) looks at LocalPlayer (Basic look)
136: 0x06E9 [0x03] ExtData[1]->WorkLocal[1] = 0*
137: 0x06EE [0x03] Work_Zone[0] = 0*

SUBROUTINE_06F3:
138: 0x06F3 [0x02] IF !(Work_Zone[0] == 2*) GOTO 0x0A6F
139: 0x06FB [0x24] CREATE_DIALOG(message_id=7570*, default_option=0*, option_flags=ExtData[1]->WorkLocal[1])
    → "How do you respond? [Who are you?/What are you doing here?/I'm investigating the Quadav's plans.]"
140: 0x0702 [0x25] WAIT_DIALOG_SELECT()
141: 0x0703 [0x02] IF !(Work_Zone[0] == 0*) GOTO 0x084A
142: 0x070B [0x02] IF !(Work_Zone[9] == 3*) GOTO 0x0725
143: 0x0713 [0x52] END_LOAD_SCHEDULER: End scheduler "s004" with entities [EventEntity, EventEntity], work=853*
144: 0x0722 [0x01] GOTO 0x0782
145: 0x0725 [0x02] IF !(Work_Zone[9] == 5*) GOTO 0x073F
146: 0x072D [0x52] END_LOAD_SCHEDULER: End scheduler "s020" with entities [EventEntity, EventEntity], work=853*
147: 0x073C [0x01] GOTO 0x0782
148: 0x073F [0x02] IF !(Work_Zone[9] == 6*) GOTO 0x0759
149: 0x0747 [0x52] END_LOAD_SCHEDULER: End scheduler "s020" with entities [EventEntity, EventEntity], work=853*
150: 0x0756 [0x01] GOTO 0x0782
151: 0x0759 [0x02] IF !(Work_Zone[9] == 8*) GOTO 0x0773
152: 0x0761 [0x52] END_LOAD_SCHEDULER: End scheduler "s004" with entities [EventEntity, EventEntity], work=853*
153: 0x0770 [0x01] GOTO 0x0782
154: 0x0773 [0x52] END_LOAD_SCHEDULER: End scheduler "s027" with entities [EventEntity, EventEntity], work=853*

SUBROUTINE_0782:
155: 0x0782 [0x45] LOAD_SCHEDULED_TASK: Load scheduler "s005" with entities [EventEntity, EventEntity], work=[853*, 0*]
156: 0x0793 [0x29] REQ_SET_WAIT(priority=0x0F, entity_id=Uran-Mafran (ID: 17363397/0x0108F1C5), tag_num=0x05)
157: 0x079A [0x2B] Uran-Mafran (ID: 17363397/0x0108F1C5) [7571*]:
    → "M-m-my name is Uran-Mafran. As you can see, I am a m-m-mage."
158: 0x07A1 [0x23] WAIT_FOR_DIALOG_INTERACTION
159: 0x07A2 [0x29] REQ_SET_WAIT(priority=0x0F, entity_id=Uran-Mafran (ID: 17363397/0x0108F1C5), tag_num=0x06)
160: 0x07A9 [0x29] REQ_SET_WAIT(priority=0x0F, entity_id=Uran-Mafran (ID: 17363397/0x0108F1C5), tag_num=0x07)
161: 0x07B0 [0x29] REQ_SET_WAIT(priority=0x0F, entity_id=Uran-Mafran (ID: 17363397/0x0108F1C5), tag_num=0x08)
162: 0x07B7 [0x52] END_LOAD_SCHEDULER: End scheduler "s005" with entities [EventEntity, EventEntity], work=853*
163: 0x07C6 [0x02] IF !(Work_Zone[9] == 3*) GOTO 0x07E2
164: 0x07CE [0x45] LOAD_SCHEDULED_TASK: Load scheduler "s004" with entities [EventEntity, EventEntity], work=[853*, 0*]
165: 0x07DF [0x01] GOTO 0x0847
166: 0x07E2 [0x02] IF !(Work_Zone[9] == 5*) GOTO 0x07FE
167: 0x07EA [0x45] LOAD_SCHEDULED_TASK: Load scheduler "s020" with entities [EventEntity, EventEntity], work=[853*, 0*]
168: 0x07FB [0x01] GOTO 0x0847
169: 0x07FE [0x02] IF !(Work_Zone[9] == 6*) GOTO 0x081A
170: 0x0806 [0x45] LOAD_SCHEDULED_TASK: Load scheduler "s020" with entities [EventEntity, EventEntity], work=[853*, 0*]
171: 0x0817 [0x01] GOTO 0x0847
172: 0x081A [0x02] IF !(Work_Zone[9] == 8*) GOTO 0x0836
173: 0x0822 [0x45] LOAD_SCHEDULED_TASK: Load scheduler "s004" with entities [EventEntity, EventEntity], work=[853*, 0*]
174: 0x0833 [0x01] GOTO 0x0847
175: 0x0836 [0x45] LOAD_SCHEDULED_TASK: Load scheduler "s027" with entities [EventEntity, EventEntity], work=[853*, 0*]

SUBROUTINE_0847:
176: 0x0847 [0x01] GOTO 0x0A65
177: 0x084A [0x02] IF !(Work_Zone[0] == 1*) GOTO 0x0991
178: 0x0852 [0x02] IF !(Work_Zone[9] == 3*) GOTO 0x086C
179: 0x085A [0x52] END_LOAD_SCHEDULER: End scheduler "s004" with entities [EventEntity, EventEntity], work=853*
180: 0x0869 [0x01] GOTO 0x08C9
181: 0x086C [0x02] IF !(Work_Zone[9] == 5*) GOTO 0x0886
182: 0x0874 [0x52] END_LOAD_SCHEDULER: End scheduler "s020" with entities [EventEntity, EventEntity], work=853*
183: 0x0883 [0x01] GOTO 0x08C9
184: 0x0886 [0x02] IF !(Work_Zone[9] == 6*) GOTO 0x08A0
185: 0x088E [0x52] END_LOAD_SCHEDULER: End scheduler "s020" with entities [EventEntity, EventEntity], work=853*
186: 0x089D [0x01] GOTO 0x08C9
187: 0x08A0 [0x02] IF !(Work_Zone[9] == 8*) GOTO 0x08BA
188: 0x08A8 [0x52] END_LOAD_SCHEDULER: End scheduler "s004" with entities [EventEntity, EventEntity], work=853*
189: 0x08B7 [0x01] GOTO 0x08C9
190: 0x08BA [0x52] END_LOAD_SCHEDULER: End scheduler "s027" with entities [EventEntity, EventEntity], work=853*

SUBROUTINE_08C9:
191: 0x08C9 [0x45] LOAD_SCHEDULED_TASK: Load scheduler "s005" with entities [EventEntity, EventEntity], work=[853*, 0*]
192: 0x08DA [0x29] REQ_SET_WAIT(priority=0x0F, entity_id=Uran-Mafran (ID: 17363397/0x0108F1C5), tag_num=0x05)
193: 0x08E1 [0x2B] Uran-Mafran (ID: 17363397/0x0108F1C5) [7572*]:
    → "I should be asking you that. Why are you here?"
194: 0x08E8 [0x23] WAIT_FOR_DIALOG_INTERACTION
195: 0x08E9 [0x29] REQ_SET_WAIT(priority=0x0F, entity_id=Uran-Mafran (ID: 17363397/0x0108F1C5), tag_num=0x06)
196: 0x08F0 [0x29] REQ_SET_WAIT(priority=0x0F, entity_id=Uran-Mafran (ID: 17363397/0x0108F1C5), tag_num=0x07)
197: 0x08F7 [0x29] REQ_SET_WAIT(priority=0x0F, entity_id=Uran-Mafran (ID: 17363397/0x0108F1C5), tag_num=0x08)
198: 0x08FE [0x52] END_LOAD_SCHEDULER: End scheduler "s005" with entities [EventEntity, EventEntity], work=853*
199: 0x090D [0x02] IF !(Work_Zone[9] == 3*) GOTO 0x0929
200: 0x0915 [0x45] LOAD_SCHEDULED_TASK: Load scheduler "s004" with entities [EventEntity, EventEntity], work=[853*, 0*]
201: 0x0926 [0x01] GOTO 0x098E
202: 0x0929 [0x02] IF !(Work_Zone[9] == 5*) GOTO 0x0945
203: 0x0931 [0x45] LOAD_SCHEDULED_TASK: Load scheduler "s020" with entities [EventEntity, EventEntity], work=[853*, 0*]
204: 0x0942 [0x01] GOTO 0x098E
205: 0x0945 [0x02] IF !(Work_Zone[9] == 6*) GOTO 0x0961
206: 0x094D [0x45] LOAD_SCHEDULED_TASK: Load scheduler "s020" with entities [EventEntity, EventEntity], work=[853*, 0*]
207: 0x095E [0x01] GOTO 0x098E
208: 0x0961 [0x02] IF !(Work_Zone[9] == 8*) GOTO 0x097D
209: 0x0969 [0x45] LOAD_SCHEDULED_TASK: Load scheduler "s004" with entities [EventEntity, EventEntity], work=[853*, 0*]
210: 0x097A [0x01] GOTO 0x098E
211: 0x097D [0x45] LOAD_SCHEDULED_TASK: Load scheduler "s027" with entities [EventEntity, EventEntity], work=[853*, 0*]

SUBROUTINE_098E:
212: 0x098E [0x01] GOTO 0x0A65
213: 0x0991 [0x02] IF !(Work_Zone[0] == 2*) GOTO 0x0A65
214: 0x0999 [0x29] REQ_SET_WAIT(priority=0x0F, entity_id=LocalPlayer, tag_num=0x38)
215: 0x09A0 [0x1C] WAIT(60* ticks)
216: 0x09A3 [0x1A] CALL_SUBROUTINE(address=0x0064)
217: 0x09A6 [0x02] IF !(Work_Zone[9] == 3*) GOTO 0x09C0
218: 0x09AE [0x52] END_LOAD_SCHEDULER: End scheduler "s004" with entities [EventEntity, EventEntity], work=853*
219: 0x09BD [0x01] GOTO 0x0A1D
220: 0x09C0 [0x02] IF !(Work_Zone[9] == 5*) GOTO 0x09DA
221: 0x09C8 [0x52] END_LOAD_SCHEDULER: End scheduler "s020" with entities [EventEntity, EventEntity], work=853*
222: 0x09D7 [0x01] GOTO 0x0A1D
223: 0x09DA [0x02] IF !(Work_Zone[9] == 6*) GOTO 0x09F4
224: 0x09E2 [0x52] END_LOAD_SCHEDULER: End scheduler "s020" with entities [EventEntity, EventEntity], work=853*
225: 0x09F1 [0x01] GOTO 0x0A1D
226: 0x09F4 [0x02] IF !(Work_Zone[9] == 8*) GOTO 0x0A0E
227: 0x09FC [0x52] END_LOAD_SCHEDULER: End scheduler "s004" with entities [EventEntity, EventEntity], work=853*
228: 0x0A0B [0x01] GOTO 0x0A1D
229: 0x0A0E [0x52] END_LOAD_SCHEDULER: End scheduler "s027" with entities [EventEntity, EventEntity], work=853*

SUBROUTINE_0A1D:
230: 0x0A1D [0x7B] Uran-Mafran (ID: 17363397/0x0108F1C5) stops talking
231: 0x0A22 [0x79] LocalPlayer looks at Uran-Mafran (ID: 17363397/0x0108F1C5) (Basic look)
232: 0x0A2C [0x4B] UPDATE_ENTITY_YAW(entity=LocalPlayer, yaw=0.0°*)
233: 0x0A33 [0x6F] WAIT_FRAME_DELAY: Yield until WaitTime reaches zero
234: 0x0A34 [0x76] CHECK_ENTITY_RENDER_FLAGS: Wait until LocalPlayer Render.Flags0 and Render.Flags3 conditions are met
235: 0x0A39 [0x29] REQ_SET_WAIT(priority=0x0F, entity_id=Uran-Mafran (ID: 17363397/0x0108F1C5), tag_num=0x09)
236: 0x0A40 [0x29] REQ_SET_WAIT(priority=0x0F, entity_id=Uran-Mafran (ID: 17363397/0x0108F1C5), tag_num=0x0A)
237: 0x0A47 [0x29] REQ_SET_WAIT(priority=0x0F, entity_id=LocalPlayer, tag_num=0x39)
238: 0x0A4E [0x45] LOAD_SCHEDULED_TASK: Load scheduler "s006" with entities [EventEntity, EventEntity], work=[853*, 0*]
239: 0x0A5F [0x1A] CALL_SUBROUTINE(address=0x0043)
240: 0x0A62 [0x01] GOTO 0x0A65

SUBROUTINE_0A65:
241: 0x0A65 [0x3C] SET_BIT_FLAG_CONDITIONAL(target_work_offset=ExtData[1]->WorkLocal[1], bit_index_work_offset=Work_Zone[0], condition_work_offset=1*)
242: 0x0A6C [0x01] GOTO 0x06F3
243: 0x0A6F [0x1C] WAIT(60* ticks)
244: 0x0A72 [0x2B] Uran-Mafran (ID: 17363397/0x0108F1C5) [7573*]:
    → "I see... It appears the Republic of Bastok is just as bloodthirsty as the Kingdom of San d'Oria."
245: 0x0A79 [0x1C] WAIT(30* ticks)
246: 0x0A7C [0x52] END_LOAD_SCHEDULER: End scheduler "s006" with entities [EventEntity, EventEntity], work=853*
247: 0x0A8B [0x02] IF !(Work_Zone[9] == 5*) GOTO 0x0AA7
248: 0x0A93 [0x45] LOAD_SCHEDULED_TASK: Load scheduler "s021" with entities [EventEntity, EventEntity], work=[853*, 0*]
249: 0x0AA4 [0x01] GOTO 0x0AD4
250: 0x0AA7 [0x02] IF !(Work_Zone[9] == 6*) GOTO 0x0AC3
251: 0x0AAF [0x45] LOAD_SCHEDULED_TASK: Load scheduler "s021" with entities [EventEntity, EventEntity], work=[853*, 0*]
252: 0x0AC0 [0x01] GOTO 0x0AD4
253: 0x0AC3 [0x45] LOAD_SCHEDULED_TASK: Load scheduler "s007" with entities [EventEntity, EventEntity], work=[853*, 0*]

SUBROUTINE_0AD4:
254: 0x0AD4 [0x23] WAIT_FOR_DIALOG_INTERACTION
255: 0x0AD5 [0x29] REQ_SET_WAIT(priority=0x0F, entity_id=Uran-Mafran (ID: 17363397/0x0108F1C5), tag_num=0x0B)
256: 0x0ADC [0x29] REQ_SET_WAIT(priority=0x0F, entity_id=Uran-Mafran (ID: 17363397/0x0108F1C5), tag_num=0x0C)
257: 0x0AE3 [0x27] REQ_SET(priority=0x0F, entity_id=Uran-Mafran (ID: 17363397/0x0108F1C5), tag_num=0x32)
258: 0x0AEA [0x1C] WAIT(10* ticks)
259: 0x0AED [0x02] IF !(Work_Zone[9] == 5*) GOTO 0x0B07
260: 0x0AF5 [0x52] END_LOAD_SCHEDULER: End scheduler "s021" with entities [EventEntity, EventEntity], work=853*
261: 0x0B04 [0x01] GOTO 0x0B30
262: 0x0B07 [0x02] IF !(Work_Zone[9] == 6*) GOTO 0x0B21
263: 0x0B0F [0x52] END_LOAD_SCHEDULER: End scheduler "s021" with entities [EventEntity, EventEntity], work=853*
264: 0x0B1E [0x01] GOTO 0x0B30
265: 0x0B21 [0x52] END_LOAD_SCHEDULER: End scheduler "s007" with entities [EventEntity, EventEntity], work=853*

SUBROUTINE_0B30:
266: 0x0B30 [0x02] IF !(Work_Zone[9] == 5*) GOTO 0x0B4C
267: 0x0B38 [0x45] LOAD_SCHEDULED_TASK: Load scheduler "s022" with entities [EventEntity, EventEntity], work=[853*, 0*]
268: 0x0B49 [0x01] GOTO 0x0B79
269: 0x0B4C [0x02] IF !(Work_Zone[9] == 6*) GOTO 0x0B68
270: 0x0B54 [0x45] LOAD_SCHEDULED_TASK: Load scheduler "s022" with entities [EventEntity, EventEntity], work=[853*, 0*]
271: 0x0B65 [0x01] GOTO 0x0B79
272: 0x0B68 [0x45] LOAD_SCHEDULED_TASK: Load scheduler "s008" with entities [EventEntity, EventEntity], work=[853*, 0*]

SUBROUTINE_0B79:
273: 0x0B79 [0x2A] GET_REQ_LEVEL(level=15, entity_id=Uran-Mafran (ID: 17363397/0x0108F1C5))
274: 0x0B7F [0x2B] Uran-Mafran (ID: 17363397/0x0108F1C5) [7574*]:
    → "Just recently, the Quadav appeared at the Zeruhn M-M-Mines in pursuit of three beastm-m-men."
275: 0x0B86 [0x23] WAIT_FOR_DIALOG_INTERACTION
276: 0x0B87 [0x02] IF !(Work_Zone[9] == 5*) GOTO 0x0BA1
277: 0x0B8F [0x52] END_LOAD_SCHEDULER: End scheduler "s022" with entities [EventEntity, EventEntity], work=853*
278: 0x0B9E [0x01] GOTO 0x0BCA
279: 0x0BA1 [0x02] IF !(Work_Zone[9] == 6*) GOTO 0x0BBB
280: 0x0BA9 [0x52] END_LOAD_SCHEDULER: End scheduler "s022" with entities [EventEntity, EventEntity], work=853*
281: 0x0BB8 [0x01] GOTO 0x0BCA
282: 0x0BBB [0x52] END_LOAD_SCHEDULER: End scheduler "s008" with entities [EventEntity, EventEntity], work=853*

SUBROUTINE_0BCA:
283: 0x0BCA [0x45] LOAD_SCHEDULED_TASK: Load scheduler "s009" with entities [EventEntity, EventEntity], work=[853*, 0*]
284: 0x0BDB [0x4A] Uran-Mafran (ID: 17363397/0x0108F1C5) looks at LocalPlayer
285: 0x0BE4 [0x6F] WAIT_FRAME_DELAY: Yield until WaitTime reaches zero
286: 0x0BE5 [0x76] CHECK_ENTITY_RENDER_FLAGS: Wait until Uran-Mafran (ID: 17363397/0x0108F1C5) Render.Flags0 and Render.Flags3 conditions are met
287: 0x0BEA [0x29] REQ_SET_WAIT(priority=0x0F, entity_id=Uran-Mafran (ID: 17363397/0x0108F1C5), tag_num=0x01)
288: 0x0BF1 [0x2B] Uran-Mafran (ID: 17363397/0x0108F1C5) [7575*]:
    → "Those beastm-m-men go by the m-m-moniker of the Destiny Destroyers."
289: 0x0BF8 [0x23] WAIT_FOR_DIALOG_INTERACTION
290: 0x0BF9 [0x2B] Uran-Mafran (ID: 17363397/0x0108F1C5) [7576*]:
    → "They journeyed south from the Northlands, eventually arriving here at the Palborough M-M-Mines."
291: 0x0C00 [0x23] WAIT_FOR_DIALOG_INTERACTION
292: 0x0C01 [0x29] REQ_SET_WAIT(priority=0x0F, entity_id=Uran-Mafran (ID: 17363397/0x0108F1C5), tag_num=0x02)
293: 0x0C08 [0x5D] SET_MUSIC_VOLUME(volume=0*, fade_time=300*)
294: 0x0C0D [0x1A] CALL_SUBROUTINE(address=0x0064)
295: 0x0C10 [0x52] END_LOAD_SCHEDULER: End scheduler "s009" with entities [EventEntity, EventEntity], work=853*
296: 0x0C1F [0x27] REQ_SET(priority=0x0F, entity_id=Gloom Phantom (ID: 17363394/0x0108F1C2), tag_num=0x4C)
297: 0x0C26 [0x27] REQ_SET(priority=0x0F, entity_id=Magh Bihu (ID: 17363395/0x0108F1C3), tag_num=0x14)
298: 0x0C2D [0x27] REQ_SET(priority=0x0F, entity_id=Dazbog (ID: 17363396/0x0108F1C4), tag_num=0x11)
299: 0x0C34 [0x27] REQ_SET(priority=0x0F, entity_id=Mine Scorpion (ID: 17363399/0x0108F1C7), tag_num=0x02)
300: 0x0C3B [0x1C] WAIT(2* ticks)
301: 0x0C3E [0x45] LOAD_SCHEDULED_TASK: Load scheduler "s013" with entities [EventEntity, EventEntity], work=[853*, 0*]
302: 0x0C4F [0x1A] CALL_SUBROUTINE(address=0x0043)
303: 0x0C52 [0x29] REQ_SET_WAIT(priority=0x0F, entity_id=Uran-Mafran (ID: 17363397/0x0108F1C5), tag_num=0x03)
304: 0x0C59 [0x2B] Uran-Mafran (ID: 17363397/0x0108F1C5) [7577*]:
    → "And deep within the m-m-mines, they reached their destination in a room filled with Quadav eggs."
305: 0x0C60 [0x23] WAIT_FOR_DIALOG_INTERACTION
306: 0x0C61 [0x29] REQ_SET_WAIT(priority=0x0F, entity_id=Uran-Mafran (ID: 17363397/0x0108F1C5), tag_num=0x04)
307: 0x0C68 [0x45] LOAD_SCHEDULED_TASK: Load scheduler "8274" with entities [Unnamed NPC (ID: 17363403/0x0108F1CB), Unnamed NPC (ID: 17363403/0x0108F1CB)], work=[853*, 0*]
308: 0x0C79 [0x52] END_LOAD_SCHEDULER: End scheduler "s013" with entities [EventEntity, EventEntity], work=853*
309: 0x0C88 [0x45] LOAD_SCHEDULED_TASK: Load scheduler "s014" with entities [EventEntity, EventEntity], work=[853*, 0*]
310: 0x0C99 [0x6C] FADE_ENTITY_COLOR(entity_id=Gloom Phantom (ID: 17363394/0x0108F1C2), end_alpha=0*, fade_time=1*)
311: 0x0CA2 [0x45] LOAD_SCHEDULED_TASK: Load scheduler "8160" with entities [EventEntity, EventEntity], work=[853*, 0*]
312: 0x0CB3 [0x2B] Uran-Mafran (ID: 17363397/0x0108F1C5) [7578*]:
    → "Am-m-mongst all of the Quadav eggs, there was a special "egg" featuring an unusual pattern..."
313: 0x0CBA [0x23] WAIT_FOR_DIALOG_INTERACTION
314: 0x0CBB [0x2B] Uran-Mafran (ID: 17363397/0x0108F1C5) [7579*]:
    → "It was broken open with that m-m-mighty sword."
315: 0x0CC2 [0x23] WAIT_FOR_DIALOG_INTERACTION
316: 0x0CC3 [0x52] END_LOAD_SCHEDULER: End scheduler "s014" with entities [EventEntity, EventEntity], work=853*
317: 0x0CD2 [0x1C] WAIT(10* ticks)
318: 0x0CD5 [0x45] LOAD_SCHEDULED_TASK: Load scheduler "k274" with entities [Unnamed NPC (ID: 17363403/0x0108F1CB), Unnamed NPC (ID: 17363403/0x0108F1CB)], work=[853*, 0*]
319: 0x0CE6 [0x1C] WAIT(1* ticks)
320: 0x0CE9 [0x9F] LOAD_SCHEDULED_TASK_ALT: Load scheduler "main" with entities [Unnamed NPC (ID: 17363403/0x0108F1CB), Unnamed NPC (ID: 17363403/0x0108F1CB)], work=[112*, 0*]
321: 0x0CFA [0x1C] WAIT(90* ticks)
322: 0x0CFD [0x1C] WAIT(30* ticks)
323: 0x0D00 [0x45] LOAD_SCHEDULED_TASK: Load scheduler "6036" with entities [EventEntity, EventEntity], work=[853*, 0*]
324: 0x0D11 [0x1C] WAIT(60* ticks)
325: 0x0D14 [0x48] [System] [7567*]:
    → "@@"
326: 0x0D17 [0x23] WAIT_FOR_DIALOG_INTERACTION
327: 0x0D18 [0x1A] CALL_SUBROUTINE(address=0x020B)
328: 0x0D1B [0xA2] WAIT_LOAD_SCHEDULER_MAIN: Wait for scheduler "main" with entities [Unnamed NPC (ID: 17363403/0x0108F1CB), Unnamed NPC (ID: 17363403/0x0108F1CB)], work=112*
329: 0x0D2A [0x9F] LOAD_SCHEDULED_TASK_ALT: Load scheduler "kill" with entities [Unnamed NPC (ID: 17363403/0x0108F1CB), Unnamed NPC (ID: 17363403/0x0108F1CB)], work=[112*, 0*]
330: 0x0D3B [0x2A] GET_REQ_LEVEL(level=15, entity_id=Gloom Phantom (ID: 17363394/0x0108F1C2))
331: 0x0D41 [0x2A] GET_REQ_LEVEL(level=15, entity_id=Magh Bihu (ID: 17363395/0x0108F1C3))
332: 0x0D47 [0x2A] GET_REQ_LEVEL(level=15, entity_id=Dazbog (ID: 17363396/0x0108F1C4))
333: 0x0D4D [0x2A] GET_REQ_LEVEL(level=15, entity_id=Mine Scorpion (ID: 17363399/0x0108F1C7))
334: 0x0D53 [0x1C] WAIT(1* ticks)
335: 0x0D56 [0x45] LOAD_SCHEDULED_TASK: Load scheduler "blof" with entities [EventEntity, EventEntity], work=[853*, 0*]
336: 0x0D67 [0x1C] WAIT(1* ticks)
337: 0x0D6A [0x89] OPEN_MAP(map_id=0x0000803F)
338: 0x0D6D [0x1C] WAIT(60* ticks)
339: 0x0D70 [0xB4] UI_WINDOW_STRING_HANDLER(case=0x14 - Update map window values, work_offset1=50000*, work_offset2=125000*, work_offset3=1500*, work_offset4=0*, work_offset5=1*)
340: 0x0D7C [0xB4] UI_WINDOW_STRING_HANDLER(case=0x14 - Update map window values, work_offset1=0*, work_offset2=0*, work_offset3=1000*, work_offset4=300*, work_offset5=1*)
341: 0x0D88 [0x1A] CALL_SUBROUTINE(address=0x01F9)
342: 0x0D8B [0x2B] Uran-Mafran (ID: 17363397/0x0108F1C5) [7580*]:
    → "As a result, it let out powerful m-m-magic, which devoured all of the m-m-monsters in the area."
343: 0x0D92 [0x23] WAIT_FOR_DIALOG_INTERACTION
344: 0x0D93 [0x1C] WAIT(60* ticks)
345: 0x0D96 [0x2B] Uran-Mafran (ID: 17363397/0x0108F1C5) [7581*]:
    → "It was determined to eat everything in its path."
346: 0x0D9D [0x23] WAIT_FOR_DIALOG_INTERACTION
347: 0x0D9E [0x1C] WAIT(60* ticks)
348: 0x0DA1 [0x2B] Uran-Mafran (ID: 17363397/0x0108F1C5) [7582*]:
    → "Naturally, the nearby Quadav eggs were consum-m-med as well."
349: 0x0DA8 [0x23] WAIT_FOR_DIALOG_INTERACTION
350: 0x0DA9 [0x1C] WAIT(60* ticks)
351: 0x0DAC [0x1A] CALL_SUBROUTINE(address=0x020B)
352: 0x0DAF [0x8A] CLOSE_MAP()
353: 0x0DB0 [0xB4] UI_WINDOW_STRING_HANDLER(case=0x15 - Test map window validity)
354: 0x0DB2 [0x1C] WAIT(30* ticks)
355: 0x0DB5 [0x7B] Uran-Mafran (ID: 17363397/0x0108F1C5) stops talking
356: 0x0DBA [0x5C] MUSIC_CONTROL: Set Idle (Day) music to song 27*
357: 0x0DBE [0x5C] MUSIC_CONTROL: Set Idle (Night) music to song 27*
358: 0x0DC2 [0x9A] WAIT_MUSIC_SERVER()
359: 0x0DC3 [0x5D] SET_MUSIC_VOLUME(volume=127*, fade_time=1*)
360: 0x0DC8 [0x1A] CALL_SUBROUTINE(address=0x0064)
361: 0x0DCB [0x1A] CALL_SUBROUTINE(address=0x01F9)
362: 0x0DCE [0x2B] Uran-Mafran (ID: 17363397/0x0108F1C5) [7583*]:
    → "The Quadav were raging m-m-mad. They resolved to execute the m-m-monster as well as the three beastm-m-men responsible for the whole affair."
363: 0x0DD5 [0x23] WAIT_FOR_DIALOG_INTERACTION
364: 0x0DD6 [0x48] [System] [7567*]:
    → "@@"
365: 0x0DD9 [0x23] WAIT_FOR_DIALOG_INTERACTION
366: 0x0DDA [0x02] IF !(Work_Zone[9] == 5*) GOTO 0x0DF6
367: 0x0DE2 [0x45] LOAD_SCHEDULED_TASK: Load scheduler "s023" with entities [EventEntity, EventEntity], work=[853*, 0*]
368: 0x0DF3 [0x01] GOTO 0x0E23
369: 0x0DF6 [0x02] IF !(Work_Zone[9] == 6*) GOTO 0x0E12
370: 0x0DFE [0x45] LOAD_SCHEDULED_TASK: Load scheduler "s023" with entities [EventEntity, EventEntity], work=[853*, 0*]
371: 0x0E0F [0x01] GOTO 0x0E23
372: 0x0E12 [0x45] LOAD_SCHEDULED_TASK: Load scheduler "s010" with entities [EventEntity, EventEntity], work=[853*, 0*]

SUBROUTINE_0E23:
373: 0x0E23 [0x27] REQ_SET(priority=0x0F, entity_id=Uran-Mafran (ID: 17363397/0x0108F1C5), tag_num=0x33)
374: 0x0E2A [0x1A] CALL_SUBROUTINE(address=0x0043)
375: 0x0E2D [0x2B] Uran-Mafran (ID: 17363397/0x0108F1C5) [7584*]:
    → "Why was that egg here? How long was it here? Who brought it, and from where?"
376: 0x0E34 [0x23] WAIT_FOR_DIALOG_INTERACTION
377: 0x0E35 [0x2A] GET_REQ_LEVEL(level=15, entity_id=Uran-Mafran (ID: 17363397/0x0108F1C5))
378: 0x0E3B [0x29] REQ_SET_WAIT(priority=0x0F, entity_id=Uran-Mafran (ID: 17363397/0x0108F1C5), tag_num=0x0D)
379: 0x0E42 [0x2B] Uran-Mafran (ID: 17363397/0x0108F1C5) [7585*]:
    → "Not even I know the answers to such questions, which is why I m-m-must ask the Quadav."
380: 0x0E49 [0x23] WAIT_FOR_DIALOG_INTERACTION
381: 0x0E4A [0x29] REQ_SET_WAIT(priority=0x0F, entity_id=Uran-Mafran (ID: 17363397/0x0108F1C5), tag_num=0x0E)
382: 0x0E51 [0x02] IF !(Work_Zone[9] == 5*) GOTO 0x0E6B
383: 0x0E59 [0x52] END_LOAD_SCHEDULER: End scheduler "s023" with entities [EventEntity, EventEntity], work=853*
384: 0x0E68 [0x01] GOTO 0x0E94
385: 0x0E6B [0x02] IF !(Work_Zone[9] == 6*) GOTO 0x0E85
386: 0x0E73 [0x52] END_LOAD_SCHEDULER: End scheduler "s023" with entities [EventEntity, EventEntity], work=853*
387: 0x0E82 [0x01] GOTO 0x0E94
388: 0x0E85 [0x52] END_LOAD_SCHEDULER: End scheduler "s010" with entities [EventEntity, EventEntity], work=853*

SUBROUTINE_0E94:
389: 0x0E94 [0x02] IF !(Work_Zone[9] == 5*) GOTO 0x0EB0
390: 0x0E9C [0x45] LOAD_SCHEDULED_TASK: Load scheduler "s024" with entities [EventEntity, EventEntity], work=[853*, 0*]
391: 0x0EAD [0x01] GOTO 0x0EDD
392: 0x0EB0 [0x02] IF !(Work_Zone[9] == 6*) GOTO 0x0ECC
393: 0x0EB8 [0x45] LOAD_SCHEDULED_TASK: Load scheduler "s024" with entities [EventEntity, EventEntity], work=[853*, 0*]
394: 0x0EC9 [0x01] GOTO 0x0EDD
395: 0x0ECC [0x45] LOAD_SCHEDULED_TASK: Load scheduler "s011" with entities [EventEntity, EventEntity], work=[853*, 0*]

SUBROUTINE_0EDD:
396: 0x0EDD [0x4A] Uran-Mafran (ID: 17363397/0x0108F1C5) looks at LocalPlayer
397: 0x0EE6 [0x6F] WAIT_FRAME_DELAY: Yield until WaitTime reaches zero
398: 0x0EE7 [0x76] CHECK_ENTITY_RENDER_FLAGS: Wait until Uran-Mafran (ID: 17363397/0x0108F1C5) Render.Flags0 and Render.Flags3 conditions are met
399: 0x0EEC [0x29] REQ_SET_WAIT(priority=0x0F, entity_id=Uran-Mafran (ID: 17363397/0x0108F1C5), tag_num=0x0F)
400: 0x0EF3 [0x2B] Uran-Mafran (ID: 17363397/0x0108F1C5) [7586*]:
    → "Ah, that rem-m-minds me. You are an adventurer; I need your help. Of course, you will be com-m-mpensated for your trouble."
401: 0x0EFA [0x23] WAIT_FOR_DIALOG_INTERACTION
402: 0x0EFB [0x29] REQ_SET_WAIT(priority=0x0F, entity_id=Uran-Mafran (ID: 17363397/0x0108F1C5), tag_num=0x10)
403: 0x0F02 [0x02] IF !(Work_Zone[9] == 5*) GOTO 0x0F1C
404: 0x0F0A [0x52] END_LOAD_SCHEDULER: End scheduler "s024" with entities [EventEntity, EventEntity], work=853*
405: 0x0F19 [0x01] GOTO 0x0F45
406: 0x0F1C [0x02] IF !(Work_Zone[9] == 6*) GOTO 0x0F36
407: 0x0F24 [0x52] END_LOAD_SCHEDULER: End scheduler "s024" with entities [EventEntity, EventEntity], work=853*
408: 0x0F33 [0x01] GOTO 0x0F45
409: 0x0F36 [0x52] END_LOAD_SCHEDULER: End scheduler "s011" with entities [EventEntity, EventEntity], work=853*

SUBROUTINE_0F45:
410: 0x0F45 [0x45] LOAD_SCHEDULED_TASK: Load scheduler "s015" with entities [EventEntity, EventEntity], work=[853*, 0*]
411: 0x0F56 [0x29] REQ_SET_WAIT(priority=0x0F, entity_id=Uran-Mafran (ID: 17363397/0x0108F1C5), tag_num=0x0F)
412: 0x0F5D [0x2B] Uran-Mafran (ID: 17363397/0x0108F1C5) [7587*]:
    → "I need you to find the mind-warped scorpion that lies up ahead and slay it for m-m-me."
413: 0x0F64 [0x23] WAIT_FOR_DIALOG_INTERACTION
414: 0x0F65 [0x2B] Uran-Mafran (ID: 17363397/0x0108F1C5) [7588*]:
    → "If you do, that could calm the Quadav's rage and allow us to talk to them. That will also m-m-make Bastok's request easier as well."
415: 0x0F6C [0x23] WAIT_FOR_DIALOG_INTERACTION
416: 0x0F6D [0x29] REQ_SET_WAIT(priority=0x0F, entity_id=Uran-Mafran (ID: 17363397/0x0108F1C5), tag_num=0x10)
417: 0x0F74 [0x52] END_LOAD_SCHEDULER: End scheduler "s015" with entities [EventEntity, EventEntity], work=853*
418: 0x0F83 [0x45] LOAD_SCHEDULED_TASK: Load scheduler "s017" with entities [EventEntity, EventEntity], work=[853*, 0*]
419: 0x0F94 [0x2B] Uran-Mafran (ID: 17363397/0x0108F1C5) [7589*]:
    → "Let's go, <Player>. The truth awaits us..."
420: 0x0F9B [0x23] WAIT_FOR_DIALOG_INTERACTION
421: 0x0F9C [0x52] END_LOAD_SCHEDULER: End scheduler "s017" with entities [EventEntity, EventEntity], work=853*
422: 0x0FAB [0x45] LOAD_SCHEDULED_TASK: Load scheduler "s018" with entities [EventEntity, EventEntity], work=[853*, 0*]
423: 0x0FBC [0x5D] SET_MUSIC_VOLUME(volume=0*, fade_time=300*)
424: 0x0FC1 [0x27] REQ_SET(priority=0x0F, entity_id=Uran-Mafran (ID: 17363397/0x0108F1C5), tag_num=0x34)
425: 0x0FC8 [0x1C] WAIT(90* ticks)
426: 0x0FCB [0x1C] WAIT(30* ticks)
427: 0x0FCE [0x1A] CALL_SUBROUTINE(address=0x0064)
428: 0x0FD1 [0x52] END_LOAD_SCHEDULER: End scheduler "s018" with entities [EventEntity, EventEntity], work=853*
429: 0x0FE0 [0x1C] WAIT(15* ticks)
430: 0x0FE3 [0x5C] MUSIC_CONTROL: Set Idle (Day) music to song 0*
431: 0x0FE7 [0x5C] MUSIC_CONTROL: Set Idle (Night) music to song 0*
432: 0x0FEB [0x9A] WAIT_MUSIC_SERVER()
433: 0x0FEC [0x5D] SET_MUSIC_VOLUME(volume=127*, fade_time=1*)
434: 0x0FF1 [0xAB] EventEntity->DespawnValue = 0* // Set despawn value
435: 0x0FF5 [0x1C] WAIT(1* ticks)
436: 0x0FF8 [0x46] CAMERA_CONTROL: Restore default settings
437: 0x0FFA [0x45] LOAD_SCHEDULED_TASK: Load scheduler "fdi2" with entities [EventEntity, EventEntity], work=[200*, 0*]
438: 0x100B [0x21] END_EVENT
439: 0x100C [0x00] END_REQSTACK()
```

### Event 130

#### Metadata

| Field        | Value      |
|--------------|------------|
| Entrypoint   | 0x100D     |
| Data Size    | 2097 bytes |
| Instructions | 288        |

```
      00 01 02 03 04 05 06 07  08 09 0A 0B 0C 0D 0E 0F
      -- -- -- -- -- -- -- --  -- -- -- -- -- -- -- --
1000:                                         42 5D 01               B].
1010: 80 08 80 1A 64 00 46 01  38 09 80 2F 00 C2 F1 08  ....d.F.8../....
1020: 01 2F 00 C3 F1 08 01 2F  00 C4 F1 08 01 2F 00 C6  ./...../...../..
1030: F1 08 01 2F 00 C8 F1 08  01 2F 00 C9 F1 08 01 2F  .../...../...../
1040: 00 CA F1 08 01 4E 00 C2  F1 08 01 4E 00 C3 F1 08  .....N.....N....
1050: 01 4E 00 C4 F1 08 01 4E  00 C6 F1 08 01 4E 00 C8  .N.....N.....N..
1060: F1 08 01 4E 00 C9 F1 08  01 4E 00 CA F1 08 01 94  ...N.....N......
1070: 01 C2 F1 08 01 94 01 C3  F1 08 01 94 01 C4 F1 08  ................
1080: 01 94 01 C6 F1 08 01 94  01 C8 F1 08 01 94 01 C9  ................
1090: F1 08 01 94 01 CA F1 08  01 94 01 F0 FF FF 7F BA  ................
10A0: C2 F1 08 01 4F 80 50 80  51 80 52 80 BA C3 F1 08  ....O.P.Q.R.....
10B0: 01 53 80 54 80 55 80 56  80 BA C4 F1 08 01 57 80  .S.T.U.V......W.
10C0: 58 80 59 80 5A 80 BA C6  F1 08 01 5B 80 5C 80 5D  X.Y.Z......[.\.]
10D0: 80 5E 80 BA C8 F1 08 01  5F 80 60 80 61 80 62 80  .^......_.`.a.b.
10E0: BA C9 F1 08 01 63 80 64  80 65 80 66 80 BA CA F1  .....c.d.e.f....
10F0: 08 01 67 80 68 80 65 80  69 80 BA F0 FF FF 7F 6A  ..g.h.e.i......j
1100: 80 6B 80 6C 80 6D 80 2C  C6 F1 08 01 C6 F1 08 01  .k.l.m.,........
1110: 65 66 6F 6E 53 C6 F1 08  01 C6 F1 08 01 65 66 6F  efonS........efo
1120: 6E 2C C8 F1 08 01 C8 F1  08 01 63 6F 72 70 53 C8  n,........corpS.
1130: F1 08 01 C8 F1 08 01 63  6F 72 70 2C C9 F1 08 01  .......corp,....
1140: C9 F1 08 01 63 6F 72 70  53 C9 F1 08 01 C9 F1 08  ....corpS.......
1150: 01 63 6F 72 70 2C CA F1  08 01 CA F1 08 01 63 6F  .corp,........co
1160: 72 70 53 CA F1 08 01 CA  F1 08 01 63 6F 72 70 80  rpS........corp.
1170: C2 F1 08 01 80 C3 F1 08  01 80 C4 F1 08 01 80 C6  ................
1180: F1 08 01 80 C8 F1 08 01  80 C9 F1 08 01 80 CA F1  ................
1190: 08 01 80 F0 FF FF 7F 29  0F C2 F1 08 01 4E 29 0F  .......).....N).
11A0: C3 F1 08 01 16 29 0F C4  F1 08 01 13 1C 03 80 2C  .....).........,
11B0: C2 F1 08 01 C2 F1 08 01  77 70 6F 6E 29 0F F0 FF  ........wpon)...
11C0: FF 7F 36 5C 00 47 80 5C  01 47 80 9A 5D 27 80 03  ..6\.G.\.G..]'..
11D0: 80 45 29 80 F8 FF FF 7F  F8 FF FF 7F 73 30 32 38  .E).........s028
11E0: 01 80 1A 43 00 45 29 80  F8 FF FF 7F F8 FF FF 7F  ...C.E).........
11F0: 38 31 36 30 01 80 1C 2B  80 27 0F C6 F1 08 01 03  8160...+.'......
1200: 1C 2B 80 2A 0F C6 F1 08  01 52 29 80 F8 FF FF 7F  .+.*.....R).....
1210: F8 FF FF 7F 73 30 32 38  45 29 80 F8 FF FF 7F F8  ....s028E)......
1220: FF FF 7F 73 30 32 39 01  80 1C 06 80 27 0F C6 F1  ...s029.....'...
1230: 08 01 04 1C 6E 80 2A 0F  C6 F1 08 01 27 0F C2 F1  ....n.*.....'...
1240: 08 01 50 1C 28 80 27 0F  C3 F1 08 01 18 27 0F C4  ..P.(.'......'..
1250: F1 08 01 15 52 29 80 F8  FF FF 7F F8 FF FF 7F 73  ....R).........s
1260: 30 32 39 45 29 80 F8 FF  FF 7F F8 FF FF 7F 73 30  029E).........s0
1270: 33 30 01 80 1C 2B 80 1C  06 80 1C 25 80 52 29 80  30...+.....%.R).
1280: F8 FF FF 7F F8 FF FF 7F  73 30 33 30 45 29 80 F8  ........s030E)..
1290: FF FF 7F F8 FF FF 7F 73  30 33 37 01 80 2B C2 F1  .......s037..+..
12A0: 08 01 6F 80 1C 25 80 23  52 29 80 F8 FF FF 7F F8  ..o..%.#R)......
12B0: FF FF 7F 73 30 33 37 45  29 80 F8 FF FF 7F F8 FF  ...s037E).......
12C0: FF 7F 73 30 33 38 01 80  1C 2B 80 2A 0F C2 F1 08  ..s038...+.*....
12D0: 01 52 29 80 F8 FF FF 7F  F8 FF FF 7F 73 30 33 38  .R).........s038
12E0: 45 29 80 F8 FF FF 7F F8  FF FF 7F 73 30 33 34 01  E).........s034.
12F0: 80 4A F0 FF FF 7F C2 F1  08 01 1C 06 80 29 0F C2  .J...........)..
1300: F1 08 01 29 2B C2 F1 08  01 70 80 79 00 C3 F1 08  ...)+....p.y....
1310: 01 C2 F1 08 01 23 29 0F  C2 F1 08 01 2A 6F 76 F0  .....#).....*ov.
1320: FF FF 7F 52 29 80 F8 FF  FF 7F F8 FF FF 7F 73 30  ...R).........s0
1330: 33 34 45 29 80 F8 FF FF  7F F8 FF FF 7F 73 30 33  34E).........s03
1340: 31 01 80 2A 0F C3 F1 08  01 29 0F C2 F1 08 01 2B  1..*.....).....+
1350: 29 0F C3 F1 08 01 01 2B  C3 F1 08 01 71 80 1C 36  )......+....q..6
1360: 80 4B C2 F1 08 01 72 80  6F 76 C2 F1 08 01 23 29  .K....r.ov....#)
1370: 0F C3 F1 08 01 02 29 0F  C2 F1 08 01 2C 52 29 80  ......).....,R).
1380: F8 FF FF 7F F8 FF FF 7F  73 30 33 31 45 29 80 F8  ........s031E)..
1390: FF FF 7F F8 FF FF 7F 73  30 33 32 01 80 29 0F C3  .......s032..)..
13A0: F1 08 01 03 29 0F C2 F1  08 01 1B 2B C2 F1 08 01  ....)......+....
13B0: 73 80 23 29 0F C2 F1 08  01 1C 29 0F C3 F1 08 01  s.#)......).....
13C0: 04 52 29 80 F8 FF FF 7F  F8 FF FF 7F 73 30 33 32  .R).........s032
13D0: 45 29 80 F8 FF FF 7F F8  FF FF 7F 73 30 34 34 01  E).........s044.
13E0: 80 4A C4 F1 08 01 C2 F1  08 01 29 0F C2 F1 08 01  .J........).....
13F0: 1D 29 0F C3 F1 08 01 0B  2B C3 F1 08 01 74 80 23  .)......+....t.#
1400: 29 0F C3 F1 08 01 0C 29  0F C2 F1 08 01 1E 6F 76  )......)......ov
1410: C4 F1 08 01 52 29 80 F8  FF FF 7F F8 FF FF 7F 73  ....R).........s
1420: 30 34 34 45 29 80 F8 FF  FF 7F F8 FF FF 7F 73 30  044E).........s0
1430: 33 33 01 80 2A 0F C4 F1  08 01 2B C4 F1 08 01 75  33..*.....+....u
1440: 80 1C 36 80 4A C2 F1 08  01 C4 F1 08 01 4A C3 F1  ..6.J........J..
1450: 08 01 C4 F1 08 01 6F 76  C2 F1 08 01 6F 76 C3 F1  ......ov....ov..
1460: 08 01 23 27 0F C6 F1 08  01 05 29 0F C2 F1 08 01  ..#'......).....
1470: 29 2B C2 F1 08 01 76 80  23 29 0F C2 F1 08 01 2A  )+....v.#).....*
1480: 29 0F C4 F1 08 01 0C 4A  C3 F1 08 01 C2 F1 08 01  )......J........
1490: 29 0F C2 F1 08 01 2B 2B  C4 F1 08 01 77 80 1C 06  ).....++....w...
14A0: 80 52 29 80 F8 FF FF 7F  F8 FF FF 7F 73 30 33 33  .R).........s033
14B0: 45 29 80 F8 FF FF 7F F8  FF FF 7F 73 30 33 39 01  E).........s039.
14C0: 80 23 6F 76 C3 F1 08 01  2A 0F C6 F1 08 01 29 0F  .#ov....*.....).
14D0: C2 F1 08 01 2C 52 29 80  F8 FF FF 7F F8 FF FF 7F  ....,R).........
14E0: 73 30 33 39 45 29 80 F8  FF FF 7F F8 FF FF 7F 73  s039E).........s
14F0: 30 34 35 01 80 29 0F C3  F1 08 01 09 2B C3 F1 08  045..)......+...
1500: 01 78 80 1C 36 80 4A C2  F1 08 01 C3 F1 08 01 6F  .x..6.J........o
1510: 76 C2 F1 08 01 23 29 0F  C3 F1 08 01 0A 29 0F C4  v....#)......)..
1520: F1 08 01 0D 52 29 80 F8  FF FF 7F F8 FF FF 7F 73  ....R).........s
1530: 30 34 35 45 29 80 F8 FF  FF 7F F8 FF FF 7F 73 30  045E).........s0
1540: 33 35 01 80 4A C4 F1 08  01 C6 F1 08 01 6F 76 C4  35..J........ov.
1550: F1 08 01 2B C4 F1 08 01  79 80 1C 36 80 27 0F C6  ...+....y..6.'..
1560: F1 08 01 06 4A C2 F1 08  01 C6 F1 08 01 4A C3 F1  ....J........J..
1570: 08 01 C6 F1 08 01 6F 76  C2 F1 08 01 6F 76 C3 F1  ......ov....ov..
1580: 08 01 23 29 0F C2 F1 08  01 29 2B C2 F1 08 01 7A  ..#).....)+....z
1590: 80 1C 36 80 23 2A 0F C6  F1 08 01 29 0F C2 F1 08  ..6.#*.....)....
15A0: 01 2A 29 0F C2 F1 08 01  2B 4A C4 F1 08 01 F0 FF  .*).....+J......
15B0: FF 7F 6F 76 C4 F1 08 01  52 29 80 F8 FF FF 7F F8  ..ov....R)......
15C0: FF FF 7F 73 30 33 35 02  09 10 30 80 00 E3 15 45  ...s035...0....E
15D0: 29 80 F8 FF FF 7F F8 FF  FF 7F 73 30 33 36 01 80  ).........s036..
15E0: 01 48 16 02 09 10 28 80  00 FF 15 45 29 80 F8 FF  .H....(....E)...
15F0: FF 7F F8 FF FF 7F 73 30  34 36 01 80 01 48 16 02  ......s046...H..
1600: 09 10 2A 80 00 1B 16 45  29 80 F8 FF FF 7F F8 FF  ..*....E).......
1610: FF 7F 73 30 34 36 01 80  01 48 16 02 09 10 31 80  ..s046...H....1.
1620: 00 37 16 45 29 80 F8 FF  FF 7F F8 FF FF 7F 73 30  .7.E).........s0
1630: 33 36 01 80 01 48 16 45  29 80 F8 FF FF 7F F8 FF  36...H.E).......
1640: FF 7F 73 30 34 37 01 80  2B C4 F1 08 01 7B 80 1C  ..s047..+....{..
1650: 36 80 29 0F C2 F1 08 01  2C 4A C2 F1 08 01 F0 FF  6.).....,J......
1660: FF 7F 6F 76 C2 F1 08 01  1C 36 80 4A C3 F1 08 01  ..ov.....6.J....
1670: F0 FF FF 7F 6F 76 C3 F1  08 01 23 2B C2 F1 08 01  ....ov....#+....
1680: 7C 80 1C 2B 80 02 09 10  30 80 00 9F 16 52 29 80  |..+....0....R).
1690: F8 FF FF 7F F8 FF FF 7F  73 30 33 36 01 FC 16 02  ........s036....
16A0: 09 10 28 80 00 B9 16 52  29 80 F8 FF FF 7F F8 FF  ..(....R).......
16B0: FF 7F 73 30 34 36 01 FC  16 02 09 10 2A 80 00 D3  ..s046......*...
16C0: 16 52 29 80 F8 FF FF 7F  F8 FF FF 7F 73 30 34 36  .R).........s046
16D0: 01 FC 16 02 09 10 31 80  00 ED 16 52 29 80 F8 FF  ......1....R)...
16E0: FF 7F F8 FF FF 7F 73 30  33 36 01 FC 16 52 29 80  ......s036...R).
16F0: F8 FF FF 7F F8 FF FF 7F  73 30 34 37 45 29 80 F8  ........s047E)..
1700: FF FF 7F F8 FF FF 7F 73  30 34 31 01 80 1C 2E 80  .......s041.....
1710: 23 52 29 80 F8 FF FF 7F  F8 FF FF 7F 73 30 34 31  #R).........s041
1720: 45 29 80 F8 FF FF 7F F8  FF FF 7F 73 30 34 30 01  E).........s040.
1730: 80 29 0F C2 F1 08 01 31  2B C4 F1 08 01 7D 80 23  .).....1+....}.#
1740: 29 0F C2 F1 08 01 32 29  0F C2 F1 08 01 33 2B C2  ).....2).....3+.
1750: F1 08 01 7E 80 23 29 0F  C2 F1 08 01 34 52 29 80  ...~.#).....4R).
1760: F8 FF FF 7F F8 FF FF 7F  73 30 34 30 45 29 80 F8  ........s040E)..
1770: FF FF 7F F8 FF FF 7F 73  30 34 33 01 80 2B C4 F1  .......s043..+..
1780: 08 01 7F 80 6B 69 64 6C  30 C2 F1 08 01 4A C2 F1  ....kidl0....J..
1790: 08 01 F0 FF FF 7F 6F 76  C2 F1 08 01 23 29 0F C2  ......ov....#)..
17A0: F1 08 01 17 1C 28 80 52  29 80 F8 FF FF 7F F8 FF  .....(.R).......
17B0: FF 7F 73 30 34 33 45 29  80 F8 FF FF 7F F8 FF FF  ..s043E)........
17C0: 7F 73 30 34 32 01 80 2B  C2 F1 08 01 80 80 1C 81  .s042..+........
17D0: 80 6E F0 FF FF 7F 82 80  99 F0 FF FF 7F 23 5D 01  .n...........#].
17E0: 80 08 80 1A 64 00 52 29  80 F8 FF FF 7F F8 FF FF  ....d.R)........
17F0: 7F 73 30 34 32 29 0F C2  F1 08 01 18 1C 26 80 29  .s042).......&.)
1800: 0F C2 F1 08 01 4F 29 0F  C3 F1 08 01 17 29 0F C4  .....O)......)..
1810: F1 08 01 14 5C 00 01 80  5C 01 01 80 9A 5D 27 80  ....\...\....]'.
1820: 03 80 AB 11 01 80 1C 03  80 46 00 45 00 80 F8 FF  .........F.E....
1830: FF 7F F8 FF FF 7F 66 64  69 32 01 80 21 00        ......fdi2..!.  
```

#### Opcodes

```
  0: 0x100D [0x42] SET_CLI_EVENT_CANCEL_DATA()
  1: 0x100E [0x5D] SET_MUSIC_VOLUME(volume=0*, fade_time=300*)
  2: 0x1013 [0x1A] CALL_SUBROUTINE(address=0x0064)
  3: 0x1016 [0x46] CAMERA_CONTROL: Disable user control
  4: 0x1018 [0x38] SET_CLIENT_EVENT_MODE(mode=147*)
  5: 0x101B [0x2F] Gloom Phantom (ID: 17363394/0x0108F1C2)->Render.Flags0 &= ~0x80000 // Bit 19
  6: 0x1021 [0x2F] Magh Bihu (ID: 17363395/0x0108F1C3)->Render.Flags0 &= ~0x80000 // Bit 19
  7: 0x1027 [0x2F] Dazbog (ID: 17363396/0x0108F1C4)->Render.Flags0 &= ~0x80000 // Bit 19
  8: 0x102D [0x2F] Mind-warped Scorpion (ID: 17363398/0x0108F1C6)->Render.Flags0 &= ~0x80000 // Bit 19
  9: 0x1033 [0x2F] Old Quadav (ID: 17363400/0x0108F1C8)->Render.Flags0 &= ~0x80000 // Bit 19
 10: 0x1039 [0x2F] Copper Quadav (ID: 17363401/0x0108F1C9)->Render.Flags0 &= ~0x80000 // Bit 19
 11: 0x103F [0x2F] Brass Quadav (ID: 17363402/0x0108F1CA)->Render.Flags0 &= ~0x80000 // Bit 19
 12: 0x1045 [0x4E] SET_ENTITY_HIDE_FLAG: Show Gloom Phantom (ID: 17363394/0x0108F1C2)
 13: 0x104B [0x4E] SET_ENTITY_HIDE_FLAG: Show Magh Bihu (ID: 17363395/0x0108F1C3)
 14: 0x1051 [0x4E] SET_ENTITY_HIDE_FLAG: Show Dazbog (ID: 17363396/0x0108F1C4)
 15: 0x1057 [0x4E] SET_ENTITY_HIDE_FLAG: Show Mind-warped Scorpion (ID: 17363398/0x0108F1C6)
 16: 0x105D [0x4E] SET_ENTITY_HIDE_FLAG: Show Old Quadav (ID: 17363400/0x0108F1C8)
 17: 0x1063 [0x4E] SET_ENTITY_HIDE_FLAG: Show Copper Quadav (ID: 17363401/0x0108F1C9)
 18: 0x1069 [0x4E] SET_ENTITY_HIDE_FLAG: Show Brass Quadav (ID: 17363402/0x0108F1CA)
 19: 0x106F [0x94] Gloom Phantom (ID: 17363394/0x0108F1C2)->Render.Flags3 ^= 0x01
 20: 0x1075 [0x94] Magh Bihu (ID: 17363395/0x0108F1C3)->Render.Flags3 ^= 0x01
 21: 0x107B [0x94] Dazbog (ID: 17363396/0x0108F1C4)->Render.Flags3 ^= 0x01
 22: 0x1081 [0x94] Mind-warped Scorpion (ID: 17363398/0x0108F1C6)->Render.Flags3 ^= 0x01
 23: 0x1087 [0x94] Old Quadav (ID: 17363400/0x0108F1C8)->Render.Flags3 ^= 0x01
 24: 0x108D [0x94] Copper Quadav (ID: 17363401/0x0108F1C9)->Render.Flags3 ^= 0x01
 25: 0x1093 [0x94] Brass Quadav (ID: 17363402/0x0108F1CA)->Render.Flags3 ^= 0x01
 26: 0x1099 [0x94] LocalPlayer->Render.Flags3 ^= 0x01
 27: 0x109F [0xBA] SET_ENTITY_POSITION(entity_id=Gloom Phantom (ID: 17363394/0x0108F1C2), pos_x=99.775*, pos_z=-79.501*, pos_y=-32.356*, direction=271.7°*)
 28: 0x10AC [0xBA] SET_ENTITY_POSITION(entity_id=Magh Bihu (ID: 17363395/0x0108F1C3), pos_x=101.308*, pos_z=-82.800*, pos_y=-31.914*, direction=265.6°*)
 29: 0x10B9 [0xBA] SET_ENTITY_POSITION(entity_id=Dazbog (ID: 17363396/0x0108F1C4), pos_x=99.109*, pos_z=-86.060*, pos_y=-32.032*, direction=276.7°*)
 30: 0x10C6 [0xBA] SET_ENTITY_POSITION(entity_id=Mind-warped Scorpion (ID: 17363398/0x0108F1C6), pos_x=99.660*, pos_z=-59.834*, pos_y=-32.001*, direction=298.8°*)
 31: 0x10D3 [0xBA] SET_ENTITY_POSITION(entity_id=Old Quadav (ID: 17363400/0x0108F1C8), pos_x=97.822*, pos_z=-57.470*, pos_y=-31.999*, direction=222.3°*)
 32: 0x10E0 [0xBA] SET_ENTITY_POSITION(entity_id=Copper Quadav (ID: 17363401/0x0108F1C9), pos_x=97.636*, pos_z=-60.936*, pos_y=-31.989*, direction=138.8°*)
 33: 0x10ED [0xBA] SET_ENTITY_POSITION(entity_id=Brass Quadav (ID: 17363402/0x0108F1CA), pos_x=100.910*, pos_z=-57.062*, pos_y=-31.989*, direction=298.2°*)
 34: 0x10FA [0xBA] SET_ENTITY_POSITION(entity_id=LocalPlayer, pos_x=89.025*, pos_z=-60.167*, pos_y=-31.978*, direction=3.3°*)
 35: 0x1107 [0x2C] CREATE_SCHEDULER_TASK: Create scheduler "efon" with entities [Mind-warped Scorpion (ID: 17363398/0x0108F1C6), Mind-warped Scorpion (ID: 17363398/0x0108F1C6)]
 36: 0x1114 [0x53] WAIT_SCHEDULER_TASK: Wait for scheduler "efon" with entities [Mind-warped Scorpion (ID: 17363398/0x0108F1C6), Mind-warped Scorpion (ID: 17363398/0x0108F1C6)]
 37: 0x1121 [0x2C] CREATE_SCHEDULER_TASK: Create scheduler "corp" with entities [Old Quadav (ID: 17363400/0x0108F1C8), Old Quadav (ID: 17363400/0x0108F1C8)]
 38: 0x112E [0x53] WAIT_SCHEDULER_TASK: Wait for scheduler "corp" with entities [Old Quadav (ID: 17363400/0x0108F1C8), Old Quadav (ID: 17363400/0x0108F1C8)]
 39: 0x113B [0x2C] CREATE_SCHEDULER_TASK: Create scheduler "corp" with entities [Copper Quadav (ID: 17363401/0x0108F1C9), Copper Quadav (ID: 17363401/0x0108F1C9)]
 40: 0x1148 [0x53] WAIT_SCHEDULER_TASK: Wait for scheduler "corp" with entities [Copper Quadav (ID: 17363401/0x0108F1C9), Copper Quadav (ID: 17363401/0x0108F1C9)]
 41: 0x1155 [0x2C] CREATE_SCHEDULER_TASK: Create scheduler "corp" with entities [Brass Quadav (ID: 17363402/0x0108F1CA), Brass Quadav (ID: 17363402/0x0108F1CA)]
 42: 0x1162 [0x53] WAIT_SCHEDULER_TASK: Wait for scheduler "corp" with entities [Brass Quadav (ID: 17363402/0x0108F1CA), Brass Quadav (ID: 17363402/0x0108F1CA)]
 43: 0x116F [0x80] LOAD_WAIT(entity=Gloom Phantom (ID: 17363394/0x0108F1C2))
 44: 0x1174 [0x80] LOAD_WAIT(entity=Magh Bihu (ID: 17363395/0x0108F1C3))
 45: 0x1179 [0x80] LOAD_WAIT(entity=Dazbog (ID: 17363396/0x0108F1C4))
 46: 0x117E [0x80] LOAD_WAIT(entity=Mind-warped Scorpion (ID: 17363398/0x0108F1C6))
 47: 0x1183 [0x80] LOAD_WAIT(entity=Old Quadav (ID: 17363400/0x0108F1C8))
 48: 0x1188 [0x80] LOAD_WAIT(entity=Copper Quadav (ID: 17363401/0x0108F1C9))
 49: 0x118D [0x80] LOAD_WAIT(entity=Brass Quadav (ID: 17363402/0x0108F1CA))
 50: 0x1192 [0x80] LOAD_WAIT(entity=LocalPlayer)
 51: 0x1197 [0x29] REQ_SET_WAIT(priority=0x0F, entity_id=Gloom Phantom (ID: 17363394/0x0108F1C2), tag_num=0x4E)
 52: 0x119E [0x29] REQ_SET_WAIT(priority=0x0F, entity_id=Magh Bihu (ID: 17363395/0x0108F1C3), tag_num=0x16)
 53: 0x11A5 [0x29] REQ_SET_WAIT(priority=0x0F, entity_id=Dazbog (ID: 17363396/0x0108F1C4), tag_num=0x13)
 54: 0x11AC [0x1C] WAIT(1* ticks)
 55: 0x11AF [0x2C] CREATE_SCHEDULER_TASK: Create scheduler "wpon" with entities [Gloom Phantom (ID: 17363394/0x0108F1C2), Gloom Phantom (ID: 17363394/0x0108F1C2)]
 56: 0x11BC [0x29] REQ_SET_WAIT(priority=0x0F, entity_id=LocalPlayer, tag_num=0x36)
 57: 0x11C3 [0x5C] MUSIC_CONTROL: Set Idle (Day) music to song 27*
 58: 0x11C7 [0x5C] MUSIC_CONTROL: Set Idle (Night) music to song 27*
 59: 0x11CB [0x9A] WAIT_MUSIC_SERVER()
 60: 0x11CC [0x5D] SET_MUSIC_VOLUME(volume=127*, fade_time=1*)
 61: 0x11D1 [0x45] LOAD_SCHEDULED_TASK: Load scheduler "s028" with entities [EventEntity, EventEntity], work=[853*, 0*]
 62: 0x11E2 [0x1A] CALL_SUBROUTINE(address=0x0043)
 63: 0x11E5 [0x45] LOAD_SCHEDULED_TASK: Load scheduler "8160" with entities [EventEntity, EventEntity], work=[853*, 0*]
 64: 0x11F6 [0x1C] WAIT(60* ticks)
 65: 0x11F9 [0x27] REQ_SET(priority=0x0F, entity_id=Mind-warped Scorpion (ID: 17363398/0x0108F1C6), tag_num=0x03)
 66: 0x1200 [0x1C] WAIT(60* ticks)
 67: 0x1203 [0x2A] GET_REQ_LEVEL(level=15, entity_id=Mind-warped Scorpion (ID: 17363398/0x0108F1C6))
 68: 0x1209 [0x52] END_LOAD_SCHEDULER: End scheduler "s028" with entities [EventEntity, EventEntity], work=853*
 69: 0x1218 [0x45] LOAD_SCHEDULED_TASK: Load scheduler "s029" with entities [EventEntity, EventEntity], work=[853*, 0*]
 70: 0x1229 [0x1C] WAIT(30* ticks)
 71: 0x122C [0x27] REQ_SET(priority=0x0F, entity_id=Mind-warped Scorpion (ID: 17363398/0x0108F1C6), tag_num=0x04)
 72: 0x1233 [0x1C] WAIT(150* ticks)
 73: 0x1236 [0x2A] GET_REQ_LEVEL(level=15, entity_id=Mind-warped Scorpion (ID: 17363398/0x0108F1C6))
 74: 0x123C [0x27] REQ_SET(priority=0x0F, entity_id=Gloom Phantom (ID: 17363394/0x0108F1C2), tag_num=0x50)
 75: 0x1243 [0x1C] WAIT(5* ticks)
 76: 0x1246 [0x27] REQ_SET(priority=0x0F, entity_id=Magh Bihu (ID: 17363395/0x0108F1C3), tag_num=0x18)
 77: 0x124D [0x27] REQ_SET(priority=0x0F, entity_id=Dazbog (ID: 17363396/0x0108F1C4), tag_num=0x15)
 78: 0x1254 [0x52] END_LOAD_SCHEDULER: End scheduler "s029" with entities [EventEntity, EventEntity], work=853*
 79: 0x1263 [0x45] LOAD_SCHEDULED_TASK: Load scheduler "s030" with entities [EventEntity, EventEntity], work=[853*, 0*]
 80: 0x1274 [0x1C] WAIT(60* ticks)
 81: 0x1277 [0x1C] WAIT(30* ticks)
 82: 0x127A [0x1C] WAIT(40* ticks)
 83: 0x127D [0x52] END_LOAD_SCHEDULER: End scheduler "s030" with entities [EventEntity, EventEntity], work=853*
 84: 0x128C [0x45] LOAD_SCHEDULED_TASK: Load scheduler "s037" with entities [EventEntity, EventEntity], work=[853*, 0*]
 85: 0x129D [0x2B] Gloom Phantom (ID: 17363394/0x0108F1C2) [7590*]:
    → "Curse the Quadav... Those idiots really screwed things up!"
 86: 0x12A4 [0x1C] WAIT(40* ticks)
 87: 0x12A7 [0x23] WAIT_FOR_DIALOG_INTERACTION
 88: 0x12A8 [0x52] END_LOAD_SCHEDULER: End scheduler "s037" with entities [EventEntity, EventEntity], work=853*
 89: 0x12B7 [0x45] LOAD_SCHEDULED_TASK: Load scheduler "s038" with entities [EventEntity, EventEntity], work=[853*, 0*]
 90: 0x12C8 [0x1C] WAIT(60* ticks)
 91: 0x12CB [0x2A] GET_REQ_LEVEL(level=15, entity_id=Gloom Phantom (ID: 17363394/0x0108F1C2))
 92: 0x12D1 [0x52] END_LOAD_SCHEDULER: End scheduler "s038" with entities [EventEntity, EventEntity], work=853*
 93: 0x12E0 [0x45] LOAD_SCHEDULED_TASK: Load scheduler "s034" with entities [EventEntity, EventEntity], work=[853*, 0*]
 94: 0x12F1 [0x4A] LocalPlayer looks at Gloom Phantom (ID: 17363394/0x0108F1C2)
 95: 0x12FA [0x1C] WAIT(30* ticks)
 96: 0x12FD [0x29] REQ_SET_WAIT(priority=0x0F, entity_id=Gloom Phantom (ID: 17363394/0x0108F1C2), tag_num=0x29)
 97: 0x1304 [0x2B] Gloom Phantom (ID: 17363394/0x0108F1C2) [7591*]:
    → "They've gone and made me mad! I don't care what they've got to say for themselves!"
 98: 0x130B [0x79] Magh Bihu (ID: 17363395/0x0108F1C3) looks at Gloom Phantom (ID: 17363394/0x0108F1C2) (Basic look)
 99: 0x1315 [0x23] WAIT_FOR_DIALOG_INTERACTION
100: 0x1316 [0x29] REQ_SET_WAIT(priority=0x0F, entity_id=Gloom Phantom (ID: 17363394/0x0108F1C2), tag_num=0x2A)
101: 0x131D [0x6F] WAIT_FRAME_DELAY: Yield until WaitTime reaches zero
102: 0x131E [0x76] CHECK_ENTITY_RENDER_FLAGS: Wait until LocalPlayer Render.Flags0 and Render.Flags3 conditions are met
103: 0x1323 [0x52] END_LOAD_SCHEDULER: End scheduler "s034" with entities [EventEntity, EventEntity], work=853*
104: 0x1332 [0x45] LOAD_SCHEDULED_TASK: Load scheduler "s031" with entities [EventEntity, EventEntity], work=[853*, 0*]
105: 0x1343 [0x2A] GET_REQ_LEVEL(level=15, entity_id=Magh Bihu (ID: 17363395/0x0108F1C3))
106: 0x1349 [0x29] REQ_SET_WAIT(priority=0x0F, entity_id=Gloom Phantom (ID: 17363394/0x0108F1C2), tag_num=0x2B)
107: 0x1350 [0x29] REQ_SET_WAIT(priority=0x0F, entity_id=Magh Bihu (ID: 17363395/0x0108F1C3), tag_num=0x01)
108: 0x1357 [0x2B] Magh Bihu (ID: 17363395/0x0108F1C3) [7592*]:
    → "I think I kinda figure something out. Person with strange marking brought egg..."
109: 0x135E [0x1C] WAIT(10* ticks)
110: 0x1361 [0x4B] UPDATE_ENTITY_YAW(entity=Gloom Phantom (ID: 17363394/0x0108F1C2), yaw=3.3°*)
111: 0x1368 [0x6F] WAIT_FRAME_DELAY: Yield until WaitTime reaches zero
112: 0x1369 [0x76] CHECK_ENTITY_RENDER_FLAGS: Wait until Gloom Phantom (ID: 17363394/0x0108F1C2) Render.Flags0 and Render.Flags3 conditions are met
113: 0x136E [0x23] WAIT_FOR_DIALOG_INTERACTION
114: 0x136F [0x29] REQ_SET_WAIT(priority=0x0F, entity_id=Magh Bihu (ID: 17363395/0x0108F1C3), tag_num=0x02)
115: 0x1376 [0x29] REQ_SET_WAIT(priority=0x0F, entity_id=Gloom Phantom (ID: 17363394/0x0108F1C2), tag_num=0x2C)
116: 0x137D [0x52] END_LOAD_SCHEDULER: End scheduler "s031" with entities [EventEntity, EventEntity], work=853*
117: 0x138C [0x45] LOAD_SCHEDULED_TASK: Load scheduler "s032" with entities [EventEntity, EventEntity], work=[853*, 0*]
118: 0x139D [0x29] REQ_SET_WAIT(priority=0x0F, entity_id=Magh Bihu (ID: 17363395/0x0108F1C3), tag_num=0x03)
119: 0x13A4 [0x29] REQ_SET_WAIT(priority=0x0F, entity_id=Gloom Phantom (ID: 17363394/0x0108F1C2), tag_num=0x1B)
120: 0x13AB [0x2B] Gloom Phantom (ID: 17363394/0x0108F1C2) [7593*]:
    → "The Quadav aren't like the Orcs or the Yagudo. I didn't think they'd just throw away the egg."
121: 0x13B2 [0x23] WAIT_FOR_DIALOG_INTERACTION
122: 0x13B3 [0x29] REQ_SET_WAIT(priority=0x0F, entity_id=Gloom Phantom (ID: 17363394/0x0108F1C2), tag_num=0x1C)
123: 0x13BA [0x29] REQ_SET_WAIT(priority=0x0F, entity_id=Magh Bihu (ID: 17363395/0x0108F1C3), tag_num=0x04)
124: 0x13C1 [0x52] END_LOAD_SCHEDULER: End scheduler "s032" with entities [EventEntity, EventEntity], work=853*
125: 0x13D0 [0x45] LOAD_SCHEDULED_TASK: Load scheduler "s044" with entities [EventEntity, EventEntity], work=[853*, 0*]
126: 0x13E1 [0x4A] Dazbog (ID: 17363396/0x0108F1C4) looks at Gloom Phantom (ID: 17363394/0x0108F1C2)
127: 0x13EA [0x29] REQ_SET_WAIT(priority=0x0F, entity_id=Gloom Phantom (ID: 17363394/0x0108F1C2), tag_num=0x1D)
128: 0x13F1 [0x29] REQ_SET_WAIT(priority=0x0F, entity_id=Magh Bihu (ID: 17363395/0x0108F1C3), tag_num=0x0B)
129: 0x13F8 [0x2B] Magh Bihu (ID: 17363395/0x0108F1C3) [7594*]:
    → "That's why we break open egg. Location for breaking egg not so good though..."
130: 0x13FF [0x23] WAIT_FOR_DIALOG_INTERACTION
131: 0x1400 [0x29] REQ_SET_WAIT(priority=0x0F, entity_id=Magh Bihu (ID: 17363395/0x0108F1C3), tag_num=0x0C)
132: 0x1407 [0x29] REQ_SET_WAIT(priority=0x0F, entity_id=Gloom Phantom (ID: 17363394/0x0108F1C2), tag_num=0x1E)
133: 0x140E [0x6F] WAIT_FRAME_DELAY: Yield until WaitTime reaches zero
134: 0x140F [0x76] CHECK_ENTITY_RENDER_FLAGS: Wait until Dazbog (ID: 17363396/0x0108F1C4) Render.Flags0 and Render.Flags3 conditions are met
135: 0x1414 [0x52] END_LOAD_SCHEDULER: End scheduler "s044" with entities [EventEntity, EventEntity], work=853*
136: 0x1423 [0x45] LOAD_SCHEDULED_TASK: Load scheduler "s033" with entities [EventEntity, EventEntity], work=[853*, 0*]
137: 0x1434 [0x2A] GET_REQ_LEVEL(level=15, entity_id=Dazbog (ID: 17363396/0x0108F1C4))
138: 0x143A [0x2B] Dazbog (ID: 17363396/0x0108F1C4) [7595*]:
    → "W-we should've talked to the Quadav first, and then broke the egg."
139: 0x1441 [0x1C] WAIT(10* ticks)
140: 0x1444 [0x4A] Gloom Phantom (ID: 17363394/0x0108F1C2) looks at Dazbog (ID: 17363396/0x0108F1C4)
141: 0x144D [0x4A] Magh Bihu (ID: 17363395/0x0108F1C3) looks at Dazbog (ID: 17363396/0x0108F1C4)
142: 0x1456 [0x6F] WAIT_FRAME_DELAY: Yield until WaitTime reaches zero
143: 0x1457 [0x76] CHECK_ENTITY_RENDER_FLAGS: Wait until Gloom Phantom (ID: 17363394/0x0108F1C2) Render.Flags0 and Render.Flags3 conditions are met
144: 0x145C [0x6F] WAIT_FRAME_DELAY: Yield until WaitTime reaches zero
145: 0x145D [0x76] CHECK_ENTITY_RENDER_FLAGS: Wait until Magh Bihu (ID: 17363395/0x0108F1C3) Render.Flags0 and Render.Flags3 conditions are met
146: 0x1462 [0x23] WAIT_FOR_DIALOG_INTERACTION
147: 0x1463 [0x27] REQ_SET(priority=0x0F, entity_id=Mind-warped Scorpion (ID: 17363398/0x0108F1C6), tag_num=0x05)
148: 0x146A [0x29] REQ_SET_WAIT(priority=0x0F, entity_id=Gloom Phantom (ID: 17363394/0x0108F1C2), tag_num=0x29)
149: 0x1471 [0x2B] Gloom Phantom (ID: 17363394/0x0108F1C2) [7596*]:
    → "Huh? Dazbog! It's a little late for that now!"
150: 0x1478 [0x23] WAIT_FOR_DIALOG_INTERACTION
151: 0x1479 [0x29] REQ_SET_WAIT(priority=0x0F, entity_id=Gloom Phantom (ID: 17363394/0x0108F1C2), tag_num=0x2A)
152: 0x1480 [0x29] REQ_SET_WAIT(priority=0x0F, entity_id=Dazbog (ID: 17363396/0x0108F1C4), tag_num=0x0C)
153: 0x1487 [0x4A] Magh Bihu (ID: 17363395/0x0108F1C3) looks at Gloom Phantom (ID: 17363394/0x0108F1C2)
154: 0x1490 [0x29] REQ_SET_WAIT(priority=0x0F, entity_id=Gloom Phantom (ID: 17363394/0x0108F1C2), tag_num=0x2B)
155: 0x1497 [0x2B] Dazbog (ID: 17363396/0x0108F1C4) [7597*]:
    → "I-I'm sorry. I know we need to hurry, but..."
156: 0x149E [0x1C] WAIT(30* ticks)
157: 0x14A1 [0x52] END_LOAD_SCHEDULER: End scheduler "s033" with entities [EventEntity, EventEntity], work=853*
158: 0x14B0 [0x45] LOAD_SCHEDULED_TASK: Load scheduler "s039" with entities [EventEntity, EventEntity], work=[853*, 0*]
159: 0x14C1 [0x23] WAIT_FOR_DIALOG_INTERACTION
160: 0x14C2 [0x6F] WAIT_FRAME_DELAY: Yield until WaitTime reaches zero
161: 0x14C3 [0x76] CHECK_ENTITY_RENDER_FLAGS: Wait until Magh Bihu (ID: 17363395/0x0108F1C3) Render.Flags0 and Render.Flags3 conditions are met
162: 0x14C8 [0x2A] GET_REQ_LEVEL(level=15, entity_id=Mind-warped Scorpion (ID: 17363398/0x0108F1C6))
163: 0x14CE [0x29] REQ_SET_WAIT(priority=0x0F, entity_id=Gloom Phantom (ID: 17363394/0x0108F1C2), tag_num=0x2C)
164: 0x14D5 [0x52] END_LOAD_SCHEDULER: End scheduler "s039" with entities [EventEntity, EventEntity], work=853*
165: 0x14E4 [0x45] LOAD_SCHEDULED_TASK: Load scheduler "s045" with entities [EventEntity, EventEntity], work=[853*, 0*]
166: 0x14F5 [0x29] REQ_SET_WAIT(priority=0x0F, entity_id=Magh Bihu (ID: 17363395/0x0108F1C3), tag_num=0x09)
167: 0x14FC [0x2B] Magh Bihu (ID: 17363395/0x0108F1C3) [7598*]:
    → "Yes, we need hurry. We also receive fan letter from land across the sea."
168: 0x1503 [0x1C] WAIT(10* ticks)
169: 0x1506 [0x4A] Gloom Phantom (ID: 17363394/0x0108F1C2) looks at Magh Bihu (ID: 17363395/0x0108F1C3)
170: 0x150F [0x6F] WAIT_FRAME_DELAY: Yield until WaitTime reaches zero
171: 0x1510 [0x76] CHECK_ENTITY_RENDER_FLAGS: Wait until Gloom Phantom (ID: 17363394/0x0108F1C2) Render.Flags0 and Render.Flags3 conditions are met
172: 0x1515 [0x23] WAIT_FOR_DIALOG_INTERACTION
173: 0x1516 [0x29] REQ_SET_WAIT(priority=0x0F, entity_id=Magh Bihu (ID: 17363395/0x0108F1C3), tag_num=0x0A)
174: 0x151D [0x29] REQ_SET_WAIT(priority=0x0F, entity_id=Dazbog (ID: 17363396/0x0108F1C4), tag_num=0x0D)
175: 0x1524 [0x52] END_LOAD_SCHEDULER: End scheduler "s045" with entities [EventEntity, EventEntity], work=853*
176: 0x1533 [0x45] LOAD_SCHEDULED_TASK: Load scheduler "s035" with entities [EventEntity, EventEntity], work=[853*, 0*]
