# 17363386

## Common Data

| Field            | Value                      |
|------------------|----------------------------|
| Zone             | Palborough Mines (ID: 143) |
| Block Size       | 5600 bytes                 |
| Total Events     | 4                          |
| References Count | 94                         |

## List of Events

| Event ID              | Entrypoint   |   Size |   Instructions |
|-----------------------|--------------|--------|----------------|
| [65535](#event-65535) | 0x0000       |      1 |              1 |
| [126](#event-126)     | 0x0001       |   1520 |            167 |
| [127](#event-127)     | 0x05F1       |    826 |            101 |
| [128](#event-128)     | 0x092B       |   2842 |            359 |

## DAT References (imed_data)

|   Index | Hex Value   |   Dec Value |
|---------|-------------|-------------|
|       0 | 0x00C8      |         200 |
|       1 | 0x0000      |           0 |
|       2 | 0x0013      |          19 |
|       3 | 0x4A38      |       19000 |
|       4 | 0x126A6     |       75430 |
|       5 | 0xFFFF835A  |  4294935386 |
|       6 | 0xFFFFFC01  |  4294966273 |
|       7 | 0x003C      |          60 |
|       8 | 0x49B6      |       18870 |
|       9 | 0x13BDC     |       80860 |
|      10 | 0xFFFF8364  |  4294935396 |
|      11 | 0x0003      |           3 |
|      12 | 0x0310      |         784 |
|      13 | 0x0005      |           5 |
|      14 | 0x0006      |           6 |
|      15 | 0x0008      |           8 |
|      16 | 0x1D48      |        7496 |
|      17 | 0x0002      |           2 |
|      18 | 0x0001      |           1 |
|      19 | 0x1D49      |        7497 |
|      20 | 0x005A      |          90 |
|      21 | 0x1D4A      |        7498 |
|      22 | 0x001E      |          30 |
|      23 | 0x0010      |          16 |
|      24 | 0x00B4      |         180 |
|      25 | 0x1D4B      |        7499 |
|      26 | 0x00ED      |         237 |
|      27 | 0x1D4C      |        7500 |
|      28 | 0x0020      |          32 |
|      29 | 0x0096      |         150 |
|      30 | 0x1D4D      |        7501 |
|      31 | 0x0078      |         120 |
|      32 | 0x1D4E      |        7502 |
|      33 | 0x000F      |          15 |
|      34 | 0x533E      |       21310 |
|      35 | 0x10446     |       66630 |
|      36 | 0xFFFF8350  |  4294935376 |
|      37 | 0x4EF2      |       20210 |
|      38 | 0x10392     |       66450 |
|      39 | 0xFFFF8328  |  4294935336 |
|      40 | 0x54A6      |       21670 |
|      41 | 0x14500     |       83200 |
|      42 | 0xFFFF8026  |  4294934566 |
|      43 | 0x05FF      |        1535 |
|      44 | 0x48A8      |       18600 |
|      45 | 0x1368C     |       79500 |
|      46 | 0xFFFF8346  |  4294935366 |
|      47 | 0x00F0      |         240 |
|      48 | 0x0073      |         115 |
|      49 | 0x0080      |         128 |
|      50 | 0x00F9      |         249 |
|      51 | 0x000A      |          10 |
|      52 | 0x00D2      |         210 |
|      53 | 0x1D4F      |        7503 |
|      54 | 0x1D50      |        7504 |
|      55 | 0x00C9      |         201 |
|      56 | 0x0066      |         102 |
|      57 | 0x007F      |         127 |
|      58 | 0x54F6      |       21750 |
|      59 | 0x112C4     |       70340 |
|      60 | 0x4D94      |       19860 |
|      61 | 0x11288     |       70280 |
|      62 | 0xFFFF8314  |  4294935316 |
|      63 | 0x4ECA      |       20170 |
|      64 | 0x13CC2     |       81090 |
|      65 | 0xFFFF83D2  |  4294935506 |
|      66 | 0x0075      |         117 |
|      67 | 0x002D      |          45 |
|      68 | 0x1D53      |        7507 |
|      69 | 0x010D      |         269 |
|      70 | 0x1D54      |        7508 |
|      71 | 0x1D55      |        7509 |
|      72 | 0x1D56      |        7510 |
|      73 | 0x1D57      |        7511 |
|      74 | 0x1D58      |        7512 |
|      75 | 0x0095      |         149 |
|      76 | 0x1D59      |        7513 |
|      77 | 0x1D5A      |        7514 |
|      78 | 0x0009      |           9 |
|      79 | 0x1D5B      |        7515 |
|      80 | 0x1D5C      |        7516 |
|      81 | 0x0007      |           7 |
|      82 | 0x1D5D      |        7517 |
|      83 | 0x1D5E      |        7518 |
|      84 | 0x1D5F      |        7519 |
|      85 | 0x0024      |          36 |
|      86 | 0x112B      |        4395 |
|      87 | 0x1D60      |        7520 |
|      88 | 0x1D61      |        7521 |
|      89 | 0x0016      |          22 |
|      90 | 0x1D62      |        7522 |
|      91 | 0x0004      |           4 |
|      92 | 0x004B      |          75 |
|      93 | 0x0069      |         105 |

## String References

- **7496**: You see something glisten in a crack in the bedrock.
- **7497**: What do you do? [Reach in for it./Bang on the rock./Think.]
- **7498**: The crack is too tight for your hand to reach it.
- **7499**: The rock doesn't budge.
- **7500**: Your hand hurts.
- **7501**: It looks like only explosives will get this crack open, but how to split the rock without destroying whatever is on the other side?
- **7502**: It might be best to head back to Raibaht for advice.
- **7503**: Wait! What are you doing!?
- **7504**: Not there! That wall isn't safe!
- **7507**: Looks like the explosives were unscathed.

## Events

### Event 65535

#### Metadata

| Field        | Value   |
|--------------|---------|
| Entrypoint   | 0x0000  |
| Data Size    | 1 bytes |
| Instructions | 1       |

```
      00 01 02 03 04 05 06 07  08 09 0A 0B 0C 0D 0E 0F
      -- -- -- -- -- -- -- --  -- -- -- -- -- -- -- --
0000: 00                                                .               
```

#### Opcodes

```
  0: 0x0000 [0x00] END_REQSTACK()
```

### Event 126

#### Metadata

| Field        | Value      |
|--------------|------------|
| Entrypoint   | 0x0001     |
| Data Size    | 1520 bytes |
| Instructions | 119        |

```
      00 01 02 03 04 05 06 07  08 09 0A 0B 0C 0D 0E 0F
      -- -- -- -- -- -- -- --  -- -- -- -- -- -- -- --
0000:    42 45 00 80 F0 FF FF  7F F0 FF FF 7F 66 64 6F   BE..........fdo
0010: 31 01 80 55 00 80 F0 FF  FF 7F F0 FF FF 7F 66 64  1..U..........fd
0020: 6F 31 46 01 38 02 80 94  01 F0 FF FF 7F BA F0 FF  o1F.8...........
0030: FF 7F 03 80 04 80 05 80  06 80 BA C0 F1 08 01 01  ................
0040: 80 01 80 01 80 01 80 2F  00 C0 F1 08 01 1C 07 80  ......./........
0050: BA C0 F1 08 01 08 80 09  80 0A 80 01 80 45 00 80  .............E..
0060: F0 FF FF 7F F0 FF FF 7F  66 64 69 31 01 80 02 87  ........fdi1....
0070: 7F 0B 80 80 8A 00 45 0C  80 F8 FF FF 7F F8 FF FF  ......E.........
0080: 7F 73 67 30 30 01 80 01  EF 00 02 87 7F 0D 80 80  .sg00...........
0090: A6 00 45 0C 80 F8 FF FF  7F F8 FF FF 7F 73 74 30  ..E..........st0
00A0: 30 01 80 01 EF 00 02 87  7F 0E 80 80 C2 00 45 0C  0.............E.
00B0: 80 F8 FF FF 7F F8 FF FF  7F 73 74 30 30 01 80 01  .........st00...
00C0: EF 00 02 87 7F 0F 80 80  DE 00 45 0C 80 F8 FF FF  ..........E.....
00D0: 7F F8 FF FF 7F 73 67 30  30 01 80 01 EF 00 45 0C  .....sg00.....E.
00E0: 80 F8 FF FF 7F F8 FF FF  7F 73 30 30 30 01 80 1C  .........s000...
00F0: 07 80 62 0B 80 BB F1 08  01 BB F1 08 01 6D 61 69  ..b..........mai
0100: 6E 01 80 27 10 F0 FF FF  7F 42 2A 10 F0 FF FF 7F  n..'.....B*.....
0110: 48 10 80 06 01 00 06 02  00 3C 00 00 11 80 12 80  H........<......
0120: 24 13 80 02 00 00 00 25  02 00 10 01 80 00 51 03  $......%......Q.
0130: 02 87 7F 0B 80 80 6A 01  52 0C 80 F8 FF FF 7F F8  ......j.R.......
0140: FF FF 7F 73 67 30 30 52  0C 80 F8 FF FF 7F F8 FF  ...sg00R........
0150: FF 7F 73 67 30 31 45 0C  80 F8 FF FF 7F F8 FF FF  ..sg01E.........
0160: 7F 73 67 30 32 01 80 01  47 02 02 87 7F 0D 80 80  .sg02...G.......
0170: A4 01 52 0C 80 F8 FF FF  7F F8 FF FF 7F 73 74 30  ..R..........st0
0180: 30 52 0C 80 F8 FF FF 7F  F8 FF FF 7F 73 74 30 31  0R..........st01
0190: 45 0C 80 F8 FF FF 7F F8  FF FF 7F 73 74 30 32 01  E..........st02.
01A0: 80 01 47 02 02 87 7F 0E  80 80 DE 01 52 0C 80 F8  ..G.........R...
01B0: FF FF 7F F8 FF FF 7F 73  74 30 30 52 0C 80 F8 FF  .......st00R....
01C0: FF 7F F8 FF FF 7F 73 74  30 31 45 0C 80 F8 FF FF  ......st01E.....
01D0: 7F F8 FF FF 7F 73 74 30  32 01 80 01 47 02 02 87  .....st02...G...
01E0: 7F 0F 80 80 18 02 52 0C  80 F8 FF FF 7F F8 FF FF  ......R.........
01F0: 7F 73 67 30 30 52 0C 80  F8 FF FF 7F F8 FF FF 7F  .sg00R..........
0200: 73 67 30 31 45 0C 80 F8  FF FF 7F F8 FF FF 7F 73  sg01E..........s
0210: 67 30 32 01 80 01 47 02  52 0C 80 F8 FF FF 7F F8  g02...G.R.......
0220: FF FF 7F 73 30 30 30 52  0C 80 F8 FF FF 7F F8 FF  ...s000R........
0230: FF 7F 73 30 30 31 45 0C  80 F8 FF FF 7F F8 FF FF  ..s001E.........
0240: 7F 73 30 30 32 01 80 27  10 F0 FF FF 7F 3D 2A 10  .s002..'.....=*.
0250: F0 FF FF 7F 1C 14 80 27  10 F0 FF FF 7F 3F 2A 10  .......'.....?*.
0260: F0 FF FF 7F 1C 07 80 03  02 00 00 10 48 15 80 1C  ............H...
0270: 07 80 27 10 F0 FF FF 7F  3E 02 87 7F 0B 80 80 A4  ..'.....>.......
0280: 02 52 0C 80 F8 FF FF 7F  F8 FF FF 7F 73 67 30 32  .R..........sg02
0290: 45 0C 80 F8 FF FF 7F F8  FF FF 7F 73 67 30 31 01  E..........sg01.
02A0: 80 01 45 03 02 87 7F 0D  80 80 CF 02 52 0C 80 F8  ..E.........R...
02B0: FF FF 7F F8 FF FF 7F 73  74 30 32 45 0C 80 F8 FF  .......st02E....
02C0: FF 7F F8 FF FF 7F 73 74  30 31 01 80 01 45 03 02  ......st01...E..
02D0: 87 7F 0E 80 80 FA 02 52  0C 80 F8 FF FF 7F F8 FF  .......R........
02E0: FF 7F 73 74 30 32 45 0C  80 F8 FF FF 7F F8 FF FF  ..st02E.........
02F0: 7F 73 74 30 31 01 80 01  45 03 02 87 7F 0F 80 80  .st01...E.......
0300: 25 03 52 0C 80 F8 FF FF  7F F8 FF FF 7F 73 67 30  %.R..........sg0
0310: 32 45 0C 80 F8 FF FF 7F  F8 FF FF 7F 73 67 30 31  2E..........sg01
0320: 01 80 01 45 03 52 0C 80  F8 FF FF 7F F8 FF FF 7F  ...E.R..........
0330: 73 30 30 32 45 0C 80 F8  FF FF 7F F8 FF FF 7F 73  s002E..........s
0340: 30 30 31 01 80 2A 10 F0  FF FF 7F 01 20 01 01 3B  001..*...... ..;
0350: 05 02 00 10 12 80 00 FE  03 03 02 00 00 10 45 00  ..............E.
0360: 80 F0 FF FF 7F F0 FF FF  7F 66 64 6F 31 01 80 55  .........fdo1..U
0370: 00 80 F0 FF FF 7F F0 FF  FF 7F 66 64 6F 31 1C 16  ..........fdo1..
0380: 80 C4 00 17 80 C0 F1 08  01 BB F1 08 01 1C 18 80  ................
0390: 45 00 80 F0 FF FF 7F F0  FF FF 7F 66 64 69 31 01  E..........fdi1.
03A0: 80 1C 14 80 48 19 80 0B  01 00 02 01 00 0B 80 02  ....H...........
03B0: B7 03 03 01 00 0B 80 02  01 00 0B 80 00 F8 03 3E  ...............>
03C0: 00 00 11 80 CD 03 3D 00  00 11 80 12 80 1C 07 80  ......=.........
03D0: CD 1A 80 F0 FF FF 7F F0  FF FF 7F 6F 6E 6D 79 01  ...........onmy.
03E0: 80 48 1B 80 1C 14 80 CD  1A 80 F0 FF FF 7F F0 FF  .H..............
03F0: FF 7F 6B 6C 6D 79 01 80  01 20 01 01 3B 05 02 00  ..klmy... ..;...
0400: 10 11 80 00 3B 05 02 87  7F 0B 80 80 40 04 52 0C  ....;.......@.R.
0410: 80 F8 FF FF 7F F8 FF FF  7F 73 67 30 30 52 0C 80  .........sg00R..
0420: F8 FF FF 7F F8 FF FF 7F  73 67 30 31 45 0C 80 F8  ........sg01E...
0430: FF FF 7F F8 FF FF 7F 73  67 30 33 01 80 01 1D 05  .......sg03.....
0440: 02 87 7F 0D 80 80 7A 04  52 0C 80 F8 FF FF 7F F8  ......z.R.......
0450: FF FF 7F 73 74 30 30 52  0C 80 F8 FF FF 7F F8 FF  ...st00R........
0460: FF 7F 73 74 30 31 45 0C  80 F8 FF FF 7F F8 FF FF  ..st01E.........
0470: 7F 73 74 30 33 01 80 01  1D 05 02 87 7F 0E 80 80  .st03...........
0480: B4 04 52 0C 80 F8 FF FF  7F F8 FF FF 7F 73 74 30  ..R..........st0
0490: 30 52 0C 80 F8 FF FF 7F  F8 FF FF 7F 73 74 30 31  0R..........st01
04A0: 45 0C 80 F8 FF FF 7F F8  FF FF 7F 73 74 30 33 01  E..........st03.
04B0: 80 01 1D 05 02 87 7F 0F  80 80 EE 04 52 0C 80 F8  ............R...
04C0: FF FF 7F F8 FF FF 7F 73  67 30 30 52 0C 80 F8 FF  .......sg00R....
04D0: FF 7F F8 FF FF 7F 73 67  30 31 45 0C 80 F8 FF FF  ......sg01E.....
04E0: 7F F8 FF FF 7F 73 67 30  33 01 80 01 1D 05 52 0C  .....sg03.....R.
04F0: 80 F8 FF FF 7F F8 FF FF  7F 73 30 30 30 52 0C 80  .........s000R..
0500: F8 FF FF 7F F8 FF FF 7F  73 30 30 31 45 0C 80 F8  ........s001E...
0510: FF FF 7F F8 FF FF 7F 73  30 30 33 01 80 6E F0 FF  .......s003..n..
0520: FF 7F 1C 80 99 F0 FF FF  7F 1C 1D 80 48 1E 80 1C  ............H...
0530: 1F 80 48 20 80 1C 1F 80  01 3B 05 45 00 80 F0 FF  ..H .....;.E....
0540: FF 7F F0 FF FF 7F 66 64  6F 31 01 80 55 00 80 F0  ......fdo1..U...
0550: FF FF 7F F0 FF FF 7F 66  64 6F 31 02 87 7F 0B 80  .......fdo1.....
0560: 80 75 05 52 0C 80 F8 FF  FF 7F F8 FF FF 7F 73 67  .u.R..........sg
0570: 30 33 01 D2 05 02 87 7F  0D 80 80 8F 05 52 0C 80  03...........R..
0580: F8 FF FF 7F F8 FF FF 7F  73 74 30 33 01 D2 05 02  ........st03....
0590: 87 7F 0E 80 80 A9 05 52  0C 80 F8 FF FF 7F F8 FF  .......R........
05A0: FF 7F 73 74 30 33 01 D2  05 02 87 7F 0F 80 80 C3  ..st03..........
05B0: 05 52 0C 80 F8 FF FF 7F  F8 FF FF 7F 73 67 30 33  .R..........sg03
05C0: 01 D2 05 52 0C 80 F8 FF  FF 7F F8 FF FF 7F 73 30  ...R..........s0
05D0: 30 33 1C 21 80 AB 11 01  80 1C 12 80 46 00 45 00  03.!........F.E.
05E0: 80 F0 FF FF 7F F0 FF FF  7F 66 64 69 32 01 80 21  .........fdi2..!
05F0: 00                                                .               
```

#### Opcodes

```
  0: 0x0001 [0x42] SET_CLI_EVENT_CANCEL_DATA()
  1: 0x0002 [0x45] LOAD_SCHEDULED_TASK: Load scheduler "fdo1" with entities [LocalPlayer, LocalPlayer], work=[200*, 0*]
  2: 0x0013 [0x55] WAIT_LOAD_SCHEDULER: Wait for scheduler "fdo1" with entities [LocalPlayer, LocalPlayer], work=200*
  3: 0x0022 [0x46] CAMERA_CONTROL: Disable user control
  4: 0x0024 [0x38] SET_CLIENT_EVENT_MODE(mode=19*)
  5: 0x0027 [0x94] LocalPlayer->Render.Flags3 ^= 0x01
  6: 0x002D [0xBA] SET_ENTITY_POSITION(entity_id=LocalPlayer, pos_x=19.000*, pos_z=75.430*, pos_y=-31.910*, direction=377476129.3°*)
  7: 0x003A [0xBA] SET_ENTITY_POSITION(entity_id=Unnamed NPC (ID: 17363392/0x0108F1C0), pos_x=0.000*, pos_z=0.000*, pos_y=0.000*, direction=0.0°*)
  8: 0x0047 [0x2F] Unnamed NPC (ID: 17363392/0x0108F1C0)->Render.Flags0 &= ~0x80000 // Bit 19
  9: 0x004D [0x1C] WAIT(60* ticks)
 10: 0x0050 [0xBA] SET_ENTITY_POSITION(entity_id=Unnamed NPC (ID: 17363392/0x0108F1C0), pos_x=18.870*, pos_z=80.860*, pos_y=-31.900*, direction=0.0°*)
 11: 0x005D [0x45] LOAD_SCHEDULED_TASK: Load scheduler "fdi1" with entities [LocalPlayer, LocalPlayer], work=[200*, 0*]
 12: 0x006E [0x02] IF !(LocalPlayer->Race == 3*) GOTO 0x008A
 13: 0x0076 [0x45] LOAD_SCHEDULED_TASK: Load scheduler "sg00" with entities [EventEntity, EventEntity], work=[784*, 0*]
 14: 0x0087 [0x01] GOTO 0x00EF
 15: 0x008A [0x02] IF !(LocalPlayer->Race == 5*) GOTO 0x00A6
 16: 0x0092 [0x45] LOAD_SCHEDULED_TASK: Load scheduler "st00" with entities [EventEntity, EventEntity], work=[784*, 0*]
 17: 0x00A3 [0x01] GOTO 0x00EF
 18: 0x00A6 [0x02] IF !(LocalPlayer->Race == 6*) GOTO 0x00C2
 19: 0x00AE [0x45] LOAD_SCHEDULED_TASK: Load scheduler "st00" with entities [EventEntity, EventEntity], work=[784*, 0*]
 20: 0x00BF [0x01] GOTO 0x00EF
 21: 0x00C2 [0x02] IF !(LocalPlayer->Race == 8*) GOTO 0x00DE
 22: 0x00CA [0x45] LOAD_SCHEDULED_TASK: Load scheduler "sg00" with entities [EventEntity, EventEntity], work=[784*, 0*]
 23: 0x00DB [0x01] GOTO 0x00EF
 24: 0x00DE [0x45] LOAD_SCHEDULED_TASK: Load scheduler "s000" with entities [EventEntity, EventEntity], work=[784*, 0*]

SUBROUTINE_00EF:
 25: 0x00EF [0x1C] WAIT(60* ticks)
 26: 0x00F2 [0x62] LOAD_EVENT_SCHEDULER: Load scheduler "main" with entities [Peculiar Fissure (ID: 17363387/0x0108F1BB), Peculiar Fissure (ID: 17363387/0x0108F1BB)], work=[3*, 0*]
 27: 0x0103 [0x27] REQ_SET(priority=0x10, entity_id=LocalPlayer, tag_num=0x42)
 28: 0x010A [0x2A] GET_REQ_LEVEL(level=16, entity_id=LocalPlayer)
 29: 0x0110 [0x48] [System] [7496*]:
    → "You see something glisten in a crack in the bedrock."
 30: 0x0113 [0x06] ExtData[1]->WorkLocal[1] = 0
 31: 0x0116 [0x06] ExtData[1]->WorkLocal[2] = 0
 32: 0x0119 [0x3C] SET_BIT_FLAG_CONDITIONAL(target_work_offset=ExtData[1]->WorkLocal[0], bit_index_work_offset=2*, condition_work_offset=1*)

SUBROUTINE_0120:
 33: 0x0120 [0x24] CREATE_DIALOG(message_id=7497*, default_option=ExtData[1]->WorkLocal[2], option_flags=ExtData[1]->WorkLocal[0])
    → "What do you do? [Reach in for it./Bang on the rock./Think.]"
 34: 0x0127 [0x25] WAIT_DIALOG_SELECT()
 35: 0x0128 [0x02] IF !(Work_Zone[0] == 0*) GOTO 0x0351
 36: 0x0130 [0x02] IF !(LocalPlayer->Race == 3*) GOTO 0x016A
 37: 0x0138 [0x52] END_LOAD_SCHEDULER: End scheduler "sg00" with entities [EventEntity, EventEntity], work=784*
 38: 0x0147 [0x52] END_LOAD_SCHEDULER: End scheduler "sg01" with entities [EventEntity, EventEntity], work=784*
 39: 0x0156 [0x45] LOAD_SCHEDULED_TASK: Load scheduler "sg02" with entities [EventEntity, EventEntity], work=[784*, 0*]
 40: 0x0167 [0x01] GOTO 0x0247
 41: 0x016A [0x02] IF !(LocalPlayer->Race == 5*) GOTO 0x01A4
 42: 0x0172 [0x52] END_LOAD_SCHEDULER: End scheduler "st00" with entities [EventEntity, EventEntity], work=784*
 43: 0x0181 [0x52] END_LOAD_SCHEDULER: End scheduler "st01" with entities [EventEntity, EventEntity], work=784*
 44: 0x0190 [0x45] LOAD_SCHEDULED_TASK: Load scheduler "st02" with entities [EventEntity, EventEntity], work=[784*, 0*]
 45: 0x01A1 [0x01] GOTO 0x0247
 46: 0x01A4 [0x02] IF !(LocalPlayer->Race == 6*) GOTO 0x01DE
 47: 0x01AC [0x52] END_LOAD_SCHEDULER: End scheduler "st00" with entities [EventEntity, EventEntity], work=784*
 48: 0x01BB [0x52] END_LOAD_SCHEDULER: End scheduler "st01" with entities [EventEntity, EventEntity], work=784*
 49: 0x01CA [0x45] LOAD_SCHEDULED_TASK: Load scheduler "st02" with entities [EventEntity, EventEntity], work=[784*, 0*]
 50: 0x01DB [0x01] GOTO 0x0247
 51: 0x01DE [0x02] IF !(LocalPlayer->Race == 8*) GOTO 0x0218
 52: 0x01E6 [0x52] END_LOAD_SCHEDULER: End scheduler "sg00" with entities [EventEntity, EventEntity], work=784*
 53: 0x01F5 [0x52] END_LOAD_SCHEDULER: End scheduler "sg01" with entities [EventEntity, EventEntity], work=784*
 54: 0x0204 [0x45] LOAD_SCHEDULED_TASK: Load scheduler "sg02" with entities [EventEntity, EventEntity], work=[784*, 0*]
 55: 0x0215 [0x01] GOTO 0x0247
 56: 0x0218 [0x52] END_LOAD_SCHEDULER: End scheduler "s000" with entities [EventEntity, EventEntity], work=784*
 57: 0x0227 [0x52] END_LOAD_SCHEDULER: End scheduler "s001" with entities [EventEntity, EventEntity], work=784*
 58: 0x0236 [0x45] LOAD_SCHEDULED_TASK: Load scheduler "s002" with entities [EventEntity, EventEntity], work=[784*, 0*]

SUBROUTINE_0247:
 59: 0x0247 [0x27] REQ_SET(priority=0x10, entity_id=LocalPlayer, tag_num=0x3D)
 60: 0x024E [0x2A] GET_REQ_LEVEL(level=16, entity_id=LocalPlayer)
 61: 0x0254 [0x1C] WAIT(90* ticks)
 62: 0x0257 [0x27] REQ_SET(priority=0x10, entity_id=LocalPlayer, tag_num=0x3F)
 63: 0x025E [0x2A] GET_REQ_LEVEL(level=16, entity_id=LocalPlayer)
 64: 0x0264 [0x1C] WAIT(60* ticks)
 65: 0x0267 [0x03] ExtData[1]->WorkLocal[2] = Work_Zone[0]
 66: 0x026C [0x48] [System] [7498*]:
    → "The crack is too tight for your hand to reach it."
 67: 0x026F [0x1C] WAIT(60* ticks)
 68: 0x0272 [0x27] REQ_SET(priority=0x10, entity_id=LocalPlayer, tag_num=0x3E)
 69: 0x0279 [0x02] IF !(LocalPlayer->Race == 3*) GOTO 0x02A4
 70: 0x0281 [0x52] END_LOAD_SCHEDULER: End scheduler "sg02" with entities [EventEntity, EventEntity], work=784*
 71: 0x0290 [0x45] LOAD_SCHEDULED_TASK: Load scheduler "sg01" with entities [EventEntity, EventEntity], work=[784*, 0*]
 72: 0x02A1 [0x01] GOTO 0x0345
 73: 0x02A4 [0x02] IF !(LocalPlayer->Race == 5*) GOTO 0x02CF
 74: 0x02AC [0x52] END_LOAD_SCHEDULER: End scheduler "st02" with entities [EventEntity, EventEntity], work=784*
 75: 0x02BB [0x45] LOAD_SCHEDULED_TASK: Load scheduler "st01" with entities [EventEntity, EventEntity], work=[784*, 0*]
 76: 0x02CC [0x01] GOTO 0x0345
 77: 0x02CF [0x02] IF !(LocalPlayer->Race == 6*) GOTO 0x02FA
 78: 0x02D7 [0x52] END_LOAD_SCHEDULER: End scheduler "st02" with entities [EventEntity, EventEntity], work=784*
 79: 0x02E6 [0x45] LOAD_SCHEDULED_TASK: Load scheduler "st01" with entities [EventEntity, EventEntity], work=[784*, 0*]
 80: 0x02F7 [0x01] GOTO 0x0345
 81: 0x02FA [0x02] IF !(LocalPlayer->Race == 8*) GOTO 0x0325
 82: 0x0302 [0x52] END_LOAD_SCHEDULER: End scheduler "sg02" with entities [EventEntity, EventEntity], work=784*
 83: 0x0311 [0x45] LOAD_SCHEDULED_TASK: Load scheduler "sg01" with entities [EventEntity, EventEntity], work=[784*, 0*]
 84: 0x0322 [0x01] GOTO 0x0345
 85: 0x0325 [0x52] END_LOAD_SCHEDULER: End scheduler "s002" with entities [EventEntity, EventEntity], work=784*
 86: 0x0334 [0x45] LOAD_SCHEDULED_TASK: Load scheduler "s001" with entities [EventEntity, EventEntity], work=[784*, 0*]

SUBROUTINE_0345:
 87: 0x0345 [0x2A] GET_REQ_LEVEL(level=16, entity_id=LocalPlayer)
 88: 0x034B [0x01] GOTO 0x0120

SUBROUTINE_051D:
 89: 0x051D [0x6E] LocalPlayer uses emote 32*
 90: 0x0524 [0x99] Wait for LocalPlayer animation to complete
 91: 0x0529 [0x1C] WAIT(150* ticks)
 92: 0x052C [0x48] [System] [7501*]:
    → "It looks like only explosives will get this crack open, but how to split the rock without destroying whatever is on the other side?"
 93: 0x052F [0x1C] WAIT(120* ticks)
 94: 0x0532 [0x48] [System] [7502*]:
    → "It might be best to head back to Raibaht for advice."
 95: 0x0535 [0x1C] WAIT(120* ticks)
 96: 0x0538 [0x01] GOTO 0x053B

SUBROUTINE_053B:
 97: 0x053B [0x45] LOAD_SCHEDULED_TASK: Load scheduler "fdo1" with entities [LocalPlayer, LocalPlayer], work=[200*, 0*]
 98: 0x054C [0x55] WAIT_LOAD_SCHEDULER: Wait for scheduler "fdo1" with entities [LocalPlayer, LocalPlayer], work=200*
 99: 0x055B [0x02] IF !(LocalPlayer->Race == 3*) GOTO 0x0575
100: 0x0563 [0x52] END_LOAD_SCHEDULER: End scheduler "sg03" with entities [EventEntity, EventEntity], work=784*
101: 0x0572 [0x01] GOTO 0x05D2
102: 0x0575 [0x02] IF !(LocalPlayer->Race == 5*) GOTO 0x058F
103: 0x057D [0x52] END_LOAD_SCHEDULER: End scheduler "st03" with entities [EventEntity, EventEntity], work=784*
104: 0x058C [0x01] GOTO 0x05D2
105: 0x058F [0x02] IF !(LocalPlayer->Race == 6*) GOTO 0x05A9
106: 0x0597 [0x52] END_LOAD_SCHEDULER: End scheduler "st03" with entities [EventEntity, EventEntity], work=784*
107: 0x05A6 [0x01] GOTO 0x05D2
108: 0x05A9 [0x02] IF !(LocalPlayer->Race == 8*) GOTO 0x05C3
109: 0x05B1 [0x52] END_LOAD_SCHEDULER: End scheduler "sg03" with entities [EventEntity, EventEntity], work=784*
110: 0x05C0 [0x01] GOTO 0x05D2
111: 0x05C3 [0x52] END_LOAD_SCHEDULER: End scheduler "s003" with entities [EventEntity, EventEntity], work=784*

SUBROUTINE_05D2:
112: 0x05D2 [0x1C] WAIT(15* ticks)
113: 0x05D5 [0xAB] EventEntity->DespawnValue = 0* // Set despawn value
114: 0x05D9 [0x1C] WAIT(1* ticks)
115: 0x05DC [0x46] CAMERA_CONTROL: Restore default settings
116: 0x05DE [0x45] LOAD_SCHEDULED_TASK: Load scheduler "fdi2" with entities [LocalPlayer, LocalPlayer], work=[200*, 0*]
117: 0x05EF [0x21] END_EVENT
118: 0x05F0 [0x00] END_REQSTACK()
```

#### Data or dead code:

```
# Dead code (unreachable instructions):
     0x034E [0x01] GOTO 0x053B
     0x03FB [0x01] GOTO 0x053B
```

### Event 127

#### Metadata

| Field        | Value     |
|--------------|-----------|
| Entrypoint   | 0x05F1    |
| Data Size    | 826 bytes |
| Instructions | 101       |

```
      00 01 02 03 04 05 06 07  08 09 0A 0B 0C 0D 0E 0F
      -- -- -- -- -- -- -- --  -- -- -- -- -- -- -- --
05F0:    42 45 00 80 F0 FF FF  7F F0 FF FF 7F 66 64 6F   BE..........fdo
0600: 31 01 80 55 00 80 F0 FF  FF 7F F0 FF FF 7F 66 64  1..U..........fd
0610: 6F 31 46 01 38 02 80 2F  00 BC F1 08 01 2F 00 BD  o1F.8../...../..
0620: F1 08 01 2F 00 BE F1 08  01 4E 00 BE F1 08 01 94  .../.....N......
0630: 01 BC F1 08 01 94 01 BD  F1 08 01 94 01 BE F1 08  ................
0640: 01 94 01 F0 FF FF 7F BA  BC F1 08 01 22 80 23 80  ............".#.
0650: 24 80 06 80 BA BD F1 08  01 25 80 26 80 27 80 06  $........%.&.'..
0660: 80 BA BE F1 08 01 28 80  29 80 2A 80 2B 80 BA F0  ......(.).*.+...
0670: FF FF 7F 2C 80 2D 80 2E  80 06 80 27 10 F0 FF FF  ...,.-.....'....
0680: 7F 3D 2A 10 F0 FF FF 7F  4A BE F1 08 01 F0 FF FF  .=*.....J.......
0690: 7F 6C BE F1 08 01 01 80  01 80 80 BE F1 08 01 1C  .l..............
06A0: 2F 80 45 00 80 F0 FF FF  7F F0 FF FF 7F 66 64 69  /.E..........fdi
06B0: 31 01 80 45 0C 80 F8 FF  FF 7F F8 FF FF 7F 73 30  1..E..........s0
06C0: 31 30 01 80 1C 07 80 5C  00 30 80 5C 01 30 80 5C  10.....\.0.\.0.\
06D0: 02 30 80 5C 03 30 80 6C  BE F1 08 01 31 80 07 80  .0.\.0.l....1...
06E0: 1C 14 80 9A 73 32 80 BE  F1 08 01 BE F1 08 01 1C  ....s2..........
06F0: 16 80 52 0C 80 F8 FF FF  7F F8 FF FF 7F 73 30 31  ..R..........s01
0700: 30 45 0C 80 F8 FF FF 7F  F8 FF FF 7F 73 30 31 31  0E..........s011
0710: 01 80 1C 1D 80 27 10 F0  FF FF 7F 3E 1C 16 80 52  .....'.....>...R
0720: 0C 80 F8 FF FF 7F F8 FF  FF 7F 73 30 31 31 45 0C  ..........s011E.
0730: 80 F8 FF FF 7F F8 FF FF  7F 73 30 31 35 01 80 2A  .........s015..*
0740: 10 F0 FF FF 7F 1C 33 80  4A F0 FF FF 7F BE F1 08  ......3.J.......
0750: 01 6F 76 F0 FF FF 7F 27  10 F0 FF FF 7F 40 1C 34  .ov....'.....@.4
0760: 80 4E 00 BC F1 08 01 4E  00 BD F1 08 01 9F 2F 80  .N.....N....../.
0770: BC F1 08 01 BC F1 08 01  6D 61 69 6E 01 80 9F 2F  ........main.../
0780: 80 BD F1 08 01 BD F1 08  01 6D 61 69 6E 01 80 27  .........main..'
0790: 10 BD F1 08 01 03 1C 33  80 27 10 BC F1 08 01 03  .......3.'......
07A0: 52 0C 80 F8 FF FF 7F F8  FF FF 7F 73 30 31 35 45  R..........s015E
07B0: 0C 80 F8 FF FF 7F F8 FF  FF 7F 73 30 31 34 01 80  ..........s014..
07C0: 1C 1F 80 52 0C 80 F8 FF  FF 7F F8 FF FF 7F 73 30  ...R..........s0
07D0: 31 34 45 0C 80 F8 FF FF  7F F8 FF FF 7F 73 30 31  14E..........s01
07E0: 32 01 80 2A 10 BD F1 08  01 B4 00 03 00 3F 3F 3F  2..*.........???
07F0: 00 00 00 00 00 00 00 00  00 00 00 00 00 B5 00 03  ................
0800: 00 1D 35 80 23 2A 10 BC  F1 08 01 1D 36 80 23 B4  ..5.#*......6.#.
0810: 13 03 00 00 00 00 00 00  00 00 00 00 00 00 00 00  ................
0820: 00 00 00 B5 00 03 00 7B  BE F1 08 01 52 0C 80 F8  .......{....R...
0830: FF FF 7F F8 FF FF 7F 73  30 31 32 45 0C 80 F8 FF  .......s012E....
0840: FF 7F F8 FF FF 7F 73 30  31 33 01 80 27 10 BE F1  ......s013..'...
0850: 08 01 03 2A 10 BE F1 08  01 45 37 80 F0 FF FF 7F  ...*.....E7.....
0860: F0 FF FF 7F 77 68 6F 31  01 80 55 00 80 F0 FF FF  ....who1..U.....
0870: 7F F0 FF FF 7F 77 68 6F  31 1C 18 80 45 00 80 F0  .....who1...E...
0880: FF FF 7F F0 FF FF 7F 66  64 6F 31 01 80 55 00 80  .......fdo1..U..
0890: F0 FF FF 7F F0 FF FF 7F  66 64 6F 31 45 37 80 F0  ........fdo1E7..
08A0: FF FF 7F F0 FF FF 7F 77  68 69 31 01 80 52 0C 80  .......whi1..R..
08B0: F8 FF FF 7F F8 FF FF 7F  73 30 31 33 45 0C 80 F8  ........s013E...
08C0: FF FF 7F F8 FF FF 7F 62  6F 66 66 01 80 55 0C 80  .......boff..U..
08D0: F8 FF FF 7F F8 FF FF 7F  62 6F 66 66 BA F0 FF FF  ........boff....
08E0: 7F 01 80 01 80 01 80 01  80 27 10 F0 FF FF 7F 41  .........'.....A
08F0: 2A 10 F0 FF FF 7F 5C 00  01 80 5C 01 01 80 5C 02  *.....\...\...\.
0900: 30 80 5C 03 38 80 9A 5D  39 80 12 80 1C 21 80 AB  0.\.8..]9....!..
0910: 11 01 80 1C 12 80 46 00  45 00 80 F0 FF FF 7F F0  ......F.E.......
0920: FF FF 7F 66 64 69 32 01  80 21 00                 ...fdi2..!.     
```

#### Opcodes

```
  0: 0x05F1 [0x42] SET_CLI_EVENT_CANCEL_DATA()
  1: 0x05F2 [0x45] LOAD_SCHEDULED_TASK: Load scheduler "fdo1" with entities [LocalPlayer, LocalPlayer], work=[200*, 0*]
  2: 0x0603 [0x55] WAIT_LOAD_SCHEDULER: Wait for scheduler "fdo1" with entities [LocalPlayer, LocalPlayer], work=200*
  3: 0x0612 [0x46] CAMERA_CONTROL: Disable user control
  4: 0x0614 [0x38] SET_CLIENT_EVENT_MODE(mode=19*)
  5: 0x0617 [0x2F] Sirius (ID: 17363388/0x0108F1BC)->Render.Flags0 &= ~0x80000 // Bit 19
  6: 0x061D [0x2F] Almid (ID: 17363389/0x0108F1BD)->Render.Flags0 &= ~0x80000 // Bit 19
  7: 0x0623 [0x2F] Incensed Pineapple (ID: 17363390/0x0108F1BE)->Render.Flags0 &= ~0x80000 // Bit 19
  8: 0x0629 [0x4E] SET_ENTITY_HIDE_FLAG: Show Incensed Pineapple (ID: 17363390/0x0108F1BE)
  9: 0x062F [0x94] Sirius (ID: 17363388/0x0108F1BC)->Render.Flags3 ^= 0x01
 10: 0x0635 [0x94] Almid (ID: 17363389/0x0108F1BD)->Render.Flags3 ^= 0x01
 11: 0x063B [0x94] Incensed Pineapple (ID: 17363390/0x0108F1BE)->Render.Flags3 ^= 0x01
 12: 0x0641 [0x94] LocalPlayer->Render.Flags3 ^= 0x01
 13: 0x0647 [0xBA] SET_ENTITY_POSITION(entity_id=Sirius (ID: 17363388/0x0108F1BC), pos_x=21.310*, pos_z=66.630*, pos_y=-31.920*, direction=377476129.3°*)
 14: 0x0654 [0xBA] SET_ENTITY_POSITION(entity_id=Almid (ID: 17363389/0x0108F1BD), pos_x=20.210*, pos_z=66.450*, pos_y=-31.960*, direction=377476129.3°*)
 15: 0x0661 [0xBA] SET_ENTITY_POSITION(entity_id=Incensed Pineapple (ID: 17363390/0x0108F1BE), pos_x=21.670*, pos_z=83.200*, pos_y=-32.730*, direction=134.9°*)
 16: 0x066E [0xBA] SET_ENTITY_POSITION(entity_id=LocalPlayer, pos_x=18.600*, pos_z=79.500*, pos_y=-31.930*, direction=377476129.3°*)
 17: 0x067B [0x27] REQ_SET(priority=0x10, entity_id=LocalPlayer, tag_num=0x3D)
 18: 0x0682 [0x2A] GET_REQ_LEVEL(level=16, entity_id=LocalPlayer)
 19: 0x0688 [0x4A] Incensed Pineapple (ID: 17363390/0x0108F1BE) looks at LocalPlayer
 20: 0x0691 [0x6C] FADE_ENTITY_COLOR(entity_id=Incensed Pineapple (ID: 17363390/0x0108F1BE), end_alpha=0*, fade_time=0*)
 21: 0x069A [0x80] LOAD_WAIT(entity=Incensed Pineapple (ID: 17363390/0x0108F1BE))
 22: 0x069F [0x1C] WAIT(240* ticks)
 23: 0x06A2 [0x45] LOAD_SCHEDULED_TASK: Load scheduler "fdi1" with entities [LocalPlayer, LocalPlayer], work=[200*, 0*]
 24: 0x06B3 [0x45] LOAD_SCHEDULED_TASK: Load scheduler "s010" with entities [EventEntity, EventEntity], work=[784*, 0*]
 25: 0x06C4 [0x1C] WAIT(60* ticks)
 26: 0x06C7 [0x5C] MUSIC_CONTROL: Set Idle (Day) music to song 115*
 27: 0x06CB [0x5C] MUSIC_CONTROL: Set Idle (Night) music to song 115*
 28: 0x06CF [0x5C] MUSIC_CONTROL: Set Combat (Solo) music to song 115*
 29: 0x06D3 [0x5C] MUSIC_CONTROL: Set Combat (Party) music to song 115*
 30: 0x06D7 [0x6C] FADE_ENTITY_COLOR(entity_id=Incensed Pineapple (ID: 17363390/0x0108F1BE), end_alpha=128*, fade_time=60*)
 31: 0x06E0 [0x1C] WAIT(90* ticks)
 32: 0x06E3 [0x9A] WAIT_MUSIC_SERVER()
 33: 0x06E4 [0x73] Incensed Pineapple (ID: 17363390/0x0108F1BE) casts magic 249* on Incensed Pineapple (ID: 17363390/0x0108F1BE)
 34: 0x06EF [0x1C] WAIT(30* ticks)
 35: 0x06F2 [0x52] END_LOAD_SCHEDULER: End scheduler "s010" with entities [EventEntity, EventEntity], work=784*
 36: 0x0701 [0x45] LOAD_SCHEDULED_TASK: Load scheduler "s011" with entities [EventEntity, EventEntity], work=[784*, 0*]
 37: 0x0712 [0x1C] WAIT(150* ticks)
 38: 0x0715 [0x27] REQ_SET(priority=0x10, entity_id=LocalPlayer, tag_num=0x3E)
 39: 0x071C [0x1C] WAIT(30* ticks)
 40: 0x071F [0x52] END_LOAD_SCHEDULER: End scheduler "s011" with entities [EventEntity, EventEntity], work=784*
 41: 0x072E [0x45] LOAD_SCHEDULED_TASK: Load scheduler "s015" with entities [EventEntity, EventEntity], work=[784*, 0*]
 42: 0x073F [0x2A] GET_REQ_LEVEL(level=16, entity_id=LocalPlayer)
 43: 0x0745 [0x1C] WAIT(10* ticks)
 44: 0x0748 [0x4A] LocalPlayer looks at Incensed Pineapple (ID: 17363390/0x0108F1BE)
 45: 0x0751 [0x6F] WAIT_FRAME_DELAY: Yield until WaitTime reaches zero
 46: 0x0752 [0x76] CHECK_ENTITY_RENDER_FLAGS: Wait until LocalPlayer Render.Flags0 and Render.Flags3 conditions are met
 47: 0x0757 [0x27] REQ_SET(priority=0x10, entity_id=LocalPlayer, tag_num=0x40)
 48: 0x075E [0x1C] WAIT(210* ticks)
 49: 0x0761 [0x4E] SET_ENTITY_HIDE_FLAG: Show Sirius (ID: 17363388/0x0108F1BC)
 50: 0x0767 [0x4E] SET_ENTITY_HIDE_FLAG: Show Almid (ID: 17363389/0x0108F1BD)
 51: 0x076D [0x9F] LOAD_SCHEDULED_TASK_ALT: Load scheduler "main" with entities [Sirius (ID: 17363388/0x0108F1BC), Sirius (ID: 17363388/0x0108F1BC)], work=[240*, 0*]
 52: 0x077E [0x9F] LOAD_SCHEDULED_TASK_ALT: Load scheduler "main" with entities [Almid (ID: 17363389/0x0108F1BD), Almid (ID: 17363389/0x0108F1BD)], work=[240*, 0*]
 53: 0x078F [0x27] REQ_SET(priority=0x10, entity_id=Almid (ID: 17363389/0x0108F1BD), tag_num=0x03)
 54: 0x0796 [0x1C] WAIT(10* ticks)
 55: 0x0799 [0x27] REQ_SET(priority=0x10, entity_id=Sirius (ID: 17363388/0x0108F1BC), tag_num=0x03)
 56: 0x07A0 [0x52] END_LOAD_SCHEDULER: End scheduler "s015" with entities [EventEntity, EventEntity], work=784*
 57: 0x07AF [0x45] LOAD_SCHEDULED_TASK: Load scheduler "s014" with entities [EventEntity, EventEntity], work=[784*, 0*]
 58: 0x07C0 [0x1C] WAIT(120* ticks)
 59: 0x07C3 [0x52] END_LOAD_SCHEDULER: End scheduler "s014" with entities [EventEntity, EventEntity], work=784*
 60: 0x07D2 [0x45] LOAD_SCHEDULED_TASK: Load scheduler "s012" with entities [EventEntity, EventEntity], work=[784*, 0*]
 61: 0x07E3 [0x2A] GET_REQ_LEVEL(level=16, entity_id=Almid (ID: 17363389/0x0108F1BD))
 62: 0x07E9 [0xB4] UI_WINDOW_STRING_HANDLER(case=0x00 - Copy string from opcode, work_offset=ExtData[1]->WorkLocal[3], string="???")
 63: 0x07FD [0xB5] SET_EVENT_ENTITY_NAME: Change EventEntity name to ExtData[1]->WorkLocal[3]
 64: 0x0801 [0x1D] PRINT_EVENT_MESSAGE(message_id=7503*)
    → "Wait! What are you doing!?"
 65: 0x0804 [0x23] WAIT_FOR_DIALOG_INTERACTION
 66: 0x0805 [0x2A] GET_REQ_LEVEL(level=16, entity_id=Sirius (ID: 17363388/0x0108F1BC))
 67: 0x080B [0x1D] PRINT_EVENT_MESSAGE(message_id=7504*)
    → "Not there! That wall isn't safe!"
 68: 0x080E [0x23] WAIT_FOR_DIALOG_INTERACTION
 69: 0x080F [0xB4] UI_WINDOW_STRING_HANDLER(case=0x13 - Copy string and replace @ with space, work_offset=ExtData[1]->WorkLocal[3], string="")
 70: 0x0823 [0xB5] SET_EVENT_ENTITY_NAME: Change EventEntity name to ExtData[1]->WorkLocal[3]
 71: 0x0827 [0x7B] Incensed Pineapple (ID: 17363390/0x0108F1BE) stops talking
 72: 0x082C [0x52] END_LOAD_SCHEDULER: End scheduler "s012" with entities [EventEntity, EventEntity], work=784*
 73: 0x083B [0x45] LOAD_SCHEDULED_TASK: Load scheduler "s013" with entities [EventEntity, EventEntity], work=[784*, 0*]
 74: 0x084C [0x27] REQ_SET(priority=0x10, entity_id=Incensed Pineapple (ID: 17363390/0x0108F1BE), tag_num=0x03)
 75: 0x0853 [0x2A] GET_REQ_LEVEL(level=16, entity_id=Incensed Pineapple (ID: 17363390/0x0108F1BE))
 76: 0x0859 [0x45] LOAD_SCHEDULED_TASK: Load scheduler "who1" with entities [LocalPlayer, LocalPlayer], work=[201*, 0*]
 77: 0x086A [0x55] WAIT_LOAD_SCHEDULER: Wait for scheduler "who1" with entities [LocalPlayer, LocalPlayer], work=200*
 78: 0x0879 [0x1C] WAIT(180* ticks)
 79: 0x087C [0x45] LOAD_SCHEDULED_TASK: Load scheduler "fdo1" with entities [LocalPlayer, LocalPlayer], work=[200*, 0*]
 80: 0x088D [0x55] WAIT_LOAD_SCHEDULER: Wait for scheduler "fdo1" with entities [LocalPlayer, LocalPlayer], work=200*
 81: 0x089C [0x45] LOAD_SCHEDULED_TASK: Load scheduler "whi1" with entities [LocalPlayer, LocalPlayer], work=[201*, 0*]
 82: 0x08AD [0x52] END_LOAD_SCHEDULER: End scheduler "s013" with entities [EventEntity, EventEntity], work=784*
 83: 0x08BC [0x45] LOAD_SCHEDULED_TASK: Load scheduler "boff" with entities [EventEntity, EventEntity], work=[784*, 0*]
 84: 0x08CD [0x55] WAIT_LOAD_SCHEDULER: Wait for scheduler "boff" with entities [EventEntity, EventEntity], work=784*
 85: 0x08DC [0xBA] SET_ENTITY_POSITION(entity_id=LocalPlayer, pos_x=0.000*, pos_z=0.000*, pos_y=0.000*, direction=0.0°*)
 86: 0x08E9 [0x27] REQ_SET(priority=0x10, entity_id=LocalPlayer, tag_num=0x41)
 87: 0x08F0 [0x2A] GET_REQ_LEVEL(level=16, entity_id=LocalPlayer)
 88: 0x08F6 [0x5C] MUSIC_CONTROL: Set Idle (Day) music to song 0*
 89: 0x08FA [0x5C] MUSIC_CONTROL: Set Idle (Night) music to song 0*
 90: 0x08FE [0x5C] MUSIC_CONTROL: Set Combat (Solo) music to song 115*
 91: 0x0902 [0x5C] MUSIC_CONTROL: Set Combat (Party) music to song 102*
 92: 0x0906 [0x9A] WAIT_MUSIC_SERVER()
 93: 0x0907 [0x5D] SET_MUSIC_VOLUME(volume=127*, fade_time=1*)
 94: 0x090C [0x1C] WAIT(15* ticks)
 95: 0x090F [0xAB] EventEntity->DespawnValue = 0* // Set despawn value
 96: 0x0913 [0x1C] WAIT(1* ticks)
 97: 0x0916 [0x46] CAMERA_CONTROL: Restore default settings
 98: 0x0918 [0x45] LOAD_SCHEDULED_TASK: Load scheduler "fdi2" with entities [LocalPlayer, LocalPlayer], work=[200*, 0*]
 99: 0x0929 [0x21] END_EVENT
100: 0x092A [0x00] END_REQSTACK()
```

### Event 128

#### Metadata

| Field        | Value      |
|--------------|------------|
| Entrypoint   | 0x092B     |
| Data Size    | 2842 bytes |
| Instructions | 359        |

```
      00 01 02 03 04 05 06 07  08 09 0A 0B 0C 0D 0E 0F
      -- -- -- -- -- -- -- --  -- -- -- -- -- -- -- --
0920:                                   42 45 00 80 F0             BE...
0930: FF FF 7F F0 FF FF 7F 66  64 6F 31 01 80 55 00 80  .......fdo1..U..
0940: F0 FF FF 7F F0 FF FF 7F  66 64 6F 31 46 01 38 02  ........fdo1F.8.
0950: 80 5C 00 30 80 5C 01 30  80 5C 02 30 80 5C 03 30  .\.0.\.0.\.0.\.0
0960: 80 9A 2F 00 BC F1 08 01  2F 00 BD F1 08 01 2F 00  ../...../...../.
0970: BE F1 08 01 2F 00 BF F1  08 01 4E 00 BE F1 08 01  ..../.....N.....
0980: 4E 00 BF F1 08 01 6C BF  F1 08 01 01 80 01 80 94  N.....l.........
0990: 01 BC F1 08 01 94 01 BD  F1 08 01 94 01 BE F1 08  ................
09A0: 01 94 01 BF F1 08 01 94  01 F0 FF FF 7F BA F0 FF  ................
09B0: FF 7F 01 80 01 80 01 80  01 80 27 10 F0 FF FF 7F  ..........'.....
09C0: 40 1C 2F 80 BA BC F1 08  01 3A 80 3B 80 0A 80 06  @./......:.;....
09D0: 80 BA BD F1 08 01 3C 80  3D 80 3E 80 06 80 BA BE  ......<.=.>.....
09E0: F1 08 01 3F 80 40 80 41  80 2B 80 BA BF F1 08 01  ...?.@.A.+......
09F0: 3F 80 40 80 41 80 2B 80  BA F0 FF FF 7F 2C 80 2D  ?.@.A.+......,.-
0A00: 80 2E 80 06 80 4A BE F1  08 01 F0 FF FF 7F 4A BF  .....J........J.
0A10: F1 08 01 F0 FF FF 7F 4A  F0 FF FF 7F BE F1 08 01  .......J........
0A20: 80 BC F1 08 01 80 BD F1  08 01 80 BE F1 08 01 1C  ................
0A30: 07 80 45 00 80 F0 FF FF  7F F0 FF FF 7F 66 64 69  ..E..........fdi
0A40: 31 01 80 02 87 7F 0B 80  80 5F 0A 45 0C 80 F8 FF  1........_.E....
0A50: FF 7F F8 FF FF 7F 73 67  32 30 01 80 01 C4 0A 02  ......sg20......
0A60: 87 7F 0D 80 80 7B 0A 45  0C 80 F8 FF FF 7F F8 FF  .....{.E........
0A70: FF 7F 73 74 32 30 01 80  01 C4 0A 02 87 7F 0E 80  ..st20..........
0A80: 80 97 0A 45 0C 80 F8 FF  FF 7F F8 FF FF 7F 73 74  ...E..........st
0A90: 32 30 01 80 01 C4 0A 02  87 7F 0F 80 80 B3 0A 45  20.............E
0AA0: 0C 80 F8 FF FF 7F F8 FF  FF 7F 73 67 32 30 01 80  ..........sg20..
0AB0: 01 C4 0A 45 0C 80 F8 FF  FF 7F F8 FF FF 7F 73 30  ...E..........s0
0AC0: 32 30 01 80 1C 1F 80 BB  42 80 BF F1 08 01 BF F1  20......B.......
0AD0: 08 01 6D 61 69 6E 01 80  1C 43 80 C4 01 01 80 F0  ..main...C......
0AE0: FF FF 7F BE F1 08 01 1C  16 80 BD 42 80 BF F1 08  ...........B....
0AF0: 01 BF F1 08 01 6D 61 69  6E 1C 07 80 2C BF F1 08  .....main...,...
0B00: 01 BF F1 08 01 64 65 61  64 2C BE F1 08 01 BE F1  .....dead,......
0B10: 08 01 64 65 61 64 1C 16  80 4E 01 BF F1 08 01 5C  ..dead...N.....\
0B20: 00 01 80 5C 01 01 80 5C  02 01 80 5C 03 01 80 1C  ...\...\...\....
0B30: 18 80 2C BE F1 08 01 BE  F1 08 01 6B 65 73 75 02  ..,........kesu.
0B40: 87 7F 0B 80 80 59 0B 52  0C 80 F8 FF FF 7F F8 FF  .....Y.R........
0B50: FF 7F 73 67 32 30 01 B6  0B 02 87 7F 0D 80 80 73  ..sg20.........s
0B60: 0B 52 0C 80 F8 FF FF 7F  F8 FF FF 7F 73 74 32 30  .R..........st20
0B70: 01 B6 0B 02 87 7F 0E 80  80 8D 0B 52 0C 80 F8 FF  ...........R....
0B80: FF 7F F8 FF FF 7F 73 74  32 30 01 B6 0B 02 87 7F  ......st20......
0B90: 0F 80 80 A7 0B 52 0C 80  F8 FF FF 7F F8 FF FF 7F  .....R..........
0BA0: 73 67 32 30 01 B6 0B 52  0C 80 F8 FF FF 7F F8 FF  sg20...R........
0BB0: FF 7F 73 30 32 30 45 0C  80 F8 FF FF 7F F8 FF FF  ..s020E.........
0BC0: 7F 73 30 32 31 01 80 27  10 F0 FF FF 7F 41 2A 10  .s021..'.....A*.
0BD0: F0 FF FF 7F 1C 16 80 4A  F0 FF FF 7F BB F1 08 01  .......J........
0BE0: 6F 76 F0 FF FF 7F 7B F0  FF FF 7F 27 10 F0 FF FF  ov....{....'....
0BF0: 7F 3D 2A 10 F0 FF FF 7F  1C 1F 80 48 44 80 1C 1F  .=*........HD...
0C00: 80 27 10 F0 FF FF 7F 3E  1C 1F 80 2A 10 F0 FF FF  .'.....>...*....
0C10: 7F 27 10 F0 FF FF 7F 43  52 0C 80 F8 FF FF 7F F8  .'.....CR.......
0C20: FF FF 7F 73 30 32 31 02  87 7F 0B 80 80 43 0C 45  ...s021......C.E
0C30: 0C 80 F8 FF FF 7F F8 FF  FF 7F 73 67 32 32 01 80  ..........sg22..
0C40: 01 A8 0C 02 87 7F 0D 80  80 5F 0C 45 0C 80 F8 FF  ........._.E....
0C50: FF 7F F8 FF FF 7F 73 74  32 32 01 80 01 A8 0C 02  ......st22......
0C60: 87 7F 0E 80 80 7B 0C 45  0C 80 F8 FF FF 7F F8 FF  .....{.E........
0C70: FF 7F 73 74 32 32 01 80  01 A8 0C 02 87 7F 0F 80  ..st22..........
0C80: 80 97 0C 45 0C 80 F8 FF  FF 7F F8 FF FF 7F 73 67  ...E..........sg
0C90: 32 32 01 80 01 A8 0C 45  0C 80 F8 FF FF 7F F8 FF  22.....E........
0CA0: FF 7F 73 30 32 32 01 80  2A 10 F0 FF FF 7F 1C 21  ..s022..*......!
0CB0: 80 4A F0 FF FF 7F BB F1  08 01 6F 76 F0 FF FF 7F  .J........ov....
0CC0: 7B F0 FF FF 7F 1C 07 80  AD 02 45 80 BB F1 08 01  {.........E.....
0CD0: BB F1 08 01 4E 00 BC F1  08 01 4E 00 BD F1 08 01  ....N.....N.....
0CE0: 9F 2F 80 BC F1 08 01 BC  F1 08 01 6D 61 69 6E 01  ./.........main.
0CF0: 80 9F 2F 80 BD F1 08 01  BD F1 08 01 6D 61 69 6E  ../.........main
0D00: 01 80 27 10 BD F1 08 01  04 1C 16 80 27 10 BC F1  ..'.........'...
0D10: 08 01 04 1C 14 80 02 87  7F 0B 80 80 30 0D 52 0C  ............0.R.
0D20: 80 F8 FF FF 7F F8 FF FF  7F 73 67 32 32 01 8D 0D  .........sg22...
0D30: 02 87 7F 0D 80 80 4A 0D  52 0C 80 F8 FF FF 7F F8  ......J.R.......
0D40: FF FF 7F 73 74 32 32 01  8D 0D 02 87 7F 0E 80 80  ...st22.........
0D50: 64 0D 52 0C 80 F8 FF FF  7F F8 FF FF 7F 73 74 32  d.R..........st2
0D60: 32 01 8D 0D 02 87 7F 0F  80 80 7E 0D 52 0C 80 F8  2.........~.R...
0D70: FF FF 7F F8 FF FF 7F 73  67 32 32 01 8D 0D 52 0C  .......sg22...R.
0D80: 80 F8 FF FF 7F F8 FF FF  7F 73 30 32 32 45 0C 80  .........s022E..
0D90: F8 FF FF 7F F8 FF FF 7F  73 30 32 33 01 80 2A 10  ........s023..*.
0DA0: BD F1 08 01 4A BD F1 08  01 F0 FF FF 7F 7B BD F1  ....J........{..
0DB0: 08 01 1C 21 80 2A 10 BC  F1 08 01 4A BC F1 08 01  ...!.*.....J....
0DC0: F0 FF FF 7F 7B BC F1 08  01 1C 1F 80 52 0C 80 F8  ....{.......R...
0DD0: FF FF 7F F8 FF FF 7F 73  30 32 33 45 0C 80 F8 FF  .......s023E....
0DE0: FF 7F F8 FF FF 7F 73 30  32 34 01 80 B4 00 03 00  ......s024......
0DF0: 3F 3F 3F 00 00 00 00 00  00 00 00 00 00 00 00 00  ???.............
0E00: B5 00 03 00 B0 00 F8 FF  FF 7F BD F1 08 01 46 80  ..............F.
0E10: 23 B4 13 03 00 00 00 00  00 00 00 00 00 00 00 00  #...............
0E20: 00 00 00 00 00 B5 00 03  00 4A F0 FF FF 7F BD F1  .........J......
0E30: 08 01 1C 1F 80 52 0C 80  F8 FF FF 7F F8 FF FF 7F  .....R..........
0E40: 73 30 32 34 45 0C 80 F8  FF FF 7F F8 FF FF 7F 73  s024E..........s
0E50: 30 32 35 01 80 2B BD F1  08 01 47 80 23 1C 07 80  025..+....G.#...
0E60: 2B BD F1 08 01 48 80 23  1C 14 80 52 0C 80 F8 FF  +....H.#...R....
0E70: FF 7F F8 FF FF 7F 73 30  32 35 45 0C 80 F8 FF FF  ......s025E.....
0E80: 7F F8 FF FF 7F 73 30 32  36 01 80 2B BC F1 08 01  .....s026..+....
0E90: 49 80 23 1C 07 80 2B BC  F1 08 01 4A 80 23 1C 07  I.#...+....J.#..
0EA0: 80 79 00 BD F1 08 01 F0  FF FF 7F 52 0C 80 F8 FF  .y.........R....
0EB0: FF 7F F8 FF FF 7F 73 30  32 36 02 87 7F 0B 80 80  ......s026......
0EC0: D6 0E 45 0C 80 F8 FF FF  7F F8 FF FF 7F 73 67 32  ..E..........sg2
0ED0: 37 01 80 01 3B 0F 02 87  7F 0D 80 80 F2 0E 45 0C  7...;.........E.
0EE0: 80 F8 FF FF 7F F8 FF FF  7F 73 74 32 37 01 80 01  .........st27...
0EF0: 3B 0F 02 87 7F 0E 80 80  0E 0F 45 0C 80 F8 FF FF  ;.........E.....
0F00: 7F F8 FF FF 7F 73 74 32  37 01 80 01 3B 0F 02 87  .....st27...;...
0F10: 7F 0F 80 80 2A 0F 45 0C  80 F8 FF FF 7F F8 FF FF  ....*.E.........
0F20: 7F 73 67 32 37 01 80 01  3B 0F 45 0C 80 F8 FF FF  .sg27...;.E.....
0F30: 7F F8 FF FF 7F 73 30 32  37 01 80 66 4B 80 BD F1  .....s027..fK...
0F40: 08 01 BD F1 08 01 74 6C  6B 30 2B BD F1 08 01 4C  ......tlk0+....L
0F50: 80 1C 1F 80 23 66 4B 80  BD F1 08 01 BD F1 08 01  ....#fK.........
0F60: 74 6C 6B 31 7B BD F1 08  01 1C 07 80 66 4B 80 BD  tlk1{.......fK..
0F70: F1 08 01 BD F1 08 01 74  68 6B 30 7C 00 BD F1 08  .......thk0|....
0F80: 01 2B BD F1 08 01 4D 80  1C 1D 80 23 7C 01 BD F1  .+....M....#|...
0F90: 08 01 66 4B 80 BD F1 08  01 BD F1 08 01 74 68 6B  ..fK.........thk
0FA0: 31 79 00 BC F1 08 01 F0  FF FF 7F 02 87 7F 0B 80  1y..............
0FB0: 80 D6 0F 52 0C 80 F8 FF  FF 7F F8 FF FF 7F 73 67  ...R..........sg
0FC0: 32 37 45 0C 80 F8 FF FF  7F F8 FF FF 7F 73 67 32  27E..........sg2
0FD0: 38 01 80 01 77 10 02 87  7F 0D 80 80 01 10 52 0C  8...w.........R.
0FE0: 80 F8 FF FF 7F F8 FF FF  7F 73 74 32 37 45 0C 80  .........st27E..
0FF0: F8 FF FF 7F F8 FF FF 7F  73 74 32 38 01 80 01 77  ........st28...w
1000: 10 02 87 7F 0E 80 80 2C  10 52 0C 80 F8 FF FF 7F  .......,.R......
1010: F8 FF FF 7F 73 74 32 37  45 0C 80 F8 FF FF 7F F8  ....st27E.......
1020: FF FF 7F 73 74 32 38 01  80 01 77 10 02 87 7F 0F  ...st28...w.....
1030: 80 80 57 10 52 0C 80 F8  FF FF 7F F8 FF FF 7F 73  ..W.R..........s
1040: 67 32 37 45 0C 80 F8 FF  FF 7F F8 FF FF 7F 73 67  g27E..........sg
1050: 32 38 01 80 01 77 10 52  0C 80 F8 FF FF 7F F8 FF  28...w.R........
1060: FF 7F 73 30 32 37 45 0C  80 F8 FF FF 7F F8 FF FF  ..s027E.........
1070: 7F 73 30 32 38 01 80 1C  16 80 66 4E 80 BC F1 08  .s028.....fN....
1080: 01 BC F1 08 01 74 6C 6B  30 2B BC F1 08 01 4F 80  .....tlk0+....O.
1090: 1C 16 80 4A F0 FF FF 7F  BC F1 08 01 1C 1F 80 23  ...J...........#
10A0: 66 4E 80 BC F1 08 01 BC  F1 08 01 74 6C 6B 31 7B  fN.........tlk1{
10B0: BC F1 08 01 1C 07 80 02  87 7F 0B 80 80 D1 10 52  ...............R
10C0: 0C 80 F8 FF FF 7F F8 FF  FF 7F 73 67 32 38 01 2E  ..........sg28..
10D0: 11 02 87 7F 0D 80 80 EB  10 52 0C 80 F8 FF FF 7F  .........R......
10E0: F8 FF FF 7F 73 74 32 38  01 2E 11 02 87 7F 0E 80  ....st28........
10F0: 80 05 11 52 0C 80 F8 FF  FF 7F F8 FF FF 7F 73 74  ...R..........st
1100: 32 38 01 2E 11 02 87 7F  0F 80 80 1F 11 52 0C 80  28...........R..
1110: F8 FF FF 7F F8 FF FF 7F  73 67 32 38 01 2E 11 52  ........sg28...R
1120: 0C 80 F8 FF FF 7F F8 FF  FF 7F 73 30 32 38 45 0C  ..........s028E.
1130: 80 F8 FF FF 7F F8 FF FF  7F 73 30 32 39 01 80 1C  .........s029...
1140: 16 80 2B BD F1 08 01 50  80 23 1C 07 80 7B F0 FF  ..+....P.#...{..
1150: FF 7F 27 10 F0 FF FF 7F  44 6E BC F1 08 01 51 80  ..'.....Dn....Q.
1160: 99 BC F1 08 01 2B BC F1  08 01 52 80 1C 1D 80 23  .....+....R....#
1170: 52 0C 80 F8 FF FF 7F F8  FF FF 7F 73 30 32 39 45  R..........s029E
1180: 0C 80 F8 FF FF 7F F8 FF  FF 7F 73 30 33 30 01 80  ..........s030..
1190: 79 00 BC F1 08 01 BD F1  08 01 2B BC F1 08 01 53  y.........+....S
11A0: 80 23 4A BD F1 08 01 BC  F1 08 01 1C 07 80 6F 76  .#J...........ov
11B0: BD F1 08 01 2B BD F1 08  01 54 80 23 5C 00 1F 80  ....+....T.#\...
11C0: 5C 01 1F 80 1C 1F 80 9A  52 0C 80 F8 FF FF 7F F8  \.......R.......
11D0: FF FF 7F 73 30 33 30 45  0C 80 F8 FF FF 7F F8 FF  ...s030E........
11E0: FF 7F 73 30 33 31 01 80  6E BD F1 08 01 55 80 99  ..s031..n....U..
11F0: BD F1 08 01 03 02 10 56  80 2B BD F1 08 01 57 80  .......V.+....W.
1200: 1C 18 80 23 4A BD F1 08  01 BC F1 08 01 52 0C 80  ...#J........R..
1210: F8 FF FF 7F F8 FF FF 7F  73 30 33 31 45 0C 80 F8  ........s031E...
1220: FF FF 7F F8 FF FF 7F 73  30 33 32 01 80 6F 76 BD  .......s032..ov.
1230: F1 08 01 1C 21 80 2B BD  F1 08 01 58 80 23 4A BC  ....!.+....X.#J.
1240: F1 08 01 BD F1 08 01 52  0C 80 F8 FF FF 7F F8 FF  .......R........
1250: FF 7F 73 30 33 32 45 0C  80 F8 FF FF 7F F8 FF FF  ..s032E.........
1260: 7F 73 30 33 33 01 80 6F  76 BC F1 08 01 1C 21 80  .s033..ov.....!.
1270: 6E BC F1 08 01 59 80 99  BC F1 08 01 2B BC F1 08  n....Y......+...
1280: 01 5A 80 1C 1D 80 23 6E  BD F1 08 01 5B 80 99 BD  .Z....#n....[...
1290: F1 08 01 6E BC F1 08 01  5B 80 99 BC F1 08 01 1C  ...n....[.......
12A0: 5C 80 52 0C 80 F8 FF FF  7F F8 FF FF 7F 73 30 33  \.R..........s03
12B0: 33 45 0C 80 F8 FF FF 7F  F8 FF FF 7F 73 30 33 34  3E..........s034
12C0: 01 80 1C 5D 80 7B BC F1  08 01 27 10 BC F1 08 01  ...].{....'.....
12D0: 05 7B BD F1 08 01 27 10  BD F1 08 01 05 1C 07 80  .{....'.........
12E0: 52 0C 80 F8 FF FF 7F F8  FF FF 7F 73 30 33 34 02  R..........s034.
12F0: 87 7F 0D 80 80 0B 13 45  0C 80 F8 FF FF 7F F8 FF  .......E........
1300: FF 7F 73 74 33 35 01 80  01 38 13 02 87 7F 0E 80  ..st35...8......
1310: 80 27 13 45 0C 80 F8 FF  FF 7F F8 FF FF 7F 73 74  .'.E..........st
1320: 33 35 01 80 01 38 13 45  0C 80 F8 FF FF 7F F8 FF  35...8.E........
1330: FF 7F 73 30 33 35 01 80  27 10 BE F1 08 01 04 27  ..s035..'......'
1340: 10 BF F1 08 01 02 1C 16  80 27 10 BB F1 08 01 03  .........'......
1350: 1C 16 80 4A F0 FF FF 7F  BB F1 08 01 02 87 7F 0D  ...J............
1360: 80 80 76 13 52 0C 80 F8  FF FF 7F F8 FF FF 7F 73  ..v.R..........s
1370: 74 33 35 01 9F 13 02 87  7F 0E 80 80 90 13 52 0C  t35...........R.
1380: 80 F8 FF FF 7F F8 FF FF  7F 73 74 33 35 01 9F 13  .........st35...
1390: 52 0C 80 F8 FF FF 7F F8  FF FF 7F 73 30 33 35 45  R..........s035E
13A0: 0C 80 F8 FF FF 7F F8 FF  FF 7F 73 30 33 36 01 80  ..........s036..
13B0: 6F 76 F0 FF FF 7F 1C 1F  80 62 0B 80 BB F1 08 01  ov.......b......
13C0: BB F1 08 01 6D 61 69 6E  01 80 1C 43 80 62 0B 80  ....main...C.b..
13D0: BB F1 08 01 BB F1 08 01  6D 61 69 6E 01 80 1C 1F  ........main....
13E0: 80 45 00 80 F0 FF FF 7F  F0 FF FF 7F 66 64 6F 31  .E..........fdo1
13F0: 01 80 55 00 80 F0 FF FF  7F F0 FF FF 7F 66 64 6F  ..U..........fdo
1400: 31 52 0C 80 F8 FF FF 7F  F8 FF FF 7F 73 30 33 36  1R..........s036
1410: 5C 00 01 80 5C 01 01 80  5C 02 30 80 5C 03 38 80  \...\...\.0.\.8.
1420: 9A 5D 39 80 12 80 1C 21  80 AB 11 01 80 1C 12 80  .]9....!........
1430: 46 00 45 00 80 F0 FF FF  7F F0 FF FF 7F 66 64 69  F.E..........fdi
1440: 32 01 80 21 00                                    2..!.           
```

#### Opcodes

```
  0: 0x092B [0x42] SET_CLI_EVENT_CANCEL_DATA()
  1: 0x092C [0x45] LOAD_SCHEDULED_TASK: Load scheduler "fdo1" with entities [LocalPlayer, LocalPlayer], work=[200*, 0*]
  2: 0x093D [0x55] WAIT_LOAD_SCHEDULER: Wait for scheduler "fdo1" with entities [LocalPlayer, LocalPlayer], work=200*
  3: 0x094C [0x46] CAMERA_CONTROL: Disable user control
  4: 0x094E [0x38] SET_CLIENT_EVENT_MODE(mode=19*)
  5: 0x0951 [0x5C] MUSIC_CONTROL: Set Idle (Day) music to song 115*
  6: 0x0955 [0x5C] MUSIC_CONTROL: Set Idle (Night) music to song 115*
  7: 0x0959 [0x5C] MUSIC_CONTROL: Set Combat (Solo) music to song 115*
  8: 0x095D [0x5C] MUSIC_CONTROL: Set Combat (Party) music to song 115*
  9: 0x0961 [0x9A] WAIT_MUSIC_SERVER()
 10: 0x0962 [0x2F] Sirius (ID: 17363388/0x0108F1BC)->Render.Flags0 &= ~0x80000 // Bit 19
 11: 0x0968 [0x2F] Almid (ID: 17363389/0x0108F1BD)->Render.Flags0 &= ~0x80000 // Bit 19
 12: 0x096E [0x2F] Incensed Pineapple (ID: 17363390/0x0108F1BE)->Render.Flags0 &= ~0x80000 // Bit 19
 13: 0x0974 [0x2F] Unnamed NPC (ID: 17363391/0x0108F1BF)->Render.Flags0 &= ~0x80000 // Bit 19
 14: 0x097A [0x4E] SET_ENTITY_HIDE_FLAG: Show Incensed Pineapple (ID: 17363390/0x0108F1BE)
 15: 0x0980 [0x4E] SET_ENTITY_HIDE_FLAG: Show Unnamed NPC (ID: 17363391/0x0108F1BF)
 16: 0x0986 [0x6C] FADE_ENTITY_COLOR(entity_id=Unnamed NPC (ID: 17363391/0x0108F1BF), end_alpha=0*, fade_time=0*)
 17: 0x098F [0x94] Sirius (ID: 17363388/0x0108F1BC)->Render.Flags3 ^= 0x01
 18: 0x0995 [0x94] Almid (ID: 17363389/0x0108F1BD)->Render.Flags3 ^= 0x01
 19: 0x099B [0x94] Incensed Pineapple (ID: 17363390/0x0108F1BE)->Render.Flags3 ^= 0x01
 20: 0x09A1 [0x94] Unnamed NPC (ID: 17363391/0x0108F1BF)->Render.Flags3 ^= 0x01
 21: 0x09A7 [0x94] LocalPlayer->Render.Flags3 ^= 0x01
 22: 0x09AD [0xBA] SET_ENTITY_POSITION(entity_id=LocalPlayer, pos_x=0.000*, pos_z=0.000*, pos_y=0.000*, direction=0.0°*)
 23: 0x09BA [0x27] REQ_SET(priority=0x10, entity_id=LocalPlayer, tag_num=0x40)
 24: 0x09C1 [0x1C] WAIT(240* ticks)
 25: 0x09C4 [0xBA] SET_ENTITY_POSITION(entity_id=Sirius (ID: 17363388/0x0108F1BC), pos_x=21.750*, pos_z=70.340*, pos_y=-31.900*, direction=377476129.3°*)
 26: 0x09D1 [0xBA] SET_ENTITY_POSITION(entity_id=Almid (ID: 17363389/0x0108F1BD), pos_x=19.860*, pos_z=70.280*, pos_y=-31.980*, direction=377476129.3°*)
 27: 0x09DE [0xBA] SET_ENTITY_POSITION(entity_id=Incensed Pineapple (ID: 17363390/0x0108F1BE), pos_x=20.170*, pos_z=81.090*, pos_y=-31.790*, direction=134.9°*)
 28: 0x09EB [0xBA] SET_ENTITY_POSITION(entity_id=Unnamed NPC (ID: 17363391/0x0108F1BF), pos_x=20.170*, pos_z=81.090*, pos_y=-31.790*, direction=134.9°*)
 29: 0x09F8 [0xBA] SET_ENTITY_POSITION(entity_id=LocalPlayer, pos_x=18.600*, pos_z=79.500*, pos_y=-31.930*, direction=377476129.3°*)
 30: 0x0A05 [0x4A] Incensed Pineapple (ID: 17363390/0x0108F1BE) looks at LocalPlayer
 31: 0x0A0E [0x4A] Unnamed NPC (ID: 17363391/0x0108F1BF) looks at LocalPlayer
 32: 0x0A17 [0x4A] LocalPlayer looks at Incensed Pineapple (ID: 17363390/0x0108F1BE)
 33: 0x0A20 [0x80] LOAD_WAIT(entity=Sirius (ID: 17363388/0x0108F1BC))
 34: 0x0A25 [0x80] LOAD_WAIT(entity=Almid (ID: 17363389/0x0108F1BD))
 35: 0x0A2A [0x80] LOAD_WAIT(entity=Incensed Pineapple (ID: 17363390/0x0108F1BE))
 36: 0x0A2F [0x1C] WAIT(60* ticks)
 37: 0x0A32 [0x45] LOAD_SCHEDULED_TASK: Load scheduler "fdi1" with entities [LocalPlayer, LocalPlayer], work=[200*, 0*]
 38: 0x0A43 [0x02] IF !(LocalPlayer->Race == 3*) GOTO 0x0A5F
 39: 0x0A4B [0x45] LOAD_SCHEDULED_TASK: Load scheduler "sg20" with entities [EventEntity, EventEntity], work=[784*, 0*]
 40: 0x0A5C [0x01] GOTO 0x0AC4
 41: 0x0A5F [0x02] IF !(LocalPlayer->Race == 5*) GOTO 0x0A7B
 42: 0x0A67 [0x45] LOAD_SCHEDULED_TASK: Load scheduler "st20" with entities [EventEntity, EventEntity], work=[784*, 0*]
 43: 0x0A78 [0x01] GOTO 0x0AC4
 44: 0x0A7B [0x02] IF !(LocalPlayer->Race == 6*) GOTO 0x0A97
 45: 0x0A83 [0x45] LOAD_SCHEDULED_TASK: Load scheduler "st20" with entities [EventEntity, EventEntity], work=[784*, 0*]
 46: 0x0A94 [0x01] GOTO 0x0AC4
 47: 0x0A97 [0x02] IF !(LocalPlayer->Race == 8*) GOTO 0x0AB3
 48: 0x0A9F [0x45] LOAD_SCHEDULED_TASK: Load scheduler "sg20" with entities [EventEntity, EventEntity], work=[784*, 0*]
 49: 0x0AB0 [0x01] GOTO 0x0AC4
 50: 0x0AB3 [0x45] LOAD_SCHEDULED_TASK: Load scheduler "s020" with entities [EventEntity, EventEntity], work=[784*, 0*]

SUBROUTINE_0AC4:
 51: 0x0AC4 [0x1C] WAIT(120* ticks)
 52: 0x0AC7 [0xBB] LOAD_EVENT_SCHEDULER_ALT: Load scheduler "main" with entities [Unnamed NPC (ID: 17363391/0x0108F1BF), Unnamed NPC (ID: 17363391/0x0108F1BF)], work=[117*, 0*]
 53: 0x0AD8 [0x1C] WAIT(45* ticks)
 54: 0x0ADB [0xC4] SCHEDULE_MAGIC_CASTING_ALT (arg=17): LocalPlayer casts magic 0* on Incensed Pineapple (ID: 17363390/0x0108F1BE)
 55: 0x0AE7 [0x1C] WAIT(30* ticks)
 56: 0x0AEA [0xBD] END_LOAD_SCHEDULER_MAIN_ALT6: End scheduler "main" with entities [Unnamed NPC (ID: 17363391/0x0108F1BF), Unnamed NPC (ID: 17363391/0x0108F1BF)], work=117*
 57: 0x0AF9 [0x1C] WAIT(60* ticks)
 58: 0x0AFC [0x2C] CREATE_SCHEDULER_TASK: Create scheduler "dead" with entities [Unnamed NPC (ID: 17363391/0x0108F1BF), Unnamed NPC (ID: 17363391/0x0108F1BF)]
 59: 0x0B09 [0x2C] CREATE_SCHEDULER_TASK: Create scheduler "dead" with entities [Incensed Pineapple (ID: 17363390/0x0108F1BE), Incensed Pineapple (ID: 17363390/0x0108F1BE)]
 60: 0x0B16 [0x1C] WAIT(30* ticks)
 61: 0x0B19 [0x4E] SET_ENTITY_HIDE_FLAG: Hide Unnamed NPC (ID: 17363391/0x0108F1BF)
 62: 0x0B1F [0x5C] MUSIC_CONTROL: Set Idle (Day) music to song 0*
 63: 0x0B23 [0x5C] MUSIC_CONTROL: Set Idle (Night) music to song 0*
 64: 0x0B27 [0x5C] MUSIC_CONTROL: Set Combat (Solo) music to song 0*
 65: 0x0B2B [0x5C] MUSIC_CONTROL: Set Combat (Party) music to song 0*
 66: 0x0B2F [0x1C] WAIT(180* ticks)
 67: 0x0B32 [0x2C] CREATE_SCHEDULER_TASK: Create scheduler "kesu" with entities [Incensed Pineapple (ID: 17363390/0x0108F1BE), Incensed Pineapple (ID: 17363390/0x0108F1BE)]
 68: 0x0B3F [0x02] IF !(LocalPlayer->Race == 3*) GOTO 0x0B59
 69: 0x0B47 [0x52] END_LOAD_SCHEDULER: End scheduler "sg20" with entities [EventEntity, EventEntity], work=784*
 70: 0x0B56 [0x01] GOTO 0x0BB6
 71: 0x0B59 [0x02] IF !(LocalPlayer->Race == 5*) GOTO 0x0B73
 72: 0x0B61 [0x52] END_LOAD_SCHEDULER: End scheduler "st20" with entities [EventEntity, EventEntity], work=784*
 73: 0x0B70 [0x01] GOTO 0x0BB6
 74: 0x0B73 [0x02] IF !(LocalPlayer->Race == 6*) GOTO 0x0B8D
 75: 0x0B7B [0x52] END_LOAD_SCHEDULER: End scheduler "st20" with entities [EventEntity, EventEntity], work=784*
 76: 0x0B8A [0x01] GOTO 0x0BB6
 77: 0x0B8D [0x02] IF !(LocalPlayer->Race == 8*) GOTO 0x0BA7
 78: 0x0B95 [0x52] END_LOAD_SCHEDULER: End scheduler "sg20" with entities [EventEntity, EventEntity], work=784*
 79: 0x0BA4 [0x01] GOTO 0x0BB6
 80: 0x0BA7 [0x52] END_LOAD_SCHEDULER: End scheduler "s020" with entities [EventEntity, EventEntity], work=784*

SUBROUTINE_0BB6:
 81: 0x0BB6 [0x45] LOAD_SCHEDULED_TASK: Load scheduler "s021" with entities [EventEntity, EventEntity], work=[784*, 0*]
 82: 0x0BC7 [0x27] REQ_SET(priority=0x10, entity_id=LocalPlayer, tag_num=0x41)
 83: 0x0BCE [0x2A] GET_REQ_LEVEL(level=16, entity_id=LocalPlayer)
 84: 0x0BD4 [0x1C] WAIT(30* ticks)
 85: 0x0BD7 [0x4A] LocalPlayer looks at Peculiar Fissure (ID: 17363387/0x0108F1BB)
 86: 0x0BE0 [0x6F] WAIT_FRAME_DELAY: Yield until WaitTime reaches zero
 87: 0x0BE1 [0x76] CHECK_ENTITY_RENDER_FLAGS: Wait until LocalPlayer Render.Flags0 and Render.Flags3 conditions are met
 88: 0x0BE6 [0x7B] LocalPlayer stops talking
 89: 0x0BEB [0x27] REQ_SET(priority=0x10, entity_id=LocalPlayer, tag_num=0x3D)
 90: 0x0BF2 [0x2A] GET_REQ_LEVEL(level=16, entity_id=LocalPlayer)
 91: 0x0BF8 [0x1C] WAIT(120* ticks)
 92: 0x0BFB [0x48] [System] [7507*]:
    → "Looks like the explosives were unscathed."
 93: 0x0BFE [0x1C] WAIT(120* ticks)
 94: 0x0C01 [0x27] REQ_SET(priority=0x10, entity_id=LocalPlayer, tag_num=0x3E)
 95: 0x0C08 [0x1C] WAIT(120* ticks)
 96: 0x0C0B [0x2A] GET_REQ_LEVEL(level=16, entity_id=LocalPlayer)
 97: 0x0C11 [0x27] REQ_SET(priority=0x10, entity_id=LocalPlayer, tag_num=0x43)
 98: 0x0C18 [0x52] END_LOAD_SCHEDULER: End scheduler "s021" with entities [EventEntity, EventEntity], work=784*
 99: 0x0C27 [0x02] IF !(LocalPlayer->Race == 3*) GOTO 0x0C43
100: 0x0C2F [0x45] LOAD_SCHEDULED_TASK: Load scheduler "sg22" with entities [EventEntity, EventEntity], work=[784*, 0*]
101: 0x0C40 [0x01] GOTO 0x0CA8
102: 0x0C43 [0x02] IF !(LocalPlayer->Race == 5*) GOTO 0x0C5F
103: 0x0C4B [0x45] LOAD_SCHEDULED_TASK: Load scheduler "st22" with entities [EventEntity, EventEntity], work=[784*, 0*]
104: 0x0C5C [0x01] GOTO 0x0CA8
105: 0x0C5F [0x02] IF !(LocalPlayer->Race == 6*) GOTO 0x0C7B
106: 0x0C67 [0x45] LOAD_SCHEDULED_TASK: Load scheduler "st22" with entities [EventEntity, EventEntity], work=[784*, 0*]
107: 0x0C78 [0x01] GOTO 0x0CA8
108: 0x0C7B [0x02] IF !(LocalPlayer->Race == 8*) GOTO 0x0C97
109: 0x0C83 [0x45] LOAD_SCHEDULED_TASK: Load scheduler "sg22" with entities [EventEntity, EventEntity], work=[784*, 0*]
110: 0x0C94 [0x01] GOTO 0x0CA8
111: 0x0C97 [0x45] LOAD_SCHEDULED_TASK: Load scheduler "s022" with entities [EventEntity, EventEntity], work=[784*, 0*]

SUBROUTINE_0CA8:
112: 0x0CA8 [0x2A] GET_REQ_LEVEL(level=16, entity_id=LocalPlayer)
113: 0x0CAE [0x1C] WAIT(15* ticks)
114: 0x0CB1 [0x4A] LocalPlayer looks at Peculiar Fissure (ID: 17363387/0x0108F1BB)
115: 0x0CBA [0x6F] WAIT_FRAME_DELAY: Yield until WaitTime reaches zero
116: 0x0CBB [0x76] CHECK_ENTITY_RENDER_FLAGS: Wait until LocalPlayer Render.Flags0 and Render.Flags3 conditions are met
117: 0x0CC0 [0x7B] LocalPlayer stops talking
118: 0x0CC5 [0x1C] WAIT(60* ticks)
119: 0x0CC8 [0xAD] DUAL_ENTITY_SCHEDULER_HANDLER: Execute sub-case 2 with entities [Peculiar Fissure (ID: 17363387/0x0108F1BB), Peculiar Fissure (ID: 17363387/0x0108F1BB)], work=269*
120: 0x0CD4 [0x4E] SET_ENTITY_HIDE_FLAG: Show Sirius (ID: 17363388/0x0108F1BC)
121: 0x0CDA [0x4E] SET_ENTITY_HIDE_FLAG: Show Almid (ID: 17363389/0x0108F1BD)
122: 0x0CE0 [0x9F] LOAD_SCHEDULED_TASK_ALT: Load scheduler "main" with entities [Sirius (ID: 17363388/0x0108F1BC), Sirius (ID: 17363388/0x0108F1BC)], work=[240*, 0*]
123: 0x0CF1 [0x9F] LOAD_SCHEDULED_TASK_ALT: Load scheduler "main" with entities [Almid (ID: 17363389/0x0108F1BD), Almid (ID: 17363389/0x0108F1BD)], work=[240*, 0*]
124: 0x0D02 [0x27] REQ_SET(priority=0x10, entity_id=Almid (ID: 17363389/0x0108F1BD), tag_num=0x04)
125: 0x0D09 [0x1C] WAIT(30* ticks)
126: 0x0D0C [0x27] REQ_SET(priority=0x10, entity_id=Sirius (ID: 17363388/0x0108F1BC), tag_num=0x04)
127: 0x0D13 [0x1C] WAIT(90* ticks)
128: 0x0D16 [0x02] IF !(LocalPlayer->Race == 3*) GOTO 0x0D30
129: 0x0D1E [0x52] END_LOAD_SCHEDULER: End scheduler "sg22" with entities [EventEntity, EventEntity], work=784*
130: 0x0D2D [0x01] GOTO 0x0D8D
131: 0x0D30 [0x02] IF !(LocalPlayer->Race == 5*) GOTO 0x0D4A
132: 0x0D38 [0x52] END_LOAD_SCHEDULER: End scheduler "st22" with entities [EventEntity, EventEntity], work=784*
133: 0x0D47 [0x01] GOTO 0x0D8D
134: 0x0D4A [0x02] IF !(LocalPlayer->Race == 6*) GOTO 0x0D64
135: 0x0D52 [0x52] END_LOAD_SCHEDULER: End scheduler "st22" with entities [EventEntity, EventEntity], work=784*
136: 0x0D61 [0x01] GOTO 0x0D8D
137: 0x0D64 [0x02] IF !(LocalPlayer->Race == 8*) GOTO 0x0D7E
138: 0x0D6C [0x52] END_LOAD_SCHEDULER: End scheduler "sg22" with entities [EventEntity, EventEntity], work=784*
139: 0x0D7B [0x01] GOTO 0x0D8D
140: 0x0D7E [0x52] END_LOAD_SCHEDULER: End scheduler "s022" with entities [EventEntity, EventEntity], work=784*

SUBROUTINE_0D8D:
141: 0x0D8D [0x45] LOAD_SCHEDULED_TASK: Load scheduler "s023" with entities [EventEntity, EventEntity], work=[784*, 0*]
142: 0x0D9E [0x2A] GET_REQ_LEVEL(level=16, entity_id=Almid (ID: 17363389/0x0108F1BD))
143: 0x0DA4 [0x4A] Almid (ID: 17363389/0x0108F1BD) looks at LocalPlayer
144: 0x0DAD [0x7B] Almid (ID: 17363389/0x0108F1BD) stops talking
145: 0x0DB2 [0x1C] WAIT(15* ticks)
146: 0x0DB5 [0x2A] GET_REQ_LEVEL(level=16, entity_id=Sirius (ID: 17363388/0x0108F1BC))
147: 0x0DBB [0x4A] Sirius (ID: 17363388/0x0108F1BC) looks at LocalPlayer
148: 0x0DC4 [0x7B] Sirius (ID: 17363388/0x0108F1BC) stops talking
149: 0x0DC9 [0x1C] WAIT(120* ticks)
150: 0x0DCC [0x52] END_LOAD_SCHEDULER: End scheduler "s023" with entities [EventEntity, EventEntity], work=784*
151: 0x0DDB [0x45] LOAD_SCHEDULED_TASK: Load scheduler "s024" with entities [EventEntity, EventEntity], work=[784*, 0*]
152: 0x0DEC [0xB4] UI_WINDOW_STRING_HANDLER(case=0x00 - Copy string from opcode, work_offset=ExtData[1]->WorkLocal[3], string="???")
153: 0x0E00 [0xB5] SET_EVENT_ENTITY_NAME: Change EventEntity name to ExtData[1]->WorkLocal[3]
154: 0x0E04 [0xB0] PRINT_EVENT_MESSAGE(unknown1=0x00, speaker_id=EventEntity, listener_id=0x0108F1BD, message_offset=0x8046)
155: 0x0E10 [0x23] WAIT_FOR_DIALOG_INTERACTION
156: 0x0E11 [0xB4] UI_WINDOW_STRING_HANDLER(case=0x13 - Copy string and replace @ with space, work_offset=ExtData[1]->WorkLocal[3], string="")
157: 0x0E25 [0xB5] SET_EVENT_ENTITY_NAME: Change EventEntity name to ExtData[1]->WorkLocal[3]
158: 0x0E29 [0x4A] LocalPlayer looks at Almid (ID: 17363389/0x0108F1BD)
159: 0x0E32 [0x1C] WAIT(120* ticks)
160: 0x0E35 [0x52] END_LOAD_SCHEDULER: End scheduler "s024" with entities [EventEntity, EventEntity], work=784*
161: 0x0E44 [0x45] LOAD_SCHEDULED_TASK: Load scheduler "s025" with entities [EventEntity, EventEntity], work=[784*, 0*]
162: 0x0E55 [0x2B] Almid (ID: 17363389/0x0108F1BD) [7509*]:
    → "Ah, excuse my manners. I'm Almid. Charmed, I'm sure."
163: 0x0E5C [0x23] WAIT_FOR_DIALOG_INTERACTION
164: 0x0E5D [0x1C] WAIT(60* ticks)
165: 0x0E60 [0x2B] Almid (ID: 17363389/0x0108F1BD) [7510*]:
    → "I don't think I've seen your face down here before."
166: 0x0E67 [0x23] WAIT_FOR_DIALOG_INTERACTION
167: 0x0E68 [0x1C] WAIT(90* ticks)
168: 0x0E6B [0x52] END_LOAD_SCHEDULER: End scheduler "s025" with entities [EventEntity, EventEntity], work=784*
169: 0x0E7A [0x45] LOAD_SCHEDULED_TASK: Load scheduler "s026" with entities [EventEntity, EventEntity], work=[784*, 0*]
170: 0x0E8B [0x2B] Sirius (ID: 17363388/0x0108F1BC) [7511*]:
    → "Welcome, newcomer. The name's Sirius. I'm heading development here in the mine."
171: 0x0E92 [0x23] WAIT_FOR_DIALOG_INTERACTION
172: 0x0E93 [0x1C] WAIT(60* ticks)
173: 0x0E96 [0x2B] Sirius (ID: 17363388/0x0108F1BC) [7512*]:
    → "I gotta say, what with the way these tunnels snake and wind, it's a wonder you didn't stumble across more of those bombs. Blasting down in these unexplored tunnels is like dancing with Lady Luck. Glad to see you're still alive."
174: 0x0E9D [0x23] WAIT_FOR_DIALOG_INTERACTION
175: 0x0E9E [0x1C] WAIT(60* ticks)
176: 0x0EA1 [0x79] Almid (ID: 17363389/0x0108F1BD) looks at LocalPlayer (Basic look)
177: 0x0EAB [0x52] END_LOAD_SCHEDULER: End scheduler "s026" with entities [EventEntity, EventEntity], work=784*
178: 0x0EBA [0x02] IF !(LocalPlayer->Race == 3*) GOTO 0x0ED6
179: 0x0EC2 [0x45] LOAD_SCHEDULED_TASK: Load scheduler "sg27" with entities [EventEntity, EventEntity], work=[784*, 0*]
180: 0x0ED3 [0x01] GOTO 0x0F3B
181: 0x0ED6 [0x02] IF !(LocalPlayer->Race == 5*) GOTO 0x0EF2
182: 0x0EDE [0x45] LOAD_SCHEDULED_TASK: Load scheduler "st27" with entities [EventEntity, EventEntity], work=[784*, 0*]
183: 0x0EEF [0x01] GOTO 0x0F3B
184: 0x0EF2 [0x02] IF !(LocalPlayer->Race == 6*) GOTO 0x0F0E
185: 0x0EFA [0x45] LOAD_SCHEDULED_TASK: Load scheduler "st27" with entities [EventEntity, EventEntity], work=[784*, 0*]
186: 0x0F0B [0x01] GOTO 0x0F3B
187: 0x0F0E [0x02] IF !(LocalPlayer->Race == 8*) GOTO 0x0F2A
188: 0x0F16 [0x45] LOAD_SCHEDULED_TASK: Load scheduler "sg27" with entities [EventEntity, EventEntity], work=[784*, 0*]
189: 0x0F27 [0x01] GOTO 0x0F3B
190: 0x0F2A [0x45] LOAD_SCHEDULED_TASK: Load scheduler "s027" with entities [EventEntity, EventEntity], work=[784*, 0*]

SUBROUTINE_0F3B:
191: 0x0F3B [0x66] LOAD_EXT_SCHEDULER_MAIN: Load scheduler "tlk0" with entities [Almid (ID: 17363389/0x0108F1BD), Almid (ID: 17363389/0x0108F1BD)], work=149*
192: 0x0F4A [0x2B] Almid (ID: 17363389/0x0108F1BD) [7513*]:
    → "Hey, that's some powder you're using. I've never seen the rock split that cleanly with such a small charge."
193: 0x0F51 [0x1C] WAIT(120* ticks)
194: 0x0F54 [0x23] WAIT_FOR_DIALOG_INTERACTION
195: 0x0F55 [0x66] LOAD_EXT_SCHEDULER_MAIN: Load scheduler "tlk1" with entities [Almid (ID: 17363389/0x0108F1BD), Almid (ID: 17363389/0x0108F1BD)], work=149*
196: 0x0F64 [0x7B] Almid (ID: 17363389/0x0108F1BD) stops talking
197: 0x0F69 [0x1C] WAIT(60* ticks)
198: 0x0F6C [0x66] LOAD_EXT_SCHEDULER_MAIN: Load scheduler "thk0" with entities [Almid (ID: 17363389/0x0108F1BD), Almid (ID: 17363389/0x0108F1BD)], work=149*
199: 0x0F7B [0x7C] Almid (ID: 17363389/0x0108F1BD)->Render.Flags2 |= 0x00
200: 0x0F81 [0x2B] Almid (ID: 17363389/0x0108F1BD) [7514*]:
    → "I've been trying to develop something similar for some time. Maybe now I don't have to."
201: 0x0F88 [0x1C] WAIT(150* ticks)
202: 0x0F8B [0x23] WAIT_FOR_DIALOG_INTERACTION
203: 0x0F8C [0x7C] Almid (ID: 17363389/0x0108F1BD)->Render.Flags2 |= 0x01
204: 0x0F92 [0x66] LOAD_EXT_SCHEDULER_MAIN: Load scheduler "thk1" with entities [Almid (ID: 17363389/0x0108F1BD), Almid (ID: 17363389/0x0108F1BD)], work=149*
205: 0x0FA1 [0x79] Sirius (ID: 17363388/0x0108F1BC) looks at LocalPlayer (Basic look)
206: 0x0FAB [0x02] IF !(LocalPlayer->Race == 3*) GOTO 0x0FD6
207: 0x0FB3 [0x52] END_LOAD_SCHEDULER: End scheduler "sg27" with entities [EventEntity, EventEntity], work=784*
208: 0x0FC2 [0x45] LOAD_SCHEDULED_TASK: Load scheduler "sg28" with entities [EventEntity, EventEntity], work=[784*, 0*]
209: 0x0FD3 [0x01] GOTO 0x1077
210: 0x0FD6 [0x02] IF !(LocalPlayer->Race == 5*) GOTO 0x1001
211: 0x0FDE [0x52] END_LOAD_SCHEDULER: End scheduler "st27" with entities [EventEntity, EventEntity], work=784*
212: 0x0FED [0x45] LOAD_SCHEDULED_TASK: Load scheduler "st28" with entities [EventEntity, EventEntity], work=[784*, 0*]
213: 0x0FFE [0x01] GOTO 0x1077
214: 0x1001 [0x02] IF !(LocalPlayer->Race == 6*) GOTO 0x102C
215: 0x1009 [0x52] END_LOAD_SCHEDULER: End scheduler "st27" with entities [EventEntity, EventEntity], work=784*
216: 0x1018 [0x45] LOAD_SCHEDULED_TASK: Load scheduler "st28" with entities [EventEntity, EventEntity], work=[784*, 0*]
217: 0x1029 [0x01] GOTO 0x1077
218: 0x102C [0x02] IF !(LocalPlayer->Race == 8*) GOTO 0x1057
219: 0x1034 [0x52] END_LOAD_SCHEDULER: End scheduler "sg27" with entities [EventEntity, EventEntity], work=784*
220: 0x1043 [0x45] LOAD_SCHEDULED_TASK: Load scheduler "sg28" with entities [EventEntity, EventEntity], work=[784*, 0*]
221: 0x1054 [0x01] GOTO 0x1077
222: 0x1057 [0x52] END_LOAD_SCHEDULER: End scheduler "s027" with entities [EventEntity, EventEntity], work=784*
223: 0x1066 [0x45] LOAD_SCHEDULED_TASK: Load scheduler "s028" with entities [EventEntity, EventEntity], work=[784*, 0*]

SUBROUTINE_1077:
224: 0x1077 [0x1C] WAIT(30* ticks)
225: 0x107A [0x66] LOAD_EXT_SCHEDULER_MAIN: Load scheduler "tlk0" with entities [Sirius (ID: 17363388/0x0108F1BC), Sirius (ID: 17363388/0x0108F1BC)], work=9*
226: 0x1089 [0x2B] Sirius (ID: 17363388/0x0108F1BC) [7515*]:
    → "That blast just saved us a lot of time and manpower. We can finally strike at the ore veins deep in rock."
227: 0x1090 [0x1C] WAIT(30* ticks)
228: 0x1093 [0x4A] LocalPlayer looks at Sirius (ID: 17363388/0x0108F1BC)
229: 0x109C [0x1C] WAIT(120* ticks)
230: 0x109F [0x23] WAIT_FOR_DIALOG_INTERACTION
231: 0x10A0 [0x66] LOAD_EXT_SCHEDULER_MAIN: Load scheduler "tlk1" with entities [Sirius (ID: 17363388/0x0108F1BC), Sirius (ID: 17363388/0x0108F1BC)], work=9*
232: 0x10AF [0x7B] Sirius (ID: 17363388/0x0108F1BC) stops talking
233: 0x10B4 [0x1C] WAIT(60* ticks)
234: 0x10B7 [0x02] IF !(LocalPlayer->Race == 3*) GOTO 0x10D1
235: 0x10BF [0x52] END_LOAD_SCHEDULER: End scheduler "sg28" with entities [EventEntity, EventEntity], work=784*
236: 0x10CE [0x01] GOTO 0x112E
237: 0x10D1 [0x02] IF !(LocalPlayer->Race == 5*) GOTO 0x10EB
238: 0x10D9 [0x52] END_LOAD_SCHEDULER: End scheduler "st28" with entities [EventEntity, EventEntity], work=784*
239: 0x10E8 [0x01] GOTO 0x112E
240: 0x10EB [0x02] IF !(LocalPlayer->Race == 6*) GOTO 0x1105
241: 0x10F3 [0x52] END_LOAD_SCHEDULER: End scheduler "st28" with entities [EventEntity, EventEntity], work=784*
242: 0x1102 [0x01] GOTO 0x112E
243: 0x1105 [0x02] IF !(LocalPlayer->Race == 8*) GOTO 0x111F
244: 0x110D [0x52] END_LOAD_SCHEDULER: End scheduler "sg28" with entities [EventEntity, EventEntity], work=784*
245: 0x111C [0x01] GOTO 0x112E
246: 0x111F [0x52] END_LOAD_SCHEDULER: End scheduler "s028" with entities [EventEntity, EventEntity], work=784*

SUBROUTINE_112E:
247: 0x112E [0x45] LOAD_SCHEDULED_TASK: Load scheduler "s029" with entities [EventEntity, EventEntity], work=[784*, 0*]
248: 0x113F [0x1C] WAIT(30* ticks)
249: 0x1142 [0x2B] Almid (ID: 17363389/0x0108F1BD) [7516*]:
    → "Still, had you set that bomb off with your charge, we wouldn't be having this conversation."
250: 0x1149 [0x23] WAIT_FOR_DIALOG_INTERACTION
251: 0x114A [0x1C] WAIT(60* ticks)
252: 0x114D [0x7B] LocalPlayer stops talking
253: 0x1152 [0x27] REQ_SET(priority=0x10, entity_id=LocalPlayer, tag_num=0x44)
254: 0x1159 [0x6E] Sirius (ID: 17363388/0x0108F1BC) uses emote 7*
255: 0x1160 [0x99] Wait for Sirius (ID: 17363388/0x0108F1BC) animation to complete
256: 0x1165 [0x2B] Sirius (ID: 17363388/0x0108F1BC) [7517*]:
    → "Are you kidding? That thing could probably take out half the shaft. They'd shut down the mine for sure."
257: 0x116C [0x1C] WAIT(150* ticks)
258: 0x116F [0x23] WAIT_FOR_DIALOG_INTERACTION
259: 0x1170 [0x52] END_LOAD_SCHEDULER: End scheduler "s029" with entities [EventEntity, EventEntity], work=784*
260: 0x117F [0x45] LOAD_SCHEDULED_TASK: Load scheduler "s030" with entities [EventEntity, EventEntity], work=[784*, 0*]
261: 0x1190 [0x79] Sirius (ID: 17363388/0x0108F1BC) looks at Almid (ID: 17363389/0x0108F1BD) (Basic look)
262: 0x119A [0x2B] Sirius (ID: 17363388/0x0108F1BC) [7518*]:
    → "And with that rosy thought in your head, let's get back to it, shall we?"
263: 0x11A1 [0x23] WAIT_FOR_DIALOG_INTERACTION
264: 0x11A2 [0x4A] Almid (ID: 17363389/0x0108F1BD) looks at Sirius (ID: 17363388/0x0108F1BC)
265: 0x11AB [0x1C] WAIT(60* ticks)
266: 0x11AE [0x6F] WAIT_FRAME_DELAY: Yield until WaitTime reaches zero
267: 0x11AF [0x76] CHECK_ENTITY_RENDER_FLAGS: Wait until Almid (ID: 17363389/0x0108F1BD) Render.Flags0 and Render.Flags3 conditions are met
268: 0x11B4 [0x2B] Almid (ID: 17363389/0x0108F1BD) [7519*]:
    → "Right! With the time we're bound to save I think we can make an early day of it!"
269: 0x11BB [0x23] WAIT_FOR_DIALOG_INTERACTION
270: 0x11BC [0x5C] MUSIC_CONTROL: Set Idle (Day) music to song 120*
271: 0x11C0 [0x5C] MUSIC_CONTROL: Set Idle (Night) music to song 120*
272: 0x11C4 [0x1C] WAIT(120* ticks)
273: 0x11C7 [0x9A] WAIT_MUSIC_SERVER()
274: 0x11C8 [0x52] END_LOAD_SCHEDULER: End scheduler "s030" with entities [EventEntity, EventEntity], work=784*
275: 0x11D7 [0x45] LOAD_SCHEDULED_TASK: Load scheduler "s031" with entities [EventEntity, EventEntity], work=[784*, 0*]
276: 0x11E8 [0x6E] Almid (ID: 17363389/0x0108F1BD) uses emote 36*
277: 0x11EF [0x99] Wait for Almid (ID: 17363389/0x0108F1BD) animation to complete
278: 0x11F4 [0x03] Work_Zone[2] = 4395*
279: 0x11F9 [0x2B] Almid (ID: 17363389/0x0108F1BD) [7520*]:
    → "A few more blasts and it's off to the Steaming Sheep for a double helping of $0!"
280: 0x1200 [0x1C] WAIT(180* ticks)
281: 0x1203 [0x23] WAIT_FOR_DIALOG_INTERACTION
282: 0x1204 [0x4A] Almid (ID: 17363389/0x0108F1BD) looks at Sirius (ID: 17363388/0x0108F1BC)
283: 0x120D [0x52] END_LOAD_SCHEDULER: End scheduler "s031" with entities [EventEntity, EventEntity], work=784*
284: 0x121C [0x45] LOAD_SCHEDULED_TASK: Load scheduler "s032" with entities [EventEntity, EventEntity], work=[784*, 0*]
285: 0x122D [0x6F] WAIT_FRAME_DELAY: Yield until WaitTime reaches zero
286: 0x122E [0x76] CHECK_ENTITY_RENDER_FLAGS: Wait until Almid (ID: 17363389/0x0108F1BD) Render.Flags0 and Render.Flags3 conditions are met
287: 0x1233 [0x1C] WAIT(15* ticks)
288: 0x1236 [0x2B] Almid (ID: 17363389/0x0108F1BD) [7521*]:
    → "Your treat, Sirius!"
289: 0x123D [0x23] WAIT_FOR_DIALOG_INTERACTION
290: 0x123E [0x4A] Sirius (ID: 17363388/0x0108F1BC) looks at Almid (ID: 17363389/0x0108F1BD)
291: 0x1247 [0x52] END_LOAD_SCHEDULER: End scheduler "s032" with entities [EventEntity, EventEntity], work=784*
292: 0x1256 [0x45] LOAD_SCHEDULED_TASK: Load scheduler "s033" with entities [EventEntity, EventEntity], work=[784*, 0*]
293: 0x1267 [0x6F] WAIT_FRAME_DELAY: Yield until WaitTime reaches zero
294: 0x1268 [0x76] CHECK_ENTITY_RENDER_FLAGS: Wait until Sirius (ID: 17363388/0x0108F1BC) Render.Flags0 and Render.Flags3 conditions are met
295: 0x126D [0x1C] WAIT(15* ticks)
296: 0x1270 [0x6E] Sirius (ID: 17363388/0x0108F1BC) uses emote 22*
297: 0x1277 [0x99] Wait for Sirius (ID: 17363388/0x0108F1BC) animation to complete
298: 0x127C [0x2B] Sirius (ID: 17363388/0x0108F1BC) [7522*]:
    → "Hey, you trying to run my restaurant into the ground? My wife's gonna kill me!"
299: 0x1283 [0x1C] WAIT(150* ticks)
300: 0x1286 [0x23] WAIT_FOR_DIALOG_INTERACTION
301: 0x1287 [0x6E] Almid (ID: 17363389/0x0108F1BD) uses emote 4*
302: 0x128E [0x99] Wait for Almid (ID: 17363389/0x0108F1BD) animation to complete
303: 0x1293 [0x6E] Sirius (ID: 17363388/0x0108F1BC) uses emote 4*
304: 0x129A [0x99] Wait for Sirius (ID: 17363388/0x0108F1BC) animation to complete
305: 0x129F [0x1C] WAIT(75* ticks)
306: 0x12A2 [0x52] END_LOAD_SCHEDULER: End scheduler "s033" with entities [EventEntity, EventEntity], work=784*
307: 0x12B1 [0x45] LOAD_SCHEDULED_TASK: Load scheduler "s034" with entities [EventEntity, EventEntity], work=[784*, 0*]
308: 0x12C2 [0x1C] WAIT(105* ticks)
309: 0x12C5 [0x7B] Sirius (ID: 17363388/0x0108F1BC) stops talking
310: 0x12CA [0x27] REQ_SET(priority=0x10, entity_id=Sirius (ID: 17363388/0x0108F1BC), tag_num=0x05)
311: 0x12D1 [0x7B] Almid (ID: 17363389/0x0108F1BD) stops talking
312: 0x12D6 [0x27] REQ_SET(priority=0x10, entity_id=Almid (ID: 17363389/0x0108F1BD), tag_num=0x05)
313: 0x12DD [0x1C] WAIT(60* ticks)
314: 0x12E0 [0x52] END_LOAD_SCHEDULER: End scheduler "s034" with entities [EventEntity, EventEntity], work=784*
315: 0x12EF [0x02] IF !(LocalPlayer->Race == 5*) GOTO 0x130B
316: 0x12F7 [0x45] LOAD_SCHEDULED_TASK: Load scheduler "st35" with entities [EventEntity, EventEntity], work=[784*, 0*]
317: 0x1308 [0x01] GOTO 0x1338
318: 0x130B [0x02] IF !(LocalPlayer->Race == 6*) GOTO 0x1327
319: 0x1313 [0x45] LOAD_SCHEDULED_TASK: Load scheduler "st35" with entities [EventEntity, EventEntity], work=[784*, 0*]
320: 0x1324 [0x01] GOTO 0x1338
321: 0x1327 [0x45] LOAD_SCHEDULED_TASK: Load scheduler "s035" with entities [EventEntity, EventEntity], work=[784*, 0*]

SUBROUTINE_1338:
322: 0x1338 [0x27] REQ_SET(priority=0x10, entity_id=Incensed Pineapple (ID: 17363390/0x0108F1BE), tag_num=0x04)
323: 0x133F [0x27] REQ_SET(priority=0x10, entity_id=Unnamed NPC (ID: 17363391/0x0108F1BF), tag_num=0x02)
324: 0x1346 [0x1C] WAIT(30* ticks)
325: 0x1349 [0x27] REQ_SET(priority=0x10, entity_id=Peculiar Fissure (ID: 17363387/0x0108F1BB), tag_num=0x03)
326: 0x1350 [0x1C] WAIT(30* ticks)
327: 0x1353 [0x4A] LocalPlayer looks at Peculiar Fissure (ID: 17363387/0x0108F1BB)
328: 0x135C [0x02] IF !(LocalPlayer->Race == 5*) GOTO 0x1376
329: 0x1364 [0x52] END_LOAD_SCHEDULER: End scheduler "st35" with entities [EventEntity, EventEntity], work=784*
330: 0x1373 [0x01] GOTO 0x139F
331: 0x1376 [0x02] IF !(LocalPlayer->Race == 6*) GOTO 0x1390
332: 0x137E [0x52] END_LOAD_SCHEDULER: End scheduler "st35" with entities [EventEntity, EventEntity], work=784*
333: 0x138D [0x01] GOTO 0x139F
334: 0x1390 [0x52] END_LOAD_SCHEDULER: End scheduler "s035" with entities [EventEntity, EventEntity], work=784*

SUBROUTINE_139F:
335: 0x139F [0x45] LOAD_SCHEDULED_TASK: Load scheduler "s036" with entities [EventEntity, EventEntity], work=[784*, 0*]
336: 0x13B0 [0x6F] WAIT_FRAME_DELAY: Yield until WaitTime reaches zero
337: 0x13B1 [0x76] CHECK_ENTITY_RENDER_FLAGS: Wait until LocalPlayer Render.Flags0 and Render.Flags3 conditions are met
338: 0x13B6 [0x1C] WAIT(120* ticks)
339: 0x13B9 [0x62] LOAD_EVENT_SCHEDULER: Load scheduler "main" with entities [Peculiar Fissure (ID: 17363387/0x0108F1BB), Peculiar Fissure (ID: 17363387/0x0108F1BB)], work=[3*, 0*]
340: 0x13CA [0x1C] WAIT(45* ticks)
341: 0x13CD [0x62] LOAD_EVENT_SCHEDULER: Load scheduler "main" with entities [Peculiar Fissure (ID: 17363387/0x0108F1BB), Peculiar Fissure (ID: 17363387/0x0108F1BB)], work=[3*, 0*]
342: 0x13DE [0x1C] WAIT(120* ticks)
343: 0x13E1 [0x45] LOAD_SCHEDULED_TASK: Load scheduler "fdo1" with entities [LocalPlayer, LocalPlayer], work=[200*, 0*]
344: 0x13F2 [0x55] WAIT_LOAD_SCHEDULER: Wait for scheduler "fdo1" with entities [LocalPlayer, LocalPlayer], work=200*
345: 0x1401 [0x52] END_LOAD_SCHEDULER: End scheduler "s036" with entities [EventEntity, EventEntity], work=784*
346: 0x1410 [0x5C] MUSIC_CONTROL: Set Idle (Day) music to song 0*
347: 0x1414 [0x5C] MUSIC_CONTROL: Set Idle (Night) music to song 0*
348: 0x1418 [0x5C] MUSIC_CONTROL: Set Combat (Solo) music to song 115*
349: 0x141C [0x5C] MUSIC_CONTROL: Set Combat (Party) music to song 102*
350: 0x1420 [0x9A] WAIT_MUSIC_SERVER()
351: 0x1421 [0x5D] SET_MUSIC_VOLUME(volume=127*, fade_time=1*)
352: 0x1426 [0x1C] WAIT(15* ticks)
353: 0x1429 [0xAB] EventEntity->DespawnValue = 0* // Set despawn value
354: 0x142D [0x1C] WAIT(1* ticks)
355: 0x1430 [0x46] CAMERA_CONTROL: Restore default settings
356: 0x1432 [0x45] LOAD_SCHEDULED_TASK: Load scheduler "fdi2" with entities [LocalPlayer, LocalPlayer], work=[200*, 0*]
357: 0x1443 [0x21] END_EVENT
358: 0x1444 [0x00] END_REQSTACK()
```
