# 0x7FFFFFF0 - Zone Events

## Common Data

| Field            | Value                      |
|------------------|----------------------------|
| Zone             | Palborough Mines (ID: 143) |
| Block Size       | 2032 bytes                 |
| Total Events     | 69                         |
| References Count | 101                        |

## List of Events

| Event ID                   | Entrypoint   |   Size |   Instructions |
|----------------------------|--------------|--------|----------------|
| [65535](#event-65535)      | 0x0000       |      1 |              1 |
| [65534](#event-65534)      | 0x0001       |      1 |              1 |
| [30](#event-30)            | 0x0002       |      1 |              1 |
| [31](#event-31)            | 0x0003       |      1 |              1 |
| [32](#event-32)            | 0x0004       |      1 |              1 |
| [34](#event-34)            | 0x0005       |      1 |              1 |
| [35](#event-35)            | 0x0006       |      1 |              1 |
| [36](#event-36)            | 0x0007       |      1 |              1 |
| [38](#event-38)            | 0x0008       |      1 |              1 |
| [39](#event-39)            | 0x0009       |      1 |              1 |
| [40](#event-40)            | 0x000A       |      1 |              1 |
| [42](#event-42)            | 0x000B       |      1 |              1 |
| [43](#event-43)            | 0x000C       |      1 |              1 |
| [44](#event-44)            | 0x000D       |      1 |              1 |
| [46](#event-46)            | 0x000E       |      1 |              1 |
| [47](#event-47)            | 0x000F       |      1 |              1 |
| [48](#event-48)            | 0x0010       |      1 |              1 |
| [50](#event-50)            | 0x0011       |      1 |              1 |
| [51](#event-51)            | 0x0012       |      1 |              1 |
| [52](#event-52)            | 0x0013       |      1 |              1 |
| [54](#event-54)            | 0x0014       |      1 |              1 |
| [55](#event-55)            | 0x0015       |      1 |              1 |
| [56](#event-56)            | 0x0016       |      1 |              1 |
| [16](#event-16)            | 0x0017       |      1 |              1 |
| [17](#event-17)            | 0x0018       |      1 |              1 |
| [18](#event-18)            | 0x0019       |      1 |              1 |
| [19](#event-19)            | 0x001A       |      1 |              1 |
| [20](#event-20)            | 0x001B       |      1 |              1 |
| [21](#event-21)            | 0x001C       |      1 |              1 |
| [100](#event-100)          | 0x001D       |      1 |              1 |
| [105](#event-105)          | 0x001E       |      1 |              1 |
| [22](#event-22)            | 0x001F       |      1 |              1 |
| [23](#event-23)            | 0x0020       |      1 |              1 |
| [99](#event-99)            | 0x0021       |     34 |              7 |
| [1](#event-1)              | 0x0043       |    130 |             35 |
| [65535.1](#event-655351)   | 0x00C5       |      6 |              4 |
| [60](#event-60)            | 0x00CB       |      5 |              4 |
| [2](#event-2)              | 0x00D0       |      1 |              1 |
| [13](#event-13)            | 0x00D1       |     48 |             10 |
| [15](#event-15)            | 0x0101       |    113 |             21 |
| [101](#event-101)          | 0x0172       |     15 |              5 |
| [102](#event-102)          | 0x0181       |     15 |              5 |
| [103](#event-103)          | 0x0190       |     15 |              5 |
| [104](#event-104)          | 0x019F       |     15 |              5 |
| [106](#event-106)          | 0x01AE       |     15 |              5 |
| [107](#event-107)          | 0x01BD       |     15 |              5 |
| [108](#event-108)          | 0x01CC       |     15 |              5 |
| [109](#event-109)          | 0x01DB       |     15 |              5 |
| [110](#event-110)          | 0x01EA       |     15 |              5 |
| [24](#event-24)            | 0x01F9       |     14 |              4 |
| [25](#event-25)            | 0x0207       |     14 |              4 |
| [26](#event-26)            | 0x0215       |     64 |             10 |
| [120](#event-120)          | 0x0255       |      1 |              1 |
| [121](#event-121)          | 0x0256       |      1 |              1 |
| [65535.2](#event-655352)   | 0x0257       |      6 |              2 |
| [65535.3](#event-655353)   | 0x025D       |     15 |              5 |
| [65535.4](#event-655354)   | 0x026C       |     24 |              4 |
| [65535.5](#event-655355)   | 0x0284       |     24 |              4 |
| [65535.6](#event-655356)   | 0x029C       |      7 |              3 |
| [65535.7](#event-655357)   | 0x02A3       |    155 |             35 |
| [65535.8](#event-655358)   | 0x033E       |    353 |             41 |
| [65535.9](#event-655359)   | 0x049F       |     24 |              4 |
| [65535.10](#event-6553510) | 0x04B7       |     37 |              5 |
| [65535.11](#event-6553511) | 0x04DC       |     37 |              5 |
| [65535.12](#event-6553512) | 0x0501       |      7 |              3 |
| [65535.13](#event-6553513) | 0x0508       |      7 |              3 |
| [65535.14](#event-6553514) | 0x050F       |     14 |              4 |
| [65535.15](#event-6553515) | 0x051D       |     22 |              8 |
| [65535.16](#event-6553516) | 0x0533       |      4 |              2 |

## DAT References (imed_data)

|   Index | Hex Value   |   Dec Value |
|---------|-------------|-------------|
|       0 | 0x1CB8      |        7352 |
|       1 | 0x00C8      |         200 |
|       2 | 0x0000      |           0 |
|       3 | 0x0078      |         120 |
|       4 | 0x0070      |         112 |
|       5 | 0x0071      |         113 |
|       6 | 0x1CA4      |        7332 |
|       7 | 0x22549     |      140617 |
|       8 | 0x392E      |       14638 |
|       9 | 0xFFFF88DD  |  4294936797 |
|      10 | 0x0821      |        2081 |
|      11 | 0x0001      |           1 |
|      12 | 0x1CBC      |        7356 |
|      13 | 0x001E      |          30 |
|      14 | 0x4407      |       17415 |
|      15 | 0x6B54      |       27476 |
|      16 | 0x0002      |           2 |
|      17 | 0x2B7FC     |      178172 |
|      18 | 0x0003      |           3 |
|      19 | 0x2275F     |      141151 |
|      20 | 0x545B      |       21595 |
|      21 | 0x0779      |        1913 |
|      22 | 0x2BCD0     |      179408 |
|      23 | 0x27DE8     |      163304 |
|      24 | 0xFFFF82EA  |  4294935274 |
|      25 | 0x0C13      |        3091 |
|      26 | 0x2E4C1     |      189633 |
|      27 | 0x10AAB     |       68267 |
|      28 | 0xFFFFFA23  |  4294965795 |
|      29 | 0x0500      |        1280 |
|      30 | 0x1B4F3     |      111859 |
|      31 | 0x148D7     |       84183 |
|      32 | 0xFFFF8301  |  4294935297 |
|      33 | 0x02A9      |         681 |
|      34 | 0x28A60     |      166496 |
|      35 | 0x18481     |       99457 |
|      36 | 0xFFFFF5BC  |  4294964668 |
|      37 | 0x09C6      |        2502 |
|      38 | 0xFFFF040E  |  4294902798 |
|      39 | 0x2BCB7     |      179383 |
|      40 | 0xFFFFE346  |  4294959942 |
|      41 | 0x0614      |        1556 |
|      42 | 0x49599     |      300441 |
|      43 | 0xD338      |       54072 |
|      44 | 0xFFFFC3DC  |  4294951900 |
|      45 | 0x0286      |         646 |
|      46 | 0x344AF     |      214191 |
|      47 | 0xDC10      |       56336 |
|      48 | 0xFFFFC42A  |  4294951978 |
|      49 | 0x0629      |        1577 |
|      50 | 0x3591D     |      219421 |
|      51 | 0xFFFF1E33  |  4294909491 |
|      52 | 0xFFFF8614  |  4294936084 |
|      53 | 0x071E      |        1822 |
|      54 | 0x2AEAB     |      175787 |
|      55 | 0x29EC8     |      171720 |
|      56 | 0xFFFFBEF2  |  4294950642 |
|      57 | 0x0FDB      |        4059 |
|      58 | 0x2BF01     |      179969 |
|      59 | 0x28C3B     |      166971 |
|      60 | 0xFFFF8032  |  4294934578 |
|      61 | 0x0C00      |        3072 |
|      62 | 0x2C892     |      182418 |
|      63 | 0x2EACF     |      191183 |
|      64 | 0x28C5F     |      167007 |
|      65 | 0x2B505     |      177413 |
|      66 | 0x2D12F     |      184623 |
|      67 | 0x29469     |      169065 |
|      68 | 0xFFFF82D2  |  4294935250 |
|      69 | 0x2C8E4     |      182500 |
|      70 | 0x2900B     |      167947 |
|      71 | 0xFFFF8115  |  4294934805 |
|      72 | 0x000D      |          13 |
|      73 | 0x9E6A      |       40554 |
|      74 | 0xE8A7      |       59559 |
|      75 | 0x00BC      |         188 |
|      76 | 0x0005      |           5 |
|      77 | 0x000A      |          10 |
|      78 | 0x0009      |           9 |
|      79 | 0x0046      |          70 |
|      80 | 0x008C      |         140 |
|      81 | 0x00D2      |         210 |
|      82 | 0x0095      |         149 |
|      83 | 0x009F      |         159 |
|      84 | 0x00A9      |         169 |
|      85 | 0x0004      |           4 |
|      86 | 0x00B3      |         179 |
|      87 | 0x00BD      |         189 |
|      88 | 0x0006      |           6 |
|      89 | 0x0007      |           7 |
|      90 | 0x00C7      |         199 |
|      91 | 0x0008      |           8 |
|      92 | 0x00D1      |         209 |
|      93 | 0x4934      |       18740 |
|      94 | 0x135E2     |       79330 |
|      95 | 0xFFFF835A  |  4294935386 |
|      96 | 0x031D      |         797 |
|      97 | 0x4D12      |       19730 |
|      98 | 0x12C78     |       76920 |
|      99 | 0xFFFF83B4  |  4294935476 |
|     100 | 0x039D      |         925 |

## String References

- **7332**: Nothing happens... Too many people on board?
- **7352**: Debug event start
- **7356**: Zone change failed. Zoning you to correct coordinates.

## Events

### Event 65535

#### Metadata

| Field        | Value   |
|--------------|---------|
| Entrypoint   | 0x0000  |
| Data Size    | 1 bytes |
| Instructions | 1       |

```
      00 01 02 03 04 05 06 07  08 09 0A 0B 0C 0D 0E 0F
      -- -- -- -- -- -- -- --  -- -- -- -- -- -- -- --
0000: 00                                                .               
```

#### Opcodes

```
  0: 0x0000 [0x00] END_REQSTACK()
```

### Event 65534

#### Metadata

| Field        | Value   |
|--------------|---------|
| Entrypoint   | 0x0001  |
| Data Size    | 1 bytes |
| Instructions | 1       |

```
      00 01 02 03 04 05 06 07  08 09 0A 0B 0C 0D 0E 0F
      -- -- -- -- -- -- -- --  -- -- -- -- -- -- -- --
0000:    00                                              .              
```

#### Opcodes

```
  0: 0x0001 [0x00] END_REQSTACK()
```

### Event 30

#### Metadata

| Field        | Value   |
|--------------|---------|
| Entrypoint   | 0x0002  |
| Data Size    | 1 bytes |
| Instructions | 1       |

```
      00 01 02 03 04 05 06 07  08 09 0A 0B 0C 0D 0E 0F
      -- -- -- -- -- -- -- --  -- -- -- -- -- -- -- --
0000:       00                                            .             
```

#### Opcodes

```
  0: 0x0002 [0x00] END_REQSTACK()
```

### Event 31

#### Metadata

| Field        | Value   |
|--------------|---------|
| Entrypoint   | 0x0003  |
| Data Size    | 1 bytes |
| Instructions | 1       |

```
      00 01 02 03 04 05 06 07  08 09 0A 0B 0C 0D 0E 0F
      -- -- -- -- -- -- -- --  -- -- -- -- -- -- -- --
0000:          00                                          .            
```

#### Opcodes

```
  0: 0x0003 [0x00] END_REQSTACK()
```

### Event 32

#### Metadata

| Field        | Value   |
|--------------|---------|
| Entrypoint   | 0x0004  |
| Data Size    | 1 bytes |
| Instructions | 1       |

```
      00 01 02 03 04 05 06 07  08 09 0A 0B 0C 0D 0E 0F
      -- -- -- -- -- -- -- --  -- -- -- -- -- -- -- --
0000:             00                                        .           
```

#### Opcodes

```
  0: 0x0004 [0x00] END_REQSTACK()
```

### Event 34

#### Metadata

| Field        | Value   |
|--------------|---------|
| Entrypoint   | 0x0005  |
| Data Size    | 1 bytes |
| Instructions | 1       |

```
      00 01 02 03 04 05 06 07  08 09 0A 0B 0C 0D 0E 0F
      -- -- -- -- -- -- -- --  -- -- -- -- -- -- -- --
0000:                00                                      .          
```

#### Opcodes

```
  0: 0x0005 [0x00] END_REQSTACK()
```

### Event 35

#### Metadata

| Field        | Value   |
|--------------|---------|
| Entrypoint   | 0x0006  |
| Data Size    | 1 bytes |
| Instructions | 1       |

```
      00 01 02 03 04 05 06 07  08 09 0A 0B 0C 0D 0E 0F
      -- -- -- -- -- -- -- --  -- -- -- -- -- -- -- --
0000:                   00                                    .         
```

#### Opcodes

```
  0: 0x0006 [0x00] END_REQSTACK()
```

### Event 36

#### Metadata

| Field        | Value   |
|--------------|---------|
| Entrypoint   | 0x0007  |
| Data Size    | 1 bytes |
| Instructions | 1       |

```
      00 01 02 03 04 05 06 07  08 09 0A 0B 0C 0D 0E 0F
      -- -- -- -- -- -- -- --  -- -- -- -- -- -- -- --
0000:                      00                                  .        
```

#### Opcodes

```
  0: 0x0007 [0x00] END_REQSTACK()
```

### Event 38

#### Metadata

| Field        | Value   |
|--------------|---------|
| Entrypoint   | 0x0008  |
| Data Size    | 1 bytes |
| Instructions | 1       |

```
      00 01 02 03 04 05 06 07  08 09 0A 0B 0C 0D 0E 0F
      -- -- -- -- -- -- -- --  -- -- -- -- -- -- -- --
0000:                          00                               .       
```

#### Opcodes

```
  0: 0x0008 [0x00] END_REQSTACK()
```

### Event 39

#### Metadata

| Field        | Value   |
|--------------|---------|
| Entrypoint   | 0x0009  |
| Data Size    | 1 bytes |
| Instructions | 1       |

```
      00 01 02 03 04 05 06 07  08 09 0A 0B 0C 0D 0E 0F
      -- -- -- -- -- -- -- --  -- -- -- -- -- -- -- --
0000:                             00                             .      
```

#### Opcodes

```
  0: 0x0009 [0x00] END_REQSTACK()
```

### Event 40

#### Metadata

| Field        | Value   |
|--------------|---------|
| Entrypoint   | 0x000A  |
| Data Size    | 1 bytes |
| Instructions | 1       |

```
      00 01 02 03 04 05 06 07  08 09 0A 0B 0C 0D 0E 0F
      -- -- -- -- -- -- -- --  -- -- -- -- -- -- -- --
0000:                                00                           .     
```

#### Opcodes

```
  0: 0x000A [0x00] END_REQSTACK()
```

### Event 42

#### Metadata

| Field        | Value   |
|--------------|---------|
| Entrypoint   | 0x000B  |
| Data Size    | 1 bytes |
| Instructions | 1       |

```
      00 01 02 03 04 05 06 07  08 09 0A 0B 0C 0D 0E 0F
      -- -- -- -- -- -- -- --  -- -- -- -- -- -- -- --
0000:                                   00                         .    
```

#### Opcodes

```
  0: 0x000B [0x00] END_REQSTACK()
```

### Event 43

#### Metadata

| Field        | Value   |
|--------------|---------|
| Entrypoint   | 0x000C  |
| Data Size    | 1 bytes |
| Instructions | 1       |

```
      00 01 02 03 04 05 06 07  08 09 0A 0B 0C 0D 0E 0F
      -- -- -- -- -- -- -- --  -- -- -- -- -- -- -- --
0000:                                      00                       .   
```

#### Opcodes

```
  0: 0x000C [0x00] END_REQSTACK()
```

### Event 44

#### Metadata

| Field        | Value   |
|--------------|---------|
| Entrypoint   | 0x000D  |
| Data Size    | 1 bytes |
| Instructions | 1       |

```
      00 01 02 03 04 05 06 07  08 09 0A 0B 0C 0D 0E 0F
      -- -- -- -- -- -- -- --  -- -- -- -- -- -- -- --
0000:                                         00                     .  
```

#### Opcodes

```
  0: 0x000D [0x00] END_REQSTACK()
```

### Event 46

#### Metadata

| Field        | Value   |
|--------------|---------|
| Entrypoint   | 0x000E  |
| Data Size    | 1 bytes |
| Instructions | 1       |

```
      00 01 02 03 04 05 06 07  08 09 0A 0B 0C 0D 0E 0F
      -- -- -- -- -- -- -- --  -- -- -- -- -- -- -- --
0000:                                            00                   . 
```

#### Opcodes

```
  0: 0x000E [0x00] END_REQSTACK()
```

### Event 47

#### Metadata

| Field        | Value   |
|--------------|---------|
| Entrypoint   | 0x000F  |
| Data Size    | 1 bytes |
| Instructions | 1       |

```
      00 01 02 03 04 05 06 07  08 09 0A 0B 0C 0D 0E 0F
      -- -- -- -- -- -- -- --  -- -- -- -- -- -- -- --
0000:                                               00                 .
```

#### Opcodes

```
  0: 0x000F [0x00] END_REQSTACK()
```

### Event 48

#### Metadata

| Field        | Value   |
|--------------|---------|
| Entrypoint   | 0x0010  |
| Data Size    | 1 bytes |
| Instructions | 1       |

```
      00 01 02 03 04 05 06 07  08 09 0A 0B 0C 0D 0E 0F
      -- -- -- -- -- -- -- --  -- -- -- -- -- -- -- --
0010: 00                                                .               
```

#### Opcodes

```
  0: 0x0010 [0x00] END_REQSTACK()
```

### Event 50

#### Metadata

| Field        | Value   |
|--------------|---------|
| Entrypoint   | 0x0011  |
| Data Size    | 1 bytes |
| Instructions | 1       |

```
      00 01 02 03 04 05 06 07  08 09 0A 0B 0C 0D 0E 0F
      -- -- -- -- -- -- -- --  -- -- -- -- -- -- -- --
0010:    00                                              .              
```

#### Opcodes

```
  0: 0x0011 [0x00] END_REQSTACK()
```

### Event 51

#### Metadata

| Field        | Value   |
|--------------|---------|
| Entrypoint   | 0x0012  |
| Data Size    | 1 bytes |
| Instructions | 1       |

```
      00 01 02 03 04 05 06 07  08 09 0A 0B 0C 0D 0E 0F
      -- -- -- -- -- -- -- --  -- -- -- -- -- -- -- --
0010:       00                                            .             
```

#### Opcodes

```
  0: 0x0012 [0x00] END_REQSTACK()
```

### Event 52

#### Metadata

| Field        | Value   |
|--------------|---------|
| Entrypoint   | 0x0013  |
| Data Size    | 1 bytes |
| Instructions | 1       |

```
      00 01 02 03 04 05 06 07  08 09 0A 0B 0C 0D 0E 0F
      -- -- -- -- -- -- -- --  -- -- -- -- -- -- -- --
0010:          00                                          .            
```

#### Opcodes

```
  0: 0x0013 [0x00] END_REQSTACK()
```

### Event 54

#### Metadata

| Field        | Value   |
|--------------|---------|
| Entrypoint   | 0x0014  |
| Data Size    | 1 bytes |
| Instructions | 1       |

```
      00 01 02 03 04 05 06 07  08 09 0A 0B 0C 0D 0E 0F
      -- -- -- -- -- -- -- --  -- -- -- -- -- -- -- --
0010:             00                                        .           
```

#### Opcodes

```
  0: 0x0014 [0x00] END_REQSTACK()
```

### Event 55

#### Metadata

| Field        | Value   |
|--------------|---------|
| Entrypoint   | 0x0015  |
| Data Size    | 1 bytes |
| Instructions | 1       |

```
      00 01 02 03 04 05 06 07  08 09 0A 0B 0C 0D 0E 0F
      -- -- -- -- -- -- -- --  -- -- -- -- -- -- -- --
0010:                00                                      .          
```

#### Opcodes

```
  0: 0x0015 [0x00] END_REQSTACK()
```

### Event 56

#### Metadata

| Field        | Value   |
|--------------|---------|
| Entrypoint   | 0x0016  |
| Data Size    | 1 bytes |
| Instructions | 1       |

```
      00 01 02 03 04 05 06 07  08 09 0A 0B 0C 0D 0E 0F
      -- -- -- -- -- -- -- --  -- -- -- -- -- -- -- --
0010:                   00                                    .         
```

#### Opcodes

```
  0: 0x0016 [0x00] END_REQSTACK()
```

### Event 16

#### Metadata

| Field        | Value   |
|--------------|---------|
| Entrypoint   | 0x0017  |
| Data Size    | 1 bytes |
| Instructions | 1       |

```
      00 01 02 03 04 05 06 07  08 09 0A 0B 0C 0D 0E 0F
      -- -- -- -- -- -- -- --  -- -- -- -- -- -- -- --
0010:                      00                                  .        
```

#### Opcodes

```
  0: 0x0017 [0x00] END_REQSTACK()
```

### Event 17

#### Metadata

| Field        | Value   |
|--------------|---------|
| Entrypoint   | 0x0018  |
| Data Size    | 1 bytes |
| Instructions | 1       |

```
      00 01 02 03 04 05 06 07  08 09 0A 0B 0C 0D 0E 0F
      -- -- -- -- -- -- -- --  -- -- -- -- -- -- -- --
0010:                          00                               .       
```

#### Opcodes

```
  0: 0x0018 [0x00] END_REQSTACK()
```

### Event 18

#### Metadata

| Field        | Value   |
|--------------|---------|
| Entrypoint   | 0x0019  |
| Data Size    | 1 bytes |
| Instructions | 1       |

```
      00 01 02 03 04 05 06 07  08 09 0A 0B 0C 0D 0E 0F
      -- -- -- -- -- -- -- --  -- -- -- -- -- -- -- --
0010:                             00                             .      
```

#### Opcodes

```
  0: 0x0019 [0x00] END_REQSTACK()
```

### Event 19

#### Metadata

| Field        | Value   |
|--------------|---------|
| Entrypoint   | 0x001A  |
| Data Size    | 1 bytes |
| Instructions | 1       |

```
      00 01 02 03 04 05 06 07  08 09 0A 0B 0C 0D 0E 0F
      -- -- -- -- -- -- -- --  -- -- -- -- -- -- -- --
0010:                                00                           .     
```

#### Opcodes

```
  0: 0x001A [0x00] END_REQSTACK()
```

### Event 20

#### Metadata

| Field        | Value   |
|--------------|---------|
| Entrypoint   | 0x001B  |
| Data Size    | 1 bytes |
| Instructions | 1       |

```
      00 01 02 03 04 05 06 07  08 09 0A 0B 0C 0D 0E 0F
      -- -- -- -- -- -- -- --  -- -- -- -- -- -- -- --
0010:                                   00                         .    
```

#### Opcodes

```
  0: 0x001B [0x00] END_REQSTACK()
```

### Event 21

#### Metadata

| Field        | Value   |
|--------------|---------|
| Entrypoint   | 0x001C  |
| Data Size    | 1 bytes |
| Instructions | 1       |

```
      00 01 02 03 04 05 06 07  08 09 0A 0B 0C 0D 0E 0F
      -- -- -- -- -- -- -- --  -- -- -- -- -- -- -- --
0010:                                      00                       .   
```

#### Opcodes

```
  0: 0x001C [0x00] END_REQSTACK()
```

### Event 100

#### Metadata

| Field        | Value   |
|--------------|---------|
| Entrypoint   | 0x001D  |
| Data Size    | 1 bytes |
| Instructions | 1       |

```
      00 01 02 03 04 05 06 07  08 09 0A 0B 0C 0D 0E 0F
      -- -- -- -- -- -- -- --  -- -- -- -- -- -- -- --
0010:                                         00                     .  
```

#### Opcodes

```
  0: 0x001D [0x00] END_REQSTACK()
```

### Event 105

#### Metadata

| Field        | Value   |
|--------------|---------|
| Entrypoint   | 0x001E  |
| Data Size    | 1 bytes |
| Instructions | 1       |

```
      00 01 02 03 04 05 06 07  08 09 0A 0B 0C 0D 0E 0F
      -- -- -- -- -- -- -- --  -- -- -- -- -- -- -- --
0010:                                            00                   . 
```

#### Opcodes

```
  0: 0x001E [0x00] END_REQSTACK()
```

### Event 22

#### Metadata

| Field        | Value   |
|--------------|---------|
| Entrypoint   | 0x001F  |
| Data Size    | 1 bytes |
| Instructions | 1       |

```
      00 01 02 03 04 05 06 07  08 09 0A 0B 0C 0D 0E 0F
      -- -- -- -- -- -- -- --  -- -- -- -- -- -- -- --
0010:                                               00                 .
```

#### Opcodes

```
  0: 0x001F [0x00] END_REQSTACK()
```

### Event 23

#### Metadata

| Field        | Value   |
|--------------|---------|
| Entrypoint   | 0x0020  |
| Data Size    | 1 bytes |
| Instructions | 1       |

```
      00 01 02 03 04 05 06 07  08 09 0A 0B 0C 0D 0E 0F
      -- -- -- -- -- -- -- --  -- -- -- -- -- -- -- --
0020: 00                                                .               
```

#### Opcodes

```
  0: 0x0020 [0x00] END_REQSTACK()
```

### Event 99

#### Metadata

| Field        | Value    |
|--------------|----------|
| Entrypoint   | 0x0021   |
| Data Size    | 34 bytes |
| Instructions | 7        |

```
      00 01 02 03 04 05 06 07  08 09 0A 0B 0C 0D 0E 0F
      -- -- -- -- -- -- -- --  -- -- -- -- -- -- -- --
0020:    48 00 80 45 01 80 F0  FF FF 7F F0 FF FF 7F 66   H..E..........f
0030: 64 69 32 02 80 1C 03 80  29 01 F0 FF FF 7F 26 33  di2.....).....&3
0040: 00 21 00                                          .!.             
```

#### Opcodes

```
  0: 0x0021 [0x48] [System] [7352*]:
    → "Debug event start"
  1: 0x0024 [0x45] LOAD_SCHEDULED_TASK: Load scheduler "fdi2" with entities [LocalPlayer, LocalPlayer], work=[200*, 0*]
  2: 0x0035 [0x1C] WAIT(120* ticks)
  3: 0x0038 [0x29] REQ_SET_WAIT(priority=0x01, entity_id=LocalPlayer, tag_num=0x26)
  4: 0x003F [0x33] EventEntity->Render.Flags0 &= ~ 0x200000 // Bit 21 (flag=0x00)
  5: 0x0041 [0x21] END_EVENT
  6: 0x0042 [0x00] END_REQSTACK()
```

### Event 1

#### Metadata

| Field        | Value     |
|--------------|-----------|
| Entrypoint   | 0x0043    |
| Data Size    | 130 bytes |
| Instructions | 35        |

```
      00 01 02 03 04 05 06 07  08 09 0A 0B 0C 0D 0E 0F
      -- -- -- -- -- -- -- --  -- -- -- -- -- -- -- --
0040:          42 03 00 00 02  10 03 01 00 03 10 03 03     B............
0050: 00 04 10 03 02 00 05 10  03 04 00 06 10 37 01 00  .............7..
0060: 03 00 02 00 04 00 02 00  00 02 80 00 9A 00 82 65  ...............e
0070: 33 7A 30 89 00 20 01 03  01 10 04 80 43 00 43 01  3z0.. ......C.C.
0080: 03 01 10 04 80 30 01 97  00 03 01 10 05 80 43 00  .....0........C.
0090: 43 01 03 01 10 05 80 01  C3 00 82 65 33 7A 31 B5  C..........e3z1.
00A0: 00 20 01 03 01 10 04 80  43 00 43 01 03 01 10 04  . ......C.C.....
00B0: 80 30 01 C3 00 03 01 10  05 80 43 00 43 01 03 01  .0........C.C...
00C0: 10 05 80 21 00                                    ...!.           
```

#### Opcodes

```
  0: 0x0043 [0x42] SET_CLI_EVENT_CANCEL_DATA()
  1: 0x0044 [0x03] ExtData[1]->WorkLocal[0] = Work_Zone[2]
  2: 0x0049 [0x03] ExtData[1]->WorkLocal[1] = Work_Zone[3]
  3: 0x004E [0x03] ExtData[1]->WorkLocal[3] = Work_Zone[4]
  4: 0x0053 [0x03] ExtData[1]->WorkLocal[2] = Work_Zone[5]
  5: 0x0058 [0x03] ExtData[1]->WorkLocal[4] = Work_Zone[6]
  6: 0x005D [0x37] UPDATE_EVENT_POSITION_AND_DIR: x=ExtData[1]->WorkLocal[1], z=ExtData[1]->WorkLocal[3], y=ExtData[1]->WorkLocal[2], direction=ExtData[1]->WorkLocal[4]
  7: 0x0066 [0x02] IF !(ExtData[1]->WorkLocal[0] == 0*) GOTO 0x009A
  8: 0x006E [0x82] RECT_HIT_TEST_BRANCH: If EventEntity is NOT in rectangle 0x307A3365, GOTO 0x0089
  9: 0x0075 [0x20] SET_CLI_EVENT_UC_FLAG: Lock player control
 10: 0x0077 [0x03] Work_Zone[1] = 112*
 11: 0x007C [0x43] SEND_EVENT_UPDATE: Send pending tag to server (packet 0x005B)
 12: 0x007E [0x43] SEND_EVENT_UPDATE: Check pending flag (skip if not pending)
 13: 0x0080 [0x03] Work_Zone[1] = 112*
 14: 0x0085 [0x30] SET_UCOFF_CONTINUE_ZERO()
 15: 0x0086 [0x01] GOTO 0x0097
 16: 0x0089 [0x03] Work_Zone[1] = 113*
 17: 0x008E [0x43] SEND_EVENT_UPDATE: Send pending tag to server (packet 0x005B)
 18: 0x0090 [0x43] SEND_EVENT_UPDATE: Check pending flag (skip if not pending)
 19: 0x0092 [0x03] Work_Zone[1] = 113*

SUBROUTINE_0097:
 20: 0x0097 [0x01] GOTO 0x00C3
 21: 0x009A [0x82] RECT_HIT_TEST_BRANCH: If EventEntity is NOT in rectangle 0x317A3365, GOTO 0x00B5
 22: 0x00A1 [0x20] SET_CLI_EVENT_UC_FLAG: Lock player control
 23: 0x00A3 [0x03] Work_Zone[1] = 112*
 24: 0x00A8 [0x43] SEND_EVENT_UPDATE: Send pending tag to server (packet 0x005B)
 25: 0x00AA [0x43] SEND_EVENT_UPDATE: Check pending flag (skip if not pending)
 26: 0x00AC [0x03] Work_Zone[1] = 112*
 27: 0x00B1 [0x30] SET_UCOFF_CONTINUE_ZERO()
 28: 0x00B2 [0x01] GOTO 0x00C3
 29: 0x00B5 [0x03] Work_Zone[1] = 113*
 30: 0x00BA [0x43] SEND_EVENT_UPDATE: Send pending tag to server (packet 0x005B)
 31: 0x00BC [0x43] SEND_EVENT_UPDATE: Check pending flag (skip if not pending)
 32: 0x00BE [0x03] Work_Zone[1] = 113*

SUBROUTINE_00C3:
 33: 0x00C3 [0x21] END_EVENT
 34: 0x00C4 [0x00] END_REQSTACK()
```

### Event 65535.1

#### Metadata

| Field        | Value   |
|--------------|---------|
| Entrypoint   | 0x00C5  |
| Data Size    | 6 bytes |
| Instructions | 4       |

```
      00 01 02 03 04 05 06 07  08 09 0A 0B 0C 0D 0E 0F
      -- -- -- -- -- -- -- --  -- -- -- -- -- -- -- --
00C0:                48 06 80  23 21 00                      H..#!.     
```

#### Opcodes

```
  0: 0x00C5 [0x48] [System] [7332*]:
    → "Nothing happens... Too many people on board?"
  1: 0x00C8 [0x23] WAIT_FOR_DIALOG_INTERACTION
  2: 0x00C9 [0x21] END_EVENT
  3: 0x00CA [0x00] END_REQSTACK()
```

### Event 60

#### Metadata

| Field        | Value   |
|--------------|---------|
| Entrypoint   | 0x00CB  |
| Data Size    | 5 bytes |
| Instructions | 4       |

```
      00 01 02 03 04 05 06 07  08 09 0A 0B 0C 0D 0E 0F
      -- -- -- -- -- -- -- --  -- -- -- -- -- -- -- --
00C0:                                   42 33 00 21 00             B3.!.
```

#### Opcodes

```
  0: 0x00CB [0x42] SET_CLI_EVENT_CANCEL_DATA()
  1: 0x00CC [0x33] EventEntity->Render.Flags0 &= ~ 0x200000 // Bit 21 (flag=0x00)
  2: 0x00CE [0x21] END_EVENT
  3: 0x00CF [0x00] END_REQSTACK()
```

### Event 2

#### Metadata

| Field        | Value   |
|--------------|---------|
| Entrypoint   | 0x00D0  |
| Data Size    | 1 bytes |
| Instructions | 1       |

```
      00 01 02 03 04 05 06 07  08 09 0A 0B 0C 0D 0E 0F
      -- -- -- -- -- -- -- --  -- -- -- -- -- -- -- --
00D0: 00                                                .               
```

#### Opcodes

```
  0: 0x00D0 [0x00] END_REQSTACK()
```

### Event 13

#### Metadata

| Field        | Value    |
|--------------|----------|
| Entrypoint   | 0x00D1   |
| Data Size    | 48 bytes |
| Instructions | 10       |

```
      00 01 02 03 04 05 06 07  08 09 0A 0B 0C 0D 0E 0F
      -- -- -- -- -- -- -- --  -- -- -- -- -- -- -- --
00D0:    42 47 00 07 80 08 80  09 80 0A 80 47 01 02 03   BG.........G...
00E0: 10 0B 80 00 E9 00 48 0C  80 33 00 45 01 80 F0 FF  ......H..3.E....
00F0: FF 7F F0 FF FF 7F 66 64  69 30 02 80 1C 0D 80 21  ......fdi0.....!
0100: 00                                                .               
```

#### Opcodes

```
  0: 0x00D1 [0x42] SET_CLI_EVENT_CANCEL_DATA()
  1: 0x00D2 [0x47] UPDATE_PLAYER_POS(140.617*, 14.638*, -30.499*, yaw=182.9°*)
  2: 0x00DC [0x47] WAIT_PLAYER_POS_UPDATE
  3: 0x00DE [0x02] IF !(Work_Zone[3] == 1*) GOTO 0x00E9
  4: 0x00E6 [0x48] [System] [7356*]:
    → "Zone change failed. Zoning you to correct coordinates."
  5: 0x00E9 [0x33] EventEntity->Render.Flags0 &= ~ 0x200000 // Bit 21 (flag=0x00)
  6: 0x00EB [0x45] LOAD_SCHEDULED_TASK: Load scheduler "fdi0" with entities [LocalPlayer, LocalPlayer], work=[200*, 0*]
  7: 0x00FC [0x1C] WAIT(30* ticks)
  8: 0x00FF [0x21] END_EVENT
  9: 0x0100 [0x00] END_REQSTACK()
```

### Event 15

#### Metadata

| Field        | Value     |
|--------------|-----------|
| Entrypoint   | 0x0101    |
| Data Size    | 113 bytes |
| Instructions | 21        |

```
      00 01 02 03 04 05 06 07  08 09 0A 0B 0C 0D 0E 0F
      -- -- -- -- -- -- -- --  -- -- -- -- -- -- -- --
0100:    42 3B F0 FF FF 7F 05  00 07 00 06 00 3A F0 FF   B;..........:..
0110: FF 7F 08 00 02 02 10 02  80 80 2B 01 47 00 05 00  ..........+.G...
0120: 0E 80 06 00 08 00 47 01  01 70 01 02 02 10 0B 80  ......G..p......
0130: 80 42 01 47 00 05 00 0F  80 06 00 08 00 47 01 01  .B.G.........G..
0140: 70 01 02 02 10 10 80 80  59 01 47 00 11 80 07 00  p.......Y.G.....
0150: 06 00 08 00 47 01 01 70  01 02 02 10 12 80 80 70  ....G..p.......p
0160: 01 47 00 11 80 07 00 06  00 08 00 47 01 01 70 01  .G.........G..p.
0170: 21 00                                             !.              
```

#### Opcodes

```
  0: 0x0101 [0x42] SET_CLI_EVENT_CANCEL_DATA()
  1: 0x0102 [0x3B] GET_ENTITY_POSITION(entity=LocalPlayer, x_destination=ExtData[1]->WorkLocal[5], y_destination=ExtData[1]->WorkLocal[7], z_destination=ExtData[1]->WorkLocal[6])
  2: 0x010D [0x3A] CONVERT_YAW_TO_BYTE(entity=LocalPlayer, result_destination=ExtData[1]->WorkLocal[8])
  3: 0x0114 [0x02] IF !(Work_Zone[2] == 0*) GOTO 0x012B
  4: 0x011C [0x47] UPDATE_PLAYER_POS(ExtData[1]->WorkLocal[5], 17.415*, ExtData[1]->WorkLocal[6], yaw=ExtData[1]->WorkLocal[8])
  5: 0x0126 [0x47] WAIT_PLAYER_POS_UPDATE
  6: 0x0128 [0x01] GOTO 0x0170
  7: 0x012B [0x02] IF !(Work_Zone[2] == 1*) GOTO 0x0142
  8: 0x0133 [0x47] UPDATE_PLAYER_POS(ExtData[1]->WorkLocal[5], 27.476*, ExtData[1]->WorkLocal[6], yaw=ExtData[1]->WorkLocal[8])
  9: 0x013D [0x47] WAIT_PLAYER_POS_UPDATE
 10: 0x013F [0x01] GOTO 0x0170
 11: 0x0142 [0x02] IF !(Work_Zone[2] == 2*) GOTO 0x0159
 12: 0x014A [0x47] UPDATE_PLAYER_POS(178.172*, ExtData[1]->WorkLocal[7], ExtData[1]->WorkLocal[6], yaw=ExtData[1]->WorkLocal[8])
 13: 0x0154 [0x47] WAIT_PLAYER_POS_UPDATE
 14: 0x0156 [0x01] GOTO 0x0170
 15: 0x0159 [0x02] IF !(Work_Zone[2] == 3*) GOTO 0x0170
 16: 0x0161 [0x47] UPDATE_PLAYER_POS(178.172*, ExtData[1]->WorkLocal[7], ExtData[1]->WorkLocal[6], yaw=ExtData[1]->WorkLocal[8])
 17: 0x016B [0x47] WAIT_PLAYER_POS_UPDATE
 18: 0x016D [0x01] GOTO 0x0170

SUBROUTINE_0170:
 19: 0x0170 [0x21] END_EVENT
 20: 0x0171 [0x00] END_REQSTACK()
```

### Event 101

#### Metadata

| Field        | Value    |
|--------------|----------|
| Entrypoint   | 0x0172   |
| Data Size    | 15 bytes |
| Instructions | 5        |

```
      00 01 02 03 04 05 06 07  08 09 0A 0B 0C 0D 0E 0F
      -- -- -- -- -- -- -- --  -- -- -- -- -- -- -- --
0170:       42 47 00 13 80 14  80 09 80 15 80 47 01 21    BG.........G.!
0180: 00                                                .               
```

#### Opcodes

```
  0: 0x0172 [0x42] SET_CLI_EVENT_CANCEL_DATA()
  1: 0x0173 [0x47] UPDATE_PLAYER_POS(141.151*, 21.595*, -30.499*, yaw=168.1°*)
  2: 0x017D [0x47] WAIT_PLAYER_POS_UPDATE
  3: 0x017F [0x21] END_EVENT
  4: 0x0180 [0x00] END_REQSTACK()
```

### Event 102

#### Metadata

| Field        | Value    |
|--------------|----------|
| Entrypoint   | 0x0181   |
| Data Size    | 15 bytes |
| Instructions | 5        |

```
      00 01 02 03 04 05 06 07  08 09 0A 0B 0C 0D 0E 0F
      -- -- -- -- -- -- -- --  -- -- -- -- -- -- -- --
0180:    42 47 00 16 80 17 80  18 80 19 80 47 01 21 00   BG.........G.!.
```

#### Opcodes

```
  0: 0x0181 [0x42] SET_CLI_EVENT_CANCEL_DATA()
  1: 0x0182 [0x47] UPDATE_PLAYER_POS(179.408*, 163.304*, -32.022*, yaw=271.7°*)
  2: 0x018C [0x47] WAIT_PLAYER_POS_UPDATE
  3: 0x018E [0x21] END_EVENT
  4: 0x018F [0x00] END_REQSTACK()
```

### Event 103

#### Metadata

| Field        | Value    |
|--------------|----------|
| Entrypoint   | 0x0190   |
| Data Size    | 15 bytes |
| Instructions | 5        |

```
      00 01 02 03 04 05 06 07  08 09 0A 0B 0C 0D 0E 0F
      -- -- -- -- -- -- -- --  -- -- -- -- -- -- -- --
0190: 42 47 00 1A 80 1B 80 1C  80 1D 80 47 01 21 00     BG.........G.!. 
```

#### Opcodes

```
  0: 0x0190 [0x42] SET_CLI_EVENT_CANCEL_DATA()
  1: 0x0191 [0x47] UPDATE_PLAYER_POS(189.633*, 68.267*, -1.501*, yaw=112.5°*)
  2: 0x019B [0x47] WAIT_PLAYER_POS_UPDATE
  3: 0x019D [0x21] END_EVENT
  4: 0x019E [0x00] END_REQSTACK()
```

### Event 104

#### Metadata

| Field        | Value    |
|--------------|----------|
| Entrypoint   | 0x019F   |
| Data Size    | 15 bytes |
| Instructions | 5        |

```
      00 01 02 03 04 05 06 07  08 09 0A 0B 0C 0D 0E 0F
      -- -- -- -- -- -- -- --  -- -- -- -- -- -- -- --
0190:                                               42                 B
01A0: 47 00 1E 80 1F 80 20 80  21 80 47 01 21 00        G..... .!.G.!.  
```

#### Opcodes

```
  0: 0x019F [0x42] SET_CLI_EVENT_CANCEL_DATA()
  1: 0x01A0 [0x47] UPDATE_PLAYER_POS(111.859*, 84.183*, -31.999*, yaw=59.9°*)
  2: 0x01AA [0x47] WAIT_PLAYER_POS_UPDATE
  3: 0x01AC [0x21] END_EVENT
  4: 0x01AD [0x00] END_REQSTACK()
```

### Event 106

#### Metadata

| Field        | Value    |
|--------------|----------|
| Entrypoint   | 0x01AE   |
| Data Size    | 15 bytes |
| Instructions | 5        |

```
      00 01 02 03 04 05 06 07  08 09 0A 0B 0C 0D 0E 0F
      -- -- -- -- -- -- -- --  -- -- -- -- -- -- -- --
01A0:                                            42 47                BG
01B0: 00 22 80 23 80 24 80 25  80 47 01 21 00           .".#.$.%.G.!.   
```

#### Opcodes

```
  0: 0x01AE [0x42] SET_CLI_EVENT_CANCEL_DATA()
  1: 0x01AF [0x47] UPDATE_PLAYER_POS(166.496*, 99.457*, -2.628*, yaw=219.9°*)
  2: 0x01B9 [0x47] WAIT_PLAYER_POS_UPDATE
  3: 0x01BB [0x21] END_EVENT
  4: 0x01BC [0x00] END_REQSTACK()
```

### Event 107

#### Metadata

| Field        | Value    |
|--------------|----------|
| Entrypoint   | 0x01BD   |
| Data Size    | 15 bytes |
| Instructions | 5        |

```
      00 01 02 03 04 05 06 07  08 09 0A 0B 0C 0D 0E 0F
      -- -- -- -- -- -- -- --  -- -- -- -- -- -- -- --
01B0:                                         42 47 00               BG.
01C0: 26 80 27 80 28 80 29 80  47 01 21 00              &.'.(.).G.!.    
```

#### Opcodes

```
  0: 0x01BD [0x42] SET_CLI_EVENT_CANCEL_DATA()
  1: 0x01BE [0x47] UPDATE_PLAYER_POS(-64.498*, 179.383*, -7.354*, yaw=136.8°*)
  2: 0x01C8 [0x47] WAIT_PLAYER_POS_UPDATE
  3: 0x01CA [0x21] END_EVENT
  4: 0x01CB [0x00] END_REQSTACK()
```

### Event 108

#### Metadata

| Field        | Value    |
|--------------|----------|
| Entrypoint   | 0x01CC   |
| Data Size    | 15 bytes |
| Instructions | 5        |

```
      00 01 02 03 04 05 06 07  08 09 0A 0B 0C 0D 0E 0F
      -- -- -- -- -- -- -- --  -- -- -- -- -- -- -- --
01C0:                                      42 47 00 2A              BG.*
01D0: 80 2B 80 2C 80 2D 80 47  01 21 00                 .+.,.-.G.!.     
```

#### Opcodes

```
  0: 0x01CC [0x42] SET_CLI_EVENT_CANCEL_DATA()
  1: 0x01CD [0x47] UPDATE_PLAYER_POS(300.441*, 54.072*, -15.396*, yaw=56.8°*)
  2: 0x01D7 [0x47] WAIT_PLAYER_POS_UPDATE
  3: 0x01D9 [0x21] END_EVENT
  4: 0x01DA [0x00] END_REQSTACK()
```

### Event 109

#### Metadata

| Field        | Value    |
|--------------|----------|
| Entrypoint   | 0x01DB   |
| Data Size    | 15 bytes |
| Instructions | 5        |

```
      00 01 02 03 04 05 06 07  08 09 0A 0B 0C 0D 0E 0F
      -- -- -- -- -- -- -- --  -- -- -- -- -- -- -- --
01D0:                                   42 47 00 2E 80             BG...
01E0: 2F 80 30 80 31 80 47 01  21 00                    /.0.1.G.!.      
```

#### Opcodes

```
  0: 0x01DB [0x42] SET_CLI_EVENT_CANCEL_DATA()
  1: 0x01DC [0x47] UPDATE_PLAYER_POS(214.191*, 56.336*, -15.318*, yaw=138.6°*)
  2: 0x01E6 [0x47] WAIT_PLAYER_POS_UPDATE
  3: 0x01E8 [0x21] END_EVENT
  4: 0x01E9 [0x00] END_REQSTACK()
```

### Event 110

#### Metadata

| Field        | Value    |
|--------------|----------|
| Entrypoint   | 0x01EA   |
| Data Size    | 15 bytes |
| Instructions | 5        |

```
      00 01 02 03 04 05 06 07  08 09 0A 0B 0C 0D 0E 0F
      -- -- -- -- -- -- -- --  -- -- -- -- -- -- -- --
01E0:                                42 47 00 32 80 33            BG.2.3
01F0: 80 34 80 35 80 47 01 21  00                       .4.5.G.!.       
```

#### Opcodes

```
  0: 0x01EA [0x42] SET_CLI_EVENT_CANCEL_DATA()
  1: 0x01EB [0x47] UPDATE_PLAYER_POS(219.421*, -57.805*, -31.212*, yaw=160.1°*)
  2: 0x01F5 [0x47] WAIT_PLAYER_POS_UPDATE
  3: 0x01F7 [0x21] END_EVENT
  4: 0x01F8 [0x00] END_REQSTACK()
```

### Event 24

#### Metadata

| Field        | Value    |
|--------------|----------|
| Entrypoint   | 0x01F9   |
| Data Size    | 14 bytes |
| Instructions | 4        |

```
      00 01 02 03 04 05 06 07  08 09 0A 0B 0C 0D 0E 0F
      -- -- -- -- -- -- -- --  -- -- -- -- -- -- -- --
01F0:                             5A 00 36 80 37 80 38           Z.6.7.8
0200: 80 5A 01 39 39 80 00                              .Z.99..         
```

#### Opcodes

```
  0: 0x01F9 [0x5A] UPDATE_EVENT_POSITION: Set EventEntity MovePosition to X=175.787*, Z=171.720*, Y=-16.654*
  1: 0x0201 [0x5A] UPDATE_EVENT_POSITION: Move EventEntity incrementally towards MovePosition
  2: 0x0203 [0x39] SET_ENTITY_DIRECTION(direction=22.3°*)
  3: 0x0206 [0x00] END_REQSTACK()
```

### Event 25

#### Metadata

| Field        | Value    |
|--------------|----------|
| Entrypoint   | 0x0207   |
| Data Size    | 14 bytes |
| Instructions | 4        |

```
      00 01 02 03 04 05 06 07  08 09 0A 0B 0C 0D 0E 0F
      -- -- -- -- -- -- -- --  -- -- -- -- -- -- -- --
0200:                      5A  00 3A 80 3B 80 3C 80 5A         Z.:.;.<.Z
0210: 01 39 3D 80 00                                    .9=..           
```

#### Opcodes

```
  0: 0x0207 [0x5A] UPDATE_EVENT_POSITION: Set EventEntity MovePosition to X=179.969*, Z=166.971*, Y=-32.718*
  1: 0x020F [0x5A] UPDATE_EVENT_POSITION: Move EventEntity incrementally towards MovePosition
  2: 0x0211 [0x39] SET_ENTITY_DIRECTION(direction=16.9°*)
  3: 0x0214 [0x00] END_REQSTACK()
```

### Event 26

#### Metadata

| Field        | Value    |
|--------------|----------|
| Entrypoint   | 0x0215   |
| Data Size    | 64 bytes |
| Instructions | 10       |

```
      00 01 02 03 04 05 06 07  08 09 0A 0B 0C 0D 0E 0F
      -- -- -- -- -- -- -- --  -- -- -- -- -- -- -- --
0210:                3B F0 FF  FF 7F 09 00 0B 00 0A 00       ;..........
0220: 02 3E 80 09 00 03 54 02  02 09 00 3F 80 03 54 02  .>....T....?..T.
0230: 02 40 80 0B 00 03 54 02  02 0B 00 41 80 03 54 02  .@....T....A..T.
0240: 5A 00 42 80 43 80 44 80  5A 01 5A 00 45 80 46 80  Z.B.C.D.Z.Z.E.F.
0250: 47 80 5A 01 00                                    G.Z..           
```

#### Opcodes

```
  0: 0x0215 [0x3B] GET_ENTITY_POSITION(entity=LocalPlayer, x_destination=ExtData[1]->WorkLocal[9], y_destination=ExtData[1]->WorkLocal[11], z_destination=ExtData[1]->WorkLocal[10])
  1: 0x0220 [0x02] IF !(182418* >= ExtData[1]->WorkLocal[9]) GOTO 0x0254
  2: 0x0228 [0x02] IF !(ExtData[1]->WorkLocal[9] >= 191183*) GOTO 0x0254
  3: 0x0230 [0x02] IF !(167007* >= ExtData[1]->WorkLocal[11]) GOTO 0x0254
  4: 0x0238 [0x02] IF !(ExtData[1]->WorkLocal[11] >= 177413*) GOTO 0x0254
  5: 0x0240 [0x5A] UPDATE_EVENT_POSITION: Set EventEntity MovePosition to X=184.623*, Z=169.065*, Y=-32.046*
  6: 0x0248 [0x5A] UPDATE_EVENT_POSITION: Move EventEntity incrementally towards MovePosition
  7: 0x024A [0x5A] UPDATE_EVENT_POSITION: Set EventEntity MovePosition to X=182.500*, Z=167.947*, Y=-32.491*
  8: 0x0252 [0x5A] UPDATE_EVENT_POSITION: Move EventEntity incrementally towards MovePosition
  9: 0x0254 [0x00] END_REQSTACK()
```

### Event 120

#### Metadata

| Field        | Value   |
|--------------|---------|
| Entrypoint   | 0x0255  |
| Data Size    | 1 bytes |
| Instructions | 1       |

```
      00 01 02 03 04 05 06 07  08 09 0A 0B 0C 0D 0E 0F
      -- -- -- -- -- -- -- --  -- -- -- -- -- -- -- --
0250:                00                                      .          
```

#### Opcodes

```
  0: 0x0255 [0x00] END_REQSTACK()
```

### Event 121

#### Metadata

| Field        | Value   |
|--------------|---------|
| Entrypoint   | 0x0256  |
| Data Size    | 1 bytes |
| Instructions | 1       |

```
      00 01 02 03 04 05 06 07  08 09 0A 0B 0C 0D 0E 0F
      -- -- -- -- -- -- -- --  -- -- -- -- -- -- -- --
0250:                   00                                    .         
```

#### Opcodes

```
  0: 0x0256 [0x00] END_REQSTACK()
```

### Event 65535.2

#### Metadata

| Field        | Value   |
|--------------|---------|
| Entrypoint   | 0x0257  |
| Data Size    | 6 bytes |
| Instructions | 2       |

```
      00 01 02 03 04 05 06 07  08 09 0A 0B 0C 0D 0E 0F
      -- -- -- -- -- -- -- --  -- -- -- -- -- -- -- --
0250:                      03  09 10 07 7F 00                  ......   
```

#### Opcodes

```
  0: 0x0257 [0x03] Work_Zone[9] = Entity->Race
  1: 0x025C [0x00] END_REQSTACK()
```

### Event 65535.3

#### Metadata

| Field        | Value    |
|--------------|----------|
| Entrypoint   | 0x025D   |
| Data Size    | 15 bytes |
| Instructions | 5        |

```
      00 01 02 03 04 05 06 07  08 09 0A 0B 0C 0D 0E 0F
      -- -- -- -- -- -- -- --  -- -- -- -- -- -- -- --
0250:                                         32 48 80               2H.
0260: 1F 00 49 80 4A 80 4B 80  1F 01 6F 00              ..I.J.K...o.    
```

#### Opcodes

```
  0: 0x025D [0x32] ExtData[1]->MainSpeed = 13* * 0.1
  1: 0x0260 [0x1F] MOVE_ENTITY: EventEntity moves to X=40.554*, Z=59.559*, Y=0.188*
  2: 0x0268 [0x1F] MOVE_ENTITY: Update entity position (mode=1)
  3: 0x026A [0x6F] WAIT_FRAME_DELAY: Yield until WaitTime reaches zero
  4: 0x026B [0x00] END_REQSTACK()
```

### Event 65535.4

#### Metadata

| Field        | Value    |
|--------------|----------|
| Entrypoint   | 0x026C   |
| Data Size    | 24 bytes |
| Instructions | 4        |

```
      00 01 02 03 04 05 06 07  08 09 0A 0B 0C 0D 0E 0F
      -- -- -- -- -- -- -- --  -- -- -- -- -- -- -- --
0260:                                      03 0C 00 07              ....
0270: 7F 1A AA 02 66 0D 00 F8  FF FF 7F F8 FF FF 7F 74  ....f..........t
0280: 6C 6B 30 00                                       lk0.            
```

#### Opcodes

```
  0: 0x026C [0x03] ExtData[1]->WorkLocal[12] = Entity->Race
  1: 0x0271 [0x1A] CALL_SUBROUTINE(address=0x02AA)
  2: 0x0274 [0x66] LOAD_EXT_SCHEDULER_MAIN: Load scheduler "tlk0" with entities [EventEntity, EventEntity], work=ExtData[1]->WorkLocal[13]
  3: 0x0283 [0x00] END_REQSTACK()
```

### Event 65535.5

#### Metadata

| Field        | Value    |
|--------------|----------|
| Entrypoint   | 0x0284   |
| Data Size    | 24 bytes |
| Instructions | 4        |

```
      00 01 02 03 04 05 06 07  08 09 0A 0B 0C 0D 0E 0F
      -- -- -- -- -- -- -- --  -- -- -- -- -- -- -- --
0280:             03 0C 00 07  7F 1A AA 02 66 0D 00 F8      ........f...
0290: FF FF 7F F8 FF FF 7F 74  6C 6B 31 00              .......tlk1.    
```

#### Opcodes

```
  0: 0x0284 [0x03] ExtData[1]->WorkLocal[12] = Entity->Race
  1: 0x0289 [0x1A] CALL_SUBROUTINE(address=0x02AA)
  2: 0x028C [0x66] LOAD_EXT_SCHEDULER_MAIN: Load scheduler "tlk1" with entities [EventEntity, EventEntity], work=ExtData[1]->WorkLocal[13]
  3: 0x029B [0x00] END_REQSTACK()
```

### Event 65535.6

#### Metadata

| Field        | Value   |
|--------------|---------|
| Entrypoint   | 0x029C  |
| Data Size    | 7 bytes |
| Instructions | 3       |

```
      00 01 02 03 04 05 06 07  08 09 0A 0B 0C 0D 0E 0F
      -- -- -- -- -- -- -- --  -- -- -- -- -- -- -- --
0290:                                      AB 03 AC 01              ....
02A0: 0B 80 00                                          ...             
```

#### Opcodes

```
  0: 0x029C [0xAB] EventEntity->Render.Flags0 ^= 0x20000 // Toggle bit 17
  1: 0x029E [0xAC] EventEntity->StatusEvent = 1*
  2: 0x02A2 [0x00] END_REQSTACK()
```

### Event 65535.7

#### Metadata

| Field        | Value     |
|--------------|-----------|
| Entrypoint   | 0x02A3    |
| Data Size    | 155 bytes |
| Instructions | 3         |

```
      00 01 02 03 04 05 06 07  08 09 0A 0B 0C 0D 0E 0F
      -- -- -- -- -- -- -- --  -- -- -- -- -- -- -- --
02A0:          AC 01 02 80 AB  04 00 03 0D 00 0C 00 02     .............
02B0: 0D 00 4C 80 05 BF 02 08  0D 00 0B 80 01 C4 02 08  ..L.............
02C0: 0D 00 10 80 14 0D 00 4D  80 07 0D 00 4E 80 1B 03  .......M....N...
02D0: 0D 00 0C 00 02 0D 00 4C  80 05 E4 02 08 0D 00 0B  .......L........
02E0: 80 01 E9 02 08 0D 00 10  80 14 0D 00 4D 80 07 0D  ............M...
02F0: 00 4F 80 1B 03 0D 00 0C  00 02 0D 00 4C 80 05 09  .O..........L...
0300: 03 08 0D 00 0B 80 01 0E  03 08 0D 00 10 80 14 0D  ................
0310: 00 4D 80 07 0D 00 50 80  1B 03 0D 00 0C 00 02 0D  .M....P.........
0320: 00 4C 80 05 2E 03 08 0D  00 0B 80 01 33 03 08 0D  .L..........3...
0330: 00 10 80 14 0D 00 4D 80  07 0D 00 51 80 1B        ......M....Q..  
```

#### Opcodes

```
  0: 0x02A3 [0xAC] EventEntity->StatusEvent = 0*
  1: 0x02A7 [0xAB] EventEntity->Render.Flags0 |= 0x40000 // Set bit 18
  2: 0x02A9 [0x00] END_REQSTACK()
```

#### Data or dead code:

```
# Dead code (unreachable instructions):
     0x02AA [0x03] ExtData[1]->WorkLocal[13] = ExtData[1]->WorkLocal[12]
     0x02AF [0x02] IF !(ExtData[1]->WorkLocal[13] > 5*) GOTO 0x02BF
     0x02B7 [0x08] ExtData[1]->WorkLocal[13] -= 1*
     0x02BC [0x01] GOTO 0x02C4
     0x02BF [0x08] ExtData[1]->WorkLocal[13] -= 2*
     0x02C4 [0x14] ExtData[1]->WorkLocal[13] *= 10*
     0x02C9 [0x07] ExtData[1]->WorkLocal[13] += 9*
     0x02CE [0x1B] RETURN
     0x02CF [0x03] ExtData[1]->WorkLocal[13] = ExtData[1]->WorkLocal[12]
     0x02D4 [0x02] IF !(ExtData[1]->WorkLocal[13] > 5*) GOTO 0x02E4
     0x02DC [0x08] ExtData[1]->WorkLocal[13] -= 1*
     0x02E1 [0x01] GOTO 0x02E9
     0x02E4 [0x08] ExtData[1]->WorkLocal[13] -= 2*
     0x02E9 [0x14] ExtData[1]->WorkLocal[13] *= 10*
     0x02EE [0x07] ExtData[1]->WorkLocal[13] += 70*
     0x02F3 [0x1B] RETURN
     0x02F4 [0x03] ExtData[1]->WorkLocal[13] = ExtData[1]->WorkLocal[12]
     0x02F9 [0x02] IF !(ExtData[1]->WorkLocal[13] > 5*) GOTO 0x0309
     0x0301 [0x08] ExtData[1]->WorkLocal[13] -= 1*
     0x0306 [0x01] GOTO 0x030E
     0x0309 [0x08] ExtData[1]->WorkLocal[13] -= 2*
     0x030E [0x14] ExtData[1]->WorkLocal[13] *= 10*
     0x0313 [0x07] ExtData[1]->WorkLocal[13] += 140*
     0x0318 [0x1B] RETURN
     0x0319 [0x03] ExtData[1]->WorkLocal[13] = ExtData[1]->WorkLocal[12]
     0x031E [0x02] IF !(ExtData[1]->WorkLocal[13] > 5*) GOTO 0x032E
     0x0326 [0x08] ExtData[1]->WorkLocal[13] -= 1*
     0x032B [0x01] GOTO 0x0333
     0x032E [0x08] ExtData[1]->WorkLocal[13] -= 2*
     0x0333 [0x14] ExtData[1]->WorkLocal[13] *= 10*
     0x0338 [0x07] ExtData[1]->WorkLocal[13] += 210*
     0x033D [0x1B] RETURN
```

### Event 65535.8

#### Metadata

| Field        | Value     |
|--------------|-----------|
| Entrypoint   | 0x033E    |
| Data Size    | 353 bytes |
| Instructions | 41        |

```
      00 01 02 03 04 05 06 07  08 09 0A 0B 0C 0D 0E 0F
      -- -- -- -- -- -- -- --  -- -- -- -- -- -- -- --
0330:                                            02 87                ..
0340: 7F 0B 80 80 6A 03 66 52  80 F0 FF FF 7F F0 FF FF  ....j.fR........
0350: 7F 74 6C 6B 30 1C 03 80  66 52 80 F0 FF FF 7F F0  .tlk0...fR......
0360: FF FF 7F 74 6C 6B 31 01  9E 04 02 87 7F 10 80 80  ...tlk1.........
0370: 96 03 66 53 80 F0 FF FF  7F F0 FF FF 7F 74 6C 6B  ..fS.........tlk
0380: 30 1C 03 80 66 53 80 F0  FF FF 7F F0 FF FF 7F 74  0...fS.........t
0390: 6C 6B 31 01 9E 04 02 87  7F 12 80 80 C2 03 66 54  lk1...........fT
03A0: 80 F0 FF FF 7F F0 FF FF  7F 74 6C 6B 30 1C 03 80  .........tlk0...
03B0: 66 54 80 F0 FF FF 7F F0  FF FF 7F 74 6C 6B 31 01  fT.........tlk1.
03C0: 9E 04 02 87 7F 55 80 80  EE 03 66 56 80 F0 FF FF  .....U....fV....
03D0: 7F F0 FF FF 7F 74 6C 6B  30 1C 03 80 66 56 80 F0  .....tlk0...fV..
03E0: FF FF 7F F0 FF FF 7F 74  6C 6B 31 01 9E 04 02 87  .......tlk1.....
03F0: 7F 4C 80 80 1A 04 66 57  80 F0 FF FF 7F F0 FF FF  .L....fW........
0400: 7F 74 6C 6B 30 1C 03 80  66 57 80 F0 FF FF 7F F0  .tlk0...fW......
0410: FF FF 7F 74 6C 6B 31 01  9E 04 02 87 7F 58 80 80  ...tlk1......X..
0420: 46 04 66 57 80 F0 FF FF  7F F0 FF FF 7F 74 6C 6B  F.fW.........tlk
0430: 30 1C 03 80 66 57 80 F0  FF FF 7F F0 FF FF 7F 74  0...fW.........t
0440: 6C 6B 31 01 9E 04 02 87  7F 59 80 80 72 04 66 5A  lk1......Y..r.fZ
0450: 80 F0 FF FF 7F F0 FF FF  7F 74 6C 6B 30 1C 03 80  .........tlk0...
0460: 66 5A 80 F0 FF FF 7F F0  FF FF 7F 74 6C 6B 31 01  fZ.........tlk1.
0470: 9E 04 02 87 7F 5B 80 80  9E 04 66 5C 80 F0 FF FF  .....[....f\....
0480: 7F F0 FF FF 7F 74 6C 6B  30 1C 03 80 66 5C 80 F0  .....tlk0...f\..
0490: FF FF 7F F0 FF FF 7F 74  6C 6B 31 01 9E 04 00     .......tlk1.... 
```

#### Opcodes

```
  0: 0x033E [0x02] IF !(LocalPlayer->Race == 1*) GOTO 0x036A
  1: 0x0346 [0x66] LOAD_EXT_SCHEDULER_MAIN: Load scheduler "tlk0" with entities [LocalPlayer, LocalPlayer], work=149*
  2: 0x0355 [0x1C] WAIT(120* ticks)
  3: 0x0358 [0x66] LOAD_EXT_SCHEDULER_MAIN: Load scheduler "tlk1" with entities [LocalPlayer, LocalPlayer], work=149*
  4: 0x0367 [0x01] GOTO 0x049E
  5: 0x036A [0x02] IF !(LocalPlayer->Race == 2*) GOTO 0x0396
  6: 0x0372 [0x66] LOAD_EXT_SCHEDULER_MAIN: Load scheduler "tlk0" with entities [LocalPlayer, LocalPlayer], work=159*
  7: 0x0381 [0x1C] WAIT(120* ticks)
  8: 0x0384 [0x66] LOAD_EXT_SCHEDULER_MAIN: Load scheduler "tlk1" with entities [LocalPlayer, LocalPlayer], work=159*
  9: 0x0393 [0x01] GOTO 0x049E
 10: 0x0396 [0x02] IF !(LocalPlayer->Race == 3*) GOTO 0x03C2
 11: 0x039E [0x66] LOAD_EXT_SCHEDULER_MAIN: Load scheduler "tlk0" with entities [LocalPlayer, LocalPlayer], work=169*
 12: 0x03AD [0x1C] WAIT(120* ticks)
 13: 0x03B0 [0x66] LOAD_EXT_SCHEDULER_MAIN: Load scheduler "tlk1" with entities [LocalPlayer, LocalPlayer], work=169*
 14: 0x03BF [0x01] GOTO 0x049E
 15: 0x03C2 [0x02] IF !(LocalPlayer->Race == 4*) GOTO 0x03EE
 16: 0x03CA [0x66] LOAD_EXT_SCHEDULER_MAIN: Load scheduler "tlk0" with entities [LocalPlayer, LocalPlayer], work=179*
 17: 0x03D9 [0x1C] WAIT(120* ticks)
 18: 0x03DC [0x66] LOAD_EXT_SCHEDULER_MAIN: Load scheduler "tlk1" with entities [LocalPlayer, LocalPlayer], work=179*
 19: 0x03EB [0x01] GOTO 0x049E
 20: 0x03EE [0x02] IF !(LocalPlayer->Race == 5*) GOTO 0x041A
 21: 0x03F6 [0x66] LOAD_EXT_SCHEDULER_MAIN: Load scheduler "tlk0" with entities [LocalPlayer, LocalPlayer], work=189*
 22: 0x0405 [0x1C] WAIT(120* ticks)
 23: 0x0408 [0x66] LOAD_EXT_SCHEDULER_MAIN: Load scheduler "tlk1" with entities [LocalPlayer, LocalPlayer], work=189*
 24: 0x0417 [0x01] GOTO 0x049E
 25: 0x041A [0x02] IF !(LocalPlayer->Race == 6*) GOTO 0x0446
 26: 0x0422 [0x66] LOAD_EXT_SCHEDULER_MAIN: Load scheduler "tlk0" with entities [LocalPlayer, LocalPlayer], work=189*
 27: 0x0431 [0x1C] WAIT(120* ticks)
 28: 0x0434 [0x66] LOAD_EXT_SCHEDULER_MAIN: Load scheduler "tlk1" with entities [LocalPlayer, LocalPlayer], work=189*
 29: 0x0443 [0x01] GOTO 0x049E
 30: 0x0446 [0x02] IF !(LocalPlayer->Race == 7*) GOTO 0x0472
 31: 0x044E [0x66] LOAD_EXT_SCHEDULER_MAIN: Load scheduler "tlk0" with entities [LocalPlayer, LocalPlayer], work=199*
 32: 0x045D [0x1C] WAIT(120* ticks)
 33: 0x0460 [0x66] LOAD_EXT_SCHEDULER_MAIN: Load scheduler "tlk1" with entities [LocalPlayer, LocalPlayer], work=199*
 34: 0x046F [0x01] GOTO 0x049E
 35: 0x0472 [0x02] IF !(LocalPlayer->Race == 8*) GOTO 0x049E
 36: 0x047A [0x66] LOAD_EXT_SCHEDULER_MAIN: Load scheduler "tlk0" with entities [LocalPlayer, LocalPlayer], work=209*
 37: 0x0489 [0x1C] WAIT(120* ticks)
 38: 0x048C [0x66] LOAD_EXT_SCHEDULER_MAIN: Load scheduler "tlk1" with entities [LocalPlayer, LocalPlayer], work=209*
 39: 0x049B [0x01] GOTO 0x049E

SUBROUTINE_049E:
 40: 0x049E [0x00] END_REQSTACK()
```

### Event 65535.9

#### Metadata

| Field        | Value    |
|--------------|----------|
| Entrypoint   | 0x049F   |
| Data Size    | 24 bytes |
| Instructions | 4        |

```
      00 01 02 03 04 05 06 07  08 09 0A 0B 0C 0D 0E 0F
      -- -- -- -- -- -- -- --  -- -- -- -- -- -- -- --
0490:                                               03                 .
04A0: 0C 00 07 7F 1A AA 02 66  0D 00 F8 FF FF 7F F8 FF  .......f........
04B0: FF 7F 73 68 61 30 00                              ..sha0.         
```

#### Opcodes

```
  0: 0x049F [0x03] ExtData[1]->WorkLocal[12] = Entity->Race
  1: 0x04A4 [0x1A] CALL_SUBROUTINE(address=0x02AA)
  2: 0x04A7 [0x66] LOAD_EXT_SCHEDULER_MAIN: Load scheduler "sha0" with entities [EventEntity, EventEntity], work=ExtData[1]->WorkLocal[13]
  3: 0x04B6 [0x00] END_REQSTACK()
```

### Event 65535.10

#### Metadata

| Field        | Value    |
|--------------|----------|
| Entrypoint   | 0x04B7   |
| Data Size    | 37 bytes |
| Instructions | 5        |

```
      00 01 02 03 04 05 06 07  08 09 0A 0B 0C 0D 0E 0F
      -- -- -- -- -- -- -- --  -- -- -- -- -- -- -- --
04B0:                      03  0C 00 07 7F 1A AA 02 66         ........f
04C0: 0D 00 F8 FF FF 7F F8 FF  FF 7F 73 68 61 31 53 F8  ..........sha1S.
04D0: FF FF 7F F8 FF FF 7F 73  68 61 31 00              .......sha1.    
```

#### Opcodes

```
  0: 0x04B7 [0x03] ExtData[1]->WorkLocal[12] = Entity->Race
  1: 0x04BC [0x1A] CALL_SUBROUTINE(address=0x02AA)
  2: 0x04BF [0x66] LOAD_EXT_SCHEDULER_MAIN: Load scheduler "sha1" with entities [EventEntity, EventEntity], work=ExtData[1]->WorkLocal[13]
  3: 0x04CE [0x53] WAIT_SCHEDULER_TASK: Wait for scheduler "sha1" with entities [EventEntity, EventEntity]
  4: 0x04DB [0x00] END_REQSTACK()
```

### Event 65535.11

#### Metadata

| Field        | Value    |
|--------------|----------|
| Entrypoint   | 0x04DC   |
| Data Size    | 37 bytes |
| Instructions | 5        |

```
      00 01 02 03 04 05 06 07  08 09 0A 0B 0C 0D 0E 0F
      -- -- -- -- -- -- -- --  -- -- -- -- -- -- -- --
04D0:                                      03 0C 00 07              ....
04E0: 7F 1A AA 02 66 0D 00 F8  FF FF 7F F8 FF FF 7F 73  ....f..........s
04F0: 69 72 30 53 F8 FF FF 7F  F8 FF FF 7F 73 69 72 30  ir0S........sir0
0500: 00                                                .               
```

#### Opcodes

```
  0: 0x04DC [0x03] ExtData[1]->WorkLocal[12] = Entity->Race
  1: 0x04E1 [0x1A] CALL_SUBROUTINE(address=0x02AA)
  2: 0x04E4 [0x66] LOAD_EXT_SCHEDULER_MAIN: Load scheduler "sir0" with entities [EventEntity, EventEntity], work=ExtData[1]->WorkLocal[13]
  3: 0x04F3 [0x53] WAIT_SCHEDULER_TASK: Wait for scheduler "sir0" with entities [EventEntity, EventEntity]
  4: 0x0500 [0x00] END_REQSTACK()
```

### Event 65535.12

#### Metadata

| Field        | Value   |
|--------------|---------|
| Entrypoint   | 0x0501  |
| Data Size    | 7 bytes |
| Instructions | 3       |

```
      00 01 02 03 04 05 06 07  08 09 0A 0B 0C 0D 0E 0F
      -- -- -- -- -- -- -- --  -- -- -- -- -- -- -- --
0500:    AB 03 AC 01 0B 80 00                            .......        
```

#### Opcodes

```
  0: 0x0501 [0xAB] EventEntity->Render.Flags0 ^= 0x20000 // Toggle bit 17
  1: 0x0503 [0xAC] EventEntity->StatusEvent = 1*
  2: 0x0507 [0x00] END_REQSTACK()
```

### Event 65535.13

#### Metadata

| Field        | Value   |
|--------------|---------|
| Entrypoint   | 0x0508  |
| Data Size    | 7 bytes |
| Instructions | 3       |

```
      00 01 02 03 04 05 06 07  08 09 0A 0B 0C 0D 0E 0F
      -- -- -- -- -- -- -- --  -- -- -- -- -- -- -- --
0500:                          AC 01 02 80 AB 04 00             ....... 
```

#### Opcodes

```
  0: 0x0508 [0xAC] EventEntity->StatusEvent = 0*
  1: 0x050C [0xAB] EventEntity->Render.Flags0 |= 0x40000 // Set bit 18
  2: 0x050E [0x00] END_REQSTACK()
```

### Event 65535.14

#### Metadata

| Field        | Value    |
|--------------|----------|
| Entrypoint   | 0x050F   |
| Data Size    | 14 bytes |
| Instructions | 4        |

```
      00 01 02 03 04 05 06 07  08 09 0A 0B 0C 0D 0E 0F
      -- -- -- -- -- -- -- --  -- -- -- -- -- -- -- --
0500:                                               32                 2
0510: 48 80 1F 00 5D 80 5E 80  5F 80 1F 01 00           H...].^._....   
```

#### Opcodes

```
  0: 0x050F [0x32] ExtData[1]->MainSpeed = 13* * 0.1
  1: 0x0512 [0x1F] MOVE_ENTITY: EventEntity moves to X=18.740*, Z=79.330*, Y=-31.910*
  2: 0x051A [0x1F] MOVE_ENTITY: Update entity position (mode=1)
  3: 0x051C [0x00] END_REQSTACK()
```

### Event 65535.15

#### Metadata

| Field        | Value    |
|--------------|----------|
| Entrypoint   | 0x051D   |
| Data Size    | 22 bytes |
| Instructions | 8        |

```
      00 01 02 03 04 05 06 07  08 09 0A 0B 0C 0D 0E 0F
      -- -- -- -- -- -- -- --  -- -- -- -- -- -- -- --
0510:                                         39 60 80               9`.
0520: 6F 70 1C 4D 80 32 48 80  1F 00 61 80 62 80 63 80  op.M.2H...a.b.c.
0530: 1F 01 00                                          ...             
```

#### Opcodes

```
  0: 0x051D [0x39] SET_ENTITY_DIRECTION(direction=4.4°*)
  1: 0x0520 [0x6F] WAIT_FRAME_DELAY: Yield until WaitTime reaches zero
  2: 0x0521 [0x70] WAIT_ENTITY_RENDER_FLAG: Wait while EventEntity->Render.Flags3 bit 2 is set (cancel turn if not)
  3: 0x0522 [0x1C] WAIT(10* ticks)
  4: 0x0525 [0x32] ExtData[1]->MainSpeed = 13* * 0.1
  5: 0x0528 [0x1F] MOVE_ENTITY: EventEntity moves to X=19.730*, Z=76.920*, Y=-31.820*
  6: 0x0530 [0x1F] MOVE_ENTITY: Update entity position (mode=1)
  7: 0x0532 [0x00] END_REQSTACK()
```

### Event 65535.16

#### Metadata

| Field        | Value   |
|--------------|---------|
| Entrypoint   | 0x0533  |
| Data Size    | 4 bytes |
| Instructions | 2       |

```
      00 01 02 03 04 05 06 07  08 09 0A 0B 0C 0D 0E 0F
      -- -- -- -- -- -- -- --  -- -- -- -- -- -- -- --
0530:          39 64 80 00                                 9d..         
```

#### Opcodes

```
  0: 0x0533 [0x39] SET_ENTITY_DIRECTION(direction=5.1°*)
  1: 0x0536 [0x00] END_REQSTACK()
```
