# Event 288

## Metadata

| Field           | Value    |
|-----------------|----------|
| Event Index     | 16/16    |
| Offset          | 0x0107   |
| Data Size       | 39 bytes |
| Calculated Size | 39 bytes |
| Instructions    | 14       |

```
      00 01 02 03 04 05 06 07  08 09 0A 0B 0C 0D 0E 0F
      -- -- -- -- -- -- -- --  -- -- -- -- -- -- -- --
0100:                      20  01 1E F0 FF FF 7F 6F 70          ......op
0110: 1D 16 80 23 6E E1 01 03  01 17 80 99 E1 01 03 01  ...#n...........
0120: 1D 18 80 23 99 E1 01 03  01 1C 08 80 21 00        ...#........!.  
```

## Opcodes

```
  0: 0x0107 [0x20] SET_CLI_EVENT_UC_FLAG: Lock player control
  1: 0x0109 [0x1E] EventEntity looks at LocalPlayer and starts talking
  2: 0x010E [0x6F] WAIT_FRAME_DELAY: Yield until WaitTime reaches zero
  3: 0x010F [0x70] WAIT_ENTITY_RENDER_FLAG: Wait while EventEntity->Render.Flags3 bit 2 is set (cancel turn if not)
  4: 0x0110 [0x1D] PRINT_EVENT_MESSAGE(message_id=7739*)
    → "\u0008, you are here to lend your strength to our defenses?\u007F1\u0000\u0007"
  5: 0x0113 [0x23] WAIT_FOR_DIALOG_INTERACTION
  6: 0x0114 [0x6E] Najelith (ID: 16974305/0x010301E1) uses emote 11*
  7: 0x011B [0x99] Wait for Najelith (ID: 16974305/0x010301E1) animation to complete
  8: 0x0120 [0x1D] PRINT_EVENT_MESSAGE(message_id=7740*)
    → "Then let us drive back the beastmen, shoulder to shoulder!\u007F1\u0000\u0007"
  9: 0x0123 [0x23] WAIT_FOR_DIALOG_INTERACTION
 10: 0x0124 [0x99] Wait for Najelith (ID: 16974305/0x010301E1) animation to complete
 11: 0x0129 [0x1C] WAIT(30* ticks)
 12: 0x012C [0x21] END_EVENT
 13: 0x012D [0x00] END_REQSTACK()
```
