# 16814522 - Ev_FX

## Common Data

| Field            | Value           |
|------------------|-----------------|
| Zone             | Pso'Xja (ID: 9) |
| Block Size       | 216 bytes       |
| Total Events     | 2               |
| References Count | 7               |

## List of Events

| Event ID              | Entrypoint   |   Size |   Instructions |
|-----------------------|--------------|--------|----------------|
| [65535](#event-65535) | 0x0000       |      1 |              1 |
| [15](#event-15)       | 0x0001       |    160 |             24 |

## DAT References (imed_data)

|   Index | Hex Value   |   Dec Value |
|---------|-------------|-------------|
|       0 | 0x00C8      |         200 |
|       1 | 0x0000      |           0 |
|       2 | 0x003C      |          60 |
|       3 | 0x005E      |          94 |
|       4 | 0x0050      |          80 |
|       5 | 0x0154      |         340 |
|       6 | 0x0104      |         260 |

## Events

### Event 65535

#### Metadata

| Field        | Value   |
|--------------|---------|
| Entrypoint   | 0x0000  |
| Data Size    | 1 bytes |
| Instructions | 1       |

```
      00 01 02 03 04 05 06 07  08 09 0A 0B 0C 0D 0E 0F
      -- -- -- -- -- -- -- --  -- -- -- -- -- -- -- --
0000: 00                                                .               
```

#### Opcodes

```
  0: 0x0000 [0x00] END_REQSTACK()
```

### Event 15

#### Metadata

| Field        | Value     |
|--------------|-----------|
| Entrypoint   | 0x0001    |
| Data Size    | 160 bytes |
| Instructions | 24        |

```
      00 01 02 03 04 05 06 07  08 09 0A 0B 0C 0D 0E 0F
      -- -- -- -- -- -- -- --  -- -- -- -- -- -- -- --
0000:    20 01 46 01 42 45 00  80 F0 FF FF 7F F0 FF FF    .F.BE.........
0010: 7F 66 64 6F 31 01 80 1C  02 80 45 03 80 F0 FF FF  .fdo1.....E.....
0020: 7F F0 FF FF 7F 63 30 30  39 01 80 1C 02 80 45 00  .....c009.....E.
0030: 80 F0 FF FF 7F F0 FF FF  7F 66 64 69 31 01 80 2D  .........fdi1..-
0040: F8 FF FF 7F F8 FF FF 7F  73 74 61 74 1C 04 80 2D  ........stat...-
0050: F8 FF FF 7F F8 FF FF 7F  73 31 33 36 1C 05 80 4C  ........s136...L
0060: 1C 06 80 45 00 80 F0 FF  FF 7F F0 FF FF 7F 66 64  ...E..........fd
0070: 6F 31 01 80 1C 02 80 52  03 80 F0 FF FF 7F F0 FF  o1.....R........
0080: FF 7F 63 30 30 39 4D 1C  02 80 45 00 80 F0 FF FF  ..c009M...E.....
0090: 7F F0 FF FF 7F 66 64 69  31 01 80 46 00 20 00 21  .....fdi1..F. .!
00A0: 00                                                .               
```

#### Opcodes

```
  0: 0x0001 [0x20] SET_CLI_EVENT_UC_FLAG: Lock player control
  1: 0x0003 [0x46] CAMERA_CONTROL: Disable user control
  2: 0x0005 [0x42] SET_CLI_EVENT_CANCEL_DATA()
  3: 0x0006 [0x45] LOAD_SCHEDULED_TASK: Load scheduler "fdo1" with entities [LocalPlayer, LocalPlayer], work=[200*, 0*]
  4: 0x0017 [0x1C] WAIT(60* ticks)
  5: 0x001A [0x45] LOAD_SCHEDULED_TASK: Load scheduler "c009" with entities [LocalPlayer, LocalPlayer], work=[94*, 0*]
  6: 0x002B [0x1C] WAIT(60* ticks)
  7: 0x002E [0x45] LOAD_SCHEDULED_TASK: Load scheduler "fdi1" with entities [LocalPlayer, LocalPlayer], work=[200*, 0*]
  8: 0x003F [0x2D] CREATE_ZONE_SCHEDULER_TASK: Create scheduler "stat" with entities [EventEntity, EventEntity]
  9: 0x004C [0x1C] WAIT(80* ticks)
 10: 0x004F [0x2D] CREATE_ZONE_SCHEDULER_TASK: Create scheduler "s136" with entities [EventEntity, EventEntity]
 11: 0x005C [0x1C] WAIT(340* ticks)
 12: 0x005F [0x4C] EventEntity->StatusEvent = 8 // Open door
 13: 0x0060 [0x1C] WAIT(260* ticks)
 14: 0x0063 [0x45] LOAD_SCHEDULED_TASK: Load scheduler "fdo1" with entities [LocalPlayer, LocalPlayer], work=[200*, 0*]
 15: 0x0074 [0x1C] WAIT(60* ticks)
 16: 0x0077 [0x52] END_LOAD_SCHEDULER: End scheduler "c009" with entities [LocalPlayer, LocalPlayer], work=94*
 17: 0x0086 [0x4D] EventEntity->StatusEvent = 9 // Close door
 18: 0x0087 [0x1C] WAIT(60* ticks)
 19: 0x008A [0x45] LOAD_SCHEDULED_TASK: Load scheduler "fdi1" with entities [LocalPlayer, LocalPlayer], work=[200*, 0*]
 20: 0x009B [0x46] CAMERA_CONTROL: Restore default settings
 21: 0x009D [0x20] SET_CLI_EVENT_UC_FLAG: Unlock player control
 22: 0x009F [0x21] END_EVENT
 23: 0x00A0 [0x00] END_REQSTACK()
```
