# 16814529

## Common Data

| Field            | Value           |
|------------------|-----------------|
| Zone             | Pso'Xja (ID: 9) |
| Block Size       | 812 bytes       |
| Total Events     | 17              |
| References Count | 27              |

## List of Events

| Event ID                   | Entrypoint   |   Size |   Instructions |
|----------------------------|--------------|--------|----------------|
| [65535](#event-65535)      | 0x0000       |      1 |              1 |
| [65534](#event-65534)      | 0x0001       |      1 |              1 |
| [65535.1](#event-655351)   | 0x0002       |     53 |              5 |
| [65535.2](#event-655352)   | 0x0037       |     83 |              7 |
| [65535.3](#event-655353)   | 0x008A       |     13 |              3 |
| [65535.4](#event-655354)   | 0x0097       |     13 |              3 |
| [65535.5](#event-655355)   | 0x00A4       |     11 |              3 |
| [65535.6](#event-655356)   | 0x00AF       |     10 |              2 |
| [65535.7](#event-655357)   | 0x00B9       |     65 |              5 |
| [65535.8](#event-655358)   | 0x00FA       |     19 |              3 |
| [65535.9](#event-655359)   | 0x010D       |     10 |              3 |
| [65535.10](#event-6553510) | 0x0117       |     65 |              9 |
| [65535.11](#event-6553511) | 0x0158       |     91 |             12 |
| [65535.12](#event-6553512) | 0x01B3       |     21 |              3 |
| [65535.13](#event-6553513) | 0x01C8       |     32 |              6 |
| [65535.14](#event-6553514) | 0x01E8       |     32 |              4 |
| [65535.15](#event-6553515) | 0x0208       |     98 |             10 |

## DAT References (imed_data)

|   Index | Hex Value   |   Dec Value |
|---------|-------------|-------------|
|       0 | 0x001E      |          30 |
|       1 | 0x0099      |         153 |
|       2 | 0x0000      |           0 |
|       3 | 0x01AD      |         429 |
|       4 | 0x0002      |           2 |
|       5 | 0x01A2      |         418 |
|       6 | 0x01A8      |         424 |
|       7 | 0x0003      |           3 |
|       8 | 0x0080      |         128 |
|       9 | 0x0001      |           1 |
|      10 | 0x002D      |          45 |
|      11 | 0x0EEB      |        3819 |
|      12 | 0xFFFAE115  |  4294631701 |
|      13 | 0xFFFA060B  |  4294575627 |
|      14 | 0xFFFFB654  |  4294948436 |
|      15 | 0x04C1      |        1217 |
|      16 | 0x0708      |        1800 |
|      17 | 0x000F      |          15 |
|      18 | 0x0281      |         641 |
|      19 | 0x01A1      |         417 |
|      20 | 0x0279      |         633 |
|      21 | 0x003C      |          60 |
|      22 | 0x006C      |         108 |
|      23 | 0x0BEA      |        3050 |
|      24 | 0x01A9      |         425 |
|      25 | 0x001D      |          29 |
|      26 | 0x005E      |          94 |

## Events

### Event 65535

#### Metadata

| Field        | Value   |
|--------------|---------|
| Entrypoint   | 0x0000  |
| Data Size    | 1 bytes |
| Instructions | 1       |

```
      00 01 02 03 04 05 06 07  08 09 0A 0B 0C 0D 0E 0F
      -- -- -- -- -- -- -- --  -- -- -- -- -- -- -- --
0000: 00                                                .               
```

#### Opcodes

```
  0: 0x0000 [0x00] END_REQSTACK()
```

### Event 65534

#### Metadata

| Field        | Value   |
|--------------|---------|
| Entrypoint   | 0x0001  |
| Data Size    | 1 bytes |
| Instructions | 1       |

```
      00 01 02 03 04 05 06 07  08 09 0A 0B 0C 0D 0E 0F
      -- -- -- -- -- -- -- --  -- -- -- -- -- -- -- --
0000:    00                                              .              
```

#### Opcodes

```
  0: 0x0001 [0x00] END_REQSTACK()
```

### Event 65535.1

#### Metadata

| Field        | Value    |
|--------------|----------|
| Entrypoint   | 0x0002   |
| Data Size    | 53 bytes |
| Instructions | 5        |

```
      00 01 02 03 04 05 06 07  08 09 0A 0B 0C 0D 0E 0F
      -- -- -- -- -- -- -- --  -- -- -- -- -- -- -- --
0000:       1C 00 80 45 01 80  F0 FF FF 7F F0 FF FF 7F    ...E..........
0010: 63 34 30 39 02 80 55 01  80 F0 FF FF 7F F0 FF FF  c409..U.........
0020: 7F 63 34 30 39 45 01 80  F0 FF FF 7F F0 FF FF 7F  .c409E..........
0030: 63 34 31 30 02 80 00                              c410...         
```

#### Opcodes

```
  0: 0x0002 [0x1C] WAIT(30* ticks)
  1: 0x0005 [0x45] LOAD_SCHEDULED_TASK: Load scheduler "c409" with entities [LocalPlayer, LocalPlayer], work=[153*, 0*]
  2: 0x0016 [0x55] WAIT_LOAD_SCHEDULER: Wait for scheduler "c409" with entities [LocalPlayer, LocalPlayer], work=153*
  3: 0x0025 [0x45] LOAD_SCHEDULED_TASK: Load scheduler "c410" with entities [LocalPlayer, LocalPlayer], work=[153*, 0*]
  4: 0x0036 [0x00] END_REQSTACK()
```

### Event 65535.2

#### Metadata

| Field        | Value    |
|--------------|----------|
| Entrypoint   | 0x0037   |
| Data Size    | 83 bytes |
| Instructions | 7        |

```
      00 01 02 03 04 05 06 07  08 09 0A 0B 0C 0D 0E 0F
      -- -- -- -- -- -- -- --  -- -- -- -- -- -- -- --
0030:                      45  01 80 F0 FF FF 7F F0 FF         E........
0040: FF 7F 73 30 34 35 02 80  5B 03 80 C7 91 00 01 C7  ..s045..[.......
0050: 91 00 01 63 34 30 30 1C  04 80 45 01 80 F0 FF FF  ...c400...E.....
0060: 7F F0 FF FF 7F 73 30 34  36 02 80 5B 05 80 CA 91  .....s046..[....
0070: 00 01 CA 91 00 01 6B 65  69 30 5B 06 80 C8 91 00  ......kei0[.....
0080: 01 C8 91 00 01 63 34 30  30 00                    .....c400.      
```

#### Opcodes

```
  0: 0x0037 [0x45] LOAD_SCHEDULED_TASK: Load scheduler "s045" with entities [LocalPlayer, LocalPlayer], work=[153*, 0*]
  1: 0x0048 [0x5B] LOAD_EXT_SCHEDULER: Load scheduler "c400" with entities [Tenzen (ID: 16814535/0x010091C7), Tenzen (ID: 16814535/0x010091C7)], work=429*
  2: 0x0057 [0x1C] WAIT(2* ticks)
  3: 0x005A [0x45] LOAD_SCHEDULED_TASK: Load scheduler "s046" with entities [LocalPlayer, LocalPlayer], work=[153*, 0*]
  4: 0x006B [0x5B] LOAD_EXT_SCHEDULER: Load scheduler "kei0" with entities [Louverance (ID: 16814538/0x010091CA), Louverance (ID: 16814538/0x010091CA)], work=418*
  5: 0x007A [0x5B] LOAD_EXT_SCHEDULER: Load scheduler "c400" with entities [Ulmia (ID: 16814536/0x010091C8), Ulmia (ID: 16814536/0x010091C8)], work=424*
  6: 0x0089 [0x00] END_REQSTACK()
```

### Event 65535.3

#### Metadata

| Field        | Value    |
|--------------|----------|
| Entrypoint   | 0x008A   |
| Data Size    | 13 bytes |
| Instructions | 3        |

```
      00 01 02 03 04 05 06 07  08 09 0A 0B 0C 0D 0E 0F
      -- -- -- -- -- -- -- --  -- -- -- -- -- -- -- --
0080:                                1C 07 80 6C CE 91            ...l..
0090: 00 01 08 80 09 80 00                              .......         
```

#### Opcodes

```
  0: 0x008A [0x1C] WAIT(3* ticks)
  1: 0x008D [0x6C] FADE_ENTITY_COLOR(entity_id=Unnamed NPC (ID: 16814542/0x010091CE), end_alpha=128*, fade_time=1*)
  2: 0x0096 [0x00] END_REQSTACK()
```

### Event 65535.4

#### Metadata

| Field        | Value    |
|--------------|----------|
| Entrypoint   | 0x0097   |
| Data Size    | 13 bytes |
| Instructions | 3        |

```
      00 01 02 03 04 05 06 07  08 09 0A 0B 0C 0D 0E 0F
      -- -- -- -- -- -- -- --  -- -- -- -- -- -- -- --
0090:                      1C  07 80 6C CC 91 00 01 08         ...l.....
00A0: 80 00 80 00                                       ....            
```

#### Opcodes

```
  0: 0x0097 [0x1C] WAIT(3* ticks)
  1: 0x009A [0x6C] FADE_ENTITY_COLOR(entity_id=Unnamed NPC (ID: 16814540/0x010091CC), end_alpha=128*, fade_time=30*)
  2: 0x00A3 [0x00] END_REQSTACK()
```

### Event 65535.5

#### Metadata

| Field        | Value    |
|--------------|----------|
| Entrypoint   | 0x00A4   |
| Data Size    | 11 bytes |
| Instructions | 3        |

```
      00 01 02 03 04 05 06 07  08 09 0A 0B 0C 0D 0E 0F
      -- -- -- -- -- -- -- --  -- -- -- -- -- -- -- --
00A0:             1C 0A 80 4B  F0 FF FF 7F 0B 80 00         ...K....... 
```

#### Opcodes

```
  0: 0x00A4 [0x1C] WAIT(45* ticks)
  1: 0x00A7 [0x4B] UPDATE_ENTITY_YAW(entity=LocalPlayer, yaw=21.0째*)
  2: 0x00AE [0x00] END_REQSTACK()
```

### Event 65535.6

#### Metadata

| Field        | Value    |
|--------------|----------|
| Entrypoint   | 0x00AF   |
| Data Size    | 10 bytes |
| Instructions | 2        |

```
      00 01 02 03 04 05 06 07  08 09 0A 0B 0C 0D 0E 0F
      -- -- -- -- -- -- -- --  -- -- -- -- -- -- -- --
00A0:                                               37                 7
00B0: 0C 80 0D 80 0E 80 0F 80  00                       .........       
```

#### Opcodes

```
  0: 0x00AF [0x37] UPDATE_EVENT_POSITION_AND_DIR: x=-335.595*, z=-391.669*, y=-18.860*, direction=107.0째*
  1: 0x00B8 [0x00] END_REQSTACK()
```

### Event 65535.7

#### Metadata

| Field        | Value    |
|--------------|----------|
| Entrypoint   | 0x00B9   |
| Data Size    | 65 bytes |
| Instructions | 5        |

```
      00 01 02 03 04 05 06 07  08 09 0A 0B 0C 0D 0E 0F
      -- -- -- -- -- -- -- --  -- -- -- -- -- -- -- --
00B0:                             45 01 80 F0 FF FF 7F           E......
00C0: F0 FF FF 7F 73 6E 67 30  02 80 55 01 80 F0 FF FF  ....sng0..U.....
00D0: 7F F0 FF FF 7F 73 6E 67  30 45 01 80 F0 FF FF 7F  .....sng0E......
00E0: F0 FF FF 7F 73 6E 67 31  02 80 55 01 80 F0 FF FF  ....sng1..U.....
00F0: 7F F0 FF FF 7F 73 6E 67  31 00                    .....sng1.      
```

#### Opcodes

```
  0: 0x00B9 [0x45] LOAD_SCHEDULED_TASK: Load scheduler "sng0" with entities [LocalPlayer, LocalPlayer], work=[153*, 0*]
  1: 0x00CA [0x55] WAIT_LOAD_SCHEDULER: Wait for scheduler "sng0" with entities [LocalPlayer, LocalPlayer], work=153*
  2: 0x00D9 [0x45] LOAD_SCHEDULED_TASK: Load scheduler "sng1" with entities [LocalPlayer, LocalPlayer], work=[153*, 0*]
  3: 0x00EA [0x55] WAIT_LOAD_SCHEDULER: Wait for scheduler "sng1" with entities [LocalPlayer, LocalPlayer], work=153*
  4: 0x00F9 [0x00] END_REQSTACK()
```

### Event 65535.8

#### Metadata

| Field        | Value    |
|--------------|----------|
| Entrypoint   | 0x00FA   |
| Data Size    | 19 bytes |
| Instructions | 3        |

```
      00 01 02 03 04 05 06 07  08 09 0A 0B 0C 0D 0E 0F
      -- -- -- -- -- -- -- --  -- -- -- -- -- -- -- --
00F0:                                6C D5 91 00 01 08            l.....
0100: 80 09 80 6C C6 91 00 01  02 80 09 80 00           ...l.........   
```

#### Opcodes

```
  0: 0x00FA [0x6C] FADE_ENTITY_COLOR(entity_id=Unnamed NPC (ID: 16814549/0x010091D5), end_alpha=128*, fade_time=1*)
  1: 0x0103 [0x6C] FADE_ENTITY_COLOR(entity_id=Selh'teus (ID: 16814534/0x010091C6), end_alpha=0*, fade_time=1*)
  2: 0x010C [0x00] END_REQSTACK()
```

### Event 65535.9

#### Metadata

| Field        | Value    |
|--------------|----------|
| Entrypoint   | 0x010D   |
| Data Size    | 10 bytes |
| Instructions | 3        |

```
      00 01 02 03 04 05 06 07  08 09 0A 0B 0C 0D 0E 0F
      -- -- -- -- -- -- -- --  -- -- -- -- -- -- -- --
0100:                                         1C 00 80               ...
0110: 7C 01 C9 91 00 01 00                              |......         
```

#### Opcodes

```
  0: 0x010D [0x1C] WAIT(30* ticks)
  1: 0x0110 [0x7C] Nag'molada (ID: 16814537/0x010091C9)->Render.Flags2 |= 0x01
  2: 0x0116 [0x00] END_REQSTACK()
```

### Event 65535.10

#### Metadata

| Field        | Value    |
|--------------|----------|
| Entrypoint   | 0x0117   |
| Data Size    | 65 bytes |
| Instructions | 9        |

```
      00 01 02 03 04 05 06 07  08 09 0A 0B 0C 0D 0E 0F
      -- -- -- -- -- -- -- --  -- -- -- -- -- -- -- --
0110:                      94  01 C7 91 00 01 94 01 CA         .........
0120: 91 00 01 27 10 C7 91 00  01 11 80 C7 91 00 01 4B  ...'...........K
0130: CA 91 00 01 10 80 1C 11  80 5B 12 80 C7 91 00 01  .........[......
0140: C7 91 00 01 63 34 30 32  5B 13 80 CA 91 00 01 CA  ....c402[.......
0150: 91 00 01 62 74 6C 73 00                           ...btls.        
```

#### Opcodes

```
  0: 0x0117 [0x94] Tenzen (ID: 16814535/0x010091C7)->Render.Flags3 ^= 0x01
  1: 0x011D [0x94] Louverance (ID: 16814538/0x010091CA)->Render.Flags3 ^= 0x01
  2: 0x0123 [0x27] REQ_SET(priority=0x10, entity_id=Tenzen (ID: 16814535/0x010091C7), tag_num=0x11)
  3: 0x012A [0x80] LOAD_WAIT(entity=Tenzen (ID: 16814535/0x010091C7))
  4: 0x012F [0x4B] UPDATE_ENTITY_YAW(entity=Louverance (ID: 16814538/0x010091CA), yaw=9.9째*)
  5: 0x0136 [0x1C] WAIT(15* ticks)
  6: 0x0139 [0x5B] LOAD_EXT_SCHEDULER: Load scheduler "c402" with entities [Tenzen (ID: 16814535/0x010091C7), Tenzen (ID: 16814535/0x010091C7)], work=641*
  7: 0x0148 [0x5B] LOAD_EXT_SCHEDULER: Load scheduler "btls" with entities [Louverance (ID: 16814538/0x010091CA), Louverance (ID: 16814538/0x010091CA)], work=417*
  8: 0x0157 [0x00] END_REQSTACK()
```

### Event 65535.11

#### Metadata

| Field        | Value    |
|--------------|----------|
| Entrypoint   | 0x0158   |
| Data Size    | 91 bytes |
| Instructions | 12       |

```
      00 01 02 03 04 05 06 07  08 09 0A 0B 0C 0D 0E 0F
      -- -- -- -- -- -- -- --  -- -- -- -- -- -- -- --
0150:                          94 01 C7 91 00 01 94 01          ........
0160: CA 91 00 01 94 01 C8 91  00 01 27 10 C7 91 00 01  ..........'.....
0170: 12 27 10 CA 91 00 01 0D  80 C7 91 00 01 80 CA 91  .'..............
0180: 00 01 1C 11 80 5B 12 80  C7 91 00 01 C7 91 00 01  .....[..........
0190: 63 34 30 33 5B 05 80 CA  91 00 01 CA 91 00 01 6B  c403[..........k
01A0: 7A 65 30 5B 14 80 C8 91  00 01 C8 91 00 01 6B 7A  ze0[..........kz
01B0: 65 30 00                                          e0.             
```

#### Opcodes

```
  0: 0x0158 [0x94] Tenzen (ID: 16814535/0x010091C7)->Render.Flags3 ^= 0x01
  1: 0x015E [0x94] Louverance (ID: 16814538/0x010091CA)->Render.Flags3 ^= 0x01
  2: 0x0164 [0x94] Ulmia (ID: 16814536/0x010091C8)->Render.Flags3 ^= 0x01
  3: 0x016A [0x27] REQ_SET(priority=0x10, entity_id=Tenzen (ID: 16814535/0x010091C7), tag_num=0x12)
  4: 0x0171 [0x27] REQ_SET(priority=0x10, entity_id=Louverance (ID: 16814538/0x010091CA), tag_num=0x0D)
  5: 0x0178 [0x80] LOAD_WAIT(entity=Tenzen (ID: 16814535/0x010091C7))
  6: 0x017D [0x80] LOAD_WAIT(entity=Louverance (ID: 16814538/0x010091CA))
  7: 0x0182 [0x1C] WAIT(15* ticks)
  8: 0x0185 [0x5B] LOAD_EXT_SCHEDULER: Load scheduler "c403" with entities [Tenzen (ID: 16814535/0x010091C7), Tenzen (ID: 16814535/0x010091C7)], work=641*
  9: 0x0194 [0x5B] LOAD_EXT_SCHEDULER: Load scheduler "kze0" with entities [Louverance (ID: 16814538/0x010091CA), Louverance (ID: 16814538/0x010091CA)], work=418*
 10: 0x01A3 [0x5B] LOAD_EXT_SCHEDULER: Load scheduler "kze0" with entities [Ulmia (ID: 16814536/0x010091C8), Ulmia (ID: 16814536/0x010091C8)], work=633*
 11: 0x01B2 [0x00] END_REQSTACK()
```

### Event 65535.12

#### Metadata

| Field        | Value    |
|--------------|----------|
| Entrypoint   | 0x01B3   |
| Data Size    | 21 bytes |
| Instructions | 3        |

```
      00 01 02 03 04 05 06 07  08 09 0A 0B 0C 0D 0E 0F
      -- -- -- -- -- -- -- --  -- -- -- -- -- -- -- --
01B0:          1C 15 80 9F 16  80 C7 91 00 01 C7 91 00     .............
01C0: 01 73 74 72 31 02 80 00                           .str1...        
```

#### Opcodes

```
  0: 0x01B3 [0x1C] WAIT(60* ticks)
  1: 0x01B6 [0x9F] LOAD_SCHEDULED_TASK_ALT: Load scheduler "str1" with entities [Tenzen (ID: 16814535/0x010091C7), Tenzen (ID: 16814535/0x010091C7)], work=[108*, 0*]
  2: 0x01C7 [0x00] END_REQSTACK()
```

### Event 65535.13

#### Metadata

| Field        | Value    |
|--------------|----------|
| Entrypoint   | 0x01C8   |
| Data Size    | 32 bytes |
| Instructions | 6        |

```
      00 01 02 03 04 05 06 07  08 09 0A 0B 0C 0D 0E 0F
      -- -- -- -- -- -- -- --  -- -- -- -- -- -- -- --
01C0:                          1C 11 80 4B C7 91 00 01          ...K....
01D0: 17 80 6F 76 C7 91 00 01  5B 12 80 C7 91 00 01 C7  ..ov....[.......
01E0: 91 00 01 72 65 69 32 00                           ...rei2.        
```

#### Opcodes

```
  0: 0x01C8 [0x1C] WAIT(15* ticks)
  1: 0x01CB [0x4B] UPDATE_ENTITY_YAW(entity=Tenzen (ID: 16814535/0x010091C7), yaw=16.8째*)
  2: 0x01D2 [0x6F] WAIT_FRAME_DELAY: Yield until WaitTime reaches zero
  3: 0x01D3 [0x76] CHECK_ENTITY_RENDER_FLAGS: Wait until Tenzen (ID: 16814535/0x010091C7) Render.Flags0 and Render.Flags3 conditions are met
  4: 0x01D8 [0x5B] LOAD_EXT_SCHEDULER: Load scheduler "rei2" with entities [Tenzen (ID: 16814535/0x010091C7), Tenzen (ID: 16814535/0x010091C7)], work=641*
  5: 0x01E7 [0x00] END_REQSTACK()
```

### Event 65535.14

#### Metadata

| Field        | Value    |
|--------------|----------|
| Entrypoint   | 0x01E8   |
| Data Size    | 32 bytes |
| Instructions | 4        |

```
      00 01 02 03 04 05 06 07  08 09 0A 0B 0C 0D 0E 0F
      -- -- -- -- -- -- -- --  -- -- -- -- -- -- -- --
01E0:                          1C 00 80 5B 18 80 C7 91          ...[....
01F0: 00 01 C7 91 00 01 74 68  6B 31 53 C7 91 00 01 C7  ......thk1S.....
0200: 91 00 01 74 68 6B 31 00                           ...thk1.        
```

#### Opcodes

```
  0: 0x01E8 [0x1C] WAIT(30* ticks)
  1: 0x01EB [0x5B] LOAD_EXT_SCHEDULER: Load scheduler "thk1" with entities [Tenzen (ID: 16814535/0x010091C7), Tenzen (ID: 16814535/0x010091C7)], work=425*
  2: 0x01FA [0x53] WAIT_SCHEDULER_TASK: Wait for scheduler "thk1" with entities [Tenzen (ID: 16814535/0x010091C7), Tenzen (ID: 16814535/0x010091C7)]
  3: 0x0207 [0x00] END_REQSTACK()
```

### Event 65535.15

#### Metadata

| Field        | Value    |
|--------------|----------|
| Entrypoint   | 0x0208   |
| Data Size    | 98 bytes |
| Instructions | 10       |

```
      00 01 02 03 04 05 06 07  08 09 0A 0B 0C 0D 0E 0F
      -- -- -- -- -- -- -- --  -- -- -- -- -- -- -- --
0200:                          6E F0 FF FF 7F 19 80 99          n.......
0210: F0 FF FF 7F 27 10 C2 91  00 01 04 45 01 80 F0 FF  ....'......E....
0220: FF 7F F0 FF FF 7F 70 73  37 36 02 80 9F 1A 80 F0  ......ps76......
0230: FF FF 7F F0 FF FF 7F 73  74 72 30 02 80 1C 00 80  .......str0.....
0240: 27 10 C3 91 00 01 04 45  01 80 F0 FF FF 7F F0 FF  '......E........
0250: FF 7F 6E 73 37 36 02 80  9F 1A 80 C9 91 00 01 C9  ..ns76..........
0260: 91 00 01 73 74 72 30 02  80 00                    ...str0...      
```

#### Opcodes

```
  0: 0x0208 [0x6E] LocalPlayer uses emote 29*
  1: 0x020F [0x99] Wait for LocalPlayer animation to complete
  2: 0x0214 [0x27] REQ_SET(priority=0x10, entity_id=Unnamed NPC (ID: 16814530/0x010091C2), tag_num=0x04)
  3: 0x021B [0x45] LOAD_SCHEDULED_TASK: Load scheduler "ps76" with entities [LocalPlayer, LocalPlayer], work=[153*, 0*]
  4: 0x022C [0x9F] LOAD_SCHEDULED_TASK_ALT: Load scheduler "str0" with entities [LocalPlayer, LocalPlayer], work=[94*, 0*]
  5: 0x023D [0x1C] WAIT(30* ticks)
  6: 0x0240 [0x27] REQ_SET(priority=0x10, entity_id=Unnamed NPC (ID: 16814531/0x010091C3), tag_num=0x04)
  7: 0x0247 [0x45] LOAD_SCHEDULED_TASK: Load scheduler "ns76" with entities [LocalPlayer, LocalPlayer], work=[153*, 0*]
  8: 0x0258 [0x9F] LOAD_SCHEDULED_TASK_ALT: Load scheduler "str0" with entities [Nag'molada (ID: 16814537/0x010091C9), Nag'molada (ID: 16814537/0x010091C9)], work=[94*, 0*]
  9: 0x0269 [0x00] END_REQSTACK()
```
