# 16814532

## Common Data

| Field            | Value           |
|------------------|-----------------|
| Zone             | Pso'Xja (ID: 9) |
| Block Size       | 172 bytes       |
| Total Events     | 4               |
| References Count | 3               |

## List of Events

| Event ID                 | Entrypoint   |   Size |   Instructions |
|--------------------------|--------------|--------|----------------|
| [65535](#event-65535)    | 0x0000       |      1 |              1 |
| [65534](#event-65534)    | 0x0001       |      1 |              1 |
| [65535.1](#event-655351) | 0x0002       |     73 |              9 |
| [65535.2](#event-655352) | 0x004B       |     52 |              6 |

## DAT References (imed_data)

|   Index | Hex Value   |   Dec Value |
|---------|-------------|-------------|
|       0 | 0x01E5      |         485 |
|       1 | 0x0009      |           9 |
|       2 | 0x000C      |          12 |

## Events

### Event 65535

#### Metadata

| Field        | Value   |
|--------------|---------|
| Entrypoint   | 0x0000  |
| Data Size    | 1 bytes |
| Instructions | 1       |

```
      00 01 02 03 04 05 06 07  08 09 0A 0B 0C 0D 0E 0F
      -- -- -- -- -- -- -- --  -- -- -- -- -- -- -- --
0000: 00                                                .               
```

#### Opcodes

```
  0: 0x0000 [0x00] END_REQSTACK()
```

### Event 65534

#### Metadata

| Field        | Value   |
|--------------|---------|
| Entrypoint   | 0x0001  |
| Data Size    | 1 bytes |
| Instructions | 1       |

```
      00 01 02 03 04 05 06 07  08 09 0A 0B 0C 0D 0E 0F
      -- -- -- -- -- -- -- --  -- -- -- -- -- -- -- --
0000:    00                                              .              
```

#### Opcodes

```
  0: 0x0001 [0x00] END_REQSTACK()
```

### Event 65535.1

#### Metadata

| Field        | Value    |
|--------------|----------|
| Entrypoint   | 0x0002   |
| Data Size    | 73 bytes |
| Instructions | 9        |

```
      00 01 02 03 04 05 06 07  08 09 0A 0B 0C 0D 0E 0F
      -- -- -- -- -- -- -- --  -- -- -- -- -- -- -- --
0000:       5B 00 80 D0 91 00  01 D0 91 00 01 74 6F 62    [..........tob
0010: 30 27 10 C3 91 00 01 02  1C 01 80 5B 00 80 CF 91  0'.........[....
0020: 00 01 CF 91 00 01 74 6F  62 30 27 10 C2 91 00 01  ......tob0'.....
0030: 02 1C 02 80 5B 00 80 CE  91 00 01 CE 91 00 01 74  ....[..........t
0040: 6F 62 30 27 10 C1 91 00  01 04 00                 ob0'.......     
```

#### Opcodes

```
  0: 0x0002 [0x5B] LOAD_EXT_SCHEDULER: Load scheduler "tob0" with entities [Unnamed NPC (ID: 16814544/0x010091D0), Unnamed NPC (ID: 16814544/0x010091D0)], work=485*
  1: 0x0011 [0x27] REQ_SET(priority=0x10, entity_id=Unnamed NPC (ID: 16814531/0x010091C3), tag_num=0x02)
  2: 0x0018 [0x1C] WAIT(9* ticks)
  3: 0x001B [0x5B] LOAD_EXT_SCHEDULER: Load scheduler "tob0" with entities [Unnamed NPC (ID: 16814543/0x010091CF), Unnamed NPC (ID: 16814543/0x010091CF)], work=485*
  4: 0x002A [0x27] REQ_SET(priority=0x10, entity_id=Unnamed NPC (ID: 16814530/0x010091C2), tag_num=0x02)
  5: 0x0031 [0x1C] WAIT(12* ticks)
  6: 0x0034 [0x5B] LOAD_EXT_SCHEDULER: Load scheduler "tob0" with entities [Unnamed NPC (ID: 16814542/0x010091CE), Unnamed NPC (ID: 16814542/0x010091CE)], work=485*
  7: 0x0043 [0x27] REQ_SET(priority=0x10, entity_id=Unnamed NPC (ID: 16814529/0x010091C1), tag_num=0x04)
  8: 0x004A [0x00] END_REQSTACK()
```

### Event 65535.2

#### Metadata

| Field        | Value    |
|--------------|----------|
| Entrypoint   | 0x004B   |
| Data Size    | 52 bytes |
| Instructions | 6        |

```
      00 01 02 03 04 05 06 07  08 09 0A 0B 0C 0D 0E 0F
      -- -- -- -- -- -- -- --  -- -- -- -- -- -- -- --
0040:                                   5B 00 80 D0 91             [....
0050: 00 01 D0 91 00 01 61 74  61 30 1C 01 80 5B 00 80  ......ata0...[..
0060: CF 91 00 01 CF 91 00 01  61 74 62 30 1C 02 80 5B  ........atb0...[
0070: 00 80 CE 91 00 01 CE 91  00 01 61 74 61 30 00     ..........ata0. 
```

#### Opcodes

```
  0: 0x004B [0x5B] LOAD_EXT_SCHEDULER: Load scheduler "ata0" with entities [Unnamed NPC (ID: 16814544/0x010091D0), Unnamed NPC (ID: 16814544/0x010091D0)], work=485*
  1: 0x005A [0x1C] WAIT(9* ticks)
  2: 0x005D [0x5B] LOAD_EXT_SCHEDULER: Load scheduler "atb0" with entities [Unnamed NPC (ID: 16814543/0x010091CF), Unnamed NPC (ID: 16814543/0x010091CF)], work=485*
  3: 0x006C [0x1C] WAIT(12* ticks)
  4: 0x006F [0x5B] LOAD_EXT_SCHEDULER: Load scheduler "ata0" with entities [Unnamed NPC (ID: 16814542/0x010091CE), Unnamed NPC (ID: 16814542/0x010091CE)], work=485*
  5: 0x007E [0x00] END_REQSTACK()
```
