# 0x7FFFFFF0 - Zone Events

## Common Data

| Field            | Value           |
|------------------|-----------------|
| Zone             | Pso'Xja (ID: 9) |
| Block Size       | 2044 bytes      |
| Total Events     | 64              |
| References Count | 152             |

## List of Events

| Event ID                   | Entrypoint   |   Size |   Instructions |
|----------------------------|--------------|--------|----------------|
| [65535](#event-65535)      | 0x0000       |      1 |              1 |
| [65534](#event-65534)      | 0x0001       |      1 |              1 |
| [65535.1](#event-655351)   | 0x0002       |      6 |              2 |
| [65535.2](#event-655352)   | 0x0008       |      6 |              2 |
| [65535.3](#event-655353)   | 0x000E       |      6 |              2 |
| [65535.4](#event-655354)   | 0x0014       |     10 |              2 |
| [65535.5](#event-655355)   | 0x001E       |     15 |              5 |
| [65535.6](#event-655356)   | 0x002D       |     10 |              2 |
| [65535.7](#event-655357)   | 0x0037       |     10 |              2 |
| [65535.8](#event-655358)   | 0x0041       |     18 |              6 |
| [65535.9](#event-655359)   | 0x0053       |     10 |              2 |
| [65535.10](#event-6553510) | 0x005D       |     15 |              5 |
| [65535.11](#event-6553511) | 0x006C       |     10 |              2 |
| [65535.12](#event-6553512) | 0x0076       |     10 |              2 |
| [65535.13](#event-6553513) | 0x0080       |     10 |              2 |
| [65535.14](#event-6553514) | 0x008A       |     15 |              5 |
| [65535.15](#event-6553515) | 0x0099       |     10 |              2 |
| [65535.16](#event-6553516) | 0x00A3       |     34 |              8 |
| [65535.17](#event-6553517) | 0x00C5       |     10 |              2 |
| [65535.18](#event-6553518) | 0x00CF       |     15 |              5 |
| [65535.19](#event-6553519) | 0x00DE       |     27 |              7 |
| [65535.20](#event-6553520) | 0x00F9       |     12 |              3 |
| [65535.21](#event-6553521) | 0x0105       |     19 |              3 |
| [65535.22](#event-6553522) | 0x0118       |     10 |              2 |
| [65535.23](#event-6553523) | 0x0122       |     10 |              2 |
| [65535.24](#event-6553524) | 0x012C       |     32 |              8 |
| [52](#event-52)            | 0x014C       |     10 |              2 |
| [53](#event-53)            | 0x0156       |     13 |              3 |
| [54](#event-54)            | 0x0163       |     14 |              4 |
| [55](#event-55)            | 0x0171       |     10 |              2 |
| [56](#event-56)            | 0x017B       |     13 |              3 |
| [57](#event-57)            | 0x0188       |     14 |              4 |
| [20](#event-20)            | 0x0196       |     53 |             15 |
| [21](#event-21)            | 0x01CB       |     53 |             15 |
| [22](#event-22)            | 0x0200       |     53 |             15 |
| [23](#event-23)            | 0x0235       |     53 |             15 |
| [24](#event-24)            | 0x026A       |     53 |             15 |
| [25](#event-25)            | 0x029F       |     53 |             15 |
| [26](#event-26)            | 0x02D4       |     57 |             17 |
| [30](#event-30)            | 0x030D       |     41 |              5 |
| [31](#event-31)            | 0x0336       |     38 |              4 |
| [51](#event-51)            | 0x035C       |     10 |              2 |
| [63](#event-63)            | 0x0366       |     10 |              2 |
| [64](#event-64)            | 0x0370       |     13 |              3 |
| [65](#event-65)            | 0x037D       |     14 |              4 |
| [66](#event-66)            | 0x038B       |     10 |              2 |
| [67](#event-67)            | 0x0395       |     13 |              3 |
| [68](#event-68)            | 0x03A2       |     14 |              4 |
| [71](#event-71)            | 0x03B0       |     10 |              2 |
| [72](#event-72)            | 0x03BA       |     13 |              3 |
| [73](#event-73)            | 0x03C7       |     14 |              4 |
| [74](#event-74)            | 0x03D5       |     10 |              2 |
| [75](#event-75)            | 0x03DF       |     13 |              3 |
| [76](#event-76)            | 0x03EC       |     14 |              4 |
| [100](#event-100)          | 0x03FA       |     16 |              5 |
| [101](#event-101)          | 0x040A       |     16 |              5 |
| [102](#event-102)          | 0x041A       |     16 |              5 |
| [103](#event-103)          | 0x042A       |     16 |              5 |
| [104](#event-104)          | 0x043A       |     16 |              5 |
| [105](#event-105)          | 0x044A       |     16 |              5 |
| [65535.25](#event-6553525) | 0x045A       |     10 |              2 |
| [65535.26](#event-6553526) | 0x0464       |     15 |              5 |
| [65535.27](#event-6553527) | 0x0473       |     10 |              2 |
| [65535.28](#event-6553528) | 0x047D       |     15 |              5 |

## DAT References (imed_data)

|   Index | Hex Value   |   Dec Value |
|---------|-------------|-------------|
|       0 | 0xFFFA8D78  |  4294610296 |
|       1 | 0xFFFCA4A0  |  4294747296 |
|       2 | 0xBB7F      |       47999 |
|       3 | 0x07ED      |        2029 |
|       4 | 0x000D      |          13 |
|       5 | 0xFFFA6280  |  4294599296 |
|       6 | 0xBB7D      |       47997 |
|       7 | 0xFFFB1F3A  |  4294647610 |
|       8 | 0xFFF9E72C  |  4294567724 |
|       9 | 0xFFFFA6B4  |  4294944436 |
|      10 | 0x0817      |        2071 |
|      11 | 0xFFFB1A78  |  4294646392 |
|      12 | 0xFFF9E8F4  |  4294568180 |
|      13 | 0x0800      |        2048 |
|      14 | 0x002D      |          45 |
|      15 | 0x000A      |          10 |
|      16 | 0xFFFAF5EA  |  4294637034 |
|      17 | 0xFFF9EA0E  |  4294568462 |
|      18 | 0xFFFFAFC0  |  4294946752 |
|      19 | 0xFFFADD0C  |  4294630668 |
|      20 | 0xFFF9EA5E  |  4294568542 |
|      21 | 0xFFFFB565  |  4294948197 |
|      22 | 0x07E5      |        2021 |
|      23 | 0x000B      |          11 |
|      24 | 0xFFFAD654  |  4294628948 |
|      25 | 0xFFF9EAE9  |  4294568681 |
|      26 | 0xFFFAAFC2  |  4294619074 |
|      27 | 0xFFF9EBCD  |  4294568909 |
|      28 | 0x07B2      |        1970 |
|      29 | 0xFFFAAE9D  |  4294618781 |
|      30 | 0xFFF9F53C  |  4294571324 |
|      31 | 0x020A      |         522 |
|      32 | 0xFFFB6979  |  4294666617 |
|      33 | 0x3B66E     |      243310 |
|      34 | 0x0017      |          23 |
|      35 | 0x0C18      |        3096 |
|      36 | 0xFFFB6B17  |  4294667031 |
|      37 | 0x3C283     |      246403 |
|      38 | 0xFFFA202F  |  4294582319 |
|      39 | 0x62AF      |       25263 |
|      40 | 0x8020      |       32800 |
|      41 | 0x0573      |        1395 |
|      42 | 0xFFFA2AF5  |  4294585077 |
|      43 | 0x5C4D      |       23629 |
|      44 | 0xFFFA2C11  |  4294585361 |
|      45 | 0x573D      |       22333 |
|      46 | 0x357EC     |      219116 |
|      47 | 0xFFFB0B01  |  4294642433 |
|      48 | 0xFFFFFFF6  |  4294967286 |
|      49 | 0x34D56     |      216406 |
|      50 | 0xFFFAFFCD  |  4294639565 |
|      51 | 0x0010      |          16 |
|      52 | 0x2FB66     |      195430 |
|      53 | 0xFFFAF901  |  4294637825 |
|      54 | 0x00F6      |         246 |
|      55 | 0x0823      |        2083 |
|      56 | 0x0001      |           1 |
|      57 | 0x2EF15     |      192277 |
|      58 | 0xFFFAFA77  |  4294638199 |
|      59 | 0x2C57D     |      181629 |
|      60 | 0x511DD     |      332253 |
|      61 | 0xFFFF4362  |  4294919010 |
|      62 | 0x0E5D      |        3677 |
|      63 | 0x0390      |         912 |
|      64 | 0xFFFA5041  |  4294594625 |
|      65 | 0x50FE      |       20734 |
|      66 | 0x7CFF      |       31999 |
|      67 | 0x07C0      |        1984 |
|      68 | 0xFFFA3391  |  4294587281 |
|      69 | 0x51272     |      332402 |
|      70 | 0xBB82      |       48002 |
|      71 | 0x03F4      |        1012 |
|      72 | 0xFFFA33C2  |  4294587330 |
|      73 | 0x50705     |      329477 |
|      74 | 0xBB77      |       47991 |
|      75 | 0xFFFA3413  |  4294587411 |
|      76 | 0x4F24B     |      324171 |
|      77 | 0xBB80      |       48000 |
|      78 | 0xFFFF1595  |  4294907285 |
|      79 | 0x6AFB      |       27387 |
|      80 | 0x9C3F      |       39999 |
|      81 | 0x03FA      |        1018 |
|      82 | 0xFFFF15F9  |  4294907385 |
|      83 | 0x524A      |       21066 |
|      84 | 0x040A      |        1034 |
|      85 | 0xFFFF156C  |  4294907244 |
|      86 | 0x5800      |       22528 |
|      87 | 0x9C2E      |       39982 |
|      88 | 0x0C0C      |        3084 |
|      89 | 0xFFFF15A2  |  4294907298 |
|      90 | 0x7127      |       28967 |
|      91 | 0x0C00      |        3072 |
|      92 | 0x1C66      |        7270 |
|      93 | 0x0000      |           0 |
|      94 | 0x1C5F      |        7263 |
|      95 | 0x1C6A      |        7274 |
|      96 | 0x008C      |         140 |
|      97 | 0x00C8      |         200 |
|      98 | 0x003C      |          60 |
|      99 | 0x0002      |           2 |
|     100 | 0x00AA      |         170 |
|     101 | 0xFFFA33B8  |  4294587320 |
|     102 | 0x51573     |      333171 |
|     103 | 0xBB9A      |       48026 |
|     104 | 0x0405      |        1029 |
|     105 | 0xFFFAF6D3  |  4294637267 |
|     106 | 0xFFFC0A33  |  4294707763 |
|     107 | 0x3E7F      |       15999 |
|     108 | 0x03FB      |        1019 |
|     109 | 0xFFFAF6F0  |  4294637296 |
|     110 | 0xFFFBFB1B  |  4294703899 |
|     111 | 0xFFFB4501  |  4294657281 |
|     112 | 0xFFFC6448  |  4294730824 |
|     113 | 0x03F9      |        1017 |
|     114 | 0xFFFB4526  |  4294657318 |
|     115 | 0xFFFC552E  |  4294726958 |
|     116 | 0xFFFAF71F  |  4294637343 |
|     117 | 0x4D466     |      316518 |
|     118 | 0x4E37F     |      320383 |
|     119 | 0xFFFFFFFF  |  4294967295 |
|     120 | 0x0400      |        1024 |
|     121 | 0xFFFAF6ED  |  4294637293 |
|     122 | 0x4D48D     |      316557 |
|     123 | 0x58B62     |      363362 |
|     124 | 0xFFFFB1B3  |  4294947251 |
|     125 | 0x07F0      |        2032 |
|     126 | 0x35C0B     |      220171 |
|     127 | 0xFFFB2764  |  4294649700 |
|     128 | 0x03EA      |        1002 |
|     129 | 0x2BF51     |      180049 |
|     130 | 0x43AF2     |      277234 |
|     131 | 0x0BFB      |        3067 |
|     132 | 0xFFFBC3B5  |  4294689717 |
|     133 | 0xFFFC07D5  |  4294707157 |
|     134 | 0x3E80      |       16000 |
|     135 | 0x07EE      |        2030 |
|     136 | 0xFFFD406D  |  4294787181 |
|     137 | 0xFFFF5A1D  |  4294924829 |
|     138 | 0x0BF7      |        3063 |
|     139 | 0xFFFB6C1B  |  4294667291 |
|     140 | 0x39F9D     |      237469 |
|     141 | 0x0BF6      |        3062 |
|     142 | 0x451A3     |      283043 |
|     143 | 0xFFFF15A9  |  4294907305 |
|     144 | 0x07FD      |        2045 |
|     145 | 0x43614     |      275988 |
|     146 | 0xFFFF157D  |  4294907261 |
|     147 | 0x222CD     |      139981 |
|     148 | 0xFFFA8E10  |  4294610448 |
|     149 | 0x222F2     |      140018 |
|     150 | 0xFFFA721F  |  4294603295 |
|     151 | 0xBBC5      |       48069 |

## String References

- **7263**: A potent field of magic exists beyond the door. You sense that simply touching the door will transport you elsewhere.
- **7270**: Use the device? [Yes./No.]
- **7274**: Touch the door? [Yes./No.]

## Events

### Event 65535

#### Metadata

| Field        | Value   |
|--------------|---------|
| Entrypoint   | 0x0000  |
| Data Size    | 1 bytes |
| Instructions | 1       |

```
      00 01 02 03 04 05 06 07  08 09 0A 0B 0C 0D 0E 0F
      -- -- -- -- -- -- -- --  -- -- -- -- -- -- -- --
0000: 00                                                .               
```

#### Opcodes

```
  0: 0x0000 [0x00] END_REQSTACK()
```

### Event 65534

#### Metadata

| Field        | Value   |
|--------------|---------|
| Entrypoint   | 0x0001  |
| Data Size    | 1 bytes |
| Instructions | 1       |

```
      00 01 02 03 04 05 06 07  08 09 0A 0B 0C 0D 0E 0F
      -- -- -- -- -- -- -- --  -- -- -- -- -- -- -- --
0000:    00                                              .              
```

#### Opcodes

```
  0: 0x0001 [0x00] END_REQSTACK()
```

### Event 65535.1

#### Metadata

| Field        | Value   |
|--------------|---------|
| Entrypoint   | 0x0002  |
| Data Size    | 6 bytes |
| Instructions | 2       |

```
      00 01 02 03 04 05 06 07  08 09 0A 0B 0C 0D 0E 0F
      -- -- -- -- -- -- -- --  -- -- -- -- -- -- -- --
0000:       03 02 10 0B 7F 00                             ......        
```

#### Opcodes

```
  0: 0x0002 [0x03] Work_Zone[2] = (Entity->Render.Flags01 >> 25) & 1
  1: 0x0007 [0x00] END_REQSTACK()
```

### Event 65535.2

#### Metadata

| Field        | Value   |
|--------------|---------|
| Entrypoint   | 0x0008  |
| Data Size    | 6 bytes |
| Instructions | 2       |

```
      00 01 02 03 04 05 06 07  08 09 0A 0B 0C 0D 0E 0F
      -- -- -- -- -- -- -- --  -- -- -- -- -- -- -- --
0000:                          03 09 10 07 7F 00                ......  
```

#### Opcodes

```
  0: 0x0008 [0x03] Work_Zone[9] = Entity->Race
  1: 0x000D [0x00] END_REQSTACK()
```

### Event 65535.3

#### Metadata

| Field        | Value   |
|--------------|---------|
| Entrypoint   | 0x000E  |
| Data Size    | 6 bytes |
| Instructions | 2       |

```
      00 01 02 03 04 05 06 07  08 09 0A 0B 0C 0D 0E 0F
      -- -- -- -- -- -- -- --  -- -- -- -- -- -- -- --
0000:                                            03 02                ..
0010: 10 06 7F 00                                       ....            
```

#### Opcodes

```
  0: 0x000E [0x03] Work_Zone[2] = Entity->JobId (if LocalPlayer)
  1: 0x0013 [0x00] END_REQSTACK()
```

### Event 65535.4

#### Metadata

| Field        | Value    |
|--------------|----------|
| Entrypoint   | 0x0014   |
| Data Size    | 10 bytes |
| Instructions | 2        |

```
      00 01 02 03 04 05 06 07  08 09 0A 0B 0C 0D 0E 0F
      -- -- -- -- -- -- -- --  -- -- -- -- -- -- -- --
0010:             37 00 80 01  80 02 80 03 80 00            7.........  
```

#### Opcodes

```
  0: 0x0014 [0x37] UPDATE_EVENT_POSITION_AND_DIR: x=-357.000*, z=-220.000*, y=47.999*, direction=178.3°*
  1: 0x001D [0x00] END_REQSTACK()
```

### Event 65535.5

#### Metadata

| Field        | Value    |
|--------------|----------|
| Entrypoint   | 0x001E   |
| Data Size    | 15 bytes |
| Instructions | 5        |

```
      00 01 02 03 04 05 06 07  08 09 0A 0B 0C 0D 0E 0F
      -- -- -- -- -- -- -- --  -- -- -- -- -- -- -- --
0010:                                            32 04                2.
0020: 80 1F 00 05 80 01 80 06  80 1F 01 6F 00           ...........o.   
```

#### Opcodes

```
  0: 0x001E [0x32] ExtData[1]->MainSpeed = 13* * 0.1
  1: 0x0021 [0x1F] MOVE_ENTITY: EventEntity moves to X=-368.000*, Z=-220.000*, Y=47.997*
  2: 0x0029 [0x1F] MOVE_ENTITY: Update entity position (mode=1)
  3: 0x002B [0x6F] WAIT_FRAME_DELAY: Yield until WaitTime reaches zero
  4: 0x002C [0x00] END_REQSTACK()
```

### Event 65535.6

#### Metadata

| Field        | Value    |
|--------------|----------|
| Entrypoint   | 0x002D   |
| Data Size    | 10 bytes |
| Instructions | 2        |

```
      00 01 02 03 04 05 06 07  08 09 0A 0B 0C 0D 0E 0F
      -- -- -- -- -- -- -- --  -- -- -- -- -- -- -- --
0020:                                         37 07 80               7..
0030: 08 80 09 80 0A 80 00                              .......         
```

#### Opcodes

```
  0: 0x002D [0x37] UPDATE_EVENT_POSITION_AND_DIR: x=-319.686*, z=-399.572*, y=-22.860*, direction=182.0°*
  1: 0x0036 [0x00] END_REQSTACK()
```

### Event 65535.7

#### Metadata

| Field        | Value    |
|--------------|----------|
| Entrypoint   | 0x0037   |
| Data Size    | 10 bytes |
| Instructions | 2        |

```
      00 01 02 03 04 05 06 07  08 09 0A 0B 0C 0D 0E 0F
      -- -- -- -- -- -- -- --  -- -- -- -- -- -- -- --
0030:                      37  0B 80 0C 80 09 80 0D 80         7........
0040: 00                                                .               
```

#### Opcodes

```
  0: 0x0037 [0x37] UPDATE_EVENT_POSITION_AND_DIR: x=-320.904*, z=-399.116*, y=-22.860*, direction=180.0°*
  1: 0x0040 [0x00] END_REQSTACK()
```

### Event 65535.8

#### Metadata

| Field        | Value    |
|--------------|----------|
| Entrypoint   | 0x0041   |
| Data Size    | 18 bytes |
| Instructions | 6        |

```
      00 01 02 03 04 05 06 07  08 09 0A 0B 0C 0D 0E 0F
      -- -- -- -- -- -- -- --  -- -- -- -- -- -- -- --
0040:    1C 0E 80 32 0F 80 1F  00 10 80 11 80 12 80 1F   ...2...........
0050: 01 6F 00                                          .o.             
```

#### Opcodes

```
  0: 0x0041 [0x1C] WAIT(45* ticks)
  1: 0x0044 [0x32] ExtData[1]->MainSpeed = 10* * 0.1
  2: 0x0047 [0x1F] MOVE_ENTITY: EventEntity moves to X=-330.262*, Z=-398.834*, Y=-20.544*
  3: 0x004F [0x1F] MOVE_ENTITY: Update entity position (mode=1)
  4: 0x0051 [0x6F] WAIT_FRAME_DELAY: Yield until WaitTime reaches zero
  5: 0x0052 [0x00] END_REQSTACK()
```

### Event 65535.9

#### Metadata

| Field        | Value    |
|--------------|----------|
| Entrypoint   | 0x0053   |
| Data Size    | 10 bytes |
| Instructions | 2        |

```
      00 01 02 03 04 05 06 07  08 09 0A 0B 0C 0D 0E 0F
      -- -- -- -- -- -- -- --  -- -- -- -- -- -- -- --
0050:          37 13 80 14 80  15 80 16 80 00              7.........   
```

#### Opcodes

```
  0: 0x0053 [0x37] UPDATE_EVENT_POSITION_AND_DIR: x=-336.628*, z=-398.754*, y=-19.099*, direction=177.6°*
  1: 0x005C [0x00] END_REQSTACK()
```

### Event 65535.10

#### Metadata

| Field        | Value    |
|--------------|----------|
| Entrypoint   | 0x005D   |
| Data Size    | 15 bytes |
| Instructions | 5        |

```
      00 01 02 03 04 05 06 07  08 09 0A 0B 0C 0D 0E 0F
      -- -- -- -- -- -- -- --  -- -- -- -- -- -- -- --
0050:                                         32 17 80               2..
0060: 1F 00 18 80 19 80 15 80  1F 01 6F 00              ..........o.    
```

#### Opcodes

```
  0: 0x005D [0x32] ExtData[1]->MainSpeed = 11* * 0.1
  1: 0x0060 [0x1F] MOVE_ENTITY: EventEntity moves to X=-338.348*, Z=-398.615*, Y=-19.099*
  2: 0x0068 [0x1F] MOVE_ENTITY: Update entity position (mode=1)
  3: 0x006A [0x6F] WAIT_FRAME_DELAY: Yield until WaitTime reaches zero
  4: 0x006B [0x00] END_REQSTACK()
```

### Event 65535.11

#### Metadata

| Field        | Value    |
|--------------|----------|
| Entrypoint   | 0x006C   |
| Data Size    | 10 bytes |
| Instructions | 2        |

```
      00 01 02 03 04 05 06 07  08 09 0A 0B 0C 0D 0E 0F
      -- -- -- -- -- -- -- --  -- -- -- -- -- -- -- --
0060:                                      37 1A 80 1B              7...
0070: 80 15 80 1C 80 00                                 ......          
```

#### Opcodes

```
  0: 0x006C [0x37] UPDATE_EVENT_POSITION_AND_DIR: x=-348.222*, z=-398.387*, y=-19.099*, direction=173.1°*
  1: 0x0075 [0x00] END_REQSTACK()
```

### Event 65535.12

#### Metadata

| Field        | Value    |
|--------------|----------|
| Entrypoint   | 0x0076   |
| Data Size    | 10 bytes |
| Instructions | 2        |

```
      00 01 02 03 04 05 06 07  08 09 0A 0B 0C 0D 0E 0F
      -- -- -- -- -- -- -- --  -- -- -- -- -- -- -- --
0070:                   37 1D  80 1E 80 15 80 1F 80 00        7.........
```

#### Opcodes

```
  0: 0x0076 [0x37] UPDATE_EVENT_POSITION_AND_DIR: x=-348.515*, z=-395.972*, y=-19.099*, direction=45.9°*
  1: 0x007F [0x00] END_REQSTACK()
```

### Event 65535.13

#### Metadata

| Field        | Value    |
|--------------|----------|
| Entrypoint   | 0x0080   |
| Data Size    | 10 bytes |
| Instructions | 2        |

```
      00 01 02 03 04 05 06 07  08 09 0A 0B 0C 0D 0E 0F
      -- -- -- -- -- -- -- --  -- -- -- -- -- -- -- --
0080: 37 20 80 21 80 22 80 23  80 00                    7 .!.".#..      
```

#### Opcodes

```
  0: 0x0080 [0x37] UPDATE_EVENT_POSITION_AND_DIR: x=-300.679*, z=243.310*, y=0.023*, direction=272.1°*
  1: 0x0089 [0x00] END_REQSTACK()
```

### Event 65535.14

#### Metadata

| Field        | Value    |
|--------------|----------|
| Entrypoint   | 0x008A   |
| Data Size    | 15 bytes |
| Instructions | 5        |

```
      00 01 02 03 04 05 06 07  08 09 0A 0B 0C 0D 0E 0F
      -- -- -- -- -- -- -- --  -- -- -- -- -- -- -- --
0080:                                32 17 80 1F 00 24            2....$
0090: 80 25 80 04 80 1F 01 6F  00                       .%.....o.       
```

#### Opcodes

```
  0: 0x008A [0x32] ExtData[1]->MainSpeed = 11* * 0.1
  1: 0x008D [0x1F] MOVE_ENTITY: EventEntity moves to X=-300.265*, Z=246.403*, Y=0.013*
  2: 0x0095 [0x1F] MOVE_ENTITY: Update entity position (mode=1)
  3: 0x0097 [0x6F] WAIT_FRAME_DELAY: Yield until WaitTime reaches zero
  4: 0x0098 [0x00] END_REQSTACK()
```

### Event 65535.15

#### Metadata

| Field        | Value    |
|--------------|----------|
| Entrypoint   | 0x0099   |
| Data Size    | 10 bytes |
| Instructions | 2        |

```
      00 01 02 03 04 05 06 07  08 09 0A 0B 0C 0D 0E 0F
      -- -- -- -- -- -- -- --  -- -- -- -- -- -- -- --
0090:                             37 26 80 27 80 28 80           7&.'.(.
00A0: 29 80 00                                          )..             
```

#### Opcodes

```
  0: 0x0099 [0x37] UPDATE_EVENT_POSITION_AND_DIR: x=-384.977*, z=25.263*, y=32.800*, direction=122.6°*
  1: 0x00A2 [0x00] END_REQSTACK()
```

### Event 65535.16

#### Metadata

| Field        | Value    |
|--------------|----------|
| Entrypoint   | 0x00A3   |
| Data Size    | 34 bytes |
| Instructions | 8        |

```
      00 01 02 03 04 05 06 07  08 09 0A 0B 0C 0D 0E 0F
      -- -- -- -- -- -- -- --  -- -- -- -- -- -- -- --
00A0:          32 17 80 1F 00  2A 80 2B 80 28 80 1F 01     2....*.+.(...
00B0: 1F 00 2C 80 2D 80 28 80  1F 01 6F 4A F0 FF FF 7F  ..,.-.(...oJ....
00C0: D6 91 00 01 00                                    .....           
```

#### Opcodes

```
  0: 0x00A3 [0x32] ExtData[1]->MainSpeed = 11* * 0.1
  1: 0x00A6 [0x1F] MOVE_ENTITY: EventEntity moves to X=-382.219*, Z=23.629*, Y=32.800*
  2: 0x00AE [0x1F] MOVE_ENTITY: Update entity position (mode=1)
  3: 0x00B0 [0x1F] MOVE_ENTITY: EventEntity moves to X=-381.935*, Z=22.333*, Y=32.800*
  4: 0x00B8 [0x1F] MOVE_ENTITY: Update entity position (mode=1)
  5: 0x00BA [0x6F] WAIT_FRAME_DELAY: Yield until WaitTime reaches zero
  6: 0x00BB [0x4A] LocalPlayer looks at ??? (ID: 16814550/0x010091D6)
  7: 0x00C4 [0x00] END_REQSTACK()
```

### Event 65535.17

#### Metadata

| Field        | Value    |
|--------------|----------|
| Entrypoint   | 0x00C5   |
| Data Size    | 10 bytes |
| Instructions | 2        |

```
      00 01 02 03 04 05 06 07  08 09 0A 0B 0C 0D 0E 0F
      -- -- -- -- -- -- -- --  -- -- -- -- -- -- -- --
00C0:                37 2E 80  2F 80 30 80 29 80 00          7../.0.).. 
```

#### Opcodes

```
  0: 0x00C5 [0x37] UPDATE_EVENT_POSITION_AND_DIR: x=219.116*, z=-324.863*, y=-0.010*, direction=122.6°*
  1: 0x00CE [0x00] END_REQSTACK()
```

### Event 65535.18

#### Metadata

| Field        | Value    |
|--------------|----------|
| Entrypoint   | 0x00CF   |
| Data Size    | 15 bytes |
| Instructions | 5        |

```
      00 01 02 03 04 05 06 07  08 09 0A 0B 0C 0D 0E 0F
      -- -- -- -- -- -- -- --  -- -- -- -- -- -- -- --
00C0:                                               32                 2
00D0: 04 80 1F 00 31 80 32 80  33 80 1F 01 6F 00        ....1.2.3...o.  
```

#### Opcodes

```
  0: 0x00CF [0x32] ExtData[1]->MainSpeed = 13* * 0.1
  1: 0x00D2 [0x1F] MOVE_ENTITY: EventEntity moves to X=216.406*, Z=-327.731*, Y=0.016*
  2: 0x00DA [0x1F] MOVE_ENTITY: Update entity position (mode=1)
  3: 0x00DC [0x6F] WAIT_FRAME_DELAY: Yield until WaitTime reaches zero
  4: 0x00DD [0x00] END_REQSTACK()
```

### Event 65535.19

#### Metadata

| Field        | Value    |
|--------------|----------|
| Entrypoint   | 0x00DE   |
| Data Size    | 27 bytes |
| Instructions | 7        |

```
      00 01 02 03 04 05 06 07  08 09 0A 0B 0C 0D 0E 0F
      -- -- -- -- -- -- -- --  -- -- -- -- -- -- -- --
00D0:                                            37 34                74
00E0: 80 35 80 36 80 37 80 1C  38 80 32 04 80 1F 00 39  .5.6.7..8.2....9
00F0: 80 3A 80 36 80 1F 01 6F  00                       .:.6...o.       
```

#### Opcodes

```
  0: 0x00DE [0x37] UPDATE_EVENT_POSITION_AND_DIR: x=195.430*, z=-329.471*, y=0.246*, direction=183.1°*
  1: 0x00E7 [0x1C] WAIT(1* ticks)
  2: 0x00EA [0x32] ExtData[1]->MainSpeed = 13* * 0.1
  3: 0x00ED [0x1F] MOVE_ENTITY: EventEntity moves to X=192.277*, Z=-329.097*, Y=0.246*
  4: 0x00F5 [0x1F] MOVE_ENTITY: Update entity position (mode=1)
  5: 0x00F7 [0x6F] WAIT_FRAME_DELAY: Yield until WaitTime reaches zero
  6: 0x00F8 [0x00] END_REQSTACK()
```

### Event 65535.20

#### Metadata

| Field        | Value    |
|--------------|----------|
| Entrypoint   | 0x00F9   |
| Data Size    | 12 bytes |
| Instructions | 3        |

```
      00 01 02 03 04 05 06 07  08 09 0A 0B 0C 0D 0E 0F
      -- -- -- -- -- -- -- --  -- -- -- -- -- -- -- --
00F0:                             33 01 37 3B 80 3C 80           3.7;.<.
0100: 3D 80 3E 80 00                                    =.>..           
```

#### Opcodes

```
  0: 0x00F9 [0x33] EventEntity->Render.Flags0 |= 0x200000 // Bit 21 (flag=0x01)
  1: 0x00FB [0x37] UPDATE_EVENT_POSITION_AND_DIR: x=181.629*, z=332.253*, y=-48.286*, direction=323.2°*
  2: 0x0104 [0x00] END_REQSTACK()
```

### Event 65535.21

#### Metadata

| Field        | Value    |
|--------------|----------|
| Entrypoint   | 0x0105   |
| Data Size    | 19 bytes |
| Instructions | 3        |

```
      00 01 02 03 04 05 06 07  08 09 0A 0B 0C 0D 0E 0F
      -- -- -- -- -- -- -- --  -- -- -- -- -- -- -- --
0100:                37 2C 80  2D 80 28 80 3F 80 4A F0       7,.-.(.?.J.
0110: FF FF 7F C7 91 00 01 00                           ........        
```

#### Opcodes

```
  0: 0x0105 [0x37] UPDATE_EVENT_POSITION_AND_DIR: x=-381.935*, z=22.333*, y=32.800*, direction=80.2°*
  1: 0x010E [0x4A] LocalPlayer looks at Tenzen (ID: 16814535/0x010091C7)
  2: 0x0117 [0x00] END_REQSTACK()
```

### Event 65535.22

#### Metadata

| Field        | Value    |
|--------------|----------|
| Entrypoint   | 0x0118   |
| Data Size    | 10 bytes |
| Instructions | 2        |

```
      00 01 02 03 04 05 06 07  08 09 0A 0B 0C 0D 0E 0F
      -- -- -- -- -- -- -- --  -- -- -- -- -- -- -- --
0110:                          37 40 80 41 80 42 80 43          7@.A.B.C
0120: 80 00                                             ..              
```

#### Opcodes

```
  0: 0x0118 [0x37] UPDATE_EVENT_POSITION_AND_DIR: x=-372.671*, z=20.734*, y=31.999*, direction=174.4°*
  1: 0x0121 [0x00] END_REQSTACK()
```

### Event 65535.23

#### Metadata

| Field        | Value    |
|--------------|----------|
| Entrypoint   | 0x0122   |
| Data Size    | 10 bytes |
| Instructions | 2        |

```
      00 01 02 03 04 05 06 07  08 09 0A 0B 0C 0D 0E 0F
      -- -- -- -- -- -- -- --  -- -- -- -- -- -- -- --
0120:       37 44 80 45 80 46  80 47 80 00                7D.E.F.G..    
```

#### Opcodes

```
  0: 0x0122 [0x37] UPDATE_EVENT_POSITION_AND_DIR: x=-380.015*, z=332.402*, y=48.002*, direction=88.9°*
  1: 0x012B [0x00] END_REQSTACK()
```

### Event 65535.24

#### Metadata

| Field        | Value    |
|--------------|----------|
| Entrypoint   | 0x012C   |
| Data Size    | 32 bytes |
| Instructions | 8        |

```
      00 01 02 03 04 05 06 07  08 09 0A 0B 0C 0D 0E 0F
      -- -- -- -- -- -- -- --  -- -- -- -- -- -- -- --
0120:                                      32 17 80 1F              2...
0130: 00 48 80 49 80 4A 80 1F  01 27 10 B4 91 00 01 03  .H.I.J...'......
0140: 1F 00 4B 80 4C 80 4D 80  1F 01 6F 00              ..K.L.M...o.    
```

#### Opcodes

```
  0: 0x012C [0x32] ExtData[1]->MainSpeed = 11* * 0.1
  1: 0x012F [0x1F] MOVE_ENTITY: EventEntity moves to X=-379.966*, Z=329.477*, Y=47.991*
  2: 0x0137 [0x1F] MOVE_ENTITY: Update entity position (mode=1)
  3: 0x0139 [0x27] REQ_SET(priority=0x10, entity_id=Stone Door (ID: 16814516/0x010091B4), tag_num=0x03)
  4: 0x0140 [0x1F] MOVE_ENTITY: EventEntity moves to X=-379.885*, Z=324.171*, Y=48.000*
  5: 0x0148 [0x1F] MOVE_ENTITY: Update entity position (mode=1)
  6: 0x014A [0x6F] WAIT_FRAME_DELAY: Yield until WaitTime reaches zero
  7: 0x014B [0x00] END_REQSTACK()
```

### Event 52

#### Metadata

| Field        | Value    |
|--------------|----------|
| Entrypoint   | 0x014C   |
| Data Size    | 10 bytes |
| Instructions | 2        |

```
      00 01 02 03 04 05 06 07  08 09 0A 0B 0C 0D 0E 0F
      -- -- -- -- -- -- -- --  -- -- -- -- -- -- -- --
0140:                                      37 4E 80 4F              7N.O
0150: 80 50 80 51 80 00                                 .P.Q..          
```

#### Opcodes

```
  0: 0x014C [0x37] UPDATE_EVENT_POSITION_AND_DIR: x=-60.011*, z=27.387*, y=39.999*, direction=89.5°*
  1: 0x0155 [0x00] END_REQSTACK()
```

### Event 53

#### Metadata

| Field        | Value    |
|--------------|----------|
| Entrypoint   | 0x0156   |
| Data Size    | 13 bytes |
| Instructions | 3        |

```
      00 01 02 03 04 05 06 07  08 09 0A 0B 0C 0D 0E 0F
      -- -- -- -- -- -- -- --  -- -- -- -- -- -- -- --
0150:                   47 00  52 80 53 80 50 80 54 80        G.R.S.P.T.
0160: 47 01 00                                          G..             
```

#### Opcodes

```
  0: 0x0156 [0x47] UPDATE_PLAYER_POS(-59.911*, 21.066*, 39.999*, yaw=90.9°*)
  1: 0x0160 [0x47] WAIT_PLAYER_POS_UPDATE
  2: 0x0162 [0x00] END_REQSTACK()
```

### Event 54

#### Metadata

| Field        | Value    |
|--------------|----------|
| Entrypoint   | 0x0163   |
| Data Size    | 14 bytes |
| Instructions | 4        |

```
      00 01 02 03 04 05 06 07  08 09 0A 0B 0C 0D 0E 0F
      -- -- -- -- -- -- -- --  -- -- -- -- -- -- -- --
0160:          32 04 80 1F 00  52 80 53 80 50 80 1F 01     2....R.S.P...
0170: 00                                                .               
```

#### Opcodes

```
  0: 0x0163 [0x32] ExtData[1]->MainSpeed = 13* * 0.1
  1: 0x0166 [0x1F] MOVE_ENTITY: EventEntity moves to X=-59.911*, Z=21.066*, Y=39.999*
  2: 0x016E [0x1F] MOVE_ENTITY: Update entity position (mode=1)
  3: 0x0170 [0x00] END_REQSTACK()
```

### Event 55

#### Metadata

| Field        | Value    |
|--------------|----------|
| Entrypoint   | 0x0171   |
| Data Size    | 10 bytes |
| Instructions | 2        |

```
      00 01 02 03 04 05 06 07  08 09 0A 0B 0C 0D 0E 0F
      -- -- -- -- -- -- -- --  -- -- -- -- -- -- -- --
0170:    37 55 80 56 80 57 80  58 80 00                  7U.V.W.X..     
```

#### Opcodes

```
  0: 0x0171 [0x37] UPDATE_EVENT_POSITION_AND_DIR: x=-60.052*, z=22.528*, y=39.982*, direction=271.0°*
  1: 0x017A [0x00] END_REQSTACK()
```

### Event 56

#### Metadata

| Field        | Value    |
|--------------|----------|
| Entrypoint   | 0x017B   |
| Data Size    | 13 bytes |
| Instructions | 3        |

```
      00 01 02 03 04 05 06 07  08 09 0A 0B 0C 0D 0E 0F
      -- -- -- -- -- -- -- --  -- -- -- -- -- -- -- --
0170:                                   47 00 59 80 5A             G.Y.Z
0180: 80 57 80 5B 80 47 01 00                           .W.[.G..        
```

#### Opcodes

```
  0: 0x017B [0x47] UPDATE_PLAYER_POS(-59.998*, 28.967*, 39.982*, yaw=270.0°*)
  1: 0x0185 [0x47] WAIT_PLAYER_POS_UPDATE
  2: 0x0187 [0x00] END_REQSTACK()
```

### Event 57

#### Metadata

| Field        | Value    |
|--------------|----------|
| Entrypoint   | 0x0188   |
| Data Size    | 14 bytes |
| Instructions | 4        |

```
      00 01 02 03 04 05 06 07  08 09 0A 0B 0C 0D 0E 0F
      -- -- -- -- -- -- -- --  -- -- -- -- -- -- -- --
0180:                          32 04 80 1F 00 59 80 5A          2....Y.Z
0190: 80 57 80 1F 01 00                                 .W....          
```

#### Opcodes

```
  0: 0x0188 [0x32] ExtData[1]->MainSpeed = 13* * 0.1
  1: 0x018B [0x1F] MOVE_ENTITY: EventEntity moves to X=-59.998*, Z=28.967*, Y=39.982*
  2: 0x0193 [0x1F] MOVE_ENTITY: Update entity position (mode=1)
  3: 0x0195 [0x00] END_REQSTACK()
```

### Event 20

#### Metadata

| Field        | Value    |
|--------------|----------|
| Entrypoint   | 0x0196   |
| Data Size    | 53 bytes |
| Instructions | 15       |

```
      00 01 02 03 04 05 06 07  08 09 0A 0B 0C 0D 0E 0F
      -- -- -- -- -- -- -- --  -- -- -- -- -- -- -- --
0190:                   20 01  24 5C 80 38 80 5D 80 25         .$\.8.].%
01A0: 02 00 10 5D 80 00 BC 01  42 43 00 43 01 03 01 10  ...]....BC.C....
01B0: 38 80 29 01 F0 FF FF 7F  27 01 C7 01 02 00 10 38  8.).....'......8
01C0: 80 00 C7 01 01 C7 01 20  00 21 00                 ....... .!.     
```

#### Opcodes

```
  0: 0x0196 [0x20] SET_CLI_EVENT_UC_FLAG: Lock player control
  1: 0x0198 [0x24] CREATE_DIALOG(message_id=7270*, default_option=1*, option_flags=0*)
    → "Use the device? [Yes./No.]"
  2: 0x019F [0x25] WAIT_DIALOG_SELECT()
  3: 0x01A0 [0x02] IF !(Work_Zone[0] == 0*) GOTO 0x01BC
  4: 0x01A8 [0x42] SET_CLI_EVENT_CANCEL_DATA()
  5: 0x01A9 [0x43] SEND_EVENT_UPDATE: Send pending tag to server (packet 0x005B)
  6: 0x01AB [0x43] SEND_EVENT_UPDATE: Check pending flag (skip if not pending)
  7: 0x01AD [0x03] Work_Zone[1] = 1*
  8: 0x01B2 [0x29] REQ_SET_WAIT(priority=0x01, entity_id=LocalPlayer, tag_num=0x27)
  9: 0x01B9 [0x01] GOTO 0x01C7
 10: 0x01BC [0x02] IF !(Work_Zone[0] == 1*) GOTO 0x01C7
 11: 0x01C4 [0x01] GOTO 0x01C7

SUBROUTINE_01C7:
 12: 0x01C7 [0x20] SET_CLI_EVENT_UC_FLAG: Unlock player control
 13: 0x01C9 [0x21] END_EVENT
 14: 0x01CA [0x00] END_REQSTACK()
```

### Event 21

#### Metadata

| Field        | Value    |
|--------------|----------|
| Entrypoint   | 0x01CB   |
| Data Size    | 53 bytes |
| Instructions | 15       |

```
      00 01 02 03 04 05 06 07  08 09 0A 0B 0C 0D 0E 0F
      -- -- -- -- -- -- -- --  -- -- -- -- -- -- -- --
01C0:                                   20 01 24 5C 80              .$\.
01D0: 38 80 5D 80 25 02 00 10  5D 80 00 F1 01 42 43 00  8.].%...]....BC.
01E0: 43 01 03 01 10 38 80 29  01 F0 FF FF 7F 27 01 FC  C....8.).....'..
01F0: 01 02 00 10 38 80 00 FC  01 01 FC 01 20 00 21 00  ....8....... .!.
```

#### Opcodes

```
  0: 0x01CB [0x20] SET_CLI_EVENT_UC_FLAG: Lock player control
  1: 0x01CD [0x24] CREATE_DIALOG(message_id=7270*, default_option=1*, option_flags=0*)
    → "Use the device? [Yes./No.]"
  2: 0x01D4 [0x25] WAIT_DIALOG_SELECT()
  3: 0x01D5 [0x02] IF !(Work_Zone[0] == 0*) GOTO 0x01F1
  4: 0x01DD [0x42] SET_CLI_EVENT_CANCEL_DATA()
  5: 0x01DE [0x43] SEND_EVENT_UPDATE: Send pending tag to server (packet 0x005B)
  6: 0x01E0 [0x43] SEND_EVENT_UPDATE: Check pending flag (skip if not pending)
  7: 0x01E2 [0x03] Work_Zone[1] = 1*
  8: 0x01E7 [0x29] REQ_SET_WAIT(priority=0x01, entity_id=LocalPlayer, tag_num=0x27)
  9: 0x01EE [0x01] GOTO 0x01FC
 10: 0x01F1 [0x02] IF !(Work_Zone[0] == 1*) GOTO 0x01FC
 11: 0x01F9 [0x01] GOTO 0x01FC

SUBROUTINE_01FC:
 12: 0x01FC [0x20] SET_CLI_EVENT_UC_FLAG: Unlock player control
 13: 0x01FE [0x21] END_EVENT
 14: 0x01FF [0x00] END_REQSTACK()
```

### Event 22

#### Metadata

| Field        | Value    |
|--------------|----------|
| Entrypoint   | 0x0200   |
| Data Size    | 53 bytes |
| Instructions | 15       |

```
      00 01 02 03 04 05 06 07  08 09 0A 0B 0C 0D 0E 0F
      -- -- -- -- -- -- -- --  -- -- -- -- -- -- -- --
0200: 20 01 24 5C 80 38 80 5D  80 25 02 00 10 5D 80 00   .$\.8.].%...]..
0210: 26 02 42 43 00 43 01 03  01 10 38 80 29 01 F0 FF  &.BC.C....8.)...
0220: FF 7F 27 01 31 02 02 00  10 38 80 00 31 02 01 31  ..'.1....8..1..1
0230: 02 20 00 21 00                                    . .!.           
```

#### Opcodes

```
  0: 0x0200 [0x20] SET_CLI_EVENT_UC_FLAG: Lock player control
  1: 0x0202 [0x24] CREATE_DIALOG(message_id=7270*, default_option=1*, option_flags=0*)
    → "Use the device? [Yes./No.]"
  2: 0x0209 [0x25] WAIT_DIALOG_SELECT()
  3: 0x020A [0x02] IF !(Work_Zone[0] == 0*) GOTO 0x0226
  4: 0x0212 [0x42] SET_CLI_EVENT_CANCEL_DATA()
  5: 0x0213 [0x43] SEND_EVENT_UPDATE: Send pending tag to server (packet 0x005B)
  6: 0x0215 [0x43] SEND_EVENT_UPDATE: Check pending flag (skip if not pending)
  7: 0x0217 [0x03] Work_Zone[1] = 1*
  8: 0x021C [0x29] REQ_SET_WAIT(priority=0x01, entity_id=LocalPlayer, tag_num=0x27)
  9: 0x0223 [0x01] GOTO 0x0231
 10: 0x0226 [0x02] IF !(Work_Zone[0] == 1*) GOTO 0x0231
 11: 0x022E [0x01] GOTO 0x0231

SUBROUTINE_0231:
 12: 0x0231 [0x20] SET_CLI_EVENT_UC_FLAG: Unlock player control
 13: 0x0233 [0x21] END_EVENT
 14: 0x0234 [0x00] END_REQSTACK()
```

### Event 23

#### Metadata

| Field        | Value    |
|--------------|----------|
| Entrypoint   | 0x0235   |
| Data Size    | 53 bytes |
| Instructions | 15       |

```
      00 01 02 03 04 05 06 07  08 09 0A 0B 0C 0D 0E 0F
      -- -- -- -- -- -- -- --  -- -- -- -- -- -- -- --
0230:                20 01 24  5C 80 38 80 5D 80 25 02        .$\.8.].%.
0240: 00 10 5D 80 00 5B 02 42  43 00 43 01 03 01 10 38  ..]..[.BC.C....8
0250: 80 29 01 F0 FF FF 7F 27  01 66 02 02 00 10 38 80  .).....'.f....8.
0260: 00 66 02 01 66 02 20 00  21 00                    .f..f. .!.      
```

#### Opcodes

```
  0: 0x0235 [0x20] SET_CLI_EVENT_UC_FLAG: Lock player control
  1: 0x0237 [0x24] CREATE_DIALOG(message_id=7270*, default_option=1*, option_flags=0*)
    → "Use the device? [Yes./No.]"
  2: 0x023E [0x25] WAIT_DIALOG_SELECT()
  3: 0x023F [0x02] IF !(Work_Zone[0] == 0*) GOTO 0x025B
  4: 0x0247 [0x42] SET_CLI_EVENT_CANCEL_DATA()
  5: 0x0248 [0x43] SEND_EVENT_UPDATE: Send pending tag to server (packet 0x005B)
  6: 0x024A [0x43] SEND_EVENT_UPDATE: Check pending flag (skip if not pending)
  7: 0x024C [0x03] Work_Zone[1] = 1*
  8: 0x0251 [0x29] REQ_SET_WAIT(priority=0x01, entity_id=LocalPlayer, tag_num=0x27)
  9: 0x0258 [0x01] GOTO 0x0266
 10: 0x025B [0x02] IF !(Work_Zone[0] == 1*) GOTO 0x0266
 11: 0x0263 [0x01] GOTO 0x0266

SUBROUTINE_0266:
 12: 0x0266 [0x20] SET_CLI_EVENT_UC_FLAG: Unlock player control
 13: 0x0268 [0x21] END_EVENT
 14: 0x0269 [0x00] END_REQSTACK()
```

### Event 24

#### Metadata

| Field        | Value    |
|--------------|----------|
| Entrypoint   | 0x026A   |
| Data Size    | 53 bytes |
| Instructions | 15       |

```
      00 01 02 03 04 05 06 07  08 09 0A 0B 0C 0D 0E 0F
      -- -- -- -- -- -- -- --  -- -- -- -- -- -- -- --
0260:                                20 01 24 5C 80 38             .$\.8
0270: 80 5D 80 25 02 00 10 5D  80 00 90 02 42 43 00 43  .].%...]....BC.C
0280: 01 03 01 10 38 80 29 01  F0 FF FF 7F 27 01 9B 02  ....8.).....'...
0290: 02 00 10 38 80 00 9B 02  01 9B 02 20 00 21 00     ...8....... .!. 
```

#### Opcodes

```
  0: 0x026A [0x20] SET_CLI_EVENT_UC_FLAG: Lock player control
  1: 0x026C [0x24] CREATE_DIALOG(message_id=7270*, default_option=1*, option_flags=0*)
    → "Use the device? [Yes./No.]"
  2: 0x0273 [0x25] WAIT_DIALOG_SELECT()
  3: 0x0274 [0x02] IF !(Work_Zone[0] == 0*) GOTO 0x0290
  4: 0x027C [0x42] SET_CLI_EVENT_CANCEL_DATA()
  5: 0x027D [0x43] SEND_EVENT_UPDATE: Send pending tag to server (packet 0x005B)
  6: 0x027F [0x43] SEND_EVENT_UPDATE: Check pending flag (skip if not pending)
  7: 0x0281 [0x03] Work_Zone[1] = 1*
  8: 0x0286 [0x29] REQ_SET_WAIT(priority=0x01, entity_id=LocalPlayer, tag_num=0x27)
  9: 0x028D [0x01] GOTO 0x029B
 10: 0x0290 [0x02] IF !(Work_Zone[0] == 1*) GOTO 0x029B
 11: 0x0298 [0x01] GOTO 0x029B

SUBROUTINE_029B:
 12: 0x029B [0x20] SET_CLI_EVENT_UC_FLAG: Unlock player control
 13: 0x029D [0x21] END_EVENT
 14: 0x029E [0x00] END_REQSTACK()
```

### Event 25

#### Metadata

| Field        | Value    |
|--------------|----------|
| Entrypoint   | 0x029F   |
| Data Size    | 53 bytes |
| Instructions | 15       |

```
      00 01 02 03 04 05 06 07  08 09 0A 0B 0C 0D 0E 0F
      -- -- -- -- -- -- -- --  -- -- -- -- -- -- -- --
0290:                                               20                  
02A0: 01 24 5C 80 38 80 5D 80  25 02 00 10 5D 80 00 C5  .$\.8.].%...]...
02B0: 02 42 43 00 43 01 03 01  10 38 80 29 01 F0 FF FF  .BC.C....8.)....
02C0: 7F 27 01 D0 02 02 00 10  38 80 00 D0 02 01 D0 02  .'......8.......
02D0: 20 00 21 00                                        .!.            
```

#### Opcodes

```
  0: 0x029F [0x20] SET_CLI_EVENT_UC_FLAG: Lock player control
  1: 0x02A1 [0x24] CREATE_DIALOG(message_id=7270*, default_option=1*, option_flags=0*)
    → "Use the device? [Yes./No.]"
  2: 0x02A8 [0x25] WAIT_DIALOG_SELECT()
  3: 0x02A9 [0x02] IF !(Work_Zone[0] == 0*) GOTO 0x02C5
  4: 0x02B1 [0x42] SET_CLI_EVENT_CANCEL_DATA()
  5: 0x02B2 [0x43] SEND_EVENT_UPDATE: Send pending tag to server (packet 0x005B)
  6: 0x02B4 [0x43] SEND_EVENT_UPDATE: Check pending flag (skip if not pending)
  7: 0x02B6 [0x03] Work_Zone[1] = 1*
  8: 0x02BB [0x29] REQ_SET_WAIT(priority=0x01, entity_id=LocalPlayer, tag_num=0x27)
  9: 0x02C2 [0x01] GOTO 0x02D0
 10: 0x02C5 [0x02] IF !(Work_Zone[0] == 1*) GOTO 0x02D0
 11: 0x02CD [0x01] GOTO 0x02D0

SUBROUTINE_02D0:
 12: 0x02D0 [0x20] SET_CLI_EVENT_UC_FLAG: Unlock player control
 13: 0x02D2 [0x21] END_EVENT
 14: 0x02D3 [0x00] END_REQSTACK()
```

### Event 26

#### Metadata

| Field        | Value    |
|--------------|----------|
| Entrypoint   | 0x02D4   |
| Data Size    | 57 bytes |
| Instructions | 17       |

```
      00 01 02 03 04 05 06 07  08 09 0A 0B 0C 0D 0E 0F
      -- -- -- -- -- -- -- --  -- -- -- -- -- -- -- --
02D0:             20 01 48 5E  80 23 24 5F 80 38 80 5D       .H^.#$_.8.]
02E0: 80 25 02 00 10 5D 80 00  FE 02 42 43 00 43 01 03  .%...]....BC.C..
02F0: 01 10 38 80 29 01 F0 FF  FF 7F 27 01 09 03 02 00  ..8.).....'.....
0300: 10 38 80 00 09 03 01 09  03 20 00 21 00           .8....... .!.   
```

#### Opcodes

```
  0: 0x02D4 [0x20] SET_CLI_EVENT_UC_FLAG: Lock player control
  1: 0x02D6 [0x48] [System] [7263*]:
    → "A potent field of magic exists beyond the door. You sense that simply touching the door will transport you elsewhere."
  2: 0x02D9 [0x23] WAIT_FOR_DIALOG_INTERACTION
  3: 0x02DA [0x24] CREATE_DIALOG(message_id=7274*, default_option=1*, option_flags=0*)
    → "Touch the door? [Yes./No.]"
  4: 0x02E1 [0x25] WAIT_DIALOG_SELECT()
  5: 0x02E2 [0x02] IF !(Work_Zone[0] == 0*) GOTO 0x02FE
  6: 0x02EA [0x42] SET_CLI_EVENT_CANCEL_DATA()
  7: 0x02EB [0x43] SEND_EVENT_UPDATE: Send pending tag to server (packet 0x005B)
  8: 0x02ED [0x43] SEND_EVENT_UPDATE: Check pending flag (skip if not pending)
  9: 0x02EF [0x03] Work_Zone[1] = 1*
 10: 0x02F4 [0x29] REQ_SET_WAIT(priority=0x01, entity_id=LocalPlayer, tag_num=0x27)
 11: 0x02FB [0x01] GOTO 0x0309
 12: 0x02FE [0x02] IF !(Work_Zone[0] == 1*) GOTO 0x0309
 13: 0x0306 [0x01] GOTO 0x0309

SUBROUTINE_0309:
 14: 0x0309 [0x20] SET_CLI_EVENT_UC_FLAG: Unlock player control
 15: 0x030B [0x21] END_EVENT
 16: 0x030C [0x00] END_REQSTACK()
```

### Event 30

#### Metadata

| Field        | Value    |
|--------------|----------|
| Entrypoint   | 0x030D   |
| Data Size    | 41 bytes |
| Instructions | 5        |

```
      00 01 02 03 04 05 06 07  08 09 0A 0B 0C 0D 0E 0F
      -- -- -- -- -- -- -- --  -- -- -- -- -- -- -- --
0300:                                         62 38 80               b8.
0310: F0 FF FF 7F F0 FF FF 7F  6D 61 69 6E 5D 80 1C 60  ........main]..`
0320: 80 45 61 80 F0 FF FF 7F  F0 FF FF 7F 66 64 6F 31  .Ea.........fdo1
0330: 5D 80 1C 62 80 00                                 ]..b..          
```

#### Opcodes

```
  0: 0x030D [0x62] LOAD_EVENT_SCHEDULER: Load scheduler "main" with entities [LocalPlayer, LocalPlayer], work=[1*, 0*]
  1: 0x031E [0x1C] WAIT(140* ticks)
  2: 0x0321 [0x45] LOAD_SCHEDULED_TASK: Load scheduler "fdo1" with entities [LocalPlayer, LocalPlayer], work=[200*, 0*]
  3: 0x0332 [0x1C] WAIT(60* ticks)
  4: 0x0335 [0x00] END_REQSTACK()
```

### Event 31

#### Metadata

| Field        | Value    |
|--------------|----------|
| Entrypoint   | 0x0336   |
| Data Size    | 38 bytes |
| Instructions | 4        |

```
      00 01 02 03 04 05 06 07  08 09 0A 0B 0C 0D 0E 0F
      -- -- -- -- -- -- -- --  -- -- -- -- -- -- -- --
0330:                   45 61  80 F0 FF FF 7F F0 FF FF        Ea........
0340: 7F 66 64 69 31 5D 80 62  63 80 F0 FF FF 7F F0 FF  .fdi1].bc.......
0350: FF 7F 6D 61 69 6E 5D 80  1C 64 80 00              ..main]..d..    
```

#### Opcodes

```
  0: 0x0336 [0x45] LOAD_SCHEDULED_TASK: Load scheduler "fdi1" with entities [LocalPlayer, LocalPlayer], work=[200*, 0*]
  1: 0x0347 [0x62] LOAD_EVENT_SCHEDULER: Load scheduler "main" with entities [LocalPlayer, LocalPlayer], work=[2*, 0*]
  2: 0x0358 [0x1C] WAIT(170* ticks)
  3: 0x035B [0x00] END_REQSTACK()
```

### Event 51

#### Metadata

| Field        | Value    |
|--------------|----------|
| Entrypoint   | 0x035C   |
| Data Size    | 10 bytes |
| Instructions | 2        |

```
      00 01 02 03 04 05 06 07  08 09 0A 0B 0C 0D 0E 0F
      -- -- -- -- -- -- -- --  -- -- -- -- -- -- -- --
0350:                                      37 65 80 66              7e.f
0360: 80 67 80 68 80 00                                 .g.h..          
```

#### Opcodes

```
  0: 0x035C [0x37] UPDATE_EVENT_POSITION_AND_DIR: x=-379.976*, z=333.171*, y=48.026*, direction=90.4°*
  1: 0x0365 [0x00] END_REQSTACK()
```

### Event 63

#### Metadata

| Field        | Value    |
|--------------|----------|
| Entrypoint   | 0x0366   |
| Data Size    | 10 bytes |
| Instructions | 2        |

```
      00 01 02 03 04 05 06 07  08 09 0A 0B 0C 0D 0E 0F
      -- -- -- -- -- -- -- --  -- -- -- -- -- -- -- --
0360:                   37 69  80 6A 80 6B 80 6C 80 00        7i.j.k.l..
```

#### Opcodes

```
  0: 0x0366 [0x37] UPDATE_EVENT_POSITION_AND_DIR: x=-330.029*, z=-259.533*, y=15.999*, direction=89.6°*
  1: 0x036F [0x00] END_REQSTACK()
```

### Event 64

#### Metadata

| Field        | Value    |
|--------------|----------|
| Entrypoint   | 0x0370   |
| Data Size    | 13 bytes |
| Instructions | 3        |

```
      00 01 02 03 04 05 06 07  08 09 0A 0B 0C 0D 0E 0F
      -- -- -- -- -- -- -- --  -- -- -- -- -- -- -- --
0370: 47 00 6D 80 6E 80 6B 80  6C 80 47 01 00           G.m.n.k.l.G..   
```

#### Opcodes

```
  0: 0x0370 [0x47] UPDATE_PLAYER_POS(-330.000*, -263.397*, 15.999*, yaw=89.6°*)
  1: 0x037A [0x47] WAIT_PLAYER_POS_UPDATE
  2: 0x037C [0x00] END_REQSTACK()
```

### Event 65

#### Metadata

| Field        | Value    |
|--------------|----------|
| Entrypoint   | 0x037D   |
| Data Size    | 14 bytes |
| Instructions | 4        |

```
      00 01 02 03 04 05 06 07  08 09 0A 0B 0C 0D 0E 0F
      -- -- -- -- -- -- -- --  -- -- -- -- -- -- -- --
0370:                                         32 04 80               2..
0380: 1F 00 6D 80 6E 80 6B 80  1F 01 00                 ..m.n.k....     
```

#### Opcodes

```
  0: 0x037D [0x32] ExtData[1]->MainSpeed = 13* * 0.1
  1: 0x0380 [0x1F] MOVE_ENTITY: EventEntity moves to X=-330.000*, Z=-263.397*, Y=15.999*
  2: 0x0388 [0x1F] MOVE_ENTITY: Update entity position (mode=1)
  3: 0x038A [0x00] END_REQSTACK()
```

### Event 66

#### Metadata

| Field        | Value    |
|--------------|----------|
| Entrypoint   | 0x038B   |
| Data Size    | 10 bytes |
| Instructions | 2        |

```
      00 01 02 03 04 05 06 07  08 09 0A 0B 0C 0D 0E 0F
      -- -- -- -- -- -- -- --  -- -- -- -- -- -- -- --
0380:                                   37 6F 80 70 80             7o.p.
0390: 5D 80 71 80 00                                    ].q..           
```

#### Opcodes

```
  0: 0x038B [0x37] UPDATE_EVENT_POSITION_AND_DIR: x=-310.015*, z=-236.472*, y=0.000*, direction=89.4°*
  1: 0x0394 [0x00] END_REQSTACK()
```

### Event 67

#### Metadata

| Field        | Value    |
|--------------|----------|
| Entrypoint   | 0x0395   |
| Data Size    | 13 bytes |
| Instructions | 3        |

```
      00 01 02 03 04 05 06 07  08 09 0A 0B 0C 0D 0E 0F
      -- -- -- -- -- -- -- --  -- -- -- -- -- -- -- --
0390:                47 00 72  80 73 80 5D 80 71 80 47       G.r.s.].q.G
03A0: 01 00                                             ..              
```

#### Opcodes

```
  0: 0x0395 [0x47] UPDATE_PLAYER_POS(-309.978*, -240.338*, 0.000*, yaw=89.4°*)
  1: 0x039F [0x47] WAIT_PLAYER_POS_UPDATE
  2: 0x03A1 [0x00] END_REQSTACK()
```

### Event 68

#### Metadata

| Field        | Value    |
|--------------|----------|
| Entrypoint   | 0x03A2   |
| Data Size    | 14 bytes |
| Instructions | 4        |

```
      00 01 02 03 04 05 06 07  08 09 0A 0B 0C 0D 0E 0F
      -- -- -- -- -- -- -- --  -- -- -- -- -- -- -- --
03A0:       32 04 80 1F 00 72  80 73 80 5D 80 1F 01 00    2....r.s.]....
```

#### Opcodes

```
  0: 0x03A2 [0x32] ExtData[1]->MainSpeed = 13* * 0.1
  1: 0x03A5 [0x1F] MOVE_ENTITY: EventEntity moves to X=-309.978*, Z=-240.338*, Y=0.000*
  2: 0x03AD [0x1F] MOVE_ENTITY: Update entity position (mode=1)
  3: 0x03AF [0x00] END_REQSTACK()
```

### Event 71

#### Metadata

| Field        | Value    |
|--------------|----------|
| Entrypoint   | 0x03B0   |
| Data Size    | 10 bytes |
| Instructions | 2        |

```
      00 01 02 03 04 05 06 07  08 09 0A 0B 0C 0D 0E 0F
      -- -- -- -- -- -- -- --  -- -- -- -- -- -- -- --
03B0: 37 74 80 75 80 5D 80 5B  80 00                    7t.u.].[..      
```

#### Opcodes

```
  0: 0x03B0 [0x37] UPDATE_EVENT_POSITION_AND_DIR: x=-329.953*, z=316.518*, y=0.000*, direction=270.0°*
  1: 0x03B9 [0x00] END_REQSTACK()
```

### Event 72

#### Metadata

| Field        | Value    |
|--------------|----------|
| Entrypoint   | 0x03BA   |
| Data Size    | 13 bytes |
| Instructions | 3        |

```
      00 01 02 03 04 05 06 07  08 09 0A 0B 0C 0D 0E 0F
      -- -- -- -- -- -- -- --  -- -- -- -- -- -- -- --
03B0:                                47 00 69 80 76 80            G.i.v.
03C0: 77 80 5B 80 47 01 00                              w.[.G..         
```

#### Opcodes

```
  0: 0x03BA [0x47] UPDATE_PLAYER_POS(-330.029*, 320.383*, -0.001*, yaw=270.0°*)
  1: 0x03C4 [0x47] WAIT_PLAYER_POS_UPDATE
  2: 0x03C6 [0x00] END_REQSTACK()
```

### Event 73

#### Metadata

| Field        | Value    |
|--------------|----------|
| Entrypoint   | 0x03C7   |
| Data Size    | 14 bytes |
| Instructions | 4        |

```
      00 01 02 03 04 05 06 07  08 09 0A 0B 0C 0D 0E 0F
      -- -- -- -- -- -- -- --  -- -- -- -- -- -- -- --
03C0:                      32  04 80 1F 00 69 80 76 80         2....i.v.
03D0: 77 80 1F 01 00                                    w....           
```

#### Opcodes

```
  0: 0x03C7 [0x32] ExtData[1]->MainSpeed = 13* * 0.1
  1: 0x03CA [0x1F] MOVE_ENTITY: EventEntity moves to X=-330.029*, Z=320.383*, Y=-0.001*
  2: 0x03D2 [0x1F] MOVE_ENTITY: Update entity position (mode=1)
  3: 0x03D4 [0x00] END_REQSTACK()
```

### Event 74

#### Metadata

| Field        | Value    |
|--------------|----------|
| Entrypoint   | 0x03D5   |
| Data Size    | 10 bytes |
| Instructions | 2        |

```
      00 01 02 03 04 05 06 07  08 09 0A 0B 0C 0D 0E 0F
      -- -- -- -- -- -- -- --  -- -- -- -- -- -- -- --
03D0:                37 69 80  76 80 77 80 78 80 00          7i.v.w.x.. 
```

#### Opcodes

```
  0: 0x03D5 [0x37] UPDATE_EVENT_POSITION_AND_DIR: x=-330.029*, z=320.383*, y=-0.001*, direction=90.0°*
  1: 0x03DE [0x00] END_REQSTACK()
```

### Event 75

#### Metadata

| Field        | Value    |
|--------------|----------|
| Entrypoint   | 0x03DF   |
| Data Size    | 13 bytes |
| Instructions | 3        |

```
      00 01 02 03 04 05 06 07  08 09 0A 0B 0C 0D 0E 0F
      -- -- -- -- -- -- -- --  -- -- -- -- -- -- -- --
03D0:                                               47                 G
03E0: 00 79 80 7A 80 5D 80 78  80 47 01 00              .y.z.].x.G..    
```

#### Opcodes

```
  0: 0x03DF [0x47] UPDATE_PLAYER_POS(-330.003*, 316.557*, 0.000*, yaw=90.0°*)
  1: 0x03E9 [0x47] WAIT_PLAYER_POS_UPDATE
  2: 0x03EB [0x00] END_REQSTACK()
```

### Event 76

#### Metadata

| Field        | Value    |
|--------------|----------|
| Entrypoint   | 0x03EC   |
| Data Size    | 14 bytes |
| Instructions | 4        |

```
      00 01 02 03 04 05 06 07  08 09 0A 0B 0C 0D 0E 0F
      -- -- -- -- -- -- -- --  -- -- -- -- -- -- -- --
03E0:                                      32 04 80 1F              2...
03F0: 00 79 80 7A 80 5D 80 1F  01 00                    .y.z.]....      
```

#### Opcodes

```
  0: 0x03EC [0x32] ExtData[1]->MainSpeed = 13* * 0.1
  1: 0x03EF [0x1F] MOVE_ENTITY: EventEntity moves to X=-330.003*, Z=316.557*, Y=0.000*
  2: 0x03F7 [0x1F] MOVE_ENTITY: Update entity position (mode=1)
  3: 0x03F9 [0x00] END_REQSTACK()
```

### Event 100

#### Metadata

| Field        | Value    |
|--------------|----------|
| Entrypoint   | 0x03FA   |
| Data Size    | 16 bytes |
| Instructions | 5        |

```
      00 01 02 03 04 05 06 07  08 09 0A 0B 0C 0D 0E 0F
      -- -- -- -- -- -- -- --  -- -- -- -- -- -- -- --
03F0:                                20 01 47 00 7B 80             .G.{.
0400: 7C 80 5D 80 7D 80 47 01  21 00                    |.].}.G.!.      
```

#### Opcodes

```
  0: 0x03FA [0x20] SET_CLI_EVENT_UC_FLAG: Lock player control
  1: 0x03FC [0x47] UPDATE_PLAYER_POS(363.362*, -20.045*, 0.000*, yaw=178.6°*)
  2: 0x0406 [0x47] WAIT_PLAYER_POS_UPDATE
  3: 0x0408 [0x21] END_EVENT
  4: 0x0409 [0x00] END_REQSTACK()
```

### Event 101

#### Metadata

| Field        | Value    |
|--------------|----------|
| Entrypoint   | 0x040A   |
| Data Size    | 16 bytes |
| Instructions | 5        |

```
      00 01 02 03 04 05 06 07  08 09 0A 0B 0C 0D 0E 0F
      -- -- -- -- -- -- -- --  -- -- -- -- -- -- -- --
0400:                                20 01 47 00 7E 80             .G.~.
0410: 7F 80 5D 80 80 80 47 01  21 00                    ..]...G.!.      
```

#### Opcodes

```
  0: 0x040A [0x20] SET_CLI_EVENT_UC_FLAG: Lock player control
  1: 0x040C [0x47] UPDATE_PLAYER_POS(220.171*, -317.596*, 0.000*, yaw=88.1°*)
  2: 0x0416 [0x47] WAIT_PLAYER_POS_UPDATE
  3: 0x0418 [0x21] END_EVENT
  4: 0x0419 [0x00] END_REQSTACK()
```

### Event 102

#### Metadata

| Field        | Value    |
|--------------|----------|
| Entrypoint   | 0x041A   |
| Data Size    | 16 bytes |
| Instructions | 5        |

```
      00 01 02 03 04 05 06 07  08 09 0A 0B 0C 0D 0E 0F
      -- -- -- -- -- -- -- --  -- -- -- -- -- -- -- --
0410:                                20 01 47 00 81 80             .G...
0420: 82 80 5D 80 83 80 47 01  21 00                    ..]...G.!.      
```

#### Opcodes

```
  0: 0x041A [0x20] SET_CLI_EVENT_UC_FLAG: Lock player control
  1: 0x041C [0x47] UPDATE_PLAYER_POS(180.049*, 277.234*, 0.000*, yaw=269.6°*)
  2: 0x0426 [0x47] WAIT_PLAYER_POS_UPDATE
  3: 0x0428 [0x21] END_EVENT
  4: 0x0429 [0x00] END_REQSTACK()
```

### Event 103

#### Metadata

| Field        | Value    |
|--------------|----------|
| Entrypoint   | 0x042A   |
| Data Size    | 16 bytes |
| Instructions | 5        |

```
      00 01 02 03 04 05 06 07  08 09 0A 0B 0C 0D 0E 0F
      -- -- -- -- -- -- -- --  -- -- -- -- -- -- -- --
0420:                                20 01 47 00 84 80             .G...
0430: 85 80 86 80 87 80 47 01  21 00                    ......G.!.      
```

#### Opcodes

```
  0: 0x042A [0x20] SET_CLI_EVENT_UC_FLAG: Lock player control
  1: 0x042C [0x47] UPDATE_PLAYER_POS(-277.579*, -260.139*, 16.000*, yaw=178.4°*)
  2: 0x0436 [0x47] WAIT_PLAYER_POS_UPDATE
  3: 0x0438 [0x21] END_EVENT
  4: 0x0439 [0x00] END_REQSTACK()
```

### Event 104

#### Metadata

| Field        | Value    |
|--------------|----------|
| Entrypoint   | 0x043A   |
| Data Size    | 16 bytes |
| Instructions | 5        |

```
      00 01 02 03 04 05 06 07  08 09 0A 0B 0C 0D 0E 0F
      -- -- -- -- -- -- -- --  -- -- -- -- -- -- -- --
0430:                                20 01 47 00 88 80             .G...
0440: 89 80 5D 80 8A 80 47 01  21 00                    ..]...G.!.      
```

#### Opcodes

```
  0: 0x043A [0x20] SET_CLI_EVENT_UC_FLAG: Lock player control
  1: 0x043C [0x47] UPDATE_PLAYER_POS(-180.115*, -42.467*, 0.000*, yaw=269.2°*)
  2: 0x0446 [0x47] WAIT_PLAYER_POS_UPDATE
  3: 0x0448 [0x21] END_EVENT
  4: 0x0449 [0x00] END_REQSTACK()
```

### Event 105

#### Metadata

| Field        | Value    |
|--------------|----------|
| Entrypoint   | 0x044A   |
| Data Size    | 16 bytes |
| Instructions | 5        |

```
      00 01 02 03 04 05 06 07  08 09 0A 0B 0C 0D 0E 0F
      -- -- -- -- -- -- -- --  -- -- -- -- -- -- -- --
0440:                                20 01 47 00 8B 80             .G...
0450: 8C 80 5D 80 8D 80 47 01  21 00                    ..]...G.!.      
```

#### Opcodes

```
  0: 0x044A [0x20] SET_CLI_EVENT_UC_FLAG: Lock player control
  1: 0x044C [0x47] UPDATE_PLAYER_POS(-300.005*, 237.469*, 0.000*, yaw=269.1°*)
  2: 0x0456 [0x47] WAIT_PLAYER_POS_UPDATE
  3: 0x0458 [0x21] END_EVENT
  4: 0x0459 [0x00] END_REQSTACK()
```

### Event 65535.25

#### Metadata

| Field        | Value    |
|--------------|----------|
| Entrypoint   | 0x045A   |
| Data Size    | 10 bytes |
| Instructions | 2        |

```
      00 01 02 03 04 05 06 07  08 09 0A 0B 0C 0D 0E 0F
      -- -- -- -- -- -- -- --  -- -- -- -- -- -- -- --
0450:                                37 8E 80 8F 80 42            7....B
0460: 80 90 80 00                                       ....            
```

#### Opcodes

```
  0: 0x045A [0x37] UPDATE_EVENT_POSITION_AND_DIR: x=283.043*, z=-59.991*, y=31.999*, direction=179.7°*
  1: 0x0463 [0x00] END_REQSTACK()
```

### Event 65535.26

#### Metadata

| Field        | Value    |
|--------------|----------|
| Entrypoint   | 0x0464   |
| Data Size    | 15 bytes |
| Instructions | 5        |

```
      00 01 02 03 04 05 06 07  08 09 0A 0B 0C 0D 0E 0F
      -- -- -- -- -- -- -- --  -- -- -- -- -- -- -- --
0460:             32 04 80 1F  00 91 80 92 80 42 80 1F      2........B..
0470: 01 6F 00                                          .o.             
```

#### Opcodes

```
  0: 0x0464 [0x32] ExtData[1]->MainSpeed = 13* * 0.1
  1: 0x0467 [0x1F] MOVE_ENTITY: EventEntity moves to X=275.988*, Z=-60.035*, Y=31.999*
  2: 0x046F [0x1F] MOVE_ENTITY: Update entity position (mode=1)
  3: 0x0471 [0x6F] WAIT_FRAME_DELAY: Yield until WaitTime reaches zero
  4: 0x0472 [0x00] END_REQSTACK()
```

### Event 65535.27

#### Metadata

| Field        | Value    |
|--------------|----------|
| Entrypoint   | 0x0473   |
| Data Size    | 10 bytes |
| Instructions | 2        |

```
      00 01 02 03 04 05 06 07  08 09 0A 0B 0C 0D 0E 0F
      -- -- -- -- -- -- -- --  -- -- -- -- -- -- -- --
0470:          37 93 80 94 80  02 80 47 80 00              7......G..   
```

#### Opcodes

```
  0: 0x0473 [0x37] UPDATE_EVENT_POSITION_AND_DIR: x=139.981*, z=-356.848*, y=47.999*, direction=88.9°*
  1: 0x047C [0x00] END_REQSTACK()
```

### Event 65535.28

#### Metadata

| Field        | Value    |
|--------------|----------|
| Entrypoint   | 0x047D   |
| Data Size    | 15 bytes |
| Instructions | 5        |

```
      00 01 02 03 04 05 06 07  08 09 0A 0B 0C 0D 0E 0F
      -- -- -- -- -- -- -- --  -- -- -- -- -- -- -- --
0470:                                         32 04 80               2..
0480: 1F 00 95 80 96 80 97 80  1F 01 6F 00              ..........o.    
```

#### Opcodes

```
  0: 0x047D [0x32] ExtData[1]->MainSpeed = 13* * 0.1
  1: 0x0480 [0x1F] MOVE_ENTITY: EventEntity moves to X=140.018*, Z=-364.001*, Y=48.069*
  2: 0x0488 [0x1F] MOVE_ENTITY: Update entity position (mode=1)
  3: 0x048A [0x6F] WAIT_FRAME_DELAY: Yield until WaitTime reaches zero
  4: 0x048B [0x00] END_REQSTACK()
```
