# Event 65535

## Metadata

| Field           | Value    |
|-----------------|----------|
| Event Index     | 4/9      |
| Offset          | 0x0063   |
| Data Size       | 62 bytes |
| Calculated Size | 62 bytes |
| Instructions    | 8        |

```
      00 01 02 03 04 05 06 07  08 09 0A 0B 0C 0D 0E 0F
      -- -- -- -- -- -- -- --  -- -- -- -- -- -- -- --
0060:          66 06 80 F8 FF  FF 7F F8 FF FF 7F 73 68     f..........sh
0070: 61 31 53 F8 FF FF 7F F8  FF FF 7F 73 68 61 31 1C  a1S........sha1.
0080: 09 80 45 0A 80 F0 FF FF  7F F0 FF FF 7F 78 30 30  ..E..........x00
0090: 62 04 80 32 0B 80 1F 00  0C 80 0D 80 0E 80 1F 01  b..2............
00A0: 00                                                .               
```

## Opcodes

```
  0: 0x0063 [0x66] LOAD_EXT_SCHEDULER_MAIN(work_offset=29*, entity1=EventEntity, entity2=EventEntity, action="sha1")
  1: 0x0072 [0x53] WAIT_SCHEDULER_TASK(entity1=EventEntity, entity2=EventEntity, action_id="sha1")
  2: 0x007F [0x1C] WAIT(60* ticks)
  3: 0x0082 [0x45] LOAD_SCHEDULED_TASK(work_offset1=223*, entity1=LocalPlayer, entity2=LocalPlayer, scheduler_id="x00b", work_offset2=0*)
  4: 0x0093 [0x32] ExtData[1]->MainSpeed = 13* * 0.1
  5: 0x0096 [0x1F] MOVE_ENTITY: EventEntity moves to X=51.906*, Z=-57.661*, Y=1.999*
  6: 0x009E [0x1F] MOVE_ENTITY: Update entity position (mode=1)
  7: 0x00A0 [0x00] END_REQSTACK()
```
