# 16794035 - Cherukiki

## Common Data

| Field            | Value              |
|------------------|--------------------|
| Zone             | Bibiki Bay (ID: 4) |
| Block Size       | 1140 bytes         |
| Total Events     | 36                 |
| References Count | 46                 |

## List of Events

| Event ID                   | Entrypoint   |   Size |   Instructions |
|----------------------------|--------------|--------|----------------|
| [65535](#event-65535)      | 0x0000       |      1 |              1 |
| [65535.1](#event-655351)   | 0x0001       |      1 |              1 |
| [65535.2](#event-655352)   | 0x0002       |     18 |              4 |
| [65535.3](#event-655353)   | 0x0014       |     10 |              2 |
| [65535.4](#event-655354)   | 0x001E       |      9 |              3 |
| [65535.5](#event-655355)   | 0x0027       |      9 |              3 |
| [65535.6](#event-655356)   | 0x0030       |     10 |              2 |
| [65535.7](#event-655357)   | 0x003A       |     10 |              2 |
| [43](#event-43)            | 0x0044       |     27 |              5 |
| [65535.8](#event-655358)   | 0x005F       |     25 |              8 |
| [65535.9](#event-655359)   | 0x0078       |     11 |              3 |
| [65535.10](#event-6553510) | 0x0083       |     35 |              9 |
| [65535.11](#event-6553511) | 0x00A6       |     20 |              6 |
| [65535.12](#event-6553512) | 0x00BA       |    129 |             21 |
| [65535.13](#event-6553513) | 0x013B       |     27 |              5 |
| [65535.14](#event-6553514) | 0x0156       |     28 |              8 |
| [65535.15](#event-6553515) | 0x0172       |     18 |              4 |
| [65535.16](#event-6553516) | 0x0184       |     23 |              7 |
| [65535.17](#event-6553517) | 0x019B       |     29 |              3 |
| [65535.18](#event-6553518) | 0x01B8       |     29 |              3 |
| [65535.19](#event-6553519) | 0x01D5       |     16 |              2 |
| [65535.20](#event-6553520) | 0x01E5       |     16 |              2 |
| [65535.21](#event-6553521) | 0x01F5       |     22 |              3 |
| [65535.22](#event-6553522) | 0x020B       |     16 |              2 |
| [65535.23](#event-6553523) | 0x021B       |     16 |              2 |
| [65535.24](#event-6553524) | 0x022B       |     29 |              3 |
| [65535.25](#event-6553525) | 0x0248       |     29 |              3 |
| [65535.26](#event-6553526) | 0x0265       |     29 |              3 |
| [65535.27](#event-6553527) | 0x0282       |     29 |              3 |
| [65535.28](#event-6553528) | 0x029F       |     29 |              3 |
| [65535.29](#event-6553529) | 0x02BC       |     16 |              2 |
| [65535.30](#event-6553530) | 0x02CC       |     16 |              2 |
| [65535.31](#event-6553531) | 0x02DC       |     16 |              2 |
| [65535.32](#event-6553532) | 0x02EC       |     16 |              2 |
| [65535.33](#event-6553533) | 0x02FC       |     16 |              2 |
| [65535.34](#event-6553534) | 0x030C       |     16 |              2 |

## DAT References (imed_data)

|   Index | Hex Value   |   Dec Value |
|---------|-------------|-------------|
|       0 | 0x0000      |           0 |
|       1 | 0x0001      |           1 |
|       2 | 0x0080      |         128 |
|       3 | 0xFFFADCAE  |  4294630574 |
|       4 | 0xFFF154C7  |  4294005959 |
|       5 | 0xFFFFF5D0  |  4294964688 |
|       6 | 0x05B9      |        1465 |
|       7 | 0xFFFFF448  |  4294964296 |
|       8 | 0x0BB8      |        3000 |
|       9 | 0x0028      |          40 |
|      10 | 0xFFFAE838  |  4294633528 |
|      11 | 0xFFF18AFD  |  4294019837 |
|      12 | 0xFFFFF88A  |  4294965386 |
|      13 | 0xFFFAC7F9  |  4294625273 |
|      14 | 0xFFF19353  |  4294021971 |
|      15 | 0xFFFFF8FF  |  4294965503 |
|      16 | 0x0830      |        2096 |
|      17 | 0x14B4      |        5300 |
|      18 | 0x054D      |        1357 |
|      19 | 0xFFFAB087  |  4294619271 |
|      20 | 0xFFF18050  |  4294017104 |
|      21 | 0xFFFFF576  |  4294964598 |
|      22 | 0xFFFAAE3C  |  4294618684 |
|      23 | 0xFFF177AE  |  4294014894 |
|      24 | 0xFFFFF47A  |  4294964346 |
|      25 | 0x005A      |          90 |
|      26 | 0x000A      |          10 |
|      27 | 0x02D6      |         726 |
|      28 | 0xFFFAC8E8  |  4294625512 |
|      29 | 0xFFF16993  |  4294011283 |
|      30 | 0xFFFFF5B8  |  4294964664 |
|      31 | 0xFFFFEC78  |  4294962296 |
|      32 | 0x1388      |        5000 |
|      33 | 0x0800      |        2048 |
|      34 | 0xC350      |       50000 |
|      35 | 0x01AF      |         431 |
|      36 | 0x0151      |         337 |
|      37 | 0x01B2      |         434 |
|      38 | 0x01BC      |         444 |
|      39 | 0x0150      |         336 |
|      40 | 0x01B1      |         433 |
|      41 | 0x02D5      |         725 |
|      42 | 0x0155      |         341 |
|      43 | 0x0154      |         340 |
|      44 | 0x0145      |         325 |
|      45 | 0x0153      |         339 |

## Events

### Event 65535

#### Metadata

| Field        | Value   |
|--------------|---------|
| Entrypoint   | 0x0000  |
| Data Size    | 1 bytes |
| Instructions | 1       |

```
      00 01 02 03 04 05 06 07  08 09 0A 0B 0C 0D 0E 0F
      -- -- -- -- -- -- -- --  -- -- -- -- -- -- -- --
0000: 00                                                .               
```

#### Opcodes

```
  0: 0x0000 [0x00] END_REQSTACK()
```

### Event 65535.1

#### Metadata

| Field        | Value   |
|--------------|---------|
| Entrypoint   | 0x0001  |
| Data Size    | 1 bytes |
| Instructions | 1       |

```
      00 01 02 03 04 05 06 07  08 09 0A 0B 0C 0D 0E 0F
      -- -- -- -- -- -- -- --  -- -- -- -- -- -- -- --
0000:    00                                              .              
```

#### Opcodes

```
  0: 0x0001 [0x00] END_REQSTACK()
```

### Event 65535.2

#### Metadata

| Field        | Value    |
|--------------|----------|
| Entrypoint   | 0x0002   |
| Data Size    | 18 bytes |
| Instructions | 4        |

```
      00 01 02 03 04 05 06 07  08 09 0A 0B 0C 0D 0E 0F
      -- -- -- -- -- -- -- --  -- -- -- -- -- -- -- --
0000:       22 00 2F 00 F8 FF  FF 7F 6C F8 FF FF 7F 00    "./.....l.....
0010: 80 01 80 00                                       ....            
```

#### Opcodes

```
  0: 0x0002 [0x22] ENTITY_HIDE_FLAG(enabled=0x00)
  1: 0x0004 [0x2F] EventEntity->Render.Flags0 &= ~0x80000 // Bit 19
  2: 0x000A [0x6C] FADE_ENTITY_COLOR(entity_id=EventEntity, end_alpha=0*, fade_time=1*)
  3: 0x0013 [0x00] END_REQSTACK()
```

### Event 65535.3

#### Metadata

| Field        | Value    |
|--------------|----------|
| Entrypoint   | 0x0014   |
| Data Size    | 10 bytes |
| Instructions | 2        |

```
      00 01 02 03 04 05 06 07  08 09 0A 0B 0C 0D 0E 0F
      -- -- -- -- -- -- -- --  -- -- -- -- -- -- -- --
0010:             6C F8 FF FF  7F 02 80 01 80 00            l.........  
```

#### Opcodes

```
  0: 0x0014 [0x6C] FADE_ENTITY_COLOR(entity_id=EventEntity, end_alpha=128*, fade_time=1*)
  1: 0x001D [0x00] END_REQSTACK()
```

### Event 65535.4

#### Metadata

| Field        | Value   |
|--------------|---------|
| Entrypoint   | 0x001E  |
| Data Size    | 9 bytes |
| Instructions | 3       |

```
      00 01 02 03 04 05 06 07  08 09 0A 0B 0C 0D 0E 0F
      -- -- -- -- -- -- -- --  -- -- -- -- -- -- -- --
0010:                                            22 00                ".
0020: 2F 00 F8 FF FF 7F 00                              /......         
```

#### Opcodes

```
  0: 0x001E [0x22] ENTITY_HIDE_FLAG(enabled=0x00)
  1: 0x0020 [0x2F] EventEntity->Render.Flags0 &= ~0x80000 // Bit 19
  2: 0x0026 [0x00] END_REQSTACK()
```

### Event 65535.5

#### Metadata

| Field        | Value   |
|--------------|---------|
| Entrypoint   | 0x0027  |
| Data Size    | 9 bytes |
| Instructions | 3       |

```
      00 01 02 03 04 05 06 07  08 09 0A 0B 0C 0D 0E 0F
      -- -- -- -- -- -- -- --  -- -- -- -- -- -- -- --
0020:                      22  01 2F 01 F8 FF FF 7F 00         "./......
```

#### Opcodes

```
  0: 0x0027 [0x22] ENTITY_HIDE_FLAG(enabled=0x01)
  1: 0x0029 [0x2F] EventEntity->Render.Flags0 |= 0x80000 // Bit 19
  2: 0x002F [0x00] END_REQSTACK()
```

### Event 65535.6

#### Metadata

| Field        | Value    |
|--------------|----------|
| Entrypoint   | 0x0030   |
| Data Size    | 10 bytes |
| Instructions | 2        |

```
      00 01 02 03 04 05 06 07  08 09 0A 0B 0C 0D 0E 0F
      -- -- -- -- -- -- -- --  -- -- -- -- -- -- -- --
0030: 6C F8 FF FF 7F 00 80 01  80 00                    l.........      
```

#### Opcodes

```
  0: 0x0030 [0x6C] FADE_ENTITY_COLOR(entity_id=EventEntity, end_alpha=0*, fade_time=1*)
  1: 0x0039 [0x00] END_REQSTACK()
```

### Event 65535.7

#### Metadata

| Field        | Value    |
|--------------|----------|
| Entrypoint   | 0x003A   |
| Data Size    | 10 bytes |
| Instructions | 2        |

```
      00 01 02 03 04 05 06 07  08 09 0A 0B 0C 0D 0E 0F
      -- -- -- -- -- -- -- --  -- -- -- -- -- -- -- --
0030:                                6C F8 FF FF 7F 02            l.....
0040: 80 01 80 00                                       ....            
```

#### Opcodes

```
  0: 0x003A [0x6C] FADE_ENTITY_COLOR(entity_id=EventEntity, end_alpha=128*, fade_time=1*)
  1: 0x0043 [0x00] END_REQSTACK()
```

### Event 43

#### Metadata

| Field        | Value    |
|--------------|----------|
| Entrypoint   | 0x0044   |
| Data Size    | 27 bytes |
| Instructions | 5        |

```
      00 01 02 03 04 05 06 07  08 09 0A 0B 0C 0D 0E 0F
      -- -- -- -- -- -- -- --  -- -- -- -- -- -- -- --
0040:             37 03 80 04  80 05 80 06 80 03 00 00      7...........
0050: 07 80 1A F7 00 37 01 00  02 00 03 00 04 00 00     .....7......... 
```

#### Opcodes

```
  0: 0x0044 [0x37] UPDATE_EVENT_POSITION_AND_DIR: x=-336.722*, z=-961.337*, y=-2.608*, direction=128.8°*
  1: 0x004D [0x03] ExtData[1]->WorkLocal[0] = 4294964296*
  2: 0x0052 [0x1A] CALL_SUBROUTINE(address=0x00F7)
  3: 0x0055 [0x37] UPDATE_EVENT_POSITION_AND_DIR: x=ExtData[1]->WorkLocal[1], z=ExtData[1]->WorkLocal[2], y=ExtData[1]->WorkLocal[3], direction=ExtData[1]->WorkLocal[4]
  4: 0x005E [0x00] END_REQSTACK()
```

### Event 65535.8

#### Metadata

| Field        | Value    |
|--------------|----------|
| Entrypoint   | 0x005F   |
| Data Size    | 25 bytes |
| Instructions | 8        |

```
      00 01 02 03 04 05 06 07  08 09 0A 0B 0C 0D 0E 0F
      -- -- -- -- -- -- -- --  -- -- -- -- -- -- -- --
0050:                                               A4                 .
0060: 01 03 00 00 08 80 1A F7  00 32 09 80 1F 00 01 00  .........2......
0070: 02 00 03 00 1F 01 6F 00                           ......o.        
```

#### Opcodes

```
  0: 0x005F [0xA4] EventEntity->Flags3.unknown_3_2 = 1
  1: 0x0061 [0x03] ExtData[1]->WorkLocal[0] = 3000*
  2: 0x0066 [0x1A] CALL_SUBROUTINE(address=0x00F7)
  3: 0x0069 [0x32] ExtData[1]->MainSpeed = 40* * 0.1
  4: 0x006C [0x1F] MOVE_ENTITY: EventEntity moves to X=ExtData[1]->WorkLocal[1], Z=ExtData[1]->WorkLocal[2], Y=ExtData[1]->WorkLocal[3]
  5: 0x0074 [0x1F] MOVE_ENTITY: Update entity position (mode=1)
  6: 0x0076 [0x6F] WAIT_FRAME_DELAY: Yield until WaitTime reaches zero
  7: 0x0077 [0x00] END_REQSTACK()
```

### Event 65535.9

#### Metadata

| Field        | Value    |
|--------------|----------|
| Entrypoint   | 0x0078   |
| Data Size    | 11 bytes |
| Instructions | 3        |

```
      00 01 02 03 04 05 06 07  08 09 0A 0B 0C 0D 0E 0F
      -- -- -- -- -- -- -- --  -- -- -- -- -- -- -- --
0070:                          1F 00 0A 80 0B 80 0C 80          ........
0080: 1F 01 00                                          ...             
```

#### Opcodes

```
  0: 0x0078 [0x1F] MOVE_ENTITY: EventEntity moves to X=-333.768*, Z=-947.459*, Y=-1.910*
  1: 0x0080 [0x1F] MOVE_ENTITY: Update entity position (mode=1)
  2: 0x0082 [0x00] END_REQSTACK()
```

### Event 65535.10

#### Metadata

| Field        | Value    |
|--------------|----------|
| Entrypoint   | 0x0083   |
| Data Size    | 35 bytes |
| Instructions | 9        |

```
      00 01 02 03 04 05 06 07  08 09 0A 0B 0C 0D 0E 0F
      -- -- -- -- -- -- -- --  -- -- -- -- -- -- -- --
0080:          37 0D 80 0E 80  0F 80 10 80 03 00 00 11     7............
0090: 80 1A F7 00 32 09 80 1F  00 01 00 02 00 03 00 1F  ....2...........
00A0: 01 6F 39 12 80 00                                 .o9...          
```

#### Opcodes

```
  0: 0x0083 [0x37] UPDATE_EVENT_POSITION_AND_DIR: x=-342.023*, z=-945.325*, y=-1.793*, direction=184.2°*
  1: 0x008C [0x03] ExtData[1]->WorkLocal[0] = 5300*
  2: 0x0091 [0x1A] CALL_SUBROUTINE(address=0x00F7)
  3: 0x0094 [0x32] ExtData[1]->MainSpeed = 40* * 0.1
  4: 0x0097 [0x1F] MOVE_ENTITY: EventEntity moves to X=ExtData[1]->WorkLocal[1], Z=ExtData[1]->WorkLocal[2], Y=ExtData[1]->WorkLocal[3]
  5: 0x009F [0x1F] MOVE_ENTITY: Update entity position (mode=1)
  6: 0x00A1 [0x6F] WAIT_FRAME_DELAY: Yield until WaitTime reaches zero
  7: 0x00A2 [0x39] SET_ENTITY_DIRECTION(direction=7.5°*)
  8: 0x00A5 [0x00] END_REQSTACK()
```

### Event 65535.11

#### Metadata

| Field        | Value    |
|--------------|----------|
| Entrypoint   | 0x00A6   |
| Data Size    | 20 bytes |
| Instructions | 6        |

```
      00 01 02 03 04 05 06 07  08 09 0A 0B 0C 0D 0E 0F
      -- -- -- -- -- -- -- --  -- -- -- -- -- -- -- --
00A0:                   32 09  80 1F 00 13 80 14 80 15        2.........
00B0: 80 1F 01 6F 1E 92 41 00  01 00                    ...o..A...      
```

#### Opcodes

```
  0: 0x00A6 [0x32] ExtData[1]->MainSpeed = 40* * 0.1
  1: 0x00A9 [0x1F] MOVE_ENTITY: EventEntity moves to X=-348.025*, Z=-950.192*, Y=-2.698*
  2: 0x00B1 [0x1F] MOVE_ENTITY: Update entity position (mode=1)
  3: 0x00B3 [0x6F] WAIT_FRAME_DELAY: Yield until WaitTime reaches zero
  4: 0x00B4 [0x1E] EventEntity looks at Vukki-Chebukki (ID: 16794002/0x01004192) and starts talking
  5: 0x00B9 [0x00] END_REQSTACK()
```

### Event 65535.12

#### Metadata

| Field        | Value     |
|--------------|-----------|
| Entrypoint   | 0x00BA    |
| Data Size    | 129 bytes |
| Instructions | 9         |

```
      00 01 02 03 04 05 06 07  08 09 0A 0B 0C 0D 0E 0F
      -- -- -- -- -- -- -- --  -- -- -- -- -- -- -- --
00B0:                                31 00 16 80 17 80            1.....
00C0: 18 80 19 80 31 01 3B 92  41 00 01 01 00 02 00 03  ....1.;.A.......
00D0: 00 3A 92 41 00 01 04 00  32 09 80 37 01 00 02 00  .:.A....2..7....
00E0: 03 00 04 00 1C 1A 80 5B  1B 80 F8 FF FF 7F F8 FF  .......[........
00F0: FF 7F 61 75 30 32 00 3B  F8 FF FF 7F 01 00 02 00  ..au02.;........
0100: 03 00 3A F8 FF FF 7F 04  00 17 05 00 04 00 00 00  ..:.............
0110: 16 06 00 04 00 00 00 07  01 00 05 00 07 02 00 06  ................
0120: 00 1B 17 05 00 04 00 00  00 16 06 00 04 00 00 00  ................
0130: 07 01 00 05 00 07 02 00  06 00 1B                 ...........     
```

#### Opcodes

```
  0: 0x00BA [0x31] UPDATE_ENTITY_POSITION: Set EventEntity goal position to X=-348.612*, Z=-952.402*, Y=-2.950*, Time=90*
  1: 0x00C4 [0x31] UPDATE_ENTITY_POSITION: Move EventEntity towards goal position
  2: 0x00C6 [0x3B] GET_ENTITY_POSITION(entity=Vukki-Chebukki (ID: 16794002/0x01004192), x_destination=ExtData[1]->WorkLocal[1], y_destination=ExtData[1]->WorkLocal[2], z_destination=ExtData[1]->WorkLocal[3])
  3: 0x00D1 [0x3A] CONVERT_YAW_TO_BYTE(entity=Vukki-Chebukki (ID: 16794002/0x01004192), result_destination=ExtData[1]->WorkLocal[4])
  4: 0x00D8 [0x32] ExtData[1]->MainSpeed = 40* * 0.1
  5: 0x00DB [0x37] UPDATE_EVENT_POSITION_AND_DIR: x=ExtData[1]->WorkLocal[1], z=ExtData[1]->WorkLocal[2], y=ExtData[1]->WorkLocal[3], direction=ExtData[1]->WorkLocal[4]
  6: 0x00E4 [0x1C] WAIT(10* ticks)
  7: 0x00E7 [0x5B] LOAD_EXT_SCHEDULER: Load scheduler "au02" with entities [EventEntity, EventEntity], work=726*
  8: 0x00F6 [0x00] END_REQSTACK()
```

#### Data or dead code:

```
# Dead code (unreachable instructions):
     0x00F7 [0x3B] GET_ENTITY_POSITION(entity=EventEntity, x_destination=ExtData[1]->WorkLocal[1], y_destination=ExtData[1]->WorkLocal[2], z_destination=ExtData[1]->WorkLocal[3])
     0x0102 [0x3A] CONVERT_YAW_TO_BYTE(entity=EventEntity, result_destination=ExtData[1]->WorkLocal[4])
     0x0109 [0x17] ExtData[1]->WorkLocal[5] = cos(ExtData[1]->WorkLocal[4]) * ExtData[1]->WorkLocal[0]
     0x0110 [0x16] ExtData[1]->WorkLocal[6] = sin(ExtData[1]->WorkLocal[4]) * ExtData[1]->WorkLocal[0]
     0x0117 [0x07] ExtData[1]->WorkLocal[1] += ExtData[1]->WorkLocal[5]
     0x011C [0x07] ExtData[1]->WorkLocal[2] += ExtData[1]->WorkLocal[6]
     0x0121 [0x1B] RETURN
     0x0122 [0x17] ExtData[1]->WorkLocal[5] = cos(ExtData[1]->WorkLocal[4]) * ExtData[1]->WorkLocal[0]
     0x0129 [0x16] ExtData[1]->WorkLocal[6] = sin(ExtData[1]->WorkLocal[4]) * ExtData[1]->WorkLocal[0]
     0x0130 [0x07] ExtData[1]->WorkLocal[1] += ExtData[1]->WorkLocal[5]
     0x0135 [0x07] ExtData[1]->WorkLocal[2] += ExtData[1]->WorkLocal[6]
     0x013A [0x1B] RETURN
```

### Event 65535.13

#### Metadata

| Field        | Value    |
|--------------|----------|
| Entrypoint   | 0x013B   |
| Data Size    | 27 bytes |
| Instructions | 5        |

```
      00 01 02 03 04 05 06 07  08 09 0A 0B 0C 0D 0E 0F
      -- -- -- -- -- -- -- --  -- -- -- -- -- -- -- --
0130:                                   37 1C 80 1D 80             7....
0140: 1E 80 00 80 03 00 00 1F  80 1A F7 00 37 01 00 02  ............7...
0150: 00 03 00 04 00 00                                 ......          
```

#### Opcodes

```
  0: 0x013B [0x37] UPDATE_EVENT_POSITION_AND_DIR: x=-341.784*, z=-956.013*, y=-2.632*, direction=0.0°*
  1: 0x0144 [0x03] ExtData[1]->WorkLocal[0] = 4294962296*
  2: 0x0149 [0x1A] CALL_SUBROUTINE(address=0x00F7)
  3: 0x014C [0x37] UPDATE_EVENT_POSITION_AND_DIR: x=ExtData[1]->WorkLocal[1], z=ExtData[1]->WorkLocal[2], y=ExtData[1]->WorkLocal[3], direction=ExtData[1]->WorkLocal[4]
  4: 0x0155 [0x00] END_REQSTACK()
```

### Event 65535.14

#### Metadata

| Field        | Value    |
|--------------|----------|
| Entrypoint   | 0x0156   |
| Data Size    | 28 bytes |
| Instructions | 8        |

```
      00 01 02 03 04 05 06 07  08 09 0A 0B 0C 0D 0E 0F
      -- -- -- -- -- -- -- --  -- -- -- -- -- -- -- --
0150:                   03 00  00 20 80 1A F7 00 32 09        ... ....2.
0160: 80 1F 00 01 00 02 00 03  00 1F 01 6F 1E F0 FF FF  ...........o....
0170: 7F 00                                             ..              
```

#### Opcodes

```
  0: 0x0156 [0x03] ExtData[1]->WorkLocal[0] = 5000*
  1: 0x015B [0x1A] CALL_SUBROUTINE(address=0x00F7)
  2: 0x015E [0x32] ExtData[1]->MainSpeed = 40* * 0.1
  3: 0x0161 [0x1F] MOVE_ENTITY: EventEntity moves to X=ExtData[1]->WorkLocal[1], Z=ExtData[1]->WorkLocal[2], Y=ExtData[1]->WorkLocal[3]
  4: 0x0169 [0x1F] MOVE_ENTITY: Update entity position (mode=1)
  5: 0x016B [0x6F] WAIT_FRAME_DELAY: Yield until WaitTime reaches zero
  6: 0x016C [0x1E] EventEntity looks at LocalPlayer and starts talking
  7: 0x0171 [0x00] END_REQSTACK()
```

### Event 65535.15

#### Metadata

| Field        | Value    |
|--------------|----------|
| Entrypoint   | 0x0172   |
| Data Size    | 18 bytes |
| Instructions | 4        |

```
      00 01 02 03 04 05 06 07  08 09 0A 0B 0C 0D 0E 0F
      -- -- -- -- -- -- -- --  -- -- -- -- -- -- -- --
0170:       03 00 00 00 80 1A  F7 00 37 01 00 02 00 03    ........7.....
0180: 00 21 80 00                                       .!..            
```

#### Opcodes

```
  0: 0x0172 [0x03] ExtData[1]->WorkLocal[0] = 0*
  1: 0x0177 [0x1A] CALL_SUBROUTINE(address=0x00F7)
  2: 0x017A [0x37] UPDATE_EVENT_POSITION_AND_DIR: x=ExtData[1]->WorkLocal[1], z=ExtData[1]->WorkLocal[2], y=ExtData[1]->WorkLocal[3], direction=180.0°*
  3: 0x0183 [0x00] END_REQSTACK()
```

### Event 65535.16

#### Metadata

| Field        | Value    |
|--------------|----------|
| Entrypoint   | 0x0184   |
| Data Size    | 23 bytes |
| Instructions | 7        |

```
      00 01 02 03 04 05 06 07  08 09 0A 0B 0C 0D 0E 0F
      -- -- -- -- -- -- -- --  -- -- -- -- -- -- -- --
0180:             03 00 00 22  80 1A F7 00 32 09 80 1F      ..."....2...
0190: 00 01 00 02 00 03 00 1F  01 6F 00                 .........o.     
```

#### Opcodes

```
  0: 0x0184 [0x03] ExtData[1]->WorkLocal[0] = 50000*
  1: 0x0189 [0x1A] CALL_SUBROUTINE(address=0x00F7)
  2: 0x018C [0x32] ExtData[1]->MainSpeed = 40* * 0.1
  3: 0x018F [0x1F] MOVE_ENTITY: EventEntity moves to X=ExtData[1]->WorkLocal[1], Z=ExtData[1]->WorkLocal[2], Y=ExtData[1]->WorkLocal[3]
  4: 0x0197 [0x1F] MOVE_ENTITY: Update entity position (mode=1)
  5: 0x0199 [0x6F] WAIT_FRAME_DELAY: Yield until WaitTime reaches zero
  6: 0x019A [0x00] END_REQSTACK()
```

### Event 65535.17

#### Metadata

| Field        | Value    |
|--------------|----------|
| Entrypoint   | 0x019B   |
| Data Size    | 29 bytes |
| Instructions | 3        |

```
      00 01 02 03 04 05 06 07  08 09 0A 0B 0C 0D 0E 0F
      -- -- -- -- -- -- -- --  -- -- -- -- -- -- -- --
0190:                                   5B 23 80 F8 FF             [#...
01A0: FF 7F F8 FF FF 7F 64 66  63 30 53 F8 FF FF 7F F8  ......dfc0S.....
01B0: FF FF 7F 64 66 63 30 00                           ...dfc0.        
```

#### Opcodes

```
  0: 0x019B [0x5B] LOAD_EXT_SCHEDULER: Load scheduler "dfc0" with entities [EventEntity, EventEntity], work=431*
  1: 0x01AA [0x53] WAIT_SCHEDULER_TASK: Wait for scheduler "dfc0" with entities [EventEntity, EventEntity]
  2: 0x01B7 [0x00] END_REQSTACK()
```

### Event 65535.18

#### Metadata

| Field        | Value    |
|--------------|----------|
| Entrypoint   | 0x01B8   |
| Data Size    | 29 bytes |
| Instructions | 3        |

```
      00 01 02 03 04 05 06 07  08 09 0A 0B 0C 0D 0E 0F
      -- -- -- -- -- -- -- --  -- -- -- -- -- -- -- --
01B0:                          5B 23 80 F8 FF FF 7F F8          [#......
01C0: FF FF 7F 64 66 63 31 53  F8 FF FF 7F F8 FF FF 7F  ...dfc1S........
01D0: 64 66 63 31 00                                    dfc1.           
```

#### Opcodes

```
  0: 0x01B8 [0x5B] LOAD_EXT_SCHEDULER: Load scheduler "dfc1" with entities [EventEntity, EventEntity], work=431*
  1: 0x01C7 [0x53] WAIT_SCHEDULER_TASK: Wait for scheduler "dfc1" with entities [EventEntity, EventEntity]
  2: 0x01D4 [0x00] END_REQSTACK()
```

### Event 65535.19

#### Metadata

| Field        | Value    |
|--------------|----------|
| Entrypoint   | 0x01D5   |
| Data Size    | 16 bytes |
| Instructions | 2        |

```
      00 01 02 03 04 05 06 07  08 09 0A 0B 0C 0D 0E 0F
      -- -- -- -- -- -- -- --  -- -- -- -- -- -- -- --
01D0:                5B 24 80  F8 FF FF 7F F8 FF FF 7F       [$.........
01E0: 74 6C 6B 30 00                                    tlk0.           
```

#### Opcodes

```
  0: 0x01D5 [0x5B] LOAD_EXT_SCHEDULER: Load scheduler "tlk0" with entities [EventEntity, EventEntity], work=337*
  1: 0x01E4 [0x00] END_REQSTACK()
```

### Event 65535.20

#### Metadata

| Field        | Value    |
|--------------|----------|
| Entrypoint   | 0x01E5   |
| Data Size    | 16 bytes |
| Instructions | 2        |

```
      00 01 02 03 04 05 06 07  08 09 0A 0B 0C 0D 0E 0F
      -- -- -- -- -- -- -- --  -- -- -- -- -- -- -- --
01E0:                5B 24 80  F8 FF FF 7F F8 FF FF 7F       [$.........
01F0: 74 6C 6B 31 00                                    tlk1.           
```

#### Opcodes

```
  0: 0x01E5 [0x5B] LOAD_EXT_SCHEDULER: Load scheduler "tlk1" with entities [EventEntity, EventEntity], work=337*
  1: 0x01F4 [0x00] END_REQSTACK()
```

### Event 65535.21

#### Metadata

| Field        | Value    |
|--------------|----------|
| Entrypoint   | 0x01F5   |
| Data Size    | 22 bytes |
| Instructions | 3        |

```
      00 01 02 03 04 05 06 07  08 09 0A 0B 0C 0D 0E 0F
      -- -- -- -- -- -- -- --  -- -- -- -- -- -- -- --
01F0:                81 00 F8  FF FF 7F 5B 25 80 F8 FF       ......[%...
0200: FF 7F F8 FF FF 7F 63 79  30 31 00                 ......cy01.     
```

#### Opcodes

```
  0: 0x01F5 [0x81] SET_ENTITY_BLINKING(blink_flag=0x00, entity=EventEntity)
  1: 0x01FB [0x5B] LOAD_EXT_SCHEDULER: Load scheduler "cy01" with entities [EventEntity, EventEntity], work=434*
  2: 0x020A [0x00] END_REQSTACK()
```

### Event 65535.22

#### Metadata

| Field        | Value    |
|--------------|----------|
| Entrypoint   | 0x020B   |
| Data Size    | 16 bytes |
| Instructions | 2        |

```
      00 01 02 03 04 05 06 07  08 09 0A 0B 0C 0D 0E 0F
      -- -- -- -- -- -- -- --  -- -- -- -- -- -- -- --
0200:                                   5B 26 80 F8 FF             [&...
0210: FF 7F F8 FF FF 7F 68 69  30 33 00                 ......hi03.     
```

#### Opcodes

```
  0: 0x020B [0x5B] LOAD_EXT_SCHEDULER: Load scheduler "hi03" with entities [EventEntity, EventEntity], work=444*
  1: 0x021A [0x00] END_REQSTACK()
```

### Event 65535.23

#### Metadata

| Field        | Value    |
|--------------|----------|
| Entrypoint   | 0x021B   |
| Data Size    | 16 bytes |
| Instructions | 2        |

```
      00 01 02 03 04 05 06 07  08 09 0A 0B 0C 0D 0E 0F
      -- -- -- -- -- -- -- --  -- -- -- -- -- -- -- --
0210:                                   5B 26 80 F8 FF             [&...
0220: FF 7F F8 FF FF 7F 68 69  30 34 00                 ......hi04.     
```

#### Opcodes

```
  0: 0x021B [0x5B] LOAD_EXT_SCHEDULER: Load scheduler "hi04" with entities [EventEntity, EventEntity], work=444*
  1: 0x022A [0x00] END_REQSTACK()
```

### Event 65535.24

#### Metadata

| Field        | Value    |
|--------------|----------|
| Entrypoint   | 0x022B   |
| Data Size    | 29 bytes |
| Instructions | 3        |

```
      00 01 02 03 04 05 06 07  08 09 0A 0B 0C 0D 0E 0F
      -- -- -- -- -- -- -- --  -- -- -- -- -- -- -- --
0220:                                   5B 27 80 F8 FF             ['...
0230: FF 7F F8 FF FF 7F 70 6F  69 30 53 F8 FF FF 7F F8  ......poi0S.....
0240: FF FF 7F 70 6F 69 30 00                           ...poi0.        
```

#### Opcodes

```
  0: 0x022B [0x5B] LOAD_EXT_SCHEDULER: Load scheduler "poi0" with entities [EventEntity, EventEntity], work=336*
  1: 0x023A [0x53] WAIT_SCHEDULER_TASK: Wait for scheduler "poi0" with entities [EventEntity, EventEntity]
  2: 0x0247 [0x00] END_REQSTACK()
```

### Event 65535.25

#### Metadata

| Field        | Value    |
|--------------|----------|
| Entrypoint   | 0x0248   |
| Data Size    | 29 bytes |
| Instructions | 3        |

```
      00 01 02 03 04 05 06 07  08 09 0A 0B 0C 0D 0E 0F
      -- -- -- -- -- -- -- --  -- -- -- -- -- -- -- --
0240:                          5B 28 80 F8 FF FF 7F F8          [(......
0250: FF FF 7F 6C 73 62 30 53  F8 FF FF 7F F8 FF FF 7F  ...lsb0S........
0260: 6C 73 62 30 00                                    lsb0.           
```

#### Opcodes

```
  0: 0x0248 [0x5B] LOAD_EXT_SCHEDULER: Load scheduler "lsb0" with entities [EventEntity, EventEntity], work=433*
  1: 0x0257 [0x53] WAIT_SCHEDULER_TASK: Wait for scheduler "lsb0" with entities [EventEntity, EventEntity]
  2: 0x0264 [0x00] END_REQSTACK()
```

### Event 65535.26

#### Metadata

| Field        | Value    |
|--------------|----------|
| Entrypoint   | 0x0265   |
| Data Size    | 29 bytes |
| Instructions | 3        |

```
      00 01 02 03 04 05 06 07  08 09 0A 0B 0C 0D 0E 0F
      -- -- -- -- -- -- -- --  -- -- -- -- -- -- -- --
0260:                5B 28 80  F8 FF FF 7F F8 FF FF 7F       [(.........
0270: 6C 73 62 31 53 F8 FF FF  7F F8 FF FF 7F 6C 73 62  lsb1S........lsb
0280: 31 00                                             1.              
```

#### Opcodes

```
  0: 0x0265 [0x5B] LOAD_EXT_SCHEDULER: Load scheduler "lsb1" with entities [EventEntity, EventEntity], work=433*
  1: 0x0274 [0x53] WAIT_SCHEDULER_TASK: Wait for scheduler "lsb1" with entities [EventEntity, EventEntity]
  2: 0x0281 [0x00] END_REQSTACK()
```

### Event 65535.27

#### Metadata

| Field        | Value    |
|--------------|----------|
| Entrypoint   | 0x0282   |
| Data Size    | 29 bytes |
| Instructions | 3        |

```
      00 01 02 03 04 05 06 07  08 09 0A 0B 0C 0D 0E 0F
      -- -- -- -- -- -- -- --  -- -- -- -- -- -- -- --
0280:       5B 29 80 F8 FF FF  7F F8 FF FF 7F 6C 61 75    [).........lau
0290: 32 53 F8 FF FF 7F F8 FF  FF 7F 6C 61 75 32 00     2S........lau2. 
```

#### Opcodes

```
  0: 0x0282 [0x5B] LOAD_EXT_SCHEDULER: Load scheduler "lau2" with entities [EventEntity, EventEntity], work=725*
  1: 0x0291 [0x53] WAIT_SCHEDULER_TASK: Wait for scheduler "lau2" with entities [EventEntity, EventEntity]
  2: 0x029E [0x00] END_REQSTACK()
```

### Event 65535.28

#### Metadata

| Field        | Value    |
|--------------|----------|
| Entrypoint   | 0x029F   |
| Data Size    | 29 bytes |
| Instructions | 3        |

```
      00 01 02 03 04 05 06 07  08 09 0A 0B 0C 0D 0E 0F
      -- -- -- -- -- -- -- --  -- -- -- -- -- -- -- --
0290:                                               5B                 [
02A0: 29 80 F8 FF FF 7F F8 FF  FF 7F 6C 61 75 73 53 F8  ).........lausS.
02B0: FF FF 7F F8 FF FF 7F 6C  61 75 73 00              .......laus.    
```

#### Opcodes

```
  0: 0x029F [0x5B] LOAD_EXT_SCHEDULER: Load scheduler "laus" with entities [EventEntity, EventEntity], work=725*
  1: 0x02AE [0x53] WAIT_SCHEDULER_TASK: Wait for scheduler "laus" with entities [EventEntity, EventEntity]
  2: 0x02BB [0x00] END_REQSTACK()
```

### Event 65535.29

#### Metadata

| Field        | Value    |
|--------------|----------|
| Entrypoint   | 0x02BC   |
| Data Size    | 16 bytes |
| Instructions | 2        |

```
      00 01 02 03 04 05 06 07  08 09 0A 0B 0C 0D 0E 0F
      -- -- -- -- -- -- -- --  -- -- -- -- -- -- -- --
02B0:                                      5B 24 80 B3              [$..
02C0: 41 00 01 B3 41 00 01 7A  69 74 30 00              A...A..zit0.    
```

#### Opcodes

```
  0: 0x02BC [0x5B] LOAD_EXT_SCHEDULER: Load scheduler "zit0" with entities [Cherukiki (ID: 16794035/0x010041B3), Cherukiki (ID: 16794035/0x010041B3)], work=337*
  1: 0x02CB [0x00] END_REQSTACK()
```

### Event 65535.30

#### Metadata

| Field        | Value    |
|--------------|----------|
| Entrypoint   | 0x02CC   |
| Data Size    | 16 bytes |
| Instructions | 2        |

```
      00 01 02 03 04 05 06 07  08 09 0A 0B 0C 0D 0E 0F
      -- -- -- -- -- -- -- --  -- -- -- -- -- -- -- --
02C0:                                      5B 24 80 B3              [$..
02D0: 41 00 01 B3 41 00 01 77  61 69 30 00              A...A..wai0.    
```

#### Opcodes

```
  0: 0x02CC [0x5B] LOAD_EXT_SCHEDULER: Load scheduler "wai0" with entities [Cherukiki (ID: 16794035/0x010041B3), Cherukiki (ID: 16794035/0x010041B3)], work=337*
  1: 0x02DB [0x00] END_REQSTACK()
```

### Event 65535.31

#### Metadata

| Field        | Value    |
|--------------|----------|
| Entrypoint   | 0x02DC   |
| Data Size    | 16 bytes |
| Instructions | 2        |

```
      00 01 02 03 04 05 06 07  08 09 0A 0B 0C 0D 0E 0F
      -- -- -- -- -- -- -- --  -- -- -- -- -- -- -- --
02D0:                                      5B 2A 80 B3              [*..
02E0: 41 00 01 B3 41 00 01 74  65 68 30 00              A...A..teh0.    
```

#### Opcodes

```
  0: 0x02DC [0x5B] LOAD_EXT_SCHEDULER: Load scheduler "teh0" with entities [Cherukiki (ID: 16794035/0x010041B3), Cherukiki (ID: 16794035/0x010041B3)], work=341*
  1: 0x02EB [0x00] END_REQSTACK()
```

### Event 65535.32

#### Metadata

| Field        | Value    |
|--------------|----------|
| Entrypoint   | 0x02EC   |
| Data Size    | 16 bytes |
| Instructions | 2        |

```
      00 01 02 03 04 05 06 07  08 09 0A 0B 0C 0D 0E 0F
      -- -- -- -- -- -- -- --  -- -- -- -- -- -- -- --
02E0:                                      5B 2B 80 F8              [+..
02F0: FF FF 7F F8 FF FF 7F 62  69 6B 30 00              .......bik0.    
```

#### Opcodes

```
  0: 0x02EC [0x5B] LOAD_EXT_SCHEDULER: Load scheduler "bik0" with entities [EventEntity, EventEntity], work=340*
  1: 0x02FB [0x00] END_REQSTACK()
```

### Event 65535.33

#### Metadata

| Field        | Value    |
|--------------|----------|
| Entrypoint   | 0x02FC   |
| Data Size    | 16 bytes |
| Instructions | 2        |

```
      00 01 02 03 04 05 06 07  08 09 0A 0B 0C 0D 0E 0F
      -- -- -- -- -- -- -- --  -- -- -- -- -- -- -- --
02F0:                                      5B 2C 80 F8              [,..
0300: FF FF 7F F8 FF FF 7F 77  61 76 30 00              .......wav0.    
```

#### Opcodes

```
  0: 0x02FC [0x5B] LOAD_EXT_SCHEDULER: Load scheduler "wav0" with entities [EventEntity, EventEntity], work=325*
  1: 0x030B [0x00] END_REQSTACK()
```

### Event 65535.34

#### Metadata

| Field        | Value    |
|--------------|----------|
| Entrypoint   | 0x030C   |
| Data Size    | 16 bytes |
| Instructions | 2        |

```
      00 01 02 03 04 05 06 07  08 09 0A 0B 0C 0D 0E 0F
      -- -- -- -- -- -- -- --  -- -- -- -- -- -- -- --
0300:                                      5B 2D 80 F8              [-..
0310: FF FF 7F F8 FF FF 7F 73  68 6B 30 00              .......shk0.    
```

#### Opcodes

```
  0: 0x030C [0x5B] LOAD_EXT_SCHEDULER: Load scheduler "shk0" with entities [EventEntity, EventEntity], work=339*
  1: 0x031B [0x00] END_REQSTACK()
```
