# 16794008

## Common Data

| Field            | Value              |
|------------------|--------------------|
| Zone             | Bibiki Bay (ID: 4) |
| Block Size       | 1044 bytes         |
| Total Events     | 2                  |
| References Count | 20                 |

## List of Events

| Event ID              | Entrypoint   |   Size |   Instructions |
|-----------------------|--------------|--------|----------------|
| [65535](#event-65535) | 0x0000       |      1 |              1 |
| [34](#event-34)       | 0x0001       |    936 |            103 |

## DAT References (imed_data)

|   Index | Hex Value   |   Dec Value |
|---------|-------------|-------------|
|       0 | 0x0013      |          19 |
|       1 | 0xFFFB06D2  |  4294641362 |
|       2 | 0xFFF48F31  |  4294217521 |
|       3 | 0xFFFFF319  |  4294963993 |
|       4 | 0x0C6C      |        3180 |
|       5 | 0x000F      |          15 |
|       6 | 0x00B0      |         176 |
|       7 | 0x0000      |           0 |
|       8 | 0x1CDA      |        7386 |
|       9 | 0x010E      |         270 |
|      10 | 0x001E      |          30 |
|      11 | 0x0003      |           3 |
|      12 | 0x0006      |           6 |
|      13 | 0x0027      |          39 |
|      14 | 0x00C8      |         200 |
|      15 | 0x00C9      |         201 |
|      16 | 0x0001      |           1 |
|      17 | 0x002D      |          45 |
|      18 | 0x0002      |           2 |
|      19 | 0x00D7      |         215 |

## String References

- **7386**: <Clunk-clunk>...

## Events

### Event 65535

#### Metadata

| Field        | Value   |
|--------------|---------|
| Entrypoint   | 0x0000  |
| Data Size    | 1 bytes |
| Instructions | 1       |

```
      00 01 02 03 04 05 06 07  08 09 0A 0B 0C 0D 0E 0F
      -- -- -- -- -- -- -- --  -- -- -- -- -- -- -- --
0000: 00                                                .               
```

#### Opcodes

```
  0: 0x0000 [0x00] END_REQSTACK()
```

### Event 34

#### Metadata

| Field        | Value     |
|--------------|-----------|
| Entrypoint   | 0x0001    |
| Data Size    | 936 bytes |
| Instructions | 48        |

```
      00 01 02 03 04 05 06 07  08 09 0A 0B 0C 0D 0E 0F
      -- -- -- -- -- -- -- --  -- -- -- -- -- -- -- --
0000:    42 1A 7B 01 46 01 79  00 F0 FF FF 7F F0 FF FF   B.{.F.y........
0010: 7F 38 00 80 27 10 91 41  00 01 07 92 01 F0 FF FF  .8..'..A........
0020: 7F 92 01 91 41 00 01 27  10 F0 FF FF 7F 1D 27 10  ....A..'......'.
0030: 91 41 00 01 08 37 01 80  02 80 03 80 04 80 80 F0  .A...7..........
0040: FF FF 7F 80 91 41 00 01  1C 05 80 45 06 80 F0 FF  .....A.....E....
0050: FF 7F F0 FF FF 7F 70 72  30 30 07 80 1A 5A 01 55  ......pr00...Z.U
0060: 06 80 F0 FF FF 7F F0 FF  FF 7F 70 72 30 30 45 06  ..........pr00E.
0070: 80 F0 FF FF 7F F0 FF FF  7F 70 72 30 31 07 80 48  .........pr01..H
0080: 08 80 23 27 10 91 41 00  01 09 1C 09 80 4A F0 FF  ..#'..A......J..
0090: FF 7F F8 FF FF 7F 6F 76  F0 FF FF 7F 1C 0A 80 62  ......ov.......b
00A0: 0B 80 F8 FF FF 7F F8 FF  FF 7F 6D 61 69 6E 07 80  ..........main..
00B0: 1C 05 80 52 06 80 F0 FF  FF 7F F0 FF FF 7F 70 72  ...R..........pr
00C0: 30 31 45 06 80 F0 FF FF  7F F0 FF FF 7F 70 72 30  01E..........pr0
00D0: 32 07 80 29 10 F0 FF FF  7F 1F 1C 0C 80 6E F0 FF  2..).........n..
00E0: FF 7F 0D 80 99 F0 FF FF  7F 99 F0 FF FF 7F 1A 7B  ...............{
00F0: 01 1C 0A 80 52 06 80 F0  FF FF 7F F0 FF FF 7F 70  ....R..........p
0100: 72 30 32 46 00 45 0E 80  F0 FF FF 7F F0 FF FF 7F  r02F.E..........
0110: 66 64 69 32 07 80 21 00  45 0E 80 F0 FF FF 7F F0  fdi2..!.E.......
0120: FF FF 7F 66 64 69 30 07  80 55 0E 80 F0 FF FF 7F  ...fdi0..U......
0130: F0 FF FF 7F 66 64 69 30  1B 45 0E 80 F0 FF FF 7F  ....fdi0.E......
0140: F0 FF FF 7F 66 64 6F 30  07 80 55 0E 80 F0 FF FF  ....fdo0..U.....
0150: 7F F0 FF FF 7F 66 64 6F  30 1B 45 0E 80 F0 FF FF  .....fdo0.E.....
0160: 7F F0 FF FF 7F 66 64 69  31 07 80 55 0E 80 F0 FF  .....fdi1..U....
0170: FF 7F F0 FF FF 7F 66 64  69 31 1B 45 0E 80 F0 FF  ......fdi1.E....
0180: FF 7F F0 FF FF 7F 66 64  6F 31 07 80 55 0E 80 F0  ......fdo1..U...
0190: FF FF 7F F0 FF FF 7F 66  64 6F 31 1B 45 0F 80 F0  .......fdo1.E...
01A0: FF FF 7F F0 FF FF 7F 77  68 69 31 07 80 55 0F 80  .......whi1..U..
01B0: F0 FF FF 7F F0 FF FF 7F  77 68 69 31 1B 45 0F 80  ........whi1.E..
01C0: F0 FF FF 7F F0 FF FF 7F  77 68 6F 31 07 80 55 0F  ........who1..U.
01D0: 80 F0 FF FF 7F F0 FF FF  7F 77 68 6F 31 1B 45 0F  .........who1.E.
01E0: 80 F0 FF FF 7F F0 FF FF  7F 77 68 6F 32 07 80 55  .........who2..U
01F0: 0F 80 F0 FF FF 7F F0 FF  FF 7F 77 68 6F 32 1B 45  ..........who2.E
0200: 0F 80 F0 FF FF 7F F0 FF  FF 7F 77 68 6F 33 07 80  ..........who3..
0210: 55 0F 80 F0 FF FF 7F F0  FF FF 7F 77 68 6F 33 1B  U..........who3.
0220: 62 10 80 F0 FF FF 7F F0  FF FF 7F 6D 61 69 6E 07  b..........main.
0230: 80 1C 11 80 45 0E 80 F0  FF FF 7F F0 FF FF 7F 66  ....E..........f
0240: 64 6F 31 07 80 55 0E 80  F0 FF FF 7F F0 FF FF 7F  do1..U..........
0250: 66 64 6F 31 1B 45 0E 80  F0 FF FF 7F F0 FF FF 7F  fdo1.E..........
0260: 66 64 69 31 07 80 62 12  80 F0 FF FF 7F F0 FF FF  fdi1..b.........
0270: 7F 6D 61 69 6E 07 80 1C  0A 80 55 0E 80 F0 FF FF  .main.....U.....
0280: 7F F0 FF FF 7F 66 64 69  31 1B 45 0E 80 F0 FF FF  .....fdi1.E.....
0290: 7F F0 FF FF 7F 62 6C 6F  6E 07 80 45 0F 80 F0 FF  .....blon..E....
02A0: FF 7F F0 FF FF 7F 62 6C  6F 6E 07 80 1B 45 0F 80  ......blon...E..
02B0: F0 FF FF 7F F0 FF FF 7F  77 68 69 30 07 80 55 0F  ........whi0..U.
02C0: 80 F0 FF FF 7F F0 FF FF  7F 77 68 69 30 1B 45 0F  .........whi0.E.
02D0: 80 F0 FF FF 7F F0 FF FF  7F 77 68 6F 30 07 80 55  .........who0..U
02E0: 0F 80 F0 FF FF 7F F0 FF  FF 7F 77 68 6F 30 1B 45  ..........who0.E
02F0: 13 80 F0 FF FF 7F F0 FF  FF 7F 65 66 6F 6E 07 80  ..........efon..
0300: 55 13 80 F0 FF FF 7F F0  FF FF 7F 65 66 6F 6E 1B  U..........efon.
0310: 45 0E 80 F0 FF FF 7F F0  FF FF 7F 66 64 69 73 07  E..........fdis.
0320: 80 1B 45 0E 80 F0 FF FF  7F F0 FF FF 7F 66 64 6F  ..E..........fdo
0330: 73 07 80 55 0E 80 F0 FF  FF 7F F0 FF FF 7F 66 64  s..U..........fd
0340: 6F 73 1B 45 0E 80 F0 FF  FF 7F F0 FF FF 7F 66 64  os.E..........fd
0350: 69 66 07 80 1B 45 0E 80  F0 FF FF 7F F0 FF FF 7F  if...E..........
0360: 66 64 6F 66 07 80 55 0E  80 F0 FF FF 7F F0 FF FF  fdof..U.........
0370: 7F 66 64 6F 66 1B 45 0E  80 F0 FF FF 7F F0 FF FF  .fdof.E.........
0380: 7F 66 64 69 70 07 80 1B  45 0E 80 F0 FF FF 7F F0  .fdip...E.......
0390: FF FF 7F 66 64 6F 70 07  80 55 0E 80 F0 FF FF 7F  ...fdop..U......
03A0: F0 FF FF 7F 66 64 6F 70  1B                       ....fdop.       
```

#### Opcodes

```
  0: 0x0001 [0x42] SET_CLI_EVENT_CANCEL_DATA()
  1: 0x0002 [0x1A] CALL_SUBROUTINE(address=0x017B)
  2: 0x0005 [0x46] CAMERA_CONTROL: Disable user control
  3: 0x0007 [0x79] LocalPlayer looks at LocalPlayer (Basic look)
  4: 0x0011 [0x38] SET_CLIENT_EVENT_MODE(mode=19*)
  5: 0x0014 [0x27] REQ_SET(priority=0x10, entity_id=??? Warmachine (ID: 16794001/0x01004191), tag_num=0x07)
  6: 0x001B [0x92] LocalPlayer->Render.Flags3 ^= 0x01
  7: 0x0021 [0x92] ??? Warmachine (ID: 16794001/0x01004191)->Render.Flags3 ^= 0x01
  8: 0x0027 [0x27] REQ_SET(priority=0x10, entity_id=LocalPlayer, tag_num=0x1D)
  9: 0x002E [0x27] REQ_SET(priority=0x10, entity_id=??? Warmachine (ID: 16794001/0x01004191), tag_num=0x08)
 10: 0x0035 [0x37] UPDATE_EVENT_POSITION_AND_DIR: x=-325.934*, z=-749.775*, y=-3.303*, direction=279.5°*
 11: 0x003E [0x80] LOAD_WAIT(entity=LocalPlayer)
 12: 0x0043 [0x80] LOAD_WAIT(entity=??? Warmachine (ID: 16794001/0x01004191))
 13: 0x0048 [0x1C] WAIT(15* ticks)
 14: 0x004B [0x45] LOAD_SCHEDULED_TASK: Load scheduler "pr00" with entities [LocalPlayer, LocalPlayer], work=[176*, 0*]
 15: 0x005C [0x1A] CALL_SUBROUTINE(address=0x015A)
 16: 0x005F [0x55] WAIT_LOAD_SCHEDULER: Wait for scheduler "pr00" with entities [LocalPlayer, LocalPlayer], work=176*
 17: 0x006E [0x45] LOAD_SCHEDULED_TASK: Load scheduler "pr01" with entities [LocalPlayer, LocalPlayer], work=[176*, 0*]
 18: 0x007F [0x48] [System] [7386*]:
    → "<Clunk-clunk>..."
 19: 0x0082 [0x23] WAIT_FOR_DIALOG_INTERACTION
 20: 0x0083 [0x27] REQ_SET(priority=0x10, entity_id=??? Warmachine (ID: 16794001/0x01004191), tag_num=0x09)
 21: 0x008A [0x1C] WAIT(270* ticks)
 22: 0x008D [0x4A] LocalPlayer looks at EventEntity
 23: 0x0096 [0x6F] WAIT_FRAME_DELAY: Yield until WaitTime reaches zero
 24: 0x0097 [0x76] CHECK_ENTITY_RENDER_FLAGS: Wait until LocalPlayer Render.Flags0 and Render.Flags3 conditions are met
 25: 0x009C [0x1C] WAIT(30* ticks)
 26: 0x009F [0x62] LOAD_EVENT_SCHEDULER: Load scheduler "main" with entities [EventEntity, EventEntity], work=[3*, 0*]
 27: 0x00B0 [0x1C] WAIT(15* ticks)
 28: 0x00B3 [0x52] END_LOAD_SCHEDULER: End scheduler "pr01" with entities [LocalPlayer, LocalPlayer], work=176*
 29: 0x00C2 [0x45] LOAD_SCHEDULED_TASK: Load scheduler "pr02" with entities [LocalPlayer, LocalPlayer], work=[176*, 0*]
 30: 0x00D3 [0x29] REQ_SET_WAIT(priority=0x10, entity_id=LocalPlayer, tag_num=0x1F)
 31: 0x00DA [0x1C] WAIT(6* ticks)
 32: 0x00DD [0x6E] LocalPlayer uses emote 39*
 33: 0x00E4 [0x99] Wait for LocalPlayer animation to complete
 34: 0x00E9 [0x99] Wait for LocalPlayer animation to complete
 35: 0x00EE [0x1A] CALL_SUBROUTINE(address=0x017B)
 36: 0x00F1 [0x1C] WAIT(30* ticks)
 37: 0x00F4 [0x52] END_LOAD_SCHEDULER: End scheduler "pr02" with entities [LocalPlayer, LocalPlayer], work=176*
 38: 0x0103 [0x46] CAMERA_CONTROL: Restore default settings
 39: 0x0105 [0x45] LOAD_SCHEDULED_TASK: Load scheduler "fdi2" with entities [LocalPlayer, LocalPlayer], work=[200*, 0*]
 40: 0x0116 [0x21] END_EVENT
 41: 0x0117 [0x00] END_REQSTACK()

SUBROUTINE_015A:
 42: 0x015A [0x45] LOAD_SCHEDULED_TASK: Load scheduler "fdi1" with entities [LocalPlayer, LocalPlayer], work=[200*, 0*]
 43: 0x016B [0x55] WAIT_LOAD_SCHEDULER: Wait for scheduler "fdi1" with entities [LocalPlayer, LocalPlayer], work=200*
 44: 0x017A [0x1B] RETURN

SUBROUTINE_017B:
 45: 0x017B [0x45] LOAD_SCHEDULED_TASK: Load scheduler "fdo1" with entities [LocalPlayer, LocalPlayer], work=[200*, 0*]
 46: 0x018C [0x55] WAIT_LOAD_SCHEDULER: Wait for scheduler "fdo1" with entities [LocalPlayer, LocalPlayer], work=200*
 47: 0x019B [0x1B] RETURN
```

#### Data or dead code:

```
# Dead code (unreachable instructions):
     0x0118 [0x45] LOAD_SCHEDULED_TASK: Load scheduler "fdi0" with entities [LocalPlayer, LocalPlayer], work=[200*, 0*]
     0x0129 [0x55] WAIT_LOAD_SCHEDULER: Wait for scheduler "fdi0" with entities [LocalPlayer, LocalPlayer], work=200*
     0x0138 [0x1B] RETURN
     0x0139 [0x45] LOAD_SCHEDULED_TASK: Load scheduler "fdo0" with entities [LocalPlayer, LocalPlayer], work=[200*, 0*]
     0x014A [0x55] WAIT_LOAD_SCHEDULER: Wait for scheduler "fdo0" with entities [LocalPlayer, LocalPlayer], work=200*
     0x0159 [0x1B] RETURN
# Dead code (unreachable instructions):
     0x019C [0x45] LOAD_SCHEDULED_TASK: Load scheduler "whi1" with entities [LocalPlayer, LocalPlayer], work=[201*, 0*]
     0x01AD [0x55] WAIT_LOAD_SCHEDULER: Wait for scheduler "whi1" with entities [LocalPlayer, LocalPlayer], work=201*
     0x01BC [0x1B] RETURN
     0x01BD [0x45] LOAD_SCHEDULED_TASK: Load scheduler "who1" with entities [LocalPlayer, LocalPlayer], work=[201*, 0*]
     0x01CE [0x55] WAIT_LOAD_SCHEDULER: Wait for scheduler "who1" with entities [LocalPlayer, LocalPlayer], work=201*
     0x01DD [0x1B] RETURN
     0x01DE [0x45] LOAD_SCHEDULED_TASK: Load scheduler "who2" with entities [LocalPlayer, LocalPlayer], work=[201*, 0*]
     0x01EF [0x55] WAIT_LOAD_SCHEDULER: Wait for scheduler "who2" with entities [LocalPlayer, LocalPlayer], work=201*
     0x01FE [0x1B] RETURN
     0x01FF [0x45] LOAD_SCHEDULED_TASK: Load scheduler "who3" with entities [LocalPlayer, LocalPlayer], work=[201*, 0*]
     0x0210 [0x55] WAIT_LOAD_SCHEDULER: Wait for scheduler "who3" with entities [LocalPlayer, LocalPlayer], work=201*
     0x021F [0x1B] RETURN
     0x0220 [0x62] LOAD_EVENT_SCHEDULER: Load scheduler "main" with entities [LocalPlayer, LocalPlayer], work=[1*, 0*]
     0x0231 [0x1C] WAIT(45* ticks)
     0x0234 [0x45] LOAD_SCHEDULED_TASK: Load scheduler "fdo1" with entities [LocalPlayer, LocalPlayer], work=[200*, 0*]
     0x0245 [0x55] WAIT_LOAD_SCHEDULER: Wait for scheduler "fdo1" with entities [LocalPlayer, LocalPlayer], work=200*
     0x0254 [0x1B] RETURN
     0x0255 [0x45] LOAD_SCHEDULED_TASK: Load scheduler "fdi1" with entities [LocalPlayer, LocalPlayer], work=[200*, 0*]
     0x0266 [0x62] LOAD_EVENT_SCHEDULER: Load scheduler "main" with entities [LocalPlayer, LocalPlayer], work=[2*, 0*]
     0x0277 [0x1C] WAIT(30* ticks)
     0x027A [0x55] WAIT_LOAD_SCHEDULER: Wait for scheduler "fdi1" with entities [LocalPlayer, LocalPlayer], work=200*
     0x0289 [0x1B] RETURN
     0x028A [0x45] LOAD_SCHEDULED_TASK: Load scheduler "blon" with entities [LocalPlayer, LocalPlayer], work=[200*, 0*]
     0x029B [0x45] LOAD_SCHEDULED_TASK: Load scheduler "blon" with entities [LocalPlayer, LocalPlayer], work=[201*, 0*]
     0x02AC [0x1B] RETURN
     0x02AD [0x45] LOAD_SCHEDULED_TASK: Load scheduler "whi0" with entities [LocalPlayer, LocalPlayer], work=[201*, 0*]
     0x02BE [0x55] WAIT_LOAD_SCHEDULER: Wait for scheduler "whi0" with entities [LocalPlayer, LocalPlayer], work=201*
     0x02CD [0x1B] RETURN
     0x02CE [0x45] LOAD_SCHEDULED_TASK: Load scheduler "who0" with entities [LocalPlayer, LocalPlayer], work=[201*, 0*]
     0x02DF [0x55] WAIT_LOAD_SCHEDULER: Wait for scheduler "who0" with entities [LocalPlayer, LocalPlayer], work=201*
     0x02EE [0x1B] RETURN
     0x02EF [0x45] LOAD_SCHEDULED_TASK: Load scheduler "efon" with entities [LocalPlayer, LocalPlayer], work=[215*, 0*]
     0x0300 [0x55] WAIT_LOAD_SCHEDULER: Wait for scheduler "efon" with entities [LocalPlayer, LocalPlayer], work=215*
     0x030F [0x1B] RETURN
     0x0310 [0x45] LOAD_SCHEDULED_TASK: Load scheduler "fdis" with entities [LocalPlayer, LocalPlayer], work=[200*, 0*]
     0x0321 [0x1B] RETURN
     0x0322 [0x45] LOAD_SCHEDULED_TASK: Load scheduler "fdos" with entities [LocalPlayer, LocalPlayer], work=[200*, 0*]
     0x0333 [0x55] WAIT_LOAD_SCHEDULER: Wait for scheduler "fdos" with entities [LocalPlayer, LocalPlayer], work=200*
     0x0342 [0x1B] RETURN
     0x0343 [0x45] LOAD_SCHEDULED_TASK: Load scheduler "fdif" with entities [LocalPlayer, LocalPlayer], work=[200*, 0*]
     0x0354 [0x1B] RETURN
     0x0355 [0x45] LOAD_SCHEDULED_TASK: Load scheduler "fdof" with entities [LocalPlayer, LocalPlayer], work=[200*, 0*]
     0x0366 [0x55] WAIT_LOAD_SCHEDULER: Wait for scheduler "fdof" with entities [LocalPlayer, LocalPlayer], work=200*
     0x0375 [0x1B] RETURN
     0x0376 [0x45] LOAD_SCHEDULED_TASK: Load scheduler "fdip" with entities [LocalPlayer, LocalPlayer], work=[200*, 0*]
     0x0387 [0x1B] RETURN
     0x0388 [0x45] LOAD_SCHEDULED_TASK: Load scheduler "fdop" with entities [LocalPlayer, LocalPlayer], work=[200*, 0*]
     0x0399 [0x55] WAIT_LOAD_SCHEDULER: Wait for scheduler "fdop" with entities [LocalPlayer, LocalPlayer], work=200*
     0x03A8 [0x1B] RETURN
```
