# 16794030

## Common Data

| Field            | Value              |
|------------------|--------------------|
| Zone             | Bibiki Bay (ID: 4) |
| Block Size       | 7396 bytes         |
| Total Events     | 2                  |
| References Count | 129                |

## List of Events

| Event ID              | Entrypoint   |   Size |   Instructions |
|-----------------------|--------------|--------|----------------|
| [65535](#event-65535) | 0x0000       |      1 |              1 |
| [43](#event-43)       | 0x0001       |   6854 |            861 |

## DAT References (imed_data)

|   Index | Hex Value   |   Dec Value |
|---------|-------------|-------------|
|       0 | 0x00C8      |         200 |
|       1 | 0x0000      |           0 |
|       2 | 0x0013      |          19 |
|       3 | 0x0001      |           1 |
|       4 | 0x0056      |          86 |
|       5 | 0x003C      |          60 |
|       6 | 0x1DD6      |        7638 |
|       7 | 0x1DD7      |        7639 |
|       8 | 0x00A3      |         163 |
|       9 | 0x001E      |          30 |
|      10 | 0x0078      |         120 |
|      11 | 0x000A      |          10 |
|      12 | 0x1DD8      |        7640 |
|      13 | 0x1DD9      |        7641 |
|      14 | 0x1DDA      |        7642 |
|      15 | 0x005A      |          90 |
|      16 | 0x012C      |         300 |
|      17 | 0x00B4      |         180 |
|      18 | 0x0020      |          32 |
|      19 | 0x00E3      |         227 |
|      20 | 0x0024      |          36 |
|      21 | 0x1DDB      |        7643 |
|      22 | 0x0485      |        1157 |
|      23 | 0x1DDC      |        7644 |
|      24 | 0x1DDD      |        7645 |
|      25 | 0x1DDE      |        7646 |
|      26 | 0x0640      |        1600 |
|      27 | 0x1DDF      |        7647 |
|      28 | 0x0258      |         600 |
|      29 | 0x1DE0      |        7648 |
|      30 | 0x1DE1      |        7649 |
|      31 | 0x1DE2      |        7650 |
|      32 | 0x1DE3      |        7651 |
|      33 | 0x1DE4      |        7652 |
|      34 | 0x006C      |         108 |
|      35 | 0x001F      |          31 |
|      36 | 0x0014      |          20 |
|      37 | 0x000F      |          15 |
|      38 | 0x1DE5      |        7653 |
|      39 | 0x1DE6      |        7654 |
|      40 | 0x1DE7      |        7655 |
|      41 | 0x007F      |         127 |
|      42 | 0x0032      |          50 |
|      43 | 0x1DE9      |        7657 |
|      44 | 0x1DE8      |        7656 |
|      45 | 0x1DEA      |        7658 |
|      46 | 0x0005      |           5 |
|      47 | 0x0006      |           6 |
|      48 | 0x1DEB      |        7659 |
|      49 | 0x0004      |           4 |
|      50 | 0x001A      |          26 |
|      51 | 0x1DEC      |        7660 |
|      52 | 0x1DED      |        7661 |
|      53 | 0x00DC      |         220 |
|      54 | 0x1DEE      |        7662 |
|      55 | 0x002D      |          45 |
|      56 | 0x1DEF      |        7663 |
|      57 | 0x1DF0      |        7664 |
|      58 | 0x1DF1      |        7665 |
|      59 | 0x00DA      |         218 |
|      60 | 0x009C      |         156 |
|      61 | 0x00C9      |         201 |
|      62 | 0x1DF2      |        7666 |
|      63 | 0x1DF3      |        7667 |
|      64 | 0x1DF4      |        7668 |
|      65 | 0x0050      |          80 |
|      66 | 0x1DF5      |        7669 |
|      67 | 0x1DF6      |        7670 |
|      68 | 0x1DF7      |        7671 |
|      69 | 0x1DF8      |        7672 |
|      70 | 0x1DF9      |        7673 |
|      71 | 0x1DFA      |        7674 |
|      72 | 0x1DFB      |        7675 |
|      73 | 0x1DFE      |        7678 |
|      74 | 0x0046      |          70 |
|      75 | 0x0097      |         151 |
|      76 | 0x0087      |         135 |
|      77 | 0x01AE      |         430 |
|      78 | 0x00F0      |         240 |
|      79 | 0x1DFF      |        7679 |
|      80 | 0x1E00      |        7680 |
|      81 | 0x1E01      |        7681 |
|      82 | 0x1E02      |        7682 |
|      83 | 0x1E03      |        7683 |
|      84 | 0x1E04      |        7684 |
|      85 | 0x1E05      |        7685 |
|      86 | 0x007C      |         124 |
|      87 | 0x1E06      |        7686 |
|      88 | 0x1E07      |        7687 |
|      89 | 0x1E08      |        7688 |
|      90 | 0x1E09      |        7689 |
|      91 | 0x1E0A      |        7690 |
|      92 | 0x0800      |        2048 |
|      93 | 0x1E0B      |        7691 |
|      94 | 0x1E0C      |        7692 |
|      95 | 0x1E0D      |        7693 |
|      96 | 0x1E0E      |        7694 |
|      97 | 0x0200      |         512 |
|      98 | 0x1E0F      |        7695 |
|      99 | 0x1E10      |        7696 |
|     100 | 0x1E11      |        7697 |
|     101 | 0x1E12      |        7698 |
|     102 | 0x1E13      |        7699 |
|     103 | 0x1E14      |        7700 |
|     104 | 0x1E15      |        7701 |
|     105 | 0x1E17      |        7703 |
|     106 | 0x1E16      |        7702 |
|     107 | 0x1E18      |        7704 |
|     108 | 0x021C      |         540 |
|     109 | 0x00EA      |         234 |
|     110 | 0x0028      |          40 |
|     111 | 0x1E19      |        7705 |
|     112 | 0x1E1A      |        7706 |
|     113 | 0x1E1B      |        7707 |
|     114 | 0x1E1C      |        7708 |
|     115 | 0x1E1D      |        7709 |
|     116 | 0x1E1E      |        7710 |
|     117 | 0x1E1F      |        7711 |
|     118 | 0x1E20      |        7712 |
|     119 | 0x1E21      |        7713 |
|     120 | 0x1E22      |        7714 |
|     121 | 0x05DC      |        1500 |
|     122 | 0x1E23      |        7715 |
|     123 | 0x1E24      |        7716 |
|     124 | 0x1E25      |        7717 |
|     125 | 0x0096      |         150 |
|     126 | 0x00D2      |         210 |
|     127 | 0x0002      |           2 |
|     128 | 0x00D7      |         215 |

## String References

- **7639**: Nothing happens.
- **7643**: Welcome to the Chebukki Show!
- **7644**: Hey, did you hear? We toppled a titanic terror and saved the world!
- **7645**: All in a day's work, you might say.
- **7646**: Of course, it wasn't easy pretending to be under our enemy's control so we could take him by surprise.
- **7647**: Makki, you were mak-nificent!
- **7648**: Kukki, you were too kooky!
- **7649**: I think it's about time I exited stage left...
- **7650**: But listen to this!
- **7651**: An adventurer called <Player> thinks that [he/she] stole the show!
- **7652**: Can you believe that!
- **7659**: Laugh at their performance? [I guess.../Are you kidding me...?]

## Events

### Event 65535

#### Metadata

| Field        | Value   |
|--------------|---------|
| Entrypoint   | 0x0000  |
| Data Size    | 1 bytes |
| Instructions | 1       |

```
      00 01 02 03 04 05 06 07  08 09 0A 0B 0C 0D 0E 0F
      -- -- -- -- -- -- -- --  -- -- -- -- -- -- -- --
0000: 00                                                .               
```

#### Opcodes

```
  0: 0x0000 [0x00] END_REQSTACK()
```

### Event 43

#### Metadata

| Field        | Value      |
|--------------|------------|
| Entrypoint   | 0x0001     |
| Data Size    | 6854 bytes |
| Instructions | 803        |

```
      00 01 02 03 04 05 06 07  08 09 0A 0B 0C 0D 0E 0F
      -- -- -- -- -- -- -- --  -- -- -- -- -- -- -- --
0000:    20 01 46 01 42 45 00  80 F0 FF FF 7F F0 FF FF    .F.BE.........
0010: 7F 66 64 6F 31 01 80 55  00 80 F0 FF FF 7F F0 FF  .fdo1..U........
0020: FF 7F 66 64 6F 31 94 01  F0 FF FF 7F 38 02 80 27  ..fdo1......8..'
0030: 03 F0 FF FF 7F 25 79 00  F0 FF FF 7F F0 FF FF 7F  .....%y.........
0040: 97 01 80 03 80 1A A2 17  45 04 80 F0 FF FF 7F F0  ........E.......
0050: FF FF 7F 7A 30 30 30 01  80 45 00 80 F0 FF FF 7F  ...z000..E......
0060: F0 FF FF 7F 66 64 69 31  01 80 55 00 80 F0 FF FF  ....fdi1..U.....
0070: 7F F0 FF FF 7F 66 64 69  31 1C 05 80 2B 91 41 00  .....fdi1...+.A.
0080: 01 06 80 23 55 04 80 F0  FF FF 7F F0 FF FF 7F 7A  ...#U..........z
0090: 30 30 30 48 07 80 23 5C  00 08 80 5C 01 08 80 9A  000H..#\...\....
00A0: 4A F0 FF FF 7F 94 41 00  01 27 03 94 41 00 01 02  J.....A..'..A...
00B0: 27 03 95 41 00 01 02 27  03 96 41 00 01 02 1C 09  '..A...'..A.....
00C0: 80 4E 00 94 41 00 01 4E  00 95 41 00 01 4E 00 96  .N..A..N..A..N..
00D0: 41 00 01 45 04 80 F0 FF  FF 7F F0 FF FF 7F 7A 30  A..E..........z0
00E0: 30 31 01 80 55 04 80 F0  FF FF 7F F0 FF FF 7F 7A  01..U..........z
00F0: 30 30 31 1C 0A 80 4E 00  B1 41 00 01 4E 00 B2 41  001...N..A..N..A
0100: 00 01 4E 00 B3 41 00 01  27 03 B1 41 00 01 09 1C  ..N..A..'..A....
0110: 0B 80 27 03 B2 41 00 01  09 1C 0B 80 29 03 B3 41  ..'..A......)..A
0120: 00 01 09 1C 09 80 27 03  B3 41 00 01 12 2B B3 41  ......'..A...+.A
0130: 00 01 0C 80 1C 0B 80 45  04 80 F0 FF FF 7F F0 FF  .......E........
0140: FF 7F 7A 30 30 32 01 80  55 04 80 F0 FF FF 7F F0  ..z002..U.......
0150: FF FF 7F 7A 30 30 32 23  27 03 B2 41 00 01 12 2B  ...z002#'..A...+
0160: B2 41 00 01 0D 80 23 27  03 B1 41 00 01 14 2B B1  .A....#'..A...+.
0170: 41 00 01 0E 80 23 27 03  B2 41 00 01 0A 27 03 B3  A....#'..A...'..
0180: 41 00 01 0A 1C 0B 80 27  03 B1 41 00 01 0A 1C 09  A......'..A.....
0190: 80 45 04 80 F0 FF FF 7F  F0 FF FF 7F 7A 30 30 33  .E..........z003
01A0: 01 80 1C 0F 80 5D 01 80  10 80 45 00 80 F0 FF FF  .....]....E.....
01B0: 7F F0 FF FF 7F 66 64 6F  32 01 80 55 00 80 F0 FF  .....fdo2..U....
01C0: FF 7F F0 FF FF 7F 66 64  6F 32 52 04 80 F0 FF FF  ......fdo2R.....
01D0: 7F F0 FF FF 7F 7A 30 30  33 2A 03 B1 41 00 01 27  .....z003*..A..'
01E0: 03 F0 FF FF 7F 26 4E 00  94 41 00 01 4E 00 95 41  .....&N..A..N..A
01F0: 00 01 4E 00 96 41 00 01  27 03 94 41 00 01 03 27  ..N..A..'..A...'
0200: 03 95 41 00 01 03 27 03  96 41 00 01 03 1C 11 80  ..A...'..A......
0210: 45 04 80 F0 FF FF 7F F0  FF FF 7F 7A 30 30 34 01  E..........z004.
0220: 80 45 00 80 F0 FF FF 7F  F0 FF FF 7F 66 64 69 31  .E..........fdi1
0230: 01 80 27 03 B3 41 00 01  0B 1C 0B 80 27 03 B1 41  ..'..A......'..A
0240: 00 01 0B 1C 0B 80 27 03  B2 41 00 01 0B 1C 0B 80  ......'..A......
0250: 45 04 80 F8 FF FF 7F F8  FF FF 7F 73 65 30 33 01  E..........se03.
0260: 80 1C 12 80 45 04 80 F0  FF FF 7F F0 FF FF 7F 73  ....E..........s
0270: 65 30 34 01 80 2A 03 B2  41 00 01 55 04 80 F0 FF  e04..*..A..U....
0280: FF 7F F0 FF FF 7F 7A 30  30 34 1C 0A 80 5C 00 13  ......z004...\..
0290: 80 5C 01 13 80 AD 00 14  80 B2 41 00 01 B2 41 00  .\........A...A.
02A0: 01 AD 00 14 80 B3 41 00  01 B3 41 00 01 1C 09 80  ......A...A.....
02B0: 28 03 B1 41 00 01 16 48  15 80 2A 03 B1 41 00 01  (..A...H..*..A..
02C0: 4B B3 41 00 01 16 80 4B  B2 41 00 01 16 80 6F 76  K.A....K.A....ov
02D0: B2 41 00 01 6F 76 B3 41  00 01 23 9A 27 03 B2 41  .A..ov.A..#.'..A
02E0: 00 01 14 48 17 80 23 27  03 B2 41 00 01 15 27 03  ...H..#'..A...'.
02F0: B1 41 00 01 17 48 18 80  23 27 03 B1 41 00 01 18  .A...H..#'..A...
0300: 27 03 B3 41 00 01 14 48  19 80 23 27 03 B3 41 00  '..A...H..#'..A.
0310: 01 15 4B B2 41 00 01 1A  80 1C 0B 80 45 04 80 F0  ..K.A.......E...
0320: FF FF 7F F0 FF FF 7F 7A  30 30 35 01 80 55 04 80  .......z005..U..
0330: F0 FF FF 7F F0 FF FF 7F  7A 30 30 35 6F 76 B2 41  ........z005ov.A
0340: 00 01 27 03 B2 41 00 01  16 48 1B 80 1C 0B 80 4B  ..'..A...H.....K
0350: B1 41 00 01 1C 80 23 45  04 80 F0 FF FF 7F F0 FF  .A....#E........
0360: FF 7F 7A 30 30 36 01 80  27 03 B3 41 00 01 16 2A  ..z006..'..A...*
0370: 03 B2 41 00 01 6F 76 B1  41 00 01 27 03 B1 41 00  ..A..ov.A..'..A.
0380: 01 19 48 1D 80 23 2A 03  B1 41 00 01 55 04 80 F0  ..H..#*..A..U...
0390: FF FF 7F F0 FF FF 7F 7A  30 30 36 45 04 80 F0 FF  .......z006E....
03A0: FF 7F F0 FF FF 7F 7A 30  30 37 01 80 4B B2 41 00  ......z007..K.A.
03B0: 01 16 80 48 1E 80 23 6F  76 B1 41 00 01 55 04 80  ...H..#ov.A..U..
03C0: F0 FF FF 7F F0 FF FF 7F  7A 30 30 37 45 04 80 F0  ........z007E...
03D0: FF FF 7F F0 FF FF 7F 7A  30 30 38 01 80 6B 69 64  .......z008..kid
03E0: 6C 30 B2 41 00 01 6B 69  64 6C 30 B3 41 00 01 29  l0.A..kidl0.A..)
03F0: 03 B1 41 00 01 0C 55 04  80 F0 FF FF 7F F0 FF FF  ..A...U.........
0400: 7F 7A 30 30 38 28 04 B1  41 00 01 1A 48 1F 80 23  .z008(..A...H..#
0410: 48 20 80 23 2A 04 B1 41  00 01 27 03 B2 41 00 01  H .#*..A..'..A..
0420: 17 27 03 B3 41 00 01 17  48 21 80 45 22 80 F8 FF  .'..A...H!.E"...
0430: FF 7F F8 FF FF 7F 62 6C  6F 6E 01 80 45 23 80 F0  ......blon..E#..
0440: FF FF 7F F0 FF FF 7F 76  62 6F 6E 01 80 45 04 80  .......vbon..E..
0450: F0 FF FF 7F F0 FF FF 7F  7A 30 30 39 01 80 1C 24  ........z009...$
0460: 80 52 04 80 F0 FF FF 7F  F0 FF FF 7F 7A 30 30 39  .R..........z009
0470: 1C 0B 80 45 04 80 F0 FF  FF 7F F0 FF FF 7F 7A 30  ...E..........z0
0480: 30 39 01 80 1C 24 80 52  04 80 F0 FF FF 7F F0 FF  09...$.R........
0490: FF 7F 7A 30 30 39 1C 0B  80 45 04 80 F0 FF FF 7F  ..z009...E......
04A0: F0 FF FF 7F 7A 30 30 39  01 80 55 04 80 F0 FF FF  ....z009..U.....
04B0: 7F F0 FF FF 7F 7A 30 30  39 45 22 80 F8 FF FF 7F  .....z009E".....
04C0: F8 FF FF 7F 62 6C 6F 66  01 80 1C 24 80 5D 01 80  ....blof...$.]..
04D0: 09 80 45 00 80 F0 FF FF  7F F0 FF FF 7F 6F 76 6C  ..E..........ovl
04E0: 31 01 80 45 23 80 F0 FF  FF 7F F0 FF FF 7F 76 62  1..E#.........vb
04F0: 6F 66 01 80 45 04 80 F0  FF FF 7F F0 FF FF 7F 79  of..E..........y
0500: 30 30 30 01 80 1C 24 80  45 04 80 F0 FF FF 7F F0  000...$.E.......
0510: FF FF 7F 73 65 30 36 01  80 1C 0B 80 4A 96 41 00  ...se06.....J.A.
0520: 01 94 41 00 01 4A 94 41  00 01 96 41 00 01 1C 05  ..A..J.A...A....
0530: 80 4A 94 41 00 01 95 41  00 01 4A 95 41 00 01 94  .J.A...A..J.A...
0540: 41 00 01 1C 09 80 4A 96  41 00 01 B1 41 00 01 1C  A.....J.A...A...
0550: 0B 80 4A 94 41 00 01 B1  41 00 01 1C 24 80 4A 95  ..J.A...A...$.J.
0560: 41 00 01 B1 41 00 01 6B  69 64 6C 30 B1 41 00 01  A...A..kidl0.A..
0570: 55 04 80 F0 FF FF 7F F0  FF FF 7F 79 30 30 30 23  U..........y000#
0580: 27 03 B1 41 00 01 1B 1C  0B 80 45 04 80 F0 FF FF  '..A......E.....
0590: 7F F0 FF FF 7F 79 30 30  31 01 80 1C 0B 80 45 04  .....y001.....E.
05A0: 80 F0 FF FF 7F F0 FF FF  7F 73 65 30 37 01 80 2A  .........se07..*
05B0: 03 B1 41 00 01 55 04 80  F0 FF FF 7F F0 FF FF 7F  ..A..U..........
05C0: 79 30 30 31 27 03 B1 41  00 01 1C 1C 25 80 45 04  y001'..A....%.E.
05D0: 80 F0 FF FF 7F F0 FF FF  7F 73 65 30 38 01 80 2B  .........se08..+
05E0: B1 41 00 01 26 80 23 45  04 80 F0 FF FF 7F F0 FF  .A..&.#E........
05F0: FF 7F 79 30 30 32 01 80  55 04 80 F0 FF FF 7F F0  ..y002..U.......
0600: FF FF 7F 79 30 30 32 27  03 B2 41 00 01 19 1C 25  ...y002'..A....%
0610: 80 45 04 80 F0 FF FF 7F  F0 FF FF 7F 73 65 30 38  .E..........se08
0620: 01 80 2B B2 41 00 01 27  80 23 45 04 80 F0 FF FF  ..+.A..'.#E.....
0630: 7F F0 FF FF 7F 79 30 30  33 01 80 55 04 80 F0 FF  .....y003..U....
0640: FF 7F F0 FF FF 7F 79 30  30 33 27 03 B3 41 00 01  ......y003'..A..
0650: 19 1C 25 80 45 04 80 F0  FF FF 7F F0 FF FF 7F 73  ..%.E..........s
0660: 65 30 38 01 80 2B B3 41  00 01 28 80 23 45 04 80  e08..+.A..(.#E..
0670: F0 FF FF 7F F0 FF FF 7F  79 30 30 61 01 80 5D 29  ........y00a..])
0680: 80 0A 80 1C 0B 80 45 04  80 F0 FF FF 7F F0 FF FF  ......E.........
0690: 7F 73 65 30 39 01 80 4A  94 41 00 01 F0 FF FF 7F  .se09..J.A......
06A0: 4A 95 41 00 01 F0 FF FF  7F 4A 96 41 00 01 F0 FF  J.A......J.A....
06B0: FF 7F 28 04 B1 41 00 01  1D 28 04 B2 41 00 01 1C  ..(..A...(..A...
06C0: 28 04 B3 41 00 01 1C 55  04 80 F0 FF FF 7F F0 FF  (..A...U........
06D0: FF 7F 79 30 30 61 45 04  80 F0 FF FF 7F F0 FF FF  ..y00aE.........
06E0: 7F 79 30 30 34 01 80 1C  0B 80 45 04 80 F0 FF FF  .y004.....E.....
06F0: 7F F0 FF FF 7F 73 65 31  31 01 80 45 04 80 F0 FF  .....se11..E....
0700: FF 7F F0 FF FF 7F 73 6C  73 31 01 80 1C 2A 80 2B  ......sls1...*.+
0710: B2 41 00 01 2B 80 23 1C  09 80 2B B1 41 00 01 2C  .A..+.#...+.A..,
0720: 80 23 1C 09 80 2B B3 41  00 01 2D 80 23 1C 09 80  .#...+.A..-.#...
0730: 55 04 80 F0 FF FF 7F F0  FF FF 7F 79 30 30 34 45  U..........y004E
0740: 04 80 F0 FF FF 7F F0 FF  FF 7F 73 6C 65 31 01 80  ..........sle1..
0750: 45 00 80 F8 FF FF 7F F8  FF FF 7F 6F 76 6C 31 01  E..........ovl1.
0760: 80 02 87 7F 2E 80 80 8C  07 45 04 80 F0 FF FF 7F  .........E......
0770: F0 FF FF 7F 79 30 30 62  01 80 55 04 80 F0 FF FF  ....y00b..U.....
0780: 7F F0 FF FF 7F 79 30 30  62 01 D7 07 02 87 7F 2F  .....y00b....../
0790: 80 80 B7 07 45 04 80 F0  FF FF 7F F0 FF FF 7F 79  ....E..........y
07A0: 30 30 62 01 80 55 04 80  F0 FF FF 7F F0 FF FF 7F  00b..U..........
07B0: 79 30 30 62 01 D7 07 45  04 80 F0 FF FF 7F F0 FF  y00b...E........
07C0: FF 7F 79 30 30 35 01 80  55 04 80 F0 FF FF 7F F0  ..y005..U.......
07D0: FF FF 7F 79 30 30 35 1C  25 80 24 30 80 01 80 01  ...y005.%.$0....
07E0: 80 25 02 00 10 01 80 00  F9 07 6E F0 FF FF 7F 31  .%........n....1
07F0: 80 99 F0 FF FF 7F 01 10  08 02 00 10 03 80 00 10  ................
0800: 08 6E F0 FF FF 7F 32 80  99 F0 FF FF 7F 01 10 08  .n....2.........
0810: 1C 0F 80 45 04 80 F0 FF  FF 7F F0 FF FF 7F 79 30  ...E..........y0
0820: 30 36 01 80 4A 94 41 00  01 B1 41 00 01 4A 95 41  06..J.A...A..J.A
0830: 00 01 B1 41 00 01 4A 96  41 00 01 B1 41 00 01 27  ...A..J.A...A..'
0840: 03 B1 41 00 01 1E 27 03  B2 41 00 01 1D 27 03 B3  ..A...'..A...'..
0850: 41 00 01 1D 1C 2A 80 45  04 80 F0 FF FF 7F F0 FF  A....*.E........
0860: FF 7F 73 65 31 32 01 80  55 04 80 F0 FF FF 7F F0  ..se12..U.......
0870: FF FF 7F 79 30 30 36 1C  05 80 5D 01 80 09 80 02  ...y006...].....
0880: 00 10 01 80 80 92 08 2B  B1 41 00 01 33 80 23 01  .......+.A..3.#.
0890: A5 08 02 00 10 03 80 80  A5 08 2B B1 41 00 01 34  ..........+.A..4
08A0: 80 23 01 A5 08 2A 03 B1  41 00 01 45 04 80 F0 FF  .#...*..A..E....
08B0: FF 7F F0 FF FF 7F 79 30  30 37 01 80 5C 00 35 80  ......y007..\.5.
08C0: 5C 01 35 80 27 03 B1 41  00 01 20 2B B1 41 00 01  \.5.'..A.. +.A..
08D0: 36 80 23 55 04 80 F0 FF  FF 7F F0 FF FF 7F 79 30  6.#U..........y0
08E0: 30 37 45 04 80 F0 FF FF  7F F0 FF FF 7F 79 30 30  07E..........y00
08F0: 38 01 80 2C B1 41 00 01  B1 41 00 01 63 61 62 6B  8..,.A...A..cabk
0900: 2C B1 41 00 01 B1 41 00  01 63 61 62 6B 1C 37 80  ,.A...A..cabk.7.
0910: 45 23 80 F0 FF FF 7F F0  FF FF 7F 76 62 6F 6E 01  E#.........vbon.
0920: 80 2B B1 41 00 01 38 80  23 2C B2 41 00 01 B2 41  .+.A..8.#,.A...A
0930: 00 01 63 61 62 6B 1C 37  80 2B B2 41 00 01 39 80  ..cabk.7.+.A..9.
0940: 23 2C B3 41 00 01 B3 41  00 01 63 61 62 6B 1C 09  #,.A...A..cabk..
0950: 80 1C 25 80 2B B3 41 00  01 3A 80 23 1C 25 80 2C  ..%.+.A..:.#.%.,
0960: B1 41 00 01 B1 41 00 01  73 68 62 6B 2C B2 41 00  .A...A..shbk,.A.
0970: 01 B2 41 00 01 73 68 62  6B 2C B3 41 00 01 B3 41  ..A..shbk,.A...A
0980: 00 01 73 68 62 6B 27 03  F0 FF FF 7F 28 1C 25 80  ..shbk'.....(.%.
0990: 4E 00 9B 41 00 01 4E 00  9F 41 00 01 73 3B 80 9B  N..A..N..A..s;..
09A0: 41 00 01 9F 41 00 01 1C  0B 80 4E 00 93 41 00 01  A...A.....N..A..
09B0: 4E 00 A0 41 00 01 73 3B  80 93 41 00 01 A0 41 00  N..A..s;..A...A.
09C0: 01 4E 00 9A 41 00 01 4E  00 A1 41 00 01 73 3B 80  .N..A..N..A..s;.
09D0: 9A 41 00 01 A1 41 00 01  55 04 80 F0 FF FF 7F F0  .A...A..U.......
09E0: FF FF 7F 79 30 30 38 45  04 80 F0 FF FF 7F F0 FF  ...y008E........
09F0: FF 7F 79 30 30 39 01 80  1C 05 80 4E 00 9C 41 00  ..y009.....N..A.
0A00: 01 9F 3C 80 B1 41 00 01  9C 41 00 01 79 68 69 74  ..<..A...A..yhit
0A10: 01 80 1C 05 80 45 3D 80  F0 FF FF 7F F0 FF FF 7F  .....E=.........
0A20: 77 68 6F 31 01 80 55 3D  80 F0 FF FF 7F F0 FF FF  who1..U=........
0A30: 7F 77 68 6F 31 55 04 80  F0 FF FF 7F F0 FF FF 7F  .who1U..........
0A40: 79 30 30 39 45 00 80 F0  FF FF 7F F0 FF FF 7F 66  y009E..........f
0A50: 64 6F 31 01 80 55 00 80  F0 FF FF 7F F0 FF FF 7F  do1..U..........
0A60: 66 64 6F 31 45 3D 80 F0  FF FF 7F F0 FF FF 7F 77  fdo1E=.........w
0A70: 68 69 31 01 80 45 04 80  F0 FF FF 7F F0 FF FF 7F  hi1..E..........
0A80: 78 30 30 30 01 80 4E 00  92 41 00 01 27 03 92 41  x000..N..A..'..A
0A90: 00 01 5D 4E 01 93 41 00  01 4E 01 A0 41 00 01 4E  ..]N..A..N..A..N
0AA0: 01 9A 41 00 01 4E 01 A1  41 00 01 4E 01 9B 41 00  ..A..N..A..N..A.
0AB0: 01 4E 01 9F 41 00 01 1C  09 80 45 23 80 F0 FF FF  .N..A.....E#....
0AC0: 7F F0 FF FF 7F 76 62 6F  66 01 80 45 00 80 F0 FF  .....vbof..E....
0AD0: FF 7F F0 FF FF 7F 66 64  69 32 01 80 1C 05 80 45  ......fdi2.....E
0AE0: 04 80 F0 FF FF 7F F0 FF  FF 7F 73 65 30 30 01 80  ..........se00..
0AF0: 45 04 80 F0 FF FF 7F F0  FF FF 7F 73 6C 73 30 01  E..........sls0.
0B00: 80 55 04 80 F0 FF FF 7F  F0 FF FF 7F 78 30 30 30  .U..........x000
0B10: 79 00 F0 FF FF 7F 92 41  00 01 1C 11 80 4A B3 41  y......A.....J.A
0B20: 00 01 92 41 00 01 4A B2  41 00 01 92 41 00 01 4A  ...A..J.A...A..J
0B30: B1 41 00 01 92 41 00 01  45 04 80 F0 FF FF 7F F0  .A...A..E.......
0B40: FF FF 7F 73 65 30 32 01  80 27 03 94 41 00 01 04  ...se02..'..A...
0B50: 27 03 95 41 00 01 04 27  03 96 41 00 01 04 1C 0A  '..A...'..A.....
0B60: 80 45 04 80 F0 FF FF 7F  F0 FF FF 7F 73 6C 65 30  .E..........sle0
0B70: 01 80 27 03 F0 FF FF 7F  29 1C 09 80 A4 01 2B 92  ..'.....).....+.
0B80: 41 00 01 3E 80 23 45 04  80 F0 FF FF 7F F0 FF FF  A..>.#E.........
0B90: 7F 78 30 30 31 01 80 4E  01 9C 41 00 01 2B 92 41  .x001..N..A..+.A
0BA0: 00 01 3F 80 23 55 04 80  F0 FF FF 7F F0 FF FF 7F  ..?.#U..........
0BB0: 78 30 30 31 45 04 80 F0  FF FF 7F F0 FF FF 7F 78  x001E..........x
0BC0: 30 30 32 01 80 27 03 B3  41 00 01 1A 2B B3 41 00  002..'..A...+.A.
0BD0: 01 40 80 1C 41 80 23 27  03 B2 41 00 01 12 2B B2  .@..A.#'..A...+.
0BE0: 41 00 01 42 80 23 55 04  80 F0 FF FF 7F F0 FF FF  A..B.#U.........
0BF0: 7F 78 30 30 32 45 04 80  F0 FF FF 7F F0 FF FF 7F  .x002E..........
0C00: 78 30 30 34 01 80 27 03  92 41 00 01 5F 27 03 B1  x004..'..A.._'..
0C10: 41 00 01 21 2B B1 41 00  01 43 80 23 55 04 80 F0  A..!+.A..C.#U...
0C20: FF FF 7F F0 FF FF 7F 78  30 30 34 45 04 80 F0 FF  .......x004E....
0C30: FF 7F F0 FF FF 7F 78 30  30 35 01 80 81 00 92 41  ......x005.....A
0C40: 00 01 1C 25 80 2B 92 41  00 01 44 80 23 55 04 80  ...%.+.A..D.#U..
0C50: F0 FF FF 7F F0 FF FF 7F  78 30 30 35 27 03 B2 41  ........x005'..A
0C60: 00 01 17 27 03 B3 41 00  01 17 27 03 B1 41 00 01  ...'..A...'..A..
0C70: 22 2B 92 41 00 01 45 80  23 27 03 92 41 00 01 65  "+.A..E.#'..A..e
0C80: 2B 92 41 00 01 46 80 23  45 04 80 F0 FF FF 7F F0  +.A..F.#E.......
0C90: FF FF 7F 78 30 30 36 01  80 81 01 92 41 00 01 27  ...x006.....A..'
0CA0: 03 B1 41 00 01 1C 2B B1  41 00 01 47 80 23 2B B1  ..A...+.A..G.#+.
0CB0: 41 00 01 48 80 23 2A 03  B1 41 00 01 55 04 80 F0  A..H.#*..A..U...
0CC0: FF FF 7F F0 FF FF 7F 78  30 30 36 45 04 80 F0 FF  .......x006E....
0CD0: FF 7F F0 FF FF 7F 79 30  30 38 01 80 45 23 80 F0  ......y008..E#..
0CE0: FF FF 7F F0 FF FF 7F 76  62 6F 6E 01 80 27 03 B3  .......vbon..'..
0CF0: 41 00 01 1E 6B 69 64 6C  30 B2 41 00 01 2C B1 41  A...kidl0.A..,.A
0D00: 00 01 B1 41 00 01 63 61  62 6B 1C 37 80 2B B1 41  ...A..cabk.7.+.A
0D10: 00 01 38 80 23 2C B2 41  00 01 B2 41 00 01 63 61  ..8.#,.A...A..ca
0D20: 62 6B 1C 37 80 2B B2 41  00 01 39 80 23 1C 37 80  bk.7.+.A..9.#.7.
0D30: 27 03 B3 41 00 01 1F 2B  B3 41 00 01 49 80 23 1C  '..A...+.A..I.#.
0D40: 0B 80 2C B1 41 00 01 B1  41 00 01 73 68 62 6B 2C  ..,.A...A..shbk,
0D50: B2 41 00 01 B2 41 00 01  73 68 62 6B 1C 4A 80 52  .A...A..shbk.J.R
0D60: 04 80 F0 FF FF 7F F0 FF  FF 7F 79 30 30 38 45 04  ..........y008E.
0D70: 80 F0 FF FF 7F F0 FF FF  7F 78 30 30 37 01 80 9F  .........x007...
0D80: 4B 80 B3 41 00 01 92 41  00 01 69 77 30 30 01 80  K..A...A..iw00..
0D90: 1C 4C 80 52 04 80 F0 FF  FF 7F F0 FF FF 7F 78 30  .L.R..........x0
0DA0: 30 37 45 04 80 F0 FF FF  7F F0 FF FF 7F 78 30 30  07E..........x00
0DB0: 38 01 80 55 04 80 F0 FF  FF 7F F0 FF FF 7F 78 30  8..U..........x0
0DC0: 30 38 45 3D 80 F8 FF FF  7F F8 FF FF 7F 77 68 6F  08E=.........who
0DD0: 31 01 80 55 3D 80 F8 FF  FF 7F F8 FF FF 7F 77 68  1..U=.........wh
0DE0: 6F 31 45 00 80 F0 FF FF  7F F0 FF FF 7F 66 64 6F  o1E..........fdo
0DF0: 31 01 80 55 00 80 F0 FF  FF 7F F0 FF FF 7F 66 64  1..U..........fd
0E00: 6F 31 45 23 80 F0 FF FF  7F F0 FF FF 7F 76 62 6F  o1E#.........vbo
0E10: 66 01 80 27 03 F0 FF FF  7F 28 2C 92 41 00 01 92  f..'.....(,.A...
0E20: 41 00 01 63 6F 72 70 1C  11 80 5B 4D 80 92 41 00  A..corp...[M..A.
0E30: 01 92 41 00 01 90 FF FF  FF 45 3D 80 F0 FF FF 7F  ..A......E=.....
0E40: F0 FF FF 7F 77 68 69 31  01 80 5D 01 80 4E 80 1C  ....whi1..]..N..
0E50: 0A 80 45 04 80 F0 FF FF  7F F0 FF FF 7F 77 30 30  ..E..........w00
0E60: 30 01 80 45 00 80 F0 FF  FF 7F F0 FF FF 7F 66 64  0..E..........fd
0E70: 69 32 01 80 55 00 80 F0  FF FF 7F F0 FF FF 7F 66  i2..U..........f
0E80: 64 69 32 52 04 80 F0 FF  FF 7F F0 FF FF 7F 77 30  di2R..........w0
0E90: 30 30 45 00 80 F8 FF FF  7F F8 FF FF 7F 6F 76 6C  00E..........ovl
0EA0: 31 01 80 45 04 80 F0 FF  FF 7F F0 FF FF 7F 77 30  1..E..........w0
0EB0: 30 31 01 80 55 04 80 F0  FF FF 7F F0 FF FF 7F 77  01..U..........w
0EC0: 30 30 31 27 03 B3 41 00  01 20 2B B3 41 00 01 4F  001'..A.. +.A..O
0ED0: 80 23 27 03 B2 41 00 01  1E 2B B2 41 00 01 50 80  .#'..A...+.A..P.
0EE0: 23 2A 03 B2 41 00 01 27  03 B1 41 00 01 0D 1C 24  #*..A..'..A....$
0EF0: 80 27 03 B2 41 00 01 0C  45 04 80 F0 FF FF 7F F0  .'..A...E.......
0F00: FF FF 7F 77 30 30 32 01  80 1C 0B 80 27 03 B3 41  ...w002.....'..A
0F10: 00 01 0C 2A 03 B1 41 00  01 2B B1 41 00 01 51 80  ...*..A..+.A..Q.
0F20: 23 2A 03 B2 41 00 01 2A  03 B3 41 00 01 55 04 80  #*..A..*..A..U..
0F30: F0 FF FF 7F F0 FF FF 7F  77 30 30 32 1C 05 80 2B  ........w002...+
0F40: 92 41 00 01 52 80 23 1C  09 80 27 03 B1 41 00 01  .A..R.#...'..A..
0F50: 27 27 03 B2 41 00 01 21  27 03 B3 41 00 01 23 27  ''..A..!'..A..#'
0F60: 03 92 41 00 01 61 1C 09  80 45 04 80 F0 FF FF 7F  ..A..a...E......
0F70: F0 FF FF 7F 77 30 30 34  01 80 2B 92 41 00 01 53  ....w004..+.A..S
0F80: 80 23 1C 0B 80 55 04 80  F0 FF FF 7F F0 FF FF 7F  .#...U..........
0F90: 77 30 30 34 2A 03 92 41  00 01 1C 09 80 45 04 80  w004*..A.....E..
0FA0: F0 FF FF 7F F0 FF FF 7F  77 30 30 33 01 80 27 03  ........w003..'.
0FB0: F0 FF FF 7F 29 27 03 B1  41 00 01 19 27 03 B2 41  ....)'..A...'..A
0FC0: 00 01 1F 27 03 B3 41 00  01 21 2B B1 41 00 01 54  ...'..A..!+.A..T
0FD0: 80 23 55 04 80 F0 FF FF  7F F0 FF FF 7F 77 30 30  .#U..........w00
0FE0: 33 1C 2E 80 45 04 80 F0  FF FF 7F F0 FF FF 7F 77  3...E..........w
0FF0: 30 30 35 01 80 6B 69 64  6C 30 B1 41 00 01 6B 69  005..kidl0.A..ki
1000: 64 6C 30 B2 41 00 01 6B  69 64 6C 30 B3 41 00 01  dl0.A..kidl0.A..
1010: 2B 92 41 00 01 55 80 23  55 04 80 F0 FF FF 7F F0  +.A..U.#U.......
1020: FF FF 7F 77 30 30 35 45  04 80 F0 FF FF 7F F0 FF  ...w005E........
1030: FF 7F 77 30 30 36 01 80  5C 00 56 80 5C 01 56 80  ..w006..\.V.\.V.
1040: 9A 2B 92 41 00 01 57 80  23 55 04 80 F0 FF FF 7F  .+.A..W.#U......
1050: F0 FF FF 7F 77 30 30 36  81 00 B1 41 00 01 81 00  ....w006...A....
1060: B2 41 00 01 81 00 B3 41  00 01 45 00 80 F8 FF FF  .A.....A..E.....
1070: 7F F8 FF FF 7F 6F 76 6C  31 01 80 45 04 80 F0 FF  .....ovl1..E....
1080: FF 7F F0 FF FF 7F 77 30  30 38 01 80 1C 09 80 2B  ......w008.....+
1090: B1 41 00 01 58 80 23 55  04 80 F0 FF FF 7F F0 FF  .A..X.#U........
10A0: FF 7F 77 30 30 38 45 00  80 F8 FF FF 7F F8 FF FF  ..w008E.........
10B0: 7F 6F 76 6C 31 01 80 45  04 80 F0 FF FF 7F F0 FF  .ovl1..E........
10C0: FF 7F 77 30 30 37 01 80  1C 05 80 2B B2 41 00 01  ..w007.....+.A..
10D0: 59 80 23 55 04 80 F0 FF  FF 7F F0 FF FF 7F 77 30  Y.#U..........w0
10E0: 30 37 45 00 80 F8 FF FF  7F F8 FF FF 7F 6F 76 6C  07E..........ovl
10F0: 31 01 80 45 04 80 F0 FF  FF 7F F0 FF FF 7F 77 30  1..E..........w0
1100: 30 39 01 80 1C 09 80 2B  B3 41 00 01 5A 80 23 55  09.....+.A..Z.#U
1110: 04 80 F0 FF FF 7F F0 FF  FF 7F 77 30 30 39 81 01  ..........w009..
1120: B1 41 00 01 81 01 B2 41  00 01 81 01 B3 41 00 01  .A.....A.....A..
1130: 45 04 80 F0 FF FF 7F F0  FF FF 7F 76 30 30 30 01  E..........v000.
1140: 80 29 03 92 41 00 01 58  2B 92 41 00 01 5B 80 23  .)..A..X+.A..[.#
1150: 55 04 80 F0 FF FF 7F F0  FF FF 7F 76 30 30 30 45  U..........v000E
1160: 04 80 F0 FF FF 7F F0 FF  FF 7F 76 30 30 31 01 80  ..........v001..
1170: 55 04 80 F0 FF FF 7F F0  FF FF 7F 76 30 30 31 27  U..........v001'
1180: 03 92 41 00 01 62 3A B1  41 00 01 00 00 07 00 00  ..A..b:.A.......
1190: 5C 80 4B B1 41 00 01 00  00 4A B3 41 00 01 B1 41  \.K.A....J.A...A
11A0: 00 01 4A B2 41 00 01 B1  41 00 01 1C 0F 80 79 00  ..J.A...A.....y.
11B0: B3 41 00 01 92 41 00 01  79 00 B2 41 00 01 92 41  .A...A..y..A...A
11C0: 00 01 27 03 B3 41 00 01  0D 2B B3 41 00 01 5D 80  ..'..A...+.A..].
11D0: 23 1C 25 80 27 03 B2 41  00 01 0D 2B B2 41 00 01  #.%.'..A...+.A..
11E0: 5E 80 23 1C 25 80 4A B1  41 00 01 92 41 00 01 6F  ^.#.%.J.A...A..o
11F0: 76 B1 41 00 01 2B B1 41  00 01 5F 80 23 7B B3 41  v.A..+.A.._.#{.A
1200: 00 01 7B B2 41 00 01 2A  03 B3 41 00 01 2A 03 B3  ..{.A..*..A..*..
1210: 41 00 01 27 03 B1 41 00  01 23 1C 37 80 5D 01 80  A..'..A..#.7.]..
1220: 09 80 45 04 80 F0 FF FF  7F F0 FF FF 7F 76 30 30  ..E..........v00
1230: 32 01 80 55 04 80 F0 FF  FF 7F F0 FF FF 7F 76 30  2..U..........v0
1240: 30 32 2B B1 41 00 01 60  80 7B B1 41 00 01 3A B1  02+.A..`.{.A..:.
1250: 41 00 01 00 00 08 00 00  61 80 4B B1 41 00 01 00  A.......a.K.A...
1260: 00 6F 76 B1 41 00 01 5D  29 80 09 80 29 03 B1 41  .ov.A..])...)..A
1270: 00 01 1A 23 45 00 80 F8  FF FF 7F F8 FF FF 7F 6F  ...#E..........o
1280: 76 6C 31 01 80 45 04 80  F0 FF FF 7F F0 FF FF 7F  vl1..E..........
1290: 76 30 30 33 01 80 81 00  B1 41 00 01 81 00 B2 41  v003.....A.....A
12A0: 00 01 81 00 B3 41 00 01  27 02 B1 41 00 01 24 27  .....A..'..A..$'
12B0: 03 B1 41 00 01 25 1C 09  80 2B 92 41 00 01 62 80  ..A..%...+.A..b.
12C0: 23 2B 92 41 00 01 63 80  23 28 03 B1 41 00 01 25  #+.A..c.#(..A..%
12D0: 52 04 80 F0 FF FF 7F F0  FF FF 7F 76 30 30 33 45  R..........v003E
12E0: 00 80 F8 FF FF 7F F8 FF  FF 7F 6F 76 6C 31 01 80  ..........ovl1..
12F0: 45 04 80 F0 FF FF 7F F0  FF FF 7F 76 30 30 34 01  E..........v004.
1300: 80 1C 09 80 2B B3 41 00  01 64 80 23 1C 09 80 2B  ....+.A..d.#...+
1310: B2 41 00 01 65 80 23 1C  09 80 2B B1 41 00 01 66  .A..e.#...+.A..f
1320: 80 23 55 04 80 F0 FF FF  7F F0 FF FF 7F 76 30 30  .#U..........v00
1330: 34 1C 05 80 45 00 80 F0  FF FF 7F F0 FF FF 7F 6F  4...E..........o
1340: 76 6C 31 01 80 45 04 80  F0 FF FF 7F F0 FF FF 7F  vl1..E..........
1350: 76 30 30 33 01 80 1C 09  80 2B 92 41 00 01 67 80  v003.....+.A..g.
1360: 23 2B 92 41 00 01 68 80  23 52 04 80 F0 FF FF 7F  #+.A..h.#R......
1370: F0 FF FF 7F 76 30 30 33  45 00 80 F8 FF FF 7F F8  ....v003E.......
1380: FF FF 7F 6F 76 6C 31 01  80 45 04 80 F0 FF FF 7F  ...ovl1..E......
1390: F0 FF FF 7F 76 30 30 35  01 80 1C 05 80 2B B2 41  ....v005.....+.A
13A0: 00 01 69 80 23 1C 05 80  2B B1 41 00 01 6A 80 23  ..i.#...+.A..j.#
13B0: 1C 0F 80 2B B3 41 00 01  6B 80 1C 10 80 5D 01 80  ...+.A..k....]..
13C0: 6C 80 45 00 80 F0 FF FF  7F F0 FF FF 7F 66 64 6F  l.E..........fdo
13D0: 32 01 80 55 00 80 F0 FF  FF 7F F0 FF FF 7F 66 64  2..U..........fd
13E0: 6F 32 52 04 80 F0 FF FF  7F F0 FF FF 7F 76 30 30  o2R..........v00
13F0: 35 1C 10 80 23 4E 00 92  41 00 01 81 01 B1 41 00  5...#N..A.....A.
1400: 01 81 01 B2 41 00 01 81  01 B3 41 00 01 81 01 92  ....A.....A.....
1410: 41 00 01 6B 69 64 6C 30  B1 41 00 01 6B 69 64 6C  A..kidl0.A..kidl
1420: 30 B2 41 00 01 6B 69 64  6C 30 B3 41 00 01 6B 69  0.A..kidl0.A..ki
1430: 64 6C 30 92 41 00 01 27  03 B1 41 00 01 0E 27 03  dl0.A..'..A...'.
1440: B2 41 00 01 0E 27 03 B3  41 00 01 0E 27 03 92 41  .A...'..A...'..A
1450: 00 01 59 5C 00 6D 80 5C  01 6D 80 1C 11 80 9A 27  ..Y\.m.\.m.....'
1460: 03 F0 FF FF 7F 27 1C 6E  80 28 04 92 41 00 01 5A  .....'.n.(..A..Z
1470: 1C 0B 80 28 04 B1 41 00  01 0F 28 04 B2 41 00 01  ...(..A...(..A..
1480: 0F 28 04 B3 41 00 01 0F  45 04 80 F0 FF FF 7F F0  .(..A...E.......
1490: FF FF 7F 74 30 30 30 01  80 45 00 80 F0 FF FF 7F  ...t000..E......
14A0: F0 FF FF 7F 66 64 69 31  01 80 55 00 80 F0 FF FF  ....fdi1..U.....
14B0: 7F F0 FF FF 7F 66 64 69  31 2A 04 B1 41 00 01 2A  .....fdi1*..A..*
14C0: 04 B2 41 00 01 2A 04 B3  41 00 01 2A 04 92 41 00  ..A..*..A..*..A.
14D0: 01 2A 03 F0 FF FF 7F 45  04 80 F0 FF FF 7F F0 FF  .*.....E........
14E0: FF 7F 74 30 30 31 01 80  2B 92 41 00 01 6F 80 23  ..t001..+.A..o.#
14F0: 2B 92 41 00 01 70 80 23  52 04 80 F0 FF FF 7F F0  +.A..p.#R.......
1500: FF FF 7F 74 30 30 31 45  04 80 F0 FF FF 7F F0 FF  ...t001E........
1510: FF 7F 74 30 30 32 01 80  2B 92 41 00 01 71 80 23  ..t002..+.A..q.#
1520: 2B 92 41 00 01 72 80 23  52 04 80 F0 FF FF 7F F0  +.A..r.#R.......
1530: FF FF 7F 74 30 30 32 45  04 80 F0 FF FF 7F F0 FF  ...t002E........
1540: FF 7F 74 30 30 33 01 80  2B 92 41 00 01 73 80 23  ..t003..+.A..s.#
1550: 4A 92 41 00 01 B1 41 00  01 6F 76 92 41 00 01 2B  J.A...A..ov.A..+
1560: 92 41 00 01 74 80 23 4A  92 41 00 01 F0 FF FF 7F  .A..t.#J.A......
1570: 6F 76 92 41 00 01 55 04  80 F0 FF FF 7F F0 FF FF  ov.A..U.........
1580: 7F 74 30 30 33 45 04 80  F0 FF FF 7F F0 FF FF 7F  .t003E..........
1590: 74 30 30 34 01 80 27 03  92 41 00 01 63 2B 92 41  t004..'..A..c+.A
15A0: 00 01 75 80 23 55 04 80  F0 FF FF 7F F0 FF FF 7F  ..u.#U..........
15B0: 74 30 30 34 45 04 80 F0  FF FF 7F F0 FF FF 7F 74  t004E..........t
15C0: 30 30 36 01 80 6B 69 64  6C 30 92 41 00 01 7B 92  006..kidl0.A..{.
15D0: 41 00 01 27 03 B1 41 00  01 26 2B B1 41 00 01 76  A..'..A..&+.A..v
15E0: 80 23 55 04 80 F0 FF FF  7F F0 FF FF 7F 74 30 30  .#U..........t00
15F0: 36 45 04 80 F0 FF FF 7F  F0 FF FF 7F 74 30 30 35  6E..........t005
1600: 01 80 27 03 B2 41 00 01  20 2B B2 41 00 01 77 80  ..'..A.. +.A..w.
1610: 23 55 04 80 F0 FF FF 7F  F0 FF FF 7F 74 30 30 35  #U..........t005
1620: 45 04 80 F0 FF FF 7F F0  FF FF 7F 74 30 30 37 01  E..........t007.
1630: 80 27 03 B3 41 00 01 22  2B B3 41 00 01 78 80 23  .'..A.."+.A..x.#
1640: 55 04 80 F0 FF FF 7F F0  FF FF 7F 74 30 30 37 45  U..........t007E
1650: 04 80 F0 FF FF 7F F0 FF  FF 7F 74 30 30 62 01 80  ..........t00b..
1660: 55 04 80 F0 FF FF 7F F0  FF FF 7F 74 30 30 62 27  U..........t00b'
1670: 03 B1 41 00 01 10 27 03  B3 41 00 01 10 27 03 B2  ..A...'..A...'..
1680: 41 00 01 10 3A 92 41 00  01 00 00 08 00 00 79 80  A...:.A.......y.
1690: 4B 92 41 00 01 00 00 27  03 B1 41 00 01 11 27 03  K.A....'..A...'.
16A0: B3 41 00 01 11 27 03 B2  41 00 01 11 1C 25 80 79  .A...'..A....%.y
16B0: 00 92 41 00 01 B1 41 00  01 45 04 80 F0 FF FF 7F  ..A...A..E......
16C0: F0 FF FF 7F 74 30 30 38  01 80 2B 92 41 00 01 7A  ....t008..+.A..z
16D0: 80 23 55 04 80 F0 FF FF  7F F0 FF FF 7F 74 30 30  .#U..........t00
16E0: 38 1C 09 80 45 04 80 F0  FF FF 7F F0 FF FF 7F 74  8...E..........t
16F0: 30 30 39 01 80 55 04 80  F0 FF FF 7F F0 FF FF 7F  009..U..........
1700: 74 30 30 39 4A 92 41 00  01 F0 FF FF 7F 6F 76 92  t009J.A......ov.
1710: 41 00 01 27 03 92 41 00  01 64 2B 92 41 00 01 7B  A..'..A..d+.A..{
1720: 80 23 2A 03 92 41 00 01  2B 92 41 00 01 7C 80 1C  .#*..A..+.A..|..
1730: 0B 80 6E 92 41 00 01 03  80 99 92 41 00 01 1C 7D  ..n.A......A...}
1740: 80 23 27 03 92 41 00 01  5B 1C 05 80 45 04 80 F0  .#'..A..[...E...
1750: FF FF 7F F0 FF FF 7F 74  30 30 61 01 80 1C 0F 80  .......t00a.....
1760: 27 02 92 41 00 01 5C 1C  7E 80 5D 01 80 10 80 1A  '..A..\.~.].....
1770: 99 18 52 04 80 F0 FF FF  7F F0 FF FF 7F 74 30 30  ..R..........t00
1780: 61 1C 11 80 5C 00 01 80  5C 01 01 80 9A 46 00 45  a...\...\....F.E
1790: 00 80 F0 FF FF 7F F0 FF  FF 7F 66 64 69 32 01 80  ..........fdi2..
17A0: 21 00 92 01 B1 41 00 01  92 01 B2 41 00 01 92 01  !....A.....A....
17B0: B3 41 00 01 92 01 91 41  00 01 92 01 92 41 00 01  .A.....A.....A..
17C0: 92 01 94 41 00 01 92 01  95 41 00 01 92 01 96 41  ...A.....A.....A
17D0: 00 01 94 01 F0 FF FF 7F  94 01 B1 41 00 01 94 01  ...........A....
17E0: B2 41 00 01 94 01 B3 41  00 01 94 01 91 41 00 01  .A.....A.....A..
17F0: 94 01 92 41 00 01 94 01  94 41 00 01 94 01 95 41  ...A.....A.....A
1800: 00 01 94 01 96 41 00 01  80 F0 FF FF 7F 80 B1 41  .....A.........A
1810: 00 01 80 B2 41 00 01 80  B3 41 00 01 80 91 41 00  ....A....A....A.
1820: 01 80 92 41 00 01 80 94  41 00 01 80 95 41 00 01  ...A....A....A..
1830: 80 96 41 00 01 1B 45 00  80 F0 FF FF 7F F0 FF FF  ..A...E.........
1840: 7F 66 64 69 30 01 80 55  00 80 F0 FF FF 7F F0 FF  .fdi0..U........
1850: FF 7F 66 64 69 30 1B 45  00 80 F0 FF FF 7F F0 FF  ..fdi0.E........
1860: FF 7F 66 64 6F 30 01 80  55 00 80 F0 FF FF 7F F0  ..fdo0..U.......
1870: FF FF 7F 66 64 6F 30 1B  45 00 80 F0 FF FF 7F F0  ...fdo0.E.......
1880: FF FF 7F 66 64 69 31 01  80 55 00 80 F0 FF FF 7F  ...fdi1..U......
1890: F0 FF FF 7F 66 64 69 31  1B 45 00 80 F0 FF FF 7F  ....fdi1.E......
18A0: F0 FF FF 7F 66 64 6F 31  01 80 55 00 80 F0 FF FF  ....fdo1..U.....
18B0: 7F F0 FF FF 7F 66 64 6F  31 1B 45 3D 80 F0 FF FF  .....fdo1.E=....
18C0: 7F F0 FF FF 7F 77 68 69  31 01 80 55 3D 80 F0 FF  .....whi1..U=...
18D0: FF 7F F0 FF FF 7F 77 68  69 31 1B 45 3D 80 F0 FF  ......whi1.E=...
18E0: FF 7F F0 FF FF 7F 77 68  6F 31 01 80 55 3D 80 F0  ......who1..U=..
18F0: FF FF 7F F0 FF FF 7F 77  68 6F 31 1B 45 3D 80 F0  .......who1.E=..
1900: FF FF 7F F0 FF FF 7F 77  68 6F 32 01 80 55 3D 80  .......who2..U=.
1910: F0 FF FF 7F F0 FF FF 7F  77 68 6F 32 1B 45 3D 80  ........who2.E=.
1920: F0 FF FF 7F F0 FF FF 7F  77 68 6F 33 01 80 55 3D  ........who3..U=
1930: 80 F0 FF FF 7F F0 FF FF  7F 77 68 6F 33 1B 62 03  .........who3.b.
1940: 80 F0 FF FF 7F F0 FF FF  7F 6D 61 69 6E 01 80 1C  .........main...
1950: 37 80 45 00 80 F0 FF FF  7F F0 FF FF 7F 66 64 6F  7.E..........fdo
1960: 31 01 80 55 00 80 F0 FF  FF 7F F0 FF FF 7F 66 64  1..U..........fd
1970: 6F 31 1B 45 00 80 F0 FF  FF 7F F0 FF FF 7F 66 64  o1.E..........fd
1980: 69 31 01 80 62 7F 80 F0  FF FF 7F F0 FF FF 7F 6D  i1..b..........m
1990: 61 69 6E 01 80 1C 09 80  55 00 80 F0 FF FF 7F F0  ain.....U.......
19A0: FF FF 7F 66 64 69 31 1B  45 00 80 F0 FF FF 7F F0  ...fdi1.E.......
19B0: FF FF 7F 62 6C 6F 6E 01  80 45 3D 80 F0 FF FF 7F  ...blon..E=.....
19C0: F0 FF FF 7F 62 6C 6F 6E  01 80 1B 45 3D 80 F0 FF  ....blon...E=...
19D0: FF 7F F0 FF FF 7F 77 68  69 30 01 80 55 3D 80 F0  ......whi0..U=..
19E0: FF FF 7F F0 FF FF 7F 77  68 69 30 1B 45 3D 80 F0  .......whi0.E=..
19F0: FF FF 7F F0 FF FF 7F 77  68 6F 30 01 80 55 3D 80  .......who0..U=.
1A00: F0 FF FF 7F F0 FF FF 7F  77 68 6F 30 1B 45 80 80  ........who0.E..
1A10: F0 FF FF 7F F0 FF FF 7F  65 66 6F 6E 01 80 55 80  ........efon..U.
1A20: 80 F0 FF FF 7F F0 FF FF  7F 65 66 6F 6E 1B 45 00  .........efon.E.
1A30: 80 F0 FF FF 7F F0 FF FF  7F 66 64 69 73 01 80 1B  .........fdis...
1A40: 45 00 80 F0 FF FF 7F F0  FF FF 7F 66 64 6F 73 01  E..........fdos.
1A50: 80 55 00 80 F0 FF FF 7F  F0 FF FF 7F 66 64 6F 73  .U..........fdos
1A60: 1B 45 00 80 F0 FF FF 7F  F0 FF FF 7F 66 64 69 66  .E..........fdif
1A70: 01 80 1B 45 00 80 F0 FF  FF 7F F0 FF FF 7F 66 64  ...E..........fd
1A80: 6F 66 01 80 55 00 80 F0  FF FF 7F F0 FF FF 7F 66  of..U..........f
1A90: 64 6F 66 1B 45 00 80 F0  FF FF 7F F0 FF FF 7F 66  dof.E..........f
1AA0: 64 69 70 01 80 1B 45 00  80 F0 FF FF 7F F0 FF FF  dip...E.........
1AB0: 7F 66 64 6F 70 01 80 55  00 80 F0 FF FF 7F F0 FF  .fdop..U........
1AC0: FF 7F 66 64 6F 70 1B                              ..fdop.         
```

#### Opcodes

```
  0: 0x0001 [0x20] SET_CLI_EVENT_UC_FLAG: Lock player control
  1: 0x0003 [0x46] CAMERA_CONTROL: Disable user control
  2: 0x0005 [0x42] SET_CLI_EVENT_CANCEL_DATA()
  3: 0x0006 [0x45] LOAD_SCHEDULED_TASK: Load scheduler "fdo1" with entities [LocalPlayer, LocalPlayer], work=[200*, 0*]
  4: 0x0017 [0x55] WAIT_LOAD_SCHEDULER: Wait for scheduler "fdo1" with entities [LocalPlayer, LocalPlayer], work=200*
  5: 0x0026 [0x94] LocalPlayer->Render.Flags3 ^= 0x01
  6: 0x002C [0x38] SET_CLIENT_EVENT_MODE(mode=19*)
  7: 0x002F [0x27] REQ_SET(priority=0x03, entity_id=LocalPlayer, tag_num=0x25)
  8: 0x0036 [0x79] LocalPlayer looks at LocalPlayer (Basic look)
  9: 0x0040 [0x97] SAVE_SET_WIND_VALUES(wind_base=0x8001, wind_width=0x8003)
 10: 0x0045 [0x1A] CALL_SUBROUTINE(address=0x17A2)
 11: 0x0048 [0x45] LOAD_SCHEDULED_TASK: Load scheduler "z000" with entities [LocalPlayer, LocalPlayer], work=[86*, 0*]
 12: 0x0059 [0x45] LOAD_SCHEDULED_TASK: Load scheduler "fdi1" with entities [LocalPlayer, LocalPlayer], work=[200*, 0*]
 13: 0x006A [0x55] WAIT_LOAD_SCHEDULER: Wait for scheduler "fdi1" with entities [LocalPlayer, LocalPlayer], work=200*
 14: 0x0079 [0x1C] WAIT(60* ticks)
 15: 0x007C [0x2B] ??? Warmachine (ID: 16794001/0x01004191) [7638*]:
    → "..."
 16: 0x0083 [0x23] WAIT_FOR_DIALOG_INTERACTION
 17: 0x0084 [0x55] WAIT_LOAD_SCHEDULER: Wait for scheduler "z000" with entities [LocalPlayer, LocalPlayer], work=86*
 18: 0x0093 [0x48] [System] [7639*]:
    → "Nothing happens."
 19: 0x0096 [0x23] WAIT_FOR_DIALOG_INTERACTION
 20: 0x0097 [0x5C] MUSIC_CONTROL: Set Idle (Day) music to song 163*
 21: 0x009B [0x5C] MUSIC_CONTROL: Set Idle (Night) music to song 163*
 22: 0x009F [0x9A] WAIT_MUSIC_SERVER()
 23: 0x00A0 [0x4A] LocalPlayer looks at Mame01 (ID: 16794004/0x01004194)
 24: 0x00A9 [0x27] REQ_SET(priority=0x03, entity_id=Mame01 (ID: 16794004/0x01004194), tag_num=0x02)
 25: 0x00B0 [0x27] REQ_SET(priority=0x03, entity_id=Mame02 (ID: 16794005/0x01004195), tag_num=0x02)
 26: 0x00B7 [0x27] REQ_SET(priority=0x03, entity_id=Mame03 (ID: 16794006/0x01004196), tag_num=0x02)
 27: 0x00BE [0x1C] WAIT(30* ticks)
 28: 0x00C1 [0x4E] SET_ENTITY_HIDE_FLAG: Show Mame01 (ID: 16794004/0x01004194)
 29: 0x00C7 [0x4E] SET_ENTITY_HIDE_FLAG: Show Mame02 (ID: 16794005/0x01004195)
 30: 0x00CD [0x4E] SET_ENTITY_HIDE_FLAG: Show Mame03 (ID: 16794006/0x01004196)
 31: 0x00D3 [0x45] LOAD_SCHEDULED_TASK: Load scheduler "z001" with entities [LocalPlayer, LocalPlayer], work=[86*, 0*]
 32: 0x00E4 [0x55] WAIT_LOAD_SCHEDULER: Wait for scheduler "z001" with entities [LocalPlayer, LocalPlayer], work=86*
 33: 0x00F3 [0x1C] WAIT(120* ticks)
 34: 0x00F6 [0x4E] SET_ENTITY_HIDE_FLAG: Show Makki-Chebukki (ID: 16794033/0x010041B1)
 35: 0x00FC [0x4E] SET_ENTITY_HIDE_FLAG: Show Kukki-Chebukki (ID: 16794034/0x010041B2)
 36: 0x0102 [0x4E] SET_ENTITY_HIDE_FLAG: Show Cherukiki (ID: 16794035/0x010041B3)
 37: 0x0108 [0x27] REQ_SET(priority=0x03, entity_id=Makki-Chebukki (ID: 16794033/0x010041B1), tag_num=0x09)
 38: 0x010F [0x1C] WAIT(10* ticks)
 39: 0x0112 [0x27] REQ_SET(priority=0x03, entity_id=Kukki-Chebukki (ID: 16794034/0x010041B2), tag_num=0x09)
 40: 0x0119 [0x1C] WAIT(10* ticks)
 41: 0x011C [0x29] REQ_SET_WAIT(priority=0x03, entity_id=Cherukiki (ID: 16794035/0x010041B3), tag_num=0x09)
 42: 0x0123 [0x1C] WAIT(30* ticks)
 43: 0x0126 [0x27] REQ_SET(priority=0x03, entity_id=Cherukiki (ID: 16794035/0x010041B3), tag_num=0x12)
 44: 0x012D [0x2B] Cherukiki (ID: 16794035/0x010041B3) [7640*]:
    → "Oh! It's <Player>!"
 45: 0x0134 [0x1C] WAIT(10* ticks)
 46: 0x0137 [0x45] LOAD_SCHEDULED_TASK: Load scheduler "z002" with entities [LocalPlayer, LocalPlayer], work=[86*, 0*]
 47: 0x0148 [0x55] WAIT_LOAD_SCHEDULER: Wait for scheduler "z002" with entities [LocalPlayer, LocalPlayer], work=86*
 48: 0x0157 [0x23] WAIT_FOR_DIALOG_INTERACTION
 49: 0x0158 [0x27] REQ_SET(priority=0x03, entity_id=Kukki-Chebukki (ID: 16794034/0x010041B2), tag_num=0x12)
 50: 0x015F [0x2B] Kukki-Chebukki (ID: 16794034/0x010041B2) [7641*]:
    → "An untested audience!"
 51: 0x0166 [0x23] WAIT_FOR_DIALOG_INTERACTION
 52: 0x0167 [0x27] REQ_SET(priority=0x03, entity_id=Makki-Chebukki (ID: 16794033/0x010041B1), tag_num=0x14)
 53: 0x016E [0x2B] Makki-Chebukki (ID: 16794033/0x010041B1) [7642*]:
    → "We'll give you some candy if you stay and listen to our performance!"
 54: 0x0175 [0x23] WAIT_FOR_DIALOG_INTERACTION
 55: 0x0176 [0x27] REQ_SET(priority=0x03, entity_id=Kukki-Chebukki (ID: 16794034/0x010041B2), tag_num=0x0A)
 56: 0x017D [0x27] REQ_SET(priority=0x03, entity_id=Cherukiki (ID: 16794035/0x010041B3), tag_num=0x0A)
 57: 0x0184 [0x1C] WAIT(10* ticks)
 58: 0x0187 [0x27] REQ_SET(priority=0x03, entity_id=Makki-Chebukki (ID: 16794033/0x010041B1), tag_num=0x0A)
 59: 0x018E [0x1C] WAIT(30* ticks)
 60: 0x0191 [0x45] LOAD_SCHEDULED_TASK: Load scheduler "z003" with entities [LocalPlayer, LocalPlayer], work=[86*, 0*]
 61: 0x01A2 [0x1C] WAIT(90* ticks)
 62: 0x01A5 [0x5D] SET_MUSIC_VOLUME(volume=0*, fade_time=300*)
 63: 0x01AA [0x45] LOAD_SCHEDULED_TASK: Load scheduler "fdo2" with entities [LocalPlayer, LocalPlayer], work=[200*, 0*]
 64: 0x01BB [0x55] WAIT_LOAD_SCHEDULER: Wait for scheduler "fdo2" with entities [LocalPlayer, LocalPlayer], work=200*
 65: 0x01CA [0x52] END_LOAD_SCHEDULER: End scheduler "z003" with entities [LocalPlayer, LocalPlayer], work=86*
 66: 0x01D9 [0x2A] GET_REQ_LEVEL(level=3, entity_id=Makki-Chebukki (ID: 16794033/0x010041B1))
 67: 0x01DF [0x27] REQ_SET(priority=0x03, entity_id=LocalPlayer, tag_num=0x26)
 68: 0x01E6 [0x4E] SET_ENTITY_HIDE_FLAG: Show Mame01 (ID: 16794004/0x01004194)
 69: 0x01EC [0x4E] SET_ENTITY_HIDE_FLAG: Show Mame02 (ID: 16794005/0x01004195)
 70: 0x01F2 [0x4E] SET_ENTITY_HIDE_FLAG: Show Mame03 (ID: 16794006/0x01004196)
 71: 0x01F8 [0x27] REQ_SET(priority=0x03, entity_id=Mame01 (ID: 16794004/0x01004194), tag_num=0x03)
 72: 0x01FF [0x27] REQ_SET(priority=0x03, entity_id=Mame02 (ID: 16794005/0x01004195), tag_num=0x03)
 73: 0x0206 [0x27] REQ_SET(priority=0x03, entity_id=Mame03 (ID: 16794006/0x01004196), tag_num=0x03)
 74: 0x020D [0x1C] WAIT(180* ticks)
 75: 0x0210 [0x45] LOAD_SCHEDULED_TASK: Load scheduler "z004" with entities [LocalPlayer, LocalPlayer], work=[86*, 0*]
 76: 0x0221 [0x45] LOAD_SCHEDULED_TASK: Load scheduler "fdi1" with entities [LocalPlayer, LocalPlayer], work=[200*, 0*]
 77: 0x0232 [0x27] REQ_SET(priority=0x03, entity_id=Cherukiki (ID: 16794035/0x010041B3), tag_num=0x0B)
 78: 0x0239 [0x1C] WAIT(10* ticks)
 79: 0x023C [0x27] REQ_SET(priority=0x03, entity_id=Makki-Chebukki (ID: 16794033/0x010041B1), tag_num=0x0B)
 80: 0x0243 [0x1C] WAIT(10* ticks)
 81: 0x0246 [0x27] REQ_SET(priority=0x03, entity_id=Kukki-Chebukki (ID: 16794034/0x010041B2), tag_num=0x0B)
 82: 0x024D [0x1C] WAIT(10* ticks)
 83: 0x0250 [0x45] LOAD_SCHEDULED_TASK: Load scheduler "se03" with entities [EventEntity, EventEntity], work=[86*, 0*]
 84: 0x0261 [0x1C] WAIT(32* ticks)
 85: 0x0264 [0x45] LOAD_SCHEDULED_TASK: Load scheduler "se04" with entities [LocalPlayer, LocalPlayer], work=[86*, 0*]
 86: 0x0275 [0x2A] GET_REQ_LEVEL(level=3, entity_id=Kukki-Chebukki (ID: 16794034/0x010041B2))
 87: 0x027B [0x55] WAIT_LOAD_SCHEDULER: Wait for scheduler "z004" with entities [LocalPlayer, LocalPlayer], work=86*
 88: 0x028A [0x1C] WAIT(120* ticks)
 89: 0x028D [0x5C] MUSIC_CONTROL: Set Idle (Day) music to song 227*
 90: 0x0291 [0x5C] MUSIC_CONTROL: Set Idle (Night) music to song 227*
 91: 0x0295 [0xAD] DUAL_ENTITY_SCHEDULER_HANDLER: Execute sub-case 0 with entities [Kukki-Chebukki (ID: 16794034/0x010041B2), Kukki-Chebukki (ID: 16794034/0x010041B2)], work=36*
 92: 0x02A1 [0xAD] DUAL_ENTITY_SCHEDULER_HANDLER: Execute sub-case 0 with entities [Cherukiki (ID: 16794035/0x010041B3), Cherukiki (ID: 16794035/0x010041B3)], work=36*
 93: 0x02AD [0x1C] WAIT(30* ticks)
 94: 0x02B0 [0x28] REQ_SET_WITH_CONDITIONS(priority=0x03, target_entity=Makki-Chebukki (ID: 16794033/0x010041B1), tag_num=0x16)
 95: 0x02B7 [0x48] [System] [7643*]:
    → "Welcome to the Chebukki Show!"
 96: 0x02BA [0x2A] GET_REQ_LEVEL(level=3, entity_id=Makki-Chebukki (ID: 16794033/0x010041B1))
 97: 0x02C0 [0x4B] UPDATE_ENTITY_YAW(entity=Cherukiki (ID: 16794035/0x010041B3), yaw=6.4°*)
 98: 0x02C7 [0x4B] UPDATE_ENTITY_YAW(entity=Kukki-Chebukki (ID: 16794034/0x010041B2), yaw=6.4°*)
 99: 0x02CE [0x6F] WAIT_FRAME_DELAY: Yield until WaitTime reaches zero
100: 0x02CF [0x76] CHECK_ENTITY_RENDER_FLAGS: Wait until Kukki-Chebukki (ID: 16794034/0x010041B2) Render.Flags0 and Render.Flags3 conditions are met
101: 0x02D4 [0x6F] WAIT_FRAME_DELAY: Yield until WaitTime reaches zero
102: 0x02D5 [0x76] CHECK_ENTITY_RENDER_FLAGS: Wait until Cherukiki (ID: 16794035/0x010041B3) Render.Flags0 and Render.Flags3 conditions are met
103: 0x02DA [0x23] WAIT_FOR_DIALOG_INTERACTION
104: 0x02DB [0x9A] WAIT_MUSIC_SERVER()
105: 0x02DC [0x27] REQ_SET(priority=0x03, entity_id=Kukki-Chebukki (ID: 16794034/0x010041B2), tag_num=0x14)
106: 0x02E3 [0x48] [System] [7644*]:
    → "Hey, did you hear? We toppled a titanic terror and saved the world!"
107: 0x02E6 [0x23] WAIT_FOR_DIALOG_INTERACTION
108: 0x02E7 [0x27] REQ_SET(priority=0x03, entity_id=Kukki-Chebukki (ID: 16794034/0x010041B2), tag_num=0x15)
109: 0x02EE [0x27] REQ_SET(priority=0x03, entity_id=Makki-Chebukki (ID: 16794033/0x010041B1), tag_num=0x17)
110: 0x02F5 [0x48] [System] [7645*]:
    → "All in a day's work, you might say."
111: 0x02F8 [0x23] WAIT_FOR_DIALOG_INTERACTION
112: 0x02F9 [0x27] REQ_SET(priority=0x03, entity_id=Makki-Chebukki (ID: 16794033/0x010041B1), tag_num=0x18)
113: 0x0300 [0x27] REQ_SET(priority=0x03, entity_id=Cherukiki (ID: 16794035/0x010041B3), tag_num=0x14)
114: 0x0307 [0x48] [System] [7646*]:
    → "Of course, it wasn't easy pretending to be under our enemy's control so we could take him by surprise."
115: 0x030A [0x23] WAIT_FOR_DIALOG_INTERACTION
116: 0x030B [0x27] REQ_SET(priority=0x03, entity_id=Cherukiki (ID: 16794035/0x010041B3), tag_num=0x15)
117: 0x0312 [0x4B] UPDATE_ENTITY_YAW(entity=Kukki-Chebukki (ID: 16794034/0x010041B2), yaw=8.8°*)
118: 0x0319 [0x1C] WAIT(10* ticks)
119: 0x031C [0x45] LOAD_SCHEDULED_TASK: Load scheduler "z005" with entities [LocalPlayer, LocalPlayer], work=[86*, 0*]
120: 0x032D [0x55] WAIT_LOAD_SCHEDULER: Wait for scheduler "z005" with entities [LocalPlayer, LocalPlayer], work=86*
121: 0x033C [0x6F] WAIT_FRAME_DELAY: Yield until WaitTime reaches zero
122: 0x033D [0x76] CHECK_ENTITY_RENDER_FLAGS: Wait until Kukki-Chebukki (ID: 16794034/0x010041B2) Render.Flags0 and Render.Flags3 conditions are met
123: 0x0342 [0x27] REQ_SET(priority=0x03, entity_id=Kukki-Chebukki (ID: 16794034/0x010041B2), tag_num=0x16)
124: 0x0349 [0x48] [System] [7647*]:
    → "Makki, you were mak-nificent!"
125: 0x034C [0x1C] WAIT(10* ticks)
126: 0x034F [0x4B] UPDATE_ENTITY_YAW(entity=Makki-Chebukki (ID: 16794033/0x010041B1), yaw=3.3°*)
127: 0x0356 [0x23] WAIT_FOR_DIALOG_INTERACTION
128: 0x0357 [0x45] LOAD_SCHEDULED_TASK: Load scheduler "z006" with entities [LocalPlayer, LocalPlayer], work=[86*, 0*]
129: 0x0368 [0x27] REQ_SET(priority=0x03, entity_id=Cherukiki (ID: 16794035/0x010041B3), tag_num=0x16)
130: 0x036F [0x2A] GET_REQ_LEVEL(level=3, entity_id=Kukki-Chebukki (ID: 16794034/0x010041B2))
131: 0x0375 [0x6F] WAIT_FRAME_DELAY: Yield until WaitTime reaches zero
132: 0x0376 [0x76] CHECK_ENTITY_RENDER_FLAGS: Wait until Makki-Chebukki (ID: 16794033/0x010041B1) Render.Flags0 and Render.Flags3 conditions are met
133: 0x037B [0x27] REQ_SET(priority=0x03, entity_id=Makki-Chebukki (ID: 16794033/0x010041B1), tag_num=0x19)
134: 0x0382 [0x48] [System] [7648*]:
    → "Kukki, you were too kooky!"
135: 0x0385 [0x23] WAIT_FOR_DIALOG_INTERACTION
136: 0x0386 [0x2A] GET_REQ_LEVEL(level=3, entity_id=Makki-Chebukki (ID: 16794033/0x010041B1))
137: 0x038C [0x55] WAIT_LOAD_SCHEDULER: Wait for scheduler "z006" with entities [LocalPlayer, LocalPlayer], work=86*
138: 0x039B [0x45] LOAD_SCHEDULED_TASK: Load scheduler "z007" with entities [LocalPlayer, LocalPlayer], work=[86*, 0*]
139: 0x03AC [0x4B] UPDATE_ENTITY_YAW(entity=Kukki-Chebukki (ID: 16794034/0x010041B2), yaw=6.4°*)
140: 0x03B3 [0x48] [System] [7649*]:
    → "I think it's about time I exited stage left..."
141: 0x03B6 [0x23] WAIT_FOR_DIALOG_INTERACTION
142: 0x03B7 [0x6F] WAIT_FRAME_DELAY: Yield until WaitTime reaches zero
143: 0x03B8 [0x76] CHECK_ENTITY_RENDER_FLAGS: Wait until Makki-Chebukki (ID: 16794033/0x010041B1) Render.Flags0 and Render.Flags3 conditions are met
144: 0x03BD [0x55] WAIT_LOAD_SCHEDULER: Wait for scheduler "z007" with entities [LocalPlayer, LocalPlayer], work=86*
145: 0x03CC [0x45] LOAD_SCHEDULED_TASK: Load scheduler "z008" with entities [LocalPlayer, LocalPlayer], work=[86*, 0*]
146: 0x03DD [0x6B] STOP_AND_IDLE: Kukki-Chebukki (ID: 16794034/0x010041B2) stops current action and resets to idle (animation="idl0")
147: 0x03E6 [0x6B] STOP_AND_IDLE: Cherukiki (ID: 16794035/0x010041B3) stops current action and resets to idle (animation="idl0")
148: 0x03EF [0x29] REQ_SET_WAIT(priority=0x03, entity_id=Makki-Chebukki (ID: 16794033/0x010041B1), tag_num=0x0C)
149: 0x03F6 [0x55] WAIT_LOAD_SCHEDULER: Wait for scheduler "z008" with entities [LocalPlayer, LocalPlayer], work=86*
150: 0x0405 [0x28] REQ_SET_WITH_CONDITIONS(priority=0x04, target_entity=Makki-Chebukki (ID: 16794033/0x010041B1), tag_num=0x1A)
151: 0x040C [0x48] [System] [7650*]:
    → "But listen to this!"
152: 0x040F [0x23] WAIT_FOR_DIALOG_INTERACTION
153: 0x0410 [0x48] [System] [7651*]:
    → "An adventurer called <Player> thinks that [he/she] stole the show!"
154: 0x0413 [0x23] WAIT_FOR_DIALOG_INTERACTION
155: 0x0414 [0x2A] GET_REQ_LEVEL(level=4, entity_id=Makki-Chebukki (ID: 16794033/0x010041B1))
156: 0x041A [0x27] REQ_SET(priority=0x03, entity_id=Kukki-Chebukki (ID: 16794034/0x010041B2), tag_num=0x17)
157: 0x0421 [0x27] REQ_SET(priority=0x03, entity_id=Cherukiki (ID: 16794035/0x010041B3), tag_num=0x17)
158: 0x0428 [0x48] [System] [7652*]:
    → "Can you believe that!"
159: 0x042B [0x45] LOAD_SCHEDULED_TASK: Load scheduler "blon" with entities [EventEntity, EventEntity], work=[108*, 0*]
160: 0x043C [0x45] LOAD_SCHEDULED_TASK: Load scheduler "vbon" with entities [LocalPlayer, LocalPlayer], work=[31*, 0*]
161: 0x044D [0x45] LOAD_SCHEDULED_TASK: Load scheduler "z009" with entities [LocalPlayer, LocalPlayer], work=[86*, 0*]
162: 0x045E [0x1C] WAIT(20* ticks)
163: 0x0461 [0x52] END_LOAD_SCHEDULER: End scheduler "z009" with entities [LocalPlayer, LocalPlayer], work=86*
164: 0x0470 [0x1C] WAIT(10* ticks)
165: 0x0473 [0x45] LOAD_SCHEDULED_TASK: Load scheduler "z009" with entities [LocalPlayer, LocalPlayer], work=[86*, 0*]
166: 0x0484 [0x1C] WAIT(20* ticks)
167: 0x0487 [0x52] END_LOAD_SCHEDULER: End scheduler "z009" with entities [LocalPlayer, LocalPlayer], work=86*
168: 0x0496 [0x1C] WAIT(10* ticks)
169: 0x0499 [0x45] LOAD_SCHEDULED_TASK: Load scheduler "z009" with entities [LocalPlayer, LocalPlayer], work=[86*, 0*]
170: 0x04AA [0x55] WAIT_LOAD_SCHEDULER: Wait for scheduler "z009" with entities [LocalPlayer, LocalPlayer], work=86*
171: 0x04B9 [0x45] LOAD_SCHEDULED_TASK: Load scheduler "blof" with entities [EventEntity, EventEntity], work=[108*, 0*]
172: 0x04CA [0x1C] WAIT(20* ticks)
173: 0x04CD [0x5D] SET_MUSIC_VOLUME(volume=0*, fade_time=30*)
174: 0x04D2 [0x45] LOAD_SCHEDULED_TASK: Load scheduler "ovl1" with entities [LocalPlayer, LocalPlayer], work=[200*, 0*]
175: 0x04E3 [0x45] LOAD_SCHEDULED_TASK: Load scheduler "vbof" with entities [LocalPlayer, LocalPlayer], work=[31*, 0*]
176: 0x04F4 [0x45] LOAD_SCHEDULED_TASK: Load scheduler "y000" with entities [LocalPlayer, LocalPlayer], work=[86*, 0*]
177: 0x0505 [0x1C] WAIT(20* ticks)
178: 0x0508 [0x45] LOAD_SCHEDULED_TASK: Load scheduler "se06" with entities [LocalPlayer, LocalPlayer], work=[86*, 0*]
179: 0x0519 [0x1C] WAIT(10* ticks)
180: 0x051C [0x4A] Mame03 (ID: 16794006/0x01004196) looks at Mame01 (ID: 16794004/0x01004194)
181: 0x0525 [0x4A] Mame01 (ID: 16794004/0x01004194) looks at Mame03 (ID: 16794006/0x01004196)
182: 0x052E [0x1C] WAIT(60* ticks)
183: 0x0531 [0x4A] Mame01 (ID: 16794004/0x01004194) looks at Mame02 (ID: 16794005/0x01004195)
184: 0x053A [0x4A] Mame02 (ID: 16794005/0x01004195) looks at Mame01 (ID: 16794004/0x01004194)
185: 0x0543 [0x1C] WAIT(30* ticks)
186: 0x0546 [0x4A] Mame03 (ID: 16794006/0x01004196) looks at Makki-Chebukki (ID: 16794033/0x010041B1)
187: 0x054F [0x1C] WAIT(10* ticks)
188: 0x0552 [0x4A] Mame01 (ID: 16794004/0x01004194) looks at Makki-Chebukki (ID: 16794033/0x010041B1)
189: 0x055B [0x1C] WAIT(20* ticks)
190: 0x055E [0x4A] Mame02 (ID: 16794005/0x01004195) looks at Makki-Chebukki (ID: 16794033/0x010041B1)
191: 0x0567 [0x6B] STOP_AND_IDLE: Makki-Chebukki (ID: 16794033/0x010041B1) stops current action and resets to idle (animation="idl0")
192: 0x0570 [0x55] WAIT_LOAD_SCHEDULER: Wait for scheduler "y000" with entities [LocalPlayer, LocalPlayer], work=86*
193: 0x057F [0x23] WAIT_FOR_DIALOG_INTERACTION
194: 0x0580 [0x27] REQ_SET(priority=0x03, entity_id=Makki-Chebukki (ID: 16794033/0x010041B1), tag_num=0x1B)
195: 0x0587 [0x1C] WAIT(10* ticks)
196: 0x058A [0x45] LOAD_SCHEDULED_TASK: Load scheduler "y001" with entities [LocalPlayer, LocalPlayer], work=[86*, 0*]
197: 0x059B [0x1C] WAIT(10* ticks)
198: 0x059E [0x45] LOAD_SCHEDULED_TASK: Load scheduler "se07" with entities [LocalPlayer, LocalPlayer], work=[86*, 0*]
199: 0x05AF [0x2A] GET_REQ_LEVEL(level=3, entity_id=Makki-Chebukki (ID: 16794033/0x010041B1))
200: 0x05B5 [0x55] WAIT_LOAD_SCHEDULER: Wait for scheduler "y001" with entities [LocalPlayer, LocalPlayer], work=86*
201: 0x05C4 [0x27] REQ_SET(priority=0x03, entity_id=Makki-Chebukki (ID: 16794033/0x010041B1), tag_num=0x1C)
202: 0x05CB [0x1C] WAIT(15* ticks)
203: 0x05CE [0x45] LOAD_SCHEDULED_TASK: Load scheduler "se08" with entities [LocalPlayer, LocalPlayer], work=[86*, 0*]
204: 0x05DF [0x2B] Makki-Chebukki (ID: 16794033/0x010041B1) [7653*]:
    → "[He's/She's] so mean!"
205: 0x05E6 [0x23] WAIT_FOR_DIALOG_INTERACTION
206: 0x05E7 [0x45] LOAD_SCHEDULED_TASK: Load scheduler "y002" with entities [LocalPlayer, LocalPlayer], work=[86*, 0*]
207: 0x05F8 [0x55] WAIT_LOAD_SCHEDULER: Wait for scheduler "y002" with entities [LocalPlayer, LocalPlayer], work=86*
208: 0x0607 [0x27] REQ_SET(priority=0x03, entity_id=Kukki-Chebukki (ID: 16794034/0x010041B2), tag_num=0x19)
209: 0x060E [0x1C] WAIT(15* ticks)
210: 0x0611 [0x45] LOAD_SCHEDULED_TASK: Load scheduler "se08" with entities [LocalPlayer, LocalPlayer], work=[86*, 0*]
211: 0x0622 [0x2B] Kukki-Chebukki (ID: 16794034/0x010041B2) [7654*]:
    → "[He's/She's] so terrible!"
212: 0x0629 [0x23] WAIT_FOR_DIALOG_INTERACTION
213: 0x062A [0x45] LOAD_SCHEDULED_TASK: Load scheduler "y003" with entities [LocalPlayer, LocalPlayer], work=[86*, 0*]
214: 0x063B [0x55] WAIT_LOAD_SCHEDULER: Wait for scheduler "y003" with entities [LocalPlayer, LocalPlayer], work=86*
215: 0x064A [0x27] REQ_SET(priority=0x03, entity_id=Cherukiki (ID: 16794035/0x010041B3), tag_num=0x19)
216: 0x0651 [0x1C] WAIT(15* ticks)
217: 0x0654 [0x45] LOAD_SCHEDULED_TASK: Load scheduler "se08" with entities [LocalPlayer, LocalPlayer], work=[86*, 0*]
218: 0x0665 [0x2B] Cherukiki (ID: 16794035/0x010041B3) [7655*]:
    → "[He's/She's] so ugly!"
219: 0x066C [0x23] WAIT_FOR_DIALOG_INTERACTION
220: 0x066D [0x45] LOAD_SCHEDULED_TASK: Load scheduler "y00a" with entities [LocalPlayer, LocalPlayer], work=[86*, 0*]
221: 0x067E [0x5D] SET_MUSIC_VOLUME(volume=127*, fade_time=120*)
222: 0x0683 [0x1C] WAIT(10* ticks)
223: 0x0686 [0x45] LOAD_SCHEDULED_TASK: Load scheduler "se09" with entities [LocalPlayer, LocalPlayer], work=[86*, 0*]
224: 0x0697 [0x4A] Mame01 (ID: 16794004/0x01004194) looks at LocalPlayer
225: 0x06A0 [0x4A] Mame02 (ID: 16794005/0x01004195) looks at LocalPlayer
226: 0x06A9 [0x4A] Mame03 (ID: 16794006/0x01004196) looks at LocalPlayer
227: 0x06B2 [0x28] REQ_SET_WITH_CONDITIONS(priority=0x04, target_entity=Makki-Chebukki (ID: 16794033/0x010041B1), tag_num=0x1D)
228: 0x06B9 [0x28] REQ_SET_WITH_CONDITIONS(priority=0x04, target_entity=Kukki-Chebukki (ID: 16794034/0x010041B2), tag_num=0x1C)
229: 0x06C0 [0x28] REQ_SET_WITH_CONDITIONS(priority=0x04, target_entity=Cherukiki (ID: 16794035/0x010041B3), tag_num=0x1C)
230: 0x06C7 [0x55] WAIT_LOAD_SCHEDULER: Wait for scheduler "y00a" with entities [LocalPlayer, LocalPlayer], work=86*
231: 0x06D6 [0x45] LOAD_SCHEDULED_TASK: Load scheduler "y004" with entities [LocalPlayer, LocalPlayer], work=[86*, 0*]
232: 0x06E7 [0x1C] WAIT(10* ticks)
233: 0x06EA [0x45] LOAD_SCHEDULED_TASK: Load scheduler "se11" with entities [LocalPlayer, LocalPlayer], work=[86*, 0*]
234: 0x06FB [0x45] LOAD_SCHEDULED_TASK: Load scheduler "sls1" with entities [LocalPlayer, LocalPlayer], work=[86*, 0*]
235: 0x070C [0x1C] WAIT(50* ticks)
236: 0x070F [0x2B] Kukki-Chebukki (ID: 16794034/0x010041B2) [7657*]:
    → "Mwahahahaha!"
237: 0x0716 [0x23] WAIT_FOR_DIALOG_INTERACTION
238: 0x0717 [0x1C] WAIT(30* ticks)
239: 0x071A [0x2B] Makki-Chebukki (ID: 16794033/0x010041B1) [7656*]:
    → "Yahahahaha!"
240: 0x0721 [0x23] WAIT_FOR_DIALOG_INTERACTION
241: 0x0722 [0x1C] WAIT(30* ticks)
242: 0x0725 [0x2B] Cherukiki (ID: 16794035/0x010041B3) [7658*]:
    → "Nyahahahaha!"
243: 0x072C [0x23] WAIT_FOR_DIALOG_INTERACTION
244: 0x072D [0x1C] WAIT(30* ticks)
245: 0x0730 [0x55] WAIT_LOAD_SCHEDULER: Wait for scheduler "y004" with entities [LocalPlayer, LocalPlayer], work=86*
246: 0x073F [0x45] LOAD_SCHEDULED_TASK: Load scheduler "sle1" with entities [LocalPlayer, LocalPlayer], work=[86*, 0*]
247: 0x0750 [0x45] LOAD_SCHEDULED_TASK: Load scheduler "ovl1" with entities [EventEntity, EventEntity], work=[200*, 0*]
248: 0x0761 [0x02] IF !(LocalPlayer->Race == 5*) GOTO 0x078C
249: 0x0769 [0x45] LOAD_SCHEDULED_TASK: Load scheduler "y00b" with entities [LocalPlayer, LocalPlayer], work=[86*, 0*]
250: 0x077A [0x55] WAIT_LOAD_SCHEDULER: Wait for scheduler "y00b" with entities [LocalPlayer, LocalPlayer], work=86*
251: 0x0789 [0x01] GOTO 0x07D7
252: 0x078C [0x02] IF !(LocalPlayer->Race == 6*) GOTO 0x07B7
253: 0x0794 [0x45] LOAD_SCHEDULED_TASK: Load scheduler "y00b" with entities [LocalPlayer, LocalPlayer], work=[86*, 0*]
254: 0x07A5 [0x55] WAIT_LOAD_SCHEDULER: Wait for scheduler "y00b" with entities [LocalPlayer, LocalPlayer], work=86*
255: 0x07B4 [0x01] GOTO 0x07D7
256: 0x07B7 [0x45] LOAD_SCHEDULED_TASK: Load scheduler "y005" with entities [LocalPlayer, LocalPlayer], work=[86*, 0*]
257: 0x07C8 [0x55] WAIT_LOAD_SCHEDULER: Wait for scheduler "y005" with entities [LocalPlayer, LocalPlayer], work=86*

SUBROUTINE_07D7:
258: 0x07D7 [0x1C] WAIT(15* ticks)
259: 0x07DA [0x24] CREATE_DIALOG(message_id=7659*, default_option=0*, option_flags=0*)
    → "Laugh at their performance? [I guess.../Are you kidding me...?]"
260: 0x07E1 [0x25] WAIT_DIALOG_SELECT()
261: 0x07E2 [0x02] IF !(Work_Zone[0] == 0*) GOTO 0x07F9
262: 0x07EA [0x6E] LocalPlayer uses emote 4*
263: 0x07F1 [0x99] Wait for LocalPlayer animation to complete
264: 0x07F6 [0x01] GOTO 0x0810
265: 0x07F9 [0x02] IF !(Work_Zone[0] == 1*) GOTO 0x0810
266: 0x0801 [0x6E] LocalPlayer uses emote 26*
267: 0x0808 [0x99] Wait for LocalPlayer animation to complete
268: 0x080D [0x01] GOTO 0x0810

SUBROUTINE_0810:
269: 0x0810 [0x1C] WAIT(90* ticks)
270: 0x0813 [0x45] LOAD_SCHEDULED_TASK: Load scheduler "y006" with entities [LocalPlayer, LocalPlayer], work=[86*, 0*]
271: 0x0824 [0x4A] Mame01 (ID: 16794004/0x01004194) looks at Makki-Chebukki (ID: 16794033/0x010041B1)
272: 0x082D [0x4A] Mame02 (ID: 16794005/0x01004195) looks at Makki-Chebukki (ID: 16794033/0x010041B1)
273: 0x0836 [0x4A] Mame03 (ID: 16794006/0x01004196) looks at Makki-Chebukki (ID: 16794033/0x010041B1)
274: 0x083F [0x27] REQ_SET(priority=0x03, entity_id=Makki-Chebukki (ID: 16794033/0x010041B1), tag_num=0x1E)
275: 0x0846 [0x27] REQ_SET(priority=0x03, entity_id=Kukki-Chebukki (ID: 16794034/0x010041B2), tag_num=0x1D)
276: 0x084D [0x27] REQ_SET(priority=0x03, entity_id=Cherukiki (ID: 16794035/0x010041B3), tag_num=0x1D)
277: 0x0854 [0x1C] WAIT(50* ticks)
278: 0x0857 [0x45] LOAD_SCHEDULED_TASK: Load scheduler "se12" with entities [LocalPlayer, LocalPlayer], work=[86*, 0*]
279: 0x0868 [0x55] WAIT_LOAD_SCHEDULER: Wait for scheduler "y006" with entities [LocalPlayer, LocalPlayer], work=86*
280: 0x0877 [0x1C] WAIT(60* ticks)
281: 0x087A [0x5D] SET_MUSIC_VOLUME(volume=0*, fade_time=30*)
282: 0x087F [0x02] IF !(Work_Zone[0] == 0*) GOTO 0x0892
283: 0x0887 [0x2B] Makki-Chebukki (ID: 16794033/0x010041B1) [7660*]:
    → "Hey! Stop right there! Are you laughing at us!?"
284: 0x088E [0x23] WAIT_FOR_DIALOG_INTERACTION
285: 0x088F [0x01] GOTO 0x08A5
286: 0x0892 [0x02] IF !(Work_Zone[0] == 1*) GOTO 0x08A5
287: 0x089A [0x2B] Makki-Chebukki (ID: 16794033/0x010041B1) [7661*]:
    → "Hey! Why aren't you laughing? How rude!"
288: 0x08A1 [0x23] WAIT_FOR_DIALOG_INTERACTION
289: 0x08A2 [0x01] GOTO 0x08A5

SUBROUTINE_08A5:
290: 0x08A5 [0x2A] GET_REQ_LEVEL(level=3, entity_id=Makki-Chebukki (ID: 16794033/0x010041B1))
291: 0x08AB [0x45] LOAD_SCHEDULED_TASK: Load scheduler "y007" with entities [LocalPlayer, LocalPlayer], work=[86*, 0*]
292: 0x08BC [0x5C] MUSIC_CONTROL: Set Idle (Day) music to song 220*
293: 0x08C0 [0x5C] MUSIC_CONTROL: Set Idle (Night) music to song 220*
294: 0x08C4 [0x27] REQ_SET(priority=0x03, entity_id=Makki-Chebukki (ID: 16794033/0x010041B1), tag_num=0x20)
295: 0x08CB [0x2B] Makki-Chebukki (ID: 16794033/0x010041B1) [7662*]:
    → "It's time we showed our artistic temperament!"
296: 0x08D2 [0x23] WAIT_FOR_DIALOG_INTERACTION
297: 0x08D3 [0x55] WAIT_LOAD_SCHEDULER: Wait for scheduler "y007" with entities [LocalPlayer, LocalPlayer], work=86*
298: 0x08E2 [0x45] LOAD_SCHEDULED_TASK: Load scheduler "y008" with entities [LocalPlayer, LocalPlayer], work=[86*, 0*]
299: 0x08F3 [0x2C] CREATE_SCHEDULER_TASK: Create scheduler "cabk" with entities [Makki-Chebukki (ID: 16794033/0x010041B1), Makki-Chebukki (ID: 16794033/0x010041B1)]
300: 0x0900 [0x2C] CREATE_SCHEDULER_TASK: Create scheduler "cabk" with entities [Makki-Chebukki (ID: 16794033/0x010041B1), Makki-Chebukki (ID: 16794033/0x010041B1)]
301: 0x090D [0x1C] WAIT(45* ticks)
302: 0x0910 [0x45] LOAD_SCHEDULED_TASK: Load scheduler "vbon" with entities [LocalPlayer, LocalPlayer], work=[31*, 0*]
303: 0x0921 [0x2B] Makki-Chebukki (ID: 16794033/0x010041B1) [7663*]:
    → "Meee!"
304: 0x0928 [0x23] WAIT_FOR_DIALOG_INTERACTION
305: 0x0929 [0x2C] CREATE_SCHEDULER_TASK: Create scheduler "cabk" with entities [Kukki-Chebukki (ID: 16794034/0x010041B2), Kukki-Chebukki (ID: 16794034/0x010041B2)]
306: 0x0936 [0x1C] WAIT(45* ticks)
307: 0x0939 [0x2B] Kukki-Chebukki (ID: 16794034/0x010041B2) [7664*]:
    → "Teee!"
308: 0x0940 [0x23] WAIT_FOR_DIALOG_INTERACTION
309: 0x0941 [0x2C] CREATE_SCHEDULER_TASK: Create scheduler "cabk" with entities [Cherukiki (ID: 16794035/0x010041B3), Cherukiki (ID: 16794035/0x010041B3)]
310: 0x094E [0x1C] WAIT(30* ticks)
311: 0x0951 [0x1C] WAIT(15* ticks)
312: 0x0954 [0x2B] Cherukiki (ID: 16794035/0x010041B3) [7665*]:
    → "Ooor!"
313: 0x095B [0x23] WAIT_FOR_DIALOG_INTERACTION
314: 0x095C [0x1C] WAIT(15* ticks)
315: 0x095F [0x2C] CREATE_SCHEDULER_TASK: Create scheduler "shbk" with entities [Makki-Chebukki (ID: 16794033/0x010041B1), Makki-Chebukki (ID: 16794033/0x010041B1)]
316: 0x096C [0x2C] CREATE_SCHEDULER_TASK: Create scheduler "shbk" with entities [Kukki-Chebukki (ID: 16794034/0x010041B2), Kukki-Chebukki (ID: 16794034/0x010041B2)]
317: 0x0979 [0x2C] CREATE_SCHEDULER_TASK: Create scheduler "shbk" with entities [Cherukiki (ID: 16794035/0x010041B3), Cherukiki (ID: 16794035/0x010041B3)]
318: 0x0986 [0x27] REQ_SET(priority=0x03, entity_id=LocalPlayer, tag_num=0x28)
319: 0x098D [0x1C] WAIT(15* ticks)
320: 0x0990 [0x4E] SET_ENTITY_HIDE_FLAG: Show Sanctia (ID: 16794011/0x0100419B)
321: 0x0996 [0x4E] SET_ENTITY_HIDE_FLAG: Show Shikaree Z (ID: 16794015/0x0100419F)
322: 0x099C [0x73] Sanctia (ID: 16794011/0x0100419B) casts magic 218* on Shikaree Z (ID: 16794015/0x0100419F)
323: 0x09A7 [0x1C] WAIT(10* ticks)
324: 0x09AA [0x4E] SET_ENTITY_HIDE_FLAG: Show Louverance (ID: 16794003/0x01004193)
325: 0x09B0 [0x4E] SET_ENTITY_HIDE_FLAG: Show Shikaree Y (ID: 16794016/0x010041A0)
326: 0x09B6 [0x73] Louverance (ID: 16794003/0x01004193) casts magic 218* on Shikaree Y (ID: 16794016/0x010041A0)
327: 0x09C1 [0x4E] SET_ENTITY_HIDE_FLAG: Show Rohemolipaud (ID: 16794010/0x0100419A)
328: 0x09C7 [0x4E] SET_ENTITY_HIDE_FLAG: Show Shikaree X (ID: 16794017/0x010041A1)
329: 0x09CD [0x73] Rohemolipaud (ID: 16794010/0x0100419A) casts magic 218* on Shikaree X (ID: 16794017/0x010041A1)
330: 0x09D8 [0x55] WAIT_LOAD_SCHEDULER: Wait for scheduler "y008" with entities [LocalPlayer, LocalPlayer], work=86*
331: 0x09E7 [0x45] LOAD_SCHEDULED_TASK: Load scheduler "y009" with entities [LocalPlayer, LocalPlayer], work=[86*, 0*]
332: 0x09F8 [0x1C] WAIT(60* ticks)
333: 0x09FB [0x4E] SET_ENTITY_HIDE_FLAG: Show Novice Moogle (ID: 16794012/0x0100419C)
334: 0x0A01 [0x9F] LOAD_SCHEDULED_TASK_ALT: Load scheduler "yhit" with entities [Makki-Chebukki (ID: 16794033/0x010041B1), Novice Moogle (ID: 16794012/0x0100419C)], work=[156*, 0*]
335: 0x0A12 [0x1C] WAIT(60* ticks)
336: 0x0A15 [0x45] LOAD_SCHEDULED_TASK: Load scheduler "who1" with entities [LocalPlayer, LocalPlayer], work=[201*, 0*]
337: 0x0A26 [0x55] WAIT_LOAD_SCHEDULER: Wait for scheduler "who1" with entities [LocalPlayer, LocalPlayer], work=201*
338: 0x0A35 [0x55] WAIT_LOAD_SCHEDULER: Wait for scheduler "y009" with entities [LocalPlayer, LocalPlayer], work=86*
339: 0x0A44 [0x45] LOAD_SCHEDULED_TASK: Load scheduler "fdo1" with entities [LocalPlayer, LocalPlayer], work=[200*, 0*]
340: 0x0A55 [0x55] WAIT_LOAD_SCHEDULER: Wait for scheduler "fdo1" with entities [LocalPlayer, LocalPlayer], work=200*
341: 0x0A64 [0x45] LOAD_SCHEDULED_TASK: Load scheduler "whi1" with entities [LocalPlayer, LocalPlayer], work=[201*, 0*]
342: 0x0A75 [0x45] LOAD_SCHEDULED_TASK: Load scheduler "x000" with entities [LocalPlayer, LocalPlayer], work=[86*, 0*]
343: 0x0A86 [0x4E] SET_ENTITY_HIDE_FLAG: Show Vukki-Chebukki (ID: 16794002/0x01004192)
344: 0x0A8C [0x27] REQ_SET(priority=0x03, entity_id=Vukki-Chebukki (ID: 16794002/0x01004192), tag_num=0x5D)
345: 0x0A93 [0x4E] SET_ENTITY_HIDE_FLAG: Hide Louverance (ID: 16794003/0x01004193)
346: 0x0A99 [0x4E] SET_ENTITY_HIDE_FLAG: Hide Shikaree Y (ID: 16794016/0x010041A0)
347: 0x0A9F [0x4E] SET_ENTITY_HIDE_FLAG: Hide Rohemolipaud (ID: 16794010/0x0100419A)
348: 0x0AA5 [0x4E] SET_ENTITY_HIDE_FLAG: Hide Shikaree X (ID: 16794017/0x010041A1)
349: 0x0AAB [0x4E] SET_ENTITY_HIDE_FLAG: Hide Sanctia (ID: 16794011/0x0100419B)
350: 0x0AB1 [0x4E] SET_ENTITY_HIDE_FLAG: Hide Shikaree Z (ID: 16794015/0x0100419F)
351: 0x0AB7 [0x1C] WAIT(30* ticks)
352: 0x0ABA [0x45] LOAD_SCHEDULED_TASK: Load scheduler "vbof" with entities [LocalPlayer, LocalPlayer], work=[31*, 0*]
353: 0x0ACB [0x45] LOAD_SCHEDULED_TASK: Load scheduler "fdi2" with entities [LocalPlayer, LocalPlayer], work=[200*, 0*]
354: 0x0ADC [0x1C] WAIT(60* ticks)
355: 0x0ADF [0x45] LOAD_SCHEDULED_TASK: Load scheduler "se00" with entities [LocalPlayer, LocalPlayer], work=[86*, 0*]
356: 0x0AF0 [0x45] LOAD_SCHEDULED_TASK: Load scheduler "sls0" with entities [LocalPlayer, LocalPlayer], work=[86*, 0*]
357: 0x0B01 [0x55] WAIT_LOAD_SCHEDULER: Wait for scheduler "x000" with entities [LocalPlayer, LocalPlayer], work=86*
358: 0x0B10 [0x79] LocalPlayer looks at Vukki-Chebukki (ID: 16794002/0x01004192) (Basic look)
359: 0x0B1A [0x1C] WAIT(180* ticks)
360: 0x0B1D [0x4A] Cherukiki (ID: 16794035/0x010041B3) looks at Vukki-Chebukki (ID: 16794002/0x01004192)
361: 0x0B26 [0x4A] Kukki-Chebukki (ID: 16794034/0x010041B2) looks at Vukki-Chebukki (ID: 16794002/0x01004192)
362: 0x0B2F [0x4A] Makki-Chebukki (ID: 16794033/0x010041B1) looks at Vukki-Chebukki (ID: 16794002/0x01004192)
363: 0x0B38 [0x45] LOAD_SCHEDULED_TASK: Load scheduler "se02" with entities [LocalPlayer, LocalPlayer], work=[86*, 0*]
364: 0x0B49 [0x27] REQ_SET(priority=0x03, entity_id=Mame01 (ID: 16794004/0x01004194), tag_num=0x04)
365: 0x0B50 [0x27] REQ_SET(priority=0x03, entity_id=Mame02 (ID: 16794005/0x01004195), tag_num=0x04)
366: 0x0B57 [0x27] REQ_SET(priority=0x03, entity_id=Mame03 (ID: 16794006/0x01004196), tag_num=0x04)
367: 0x0B5E [0x1C] WAIT(120* ticks)
368: 0x0B61 [0x45] LOAD_SCHEDULED_TASK: Load scheduler "sle0" with entities [LocalPlayer, LocalPlayer], work=[86*, 0*]
369: 0x0B72 [0x27] REQ_SET(priority=0x03, entity_id=LocalPlayer, tag_num=0x29)
370: 0x0B79 [0x1C] WAIT(30* ticks)
371: 0x0B7C [0xA4] EventEntity->Flags3.unknown_3_2 = 1
372: 0x0B7E [0x2B] Vukki-Chebukki (ID: 16794002/0x01004192) [7666*]:
    → "Where did these striplings learn such powerful magic?"
373: 0x0B85 [0x23] WAIT_FOR_DIALOG_INTERACTION
374: 0x0B86 [0x45] LOAD_SCHEDULED_TASK: Load scheduler "x001" with entities [LocalPlayer, LocalPlayer], work=[86*, 0*]
375: 0x0B97 [0x4E] SET_ENTITY_HIDE_FLAG: Hide Novice Moogle (ID: 16794012/0x0100419C)
376: 0x0B9D [0x2B] Vukki-Chebukki (ID: 16794002/0x01004192) [7667*]:
    → "What hell did you assassins spawn from!?"
377: 0x0BA4 [0x23] WAIT_FOR_DIALOG_INTERACTION
378: 0x0BA5 [0x55] WAIT_LOAD_SCHEDULER: Wait for scheduler "x001" with entities [LocalPlayer, LocalPlayer], work=86*
379: 0x0BB4 [0x45] LOAD_SCHEDULED_TASK: Load scheduler "x002" with entities [LocalPlayer, LocalPlayer], work=[86*, 0*]
380: 0x0BC5 [0x27] REQ_SET(priority=0x03, entity_id=Cherukiki (ID: 16794035/0x010041B3), tag_num=0x1A)
381: 0x0BCC [0x2B] Cherukiki (ID: 16794035/0x010041B3) [7668*]:
    → "Spawn!?"
382: 0x0BD3 [0x1C] WAIT(80* ticks)
383: 0x0BD6 [0x23] WAIT_FOR_DIALOG_INTERACTION
384: 0x0BD7 [0x27] REQ_SET(priority=0x03, entity_id=Kukki-Chebukki (ID: 16794034/0x010041B2), tag_num=0x12)
385: 0x0BDE [0x2B] Kukki-Chebukki (ID: 16794034/0x010041B2) [7669*]:
    → "Assassins!?"
386: 0x0BE5 [0x23] WAIT_FOR_DIALOG_INTERACTION
387: 0x0BE6 [0x55] WAIT_LOAD_SCHEDULER: Wait for scheduler "x002" with entities [LocalPlayer, LocalPlayer], work=86*
388: 0x0BF5 [0x45] LOAD_SCHEDULED_TASK: Load scheduler "x004" with entities [LocalPlayer, LocalPlayer], work=[86*, 0*]
389: 0x0C06 [0x27] REQ_SET(priority=0x03, entity_id=Vukki-Chebukki (ID: 16794002/0x01004192), tag_num=0x5F)
390: 0x0C0D [0x27] REQ_SET(priority=0x03, entity_id=Makki-Chebukki (ID: 16794033/0x010041B1), tag_num=0x21)
391: 0x0C14 [0x2B] Makki-Chebukki (ID: 16794033/0x010041B1) [7670*]:
    → "How rude! We're the stars of the Chebukki Show!"
392: 0x0C1B [0x23] WAIT_FOR_DIALOG_INTERACTION
393: 0x0C1C [0x55] WAIT_LOAD_SCHEDULER: Wait for scheduler "x004" with entities [LocalPlayer, LocalPlayer], work=86*
394: 0x0C2B [0x45] LOAD_SCHEDULED_TASK: Load scheduler "x005" with entities [LocalPlayer, LocalPlayer], work=[86*, 0*]
395: 0x0C3C [0x81] SET_ENTITY_BLINKING(blink_flag=0x00, entity=Vukki-Chebukki (ID: 16794002/0x01004192))
396: 0x0C42 [0x1C] WAIT(15* ticks)
397: 0x0C45 [0x2B] Vukki-Chebukki (ID: 16794002/0x01004192) [7671*]:
    → "I don't care if you're the king of San d'Oria's royal bedmakers! Your magic won't work on me!"
398: 0x0C4C [0x23] WAIT_FOR_DIALOG_INTERACTION
399: 0x0C4D [0x55] WAIT_LOAD_SCHEDULER: Wait for scheduler "x005" with entities [LocalPlayer, LocalPlayer], work=86*
400: 0x0C5C [0x27] REQ_SET(priority=0x03, entity_id=Kukki-Chebukki (ID: 16794034/0x010041B2), tag_num=0x17)
401: 0x0C63 [0x27] REQ_SET(priority=0x03, entity_id=Cherukiki (ID: 16794035/0x010041B3), tag_num=0x17)
402: 0x0C6A [0x27] REQ_SET(priority=0x03, entity_id=Makki-Chebukki (ID: 16794033/0x010041B1), tag_num=0x22)
403: 0x0C71 [0x2B] Vukki-Chebukki (ID: 16794002/0x01004192) [7672*]:
    → "My wife blasted me with Meteor so many times, I don't even feel it anymore!"
404: 0x0C78 [0x23] WAIT_FOR_DIALOG_INTERACTION
405: 0x0C79 [0x27] REQ_SET(priority=0x03, entity_id=Vukki-Chebukki (ID: 16794002/0x01004192), tag_num=0x65)
406: 0x0C80 [0x2B] Vukki-Chebukki (ID: 16794002/0x01004192) [7673*]:
    → "You're way out of your league! Bring it on, you horrific harlequins!"
407: 0x0C87 [0x23] WAIT_FOR_DIALOG_INTERACTION
408: 0x0C88 [0x45] LOAD_SCHEDULED_TASK: Load scheduler "x006" with entities [LocalPlayer, LocalPlayer], work=[86*, 0*]
409: 0x0C99 [0x81] SET_ENTITY_BLINKING(blink_flag=0x01, entity=Vukki-Chebukki (ID: 16794002/0x01004192))
410: 0x0C9F [0x27] REQ_SET(priority=0x03, entity_id=Makki-Chebukki (ID: 16794033/0x010041B1), tag_num=0x1C)
411: 0x0CA6 [0x2B] Makki-Chebukki (ID: 16794033/0x010041B1) [7674*]:
    → "Then how about tasting the Meteor our mom used to make!"
412: 0x0CAD [0x23] WAIT_FOR_DIALOG_INTERACTION
413: 0x0CAE [0x2B] Makki-Chebukki (ID: 16794033/0x010041B1) [7675*]:
    → "Let him have it!"
414: 0x0CB5 [0x23] WAIT_FOR_DIALOG_INTERACTION
415: 0x0CB6 [0x2A] GET_REQ_LEVEL(level=3, entity_id=Makki-Chebukki (ID: 16794033/0x010041B1))
416: 0x0CBC [0x55] WAIT_LOAD_SCHEDULER: Wait for scheduler "x006" with entities [LocalPlayer, LocalPlayer], work=86*
417: 0x0CCB [0x45] LOAD_SCHEDULED_TASK: Load scheduler "y008" with entities [LocalPlayer, LocalPlayer], work=[86*, 0*]
418: 0x0CDC [0x45] LOAD_SCHEDULED_TASK: Load scheduler "vbon" with entities [LocalPlayer, LocalPlayer], work=[31*, 0*]
419: 0x0CED [0x27] REQ_SET(priority=0x03, entity_id=Cherukiki (ID: 16794035/0x010041B3), tag_num=0x1E)
420: 0x0CF4 [0x6B] STOP_AND_IDLE: Kukki-Chebukki (ID: 16794034/0x010041B2) stops current action and resets to idle (animation="idl0")
421: 0x0CFD [0x2C] CREATE_SCHEDULER_TASK: Create scheduler "cabk" with entities [Makki-Chebukki (ID: 16794033/0x010041B1), Makki-Chebukki (ID: 16794033/0x010041B1)]
422: 0x0D0A [0x1C] WAIT(45* ticks)
423: 0x0D0D [0x2B] Makki-Chebukki (ID: 16794033/0x010041B1) [7663*]:
    → "Meee!"
424: 0x0D14 [0x23] WAIT_FOR_DIALOG_INTERACTION
425: 0x0D15 [0x2C] CREATE_SCHEDULER_TASK: Create scheduler "cabk" with entities [Kukki-Chebukki (ID: 16794034/0x010041B2), Kukki-Chebukki (ID: 16794034/0x010041B2)]
426: 0x0D22 [0x1C] WAIT(45* ticks)
427: 0x0D25 [0x2B] Kukki-Chebukki (ID: 16794034/0x010041B2) [7664*]:
    → "Teee!"
428: 0x0D2C [0x23] WAIT_FOR_DIALOG_INTERACTION
429: 0x0D2D [0x1C] WAIT(45* ticks)
430: 0x0D30 [0x27] REQ_SET(priority=0x03, entity_id=Cherukiki (ID: 16794035/0x010041B3), tag_num=0x1F)
431: 0x0D37 [0x2B] Cherukiki (ID: 16794035/0x010041B3) [7678*]:
    → "Oooooor!"
432: 0x0D3E [0x23] WAIT_FOR_DIALOG_INTERACTION
433: 0x0D3F [0x1C] WAIT(10* ticks)
434: 0x0D42 [0x2C] CREATE_SCHEDULER_TASK: Create scheduler "shbk" with entities [Makki-Chebukki (ID: 16794033/0x010041B1), Makki-Chebukki (ID: 16794033/0x010041B1)]
435: 0x0D4F [0x2C] CREATE_SCHEDULER_TASK: Create scheduler "shbk" with entities [Kukki-Chebukki (ID: 16794034/0x010041B2), Kukki-Chebukki (ID: 16794034/0x010041B2)]
436: 0x0D5C [0x1C] WAIT(70* ticks)
437: 0x0D5F [0x52] END_LOAD_SCHEDULER: End scheduler "y008" with entities [LocalPlayer, LocalPlayer], work=86*
438: 0x0D6E [0x45] LOAD_SCHEDULED_TASK: Load scheduler "x007" with entities [LocalPlayer, LocalPlayer], work=[86*, 0*]
439: 0x0D7F [0x9F] LOAD_SCHEDULED_TASK_ALT: Load scheduler "iw00" with entities [Cherukiki (ID: 16794035/0x010041B3), Vukki-Chebukki (ID: 16794002/0x01004192)], work=[151*, 0*]
440: 0x0D90 [0x1C] WAIT(135* ticks)
441: 0x0D93 [0x52] END_LOAD_SCHEDULER: End scheduler "x007" with entities [LocalPlayer, LocalPlayer], work=86*
442: 0x0DA2 [0x45] LOAD_SCHEDULED_TASK: Load scheduler "x008" with entities [LocalPlayer, LocalPlayer], work=[86*, 0*]
443: 0x0DB3 [0x55] WAIT_LOAD_SCHEDULER: Wait for scheduler "x008" with entities [LocalPlayer, LocalPlayer], work=86*
444: 0x0DC2 [0x45] LOAD_SCHEDULED_TASK: Load scheduler "who1" with entities [EventEntity, EventEntity], work=[201*, 0*]
445: 0x0DD3 [0x55] WAIT_LOAD_SCHEDULER: Wait for scheduler "who1" with entities [EventEntity, EventEntity], work=201*
446: 0x0DE2 [0x45] LOAD_SCHEDULED_TASK: Load scheduler "fdo1" with entities [LocalPlayer, LocalPlayer], work=[200*, 0*]
447: 0x0DF3 [0x55] WAIT_LOAD_SCHEDULER: Wait for scheduler "fdo1" with entities [LocalPlayer, LocalPlayer], work=200*
448: 0x0E02 [0x45] LOAD_SCHEDULED_TASK: Load scheduler "vbof" with entities [LocalPlayer, LocalPlayer], work=[31*, 0*]
449: 0x0E13 [0x27] REQ_SET(priority=0x03, entity_id=LocalPlayer, tag_num=0x28)
450: 0x0E1A [0x2C] CREATE_SCHEDULER_TASK: Create scheduler "corp" with entities [Vukki-Chebukki (ID: 16794002/0x01004192), Vukki-Chebukki (ID: 16794002/0x01004192)]
451: 0x0E27 [0x1C] WAIT(180* ticks)
452: 0x0E2A [0x5B] LOAD_EXT_SCHEDULER: Load scheduler 0xFFFFFF90 with entities [Vukki-Chebukki (ID: 16794002/0x01004192), Vukki-Chebukki (ID: 16794002/0x01004192)], work=430*
453: 0x0E39 [0x45] LOAD_SCHEDULED_TASK: Load scheduler "whi1" with entities [LocalPlayer, LocalPlayer], work=[201*, 0*]
454: 0x0E4A [0x5D] SET_MUSIC_VOLUME(volume=0*, fade_time=240*)
455: 0x0E4F [0x1C] WAIT(120* ticks)
456: 0x0E52 [0x45] LOAD_SCHEDULED_TASK: Load scheduler "w000" with entities [LocalPlayer, LocalPlayer], work=[86*, 0*]
457: 0x0E63 [0x45] LOAD_SCHEDULED_TASK: Load scheduler "fdi2" with entities [LocalPlayer, LocalPlayer], work=[200*, 0*]
458: 0x0E74 [0x55] WAIT_LOAD_SCHEDULER: Wait for scheduler "fdi2" with entities [LocalPlayer, LocalPlayer], work=200*
459: 0x0E83 [0x52] END_LOAD_SCHEDULER: End scheduler "w000" with entities [LocalPlayer, LocalPlayer], work=86*
460: 0x0E92 [0x45] LOAD_SCHEDULED_TASK: Load scheduler "ovl1" with entities [EventEntity, EventEntity], work=[200*, 0*]
461: 0x0EA3 [0x45] LOAD_SCHEDULED_TASK: Load scheduler "w001" with entities [LocalPlayer, LocalPlayer], work=[86*, 0*]
462: 0x0EB4 [0x55] WAIT_LOAD_SCHEDULER: Wait for scheduler "w001" with entities [LocalPlayer, LocalPlayer], work=86*
463: 0x0EC3 [0x27] REQ_SET(priority=0x03, entity_id=Cherukiki (ID: 16794035/0x010041B3), tag_num=0x20)
464: 0x0ECA [0x2B] Cherukiki (ID: 16794035/0x010041B3) [7679*]:
    → "I think we overdid it again..."
465: 0x0ED1 [0x23] WAIT_FOR_DIALOG_INTERACTION
466: 0x0ED2 [0x27] REQ_SET(priority=0x03, entity_id=Kukki-Chebukki (ID: 16794034/0x010041B2), tag_num=0x1E)
467: 0x0ED9 [0x2B] Kukki-Chebukki (ID: 16794034/0x010041B2) [7680*]:
    → "Well, he asked for it."
468: 0x0EE0 [0x23] WAIT_FOR_DIALOG_INTERACTION
469: 0x0EE1 [0x2A] GET_REQ_LEVEL(level=3, entity_id=Kukki-Chebukki (ID: 16794034/0x010041B2))
470: 0x0EE7 [0x27] REQ_SET(priority=0x03, entity_id=Makki-Chebukki (ID: 16794033/0x010041B1), tag_num=0x0D)
471: 0x0EEE [0x1C] WAIT(20* ticks)
472: 0x0EF1 [0x27] REQ_SET(priority=0x03, entity_id=Kukki-Chebukki (ID: 16794034/0x010041B2), tag_num=0x0C)
473: 0x0EF8 [0x45] LOAD_SCHEDULED_TASK: Load scheduler "w002" with entities [LocalPlayer, LocalPlayer], work=[86*, 0*]
474: 0x0F09 [0x1C] WAIT(10* ticks)
475: 0x0F0C [0x27] REQ_SET(priority=0x03, entity_id=Cherukiki (ID: 16794035/0x010041B3), tag_num=0x0C)
476: 0x0F13 [0x2A] GET_REQ_LEVEL(level=3, entity_id=Makki-Chebukki (ID: 16794033/0x010041B1))
477: 0x0F19 [0x2B] Makki-Chebukki (ID: 16794033/0x010041B1) [7681*]:
    → "We sure showed him who's boss!"
478: 0x0F20 [0x23] WAIT_FOR_DIALOG_INTERACTION
479: 0x0F21 [0x2A] GET_REQ_LEVEL(level=3, entity_id=Kukki-Chebukki (ID: 16794034/0x010041B2))
480: 0x0F27 [0x2A] GET_REQ_LEVEL(level=3, entity_id=Cherukiki (ID: 16794035/0x010041B3))
481: 0x0F2D [0x55] WAIT_LOAD_SCHEDULER: Wait for scheduler "w002" with entities [LocalPlayer, LocalPlayer], work=86*
482: 0x0F3C [0x1C] WAIT(60* ticks)
483: 0x0F3F [0x2B] Vukki-Chebukki (ID: 16794002/0x01004192) [7682*]:
    → "Uuugh!"
484: 0x0F46 [0x23] WAIT_FOR_DIALOG_INTERACTION
485: 0x0F47 [0x1C] WAIT(30* ticks)
486: 0x0F4A [0x27] REQ_SET(priority=0x03, entity_id=Makki-Chebukki (ID: 16794033/0x010041B1), tag_num=0x27)
487: 0x0F51 [0x27] REQ_SET(priority=0x03, entity_id=Kukki-Chebukki (ID: 16794034/0x010041B2), tag_num=0x21)
488: 0x0F58 [0x27] REQ_SET(priority=0x03, entity_id=Cherukiki (ID: 16794035/0x010041B3), tag_num=0x23)
489: 0x0F5F [0x27] REQ_SET(priority=0x03, entity_id=Vukki-Chebukki (ID: 16794002/0x01004192), tag_num=0x61)
490: 0x0F66 [0x1C] WAIT(30* ticks)
491: 0x0F69 [0x45] LOAD_SCHEDULED_TASK: Load scheduler "w004" with entities [LocalPlayer, LocalPlayer], work=[86*, 0*]
492: 0x0F7A [0x2B] Vukki-Chebukki (ID: 16794002/0x01004192) [7683*]:
    → "Oooh!"
493: 0x0F81 [0x23] WAIT_FOR_DIALOG_INTERACTION
494: 0x0F82 [0x1C] WAIT(10* ticks)
495: 0x0F85 [0x55] WAIT_LOAD_SCHEDULER: Wait for scheduler "w004" with entities [LocalPlayer, LocalPlayer], work=86*
496: 0x0F94 [0x2A] GET_REQ_LEVEL(level=3, entity_id=Vukki-Chebukki (ID: 16794002/0x01004192))
497: 0x0F9A [0x1C] WAIT(30* ticks)
498: 0x0F9D [0x45] LOAD_SCHEDULED_TASK: Load scheduler "w003" with entities [LocalPlayer, LocalPlayer], work=[86*, 0*]
499: 0x0FAE [0x27] REQ_SET(priority=0x03, entity_id=LocalPlayer, tag_num=0x29)
500: 0x0FB5 [0x27] REQ_SET(priority=0x03, entity_id=Makki-Chebukki (ID: 16794033/0x010041B1), tag_num=0x19)
501: 0x0FBC [0x27] REQ_SET(priority=0x03, entity_id=Kukki-Chebukki (ID: 16794034/0x010041B2), tag_num=0x1F)
502: 0x0FC3 [0x27] REQ_SET(priority=0x03, entity_id=Cherukiki (ID: 16794035/0x010041B3), tag_num=0x21)
503: 0x0FCA [0x2B] Makki-Chebukki (ID: 16794033/0x010041B1) [7684*]:
    → "Oooh!?"
504: 0x0FD1 [0x23] WAIT_FOR_DIALOG_INTERACTION
505: 0x0FD2 [0x55] WAIT_LOAD_SCHEDULER: Wait for scheduler "w003" with entities [LocalPlayer, LocalPlayer], work=86*
506: 0x0FE1 [0x1C] WAIT(5* ticks)
507: 0x0FE4 [0x45] LOAD_SCHEDULED_TASK: Load scheduler "w005" with entities [LocalPlayer, LocalPlayer], work=[86*, 0*]
508: 0x0FF5 [0x6B] STOP_AND_IDLE: Makki-Chebukki (ID: 16794033/0x010041B1) stops current action and resets to idle (animation="idl0")
509: 0x0FFE [0x6B] STOP_AND_IDLE: Kukki-Chebukki (ID: 16794034/0x010041B2) stops current action and resets to idle (animation="idl0")
510: 0x1007 [0x6B] STOP_AND_IDLE: Cherukiki (ID: 16794035/0x010041B3) stops current action and resets to idle (animation="idl0")
511: 0x1010 [0x2B] Vukki-Chebukki (ID: 16794002/0x01004192) [7685*]:
    → "The Chebukki Show...? The Meteor your mom used...?"
512: 0x1017 [0x23] WAIT_FOR_DIALOG_INTERACTION
513: 0x1018 [0x55] WAIT_LOAD_SCHEDULER: Wait for scheduler "w005" with entities [LocalPlayer, LocalPlayer], work=86*
514: 0x1027 [0x45] LOAD_SCHEDULED_TASK: Load scheduler "w006" with entities [LocalPlayer, LocalPlayer], work=[86*, 0*]
515: 0x1038 [0x5C] MUSIC_CONTROL: Set Idle (Day) music to song 124*
516: 0x103C [0x5C] MUSIC_CONTROL: Set Idle (Night) music to song 124*
517: 0x1040 [0x9A] WAIT_MUSIC_SERVER()
518: 0x1041 [0x2B] Vukki-Chebukki (ID: 16794002/0x01004192) [7686*]:
    → "Could it be? My darling children!? Makki, Kukki, and Cherukiki!?"
519: 0x1048 [0x23] WAIT_FOR_DIALOG_INTERACTION
520: 0x1049 [0x55] WAIT_LOAD_SCHEDULER: Wait for scheduler "w006" with entities [LocalPlayer, LocalPlayer], work=86*
521: 0x1058 [0x81] SET_ENTITY_BLINKING(blink_flag=0x00, entity=Makki-Chebukki (ID: 16794033/0x010041B1))
522: 0x105E [0x81] SET_ENTITY_BLINKING(blink_flag=0x00, entity=Kukki-Chebukki (ID: 16794034/0x010041B2))
523: 0x1064 [0x81] SET_ENTITY_BLINKING(blink_flag=0x00, entity=Cherukiki (ID: 16794035/0x010041B3))
524: 0x106A [0x45] LOAD_SCHEDULED_TASK: Load scheduler "ovl1" with entities [EventEntity, EventEntity], work=[200*, 0*]
525: 0x107B [0x45] LOAD_SCHEDULED_TASK: Load scheduler "w008" with entities [LocalPlayer, LocalPlayer], work=[86*, 0*]
526: 0x108C [0x1C] WAIT(30* ticks)
527: 0x108F [0x2B] Makki-Chebukki (ID: 16794033/0x010041B1) [7687*]:
    → "Does this mean...!?"
528: 0x1096 [0x23] WAIT_FOR_DIALOG_INTERACTION
529: 0x1097 [0x55] WAIT_LOAD_SCHEDULER: Wait for scheduler "w008" with entities [LocalPlayer, LocalPlayer], work=86*
530: 0x10A6 [0x45] LOAD_SCHEDULED_TASK: Load scheduler "ovl1" with entities [EventEntity, EventEntity], work=[200*, 0*]
531: 0x10B7 [0x45] LOAD_SCHEDULED_TASK: Load scheduler "w007" with entities [LocalPlayer, LocalPlayer], work=[86*, 0*]
532: 0x10C8 [0x1C] WAIT(60* ticks)
533: 0x10CB [0x2B] Kukki-Chebukki (ID: 16794034/0x010041B2) [7688*]:
    → "Could it be...!?"
534: 0x10D2 [0x23] WAIT_FOR_DIALOG_INTERACTION
535: 0x10D3 [0x55] WAIT_LOAD_SCHEDULER: Wait for scheduler "w007" with entities [LocalPlayer, LocalPlayer], work=86*
536: 0x10E2 [0x45] LOAD_SCHEDULED_TASK: Load scheduler "ovl1" with entities [EventEntity, EventEntity], work=[200*, 0*]
537: 0x10F3 [0x45] LOAD_SCHEDULED_TASK: Load scheduler "w009" with entities [LocalPlayer, LocalPlayer], work=[86*, 0*]
538: 0x1104 [0x1C] WAIT(30* ticks)
539: 0x1107 [0x2B] Cherukiki (ID: 16794035/0x010041B3) [7689*]:
    → "This weird guy is...!?"
540: 0x110E [0x23] WAIT_FOR_DIALOG_INTERACTION
541: 0x110F [0x55] WAIT_LOAD_SCHEDULER: Wait for scheduler "w009" with entities [LocalPlayer, LocalPlayer], work=86*
542: 0x111E [0x81] SET_ENTITY_BLINKING(blink_flag=0x01, entity=Makki-Chebukki (ID: 16794033/0x010041B1))
543: 0x1124 [0x81] SET_ENTITY_BLINKING(blink_flag=0x01, entity=Kukki-Chebukki (ID: 16794034/0x010041B2))
544: 0x112A [0x81] SET_ENTITY_BLINKING(blink_flag=0x01, entity=Cherukiki (ID: 16794035/0x010041B3))
545: 0x1130 [0x45] LOAD_SCHEDULED_TASK: Load scheduler "v000" with entities [LocalPlayer, LocalPlayer], work=[86*, 0*]
546: 0x1141 [0x29] REQ_SET_WAIT(priority=0x03, entity_id=Vukki-Chebukki (ID: 16794002/0x01004192), tag_num=0x58)
547: 0x1148 [0x2B] Vukki-Chebukki (ID: 16794002/0x01004192) [7690*]:
    → "Your father!"
548: 0x114F [0x23] WAIT_FOR_DIALOG_INTERACTION
549: 0x1150 [0x55] WAIT_LOAD_SCHEDULER: Wait for scheduler "v000" with entities [LocalPlayer, LocalPlayer], work=86*
550: 0x115F [0x45] LOAD_SCHEDULED_TASK: Load scheduler "v001" with entities [LocalPlayer, LocalPlayer], work=[86*, 0*]
551: 0x1170 [0x55] WAIT_LOAD_SCHEDULER: Wait for scheduler "v001" with entities [LocalPlayer, LocalPlayer], work=86*
552: 0x117F [0x27] REQ_SET(priority=0x03, entity_id=Vukki-Chebukki (ID: 16794002/0x01004192), tag_num=0x62)
553: 0x1186 [0x3A] CONVERT_YAW_TO_BYTE(entity=Makki-Chebukki (ID: 16794033/0x010041B1), result_destination=ExtData[1]->WorkLocal[0])
554: 0x118D [0x07] ExtData[1]->WorkLocal[0] += 2048*
555: 0x1192 [0x4B] UPDATE_ENTITY_YAW(entity=Makki-Chebukki (ID: 16794033/0x010041B1), yaw=ExtData[1]->WorkLocal[0])
556: 0x1199 [0x4A] Cherukiki (ID: 16794035/0x010041B3) looks at Makki-Chebukki (ID: 16794033/0x010041B1)
557: 0x11A2 [0x4A] Kukki-Chebukki (ID: 16794034/0x010041B2) looks at Makki-Chebukki (ID: 16794033/0x010041B1)
558: 0x11AB [0x1C] WAIT(90* ticks)
559: 0x11AE [0x79] Cherukiki (ID: 16794035/0x010041B3) looks at Vukki-Chebukki (ID: 16794002/0x01004192) (Basic look)
560: 0x11B8 [0x79] Kukki-Chebukki (ID: 16794034/0x010041B2) looks at Vukki-Chebukki (ID: 16794002/0x01004192) (Basic look)
561: 0x11C2 [0x27] REQ_SET(priority=0x03, entity_id=Cherukiki (ID: 16794035/0x010041B3), tag_num=0x0D)
562: 0x11C9 [0x2B] Cherukiki (ID: 16794035/0x010041B3) [7691*]:
    → "Daddy!"
563: 0x11D0 [0x23] WAIT_FOR_DIALOG_INTERACTION
564: 0x11D1 [0x1C] WAIT(15* ticks)
565: 0x11D4 [0x27] REQ_SET(priority=0x03, entity_id=Kukki-Chebukki (ID: 16794034/0x010041B2), tag_num=0x0D)
566: 0x11DB [0x2B] Kukki-Chebukki (ID: 16794034/0x010041B2) [7692*]:
    → "Dad!"
567: 0x11E2 [0x23] WAIT_FOR_DIALOG_INTERACTION
568: 0x11E3 [0x1C] WAIT(15* ticks)
569: 0x11E6 [0x4A] Makki-Chebukki (ID: 16794033/0x010041B1) looks at Vukki-Chebukki (ID: 16794002/0x01004192)
570: 0x11EF [0x6F] WAIT_FRAME_DELAY: Yield until WaitTime reaches zero
571: 0x11F0 [0x76] CHECK_ENTITY_RENDER_FLAGS: Wait until Makki-Chebukki (ID: 16794033/0x010041B1) Render.Flags0 and Render.Flags3 conditions are met
572: 0x11F5 [0x2B] Makki-Chebukki (ID: 16794033/0x010041B1) [7693*]:
    → "Father!"
573: 0x11FC [0x23] WAIT_FOR_DIALOG_INTERACTION
574: 0x11FD [0x7B] Cherukiki (ID: 16794035/0x010041B3) stops talking
575: 0x1202 [0x7B] Kukki-Chebukki (ID: 16794034/0x010041B2) stops talking
576: 0x1207 [0x2A] GET_REQ_LEVEL(level=3, entity_id=Cherukiki (ID: 16794035/0x010041B3))
577: 0x120D [0x2A] GET_REQ_LEVEL(level=3, entity_id=Cherukiki (ID: 16794035/0x010041B3))
578: 0x1213 [0x27] REQ_SET(priority=0x03, entity_id=Makki-Chebukki (ID: 16794033/0x010041B1), tag_num=0x23)
579: 0x121A [0x1C] WAIT(45* ticks)
580: 0x121D [0x5D] SET_MUSIC_VOLUME(volume=0*, fade_time=30*)
581: 0x1222 [0x45] LOAD_SCHEDULED_TASK: Load scheduler "v002" with entities [LocalPlayer, LocalPlayer], work=[86*, 0*]
582: 0x1233 [0x55] WAIT_LOAD_SCHEDULER: Wait for scheduler "v002" with entities [LocalPlayer, LocalPlayer], work=86*
583: 0x1242 [0x2B] Makki-Chebukki (ID: 16794033/0x010041B1) [7694*]:
    → "Hey, what about me!"
584: 0x1249 [0x7B] Makki-Chebukki (ID: 16794033/0x010041B1) stops talking
585: 0x124E [0x3A] CONVERT_YAW_TO_BYTE(entity=Makki-Chebukki (ID: 16794033/0x010041B1), result_destination=ExtData[1]->WorkLocal[0])
586: 0x1255 [0x08] ExtData[1]->WorkLocal[0] -= 512*
587: 0x125A [0x4B] UPDATE_ENTITY_YAW(entity=Makki-Chebukki (ID: 16794033/0x010041B1), yaw=ExtData[1]->WorkLocal[0])
588: 0x1261 [0x6F] WAIT_FRAME_DELAY: Yield until WaitTime reaches zero
589: 0x1262 [0x76] CHECK_ENTITY_RENDER_FLAGS: Wait until Makki-Chebukki (ID: 16794033/0x010041B1) Render.Flags0 and Render.Flags3 conditions are met
590: 0x1267 [0x5D] SET_MUSIC_VOLUME(volume=127*, fade_time=30*)
591: 0x126C [0x29] REQ_SET_WAIT(priority=0x03, entity_id=Makki-Chebukki (ID: 16794033/0x010041B1), tag_num=0x1A)
592: 0x1273 [0x23] WAIT_FOR_DIALOG_INTERACTION
593: 0x1274 [0x45] LOAD_SCHEDULED_TASK: Load scheduler "ovl1" with entities [EventEntity, EventEntity], work=[200*, 0*]
594: 0x1285 [0x45] LOAD_SCHEDULED_TASK: Load scheduler "v003" with entities [LocalPlayer, LocalPlayer], work=[86*, 0*]
595: 0x1296 [0x81] SET_ENTITY_BLINKING(blink_flag=0x00, entity=Makki-Chebukki (ID: 16794033/0x010041B1))
596: 0x129C [0x81] SET_ENTITY_BLINKING(blink_flag=0x00, entity=Kukki-Chebukki (ID: 16794034/0x010041B2))
597: 0x12A2 [0x81] SET_ENTITY_BLINKING(blink_flag=0x00, entity=Cherukiki (ID: 16794035/0x010041B3))
598: 0x12A8 [0x27] REQ_SET(priority=0x02, entity_id=Makki-Chebukki (ID: 16794033/0x010041B1), tag_num=0x24)
599: 0x12AF [0x27] REQ_SET(priority=0x03, entity_id=Makki-Chebukki (ID: 16794033/0x010041B1), tag_num=0x25)
600: 0x12B6 [0x1C] WAIT(30* ticks)
601: 0x12B9 [0x2B] Vukki-Chebukki (ID: 16794002/0x01004192) [7695*]:
    → "There, there. You must have been so lonely out there on your own."
602: 0x12C0 [0x23] WAIT_FOR_DIALOG_INTERACTION
603: 0x12C1 [0x2B] Vukki-Chebukki (ID: 16794002/0x01004192) [7696*]:
    → "From now on, you'll live here with me. I'll never let you go again."
604: 0x12C8 [0x23] WAIT_FOR_DIALOG_INTERACTION
605: 0x12C9 [0x28] REQ_SET_WITH_CONDITIONS(priority=0x03, target_entity=Makki-Chebukki (ID: 16794033/0x010041B1), tag_num=0x25)
606: 0x12D0 [0x52] END_LOAD_SCHEDULER: End scheduler "v003" with entities [LocalPlayer, LocalPlayer], work=86*
607: 0x12DF [0x45] LOAD_SCHEDULED_TASK: Load scheduler "ovl1" with entities [EventEntity, EventEntity], work=[200*, 0*]
608: 0x12F0 [0x45] LOAD_SCHEDULED_TASK: Load scheduler "v004" with entities [LocalPlayer, LocalPlayer], work=[86*, 0*]
609: 0x1301 [0x1C] WAIT(30* ticks)
610: 0x1304 [0x2B] Cherukiki (ID: 16794035/0x010041B3) [7697*]:
    → "Daddy!"
611: 0x130B [0x23] WAIT_FOR_DIALOG_INTERACTION
612: 0x130C [0x1C] WAIT(30* ticks)
613: 0x130F [0x2B] Kukki-Chebukki (ID: 16794034/0x010041B2) [7698*]:
    → "Dad!"
614: 0x1316 [0x23] WAIT_FOR_DIALOG_INTERACTION
615: 0x1317 [0x1C] WAIT(30* ticks)
616: 0x131A [0x2B] Makki-Chebukki (ID: 16794033/0x010041B1) [7699*]:
    → "Father!"
617: 0x1321 [0x23] WAIT_FOR_DIALOG_INTERACTION
618: 0x1322 [0x55] WAIT_LOAD_SCHEDULER: Wait for scheduler "v004" with entities [LocalPlayer, LocalPlayer], work=86*
619: 0x1331 [0x1C] WAIT(60* ticks)
620: 0x1334 [0x45] LOAD_SCHEDULED_TASK: Load scheduler "ovl1" with entities [LocalPlayer, LocalPlayer], work=[200*, 0*]
621: 0x1345 [0x45] LOAD_SCHEDULED_TASK: Load scheduler "v003" with entities [LocalPlayer, LocalPlayer], work=[86*, 0*]
622: 0x1356 [0x1C] WAIT(30* ticks)
623: 0x1359 [0x2B] Vukki-Chebukki (ID: 16794002/0x01004192) [7700*]:
    → "This is just wonderful. But wait... One thing is not quite right!"
624: 0x1360 [0x23] WAIT_FOR_DIALOG_INTERACTION
625: 0x1361 [0x2B] Vukki-Chebukki (ID: 16794002/0x01004192) [7701*]:
    → "I've always dreamed that you would call me "Papa." Can you do that for me?"
626: 0x1368 [0x23] WAIT_FOR_DIALOG_INTERACTION
627: 0x1369 [0x52] END_LOAD_SCHEDULER: End scheduler "v003" with entities [LocalPlayer, LocalPlayer], work=86*
628: 0x1378 [0x45] LOAD_SCHEDULED_TASK: Load scheduler "ovl1" with entities [EventEntity, EventEntity], work=[200*, 0*]
629: 0x1389 [0x45] LOAD_SCHEDULED_TASK: Load scheduler "v005" with entities [LocalPlayer, LocalPlayer], work=[86*, 0*]
630: 0x139A [0x1C] WAIT(60* ticks)
631: 0x139D [0x2B] Kukki-Chebukki (ID: 16794034/0x010041B2) [7703*]:
    → "Papa!"
632: 0x13A4 [0x23] WAIT_FOR_DIALOG_INTERACTION
633: 0x13A5 [0x1C] WAIT(60* ticks)
634: 0x13A8 [0x2B] Makki-Chebukki (ID: 16794033/0x010041B1) [7702*]:
    → "Papa!"
635: 0x13AF [0x23] WAIT_FOR_DIALOG_INTERACTION
636: 0x13B0 [0x1C] WAIT(90* ticks)
637: 0x13B3 [0x2B] Cherukiki (ID: 16794035/0x010041B3) [7704*]:
    → "Papapaaa!"
638: 0x13BA [0x1C] WAIT(300* ticks)
639: 0x13BD [0x5D] SET_MUSIC_VOLUME(volume=0*, fade_time=540*)
640: 0x13C2 [0x45] LOAD_SCHEDULED_TASK: Load scheduler "fdo2" with entities [LocalPlayer, LocalPlayer], work=[200*, 0*]
641: 0x13D3 [0x55] WAIT_LOAD_SCHEDULER: Wait for scheduler "fdo2" with entities [LocalPlayer, LocalPlayer], work=200*
642: 0x13E2 [0x52] END_LOAD_SCHEDULER: End scheduler "v005" with entities [LocalPlayer, LocalPlayer], work=86*
643: 0x13F1 [0x1C] WAIT(300* ticks)
644: 0x13F4 [0x23] WAIT_FOR_DIALOG_INTERACTION
645: 0x13F5 [0x4E] SET_ENTITY_HIDE_FLAG: Show Vukki-Chebukki (ID: 16794002/0x01004192)
646: 0x13FB [0x81] SET_ENTITY_BLINKING(blink_flag=0x01, entity=Makki-Chebukki (ID: 16794033/0x010041B1))
647: 0x1401 [0x81] SET_ENTITY_BLINKING(blink_flag=0x01, entity=Kukki-Chebukki (ID: 16794034/0x010041B2))
648: 0x1407 [0x81] SET_ENTITY_BLINKING(blink_flag=0x01, entity=Cherukiki (ID: 16794035/0x010041B3))
649: 0x140D [0x81] SET_ENTITY_BLINKING(blink_flag=0x01, entity=Vukki-Chebukki (ID: 16794002/0x01004192))
650: 0x1413 [0x6B] STOP_AND_IDLE: Makki-Chebukki (ID: 16794033/0x010041B1) stops current action and resets to idle (animation="idl0")
651: 0x141C [0x6B] STOP_AND_IDLE: Kukki-Chebukki (ID: 16794034/0x010041B2) stops current action and resets to idle (animation="idl0")
652: 0x1425 [0x6B] STOP_AND_IDLE: Cherukiki (ID: 16794035/0x010041B3) stops current action and resets to idle (animation="idl0")
653: 0x142E [0x6B] STOP_AND_IDLE: Vukki-Chebukki (ID: 16794002/0x01004192) stops current action and resets to idle (animation="idl0")
654: 0x1437 [0x27] REQ_SET(priority=0x03, entity_id=Makki-Chebukki (ID: 16794033/0x010041B1), tag_num=0x0E)
655: 0x143E [0x27] REQ_SET(priority=0x03, entity_id=Kukki-Chebukki (ID: 16794034/0x010041B2), tag_num=0x0E)
656: 0x1445 [0x27] REQ_SET(priority=0x03, entity_id=Cherukiki (ID: 16794035/0x010041B3), tag_num=0x0E)
657: 0x144C [0x27] REQ_SET(priority=0x03, entity_id=Vukki-Chebukki (ID: 16794002/0x01004192), tag_num=0x59)
658: 0x1453 [0x5C] MUSIC_CONTROL: Set Idle (Day) music to song 234*
659: 0x1457 [0x5C] MUSIC_CONTROL: Set Idle (Night) music to song 234*
660: 0x145B [0x1C] WAIT(180* ticks)
661: 0x145E [0x9A] WAIT_MUSIC_SERVER()
662: 0x145F [0x27] REQ_SET(priority=0x03, entity_id=LocalPlayer, tag_num=0x27)
663: 0x1466 [0x1C] WAIT(40* ticks)
664: 0x1469 [0x28] REQ_SET_WITH_CONDITIONS(priority=0x04, target_entity=Vukki-Chebukki (ID: 16794002/0x01004192), tag_num=0x5A)
665: 0x1470 [0x1C] WAIT(10* ticks)
666: 0x1473 [0x28] REQ_SET_WITH_CONDITIONS(priority=0x04, target_entity=Makki-Chebukki (ID: 16794033/0x010041B1), tag_num=0x0F)
667: 0x147A [0x28] REQ_SET_WITH_CONDITIONS(priority=0x04, target_entity=Kukki-Chebukki (ID: 16794034/0x010041B2), tag_num=0x0F)
668: 0x1481 [0x28] REQ_SET_WITH_CONDITIONS(priority=0x04, target_entity=Cherukiki (ID: 16794035/0x010041B3), tag_num=0x0F)
669: 0x1488 [0x45] LOAD_SCHEDULED_TASK: Load scheduler "t000" with entities [LocalPlayer, LocalPlayer], work=[86*, 0*]
670: 0x1499 [0x45] LOAD_SCHEDULED_TASK: Load scheduler "fdi1" with entities [LocalPlayer, LocalPlayer], work=[200*, 0*]
671: 0x14AA [0x55] WAIT_LOAD_SCHEDULER: Wait for scheduler "fdi1" with entities [LocalPlayer, LocalPlayer], work=200*
672: 0x14B9 [0x2A] GET_REQ_LEVEL(level=4, entity_id=Makki-Chebukki (ID: 16794033/0x010041B1))
673: 0x14BF [0x2A] GET_REQ_LEVEL(level=4, entity_id=Kukki-Chebukki (ID: 16794034/0x010041B2))
674: 0x14C5 [0x2A] GET_REQ_LEVEL(level=4, entity_id=Cherukiki (ID: 16794035/0x010041B3))
675: 0x14CB [0x2A] GET_REQ_LEVEL(level=4, entity_id=Vukki-Chebukki (ID: 16794002/0x01004192))
676: 0x14D1 [0x2A] GET_REQ_LEVEL(level=3, entity_id=LocalPlayer)
677: 0x14D7 [0x45] LOAD_SCHEDULED_TASK: Load scheduler "t001" with entities [LocalPlayer, LocalPlayer], work=[86*, 0*]
678: 0x14E8 [0x2B] Vukki-Chebukki (ID: 16794002/0x01004192) [7705*]:
    → "You'll have to excuse this outburst of emotion. Even ex-bounty hunters have their soft spots, you know."
679: 0x14EF [0x23] WAIT_FOR_DIALOG_INTERACTION
680: 0x14F0 [0x2B] Vukki-Chebukki (ID: 16794002/0x01004192) [7706*]:
    → "I mean to live out the rest of my life with my children, happy and safe. For the moment, we'll be staying here on the island."
681: 0x14F7 [0x23] WAIT_FOR_DIALOG_INTERACTION
682: 0x14F8 [0x52] END_LOAD_SCHEDULER: End scheduler "t001" with entities [LocalPlayer, LocalPlayer], work=86*
683: 0x1507 [0x45] LOAD_SCHEDULED_TASK: Load scheduler "t002" with entities [LocalPlayer, LocalPlayer], work=[86*, 0*]
684: 0x1518 [0x2B] Vukki-Chebukki (ID: 16794002/0x01004192) [7707*]:
    → "As you know, I'm a target for some pretty nasty characters. They could come after me again at any time."
