# 16794000

## Common Data

| Field            | Value              |
|------------------|--------------------|
| Zone             | Bibiki Bay (ID: 4) |
| Block Size       | 12448 bytes        |
| Total Events     | 7                  |
| References Count | 222                |

## List of Events

| Event ID                 | Entrypoint   |   Size |   Instructions |
|--------------------------|--------------|--------|----------------|
| [65535](#event-65535)    | 0x0000       |      1 |              1 |
| [32](#event-32)          | 0x0001       |    219 |             34 |
| [33](#event-33)          | 0x00DC       |   2560 |            348 |
| [65535.1](#event-655351) | 0x0ADC       |   1481 |            179 |
| [40](#event-40)          | 0x10A5       |    577 |             71 |
| [37](#event-37)          | 0x12E6       |   4249 |            586 |
| [41](#event-41)          | 0x237F       |   2427 |            315 |

## DAT References (imed_data)

|   Index | Hex Value   |   Dec Value |
|---------|-------------|-------------|
|       0 | 0x00C8      |         200 |
|       1 | 0x0000      |           0 |
|       2 | 0x003C      |          60 |
|       3 | 0x0013      |          19 |
|       4 | 0x0077      |         119 |
|       5 | 0x005A      |          90 |
|       6 | 0x1CD7      |        7383 |
|       7 | 0x1CD8      |        7384 |
|       8 | 0x1CDA      |        7386 |
|       9 | 0x1CDB      |        7387 |
|      10 | 0x00DB      |         219 |
|      11 | 0x001E      |          30 |
|      12 | 0x0CC3      |        3267 |
|      13 | 0x1CDC      |        7388 |
|      14 | 0x1CDD      |        7389 |
|      15 | 0x1CDE      |        7390 |
|      16 | 0x1CDF      |        7391 |
|      17 | 0x1CE0      |        7392 |
|      18 | 0x0028      |          40 |
|      19 | 0x0070      |         112 |
|      20 | 0x0078      |         120 |
|      21 | 0x00C9      |         201 |
|      22 | 0x00E7      |         231 |
|      23 | 0x0064      |         100 |
|      24 | 0x1CE1      |        7393 |
|      25 | 0x1CE2      |        7394 |
|      26 | 0x1CE3      |        7395 |
|      27 | 0x1CE4      |        7396 |
|      28 | 0x1CE5      |        7397 |
|      29 | 0x0D70      |        3440 |
|      30 | 0x1CE6      |        7398 |
|      31 | 0x1CE7      |        7399 |
|      32 | 0x0005      |           5 |
|      33 | 0x1CE8      |        7400 |
|      34 | 0x1CE9      |        7401 |
|      35 | 0x1CEA      |        7402 |
|      36 | 0x1CEB      |        7403 |
|      37 | 0x1CEC      |        7404 |
|      38 | 0x1CED      |        7405 |
|      39 | 0x1CEE      |        7406 |
|      40 | 0x1CEF      |        7407 |
|      41 | 0x0D74      |        3444 |
|      42 | 0x1CF0      |        7408 |
|      43 | 0x1CF1      |        7409 |
|      44 | 0x1CF2      |        7410 |
|      45 | 0x1CF3      |        7411 |
|      46 | 0x1CF4      |        7412 |
|      47 | 0x1CF5      |        7413 |
|      48 | 0x1CF6      |        7414 |
|      49 | 0x1CF7      |        7415 |
|      50 | 0x1CF8      |        7416 |
|      51 | 0x1CF9      |        7417 |
|      52 | 0x1CFA      |        7418 |
|      53 | 0x1CFB      |        7419 |
|      54 | 0x1CFC      |        7420 |
|      55 | 0x1CFD      |        7421 |
|      56 | 0x1CFE      |        7422 |
|      57 | 0x1CFF      |        7423 |
|      58 | 0x1D00      |        7424 |
|      59 | 0x1D01      |        7425 |
|      60 | 0x1D02      |        7426 |
|      61 | 0x1D03      |        7427 |
|      62 | 0x1D04      |        7428 |
|      63 | 0x1D05      |        7429 |
|      64 | 0x1D06      |        7430 |
|      65 | 0x1D07      |        7431 |
|      66 | 0x1D08      |        7432 |
|      67 | 0x1D09      |        7433 |
|      68 | 0x1D0A      |        7434 |
|      69 | 0x1D0B      |        7435 |
|      70 | 0x1D0C      |        7436 |
|      71 | 0x1D0D      |        7437 |
|      72 | 0x1D0E      |        7438 |
|      73 | 0x1D0F      |        7439 |
|      74 | 0x1D10      |        7440 |
|      75 | 0x1D11      |        7441 |
|      76 | 0x1D12      |        7442 |
|      77 | 0x1D13      |        7443 |
|      78 | 0x1D14      |        7444 |
|      79 | 0x1D15      |        7445 |
|      80 | 0x1D16      |        7446 |
|      81 | 0x1D17      |        7447 |
|      82 | 0x1D18      |        7448 |
|      83 | 0x1D19      |        7449 |
|      84 | 0x1D1A      |        7450 |
|      85 | 0x001C      |          28 |
|      86 | 0x000C      |          12 |
|      87 | 0x0001      |           1 |
|      88 | 0x003D      |          61 |
|      89 | 0x012C      |         300 |
|      90 | 0x0004      |           4 |
|      91 | 0x1D1B      |        7451 |
|      92 | 0x0006      |           6 |
|      93 | 0x1D1C      |        7452 |
|      94 | 0x0F33      |        3891 |
|      95 | 0x1D1D      |        7453 |
|      96 | 0x1D1E      |        7454 |
|      97 | 0x1D1F      |        7455 |
|      98 | 0x00A0      |         160 |
|      99 | 0x0081      |         129 |
|     100 | 0x1D61      |        7521 |
|     101 | 0x1D62      |        7522 |
|     102 | 0x05BB      |        1467 |
|     103 | 0x1D63      |        7523 |
|     104 | 0x0050      |          80 |
|     105 | 0x1D64      |        7524 |
|     106 | 0x1D65      |        7525 |
|     107 | 0x1D66      |        7526 |
|     108 | 0x1D67      |        7527 |
|     109 | 0x1D68      |        7528 |
|     110 | 0x1D69      |        7529 |
|     111 | 0x00AA      |         170 |
|     112 | 0x1D6A      |        7530 |
|     113 | 0x1D6B      |        7531 |
|     114 | 0x1D6C      |        7532 |
|     115 | 0x1D6D      |        7533 |
|     116 | 0x1D6E      |        7534 |
|     117 | 0x1D6F      |        7535 |
|     118 | 0x0032      |          50 |
|     119 | 0x1D70      |        7536 |
|     120 | 0x000A      |          10 |
|     121 | 0x1D71      |        7537 |
|     122 | 0x1D72      |        7538 |
|     123 | 0x1D73      |        7539 |
|     124 | 0x007F      |         127 |
|     125 | 0x1D74      |        7540 |
|     126 | 0x1D75      |        7541 |
|     127 | 0x1D76      |        7542 |
|     128 | 0x1D77      |        7543 |
|     129 | 0x1D78      |        7544 |
|     130 | 0x1D79      |        7545 |
|     131 | 0x1D7A      |        7546 |
|     132 | 0x007C      |         124 |
|     133 | 0x1D7B      |        7547 |
|     134 | 0x1D7C      |        7548 |
|     135 | 0x1D7D      |        7549 |
|     136 | 0x1D7E      |        7550 |
|     137 | 0x1D7F      |        7551 |
|     138 | 0x1D80      |        7552 |
|     139 | 0x1D81      |        7553 |
|     140 | 0x1D82      |        7554 |
|     141 | 0x1D83      |        7555 |
|     142 | 0x1D84      |        7556 |
|     143 | 0x1D85      |        7557 |
|     144 | 0x1D86      |        7558 |
|     145 | 0x1D87      |        7559 |
|     146 | 0x1D88      |        7560 |
|     147 | 0x1D89      |        7561 |
|     148 | 0x1D8A      |        7562 |
|     149 | 0x1D8B      |        7563 |
|     150 | 0x1D8C      |        7564 |
|     151 | 0x1D8D      |        7565 |
|     152 | 0x1D8E      |        7566 |
|     153 | 0x1D8F      |        7567 |
|     154 | 0x009F      |         159 |
|     155 | 0x1D90      |        7568 |
|     156 | 0x1D91      |        7569 |
|     157 | 0x1E26      |        7718 |
|     158 | 0x1D92      |        7570 |
|     159 | 0x1D93      |        7571 |
|     160 | 0x1D94      |        7572 |
|     161 | 0x1D95      |        7573 |
|     162 | 0x1D96      |        7574 |
|     163 | 0x1D97      |        7575 |
|     164 | 0x1D98      |        7576 |
|     165 | 0x1D99      |        7577 |
|     166 | 0x1D9A      |        7578 |
|     167 | 0x1D9B      |        7579 |
|     168 | 0x1D9C      |        7580 |
|     169 | 0x1D9D      |        7581 |
|     170 | 0x1D9E      |        7582 |
|     171 | 0x1D9F      |        7583 |
|     172 | 0x1DA0      |        7584 |
|     173 | 0x0002      |           2 |
|     174 | 0x1DA1      |        7585 |
|     175 | 0x1DA2      |        7586 |
|     176 | 0x1DA3      |        7587 |
|     177 | 0x0120      |         288 |
|     178 | 0x1DA4      |        7588 |
|     179 | 0x1DA5      |        7589 |
|     180 | 0x008C      |         140 |
|     181 | 0x1DA7      |        7591 |
|     182 | 0x1DA8      |        7592 |
|     183 | 0x00AC      |         172 |
|     184 | 0x0008      |           8 |
|     185 | 0x1DA9      |        7593 |
|     186 | 0x1DAA      |        7594 |
|     187 | 0x00FA      |         250 |
|     188 | 0x1DAB      |        7595 |
|     189 | 0x1DAC      |        7596 |
|     190 | 0x1DAD      |        7597 |
|     191 | 0x1DAE      |        7598 |
|     192 | 0x1DAF      |        7599 |
|     193 | 0x1DB0      |        7600 |
|     194 | 0x1DB1      |        7601 |
|     195 | 0x0015      |          21 |
|     196 | 0x1DB2      |        7602 |
|     197 | 0x1DB3      |        7603 |
|     198 | 0x1DB4      |        7604 |
|     199 | 0x1DB5      |        7605 |
|     200 | 0x1DB6      |        7606 |
|     201 | 0x1DB7      |        7607 |
|     202 | 0x1DB8      |        7608 |
|     203 | 0x1DB9      |        7609 |
|     204 | 0x1DBA      |        7610 |
|     205 | 0x1DBB      |        7611 |
|     206 | 0x1DBC      |        7612 |
|     207 | 0x1DBD      |        7613 |
|     208 | 0x1DBE      |        7614 |
|     209 | 0x1DBF      |        7615 |
|     210 | 0x1DC0      |        7616 |
|     211 | 0x1DC1      |        7617 |
|     212 | 0x1DC2      |        7618 |
|     213 | 0x1DC3      |        7619 |
|     214 | 0x1DC4      |        7620 |
|     215 | 0x1DC5      |        7621 |
|     216 | 0x0007      |           7 |
|     217 | 0x0003      |           3 |
|     218 | 0x1DC6      |        7622 |
|     219 | 0x1DC7      |        7623 |
|     220 | 0x1DC8      |        7624 |
|     221 | 0x1DC9      |        7625 |

## String References

- **7383**: <Clunk-clunk>...
- **7384**: A piece of paper slips out from the warmachine and flutters to the ground.
- **7386**: <Clunk-clunk>...
- **7387**: The machine has noticed something behind you...
- **7388**: <Clunk-clunk>... <Whirl-whizz>...!
- **7393**: Look at what you've done to my warmachine! After all I went through to get my hands on one...
- **7394**: You're so mean!
- **7395**: You're so terrible!
- **7396**: You're so ugly!
- **7537**: Mean!
- **7538**: Terrible!
- **7539**: Ugly!
- **7542**: If that's your goal, then you've already achieved it.
- **7581**: Accept Sanctia as your apprentice? [I could use an extra hand./You've got to be kidding me...]
- **7611**: For that irreplaceable quality which defines our existence...

## Events

### Event 65535

#### Metadata

| Field        | Value   |
|--------------|---------|
| Entrypoint   | 0x0000  |
| Data Size    | 1 bytes |
| Instructions | 1       |

```
      00 01 02 03 04 05 06 07  08 09 0A 0B 0C 0D 0E 0F
      -- -- -- -- -- -- -- --  -- -- -- -- -- -- -- --
0000: 00                                                .               
```

#### Opcodes

```
  0: 0x0000 [0x00] END_REQSTACK()
```

### Event 32

#### Metadata

| Field        | Value     |
|--------------|-----------|
| Entrypoint   | 0x0001    |
| Data Size    | 219 bytes |
| Instructions | 34        |

```
      00 01 02 03 04 05 06 07  08 09 0A 0B 0C 0D 0E 0F
      -- -- -- -- -- -- -- --  -- -- -- -- -- -- -- --
0000:    20 01 42 46 01 45 00  80 F8 FF FF 7F F8 FF FF    .BF.E.........
0010: 7F 66 64 6F 31 01 80 1C  02 80 38 03 80 29 08 F0  .fdo1.....8..)..
0020: FF FF 7F 04 29 0B 91 41  00 01 04 29 0B F0 FF FF  ....)..A...)....
0030: 7F 10 4A F0 FF FF 7F 91  41 00 01 6F 76 F0 FF FF  ..J.....A..ov...
0040: 7F 45 04 80 F8 FF FF 7F  F8 FF FF 7F 73 30 33 33  .E..........s033
0050: 01 80 45 00 80 F8 FF FF  7F F8 FF FF 7F 66 64 69  ..E..........fdi
0060: 31 01 80 1C 05 80 4A 91  41 00 01 F0 FF FF 7F 1D  1.....J.A.......
0070: 06 80 23 6F 76 91 41 00  01 2C 91 41 00 01 91 41  ..#ov.A..,.A...A
0080: 00 01 61 74 66 30 53 91  41 00 01 91 41 00 01 61  ..atf0S.A...A..a
0090: 74 66 30 45 00 80 F0 FF  FF 7F F0 FF FF 7F 66 64  tf0E..........fd
00A0: 6F 31 01 80 1C 02 80 48  07 80 23 52 04 80 F8 FF  o1.....H..#R....
00B0: FF 7F F8 FF FF 7F 73 30  33 33 4E 00 F0 FF FF 7F  ......s033N.....
00C0: 80 F0 FF FF 7F 46 00 45  00 80 F0 FF FF 7F F0 FF  .....F.E........
00D0: FF 7F 66 64 69 31 01 80  20 00 21 00              ..fdi1.. .!.    
```

#### Opcodes

```
  0: 0x0001 [0x20] SET_CLI_EVENT_UC_FLAG: Lock player control
  1: 0x0003 [0x42] SET_CLI_EVENT_CANCEL_DATA()
  2: 0x0004 [0x46] CAMERA_CONTROL: Disable user control
  3: 0x0006 [0x45] LOAD_SCHEDULED_TASK: Load scheduler "fdo1" with entities [EventEntity, EventEntity], work=[200*, 0*]
  4: 0x0017 [0x1C] WAIT(60* ticks)
  5: 0x001A [0x38] SET_CLIENT_EVENT_MODE(mode=19*)
  6: 0x001D [0x29] REQ_SET_WAIT(priority=0x08, entity_id=LocalPlayer, tag_num=0x04)
  7: 0x0024 [0x29] REQ_SET_WAIT(priority=0x0B, entity_id=??? Warmachine (ID: 16794001/0x01004191), tag_num=0x04)
  8: 0x002B [0x29] REQ_SET_WAIT(priority=0x0B, entity_id=LocalPlayer, tag_num=0x10)
  9: 0x0032 [0x4A] LocalPlayer looks at ??? Warmachine (ID: 16794001/0x01004191)
 10: 0x003B [0x6F] WAIT_FRAME_DELAY: Yield until WaitTime reaches zero
 11: 0x003C [0x76] CHECK_ENTITY_RENDER_FLAGS: Wait until LocalPlayer Render.Flags0 and Render.Flags3 conditions are met
 12: 0x0041 [0x45] LOAD_SCHEDULED_TASK: Load scheduler "s033" with entities [EventEntity, EventEntity], work=[119*, 0*]
 13: 0x0052 [0x45] LOAD_SCHEDULED_TASK: Load scheduler "fdi1" with entities [EventEntity, EventEntity], work=[200*, 0*]
 14: 0x0063 [0x1C] WAIT(90* ticks)
 15: 0x0066 [0x4A] ??? Warmachine (ID: 16794001/0x01004191) looks at LocalPlayer
 16: 0x006F [0x1D] PRINT_EVENT_MESSAGE(message_id=7383*)
    → "<Clunk-clunk>..."
 17: 0x0072 [0x23] WAIT_FOR_DIALOG_INTERACTION
 18: 0x0073 [0x6F] WAIT_FRAME_DELAY: Yield until WaitTime reaches zero
 19: 0x0074 [0x76] CHECK_ENTITY_RENDER_FLAGS: Wait until ??? Warmachine (ID: 16794001/0x01004191) Render.Flags0 and Render.Flags3 conditions are met
 20: 0x0079 [0x2C] CREATE_SCHEDULER_TASK: Create scheduler "atf0" with entities [??? Warmachine (ID: 16794001/0x01004191), ??? Warmachine (ID: 16794001/0x01004191)]
 21: 0x0086 [0x53] WAIT_SCHEDULER_TASK: Wait for scheduler "atf0" with entities [??? Warmachine (ID: 16794001/0x01004191), ??? Warmachine (ID: 16794001/0x01004191)]
 22: 0x0093 [0x45] LOAD_SCHEDULED_TASK: Load scheduler "fdo1" with entities [LocalPlayer, LocalPlayer], work=[200*, 0*]
 23: 0x00A4 [0x1C] WAIT(60* ticks)
 24: 0x00A7 [0x48] [System] [7384*]:
    → "A piece of paper slips out from the warmachine and flutters to the ground."
 25: 0x00AA [0x23] WAIT_FOR_DIALOG_INTERACTION
 26: 0x00AB [0x52] END_LOAD_SCHEDULER: End scheduler "s033" with entities [EventEntity, EventEntity], work=119*
 27: 0x00BA [0x4E] SET_ENTITY_HIDE_FLAG: Show LocalPlayer
 28: 0x00C0 [0x80] LOAD_WAIT(entity=LocalPlayer)
 29: 0x00C5 [0x46] CAMERA_CONTROL: Restore default settings
 30: 0x00C7 [0x45] LOAD_SCHEDULED_TASK: Load scheduler "fdi1" with entities [LocalPlayer, LocalPlayer], work=[200*, 0*]
 31: 0x00D8 [0x20] SET_CLI_EVENT_UC_FLAG: Unlock player control
 32: 0x00DA [0x21] END_EVENT
 33: 0x00DB [0x00] END_REQSTACK()
```

### Event 33

#### Metadata

| Field        | Value      |
|--------------|------------|
| Entrypoint   | 0x00DC     |
| Data Size    | 2560 bytes |
| Instructions | 348        |

```
      00 01 02 03 04 05 06 07  08 09 0A 0B 0C 0D 0E 0F
      -- -- -- -- -- -- -- --  -- -- -- -- -- -- -- --
00D0:                                      20 01 42 46               .BF
00E0: 01 45 00 80 F8 FF FF 7F  F8 FF FF 7F 66 64 6F 31  .E..........fdo1
00F0: 01 80 1C 02 80 38 03 80  29 08 F0 FF FF 7F 04 29  .....8..)......)
0100: 0B 91 41 00 01 04 29 0B  F0 FF FF 7F 10 29 0B 93  ..A...)......)..
0110: 41 00 01 40 29 0B 97 41  00 01 02 29 0B 94 41 00  A..@)..A...)..A.
0120: 01 08 29 0B 95 41 00 01  08 29 0B 96 41 00 01 08  ..)..A...)..A...
0130: 4E 01 94 41 00 01 4E 01  95 41 00 01 4E 01 96 41  N..A..N..A..N..A
0140: 00 01 4A F0 FF FF 7F 91  41 00 01 4A 91 41 00 01  ..J.....A..J.A..
0150: F0 FF FF 7F 6F 76 91 41  00 01 6F 76 F0 FF FF 7F  ....ov.A..ov....
0160: 4E 00 93 41 00 01 80 93  41 00 01 45 04 80 F8 FF  N..A....A..E....
0170: FF 7F F8 FF FF 7F 73 30  33 33 01 80 45 00 80 F8  ......s033..E...
0180: FF FF 7F F8 FF FF 7F 66  64 69 31 01 80 1D 08 80  .......fdi1.....
0190: 23 48 09 80 23 27 0B 91  41 00 01 05 1C 02 80 52  #H..#'..A......R
01A0: 04 80 F8 FF FF 7F F8 FF  FF 7F 73 30 33 33 45 04  ..........s033E.
01B0: 80 F8 FF FF 7F F8 FF FF  7F 73 30 33 34 01 80 5C  .........s034..\
01C0: 00 0A 80 5C 01 0A 80 27  0B 93 41 00 01 41 1C 0B  ...\...'..A..A..
01D0: 80 79 00 F0 FF FF 7F 93  41 00 01 4B F0 FF FF 7F  .y......A..K....
01E0: 0C 80 6F 76 F0 FF FF 7F  1C 0B 80 52 04 80 F8 FF  ..ov.......R....
01F0: FF 7F F8 FF FF 7F 73 30  33 34 45 04 80 F8 FF FF  ......s034E.....
0200: 7F F8 FF FF 7F 73 30 33  36 01 80 1C 02 80 1D 0D  .....s036.......
0210: 80 23 2A 0B 93 41 00 01  1C 02 80 45 00 80 F0 FF  .#*..A.....E....
0220: FF 7F F0 FF FF 7F 6F 76  6C 31 01 80 45 04 80 F8  ......ovl1..E...
0230: FF FF 7F F8 FF FF 7F 73  30 33 38 01 80 2B 93 41  .......s038..+.A
0240: 00 01 0E 80 23 79 00 93  41 00 01 F0 FF FF 7F 2B  ....#y..A......+
0250: 93 41 00 01 0F 80 23 52  04 80 F8 FF FF 7F F8 FF  .A....#R........
0260: FF 7F 73 30 33 38 45 00  80 F0 FF FF 7F F0 FF FF  ..s038E.........
0270: 7F 6F 76 6C 31 01 80 45  04 80 F8 FF FF 7F F8 FF  .ovl1..E........
0280: FF 7F 73 30 33 37 01 80  29 0B F0 FF FF 7F 12 7B  ..s037..)......{
0290: 93 41 00 01 27 0B 93 41  00 01 43 2B 93 41 00 01  .A..'..A..C+.A..
02A0: 10 80 23 2A 0B 93 41 00  01 4A 93 41 00 01 91 41  ..#*..A..J.A...A
02B0: 00 01 2B 93 41 00 01 11  80 23 6F 76 93 41 00 01  ..+.A....#ov.A..
02C0: 52 04 80 F8 FF FF 7F F8  FF FF 7F 73 30 33 37 45  R..........s037E
02D0: 04 80 F8 FF FF 7F F8 FF  FF 7F 73 30 33 35 01 80  ..........s035..
02E0: 29 08 93 41 00 01 21 1C  02 80 27 08 93 41 00 01  )..A..!...'..A..
02F0: 2B 52 04 80 F8 FF FF 7F  F8 FF FF 7F 73 30 33 35  +R..........s035
0300: 1C 12 80 9F 13 80 93 41  00 01 93 41 00 01 6D 61  .......A...A..ma
0310: 69 6E 01 80 1C 14 80 5D  01 80 00 80 45 04 80 F8  in.....]....E...
0320: FF FF 7F F8 FF FF 7F 73  30 33 39 01 80 9F 13 80  .......s039.....
0330: 93 41 00 01 93 41 00 01  6B 69 6C 6C 01 80 27 0B  .A...A..kill..'.
0340: 91 41 00 01 01 1C 14 80  45 15 80 F0 FF FF 7F F0  .A......E.......
0350: FF FF 7F 77 68 6F 31 01  80 1C 02 80 2A 0B 91 41  ...who1.....*..A
0360: 00 01 29 08 93 41 00 01  3B 4E 01 91 41 00 01 4E  ..)..A..;N..A..N
0370: 00 94 41 00 01 4E 00 95  41 00 01 4E 00 96 41 00  ..A..N..A..N..A.
0380: 01 80 94 41 00 01 80 95  41 00 01 80 96 41 00 01  ...A....A....A..
0390: 29 0B 93 41 00 01 44 29  0B F0 FF FF 7F 13 29 0B  )..A..D)......).
03A0: 92 41 00 01 48 79 00 F0  FF FF 7F 94 41 00 01 79  .A..Hy......A..y
03B0: 00 93 41 00 01 94 41 00  01 79 00 94 41 00 01 93  ..A...A..y..A...
03C0: 41 00 01 79 00 95 41 00  01 93 41 00 01 79 00 96  A..y..A...A..y..
03D0: 41 00 01 93 41 00 01 5C  00 16 80 5C 01 16 80 1C  A...A..\...\....
03E0: 17 80 52 04 80 F8 FF FF  7F F8 FF FF 7F 73 30 33  ..R..........s03
03F0: 39 45 04 80 F8 FF FF 7F  F8 FF FF 7F 73 30 34 32  9E..........s042
0400: 01 80 45 00 80 F8 FF FF  7F F8 FF FF 7F 66 64 69  ..E..........fdi
0410: 31 01 80 45 15 80 F0 FF  FF 7F F0 FF FF 7F 77 68  1..E..........wh
0420: 69 31 01 80 1C 00 80 52  04 80 F8 FF FF 7F F8 FF  i1.....R........
0430: FF 7F 73 30 34 32 45 04  80 F8 FF FF 7F F8 FF FF  ..s042E.........
0440: 7F 73 30 34 30 01 80 4E  01 93 41 00 01 1D 18 80  .s040..N..A.....
0450: 23 27 0B 94 41 00 01 05  1D 19 80 23 27 0B 95 41  #'..A......#'..A
0460: 00 01 05 1D 1A 80 23 27  0B 96 41 00 01 05 1D 1B  ......#'..A.....
0470: 80 23 52 04 80 F8 FF FF  7F F8 FF FF 7F 73 30 34  .#R..........s04
0480: 30 45 04 80 F8 FF FF 7F  F8 FF FF 7F 73 30 34 31  0E..........s041
0490: 01 80 4E 00 93 41 00 01  7B 93 41 00 01 27 0B 94  ..N..A..{.A..'..
04A0: 41 00 01 06 27 0B 95 41  00 01 06 27 0B 96 41 00  A...'..A...'..A.
04B0: 01 06 2B 93 41 00 01 1C  80 23 4B 93 41 00 01 1D  ..+.A....#K.A...
04C0: 80 6F 76 93 41 00 01 52  04 80 F8 FF FF 7F F8 FF  .ov.A..R........
04D0: FF 7F 73 30 34 31 45 00  80 F0 FF FF 7F F0 FF FF  ..s041E.........
04E0: 7F 6F 76 6C 31 01 80 45  04 80 F8 FF FF 7F F8 FF  .ovl1..E........
04F0: FF 7F 73 30 34 34 01 80  4A F0 FF FF 7F 93 41 00  ..s044..J.....A.
0500: 01 27 0B 93 41 00 01 45  2B 93 41 00 01 1E 80 23  .'..A..E+.A....#
0510: 2A 0B 93 41 00 01 4E 00  92 41 00 01 29 08 93 41  *..A..N..A..)..A
0520: 00 01 04 2B 93 41 00 01  1F 80 23 29 08 93 41 00  ...+.A....#)..A.
0530: 01 05 80 92 41 00 01 79  00 92 41 00 01 93 41 00  ....A..y..A...A.
0540: 01 27 0B 94 41 00 01 09  27 0B 95 41 00 01 09 27  .'..A...'..A...'
0550: 0B 96 41 00 01 09 1C 20  80 52 04 80 F8 FF FF 7F  ..A.... .R......
0560: F8 FF FF 7F 73 30 34 34  45 04 80 F8 FF FF 7F F8  ....s044E.......
0570: FF FF 7F 73 30 34 35 01  80 4A 93 41 00 01 92 41  ...s045..J.A...A
0580: 00 01 4A F0 FF FF 7F 92  41 00 01 27 0B 92 41 00  ..J.....A..'..A.
0590: 01 49 2B 92 41 00 01 21  80 23 2A 0B 92 41 00 01  .I+.A..!.#*..A..
05A0: 29 08 92 41 00 01 1D 2B  92 41 00 01 22 80 23 29  )..A...+.A..".#)
05B0: 08 92 41 00 01 1E 4E 00  97 41 00 01 80 97 41 00  ..A...N..A....A.
05C0: 01 52 04 80 F8 FF FF 7F  F8 FF FF 7F 73 30 34 35  .R..........s045
05D0: 45 04 80 F8 FF FF 7F F8  FF FF 7F 73 30 34 36 01  E..........s046.
05E0: 80 29 08 92 41 00 01 0B  2B 92 41 00 01 23 80 23  .)..A...+.A..#.#
05F0: 29 08 92 41 00 01 0C 29  08 92 41 00 01 1D 2B 92  )..A...)..A...+.
0600: 41 00 01 24 80 23 29 08  92 41 00 01 1E 2A 0B 94  A..$.#)..A...*..
0610: 41 00 01 2A 0B 95 41 00  01 2A 0B 96 41 00 01 4E  A..*..A..*..A..N
0620: 01 94 41 00 01 4E 01 95  41 00 01 4E 01 96 41 00  ..A..N..A..N..A.
0630: 01 52 04 80 F8 FF FF 7F  F8 FF FF 7F 73 30 34 36  .R..........s046
0640: 45 04 80 F8 FF FF 7F F8  FF FF 7F 73 30 34 37 01  E..........s047.
0650: 80 4E 01 97 41 00 01 2B  93 41 00 01 25 80 23 29  .N..A..+.A..%.#)
0660: 08 93 41 00 01 10 2B 93  41 00 01 26 80 23 52 04  ..A...+.A..&.#R.
0670: 80 F8 FF FF 7F F8 FF FF  7F 73 30 34 37 2B 93 41  .........s047+.A
0680: 00 01 27 80 23 29 08 93  41 00 01 11 6F 76 92 41  ..'.#)..A...ov.A
0690: 00 01 45 00 80 F0 FF FF  7F F0 FF FF 7F 6F 76 6C  ..E..........ovl
06A0: 31 01 80 45 04 80 F8 FF  FF 7F F8 FF FF 7F 73 30  1..E..........s0
06B0: 35 30 01 80 29 08 93 41  00 01 12 2B 93 41 00 01  50..)..A...+.A..
06C0: 28 80 23 29 08 93 41 00  01 13 29 08 92 41 00 01  (.#)..A...)..A..
06D0: 01 4B 93 41 00 01 29 80  7B 93 41 00 01 2B 92 41  .K.A..).{.A..+.A
06E0: 00 01 2A 80 23 2B 92 41  00 01 2B 80 23 6F 76 93  ..*.#+.A..+.#ov.
06F0: 41 00 01 27 0B 93 41 00  01 46 52 04 80 F8 FF FF  A..'..A..FR.....
0700: 7F F8 FF FF 7F 73 30 35  30 45 04 80 F8 FF FF 7F  .....s050E......
0710: F8 FF FF 7F 73 30 34 38  01 80 2B 93 41 00 01 2C  ....s048..+.A..,
0720: 80 23 2A 0B 93 41 00 01  79 00 F0 FF FF 7F 93 41  .#*..A..y......A
0730: 00 01 4A 92 41 00 01 93  41 00 01 79 00 93 41 00  ..J.A...A..y..A.
0740: 01 92 41 00 01 29 08 92  41 00 01 02 2B 93 41 00  ..A..)..A...+.A.
0750: 01 2D 80 23 52 04 80 F8  FF FF 7F F8 FF FF 7F 73  .-.#R..........s
0760: 30 34 38 45 04 80 F8 FF  FF 7F F8 FF FF 7F 73 30  048E..........s0
0770: 35 32 01 80 2B 92 41 00  01 2E 80 23 29 08 92 41  52..+.A....#)..A
0780: 00 01 1D 2B 92 41 00 01  2F 80 23 29 08 92 41 00  ...+.A../.#)..A.
0790: 01 1E 7B 93 41 00 01 1C  0B 80 52 04 80 F8 FF FF  ..{.A.....R.....
07A0: 7F F8 FF FF 7F 73 30 35  32 45 00 80 F0 FF FF 7F  .....s052E......
07B0: F0 FF FF 7F 6F 76 6C 31  01 80 45 04 80 F8 FF FF  ....ovl1..E.....
07C0: 7F F8 FF FF 7F 73 30 34  39 01 80 29 08 93 41 00  .....s049..)..A.
07D0: 01 14 2B 93 41 00 01 30  80 23 2B 93 41 00 01 31  ..+.A..0.#+.A..1
07E0: 80 23 2B 93 41 00 01 32  80 23 29 08 93 41 00 01  .#+.A..2.#)..A..
07F0: 15 52 04 80 F8 FF FF 7F  F8 FF FF 7F 73 30 34 39  .R..........s049
0800: 45 04 80 F8 FF FF 7F F8  FF FF 7F 73 30 35 34 01  E..........s054.
0810: 80 29 08 93 41 00 01 16  27 0B 92 41 00 01 4A 2B  .)..A...'..A..J+
0820: 92 41 00 01 33 80 23 2A  0B 92 41 00 01 29 08 93  .A..3.#*..A..)..
0830: 41 00 01 17 79 00 93 41  00 01 92 41 00 01 2B 93  A...y..A...A..+.
0840: 41 00 01 34 80 23 52 04  80 F8 FF FF 7F F8 FF FF  A..4.#R.........
0850: 7F 73 30 35 34 45 00 80  F0 FF FF 7F F0 FF FF 7F  .s054E..........
0860: 6F 76 6C 31 01 80 45 04  80 F8 FF FF 7F F8 FF FF  ovl1..E.........
0870: 7F 73 30 35 31 01 80 2B  93 41 00 01 35 80 23 2B  .s051..+.A..5.#+
0880: 92 41 00 01 36 80 23 52  04 80 F8 FF FF 7F F8 FF  .A..6.#R........
0890: FF 7F 73 30 35 31 45 04  80 F8 FF FF 7F F8 FF FF  ..s051E.........
08A0: 7F 73 30 35 35 01 80 4A  93 41 00 01 92 41 00 01  .s055..J.A...A..
08B0: 2B 93 41 00 01 37 80 23  6F 76 93 41 00 01 29 08  +.A..7.#ov.A..).
08C0: 93 41 00 01 10 2B 93 41  00 01 38 80 23 29 08 93  .A...+.A..8.#)..
08D0: 41 00 01 11 27 0B 92 41  00 01 4B 52 04 80 F8 FF  A...'..A..KR....
08E0: FF 7F F8 FF FF 7F 73 30  35 35 45 04 80 F8 FF FF  ......s055E.....
08F0: 7F F8 FF FF 7F 73 30 35  36 01 80 29 08 93 41 00  .....s056..)..A.
0900: 01 12 2B 92 41 00 01 39  80 23 2A 0B 92 41 00 01  ..+.A..9.#*..A..
0910: 29 08 92 41 00 01 03 2B  92 41 00 01 3A 80 23 29  )..A...+.A..:.#)
0920: 08 92 41 00 01 04 29 08  93 41 00 01 13 52 04 80  ..A...)..A...R..
0930: F8 FF FF 7F F8 FF FF 7F  73 30 35 36 45 04 80 F8  ........s056E...
0940: FF FF 7F F8 FF FF 7F 73  30 35 37 01 80 4A 93 41  .......s057..J.A
0950: 00 01 92 41 00 01 6F 76  93 41 00 01 2B 93 41 00  ...A..ov.A..+.A.
0960: 01 3B 80 23 29 08 93 41  00 01 10 2B 93 41 00 01  .;.#)..A...+.A..
0970: 3C 80 23 52 04 80 F8 FF  FF 7F F8 FF FF 7F 73 30  <.#R..........s0
0980: 35 37 45 04 80 F8 FF FF  7F F8 FF FF 7F 73 30 35  57E..........s05
0990: 38 01 80 29 08 92 41 00  01 05 2B 93 41 00 01 3D  8..)..A...+.A..=
09A0: 80 23 2B 93 41 00 01 3E  80 23 29 08 93 41 00 01  .#+.A..>.#)..A..
09B0: 11 2B 92 41 00 01 3F 80  23 29 08 92 41 00 01 06  .+.A..?.#)..A...
09C0: 52 04 80 F8 FF FF 7F F8  FF FF 7F 73 30 35 38 45  R..........s058E
09D0: 00 80 F0 FF FF 7F F0 FF  FF 7F 6F 76 6C 31 01 80  ..........ovl1..
09E0: 45 04 80 F8 FF FF 7F F8  FF FF 7F 73 30 35 39 01  E..........s059.
09F0: 80 29 08 93 41 00 01 12  2B 93 41 00 01 40 80 23  .)..A...+.A..@.#
0A00: 29 08 93 41 00 01 13 2B  93 41 00 01 41 80 23 52  )..A...+.A..A.#R
0A10: 04 80 F8 FF FF 7F F8 FF  FF 7F 73 30 35 39 5D 01  ..........s059].
0A20: 80 0B 80 45 04 80 F8 FF  FF 7F F8 FF FF 7F 73 30  ...E..........s0
0A30: 36 30 01 80 4A 92 41 00  01 93 41 00 01 6F 76 92  60..J.A...A..ov.
0A40: 41 00 01 29 08 92 41 00  01 1D 2B 92 41 00 01 42  A..)..A...+.A..B
0A50: 80 23 29 08 92 41 00 01  1E 52 04 80 F8 FF FF 7F  .#)..A...R......
0A60: F8 FF FF 7F 73 30 36 30  45 04 80 F8 FF FF 7F F8  ....s060E.......
0A70: FF FF 7F 73 30 36 31 01  80 2B 93 41 00 01 43 80  ...s061..+.A..C.
0A80: 23 5C 00 0A 80 5C 01 0A  80 2B 93 41 00 01 44 80  #\...\...+.A..D.
0A90: 23 2B 92 41 00 01 45 80  23 52 04 80 F8 FF FF 7F  #+.A..E.#R......
0AA0: F8 FF FF 7F 73 30 36 31  45 04 80 F8 FF FF 7F F8  ....s061E.......
0AB0: FF FF 7F 73 30 34 33 01  80 7B 93 41 00 01 29 08  ...s043..{.A..).
0AC0: 92 41 00 01 01 2B 92 41  00 01 46 80 23 52 04 80  .A...+.A..F.#R..
0AD0: F8 FF FF 7F F8 FF FF 7F  73 30 34 33              ........s043    
```

#### Opcodes

```
  0: 0x00DC [0x20] SET_CLI_EVENT_UC_FLAG: Lock player control
  1: 0x00DE [0x42] SET_CLI_EVENT_CANCEL_DATA()
  2: 0x00DF [0x46] CAMERA_CONTROL: Disable user control
  3: 0x00E1 [0x45] LOAD_SCHEDULED_TASK: Load scheduler "fdo1" with entities [EventEntity, EventEntity], work=[200*, 0*]
  4: 0x00F2 [0x1C] WAIT(60* ticks)
  5: 0x00F5 [0x38] SET_CLIENT_EVENT_MODE(mode=19*)
  6: 0x00F8 [0x29] REQ_SET_WAIT(priority=0x08, entity_id=LocalPlayer, tag_num=0x04)
  7: 0x00FF [0x29] REQ_SET_WAIT(priority=0x0B, entity_id=??? Warmachine (ID: 16794001/0x01004191), tag_num=0x04)
  8: 0x0106 [0x29] REQ_SET_WAIT(priority=0x0B, entity_id=LocalPlayer, tag_num=0x10)
  9: 0x010D [0x29] REQ_SET_WAIT(priority=0x0B, entity_id=Louverance (ID: 16794003/0x01004193), tag_num=0x40)
 10: 0x0114 [0x29] REQ_SET_WAIT(priority=0x0B, entity_id=Tori01 (ID: 16794007/0x01004197), tag_num=0x02)
 11: 0x011B [0x29] REQ_SET_WAIT(priority=0x0B, entity_id=Mame01 (ID: 16794004/0x01004194), tag_num=0x08)
 12: 0x0122 [0x29] REQ_SET_WAIT(priority=0x0B, entity_id=Mame02 (ID: 16794005/0x01004195), tag_num=0x08)
 13: 0x0129 [0x29] REQ_SET_WAIT(priority=0x0B, entity_id=Mame03 (ID: 16794006/0x01004196), tag_num=0x08)
 14: 0x0130 [0x4E] SET_ENTITY_HIDE_FLAG: Hide Mame01 (ID: 16794004/0x01004194)
 15: 0x0136 [0x4E] SET_ENTITY_HIDE_FLAG: Hide Mame02 (ID: 16794005/0x01004195)
 16: 0x013C [0x4E] SET_ENTITY_HIDE_FLAG: Hide Mame03 (ID: 16794006/0x01004196)
 17: 0x0142 [0x4A] LocalPlayer looks at ??? Warmachine (ID: 16794001/0x01004191)
 18: 0x014B [0x4A] ??? Warmachine (ID: 16794001/0x01004191) looks at LocalPlayer
 19: 0x0154 [0x6F] WAIT_FRAME_DELAY: Yield until WaitTime reaches zero
 20: 0x0155 [0x76] CHECK_ENTITY_RENDER_FLAGS: Wait until ??? Warmachine (ID: 16794001/0x01004191) Render.Flags0 and Render.Flags3 conditions are met
 21: 0x015A [0x6F] WAIT_FRAME_DELAY: Yield until WaitTime reaches zero
 22: 0x015B [0x76] CHECK_ENTITY_RENDER_FLAGS: Wait until LocalPlayer Render.Flags0 and Render.Flags3 conditions are met
 23: 0x0160 [0x4E] SET_ENTITY_HIDE_FLAG: Show Louverance (ID: 16794003/0x01004193)
 24: 0x0166 [0x80] LOAD_WAIT(entity=Louverance (ID: 16794003/0x01004193))
 25: 0x016B [0x45] LOAD_SCHEDULED_TASK: Load scheduler "s033" with entities [EventEntity, EventEntity], work=[119*, 0*]
 26: 0x017C [0x45] LOAD_SCHEDULED_TASK: Load scheduler "fdi1" with entities [EventEntity, EventEntity], work=[200*, 0*]
 27: 0x018D [0x1D] PRINT_EVENT_MESSAGE(message_id=7386*)
    → "<Clunk-clunk>..."
 28: 0x0190 [0x23] WAIT_FOR_DIALOG_INTERACTION
 29: 0x0191 [0x48] [System] [7387*]:
    → "The machine has noticed something behind you..."
 30: 0x0194 [0x23] WAIT_FOR_DIALOG_INTERACTION
 31: 0x0195 [0x27] REQ_SET(priority=0x0B, entity_id=??? Warmachine (ID: 16794001/0x01004191), tag_num=0x05)
 32: 0x019C [0x1C] WAIT(60* ticks)
 33: 0x019F [0x52] END_LOAD_SCHEDULER: End scheduler "s033" with entities [EventEntity, EventEntity], work=119*
 34: 0x01AE [0x45] LOAD_SCHEDULED_TASK: Load scheduler "s034" with entities [EventEntity, EventEntity], work=[119*, 0*]
 35: 0x01BF [0x5C] MUSIC_CONTROL: Set Idle (Day) music to song 219*
 36: 0x01C3 [0x5C] MUSIC_CONTROL: Set Idle (Night) music to song 219*
 37: 0x01C7 [0x27] REQ_SET(priority=0x0B, entity_id=Louverance (ID: 16794003/0x01004193), tag_num=0x41)
 38: 0x01CE [0x1C] WAIT(30* ticks)
 39: 0x01D1 [0x79] LocalPlayer looks at Louverance (ID: 16794003/0x01004193) (Basic look)
 40: 0x01DB [0x4B] UPDATE_ENTITY_YAW(entity=LocalPlayer, yaw=17.9°*)
 41: 0x01E2 [0x6F] WAIT_FRAME_DELAY: Yield until WaitTime reaches zero
 42: 0x01E3 [0x76] CHECK_ENTITY_RENDER_FLAGS: Wait until LocalPlayer Render.Flags0 and Render.Flags3 conditions are met
 43: 0x01E8 [0x1C] WAIT(30* ticks)
 44: 0x01EB [0x52] END_LOAD_SCHEDULER: End scheduler "s034" with entities [EventEntity, EventEntity], work=119*
 45: 0x01FA [0x45] LOAD_SCHEDULED_TASK: Load scheduler "s036" with entities [EventEntity, EventEntity], work=[119*, 0*]
 46: 0x020B [0x1C] WAIT(60* ticks)
 47: 0x020E [0x1D] PRINT_EVENT_MESSAGE(message_id=7388*)
    → "<Clunk-clunk>... <Whirl-whizz>...!"
 48: 0x0211 [0x23] WAIT_FOR_DIALOG_INTERACTION
 49: 0x0212 [0x2A] GET_REQ_LEVEL(level=11, entity_id=Louverance (ID: 16794003/0x01004193))
 50: 0x0218 [0x1C] WAIT(60* ticks)
 51: 0x021B [0x45] LOAD_SCHEDULED_TASK: Load scheduler "ovl1" with entities [LocalPlayer, LocalPlayer], work=[200*, 0*]
 52: 0x022C [0x45] LOAD_SCHEDULED_TASK: Load scheduler "s038" with entities [EventEntity, EventEntity], work=[119*, 0*]
 53: 0x023D [0x2B] Louverance (ID: 16794003/0x01004193) [7389*]:
    → "So, <Player>. You came even after I specifically requested that you entrust this matter to me."
 54: 0x0244 [0x23] WAIT_FOR_DIALOG_INTERACTION
 55: 0x0245 [0x79] Louverance (ID: 16794003/0x01004193) looks at LocalPlayer (Basic look)
 56: 0x024F [0x2B] Louverance (ID: 16794003/0x01004193) [7390*]:
    → "I suppose it is your prerogative as an adventurer to poke your nose into other people's business..."
 57: 0x0256 [0x23] WAIT_FOR_DIALOG_INTERACTION
 58: 0x0257 [0x52] END_LOAD_SCHEDULER: End scheduler "s038" with entities [EventEntity, EventEntity], work=119*
 59: 0x0266 [0x45] LOAD_SCHEDULED_TASK: Load scheduler "ovl1" with entities [LocalPlayer, LocalPlayer], work=[200*, 0*]
 60: 0x0277 [0x45] LOAD_SCHEDULED_TASK: Load scheduler "s037" with entities [EventEntity, EventEntity], work=[119*, 0*]
 61: 0x0288 [0x29] REQ_SET_WAIT(priority=0x0B, entity_id=LocalPlayer, tag_num=0x12)
 62: 0x028F [0x7B] Louverance (ID: 16794003/0x01004193) stops talking
 63: 0x0294 [0x27] REQ_SET(priority=0x0B, entity_id=Louverance (ID: 16794003/0x01004193), tag_num=0x43)
 64: 0x029B [0x2B] Louverance (ID: 16794003/0x01004193) [7391*]:
    → "However, you really are too forgiving."
 65: 0x02A2 [0x23] WAIT_FOR_DIALOG_INTERACTION
 66: 0x02A3 [0x2A] GET_REQ_LEVEL(level=11, entity_id=Louverance (ID: 16794003/0x01004193))
 67: 0x02A9 [0x4A] Louverance (ID: 16794003/0x01004193) looks at ??? Warmachine (ID: 16794001/0x01004191)
 68: 0x02B2 [0x2B] Louverance (ID: 16794003/0x01004193) [7392*]:
    → "Those who find enjoyment in the humiliation of others need to feel the sting of regret for their actions."
 69: 0x02B9 [0x23] WAIT_FOR_DIALOG_INTERACTION
 70: 0x02BA [0x6F] WAIT_FRAME_DELAY: Yield until WaitTime reaches zero
 71: 0x02BB [0x76] CHECK_ENTITY_RENDER_FLAGS: Wait until Louverance (ID: 16794003/0x01004193) Render.Flags0 and Render.Flags3 conditions are met
 72: 0x02C0 [0x52] END_LOAD_SCHEDULER: End scheduler "s037" with entities [EventEntity, EventEntity], work=119*
 73: 0x02CF [0x45] LOAD_SCHEDULED_TASK: Load scheduler "s035" with entities [EventEntity, EventEntity], work=[119*, 0*]
 74: 0x02E0 [0x29] REQ_SET_WAIT(priority=0x08, entity_id=Louverance (ID: 16794003/0x01004193), tag_num=0x21)
 75: 0x02E7 [0x1C] WAIT(60* ticks)
 76: 0x02EA [0x27] REQ_SET(priority=0x08, entity_id=Louverance (ID: 16794003/0x01004193), tag_num=0x2B)
 77: 0x02F1 [0x52] END_LOAD_SCHEDULER: End scheduler "s035" with entities [EventEntity, EventEntity], work=119*
 78: 0x0300 [0x1C] WAIT(40* ticks)
 79: 0x0303 [0x9F] LOAD_SCHEDULED_TASK_ALT: Load scheduler "main" with entities [Louverance (ID: 16794003/0x01004193), Louverance (ID: 16794003/0x01004193)], work=[112*, 0*]
 80: 0x0314 [0x1C] WAIT(120* ticks)
 81: 0x0317 [0x5D] SET_MUSIC_VOLUME(volume=0*, fade_time=200*)
 82: 0x031C [0x45] LOAD_SCHEDULED_TASK: Load scheduler "s039" with entities [EventEntity, EventEntity], work=[119*, 0*]
 83: 0x032D [0x9F] LOAD_SCHEDULED_TASK_ALT: Load scheduler "kill" with entities [Louverance (ID: 16794003/0x01004193), Louverance (ID: 16794003/0x01004193)], work=[112*, 0*]
 84: 0x033E [0x27] REQ_SET(priority=0x0B, entity_id=??? Warmachine (ID: 16794001/0x01004191), tag_num=0x01)
 85: 0x0345 [0x1C] WAIT(120* ticks)
 86: 0x0348 [0x45] LOAD_SCHEDULED_TASK: Load scheduler "who1" with entities [LocalPlayer, LocalPlayer], work=[201*, 0*]
 87: 0x0359 [0x1C] WAIT(60* ticks)
 88: 0x035C [0x2A] GET_REQ_LEVEL(level=11, entity_id=??? Warmachine (ID: 16794001/0x01004191))
 89: 0x0362 [0x29] REQ_SET_WAIT(priority=0x08, entity_id=Louverance (ID: 16794003/0x01004193), tag_num=0x3B)
 90: 0x0369 [0x4E] SET_ENTITY_HIDE_FLAG: Hide ??? Warmachine (ID: 16794001/0x01004191)
 91: 0x036F [0x4E] SET_ENTITY_HIDE_FLAG: Show Mame01 (ID: 16794004/0x01004194)
 92: 0x0375 [0x4E] SET_ENTITY_HIDE_FLAG: Show Mame02 (ID: 16794005/0x01004195)
 93: 0x037B [0x4E] SET_ENTITY_HIDE_FLAG: Show Mame03 (ID: 16794006/0x01004196)
 94: 0x0381 [0x80] LOAD_WAIT(entity=Mame01 (ID: 16794004/0x01004194))
 95: 0x0386 [0x80] LOAD_WAIT(entity=Mame02 (ID: 16794005/0x01004195))
 96: 0x038B [0x80] LOAD_WAIT(entity=Mame03 (ID: 16794006/0x01004196))
 97: 0x0390 [0x29] REQ_SET_WAIT(priority=0x0B, entity_id=Louverance (ID: 16794003/0x01004193), tag_num=0x44)
 98: 0x0397 [0x29] REQ_SET_WAIT(priority=0x0B, entity_id=LocalPlayer, tag_num=0x13)
 99: 0x039E [0x29] REQ_SET_WAIT(priority=0x0B, entity_id=Vukki-Chebukki (ID: 16794002/0x01004192), tag_num=0x48)
100: 0x03A5 [0x79] LocalPlayer looks at Mame01 (ID: 16794004/0x01004194) (Basic look)
101: 0x03AF [0x79] Louverance (ID: 16794003/0x01004193) looks at Mame01 (ID: 16794004/0x01004194) (Basic look)
102: 0x03B9 [0x79] Mame01 (ID: 16794004/0x01004194) looks at Louverance (ID: 16794003/0x01004193) (Basic look)
103: 0x03C3 [0x79] Mame02 (ID: 16794005/0x01004195) looks at Louverance (ID: 16794003/0x01004193) (Basic look)
104: 0x03CD [0x79] Mame03 (ID: 16794006/0x01004196) looks at Louverance (ID: 16794003/0x01004193) (Basic look)
105: 0x03D7 [0x5C] MUSIC_CONTROL: Set Idle (Day) music to song 231*
106: 0x03DB [0x5C] MUSIC_CONTROL: Set Idle (Night) music to song 231*
107: 0x03DF [0x1C] WAIT(100* ticks)
108: 0x03E2 [0x52] END_LOAD_SCHEDULER: End scheduler "s039" with entities [EventEntity, EventEntity], work=119*
109: 0x03F1 [0x45] LOAD_SCHEDULED_TASK: Load scheduler "s042" with entities [EventEntity, EventEntity], work=[119*, 0*]
110: 0x0402 [0x45] LOAD_SCHEDULED_TASK: Load scheduler "fdi1" with entities [EventEntity, EventEntity], work=[200*, 0*]
111: 0x0413 [0x45] LOAD_SCHEDULED_TASK: Load scheduler "whi1" with entities [LocalPlayer, LocalPlayer], work=[201*, 0*]
112: 0x0424 [0x1C] WAIT(200* ticks)
113: 0x0427 [0x52] END_LOAD_SCHEDULER: End scheduler "s042" with entities [EventEntity, EventEntity], work=119*
114: 0x0436 [0x45] LOAD_SCHEDULED_TASK: Load scheduler "s040" with entities [EventEntity, EventEntity], work=[119*, 0*]
115: 0x0447 [0x4E] SET_ENTITY_HIDE_FLAG: Hide Louverance (ID: 16794003/0x01004193)
116: 0x044D [0x1D] PRINT_EVENT_MESSAGE(message_id=7393*)
    → "Look at what you've done to my warmachine! After all I went through to get my hands on one..."
117: 0x0450 [0x23] WAIT_FOR_DIALOG_INTERACTION
118: 0x0451 [0x27] REQ_SET(priority=0x0B, entity_id=Mame01 (ID: 16794004/0x01004194), tag_num=0x05)
119: 0x0458 [0x1D] PRINT_EVENT_MESSAGE(message_id=7394*)
    → "You're so mean!"
120: 0x045B [0x23] WAIT_FOR_DIALOG_INTERACTION
121: 0x045C [0x27] REQ_SET(priority=0x0B, entity_id=Mame02 (ID: 16794005/0x01004195), tag_num=0x05)
122: 0x0463 [0x1D] PRINT_EVENT_MESSAGE(message_id=7395*)
    → "You're so terrible!"
123: 0x0466 [0x23] WAIT_FOR_DIALOG_INTERACTION
124: 0x0467 [0x27] REQ_SET(priority=0x0B, entity_id=Mame03 (ID: 16794006/0x01004196), tag_num=0x05)
125: 0x046E [0x1D] PRINT_EVENT_MESSAGE(message_id=7396*)
    → "You're so ugly!"
126: 0x0471 [0x23] WAIT_FOR_DIALOG_INTERACTION
127: 0x0472 [0x52] END_LOAD_SCHEDULER: End scheduler "s040" with entities [EventEntity, EventEntity], work=119*
128: 0x0481 [0x45] LOAD_SCHEDULED_TASK: Load scheduler "s041" with entities [EventEntity, EventEntity], work=[119*, 0*]
129: 0x0492 [0x4E] SET_ENTITY_HIDE_FLAG: Show Louverance (ID: 16794003/0x01004193)
130: 0x0498 [0x7B] Louverance (ID: 16794003/0x01004193) stops talking
131: 0x049D [0x27] REQ_SET(priority=0x0B, entity_id=Mame01 (ID: 16794004/0x01004194), tag_num=0x06)
132: 0x04A4 [0x27] REQ_SET(priority=0x0B, entity_id=Mame02 (ID: 16794005/0x01004195), tag_num=0x06)
133: 0x04AB [0x27] REQ_SET(priority=0x0B, entity_id=Mame03 (ID: 16794006/0x01004196), tag_num=0x06)
134: 0x04B2 [0x2B] Louverance (ID: 16794003/0x01004193) [7397*]:
    → "You waste your time speaking through these mandragoras."
135: 0x04B9 [0x23] WAIT_FOR_DIALOG_INTERACTION
136: 0x04BA [0x4B] UPDATE_ENTITY_YAW(entity=Louverance (ID: 16794003/0x01004193), yaw=18.9°*)
137: 0x04C1 [0x6F] WAIT_FRAME_DELAY: Yield until WaitTime reaches zero
138: 0x04C2 [0x76] CHECK_ENTITY_RENDER_FLAGS: Wait until Louverance (ID: 16794003/0x01004193) Render.Flags0 and Render.Flags3 conditions are met
139: 0x04C7 [0x52] END_LOAD_SCHEDULER: End scheduler "s041" with entities [EventEntity, EventEntity], work=119*
140: 0x04D6 [0x45] LOAD_SCHEDULED_TASK: Load scheduler "ovl1" with entities [LocalPlayer, LocalPlayer], work=[200*, 0*]
141: 0x04E7 [0x45] LOAD_SCHEDULED_TASK: Load scheduler "s044" with entities [EventEntity, EventEntity], work=[119*, 0*]
142: 0x04F8 [0x4A] LocalPlayer looks at Louverance (ID: 16794003/0x01004193)
143: 0x0501 [0x27] REQ_SET(priority=0x0B, entity_id=Louverance (ID: 16794003/0x01004193), tag_num=0x45)
144: 0x0508 [0x2B] Louverance (ID: 16794003/0x01004193) [7398*]:
    → "Are you listening, Vukki-Chebukki!?"
145: 0x050F [0x23] WAIT_FOR_DIALOG_INTERACTION
146: 0x0510 [0x2A] GET_REQ_LEVEL(level=11, entity_id=Louverance (ID: 16794003/0x01004193))
147: 0x0516 [0x4E] SET_ENTITY_HIDE_FLAG: Show Vukki-Chebukki (ID: 16794002/0x01004192)
148: 0x051C [0x29] REQ_SET_WAIT(priority=0x08, entity_id=Louverance (ID: 16794003/0x01004193), tag_num=0x04)
149: 0x0523 [0x2B] Louverance (ID: 16794003/0x01004193) [7399*]:
    → "I am Louverance N Mistalle, representative of the San d'Orian Cathedral! Show yourself immediately!"
150: 0x052A [0x23] WAIT_FOR_DIALOG_INTERACTION
151: 0x052B [0x29] REQ_SET_WAIT(priority=0x08, entity_id=Louverance (ID: 16794003/0x01004193), tag_num=0x05)
152: 0x0532 [0x80] LOAD_WAIT(entity=Vukki-Chebukki (ID: 16794002/0x01004192))
153: 0x0537 [0x79] Vukki-Chebukki (ID: 16794002/0x01004192) looks at Louverance (ID: 16794003/0x01004193) (Basic look)
154: 0x0541 [0x27] REQ_SET(priority=0x0B, entity_id=Mame01 (ID: 16794004/0x01004194), tag_num=0x09)
155: 0x0548 [0x27] REQ_SET(priority=0x0B, entity_id=Mame02 (ID: 16794005/0x01004195), tag_num=0x09)
156: 0x054F [0x27] REQ_SET(priority=0x0B, entity_id=Mame03 (ID: 16794006/0x01004196), tag_num=0x09)
157: 0x0556 [0x1C] WAIT(5* ticks)
158: 0x0559 [0x52] END_LOAD_SCHEDULER: End scheduler "s044" with entities [EventEntity, EventEntity], work=119*
159: 0x0568 [0x45] LOAD_SCHEDULED_TASK: Load scheduler "s045" with entities [EventEntity, EventEntity], work=[119*, 0*]
160: 0x0579 [0x4A] Louverance (ID: 16794003/0x01004193) looks at Vukki-Chebukki (ID: 16794002/0x01004192)
161: 0x0582 [0x4A] LocalPlayer looks at Vukki-Chebukki (ID: 16794002/0x01004192)
162: 0x058B [0x27] REQ_SET(priority=0x0B, entity_id=Vukki-Chebukki (ID: 16794002/0x01004192), tag_num=0x49)
163: 0x0592 [0x2B] Vukki-Chebukki (ID: 16794002/0x01004192) [7400*]:
    → "Well, well. I never really believed you met your end in San d'Oria..."
164: 0x0599 [0x23] WAIT_FOR_DIALOG_INTERACTION
165: 0x059A [0x2A] GET_REQ_LEVEL(level=11, entity_id=Vukki-Chebukki (ID: 16794002/0x01004192))
166: 0x05A0 [0x29] REQ_SET_WAIT(priority=0x08, entity_id=Vukki-Chebukki (ID: 16794002/0x01004192), tag_num=0x1D)
167: 0x05A7 [0x2B] Vukki-Chebukki (ID: 16794002/0x01004192) [7401*]:
    → "I could never forget the cuts of that blade. You won't fool me."
168: 0x05AE [0x23] WAIT_FOR_DIALOG_INTERACTION
169: 0x05AF [0x29] REQ_SET_WAIT(priority=0x08, entity_id=Vukki-Chebukki (ID: 16794002/0x01004192), tag_num=0x1E)
170: 0x05B6 [0x4E] SET_ENTITY_HIDE_FLAG: Show Tori01 (ID: 16794007/0x01004197)
171: 0x05BC [0x80] LOAD_WAIT(entity=Tori01 (ID: 16794007/0x01004197))
172: 0x05C1 [0x52] END_LOAD_SCHEDULER: End scheduler "s045" with entities [EventEntity, EventEntity], work=119*
173: 0x05D0 [0x45] LOAD_SCHEDULED_TASK: Load scheduler "s046" with entities [EventEntity, EventEntity], work=[119*, 0*]
174: 0x05E1 [0x29] REQ_SET_WAIT(priority=0x08, entity_id=Vukki-Chebukki (ID: 16794002/0x01004192), tag_num=0x0B)
175: 0x05E8 [0x2B] Vukki-Chebukki (ID: 16794002/0x01004192) [7402*]:
    → "Throw down your sword."
176: 0x05EF [0x23] WAIT_FOR_DIALOG_INTERACTION
177: 0x05F0 [0x29] REQ_SET_WAIT(priority=0x08, entity_id=Vukki-Chebukki (ID: 16794002/0x01004192), tag_num=0x0C)
178: 0x05F7 [0x29] REQ_SET_WAIT(priority=0x08, entity_id=Vukki-Chebukki (ID: 16794002/0x01004192), tag_num=0x1D)
179: 0x05FE [0x2B] Vukki-Chebukki (ID: 16794002/0x01004192) [7403*]:
    → "One false move and that bird'll be on a direct flight to the Chateau d'Oraguille. It carries a note for the Royal Knights--one that informs them of your survival."
180: 0x0605 [0x23] WAIT_FOR_DIALOG_INTERACTION
181: 0x0606 [0x29] REQ_SET_WAIT(priority=0x08, entity_id=Vukki-Chebukki (ID: 16794002/0x01004192), tag_num=0x1E)
182: 0x060D [0x2A] GET_REQ_LEVEL(level=11, entity_id=Mame01 (ID: 16794004/0x01004194))
183: 0x0613 [0x2A] GET_REQ_LEVEL(level=11, entity_id=Mame02 (ID: 16794005/0x01004195))
184: 0x0619 [0x2A] GET_REQ_LEVEL(level=11, entity_id=Mame03 (ID: 16794006/0x01004196))
185: 0x061F [0x4E] SET_ENTITY_HIDE_FLAG: Hide Mame01 (ID: 16794004/0x01004194)
186: 0x0625 [0x4E] SET_ENTITY_HIDE_FLAG: Hide Mame02 (ID: 16794005/0x01004195)
187: 0x062B [0x4E] SET_ENTITY_HIDE_FLAG: Hide Mame03 (ID: 16794006/0x01004196)
188: 0x0631 [0x52] END_LOAD_SCHEDULER: End scheduler "s046" with entities [EventEntity, EventEntity], work=119*
189: 0x0640 [0x45] LOAD_SCHEDULED_TASK: Load scheduler "s047" with entities [EventEntity, EventEntity], work=[119*, 0*]
190: 0x0651 [0x4E] SET_ENTITY_HIDE_FLAG: Hide Tori01 (ID: 16794007/0x01004197)
191: 0x0657 [0x2B] Louverance (ID: 16794003/0x01004193) [7404*]:
    → "Ha! Still prepared for the worst, as always. Your cowardice has worsened with age."
192: 0x065E [0x23] WAIT_FOR_DIALOG_INTERACTION
193: 0x065F [0x29] REQ_SET_WAIT(priority=0x08, entity_id=Louverance (ID: 16794003/0x01004193), tag_num=0x10)
194: 0x0666 [0x2B] Louverance (ID: 16794003/0x01004193) [7405*]:
    → "But perhaps you didn't hear me clearly. I am Louverance N Mistalle."
195: 0x066D [0x23] WAIT_FOR_DIALOG_INTERACTION
196: 0x066E [0x52] END_LOAD_SCHEDULER: End scheduler "s047" with entities [EventEntity, EventEntity], work=119*
197: 0x067D [0x2B] Louverance (ID: 16794003/0x01004193) [7406*]:
    → "Even with the assassination of Francmage, the family of Mistalle still retains honor among the knightly orders."
198: 0x0684 [0x23] WAIT_FOR_DIALOG_INTERACTION
199: 0x0685 [0x29] REQ_SET_WAIT(priority=0x08, entity_id=Louverance (ID: 16794003/0x01004193), tag_num=0x11)
200: 0x068C [0x6F] WAIT_FRAME_DELAY: Yield until WaitTime reaches zero
201: 0x068D [0x76] CHECK_ENTITY_RENDER_FLAGS: Wait until Vukki-Chebukki (ID: 16794002/0x01004192) Render.Flags0 and Render.Flags3 conditions are met
202: 0x0692 [0x45] LOAD_SCHEDULED_TASK: Load scheduler "ovl1" with entities [LocalPlayer, LocalPlayer], work=[200*, 0*]
203: 0x06A3 [0x45] LOAD_SCHEDULED_TASK: Load scheduler "s050" with entities [EventEntity, EventEntity], work=[119*, 0*]
204: 0x06B4 [0x29] REQ_SET_WAIT(priority=0x08, entity_id=Louverance (ID: 16794003/0x01004193), tag_num=0x12)
205: 0x06BB [0x2B] Louverance (ID: 16794003/0x01004193) [7407*]:
    → "With that family name at my disposal, your trivial note will amount to nothing. I tire of your games, Vukki-Chebukki."
206: 0x06C2 [0x23] WAIT_FOR_DIALOG_INTERACTION
207: 0x06C3 [0x29] REQ_SET_WAIT(priority=0x08, entity_id=Louverance (ID: 16794003/0x01004193), tag_num=0x13)
208: 0x06CA [0x29] REQ_SET_WAIT(priority=0x08, entity_id=Vukki-Chebukki (ID: 16794002/0x01004192), tag_num=0x01)
209: 0x06D1 [0x4B] UPDATE_ENTITY_YAW(entity=Louverance (ID: 16794003/0x01004193), yaw=18.9°*)
210: 0x06D8 [0x7B] Louverance (ID: 16794003/0x01004193) stops talking
211: 0x06DD [0x2B] Vukki-Chebukki (ID: 16794002/0x01004192) [7408*]:
    → "Why would the scion of such a noble marquis family act in this way?"
212: 0x06E4 [0x23] WAIT_FOR_DIALOG_INTERACTION
213: 0x06E5 [0x2B] Vukki-Chebukki (ID: 16794002/0x01004192) [7409*]:
    → "Did you argue that honor alone will not fill a hungry belly?"
214: 0x06EC [0x23] WAIT_FOR_DIALOG_INTERACTION
215: 0x06ED [0x6F] WAIT_FRAME_DELAY: Yield until WaitTime reaches zero
216: 0x06EE [0x76] CHECK_ENTITY_RENDER_FLAGS: Wait until Louverance (ID: 16794003/0x01004193) Render.Flags0 and Render.Flags3 conditions are met
217: 0x06F3 [0x27] REQ_SET(priority=0x0B, entity_id=Louverance (ID: 16794003/0x01004193), tag_num=0x46)
218: 0x06FA [0x52] END_LOAD_SCHEDULER: End scheduler "s050" with entities [EventEntity, EventEntity], work=119*
219: 0x0709 [0x45] LOAD_SCHEDULED_TASK: Load scheduler "s048" with entities [EventEntity, EventEntity], work=[119*, 0*]
220: 0x071A [0x2B] Louverance (ID: 16794003/0x01004193) [7410*]:
    → "That is the kind of reasoning I would expect from a Tarutaru with no understanding of the term "honor.""
221: 0x0721 [0x23] WAIT_FOR_DIALOG_INTERACTION
222: 0x0722 [0x2A] GET_REQ_LEVEL(level=11, entity_id=Louverance (ID: 16794003/0x01004193))
223: 0x0728 [0x79] LocalPlayer looks at Louverance (ID: 16794003/0x01004193) (Basic look)
224: 0x0732 [0x4A] Vukki-Chebukki (ID: 16794002/0x01004192) looks at Louverance (ID: 16794003/0x01004193)
225: 0x073B [0x79] Louverance (ID: 16794003/0x01004193) looks at Vukki-Chebukki (ID: 16794002/0x01004192) (Basic look)
226: 0x0745 [0x29] REQ_SET_WAIT(priority=0x08, entity_id=Vukki-Chebukki (ID: 16794002/0x01004192), tag_num=0x02)
227: 0x074C [0x2B] Louverance (ID: 16794003/0x01004193) [7411*]:
    → "It is the complete opposite. I have chosen to use my influence to see that justice is done."
228: 0x0753 [0x23] WAIT_FOR_DIALOG_INTERACTION
229: 0x0754 [0x52] END_LOAD_SCHEDULER: End scheduler "s048" with entities [EventEntity, EventEntity], work=119*
230: 0x0763 [0x45] LOAD_SCHEDULED_TASK: Load scheduler "s052" with entities [EventEntity, EventEntity], work=[119*, 0*]
231: 0x0774 [0x2B] Vukki-Chebukki (ID: 16794002/0x01004192) [7412*]:
    → "To see justice done?"
232: 0x077B [0x23] WAIT_FOR_DIALOG_INTERACTION
233: 0x077C [0x29] REQ_SET_WAIT(priority=0x08, entity_id=Vukki-Chebukki (ID: 16794002/0x01004192), tag_num=0x1D)
234: 0x0783 [0x2B] Vukki-Chebukki (ID: 16794002/0x01004192) [7413*]:
    → "Your notion of justice should have been erased years ago, along with the destruction of Tavnazia..."
235: 0x078A [0x23] WAIT_FOR_DIALOG_INTERACTION
236: 0x078B [0x29] REQ_SET_WAIT(priority=0x08, entity_id=Vukki-Chebukki (ID: 16794002/0x01004192), tag_num=0x1E)
237: 0x0792 [0x7B] Louverance (ID: 16794003/0x01004193) stops talking
238: 0x0797 [0x1C] WAIT(30* ticks)
239: 0x079A [0x52] END_LOAD_SCHEDULER: End scheduler "s052" with entities [EventEntity, EventEntity], work=119*
240: 0x07A9 [0x45] LOAD_SCHEDULED_TASK: Load scheduler "ovl1" with entities [LocalPlayer, LocalPlayer], work=[200*, 0*]
241: 0x07BA [0x45] LOAD_SCHEDULED_TASK: Load scheduler "s049" with entities [EventEntity, EventEntity], work=[119*, 0*]
242: 0x07CB [0x29] REQ_SET_WAIT(priority=0x08, entity_id=Louverance (ID: 16794003/0x01004193), tag_num=0x14)
243: 0x07D2 [0x2B] Louverance (ID: 16794003/0x01004193) [7414*]:
    → "It is true that even now, twenty years after the war, the ruins of the Marquisate still crawl with the remnants of the beastman army."
244: 0x07D9 [0x23] WAIT_FOR_DIALOG_INTERACTION
245: 0x07DA [0x2B] Louverance (ID: 16794003/0x01004193) [7415*]:
    → "However, the wards erected around the Sacrarium by Cardinal Mildaurion sheltered the underground delivery tunnels from invasion..."
246: 0x07E1 [0x23] WAIT_FOR_DIALOG_INTERACTION
247: 0x07E2 [0x2B] Louverance (ID: 16794003/0x01004193) [7416*]:
    → "I have discovered that the safehold built within those tunnels harbors the refugees of Tavnazia."
248: 0x07E9 [0x23] WAIT_FOR_DIALOG_INTERACTION
249: 0x07EA [0x29] REQ_SET_WAIT(priority=0x08, entity_id=Louverance (ID: 16794003/0x01004193), tag_num=0x15)
250: 0x07F1 [0x52] END_LOAD_SCHEDULER: End scheduler "s049" with entities [EventEntity, EventEntity], work=119*
251: 0x0800 [0x45] LOAD_SCHEDULED_TASK: Load scheduler "s054" with entities [EventEntity, EventEntity], work=[119*, 0*]
252: 0x0811 [0x29] REQ_SET_WAIT(priority=0x08, entity_id=Louverance (ID: 16794003/0x01004193), tag_num=0x16)
253: 0x0818 [0x27] REQ_SET(priority=0x0B, entity_id=Vukki-Chebukki (ID: 16794002/0x01004192), tag_num=0x4A)
254: 0x081F [0x2B] Vukki-Chebukki (ID: 16794002/0x01004192) [7417*]:
    → "Refugees? Are you certain!?"
255: 0x0826 [0x23] WAIT_FOR_DIALOG_INTERACTION
256: 0x0827 [0x2A] GET_REQ_LEVEL(level=11, entity_id=Vukki-Chebukki (ID: 16794002/0x01004192))
257: 0x082D [0x29] REQ_SET_WAIT(priority=0x08, entity_id=Louverance (ID: 16794003/0x01004193), tag_num=0x17)
258: 0x0834 [0x79] Louverance (ID: 16794003/0x01004193) looks at Vukki-Chebukki (ID: 16794002/0x01004192) (Basic look)
259: 0x083E [0x2B] Louverance (ID: 16794003/0x01004193) [7418*]:
    → "If you had not chosen to waste your time here lamenting the past, this revelation would have reached you as well."
260: 0x0845 [0x23] WAIT_FOR_DIALOG_INTERACTION
261: 0x0846 [0x52] END_LOAD_SCHEDULER: End scheduler "s054" with entities [EventEntity, EventEntity], work=119*
262: 0x0855 [0x45] LOAD_SCHEDULED_TASK: Load scheduler "ovl1" with entities [LocalPlayer, LocalPlayer], work=[200*, 0*]
263: 0x0866 [0x45] LOAD_SCHEDULED_TASK: Load scheduler "s051" with entities [EventEntity, EventEntity], work=[119*, 0*]
264: 0x0877 [0x2B] Louverance (ID: 16794003/0x01004193) [7419*]:
    → "The refugees of Tavnazia have already presented their plight to Jeuno and asked for a member of the government to visit Tavnazia."
265: 0x087E [0x23] WAIT_FOR_DIALOG_INTERACTION
266: 0x087F [0x2B] Vukki-Chebukki (ID: 16794002/0x01004192) [7420*]:
    → "Jeuno...?"
267: 0x0886 [0x23] WAIT_FOR_DIALOG_INTERACTION
268: 0x0887 [0x52] END_LOAD_SCHEDULER: End scheduler "s051" with entities [EventEntity, EventEntity], work=119*
269: 0x0896 [0x45] LOAD_SCHEDULED_TASK: Load scheduler "s055" with entities [EventEntity, EventEntity], work=[119*, 0*]
270: 0x08A7 [0x4A] Louverance (ID: 16794003/0x01004193) looks at Vukki-Chebukki (ID: 16794002/0x01004192)
271: 0x08B0 [0x2B] Louverance (ID: 16794003/0x01004193) [7421*]:
    → "A government official immediately entered the safehold under this pretense of aid."
272: 0x08B7 [0x23] WAIT_FOR_DIALOG_INTERACTION
273: 0x08B8 [0x6F] WAIT_FRAME_DELAY: Yield until WaitTime reaches zero
274: 0x08B9 [0x76] CHECK_ENTITY_RENDER_FLAGS: Wait until Louverance (ID: 16794003/0x01004193) Render.Flags0 and Render.Flags3 conditions are met
275: 0x08BE [0x29] REQ_SET_WAIT(priority=0x08, entity_id=Louverance (ID: 16794003/0x01004193), tag_num=0x10)
276: 0x08C5 [0x2B] Louverance (ID: 16794003/0x01004193) [7422*]:
    → "Without the knowledge of the Tavnazian survivors, he proceeded to rifle through the contents of the Sacrarium."
277: 0x08CC [0x23] WAIT_FOR_DIALOG_INTERACTION
278: 0x08CD [0x29] REQ_SET_WAIT(priority=0x08, entity_id=Louverance (ID: 16794003/0x01004193), tag_num=0x11)
279: 0x08D4 [0x27] REQ_SET(priority=0x0B, entity_id=Vukki-Chebukki (ID: 16794002/0x01004192), tag_num=0x4B)
280: 0x08DB [0x52] END_LOAD_SCHEDULER: End scheduler "s055" with entities [EventEntity, EventEntity], work=119*
281: 0x08EA [0x45] LOAD_SCHEDULED_TASK: Load scheduler "s056" with entities [EventEntity, EventEntity], work=[119*, 0*]
282: 0x08FB [0x29] REQ_SET_WAIT(priority=0x08, entity_id=Louverance (ID: 16794003/0x01004193), tag_num=0x12)
283: 0x0902 [0x2B] Vukki-Chebukki (ID: 16794002/0x01004192) [7423*]:
    → "Huh. But this is great news. At least the inhabitants of the Marquisate weren't completely obliterated."
284: 0x0909 [0x23] WAIT_FOR_DIALOG_INTERACTION
285: 0x090A [0x2A] GET_REQ_LEVEL(level=11, entity_id=Vukki-Chebukki (ID: 16794002/0x01004192))
286: 0x0910 [0x29] REQ_SET_WAIT(priority=0x08, entity_id=Vukki-Chebukki (ID: 16794002/0x01004192), tag_num=0x03)
287: 0x0917 [0x2B] Vukki-Chebukki (ID: 16794002/0x01004192) [7424*]:
    → "Those trinkets of the past have no use for anyone. Jeuno can take anything they want if the refugees are to be saved."
288: 0x091E [0x23] WAIT_FOR_DIALOG_INTERACTION
289: 0x091F [0x29] REQ_SET_WAIT(priority=0x08, entity_id=Vukki-Chebukki (ID: 16794002/0x01004192), tag_num=0x04)
290: 0x0926 [0x29] REQ_SET_WAIT(priority=0x08, entity_id=Louverance (ID: 16794003/0x01004193), tag_num=0x13)
291: 0x092D [0x52] END_LOAD_SCHEDULER: End scheduler "s056" with entities [EventEntity, EventEntity], work=119*
292: 0x093C [0x45] LOAD_SCHEDULED_TASK: Load scheduler "s057" with entities [EventEntity, EventEntity], work=[119*, 0*]
293: 0x094D [0x4A] Louverance (ID: 16794003/0x01004193) looks at Vukki-Chebukki (ID: 16794002/0x01004192)
294: 0x0956 [0x6F] WAIT_FRAME_DELAY: Yield until WaitTime reaches zero
295: 0x0957 [0x76] CHECK_ENTITY_RENDER_FLAGS: Wait until Louverance (ID: 16794003/0x01004193) Render.Flags0 and Render.Flags3 conditions are met
296: 0x095C [0x2B] Louverance (ID: 16794003/0x01004193) [7425*]:
    → "But can it truly be said that the people of Tavnazia will be rescued?"
297: 0x0963 [0x23] WAIT_FOR_DIALOG_INTERACTION
298: 0x0964 [0x29] REQ_SET_WAIT(priority=0x08, entity_id=Louverance (ID: 16794003/0x01004193), tag_num=0x10)
299: 0x096B [0x2B] Louverance (ID: 16794003/0x01004193) [7426*]:
    → "You lost a wife and children in that war. Everyone who survived that travesty lost something or someone dear to them. Their spirits have suffered a terrible blow..."
300: 0x0972 [0x23] WAIT_FOR_DIALOG_INTERACTION
301: 0x0973 [0x52] END_LOAD_SCHEDULER: End scheduler "s057" with entities [EventEntity, EventEntity], work=119*
302: 0x0982 [0x45] LOAD_SCHEDULED_TASK: Load scheduler "s058" with entities [EventEntity, EventEntity], work=[119*, 0*]
303: 0x0993 [0x29] REQ_SET_WAIT(priority=0x08, entity_id=Vukki-Chebukki (ID: 16794002/0x01004192), tag_num=0x05)
304: 0x099A [0x2B] Louverance (ID: 16794003/0x01004193) [7427*]:
    → "They have spent years cowering from the shadows of horrors that lurk beyond the walls of the safehold."
305: 0x09A1 [0x23] WAIT_FOR_DIALOG_INTERACTION
306: 0x09A2 [0x2B] Louverance (ID: 16794003/0x01004193) [7428*]:
    → "And those responsible for the current state of the Marquisate have all but forgotten its existence, living in blissful ignorance."
307: 0x09A9 [0x23] WAIT_FOR_DIALOG_INTERACTION
308: 0x09AA [0x29] REQ_SET_WAIT(priority=0x08, entity_id=Louverance (ID: 16794003/0x01004193), tag_num=0x11)
309: 0x09B1 [0x2B] Vukki-Chebukki (ID: 16794002/0x01004192) [7429*]:
    → "..."
310: 0x09B8 [0x23] WAIT_FOR_DIALOG_INTERACTION
311: 0x09B9 [0x29] REQ_SET_WAIT(priority=0x08, entity_id=Vukki-Chebukki (ID: 16794002/0x01004192), tag_num=0x06)
312: 0x09C0 [0x52] END_LOAD_SCHEDULER: End scheduler "s058" with entities [EventEntity, EventEntity], work=119*
313: 0x09CF [0x45] LOAD_SCHEDULED_TASK: Load scheduler "ovl1" with entities [LocalPlayer, LocalPlayer], work=[200*, 0*]
314: 0x09E0 [0x45] LOAD_SCHEDULED_TASK: Load scheduler "s059" with entities [EventEntity, EventEntity], work=[119*, 0*]
315: 0x09F1 [0x29] REQ_SET_WAIT(priority=0x08, entity_id=Louverance (ID: 16794003/0x01004193), tag_num=0x12)
316: 0x09F8 [0x2B] Louverance (ID: 16794003/0x01004193) [7430*]:
    → "These very same villains are soon to be the recipients of tears of gratitude from the very people they condemned to misery."
317: 0x09FF [0x23] WAIT_FOR_DIALOG_INTERACTION
318: 0x0A00 [0x29] REQ_SET_WAIT(priority=0x08, entity_id=Louverance (ID: 16794003/0x01004193), tag_num=0x13)
319: 0x0A07 [0x2B] Louverance (ID: 16794003/0x01004193) [7431*]:
    → "Do you mean to simply stand by and watch this injustice unfold, even though the truth weeps silently in your heart?"
320: 0x0A0E [0x23] WAIT_FOR_DIALOG_INTERACTION
321: 0x0A0F [0x52] END_LOAD_SCHEDULER: End scheduler "s059" with entities [EventEntity, EventEntity], work=119*
322: 0x0A1E [0x5D] SET_MUSIC_VOLUME(volume=0*, fade_time=30*)
323: 0x0A23 [0x45] LOAD_SCHEDULED_TASK: Load scheduler "s060" with entities [EventEntity, EventEntity], work=[119*, 0*]
324: 0x0A34 [0x4A] Vukki-Chebukki (ID: 16794002/0x01004192) looks at Louverance (ID: 16794003/0x01004193)
325: 0x0A3D [0x6F] WAIT_FRAME_DELAY: Yield until WaitTime reaches zero
326: 0x0A3E [0x76] CHECK_ENTITY_RENDER_FLAGS: Wait until Vukki-Chebukki (ID: 16794002/0x01004192) Render.Flags0 and Render.Flags3 conditions are met
327: 0x0A43 [0x29] REQ_SET_WAIT(priority=0x08, entity_id=Vukki-Chebukki (ID: 16794002/0x01004192), tag_num=0x1D)
328: 0x0A4A [0x2B] Vukki-Chebukki (ID: 16794002/0x01004192) [7432*]:
    → "What else would you have me do!? Surely you don't intend to tell them what really happened...!?"
329: 0x0A51 [0x23] WAIT_FOR_DIALOG_INTERACTION
330: 0x0A52 [0x29] REQ_SET_WAIT(priority=0x08, entity_id=Vukki-Chebukki (ID: 16794002/0x01004192), tag_num=0x1E)
331: 0x0A59 [0x52] END_LOAD_SCHEDULER: End scheduler "s060" with entities [EventEntity, EventEntity], work=119*
332: 0x0A68 [0x45] LOAD_SCHEDULED_TASK: Load scheduler "s061" with entities [EventEntity, EventEntity], work=[119*, 0*]
333: 0x0A79 [0x2B] Louverance (ID: 16794003/0x01004193) [7433*]:
    → "Yes. That is exactly what I propose. I will shed light upon the dark purpose of the allied army, hidden behind the confusion of the Great War."
334: 0x0A80 [0x23] WAIT_FOR_DIALOG_INTERACTION
335: 0x0A81 [0x5C] MUSIC_CONTROL: Set Idle (Day) music to song 219*
336: 0x0A85 [0x5C] MUSIC_CONTROL: Set Idle (Night) music to song 219*
337: 0x0A89 [0x2B] Louverance (ID: 16794003/0x01004193) [7434*]:
    → "I will also call for assistance in the restoration of the nation of Tavnazia."
338: 0x0A90 [0x23] WAIT_FOR_DIALOG_INTERACTION
339: 0x0A91 [0x2B] Vukki-Chebukki (ID: 16794002/0x01004192) [7435*]:
    → "Wh-what!?"
340: 0x0A98 [0x23] WAIT_FOR_DIALOG_INTERACTION
341: 0x0A99 [0x52] END_LOAD_SCHEDULER: End scheduler "s061" with entities [EventEntity, EventEntity], work=119*
342: 0x0AA8 [0x45] LOAD_SCHEDULED_TASK: Load scheduler "s043" with entities [EventEntity, EventEntity], work=[119*, 0*]
343: 0x0AB9 [0x7B] Louverance (ID: 16794003/0x01004193) stops talking
344: 0x0ABE [0x29] REQ_SET_WAIT(priority=0x08, entity_id=Vukki-Chebukki (ID: 16794002/0x01004192), tag_num=0x01)
345: 0x0AC5 [0x2B] Vukki-Chebukki (ID: 16794002/0x01004192) [7436*]:
    → "You can't possibly do this alone!"
346: 0x0ACC [0x23] WAIT_FOR_DIALOG_INTERACTION
347: 0x0ACD [0x52] END_LOAD_SCHEDULER: End scheduler "s043" with entities [EventEntity, EventEntity], work=119*
```

### Event 65535.1

#### Metadata

| Field        | Value      |
|--------------|------------|
| Entrypoint   | 0x0ADC     |
| Data Size    | 1481 bytes |
| Instructions | 179        |

```
      00 01 02 03 04 05 06 07  08 09 0A 0B 0C 0D 0E 0F
      -- -- -- -- -- -- -- --  -- -- -- -- -- -- -- --
0AD0:                                      45 00 80 F0              E...
0AE0: FF FF 7F F0 FF FF 7F 6F  76 6C 31 01 80 45 04 80  .......ovl1..E..
0AF0: F8 FF FF 7F F8 FF FF 7F  73 30 36 32 01 80 29 08  ........s062..).
0B00: 93 41 00 01 2D 2B 93 41  00 01 47 80 23 29 08 93  .A..-+.A..G.#)..
0B10: 41 00 01 2E 29 08 92 41  00 01 02 29 08 93 41 00  A...)..A...)..A.
0B20: 01 2F 2B 93 41 00 01 48  80 23 29 08 93 41 00 01  ./+.A..H.#)..A..
0B30: 30 52 04 80 F8 FF FF 7F  F8 FF FF 7F 73 30 36 32  0R..........s062
0B40: 45 04 80 F8 FF FF 7F F8  FF FF 7F 73 30 36 34 01  E..........s064.
0B50: 80 27 0B 93 41 00 01 47  2B 93 41 00 01 49 80 23  .'..A..G+.A..I.#
0B60: 2A 0B 93 41 00 01 2B 93  41 00 01 4A 80 23 52 04  *..A..+.A..J.#R.
0B70: 80 F8 FF FF 7F F8 FF FF  7F 73 30 36 34 45 00 80  .........s064E..
0B80: F0 FF FF 7F F0 FF FF 7F  6F 76 6C 31 01 80 45 04  ........ovl1..E.
0B90: 80 F8 FF FF 7F F8 FF FF  7F 73 30 36 33 01 80 4A  .........s063..J
0BA0: 93 41 00 01 92 41 00 01  6F 76 93 41 00 01 29 08  .A...A..ov.A..).
0BB0: 93 41 00 01 21 2B 93 41  00 01 4B 80 23 2B 93 41  .A..!+.A..K.#+.A
0BC0: 00 01 4C 80 23 29 08 93  41 00 01 22 52 04 80 F8  ..L.#)..A.."R...
0BD0: FF FF 7F F8 FF FF 7F 73  30 36 33 45 04 80 F8 FF  .......s063E....
0BE0: FF 7F F8 FF FF 7F 73 31  30 37 01 80 2B 93 41 00  ......s107..+.A.
0BF0: 01 4D 80 23 29 08 92 41  00 01 1D 2B 92 41 00 01  .M.#)..A...+.A..
0C00: 4E 80 23 29 08 92 41 00  01 1E 52 04 80 F8 FF FF  N.#)..A...R.....
0C10: 7F F8 FF FF 7F 73 31 30  37 45 04 80 F8 FF FF 7F  .....s107E......
0C20: F8 FF FF 7F 73 31 30 39  01 80 2B 93 41 00 01 4F  ....s109..+.A..O
0C30: 80 23 2B 93 41 00 01 50  80 23 52 04 80 F8 FF FF  .#+.A..P.#R.....
0C40: 7F F8 FF FF 7F 73 31 30  39 45 00 80 F0 FF FF 7F  .....s109E......
0C50: F0 FF FF 7F 6F 76 6C 31  01 80 45 00 80 F0 FF FF  ....ovl1..E.....
0C60: 7F F0 FF FF 7F 62 6C 6F  6E 01 80 45 15 80 F0 FF  .....blon..E....
0C70: FF 7F F0 FF FF 7F 62 6C  6F 6E 01 80 45 04 80 F8  ......blon..E...
0C80: FF FF 7F F8 FF FF 7F 73  31 30 38 01 80 7B 93 41  .......s108..{.A
0C90: 00 01 29 08 93 41 00 01  27 1C 0B 80 45 00 80 F0  ..)..A..'...E...
0CA0: FF FF 7F F0 FF FF 7F 62  6C 6F 66 01 80 2B 93 41  .......blof..+.A
0CB0: 00 01 51 80 23 29 08 93  41 00 01 28 52 04 80 F8  ..Q.#)..A..(R...
0CC0: FF FF 7F F8 FF FF 7F 73  31 30 38 45 04 80 F8 FF  .......s108E....
0CD0: FF 7F F8 FF FF 7F 73 31  31 30 01 80 29 08 92 41  ......s110..)..A
0CE0: 00 01 2C 2B 92 41 00 01  52 80 23 2B 92 41 00 01  ..,+.A..R.#+.A..
0CF0: 53 80 23 29 08 92 41 00  01 2D 52 04 80 F8 FF FF  S.#)..A..-R.....
0D00: 7F F8 FF FF 7F 73 31 31  30 45 04 80 F8 FF FF 7F  .....s110E......
0D10: F8 FF FF 7F 73 31 31 31  01 80 2B 93 41 00 01 54  ....s111..+.A..T
0D20: 80 23 5D 01 80 00 80 45  15 80 F0 FF FF 7F F0 FF  .#]....E........
0D30: FF 7F 77 68 6F 31 01 80  1C 02 80 52 04 80 F8 FF  ..who1.....R....
0D40: FF 7F F8 FF FF 7F 73 31  31 31 34 55 80 77 56 80  ......s1114U.wV.
0D50: 57 80 1C 17 80 9F 58 80  F8 FF FF 7F F8 FF FF 7F  W.....X.........
0D60: 73 74 72 30 01 80 45 04  80 F8 FF FF 7F F8 FF FF  str0..E.........
0D70: 7F 73 31 31 38 01 80 45  15 80 F0 FF FF 7F F0 FF  .s118..E........
0D80: FF 7F 77 68 69 31 01 80  1C 59 80 52 04 80 F8 FF  ..whi1...Y.R....
0D90: FF 7F F8 FF FF 7F 73 31  31 38 45 00 80 F0 FF FF  ......s118E.....
0DA0: 7F F0 FF FF 7F 62 6C 6F  6E 01 80 45 04 80 F8 FF  .....blon..E....
0DB0: FF 7F F8 FF FF 7F 73 31  31 39 01 80 1C 00 80 45  ......s119.....E
0DC0: 15 80 F0 FF FF 7F F0 FF  FF 7F 77 68 6F 31 01 80  ..........who1..
0DD0: 1C 02 80 45 00 80 F0 FF  FF 7F F0 FF FF 7F 62 6C  ...E..........bl
0DE0: 6F 66 01 80 52 04 80 F8  FF FF 7F F8 FF FF 7F 73  of..R..........s
0DF0: 31 31 39 9F 58 80 F8 FF  FF 7F F8 FF FF 7F 6B 69  119.X.........ki
0E00: 6C 6C 01 80 35 5A 80 78  1C 17 80 29 0B 93 41 00  ll..5Z.x...)..A.
0E10: 01 48 29 0B 94 41 00 01  0A 29 0B 92 41 00 01 4D  .H)..A...)..A..M
0E20: 29 0B F0 FF FF 7F 13 4A  93 41 00 01 94 41 00 01  )......J.A...A..
0E30: 6F 76 93 41 00 01 29 08  93 41 00 01 27 29 08 93  ov.A..)..A..')..
0E40: 41 00 01 28 4E 00 94 41  00 01 4E 00 97 41 00 01  A..(N..A..N..A..
0E50: 80 94 41 00 01 80 97 41  00 01 4A 94 41 00 01 93  ..A....A..J.A...
0E60: 41 00 01 6F 76 94 41 00  01 45 04 80 F8 FF FF 7F  A..ov.A..E......
0E70: F8 FF FF 7F 73 31 31 32  01 80 45 15 80 F0 FF FF  ....s112..E.....
0E80: 7F F0 FF FF 7F 77 68 69  31 01 80 2B 92 41 00 01  .....whi1..+.A..
0E90: 5B 80 23 27 0B 92 41 00  01 4E 27 0B 97 41 00 01  [.#'..A..N'..A..
0EA0: 03 1C 5C 80 79 00 93 41  00 01 92 41 00 01 29 08  ..\.y..A...A..).
0EB0: 93 41 00 01 29 2B 93 41  00 01 5D 80 23 1C 12 80  .A..)+.A..].#...
0EC0: 52 04 80 F8 FF FF 7F F8  FF FF 7F 73 31 31 32 45  R..........s112E
0ED0: 04 80 F8 FF FF 7F F8 FF  FF 7F 73 31 31 33 01 80  ..........s113..
0EE0: 29 08 93 41 00 01 2A 29  0B F0 FF FF 7F 14 4B 93  )..A..*)......K.
0EF0: 41 00 01 5E 80 4A F0 FF  FF 7F 93 41 00 01 6F 76  A..^.J.....A..ov
0F00: 93 41 00 01 6F 76 F0 FF  FF 7F 79 00 F0 FF FF 7F  .A..ov....y.....
0F10: 92 41 00 01 4E 01 94 41  00 01 52 04 80 F8 FF FF  .A..N..A..R.....
0F20: 7F F8 FF FF 7F 73 31 31  33 02 09 10 20 80 00 45  .....s113... ..E
0F30: 0F 45 04 80 F8 FF FF 7F  F8 FF FF 7F 73 31 31 37  .E..........s117
0F40: 01 80 01 72 0F 02 09 10  5C 80 00 61 0F 45 04 80  ...r....\..a.E..
0F50: F8 FF FF 7F F8 FF FF 7F  73 31 31 37 01 80 01 72  ........s117...r
0F60: 0F 45 04 80 F8 FF FF 7F  F8 FF FF 7F 73 31 31 34  .E..........s114
0F70: 01 80 7B 93 41 00 01 79  00 F0 FF FF 7F 93 41 00  ..{.A..y......A.
0F80: 01 2B 93 41 00 01 5F 80  23 29 08 93 41 00 01 14  .+.A.._.#)..A...
0F90: 2B 93 41 00 01 60 80 23  29 08 93 41 00 01 15 02  +.A..`.#)..A....
0FA0: 09 10 20 80 00 B9 0F 52  04 80 F8 FF FF 7F F8 FF  .. ....R........
0FB0: FF 7F 73 31 31 37 01 E2  0F 02 09 10 5C 80 00 D3  ..s117......\...
0FC0: 0F 52 04 80 F8 FF FF 7F  F8 FF FF 7F 73 31 31 37  .R..........s117
0FD0: 01 E2 0F 52 04 80 F8 FF  FF 7F F8 FF FF 7F 73 31  ...R..........s1
0FE0: 31 34 45 04 80 F8 FF FF  7F F8 FF FF 7F 73 31 31  14E..........s11
0FF0: 35 01 80 29 08 93 41 00  01 16 2B 93 41 00 01 61  5..)..A...+.A..a
1000: 80 23 29 08 93 41 00 01  17 45 00 80 F0 FF FF 7F  .#)..A...E......
1010: F0 FF FF 7F 66 64 6F 31  01 80 1C 02 80 52 04 80  ....fdo1.....R..
1020: F8 FF FF 7F F8 FF FF 7F  73 31 31 35 27 0B 93 41  ........s115'..A
1030: 00 01 49 45 04 80 F8 FF  FF 7F F8 FF FF 7F 73 31  ..IE..........s1
1040: 31 36 01 80 45 00 80 F0  FF FF 7F F0 FF FF 7F 66  16..E..........f
1050: 64 69 31 01 80 1C 62 80  45 00 80 F0 FF FF 7F F0  di1...b.E.......
1060: FF FF 7F 66 64 6F 31 01  80 1C 02 80 52 04 80 F8  ...fdo1.....R...
1070: FF FF 7F F8 FF FF 7F 73  31 31 36 5C 00 01 80 5C  .......s116\...\
1080: 01 01 80 4E 00 F0 FF FF  7F 80 F0 FF FF 7F 46 00  ...N..........F.
1090: 45 00 80 F0 FF FF 7F F0  FF FF 7F 66 64 69 31 01  E..........fdi1.
10A0: 80 20 00 21 00                                    . .!.           
```

#### Opcodes

```
  0: 0x0ADC [0x45] LOAD_SCHEDULED_TASK: Load scheduler "ovl1" with entities [LocalPlayer, LocalPlayer], work=[200*, 0*]
  1: 0x0AED [0x45] LOAD_SCHEDULED_TASK: Load scheduler "s062" with entities [EventEntity, EventEntity], work=[119*, 0*]
  2: 0x0AFE [0x29] REQ_SET_WAIT(priority=0x08, entity_id=Louverance (ID: 16794003/0x01004193), tag_num=0x2D)
  3: 0x0B05 [0x2B] Louverance (ID: 16794003/0x01004193) [7437*]:
    → "Hahaha... It is the realization of that very fact that prompted my return."
  4: 0x0B0C [0x23] WAIT_FOR_DIALOG_INTERACTION
  5: 0x0B0D [0x29] REQ_SET_WAIT(priority=0x08, entity_id=Louverance (ID: 16794003/0x01004193), tag_num=0x2E)
  6: 0x0B14 [0x29] REQ_SET_WAIT(priority=0x08, entity_id=Vukki-Chebukki (ID: 16794002/0x01004192), tag_num=0x02)
  7: 0x0B1B [0x29] REQ_SET_WAIT(priority=0x08, entity_id=Louverance (ID: 16794003/0x01004193), tag_num=0x2F)
  8: 0x0B22 [0x2B] Louverance (ID: 16794003/0x01004193) [7438*]:
    → "I already control the successor to the Tavnazian Marquisate. Preparations to receive funds and troops from a certain wealthy family are also well underway."
  9: 0x0B29 [0x23] WAIT_FOR_DIALOG_INTERACTION
 10: 0x0B2A [0x29] REQ_SET_WAIT(priority=0x08, entity_id=Louverance (ID: 16794003/0x01004193), tag_num=0x30)
 11: 0x0B31 [0x52] END_LOAD_SCHEDULER: End scheduler "s062" with entities [EventEntity, EventEntity], work=119*
 12: 0x0B40 [0x45] LOAD_SCHEDULED_TASK: Load scheduler "s064" with entities [EventEntity, EventEntity], work=[119*, 0*]
 13: 0x0B51 [0x27] REQ_SET(priority=0x0B, entity_id=Louverance (ID: 16794003/0x01004193), tag_num=0x47)
 14: 0x0B58 [0x2B] Louverance (ID: 16794003/0x01004193) [7439*]:
    → "This wealthy family is willing to pour its resources into recovering the knowledge and relics that have been collected over the years by the Tavnazian Cathedral."
 15: 0x0B5F [0x23] WAIT_FOR_DIALOG_INTERACTION
 16: 0x0B60 [0x2A] GET_REQ_LEVEL(level=11, entity_id=Louverance (ID: 16794003/0x01004193))
 17: 0x0B66 [0x2B] Louverance (ID: 16794003/0x01004193) [7440*]:
    → "However, these relics have all been taken by Cardinal Mildaurion, and her present whereabouts are unknown..."
 18: 0x0B6D [0x23] WAIT_FOR_DIALOG_INTERACTION
 19: 0x0B6E [0x52] END_LOAD_SCHEDULER: End scheduler "s064" with entities [EventEntity, EventEntity], work=119*
 20: 0x0B7D [0x45] LOAD_SCHEDULED_TASK: Load scheduler "ovl1" with entities [LocalPlayer, LocalPlayer], work=[200*, 0*]
 21: 0x0B8E [0x45] LOAD_SCHEDULED_TASK: Load scheduler "s063" with entities [EventEntity, EventEntity], work=[119*, 0*]
 22: 0x0B9F [0x4A] Louverance (ID: 16794003/0x01004193) looks at Vukki-Chebukki (ID: 16794002/0x01004192)
 23: 0x0BA8 [0x6F] WAIT_FRAME_DELAY: Yield until WaitTime reaches zero
 24: 0x0BA9 [0x76] CHECK_ENTITY_RENDER_FLAGS: Wait until Louverance (ID: 16794003/0x01004193) Render.Flags0 and Render.Flags3 conditions are met
 25: 0x0BAE [0x29] REQ_SET_WAIT(priority=0x08, entity_id=Louverance (ID: 16794003/0x01004193), tag_num=0x21)
 26: 0x0BB5 [0x2B] Louverance (ID: 16794003/0x01004193) [7441*]:
    → "That is why I have come to request information from you."
 27: 0x0BBC [0x23] WAIT_FOR_DIALOG_INTERACTION
 28: 0x0BBD [0x2B] Louverance (ID: 16794003/0x01004193) [7442*]:
    → "I wish to visit the source of this bounty. I need to know the way to the city of Al'Taieu."
 29: 0x0BC4 [0x23] WAIT_FOR_DIALOG_INTERACTION
 30: 0x0BC5 [0x29] REQ_SET_WAIT(priority=0x08, entity_id=Louverance (ID: 16794003/0x01004193), tag_num=0x22)
 31: 0x0BCC [0x52] END_LOAD_SCHEDULER: End scheduler "s063" with entities [EventEntity, EventEntity], work=119*
 32: 0x0BDB [0x45] LOAD_SCHEDULED_TASK: Load scheduler "s107" with entities [EventEntity, EventEntity], work=[119*, 0*]
 33: 0x0BEC [0x2B] Louverance (ID: 16794003/0x01004193) [7443*]:
    → "Along with several others, you were on a secret mission from the cathedral to find the path to the celestial capital, were you not?"
 34: 0x0BF3 [0x23] WAIT_FOR_DIALOG_INTERACTION
 35: 0x0BF4 [0x29] REQ_SET_WAIT(priority=0x08, entity_id=Vukki-Chebukki (ID: 16794002/0x01004192), tag_num=0x1D)
 36: 0x0BFB [0x2B] Vukki-Chebukki (ID: 16794002/0x01004192) [7444*]:
    → "Th-that may be so! But we were never able to discover a way to Al'Taieu!"
 37: 0x0C02 [0x23] WAIT_FOR_DIALOG_INTERACTION
 38: 0x0C03 [0x29] REQ_SET_WAIT(priority=0x08, entity_id=Vukki-Chebukki (ID: 16794002/0x01004192), tag_num=0x1E)
 39: 0x0C0A [0x52] END_LOAD_SCHEDULER: End scheduler "s107" with entities [EventEntity, EventEntity], work=119*
 40: 0x0C19 [0x45] LOAD_SCHEDULED_TASK: Load scheduler "s109" with entities [EventEntity, EventEntity], work=[119*, 0*]
 41: 0x0C2A [0x2B] Louverance (ID: 16794003/0x01004193) [7445*]:
    → "Then why, my little friend, did the Tavnazian Cathedral call upon me to silence you?"
 42: 0x0C31 [0x23] WAIT_FOR_DIALOG_INTERACTION
 43: 0x0C32 [0x2B] Louverance (ID: 16794003/0x01004193) [7446*]:
    → "You must have discovered something."
 44: 0x0C39 [0x23] WAIT_FOR_DIALOG_INTERACTION
 45: 0x0C3A [0x52] END_LOAD_SCHEDULER: End scheduler "s109" with entities [EventEntity, EventEntity], work=119*
 46: 0x0C49 [0x45] LOAD_SCHEDULED_TASK: Load scheduler "ovl1" with entities [LocalPlayer, LocalPlayer], work=[200*, 0*]
 47: 0x0C5A [0x45] LOAD_SCHEDULED_TASK: Load scheduler "blon" with entities [LocalPlayer, LocalPlayer], work=[200*, 0*]
 48: 0x0C6B [0x45] LOAD_SCHEDULED_TASK: Load scheduler "blon" with entities [LocalPlayer, LocalPlayer], work=[201*, 0*]
 49: 0x0C7C [0x45] LOAD_SCHEDULED_TASK: Load scheduler "s108" with entities [EventEntity, EventEntity], work=[119*, 0*]
 50: 0x0C8D [0x7B] Louverance (ID: 16794003/0x01004193) stops talking
 51: 0x0C92 [0x29] REQ_SET_WAIT(priority=0x08, entity_id=Louverance (ID: 16794003/0x01004193), tag_num=0x27)
 52: 0x0C99 [0x1C] WAIT(30* ticks)
 53: 0x0C9C [0x45] LOAD_SCHEDULED_TASK: Load scheduler "blof" with entities [LocalPlayer, LocalPlayer], work=[200*, 0*]
 54: 0x0CAD [0x2B] Louverance (ID: 16794003/0x01004193) [7447*]:
    → "Now choose! Will you keep your silence, or keep your life!?"
 55: 0x0CB4 [0x23] WAIT_FOR_DIALOG_INTERACTION
 56: 0x0CB5 [0x29] REQ_SET_WAIT(priority=0x08, entity_id=Louverance (ID: 16794003/0x01004193), tag_num=0x28)
 57: 0x0CBC [0x52] END_LOAD_SCHEDULER: End scheduler "s108" with entities [EventEntity, EventEntity], work=119*
 58: 0x0CCB [0x45] LOAD_SCHEDULED_TASK: Load scheduler "s110" with entities [EventEntity, EventEntity], work=[119*, 0*]
 59: 0x0CDC [0x29] REQ_SET_WAIT(priority=0x08, entity_id=Vukki-Chebukki (ID: 16794002/0x01004192), tag_num=0x2C)
 60: 0x0CE3 [0x2B] Vukki-Chebukki (ID: 16794002/0x01004192) [7448*]:
    → "Wait, wait! I'll tell you!"
 61: 0x0CEA [0x23] WAIT_FOR_DIALOG_INTERACTION
 62: 0x0CEB [0x2B] Vukki-Chebukki (ID: 16794002/0x01004192) [7449*]:
    → "We discovered that the way to Al'Taieu opens once every one hundred years. That's all we found, I swear!"
 63: 0x0CF2 [0x23] WAIT_FOR_DIALOG_INTERACTION
 64: 0x0CF3 [0x29] REQ_SET_WAIT(priority=0x08, entity_id=Vukki-Chebukki (ID: 16794002/0x01004192), tag_num=0x2D)
 65: 0x0CFA [0x52] END_LOAD_SCHEDULER: End scheduler "s110" with entities [EventEntity, EventEntity], work=119*
 66: 0x0D09 [0x45] LOAD_SCHEDULED_TASK: Load scheduler "s111" with entities [EventEntity, EventEntity], work=[119*, 0*]
 67: 0x0D1A [0x2B] Louverance (ID: 16794003/0x01004193) [7450*]:
    → "Once in a hundred years...?"
 68: 0x0D21 [0x23] WAIT_FOR_DIALOG_INTERACTION
 69: 0x0D22 [0x5D] SET_MUSIC_VOLUME(volume=0*, fade_time=200*)
 70: 0x0D27 [0x45] LOAD_SCHEDULED_TASK: Load scheduler "who1" with entities [LocalPlayer, LocalPlayer], work=[201*, 0*]
 71: 0x0D38 [0x1C] WAIT(60* ticks)
 72: 0x0D3B [0x52] END_LOAD_SCHEDULER: End scheduler "s111" with entities [EventEntity, EventEntity], work=119*
 73: 0x0D4A [0x34] LOAD_UNLOAD_ZONE(zone_id=28*)
 74: 0x0D4D [0x77] SET_EVENT_TIME_WEATHER(hour=12*, weather=1*)
 75: 0x0D52 [0x1C] WAIT(100* ticks)
 76: 0x0D55 [0x9F] LOAD_SCHEDULED_TASK_ALT: Load scheduler "str0" with entities [EventEntity, EventEntity], work=[61*, 0*]
 77: 0x0D66 [0x45] LOAD_SCHEDULED_TASK: Load scheduler "s118" with entities [EventEntity, EventEntity], work=[119*, 0*]
 78: 0x0D77 [0x45] LOAD_SCHEDULED_TASK: Load scheduler "whi1" with entities [LocalPlayer, LocalPlayer], work=[201*, 0*]
 79: 0x0D88 [0x1C] WAIT(300* ticks)
 80: 0x0D8B [0x52] END_LOAD_SCHEDULER: End scheduler "s118" with entities [EventEntity, EventEntity], work=119*
 81: 0x0D9A [0x45] LOAD_SCHEDULED_TASK: Load scheduler "blon" with entities [LocalPlayer, LocalPlayer], work=[200*, 0*]
 82: 0x0DAB [0x45] LOAD_SCHEDULED_TASK: Load scheduler "s119" with entities [EventEntity, EventEntity], work=[119*, 0*]
 83: 0x0DBC [0x1C] WAIT(200* ticks)
 84: 0x0DBF [0x45] LOAD_SCHEDULED_TASK: Load scheduler "who1" with entities [LocalPlayer, LocalPlayer], work=[201*, 0*]
 85: 0x0DD0 [0x1C] WAIT(60* ticks)
 86: 0x0DD3 [0x45] LOAD_SCHEDULED_TASK: Load scheduler "blof" with entities [LocalPlayer, LocalPlayer], work=[200*, 0*]
 87: 0x0DE4 [0x52] END_LOAD_SCHEDULER: End scheduler "s119" with entities [EventEntity, EventEntity], work=119*
 88: 0x0DF3 [0x9F] LOAD_SCHEDULED_TASK_ALT: Load scheduler "kill" with entities [EventEntity, EventEntity], work=[61*, 0*]
 89: 0x0E04 [0x35] LOAD_ZONE_NO_CLOSE(zone_id=4*)
 90: 0x0E07 [0x78] ENABLE_GAME_TIMER_RESET_WEATHER()
 91: 0x0E08 [0x1C] WAIT(100* ticks)
 92: 0x0E0B [0x29] REQ_SET_WAIT(priority=0x0B, entity_id=Louverance (ID: 16794003/0x01004193), tag_num=0x48)
 93: 0x0E12 [0x29] REQ_SET_WAIT(priority=0x0B, entity_id=Mame01 (ID: 16794004/0x01004194), tag_num=0x0A)
 94: 0x0E19 [0x29] REQ_SET_WAIT(priority=0x0B, entity_id=Vukki-Chebukki (ID: 16794002/0x01004192), tag_num=0x4D)
 95: 0x0E20 [0x29] REQ_SET_WAIT(priority=0x0B, entity_id=LocalPlayer, tag_num=0x13)
 96: 0x0E27 [0x4A] Louverance (ID: 16794003/0x01004193) looks at Mame01 (ID: 16794004/0x01004194)
 97: 0x0E30 [0x6F] WAIT_FRAME_DELAY: Yield until WaitTime reaches zero
 98: 0x0E31 [0x76] CHECK_ENTITY_RENDER_FLAGS: Wait until Louverance (ID: 16794003/0x01004193) Render.Flags0 and Render.Flags3 conditions are met
 99: 0x0E36 [0x29] REQ_SET_WAIT(priority=0x08, entity_id=Louverance (ID: 16794003/0x01004193), tag_num=0x27)
100: 0x0E3D [0x29] REQ_SET_WAIT(priority=0x08, entity_id=Louverance (ID: 16794003/0x01004193), tag_num=0x28)
101: 0x0E44 [0x4E] SET_ENTITY_HIDE_FLAG: Show Mame01 (ID: 16794004/0x01004194)
102: 0x0E4A [0x4E] SET_ENTITY_HIDE_FLAG: Show Tori01 (ID: 16794007/0x01004197)
103: 0x0E50 [0x80] LOAD_WAIT(entity=Mame01 (ID: 16794004/0x01004194))
104: 0x0E55 [0x80] LOAD_WAIT(entity=Tori01 (ID: 16794007/0x01004197))
105: 0x0E5A [0x4A] Mame01 (ID: 16794004/0x01004194) looks at Louverance (ID: 16794003/0x01004193)
106: 0x0E63 [0x6F] WAIT_FRAME_DELAY: Yield until WaitTime reaches zero
107: 0x0E64 [0x76] CHECK_ENTITY_RENDER_FLAGS: Wait until Mame01 (ID: 16794004/0x01004194) Render.Flags0 and Render.Flags3 conditions are met
108: 0x0E69 [0x45] LOAD_SCHEDULED_TASK: Load scheduler "s112" with entities [EventEntity, EventEntity], work=[119*, 0*]
109: 0x0E7A [0x45] LOAD_SCHEDULED_TASK: Load scheduler "whi1" with entities [LocalPlayer, LocalPlayer], work=[201*, 0*]
110: 0x0E8B [0x2B] Vukki-Chebukki (ID: 16794002/0x01004192) [7451*]:
    → "That's everything I know. Time for me to leave!"
111: 0x0E92 [0x23] WAIT_FOR_DIALOG_INTERACTION
112: 0x0E93 [0x27] REQ_SET(priority=0x0B, entity_id=Vukki-Chebukki (ID: 16794002/0x01004192), tag_num=0x4E)
113: 0x0E9A [0x27] REQ_SET(priority=0x0B, entity_id=Tori01 (ID: 16794007/0x01004197), tag_num=0x03)
114: 0x0EA1 [0x1C] WAIT(6* ticks)
115: 0x0EA4 [0x79] Louverance (ID: 16794003/0x01004193) looks at Vukki-Chebukki (ID: 16794002/0x01004192) (Basic look)
116: 0x0EAE [0x29] REQ_SET_WAIT(priority=0x08, entity_id=Louverance (ID: 16794003/0x01004193), tag_num=0x29)
117: 0x0EB5 [0x2B] Louverance (ID: 16794003/0x01004193) [7452*]:
    → "!?"
118: 0x0EBC [0x23] WAIT_FOR_DIALOG_INTERACTION
119: 0x0EBD [0x1C] WAIT(40* ticks)
120: 0x0EC0 [0x52] END_LOAD_SCHEDULER: End scheduler "s112" with entities [EventEntity, EventEntity], work=119*
121: 0x0ECF [0x45] LOAD_SCHEDULED_TASK: Load scheduler "s113" with entities [EventEntity, EventEntity], work=[119*, 0*]
122: 0x0EE0 [0x29] REQ_SET_WAIT(priority=0x08, entity_id=Louverance (ID: 16794003/0x01004193), tag_num=0x2A)
123: 0x0EE7 [0x29] REQ_SET_WAIT(priority=0x0B, entity_id=LocalPlayer, tag_num=0x14)
124: 0x0EEE [0x4B] UPDATE_ENTITY_YAW(entity=Louverance (ID: 16794003/0x01004193), yaw=21.4°*)
125: 0x0EF5 [0x4A] LocalPlayer looks at Louverance (ID: 16794003/0x01004193)
126: 0x0EFE [0x6F] WAIT_FRAME_DELAY: Yield until WaitTime reaches zero
127: 0x0EFF [0x76] CHECK_ENTITY_RENDER_FLAGS: Wait until Louverance (ID: 16794003/0x01004193) Render.Flags0 and Render.Flags3 conditions are met
128: 0x0F04 [0x6F] WAIT_FRAME_DELAY: Yield until WaitTime reaches zero
129: 0x0F05 [0x76] CHECK_ENTITY_RENDER_FLAGS: Wait until LocalPlayer Render.Flags0 and Render.Flags3 conditions are met
130: 0x0F0A [0x79] LocalPlayer looks at Vukki-Chebukki (ID: 16794002/0x01004192) (Basic look)
131: 0x0F14 [0x4E] SET_ENTITY_HIDE_FLAG: Hide Mame01 (ID: 16794004/0x01004194)
132: 0x0F1A [0x52] END_LOAD_SCHEDULER: End scheduler "s113" with entities [EventEntity, EventEntity], work=119*
133: 0x0F29 [0x02] IF !(Work_Zone[9] == 5*) GOTO 0x0F45
134: 0x0F31 [0x45] LOAD_SCHEDULED_TASK: Load scheduler "s117" with entities [EventEntity, EventEntity], work=[119*, 0*]
135: 0x0F42 [0x01] GOTO 0x0F72
136: 0x0F45 [0x02] IF !(Work_Zone[9] == 6*) GOTO 0x0F61
137: 0x0F4D [0x45] LOAD_SCHEDULED_TASK: Load scheduler "s117" with entities [EventEntity, EventEntity], work=[119*, 0*]
138: 0x0F5E [0x01] GOTO 0x0F72
139: 0x0F61 [0x45] LOAD_SCHEDULED_TASK: Load scheduler "s114" with entities [EventEntity, EventEntity], work=[119*, 0*]

SUBROUTINE_0F72:
140: 0x0F72 [0x7B] Louverance (ID: 16794003/0x01004193) stops talking
141: 0x0F77 [0x79] LocalPlayer looks at Louverance (ID: 16794003/0x01004193) (Basic look)
142: 0x0F81 [0x2B] Louverance (ID: 16794003/0x01004193) [7453*]:
    → "My, my. He does move fast for such a diminutive chap. Never mind, I have the information I came for."
143: 0x0F88 [0x23] WAIT_FOR_DIALOG_INTERACTION
144: 0x0F89 [0x29] REQ_SET_WAIT(priority=0x08, entity_id=Louverance (ID: 16794003/0x01004193), tag_num=0x14)
145: 0x0F90 [0x2B] Louverance (ID: 16794003/0x01004193) [7454*]:
    → "The stone statue I saw in the Mimeo Mirror is the statue of Promathia--the one kept in the reliquiarium of the Tavnazian Cathedral."
146: 0x0F97 [0x23] WAIT_FOR_DIALOG_INTERACTION
147: 0x0F98 [0x29] REQ_SET_WAIT(priority=0x08, entity_id=Louverance (ID: 16794003/0x01004193), tag_num=0x15)
148: 0x0F9F [0x02] IF !(Work_Zone[9] == 5*) GOTO 0x0FB9
149: 0x0FA7 [0x52] END_LOAD_SCHEDULER: End scheduler "s117" with entities [EventEntity, EventEntity], work=119*
150: 0x0FB6 [0x01] GOTO 0x0FE2
151: 0x0FB9 [0x02] IF !(Work_Zone[9] == 6*) GOTO 0x0FD3
152: 0x0FC1 [0x52] END_LOAD_SCHEDULER: End scheduler "s117" with entities [EventEntity, EventEntity], work=119*
153: 0x0FD0 [0x01] GOTO 0x0FE2
154: 0x0FD3 [0x52] END_LOAD_SCHEDULER: End scheduler "s114" with entities [EventEntity, EventEntity], work=119*

SUBROUTINE_0FE2:
155: 0x0FE2 [0x45] LOAD_SCHEDULED_TASK: Load scheduler "s115" with entities [EventEntity, EventEntity], work=[119*, 0*]
156: 0x0FF3 [0x29] REQ_SET_WAIT(priority=0x08, entity_id=Louverance (ID: 16794003/0x01004193), tag_num=0x16)
157: 0x0FFA [0x2B] Louverance (ID: 16794003/0x01004193) [7455*]:
    → "Could this statue also be a relic from Al'Taieu? Which would mean that the professor from Windurst..."
158: 0x1001 [0x23] WAIT_FOR_DIALOG_INTERACTION
159: 0x1002 [0x29] REQ_SET_WAIT(priority=0x08, entity_id=Louverance (ID: 16794003/0x01004193), tag_num=0x17)
160: 0x1009 [0x45] LOAD_SCHEDULED_TASK: Load scheduler "fdo1" with entities [LocalPlayer, LocalPlayer], work=[200*, 0*]
161: 0x101A [0x1C] WAIT(60* ticks)
162: 0x101D [0x52] END_LOAD_SCHEDULER: End scheduler "s115" with entities [EventEntity, EventEntity], work=119*
163: 0x102C [0x27] REQ_SET(priority=0x0B, entity_id=Louverance (ID: 16794003/0x01004193), tag_num=0x49)
164: 0x1033 [0x45] LOAD_SCHEDULED_TASK: Load scheduler "s116" with entities [EventEntity, EventEntity], work=[119*, 0*]
165: 0x1044 [0x45] LOAD_SCHEDULED_TASK: Load scheduler "fdi1" with entities [LocalPlayer, LocalPlayer], work=[200*, 0*]
166: 0x1055 [0x1C] WAIT(160* ticks)
167: 0x1058 [0x45] LOAD_SCHEDULED_TASK: Load scheduler "fdo1" with entities [LocalPlayer, LocalPlayer], work=[200*, 0*]
168: 0x1069 [0x1C] WAIT(60* ticks)
169: 0x106C [0x52] END_LOAD_SCHEDULER: End scheduler "s116" with entities [EventEntity, EventEntity], work=119*
170: 0x107B [0x5C] MUSIC_CONTROL: Set Idle (Day) music to song 0*
171: 0x107F [0x5C] MUSIC_CONTROL: Set Idle (Night) music to song 0*
172: 0x1083 [0x4E] SET_ENTITY_HIDE_FLAG: Show LocalPlayer
173: 0x1089 [0x80] LOAD_WAIT(entity=LocalPlayer)
174: 0x108E [0x46] CAMERA_CONTROL: Restore default settings
175: 0x1090 [0x45] LOAD_SCHEDULED_TASK: Load scheduler "fdi1" with entities [LocalPlayer, LocalPlayer], work=[200*, 0*]
176: 0x10A1 [0x20] SET_CLI_EVENT_UC_FLAG: Unlock player control
177: 0x10A3 [0x21] END_EVENT
178: 0x10A4 [0x00] END_REQSTACK()
```

### Event 40

#### Metadata

| Field        | Value     |
|--------------|-----------|
| Entrypoint   | 0x10A5    |
| Data Size    | 577 bytes |
| Instructions | 71        |

```
      00 01 02 03 04 05 06 07  08 09 0A 0B 0C 0D 0E 0F
      -- -- -- -- -- -- -- --  -- -- -- -- -- -- -- --
10A0:                20 01 42  46 01 45 00 80 F8 FF FF        .BF.E.....
10B0: 7F F8 FF FF 7F 66 64 6F  31 01 80 1C 14 80 38 03  .....fdo1.....8.
10C0: 80 29 08 F0 FF FF 7F 04  29 0B 9B 41 00 01 38 29  .)......)..A..8)
10D0: 0B F0 FF FF 7F 15 29 0B  9C 41 00 01 1C 29 0B 9A  ......)..A...)..
10E0: 41 00 01 22 4E 00 9B 41  00 01 4E 00 9C 41 00 01  A.."N..A..N..A..
10F0: 4E 00 9A 41 00 01 80 9B  41 00 01 80 9C 41 00 01  N..A....A....A..
1100: 80 9A 41 00 01 92 01 9C  41 00 01 92 01 9B 41 00  ..A.....A.....A.
1110: 01 92 01 9A 41 00 01 4A  9C 41 00 01 9B 41 00 01  ....A..J.A...A..
1120: 6F 76 9C 41 00 01 2C 9B  41 00 01 9B 41 00 01 63  ov.A..,.A...A..c
1130: 6F 72 70 53 9B 41 00 01  9B 41 00 01 63 6F 72 70  orpS.A...A..corp
1140: 45 63 80 F8 FF FF 7F F8  FF FF 7F 73 30 36 38 01  Ec.........s068.
1150: 80 45 00 80 F8 FF FF 7F  F8 FF FF 7F 66 64 69 31  .E..........fdi1
1160: 01 80 1C 14 80 52 63 80  F8 FF FF 7F F8 FF FF 7F  .....Rc.........
1170: 73 30 36 38 45 00 80 F0  FF FF 7F F0 FF FF 7F 6F  s068E..........o
1180: 76 6C 31 01 80 45 63 80  F8 FF FF 7F F8 FF FF 7F  vl1..Ec.........
1190: 73 30 37 30 01 80 45 00  80 F0 FF FF 7F F0 FF FF  s070..E.........
11A0: 7F 62 6C 6F 6E 01 80 45  15 80 F0 FF FF 7F F0 FF  .blon..E........
11B0: FF 7F 62 6C 6F 6E 01 80  29 08 9C 41 00 01 06 1C  ..blon..)..A....
11C0: 05 80 52 63 80 F8 FF FF  7F F8 FF FF 7F 73 30 37  ..Rc.........s07
11D0: 30 45 00 80 F0 FF FF 7F  F0 FF FF 7F 6F 76 6C 31  0E..........ovl1
11E0: 01 80 45 63 80 F8 FF FF  7F F8 FF FF 7F 73 30 36  ..Ec.........s06
11F0: 39 01 80 45 00 80 F0 FF  FF 7F F0 FF FF 7F 62 6C  9..E..........bl
1200: 6F 66 01 80 29 08 9C 41  00 01 07 29 08 9C 41 00  of..)..A...)..A.
1210: 01 08 29 08 9C 41 00 01  09 1C 02 80 4A 9C 41 00  ..)..A......J.A.
1220: 01 9A 41 00 01 6F 76 9C  41 00 01 52 63 80 F8 FF  ..A..ov.A..Rc...
1230: FF 7F F8 FF FF 7F 73 30  36 39 45 63 80 F8 FF FF  ......s069Ec....
1240: 7F F8 FF FF 7F 73 30 37  31 01 80 2B 9C 41 00 01  .....s071..+.A..
1250: 64 80 23 2B 9A 41 00 01  65 80 23 79 00 F0 FF FF  d.#+.A..e.#y....
1260: 7F 9A 41 00 01 29 0B F0  FF FF 7F 16 52 63 80 F8  ..A..)......Rc..
1270: FF FF 7F F8 FF FF 7F 73  30 37 31 45 63 80 F8 FF  .......s071Ec...
1280: FF 7F F8 FF FF 7F 73 30  37 32 01 80 4B 9A 41 00  ......s072..K.A.
1290: 01 66 80 6F 76 9A 41 00  01 2B 9A 41 00 01 67 80  .f.ov.A..+.A..g.
12A0: 23 45 00 80 F0 FF FF 7F  F0 FF FF 7F 66 64 6F 31  #E..........fdo1
12B0: 01 80 1C 14 80 52 63 80  F8 FF FF 7F F8 FF FF 7F  .....Rc.........
12C0: 73 30 37 32 4E 00 F0 FF  FF 7F 80 F0 FF FF 7F 46  s072N..........F
12D0: 00 45 00 80 F0 FF FF 7F  F0 FF FF 7F 66 64 69 31  .E..........fdi1
12E0: 01 80 20 00 21 00                                 .. .!.          
```

#### Opcodes

```
  0: 0x10A5 [0x20] SET_CLI_EVENT_UC_FLAG: Lock player control
  1: 0x10A7 [0x42] SET_CLI_EVENT_CANCEL_DATA()
  2: 0x10A8 [0x46] CAMERA_CONTROL: Disable user control
  3: 0x10AA [0x45] LOAD_SCHEDULED_TASK: Load scheduler "fdo1" with entities [EventEntity, EventEntity], work=[200*, 0*]
  4: 0x10BB [0x1C] WAIT(120* ticks)
  5: 0x10BE [0x38] SET_CLIENT_EVENT_MODE(mode=19*)
  6: 0x10C1 [0x29] REQ_SET_WAIT(priority=0x08, entity_id=LocalPlayer, tag_num=0x04)
  7: 0x10C8 [0x29] REQ_SET_WAIT(priority=0x0B, entity_id=Sanctia (ID: 16794011/0x0100419B), tag_num=0x38)
  8: 0x10CF [0x29] REQ_SET_WAIT(priority=0x0B, entity_id=LocalPlayer, tag_num=0x15)
  9: 0x10D6 [0x29] REQ_SET_WAIT(priority=0x0B, entity_id=Novice Moogle (ID: 16794012/0x0100419C), tag_num=0x1C)
 10: 0x10DD [0x29] REQ_SET_WAIT(priority=0x0B, entity_id=Rohemolipaud (ID: 16794010/0x0100419A), tag_num=0x22)
 11: 0x10E4 [0x4E] SET_ENTITY_HIDE_FLAG: Show Sanctia (ID: 16794011/0x0100419B)
 12: 0x10EA [0x4E] SET_ENTITY_HIDE_FLAG: Show Novice Moogle (ID: 16794012/0x0100419C)
 13: 0x10F0 [0x4E] SET_ENTITY_HIDE_FLAG: Show Rohemolipaud (ID: 16794010/0x0100419A)
 14: 0x10F6 [0x80] LOAD_WAIT(entity=Sanctia (ID: 16794011/0x0100419B))
 15: 0x10FB [0x80] LOAD_WAIT(entity=Novice Moogle (ID: 16794012/0x0100419C))
 16: 0x1100 [0x80] LOAD_WAIT(entity=Rohemolipaud (ID: 16794010/0x0100419A))
 17: 0x1105 [0x92] Novice Moogle (ID: 16794012/0x0100419C)->Render.Flags3 ^= 0x01
 18: 0x110B [0x92] Sanctia (ID: 16794011/0x0100419B)->Render.Flags3 ^= 0x01
 19: 0x1111 [0x92] Rohemolipaud (ID: 16794010/0x0100419A)->Render.Flags3 ^= 0x01
 20: 0x1117 [0x4A] Novice Moogle (ID: 16794012/0x0100419C) looks at Sanctia (ID: 16794011/0x0100419B)
 21: 0x1120 [0x6F] WAIT_FRAME_DELAY: Yield until WaitTime reaches zero
 22: 0x1121 [0x76] CHECK_ENTITY_RENDER_FLAGS: Wait until Novice Moogle (ID: 16794012/0x0100419C) Render.Flags0 and Render.Flags3 conditions are met
 23: 0x1126 [0x2C] CREATE_SCHEDULER_TASK: Create scheduler "corp" with entities [Sanctia (ID: 16794011/0x0100419B), Sanctia (ID: 16794011/0x0100419B)]
 24: 0x1133 [0x53] WAIT_SCHEDULER_TASK: Wait for scheduler "corp" with entities [Sanctia (ID: 16794011/0x0100419B), Sanctia (ID: 16794011/0x0100419B)]
 25: 0x1140 [0x45] LOAD_SCHEDULED_TASK: Load scheduler "s068" with entities [EventEntity, EventEntity], work=[129*, 0*]
 26: 0x1151 [0x45] LOAD_SCHEDULED_TASK: Load scheduler "fdi1" with entities [EventEntity, EventEntity], work=[200*, 0*]
 27: 0x1162 [0x1C] WAIT(120* ticks)
 28: 0x1165 [0x52] END_LOAD_SCHEDULER: End scheduler "s068" with entities [EventEntity, EventEntity], work=129*
 29: 0x1174 [0x45] LOAD_SCHEDULED_TASK: Load scheduler "ovl1" with entities [LocalPlayer, LocalPlayer], work=[200*, 0*]
 30: 0x1185 [0x45] LOAD_SCHEDULED_TASK: Load scheduler "s070" with entities [EventEntity, EventEntity], work=[129*, 0*]
 31: 0x1196 [0x45] LOAD_SCHEDULED_TASK: Load scheduler "blon" with entities [LocalPlayer, LocalPlayer], work=[200*, 0*]
 32: 0x11A7 [0x45] LOAD_SCHEDULED_TASK: Load scheduler "blon" with entities [LocalPlayer, LocalPlayer], work=[201*, 0*]
 33: 0x11B8 [0x29] REQ_SET_WAIT(priority=0x08, entity_id=Novice Moogle (ID: 16794012/0x0100419C), tag_num=0x06)
 34: 0x11BF [0x1C] WAIT(90* ticks)
 35: 0x11C2 [0x52] END_LOAD_SCHEDULER: End scheduler "s070" with entities [EventEntity, EventEntity], work=129*
 36: 0x11D1 [0x45] LOAD_SCHEDULED_TASK: Load scheduler "ovl1" with entities [LocalPlayer, LocalPlayer], work=[200*, 0*]
 37: 0x11E2 [0x45] LOAD_SCHEDULED_TASK: Load scheduler "s069" with entities [EventEntity, EventEntity], work=[129*, 0*]
 38: 0x11F3 [0x45] LOAD_SCHEDULED_TASK: Load scheduler "blof" with entities [LocalPlayer, LocalPlayer], work=[200*, 0*]
 39: 0x1204 [0x29] REQ_SET_WAIT(priority=0x08, entity_id=Novice Moogle (ID: 16794012/0x0100419C), tag_num=0x07)
 40: 0x120B [0x29] REQ_SET_WAIT(priority=0x08, entity_id=Novice Moogle (ID: 16794012/0x0100419C), tag_num=0x08)
 41: 0x1212 [0x29] REQ_SET_WAIT(priority=0x08, entity_id=Novice Moogle (ID: 16794012/0x0100419C), tag_num=0x09)
 42: 0x1219 [0x1C] WAIT(60* ticks)
 43: 0x121C [0x4A] Novice Moogle (ID: 16794012/0x0100419C) looks at Rohemolipaud (ID: 16794010/0x0100419A)
 44: 0x1225 [0x6F] WAIT_FRAME_DELAY: Yield until WaitTime reaches zero
 45: 0x1226 [0x76] CHECK_ENTITY_RENDER_FLAGS: Wait until Novice Moogle (ID: 16794012/0x0100419C) Render.Flags0 and Render.Flags3 conditions are met
 46: 0x122B [0x52] END_LOAD_SCHEDULER: End scheduler "s069" with entities [EventEntity, EventEntity], work=129*
 47: 0x123A [0x45] LOAD_SCHEDULED_TASK: Load scheduler "s071" with entities [EventEntity, EventEntity], work=[129*, 0*]
 48: 0x124B [0x2B] Novice Moogle (ID: 16794012/0x0100419C) [7521*]:
    → "What have you done to Sanctia, kupopo!"
 49: 0x1252 [0x23] WAIT_FOR_DIALOG_INTERACTION
 50: 0x1253 [0x2B] Rohemolipaud (ID: 16794010/0x0100419A) [7522*]:
    → "Only death awaits those who come in search of Goldmane."
 51: 0x125A [0x23] WAIT_FOR_DIALOG_INTERACTION
 52: 0x125B [0x79] LocalPlayer looks at Rohemolipaud (ID: 16794010/0x0100419A) (Basic look)
 53: 0x1265 [0x29] REQ_SET_WAIT(priority=0x0B, entity_id=LocalPlayer, tag_num=0x16)
 54: 0x126C [0x52] END_LOAD_SCHEDULER: End scheduler "s071" with entities [EventEntity, EventEntity], work=129*
 55: 0x127B [0x45] LOAD_SCHEDULED_TASK: Load scheduler "s072" with entities [EventEntity, EventEntity], work=[129*, 0*]
 56: 0x128C [0x4B] UPDATE_ENTITY_YAW(entity=Rohemolipaud (ID: 16794010/0x0100419A), yaw=8.1°*)
 57: 0x1293 [0x6F] WAIT_FRAME_DELAY: Yield until WaitTime reaches zero
 58: 0x1294 [0x76] CHECK_ENTITY_RENDER_FLAGS: Wait until Rohemolipaud (ID: 16794010/0x0100419A) Render.Flags0 and Render.Flags3 conditions are met
 59: 0x1299 [0x2B] Rohemolipaud (ID: 16794010/0x0100419A) [7523*]:
    → "Another uninvited guest? Much blood will stain the sands this day..."
 60: 0x12A0 [0x23] WAIT_FOR_DIALOG_INTERACTION
 61: 0x12A1 [0x45] LOAD_SCHEDULED_TASK: Load scheduler "fdo1" with entities [LocalPlayer, LocalPlayer], work=[200*, 0*]
 62: 0x12B2 [0x1C] WAIT(120* ticks)
 63: 0x12B5 [0x52] END_LOAD_SCHEDULER: End scheduler "s072" with entities [EventEntity, EventEntity], work=129*
 64: 0x12C4 [0x4E] SET_ENTITY_HIDE_FLAG: Show LocalPlayer
 65: 0x12CA [0x80] LOAD_WAIT(entity=LocalPlayer)
 66: 0x12CF [0x46] CAMERA_CONTROL: Restore default settings
 67: 0x12D1 [0x45] LOAD_SCHEDULED_TASK: Load scheduler "fdi1" with entities [LocalPlayer, LocalPlayer], work=[200*, 0*]
 68: 0x12E2 [0x20] SET_CLI_EVENT_UC_FLAG: Unlock player control
 69: 0x12E4 [0x21] END_EVENT
 70: 0x12E5 [0x00] END_REQSTACK()
```

### Event 37

#### Metadata

| Field        | Value      |
|--------------|------------|
| Entrypoint   | 0x12E6     |
| Data Size    | 4249 bytes |
| Instructions | 586        |

```
      00 01 02 03 04 05 06 07  08 09 0A 0B 0C 0D 0E 0F
      -- -- -- -- -- -- -- --  -- -- -- -- -- -- -- --
12E0:                   20 01  03 01 00 09 10 42 46 01         ......BF.
12F0: 03 01 10 01 80 5D 01 80  14 80 45 00 80 F8 FF FF  .....]....E.....
1300: 7F F8 FF FF 7F 66 64 6F  31 01 80 1C 14 80 38 03  .....fdo1.....8.
1310: 80 29 08 F0 FF FF 7F 04  29 0B 9B 41 00 01 39 29  .)......)..A..9)
1320: 0B F0 FF FF 7F 18 29 0B  9C 41 00 01 1D 4E 00 9B  ......)..A...N..
1330: 41 00 01 4E 00 9C 41 00  01 4E 00 9A 41 00 01 80  A..N..A..N..A...
1340: 9B 41 00 01 80 9C 41 00  01 80 9A 41 00 01 92 01  .A....A....A....
1350: 9C 41 00 01 92 01 9A 41  00 01 92 01 9B 41 00 01  .A.....A.....A..
1360: 27 0B 9C 41 00 01 1E 45  63 80 F8 FF FF 7F F8 FF  '..A...Ec.......
1370: FF 7F 73 30 37 33 01 80  45 00 80 F8 FF FF 7F F8  ..s073..E.......
1380: FF FF 7F 66 64 69 31 01  80 1C 68 80 4A F0 FF FF  ...fdi1...h.J...
1390: 7F 9C 41 00 01 6F 76 F0  FF FF 7F 2A 0B 9C 41 00  ..A..ov....*..A.
13A0: 01 29 08 9C 41 00 01 0E  2B 9C 41 00 01 69 80 23  .)..A...+.A..i.#
13B0: 29 08 9C 41 00 01 0F 29  08 9C 41 00 01 10 29 08  )..A...)..A...).
13C0: 9C 41 00 01 11 52 63 80  F8 FF FF 7F F8 FF FF 7F  .A...Rc.........
13D0: 73 30 37 33 45 63 80 F8  FF FF 7F F8 FF FF 7F 73  s073Ec.........s
13E0: 30 37 34 01 80 29 08 9C  41 00 01 12 2B 9C 41 00  074..)..A...+.A.
13F0: 01 6A 80 23 2B 9C 41 00  01 6B 80 23 52 63 80 F8  .j.#+.A..k.#Rc..
1400: FF FF 7F F8 FF FF 7F 73  30 37 34 45 63 80 F8 FF  .......s074Ec...
1410: FF 7F F8 FF FF 7F 73 30  37 35 01 80 2B 9C 41 00  ......s075..+.A.
1420: 01 6C 80 23 29 08 9C 41  00 01 13 45 00 80 F8 FF  .l.#)..A...E....
1430: FF 7F F8 FF FF 7F 66 64  6F 31 01 80 1C 14 80 29  ......fdo1.....)
1440: 08 9C 41 00 01 14 29 08  9C 41 00 01 15 2C 9B 41  ..A...)..A...,.A
1450: 00 01 9B 41 00 01 72 65  73 31 53 9B 41 00 01 9B  ...A..res1S.A...
1460: 41 00 01 72 65 73 31 79  00 F0 FF FF 7F 9B 41 00  A..res1y......A.
1470: 01 79 00 9C 41 00 01 9B  41 00 01 29 0B F0 FF FF  .y..A...A..)....
1480: 7F 19 29 0B 9C 41 00 01  1F 27 0B 9C 41 00 01 20  ..)..A...'..A.. 
1490: 27 0B F0 FF FF 7F 1A 52  63 80 F8 FF FF 7F F8 FF  '......Rc.......
14A0: FF 7F 73 30 37 35 45 63  80 F8 FF FF 7F F8 FF FF  ..s075Ec........
14B0: 7F 73 30 37 36 01 80 45  00 80 F8 FF FF 7F F8 FF  .s076..E........
14C0: FF 7F 66 64 69 31 01 80  1C 14 80 52 63 80 F8 FF  ..fdi1.....Rc...
14D0: FF 7F F8 FF FF 7F 73 30  37 36 45 00 80 F0 FF FF  ......s076E.....
14E0: 7F F0 FF FF 7F 6F 76 6C  31 01 80 45 63 80 F8 FF  .....ovl1..Ec...
14F0: FF 7F F8 FF FF 7F 73 30  37 37 01 80 2B 9C 41 00  ......s077..+.A.
1500: 01 6D 80 23 2A 0B 9C 41  00 01 2A 0B F0 FF FF 7F  .m.#*..A..*.....
1510: 79 00 9B 41 00 01 9C 41  00 01 2B 9B 41 00 01 6E  y..A...A..+.A..n
1520: 80 23 5D 01 80 14 80 45  00 80 F8 FF FF 7F F8 FF  .#]....E........
1530: FF 7F 66 64 6F 31 01 80  1C 14 80 52 63 80 F8 FF  ..fdo1.....Rc...
1540: FF 7F F8 FF FF 7F 73 30  37 37 29 0B 9C 41 00 01  ......s077)..A..
1550: 21 29 0B F0 FF FF 7F 1B  29 0B 96 41 00 01 0B 29  !)......)..A...)
1560: 0B 95 41 00 01 0B 29 0B  94 41 00 01 0C 29 0B 92  ..A...)..A...)..
1570: 41 00 01 50 5C 00 6F 80  5C 01 6F 80 1C 00 80 4E  A..P\.o.\.o....N
1580: 00 94 41 00 01 4E 00 95  41 00 01 4E 00 96 41 00  ..A..N..A..N..A.
1590: 01 4E 00 92 41 00 01 80  94 41 00 01 80 95 41 00  .N..A....A....A.
15A0: 01 80 96 41 00 01 80 92  41 00 01 92 01 94 41 00  ...A....A.....A.
15B0: 01 92 01 95 41 00 01 92  01 96 41 00 01 92 01 92  ....A.....A.....
15C0: 41 00 01 79 00 F0 FF FF  7F 9B 41 00 01 79 00 9B  A..y......A..y..
15D0: 41 00 01 F0 FF FF 7F 4A  9C 41 00 01 9B 41 00 01  A......J.A...A..
15E0: 6F 76 9C 41 00 01 45 63  80 F8 FF FF 7F F8 FF FF  ov.A..Ec........
15F0: 7F 73 30 37 38 01 80 2C  9B 41 00 01 9B 41 00 01  .s078..,.A...A..
1600: 72 65 73 32 45 00 80 F8  FF FF 7F F8 FF FF 7F 66  res2E..........f
1610: 64 69 31 01 80 2B 9B 41  00 01 70 80 23 53 9B 41  di1..+.A..p.#S.A
1620: 00 01 9B 41 00 01 72 65  73 32 79 00 9B 41 00 01  ...A..res2y..A..
1630: 9C 41 00 01 2B 9C 41 00  01 71 80 23 52 63 80 F8  .A..+.A..q.#Rc..
