# 16794015 - Shikaree Z

## Common Data

| Field            | Value              |
|------------------|--------------------|
| Zone             | Bibiki Bay (ID: 4) |
| Block Size       | 1292 bytes         |
| Total Events     | 58                 |
| References Count | 36                 |

## List of Events

| Event ID                   | Entrypoint   |   Size |   Instructions |
|----------------------------|--------------|--------|----------------|
| [65535](#event-65535)      | 0x0000       |      1 |              1 |
| [43](#event-43)            | 0x0001       |     27 |              5 |
| [65535.1](#event-655351)   | 0x001C       |     16 |              2 |
| [65535.2](#event-655352)   | 0x002C       |     14 |              2 |
| [65535.3](#event-655353)   | 0x003A       |     16 |              2 |
| [65535.4](#event-655354)   | 0x004A       |     14 |              2 |
| [65535.5](#event-655355)   | 0x0058       |     16 |              2 |
| [65535.6](#event-655356)   | 0x0068       |     14 |              2 |
| [65535.7](#event-655357)   | 0x0076       |     16 |              2 |
| [65535.8](#event-655358)   | 0x0086       |     14 |              2 |
| [65535.9](#event-655359)   | 0x0094       |      9 |              3 |
| [65535.10](#event-6553510) | 0x009D       |     16 |              2 |
| [65535.11](#event-6553511) | 0x00AD       |     14 |              2 |
| [65535.12](#event-6553512) | 0x00BB       |     16 |              2 |
| [65535.13](#event-6553513) | 0x00CB       |     14 |              2 |
| [65535.14](#event-6553514) | 0x00D9       |     16 |              2 |
| [65535.15](#event-6553515) | 0x00E9       |     14 |              2 |
| [65535.16](#event-6553516) | 0x00F7       |     16 |              2 |
| [65535.17](#event-6553517) | 0x0107       |     14 |              2 |
| [65535.18](#event-6553518) | 0x0115       |     57 |              5 |
| [65535.19](#event-6553519) | 0x014E       |     16 |              2 |
| [65535.20](#event-6553520) | 0x015E       |     14 |              2 |
| [65535.21](#event-6553521) | 0x016C       |     16 |              2 |
| [65535.22](#event-6553522) | 0x017C       |     14 |              2 |
| [65535.23](#event-6553523) | 0x018A       |     16 |              2 |
| [65535.24](#event-6553524) | 0x019A       |     14 |              2 |
| [65535.25](#event-6553525) | 0x01A8       |     16 |              2 |
| [65535.26](#event-6553526) | 0x01B8       |     14 |              2 |
| [65535.27](#event-6553527) | 0x01C6       |     16 |              2 |
| [65535.28](#event-6553528) | 0x01D6       |     14 |              2 |
| [65535.29](#event-6553529) | 0x01E4       |     16 |              2 |
| [65535.30](#event-6553530) | 0x01F4       |     14 |              2 |
| [65535.31](#event-6553531) | 0x0202       |     16 |              2 |
| [65535.32](#event-6553532) | 0x0212       |     14 |              2 |
| [65535.33](#event-6553533) | 0x0220       |     16 |              2 |
| [65535.34](#event-6553534) | 0x0230       |     14 |              2 |
| [65535.35](#event-6553535) | 0x023E       |     16 |              2 |
| [65535.36](#event-6553536) | 0x024E       |     14 |              2 |
| [65535.37](#event-6553537) | 0x025C       |     16 |              2 |
| [65535.38](#event-6553538) | 0x026C       |     14 |              2 |
| [65535.39](#event-6553539) | 0x027A       |     16 |              2 |
| [65535.40](#event-6553540) | 0x028A       |     14 |              2 |
| [65535.41](#event-6553541) | 0x0298       |     16 |              2 |
| [65535.42](#event-6553542) | 0x02A8       |     14 |              2 |
| [65535.43](#event-6553543) | 0x02B6       |     18 |              4 |
| [65535.44](#event-6553544) | 0x02C8       |     27 |              3 |
| [65535.45](#event-6553545) | 0x02E3       |     27 |              3 |
| [65535.46](#event-6553546) | 0x02FE       |     27 |              3 |
| [65535.47](#event-6553547) | 0x0319       |      1 |              1 |
| [41](#event-41)            | 0x031A       |      1 |              1 |
| [65535.48](#event-6553548) | 0x031B       |     10 |              2 |
| [65535.49](#event-6553549) | 0x0325       |     15 |              5 |
| [65535.50](#event-6553550) | 0x0334       |     10 |              2 |
| [65535.51](#event-6553551) | 0x033E       |     15 |              5 |
| [65535.52](#event-6553552) | 0x034D       |     10 |              2 |
| [65535.53](#event-6553553) | 0x0357       |     15 |              5 |
| [65535.54](#event-6553554) | 0x0366       |     15 |              5 |
| [65535.55](#event-6553555) | 0x0375       |     15 |              5 |

## DAT References (imed_data)

|   Index | Hex Value   |   Dec Value |
|---------|-------------|-------------|
|       0 | 0x0000      |           0 |
|       1 | 0xFFFAB15D  |  4294619485 |
|       2 | 0xFFF16F5D  |  4294012765 |
|       3 | 0xFFFFF530  |  4294964528 |
|       4 | 0x046E      |        1134 |
|       5 | 0x003B      |          59 |
|       6 | 0x003C      |          60 |
|       7 | 0x0299      |         665 |
|       8 | 0x0298      |         664 |
|       9 | 0x029A      |         666 |
|      10 | 0x0019      |          25 |
|      11 | 0x15DDA     |       89562 |
|      12 | 0xE272A     |      927530 |
|      13 | 0xFFFF4B9E  |  4294921118 |
|      14 | 0x0D05      |        3333 |
|      15 | 0x000D      |          13 |
|      16 | 0x169B1     |       92593 |
|      17 | 0xE3BC2     |      932802 |
|      18 | 0xFFFF4FF3  |  4294922227 |
|      19 | 0x1B540     |      111936 |
|      20 | 0xD841B     |      885787 |
|      21 | 0xFFFF4FCE  |  4294922190 |
|      22 | 0x011B      |         283 |
|      23 | 0x1BB20     |      113440 |
|      24 | 0xD8035     |      884789 |
|      25 | 0xFFFF50DC  |  4294922460 |
|      26 | 0x1B7D7     |      112599 |
|      27 | 0xD8534     |      886068 |
|      28 | 0xFFFF504C  |  4294922316 |
|      29 | 0x022C      |         556 |
|      30 | 0x1BDCE     |      114126 |
|      31 | 0xD80F7     |      884983 |
|      32 | 0xFFFF5105  |  4294922501 |
|      33 | 0x1EC82     |      126082 |
|      34 | 0xD5441     |      873537 |
|      35 | 0xFFFF51FF  |  4294922751 |

## Events

### Event 65535

#### Metadata

| Field        | Value   |
|--------------|---------|
| Entrypoint   | 0x0000  |
| Data Size    | 1 bytes |
| Instructions | 1       |

```
      00 01 02 03 04 05 06 07  08 09 0A 0B 0C 0D 0E 0F
      -- -- -- -- -- -- -- --  -- -- -- -- -- -- -- --
0000: 00                                                .               
```

#### Opcodes

```
  0: 0x0000 [0x00] END_REQSTACK()
```

### Event 43

#### Metadata

| Field        | Value    |
|--------------|----------|
| Entrypoint   | 0x0001   |
| Data Size    | 27 bytes |
| Instructions | 5        |

```
      00 01 02 03 04 05 06 07  08 09 0A 0B 0C 0D 0E 0F
      -- -- -- -- -- -- -- --  -- -- -- -- -- -- -- --
0000:    92 01 F8 FF FF 7F 6C  F8 FF FF 7F 00 80 00 80   ......l........
0010: 33 01 37 01 80 02 80 03  80 04 80 00              3.7.........    
```

#### Opcodes

```
  0: 0x0001 [0x92] EventEntity->Render.Flags3 ^= 0x01
  1: 0x0007 [0x6C] FADE_ENTITY_COLOR(entity_id=EventEntity, end_alpha=0*, fade_time=0*)
  2: 0x0010 [0x33] EventEntity->Render.Flags0 |= 0x200000 // Bit 21 (flag=0x01)
  3: 0x0012 [0x37] UPDATE_EVENT_POSITION_AND_DIR: x=-347.811*, z=-954.531*, y=-2.768*, direction=99.7째*
  4: 0x001B [0x00] END_REQSTACK()
```

### Event 65535.1

#### Metadata

| Field        | Value    |
|--------------|----------|
| Entrypoint   | 0x001C   |
| Data Size    | 16 bytes |
| Instructions | 2        |

```
      00 01 02 03 04 05 06 07  08 09 0A 0B 0C 0D 0E 0F
      -- -- -- -- -- -- -- --  -- -- -- -- -- -- -- --
0010:                                      66 05 80 F8              f...
0020: FF FF 7F F8 FF FF 7F 74  6C 6B 30 00              .......tlk0.    
```

#### Opcodes

```
  0: 0x001C [0x66] LOAD_EXT_SCHEDULER_MAIN: Load scheduler "tlk0" with entities [EventEntity, EventEntity], work=59*
  1: 0x002B [0x00] END_REQSTACK()
```

### Event 65535.2

#### Metadata

| Field        | Value    |
|--------------|----------|
| Entrypoint   | 0x002C   |
| Data Size    | 14 bytes |
| Instructions | 2        |

```
      00 01 02 03 04 05 06 07  08 09 0A 0B 0C 0D 0E 0F
      -- -- -- -- -- -- -- --  -- -- -- -- -- -- -- --
0020:                                      53 F8 FF FF              S...
0030: 7F F8 FF FF 7F 74 6C 6B  30 00                    .....tlk0.      
```

#### Opcodes

```
  0: 0x002C [0x53] WAIT_SCHEDULER_TASK: Wait for scheduler "tlk0" with entities [EventEntity, EventEntity]
  1: 0x0039 [0x00] END_REQSTACK()
```

### Event 65535.3

#### Metadata

| Field        | Value    |
|--------------|----------|
| Entrypoint   | 0x003A   |
| Data Size    | 16 bytes |
| Instructions | 2        |

```
      00 01 02 03 04 05 06 07  08 09 0A 0B 0C 0D 0E 0F
      -- -- -- -- -- -- -- --  -- -- -- -- -- -- -- --
0030:                                66 05 80 F8 FF FF            f.....
0040: 7F F8 FF FF 7F 74 6C 6B  31 00                    .....tlk1.      
```

#### Opcodes

```
  0: 0x003A [0x66] LOAD_EXT_SCHEDULER_MAIN: Load scheduler "tlk1" with entities [EventEntity, EventEntity], work=59*
  1: 0x0049 [0x00] END_REQSTACK()
```

### Event 65535.4

#### Metadata

| Field        | Value    |
|--------------|----------|
| Entrypoint   | 0x004A   |
| Data Size    | 14 bytes |
| Instructions | 2        |

```
      00 01 02 03 04 05 06 07  08 09 0A 0B 0C 0D 0E 0F
      -- -- -- -- -- -- -- --  -- -- -- -- -- -- -- --
0040:                                53 F8 FF FF 7F F8            S.....
0050: FF FF 7F 74 6C 6B 31 00                           ...tlk1.        
```

#### Opcodes

```
  0: 0x004A [0x53] WAIT_SCHEDULER_TASK: Wait for scheduler "tlk1" with entities [EventEntity, EventEntity]
  1: 0x0057 [0x00] END_REQSTACK()
```

### Event 65535.5

#### Metadata

| Field        | Value    |
|--------------|----------|
| Entrypoint   | 0x0058   |
| Data Size    | 16 bytes |
| Instructions | 2        |

```
      00 01 02 03 04 05 06 07  08 09 0A 0B 0C 0D 0E 0F
      -- -- -- -- -- -- -- --  -- -- -- -- -- -- -- --
0050:                          66 05 80 F8 FF FF 7F F8          f.......
0060: FF FF 7F 74 68 6B 31 00                           ...thk1.        
```

#### Opcodes

```
  0: 0x0058 [0x66] LOAD_EXT_SCHEDULER_MAIN: Load scheduler "thk1" with entities [EventEntity, EventEntity], work=59*
  1: 0x0067 [0x00] END_REQSTACK()
```

### Event 65535.6

#### Metadata

| Field        | Value    |
|--------------|----------|
| Entrypoint   | 0x0068   |
| Data Size    | 14 bytes |
| Instructions | 2        |

```
      00 01 02 03 04 05 06 07  08 09 0A 0B 0C 0D 0E 0F
      -- -- -- -- -- -- -- --  -- -- -- -- -- -- -- --
0060:                          53 F8 FF FF 7F F8 FF FF          S.......
0070: 7F 74 68 6B 31 00                                 .thk1.          
```

#### Opcodes

```
  0: 0x0068 [0x53] WAIT_SCHEDULER_TASK: Wait for scheduler "thk1" with entities [EventEntity, EventEntity]
  1: 0x0075 [0x00] END_REQSTACK()
```

### Event 65535.7

#### Metadata

| Field        | Value    |
|--------------|----------|
| Entrypoint   | 0x0076   |
| Data Size    | 16 bytes |
| Instructions | 2        |

```
      00 01 02 03 04 05 06 07  08 09 0A 0B 0C 0D 0E 0F
      -- -- -- -- -- -- -- --  -- -- -- -- -- -- -- --
0070:                   66 05  80 F8 FF FF 7F F8 FF FF        f.........
0080: 7F 74 68 6B 32 00                                 .thk2.          
```

#### Opcodes

```
  0: 0x0076 [0x66] LOAD_EXT_SCHEDULER_MAIN: Load scheduler "thk2" with entities [EventEntity, EventEntity], work=59*
  1: 0x0085 [0x00] END_REQSTACK()
```

### Event 65535.8

#### Metadata

| Field        | Value    |
|--------------|----------|
| Entrypoint   | 0x0086   |
| Data Size    | 14 bytes |
| Instructions | 2        |

```
      00 01 02 03 04 05 06 07  08 09 0A 0B 0C 0D 0E 0F
      -- -- -- -- -- -- -- --  -- -- -- -- -- -- -- --
0080:                   53 F8  FF FF 7F F8 FF FF 7F 74        S........t
0090: 68 6B 32 00                                       hk2.            
```

#### Opcodes

```
  0: 0x0086 [0x53] WAIT_SCHEDULER_TASK: Wait for scheduler "thk2" with entities [EventEntity, EventEntity]
  1: 0x0093 [0x00] END_REQSTACK()
```

### Event 65535.9

#### Metadata

| Field        | Value   |
|--------------|---------|
| Entrypoint   | 0x0094  |
| Data Size    | 9 bytes |
| Instructions | 3       |

```
      00 01 02 03 04 05 06 07  08 09 0A 0B 0C 0D 0E 0F
      -- -- -- -- -- -- -- --  -- -- -- -- -- -- -- --
0090:             5E 69 64 6C  30 1C 06 80 00               ^idl0....   
```

#### Opcodes

```
  0: 0x0094 [0x5E] EventEntity goes idle (kills current action) (animation: "idl0")
  1: 0x0099 [0x1C] WAIT(60* ticks)
  2: 0x009C [0x00] END_REQSTACK()
```

### Event 65535.10

#### Metadata

| Field        | Value    |
|--------------|----------|
| Entrypoint   | 0x009D   |
| Data Size    | 16 bytes |
| Instructions | 2        |

```
      00 01 02 03 04 05 06 07  08 09 0A 0B 0C 0D 0E 0F
      -- -- -- -- -- -- -- --  -- -- -- -- -- -- -- --
0090:                                         5B 07 80               [..
00A0: F8 FF FF 7F F8 FF FF 7F  61 74 73 30 00           ........ats0.   
```

#### Opcodes

```
  0: 0x009D [0x5B] LOAD_EXT_SCHEDULER: Load scheduler "ats0" with entities [EventEntity, EventEntity], work=665*
  1: 0x00AC [0x00] END_REQSTACK()
```

### Event 65535.11

#### Metadata

| Field        | Value    |
|--------------|----------|
| Entrypoint   | 0x00AD   |
| Data Size    | 14 bytes |
| Instructions | 2        |

```
      00 01 02 03 04 05 06 07  08 09 0A 0B 0C 0D 0E 0F
      -- -- -- -- -- -- -- --  -- -- -- -- -- -- -- --
00A0:                                         53 F8 FF               S..
00B0: FF 7F F8 FF FF 7F 61 74  73 30 00                 ......ats0.     
```

#### Opcodes

```
  0: 0x00AD [0x53] WAIT_SCHEDULER_TASK: Wait for scheduler "ats0" with entities [EventEntity, EventEntity]
  1: 0x00BA [0x00] END_REQSTACK()
```

### Event 65535.12

#### Metadata

| Field        | Value    |
|--------------|----------|
| Entrypoint   | 0x00BB   |
| Data Size    | 16 bytes |
| Instructions | 2        |

```
      00 01 02 03 04 05 06 07  08 09 0A 0B 0C 0D 0E 0F
      -- -- -- -- -- -- -- --  -- -- -- -- -- -- -- --
00B0:                                   5B 07 80 F8 FF             [....
00C0: FF 7F F8 FF FF 7F 61 74  65 30 00                 ......ate0.     
```

#### Opcodes

```
  0: 0x00BB [0x5B] LOAD_EXT_SCHEDULER: Load scheduler "ate0" with entities [EventEntity, EventEntity], work=665*
  1: 0x00CA [0x00] END_REQSTACK()
```

### Event 65535.13

#### Metadata

| Field        | Value    |
|--------------|----------|
| Entrypoint   | 0x00CB   |
| Data Size    | 14 bytes |
| Instructions | 2        |

```
      00 01 02 03 04 05 06 07  08 09 0A 0B 0C 0D 0E 0F
      -- -- -- -- -- -- -- --  -- -- -- -- -- -- -- --
00C0:                                   53 F8 FF FF 7F             S....
00D0: F8 FF FF 7F 61 74 65 30  00                       ....ate0.       
```

#### Opcodes

```
  0: 0x00CB [0x53] WAIT_SCHEDULER_TASK: Wait for scheduler "ate0" with entities [EventEntity, EventEntity]
  1: 0x00D8 [0x00] END_REQSTACK()
```

### Event 65535.14

#### Metadata

| Field        | Value    |
|--------------|----------|
| Entrypoint   | 0x00D9   |
| Data Size    | 16 bytes |
| Instructions | 2        |

```
      00 01 02 03 04 05 06 07  08 09 0A 0B 0C 0D 0E 0F
      -- -- -- -- -- -- -- --  -- -- -- -- -- -- -- --
00D0:                             5B 08 80 F8 FF FF 7F           [......
00E0: F8 FF FF 7F 74 6C 6B 30  00                       ....tlk0.       
```

#### Opcodes

```
  0: 0x00D9 [0x5B] LOAD_EXT_SCHEDULER: Load scheduler "tlk0" with entities [EventEntity, EventEntity], work=664*
  1: 0x00E8 [0x00] END_REQSTACK()
```

### Event 65535.15

#### Metadata

| Field        | Value    |
|--------------|----------|
| Entrypoint   | 0x00E9   |
| Data Size    | 14 bytes |
| Instructions | 2        |

```
      00 01 02 03 04 05 06 07  08 09 0A 0B 0C 0D 0E 0F
      -- -- -- -- -- -- -- --  -- -- -- -- -- -- -- --
00E0:                             53 F8 FF FF 7F F8 FF           S......
00F0: FF 7F 74 6C 6B 30 00                              ..tlk0.         
```

#### Opcodes

```
  0: 0x00E9 [0x53] WAIT_SCHEDULER_TASK: Wait for scheduler "tlk0" with entities [EventEntity, EventEntity]
  1: 0x00F6 [0x00] END_REQSTACK()
```

### Event 65535.16

#### Metadata

| Field        | Value    |
|--------------|----------|
| Entrypoint   | 0x00F7   |
| Data Size    | 16 bytes |
| Instructions | 2        |

```
      00 01 02 03 04 05 06 07  08 09 0A 0B 0C 0D 0E 0F
      -- -- -- -- -- -- -- --  -- -- -- -- -- -- -- --
00F0:                      5B  08 80 F8 FF FF 7F F8 FF         [........
0100: FF 7F 74 6C 6B 31 00                              ..tlk1.         
```

#### Opcodes

```
  0: 0x00F7 [0x5B] LOAD_EXT_SCHEDULER: Load scheduler "tlk1" with entities [EventEntity, EventEntity], work=664*
  1: 0x0106 [0x00] END_REQSTACK()
```

### Event 65535.17

#### Metadata

| Field        | Value    |
|--------------|----------|
| Entrypoint   | 0x0107   |
| Data Size    | 14 bytes |
| Instructions | 2        |

```
      00 01 02 03 04 05 06 07  08 09 0A 0B 0C 0D 0E 0F
      -- -- -- -- -- -- -- --  -- -- -- -- -- -- -- --
0100:                      53  F8 FF FF 7F F8 FF FF 7F         S........
0110: 74 6C 6B 31 00                                    tlk1.           
```

#### Opcodes

```
  0: 0x0107 [0x53] WAIT_SCHEDULER_TASK: Wait for scheduler "tlk1" with entities [EventEntity, EventEntity]
  1: 0x0114 [0x00] END_REQSTACK()
```

### Event 65535.18

#### Metadata

| Field        | Value    |
|--------------|----------|
| Entrypoint   | 0x0115   |
| Data Size    | 57 bytes |
| Instructions | 5        |

```
      00 01 02 03 04 05 06 07  08 09 0A 0B 0C 0D 0E 0F
      -- -- -- -- -- -- -- --  -- -- -- -- -- -- -- --
0110:                5B 08 80  F8 FF FF 7F F8 FF FF 7F       [..........
0120: 74 6C 6B 30 53 F8 FF FF  7F F8 FF FF 7F 74 6C 6B  tlk0S........tlk
0130: 30 5B 08 80 F8 FF FF 7F  F8 FF FF 7F 74 6C 6B 31  0[..........tlk1
0140: 53 F8 FF FF 7F F8 FF FF  7F 74 6C 6B 31 00        S........tlk1.  
```

#### Opcodes

```
  0: 0x0115 [0x5B] LOAD_EXT_SCHEDULER: Load scheduler "tlk0" with entities [EventEntity, EventEntity], work=664*
  1: 0x0124 [0x53] WAIT_SCHEDULER_TASK: Wait for scheduler "tlk0" with entities [EventEntity, EventEntity]
  2: 0x0131 [0x5B] LOAD_EXT_SCHEDULER: Load scheduler "tlk1" with entities [EventEntity, EventEntity], work=664*
  3: 0x0140 [0x53] WAIT_SCHEDULER_TASK: Wait for scheduler "tlk1" with entities [EventEntity, EventEntity]
  4: 0x014D [0x00] END_REQSTACK()
```

### Event 65535.19

#### Metadata

| Field        | Value    |
|--------------|----------|
| Entrypoint   | 0x014E   |
| Data Size    | 16 bytes |
| Instructions | 2        |

```
      00 01 02 03 04 05 06 07  08 09 0A 0B 0C 0D 0E 0F
      -- -- -- -- -- -- -- --  -- -- -- -- -- -- -- --
0140:                                            5B 07                [.
0150: 80 F8 FF FF 7F F8 FF FF  7F 74 6C 79 30 00        .........tly0.  
```

#### Opcodes

```
  0: 0x014E [0x5B] LOAD_EXT_SCHEDULER: Load scheduler "tly0" with entities [EventEntity, EventEntity], work=665*
  1: 0x015D [0x00] END_REQSTACK()
```

### Event 65535.20

#### Metadata

| Field        | Value    |
|--------------|----------|
| Entrypoint   | 0x015E   |
| Data Size    | 14 bytes |
| Instructions | 2        |

```
      00 01 02 03 04 05 06 07  08 09 0A 0B 0C 0D 0E 0F
      -- -- -- -- -- -- -- --  -- -- -- -- -- -- -- --
0150:                                            53 F8                S.
0160: FF FF 7F F8 FF FF 7F 74  6C 79 30 00              .......tly0.    
```

#### Opcodes

```
  0: 0x015E [0x53] WAIT_SCHEDULER_TASK: Wait for scheduler "tly0" with entities [EventEntity, EventEntity]
  1: 0x016B [0x00] END_REQSTACK()
```

### Event 65535.21

#### Metadata

| Field        | Value    |
|--------------|----------|
| Entrypoint   | 0x016C   |
| Data Size    | 16 bytes |
| Instructions | 2        |

```
      00 01 02 03 04 05 06 07  08 09 0A 0B 0C 0D 0E 0F
      -- -- -- -- -- -- -- --  -- -- -- -- -- -- -- --
0160:                                      5B 07 80 F8              [...
0170: FF FF 7F F8 FF FF 7F 74  6C 79 31 00              .......tly1.    
```

#### Opcodes

```
  0: 0x016C [0x5B] LOAD_EXT_SCHEDULER: Load scheduler "tly1" with entities [EventEntity, EventEntity], work=665*
  1: 0x017B [0x00] END_REQSTACK()
```

### Event 65535.22

#### Metadata

| Field        | Value    |
|--------------|----------|
| Entrypoint   | 0x017C   |
| Data Size    | 14 bytes |
| Instructions | 2        |

```
      00 01 02 03 04 05 06 07  08 09 0A 0B 0C 0D 0E 0F
      -- -- -- -- -- -- -- --  -- -- -- -- -- -- -- --
0170:                                      53 F8 FF FF              S...
0180: 7F F8 FF FF 7F 74 6C 79  31 00                    .....tly1.      
```

#### Opcodes

```
  0: 0x017C [0x53] WAIT_SCHEDULER_TASK: Wait for scheduler "tly1" with entities [EventEntity, EventEntity]
  1: 0x0189 [0x00] END_REQSTACK()
```

### Event 65535.23

#### Metadata

| Field        | Value    |
|--------------|----------|
| Entrypoint   | 0x018A   |
| Data Size    | 16 bytes |
| Instructions | 2        |

```
      00 01 02 03 04 05 06 07  08 09 0A 0B 0C 0D 0E 0F
      -- -- -- -- -- -- -- --  -- -- -- -- -- -- -- --
0180:                                5B 09 80 F8 FF FF            [.....
0190: 7F F8 FF FF 7F 74 6C 6E  30 00                    .....tln0.      
```

#### Opcodes

```
  0: 0x018A [0x5B] LOAD_EXT_SCHEDULER: Load scheduler "tln0" with entities [EventEntity, EventEntity], work=666*
  1: 0x0199 [0x00] END_REQSTACK()
```

### Event 65535.24

#### Metadata

| Field        | Value    |
|--------------|----------|
| Entrypoint   | 0x019A   |
| Data Size    | 14 bytes |
| Instructions | 2        |

```
      00 01 02 03 04 05 06 07  08 09 0A 0B 0C 0D 0E 0F
      -- -- -- -- -- -- -- --  -- -- -- -- -- -- -- --
0190:                                53 F8 FF FF 7F F8            S.....
01A0: FF FF 7F 74 6C 6E 30 00                           ...tln0.        
```

#### Opcodes

```
  0: 0x019A [0x53] WAIT_SCHEDULER_TASK: Wait for scheduler "tln0" with entities [EventEntity, EventEntity]
  1: 0x01A7 [0x00] END_REQSTACK()
```

### Event 65535.25

#### Metadata

| Field        | Value    |
|--------------|----------|
| Entrypoint   | 0x01A8   |
| Data Size    | 16 bytes |
| Instructions | 2        |

```
      00 01 02 03 04 05 06 07  08 09 0A 0B 0C 0D 0E 0F
      -- -- -- -- -- -- -- --  -- -- -- -- -- -- -- --
01A0:                          5B 09 80 F8 FF FF 7F F8          [.......
01B0: FF FF 7F 74 6C 6E 31 00                           ...tln1.        
```

#### Opcodes

```
  0: 0x01A8 [0x5B] LOAD_EXT_SCHEDULER: Load scheduler "tln1" with entities [EventEntity, EventEntity], work=666*
  1: 0x01B7 [0x00] END_REQSTACK()
```

### Event 65535.26

#### Metadata

| Field        | Value    |
|--------------|----------|
| Entrypoint   | 0x01B8   |
| Data Size    | 14 bytes |
| Instructions | 2        |

```
      00 01 02 03 04 05 06 07  08 09 0A 0B 0C 0D 0E 0F
      -- -- -- -- -- -- -- --  -- -- -- -- -- -- -- --
01B0:                          53 F8 FF FF 7F F8 FF FF          S.......
01C0: 7F 74 6C 6E 31 00                                 .tln1.          
```

#### Opcodes

```
  0: 0x01B8 [0x53] WAIT_SCHEDULER_TASK: Wait for scheduler "tln1" with entities [EventEntity, EventEntity]
  1: 0x01C5 [0x00] END_REQSTACK()
```

### Event 65535.27

#### Metadata

| Field        | Value    |
|--------------|----------|
| Entrypoint   | 0x01C6   |
| Data Size    | 16 bytes |
| Instructions | 2        |

```
      00 01 02 03 04 05 06 07  08 09 0A 0B 0C 0D 0E 0F
      -- -- -- -- -- -- -- --  -- -- -- -- -- -- -- --
01C0:                   5B 08  80 F8 FF FF 7F F8 FF FF        [.........
01D0: 7F 61 74 73 30 00                                 .ats0.          
```

#### Opcodes

```
  0: 0x01C6 [0x5B] LOAD_EXT_SCHEDULER: Load scheduler "ats0" with entities [EventEntity, EventEntity], work=664*
  1: 0x01D5 [0x00] END_REQSTACK()
```

### Event 65535.28

#### Metadata

| Field        | Value    |
|--------------|----------|
| Entrypoint   | 0x01D6   |
| Data Size    | 14 bytes |
| Instructions | 2        |

```
      00 01 02 03 04 05 06 07  08 09 0A 0B 0C 0D 0E 0F
      -- -- -- -- -- -- -- --  -- -- -- -- -- -- -- --
01D0:                   53 F8  FF FF 7F F8 FF FF 7F 61        S........a
01E0: 74 73 30 00                                       ts0.            
```

#### Opcodes

```
  0: 0x01D6 [0x53] WAIT_SCHEDULER_TASK: Wait for scheduler "ats0" with entities [EventEntity, EventEntity]
  1: 0x01E3 [0x00] END_REQSTACK()
```

### Event 65535.29

#### Metadata

| Field        | Value    |
|--------------|----------|
| Entrypoint   | 0x01E4   |
| Data Size    | 16 bytes |
| Instructions | 2        |

```
      00 01 02 03 04 05 06 07  08 09 0A 0B 0C 0D 0E 0F
      -- -- -- -- -- -- -- --  -- -- -- -- -- -- -- --
01E0:             5B 08 80 F8  FF FF 7F F8 FF FF 7F 61      [..........a
01F0: 74 65 30 00                                       te0.            
```

#### Opcodes

```
  0: 0x01E4 [0x5B] LOAD_EXT_SCHEDULER: Load scheduler "ate0" with entities [EventEntity, EventEntity], work=664*
  1: 0x01F3 [0x00] END_REQSTACK()
```

### Event 65535.30

#### Metadata

| Field        | Value    |
|--------------|----------|
| Entrypoint   | 0x01F4   |
| Data Size    | 14 bytes |
| Instructions | 2        |

```
      00 01 02 03 04 05 06 07  08 09 0A 0B 0C 0D 0E 0F
      -- -- -- -- -- -- -- --  -- -- -- -- -- -- -- --
01F0:             53 F8 FF FF  7F F8 FF FF 7F 61 74 65      S........ate
0200: 30 00                                             0.              
```

#### Opcodes

```
  0: 0x01F4 [0x53] WAIT_SCHEDULER_TASK: Wait for scheduler "ate0" with entities [EventEntity, EventEntity]
  1: 0x0201 [0x00] END_REQSTACK()
```

### Event 65535.31

#### Metadata

| Field        | Value    |
|--------------|----------|
| Entrypoint   | 0x0202   |
| Data Size    | 16 bytes |
| Instructions | 2        |

```
      00 01 02 03 04 05 06 07  08 09 0A 0B 0C 0D 0E 0F
      -- -- -- -- -- -- -- --  -- -- -- -- -- -- -- --
0200:       5B 07 80 F8 FF FF  7F F8 FF FF 7F 61 74 73    [..........ats
0210: 30 00                                             0.              
```

#### Opcodes

```
  0: 0x0202 [0x5B] LOAD_EXT_SCHEDULER: Load scheduler "ats0" with entities [EventEntity, EventEntity], work=665*
  1: 0x0211 [0x00] END_REQSTACK()
```

### Event 65535.32

#### Metadata

| Field        | Value    |
|--------------|----------|
| Entrypoint   | 0x0212   |
| Data Size    | 14 bytes |
| Instructions | 2        |

```
      00 01 02 03 04 05 06 07  08 09 0A 0B 0C 0D 0E 0F
      -- -- -- -- -- -- -- --  -- -- -- -- -- -- -- --
0210:       53 F8 FF FF 7F F8  FF FF 7F 61 74 73 30 00    S........ats0.
```

#### Opcodes

```
  0: 0x0212 [0x53] WAIT_SCHEDULER_TASK: Wait for scheduler "ats0" with entities [EventEntity, EventEntity]
  1: 0x021F [0x00] END_REQSTACK()
```

### Event 65535.33

#### Metadata

| Field        | Value    |
|--------------|----------|
| Entrypoint   | 0x0220   |
| Data Size    | 16 bytes |
| Instructions | 2        |

```
      00 01 02 03 04 05 06 07  08 09 0A 0B 0C 0D 0E 0F
      -- -- -- -- -- -- -- --  -- -- -- -- -- -- -- --
0220: 5B 07 80 F8 FF FF 7F F8  FF FF 7F 61 74 73 73 00  [..........atss.
```

#### Opcodes

```
  0: 0x0220 [0x5B] LOAD_EXT_SCHEDULER: Load scheduler "atss" with entities [EventEntity, EventEntity], work=665*
  1: 0x022F [0x00] END_REQSTACK()
```

### Event 65535.34

#### Metadata

| Field        | Value    |
|--------------|----------|
| Entrypoint   | 0x0230   |
| Data Size    | 14 bytes |
| Instructions | 2        |

```
      00 01 02 03 04 05 06 07  08 09 0A 0B 0C 0D 0E 0F
      -- -- -- -- -- -- -- --  -- -- -- -- -- -- -- --
0230: 53 F8 FF FF 7F F8 FF FF  7F 61 74 73 73 00        S........atss.  
```

#### Opcodes

```
  0: 0x0230 [0x53] WAIT_SCHEDULER_TASK: Wait for scheduler "atss" with entities [EventEntity, EventEntity]
  1: 0x023D [0x00] END_REQSTACK()
```

### Event 65535.35

#### Metadata

| Field        | Value    |
|--------------|----------|
| Entrypoint   | 0x023E   |
| Data Size    | 16 bytes |
| Instructions | 2        |

```
      00 01 02 03 04 05 06 07  08 09 0A 0B 0C 0D 0E 0F
      -- -- -- -- -- -- -- --  -- -- -- -- -- -- -- --
0230:                                            5B 07                [.
0240: 80 F8 FF FF 7F F8 FF FF  7F 61 74 65 30 00        .........ate0.  
```

#### Opcodes

```
  0: 0x023E [0x5B] LOAD_EXT_SCHEDULER: Load scheduler "ate0" with entities [EventEntity, EventEntity], work=665*
  1: 0x024D [0x00] END_REQSTACK()
```

### Event 65535.36

#### Metadata

| Field        | Value    |
|--------------|----------|
| Entrypoint   | 0x024E   |
| Data Size    | 14 bytes |
| Instructions | 2        |

```
      00 01 02 03 04 05 06 07  08 09 0A 0B 0C 0D 0E 0F
      -- -- -- -- -- -- -- --  -- -- -- -- -- -- -- --
0240:                                            53 F8                S.
0250: FF FF 7F F8 FF FF 7F 61  74 65 30 00              .......ate0.    
```

#### Opcodes

```
  0: 0x024E [0x53] WAIT_SCHEDULER_TASK: Wait for scheduler "ate0" with entities [EventEntity, EventEntity]
  1: 0x025B [0x00] END_REQSTACK()
```

### Event 65535.37

#### Metadata

| Field        | Value    |
|--------------|----------|
| Entrypoint   | 0x025C   |
| Data Size    | 16 bytes |
| Instructions | 2        |

```
      00 01 02 03 04 05 06 07  08 09 0A 0B 0C 0D 0E 0F
      -- -- -- -- -- -- -- --  -- -- -- -- -- -- -- --
0250:                                      5B 09 80 F8              [...
0260: FF FF 7F F8 FF FF 7F 61  74 6C 30 00              .......atl0.    
```

#### Opcodes

```
  0: 0x025C [0x5B] LOAD_EXT_SCHEDULER: Load scheduler "atl0" with entities [EventEntity, EventEntity], work=666*
  1: 0x026B [0x00] END_REQSTACK()
```

### Event 65535.38

#### Metadata

| Field        | Value    |
|--------------|----------|
| Entrypoint   | 0x026C   |
| Data Size    | 14 bytes |
| Instructions | 2        |

```
      00 01 02 03 04 05 06 07  08 09 0A 0B 0C 0D 0E 0F
      -- -- -- -- -- -- -- --  -- -- -- -- -- -- -- --
0260:                                      53 F8 FF FF              S...
0270: 7F F8 FF FF 7F 61 74 6C  30 00                    .....atl0.      
```

#### Opcodes

```
  0: 0x026C [0x53] WAIT_SCHEDULER_TASK: Wait for scheduler "atl0" with entities [EventEntity, EventEntity]
  1: 0x0279 [0x00] END_REQSTACK()
```

### Event 65535.39

#### Metadata

| Field        | Value    |
|--------------|----------|
| Entrypoint   | 0x027A   |
| Data Size    | 16 bytes |
| Instructions | 2        |

```
      00 01 02 03 04 05 06 07  08 09 0A 0B 0C 0D 0E 0F
      -- -- -- -- -- -- -- --  -- -- -- -- -- -- -- --
0270:                                5B 09 80 F8 FF FF            [.....
0280: 7F F8 FF FF 7F 61 74 73  30 00                    .....ats0.      
```

#### Opcodes

```
  0: 0x027A [0x5B] LOAD_EXT_SCHEDULER: Load scheduler "ats0" with entities [EventEntity, EventEntity], work=666*
  1: 0x0289 [0x00] END_REQSTACK()
```

### Event 65535.40

#### Metadata

| Field        | Value    |
|--------------|----------|
| Entrypoint   | 0x028A   |
| Data Size    | 14 bytes |
| Instructions | 2        |

```
      00 01 02 03 04 05 06 07  08 09 0A 0B 0C 0D 0E 0F
      -- -- -- -- -- -- -- --  -- -- -- -- -- -- -- --
0280:                                53 F8 FF FF 7F F8            S.....
0290: FF FF 7F 61 74 73 30 00                           ...ats0.        
```

#### Opcodes

```
  0: 0x028A [0x53] WAIT_SCHEDULER_TASK: Wait for scheduler "ats0" with entities [EventEntity, EventEntity]
  1: 0x0297 [0x00] END_REQSTACK()
```

### Event 65535.41

#### Metadata

| Field        | Value    |
|--------------|----------|
| Entrypoint   | 0x0298   |
| Data Size    | 16 bytes |
| Instructions | 2        |

```
      00 01 02 03 04 05 06 07  08 09 0A 0B 0C 0D 0E 0F
      -- -- -- -- -- -- -- --  -- -- -- -- -- -- -- --
0290:                          5B 09 80 F8 FF FF 7F F8          [.......
02A0: FF FF 7F 61 74 65 30 00                           ...ate0.        
```

#### Opcodes

```
  0: 0x0298 [0x5B] LOAD_EXT_SCHEDULER: Load scheduler "ate0" with entities [EventEntity, EventEntity], work=666*
  1: 0x02A7 [0x00] END_REQSTACK()
```

### Event 65535.42

#### Metadata

| Field        | Value    |
|--------------|----------|
| Entrypoint   | 0x02A8   |
| Data Size    | 14 bytes |
| Instructions | 2        |

```
      00 01 02 03 04 05 06 07  08 09 0A 0B 0C 0D 0E 0F
      -- -- -- -- -- -- -- --  -- -- -- -- -- -- -- --
02A0:                          53 F8 FF FF 7F F8 FF FF          S.......
02B0: 7F 61 74 65 30 00                                 .ate0.          
```

#### Opcodes

```
  0: 0x02A8 [0x53] WAIT_SCHEDULER_TASK: Wait for scheduler "ate0" with entities [EventEntity, EventEntity]
  1: 0x02B5 [0x00] END_REQSTACK()
```

### Event 65535.43

#### Metadata

| Field        | Value    |
|--------------|----------|
| Entrypoint   | 0x02B6   |
| Data Size    | 18 bytes |
| Instructions | 4        |

```
      00 01 02 03 04 05 06 07  08 09 0A 0B 0C 0D 0E 0F
      -- -- -- -- -- -- -- --  -- -- -- -- -- -- -- --
02B0:                   6E F8  FF FF 7F 0A 80 99 F8 FF        n.........
02C0: FF 7F 99 F8 FF FF 7F 00                           ........        
```

#### Opcodes

```
  0: 0x02B6 [0x6E] EventEntity uses emote 25*
  1: 0x02BD [0x99] Wait for EventEntity animation to complete
  2: 0x02C2 [0x99] Wait for EventEntity animation to complete
  3: 0x02C7 [0x00] END_REQSTACK()
```

### Event 65535.44

#### Metadata

| Field        | Value    |
|--------------|----------|
| Entrypoint   | 0x02C8   |
| Data Size    | 27 bytes |
| Instructions | 3        |

```
      00 01 02 03 04 05 06 07  08 09 0A 0B 0C 0D 0E 0F
      -- -- -- -- -- -- -- --  -- -- -- -- -- -- -- --
02C0:                          2C F8 FF FF 7F F8 FF FF          ,.......
02D0: 7F 72 65 73 30 53 F8 FF  FF 7F F8 FF FF 7F 72 65  .res0S........re
02E0: 73 30 00                                          s0.             
```

#### Opcodes

```
  0: 0x02C8 [0x2C] CREATE_SCHEDULER_TASK: Create scheduler "res0" with entities [EventEntity, EventEntity]
  1: 0x02D5 [0x53] WAIT_SCHEDULER_TASK: Wait for scheduler "res0" with entities [EventEntity, EventEntity]
  2: 0x02E2 [0x00] END_REQSTACK()
```

### Event 65535.45

#### Metadata

| Field        | Value    |
|--------------|----------|
| Entrypoint   | 0x02E3   |
| Data Size    | 27 bytes |
| Instructions | 3        |

```
      00 01 02 03 04 05 06 07  08 09 0A 0B 0C 0D 0E 0F
      -- -- -- -- -- -- -- --  -- -- -- -- -- -- -- --
02E0:          2C F8 FF FF 7F  F8 FF FF 7F 72 65 73 31     ,........res1
02F0: 53 F8 FF FF 7F F8 FF FF  7F 72 65 73 31 00        S........res1.  
```

#### Opcodes

```
  0: 0x02E3 [0x2C] CREATE_SCHEDULER_TASK: Create scheduler "res1" with entities [EventEntity, EventEntity]
  1: 0x02F0 [0x53] WAIT_SCHEDULER_TASK: Wait for scheduler "res1" with entities [EventEntity, EventEntity]
  2: 0x02FD [0x00] END_REQSTACK()
```

### Event 65535.46

#### Metadata

| Field        | Value    |
|--------------|----------|
| Entrypoint   | 0x02FE   |
| Data Size    | 27 bytes |
| Instructions | 3        |

```
      00 01 02 03 04 05 06 07  08 09 0A 0B 0C 0D 0E 0F
      -- -- -- -- -- -- -- --  -- -- -- -- -- -- -- --
02F0:                                            2C F8                ,.
0300: FF FF 7F F8 FF FF 7F 72  65 73 32 53 F8 FF FF 7F  .......res2S....
0310: F8 FF FF 7F 72 65 73 32  00                       ....res2.       
```

#### Opcodes

```
  0: 0x02FE [0x2C] CREATE_SCHEDULER_TASK: Create scheduler "res2" with entities [EventEntity, EventEntity]
  1: 0x030B [0x53] WAIT_SCHEDULER_TASK: Wait for scheduler "res2" with entities [EventEntity, EventEntity]
  2: 0x0318 [0x00] END_REQSTACK()
```

### Event 65535.47

#### Metadata

| Field        | Value   |
|--------------|---------|
| Entrypoint   | 0x0319  |
| Data Size    | 1 bytes |
| Instructions | 1       |

```
      00 01 02 03 04 05 06 07  08 09 0A 0B 0C 0D 0E 0F
      -- -- -- -- -- -- -- --  -- -- -- -- -- -- -- --
0310:                             00                             .      
```

#### Opcodes

```
  0: 0x0319 [0x00] END_REQSTACK()
```

### Event 41

#### Metadata

| Field        | Value   |
|--------------|---------|
| Entrypoint   | 0x031A  |
| Data Size    | 1 bytes |
| Instructions | 1       |

```
      00 01 02 03 04 05 06 07  08 09 0A 0B 0C 0D 0E 0F
      -- -- -- -- -- -- -- --  -- -- -- -- -- -- -- --
0310:                                00                           .     
```

#### Opcodes

```
  0: 0x031A [0x00] END_REQSTACK()
```

### Event 65535.48

#### Metadata

| Field        | Value    |
|--------------|----------|
| Entrypoint   | 0x031B   |
| Data Size    | 10 bytes |
| Instructions | 2        |

```
      00 01 02 03 04 05 06 07  08 09 0A 0B 0C 0D 0E 0F
      -- -- -- -- -- -- -- --  -- -- -- -- -- -- -- --
0310:                                   37 0B 80 0C 80             7....
0320: 0D 80 0E 80 00                                    .....           
```

#### Opcodes

```
  0: 0x031B [0x37] UPDATE_EVENT_POSITION_AND_DIR: x=89.562*, z=927.530*, y=-46.178*, direction=292.9째*
  1: 0x0324 [0x00] END_REQSTACK()
```

### Event 65535.49

#### Metadata

| Field        | Value    |
|--------------|----------|
| Entrypoint   | 0x0325   |
| Data Size    | 15 bytes |
| Instructions | 5        |

```
      00 01 02 03 04 05 06 07  08 09 0A 0B 0C 0D 0E 0F
      -- -- -- -- -- -- -- --  -- -- -- -- -- -- -- --
0320:                32 0F 80  1F 00 10 80 11 80 12 80       2..........
0330: 1F 01 6F 00                                       ..o.            
```

#### Opcodes

```
  0: 0x0325 [0x32] ExtData[1]->MainSpeed = 13* * 0.1
  1: 0x0328 [0x1F] MOVE_ENTITY: EventEntity moves to X=92.593*, Z=932.802*, Y=-45.069*
  2: 0x0330 [0x1F] MOVE_ENTITY: Update entity position (mode=1)
  3: 0x0332 [0x6F] WAIT_FRAME_DELAY: Yield until WaitTime reaches zero
  4: 0x0333 [0x00] END_REQSTACK()
```

### Event 65535.50

#### Metadata

| Field        | Value    |
|--------------|----------|
| Entrypoint   | 0x0334   |
| Data Size    | 10 bytes |
| Instructions | 2        |

```
      00 01 02 03 04 05 06 07  08 09 0A 0B 0C 0D 0E 0F
      -- -- -- -- -- -- -- --  -- -- -- -- -- -- -- --
0330:             37 13 80 14  80 15 80 16 80 00            7.........  
```

#### Opcodes

```
  0: 0x0334 [0x37] UPDATE_EVENT_POSITION_AND_DIR: x=111.936*, z=885.787*, y=-45.106*, direction=24.9째*
  1: 0x033D [0x00] END_REQSTACK()
```

### Event 65535.51

#### Metadata

| Field        | Value    |
|--------------|----------|
| Entrypoint   | 0x033E   |
| Data Size    | 15 bytes |
| Instructions | 5        |

```
      00 01 02 03 04 05 06 07  08 09 0A 0B 0C 0D 0E 0F
      -- -- -- -- -- -- -- --  -- -- -- -- -- -- -- --
0330:                                            32 0F                2.
0340: 80 1F 00 17 80 18 80 19  80 1F 01 6F 00           ...........o.   
```

#### Opcodes

```
  0: 0x033E [0x32] ExtData[1]->MainSpeed = 13* * 0.1
  1: 0x0341 [0x1F] MOVE_ENTITY: EventEntity moves to X=113.440*, Z=884.789*, Y=-44.836*
  2: 0x0349 [0x1F] MOVE_ENTITY: Update entity position (mode=1)
  3: 0x034B [0x6F] WAIT_FRAME_DELAY: Yield until WaitTime reaches zero
  4: 0x034C [0x00] END_REQSTACK()
```

### Event 65535.52

#### Metadata

| Field        | Value    |
|--------------|----------|
| Entrypoint   | 0x034D   |
| Data Size    | 10 bytes |
| Instructions | 2        |

```
      00 01 02 03 04 05 06 07  08 09 0A 0B 0C 0D 0E 0F
      -- -- -- -- -- -- -- --  -- -- -- -- -- -- -- --
0340:                                         37 1A 80               7..
0350: 1B 80 1C 80 1D 80 00                              .......         
```

#### Opcodes

```
  0: 0x034D [0x37] UPDATE_EVENT_POSITION_AND_DIR: x=112.599*, z=886.068*, y=-44.980*, direction=48.9째*
  1: 0x0356 [0x00] END_REQSTACK()
```

### Event 65535.53

#### Metadata

| Field        | Value    |
|--------------|----------|
| Entrypoint   | 0x0357   |
| Data Size    | 15 bytes |
| Instructions | 5        |

```
      00 01 02 03 04 05 06 07  08 09 0A 0B 0C 0D 0E 0F
      -- -- -- -- -- -- -- --  -- -- -- -- -- -- -- --
0350:                      32  0F 80 1F 00 1E 80 1F 80         2........
0360: 20 80 1F 01 6F 00                                  ...o.          
```

#### Opcodes

```
  0: 0x0357 [0x32] ExtData[1]->MainSpeed = 13* * 0.1
  1: 0x035A [0x1F] MOVE_ENTITY: EventEntity moves to X=114.126*, Z=884.983*, Y=-44.795*
  2: 0x0362 [0x1F] MOVE_ENTITY: Update entity position (mode=1)
  3: 0x0364 [0x6F] WAIT_FRAME_DELAY: Yield until WaitTime reaches zero
  4: 0x0365 [0x00] END_REQSTACK()
```

### Event 65535.54

#### Metadata

| Field        | Value    |
|--------------|----------|
| Entrypoint   | 0x0366   |
| Data Size    | 15 bytes |
| Instructions | 5        |

```
      00 01 02 03 04 05 06 07  08 09 0A 0B 0C 0D 0E 0F
      -- -- -- -- -- -- -- --  -- -- -- -- -- -- -- --
0360:                   32 0F  80 1F 00 1A 80 1B 80 1C        2.........
0370: 80 1F 01 6F 00                                    ...o.           
```

#### Opcodes

```
  0: 0x0366 [0x32] ExtData[1]->MainSpeed = 13* * 0.1
  1: 0x0369 [0x1F] MOVE_ENTITY: EventEntity moves to X=112.599*, Z=886.068*, Y=-44.980*
  2: 0x0371 [0x1F] MOVE_ENTITY: Update entity position (mode=1)
  3: 0x0373 [0x6F] WAIT_FRAME_DELAY: Yield until WaitTime reaches zero
  4: 0x0374 [0x00] END_REQSTACK()
```

### Event 65535.55

#### Metadata

| Field        | Value    |
|--------------|----------|
| Entrypoint   | 0x0375   |
| Data Size    | 15 bytes |
| Instructions | 5        |

```
      00 01 02 03 04 05 06 07  08 09 0A 0B 0C 0D 0E 0F
      -- -- -- -- -- -- -- --  -- -- -- -- -- -- -- --
0370:                32 0F 80  1F 00 21 80 22 80 23 80       2....!.".#.
0380: 1F 01 6F 00                                       ..o.            
```

#### Opcodes

```
  0: 0x0375 [0x32] ExtData[1]->MainSpeed = 13* * 0.1
  1: 0x0378 [0x1F] MOVE_ENTITY: EventEntity moves to X=126.082*, Z=873.537*, Y=-44.545*
  2: 0x0380 [0x1F] MOVE_ENTITY: Update entity position (mode=1)
  3: 0x0382 [0x6F] WAIT_FRAME_DELAY: Yield until WaitTime reaches zero
  4: 0x0383 [0x00] END_REQSTACK()
```
