# 16794033 - Makki-Chebukki

## Common Data

| Field            | Value              |
|------------------|--------------------|
| Zone             | Bibiki Bay (ID: 4) |
| Block Size       | 1268 bytes         |
| Total Events     | 40                 |
| References Count | 39                 |

## List of Events

| Event ID                   | Entrypoint   |   Size |   Instructions |
|----------------------------|--------------|--------|----------------|
| [65535](#event-65535)      | 0x0000       |      1 |              1 |
| [65535.1](#event-655351)   | 0x0001       |      1 |              1 |
| [65535.2](#event-655352)   | 0x0002       |     18 |              4 |
| [65535.3](#event-655353)   | 0x0014       |     10 |              2 |
| [65535.4](#event-655354)   | 0x001E       |      9 |              3 |
| [65535.5](#event-655355)   | 0x0027       |      9 |              3 |
| [65535.6](#event-655356)   | 0x0030       |     10 |              2 |
| [65535.7](#event-655357)   | 0x003A       |     10 |              2 |
| [43](#event-43)            | 0x0044       |     27 |              5 |
| [65535.8](#event-655358)   | 0x005F       |     93 |             20 |
| [65535.9](#event-655359)   | 0x00BC       |     11 |              3 |
| [65535.10](#event-6553510) | 0x00C7       |     35 |              9 |
| [65535.11](#event-6553511) | 0x00EA       |     60 |             12 |
| [65535.12](#event-6553512) | 0x0126       |     15 |              5 |
| [65535.13](#event-6553513) | 0x0135       |     27 |              5 |
| [65535.14](#event-6553514) | 0x0150       |     28 |              8 |
| [65535.15](#event-6553515) | 0x016C       |     18 |              4 |
| [65535.16](#event-6553516) | 0x017E       |     23 |              7 |
| [65535.17](#event-6553517) | 0x0195       |     29 |              3 |
| [65535.18](#event-6553518) | 0x01B2       |     29 |              3 |
| [65535.19](#event-6553519) | 0x01CF       |     29 |              3 |
| [65535.20](#event-6553520) | 0x01EC       |     29 |              3 |
| [65535.21](#event-6553521) | 0x0209       |     16 |              2 |
| [65535.22](#event-6553522) | 0x0219       |     16 |              2 |
| [65535.23](#event-6553523) | 0x0229       |     16 |              2 |
| [65535.24](#event-6553524) | 0x0239       |     16 |              2 |
| [65535.25](#event-6553525) | 0x0249       |     19 |              3 |
| [65535.26](#event-6553526) | 0x025C       |     29 |              3 |
| [65535.27](#event-6553527) | 0x0279       |     29 |              3 |
| [65535.28](#event-6553528) | 0x0296       |     29 |              3 |
| [65535.29](#event-6553529) | 0x02B3       |     29 |              3 |
| [65535.30](#event-6553530) | 0x02D0       |     29 |              3 |
| [65535.31](#event-6553531) | 0x02ED       |     29 |              3 |
| [65535.32](#event-6553532) | 0x030A       |     29 |              3 |
| [65535.33](#event-6553533) | 0x0327       |     29 |              3 |
| [65535.34](#event-6553534) | 0x0344       |     29 |              3 |
| [65535.35](#event-6553535) | 0x0361       |      8 |              4 |
| [65535.36](#event-6553536) | 0x0369       |     29 |              3 |
| [65535.37](#event-6553537) | 0x0386       |     16 |              2 |
| [65535.38](#event-6553538) | 0x0396       |     16 |              2 |

## DAT References (imed_data)

|   Index | Hex Value   |   Dec Value |
|---------|-------------|-------------|
|       0 | 0x0000      |           0 |
|       1 | 0x0001      |           1 |
|       2 | 0x0080      |         128 |
|       3 | 0xFFFADC79  |  4294630521 |
|       4 | 0xFFF152D9  |  4294005465 |
|       5 | 0xFFFFF5C4  |  4294964676 |
|       6 | 0x05B9      |        1465 |
|       7 | 0xFFFFF448  |  4294964296 |
|       8 | 0x0BB8      |        3000 |
|       9 | 0x0028      |          40 |
|      10 | 0xFFFAE57B  |  4294632827 |
|      11 | 0xFFF18936  |  4294019382 |
|      12 | 0xFFFFF84F  |  4294965327 |
|      13 | 0xFFFAC7F9  |  4294625273 |
|      14 | 0xFFF19353  |  4294021971 |
|      15 | 0xFFFFF8FF  |  4294965503 |
|      16 | 0x0830      |        2096 |
|      17 | 0x1194      |        4500 |
|      18 | 0x0485      |        1157 |
|      19 | 0x03E8      |        1000 |
|      20 | 0xFFFAB1E5  |  4294619621 |
|      21 | 0xFFF17C2D  |  4294016045 |
|      22 | 0xFFFFF4F7  |  4294964471 |
|      23 | 0xFFFAC8E8  |  4294625512 |
|      24 | 0xFFF16D7B  |  4294012283 |
|      25 | 0xFFFFF5E7  |  4294964711 |
|      26 | 0xFFFFEC78  |  4294962296 |
|      27 | 0x1388      |        5000 |
|      28 | 0x0800      |        2048 |
|      29 | 0xC350      |       50000 |
|      30 | 0x01B9      |         441 |
|      31 | 0x01BB      |         443 |
|      32 | 0x0150      |         336 |
|      33 | 0x0154      |         340 |
|      34 | 0x0078      |         120 |
|      35 | 0x0152      |         338 |
|      36 | 0x02D5      |         725 |
|      37 | 0x01BA      |         442 |
|      38 | 0x0144      |         324 |

## Events

### Event 65535

#### Metadata

| Field        | Value   |
|--------------|---------|
| Entrypoint   | 0x0000  |
| Data Size    | 1 bytes |
| Instructions | 1       |

```
      00 01 02 03 04 05 06 07  08 09 0A 0B 0C 0D 0E 0F
      -- -- -- -- -- -- -- --  -- -- -- -- -- -- -- --
0000: 00                                                .               
```

#### Opcodes

```
  0: 0x0000 [0x00] END_REQSTACK()
```

### Event 65535.1

#### Metadata

| Field        | Value   |
|--------------|---------|
| Entrypoint   | 0x0001  |
| Data Size    | 1 bytes |
| Instructions | 1       |

```
      00 01 02 03 04 05 06 07  08 09 0A 0B 0C 0D 0E 0F
      -- -- -- -- -- -- -- --  -- -- -- -- -- -- -- --
0000:    00                                              .              
```

#### Opcodes

```
  0: 0x0001 [0x00] END_REQSTACK()
```

### Event 65535.2

#### Metadata

| Field        | Value    |
|--------------|----------|
| Entrypoint   | 0x0002   |
| Data Size    | 18 bytes |
| Instructions | 4        |

```
      00 01 02 03 04 05 06 07  08 09 0A 0B 0C 0D 0E 0F
      -- -- -- -- -- -- -- --  -- -- -- -- -- -- -- --
0000:       22 00 2F 00 F8 FF  FF 7F 6C F8 FF FF 7F 00    "./.....l.....
0010: 80 01 80 00                                       ....            
```

#### Opcodes

```
  0: 0x0002 [0x22] ENTITY_HIDE_FLAG(enabled=0x00)
  1: 0x0004 [0x2F] EventEntity->Render.Flags0 &= ~0x80000 // Bit 19
  2: 0x000A [0x6C] FADE_ENTITY_COLOR(entity_id=EventEntity, end_alpha=0*, fade_time=1*)
  3: 0x0013 [0x00] END_REQSTACK()
```

### Event 65535.3

#### Metadata

| Field        | Value    |
|--------------|----------|
| Entrypoint   | 0x0014   |
| Data Size    | 10 bytes |
| Instructions | 2        |

```
      00 01 02 03 04 05 06 07  08 09 0A 0B 0C 0D 0E 0F
      -- -- -- -- -- -- -- --  -- -- -- -- -- -- -- --
0010:             6C F8 FF FF  7F 02 80 01 80 00            l.........  
```

#### Opcodes

```
  0: 0x0014 [0x6C] FADE_ENTITY_COLOR(entity_id=EventEntity, end_alpha=128*, fade_time=1*)
  1: 0x001D [0x00] END_REQSTACK()
```

### Event 65535.4

#### Metadata

| Field        | Value   |
|--------------|---------|
| Entrypoint   | 0x001E  |
| Data Size    | 9 bytes |
| Instructions | 3       |

```
      00 01 02 03 04 05 06 07  08 09 0A 0B 0C 0D 0E 0F
      -- -- -- -- -- -- -- --  -- -- -- -- -- -- -- --
0010:                                            22 00                ".
0020: 2F 00 F8 FF FF 7F 00                              /......         
```

#### Opcodes

```
  0: 0x001E [0x22] ENTITY_HIDE_FLAG(enabled=0x00)
  1: 0x0020 [0x2F] EventEntity->Render.Flags0 &= ~0x80000 // Bit 19
  2: 0x0026 [0x00] END_REQSTACK()
```

### Event 65535.5

#### Metadata

| Field        | Value   |
|--------------|---------|
| Entrypoint   | 0x0027  |
| Data Size    | 9 bytes |
| Instructions | 3       |

```
      00 01 02 03 04 05 06 07  08 09 0A 0B 0C 0D 0E 0F
      -- -- -- -- -- -- -- --  -- -- -- -- -- -- -- --
0020:                      22  01 2F 01 F8 FF FF 7F 00         "./......
```

#### Opcodes

```
  0: 0x0027 [0x22] ENTITY_HIDE_FLAG(enabled=0x01)
  1: 0x0029 [0x2F] EventEntity->Render.Flags0 |= 0x80000 // Bit 19
  2: 0x002F [0x00] END_REQSTACK()
```

### Event 65535.6

#### Metadata

| Field        | Value    |
|--------------|----------|
| Entrypoint   | 0x0030   |
| Data Size    | 10 bytes |
| Instructions | 2        |

```
      00 01 02 03 04 05 06 07  08 09 0A 0B 0C 0D 0E 0F
      -- -- -- -- -- -- -- --  -- -- -- -- -- -- -- --
0030: 6C F8 FF FF 7F 00 80 01  80 00                    l.........      
```

#### Opcodes

```
  0: 0x0030 [0x6C] FADE_ENTITY_COLOR(entity_id=EventEntity, end_alpha=0*, fade_time=1*)
  1: 0x0039 [0x00] END_REQSTACK()
```

### Event 65535.7

#### Metadata

| Field        | Value    |
|--------------|----------|
| Entrypoint   | 0x003A   |
| Data Size    | 10 bytes |
| Instructions | 2        |

```
      00 01 02 03 04 05 06 07  08 09 0A 0B 0C 0D 0E 0F
      -- -- -- -- -- -- -- --  -- -- -- -- -- -- -- --
0030:                                6C F8 FF FF 7F 02            l.....
0040: 80 01 80 00                                       ....            
```

#### Opcodes

```
  0: 0x003A [0x6C] FADE_ENTITY_COLOR(entity_id=EventEntity, end_alpha=128*, fade_time=1*)
  1: 0x0043 [0x00] END_REQSTACK()
```

### Event 43

#### Metadata

| Field        | Value    |
|--------------|----------|
| Entrypoint   | 0x0044   |
| Data Size    | 27 bytes |
| Instructions | 5        |

```
      00 01 02 03 04 05 06 07  08 09 0A 0B 0C 0D 0E 0F
      -- -- -- -- -- -- -- --  -- -- -- -- -- -- -- --
0040:             37 03 80 04  80 05 80 06 80 03 00 00      7...........
0050: 07 80 1A 78 00 37 01 00  02 00 03 00 04 00 00     ...x.7......... 
```

#### Opcodes

```
  0: 0x0044 [0x37] UPDATE_EVENT_POSITION_AND_DIR: x=-336.775*, z=-961.831*, y=-2.620*, direction=128.8°*
  1: 0x004D [0x03] ExtData[1]->WorkLocal[0] = 4294964296*
  2: 0x0052 [0x1A] CALL_SUBROUTINE(address=0x0078)
  3: 0x0055 [0x37] UPDATE_EVENT_POSITION_AND_DIR: x=ExtData[1]->WorkLocal[1], z=ExtData[1]->WorkLocal[2], y=ExtData[1]->WorkLocal[3], direction=ExtData[1]->WorkLocal[4]
  4: 0x005E [0x00] END_REQSTACK()
```

### Event 65535.8

#### Metadata

| Field        | Value    |
|--------------|----------|
| Entrypoint   | 0x005F   |
| Data Size    | 93 bytes |
| Instructions | 15       |

```
      00 01 02 03 04 05 06 07  08 09 0A 0B 0C 0D 0E 0F
      -- -- -- -- -- -- -- --  -- -- -- -- -- -- -- --
0050:                                               A4                 .
0060: 01 03 00 00 08 80 1A 78  00 32 09 80 1F 00 01 00  .......x.2......
0070: 02 00 03 00 1F 01 6F 00  3B F8 FF FF 7F 01 00 02  ......o.;.......
0080: 00 03 00 3A F8 FF FF 7F  04 00 17 05 00 04 00 00  ...:............
0090: 00 16 06 00 04 00 00 00  07 01 00 05 00 07 02 00  ................
00A0: 06 00 1B 17 05 00 04 00  00 00 16 06 00 04 00 00  ................
00B0: 00 07 01 00 05 00 07 02  00 06 00 1B              ............    
```

#### Opcodes

```
  0: 0x005F [0xA4] EventEntity->Flags3.unknown_3_2 = 1
  1: 0x0061 [0x03] ExtData[1]->WorkLocal[0] = 3000*
  2: 0x0066 [0x1A] CALL_SUBROUTINE(address=0x0078)
  3: 0x0069 [0x32] ExtData[1]->MainSpeed = 40* * 0.1
  4: 0x006C [0x1F] MOVE_ENTITY: EventEntity moves to X=ExtData[1]->WorkLocal[1], Z=ExtData[1]->WorkLocal[2], Y=ExtData[1]->WorkLocal[3]
  5: 0x0074 [0x1F] MOVE_ENTITY: Update entity position (mode=1)
  6: 0x0076 [0x6F] WAIT_FRAME_DELAY: Yield until WaitTime reaches zero
  7: 0x0077 [0x00] END_REQSTACK()

SUBROUTINE_0078:
  8: 0x0078 [0x3B] GET_ENTITY_POSITION(entity=EventEntity, x_destination=ExtData[1]->WorkLocal[1], y_destination=ExtData[1]->WorkLocal[2], z_destination=ExtData[1]->WorkLocal[3])
  9: 0x0083 [0x3A] CONVERT_YAW_TO_BYTE(entity=EventEntity, result_destination=ExtData[1]->WorkLocal[4])
 10: 0x008A [0x17] ExtData[1]->WorkLocal[5] = cos(ExtData[1]->WorkLocal[4]) * ExtData[1]->WorkLocal[0]
 11: 0x0091 [0x16] ExtData[1]->WorkLocal[6] = sin(ExtData[1]->WorkLocal[4]) * ExtData[1]->WorkLocal[0]
 12: 0x0098 [0x07] ExtData[1]->WorkLocal[1] += ExtData[1]->WorkLocal[5]
 13: 0x009D [0x07] ExtData[1]->WorkLocal[2] += ExtData[1]->WorkLocal[6]
 14: 0x00A2 [0x1B] RETURN
```

#### Data or dead code:

```
# Dead code (unreachable instructions):
     0x00A3 [0x17] ExtData[1]->WorkLocal[5] = cos(ExtData[1]->WorkLocal[4]) * ExtData[1]->WorkLocal[0]
     0x00AA [0x16] ExtData[1]->WorkLocal[6] = sin(ExtData[1]->WorkLocal[4]) * ExtData[1]->WorkLocal[0]
     0x00B1 [0x07] ExtData[1]->WorkLocal[1] += ExtData[1]->WorkLocal[5]
     0x00B6 [0x07] ExtData[1]->WorkLocal[2] += ExtData[1]->WorkLocal[6]
     0x00BB [0x1B] RETURN
```

### Event 65535.9

#### Metadata

| Field        | Value    |
|--------------|----------|
| Entrypoint   | 0x00BC   |
| Data Size    | 11 bytes |
| Instructions | 3        |

```
      00 01 02 03 04 05 06 07  08 09 0A 0B 0C 0D 0E 0F
      -- -- -- -- -- -- -- --  -- -- -- -- -- -- -- --
00B0:                                      1F 00 0A 80              ....
00C0: 0B 80 0C 80 1F 01 00                              .......         
```

#### Opcodes

```
  0: 0x00BC [0x1F] MOVE_ENTITY: EventEntity moves to X=-334.469*, Z=-947.914*, Y=-1.969*
  1: 0x00C4 [0x1F] MOVE_ENTITY: Update entity position (mode=1)
  2: 0x00C6 [0x00] END_REQSTACK()
```

### Event 65535.10

#### Metadata

| Field        | Value    |
|--------------|----------|
| Entrypoint   | 0x00C7   |
| Data Size    | 35 bytes |
| Instructions | 9        |

```
      00 01 02 03 04 05 06 07  08 09 0A 0B 0C 0D 0E 0F
      -- -- -- -- -- -- -- --  -- -- -- -- -- -- -- --
00C0:                      37  0D 80 0E 80 0F 80 10 80         7........
00D0: 03 00 00 11 80 1A 78 00  32 09 80 1F 00 01 00 02  ......x.2.......
00E0: 00 03 00 1F 01 6F 39 12  80 00                    .....o9...      
```

#### Opcodes

```
  0: 0x00C7 [0x37] UPDATE_EVENT_POSITION_AND_DIR: x=-342.023*, z=-945.325*, y=-1.793*, direction=184.2°*
  1: 0x00D0 [0x03] ExtData[1]->WorkLocal[0] = 4500*
  2: 0x00D5 [0x1A] CALL_SUBROUTINE(address=0x0078)
  3: 0x00D8 [0x32] ExtData[1]->MainSpeed = 40* * 0.1
  4: 0x00DB [0x1F] MOVE_ENTITY: EventEntity moves to X=ExtData[1]->WorkLocal[1], Z=ExtData[1]->WorkLocal[2], Y=ExtData[1]->WorkLocal[3]
  5: 0x00E3 [0x1F] MOVE_ENTITY: Update entity position (mode=1)
  6: 0x00E5 [0x6F] WAIT_FRAME_DELAY: Yield until WaitTime reaches zero
  7: 0x00E6 [0x39] SET_ENTITY_DIRECTION(direction=6.4°*)
  8: 0x00E9 [0x00] END_REQSTACK()
```

### Event 65535.11

#### Metadata

| Field        | Value    |
|--------------|----------|
| Entrypoint   | 0x00EA   |
| Data Size    | 60 bytes |
| Instructions | 12       |

```
      00 01 02 03 04 05 06 07  08 09 0A 0B 0C 0D 0E 0F
      -- -- -- -- -- -- -- --  -- -- -- -- -- -- -- --
00E0:                                03 00 00 13 80 3B            .....;
00F0: F8 FF FF 7F 01 00 02 00  03 00 03 04 00 12 80 17  ................
0100: 05 00 04 00 00 00 16 06  00 04 00 00 00 07 01 00  ................
0110: 05 00 07 02 00 06 00 32  09 80 1F 00 01 00 02 00  .......2........
0120: 03 00 1F 01 6F 00                                 ....o.          
```

#### Opcodes

```
  0: 0x00EA [0x03] ExtData[1]->WorkLocal[0] = 1000*
  1: 0x00EF [0x3B] GET_ENTITY_POSITION(entity=EventEntity, x_destination=ExtData[1]->WorkLocal[1], y_destination=ExtData[1]->WorkLocal[2], z_destination=ExtData[1]->WorkLocal[3])
  2: 0x00FA [0x03] ExtData[1]->WorkLocal[4] = 1157*
  3: 0x00FF [0x17] ExtData[1]->WorkLocal[5] = cos(ExtData[1]->WorkLocal[4]) * ExtData[1]->WorkLocal[0]
  4: 0x0106 [0x16] ExtData[1]->WorkLocal[6] = sin(ExtData[1]->WorkLocal[4]) * ExtData[1]->WorkLocal[0]
  5: 0x010D [0x07] ExtData[1]->WorkLocal[1] += ExtData[1]->WorkLocal[5]
  6: 0x0112 [0x07] ExtData[1]->WorkLocal[2] += ExtData[1]->WorkLocal[6]
  7: 0x0117 [0x32] ExtData[1]->MainSpeed = 40* * 0.1
  8: 0x011A [0x1F] MOVE_ENTITY: EventEntity moves to X=ExtData[1]->WorkLocal[1], Z=ExtData[1]->WorkLocal[2], Y=ExtData[1]->WorkLocal[3]
  9: 0x0122 [0x1F] MOVE_ENTITY: Update entity position (mode=1)
 10: 0x0124 [0x6F] WAIT_FRAME_DELAY: Yield until WaitTime reaches zero
 11: 0x0125 [0x00] END_REQSTACK()
```

### Event 65535.12

#### Metadata

| Field        | Value    |
|--------------|----------|
| Entrypoint   | 0x0126   |
| Data Size    | 15 bytes |
| Instructions | 5        |

```
      00 01 02 03 04 05 06 07  08 09 0A 0B 0C 0D 0E 0F
      -- -- -- -- -- -- -- --  -- -- -- -- -- -- -- --
0120:                   32 09  80 1F 00 14 80 15 80 16        2.........
0130: 80 1F 01 6F 00                                    ...o.           
```

#### Opcodes

```
  0: 0x0126 [0x32] ExtData[1]->MainSpeed = 40* * 0.1
  1: 0x0129 [0x1F] MOVE_ENTITY: EventEntity moves to X=-347.675*, Z=-951.251*, Y=-2.825*
  2: 0x0131 [0x1F] MOVE_ENTITY: Update entity position (mode=1)
  3: 0x0133 [0x6F] WAIT_FRAME_DELAY: Yield until WaitTime reaches zero
  4: 0x0134 [0x00] END_REQSTACK()
```

### Event 65535.13

#### Metadata

| Field        | Value    |
|--------------|----------|
| Entrypoint   | 0x0135   |
| Data Size    | 27 bytes |
| Instructions | 5        |

```
      00 01 02 03 04 05 06 07  08 09 0A 0B 0C 0D 0E 0F
      -- -- -- -- -- -- -- --  -- -- -- -- -- -- -- --
0130:                37 17 80  18 80 19 80 00 80 03 00       7..........
0140: 00 1A 80 1A 78 00 37 01  00 02 00 03 00 04 00 00  ....x.7.........
```

#### Opcodes

```
  0: 0x0135 [0x37] UPDATE_EVENT_POSITION_AND_DIR: x=-341.784*, z=-955.013*, y=-2.585*, direction=0.0°*
  1: 0x013E [0x03] ExtData[1]->WorkLocal[0] = 4294962296*
  2: 0x0143 [0x1A] CALL_SUBROUTINE(address=0x0078)
  3: 0x0146 [0x37] UPDATE_EVENT_POSITION_AND_DIR: x=ExtData[1]->WorkLocal[1], z=ExtData[1]->WorkLocal[2], y=ExtData[1]->WorkLocal[3], direction=ExtData[1]->WorkLocal[4]
  4: 0x014F [0x00] END_REQSTACK()
```

### Event 65535.14

#### Metadata

| Field        | Value    |
|--------------|----------|
| Entrypoint   | 0x0150   |
| Data Size    | 28 bytes |
| Instructions | 8        |

```
      00 01 02 03 04 05 06 07  08 09 0A 0B 0C 0D 0E 0F
      -- -- -- -- -- -- -- --  -- -- -- -- -- -- -- --
0150: 03 00 00 1B 80 1A 78 00  32 09 80 1F 00 01 00 02  ......x.2.......
0160: 00 03 00 1F 01 6F 1E F0  FF FF 7F 00              .....o......    
```

#### Opcodes

```
  0: 0x0150 [0x03] ExtData[1]->WorkLocal[0] = 5000*
  1: 0x0155 [0x1A] CALL_SUBROUTINE(address=0x0078)
  2: 0x0158 [0x32] ExtData[1]->MainSpeed = 40* * 0.1
  3: 0x015B [0x1F] MOVE_ENTITY: EventEntity moves to X=ExtData[1]->WorkLocal[1], Z=ExtData[1]->WorkLocal[2], Y=ExtData[1]->WorkLocal[3]
  4: 0x0163 [0x1F] MOVE_ENTITY: Update entity position (mode=1)
  5: 0x0165 [0x6F] WAIT_FRAME_DELAY: Yield until WaitTime reaches zero
  6: 0x0166 [0x1E] EventEntity looks at LocalPlayer and starts talking
  7: 0x016B [0x00] END_REQSTACK()
```

### Event 65535.15

#### Metadata

| Field        | Value    |
|--------------|----------|
| Entrypoint   | 0x016C   |
| Data Size    | 18 bytes |
| Instructions | 4        |

```
      00 01 02 03 04 05 06 07  08 09 0A 0B 0C 0D 0E 0F
      -- -- -- -- -- -- -- --  -- -- -- -- -- -- -- --
0160:                                      03 00 00 00              ....
0170: 80 1A 78 00 37 01 00 02  00 03 00 1C 80 00        ..x.7.........  
```

#### Opcodes

```
  0: 0x016C [0x03] ExtData[1]->WorkLocal[0] = 0*
  1: 0x0171 [0x1A] CALL_SUBROUTINE(address=0x0078)
  2: 0x0174 [0x37] UPDATE_EVENT_POSITION_AND_DIR: x=ExtData[1]->WorkLocal[1], z=ExtData[1]->WorkLocal[2], y=ExtData[1]->WorkLocal[3], direction=180.0°*
  3: 0x017D [0x00] END_REQSTACK()
```

### Event 65535.16

#### Metadata

| Field        | Value    |
|--------------|----------|
| Entrypoint   | 0x017E   |
| Data Size    | 23 bytes |
| Instructions | 7        |

```
      00 01 02 03 04 05 06 07  08 09 0A 0B 0C 0D 0E 0F
      -- -- -- -- -- -- -- --  -- -- -- -- -- -- -- --
0170:                                            03 00                ..
0180: 00 1D 80 1A 78 00 32 09  80 1F 00 01 00 02 00 03  ....x.2.........
0190: 00 1F 01 6F 00                                    ...o.           
```

#### Opcodes

```
  0: 0x017E [0x03] ExtData[1]->WorkLocal[0] = 50000*
  1: 0x0183 [0x1A] CALL_SUBROUTINE(address=0x0078)
  2: 0x0186 [0x32] ExtData[1]->MainSpeed = 40* * 0.1
  3: 0x0189 [0x1F] MOVE_ENTITY: EventEntity moves to X=ExtData[1]->WorkLocal[1], Z=ExtData[1]->WorkLocal[2], Y=ExtData[1]->WorkLocal[3]
  4: 0x0191 [0x1F] MOVE_ENTITY: Update entity position (mode=1)
  5: 0x0193 [0x6F] WAIT_FRAME_DELAY: Yield until WaitTime reaches zero
  6: 0x0194 [0x00] END_REQSTACK()
```

### Event 65535.17

#### Metadata

| Field        | Value    |
|--------------|----------|
| Entrypoint   | 0x0195   |
| Data Size    | 29 bytes |
| Instructions | 3        |

```
      00 01 02 03 04 05 06 07  08 09 0A 0B 0C 0D 0E 0F
      -- -- -- -- -- -- -- --  -- -- -- -- -- -- -- --
0190:                5B 1E 80  F8 FF FF 7F F8 FF FF 7F       [..........
01A0: 64 66 6D 30 53 F8 FF FF  7F F8 FF FF 7F 64 66 6D  dfm0S........dfm
01B0: 30 00                                             0.              
```

#### Opcodes

```
  0: 0x0195 [0x5B] LOAD_EXT_SCHEDULER: Load scheduler "dfm0" with entities [EventEntity, EventEntity], work=441*
  1: 0x01A4 [0x53] WAIT_SCHEDULER_TASK: Wait for scheduler "dfm0" with entities [EventEntity, EventEntity]
  2: 0x01B1 [0x00] END_REQSTACK()
```

### Event 65535.18

#### Metadata

| Field        | Value    |
|--------------|----------|
| Entrypoint   | 0x01B2   |
| Data Size    | 29 bytes |
| Instructions | 3        |

```
      00 01 02 03 04 05 06 07  08 09 0A 0B 0C 0D 0E 0F
      -- -- -- -- -- -- -- --  -- -- -- -- -- -- -- --
01B0:       5B 1E 80 F8 FF FF  7F F8 FF FF 7F 64 66 6D    [..........dfm
01C0: 31 53 F8 FF FF 7F F8 FF  FF 7F 64 66 6D 31 00     1S........dfm1. 
```

#### Opcodes

```
  0: 0x01B2 [0x5B] LOAD_EXT_SCHEDULER: Load scheduler "dfm1" with entities [EventEntity, EventEntity], work=441*
  1: 0x01C1 [0x53] WAIT_SCHEDULER_TASK: Wait for scheduler "dfm1" with entities [EventEntity, EventEntity]
  2: 0x01CE [0x00] END_REQSTACK()
```

### Event 65535.19

#### Metadata

| Field        | Value    |
|--------------|----------|
| Entrypoint   | 0x01CF   |
| Data Size    | 29 bytes |
| Instructions | 3        |

```
      00 01 02 03 04 05 06 07  08 09 0A 0B 0C 0D 0E 0F
      -- -- -- -- -- -- -- --  -- -- -- -- -- -- -- --
01C0:                                               5B                 [
01D0: 1F 80 F8 FF FF 7F F8 FF  FF 7F 6C 73 61 30 53 F8  ..........lsa0S.
01E0: FF FF 7F F8 FF FF 7F 6C  73 61 30 00              .......lsa0.    
```

#### Opcodes

```
  0: 0x01CF [0x5B] LOAD_EXT_SCHEDULER: Load scheduler "lsa0" with entities [EventEntity, EventEntity], work=443*
  1: 0x01DE [0x53] WAIT_SCHEDULER_TASK: Wait for scheduler "lsa0" with entities [EventEntity, EventEntity]
  2: 0x01EB [0x00] END_REQSTACK()
```

### Event 65535.20

#### Metadata

| Field        | Value    |
|--------------|----------|
| Entrypoint   | 0x01EC   |
| Data Size    | 29 bytes |
| Instructions | 3        |

```
      00 01 02 03 04 05 06 07  08 09 0A 0B 0C 0D 0E 0F
      -- -- -- -- -- -- -- --  -- -- -- -- -- -- -- --
01E0:                                      5B 1F 80 F8              [...
01F0: FF FF 7F F8 FF FF 7F 6C  73 61 31 53 F8 FF FF 7F  .......lsa1S....
0200: F8 FF FF 7F 6C 73 61 31  00                       ....lsa1.       
```

#### Opcodes

```
  0: 0x01EC [0x5B] LOAD_EXT_SCHEDULER: Load scheduler "lsa1" with entities [EventEntity, EventEntity], work=443*
  1: 0x01FB [0x53] WAIT_SCHEDULER_TASK: Wait for scheduler "lsa1" with entities [EventEntity, EventEntity]
  2: 0x0208 [0x00] END_REQSTACK()
```

### Event 65535.21

#### Metadata

| Field        | Value    |
|--------------|----------|
| Entrypoint   | 0x0209   |
| Data Size    | 16 bytes |
| Instructions | 2        |

```
      00 01 02 03 04 05 06 07  08 09 0A 0B 0C 0D 0E 0F
      -- -- -- -- -- -- -- --  -- -- -- -- -- -- -- --
0200:                             5B 20 80 F8 FF FF 7F           [ .....
0210: F8 FF FF 7F 77 61 69 30  00                       ....wai0.       
```

#### Opcodes

```
  0: 0x0209 [0x5B] LOAD_EXT_SCHEDULER: Load scheduler "wai0" with entities [EventEntity, EventEntity], work=336*
  1: 0x0218 [0x00] END_REQSTACK()
```

### Event 65535.22

#### Metadata

| Field        | Value    |
|--------------|----------|
| Entrypoint   | 0x0219   |
| Data Size    | 16 bytes |
| Instructions | 2        |

```
      00 01 02 03 04 05 06 07  08 09 0A 0B 0C 0D 0E 0F
      -- -- -- -- -- -- -- --  -- -- -- -- -- -- -- --
0210:                             5B 20 80 F8 FF FF 7F           [ .....
0220: F8 FF FF 7F 74 6C 6B 30  00                       ....tlk0.       
```

#### Opcodes

```
  0: 0x0219 [0x5B] LOAD_EXT_SCHEDULER: Load scheduler "tlk0" with entities [EventEntity, EventEntity], work=336*
  1: 0x0228 [0x00] END_REQSTACK()
```

### Event 65535.23

#### Metadata

| Field        | Value    |
|--------------|----------|
| Entrypoint   | 0x0229   |
| Data Size    | 16 bytes |
| Instructions | 2        |

```
      00 01 02 03 04 05 06 07  08 09 0A 0B 0C 0D 0E 0F
      -- -- -- -- -- -- -- --  -- -- -- -- -- -- -- --
0220:                             5B 20 80 F8 FF FF 7F           [ .....
0230: F8 FF FF 7F 74 6C 6B 31  00                       ....tlk1.       
```

#### Opcodes

```
  0: 0x0229 [0x5B] LOAD_EXT_SCHEDULER: Load scheduler "tlk1" with entities [EventEntity, EventEntity], work=336*
  1: 0x0238 [0x00] END_REQSTACK()
```

### Event 65535.24

#### Metadata

| Field        | Value    |
|--------------|----------|
| Entrypoint   | 0x0239   |
| Data Size    | 16 bytes |
| Instructions | 2        |

```
      00 01 02 03 04 05 06 07  08 09 0A 0B 0C 0D 0E 0F
      -- -- -- -- -- -- -- --  -- -- -- -- -- -- -- --
0230:                             5B 21 80 F8 FF FF 7F           [!.....
0240: F8 FF FF 7F 62 69 6B 30  00                       ....bik0.       
```

#### Opcodes

```
  0: 0x0239 [0x5B] LOAD_EXT_SCHEDULER: Load scheduler "bik0" with entities [EventEntity, EventEntity], work=340*
  1: 0x0248 [0x00] END_REQSTACK()
```

### Event 65535.25

#### Metadata

| Field        | Value    |
|--------------|----------|
| Entrypoint   | 0x0249   |
| Data Size    | 19 bytes |
| Instructions | 3        |

```
      00 01 02 03 04 05 06 07  08 09 0A 0B 0C 0D 0E 0F
      -- -- -- -- -- -- -- --  -- -- -- -- -- -- -- --
0240:                             5B 21 80 F8 FF FF 7F           [!.....
0250: F8 FF FF 7F 6D 73 75 30  1C 22 80 00              ....msu0."..    
```

#### Opcodes

```
  0: 0x0249 [0x5B] LOAD_EXT_SCHEDULER: Load scheduler "msu0" with entities [EventEntity, EventEntity], work=340*
  1: 0x0258 [0x1C] WAIT(120* ticks)
  2: 0x025B [0x00] END_REQSTACK()
```

### Event 65535.26

#### Metadata

| Field        | Value    |
|--------------|----------|
| Entrypoint   | 0x025C   |
| Data Size    | 29 bytes |
| Instructions | 3        |

```
      00 01 02 03 04 05 06 07  08 09 0A 0B 0C 0D 0E 0F
      -- -- -- -- -- -- -- --  -- -- -- -- -- -- -- --
0250:                                      5B 23 80 F8              [#..
0260: FF FF 7F F8 FF FF 7F 67  68 6E 31 53 F8 FF FF 7F  .......ghn1S....
0270: F8 FF FF 7F 67 68 6E 31  00                       ....ghn1.       
```

#### Opcodes

```
  0: 0x025C [0x5B] LOAD_EXT_SCHEDULER: Load scheduler "ghn1" with entities [EventEntity, EventEntity], work=338*
  1: 0x026B [0x53] WAIT_SCHEDULER_TASK: Wait for scheduler "ghn1" with entities [EventEntity, EventEntity]
  2: 0x0278 [0x00] END_REQSTACK()
```

### Event 65535.27

#### Metadata

| Field        | Value    |
|--------------|----------|
| Entrypoint   | 0x0279   |
| Data Size    | 29 bytes |
| Instructions | 3        |

```
      00 01 02 03 04 05 06 07  08 09 0A 0B 0C 0D 0E 0F
      -- -- -- -- -- -- -- --  -- -- -- -- -- -- -- --
0270:                             5B 20 80 F8 FF FF 7F           [ .....
0280: F8 FF FF 7F 70 6F 69 30  53 F8 FF FF 7F F8 FF FF  ....poi0S.......
0290: 7F 70 6F 69 30 00                                 .poi0.          
```

#### Opcodes

```
  0: 0x0279 [0x5B] LOAD_EXT_SCHEDULER: Load scheduler "poi0" with entities [EventEntity, EventEntity], work=336*
  1: 0x0288 [0x53] WAIT_SCHEDULER_TASK: Wait for scheduler "poi0" with entities [EventEntity, EventEntity]
  2: 0x0295 [0x00] END_REQSTACK()
```

### Event 65535.28

#### Metadata

| Field        | Value    |
|--------------|----------|
| Entrypoint   | 0x0296   |
| Data Size    | 29 bytes |
| Instructions | 3        |

```
      00 01 02 03 04 05 06 07  08 09 0A 0B 0C 0D 0E 0F
      -- -- -- -- -- -- -- --  -- -- -- -- -- -- -- --
0290:                   5B 24  80 F8 FF FF 7F F8 FF FF        [$........
02A0: 7F 6C 61 75 33 53 F8 FF  FF 7F F8 FF FF 7F 6C 61  .lau3S........la
02B0: 75 33 00                                          u3.             
```

#### Opcodes

```
  0: 0x0296 [0x5B] LOAD_EXT_SCHEDULER: Load scheduler "lau3" with entities [EventEntity, EventEntity], work=725*
  1: 0x02A5 [0x53] WAIT_SCHEDULER_TASK: Wait for scheduler "lau3" with entities [EventEntity, EventEntity]
  2: 0x02B2 [0x00] END_REQSTACK()
```

### Event 65535.29

#### Metadata

| Field        | Value    |
|--------------|----------|
| Entrypoint   | 0x02B3   |
| Data Size    | 29 bytes |
| Instructions | 3        |

```
      00 01 02 03 04 05 06 07  08 09 0A 0B 0C 0D 0E 0F
      -- -- -- -- -- -- -- --  -- -- -- -- -- -- -- --
02B0:          5B 24 80 F8 FF  FF 7F F8 FF FF 7F 6C 61     [$.........la
02C0: 75 73 53 F8 FF FF 7F F8  FF FF 7F 6C 61 75 73 00  usS........laus.
```

#### Opcodes

```
  0: 0x02B3 [0x5B] LOAD_EXT_SCHEDULER: Load scheduler "laus" with entities [EventEntity, EventEntity], work=725*
  1: 0x02C2 [0x53] WAIT_SCHEDULER_TASK: Wait for scheduler "laus" with entities [EventEntity, EventEntity]
  2: 0x02CF [0x00] END_REQSTACK()
```

### Event 65535.30

#### Metadata

| Field        | Value    |
|--------------|----------|
| Entrypoint   | 0x02D0   |
| Data Size    | 29 bytes |
| Instructions | 3        |

```
      00 01 02 03 04 05 06 07  08 09 0A 0B 0C 0D 0E 0F
      -- -- -- -- -- -- -- --  -- -- -- -- -- -- -- --
02D0: 5B 20 80 F8 FF FF 7F F8  FF FF 7F 69 72 6F 30 53  [ .........iro0S
02E0: F8 FF FF 7F F8 FF FF 7F  69 72 6F 30 00           ........iro0.   
```

#### Opcodes

```
  0: 0x02D0 [0x5B] LOAD_EXT_SCHEDULER: Load scheduler "iro0" with entities [EventEntity, EventEntity], work=336*
  1: 0x02DF [0x53] WAIT_SCHEDULER_TASK: Wait for scheduler "iro0" with entities [EventEntity, EventEntity]
  2: 0x02EC [0x00] END_REQSTACK()
```

### Event 65535.31

#### Metadata

| Field        | Value    |
|--------------|----------|
| Entrypoint   | 0x02ED   |
| Data Size    | 29 bytes |
| Instructions | 3        |

```
      00 01 02 03 04 05 06 07  08 09 0A 0B 0C 0D 0E 0F
      -- -- -- -- -- -- -- --  -- -- -- -- -- -- -- --
02E0:                                         5B 20 80               [ .
02F0: F8 FF FF 7F F8 FF FF 7F  73 79 75 30 53 F8 FF FF  ........syu0S...
0300: 7F F8 FF FF 7F 73 79 75  30 00                    .....syu0.      
```

#### Opcodes

```
  0: 0x02ED [0x5B] LOAD_EXT_SCHEDULER: Load scheduler "syu0" with entities [EventEntity, EventEntity], work=336*
  1: 0x02FC [0x53] WAIT_SCHEDULER_TASK: Wait for scheduler "syu0" with entities [EventEntity, EventEntity]
  2: 0x0309 [0x00] END_REQSTACK()
```

### Event 65535.32

#### Metadata

| Field        | Value    |
|--------------|----------|
| Entrypoint   | 0x030A   |
| Data Size    | 29 bytes |
| Instructions | 3        |

```
      00 01 02 03 04 05 06 07  08 09 0A 0B 0C 0D 0E 0F
      -- -- -- -- -- -- -- --  -- -- -- -- -- -- -- --
0300:                                5B 23 80 F8 FF FF            [#....
0310: 7F F8 FF FF 7F 65 68 6E  30 53 F8 FF FF 7F F8 FF  .....ehn0S......
0320: FF 7F 65 68 6E 30 00                              ..ehn0.         
```

#### Opcodes

```
  0: 0x030A [0x5B] LOAD_EXT_SCHEDULER: Load scheduler "ehn0" with entities [EventEntity, EventEntity], work=338*
  1: 0x0319 [0x53] WAIT_SCHEDULER_TASK: Wait for scheduler "ehn0" with entities [EventEntity, EventEntity]
  2: 0x0326 [0x00] END_REQSTACK()
```

### Event 65535.33

#### Metadata

| Field        | Value    |
|--------------|----------|
| Entrypoint   | 0x0327   |
| Data Size    | 29 bytes |
| Instructions | 3        |

```
      00 01 02 03 04 05 06 07  08 09 0A 0B 0C 0D 0E 0F
      -- -- -- -- -- -- -- --  -- -- -- -- -- -- -- --
0320:                      5B  23 80 F8 FF FF 7F F8 FF         [#.......
0330: FF 7F 65 68 6E 31 53 F8  FF FF 7F F8 FF FF 7F 65  ..ehn1S........e
0340: 68 6E 31 00                                       hn1.            
```

#### Opcodes

```
  0: 0x0327 [0x5B] LOAD_EXT_SCHEDULER: Load scheduler "ehn1" with entities [EventEntity, EventEntity], work=338*
  1: 0x0336 [0x53] WAIT_SCHEDULER_TASK: Wait for scheduler "ehn1" with entities [EventEntity, EventEntity]
  2: 0x0343 [0x00] END_REQSTACK()
```

### Event 65535.34

#### Metadata

| Field        | Value    |
|--------------|----------|
| Entrypoint   | 0x0344   |
| Data Size    | 29 bytes |
| Instructions | 3        |

```
      00 01 02 03 04 05 06 07  08 09 0A 0B 0C 0D 0E 0F
      -- -- -- -- -- -- -- --  -- -- -- -- -- -- -- --
0340:             5B 20 80 F8  FF FF 7F F8 FF FF 7F 6A      [ .........j
0350: 6D 70 30 53 F8 FF FF 7F  F8 FF FF 7F 6A 6D 70 30  mp0S........jmp0
0360: 00                                                .               
```

#### Opcodes

```
  0: 0x0344 [0x5B] LOAD_EXT_SCHEDULER: Load scheduler "jmp0" with entities [EventEntity, EventEntity], work=336*
  1: 0x0353 [0x53] WAIT_SCHEDULER_TASK: Wait for scheduler "jmp0" with entities [EventEntity, EventEntity]
  2: 0x0360 [0x00] END_REQSTACK()
```

### Event 65535.35

#### Metadata

| Field        | Value   |
|--------------|---------|
| Entrypoint   | 0x0361  |
| Data Size    | 8 bytes |
| Instructions | 4       |

```
      00 01 02 03 04 05 06 07  08 09 0A 0B 0C 0D 0E 0F
      -- -- -- -- -- -- -- --  -- -- -- -- -- -- -- --
0360:    1E 92 41 00 01 6F 70  00                        ..A..op.       
```

#### Opcodes

```
  0: 0x0361 [0x1E] EventEntity looks at Vukki-Chebukki (ID: 16794002/0x01004192) and starts talking
  1: 0x0366 [0x6F] WAIT_FRAME_DELAY: Yield until WaitTime reaches zero
  2: 0x0367 [0x70] WAIT_ENTITY_RENDER_FLAG: Wait while EventEntity->Render.Flags3 bit 2 is set (cancel turn if not)
  3: 0x0368 [0x00] END_REQSTACK()
```

### Event 65535.36

#### Metadata

| Field        | Value    |
|--------------|----------|
| Entrypoint   | 0x0369   |
| Data Size    | 29 bytes |
| Instructions | 3        |

```
      00 01 02 03 04 05 06 07  08 09 0A 0B 0C 0D 0E 0F
      -- -- -- -- -- -- -- --  -- -- -- -- -- -- -- --
0360:                             5B 25 80 F8 FF FF 7F           [%.....
0370: F8 FF FF 7F 63 72 79 30  53 F8 FF FF 7F F8 FF FF  ....cry0S.......
0380: 7F 63 72 79 30 00                                 .cry0.          
```

#### Opcodes

```
  0: 0x0369 [0x5B] LOAD_EXT_SCHEDULER: Load scheduler "cry0" with entities [EventEntity, EventEntity], work=442*
  1: 0x0378 [0x53] WAIT_SCHEDULER_TASK: Wait for scheduler "cry0" with entities [EventEntity, EventEntity]
  2: 0x0385 [0x00] END_REQSTACK()
```

### Event 65535.37

#### Metadata

| Field        | Value    |
|--------------|----------|
| Entrypoint   | 0x0386   |
| Data Size    | 16 bytes |
| Instructions | 2        |

```
      00 01 02 03 04 05 06 07  08 09 0A 0B 0C 0D 0E 0F
      -- -- -- -- -- -- -- --  -- -- -- -- -- -- -- --
0380:                   5B 26  80 F8 FF FF 7F F8 FF FF        [&........
0390: 7F 77 61 76 30 00                                 .wav0.          
```

#### Opcodes

```
  0: 0x0386 [0x5B] LOAD_EXT_SCHEDULER: Load scheduler "wav0" with entities [EventEntity, EventEntity], work=324*
  1: 0x0395 [0x00] END_REQSTACK()
```

### Event 65535.38

#### Metadata

| Field        | Value    |
|--------------|----------|
| Entrypoint   | 0x0396   |
| Data Size    | 16 bytes |
| Instructions | 2        |

```
      00 01 02 03 04 05 06 07  08 09 0A 0B 0C 0D 0E 0F
      -- -- -- -- -- -- -- --  -- -- -- -- -- -- -- --
0390:                   5B 23  80 F8 FF FF 7F F8 FF FF        [#........
03A0: 7F 73 68 6B 30 00                                 .shk0.          
```

#### Opcodes

```
  0: 0x0396 [0x5B] LOAD_EXT_SCHEDULER: Load scheduler "shk0" with entities [EventEntity, EventEntity], work=338*
  1: 0x03A5 [0x00] END_REQSTACK()
```
