# 16794034 - Kukki-Chebukki

## Common Data

| Field            | Value              |
|------------------|--------------------|
| Zone             | Bibiki Bay (ID: 4) |
| Block Size       | 1096 bytes         |
| Total Events     | 34                 |
| References Count | 43                 |

## List of Events

| Event ID                   | Entrypoint   |   Size |   Instructions |
|----------------------------|--------------|--------|----------------|
| [65535](#event-65535)      | 0x0000       |      1 |              1 |
| [65535.1](#event-655351)   | 0x0001       |      1 |              1 |
| [65535.2](#event-655352)   | 0x0002       |     18 |              4 |
| [65535.3](#event-655353)   | 0x0014       |     10 |              2 |
| [65535.4](#event-655354)   | 0x001E       |      9 |              3 |
| [65535.5](#event-655355)   | 0x0027       |      9 |              3 |
| [65535.6](#event-655356)   | 0x0030       |     10 |              2 |
| [65535.7](#event-655357)   | 0x003A       |     10 |              2 |
| [43](#event-43)            | 0x0044       |     27 |              5 |
| [65535.8](#event-655358)   | 0x005F       |     93 |             20 |
| [65535.9](#event-655359)   | 0x00BC       |     11 |              3 |
| [65535.10](#event-6553510) | 0x00C7       |     35 |              9 |
| [65535.11](#event-6553511) | 0x00EA       |     20 |              6 |
| [65535.12](#event-6553512) | 0x00FE       |     61 |              9 |
| [65535.13](#event-6553513) | 0x013B       |     27 |              5 |
| [65535.14](#event-6553514) | 0x0156       |     28 |              8 |
| [65535.15](#event-6553515) | 0x0172       |     18 |              4 |
| [65535.16](#event-6553516) | 0x0184       |     23 |              7 |
| [65535.17](#event-6553517) | 0x019B       |     29 |              3 |
| [65535.18](#event-6553518) | 0x01B8       |     29 |              3 |
| [65535.19](#event-6553519) | 0x01D5       |     16 |              2 |
| [65535.20](#event-6553520) | 0x01E5       |     16 |              2 |
| [65535.21](#event-6553521) | 0x01F5       |     16 |              2 |
| [65535.22](#event-6553522) | 0x0205       |     16 |              2 |
| [65535.23](#event-6553523) | 0x0215       |     16 |              2 |
| [65535.24](#event-6553524) | 0x0225       |     29 |              3 |
| [65535.25](#event-6553525) | 0x0242       |     29 |              3 |
| [65535.26](#event-6553526) | 0x025F       |     29 |              3 |
| [65535.27](#event-6553527) | 0x027C       |     29 |              3 |
| [65535.28](#event-6553528) | 0x0299       |     29 |              3 |
| [65535.29](#event-6553529) | 0x02B6       |     29 |              3 |
| [65535.30](#event-6553530) | 0x02D3       |     16 |              2 |
| [65535.31](#event-6553531) | 0x02E3       |     16 |              2 |
| [65535.32](#event-6553532) | 0x02F3       |     16 |              2 |

## DAT References (imed_data)

|   Index | Hex Value   |   Dec Value |
|---------|-------------|-------------|
|       0 | 0x0000      |           0 |
|       1 | 0x0001      |           1 |
|       2 | 0x0080      |         128 |
|       3 | 0xFFFADE65  |  4294631013 |
|       4 | 0xFFF15355  |  4294005589 |
|       5 | 0xFFFFF5AF  |  4294964655 |
|       6 | 0x05B9      |        1465 |
|       7 | 0xFFFFF448  |  4294964296 |
|       8 | 0x0BB8      |        3000 |
|       9 | 0x0028      |          40 |
|      10 | 0xFFFAEC92  |  4294634642 |
|      11 | 0xFFF18C9B  |  4294020251 |
|      12 | 0xFFFFF8BB  |  4294965435 |
|      13 | 0xFFFAC7F9  |  4294625273 |
|      14 | 0xFFF19353  |  4294021971 |
|      15 | 0xFFFFF8FF  |  4294965503 |
|      16 | 0x0830      |        2096 |
|      17 | 0x0E74      |        3700 |
|      18 | 0x03BD      |         957 |
|      19 | 0xFFFAB5CA  |  4294620618 |
|      20 | 0xFFF17FE9  |  4294017001 |
|      21 | 0xFFFFF5AC  |  4294964652 |
|      22 | 0xFFFAB379  |  4294620025 |
|      23 | 0xFFF1779C  |  4294014876 |
|      24 | 0xFFFFF4BF  |  4294964415 |
|      25 | 0x005A      |          90 |
|      26 | 0x000A      |          10 |
|      27 | 0x02D6      |         726 |
|      28 | 0xFFFAC8E8  |  4294625512 |
|      29 | 0xFFF17163  |  4294013283 |
|      30 | 0xFFFFF60F  |  4294964751 |
|      31 | 0xFFFFEC78  |  4294962296 |
|      32 | 0x1388      |        5000 |
|      33 | 0x0800      |        2048 |
|      34 | 0xC350      |       50000 |
|      35 | 0x01B9      |         441 |
|      36 | 0x0150      |         336 |
|      37 | 0x0160      |         352 |
|      38 | 0x01BC      |         444 |
|      39 | 0x02D5      |         725 |
|      40 | 0x0154      |         340 |
|      41 | 0x0144      |         324 |
|      42 | 0x0152      |         338 |

## Events

### Event 65535

#### Metadata

| Field        | Value   |
|--------------|---------|
| Entrypoint   | 0x0000  |
| Data Size    | 1 bytes |
| Instructions | 1       |

```
      00 01 02 03 04 05 06 07  08 09 0A 0B 0C 0D 0E 0F
      -- -- -- -- -- -- -- --  -- -- -- -- -- -- -- --
0000: 00                                                .               
```

#### Opcodes

```
  0: 0x0000 [0x00] END_REQSTACK()
```

### Event 65535.1

#### Metadata

| Field        | Value   |
|--------------|---------|
| Entrypoint   | 0x0001  |
| Data Size    | 1 bytes |
| Instructions | 1       |

```
      00 01 02 03 04 05 06 07  08 09 0A 0B 0C 0D 0E 0F
      -- -- -- -- -- -- -- --  -- -- -- -- -- -- -- --
0000:    00                                              .              
```

#### Opcodes

```
  0: 0x0001 [0x00] END_REQSTACK()
```

### Event 65535.2

#### Metadata

| Field        | Value    |
|--------------|----------|
| Entrypoint   | 0x0002   |
| Data Size    | 18 bytes |
| Instructions | 4        |

```
      00 01 02 03 04 05 06 07  08 09 0A 0B 0C 0D 0E 0F
      -- -- -- -- -- -- -- --  -- -- -- -- -- -- -- --
0000:       22 00 2F 00 F8 FF  FF 7F 6C F8 FF FF 7F 00    "./.....l.....
0010: 80 01 80 00                                       ....            
```

#### Opcodes

```
  0: 0x0002 [0x22] ENTITY_HIDE_FLAG(enabled=0x00)
  1: 0x0004 [0x2F] EventEntity->Render.Flags0 &= ~0x80000 // Bit 19
  2: 0x000A [0x6C] FADE_ENTITY_COLOR(entity_id=EventEntity, end_alpha=0*, fade_time=1*)
  3: 0x0013 [0x00] END_REQSTACK()
```

### Event 65535.3

#### Metadata

| Field        | Value    |
|--------------|----------|
| Entrypoint   | 0x0014   |
| Data Size    | 10 bytes |
| Instructions | 2        |

```
      00 01 02 03 04 05 06 07  08 09 0A 0B 0C 0D 0E 0F
      -- -- -- -- -- -- -- --  -- -- -- -- -- -- -- --
0010:             6C F8 FF FF  7F 02 80 01 80 00            l.........  
```

#### Opcodes

```
  0: 0x0014 [0x6C] FADE_ENTITY_COLOR(entity_id=EventEntity, end_alpha=128*, fade_time=1*)
  1: 0x001D [0x00] END_REQSTACK()
```

### Event 65535.4

#### Metadata

| Field        | Value   |
|--------------|---------|
| Entrypoint   | 0x001E  |
| Data Size    | 9 bytes |
| Instructions | 3       |

```
      00 01 02 03 04 05 06 07  08 09 0A 0B 0C 0D 0E 0F
      -- -- -- -- -- -- -- --  -- -- -- -- -- -- -- --
0010:                                            22 00                ".
0020: 2F 00 F8 FF FF 7F 00                              /......         
```

#### Opcodes

```
  0: 0x001E [0x22] ENTITY_HIDE_FLAG(enabled=0x00)
  1: 0x0020 [0x2F] EventEntity->Render.Flags0 &= ~0x80000 // Bit 19
  2: 0x0026 [0x00] END_REQSTACK()
```

### Event 65535.5

#### Metadata

| Field        | Value   |
|--------------|---------|
| Entrypoint   | 0x0027  |
| Data Size    | 9 bytes |
| Instructions | 3       |

```
      00 01 02 03 04 05 06 07  08 09 0A 0B 0C 0D 0E 0F
      -- -- -- -- -- -- -- --  -- -- -- -- -- -- -- --
0020:                      22  01 2F 01 F8 FF FF 7F 00         "./......
```

#### Opcodes

```
  0: 0x0027 [0x22] ENTITY_HIDE_FLAG(enabled=0x01)
  1: 0x0029 [0x2F] EventEntity->Render.Flags0 |= 0x80000 // Bit 19
  2: 0x002F [0x00] END_REQSTACK()
```

### Event 65535.6

#### Metadata

| Field        | Value    |
|--------------|----------|
| Entrypoint   | 0x0030   |
| Data Size    | 10 bytes |
| Instructions | 2        |

```
      00 01 02 03 04 05 06 07  08 09 0A 0B 0C 0D 0E 0F
      -- -- -- -- -- -- -- --  -- -- -- -- -- -- -- --
0030: 6C F8 FF FF 7F 00 80 01  80 00                    l.........      
```

#### Opcodes

```
  0: 0x0030 [0x6C] FADE_ENTITY_COLOR(entity_id=EventEntity, end_alpha=0*, fade_time=1*)
  1: 0x0039 [0x00] END_REQSTACK()
```

### Event 65535.7

#### Metadata

| Field        | Value    |
|--------------|----------|
| Entrypoint   | 0x003A   |
| Data Size    | 10 bytes |
| Instructions | 2        |

```
      00 01 02 03 04 05 06 07  08 09 0A 0B 0C 0D 0E 0F
      -- -- -- -- -- -- -- --  -- -- -- -- -- -- -- --
0030:                                6C F8 FF FF 7F 02            l.....
0040: 80 01 80 00                                       ....            
```

#### Opcodes

```
  0: 0x003A [0x6C] FADE_ENTITY_COLOR(entity_id=EventEntity, end_alpha=128*, fade_time=1*)
  1: 0x0043 [0x00] END_REQSTACK()
```

### Event 43

#### Metadata

| Field        | Value    |
|--------------|----------|
| Entrypoint   | 0x0044   |
| Data Size    | 27 bytes |
| Instructions | 5        |

```
      00 01 02 03 04 05 06 07  08 09 0A 0B 0C 0D 0E 0F
      -- -- -- -- -- -- -- --  -- -- -- -- -- -- -- --
0040:             37 03 80 04  80 05 80 06 80 03 00 00      7...........
0050: 07 80 1A 78 00 37 01 00  02 00 03 00 04 00 00     ...x.7......... 
```

#### Opcodes

```
  0: 0x0044 [0x37] UPDATE_EVENT_POSITION_AND_DIR: x=-336.283*, z=-961.707*, y=-2.641*, direction=128.8°*
  1: 0x004D [0x03] ExtData[1]->WorkLocal[0] = 4294964296*
  2: 0x0052 [0x1A] CALL_SUBROUTINE(address=0x0078)
  3: 0x0055 [0x37] UPDATE_EVENT_POSITION_AND_DIR: x=ExtData[1]->WorkLocal[1], z=ExtData[1]->WorkLocal[2], y=ExtData[1]->WorkLocal[3], direction=ExtData[1]->WorkLocal[4]
  4: 0x005E [0x00] END_REQSTACK()
```

### Event 65535.8

#### Metadata

| Field        | Value    |
|--------------|----------|
| Entrypoint   | 0x005F   |
| Data Size    | 93 bytes |
| Instructions | 15       |

```
      00 01 02 03 04 05 06 07  08 09 0A 0B 0C 0D 0E 0F
      -- -- -- -- -- -- -- --  -- -- -- -- -- -- -- --
0050:                                               A4                 .
0060: 01 03 00 00 08 80 1A 78  00 32 09 80 1F 00 01 00  .......x.2......
0070: 02 00 03 00 1F 01 6F 00  3B F8 FF FF 7F 01 00 02  ......o.;.......
0080: 00 03 00 3A F8 FF FF 7F  04 00 17 05 00 04 00 00  ...:............
0090: 00 16 06 00 04 00 00 00  07 01 00 05 00 07 02 00  ................
00A0: 06 00 1B 17 05 00 04 00  00 00 16 06 00 04 00 00  ................
00B0: 00 07 01 00 05 00 07 02  00 06 00 1B              ............    
```

#### Opcodes

```
  0: 0x005F [0xA4] EventEntity->Flags3.unknown_3_2 = 1
  1: 0x0061 [0x03] ExtData[1]->WorkLocal[0] = 3000*
  2: 0x0066 [0x1A] CALL_SUBROUTINE(address=0x0078)
  3: 0x0069 [0x32] ExtData[1]->MainSpeed = 40* * 0.1
  4: 0x006C [0x1F] MOVE_ENTITY: EventEntity moves to X=ExtData[1]->WorkLocal[1], Z=ExtData[1]->WorkLocal[2], Y=ExtData[1]->WorkLocal[3]
  5: 0x0074 [0x1F] MOVE_ENTITY: Update entity position (mode=1)
  6: 0x0076 [0x6F] WAIT_FRAME_DELAY: Yield until WaitTime reaches zero
  7: 0x0077 [0x00] END_REQSTACK()

SUBROUTINE_0078:
  8: 0x0078 [0x3B] GET_ENTITY_POSITION(entity=EventEntity, x_destination=ExtData[1]->WorkLocal[1], y_destination=ExtData[1]->WorkLocal[2], z_destination=ExtData[1]->WorkLocal[3])
  9: 0x0083 [0x3A] CONVERT_YAW_TO_BYTE(entity=EventEntity, result_destination=ExtData[1]->WorkLocal[4])
 10: 0x008A [0x17] ExtData[1]->WorkLocal[5] = cos(ExtData[1]->WorkLocal[4]) * ExtData[1]->WorkLocal[0]
 11: 0x0091 [0x16] ExtData[1]->WorkLocal[6] = sin(ExtData[1]->WorkLocal[4]) * ExtData[1]->WorkLocal[0]
 12: 0x0098 [0x07] ExtData[1]->WorkLocal[1] += ExtData[1]->WorkLocal[5]
 13: 0x009D [0x07] ExtData[1]->WorkLocal[2] += ExtData[1]->WorkLocal[6]
 14: 0x00A2 [0x1B] RETURN
```

#### Data or dead code:

```
# Dead code (unreachable instructions):
     0x00A3 [0x17] ExtData[1]->WorkLocal[5] = cos(ExtData[1]->WorkLocal[4]) * ExtData[1]->WorkLocal[0]
     0x00AA [0x16] ExtData[1]->WorkLocal[6] = sin(ExtData[1]->WorkLocal[4]) * ExtData[1]->WorkLocal[0]
     0x00B1 [0x07] ExtData[1]->WorkLocal[1] += ExtData[1]->WorkLocal[5]
     0x00B6 [0x07] ExtData[1]->WorkLocal[2] += ExtData[1]->WorkLocal[6]
     0x00BB [0x1B] RETURN
```

### Event 65535.9

#### Metadata

| Field        | Value    |
|--------------|----------|
| Entrypoint   | 0x00BC   |
| Data Size    | 11 bytes |
| Instructions | 3        |

```
      00 01 02 03 04 05 06 07  08 09 0A 0B 0C 0D 0E 0F
      -- -- -- -- -- -- -- --  -- -- -- -- -- -- -- --
00B0:                                      1F 00 0A 80              ....
00C0: 0B 80 0C 80 1F 01 00                              .......         
```

#### Opcodes

```
  0: 0x00BC [0x1F] MOVE_ENTITY: EventEntity moves to X=-332.654*, Z=-947.045*, Y=-1.861*
  1: 0x00C4 [0x1F] MOVE_ENTITY: Update entity position (mode=1)
  2: 0x00C6 [0x00] END_REQSTACK()
```

### Event 65535.10

#### Metadata

| Field        | Value    |
|--------------|----------|
| Entrypoint   | 0x00C7   |
| Data Size    | 35 bytes |
| Instructions | 9        |

```
      00 01 02 03 04 05 06 07  08 09 0A 0B 0C 0D 0E 0F
      -- -- -- -- -- -- -- --  -- -- -- -- -- -- -- --
00C0:                      37  0D 80 0E 80 0F 80 10 80         7........
00D0: 03 00 00 11 80 1A 78 00  32 09 80 1F 00 01 00 02  ......x.2.......
00E0: 00 03 00 1F 01 6F 39 12  80 00                    .....o9...      
```

#### Opcodes

```
  0: 0x00C7 [0x37] UPDATE_EVENT_POSITION_AND_DIR: x=-342.023*, z=-945.325*, y=-1.793*, direction=184.2°*
  1: 0x00D0 [0x03] ExtData[1]->WorkLocal[0] = 3700*
  2: 0x00D5 [0x1A] CALL_SUBROUTINE(address=0x0078)
  3: 0x00D8 [0x32] ExtData[1]->MainSpeed = 40* * 0.1
  4: 0x00DB [0x1F] MOVE_ENTITY: EventEntity moves to X=ExtData[1]->WorkLocal[1], Z=ExtData[1]->WorkLocal[2], Y=ExtData[1]->WorkLocal[3]
  5: 0x00E3 [0x1F] MOVE_ENTITY: Update entity position (mode=1)
  6: 0x00E5 [0x6F] WAIT_FRAME_DELAY: Yield until WaitTime reaches zero
  7: 0x00E6 [0x39] SET_ENTITY_DIRECTION(direction=5.3°*)
  8: 0x00E9 [0x00] END_REQSTACK()
```

### Event 65535.11

#### Metadata

| Field        | Value    |
|--------------|----------|
| Entrypoint   | 0x00EA   |
| Data Size    | 20 bytes |
| Instructions | 6        |

```
      00 01 02 03 04 05 06 07  08 09 0A 0B 0C 0D 0E 0F
      -- -- -- -- -- -- -- --  -- -- -- -- -- -- -- --
00E0:                                32 09 80 1F 00 13            2.....
00F0: 80 14 80 15 80 1F 01 6F  1E 92 41 00 01 00        .......o..A...  
```

#### Opcodes

```
  0: 0x00EA [0x32] ExtData[1]->MainSpeed = 40* * 0.1
  1: 0x00ED [0x1F] MOVE_ENTITY: EventEntity moves to X=-346.678*, Z=-950.295*, Y=-2.644*
  2: 0x00F5 [0x1F] MOVE_ENTITY: Update entity position (mode=1)
  3: 0x00F7 [0x6F] WAIT_FRAME_DELAY: Yield until WaitTime reaches zero
  4: 0x00F8 [0x1E] EventEntity looks at Vukki-Chebukki (ID: 16794002/0x01004192) and starts talking
  5: 0x00FD [0x00] END_REQSTACK()
```

### Event 65535.12

#### Metadata

| Field        | Value    |
|--------------|----------|
| Entrypoint   | 0x00FE   |
| Data Size    | 61 bytes |
| Instructions | 9        |

```
      00 01 02 03 04 05 06 07  08 09 0A 0B 0C 0D 0E 0F
      -- -- -- -- -- -- -- --  -- -- -- -- -- -- -- --
00F0:                                            31 00                1.
0100: 16 80 17 80 18 80 19 80  31 01 3B 92 41 00 01 01  ........1.;.A...
0110: 00 02 00 03 00 3A 92 41  00 01 04 00 32 09 80 37  .....:.A....2..7
0120: 01 00 02 00 03 00 04 00  1C 1A 80 5B 1B 80 F8 FF  ...........[....
0130: FF 7F F8 FF FF 7F 61 75  30 33 00                 ......au03.     
```

#### Opcodes

```
  0: 0x00FE [0x31] UPDATE_ENTITY_POSITION: Set EventEntity goal position to X=-347.271*, Z=-952.420*, Y=-2.881*, Time=90*
  1: 0x0108 [0x31] UPDATE_ENTITY_POSITION: Move EventEntity towards goal position
  2: 0x010A [0x3B] GET_ENTITY_POSITION(entity=Vukki-Chebukki (ID: 16794002/0x01004192), x_destination=ExtData[1]->WorkLocal[1], y_destination=ExtData[1]->WorkLocal[2], z_destination=ExtData[1]->WorkLocal[3])
  3: 0x0115 [0x3A] CONVERT_YAW_TO_BYTE(entity=Vukki-Chebukki (ID: 16794002/0x01004192), result_destination=ExtData[1]->WorkLocal[4])
  4: 0x011C [0x32] ExtData[1]->MainSpeed = 40* * 0.1
  5: 0x011F [0x37] UPDATE_EVENT_POSITION_AND_DIR: x=ExtData[1]->WorkLocal[1], z=ExtData[1]->WorkLocal[2], y=ExtData[1]->WorkLocal[3], direction=ExtData[1]->WorkLocal[4]
  6: 0x0128 [0x1C] WAIT(10* ticks)
  7: 0x012B [0x5B] LOAD_EXT_SCHEDULER: Load scheduler "au03" with entities [EventEntity, EventEntity], work=726*
  8: 0x013A [0x00] END_REQSTACK()
```

### Event 65535.13

#### Metadata

| Field        | Value    |
|--------------|----------|
| Entrypoint   | 0x013B   |
| Data Size    | 27 bytes |
| Instructions | 5        |

```
      00 01 02 03 04 05 06 07  08 09 0A 0B 0C 0D 0E 0F
      -- -- -- -- -- -- -- --  -- -- -- -- -- -- -- --
0130:                                   37 1C 80 1D 80             7....
0140: 1E 80 00 80 03 00 00 1F  80 1A 78 00 37 01 00 02  ..........x.7...
0150: 00 03 00 04 00 00                                 ......          
```

#### Opcodes

```
  0: 0x013B [0x37] UPDATE_EVENT_POSITION_AND_DIR: x=-341.784*, z=-954.013*, y=-2.545*, direction=0.0°*
  1: 0x0144 [0x03] ExtData[1]->WorkLocal[0] = 4294962296*
  2: 0x0149 [0x1A] CALL_SUBROUTINE(address=0x0078)
  3: 0x014C [0x37] UPDATE_EVENT_POSITION_AND_DIR: x=ExtData[1]->WorkLocal[1], z=ExtData[1]->WorkLocal[2], y=ExtData[1]->WorkLocal[3], direction=ExtData[1]->WorkLocal[4]
  4: 0x0155 [0x00] END_REQSTACK()
```

### Event 65535.14

#### Metadata

| Field        | Value    |
|--------------|----------|
| Entrypoint   | 0x0156   |
| Data Size    | 28 bytes |
| Instructions | 8        |

```
      00 01 02 03 04 05 06 07  08 09 0A 0B 0C 0D 0E 0F
      -- -- -- -- -- -- -- --  -- -- -- -- -- -- -- --
0150:                   03 00  00 20 80 1A 78 00 32 09        ... ..x.2.
0160: 80 1F 00 01 00 02 00 03  00 1F 01 6F 1E F0 FF FF  ...........o....
0170: 7F 00                                             ..              
```

#### Opcodes

```
  0: 0x0156 [0x03] ExtData[1]->WorkLocal[0] = 5000*
  1: 0x015B [0x1A] CALL_SUBROUTINE(address=0x0078)
  2: 0x015E [0x32] ExtData[1]->MainSpeed = 40* * 0.1
  3: 0x0161 [0x1F] MOVE_ENTITY: EventEntity moves to X=ExtData[1]->WorkLocal[1], Z=ExtData[1]->WorkLocal[2], Y=ExtData[1]->WorkLocal[3]
  4: 0x0169 [0x1F] MOVE_ENTITY: Update entity position (mode=1)
  5: 0x016B [0x6F] WAIT_FRAME_DELAY: Yield until WaitTime reaches zero
  6: 0x016C [0x1E] EventEntity looks at LocalPlayer and starts talking
  7: 0x0171 [0x00] END_REQSTACK()
```

### Event 65535.15

#### Metadata

| Field        | Value    |
|--------------|----------|
| Entrypoint   | 0x0172   |
| Data Size    | 18 bytes |
| Instructions | 4        |

```
      00 01 02 03 04 05 06 07  08 09 0A 0B 0C 0D 0E 0F
      -- -- -- -- -- -- -- --  -- -- -- -- -- -- -- --
0170:       03 00 00 00 80 1A  78 00 37 01 00 02 00 03    ......x.7.....
0180: 00 21 80 00                                       .!..            
```

#### Opcodes

```
  0: 0x0172 [0x03] ExtData[1]->WorkLocal[0] = 0*
  1: 0x0177 [0x1A] CALL_SUBROUTINE(address=0x0078)
  2: 0x017A [0x37] UPDATE_EVENT_POSITION_AND_DIR: x=ExtData[1]->WorkLocal[1], z=ExtData[1]->WorkLocal[2], y=ExtData[1]->WorkLocal[3], direction=180.0°*
  3: 0x0183 [0x00] END_REQSTACK()
```

### Event 65535.16

#### Metadata

| Field        | Value    |
|--------------|----------|
| Entrypoint   | 0x0184   |
| Data Size    | 23 bytes |
| Instructions | 7        |

```
      00 01 02 03 04 05 06 07  08 09 0A 0B 0C 0D 0E 0F
      -- -- -- -- -- -- -- --  -- -- -- -- -- -- -- --
0180:             03 00 00 22  80 1A 78 00 32 09 80 1F      ..."..x.2...
0190: 00 01 00 02 00 03 00 1F  01 6F 00                 .........o.     
```

#### Opcodes

```
  0: 0x0184 [0x03] ExtData[1]->WorkLocal[0] = 50000*
  1: 0x0189 [0x1A] CALL_SUBROUTINE(address=0x0078)
  2: 0x018C [0x32] ExtData[1]->MainSpeed = 40* * 0.1
  3: 0x018F [0x1F] MOVE_ENTITY: EventEntity moves to X=ExtData[1]->WorkLocal[1], Z=ExtData[1]->WorkLocal[2], Y=ExtData[1]->WorkLocal[3]
  4: 0x0197 [0x1F] MOVE_ENTITY: Update entity position (mode=1)
  5: 0x0199 [0x6F] WAIT_FRAME_DELAY: Yield until WaitTime reaches zero
  6: 0x019A [0x00] END_REQSTACK()
```

### Event 65535.17

#### Metadata

| Field        | Value    |
|--------------|----------|
| Entrypoint   | 0x019B   |
| Data Size    | 29 bytes |
| Instructions | 3        |

```
      00 01 02 03 04 05 06 07  08 09 0A 0B 0C 0D 0E 0F
      -- -- -- -- -- -- -- --  -- -- -- -- -- -- -- --
0190:                                   5B 23 80 F8 FF             [#...
01A0: FF 7F F8 FF FF 7F 64 66  6B 30 53 F8 FF FF 7F F8  ......dfk0S.....
01B0: FF FF 7F 64 66 6B 30 00                           ...dfk0.        
```

#### Opcodes

```
  0: 0x019B [0x5B] LOAD_EXT_SCHEDULER: Load scheduler "dfk0" with entities [EventEntity, EventEntity], work=441*
  1: 0x01AA [0x53] WAIT_SCHEDULER_TASK: Wait for scheduler "dfk0" with entities [EventEntity, EventEntity]
  2: 0x01B7 [0x00] END_REQSTACK()
```

### Event 65535.18

#### Metadata

| Field        | Value    |
|--------------|----------|
| Entrypoint   | 0x01B8   |
| Data Size    | 29 bytes |
| Instructions | 3        |

```
      00 01 02 03 04 05 06 07  08 09 0A 0B 0C 0D 0E 0F
      -- -- -- -- -- -- -- --  -- -- -- -- -- -- -- --
01B0:                          5B 23 80 F8 FF FF 7F F8          [#......
01C0: FF FF 7F 64 66 6B 31 53  F8 FF FF 7F F8 FF FF 7F  ...dfk1S........
01D0: 64 66 6B 31 00                                    dfk1.           
```

#### Opcodes

```
  0: 0x01B8 [0x5B] LOAD_EXT_SCHEDULER: Load scheduler "dfk1" with entities [EventEntity, EventEntity], work=441*
  1: 0x01C7 [0x53] WAIT_SCHEDULER_TASK: Wait for scheduler "dfk1" with entities [EventEntity, EventEntity]
  2: 0x01D4 [0x00] END_REQSTACK()
```

### Event 65535.19

#### Metadata

| Field        | Value    |
|--------------|----------|
| Entrypoint   | 0x01D5   |
| Data Size    | 16 bytes |
| Instructions | 2        |

```
      00 01 02 03 04 05 06 07  08 09 0A 0B 0C 0D 0E 0F
      -- -- -- -- -- -- -- --  -- -- -- -- -- -- -- --
01D0:                5B 24 80  F8 FF FF 7F F8 FF FF 7F       [$.........
01E0: 74 6C 6B 30 00                                    tlk0.           
```

#### Opcodes

```
  0: 0x01D5 [0x5B] LOAD_EXT_SCHEDULER: Load scheduler "tlk0" with entities [EventEntity, EventEntity], work=336*
  1: 0x01E4 [0x00] END_REQSTACK()
```

### Event 65535.20

#### Metadata

| Field        | Value    |
|--------------|----------|
| Entrypoint   | 0x01E5   |
| Data Size    | 16 bytes |
| Instructions | 2        |

```
      00 01 02 03 04 05 06 07  08 09 0A 0B 0C 0D 0E 0F
      -- -- -- -- -- -- -- --  -- -- -- -- -- -- -- --
01E0:                5B 24 80  F8 FF FF 7F F8 FF FF 7F       [$.........
01F0: 74 6C 6B 31 00                                    tlk1.           
```

#### Opcodes

```
  0: 0x01E5 [0x5B] LOAD_EXT_SCHEDULER: Load scheduler "tlk1" with entities [EventEntity, EventEntity], work=336*
  1: 0x01F4 [0x00] END_REQSTACK()
```

### Event 65535.21

#### Metadata

| Field        | Value    |
|--------------|----------|
| Entrypoint   | 0x01F5   |
| Data Size    | 16 bytes |
| Instructions | 2        |

```
      00 01 02 03 04 05 06 07  08 09 0A 0B 0C 0D 0E 0F
      -- -- -- -- -- -- -- --  -- -- -- -- -- -- -- --
01F0:                5B 25 80  F8 FF FF 7F F8 FF FF 7F       [%.........
0200: 7A 69 74 30 00                                    zit0.           
```

#### Opcodes

```
  0: 0x01F5 [0x5B] LOAD_EXT_SCHEDULER: Load scheduler "zit0" with entities [EventEntity, EventEntity], work=352*
  1: 0x0204 [0x00] END_REQSTACK()
```

### Event 65535.22

#### Metadata

| Field        | Value    |
|--------------|----------|
| Entrypoint   | 0x0205   |
| Data Size    | 16 bytes |
| Instructions | 2        |

```
      00 01 02 03 04 05 06 07  08 09 0A 0B 0C 0D 0E 0F
      -- -- -- -- -- -- -- --  -- -- -- -- -- -- -- --
0200:                5B 26 80  F8 FF FF 7F F8 FF FF 7F       [&.........
0210: 68 69 30 33 00                                    hi03.           
```

#### Opcodes

```
  0: 0x0205 [0x5B] LOAD_EXT_SCHEDULER: Load scheduler "hi03" with entities [EventEntity, EventEntity], work=444*
  1: 0x0214 [0x00] END_REQSTACK()
```

### Event 65535.23

#### Metadata

| Field        | Value    |
|--------------|----------|
| Entrypoint   | 0x0215   |
| Data Size    | 16 bytes |
| Instructions | 2        |

```
      00 01 02 03 04 05 06 07  08 09 0A 0B 0C 0D 0E 0F
      -- -- -- -- -- -- -- --  -- -- -- -- -- -- -- --
0210:                5B 26 80  F8 FF FF 7F F8 FF FF 7F       [&.........
0220: 68 69 30 34 00                                    hi04.           
```

#### Opcodes

```
  0: 0x0215 [0x5B] LOAD_EXT_SCHEDULER: Load scheduler "hi04" with entities [EventEntity, EventEntity], work=444*
  1: 0x0224 [0x00] END_REQSTACK()
```

### Event 65535.24

#### Metadata

| Field        | Value    |
|--------------|----------|
| Entrypoint   | 0x0225   |
| Data Size    | 29 bytes |
| Instructions | 3        |

```
      00 01 02 03 04 05 06 07  08 09 0A 0B 0C 0D 0E 0F
      -- -- -- -- -- -- -- --  -- -- -- -- -- -- -- --
0220:                5B 24 80  F8 FF FF 7F F8 FF FF 7F       [$.........
0230: 70 6F 69 30 53 F8 FF FF  7F F8 FF FF 7F 70 6F 69  poi0S........poi
0240: 30 00                                             0.              
```

#### Opcodes

```
  0: 0x0225 [0x5B] LOAD_EXT_SCHEDULER: Load scheduler "poi0" with entities [EventEntity, EventEntity], work=336*
  1: 0x0234 [0x53] WAIT_SCHEDULER_TASK: Wait for scheduler "poi0" with entities [EventEntity, EventEntity]
  2: 0x0241 [0x00] END_REQSTACK()
```

### Event 65535.25

#### Metadata

| Field        | Value    |
|--------------|----------|
| Entrypoint   | 0x0242   |
| Data Size    | 29 bytes |
| Instructions | 3        |

```
      00 01 02 03 04 05 06 07  08 09 0A 0B 0C 0D 0E 0F
      -- -- -- -- -- -- -- --  -- -- -- -- -- -- -- --
0240:       5B 23 80 F8 FF FF  7F F8 FF FF 7F 75 73 69    [#.........usi
0250: 30 53 F8 FF FF 7F F8 FF  FF 7F 75 73 69 30 00     0S........usi0. 
```

#### Opcodes

```
  0: 0x0242 [0x5B] LOAD_EXT_SCHEDULER: Load scheduler "usi0" with entities [EventEntity, EventEntity], work=441*
  1: 0x0251 [0x53] WAIT_SCHEDULER_TASK: Wait for scheduler "usi0" with entities [EventEntity, EventEntity]
  2: 0x025E [0x00] END_REQSTACK()
```

### Event 65535.26

#### Metadata

| Field        | Value    |
|--------------|----------|
| Entrypoint   | 0x025F   |
| Data Size    | 29 bytes |
| Instructions | 3        |

```
      00 01 02 03 04 05 06 07  08 09 0A 0B 0C 0D 0E 0F
      -- -- -- -- -- -- -- --  -- -- -- -- -- -- -- --
0250:                                               5B                 [
0260: 23 80 F8 FF FF 7F F8 FF  FF 7F 75 73 69 31 53 F8  #.........usi1S.
0270: FF FF 7F F8 FF FF 7F 75  73 69 31 00              .......usi1.    
```

#### Opcodes

```
  0: 0x025F [0x5B] LOAD_EXT_SCHEDULER: Load scheduler "usi1" with entities [EventEntity, EventEntity], work=441*
  1: 0x026E [0x53] WAIT_SCHEDULER_TASK: Wait for scheduler "usi1" with entities [EventEntity, EventEntity]
  2: 0x027B [0x00] END_REQSTACK()
```

### Event 65535.27

#### Metadata

| Field        | Value    |
|--------------|----------|
| Entrypoint   | 0x027C   |
| Data Size    | 29 bytes |
| Instructions | 3        |

```
      00 01 02 03 04 05 06 07  08 09 0A 0B 0C 0D 0E 0F
      -- -- -- -- -- -- -- --  -- -- -- -- -- -- -- --
0270:                                      5B 27 80 F8              ['..
0280: FF FF 7F F8 FF FF 7F 6C  61 75 31 53 F8 FF FF 7F  .......lau1S....
0290: F8 FF FF 7F 6C 61 75 31  00                       ....lau1.       
```

#### Opcodes

```
  0: 0x027C [0x5B] LOAD_EXT_SCHEDULER: Load scheduler "lau1" with entities [EventEntity, EventEntity], work=725*
  1: 0x028B [0x53] WAIT_SCHEDULER_TASK: Wait for scheduler "lau1" with entities [EventEntity, EventEntity]
  2: 0x0298 [0x00] END_REQSTACK()
```

### Event 65535.28

#### Metadata

| Field        | Value    |
|--------------|----------|
| Entrypoint   | 0x0299   |
| Data Size    | 29 bytes |
| Instructions | 3        |

```
      00 01 02 03 04 05 06 07  08 09 0A 0B 0C 0D 0E 0F
      -- -- -- -- -- -- -- --  -- -- -- -- -- -- -- --
0290:                             5B 27 80 F8 FF FF 7F           ['.....
02A0: F8 FF FF 7F 6C 61 75 73  53 F8 FF FF 7F F8 FF FF  ....lausS.......
02B0: 7F 6C 61 75 73 00                                 .laus.          
```

#### Opcodes

```
  0: 0x0299 [0x5B] LOAD_EXT_SCHEDULER: Load scheduler "laus" with entities [EventEntity, EventEntity], work=725*
  1: 0x02A8 [0x53] WAIT_SCHEDULER_TASK: Wait for scheduler "laus" with entities [EventEntity, EventEntity]
  2: 0x02B5 [0x00] END_REQSTACK()
```

### Event 65535.29

#### Metadata

| Field        | Value    |
|--------------|----------|
| Entrypoint   | 0x02B6   |
| Data Size    | 29 bytes |
| Instructions | 3        |

```
      00 01 02 03 04 05 06 07  08 09 0A 0B 0C 0D 0E 0F
      -- -- -- -- -- -- -- --  -- -- -- -- -- -- -- --
02B0:                   5B 24  80 F8 FF FF 7F F8 FF FF        [$........
02C0: 7F 64 69 73 30 53 F8 FF  FF 7F F8 FF FF 7F 64 69  .dis0S........di
02D0: 73 30 00                                          s0.             
```

#### Opcodes

```
  0: 0x02B6 [0x5B] LOAD_EXT_SCHEDULER: Load scheduler "dis0" with entities [EventEntity, EventEntity], work=336*
  1: 0x02C5 [0x53] WAIT_SCHEDULER_TASK: Wait for scheduler "dis0" with entities [EventEntity, EventEntity]
  2: 0x02D2 [0x00] END_REQSTACK()
```

### Event 65535.30

#### Metadata

| Field        | Value    |
|--------------|----------|
| Entrypoint   | 0x02D3   |
| Data Size    | 16 bytes |
| Instructions | 2        |

```
      00 01 02 03 04 05 06 07  08 09 0A 0B 0C 0D 0E 0F
      -- -- -- -- -- -- -- --  -- -- -- -- -- -- -- --
02D0:          5B 28 80 F8 FF  FF 7F F8 FF FF 7F 62 69     [(.........bi
02E0: 6B 30 00                                          k0.             
```

#### Opcodes

```
  0: 0x02D3 [0x5B] LOAD_EXT_SCHEDULER: Load scheduler "bik0" with entities [EventEntity, EventEntity], work=340*
  1: 0x02E2 [0x00] END_REQSTACK()
```

### Event 65535.31

#### Metadata

| Field        | Value    |
|--------------|----------|
| Entrypoint   | 0x02E3   |
| Data Size    | 16 bytes |
| Instructions | 2        |

```
      00 01 02 03 04 05 06 07  08 09 0A 0B 0C 0D 0E 0F
      -- -- -- -- -- -- -- --  -- -- -- -- -- -- -- --
02E0:          5B 29 80 F8 FF  FF 7F F8 FF FF 7F 77 61     [).........wa
02F0: 76 30 00                                          v0.             
```

#### Opcodes

```
  0: 0x02E3 [0x5B] LOAD_EXT_SCHEDULER: Load scheduler "wav0" with entities [EventEntity, EventEntity], work=324*
  1: 0x02F2 [0x00] END_REQSTACK()
```

### Event 65535.32

#### Metadata

| Field        | Value    |
|--------------|----------|
| Entrypoint   | 0x02F3   |
| Data Size    | 16 bytes |
| Instructions | 2        |

```
      00 01 02 03 04 05 06 07  08 09 0A 0B 0C 0D 0E 0F
      -- -- -- -- -- -- -- --  -- -- -- -- -- -- -- --
02F0:          5B 2A 80 F8 FF  FF 7F F8 FF FF 7F 73 68     [*.........sh
0300: 6B 30 00                                          k0.             
```

#### Opcodes

```
  0: 0x02F3 [0x5B] LOAD_EXT_SCHEDULER: Load scheduler "shk0" with entities [EventEntity, EventEntity], work=338*
  1: 0x0302 [0x00] END_REQSTACK()
```
