# 16794005 - Mame02

## Common Data

| Field            | Value              |
|------------------|--------------------|
| Zone             | Bibiki Bay (ID: 4) |
| Block Size       | 632 bytes          |
| Total Events     | 17                 |
| References Count | 45                 |

## List of Events

| Event ID                   | Entrypoint   |   Size |   Instructions |
|----------------------------|--------------|--------|----------------|
| [65535](#event-65535)      | 0x0000       |      1 |              1 |
| [43](#event-43)            | 0x0001       |     27 |              5 |
| [65535.1](#event-655351)   | 0x001C       |     99 |             21 |
| [65535.2](#event-655352)   | 0x007F       |     10 |              2 |
| [65535.3](#event-655353)   | 0x0089       |     43 |              8 |
| [65535.4](#event-655354)   | 0x00B4       |     27 |              3 |
| [65535.5](#event-655355)   | 0x00CF       |     27 |              3 |
| [33](#event-33)            | 0x00EA       |     13 |              3 |
| [65535.6](#event-655356)   | 0x00F7       |     10 |              2 |
| [65535.7](#event-655357)   | 0x0101       |     23 |              5 |
| [37](#event-37)            | 0x0118       |      1 |              1 |
| [65535.8](#event-655358)   | 0x0119       |     10 |              2 |
| [65535.9](#event-655359)   | 0x0123       |     30 |              8 |
| [65535.10](#event-6553510) | 0x0141       |     17 |              6 |
| [65535.11](#event-6553511) | 0x0152       |     18 |              4 |
| [65535.12](#event-6553512) | 0x0164       |      9 |              3 |
| [65535.13](#event-6553513) | 0x016D       |      1 |              1 |

## DAT References (imed_data)

|   Index | Hex Value   |   Dec Value |
|---------|-------------|-------------|
|       0 | 0xFFFAC518  |  4294624536 |
|       1 | 0xFFF13C9C  |  4293999772 |
|       2 | 0xFFFFF4F4  |  4294964468 |
|       3 | 0x05B9      |        1465 |
|       4 | 0xFFFFD8F0  |  4294957296 |
|       5 | 0x2710      |       10000 |
|       6 | 0x0028      |          40 |
|       7 | 0x0800      |        2048 |
|       8 | 0xFFFAB444  |  4294620228 |
|       9 | 0xFFF17B2D  |  4294015789 |
|      10 | 0xFFFFF4DB  |  4294964443 |
|      11 | 0x0C6C      |        3180 |
|      12 | 0x047B      |        1147 |
|      13 | 0xFFFAA61E  |  4294616606 |
|      14 | 0xFFF15B56  |  4294007638 |
|      15 | 0xFFFFF3C2  |  4294964162 |
|      16 | 0xFFFA69C5  |  4294601157 |
|      17 | 0xFFF14A41  |  4294003265 |
|      18 | 0xFFFFF324  |  4294964004 |
|      19 | 0xFFFAC115  |  4294623509 |
|      20 | 0xFFF12CF1  |  4293995761 |
|      21 | 0xFFFFF379  |  4294964089 |
|      22 | 0x0C37      |        3127 |
|      23 | 0xFFFAA241  |  4294615617 |
|      24 | 0xFFF12569  |  4293993833 |
|      25 | 0xFFFFF3C8  |  4294964168 |
|      26 | 0x095C      |        2396 |
|      27 | 0xFFFA7412  |  4294603794 |
|      28 | 0xFFF1597A  |  4294007162 |
|      29 | 0xFFFFF2BA  |  4294963898 |
|      30 | 0xFFF66BB1  |  4294339505 |
|      31 | 0xFFF69813  |  4294350867 |
|      32 | 0x00D1      |         209 |
|      33 | 0x024C      |         588 |
|      34 | 0xFFF67302  |  4294341378 |
|      35 | 0xFFF68768  |  4294346600 |
|      36 | 0x006F      |         111 |
|      37 | 0xFFF6748A  |  4294341770 |
|      38 | 0xFFF6828A  |  4294345354 |
|      39 | 0x0036      |          54 |
|      40 | 0xFFF66398  |  4294337432 |
|      41 | 0xFFF664D7  |  4294337751 |
|      42 | 0x0113      |         275 |
|      43 | 0x0000      |           0 |
|      44 | 0x0001      |           1 |

## Events

### Event 65535

#### Metadata

| Field        | Value   |
|--------------|---------|
| Entrypoint   | 0x0000  |
| Data Size    | 1 bytes |
| Instructions | 1       |

```
      00 01 02 03 04 05 06 07  08 09 0A 0B 0C 0D 0E 0F
      -- -- -- -- -- -- -- --  -- -- -- -- -- -- -- --
0000: 00                                                .               
```

#### Opcodes

```
  0: 0x0000 [0x00] END_REQSTACK()
```

### Event 43

#### Metadata

| Field        | Value    |
|--------------|----------|
| Entrypoint   | 0x0001   |
| Data Size    | 27 bytes |
| Instructions | 5        |

```
      00 01 02 03 04 05 06 07  08 09 0A 0B 0C 0D 0E 0F
      -- -- -- -- -- -- -- --  -- -- -- -- -- -- -- --
0000:    37 00 80 01 80 02 80  03 80 03 00 00 04 80 1A   7..............
0010: 3B 00 37 01 00 02 00 03  00 04 00 00              ;.7.........    
```

#### Opcodes

```
  0: 0x0001 [0x37] UPDATE_EVENT_POSITION_AND_DIR: x=-342.760*, z=-967.524*, y=-2.828*, direction=128.8°*
  1: 0x000A [0x03] ExtData[1]->WorkLocal[0] = 4294957296*
  2: 0x000F [0x1A] CALL_SUBROUTINE(address=0x003B)
  3: 0x0012 [0x37] UPDATE_EVENT_POSITION_AND_DIR: x=ExtData[1]->WorkLocal[1], z=ExtData[1]->WorkLocal[2], y=ExtData[1]->WorkLocal[3], direction=ExtData[1]->WorkLocal[4]
  4: 0x001B [0x00] END_REQSTACK()
```

### Event 65535.1

#### Metadata

| Field        | Value    |
|--------------|----------|
| Entrypoint   | 0x001C   |
| Data Size    | 99 bytes |
| Instructions | 16       |

```
      00 01 02 03 04 05 06 07  08 09 0A 0B 0C 0D 0E 0F
      -- -- -- -- -- -- -- --  -- -- -- -- -- -- -- --
0010:                                      03 00 00 05              ....
0020: 80 1A 3B 00 32 06 80 1F  00 01 00 02 00 03 00 1F  ..;.2...........
0030: 01 6F 07 04 00 07 80 39  04 00 00 3B F8 FF FF 7F  .o.....9...;....
0040: 01 00 02 00 03 00 3A F8  FF FF 7F 04 00 17 05 00  ......:.........
0050: 04 00 00 00 16 06 00 04  00 00 00 07 01 00 05 00  ................
0060: 07 02 00 06 00 1B 17 05  00 04 00 00 00 16 06 00  ................
0070: 04 00 00 00 07 01 00 05  00 07 02 00 06 00 1B     ............... 
```

#### Opcodes

```
  0: 0x001C [0x03] ExtData[1]->WorkLocal[0] = 10000*
  1: 0x0021 [0x1A] CALL_SUBROUTINE(address=0x003B)
  2: 0x0024 [0x32] ExtData[1]->MainSpeed = 40* * 0.1
  3: 0x0027 [0x1F] MOVE_ENTITY: EventEntity moves to X=ExtData[1]->WorkLocal[1], Z=ExtData[1]->WorkLocal[2], Y=ExtData[1]->WorkLocal[3]
  4: 0x002F [0x1F] MOVE_ENTITY: Update entity position (mode=1)
  5: 0x0031 [0x6F] WAIT_FRAME_DELAY: Yield until WaitTime reaches zero
  6: 0x0032 [0x07] ExtData[1]->WorkLocal[4] += 2048*
  7: 0x0037 [0x39] SET_ENTITY_DIRECTION(direction=ExtData[1]->WorkLocal[4])
  8: 0x003A [0x00] END_REQSTACK()

SUBROUTINE_003B:
  9: 0x003B [0x3B] GET_ENTITY_POSITION(entity=EventEntity, x_destination=ExtData[1]->WorkLocal[1], y_destination=ExtData[1]->WorkLocal[2], z_destination=ExtData[1]->WorkLocal[3])
 10: 0x0046 [0x3A] CONVERT_YAW_TO_BYTE(entity=EventEntity, result_destination=ExtData[1]->WorkLocal[4])
 11: 0x004D [0x17] ExtData[1]->WorkLocal[5] = cos(ExtData[1]->WorkLocal[4]) * ExtData[1]->WorkLocal[0]
 12: 0x0054 [0x16] ExtData[1]->WorkLocal[6] = sin(ExtData[1]->WorkLocal[4]) * ExtData[1]->WorkLocal[0]
 13: 0x005B [0x07] ExtData[1]->WorkLocal[1] += ExtData[1]->WorkLocal[5]
 14: 0x0060 [0x07] ExtData[1]->WorkLocal[2] += ExtData[1]->WorkLocal[6]
 15: 0x0065 [0x1B] RETURN
```

#### Data or dead code:

```
# Dead code (unreachable instructions):
     0x0066 [0x17] ExtData[1]->WorkLocal[5] = cos(ExtData[1]->WorkLocal[4]) * ExtData[1]->WorkLocal[0]
     0x006D [0x16] ExtData[1]->WorkLocal[6] = sin(ExtData[1]->WorkLocal[4]) * ExtData[1]->WorkLocal[0]
     0x0074 [0x07] ExtData[1]->WorkLocal[1] += ExtData[1]->WorkLocal[5]
     0x0079 [0x07] ExtData[1]->WorkLocal[2] += ExtData[1]->WorkLocal[6]
     0x007E [0x1B] RETURN
```

### Event 65535.2

#### Metadata

| Field        | Value    |
|--------------|----------|
| Entrypoint   | 0x007F   |
| Data Size    | 10 bytes |
| Instructions | 2        |

```
      00 01 02 03 04 05 06 07  08 09 0A 0B 0C 0D 0E 0F
      -- -- -- -- -- -- -- --  -- -- -- -- -- -- -- --
0070:                                               37                 7
0080: 08 80 09 80 0A 80 0B 80  00                       .........       
```

#### Opcodes

```
  0: 0x007F [0x37] UPDATE_EVENT_POSITION_AND_DIR: x=-347.068*, z=-951.507*, y=-2.853*, direction=279.5°*
  1: 0x0088 [0x00] END_REQSTACK()
```

### Event 65535.3

#### Metadata

| Field        | Value    |
|--------------|----------|
| Entrypoint   | 0x0089   |
| Data Size    | 43 bytes |
| Instructions | 8        |

```
      00 01 02 03 04 05 06 07  08 09 0A 0B 0C 0D 0E 0F
      -- -- -- -- -- -- -- --  -- -- -- -- -- -- -- --
0080:                             3B 94 41 00 01 01 00           ;.A....
0090: 02 00 03 00 37 01 00 02  00 03 00 0C 80 1F 00 0D  ....7...........
00A0: 80 0E 80 0F 80 1F 01 1F  00 10 80 11 80 12 80 1F  ................
00B0: 01 22 01 00                                       ."..            
```

#### Opcodes

```
  0: 0x0089 [0x3B] GET_ENTITY_POSITION(entity=Mame01 (ID: 16794004/0x01004194), x_destination=ExtData[1]->WorkLocal[1], y_destination=ExtData[1]->WorkLocal[2], z_destination=ExtData[1]->WorkLocal[3])
  1: 0x0094 [0x37] UPDATE_EVENT_POSITION_AND_DIR: x=ExtData[1]->WorkLocal[1], z=ExtData[1]->WorkLocal[2], y=ExtData[1]->WorkLocal[3], direction=100.8°*
  2: 0x009D [0x1F] MOVE_ENTITY: EventEntity moves to X=-350.690*, Z=-959.658*, Y=-3.134*
  3: 0x00A5 [0x1F] MOVE_ENTITY: Update entity position (mode=1)
  4: 0x00A7 [0x1F] MOVE_ENTITY: EventEntity moves to X=-366.139*, Z=-964.031*, Y=-3.292*
  5: 0x00AF [0x1F] MOVE_ENTITY: Update entity position (mode=1)
  6: 0x00B1 [0x22] ENTITY_HIDE_FLAG(enabled=0x01)
  7: 0x00B3 [0x00] END_REQSTACK()
```

### Event 65535.4

#### Metadata

| Field        | Value    |
|--------------|----------|
| Entrypoint   | 0x00B4   |
| Data Size    | 27 bytes |
| Instructions | 3        |

```
      00 01 02 03 04 05 06 07  08 09 0A 0B 0C 0D 0E 0F
      -- -- -- -- -- -- -- --  -- -- -- -- -- -- -- --
00B0:             2C F8 FF FF  7F F8 FF FF 7F 64 65 61      ,........dea
00C0: 64 53 F8 FF FF 7F F8 FF  FF 7F 64 65 61 64 00     dS........dead. 
```

#### Opcodes

```
  0: 0x00B4 [0x2C] CREATE_SCHEDULER_TASK: Create scheduler "dead" with entities [EventEntity, EventEntity]
  1: 0x00C1 [0x53] WAIT_SCHEDULER_TASK: Wait for scheduler "dead" with entities [EventEntity, EventEntity]
  2: 0x00CE [0x00] END_REQSTACK()
```

### Event 65535.5

#### Metadata

| Field        | Value    |
|--------------|----------|
| Entrypoint   | 0x00CF   |
| Data Size    | 27 bytes |
| Instructions | 3        |

```
      00 01 02 03 04 05 06 07  08 09 0A 0B 0C 0D 0E 0F
      -- -- -- -- -- -- -- --  -- -- -- -- -- -- -- --
00C0:                                               2C                 ,
00D0: F8 FF FF 7F F8 FF FF 7F  63 6F 72 70 53 F8 FF FF  ........corpS...
00E0: 7F F8 FF FF 7F 63 6F 72  70 00                    .....corp.      
```

#### Opcodes

```
  0: 0x00CF [0x2C] CREATE_SCHEDULER_TASK: Create scheduler "corp" with entities [EventEntity, EventEntity]
  1: 0x00DC [0x53] WAIT_SCHEDULER_TASK: Wait for scheduler "corp" with entities [EventEntity, EventEntity]
  2: 0x00E9 [0x00] END_REQSTACK()
```

### Event 33

#### Metadata

| Field        | Value    |
|--------------|----------|
| Entrypoint   | 0x00EA   |
| Data Size    | 13 bytes |
| Instructions | 3        |

```
      00 01 02 03 04 05 06 07  08 09 0A 0B 0C 0D 0E 0F
      -- -- -- -- -- -- -- --  -- -- -- -- -- -- -- --
00E0:                                92 01 F8 FF FF 7F            ......
00F0: 94 01 F8 FF FF 7F 00                              .......         
```

#### Opcodes

```
  0: 0x00EA [0x92] EventEntity->Render.Flags3 ^= 0x01
  1: 0x00F0 [0x94] EventEntity->Render.Flags3 ^= 0x01
  2: 0x00F6 [0x00] END_REQSTACK()
```

### Event 65535.6

#### Metadata

| Field        | Value    |
|--------------|----------|
| Entrypoint   | 0x00F7   |
| Data Size    | 10 bytes |
| Instructions | 2        |

```
      00 01 02 03 04 05 06 07  08 09 0A 0B 0C 0D 0E 0F
      -- -- -- -- -- -- -- --  -- -- -- -- -- -- -- --
00F0:                      37  13 80 14 80 15 80 16 80         7........
0100: 00                                                .               
```

#### Opcodes

```
  0: 0x00F7 [0x37] UPDATE_EVENT_POSITION_AND_DIR: x=-343.787*, z=-971.535*, y=-3.207*, direction=274.8°*
  1: 0x0100 [0x00] END_REQSTACK()
```

### Event 65535.7

#### Metadata

| Field        | Value    |
|--------------|----------|
| Entrypoint   | 0x0101   |
| Data Size    | 23 bytes |
| Instructions | 5        |

```
      00 01 02 03 04 05 06 07  08 09 0A 0B 0C 0D 0E 0F
      -- -- -- -- -- -- -- --  -- -- -- -- -- -- -- --
0100:    37 17 80 18 80 19 80  1A 80 32 06 80 1F 00 1B   7........2.....
0110: 80 1C 80 1D 80 1F 01 00                           ........        
```

#### Opcodes

```
  0: 0x0101 [0x37] UPDATE_EVENT_POSITION_AND_DIR: x=-351.679*, z=-973.463*, y=-3.128*, direction=210.6°*
  1: 0x010A [0x32] ExtData[1]->MainSpeed = 40* * 0.1
  2: 0x010D [0x1F] MOVE_ENTITY: EventEntity moves to X=-363.502*, Z=-960.134*, Y=-3.398*
  3: 0x0115 [0x1F] MOVE_ENTITY: Update entity position (mode=1)
  4: 0x0117 [0x00] END_REQSTACK()
```

### Event 37

#### Metadata

| Field        | Value   |
|--------------|---------|
| Entrypoint   | 0x0118  |
| Data Size    | 1 bytes |
| Instructions | 1       |

```
      00 01 02 03 04 05 06 07  08 09 0A 0B 0C 0D 0E 0F
      -- -- -- -- -- -- -- --  -- -- -- -- -- -- -- --
0110:                          00                               .       
```

#### Opcodes

```
  0: 0x0118 [0x00] END_REQSTACK()
```

### Event 65535.8

#### Metadata

| Field        | Value    |
|--------------|----------|
| Entrypoint   | 0x0119   |
| Data Size    | 10 bytes |
| Instructions | 2        |

```
      00 01 02 03 04 05 06 07  08 09 0A 0B 0C 0D 0E 0F
      -- -- -- -- -- -- -- --  -- -- -- -- -- -- -- --
0110:                             37 1E 80 1F 80 20 80           7.... .
0120: 21 80 00                                          !..             
```

#### Opcodes

```
  0: 0x0119 [0x37] UPDATE_EVENT_POSITION_AND_DIR: x=-627.791*, z=-616.429*, y=0.209*, direction=51.7°*
  1: 0x0122 [0x00] END_REQSTACK()
```

### Event 65535.9

#### Metadata

| Field        | Value    |
|--------------|----------|
| Entrypoint   | 0x0123   |
| Data Size    | 30 bytes |
| Instructions | 8        |

```
      00 01 02 03 04 05 06 07  08 09 0A 0B 0C 0D 0E 0F
      -- -- -- -- -- -- -- --  -- -- -- -- -- -- -- --
0120:          32 06 80 1F 00  22 80 23 80 24 80 1F 01     2....".#.$...
0130: 1F 00 25 80 26 80 27 80  1F 01 6F 1E 9C 41 00 01  ..%.&.'...o..A..
0140: 00                                                .               
```

#### Opcodes

```
  0: 0x0123 [0x32] ExtData[1]->MainSpeed = 40* * 0.1
  1: 0x0126 [0x1F] MOVE_ENTITY: EventEntity moves to X=-625.918*, Z=-620.696*, Y=0.111*
  2: 0x012E [0x1F] MOVE_ENTITY: Update entity position (mode=1)
  3: 0x0130 [0x1F] MOVE_ENTITY: EventEntity moves to X=-625.526*, Z=-621.942*, Y=0.054*
  4: 0x0138 [0x1F] MOVE_ENTITY: Update entity position (mode=1)
  5: 0x013A [0x6F] WAIT_FRAME_DELAY: Yield until WaitTime reaches zero
  6: 0x013B [0x1E] EventEntity looks at Novice Moogle (ID: 16794012/0x0100419C) and starts talking
  7: 0x0140 [0x00] END_REQSTACK()
```

### Event 65535.10

#### Metadata

| Field        | Value    |
|--------------|----------|
| Entrypoint   | 0x0141   |
| Data Size    | 17 bytes |
| Instructions | 6        |

```
      00 01 02 03 04 05 06 07  08 09 0A 0B 0C 0D 0E 0F
      -- -- -- -- -- -- -- --  -- -- -- -- -- -- -- --
0140:    32 06 80 1F 00 28 80  29 80 2A 80 1F 01 6F 22   2....(.).*...o"
0150: 01 00                                             ..              
```

#### Opcodes

```
  0: 0x0141 [0x32] ExtData[1]->MainSpeed = 40* * 0.1
  1: 0x0144 [0x1F] MOVE_ENTITY: EventEntity moves to X=-629.864*, Z=-629.545*, Y=0.275*
  2: 0x014C [0x1F] MOVE_ENTITY: Update entity position (mode=1)
  3: 0x014E [0x6F] WAIT_FRAME_DELAY: Yield until WaitTime reaches zero
  4: 0x014F [0x22] ENTITY_HIDE_FLAG(enabled=0x01)
  5: 0x0151 [0x00] END_REQSTACK()
```

### Event 65535.11

#### Metadata

| Field        | Value    |
|--------------|----------|
| Entrypoint   | 0x0152   |
| Data Size    | 18 bytes |
| Instructions | 4        |

```
      00 01 02 03 04 05 06 07  08 09 0A 0B 0C 0D 0E 0F
      -- -- -- -- -- -- -- --  -- -- -- -- -- -- -- --
0150:       22 00 2F 00 F8 FF  FF 7F 6C F8 FF FF 7F 2B    "./.....l....+
0160: 80 2C 80 00                                       .,..            
```

#### Opcodes

```
  0: 0x0152 [0x22] ENTITY_HIDE_FLAG(enabled=0x00)
  1: 0x0154 [0x2F] EventEntity->Render.Flags0 &= ~0x80000 // Bit 19
  2: 0x015A [0x6C] FADE_ENTITY_COLOR(entity_id=EventEntity, end_alpha=0*, fade_time=1*)
  3: 0x0163 [0x00] END_REQSTACK()
```

### Event 65535.12

#### Metadata

| Field        | Value   |
|--------------|---------|
| Entrypoint   | 0x0164  |
| Data Size    | 9 bytes |
| Instructions | 3       |

```
      00 01 02 03 04 05 06 07  08 09 0A 0B 0C 0D 0E 0F
      -- -- -- -- -- -- -- --  -- -- -- -- -- -- -- --
0160:             22 00 2F 00  F8 FF FF 7F 00               "./......   
```

#### Opcodes

```
  0: 0x0164 [0x22] ENTITY_HIDE_FLAG(enabled=0x00)
  1: 0x0166 [0x2F] EventEntity->Render.Flags0 &= ~0x80000 // Bit 19
  2: 0x016C [0x00] END_REQSTACK()
```

### Event 65535.13

#### Metadata

| Field        | Value   |
|--------------|---------|
| Entrypoint   | 0x016D  |
| Data Size    | 1 bytes |
| Instructions | 1       |

```
      00 01 02 03 04 05 06 07  08 09 0A 0B 0C 0D 0E 0F
      -- -- -- -- -- -- -- --  -- -- -- -- -- -- -- --
0160:                                         00                     .  
```

#### Opcodes

```
  0: 0x016D [0x00] END_REQSTACK()
```
