# 16793990 - Toh Zonikki

## Common Data

| Field            | Value              |
|------------------|--------------------|
| Zone             | Bibiki Bay (ID: 4) |
| Block Size       | 596 bytes          |
| Total Events     | 5                  |
| References Count | 39                 |

## List of Events

| Event ID              | Entrypoint   |   Size |   Instructions |
|-----------------------|--------------|--------|----------------|
| [65535](#event-65535) | 0x0000       |      1 |              1 |
| [28](#event-28)       | 0x0001       |    148 |             45 |
| [29](#event-29)       | 0x0095       |    221 |             66 |
| [30](#event-30)       | 0x0172       |     20 |              8 |
| [31](#event-31)       | 0x0186       |     12 |              6 |

## DAT References (imed_data)

|   Index | Hex Value   |   Dec Value |
|---------|-------------|-------------|
|       0 | 0x01F4      |         500 |
|       1 | 0x1C4B      |        7243 |
|       2 | 0x1C4C      |        7244 |
|       3 | 0x0001      |           1 |
|       4 | 0x0000      |           0 |
|       5 | 0x01FF      |         511 |
|       6 | 0x1C52      |        7250 |
|       7 | 0x1C53      |        7251 |
|       8 | 0x0002      |           2 |
|       9 | 0x18FE      |        6398 |
|      10 | 0x1C54      |        7252 |
|      11 | 0x1C4D      |        7245 |
|      12 | 0x1C4E      |        7246 |
|      13 | 0x0032      |          50 |
|      14 | 0x1C4F      |        7247 |
|      15 | 0x1C50      |        7248 |
|      16 | 0x1C51      |        7249 |
|      17 | 0x1C55      |        7253 |
|      18 | 0x1C56      |        7254 |
|      19 | 0x1C5B      |        7259 |
|      20 | 0x0005      |           5 |
|      21 | 0x00C8      |         200 |
|      22 | 0x1C70      |        7280 |
|      23 | 0x1C71      |        7281 |
|      24 | 0x1C69      |        7273 |
|      25 | 0x1C6A      |        7274 |
|      26 | 0x1C6B      |        7275 |
|      27 | 0x1C6C      |        7276 |
|      28 | 0x1C6E      |        7278 |
|      29 | 0x0003      |           3 |
|      30 | 0x1C6D      |        7277 |
|      31 | 0x1C58      |        7256 |
|      32 | 0x1C57      |        7255 |
|      33 | 0x1C5F      |        7263 |
|      34 | 0x1C5E      |        7262 |
|      35 | 0x1C60      |        7264 |
|      36 | 0x1C5C      |        7260 |
|      37 | 0x1C5D      |        7261 |
|      38 | 0x1C5A      |        7258 |

## String References

- **6398**: You do not have enough gil.
- **7243**: Welcome to Purrrgonorgo, pardner! How'd ya like to try yer hand at some clammin'? It'll only cost ya a mere $0 gil!
- **7244**: Ready to get clammin'? [I was born to clam./Clamming's for wimps!/What is all this clamming?]
- **7245**: What's clammin'? What arrre you, one of them city folk? Where do you think clams come from, [boy/girl], some magical clam factory in the sky? If ya want a clam, you hafta dig it from the sand!
- **7246**: Now if ya want, I can let ya borrow this $3. Use it, and you'll be swimmin' in shellfish!
- **7247**: Once ya dig 'em up, jus' pop all the clams into the bucket that comes with the kit. That tin beauty'll hold up near $1 ponzes.
- **7248**: When you've had enough clammin' and you'rrre ready to thrrrow in the towel, jus' mosey on over here and I'll wrap yer clams up for the trip back to the mainland.
- **7249**: So, whaddaya say?
- **7250**: Spoken like a true clammer! Here's yer $3.
- **7251**: Rememberrr, I'm loanin' ya this kit outta the kindness of my heart. Ya don't go leavin' this here island untils you've given her back to me, hear?
- **7252**: Well, that jus' leaves more clams fer me now, don't it?
- **7253**: Had enough clammin' fer one day now, have we?
- **7254**: Quit yer clammin'? [I'm all clammed out./I've still got a few clams in me./Clammin' confuses me...]
- **7255**: Alrighty then. Let me git yer clams wrrrapped up fer the voy-age home.
- **7256**: Here ya go! Ya'll come back now, hear?
- **7258**: You git yer bag ready, pardner? Well alrighty then. Here'rrre yer clams.
- **7259**: What the... There ain't no clams in this here bucket o' yers! What? Was the clammin' too much fer ya? Well, come on back when ya think you've got the guts to be a real clammer.
- **7260**: Why you ungrateful sonnuva... You gone busted a hole in my bucket! An' that was my grandpappy's favorite one!
- **7261**: Gimme that $3 back right now, [mister/missy]. Dagnabbit, this here's gonna take up on three hours to fix.
- **7262**: I'd say this bucket here weighs about $0 ponze[/s]. Be careful how much you be puttin' in that baby. You bust my bucket and I'll pound yer noggin into next Firesday.
- **7263**: Whaddaya think I am, stoopid? There ain't no clams in this here bucket! It don't weigh nuthin'!
- **7264**: Try lookin' fer seashells by the seashore. That's where ya'll find the clams hidin'.
- **7273**: Well, I'll be a buffalo at a barrrbeque! You be one mighty-fine clammer...for a city-[boy/girl].
- **7274**: I thinks I can trust the likes of you with this new fandangled bucket. It can hold up to $3 ponzes!
- **7275**: Whaddaya say, parrrdner? Wanna keep on clammin' with this new baby?
- **7276**: Move your catch to the new bucket? [Yes./No.]
- **7277**: Why, you ain't nuthin' but a yellow-bellied... <Sigh>... Alrighty then. Let me git yer clams wrrrapped up fer the voy-age home.
- **7278**: That's the spirit! Now git back out there!
- **7280**: Why, this darn bucket's heavier than my grandpappy's gallstones. I'm gonna have a helluva time wrrrappin' all these goodies up fer ya.
- **7281**: Here ya go! Ya'll come back now, hear?

## Events

### Event 65535

#### Metadata

| Field        | Value   |
|--------------|---------|
| Entrypoint   | 0x0000  |
| Data Size    | 1 bytes |
| Instructions | 1       |

```
      00 01 02 03 04 05 06 07  08 09 0A 0B 0C 0D 0E 0F
      -- -- -- -- -- -- -- --  -- -- -- -- -- -- -- --
0000: 00                                                .               
```

#### Opcodes

```
  0: 0x0000 [0x00] END_REQSTACK()
```

### Event 28

#### Metadata

| Field        | Value     |
|--------------|-----------|
| Entrypoint   | 0x0001    |
| Data Size    | 148 bytes |
| Instructions | 44        |

```
      00 01 02 03 04 05 06 07  08 09 0A 0B 0C 0D 0E 0F
      -- -- -- -- -- -- -- --  -- -- -- -- -- -- -- --
0000:    1E F0 FF FF 7F 03 02  10 00 80 1D 01 80 23 24   .............#$
0010: 02 80 03 80 04 80 25 02  00 10 04 80 00 53 00 42  ......%......S.B
0020: 43 00 43 01 02 03 10 03  80 80 41 00 03 02 10 05  C.C.......A.....
0030: 80 1D 06 80 23 1D 07 80  23 03 01 10 03 80 01 50  ....#...#......P
0040: 00 02 03 10 08 80 80 50  00 48 09 80 23 01 50 00  .......P.H..#.P.
0050: 01 93 00 02 00 10 03 80  00 62 00 1D 0A 80 23 01  .........b....#.
0060: 93 00 02 00 10 08 80 00  93 00 1D 0B 80 23 03 02  .............#..
0070: 10 05 80 1D 0C 80 23 03  02 10 05 80 03 03 10 0D  ......#.........
0080: 80 1D 0E 80 23 1D 0F 80  23 1D 10 80 23 01 0F 00  ....#...#...#...
0090: 01 93 00 21 00                                    ...!.           
```

#### Opcodes

```
  0: 0x0001 [0x1E] EventEntity looks at LocalPlayer and starts talking
  1: 0x0006 [0x03] Work_Zone[2] = 500*
  2: 0x000B [0x1D] PRINT_EVENT_MESSAGE(message_id=7243*)
    → "Welcome to Purrrgonorgo, pardner! How'd ya like to try yer hand at some clammin'? It'll only cost ya a mere $0 gil!"
  3: 0x000E [0x23] WAIT_FOR_DIALOG_INTERACTION
  4: 0x000F [0x24] CREATE_DIALOG(message_id=7244*, default_option=1*, option_flags=0*)
    → "Ready to get clammin'? [I was born to clam./Clamming's for wimps!/What is all this clamming?]"
  5: 0x0016 [0x25] WAIT_DIALOG_SELECT()
  6: 0x0017 [0x02] IF !(Work_Zone[0] == 0*) GOTO 0x0053
  7: 0x001F [0x42] SET_CLI_EVENT_CANCEL_DATA()
  8: 0x0020 [0x43] SEND_EVENT_UPDATE: Send pending tag to server (packet 0x005B)
  9: 0x0022 [0x43] SEND_EVENT_UPDATE: Check pending flag (skip if not pending)
 10: 0x0024 [0x02] IF !(Work_Zone[3] == 1*) GOTO 0x0041
 11: 0x002C [0x03] Work_Zone[2] = 511*
 12: 0x0031 [0x1D] PRINT_EVENT_MESSAGE(message_id=7250*)
    → "Spoken like a true clammer! Here's yer $3."
 13: 0x0034 [0x23] WAIT_FOR_DIALOG_INTERACTION
 14: 0x0035 [0x1D] PRINT_EVENT_MESSAGE(message_id=7251*)
    → "Rememberrr, I'm loanin' ya this kit outta the kindness of my heart. Ya don't go leavin' this here island untils you've given her back to me, hear?"
 15: 0x0038 [0x23] WAIT_FOR_DIALOG_INTERACTION
 16: 0x0039 [0x03] Work_Zone[1] = 1*
 17: 0x003E [0x01] GOTO 0x0050
 18: 0x0041 [0x02] IF !(Work_Zone[3] == 2*) GOTO 0x0050
 19: 0x0049 [0x48] [System] [6398*]:
    → "You do not have enough gil."
 20: 0x004C [0x23] WAIT_FOR_DIALOG_INTERACTION
 21: 0x004D [0x01] GOTO 0x0050

SUBROUTINE_0050:
 22: 0x0050 [0x01] GOTO 0x0093
 23: 0x0053 [0x02] IF !(Work_Zone[0] == 1*) GOTO 0x0062
 24: 0x005B [0x1D] PRINT_EVENT_MESSAGE(message_id=7252*)
    → "Well, that jus' leaves more clams fer me now, don't it?"
 25: 0x005E [0x23] WAIT_FOR_DIALOG_INTERACTION
 26: 0x005F [0x01] GOTO 0x0093
 27: 0x0062 [0x02] IF !(Work_Zone[0] == 2*) GOTO 0x0093
 28: 0x006A [0x1D] PRINT_EVENT_MESSAGE(message_id=7245*)
    → "What's clammin'? What arrre you, one of them city folk? Where do you think clams come from, [boy/girl], some magical clam factory in the sky? If ya want a clam, you hafta dig it from the sand!"
 29: 0x006D [0x23] WAIT_FOR_DIALOG_INTERACTION
 30: 0x006E [0x03] Work_Zone[2] = 511*
 31: 0x0073 [0x1D] PRINT_EVENT_MESSAGE(message_id=7246*)
    → "Now if ya want, I can let ya borrow this $3. Use it, and you'll be swimmin' in shellfish!"
 32: 0x0076 [0x23] WAIT_FOR_DIALOG_INTERACTION
 33: 0x0077 [0x03] Work_Zone[2] = 511*
 34: 0x007C [0x03] Work_Zone[3] = 50*
 35: 0x0081 [0x1D] PRINT_EVENT_MESSAGE(message_id=7247*)
    → "Once ya dig 'em up, jus' pop all the clams into the bucket that comes with the kit. That tin beauty'll hold up near $1 ponzes."
 36: 0x0084 [0x23] WAIT_FOR_DIALOG_INTERACTION
 37: 0x0085 [0x1D] PRINT_EVENT_MESSAGE(message_id=7248*)
    → "When you've had enough clammin' and you'rrre ready to thrrrow in the towel, jus' mosey on over here and I'll wrap yer clams up for the trip back to the mainland."
 38: 0x0088 [0x23] WAIT_FOR_DIALOG_INTERACTION
 39: 0x0089 [0x1D] PRINT_EVENT_MESSAGE(message_id=7249*)
    → "So, whaddaya say?"
 40: 0x008C [0x23] WAIT_FOR_DIALOG_INTERACTION
 41: 0x008D [0x01] GOTO 0x000F

SUBROUTINE_0093:
 42: 0x0093 [0x21] END_EVENT
 43: 0x0094 [0x00] END_REQSTACK()
```

#### Data or dead code:

```
# Dead code (unreachable instructions):
     0x0090 [0x01] GOTO 0x0093
```

### Event 29

#### Metadata

| Field        | Value     |
|--------------|-----------|
| Entrypoint   | 0x0095    |
| Data Size    | 221 bytes |
| Instructions | 66        |

```
      00 01 02 03 04 05 06 07  08 09 0A 0B 0C 0D 0E 0F
      -- -- -- -- -- -- -- --  -- -- -- -- -- -- -- --
0090:                1E F0 FF  FF 7F 1D 11 80 23 24 12       ........#$.
00A0: 80 03 80 04 80 25 02 00  10 04 80 00 3F 01 42 43  .....%......?.BC
00B0: 00 43 01 02 02 10 04 80  00 C7 00 1D 13 80 23 03  .C............#.
00C0: 01 10 08 80 01 3C 01 07  02 10 14 80 02 02 10 04  .....<..........
00D0: 10 04 2F 01 02 04 10 15  80 04 EC 00 1D 16 80 23  ../............#
00E0: 1D 17 80 23 03 01 10 08  80 01 2C 01 1D 18 80 23  ...#......,....#
00F0: 1D 19 80 23 1D 1A 80 23  24 1B 80 04 80 04 80 25  ...#...#$......%
0100: 02 00 10 04 80 00 14 01  1D 1C 80 23 03 01 10 1D  ...........#....
0110: 80 01 2C 01 02 00 10 03  80 00 2C 01 1D 1E 80 23  ..,.......,....#
0120: 1D 1F 80 23 03 01 10 08  80 01 2C 01 01 3C 01 1D  ...#......,..<..
0130: 20 80 23 1D 1F 80 23 03  01 10 08 80 01 70 01 02   .#...#......p..
0140: 00 10 03 80 00 61 01 43  00 43 01 02 02 10 04 80  .....a.C.C......
0150: 00 5A 01 1D 21 80 23 01  5E 01 1D 22 80 23 01 70  .Z..!.#.^..".#.p
0160: 01 02 00 10 08 80 00 70  01 1D 23 80 23 01 70 01  .......p..#.#.p.
0170: 21 00                                             !.              
```

#### Opcodes

```
  0: 0x0095 [0x1E] EventEntity looks at LocalPlayer and starts talking
  1: 0x009A [0x1D] PRINT_EVENT_MESSAGE(message_id=7253*)
    → "Had enough clammin' fer one day now, have we?"
  2: 0x009D [0x23] WAIT_FOR_DIALOG_INTERACTION
  3: 0x009E [0x24] CREATE_DIALOG(message_id=7254*, default_option=1*, option_flags=0*)
    → "Quit yer clammin'? [I'm all clammed out./I've still got a few clams in me./Clammin' confuses me...]"
  4: 0x00A5 [0x25] WAIT_DIALOG_SELECT()
  5: 0x00A6 [0x02] IF !(Work_Zone[0] == 0*) GOTO 0x013F
  6: 0x00AE [0x42] SET_CLI_EVENT_CANCEL_DATA()
  7: 0x00AF [0x43] SEND_EVENT_UPDATE: Send pending tag to server (packet 0x005B)
  8: 0x00B1 [0x43] SEND_EVENT_UPDATE: Check pending flag (skip if not pending)
  9: 0x00B3 [0x02] IF !(Work_Zone[2] == 0*) GOTO 0x00C7
 10: 0x00BB [0x1D] PRINT_EVENT_MESSAGE(message_id=7259*)
    → "What the... There ain't no clams in this here bucket o' yers! What? Was the clammin' too much fer ya? Well, come on back when ya think you've got the guts to be a real clammer."
 11: 0x00BE [0x23] WAIT_FOR_DIALOG_INTERACTION
 12: 0x00BF [0x03] Work_Zone[1] = 2*
 13: 0x00C4 [0x01] GOTO 0x013C
 14: 0x00C7 [0x07] Work_Zone[2] += 5*
 15: 0x00CC [0x02] IF !(Work_Zone[2] < Work_Zone[4]) GOTO 0x012F
 16: 0x00D4 [0x02] IF !(Work_Zone[4] < 200*) GOTO 0x00EC
 17: 0x00DC [0x1D] PRINT_EVENT_MESSAGE(message_id=7280*)
    → "Why, this darn bucket's heavier than my grandpappy's gallstones. I'm gonna have a helluva time wrrrappin' all these goodies up fer ya."
 18: 0x00DF [0x23] WAIT_FOR_DIALOG_INTERACTION
 19: 0x00E0 [0x1D] PRINT_EVENT_MESSAGE(message_id=7281*)
    → "Here ya go! Ya'll come back now, hear?"
 20: 0x00E3 [0x23] WAIT_FOR_DIALOG_INTERACTION
 21: 0x00E4 [0x03] Work_Zone[1] = 2*
 22: 0x00E9 [0x01] GOTO 0x012C
 23: 0x00EC [0x1D] PRINT_EVENT_MESSAGE(message_id=7273*)
    → "Well, I'll be a buffalo at a barrrbeque! You be one mighty-fine clammer...for a city-[boy/girl]."
 24: 0x00EF [0x23] WAIT_FOR_DIALOG_INTERACTION
 25: 0x00F0 [0x1D] PRINT_EVENT_MESSAGE(message_id=7274*)
    → "I thinks I can trust the likes of you with this new fandangled bucket. It can hold up to $3 ponzes!"
 26: 0x00F3 [0x23] WAIT_FOR_DIALOG_INTERACTION
 27: 0x00F4 [0x1D] PRINT_EVENT_MESSAGE(message_id=7275*)
    → "Whaddaya say, parrrdner? Wanna keep on clammin' with this new baby?"
 28: 0x00F7 [0x23] WAIT_FOR_DIALOG_INTERACTION
 29: 0x00F8 [0x24] CREATE_DIALOG(message_id=7276*, default_option=0*, option_flags=0*)
    → "Move your catch to the new bucket? [Yes./No.]"
 30: 0x00FF [0x25] WAIT_DIALOG_SELECT()
 31: 0x0100 [0x02] IF !(Work_Zone[0] == 0*) GOTO 0x0114
 32: 0x0108 [0x1D] PRINT_EVENT_MESSAGE(message_id=7278*)
    → "That's the spirit! Now git back out there!"
 33: 0x010B [0x23] WAIT_FOR_DIALOG_INTERACTION
 34: 0x010C [0x03] Work_Zone[1] = 3*
 35: 0x0111 [0x01] GOTO 0x012C
 36: 0x0114 [0x02] IF !(Work_Zone[0] == 1*) GOTO 0x012C
 37: 0x011C [0x1D] PRINT_EVENT_MESSAGE(message_id=7277*)
    → "Why, you ain't nuthin' but a yellow-bellied... <Sigh>... Alrighty then. Let me git yer clams wrrrapped up fer the voy-age home."
 38: 0x011F [0x23] WAIT_FOR_DIALOG_INTERACTION
 39: 0x0120 [0x1D] PRINT_EVENT_MESSAGE(message_id=7256*)
    → "Here ya go! Ya'll come back now, hear?"
 40: 0x0123 [0x23] WAIT_FOR_DIALOG_INTERACTION
 41: 0x0124 [0x03] Work_Zone[1] = 2*
 42: 0x0129 [0x01] GOTO 0x012C

SUBROUTINE_012C:
 43: 0x012C [0x01] GOTO 0x013C
 44: 0x012F [0x1D] PRINT_EVENT_MESSAGE(message_id=7255*)
    → "Alrighty then. Let me git yer clams wrrrapped up fer the voy-age home."
 45: 0x0132 [0x23] WAIT_FOR_DIALOG_INTERACTION
 46: 0x0133 [0x1D] PRINT_EVENT_MESSAGE(message_id=7256*)
    → "Here ya go! Ya'll come back now, hear?"
 47: 0x0136 [0x23] WAIT_FOR_DIALOG_INTERACTION
 48: 0x0137 [0x03] Work_Zone[1] = 2*

SUBROUTINE_013C:
 49: 0x013C [0x01] GOTO 0x0170
 50: 0x013F [0x02] IF !(Work_Zone[0] == 1*) GOTO 0x0161
 51: 0x0147 [0x43] SEND_EVENT_UPDATE: Send pending tag to server (packet 0x005B)
 52: 0x0149 [0x43] SEND_EVENT_UPDATE: Check pending flag (skip if not pending)
 53: 0x014B [0x02] IF !(Work_Zone[2] == 0*) GOTO 0x015A
 54: 0x0153 [0x1D] PRINT_EVENT_MESSAGE(message_id=7263*)
    → "Whaddaya think I am, stoopid? There ain't no clams in this here bucket! It don't weigh nuthin'!"
 55: 0x0156 [0x23] WAIT_FOR_DIALOG_INTERACTION
 56: 0x0157 [0x01] GOTO 0x015E
 57: 0x015A [0x1D] PRINT_EVENT_MESSAGE(message_id=7262*)
    → "I'd say this bucket here weighs about $0 ponze[/s]. Be careful how much you be puttin' in that baby. You bust my bucket and I'll pound yer noggin into next Firesday."
 58: 0x015D [0x23] WAIT_FOR_DIALOG_INTERACTION

SUBROUTINE_015E:
 59: 0x015E [0x01] GOTO 0x0170
 60: 0x0161 [0x02] IF !(Work_Zone[0] == 2*) GOTO 0x0170
 61: 0x0169 [0x1D] PRINT_EVENT_MESSAGE(message_id=7264*)
    → "Try lookin' fer seashells by the seashore. That's where ya'll find the clams hidin'."
 62: 0x016C [0x23] WAIT_FOR_DIALOG_INTERACTION
 63: 0x016D [0x01] GOTO 0x0170

SUBROUTINE_0170:
 64: 0x0170 [0x21] END_EVENT
 65: 0x0171 [0x00] END_REQSTACK()
```

### Event 30

#### Metadata

| Field        | Value    |
|--------------|----------|
| Entrypoint   | 0x0172   |
| Data Size    | 20 bytes |
| Instructions | 8        |

```
      00 01 02 03 04 05 06 07  08 09 0A 0B 0C 0D 0E 0F
      -- -- -- -- -- -- -- --  -- -- -- -- -- -- -- --
0170:       1E F0 FF FF 7F 1D  24 80 23 03 02 10 05 80    ......$.#.....
0180: 1D 25 80 23 21 00                                 .%.#!.          
```

#### Opcodes

```
  0: 0x0172 [0x1E] EventEntity looks at LocalPlayer and starts talking
  1: 0x0177 [0x1D] PRINT_EVENT_MESSAGE(message_id=7260*)
    → "Why you ungrateful sonnuva... You gone busted a hole in my bucket! An' that was my grandpappy's favorite one!"
  2: 0x017A [0x23] WAIT_FOR_DIALOG_INTERACTION
  3: 0x017B [0x03] Work_Zone[2] = 511*
  4: 0x0180 [0x1D] PRINT_EVENT_MESSAGE(message_id=7261*)
    → "Gimme that $3 back right now, [mister/missy]. Dagnabbit, this here's gonna take up on three hours to fix."
  5: 0x0183 [0x23] WAIT_FOR_DIALOG_INTERACTION
  6: 0x0184 [0x21] END_EVENT
  7: 0x0185 [0x00] END_REQSTACK()
```

### Event 31

#### Metadata

| Field        | Value    |
|--------------|----------|
| Entrypoint   | 0x0186   |
| Data Size    | 12 bytes |
| Instructions | 6        |

```
      00 01 02 03 04 05 06 07  08 09 0A 0B 0C 0D 0E 0F
      -- -- -- -- -- -- -- --  -- -- -- -- -- -- -- --
0180:                   1E F0  FF FF 7F 42 1D 26 80 23        .....B.&.#
0190: 21 00                                             !.              
```

#### Opcodes

```
  0: 0x0186 [0x1E] EventEntity looks at LocalPlayer and starts talking
  1: 0x018B [0x42] SET_CLI_EVENT_CANCEL_DATA()
  2: 0x018C [0x1D] PRINT_EVENT_MESSAGE(message_id=7258*)
    → "You git yer bag ready, pardner? Well alrighty then. Here'rrre yer clams."
  3: 0x018F [0x23] WAIT_FOR_DIALOG_INTERACTION
  4: 0x0190 [0x21] END_EVENT
  5: 0x0191 [0x00] END_REQSTACK()
```
