# 16793989

## Common Data

| Field            | Value              |
|------------------|--------------------|
| Zone             | Bibiki Bay (ID: 4) |
| Block Size       | 256 bytes          |
| Total Events     | 10                 |
| References Count | 5                  |

## List of Events

| Event ID              | Entrypoint   |   Size |   Instructions |
|-----------------------|--------------|--------|----------------|
| [65535](#event-65535) | 0x0000       |      1 |              1 |
| [20](#event-20)       | 0x0001       |     12 |              2 |
| [21](#event-21)       | 0x000D       |     12 |              2 |
| [22](#event-22)       | 0x0019       |     12 |              2 |
| [23](#event-23)       | 0x0025       |     12 |              2 |
| [24](#event-24)       | 0x0031       |     12 |              2 |
| [25](#event-25)       | 0x003D       |     12 |              2 |
| [26](#event-26)       | 0x0049       |     12 |              2 |
| [27](#event-27)       | 0x0055       |     12 |              2 |
| [42](#event-42)       | 0x0061       |     80 |             16 |

## DAT References (imed_data)

|   Index | Hex Value   |   Dec Value |
|---------|-------------|-------------|
|       0 | 0x01F4      |         500 |
|       1 | 0x0000      |           0 |
|       2 | 0x0080      |         128 |
|       3 | 0x0006      |           6 |
|       4 | 0x000C      |          12 |

## Events

### Event 65535

#### Metadata

| Field        | Value   |
|--------------|---------|
| Entrypoint   | 0x0000  |
| Data Size    | 1 bytes |
| Instructions | 1       |

```
      00 01 02 03 04 05 06 07  08 09 0A 0B 0C 0D 0E 0F
      -- -- -- -- -- -- -- --  -- -- -- -- -- -- -- --
0000: 00                                                .               
```

#### Opcodes

```
  0: 0x0000 [0x00] END_REQSTACK()
```

### Event 20

#### Metadata

| Field        | Value    |
|--------------|----------|
| Entrypoint   | 0x0001   |
| Data Size    | 12 bytes |
| Instructions | 2        |

```
      00 01 02 03 04 05 06 07  08 09 0A 0B 0C 0D 0E 0F
      -- -- -- -- -- -- -- --  -- -- -- -- -- -- -- --
0000:    3B 87 41 00 01 00 00  02 00 01 00 00            ;.A.........   
```

#### Opcodes

```
  0: 0x0001 [0x3B] GET_ENTITY_POSITION(entity=Clamming Point (ID: 16793991/0x01004187), x_destination=ExtData[1]->WorkLocal[0], y_destination=ExtData[1]->WorkLocal[2], z_destination=ExtData[1]->WorkLocal[1])
  1: 0x000C [0x00] END_REQSTACK()
```

### Event 21

#### Metadata

| Field        | Value    |
|--------------|----------|
| Entrypoint   | 0x000D   |
| Data Size    | 12 bytes |
| Instructions | 2        |

```
      00 01 02 03 04 05 06 07  08 09 0A 0B 0C 0D 0E 0F
      -- -- -- -- -- -- -- --  -- -- -- -- -- -- -- --
0000:                                         3B 88 41               ;.A
0010: 00 01 00 00 02 00 01 00  00                       .........       
```

#### Opcodes

```
  0: 0x000D [0x3B] GET_ENTITY_POSITION(entity=Clamming Point (ID: 16793992/0x01004188), x_destination=ExtData[1]->WorkLocal[0], y_destination=ExtData[1]->WorkLocal[2], z_destination=ExtData[1]->WorkLocal[1])
  1: 0x0018 [0x00] END_REQSTACK()
```

### Event 22

#### Metadata

| Field        | Value    |
|--------------|----------|
| Entrypoint   | 0x0019   |
| Data Size    | 12 bytes |
| Instructions | 2        |

```
      00 01 02 03 04 05 06 07  08 09 0A 0B 0C 0D 0E 0F
      -- -- -- -- -- -- -- --  -- -- -- -- -- -- -- --
0010:                             3B 89 41 00 01 00 00           ;.A....
0020: 02 00 01 00 00                                    .....           
```

#### Opcodes

```
  0: 0x0019 [0x3B] GET_ENTITY_POSITION(entity=Clamming Point (ID: 16793993/0x01004189), x_destination=ExtData[1]->WorkLocal[0], y_destination=ExtData[1]->WorkLocal[2], z_destination=ExtData[1]->WorkLocal[1])
  1: 0x0024 [0x00] END_REQSTACK()
```

### Event 23

#### Metadata

| Field        | Value    |
|--------------|----------|
| Entrypoint   | 0x0025   |
| Data Size    | 12 bytes |
| Instructions | 2        |

```
      00 01 02 03 04 05 06 07  08 09 0A 0B 0C 0D 0E 0F
      -- -- -- -- -- -- -- --  -- -- -- -- -- -- -- --
0020:                3B 8A 41  00 01 00 00 02 00 01 00       ;.A........
0030: 00                                                .               
```

#### Opcodes

```
  0: 0x0025 [0x3B] GET_ENTITY_POSITION(entity=Clamming Point (ID: 16793994/0x0100418A), x_destination=ExtData[1]->WorkLocal[0], y_destination=ExtData[1]->WorkLocal[2], z_destination=ExtData[1]->WorkLocal[1])
  1: 0x0030 [0x00] END_REQSTACK()
```

### Event 24

#### Metadata

| Field        | Value    |
|--------------|----------|
| Entrypoint   | 0x0031   |
| Data Size    | 12 bytes |
| Instructions | 2        |

```
      00 01 02 03 04 05 06 07  08 09 0A 0B 0C 0D 0E 0F
      -- -- -- -- -- -- -- --  -- -- -- -- -- -- -- --
0030:    3B 8B 41 00 01 00 00  02 00 01 00 00            ;.A.........   
```

#### Opcodes

```
  0: 0x0031 [0x3B] GET_ENTITY_POSITION(entity=Clamming Point (ID: 16793995/0x0100418B), x_destination=ExtData[1]->WorkLocal[0], y_destination=ExtData[1]->WorkLocal[2], z_destination=ExtData[1]->WorkLocal[1])
  1: 0x003C [0x00] END_REQSTACK()
```

### Event 25

#### Metadata

| Field        | Value    |
|--------------|----------|
| Entrypoint   | 0x003D   |
| Data Size    | 12 bytes |
| Instructions | 2        |

```
      00 01 02 03 04 05 06 07  08 09 0A 0B 0C 0D 0E 0F
      -- -- -- -- -- -- -- --  -- -- -- -- -- -- -- --
0030:                                         3B 8C 41               ;.A
0040: 00 01 00 00 02 00 01 00  00                       .........       
```

#### Opcodes

```
  0: 0x003D [0x3B] GET_ENTITY_POSITION(entity=Clamming Point (ID: 16793996/0x0100418C), x_destination=ExtData[1]->WorkLocal[0], y_destination=ExtData[1]->WorkLocal[2], z_destination=ExtData[1]->WorkLocal[1])
  1: 0x0048 [0x00] END_REQSTACK()
```

### Event 26

#### Metadata

| Field        | Value    |
|--------------|----------|
| Entrypoint   | 0x0049   |
| Data Size    | 12 bytes |
| Instructions | 2        |

```
      00 01 02 03 04 05 06 07  08 09 0A 0B 0C 0D 0E 0F
      -- -- -- -- -- -- -- --  -- -- -- -- -- -- -- --
0040:                             3B 8D 41 00 01 00 00           ;.A....
0050: 02 00 01 00 00                                    .....           
```

#### Opcodes

```
  0: 0x0049 [0x3B] GET_ENTITY_POSITION(entity=Clamming Point (ID: 16793997/0x0100418D), x_destination=ExtData[1]->WorkLocal[0], y_destination=ExtData[1]->WorkLocal[2], z_destination=ExtData[1]->WorkLocal[1])
  1: 0x0054 [0x00] END_REQSTACK()
```

### Event 27

#### Metadata

| Field        | Value    |
|--------------|----------|
| Entrypoint   | 0x0055   |
| Data Size    | 12 bytes |
| Instructions | 2        |

```
      00 01 02 03 04 05 06 07  08 09 0A 0B 0C 0D 0E 0F
      -- -- -- -- -- -- -- --  -- -- -- -- -- -- -- --
0050:                3B 8E 41  00 01 00 00 02 00 01 00       ;.A........
0060: 00                                                .               
```

#### Opcodes

```
  0: 0x0055 [0x3B] GET_ENTITY_POSITION(entity=Clamming Point (ID: 16793998/0x0100418E), x_destination=ExtData[1]->WorkLocal[0], y_destination=ExtData[1]->WorkLocal[2], z_destination=ExtData[1]->WorkLocal[1])
  1: 0x0060 [0x00] END_REQSTACK()
```

### Event 42

#### Metadata

| Field        | Value    |
|--------------|----------|
| Entrypoint   | 0x0061   |
| Data Size    | 80 bytes |
| Instructions | 16       |

```
      00 01 02 03 04 05 06 07  08 09 0A 0B 0C 0D 0E 0F
      -- -- -- -- -- -- -- --  -- -- -- -- -- -- -- --
0060:    33 01 32 00 80 36 00  00 02 00 01 00 1E F0 FF   3.2..6.........
0070: FF 7F 6F 70 6C F8 FF FF  7F 01 80 01 80 22 00 80  ..opl........"..
0080: F8 FF FF 7F 6C F8 FF FF  7F 02 80 03 80 3B F0 FF  ....l........;..
0090: FF 7F 00 00 02 00 01 00  08 01 00 00 80 5A 00 00  .............Z..
00A0: 00 02 00 01 00 5A 01 6C  F8 FF FF 7F 01 80 04 80  .....Z.l........
00B0: 00                                                .               
```

#### Opcodes

```
  0: 0x0061 [0x33] EventEntity->Render.Flags0 |= 0x200000 // Bit 21 (flag=0x01)
  1: 0x0063 [0x32] ExtData[1]->MainSpeed = 500* * 0.1
  2: 0x0066 [0x36] SET_ENTITY_EVENT_POSITION(pos_x=ExtData[1]->WorkLocal[0], pos_z=ExtData[1]->WorkLocal[2], pos_y=ExtData[1]->WorkLocal[1])
  3: 0x006D [0x1E] EventEntity looks at LocalPlayer and starts talking
  4: 0x0072 [0x6F] WAIT_FRAME_DELAY: Yield until WaitTime reaches zero
  5: 0x0073 [0x70] WAIT_ENTITY_RENDER_FLAG: Wait while EventEntity->Render.Flags3 bit 2 is set (cancel turn if not)
  6: 0x0074 [0x6C] FADE_ENTITY_COLOR(entity_id=EventEntity, end_alpha=0*, fade_time=0*)
  7: 0x007D [0x22] ENTITY_HIDE_FLAG(enabled=0x00)
  8: 0x007F [0x80] LOAD_WAIT(entity=EventEntity)
  9: 0x0084 [0x6C] FADE_ENTITY_COLOR(entity_id=EventEntity, end_alpha=128*, fade_time=6*)
 10: 0x008D [0x3B] GET_ENTITY_POSITION(entity=LocalPlayer, x_destination=ExtData[1]->WorkLocal[0], y_destination=ExtData[1]->WorkLocal[2], z_destination=ExtData[1]->WorkLocal[1])
 11: 0x0098 [0x08] ExtData[1]->WorkLocal[1] -= 500*
 12: 0x009D [0x5A] UPDATE_EVENT_POSITION: Set EventEntity MovePosition to X=ExtData[1]->WorkLocal[0], Z=ExtData[1]->WorkLocal[2], Y=ExtData[1]->WorkLocal[1]
 13: 0x00A5 [0x5A] UPDATE_EVENT_POSITION: Move EventEntity incrementally towards MovePosition
 14: 0x00A7 [0x6C] FADE_ENTITY_COLOR(entity_id=EventEntity, end_alpha=0*, fade_time=12*)
 15: 0x00B0 [0x00] END_REQSTACK()
```
