# 0x7FFFFFF0 - Zone Events

## Common Data

| Field            | Value              |
|------------------|--------------------|
| Zone             | Bibiki Bay (ID: 4) |
| Block Size       | 2884 bytes         |
| Total Events     | 43                 |
| References Count | 135                |

## List of Events

| Event ID                   | Entrypoint   |   Size |   Instructions |
|----------------------------|--------------|--------|----------------|
| [65535](#event-65535)      | 0x0000       |      1 |              1 |
| [65534](#event-65534)      | 0x0001       |      1 |              1 |
| [65535.1](#event-655351)   | 0x0002       |      6 |              2 |
| [65535.2](#event-655352)   | 0x0008       |      6 |              2 |
| [65535.3](#event-655353)   | 0x000E       |      6 |              2 |
| [65535.4](#event-655354)   | 0x0014       |      6 |              2 |
| [65535.5](#event-655355)   | 0x001A       |      6 |              2 |
| [10](#event-10)            | 0x0020       |    124 |             14 |
| [11](#event-11)            | 0x009C       |    124 |             14 |
| [14](#event-14)            | 0x0118       |    170 |             24 |
| [15](#event-15)            | 0x01C2       |     81 |             10 |
| [12](#event-12)            | 0x0213       |     15 |              5 |
| [16](#event-16)            | 0x0222       |    142 |             18 |
| [17](#event-17)            | 0x02B0       |     81 |             10 |
| [13](#event-13)            | 0x0301       |     15 |              5 |
| [36](#event-36)            | 0x0310       |    228 |             29 |
| [65535.6](#event-655356)   | 0x03F4       |     10 |              2 |
| [65535.7](#event-655357)   | 0x03FE       |     15 |              5 |
| [65535.8](#event-655358)   | 0x040D       |     10 |              2 |
| [65535.9](#event-655359)   | 0x0417       |     10 |              2 |
| [65535.10](#event-6553510) | 0x0421       |     10 |              2 |
| [65535.11](#event-6553511) | 0x042B       |     10 |              2 |
| [65535.12](#event-6553512) | 0x0435       |     10 |              2 |
| [65535.13](#event-6553513) | 0x043F       |     15 |              5 |
| [65535.14](#event-6553514) | 0x044E       |     10 |              2 |
| [65535.15](#event-6553515) | 0x0458       |     10 |              2 |
| [65535.16](#event-6553516) | 0x0462       |     15 |              5 |
| [65535.17](#event-6553517) | 0x0471       |     10 |              2 |
| [65535.18](#event-6553518) | 0x047B       |     10 |              2 |
| [65535.19](#event-6553519) | 0x0485       |     10 |              2 |
| [65535.20](#event-6553520) | 0x048F       |     10 |              2 |
| [65535.21](#event-6553521) | 0x0499       |     15 |              5 |
| [65535.22](#event-6553522) | 0x04A8       |     10 |              2 |
| [65535.23](#event-6553523) | 0x04B2       |     10 |              2 |
| [65535.24](#event-6553524) | 0x04BC       |     15 |              5 |
| [65535.25](#event-6553525) | 0x04CB       |     10 |              2 |
| [65535.26](#event-6553526) | 0x04D5       |     10 |              2 |
| [65535.27](#event-6553527) | 0x04DF       |     10 |              2 |
| [65535.28](#event-6553528) | 0x04E9       |     10 |              2 |
| [65535.29](#event-6553529) | 0x04F3       |    107 |             23 |
| [65535.30](#event-6553530) | 0x055E       |     37 |              5 |
| [65535.31](#event-6553531) | 0x0583       |     37 |              5 |
| [44](#event-44)            | 0x05A8       |    708 |            108 |

## DAT References (imed_data)

|   Index | Hex Value   |   Dec Value |
|---------|-------------|-------------|
|       0 | 0x00C8      |         200 |
|       1 | 0x0000      |           0 |
|       2 | 0x003D      |          61 |
|       3 | 0x003C      |          60 |
|       4 | 0x1D56      |        7510 |
|       5 | 0x1D57      |        7511 |
|       6 | 0x00E5      |         229 |
|       7 | 0x0065      |         101 |
|       8 | 0x00DB      |         219 |
|       9 | 0x77923     |      489763 |
|      10 | 0xAD0F3     |      708851 |
|      11 | 0xFFFFF445  |  4294964293 |
|      12 | 0x0BF8      |        3064 |
|      13 | 0xFFF9FF72  |  4294573938 |
|      14 | 0xFFFA1602  |  4294579714 |
|      15 | 0xFFFFF448  |  4294964296 |
|      16 | 0x0C14      |        3092 |
|      17 | 0x77A7D     |      490109 |
|      18 | 0xAD1A0     |      709024 |
|      19 | 0x0C0D      |        3085 |
|      20 | 0x001E      |          30 |
|      21 | 0x0269      |         617 |
|      22 | 0x1D4C      |        7500 |
|      23 | 0x00B4      |         180 |
|      24 | 0x1D4B      |        7499 |
|      25 | 0xFFFAB1F2  |  4294619634 |
|      26 | 0xFFF12A85  |  4293995141 |
|      27 | 0xFFFFF326  |  4294964006 |
|      28 | 0x00DE      |         222 |
|      29 | 0x000D      |          13 |
|      30 | 0xFFFAB7B1  |  4294621105 |
|      31 | 0xFFF137C9  |  4293998537 |
|      32 | 0xFFFFF422  |  4294964258 |
|      33 | 0xFFFABA26  |  4294621734 |
|      34 | 0xFFF140B0  |  4294000816 |
|      35 | 0xFFFFF467  |  4294964327 |
|      36 | 0x0DCC      |        3532 |
|      37 | 0xFFFAB968  |  4294621544 |
|      38 | 0xFFF13DE5  |  4294000101 |
|      39 | 0xFFFFF459  |  4294964313 |
|      40 | 0x0356      |         854 |
|      41 | 0xFFFAC1A4  |  4294623652 |
|      42 | 0xFFF14210  |  4294001168 |
|      43 | 0xFFFFF4EE  |  4294964462 |
|      44 | 0x0CC0      |        3264 |
|      45 | 0xFFF6871E  |  4294346526 |
|      46 | 0xFFF55FC4  |  4294270916 |
|      47 | 0xFFFFFE42  |  4294966850 |
|      48 | 0x0C1D      |        3101 |
|      49 | 0xFFF682E8  |  4294345448 |
|      50 | 0xFFF565CF  |  4294272463 |
|      51 | 0xFFFFFEDB  |  4294967003 |
|      52 | 0x0BC7      |        3015 |
|      53 | 0xFFF6830B  |  4294345483 |
|      54 | 0xFFF58E63  |  4294282851 |
|      55 | 0xFFFFFC18  |  4294966296 |
|      56 | 0xFFF681CE  |  4294345166 |
|      57 | 0xFFF56015  |  4294270997 |
|      58 | 0xFFFFFF07  |  4294967047 |
|      59 | 0x0F1F      |        3871 |
|      60 | 0xFFF691F3  |  4294349299 |
|      61 | 0xFFF650D0  |  4294332624 |
|      62 | 0xFFFFF93E  |  4294965566 |
|      63 | 0x0AA1      |        2721 |
|      64 | 0x0028      |          40 |
|      65 | 0xFFF688E2  |  4294346978 |
|      66 | 0xFFF6729B  |  4294341275 |
|      67 | 0xFFFFFB48  |  4294966088 |
|      68 | 0xFFF685D4  |  4294346196 |
|      69 | 0xFFF67848  |  4294342728 |
|      70 | 0xFFFFFC31  |  4294966321 |
|      71 | 0x0A28      |        2600 |
|      72 | 0xFFF681B9  |  4294345145 |
|      73 | 0xFFF67854  |  4294342740 |
|      74 | 0xFFFFFCF9  |  4294966521 |
|      75 | 0x0EBB      |        3771 |
|      76 | 0xFFFB1448  |  4294644808 |
|      77 | 0xFFF4C024  |  4294230052 |
|      78 | 0xFFFFF56D  |  4294964589 |
|      79 | 0x0D13      |        3347 |
|      80 | 0x00D2      |         210 |
|      81 | 0x0027      |          39 |
|      82 | 0xFFFB088A  |  4294641802 |
|      83 | 0xFFF49CD0  |  4294221008 |
|      84 | 0xFFFFF3FF  |  4294964223 |
|      85 | 0x16EA3     |       93859 |
|      86 | 0xE4AA8     |      936616 |
|      87 | 0xFFFF522B  |  4294922795 |
|      88 | 0x0CBC      |        3260 |
|      89 | 0x1A76A     |      108394 |
|      90 | 0xD9024     |      888868 |
|      91 | 0xFFFF4FC2  |  4294922178 |
|      92 | 0x0147      |         327 |
|      93 | 0x1B230     |      111152 |
|      94 | 0xD8B0C     |      887564 |
|      95 | 0xFFFF4FAA  |  4294922154 |
|      96 | 0x1B413     |      111635 |
|      97 | 0xD8D86     |      888198 |
|      98 | 0xFFFF4F36  |  4294922038 |
|      99 | 0x0283      |         643 |
|     100 | 0x1B11B     |      110875 |
|     101 | 0xD8C82     |      887938 |
|     102 | 0xFFFF4F91  |  4294922129 |
|     103 | 0x01C2      |         450 |
|     104 | 0xFFFABADC  |  4294621916 |
|     105 | 0xFFF12BF8  |  4293995512 |
|     106 | 0xFFFFF347  |  4294964039 |
|     107 | 0x03EA      |        1002 |
|     108 | 0xFFFAB0E5  |  4294619365 |
|     109 | 0xFFF16F6B  |  4294012779 |
|     110 | 0xFFFFF465  |  4294964325 |
|     111 | 0x0C6C      |        3180 |
|     112 | 0xFFFACE9B  |  4294626971 |
|     113 | 0xFFF16D7B  |  4294012283 |
|     114 | 0xFFFFF64C  |  4294964812 |
|     115 | 0x0FA0      |        4000 |
|     116 | 0x0013      |          19 |
|     117 | 0x0090      |         144 |
|     118 | 0x49330     |      299824 |
|     119 | 0x29927     |      170279 |
|     120 | 0xFFFFF8E4  |  4294965476 |
|     121 | 0x07DE      |        2014 |
|     122 | 0x0005      |           5 |
|     123 | 0x1E27      |        7719 |
|     124 | 0x1E28      |        7720 |
|     125 | 0x1E29      |        7721 |
|     126 | 0x1E2D      |        7725 |
|     127 | 0x00C9      |         201 |
|     128 | 0x1E2A      |        7722 |
|     129 | 0x0001      |           1 |
|     130 | 0x0002      |           2 |
|     131 | 0x000A      |          10 |
|     132 | 0x0009      |           9 |
|     133 | 0x0046      |          70 |
|     134 | 0x008C      |         140 |

## String References

- **7500**: You were refused passage for failing to present $6!
- **7510**: You use your $3. ($2 trip[/s] remaining)
- **7511**: You use up your $3.

## Events

### Event 65535

#### Metadata

| Field        | Value   |
|--------------|---------|
| Entrypoint   | 0x0000  |
| Data Size    | 1 bytes |
| Instructions | 1       |

```
      00 01 02 03 04 05 06 07  08 09 0A 0B 0C 0D 0E 0F
      -- -- -- -- -- -- -- --  -- -- -- -- -- -- -- --
0000: 00                                                .               
```

#### Opcodes

```
  0: 0x0000 [0x00] END_REQSTACK()
```

### Event 65534

#### Metadata

| Field        | Value   |
|--------------|---------|
| Entrypoint   | 0x0001  |
| Data Size    | 1 bytes |
| Instructions | 1       |

```
      00 01 02 03 04 05 06 07  08 09 0A 0B 0C 0D 0E 0F
      -- -- -- -- -- -- -- --  -- -- -- -- -- -- -- --
0000:    00                                              .              
```

#### Opcodes

```
  0: 0x0001 [0x00] END_REQSTACK()
```

### Event 65535.1

#### Metadata

| Field        | Value   |
|--------------|---------|
| Entrypoint   | 0x0002  |
| Data Size    | 6 bytes |
| Instructions | 2       |

```
      00 01 02 03 04 05 06 07  08 09 0A 0B 0C 0D 0E 0F
      -- -- -- -- -- -- -- --  -- -- -- -- -- -- -- --
0000:       03 02 10 0B 7F 00                             ......        
```

#### Opcodes

```
  0: 0x0002 [0x03] Work_Zone[2] = (Entity->Render.Flags01 >> 25) & 1
  1: 0x0007 [0x00] END_REQSTACK()
```

### Event 65535.2

#### Metadata

| Field        | Value   |
|--------------|---------|
| Entrypoint   | 0x0008  |
| Data Size    | 6 bytes |
| Instructions | 2       |

```
      00 01 02 03 04 05 06 07  08 09 0A 0B 0C 0D 0E 0F
      -- -- -- -- -- -- -- --  -- -- -- -- -- -- -- --
0000:                          03 02 10 07 7F 00                ......  
```

#### Opcodes

```
  0: 0x0008 [0x03] Work_Zone[2] = Entity->Race
  1: 0x000D [0x00] END_REQSTACK()
```

### Event 65535.3

#### Metadata

| Field        | Value   |
|--------------|---------|
| Entrypoint   | 0x000E  |
| Data Size    | 6 bytes |
| Instructions | 2       |

```
      00 01 02 03 04 05 06 07  08 09 0A 0B 0C 0D 0E 0F
      -- -- -- -- -- -- -- --  -- -- -- -- -- -- -- --
0000:                                            03 09                ..
0010: 10 07 7F 00                                       ....            
```

#### Opcodes

```
  0: 0x000E [0x03] Work_Zone[9] = Entity->Race
  1: 0x0013 [0x00] END_REQSTACK()
```

### Event 65535.4

#### Metadata

| Field        | Value   |
|--------------|---------|
| Entrypoint   | 0x0014  |
| Data Size    | 6 bytes |
| Instructions | 2       |

```
      00 01 02 03 04 05 06 07  08 09 0A 0B 0C 0D 0E 0F
      -- -- -- -- -- -- -- --  -- -- -- -- -- -- -- --
0010:             03 02 10 06  7F 00                        ......      
```

#### Opcodes

```
  0: 0x0014 [0x03] Work_Zone[2] = Entity->JobId (if LocalPlayer)
  1: 0x0019 [0x00] END_REQSTACK()
```

### Event 65535.5

#### Metadata

| Field        | Value   |
|--------------|---------|
| Entrypoint   | 0x001A  |
| Data Size    | 6 bytes |
| Instructions | 2       |

```
      00 01 02 03 04 05 06 07  08 09 0A 0B 0C 0D 0E 0F
      -- -- -- -- -- -- -- --  -- -- -- -- -- -- -- --
0010:                                03 08 10 07 7F 00            ......
```

#### Opcodes

```
  0: 0x001A [0x03] Work_Zone[8] = Entity->Race
  1: 0x001F [0x00] END_REQSTACK()
```

### Event 10

#### Metadata

| Field        | Value     |
|--------------|-----------|
| Entrypoint   | 0x0020    |
| Data Size    | 124 bytes |
| Instructions | 14        |

```
      00 01 02 03 04 05 06 07  08 09 0A 0B 0C 0D 0E 0F
      -- -- -- -- -- -- -- --  -- -- -- -- -- -- -- --
0020: 42 46 01 22 01 45 00 80  F0 FF FF 7F F0 FF FF 7F  BF.".E..........
0030: 66 64 69 32 01 80 45 02  80 F0 FF FF 7F F0 FF FF  fdi2..E.........
0040: 7F 73 70 30 30 01 80 55  02 80 F0 FF FF 7F F0 FF  .sp00..U........
0050: FF 7F 73 70 30 30 45 00  80 F0 FF FF 7F F0 FF FF  ..sp00E.........
0060: 7F 66 64 6F 31 01 80 55  00 80 F0 FF FF 7F F0 FF  .fdo1..U........
0070: FF 7F 66 64 6F 31 46 00  22 00 45 00 80 F0 FF FF  ..fdo1F.".E.....
0080: 7F F0 FF FF 7F 66 64 69  31 01 80 55 00 80 F0 FF  .....fdi1..U....
0090: FF 7F F0 FF FF 7F 66 64  69 31 21 00              ......fdi1!.    
```

#### Opcodes

```
  0: 0x0020 [0x42] SET_CLI_EVENT_CANCEL_DATA()
  1: 0x0021 [0x46] CAMERA_CONTROL: Disable user control
  2: 0x0023 [0x22] ENTITY_HIDE_FLAG(enabled=0x01)
  3: 0x0025 [0x45] LOAD_SCHEDULED_TASK: Load scheduler "fdi2" with entities [LocalPlayer, LocalPlayer], work=[200*, 0*]
  4: 0x0036 [0x45] LOAD_SCHEDULED_TASK: Load scheduler "sp00" with entities [LocalPlayer, LocalPlayer], work=[61*, 0*]
  5: 0x0047 [0x55] WAIT_LOAD_SCHEDULER: Wait for scheduler "sp00" with entities [LocalPlayer, LocalPlayer], work=61*
  6: 0x0056 [0x45] LOAD_SCHEDULED_TASK: Load scheduler "fdo1" with entities [LocalPlayer, LocalPlayer], work=[200*, 0*]
  7: 0x0067 [0x55] WAIT_LOAD_SCHEDULER: Wait for scheduler "fdo1" with entities [LocalPlayer, LocalPlayer], work=200*
  8: 0x0076 [0x46] CAMERA_CONTROL: Restore default settings
  9: 0x0078 [0x22] ENTITY_HIDE_FLAG(enabled=0x00)
 10: 0x007A [0x45] LOAD_SCHEDULED_TASK: Load scheduler "fdi1" with entities [LocalPlayer, LocalPlayer], work=[200*, 0*]
 11: 0x008B [0x55] WAIT_LOAD_SCHEDULER: Wait for scheduler "fdi1" with entities [LocalPlayer, LocalPlayer], work=200*
 12: 0x009A [0x21] END_EVENT
 13: 0x009B [0x00] END_REQSTACK()
```

### Event 11

#### Metadata

| Field        | Value     |
|--------------|-----------|
| Entrypoint   | 0x009C    |
| Data Size    | 124 bytes |
| Instructions | 14        |

```
      00 01 02 03 04 05 06 07  08 09 0A 0B 0C 0D 0E 0F
      -- -- -- -- -- -- -- --  -- -- -- -- -- -- -- --
0090:                                      42 46 01 22              BF."
00A0: 01 45 00 80 F0 FF FF 7F  F0 FF FF 7F 66 64 69 32  .E..........fdi2
00B0: 01 80 45 02 80 F0 FF FF  7F F0 FF FF 7F 73 70 30  ..E..........sp0
00C0: 32 01 80 55 02 80 F0 FF  FF 7F F0 FF FF 7F 73 70  2..U..........sp
00D0: 30 32 45 00 80 F0 FF FF  7F F0 FF FF 7F 66 64 6F  02E..........fdo
00E0: 31 01 80 55 00 80 F0 FF  FF 7F F0 FF FF 7F 66 64  1..U..........fd
00F0: 6F 31 46 00 22 00 45 00  80 F0 FF FF 7F F0 FF FF  o1F.".E.........
0100: 7F 66 64 69 31 01 80 55  00 80 F0 FF FF 7F F0 FF  .fdi1..U........
0110: FF 7F 66 64 69 31 21 00                           ..fdi1!.        
```

#### Opcodes

```
  0: 0x009C [0x42] SET_CLI_EVENT_CANCEL_DATA()
  1: 0x009D [0x46] CAMERA_CONTROL: Disable user control
  2: 0x009F [0x22] ENTITY_HIDE_FLAG(enabled=0x01)
  3: 0x00A1 [0x45] LOAD_SCHEDULED_TASK: Load scheduler "fdi2" with entities [LocalPlayer, LocalPlayer], work=[200*, 0*]
  4: 0x00B2 [0x45] LOAD_SCHEDULED_TASK: Load scheduler "sp02" with entities [LocalPlayer, LocalPlayer], work=[61*, 0*]
  5: 0x00C3 [0x55] WAIT_LOAD_SCHEDULER: Wait for scheduler "sp02" with entities [LocalPlayer, LocalPlayer], work=61*
  6: 0x00D2 [0x45] LOAD_SCHEDULED_TASK: Load scheduler "fdo1" with entities [LocalPlayer, LocalPlayer], work=[200*, 0*]
  7: 0x00E3 [0x55] WAIT_LOAD_SCHEDULER: Wait for scheduler "fdo1" with entities [LocalPlayer, LocalPlayer], work=200*
  8: 0x00F2 [0x46] CAMERA_CONTROL: Restore default settings
  9: 0x00F4 [0x22] ENTITY_HIDE_FLAG(enabled=0x00)
 10: 0x00F6 [0x45] LOAD_SCHEDULED_TASK: Load scheduler "fdi1" with entities [LocalPlayer, LocalPlayer], work=[200*, 0*]
 11: 0x0107 [0x55] WAIT_LOAD_SCHEDULER: Wait for scheduler "fdi1" with entities [LocalPlayer, LocalPlayer], work=200*
 12: 0x0116 [0x21] END_EVENT
 13: 0x0117 [0x00] END_REQSTACK()
```

### Event 14

#### Metadata

| Field        | Value     |
|--------------|-----------|
| Entrypoint   | 0x0118    |
| Data Size    | 170 bytes |
| Instructions | 24        |

```
      00 01 02 03 04 05 06 07  08 09 0A 0B 0C 0D 0E 0F
      -- -- -- -- -- -- -- --  -- -- -- -- -- -- -- --
0110:                          42 46 01 5D 01 80 03 80          BF.]....
0120: 45 00 80 F0 FF FF 7F F0  FF FF 7F 66 64 6F 30 01  E..........fdo0.
0130: 80 55 00 80 F0 FF FF 7F  F0 FF FF 7F 66 64 6F 30  .U..........fdo0
0140: 22 01 02 03 10 01 80 01  5E 01 0C 04 10 02 04 10  ".......^.......
0150: 01 80 02 5B 01 48 04 80  01 5E 01 48 05 80 45 00  ...[.H...^.H..E.
0160: 80 F0 FF FF 7F F0 FF FF  7F 66 64 69 30 01 80 45  .........fdi0..E
0170: 02 80 F0 FF FF 7F F0 FF  FF 7F 73 70 30 31 01 80  ..........sp01..
0180: 5C 00 06 80 5C 01 06 80  5C 02 07 80 5C 03 08 80  \...\...\...\...
0190: 55 02 80 F0 FF FF 7F F0  FF FF 7F 73 70 30 31 45  U..........sp01E
01A0: 00 80 F0 FF FF 7F F0 FF  FF 7F 66 64 6F 32 01 80  ..........fdo2..
01B0: 55 00 80 F0 FF FF 7F F0  FF FF 7F 66 64 6F 32 30  U..........fdo20
01C0: 21 00                                             !.              
```

#### Opcodes

```
  0: 0x0118 [0x42] SET_CLI_EVENT_CANCEL_DATA()
  1: 0x0119 [0x46] CAMERA_CONTROL: Disable user control
  2: 0x011B [0x5D] SET_MUSIC_VOLUME(volume=0*, fade_time=60*)
  3: 0x0120 [0x45] LOAD_SCHEDULED_TASK: Load scheduler "fdo0" with entities [LocalPlayer, LocalPlayer], work=[200*, 0*]
  4: 0x0131 [0x55] WAIT_LOAD_SCHEDULER: Wait for scheduler "fdo0" with entities [LocalPlayer, LocalPlayer], work=200*
  5: 0x0140 [0x22] ENTITY_HIDE_FLAG(enabled=0x01)
  6: 0x0142 [0x02] IF !(Work_Zone[3] == 0*) GOTO 0x015E
  7: 0x014A [0x0C] Work_Zone[4]--
  8: 0x014D [0x02] IF !(Work_Zone[4] <= 0*) GOTO 0x015B
  9: 0x0155 [0x48] [System] [7510*]:
    → "You use your $3. ($2 trip[/s] remaining)"
 10: 0x0158 [0x01] GOTO 0x015E
 11: 0x015B [0x48] [System] [7511*]:
    → "You use up your $3."

SUBROUTINE_015E:
 12: 0x015E [0x45] LOAD_SCHEDULED_TASK: Load scheduler "fdi0" with entities [LocalPlayer, LocalPlayer], work=[200*, 0*]
 13: 0x016F [0x45] LOAD_SCHEDULED_TASK: Load scheduler "sp01" with entities [LocalPlayer, LocalPlayer], work=[61*, 0*]
 14: 0x0180 [0x5C] MUSIC_CONTROL: Set Idle (Day) music to song 229*
 15: 0x0184 [0x5C] MUSIC_CONTROL: Set Idle (Night) music to song 229*
 16: 0x0188 [0x5C] MUSIC_CONTROL: Set Combat (Solo) music to song 101*
 17: 0x018C [0x5C] MUSIC_CONTROL: Set Combat (Party) music to song 219*
 18: 0x0190 [0x55] WAIT_LOAD_SCHEDULER: Wait for scheduler "sp01" with entities [LocalPlayer, LocalPlayer], work=61*
 19: 0x019F [0x45] LOAD_SCHEDULED_TASK: Load scheduler "fdo2" with entities [LocalPlayer, LocalPlayer], work=[200*, 0*]
 20: 0x01B0 [0x55] WAIT_LOAD_SCHEDULER: Wait for scheduler "fdo2" with entities [LocalPlayer, LocalPlayer], work=200*
 21: 0x01BF [0x30] SET_UCOFF_CONTINUE_ZERO()
 22: 0x01C0 [0x21] END_EVENT
 23: 0x01C1 [0x00] END_REQSTACK()
```

### Event 15

#### Metadata

| Field        | Value    |
|--------------|----------|
| Entrypoint   | 0x01C2   |
| Data Size    | 81 bytes |
| Instructions | 10       |

```
      00 01 02 03 04 05 06 07  08 09 0A 0B 0C 0D 0E 0F
      -- -- -- -- -- -- -- --  -- -- -- -- -- -- -- --
01C0:       20 01 42 45 00 80  F0 FF FF 7F F0 FF FF 7F     .BE..........
01D0: 66 64 6F 30 01 80 55 00  80 F0 FF FF 7F F0 FF FF  fdo0..U.........
01E0: 7F 66 64 6F 30 47 00 09  80 0A 80 0B 80 0C 80 47  .fdo0G.........G
01F0: 01 45 00 80 F0 FF FF 7F  F0 FF FF 7F 66 64 69 30  .E..........fdi0
0200: 01 80 55 00 80 F0 FF FF  7F F0 FF FF 7F 66 64 69  ..U..........fdi
0210: 30 21 00                                          0!.             
```

#### Opcodes

```
  0: 0x01C2 [0x20] SET_CLI_EVENT_UC_FLAG: Lock player control
  1: 0x01C4 [0x42] SET_CLI_EVENT_CANCEL_DATA()
  2: 0x01C5 [0x45] LOAD_SCHEDULED_TASK: Load scheduler "fdo0" with entities [LocalPlayer, LocalPlayer], work=[200*, 0*]
  3: 0x01D6 [0x55] WAIT_LOAD_SCHEDULER: Wait for scheduler "fdo0" with entities [LocalPlayer, LocalPlayer], work=200*
  4: 0x01E5 [0x47] UPDATE_PLAYER_POS(489.763*, 708.851*, -3.003*, yaw=269.3°*)
  5: 0x01EF [0x47] WAIT_PLAYER_POS_UPDATE
  6: 0x01F1 [0x45] LOAD_SCHEDULED_TASK: Load scheduler "fdi0" with entities [LocalPlayer, LocalPlayer], work=[200*, 0*]
  7: 0x0202 [0x55] WAIT_LOAD_SCHEDULER: Wait for scheduler "fdi0" with entities [LocalPlayer, LocalPlayer], work=200*
  8: 0x0211 [0x21] END_EVENT
  9: 0x0212 [0x00] END_REQSTACK()
```

### Event 12

#### Metadata

| Field        | Value    |
|--------------|----------|
| Entrypoint   | 0x0213   |
| Data Size    | 15 bytes |
| Instructions | 5        |

```
      00 01 02 03 04 05 06 07  08 09 0A 0B 0C 0D 0E 0F
      -- -- -- -- -- -- -- --  -- -- -- -- -- -- -- --
0210:          42 47 00 09 80  0A 80 0B 80 0C 80 47 01     BG.........G.
0220: 21 00                                             !.              
```

#### Opcodes

```
  0: 0x0213 [0x42] SET_CLI_EVENT_CANCEL_DATA()
  1: 0x0214 [0x47] UPDATE_PLAYER_POS(489.763*, 708.851*, -3.003*, yaw=269.3°*)
  2: 0x021E [0x47] WAIT_PLAYER_POS_UPDATE
  3: 0x0220 [0x21] END_EVENT
  4: 0x0221 [0x00] END_REQSTACK()
```

### Event 16

#### Metadata

| Field        | Value     |
|--------------|-----------|
| Entrypoint   | 0x0222    |
| Data Size    | 142 bytes |
| Instructions | 18        |

```
      00 01 02 03 04 05 06 07  08 09 0A 0B 0C 0D 0E 0F
      -- -- -- -- -- -- -- --  -- -- -- -- -- -- -- --
0220:       42 46 01 5D 01 80  03 80 45 00 80 F0 FF FF    BF.]....E.....
0230: 7F F0 FF FF 7F 66 64 6F  30 01 80 55 00 80 F0 FF  .....fdo0..U....
0240: FF 7F F0 FF FF 7F 66 64  6F 30 22 01 45 00 80 F0  ......fdo0".E...
0250: FF FF 7F F0 FF FF 7F 66  64 69 30 01 80 45 02 80  .......fdi0..E..
0260: F0 FF FF 7F F0 FF FF 7F  73 70 30 33 01 80 5C 00  ........sp03..\.
0270: 06 80 5C 01 06 80 5C 02  07 80 5C 03 08 80 55 02  ..\...\...\...U.
0280: 80 F0 FF FF 7F F0 FF FF  7F 73 70 30 33 45 00 80  .........sp03E..
0290: F0 FF FF 7F F0 FF FF 7F  66 64 6F 32 01 80 55 00  ........fdo2..U.
02A0: 80 F0 FF FF 7F F0 FF FF  7F 66 64 6F 32 30 21 00  .........fdo20!.
```

#### Opcodes

```
  0: 0x0222 [0x42] SET_CLI_EVENT_CANCEL_DATA()
  1: 0x0223 [0x46] CAMERA_CONTROL: Disable user control
  2: 0x0225 [0x5D] SET_MUSIC_VOLUME(volume=0*, fade_time=60*)
  3: 0x022A [0x45] LOAD_SCHEDULED_TASK: Load scheduler "fdo0" with entities [LocalPlayer, LocalPlayer], work=[200*, 0*]
  4: 0x023B [0x55] WAIT_LOAD_SCHEDULER: Wait for scheduler "fdo0" with entities [LocalPlayer, LocalPlayer], work=200*
  5: 0x024A [0x22] ENTITY_HIDE_FLAG(enabled=0x01)
  6: 0x024C [0x45] LOAD_SCHEDULED_TASK: Load scheduler "fdi0" with entities [LocalPlayer, LocalPlayer], work=[200*, 0*]
  7: 0x025D [0x45] LOAD_SCHEDULED_TASK: Load scheduler "sp03" with entities [LocalPlayer, LocalPlayer], work=[61*, 0*]
  8: 0x026E [0x5C] MUSIC_CONTROL: Set Idle (Day) music to song 229*
  9: 0x0272 [0x5C] MUSIC_CONTROL: Set Idle (Night) music to song 229*
 10: 0x0276 [0x5C] MUSIC_CONTROL: Set Combat (Solo) music to song 101*
 11: 0x027A [0x5C] MUSIC_CONTROL: Set Combat (Party) music to song 219*
 12: 0x027E [0x55] WAIT_LOAD_SCHEDULER: Wait for scheduler "sp03" with entities [LocalPlayer, LocalPlayer], work=61*
 13: 0x028D [0x45] LOAD_SCHEDULED_TASK: Load scheduler "fdo2" with entities [LocalPlayer, LocalPlayer], work=[200*, 0*]
 14: 0x029E [0x55] WAIT_LOAD_SCHEDULER: Wait for scheduler "fdo2" with entities [LocalPlayer, LocalPlayer], work=200*
 15: 0x02AD [0x30] SET_UCOFF_CONTINUE_ZERO()
 16: 0x02AE [0x21] END_EVENT
 17: 0x02AF [0x00] END_REQSTACK()
```

### Event 17

#### Metadata

| Field        | Value    |
|--------------|----------|
| Entrypoint   | 0x02B0   |
| Data Size    | 81 bytes |
| Instructions | 10       |

```
      00 01 02 03 04 05 06 07  08 09 0A 0B 0C 0D 0E 0F
      -- -- -- -- -- -- -- --  -- -- -- -- -- -- -- --
02B0: 20 01 42 45 00 80 F0 FF  FF 7F F0 FF FF 7F 66 64   .BE..........fd
02C0: 6F 30 01 80 55 00 80 F0  FF FF 7F F0 FF FF 7F 66  o0..U..........f
02D0: 64 6F 30 47 00 0D 80 0E  80 0F 80 10 80 47 01 45  do0G.........G.E
02E0: 00 80 F0 FF FF 7F F0 FF  FF 7F 66 64 69 30 01 80  ..........fdi0..
02F0: 55 00 80 F0 FF FF 7F F0  FF FF 7F 66 64 69 30 21  U..........fdi0!
0300: 00                                                .               
```

#### Opcodes

```
  0: 0x02B0 [0x20] SET_CLI_EVENT_UC_FLAG: Lock player control
  1: 0x02B2 [0x42] SET_CLI_EVENT_CANCEL_DATA()
  2: 0x02B3 [0x45] LOAD_SCHEDULED_TASK: Load scheduler "fdo0" with entities [LocalPlayer, LocalPlayer], work=[200*, 0*]
  3: 0x02C4 [0x55] WAIT_LOAD_SCHEDULER: Wait for scheduler "fdo0" with entities [LocalPlayer, LocalPlayer], work=200*
  4: 0x02D3 [0x47] UPDATE_PLAYER_POS(-393.358*, -387.582*, -3.000*, yaw=271.7°*)
  5: 0x02DD [0x47] WAIT_PLAYER_POS_UPDATE
  6: 0x02DF [0x45] LOAD_SCHEDULED_TASK: Load scheduler "fdi0" with entities [LocalPlayer, LocalPlayer], work=[200*, 0*]
  7: 0x02F0 [0x55] WAIT_LOAD_SCHEDULER: Wait for scheduler "fdi0" with entities [LocalPlayer, LocalPlayer], work=200*
  8: 0x02FF [0x21] END_EVENT
  9: 0x0300 [0x00] END_REQSTACK()
```

### Event 13

#### Metadata

| Field        | Value    |
|--------------|----------|
| Entrypoint   | 0x0301   |
| Data Size    | 15 bytes |
| Instructions | 5        |

```
      00 01 02 03 04 05 06 07  08 09 0A 0B 0C 0D 0E 0F
      -- -- -- -- -- -- -- --  -- -- -- -- -- -- -- --
0300:    42 47 00 0D 80 0E 80  0F 80 10 80 47 01 21 00   BG.........G.!.
```

#### Opcodes

```
  0: 0x0301 [0x42] SET_CLI_EVENT_CANCEL_DATA()
  1: 0x0302 [0x47] UPDATE_PLAYER_POS(-393.358*, -387.582*, -3.000*, yaw=271.7°*)
  2: 0x030C [0x47] WAIT_PLAYER_POS_UPDATE
  3: 0x030E [0x21] END_EVENT
  4: 0x030F [0x00] END_REQSTACK()
```

### Event 36

#### Metadata

| Field        | Value     |
|--------------|-----------|
| Entrypoint   | 0x0310    |
| Data Size    | 228 bytes |
| Instructions | 29        |

```
      00 01 02 03 04 05 06 07  08 09 0A 0B 0C 0D 0E 0F
      -- -- -- -- -- -- -- --  -- -- -- -- -- -- -- --
0310: 20 01 42 45 00 80 F8 FF  FF 7F F8 FF FF 7F 66 64   .BE..........fd
0320: 6F 30 01 80 55 00 80 F8  FF FF 7F F8 FF FF 7F 66  o0..U..........f
0330: 64 6F 30 46 01 45 02 80  F8 FF FF 7F F8 FF FF 7F  do0F.E..........
0340: 73 66 70 30 01 80 47 00  11 80 12 80 0B 80 13 80  sfp0..G.........
0350: 47 01 80 F0 FF FF 7F 1C  14 80 2C F0 FF FF 7F F0  G.........,.....
0360: FF FF 7F 63 6F 72 70 53  F0 FF FF 7F F0 FF FF 7F  ...corpS........
0370: 63 6F 72 70 45 00 80 F8  FF FF 7F F8 FF FF 7F 66  corpE..........f
0380: 64 69 30 01 80 55 00 80  F8 FF FF 7F F8 FF FF 7F  di0..U..........
0390: 66 64 69 30 03 02 10 15  80 48 16 80 23 1C 17 80  fdi0.....H..#...
03A0: 2B 7E 41 00 01 18 80 23  45 00 80 F8 FF FF 7F F8  +~A....#E.......
03B0: FF FF 7F 66 64 6F 30 01  80 55 00 80 F8 FF FF 7F  ...fdo0..U......
03C0: F8 FF FF 7F 66 64 6F 30  46 00 5E 69 64 6C 30 1C  ....fdo0F.^idl0.
03D0: 14 80 45 00 80 F8 FF FF  7F F8 FF FF 7F 66 64 69  ..E..........fdi
03E0: 30 01 80 55 00 80 F8 FF  FF 7F F8 FF FF 7F 66 64  0..U..........fd
03F0: 69 30 21 00                                       i0!.            
```

#### Opcodes

```
  0: 0x0310 [0x20] SET_CLI_EVENT_UC_FLAG: Lock player control
  1: 0x0312 [0x42] SET_CLI_EVENT_CANCEL_DATA()
  2: 0x0313 [0x45] LOAD_SCHEDULED_TASK: Load scheduler "fdo0" with entities [EventEntity, EventEntity], work=[200*, 0*]
  3: 0x0324 [0x55] WAIT_LOAD_SCHEDULER: Wait for scheduler "fdo0" with entities [EventEntity, EventEntity], work=200*
  4: 0x0333 [0x46] CAMERA_CONTROL: Disable user control
  5: 0x0335 [0x45] LOAD_SCHEDULED_TASK: Load scheduler "sfp0" with entities [EventEntity, EventEntity], work=[61*, 0*]
  6: 0x0346 [0x47] UPDATE_PLAYER_POS(490.109*, 709.024*, -3.003*, yaw=271.1°*)
  7: 0x0350 [0x47] WAIT_PLAYER_POS_UPDATE
  8: 0x0352 [0x80] LOAD_WAIT(entity=LocalPlayer)
  9: 0x0357 [0x1C] WAIT(30* ticks)
 10: 0x035A [0x2C] CREATE_SCHEDULER_TASK: Create scheduler "corp" with entities [LocalPlayer, LocalPlayer]
 11: 0x0367 [0x53] WAIT_SCHEDULER_TASK: Wait for scheduler "corp" with entities [LocalPlayer, LocalPlayer]
 12: 0x0374 [0x45] LOAD_SCHEDULED_TASK: Load scheduler "fdi0" with entities [EventEntity, EventEntity], work=[200*, 0*]
 13: 0x0385 [0x55] WAIT_LOAD_SCHEDULER: Wait for scheduler "fdi0" with entities [EventEntity, EventEntity], work=200*
 14: 0x0394 [0x03] Work_Zone[2] = 617*
 15: 0x0399 [0x48] [System] [7500*]:
    → "You were refused passage for failing to present $6!"
 16: 0x039C [0x23] WAIT_FOR_DIALOG_INTERACTION
 17: 0x039D [0x1C] WAIT(180* ticks)
 18: 0x03A0 [0x2B] Fheli Lapatzuo (ID: 16793982/0x0100417E) [7499*]:
    → "If you wish to board the manaclipper, please purrrchase a ticket from the vendor by the docks."
 19: 0x03A7 [0x23] WAIT_FOR_DIALOG_INTERACTION
 20: 0x03A8 [0x45] LOAD_SCHEDULED_TASK: Load scheduler "fdo0" with entities [EventEntity, EventEntity], work=[200*, 0*]
 21: 0x03B9 [0x55] WAIT_LOAD_SCHEDULER: Wait for scheduler "fdo0" with entities [EventEntity, EventEntity], work=200*
 22: 0x03C8 [0x46] CAMERA_CONTROL: Restore default settings
 23: 0x03CA [0x5E] EventEntity goes idle (kills current action) (animation: "idl0")
 24: 0x03CF [0x1C] WAIT(30* ticks)
 25: 0x03D2 [0x45] LOAD_SCHEDULED_TASK: Load scheduler "fdi0" with entities [EventEntity, EventEntity], work=[200*, 0*]
 26: 0x03E3 [0x55] WAIT_LOAD_SCHEDULER: Wait for scheduler "fdi0" with entities [EventEntity, EventEntity], work=200*
 27: 0x03F2 [0x21] END_EVENT
 28: 0x03F3 [0x00] END_REQSTACK()
```

### Event 65535.6

#### Metadata

| Field        | Value    |
|--------------|----------|
| Entrypoint   | 0x03F4   |
| Data Size    | 10 bytes |
| Instructions | 2        |

```
      00 01 02 03 04 05 06 07  08 09 0A 0B 0C 0D 0E 0F
      -- -- -- -- -- -- -- --  -- -- -- -- -- -- -- --
03F0:             37 19 80 1A  80 1B 80 1C 80 00            7.........  
```

#### Opcodes

```
  0: 0x03F4 [0x37] UPDATE_EVENT_POSITION_AND_DIR: x=-347.662*, z=-972.155*, y=-3.290*, direction=19.5°*
  1: 0x03FD [0x00] END_REQSTACK()
```

### Event 65535.7

#### Metadata

| Field        | Value    |
|--------------|----------|
| Entrypoint   | 0x03FE   |
| Data Size    | 15 bytes |
| Instructions | 5        |

```
      00 01 02 03 04 05 06 07  08 09 0A 0B 0C 0D 0E 0F
      -- -- -- -- -- -- -- --  -- -- -- -- -- -- -- --
03F0:                                            32 1D                2.
0400: 80 1F 00 1E 80 1F 80 20  80 1F 01 6F 00           ....... ...o.   
```

#### Opcodes

```
  0: 0x03FE [0x32] ExtData[1]->MainSpeed = 13* * 0.1
  1: 0x0401 [0x1F] MOVE_ENTITY: EventEntity moves to X=-346.191*, Z=-968.759*, Y=-3.038*
  2: 0x0409 [0x1F] MOVE_ENTITY: Update entity position (mode=1)
  3: 0x040B [0x6F] WAIT_FRAME_DELAY: Yield until WaitTime reaches zero
  4: 0x040C [0x00] END_REQSTACK()
```

### Event 65535.8

#### Metadata

| Field        | Value    |
|--------------|----------|
| Entrypoint   | 0x040D   |
| Data Size    | 10 bytes |
| Instructions | 2        |

```
      00 01 02 03 04 05 06 07  08 09 0A 0B 0C 0D 0E 0F
      -- -- -- -- -- -- -- --  -- -- -- -- -- -- -- --
0400:                                         37 21 80               7!.
0410: 22 80 23 80 24 80 00                              ".#.$..         
```

#### Opcodes

```
  0: 0x040D [0x37] UPDATE_EVENT_POSITION_AND_DIR: x=-345.562*, z=-966.480*, y=-2.969*, direction=310.4°*
  1: 0x0416 [0x00] END_REQSTACK()
```

### Event 65535.9

#### Metadata

| Field        | Value    |
|--------------|----------|
| Entrypoint   | 0x0417   |
| Data Size    | 10 bytes |
| Instructions | 2        |

```
      00 01 02 03 04 05 06 07  08 09 0A 0B 0C 0D 0E 0F
      -- -- -- -- -- -- -- --  -- -- -- -- -- -- -- --
0410:                      37  25 80 26 80 27 80 28 80         7%.&.'.(.
0420: 00                                                .               
```

#### Opcodes

```
  0: 0x0417 [0x37] UPDATE_EVENT_POSITION_AND_DIR: x=-345.752*, z=-967.195*, y=-2.983*, direction=75.1°*
  1: 0x0420 [0x00] END_REQSTACK()
```

### Event 65535.10

#### Metadata

| Field        | Value    |
|--------------|----------|
| Entrypoint   | 0x0421   |
| Data Size    | 10 bytes |
| Instructions | 2        |

```
      00 01 02 03 04 05 06 07  08 09 0A 0B 0C 0D 0E 0F
      -- -- -- -- -- -- -- --  -- -- -- -- -- -- -- --
0420:    37 29 80 2A 80 2B 80  2C 80 00                  7).*.+.,..     
```

#### Opcodes

```
  0: 0x0421 [0x37] UPDATE_EVENT_POSITION_AND_DIR: x=-343.644*, z=-966.128*, y=-2.834*, direction=286.9°*
  1: 0x042A [0x00] END_REQSTACK()
```

### Event 65535.11

#### Metadata

| Field        | Value    |
|--------------|----------|
| Entrypoint   | 0x042B   |
| Data Size    | 10 bytes |
| Instructions | 2        |

```
      00 01 02 03 04 05 06 07  08 09 0A 0B 0C 0D 0E 0F
      -- -- -- -- -- -- -- --  -- -- -- -- -- -- -- --
0420:                                   37 2D 80 2E 80             7-...
0430: 2F 80 30 80 00                                    /.0..           
```

#### Opcodes

```
  0: 0x042B [0x37] UPDATE_EVENT_POSITION_AND_DIR: x=-620.770*, z=-696.380*, y=-0.446*, direction=272.5°*
  1: 0x0434 [0x00] END_REQSTACK()
```

### Event 65535.12

#### Metadata

| Field        | Value    |
|--------------|----------|
| Entrypoint   | 0x0435   |
| Data Size    | 10 bytes |
| Instructions | 2        |

```
      00 01 02 03 04 05 06 07  08 09 0A 0B 0C 0D 0E 0F
      -- -- -- -- -- -- -- --  -- -- -- -- -- -- -- --
0430:                37 31 80  32 80 33 80 34 80 00          71.2.3.4.. 
```

#### Opcodes

```
  0: 0x0435 [0x37] UPDATE_EVENT_POSITION_AND_DIR: x=-621.848*, z=-694.833*, y=-0.293*, direction=265.0°*
  1: 0x043E [0x00] END_REQSTACK()
```

### Event 65535.13

#### Metadata

| Field        | Value    |
|--------------|----------|
| Entrypoint   | 0x043F   |
| Data Size    | 15 bytes |
| Instructions | 5        |

```
      00 01 02 03 04 05 06 07  08 09 0A 0B 0C 0D 0E 0F
      -- -- -- -- -- -- -- --  -- -- -- -- -- -- -- --
0430:                                               32                 2
0440: 1D 80 1F 00 35 80 36 80  37 80 1F 01 6F 00        ....5.6.7...o.  
```

#### Opcodes

```
  0: 0x043F [0x32] ExtData[1]->MainSpeed = 13* * 0.1
  1: 0x0442 [0x1F] MOVE_ENTITY: EventEntity moves to X=-621.813*, Z=-684.445*, Y=-1.000*
  2: 0x044A [0x1F] MOVE_ENTITY: Update entity position (mode=1)
  3: 0x044C [0x6F] WAIT_FRAME_DELAY: Yield until WaitTime reaches zero
  4: 0x044D [0x00] END_REQSTACK()
```

### Event 65535.14

#### Metadata

| Field        | Value    |
|--------------|----------|
| Entrypoint   | 0x044E   |
| Data Size    | 10 bytes |
| Instructions | 2        |

```
      00 01 02 03 04 05 06 07  08 09 0A 0B 0C 0D 0E 0F
      -- -- -- -- -- -- -- --  -- -- -- -- -- -- -- --
0440:                                            37 38                78
0450: 80 39 80 3A 80 3B 80 00                           .9.:.;..        
```

#### Opcodes

```
  0: 0x044E [0x37] UPDATE_EVENT_POSITION_AND_DIR: x=-622.130*, z=-696.299*, y=-0.249*, direction=340.2°*
  1: 0x0457 [0x00] END_REQSTACK()
```

### Event 65535.15

#### Metadata

| Field        | Value    |
|--------------|----------|
| Entrypoint   | 0x0458   |
| Data Size    | 10 bytes |
| Instructions | 2        |

```
      00 01 02 03 04 05 06 07  08 09 0A 0B 0C 0D 0E 0F
      -- -- -- -- -- -- -- --  -- -- -- -- -- -- -- --
0450:                          37 3C 80 3D 80 3E 80 3F          7<.=.>.?
0460: 80 00                                             ..              
```

#### Opcodes

```
  0: 0x0458 [0x37] UPDATE_EVENT_POSITION_AND_DIR: x=-617.997*, z=-634.672*, y=-1.730*, direction=239.1°*
  1: 0x0461 [0x00] END_REQSTACK()
```

### Event 65535.16

#### Metadata

| Field        | Value    |
|--------------|----------|
| Entrypoint   | 0x0462   |
| Data Size    | 15 bytes |
| Instructions | 5        |

```
      00 01 02 03 04 05 06 07  08 09 0A 0B 0C 0D 0E 0F
      -- -- -- -- -- -- -- --  -- -- -- -- -- -- -- --
0460:       32 40 80 1F 00 41  80 42 80 43 80 1F 01 6F    2@...A.B.C...o
0470: 00                                                .               
```

#### Opcodes

```
  0: 0x0462 [0x32] ExtData[1]->MainSpeed = 40* * 0.1
  1: 0x0465 [0x1F] MOVE_ENTITY: EventEntity moves to X=-620.318*, Z=-626.021*, Y=-1.208*
  2: 0x046D [0x1F] MOVE_ENTITY: Update entity position (mode=1)
  3: 0x046F [0x6F] WAIT_FRAME_DELAY: Yield until WaitTime reaches zero
  4: 0x0470 [0x00] END_REQSTACK()
```

### Event 65535.17

#### Metadata

| Field        | Value    |
|--------------|----------|
| Entrypoint   | 0x0471   |
| Data Size    | 10 bytes |
| Instructions | 2        |

```
      00 01 02 03 04 05 06 07  08 09 0A 0B 0C 0D 0E 0F
      -- -- -- -- -- -- -- --  -- -- -- -- -- -- -- --
0470:    37 44 80 45 80 46 80  47 80 00                  7D.E.F.G..     
```

#### Opcodes

```
  0: 0x0471 [0x37] UPDATE_EVENT_POSITION_AND_DIR: x=-621.100*, z=-624.568*, y=-0.975*, direction=228.5°*
  1: 0x047A [0x00] END_REQSTACK()
```

### Event 65535.18

#### Metadata

| Field        | Value    |
|--------------|----------|
| Entrypoint   | 0x047B   |
| Data Size    | 10 bytes |
| Instructions | 2        |

```
      00 01 02 03 04 05 06 07  08 09 0A 0B 0C 0D 0E 0F
      -- -- -- -- -- -- -- --  -- -- -- -- -- -- -- --
0470:                                   37 48 80 49 80             7H.I.
0480: 4A 80 4B 80 00                                    J.K..           
```

#### Opcodes

```
  0: 0x047B [0x37] UPDATE_EVENT_POSITION_AND_DIR: x=-622.151*, z=-624.556*, y=-0.775*, direction=331.4°*
  1: 0x0484 [0x00] END_REQSTACK()
```

### Event 65535.19

#### Metadata

| Field        | Value    |
|--------------|----------|
| Entrypoint   | 0x0485   |
| Data Size    | 10 bytes |
| Instructions | 2        |

```
      00 01 02 03 04 05 06 07  08 09 0A 0B 0C 0D 0E 0F
      -- -- -- -- -- -- -- --  -- -- -- -- -- -- -- --
0480:                37 4C 80  4D 80 4E 80 4F 80 00          7L.M.N.O.. 
```

#### Opcodes

```
  0: 0x0485 [0x37] UPDATE_EVENT_POSITION_AND_DIR: x=-322.488*, z=-737.244*, y=-2.707*, direction=294.2°*
  1: 0x048E [0x00] END_REQSTACK()
```

### Event 65535.20

#### Metadata

| Field        | Value    |
|--------------|----------|
| Entrypoint   | 0x048F   |
| Data Size    | 10 bytes |
| Instructions | 2        |

```
      00 01 02 03 04 05 06 07  08 09 0A 0B 0C 0D 0E 0F
      -- -- -- -- -- -- -- --  -- -- -- -- -- -- -- --
0480:                                               6C                 l
0490: 91 41 00 01 01 80 50 80  00                       .A....P..       
```

#### Opcodes

```
  0: 0x048F [0x6C] FADE_ENTITY_COLOR(entity_id=??? Warmachine (ID: 16794001/0x01004191), end_alpha=0*, fade_time=210*)
  1: 0x0498 [0x00] END_REQSTACK()
```

### Event 65535.21

#### Metadata

| Field        | Value    |
|--------------|----------|
| Entrypoint   | 0x0499   |
| Data Size    | 15 bytes |
| Instructions | 5        |

```
      00 01 02 03 04 05 06 07  08 09 0A 0B 0C 0D 0E 0F
      -- -- -- -- -- -- -- --  -- -- -- -- -- -- -- --
0490:                             32 51 80 1F 00 52 80           2Q...R.
04A0: 53 80 54 80 1F 01 6F 00                           S.T...o.        
```

#### Opcodes

```
  0: 0x0499 [0x32] ExtData[1]->MainSpeed = 39* * 0.1
  1: 0x049C [0x1F] MOVE_ENTITY: EventEntity moves to X=-325.494*, Z=-746.288*, Y=-3.073*
  2: 0x04A4 [0x1F] MOVE_ENTITY: Update entity position (mode=1)
  3: 0x04A6 [0x6F] WAIT_FRAME_DELAY: Yield until WaitTime reaches zero
  4: 0x04A7 [0x00] END_REQSTACK()
```

### Event 65535.22

#### Metadata

| Field        | Value    |
|--------------|----------|
| Entrypoint   | 0x04A8   |
| Data Size    | 10 bytes |
| Instructions | 2        |

```
      00 01 02 03 04 05 06 07  08 09 0A 0B 0C 0D 0E 0F
      -- -- -- -- -- -- -- --  -- -- -- -- -- -- -- --
04A0:                          37 55 80 56 80 57 80 58          7U.V.W.X
04B0: 80 00                                             ..              
```

#### Opcodes

```
  0: 0x04A8 [0x37] UPDATE_EVENT_POSITION_AND_DIR: x=93.859*, z=936.616*, y=-44.501*, direction=286.5°*
  1: 0x04B1 [0x00] END_REQSTACK()
```

### Event 65535.23

#### Metadata

| Field        | Value    |
|--------------|----------|
| Entrypoint   | 0x04B2   |
| Data Size    | 10 bytes |
| Instructions | 2        |

```
      00 01 02 03 04 05 06 07  08 09 0A 0B 0C 0D 0E 0F
      -- -- -- -- -- -- -- --  -- -- -- -- -- -- -- --
04B0:       37 59 80 5A 80 5B  80 5C 80 00                7Y.Z.[.\..    
```

#### Opcodes

```
  0: 0x04B2 [0x37] UPDATE_EVENT_POSITION_AND_DIR: x=108.394*, z=888.868*, y=-45.118*, direction=28.7°*
  1: 0x04BB [0x00] END_REQSTACK()
```

### Event 65535.24

#### Metadata

| Field        | Value    |
|--------------|----------|
| Entrypoint   | 0x04BC   |
| Data Size    | 15 bytes |
| Instructions | 5        |

```
      00 01 02 03 04 05 06 07  08 09 0A 0B 0C 0D 0E 0F
      -- -- -- -- -- -- -- --  -- -- -- -- -- -- -- --
04B0:                                      32 1D 80 1F              2...
04C0: 00 5D 80 5E 80 5F 80 1F  01 6F 00                 .].^._...o.     
```

#### Opcodes

```
  0: 0x04BC [0x32] ExtData[1]->MainSpeed = 13* * 0.1
  1: 0x04BF [0x1F] MOVE_ENTITY: EventEntity moves to X=111.152*, Z=887.564*, Y=-45.142*
  2: 0x04C7 [0x1F] MOVE_ENTITY: Update entity position (mode=1)
  3: 0x04C9 [0x6F] WAIT_FRAME_DELAY: Yield until WaitTime reaches zero
  4: 0x04CA [0x00] END_REQSTACK()
```

### Event 65535.25

#### Metadata

| Field        | Value    |
|--------------|----------|
| Entrypoint   | 0x04CB   |
| Data Size    | 10 bytes |
| Instructions | 2        |

```
      00 01 02 03 04 05 06 07  08 09 0A 0B 0C 0D 0E 0F
      -- -- -- -- -- -- -- --  -- -- -- -- -- -- -- --
04C0:                                   37 60 80 61 80             7`.a.
04D0: 62 80 63 80 00                                    b.c..           
```

#### Opcodes

```
  0: 0x04CB [0x37] UPDATE_EVENT_POSITION_AND_DIR: x=111.635*, z=888.198*, y=-45.258*, direction=56.5°*
  1: 0x04D4 [0x00] END_REQSTACK()
```

### Event 65535.26

#### Metadata

| Field        | Value    |
|--------------|----------|
| Entrypoint   | 0x04D5   |
| Data Size    | 10 bytes |
| Instructions | 2        |

```
      00 01 02 03 04 05 06 07  08 09 0A 0B 0C 0D 0E 0F
      -- -- -- -- -- -- -- --  -- -- -- -- -- -- -- --
04D0:                37 64 80  65 80 66 80 67 80 00          7d.e.f.g.. 
```

#### Opcodes

```
  0: 0x04D5 [0x37] UPDATE_EVENT_POSITION_AND_DIR: x=110.875*, z=887.938*, y=-45.167*, direction=39.5°*
  1: 0x04DE [0x00] END_REQSTACK()
```

### Event 65535.27

#### Metadata

| Field        | Value    |
|--------------|----------|
| Entrypoint   | 0x04DF   |
| Data Size    | 10 bytes |
| Instructions | 2        |

```
      00 01 02 03 04 05 06 07  08 09 0A 0B 0C 0D 0E 0F
      -- -- -- -- -- -- -- --  -- -- -- -- -- -- -- --
04D0:                                               37                 7
04E0: 68 80 69 80 6A 80 6B 80  00                       h.i.j.k..       
```

#### Opcodes

```
  0: 0x04DF [0x37] UPDATE_EVENT_POSITION_AND_DIR: x=-345.380*, z=-971.784*, y=-3.257*, direction=88.1°*
  1: 0x04E8 [0x00] END_REQSTACK()
```

### Event 65535.28

#### Metadata

| Field        | Value    |
|--------------|----------|
| Entrypoint   | 0x04E9   |
| Data Size    | 10 bytes |
| Instructions | 2        |

```
      00 01 02 03 04 05 06 07  08 09 0A 0B 0C 0D 0E 0F
      -- -- -- -- -- -- -- --  -- -- -- -- -- -- -- --
04E0:                             37 6C 80 6D 80 6E 80           7l.m.n.
04F0: 6F 80 00                                          o..             
```

#### Opcodes

```
  0: 0x04E9 [0x37] UPDATE_EVENT_POSITION_AND_DIR: x=-347.931*, z=-954.517*, y=-2.971*, direction=279.5°*
  1: 0x04F2 [0x00] END_REQSTACK()
```

### Event 65535.29

#### Metadata

| Field        | Value     |
|--------------|-----------|
| Entrypoint   | 0x04F3    |
| Data Size    | 107 bytes |
| Instructions | 18        |

```
      00 01 02 03 04 05 06 07  08 09 0A 0B 0C 0D 0E 0F
      -- -- -- -- -- -- -- --  -- -- -- -- -- -- -- --
04F0:          37 70 80 71 80  72 80 01 80 03 00 00 73     7p.q.r......s
0500: 80 1A 1A 05 32 1D 80 1F  00 01 00 02 00 03 00 1F  ....2...........
0510: 01 6F 1E 92 41 00 01 6F  70 00 3B F8 FF FF 7F 01  .o..A..op.;.....
0520: 00 02 00 03 00 3A F8 FF  FF 7F 04 00 17 05 00 04  .....:..........
0530: 00 00 00 16 06 00 04 00  00 00 07 01 00 05 00 07  ................
0540: 02 00 06 00 1B 17 05 00  04 00 00 00 16 06 00 04  ................
0550: 00 00 00 07 01 00 05 00  07 02 00 06 00 1B        ..............  
```

#### Opcodes

```
  0: 0x04F3 [0x37] UPDATE_EVENT_POSITION_AND_DIR: x=-340.325*, z=-955.013*, y=-2.484*, direction=0.0°*
  1: 0x04FC [0x03] ExtData[1]->WorkLocal[0] = 4000*
  2: 0x0501 [0x1A] CALL_SUBROUTINE(address=0x051A)
  3: 0x0504 [0x32] ExtData[1]->MainSpeed = 13* * 0.1
  4: 0x0507 [0x1F] MOVE_ENTITY: EventEntity moves to X=ExtData[1]->WorkLocal[1], Z=ExtData[1]->WorkLocal[2], Y=ExtData[1]->WorkLocal[3]
  5: 0x050F [0x1F] MOVE_ENTITY: Update entity position (mode=1)
  6: 0x0511 [0x6F] WAIT_FRAME_DELAY: Yield until WaitTime reaches zero
  7: 0x0512 [0x1E] EventEntity looks at Vukki-Chebukki (ID: 16794002/0x01004192) and starts talking
  8: 0x0517 [0x6F] WAIT_FRAME_DELAY: Yield until WaitTime reaches zero
  9: 0x0518 [0x70] WAIT_ENTITY_RENDER_FLAG: Wait while EventEntity->Render.Flags3 bit 2 is set (cancel turn if not)
 10: 0x0519 [0x00] END_REQSTACK()

SUBROUTINE_051A:
 11: 0x051A [0x3B] GET_ENTITY_POSITION(entity=EventEntity, x_destination=ExtData[1]->WorkLocal[1], y_destination=ExtData[1]->WorkLocal[2], z_destination=ExtData[1]->WorkLocal[3])
 12: 0x0525 [0x3A] CONVERT_YAW_TO_BYTE(entity=EventEntity, result_destination=ExtData[1]->WorkLocal[4])
 13: 0x052C [0x17] ExtData[1]->WorkLocal[5] = cos(ExtData[1]->WorkLocal[4]) * ExtData[1]->WorkLocal[0]
 14: 0x0533 [0x16] ExtData[1]->WorkLocal[6] = sin(ExtData[1]->WorkLocal[4]) * ExtData[1]->WorkLocal[0]
 15: 0x053A [0x07] ExtData[1]->WorkLocal[1] += ExtData[1]->WorkLocal[5]
 16: 0x053F [0x07] ExtData[1]->WorkLocal[2] += ExtData[1]->WorkLocal[6]
 17: 0x0544 [0x1B] RETURN
```

#### Data or dead code:

```
# Dead code (unreachable instructions):
     0x0545 [0x17] ExtData[1]->WorkLocal[5] = cos(ExtData[1]->WorkLocal[4]) * ExtData[1]->WorkLocal[0]
     0x054C [0x16] ExtData[1]->WorkLocal[6] = sin(ExtData[1]->WorkLocal[4]) * ExtData[1]->WorkLocal[0]
     0x0553 [0x07] ExtData[1]->WorkLocal[1] += ExtData[1]->WorkLocal[5]
     0x0558 [0x07] ExtData[1]->WorkLocal[2] += ExtData[1]->WorkLocal[6]
     0x055D [0x1B] RETURN
```

### Event 65535.30

#### Metadata

| Field        | Value    |
|--------------|----------|
| Entrypoint   | 0x055E   |
| Data Size    | 37 bytes |
| Instructions | 5        |

```
      00 01 02 03 04 05 06 07  08 09 0A 0B 0C 0D 0E 0F
      -- -- -- -- -- -- -- --  -- -- -- -- -- -- -- --
0550:                                            03 08                ..
0560: 00 87 7F 1A D8 07 66 09  00 F0 FF FF 7F F0 FF FF  ......f.........
0570: 7F 73 68 61 30 53 F0 FF  FF 7F F0 FF FF 7F 73 68  .sha0S........sh
0580: 61 30 00                                          a0.             
```

#### Opcodes

```
  0: 0x055E [0x03] ExtData[1]->WorkLocal[8] = LocalPlayer->Race
  1: 0x0563 [0x1A] CALL_SUBROUTINE(address=0x07D8)
  2: 0x0566 [0x66] LOAD_EXT_SCHEDULER_MAIN: Load scheduler "sha0" with entities [LocalPlayer, LocalPlayer], work=ExtData[1]->WorkLocal[9]
  3: 0x0575 [0x53] WAIT_SCHEDULER_TASK: Wait for scheduler "sha0" with entities [LocalPlayer, LocalPlayer]
  4: 0x0582 [0x00] END_REQSTACK()
```

### Event 65535.31

#### Metadata

| Field        | Value    |
|--------------|----------|
| Entrypoint   | 0x0583   |
| Data Size    | 37 bytes |
| Instructions | 5        |

```
      00 01 02 03 04 05 06 07  08 09 0A 0B 0C 0D 0E 0F
      -- -- -- -- -- -- -- --  -- -- -- -- -- -- -- --
0580:          03 08 00 87 7F  1A D8 07 66 09 00 F0 FF     ........f....
0590: FF 7F F0 FF FF 7F 73 68  61 31 53 F0 FF FF 7F F0  ......sha1S.....
05A0: FF FF 7F 73 68 61 31 00                           ...sha1.        
```

#### Opcodes

```
  0: 0x0583 [0x03] ExtData[1]->WorkLocal[8] = LocalPlayer->Race
  1: 0x0588 [0x1A] CALL_SUBROUTINE(address=0x07D8)
  2: 0x058B [0x66] LOAD_EXT_SCHEDULER_MAIN: Load scheduler "sha1" with entities [LocalPlayer, LocalPlayer], work=ExtData[1]->WorkLocal[9]
  3: 0x059A [0x53] WAIT_SCHEDULER_TASK: Wait for scheduler "sha1" with entities [LocalPlayer, LocalPlayer]
  4: 0x05A7 [0x00] END_REQSTACK()
```

### Event 44

#### Metadata

| Field        | Value     |
|--------------|-----------|
| Entrypoint   | 0x05A8    |
| Data Size    | 708 bytes |
| Instructions | 45        |

```
      00 01 02 03 04 05 06 07  08 09 0A 0B 0C 0D 0E 0F
      -- -- -- -- -- -- -- --  -- -- -- -- -- -- -- --
05A0:                          42 46 01 03 07 00 05 10          BF......
05B0: 45 00 80 F8 FF FF 7F F8  FF FF 7F 66 64 6F 30 01  E..........fdo0.
05C0: 80 55 00 80 F8 FF FF 7F  F8 FF FF 7F 66 64 6F 30  .U..........fdo0
05D0: 4E 00 B4 41 00 01 4E 00  B5 41 00 01 38 74 80 79  N..A..N..A..8t.y
05E0: 00 F0 FF FF 7F B4 41 00  01 03 05 10 02 10 03 06  ......A.........
05F0: 10 02 10 03 07 10 02 10  15 05 10 75 80 15 06 10  ...........u....
0600: 03 80 3F 07 10 07 10 03  80 37 76 80 77 80 78 80  ..?......7v.w.x.
0610: 79 80 79 00 B4 41 00 01  F0 FF FF 7F 79 00 F0 FF  y.y..A......y...
0620: FF 7F B4 41 00 01 45 7A  80 F8 FF FF 7F F8 FF FF  ...A..Ez........
0630: 7F 73 31 30 35 01 80 45  00 80 F8 FF FF 7F F8 FF  .s105..E........
0640: FF 7F 66 64 69 31 01 80  2B B4 41 00 01 7B 80 23  ..fdi1..+.A..{.#
0650: 2B B4 41 00 01 7C 80 23  02 04 10 01 80 01 9B 06  +.A..|.#........
0660: 03 05 10 04 10 03 06 10  04 10 03 07 10 04 10 15  ................
0670: 05 10 75 80 15 06 10 03  80 3F 07 10 07 10 03 80  ..u......?......
0680: 02 07 00 01 80 00 93 06  2B B4 41 00 01 7D 80 23  ........+.A..}.#
0690: 01 9B 06 2B B4 41 00 01  7E 80 23 52 7A 80 F8 FF  ...+.A..~.#Rz...
06A0: FF 7F F8 FF FF 7F 73 31  30 35 45 00 80 F8 FF FF  ......s105E.....
06B0: 7F F8 FF FF 7F 66 64 6F  31 01 80 55 00 80 F8 FF  .....fdo1..U....
06C0: FF 7F F8 FF FF 7F 66 64  6F 31 46 00 45 7F 80 F0  ......fdo1F.E...
06D0: FF FF 7F F0 FF FF 7F 71  73 74 63 01 80 45 00 80  .......qstc..E..
06E0: F8 FF FF 7F F8 FF FF 7F  66 64 69 32 01 80 21 00  ........fdi2..!.
06F0: 4A B4 41 00 01 F0 FF FF  7F 45 00 80 F8 FF FF 7F  J.A......E......
0700: F8 FF FF 7F 66 64 69 31  01 80 2B B4 41 00 01 7B  ....fdi1..+.A..{
0710: 80 23 66 14 80 B4 41 00  01 B4 41 00 01 74 6C 6B  .#f...A...A..tlk
0720: 30 2B B4 41 00 01 7C 80  23 02 04 10 01 80 01 7B  0+.A..|.#......{
0730: 07 66 14 80 B4 41 00 01  B4 41 00 01 74 6C 6B 31  .f...A...A..tlk1
0740: 03 05 10 04 10 03 06 10  04 10 03 07 10 04 10 15  ................
0750: 05 10 75 80 15 06 10 03  80 3F 07 10 07 10 03 80  ..u......?......
0760: 02 07 00 01 80 00 73 07  2B B4 41 00 01 7D 80 23  ......s.+.A..}.#
0770: 01 7B 07 2B B4 41 00 01  7E 80 23 66 14 80 B4 41  .{.+.A..~.#f...A
0780: 00 01 B4 41 00 01 70 61  73 30 2B B4 41 00 01 80  ...A..pas0+.A...
0790: 80 23 45 00 80 F8 FF FF  7F F8 FF FF 7F 66 64 6F  .#E..........fdo
07A0: 31 01 80 55 00 80 F8 FF  FF 7F F8 FF FF 7F 66 64  1..U..........fd
07B0: 6F 31 46 00 45 7F 80 F0  FF FF 7F F0 FF FF 7F 71  o1F.E..........q
07C0: 73 74 63 01 80 45 00 80  F8 FF FF 7F F8 FF FF 7F  stc..E..........
07D0: 66 64 69 32 01 80 21 00  03 09 00 08 00 02 09 00  fdi2..!.........
07E0: 7A 80 05 ED 07 08 09 00  81 80 01 F2 07 08 09 00  z...............
07F0: 82 80 14 09 00 83 80 07  09 00 84 80 1B 03 09 00  ................
0800: 08 00 02 09 00 7A 80 05  12 08 08 09 00 81 80 01  .....z..........
0810: 17 08 08 09 00 82 80 14  09 00 83 80 07 09 00 85  ................
0820: 80 1B 03 09 00 08 00 02  09 00 7A 80 05 37 08 08  ..........z..7..
0830: 09 00 81 80 01 3C 08 08  09 00 82 80 14 09 00 83  .....<..........
0840: 80 07 09 00 86 80 1B 03  09 00 08 00 02 09 00 7A  ...............z
0850: 80 05 5C 08 08 09 00 81  80 01 61 08 08 09 00 82  ..\.......a.....
0860: 80 14 09 00 83 80 07 09  00 50 80 1B              .........P..    
```

#### Opcodes

```
  0: 0x05A8 [0x42] SET_CLI_EVENT_CANCEL_DATA()
  1: 0x05A9 [0x46] CAMERA_CONTROL: Disable user control
  2: 0x05AB [0x03] ExtData[1]->WorkLocal[7] = Work_Zone[5]
  3: 0x05B0 [0x45] LOAD_SCHEDULED_TASK: Load scheduler "fdo0" with entities [EventEntity, EventEntity], work=[200*, 0*]
  4: 0x05C1 [0x55] WAIT_LOAD_SCHEDULER: Wait for scheduler "fdo0" with entities [EventEntity, EventEntity], work=200*
  5: 0x05D0 [0x4E] SET_ENTITY_HIDE_FLAG: Show Kiteh Nanjyea (ID: 16794036/0x010041B4)
  6: 0x05D6 [0x4E] SET_ENTITY_HIDE_FLAG: Show Unnamed NPC (ID: 16794037/0x010041B5)
  7: 0x05DC [0x38] SET_CLIENT_EVENT_MODE(mode=19*)
  8: 0x05DF [0x79] LocalPlayer looks at Kiteh Nanjyea (ID: 16794036/0x010041B4) (Basic look)
  9: 0x05E9 [0x03] Work_Zone[5] = Work_Zone[2]
 10: 0x05EE [0x03] Work_Zone[6] = Work_Zone[2]
 11: 0x05F3 [0x03] Work_Zone[7] = Work_Zone[2]
 12: 0x05F8 [0x15] Work_Zone[5] /= 144*
 13: 0x05FD [0x15] Work_Zone[6] /= 60*
 14: 0x0602 [0x3F] Work_Zone[7] = Work_Zone[7] % 60*
 15: 0x0609 [0x37] UPDATE_EVENT_POSITION_AND_DIR: x=299.824*, z=170.279*, y=-1.820*, direction=177.0°*
 16: 0x0612 [0x79] Kiteh Nanjyea (ID: 16794036/0x010041B4) looks at LocalPlayer (Basic look)
 17: 0x061C [0x79] LocalPlayer looks at Kiteh Nanjyea (ID: 16794036/0x010041B4) (Basic look)
 18: 0x0626 [0x45] LOAD_SCHEDULED_TASK: Load scheduler "s105" with entities [EventEntity, EventEntity], work=[5*, 0*]
 19: 0x0637 [0x45] LOAD_SCHEDULED_TASK: Load scheduler "fdi1" with entities [EventEntity, EventEntity], work=[200*, 0*]
 20: 0x0648 [0x2B] Kiteh Nanjyea (ID: 16794036/0x010041B4) [7719*]:
    → "You've helped our poor girl find her way home! I don't know how to thank you!"
 21: 0x064F [0x23] WAIT_FOR_DIALOG_INTERACTION
 22: 0x0650 [0x2B] Kiteh Nanjyea (ID: 16794036/0x010041B4) [7720*]:
    → "And to think you made it here in a mere $3 [hour/hours] ($4 [minute/minutes] and $5 [second/seconds] Earth time)!"
 23: 0x0657 [0x23] WAIT_FOR_DIALOG_INTERACTION
 24: 0x0658 [0x02] IF !(Work_Zone[4] == 0*) GOTO 0x069B
 25: 0x0660 [0x03] Work_Zone[5] = Work_Zone[4]
 26: 0x0665 [0x03] Work_Zone[6] = Work_Zone[4]
 27: 0x066A [0x03] Work_Zone[7] = Work_Zone[4]
 28: 0x066F [0x15] Work_Zone[5] /= 144*
 29: 0x0674 [0x15] Work_Zone[6] /= 60*
 30: 0x0679 [0x3F] Work_Zone[7] = Work_Zone[7] % 60*
 31: 0x0680 [0x02] IF !(ExtData[1]->WorkLocal[7] == 0*) GOTO 0x0693
 32: 0x0688 [0x2B] Kiteh Nanjyea (ID: 16794036/0x010041B4) [7721*]:
    → "Oh, and by the way, the fastest adventurer to date has been %0. That talented rider traversed the same course as you in $3 [hour/hours] ($4 [minute/minutes] and $5 [second/seconds] Earth time)!"
 33: 0x068F [0x23] WAIT_FOR_DIALOG_INTERACTION
 34: 0x0690 [0x01] GOTO 0x069B
 35: 0x0693 [0x2B] Kiteh Nanjyea (ID: 16794036/0x010041B4) [7725*]:
    → "Oh, and by the way, the fastest adventurer to date has been...you! Your remarkable record of $3 [hour/hours] ($4 [minute/minutes] and $5 [second/seconds] Earth time) still stands strong!"
 36: 0x069A [0x23] WAIT_FOR_DIALOG_INTERACTION

SUBROUTINE_069B:
 37: 0x069B [0x52] END_LOAD_SCHEDULER: End scheduler "s105" with entities [EventEntity, EventEntity], work=5*
 38: 0x06AA [0x45] LOAD_SCHEDULED_TASK: Load scheduler "fdo1" with entities [EventEntity, EventEntity], work=[200*, 0*]
 39: 0x06BB [0x55] WAIT_LOAD_SCHEDULER: Wait for scheduler "fdo1" with entities [EventEntity, EventEntity], work=200*
 40: 0x06CA [0x46] CAMERA_CONTROL: Restore default settings
 41: 0x06CC [0x45] LOAD_SCHEDULED_TASK: Load scheduler "qstc" with entities [LocalPlayer, LocalPlayer], work=[201*, 0*]
 42: 0x06DD [0x45] LOAD_SCHEDULED_TASK: Load scheduler "fdi2" with entities [EventEntity, EventEntity], work=[200*, 0*]
 43: 0x06EE [0x21] END_EVENT
 44: 0x06EF [0x00] END_REQSTACK()
```

#### Data or dead code:

```
# Dead code (unreachable instructions):
     0x06F0 [0x4A] Kiteh Nanjyea (ID: 16794036/0x010041B4) looks at LocalPlayer
     0x06F9 [0x45] LOAD_SCHEDULED_TASK: Load scheduler "fdi1" with entities [EventEntity, EventEntity], work=[200*, 0*]
     0x070A [0x2B] Kiteh Nanjyea (ID: 16794036/0x010041B4) [7719*]:
    → "You've helped our poor girl find her way home! I don't know how to thank you!"
     0x0711 [0x23] WAIT_FOR_DIALOG_INTERACTION
     0x0712 [0x66] LOAD_EXT_SCHEDULER_MAIN: Load scheduler "tlk0" with entities [Kiteh Nanjyea (ID: 16794036/0x010041B4), Kiteh Nanjyea (ID: 16794036/0x010041B4)], work=30*
     0x0721 [0x2B] Kiteh Nanjyea (ID: 16794036/0x010041B4) [7720*]:
    → "And to think you made it here in a mere $3 [hour/hours] ($4 [minute/minutes] and $5 [second/seconds] Earth time)!"
     0x0728 [0x23] WAIT_FOR_DIALOG_INTERACTION
     0x0729 [0x02] IF !(Work_Zone[4] == 0*) GOTO 0x077B
     0x0731 [0x66] LOAD_EXT_SCHEDULER_MAIN: Load scheduler "tlk1" with entities [Kiteh Nanjyea (ID: 16794036/0x010041B4), Kiteh Nanjyea (ID: 16794036/0x010041B4)], work=30*
     0x0740 [0x03] Work_Zone[5] = Work_Zone[4]
     0x0745 [0x03] Work_Zone[6] = Work_Zone[4]
     0x074A [0x03] Work_Zone[7] = Work_Zone[4]
     0x074F [0x15] Work_Zone[5] /= 144*
     0x0754 [0x15] Work_Zone[6] /= 60*
     0x0759 [0x3F] Work_Zone[7] = Work_Zone[7] % 60*
     0x0760 [0x02] IF !(ExtData[1]->WorkLocal[7] == 0*) GOTO 0x0773
     0x0768 [0x2B] Kiteh Nanjyea (ID: 16794036/0x010041B4) [7721*]:
    → "Oh, and by the way, the fastest adventurer to date has been %0. That talented rider traversed the same course as you in $3 [hour/hours] ($4 [minute/minutes] and $5 [second/seconds] Earth time)!"
     0x076F [0x23] WAIT_FOR_DIALOG_INTERACTION
     0x0770 [0x01] GOTO 0x077B
     0x0773 [0x2B] Kiteh Nanjyea (ID: 16794036/0x010041B4) [7725*]:
    → "Oh, and by the way, the fastest adventurer to date has been...you! Your remarkable record of $3 [hour/hours] ($4 [minute/minutes] and $5 [second/seconds] Earth time) still stands strong!"
     0x077A [0x23] WAIT_FOR_DIALOG_INTERACTION
     0x077B [0x66] LOAD_EXT_SCHEDULER_MAIN: Load scheduler "pas0" with entities [Kiteh Nanjyea (ID: 16794036/0x010041B4), Kiteh Nanjyea (ID: 16794036/0x010041B4)], work=30*
     0x078A [0x2B] Kiteh Nanjyea (ID: 16794036/0x010041B4) [7722*]:
    → "Anyway, please take this as a token of our appreciation. And stop by again sometime. We may have more work for you!"
     0x0791 [0x23] WAIT_FOR_DIALOG_INTERACTION
     0x0792 [0x45] LOAD_SCHEDULED_TASK: Load scheduler "fdo1" with entities [EventEntity, EventEntity], work=[200*, 0*]
     0x07A3 [0x55] WAIT_LOAD_SCHEDULER: Wait for scheduler "fdo1" with entities [EventEntity, EventEntity], work=200*
     0x07B2 [0x46] CAMERA_CONTROL: Restore default settings
     0x07B4 [0x45] LOAD_SCHEDULED_TASK: Load scheduler "qstc" with entities [LocalPlayer, LocalPlayer], work=[201*, 0*]
     0x07C5 [0x45] LOAD_SCHEDULED_TASK: Load scheduler "fdi2" with entities [EventEntity, EventEntity], work=[200*, 0*]
     0x07D6 [0x21] END_EVENT
     0x07D7 [0x00] END_REQSTACK()
     0x07D8 [0x03] ExtData[1]->WorkLocal[9] = ExtData[1]->WorkLocal[8]
     0x07DD [0x02] IF !(ExtData[1]->WorkLocal[9] > 5*) GOTO 0x07ED
     0x07E5 [0x08] ExtData[1]->WorkLocal[9] -= 1*
     0x07EA [0x01] GOTO 0x07F2
     0x07ED [0x08] ExtData[1]->WorkLocal[9] -= 2*
     0x07F2 [0x14] ExtData[1]->WorkLocal[9] *= 10*
     0x07F7 [0x07] ExtData[1]->WorkLocal[9] += 9*
     0x07FC [0x1B] RETURN
     0x07FD [0x03] ExtData[1]->WorkLocal[9] = ExtData[1]->WorkLocal[8]
     0x0802 [0x02] IF !(ExtData[1]->WorkLocal[9] > 5*) GOTO 0x0812
     0x080A [0x08] ExtData[1]->WorkLocal[9] -= 1*
     0x080F [0x01] GOTO 0x0817
     0x0812 [0x08] ExtData[1]->WorkLocal[9] -= 2*
     0x0817 [0x14] ExtData[1]->WorkLocal[9] *= 10*
     0x081C [0x07] ExtData[1]->WorkLocal[9] += 70*
     0x0821 [0x1B] RETURN
     0x0822 [0x03] ExtData[1]->WorkLocal[9] = ExtData[1]->WorkLocal[8]
     0x0827 [0x02] IF !(ExtData[1]->WorkLocal[9] > 5*) GOTO 0x0837
     0x082F [0x08] ExtData[1]->WorkLocal[9] -= 1*
     0x0834 [0x01] GOTO 0x083C
     0x0837 [0x08] ExtData[1]->WorkLocal[9] -= 2*
     0x083C [0x14] ExtData[1]->WorkLocal[9] *= 10*
     0x0841 [0x07] ExtData[1]->WorkLocal[9] += 140*
     0x0846 [0x1B] RETURN
     0x0847 [0x03] ExtData[1]->WorkLocal[9] = ExtData[1]->WorkLocal[8]
     0x084C [0x02] IF !(ExtData[1]->WorkLocal[9] > 5*) GOTO 0x085C
     0x0854 [0x08] ExtData[1]->WorkLocal[9] -= 1*
     0x0859 [0x01] GOTO 0x0861
     0x085C [0x08] ExtData[1]->WorkLocal[9] -= 2*
     0x0861 [0x14] ExtData[1]->WorkLocal[9] *= 10*
     0x0866 [0x07] ExtData[1]->WorkLocal[9] += 210*
     0x086B [0x1B] RETURN
```
