# Event 52

## Metadata

| Field           | Value    |
|-----------------|----------|
| Event Index     | 28/30    |
| Offset          | 0x0282   |
| Data Size       | 40 bytes |
| Calculated Size | 40 bytes |
| Instructions    | 12       |

```
      00 01 02 03 04 05 06 07  08 09 0A 0B 0C 0D 0E 0F
      -- -- -- -- -- -- -- --  -- -- -- -- -- -- -- --
0280:       1E F0 FF FF 7F 6F  70 27 08 AB A1 10 01 15    .....op'......
0290: 2B AB A1 10 01 19 80 23  2B AB A1 10 01 1A 80 23  +......#+......#
02A0: 2A 08 AB A1 10 01 20 00  21 00                    *..... .!.      
```

## Opcodes

```
  0: 0x0282 [0x1E] EventEntity looks at LocalPlayer and starts talking
  1: 0x0287 [0x6F] WAIT_FRAME_DELAY: Yield until WaitTime reaches zero
  2: 0x0288 [0x70] WAIT_ENTITY_RENDER_FLAG: Wait while EventEntity->Render.Flags3 bit 2 is set (cancel turn if not)
  3: 0x0289 [0x27] REQ_SET(priority=0x08, entity_id=Udip Ferawoh (ID: 17867179/0x0110A1AB), tag_num=0x15)
  4: 0x0290 [0x2B] Udip Ferawoh (ID: 17867179/0x0110A1AB) [7811*]:
    → "Hey, it's \u0008!\u0007Thank you again for showing us how to handle those spinescent prrrotuberances.\u007F1\u0000\u0007"
  5: 0x0297 [0x23] WAIT_FOR_DIALOG_INTERACTION
  6: 0x0298 [0x2B] Udip Ferawoh (ID: 17867179/0x0110A1AB) [7812*]:
    → "It'll be easy trrrekking from here on out!\u007F1\u0000\u0007"
  7: 0x029F [0x23] WAIT_FOR_DIALOG_INTERACTION
  8: 0x02A0 [0x2A] GET_REQ_LEVEL(level=8, entity_id=Udip Ferawoh (ID: 17867179/0x0110A1AB))
  9: 0x02A6 [0x20] SET_CLI_EVENT_UC_FLAG: Unlock player control
 10: 0x02A8 [0x21] END_EVENT
 11: 0x02A9 [0x00] END_REQSTACK()
```
