# Event 65535

## Metadata

| Field           | Value    |
|-----------------|----------|
| Event Index     | 44/54    |
| Offset          | 0x04AA   |
| Data Size       | 53 bytes |
| Calculated Size | 53 bytes |
| Instructions    | 12       |

```
      00 01 02 03 04 05 06 07  08 09 0A 0B 0C 0D 0E 0F
      -- -- -- -- -- -- -- --  -- -- -- -- -- -- -- --
04A0:                                33 01 03 02 00 4C            3....L
04B0: 80 03 03 00 4F 80 06 04  00 02 04 00 01 80 00 DE  ....O...........
04C0: 04 02 02 00 50 80 03 CC  04 05 04 00 08 02 00 03  ....P...........
04D0: 00 36 4E 80 47 80 02 00  1C 00 80 01 B9 04 00     .6N.G.......... 
```

## Opcodes

```
  0: 0x04AA [0x33] EventEntity->Render.Flags0 |= 0x200000 // Bit 21 (flag=0x01)
  1: 0x04AC [0x03] ExtData[1]->WorkLocal[2] = 4294847296*
  2: 0x04B1 [0x03] ExtData[1]->WorkLocal[3] = 38*
  3: 0x04B6 [0x06] ExtData[1]->WorkLocal[4] = 0
  4: 0x04B9 [0x02] IF !(ExtData[1]->WorkLocal[4] == 0*) GOTO 0x04DE
  5: 0x04C1 [0x02] IF !(ExtData[1]->WorkLocal[2] >= 4294846336*) GOTO 0x04CC
  6: 0x04C9 [0x05] ExtData[1]->WorkLocal[4] = 1
  7: 0x04CC [0x08] ExtData[1]->WorkLocal[2] -= ExtData[1]->WorkLocal[3]
  8: 0x04D1 [0x36] SET_ENTITY_EVENT_POSITION(pos_x=19.189*, pos_z=-660.000*, pos_y=ExtData[1]->WorkLocal[2])
  9: 0x04D8 [0x1C] WAIT(1* ticks)
 10: 0x04DB [0x01] GOTO 0x04B9
 11: 0x04DE [0x00] END_REQSTACK()
```
