# Event 65535

## Metadata

| Field           | Value    |
|-----------------|----------|
| Event Index     | 41/54    |
| Offset          | 0x045B   |
| Data Size       | 55 bytes |
| Calculated Size | 55 bytes |
| Instructions    | 12       |

```
      00 01 02 03 04 05 06 07  08 09 0A 0B 0C 0D 0E 0F
      -- -- -- -- -- -- -- --  -- -- -- -- -- -- -- --
0450:                                   33 01 03 02 00             3....
0460: 48 80 03 03 00 49 80 06  04 00 02 04 00 01 80 00  H....I..........
0470: 91 04 02 02 00 4A 80 02  7D 04 05 04 00 07 02 00  .....J..}.......
0480: 03 00 37 46 80 47 80 02  00 0D 80 1C 00 80 01 6A  ..7F.G.........j
0490: 04 00                                             ..              
```

## Opcodes

```
  0: 0x045B [0x33] EventEntity->Render.Flags0 |= 0x200000 // Bit 21 (flag=0x01)
  1: 0x045D [0x03] ExtData[1]->WorkLocal[2] = 80000*
  2: 0x0462 [0x03] ExtData[1]->WorkLocal[3] = 45*
  3: 0x0467 [0x06] ExtData[1]->WorkLocal[4] = 0
  4: 0x046A [0x02] IF !(ExtData[1]->WorkLocal[4] == 0*) GOTO 0x0491
  5: 0x0472 [0x02] IF !(ExtData[1]->WorkLocal[2] <= 81000*) GOTO 0x047D
  6: 0x047A [0x05] ExtData[1]->WorkLocal[4] = 1
  7: 0x047D [0x07] ExtData[1]->WorkLocal[2] += ExtData[1]->WorkLocal[3]
  8: 0x0482 [0x37] UPDATE_EVENT_POSITION_AND_DIR: x=18.900*, z=-660.000*, y=ExtData[1]->WorkLocal[2], direction=180.0°*
  9: 0x048B [0x1C] WAIT(1* ticks)
 10: 0x048E [0x01] GOTO 0x046A

SUBROUTINE_0491:
 11: 0x0491 [0x00] END_REQSTACK()
```
