# Event 65535

## Metadata

| Field           | Value    |
|-----------------|----------|
| Event Index     | 10/15    |
| Offset          | 0x0032   |
| Data Size       | 74 bytes |
| Calculated Size | 74 bytes |
| Instructions    | 11       |

```
      00 01 02 03 04 05 06 07  08 09 0A 0B 0C 0D 0E 0F
      -- -- -- -- -- -- -- --  -- -- -- -- -- -- -- --
0030:       3B F8 FF FF 7F 02  00 03 00 04 00 3A F8 FF    ;..........:..
0040: FF 7F 05 00 03 01 00 00  80 02 01 00 04 80 01 6A  ...............j
0050: 00 07 01 00 05 80 07 03  00 05 80 37 02 00 03 00  ...........7....
0060: 04 00 05 00 1C 01 80 01  49 00 D5 06 80 F8 FF FF  ........I.......
0070: 7F F8 FF FF 7F 63 74 65  78 00 80 00              .....ctex...    
```

## Opcodes

```
  0: 0x0032 [0x3B] GET_ENTITY_POSITION(entity=EventEntity, x_destination=ExtData[1]->WorkLocal[2], y_destination=ExtData[1]->WorkLocal[3], z_destination=ExtData[1]->WorkLocal[4])
  1: 0x003D [0x3A] CONVERT_YAW_TO_BYTE(entity=EventEntity, result_destination=ExtData[1]->WorkLocal[5])
  2: 0x0044 [0x03] ExtData[1]->WorkLocal[1] = 0*
  3: 0x0049 [0x02] IF !(ExtData[1]->WorkLocal[1] == 15000*) GOTO 0x006A
  4: 0x0051 [0x07] ExtData[1]->WorkLocal[1] += 250*
  5: 0x0056 [0x07] ExtData[1]->WorkLocal[3] += 250*
  6: 0x005B [0x37] UPDATE_EVENT_POSITION_AND_DIR: x=ExtData[1]->WorkLocal[2], z=ExtData[1]->WorkLocal[3], y=ExtData[1]->WorkLocal[4], direction=ExtData[1]->WorkLocal[5]
  7: 0x0064 [0x1C] WAIT(1* ticks)
  8: 0x0067 [0x01] GOTO 0x0049

SUBROUTINE_006A:
  9: 0x006A [0xD5] LOAD_EVENT_SCHEDULER_ALT8(unknown1=0x06, unknown2=0x80, entity1_id=EventEntity, entity2_id=EventEntity, task_param=0x7463, unknown3=0x65, unknown4=0x78, work_offset=0x00, unknown5=0x80)
 10: 0x007B [0x00] END_REQSTACK()
```
