# Event 51

## Metadata

| Field           | Value    |
|-----------------|----------|
| Event Index     | 3/3      |
| Offset          | 0x002A   |
| Data Size       | 45 bytes |
| Calculated Size | 45 bytes |
| Instructions    | 13       |

```
      00 01 02 03 04 05 06 07  08 09 0A 0B 0C 0D 0E 0F
      -- -- -- -- -- -- -- --  -- -- -- -- -- -- -- --
0020:                                24 00 80 01 80 02            $.....
0030: 80 25 02 00 10 02 80 00  46 00 43 00 43 01 03 01  .%......F.C.C...
0040: 10 03 80 01 55 00 02 00  10 01 80 00 55 00 43 00  ....U.......U.C.
0050: 43 01 01 55 00 21 00                              C..U.!.         
```

## Opcodes

```
  0: 0x002A [0x24] CREATE_DIALOG(message_id=7082*, default_option=1*, option_flags=0*)
    → "Take this coin?\u0007\u000BYes.\u0007No.\u007F1\u0000\u0007"
  1: 0x0031 [0x25] WAIT_DIALOG_SELECT()
  2: 0x0032 [0x02] IF !(Work_Zone[0] == 0*) GOTO 0x0046
  3: 0x003A [0x43] SEND_EVENT_UPDATE: Send pending tag to server (packet 0x005B)
  4: 0x003C [0x43] SEND_EVENT_UPDATE: Check pending flag (skip if not pending)
  5: 0x003E [0x03] Work_Zone[1] = 2*
  6: 0x0043 [0x01] GOTO 0x0055

SUBROUTINE_0046:
  7: 0x0046 [0x02] IF !(Work_Zone[0] == 1*) GOTO 0x0055
  8: 0x004E [0x43] SEND_EVENT_UPDATE: Send pending tag to server (packet 0x005B)
  9: 0x0050 [0x43] SEND_EVENT_UPDATE: Check pending flag (skip if not pending)
 10: 0x0052 [0x01] GOTO 0x0055

SUBROUTINE_0055:
 11: 0x0055 [0x21] END_EVENT
 12: 0x0056 [0x00] END_REQSTACK()
```
