# Event 10041

## Metadata

| Field           | Value    |
|-----------------|----------|
| Event Index     | 10/104   |
| Offset          | 0x0387   |
| Data Size       | 49 bytes |
| Calculated Size | 49 bytes |
| Instructions    | 11       |

```
      00 01 02 03 04 05 06 07  08 09 0A 0B 0C 0D 0E 0F
      -- -- -- -- -- -- -- --  -- -- -- -- -- -- -- --
0380:                      1E  F0 FF FF 7F 1D 25 80 23         ......%.#
0390: 66 26 80 F8 FF FF 7F F8  FF FF 7F 74 6C 6B 30 1D  f&.........tlk0.
03A0: 27 80 23 1D 28 80 23 66  26 80 F8 FF FF 7F F8 FF  '.#.(.#f&.......
03B0: FF 7F 74 6C 6B 32 21 00                           ..tlk2!.        
```

## Opcodes

```
  0: 0x0387 [0x1E] EventEntity looks at LocalPlayer and starts talking
  1: 0x038C [0x1D] PRINT_EVENT_MESSAGE(message_id=8814*)
    → "There're so many people in this town.\u0007It takes me by surprrrise no matter how many times I come here.\u007F1\u0000\u0007"
  2: 0x038F [0x23] WAIT_FOR_DIALOG_INTERACTION
  3: 0x0390 [0x66] LOAD_EXT_SCHEDULER_MAIN: Load scheduler "tlk0" with entities [EventEntity, EventEntity], work=51*
  4: 0x039F [0x1D] PRINT_EVENT_MESSAGE(message_id=8815*)
    → "All this activity makes it difficult to get anything done.\u0007It's enough to make my whiskers curl.\u007F1\u0000\u0007"
  5: 0x03A2 [0x23] WAIT_FOR_DIALOG_INTERACTION
  6: 0x03A3 [0x1D] PRINT_EVENT_MESSAGE(message_id=8816*)
    → "I don't think you'd be able to help me out, though.\u0007Why don't you rrrun along?\u007F1\u0000\u0007"
  7: 0x03A6 [0x23] WAIT_FOR_DIALOG_INTERACTION
  8: 0x03A7 [0x66] LOAD_EXT_SCHEDULER_MAIN: Load scheduler "tlk2" with entities [EventEntity, EventEntity], work=51*
  9: 0x03B6 [0x21] END_EVENT
 10: 0x03B7 [0x00] END_REQSTACK()
```
