# Event 10048

## Metadata

| Field           | Value    |
|-----------------|----------|
| Event Index     | 14/104   |
| Offset          | 0x03E7   |
| Data Size       | 41 bytes |
| Calculated Size | 41 bytes |
| Instructions    | 7        |

```
      00 01 02 03 04 05 06 07  08 09 0A 0B 0C 0D 0E 0F
      -- -- -- -- -- -- -- --  -- -- -- -- -- -- -- --
03E0:                      1E  F0 FF FF 7F 66 26 80 F8         .....f&..
03F0: FF FF 7F F8 FF FF 7F 74  6C 6B 30 1D 2B 80 23 66  .......tlk0.+.#f
0400: 26 80 F8 FF FF 7F F8 FF  FF 7F 74 6C 6B 31 21 00  &.........tlk1!.
```

## Opcodes

```
  0: 0x03E7 [0x1E] EventEntity looks at LocalPlayer and starts talking
  1: 0x03EC [0x66] LOAD_EXT_SCHEDULER_MAIN(work_offset=51*, entity1=EventEntity, entity2=EventEntity, action="tlk0")
  2: 0x03FB [0x1D] PRINT_EVENT_MESSAGE(message_id=8996*)
    → "The scent of treasure on you is making my nose twitch.\u0007Some people have all the luck...\u007F1\u0000\u0007"
  3: 0x03FE [0x23] WAIT_FOR_DIALOG_INTERACTION
  4: 0x03FF [0x66] LOAD_EXT_SCHEDULER_MAIN(work_offset=51*, entity1=EventEntity, entity2=EventEntity, action="tlk1")
  5: 0x040E [0x21] END_EVENT
  6: 0x040F [0x00] END_REQSTACK()
```
