# Event 2587

## Metadata

| Field           | Value    |
|-----------------|----------|
| Event Index     | 18/21    |
| Offset          | 0x0181   |
| Data Size       | 35 bytes |
| Calculated Size | 35 bytes |
| Instructions    | 12       |

```
      00 01 02 03 04 05 06 07  08 09 0A 0B 0C 0D 0E 0F
      -- -- -- -- -- -- -- --  -- -- -- -- -- -- -- --
0180:    1E F0 FF FF 7F 6F 70  03 02 10 08 80 27 08 F9   .....op.....'..
0190: 92 10 01 01 1D 13 80 23  1D 14 80 23 2A 08 F9 92  .......#...#*...
01A0: 10 01 21 00                                       ..!.            
```

## Opcodes

```
  0: 0x0181 [0x1E] EventEntity looks at LocalPlayer and starts talking
  1: 0x0186 [0x6F] WAIT_FRAME_DELAY: Yield until WaitTime reaches zero
  2: 0x0187 [0x70] WAIT_ENTITY_RENDER_FLAG: Wait while EventEntity->Render.Flags3 bit 2 is set (cancel turn if not)
  3: 0x0188 [0x03] Work_Zone[2] = 3921*
  4: 0x018D [0x27] REQ_SET(priority=0x08, entity_id=Apolliane (ID: 17863417/0x011092F9), tag_num=0x01)
  5: 0x0194 [0x1D] PRINT_EVENT_MESSAGE(message_id=7531*)
    → "Yes, this item is of the type that I require--but it's far too clean and polished. I cannot believe you dug it up yourself.\u007F1\u0000\u0007"
  6: 0x0197 [0x23] WAIT_FOR_DIALOG_INTERACTION
  7: 0x0198 [0x1D] PRINT_EVENT_MESSAGE(message_id=7532*)
    → "You must put your skills to the test and find one using your own skills and strengths. I will accept no less.\u007F1\u0000\u0007"
  8: 0x019B [0x23] WAIT_FOR_DIALOG_INTERACTION
  9: 0x019C [0x2A] GET_REQ_LEVEL(level=8, entity_id=Apolliane (ID: 17863417/0x011092F9))
 10: 0x01A2 [0x21] END_EVENT
 11: 0x01A3 [0x00] END_REQSTACK()
```
