# Event 194

## Metadata

| Field           | Value    |
|-----------------|----------|
| Event Index     | 6/11     |
| Offset          | 0x02F4   |
| Data Size       | 41 bytes |
| Calculated Size | 41 bytes |
| Instructions    | 9        |

```
      00 01 02 03 04 05 06 07  08 09 0A 0B 0C 0D 0E 0F
      -- -- -- -- -- -- -- --  -- -- -- -- -- -- -- --
02F0:             1A BC 05 1D  20 80 23 66 00 80 F8 FF      .... .#f....
0300: FF 7F F8 FF FF 7F 70 61  73 30 1D 21 80 23 53 F8  ......pas0.!.#S.
0310: FF FF 7F F8 FF FF 7F 70  61 73 30 21 00           .......pas0!.   
```

## Opcodes

```
  0: 0x02F4 [0x1A] CALL_SUBROUTINE(address=0x05BC)
  1: 0x02F7 [0x1D] PRINT_EVENT_MESSAGE(message_id=10873*)
    → "Eh, not another \u0001\u0005#\u0002\u0000\u0000\u0000...\u0007Thure, thith ith filled with thuper thpethial powerth, but you already brought me one...\u007F1\u0000\u0007"
  2: 0x02FA [0x23] WAIT_FOR_DIALOG_INTERACTION
  3: 0x02FB [0x66] LOAD_EXT_SCHEDULER_MAIN(work_offset=20*, entity1=EventEntity, entity2=EventEntity, action="pas0")
  4: 0x030A [0x1D] PRINT_EVENT_MESSAGE(message_id=10874*)
    → "I'm thorry, but I can't take any more of thethe. But if you find anything juth ath thuper-duper, you know where to bring it!\u007F1\u0000\u0007"
  5: 0x030D [0x23] WAIT_FOR_DIALOG_INTERACTION
  6: 0x030E [0x53] WAIT_SCHEDULER_TASK(entity1=EventEntity, entity2=EventEntity, action_id="pas0")
  7: 0x031B [0x21] END_EVENT
  8: 0x031C [0x00] END_REQSTACK()
```
