# Event 196

## Metadata

| Field           | Value    |
|-----------------|----------|
| Event Index     | 8/11     |
| Offset          | 0x0390   |
| Data Size       | 56 bytes |
| Calculated Size | 56 bytes |
| Instructions    | 10       |

```
      00 01 02 03 04 05 06 07  08 09 0A 0B 0C 0D 0E 0F
      -- -- -- -- -- -- -- --  -- -- -- -- -- -- -- --
0390: 1A BC 05 66 06 80 F8 FF  FF 7F F8 FF FF 7F 74 6C  ...f..........tl
03A0: 62 30 1D 25 80 23 1D 26  80 23 66 06 80 F8 FF FF  b0.%.#.&.#f.....
03B0: 7F F8 FF FF 7F 74 6C 62  31 53 F8 FF FF 7F F8 FF  .....tlb1S......
03C0: FF 7F 74 6C 62 31 21 00                           ..tlb1!.        
```

## Opcodes

```
  0: 0x0390 [0x1A] CALL_SUBROUTINE(address=0x05BC)
  1: 0x0393 [0x66] LOAD_EXT_SCHEDULER_MAIN(work_offset=27*, entity1=EventEntity, entity2=EventEntity, action="tlb0")
  2: 0x03A2 [0x1D] PRINT_EVENT_MESSAGE(message_id=10877*)
    → "Keep your panth on, \u007F\u0005[mithter/mithy]. I'm going to need thome time. Jeuno wathn't built in a day, you know.\u007F1\u0000\u0007"
  3: 0x03A5 [0x23] WAIT_FOR_DIALOG_INTERACTION
  4: 0x03A6 [0x1D] PRINT_EVENT_MESSAGE(message_id=10878*)
    → "I'm on the verge of a thpectacular find. Don't worry. You'll get your reward when I'm done.\u007F1\u0000\u0007"
  5: 0x03A9 [0x23] WAIT_FOR_DIALOG_INTERACTION
  6: 0x03AA [0x66] LOAD_EXT_SCHEDULER_MAIN(work_offset=27*, entity1=EventEntity, entity2=EventEntity, action="tlb1")
  7: 0x03B9 [0x53] WAIT_SCHEDULER_TASK(entity1=EventEntity, entity2=EventEntity, action_id="tlb1")
  8: 0x03C6 [0x21] END_EVENT
  9: 0x03C7 [0x00] END_REQSTACK()
```
