# Event 88

## Metadata

| Field           | Value    |
|-----------------|----------|
| Event Index     | 6/6      |
| Offset          | 0x0054   |
| Data Size       | 30 bytes |
| Calculated Size | 30 bytes |
| Instructions    | 8        |

```
      00 01 02 03 04 05 06 07  08 09 0A 0B 0C 0D 0E 0F
      -- -- -- -- -- -- -- --  -- -- -- -- -- -- -- --
0050:             1E F0 FF FF  7F 1D 07 80 23 66 02 80      ........#f..
0060: F8 FF FF 7F F8 FF FF 7F  74 6C 6B 30 1D 08 80 23  ........tlk0...#
0070: 21 00                                             !.              
```

## Opcodes

```
  0: 0x0054 [0x1E] EventEntity looks at LocalPlayer and starts talking
  1: 0x0059 [0x1D] PRINT_EVENT_MESSAGE(message_id=7501*)
    → "My shell became really itchy all of a sudden...\u007F1\u0000\u0007"
  2: 0x005C [0x23] WAIT_FOR_DIALOG_INTERACTION
  3: 0x005D [0x66] LOAD_EXT_SCHEDULER_MAIN(work_offset=0*, entity1=EventEntity, entity2=EventEntity, action="tlk0")
  4: 0x006C [0x1D] PRINT_EVENT_MESSAGE(message_id=7502*)
    → "Now I wonder why I wanted to hide in that thing in the first place...\u007F1\u0000\u0007"
  5: 0x006F [0x23] WAIT_FOR_DIALOG_INTERACTION
  6: 0x0070 [0x21] END_EVENT
  7: 0x0071 [0x00] END_REQSTACK()
```
