# Event 65535

## Metadata

| Field           | Value    |
|-----------------|----------|
| Event Index     | 7/36     |
| Offset          | 0x00E7   |
| Data Size       | 54 bytes |
| Calculated Size | 54 bytes |
| Instructions    | 11       |

```
      00 01 02 03 04 05 06 07  08 09 0A 0B 0C 0D 0E 0F
      -- -- -- -- -- -- -- --  -- -- -- -- -- -- -- --
00E0:                      32  10 80 5B 16 80 F8 FF FF         2..[.....
00F0: 7F F8 FF FF 7F 6A 6E 61  30 1C 17 80 1F 00 18 80  .....jna0.......
0100: 19 80 1A 80 1F 01 1F 00  1B 80 1C 80 1A 80 1F 01  ................
0110: 1F 00 1D 80 1E 80 1A 80  1F 01 22 01 00           .........."..   
```

## Opcodes

```
  0: 0x00E7 [0x32] ExtData[1]->MainSpeed = 54* * 0.1
  1: 0x00EA [0x5B] LOAD_EXT_SCHEDULER(work_offset=621*, entity1=EventEntity, entity2=EventEntity, action="jna0")
  2: 0x00F9 [0x1C] WAIT(150* ticks)
  3: 0x00FC [0x1F] MOVE_ENTITY: EventEntity moves to X=18.941*, Z=-51.312*, Y=3.901*
  4: 0x0104 [0x1F] MOVE_ENTITY: Update entity position (mode=1)
  5: 0x0106 [0x1F] MOVE_ENTITY: EventEntity moves to X=20.478*, Z=-50.983*, Y=3.901*
  6: 0x010E [0x1F] MOVE_ENTITY: Update entity position (mode=1)
  7: 0x0110 [0x1F] MOVE_ENTITY: EventEntity moves to X=24.351*, Z=-52.595*, Y=3.901*
  8: 0x0118 [0x1F] MOVE_ENTITY: Update entity position (mode=1)
  9: 0x011A [0x22] ENTITY_HIDE_FLAG(enabled=0x01)
 10: 0x011C [0x00] END_REQSTACK()
```
