# Event 65535

## Metadata

| Field           | Value    |
|-----------------|----------|
| Event Index     | 4/36     |
| Offset          | 0x0099   |
| Data Size       | 44 bytes |
| Calculated Size | 44 bytes |
| Instructions    | 9        |

```
      00 01 02 03 04 05 06 07  08 09 0A 0B 0C 0D 0E 0F
      -- -- -- -- -- -- -- --  -- -- -- -- -- -- -- --
0090:                             1C 0B 80 32 0C 80 1F           ...2...
00A0: 00 0D 80 0E 80 09 80 1F  01 6F 86 01 F8 FF FF 7F  .........o......
00B0: 1E F0 FF FF 7F 5B 0F 80  F8 FF FF 7F F8 FF FF 7F  .....[..........
00C0: 74 6C 66 30 00                                    tlf0.           
```

## Opcodes

```
  0: 0x0099 [0x1C] WAIT(120* ticks)
  1: 0x009C [0x32] ExtData[1]->MainSpeed = 18* * 0.1
  2: 0x009F [0x1F] MOVE_ENTITY: EventEntity moves to X=19.265*, Z=-57.605*, Y=3.869*
  3: 0x00A7 [0x1F] MOVE_ENTITY: Update entity position (mode=1)
  4: 0x00A9 [0x6F] WAIT_FRAME_DELAY: Yield until WaitTime reaches zero
  5: 0x00AA [0x86] EventEntity->Render.Flags3 ^= 0x01
  6: 0x00B0 [0x1E] EventEntity looks at LocalPlayer and starts talking
  7: 0x00B5 [0x5B] LOAD_EXT_SCHEDULER(work_offset=479*, entity1=EventEntity, entity2=EventEntity, action="tlf0")
  8: 0x00C4 [0x00] END_REQSTACK()
```
