# Event 65535

## Metadata

| Field           | Value    |
|-----------------|----------|
| Event Index     | 47/58    |
| Offset          | 0x05A4   |
| Data Size       | 57 bytes |
| Calculated Size | 57 bytes |
| Instructions    | 5        |

```
      00 01 02 03 04 05 06 07  08 09 0A 0B 0C 0D 0E 0F
      -- -- -- -- -- -- -- --  -- -- -- -- -- -- -- --
05A0:             66 15 80 F8  FF FF 7F F8 FF FF 7F 61      f..........a
05B0: 69 67 30 53 F8 FF FF 7F  F8 FF FF 7F 61 69 67 30  ig0S........aig0
05C0: 66 15 80 F8 FF FF 7F F8  FF FF 7F 61 69 67 31 53  f..........aig1S
05D0: F8 FF FF 7F F8 FF FF 7F  61 69 67 31 00           ........aig1.   
```

## Opcodes

```
  0: 0x05A4 [0x66] LOAD_EXT_SCHEDULER_MAIN: Load scheduler "aig0" with entities [EventEntity, EventEntity], work=11*
  1: 0x05B3 [0x53] WAIT_SCHEDULER_TASK: Wait for scheduler "aig0" with entities [EventEntity, EventEntity]
  2: 0x05C0 [0x66] LOAD_EXT_SCHEDULER_MAIN: Load scheduler "aig1" with entities [EventEntity, EventEntity], work=11*
  3: 0x05CF [0x53] WAIT_SCHEDULER_TASK: Wait for scheduler "aig1" with entities [EventEntity, EventEntity]
  4: 0x05DC [0x00] END_REQSTACK()
```
