# Event 65535

## Metadata

| Field           | Value    |
|-----------------|----------|
| Event Index     | 45/63    |
| Offset          | 0x0290   |
| Data Size       | 57 bytes |
| Calculated Size | 57 bytes |
| Instructions    | 5        |

```
      00 01 02 03 04 05 06 07  08 09 0A 0B 0C 0D 0E 0F
      -- -- -- -- -- -- -- --  -- -- -- -- -- -- -- --
0290: 66 07 80 F8 FF FF 7F F8  FF FF 7F 61 69 67 30 53  f..........aig0S
02A0: F8 FF FF 7F F8 FF FF 7F  61 69 67 30 66 07 80 F8  ........aig0f...
02B0: FF FF 7F F8 FF FF 7F 61  69 67 31 53 F8 FF FF 7F  .......aig1S....
02C0: F8 FF FF 7F 61 69 67 31  00                       ....aig1.       
```

## Opcodes

```
  0: 0x0290 [0x66] LOAD_EXT_SCHEDULER_MAIN(work_offset=11*, entity1=EventEntity, entity2=EventEntity, action="aig0")
  1: 0x029F [0x53] WAIT_SCHEDULER_TASK(entity1=EventEntity, entity2=EventEntity, action_id="aig0")
  2: 0x02AC [0x66] LOAD_EXT_SCHEDULER_MAIN(work_offset=11*, entity1=EventEntity, entity2=EventEntity, action="aig1")
  3: 0x02BB [0x53] WAIT_SCHEDULER_TASK(entity1=EventEntity, entity2=EventEntity, action_id="aig1")
  4: 0x02C8 [0x00] END_REQSTACK()
```
