# Event 65535

## Metadata

| Field           | Value    |
|-----------------|----------|
| Event Index     | 61/63    |
| Offset          | 0x039D   |
| Data Size       | 73 bytes |
| Calculated Size | 73 bytes |
| Instructions    | 11       |

```
      00 01 02 03 04 05 06 07  08 09 0A 0B 0C 0D 0E 0F
      -- -- -- -- -- -- -- --  -- -- -- -- -- -- -- --
0390:                                         32 12 80               2..
03A0: 1F 00 13 80 14 80 15 80  1F 01 6F 1C 16 80 2C 9B  ..........o...,.
03B0: 41 00 01 9B 41 00 01 72  65 73 30 53 9B 41 00 01  A...A..res0S.A..
03C0: 9B 41 00 01 72 65 73 30  1C 16 80 2C 9B 41 00 01  .A..res0...,.A..
03D0: 9B 41 00 01 72 65 73 31  53 9B 41 00 01 9B 41 00  .A..res1S.A...A.
03E0: 01 72 65 73 31 00                                 .res1.          
```

## Opcodes

```
  0: 0x039D [0x32] ExtData[1]->MainSpeed = 40* * 0.1
  1: 0x03A0 [0x1F] MOVE_ENTITY: EventEntity moves to X=-620.986*, Z=-623.073*, Y=-0.878*
  2: 0x03A8 [0x1F] MOVE_ENTITY: Update entity position (mode=1)
  3: 0x03AA [0x6F] WAIT_FRAME_DELAY: Yield until WaitTime reaches zero
  4: 0x03AB [0x1C] WAIT(30* ticks)
  5: 0x03AE [0x2C] CREATE_SCHEDULER_TASK: Create scheduler "res0" for entities [Sanctia (ID: 16794011/0x0100419B), Sanctia (ID: 16794011/0x0100419B)]
  6: 0x03BB [0x53] WAIT_SCHEDULER_TASK(entity1=Sanctia (ID: 16794011/0x0100419B), entity2=Sanctia (ID: 16794011/0x0100419B), action_id="res0")
  7: 0x03C8 [0x1C] WAIT(30* ticks)
  8: 0x03CB [0x2C] CREATE_SCHEDULER_TASK: Create scheduler "res1" for entities [Sanctia (ID: 16794011/0x0100419B), Sanctia (ID: 16794011/0x0100419B)]
  9: 0x03D8 [0x53] WAIT_SCHEDULER_TASK(entity1=Sanctia (ID: 16794011/0x0100419B), entity2=Sanctia (ID: 16794011/0x0100419B), action_id="res1")
 10: 0x03E5 [0x00] END_REQSTACK()
```
