# Event 65535

## Metadata

| Field           | Value    |
|-----------------|----------|
| Event Index     | 82/125   |
| Offset          | 0x07EF   |
| Data Size       | 50 bytes |
| Calculated Size | 50 bytes |
| Instructions    | 12       |

```
      00 01 02 03 04 05 06 07  08 09 0A 0B 0C 0D 0E 0F
      -- -- -- -- -- -- -- --  -- -- -- -- -- -- -- --
07E0:                                               32                 2
07F0: 08 80 1F 00 D8 80 D9 80  64 80 1F 01 1F 00 DA 80  ........d.......
0800: DB 80 64 80 1F 01 1F 00  DC 80 DD 80 64 80 1F 01  ..d.........d...
0810: 1F 00 DE 80 DF 80 64 80  1F 01 6F 1E 1A E2 05 01  ......d...o.....
0820: 00                                                .               
```

## Opcodes

```
  0: 0x07EF [0x32] ExtData[1]->MainSpeed = 13* * 0.1
  1: 0x07F2 [0x1F] MOVE_ENTITY: EventEntity moves to X=-0.052*, Z=2.080*, Y=-25.499*
  2: 0x07FA [0x1F] MOVE_ENTITY: Update entity position (mode=1)
  3: 0x07FC [0x1F] MOVE_ENTITY: EventEntity moves to X=-2.561*, Z=1.726*, Y=-25.499*
  4: 0x0804 [0x1F] MOVE_ENTITY: Update entity position (mode=1)
  5: 0x0806 [0x1F] MOVE_ENTITY: EventEntity moves to X=-4.229*, Z=0.408*, Y=-25.499*
  6: 0x080E [0x1F] MOVE_ENTITY: Update entity position (mode=1)
  7: 0x0810 [0x1F] MOVE_ENTITY: EventEntity moves to X=-7.444*, Z=0.020*, Y=-25.499*
  8: 0x0818 [0x1F] MOVE_ENTITY: Update entity position (mode=1)
  9: 0x081A [0x6F] WAIT_FRAME_DELAY: Yield until WaitTime reaches zero
 10: 0x081B [0x1E] EventEntity looks at Star Sibyl (ID: 17162778/0x0105E21A) and starts talking
 11: 0x0820 [0x00] END_REQSTACK()
```
