# Event 65535

## Metadata

| Field           | Value     |
|-----------------|-----------|
| Event Index     | 45/125    |
| Offset          | 0x0530    |
| Data Size       | 160 bytes |
| Calculated Size | 160 bytes |
| Instructions    | 4         |

```
      00 01 02 03 04 05 06 07  08 09 0A 0B 0C 0D 0E 0F
      -- -- -- -- -- -- -- --  -- -- -- -- -- -- -- --
0530: 33 00 37 7A 80 7B 80 7C  80 7D 80 00 03 06 00 05  3.7z.{.|.}......
0540: 00 02 06 00 7E 80 05 51  05 08 06 00 0A 80 01 56  ....~..Q.......V
0550: 05 08 06 00 0D 80 14 06  00 7F 80 07 06 00 80 80  ................
0560: 1B 03 06 00 05 00 02 06  00 7E 80 05 76 05 08 06  .........~..v...
0570: 00 0A 80 01 7B 05 08 06  00 0D 80 14 06 00 7F 80  ....{...........
0580: 07 06 00 81 80 1B 03 06  00 05 00 02 06 00 7E 80  ..............~.
0590: 05 9B 05 08 06 00 0A 80  01 A0 05 08 06 00 0D 80  ................
05A0: 14 06 00 7F 80 07 06 00  82 80 1B 03 06 00 05 00  ................
05B0: 02 06 00 7E 80 05 C0 05  08 06 00 0A 80 01 C5 05  ...~............
05C0: 08 06 00 0D 80 14 06 00  7F 80 07 06 00 83 80 1B  ................
```

## Opcodes

```
  0: 0x0530 [0x33] EventEntity->Render.Flags0 &= ~ 0x200000 // Bit 21 (flag=0x00)
  1: 0x0532 [0x37] UPDATE_EVENT_POSITION_AND_DIR: x=-32.111*, z=64.388*, y=-3.499*, direction=179.3°*
  2: 0x053B [0x00] END_REQSTACK()
```

## Data or dead code:

```
# Data Section: 0x053C (148 bytes)
     0x053C: 03 06 00 05 00 02 06 00 7E 80 05 51 05 08 06 00
     0x054C: 0A 80 01 56 05 08 06 00 0D 80 14 06 00 7F 80 07
     0x055C: 06 00 80 80 1B 03 06 00 05 00 02 06 00 7E 80 05
     0x056C: 76 05 08 06 00 0A 80 01 7B 05 08 06 00 0D 80 14
     0x057C: 06 00 7F 80 07 06 00 81 80 1B 03 06 00 05 00 02
     0x058C: 06 00 7E 80 05 9B 05 08 06 00 0A 80 01 A0 05 08
     0x059C: 06 00 0D 80 14 06 00 7F 80 07 06 00 82 80 1B 03
     0x05AC: 06 00 05 00 02 06 00 7E 80 05 C0 05 08 06 00 0A
     0x05BC: 80 01 C5 05 08 06 00 0D 80 14 06 00 7F 80 07 06
     0x05CC: 00 83 80 1B
```