# Event 65535

## Metadata

| Field           | Value    |
|-----------------|----------|
| Event Index     | 90/125   |
| Offset          | 0x0957   |
| Data Size       | 61 bytes |
| Calculated Size | 61 bytes |
| Instructions    | 14       |

```
      00 01 02 03 04 05 06 07  08 09 0A 0B 0C 0D 0E 0F
      -- -- -- -- -- -- -- --  -- -- -- -- -- -- -- --
0950:                      06  09 10 59 04 F8 FF FF 7F         ...Y.....
0960: 08 80 1F 00 FA 80 FB 80  67 80 1F 01 1F 00 FC 80  ........g.......
0970: FD 80 FE 80 1F 01 1F 00  FF 80 00 81 67 80 1F 01  ............g...
0980: 6F 4A F0 FF FF 7F 36 E2  05 01 6F 76 F0 FF FF 7F  oJ....6...ov....
0990: 05 09 10 00                                       ....            
```

## Opcodes

```
  0: 0x0957 [0x06] Work_Zone[9] = 0
  1: 0x095A [0x59] UPDATE_ENTITY_DATA: Set EventEntity main speed = 13* * 0.1
  2: 0x0962 [0x1F] MOVE_ENTITY: EventEntity moves to X=10.166*, Z=5.981*, Y=0.749*
  3: 0x096A [0x1F] MOVE_ENTITY: Update entity position (mode=1)
  4: 0x096C [0x1F] MOVE_ENTITY: EventEntity moves to X=7.384*, Z=7.623*, Y=0.530*
  5: 0x0974 [0x1F] MOVE_ENTITY: Update entity position (mode=1)
  6: 0x0976 [0x1F] MOVE_ENTITY: EventEntity moves to X=5.197*, Z=9.014*, Y=0.749*
  7: 0x097E [0x1F] MOVE_ENTITY: Update entity position (mode=1)
  8: 0x0980 [0x6F] WAIT_FRAME_DELAY: Yield until WaitTime reaches zero
  9: 0x0981 [0x4A] LocalPlayer looks at Lehko Habhoka (ID: 17162806/0x0105E236)
 10: 0x098A [0x6F] WAIT_FRAME_DELAY: Yield until WaitTime reaches zero
 11: 0x098B [0x76] CHECK_ENTITY_RENDER_FLAGS: Wait until LocalPlayer Render.Flags0 and Render.Flags3 conditions are met
 12: 0x0990 [0x05] Work_Zone[9] = 1
 13: 0x0993 [0x00] END_REQSTACK()
```
