# Event 65535

## Metadata

| Field           | Value    |
|-----------------|----------|
| Event Index     | 89/125   |
| Offset          | 0x0926   |
| Data Size       | 49 bytes |
| Calculated Size | 49 bytes |
| Instructions    | 10       |

```
      00 01 02 03 04 05 06 07  08 09 0A 0B 0C 0D 0E 0F
      -- -- -- -- -- -- -- --  -- -- -- -- -- -- -- --
0920:                   59 04  F8 FF FF 7F 08 80 1F 00        Y.........
0930: F4 80 F5 80 67 80 1F 01  1F 00 F6 80 F7 80 67 80  ....g.........g.
0940: 1F 01 1F 00 F8 80 F9 80  67 80 1F 01 6F 4A F0 FF  ........g...oJ..
0950: FF 7F 36 E2 05 01 00                              ..6....         
```

## Opcodes

```
  0: 0x0926 [0x59] UPDATE_ENTITY_DATA: Set EventEntity main speed = 13* * 0.1
  1: 0x092E [0x1F] MOVE_ENTITY: EventEntity moves to X=8.696*, Z=-5.666*, Y=0.749*
  2: 0x0936 [0x1F] MOVE_ENTITY: Update entity position (mode=1)
  3: 0x0938 [0x1F] MOVE_ENTITY: EventEntity moves to X=9.705*, Z=-3.286*, Y=0.749*
  4: 0x0940 [0x1F] MOVE_ENTITY: Update entity position (mode=1)
  5: 0x0942 [0x1F] MOVE_ENTITY: EventEntity moves to X=9.123*, Z=-1.841*, Y=0.749*
  6: 0x094A [0x1F] MOVE_ENTITY: Update entity position (mode=1)
  7: 0x094C [0x6F] WAIT_FRAME_DELAY: Yield until WaitTime reaches zero
  8: 0x094D [0x4A] LocalPlayer looks at Lehko Habhoka (ID: 17162806/0x0105E236)
  9: 0x0956 [0x00] END_REQSTACK()
```
