# Event 65535

## Metadata

| Field           | Value    |
|-----------------|----------|
| Event Index     | 98/125   |
| Offset          | 0x0AD4   |
| Data Size       | 48 bytes |
| Calculated Size | 48 bytes |
| Instructions    | 10       |

```
      00 01 02 03 04 05 06 07  08 09 0A 0B 0C 0D 0E 0F
      -- -- -- -- -- -- -- --  -- -- -- -- -- -- -- --
0AD0:             BA F8 FF FF  7F 25 81 26 81 27 81 28      .....%.&.'.(
0AE0: 81 1C 3F 80 1F 00 29 81  2A 81 2B 81 1F 01 1F 00  ..?...).*.+.....
0AF0: 2C 81 2D 81 2E 81 1F 01  1F 00 2F 81 30 81 5E 80  ,.-......./.0.^.
0B00: 1F 01 6F 00                                       ..o.            
```

## Opcodes

```
  0: 0x0AD4 [0xBA] SET_ENTITY_POSITION(entity_id=EventEntity, pos_x=20.946*, pos_z=-22.017*, pos_y=-20.999*, direction=320.4°*)
  1: 0x0AE1 [0x1C] WAIT(40* ticks)
  2: 0x0AE4 [0x1F] MOVE_ENTITY: EventEntity moves to X=24.688*, Z=-17.470*, Y=-22.249*
  3: 0x0AEC [0x1F] MOVE_ENTITY: Update entity position (mode=1)
  4: 0x0AEE [0x1F] MOVE_ENTITY: EventEntity moves to X=27.435*, Z=-12.301*, Y=-23.499*
  5: 0x0AF6 [0x1F] MOVE_ENTITY: Update entity position (mode=1)
  6: 0x0AF8 [0x1F] MOVE_ENTITY: EventEntity moves to X=30.210*, Z=-0.723*, Y=-25.999*
  7: 0x0B00 [0x1F] MOVE_ENTITY: Update entity position (mode=1)
  8: 0x0B02 [0x6F] WAIT_FRAME_DELAY: Yield until WaitTime reaches zero
  9: 0x0B03 [0x00] END_REQSTACK()
```
