# Event 65535

## Metadata

| Field           | Value    |
|-----------------|----------|
| Event Index     | 87/125   |
| Offset          | 0x0874   |
| Data Size       | 75 bytes |
| Calculated Size | 75 bytes |
| Instructions    | 15       |

```
      00 01 02 03 04 05 06 07  08 09 0A 0B 0C 0D 0E 0F
      -- -- -- -- -- -- -- --  -- -- -- -- -- -- -- --
0870:             06 09 10 59  04 F8 FF FF 7F E4 80 1F      ...Y........
0880: 00 E5 80 E6 80 E7 80 1F  01 1F 00 E8 80 E9 80 67  ...............g
0890: 80 1F 01 79 00 F0 FF FF  7F 36 E2 05 01 1F 00 EA  ...y.....6......
08A0: 80 EB 80 67 80 1F 01 1F  00 EC 80 ED 80 67 80 1F  ...g.........g..
08B0: 01 6F 05 09 10 4A F0 FF  FF 7F 36 E2 05 01 00     .o...J....6.... 
```

## Opcodes

```
  0: 0x0874 [0x06] Work_Zone[9] = 0
  1: 0x0877 [0x59] UPDATE_ENTITY_DATA: Set EventEntity main speed = 15* * 0.1
  2: 0x087F [0x1F] MOVE_ENTITY: EventEntity moves to X=1.409*, Z=-16.284*, Y=0.694*
  3: 0x0887 [0x1F] MOVE_ENTITY: Update entity position (mode=1)
  4: 0x0889 [0x1F] MOVE_ENTITY: EventEntity moves to X=2.496*, Z=-13.505*, Y=0.749*
  5: 0x0891 [0x1F] MOVE_ENTITY: Update entity position (mode=1)
  6: 0x0893 [0x79] LocalPlayer looks at Lehko Habhoka (ID: 17162806/0x0105E236) (Basic look)
  7: 0x089D [0x1F] MOVE_ENTITY: EventEntity moves to X=4.049*, Z=-11.807*, Y=0.749*
  8: 0x08A5 [0x1F] MOVE_ENTITY: Update entity position (mode=1)
  9: 0x08A7 [0x1F] MOVE_ENTITY: EventEntity moves to X=6.100*, Z=-8.689*, Y=0.749*
 10: 0x08AF [0x1F] MOVE_ENTITY: Update entity position (mode=1)
 11: 0x08B1 [0x6F] WAIT_FRAME_DELAY: Yield until WaitTime reaches zero
 12: 0x08B2 [0x05] Work_Zone[9] = 1
 13: 0x08B5 [0x4A] LocalPlayer looks at Lehko Habhoka (ID: 17162806/0x0105E236)
 14: 0x08BE [0x00] END_REQSTACK()
```
