# Event 65535

## Metadata

| Field           | Value     |
|-----------------|-----------|
| Event Index     | 45/125    |
| Offset          | 0x0530    |
| Data Size       | 160 bytes |
| Calculated Size | 160 bytes |
| Instructions    | 3         |

```
      00 01 02 03 04 05 06 07  08 09 0A 0B 0C 0D 0E 0F
      -- -- -- -- -- -- -- --  -- -- -- -- -- -- -- --
0530: 33 00 37 7A 80 7B 80 7C  80 7D 80 00 03 06 00 05  3.7z.{.|.}......
0540: 00 02 06 00 7E 80 05 51  05 08 06 00 0A 80 01 56  ....~..Q.......V
0550: 05 08 06 00 0D 80 14 06  00 7F 80 07 06 00 80 80  ................
0560: 1B 03 06 00 05 00 02 06  00 7E 80 05 76 05 08 06  .........~..v...
0570: 00 0A 80 01 7B 05 08 06  00 0D 80 14 06 00 7F 80  ....{...........
0580: 07 06 00 81 80 1B 03 06  00 05 00 02 06 00 7E 80  ..............~.
0590: 05 9B 05 08 06 00 0A 80  01 A0 05 08 06 00 0D 80  ................
05A0: 14 06 00 7F 80 07 06 00  82 80 1B 03 06 00 05 00  ................
05B0: 02 06 00 7E 80 05 C0 05  08 06 00 0A 80 01 C5 05  ...~............
05C0: 08 06 00 0D 80 14 06 00  7F 80 07 06 00 83 80 1B  ................
```

## Opcodes

```
  0: 0x0530 [0x33] EventEntity->Render.Flags0 &= ~ 0x200000 // Bit 21 (flag=0x00)
  1: 0x0532 [0x37] UPDATE_EVENT_POSITION_AND_DIR: x=-32.111*, z=64.388*, y=-3.499*, direction=179.3°*
  2: 0x053B [0x00] END_REQSTACK()
```

## Data or dead code:

```
# Dead code (unreachable instructions):
     0x053C [0x03] ExtData[1]->WorkLocal[6] = ExtData[1]->WorkLocal[5]
     0x0541 [0x02] IF !(ExtData[1]->WorkLocal[6] > 5*) GOTO 0x0551
     0x0549 [0x08] ExtData[1]->WorkLocal[6] -= 1*
     0x054E [0x01] GOTO 0x0556
     0x0551 [0x08] ExtData[1]->WorkLocal[6] -= 2*
     0x0556 [0x14] ExtData[1]->WorkLocal[6] *= 10*
     0x055B [0x07] ExtData[1]->WorkLocal[6] += 9*
     0x0560 [0x1B] RETURN
     0x0561 [0x03] ExtData[1]->WorkLocal[6] = ExtData[1]->WorkLocal[5]
     0x0566 [0x02] IF !(ExtData[1]->WorkLocal[6] > 5*) GOTO 0x0576
     0x056E [0x08] ExtData[1]->WorkLocal[6] -= 1*
     0x0573 [0x01] GOTO 0x057B
     0x0576 [0x08] ExtData[1]->WorkLocal[6] -= 2*
     0x057B [0x14] ExtData[1]->WorkLocal[6] *= 10*
     0x0580 [0x07] ExtData[1]->WorkLocal[6] += 70*
     0x0585 [0x1B] RETURN
     0x0586 [0x03] ExtData[1]->WorkLocal[6] = ExtData[1]->WorkLocal[5]
     0x058B [0x02] IF !(ExtData[1]->WorkLocal[6] > 5*) GOTO 0x059B
     0x0593 [0x08] ExtData[1]->WorkLocal[6] -= 1*
     0x0598 [0x01] GOTO 0x05A0
     0x059B [0x08] ExtData[1]->WorkLocal[6] -= 2*
     0x05A0 [0x14] ExtData[1]->WorkLocal[6] *= 10*
     0x05A5 [0x07] ExtData[1]->WorkLocal[6] += 140*
     0x05AA [0x1B] RETURN
     0x05AB [0x03] ExtData[1]->WorkLocal[6] = ExtData[1]->WorkLocal[5]
     0x05B0 [0x02] IF !(ExtData[1]->WorkLocal[6] > 5*) GOTO 0x05C0
     0x05B8 [0x08] ExtData[1]->WorkLocal[6] -= 1*
     0x05BD [0x01] GOTO 0x05C5
     0x05C0 [0x08] ExtData[1]->WorkLocal[6] -= 2*
     0x05C5 [0x14] ExtData[1]->WorkLocal[6] *= 10*
     0x05CA [0x07] ExtData[1]->WorkLocal[6] += 210*
     0x05CF [0x1B] RETURN
```