# Event 65535

## Metadata

| Field           | Value    |
|-----------------|----------|
| Event Index     | 100/125  |
| Offset          | 0x0B2F   |
| Data Size       | 41 bytes |
| Calculated Size | 41 bytes |
| Instructions    | 8        |

```
      00 01 02 03 04 05 06 07  08 09 0A 0B 0C 0D 0E 0F
      -- -- -- -- -- -- -- --  -- -- -- -- -- -- -- --
0B20:                                               4A                 J
0B30: F8 FF FF 7F 03 E3 05 01  1C 36 81 59 04 F8 FF FF  .........6.Y....
0B40: 7F 1B 81 1F 00 37 81 38  81 33 81 1F 01 6F 4A F8  .....7.8.3...oJ.
0B50: FF FF 7F 02 E3 05 01 00                           ........        
```

## Opcodes

```
  0: 0x0B2F [0x4A] EventEntity looks at Syu Befrathi (ID: 17163011/0x0105E303)
  1: 0x0B38 [0x1C] WAIT(120* ticks)
  2: 0x0B3B [0x59] UPDATE_ENTITY_DATA: Set EventEntity main speed = 11* * 0.1
  3: 0x0B43 [0x1F] MOVE_ENTITY: EventEntity moves to X=10.665*, Z=11.384*, Y=-26.249*
  4: 0x0B4B [0x1F] MOVE_ENTITY: Update entity position (mode=1)
  5: 0x0B4D [0x6F] WAIT_FRAME_DELAY: Yield until WaitTime reaches zero
  6: 0x0B4E [0x4A] EventEntity looks at Nhev Befrathi (ID: 17163010/0x0105E302)
  7: 0x0B57 [0x00] END_REQSTACK()
```
