# Event 127

## Metadata

| Field           | Value    |
|-----------------|----------|
| Event Index     | 31/55    |
| Offset          | 0x021B   |
| Data Size       | 33 bytes |
| Calculated Size | 33 bytes |
| Instructions    | 12       |

```
      00 01 02 03 04 05 06 07  08 09 0A 0B 0C 0D 0E 0F
      -- -- -- -- -- -- -- --  -- -- -- -- -- -- -- --
0210:                                   1E F0 FF FF 7F             .....
0220: 6F 70 29 08 0D E0 0E 01  01 1D 1B 80 23 1D 1C 80  op).........#...
0230: 23 29 08 0D E0 0E 01 02  20 00 21 00              #)...... .!.    
```

## Opcodes

```
  0: 0x021B [0x1E] EventEntity looks at LocalPlayer and starts talking
  1: 0x0220 [0x6F] WAIT_FRAME_DELAY: Yield until WaitTime reaches zero
  2: 0x0221 [0x70] WAIT_ENTITY_RENDER_FLAG: Wait while EventEntity->Render.Flags3 bit 2 is set (cancel turn if not)
  3: 0x0222 [0x29] REQ_SET_WAIT(priority=0x08, entity_id=Panna-Donna (ID: 17752077/0x010EE00D), tag_num=0x01)
  4: 0x0229 [0x1D] PRINT_EVENT_MESSAGE(message_id=7563*)
    → "It might not feel like you're achieving much at firsty-wirsty, but your efforts are contributing to the peace of Windurst.\u007F1\u0000\u0007"
  5: 0x022C [0x23] WAIT_FOR_DIALOG_INTERACTION
  6: 0x022D [0x1D] PRINT_EVENT_MESSAGE(message_id=7564*)
    → "I'm sure my telling you that suddenly enthused you, didn't it?\u007F1\u0000\u0007"
  7: 0x0230 [0x23] WAIT_FOR_DIALOG_INTERACTION
  8: 0x0231 [0x29] REQ_SET_WAIT(priority=0x08, entity_id=Panna-Donna (ID: 17752077/0x010EE00D), tag_num=0x02)
  9: 0x0238 [0x20] SET_CLI_EVENT_UC_FLAG: Unlock player control
 10: 0x023A [0x21] END_EVENT
 11: 0x023B [0x00] END_REQSTACK()
```
