# Event 133

## Metadata

| Field           | Value    |
|-----------------|----------|
| Event Index     | 32/55    |
| Offset          | 0x023C   |
| Data Size       | 33 bytes |
| Calculated Size | 33 bytes |
| Instructions    | 12       |

```
      00 01 02 03 04 05 06 07  08 09 0A 0B 0C 0D 0E 0F
      -- -- -- -- -- -- -- --  -- -- -- -- -- -- -- --
0230:                                      1E F0 FF FF              ....
0240: 7F 6F 70 29 08 0D E0 0E  01 01 1D 1D 80 23 1D 1E  .op).........#..
0250: 80 23 29 08 0D E0 0E 01  02 20 00 21 00           .#)...... .!.   
```

## Opcodes

```
  0: 0x023C [0x1E] EventEntity looks at LocalPlayer and starts talking
  1: 0x0241 [0x6F] WAIT_FRAME_DELAY: Yield until WaitTime reaches zero
  2: 0x0242 [0x70] WAIT_ENTITY_RENDER_FLAG: Wait while EventEntity->Render.Flags3 bit 2 is set (cancel turn if not)
  3: 0x0243 [0x29] REQ_SET_WAIT(priority=0x08, entity_id=Panna-Donna (ID: 17752077/0x010EE00D), tag_num=0x01)
  4: 0x024A [0x1D] PRINT_EVENT_MESSAGE(message_id=7579*)
    → "Cardians are our automaton guards. They were originally created twenty years ago by Zonpa-Zippa, the Minister of the Manustery.\u007F1\u0000\u0007"
  5: 0x024D [0x23] WAIT_FOR_DIALOG_INTERACTION
  6: 0x024E [0x1D] PRINT_EVENT_MESSAGE(message_id=7580*)
    → "It's hard enough to collect the materials to make them, but it takes even more effort to train them. Occasionally a few go bonkers-wonkers and run away...or that's what the guys from the Manustery say.\u007F1\u0000\u0007"
  7: 0x0251 [0x23] WAIT_FOR_DIALOG_INTERACTION
  8: 0x0252 [0x29] REQ_SET_WAIT(priority=0x08, entity_id=Panna-Donna (ID: 17752077/0x010EE00D), tag_num=0x02)
  9: 0x0259 [0x20] SET_CLI_EVENT_UC_FLAG: Unlock player control
 10: 0x025B [0x21] END_EVENT
 11: 0x025C [0x00] END_REQSTACK()
```
