# Event 158

## Metadata

| Field           | Value    |
|-----------------|----------|
| Event Index     | 35/55    |
| Offset          | 0x02AD   |
| Data Size       | 33 bytes |
| Calculated Size | 33 bytes |
| Instructions    | 12       |

```
      00 01 02 03 04 05 06 07  08 09 0A 0B 0C 0D 0E 0F
      -- -- -- -- -- -- -- --  -- -- -- -- -- -- -- --
02A0:                                         1E F0 FF               ...
02B0: FF 7F 6F 70 29 08 0D E0  0E 01 01 1D 23 80 23 1D  ..op).......#.#.
02C0: 24 80 23 29 08 0D E0 0E  01 02 20 00 21 00        $.#)...... .!.  
```

## Opcodes

```
  0: 0x02AD [0x1E] EventEntity looks at LocalPlayer and starts talking
  1: 0x02B2 [0x6F] WAIT_FRAME_DELAY: Yield until WaitTime reaches zero
  2: 0x02B3 [0x70] WAIT_ENTITY_RENDER_FLAG: Wait while EventEntity->Render.Flags3 bit 2 is set (cancel turn if not)
  3: 0x02B4 [0x29] REQ_SET_WAIT(priority=0x08, entity_id=Panna-Donna (ID: 17752077/0x010EE00D), tag_num=0x01)
  4: 0x02BB [0x1D] PRINT_EVENT_MESSAGE(message_id=7656*)
    → "I don't read at all, so I have no interest in the library.\u007F1\u0000\u0007"
  5: 0x02BE [0x23] WAIT_FOR_DIALOG_INTERACTION
  6: 0x02BF [0x1D] PRINT_EVENT_MESSAGE(message_id=7657*)
    → "Reading books just isn't in vogue these days. It has to have the impact and excitement of a wandering minstrel's song or a street performance to grab the attention of people today.\u007F1\u0000\u0007"
  7: 0x02C2 [0x23] WAIT_FOR_DIALOG_INTERACTION
  8: 0x02C3 [0x29] REQ_SET_WAIT(priority=0x08, entity_id=Panna-Donna (ID: 17752077/0x010EE00D), tag_num=0x02)
  9: 0x02CA [0x20] SET_CLI_EVENT_UC_FLAG: Unlock player control
 10: 0x02CC [0x21] END_EVENT
 11: 0x02CD [0x00] END_REQSTACK()
```
