# Event 831

## Metadata

| Field           | Value    |
|-----------------|----------|
| Event Index     | 54/55    |
| Offset          | 0x05A0   |
| Data Size       | 45 bytes |
| Calculated Size | 45 bytes |
| Instructions    | 14       |

```
      00 01 02 03 04 05 06 07  08 09 0A 0B 0C 0D 0E 0F
      -- -- -- -- -- -- -- --  -- -- -- -- -- -- -- --
05A0: 1E F0 FF FF 7F 6F 70 29  08 0D E0 0E 01 01 1D 4B  .....op).......K
05B0: 80 23 29 08 0D E0 0E 01  02 6E F8 FF FF 7F 3D 80  .#)......n....=.
05C0: 99 F8 FF FF 7F 1D 4C 80  23 20 00 21 00           ......L.# .!.   
```

## Opcodes

```
  0: 0x05A0 [0x1E] EventEntity looks at LocalPlayer and starts talking
  1: 0x05A5 [0x6F] WAIT_FRAME_DELAY: Yield until WaitTime reaches zero
  2: 0x05A6 [0x70] WAIT_ENTITY_RENDER_FLAG: Wait while EventEntity->Render.Flags3 bit 2 is set (cancel turn if not)
  3: 0x05A7 [0x29] REQ_SET_WAIT(priority=0x08, entity_id=Panna-Donna (ID: 17752077/0x010EE00D), tag_num=0x01)
  4: 0x05AE [0x1D] PRINT_EVENT_MESSAGE(message_id=10075*)
    → "Isn'taru it about time for the five ministries to have their meeting?\u007F1\u0000\u0007"
  5: 0x05B1 [0x23] WAIT_FOR_DIALOG_INTERACTION
  6: 0x05B2 [0x29] REQ_SET_WAIT(priority=0x08, entity_id=Panna-Donna (ID: 17752077/0x010EE00D), tag_num=0x02)
  7: 0x05B9 [0x6E] EventEntity uses emote 6*
  8: 0x05C0 [0x99] Wait for EventEntity animation to complete
  9: 0x05C5 [0x1D] PRINT_EVENT_MESSAGE(message_id=10076*)
    → "But with the way things have been lately-wately, I wouldn'taru be surprised if they skip-pipped it. Minister Ajido-Marujido hasn't even returned to the Orastery yet.\u007F1\u0000\u0007"
 10: 0x05C8 [0x23] WAIT_FOR_DIALOG_INTERACTION
 11: 0x05C9 [0x20] SET_CLI_EVENT_UC_FLAG: Unlock player control
 12: 0x05CB [0x21] END_EVENT
 13: 0x05CC [0x00] END_REQSTACK()
```
