# 17523358

## Common Data

| Field            | Value                    |
|------------------|--------------------------|
| Zone             | Walk of Echoes (ID: 182) |
| Block Size       | 164 bytes                |
| Total Events     | 4                        |
| References Count | 7                        |

## List of Events

| Event ID              | Entrypoint   |   Size |   Instructions |
|-----------------------|--------------|--------|----------------|
| [65535](#event-65535) | 0x0000       |      1 |              1 |
| [30](#event-30)       | 0x0001       |      1 |              1 |
| [31](#event-31)       | 0x0002       |      1 |              1 |
| [36](#event-36)       | 0x0003       |    101 |             19 |

## DAT References (imed_data)

|   Index | Hex Value   |   Dec Value |
|---------|-------------|-------------|
|       0 | 0x0000      |           0 |
|       1 | 0x1F2F      |        7983 |
|       2 | 0x007C      |         124 |
|       3 | 0x0096      |         150 |
|       4 | 0x0028      |          40 |
|       5 | 0x00C8      |         200 |
|       6 | 0x0001      |           1 |

## String References

- **7983**: Warp to [???/Provenance/Walk of Echoes/Pashhow Marshlands]? [Yes./No.]

## Events

### Event 65535

#### Metadata

| Field        | Value   |
|--------------|---------|
| Entrypoint   | 0x0000  |
| Data Size    | 1 bytes |
| Instructions | 1       |

```
      00 01 02 03 04 05 06 07  08 09 0A 0B 0C 0D 0E 0F
      -- -- -- -- -- -- -- --  -- -- -- -- -- -- -- --
0000: 00                                                .               
```

#### Opcodes

```
  0: 0x0000 [0x00] END_REQSTACK()
```

### Event 30

#### Metadata

| Field        | Value   |
|--------------|---------|
| Entrypoint   | 0x0001  |
| Data Size    | 1 bytes |
| Instructions | 1       |

```
      00 01 02 03 04 05 06 07  08 09 0A 0B 0C 0D 0E 0F
      -- -- -- -- -- -- -- --  -- -- -- -- -- -- -- --
0000:    00                                              .              
```

#### Opcodes

```
  0: 0x0001 [0x00] END_REQSTACK()
```

### Event 31

#### Metadata

| Field        | Value   |
|--------------|---------|
| Entrypoint   | 0x0002  |
| Data Size    | 1 bytes |
| Instructions | 1       |

```
      00 01 02 03 04 05 06 07  08 09 0A 0B 0C 0D 0E 0F
      -- -- -- -- -- -- -- --  -- -- -- -- -- -- -- --
0000:       00                                            .             
```

#### Opcodes

```
  0: 0x0002 [0x00] END_REQSTACK()
```

### Event 36

#### Metadata

| Field        | Value     |
|--------------|-----------|
| Entrypoint   | 0x0003    |
| Data Size    | 101 bytes |
| Instructions | 18        |

```
      00 01 02 03 04 05 06 07  08 09 0A 0B 0C 0D 0E 0F
      -- -- -- -- -- -- -- --  -- -- -- -- -- -- -- --
0000:          03 01 10 00 80  03 02 10 00 80 24 01 80     ..........$..
0010: 00 80 00 80 25 02 00 10  00 80 00 66 00 42 CD 02  ....%......f.B..
0020: 80 F0 FF FF 7F F0 FF FF  7F 6D 61 69 6E 00 80 1C  .........main...
0030: 03 80 92 01 F0 FF FF 7F  1C 04 80 45 05 80 F0 FF  ...........E....
0040: FF 7F F0 FF FF 7F 66 64  6F 31 00 80 55 05 80 F0  ......fdo1..U...
0050: FF FF 7F F0 FF FF 7F 66  64 6F 31 03 01 10 06 80  .......fdo1.....
0060: 30 21 00 01 66 00 21 00                           0!..f.!.        
```

#### Opcodes

```
  0: 0x0003 [0x03] Work_Zone[1] = 0*
  1: 0x0008 [0x03] Work_Zone[2] = 0*
  2: 0x000D [0x24] CREATE_DIALOG(message_id=7983*, default_option=0*, option_flags=0*)
    → "Warp to [???/Provenance/Walk of Echoes/Pashhow Marshlands]? [Yes./No.]"
  3: 0x0014 [0x25] WAIT_DIALOG_SELECT()
  4: 0x0015 [0x02] IF !(Work_Zone[0] == 0*) GOTO 0x0066
  5: 0x001D [0x42] SET_CLI_EVENT_CANCEL_DATA()
  6: 0x001E [0xCD] LOAD_SCHEDULED_TASK_ALT4: Load scheduler "main" with entities [LocalPlayer, LocalPlayer], work=[124*, 0*]
  7: 0x002F [0x1C] WAIT(150* ticks)
  8: 0x0032 [0x92] LocalPlayer->Render.Flags3 ^= 0x01
  9: 0x0038 [0x1C] WAIT(40* ticks)
 10: 0x003B [0x45] LOAD_SCHEDULED_TASK: Load scheduler "fdo1" with entities [LocalPlayer, LocalPlayer], work=[200*, 0*]
 11: 0x004C [0x55] WAIT_LOAD_SCHEDULER: Wait for scheduler "fdo1" with entities [LocalPlayer, LocalPlayer], work=200*
 12: 0x005B [0x03] Work_Zone[1] = 1*
 13: 0x0060 [0x30] SET_UCOFF_CONTINUE_ZERO()
 14: 0x0061 [0x21] END_EVENT
 15: 0x0062 [0x00] END_REQSTACK()

SUBROUTINE_0066:
 16: 0x0066 [0x21] END_EVENT
 17: 0x0067 [0x00] END_REQSTACK()
```

#### Data or dead code:

```
# Dead code (unreachable instructions):
     0x0063 [0x01] GOTO 0x0066
```
