# 17523294

## Common Data

| Field            | Value                    |
|------------------|--------------------------|
| Zone             | Walk of Echoes (ID: 182) |
| Block Size       | 1156 bytes               |
| Total Events     | 20                       |
| References Count | 23                       |

## List of Events

| Event ID                   | Entrypoint   |   Size |   Instructions |
|----------------------------|--------------|--------|----------------|
| [65535](#event-65535)      | 0x0000       |      1 |              1 |
| [1](#event-1)              | 0x0001       |      4 |              2 |
| [2](#event-2)              | 0x0005       |      4 |              2 |
| [65535.1](#event-655351)   | 0x0009       |     21 |              2 |
| [65535.2](#event-655352)   | 0x001E       |    256 |             26 |
| [65535.3](#event-655353)   | 0x011E       |     59 |              7 |
| [65535.4](#event-655354)   | 0x0159       |     29 |              5 |
| [65535.5](#event-655355)   | 0x0176       |     29 |              5 |
| [65535.6](#event-655356)   | 0x0193       |     37 |              5 |
| [65535.7](#event-655357)   | 0x01B8       |     37 |              5 |
| [65535.8](#event-655358)   | 0x01DD       |     10 |              2 |
| [65535.9](#event-655359)   | 0x01E7       |     10 |              2 |
| [65535.10](#event-6553510) | 0x01F1       |    404 |             58 |
| [65535.11](#event-6553511) | 0x0385       |      1 |              1 |
| [65535.12](#event-6553512) | 0x0386       |     18 |              4 |
| [65535.13](#event-6553513) | 0x0398       |     10 |              2 |
| [65535.14](#event-6553514) | 0x03A2       |      9 |              3 |
| [65535.15](#event-6553515) | 0x03AB       |      9 |              3 |
| [65535.16](#event-6553516) | 0x03B4       |     10 |              2 |
| [65535.17](#event-6553517) | 0x03BE       |     10 |              2 |

## DAT References (imed_data)

|   Index | Hex Value   |   Dec Value |
|---------|-------------|-------------|
|       0 | 0x0001      |           1 |
|       1 | 0x0000      |           0 |
|       2 | 0x0117      |         279 |
|       3 | 0x00EC      |         236 |
|       4 | 0x0002      |           2 |
|       5 | 0x0003      |           3 |
|       6 | 0x0004      |           4 |
|       7 | 0x0005      |           5 |
|       8 | 0x0006      |           6 |
|       9 | 0x0007      |           7 |
|      10 | 0x0008      |           8 |
|      11 | 0x0023      |          35 |
|      12 | 0xFFF551BB  |  4294267323 |
|      13 | 0xFFFDE027  |  4294828071 |
|      14 | 0xFFFFCE1F  |  4294954527 |
|      15 | 0x0400      |        1024 |
|      16 | 0x0080      |         128 |
|      17 | 0x00C8      |         200 |
|      18 | 0x000A      |          10 |
|      19 | 0x0009      |           9 |
|      20 | 0x0046      |          70 |
|      21 | 0x008C      |         140 |
|      22 | 0x00D2      |         210 |

## Events

### Event 65535

#### Metadata

| Field        | Value   |
|--------------|---------|
| Entrypoint   | 0x0000  |
| Data Size    | 1 bytes |
| Instructions | 1       |

```
      00 01 02 03 04 05 06 07  08 09 0A 0B 0C 0D 0E 0F
      -- -- -- -- -- -- -- --  -- -- -- -- -- -- -- --
0000: 00                                                .               
```

#### Opcodes

```
  0: 0x0000 [0x00] END_REQSTACK()
```

### Event 1

#### Metadata

| Field        | Value   |
|--------------|---------|
| Entrypoint   | 0x0001  |
| Data Size    | 4 bytes |
| Instructions | 2       |

```
      00 01 02 03 04 05 06 07  08 09 0A 0B 0C 0D 0E 0F
      -- -- -- -- -- -- -- --  -- -- -- -- -- -- -- --
0000:    C0 00 80 00                                     ....           
```

#### Opcodes

```
  0: 0x0001 [0xC0] EventEntity->Render.Flags3 |= 0x1000 // Set bit 12 (from 1*)
  1: 0x0004 [0x00] END_REQSTACK()
```

### Event 2

#### Metadata

| Field        | Value   |
|--------------|---------|
| Entrypoint   | 0x0005  |
| Data Size    | 4 bytes |
| Instructions | 2       |

```
      00 01 02 03 04 05 06 07  08 09 0A 0B 0C 0D 0E 0F
      -- -- -- -- -- -- -- --  -- -- -- -- -- -- -- --
0000:                C0 00 80  00                            ....       
```

#### Opcodes

```
  0: 0x0005 [0xC0] EventEntity->Render.Flags3 |= 0x1000 // Set bit 12 (from 1*)
  1: 0x0008 [0x00] END_REQSTACK()
```

### Event 65535.1

#### Metadata

| Field        | Value    |
|--------------|----------|
| Entrypoint   | 0x0009   |
| Data Size    | 21 bytes |
| Instructions | 2        |

```
      00 01 02 03 04 05 06 07  08 09 0A 0B 0C 0D 0E 0F
      -- -- -- -- -- -- -- --  -- -- -- -- -- -- -- --
0000:                             B6 0B 00 80 01 80 01           .......
0010: 80 01 80 01 80 01 80 01  80 01 80 01 80 00        ..............  
```

#### Opcodes

```
  0: 0x0009 [0xB6] ENTITY_APPEARANCE_HANDLER(case=Full entity look, race=1*, hair=0*, head=0*, body=0*, hands=0*, legs=0*, feet=0*, main=0*, sub=0*)
  1: 0x001D [0x00] END_REQSTACK()
```

### Event 65535.2

#### Metadata

| Field        | Value     |
|--------------|-----------|
| Entrypoint   | 0x001E    |
| Data Size    | 256 bytes |
| Instructions | 26        |

```
      00 01 02 03 04 05 06 07  08 09 0A 0B 0C 0D 0E 0F
      -- -- -- -- -- -- -- --  -- -- -- -- -- -- -- --
0010:                                            29 10                ).
0020: F0 FF FF 7F 05 02 02 10  00 80 80 44 00 B6 0B 00  ...........D....
0030: 80 03 10 04 10 05 10 06  10 02 80 03 80 07 10 08  ................
0040: 10 01 1D 01 02 02 10 04  80 80 63 00 B6 0B 04 80  ..........c.....
0050: 03 10 04 10 05 10 06 10  02 80 03 80 07 10 08 10  ................
0060: 01 1D 01 02 02 10 05 80  80 82 00 B6 0B 05 80 03  ................
0070: 10 04 10 05 10 06 10 02  80 03 80 07 10 08 10 01  ................
0080: 1D 01 02 02 10 06 80 80  A1 00 B6 0B 06 80 03 10  ................
0090: 04 10 05 10 06 10 02 80  03 80 07 10 08 10 01 1D  ................
00A0: 01 02 02 10 07 80 80 C0  00 B6 0B 07 80 03 10 04  ................
00B0: 10 05 10 06 10 02 80 03  80 07 10 08 10 01 1D 01  ................
00C0: 02 02 10 08 80 80 DF 00  B6 0B 08 80 03 10 04 10  ................
00D0: 05 10 06 10 02 80 03 80  07 10 08 10 01 1D 01 02  ................
00E0: 02 10 09 80 80 FE 00 B6  0B 09 80 03 10 04 10 05  ................
00F0: 10 06 10 02 80 03 80 07  10 08 10 01 1D 01 02 02  ................
0100: 10 0A 80 80 1D 01 B6 0B  0A 80 03 10 04 10 05 10  ................
0110: 06 10 02 80 03 80 07 10  08 10 01 1D 01 00        ..............  
```

#### Opcodes

```
  0: 0x001E [0x29] REQ_SET_WAIT(priority=0x10, entity_id=LocalPlayer, tag_num=0x05)
  1: 0x0025 [0x02] IF !(Work_Zone[2] == 1*) GOTO 0x0044
  2: 0x002D [0xB6] ENTITY_APPEARANCE_HANDLER(case=Full entity look, race=1*, hair=Work_Zone[3], head=Work_Zone[4], body=Work_Zone[5], hands=Work_Zone[6], legs=279*, feet=236*, main=Work_Zone[7], sub=Work_Zone[8])
  3: 0x0041 [0x01] GOTO 0x011D
  4: 0x0044 [0x02] IF !(Work_Zone[2] == 2*) GOTO 0x0063
  5: 0x004C [0xB6] ENTITY_APPEARANCE_HANDLER(case=Full entity look, race=2*, hair=Work_Zone[3], head=Work_Zone[4], body=Work_Zone[5], hands=Work_Zone[6], legs=279*, feet=236*, main=Work_Zone[7], sub=Work_Zone[8])
  6: 0x0060 [0x01] GOTO 0x011D
  7: 0x0063 [0x02] IF !(Work_Zone[2] == 3*) GOTO 0x0082
  8: 0x006B [0xB6] ENTITY_APPEARANCE_HANDLER(case=Full entity look, race=3*, hair=Work_Zone[3], head=Work_Zone[4], body=Work_Zone[5], hands=Work_Zone[6], legs=279*, feet=236*, main=Work_Zone[7], sub=Work_Zone[8])
  9: 0x007F [0x01] GOTO 0x011D
 10: 0x0082 [0x02] IF !(Work_Zone[2] == 4*) GOTO 0x00A1
 11: 0x008A [0xB6] ENTITY_APPEARANCE_HANDLER(case=Full entity look, race=4*, hair=Work_Zone[3], head=Work_Zone[4], body=Work_Zone[5], hands=Work_Zone[6], legs=279*, feet=236*, main=Work_Zone[7], sub=Work_Zone[8])
 12: 0x009E [0x01] GOTO 0x011D
 13: 0x00A1 [0x02] IF !(Work_Zone[2] == 5*) GOTO 0x00C0
 14: 0x00A9 [0xB6] ENTITY_APPEARANCE_HANDLER(case=Full entity look, race=5*, hair=Work_Zone[3], head=Work_Zone[4], body=Work_Zone[5], hands=Work_Zone[6], legs=279*, feet=236*, main=Work_Zone[7], sub=Work_Zone[8])
 15: 0x00BD [0x01] GOTO 0x011D
 16: 0x00C0 [0x02] IF !(Work_Zone[2] == 6*) GOTO 0x00DF
 17: 0x00C8 [0xB6] ENTITY_APPEARANCE_HANDLER(case=Full entity look, race=6*, hair=Work_Zone[3], head=Work_Zone[4], body=Work_Zone[5], hands=Work_Zone[6], legs=279*, feet=236*, main=Work_Zone[7], sub=Work_Zone[8])
 18: 0x00DC [0x01] GOTO 0x011D
 19: 0x00DF [0x02] IF !(Work_Zone[2] == 7*) GOTO 0x00FE
 20: 0x00E7 [0xB6] ENTITY_APPEARANCE_HANDLER(case=Full entity look, race=7*, hair=Work_Zone[3], head=Work_Zone[4], body=Work_Zone[5], hands=Work_Zone[6], legs=279*, feet=236*, main=Work_Zone[7], sub=Work_Zone[8])
 21: 0x00FB [0x01] GOTO 0x011D
 22: 0x00FE [0x02] IF !(Work_Zone[2] == 8*) GOTO 0x011D
 23: 0x0106 [0xB6] ENTITY_APPEARANCE_HANDLER(case=Full entity look, race=8*, hair=Work_Zone[3], head=Work_Zone[4], body=Work_Zone[5], hands=Work_Zone[6], legs=279*, feet=236*, main=Work_Zone[7], sub=Work_Zone[8])
 24: 0x011A [0x01] GOTO 0x011D

SUBROUTINE_011D:
 25: 0x011D [0x00] END_REQSTACK()
```

### Event 65535.3

#### Metadata

| Field        | Value    |
|--------------|----------|
| Entrypoint   | 0x011E   |
| Data Size    | 59 bytes |
| Instructions | 7        |

```
      00 01 02 03 04 05 06 07  08 09 0A 0B 0C 0D 0E 0F
      -- -- -- -- -- -- -- --  -- -- -- -- -- -- -- --
0110:                                            03 00                ..
0120: 00 07 7F 1A 16 03 07 01  00 04 80 66 01 00 F8 FF  ...........f....
0130: FF 7F F8 FF FF 7F 6B 61  6B 30 CD 0B 80 F8 FF FF  ......kak0......
0140: 7F F8 FF FF 7F 63 6F 6C  31 01 80 BA 5E 62 0B 01  .....col1...^b..
0150: 0C 80 0D 80 0E 80 0F 80  00                       .........       
```

#### Opcodes

```
  0: 0x011E [0x03] ExtData[1]->WorkLocal[0] = Entity->Race
  1: 0x0123 [0x1A] CALL_SUBROUTINE(address=0x0316)
  2: 0x0126 [0x07] ExtData[1]->WorkLocal[1] += 2*
  3: 0x012B [0x66] LOAD_EXT_SCHEDULER_MAIN: Load scheduler "kak0" with entities [EventEntity, EventEntity], work=ExtData[1]->WorkLocal[1]
  4: 0x013A [0xCD] LOAD_SCHEDULED_TASK_ALT4: Load scheduler "col1" with entities [EventEntity, EventEntity], work=[35*, 0*]
  5: 0x014B [0xBA] SET_ENTITY_POSITION(entity_id=Unnamed NPC (ID: 17523294/0x010B625E), pos_x=-699.973*, pos_z=-139.225*, pos_y=-12.769*, direction=90.0°*)
  6: 0x0158 [0x00] END_REQSTACK()
```

### Event 65535.4

#### Metadata

| Field        | Value    |
|--------------|----------|
| Entrypoint   | 0x0159   |
| Data Size    | 29 bytes |
| Instructions | 5        |

```
      00 01 02 03 04 05 06 07  08 09 0A 0B 0C 0D 0E 0F
      -- -- -- -- -- -- -- --  -- -- -- -- -- -- -- --
0150:                             03 00 00 07 7F 1A 16           .......
0160: 03 07 01 00 04 80 66 01  00 F8 FF FF 7F F8 FF FF  ......f.........
0170: 7F 6B 61 6B 31 00                                 .kak1.          
```

#### Opcodes

```
  0: 0x0159 [0x03] ExtData[1]->WorkLocal[0] = Entity->Race
  1: 0x015E [0x1A] CALL_SUBROUTINE(address=0x0316)
  2: 0x0161 [0x07] ExtData[1]->WorkLocal[1] += 2*
  3: 0x0166 [0x66] LOAD_EXT_SCHEDULER_MAIN: Load scheduler "kak1" with entities [EventEntity, EventEntity], work=ExtData[1]->WorkLocal[1]
  4: 0x0175 [0x00] END_REQSTACK()
```

### Event 65535.5

#### Metadata

| Field        | Value    |
|--------------|----------|
| Entrypoint   | 0x0176   |
| Data Size    | 29 bytes |
| Instructions | 5        |

```
      00 01 02 03 04 05 06 07  08 09 0A 0B 0C 0D 0E 0F
      -- -- -- -- -- -- -- --  -- -- -- -- -- -- -- --
0170:                   03 00  00 07 7F 1A 16 03 07 01        ..........
0180: 00 06 80 66 01 00 F8 FF  FF 7F F8 FF FF 7F 70 6F  ...f..........po
0190: 73 30 00                                          s0.             
```

#### Opcodes

```
  0: 0x0176 [0x03] ExtData[1]->WorkLocal[0] = Entity->Race
  1: 0x017B [0x1A] CALL_SUBROUTINE(address=0x0316)
  2: 0x017E [0x07] ExtData[1]->WorkLocal[1] += 4*
  3: 0x0183 [0x66] LOAD_EXT_SCHEDULER_MAIN: Load scheduler "pos0" with entities [EventEntity, EventEntity], work=ExtData[1]->WorkLocal[1]
  4: 0x0192 [0x00] END_REQSTACK()
```

### Event 65535.6

#### Metadata

| Field        | Value    |
|--------------|----------|
| Entrypoint   | 0x0193   |
| Data Size    | 37 bytes |
| Instructions | 5        |

```
      00 01 02 03 04 05 06 07  08 09 0A 0B 0C 0D 0E 0F
      -- -- -- -- -- -- -- --  -- -- -- -- -- -- -- --
0190:          03 00 00 07 7F  1A F1 02 66 01 00 F8 FF     ........f....
01A0: FF 7F F8 FF FF 7F 73 68  61 30 53 F8 FF FF 7F F8  ......sha0S.....
01B0: FF FF 7F 73 68 61 30 00                           ...sha0.        
```

#### Opcodes

```
  0: 0x0193 [0x03] ExtData[1]->WorkLocal[0] = Entity->Race
  1: 0x0198 [0x1A] CALL_SUBROUTINE(address=0x02F1)
  2: 0x019B [0x66] LOAD_EXT_SCHEDULER_MAIN: Load scheduler "sha0" with entities [EventEntity, EventEntity], work=ExtData[1]->WorkLocal[1]
  3: 0x01AA [0x53] WAIT_SCHEDULER_TASK: Wait for scheduler "sha0" with entities [EventEntity, EventEntity]
  4: 0x01B7 [0x00] END_REQSTACK()
```

### Event 65535.7

#### Metadata

| Field        | Value    |
|--------------|----------|
| Entrypoint   | 0x01B8   |
| Data Size    | 37 bytes |
| Instructions | 5        |

```
      00 01 02 03 04 05 06 07  08 09 0A 0B 0C 0D 0E 0F
      -- -- -- -- -- -- -- --  -- -- -- -- -- -- -- --
01B0:                          03 00 00 07 7F 1A F1 02          ........
01C0: 66 01 00 F8 FF FF 7F F8  FF FF 7F 73 68 61 31 53  f..........sha1S
01D0: F8 FF FF 7F F8 FF FF 7F  73 68 61 31 00           ........sha1.   
```

#### Opcodes

```
  0: 0x01B8 [0x03] ExtData[1]->WorkLocal[0] = Entity->Race
  1: 0x01BD [0x1A] CALL_SUBROUTINE(address=0x02F1)
  2: 0x01C0 [0x66] LOAD_EXT_SCHEDULER_MAIN: Load scheduler "sha1" with entities [EventEntity, EventEntity], work=ExtData[1]->WorkLocal[1]
  3: 0x01CF [0x53] WAIT_SCHEDULER_TASK: Wait for scheduler "sha1" with entities [EventEntity, EventEntity]
  4: 0x01DC [0x00] END_REQSTACK()
```

### Event 65535.8

#### Metadata

| Field        | Value    |
|--------------|----------|
| Entrypoint   | 0x01DD   |
| Data Size    | 10 bytes |
| Instructions | 2        |

```
      00 01 02 03 04 05 06 07  08 09 0A 0B 0C 0D 0E 0F
      -- -- -- -- -- -- -- --  -- -- -- -- -- -- -- --
01D0:                                         6C F8 FF               l..
01E0: FF 7F 01 80 00 80 00                              .......         
```

#### Opcodes

```
  0: 0x01DD [0x6C] FADE_ENTITY_COLOR(entity_id=EventEntity, end_alpha=0*, fade_time=1*)
  1: 0x01E6 [0x00] END_REQSTACK()
```

### Event 65535.9

#### Metadata

| Field        | Value    |
|--------------|----------|
| Entrypoint   | 0x01E7   |
| Data Size    | 10 bytes |
| Instructions | 2        |

```
      00 01 02 03 04 05 06 07  08 09 0A 0B 0C 0D 0E 0F
      -- -- -- -- -- -- -- --  -- -- -- -- -- -- -- --
01E0:                      6C  F8 FF FF 7F 10 80 00 80         l........
01F0: 00                                                .               
```

#### Opcodes

```
  0: 0x01E7 [0x6C] FADE_ENTITY_COLOR(entity_id=EventEntity, end_alpha=128*, fade_time=1*)
  1: 0x01F0 [0x00] END_REQSTACK()
```

### Event 65535.10

#### Metadata

| Field        | Value     |
|--------------|-----------|
| Entrypoint   | 0x01F1    |
| Data Size    | 404 bytes |
| Instructions | 26        |

```
      00 01 02 03 04 05 06 07  08 09 0A 0B 0C 0D 0E 0F
      -- -- -- -- -- -- -- --  -- -- -- -- -- -- -- --
01F0:    29 10 F0 FF FF 7F 05  02 02 10 00 80 80 17 02   )..............
0200: B6 0B 00 80 03 10 04 10  05 10 06 10 02 80 11 80  ................
0210: 07 10 08 10 01 F0 02 02  02 10 04 80 80 36 02 B6  .............6..
0220: 0B 04 80 03 10 04 10 05  10 06 10 02 80 11 80 07  ................
0230: 10 08 10 01 F0 02 02 02  10 05 80 80 55 02 B6 0B  ............U...
0240: 05 80 03 10 04 10 05 10  06 10 02 80 11 80 07 10  ................
0250: 08 10 01 F0 02 02 02 10  06 80 80 74 02 B6 0B 06  ...........t....
0260: 80 03 10 04 10 05 10 06  10 02 80 11 80 07 10 08  ................
0270: 10 01 F0 02 02 02 10 07  80 80 93 02 B6 0B 07 80  ................
0280: 03 10 04 10 05 10 06 10  02 80 11 80 07 10 08 10  ................
0290: 01 F0 02 02 02 10 08 80  80 B2 02 B6 0B 08 80 03  ................
02A0: 10 04 10 05 10 06 10 02  80 11 80 07 10 08 10 01  ................
02B0: F0 02 02 02 10 09 80 80  D1 02 B6 0B 09 80 03 10  ................
02C0: 04 10 05 10 06 10 02 80  11 80 07 10 08 10 01 F0  ................
02D0: 02 02 02 10 0A 80 80 F0  02 B6 0B 0A 80 03 10 04  ................
02E0: 10 05 10 06 10 02 80 11  80 07 10 08 10 01 F0 02  ................
02F0: 00 03 01 00 00 00 02 01  00 07 80 05 06 03 08 01  ................
0300: 00 00 80 01 0B 03 08 01  00 04 80 14 01 00 12 80  ................
0310: 07 01 00 13 80 1B 03 01  00 00 00 02 01 00 07 80  ................
0320: 05 2B 03 08 01 00 00 80  01 30 03 08 01 00 04 80  .+.......0......
0330: 14 01 00 12 80 07 01 00  14 80 1B 03 01 00 00 00  ................
0340: 02 01 00 07 80 05 50 03  08 01 00 00 80 01 55 03  ......P.......U.
0350: 08 01 00 04 80 14 01 00  12 80 07 01 00 15 80 1B  ................
0360: 03 01 00 00 00 02 01 00  07 80 05 75 03 08 01 00  ...........u....
0370: 00 80 01 7A 03 08 01 00  04 80 14 01 00 12 80 07  ...z............
0380: 01 00 16 80 1B                                    .....           
```

#### Opcodes

```
  0: 0x01F1 [0x29] REQ_SET_WAIT(priority=0x10, entity_id=LocalPlayer, tag_num=0x05)
  1: 0x01F8 [0x02] IF !(Work_Zone[2] == 1*) GOTO 0x0217
  2: 0x0200 [0xB6] ENTITY_APPEARANCE_HANDLER(case=Full entity look, race=1*, hair=Work_Zone[3], head=Work_Zone[4], body=Work_Zone[5], hands=Work_Zone[6], legs=279*, feet=200*, main=Work_Zone[7], sub=Work_Zone[8])
  3: 0x0214 [0x01] GOTO 0x02F0
  4: 0x0217 [0x02] IF !(Work_Zone[2] == 2*) GOTO 0x0236
  5: 0x021F [0xB6] ENTITY_APPEARANCE_HANDLER(case=Full entity look, race=2*, hair=Work_Zone[3], head=Work_Zone[4], body=Work_Zone[5], hands=Work_Zone[6], legs=279*, feet=200*, main=Work_Zone[7], sub=Work_Zone[8])
  6: 0x0233 [0x01] GOTO 0x02F0
  7: 0x0236 [0x02] IF !(Work_Zone[2] == 3*) GOTO 0x0255
  8: 0x023E [0xB6] ENTITY_APPEARANCE_HANDLER(case=Full entity look, race=3*, hair=Work_Zone[3], head=Work_Zone[4], body=Work_Zone[5], hands=Work_Zone[6], legs=279*, feet=200*, main=Work_Zone[7], sub=Work_Zone[8])
  9: 0x0252 [0x01] GOTO 0x02F0
 10: 0x0255 [0x02] IF !(Work_Zone[2] == 4*) GOTO 0x0274
 11: 0x025D [0xB6] ENTITY_APPEARANCE_HANDLER(case=Full entity look, race=4*, hair=Work_Zone[3], head=Work_Zone[4], body=Work_Zone[5], hands=Work_Zone[6], legs=279*, feet=200*, main=Work_Zone[7], sub=Work_Zone[8])
 12: 0x0271 [0x01] GOTO 0x02F0
 13: 0x0274 [0x02] IF !(Work_Zone[2] == 5*) GOTO 0x0293
 14: 0x027C [0xB6] ENTITY_APPEARANCE_HANDLER(case=Full entity look, race=5*, hair=Work_Zone[3], head=Work_Zone[4], body=Work_Zone[5], hands=Work_Zone[6], legs=279*, feet=200*, main=Work_Zone[7], sub=Work_Zone[8])
 15: 0x0290 [0x01] GOTO 0x02F0
 16: 0x0293 [0x02] IF !(Work_Zone[2] == 6*) GOTO 0x02B2
 17: 0x029B [0xB6] ENTITY_APPEARANCE_HANDLER(case=Full entity look, race=6*, hair=Work_Zone[3], head=Work_Zone[4], body=Work_Zone[5], hands=Work_Zone[6], legs=279*, feet=200*, main=Work_Zone[7], sub=Work_Zone[8])
 18: 0x02AF [0x01] GOTO 0x02F0
 19: 0x02B2 [0x02] IF !(Work_Zone[2] == 7*) GOTO 0x02D1
 20: 0x02BA [0xB6] ENTITY_APPEARANCE_HANDLER(case=Full entity look, race=7*, hair=Work_Zone[3], head=Work_Zone[4], body=Work_Zone[5], hands=Work_Zone[6], legs=279*, feet=200*, main=Work_Zone[7], sub=Work_Zone[8])
 21: 0x02CE [0x01] GOTO 0x02F0
 22: 0x02D1 [0x02] IF !(Work_Zone[2] == 8*) GOTO 0x02F0
 23: 0x02D9 [0xB6] ENTITY_APPEARANCE_HANDLER(case=Full entity look, race=8*, hair=Work_Zone[3], head=Work_Zone[4], body=Work_Zone[5], hands=Work_Zone[6], legs=279*, feet=200*, main=Work_Zone[7], sub=Work_Zone[8])
 24: 0x02ED [0x01] GOTO 0x02F0

SUBROUTINE_02F0:
 25: 0x02F0 [0x00] END_REQSTACK()
```

#### Data or dead code:

```
# Dead code (unreachable instructions):
     0x02F1 [0x03] ExtData[1]->WorkLocal[1] = ExtData[1]->WorkLocal[0]
     0x02F6 [0x02] IF !(ExtData[1]->WorkLocal[1] > 5*) GOTO 0x0306
     0x02FE [0x08] ExtData[1]->WorkLocal[1] -= 1*
     0x0303 [0x01] GOTO 0x030B
     0x0306 [0x08] ExtData[1]->WorkLocal[1] -= 2*
     0x030B [0x14] ExtData[1]->WorkLocal[1] *= 10*
     0x0310 [0x07] ExtData[1]->WorkLocal[1] += 9*
     0x0315 [0x1B] RETURN
     0x0316 [0x03] ExtData[1]->WorkLocal[1] = ExtData[1]->WorkLocal[0]
     0x031B [0x02] IF !(ExtData[1]->WorkLocal[1] > 5*) GOTO 0x032B
     0x0323 [0x08] ExtData[1]->WorkLocal[1] -= 1*
     0x0328 [0x01] GOTO 0x0330
     0x032B [0x08] ExtData[1]->WorkLocal[1] -= 2*
     0x0330 [0x14] ExtData[1]->WorkLocal[1] *= 10*
     0x0335 [0x07] ExtData[1]->WorkLocal[1] += 70*
     0x033A [0x1B] RETURN
     0x033B [0x03] ExtData[1]->WorkLocal[1] = ExtData[1]->WorkLocal[0]
     0x0340 [0x02] IF !(ExtData[1]->WorkLocal[1] > 5*) GOTO 0x0350
     0x0348 [0x08] ExtData[1]->WorkLocal[1] -= 1*
     0x034D [0x01] GOTO 0x0355
     0x0350 [0x08] ExtData[1]->WorkLocal[1] -= 2*
     0x0355 [0x14] ExtData[1]->WorkLocal[1] *= 10*
     0x035A [0x07] ExtData[1]->WorkLocal[1] += 140*
     0x035F [0x1B] RETURN
     0x0360 [0x03] ExtData[1]->WorkLocal[1] = ExtData[1]->WorkLocal[0]
     0x0365 [0x02] IF !(ExtData[1]->WorkLocal[1] > 5*) GOTO 0x0375
     0x036D [0x08] ExtData[1]->WorkLocal[1] -= 1*
     0x0372 [0x01] GOTO 0x037A
     0x0375 [0x08] ExtData[1]->WorkLocal[1] -= 2*
     0x037A [0x14] ExtData[1]->WorkLocal[1] *= 10*
     0x037F [0x07] ExtData[1]->WorkLocal[1] += 210*
     0x0384 [0x1B] RETURN
```

### Event 65535.11

#### Metadata

| Field        | Value   |
|--------------|---------|
| Entrypoint   | 0x0385  |
| Data Size    | 1 bytes |
| Instructions | 1       |

```
      00 01 02 03 04 05 06 07  08 09 0A 0B 0C 0D 0E 0F
      -- -- -- -- -- -- -- --  -- -- -- -- -- -- -- --
0380:                00                                      .          
```

#### Opcodes

```
  0: 0x0385 [0x00] END_REQSTACK()
```

### Event 65535.12

#### Metadata

| Field        | Value    |
|--------------|----------|
| Entrypoint   | 0x0386   |
| Data Size    | 18 bytes |
| Instructions | 4        |

```
      00 01 02 03 04 05 06 07  08 09 0A 0B 0C 0D 0E 0F
      -- -- -- -- -- -- -- --  -- -- -- -- -- -- -- --
0380:                   22 00  2F 00 F8 FF FF 7F 6C F8        "./.....l.
0390: FF FF 7F 01 80 00 80 00                           ........        
```

#### Opcodes

```
  0: 0x0386 [0x22] ENTITY_HIDE_FLAG(enabled=0x00)
  1: 0x0388 [0x2F] EventEntity->Render.Flags0 &= ~0x80000 // Bit 19
  2: 0x038E [0x6C] FADE_ENTITY_COLOR(entity_id=EventEntity, end_alpha=0*, fade_time=1*)
  3: 0x0397 [0x00] END_REQSTACK()
```

### Event 65535.13

#### Metadata

| Field        | Value    |
|--------------|----------|
| Entrypoint   | 0x0398   |
| Data Size    | 10 bytes |
| Instructions | 2        |

```
      00 01 02 03 04 05 06 07  08 09 0A 0B 0C 0D 0E 0F
      -- -- -- -- -- -- -- --  -- -- -- -- -- -- -- --
0390:                          6C F8 FF FF 7F 10 80 00          l.......
03A0: 80 00                                             ..              
```

#### Opcodes

```
  0: 0x0398 [0x6C] FADE_ENTITY_COLOR(entity_id=EventEntity, end_alpha=128*, fade_time=1*)
  1: 0x03A1 [0x00] END_REQSTACK()
```

### Event 65535.14

#### Metadata

| Field        | Value   |
|--------------|---------|
| Entrypoint   | 0x03A2  |
| Data Size    | 9 bytes |
| Instructions | 3       |

```
      00 01 02 03 04 05 06 07  08 09 0A 0B 0C 0D 0E 0F
      -- -- -- -- -- -- -- --  -- -- -- -- -- -- -- --
03A0:       22 00 2F 00 F8 FF  FF 7F 00                   "./......     
```

#### Opcodes

```
  0: 0x03A2 [0x22] ENTITY_HIDE_FLAG(enabled=0x00)
  1: 0x03A4 [0x2F] EventEntity->Render.Flags0 &= ~0x80000 // Bit 19
  2: 0x03AA [0x00] END_REQSTACK()
```

### Event 65535.15

#### Metadata

| Field        | Value   |
|--------------|---------|
| Entrypoint   | 0x03AB  |
| Data Size    | 9 bytes |
| Instructions | 3       |

```
      00 01 02 03 04 05 06 07  08 09 0A 0B 0C 0D 0E 0F
      -- -- -- -- -- -- -- --  -- -- -- -- -- -- -- --
03A0:                                   22 01 2F 01 F8             "./..
03B0: FF FF 7F 00                                       ....            
```

#### Opcodes

```
  0: 0x03AB [0x22] ENTITY_HIDE_FLAG(enabled=0x01)
  1: 0x03AD [0x2F] EventEntity->Render.Flags0 |= 0x80000 // Bit 19
  2: 0x03B3 [0x00] END_REQSTACK()
```

### Event 65535.16

#### Metadata

| Field        | Value    |
|--------------|----------|
| Entrypoint   | 0x03B4   |
| Data Size    | 10 bytes |
| Instructions | 2        |

```
      00 01 02 03 04 05 06 07  08 09 0A 0B 0C 0D 0E 0F
      -- -- -- -- -- -- -- --  -- -- -- -- -- -- -- --
03B0:             6C F8 FF FF  7F 01 80 00 80 00            l.........  
```

#### Opcodes

```
  0: 0x03B4 [0x6C] FADE_ENTITY_COLOR(entity_id=EventEntity, end_alpha=0*, fade_time=1*)
  1: 0x03BD [0x00] END_REQSTACK()
```

### Event 65535.17

#### Metadata

| Field        | Value    |
|--------------|----------|
| Entrypoint   | 0x03BE   |
| Data Size    | 10 bytes |
| Instructions | 2        |

```
      00 01 02 03 04 05 06 07  08 09 0A 0B 0C 0D 0E 0F
      -- -- -- -- -- -- -- --  -- -- -- -- -- -- -- --
03B0:                                            6C F8                l.
03C0: FF FF 7F 10 80 00 80 00                           ........        
```

#### Opcodes

```
  0: 0x03BE [0x6C] FADE_ENTITY_COLOR(entity_id=EventEntity, end_alpha=128*, fade_time=1*)
  1: 0x03C7 [0x00] END_REQSTACK()
```
