# 17523318

## Common Data

| Field            | Value                    |
|------------------|--------------------------|
| Zone             | Walk of Echoes (ID: 182) |
| Block Size       | 11676 bytes              |
| Total Events     | 10                       |
| References Count | 207                      |

## List of Events

| Event ID              | Entrypoint   |   Size |   Instructions |
|-----------------------|--------------|--------|----------------|
| [65535](#event-65535) | 0x0000       |      1 |              1 |
| [11](#event-11)       | 0x0001       |   1996 |            247 |
| [13](#event-13)       | 0x07CD       |    691 |             95 |
| [15](#event-15)       | 0x0A80       |    536 |             80 |
| [16](#event-16)       | 0x0C98       |   1109 |            140 |
| [17](#event-17)       | 0x10ED       |    308 |             46 |
| [18](#event-18)       | 0x1221       |   2772 |            353 |
| [19](#event-19)       | 0x1CF5       |    285 |             44 |
| [20](#event-20)       | 0x1E12       |    256 |             40 |
| [21](#event-21)       | 0x1F12       |   2837 |            345 |

## DAT References (imed_data)

|   Index | Hex Value   |   Dec Value |
|---------|-------------|-------------|
|       0 | 0x0000      |           0 |
|       1 | 0x0078      |         120 |
|       2 | 0x0013      |          19 |
|       3 | 0xFFF465E1  |  4294206945 |
|       4 | 0xFFF997EA  |  4294547434 |
|       5 | 0x018F      |         399 |
|       6 | 0x000C      |          12 |
|       7 | 0xFFF4767F  |  4294211199 |
|       8 | 0xFFF98AC0  |  4294544064 |
|       9 | 0x0432      |        1074 |
|      10 | 0xFFF41C26  |  4294188070 |
|      11 | 0xFFF973E5  |  4294538213 |
|      12 | 0x300C      |       12300 |
|      13 | 0x051E      |        1310 |
|      14 | 0x0080      |         128 |
|      15 | 0x002A      |          42 |
|      16 | 0x022D      |         557 |
|      17 | 0x1F31      |        7985 |
|      18 | 0x1F32      |        7986 |
|      19 | 0x001E      |          30 |
|      20 | 0x1F33      |        7987 |
|      21 | 0x1F34      |        7988 |
|      22 | 0x0603      |        1539 |
|      23 | 0x1F35      |        7989 |
|      24 | 0x1F36      |        7990 |
|      25 | 0x1F37      |        7991 |
|      26 | 0x0A4C      |        2636 |
|      27 | 0x00CD      |         205 |
|      28 | 0x00F0      |         240 |
|      29 | 0x1F38      |        7992 |
|      30 | 0x000F      |          15 |
|      31 | 0x1F39      |        7993 |
|      32 | 0x0024      |          36 |
|      33 | 0x0001      |           1 |
|      34 | 0x1F3A      |        7994 |
|      35 | 0x1F3B      |        7995 |
|      36 | 0x0A57      |        2647 |
|      37 | 0x15180     |       86400 |
|      38 | 0x003C      |          60 |
|      39 | 0x1F3C      |        7996 |
|      40 | 0x0003      |           3 |
|      41 | 0x1F3D      |        7997 |
|      42 | 0x1F3E      |        7998 |
|      43 | 0x1F3F      |        7999 |
|      44 | 0x1F40      |        8000 |
|      45 | 0x0A52      |        2642 |
|      46 | 0x1F41      |        8001 |
|      47 | 0x1F42      |        8002 |
|      48 | 0x1F43      |        8003 |
|      49 | 0x1F44      |        8004 |
|      50 | 0x1F45      |        8005 |
|      51 | 0x1F2F      |        7983 |
|      52 | 0x1F46      |        8006 |
|      53 | 0x1F47      |        8007 |
|      54 | 0x1F48      |        8008 |
|      55 | 0xFFF43284  |  4294193796 |
|      56 | 0xFFF995DA  |  4294546906 |
|      57 | 0x1AD6      |        6870 |
|      58 | 0x0569      |        1385 |
|      59 | 0xFFF4375F  |  4294195039 |
|      60 | 0xFFF98F75  |  4294545269 |
|      61 | 0x057B      |        1403 |
|      62 | 0x1F49      |        8009 |
|      63 | 0x1F4A      |        8010 |
|      64 | 0x00D7      |         215 |
|      65 | 0x1F4B      |        8011 |
|      66 | 0x012C      |         300 |
|      67 | 0x1F4C      |        8012 |
|      68 | 0x1F4D      |        8013 |
|      69 | 0x00C9      |         201 |
|      70 | 0x00C8      |         200 |
|      71 | 0x007B      |         123 |
|      72 | 0x1E14      |        7700 |
|      73 | 0x1F65      |        8037 |
|      74 | 0x1F66      |        8038 |
|      75 | 0x1F67      |        8039 |
|      76 | 0x1F68      |        8040 |
|      77 | 0x1F69      |        8041 |
|      78 | 0x1F6A      |        8042 |
|      79 | 0x1F6B      |        8043 |
|      80 | 0x1F6C      |        8044 |
|      81 | 0x1F6D      |        8045 |
|      82 | 0x1F6E      |        8046 |
|      83 | 0x1F6F      |        8047 |
|      84 | 0x1F70      |        8048 |
|      85 | 0x1F71      |        8049 |
|      86 | 0x0242      |         578 |
|      87 | 0x00FF      |         255 |
|      88 | 0xFFF55163  |  4294267235 |
|      89 | 0xFFF8C479  |  4294493305 |
|      90 | 0x0BF6      |        3062 |
|      91 | 0x0028      |          40 |
|      92 | 0x028D      |         653 |
|      93 | 0x1F9B      |        8091 |
|      94 | 0x1F9C      |        8092 |
|      95 | 0x1F9D      |        8093 |
|      96 | 0x1F9E      |        8094 |
|      97 | 0x1F9F      |        8095 |
|      98 | 0x1FA0      |        8096 |
|      99 | 0x005A      |          90 |
|     100 | 0xFFF5518C  |  4294267276 |
|     101 | 0xFFFE8B54  |  4294871892 |
|     102 | 0xFFFF9DDC  |  4294942172 |
|     103 | 0x0400      |        1024 |
|     104 | 0xFFF551CD  |  4294267341 |
|     105 | 0xFFFE7C51  |  4294868049 |
|     106 | 0xFFFF9DDB  |  4294942171 |
|     107 | 0x0C01      |        3073 |
|     108 | 0x017A      |         378 |
|     109 | 0x009B      |         155 |
|     110 | 0x014A      |         330 |
|     111 | 0x0168      |         360 |
|     112 | 0x0586      |        1414 |
|     113 | 0x1FA1      |        8097 |
|     114 | 0x1FA2      |        8098 |
|     115 | 0x0029      |          41 |
|     116 | 0x1FA3      |        8099 |
|     117 | 0x0020      |          32 |
|     118 | 0x051F      |        1311 |
|     119 | 0x1FA4      |        8100 |
|     120 | 0x0002      |           2 |
|     121 | 0x0520      |        1312 |
|     122 | 0x1FA5      |        8101 |
|     123 | 0x1FA6      |        8102 |
|     124 | 0x1FA7      |        8103 |
|     125 | 0x1FA8      |        8104 |
|     126 | 0x0015      |          21 |
|     127 | 0x09D9      |        2521 |
|     128 | 0x1FA9      |        8105 |
|     129 | 0x008C      |         140 |
|     130 | 0x1FAA      |        8106 |
|     131 | 0x1FAB      |        8107 |
|     132 | 0x09AA      |        2474 |
|     133 | 0x1FAC      |        8108 |
|     134 | 0x002D      |          45 |
|     135 | 0x1FAD      |        8109 |
|     136 | 0x1FAE      |        8110 |
|     137 | 0x0584      |        1412 |
|     138 | 0x1FAF      |        8111 |
|     139 | 0xFFF55181  |  4294267265 |
|     140 | 0xFFFDBE43  |  4294819395 |
|     141 | 0xFFFFCE1F  |  4294954527 |
|     142 | 0x0C00      |        3072 |
|     143 | 0xFFF551EE  |  4294267374 |
|     144 | 0xFFFDDD66  |  4294827366 |
|     145 | 0x1FB0      |        8112 |
|     146 | 0x09DF      |        2527 |
|     147 | 0x1FB1      |        8113 |
|     148 | 0xFFF55192  |  4294267282 |
|     149 | 0xFFFDD2A6  |  4294824614 |
|     150 | 0x007C      |         124 |
|     151 | 0x1FB2      |        8114 |
|     152 | 0x1FB3      |        8115 |
|     153 | 0x1FB4      |        8116 |
|     154 | 0x000A      |          10 |
|     155 | 0x1FB5      |        8117 |
|     156 | 0x6F26      |       28454 |
|     157 | 0x1FB6      |        8118 |
|     158 | 0x1FB7      |        8119 |
|     159 | 0x1FBA      |        8122 |
|     160 | 0x6F97      |       28567 |
|     161 | 0x6EDE      |       28382 |
|     162 | 0x1FB8      |        8120 |
|     163 | 0x0004      |           4 |
|     164 | 0x1FB9      |        8121 |
|     165 | 0x00C3      |         195 |
|     166 | 0x00B4      |         180 |
|     167 | 0x051D      |        1309 |
|     168 | 0x1FBB      |        8123 |
|     169 | 0x1FBC      |        8124 |
|     170 | 0x1FBD      |        8125 |
|     171 | 0x1FBE      |        8126 |
|     172 | 0x1FBF      |        8127 |
|     173 | 0x0005      |           5 |
|     174 | 0x000B      |          11 |
|     175 | 0x1FC0      |        8128 |
|     176 | 0x1FC1      |        8129 |
|     177 | 0x1FC2      |        8130 |
|     178 | 0xFFF55514  |  4294268180 |
|     179 | 0xFFFAEFC3  |  4294635459 |
|     180 | 0xFFFFBB40  |  4294949696 |
|     181 | 0x03E6      |         998 |
|     182 | 0xFFF551BC  |  4294267324 |
|     183 | 0xFFFAE9E6  |  4294633958 |
|     184 | 0x03EB      |        1003 |
|     185 | 0x0096      |         150 |
|     186 | 0x0014      |          20 |
|     187 | 0x1FC3      |        8131 |
|     188 | 0x1FC4      |        8132 |
|     189 | 0x1FC5      |        8133 |
|     190 | 0x1FC6      |        8134 |
|     191 | 0x1FC7      |        8135 |
|     192 | 0x0582      |        1410 |
|     193 | 0x021C      |         540 |
|     194 | 0x1FC8      |        8136 |
|     195 | 0x001D      |          29 |
|     196 | 0x1FC9      |        8137 |
|     197 | 0x09AB      |        2475 |
|     198 | 0x1FCA      |        8138 |
|     199 | 0x00A0      |         160 |
|     200 | 0x001A      |          26 |
|     201 | 0x1FCB      |        8139 |
|     202 | 0x1FCC      |        8140 |
|     203 | 0x1FCD      |        8141 |
|     204 | 0x1FCE      |        8142 |
|     205 | 0x1FCF      |        8143 |
|     206 | 0x1FD0      |        8144 |

## String References

- **7700**: @@
- **7983**: Warp to [???/Provenance/Walk of Echoes/Pashhow Marshlands]? [Yes./No.]
- **8005**: Art thou prepared? [Verily./Nay.]
- **8099**: What do you ask? ["Be of use"?/"Forgot"?]
- **8117**: What do you desire? [#./$1./$2./Gil./Your services as an avatar./For Lilisette to...]
- **8119**: Do you truly desire $0? [Correct./Wait. Let me think...]
- **8120**: Do you truly desire gil? [Correct./Wait. Let me think...]
- **8121**: Are you truly sure? [Correct./Wait. Let me think...]

## Events

### Event 65535

#### Metadata

| Field        | Value   |
|--------------|---------|
| Entrypoint   | 0x0000  |
| Data Size    | 1 bytes |
| Instructions | 1       |

```
      00 01 02 03 04 05 06 07  08 09 0A 0B 0C 0D 0E 0F
      -- -- -- -- -- -- -- --  -- -- -- -- -- -- -- --
0000: 00                                                .               
```

#### Opcodes

```
  0: 0x0000 [0x00] END_REQSTACK()
```

### Event 11

#### Metadata

| Field        | Value      |
|--------------|------------|
| Entrypoint   | 0x0001     |
| Data Size    | 1996 bytes |
| Instructions | 245        |

```
      00 01 02 03 04 05 06 07  08 09 0A 0B 0C 0D 0E 0F
      -- -- -- -- -- -- -- --  -- -- -- -- -- -- -- --
0000:    42 03 01 00 08 10 5D  00 80 01 80 1A F9 27 46   B.....]......'F
0010: 01 38 02 80 4E 00 75 62  0B 01 27 10 8F 62 0B 01  .8..N.ub..'..b..
0020: 04 92 00 F0 FF FF 7F 92  01 8F 62 0B 01 94 01 F0  ..........b.....
0030: FF FF 7F 94 01 8F 62 0B  01 BA F0 FF FF 7F 03 80  ......b.........
0040: 04 80 05 80 06 80 BA 8F  62 0B 01 07 80 08 80 05  ........b.......
0050: 80 09 80 59 05 75 62 0B  01 01 BA 75 62 0B 01 0A  ...Y.ub....ub...
0060: 80 0B 80 0C 80 0D 80 29  10 8F 62 0B 01 12 29 10  .......)..b...).
0070: 8F 62 0B 01 13 80 F0 FF  FF 7F 80 8F 62 0B 01 4A  .b..........b..J
0080: 8F 62 0B 01 F0 FF FF 7F  4A F0 FF FF 7F 8F 62 0B  .b......J.....b.
0090: 01 CD 0E 80 75 62 0B 01  75 62 0B 01 73 30 30 30  ....ub..ub..s000
00A0: 00 80 5C 00 0F 80 5C 01  0F 80 9A 45 10 80 F0 FF  ..\...\....E....
00B0: FF 7F F0 FF FF 7F 73 31  38 35 00 80 1A D8 27 1C  ......s185....'.
00C0: 01 80 52 10 80 F0 FF FF  7F F0 FF FF 7F 73 31 38  ..R..........s18
00D0: 35 45 10 80 F0 FF FF 7F  F0 FF FF 7F 73 31 38 36  5E..........s186
00E0: 00 80 2B 8F 62 0B 01 11  80 23 52 10 80 F0 FF FF  ..+.b....#R.....
00F0: 7F F0 FF FF 7F 73 31 38  36 45 10 80 F0 FF FF 7F  .....s186E......
0100: F0 FF FF 7F 73 31 38 37  00 80 2B 8F 62 0B 01 12  ....s187..+.b...
0110: 80 23 52 10 80 F0 FF FF  7F F0 FF FF 7F 73 31 38  .#R..........s18
0120: 37 45 10 80 F0 FF FF 7F  F0 FF FF 7F 73 31 38 38  7E..........s188
0130: 00 80 7B 8F 62 0B 01 27  10 8F 62 0B 01 14 1C 13  ..{.b..'..b.....
0140: 80 2B 8F 62 0B 01 14 80  23 2A 10 8F 62 0B 01 52  .+.b....#*..b..R
0150: 10 80 F0 FF FF 7F F0 FF  FF 7F 73 31 38 38 45 10  ..........s188E.
0160: 80 F0 FF FF 7F F0 FF FF  7F 73 31 38 39 00 80 4A  .........s189..J
0170: 8F 62 0B 01 F0 FF FF 7F  1C 13 80 2B 8F 62 0B 01  .b.........+.b..
0180: 15 80 23 52 10 80 F0 FF  FF 7F F0 FF FF 7F 73 31  ..#R..........s1
0190: 38 39 45 10 80 F0 FF FF  7F F0 FF FF 7F 73 31 39  89E..........s19
01A0: 30 00 80 03 02 10 16 80  2B 8F 62 0B 01 17 80 23  0.......+.b....#
01B0: 2B 8F 62 0B 01 18 80 23  52 10 80 F0 FF FF 7F F0  +.b....#R.......
01C0: FF FF 7F 73 31 39 30 45  10 80 F0 FF FF 7F F0 FF  ...s190E........
01D0: FF 7F 73 32 30 31 00 80  2B 8F 62 0B 01 19 80 23  ..s201..+.b....#
01E0: 29 10 8F 62 0B 01 15 52  10 80 F0 FF FF 7F F0 FF  )..b...R........
01F0: FF 7F 73 32 30 31 45 10  80 F0 FF FF 7F F0 FF FF  ..s201E.........
0200: 7F 73 32 30 32 00 80 5B  1A 80 8F 62 0B 01 8F 62  .s202..[...b...b
0210: 0B 01 70 6E 63 30 AD 02  1B 80 8F 62 0B 01 8F 62  ..pnc0.....b...b
0220: 0B 01 1C 1C 80 52 10 80  F0 FF FF 7F F0 FF FF 7F  .....R..........
0230: 73 32 30 32 45 10 80 F0  FF FF 7F F0 FF FF 7F 73  s202E..........s
0240: 32 30 33 00 80 2B 8F 62  0B 01 1D 80 23 52 10 80  203..+.b....#R..
0250: F0 FF FF 7F F0 FF FF 7F  73 32 30 33 45 10 80 F0  ........s203E...
0260: FF FF 7F F0 FF FF 7F 73  31 39 32 00 80 1C 1E 80  .......s192.....
0270: 4A 8F 62 0B 01 F0 FF FF  7F 4A F0 FF FF 7F 8F 62  J.b......J.....b
0280: 0B 01 2B 8F 62 0B 01 1F  80 23 52 10 80 F0 FF FF  ..+.b....#R.....
0290: 7F F0 FF FF 7F 73 31 39  32 45 10 80 F0 FF FF 7F  .....s192E......
02A0: F0 FF FF 7F 73 32 30 34  00 80 6E F0 FF FF 7F 20  ....s204..n.... 
02B0: 80 99 F0 FF FF 7F 03 01  10 21 80 43 00 43 01 1C  .........!.C.C..
02C0: 01 80 52 10 80 F0 FF FF  7F F0 FF FF 7F 73 32 30  ..R..........s20
02D0: 34 45 10 80 F0 FF FF 7F  F0 FF FF 7F 73 32 30 35  4E..........s205
02E0: 00 80 03 02 10 16 80 2B  8F 62 0B 01 22 80 23 2B  .......+.b..".#+
02F0: 8F 62 0B 01 23 80 23 52  10 80 F0 FF FF 7F F0 FF  .b..#.#R........
0300: FF 7F 73 32 30 35 45 10  80 F0 FF FF 7F F0 FF FF  ..s205E.........
0310: 7F 73 32 30 36 00 80 5B  24 80 8F 62 0B 01 8F 62  .s206..[$..b...b
0320: 0B 01 74 68 62 30 03 02  10 25 80 15 02 10 26 80  ..thb0...%....&.
0330: 2B 8F 62 0B 01 27 80 23  5B 24 80 8F 62 0B 01 8F  +.b..'.#[$..b...
0340: 62 0B 01 74 68 62 31 03  02 10 28 80 2B 8F 62 0B  b..thb1...(.+.b.
0350: 01 29 80 23 52 10 80 F0  FF FF 7F F0 FF FF 7F 73  .).#R..........s
0360: 32 30 36 45 10 80 F0 FF  FF 7F F0 FF FF 7F 73 32  206E..........s2
0370: 30 37 00 80 2B 8F 62 0B  01 2A 80 23 52 10 80 F0  07..+.b..*.#R...
0380: FF FF 7F F0 FF FF 7F 73  32 30 37 45 10 80 F0 FF  .......s207E....
0390: FF 7F F0 FF FF 7F 73 32  30 38 00 80 2B 8F 62 0B  ......s208..+.b.
03A0: 01 2B 80 23 2B 8F 62 0B  01 2C 80 23 5B 2D 80 8F  .+.#+.b..,.#[-..
03B0: 62 0B 01 8F 62 0B 01 79  65 73 31 2B 8F 62 0B 01  b...b..yes1+.b..
03C0: 2E 80 23 53 8F 62 0B 01  8F 62 0B 01 79 65 73 31  ..#S.b...b..yes1
03D0: 52 10 80 F0 FF FF 7F F0  FF FF 7F 73 32 30 38 45  R..........s208E
03E0: 10 80 F0 FF FF 7F F0 FF  FF 7F 73 32 30 39 00 80  ..........s209..
03F0: 7B 8F 62 0B 01 27 10 8F  62 0B 01 14 1C 13 80 2B  {.b..'..b......+
0400: 8F 62 0B 01 2F 80 23 2A  10 8F 62 0B 01 1C 13 80  .b../.#*..b.....
0410: 52 10 80 F0 FF FF 7F F0  FF FF 7F 73 32 30 39 45  R..........s209E
0420: 10 80 F0 FF FF 7F F0 FF  FF 7F 73 32 31 30 00 80  ..........s210..
0430: 4A 8F 62 0B 01 F0 FF FF  7F 1C 13 80 2B 8F 62 0B  J.b.........+.b.
0440: 01 30 80 23 52 10 80 F0  FF FF 7F F0 FF FF 7F 73  .0.#R..........s
0450: 32 31 30 45 10 80 F0 FF  FF 7F F0 FF FF 7F 73 32  210E..........s2
0460: 31 31 00 80 2B 8F 62 0B  01 31 80 23 24 32 80 00  11..+.b..1.#$2..
0470: 80 00 80 25 02 00 10 00  80 00 D8 04 52 10 80 F0  ...%........R...
0480: FF FF 7F F0 FF FF 7F 73  32 31 31 45 10 80 F0 FF  .......s211E....
0490: FF 7F F0 FF FF 7F 73 32  31 33 00 80 06 02 10 24  ......s213.....$
04A0: 33 80 21 80 00 80 25 02  00 10 21 80 00 D5 04 52  3.!...%...!....R
04B0: 10 80 F0 FF FF 7F F0 FF  FF 7F 73 32 31 33 45 10  ..........s213E.
04C0: 80 F0 FF FF 7F F0 FF FF  7F 73 32 31 31 00 80 01  .........s211...
04D0: 6C 04 01 D5 04 01 21 05  02 00 10 21 80 00 21 05  l.....!....!..!.
04E0: 52 10 80 F0 FF FF 7F F0  FF FF 7F 73 32 31 31 45  R..........s211E
04F0: 10 80 F0 FF FF 7F F0 FF  FF 7F 73 32 31 32 00 80  ..........s212..
0500: 2B 8F 62 0B 01 34 80 23  2B 8F 62 0B 01 35 80 23  +.b..4.#+.b..5.#
0510: 05 01 00 06 01 10 5D 00  80 01 80 01 64 07 01 21  ......].....d..!
0520: 05 52 10 80 F0 FF FF 7F  F0 FF FF 7F 73 32 31 33  .R..........s213
0530: 45 10 80 F0 FF FF 7F F0  FF FF 7F 73 32 31 34 00  E..........s214.
0540: 80 2B 8F 62 0B 01 36 80  23 1A F9 27 1C 13 80 5D  .+.b..6.#..'...]
0550: 00 80 01 80 52 10 80 F0  FF FF 7F F0 FF FF 7F 73  ....R..........s
0560: 32 31 34 59 05 F0 FF FF  7F 01 BA F0 FF FF 7F 37  214Y...........7
0570: 80 38 80 39 80 3A 80 59  05 8F 62 0B 01 01 BA 8F  .8.9.:.Y..b.....
0580: 62 0B 01 3B 80 3C 80 39  80 3D 80 80 F0 FF FF 7F  b..;.<.9.=......
0590: 80 8F 62 0B 01 4A F0 FF  FF 7F 75 62 0B 01 4A 8F  ..b..J....ub..J.
05A0: 62 0B 01 75 62 0B 01 1C  13 80 29 10 F0 FF FF 7F  b..ub.....).....
05B0: 33 45 10 80 F0 FF FF 7F  F0 FF FF 7F 73 32 31 35  3E..........s215
05C0: 00 80 1A D8 27 1C 26 80  2B 8F 62 0B 01 3E 80 23  ....'.&.+.b..>.#
05D0: 52 10 80 F0 FF FF 7F F0  FF FF 7F 73 32 31 35 45  R..........s215E
05E0: 10 80 F0 FF FF 7F F0 FF  FF 7F 73 32 31 36 00 80  ..........s216..
05F0: 4A 8F 62 0B 01 75 62 0B  01 1C 26 80 2B 8F 62 0B  J.b..ub...&.+.b.
0600: 01 3F 80 23 5C 00 40 80  5C 01 40 80 9A 52 10 80  .?.#\.@.\.@..R..
0610: F0 FF FF 7F F0 FF FF 7F  73 32 31 36 45 10 80 F0  ........s216E...
0620: FF FF 7F F0 FF FF 7F 73  32 31 37 00 80 CD 0E 80  .......s217.....
0630: 75 62 0B 01 75 62 0B 01  73 30 31 30 00 80 1C 1C  ub..ub..s010....
0640: 80 52 10 80 F0 FF FF 7F  F0 FF FF 7F 73 32 31 37  .R..........s217
0650: 45 10 80 F0 FF FF 7F F0  FF FF 7F 73 32 31 38 00  E..........s218.
0660: 80 2B 8F 62 0B 01 41 80  23 52 10 80 F0 FF FF 7F  .+.b..A.#R......
0670: F0 FF FF 7F 73 32 31 38  45 10 80 F0 FF FF 7F F0  ....s218E.......
0680: FF FF 7F 73 32 32 32 00  80 CD 0E 80 75 62 0B 01  ...s222.....ub..
0690: 75 62 0B 01 73 30 32 30  00 80 1C 42 80 52 10 80  ub..s020...B.R..
06A0: F0 FF FF 7F F0 FF FF 7F  73 32 32 32 45 10 80 F0  ........s222E...
06B0: FF FF 7F F0 FF FF 7F 73  32 31 39 00 80 4A 8F 62  .......s219..J.b
06C0: 0B 01 F0 FF FF 7F 1C 13  80 79 00 F0 FF FF 7F 8F  .........y......
06D0: 62 0B 01 2B 8F 62 0B 01  43 80 23 2B 8F 62 0B 01  b..+.b..C.#+.b..
06E0: 44 80 23 52 10 80 F0 FF  FF 7F F0 FF FF 7F 73 32  D.#R..........s2
06F0: 31 39 45 10 80 F0 FF FF  7F F0 FF FF 7F 73 32 32  19E..........s22
0700: 30 00 80 CD 0E 80 75 62  0B 01 75 62 0B 01 73 30  0.....ub..ub..s0
0710: 33 30 00 80 1C 01 80 52  10 80 F0 FF FF 7F F0 FF  30.....R........
0720: FF 7F 73 32 32 30 45 10  80 F0 FF FF 7F F0 FF FF  ..s220E.........
0730: 7F 73 32 32 31 00 80 1C  26 80 03 01 10 21 80 5D  .s221...&....!.]
0740: 00 80 01 80 45 45 80 F0  FF FF 7F F0 FF FF 7F 77  ....EE.........w
0750: 68 6F 30 00 80 55 45 80  F0 FF FF 7F F0 FF FF 7F  ho0..UE.........
0760: 77 68 6F 30 1A F9 27 1C  26 80 52 10 80 F0 FF FF  who0..'.&.R.....
0770: 7F F0 FF FF 7F 73 32 31  32 52 10 80 F0 FF FF 7F  .....s212R......
0780: F0 FF FF 7F 73 32 32 31  45 45 80 F0 FF FF 7F F0  ....s221EE......
0790: FF FF 7F 77 68 69 30 00  80 5C 00 00 80 5C 01 00  ...whi0..\...\..
07A0: 80 1C 1E 80 AB 11 00 80  1C 21 80 02 01 00 00 80  .........!......
07B0: 00 B6 07 30 21 00 AB 0A  46 00 45 46 80 F0 FF FF  ...0!...F.EF....
07C0: 7F F0 FF FF 7F 66 64 69  32 00 80 21 00           .....fdi2..!.   
```

#### Opcodes

```
  0: 0x0001 [0x42] SET_CLI_EVENT_CANCEL_DATA()
  1: 0x0002 [0x03] ExtData[1]->WorkLocal[1] = Work_Zone[8]
  2: 0x0007 [0x5D] SET_MUSIC_VOLUME(volume=0*, fade_time=120*)
  3: 0x000C [0x1A] CALL_SUBROUTINE(address=0x27F9)
  4: 0x000F [0x46] CAMERA_CONTROL: Disable user control
  5: 0x0011 [0x38] SET_CLIENT_EVENT_MODE(mode=19*)
  6: 0x0014 [0x4E] SET_ENTITY_HIDE_FLAG: Show Unnamed NPC (ID: 17523317/0x010B6275)
  7: 0x001A [0x27] REQ_SET(priority=0x10, entity_id=Unnamed NPC (ID: 17523343/0x010B628F), tag_num=0x04)
  8: 0x0021 [0x92] LocalPlayer->Render.Flags3 = Flags3  // No change (flag=0)
  9: 0x0027 [0x92] Unnamed NPC (ID: 17523343/0x010B628F)->Render.Flags3 ^= 0x01
 10: 0x002D [0x94] LocalPlayer->Render.Flags3 ^= 0x01
 11: 0x0033 [0x94] Unnamed NPC (ID: 17523343/0x010B628F)->Render.Flags3 ^= 0x01
 12: 0x0039 [0xBA] SET_ENTITY_POSITION(entity_id=LocalPlayer, pos_x=-760.351*, pos_z=-419.862*, pos_y=0.399*, direction=1.1°*)
 13: 0x0046 [0xBA] SET_ENTITY_POSITION(entity_id=Unnamed NPC (ID: 17523343/0x010B628F), pos_x=-756.097*, pos_z=-423.232*, pos_y=0.399*, direction=94.4°*)
 14: 0x0053 [0x59] UPDATE_ENTITY_DATA: Unnamed NPC (ID: 17523317/0x010B6275)->Render.Flags0 |= 0x200000
 15: 0x005A [0xBA] SET_ENTITY_POSITION(entity_id=Unnamed NPC (ID: 17523317/0x010B6275), pos_x=-779.226*, pos_z=-429.083*, pos_y=12.300*, direction=115.1°*)
 16: 0x0067 [0x29] REQ_SET_WAIT(priority=0x10, entity_id=Unnamed NPC (ID: 17523343/0x010B628F), tag_num=0x12)
 17: 0x006E [0x29] REQ_SET_WAIT(priority=0x10, entity_id=Unnamed NPC (ID: 17523343/0x010B628F), tag_num=0x13)
 18: 0x0075 [0x80] LOAD_WAIT(entity=LocalPlayer)
 19: 0x007A [0x80] LOAD_WAIT(entity=Unnamed NPC (ID: 17523343/0x010B628F))
 20: 0x007F [0x4A] Unnamed NPC (ID: 17523343/0x010B628F) looks at LocalPlayer
 21: 0x0088 [0x4A] LocalPlayer looks at Unnamed NPC (ID: 17523343/0x010B628F)
 22: 0x0091 [0xCD] LOAD_SCHEDULED_TASK_ALT4: Load scheduler "s000" with entities [Unnamed NPC (ID: 17523317/0x010B6275), Unnamed NPC (ID: 17523317/0x010B6275)], work=[128*, 0*]
 23: 0x00A2 [0x5C] MUSIC_CONTROL: Set Idle (Day) music to song 42*
 24: 0x00A6 [0x5C] MUSIC_CONTROL: Set Idle (Night) music to song 42*
 25: 0x00AA [0x9A] WAIT_MUSIC_SERVER()
 26: 0x00AB [0x45] LOAD_SCHEDULED_TASK: Load scheduler "s185" with entities [LocalPlayer, LocalPlayer], work=[557*, 0*]
 27: 0x00BC [0x1A] CALL_SUBROUTINE(address=0x27D8)
 28: 0x00BF [0x1C] WAIT(120* ticks)
 29: 0x00C2 [0x52] END_LOAD_SCHEDULER: End scheduler "s185" with entities [LocalPlayer, LocalPlayer], work=557*
 30: 0x00D1 [0x45] LOAD_SCHEDULED_TASK: Load scheduler "s186" with entities [LocalPlayer, LocalPlayer], work=[557*, 0*]
 31: 0x00E2 [0x2B] Unnamed NPC (ID: 17523343/0x010B628F) [7985*]:
    → "Thy presence here suggests that disturbances plague the outside world, kupo."
 32: 0x00E9 [0x23] WAIT_FOR_DIALOG_INTERACTION
 33: 0x00EA [0x52] END_LOAD_SCHEDULER: End scheduler "s186" with entities [LocalPlayer, LocalPlayer], work=557*
 34: 0x00F9 [0x45] LOAD_SCHEDULED_TASK: Load scheduler "s187" with entities [LocalPlayer, LocalPlayer], work=[557*, 0*]
 35: 0x010A [0x2B] Unnamed NPC (ID: 17523343/0x010B628F) [7986*]:
    → "Though it grieveth me to hear such ill tidings, I must admit this predicament hath aided my research, kupo."
 36: 0x0111 [0x23] WAIT_FOR_DIALOG_INTERACTION
 37: 0x0112 [0x52] END_LOAD_SCHEDULER: End scheduler "s187" with entities [LocalPlayer, LocalPlayer], work=557*
 38: 0x0121 [0x45] LOAD_SCHEDULED_TASK: Load scheduler "s188" with entities [LocalPlayer, LocalPlayer], work=[557*, 0*]
 39: 0x0132 [0x7B] Unnamed NPC (ID: 17523343/0x010B628F) stops talking
 40: 0x0137 [0x27] REQ_SET(priority=0x10, entity_id=Unnamed NPC (ID: 17523343/0x010B628F), tag_num=0x14)
 41: 0x013E [0x1C] WAIT(30* ticks)
 42: 0x0141 [0x2B] Unnamed NPC (ID: 17523343/0x010B628F) [7987*]:
    → "At long last, mine efforts have borne fruit, kupo! I was able to contact Cait Sith, though I dare not pretend the fruits of my labor are either succulent or sweet."
 43: 0x0148 [0x23] WAIT_FOR_DIALOG_INTERACTION
 44: 0x0149 [0x2A] GET_REQ_LEVEL(level=16, entity_id=Unnamed NPC (ID: 17523343/0x010B628F))
 45: 0x014F [0x52] END_LOAD_SCHEDULER: End scheduler "s188" with entities [LocalPlayer, LocalPlayer], work=557*
 46: 0x015E [0x45] LOAD_SCHEDULED_TASK: Load scheduler "s189" with entities [LocalPlayer, LocalPlayer], work=[557*, 0*]
 47: 0x016F [0x4A] Unnamed NPC (ID: 17523343/0x010B628F) looks at LocalPlayer
 48: 0x0178 [0x1C] WAIT(30* ticks)
 49: 0x017B [0x2B] Unnamed NPC (ID: 17523343/0x010B628F) [7988*]:
    → "A prolix puffball I may be, but even I know when to stay my tongue. If thou dost in sooth covet an explanation, avaunt to yon distortion with thee, kupo."
 50: 0x0182 [0x23] WAIT_FOR_DIALOG_INTERACTION
 51: 0x0183 [0x52] END_LOAD_SCHEDULER: End scheduler "s189" with entities [LocalPlayer, LocalPlayer], work=557*
 52: 0x0192 [0x45] LOAD_SCHEDULED_TASK: Load scheduler "s190" with entities [LocalPlayer, LocalPlayer], work=[557*, 0*]
 53: 0x01A3 [0x03] Work_Zone[2] = 1539*
 54: 0x01A8 [0x2B] Unnamed NPC (ID: 17523343/0x010B628F) [7989*]:
    → "Before that, however, I must inquire as to whether thou art in possession of any $5."
 55: 0x01AF [0x23] WAIT_FOR_DIALOG_INTERACTION
 56: 0x01B0 [0x2B] Unnamed NPC (ID: 17523343/0x010B628F) [7990*]:
    → "Pardon my forthrightness, but I shall be needing one, kupo."
 57: 0x01B7 [0x23] WAIT_FOR_DIALOG_INTERACTION
 58: 0x01B8 [0x52] END_LOAD_SCHEDULER: End scheduler "s190" with entities [LocalPlayer, LocalPlayer], work=557*
 59: 0x01C7 [0x45] LOAD_SCHEDULED_TASK: Load scheduler "s201" with entities [LocalPlayer, LocalPlayer], work=[557*, 0*]
 60: 0x01D8 [0x2B] Unnamed NPC (ID: 17523343/0x010B628F) [7991*]:
    → "To be more precise, thou wilt need what I shall fashion from this $3. Show but momentary patience and its puissance shall be revealed to thee, kupo!"
 61: 0x01DF [0x23] WAIT_FOR_DIALOG_INTERACTION
 62: 0x01E0 [0x29] REQ_SET_WAIT(priority=0x10, entity_id=Unnamed NPC (ID: 17523343/0x010B628F), tag_num=0x15)
 63: 0x01E7 [0x52] END_LOAD_SCHEDULER: End scheduler "s201" with entities [LocalPlayer, LocalPlayer], work=557*
 64: 0x01F6 [0x45] LOAD_SCHEDULED_TASK: Load scheduler "s202" with entities [LocalPlayer, LocalPlayer], work=[557*, 0*]
 65: 0x0207 [0x5B] LOAD_EXT_SCHEDULER: Load scheduler "pnc0" with entities [Unnamed NPC (ID: 17523343/0x010B628F), Unnamed NPC (ID: 17523343/0x010B628F)], work=2636*
 66: 0x0216 [0xAD] DUAL_ENTITY_SCHEDULER_HANDLER: Execute sub-case 2 with entities [Unnamed NPC (ID: 17523343/0x010B628F), Unnamed NPC (ID: 17523343/0x010B628F)], work=205*
 67: 0x0222 [0x1C] WAIT(240* ticks)
 68: 0x0225 [0x52] END_LOAD_SCHEDULER: End scheduler "s202" with entities [LocalPlayer, LocalPlayer], work=557*
 69: 0x0234 [0x45] LOAD_SCHEDULED_TASK: Load scheduler "s203" with entities [LocalPlayer, LocalPlayer], work=[557*, 0*]
 70: 0x0245 [0x2B] Unnamed NPC (ID: 17523343/0x010B628F) [7992*]:
    → "Ah, it is done, kupo! It misseth somewhat of mine old subtleties; my paws are not as they once were. Yet, it shall serve."
 71: 0x024C [0x23] WAIT_FOR_DIALOG_INTERACTION
 72: 0x024D [0x52] END_LOAD_SCHEDULER: End scheduler "s203" with entities [LocalPlayer, LocalPlayer], work=557*
 73: 0x025C [0x45] LOAD_SCHEDULED_TASK: Load scheduler "s192" with entities [LocalPlayer, LocalPlayer], work=[557*, 0*]
 74: 0x026D [0x1C] WAIT(15* ticks)
 75: 0x0270 [0x4A] Unnamed NPC (ID: 17523343/0x010B628F) looks at LocalPlayer
 76: 0x0279 [0x4A] LocalPlayer looks at Unnamed NPC (ID: 17523343/0x010B628F)
 77: 0x0282 [0x2B] Unnamed NPC (ID: 17523343/0x010B628F) [7993*]:
    → "With this in hand, not e'en the winds of temporal maelstrom shall impede your progress in passing betwixt planes of existence. However, my guarantee expires after thou reachest t'other side, kupopopo."
 78: 0x0289 [0x23] WAIT_FOR_DIALOG_INTERACTION
 79: 0x028A [0x52] END_LOAD_SCHEDULER: End scheduler "s192" with entities [LocalPlayer, LocalPlayer], work=557*
 80: 0x0299 [0x45] LOAD_SCHEDULED_TASK: Load scheduler "s204" with entities [LocalPlayer, LocalPlayer], work=[557*, 0*]
 81: 0x02AA [0x6E] LocalPlayer uses emote 36*
 82: 0x02B1 [0x99] Wait for LocalPlayer animation to complete
 83: 0x02B6 [0x03] Work_Zone[1] = 1*
 84: 0x02BB [0x43] SEND_EVENT_UPDATE: Send pending tag to server (packet 0x005B)
 85: 0x02BD [0x43] SEND_EVENT_UPDATE: Check pending flag (skip if not pending)
 86: 0x02BF [0x1C] WAIT(120* ticks)
 87: 0x02C2 [0x52] END_LOAD_SCHEDULER: End scheduler "s204" with entities [LocalPlayer, LocalPlayer], work=557*
 88: 0x02D1 [0x45] LOAD_SCHEDULED_TASK: Load scheduler "s205" with entities [LocalPlayer, LocalPlayer], work=[557*, 0*]
 89: 0x02E2 [0x03] Work_Zone[2] = 1539*
 90: 0x02E7 [0x2B] Unnamed NPC (ID: 17523343/0x010B628F) [7994*]:
    → "Shouldst thou eft desire my services, speak but a word and I shall craft another $3 befitting an adventurer of thy proven valour."
 91: 0x02EE [0x23] WAIT_FOR_DIALOG_INTERACTION
 92: 0x02EF [0x2B] Unnamed NPC (ID: 17523343/0x010B628F) [7995*]:
    → "Yet when hast thou known me to bequeath anything unto thee swoopstake? Thou mayest hold a contrary opinion, but I believe an appropriate amount of time must be given to create a masterpiece."
 93: 0x02F6 [0x23] WAIT_FOR_DIALOG_INTERACTION
 94: 0x02F7 [0x52] END_LOAD_SCHEDULER: End scheduler "s205" with entities [LocalPlayer, LocalPlayer], work=557*
 95: 0x0306 [0x45] LOAD_SCHEDULED_TASK: Load scheduler "s206" with entities [LocalPlayer, LocalPlayer], work=[557*, 0*]
 96: 0x0317 [0x5B] LOAD_EXT_SCHEDULER: Load scheduler "thb0" with entities [Unnamed NPC (ID: 17523343/0x010B628F), Unnamed NPC (ID: 17523343/0x010B628F)], work=2647*
 97: 0x0326 [0x03] Work_Zone[2] = 86400*
 98: 0x032B [0x15] Work_Zone[2] /= 60*
 99: 0x0330 [0x2B] Unnamed NPC (ID: 17523343/0x010B628F) [7996*]:
    → "Indeed... If my calculations prove correct, preparations for the next batch should conclude in $0 [minute/minutes] (Earth time)."
100: 0x0337 [0x23] WAIT_FOR_DIALOG_INTERACTION
101: 0x0338 [0x5B] LOAD_EXT_SCHEDULER: Load scheduler "thb1" with entities [Unnamed NPC (ID: 17523343/0x010B628F), Unnamed NPC (ID: 17523343/0x010B628F)], work=2647*
102: 0x0347 [0x03] Work_Zone[2] = 3*
103: 0x034C [0x2B] Unnamed NPC (ID: 17523343/0x010B628F) [7997*]:
    → "It would hardly do for thy mortal frame to be encumbered overmuch by a surplus of stones, kupo. Therefore, I shall supply thee with no more than $0 at a given time."
104: 0x0353 [0x23] WAIT_FOR_DIALOG_INTERACTION
105: 0x0354 [0x52] END_LOAD_SCHEDULER: End scheduler "s206" with entities [LocalPlayer, LocalPlayer], work=557*
106: 0x0363 [0x45] LOAD_SCHEDULED_TASK: Load scheduler "s207" with entities [LocalPlayer, LocalPlayer], work=[557*, 0*]
107: 0x0374 [0x2B] Unnamed NPC (ID: 17523343/0x010B628F) [7998*]:
    → "Shouldst thou find thyself overborne by my concoctions, I could take custody of them, should such be thy wish. Wot ye well, though: wings I may have, but wings do not a brainless beast of burden make, kupo."
108: 0x037B [0x23] WAIT_FOR_DIALOG_INTERACTION
109: 0x037C [0x52] END_LOAD_SCHEDULER: End scheduler "s207" with entities [LocalPlayer, LocalPlayer], work=557*
110: 0x038B [0x45] LOAD_SCHEDULED_TASK: Load scheduler "s208" with entities [LocalPlayer, LocalPlayer], work=[557*, 0*]
111: 0x039C [0x2B] Unnamed NPC (ID: 17523343/0x010B628F) [7999*]:
    → "Fie for shame on my porous memory, kupo! I quite forgot."
112: 0x03A3 [0x23] WAIT_FOR_DIALOG_INTERACTION
113: 0x03A4 [0x2B] Unnamed NPC (ID: 17523343/0x010B628F) [8000*]:
    → "Methinks I entrusted thee with investigating of the Walk of Echoes, kupo."
114: 0x03AB [0x23] WAIT_FOR_DIALOG_INTERACTION
115: 0x03AC [0x5B] LOAD_EXT_SCHEDULER: Load scheduler "yes1" with entities [Unnamed NPC (ID: 17523343/0x010B628F), Unnamed NPC (ID: 17523343/0x010B628F)], work=2642*
116: 0x03BB [0x2B] Unnamed NPC (ID: 17523343/0x010B628F) [8001*]:
    → "If the urge to adventure within these confines should ever strike, prithee inform me of thy desire first."
117: 0x03C2 [0x23] WAIT_FOR_DIALOG_INTERACTION
118: 0x03C3 [0x53] WAIT_SCHEDULER_TASK: Wait for scheduler "yes1" with entities [Unnamed NPC (ID: 17523343/0x010B628F), Unnamed NPC (ID: 17523343/0x010B628F)]
119: 0x03D0 [0x52] END_LOAD_SCHEDULER: End scheduler "s208" with entities [LocalPlayer, LocalPlayer], work=557*
120: 0x03DF [0x45] LOAD_SCHEDULED_TASK: Load scheduler "s209" with entities [LocalPlayer, LocalPlayer], work=[557*, 0*]
121: 0x03F0 [0x7B] Unnamed NPC (ID: 17523343/0x010B628F) stops talking
122: 0x03F5 [0x27] REQ_SET(priority=0x10, entity_id=Unnamed NPC (ID: 17523343/0x010B628F), tag_num=0x14)
123: 0x03FC [0x1C] WAIT(30* ticks)
124: 0x03FF [0x2B] Unnamed NPC (ID: 17523343/0x010B628F) [8002*]:
    → "Very well now. Let us now speak of transport, kupo."
125: 0x0406 [0x23] WAIT_FOR_DIALOG_INTERACTION
126: 0x0407 [0x2A] GET_REQ_LEVEL(level=16, entity_id=Unnamed NPC (ID: 17523343/0x010B628F))
127: 0x040D [0x1C] WAIT(30* ticks)
128: 0x0410 [0x52] END_LOAD_SCHEDULER: End scheduler "s209" with entities [LocalPlayer, LocalPlayer], work=557*
129: 0x041F [0x45] LOAD_SCHEDULED_TASK: Load scheduler "s210" with entities [LocalPlayer, LocalPlayer], work=[557*, 0*]
130: 0x0430 [0x4A] Unnamed NPC (ID: 17523343/0x010B628F) looks at LocalPlayer
131: 0x0439 [0x1C] WAIT(30* ticks)
132: 0x043C [0x2B] Unnamed NPC (ID: 17523343/0x010B628F) [8003*]:
    → "Fear not the journey, for if my stone faileth to protect thee, Cait Sith hath given her word that thy passage shall be safe, kupo."
133: 0x0443 [0x23] WAIT_FOR_DIALOG_INTERACTION
134: 0x0444 [0x52] END_LOAD_SCHEDULER: End scheduler "s210" with entities [LocalPlayer, LocalPlayer], work=557*
135: 0x0453 [0x45] LOAD_SCHEDULED_TASK: Load scheduler "s211" with entities [LocalPlayer, LocalPlayer], work=[557*, 0*]
136: 0x0464 [0x2B] Unnamed NPC (ID: 17523343/0x010B628F) [8004*]:
    → "Hast thou sufficiently steeled thyself for the journey yonder?"
137: 0x046B [0x23] WAIT_FOR_DIALOG_INTERACTION
138: 0x046C [0x24] CREATE_DIALOG(message_id=8005*, default_option=0*, option_flags=0*)
    → "Art thou prepared? [Verily./Nay.]"
139: 0x0473 [0x25] WAIT_DIALOG_SELECT()
140: 0x0474 [0x02] IF !(Work_Zone[0] == 0*) GOTO 0x04D8
141: 0x047C [0x52] END_LOAD_SCHEDULER: End scheduler "s211" with entities [LocalPlayer, LocalPlayer], work=557*
142: 0x048B [0x45] LOAD_SCHEDULED_TASK: Load scheduler "s213" with entities [LocalPlayer, LocalPlayer], work=[557*, 0*]
143: 0x049C [0x06] Work_Zone[2] = 0
144: 0x049F [0x24] CREATE_DIALOG(message_id=7983*, default_option=1*, option_flags=0*)
    → "Warp to [???/Provenance/Walk of Echoes/Pashhow Marshlands]? [Yes./No.]"
145: 0x04A6 [0x25] WAIT_DIALOG_SELECT()
146: 0x04A7 [0x02] IF !(Work_Zone[0] == 1*) GOTO 0x04D5
147: 0x04AF [0x52] END_LOAD_SCHEDULER: End scheduler "s213" with entities [LocalPlayer, LocalPlayer], work=557*
148: 0x04BE [0x45] LOAD_SCHEDULED_TASK: Load scheduler "s211" with entities [LocalPlayer, LocalPlayer], work=[557*, 0*]
149: 0x04CF [0x01] GOTO 0x046C

SUBROUTINE_04D5:
150: 0x04D5 [0x01] GOTO 0x0521
151: 0x04D8 [0x02] IF !(Work_Zone[0] == 1*) GOTO 0x0521
152: 0x04E0 [0x52] END_LOAD_SCHEDULER: End scheduler "s211" with entities [LocalPlayer, LocalPlayer], work=557*
153: 0x04EF [0x45] LOAD_SCHEDULED_TASK: Load scheduler "s212" with entities [LocalPlayer, LocalPlayer], work=[557*, 0*]
154: 0x0500 [0x2B] Unnamed NPC (ID: 17523343/0x010B628F) [8006*]:
    → "Understood. Simply say the word whenas thy preparations are complete, kupo."
155: 0x0507 [0x23] WAIT_FOR_DIALOG_INTERACTION
156: 0x0508 [0x2B] Unnamed NPC (ID: 17523343/0x010B628F) [8007*]:
    → "In the meantime, I shall busy myself with tasks too menial to mention, kupo."
157: 0x050F [0x23] WAIT_FOR_DIALOG_INTERACTION
158: 0x0510 [0x05] ExtData[1]->WorkLocal[1] = 1
159: 0x0513 [0x06] Work_Zone[1] = 0
160: 0x0516 [0x5D] SET_MUSIC_VOLUME(volume=0*, fade_time=120*)
161: 0x051B [0x01] GOTO 0x0764

SUBROUTINE_0521:
162: 0x0521 [0x52] END_LOAD_SCHEDULER: End scheduler "s213" with entities [LocalPlayer, LocalPlayer], work=557*
163: 0x0530 [0x45] LOAD_SCHEDULED_TASK: Load scheduler "s214" with entities [LocalPlayer, LocalPlayer], work=[557*, 0*]
164: 0x0541 [0x2B] Unnamed NPC (ID: 17523343/0x010B628F) [8008*]:
    → "First, a word of caution. Do not overexert thyself, for fatigue begets weakness and wanion. May Altana's blessing light thy way, kupo."
165: 0x0548 [0x23] WAIT_FOR_DIALOG_INTERACTION
166: 0x0549 [0x1A] CALL_SUBROUTINE(address=0x27F9)
167: 0x054C [0x1C] WAIT(30* ticks)
168: 0x054F [0x5D] SET_MUSIC_VOLUME(volume=0*, fade_time=120*)
169: 0x0554 [0x52] END_LOAD_SCHEDULER: End scheduler "s214" with entities [LocalPlayer, LocalPlayer], work=557*
170: 0x0563 [0x59] UPDATE_ENTITY_DATA: LocalPlayer->Render.Flags0 |= 0x200000
171: 0x056A [0xBA] SET_ENTITY_POSITION(entity_id=LocalPlayer, pos_x=-773.500*, pos_z=-420.390*, pos_y=6.870*, direction=121.7°*)
172: 0x0577 [0x59] UPDATE_ENTITY_DATA: Unnamed NPC (ID: 17523343/0x010B628F)->Render.Flags0 |= 0x200000
173: 0x057E [0xBA] SET_ENTITY_POSITION(entity_id=Unnamed NPC (ID: 17523343/0x010B628F), pos_x=-772.257*, pos_z=-422.027*, pos_y=6.870*, direction=123.3°*)
174: 0x058B [0x80] LOAD_WAIT(entity=LocalPlayer)
175: 0x0590 [0x80] LOAD_WAIT(entity=Unnamed NPC (ID: 17523343/0x010B628F))
176: 0x0595 [0x4A] LocalPlayer looks at Unnamed NPC (ID: 17523317/0x010B6275)
177: 0x059E [0x4A] Unnamed NPC (ID: 17523343/0x010B628F) looks at Unnamed NPC (ID: 17523317/0x010B6275)
178: 0x05A7 [0x1C] WAIT(30* ticks)
179: 0x05AA [0x29] REQ_SET_WAIT(priority=0x10, entity_id=LocalPlayer, tag_num=0x33)
180: 0x05B1 [0x45] LOAD_SCHEDULED_TASK: Load scheduler "s215" with entities [LocalPlayer, LocalPlayer], work=[557*, 0*]
181: 0x05C2 [0x1A] CALL_SUBROUTINE(address=0x27D8)
182: 0x05C5 [0x1C] WAIT(60* ticks)
183: 0x05C8 [0x2B] Unnamed NPC (ID: 17523343/0x010B628F) [8009*]:
    → "And now we play the waiting game, kupo."
184: 0x05CF [0x23] WAIT_FOR_DIALOG_INTERACTION
185: 0x05D0 [0x52] END_LOAD_SCHEDULER: End scheduler "s215" with entities [LocalPlayer, LocalPlayer], work=557*
186: 0x05DF [0x45] LOAD_SCHEDULED_TASK: Load scheduler "s216" with entities [LocalPlayer, LocalPlayer], work=[557*, 0*]
187: 0x05F0 [0x4A] Unnamed NPC (ID: 17523343/0x010B628F) looks at Unnamed NPC (ID: 17523317/0x010B6275)
188: 0x05F9 [0x1C] WAIT(60* ticks)
189: 0x05FC [0x2B] Unnamed NPC (ID: 17523343/0x010B628F) [8010*]:
    → "..."
190: 0x0603 [0x23] WAIT_FOR_DIALOG_INTERACTION
191: 0x0604 [0x5C] MUSIC_CONTROL: Set Idle (Day) music to song 215*
192: 0x0608 [0x5C] MUSIC_CONTROL: Set Idle (Night) music to song 215*
193: 0x060C [0x9A] WAIT_MUSIC_SERVER()
194: 0x060D [0x52] END_LOAD_SCHEDULER: End scheduler "s216" with entities [LocalPlayer, LocalPlayer], work=557*
195: 0x061C [0x45] LOAD_SCHEDULED_TASK: Load scheduler "s217" with entities [LocalPlayer, LocalPlayer], work=[557*, 0*]
196: 0x062D [0xCD] LOAD_SCHEDULED_TASK_ALT4: Load scheduler "s010" with entities [Unnamed NPC (ID: 17523317/0x010B6275), Unnamed NPC (ID: 17523317/0x010B6275)], work=[128*, 0*]
197: 0x063E [0x1C] WAIT(240* ticks)
198: 0x0641 [0x52] END_LOAD_SCHEDULER: End scheduler "s217" with entities [LocalPlayer, LocalPlayer], work=557*
199: 0x0650 [0x45] LOAD_SCHEDULED_TASK: Load scheduler "s218" with entities [LocalPlayer, LocalPlayer], work=[557*, 0*]
200: 0x0661 [0x2B] Unnamed NPC (ID: 17523343/0x010B628F) [8011*]:
    → "Gramercy, the light doth shine forth!"
201: 0x0668 [0x23] WAIT_FOR_DIALOG_INTERACTION
202: 0x0669 [0x52] END_LOAD_SCHEDULER: End scheduler "s218" with entities [LocalPlayer, LocalPlayer], work=557*
203: 0x0678 [0x45] LOAD_SCHEDULED_TASK: Load scheduler "s222" with entities [LocalPlayer, LocalPlayer], work=[557*, 0*]
204: 0x0689 [0xCD] LOAD_SCHEDULED_TASK_ALT4: Load scheduler "s020" with entities [Unnamed NPC (ID: 17523317/0x010B6275), Unnamed NPC (ID: 17523317/0x010B6275)], work=[128*, 0*]
205: 0x069A [0x1C] WAIT(300* ticks)
206: 0x069D [0x52] END_LOAD_SCHEDULER: End scheduler "s222" with entities [LocalPlayer, LocalPlayer], work=557*
207: 0x06AC [0x45] LOAD_SCHEDULED_TASK: Load scheduler "s219" with entities [LocalPlayer, LocalPlayer], work=[557*, 0*]
208: 0x06BD [0x4A] Unnamed NPC (ID: 17523343/0x010B628F) looks at LocalPlayer
209: 0x06C6 [0x1C] WAIT(30* ticks)
210: 0x06C9 [0x79] LocalPlayer looks at Unnamed NPC (ID: 17523343/0x010B628F) (Basic look)
211: 0x06D3 [0x2B] Unnamed NPC (ID: 17523343/0x010B628F) [8012*]:
    → "Time is of the essence, kupo!"
212: 0x06DA [0x23] WAIT_FOR_DIALOG_INTERACTION
213: 0x06DB [0x2B] Unnamed NPC (ID: 17523343/0x010B628F) [8013*]:
    → "Onward!"
214: 0x06E2 [0x23] WAIT_FOR_DIALOG_INTERACTION
215: 0x06E3 [0x52] END_LOAD_SCHEDULER: End scheduler "s219" with entities [LocalPlayer, LocalPlayer], work=557*
216: 0x06F2 [0x45] LOAD_SCHEDULED_TASK: Load scheduler "s220" with entities [LocalPlayer, LocalPlayer], work=[557*, 0*]
217: 0x0703 [0xCD] LOAD_SCHEDULED_TASK_ALT4: Load scheduler "s030" with entities [Unnamed NPC (ID: 17523317/0x010B6275), Unnamed NPC (ID: 17523317/0x010B6275)], work=[128*, 0*]
218: 0x0714 [0x1C] WAIT(120* ticks)
219: 0x0717 [0x52] END_LOAD_SCHEDULER: End scheduler "s220" with entities [LocalPlayer, LocalPlayer], work=557*
220: 0x0726 [0x45] LOAD_SCHEDULED_TASK: Load scheduler "s221" with entities [LocalPlayer, LocalPlayer], work=[557*, 0*]
221: 0x0737 [0x1C] WAIT(60* ticks)
222: 0x073A [0x03] Work_Zone[1] = 1*
223: 0x073F [0x5D] SET_MUSIC_VOLUME(volume=0*, fade_time=120*)
224: 0x0744 [0x45] LOAD_SCHEDULED_TASK: Load scheduler "who0" with entities [LocalPlayer, LocalPlayer], work=[201*, 0*]
225: 0x0755 [0x55] WAIT_LOAD_SCHEDULER: Wait for scheduler "who0" with entities [LocalPlayer, LocalPlayer], work=201*

SUBROUTINE_0764:
226: 0x0764 [0x1A] CALL_SUBROUTINE(address=0x27F9)
227: 0x0767 [0x1C] WAIT(60* ticks)
228: 0x076A [0x52] END_LOAD_SCHEDULER: End scheduler "s212" with entities [LocalPlayer, LocalPlayer], work=557*
229: 0x0779 [0x52] END_LOAD_SCHEDULER: End scheduler "s221" with entities [LocalPlayer, LocalPlayer], work=557*
230: 0x0788 [0x45] LOAD_SCHEDULED_TASK: Load scheduler "whi0" with entities [LocalPlayer, LocalPlayer], work=[201*, 0*]
231: 0x0799 [0x5C] MUSIC_CONTROL: Set Idle (Day) music to song 0*
232: 0x079D [0x5C] MUSIC_CONTROL: Set Idle (Night) music to song 0*
233: 0x07A1 [0x1C] WAIT(15* ticks)
234: 0x07A4 [0xAB] EventEntity->DespawnValue = 0* // Set despawn value
235: 0x07A8 [0x1C] WAIT(1* ticks)
236: 0x07AB [0x02] IF !(ExtData[1]->WorkLocal[1] == 0*) GOTO 0x07B6
237: 0x07B3 [0x30] SET_UCOFF_CONTINUE_ZERO()
238: 0x07B4 [0x21] END_EVENT
239: 0x07B5 [0x00] END_REQSTACK()
240: 0x07B6 [0xAB] EventEntity->UnknownFlag = 0 // Disable unknown flag
241: 0x07B8 [0x46] CAMERA_CONTROL: Restore default settings
242: 0x07BA [0x45] LOAD_SCHEDULED_TASK: Load scheduler "fdi2" with entities [LocalPlayer, LocalPlayer], work=[200*, 0*]
243: 0x07CB [0x21] END_EVENT
244: 0x07CC [0x00] END_REQSTACK()
```

#### Data or dead code:

```
# Dead code (unreachable instructions):
     0x04D2 [0x01] GOTO 0x04D5
# Dead code (unreachable instructions):
     0x051E [0x01] GOTO 0x0521
```

### Event 13

#### Metadata

| Field        | Value     |
|--------------|-----------|
| Entrypoint   | 0x07CD    |
| Data Size    | 691 bytes |
| Instructions | 95        |

```
      00 01 02 03 04 05 06 07  08 09 0A 0B 0C 0D 0E 0F
      -- -- -- -- -- -- -- --  -- -- -- -- -- -- -- --
07C0:                                         42 43 00               BC.
07D0: 43 01 03 01 00 08 10 5D  00 80 01 80 1A F9 27 46  C......]......'F
07E0: 01 38 02 80 4E 00 F0 FF  FF 7F 4E 00 75 62 0B 01  .8..N.....N.ub..
07F0: 27 10 8F 62 0B 01 04 92  00 F0 FF FF 7F 92 01 8F  '..b............
0800: 62 0B 01 94 01 F0 FF FF  7F 94 01 8F 62 0B 01 BA  b...........b...
0810: F0 FF FF 7F 03 80 04 80  05 80 06 80 BA 8F 62 0B  ..............b.
0820: 01 07 80 08 80 05 80 09  80 59 05 75 62 0B 01 01  .........Y.ub...
0830: BA 75 62 0B 01 0A 80 0B  80 0C 80 0D 80 29 10 8F  .ub..........)..
0840: 62 0B 01 12 29 10 8F 62  0B 01 13 80 F0 FF FF 7F  b...)..b........
0850: 80 8F 62 0B 01 4A 8F 62  0B 01 F0 FF FF 7F 4A F0  ..b..J.b......J.
0860: FF FF 7F 8F 62 0B 01 CD  47 80 75 62 0B 01 75 62  ....b...G.ub..ub
0870: 0B 01 73 30 30 30 00 80  5C 00 0F 80 5C 01 0F 80  ..s000..\...\...
0880: 9A 48 48 80 23 45 10 80  F0 FF FF 7F F0 FF FF 7F  .HH.#E..........
0890: 73 31 39 31 00 80 1A D8  27 1C 01 80 52 10 80 F0  s191....'...R...
08A0: FF FF 7F F0 FF FF 7F 73  31 39 31 45 10 80 F0 FF  .......s191E....
08B0: FF 7F F0 FF FF 7F 73 31  39 33 00 80 2B 8F 62 0B  ......s193..+.b.
08C0: 01 49 80 23 2B 8F 62 0B  01 4A 80 23 45 46 80 F0  .I.#+.b..J.#EF..
08D0: FF FF 7F F0 FF FF 7F 6F  76 6C 31 00 80 52 10 80  .......ovl1..R..
08E0: F0 FF FF 7F F0 FF FF 7F  73 31 39 33 45 10 80 F0  ........s193E...
08F0: FF FF 7F F0 FF FF 7F 73  31 39 34 00 80 1C 26 80  .......s194...&.
0900: 2B 8F 62 0B 01 4B 80 23  2B 8F 62 0B 01 4C 80 23  +.b..K.#+.b..L.#
0910: 52 10 80 F0 FF FF 7F F0  FF FF 7F 73 31 39 34 45  R..........s194E
0920: 10 80 F0 FF FF 7F F0 FF  FF 7F 73 31 39 35 00 80  ..........s195..
0930: 2B 8F 62 0B 01 4D 80 23  2B 8F 62 0B 01 4E 80 23  +.b..M.#+.b..N.#
0940: 52 10 80 F0 FF FF 7F F0  FF FF 7F 73 31 39 35 45  R..........s195E
0950: 10 80 F0 FF FF 7F F0 FF  FF 7F 73 31 39 36 00 80  ..........s196..
0960: 2B 8F 62 0B 01 4F 80 23  52 10 80 F0 FF FF 7F F0  +.b..O.#R.......
0970: FF FF 7F 73 31 39 36 45  10 80 F0 FF FF 7F F0 FF  ...s196E........
0980: FF 7F 73 31 39 37 00 80  2B 8F 62 0B 01 50 80 23  ..s197..+.b..P.#
0990: 2B 8F 62 0B 01 51 80 23  52 10 80 F0 FF FF 7F F0  +.b..Q.#R.......
09A0: FF FF 7F 73 31 39 37 45  10 80 F0 FF FF 7F F0 FF  ...s197E........
09B0: FF 7F 73 31 39 38 00 80  2B 8F 62 0B 01 52 80 23  ..s198..+.b..R.#
09C0: 52 10 80 F0 FF FF 7F F0  FF FF 7F 73 31 39 38 45  R..........s198E
09D0: 10 80 F0 FF FF 7F F0 FF  FF 7F 73 31 39 39 00 80  ..........s199..
09E0: 2B 8F 62 0B 01 53 80 23  2B 8F 62 0B 01 54 80 23  +.b..S.#+.b..T.#
09F0: 52 10 80 F0 FF FF 7F F0  FF FF 7F 73 31 39 39 45  R..........s199E
0A00: 10 80 F0 FF FF 7F F0 FF  FF 7F 73 32 30 30 00 80  ..........s200..
0A10: 2B 8F 62 0B 01 55 80 23  5D 00 80 01 80 1A F9 27  +.b..U.#]......'
0A20: 1C 13 80 CD 47 80 75 62  0B 01 75 62 0B 01 6B 6C  ....G.ub..ub..kl
0A30: 61 6C 00 80 1C 26 80 52  10 80 F0 FF FF 7F F0 FF  al...&.R........
0A40: FF 7F 73 32 30 30 45 56  80 F0 FF FF 7F F0 FF FF  ..s200EV........
0A50: 7F 30 62 6C 66 00 80 5C  00 00 80 5C 01 00 80 1C  .0blf..\...\....
0A60: 1E 80 AB 11 00 80 1C 21  80 AB 0A 46 00 45 46 80  .......!...F.EF.
0A70: F0 FF FF 7F F0 FF FF 7F  66 64 69 32 00 80 21 00  ........fdi2..!.
```

#### Opcodes

```
  0: 0x07CD [0x42] SET_CLI_EVENT_CANCEL_DATA()
  1: 0x07CE [0x43] SEND_EVENT_UPDATE: Send pending tag to server (packet 0x005B)
  2: 0x07D0 [0x43] SEND_EVENT_UPDATE: Check pending flag (skip if not pending)
  3: 0x07D2 [0x03] ExtData[1]->WorkLocal[1] = Work_Zone[8]
  4: 0x07D7 [0x5D] SET_MUSIC_VOLUME(volume=0*, fade_time=120*)
  5: 0x07DC [0x1A] CALL_SUBROUTINE(address=0x27F9)
  6: 0x07DF [0x46] CAMERA_CONTROL: Disable user control
  7: 0x07E1 [0x38] SET_CLIENT_EVENT_MODE(mode=19*)
  8: 0x07E4 [0x4E] SET_ENTITY_HIDE_FLAG: Show LocalPlayer
  9: 0x07EA [0x4E] SET_ENTITY_HIDE_FLAG: Show Unnamed NPC (ID: 17523317/0x010B6275)
 10: 0x07F0 [0x27] REQ_SET(priority=0x10, entity_id=Unnamed NPC (ID: 17523343/0x010B628F), tag_num=0x04)
 11: 0x07F7 [0x92] LocalPlayer->Render.Flags3 = Flags3  // No change (flag=0)
 12: 0x07FD [0x92] Unnamed NPC (ID: 17523343/0x010B628F)->Render.Flags3 ^= 0x01
 13: 0x0803 [0x94] LocalPlayer->Render.Flags3 ^= 0x01
 14: 0x0809 [0x94] Unnamed NPC (ID: 17523343/0x010B628F)->Render.Flags3 ^= 0x01
 15: 0x080F [0xBA] SET_ENTITY_POSITION(entity_id=LocalPlayer, pos_x=-760.351*, pos_z=-419.862*, pos_y=0.399*, direction=1.1°*)
 16: 0x081C [0xBA] SET_ENTITY_POSITION(entity_id=Unnamed NPC (ID: 17523343/0x010B628F), pos_x=-756.097*, pos_z=-423.232*, pos_y=0.399*, direction=94.4°*)
 17: 0x0829 [0x59] UPDATE_ENTITY_DATA: Unnamed NPC (ID: 17523317/0x010B6275)->Render.Flags0 |= 0x200000
 18: 0x0830 [0xBA] SET_ENTITY_POSITION(entity_id=Unnamed NPC (ID: 17523317/0x010B6275), pos_x=-779.226*, pos_z=-429.083*, pos_y=12.300*, direction=115.1°*)
 19: 0x083D [0x29] REQ_SET_WAIT(priority=0x10, entity_id=Unnamed NPC (ID: 17523343/0x010B628F), tag_num=0x12)
 20: 0x0844 [0x29] REQ_SET_WAIT(priority=0x10, entity_id=Unnamed NPC (ID: 17523343/0x010B628F), tag_num=0x13)
 21: 0x084B [0x80] LOAD_WAIT(entity=LocalPlayer)
 22: 0x0850 [0x80] LOAD_WAIT(entity=Unnamed NPC (ID: 17523343/0x010B628F))
 23: 0x0855 [0x4A] Unnamed NPC (ID: 17523343/0x010B628F) looks at LocalPlayer
 24: 0x085E [0x4A] LocalPlayer looks at Unnamed NPC (ID: 17523343/0x010B628F)
 25: 0x0867 [0xCD] LOAD_SCHEDULED_TASK_ALT4: Load scheduler "s000" with entities [Unnamed NPC (ID: 17523317/0x010B6275), Unnamed NPC (ID: 17523317/0x010B6275)], work=[123*, 0*]
 26: 0x0878 [0x5C] MUSIC_CONTROL: Set Idle (Day) music to song 42*
 27: 0x087C [0x5C] MUSIC_CONTROL: Set Idle (Night) music to song 42*
 28: 0x0880 [0x9A] WAIT_MUSIC_SERVER()
 29: 0x0881 [0x48] [System] [7700*]:
    → "@@"
 30: 0x0884 [0x23] WAIT_FOR_DIALOG_INTERACTION
 31: 0x0885 [0x45] LOAD_SCHEDULED_TASK: Load scheduler "s191" with entities [LocalPlayer, LocalPlayer], work=[557*, 0*]
 32: 0x0896 [0x1A] CALL_SUBROUTINE(address=0x27D8)
 33: 0x0899 [0x1C] WAIT(120* ticks)
 34: 0x089C [0x52] END_LOAD_SCHEDULER: End scheduler "s191" with entities [LocalPlayer, LocalPlayer], work=557*
 35: 0x08AB [0x45] LOAD_SCHEDULED_TASK: Load scheduler "s193" with entities [LocalPlayer, LocalPlayer], work=[557*, 0*]
 36: 0x08BC [0x2B] Unnamed NPC (ID: 17523343/0x010B628F) [8037*]:
    → "The wonders thou hast witnessed yonside this distortion eclipse any phenomenon in my encyclopedia of experiences, kupo."
 37: 0x08C3 [0x23] WAIT_FOR_DIALOG_INTERACTION
 38: 0x08C4 [0x2B] Unnamed NPC (ID: 17523343/0x010B628F) [8038*]:
    → "Mayhap the stars have aligned for this day and this day alone!"
 39: 0x08CB [0x23] WAIT_FOR_DIALOG_INTERACTION
 40: 0x08CC [0x45] LOAD_SCHEDULED_TASK: Load scheduler "ovl1" with entities [LocalPlayer, LocalPlayer], work=[200*, 0*]
 41: 0x08DD [0x52] END_LOAD_SCHEDULER: End scheduler "s193" with entities [LocalPlayer, LocalPlayer], work=557*
 42: 0x08EC [0x45] LOAD_SCHEDULED_TASK: Load scheduler "s194" with entities [LocalPlayer, LocalPlayer], work=[557*, 0*]
 43: 0x08FD [0x1C] WAIT(60* ticks)
 44: 0x0900 [0x2B] Unnamed NPC (ID: 17523343/0x010B628F) [8039*]:
    → "Incidentally, hast thou ever pondered, excogitated, or ruminated on the genesis of this celestial body we call home, kupo?"
 45: 0x0907 [0x23] WAIT_FOR_DIALOG_INTERACTION
 46: 0x0908 [0x2B] Unnamed NPC (ID: 17523343/0x010B628F) [8040*]:
    → "I profess to have tried many a time and failed at each--I comprehend not a whit, kupo. Canst thou imagine the scale...the myriad events interlocked so spectacularly as to lead us as we are to this specific point, at this particular moment?"
 47: 0x090F [0x23] WAIT_FOR_DIALOG_INTERACTION
 48: 0x0910 [0x52] END_LOAD_SCHEDULER: End scheduler "s194" with entities [LocalPlayer, LocalPlayer], work=557*
 49: 0x091F [0x45] LOAD_SCHEDULED_TASK: Load scheduler "s195" with entities [LocalPlayer, LocalPlayer], work=[557*, 0*]
 50: 0x0930 [0x2B] Unnamed NPC (ID: 17523343/0x010B628F) [8041*]:
    → "If thou cannot, take heart. Nor can any creature that measureth its lifespan in years instead of eons."
 51: 0x0937 [0x23] WAIT_FOR_DIALOG_INTERACTION
 52: 0x0938 [0x2B] Unnamed NPC (ID: 17523343/0x010B628F) [8042*]:
    → "Awash in the eternal flow of time, individuals are naught but flotsam. Such is true equally for the most notable noble, and the most abject almsman, kupo."
 53: 0x093F [0x23] WAIT_FOR_DIALOG_INTERACTION
 54: 0x0940 [0x52] END_LOAD_SCHEDULER: End scheduler "s195" with entities [LocalPlayer, LocalPlayer], work=557*
 55: 0x094F [0x45] LOAD_SCHEDULED_TASK: Load scheduler "s196" with entities [LocalPlayer, LocalPlayer], work=[557*, 0*]
 56: 0x0960 [0x2B] Unnamed NPC (ID: 17523343/0x010B628F) [8043*]:
    → "Death is all that lieth at the mouth of the river, yet maugre its foreordained nature, we struggle mightily against its current, kupo. Were I queried as to the beauty of life, that is the answer I would give, my crystal-culling compatriot."
 57: 0x0967 [0x23] WAIT_FOR_DIALOG_INTERACTION
 58: 0x0968 [0x52] END_LOAD_SCHEDULER: End scheduler "s196" with entities [LocalPlayer, LocalPlayer], work=557*
 59: 0x0977 [0x45] LOAD_SCHEDULED_TASK: Load scheduler "s197" with entities [LocalPlayer, LocalPlayer], work=[557*, 0*]
 60: 0x0988 [0x2B] Unnamed NPC (ID: 17523343/0x010B628F) [8044*]:
    → "Howbeit, mine answer may differ from thine, as thine may from another's. A single, consummate conclusion doth not exist, any search for one would taxeth the mind needlessly, kupo."
 61: 0x098F [0x23] WAIT_FOR_DIALOG_INTERACTION
 62: 0x0990 [0x2B] Unnamed NPC (ID: 17523343/0x010B628F) [8045*]:
    → "And yet, one thing is for certain. We all have our own interpretations, and from those spring forth an infinite number of possibilities, kupo."
 63: 0x0997 [0x23] WAIT_FOR_DIALOG_INTERACTION
 64: 0x0998 [0x52] END_LOAD_SCHEDULER: End scheduler "s197" with entities [LocalPlayer, LocalPlayer], work=557*
 65: 0x09A7 [0x45] LOAD_SCHEDULED_TASK: Load scheduler "s198" with entities [LocalPlayer, LocalPlayer], work=[557*, 0*]
 66: 0x09B8 [0x2B] Unnamed NPC (ID: 17523343/0x010B628F) [8046*]:
    → "I am me, thou art thee, our current lives but droplets in the sea. Thou art encompassed always by alternate realities...and the choice to change is always present, kupo."
 67: 0x09BF [0x23] WAIT_FOR_DIALOG_INTERACTION
 68: 0x09C0 [0x52] END_LOAD_SCHEDULER: End scheduler "s198" with entities [LocalPlayer, LocalPlayer], work=557*
 69: 0x09CF [0x45] LOAD_SCHEDULED_TASK: Load scheduler "s199" with entities [LocalPlayer, LocalPlayer], work=[557*, 0*]
 70: 0x09E0 [0x2B] Unnamed NPC (ID: 17523343/0x010B628F) [8047*]:
    → "Cait Sith hath conferred one such choice upon thee, kupo."
 71: 0x09E7 [0x23] WAIT_FOR_DIALOG_INTERACTION
 72: 0x09E8 [0x2B] Unnamed NPC (ID: 17523343/0x010B628F) [8048*]:
    → "Should thou desirest to eft traverse the primordial planes of Provenance, but speak my name and I shall come swooping to thy aid. 'Tis my station to ensure thy safe passage to a new dimension--and new reality, kupo."
 73: 0x09EF [0x23] WAIT_FOR_DIALOG_INTERACTION
 74: 0x09F0 [0x52] END_LOAD_SCHEDULER: End scheduler "s199" with entities [LocalPlayer, LocalPlayer], work=557*
 75: 0x09FF [0x45] LOAD_SCHEDULED_TASK: Load scheduler "s200" with entities [LocalPlayer, LocalPlayer], work=[557*, 0*]
 76: 0x0A10 [0x2B] Unnamed NPC (ID: 17523343/0x010B628F) [8049*]:
    → "Fare thee well, <Player>, and may the wisdom of the Magians help lead thee to thine own light."
 77: 0x0A17 [0x23] WAIT_FOR_DIALOG_INTERACTION
 78: 0x0A18 [0x5D] SET_MUSIC_VOLUME(volume=0*, fade_time=120*)
 79: 0x0A1D [0x1A] CALL_SUBROUTINE(address=0x27F9)
 80: 0x0A20 [0x1C] WAIT(30* ticks)
 81: 0x0A23 [0xCD] LOAD_SCHEDULED_TASK_ALT4: Load scheduler "klal" with entities [Unnamed NPC (ID: 17523317/0x010B6275), Unnamed NPC (ID: 17523317/0x010B6275)], work=[123*, 0*]
 82: 0x0A34 [0x1C] WAIT(60* ticks)
 83: 0x0A37 [0x52] END_LOAD_SCHEDULER: End scheduler "s200" with entities [LocalPlayer, LocalPlayer], work=557*
 84: 0x0A46 [0x45] LOAD_SCHEDULED_TASK: Load scheduler "0blf" with entities [LocalPlayer, LocalPlayer], work=[578*, 0*]
 85: 0x0A57 [0x5C] MUSIC_CONTROL: Set Idle (Day) music to song 0*
 86: 0x0A5B [0x5C] MUSIC_CONTROL: Set Idle (Night) music to song 0*
 87: 0x0A5F [0x1C] WAIT(15* ticks)
 88: 0x0A62 [0xAB] EventEntity->DespawnValue = 0* // Set despawn value
 89: 0x0A66 [0x1C] WAIT(1* ticks)
 90: 0x0A69 [0xAB] EventEntity->UnknownFlag = 0 // Disable unknown flag
 91: 0x0A6B [0x46] CAMERA_CONTROL: Restore default settings
 92: 0x0A6D [0x45] LOAD_SCHEDULED_TASK: Load scheduler "fdi2" with entities [LocalPlayer, LocalPlayer], work=[200*, 0*]
 93: 0x0A7E [0x21] END_EVENT
 94: 0x0A7F [0x00] END_REQSTACK()
```

### Event 15

#### Metadata

| Field        | Value     |
|--------------|-----------|
| Entrypoint   | 0x0A80    |
| Data Size    | 536 bytes |
| Instructions | 80        |

```
      00 01 02 03 04 05 06 07  08 09 0A 0B 0C 0D 0E 0F
      -- -- -- -- -- -- -- --  -- -- -- -- -- -- -- --
0A80: 42 1A F9 27 46 01 38 02  80 4E 00 F0 FF FF 7F 77  B..'F.8..N.....w
0A90: 57 80 02 80 1C 13 80 AB  09 2D F0 FF FF 7F F0 FF  W........-......
0AA0: FF 7F 73 74 61 31 2D F0  FF FF 7F F0 FF FF 7F 73  ..sta1-........s
0AB0: 74 61 32 2D F0 FF FF 7F  F0 FF FF 7F 73 74 61 33  ta2-........sta3
0AC0: 2D F0 FF FF 7F F0 FF FF  7F 73 74 61 34 92 00 F0  -........sta4...
0AD0: FF FF 7F 94 01 F0 FF FF  7F BA F0 FF FF 7F 58 80  ..............X.
0AE0: 59 80 05 80 5A 80 80 F0  FF FF 7F 29 10 F0 FF FF  Y...Z......)....
0AF0: 7F 07 5C 00 5B 80 5C 01  5B 80 9A 45 5C 80 F0 FF  ..\.[.\.[..E\...
0B00: FF 7F F0 FF FF 7F 63 61  30 36 00 80 1A D8 27 1C  ......ca06....'.
0B10: 26 80 27 10 F0 FF FF 7F  08 1C 26 80 52 5C 80 F0  &.'.......&.R\..
0B20: FF FF 7F F0 FF FF 7F 63  61 30 36 45 5C 80 F0 FF  .......ca06E\...
0B30: FF 7F F0 FF FF 7F 63 61  30 37 00 80 1C 13 80 27  ......ca07.....'
0B40: 10 75 62 0B 01 05 2B 74  62 0B 01 5D 80 23 52 5C  .ub...+tb..].#R\
0B50: 80 F0 FF FF 7F F0 FF FF  7F 63 61 30 37 45 5C 80  .........ca07E\.
0B60: F0 FF FF 7F F0 FF FF 7F  63 61 30 38 00 80 1C 13  ........ca08....
0B70: 80 27 10 75 62 0B 01 05  29 10 74 62 0B 01 08 2B  .'.ub...).tb...+
0B80: 74 62 0B 01 5E 80 23 1C  13 80 27 10 75 62 0B 01  tb..^.#...'.ub..
0B90: 05 2B 74 62 0B 01 5F 80  23 27 10 F0 FF FF 7F 1A  .+tb.._.#'......
0BA0: 52 5C 80 F0 FF FF 7F F0  FF FF 7F 63 61 30 38 45  R\.........ca08E
0BB0: 5C 80 F0 FF FF 7F F0 FF  FF 7F 63 61 30 39 00 80  \.........ca09..
0BC0: 1C 13 80 27 10 75 62 0B  01 05 2B 74 62 0B 01 60  ...'.ub...+tb..`
0BD0: 80 23 1C 13 80 27 10 75  62 0B 01 05 2B 74 62 0B  .#...'.ub...+tb.
0BE0: 01 61 80 23 52 5C 80 F0  FF FF 7F F0 FF FF 7F 63  .a.#R\.........c
0BF0: 61 30 39 45 5C 80 F0 FF  FF 7F F0 FF FF 7F 63 61  a09E\.........ca
0C00: 31 30 00 80 1C 13 80 27  10 75 62 0B 01 05 2B 74  10.....'.ub...+t
0C10: 62 0B 01 62 80 1C 63 80  52 5C 80 F0 FF FF 7F F0  b..b..c.R\......
0C20: FF FF 7F 63 61 31 30 45  5C 80 F0 FF FF 7F F0 FF  ...ca10E\.......
0C30: FF 7F 63 61 31 31 00 80  5D 00 80 01 80 1C 26 80  ..ca11..].....&.
0C40: 23 1A F9 27 1C 13 80 29  10 74 62 0B 01 07 52 5C  #..'...).tb...R\
0C50: 80 F0 FF FF 7F F0 FF FF  7F 63 61 31 31 45 5C 80  .........ca11E\.
0C60: F0 FF FF 7F F0 FF FF 7F  30 62 6C 66 00 80 1C 1E  ........0blf....
0C70: 80 AB 11 00 80 1C 21 80  5C 00 00 80 5C 01 00 80  ......!.\...\...
0C80: 9A AB 0A 46 00 45 46 80  F0 FF FF 7F F0 FF FF 7F  ...F.EF.........
0C90: 66 64 69 32 00 80 21 00                           fdi2..!.        
```

#### Opcodes

```
  0: 0x0A80 [0x42] SET_CLI_EVENT_CANCEL_DATA()
  1: 0x0A81 [0x1A] CALL_SUBROUTINE(address=0x27F9)
  2: 0x0A84 [0x46] CAMERA_CONTROL: Disable user control
  3: 0x0A86 [0x38] SET_CLIENT_EVENT_MODE(mode=19*)
  4: 0x0A89 [0x4E] SET_ENTITY_HIDE_FLAG: Show LocalPlayer
  5: 0x0A8F [0x77] SET_EVENT_TIME_WEATHER(hour=255*, weather=19*)
  6: 0x0A94 [0x1C] WAIT(30* ticks)
  7: 0x0A97 [0xAB] EventEntity->UnknownFlag = 1 // Enable unknown flag
  8: 0x0A99 [0x2D] CREATE_ZONE_SCHEDULER_TASK: Create scheduler "sta1" with entities [LocalPlayer, LocalPlayer]
  9: 0x0AA6 [0x2D] CREATE_ZONE_SCHEDULER_TASK: Create scheduler "sta2" with entities [LocalPlayer, LocalPlayer]
 10: 0x0AB3 [0x2D] CREATE_ZONE_SCHEDULER_TASK: Create scheduler "sta3" with entities [LocalPlayer, LocalPlayer]
 11: 0x0AC0 [0x2D] CREATE_ZONE_SCHEDULER_TASK: Create scheduler "sta4" with entities [LocalPlayer, LocalPlayer]
 12: 0x0ACD [0x92] LocalPlayer->Render.Flags3 = Flags3  // No change (flag=0)
 13: 0x0AD3 [0x94] LocalPlayer->Render.Flags3 ^= 0x01
 14: 0x0AD9 [0xBA] SET_ENTITY_POSITION(entity_id=LocalPlayer, pos_x=-700.061*, pos_z=-473.991*, pos_y=0.399*, direction=269.1°*)
 15: 0x0AE6 [0x80] LOAD_WAIT(entity=LocalPlayer)
 16: 0x0AEB [0x29] REQ_SET_WAIT(priority=0x10, entity_id=LocalPlayer, tag_num=0x07)
 17: 0x0AF2 [0x5C] MUSIC_CONTROL: Set Idle (Day) music to song 40*
 18: 0x0AF6 [0x5C] MUSIC_CONTROL: Set Idle (Night) music to song 40*
 19: 0x0AFA [0x9A] WAIT_MUSIC_SERVER()
 20: 0x0AFB [0x45] LOAD_SCHEDULED_TASK: Load scheduler "ca06" with entities [LocalPlayer, LocalPlayer], work=[653*, 0*]
 21: 0x0B0C [0x1A] CALL_SUBROUTINE(address=0x27D8)
 22: 0x0B0F [0x1C] WAIT(60* ticks)
 23: 0x0B12 [0x27] REQ_SET(priority=0x10, entity_id=LocalPlayer, tag_num=0x08)
 24: 0x0B19 [0x1C] WAIT(60* ticks)
 25: 0x0B1C [0x52] END_LOAD_SCHEDULER: End scheduler "ca06" with entities [LocalPlayer, LocalPlayer], work=653*
 26: 0x0B2B [0x45] LOAD_SCHEDULED_TASK: Load scheduler "ca07" with entities [LocalPlayer, LocalPlayer], work=[653*, 0*]
 27: 0x0B3C [0x1C] WAIT(30* ticks)
 28: 0x0B3F [0x27] REQ_SET(priority=0x10, entity_id=Unnamed NPC (ID: 17523317/0x010B6275), tag_num=0x05)
 29: 0x0B46 [0x2B] ??? (ID: 17523316/0x010B6274) [8091*]:
    → "<Player>...It...me... ...Sith."
 30: 0x0B4D [0x23] WAIT_FOR_DIALOG_INTERACTION
 31: 0x0B4E [0x52] END_LOAD_SCHEDULER: End scheduler "ca07" with entities [LocalPlayer, LocalPlayer], work=653*
 32: 0x0B5D [0x45] LOAD_SCHEDULED_TASK: Load scheduler "ca08" with entities [LocalPlayer, LocalPlayer], work=[653*, 0*]
 33: 0x0B6E [0x1C] WAIT(30* ticks)
 34: 0x0B71 [0x27] REQ_SET(priority=0x10, entity_id=Unnamed NPC (ID: 17523317/0x010B6275), tag_num=0x05)
 35: 0x0B78 [0x29] REQ_SET_WAIT(priority=0x10, entity_id=??? (ID: 17523316/0x010B6274), tag_num=0x08)
 36: 0x0B7F [0x2B] ??? (ID: 17523316/0x010B6274) [8092*]:
    → "Can't...not... ...strength."
 37: 0x0B86 [0x23] WAIT_FOR_DIALOG_INTERACTION
 38: 0x0B87 [0x1C] WAIT(30* ticks)
 39: 0x0B8A [0x27] REQ_SET(priority=0x10, entity_id=Unnamed NPC (ID: 17523317/0x010B6275), tag_num=0x05)
 40: 0x0B91 [0x2B] ??? (ID: 17523316/0x010B6274) [8093*]:
    → "I...you...thoughts...gathering strength..."
 41: 0x0B98 [0x23] WAIT_FOR_DIALOG_INTERACTION
 42: 0x0B99 [0x27] REQ_SET(priority=0x10, entity_id=LocalPlayer, tag_num=0x1A)
 43: 0x0BA0 [0x52] END_LOAD_SCHEDULER: End scheduler "ca08" with entities [LocalPlayer, LocalPlayer], work=653*
 44: 0x0BAF [0x45] LOAD_SCHEDULED_TASK: Load scheduler "ca09" with entities [LocalPlayer, LocalPlayer], work=[653*, 0*]
 45: 0x0BC0 [0x1C] WAIT(30* ticks)
 46: 0x0BC3 [0x27] REQ_SET(priority=0x10, entity_id=Unnamed NPC (ID: 17523317/0x010B6275), tag_num=0x05)
 47: 0x0BCA [0x2B] ??? (ID: 17523316/0x010B6274) [8094*]:
    → "Can you...me? Past...faure...Jugn...ine Glac..."
 48: 0x0BD1 [0x23] WAIT_FOR_DIALOG_INTERACTION
 49: 0x0BD2 [0x1C] WAIT(30* ticks)
 50: 0x0BD5 [0x27] REQ_SET(priority=0x10, entity_id=Unnamed NPC (ID: 17523317/0x010B6275), tag_num=0x05)
 51: 0x0BDC [0x2B] ??? (ID: 17523316/0x010B6274) [8095*]:
    → "Nya...three...reconstr...me. Plea..."
 52: 0x0BE3 [0x23] WAIT_FOR_DIALOG_INTERACTION
 53: 0x0BE4 [0x52] END_LOAD_SCHEDULER: End scheduler "ca09" with entities [LocalPlayer, LocalPlayer], work=653*
 54: 0x0BF3 [0x45] LOAD_SCHEDULED_TASK: Load scheduler "ca10" with entities [LocalPlayer, LocalPlayer], work=[653*, 0*]
 55: 0x0C04 [0x1C] WAIT(30* ticks)
 56: 0x0C07 [0x27] REQ_SET(priority=0x10, entity_id=Unnamed NPC (ID: 17523317/0x010B6275), tag_num=0x05)
 57: 0x0C0E [0x2B] ??? (ID: 17523316/0x010B6274) [8096*]:
    → "Power...Mete... No...Ornate Door...waiting..."
 58: 0x0C15 [0x1C] WAIT(90* ticks)
 59: 0x0C18 [0x52] END_LOAD_SCHEDULER: End scheduler "ca10" with entities [LocalPlayer, LocalPlayer], work=653*
 60: 0x0C27 [0x45] LOAD_SCHEDULED_TASK: Load scheduler "ca11" with entities [LocalPlayer, LocalPlayer], work=[653*, 0*]
 61: 0x0C38 [0x5D] SET_MUSIC_VOLUME(volume=0*, fade_time=120*)
 62: 0x0C3D [0x1C] WAIT(60* ticks)
 63: 0x0C40 [0x23] WAIT_FOR_DIALOG_INTERACTION
 64: 0x0C41 [0x1A] CALL_SUBROUTINE(address=0x27F9)
 65: 0x0C44 [0x1C] WAIT(30* ticks)
 66: 0x0C47 [0x29] REQ_SET_WAIT(priority=0x10, entity_id=??? (ID: 17523316/0x010B6274), tag_num=0x07)
 67: 0x0C4E [0x52] END_LOAD_SCHEDULER: End scheduler "ca11" with entities [LocalPlayer, LocalPlayer], work=653*
 68: 0x0C5D [0x45] LOAD_SCHEDULED_TASK: Load scheduler "0blf" with entities [LocalPlayer, LocalPlayer], work=[653*, 0*]
 69: 0x0C6E [0x1C] WAIT(15* ticks)
 70: 0x0C71 [0xAB] EventEntity->DespawnValue = 0* // Set despawn value
 71: 0x0C75 [0x1C] WAIT(1* ticks)
 72: 0x0C78 [0x5C] MUSIC_CONTROL: Set Idle (Day) music to song 0*
 73: 0x0C7C [0x5C] MUSIC_CONTROL: Set Idle (Night) music to song 0*
 74: 0x0C80 [0x9A] WAIT_MUSIC_SERVER()
 75: 0x0C81 [0xAB] EventEntity->UnknownFlag = 0 // Disable unknown flag
 76: 0x0C83 [0x46] CAMERA_CONTROL: Restore default settings
 77: 0x0C85 [0x45] LOAD_SCHEDULED_TASK: Load scheduler "fdi2" with entities [LocalPlayer, LocalPlayer], work=[200*, 0*]
 78: 0x0C96 [0x21] END_EVENT
 79: 0x0C97 [0x00] END_REQSTACK()
```

### Event 16

#### Metadata

| Field        | Value      |
|--------------|------------|
| Entrypoint   | 0x0C98     |
| Data Size    | 1109 bytes |
| Instructions | 139        |

```
      00 01 02 03 04 05 06 07  08 09 0A 0B 0C 0D 0E 0F
      -- -- -- -- -- -- -- --  -- -- -- -- -- -- -- --
0C90:                          42 1A F9 27 46 01 38 02          B..'F.8.
0CA0: 80 4E 00 F0 FF FF 7F 77  57 80 02 80 1C 13 80 AB  .N.....wW.......
0CB0: 09 27 10 58 62 0B 01 12  92 00 F0 FF FF 7F 92 01  .'.Xb...........
0CC0: 58 62 0B 01 94 01 F0 FF  FF 7F 94 01 58 62 0B 01  Xb..........Xb..
0CD0: BA F0 FF FF 7F 64 80 65  80 66 80 67 80 BA 58 62  .....d.e.f.g..Xb
0CE0: 0B 01 68 80 69 80 6A 80  6B 80 80 F0 FF FF 7F 80  ..h.i.j.k.......
0CF0: 58 62 0B 01 45 6C 80 58  62 0B 01 F0 FF FF 7F 00  Xb..El.Xb.......
0D00: FE FE FE 00 80 45 5C 80  F0 FF FF 7F F0 FF FF 7F  .....E\.........
0D10: 63 61 31 34 00 80 1A D8  27 BB 6D 80 58 62 0B 01  ca14....'.m.Xb..
0D20: 58 62 0B 01 73 74 30 31  00 80 45 6C 80 58 62 0B  Xb..st01..El.Xb.
0D30: 01 F0 FF FF 7F 34 30 34  39 00 80 1C 6E 80 79 00  .....4049...n.y.
0D40: F0 FF FF 7F 58 62 0B 01  1C 01 80 52 5C 80 F0 FF  ....Xb.....R\...
0D50: FF 7F F0 FF FF 7F 63 61  31 34 45 5C 80 F0 FF FF  ......ca14E\....
0D60: 7F F0 FF FF 7F 63 61 31  38 00 80 45 6C 80 58 62  .....ca18..El.Xb
0D70: 0B 01 F0 FF FF 7F 36 31  33 32 00 80 1C 26 80 BB  ......6132...&..
0D80: 6D 80 58 62 0B 01 58 62  0B 01 73 74 30 32 00 80  m.Xb..Xb..st02..
0D90: 03 02 10 6F 80 27 10 74  62 0B 01 01 1C 26 80 52  ...o.'.tb....&.R
0DA0: 5C 80 F0 FF FF 7F F0 FF  FF 7F 63 61 31 38 45 5C  \.........ca18E\
0DB0: 80 F0 FF FF 7F F0 FF FF  7F 63 61 31 37 00 80 2A  .........ca17..*
0DC0: 10 74 62 0B 01 52 5C 80  F0 FF FF 7F F0 FF FF 7F  .tb..R\.........
0DD0: 63 61 31 37 45 5C 80 F0  FF FF 7F F0 FF FF 7F 63  ca17E\.........c
0DE0: 61 31 39 00 80 5B 70 80  58 62 0B 01 58 62 0B 01  a19..[p.Xb..Xb..
0DF0: 74 6C 62 30 2B 58 62 0B  01 71 80 1C 01 80 23 5B  tlb0+Xb..q....#[
0E00: 70 80 58 62 0B 01 58 62  0B 01 74 6C 62 31 2B 58  p.Xb..Xb..tlb1+X
0E10: 62 0B 01 72 80 23 5C 00  73 80 5C 01 73 80 9A 52  b..r.#\.s.\.s..R
0E20: 5C 80 F0 FF FF 7F F0 FF  FF 7F 63 61 31 39 45 5C  \.........ca19E\
0E30: 80 F0 FF FF 7F F0 FF FF  7F 63 61 32 30 00 80 03  .........ca20...
0E40: 02 10 00 80 24 74 80 00  80 02 10 25 02 00 10 00  ....$t.....%....
0E50: 80 00 66 0E 6E F0 FF FF  7F 75 80 99 F0 FF FF 7F  ..f.n....u......
0E60: 1C 63 80 01 A4 0E 02 00  10 21 80 00 A4 0E 29 10  .c.......!....).
0E70: F0 FF FF 7F 18 5B 76 80  58 62 0B 01 58 62 0B 01  .....[v.Xb..Xb..
0E80: 61 72 61 30 2B 58 62 0B  01 77 80 23 53 58 62 0B  ara0+Xb..w.#SXb.
0E90: 01 58 62 0B 01 61 72 61  30 03 02 10 78 80 01 44  .Xb..ara0...x..D
0EA0: 0E 01 A4 0E 52 5C 80 F0  FF FF 7F F0 FF FF 7F 63  ....R\.........c
0EB0: 61 32 30 45 5C 80 F0 FF  FF 7F F0 FF FF 7F 63 61  a20E\.........ca
0EC0: 32 31 00 80 81 00 58 62  0B 01 5B 79 80 58 62 0B  21....Xb..[y.Xb.
0ED0: 01 58 62 0B 01 68 6F 74  30 2B 58 62 0B 01 7A 80  .Xb..hot0+Xb..z.
0EE0: 23 2B 58 62 0B 01 7B 80  23 81 01 58 62 0B 01 5B  #+Xb..{.#..Xb..[
0EF0: 79 80 58 62 0B 01 58 62  0B 01 68 6F 74 31 2B 58  y.Xb..Xb..hot1+X
0F00: 62 0B 01 7C 80 23 53 58  62 0B 01 58 62 0B 01 68  b..|.#SXb..Xb..h
0F10: 6F 74 31 52 5C 80 F0 FF  FF 7F F0 FF FF 7F 63 61  ot1R\.........ca
0F20: 32 31 45 5C 80 F0 FF FF  7F F0 FF FF 7F 63 61 32  21E\.........ca2
0F30: 32 00 80 2B 58 62 0B 01  7D 80 23 6E F0 FF FF 7F  2..+Xb..}.#n....
0F40: 7E 80 99 F0 FF FF 7F 1C  26 80 5B 7F 80 58 62 0B  ~.......&.[..Xb.
0F50: 01 58 62 0B 01 79 72 65  30 2B 58 62 0B 01 80 80  .Xb..yre0+Xb....
0F60: 1C 81 80 23 52 5C 80 F0  FF FF 7F F0 FF FF 7F 63  ...#R\.........c
0F70: 61 32 32 45 5C 80 F0 FF  FF 7F F0 FF FF 7F 63 61  a22E\.........ca
0F80: 32 33 00 80 5B 7F 80 58  62 0B 01 58 62 0B 01 79  23..[..Xb..Xb..y
0F90: 72 65 31 2B 58 62 0B 01  82 80 23 53 58 62 0B 01  re1+Xb....#SXb..
0FA0: 58 62 0B 01 79 72 65 31  52 5C 80 F0 FF FF 7F F0  Xb..yre1R\......
0FB0: FF FF 7F 63 61 32 33 45  5C 80 F0 FF FF 7F F0 FF  ...ca23E\.......
0FC0: FF 7F 63 61 32 34 00 80  29 10 58 62 0B 01 2F 2B  ..ca24..).Xb../+
0FD0: 58 62 0B 01 83 80 23 5B  84 80 58 62 0B 01 58 62  Xb....#[..Xb..Xb
0FE0: 0B 01 70 61 73 31 2B 58  62 0B 01 85 80 23 53 58  ..pas1+Xb....#SX
0FF0: 62 0B 01 58 62 0B 01 70  61 73 31 27 10 58 62 0B  b..Xb..pas1'.Xb.
1000: 01 30 1C 86 80 52 5C 80  F0 FF FF 7F F0 FF FF 7F  .0...R\.........
1010: 63 61 32 34 45 5C 80 F0  FF FF 7F F0 FF FF 7F 63  ca24E\.........c
1020: 61 32 35 00 80 2B 58 62  0B 01 87 80 23 2B 58 62  a25..+Xb....#+Xb
1030: 0B 01 88 80 23 2A 10 58  62 0B 01 52 5C 80 F0 FF  ....#*.Xb..R\...
1040: FF 7F F0 FF FF 7F 63 61  32 35 45 5C 80 F0 FF FF  ......ca25E\....
1050: 7F F0 FF FF 7F 63 61 32  37 00 80 5B 89 80 58 62  .....ca27..[..Xb
1060: 0B 01 58 62 0B 01 75 64  65 30 1C 13 80 2B 58 62  ..Xb..ude0...+Xb
1070: 0B 01 8A 80 23 52 5C 80  F0 FF FF 7F F0 FF FF 7F  ....#R\.........
1080: 63 61 32 37 45 5C 80 F0  FF FF 7F F0 FF FF 7F 63  ca27E\.........c
1090: 61 32 36 00 80 5D 00 80  01 80 1C 01 80 1A F9 27  a26..].........'
10A0: 1C 26 80 52 5C 80 F0 FF  FF 7F F0 FF FF 7F 63 61  .&.R\.........ca
10B0: 32 36 45 5C 80 F0 FF FF  7F F0 FF FF 7F 30 62 6C  26E\.........0bl
10C0: 66 00 80 1C 1E 80 AB 11  00 80 1C 21 80 5C 00 00  f..........!.\..
10D0: 80 5C 01 00 80 9A AB 0A  46 00 45 46 80 F0 FF FF  .\......F.EF....
10E0: 7F F0 FF FF 7F 66 64 69  32 00 80 21 00           .....fdi2..!.   
```

#### Opcodes

```
  0: 0x0C98 [0x42] SET_CLI_EVENT_CANCEL_DATA()
  1: 0x0C99 [0x1A] CALL_SUBROUTINE(address=0x27F9)
  2: 0x0C9C [0x46] CAMERA_CONTROL: Disable user control
  3: 0x0C9E [0x38] SET_CLIENT_EVENT_MODE(mode=19*)
  4: 0x0CA1 [0x4E] SET_ENTITY_HIDE_FLAG: Show LocalPlayer
  5: 0x0CA7 [0x77] SET_EVENT_TIME_WEATHER(hour=255*, weather=19*)
  6: 0x0CAC [0x1C] WAIT(30* ticks)
  7: 0x0CAF [0xAB] EventEntity->UnknownFlag = 1 // Enable unknown flag
  8: 0x0CB1 [0x27] REQ_SET(priority=0x10, entity_id=Cait Sith (ID: 17523288/0x010B6258), tag_num=0x12)
  9: 0x0CB8 [0x92] LocalPlayer->Render.Flags3 = Flags3  // No change (flag=0)
 10: 0x0CBE [0x92] Cait Sith (ID: 17523288/0x010B6258)->Render.Flags3 ^= 0x01
 11: 0x0CC4 [0x94] LocalPlayer->Render.Flags3 ^= 0x01
 12: 0x0CCA [0x94] Cait Sith (ID: 17523288/0x010B6258)->Render.Flags3 ^= 0x01
 13: 0x0CD0 [0xBA] SET_ENTITY_POSITION(entity_id=LocalPlayer, pos_x=-700.020*, pos_z=-95.404*, pos_y=-25.124*, direction=90.0°*)
 14: 0x0CDD [0xBA] SET_ENTITY_POSITION(entity_id=Cait Sith (ID: 17523288/0x010B6258), pos_x=-699.955*, pos_z=-99.247*, pos_y=-25.125*, direction=270.1°*)
 15: 0x0CEA [0x80] LOAD_WAIT(entity=LocalPlayer)
 16: 0x0CEF [0x80] LOAD_WAIT(entity=Cait Sith (ID: 17523288/0x010B6258))
 17: 0x0CF4 [0x45] LOAD_SCHEDULED_TASK: Load scheduler 0xFEFEFE00 with entities [Cait Sith (ID: 17523288/0x010B6258), LocalPlayer], work=[378*, 0*]
 18: 0x0D05 [0x45] LOAD_SCHEDULED_TASK: Load scheduler "ca14" with entities [LocalPlayer, LocalPlayer], work=[653*, 0*]
 19: 0x0D16 [0x1A] CALL_SUBROUTINE(address=0x27D8)
 20: 0x0D19 [0xBB] LOAD_EVENT_SCHEDULER_ALT: Load scheduler "st01" with entities [Cait Sith (ID: 17523288/0x010B6258), Cait Sith (ID: 17523288/0x010B6258)], work=[155*, 0*]
 21: 0x0D2A [0x45] LOAD_SCHEDULED_TASK: Load scheduler "4049" with entities [Cait Sith (ID: 17523288/0x010B6258), LocalPlayer], work=[378*, 0*]
 22: 0x0D3B [0x1C] WAIT(330* ticks)
 23: 0x0D3E [0x79] LocalPlayer looks at Cait Sith (ID: 17523288/0x010B6258) (Basic look)
 24: 0x0D48 [0x1C] WAIT(120* ticks)
 25: 0x0D4B [0x52] END_LOAD_SCHEDULER: End scheduler "ca14" with entities [LocalPlayer, LocalPlayer], work=653*
 26: 0x0D5A [0x45] LOAD_SCHEDULED_TASK: Load scheduler "ca18" with entities [LocalPlayer, LocalPlayer], work=[653*, 0*]
 27: 0x0D6B [0x45] LOAD_SCHEDULED_TASK: Load scheduler "6132" with entities [Cait Sith (ID: 17523288/0x010B6258), LocalPlayer], work=[378*, 0*]
 28: 0x0D7C [0x1C] WAIT(60* ticks)
 29: 0x0D7F [0xBB] LOAD_EVENT_SCHEDULER_ALT: Load scheduler "st02" with entities [Cait Sith (ID: 17523288/0x010B6258), Cait Sith (ID: 17523288/0x010B6258)], work=[155*, 0*]
 30: 0x0D90 [0x03] Work_Zone[2] = 360*
 31: 0x0D95 [0x27] REQ_SET(priority=0x10, entity_id=??? (ID: 17523316/0x010B6274), tag_num=0x01)
 32: 0x0D9C [0x1C] WAIT(60* ticks)
 33: 0x0D9F [0x52] END_LOAD_SCHEDULER: End scheduler "ca18" with entities [LocalPlayer, LocalPlayer], work=653*
 34: 0x0DAE [0x45] LOAD_SCHEDULED_TASK: Load scheduler "ca17" with entities [LocalPlayer, LocalPlayer], work=[653*, 0*]
 35: 0x0DBF [0x2A] GET_REQ_LEVEL(level=16, entity_id=??? (ID: 17523316/0x010B6274))
 36: 0x0DC5 [0x52] END_LOAD_SCHEDULER: End scheduler "ca17" with entities [LocalPlayer, LocalPlayer], work=653*
 37: 0x0DD4 [0x45] LOAD_SCHEDULED_TASK: Load scheduler "ca19" with entities [LocalPlayer, LocalPlayer], work=[653*, 0*]
 38: 0x0DE5 [0x5B] LOAD_EXT_SCHEDULER: Load scheduler "tlb0" with entities [Cait Sith (ID: 17523288/0x010B6258), Cait Sith (ID: 17523288/0x010B6258)], work=1414*
 39: 0x0DF4 [0x2B] Cait Sith (ID: 17523288/0x010B6258) [8097*]:
    → "Nyan! <Player>, I can finally communicate like before! You're the best!"
 40: 0x0DFB [0x1C] WAIT(120* ticks)
 41: 0x0DFE [0x23] WAIT_FOR_DIALOG_INTERACTION
 42: 0x0DFF [0x5B] LOAD_EXT_SCHEDULER: Load scheduler "tlb1" with entities [Cait Sith (ID: 17523288/0x010B6258), Cait Sith (ID: 17523288/0x010B6258)], work=1414*
 43: 0x0E0E [0x2B] Cait Sith (ID: 17523288/0x010B6258) [8098*]:
    → "I forgot how I promised to be of use to you! Serve you well!"
 44: 0x0E15 [0x23] WAIT_FOR_DIALOG_INTERACTION
 45: 0x0E16 [0x5C] MUSIC_CONTROL: Set Idle (Day) music to song 41*
 46: 0x0E1A [0x5C] MUSIC_CONTROL: Set Idle (Night) music to song 41*
 47: 0x0E1E [0x9A] WAIT_MUSIC_SERVER()
 48: 0x0E1F [0x52] END_LOAD_SCHEDULER: End scheduler "ca19" with entities [LocalPlayer, LocalPlayer], work=653*
 49: 0x0E2E [0x45] LOAD_SCHEDULED_TASK: Load scheduler "ca20" with entities [LocalPlayer, LocalPlayer], work=[653*, 0*]
 50: 0x0E3F [0x03] Work_Zone[2] = 0*
 51: 0x0E44 [0x24] CREATE_DIALOG(message_id=8099*, default_option=0*, option_flags=Work_Zone[2])
    → "What do you ask? ["Be of use"?/"Forgot"?]"
 52: 0x0E4B [0x25] WAIT_DIALOG_SELECT()
 53: 0x0E4C [0x02] IF !(Work_Zone[0] == 0*) GOTO 0x0E66
 54: 0x0E54 [0x6E] LocalPlayer uses emote 32*
 55: 0x0E5B [0x99] Wait for LocalPlayer animation to complete
 56: 0x0E60 [0x1C] WAIT(90* ticks)
 57: 0x0E63 [0x01] GOTO 0x0EA4
 58: 0x0E66 [0x02] IF !(Work_Zone[0] == 1*) GOTO 0x0EA4
 59: 0x0E6E [0x29] REQ_SET_WAIT(priority=0x10, entity_id=LocalPlayer, tag_num=0x18)
 60: 0x0E75 [0x5B] LOAD_EXT_SCHEDULER: Load scheduler "ara0" with entities [Cait Sith (ID: 17523288/0x010B6258), Cait Sith (ID: 17523288/0x010B6258)], work=1311*
 61: 0x0E84 [0x2B] Cait Sith (ID: 17523288/0x010B6258) [8100*]:
    → "Yes, forgot! Failed to remember!"
 62: 0x0E8B [0x23] WAIT_FOR_DIALOG_INTERACTION
 63: 0x0E8C [0x53] WAIT_SCHEDULER_TASK: Wait for scheduler "ara0" with entities [Cait Sith (ID: 17523288/0x010B6258), Cait Sith (ID: 17523288/0x010B6258)]
 64: 0x0E99 [0x03] Work_Zone[2] = 2*
 65: 0x0E9E [0x01] GOTO 0x0E44

SUBROUTINE_0EA4:
 66: 0x0EA4 [0x52] END_LOAD_SCHEDULER: End scheduler "ca20" with entities [LocalPlayer, LocalPlayer], work=653*
 67: 0x0EB3 [0x45] LOAD_SCHEDULED_TASK: Load scheduler "ca21" with entities [LocalPlayer, LocalPlayer], work=[653*, 0*]
 68: 0x0EC4 [0x81] SET_ENTITY_BLINKING(blink_flag=0x00, entity=Cait Sith (ID: 17523288/0x010B6258))
 69: 0x0ECA [0x5B] LOAD_EXT_SCHEDULER: Load scheduler "hot0" with entities [Cait Sith (ID: 17523288/0x010B6258), Cait Sith (ID: 17523288/0x010B6258)], work=1312*
 70: 0x0ED9 [0x2B] Cait Sith (ID: 17523288/0x010B6258) [8101*]:
    → "But I can help you! No, not in the way you might hope. Our world has rules, too. Ways of doing things. Must abide properly."
 71: 0x0EE0 [0x23] WAIT_FOR_DIALOG_INTERACTION
 72: 0x0EE1 [0x2B] Cait Sith (ID: 17523288/0x010B6258) [8102*]:
    → "Rules which go beyond the world of man. Encompass the entirety of all universes and dimensions."
 73: 0x0EE8 [0x23] WAIT_FOR_DIALOG_INTERACTION
 74: 0x0EE9 [0x81] SET_ENTITY_BLINKING(blink_flag=0x01, entity=Cait Sith (ID: 17523288/0x010B6258))
 75: 0x0EEF [0x5B] LOAD_EXT_SCHEDULER: Load scheduler "hot1" with entities [Cait Sith (ID: 17523288/0x010B6258), Cait Sith (ID: 17523288/0x010B6258)], work=1312*
 76: 0x0EFE [0x2B] Cait Sith (ID: 17523288/0x010B6258) [8103*]:
    → "Don't ask me why! I didn't make them, I just play by them!"
 77: 0x0F05 [0x23] WAIT_FOR_DIALOG_INTERACTION
 78: 0x0F06 [0x53] WAIT_SCHEDULER_TASK: Wait for scheduler "hot1" with entities [Cait Sith (ID: 17523288/0x010B6258), Cait Sith (ID: 17523288/0x010B6258)]
 79: 0x0F13 [0x52] END_LOAD_SCHEDULER: End scheduler "ca21" with entities [LocalPlayer, LocalPlayer], work=653*
 80: 0x0F22 [0x45] LOAD_SCHEDULED_TASK: Load scheduler "ca22" with entities [LocalPlayer, LocalPlayer], work=[653*, 0*]
 81: 0x0F33 [0x2B] Cait Sith (ID: 17523288/0x010B6258) [8104*]:
    → "Or have you forgotten all you have learned? Had your memories consumed? Let us then wake them up with a spar! A contest of claws!"
 82: 0x0F3A [0x23] WAIT_FOR_DIALOG_INTERACTION
 83: 0x0F3B [0x6E] LocalPlayer uses emote 21*
 84: 0x0F42 [0x99] Wait for LocalPlayer animation to complete
 85: 0x0F47 [0x1C] WAIT(60* ticks)
 86: 0x0F4A [0x5B] LOAD_EXT_SCHEDULER: Load scheduler "yre0" with entities [Cait Sith (ID: 17523288/0x010B6258), Cait Sith (ID: 17523288/0x010B6258)], work=2521*
 87: 0x0F59 [0x2B] Cait Sith (ID: 17523288/0x010B6258) [8105*]:
    → "Unless, of course, you'd rather not. Pain isn't my forte. And when it comes to love and peace, I'm quite content! Very happy, indeed."
 88: 0x0F60 [0x1C] WAIT(140* ticks)
 89: 0x0F63 [0x23] WAIT_FOR_DIALOG_INTERACTION
 90: 0x0F64 [0x52] END_LOAD_SCHEDULER: End scheduler "ca22" with entities [LocalPlayer, LocalPlayer], work=653*
 91: 0x0F73 [0x45] LOAD_SCHEDULED_TASK: Load scheduler "ca23" with entities [LocalPlayer, LocalPlayer], work=[653*, 0*]
 92: 0x0F84 [0x5B] LOAD_EXT_SCHEDULER: Load scheduler "yre1" with entities [Cait Sith (ID: 17523288/0x010B6258), Cait Sith (ID: 17523288/0x010B6258)], work=2521*
 93: 0x0F93 [0x2B] Cait Sith (ID: 17523288/0x010B6258) [8106*]:
    → "I'll let you decide what's best."
 94: 0x0F9A [0x23] WAIT_FOR_DIALOG_INTERACTION
 95: 0x0F9B [0x53] WAIT_SCHEDULER_TASK: Wait for scheduler "yre1" with entities [Cait Sith (ID: 17523288/0x010B6258), Cait Sith (ID: 17523288/0x010B6258)]
 96: 0x0FA8 [0x52] END_LOAD_SCHEDULER: End scheduler "ca23" with entities [LocalPlayer, LocalPlayer], work=653*
 97: 0x0FB7 [0x45] LOAD_SCHEDULED_TASK: Load scheduler "ca24" with entities [LocalPlayer, LocalPlayer], work=[653*, 0*]
 98: 0x0FC8 [0x29] REQ_SET_WAIT(priority=0x10, entity_id=Cait Sith (ID: 17523288/0x010B6258), tag_num=0x2F)
 99: 0x0FCF [0x2B] Cait Sith (ID: 17523288/0x010B6258) [8107*]:
    → "I'll return these to you. If you have need of me, just use them and I'll come bounding to your side."
100: 0x0FD6 [0x23] WAIT_FOR_DIALOG_INTERACTION
101: 0x0FD7 [0x5B] LOAD_EXT_SCHEDULER: Load scheduler "pas1" with entities [Cait Sith (ID: 17523288/0x010B6258), Cait Sith (ID: 17523288/0x010B6258)], work=2474*
102: 0x0FE6 [0x2B] Cait Sith (ID: 17523288/0x010B6258) [8108*]:
    → "Curiosity may have killed the cait, but indecision is what'll finish you. If you decide to use them, they'll be gone forever whether you triumph or fail, so you'll have to start from square one. Make a fresh beginning!"
103: 0x0FED [0x23] WAIT_FOR_DIALOG_INTERACTION
104: 0x0FEE [0x53] WAIT_SCHEDULER_TASK: Wait for scheduler "pas1" with entities [Cait Sith (ID: 17523288/0x010B6258), Cait Sith (ID: 17523288/0x010B6258)]
105: 0x0FFB [0x27] REQ_SET(priority=0x10, entity_id=Cait Sith (ID: 17523288/0x010B6258), tag_num=0x30)
106: 0x1002 [0x1C] WAIT(45* ticks)
107: 0x1005 [0x52] END_LOAD_SCHEDULER: End scheduler "ca24" with entities [LocalPlayer, LocalPlayer], work=653*
108: 0x1014 [0x45] LOAD_SCHEDULED_TASK: Load scheduler "ca25" with entities [LocalPlayer, LocalPlayer], work=[653*, 0*]
109: 0x1025 [0x2B] Cait Sith (ID: 17523288/0x010B6258) [8109*]:
    → "Imagine what a pain it would be to slink around to all those places again!"
110: 0x102C [0x23] WAIT_FOR_DIALOG_INTERACTION
111: 0x102D [0x2B] Cait Sith (ID: 17523288/0x010B6258) [8110*]:
    → "Don't worry your tail off. Now that I'm as good as new, one place should be enough. More than sufficient."
112: 0x1034 [0x23] WAIT_FOR_DIALOG_INTERACTION
113: 0x1035 [0x2A] GET_REQ_LEVEL(level=16, entity_id=Cait Sith (ID: 17523288/0x010B6258))
114: 0x103B [0x52] END_LOAD_SCHEDULER: End scheduler "ca25" with entities [LocalPlayer, LocalPlayer], work=653*
115: 0x104A [0x45] LOAD_SCHEDULED_TASK: Load scheduler "ca27" with entities [LocalPlayer, LocalPlayer], work=[653*, 0*]
116: 0x105B [0x5B] LOAD_EXT_SCHEDULER: Load scheduler "ude0" with entities [Cait Sith (ID: 17523288/0x010B6258), Cait Sith (ID: 17523288/0x010B6258)], work=1412*
117: 0x106A [0x1C] WAIT(30* ticks)
118: 0x106D [0x2B] Cait Sith (ID: 17523288/0x010B6258) [8111*]:
    → "I'll be here grooming myself whenever you're ready. Good to go."
119: 0x1074 [0x23] WAIT_FOR_DIALOG_INTERACTION
120: 0x1075 [0x52] END_LOAD_SCHEDULER: End scheduler "ca27" with entities [LocalPlayer, LocalPlayer], work=653*
121: 0x1084 [0x45] LOAD_SCHEDULED_TASK: Load scheduler "ca26" with entities [LocalPlayer, LocalPlayer], work=[653*, 0*]
122: 0x1095 [0x5D] SET_MUSIC_VOLUME(volume=0*, fade_time=120*)
123: 0x109A [0x1C] WAIT(120* ticks)
124: 0x109D [0x1A] CALL_SUBROUTINE(address=0x27F9)
125: 0x10A0 [0x1C] WAIT(60* ticks)
126: 0x10A3 [0x52] END_LOAD_SCHEDULER: End scheduler "ca26" with entities [LocalPlayer, LocalPlayer], work=653*
127: 0x10B2 [0x45] LOAD_SCHEDULED_TASK: Load scheduler "0blf" with entities [LocalPlayer, LocalPlayer], work=[653*, 0*]
128: 0x10C3 [0x1C] WAIT(15* ticks)
129: 0x10C6 [0xAB] EventEntity->DespawnValue = 0* // Set despawn value
130: 0x10CA [0x1C] WAIT(1* ticks)
131: 0x10CD [0x5C] MUSIC_CONTROL: Set Idle (Day) music to song 0*
132: 0x10D1 [0x5C] MUSIC_CONTROL: Set Idle (Night) music to song 0*
133: 0x10D5 [0x9A] WAIT_MUSIC_SERVER()
134: 0x10D6 [0xAB] EventEntity->UnknownFlag = 0 // Disable unknown flag
135: 0x10D8 [0x46] CAMERA_CONTROL: Restore default settings
136: 0x10DA [0x45] LOAD_SCHEDULED_TASK: Load scheduler "fdi2" with entities [LocalPlayer, LocalPlayer], work=[200*, 0*]
137: 0x10EB [0x21] END_EVENT
138: 0x10EC [0x00] END_REQSTACK()
```

#### Data or dead code:

```
# Dead code (unreachable instructions):
     0x0EA1 [0x01] GOTO 0x0EA4
```

### Event 17

#### Metadata

| Field        | Value     |
|--------------|-----------|
| Entrypoint   | 0x10ED    |
| Data Size    | 308 bytes |
| Instructions | 46        |

```
      00 01 02 03 04 05 06 07  08 09 0A 0B 0C 0D 0E 0F
      -- -- -- -- -- -- -- --  -- -- -- -- -- -- -- --
10E0:                                         42 1A F9               B..
10F0: 27 46 01 38 02 80 4E 00  F0 FF FF 7F 77 57 80 02  'F.8..N.....wW..
1100: 80 1C 13 80 27 10 58 62  0B 01 14 92 00 F0 FF FF  ....'.Xb........
1110: 7F 92 01 58 62 0B 01 94  01 F0 FF FF 7F 94 01 58  ...Xb..........X
1120: 62 0B 01 BA F0 FF FF 7F  8B 80 8C 80 8D 80 8E 80  b...............
1130: BA 58 62 0B 01 8F 80 90  80 8D 80 67 80 80 F0 FF  .Xb........g....
1140: FF 7F 80 58 62 0B 01 27  10 F0 FF FF 7F 19 45 5C  ...Xb..'......E\
1150: 80 F0 FF FF 7F F0 FF FF  7F 63 61 30 33 00 80 1A  .........ca03...
1160: D8 27 1C 63 80 52 5C 80  F0 FF FF 7F F0 FF FF 7F  .'.c.R\.........
1170: 63 61 30 33 45 5C 80 F0  FF FF 7F F0 FF FF 7F 63  ca03E\.........c
1180: 61 30 34 00 80 2A 10 F0  FF FF 7F 1C 13 80 2B 58  a04..*........+X
1190: 62 0B 01 91 80 1C 01 80  5B 92 80 58 62 0B 01 58  b.......[..Xb..X
11A0: 62 0B 01 6B 61 6D 30 1C  13 80 52 5C 80 F0 FF FF  b..kam0...R\....
11B0: 7F F0 FF FF 7F 63 61 30  34 45 5C 80 F0 FF FF 7F  .....ca04E\.....
11C0: F0 FF FF 7F 63 61 30 35  00 80 2B 58 62 0B 01 93  ....ca05..+Xb...
11D0: 80 1C 26 80 1A 4C 29 1C  13 80 1A B7 27 1A 1A 28  ..&..L).....'..(
11E0: 52 5C 80 F0 FF FF 7F F0  FF FF 7F 63 61 30 35 45  R\.........ca05E
11F0: 5C 80 F0 FF FF 7F F0 FF  FF 7F 30 62 6C 66 00 80  \.........0blf..
1200: 1C 1E 80 AB 11 00 80 1C  21 80 AB 0A 46 00 45 46  ........!...F.EF
1210: 80 F0 FF FF 7F F0 FF FF  7F 66 64 69 32 00 80 21  .........fdi2..!
1220: 00                                                .               
```

#### Opcodes

```
  0: 0x10ED [0x42] SET_CLI_EVENT_CANCEL_DATA()
  1: 0x10EE [0x1A] CALL_SUBROUTINE(address=0x27F9)
  2: 0x10F1 [0x46] CAMERA_CONTROL: Disable user control
  3: 0x10F3 [0x38] SET_CLIENT_EVENT_MODE(mode=19*)
  4: 0x10F6 [0x4E] SET_ENTITY_HIDE_FLAG: Show LocalPlayer
  5: 0x10FC [0x77] SET_EVENT_TIME_WEATHER(hour=255*, weather=19*)
  6: 0x1101 [0x1C] WAIT(30* ticks)
  7: 0x1104 [0x27] REQ_SET(priority=0x10, entity_id=Cait Sith (ID: 17523288/0x010B6258), tag_num=0x14)
  8: 0x110B [0x92] LocalPlayer->Render.Flags3 = Flags3  // No change (flag=0)
  9: 0x1111 [0x92] Cait Sith (ID: 17523288/0x010B6258)->Render.Flags3 ^= 0x01
 10: 0x1117 [0x94] LocalPlayer->Render.Flags3 ^= 0x01
 11: 0x111D [0x94] Cait Sith (ID: 17523288/0x010B6258)->Render.Flags3 ^= 0x01
 12: 0x1123 [0xBA] SET_ENTITY_POSITION(entity_id=LocalPlayer, pos_x=-700.031*, pos_z=-147.901*, pos_y=-12.769*, direction=270.0°*)
 13: 0x1130 [0xBA] SET_ENTITY_POSITION(entity_id=Cait Sith (ID: 17523288/0x010B6258), pos_x=-699.922*, pos_z=-139.930*, pos_y=-12.769*, direction=90.0°*)
 14: 0x113D [0x80] LOAD_WAIT(entity=LocalPlayer)
 15: 0x1142 [0x80] LOAD_WAIT(entity=Cait Sith (ID: 17523288/0x010B6258))
 16: 0x1147 [0x27] REQ_SET(priority=0x10, entity_id=LocalPlayer, tag_num=0x19)
 17: 0x114E [0x45] LOAD_SCHEDULED_TASK: Load scheduler "ca03" with entities [LocalPlayer, LocalPlayer], work=[653*, 0*]
 18: 0x115F [0x1A] CALL_SUBROUTINE(address=0x27D8)
 19: 0x1162 [0x1C] WAIT(90* ticks)
 20: 0x1165 [0x52] END_LOAD_SCHEDULER: End scheduler "ca03" with entities [LocalPlayer, LocalPlayer], work=653*
 21: 0x1174 [0x45] LOAD_SCHEDULED_TASK: Load scheduler "ca04" with entities [LocalPlayer, LocalPlayer], work=[653*, 0*]
 22: 0x1185 [0x2A] GET_REQ_LEVEL(level=16, entity_id=LocalPlayer)
 23: 0x118B [0x1C] WAIT(30* ticks)
 24: 0x118E [0x2B] Cait Sith (ID: 17523288/0x010B6258) [8112*]:
    → "That you stand before my gates, <Player>, can mean only one thing--you are ready to fight me, tooth and claw."
 25: 0x1195 [0x1C] WAIT(120* ticks)
 26: 0x1198 [0x5B] LOAD_EXT_SCHEDULER: Load scheduler "kam0" with entities [Cait Sith (ID: 17523288/0x010B6258), Cait Sith (ID: 17523288/0x010B6258)], work=2527*
 27: 0x11A7 [0x1C] WAIT(30* ticks)
 28: 0x11AA [0x52] END_LOAD_SCHEDULER: End scheduler "ca04" with entities [LocalPlayer, LocalPlayer], work=653*
 29: 0x11B9 [0x45] LOAD_SCHEDULED_TASK: Load scheduler "ca05" with entities [LocalPlayer, LocalPlayer], work=[653*, 0*]
 30: 0x11CA [0x2B] Cait Sith (ID: 17523288/0x010B6258) [8113*]:
    → "Don't expect me to paw around. Come, give it your all!"
 31: 0x11D1 [0x1C] WAIT(60* ticks)
 32: 0x11D4 [0x1A] CALL_SUBROUTINE(address=0x294C)
 33: 0x11D7 [0x1C] WAIT(30* ticks)
 34: 0x11DA [0x1A] CALL_SUBROUTINE(address=0x27B7)
 35: 0x11DD [0x1A] CALL_SUBROUTINE(address=0x281A)
 36: 0x11E0 [0x52] END_LOAD_SCHEDULER: End scheduler "ca05" with entities [LocalPlayer, LocalPlayer], work=653*
 37: 0x11EF [0x45] LOAD_SCHEDULED_TASK: Load scheduler "0blf" with entities [LocalPlayer, LocalPlayer], work=[653*, 0*]
 38: 0x1200 [0x1C] WAIT(15* ticks)
 39: 0x1203 [0xAB] EventEntity->DespawnValue = 0* // Set despawn value
 40: 0x1207 [0x1C] WAIT(1* ticks)
 41: 0x120A [0xAB] EventEntity->UnknownFlag = 0 // Disable unknown flag
 42: 0x120C [0x46] CAMERA_CONTROL: Restore default settings
 43: 0x120E [0x45] LOAD_SCHEDULED_TASK: Load scheduler "fdi2" with entities [LocalPlayer, LocalPlayer], work=[200*, 0*]
 44: 0x121F [0x21] END_EVENT
 45: 0x1220 [0x00] END_REQSTACK()
```

### Event 18

#### Metadata

| Field        | Value      |
|--------------|------------|
| Entrypoint   | 0x1221     |
| Data Size    | 2772 bytes |
| Instructions | 316        |

```
      00 01 02 03 04 05 06 07  08 09 0A 0B 0C 0D 0E 0F
      -- -- -- -- -- -- -- --  -- -- -- -- -- -- -- --
1220:    42 1A F9 27 46 01 38  02 80 03 01 10 06 80 43   B..'F.8.......C
1230: 00 43 01 03 01 00 02 10  4E 00 F0 FF FF 7F 77 57  .C......N.....wW
1240: 80 02 80 1C 13 80 AB 09  27 10 58 62 0B 01 14 92  ........'.Xb....
1250: 00 F0 FF FF 7F 92 01 58  62 0B 01 94 01 F0 FF FF  .......Xb.......
1260: 7F 94 01 58 62 0B 01 BA  F0 FF FF 7F 94 80 95 80  ...Xb...........
1270: 8D 80 8E 80 BA 58 62 0B  01 8F 80 90 80 8D 80 67  .....Xb........g
1280: 80 80 F0 FF FF 7F 80 58  62 0B 01 5C 00 96 80 5C  .......Xb..\...\
1290: 01 96 80 5C 02 96 80 5C  03 96 80 9A 29 10 F0 FF  ...\...\....)...
12A0: FF 7F 09 79 00 F0 FF FF  7F 58 62 0B 01 45 5C 80  ...y.....Xb..E\.
12B0: F0 FF FF 7F F0 FF FF 7F  63 61 32 38 00 80 1A D8  ........ca28....
12C0: 27 2B 58 62 0B 01 97 80  23 2B 58 62 0B 01 98 80  '+Xb....#+Xb....
12D0: 23 29 10 F0 FF FF 7F 0A  52 5C 80 F0 FF FF 7F F0  #)......R\......
12E0: FF FF 7F 63 61 32 38 45  5C 80 F0 FF FF 7F F0 FF  ...ca28E\.......
12F0: FF 7F 63 61 32 39 00 80  81 00 58 62 0B 01 5B 79  ..ca29....Xb..[y
1300: 80 58 62 0B 01 58 62 0B  01 68 6F 74 30 2B 58 62  .Xb..Xb..hot0+Xb
1310: 0B 01 99 80 1C 01 80 23  02 01 00 21 80 00 23 13  .......#...!..#.
1320: 01 D7 19 52 5C 80 F0 FF  FF 7F F0 FF FF 7F 63 61  ...R\.........ca
1330: 32 39 45 5C 80 F0 FF FF  7F F0 FF FF 7F 63 61 33  29E\.........ca3
1340: 30 00 80 03 01 10 9A 80  43 00 43 01 24 9B 80 00  0.......C.C.$...
1350: 80 09 10 25 02 00 10 00  80 00 0E 14 52 5C 80 F0  ...%........R\..
1360: FF FF 7F F0 FF FF 7F 63  61 33 30 45 5C 80 F0 FF  .......ca30E\...
1370: FF 7F F0 FF FF 7F 63 61  34 30 00 80 03 02 10 9C  ......ca40......
1380: 80 93 02 10 2B 58 62 0B  01 9D 80 23 93 00 80 03  ....+Xb....#....
1390: 02 10 9C 80 24 9E 80 21  80 00 80 25 02 00 10 21  ....$..!...%...!
13A0: 80 00 B9 13 52 5C 80 F0  FF FF 7F F0 FF FF 7F 63  ....R\.........c
13B0: 61 34 30 01 23 13 01 B9  13 52 5C 80 F0 FF FF 7F  a40.#....R\.....
13C0: F0 FF FF 7F 63 61 33 31  45 5C 80 F0 FF FF 7F F0  ....ca31E\......
13D0: FF FF 7F 63 61 33 35 00  80 81 01 58 62 0B 01 5B  ...ca35....Xb..[
13E0: 79 80 58 62 0B 01 58 62  0B 01 68 6F 74 31 1C 86  y.Xb..Xb..hot1..
13F0: 80 2B 58 62 0B 01 9F 80  23 53 58 62 0B 01 58 62  .+Xb....#SXb..Xb
1400: 0B 01 68 6F 74 31 03 01  10 21 80 01 91 19 02 00  ..hot1...!......
1410: 10 21 80 00 C8 14 52 5C  80 F0 FF FF 7F F0 FF FF  .!....R\........
1420: 7F 63 61 33 30 45 5C 80  F0 FF FF 7F F0 FF FF 7F  .ca30E\.........
1430: 63 61 33 32 00 80 03 02  10 A0 80 93 02 10 2B 58  ca32..........+X
1440: 62 0B 01 9D 80 23 93 00  80 03 02 10 A0 80 24 9E  b....#........$.
1450: 80 21 80 00 80 25 02 00  10 21 80 00 73 14 52 5C  .!...%...!..s.R\
1460: 80 F0 FF FF 7F F0 FF FF  7F 63 61 33 32 01 23 13  .........ca32.#.
1470: 01 73 14 52 5C 80 F0 FF  FF 7F F0 FF FF 7F 63 61  .s.R\.........ca
1480: 33 32 45 5C 80 F0 FF FF  7F F0 FF FF 7F 63 61 33  32E\.........ca3
1490: 35 00 80 81 01 58 62 0B  01 5B 79 80 58 62 0B 01  5....Xb..[y.Xb..
14A0: 58 62 0B 01 68 6F 74 31  1C 86 80 2B 58 62 0B 01  Xb..hot1...+Xb..
14B0: 9F 80 23 53 58 62 0B 01  58 62 0B 01 68 6F 74 31  ..#SXb..Xb..hot1
14C0: 03 01 10 78 80 01 91 19  02 00 10 78 80 00 82 15  ...x.......x....
14D0: 52 5C 80 F0 FF FF 7F F0  FF FF 7F 63 61 33 30 45  R\.........ca30E
14E0: 5C 80 F0 FF FF 7F F0 FF  FF 7F 63 61 33 33 00 80  \.........ca33..
14F0: 03 02 10 A1 80 93 02 10  2B 58 62 0B 01 9D 80 23  ........+Xb....#
1500: 93 00 80 03 02 10 A1 80  24 9E 80 21 80 00 80 25  ........$..!...%
1510: 02 00 10 21 80 00 2D 15  52 5C 80 F0 FF FF 7F F0  ...!..-.R\......
1520: FF FF 7F 63 61 33 33 01  23 13 01 2D 15 52 5C 80  ...ca33.#..-.R\.
1530: F0 FF FF 7F F0 FF FF 7F  63 61 33 33 45 5C 80 F0  ........ca33E\..
1540: FF FF 7F F0 FF FF 7F 63  61 33 35 00 80 81 01 58  .......ca35....X
1550: 62 0B 01 5B 79 80 58 62  0B 01 58 62 0B 01 68 6F  b..[y.Xb..Xb..ho
1560: 74 31 1C 86 80 2B 58 62  0B 01 9F 80 23 53 58 62  t1...+Xb....#SXb
1570: 0B 01 58 62 0B 01 68 6F  74 31 03 01 10 28 80 01  ..Xb..hot1...(..
1580: 91 19 02 00 10 28 80 00  2C 16 52 5C 80 F0 FF FF  .....(..,.R\....
1590: 7F F0 FF FF 7F 63 61 33  30 45 5C 80 F0 FF FF 7F  .....ca30E\.....
15A0: F0 FF FF 7F 63 61 33 34  00 80 2B 58 62 0B 01 9D  ....ca34..+Xb...
15B0: 80 23 24 A2 80 21 80 00  80 25 02 00 10 21 80 00  .#$..!...%...!..
15C0: D7 15 52 5C 80 F0 FF FF  7F F0 FF FF 7F 63 61 33  ..R\.........ca3
15D0: 34 01 23 13 01 D7 15 52  5C 80 F0 FF FF 7F F0 FF  4.#....R\.......
15E0: FF 7F 63 61 33 34 45 5C  80 F0 FF FF 7F F0 FF FF  ..ca34E\........
15F0: 7F 63 61 33 35 00 80 81  01 58 62 0B 01 5B 79 80  .ca35....Xb..[y.
1600: 58 62 0B 01 58 62 0B 01  68 6F 74 31 1C 86 80 2B  Xb..Xb..hot1...+
1610: 58 62 0B 01 9F 80 23 53  58 62 0B 01 58 62 0B 01  Xb....#SXb..Xb..
1620: 68 6F 74 31 03 01 10 A3  80 01 91 19 02 00 10 A3  hot1............
1630: 80 00 83 18 52 5C 80 F0  FF FF 7F F0 FF FF 7F 63  ....R\.........c
1640: 61 33 30 45 5C 80 F0 FF  FF 7F F0 FF FF 7F 63 61  a30E\.........ca
1650: 33 31 00 80 2B 58 62 0B  01 9D 80 23 24 A4 80 21  31..+Xb....#$..!
1660: 80 00 80 25 02 00 10 21  80 00 81 16 52 5C 80 F0  ...%...!....R\..
1670: FF FF 7F F0 FF FF 7F 63  61 33 31 01 23 13 01 81  .......ca31.#...
1680: 16 81 01 58 62 0B 01 52  5C 80 F0 FF FF 7F F0 FF  ...Xb..R\.......
1690: FF 7F 63 61 33 31 45 5C  80 F0 FF FF 7F F0 FF FF  ..ca31E\........
16A0: 7F 63 61 33 35 00 80 81  01 58 62 0B 01 5B 79 80  .ca35....Xb..[y.
16B0: 58 62 0B 01 58 62 0B 01  68 6F 74 31 1C 86 80 2B  Xb..Xb..hot1...+
16C0: 58 62 0B 01 9F 80 23 53  58 62 0B 01 58 62 0B 01  Xb....#SXb..Xb..
16D0: 68 6F 74 31 5B 76 80 58  62 0B 01 58 62 0B 01 66  hot1[v.Xb..Xb..f
16E0: 64 30 30 BB A5 80 58 62  0B 01 58 62 0B 01 73 74  d00...Xb..Xb..st
16F0: 30 31 00 80 1C 26 80 52  5C 80 F0 FF FF 7F F0 FF  01...&.R\.......
1700: FF 7F 63 61 33 35 45 5C  80 F0 FF FF 7F F0 FF FF  ..ca35E\........
1710: 7F 63 61 33 36 00 80 1C  A6 80 1A 3B 28 1C 26 80  .ca36......;(.&.
1720: 29 10 58 62 0B 01 32 80  58 62 0B 01 D3 00 58 62  ).Xb..2.Xb....Xb
1730: 0B 01 6B 69 64 6C 30 58  62 0B 01 BB A5 80 58 62  ..kidl0Xb.....Xb
1740: 0B 01 58 62 0B 01 6B 69  6C 61 00 80 48 48 80 23  ..Xb..kila..HH.#
1750: 5B A7 80 58 62 0B 01 58  62 0B 01 65 31 30 31 52  [..Xb..Xb..e101R
1760: 5C 80 F0 FF FF 7F F0 FF  FF 7F 63 61 33 35 45 5C  \.........ca35E\
1770: 80 F0 FF FF 7F F0 FF FF  7F 63 61 34 31 00 80 1A  .........ca41...
1780: 1A 28 53 58 62 0B 01 58  62 0B 01 65 31 30 31 2B  .(SXb..Xb..e101+
1790: 58 62 0B 01 A8 80 23 52  5C 80 F0 FF FF 7F F0 FF  Xb....#R\.......
17A0: FF 7F 63 61 34 31 45 5C  80 F0 FF FF 7F F0 FF FF  ..ca41E\........
17B0: 7F 63 61 34 32 00 80 1C  13 80 7C 00 58 62 0B 01  .ca42.....|.Xb..
17C0: 2B 58 62 0B 01 A9 80 23  7C 01 58 62 0B 01 52 5C  +Xb....#|.Xb..R\
17D0: 80 F0 FF FF 7F F0 FF FF  7F 63 61 34 32 45 5C 80  .........ca42E\.
17E0: F0 FF FF 7F F0 FF FF 7F  63 61 34 33 00 80 81 00  ........ca43....
17F0: 58 62 0B 01 5B A7 80 58  62 0B 01 58 62 0B 01 6E  Xb..[..Xb..Xb..n
1800: 6F 62 69 1C 86 80 2B 58  62 0B 01 AA 80 23 53 58  obi...+Xb....#SX
1810: 62 0B 01 58 62 0B 01 6E  6F 62 69 81 01 58 62 0B  b..Xb..nobi..Xb.
1820: 01 5B 79 80 58 62 0B 01  58 62 0B 01 70 6E 74 30  .[y.Xb..Xb..pnt0
1830: 2B 58 62 0B 01 AB 80 1C  01 80 23 52 5C 80 F0 FF  +Xb.......#R\...
1840: FF 7F F0 FF FF 7F 63 61  34 33 45 5C 80 F0 FF FF  ......ca43E\....
1850: 7F F0 FF FF 7F 63 61 34  35 00 80 81 00 58 62 0B  .....ca45....Xb.
1860: 01 5B 76 80 58 62 0B 01  58 62 0B 01 66 63 30 30  .[v.Xb..Xb..fc00
1870: 2B 58 62 0B 01 AC 80 23  03 01 10 AD 80 01 FA 19  +Xb....#........
1880: 01 91 19 02 00 10 AD 80  00 91 19 52 5C 80 F0 FF  ...........R\...
1890: FF 7F F0 FF FF 7F 63 61  33 30 45 5C 80 F0 FF FF  ......ca30E\....
18A0: 7F F0 FF FF 7F 63 61 33  37 00 80 03 01 10 AE 80  .....ca37.......
18B0: 43 00 43 01 81 01 58 62  0B 01 5B 79 80 58 62 0B  C.C...Xb..[y.Xb.
18C0: 01 58 62 0B 01 68 6F 74  31 53 58 62 0B 01 58 62  .Xb..hot1SXb..Xb
18D0: 0B 01 68 6F 74 31 52 5C  80 F0 FF FF 7F F0 FF FF  ..hot1R\........
18E0: 7F 63 61 33 37 45 5C 80  F0 FF FF 7F F0 FF FF 7F  .ca37E\.........
18F0: 63 61 33 38 00 80 2B 58  62 0B 01 AF 80 23 5B 0D  ca38..+Xb....#[.
1900: 80 58 62 0B 01 58 62 0B  01 74 6C 6B 30 2B 58 62  .Xb..Xb..tlk0+Xb
1910: 0B 01 B0 80 23 52 5C 80  F0 FF FF 7F F0 FF FF 7F  ....#R\.........
1920: 63 61 33 38 45 5C 80 F0  FF FF 7F F0 FF FF 7F 63  ca38E\.........c
1930: 61 33 39 00 80 2B 58 62  0B 01 B1 80 23 5B 0D 80  a39..+Xb....#[..
1940: 58 62 0B 01 58 62 0B 01  74 6C 6B 31 1A F9 27 1C  Xb..Xb..tlk1..'.
1950: 13 80 52 5C 80 F0 FF FF  7F F0 FF FF 7F 63 61 33  ..R\.........ca3
1960: 39 48 48 80 23 81 00 58  62 0B 01 5B 79 80 58 62  9HH.#..Xb..[y.Xb
1970: 0B 01 58 62 0B 01 68 6F  74 30 45 46 80 F0 FF FF  ..Xb..hot0EF....
1980: 7F F0 FF FF 7F 66 64 69  32 00 80 01 23 13 01 91  .....fdi2...#...
1990: 19 5B 76 80 58 62 0B 01  58 62 0B 01 66 64 30 30  .[v.Xb..Xb..fd00
19A0: BB A5 80 58 62 0B 01 58  62 0B 01 73 74 30 31 00  ...Xb..Xb..st01.
19B0: 80 1C 26 80 52 5C 80 F0  FF FF 7F F0 FF FF 7F 63  ..&.R\.........c
19C0: 61 33 35 45 5C 80 F0 FF  FF 7F F0 FF FF 7F 63 61  a35E\.........ca
19D0: 33 36 00 80 1C A6 80 1A  3B 28 1C 26 80 BB A5 80  36......;(.&....
19E0: 58 62 0B 01 58 62 0B 01  6B 69 6C 61 00 80 29 10  Xb..Xb..kila..).
19F0: 58 62 0B 01 32 80 58 62  0B 01 1A F9 27 1A 1A 28  Xb..2.Xb....'..(
1A00: 1C 13 80 52 5C 80 F0 FF  FF 7F F0 FF FF 7F 63 61  ...R\.........ca
1A10: 33 36 52 5C 80 F0 FF FF  7F F0 FF FF 7F 63 61 34  36R\.........ca4
1A20: 35 45 5C 80 F0 FF FF 7F  F0 FF FF 7F 30 62 6C 66  5E\.........0blf
1A30: 00 80 2D F0 FF FF 7F F0  FF FF 7F 73 74 61 31 2D  ..-........sta1-
1A40: F0 FF FF 7F F0 FF FF 7F  73 74 61 32 2D F0 FF FF  ........sta2-...
1A50: 7F F0 FF FF 7F 73 74 61  33 2D F0 FF FF 7F F0 FF  .....sta3-......
1A60: FF 7F 73 74 61 34 D3 00  58 62 0B 01 6B 69 64 6C  ..sta4..Xb..kidl
1A70: 30 58 62 0B 01 BA F0 FF  FF 7F B2 80 B3 80 B4 80  0Xb.............
1A80: B5 80 BA 58 62 0B 01 B6  80 B7 80 B4 80 B8 80 1C  ...Xb...........
1A90: 13 80 48 48 80 23 45 5C  80 F0 FF FF 7F F0 FF FF  ..HH.#E\........
1AA0: 7F 63 61 34 37 00 80 1A  D8 27 1C B9 80 27 10 58  .ca47....'...'.X
1AB0: 62 0B 01 31 1C BA 80 27  10 F0 FF FF 7F 1B 52 5C  b..1...'......R\
1AC0: 80 F0 FF FF 7F F0 FF FF  7F 63 61 34 37 45 5C 80  .........ca47E\.
1AD0: F0 FF FF 7F F0 FF FF 7F  63 61 34 36 00 80 2A 10  ........ca46..*.
1AE0: 58 62 0B 01 52 5C 80 F0  FF FF 7F F0 FF FF 7F 63  Xb..R\.........c
1AF0: 61 34 36 45 5C 80 F0 FF  FF 7F F0 FF FF 7F 63 61  a46E\.........ca
1B00: 34 38 00 80 2B 58 62 0B  01 BB 80 23 4A 58 62 0B  48..+Xb....#JXb.
1B10: 01 F0 FF FF 7F 52 5C 80  F0 FF FF 7F F0 FF FF 7F  .....R\.........
1B20: 63 61 34 38 45 5C 80 F0  FF FF 7F F0 FF FF 7F 63  ca48E\.........c
1B30: 61 34 39 00 80 6F 76 58  62 0B 01 2B 58 62 0B 01  a49..ovXb..+Xb..
1B40: BC 80 23 81 00 58 62 0B  01 5B 79 80 58 62 0B 01  ..#..Xb..[y.Xb..
1B50: 58 62 0B 01 68 6F 74 30  1C 86 80 2B 58 62 0B 01  Xb..hot0...+Xb..
1B60: BD 80 23 52 5C 80 F0 FF  FF 7F F0 FF FF 7F 63 61  ..#R\.........ca
1B70: 34 39 45 5C 80 F0 FF FF  7F F0 FF FF 7F 63 61 35  49E\.........ca5
1B80: 30 00 80 2B 58 62 0B 01  BE 80 23 81 01 58 62 0B  0..+Xb....#..Xb.
1B90: 01 5B 79 80 58 62 0B 01  58 62 0B 01 68 6F 74 31  .[y.Xb..Xb..hot1
1BA0: 1C 86 80 2B 58 62 0B 01  BF 80 23 53 58 62 0B 01  ...+Xb....#SXb..
