# 17523346 - Lilisette

## Common Data

| Field            | Value                    |
|------------------|--------------------------|
| Zone             | Walk of Echoes (ID: 182) |
| Block Size       | 3124 bytes               |
| Total Events     | 146                      |
| References Count | 63                       |

## List of Events

| Event ID                     | Entrypoint   |   Size |   Instructions |
|------------------------------|--------------|--------|----------------|
| [65535](#event-65535)        | 0x0000       |      1 |              1 |
| [65535.1](#event-655351)     | 0x0001       |      1 |              1 |
| [65535.2](#event-655352)     | 0x0002       |     18 |              4 |
| [65535.3](#event-655353)     | 0x0014       |     10 |              2 |
| [65535.4](#event-655354)     | 0x001E       |      9 |              3 |
| [65535.5](#event-655355)     | 0x0027       |      9 |              3 |
| [65535.6](#event-655356)     | 0x0030       |     10 |              2 |
| [65535.7](#event-655357)     | 0x003A       |     10 |              2 |
| [65535.8](#event-655358)     | 0x0044       |     10 |              2 |
| [32000](#event-32000)        | 0x004E       |      1 |              1 |
| [123](#event-123)            | 0x004F       |      1 |              1 |
| [124](#event-124)            | 0x0050       |      1 |              1 |
| [125](#event-125)            | 0x0051       |      1 |              1 |
| [127](#event-127)            | 0x0052       |      1 |              1 |
| [65535.9](#event-655359)     | 0x0053       |     14 |              4 |
| [65535.10](#event-6553510)   | 0x0061       |     14 |              4 |
| [65535.11](#event-6553511)   | 0x006F       |     14 |              4 |
| [65535.12](#event-6553512)   | 0x007D       |     10 |              2 |
| [65535.13](#event-6553513)   | 0x0087       |     10 |              2 |
| [65535.14](#event-6553514)   | 0x0091       |     32 |              6 |
| [65535.15](#event-6553515)   | 0x00B1       |     14 |              4 |
| [65535.16](#event-6553516)   | 0x00BF       |     10 |              2 |
| [65535.17](#event-6553517)   | 0x00C9       |     32 |              8 |
| [65535.18](#event-6553518)   | 0x00E9       |      3 |              2 |
| [65535.19](#event-6553519)   | 0x00EC       |     10 |              2 |
| [65535.20](#event-6553520)   | 0x00F6       |      3 |              2 |
| [65535.21](#event-6553521)   | 0x00F9       |     19 |              2 |
| [65535.22](#event-6553522)   | 0x010C       |     15 |              2 |
| [65535.23](#event-6553523)   | 0x011B       |     19 |              2 |
| [65535.24](#event-6553524)   | 0x012E       |     15 |              2 |
| [65535.25](#event-6553525)   | 0x013D       |     16 |              2 |
| [65535.26](#event-6553526)   | 0x014D       |     14 |              2 |
| [65535.27](#event-6553527)   | 0x015B       |     31 |              4 |
| [65535.28](#event-6553528)   | 0x017A       |     15 |              2 |
| [65535.29](#event-6553529)   | 0x0189       |     16 |              2 |
| [65535.30](#event-6553530)   | 0x0199       |     14 |              2 |
| [65535.31](#event-6553531)   | 0x01A7       |     19 |              2 |
| [65535.32](#event-6553532)   | 0x01BA       |     15 |              2 |
| [65535.33](#event-6553533)   | 0x01C9       |     16 |              2 |
| [65535.34](#event-6553534)   | 0x01D9       |     26 |              4 |
| [65535.35](#event-6553535)   | 0x01F3       |     19 |              2 |
| [65535.36](#event-6553536)   | 0x0206       |     15 |              2 |
| [65535.37](#event-6553537)   | 0x0215       |     16 |              2 |
| [65535.38](#event-6553538)   | 0x0225       |     14 |              2 |
| [65535.39](#event-6553539)   | 0x0233       |     19 |              2 |
| [65535.40](#event-6553540)   | 0x0246       |     15 |              2 |
| [65535.41](#event-6553541)   | 0x0255       |     16 |              2 |
| [65535.42](#event-6553542)   | 0x0265       |     14 |              2 |
| [65535.43](#event-6553543)   | 0x0273       |     16 |              2 |
| [65535.44](#event-6553544)   | 0x0283       |     14 |              2 |
| [65535.45](#event-6553545)   | 0x0291       |     28 |              4 |
| [65535.46](#event-6553546)   | 0x02AD       |     14 |              2 |
| [65535.47](#event-6553547)   | 0x02BB       |     16 |              2 |
| [65535.48](#event-6553548)   | 0x02CB       |     26 |              4 |
| [65535.49](#event-6553549)   | 0x02E5       |     19 |              2 |
| [65535.50](#event-6553550)   | 0x02F8       |     15 |              2 |
| [65535.51](#event-6553551)   | 0x0307       |     16 |              2 |
| [65535.52](#event-6553552)   | 0x0317       |     14 |              2 |
| [65535.53](#event-6553553)   | 0x0325       |     19 |              2 |
| [65535.54](#event-6553554)   | 0x0338       |     15 |              2 |
| [65535.55](#event-6553555)   | 0x0347       |     16 |              2 |
| [65535.56](#event-6553556)   | 0x0357       |     14 |              2 |
| [65535.57](#event-6553557)   | 0x0365       |     16 |              2 |
| [65535.58](#event-6553558)   | 0x0375       |     14 |              2 |
| [65535.59](#event-6553559)   | 0x0383       |     19 |              2 |
| [65535.60](#event-6553560)   | 0x0396       |     15 |              2 |
| [65535.61](#event-6553561)   | 0x03A5       |     16 |              2 |
| [65535.62](#event-6553562)   | 0x03B5       |     14 |              2 |
| [65535.63](#event-6553563)   | 0x03C3       |     16 |              2 |
| [65535.64](#event-6553564)   | 0x03D3       |     14 |              2 |
| [65535.65](#event-6553565)   | 0x03E1       |     19 |              2 |
| [65535.66](#event-6553566)   | 0x03F4       |     15 |              2 |
| [65535.67](#event-6553567)   | 0x0403       |     16 |              2 |
| [65535.68](#event-6553568)   | 0x0413       |     14 |              2 |
| [65535.69](#event-6553569)   | 0x0421       |     19 |              2 |
| [65535.70](#event-6553570)   | 0x0434       |     15 |              2 |
| [65535.71](#event-6553571)   | 0x0443       |     16 |              2 |
| [65535.72](#event-6553572)   | 0x0453       |     14 |              2 |
| [65535.73](#event-6553573)   | 0x0461       |     19 |              2 |
| [65535.74](#event-6553574)   | 0x0474       |     15 |              2 |
| [65535.75](#event-6553575)   | 0x0483       |     16 |              2 |
| [65535.76](#event-6553576)   | 0x0493       |     14 |              2 |
| [65535.77](#event-6553577)   | 0x04A1       |     19 |              2 |
| [65535.78](#event-6553578)   | 0x04B4       |     15 |              2 |
| [65535.79](#event-6553579)   | 0x04C3       |     16 |              2 |
| [65535.80](#event-6553580)   | 0x04D3       |     14 |              2 |
| [65535.81](#event-6553581)   | 0x04E1       |     19 |              2 |
| [65535.82](#event-6553582)   | 0x04F4       |     15 |              2 |
| [65535.83](#event-6553583)   | 0x0503       |     16 |              2 |
| [65535.84](#event-6553584)   | 0x0513       |     14 |              2 |
| [65535.85](#event-6553585)   | 0x0521       |     19 |              2 |
| [65535.86](#event-6553586)   | 0x0534       |     15 |              2 |
| [65535.87](#event-6553587)   | 0x0543       |     16 |              2 |
| [65535.88](#event-6553588)   | 0x0553       |     14 |              2 |
| [65535.89](#event-6553589)   | 0x0561       |     19 |              2 |
| [65535.90](#event-6553590)   | 0x0574       |     15 |              2 |
| [65535.91](#event-6553591)   | 0x0583       |     16 |              2 |
| [65535.92](#event-6553592)   | 0x0593       |     14 |              2 |
| [65535.93](#event-6553593)   | 0x05A1       |     19 |              3 |
| [65535.94](#event-6553594)   | 0x05B4       |     28 |              4 |
| [65535.95](#event-6553595)   | 0x05D0       |     14 |              2 |
| [65535.96](#event-6553596)   | 0x05DE       |     19 |              2 |
| [65535.97](#event-6553597)   | 0x05F1       |     15 |              2 |
| [65535.98](#event-6553598)   | 0x0600       |     16 |              2 |
| [65535.99](#event-6553599)   | 0x0610       |     14 |              2 |
| [65535.100](#event-65535100) | 0x061E       |     25 |              3 |
| [65535.101](#event-65535101) | 0x0637       |     15 |              2 |
| [65535.102](#event-65535102) | 0x0646       |     16 |              2 |
| [65535.103](#event-65535103) | 0x0656       |     20 |              3 |
| [65535.104](#event-65535104) | 0x066A       |     16 |              2 |
| [65535.105](#event-65535105) | 0x067A       |     14 |              2 |
| [65535.106](#event-65535106) | 0x0688       |     28 |              4 |
| [65535.107](#event-65535107) | 0x06A4       |     26 |              4 |
| [65535.108](#event-65535108) | 0x06BE       |     19 |              2 |
| [65535.109](#event-65535109) | 0x06D1       |     15 |              2 |
| [65535.110](#event-65535110) | 0x06E0       |     16 |              2 |
| [65535.111](#event-65535111) | 0x06F0       |     14 |              2 |
| [65535.112](#event-65535112) | 0x06FE       |     19 |              2 |
| [65535.113](#event-65535113) | 0x0711       |     15 |              2 |
| [65535.114](#event-65535114) | 0x0720       |     16 |              2 |
| [65535.115](#event-65535115) | 0x0730       |     14 |              2 |
| [65535.116](#event-65535116) | 0x073E       |     31 |              4 |
| [65535.117](#event-65535117) | 0x075D       |     15 |              2 |
| [65535.118](#event-65535118) | 0x076C       |     19 |              2 |
| [65535.119](#event-65535119) | 0x077F       |     15 |              2 |
| [65535.120](#event-65535120) | 0x078E       |     19 |              2 |
| [65535.121](#event-65535121) | 0x07A1       |     15 |              2 |
| [65535.122](#event-65535122) | 0x07B0       |     19 |              2 |
| [65535.123](#event-65535123) | 0x07C3       |     15 |              2 |
| [65535.124](#event-65535124) | 0x07D2       |     16 |              2 |
| [65535.125](#event-65535125) | 0x07E2       |     14 |              2 |
| [65535.126](#event-65535126) | 0x07F0       |     16 |              2 |
| [65535.127](#event-65535127) | 0x0800       |     14 |              2 |
| [65535.128](#event-65535128) | 0x080E       |     19 |              2 |
| [65535.129](#event-65535129) | 0x0821       |     15 |              2 |
| [65535.130](#event-65535130) | 0x0830       |     16 |              2 |
| [65535.131](#event-65535131) | 0x0840       |     14 |              2 |
| [65535.132](#event-65535132) | 0x084E       |     16 |              2 |
| [65535.133](#event-65535133) | 0x085E       |     14 |              2 |
| [65535.134](#event-65535134) | 0x086C       |     21 |              3 |
| [65535.135](#event-65535135) | 0x0881       |     15 |              2 |
| [65535.136](#event-65535136) | 0x0890       |     16 |              2 |
| [65535.137](#event-65535137) | 0x08A0       |     14 |              2 |
| [65535.138](#event-65535138) | 0x08AE       |     19 |              2 |
| [65535.139](#event-65535139) | 0x08C1       |     15 |              2 |
| [65535.140](#event-65535140) | 0x08D0       |     15 |              5 |

## DAT References (imed_data)

|   Index | Hex Value   |   Dec Value |
|---------|-------------|-------------|
|       0 | 0x0000      |           0 |
|       1 | 0x0001      |           1 |
|       2 | 0x0080      |         128 |
|       3 | 0x0046      |          70 |
|       4 | 0x0078      |         120 |
|       5 | 0x000D      |          13 |
|       6 | 0xFFF55195  |  4294267285 |
|       7 | 0xFFFE80A4  |  4294869156 |
|       8 | 0xFFFF9DDB  |  4294942171 |
|       9 | 0xFFFE848C  |  4294870156 |
|      10 | 0xFFFE8234  |  4294869556 |
|      11 | 0xFFFFFC00  |  4294966272 |
|      12 | 0xFFF55171  |  4294267249 |
|      13 | 0xFFFDB016  |  4294815766 |
|      14 | 0xFFFFCE1F  |  4294954527 |
|      15 | 0x0C1A      |        3098 |
|      16 | 0x0028      |          40 |
|      17 | 0xFFFDC39E  |  4294820766 |
|      18 | 0x001E      |          30 |
|      19 | 0x0854      |        2132 |
|      20 | 0xFFF52FFA  |  4294258682 |
|      21 | 0xFFFDE7C1  |  4294830017 |
|      22 | 0xFFF552B3  |  4294267571 |
|      23 | 0xFFFB1F85  |  4294647685 |
|      24 | 0xFFFFB9B1  |  4294949297 |
|      25 | 0x03D5      |         981 |
|      26 | 0xFFF55238  |  4294267448 |
|      27 | 0xFFFB04E3  |  4294640867 |
|      28 | 0xFFFFBB40  |  4294949696 |
|      29 | 0x00C8      |         200 |
|      30 | 0x085F      |        2143 |
|      31 | 0x010E      |         270 |
|      32 | 0x0050      |          80 |
|      33 | 0x08C5      |        2245 |
|      34 | 0x0096      |         150 |
|      35 | 0x08C6      |        2246 |
|      36 | 0x01CC      |         460 |
|      37 | 0x0B18      |        2840 |
|      38 | 0x0C23      |        3107 |
|      39 | 0x0850      |        2128 |
|      40 | 0x0082      |         130 |
|      41 | 0x008C      |         140 |
|      42 | 0x005A      |          90 |
|      43 | 0x0064      |         100 |
|      44 | 0x0855      |        2133 |
|      45 | 0x0856      |        2134 |
|      46 | 0x0104      |         260 |
|      47 | 0x00AA      |         170 |
|      48 | 0x00A5      |         165 |
|      49 | 0x0859      |        2137 |
|      50 | 0x085B      |        2139 |
|      51 | 0x08C1      |        2241 |
|      52 | 0x08C4      |        2244 |
|      53 | 0x00DC      |         220 |
|      54 | 0x00A0      |         160 |
|      55 | 0x08C7      |        2247 |
|      56 | 0x09E3      |        2531 |
|      57 | 0x09E4      |        2532 |
|      58 | 0x00B4      |         180 |
|      59 | 0x08C9      |        2249 |
|      60 | 0x0AEB      |        2795 |
|      61 | 0xFFF55222  |  4294267426 |
|      62 | 0xFFFABED2  |  4294622930 |

## Events

### Event 65535

#### Metadata

| Field        | Value   |
|--------------|---------|
| Entrypoint   | 0x0000  |
| Data Size    | 1 bytes |
| Instructions | 1       |

```
      00 01 02 03 04 05 06 07  08 09 0A 0B 0C 0D 0E 0F
      -- -- -- -- -- -- -- --  -- -- -- -- -- -- -- --
0000: 00                                                .               
```

#### Opcodes

```
  0: 0x0000 [0x00] END_REQSTACK()
```

### Event 65535.1

#### Metadata

| Field        | Value   |
|--------------|---------|
| Entrypoint   | 0x0001  |
| Data Size    | 1 bytes |
| Instructions | 1       |

```
      00 01 02 03 04 05 06 07  08 09 0A 0B 0C 0D 0E 0F
      -- -- -- -- -- -- -- --  -- -- -- -- -- -- -- --
0000:    00                                              .              
```

#### Opcodes

```
  0: 0x0001 [0x00] END_REQSTACK()
```

### Event 65535.2

#### Metadata

| Field        | Value    |
|--------------|----------|
| Entrypoint   | 0x0002   |
| Data Size    | 18 bytes |
| Instructions | 4        |

```
      00 01 02 03 04 05 06 07  08 09 0A 0B 0C 0D 0E 0F
      -- -- -- -- -- -- -- --  -- -- -- -- -- -- -- --
0000:       22 00 2F 00 F8 FF  FF 7F 6C F8 FF FF 7F 00    "./.....l.....
0010: 80 01 80 00                                       ....            
```

#### Opcodes

```
  0: 0x0002 [0x22] ENTITY_HIDE_FLAG(enabled=0x00)
  1: 0x0004 [0x2F] EventEntity->Render.Flags0 &= ~0x80000 // Bit 19
  2: 0x000A [0x6C] FADE_ENTITY_COLOR(entity_id=EventEntity, end_alpha=0*, fade_time=1*)
  3: 0x0013 [0x00] END_REQSTACK()
```

### Event 65535.3

#### Metadata

| Field        | Value    |
|--------------|----------|
| Entrypoint   | 0x0014   |
| Data Size    | 10 bytes |
| Instructions | 2        |

```
      00 01 02 03 04 05 06 07  08 09 0A 0B 0C 0D 0E 0F
      -- -- -- -- -- -- -- --  -- -- -- -- -- -- -- --
0010:             6C F8 FF FF  7F 02 80 01 80 00            l.........  
```

#### Opcodes

```
  0: 0x0014 [0x6C] FADE_ENTITY_COLOR(entity_id=EventEntity, end_alpha=128*, fade_time=1*)
  1: 0x001D [0x00] END_REQSTACK()
```

### Event 65535.4

#### Metadata

| Field        | Value   |
|--------------|---------|
| Entrypoint   | 0x001E  |
| Data Size    | 9 bytes |
| Instructions | 3       |

```
      00 01 02 03 04 05 06 07  08 09 0A 0B 0C 0D 0E 0F
      -- -- -- -- -- -- -- --  -- -- -- -- -- -- -- --
0010:                                            22 00                ".
0020: 2F 00 F8 FF FF 7F 00                              /......         
```

#### Opcodes

```
  0: 0x001E [0x22] ENTITY_HIDE_FLAG(enabled=0x00)
  1: 0x0020 [0x2F] EventEntity->Render.Flags0 &= ~0x80000 // Bit 19
  2: 0x0026 [0x00] END_REQSTACK()
```

### Event 65535.5

#### Metadata

| Field        | Value   |
|--------------|---------|
| Entrypoint   | 0x0027  |
| Data Size    | 9 bytes |
| Instructions | 3       |

```
      00 01 02 03 04 05 06 07  08 09 0A 0B 0C 0D 0E 0F
      -- -- -- -- -- -- -- --  -- -- -- -- -- -- -- --
0020:                      22  01 2F 01 F8 FF FF 7F 00         "./......
```

#### Opcodes

```
  0: 0x0027 [0x22] ENTITY_HIDE_FLAG(enabled=0x01)
  1: 0x0029 [0x2F] EventEntity->Render.Flags0 |= 0x80000 // Bit 19
  2: 0x002F [0x00] END_REQSTACK()
```

### Event 65535.6

#### Metadata

| Field        | Value    |
|--------------|----------|
| Entrypoint   | 0x0030   |
| Data Size    | 10 bytes |
| Instructions | 2        |

```
      00 01 02 03 04 05 06 07  08 09 0A 0B 0C 0D 0E 0F
      -- -- -- -- -- -- -- --  -- -- -- -- -- -- -- --
0030: 6C F8 FF FF 7F 00 80 01  80 00                    l.........      
```

#### Opcodes

```
  0: 0x0030 [0x6C] FADE_ENTITY_COLOR(entity_id=EventEntity, end_alpha=0*, fade_time=1*)
  1: 0x0039 [0x00] END_REQSTACK()
```

### Event 65535.7

#### Metadata

| Field        | Value    |
|--------------|----------|
| Entrypoint   | 0x003A   |
| Data Size    | 10 bytes |
| Instructions | 2        |

```
      00 01 02 03 04 05 06 07  08 09 0A 0B 0C 0D 0E 0F
      -- -- -- -- -- -- -- --  -- -- -- -- -- -- -- --
0030:                                6C F8 FF FF 7F 02            l.....
0040: 80 01 80 00                                       ....            
```

#### Opcodes

```
  0: 0x003A [0x6C] FADE_ENTITY_COLOR(entity_id=EventEntity, end_alpha=128*, fade_time=1*)
  1: 0x0043 [0x00] END_REQSTACK()
```

### Event 65535.8

#### Metadata

| Field        | Value    |
|--------------|----------|
| Entrypoint   | 0x0044   |
| Data Size    | 10 bytes |
| Instructions | 2        |

```
      00 01 02 03 04 05 06 07  08 09 0A 0B 0C 0D 0E 0F
      -- -- -- -- -- -- -- --  -- -- -- -- -- -- -- --
0040:             6C 92 62 0B  01 03 80 04 80 00            l.b.......  
```

#### Opcodes

```
  0: 0x0044 [0x6C] FADE_ENTITY_COLOR(entity_id=Lilisette (ID: 17523346/0x010B6292), end_alpha=70*, fade_time=120*)
  1: 0x004D [0x00] END_REQSTACK()
```

### Event 32000

#### Metadata

| Field        | Value   |
|--------------|---------|
| Entrypoint   | 0x004E  |
| Data Size    | 1 bytes |
| Instructions | 1       |

```
      00 01 02 03 04 05 06 07  08 09 0A 0B 0C 0D 0E 0F
      -- -- -- -- -- -- -- --  -- -- -- -- -- -- -- --
0040:                                            00                   . 
```

#### Opcodes

```
  0: 0x004E [0x00] END_REQSTACK()
```

### Event 123

#### Metadata

| Field        | Value   |
|--------------|---------|
| Entrypoint   | 0x004F  |
| Data Size    | 1 bytes |
| Instructions | 1       |

```
      00 01 02 03 04 05 06 07  08 09 0A 0B 0C 0D 0E 0F
      -- -- -- -- -- -- -- --  -- -- -- -- -- -- -- --
0040:                                               00                 .
```

#### Opcodes

```
  0: 0x004F [0x00] END_REQSTACK()
```

### Event 124

#### Metadata

| Field        | Value   |
|--------------|---------|
| Entrypoint   | 0x0050  |
| Data Size    | 1 bytes |
| Instructions | 1       |

```
      00 01 02 03 04 05 06 07  08 09 0A 0B 0C 0D 0E 0F
      -- -- -- -- -- -- -- --  -- -- -- -- -- -- -- --
0050: 00                                                .               
```

#### Opcodes

```
  0: 0x0050 [0x00] END_REQSTACK()
```

### Event 125

#### Metadata

| Field        | Value   |
|--------------|---------|
| Entrypoint   | 0x0051  |
| Data Size    | 1 bytes |
| Instructions | 1       |

```
      00 01 02 03 04 05 06 07  08 09 0A 0B 0C 0D 0E 0F
      -- -- -- -- -- -- -- --  -- -- -- -- -- -- -- --
0050:    00                                              .              
```

#### Opcodes

```
  0: 0x0051 [0x00] END_REQSTACK()
```

### Event 127

#### Metadata

| Field        | Value   |
|--------------|---------|
| Entrypoint   | 0x0052  |
| Data Size    | 1 bytes |
| Instructions | 1       |

```
      00 01 02 03 04 05 06 07  08 09 0A 0B 0C 0D 0E 0F
      -- -- -- -- -- -- -- --  -- -- -- -- -- -- -- --
0050:       00                                            .             
```

#### Opcodes

```
  0: 0x0052 [0x00] END_REQSTACK()
```

### Event 65535.9

#### Metadata

| Field        | Value    |
|--------------|----------|
| Entrypoint   | 0x0053   |
| Data Size    | 14 bytes |
| Instructions | 4        |

```
      00 01 02 03 04 05 06 07  08 09 0A 0B 0C 0D 0E 0F
      -- -- -- -- -- -- -- --  -- -- -- -- -- -- -- --
0050:          32 05 80 1F 00  06 80 07 80 08 80 1F 01     2............
0060: 00                                                .               
```

#### Opcodes

```
  0: 0x0053 [0x32] ExtData[1]->MainSpeed = 13* * 0.1
  1: 0x0056 [0x1F] MOVE_ENTITY: EventEntity moves to X=-700.011*, Z=-98.140*, Y=-25.125*
  2: 0x005E [0x1F] MOVE_ENTITY: Update entity position (mode=1)
  3: 0x0060 [0x00] END_REQSTACK()
```

### Event 65535.10

#### Metadata

| Field        | Value    |
|--------------|----------|
| Entrypoint   | 0x0061   |
| Data Size    | 14 bytes |
| Instructions | 4        |

```
      00 01 02 03 04 05 06 07  08 09 0A 0B 0C 0D 0E 0F
      -- -- -- -- -- -- -- --  -- -- -- -- -- -- -- --
0060:    32 05 80 1F 00 06 80  09 80 08 80 1F 01 00      2............. 
```

#### Opcodes

```
  0: 0x0061 [0x32] ExtData[1]->MainSpeed = 13* * 0.1
  1: 0x0064 [0x1F] MOVE_ENTITY: EventEntity moves to X=-700.011*, Z=-97.140*, Y=-25.125*
  2: 0x006C [0x1F] MOVE_ENTITY: Update entity position (mode=1)
  3: 0x006E [0x00] END_REQSTACK()
```

### Event 65535.11

#### Metadata

| Field        | Value    |
|--------------|----------|
| Entrypoint   | 0x006F   |
| Data Size    | 14 bytes |
| Instructions | 4        |

```
      00 01 02 03 04 05 06 07  08 09 0A 0B 0C 0D 0E 0F
      -- -- -- -- -- -- -- --  -- -- -- -- -- -- -- --
0060:                                               32                 2
0070: 05 80 1F 00 06 80 0A 80  08 80 1F 01 00           .............   
```

#### Opcodes

```
  0: 0x006F [0x32] ExtData[1]->MainSpeed = 13* * 0.1
  1: 0x0072 [0x1F] MOVE_ENTITY: EventEntity moves to X=-700.011*, Z=-97.740*, Y=-25.125*
  2: 0x007A [0x1F] MOVE_ENTITY: Update entity position (mode=1)
  3: 0x007C [0x00] END_REQSTACK()
```

### Event 65535.12

#### Metadata

| Field        | Value    |
|--------------|----------|
| Entrypoint   | 0x007D   |
| Data Size    | 10 bytes |
| Instructions | 2        |

```
      00 01 02 03 04 05 06 07  08 09 0A 0B 0C 0D 0E 0F
      -- -- -- -- -- -- -- --  -- -- -- -- -- -- -- --
0070:                                         37 06 80               7..
0080: 0A 80 08 80 0B 80 00                              .......         
```

#### Opcodes

```
  0: 0x007D [0x37] UPDATE_EVENT_POSITION_AND_DIR: x=-700.011*, z=-97.740*, y=-25.125*, direction=377476129.2°*
  1: 0x0086 [0x00] END_REQSTACK()
```

### Event 65535.13

#### Metadata

| Field        | Value    |
|--------------|----------|
| Entrypoint   | 0x0087   |
| Data Size    | 10 bytes |
| Instructions | 2        |

```
      00 01 02 03 04 05 06 07  08 09 0A 0B 0C 0D 0E 0F
      -- -- -- -- -- -- -- --  -- -- -- -- -- -- -- --
0080:                      37  0C 80 0D 80 0E 80 0F 80         7........
0090: 00                                                .               
```

#### Opcodes

```
  0: 0x0087 [0x37] UPDATE_EVENT_POSITION_AND_DIR: x=-700.047*, z=-151.530*, y=-12.769*, direction=272.3°*
  1: 0x0090 [0x00] END_REQSTACK()
```

### Event 65535.14

#### Metadata

| Field        | Value    |
|--------------|----------|
| Entrypoint   | 0x0091   |
| Data Size    | 32 bytes |
| Instructions | 6        |

```
      00 01 02 03 04 05 06 07  08 09 0A 0B 0C 0D 0E 0F
      -- -- -- -- -- -- -- --  -- -- -- -- -- -- -- --
0090:    32 10 80 1F 00 0C 80  11 80 0E 80 1F 01 1C 12   2..............
00A0: 80 5B 13 80 92 62 0B 01  92 62 0B 01 74 6C 63 30  .[...b...b..tlc0
00B0: 00                                                .               
```

#### Opcodes

```
  0: 0x0091 [0x32] ExtData[1]->MainSpeed = 40* * 0.1
  1: 0x0094 [0x1F] MOVE_ENTITY: EventEntity moves to X=-700.047*, Z=-146.530*, Y=-12.769*
  2: 0x009C [0x1F] MOVE_ENTITY: Update entity position (mode=1)
  3: 0x009E [0x1C] WAIT(30* ticks)
  4: 0x00A1 [0x5B] LOAD_EXT_SCHEDULER: Load scheduler "tlc0" with entities [Lilisette (ID: 17523346/0x010B6292), Lilisette (ID: 17523346/0x010B6292)], work=2132*
  5: 0x00B0 [0x00] END_REQSTACK()
```

### Event 65535.15

#### Metadata

| Field        | Value    |
|--------------|----------|
| Entrypoint   | 0x00B1   |
| Data Size    | 14 bytes |
| Instructions | 4        |

```
      00 01 02 03 04 05 06 07  08 09 0A 0B 0C 0D 0E 0F
      -- -- -- -- -- -- -- --  -- -- -- -- -- -- -- --
00B0:    32 10 80 1F 00 14 80  15 80 0E 80 1F 01 00      2............. 
```

#### Opcodes

```
  0: 0x00B1 [0x32] ExtData[1]->MainSpeed = 40* * 0.1
  1: 0x00B4 [0x1F] MOVE_ENTITY: EventEntity moves to X=-708.614*, Z=-137.279*, Y=-12.769*
  2: 0x00BC [0x1F] MOVE_ENTITY: Update entity position (mode=1)
  3: 0x00BE [0x00] END_REQSTACK()
```

### Event 65535.16

#### Metadata

| Field        | Value    |
|--------------|----------|
| Entrypoint   | 0x00BF   |
| Data Size    | 10 bytes |
| Instructions | 2        |

```
      00 01 02 03 04 05 06 07  08 09 0A 0B 0C 0D 0E 0F
      -- -- -- -- -- -- -- --  -- -- -- -- -- -- -- --
00B0:                                               37                 7
00C0: 16 80 17 80 18 80 19 80  00                       .........       
```

#### Opcodes

```
  0: 0x00BF [0x37] UPDATE_EVENT_POSITION_AND_DIR: x=-699.725*, z=-319.611*, y=-17.999*, direction=86.2°*
  1: 0x00C8 [0x00] END_REQSTACK()
```

### Event 65535.17

#### Metadata

| Field        | Value    |
|--------------|----------|
| Entrypoint   | 0x00C9   |
| Data Size    | 32 bytes |
| Instructions | 8        |

```
      00 01 02 03 04 05 06 07  08 09 0A 0B 0C 0D 0E 0F
      -- -- -- -- -- -- -- --  -- -- -- -- -- -- -- --
00C0:                             32 05 80 1F 00 1A 80           2......
00D0: 1B 80 1C 80 1F 01 1C 12  80 4A F8 FF FF 7F F0 FF  .........J......
00E0: FF 7F 6F 76 F8 FF FF 7F  00                       ..ov.....       
```

#### Opcodes

```
  0: 0x00C9 [0x32] ExtData[1]->MainSpeed = 13* * 0.1
  1: 0x00CC [0x1F] MOVE_ENTITY: EventEntity moves to X=-699.848*, Z=-326.429*, Y=-17.600*
  2: 0x00D4 [0x1F] MOVE_ENTITY: Update entity position (mode=1)
  3: 0x00D6 [0x1C] WAIT(30* ticks)
  4: 0x00D9 [0x4A] EventEntity looks at LocalPlayer
  5: 0x00E2 [0x6F] WAIT_FRAME_DELAY: Yield until WaitTime reaches zero
  6: 0x00E3 [0x76] CHECK_ENTITY_RENDER_FLAGS: Wait until EventEntity Render.Flags0 and Render.Flags3 conditions are met
  7: 0x00E8 [0x00] END_REQSTACK()
```

### Event 65535.18

#### Metadata

| Field        | Value   |
|--------------|---------|
| Entrypoint   | 0x00E9  |
| Data Size    | 3 bytes |
| Instructions | 2       |

```
      00 01 02 03 04 05 06 07  08 09 0A 0B 0C 0D 0E 0F
      -- -- -- -- -- -- -- --  -- -- -- -- -- -- -- --
00E0:                             A4 00 00                       ...    
```

#### Opcodes

```
  0: 0x00E9 [0xA4] EventEntity->Flags3.unknown_3_2 = 0
  1: 0x00EB [0x00] END_REQSTACK()
```

### Event 65535.19

#### Metadata

| Field        | Value    |
|--------------|----------|
| Entrypoint   | 0x00EC   |
| Data Size    | 10 bytes |
| Instructions | 2        |

```
      00 01 02 03 04 05 06 07  08 09 0A 0B 0C 0D 0E 0F
      -- -- -- -- -- -- -- --  -- -- -- -- -- -- -- --
00E0:                                      6C F8 FF FF              l...
00F0: 7F 00 80 1D 80 00                                 ......          
```

#### Opcodes

```
  0: 0x00EC [0x6C] FADE_ENTITY_COLOR(entity_id=EventEntity, end_alpha=0*, fade_time=200*)
  1: 0x00F5 [0x00] END_REQSTACK()
```

### Event 65535.20

#### Metadata

| Field        | Value   |
|--------------|---------|
| Entrypoint   | 0x00F6  |
| Data Size    | 3 bytes |
| Instructions | 2       |

```
      00 01 02 03 04 05 06 07  08 09 0A 0B 0C 0D 0E 0F
      -- -- -- -- -- -- -- --  -- -- -- -- -- -- -- --
00F0:                   A5 00  00                             ...       
```

#### Opcodes

```
  0: 0x00F6 [0xA5] EventEntity->Flags3.BallistaTeam &= ~0x08  // Clear bit 3 of BallistaTeam
  1: 0x00F8 [0x00] END_REQSTACK()
```

### Event 65535.21

#### Metadata

| Field        | Value    |
|--------------|----------|
| Entrypoint   | 0x00F9   |
| Data Size    | 19 bytes |
| Instructions | 2        |

```
      00 01 02 03 04 05 06 07  08 09 0A 0B 0C 0D 0E 0F
      -- -- -- -- -- -- -- --  -- -- -- -- -- -- -- --
00F0:                             5F 05 1E 80 F8 FF FF           _......
0100: 7F F8 FF FF 7F 6B 6E 66  33 1F 80 00              .....knf3...    
```

#### Opcodes

```
  0: 0x00F9 [0x5F] MULTI_HANDLER_COMPLEX(mode=0x05 - Load ext scheduler with flag (OpCode 0x5B mode 0, flag 1), ref=2143*, entity1=EventEntity, entity2=EventEntity, string="knf3", extra=270*)
  1: 0x010B [0x00] END_REQSTACK()
```

### Event 65535.22

#### Metadata

| Field        | Value    |
|--------------|----------|
| Entrypoint   | 0x010C   |
| Data Size    | 15 bytes |
| Instructions | 2        |

```
      00 01 02 03 04 05 06 07  08 09 0A 0B 0C 0D 0E 0F
      -- -- -- -- -- -- -- --  -- -- -- -- -- -- -- --
0100:                                      5F 07 F8 FF              _...
0110: FF 7F F8 FF FF 7F 6B 6E  66 33 00                 ......knf3.     
```

#### Opcodes

```
  0: 0x010C [0x5F] MULTI_HANDLER_COMPLEX(mode=0x07 - Wait scheduler task (OpCode 0x53))
  1: 0x011A [0x00] END_REQSTACK()
```

### Event 65535.23

#### Metadata

| Field        | Value    |
|--------------|----------|
| Entrypoint   | 0x011B   |
| Data Size    | 19 bytes |
| Instructions | 2        |

```
      00 01 02 03 04 05 06 07  08 09 0A 0B 0C 0D 0E 0F
      -- -- -- -- -- -- -- --  -- -- -- -- -- -- -- --
0110:                                   5F 05 1E 80 F8             _....
0120: FF FF 7F F8 FF FF 7F 6B  6E 66 34 20 80 00        .......knf4 ..  
```

#### Opcodes

```
  0: 0x011B [0x5F] MULTI_HANDLER_COMPLEX(mode=0x05 - Load ext scheduler with flag (OpCode 0x5B mode 0, flag 1), ref=2143*, entity1=EventEntity, entity2=EventEntity, string="knf4", extra=80*)
  1: 0x012D [0x00] END_REQSTACK()
```

### Event 65535.24

#### Metadata

| Field        | Value    |
|--------------|----------|
| Entrypoint   | 0x012E   |
| Data Size    | 15 bytes |
| Instructions | 2        |

```
      00 01 02 03 04 05 06 07  08 09 0A 0B 0C 0D 0E 0F
      -- -- -- -- -- -- -- --  -- -- -- -- -- -- -- --
0120:                                            5F 07                _.
0130: F8 FF FF 7F F8 FF FF 7F  6B 6E 66 34 00           ........knf4.   
```

#### Opcodes

```
  0: 0x012E [0x5F] MULTI_HANDLER_COMPLEX(mode=0x07 - Wait scheduler task (OpCode 0x53))
  1: 0x013C [0x00] END_REQSTACK()
```

### Event 65535.25

#### Metadata

| Field        | Value    |
|--------------|----------|
| Entrypoint   | 0x013D   |
| Data Size    | 16 bytes |
| Instructions | 2        |

```
      00 01 02 03 04 05 06 07  08 09 0A 0B 0C 0D 0E 0F
      -- -- -- -- -- -- -- --  -- -- -- -- -- -- -- --
0130:                                         5B 1E 80               [..
0140: F8 FF FF 7F F8 FF FF 7F  6B 6E 66 6C 00           ........knfl.   
```

#### Opcodes

```
  0: 0x013D [0x5B] LOAD_EXT_SCHEDULER: Load scheduler "knfl" with entities [EventEntity, EventEntity], work=2143*
  1: 0x014C [0x00] END_REQSTACK()
```

### Event 65535.26

#### Metadata

| Field        | Value    |
|--------------|----------|
| Entrypoint   | 0x014D   |
| Data Size    | 14 bytes |
| Instructions | 2        |

```
      00 01 02 03 04 05 06 07  08 09 0A 0B 0C 0D 0E 0F
      -- -- -- -- -- -- -- --  -- -- -- -- -- -- -- --
0140:                                         53 F8 FF               S..
0150: FF 7F F8 FF FF 7F 6B 6E  66 6C 00                 ......knfl.     
```

#### Opcodes

```
  0: 0x014D [0x53] WAIT_SCHEDULER_TASK: Wait for scheduler "knfl" with entities [EventEntity, EventEntity]
  1: 0x015A [0x00] END_REQSTACK()
```

### Event 65535.27

#### Metadata

| Field        | Value    |
|--------------|----------|
| Entrypoint   | 0x015B   |
| Data Size    | 31 bytes |
| Instructions | 4        |

```
      00 01 02 03 04 05 06 07  08 09 0A 0B 0C 0D 0E 0F
      -- -- -- -- -- -- -- --  -- -- -- -- -- -- -- --
0150:                                   81 00 F8 FF FF             .....
0160: 7F 7C 00 F8 FF FF 7F 5F  05 21 80 F8 FF FF 7F F8  .|....._.!......
0170: FF FF 7F 6B 69 61 30 22  80 00                    ...kia0"..      
```

#### Opcodes

```
  0: 0x015B [0x81] SET_ENTITY_BLINKING(blink_flag=0x00, entity=EventEntity)
  1: 0x0161 [0x7C] EventEntity->Render.Flags2 |= 0x00
  2: 0x0167 [0x5F] MULTI_HANDLER_COMPLEX(mode=0x05 - Load ext scheduler with flag (OpCode 0x5B mode 0, flag 1), ref=2245*, entity1=EventEntity, entity2=EventEntity, string="kia0", extra=150*)
  3: 0x0179 [0x00] END_REQSTACK()
```

### Event 65535.28

#### Metadata

| Field        | Value    |
|--------------|----------|
| Entrypoint   | 0x017A   |
| Data Size    | 15 bytes |
| Instructions | 2        |

```
      00 01 02 03 04 05 06 07  08 09 0A 0B 0C 0D 0E 0F
      -- -- -- -- -- -- -- --  -- -- -- -- -- -- -- --
0170:                                5F 07 F8 FF FF 7F            _.....
0180: F8 FF FF 7F 6B 69 61 30  00                       ....kia0.       
```

#### Opcodes

```
  0: 0x017A [0x5F] MULTI_HANDLER_COMPLEX(mode=0x07 - Wait scheduler task (OpCode 0x53))
  1: 0x0188 [0x00] END_REQSTACK()
```

### Event 65535.29

#### Metadata

| Field        | Value    |
|--------------|----------|
| Entrypoint   | 0x0189   |
| Data Size    | 16 bytes |
| Instructions | 2        |

```
      00 01 02 03 04 05 06 07  08 09 0A 0B 0C 0D 0E 0F
      -- -- -- -- -- -- -- --  -- -- -- -- -- -- -- --
0180:                             5B 21 80 F8 FF FF 7F           [!.....
0190: F8 FF FF 7F 6B 69 61 31  00                       ....kia1.       
```

#### Opcodes

```
  0: 0x0189 [0x5B] LOAD_EXT_SCHEDULER: Load scheduler "kia1" with entities [EventEntity, EventEntity], work=2245*
  1: 0x0198 [0x00] END_REQSTACK()
```

### Event 65535.30

#### Metadata

| Field        | Value    |
|--------------|----------|
| Entrypoint   | 0x0199   |
| Data Size    | 14 bytes |
| Instructions | 2        |

```
      00 01 02 03 04 05 06 07  08 09 0A 0B 0C 0D 0E 0F
      -- -- -- -- -- -- -- --  -- -- -- -- -- -- -- --
0190:                             53 F8 FF FF 7F F8 FF           S......
01A0: FF 7F 6B 69 61 31 00                              ..kia1.         
```

#### Opcodes

```
  0: 0x0199 [0x53] WAIT_SCHEDULER_TASK: Wait for scheduler "kia1" with entities [EventEntity, EventEntity]
  1: 0x01A6 [0x00] END_REQSTACK()
```

### Event 65535.31

#### Metadata

| Field        | Value    |
|--------------|----------|
| Entrypoint   | 0x01A7   |
| Data Size    | 19 bytes |
| Instructions | 2        |

```
      00 01 02 03 04 05 06 07  08 09 0A 0B 0C 0D 0E 0F
      -- -- -- -- -- -- -- --  -- -- -- -- -- -- -- --
01A0:                      5F  05 21 80 F8 FF FF 7F F8         _.!......
01B0: FF FF 7F 6B 69 61 32 04  80 00                    ...kia2...      
```

#### Opcodes

```
  0: 0x01A7 [0x5F] MULTI_HANDLER_COMPLEX(mode=0x05 - Load ext scheduler with flag (OpCode 0x5B mode 0, flag 1), ref=2245*, entity1=EventEntity, entity2=EventEntity, string="kia2", extra=120*)
  1: 0x01B9 [0x00] END_REQSTACK()
```

### Event 65535.32

#### Metadata

| Field        | Value    |
|--------------|----------|
| Entrypoint   | 0x01BA   |
| Data Size    | 15 bytes |
| Instructions | 2        |

```
      00 01 02 03 04 05 06 07  08 09 0A 0B 0C 0D 0E 0F
      -- -- -- -- -- -- -- --  -- -- -- -- -- -- -- --
01B0:                                5F 07 F8 FF FF 7F            _.....
01C0: F8 FF FF 7F 6B 69 61 32  00                       ....kia2.       
```

#### Opcodes

```
  0: 0x01BA [0x5F] MULTI_HANDLER_COMPLEX(mode=0x07 - Wait scheduler task (OpCode 0x53))
  1: 0x01C8 [0x00] END_REQSTACK()
```

### Event 65535.33

#### Metadata

| Field        | Value    |
|--------------|----------|
| Entrypoint   | 0x01C9   |
| Data Size    | 16 bytes |
| Instructions | 2        |

```
      00 01 02 03 04 05 06 07  08 09 0A 0B 0C 0D 0E 0F
      -- -- -- -- -- -- -- --  -- -- -- -- -- -- -- --
01C0:                             5B 21 80 F8 FF FF 7F           [!.....
01D0: F8 FF FF 7F 6B 69 61 6C  00                       ....kial.       
```

#### Opcodes

```
  0: 0x01C9 [0x5B] LOAD_EXT_SCHEDULER: Load scheduler "kial" with entities [EventEntity, EventEntity], work=2245*
  1: 0x01D8 [0x00] END_REQSTACK()
```

### Event 65535.34

#### Metadata

| Field        | Value    |
|--------------|----------|
| Entrypoint   | 0x01D9   |
| Data Size    | 26 bytes |
| Instructions | 4        |

```
      00 01 02 03 04 05 06 07  08 09 0A 0B 0C 0D 0E 0F
      -- -- -- -- -- -- -- --  -- -- -- -- -- -- -- --
01D0:                             53 F8 FF FF 7F F8 FF           S......
01E0: FF 7F 6B 69 61 6C 81 01  F8 FF FF 7F 7C 01 F8 FF  ..kial......|...
01F0: FF 7F 00                                          ...             
```

#### Opcodes

```
  0: 0x01D9 [0x53] WAIT_SCHEDULER_TASK: Wait for scheduler "kial" with entities [EventEntity, EventEntity]
  1: 0x01E6 [0x81] SET_ENTITY_BLINKING(blink_flag=0x01, entity=EventEntity)
  2: 0x01EC [0x7C] EventEntity->Render.Flags2 |= 0x01
  3: 0x01F2 [0x00] END_REQSTACK()
```

### Event 65535.35

#### Metadata

| Field        | Value    |
|--------------|----------|
| Entrypoint   | 0x01F3   |
| Data Size    | 19 bytes |
| Instructions | 2        |

```
      00 01 02 03 04 05 06 07  08 09 0A 0B 0C 0D 0E 0F
      -- -- -- -- -- -- -- --  -- -- -- -- -- -- -- --
01F0:          5F 05 23 80 F8  FF FF 7F F8 FF FF 7F 6A     _.#.........j
0200: 79 75 30 24 80 00                                 yu0$..          
```

#### Opcodes

```
  0: 0x01F3 [0x5F] MULTI_HANDLER_COMPLEX(mode=0x05 - Load ext scheduler with flag (OpCode 0x5B mode 0, flag 1), ref=2246*, entity1=EventEntity, entity2=EventEntity, string="jyu0", extra=460*)
  1: 0x0205 [0x00] END_REQSTACK()
```

### Event 65535.36

#### Metadata

| Field        | Value    |
|--------------|----------|
| Entrypoint   | 0x0206   |
| Data Size    | 15 bytes |
| Instructions | 2        |

```
      00 01 02 03 04 05 06 07  08 09 0A 0B 0C 0D 0E 0F
      -- -- -- -- -- -- -- --  -- -- -- -- -- -- -- --
0200:                   5F 07  F8 FF FF 7F F8 FF FF 7F        _.........
0210: 6A 79 75 30 00                                    jyu0.           
```

#### Opcodes

```
  0: 0x0206 [0x5F] MULTI_HANDLER_COMPLEX(mode=0x07 - Wait scheduler task (OpCode 0x53))
  1: 0x0214 [0x00] END_REQSTACK()
```

### Event 65535.37

#### Metadata

| Field        | Value    |
|--------------|----------|
| Entrypoint   | 0x0215   |
| Data Size    | 16 bytes |
| Instructions | 2        |

```
      00 01 02 03 04 05 06 07  08 09 0A 0B 0C 0D 0E 0F
      -- -- -- -- -- -- -- --  -- -- -- -- -- -- -- --
0210:                5B 23 80  F8 FF FF 7F F8 FF FF 7F       [#.........
0220: 6A 79 75 6C 00                                    jyul.           
```

#### Opcodes

```
  0: 0x0215 [0x5B] LOAD_EXT_SCHEDULER: Load scheduler "jyul" with entities [EventEntity, EventEntity], work=2246*
  1: 0x0224 [0x00] END_REQSTACK()
```

### Event 65535.38

#### Metadata

| Field        | Value    |
|--------------|----------|
| Entrypoint   | 0x0225   |
| Data Size    | 14 bytes |
| Instructions | 2        |

```
      00 01 02 03 04 05 06 07  08 09 0A 0B 0C 0D 0E 0F
      -- -- -- -- -- -- -- --  -- -- -- -- -- -- -- --
0220:                53 F8 FF  FF 7F F8 FF FF 7F 6A 79       S........jy
0230: 75 6C 00                                          ul.             
```

#### Opcodes

```
  0: 0x0225 [0x53] WAIT_SCHEDULER_TASK: Wait for scheduler "jyul" with entities [EventEntity, EventEntity]
  1: 0x0232 [0x00] END_REQSTACK()
```

### Event 65535.39

#### Metadata

| Field        | Value    |
|--------------|----------|
| Entrypoint   | 0x0233   |
| Data Size    | 19 bytes |
| Instructions | 2        |

```
      00 01 02 03 04 05 06 07  08 09 0A 0B 0C 0D 0E 0F
      -- -- -- -- -- -- -- --  -- -- -- -- -- -- -- --
0230:          5F 05 25 80 F8  FF FF 7F F8 FF FF 7F 62     _.%.........b
0240: 61 74 30 22 80 00                                 at0"..          
```

#### Opcodes

```
  0: 0x0233 [0x5F] MULTI_HANDLER_COMPLEX(mode=0x05 - Load ext scheduler with flag (OpCode 0x5B mode 0, flag 1), ref=2840*, entity1=EventEntity, entity2=EventEntity, string="bat0", extra=150*)
  1: 0x0245 [0x00] END_REQSTACK()
```

### Event 65535.40

#### Metadata

| Field        | Value    |
|--------------|----------|
| Entrypoint   | 0x0246   |
| Data Size    | 15 bytes |
| Instructions | 2        |

```
      00 01 02 03 04 05 06 07  08 09 0A 0B 0C 0D 0E 0F
      -- -- -- -- -- -- -- --  -- -- -- -- -- -- -- --
0240:                   5F 07  F8 FF FF 7F F8 FF FF 7F        _.........
0250: 62 61 74 30 00                                    bat0.           
```

#### Opcodes

```
  0: 0x0246 [0x5F] MULTI_HANDLER_COMPLEX(mode=0x07 - Wait scheduler task (OpCode 0x53))
  1: 0x0254 [0x00] END_REQSTACK()
```

### Event 65535.41

#### Metadata

| Field        | Value    |
|--------------|----------|
| Entrypoint   | 0x0255   |
| Data Size    | 16 bytes |
| Instructions | 2        |

```
      00 01 02 03 04 05 06 07  08 09 0A 0B 0C 0D 0E 0F
      -- -- -- -- -- -- -- --  -- -- -- -- -- -- -- --
0250:                5B 25 80  F8 FF FF 7F F8 FF FF 7F       [%.........
0260: 62 61 74 31 00                                    bat1.           
```

#### Opcodes

```
  0: 0x0255 [0x5B] LOAD_EXT_SCHEDULER: Load scheduler "bat1" with entities [EventEntity, EventEntity], work=2840*
  1: 0x0264 [0x00] END_REQSTACK()
```

### Event 65535.42

#### Metadata

| Field        | Value    |
|--------------|----------|
| Entrypoint   | 0x0265   |
| Data Size    | 14 bytes |
| Instructions | 2        |

```
      00 01 02 03 04 05 06 07  08 09 0A 0B 0C 0D 0E 0F
      -- -- -- -- -- -- -- --  -- -- -- -- -- -- -- --
0260:                53 F8 FF  FF 7F F8 FF FF 7F 62 61       S........ba
0270: 74 31 00                                          t1.             
```

#### Opcodes

```
  0: 0x0265 [0x53] WAIT_SCHEDULER_TASK: Wait for scheduler "bat1" with entities [EventEntity, EventEntity]
  1: 0x0272 [0x00] END_REQSTACK()
```

### Event 65535.43

#### Metadata

| Field        | Value    |
|--------------|----------|
| Entrypoint   | 0x0273   |
| Data Size    | 16 bytes |
| Instructions | 2        |

```
      00 01 02 03 04 05 06 07  08 09 0A 0B 0C 0D 0E 0F
      -- -- -- -- -- -- -- --  -- -- -- -- -- -- -- --
0270:          5B 25 80 F8 FF  FF 7F F8 FF FF 7F 62 61     [%.........ba
0280: 74 6C 00                                          tl.             
```

#### Opcodes

```
  0: 0x0273 [0x5B] LOAD_EXT_SCHEDULER: Load scheduler "batl" with entities [EventEntity, EventEntity], work=2840*
  1: 0x0282 [0x00] END_REQSTACK()
```

### Event 65535.44

#### Metadata

| Field        | Value    |
|--------------|----------|
| Entrypoint   | 0x0283   |
| Data Size    | 14 bytes |
| Instructions | 2        |

```
      00 01 02 03 04 05 06 07  08 09 0A 0B 0C 0D 0E 0F
      -- -- -- -- -- -- -- --  -- -- -- -- -- -- -- --
0280:          53 F8 FF FF 7F  F8 FF FF 7F 62 61 74 6C     S........batl
0290: 00                                                .               
```

#### Opcodes

```
  0: 0x0283 [0x53] WAIT_SCHEDULER_TASK: Wait for scheduler "batl" with entities [EventEntity, EventEntity]
  1: 0x0290 [0x00] END_REQSTACK()
```

### Event 65535.45

#### Metadata

| Field        | Value    |
|--------------|----------|
| Entrypoint   | 0x0291   |
| Data Size    | 28 bytes |
| Instructions | 4        |

```
      00 01 02 03 04 05 06 07  08 09 0A 0B 0C 0D 0E 0F
      -- -- -- -- -- -- -- --  -- -- -- -- -- -- -- --
0290:    81 00 F8 FF FF 7F 7C  00 F8 FF FF 7F 5B 26 80   ......|.....[&.
02A0: F8 FF FF 7F F8 FF FF 7F  77 61 70 30 00           ........wap0.   
```

#### Opcodes

```
  0: 0x0291 [0x81] SET_ENTITY_BLINKING(blink_flag=0x00, entity=EventEntity)
  1: 0x0297 [0x7C] EventEntity->Render.Flags2 |= 0x00
  2: 0x029D [0x5B] LOAD_EXT_SCHEDULER: Load scheduler "wap0" with entities [EventEntity, EventEntity], work=3107*
  3: 0x02AC [0x00] END_REQSTACK()
```

### Event 65535.46

#### Metadata

| Field        | Value    |
|--------------|----------|
| Entrypoint   | 0x02AD   |
| Data Size    | 14 bytes |
| Instructions | 2        |

```
      00 01 02 03 04 05 06 07  08 09 0A 0B 0C 0D 0E 0F
      -- -- -- -- -- -- -- --  -- -- -- -- -- -- -- --
02A0:                                         53 F8 FF               S..
02B0: FF 7F F8 FF FF 7F 77 61  70 30 00                 ......wap0.     
```

#### Opcodes

```
  0: 0x02AD [0x53] WAIT_SCHEDULER_TASK: Wait for scheduler "wap0" with entities [EventEntity, EventEntity]
  1: 0x02BA [0x00] END_REQSTACK()
```

### Event 65535.47

#### Metadata

| Field        | Value    |
|--------------|----------|
| Entrypoint   | 0x02BB   |
| Data Size    | 16 bytes |
| Instructions | 2        |

```
      00 01 02 03 04 05 06 07  08 09 0A 0B 0C 0D 0E 0F
      -- -- -- -- -- -- -- --  -- -- -- -- -- -- -- --
02B0:                                   5B 26 80 F8 FF             [&...
02C0: FF 7F F8 FF FF 7F 77 61  70 31 00                 ......wap1.     
```

#### Opcodes

```
  0: 0x02BB [0x5B] LOAD_EXT_SCHEDULER: Load scheduler "wap1" with entities [EventEntity, EventEntity], work=3107*
  1: 0x02CA [0x00] END_REQSTACK()
```

### Event 65535.48

#### Metadata

| Field        | Value    |
|--------------|----------|
| Entrypoint   | 0x02CB   |
| Data Size    | 26 bytes |
| Instructions | 4        |

```
      00 01 02 03 04 05 06 07  08 09 0A 0B 0C 0D 0E 0F
      -- -- -- -- -- -- -- --  -- -- -- -- -- -- -- --
02C0:                                   53 F8 FF FF 7F             S....
02D0: F8 FF FF 7F 77 61 70 31  81 01 F8 FF FF 7F 7C 01  ....wap1......|.
02E0: F8 FF FF 7F 00                                    .....           
```

#### Opcodes

```
  0: 0x02CB [0x53] WAIT_SCHEDULER_TASK: Wait for scheduler "wap1" with entities [EventEntity, EventEntity]
  1: 0x02D8 [0x81] SET_ENTITY_BLINKING(blink_flag=0x01, entity=EventEntity)
  2: 0x02DE [0x7C] EventEntity->Render.Flags2 |= 0x01
  3: 0x02E4 [0x00] END_REQSTACK()
```

### Event 65535.49

#### Metadata

| Field        | Value    |
|--------------|----------|
| Entrypoint   | 0x02E5   |
| Data Size    | 19 bytes |
| Instructions | 2        |

```
      00 01 02 03 04 05 06 07  08 09 0A 0B 0C 0D 0E 0F
      -- -- -- -- -- -- -- --  -- -- -- -- -- -- -- --
02E0:                5F 05 27  80 F8 FF FF 7F F8 FF FF       _.'........
02F0: 7F 79 61 68 30 28 80 00                           .yah0(..        
```

#### Opcodes

```
  0: 0x02E5 [0x5F] MULTI_HANDLER_COMPLEX(mode=0x05 - Load ext scheduler with flag (OpCode 0x5B mode 0, flag 1), ref=2128*, entity1=EventEntity, entity2=EventEntity, string="yah0", extra=130*)
  1: 0x02F7 [0x00] END_REQSTACK()
```

### Event 65535.50

#### Metadata

| Field        | Value    |
|--------------|----------|
| Entrypoint   | 0x02F8   |
| Data Size    | 15 bytes |
| Instructions | 2        |

```
      00 01 02 03 04 05 06 07  08 09 0A 0B 0C 0D 0E 0F
      -- -- -- -- -- -- -- --  -- -- -- -- -- -- -- --
02F0:                          5F 07 F8 FF FF 7F F8 FF          _.......
0300: FF 7F 79 61 68 30 00                              ..yah0.         
```

#### Opcodes

```
  0: 0x02F8 [0x5F] MULTI_HANDLER_COMPLEX(mode=0x07 - Wait scheduler task (OpCode 0x53))
  1: 0x0306 [0x00] END_REQSTACK()
```

### Event 65535.51

#### Metadata

| Field        | Value    |
|--------------|----------|
| Entrypoint   | 0x0307   |
| Data Size    | 16 bytes |
| Instructions | 2        |

```
      00 01 02 03 04 05 06 07  08 09 0A 0B 0C 0D 0E 0F
      -- -- -- -- -- -- -- --  -- -- -- -- -- -- -- --
0300:                      5B  27 80 F8 FF FF 7F F8 FF         ['.......
0310: FF 7F 79 61 68 31 00                              ..yah1.         
```

#### Opcodes

```
  0: 0x0307 [0x5B] LOAD_EXT_SCHEDULER: Load scheduler "yah1" with entities [EventEntity, EventEntity], work=2128*
  1: 0x0316 [0x00] END_REQSTACK()
```

### Event 65535.52

#### Metadata

| Field        | Value    |
|--------------|----------|
| Entrypoint   | 0x0317   |
| Data Size    | 14 bytes |
| Instructions | 2        |

```
      00 01 02 03 04 05 06 07  08 09 0A 0B 0C 0D 0E 0F
      -- -- -- -- -- -- -- --  -- -- -- -- -- -- -- --
0310:                      53  F8 FF FF 7F F8 FF FF 7F         S........
0320: 79 61 68 31 00                                    yah1.           
```

#### Opcodes

```
  0: 0x0317 [0x53] WAIT_SCHEDULER_TASK: Wait for scheduler "yah1" with entities [EventEntity, EventEntity]
  1: 0x0324 [0x00] END_REQSTACK()
```

### Event 65535.53

#### Metadata

| Field        | Value    |
|--------------|----------|
| Entrypoint   | 0x0325   |
| Data Size    | 19 bytes |
| Instructions | 2        |

```
      00 01 02 03 04 05 06 07  08 09 0A 0B 0C 0D 0E 0F
      -- -- -- -- -- -- -- --  -- -- -- -- -- -- -- --
0320:                5F 05 27  80 F8 FF FF 7F F8 FF FF       _.'........
0330: 7F 75 74 75 30 29 80 00                           .utu0)..        
```

#### Opcodes

```
  0: 0x0325 [0x5F] MULTI_HANDLER_COMPLEX(mode=0x05 - Load ext scheduler with flag (OpCode 0x5B mode 0, flag 1), ref=2128*, entity1=EventEntity, entity2=EventEntity, string="utu0", extra=140*)
  1: 0x0337 [0x00] END_REQSTACK()
```

### Event 65535.54

#### Metadata

| Field        | Value    |
|--------------|----------|
| Entrypoint   | 0x0338   |
| Data Size    | 15 bytes |
| Instructions | 2        |

```
      00 01 02 03 04 05 06 07  08 09 0A 0B 0C 0D 0E 0F
      -- -- -- -- -- -- -- --  -- -- -- -- -- -- -- --
0330:                          5F 07 F8 FF FF 7F F8 FF          _.......
0340: FF 7F 75 74 75 30 00                              ..utu0.         
```

#### Opcodes

```
  0: 0x0338 [0x5F] MULTI_HANDLER_COMPLEX(mode=0x07 - Wait scheduler task (OpCode 0x53))
  1: 0x0346 [0x00] END_REQSTACK()
```

### Event 65535.55

#### Metadata

| Field        | Value    |
|--------------|----------|
| Entrypoint   | 0x0347   |
| Data Size    | 16 bytes |
| Instructions | 2        |

```
      00 01 02 03 04 05 06 07  08 09 0A 0B 0C 0D 0E 0F
      -- -- -- -- -- -- -- --  -- -- -- -- -- -- -- --
0340:                      5B  27 80 F8 FF FF 7F F8 FF         ['.......
0350: FF 7F 75 74 75 31 00                              ..utu1.         
```

#### Opcodes

```
  0: 0x0347 [0x5B] LOAD_EXT_SCHEDULER: Load scheduler "utu1" with entities [EventEntity, EventEntity], work=2128*
  1: 0x0356 [0x00] END_REQSTACK()
```

### Event 65535.56

#### Metadata

| Field        | Value    |
|--------------|----------|
| Entrypoint   | 0x0357   |
| Data Size    | 14 bytes |
| Instructions | 2        |

```
      00 01 02 03 04 05 06 07  08 09 0A 0B 0C 0D 0E 0F
      -- -- -- -- -- -- -- --  -- -- -- -- -- -- -- --
0350:                      53  F8 FF FF 7F F8 FF FF 7F         S........
0360: 75 74 75 31 00                                    utu1.           
```

#### Opcodes

```
  0: 0x0357 [0x53] WAIT_SCHEDULER_TASK: Wait for scheduler "utu1" with entities [EventEntity, EventEntity]
  1: 0x0364 [0x00] END_REQSTACK()
```

### Event 65535.57

#### Metadata

| Field        | Value    |
|--------------|----------|
| Entrypoint   | 0x0365   |
| Data Size    | 16 bytes |
| Instructions | 2        |

```
      00 01 02 03 04 05 06 07  08 09 0A 0B 0C 0D 0E 0F
      -- -- -- -- -- -- -- --  -- -- -- -- -- -- -- --
0360:                5B 27 80  F8 FF FF 7F F8 FF FF 7F       ['.........
0370: 75 74 75 6C 00                                    utul.           
```

#### Opcodes

```
  0: 0x0365 [0x5B] LOAD_EXT_SCHEDULER: Load scheduler "utul" with entities [EventEntity, EventEntity], work=2128*
  1: 0x0374 [0x00] END_REQSTACK()
```

### Event 65535.58

#### Metadata

| Field        | Value    |
|--------------|----------|
| Entrypoint   | 0x0375   |
| Data Size    | 14 bytes |
| Instructions | 2        |

```
      00 01 02 03 04 05 06 07  08 09 0A 0B 0C 0D 0E 0F
      -- -- -- -- -- -- -- --  -- -- -- -- -- -- -- --
0370:                53 F8 FF  FF 7F F8 FF FF 7F 75 74       S........ut
0380: 75 6C 00                                          ul.             
```

#### Opcodes

```
  0: 0x0375 [0x53] WAIT_SCHEDULER_TASK: Wait for scheduler "utul" with entities [EventEntity, EventEntity]
  1: 0x0382 [0x00] END_REQSTACK()
```

### Event 65535.59

#### Metadata

| Field        | Value    |
|--------------|----------|
| Entrypoint   | 0x0383   |
| Data Size    | 19 bytes |
| Instructions | 2        |

```
      00 01 02 03 04 05 06 07  08 09 0A 0B 0C 0D 0E 0F
      -- -- -- -- -- -- -- --  -- -- -- -- -- -- -- --
0380:          5F 05 27 80 F8  FF FF 7F F8 FF FF 7F 68     _.'.........h
0390: 64 62 30 2A 80 00                                 db0*..          
```

#### Opcodes

```
  0: 0x0383 [0x5F] MULTI_HANDLER_COMPLEX(mode=0x05 - Load ext scheduler with flag (OpCode 0x5B mode 0, flag 1), ref=2128*, entity1=EventEntity, entity2=EventEntity, string="hdb0", extra=90*)
  1: 0x0395 [0x00] END_REQSTACK()
```

### Event 65535.60

#### Metadata

| Field        | Value    |
|--------------|----------|
| Entrypoint   | 0x0396   |
| Data Size    | 15 bytes |
| Instructions | 2        |

```
      00 01 02 03 04 05 06 07  08 09 0A 0B 0C 0D 0E 0F
      -- -- -- -- -- -- -- --  -- -- -- -- -- -- -- --
0390:                   5F 07  F8 FF FF 7F F8 FF FF 7F        _.........
03A0: 68 64 62 30 00                                    hdb0.           
```

#### Opcodes

```
  0: 0x0396 [0x5F] MULTI_HANDLER_COMPLEX(mode=0x07 - Wait scheduler task (OpCode 0x53))
  1: 0x03A4 [0x00] END_REQSTACK()
```

### Event 65535.61

#### Metadata

| Field        | Value    |
|--------------|----------|
| Entrypoint   | 0x03A5   |
| Data Size    | 16 bytes |
| Instructions | 2        |

```
      00 01 02 03 04 05 06 07  08 09 0A 0B 0C 0D 0E 0F
      -- -- -- -- -- -- -- --  -- -- -- -- -- -- -- --
03A0:                5B 27 80  F8 FF FF 7F F8 FF FF 7F       ['.........
03B0: 68 64 62 31 00                                    hdb1.           
```

#### Opcodes

```
  0: 0x03A5 [0x5B] LOAD_EXT_SCHEDULER: Load scheduler "hdb1" with entities [EventEntity, EventEntity], work=2128*
  1: 0x03B4 [0x00] END_REQSTACK()
```

### Event 65535.62

#### Metadata

| Field        | Value    |
|--------------|----------|
| Entrypoint   | 0x03B5   |
| Data Size    | 14 bytes |
| Instructions | 2        |

```
      00 01 02 03 04 05 06 07  08 09 0A 0B 0C 0D 0E 0F
      -- -- -- -- -- -- -- --  -- -- -- -- -- -- -- --
03B0:                53 F8 FF  FF 7F F8 FF FF 7F 68 64       S........hd
03C0: 62 31 00                                          b1.             
```

#### Opcodes

```
  0: 0x03B5 [0x53] WAIT_SCHEDULER_TASK: Wait for scheduler "hdb1" with entities [EventEntity, EventEntity]
  1: 0x03C2 [0x00] END_REQSTACK()
```

### Event 65535.63

#### Metadata

| Field        | Value    |
|--------------|----------|
| Entrypoint   | 0x03C3   |
| Data Size    | 16 bytes |
| Instructions | 2        |

```
      00 01 02 03 04 05 06 07  08 09 0A 0B 0C 0D 0E 0F
      -- -- -- -- -- -- -- --  -- -- -- -- -- -- -- --
03C0:          5B 27 80 F8 FF  FF 7F F8 FF FF 7F 68 64     ['.........hd
03D0: 62 6C 00                                          bl.             
```

#### Opcodes

```
  0: 0x03C3 [0x5B] LOAD_EXT_SCHEDULER: Load scheduler "hdbl" with entities [EventEntity, EventEntity], work=2128*
  1: 0x03D2 [0x00] END_REQSTACK()
```

### Event 65535.64

#### Metadata

| Field        | Value    |
|--------------|----------|
| Entrypoint   | 0x03D3   |
| Data Size    | 14 bytes |
| Instructions | 2        |

```
      00 01 02 03 04 05 06 07  08 09 0A 0B 0C 0D 0E 0F
      -- -- -- -- -- -- -- --  -- -- -- -- -- -- -- --
03D0:          53 F8 FF FF 7F  F8 FF FF 7F 68 64 62 6C     S........hdbl
03E0: 00                                                .               
```

#### Opcodes

```
  0: 0x03D3 [0x53] WAIT_SCHEDULER_TASK: Wait for scheduler "hdbl" with entities [EventEntity, EventEntity]
  1: 0x03E0 [0x00] END_REQSTACK()
```

### Event 65535.65

#### Metadata

| Field        | Value    |
|--------------|----------|
| Entrypoint   | 0x03E1   |
| Data Size    | 19 bytes |
| Instructions | 2        |

```
      00 01 02 03 04 05 06 07  08 09 0A 0B 0C 0D 0E 0F
      -- -- -- -- -- -- -- --  -- -- -- -- -- -- -- --
03E0:    5F 05 13 80 F8 FF FF  7F F8 FF FF 7F 74 6C 63   _...........tlc
03F0: 30 2A 80 00                                       0*..            
```

#### Opcodes

```
  0: 0x03E1 [0x5F] MULTI_HANDLER_COMPLEX(mode=0x05 - Load ext scheduler with flag (OpCode 0x5B mode 0, flag 1), ref=2132*, entity1=EventEntity, entity2=EventEntity, string="tlc0", extra=90*)
  1: 0x03F3 [0x00] END_REQSTACK()
```

### Event 65535.66

#### Metadata

| Field        | Value    |
|--------------|----------|
| Entrypoint   | 0x03F4   |
| Data Size    | 15 bytes |
| Instructions | 2        |

```
      00 01 02 03 04 05 06 07  08 09 0A 0B 0C 0D 0E 0F
      -- -- -- -- -- -- -- --  -- -- -- -- -- -- -- --
03F0:             5F 07 F8 FF  FF 7F F8 FF FF 7F 74 6C      _.........tl
0400: 63 30 00                                          c0.             
```

#### Opcodes

```
  0: 0x03F4 [0x5F] MULTI_HANDLER_COMPLEX(mode=0x07 - Wait scheduler task (OpCode 0x53))
  1: 0x0402 [0x00] END_REQSTACK()
```

### Event 65535.67

#### Metadata

| Field        | Value    |
|--------------|----------|
| Entrypoint   | 0x0403   |
| Data Size    | 16 bytes |
| Instructions | 2        |

```
      00 01 02 03 04 05 06 07  08 09 0A 0B 0C 0D 0E 0F
      -- -- -- -- -- -- -- --  -- -- -- -- -- -- -- --
0400:          5B 13 80 F8 FF  FF 7F F8 FF FF 7F 74 6C     [..........tl
0410: 63 31 00                                          c1.             
```

#### Opcodes

```
  0: 0x0403 [0x5B] LOAD_EXT_SCHEDULER: Load scheduler "tlc1" with entities [EventEntity, EventEntity], work=2132*
  1: 0x0412 [0x00] END_REQSTACK()
```

### Event 65535.68

#### Metadata

| Field        | Value    |
|--------------|----------|
| Entrypoint   | 0x0413   |
| Data Size    | 14 bytes |
| Instructions | 2        |

```
      00 01 02 03 04 05 06 07  08 09 0A 0B 0C 0D 0E 0F
      -- -- -- -- -- -- -- --  -- -- -- -- -- -- -- --
0410:          53 F8 FF FF 7F  F8 FF FF 7F 74 6C 63 31     S........tlc1
0420: 00                                                .               
```

#### Opcodes

```
  0: 0x0413 [0x53] WAIT_SCHEDULER_TASK: Wait for scheduler "tlc1" with entities [EventEntity, EventEntity]
  1: 0x0420 [0x00] END_REQSTACK()
```

### Event 65535.69

#### Metadata

| Field        | Value    |
|--------------|----------|
| Entrypoint   | 0x0421   |
| Data Size    | 19 bytes |
| Instructions | 2        |

```
      00 01 02 03 04 05 06 07  08 09 0A 0B 0C 0D 0E 0F
      -- -- -- -- -- -- -- --  -- -- -- -- -- -- -- --
0420:    5F 05 13 80 F8 FF FF  7F F8 FF FF 7F 74 6C 64   _...........tld
0430: 30 2B 80 00                                       0+..            
```

#### Opcodes

```
  0: 0x0421 [0x5F] MULTI_HANDLER_COMPLEX(mode=0x05 - Load ext scheduler with flag (OpCode 0x5B mode 0, flag 1), ref=2132*, entity1=EventEntity, entity2=EventEntity, string="tld0", extra=100*)
  1: 0x0433 [0x00] END_REQSTACK()
```

### Event 65535.70

#### Metadata

| Field        | Value    |
|--------------|----------|
| Entrypoint   | 0x0434   |
| Data Size    | 15 bytes |
| Instructions | 2        |

```
      00 01 02 03 04 05 06 07  08 09 0A 0B 0C 0D 0E 0F
      -- -- -- -- -- -- -- --  -- -- -- -- -- -- -- --
0430:             5F 07 F8 FF  FF 7F F8 FF FF 7F 74 6C      _.........tl
0440: 64 30 00                                          d0.             
```

#### Opcodes

```
  0: 0x0434 [0x5F] MULTI_HANDLER_COMPLEX(mode=0x07 - Wait scheduler task (OpCode 0x53))
  1: 0x0442 [0x00] END_REQSTACK()
```

### Event 65535.71

#### Metadata

| Field        | Value    |
|--------------|----------|
| Entrypoint   | 0x0443   |
| Data Size    | 16 bytes |
| Instructions | 2        |

```
      00 01 02 03 04 05 06 07  08 09 0A 0B 0C 0D 0E 0F
      -- -- -- -- -- -- -- --  -- -- -- -- -- -- -- --
0440:          5B 13 80 F8 FF  FF 7F F8 FF FF 7F 74 6C     [..........tl
0450: 64 31 00                                          d1.             
```

#### Opcodes

```
  0: 0x0443 [0x5B] LOAD_EXT_SCHEDULER: Load scheduler "tld1" with entities [EventEntity, EventEntity], work=2132*
  1: 0x0452 [0x00] END_REQSTACK()
```

### Event 65535.72

#### Metadata

| Field        | Value    |
|--------------|----------|
| Entrypoint   | 0x0453   |
| Data Size    | 14 bytes |
| Instructions | 2        |

```
      00 01 02 03 04 05 06 07  08 09 0A 0B 0C 0D 0E 0F
      -- -- -- -- -- -- -- --  -- -- -- -- -- -- -- --
0450:          53 F8 FF FF 7F  F8 FF FF 7F 74 6C 64 31     S........tld1
0460: 00                                                .               
```

#### Opcodes

```
  0: 0x0453 [0x53] WAIT_SCHEDULER_TASK: Wait for scheduler "tld1" with entities [EventEntity, EventEntity]
  1: 0x0460 [0x00] END_REQSTACK()
```

### Event 65535.73

#### Metadata

| Field        | Value    |
|--------------|----------|
| Entrypoint   | 0x0461   |
| Data Size    | 19 bytes |
| Instructions | 2        |

```
      00 01 02 03 04 05 06 07  08 09 0A 0B 0C 0D 0E 0F
      -- -- -- -- -- -- -- --  -- -- -- -- -- -- -- --
0460:    5F 05 13 80 F8 FF FF  7F F8 FF FF 7F 74 6C 65   _...........tle
0470: 30 2B 80 00                                       0+..            
```

#### Opcodes

```
  0: 0x0461 [0x5F] MULTI_HANDLER_COMPLEX(mode=0x05 - Load ext scheduler with flag (OpCode 0x5B mode 0, flag 1), ref=2132*, entity1=EventEntity, entity2=EventEntity, string="tle0", extra=100*)
  1: 0x0473 [0x00] END_REQSTACK()
```

### Event 65535.74

#### Metadata

| Field        | Value    |
|--------------|----------|
| Entrypoint   | 0x0474   |
| Data Size    | 15 bytes |
| Instructions | 2        |

```
      00 01 02 03 04 05 06 07  08 09 0A 0B 0C 0D 0E 0F
      -- -- -- -- -- -- -- --  -- -- -- -- -- -- -- --
0470:             5F 07 F8 FF  FF 7F F8 FF FF 7F 74 6C      _.........tl
0480: 65 30 00                                          e0.             
```

#### Opcodes

```
  0: 0x0474 [0x5F] MULTI_HANDLER_COMPLEX(mode=0x07 - Wait scheduler task (OpCode 0x53))
  1: 0x0482 [0x00] END_REQSTACK()
```

### Event 65535.75

#### Metadata

| Field        | Value    |
|--------------|----------|
| Entrypoint   | 0x0483   |
| Data Size    | 16 bytes |
| Instructions | 2        |

```
      00 01 02 03 04 05 06 07  08 09 0A 0B 0C 0D 0E 0F
      -- -- -- -- -- -- -- --  -- -- -- -- -- -- -- --
0480:          5B 13 80 F8 FF  FF 7F F8 FF FF 7F 74 6C     [..........tl
0490: 65 31 00                                          e1.             
```

#### Opcodes

```
  0: 0x0483 [0x5B] LOAD_EXT_SCHEDULER: Load scheduler "tle1" with entities [EventEntity, EventEntity], work=2132*
  1: 0x0492 [0x00] END_REQSTACK()
```

### Event 65535.76

#### Metadata

| Field        | Value    |
|--------------|----------|
| Entrypoint   | 0x0493   |
| Data Size    | 14 bytes |
| Instructions | 2        |

```
      00 01 02 03 04 05 06 07  08 09 0A 0B 0C 0D 0E 0F
      -- -- -- -- -- -- -- --  -- -- -- -- -- -- -- --
0490:          53 F8 FF FF 7F  F8 FF FF 7F 74 6C 65 31     S........tle1
04A0: 00                                                .               
```

#### Opcodes

```
  0: 0x0493 [0x53] WAIT_SCHEDULER_TASK: Wait for scheduler "tle1" with entities [EventEntity, EventEntity]
  1: 0x04A0 [0x00] END_REQSTACK()
```

### Event 65535.77

#### Metadata

| Field        | Value    |
|--------------|----------|
| Entrypoint   | 0x04A1   |
| Data Size    | 19 bytes |
| Instructions | 2        |

```
      00 01 02 03 04 05 06 07  08 09 0A 0B 0C 0D 0E 0F
      -- -- -- -- -- -- -- --  -- -- -- -- -- -- -- --
04A0:    5F 05 2C 80 F8 FF FF  7F F8 FF FF 7F 74 6C 62   _.,.........tlb
04B0: 30 22 80 00                                       0"..            
```

#### Opcodes

```
  0: 0x04A1 [0x5F] MULTI_HANDLER_COMPLEX(mode=0x05 - Load ext scheduler with flag (OpCode 0x5B mode 0, flag 1), ref=2133*, entity1=EventEntity, entity2=EventEntity, string="tlb0", extra=150*)
  1: 0x04B3 [0x00] END_REQSTACK()
```

### Event 65535.78

#### Metadata

| Field        | Value    |
|--------------|----------|
| Entrypoint   | 0x04B4   |
| Data Size    | 15 bytes |
| Instructions | 2        |

```
      00 01 02 03 04 05 06 07  08 09 0A 0B 0C 0D 0E 0F
      -- -- -- -- -- -- -- --  -- -- -- -- -- -- -- --
04B0:             5F 07 F8 FF  FF 7F F8 FF FF 7F 74 6C      _.........tl
04C0: 62 30 00                                          b0.             
```

#### Opcodes

```
  0: 0x04B4 [0x5F] MULTI_HANDLER_COMPLEX(mode=0x07 - Wait scheduler task (OpCode 0x53))
  1: 0x04C2 [0x00] END_REQSTACK()
```

### Event 65535.79

#### Metadata

| Field        | Value    |
|--------------|----------|
| Entrypoint   | 0x04C3   |
| Data Size    | 16 bytes |
| Instructions | 2        |

```
      00 01 02 03 04 05 06 07  08 09 0A 0B 0C 0D 0E 0F
      -- -- -- -- -- -- -- --  -- -- -- -- -- -- -- --
04C0:          5B 2C 80 F8 FF  FF 7F F8 FF FF 7F 74 6C     [,.........tl
04D0: 62 31 00                                          b1.             
```

#### Opcodes

```
  0: 0x04C3 [0x5B] LOAD_EXT_SCHEDULER: Load scheduler "tlb1" with entities [EventEntity, EventEntity], work=2133*
  1: 0x04D2 [0x00] END_REQSTACK()
```

### Event 65535.80

#### Metadata

| Field        | Value    |
|--------------|----------|
| Entrypoint   | 0x04D3   |
| Data Size    | 14 bytes |
| Instructions | 2        |

```
      00 01 02 03 04 05 06 07  08 09 0A 0B 0C 0D 0E 0F
      -- -- -- -- -- -- -- --  -- -- -- -- -- -- -- --
04D0:          53 F8 FF FF 7F  F8 FF FF 7F 74 6C 62 31     S........tlb1
04E0: 00                                                .               
```

#### Opcodes

```
  0: 0x04D3 [0x53] WAIT_SCHEDULER_TASK: Wait for scheduler "tlb1" with entities [EventEntity, EventEntity]
  1: 0x04E0 [0x00] END_REQSTACK()
```

### Event 65535.81

#### Metadata

| Field        | Value    |
|--------------|----------|
| Entrypoint   | 0x04E1   |
| Data Size    | 19 bytes |
| Instructions | 2        |

```
      00 01 02 03 04 05 06 07  08 09 0A 0B 0C 0D 0E 0F
      -- -- -- -- -- -- -- --  -- -- -- -- -- -- -- --
04E0:    5F 05 2D 80 F8 FF FF  7F F8 FF FF 7F 74 6C 61   _.-.........tla
04F0: 30 29 80 00                                       0)..            
```

#### Opcodes

```
  0: 0x04E1 [0x5F] MULTI_HANDLER_COMPLEX(mode=0x05 - Load ext scheduler with flag (OpCode 0x5B mode 0, flag 1), ref=2134*, entity1=EventEntity, entity2=EventEntity, string="tla0", extra=140*)
  1: 0x04F3 [0x00] END_REQSTACK()
```

### Event 65535.82

#### Metadata

| Field        | Value    |
|--------------|----------|
| Entrypoint   | 0x04F4   |
| Data Size    | 15 bytes |
| Instructions | 2        |

```
      00 01 02 03 04 05 06 07  08 09 0A 0B 0C 0D 0E 0F
      -- -- -- -- -- -- -- --  -- -- -- -- -- -- -- --
04F0:             5F 07 F8 FF  FF 7F F8 FF FF 7F 74 6C      _.........tl
0500: 61 30 00                                          a0.             
```

#### Opcodes

```
  0: 0x04F4 [0x5F] MULTI_HANDLER_COMPLEX(mode=0x07 - Wait scheduler task (OpCode 0x53))
  1: 0x0502 [0x00] END_REQSTACK()
```

### Event 65535.83

#### Metadata

| Field        | Value    |
|--------------|----------|
| Entrypoint   | 0x0503   |
| Data Size    | 16 bytes |
| Instructions | 2        |

```
      00 01 02 03 04 05 06 07  08 09 0A 0B 0C 0D 0E 0F
      -- -- -- -- -- -- -- --  -- -- -- -- -- -- -- --
0500:          5B 2D 80 F8 FF  FF 7F F8 FF FF 7F 74 6C     [-.........tl
0510: 61 31 00                                          a1.             
```

#### Opcodes

```
  0: 0x0503 [0x5B] LOAD_EXT_SCHEDULER: Load scheduler "tla1" with entities [EventEntity, EventEntity], work=2134*
  1: 0x0512 [0x00] END_REQSTACK()
```

### Event 65535.84

#### Metadata

| Field        | Value    |
|--------------|----------|
| Entrypoint   | 0x0513   |
| Data Size    | 14 bytes |
| Instructions | 2        |

```
      00 01 02 03 04 05 06 07  08 09 0A 0B 0C 0D 0E 0F
      -- -- -- -- -- -- -- --  -- -- -- -- -- -- -- --
0510:          53 F8 FF FF 7F  F8 FF FF 7F 74 6C 61 31     S........tla1
0520: 00                                                .               
```

#### Opcodes

```
  0: 0x0513 [0x53] WAIT_SCHEDULER_TASK: Wait for scheduler "tla1" with entities [EventEntity, EventEntity]
  1: 0x0520 [0x00] END_REQSTACK()
```

### Event 65535.85

#### Metadata

| Field        | Value    |
|--------------|----------|
| Entrypoint   | 0x0521   |
| Data Size    | 19 bytes |
| Instructions | 2        |

```
      00 01 02 03 04 05 06 07  08 09 0A 0B 0C 0D 0E 0F
      -- -- -- -- -- -- -- --  -- -- -- -- -- -- -- --
0520:    5F 05 2C 80 F8 FF FF  7F F8 FF FF 7F 74 68 62   _.,.........thb
0530: 30 2E 80 00                                       0...            
```

#### Opcodes

```
  0: 0x0521 [0x5F] MULTI_HANDLER_COMPLEX(mode=0x05 - Load ext scheduler with flag (OpCode 0x5B mode 0, flag 1), ref=2133*, entity1=EventEntity, entity2=EventEntity, string="thb0", extra=260*)
  1: 0x0533 [0x00] END_REQSTACK()
```

### Event 65535.86

#### Metadata

| Field        | Value    |
|--------------|----------|
| Entrypoint   | 0x0534   |
| Data Size    | 15 bytes |
| Instructions | 2        |

```
      00 01 02 03 04 05 06 07  08 09 0A 0B 0C 0D 0E 0F
      -- -- -- -- -- -- -- --  -- -- -- -- -- -- -- --
0530:             5F 07 F8 FF  FF 7F F8 FF FF 7F 74 68      _.........th
0540: 62 30 00                                          b0.             
```

#### Opcodes

```
  0: 0x0534 [0x5F] MULTI_HANDLER_COMPLEX(mode=0x07 - Wait scheduler task (OpCode 0x53))
  1: 0x0542 [0x00] END_REQSTACK()
```

### Event 65535.87

#### Metadata

| Field        | Value    |
|--------------|----------|
| Entrypoint   | 0x0543   |
| Data Size    | 16 bytes |
| Instructions | 2        |

```
      00 01 02 03 04 05 06 07  08 09 0A 0B 0C 0D 0E 0F
      -- -- -- -- -- -- -- --  -- -- -- -- -- -- -- --
0540:          5B 13 80 F8 FF  FF 7F F8 FF FF 7F 74 68     [..........th
0550: 62 31 00                                          b1.             
```

#### Opcodes

```
  0: 0x0543 [0x5B] LOAD_EXT_SCHEDULER: Load scheduler "thb1" with entities [EventEntity, EventEntity], work=2132*
  1: 0x0552 [0x00] END_REQSTACK()
```

### Event 65535.88

#### Metadata

| Field        | Value    |
|--------------|----------|
| Entrypoint   | 0x0553   |
| Data Size    | 14 bytes |
| Instructions | 2        |

```
      00 01 02 03 04 05 06 07  08 09 0A 0B 0C 0D 0E 0F
      -- -- -- -- -- -- -- --  -- -- -- -- -- -- -- --
0550:          53 F8 FF FF 7F  F8 FF FF 7F 74 68 62 31     S........thb1
0560: 00                                                .               
```

#### Opcodes

```
  0: 0x0553 [0x53] WAIT_SCHEDULER_TASK: Wait for scheduler "thb1" with entities [EventEntity, EventEntity]
  1: 0x0560 [0x00] END_REQSTACK()
```

### Event 65535.89

#### Metadata

| Field        | Value    |
|--------------|----------|
| Entrypoint   | 0x0561   |
| Data Size    | 19 bytes |
| Instructions | 2        |

```
      00 01 02 03 04 05 06 07  08 09 0A 0B 0C 0D 0E 0F
      -- -- -- -- -- -- -- --  -- -- -- -- -- -- -- --
0560:    5F 05 2D 80 F8 FF FF  7F F8 FF FF 7F 74 68 61   _.-.........tha
0570: 30 2F 80 00                                       0/..            
```

#### Opcodes

```
  0: 0x0561 [0x5F] MULTI_HANDLER_COMPLEX(mode=0x05 - Load ext scheduler with flag (OpCode 0x5B mode 0, flag 1), ref=2134*, entity1=EventEntity, entity2=EventEntity, string="tha0", extra=170*)
  1: 0x0573 [0x00] END_REQSTACK()
```

### Event 65535.90

#### Metadata

| Field        | Value    |
|--------------|----------|
| Entrypoint   | 0x0574   |
| Data Size    | 15 bytes |
| Instructions | 2        |

```
      00 01 02 03 04 05 06 07  08 09 0A 0B 0C 0D 0E 0F
      -- -- -- -- -- -- -- --  -- -- -- -- -- -- -- --
0570:             5F 07 F8 FF  FF 7F F8 FF FF 7F 74 68      _.........th
0580: 61 30 00                                          a0.             
```

#### Opcodes

```
  0: 0x0574 [0x5F] MULTI_HANDLER_COMPLEX(mode=0x07 - Wait scheduler task (OpCode 0x53))
  1: 0x0582 [0x00] END_REQSTACK()
```

### Event 65535.91

#### Metadata

| Field        | Value    |
|--------------|----------|
| Entrypoint   | 0x0583   |
| Data Size    | 16 bytes |
| Instructions | 2        |

```
      00 01 02 03 04 05 06 07  08 09 0A 0B 0C 0D 0E 0F
      -- -- -- -- -- -- -- --  -- -- -- -- -- -- -- --
0580:          5B 2D 80 F8 FF  FF 7F F8 FF FF 7F 74 68     [-.........th
0590: 61 31 00                                          a1.             
```

#### Opcodes

```
  0: 0x0583 [0x5B] LOAD_EXT_SCHEDULER: Load scheduler "tha1" with entities [EventEntity, EventEntity], work=2134*
  1: 0x0592 [0x00] END_REQSTACK()
```

### Event 65535.92

#### Metadata

| Field        | Value    |
|--------------|----------|
| Entrypoint   | 0x0593   |
| Data Size    | 14 bytes |
| Instructions | 2        |

```
      00 01 02 03 04 05 06 07  08 09 0A 0B 0C 0D 0E 0F
      -- -- -- -- -- -- -- --  -- -- -- -- -- -- -- --
0590:          53 F8 FF FF 7F  F8 FF FF 7F 74 68 61 31     S........tha1
05A0: 00                                                .               
```

#### Opcodes

```
  0: 0x0593 [0x53] WAIT_SCHEDULER_TASK: Wait for scheduler "tha1" with entities [EventEntity, EventEntity]
  1: 0x05A0 [0x00] END_REQSTACK()
```

### Event 65535.93

#### Metadata

| Field        | Value    |
|--------------|----------|
| Entrypoint   | 0x05A1   |
| Data Size    | 19 bytes |
| Instructions | 3        |

```
      00 01 02 03 04 05 06 07  08 09 0A 0B 0C 0D 0E 0F
      -- -- -- -- -- -- -- --  -- -- -- -- -- -- -- --
05A0:    5B 2D 80 F8 FF FF 7F  F8 FF FF 7F 74 68 61 30   [-.........tha0
05B0: 1C 30 80 00                                       .0..            
```

#### Opcodes

```
  0: 0x05A1 [0x5B] LOAD_EXT_SCHEDULER: Load scheduler "tha0" with entities [EventEntity, EventEntity], work=2134*
  1: 0x05B0 [0x1C] WAIT(165* ticks)
  2: 0x05B3 [0x00] END_REQSTACK()
```

### Event 65535.94

#### Metadata

| Field        | Value    |
|--------------|----------|
| Entrypoint   | 0x05B4   |
| Data Size    | 28 bytes |
| Instructions | 4        |

```
      00 01 02 03 04 05 06 07  08 09 0A 0B 0C 0D 0E 0F
      -- -- -- -- -- -- -- --  -- -- -- -- -- -- -- --
05B0:             7C 00 F8 FF  FF 7F 81 00 F8 FF FF 7F      |...........
05C0: 5B 2D 80 F8 FF FF 7F F8  FF FF 7F 6F 64 6F 30 00  [-.........odo0.
```

#### Opcodes

```
  0: 0x05B4 [0x7C] EventEntity->Render.Flags2 |= 0x00
  1: 0x05BA [0x81] SET_ENTITY_BLINKING(blink_flag=0x00, entity=EventEntity)
  2: 0x05C0 [0x5B] LOAD_EXT_SCHEDULER: Load scheduler "odo0" with entities [EventEntity, EventEntity], work=2134*
  3: 0x05CF [0x00] END_REQSTACK()
```

### Event 65535.95

#### Metadata

| Field        | Value    |
|--------------|----------|
| Entrypoint   | 0x05D0   |
| Data Size    | 14 bytes |
| Instructions | 2        |

```
      00 01 02 03 04 05 06 07  08 09 0A 0B 0C 0D 0E 0F
      -- -- -- -- -- -- -- --  -- -- -- -- -- -- -- --
05D0: 53 F8 FF FF 7F F8 FF FF  7F 6F 64 6F 30 00        S........odo0.  
```

#### Opcodes

```
  0: 0x05D0 [0x53] WAIT_SCHEDULER_TASK: Wait for scheduler "odo0" with entities [EventEntity, EventEntity]
  1: 0x05DD [0x00] END_REQSTACK()
```

### Event 65535.96

#### Metadata

| Field        | Value    |
|--------------|----------|
| Entrypoint   | 0x05DE   |
| Data Size    | 19 bytes |
| Instructions | 2        |

```
      00 01 02 03 04 05 06 07  08 09 0A 0B 0C 0D 0E 0F
      -- -- -- -- -- -- -- --  -- -- -- -- -- -- -- --
05D0:                                            5F 05                _.
05E0: 31 80 F8 FF FF 7F F8 FF  FF 7F 68 64 61 30 04 80  1.........hda0..
05F0: 00                                                .               
```

#### Opcodes

```
  0: 0x05DE [0x5F] MULTI_HANDLER_COMPLEX(mode=0x05 - Load ext scheduler with flag (OpCode 0x5B mode 0, flag 1), ref=2137*, entity1=EventEntity, entity2=EventEntity, string="hda0", extra=120*)
  1: 0x05F0 [0x00] END_REQSTACK()
```

### Event 65535.97

#### Metadata

| Field        | Value    |
|--------------|----------|
| Entrypoint   | 0x05F1   |
| Data Size    | 15 bytes |
| Instructions | 2        |

```
      00 01 02 03 04 05 06 07  08 09 0A 0B 0C 0D 0E 0F
      -- -- -- -- -- -- -- --  -- -- -- -- -- -- -- --
05F0:    5F 07 F8 FF FF 7F F8  FF FF 7F 68 64 61 30 00   _.........hda0.
```

#### Opcodes

```
  0: 0x05F1 [0x5F] MULTI_HANDLER_COMPLEX(mode=0x07 - Wait scheduler task (OpCode 0x53))
  1: 0x05FF [0x00] END_REQSTACK()
```

### Event 65535.98

#### Metadata

| Field        | Value    |
|--------------|----------|
| Entrypoint   | 0x0600   |
| Data Size    | 16 bytes |
| Instructions | 2        |

```
      00 01 02 03 04 05 06 07  08 09 0A 0B 0C 0D 0E 0F
      -- -- -- -- -- -- -- --  -- -- -- -- -- -- -- --
0600: 5B 31 80 F8 FF FF 7F F8  FF FF 7F 68 64 61 31 00  [1.........hda1.
```

#### Opcodes

```
  0: 0x0600 [0x5B] LOAD_EXT_SCHEDULER: Load scheduler "hda1" with entities [EventEntity, EventEntity], work=2137*
  1: 0x060F [0x00] END_REQSTACK()
```

### Event 65535.99

#### Metadata

| Field        | Value    |
|--------------|----------|
| Entrypoint   | 0x0610   |
| Data Size    | 14 bytes |
| Instructions | 2        |

```
      00 01 02 03 04 05 06 07  08 09 0A 0B 0C 0D 0E 0F
      -- -- -- -- -- -- -- --  -- -- -- -- -- -- -- --
0610: 53 F8 FF FF 7F F8 FF FF  7F 68 64 61 31 00        S........hda1.  
```

#### Opcodes

```
  0: 0x0610 [0x53] WAIT_SCHEDULER_TASK: Wait for scheduler "hda1" with entities [EventEntity, EventEntity]
  1: 0x061D [0x00] END_REQSTACK()
```

### Event 65535.100

#### Metadata

| Field        | Value    |
|--------------|----------|
| Entrypoint   | 0x061E   |
| Data Size    | 25 bytes |
| Instructions | 3        |

```
      00 01 02 03 04 05 06 07  08 09 0A 0B 0C 0D 0E 0F
      -- -- -- -- -- -- -- --  -- -- -- -- -- -- -- --
0610:                                            81 00                ..
0620: F8 FF FF 7F 5F 05 31 80  F8 FF FF 7F F8 FF FF 7F  ...._.1.........
0630: 75 74 75 30 29 80 00                              utu0)..         
```

#### Opcodes

```
  0: 0x061E [0x81] SET_ENTITY_BLINKING(blink_flag=0x00, entity=EventEntity)
  1: 0x0624 [0x5F] MULTI_HANDLER_COMPLEX(mode=0x05 - Load ext scheduler with flag (OpCode 0x5B mode 0, flag 1), ref=2137*, entity1=EventEntity, entity2=EventEntity, string="utu0", extra=140*)
  2: 0x0636 [0x00] END_REQSTACK()
```

### Event 65535.101

#### Metadata

| Field        | Value    |
|--------------|----------|
| Entrypoint   | 0x0637   |
| Data Size    | 15 bytes |
| Instructions | 2        |

```
      00 01 02 03 04 05 06 07  08 09 0A 0B 0C 0D 0E 0F
      -- -- -- -- -- -- -- --  -- -- -- -- -- -- -- --
0630:                      5F  07 F8 FF FF 7F F8 FF FF         _........
0640: 7F 75 74 75 30 00                                 .utu0.          
```

#### Opcodes

```
  0: 0x0637 [0x5F] MULTI_HANDLER_COMPLEX(mode=0x07 - Wait scheduler task (OpCode 0x53))
  1: 0x0645 [0x00] END_REQSTACK()
```

### Event 65535.102

#### Metadata

| Field        | Value    |
|--------------|----------|
| Entrypoint   | 0x0646   |
| Data Size    | 16 bytes |
| Instructions | 2        |

```
      00 01 02 03 04 05 06 07  08 09 0A 0B 0C 0D 0E 0F
      -- -- -- -- -- -- -- --  -- -- -- -- -- -- -- --
0640:                   5B 31  80 F8 FF FF 7F F8 FF FF        [1........
0650: 7F 75 74 75 31 00                                 .utu1.          
```

#### Opcodes

```
  0: 0x0646 [0x5B] LOAD_EXT_SCHEDULER: Load scheduler "utu1" with entities [EventEntity, EventEntity], work=2137*
  1: 0x0655 [0x00] END_REQSTACK()
```

### Event 65535.103

#### Metadata

| Field        | Value    |
|--------------|----------|
| Entrypoint   | 0x0656   |
| Data Size    | 20 bytes |
| Instructions | 3        |

```
      00 01 02 03 04 05 06 07  08 09 0A 0B 0C 0D 0E 0F
      -- -- -- -- -- -- -- --  -- -- -- -- -- -- -- --
0650:                   53 F8  FF FF 7F F8 FF FF 7F 75        S........u
0660: 74 75 31 81 01 F8 FF FF  7F 00                    tu1.......      
```

#### Opcodes

```
  0: 0x0656 [0x53] WAIT_SCHEDULER_TASK: Wait for scheduler "utu1" with entities [EventEntity, EventEntity]
  1: 0x0663 [0x81] SET_ENTITY_BLINKING(blink_flag=0x01, entity=EventEntity)
  2: 0x0669 [0x00] END_REQSTACK()
```

### Event 65535.104

#### Metadata

| Field        | Value    |
|--------------|----------|
| Entrypoint   | 0x066A   |
| Data Size    | 16 bytes |
| Instructions | 2        |

```
      00 01 02 03 04 05 06 07  08 09 0A 0B 0C 0D 0E 0F
      -- -- -- -- -- -- -- --  -- -- -- -- -- -- -- --
0660:                                5B 32 80 F8 FF FF            [2....
0670: 7F F8 FF FF 7F 6E 6F 30  30 00                    .....no00.      
```

#### Opcodes

```
  0: 0x066A [0x5B] LOAD_EXT_SCHEDULER: Load scheduler "no00" with entities [EventEntity, EventEntity], work=2139*
  1: 0x0679 [0x00] END_REQSTACK()
```

### Event 65535.105

#### Metadata

| Field        | Value    |
|--------------|----------|
| Entrypoint   | 0x067A   |
| Data Size    | 14 bytes |
| Instructions | 2        |

```
      00 01 02 03 04 05 06 07  08 09 0A 0B 0C 0D 0E 0F
      -- -- -- -- -- -- -- --  -- -- -- -- -- -- -- --
0670:                                53 F8 FF FF 7F F8            S.....
0680: FF FF 7F 6E 6F 30 30 00                           ...no00.        
```

#### Opcodes

```
  0: 0x067A [0x53] WAIT_SCHEDULER_TASK: Wait for scheduler "no00" with entities [EventEntity, EventEntity]
  1: 0x0687 [0x00] END_REQSTACK()
```

### Event 65535.106

#### Metadata

| Field        | Value    |
|--------------|----------|
| Entrypoint   | 0x0688   |
| Data Size    | 28 bytes |
| Instructions | 4        |

```
      00 01 02 03 04 05 06 07  08 09 0A 0B 0C 0D 0E 0F
      -- -- -- -- -- -- -- --  -- -- -- -- -- -- -- --
0680:                          81 00 F8 FF FF 7F 7C 00          ......|.
0690: F8 FF FF 7F 5B 32 80 F8  FF FF 7F F8 FF FF 7F 79  ....[2.........y
06A0: 65 73 30 00                                       es0.            
```

#### Opcodes

```
  0: 0x0688 [0x81] SET_ENTITY_BLINKING(blink_flag=0x00, entity=EventEntity)
  1: 0x068E [0x7C] EventEntity->Render.Flags2 |= 0x00
  2: 0x0694 [0x5B] LOAD_EXT_SCHEDULER: Load scheduler "yes0" with entities [EventEntity, EventEntity], work=2139*
  3: 0x06A3 [0x00] END_REQSTACK()
```

### Event 65535.107

#### Metadata

| Field        | Value    |
|--------------|----------|
| Entrypoint   | 0x06A4   |
| Data Size    | 26 bytes |
| Instructions | 4        |

```
      00 01 02 03 04 05 06 07  08 09 0A 0B 0C 0D 0E 0F
      -- -- -- -- -- -- -- --  -- -- -- -- -- -- -- --
06A0:             53 F8 FF FF  7F F8 FF FF 7F 79 65 73      S........yes
06B0: 30 81 01 F8 FF FF 7F 7C  01 F8 FF FF 7F 00        0......|......  
```

#### Opcodes

```
  0: 0x06A4 [0x53] WAIT_SCHEDULER_TASK: Wait for scheduler "yes0" with entities [EventEntity, EventEntity]
  1: 0x06B1 [0x81] SET_ENTITY_BLINKING(blink_flag=0x01, entity=EventEntity)
  2: 0x06B7 [0x7C] EventEntity->Render.Flags2 |= 0x01
  3: 0x06BD [0x00] END_REQSTACK()
```

### Event 65535.108

#### Metadata

| Field        | Value    |
|--------------|----------|
| Entrypoint   | 0x06BE   |
| Data Size    | 19 bytes |
| Instructions | 2        |

```
      00 01 02 03 04 05 06 07  08 09 0A 0B 0C 0D 0E 0F
      -- -- -- -- -- -- -- --  -- -- -- -- -- -- -- --
06B0:                                            5F 05                _.
06C0: 33 80 F8 FF FF 7F F8 FF  FF 7F 68 75 6E 30 04 80  3.........hun0..
06D0: 00                                                .               
```

#### Opcodes

```
  0: 0x06BE [0x5F] MULTI_HANDLER_COMPLEX(mode=0x05 - Load ext scheduler with flag (OpCode 0x5B mode 0, flag 1), ref=2241*, entity1=EventEntity, entity2=EventEntity, string="hun0", extra=120*)
  1: 0x06D0 [0x00] END_REQSTACK()
```

### Event 65535.109

#### Metadata

| Field        | Value    |
|--------------|----------|
| Entrypoint   | 0x06D1   |
| Data Size    | 15 bytes |
| Instructions | 2        |

```
      00 01 02 03 04 05 06 07  08 09 0A 0B 0C 0D 0E 0F
      -- -- -- -- -- -- -- --  -- -- -- -- -- -- -- --
06D0:    5F 07 F8 FF FF 7F F8  FF FF 7F 68 75 6E 30 00   _.........hun0.
```

#### Opcodes

```
  0: 0x06D1 [0x5F] MULTI_HANDLER_COMPLEX(mode=0x07 - Wait scheduler task (OpCode 0x53))
  1: 0x06DF [0x00] END_REQSTACK()
```

### Event 65535.110

#### Metadata

| Field        | Value    |
|--------------|----------|
| Entrypoint   | 0x06E0   |
| Data Size    | 16 bytes |
| Instructions | 2        |

```
      00 01 02 03 04 05 06 07  08 09 0A 0B 0C 0D 0E 0F
      -- -- -- -- -- -- -- --  -- -- -- -- -- -- -- --
06E0: 5B 33 80 F8 FF FF 7F F8  FF FF 7F 68 75 6E 31 00  [3.........hun1.
```

#### Opcodes

```
  0: 0x06E0 [0x5B] LOAD_EXT_SCHEDULER: Load scheduler "hun1" with entities [EventEntity, EventEntity], work=2241*
  1: 0x06EF [0x00] END_REQSTACK()
```

### Event 65535.111

#### Metadata

| Field        | Value    |
|--------------|----------|
| Entrypoint   | 0x06F0   |
| Data Size    | 14 bytes |
| Instructions | 2        |

```
      00 01 02 03 04 05 06 07  08 09 0A 0B 0C 0D 0E 0F
      -- -- -- -- -- -- -- --  -- -- -- -- -- -- -- --
06F0: 53 F8 FF FF 7F F8 FF FF  7F 68 75 6E 31 00        S........hun1.  
```

#### Opcodes

```
  0: 0x06F0 [0x53] WAIT_SCHEDULER_TASK: Wait for scheduler "hun1" with entities [EventEntity, EventEntity]
  1: 0x06FD [0x00] END_REQSTACK()
```

### Event 65535.112

#### Metadata

| Field        | Value    |
|--------------|----------|
| Entrypoint   | 0x06FE   |
| Data Size    | 19 bytes |
| Instructions | 2        |

```
      00 01 02 03 04 05 06 07  08 09 0A 0B 0C 0D 0E 0F
      -- -- -- -- -- -- -- --  -- -- -- -- -- -- -- --
06F0:                                            5F 05                _.
0700: 34 80 F8 FF FF 7F F8 FF  FF 7F 67 6D 65 30 35 80  4.........gme05.
0710: 00                                                .               
```

#### Opcodes

```
  0: 0x06FE [0x5F] MULTI_HANDLER_COMPLEX(mode=0x05 - Load ext scheduler with flag (OpCode 0x5B mode 0, flag 1), ref=2244*, entity1=EventEntity, entity2=EventEntity, string="gme0", extra=220*)
  1: 0x0710 [0x00] END_REQSTACK()
```

### Event 65535.113

#### Metadata

| Field        | Value    |
|--------------|----------|
| Entrypoint   | 0x0711   |
| Data Size    | 15 bytes |
| Instructions | 2        |

```
      00 01 02 03 04 05 06 07  08 09 0A 0B 0C 0D 0E 0F
      -- -- -- -- -- -- -- --  -- -- -- -- -- -- -- --
0710:    5F 07 F8 FF FF 7F F8  FF FF 7F 67 6D 65 30 00   _.........gme0.
```

#### Opcodes

```
  0: 0x0711 [0x5F] MULTI_HANDLER_COMPLEX(mode=0x07 - Wait scheduler task (OpCode 0x53))
  1: 0x071F [0x00] END_REQSTACK()
```

### Event 65535.114

#### Metadata

| Field        | Value    |
|--------------|----------|
| Entrypoint   | 0x0720   |
| Data Size    | 16 bytes |
| Instructions | 2        |

```
      00 01 02 03 04 05 06 07  08 09 0A 0B 0C 0D 0E 0F
      -- -- -- -- -- -- -- --  -- -- -- -- -- -- -- --
0720: 5B 34 80 F8 FF FF 7F F8  FF FF 7F 67 6D 65 31 00  [4.........gme1.
```

#### Opcodes

```
  0: 0x0720 [0x5B] LOAD_EXT_SCHEDULER: Load scheduler "gme1" with entities [EventEntity, EventEntity], work=2244*
  1: 0x072F [0x00] END_REQSTACK()
```

### Event 65535.115

#### Metadata

| Field        | Value    |
|--------------|----------|
| Entrypoint   | 0x0730   |
| Data Size    | 14 bytes |
| Instructions | 2        |

```
      00 01 02 03 04 05 06 07  08 09 0A 0B 0C 0D 0E 0F
      -- -- -- -- -- -- -- --  -- -- -- -- -- -- -- --
0730: 53 F8 FF FF 7F F8 FF FF  7F 67 6D 65 31 00        S........gme1.  
```

#### Opcodes

```
  0: 0x0730 [0x53] WAIT_SCHEDULER_TASK: Wait for scheduler "gme1" with entities [EventEntity, EventEntity]
  1: 0x073D [0x00] END_REQSTACK()
```

### Event 65535.116

#### Metadata

| Field        | Value    |
|--------------|----------|
| Entrypoint   | 0x073E   |
| Data Size    | 31 bytes |
| Instructions | 4        |

```
      00 01 02 03 04 05 06 07  08 09 0A 0B 0C 0D 0E 0F
      -- -- -- -- -- -- -- --  -- -- -- -- -- -- -- --
0730:                                            81 00                ..
0740: F8 FF FF 7F 7C 00 F8 FF  FF 7F 5F 05 21 80 F8 FF  ....|....._.!...
0750: FF 7F F8 FF FF 7F 6B 69  61 30 36 80 00           ......kia06..   
```

#### Opcodes

```
  0: 0x073E [0x81] SET_ENTITY_BLINKING(blink_flag=0x00, entity=EventEntity)
  1: 0x0744 [0x7C] EventEntity->Render.Flags2 |= 0x00
  2: 0x074A [0x5F] MULTI_HANDLER_COMPLEX(mode=0x05 - Load ext scheduler with flag (OpCode 0x5B mode 0, flag 1), ref=2245*, entity1=EventEntity, entity2=EventEntity, string="kia0", extra=160*)
  3: 0x075C [0x00] END_REQSTACK()
```

### Event 65535.117

#### Metadata

| Field        | Value    |
|--------------|----------|
| Entrypoint   | 0x075D   |
| Data Size    | 15 bytes |
| Instructions | 2        |

```
      00 01 02 03 04 05 06 07  08 09 0A 0B 0C 0D 0E 0F
      -- -- -- -- -- -- -- --  -- -- -- -- -- -- -- --
0750:                                         5F 07 F8               _..
0760: FF FF 7F F8 FF FF 7F 6B  69 61 30 00              .......kia0.    
```

#### Opcodes

```
  0: 0x075D [0x5F] MULTI_HANDLER_COMPLEX(mode=0x07 - Wait scheduler task (OpCode 0x53))
  1: 0x076B [0x00] END_REQSTACK()
```

### Event 65535.118

#### Metadata

| Field        | Value    |
|--------------|----------|
| Entrypoint   | 0x076C   |
| Data Size    | 19 bytes |
| Instructions | 2        |

```
      00 01 02 03 04 05 06 07  08 09 0A 0B 0C 0D 0E 0F
      -- -- -- -- -- -- -- --  -- -- -- -- -- -- -- --
0760:                                      5F 05 21 80              _.!.
0770: F8 FF FF 7F F8 FF FF 7F  6B 69 61 31 04 80 00     ........kia1... 
```

#### Opcodes

```
  0: 0x076C [0x5F] MULTI_HANDLER_COMPLEX(mode=0x05 - Load ext scheduler with flag (OpCode 0x5B mode 0, flag 1), ref=2245*, entity1=EventEntity, entity2=EventEntity, string="kia1", extra=120*)
  1: 0x077E [0x00] END_REQSTACK()
```

### Event 65535.119

#### Metadata

| Field        | Value    |
|--------------|----------|
| Entrypoint   | 0x077F   |
| Data Size    | 15 bytes |
| Instructions | 2        |

```
      00 01 02 03 04 05 06 07  08 09 0A 0B 0C 0D 0E 0F
      -- -- -- -- -- -- -- --  -- -- -- -- -- -- -- --
0770:                                               5F                 _
0780: 07 F8 FF FF 7F F8 FF FF  7F 6B 69 61 31 00        .........kia1.  
```

#### Opcodes

```
  0: 0x077F [0x5F] MULTI_HANDLER_COMPLEX(mode=0x07 - Wait scheduler task (OpCode 0x53))
  1: 0x078D [0x00] END_REQSTACK()
```

### Event 65535.120

#### Metadata

| Field        | Value    |
|--------------|----------|
| Entrypoint   | 0x078E   |
| Data Size    | 19 bytes |
| Instructions | 2        |

```
      00 01 02 03 04 05 06 07  08 09 0A 0B 0C 0D 0E 0F
      -- -- -- -- -- -- -- --  -- -- -- -- -- -- -- --
0780:                                            5F 05                _.
0790: 21 80 F8 FF FF 7F F8 FF  FF 7F 6B 69 61 32 04 80  !.........kia2..
07A0: 00                                                .               
```

#### Opcodes

```
  0: 0x078E [0x5F] MULTI_HANDLER_COMPLEX(mode=0x05 - Load ext scheduler with flag (OpCode 0x5B mode 0, flag 1), ref=2245*, entity1=EventEntity, entity2=EventEntity, string="kia2", extra=120*)
  1: 0x07A0 [0x00] END_REQSTACK()
```

### Event 65535.121

#### Metadata

| Field        | Value    |
|--------------|----------|
| Entrypoint   | 0x07A1   |
| Data Size    | 15 bytes |
| Instructions | 2        |

```
      00 01 02 03 04 05 06 07  08 09 0A 0B 0C 0D 0E 0F
      -- -- -- -- -- -- -- --  -- -- -- -- -- -- -- --
07A0:    5F 07 F8 FF FF 7F F8  FF FF 7F 6B 69 61 32 00   _.........kia2.
```

#### Opcodes

```
  0: 0x07A1 [0x5F] MULTI_HANDLER_COMPLEX(mode=0x07 - Wait scheduler task (OpCode 0x53))
  1: 0x07AF [0x00] END_REQSTACK()
```

### Event 65535.122

#### Metadata

| Field        | Value    |
|--------------|----------|
| Entrypoint   | 0x07B0   |
| Data Size    | 19 bytes |
| Instructions | 2        |

```
      00 01 02 03 04 05 06 07  08 09 0A 0B 0C 0D 0E 0F
      -- -- -- -- -- -- -- --  -- -- -- -- -- -- -- --
07B0: 5F 05 37 80 F8 FF FF 7F  F8 FF FF 7F 73 74 64 30  _.7.........std0
07C0: 04 80 00                                          ...             
```

#### Opcodes

```
  0: 0x07B0 [0x5F] MULTI_HANDLER_COMPLEX(mode=0x05 - Load ext scheduler with flag (OpCode 0x5B mode 0, flag 1), ref=2247*, entity1=EventEntity, entity2=EventEntity, string="std0", extra=120*)
  1: 0x07C2 [0x00] END_REQSTACK()
```

### Event 65535.123

#### Metadata

| Field        | Value    |
|--------------|----------|
| Entrypoint   | 0x07C3   |
| Data Size    | 15 bytes |
| Instructions | 2        |

```
      00 01 02 03 04 05 06 07  08 09 0A 0B 0C 0D 0E 0F
      -- -- -- -- -- -- -- --  -- -- -- -- -- -- -- --
07C0:          5F 07 F8 FF FF  7F F8 FF FF 7F 73 74 64     _.........std
07D0: 30 00                                             0.              
```

#### Opcodes

```
  0: 0x07C3 [0x5F] MULTI_HANDLER_COMPLEX(mode=0x07 - Wait scheduler task (OpCode 0x53))
  1: 0x07D1 [0x00] END_REQSTACK()
```

### Event 65535.124

#### Metadata

| Field        | Value    |
|--------------|----------|
| Entrypoint   | 0x07D2   |
| Data Size    | 16 bytes |
| Instructions | 2        |

```
      00 01 02 03 04 05 06 07  08 09 0A 0B 0C 0D 0E 0F
      -- -- -- -- -- -- -- --  -- -- -- -- -- -- -- --
07D0:       5B 37 80 F8 FF FF  7F F8 FF FF 7F 73 74 64    [7.........std
07E0: 31 00                                             1.              
```

#### Opcodes

```
  0: 0x07D2 [0x5B] LOAD_EXT_SCHEDULER: Load scheduler "std1" with entities [EventEntity, EventEntity], work=2247*
  1: 0x07E1 [0x00] END_REQSTACK()
```

### Event 65535.125

#### Metadata

| Field        | Value    |
|--------------|----------|
| Entrypoint   | 0x07E2   |
| Data Size    | 14 bytes |
| Instructions | 2        |

```
      00 01 02 03 04 05 06 07  08 09 0A 0B 0C 0D 0E 0F
      -- -- -- -- -- -- -- --  -- -- -- -- -- -- -- --
07E0:       53 F8 FF FF 7F F8  FF FF 7F 73 74 64 31 00    S........std1.
```

#### Opcodes

```
  0: 0x07E2 [0x53] WAIT_SCHEDULER_TASK: Wait for scheduler "std1" with entities [EventEntity, EventEntity]
  1: 0x07EF [0x00] END_REQSTACK()
```

### Event 65535.126

#### Metadata

| Field        | Value    |
|--------------|----------|
| Entrypoint   | 0x07F0   |
| Data Size    | 16 bytes |
| Instructions | 2        |

```
      00 01 02 03 04 05 06 07  08 09 0A 0B 0C 0D 0E 0F
      -- -- -- -- -- -- -- --  -- -- -- -- -- -- -- --
07F0: 5B 38 80 F8 FF FF 7F F8  FF FF 7F 70 6E 74 30 00  [8.........pnt0.
```

#### Opcodes

```
  0: 0x07F0 [0x5B] LOAD_EXT_SCHEDULER: Load scheduler "pnt0" with entities [EventEntity, EventEntity], work=2531*
  1: 0x07FF [0x00] END_REQSTACK()
```

### Event 65535.127

#### Metadata

| Field        | Value    |
|--------------|----------|
| Entrypoint   | 0x0800   |
| Data Size    | 14 bytes |
| Instructions | 2        |

```
      00 01 02 03 04 05 06 07  08 09 0A 0B 0C 0D 0E 0F
      -- -- -- -- -- -- -- --  -- -- -- -- -- -- -- --
0800: 53 F8 FF FF 7F F8 FF FF  7F 70 6E 74 30 00        S........pnt0.  
```

#### Opcodes

```
  0: 0x0800 [0x53] WAIT_SCHEDULER_TASK: Wait for scheduler "pnt0" with entities [EventEntity, EventEntity]
  1: 0x080D [0x00] END_REQSTACK()
```

### Event 65535.128

#### Metadata

| Field        | Value    |
|--------------|----------|
| Entrypoint   | 0x080E   |
| Data Size    | 19 bytes |
| Instructions | 2        |

```
      00 01 02 03 04 05 06 07  08 09 0A 0B 0C 0D 0E 0F
      -- -- -- -- -- -- -- --  -- -- -- -- -- -- -- --
0800:                                            5F 05                _.
0810: 39 80 F8 FF FF 7F F8 FF  FF 7F 69 72 61 30 3A 80  9.........ira0:.
0820: 00                                                .               
```

#### Opcodes

```
  0: 0x080E [0x5F] MULTI_HANDLER_COMPLEX(mode=0x05 - Load ext scheduler with flag (OpCode 0x5B mode 0, flag 1), ref=2532*, entity1=EventEntity, entity2=EventEntity, string="ira0", extra=180*)
  1: 0x0820 [0x00] END_REQSTACK()
```

### Event 65535.129

#### Metadata

| Field        | Value    |
|--------------|----------|
| Entrypoint   | 0x0821   |
| Data Size    | 15 bytes |
| Instructions | 2        |

```
      00 01 02 03 04 05 06 07  08 09 0A 0B 0C 0D 0E 0F
      -- -- -- -- -- -- -- --  -- -- -- -- -- -- -- --
0820:    5F 07 F8 FF FF 7F F8  FF FF 7F 69 72 61 30 00   _.........ira0.
```

#### Opcodes

```
  0: 0x0821 [0x5F] MULTI_HANDLER_COMPLEX(mode=0x07 - Wait scheduler task (OpCode 0x53))
  1: 0x082F [0x00] END_REQSTACK()
```

### Event 65535.130

#### Metadata

| Field        | Value    |
|--------------|----------|
| Entrypoint   | 0x0830   |
| Data Size    | 16 bytes |
| Instructions | 2        |

```
      00 01 02 03 04 05 06 07  08 09 0A 0B 0C 0D 0E 0F
      -- -- -- -- -- -- -- --  -- -- -- -- -- -- -- --
0830: 5B 39 80 F8 FF FF 7F F8  FF FF 7F 69 72 61 31 00  [9.........ira1.
```

#### Opcodes

```
  0: 0x0830 [0x5B] LOAD_EXT_SCHEDULER: Load scheduler "ira1" with entities [EventEntity, EventEntity], work=2532*
  1: 0x083F [0x00] END_REQSTACK()
```

### Event 65535.131

#### Metadata

| Field        | Value    |
|--------------|----------|
| Entrypoint   | 0x0840   |
| Data Size    | 14 bytes |
| Instructions | 2        |

```
      00 01 02 03 04 05 06 07  08 09 0A 0B 0C 0D 0E 0F
      -- -- -- -- -- -- -- --  -- -- -- -- -- -- -- --
0840: 53 F8 FF FF 7F F8 FF FF  7F 69 72 61 31 00        S........ira1.  
```

#### Opcodes

```
  0: 0x0840 [0x53] WAIT_SCHEDULER_TASK: Wait for scheduler "ira1" with entities [EventEntity, EventEntity]
  1: 0x084D [0x00] END_REQSTACK()
```

### Event 65535.132

#### Metadata

| Field        | Value    |
|--------------|----------|
| Entrypoint   | 0x084E   |
| Data Size    | 16 bytes |
| Instructions | 2        |

```
      00 01 02 03 04 05 06 07  08 09 0A 0B 0C 0D 0E 0F
      -- -- -- -- -- -- -- --  -- -- -- -- -- -- -- --
0840:                                            5B 3B                [;
0850: 80 F8 FF FF 7F F8 FF FF  7F 75 77 61 30 00        .........uwa0.  
```

#### Opcodes

```
  0: 0x084E [0x5B] LOAD_EXT_SCHEDULER: Load scheduler "uwa0" with entities [EventEntity, EventEntity], work=2249*
  1: 0x085D [0x00] END_REQSTACK()
```

### Event 65535.133

#### Metadata

| Field        | Value    |
|--------------|----------|
| Entrypoint   | 0x085E   |
| Data Size    | 14 bytes |
| Instructions | 2        |

```
      00 01 02 03 04 05 06 07  08 09 0A 0B 0C 0D 0E 0F
      -- -- -- -- -- -- -- --  -- -- -- -- -- -- -- --
0850:                                            53 F8                S.
0860: FF FF 7F F8 FF FF 7F 75  77 61 30 00              .......uwa0.    
```

#### Opcodes

```
  0: 0x085E [0x53] WAIT_SCHEDULER_TASK: Wait for scheduler "uwa0" with entities [EventEntity, EventEntity]
