# 17523345

## Common Data

| Field            | Value                    |
|------------------|--------------------------|
| Zone             | Walk of Echoes (ID: 182) |
| Block Size       | 14636 bytes              |
| Total Events     | 9                        |
| References Count | 197                      |

## List of Events

| Event ID                 | Entrypoint   |   Size |   Instructions |
|--------------------------|--------------|--------|----------------|
| [65535](#event-65535)    | 0x0000       |      1 |              1 |
| [123](#event-123)        | 0x0001       |   3098 |            385 |
| [124](#event-124)        | 0x0C1B       |   3497 |            396 |
| [32000](#event-32000)    | 0x19C4       |      1 |              1 |
| [125](#event-125)        | 0x19C5       |     28 |              5 |
| [65535.1](#event-655351) | 0x19E1       |   1311 |            143 |
| [126](#event-126)        | 0x1F00       |    371 |             51 |
| [127](#event-127)        | 0x2073       |   5066 |            601 |
| [128](#event-128)        | 0x343D       |    421 |             57 |

## DAT References (imed_data)

|   Index | Hex Value   |   Dec Value |
|---------|-------------|-------------|
|       0 | 0x00C8      |         200 |
|       1 | 0x0000      |           0 |
|       2 | 0x0013      |          19 |
|       3 | 0x0028      |          40 |
|       4 | 0x02B8      |         696 |
|       5 | 0x0064      |         100 |
|       6 | 0x0032      |          50 |
|       7 | 0x001E      |          30 |
|       8 | 0x1FD3      |        8147 |
|       9 | 0x0005      |           5 |
|      10 | 0x0006      |           6 |
|      11 | 0x1FD4      |        8148 |
|      12 | 0x1FD5      |        8149 |
|      13 | 0x0001      |           1 |
|      14 | 0x1FD6      |        8150 |
|      15 | 0x003C      |          60 |
|      16 | 0x0015      |          21 |
|      17 | 0x1FD7      |        8151 |
|      18 | 0x012C      |         300 |
|      19 | 0x1FD8      |        8152 |
|      20 | 0x1FD9      |        8153 |
|      21 | 0x1E14      |        7700 |
|      22 | 0x0036      |          54 |
|      23 | 0x1FDA      |        8154 |
|      24 | 0x1FDB      |        8155 |
|      25 | 0x1FDC      |        8156 |
|      26 | 0x1FDD      |        8157 |
|      27 | 0x0007      |           7 |
|      28 | 0x0003      |           3 |
|      29 | 0x0008      |           8 |
|      30 | 0x1FDE      |        8158 |
|      31 | 0x1FDF      |        8159 |
|      32 | 0x1FE0      |        8160 |
|      33 | 0x1FE1      |        8161 |
|      34 | 0x1FE2      |        8162 |
|      35 | 0x1FE3      |        8163 |
|      36 | 0x1FE4      |        8164 |
|      37 | 0x1FE5      |        8165 |
|      38 | 0x1FE6      |        8166 |
|      39 | 0x1FE7      |        8167 |
|      40 | 0x1FE8      |        8168 |
|      41 | 0x005A      |          90 |
|      42 | 0x0258      |         600 |
|      43 | 0x1FE9      |        8169 |
|      44 | 0x1FEA      |        8170 |
|      45 | 0x1FEC      |        8172 |
|      46 | 0x1FEB      |        8171 |
|      47 | 0x1FED      |        8173 |
|      48 | 0x1FEE      |        8174 |
|      49 | 0x1FEF      |        8175 |
|      50 | 0x002D      |          45 |
|      51 | 0x1FF0      |        8176 |
|      52 | 0x1FF1      |        8177 |
|      53 | 0x1FF2      |        8178 |
|      54 | 0x1FF3      |        8179 |
|      55 | 0x1FF4      |        8180 |
|      56 | 0x1FF5      |        8181 |
|      57 | 0x1FF6      |        8182 |
|      58 | 0x1FF7      |        8183 |
|      59 | 0x1FF8      |        8184 |
|      60 | 0x1FF9      |        8185 |
|      61 | 0x00C3      |         195 |
|      62 | 0x09AB      |        2475 |
|      63 | 0x000A      |          10 |
|      64 | 0x006E      |         110 |
|      65 | 0x0078      |         120 |
|      66 | 0x000F      |          15 |
|      67 | 0xFFF55195  |  4294267285 |
|      68 | 0xFFFE72F4  |  4294865652 |
|      69 | 0xFFFF9DDB  |  4294942171 |
|      70 | 0x0C00      |        3072 |
|      71 | 0x0C23      |        3107 |
|      72 | 0x02B9      |         697 |
|      73 | 0x0074      |         116 |
|      74 | 0x0857      |        2135 |
|      75 | 0x1FFA      |        8186 |
|      76 | 0x1FFB      |        8187 |
|      77 | 0x1FFC      |        8188 |
|      78 | 0x1FFD      |        8189 |
|      79 | 0x1FFE      |        8190 |
|      80 | 0x1FFF      |        8191 |
|      81 | 0x2000      |        8192 |
|      82 | 0x2001      |        8193 |
|      83 | 0x2002      |        8194 |
|      84 | 0x2003      |        8195 |
|      85 | 0x2004      |        8196 |
|      86 | 0x0014      |          20 |
|      87 | 0x2005      |        8197 |
|      88 | 0x2006      |        8198 |
|      89 | 0x2007      |        8199 |
|      90 | 0x2008      |        8200 |
|      91 | 0x2009      |        8201 |
|      92 | 0x200A      |        8202 |
|      93 | 0x200B      |        8203 |
|      94 | 0x200C      |        8204 |
|      95 | 0x200D      |        8205 |
|      96 | 0x200E      |        8206 |
|      97 | 0x200F      |        8207 |
|      98 | 0x2010      |        8208 |
|      99 | 0x2011      |        8209 |
|     100 | 0x2012      |        8210 |
|     101 | 0x0024      |          36 |
|     102 | 0xFFF55179  |  4294267257 |
|     103 | 0xFFFDDE08  |  4294827528 |
|     104 | 0xFFFFCE1F  |  4294954527 |
|     105 | 0x0406      |        1030 |
|     106 | 0xFFF54310  |  4294263568 |
|     107 | 0xFFFDE3BD  |  4294828989 |
|     108 | 0x0375      |         885 |
|     109 | 0x0B90      |        2960 |
|     110 | 0x002E      |          46 |
|     111 | 0x02BA      |         698 |
|     112 | 0x000E      |          14 |
|     113 | 0x0172      |         370 |
|     114 | 0x000C      |          12 |
|     115 | 0x0B8F      |        2959 |
|     116 | 0x0854      |        2132 |
|     117 | 0x0002      |           2 |
|     118 | 0x0026      |          38 |
|     119 | 0x0B18      |        2840 |
|     120 | 0x2013      |        8211 |
|     121 | 0x0096      |         150 |
|     122 | 0x00C9      |         201 |
|     123 | 0x009B      |         155 |
|     124 | 0x2014      |        8212 |
|     125 | 0x2015      |        8213 |
|     126 | 0x2016      |        8214 |
|     127 | 0xFFF527C3  |  4294256579 |
|     128 | 0xFFFDEF90  |  4294832016 |
|     129 | 0x016A      |         362 |
|     130 | 0xFFF541DD  |  4294263261 |
|     131 | 0xFFFDD549  |  4294825289 |
|     132 | 0x0E0A      |        3594 |
|     133 | 0xFFF52246  |  4294255174 |
|     134 | 0xFFFDE67A  |  4294829690 |
|     135 | 0x0F8D      |        3981 |
|     136 | 0xFFF53CAB  |  4294261931 |
|     137 | 0xFFFDE7D9  |  4294830041 |
|     138 | 0x082A      |        2090 |
|     139 | 0xFFF55A0D  |  4294269453 |
|     140 | 0xFFFDF48D  |  4294833293 |
|     141 | 0x0A8F      |        2703 |
|     142 | 0x0080      |         128 |
|     143 | 0x02BB      |         699 |
|     144 | 0x000D      |          13 |
|     145 | 0x007F      |         127 |
|     146 | 0x0050      |          80 |
|     147 | 0x0010      |          16 |
|     148 | 0x2017      |        8215 |
|     149 | 0x2018      |        8216 |
|     150 | 0x007B      |         123 |
|     151 | 0x2019      |        8217 |
|     152 | 0x201A      |        8218 |
|     153 | 0x201B      |        8219 |
|     154 | 0x201C      |        8220 |
|     155 | 0x201D      |        8221 |
|     156 | 0x201E      |        8222 |
|     157 | 0xFFFFFAEC  |  4294965996 |
|     158 | 0x201F      |        8223 |
|     159 | 0x2020      |        8224 |
|     160 | 0x2021      |        8225 |
|     161 | 0x2022      |        8226 |
|     162 | 0x2023      |        8227 |
|     163 | 0x2024      |        8228 |
|     164 | 0x01F4      |         500 |
|     165 | 0x0046      |          70 |
|     166 | 0x2025      |        8229 |
|     167 | 0x01A4      |         420 |
|     168 | 0x2026      |        8230 |
|     169 | 0x2027      |        8231 |
|     170 | 0x2028      |        8232 |
|     171 | 0x2029      |        8233 |
|     172 | 0x202A      |        8234 |
|     173 | 0x202B      |        8235 |
|     174 | 0x202C      |        8236 |
|     175 | 0x202D      |        8237 |
|     176 | 0x00F0      |         240 |
|     177 | 0x008C      |         140 |
|     178 | 0x00A0      |         160 |
|     179 | 0x202E      |        8238 |
|     180 | 0x202F      |        8239 |
|     181 | 0x2030      |        8240 |
|     182 | 0x2031      |        8241 |
|     183 | 0x07D0      |        2000 |
|     184 | 0x2032      |        8242 |
|     185 | 0x2033      |        8243 |
|     186 | 0x2034      |        8244 |
|     187 | 0x2035      |        8245 |
|     188 | 0x2036      |        8246 |
|     189 | 0x2037      |        8247 |
|     190 | 0x2799      |       10137 |
|     191 | 0x2038      |        8248 |
|     192 | 0x2039      |        8249 |
|     193 | 0x203A      |        8250 |
|     194 | 0x203B      |        8251 |
|     195 | 0x203C      |        8252 |
|     196 | 0x00D9      |         217 |

## String References

- **7700**: @@
- **8149**: Assist Cait Sith? [Absolutely./Not happening.]
- **8170**: How do you respond? [Don't lose heart!/I can't hear you!]
- **8190**: What do you think? [You've gotten cuter!/Still the same old Lilisette!]

## Events

### Event 65535

#### Metadata

| Field        | Value   |
|--------------|---------|
| Entrypoint   | 0x0000  |
| Data Size    | 1 bytes |
| Instructions | 1       |

```
      00 01 02 03 04 05 06 07  08 09 0A 0B 0C 0D 0E 0F
      -- -- -- -- -- -- -- --  -- -- -- -- -- -- -- --
0000: 00                                                .               
```

#### Opcodes

```
  0: 0x0000 [0x00] END_REQSTACK()
```

### Event 123

#### Metadata

| Field        | Value      |
|--------------|------------|
| Entrypoint   | 0x0001     |
| Data Size    | 3098 bytes |
| Instructions | 385        |

```
      00 01 02 03 04 05 06 07  08 09 0A 0B 0C 0D 0E 0F
      -- -- -- -- -- -- -- --  -- -- -- -- -- -- -- --
0000:    42 46 01 45 00 80 F0  FF FF 7F F0 FF FF 7F 66   BF.E..........f
0010: 64 6F 31 01 80 55 00 80  F0 FF FF 7F F0 FF FF 7F  do1..U..........
0020: 66 64 6F 31 38 02 80 2F  00 58 62 0B 01 4E 00 58  fdo18../.Xb..N.X
0030: 62 0B 01 4E 00 F0 FF FF  7F 80 58 62 0B 01 80 F0  b..N......Xb....
0040: FF FF 7F 92 01 58 62 0B  01 94 01 F0 FF FF 7F 94  .....Xb.........
0050: 01 58 62 0B 01 29 08 F0  FF FF 7F 45 29 08 58 62  .Xb..).....E).Xb
0060: 0B 01 37 29 08 F0 FF FF  7F 44 29 10 F0 FF FF 7F  ..7).....D).....
0070: 07 5C 00 03 80 5C 01 03  80 9A 45 04 80 F0 FF FF  .\...\....E.....
0080: 7F F0 FF FF 7F 73 30 30  30 01 80 45 00 80 F0 FF  .....s000..E....
0090: FF 7F F0 FF FF 7F 66 64  69 31 01 80 55 00 80 F0  ......fdi1..U...
00A0: FF FF 7F F0 FF FF 7F 66  64 69 31 1C 05 80 27 10  .......fdi1...'.
00B0: F0 FF FF 7F 08 1C 06 80  27 08 58 62 0B 01 38 1C  ........'.Xb..8.
00C0: 07 80 52 04 80 F0 FF FF  7F F0 FF FF 7F 73 30 30  ..R..........s00
00D0: 30 45 04 80 F0 FF FF 7F  F0 FF FF 7F 73 30 30 31  0E..........s001
00E0: 01 80 2A 10 F0 FF FF 7F  1C 05 80 79 00 58 62 0B  ..*........y.Xb.
00F0: 01 F0 FF FF 7F 79 00 F0  FF FF 7F 58 62 0B 01 27  .....y.....Xb..'
0100: 08 F0 FF FF 7F 46 1C 06  80 1C 05 80 52 04 80 F0  .....F......R...
0110: FF FF 7F F0 FF FF 7F 73  30 30 31 45 04 80 F0 FF  .......s001E....
0120: FF 7F F0 FF FF 7F 73 30  30 32 01 80 2A 08 58 62  ......s002..*.Xb
0130: 0B 01 1C 07 80 2B 58 62  0B 01 08 80 23 52 04 80  .....+Xb....#R..
0140: F0 FF FF 7F F0 FF FF 7F  73 30 30 32 02 09 10 09  ........s002....
0150: 80 00 68 01 45 04 80 F0  FF FF 7F F0 FF FF 7F 73  ..h.E..........s
0160: 30 32 32 01 80 01 95 01  02 09 10 0A 80 00 84 01  022.............
0170: 45 04 80 F0 FF FF 7F F0  FF FF 7F 73 30 32 32 01  E..........s022.
0180: 80 01 95 01 45 04 80 F0  FF FF 7F F0 FF FF 7F 73  ....E..........s
0190: 30 30 33 01 80 29 08 58  62 0B 01 5B 79 00 58 62  003..).Xb..[y.Xb
01A0: 0B 01 F0 FF FF 7F 2B 58  62 0B 01 0B 80 23 29 08  ......+Xb....#).
01B0: 58 62 0B 01 5C 29 08 58  62 0B 01 5D 29 08 58 62  Xb..\).Xb..]).Xb
01C0: 0B 01 5E 2A 08 F0 FF FF  7F 52 04 80 F0 FF FF 7F  ..^*.....R......
01D0: F0 FF FF 7F 73 30 32 32  52 04 80 F0 FF FF 7F F0  ....s022R.......
01E0: FF FF 7F 73 30 30 33 06  00 00 02 00 00 01 80 00  ...s003.........
01F0: F1 02 24 0C 80 01 80 01  80 25 02 00 10 01 80 00  ..$......%......
0200: 08 02 05 00 00 01 EE 02  02 00 10 0D 80 00 EE 02  ................
0210: 45 04 80 F0 FF FF 7F F0  FF FF 7F 73 30 31 36 01  E..........s016.
0220: 80 29 08 58 62 0B 01 83  2B 58 62 0B 01 0E 80 1C  .).Xb...+Xb.....
0230: 0F 80 6E F0 FF FF 7F 10  80 99 F0 FF FF 7F 23 2B  ..n...........#+
0240: 58 62 0B 01 11 80 23 45  00 80 F0 FF FF 7F F0 FF  Xb....#E........
0250: FF 7F 66 64 6F 31 01 80  55 00 80 F0 FF FF 7F F0  ..fdo1..U.......
0260: FF FF 7F 66 64 6F 31 52  04 80 F0 FF FF 7F F0 FF  ...fdo1R........
0270: FF 7F 73 30 30 36 6B 69  64 6C 30 58 62 0B 01 1C  ..s006kidl0Xb...
0280: 07 80 02 09 10 09 80 00  9E 02 45 04 80 F0 FF FF  ..........E.....
0290: 7F F0 FF FF 7F 73 30 32  32 01 80 01 CB 02 02 09  .....s022.......
02A0: 10 0A 80 00 BA 02 45 04  80 F0 FF FF 7F F0 FF FF  ......E.........
02B0: 7F 73 30 32 32 01 80 01  CB 02 45 04 80 F0 FF FF  .s022.....E.....
02C0: 7F F0 FF FF 7F 73 30 30  33 01 80 45 00 80 F0 FF  .....s003..E....
02D0: FF 7F F0 FF FF 7F 66 64  69 31 01 80 55 00 80 F0  ......fdi1..U...
02E0: FF FF 7F F0 FF FF 7F 66  64 69 31 01 EE 02 01 EA  .......fdi1.....
02F0: 01 52 04 80 F0 FF FF 7F  F0 FF FF 7F 73 30 32 32  .R..........s022
0300: 52 04 80 F0 FF FF 7F F0  FF FF 7F 73 30 30 33 5C  R..........s003\
0310: A0 01 80 12 80 5C A1 01  80 12 80 45 04 80 F0 FF  .....\.....E....
0320: FF 7F F0 FF FF 7F 73 30  30 34 01 80 7B 58 62 0B  ......s004..{Xb.
0330: 01 29 08 58 62 0B 01 69  2B 58 62 0B 01 13 80 23  .).Xb..i+Xb....#
0340: 29 08 58 62 0B 01 6A 29  08 58 62 0B 01 6B 2B 58  ).Xb..j).Xb..k+X
0350: 62 0B 01 14 80 23 29 08  58 62 0B 01 6C 45 00 80  b....#).Xb..lE..
0360: F0 FF FF 7F F0 FF FF 7F  66 64 6F 31 01 80 55 00  ........fdo1..U.
0370: 80 F0 FF FF 7F F0 FF FF  7F 66 64 6F 31 52 04 80  .........fdo1R..
0380: F0 FF FF 7F F0 FF FF 7F  73 30 30 34 48 15 80 23  ........s004H..#
0390: 5C 00 16 80 5C 01 16 80  9A 1C 07 80 27 10 75 62  \...\.......'.ub
03A0: 0B 01 05 2B 74 62 0B 01  17 80 23 1C 07 80 27 10  ...+tb....#...'.
03B0: 75 62 0B 01 05 2B 74 62  0B 01 18 80 23 02 09 10  ub...+tb....#...
03C0: 09 80 00 D9 03 45 04 80  F0 FF FF 7F F0 FF FF 7F  .....E..........
03D0: 73 30 32 33 01 80 01 06  04 02 09 10 0A 80 00 F5  s023............
03E0: 03 45 04 80 F0 FF FF 7F  F0 FF FF 7F 73 30 32 33  .E..........s023
03F0: 01 80 01 06 04 45 04 80  F0 FF FF 7F F0 FF FF 7F  .....E..........
0400: 73 30 30 35 01 80 45 00  80 F0 FF FF 7F F0 FF FF  s005..E.........
0410: 7F 66 64 69 31 01 80 55  00 80 F0 FF FF 7F F0 FF  .fdi1..U........
0420: FF 7F 66 64 69 31 79 00  58 62 0B 01 F0 FF FF 7F  ..fdi1y.Xb......
0430: 29 08 58 62 0B 01 79 2B  58 62 0B 01 19 80 23 29  ).Xb..y+Xb....#)
0440: 08 58 62 0B 01 79 29 08  58 62 0B 01 7B 2B 58 62  .Xb..y).Xb..{+Xb
0450: 0B 01 1A 80 23 29 08 58  62 0B 01 7C 6E F0 FF FF  ....#).Xb..|n...
0460: 7F 1B 80 99 F0 FF FF 7F  1C 0F 80 52 04 80 F0 FF  ...........R....
0470: FF 7F F0 FF FF 7F 73 30  32 33 52 04 80 F0 FF FF  ......s023R.....
0480: 7F F0 FF FF 7F 73 30 30  35 02 09 10 1C 80 00 A5  .....s005.......
0490: 04 45 04 80 F0 FF FF 7F  F0 FF FF 7F 73 30 30 36  .E..........s006
04A0: 01 80 01 0A 05 02 09 10  09 80 00 C1 04 45 04 80  .............E..
04B0: F0 FF FF 7F F0 FF FF 7F  73 30 32 34 01 80 01 0A  ........s024....
04C0: 05 02 09 10 0A 80 00 DD  04 45 04 80 F0 FF FF 7F  .........E......
04D0: F0 FF FF 7F 73 30 32 34  01 80 01 0A 05 02 09 10  ....s024........
04E0: 1D 80 00 F9 04 45 04 80  F0 FF FF 7F F0 FF FF 7F  .....E..........
04F0: 73 30 30 36 01 80 01 0A  05 45 04 80 F0 FF FF 7F  s006.....E......
0500: F0 FF FF 7F 73 30 33 30  01 80 7B F0 FF FF 7F 1C  ....s030..{.....
0510: 0F 80 27 10 75 62 0B 01  05 2B 92 62 0B 01 1E 80  ..'.ub...+.b....
0520: 23 1C 07 80 27 10 75 62  0B 01 05 2B 92 62 0B 01  #...'.ub...+.b..
0530: 1F 80 23 52 04 80 F0 FF  FF 7F F0 FF FF 7F 73 30  ..#R..........s0
0540: 30 36 52 04 80 F0 FF FF  7F F0 FF FF 7F 73 30 32  06R..........s02
0550: 34 52 04 80 F0 FF FF 7F  F0 FF FF 7F 73 30 33 30  4R..........s030
0560: 45 04 80 F0 FF FF 7F F0  FF FF 7F 73 30 30 37 01  E..........s007.
0570: 80 27 10 75 62 0B 01 05  2B 92 62 0B 01 20 80 23  .'.ub...+.b.. .#
0580: 1C 07 80 27 10 75 62 0B  01 05 2B 92 62 0B 01 21  ...'.ub...+.b..!
0590: 80 23 52 04 80 F0 FF FF  7F F0 FF FF 7F 73 30 30  .#R..........s00
05A0: 37 02 09 10 09 80 00 BD  05 45 04 80 F0 FF FF 7F  7........E......
05B0: F0 FF FF 7F 73 30 32 35  01 80 01 EA 05 02 09 10  ....s025........
05C0: 0A 80 00 D9 05 45 04 80  F0 FF FF 7F F0 FF FF 7F  .....E..........
05D0: 73 30 32 35 01 80 01 EA  05 45 04 80 F0 FF FF 7F  s025.....E......
05E0: F0 FF FF 7F 73 30 30 38  01 80 79 00 F0 FF FF 7F  ....s008..y.....
05F0: 58 62 0B 01 29 08 58 62  0B 01 4F 2B 58 62 0B 01  Xb..).Xb..O+Xb..
0600: 22 80 23 29 08 58 62 0B  01 50 29 08 58 62 0B 01  ".#).Xb..P).Xb..
0610: 51 2B 58 62 0B 01 23 80  23 29 08 58 62 0B 01 52  Q+Xb..#.#).Xb..R
0620: 52 04 80 F0 FF FF 7F F0  FF FF 7F 73 30 32 35 52  R..........s025R
0630: 04 80 F0 FF FF 7F F0 FF  FF 7F 73 30 30 38 45 04  ..........s008E.
0640: 80 F0 FF FF 7F F0 FF FF  7F 73 30 30 39 01 80 29  .........s009..)
0650: 08 58 62 0B 01 4B 2B 58  62 0B 01 24 80 23 2B 58  .Xb..K+Xb..$.#+X
0660: 62 0B 01 25 80 23 29 08  58 62 0B 01 4C 52 04 80  b..%.#).Xb..LR..
0670: F0 FF FF 7F F0 FF FF 7F  73 30 30 39 02 09 10 09  ........s009....
0680: 80 00 98 06 45 04 80 F0  FF FF 7F F0 FF FF 7F 73  ....E..........s
0690: 30 32 36 01 80 01 C5 06  02 09 10 0A 80 00 B4 06  026.............
06A0: 45 04 80 F0 FF FF 7F F0  FF FF 7F 73 30 32 36 01  E..........s026.
06B0: 80 01 C5 06 45 04 80 F0  FF FF 7F F0 FF FF 7F 73  ....E..........s
06C0: 30 31 30 01 80 29 08 58  62 0B 01 4D 2B 58 62 0B  010..).Xb..M+Xb.
06D0: 01 26 80 23 29 08 58 62  0B 01 4E 7B F0 FF FF 7F  .&.#).Xb..N{....
06E0: 27 10 75 62 0B 01 05 2B  92 62 0B 01 27 80 23 52  '.ub...+.b..'.#R
06F0: 04 80 F0 FF FF 7F F0 FF  FF 7F 73 30 32 36 52 04  ..........s026R.
0700: 80 F0 FF FF 7F F0 FF FF  7F 73 30 31 30 02 09 10  .........s010...
0710: 1C 80 00 29 07 45 04 80  F0 FF FF 7F F0 FF FF 7F  ...).E..........
0720: 73 30 31 31 01 80 01 8E  07 02 09 10 09 80 00 45  s011...........E
0730: 07 45 04 80 F0 FF FF 7F  F0 FF FF 7F 73 30 32 37  .E..........s027
0740: 01 80 01 8E 07 02 09 10  0A 80 00 61 07 45 04 80  ...........a.E..
0750: F0 FF FF 7F F0 FF FF 7F  73 30 32 37 01 80 01 8E  ........s027....
0760: 07 02 09 10 1D 80 00 7D  07 45 04 80 F0 FF FF 7F  .......}.E......
0770: F0 FF FF 7F 73 30 31 31  01 80 01 8E 07 45 04 80  ....s011.....E..
0780: F0 FF FF 7F F0 FF FF 7F  73 30 33 31 01 80 1C 07  ........s031....
0790: 80 27 10 75 62 0B 01 05  2B 92 62 0B 01 28 80 23  .'.ub...+.b..(.#
07A0: 1C 29 80 5C A0 01 80 12  80 5C A1 01 80 2A 80 27  .).\.....\...*.'
07B0: 10 75 62 0B 01 05 2B 92  62 0B 01 2B 80 23 24 2C  .ub...+.b..+.#$,
07C0: 80 01 80 01 80 25 02 00  10 01 80 00 07 08 29 08  .....%........).
07D0: F0 FF FF 7F 18 45 00 80  F0 FF FF 7F F0 FF FF 7F  .....E..........
07E0: 66 64 6F 31 01 80 55 00  80 F0 FF FF 7F F0 FF FF  fdo1..U.........
07F0: 7F 66 64 6F 31 27 10 75  62 0B 01 05 2B 92 62 0B  .fdo1'.ub...+.b.
0800: 01 2D 80 23 01 48 08 02  00 10 0D 80 00 48 08 29  .-.#.H.......H.)
0810: 08 F0 FF FF 7F 18 45 00  80 F0 FF FF 7F F0 FF FF  ......E.........
0820: 7F 66 64 6F 31 01 80 55  00 80 F0 FF FF 7F F0 FF  .fdo1..U........
0830: FF 7F 66 64 6F 31 27 10  75 62 0B 01 05 2B 92 62  ..fdo1'.ub...+.b
0840: 0B 01 2E 80 23 01 48 08  52 04 80 F0 FF FF 7F F0  ....#.H.R.......
0850: FF FF 7F 73 30 31 31 52  04 80 F0 FF FF 7F F0 FF  ...s011R........
0860: FF 7F 73 30 32 37 52 04  80 F0 FF FF 7F F0 FF FF  ..s027R.........
0870: 7F 73 30 33 31 45 04 80  F0 FF FF 7F F0 FF FF 7F  .s031E..........
0880: 73 30 31 32 01 80 45 00  80 F0 FF FF 7F F0 FF FF  s012..E.........
0890: 7F 66 64 69 31 01 80 55  00 80 F0 FF FF 7F F0 FF  .fdi1..U........
08A0: FF 7F 66 64 69 31 79 00  F0 FF FF 7F 58 62 0B 01  ..fdi1y.....Xb..
08B0: 29 08 58 62 0B 01 61 2B  58 62 0B 01 2F 80 23 29  ).Xb..a+Xb../.#)
08C0: 08 58 62 0B 01 62 52 04  80 F0 FF FF 7F F0 FF FF  .Xb..bR.........
08D0: 7F 73 30 31 32 02 09 10  09 80 00 F1 08 45 04 80  .s012........E..
08E0: F0 FF FF 7F F0 FF FF 7F  73 30 32 38 01 80 01 1E  ........s028....
08F0: 09 02 09 10 0A 80 00 0D  09 45 04 80 F0 FF FF 7F  .........E......
0900: F0 FF FF 7F 73 30 32 38  01 80 01 1E 09 45 04 80  ....s028.....E..
0910: F0 FF FF 7F F0 FF FF 7F  73 30 31 37 01 80 29 08  ........s017..).
0920: 58 62 0B 01 5F 2B 58 62  0B 01 30 80 23 29 08 58  Xb.._+Xb..0.#).X
0930: 62 0B 01 60 2B 58 62 0B  01 31 80 23 5C 00 32 80  b..`+Xb..1.#\.2.
0940: 5C 01 32 80 9A 52 04 80  F0 FF FF 7F F0 FF FF 7F  \.2..R..........
0950: 73 30 32 38 52 04 80 F0  FF FF 7F F0 FF FF 7F 73  s028R..........s
0960: 30 31 37 45 04 80 F0 FF  FF 7F F0 FF FF 7F 73 30  017E..........s0
0970: 31 33 01 80 29 08 58 62  0B 01 63 2B 58 62 0B 01  13..).Xb..c+Xb..
0980: 33 80 23 29 08 58 62 0B  01 64 29 08 58 62 0B 01  3.#).Xb..d).Xb..
0990: 67 2B 58 62 0B 01 34 80  23 29 08 58 62 0B 01 68  g+Xb..4.#).Xb..h
09A0: 52 04 80 F0 FF FF 7F F0  FF FF 7F 73 30 31 33 45  R..........s013E
09B0: 04 80 F0 FF FF 7F F0 FF  FF 7F 73 30 31 34 01 80  ..........s014..
09C0: 29 08 58 62 0B 01 65 2B  58 62 0B 01 35 80 23 29  ).Xb..e+Xb..5.#)
09D0: 08 58 62 0B 01 66 29 08  58 62 0B 01 53 2B 58 62  .Xb..f).Xb..S+Xb
09E0: 0B 01 36 80 23 29 08 58  62 0B 01 54 52 04 80 F0  ..6.#).Xb..TR...
09F0: FF FF 7F F0 FF FF 7F 73  30 31 34 45 04 80 F0 FF  .......s014E....
0A00: FF 7F F0 FF FF 7F 73 30  32 31 01 80 29 08 58 62  ......s021..).Xb
0A10: 0B 01 57 2B 58 62 0B 01  37 80 23 29 08 58 62 0B  ..W+Xb..7.#).Xb.
0A20: 01 58 29 08 58 62 0B 01  59 2B 58 62 0B 01 38 80  .X).Xb..Y+Xb..8.
0A30: 23 29 08 58 62 0B 01 5A  52 04 80 F0 FF FF 7F F0  #).Xb..ZR.......
0A40: FF FF 7F 73 30 32 31 45  04 80 F0 FF FF 7F F0 FF  ...s021E........
0A50: FF 7F 73 30 31 38 01 80  29 08 58 62 0B 01 55 2B  ..s018..).Xb..U+
0A60: 58 62 0B 01 39 80 23 29  08 58 62 0B 01 56 52 04  Xb..9.#).Xb..VR.
0A70: 80 F0 FF FF 7F F0 FF FF  7F 73 30 31 38 45 04 80  .........s018E..
0A80: F0 FF FF 7F F0 FF FF 7F  73 30 31 35 01 80 27 08  ........s015..'.
0A90: 58 62 0B 01 39 2A 08 58  62 0B 01 2B 58 62 0B 01  Xb..9*.Xb..+Xb..
0AA0: 3A 80 23 52 04 80 F0 FF  FF 7F F0 FF FF 7F 73 30  :.#R..........s0
0AB0: 31 35 02 09 10 09 80 00  CE 0A 45 04 80 F0 FF FF  15........E.....
0AC0: 7F F0 FF FF 7F 73 30 32  39 01 80 01 FB 0A 02 09  .....s029.......
0AD0: 10 0A 80 00 EA 0A 45 04  80 F0 FF FF 7F F0 FF FF  ......E.........
0AE0: 7F 73 30 32 39 01 80 01  FB 0A 45 04 80 F0 FF FF  .s029.....E.....
0AF0: 7F F0 FF FF 7F 73 30 31  39 01 80 29 08 58 62 0B  .....s019..).Xb.
0B00: 01 6D 2B 58 62 0B 01 3B  80 23 29 08 58 62 0B 01  .m+Xb..;.#).Xb..
0B10: 6E 29 08 58 62 0B 01 6F  2B 58 62 0B 01 3C 80 23  n).Xb..o+Xb..<.#
0B20: 29 08 58 62 0B 01 70 4A  58 62 0B 01 F0 FF FF 7F  ).Xb..pJXb......
0B30: 52 04 80 F0 FF FF 7F F0  FF FF 7F 73 30 32 39 52  R..........s029R
0B40: 04 80 F0 FF FF 7F F0 FF  FF 7F 73 30 31 39 45 04  ..........s019E.
0B50: 80 F0 FF FF 7F F0 FF FF  7F 73 30 32 30 01 80 6F  .........s020..o
0B60: 76 58 62 0B 01 BB 3D 80  58 62 0B 01 58 62 0B 01  vXb...=.Xb..Xb..
0B70: 73 74 30 31 01 80 5B 3E  80 58 62 0B 01 58 62 0B  st01..[>.Xb..Xb.
0B80: 01 77 72 70 30 1C 12 80  BB 3D 80 58 62 0B 01 58  .wrp0....=.Xb..X
0B90: 62 0B 01 73 74 30 32 01  80 1C 3F 80 1C 40 80 5C  b..st02...?..@.\
0BA0: A0 01 80 0F 80 5C A1 01  80 41 80 45 00 80 F0 FF  .....\...A.E....
0BB0: FF 7F F0 FF FF 7F 66 64  6F 31 01 80 55 00 80 F0  ......fdo1..U...
0BC0: FF FF 7F F0 FF FF 7F 66  64 6F 31 52 04 80 F0 FF  .......fdo1R....
0BD0: FF 7F F0 FF FF 7F 73 30  32 30 1C 07 80 94 00 F0  ......s020......
0BE0: FF FF 7F 94 00 58 62 0B  01 4E 01 58 62 0B 01 5C  .....Xb..N.Xb..\
0BF0: 00 01 80 5C 01 01 80 9A  1C 42 80 AB 11 01 80 1C  ...\.....B......
0C00: 0D 80 AB 0A 46 00 45 00  80 F0 FF FF 7F F0 FF FF  ....F.E.........
0C10: 7F 66 64 69 32 01 80 20  00 21 00                 .fdi2.. .!.     
```

#### Opcodes

```
  0: 0x0001 [0x42] SET_CLI_EVENT_CANCEL_DATA()
  1: 0x0002 [0x46] CAMERA_CONTROL: Disable user control
  2: 0x0004 [0x45] LOAD_SCHEDULED_TASK: Load scheduler "fdo1" with entities [LocalPlayer, LocalPlayer], work=[200*, 0*]
  3: 0x0015 [0x55] WAIT_LOAD_SCHEDULER: Wait for scheduler "fdo1" with entities [LocalPlayer, LocalPlayer], work=200*
  4: 0x0024 [0x38] SET_CLIENT_EVENT_MODE(mode=19*)
  5: 0x0027 [0x2F] Cait Sith (ID: 17523288/0x010B6258)->Render.Flags0 &= ~0x80000 // Bit 19
  6: 0x002D [0x4E] SET_ENTITY_HIDE_FLAG: Show Cait Sith (ID: 17523288/0x010B6258)
  7: 0x0033 [0x4E] SET_ENTITY_HIDE_FLAG: Show LocalPlayer
  8: 0x0039 [0x80] LOAD_WAIT(entity=Cait Sith (ID: 17523288/0x010B6258))
  9: 0x003E [0x80] LOAD_WAIT(entity=LocalPlayer)
 10: 0x0043 [0x92] Cait Sith (ID: 17523288/0x010B6258)->Render.Flags3 ^= 0x01
 11: 0x0049 [0x94] LocalPlayer->Render.Flags3 ^= 0x01
 12: 0x004F [0x94] Cait Sith (ID: 17523288/0x010B6258)->Render.Flags3 ^= 0x01
 13: 0x0055 [0x29] REQ_SET_WAIT(priority=0x08, entity_id=LocalPlayer, tag_num=0x45)
 14: 0x005C [0x29] REQ_SET_WAIT(priority=0x08, entity_id=Cait Sith (ID: 17523288/0x010B6258), tag_num=0x37)
 15: 0x0063 [0x29] REQ_SET_WAIT(priority=0x08, entity_id=LocalPlayer, tag_num=0x44)
 16: 0x006A [0x29] REQ_SET_WAIT(priority=0x10, entity_id=LocalPlayer, tag_num=0x07)
 17: 0x0071 [0x5C] MUSIC_CONTROL: Set Idle (Day) music to song 40*
 18: 0x0075 [0x5C] MUSIC_CONTROL: Set Idle (Night) music to song 40*
 19: 0x0079 [0x9A] WAIT_MUSIC_SERVER()
 20: 0x007A [0x45] LOAD_SCHEDULED_TASK: Load scheduler "s000" with entities [LocalPlayer, LocalPlayer], work=[696*, 0*]
 21: 0x008B [0x45] LOAD_SCHEDULED_TASK: Load scheduler "fdi1" with entities [LocalPlayer, LocalPlayer], work=[200*, 0*]
 22: 0x009C [0x55] WAIT_LOAD_SCHEDULER: Wait for scheduler "fdi1" with entities [LocalPlayer, LocalPlayer], work=200*
 23: 0x00AB [0x1C] WAIT(100* ticks)
 24: 0x00AE [0x27] REQ_SET(priority=0x10, entity_id=LocalPlayer, tag_num=0x08)
 25: 0x00B5 [0x1C] WAIT(50* ticks)
 26: 0x00B8 [0x27] REQ_SET(priority=0x08, entity_id=Cait Sith (ID: 17523288/0x010B6258), tag_num=0x38)
 27: 0x00BF [0x1C] WAIT(30* ticks)
 28: 0x00C2 [0x52] END_LOAD_SCHEDULER: End scheduler "s000" with entities [LocalPlayer, LocalPlayer], work=696*
 29: 0x00D1 [0x45] LOAD_SCHEDULED_TASK: Load scheduler "s001" with entities [LocalPlayer, LocalPlayer], work=[696*, 0*]
 30: 0x00E2 [0x2A] GET_REQ_LEVEL(level=16, entity_id=LocalPlayer)
 31: 0x00E8 [0x1C] WAIT(100* ticks)
 32: 0x00EB [0x79] Cait Sith (ID: 17523288/0x010B6258) looks at LocalPlayer (Basic look)
 33: 0x00F5 [0x79] LocalPlayer looks at Cait Sith (ID: 17523288/0x010B6258) (Basic look)
 34: 0x00FF [0x27] REQ_SET(priority=0x08, entity_id=LocalPlayer, tag_num=0x46)
 35: 0x0106 [0x1C] WAIT(50* ticks)
 36: 0x0109 [0x1C] WAIT(100* ticks)
 37: 0x010C [0x52] END_LOAD_SCHEDULER: End scheduler "s001" with entities [LocalPlayer, LocalPlayer], work=696*
 38: 0x011B [0x45] LOAD_SCHEDULED_TASK: Load scheduler "s002" with entities [LocalPlayer, LocalPlayer], work=[696*, 0*]
 39: 0x012C [0x2A] GET_REQ_LEVEL(level=8, entity_id=Cait Sith (ID: 17523288/0x010B6258))
 40: 0x0132 [0x1C] WAIT(30* ticks)
 41: 0x0135 [0x2B] Cait Sith (ID: 17523288/0x010B6258) [8147*]:
    → "<Player>, I knew you would come back. Return to me."
 42: 0x013C [0x23] WAIT_FOR_DIALOG_INTERACTION
 43: 0x013D [0x52] END_LOAD_SCHEDULER: End scheduler "s002" with entities [LocalPlayer, LocalPlayer], work=696*
 44: 0x014C [0x02] IF !(Work_Zone[9] == 5*) GOTO 0x0168
 45: 0x0154 [0x45] LOAD_SCHEDULED_TASK: Load scheduler "s022" with entities [LocalPlayer, LocalPlayer], work=[696*, 0*]
 46: 0x0165 [0x01] GOTO 0x0195
 47: 0x0168 [0x02] IF !(Work_Zone[9] == 6*) GOTO 0x0184
 48: 0x0170 [0x45] LOAD_SCHEDULED_TASK: Load scheduler "s022" with entities [LocalPlayer, LocalPlayer], work=[696*, 0*]
 49: 0x0181 [0x01] GOTO 0x0195
 50: 0x0184 [0x45] LOAD_SCHEDULED_TASK: Load scheduler "s003" with entities [LocalPlayer, LocalPlayer], work=[696*, 0*]

SUBROUTINE_0195:
 51: 0x0195 [0x29] REQ_SET_WAIT(priority=0x08, entity_id=Cait Sith (ID: 17523288/0x010B6258), tag_num=0x5B)
 52: 0x019C [0x79] Cait Sith (ID: 17523288/0x010B6258) looks at LocalPlayer (Basic look)
 53: 0x01A6 [0x2B] Cait Sith (ID: 17523288/0x010B6258) [8148*]:
    → "Things have gotten a bit hairy since you were last here. I helped you before, so now it's your turn to lend me your aid. Listen to my plight."
 54: 0x01AD [0x23] WAIT_FOR_DIALOG_INTERACTION
 55: 0x01AE [0x29] REQ_SET_WAIT(priority=0x08, entity_id=Cait Sith (ID: 17523288/0x010B6258), tag_num=0x5C)
 56: 0x01B5 [0x29] REQ_SET_WAIT(priority=0x08, entity_id=Cait Sith (ID: 17523288/0x010B6258), tag_num=0x5D)
 57: 0x01BC [0x29] REQ_SET_WAIT(priority=0x08, entity_id=Cait Sith (ID: 17523288/0x010B6258), tag_num=0x5E)
 58: 0x01C3 [0x2A] GET_REQ_LEVEL(level=8, entity_id=LocalPlayer)
 59: 0x01C9 [0x52] END_LOAD_SCHEDULER: End scheduler "s022" with entities [LocalPlayer, LocalPlayer], work=696*
 60: 0x01D8 [0x52] END_LOAD_SCHEDULER: End scheduler "s003" with entities [LocalPlayer, LocalPlayer], work=696*
 61: 0x01E7 [0x06] ExtData[1]->WorkLocal[0] = 0

SUBROUTINE_01EA:
 62: 0x01EA [0x02] IF !(ExtData[1]->WorkLocal[0] == 0*) GOTO 0x02F1
 63: 0x01F2 [0x24] CREATE_DIALOG(message_id=8149*, default_option=0*, option_flags=0*)
    → "Assist Cait Sith? [Absolutely./Not happening.]"
 64: 0x01F9 [0x25] WAIT_DIALOG_SELECT()
 65: 0x01FA [0x02] IF !(Work_Zone[0] == 0*) GOTO 0x0208
 66: 0x0202 [0x05] ExtData[1]->WorkLocal[0] = 1
 67: 0x0205 [0x01] GOTO 0x02EE
 68: 0x0208 [0x02] IF !(Work_Zone[0] == 1*) GOTO 0x02EE
 69: 0x0210 [0x45] LOAD_SCHEDULED_TASK: Load scheduler "s016" with entities [LocalPlayer, LocalPlayer], work=[696*, 0*]
 70: 0x0221 [0x29] REQ_SET_WAIT(priority=0x08, entity_id=Cait Sith (ID: 17523288/0x010B6258), tag_num=0x83)
 71: 0x0228 [0x2B] Cait Sith (ID: 17523288/0x010B6258) [8150*]:
    → "Why noooooot?"
 72: 0x022F [0x1C] WAIT(60* ticks)
 73: 0x0232 [0x6E] LocalPlayer uses emote 21*
 74: 0x0239 [0x99] Wait for LocalPlayer animation to complete
 75: 0x023E [0x23] WAIT_FOR_DIALOG_INTERACTION
 76: 0x023F [0x2B] Cait Sith (ID: 17523288/0x010B6258) [8151*]:
    → "You and I were supposed to be bosom buddies, but the whole time you were just one-sidedly suckling at my teat..."
 77: 0x0246 [0x23] WAIT_FOR_DIALOG_INTERACTION
 78: 0x0247 [0x45] LOAD_SCHEDULED_TASK: Load scheduler "fdo1" with entities [LocalPlayer, LocalPlayer], work=[200*, 0*]
 79: 0x0258 [0x55] WAIT_LOAD_SCHEDULER: Wait for scheduler "fdo1" with entities [LocalPlayer, LocalPlayer], work=200*
 80: 0x0267 [0x52] END_LOAD_SCHEDULER: End scheduler "s006" with entities [LocalPlayer, LocalPlayer], work=696*
 81: 0x0276 [0x6B] STOP_AND_IDLE: Cait Sith (ID: 17523288/0x010B6258) stops current action and resets to idle (animation="idl0")
 82: 0x027F [0x1C] WAIT(30* ticks)
 83: 0x0282 [0x02] IF !(Work_Zone[9] == 5*) GOTO 0x029E
 84: 0x028A [0x45] LOAD_SCHEDULED_TASK: Load scheduler "s022" with entities [LocalPlayer, LocalPlayer], work=[696*, 0*]
 85: 0x029B [0x01] GOTO 0x02CB
 86: 0x029E [0x02] IF !(Work_Zone[9] == 6*) GOTO 0x02BA
 87: 0x02A6 [0x45] LOAD_SCHEDULED_TASK: Load scheduler "s022" with entities [LocalPlayer, LocalPlayer], work=[696*, 0*]
 88: 0x02B7 [0x01] GOTO 0x02CB
 89: 0x02BA [0x45] LOAD_SCHEDULED_TASK: Load scheduler "s003" with entities [LocalPlayer, LocalPlayer], work=[696*, 0*]

SUBROUTINE_02CB:
 90: 0x02CB [0x45] LOAD_SCHEDULED_TASK: Load scheduler "fdi1" with entities [LocalPlayer, LocalPlayer], work=[200*, 0*]
 91: 0x02DC [0x55] WAIT_LOAD_SCHEDULER: Wait for scheduler "fdi1" with entities [LocalPlayer, LocalPlayer], work=200*
 92: 0x02EB [0x01] GOTO 0x02EE

SUBROUTINE_02EE:
 93: 0x02EE [0x01] GOTO 0x01EA
 94: 0x02F1 [0x52] END_LOAD_SCHEDULER: End scheduler "s022" with entities [LocalPlayer, LocalPlayer], work=696*
 95: 0x0300 [0x52] END_LOAD_SCHEDULER: End scheduler "s003" with entities [LocalPlayer, LocalPlayer], work=696*
 96: 0x030F [0x5C] MUSIC_CONTROL: Set music volume to song 0*, fade_time=300*
 97: 0x0315 [0x5C] MUSIC_CONTROL: Adjust music volume to song 0*, fade_time=300*
 98: 0x031B [0x45] LOAD_SCHEDULED_TASK: Load scheduler "s004" with entities [LocalPlayer, LocalPlayer], work=[696*, 0*]
 99: 0x032C [0x7B] Cait Sith (ID: 17523288/0x010B6258) stops talking
100: 0x0331 [0x29] REQ_SET_WAIT(priority=0x08, entity_id=Cait Sith (ID: 17523288/0x010B6258), tag_num=0x69)
101: 0x0338 [0x2B] Cait Sith (ID: 17523288/0x010B6258) [8152*]:
    → "You've always been such a good friend. A friendly do-gooder. So pure of heart, in fact, that I'm sure you can hear her calling out."
102: 0x033F [0x23] WAIT_FOR_DIALOG_INTERACTION
103: 0x0340 [0x29] REQ_SET_WAIT(priority=0x08, entity_id=Cait Sith (ID: 17523288/0x010B6258), tag_num=0x6A)
104: 0x0347 [0x29] REQ_SET_WAIT(priority=0x08, entity_id=Cait Sith (ID: 17523288/0x010B6258), tag_num=0x6B)
105: 0x034E [0x2B] Cait Sith (ID: 17523288/0x010B6258) [8153*]:
    → "Close your eyes and open your ears..."
106: 0x0355 [0x23] WAIT_FOR_DIALOG_INTERACTION
107: 0x0356 [0x29] REQ_SET_WAIT(priority=0x08, entity_id=Cait Sith (ID: 17523288/0x010B6258), tag_num=0x6C)
108: 0x035D [0x45] LOAD_SCHEDULED_TASK: Load scheduler "fdo1" with entities [LocalPlayer, LocalPlayer], work=[200*, 0*]
109: 0x036E [0x55] WAIT_LOAD_SCHEDULER: Wait for scheduler "fdo1" with entities [LocalPlayer, LocalPlayer], work=200*
110: 0x037D [0x52] END_LOAD_SCHEDULER: End scheduler "s004" with entities [LocalPlayer, LocalPlayer], work=696*
111: 0x038C [0x48] [System] [7700*]:
    → "@@"
112: 0x038F [0x23] WAIT_FOR_DIALOG_INTERACTION
113: 0x0390 [0x5C] MUSIC_CONTROL: Set Idle (Day) music to song 54*
114: 0x0394 [0x5C] MUSIC_CONTROL: Set Idle (Night) music to song 54*
115: 0x0398 [0x9A] WAIT_MUSIC_SERVER()
116: 0x0399 [0x1C] WAIT(30* ticks)
117: 0x039C [0x27] REQ_SET(priority=0x10, entity_id=Unnamed NPC (ID: 17523317/0x010B6275), tag_num=0x05)
118: 0x03A3 [0x2B] ??? (ID: 17523316/0x010B6274) [8154*]:
    → "Can...hear...please..."
119: 0x03AA [0x23] WAIT_FOR_DIALOG_INTERACTION
120: 0x03AB [0x1C] WAIT(30* ticks)
121: 0x03AE [0x27] REQ_SET(priority=0x10, entity_id=Unnamed NPC (ID: 17523317/0x010B6275), tag_num=0x05)
122: 0x03B5 [0x2B] ??? (ID: 17523316/0x010B6274) [8155*]:
    → "Altana...Ato...forbi...dark...Kindr..."
123: 0x03BC [0x23] WAIT_FOR_DIALOG_INTERACTION
124: 0x03BD [0x02] IF !(Work_Zone[9] == 5*) GOTO 0x03D9
125: 0x03C5 [0x45] LOAD_SCHEDULED_TASK: Load scheduler "s023" with entities [LocalPlayer, LocalPlayer], work=[696*, 0*]
126: 0x03D6 [0x01] GOTO 0x0406
127: 0x03D9 [0x02] IF !(Work_Zone[9] == 6*) GOTO 0x03F5
128: 0x03E1 [0x45] LOAD_SCHEDULED_TASK: Load scheduler "s023" with entities [LocalPlayer, LocalPlayer], work=[696*, 0*]
129: 0x03F2 [0x01] GOTO 0x0406
130: 0x03F5 [0x45] LOAD_SCHEDULED_TASK: Load scheduler "s005" with entities [LocalPlayer, LocalPlayer], work=[696*, 0*]

SUBROUTINE_0406:
131: 0x0406 [0x45] LOAD_SCHEDULED_TASK: Load scheduler "fdi1" with entities [LocalPlayer, LocalPlayer], work=[200*, 0*]
132: 0x0417 [0x55] WAIT_LOAD_SCHEDULER: Wait for scheduler "fdi1" with entities [LocalPlayer, LocalPlayer], work=200*
133: 0x0426 [0x79] Cait Sith (ID: 17523288/0x010B6258) looks at LocalPlayer (Basic look)
134: 0x0430 [0x29] REQ_SET_WAIT(priority=0x08, entity_id=Cait Sith (ID: 17523288/0x010B6258), tag_num=0x79)
135: 0x0437 [0x2B] Cait Sith (ID: 17523288/0x010B6258) [8156*]:
    → "So? Can you hear her calling out to you? Asking you things?"
136: 0x043E [0x23] WAIT_FOR_DIALOG_INTERACTION
137: 0x043F [0x29] REQ_SET_WAIT(priority=0x08, entity_id=Cait Sith (ID: 17523288/0x010B6258), tag_num=0x79)
138: 0x0446 [0x29] REQ_SET_WAIT(priority=0x08, entity_id=Cait Sith (ID: 17523288/0x010B6258), tag_num=0x7B)
139: 0x044D [0x2B] Cait Sith (ID: 17523288/0x010B6258) [8157*]:
    → "Only when you can feel her heart and spirit will you be able to fully comprehend. Wholly understand. Please, help her."
140: 0x0454 [0x23] WAIT_FOR_DIALOG_INTERACTION
141: 0x0455 [0x29] REQ_SET_WAIT(priority=0x08, entity_id=Cait Sith (ID: 17523288/0x010B6258), tag_num=0x7C)
142: 0x045C [0x6E] LocalPlayer uses emote 7*
143: 0x0463 [0x99] Wait for LocalPlayer animation to complete
144: 0x0468 [0x1C] WAIT(60* ticks)
145: 0x046B [0x52] END_LOAD_SCHEDULER: End scheduler "s023" with entities [LocalPlayer, LocalPlayer], work=696*
146: 0x047A [0x52] END_LOAD_SCHEDULER: End scheduler "s005" with entities [LocalPlayer, LocalPlayer], work=696*
147: 0x0489 [0x02] IF !(Work_Zone[9] == 3*) GOTO 0x04A5
148: 0x0491 [0x45] LOAD_SCHEDULED_TASK: Load scheduler "s006" with entities [LocalPlayer, LocalPlayer], work=[696*, 0*]
149: 0x04A2 [0x01] GOTO 0x050A
150: 0x04A5 [0x02] IF !(Work_Zone[9] == 5*) GOTO 0x04C1
151: 0x04AD [0x45] LOAD_SCHEDULED_TASK: Load scheduler "s024" with entities [LocalPlayer, LocalPlayer], work=[696*, 0*]
152: 0x04BE [0x01] GOTO 0x050A
153: 0x04C1 [0x02] IF !(Work_Zone[9] == 6*) GOTO 0x04DD
154: 0x04C9 [0x45] LOAD_SCHEDULED_TASK: Load scheduler "s024" with entities [LocalPlayer, LocalPlayer], work=[696*, 0*]
155: 0x04DA [0x01] GOTO 0x050A
156: 0x04DD [0x02] IF !(Work_Zone[9] == 8*) GOTO 0x04F9
157: 0x04E5 [0x45] LOAD_SCHEDULED_TASK: Load scheduler "s006" with entities [LocalPlayer, LocalPlayer], work=[696*, 0*]
158: 0x04F6 [0x01] GOTO 0x050A
159: 0x04F9 [0x45] LOAD_SCHEDULED_TASK: Load scheduler "s030" with entities [LocalPlayer, LocalPlayer], work=[696*, 0*]

SUBROUTINE_050A:
160: 0x050A [0x7B] LocalPlayer stops talking
161: 0x050F [0x1C] WAIT(60* ticks)
162: 0x0512 [0x27] REQ_SET(priority=0x10, entity_id=Unnamed NPC (ID: 17523317/0x010B6275), tag_num=0x05)
163: 0x0519 [0x2B] Lilisette (ID: 17523346/0x010B6292) [8158*]:
    → "Grand fight...dark future...we gave it our all..."
164: 0x0520 [0x23] WAIT_FOR_DIALOG_INTERACTION
165: 0x0521 [0x1C] WAIT(30* ticks)
166: 0x0524 [0x27] REQ_SET(priority=0x10, entity_id=Unnamed NPC (ID: 17523317/0x010B6275), tag_num=0x05)
167: 0x052B [0x2B] Lilisette (ID: 17523346/0x010B6292) [8159*]:
    → "We tried to stop the Kindred..."
168: 0x0532 [0x23] WAIT_FOR_DIALOG_INTERACTION
169: 0x0533 [0x52] END_LOAD_SCHEDULER: End scheduler "s006" with entities [LocalPlayer, LocalPlayer], work=696*
170: 0x0542 [0x52] END_LOAD_SCHEDULER: End scheduler "s024" with entities [LocalPlayer, LocalPlayer], work=696*
171: 0x0551 [0x52] END_LOAD_SCHEDULER: End scheduler "s030" with entities [LocalPlayer, LocalPlayer], work=696*
172: 0x0560 [0x45] LOAD_SCHEDULED_TASK: Load scheduler "s007" with entities [LocalPlayer, LocalPlayer], work=[696*, 0*]
173: 0x0571 [0x27] REQ_SET(priority=0x10, entity_id=Unnamed NPC (ID: 17523317/0x010B6275), tag_num=0x05)
174: 0x0578 [0x2B] Lilisette (ID: 17523346/0x010B6292) [8160*]:
    → "And one false step would have spelled...ends..."
175: 0x057F [0x23] WAIT_FOR_DIALOG_INTERACTION
176: 0x0580 [0x1C] WAIT(30* ticks)
177: 0x0583 [0x27] REQ_SET(priority=0x10, entity_id=Unnamed NPC (ID: 17523317/0x010B6275), tag_num=0x05)
178: 0x058A [0x2B] Lilisette (ID: 17523346/0x010B6292) [8161*]:
    → "I tried, but the cavernous maw I sealed...they... ...They opened it."
179: 0x0591 [0x23] WAIT_FOR_DIALOG_INTERACTION
180: 0x0592 [0x52] END_LOAD_SCHEDULER: End scheduler "s007" with entities [LocalPlayer, LocalPlayer], work=696*
181: 0x05A1 [0x02] IF !(Work_Zone[9] == 5*) GOTO 0x05BD
182: 0x05A9 [0x45] LOAD_SCHEDULED_TASK: Load scheduler "s025" with entities [LocalPlayer, LocalPlayer], work=[696*, 0*]
183: 0x05BA [0x01] GOTO 0x05EA
184: 0x05BD [0x02] IF !(Work_Zone[9] == 6*) GOTO 0x05D9
185: 0x05C5 [0x45] LOAD_SCHEDULED_TASK: Load scheduler "s025" with entities [LocalPlayer, LocalPlayer], work=[696*, 0*]
186: 0x05D6 [0x01] GOTO 0x05EA
187: 0x05D9 [0x45] LOAD_SCHEDULED_TASK: Load scheduler "s008" with entities [LocalPlayer, LocalPlayer], work=[696*, 0*]

SUBROUTINE_05EA:
188: 0x05EA [0x79] LocalPlayer looks at Cait Sith (ID: 17523288/0x010B6258) (Basic look)
189: 0x05F4 [0x29] REQ_SET_WAIT(priority=0x08, entity_id=Cait Sith (ID: 17523288/0x010B6258), tag_num=0x4F)
190: 0x05FB [0x2B] Cait Sith (ID: 17523288/0x010B6258) [8162*]:
    → "You see, Lilisette is fighting tooth and claw in her world, leading the just against the profane. The ones who wish to harm our world."
191: 0x0602 [0x23] WAIT_FOR_DIALOG_INTERACTION
192: 0x0603 [0x29] REQ_SET_WAIT(priority=0x08, entity_id=Cait Sith (ID: 17523288/0x010B6258), tag_num=0x50)
193: 0x060A [0x29] REQ_SET_WAIT(priority=0x08, entity_id=Cait Sith (ID: 17523288/0x010B6258), tag_num=0x51)
194: 0x0611 [0x2B] Cait Sith (ID: 17523288/0x010B6258) [8163*]:
    → "Their raids on Shadow Kindred strongholds have sowed chaos and prevented the sinister forces from making further inroads."
195: 0x0618 [0x23] WAIT_FOR_DIALOG_INTERACTION
196: 0x0619 [0x29] REQ_SET_WAIT(priority=0x08, entity_id=Cait Sith (ID: 17523288/0x010B6258), tag_num=0x52)
197: 0x0620 [0x52] END_LOAD_SCHEDULER: End scheduler "s025" with entities [LocalPlayer, LocalPlayer], work=696*
198: 0x062F [0x52] END_LOAD_SCHEDULER: End scheduler "s008" with entities [LocalPlayer, LocalPlayer], work=696*
199: 0x063E [0x45] LOAD_SCHEDULED_TASK: Load scheduler "s009" with entities [LocalPlayer, LocalPlayer], work=[696*, 0*]
200: 0x064F [0x29] REQ_SET_WAIT(priority=0x08, entity_id=Cait Sith (ID: 17523288/0x010B6258), tag_num=0x4B)
201: 0x0656 [0x2B] Cait Sith (ID: 17523288/0x010B6258) [8164*]:
    → "But now they've set their beady little eyes on something bigger...Atomos."
202: 0x065D [0x23] WAIT_FOR_DIALOG_INTERACTION
203: 0x065E [0x2B] Cait Sith (ID: 17523288/0x010B6258) [8165*]:
    → "They want their foothold to turn into utter domination, and are trying to use the Walk of Echoes to return to the past. Our past."
204: 0x0665 [0x23] WAIT_FOR_DIALOG_INTERACTION
205: 0x0666 [0x29] REQ_SET_WAIT(priority=0x08, entity_id=Cait Sith (ID: 17523288/0x010B6258), tag_num=0x4C)
206: 0x066D [0x52] END_LOAD_SCHEDULER: End scheduler "s009" with entities [LocalPlayer, LocalPlayer], work=696*
207: 0x067C [0x02] IF !(Work_Zone[9] == 5*) GOTO 0x0698
208: 0x0684 [0x45] LOAD_SCHEDULED_TASK: Load scheduler "s026" with entities [LocalPlayer, LocalPlayer], work=[696*, 0*]
209: 0x0695 [0x01] GOTO 0x06C5
210: 0x0698 [0x02] IF !(Work_Zone[9] == 6*) GOTO 0x06B4
211: 0x06A0 [0x45] LOAD_SCHEDULED_TASK: Load scheduler "s026" with entities [LocalPlayer, LocalPlayer], work=[696*, 0*]
212: 0x06B1 [0x01] GOTO 0x06C5
213: 0x06B4 [0x45] LOAD_SCHEDULED_TASK: Load scheduler "s010" with entities [LocalPlayer, LocalPlayer], work=[696*, 0*]

SUBROUTINE_06C5:
214: 0x06C5 [0x29] REQ_SET_WAIT(priority=0x08, entity_id=Cait Sith (ID: 17523288/0x010B6258), tag_num=0x4D)
215: 0x06CC [0x2B] Cait Sith (ID: 17523288/0x010B6258) [8166*]:
    → "Lady Lilith is a magnanimous maiden compared to them, and they leave no hope in their wake. Everything shrouded in despair."
216: 0x06D3 [0x23] WAIT_FOR_DIALOG_INTERACTION
217: 0x06D4 [0x29] REQ_SET_WAIT(priority=0x08, entity_id=Cait Sith (ID: 17523288/0x010B6258), tag_num=0x4E)
218: 0x06DB [0x7B] LocalPlayer stops talking
219: 0x06E0 [0x27] REQ_SET(priority=0x10, entity_id=Unnamed NPC (ID: 17523317/0x010B6275), tag_num=0x05)
220: 0x06E7 [0x2B] Lilisette (ID: 17523346/0x010B6292) [8167*]:
    → "Please...need your...once more..."
221: 0x06EE [0x23] WAIT_FOR_DIALOG_INTERACTION
222: 0x06EF [0x52] END_LOAD_SCHEDULER: End scheduler "s026" with entities [LocalPlayer, LocalPlayer], work=696*
223: 0x06FE [0x52] END_LOAD_SCHEDULER: End scheduler "s010" with entities [LocalPlayer, LocalPlayer], work=696*
224: 0x070D [0x02] IF !(Work_Zone[9] == 3*) GOTO 0x0729
225: 0x0715 [0x45] LOAD_SCHEDULED_TASK: Load scheduler "s011" with entities [LocalPlayer, LocalPlayer], work=[696*, 0*]
226: 0x0726 [0x01] GOTO 0x078E
227: 0x0729 [0x02] IF !(Work_Zone[9] == 5*) GOTO 0x0745
228: 0x0731 [0x45] LOAD_SCHEDULED_TASK: Load scheduler "s027" with entities [LocalPlayer, LocalPlayer], work=[696*, 0*]
229: 0x0742 [0x01] GOTO 0x078E
230: 0x0745 [0x02] IF !(Work_Zone[9] == 6*) GOTO 0x0761
231: 0x074D [0x45] LOAD_SCHEDULED_TASK: Load scheduler "s027" with entities [LocalPlayer, LocalPlayer], work=[696*, 0*]
232: 0x075E [0x01] GOTO 0x078E
233: 0x0761 [0x02] IF !(Work_Zone[9] == 8*) GOTO 0x077D
234: 0x0769 [0x45] LOAD_SCHEDULED_TASK: Load scheduler "s011" with entities [LocalPlayer, LocalPlayer], work=[696*, 0*]
235: 0x077A [0x01] GOTO 0x078E
236: 0x077D [0x45] LOAD_SCHEDULED_TASK: Load scheduler "s031" with entities [LocalPlayer, LocalPlayer], work=[696*, 0*]

SUBROUTINE_078E:
237: 0x078E [0x1C] WAIT(30* ticks)
238: 0x0791 [0x27] REQ_SET(priority=0x10, entity_id=Unnamed NPC (ID: 17523317/0x010B6275), tag_num=0x05)
239: 0x0798 [0x2B] Lilisette (ID: 17523346/0x010B6292) [8168*]:
    → "I hope....voice...can reach..."
240: 0x079F [0x23] WAIT_FOR_DIALOG_INTERACTION
241: 0x07A0 [0x1C] WAIT(90* ticks)
242: 0x07A3 [0x5C] MUSIC_CONTROL: Set music volume to song 0*, fade_time=300*
243: 0x07A9 [0x5C] MUSIC_CONTROL: Adjust music volume to song 0*, fade_time=600*
244: 0x07AF [0x27] REQ_SET(priority=0x10, entity_id=Unnamed NPC (ID: 17523317/0x010B6275), tag_num=0x05)
245: 0x07B6 [0x2B] Lilisette (ID: 17523346/0x010B6292) [8169*]:
    → "Is it...? ...<Player>..."
246: 0x07BD [0x23] WAIT_FOR_DIALOG_INTERACTION
247: 0x07BE [0x24] CREATE_DIALOG(message_id=8170*, default_option=0*, option_flags=0*)
    → "How do you respond? [Don't lose heart!/I can't hear you!]"
248: 0x07C5 [0x25] WAIT_DIALOG_SELECT()
249: 0x07C6 [0x02] IF !(Work_Zone[0] == 0*) GOTO 0x0807
250: 0x07CE [0x29] REQ_SET_WAIT(priority=0x08, entity_id=LocalPlayer, tag_num=0x18)
251: 0x07D5 [0x45] LOAD_SCHEDULED_TASK: Load scheduler "fdo1" with entities [LocalPlayer, LocalPlayer], work=[200*, 0*]
252: 0x07E6 [0x55] WAIT_LOAD_SCHEDULER: Wait for scheduler "fdo1" with entities [LocalPlayer, LocalPlayer], work=200*
253: 0x07F5 [0x27] REQ_SET(priority=0x10, entity_id=Unnamed NPC (ID: 17523317/0x010B6275), tag_num=0x05)
254: 0x07FC [0x2B] Lilisette (ID: 17523346/0x010B6292) [8172*]:
    → "...Hear me? <Player>...waiting for...!"
255: 0x0803 [0x23] WAIT_FOR_DIALOG_INTERACTION
256: 0x0804 [0x01] GOTO 0x0848
257: 0x0807 [0x02] IF !(Work_Zone[0] == 1*) GOTO 0x0848
258: 0x080F [0x29] REQ_SET_WAIT(priority=0x08, entity_id=LocalPlayer, tag_num=0x18)
259: 0x0816 [0x45] LOAD_SCHEDULED_TASK: Load scheduler "fdo1" with entities [LocalPlayer, LocalPlayer], work=[200*, 0*]
260: 0x0827 [0x55] WAIT_LOAD_SCHEDULER: Wait for scheduler "fdo1" with entities [LocalPlayer, LocalPlayer], work=200*
261: 0x0836 [0x27] REQ_SET(priority=0x10, entity_id=Unnamed NPC (ID: 17523317/0x010B6275), tag_num=0x05)
262: 0x083D [0x2B] Lilisette (ID: 17523346/0x010B6292) [8171*]:
    → "...Hear me? ...No? But I..."
263: 0x0844 [0x23] WAIT_FOR_DIALOG_INTERACTION
264: 0x0845 [0x01] GOTO 0x0848

SUBROUTINE_0848:
265: 0x0848 [0x52] END_LOAD_SCHEDULER: End scheduler "s011" with entities [LocalPlayer, LocalPlayer], work=696*
266: 0x0857 [0x52] END_LOAD_SCHEDULER: End scheduler "s027" with entities [LocalPlayer, LocalPlayer], work=696*
267: 0x0866 [0x52] END_LOAD_SCHEDULER: End scheduler "s031" with entities [LocalPlayer, LocalPlayer], work=696*
268: 0x0875 [0x45] LOAD_SCHEDULED_TASK: Load scheduler "s012" with entities [LocalPlayer, LocalPlayer], work=[696*, 0*]
269: 0x0886 [0x45] LOAD_SCHEDULED_TASK: Load scheduler "fdi1" with entities [LocalPlayer, LocalPlayer], work=[200*, 0*]
270: 0x0897 [0x55] WAIT_LOAD_SCHEDULER: Wait for scheduler "fdi1" with entities [LocalPlayer, LocalPlayer], work=200*
271: 0x08A6 [0x79] LocalPlayer looks at Cait Sith (ID: 17523288/0x010B6258) (Basic look)
272: 0x08B0 [0x29] REQ_SET_WAIT(priority=0x08, entity_id=Cait Sith (ID: 17523288/0x010B6258), tag_num=0x61)
273: 0x08B7 [0x2B] Cait Sith (ID: 17523288/0x010B6258) [8173*]:
    → "You really did it, <Player>! She could hear you! Understand what you said!"
274: 0x08BE [0x23] WAIT_FOR_DIALOG_INTERACTION
275: 0x08BF [0x29] REQ_SET_WAIT(priority=0x08, entity_id=Cait Sith (ID: 17523288/0x010B6258), tag_num=0x62)
276: 0x08C6 [0x52] END_LOAD_SCHEDULER: End scheduler "s012" with entities [LocalPlayer, LocalPlayer], work=696*
277: 0x08D5 [0x02] IF !(Work_Zone[9] == 5*) GOTO 0x08F1
278: 0x08DD [0x45] LOAD_SCHEDULED_TASK: Load scheduler "s028" with entities [LocalPlayer, LocalPlayer], work=[696*, 0*]
279: 0x08EE [0x01] GOTO 0x091E
280: 0x08F1 [0x02] IF !(Work_Zone[9] == 6*) GOTO 0x090D
281: 0x08F9 [0x45] LOAD_SCHEDULED_TASK: Load scheduler "s028" with entities [LocalPlayer, LocalPlayer], work=[696*, 0*]
282: 0x090A [0x01] GOTO 0x091E
283: 0x090D [0x45] LOAD_SCHEDULED_TASK: Load scheduler "s017" with entities [LocalPlayer, LocalPlayer], work=[696*, 0*]

SUBROUTINE_091E:
284: 0x091E [0x29] REQ_SET_WAIT(priority=0x08, entity_id=Cait Sith (ID: 17523288/0x010B6258), tag_num=0x5F)
285: 0x0925 [0x2B] Cait Sith (ID: 17523288/0x010B6258) [8174*]:
    → "Spoken like a true Champion of the Dawn!"
286: 0x092C [0x23] WAIT_FOR_DIALOG_INTERACTION
287: 0x092D [0x29] REQ_SET_WAIT(priority=0x08, entity_id=Cait Sith (ID: 17523288/0x010B6258), tag_num=0x60)
288: 0x0934 [0x2B] Cait Sith (ID: 17523288/0x010B6258) [8175*]:
    → "The time's come to quit catting around and tell you what's going on."
289: 0x093B [0x23] WAIT_FOR_DIALOG_INTERACTION
290: 0x093C [0x5C] MUSIC_CONTROL: Set Idle (Day) music to song 45*
291: 0x0940 [0x5C] MUSIC_CONTROL: Set Idle (Night) music to song 45*
292: 0x0944 [0x9A] WAIT_MUSIC_SERVER()
293: 0x0945 [0x52] END_LOAD_SCHEDULER: End scheduler "s028" with entities [LocalPlayer, LocalPlayer], work=696*
294: 0x0954 [0x52] END_LOAD_SCHEDULER: End scheduler "s017" with entities [LocalPlayer, LocalPlayer], work=696*
295: 0x0963 [0x45] LOAD_SCHEDULED_TASK: Load scheduler "s013" with entities [LocalPlayer, LocalPlayer], work=[696*, 0*]
296: 0x0974 [0x29] REQ_SET_WAIT(priority=0x08, entity_id=Cait Sith (ID: 17523288/0x010B6258), tag_num=0x63)
297: 0x097B [0x2B] Cait Sith (ID: 17523288/0x010B6258) [8176*]:
    → "Everything Lilisette said was true. Fully verified. She ventured to the dark future and sealed the cavernous maws--which are being forced open by the Shadow Kindred."
298: 0x0982 [0x23] WAIT_FOR_DIALOG_INTERACTION
299: 0x0983 [0x29] REQ_SET_WAIT(priority=0x08, entity_id=Cait Sith (ID: 17523288/0x010B6258), tag_num=0x64)
300: 0x098A [0x29] REQ_SET_WAIT(priority=0x08, entity_id=Cait Sith (ID: 17523288/0x010B6258), tag_num=0x67)
301: 0x0991 [0x2B] Cait Sith (ID: 17523288/0x010B6258) [8177*]:
    → "They haven't found the trump card, though--the entrance to the past here in the Walk of Echoes."
302: 0x0998 [0x23] WAIT_FOR_DIALOG_INTERACTION
303: 0x0999 [0x29] REQ_SET_WAIT(priority=0x08, entity_id=Cait Sith (ID: 17523288/0x010B6258), tag_num=0x68)
304: 0x09A0 [0x52] END_LOAD_SCHEDULER: End scheduler "s013" with entities [LocalPlayer, LocalPlayer], work=696*
305: 0x09AF [0x45] LOAD_SCHEDULED_TASK: Load scheduler "s014" with entities [LocalPlayer, LocalPlayer], work=[696*, 0*]
306: 0x09C0 [0x29] REQ_SET_WAIT(priority=0x08, entity_id=Cait Sith (ID: 17523288/0x010B6258), tag_num=0x65)
307: 0x09C7 [0x2B] Cait Sith (ID: 17523288/0x010B6258) [8178*]:
    → "Lilisette has trapped those few who've stumbled close, but there's limits to what she can do on her own."
308: 0x09CE [0x23] WAIT_FOR_DIALOG_INTERACTION
309: 0x09CF [0x29] REQ_SET_WAIT(priority=0x08, entity_id=Cait Sith (ID: 17523288/0x010B6258), tag_num=0x66)
310: 0x09D6 [0x29] REQ_SET_WAIT(priority=0x08, entity_id=Cait Sith (ID: 17523288/0x010B6258), tag_num=0x53)
311: 0x09DD [0x2B] Cait Sith (ID: 17523288/0x010B6258) [8179*]:
    → "Not to say that I didn't help. Lend a hand. But everything happened so quickly..."
312: 0x09E4 [0x23] WAIT_FOR_DIALOG_INTERACTION
313: 0x09E5 [0x29] REQ_SET_WAIT(priority=0x08, entity_id=Cait Sith (ID: 17523288/0x010B6258), tag_num=0x54)
314: 0x09EC [0x52] END_LOAD_SCHEDULER: End scheduler "s014" with entities [LocalPlayer, LocalPlayer], work=696*
315: 0x09FB [0x45] LOAD_SCHEDULED_TASK: Load scheduler "s021" with entities [LocalPlayer, LocalPlayer], work=[696*, 0*]
316: 0x0A0C [0x29] REQ_SET_WAIT(priority=0x08, entity_id=Cait Sith (ID: 17523288/0x010B6258), tag_num=0x57)
317: 0x0A13 [0x2B] Cait Sith (ID: 17523288/0x010B6258) [8180*]:
    → "...And it takes all my strength to frazzle the gates that connect this world to that one."
318: 0x0A1A [0x23] WAIT_FOR_DIALOG_INTERACTION
319: 0x0A1B [0x29] REQ_SET_WAIT(priority=0x08, entity_id=Cait Sith (ID: 17523288/0x010B6258), tag_num=0x58)
320: 0x0A22 [0x29] REQ_SET_WAIT(priority=0x08, entity_id=Cait Sith (ID: 17523288/0x010B6258), tag_num=0x59)
321: 0x0A29 [0x2B] Cait Sith (ID: 17523288/0x010B6258) [8181*]:
    → "The arena within is burgeoning with demons and threatens to burst. Explode into bits. They even poked their heads out a bit."
322: 0x0A30 [0x23] WAIT_FOR_DIALOG_INTERACTION
323: 0x0A31 [0x29] REQ_SET_WAIT(priority=0x08, entity_id=Cait Sith (ID: 17523288/0x010B6258), tag_num=0x5A)
324: 0x0A38 [0x52] END_LOAD_SCHEDULER: End scheduler "s021" with entities [LocalPlayer, LocalPlayer], work=696*
325: 0x0A47 [0x45] LOAD_SCHEDULED_TASK: Load scheduler "s018" with entities [LocalPlayer, LocalPlayer], work=[696*, 0*]
326: 0x0A58 [0x29] REQ_SET_WAIT(priority=0x08, entity_id=Cait Sith (ID: 17523288/0x010B6258), tag_num=0x55)
327: 0x0A5F [0x2B] Cait Sith (ID: 17523288/0x010B6258) [8182*]:
    → "But they realized they couldn't come barreling through the entrance like a crazed goobbue. Perhaps they're smarter than I thought..."
328: 0x0A66 [0x23] WAIT_FOR_DIALOG_INTERACTION
329: 0x0A67 [0x29] REQ_SET_WAIT(priority=0x08, entity_id=Cait Sith (ID: 17523288/0x010B6258), tag_num=0x56)
330: 0x0A6E [0x52] END_LOAD_SCHEDULER: End scheduler "s018" with entities [LocalPlayer, LocalPlayer], work=696*
331: 0x0A7D [0x45] LOAD_SCHEDULED_TASK: Load scheduler "s015" with entities [LocalPlayer, LocalPlayer], work=[696*, 0*]
332: 0x0A8E [0x27] REQ_SET(priority=0x08, entity_id=Cait Sith (ID: 17523288/0x010B6258), tag_num=0x39)
333: 0x0A95 [0x2A] GET_REQ_LEVEL(level=8, entity_id=Cait Sith (ID: 17523288/0x010B6258))
334: 0x0A9B [0x2B] Cait Sith (ID: 17523288/0x010B6258) [8183*]:
    → "But we can't sit here wringing our hands while Lilisette is holding them back in that arena!"
335: 0x0AA2 [0x23] WAIT_FOR_DIALOG_INTERACTION
336: 0x0AA3 [0x52] END_LOAD_SCHEDULER: End scheduler "s015" with entities [LocalPlayer, LocalPlayer], work=696*
337: 0x0AB2 [0x02] IF !(Work_Zone[9] == 5*) GOTO 0x0ACE
338: 0x0ABA [0x45] LOAD_SCHEDULED_TASK: Load scheduler "s029" with entities [LocalPlayer, LocalPlayer], work=[696*, 0*]
339: 0x0ACB [0x01] GOTO 0x0AFB
340: 0x0ACE [0x02] IF !(Work_Zone[9] == 6*) GOTO 0x0AEA
341: 0x0AD6 [0x45] LOAD_SCHEDULED_TASK: Load scheduler "s029" with entities [LocalPlayer, LocalPlayer], work=[696*, 0*]
342: 0x0AE7 [0x01] GOTO 0x0AFB
343: 0x0AEA [0x45] LOAD_SCHEDULED_TASK: Load scheduler "s019" with entities [LocalPlayer, LocalPlayer], work=[696*, 0*]

SUBROUTINE_0AFB:
344: 0x0AFB [0x29] REQ_SET_WAIT(priority=0x08, entity_id=Cait Sith (ID: 17523288/0x010B6258), tag_num=0x6D)
345: 0x0B02 [0x2B] Cait Sith (ID: 17523288/0x010B6258) [8184*]:
    → "You'd be proud of how strong she's become. Despite the circumstances, it will be a meeting all Vana'diel will remember!"
346: 0x0B09 [0x23] WAIT_FOR_DIALOG_INTERACTION
347: 0x0B0A [0x29] REQ_SET_WAIT(priority=0x08, entity_id=Cait Sith (ID: 17523288/0x010B6258), tag_num=0x6E)
348: 0x0B11 [0x29] REQ_SET_WAIT(priority=0x08, entity_id=Cait Sith (ID: 17523288/0x010B6258), tag_num=0x6F)
349: 0x0B18 [0x2B] Cait Sith (ID: 17523288/0x010B6258) [8185*]:
    → "I'll take the plunge and tell her you're right behind me...which I assume you will be."
350: 0x0B1F [0x23] WAIT_FOR_DIALOG_INTERACTION
351: 0x0B20 [0x29] REQ_SET_WAIT(priority=0x08, entity_id=Cait Sith (ID: 17523288/0x010B6258), tag_num=0x70)
352: 0x0B27 [0x4A] Cait Sith (ID: 17523288/0x010B6258) looks at LocalPlayer
353: 0x0B30 [0x52] END_LOAD_SCHEDULER: End scheduler "s029" with entities [LocalPlayer, LocalPlayer], work=696*
354: 0x0B3F [0x52] END_LOAD_SCHEDULER: End scheduler "s019" with entities [LocalPlayer, LocalPlayer], work=696*
355: 0x0B4E [0x45] LOAD_SCHEDULED_TASK: Load scheduler "s020" with entities [LocalPlayer, LocalPlayer], work=[696*, 0*]
356: 0x0B5F [0x6F] WAIT_FRAME_DELAY: Yield until WaitTime reaches zero
357: 0x0B60 [0x76] CHECK_ENTITY_RENDER_FLAGS: Wait until Cait Sith (ID: 17523288/0x010B6258) Render.Flags0 and Render.Flags3 conditions are met
358: 0x0B65 [0xBB] LOAD_EVENT_SCHEDULER_ALT: Load scheduler "st01" with entities [Cait Sith (ID: 17523288/0x010B6258), Cait Sith (ID: 17523288/0x010B6258)], work=[195*, 0*]
359: 0x0B76 [0x5B] LOAD_EXT_SCHEDULER: Load scheduler "wrp0" with entities [Cait Sith (ID: 17523288/0x010B6258), Cait Sith (ID: 17523288/0x010B6258)], work=2475*
360: 0x0B85 [0x1C] WAIT(300* ticks)
361: 0x0B88 [0xBB] LOAD_EVENT_SCHEDULER_ALT: Load scheduler "st02" with entities [Cait Sith (ID: 17523288/0x010B6258), Cait Sith (ID: 17523288/0x010B6258)], work=[195*, 0*]
362: 0x0B99 [0x1C] WAIT(10* ticks)
363: 0x0B9C [0x1C] WAIT(110* ticks)
364: 0x0B9F [0x5C] MUSIC_CONTROL: Set music volume to song 0*, fade_time=60*
365: 0x0BA5 [0x5C] MUSIC_CONTROL: Adjust music volume to song 0*, fade_time=120*
366: 0x0BAB [0x45] LOAD_SCHEDULED_TASK: Load scheduler "fdo1" with entities [LocalPlayer, LocalPlayer], work=[200*, 0*]
367: 0x0BBC [0x55] WAIT_LOAD_SCHEDULER: Wait for scheduler "fdo1" with entities [LocalPlayer, LocalPlayer], work=200*
368: 0x0BCB [0x52] END_LOAD_SCHEDULER: End scheduler "s020" with entities [LocalPlayer, LocalPlayer], work=696*
369: 0x0BDA [0x1C] WAIT(30* ticks)
370: 0x0BDD [0x94] LocalPlayer->Render.Flags3 = Flags3  // No change (flag=0)
371: 0x0BE3 [0x94] Cait Sith (ID: 17523288/0x010B6258)->Render.Flags3 = Flags3  // No change (flag=0)
372: 0x0BE9 [0x4E] SET_ENTITY_HIDE_FLAG: Hide Cait Sith (ID: 17523288/0x010B6258)
373: 0x0BEF [0x5C] MUSIC_CONTROL: Set Idle (Day) music to song 0*
374: 0x0BF3 [0x5C] MUSIC_CONTROL: Set Idle (Night) music to song 0*
375: 0x0BF7 [0x9A] WAIT_MUSIC_SERVER()
376: 0x0BF8 [0x1C] WAIT(15* ticks)
377: 0x0BFB [0xAB] EventEntity->DespawnValue = 0* // Set despawn value
378: 0x0BFF [0x1C] WAIT(1* ticks)
379: 0x0C02 [0xAB] EventEntity->UnknownFlag = 0 // Disable unknown flag
380: 0x0C04 [0x46] CAMERA_CONTROL: Restore default settings
381: 0x0C06 [0x45] LOAD_SCHEDULED_TASK: Load scheduler "fdi2" with entities [LocalPlayer, LocalPlayer], work=[200*, 0*]
382: 0x0C17 [0x20] SET_CLI_EVENT_UC_FLAG: Unlock player control
383: 0x0C19 [0x21] END_EVENT
384: 0x0C1A [0x00] END_REQSTACK()
```

### Event 124

#### Metadata

| Field        | Value      |
|--------------|------------|
| Entrypoint   | 0x0C1B     |
| Data Size    | 3497 bytes |
| Instructions | 396        |

```
      00 01 02 03 04 05 06 07  08 09 0A 0B 0C 0D 0E 0F
      -- -- -- -- -- -- -- --  -- -- -- -- -- -- -- --
0C10:                                   42 46 01 45 00             BF.E.
0C20: 80 F0 FF FF 7F F0 FF FF  7F 66 64 6F 31 01 80 55  .........fdo1..U
0C30: 00 80 F0 FF FF 7F F0 FF  FF 7F 66 64 6F 31 38 02  ..........fdo18.
0C40: 80 AB 09 2D F0 FF FF 7F  F0 FF FF 7F 73 74 61 31  ...-........sta1
0C50: 2D F0 FF FF 7F F0 FF FF  7F 73 74 61 32 2D F0 FF  -........sta2-..
0C60: FF 7F F0 FF FF 7F 73 74  61 33 2D F0 FF FF 7F F0  ......sta3-.....
0C70: FF FF 7F 73 74 61 34 27  10 92 62 0B 01 02 92 00  ...sta4'..b.....
0C80: F0 FF FF 7F 92 01 92 62  0B 01 92 01 79 62 0B 01  .......b....yb..
0C90: 94 01 F0 FF FF 7F 94 01  92 62 0B 01 29 08 F0 FF  .........b..)...
0CA0: FF 7F 47 BA 92 62 0B 01  43 80 44 80 45 80 46 80  ..G..b..C.D.E.F.
0CB0: 4E 00 79 62 0B 01 80 F0  FF FF 7F 80 92 62 0B 01  N.yb.........b..
0CC0: 80 79 62 0B 01 1C 07 80  81 00 92 62 0B 01 7C 00  .yb........b..|.
0CD0: 92 62 0B 01 5B 47 80 92  62 0B 01 92 62 0B 01 77  .b..[G..b...b..w
0CE0: 61 70 30 29 08 F0 FF FF  7F 44 27 08 F0 FF FF 7F  ap0).....D'.....
0CF0: 48 45 48 80 F0 FF FF 7F  F0 FF FF 7F 73 30 30 30  HEH.........s000
0D00: 01 80 45 00 80 F0 FF FF  7F F0 FF FF 7F 66 64 69  ..E..........fdi
0D10: 31 01 80 55 00 80 F0 FF  FF 7F F0 FF FF 7F 66 64  1..U..........fd
0D20: 69 31 CD 49 80 92 62 0B  01 92 62 0B 01 6F 75 74  i1.I..b...b..out
0D30: 31 01 80 1C 41 80 5B 47  80 92 62 0B 01 92 62 0B  1...A.[G..b...b.
0D40: 01 77 61 70 31 27 10 92  62 0B 01 08 79 00 F0 FF  .wap1'..b...y...
0D50: FF 7F 92 62 0B 01 1C 41  80 1C 41 80 5B 4A 80 92  ...b...A..A.[J..
0D60: 62 0B 01 92 62 0B 01 66  32 30 30 52 48 80 F0 FF  b...b..f200RH...
0D70: FF 7F F0 FF FF 7F 73 30  30 30 45 48 80 F0 FF FF  ......s000EH....
0D80: 7F F0 FF FF 7F 73 30 30  31 01 80 7C 01 92 62 0B  .....s001..|..b.
0D90: 01 5B 4A 80 92 62 0B 01  92 62 0B 01 66 64 30 31  .[J..b...b..fd01
0DA0: 2B 92 62 0B 01 4B 80 1C  03 80 23 5B 4A 80 92 62  +.b..K....#[J..b
0DB0: 0B 01 92 62 0B 01 66 64  30 30 5C 00 16 80 5C 01  ...b..fd00\...\.
0DC0: 16 80 9A 27 08 92 62 0B  01 0E 1C 07 80 52 48 80  ...'..b......RH.
0DD0: F0 FF FF 7F F0 FF FF 7F  73 30 30 31 02 09 10 09  ........s001....
0DE0: 80 00 F8 0D 45 48 80 F0  FF FF 7F F0 FF FF 7F 73  ....EH.........s
0DF0: 30 32 31 01 80 01 25 0E  02 09 10 0A 80 00 14 0E  021...%.........
0E00: 45 48 80 F0 FF FF 7F F0  FF FF 7F 73 30 32 31 01  EH.........s021.
0E10: 80 01 25 0E 45 48 80 F0  FF FF 7F F0 FF FF 7F 73  ..%.EH.........s
0E20: 30 30 32 01 80 79 00 92  62 0B 01 F0 FF FF 7F 5B  002..y..b......[
0E30: 4A 80 92 62 0B 01 92 62  0B 01 66 64 30 31 2B 92  J..b...b..fd01+.
0E40: 62 0B 01 4C 80 1C 03 80  23 5B 4A 80 92 62 0B 01  b..L....#[J..b..
0E50: 92 62 0B 01 66 64 30 30  2A 08 F0 FF FF 7F 2A 08  .b..fd00*.....*.
0E60: 92 62 0B 01 1C 07 80 29  08 F0 FF FF 7F 43 7B 92  .b.....).....C{.
0E70: 62 0B 01 5B 4A 80 92 62  0B 01 92 62 0B 01 66 6D  b..[J..b...b..fm
0E80: 30 31 29 08 92 62 0B 01  46 2B 92 62 0B 01 4D 80  01)..b..F+.b..M.
0E90: 1C 03 80 23 29 08 92 62  0B 01 47 5B 4A 80 92 62  ...#)..b..G[J..b
0EA0: 0B 01 92 62 0B 01 66 6D  30 30 52 48 80 F0 FF FF  ...b..fm00RH....
0EB0: 7F F0 FF FF 7F 73 30 32  31 52 48 80 F0 FF FF 7F  .....s021RH.....
0EC0: F0 FF FF 7F 73 30 30 32  45 48 80 F0 FF FF 7F F0  ....s002EH......
0ED0: FF FF 7F 73 30 30 33 01  80 5B 4A 80 92 62 0B 01  ...s003..[J..b..
0EE0: 92 62 0B 01 66 32 30 31  29 08 92 62 0B 01 48 2B  .b..f201)..b..H+
0EF0: 92 62 0B 01 4E 80 1C 03  80 23 29 08 92 62 0B 01  .b..N....#)..b..
0F00: 49 5B 4A 80 92 62 0B 01  92 62 0B 01 66 32 30 30  I[J..b...b..f200
0F10: 52 48 80 F0 FF FF 7F F0  FF FF 7F 73 30 30 33 02  RH.........s003.
0F20: 09 10 1C 80 00 3B 0F 45  48 80 F0 FF FF 7F F0 FF  .....;.EH.......
0F30: FF 7F 73 30 30 34 01 80  01 A0 0F 02 09 10 09 80  ..s004..........
0F40: 00 57 0F 45 48 80 F0 FF  FF 7F F0 FF FF 7F 73 30  .W.EH.........s0
0F50: 32 32 01 80 01 A0 0F 02  09 10 0A 80 00 73 0F 45  22...........s.E
0F60: 48 80 F0 FF FF 7F F0 FF  FF 7F 73 30 32 32 01 80  H.........s022..
0F70: 01 A0 0F 02 09 10 1D 80  00 8F 0F 45 48 80 F0 FF  ...........EH...
0F80: FF 7F F0 FF FF 7F 73 30  30 34 01 80 01 A0 0F 45  ......s004.....E
0F90: 48 80 F0 FF FF 7F F0 FF  FF 7F 73 30 33 30 01 80  H.........s030..
0FA0: 24 4F 80 01 80 01 80 25  02 00 10 01 80 00 1E 10  $O.....%........
0FB0: 29 08 F0 FF FF 7F 11 1C  07 80 29 08 92 62 0B 01  ).........)..b..
0FC0: 8B 1C 07 80 52 48 80 F0  FF FF 7F F0 FF FF 7F 73  ....RH.........s
0FD0: 30 30 34 52 48 80 F0 FF  FF 7F F0 FF FF 7F 73 30  004RH.........s0
0FE0: 32 32 52 48 80 F0 FF FF  7F F0 FF FF 7F 73 30 33  22RH.........s03
0FF0: 30 45 48 80 F0 FF FF 7F  F0 FF FF 7F 73 30 30 35  0EH.........s005
1000: 01 80 2B 92 62 0B 01 50  80 1C 03 80 29 08 F0 FF  ..+.b..P....)...
1010: FF 7F 12 23 29 08 92 62  0B 01 8C 01 94 10 02 00  ...#)..b........
1020: 10 0D 80 00 94 10 29 08  F0 FF FF 7F 11 1C 32 80  ......).......2.
1030: 29 08 92 62 0B 01 8F 1C  42 80 52 48 80 F0 FF FF  )..b....B.RH....
1040: 7F F0 FF FF 7F 73 30 30  34 52 48 80 F0 FF FF 7F  .....s004RH.....
1050: F0 FF FF 7F 73 30 32 32  52 48 80 F0 FF FF 7F F0  ....s022RH......
1060: FF FF 7F 73 30 33 30 45  48 80 F0 FF FF 7F F0 FF  ...s030EH.......
1070: FF 7F 73 30 30 35 01 80  2B 92 62 0B 01 51 80 1C  ..s005..+.b..Q..
1080: 03 80 29 08 F0 FF FF 7F  12 23 29 08 92 62 0B 01  ..)......#)..b..
1090: 90 01 94 10 45 00 80 F0  FF FF 7F F0 FF FF 7F 66  ....E..........f
10A0: 64 6F 31 01 80 55 00 80  F0 FF FF 7F F0 FF FF 7F  do1..U..........
10B0: 66 64 6F 31 29 08 92 62  0B 01 19 52 48 80 F0 FF  fdo1)..b...RH...
10C0: FF 7F F0 FF FF 7F 73 30  30 35 4B 92 62 0B 01 00  ......s005K.b...
10D0: 80 6F 76 92 62 0B 01 5B  4A 80 92 62 0B 01 92 62  .ov.b..[J..b...b
10E0: 0B 01 66 63 30 31 29 08  92 62 0B 01 20 48 15 80  ..fc01)..b.. H..
10F0: 23 45 48 80 F0 FF FF 7F  F0 FF FF 7F 73 30 31 35  #EH.........s015
1100: 01 80 45 00 80 F0 FF FF  7F F0 FF FF 7F 66 64 69  ..E..........fdi
1110: 31 01 80 55 00 80 F0 FF  FF 7F F0 FF FF 7F 66 64  1..U..........fd
1120: 69 31 1C 41 80 52 48 80  F0 FF FF 7F F0 FF FF 7F  i1.A.RH.........
1130: 73 30 31 35 02 09 10 09  80 00 50 11 45 48 80 F0  s015......P.EH..
1140: FF FF 7F F0 FF FF 7F 73  30 32 33 01 80 01 7D 11  .......s023...}.
1150: 02 09 10 0A 80 00 6C 11  45 48 80 F0 FF FF 7F F0  ......l.EH......
1160: FF FF 7F 73 30 32 33 01  80 01 7D 11 45 48 80 F0  ...s023...}.EH..
1170: FF FF 7F F0 FF FF 7F 73  30 30 36 01 80 29 08 92  .......s006..)..
1180: 62 0B 01 21 29 08 92 62  0B 01 22 2B 92 62 0B 01  b..!)..b.."+.b..
1190: 52 80 1C 03 80 23 29 08  92 62 0B 01 23 5B 4A 80  R....#)..b..#[J.
11A0: 92 62 0B 01 92 62 0B 01  66 63 30 30 6E F0 FF FF  .b...b..fc00n...
11B0: 7F 1B 80 99 F0 FF FF 7F  1C 29 80 5B 4A 80 92 62  .........).[J..b
11C0: 0B 01 92 62 0B 01 66 63  30 31 29 08 92 62 0B 01  ...b..fc01)..b..
11D0: 24 2B 92 62 0B 01 53 80  1C 03 80 23 29 08 92 62  $+.b..S....#)..b
11E0: 0B 01 25 5B 4A 80 92 62  0B 01 92 62 0B 01 66 63  ..%[J..b...b..fc
11F0: 30 30 45 00 80 F0 FF FF  7F F0 FF FF 7F 66 64 6F  00E..........fdo
1200: 31 01 80 55 00 80 F0 FF  FF 7F F0 FF FF 7F 66 64  1..U..........fd
1210: 6F 31 52 48 80 F0 FF FF  7F F0 FF FF 7F 73 30 32  o1RH.........s02
1220: 33 52 48 80 F0 FF FF 7F  F0 FF FF 7F 73 30 30 36  3RH.........s006
1230: 45 48 80 F0 FF FF 7F F0  FF FF 7F 73 30 30 37 01  EH.........s007.
1240: 80 45 00 80 F0 FF FF 7F  F0 FF FF 7F 66 64 69 31  .E..........fdi1
1250: 01 80 55 00 80 F0 FF FF  7F F0 FF FF 7F 66 64 69  ..U..........fdi
1260: 31 4A 92 62 0B 01 F0 FF  FF 7F 2B 92 62 0B 01 54  1J.b......+.b..T
1270: 80 1C 03 80 23 2B 92 62  0B 01 55 80 1C 03 80 23  ....#+.b..U....#
1280: 6F 76 92 62 0B 01 45 00  80 F0 FF FF 7F F0 FF FF  ov.b..E.........
1290: 7F 66 64 6F 31 01 80 55  00 80 F0 FF FF 7F F0 FF  .fdo1..U........
12A0: FF 7F 66 64 6F 31 7B 92  62 0B 01 5B 4A 80 92 62  ..fdo1{.b..[J..b
12B0: 0B 01 92 62 0B 01 66 65  30 31 29 08 92 62 0B 01  ...b..fe01)..b..
12C0: 3A 1C 56 80 52 48 80 F0  FF FF 7F F0 FF FF 7F 73  :.V.RH.........s
12D0: 30 30 37 02 09 10 09 80  00 EF 12 45 48 80 F0 FF  007........EH...
12E0: FF 7F F0 FF FF 7F 73 30  32 34 01 80 01 1C 13 02  ......s024......
12F0: 09 10 0A 80 00 0B 13 45  48 80 F0 FF FF 7F F0 FF  .......EH.......
1300: FF 7F 73 30 32 34 01 80  01 1C 13 45 48 80 F0 FF  ..s024.....EH...
1310: FF 7F F0 FF FF 7F 73 30  31 30 01 80 45 00 80 F0  ......s010..E...
1320: FF FF 7F F0 FF FF 7F 66  64 69 31 01 80 2B 92 62  .......fdi1..+.b
1330: 0B 01 57 80 1C 03 80 23  29 08 92 62 0B 01 3B 5B  ..W....#)..b..;[
1340: 4A 80 92 62 0B 01 92 62  0B 01 66 65 30 30 52 48  J..b...b..fe00RH
1350: 80 F0 FF FF 7F F0 FF FF  7F 73 30 32 34 52 48 80  .........s024RH.
1360: F0 FF FF 7F F0 FF FF 7F  73 30 31 30 45 48 80 F0  ........s010EH..
1370: FF FF 7F F0 FF FF 7F 73  30 30 39 01 80 5B 4A 80  .......s009..[J.
1380: 92 62 0B 01 92 62 0B 01  66 65 30 31 29 08 92 62  .b...b..fe01)..b
1390: 0B 01 3C 2B 92 62 0B 01  58 80 1C 03 80 23 29 08  ..<+.b..X....#).
13A0: 92 62 0B 01 3D 5B 4A 80  92 62 0B 01 92 62 0B 01  .b..=[J..b...b..
13B0: 66 65 30 30 52 48 80 F0  FF FF 7F F0 FF FF 7F 73  fe00RH.........s
13C0: 30 30 39 02 09 10 09 80  00 DF 13 45 48 80 F0 FF  009........EH...
13D0: FF 7F F0 FF FF 7F 73 30  33 33 01 80 01 0C 14 02  ......s033......
13E0: 09 10 0A 80 00 FB 13 45  48 80 F0 FF FF 7F F0 FF  .......EH.......
13F0: FF 7F 73 30 33 33 01 80  01 0C 14 45 48 80 F0 FF  ..s033.....EH...
1400: FF 7F F0 FF FF 7F 73 30  30 38 01 80 5B 4A 80 92  ......s008..[J..
1410: 62 0B 01 92 62 0B 01 66  65 30 31 29 08 92 62 0B  b...b..fe01)..b.
1420: 01 4A 2B 92 62 0B 01 59  80 1C 03 80 23 29 08 92  .J+.b..Y....#)..
1430: 62 0B 01 4B 5B 4A 80 92  62 0B 01 92 62 0B 01 66  b..K[J..b...b..f
1440: 65 30 30 5B 4A 80 92 62  0B 01 92 62 0B 01 66 63  e00[J..b...b..fc
1450: 30 31 29 08 92 62 0B 01  4C 2B 92 62 0B 01 5A 80  01)..b..L+.b..Z.
1460: 1C 03 80 23 5B 4A 80 92  62 0B 01 92 62 0B 01 66  ...#[J..b...b..f
1470: 63 30 30 29 08 92 62 0B  01 4D 52 48 80 F0 FF FF  c00)..b..MRH....
1480: 7F F0 FF FF 7F 73 30 30  38 52 48 80 F0 FF FF 7F  .....s008RH.....
1490: F0 FF FF 7F 73 30 33 33  45 48 80 F0 FF FF 7F F0  ....s033EH......
14A0: FF FF 7F 73 30 31 33 01  80 5B 4A 80 92 62 0B 01  ...s013..[J..b..
14B0: 92 62 0B 01 66 69 30 31  29 08 92 62 0B 01 40 2B  .b..fi01)..b..@+
14C0: 92 62 0B 01 5B 80 1C 03  80 23 2B 92 62 0B 01 5C  .b..[....#+.b..\
14D0: 80 1C 03 80 23 29 08 92  62 0B 01 41 5B 4A 80 92  ....#)..b..A[J..
14E0: 62 0B 01 92 62 0B 01 66  69 30 30 52 48 80 F0 FF  b...b..fi00RH...
14F0: FF 7F F0 FF FF 7F 73 30  31 33 02 09 10 1C 80 00  ......s013......
1500: 16 15 45 48 80 F0 FF FF  7F F0 FF FF 7F 73 30 31  ..EH.........s01
1510: 31 01 80 01 7B 15 02 09  10 09 80 00 32 15 45 48  1...{.......2.EH
1520: 80 F0 FF FF 7F F0 FF FF  7F 73 30 32 36 01 80 01  .........s026...
1530: 7B 15 02 09 10 0A 80 00  4E 15 45 48 80 F0 FF FF  {.......N.EH....
1540: 7F F0 FF FF 7F 73 30 32  36 01 80 01 7B 15 02 09  .....s026...{...
1550: 10 1D 80 00 6A 15 45 48  80 F0 FF FF 7F F0 FF FF  ....j.EH........
1560: 7F 73 30 31 31 01 80 01  7B 15 45 48 80 F0 FF FF  .s011...{.EH....
1570: 7F F0 FF FF 7F 73 30 33  31 01 80 1C 07 80 6B 69  .....s031.....ki
1580: 64 6C 30 92 62 0B 01 6E  F0 FF FF 7F 1B 80 99 F0  dl0.b..n........
1590: FF FF 7F 1C 29 80 5B 4A  80 92 62 0B 01 92 62 0B  ....).[J..b...b.
15A0: 01 66 64 30 31 29 08 92  62 0B 01 75 1C 56 80 52  .fd01)..b..u.V.R
15B0: 48 80 F0 FF FF 7F F0 FF  FF 7F 73 30 31 31 52 48  H.........s011RH
15C0: 80 F0 FF FF 7F F0 FF FF  7F 73 30 32 36 52 48 80  .........s026RH.
15D0: F0 FF FF 7F F0 FF FF 7F  73 30 33 31 45 48 80 F0  ........s031EH..
15E0: FF FF 7F F0 FF FF 7F 73  30 31 32 01 80 2B 92 62  .......s012..+.b
15F0: 0B 01 5D 80 1C 03 80 23  29 08 92 62 0B 01 76 5B  ..]....#)..b..v[
1600: 4A 80 92 62 0B 01 92 62  0B 01 66 64 30 30 52 48  J..b...b..fd00RH
1610: 80 F0 FF FF 7F F0 FF FF  7F 73 30 31 32 45 48 80  .........s012EH.
1620: F0 FF FF 7F F0 FF FF 7F  73 30 31 36 01 80 29 08  ........s016..).
1630: 92 62 0B 01 77 29 08 92  62 0B 01 78 5B 4A 80 92  .b..w)..b..x[J..
1640: 62 0B 01 92 62 0B 01 66  63 30 31 29 08 92 62 0B  b...b..fc01)..b.
1650: 01 5A 2B 92 62 0B 01 5E  80 1C 03 80 23 29 08 92  .Z+.b..^....#)..
1660: 62 0B 01 5B 29 08 92 62  0B 01 5C 2B 92 62 0B 01  b..[)..b..\+.b..
1670: 5F 80 1C 03 80 23 29 08  92 62 0B 01 5D 5B 4A 80  _....#)..b..][J.
1680: 92 62 0B 01 92 62 0B 01  66 63 30 30 52 48 80 F0  .b...b..fc00RH..
1690: FF FF 7F F0 FF FF 7F 73  30 31 36 02 09 10 09 80  .......s016.....
16A0: 00 B7 16 45 48 80 F0 FF  FF 7F F0 FF FF 7F 73 30  ...EH.........s0
16B0: 32 37 01 80 01 E4 16 02  09 10 0A 80 00 D3 16 45  27.............E
16C0: 48 80 F0 FF FF 7F F0 FF  FF 7F 73 30 32 37 01 80  H.........s027..
16D0: 01 E4 16 45 48 80 F0 FF  FF 7F F0 FF FF 7F 73 30  ...EH.........s0
16E0: 31 34 01 80 29 08 92 62  0B 01 0F 1C 07 80 29 08  14..)..b......).
16F0: 92 62 0B 01 52 2B 92 62  0B 01 60 80 1C 03 80 23  .b..R+.b..`....#
1700: 29 08 92 62 0B 01 53 52  48 80 F0 FF FF 7F F0 FF  )..b..SRH.......
1710: FF 7F 73 30 32 37 52 48  80 F0 FF FF 7F F0 FF FF  ..s027RH........
1720: 7F 73 30 31 34 45 48 80  F0 FF FF 7F F0 FF FF 7F  .s014EH.........
1730: 73 30 31 39 01 80 5B 4A  80 92 62 0B 01 92 62 0B  s019..[J..b...b.
1740: 01 66 64 30 31 29 08 92  62 0B 01 54 2B 92 62 0B  .fd01)..b..T+.b.
1750: 01 61 80 1C 03 80 23 29  08 92 62 0B 01 55 5B 4A  .a....#)..b..U[J
1760: 80 92 62 0B 01 92 62 0B  01 66 64 30 30 6B 69 64  ..b...b..fd00kid
1770: 6C 30 92 62 0B 01 29 08  92 62 0B 01 11 5B 4A 80  l0.b..)..b...[J.
1780: 92 62 0B 01 92 62 0B 01  66 64 30 31 29 08 92 62  .b...b..fd01)..b
1790: 0B 01 28 45 00 80 F0 FF  FF 7F F0 FF FF 7F 66 64  ..(E..........fd
17A0: 6F 31 01 80 55 00 80 F0  FF FF 7F F0 FF FF 7F 66  o1..U..........f
17B0: 64 6F 31 52 48 80 F0 FF  FF 7F F0 FF FF 7F 73 30  do1RH.........s0
17C0: 31 39 45 48 80 F0 FF FF  7F F0 FF FF 7F 73 30 32  19EH.........s02
17D0: 30 01 80 45 00 80 F0 FF  FF 7F F0 FF FF 7F 66 64  0..E..........fd
17E0: 69 31 01 80 2B 92 62 0B  01 62 80 1C 03 80 23 55  i1..+.b..b....#U
17F0: 00 80 F0 FF FF 7F F0 FF  FF 7F 66 64 69 31 52 48  ..........fdi1RH
1800: 80 F0 FF FF 7F F0 FF FF  7F 73 30 32 30 02 09 10  .........s020...
1810: 09 80 00 29 18 45 48 80  F0 FF FF 7F F0 FF FF 7F  ...).EH.........
1820: 73 30 32 38 01 80 01 56  18 02 09 10 0A 80 00 45  s028...V.......E
1830: 18 45 48 80 F0 FF FF 7F  F0 FF FF 7F 73 30 32 38  .EH.........s028
1840: 01 80 01 56 18 45 48 80  F0 FF FF 7F F0 FF FF 7F  ...V.EH.........
1850: 73 30 31 37 01 80 2B 92  62 0B 01 63 80 1C 03 80  s017..+.b..c....
1860: 23 29 08 92 62 0B 01 29  2B 92 62 0B 01 64 80 1C  #)..b..)+.b..d..
1870: 03 80 23 5B 4A 80 92 62  0B 01 92 62 0B 01 66 64  ..#[J..b...b..fd
1880: 30 30 52 48 80 F0 FF FF  7F F0 FF FF 7F 73 30 32  00RH.........s02
1890: 38 52 48 80 F0 FF FF 7F  F0 FF FF 7F 73 30 31 37  8RH.........s017
18A0: 02 09 10 1C 80 00 BC 18  45 48 80 F0 FF FF 7F F0  ........EH......
18B0: FF FF 7F 73 30 31 38 01  80 01 21 19 02 09 10 09  ...s018...!.....
18C0: 80 00 D8 18 45 48 80 F0  FF FF 7F F0 FF FF 7F 73  ....EH.........s
18D0: 30 32 39 01 80 01 21 19  02 09 10 0A 80 00 F4 18  029...!.........
18E0: 45 48 80 F0 FF FF 7F F0  FF FF 7F 73 30 32 39 01  EH.........s029.
18F0: 80 01 21 19 02 09 10 1D  80 00 10 19 45 48 80 F0  ..!.........EH..
1900: FF FF 7F F0 FF FF 7F 73  30 31 38 01 80 01 21 19  .......s018...!.
1910: 45 48 80 F0 FF FF 7F F0  FF FF 7F 73 30 33 32 01  EH.........s032.
1920: 80 6E F0 FF FF 7F 65 80  99 F0 FF FF 7F 1C 29 80  .n....e.......).
1930: 5C A0 01 80 12 80 5C A1  01 80 12 80 45 00 80 F0  \.....\.....E...
1940: FF FF 7F F0 FF FF 7F 66  64 6F 31 01 80 55 00 80  .......fdo1..U..
1950: F0 FF FF 7F F0 FF FF 7F  66 64 6F 31 1C 07 80 52  ........fdo1...R
1960: 48 80 F0 FF FF 7F F0 FF  FF 7F 73 30 31 38 52 48  H.........s018RH
1970: 80 F0 FF FF 7F F0 FF FF  7F 73 30 32 39 52 48 80  .........s029RH.
1980: F0 FF FF 7F F0 FF FF 7F  73 30 33 32 94 00 F0 FF  ........s032....
1990: FF 7F 94 00 92 62 0B 01  5C 00 01 80 5C 01 01 80  .....b..\...\...
19A0: 9A 1C 42 80 AB 11 01 80  1C 0D 80 AB 0A 46 00 45  ..B..........F.E
19B0: 00 80 F0 FF FF 7F F0 FF  FF 7F 66 64 69 32 01 80  ..........fdi2..
19C0: 20 00 21 00                                        .!.            
```

#### Opcodes

```
  0: 0x0C1B [0x42] SET_CLI_EVENT_CANCEL_DATA()
  1: 0x0C1C [0x46] CAMERA_CONTROL: Disable user control
  2: 0x0C1E [0x45] LOAD_SCHEDULED_TASK: Load scheduler "fdo1" with entities [LocalPlayer, LocalPlayer], work=[200*, 0*]
  3: 0x0C2F [0x55] WAIT_LOAD_SCHEDULER: Wait for scheduler "fdo1" with entities [LocalPlayer, LocalPlayer], work=200*
  4: 0x0C3E [0x38] SET_CLIENT_EVENT_MODE(mode=19*)
  5: 0x0C41 [0xAB] EventEntity->UnknownFlag = 1 // Enable unknown flag
  6: 0x0C43 [0x2D] CREATE_ZONE_SCHEDULER_TASK: Create scheduler "sta1" with entities [LocalPlayer, LocalPlayer]
  7: 0x0C50 [0x2D] CREATE_ZONE_SCHEDULER_TASK: Create scheduler "sta2" with entities [LocalPlayer, LocalPlayer]
  8: 0x0C5D [0x2D] CREATE_ZONE_SCHEDULER_TASK: Create scheduler "sta3" with entities [LocalPlayer, LocalPlayer]
  9: 0x0C6A [0x2D] CREATE_ZONE_SCHEDULER_TASK: Create scheduler "sta4" with entities [LocalPlayer, LocalPlayer]
 10: 0x0C77 [0x27] REQ_SET(priority=0x10, entity_id=Lilisette (ID: 17523346/0x010B6292), tag_num=0x02)
 11: 0x0C7E [0x92] LocalPlayer->Render.Flags3 = Flags3  // No change (flag=0)
 12: 0x0C84 [0x92] Lilisette (ID: 17523346/0x010B6292)->Render.Flags3 ^= 0x01
 13: 0x0C8A [0x92] Regal Pawprints (ID: 17523321/0x010B6279)->Render.Flags3 ^= 0x01
 14: 0x0C90 [0x94] LocalPlayer->Render.Flags3 ^= 0x01
 15: 0x0C96 [0x94] Lilisette (ID: 17523346/0x010B6292)->Render.Flags3 ^= 0x01
 16: 0x0C9C [0x29] REQ_SET_WAIT(priority=0x08, entity_id=LocalPlayer, tag_num=0x47)
 17: 0x0CA3 [0xBA] SET_ENTITY_POSITION(entity_id=Lilisette (ID: 17523346/0x010B6292), pos_x=-700.011*, pos_z=-101.644*, pos_y=-25.125*, direction=270.0°*)
 18: 0x0CB0 [0x4E] SET_ENTITY_HIDE_FLAG: Show Regal Pawprints (ID: 17523321/0x010B6279)
 19: 0x0CB6 [0x80] LOAD_WAIT(entity=LocalPlayer)
 20: 0x0CBB [0x80] LOAD_WAIT(entity=Lilisette (ID: 17523346/0x010B6292))
 21: 0x0CC0 [0x80] LOAD_WAIT(entity=Regal Pawprints (ID: 17523321/0x010B6279))
 22: 0x0CC5 [0x1C] WAIT(30* ticks)
 23: 0x0CC8 [0x81] SET_ENTITY_BLINKING(blink_flag=0x00, entity=Lilisette (ID: 17523346/0x010B6292))
 24: 0x0CCE [0x7C] Lilisette (ID: 17523346/0x010B6292)->Render.Flags2 |= 0x00
 25: 0x0CD4 [0x5B] LOAD_EXT_SCHEDULER: Load scheduler "wap0" with entities [Lilisette (ID: 17523346/0x010B6292), Lilisette (ID: 17523346/0x010B6292)], work=3107*
 26: 0x0CE3 [0x29] REQ_SET_WAIT(priority=0x08, entity_id=LocalPlayer, tag_num=0x44)
 27: 0x0CEA [0x27] REQ_SET(priority=0x08, entity_id=LocalPlayer, tag_num=0x48)
 28: 0x0CF1 [0x45] LOAD_SCHEDULED_TASK: Load scheduler "s000" with entities [LocalPlayer, LocalPlayer], work=[697*, 0*]
 29: 0x0D02 [0x45] LOAD_SCHEDULED_TASK: Load scheduler "fdi1" with entities [LocalPlayer, LocalPlayer], work=[200*, 0*]
 30: 0x0D13 [0x55] WAIT_LOAD_SCHEDULER: Wait for scheduler "fdi1" with entities [LocalPlayer, LocalPlayer], work=200*
 31: 0x0D22 [0xCD] LOAD_SCHEDULED_TASK_ALT4: Load scheduler "out1" with entities [Lilisette (ID: 17523346/0x010B6292), Lilisette (ID: 17523346/0x010B6292)], work=[116*, 0*]
 32: 0x0D33 [0x1C] WAIT(120* ticks)
 33: 0x0D36 [0x5B] LOAD_EXT_SCHEDULER: Load scheduler "wap1" with entities [Lilisette (ID: 17523346/0x010B6292), Lilisette (ID: 17523346/0x010B6292)], work=3107*
 34: 0x0D45 [0x27] REQ_SET(priority=0x10, entity_id=Lilisette (ID: 17523346/0x010B6292), tag_num=0x08)
 35: 0x0D4C [0x79] LocalPlayer looks at Lilisette (ID: 17523346/0x010B6292) (Basic look)
 36: 0x0D56 [0x1C] WAIT(120* ticks)
 37: 0x0D59 [0x1C] WAIT(120* ticks)
 38: 0x0D5C [0x5B] LOAD_EXT_SCHEDULER: Load scheduler "f200" with entities [Lilisette (ID: 17523346/0x010B6292), Lilisette (ID: 17523346/0x010B6292)], work=2135*
 39: 0x0D6B [0x52] END_LOAD_SCHEDULER: End scheduler "s000" with entities [LocalPlayer, LocalPlayer], work=697*
 40: 0x0D7A [0x45] LOAD_SCHEDULED_TASK: Load scheduler "s001" with entities [LocalPlayer, LocalPlayer], work=[697*, 0*]
 41: 0x0D8B [0x7C] Lilisette (ID: 17523346/0x010B6292)->Render.Flags2 |= 0x01
 42: 0x0D91 [0x5B] LOAD_EXT_SCHEDULER: Load scheduler "fd01" with entities [Lilisette (ID: 17523346/0x010B6292), Lilisette (ID: 17523346/0x010B6292)], work=2135*
 43: 0x0DA0 [0x2B] Lilisette (ID: 17523346/0x010B6292) [8186*]:
    → "<Player>! Is it really...!?"
 44: 0x0DA7 [0x1C] WAIT(40* ticks)
 45: 0x0DAA [0x23] WAIT_FOR_DIALOG_INTERACTION
 46: 0x0DAB [0x5B] LOAD_EXT_SCHEDULER: Load scheduler "fd00" with entities [Lilisette (ID: 17523346/0x010B6292), Lilisette (ID: 17523346/0x010B6292)], work=2135*
 47: 0x0DBA [0x5C] MUSIC_CONTROL: Set Idle (Day) music to song 54*
 48: 0x0DBE [0x5C] MUSIC_CONTROL: Set Idle (Night) music to song 54*
 49: 0x0DC2 [0x9A] WAIT_MUSIC_SERVER()
 50: 0x0DC3 [0x27] REQ_SET(priority=0x08, entity_id=Lilisette (ID: 17523346/0x010B6292), tag_num=0x0E)
 51: 0x0DCA [0x1C] WAIT(30* ticks)
 52: 0x0DCD [0x52] END_LOAD_SCHEDULER: End scheduler "s001" with entities [LocalPlayer, LocalPlayer], work=697*
 53: 0x0DDC [0x02] IF !(Work_Zone[9] == 5*) GOTO 0x0DF8
 54: 0x0DE4 [0x45] LOAD_SCHEDULED_TASK: Load scheduler "s021" with entities [LocalPlayer, LocalPlayer], work=[697*, 0*]
 55: 0x0DF5 [0x01] GOTO 0x0E25
 56: 0x0DF8 [0x02] IF !(Work_Zone[9] == 6*) GOTO 0x0E14
 57: 0x0E00 [0x45] LOAD_SCHEDULED_TASK: Load scheduler "s021" with entities [LocalPlayer, LocalPlayer], work=[697*, 0*]
 58: 0x0E11 [0x01] GOTO 0x0E25
 59: 0x0E14 [0x45] LOAD_SCHEDULED_TASK: Load scheduler "s002" with entities [LocalPlayer, LocalPlayer], work=[697*, 0*]

SUBROUTINE_0E25:
 60: 0x0E25 [0x79] Lilisette (ID: 17523346/0x010B6292) looks at LocalPlayer (Basic look)
 61: 0x0E2F [0x5B] LOAD_EXT_SCHEDULER: Load scheduler "fd01" with entities [Lilisette (ID: 17523346/0x010B6292), Lilisette (ID: 17523346/0x010B6292)], work=2135*
 62: 0x0E3E [0x2B] Lilisette (ID: 17523346/0x010B6292) [8187*]:
    → "Never would I have thought to have seen you again, in either world."
 63: 0x0E45 [0x1C] WAIT(40* ticks)
 64: 0x0E48 [0x23] WAIT_FOR_DIALOG_INTERACTION
 65: 0x0E49 [0x5B] LOAD_EXT_SCHEDULER: Load scheduler "fd00" with entities [Lilisette (ID: 17523346/0x010B6292), Lilisette (ID: 17523346/0x010B6292)], work=2135*
 66: 0x0E58 [0x2A] GET_REQ_LEVEL(level=8, entity_id=LocalPlayer)
 67: 0x0E5E [0x2A] GET_REQ_LEVEL(level=8, entity_id=Lilisette (ID: 17523346/0x010B6292))
 68: 0x0E64 [0x1C] WAIT(30* ticks)
 69: 0x0E67 [0x29] REQ_SET_WAIT(priority=0x08, entity_id=LocalPlayer, tag_num=0x43)
 70: 0x0E6E [0x7B] Lilisette (ID: 17523346/0x010B6292) stops talking
 71: 0x0E73 [0x5B] LOAD_EXT_SCHEDULER: Load scheduler "fm01" with entities [Lilisette (ID: 17523346/0x010B6292), Lilisette (ID: 17523346/0x010B6292)], work=2135*
 72: 0x0E82 [0x29] REQ_SET_WAIT(priority=0x08, entity_id=Lilisette (ID: 17523346/0x010B6292), tag_num=0x46)
 73: 0x0E89 [0x2B] Lilisette (ID: 17523346/0x010B6292) [8188*]:
    → "Hehehe, I can see I'm not the only one who's been doing some training!"
 74: 0x0E90 [0x1C] WAIT(40* ticks)
 75: 0x0E93 [0x23] WAIT_FOR_DIALOG_INTERACTION
 76: 0x0E94 [0x29] REQ_SET_WAIT(priority=0x08, entity_id=Lilisette (ID: 17523346/0x010B6292), tag_num=0x47)
 77: 0x0E9B [0x5B] LOAD_EXT_SCHEDULER: Load scheduler "fm00" with entities [Lilisette (ID: 17523346/0x010B6292), Lilisette (ID: 17523346/0x010B6292)], work=2135*
 78: 0x0EAA [0x52] END_LOAD_SCHEDULER: End scheduler "s021" with entities [LocalPlayer, LocalPlayer], work=697*
 79: 0x0EB9 [0x52] END_LOAD_SCHEDULER: End scheduler "s002" with entities [LocalPlayer, LocalPlayer], work=697*
 80: 0x0EC8 [0x45] LOAD_SCHEDULED_TASK: Load scheduler "s003" with entities [LocalPlayer, LocalPlayer], work=[697*, 0*]
 81: 0x0ED9 [0x5B] LOAD_EXT_SCHEDULER: Load scheduler "f201" with entities [Lilisette (ID: 17523346/0x010B6292), Lilisette (ID: 17523346/0x010B6292)], work=2135*
 82: 0x0EE8 [0x29] REQ_SET_WAIT(priority=0x08, entity_id=Lilisette (ID: 17523346/0x010B6292), tag_num=0x48)
 83: 0x0EEF [0x2B] Lilisette (ID: 17523346/0x010B6292) [8189*]:
    → "So? What do you think?"
 84: 0x0EF6 [0x1C] WAIT(40* ticks)
 85: 0x0EF9 [0x23] WAIT_FOR_DIALOG_INTERACTION
 86: 0x0EFA [0x29] REQ_SET_WAIT(priority=0x08, entity_id=Lilisette (ID: 17523346/0x010B6292), tag_num=0x49)
 87: 0x0F01 [0x5B] LOAD_EXT_SCHEDULER: Load scheduler "f200" with entities [Lilisette (ID: 17523346/0x010B6292), Lilisette (ID: 17523346/0x010B6292)], work=2135*
 88: 0x0F10 [0x52] END_LOAD_SCHEDULER: End scheduler "s003" with entities [LocalPlayer, LocalPlayer], work=697*
 89: 0x0F1F [0x02] IF !(Work_Zone[9] == 3*) GOTO 0x0F3B
 90: 0x0F27 [0x45] LOAD_SCHEDULED_TASK: Load scheduler "s004" with entities [LocalPlayer, LocalPlayer], work=[697*, 0*]
 91: 0x0F38 [0x01] GOTO 0x0FA0
 92: 0x0F3B [0x02] IF !(Work_Zone[9] == 5*) GOTO 0x0F57
 93: 0x0F43 [0x45] LOAD_SCHEDULED_TASK: Load scheduler "s022" with entities [LocalPlayer, LocalPlayer], work=[697*, 0*]
 94: 0x0F54 [0x01] GOTO 0x0FA0
 95: 0x0F57 [0x02] IF !(Work_Zone[9] == 6*) GOTO 0x0F73
 96: 0x0F5F [0x45] LOAD_SCHEDULED_TASK: Load scheduler "s022" with entities [LocalPlayer, LocalPlayer], work=[697*, 0*]
 97: 0x0F70 [0x01] GOTO 0x0FA0
 98: 0x0F73 [0x02] IF !(Work_Zone[9] == 8*) GOTO 0x0F8F
 99: 0x0F7B [0x45] LOAD_SCHEDULED_TASK: Load scheduler "s004" with entities [LocalPlayer, LocalPlayer], work=[697*, 0*]
100: 0x0F8C [0x01] GOTO 0x0FA0
101: 0x0F8F [0x45] LOAD_SCHEDULED_TASK: Load scheduler "s030" with entities [LocalPlayer, LocalPlayer], work=[697*, 0*]

SUBROUTINE_0FA0:
102: 0x0FA0 [0x24] CREATE_DIALOG(message_id=8190*, default_option=0*, option_flags=0*)
    → "What do you think? [You've gotten cuter!/Still the same old Lilisette!]"
103: 0x0FA7 [0x25] WAIT_DIALOG_SELECT()
104: 0x0FA8 [0x02] IF !(Work_Zone[0] == 0*) GOTO 0x101E
105: 0x0FB0 [0x29] REQ_SET_WAIT(priority=0x08, entity_id=LocalPlayer, tag_num=0x11)
106: 0x0FB7 [0x1C] WAIT(30* ticks)
107: 0x0FBA [0x29] REQ_SET_WAIT(priority=0x08, entity_id=Lilisette (ID: 17523346/0x010B6292), tag_num=0x8B)
108: 0x0FC1 [0x1C] WAIT(30* ticks)
109: 0x0FC4 [0x52] END_LOAD_SCHEDULER: End scheduler "s004" with entities [LocalPlayer, LocalPlayer], work=697*
110: 0x0FD3 [0x52] END_LOAD_SCHEDULER: End scheduler "s022" with entities [LocalPlayer, LocalPlayer], work=697*
111: 0x0FE2 [0x52] END_LOAD_SCHEDULER: End scheduler "s030" with entities [LocalPlayer, LocalPlayer], work=697*
112: 0x0FF1 [0x45] LOAD_SCHEDULED_TASK: Load scheduler "s005" with entities [LocalPlayer, LocalPlayer], work=[697*, 0*]
113: 0x1002 [0x2B] Lilisette (ID: 17523346/0x010B6292) [8191*]:
    → "Wh-wh-what!?"
114: 0x1009 [0x1C] WAIT(40* ticks)
115: 0x100C [0x29] REQ_SET_WAIT(priority=0x08, entity_id=LocalPlayer, tag_num=0x12)
116: 0x1013 [0x23] WAIT_FOR_DIALOG_INTERACTION
117: 0x1014 [0x29] REQ_SET_WAIT(priority=0x08, entity_id=Lilisette (ID: 17523346/0x010B6292), tag_num=0x8C)
118: 0x101B [0x01] GOTO 0x1094
119: 0x101E [0x02] IF !(Work_Zone[0] == 1*) GOTO 0x1094
120: 0x1026 [0x29] REQ_SET_WAIT(priority=0x08, entity_id=LocalPlayer, tag_num=0x11)
121: 0x102D [0x1C] WAIT(45* ticks)
122: 0x1030 [0x29] REQ_SET_WAIT(priority=0x08, entity_id=Lilisette (ID: 17523346/0x010B6292), tag_num=0x8F)
123: 0x1037 [0x1C] WAIT(15* ticks)
124: 0x103A [0x52] END_LOAD_SCHEDULER: End scheduler "s004" with entities [LocalPlayer, LocalPlayer], work=697*
125: 0x1049 [0x52] END_LOAD_SCHEDULER: End scheduler "s022" with entities [LocalPlayer, LocalPlayer], work=697*
126: 0x1058 [0x52] END_LOAD_SCHEDULER: End scheduler "s030" with entities [LocalPlayer, LocalPlayer], work=697*
127: 0x1067 [0x45] LOAD_SCHEDULED_TASK: Load scheduler "s005" with entities [LocalPlayer, LocalPlayer], work=[697*, 0*]
128: 0x1078 [0x2B] Lilisette (ID: 17523346/0x010B6292) [8192*]:
    → "<Sigh>... I don't know what kind of response I expected..."
129: 0x107F [0x1C] WAIT(40* ticks)
130: 0x1082 [0x29] REQ_SET_WAIT(priority=0x08, entity_id=LocalPlayer, tag_num=0x12)
131: 0x1089 [0x23] WAIT_FOR_DIALOG_INTERACTION
132: 0x108A [0x29] REQ_SET_WAIT(priority=0x08, entity_id=Lilisette (ID: 17523346/0x010B6292), tag_num=0x90)
133: 0x1091 [0x01] GOTO 0x1094

SUBROUTINE_1094:
134: 0x1094 [0x45] LOAD_SCHEDULED_TASK: Load scheduler "fdo1" with entities [LocalPlayer, LocalPlayer], work=[200*, 0*]
135: 0x10A5 [0x55] WAIT_LOAD_SCHEDULER: Wait for scheduler "fdo1" with entities [LocalPlayer, LocalPlayer], work=200*
136: 0x10B4 [0x29] REQ_SET_WAIT(priority=0x08, entity_id=Lilisette (ID: 17523346/0x010B6292), tag_num=0x19)
137: 0x10BB [0x52] END_LOAD_SCHEDULER: End scheduler "s005" with entities [LocalPlayer, LocalPlayer], work=697*
138: 0x10CA [0x4B] UPDATE_ENTITY_YAW(entity=Lilisette (ID: 17523346/0x010B6292), yaw=1.1°*)
139: 0x10D1 [0x6F] WAIT_FRAME_DELAY: Yield until WaitTime reaches zero
140: 0x10D2 [0x76] CHECK_ENTITY_RENDER_FLAGS: Wait until Lilisette (ID: 17523346/0x010B6292) Render.Flags0 and Render.Flags3 conditions are met
141: 0x10D7 [0x5B] LOAD_EXT_SCHEDULER: Load scheduler "fc01" with entities [Lilisette (ID: 17523346/0x010B6292), Lilisette (ID: 17523346/0x010B6292)], work=2135*
142: 0x10E6 [0x29] REQ_SET_WAIT(priority=0x08, entity_id=Lilisette (ID: 17523346/0x010B6292), tag_num=0x20)
143: 0x10ED [0x48] [System] [7700*]:
    → "@@"
144: 0x10F0 [0x23] WAIT_FOR_DIALOG_INTERACTION
145: 0x10F1 [0x45] LOAD_SCHEDULED_TASK: Load scheduler "s015" with entities [LocalPlayer, LocalPlayer], work=[697*, 0*]
146: 0x1102 [0x45] LOAD_SCHEDULED_TASK: Load scheduler "fdi1" with entities [LocalPlayer, LocalPlayer], work=[200*, 0*]
147: 0x1113 [0x55] WAIT_LOAD_SCHEDULER: Wait for scheduler "fdi1" with entities [LocalPlayer, LocalPlayer], work=200*
148: 0x1122 [0x1C] WAIT(120* ticks)
149: 0x1125 [0x52] END_LOAD_SCHEDULER: End scheduler "s015" with entities [LocalPlayer, LocalPlayer], work=697*
150: 0x1134 [0x02] IF !(Work_Zone[9] == 5*) GOTO 0x1150
151: 0x113C [0x45] LOAD_SCHEDULED_TASK: Load scheduler "s023" with entities [LocalPlayer, LocalPlayer], work=[697*, 0*]
152: 0x114D [0x01] GOTO 0x117D
153: 0x1150 [0x02] IF !(Work_Zone[9] == 6*) GOTO 0x116C
154: 0x1158 [0x45] LOAD_SCHEDULED_TASK: Load scheduler "s023" with entities [LocalPlayer, LocalPlayer], work=[697*, 0*]
155: 0x1169 [0x01] GOTO 0x117D
156: 0x116C [0x45] LOAD_SCHEDULED_TASK: Load scheduler "s006" with entities [LocalPlayer, LocalPlayer], work=[697*, 0*]

SUBROUTINE_117D:
157: 0x117D [0x29] REQ_SET_WAIT(priority=0x08, entity_id=Lilisette (ID: 17523346/0x010B6292), tag_num=0x21)
158: 0x1184 [0x29] REQ_SET_WAIT(priority=0x08, entity_id=Lilisette (ID: 17523346/0x010B6292), tag_num=0x22)
159: 0x118B [0x2B] Lilisette (ID: 17523346/0x010B6292) [8193*]:
    → "...But let's leave that aside. I've been doing all I can over here--not just for me, but for Lilith."
160: 0x1192 [0x1C] WAIT(40* ticks)
161: 0x1195 [0x23] WAIT_FOR_DIALOG_INTERACTION
162: 0x1196 [0x29] REQ_SET_WAIT(priority=0x08, entity_id=Lilisette (ID: 17523346/0x010B6292), tag_num=0x23)
163: 0x119D [0x5B] LOAD_EXT_SCHEDULER: Load scheduler "fc00" with entities [Lilisette (ID: 17523346/0x010B6292), Lilisette (ID: 17523346/0x010B6292)], work=2135*
164: 0x11AC [0x6E] LocalPlayer uses emote 7*
165: 0x11B3 [0x99] Wait for LocalPlayer animation to complete
166: 0x11B8 [0x1C] WAIT(90* ticks)
167: 0x11BB [0x5B] LOAD_EXT_SCHEDULER: Load scheduler "fc01" with entities [Lilisette (ID: 17523346/0x010B6292), Lilisette (ID: 17523346/0x010B6292)], work=2135*
168: 0x11CA [0x29] REQ_SET_WAIT(priority=0x08, entity_id=Lilisette (ID: 17523346/0x010B6292), tag_num=0x24)
169: 0x11D1 [0x2B] Lilisette (ID: 17523346/0x010B6292) [8194*]:
    → "Yet it's not enough. One of the Dark Kindred's generals eked out a strange power from beyond the void."
170: 0x11D8 [0x1C] WAIT(40* ticks)
171: 0x11DB [0x23] WAIT_FOR_DIALOG_INTERACTION
172: 0x11DC [0x29] REQ_SET_WAIT(priority=0x08, entity_id=Lilisette (ID: 17523346/0x010B6292), tag_num=0x25)
173: 0x11E3 [0x5B] LOAD_EXT_SCHEDULER: Load scheduler "fc00" with entities [Lilisette (ID: 17523346/0x010B6292), Lilisette (ID: 17523346/0x010B6292)], work=2135*
174: 0x11F2 [0x45] LOAD_SCHEDULED_TASK: Load scheduler "fdo1" with entities [LocalPlayer, LocalPlayer], work=[200*, 0*]
175: 0x1203 [0x55] WAIT_LOAD_SCHEDULER: Wait for scheduler "fdo1" with entities [LocalPlayer, LocalPlayer], work=200*
176: 0x1212 [0x52] END_LOAD_SCHEDULER: End scheduler "s023" with entities [LocalPlayer, LocalPlayer], work=697*
177: 0x1221 [0x52] END_LOAD_SCHEDULER: End scheduler "s006" with entities [LocalPlayer, LocalPlayer], work=697*
178: 0x1230 [0x45] LOAD_SCHEDULED_TASK: Load scheduler "s007" with entities [LocalPlayer, LocalPlayer], work=[697*, 0*]
179: 0x1241 [0x45] LOAD_SCHEDULED_TASK: Load scheduler "fdi1" with entities [LocalPlayer, LocalPlayer], work=[200*, 0*]
180: 0x1252 [0x55] WAIT_LOAD_SCHEDULER: Wait for scheduler "fdi1" with entities [LocalPlayer, LocalPlayer], work=200*
181: 0x1261 [0x4A] Lilisette (ID: 17523346/0x010B6292) looks at LocalPlayer
182: 0x126A [0x2B] Lilisette (ID: 17523346/0x010B6292) [8195*]:
    → "Remember, <Player>, how we tried to go back in time and alter the course of history? His goal is one and the same."
183: 0x1271 [0x1C] WAIT(40* ticks)
184: 0x1274 [0x23] WAIT_FOR_DIALOG_INTERACTION
185: 0x1275 [0x2B] Lilisette (ID: 17523346/0x010B6292) [8196*]:
    → "I never thought he could succeed, but underestimating the enemy only sowed the seeds of our own defeat."
186: 0x127C [0x1C] WAIT(40* ticks)
187: 0x127F [0x23] WAIT_FOR_DIALOG_INTERACTION
188: 0x1280 [0x6F] WAIT_FRAME_DELAY: Yield until WaitTime reaches zero
189: 0x1281 [0x76] CHECK_ENTITY_RENDER_FLAGS: Wait until Lilisette (ID: 17523346/0x010B6292) Render.Flags0 and Render.Flags3 conditions are met
190: 0x1286 [0x45] LOAD_SCHEDULED_TASK: Load scheduler "fdo1" with entities [LocalPlayer, LocalPlayer], work=[200*, 0*]
191: 0x1297 [0x55] WAIT_LOAD_SCHEDULER: Wait for scheduler "fdo1" with entities [LocalPlayer, LocalPlayer], work=200*
192: 0x12A6 [0x7B] Lilisette (ID: 17523346/0x010B6292) stops talking
193: 0x12AB [0x5B] LOAD_EXT_SCHEDULER: Load scheduler "fe01" with entities [Lilisette (ID: 17523346/0x010B6292), Lilisette (ID: 17523346/0x010B6292)], work=2135*
194: 0x12BA [0x29] REQ_SET_WAIT(priority=0x08, entity_id=Lilisette (ID: 17523346/0x010B6292), tag_num=0x3A)
195: 0x12C1 [0x1C] WAIT(20* ticks)
196: 0x12C4 [0x52] END_LOAD_SCHEDULER: End scheduler "s007" with entities [LocalPlayer, LocalPlayer], work=697*
197: 0x12D3 [0x02] IF !(Work_Zone[9] == 5*) GOTO 0x12EF
198: 0x12DB [0x45] LOAD_SCHEDULED_TASK: Load scheduler "s024" with entities [LocalPlayer, LocalPlayer], work=[697*, 0*]
199: 0x12EC [0x01] GOTO 0x131C
200: 0x12EF [0x02] IF !(Work_Zone[9] == 6*) GOTO 0x130B
201: 0x12F7 [0x45] LOAD_SCHEDULED_TASK: Load scheduler "s024" with entities [LocalPlayer, LocalPlayer], work=[697*, 0*]
202: 0x1308 [0x01] GOTO 0x131C
203: 0x130B [0x45] LOAD_SCHEDULED_TASK: Load scheduler "s010" with entities [LocalPlayer, LocalPlayer], work=[697*, 0*]

SUBROUTINE_131C:
204: 0x131C [0x45] LOAD_SCHEDULED_TASK: Load scheduler "fdi1" with entities [LocalPlayer, LocalPlayer], work=[200*, 0*]
205: 0x132D [0x2B] Lilisette (ID: 17523346/0x010B6292) [8197*]:
    → "It's all my fault. Had I only been more vigilant..."
206: 0x1334 [0x1C] WAIT(40* ticks)
207: 0x1337 [0x23] WAIT_FOR_DIALOG_INTERACTION
208: 0x1338 [0x29] REQ_SET_WAIT(priority=0x08, entity_id=Lilisette (ID: 17523346/0x010B6292), tag_num=0x3B)
209: 0x133F [0x5B] LOAD_EXT_SCHEDULER: Load scheduler "fe00" with entities [Lilisette (ID: 17523346/0x010B6292), Lilisette (ID: 17523346/0x010B6292)], work=2135*
210: 0x134E [0x52] END_LOAD_SCHEDULER: End scheduler "s024" with entities [LocalPlayer, LocalPlayer], work=697*
211: 0x135D [0x52] END_LOAD_SCHEDULER: End scheduler "s010" with entities [LocalPlayer, LocalPlayer], work=697*
212: 0x136C [0x45] LOAD_SCHEDULED_TASK: Load scheduler "s009" with entities [LocalPlayer, LocalPlayer], work=[697*, 0*]
213: 0x137D [0x5B] LOAD_EXT_SCHEDULER: Load scheduler "fe01" with entities [Lilisette (ID: 17523346/0x010B6292), Lilisette (ID: 17523346/0x010B6292)], work=2135*
214: 0x138C [0x29] REQ_SET_WAIT(priority=0x08, entity_id=Lilisette (ID: 17523346/0x010B6292), tag_num=0x3C)
215: 0x1393 [0x2B] Lilisette (ID: 17523346/0x010B6292) [8198*]:
    → "It's thanks to Cait Sith that we've barely managed to seal him inside."
216: 0x139A [0x1C] WAIT(40* ticks)
217: 0x139D [0x23] WAIT_FOR_DIALOG_INTERACTION
218: 0x139E [0x29] REQ_SET_WAIT(priority=0x08, entity_id=Lilisette (ID: 17523346/0x010B6292), tag_num=0x3D)
219: 0x13A5 [0x5B] LOAD_EXT_SCHEDULER: Load scheduler "fe00" with entities [Lilisette (ID: 17523346/0x010B6292), Lilisette (ID: 17523346/0x010B6292)], work=2135*
220: 0x13B4 [0x52] END_LOAD_SCHEDULER: End scheduler "s009" with entities [LocalPlayer, LocalPlayer], work=697*
221: 0x13C3 [0x02] IF !(Work_Zone[9] == 5*) GOTO 0x13DF
222: 0x13CB [0x45] LOAD_SCHEDULED_TASK: Load scheduler "s033" with entities [LocalPlayer, LocalPlayer], work=[697*, 0*]
223: 0x13DC [0x01] GOTO 0x140C
224: 0x13DF [0x02] IF !(Work_Zone[9] == 6*) GOTO 0x13FB
225: 0x13E7 [0x45] LOAD_SCHEDULED_TASK: Load scheduler "s033" with entities [LocalPlayer, LocalPlayer], work=[697*, 0*]
226: 0x13F8 [0x01] GOTO 0x140C
227: 0x13FB [0x45] LOAD_SCHEDULED_TASK: Load scheduler "s008" with entities [LocalPlayer, LocalPlayer], work=[697*, 0*]

SUBROUTINE_140C:
228: 0x140C [0x5B] LOAD_EXT_SCHEDULER: Load scheduler "fe01" with entities [Lilisette (ID: 17523346/0x010B6292), Lilisette (ID: 17523346/0x010B6292)], work=2135*
229: 0x141B [0x29] REQ_SET_WAIT(priority=0x08, entity_id=Lilisette (ID: 17523346/0x010B6292), tag_num=0x4A)
230: 0x1422 [0x2B] Lilisette (ID: 17523346/0x010B6292) [8199*]:
    → "But his power, <Player>...it's real. Even worse, it's something I can't handle on my own."
231: 0x1429 [0x1C] WAIT(40* ticks)
232: 0x142C [0x23] WAIT_FOR_DIALOG_INTERACTION
233: 0x142D [0x29] REQ_SET_WAIT(priority=0x08, entity_id=Lilisette (ID: 17523346/0x010B6292), tag_num=0x4B)
234: 0x1434 [0x5B] LOAD_EXT_SCHEDULER: Load scheduler "fe00" with entities [Lilisette (ID: 17523346/0x010B6292), Lilisette (ID: 17523346/0x010B6292)], work=2135*
235: 0x1443 [0x5B] LOAD_EXT_SCHEDULER: Load scheduler "fc01" with entities [Lilisette (ID: 17523346/0x010B6292), Lilisette (ID: 17523346/0x010B6292)], work=2135*
236: 0x1452 [0x29] REQ_SET_WAIT(priority=0x08, entity_id=Lilisette (ID: 17523346/0x010B6292), tag_num=0x4C)
237: 0x1459 [0x2B] Lilisette (ID: 17523346/0x010B6292) [8200*]:
    → "We can only keep him sealed in so long before he inevitably breaks free."
238: 0x1460 [0x1C] WAIT(40* ticks)
239: 0x1463 [0x23] WAIT_FOR_DIALOG_INTERACTION
240: 0x1464 [0x5B] LOAD_EXT_SCHEDULER: Load scheduler "fc00" with entities [Lilisette (ID: 17523346/0x010B6292), Lilisette (ID: 17523346/0x010B6292)], work=2135*
241: 0x1473 [0x29] REQ_SET_WAIT(priority=0x08, entity_id=Lilisette (ID: 17523346/0x010B6292), tag_num=0x4D)
242: 0x147A [0x52] END_LOAD_SCHEDULER: End scheduler "s008" with entities [LocalPlayer, LocalPlayer], work=697*
243: 0x1489 [0x52] END_LOAD_SCHEDULER: End scheduler "s033" with entities [LocalPlayer, LocalPlayer], work=697*
244: 0x1498 [0x45] LOAD_SCHEDULED_TASK: Load scheduler "s013" with entities [LocalPlayer, LocalPlayer], work=[697*, 0*]
245: 0x14A9 [0x5B] LOAD_EXT_SCHEDULER: Load scheduler "fi01" with entities [Lilisette (ID: 17523346/0x010B6292), Lilisette (ID: 17523346/0x010B6292)], work=2135*
246: 0x14B8 [0x29] REQ_SET_WAIT(priority=0x08, entity_id=Lilisette (ID: 17523346/0x010B6292), tag_num=0x40)
247: 0x14BF [0x2B] Lilisette (ID: 17523346/0x010B6292) [8201*]:
    → "Please, lend me your aid one last time!"
248: 0x14C6 [0x1C] WAIT(40* ticks)
249: 0x14C9 [0x23] WAIT_FOR_DIALOG_INTERACTION
250: 0x14CA [0x2B] Lilisette (ID: 17523346/0x010B6292) [8202*]:
    → "We've got to vanquish him before the past is rewritten!"
251: 0x14D1 [0x1C] WAIT(40* ticks)
252: 0x14D4 [0x23] WAIT_FOR_DIALOG_INTERACTION
253: 0x14D5 [0x29] REQ_SET_WAIT(priority=0x08, entity_id=Lilisette (ID: 17523346/0x010B6292), tag_num=0x41)
254: 0x14DC [0x5B] LOAD_EXT_SCHEDULER: Load scheduler "fi00" with entities [Lilisette (ID: 17523346/0x010B6292), Lilisette (ID: 17523346/0x010B6292)], work=2135*
255: 0x14EB [0x52] END_LOAD_SCHEDULER: End scheduler "s013" with entities [LocalPlayer, LocalPlayer], work=697*
256: 0x14FA [0x02] IF !(Work_Zone[9] == 3*) GOTO 0x1516
257: 0x1502 [0x45] LOAD_SCHEDULED_TASK: Load scheduler "s011" with entities [LocalPlayer, LocalPlayer], work=[697*, 0*]
258: 0x1513 [0x01] GOTO 0x157B
259: 0x1516 [0x02] IF !(Work_Zone[9] == 5*) GOTO 0x1532
260: 0x151E [0x45] LOAD_SCHEDULED_TASK: Load scheduler "s026" with entities [LocalPlayer, LocalPlayer], work=[697*, 0*]
261: 0x152F [0x01] GOTO 0x157B
262: 0x1532 [0x02] IF !(Work_Zone[9] == 6*) GOTO 0x154E
263: 0x153A [0x45] LOAD_SCHEDULED_TASK: Load scheduler "s026" with entities [LocalPlayer, LocalPlayer], work=[697*, 0*]
264: 0x154B [0x01] GOTO 0x157B
265: 0x154E [0x02] IF !(Work_Zone[9] == 8*) GOTO 0x156A
266: 0x1556 [0x45] LOAD_SCHEDULED_TASK: Load scheduler "s011" with entities [LocalPlayer, LocalPlayer], work=[697*, 0*]
267: 0x1567 [0x01] GOTO 0x157B
268: 0x156A [0x45] LOAD_SCHEDULED_TASK: Load scheduler "s031" with entities [LocalPlayer, LocalPlayer], work=[697*, 0*]

SUBROUTINE_157B:
269: 0x157B [0x1C] WAIT(30* ticks)
