# 17523225 - TGS_182

## Common Data

| Field            | Value                    |
|------------------|--------------------------|
| Zone             | Walk of Echoes (ID: 182) |
| Block Size       | 288 bytes                |
| Total Events     | 2                        |
| References Count | 10                       |

## List of Events

| Event ID              | Entrypoint   |   Size |   Instructions |
|-----------------------|--------------|--------|----------------|
| [65535](#event-65535) | 0x0000       |      1 |              1 |
| [100](#event-100)     | 0x0001       |    220 |             32 |

## DAT References (imed_data)

|   Index | Hex Value   |   Dec Value |
|---------|-------------|-------------|
|       0 | 0x00C8      |         200 |
|       1 | 0x0000      |           0 |
|       2 | 0x003C      |          60 |
|       3 | 0x0002      |           2 |
|       4 | 0x0013      |          19 |
|       5 | 0x000F      |          15 |
|       6 | 0x00C9      |         201 |
|       7 | 0x1E0B      |        7691 |
|       8 | 0x0155      |         341 |
|       9 | 0x0384      |         900 |

## String References

- **7691**: TEST: Press confirm button to start.

## Events

### Event 65535

#### Metadata

| Field        | Value   |
|--------------|---------|
| Entrypoint   | 0x0000  |
| Data Size    | 1 bytes |
| Instructions | 1       |

```
      00 01 02 03 04 05 06 07  08 09 0A 0B 0C 0D 0E 0F
      -- -- -- -- -- -- -- --  -- -- -- -- -- -- -- --
0000: 00                                                .               
```

#### Opcodes

```
  0: 0x0000 [0x00] END_REQSTACK()
```

### Event 100

#### Metadata

| Field        | Value     |
|--------------|-----------|
| Entrypoint   | 0x0001    |
| Data Size    | 220 bytes |
| Instructions | 32        |

```
      00 01 02 03 04 05 06 07  08 09 0A 0B 0C 0D 0E 0F
      -- -- -- -- -- -- -- --  -- -- -- -- -- -- -- --
0000:    20 01 42 46 01 45 00  80 F0 FF FF 7F F0 FF FF    .BF.E.........
0010: 7F 66 64 6F 31 01 80 1C  02 80 77 03 80 04 80 38  .fdo1.....w....8
0020: 04 80 80 1A 62 0B 01 80  1B 62 0B 01 1C 05 80 29  ....b....b.....)
0030: 10 1A 62 0B 01 01 45 00  80 F0 FF FF 7F F0 FF FF  ..b...E.........
0040: 7F 62 6C 6F 6E 01 80 45  06 80 F0 FF FF 7F F0 FF  .blon..E........
0050: FF 7F 62 6C 6F 6E 01 80  45 00 80 F0 FF FF 7F F0  ..blon..E.......
0060: FF FF 7F 66 64 69 31 01  80 1C 02 80 48 07 80 23  ...fdi1.....H..#
0070: 67 01 80 01 80 27 10 1A  62 0B 01 02 45 08 80 F0  g....'..b...E...
0080: FF FF 7F F0 FF FF 7F 74  67 73 33 01 80 1C 09 80  .......tgs3.....
0090: 45 00 80 F0 FF FF 7F F0  FF FF 7F 66 64 6F 31 01  E..........fdo1.
00A0: 80 1C 02 80 52 08 80 F0  FF FF 7F F0 FF FF 7F 74  ....R..........t
00B0: 67 73 33 78 68 45 00 80  F0 FF FF 7F F0 FF FF 7F  gs3xhE..........
00C0: 62 6C 6F 66 01 80 46 00  45 00 80 F0 FF FF 7F F0  blof..F.E.......
00D0: FF FF 7F 66 64 69 31 01  80 20 00 21 00           ...fdi1.. .!.   
```

#### Opcodes

```
  0: 0x0001 [0x20] SET_CLI_EVENT_UC_FLAG: Lock player control
  1: 0x0003 [0x42] SET_CLI_EVENT_CANCEL_DATA()
  2: 0x0004 [0x46] CAMERA_CONTROL: Disable user control
  3: 0x0006 [0x45] LOAD_SCHEDULED_TASK: Load scheduler "fdo1" with entities [LocalPlayer, LocalPlayer], work=[200*, 0*]
  4: 0x0017 [0x1C] WAIT(60* ticks)
  5: 0x001A [0x77] SET_EVENT_TIME_WEATHER(hour=2*, weather=19*)
  6: 0x001F [0x38] SET_CLIENT_EVENT_MODE(mode=19*)
  7: 0x0022 [0x80] LOAD_WAIT(entity=test_PT01 (ID: 17523226/0x010B621A))
  8: 0x0027 [0x80] LOAD_WAIT(entity=test_PT02 (ID: 17523227/0x010B621B))
  9: 0x002C [0x1C] WAIT(15* ticks)
 10: 0x002F [0x29] REQ_SET_WAIT(priority=0x10, entity_id=test_PT01 (ID: 17523226/0x010B621A), tag_num=0x01)
 11: 0x0036 [0x45] LOAD_SCHEDULED_TASK: Load scheduler "blon" with entities [LocalPlayer, LocalPlayer], work=[200*, 0*]
 12: 0x0047 [0x45] LOAD_SCHEDULED_TASK: Load scheduler "blon" with entities [LocalPlayer, LocalPlayer], work=[201*, 0*]
 13: 0x0058 [0x45] LOAD_SCHEDULED_TASK: Load scheduler "fdi1" with entities [LocalPlayer, LocalPlayer], work=[200*, 0*]
 14: 0x0069 [0x1C] WAIT(60* ticks)
 15: 0x006C [0x48] [System] [7691*]:
    → "TEST: Press confirm button to start."
 16: 0x006F [0x23] WAIT_FOR_DIALOG_INTERACTION
 17: 0x0070 [0x67] HIDE_HUD_ELEMENTS(param1=0x8001, param2=0x8001)
 18: 0x0075 [0x27] REQ_SET(priority=0x10, entity_id=test_PT01 (ID: 17523226/0x010B621A), tag_num=0x02)
 19: 0x007C [0x45] LOAD_SCHEDULED_TASK: Load scheduler "tgs3" with entities [LocalPlayer, LocalPlayer], work=[341*, 0*]
 20: 0x008D [0x1C] WAIT(900* ticks)
 21: 0x0090 [0x45] LOAD_SCHEDULED_TASK: Load scheduler "fdo1" with entities [LocalPlayer, LocalPlayer], work=[200*, 0*]
 22: 0x00A1 [0x1C] WAIT(60* ticks)
 23: 0x00A4 [0x52] END_LOAD_SCHEDULER: End scheduler "tgs3" with entities [LocalPlayer, LocalPlayer], work=341*
 24: 0x00B3 [0x78] ENABLE_GAME_TIMER_RESET_WEATHER()
 25: 0x00B4 [0x68] SHOW_HUD_ELEMENTS()
 26: 0x00B5 [0x45] LOAD_SCHEDULED_TASK: Load scheduler "blof" with entities [LocalPlayer, LocalPlayer], work=[200*, 0*]
 27: 0x00C6 [0x46] CAMERA_CONTROL: Restore default settings
 28: 0x00C8 [0x45] LOAD_SCHEDULED_TASK: Load scheduler "fdi1" with entities [LocalPlayer, LocalPlayer], work=[200*, 0*]
 29: 0x00D9 [0x20] SET_CLI_EVENT_UC_FLAG: Unlock player control
 30: 0x00DB [0x21] END_EVENT
 31: 0x00DC [0x00] END_REQSTACK()
```
