# 17523324 - 01

## Common Data

| Field            | Value                    |
|------------------|--------------------------|
| Zone             | Walk of Echoes (ID: 182) |
| Block Size       | 244 bytes                |
| Total Events     | 6                        |
| References Count | 15                       |

## List of Events

| Event ID                 | Entrypoint   |   Size |   Instructions |
|--------------------------|--------------|--------|----------------|
| [65535](#event-65535)    | 0x0000       |      1 |              1 |
| [10](#event-10)          | 0x0001       |     15 |              4 |
| [4](#event-4)            | 0x0010       |     15 |              4 |
| [65535.1](#event-655351) | 0x001F       |     90 |             14 |
| [65535.2](#event-655352) | 0x0079       |     10 |              2 |
| [65535.3](#event-655353) | 0x0083       |     10 |              2 |

## DAT References (imed_data)

|   Index | Hex Value   |   Dec Value |
|---------|-------------|-------------|
|       0 | 0xFFF58468  |  4294280296 |
|       1 | 0xFFF94620  |  4294526496 |
|       2 | 0xFFF86022  |  4294467618 |
|       3 | 0x0DAC      |        3500 |
|       4 | 0x002D      |          45 |
|       5 | 0x0015      |          21 |
|       6 | 0x0000      |           0 |
|       7 | 0x005A      |          90 |
|       8 | 0xFFF56A82  |  4294273666 |
|       9 | 0xFFF94EEA  |  4294528746 |
|      10 | 0xFFF85EE0  |  4294467296 |
|      11 | 0x09C4      |        2500 |
|      12 | 0x0511      |        1297 |
|      13 | 0x0080      |         128 |
|      14 | 0x0001      |           1 |

## Events

### Event 65535

#### Metadata

| Field        | Value   |
|--------------|---------|
| Entrypoint   | 0x0000  |
| Data Size    | 1 bytes |
| Instructions | 1       |

```
      00 01 02 03 04 05 06 07  08 09 0A 0B 0C 0D 0E 0F
      -- -- -- -- -- -- -- --  -- -- -- -- -- -- -- --
0000: 00                                                .               
```

#### Opcodes

```
  0: 0x0000 [0x00] END_REQSTACK()
```

### Event 10

#### Metadata

| Field        | Value    |
|--------------|----------|
| Entrypoint   | 0x0001   |
| Data Size    | 15 bytes |
| Instructions | 4        |

```
      00 01 02 03 04 05 06 07  08 09 0A 0B 0C 0D 0E 0F
      -- -- -- -- -- -- -- --  -- -- -- -- -- -- -- --
0000:    2F 00 7C 62 0B 01 22  00 92 01 7C 62 0B 01 00   /.|b.."...|b...
```

#### Opcodes

```
  0: 0x0001 [0x2F] 01 (ID: 17523324/0x010B627C)->Render.Flags0 &= ~0x80000 // Bit 19
  1: 0x0007 [0x22] ENTITY_HIDE_FLAG(enabled=0x00)
  2: 0x0009 [0x92] 01 (ID: 17523324/0x010B627C)->Render.Flags3 ^= 0x01
  3: 0x000F [0x00] END_REQSTACK()
```

### Event 4

#### Metadata

| Field        | Value    |
|--------------|----------|
| Entrypoint   | 0x0010   |
| Data Size    | 15 bytes |
| Instructions | 4        |

```
      00 01 02 03 04 05 06 07  08 09 0A 0B 0C 0D 0E 0F
      -- -- -- -- -- -- -- --  -- -- -- -- -- -- -- --
0010: 2F 00 7C 62 0B 01 22 00  92 01 7C 62 0B 01 00     /.|b.."...|b... 
```

#### Opcodes

```
  0: 0x0010 [0x2F] 01 (ID: 17523324/0x010B627C)->Render.Flags0 &= ~0x80000 // Bit 19
  1: 0x0016 [0x22] ENTITY_HIDE_FLAG(enabled=0x00)
  2: 0x0018 [0x92] 01 (ID: 17523324/0x010B627C)->Render.Flags3 ^= 0x01
  3: 0x001E [0x00] END_REQSTACK()
```

### Event 65535.1

#### Metadata

| Field        | Value    |
|--------------|----------|
| Entrypoint   | 0x001F   |
| Data Size    | 90 bytes |
| Instructions | 14       |

```
      00 01 02 03 04 05 06 07  08 09 0A 0B 0C 0D 0E 0F
      -- -- -- -- -- -- -- --  -- -- -- -- -- -- -- --
0010:                                               1F                 .
0020: 00 00 80 01 80 02 80 1F  01 4B 7C 62 0B 01 03 80  .........K|b....
0030: 1C 04 80 6E 7C 62 0B 01  05 80 99 7C 62 0B 01 6C  ...n|b.....|b..l
0040: 7C 62 0B 01 06 80 07 80  37 08 80 09 80 0A 80 0B  |b......7.......
0050: 80 1C 07 80 5B 0C 80 7C  62 0B 01 7C 62 0B 01 62  ....[..|b..|b..b
0060: 73 30 30 6C 7C 62 0B 01  0D 80 07 80 1C 07 80 6C  s00l|b.........l
0070: 7C 62 0B 01 06 80 07 80  00                       |b.......       
```

#### Opcodes

```
  0: 0x001F [0x1F] MOVE_ENTITY: EventEntity moves to X=-687.000*, Z=-440.800*, Y=-499.678*
  1: 0x0027 [0x1F] MOVE_ENTITY: Update entity position (mode=1)
  2: 0x0029 [0x4B] UPDATE_ENTITY_YAW(entity=01 (ID: 17523324/0x010B627C), yaw=19.2°*)
  3: 0x0030 [0x1C] WAIT(45* ticks)
  4: 0x0033 [0x6E] 01 (ID: 17523324/0x010B627C) uses emote 21*
  5: 0x003A [0x99] Wait for 01 (ID: 17523324/0x010B627C) animation to complete
  6: 0x003F [0x6C] FADE_ENTITY_COLOR(entity_id=01 (ID: 17523324/0x010B627C), end_alpha=0*, fade_time=90*)
  7: 0x0048 [0x37] UPDATE_EVENT_POSITION_AND_DIR: x=-693.630*, z=-438.550*, y=-500.000*, direction=219.7°*
  8: 0x0051 [0x1C] WAIT(90* ticks)
  9: 0x0054 [0x5B] LOAD_EXT_SCHEDULER: Load scheduler "bs00" with entities [01 (ID: 17523324/0x010B627C), 01 (ID: 17523324/0x010B627C)], work=1297*
 10: 0x0063 [0x6C] FADE_ENTITY_COLOR(entity_id=01 (ID: 17523324/0x010B627C), end_alpha=128*, fade_time=90*)
 11: 0x006C [0x1C] WAIT(90* ticks)
 12: 0x006F [0x6C] FADE_ENTITY_COLOR(entity_id=01 (ID: 17523324/0x010B627C), end_alpha=0*, fade_time=90*)
 13: 0x0078 [0x00] END_REQSTACK()
```

### Event 65535.2

#### Metadata

| Field        | Value    |
|--------------|----------|
| Entrypoint   | 0x0079   |
| Data Size    | 10 bytes |
| Instructions | 2        |

```
      00 01 02 03 04 05 06 07  08 09 0A 0B 0C 0D 0E 0F
      -- -- -- -- -- -- -- --  -- -- -- -- -- -- -- --
0070:                             6C 7C 62 0B 01 06 80           l|b....
0080: 0E 80 00                                          ...             
```

#### Opcodes

```
  0: 0x0079 [0x6C] FADE_ENTITY_COLOR(entity_id=01 (ID: 17523324/0x010B627C), end_alpha=0*, fade_time=1*)
  1: 0x0082 [0x00] END_REQSTACK()
```

### Event 65535.3

#### Metadata

| Field        | Value    |
|--------------|----------|
| Entrypoint   | 0x0083   |
| Data Size    | 10 bytes |
| Instructions | 2        |

```
      00 01 02 03 04 05 06 07  08 09 0A 0B 0C 0D 0E 0F
      -- -- -- -- -- -- -- --  -- -- -- -- -- -- -- --
0080:          6C 7C 62 0B 01  0D 80 0E 80 00              l|b.......   
```

#### Opcodes

```
  0: 0x0083 [0x6C] FADE_ENTITY_COLOR(entity_id=01 (ID: 17523324/0x010B627C), end_alpha=128*, fade_time=1*)
  1: 0x008C [0x00] END_REQSTACK()
```
