# 17523330 - 07

## Common Data

| Field            | Value                    |
|------------------|--------------------------|
| Zone             | Walk of Echoes (ID: 182) |
| Block Size       | 176 bytes                |
| Total Events     | 8                        |
| References Count | 10                       |

## List of Events

| Event ID                 | Entrypoint   |   Size |   Instructions |
|--------------------------|--------------|--------|----------------|
| [65535](#event-65535)    | 0x0000       |      1 |              1 |
| [4](#event-4)            | 0x0001       |     15 |              4 |
| [65535.1](#event-655351) | 0x0010       |     10 |              2 |
| [65535.2](#event-655352) | 0x001A       |     10 |              2 |
| [65535.3](#event-655353) | 0x0024       |     10 |              2 |
| [65535.4](#event-655354) | 0x002E       |      4 |              2 |
| [65535.5](#event-655355) | 0x0032       |      2 |              2 |
| [65535.6](#event-655356) | 0x0034       |     35 |              7 |

## DAT References (imed_data)

|   Index | Hex Value   |   Dec Value |
|---------|-------------|-------------|
|       0 | 0x0000      |           0 |
|       1 | 0x0001      |           1 |
|       2 | 0x0080      |         128 |
|       3 | 0x003C      |          60 |
|       4 | 0x0002      |           2 |
|       5 | 0x0025      |          37 |
|       6 | 0x005A      |          90 |
|       7 | 0xFFF58C38  |  4294282296 |
|       8 | 0xFFF953E8  |  4294530024 |
|       9 | 0xFFF85EE0  |  4294467296 |

## Events

### Event 65535

#### Metadata

| Field        | Value   |
|--------------|---------|
| Entrypoint   | 0x0000  |
| Data Size    | 1 bytes |
| Instructions | 1       |

```
      00 01 02 03 04 05 06 07  08 09 0A 0B 0C 0D 0E 0F
      -- -- -- -- -- -- -- --  -- -- -- -- -- -- -- --
0000: 00                                                .               
```

#### Opcodes

```
  0: 0x0000 [0x00] END_REQSTACK()
```

### Event 4

#### Metadata

| Field        | Value    |
|--------------|----------|
| Entrypoint   | 0x0001   |
| Data Size    | 15 bytes |
| Instructions | 4        |

```
      00 01 02 03 04 05 06 07  08 09 0A 0B 0C 0D 0E 0F
      -- -- -- -- -- -- -- --  -- -- -- -- -- -- -- --
0000:    2F 00 82 62 0B 01 22  00 92 01 82 62 0B 01 00   /..b.."....b...
```

#### Opcodes

```
  0: 0x0001 [0x2F] 07 (ID: 17523330/0x010B6282)->Render.Flags0 &= ~0x80000 // Bit 19
  1: 0x0007 [0x22] ENTITY_HIDE_FLAG(enabled=0x00)
  2: 0x0009 [0x92] 07 (ID: 17523330/0x010B6282)->Render.Flags3 ^= 0x01
  3: 0x000F [0x00] END_REQSTACK()
```

### Event 65535.1

#### Metadata

| Field        | Value    |
|--------------|----------|
| Entrypoint   | 0x0010   |
| Data Size    | 10 bytes |
| Instructions | 2        |

```
      00 01 02 03 04 05 06 07  08 09 0A 0B 0C 0D 0E 0F
      -- -- -- -- -- -- -- --  -- -- -- -- -- -- -- --
0010: 6C 82 62 0B 01 00 80 01  80 00                    l.b.......      
```

#### Opcodes

```
  0: 0x0010 [0x6C] FADE_ENTITY_COLOR(entity_id=07 (ID: 17523330/0x010B6282), end_alpha=0*, fade_time=1*)
  1: 0x0019 [0x00] END_REQSTACK()
```

### Event 65535.2

#### Metadata

| Field        | Value    |
|--------------|----------|
| Entrypoint   | 0x001A   |
| Data Size    | 10 bytes |
| Instructions | 2        |

```
      00 01 02 03 04 05 06 07  08 09 0A 0B 0C 0D 0E 0F
      -- -- -- -- -- -- -- --  -- -- -- -- -- -- -- --
0010:                                6C 82 62 0B 01 02            l.b...
0020: 80 01 80 00                                       ....            
```

#### Opcodes

```
  0: 0x001A [0x6C] FADE_ENTITY_COLOR(entity_id=07 (ID: 17523330/0x010B6282), end_alpha=128*, fade_time=1*)
  1: 0x0023 [0x00] END_REQSTACK()
```

### Event 65535.3

#### Metadata

| Field        | Value    |
|--------------|----------|
| Entrypoint   | 0x0024   |
| Data Size    | 10 bytes |
| Instructions | 2        |

```
      00 01 02 03 04 05 06 07  08 09 0A 0B 0C 0D 0E 0F
      -- -- -- -- -- -- -- --  -- -- -- -- -- -- -- --
0020:             6C 82 62 0B  01 02 80 03 80 00            l.b.......  
```

#### Opcodes

```
  0: 0x0024 [0x6C] FADE_ENTITY_COLOR(entity_id=07 (ID: 17523330/0x010B6282), end_alpha=128*, fade_time=60*)
  1: 0x002D [0x00] END_REQSTACK()
```

### Event 65535.4

#### Metadata

| Field        | Value   |
|--------------|---------|
| Entrypoint   | 0x002E  |
| Data Size    | 4 bytes |
| Instructions | 2       |

```
      00 01 02 03 04 05 06 07  08 09 0A 0B 0C 0D 0E 0F
      -- -- -- -- -- -- -- --  -- -- -- -- -- -- -- --
0020:                                            95 04                ..
0030: 80 00                                             ..              
```

#### Opcodes

```
  0: 0x002E [0x95] SETUP_EVENT_NPC: Prepare NPC for event (Render.Flags3 = 2*)
  1: 0x0031 [0x00] END_REQSTACK()
```

### Event 65535.5

#### Metadata

| Field        | Value   |
|--------------|---------|
| Entrypoint   | 0x0032  |
| Data Size    | 2 bytes |
| Instructions | 2       |

```
      00 01 02 03 04 05 06 07  08 09 0A 0B 0C 0D 0E 0F
      -- -- -- -- -- -- -- --  -- -- -- -- -- -- -- --
0030:       96 00                                         ..            
```

#### Opcodes

```
  0: 0x0032 [0x96] UNSET_EVENT_NPC: Restore NPC after event (removes event NPC status)
  1: 0x0033 [0x00] END_REQSTACK()
```

### Event 65535.6

#### Metadata

| Field        | Value    |
|--------------|----------|
| Entrypoint   | 0x0034   |
| Data Size    | 35 bytes |
| Instructions | 7        |

```
      00 01 02 03 04 05 06 07  08 09 0A 0B 0C 0D 0E 0F
      -- -- -- -- -- -- -- --  -- -- -- -- -- -- -- --
0030:             1C 03 80 32  05 80 6C 82 62 0B 01 02      ...2..l.b...
0040: 80 06 80 1F 00 07 80 08  80 09 80 1F 01 6C 82 62  .............l.b
0050: 0B 01 00 80 01 80 00                              .......         
```

#### Opcodes

```
  0: 0x0034 [0x1C] WAIT(60* ticks)
  1: 0x0037 [0x32] ExtData[1]->MainSpeed = 37* * 0.1
  2: 0x003A [0x6C] FADE_ENTITY_COLOR(entity_id=07 (ID: 17523330/0x010B6282), end_alpha=128*, fade_time=90*)
  3: 0x0043 [0x1F] MOVE_ENTITY: EventEntity moves to X=-685.000*, Z=-437.272*, Y=-500.000*
  4: 0x004B [0x1F] MOVE_ENTITY: Update entity position (mode=1)
  5: 0x004D [0x6C] FADE_ENTITY_COLOR(entity_id=07 (ID: 17523330/0x010B6282), end_alpha=0*, fade_time=1*)
  6: 0x0056 [0x00] END_REQSTACK()
```
