# 17523326 - 03

## Common Data

| Field            | Value                    |
|------------------|--------------------------|
| Zone             | Walk of Echoes (ID: 182) |
| Block Size       | 176 bytes                |
| Total Events     | 6                        |
| References Count | 7                        |

## List of Events

| Event ID                 | Entrypoint   |   Size |   Instructions |
|--------------------------|--------------|--------|----------------|
| [65535](#event-65535)    | 0x0000       |      1 |              1 |
| [10](#event-10)          | 0x0001       |     15 |              4 |
| [4](#event-4)            | 0x0010       |     15 |              4 |
| [65535.1](#event-655351) | 0x001F       |     10 |              2 |
| [65535.2](#event-655352) | 0x0029       |     10 |              2 |
| [65535.3](#event-655353) | 0x0033       |     55 |              9 |

## DAT References (imed_data)

|   Index | Hex Value   |   Dec Value |
|---------|-------------|-------------|
|       0 | 0x0000      |           0 |
|       1 | 0x0001      |           1 |
|       2 | 0x0080      |         128 |
|       3 | 0x00D2      |         210 |
|       4 | 0x005A      |          90 |
|       5 | 0x002B      |          43 |
|       6 | 0x0078      |         120 |

## Events

### Event 65535

#### Metadata

| Field        | Value   |
|--------------|---------|
| Entrypoint   | 0x0000  |
| Data Size    | 1 bytes |
| Instructions | 1       |

```
      00 01 02 03 04 05 06 07  08 09 0A 0B 0C 0D 0E 0F
      -- -- -- -- -- -- -- --  -- -- -- -- -- -- -- --
0000: 00                                                .               
```

#### Opcodes

```
  0: 0x0000 [0x00] END_REQSTACK()
```

### Event 10

#### Metadata

| Field        | Value    |
|--------------|----------|
| Entrypoint   | 0x0001   |
| Data Size    | 15 bytes |
| Instructions | 4        |

```
      00 01 02 03 04 05 06 07  08 09 0A 0B 0C 0D 0E 0F
      -- -- -- -- -- -- -- --  -- -- -- -- -- -- -- --
0000:    2F 00 7C 62 0B 01 22  00 92 01 7C 62 0B 01 00   /.|b.."...|b...
```

#### Opcodes

```
  0: 0x0001 [0x2F] 01 (ID: 17523324/0x010B627C)->Render.Flags0 &= ~0x80000 // Bit 19
  1: 0x0007 [0x22] ENTITY_HIDE_FLAG(enabled=0x00)
  2: 0x0009 [0x92] 01 (ID: 17523324/0x010B627C)->Render.Flags3 ^= 0x01
  3: 0x000F [0x00] END_REQSTACK()
```

### Event 4

#### Metadata

| Field        | Value    |
|--------------|----------|
| Entrypoint   | 0x0010   |
| Data Size    | 15 bytes |
| Instructions | 4        |

```
      00 01 02 03 04 05 06 07  08 09 0A 0B 0C 0D 0E 0F
      -- -- -- -- -- -- -- --  -- -- -- -- -- -- -- --
0010: 2F 00 7E 62 0B 01 22 00  92 01 7E 62 0B 01 00     /.~b.."...~b... 
```

#### Opcodes

```
  0: 0x0010 [0x2F] 03 (ID: 17523326/0x010B627E)->Render.Flags0 &= ~0x80000 // Bit 19
  1: 0x0016 [0x22] ENTITY_HIDE_FLAG(enabled=0x00)
  2: 0x0018 [0x92] 03 (ID: 17523326/0x010B627E)->Render.Flags3 ^= 0x01
  3: 0x001E [0x00] END_REQSTACK()
```

### Event 65535.1

#### Metadata

| Field        | Value    |
|--------------|----------|
| Entrypoint   | 0x001F   |
| Data Size    | 10 bytes |
| Instructions | 2        |

```
      00 01 02 03 04 05 06 07  08 09 0A 0B 0C 0D 0E 0F
      -- -- -- -- -- -- -- --  -- -- -- -- -- -- -- --
0010:                                               6C                 l
0020: 7E 62 0B 01 00 80 01 80  00                       ~b.......       
```

#### Opcodes

```
  0: 0x001F [0x6C] FADE_ENTITY_COLOR(entity_id=03 (ID: 17523326/0x010B627E), end_alpha=0*, fade_time=1*)
  1: 0x0028 [0x00] END_REQSTACK()
```

### Event 65535.2

#### Metadata

| Field        | Value    |
|--------------|----------|
| Entrypoint   | 0x0029   |
| Data Size    | 10 bytes |
| Instructions | 2        |

```
      00 01 02 03 04 05 06 07  08 09 0A 0B 0C 0D 0E 0F
      -- -- -- -- -- -- -- --  -- -- -- -- -- -- -- --
0020:                             6C 7E 62 0B 01 02 80           l~b....
0030: 01 80 00                                          ...             
```

#### Opcodes

```
  0: 0x0029 [0x6C] FADE_ENTITY_COLOR(entity_id=03 (ID: 17523326/0x010B627E), end_alpha=128*, fade_time=1*)
  1: 0x0032 [0x00] END_REQSTACK()
```

### Event 65535.3

#### Metadata

| Field        | Value    |
|--------------|----------|
| Entrypoint   | 0x0033   |
| Data Size    | 55 bytes |
| Instructions | 9        |

```
      00 01 02 03 04 05 06 07  08 09 0A 0B 0C 0D 0E 0F
      -- -- -- -- -- -- -- --  -- -- -- -- -- -- -- --
0030:          1C 03 80 6C 7E  62 0B 01 02 80 04 80 1C     ...l~b.......
0040: 04 80 66 05 80 7E 62 0B  01 7E 62 0B 01 73 68 62  ..f..~b..~b..shb
0050: 6B 1C 06 80 6C 7E 62 0B  01 00 80 04 80 1C 06 80  k...l~b.........
0060: 6B 69 64 6C 30 7E 62 0B  01 00                    kidl0~b...      
```

#### Opcodes

```
  0: 0x0033 [0x1C] WAIT(210* ticks)
  1: 0x0036 [0x6C] FADE_ENTITY_COLOR(entity_id=03 (ID: 17523326/0x010B627E), end_alpha=128*, fade_time=90*)
  2: 0x003F [0x1C] WAIT(90* ticks)
  3: 0x0042 [0x66] LOAD_EXT_SCHEDULER_MAIN: Load scheduler "shbk" with entities [03 (ID: 17523326/0x010B627E), 03 (ID: 17523326/0x010B627E)], work=43*
  4: 0x0051 [0x1C] WAIT(120* ticks)
  5: 0x0054 [0x6C] FADE_ENTITY_COLOR(entity_id=03 (ID: 17523326/0x010B627E), end_alpha=0*, fade_time=90*)
  6: 0x005D [0x1C] WAIT(120* ticks)
  7: 0x0060 [0x6B] STOP_AND_IDLE: 03 (ID: 17523326/0x010B627E) stops current action and resets to idle (animation="idl0")
  8: 0x0069 [0x00] END_REQSTACK()
```
