# 17523332

## Common Data

| Field            | Value                    |
|------------------|--------------------------|
| Zone             | Walk of Echoes (ID: 182) |
| Block Size       | 40 bytes                 |
| Total Events     | 2                        |
| References Count | 0                        |

## List of Events

| Event ID              | Entrypoint   |   Size |   Instructions |
|-----------------------|--------------|--------|----------------|
| [65535](#event-65535) | 0x0000       |      1 |              1 |
| [4](#event-4)         | 0x0001       |     15 |              4 |

## Events

### Event 65535

#### Metadata

| Field        | Value   |
|--------------|---------|
| Entrypoint   | 0x0000  |
| Data Size    | 1 bytes |
| Instructions | 1       |

```
      00 01 02 03 04 05 06 07  08 09 0A 0B 0C 0D 0E 0F
      -- -- -- -- -- -- -- --  -- -- -- -- -- -- -- --
0000: 00                                                .               
```

#### Opcodes

```
  0: 0x0000 [0x00] END_REQSTACK()
```

### Event 4

#### Metadata

| Field        | Value    |
|--------------|----------|
| Entrypoint   | 0x0001   |
| Data Size    | 15 bytes |
| Instructions | 4        |

```
      00 01 02 03 04 05 06 07  08 09 0A 0B 0C 0D 0E 0F
      -- -- -- -- -- -- -- --  -- -- -- -- -- -- -- --
0000:    2F 00 84 62 0B 01 22  00 92 01 84 62 0B 01 00   /..b.."....b...
```

#### Opcodes

```
  0: 0x0001 [0x2F] ??? (ID: 17523332/0x010B6284)->Render.Flags0 &= ~0x80000 // Bit 19
  1: 0x0007 [0x22] ENTITY_HIDE_FLAG(enabled=0x00)
  2: 0x0009 [0x92] ??? (ID: 17523332/0x010B6284)->Render.Flags3 ^= 0x01
  3: 0x000F [0x00] END_REQSTACK()
```
