# 17523328 - 05

## Common Data

| Field            | Value                    |
|------------------|--------------------------|
| Zone             | Walk of Echoes (ID: 182) |
| Block Size       | 148 bytes                |
| Total Events     | 5                        |
| References Count | 8                        |

## List of Events

| Event ID                 | Entrypoint   |   Size |   Instructions |
|--------------------------|--------------|--------|----------------|
| [65535](#event-65535)    | 0x0000       |      1 |              1 |
| [4](#event-4)            | 0x0001       |     15 |              4 |
| [65535.1](#event-655351) | 0x0010       |     10 |              2 |
| [65535.2](#event-655352) | 0x001A       |     10 |              2 |
| [65535.3](#event-655353) | 0x0024       |     43 |              7 |

## DAT References (imed_data)

|   Index | Hex Value   |   Dec Value |
|---------|-------------|-------------|
|       0 | 0x0000      |           0 |
|       1 | 0x0001      |           1 |
|       2 | 0x0080      |         128 |
|       3 | 0x00B4      |         180 |
|       4 | 0x089C      |        2204 |
|       5 | 0x003C      |          60 |
|       6 | 0x005A      |          90 |
|       7 | 0x0096      |         150 |

## Events

### Event 65535

#### Metadata

| Field        | Value   |
|--------------|---------|
| Entrypoint   | 0x0000  |
| Data Size    | 1 bytes |
| Instructions | 1       |

```
      00 01 02 03 04 05 06 07  08 09 0A 0B 0C 0D 0E 0F
      -- -- -- -- -- -- -- --  -- -- -- -- -- -- -- --
0000: 00                                                .               
```

#### Opcodes

```
  0: 0x0000 [0x00] END_REQSTACK()
```

### Event 4

#### Metadata

| Field        | Value    |
|--------------|----------|
| Entrypoint   | 0x0001   |
| Data Size    | 15 bytes |
| Instructions | 4        |

```
      00 01 02 03 04 05 06 07  08 09 0A 0B 0C 0D 0E 0F
      -- -- -- -- -- -- -- --  -- -- -- -- -- -- -- --
0000:    2F 00 80 62 0B 01 22  00 92 01 80 62 0B 01 00   /..b.."....b...
```

#### Opcodes

```
  0: 0x0001 [0x2F] 05 (ID: 17523328/0x010B6280)->Render.Flags0 &= ~0x80000 // Bit 19
  1: 0x0007 [0x22] ENTITY_HIDE_FLAG(enabled=0x00)
  2: 0x0009 [0x92] 05 (ID: 17523328/0x010B6280)->Render.Flags3 ^= 0x01
  3: 0x000F [0x00] END_REQSTACK()
```

### Event 65535.1

#### Metadata

| Field        | Value    |
|--------------|----------|
| Entrypoint   | 0x0010   |
| Data Size    | 10 bytes |
| Instructions | 2        |

```
      00 01 02 03 04 05 06 07  08 09 0A 0B 0C 0D 0E 0F
      -- -- -- -- -- -- -- --  -- -- -- -- -- -- -- --
0010: 6C 80 62 0B 01 00 80 01  80 00                    l.b.......      
```

#### Opcodes

```
  0: 0x0010 [0x6C] FADE_ENTITY_COLOR(entity_id=05 (ID: 17523328/0x010B6280), end_alpha=0*, fade_time=1*)
  1: 0x0019 [0x00] END_REQSTACK()
```

### Event 65535.2

#### Metadata

| Field        | Value    |
|--------------|----------|
| Entrypoint   | 0x001A   |
| Data Size    | 10 bytes |
| Instructions | 2        |

```
      00 01 02 03 04 05 06 07  08 09 0A 0B 0C 0D 0E 0F
      -- -- -- -- -- -- -- --  -- -- -- -- -- -- -- --
0010:                                6C 80 62 0B 01 02            l.b...
0020: 80 01 80 00                                       ....            
```

#### Opcodes

```
  0: 0x001A [0x6C] FADE_ENTITY_COLOR(entity_id=05 (ID: 17523328/0x010B6280), end_alpha=128*, fade_time=1*)
  1: 0x0023 [0x00] END_REQSTACK()
```

### Event 65535.3

#### Metadata

| Field        | Value    |
|--------------|----------|
| Entrypoint   | 0x0024   |
| Data Size    | 43 bytes |
| Instructions | 7        |

```
      00 01 02 03 04 05 06 07  08 09 0A 0B 0C 0D 0E 0F
      -- -- -- -- -- -- -- --  -- -- -- -- -- -- -- --
0020:             1C 03 80 5B  04 80 80 62 0B 01 80 62      ...[...b...b
0030: 0B 01 74 6F 6E 32 1C 05  80 6C 80 62 0B 01 02 80  ..ton2...l.b....
0040: 06 80 1C 07 80 6C 80 62  0B 01 00 80 06 80 00     .....l.b....... 
```

#### Opcodes

```
  0: 0x0024 [0x1C] WAIT(180* ticks)
  1: 0x0027 [0x5B] LOAD_EXT_SCHEDULER: Load scheduler "ton2" with entities [05 (ID: 17523328/0x010B6280), 05 (ID: 17523328/0x010B6280)], work=2204*
  2: 0x0036 [0x1C] WAIT(60* ticks)
  3: 0x0039 [0x6C] FADE_ENTITY_COLOR(entity_id=05 (ID: 17523328/0x010B6280), end_alpha=128*, fade_time=90*)
  4: 0x0042 [0x1C] WAIT(150* ticks)
  5: 0x0045 [0x6C] FADE_ENTITY_COLOR(entity_id=05 (ID: 17523328/0x010B6280), end_alpha=0*, fade_time=90*)
  6: 0x004E [0x00] END_REQSTACK()
```
