# 17523288 - Cait Sith

## Common Data

| Field            | Value                    |
|------------------|--------------------------|
| Zone             | Walk of Echoes (ID: 182) |
| Block Size       | 3196 bytes               |
| Total Events     | 150                      |
| References Count | 104                      |

## List of Events

| Event ID                     | Entrypoint   |   Size |   Instructions |
|------------------------------|--------------|--------|----------------|
| [65535](#event-65535)        | 0x0000       |      1 |              1 |
| [32004](#event-32004)        | 0x0001       |      1 |              1 |
| [1](#event-1)                | 0x0002       |      1 |              1 |
| [2](#event-2)                | 0x0003       |      1 |              1 |
| [65535.1](#event-655351)     | 0x0004       |     10 |              2 |
| [65535.2](#event-655352)     | 0x000E       |     10 |              2 |
| [65535.3](#event-655353)     | 0x0018       |     15 |              5 |
| [65535.4](#event-655354)     | 0x0027       |     20 |              6 |
| [65535.5](#event-655355)     | 0x003B       |     16 |              4 |
| [65535.6](#event-655356)     | 0x004B       |     16 |              4 |
| [65535.7](#event-655357)     | 0x005B       |     13 |              3 |
| [65535.8](#event-655358)     | 0x0068       |     14 |              4 |
| [65535.9](#event-655359)     | 0x0076       |     22 |              4 |
| [65535.10](#event-6553510)   | 0x008C       |     14 |              4 |
| [65535.11](#event-6553511)   | 0x009A       |     14 |              4 |
| [65535.12](#event-6553512)   | 0x00A8       |     14 |              4 |
| [65535.13](#event-6553513)   | 0x00B6       |    155 |             15 |
| [65535.14](#event-6553514)   | 0x0151       |      1 |              1 |
| [65535.15](#event-6553515)   | 0x0152       |     18 |              4 |
| [65535.16](#event-6553516)   | 0x0164       |     10 |              2 |
| [65535.17](#event-6553517)   | 0x016E       |      9 |              3 |
| [65535.18](#event-6553518)   | 0x0177       |      9 |              3 |
| [65535.19](#event-6553519)   | 0x0180       |     10 |              2 |
| [65535.20](#event-6553520)   | 0x018A       |     10 |              2 |
| [4](#event-4)                | 0x0194       |      1 |              1 |
| [10](#event-10)              | 0x0195       |      1 |              1 |
| [65535.21](#event-6553521)   | 0x0196       |     10 |              2 |
| [65535.22](#event-6553522)   | 0x01A0       |     10 |              2 |
| [65535.23](#event-6553523)   | 0x01AA       |     14 |              4 |
| [65535.24](#event-6553524)   | 0x01B8       |     20 |              6 |
| [65535.25](#event-6553525)   | 0x01CC       |     14 |              4 |
| [65535.26](#event-6553526)   | 0x01DA       |     14 |              4 |
| [65535.27](#event-6553527)   | 0x01E8       |     56 |             11 |
| [65535.28](#event-6553528)   | 0x0220       |      9 |              3 |
| [65535.29](#event-6553529)   | 0x0229       |      9 |              3 |
| [65535.30](#event-6553530)   | 0x0232       |     62 |              6 |
| [5](#event-5)                | 0x0270       |      1 |              1 |
| [6](#event-6)                | 0x0271       |      1 |              1 |
| [7](#event-7)                | 0x0272       |      1 |              1 |
| [8](#event-8)                | 0x0273       |      1 |              1 |
| [9](#event-9)                | 0x0274       |      1 |              1 |
| [16](#event-16)              | 0x0275       |      1 |              1 |
| [17](#event-17)              | 0x0276       |      1 |              1 |
| [18](#event-18)              | 0x0277       |      1 |              1 |
| [19](#event-19)              | 0x0278       |      1 |              1 |
| [20](#event-20)              | 0x0279       |      1 |              1 |
| [21](#event-21)              | 0x027A       |      1 |              1 |
| [65535.31](#event-6553531)   | 0x027B       |     30 |              6 |
| [65535.32](#event-6553532)   | 0x0299       |     28 |              8 |
| [65535.33](#event-6553533)   | 0x02B5       |     15 |              5 |
| [65535.34](#event-6553534)   | 0x02C4       |      2 |              2 |
| [22](#event-22)              | 0x02C6       |      1 |              1 |
| [23](#event-23)              | 0x02C7       |      1 |              1 |
| [25](#event-25)              | 0x02C8       |      1 |              1 |
| [123](#event-123)            | 0x02C9       |      1 |              1 |
| [65535.35](#event-6553535)   | 0x02CA       |     10 |              2 |
| [65535.36](#event-6553536)   | 0x02D4       |     14 |              4 |
| [65535.37](#event-6553537)   | 0x02E2       |     14 |              4 |
| [126](#event-126)            | 0x02F0       |      1 |              1 |
| [65535.38](#event-6553538)   | 0x02F1       |     10 |              2 |
| [127](#event-127)            | 0x02FB       |      1 |              1 |
| [65535.39](#event-6553539)   | 0x02FC       |     14 |              4 |
| [65535.40](#event-6553540)   | 0x030A       |     10 |              2 |
| [65535.41](#event-6553541)   | 0x0314       |     10 |              2 |
| [65535.42](#event-6553542)   | 0x031E       |     14 |              4 |
| [65535.43](#event-6553543)   | 0x032C       |     14 |              4 |
| [128](#event-128)            | 0x033A       |      1 |              1 |
| [65535.44](#event-6553544)   | 0x033B       |     16 |              2 |
| [65535.45](#event-6553545)   | 0x034B       |     14 |              2 |
| [65535.46](#event-6553546)   | 0x0359       |     16 |              2 |
| [65535.47](#event-6553547)   | 0x0369       |     14 |              2 |
| [65535.48](#event-6553548)   | 0x0377       |     16 |              2 |
| [65535.49](#event-6553549)   | 0x0387       |     14 |              2 |
| [65535.50](#event-6553550)   | 0x0395       |     16 |              2 |
| [65535.51](#event-6553551)   | 0x03A5       |     14 |              2 |
| [65535.52](#event-6553552)   | 0x03B3       |     19 |              2 |
| [65535.53](#event-6553553)   | 0x03C6       |     15 |              2 |
| [65535.54](#event-6553554)   | 0x03D5       |     16 |              2 |
| [65535.55](#event-6553555)   | 0x03E5       |     14 |              2 |
| [65535.56](#event-6553556)   | 0x03F3       |     19 |              2 |
| [65535.57](#event-6553557)   | 0x0406       |     15 |              2 |
| [65535.58](#event-6553558)   | 0x0415       |     16 |              2 |
| [65535.59](#event-6553559)   | 0x0425       |     14 |              2 |
| [65535.60](#event-6553560)   | 0x0433       |     16 |              2 |
| [65535.61](#event-6553561)   | 0x0443       |     14 |              2 |
| [65535.62](#event-6553562)   | 0x0451       |     16 |              2 |
| [65535.63](#event-6553563)   | 0x0461       |     14 |              2 |
| [65535.64](#event-6553564)   | 0x046F       |     16 |              2 |
| [65535.65](#event-6553565)   | 0x047F       |     14 |              2 |
| [65535.66](#event-6553566)   | 0x048D       |     16 |              2 |
| [65535.67](#event-6553567)   | 0x049D       |     14 |              2 |
| [65535.68](#event-6553568)   | 0x04AB       |     19 |              2 |
| [65535.69](#event-6553569)   | 0x04BE       |     15 |              2 |
| [65535.70](#event-6553570)   | 0x04CD       |     16 |              2 |
| [65535.71](#event-6553571)   | 0x04DD       |     14 |              2 |
| [65535.72](#event-6553572)   | 0x04EB       |     28 |              4 |
| [65535.73](#event-6553573)   | 0x0507       |     26 |              4 |
| [65535.74](#event-6553574)   | 0x0521       |     28 |              4 |
| [65535.75](#event-6553575)   | 0x053D       |     26 |              4 |
| [65535.76](#event-6553576)   | 0x0557       |     16 |              2 |
| [65535.77](#event-6553577)   | 0x0567       |     14 |              2 |
| [65535.78](#event-6553578)   | 0x0575       |     16 |              2 |
| [65535.79](#event-6553579)   | 0x0585       |     14 |              2 |
| [65535.80](#event-6553580)   | 0x0593       |     16 |              2 |
| [65535.81](#event-6553581)   | 0x05A3       |     14 |              2 |
| [65535.82](#event-6553582)   | 0x05B1       |     28 |              4 |
| [65535.83](#event-6553583)   | 0x05CD       |     14 |              2 |
| [65535.84](#event-6553584)   | 0x05DB       |     16 |              2 |
| [65535.85](#event-6553585)   | 0x05EB       |     26 |              4 |
| [65535.86](#event-6553586)   | 0x0605       |     16 |              2 |
| [65535.87](#event-6553587)   | 0x0615       |     14 |              2 |
| [65535.88](#event-6553588)   | 0x0623       |     16 |              2 |
| [65535.89](#event-6553589)   | 0x0633       |     14 |              2 |
| [65535.90](#event-6553590)   | 0x0641       |     16 |              2 |
| [65535.91](#event-6553591)   | 0x0651       |     14 |              2 |
| [65535.92](#event-6553592)   | 0x065F       |     16 |              2 |
| [65535.93](#event-6553593)   | 0x066F       |     14 |              2 |
| [65535.94](#event-6553594)   | 0x067D       |     19 |              2 |
| [65535.95](#event-6553595)   | 0x0690       |     15 |              2 |
| [65535.96](#event-6553596)   | 0x069F       |     19 |              2 |
| [65535.97](#event-6553597)   | 0x06B2       |     15 |              2 |
| [65535.98](#event-6553598)   | 0x06C1       |     16 |              2 |
| [65535.99](#event-6553599)   | 0x06D1       |     14 |              2 |
| [65535.100](#event-65535100) | 0x06DF       |     16 |              2 |
| [65535.101](#event-65535101) | 0x06EF       |     14 |              2 |
| [65535.102](#event-65535102) | 0x06FD       |     16 |              2 |
| [65535.103](#event-65535103) | 0x070D       |     14 |              2 |
| [65535.104](#event-65535104) | 0x071B       |     28 |              4 |
| [65535.105](#event-65535105) | 0x0737       |     14 |              2 |
| [65535.106](#event-65535106) | 0x0745       |     16 |              2 |
| [65535.107](#event-65535107) | 0x0755       |     26 |              4 |
| [65535.108](#event-65535108) | 0x076F       |     28 |              4 |
| [65535.109](#event-65535109) | 0x078B       |     26 |              4 |
| [65535.110](#event-65535110) | 0x07A5       |     16 |              2 |
| [65535.111](#event-65535111) | 0x07B5       |     14 |              2 |
| [65535.112](#event-65535112) | 0x07C3       |     16 |              2 |
| [65535.113](#event-65535113) | 0x07D3       |     14 |              2 |
| [27](#event-27)              | 0x07E1       |      1 |              1 |
| [65535.114](#event-65535114) | 0x07E2       |     17 |              5 |
| [65535.115](#event-65535115) | 0x07F3       |     14 |              4 |
| [65535.116](#event-65535116) | 0x0801       |     14 |              4 |
| [28](#event-28)              | 0x080F       |      1 |              1 |
| [29](#event-29)              | 0x0810       |      1 |              1 |
| [65535.117](#event-65535117) | 0x0811       |     14 |              4 |
| [65535.118](#event-65535118) | 0x081F       |     25 |              3 |
| [65535.119](#event-65535119) | 0x0838       |     25 |              3 |
| [30](#event-30)              | 0x0851       |      1 |              1 |
| [65535.120](#event-65535120) | 0x0852       |     17 |              5 |
| [65535.121](#event-65535121) | 0x0863       |     14 |              4 |
| [31](#event-31)              | 0x0871       |      1 |              1 |

## DAT References (imed_data)

|   Index | Hex Value   |   Dec Value |
|---------|-------------|-------------|
|       0 | 0x0000      |           0 |
|       1 | 0x0001      |           1 |
|       2 | 0x0080      |         128 |
|       3 | 0x0028      |          40 |
|       4 | 0xFFF63F7E  |  4294328190 |
|       5 | 0xFFF99401  |  4294546433 |
|       6 | 0x018F      |         399 |
|       7 | 0x000D      |          13 |
|       8 | 0xFFF5548C  |  4294268044 |
|       9 | 0xFFFDC42A  |  4294820906 |
|      10 | 0xFFFFCE1F  |  4294954527 |
|      11 | 0x00C8      |         200 |
|      12 | 0x03E8      |        1000 |
|      13 | 0xFFF54C13  |  4294265875 |
|      14 | 0xFFFDABCE  |  4294814670 |
|      15 | 0x0046      |          70 |
|      16 | 0x051F      |        1311 |
|      17 | 0x00F0      |         240 |
|      18 | 0xFFF54CBB  |  4294266043 |
|      19 | 0xFFFE94FB  |  4294874363 |
|      20 | 0xFFFF9DDC  |  4294942172 |
|      21 | 0xFFF55C5F  |  4294270047 |
|      22 | 0xFFFE0128  |  4294836520 |
|      23 | 0xFFF63222  |  4294324770 |
|      24 | 0xFFF994B9  |  4294546617 |
|      25 | 0x082D      |        2093 |
|      26 | 0x023E      |         574 |
|      27 | 0x0064      |         100 |
|      28 | 0xFFF54F3F  |  4294266687 |
|      29 | 0xFFF97CDD  |  4294540509 |
|      30 | 0xFFF98434  |  4294542388 |
|      31 | 0xFFF9BE70  |  4294557296 |
|      32 | 0xFFFAB3F8  |  4294620152 |
|      33 | 0xFFFFBB41  |  4294949697 |
|      34 | 0x0005      |           5 |
|      35 | 0x0040      |          64 |
|      36 | 0x0800      |        2048 |
|      37 | 0x08E2      |        2274 |
|      38 | 0x0032      |          50 |
|      39 | 0x08CF      |        2255 |
|      40 | 0x009C      |         156 |
|      41 | 0x00B4      |         180 |
|      42 | 0x01E2      |         482 |
|      43 | 0x000B      |          11 |
|      44 | 0xFFF5519B  |  4294267291 |
|      45 | 0xFFFE85C1  |  4294870465 |
|      46 | 0xFFFF9DDB  |  4294942171 |
|      47 | 0x09AA      |        2474 |
|      48 | 0xFFF551CD  |  4294267341 |
|      49 | 0xFFFE7C51  |  4294868049 |
|      50 | 0x0C01      |        3073 |
|      51 | 0xFFF551CE  |  4294267342 |
|      52 | 0xFFFADA7C  |  4294630012 |
|      53 | 0xFFFFBB40  |  4294949696 |
|      54 | 0xFFF551A0  |  4294267296 |
|      55 | 0xFFF98618  |  4294542872 |
|      56 | 0x0190      |         400 |
|      57 | 0x0400      |        1024 |
|      58 | 0xFFF9658D  |  4294534541 |
|      59 | 0xFFF5549B  |  4294268059 |
|      60 | 0xFFF96BDB  |  4294536155 |
|      61 | 0xFFF54201  |  4294263297 |
|      62 | 0xFFFB0AD2  |  4294642386 |
|      63 | 0x0FB1      |        4017 |
|      64 | 0xFFF5335E  |  4294259550 |
|      65 | 0xFFFDDD78  |  4294827384 |
|      66 | 0xFFF5336C  |  4294259564 |
|      67 | 0xFFFDE325  |  4294828837 |
|      68 | 0x0AB0      |        2736 |
|      69 | 0xFFF54D5D  |  4294266205 |
|      70 | 0xFFFB2E76  |  4294651510 |
|      71 | 0xFFFFB991  |  4294949265 |
|      72 | 0x03AF      |         943 |
|      73 | 0xFFF55088  |  4294267016 |
|      74 | 0xFFFB1929  |  4294646057 |
|      75 | 0xFFFFB9B0  |  4294949296 |
|      76 | 0xFFF550F2  |  4294267122 |
|      77 | 0xFFFB0F9D  |  4294643613 |
|      78 | 0x051D      |        1309 |
|      79 | 0x051E      |        1310 |
|      80 | 0x0078      |         120 |
|      81 | 0x0096      |         150 |
|      82 | 0x0584      |        1412 |
|      83 | 0x0586      |        1414 |
|      84 | 0x008C      |         140 |
|      85 | 0x0520      |        1312 |
|      86 | 0x0582      |        1410 |
|      87 | 0x09D9      |        2521 |
|      88 | 0x0AFB      |        2811 |
|      89 | 0x0B28      |        2856 |
|      90 | 0x0B29      |        2857 |
|      91 | 0xFFF54E5C  |  4294266460 |
|      92 | 0xFFFB05F1  |  4294641137 |
|      93 | 0x001E      |          30 |
|      94 | 0xFFF5505D  |  4294266973 |
|      95 | 0xFFFADA71  |  4294630001 |
|      96 | 0xFFF6163F  |  4294317631 |
|      97 | 0xFFF99924  |  4294547748 |
|      98 | 0xFFF5AE73  |  4294291059 |
|      99 | 0xFFF974EA  |  4294538474 |
|     100 | 0xFFF552C8  |  4294267592 |
|     101 | 0xFFF95E85  |  4294532741 |
|     102 | 0xFFF5533C  |  4294267708 |
|     103 | 0xFFF9864B  |  4294542923 |

## Events

### Event 65535

#### Metadata

| Field        | Value   |
|--------------|---------|
| Entrypoint   | 0x0000  |
| Data Size    | 1 bytes |
| Instructions | 1       |

```
      00 01 02 03 04 05 06 07  08 09 0A 0B 0C 0D 0E 0F
      -- -- -- -- -- -- -- --  -- -- -- -- -- -- -- --
0000: 00                                                .               
```

#### Opcodes

```
  0: 0x0000 [0x00] END_REQSTACK()
```

### Event 32004

#### Metadata

| Field        | Value   |
|--------------|---------|
| Entrypoint   | 0x0001  |
| Data Size    | 1 bytes |
| Instructions | 1       |

```
      00 01 02 03 04 05 06 07  08 09 0A 0B 0C 0D 0E 0F
      -- -- -- -- -- -- -- --  -- -- -- -- -- -- -- --
0000:    00                                              .              
```

#### Opcodes

```
  0: 0x0001 [0x00] END_REQSTACK()
```

### Event 1

#### Metadata

| Field        | Value   |
|--------------|---------|
| Entrypoint   | 0x0002  |
| Data Size    | 1 bytes |
| Instructions | 1       |

```
      00 01 02 03 04 05 06 07  08 09 0A 0B 0C 0D 0E 0F
      -- -- -- -- -- -- -- --  -- -- -- -- -- -- -- --
0000:       00                                            .             
```

#### Opcodes

```
  0: 0x0002 [0x00] END_REQSTACK()
```

### Event 2

#### Metadata

| Field        | Value   |
|--------------|---------|
| Entrypoint   | 0x0003  |
| Data Size    | 1 bytes |
| Instructions | 1       |

```
      00 01 02 03 04 05 06 07  08 09 0A 0B 0C 0D 0E 0F
      -- -- -- -- -- -- -- --  -- -- -- -- -- -- -- --
0000:          00                                          .            
```

#### Opcodes

```
  0: 0x0003 [0x00] END_REQSTACK()
```

### Event 65535.1

#### Metadata

| Field        | Value    |
|--------------|----------|
| Entrypoint   | 0x0004   |
| Data Size    | 10 bytes |
| Instructions | 2        |

```
      00 01 02 03 04 05 06 07  08 09 0A 0B 0C 0D 0E 0F
      -- -- -- -- -- -- -- --  -- -- -- -- -- -- -- --
0000:             6C F8 FF FF  7F 00 80 01 80 00            l.........  
```

#### Opcodes

```
  0: 0x0004 [0x6C] FADE_ENTITY_COLOR(entity_id=EventEntity, end_alpha=0*, fade_time=1*)
  1: 0x000D [0x00] END_REQSTACK()
```

### Event 65535.2

#### Metadata

| Field        | Value    |
|--------------|----------|
| Entrypoint   | 0x000E   |
| Data Size    | 10 bytes |
| Instructions | 2        |

```
      00 01 02 03 04 05 06 07  08 09 0A 0B 0C 0D 0E 0F
      -- -- -- -- -- -- -- --  -- -- -- -- -- -- -- --
0000:                                            6C F8                l.
0010: FF FF 7F 02 80 01 80 00                           ........        
```

#### Opcodes

```
  0: 0x000E [0x6C] FADE_ENTITY_COLOR(entity_id=EventEntity, end_alpha=128*, fade_time=1*)
  1: 0x0017 [0x00] END_REQSTACK()
```

### Event 65535.3

#### Metadata

| Field        | Value    |
|--------------|----------|
| Entrypoint   | 0x0018   |
| Data Size    | 15 bytes |
| Instructions | 5        |

```
      00 01 02 03 04 05 06 07  08 09 0A 0B 0C 0D 0E 0F
      -- -- -- -- -- -- -- --  -- -- -- -- -- -- -- --
0010:                          32 03 80 1F 00 04 80 05          2.......
0020: 80 06 80 1F 01 6F 00                              .....o.         
```

#### Opcodes

```
  0: 0x0018 [0x32] ExtData[1]->MainSpeed = 40* * 0.1
  1: 0x001B [0x1F] MOVE_ENTITY: EventEntity moves to X=-639.106*, Z=-420.863*, Y=0.399*
  2: 0x0023 [0x1F] MOVE_ENTITY: Update entity position (mode=1)
  3: 0x0025 [0x6F] WAIT_FRAME_DELAY: Yield until WaitTime reaches zero
  4: 0x0026 [0x00] END_REQSTACK()
```

### Event 65535.4

#### Metadata

| Field        | Value    |
|--------------|----------|
| Entrypoint   | 0x0027   |
| Data Size    | 20 bytes |
| Instructions | 6        |

```
      00 01 02 03 04 05 06 07  08 09 0A 0B 0C 0D 0E 0F
      -- -- -- -- -- -- -- --  -- -- -- -- -- -- -- --
0020:                      32  07 80 1F 00 08 80 09 80         2........
0030: 0A 80 1F 01 6F 1E 5A 62  0B 01 00                 ....o.Zb...     
```

#### Opcodes

```
  0: 0x0027 [0x32] ExtData[1]->MainSpeed = 13* * 0.1
  1: 0x002A [0x1F] MOVE_ENTITY: EventEntity moves to X=-699.252*, Z=-146.390*, Y=-12.769*
  2: 0x0032 [0x1F] MOVE_ENTITY: Update entity position (mode=1)
  3: 0x0034 [0x6F] WAIT_FRAME_DELAY: Yield until WaitTime reaches zero
  4: 0x0035 [0x1E] EventEntity looks at Larzos (ID: 17523290/0x010B625A) and starts talking
  5: 0x003A [0x00] END_REQSTACK()
```

### Event 65535.5

#### Metadata

| Field        | Value    |
|--------------|----------|
| Entrypoint   | 0x003B   |
| Data Size    | 16 bytes |
| Instructions | 4        |

```
      00 01 02 03 04 05 06 07  08 09 0A 0B 0C 0D 0E 0F
      -- -- -- -- -- -- -- --  -- -- -- -- -- -- -- --
0030:                                   3A F8 FF FF 7F             :....
0040: 00 00 07 00 00 0B 80 39  00 00 00                 .......9...     
```

#### Opcodes

```
  0: 0x003B [0x3A] CONVERT_YAW_TO_BYTE(entity=EventEntity, result_destination=ExtData[1]->WorkLocal[0])
  1: 0x0042 [0x07] ExtData[1]->WorkLocal[0] += 200*
  2: 0x0047 [0x39] SET_ENTITY_DIRECTION(direction=ExtData[1]->WorkLocal[0])
  3: 0x004A [0x00] END_REQSTACK()
```

### Event 65535.6

#### Metadata

| Field        | Value    |
|--------------|----------|
| Entrypoint   | 0x004B   |
| Data Size    | 16 bytes |
| Instructions | 4        |

```
      00 01 02 03 04 05 06 07  08 09 0A 0B 0C 0D 0E 0F
      -- -- -- -- -- -- -- --  -- -- -- -- -- -- -- --
0040:                                   3A F8 FF FF 7F             :....
0050: 00 00 08 00 00 0B 80 39  00 00 00                 .......9...     
```

#### Opcodes

```
  0: 0x004B [0x3A] CONVERT_YAW_TO_BYTE(entity=EventEntity, result_destination=ExtData[1]->WorkLocal[0])
  1: 0x0052 [0x08] ExtData[1]->WorkLocal[0] -= 200*
  2: 0x0057 [0x39] SET_ENTITY_DIRECTION(direction=ExtData[1]->WorkLocal[0])
  3: 0x005A [0x00] END_REQSTACK()
```

### Event 65535.7

#### Metadata

| Field        | Value    |
|--------------|----------|
| Entrypoint   | 0x005B   |
| Data Size    | 13 bytes |
| Instructions | 3        |

```
      00 01 02 03 04 05 06 07  08 09 0A 0B 0C 0D 0E 0F
      -- -- -- -- -- -- -- --  -- -- -- -- -- -- -- --
0050:                                   6B 69 64 6C 30             kidl0
0060: 58 62 0B 01 39 0C 80 00                           Xb..9...        
```

#### Opcodes

```
  0: 0x005B [0x6B] STOP_AND_IDLE: Cait Sith (ID: 17523288/0x010B6258) stops current action and resets to idle (animation="idl0")
  1: 0x0064 [0x39] SET_ENTITY_DIRECTION(direction=5.5°*)
  2: 0x0067 [0x00] END_REQSTACK()
```

### Event 65535.8

#### Metadata

| Field        | Value    |
|--------------|----------|
| Entrypoint   | 0x0068   |
| Data Size    | 14 bytes |
| Instructions | 4        |

```
      00 01 02 03 04 05 06 07  08 09 0A 0B 0C 0D 0E 0F
      -- -- -- -- -- -- -- --  -- -- -- -- -- -- -- --
0060:                          32 07 80 1F 00 0D 80 0E          2.......
0070: 80 0A 80 1F 01 00                                 ......          
```

#### Opcodes

```
  0: 0x0068 [0x32] ExtData[1]->MainSpeed = 13* * 0.1
  1: 0x006B [0x1F] MOVE_ENTITY: EventEntity moves to X=-701.421*, Z=-152.626*, Y=-12.769*
  2: 0x0073 [0x1F] MOVE_ENTITY: Update entity position (mode=1)
  3: 0x0075 [0x00] END_REQSTACK()
```

### Event 65535.9

#### Metadata

| Field        | Value    |
|--------------|----------|
| Entrypoint   | 0x0076   |
| Data Size    | 22 bytes |
| Instructions | 4        |

```
      00 01 02 03 04 05 06 07  08 09 0A 0B 0C 0D 0E 0F
      -- -- -- -- -- -- -- --  -- -- -- -- -- -- -- --
0070:                   1C 0F  80 5B 10 80 58 62 0B 01        ...[..Xb..
0080: 58 62 0B 01 62 69 6B 30  1C 11 80 00              Xb..bik0....    
```

#### Opcodes

```
  0: 0x0076 [0x1C] WAIT(70* ticks)
  1: 0x0079 [0x5B] LOAD_EXT_SCHEDULER: Load scheduler "bik0" with entities [Cait Sith (ID: 17523288/0x010B6258), Cait Sith (ID: 17523288/0x010B6258)], work=1311*
  2: 0x0088 [0x1C] WAIT(240* ticks)
  3: 0x008B [0x00] END_REQSTACK()
```

### Event 65535.10

#### Metadata

| Field        | Value    |
|--------------|----------|
| Entrypoint   | 0x008C   |
| Data Size    | 14 bytes |
| Instructions | 4        |

```
      00 01 02 03 04 05 06 07  08 09 0A 0B 0C 0D 0E 0F
      -- -- -- -- -- -- -- --  -- -- -- -- -- -- -- --
0080:                                      32 07 80 1F              2...
0090: 00 12 80 13 80 14 80 1F  01 00                    ..........      
```

#### Opcodes

```
  0: 0x008C [0x32] ExtData[1]->MainSpeed = 13* * 0.1
  1: 0x008F [0x1F] MOVE_ENTITY: EventEntity moves to X=-701.253*, Z=-92.933*, Y=-25.124*
  2: 0x0097 [0x1F] MOVE_ENTITY: Update entity position (mode=1)
  3: 0x0099 [0x00] END_REQSTACK()
```

### Event 65535.11

#### Metadata

| Field        | Value    |
|--------------|----------|
| Entrypoint   | 0x009A   |
| Data Size    | 14 bytes |
| Instructions | 4        |

```
      00 01 02 03 04 05 06 07  08 09 0A 0B 0C 0D 0E 0F
      -- -- -- -- -- -- -- --  -- -- -- -- -- -- -- --
0090:                                32 03 80 1F 00 15            2.....
00A0: 80 16 80 0A 80 1F 01 00                           ........        
```

#### Opcodes

```
  0: 0x009A [0x32] ExtData[1]->MainSpeed = 40* * 0.1
  1: 0x009D [0x1F] MOVE_ENTITY: EventEntity moves to X=-697.249*, Z=-130.776*, Y=-12.769*
  2: 0x00A5 [0x1F] MOVE_ENTITY: Update entity position (mode=1)
  3: 0x00A7 [0x00] END_REQSTACK()
```

### Event 65535.12

#### Metadata

| Field        | Value    |
|--------------|----------|
| Entrypoint   | 0x00A8   |
| Data Size    | 14 bytes |
| Instructions | 4        |

```
      00 01 02 03 04 05 06 07  08 09 0A 0B 0C 0D 0E 0F
      -- -- -- -- -- -- -- --  -- -- -- -- -- -- -- --
00A0:                          32 03 80 1F 00 17 80 18          2.......
00B0: 80 06 80 1F 01 00                                 ......          
```

#### Opcodes

```
  0: 0x00A8 [0x32] ExtData[1]->MainSpeed = 40* * 0.1
  1: 0x00AB [0x1F] MOVE_ENTITY: EventEntity moves to X=-642.526*, Z=-420.679*, Y=0.399*
  2: 0x00B3 [0x1F] MOVE_ENTITY: Update entity position (mode=1)
  3: 0x00B5 [0x00] END_REQSTACK()
```

### Event 65535.13

#### Metadata

| Field        | Value     |
|--------------|-----------|
| Entrypoint   | 0x00B6    |
| Data Size    | 155 bytes |
| Instructions | 15        |

```
      00 01 02 03 04 05 06 07  08 09 0A 0B 0C 0D 0E 0F
      -- -- -- -- -- -- -- --  -- -- -- -- -- -- -- --
00B0:                   5B 19  80 68 62 0B 01 68 62 0B        [..hb..hb.
00C0: 01 6C 6C 31 32 1C 03 80  52 1A 80 F0 FF FF 7F F0  .ll12...R.......
00D0: FF FF 7F 79 30 32 30 45  1A 80 F0 FF FF 7F F0 FF  ...y020E........
00E0: FF 7F 6F 76 34 30 00 80  45 1A 80 F0 FF FF 7F F0  ..ov40..E.......
00F0: FF FF 7F 79 70 63 30 00  80 1C 1B 80 27 10 67 62  ...ypc0.....'.gb
0100: 0B 01 10 27 10 64 62 0B  01 17 52 1A 80 F0 FF FF  ...'.db...R.....
0110: 7F F0 FF FF 7F 79 70 63  30 45 1A 80 F0 FF FF 7F  .....ypc0E......
0120: F0 FF FF 7F 6F 76 33 30  00 80 45 1A 80 F0 FF FF  ....ov30..E.....
0130: 7F F0 FF FF 7F 79 73 30  34 00 80 4E 01 68 62 0B  .....ys04..N.hb.
0140: 01 92 01 F0 FF FF 7F 6C  F0 FF FF 7F 00 80 01 80  .......l........
0150: 00                                                .               
```

#### Opcodes

```
  0: 0x00B6 [0x5B] LOAD_EXT_SCHEDULER: Load scheduler "ll12" with entities [Lady Lilith (ID: 17523304/0x010B6268), Lady Lilith (ID: 17523304/0x010B6268)], work=2093*
  1: 0x00C5 [0x1C] WAIT(40* ticks)
  2: 0x00C8 [0x52] END_LOAD_SCHEDULER: End scheduler "y020" with entities [LocalPlayer, LocalPlayer], work=574*
  3: 0x00D7 [0x45] LOAD_SCHEDULED_TASK: Load scheduler "ov40" with entities [LocalPlayer, LocalPlayer], work=[574*, 0*]
  4: 0x00E8 [0x45] LOAD_SCHEDULED_TASK: Load scheduler "ypc0" with entities [LocalPlayer, LocalPlayer], work=[574*, 0*]
  5: 0x00F9 [0x1C] WAIT(100* ticks)
  6: 0x00FC [0x27] REQ_SET(priority=0x10, entity_id=Lady Lilith (ID: 17523303/0x010B6267), tag_num=0x10)
  7: 0x0103 [0x27] REQ_SET(priority=0x10, entity_id=Lilisette (ID: 17523300/0x010B6264), tag_num=0x17)
  8: 0x010A [0x52] END_LOAD_SCHEDULER: End scheduler "ypc0" with entities [LocalPlayer, LocalPlayer], work=574*
  9: 0x0119 [0x45] LOAD_SCHEDULED_TASK: Load scheduler "ov30" with entities [LocalPlayer, LocalPlayer], work=[574*, 0*]
 10: 0x012A [0x45] LOAD_SCHEDULED_TASK: Load scheduler "ys04" with entities [LocalPlayer, LocalPlayer], work=[574*, 0*]
 11: 0x013B [0x4E] SET_ENTITY_HIDE_FLAG: Hide Lady Lilith (ID: 17523304/0x010B6268)
 12: 0x0141 [0x92] LocalPlayer->Render.Flags3 ^= 0x01
 13: 0x0147 [0x6C] FADE_ENTITY_COLOR(entity_id=LocalPlayer, end_alpha=0*, fade_time=1*)
 14: 0x0150 [0x00] END_REQSTACK()
```

### Event 65535.14

#### Metadata

| Field        | Value   |
|--------------|---------|
| Entrypoint   | 0x0151  |
| Data Size    | 1 bytes |
| Instructions | 1       |

```
      00 01 02 03 04 05 06 07  08 09 0A 0B 0C 0D 0E 0F
      -- -- -- -- -- -- -- --  -- -- -- -- -- -- -- --
0150:    00                                              .              
```

#### Opcodes

```
  0: 0x0151 [0x00] END_REQSTACK()
```

### Event 65535.15

#### Metadata

| Field        | Value    |
|--------------|----------|
| Entrypoint   | 0x0152   |
| Data Size    | 18 bytes |
| Instructions | 4        |

```
      00 01 02 03 04 05 06 07  08 09 0A 0B 0C 0D 0E 0F
      -- -- -- -- -- -- -- --  -- -- -- -- -- -- -- --
0150:       22 00 2F 00 F8 FF  FF 7F 6C F8 FF FF 7F 00    "./.....l.....
0160: 80 01 80 00                                       ....            
```

#### Opcodes

```
  0: 0x0152 [0x22] ENTITY_HIDE_FLAG(enabled=0x00)
  1: 0x0154 [0x2F] EventEntity->Render.Flags0 &= ~0x80000 // Bit 19
  2: 0x015A [0x6C] FADE_ENTITY_COLOR(entity_id=EventEntity, end_alpha=0*, fade_time=1*)
  3: 0x0163 [0x00] END_REQSTACK()
```

### Event 65535.16

#### Metadata

| Field        | Value    |
|--------------|----------|
| Entrypoint   | 0x0164   |
| Data Size    | 10 bytes |
| Instructions | 2        |

```
      00 01 02 03 04 05 06 07  08 09 0A 0B 0C 0D 0E 0F
      -- -- -- -- -- -- -- --  -- -- -- -- -- -- -- --
0160:             6C F8 FF FF  7F 02 80 01 80 00            l.........  
```

#### Opcodes

```
  0: 0x0164 [0x6C] FADE_ENTITY_COLOR(entity_id=EventEntity, end_alpha=128*, fade_time=1*)
  1: 0x016D [0x00] END_REQSTACK()
```

### Event 65535.17

#### Metadata

| Field        | Value   |
|--------------|---------|
| Entrypoint   | 0x016E  |
| Data Size    | 9 bytes |
| Instructions | 3       |

```
      00 01 02 03 04 05 06 07  08 09 0A 0B 0C 0D 0E 0F
      -- -- -- -- -- -- -- --  -- -- -- -- -- -- -- --
0160:                                            22 00                ".
0170: 2F 00 F8 FF FF 7F 00                              /......         
```

#### Opcodes

```
  0: 0x016E [0x22] ENTITY_HIDE_FLAG(enabled=0x00)
  1: 0x0170 [0x2F] EventEntity->Render.Flags0 &= ~0x80000 // Bit 19
  2: 0x0176 [0x00] END_REQSTACK()
```

### Event 65535.18

#### Metadata

| Field        | Value   |
|--------------|---------|
| Entrypoint   | 0x0177  |
| Data Size    | 9 bytes |
| Instructions | 3       |

```
      00 01 02 03 04 05 06 07  08 09 0A 0B 0C 0D 0E 0F
      -- -- -- -- -- -- -- --  -- -- -- -- -- -- -- --
0170:                      22  01 2F 01 F8 FF FF 7F 00         "./......
```

#### Opcodes

```
  0: 0x0177 [0x22] ENTITY_HIDE_FLAG(enabled=0x01)
  1: 0x0179 [0x2F] EventEntity->Render.Flags0 |= 0x80000 // Bit 19
  2: 0x017F [0x00] END_REQSTACK()
```

### Event 65535.19

#### Metadata

| Field        | Value    |
|--------------|----------|
| Entrypoint   | 0x0180   |
| Data Size    | 10 bytes |
| Instructions | 2        |

```
      00 01 02 03 04 05 06 07  08 09 0A 0B 0C 0D 0E 0F
      -- -- -- -- -- -- -- --  -- -- -- -- -- -- -- --
0180: 6C F8 FF FF 7F 00 80 01  80 00                    l.........      
```

#### Opcodes

```
  0: 0x0180 [0x6C] FADE_ENTITY_COLOR(entity_id=EventEntity, end_alpha=0*, fade_time=1*)
  1: 0x0189 [0x00] END_REQSTACK()
```

### Event 65535.20

#### Metadata

| Field        | Value    |
|--------------|----------|
| Entrypoint   | 0x018A   |
| Data Size    | 10 bytes |
| Instructions | 2        |

```
      00 01 02 03 04 05 06 07  08 09 0A 0B 0C 0D 0E 0F
      -- -- -- -- -- -- -- --  -- -- -- -- -- -- -- --
0180:                                6C F8 FF FF 7F 02            l.....
0190: 80 01 80 00                                       ....            
```

#### Opcodes

```
  0: 0x018A [0x6C] FADE_ENTITY_COLOR(entity_id=EventEntity, end_alpha=128*, fade_time=1*)
  1: 0x0193 [0x00] END_REQSTACK()
```

### Event 4

#### Metadata

| Field        | Value   |
|--------------|---------|
| Entrypoint   | 0x0194  |
| Data Size    | 1 bytes |
| Instructions | 1       |

```
      00 01 02 03 04 05 06 07  08 09 0A 0B 0C 0D 0E 0F
      -- -- -- -- -- -- -- --  -- -- -- -- -- -- -- --
0190:             00                                        .           
```

#### Opcodes

```
  0: 0x0194 [0x00] END_REQSTACK()
```

### Event 10

#### Metadata

| Field        | Value   |
|--------------|---------|
| Entrypoint   | 0x0195  |
| Data Size    | 1 bytes |
| Instructions | 1       |

```
      00 01 02 03 04 05 06 07  08 09 0A 0B 0C 0D 0E 0F
      -- -- -- -- -- -- -- --  -- -- -- -- -- -- -- --
0190:                00                                      .          
```

#### Opcodes

```
  0: 0x0195 [0x00] END_REQSTACK()
```

### Event 65535.21

#### Metadata

| Field        | Value    |
|--------------|----------|
| Entrypoint   | 0x0196   |
| Data Size    | 10 bytes |
| Instructions | 2        |

```
      00 01 02 03 04 05 06 07  08 09 0A 0B 0C 0D 0E 0F
      -- -- -- -- -- -- -- --  -- -- -- -- -- -- -- --
0190:                   6C 58  62 0B 01 00 80 01 80 00        lXb.......
```

#### Opcodes

```
  0: 0x0196 [0x6C] FADE_ENTITY_COLOR(entity_id=Cait Sith (ID: 17523288/0x010B6258), end_alpha=0*, fade_time=1*)
  1: 0x019F [0x00] END_REQSTACK()
```

### Event 65535.22

#### Metadata

| Field        | Value    |
|--------------|----------|
| Entrypoint   | 0x01A0   |
| Data Size    | 10 bytes |
| Instructions | 2        |

```
      00 01 02 03 04 05 06 07  08 09 0A 0B 0C 0D 0E 0F
      -- -- -- -- -- -- -- --  -- -- -- -- -- -- -- --
01A0: 6C 58 62 0B 01 02 80 01  80 00                    lXb.......      
```

#### Opcodes

```
  0: 0x01A0 [0x6C] FADE_ENTITY_COLOR(entity_id=Cait Sith (ID: 17523288/0x010B6258), end_alpha=128*, fade_time=1*)
  1: 0x01A9 [0x00] END_REQSTACK()
```

### Event 65535.23

#### Metadata

| Field        | Value    |
|--------------|----------|
| Entrypoint   | 0x01AA   |
| Data Size    | 14 bytes |
| Instructions | 4        |

```
      00 01 02 03 04 05 06 07  08 09 0A 0B 0C 0D 0E 0F
      -- -- -- -- -- -- -- --  -- -- -- -- -- -- -- --
01A0:                                32 07 80 1F 00 1C            2.....
01B0: 80 1D 80 06 80 1F 01 00                           ........        
```

#### Opcodes

```
  0: 0x01AA [0x32] ExtData[1]->MainSpeed = 13* * 0.1
  1: 0x01AD [0x1F] MOVE_ENTITY: EventEntity moves to X=-700.609*, Z=-426.787*, Y=0.399*
  2: 0x01B5 [0x1F] MOVE_ENTITY: Update entity position (mode=1)
  3: 0x01B7 [0x00] END_REQSTACK()
```

### Event 65535.24

#### Metadata

| Field        | Value    |
|--------------|----------|
| Entrypoint   | 0x01B8   |
| Data Size    | 20 bytes |
| Instructions | 6        |

```
      00 01 02 03 04 05 06 07  08 09 0A 0B 0C 0D 0E 0F
      -- -- -- -- -- -- -- --  -- -- -- -- -- -- -- --
01B0:                          32 07 80 1F 00 1C 80 1E          2.......
01C0: 80 06 80 1F 01 6F 1E 64  62 0B 01 00              .....o.db...    
```

#### Opcodes

```
  0: 0x01B8 [0x32] ExtData[1]->MainSpeed = 13* * 0.1
  1: 0x01BB [0x1F] MOVE_ENTITY: EventEntity moves to X=-700.609*, Z=-424.908*, Y=0.399*
  2: 0x01C3 [0x1F] MOVE_ENTITY: Update entity position (mode=1)
  3: 0x01C5 [0x6F] WAIT_FRAME_DELAY: Yield until WaitTime reaches zero
  4: 0x01C6 [0x1E] EventEntity looks at Lilisette (ID: 17523300/0x010B6264) and starts talking
  5: 0x01CB [0x00] END_REQSTACK()
```

### Event 65535.25

#### Metadata

| Field        | Value    |
|--------------|----------|
| Entrypoint   | 0x01CC   |
| Data Size    | 14 bytes |
| Instructions | 4        |

```
      00 01 02 03 04 05 06 07  08 09 0A 0B 0C 0D 0E 0F
      -- -- -- -- -- -- -- --  -- -- -- -- -- -- -- --
01C0:                                      32 07 80 1F              2...
01D0: 00 1C 80 1F 80 06 80 1F  01 00                    ..........      
```

#### Opcodes

```
  0: 0x01CC [0x32] ExtData[1]->MainSpeed = 13* * 0.1
  1: 0x01CF [0x1F] MOVE_ENTITY: EventEntity moves to X=-700.609*, Z=-410.000*, Y=0.399*
  2: 0x01D7 [0x1F] MOVE_ENTITY: Update entity position (mode=1)
  3: 0x01D9 [0x00] END_REQSTACK()
```

### Event 65535.26

#### Metadata

| Field        | Value    |
|--------------|----------|
| Entrypoint   | 0x01DA   |
| Data Size    | 14 bytes |
| Instructions | 4        |

```
      00 01 02 03 04 05 06 07  08 09 0A 0B 0C 0D 0E 0F
      -- -- -- -- -- -- -- --  -- -- -- -- -- -- -- --
01D0:                                32 07 80 1F 00 1C            2.....
01E0: 80 20 80 21 80 1F 01 00                           . .!....        
```

#### Opcodes

```
  0: 0x01DA [0x32] ExtData[1]->MainSpeed = 13* * 0.1
  1: 0x01DD [0x1F] MOVE_ENTITY: EventEntity moves to X=-700.609*, Z=-347.144*, Y=-17.599*
  2: 0x01E5 [0x1F] MOVE_ENTITY: Update entity position (mode=1)
  3: 0x01E7 [0x00] END_REQSTACK()
```

### Event 65535.27

#### Metadata

| Field        | Value    |
|--------------|----------|
| Entrypoint   | 0x01E8   |
| Data Size    | 56 bytes |
| Instructions | 8        |

```
      00 01 02 03 04 05 06 07  08 09 0A 0B 0C 0D 0E 0F
      -- -- -- -- -- -- -- --  -- -- -- -- -- -- -- --
01E0:                          3B F8 FF FF 7F 01 00 02          ;.......
01F0: 00 03 00 06 06 00 16 05  00 06 00 22 80 07 03 00  ..........."....
0200: 05 00 36 01 00 02 00 03  00 07 06 00 23 80 1C 01  ..6.........#...
0210: 80 01 F6 01 02 06 00 24  80 04 1F 02 06 06 00 00  .......$........
```

#### Opcodes

```
  0: 0x01E8 [0x3B] GET_ENTITY_POSITION(entity=EventEntity, x_destination=ExtData[1]->WorkLocal[1], y_destination=ExtData[1]->WorkLocal[2], z_destination=ExtData[1]->WorkLocal[3])
  1: 0x01F3 [0x06] ExtData[1]->WorkLocal[6] = 0
  2: 0x01F6 [0x16] ExtData[1]->WorkLocal[5] = sin(ExtData[1]->WorkLocal[6]) * 5*
  3: 0x01FD [0x07] ExtData[1]->WorkLocal[3] += ExtData[1]->WorkLocal[5]
  4: 0x0202 [0x36] SET_ENTITY_EVENT_POSITION(pos_x=ExtData[1]->WorkLocal[1], pos_z=ExtData[1]->WorkLocal[2], pos_y=ExtData[1]->WorkLocal[3])
  5: 0x0209 [0x07] ExtData[1]->WorkLocal[6] += 64*
  6: 0x020E [0x1C] WAIT(1* ticks)
  7: 0x0211 [0x01] GOTO 0x01F6
```

#### Data or dead code:

```
# Dead code (unreachable instructions):
     0x0214 [0x02] IF !(ExtData[1]->WorkLocal[6] < 2048*) GOTO 0x021F
     0x021C [0x06] ExtData[1]->WorkLocal[6] = 0
     0x021F [0x00] END_REQSTACK()
```

### Event 65535.28

#### Metadata

| Field        | Value   |
|--------------|---------|
| Entrypoint   | 0x0220  |
| Data Size    | 9 bytes |
| Instructions | 3       |

```
      00 01 02 03 04 05 06 07  08 09 0A 0B 0C 0D 0E 0F
      -- -- -- -- -- -- -- --  -- -- -- -- -- -- -- --
0220: B6 00 25 80 B6 0F 26 80  00                       ..%...&..       
```

#### Opcodes

```
  0: 0x0220 [0xB6] ENTITY_APPEARANCE_HANDLER(case=Hair style, value=2274*)
  1: 0x0224 [0xB6] ENTITY_APPEARANCE_HANDLER(case=Model size, value=50*)
  2: 0x0228 [0x00] END_REQSTACK()
```

### Event 65535.29

#### Metadata

| Field        | Value   |
|--------------|---------|
| Entrypoint   | 0x0229  |
| Data Size    | 9 bytes |
| Instructions | 3       |

```
      00 01 02 03 04 05 06 07  08 09 0A 0B 0C 0D 0E 0F
      -- -- -- -- -- -- -- --  -- -- -- -- -- -- -- --
0220:                             B6 00 27 80 B6 0F 1B           ..'....
0230: 80 00                                             ..              
```

#### Opcodes

```
  0: 0x0229 [0xB6] ENTITY_APPEARANCE_HANDLER(case=Hair style, value=2255*)
  1: 0x022D [0xB6] ENTITY_APPEARANCE_HANDLER(case=Model size, value=100*)
  2: 0x0231 [0x00] END_REQSTACK()
```

### Event 65535.30

#### Metadata

| Field        | Value    |
|--------------|----------|
| Entrypoint   | 0x0232   |
| Data Size    | 62 bytes |
| Instructions | 6        |

```
      00 01 02 03 04 05 06 07  08 09 0A 0B 0C 0D 0E 0F
      -- -- -- -- -- -- -- --  -- -- -- -- -- -- -- --
0230:       BB 28 80 7D 62 0B  01 7D 62 0B 01 73 74 30    .(.}b..}b..st0
0240: 31 00 80 1C 29 80 BB 28  80 7D 62 0B 01 7D 62 0B  1...)..(.}b..}b.
0250: 01 73 74 30 32 00 80 27  10 83 62 0B 01 03 45 2A  .st02..'..b...E*
0260: 80 F8 FF FF 7F F8 FF FF  7F 64 62 6E 30 00 80 00  .........dbn0...
```

#### Opcodes

```
  0: 0x0232 [0xBB] LOAD_EVENT_SCHEDULER_ALT: Load scheduler "st01" with entities [02 (ID: 17523325/0x010B627D), 02 (ID: 17523325/0x010B627D)], work=[156*, 0*]
  1: 0x0243 [0x1C] WAIT(180* ticks)
  2: 0x0246 [0xBB] LOAD_EVENT_SCHEDULER_ALT: Load scheduler "st02" with entities [02 (ID: 17523325/0x010B627D), 02 (ID: 17523325/0x010B627D)], work=[156*, 0*]
  3: 0x0257 [0x27] REQ_SET(priority=0x10, entity_id=??? (ID: 17523331/0x010B6283), tag_num=0x03)
  4: 0x025E [0x45] LOAD_SCHEDULED_TASK: Load scheduler "dbn0" with entities [EventEntity, EventEntity], work=[482*, 0*]
  5: 0x026F [0x00] END_REQSTACK()
```

### Event 5

#### Metadata

| Field        | Value   |
|--------------|---------|
| Entrypoint   | 0x0270  |
| Data Size    | 1 bytes |
| Instructions | 1       |

```
      00 01 02 03 04 05 06 07  08 09 0A 0B 0C 0D 0E 0F
      -- -- -- -- -- -- -- --  -- -- -- -- -- -- -- --
0270: 00                                                .               
```

#### Opcodes

```
  0: 0x0270 [0x00] END_REQSTACK()
```

### Event 6

#### Metadata

| Field        | Value   |
|--------------|---------|
| Entrypoint   | 0x0271  |
| Data Size    | 1 bytes |
| Instructions | 1       |

```
      00 01 02 03 04 05 06 07  08 09 0A 0B 0C 0D 0E 0F
      -- -- -- -- -- -- -- --  -- -- -- -- -- -- -- --
0270:    00                                              .              
```

#### Opcodes

```
  0: 0x0271 [0x00] END_REQSTACK()
```

### Event 7

#### Metadata

| Field        | Value   |
|--------------|---------|
| Entrypoint   | 0x0272  |
| Data Size    | 1 bytes |
| Instructions | 1       |

```
      00 01 02 03 04 05 06 07  08 09 0A 0B 0C 0D 0E 0F
      -- -- -- -- -- -- -- --  -- -- -- -- -- -- -- --
0270:       00                                            .             
```

#### Opcodes

```
  0: 0x0272 [0x00] END_REQSTACK()
```

### Event 8

#### Metadata

| Field        | Value   |
|--------------|---------|
| Entrypoint   | 0x0273  |
| Data Size    | 1 bytes |
| Instructions | 1       |

```
      00 01 02 03 04 05 06 07  08 09 0A 0B 0C 0D 0E 0F
      -- -- -- -- -- -- -- --  -- -- -- -- -- -- -- --
0270:          00                                          .            
```

#### Opcodes

```
  0: 0x0273 [0x00] END_REQSTACK()
```

### Event 9

#### Metadata

| Field        | Value   |
|--------------|---------|
| Entrypoint   | 0x0274  |
| Data Size    | 1 bytes |
| Instructions | 1       |

```
      00 01 02 03 04 05 06 07  08 09 0A 0B 0C 0D 0E 0F
      -- -- -- -- -- -- -- --  -- -- -- -- -- -- -- --
0270:             00                                        .           
```

#### Opcodes

```
  0: 0x0274 [0x00] END_REQSTACK()
```

### Event 16

#### Metadata

| Field        | Value   |
|--------------|---------|
| Entrypoint   | 0x0275  |
| Data Size    | 1 bytes |
| Instructions | 1       |

```
      00 01 02 03 04 05 06 07  08 09 0A 0B 0C 0D 0E 0F
      -- -- -- -- -- -- -- --  -- -- -- -- -- -- -- --
0270:                00                                      .          
```

#### Opcodes

```
  0: 0x0275 [0x00] END_REQSTACK()
```

### Event 17

#### Metadata

| Field        | Value   |
|--------------|---------|
| Entrypoint   | 0x0276  |
| Data Size    | 1 bytes |
| Instructions | 1       |

```
      00 01 02 03 04 05 06 07  08 09 0A 0B 0C 0D 0E 0F
      -- -- -- -- -- -- -- --  -- -- -- -- -- -- -- --
0270:                   00                                    .         
```

#### Opcodes

```
  0: 0x0276 [0x00] END_REQSTACK()
```

### Event 18

#### Metadata

| Field        | Value   |
|--------------|---------|
| Entrypoint   | 0x0277  |
| Data Size    | 1 bytes |
| Instructions | 1       |

```
      00 01 02 03 04 05 06 07  08 09 0A 0B 0C 0D 0E 0F
      -- -- -- -- -- -- -- --  -- -- -- -- -- -- -- --
0270:                      00                                  .        
```

#### Opcodes

```
  0: 0x0277 [0x00] END_REQSTACK()
```

### Event 19

#### Metadata

| Field        | Value   |
|--------------|---------|
| Entrypoint   | 0x0278  |
| Data Size    | 1 bytes |
| Instructions | 1       |

```
      00 01 02 03 04 05 06 07  08 09 0A 0B 0C 0D 0E 0F
      -- -- -- -- -- -- -- --  -- -- -- -- -- -- -- --
0270:                          00                               .       
```

#### Opcodes

```
  0: 0x0278 [0x00] END_REQSTACK()
```

### Event 20

#### Metadata

| Field        | Value   |
|--------------|---------|
| Entrypoint   | 0x0279  |
| Data Size    | 1 bytes |
| Instructions | 1       |

```
      00 01 02 03 04 05 06 07  08 09 0A 0B 0C 0D 0E 0F
      -- -- -- -- -- -- -- --  -- -- -- -- -- -- -- --
0270:                             00                             .      
```

#### Opcodes

```
  0: 0x0279 [0x00] END_REQSTACK()
```

### Event 21

#### Metadata

| Field        | Value   |
|--------------|---------|
| Entrypoint   | 0x027A  |
| Data Size    | 1 bytes |
| Instructions | 1       |

```
      00 01 02 03 04 05 06 07  08 09 0A 0B 0C 0D 0E 0F
      -- -- -- -- -- -- -- --  -- -- -- -- -- -- -- --
0270:                                00                           .     
```

#### Opcodes

```
  0: 0x027A [0x00] END_REQSTACK()
```

### Event 65535.31

#### Metadata

| Field        | Value    |
|--------------|----------|
| Entrypoint   | 0x027B   |
| Data Size    | 30 bytes |
| Instructions | 6        |

```
      00 01 02 03 04 05 06 07  08 09 0A 0B 0C 0D 0E 0F
      -- -- -- -- -- -- -- --  -- -- -- -- -- -- -- --
0270:                                   32 2B 80 1F 00             2+...
0280: 2C 80 2D 80 2E 80 1F 01  6F 5B 2F 80 F8 FF FF 7F  ,.-.....o[/.....
0290: F8 FF FF 7F 70 61 73 30  00                       ....pas0.       
```

#### Opcodes

```
  0: 0x027B [0x32] ExtData[1]->MainSpeed = 11* * 0.1
  1: 0x027E [0x1F] MOVE_ENTITY: EventEntity moves to X=-700.005*, Z=-96.831*, Y=-25.125*
  2: 0x0286 [0x1F] MOVE_ENTITY: Update entity position (mode=1)
  3: 0x0288 [0x6F] WAIT_FRAME_DELAY: Yield until WaitTime reaches zero
  4: 0x0289 [0x5B] LOAD_EXT_SCHEDULER: Load scheduler "pas0" with entities [EventEntity, EventEntity], work=2474*
  5: 0x0298 [0x00] END_REQSTACK()
```

### Event 65535.32

#### Metadata

| Field        | Value    |
|--------------|----------|
| Entrypoint   | 0x0299   |
| Data Size    | 28 bytes |
| Instructions | 8        |

```
      00 01 02 03 04 05 06 07  08 09 0A 0B 0C 0D 0E 0F
      -- -- -- -- -- -- -- --  -- -- -- -- -- -- -- --
0290:                             32 2B 80 1F 00 30 80           2+...0.
02A0: 31 80 2E 80 1F 01 6F 4B  F8 FF FF 7F 32 80 6F 76  1.....oK....2.ov
02B0: F8 FF FF 7F 00                                    .....           
```

#### Opcodes

```
  0: 0x0299 [0x32] ExtData[1]->MainSpeed = 11* * 0.1
  1: 0x029C [0x1F] MOVE_ENTITY: EventEntity moves to X=-699.955*, Z=-99.247*, Y=-25.125*
  2: 0x02A4 [0x1F] MOVE_ENTITY: Update entity position (mode=1)
  3: 0x02A6 [0x6F] WAIT_FRAME_DELAY: Yield until WaitTime reaches zero
  4: 0x02A7 [0x4B] UPDATE_ENTITY_YAW(entity=EventEntity, yaw=16.9°*)
  5: 0x02AE [0x6F] WAIT_FRAME_DELAY: Yield until WaitTime reaches zero
  6: 0x02AF [0x76] CHECK_ENTITY_RENDER_FLAGS: Wait until EventEntity Render.Flags0 and Render.Flags3 conditions are met
  7: 0x02B4 [0x00] END_REQSTACK()
```

### Event 65535.33

#### Metadata

| Field        | Value    |
|--------------|----------|
| Entrypoint   | 0x02B5   |
| Data Size    | 15 bytes |
| Instructions | 5        |

```
      00 01 02 03 04 05 06 07  08 09 0A 0B 0C 0D 0E 0F
      -- -- -- -- -- -- -- --  -- -- -- -- -- -- -- --
02B0:                32 2B 80  1F 00 33 80 34 80 35 80       2+...3.4.5.
02C0: 1F 01 6F 00                                       ..o.            
```

#### Opcodes

```
  0: 0x02B5 [0x32] ExtData[1]->MainSpeed = 11* * 0.1
  1: 0x02B8 [0x1F] MOVE_ENTITY: EventEntity moves to X=-699.954*, Z=-337.284*, Y=-17.600*
  2: 0x02C0 [0x1F] MOVE_ENTITY: Update entity position (mode=1)
  3: 0x02C2 [0x6F] WAIT_FRAME_DELAY: Yield until WaitTime reaches zero
  4: 0x02C3 [0x00] END_REQSTACK()
```

### Event 65535.34

#### Metadata

| Field        | Value   |
|--------------|---------|
| Entrypoint   | 0x02C4  |
| Data Size    | 2 bytes |
| Instructions | 2       |

```
      00 01 02 03 04 05 06 07  08 09 0A 0B 0C 0D 0E 0F
      -- -- -- -- -- -- -- --  -- -- -- -- -- -- -- --
02C0:             84 00                                     ..          
```

#### Opcodes

```
  0: 0x02C4 [0x84] ADJUST_RENDER_FLAGS3_BIT0()
  1: 0x02C5 [0x00] END_REQSTACK()
```

### Event 22

#### Metadata

| Field        | Value   |
|--------------|---------|
| Entrypoint   | 0x02C6  |
| Data Size    | 1 bytes |
| Instructions | 1       |

```
      00 01 02 03 04 05 06 07  08 09 0A 0B 0C 0D 0E 0F
      -- -- -- -- -- -- -- --  -- -- -- -- -- -- -- --
02C0:                   00                                    .         
```

#### Opcodes

```
  0: 0x02C6 [0x00] END_REQSTACK()
```

### Event 23

#### Metadata

| Field        | Value   |
|--------------|---------|
| Entrypoint   | 0x02C7  |
| Data Size    | 1 bytes |
| Instructions | 1       |

```
      00 01 02 03 04 05 06 07  08 09 0A 0B 0C 0D 0E 0F
      -- -- -- -- -- -- -- --  -- -- -- -- -- -- -- --
02C0:                      00                                  .        
```

#### Opcodes

```
  0: 0x02C7 [0x00] END_REQSTACK()
```

### Event 25

#### Metadata

| Field        | Value   |
|--------------|---------|
| Entrypoint   | 0x02C8  |
| Data Size    | 1 bytes |
| Instructions | 1       |

```
      00 01 02 03 04 05 06 07  08 09 0A 0B 0C 0D 0E 0F
      -- -- -- -- -- -- -- --  -- -- -- -- -- -- -- --
02C0:                          00                               .       
```

#### Opcodes

```
  0: 0x02C8 [0x00] END_REQSTACK()
```

### Event 123

#### Metadata

| Field        | Value   |
|--------------|---------|
| Entrypoint   | 0x02C9  |
| Data Size    | 1 bytes |
| Instructions | 1       |

```
      00 01 02 03 04 05 06 07  08 09 0A 0B 0C 0D 0E 0F
      -- -- -- -- -- -- -- --  -- -- -- -- -- -- -- --
02C0:                             00                             .      
```

#### Opcodes

```
  0: 0x02C9 [0x00] END_REQSTACK()
```

### Event 65535.35

#### Metadata

| Field        | Value    |
|--------------|----------|
| Entrypoint   | 0x02CA   |
| Data Size    | 10 bytes |
| Instructions | 2        |

```
      00 01 02 03 04 05 06 07  08 09 0A 0B 0C 0D 0E 0F
      -- -- -- -- -- -- -- --  -- -- -- -- -- -- -- --
02C0:                                37 36 80 37 80 38            76.7.8
02D0: 80 39 80 00                                       .9..            
```

#### Opcodes

```
  0: 0x02CA [0x37] UPDATE_EVENT_POSITION_AND_DIR: x=-700.000*, z=-424.424*, y=0.400*, direction=90.0°*
  1: 0x02D3 [0x00] END_REQSTACK()
```

### Event 65535.36

#### Metadata

| Field        | Value    |
|--------------|----------|
| Entrypoint   | 0x02D4   |
| Data Size    | 14 bytes |
| Instructions | 4        |

```
      00 01 02 03 04 05 06 07  08 09 0A 0B 0C 0D 0E 0F
      -- -- -- -- -- -- -- --  -- -- -- -- -- -- -- --
02D0:             32 07 80 1F  00 36 80 3A 80 38 80 1F      2....6.:.8..
02E0: 01 00                                             ..              
```

#### Opcodes

```
  0: 0x02D4 [0x32] ExtData[1]->MainSpeed = 13* * 0.1
  1: 0x02D7 [0x1F] MOVE_ENTITY: EventEntity moves to X=-700.000*, Z=-432.755*, Y=0.400*
  2: 0x02DF [0x1F] MOVE_ENTITY: Update entity position (mode=1)
  3: 0x02E1 [0x00] END_REQSTACK()
```

### Event 65535.37

#### Metadata

| Field        | Value    |
|--------------|----------|
| Entrypoint   | 0x02E2   |
| Data Size    | 14 bytes |
| Instructions | 4        |

```
      00 01 02 03 04 05 06 07  08 09 0A 0B 0C 0D 0E 0F
      -- -- -- -- -- -- -- --  -- -- -- -- -- -- -- --
02E0:       32 07 80 1F 00 3B  80 3C 80 06 80 1F 01 00    2....;.<......
```

#### Opcodes

```
  0: 0x02E2 [0x32] ExtData[1]->MainSpeed = 13* * 0.1
  1: 0x02E5 [0x1F] MOVE_ENTITY: EventEntity moves to X=-699.237*, Z=-431.141*, Y=0.399*
  2: 0x02ED [0x1F] MOVE_ENTITY: Update entity position (mode=1)
  3: 0x02EF [0x00] END_REQSTACK()
```

### Event 126

#### Metadata

| Field        | Value   |
|--------------|---------|
| Entrypoint   | 0x02F0  |
| Data Size    | 1 bytes |
| Instructions | 1       |

```
      00 01 02 03 04 05 06 07  08 09 0A 0B 0C 0D 0E 0F
      -- -- -- -- -- -- -- --  -- -- -- -- -- -- -- --
02F0: 00                                                .               
```

#### Opcodes

```
  0: 0x02F0 [0x00] END_REQSTACK()
```

### Event 65535.38

#### Metadata

| Field        | Value    |
|--------------|----------|
| Entrypoint   | 0x02F1   |
| Data Size    | 10 bytes |
| Instructions | 2        |

```
      00 01 02 03 04 05 06 07  08 09 0A 0B 0C 0D 0E 0F
      -- -- -- -- -- -- -- --  -- -- -- -- -- -- -- --
02F0:    37 3D 80 3E 80 35 80  3F 80 00                  7=.>.5.?..     
```

#### Opcodes

```
  0: 0x02F1 [0x37] UPDATE_EVENT_POSITION_AND_DIR: x=-703.999*, z=-324.910*, y=-17.600*, direction=353.0°*
  1: 0x02FA [0x00] END_REQSTACK()
```

### Event 127

#### Metadata

| Field        | Value   |
|--------------|---------|
| Entrypoint   | 0x02FB  |
| Data Size    | 1 bytes |
| Instructions | 1       |

```
      00 01 02 03 04 05 06 07  08 09 0A 0B 0C 0D 0E 0F
      -- -- -- -- -- -- -- --  -- -- -- -- -- -- -- --
02F0:                                   00                         .    
```

#### Opcodes

```
  0: 0x02FB [0x00] END_REQSTACK()
```

### Event 65535.39

#### Metadata

| Field        | Value    |
|--------------|----------|
| Entrypoint   | 0x02FC   |
| Data Size    | 14 bytes |
| Instructions | 4        |

```
      00 01 02 03 04 05 06 07  08 09 0A 0B 0C 0D 0E 0F
      -- -- -- -- -- -- -- --  -- -- -- -- -- -- -- --
02F0:                                      32 07 80 1F              2...
0300: 00 40 80 41 80 0A 80 1F  01 00                    .@.A......      
```

#### Opcodes

```
  0: 0x02FC [0x32] ExtData[1]->MainSpeed = 13* * 0.1
  1: 0x02FF [0x1F] MOVE_ENTITY: EventEntity moves to X=-707.746*, Z=-139.912*, Y=-12.769*
  2: 0x0307 [0x1F] MOVE_ENTITY: Update entity position (mode=1)
  3: 0x0309 [0x00] END_REQSTACK()
```

### Event 65535.40

#### Metadata

| Field        | Value    |
|--------------|----------|
| Entrypoint   | 0x030A   |
| Data Size    | 10 bytes |
| Instructions | 2        |

```
      00 01 02 03 04 05 06 07  08 09 0A 0B 0C 0D 0E 0F
      -- -- -- -- -- -- -- --  -- -- -- -- -- -- -- --
0300:                                37 42 80 43 80 0A            7B.C..
0310: 80 44 80 00                                       .D..            
```

#### Opcodes

```
  0: 0x030A [0x37] UPDATE_EVENT_POSITION_AND_DIR: x=-707.732*, z=-138.459*, y=-12.769*, direction=240.5°*
  1: 0x0313 [0x00] END_REQSTACK()
```

### Event 65535.41

#### Metadata

| Field        | Value    |
|--------------|----------|
| Entrypoint   | 0x0314   |
| Data Size    | 10 bytes |
| Instructions | 2        |

```
      00 01 02 03 04 05 06 07  08 09 0A 0B 0C 0D 0E 0F
      -- -- -- -- -- -- -- --  -- -- -- -- -- -- -- --
0310:             37 45 80 46  80 47 80 48 80 00            7E.F.G.H..  
```

#### Opcodes

```
  0: 0x0314 [0x37] UPDATE_EVENT_POSITION_AND_DIR: x=-701.091*, z=-315.786*, y=-18.031*, direction=82.9°*
  1: 0x031D [0x00] END_REQSTACK()
```

### Event 65535.42

#### Metadata

| Field        | Value    |
|--------------|----------|
| Entrypoint   | 0x031E   |
| Data Size    | 14 bytes |
| Instructions | 4        |

```
      00 01 02 03 04 05 06 07  08 09 0A 0B 0C 0D 0E 0F
      -- -- -- -- -- -- -- --  -- -- -- -- -- -- -- --
0310:                                            32 07                2.
0320: 80 1F 00 49 80 4A 80 4B  80 1F 01 00              ...I.J.K....    
```

#### Opcodes

```
  0: 0x031E [0x32] ExtData[1]->MainSpeed = 13* * 0.1
  1: 0x0321 [0x1F] MOVE_ENTITY: EventEntity moves to X=-700.280*, Z=-321.239*, Y=-18.000*
  2: 0x0329 [0x1F] MOVE_ENTITY: Update entity position (mode=1)
  3: 0x032B [0x00] END_REQSTACK()
```

### Event 65535.43

#### Metadata

| Field        | Value    |
|--------------|----------|
| Entrypoint   | 0x032C   |
| Data Size    | 14 bytes |
| Instructions | 4        |

```
      00 01 02 03 04 05 06 07  08 09 0A 0B 0C 0D 0E 0F
      -- -- -- -- -- -- -- --  -- -- -- -- -- -- -- --
0320:                                      32 07 80 1F              2...
0330: 00 4C 80 4D 80 35 80 1F  01 00                    .L.M.5....      
```

#### Opcodes

```
  0: 0x032C [0x32] ExtData[1]->MainSpeed = 13* * 0.1
  1: 0x032F [0x1F] MOVE_ENTITY: EventEntity moves to X=-700.174*, Z=-323.683*, Y=-17.600*
  2: 0x0337 [0x1F] MOVE_ENTITY: Update entity position (mode=1)
  3: 0x0339 [0x00] END_REQSTACK()
```

### Event 128

#### Metadata

| Field        | Value   |
|--------------|---------|
| Entrypoint   | 0x033A  |
| Data Size    | 1 bytes |
| Instructions | 1       |

```
      00 01 02 03 04 05 06 07  08 09 0A 0B 0C 0D 0E 0F
      -- -- -- -- -- -- -- --  -- -- -- -- -- -- -- --
0330:                                00                           .     
```

#### Opcodes

```
  0: 0x033A [0x00] END_REQSTACK()
```

### Event 65535.44

#### Metadata

| Field        | Value    |
|--------------|----------|
| Entrypoint   | 0x033B   |
| Data Size    | 16 bytes |
| Instructions | 2        |

```
      00 01 02 03 04 05 06 07  08 09 0A 0B 0C 0D 0E 0F
      -- -- -- -- -- -- -- --  -- -- -- -- -- -- -- --
0330:                                   5B 4E 80 F8 FF             [N...
0340: FF 7F F8 FF FF 7F 65 31  30 30 00                 ......e100.     
```

#### Opcodes

```
  0: 0x033B [0x5B] LOAD_EXT_SCHEDULER: Load scheduler "e100" with entities [EventEntity, EventEntity], work=1309*
  1: 0x034A [0x00] END_REQSTACK()
```

### Event 65535.45

#### Metadata

| Field        | Value    |
|--------------|----------|
| Entrypoint   | 0x034B   |
| Data Size    | 14 bytes |
| Instructions | 2        |

```
      00 01 02 03 04 05 06 07  08 09 0A 0B 0C 0D 0E 0F
      -- -- -- -- -- -- -- --  -- -- -- -- -- -- -- --
0340:                                   53 F8 FF FF 7F             S....
0350: F8 FF FF 7F 65 31 30 30  00                       ....e100.       
```

#### Opcodes

```
  0: 0x034B [0x53] WAIT_SCHEDULER_TASK: Wait for scheduler "e100" with entities [EventEntity, EventEntity]
  1: 0x0358 [0x00] END_REQSTACK()
```

### Event 65535.46

#### Metadata

| Field        | Value    |
|--------------|----------|
| Entrypoint   | 0x0359   |
| Data Size    | 16 bytes |
| Instructions | 2        |

```
      00 01 02 03 04 05 06 07  08 09 0A 0B 0C 0D 0E 0F
      -- -- -- -- -- -- -- --  -- -- -- -- -- -- -- --
0350:                             5B 4E 80 F8 FF FF 7F           [N.....
0360: F8 FF FF 7F 65 31 30 31  00                       ....e101.       
```

#### Opcodes

```
  0: 0x0359 [0x5B] LOAD_EXT_SCHEDULER: Load scheduler "e101" with entities [EventEntity, EventEntity], work=1309*
  1: 0x0368 [0x00] END_REQSTACK()
```

### Event 65535.47

#### Metadata

| Field        | Value    |
|--------------|----------|
| Entrypoint   | 0x0369   |
| Data Size    | 14 bytes |
| Instructions | 2        |

```
      00 01 02 03 04 05 06 07  08 09 0A 0B 0C 0D 0E 0F
      -- -- -- -- -- -- -- --  -- -- -- -- -- -- -- --
0360:                             53 F8 FF FF 7F F8 FF           S......
0370: FF 7F 65 31 30 31 00                              ..e101.         
```

#### Opcodes

```
  0: 0x0369 [0x53] WAIT_SCHEDULER_TASK: Wait for scheduler "e101" with entities [EventEntity, EventEntity]
  1: 0x0376 [0x00] END_REQSTACK()
```

### Event 65535.48

#### Metadata

| Field        | Value    |
|--------------|----------|
| Entrypoint   | 0x0377   |
| Data Size    | 16 bytes |
| Instructions | 2        |

```
      00 01 02 03 04 05 06 07  08 09 0A 0B 0C 0D 0E 0F
      -- -- -- -- -- -- -- --  -- -- -- -- -- -- -- --
0370:                      5B  4E 80 F8 FF FF 7F F8 FF         [N.......
0380: FF 7F 65 31 30 32 00                              ..e102.         
```

#### Opcodes

```
  0: 0x0377 [0x5B] LOAD_EXT_SCHEDULER: Load scheduler "e102" with entities [EventEntity, EventEntity], work=1309*
  1: 0x0386 [0x00] END_REQSTACK()
```

### Event 65535.49

#### Metadata

| Field        | Value    |
|--------------|----------|
| Entrypoint   | 0x0387   |
| Data Size    | 14 bytes |
| Instructions | 2        |

```
      00 01 02 03 04 05 06 07  08 09 0A 0B 0C 0D 0E 0F
      -- -- -- -- -- -- -- --  -- -- -- -- -- -- -- --
0380:                      53  F8 FF FF 7F F8 FF FF 7F         S........
0390: 65 31 30 32 00                                    e102.           
```

#### Opcodes

```
  0: 0x0387 [0x53] WAIT_SCHEDULER_TASK: Wait for scheduler "e102" with entities [EventEntity, EventEntity]
  1: 0x0394 [0x00] END_REQSTACK()
```

### Event 65535.50

#### Metadata

| Field        | Value    |
|--------------|----------|
| Entrypoint   | 0x0395   |
| Data Size    | 16 bytes |
| Instructions | 2        |

```
      00 01 02 03 04 05 06 07  08 09 0A 0B 0C 0D 0E 0F
      -- -- -- -- -- -- -- --  -- -- -- -- -- -- -- --
0390:                5B 4E 80  F8 FF FF 7F F8 FF FF 7F       [N.........
03A0: 6E 6F 62 69 00                                    nobi.           
```

#### Opcodes

```
  0: 0x0395 [0x5B] LOAD_EXT_SCHEDULER: Load scheduler "nobi" with entities [EventEntity, EventEntity], work=1309*
  1: 0x03A4 [0x00] END_REQSTACK()
```

### Event 65535.51

#### Metadata

| Field        | Value    |
|--------------|----------|
| Entrypoint   | 0x03A5   |
| Data Size    | 14 bytes |
| Instructions | 2        |

```
      00 01 02 03 04 05 06 07  08 09 0A 0B 0C 0D 0E 0F
      -- -- -- -- -- -- -- --  -- -- -- -- -- -- -- --
03A0:                53 F8 FF  FF 7F F8 FF FF 7F 6E 6F       S........no
03B0: 62 69 00                                          bi.             
```

#### Opcodes

```
  0: 0x03A5 [0x53] WAIT_SCHEDULER_TASK: Wait for scheduler "nobi" with entities [EventEntity, EventEntity]
  1: 0x03B2 [0x00] END_REQSTACK()
```

### Event 65535.52

#### Metadata

| Field        | Value    |
|--------------|----------|
| Entrypoint   | 0x03B3   |
| Data Size    | 19 bytes |
| Instructions | 2        |

```
      00 01 02 03 04 05 06 07  08 09 0A 0B 0C 0D 0E 0F
      -- -- -- -- -- -- -- --  -- -- -- -- -- -- -- --
03B0:          5F 05 4F 80 F8  FF FF 7F F8 FF FF 7F 74     _.O.........t
03C0: 68 6B 30 50 80 00                                 hk0P..          
```

#### Opcodes

```
  0: 0x03B3 [0x5F] MULTI_HANDLER_COMPLEX(mode=0x05 - Load ext scheduler with flag (OpCode 0x5B mode 0, flag 1), ref=1310*, entity1=EventEntity, entity2=EventEntity, string="thk0", extra=120*)
  1: 0x03C5 [0x00] END_REQSTACK()
```

### Event 65535.53

#### Metadata

| Field        | Value    |
|--------------|----------|
| Entrypoint   | 0x03C6   |
| Data Size    | 15 bytes |
| Instructions | 2        |

```
      00 01 02 03 04 05 06 07  08 09 0A 0B 0C 0D 0E 0F
      -- -- -- -- -- -- -- --  -- -- -- -- -- -- -- --
03C0:                   5F 07  F8 FF FF 7F F8 FF FF 7F        _.........
03D0: 74 68 6B 30 00                                    thk0.           
```

#### Opcodes

```
  0: 0x03C6 [0x5F] MULTI_HANDLER_COMPLEX(mode=0x07 - Wait scheduler task (OpCode 0x53))
  1: 0x03D4 [0x00] END_REQSTACK()
```

### Event 65535.54

#### Metadata

| Field        | Value    |
|--------------|----------|
| Entrypoint   | 0x03D5   |
| Data Size    | 16 bytes |
| Instructions | 2        |

```
      00 01 02 03 04 05 06 07  08 09 0A 0B 0C 0D 0E 0F
      -- -- -- -- -- -- -- --  -- -- -- -- -- -- -- --
03D0:                5B 4F 80  F8 FF FF 7F F8 FF FF 7F       [O.........
03E0: 74 68 6B 31 00                                    thk1.           
```

#### Opcodes

```
  0: 0x03D5 [0x5B] LOAD_EXT_SCHEDULER: Load scheduler "thk1" with entities [EventEntity, EventEntity], work=1310*
  1: 0x03E4 [0x00] END_REQSTACK()
```

### Event 65535.55

#### Metadata

| Field        | Value    |
|--------------|----------|
| Entrypoint   | 0x03E5   |
| Data Size    | 14 bytes |
| Instructions | 2        |

```
      00 01 02 03 04 05 06 07  08 09 0A 0B 0C 0D 0E 0F
      -- -- -- -- -- -- -- --  -- -- -- -- -- -- -- --
03E0:                53 F8 FF  FF 7F F8 FF FF 7F 74 68       S........th
03F0: 6B 31 00                                          k1.             
```

#### Opcodes

```
  0: 0x03E5 [0x53] WAIT_SCHEDULER_TASK: Wait for scheduler "thk1" with entities [EventEntity, EventEntity]
  1: 0x03F2 [0x00] END_REQSTACK()
```

### Event 65535.56

#### Metadata

| Field        | Value    |
|--------------|----------|
| Entrypoint   | 0x03F3   |
| Data Size    | 19 bytes |
| Instructions | 2        |

```
      00 01 02 03 04 05 06 07  08 09 0A 0B 0C 0D 0E 0F
      -- -- -- -- -- -- -- --  -- -- -- -- -- -- -- --
03F0:          5F 05 4F 80 F8  FF FF 7F F8 FF FF 7F 74     _.O.........t
0400: 6C 6B 30 51 80 00                                 lk0Q..          
```

#### Opcodes

```
  0: 0x03F3 [0x5F] MULTI_HANDLER_COMPLEX(mode=0x05 - Load ext scheduler with flag (OpCode 0x5B mode 0, flag 1), ref=1310*, entity1=EventEntity, entity2=EventEntity, string="tlk0", extra=150*)
  1: 0x0405 [0x00] END_REQSTACK()
```

### Event 65535.57

#### Metadata

| Field        | Value    |
|--------------|----------|
| Entrypoint   | 0x0406   |
| Data Size    | 15 bytes |
| Instructions | 2        |

```
      00 01 02 03 04 05 06 07  08 09 0A 0B 0C 0D 0E 0F
      -- -- -- -- -- -- -- --  -- -- -- -- -- -- -- --
0400:                   5F 07  F8 FF FF 7F F8 FF FF 7F        _.........
0410: 74 6C 6B 30 00                                    tlk0.           
```

#### Opcodes

```
  0: 0x0406 [0x5F] MULTI_HANDLER_COMPLEX(mode=0x07 - Wait scheduler task (OpCode 0x53))
  1: 0x0414 [0x00] END_REQSTACK()
```

### Event 65535.58

#### Metadata

| Field        | Value    |
|--------------|----------|
| Entrypoint   | 0x0415   |
| Data Size    | 16 bytes |
| Instructions | 2        |

```
      00 01 02 03 04 05 06 07  08 09 0A 0B 0C 0D 0E 0F
      -- -- -- -- -- -- -- --  -- -- -- -- -- -- -- --
0410:                5B 4F 80  F8 FF FF 7F F8 FF FF 7F       [O.........
0420: 74 6C 6B 31 00                                    tlk1.           
```

#### Opcodes

```
  0: 0x0415 [0x5B] LOAD_EXT_SCHEDULER: Load scheduler "tlk1" with entities [EventEntity, EventEntity], work=1310*
  1: 0x0424 [0x00] END_REQSTACK()
```

### Event 65535.59

#### Metadata

| Field        | Value    |
|--------------|----------|
| Entrypoint   | 0x0425   |
| Data Size    | 14 bytes |
| Instructions | 2        |

```
      00 01 02 03 04 05 06 07  08 09 0A 0B 0C 0D 0E 0F
      -- -- -- -- -- -- -- --  -- -- -- -- -- -- -- --
0420:                53 F8 FF  FF 7F F8 FF FF 7F 74 6C       S........tl
0430: 6B 31 00                                          k1.             
```

#### Opcodes

```
  0: 0x0425 [0x53] WAIT_SCHEDULER_TASK: Wait for scheduler "tlk1" with entities [EventEntity, EventEntity]
  1: 0x0432 [0x00] END_REQSTACK()
```

### Event 65535.60

#### Metadata

| Field        | Value    |
|--------------|----------|
| Entrypoint   | 0x0433   |
| Data Size    | 16 bytes |
| Instructions | 2        |

```
      00 01 02 03 04 05 06 07  08 09 0A 0B 0C 0D 0E 0F
      -- -- -- -- -- -- -- --  -- -- -- -- -- -- -- --
0430:          5B 52 80 F8 FF  FF 7F F8 FF FF 7F 74 6C     [R.........tl
0440: 61 30 00                                          a0.             
```

#### Opcodes

```
  0: 0x0433 [0x5B] LOAD_EXT_SCHEDULER: Load scheduler "tla0" with entities [EventEntity, EventEntity], work=1412*
  1: 0x0442 [0x00] END_REQSTACK()
```

### Event 65535.61

#### Metadata

| Field        | Value    |
|--------------|----------|
| Entrypoint   | 0x0443   |
| Data Size    | 14 bytes |
| Instructions | 2        |

```
      00 01 02 03 04 05 06 07  08 09 0A 0B 0C 0D 0E 0F
      -- -- -- -- -- -- -- --  -- -- -- -- -- -- -- --
0440:          53 F8 FF FF 7F  F8 FF FF 7F 74 6C 61 30     S........tla0
0450: 00                                                .               
```

#### Opcodes

```
  0: 0x0443 [0x53] WAIT_SCHEDULER_TASK: Wait for scheduler "tla0" with entities [EventEntity, EventEntity]
  1: 0x0450 [0x00] END_REQSTACK()
```

### Event 65535.62

#### Metadata

| Field        | Value    |
|--------------|----------|
| Entrypoint   | 0x0451   |
| Data Size    | 16 bytes |
| Instructions | 2        |

```
      00 01 02 03 04 05 06 07  08 09 0A 0B 0C 0D 0E 0F
      -- -- -- -- -- -- -- --  -- -- -- -- -- -- -- --
0450:    5B 52 80 F8 FF FF 7F  F8 FF FF 7F 74 6C 61 31   [R.........tla1
0460: 00                                                .               
```

#### Opcodes

```
  0: 0x0451 [0x5B] LOAD_EXT_SCHEDULER: Load scheduler "tla1" with entities [EventEntity, EventEntity], work=1412*
  1: 0x0460 [0x00] END_REQSTACK()
```

### Event 65535.63

#### Metadata

| Field        | Value    |
|--------------|----------|
| Entrypoint   | 0x0461   |
| Data Size    | 14 bytes |
| Instructions | 2        |

```
      00 01 02 03 04 05 06 07  08 09 0A 0B 0C 0D 0E 0F
      -- -- -- -- -- -- -- --  -- -- -- -- -- -- -- --
0460:    53 F8 FF FF 7F F8 FF  FF 7F 74 6C 61 31 00      S........tla1. 
```

#### Opcodes

```
  0: 0x0461 [0x53] WAIT_SCHEDULER_TASK: Wait for scheduler "tla1" with entities [EventEntity, EventEntity]
  1: 0x046E [0x00] END_REQSTACK()
```

### Event 65535.64

#### Metadata

| Field        | Value    |
|--------------|----------|
| Entrypoint   | 0x046F   |
| Data Size    | 16 bytes |
| Instructions | 2        |

```
      00 01 02 03 04 05 06 07  08 09 0A 0B 0C 0D 0E 0F
      -- -- -- -- -- -- -- --  -- -- -- -- -- -- -- --
0460:                                               5B                 [
0470: 52 80 F8 FF FF 7F F8 FF  FF 7F 74 6C 61 32 00     R.........tla2. 
```

#### Opcodes

```
  0: 0x046F [0x5B] LOAD_EXT_SCHEDULER: Load scheduler "tla2" with entities [EventEntity, EventEntity], work=1412*
  1: 0x047E [0x00] END_REQSTACK()
```

### Event 65535.65

#### Metadata

| Field        | Value    |
|--------------|----------|
| Entrypoint   | 0x047F   |
| Data Size    | 14 bytes |
| Instructions | 2        |

```
      00 01 02 03 04 05 06 07  08 09 0A 0B 0C 0D 0E 0F
      -- -- -- -- -- -- -- --  -- -- -- -- -- -- -- --
0470:                                               53                 S
0480: F8 FF FF 7F F8 FF FF 7F  74 6C 61 32 00           ........tla2.   
```

#### Opcodes

```
  0: 0x047F [0x53] WAIT_SCHEDULER_TASK: Wait for scheduler "tla2" with entities [EventEntity, EventEntity]
  1: 0x048C [0x00] END_REQSTACK()
```

### Event 65535.66

#### Metadata

| Field        | Value    |
|--------------|----------|
| Entrypoint   | 0x048D   |
| Data Size    | 16 bytes |
| Instructions | 2        |

```
      00 01 02 03 04 05 06 07  08 09 0A 0B 0C 0D 0E 0F
      -- -- -- -- -- -- -- --  -- -- -- -- -- -- -- --
0480:                                         5B 52 80               [R.
0490: F8 FF FF 7F F8 FF FF 7F  74 6C 61 33 00           ........tla3.   
```

#### Opcodes

```
  0: 0x048D [0x5B] LOAD_EXT_SCHEDULER: Load scheduler "tla3" with entities [EventEntity, EventEntity], work=1412*
  1: 0x049C [0x00] END_REQSTACK()
```

### Event 65535.67

#### Metadata

| Field        | Value    |
|--------------|----------|
| Entrypoint   | 0x049D   |
| Data Size    | 14 bytes |
| Instructions | 2        |

```
      00 01 02 03 04 05 06 07  08 09 0A 0B 0C 0D 0E 0F
      -- -- -- -- -- -- -- --  -- -- -- -- -- -- -- --
0490:                                         53 F8 FF               S..
04A0: FF 7F F8 FF FF 7F 74 6C  61 33 00                 ......tla3.     
```

#### Opcodes

```
  0: 0x049D [0x53] WAIT_SCHEDULER_TASK: Wait for scheduler "tla3" with entities [EventEntity, EventEntity]
  1: 0x04AA [0x00] END_REQSTACK()
```

### Event 65535.68

#### Metadata

| Field        | Value    |
|--------------|----------|
| Entrypoint   | 0x04AB   |
| Data Size    | 19 bytes |
| Instructions | 2        |

```
      00 01 02 03 04 05 06 07  08 09 0A 0B 0C 0D 0E 0F
      -- -- -- -- -- -- -- --  -- -- -- -- -- -- -- --
04A0:                                   5F 05 53 80 F8             _.S..
04B0: FF FF 7F F8 FF FF 7F 74  6C 62 30 54 80 00        .......tlb0T..  
```

#### Opcodes

```
  0: 0x04AB [0x5F] MULTI_HANDLER_COMPLEX(mode=0x05 - Load ext scheduler with flag (OpCode 0x5B mode 0, flag 1), ref=1414*, entity1=EventEntity, entity2=EventEntity, string="tlb0", extra=140*)
  1: 0x04BD [0x00] END_REQSTACK()
```

### Event 65535.69

#### Metadata

| Field        | Value    |
|--------------|----------|
| Entrypoint   | 0x04BE   |
| Data Size    | 15 bytes |
| Instructions | 2        |

```
      00 01 02 03 04 05 06 07  08 09 0A 0B 0C 0D 0E 0F
      -- -- -- -- -- -- -- --  -- -- -- -- -- -- -- --
04B0:                                            5F 07                _.
04C0: F8 FF FF 7F F8 FF FF 7F  74 6C 62 30 00           ........tlb0.   
```

#### Opcodes

```
  0: 0x04BE [0x5F] MULTI_HANDLER_COMPLEX(mode=0x07 - Wait scheduler task (OpCode 0x53))
  1: 0x04CC [0x00] END_REQSTACK()
```

### Event 65535.70

#### Metadata

| Field        | Value    |
|--------------|----------|
| Entrypoint   | 0x04CD   |
| Data Size    | 16 bytes |
| Instructions | 2        |

```
      00 01 02 03 04 05 06 07  08 09 0A 0B 0C 0D 0E 0F
      -- -- -- -- -- -- -- --  -- -- -- -- -- -- -- --
04C0:                                         5B 53 80               [S.
04D0: F8 FF FF 7F F8 FF FF 7F  74 6C 62 31 00           ........tlb1.   
```

#### Opcodes

```
  0: 0x04CD [0x5B] LOAD_EXT_SCHEDULER: Load scheduler "tlb1" with entities [EventEntity, EventEntity], work=1414*
  1: 0x04DC [0x00] END_REQSTACK()
```

### Event 65535.71

#### Metadata

| Field        | Value    |
|--------------|----------|
| Entrypoint   | 0x04DD   |
| Data Size    | 14 bytes |
| Instructions | 2        |

```
      00 01 02 03 04 05 06 07  08 09 0A 0B 0C 0D 0E 0F
      -- -- -- -- -- -- -- --  -- -- -- -- -- -- -- --
04D0:                                         53 F8 FF               S..
04E0: FF 7F F8 FF FF 7F 74 6C  62 31 00                 ......tlb1.     
```

#### Opcodes

```
  0: 0x04DD [0x53] WAIT_SCHEDULER_TASK: Wait for scheduler "tlb1" with entities [EventEntity, EventEntity]
  1: 0x04EA [0x00] END_REQSTACK()
```

### Event 65535.72

#### Metadata

| Field        | Value    |
|--------------|----------|
| Entrypoint   | 0x04EB   |
| Data Size    | 28 bytes |
| Instructions | 4        |

```
      00 01 02 03 04 05 06 07  08 09 0A 0B 0C 0D 0E 0F
      -- -- -- -- -- -- -- --  -- -- -- -- -- -- -- --
04E0:                                   7C 00 F8 FF FF             |....
04F0: 7F 81 00 F8 FF FF 7F 5B  10 80 F8 FF FF 7F F8 FF  .......[........
0500: FF 7F 61 72 61 30 00                              ..ara0.         
```

#### Opcodes

```
  0: 0x04EB [0x7C] EventEntity->Render.Flags2 |= 0x00
  1: 0x04F1 [0x81] SET_ENTITY_BLINKING(blink_flag=0x00, entity=EventEntity)
  2: 0x04F7 [0x5B] LOAD_EXT_SCHEDULER: Load scheduler "ara0" with entities [EventEntity, EventEntity], work=1311*
  3: 0x0506 [0x00] END_REQSTACK()
```

### Event 65535.73

#### Metadata

| Field        | Value    |
|--------------|----------|
| Entrypoint   | 0x0507   |
| Data Size    | 26 bytes |
| Instructions | 4        |

```
      00 01 02 03 04 05 06 07  08 09 0A 0B 0C 0D 0E 0F
      -- -- -- -- -- -- -- --  -- -- -- -- -- -- -- --
0500:                      53  F8 FF FF 7F F8 FF FF 7F         S........
0510: 61 72 61 30 7C 01 F8 FF  FF 7F 81 01 F8 FF FF 7F  ara0|...........
0520: 00                                                .               
```

#### Opcodes

```
  0: 0x0507 [0x53] WAIT_SCHEDULER_TASK: Wait for scheduler "ara0" with entities [EventEntity, EventEntity]
  1: 0x0514 [0x7C] EventEntity->Render.Flags2 |= 0x01
  2: 0x051A [0x81] SET_ENTITY_BLINKING(blink_flag=0x01, entity=EventEntity)
  3: 0x0520 [0x00] END_REQSTACK()
```

### Event 65535.74

#### Metadata

| Field        | Value    |
|--------------|----------|
| Entrypoint   | 0x0521   |
| Data Size    | 28 bytes |
| Instructions | 4        |

```
      00 01 02 03 04 05 06 07  08 09 0A 0B 0C 0D 0E 0F
      -- -- -- -- -- -- -- --  -- -- -- -- -- -- -- --
0520:    7C 00 F8 FF FF 7F 81  00 F8 FF FF 7F 5B 10 80   |...........[..
0530: F8 FF FF 7F F8 FF FF 7F  62 69 6B 30 00           ........bik0.   
```

#### Opcodes

```
  0: 0x0521 [0x7C] EventEntity->Render.Flags2 |= 0x00
  1: 0x0527 [0x81] SET_ENTITY_BLINKING(blink_flag=0x00, entity=EventEntity)
  2: 0x052D [0x5B] LOAD_EXT_SCHEDULER: Load scheduler "bik0" with entities [EventEntity, EventEntity], work=1311*
  3: 0x053C [0x00] END_REQSTACK()
```

### Event 65535.75

#### Metadata

| Field        | Value    |
|--------------|----------|
| Entrypoint   | 0x053D   |
| Data Size    | 26 bytes |
| Instructions | 4        |

```
      00 01 02 03 04 05 06 07  08 09 0A 0B 0C 0D 0E 0F
      -- -- -- -- -- -- -- --  -- -- -- -- -- -- -- --
0530:                                         53 F8 FF               S..
0540: FF 7F F8 FF FF 7F 62 69  6B 30 7C 01 F8 FF FF 7F  ......bik0|.....
0550: 81 01 F8 FF FF 7F 00                              .......         
```

#### Opcodes

```
  0: 0x053D [0x53] WAIT_SCHEDULER_TASK: Wait for scheduler "bik0" with entities [EventEntity, EventEntity]
  1: 0x054A [0x7C] EventEntity->Render.Flags2 |= 0x01
  2: 0x0550 [0x81] SET_ENTITY_BLINKING(blink_flag=0x01, entity=EventEntity)
  3: 0x0556 [0x00] END_REQSTACK()
```

### Event 65535.76

#### Metadata

| Field        | Value    |
|--------------|----------|
| Entrypoint   | 0x0557   |
| Data Size    | 16 bytes |
| Instructions | 2        |

```
      00 01 02 03 04 05 06 07  08 09 0A 0B 0C 0D 0E 0F
      -- -- -- -- -- -- -- --  -- -- -- -- -- -- -- --
0550:                      5B  55 80 F8 FF FF 7F F8 FF         [U.......
0560: FF 7F 70 6E 74 30 00                              ..pnt0.         
```

#### Opcodes

```
  0: 0x0557 [0x5B] LOAD_EXT_SCHEDULER: Load scheduler "pnt0" with entities [EventEntity, EventEntity], work=1312*
  1: 0x0566 [0x00] END_REQSTACK()
```

### Event 65535.77

#### Metadata

| Field        | Value    |
|--------------|----------|
| Entrypoint   | 0x0567   |
| Data Size    | 14 bytes |
| Instructions | 2        |

```
      00 01 02 03 04 05 06 07  08 09 0A 0B 0C 0D 0E 0F
      -- -- -- -- -- -- -- --  -- -- -- -- -- -- -- --
0560:                      53  F8 FF FF 7F F8 FF FF 7F         S........
0570: 70 6E 74 30 00                                    pnt0.           
```

#### Opcodes

```
  0: 0x0567 [0x53] WAIT_SCHEDULER_TASK: Wait for scheduler "pnt0" with entities [EventEntity, EventEntity]
  1: 0x0574 [0x00] END_REQSTACK()
```

### Event 65535.78

#### Metadata

| Field        | Value    |
|--------------|----------|
| Entrypoint   | 0x0575   |
| Data Size    | 16 bytes |
| Instructions | 2        |

```
      00 01 02 03 04 05 06 07  08 09 0A 0B 0C 0D 0E 0F
      -- -- -- -- -- -- -- --  -- -- -- -- -- -- -- --
0570:                5B 55 80  F8 FF FF 7F F8 FF FF 7F       [U.........
0580: 70 6E 74 31 00                                    pnt1.           
```

#### Opcodes

```
  0: 0x0575 [0x5B] LOAD_EXT_SCHEDULER: Load scheduler "pnt1" with entities [EventEntity, EventEntity], work=1312*
  1: 0x0584 [0x00] END_REQSTACK()
```

### Event 65535.79

#### Metadata

| Field        | Value    |
|--------------|----------|
| Entrypoint   | 0x0585   |
| Data Size    | 14 bytes |
| Instructions | 2        |

```
      00 01 02 03 04 05 06 07  08 09 0A 0B 0C 0D 0E 0F
      -- -- -- -- -- -- -- --  -- -- -- -- -- -- -- --
0580:                53 F8 FF  FF 7F F8 FF FF 7F 70 6E       S........pn
0590: 74 31 00                                          t1.             
```

#### Opcodes

```
  0: 0x0585 [0x53] WAIT_SCHEDULER_TASK: Wait for scheduler "pnt1" with entities [EventEntity, EventEntity]
  1: 0x0592 [0x00] END_REQSTACK()
```

### Event 65535.80

#### Metadata

| Field        | Value    |
|--------------|----------|
| Entrypoint   | 0x0593   |
| Data Size    | 16 bytes |
| Instructions | 2        |

```
      00 01 02 03 04 05 06 07  08 09 0A 0B 0C 0D 0E 0F
      -- -- -- -- -- -- -- --  -- -- -- -- -- -- -- --
0590:          5B 55 80 F8 FF  FF 7F F8 FF FF 7F 70 6E     [U.........pn
05A0: 74 72 00                                          tr.             
```

#### Opcodes

```
  0: 0x0593 [0x5B] LOAD_EXT_SCHEDULER: Load scheduler "pntr" with entities [EventEntity, EventEntity], work=1312*
  1: 0x05A2 [0x00] END_REQSTACK()
```

### Event 65535.81

#### Metadata

| Field        | Value    |
|--------------|----------|
| Entrypoint   | 0x05A3   |
| Data Size    | 14 bytes |
| Instructions | 2        |

```
      00 01 02 03 04 05 06 07  08 09 0A 0B 0C 0D 0E 0F
      -- -- -- -- -- -- -- --  -- -- -- -- -- -- -- --
05A0:          53 F8 FF FF 7F  F8 FF FF 7F 70 6E 74 72     S........pntr
05B0: 00                                                .               
```

#### Opcodes

```
  0: 0x05A3 [0x53] WAIT_SCHEDULER_TASK: Wait for scheduler "pntr" with entities [EventEntity, EventEntity]
  1: 0x05B0 [0x00] END_REQSTACK()
```

### Event 65535.82

#### Metadata

| Field        | Value    |
|--------------|----------|
| Entrypoint   | 0x05B1   |
| Data Size    | 28 bytes |
| Instructions | 4        |

```
      00 01 02 03 04 05 06 07  08 09 0A 0B 0C 0D 0E 0F
      -- -- -- -- -- -- -- --  -- -- -- -- -- -- -- --
05B0:    7C 00 F8 FF FF 7F 81  00 F8 FF FF 7F 5B 55 80   |...........[U.
05C0: F8 FF FF 7F F8 FF FF 7F  68 6F 74 30 00           ........hot0.   
```

#### Opcodes

```
  0: 0x05B1 [0x7C] EventEntity->Render.Flags2 |= 0x00
  1: 0x05B7 [0x81] SET_ENTITY_BLINKING(blink_flag=0x00, entity=EventEntity)
  2: 0x05BD [0x5B] LOAD_EXT_SCHEDULER: Load scheduler "hot0" with entities [EventEntity, EventEntity], work=1312*
  3: 0x05CC [0x00] END_REQSTACK()
```

### Event 65535.83

#### Metadata

| Field        | Value    |
|--------------|----------|
| Entrypoint   | 0x05CD   |
| Data Size    | 14 bytes |
| Instructions | 2        |

```
      00 01 02 03 04 05 06 07  08 09 0A 0B 0C 0D 0E 0F
      -- -- -- -- -- -- -- --  -- -- -- -- -- -- -- --
05C0:                                         53 F8 FF               S..
05D0: FF 7F F8 FF FF 7F 68 6F  74 30 00                 ......hot0.     
```

#### Opcodes

```
  0: 0x05CD [0x53] WAIT_SCHEDULER_TASK: Wait for scheduler "hot0" with entities [EventEntity, EventEntity]
  1: 0x05DA [0x00] END_REQSTACK()
```

### Event 65535.84

#### Metadata

| Field        | Value    |
|--------------|----------|
| Entrypoint   | 0x05DB   |
| Data Size    | 16 bytes |
| Instructions | 2        |

```
      00 01 02 03 04 05 06 07  08 09 0A 0B 0C 0D 0E 0F
      -- -- -- -- -- -- -- --  -- -- -- -- -- -- -- --
05D0:                                   5B 55 80 F8 FF             [U...
05E0: FF 7F F8 FF FF 7F 68 6F  74 31 00                 ......hot1.     
```

#### Opcodes

```
  0: 0x05DB [0x5B] LOAD_EXT_SCHEDULER: Load scheduler "hot1" with entities [EventEntity, EventEntity], work=1312*
  1: 0x05EA [0x00] END_REQSTACK()
```

### Event 65535.85

#### Metadata

| Field        | Value    |
|--------------|----------|
| Entrypoint   | 0x05EB   |
| Data Size    | 26 bytes |
| Instructions | 4        |

```
      00 01 02 03 04 05 06 07  08 09 0A 0B 0C 0D 0E 0F
      -- -- -- -- -- -- -- --  -- -- -- -- -- -- -- --
05E0:                                   53 F8 FF FF 7F             S....
05F0: F8 FF FF 7F 68 6F 74 31  7C 01 F8 FF FF 7F 81 01  ....hot1|.......
0600: F8 FF FF 7F 00                                    .....           
```

#### Opcodes

```
  0: 0x05EB [0x53] WAIT_SCHEDULER_TASK: Wait for scheduler "hot1" with entities [EventEntity, EventEntity]
  1: 0x05F8 [0x7C] EventEntity->Render.Flags2 |= 0x01
  2: 0x05FE [0x81] SET_ENTITY_BLINKING(blink_flag=0x01, entity=EventEntity)
  3: 0x0604 [0x00] END_REQSTACK()
```

### Event 65535.86

#### Metadata

| Field        | Value    |
|--------------|----------|
| Entrypoint   | 0x0605   |
| Data Size    | 16 bytes |
| Instructions | 2        |

```
      00 01 02 03 04 05 06 07  08 09 0A 0B 0C 0D 0E 0F
      -- -- -- -- -- -- -- --  -- -- -- -- -- -- -- --
0600:                5B 56 80  F8 FF FF 7F F8 FF FF 7F       [V.........
0610: 68 69 67 30 00                                    hig0.           
```

#### Opcodes

```
  0: 0x0605 [0x5B] LOAD_EXT_SCHEDULER: Load scheduler "hig0" with entities [EventEntity, EventEntity], work=1410*
  1: 0x0614 [0x00] END_REQSTACK()
```

### Event 65535.87

#### Metadata

| Field        | Value    |
|--------------|----------|
| Entrypoint   | 0x0615   |
| Data Size    | 14 bytes |
| Instructions | 2        |

```
      00 01 02 03 04 05 06 07  08 09 0A 0B 0C 0D 0E 0F
      -- -- -- -- -- -- -- --  -- -- -- -- -- -- -- --
0610:                53 F8 FF  FF 7F F8 FF FF 7F 68 69       S........hi
0620: 67 30 00                                          g0.             
```

#### Opcodes

```
  0: 0x0615 [0x53] WAIT_SCHEDULER_TASK: Wait for scheduler "hig0" with entities [EventEntity, EventEntity]
  1: 0x0622 [0x00] END_REQSTACK()
```

### Event 65535.88

#### Metadata

| Field        | Value    |
|--------------|----------|
| Entrypoint   | 0x0623   |
| Data Size    | 16 bytes |
| Instructions | 2        |

```
      00 01 02 03 04 05 06 07  08 09 0A 0B 0C 0D 0E 0F
      -- -- -- -- -- -- -- --  -- -- -- -- -- -- -- --
0620:          5B 56 80 F8 FF  FF 7F F8 FF FF 7F 68 69     [V.........hi
0630: 67 31 00                                          g1.             
```

#### Opcodes

```
  0: 0x0623 [0x5B] LOAD_EXT_SCHEDULER: Load scheduler "hig1" with entities [EventEntity, EventEntity], work=1410*
  1: 0x0632 [0x00] END_REQSTACK()
```

### Event 65535.89

#### Metadata

| Field        | Value    |
|--------------|----------|
| Entrypoint   | 0x0633   |
| Data Size    | 14 bytes |
| Instructions | 2        |

```
      00 01 02 03 04 05 06 07  08 09 0A 0B 0C 0D 0E 0F
      -- -- -- -- -- -- -- --  -- -- -- -- -- -- -- --
0630:          53 F8 FF FF 7F  F8 FF FF 7F 68 69 67 31     S........hig1
0640: 00                                                .               
```

#### Opcodes

```
  0: 0x0633 [0x53] WAIT_SCHEDULER_TASK: Wait for scheduler "hig1" with entities [EventEntity, EventEntity]
  1: 0x0640 [0x00] END_REQSTACK()
```

### Event 65535.90

#### Metadata

| Field        | Value    |
|--------------|----------|
| Entrypoint   | 0x0641   |
| Data Size    | 16 bytes |
| Instructions | 2        |

```
      00 01 02 03 04 05 06 07  08 09 0A 0B 0C 0D 0E 0F
      -- -- -- -- -- -- -- --  -- -- -- -- -- -- -- --
0640:    5B 52 80 F8 FF FF 7F  F8 FF FF 7F 75 64 65 30   [R.........ude0
0650: 00                                                .               
```

#### Opcodes

```
  0: 0x0641 [0x5B] LOAD_EXT_SCHEDULER: Load scheduler "ude0" with entities [EventEntity, EventEntity], work=1412*
  1: 0x0650 [0x00] END_REQSTACK()
```

### Event 65535.91

#### Metadata

| Field        | Value    |
|--------------|----------|
| Entrypoint   | 0x0651   |
| Data Size    | 14 bytes |
| Instructions | 2        |

```
      00 01 02 03 04 05 06 07  08 09 0A 0B 0C 0D 0E 0F
      -- -- -- -- -- -- -- --  -- -- -- -- -- -- -- --
0650:    53 F8 FF FF 7F F8 FF  FF 7F 75 64 65 30 00      S........ude0. 
```

#### Opcodes

```
  0: 0x0651 [0x53] WAIT_SCHEDULER_TASK: Wait for scheduler "ude0" with entities [EventEntity, EventEntity]
  1: 0x065E [0x00] END_REQSTACK()
```

### Event 65535.92

#### Metadata

| Field        | Value    |
|--------------|----------|
| Entrypoint   | 0x065F   |
| Data Size    | 16 bytes |
| Instructions | 2        |

```
      00 01 02 03 04 05 06 07  08 09 0A 0B 0C 0D 0E 0F
      -- -- -- -- -- -- -- --  -- -- -- -- -- -- -- --
0650:                                               5B                 [
0660: 52 80 F8 FF FF 7F F8 FF  FF 7F 75 64 65 31 00     R.........ude1. 
```

#### Opcodes

```
  0: 0x065F [0x5B] LOAD_EXT_SCHEDULER: Load scheduler "ude1" with entities [EventEntity, EventEntity], work=1412*
  1: 0x066E [0x00] END_REQSTACK()
```

### Event 65535.93

#### Metadata

| Field        | Value    |
|--------------|----------|
| Entrypoint   | 0x066F   |
| Data Size    | 14 bytes |
| Instructions | 2        |

```
      00 01 02 03 04 05 06 07  08 09 0A 0B 0C 0D 0E 0F
      -- -- -- -- -- -- -- --  -- -- -- -- -- -- -- --
0660:                                               53                 S
0670: F8 FF FF 7F F8 FF FF 7F  75 64 65 31 00           ........ude1.   
```

#### Opcodes

```
  0: 0x066F [0x53] WAIT_SCHEDULER_TASK: Wait for scheduler "ude1" with entities [EventEntity, EventEntity]
  1: 0x067C [0x00] END_REQSTACK()
```

### Event 65535.94

#### Metadata

| Field        | Value    |
|--------------|----------|
| Entrypoint   | 0x067D   |
| Data Size    | 19 bytes |
| Instructions | 2        |

```
      00 01 02 03 04 05 06 07  08 09 0A 0B 0C 0D 0E 0F
      -- -- -- -- -- -- -- --  -- -- -- -- -- -- -- --
0670:                                         5F 05 57               _.W
0680: 80 F8 FF FF 7F F8 FF FF  7F 79 72 65 30 51 80 00  .........yre0Q..
```

#### Opcodes

```
  0: 0x067D [0x5F] MULTI_HANDLER_COMPLEX(mode=0x05 - Load ext scheduler with flag (OpCode 0x5B mode 0, flag 1), ref=2521*, entity1=EventEntity, entity2=EventEntity, string="yre0", extra=150*)
  1: 0x068F [0x00] END_REQSTACK()
```

### Event 65535.95

#### Metadata

| Field        | Value    |
|--------------|----------|
| Entrypoint   | 0x0690   |
| Data Size    | 15 bytes |
| Instructions | 2        |

```
      00 01 02 03 04 05 06 07  08 09 0A 0B 0C 0D 0E 0F
      -- -- -- -- -- -- -- --  -- -- -- -- -- -- -- --
0690: 5F 07 F8 FF FF 7F F8 FF  FF 7F 79 72 65 30 00     _.........yre0. 
```

#### Opcodes

```
  0: 0x0690 [0x5F] MULTI_HANDLER_COMPLEX(mode=0x07 - Wait scheduler task (OpCode 0x53))
  1: 0x069E [0x00] END_REQSTACK()
```

### Event 65535.96

#### Metadata

| Field        | Value    |
|--------------|----------|
| Entrypoint   | 0x069F   |
| Data Size    | 19 bytes |
| Instructions | 2        |

```
      00 01 02 03 04 05 06 07  08 09 0A 0B 0C 0D 0E 0F
      -- -- -- -- -- -- -- --  -- -- -- -- -- -- -- --
0690:                                               5F                 _
06A0: 05 57 80 F8 FF FF 7F F8  FF FF 7F 79 72 65 31 1B  .W.........yre1.
06B0: 80 00                                             ..              
```

#### Opcodes

```
  0: 0x069F [0x5F] MULTI_HANDLER_COMPLEX(mode=0x05 - Load ext scheduler with flag (OpCode 0x5B mode 0, flag 1), ref=2521*, entity1=EventEntity, entity2=EventEntity, string="yre1", extra=100*)
  1: 0x06B1 [0x00] END_REQSTACK()
```

### Event 65535.97

#### Metadata

| Field        | Value    |
|--------------|----------|
| Entrypoint   | 0x06B2   |
| Data Size    | 15 bytes |
| Instructions | 2        |

```
      00 01 02 03 04 05 06 07  08 09 0A 0B 0C 0D 0E 0F
      -- -- -- -- -- -- -- --  -- -- -- -- -- -- -- --
06B0:       5F 07 F8 FF FF 7F  F8 FF FF 7F 79 72 65 31    _.........yre1
06C0: 00                                                .               
```

#### Opcodes

```
  0: 0x06B2 [0x5F] MULTI_HANDLER_COMPLEX(mode=0x07 - Wait scheduler task (OpCode 0x53))
  1: 0x06C0 [0x00] END_REQSTACK()
```

### Event 65535.98

#### Metadata

| Field        | Value    |
|--------------|----------|
| Entrypoint   | 0x06C1   |
| Data Size    | 16 bytes |
| Instructions | 2        |

```
      00 01 02 03 04 05 06 07  08 09 0A 0B 0C 0D 0E 0F
      -- -- -- -- -- -- -- --  -- -- -- -- -- -- -- --
06C0:    5B 58 80 F8 FF FF 7F  F8 FF FF 7F 64 65 6B 30   [X.........dek0
06D0: 00                                                .               
```

#### Opcodes

```
  0: 0x06C1 [0x5B] LOAD_EXT_SCHEDULER: Load scheduler "dek0" with entities [EventEntity, EventEntity], work=2811*
  1: 0x06D0 [0x00] END_REQSTACK()
```

### Event 65535.99

#### Metadata

| Field        | Value    |
|--------------|----------|
| Entrypoint   | 0x06D1   |
| Data Size    | 14 bytes |
| Instructions | 2        |

```
      00 01 02 03 04 05 06 07  08 09 0A 0B 0C 0D 0E 0F
      -- -- -- -- -- -- -- --  -- -- -- -- -- -- -- --
06D0:    53 F8 FF FF 7F F8 FF  FF 7F 64 65 6B 30 00      S........dek0. 
```

#### Opcodes

```
  0: 0x06D1 [0x53] WAIT_SCHEDULER_TASK: Wait for scheduler "dek0" with entities [EventEntity, EventEntity]
  1: 0x06DE [0x00] END_REQSTACK()
```

### Event 65535.100

#### Metadata

| Field        | Value    |
|--------------|----------|
| Entrypoint   | 0x06DF   |
| Data Size    | 16 bytes |
| Instructions | 2        |

```
      00 01 02 03 04 05 06 07  08 09 0A 0B 0C 0D 0E 0F
      -- -- -- -- -- -- -- --  -- -- -- -- -- -- -- --
06D0:                                               5B                 [
06E0: 58 80 F8 FF FF 7F F8 FF  FF 7F 64 65 6B 31 00     X.........dek1. 
```

#### Opcodes

```
  0: 0x06DF [0x5B] LOAD_EXT_SCHEDULER: Load scheduler "dek1" with entities [EventEntity, EventEntity], work=2811*
  1: 0x06EE [0x00] END_REQSTACK()
```

### Event 65535.101

#### Metadata

| Field        | Value    |
|--------------|----------|
| Entrypoint   | 0x06EF   |
| Data Size    | 14 bytes |
| Instructions | 2        |

```
      00 01 02 03 04 05 06 07  08 09 0A 0B 0C 0D 0E 0F
      -- -- -- -- -- -- -- --  -- -- -- -- -- -- -- --
06E0:                                               53                 S
06F0: F8 FF FF 7F F8 FF FF 7F  64 65 6B 31 00           ........dek1.   
```

#### Opcodes

```
  0: 0x06EF [0x53] WAIT_SCHEDULER_TASK: Wait for scheduler "dek1" with entities [EventEntity, EventEntity]
  1: 0x06FC [0x00] END_REQSTACK()
```

### Event 65535.102

#### Metadata

| Field        | Value    |
|--------------|----------|
| Entrypoint   | 0x06FD   |
| Data Size    | 16 bytes |
| Instructions | 2        |

```
      00 01 02 03 04 05 06 07  08 09 0A 0B 0C 0D 0E 0F
      -- -- -- -- -- -- -- --  -- -- -- -- -- -- -- --
06F0:                                         5B 59 80               [Y.
0700: F8 FF FF 7F F8 FF FF 7F  6B 79 6F 30 00           ........kyo0.   
```

#### Opcodes

```
  0: 0x06FD [0x5B] LOAD_EXT_SCHEDULER: Load scheduler "kyo0" with entities [EventEntity, EventEntity], work=2856*
  1: 0x070C [0x00] END_REQSTACK()
```

### Event 65535.103

#### Metadata

| Field        | Value    |
|--------------|----------|
| Entrypoint   | 0x070D   |
| Data Size    | 14 bytes |
| Instructions | 2        |

```
      00 01 02 03 04 05 06 07  08 09 0A 0B 0C 0D 0E 0F
      -- -- -- -- -- -- -- --  -- -- -- -- -- -- -- --
0700:                                         53 F8 FF               S..
0710: FF 7F F8 FF FF 7F 6B 79  6F 30 00                 ......kyo0.     
```

#### Opcodes

```
  0: 0x070D [0x53] WAIT_SCHEDULER_TASK: Wait for scheduler "kyo0" with entities [EventEntity, EventEntity]
  1: 0x071A [0x00] END_REQSTACK()
```

### Event 65535.104

#### Metadata

| Field        | Value    |
|--------------|----------|
| Entrypoint   | 0x071B   |
| Data Size    | 28 bytes |
| Instructions | 4        |

```
      00 01 02 03 04 05 06 07  08 09 0A 0B 0C 0D 0E 0F
      -- -- -- -- -- -- -- --  -- -- -- -- -- -- -- --
0710:                                   7C 00 F8 FF FF             |....
0720: 7F 81 00 F8 FF FF 7F 5B  5A 80 F8 FF FF 7F F8 FF  .......[Z.......
0730: FF 7F 63 72 79 30 00                              ..cry0.         
```

#### Opcodes

```
  0: 0x071B [0x7C] EventEntity->Render.Flags2 |= 0x00
  1: 0x0721 [0x81] SET_ENTITY_BLINKING(blink_flag=0x00, entity=EventEntity)
  2: 0x0727 [0x5B] LOAD_EXT_SCHEDULER: Load scheduler "cry0" with entities [EventEntity, EventEntity], work=2857*
  3: 0x0736 [0x00] END_REQSTACK()
```

### Event 65535.105

#### Metadata

| Field        | Value    |
|--------------|----------|
| Entrypoint   | 0x0737   |
| Data Size    | 14 bytes |
| Instructions | 2        |

```
      00 01 02 03 04 05 06 07  08 09 0A 0B 0C 0D 0E 0F
      -- -- -- -- -- -- -- --  -- -- -- -- -- -- -- --
0730:                      53  F8 FF FF 7F F8 FF FF 7F         S........
0740: 63 72 79 30 00                                    cry0.           
```

#### Opcodes

```
  0: 0x0737 [0x53] WAIT_SCHEDULER_TASK: Wait for scheduler "cry0" with entities [EventEntity, EventEntity]
  1: 0x0744 [0x00] END_REQSTACK()
```

### Event 65535.106

#### Metadata

| Field        | Value    |
|--------------|----------|
| Entrypoint   | 0x0745   |
| Data Size    | 16 bytes |
| Instructions | 2        |

```
      00 01 02 03 04 05 06 07  08 09 0A 0B 0C 0D 0E 0F
      -- -- -- -- -- -- -- --  -- -- -- -- -- -- -- --
0740:                5B 5A 80  F8 FF FF 7F F8 FF FF 7F       [Z.........
0750: 63 72 79 31 00                                    cry1.           
```

#### Opcodes

```
  0: 0x0745 [0x5B] LOAD_EXT_SCHEDULER: Load scheduler "cry1" with entities [EventEntity, EventEntity], work=2857*
  1: 0x0754 [0x00] END_REQSTACK()
```

### Event 65535.107

#### Metadata

| Field        | Value    |
|--------------|----------|
| Entrypoint   | 0x0755   |
| Data Size    | 26 bytes |
| Instructions | 4        |

```
      00 01 02 03 04 05 06 07  08 09 0A 0B 0C 0D 0E 0F
      -- -- -- -- -- -- -- --  -- -- -- -- -- -- -- --
0750:                53 F8 FF  FF 7F F8 FF FF 7F 63 72       S........cr
0760: 79 31 7C 01 F8 FF FF 7F  81 01 F8 FF FF 7F 00     y1|............ 
```

#### Opcodes

```
  0: 0x0755 [0x53] WAIT_SCHEDULER_TASK: Wait for scheduler "cry1" with entities [EventEntity, EventEntity]
  1: 0x0762 [0x7C] EventEntity->Render.Flags2 |= 0x01
  2: 0x0768 [0x81] SET_ENTITY_BLINKING(blink_flag=0x01, entity=EventEntity)
  3: 0x076E [0x00] END_REQSTACK()
```

### Event 65535.108

#### Metadata

| Field        | Value    |
|--------------|----------|
| Entrypoint   | 0x076F   |
| Data Size    | 28 bytes |
| Instructions | 4        |

```
      00 01 02 03 04 05 06 07  08 09 0A 0B 0C 0D 0E 0F
      -- -- -- -- -- -- -- --  -- -- -- -- -- -- -- --
0760:                                               7C                 |
0770: 00 F8 FF FF 7F 81 00 F8  FF FF 7F 5B 2F 80 F8 FF  ...........[/...
0780: FF 7F F8 FF FF 7F 6E 64  6D 30 00                 ......ndm0.     
```

#### Opcodes

```
  0: 0x076F [0x7C] EventEntity->Render.Flags2 |= 0x00
  1: 0x0775 [0x81] SET_ENTITY_BLINKING(blink_flag=0x00, entity=EventEntity)
  2: 0x077B [0x5B] LOAD_EXT_SCHEDULER: Load scheduler "ndm0" with entities [EventEntity, EventEntity], work=2474*
  3: 0x078A [0x00] END_REQSTACK()
```

### Event 65535.109

#### Metadata

| Field        | Value    |
|--------------|----------|
| Entrypoint   | 0x078B   |
| Data Size    | 26 bytes |
| Instructions | 4        |

```
      00 01 02 03 04 05 06 07  08 09 0A 0B 0C 0D 0E 0F
      -- -- -- -- -- -- -- --  -- -- -- -- -- -- -- --
0780:                                   53 F8 FF FF 7F             S....
0790: F8 FF FF 7F 6E 64 6D 30  7C 01 F8 FF FF 7F 81 01  ....ndm0|.......
07A0: F8 FF FF 7F 00                                    .....           
```

#### Opcodes

```
  0: 0x078B [0x53] WAIT_SCHEDULER_TASK: Wait for scheduler "ndm0" with entities [EventEntity, EventEntity]
  1: 0x0798 [0x7C] EventEntity->Render.Flags2 |= 0x01
  2: 0x079E [0x81] SET_ENTITY_BLINKING(blink_flag=0x01, entity=EventEntity)
  3: 0x07A4 [0x00] END_REQSTACK()
```

### Event 65535.110

#### Metadata

| Field        | Value    |
|--------------|----------|
| Entrypoint   | 0x07A5   |
| Data Size    | 16 bytes |
| Instructions | 2        |

```
      00 01 02 03 04 05 06 07  08 09 0A 0B 0C 0D 0E 0F
      -- -- -- -- -- -- -- --  -- -- -- -- -- -- -- --
