# 17523344

## Common Data

| Field            | Value                    |
|------------------|--------------------------|
| Zone             | Walk of Echoes (ID: 182) |
| Block Size       | 4012 bytes               |
| Total Events     | 6                        |
| References Count | 82                       |

## List of Events

| Event ID              | Entrypoint   |   Size |   Instructions |
|-----------------------|--------------|--------|----------------|
| [65535](#event-65535) | 0x0000       |      1 |              1 |
| [118](#event-118)     | 0x0001       |   1612 |            351 |
| [119](#event-119)     | 0x064D       |    188 |             33 |
| [120](#event-120)     | 0x0709       |   1393 |            301 |
| [121](#event-121)     | 0x0C7A       |    130 |             21 |
| [122](#event-122)     | 0x0CFC       |    317 |             45 |

## DAT References (imed_data)

|   Index | Hex Value   |   Dec Value |
|---------|-------------|-------------|
|       0 | 0x0000      |           0 |
|       1 | 0x0001      |           1 |
|       2 | 0xFFF99760  |  4294547296 |
|       3 | 0x1B58      |        7000 |
|       4 | 0x2710      |       10000 |
|       5 | 0x0400      |        1024 |
|       6 | 0x001E      |          30 |
|       7 | 0x0079      |         121 |
|       8 | 0x0078      |         120 |
|       9 | 0x1F72      |        8050 |
|      10 | 0x1F73      |        8051 |
|      11 | 0x1F74      |        8052 |
|      12 | 0x1F75      |        8053 |
|      13 | 0x1F76      |        8054 |
|      14 | 0x1F77      |        8055 |
|      15 | 0x1F78      |        8056 |
|      16 | 0x1F79      |        8057 |
|      17 | 0x1F7A      |        8058 |
|      18 | 0x1F7B      |        8059 |
|      19 | 0x1F7C      |        8060 |
|      20 | 0x1F7D      |        8061 |
|      21 | 0x1F7E      |        8062 |
|      22 | 0x1F80      |        8064 |
|      23 | 0x1F81      |        8065 |
|      24 | 0x1F82      |        8066 |
|      25 | 0x1F83      |        8067 |
|      26 | 0x1F84      |        8068 |
|      27 | 0x1F85      |        8069 |
|      28 | 0x1F86      |        8070 |
|      29 | 0x1F87      |        8071 |
|      30 | 0x1F88      |        8072 |
|      31 | 0x1F89      |        8073 |
|      32 | 0x1F8A      |        8074 |
|      33 | 0x1F8C      |        8076 |
|      34 | 0x1F8D      |        8077 |
|      35 | 0x1F8E      |        8078 |
|      36 | 0x1F8F      |        8079 |
|      37 | 0x0010      |          16 |
|      38 | 0x1F90      |        8080 |
|      39 | 0x0011      |          17 |
|      40 | 0x0002      |           2 |
|      41 | 0x0012      |          18 |
|      42 | 0x0003      |           3 |
|      43 | 0x0013      |          19 |
|      44 | 0x0004      |           4 |
|      45 | 0x0014      |          20 |
|      46 | 0x0005      |           5 |
|      47 | 0x0015      |          21 |
|      48 | 0x0006      |           6 |
|      49 | 0x0016      |          22 |
|      50 | 0x0007      |           7 |
|      51 | 0x0017      |          23 |
|      52 | 0x0008      |           8 |
|      53 | 0x0018      |          24 |
|      54 | 0x0009      |           9 |
|      55 | 0x0019      |          25 |
|      56 | 0x000A      |          10 |
|      57 | 0x001A      |          26 |
|      58 | 0x000B      |          11 |
|      59 | 0x001B      |          27 |
|      60 | 0x000C      |          12 |
|      61 | 0x001C      |          28 |
|      62 | 0x000D      |          13 |
|      63 | 0x001D      |          29 |
|      64 | 0x000E      |          14 |
|      65 | 0x1F8B      |        8075 |
|      66 | 0x1F7F      |        8063 |
|      67 | 0x003C      |          60 |
|      68 | 0x1F99      |        8089 |
|      69 | 0x1F9A      |        8090 |
|      70 | 0x1F97      |        8087 |
|      71 | 0x1F91      |        8081 |
|      72 | 0x1F92      |        8082 |
|      73 | 0x1F93      |        8083 |
|      74 | 0x1F94      |        8084 |
|      75 | 0x0A4C      |        2636 |
|      76 | 0x005A      |          90 |
|      77 | 0x0098      |         152 |
|      78 | 0x00B4      |         180 |
|      79 | 0x00C9      |         201 |
|      80 | 0x1F95      |        8085 |
|      81 | 0x1F96      |        8086 |

## String References

- **8062**: Does it interest you? [Yes! Give me the power!/Not at the moment.]
- **8074**: Which skill set shalt thou select? [Hand-to-hand./Dagger./Sword./Great Sword./Axe./Great Axe./Scythe./Polearm./Katana./Great Katana./Club./Staff./Archery./Marksmanship./None for the nonce.]
- **8077**: Is this the one? [Verily./Nay.]
- **8090**: Continue or quit? [Continue!/Quit!]

## Events

### Event 65535

#### Metadata

| Field        | Value   |
|--------------|---------|
| Entrypoint   | 0x0000  |
| Data Size    | 1 bytes |
| Instructions | 1       |

```
      00 01 02 03 04 05 06 07  08 09 0A 0B 0C 0D 0E 0F
      -- -- -- -- -- -- -- --  -- -- -- -- -- -- -- --
0000: 00                                                .               
```

#### Opcodes

```
  0: 0x0000 [0x00] END_REQSTACK()
```

### Event 118

#### Metadata

| Field        | Value      |
|--------------|------------|
| Entrypoint   | 0x0001     |
| Data Size    | 1612 bytes |
| Instructions | 337        |

```
      00 01 02 03 04 05 06 07  08 09 0A 0B 0C 0D 0E 0F
      -- -- -- -- -- -- -- --  -- -- -- -- -- -- -- --
0000:    03 03 10 00 80 42 4E  00 75 62 0B 01 27 10 8F   .....BN.ub..'..
0010: 62 0B 01 02 92 01 8F 62  0B 01 94 01 8F 62 0B 01  b......b.....b..
0020: 29 10 8F 62 0B 01 12 29  10 8F 62 0B 01 13 80 8F  )..b...)..b.....
0030: 62 0B 01 6C 8F 62 0B 01  00 80 01 80 1C 01 80 BA  b..l.b..........
0040: 8F 62 0B 01 02 80 03 80  04 80 05 80 1C 06 80 4A  .b.............J
0050: F0 FF FF 7F 8F 62 0B 01  BB 07 80 8F 62 0B 01 8F  .....b......b...
0060: 62 0B 01 6D 61 69 6E 00  80 1C 08 80 4A 8F 62 0B  b..main.....J.b.
0070: 01 F0 FF FF 7F 2B 8F 62  0B 01 09 80 23 2B 8F 62  .....+.b....#+.b
0080: 0B 01 0A 80 23 02 02 10  00 80 00 9D 00 2B 8F 62  ....#........+.b
0090: 0B 01 0B 80 23 2B 8F 62  0B 01 0C 80 23 2B 8F 62  ....#+.b....#+.b
00A0: 0B 01 0D 80 23 2B 8F 62  0B 01 0E 80 23 2B 8F 62  ....#+.b....#+.b
00B0: 0B 01 0F 80 23 2B 8F 62  0B 01 10 80 23 02 02 10  ....#+.b....#...
00C0: 00 80 00 C8 00 01 D0 00  2B 8F 62 0B 01 11 80 23  ........+.b....#
00D0: 2B 8F 62 0B 01 12 80 23  2B 8F 62 0B 01 13 80 23  +.b....#+.b....#
00E0: 2B 8F 62 0B 01 14 80 23  24 15 80 01 80 00 80 25  +.b....#$......%
00F0: 02 00 10 00 80 00 2A 06  02 02 10 00 80 00 13 01  ......*.........
0100: 2B 8F 62 0B 01 16 80 23  2B 8F 62 0B 01 17 80 23  +.b....#+.b....#
0110: 01 33 01 2B 8F 62 0B 01  18 80 23 2B 8F 62 0B 01  .3.+.b....#+.b..
0120: 19 80 23 2B 8F 62 0B 01  1A 80 23 2B 8F 62 0B 01  ..#+.b....#+.b..
0130: 1B 80 23 2B 8F 62 0B 01  1C 80 23 2B 8F 62 0B 01  ..#+.b....#+.b..
0140: 1D 80 23 2B 8F 62 0B 01  1E 80 23 2B 8F 62 0B 01  ..#+.b....#+.b..
0150: 1F 80 23 24 20 80 00 80  00 80 25 02 00 10 00 80  ..#$ .....%.....
0160: 00 B1 01 03 02 10 00 80  2B 8F 62 0B 01 21 80 23  ........+.b..!.#
0170: 24 22 80 01 80 00 80 25  02 00 10 00 80 00 98 01  $".....%........
0180: 2B 8F 62 0B 01 23 80 23  2B 8F 62 0B 01 24 80 23  +.b..#.#+.b..$.#
0190: 03 01 10 25 80 01 AE 01  02 00 10 01 80 00 AE 01  ...%............
01A0: 2B 8F 62 0B 01 26 80 23  01 4B 01 01 AE 01 01 27  +.b..&.#.K.....'
01B0: 06 02 00 10 01 80 00 07  02 03 02 10 01 80 2B 8F  ..............+.
01C0: 62 0B 01 21 80 23 24 22  80 01 80 00 80 25 02 00  b..!.#$".....%..
01D0: 10 00 80 00 EE 01 2B 8F  62 0B 01 23 80 23 2B 8F  ......+.b..#.#+.
01E0: 62 0B 01 24 80 23 03 01  10 27 80 01 04 02 02 00  b..$.#...'......
01F0: 10 01 80 00 04 02 2B 8F  62 0B 01 26 80 23 01 4B  ......+.b..&.#.K
0200: 01 01 04 02 01 27 06 02  00 10 28 80 00 5D 02 03  .....'....(..]..
0210: 02 10 28 80 2B 8F 62 0B  01 21 80 23 24 22 80 01  ..(.+.b..!.#$"..
0220: 80 00 80 25 02 00 10 00  80 00 44 02 2B 8F 62 0B  ...%......D.+.b.
0230: 01 23 80 23 2B 8F 62 0B  01 24 80 23 03 01 10 29  .#.#+.b..$.#...)
0240: 80 01 5A 02 02 00 10 01  80 00 5A 02 2B 8F 62 0B  ..Z.......Z.+.b.
0250: 01 26 80 23 01 4B 01 01  5A 02 01 27 06 02 00 10  .&.#.K..Z..'....
0260: 2A 80 00 B3 02 03 02 10  2A 80 2B 8F 62 0B 01 21  *.......*.+.b..!
0270: 80 23 24 22 80 01 80 00  80 25 02 00 10 00 80 00  .#$".....%......
0280: 9A 02 2B 8F 62 0B 01 23  80 23 2B 8F 62 0B 01 24  ..+.b..#.#+.b..$
0290: 80 23 03 01 10 2B 80 01  B0 02 02 00 10 01 80 00  .#...+..........
02A0: B0 02 2B 8F 62 0B 01 26  80 23 01 4B 01 01 B0 02  ..+.b..&.#.K....
02B0: 01 27 06 02 00 10 2C 80  00 09 03 03 02 10 2C 80  .'....,.......,.
02C0: 2B 8F 62 0B 01 21 80 23  24 22 80 01 80 00 80 25  +.b..!.#$".....%
02D0: 02 00 10 00 80 00 F0 02  2B 8F 62 0B 01 23 80 23  ........+.b..#.#
02E0: 2B 8F 62 0B 01 24 80 23  03 01 10 2D 80 01 06 03  +.b..$.#...-....
02F0: 02 00 10 01 80 00 06 03  2B 8F 62 0B 01 26 80 23  ........+.b..&.#
0300: 01 4B 01 01 06 03 01 27  06 02 00 10 2E 80 00 5F  .K.....'......._
0310: 03 03 02 10 2E 80 2B 8F  62 0B 01 21 80 23 24 22  ......+.b..!.#$"
0320: 80 01 80 00 80 25 02 00  10 00 80 00 46 03 2B 8F  .....%......F.+.
0330: 62 0B 01 23 80 23 2B 8F  62 0B 01 24 80 23 03 01  b..#.#+.b..$.#..
0340: 10 2F 80 01 5C 03 02 00  10 01 80 00 5C 03 2B 8F  ./..\.......\.+.
0350: 62 0B 01 26 80 23 01 4B  01 01 5C 03 01 27 06 02  b..&.#.K..\..'..
0360: 00 10 30 80 00 B5 03 03  02 10 30 80 2B 8F 62 0B  ..0.......0.+.b.
0370: 01 21 80 23 24 22 80 01  80 00 80 25 02 00 10 00  .!.#$".....%....
0380: 80 00 9C 03 2B 8F 62 0B  01 23 80 23 2B 8F 62 0B  ....+.b..#.#+.b.
0390: 01 24 80 23 03 01 10 31  80 01 B2 03 02 00 10 01  .$.#...1........
03A0: 80 00 B2 03 2B 8F 62 0B  01 26 80 23 01 4B 01 01  ....+.b..&.#.K..
03B0: B2 03 01 27 06 02 00 10  32 80 00 0B 04 03 02 10  ...'....2.......
03C0: 32 80 2B 8F 62 0B 01 21  80 23 24 22 80 01 80 00  2.+.b..!.#$"....
03D0: 80 25 02 00 10 00 80 00  F2 03 2B 8F 62 0B 01 23  .%........+.b..#
03E0: 80 23 2B 8F 62 0B 01 24  80 23 03 01 10 33 80 01  .#+.b..$.#...3..
03F0: 08 04 02 00 10 01 80 00  08 04 2B 8F 62 0B 01 26  ..........+.b..&
0400: 80 23 01 4B 01 01 08 04  01 27 06 02 00 10 34 80  .#.K.....'....4.
0410: 00 61 04 03 02 10 34 80  2B 8F 62 0B 01 21 80 23  .a....4.+.b..!.#
0420: 24 22 80 01 80 00 80 25  02 00 10 00 80 00 48 04  $".....%......H.
0430: 2B 8F 62 0B 01 23 80 23  2B 8F 62 0B 01 24 80 23  +.b..#.#+.b..$.#
0440: 03 01 10 35 80 01 5E 04  02 00 10 01 80 00 5E 04  ...5..^.......^.
0450: 2B 8F 62 0B 01 26 80 23  01 4B 01 01 5E 04 01 27  +.b..&.#.K..^..'
0460: 06 02 00 10 36 80 00 B7  04 03 02 10 36 80 2B 8F  ....6.......6.+.
0470: 62 0B 01 21 80 23 24 22  80 01 80 00 80 25 02 00  b..!.#$".....%..
0480: 10 00 80 00 9E 04 2B 8F  62 0B 01 23 80 23 2B 8F  ......+.b..#.#+.
0490: 62 0B 01 24 80 23 03 01  10 37 80 01 B4 04 02 00  b..$.#...7......
04A0: 10 01 80 00 B4 04 2B 8F  62 0B 01 26 80 23 01 4B  ......+.b..&.#.K
04B0: 01 01 B4 04 01 27 06 02  00 10 38 80 00 0D 05 03  .....'....8.....
04C0: 02 10 38 80 2B 8F 62 0B  01 21 80 23 24 22 80 01  ..8.+.b..!.#$"..
04D0: 80 00 80 25 02 00 10 00  80 00 F4 04 2B 8F 62 0B  ...%........+.b.
04E0: 01 23 80 23 2B 8F 62 0B  01 24 80 23 03 01 10 39  .#.#+.b..$.#...9
04F0: 80 01 0A 05 02 00 10 01  80 00 0A 05 2B 8F 62 0B  ............+.b.
0500: 01 26 80 23 01 4B 01 01  0A 05 01 27 06 02 00 10  .&.#.K.....'....
0510: 3A 80 00 63 05 03 02 10  3A 80 2B 8F 62 0B 01 21  :..c....:.+.b..!
0520: 80 23 24 22 80 01 80 00  80 25 02 00 10 00 80 00  .#$".....%......
0530: 4A 05 2B 8F 62 0B 01 23  80 23 2B 8F 62 0B 01 24  J.+.b..#.#+.b..$
0540: 80 23 03 01 10 3B 80 01  60 05 02 00 10 01 80 00  .#...;..`.......
0550: 60 05 2B 8F 62 0B 01 26  80 23 01 4B 01 01 60 05  `.+.b..&.#.K..`.
0560: 01 27 06 02 00 10 3C 80  00 B9 05 03 02 10 3C 80  .'....<.......<.
0570: 2B 8F 62 0B 01 21 80 23  24 22 80 01 80 00 80 25  +.b..!.#$".....%
0580: 02 00 10 00 80 00 A0 05  2B 8F 62 0B 01 23 80 23  ........+.b..#.#
0590: 2B 8F 62 0B 01 24 80 23  03 01 10 3D 80 01 B6 05  +.b..$.#...=....
05A0: 02 00 10 01 80 00 B6 05  2B 8F 62 0B 01 26 80 23  ........+.b..&.#
05B0: 01 4B 01 01 B6 05 01 27  06 02 00 10 3E 80 00 0F  .K.....'....>...
05C0: 06 03 02 10 3E 80 2B 8F  62 0B 01 21 80 23 24 22  ....>.+.b..!.#$"
05D0: 80 01 80 00 80 25 02 00  10 00 80 00 F6 05 2B 8F  .....%........+.
05E0: 62 0B 01 23 80 23 2B 8F  62 0B 01 24 80 23 03 01  b..#.#+.b..$.#..
05F0: 10 3F 80 01 0C 06 02 00  10 01 80 00 0C 06 2B 8F  .?............+.
0600: 62 0B 01 26 80 23 01 4B  01 01 0C 06 01 27 06 02  b..&.#.K.....'..
0610: 00 10 40 80 00 27 06 2B  8F 62 0B 01 41 80 23 03  ..@..'.+.b..A.#.
0620: 01 10 01 80 01 27 06 01  42 06 02 00 10 01 80 00  .....'..B.......
0630: 42 06 2B 8F 62 0B 01 42  80 23 03 01 10 00 80 01  B.+.b..B.#......
0640: 42 06 6C 8F 62 0B 01 00  80 43 80 21 00           B.l.b....C.!.   
```

#### Opcodes

```
  0: 0x0001 [0x03] Work_Zone[3] = 0*
  1: 0x0006 [0x42] SET_CLI_EVENT_CANCEL_DATA()
  2: 0x0007 [0x4E] SET_ENTITY_HIDE_FLAG: Show Unnamed NPC (ID: 17523317/0x010B6275)
  3: 0x000D [0x27] REQ_SET(priority=0x10, entity_id=Unnamed NPC (ID: 17523343/0x010B628F), tag_num=0x02)
  4: 0x0014 [0x92] Unnamed NPC (ID: 17523343/0x010B628F)->Render.Flags3 ^= 0x01
  5: 0x001A [0x94] Unnamed NPC (ID: 17523343/0x010B628F)->Render.Flags3 ^= 0x01
  6: 0x0020 [0x29] REQ_SET_WAIT(priority=0x10, entity_id=Unnamed NPC (ID: 17523343/0x010B628F), tag_num=0x12)
  7: 0x0027 [0x29] REQ_SET_WAIT(priority=0x10, entity_id=Unnamed NPC (ID: 17523343/0x010B628F), tag_num=0x13)
  8: 0x002E [0x80] LOAD_WAIT(entity=Unnamed NPC (ID: 17523343/0x010B628F))
  9: 0x0033 [0x6C] FADE_ENTITY_COLOR(entity_id=Unnamed NPC (ID: 17523343/0x010B628F), end_alpha=0*, fade_time=1*)
 10: 0x003C [0x1C] WAIT(1* ticks)
 11: 0x003F [0xBA] SET_ENTITY_POSITION(entity_id=Unnamed NPC (ID: 17523343/0x010B628F), pos_x=-420.000*, pos_z=7.000*, pos_y=10.000*, direction=90.0°*)
 12: 0x004C [0x1C] WAIT(30* ticks)
 13: 0x004F [0x4A] LocalPlayer looks at Unnamed NPC (ID: 17523343/0x010B628F)
 14: 0x0058 [0xBB] LOAD_EVENT_SCHEDULER_ALT: Load scheduler "main" with entities [Unnamed NPC (ID: 17523343/0x010B628F), Unnamed NPC (ID: 17523343/0x010B628F)], work=[121*, 0*]
 15: 0x0069 [0x1C] WAIT(120* ticks)
 16: 0x006C [0x4A] Unnamed NPC (ID: 17523343/0x010B628F) looks at LocalPlayer
 17: 0x0075 [0x2B] Unnamed NPC (ID: 17523343/0x010B628F) [8050*]:
    → "Gadzooks! I should have known that such an imposing force of incomprehensible puissance could only originate from thee, <Player>."
 18: 0x007C [0x23] WAIT_FOR_DIALOG_INTERACTION
 19: 0x007D [0x2B] Unnamed NPC (ID: 17523343/0x010B628F) [8051*]:
    → "Hist... Do mine eyes deceive me...or is that forsooth an Empyrean weapon, kupo?"
 20: 0x0084 [0x23] WAIT_FOR_DIALOG_INTERACTION
 21: 0x0085 [0x02] IF !(Work_Zone[2] == 0*) GOTO 0x009D
 22: 0x008D [0x2B] Unnamed NPC (ID: 17523343/0x010B628F) [8052*]:
    → "Meseems I've gotten ahead of myself. For a moment, exorbitant amounts of excitement pumped palpably betwixt and between the chambers of my heart."
 23: 0x0094 [0x23] WAIT_FOR_DIALOG_INTERACTION
 24: 0x0095 [0x2B] Unnamed NPC (ID: 17523343/0x010B628F) [8053*]:
    → "Howbeit, thy perseverance shocks me, kupo. To obtain such a specimen is no easy feat."
 25: 0x009C [0x23] WAIT_FOR_DIALOG_INTERACTION
 26: 0x009D [0x2B] Unnamed NPC (ID: 17523343/0x010B628F) [8054*]:
    → "Hmmm..."
 27: 0x00A4 [0x23] WAIT_FOR_DIALOG_INTERACTION
 28: 0x00A5 [0x2B] Unnamed NPC (ID: 17523343/0x010B628F) [8055*]:
    → "I reckoned this day would come from the moment I sensed thou hadst harnessed the tablets' powers, kupo."
 29: 0x00AC [0x23] WAIT_FOR_DIALOG_INTERACTION
 30: 0x00AD [0x2B] Unnamed NPC (ID: 17523343/0x010B628F) [8056*]:
    → "Aye, this torrent of diction has been brewing in my belly for moons multitudinous, and now the time has come to unleash it upon thee."
 31: 0x00B4 [0x23] WAIT_FOR_DIALOG_INTERACTION
 32: 0x00B5 [0x2B] Unnamed NPC (ID: 17523343/0x010B628F) [8057*]:
    → "What I hope I have already made abundantly clear is that thy weapon holdeth within itself a dynamism, kupo."
 33: 0x00BC [0x23] WAIT_FOR_DIALOG_INTERACTION
 34: 0x00BD [0x02] IF !(Work_Zone[2] == 0*) GOTO 0x00C8
 35: 0x00C5 [0x01] GOTO 0x00D0
 36: 0x00C8 [0x2B] Unnamed NPC (ID: 17523343/0x010B628F) [8058*]:
    → "What? Thou wishest for a more corporeal description? So it shall be, kupo. Parfay, the force is strong enough to cast off all darkness that could ever threaten to enshroud Vana'diel."
 37: 0x00CF [0x23] WAIT_FOR_DIALOG_INTERACTION

SUBROUTINE_00D0:
 38: 0x00D0 [0x2B] Unnamed NPC (ID: 17523343/0x010B628F) [8059*]:
    → "The rub is that it may only be channeled via a conduit. Without the physical weapon, 'tis naught but an abstract concept upon which scholars speculate, kupo."
 39: 0x00D7 [0x23] WAIT_FOR_DIALOG_INTERACTION
 40: 0x00D8 [0x2B] Unnamed NPC (ID: 17523343/0x010B628F) [8060*]:
    → "...Erewhile, that is."
 41: 0x00DF [0x23] WAIT_FOR_DIALOG_INTERACTION
 42: 0x00E0 [0x2B] Unnamed NPC (ID: 17523343/0x010B628F) [8061*]:
    → "Shouldst thou desire, I can transplant that dynamism into thee. It shall course through thy veins, and summoning it would be as simple as seeing a sweven. Doth this interest thee to any extent?"
 43: 0x00E7 [0x23] WAIT_FOR_DIALOG_INTERACTION
 44: 0x00E8 [0x24] CREATE_DIALOG(message_id=8062*, default_option=1*, option_flags=0*)
    → "Does it interest you? [Yes! Give me the power!/Not at the moment.]"
 45: 0x00EF [0x25] WAIT_DIALOG_SELECT()
 46: 0x00F0 [0x02] IF !(Work_Zone[0] == 0*) GOTO 0x062A
 47: 0x00F8 [0x02] IF !(Work_Zone[2] == 0*) GOTO 0x0113
 48: 0x0100 [0x2B] Unnamed NPC (ID: 17523343/0x010B628F) [8064*]:
    → "By the mysterious moogle magic that mills about inside me, I call the transposition to commencement, kupo!"
 49: 0x0107 [0x23] WAIT_FOR_DIALOG_INTERACTION
 50: 0x0108 [0x2B] Unnamed NPC (ID: 17523343/0x010B628F) [8065*]:
    → "...Didst thou know, peradventure, that the power of which I speak is cleped "weapon skill" in thy vernacular? I want no misunderstandings before progressing with the procedure."
 51: 0x010F [0x23] WAIT_FOR_DIALOG_INTERACTION
 52: 0x0110 [0x01] GOTO 0x0133
 53: 0x0113 [0x2B] Unnamed NPC (ID: 17523343/0x010B628F) [8066*]:
    → "By the mysterious moogle magic that meanders through me, I call the transposition to commencement, kupo!"
 54: 0x011A [0x23] WAIT_FOR_DIALOG_INTERACTION
 55: 0x011B [0x2B] Unnamed NPC (ID: 17523343/0x010B628F) [8067*]:
    → "Before we begin, I must needs inform thee that not all the vessel's power may be transferred."
 56: 0x0122 [0x23] WAIT_FOR_DIALOG_INTERACTION
 57: 0x0123 [0x2B] Unnamed NPC (ID: 17523343/0x010B628F) [8068*]:
    → "That fearsome phenomenon ye adventurers term "aftermath" would, as its name implies, rend thy armament asunder should it be removed, kupo."
 58: 0x012A [0x23] WAIT_FOR_DIALOG_INTERACTION
 59: 0x012B [0x2B] Unnamed NPC (ID: 17523343/0x010B628F) [8069*]:
    → "Thus, I can only transpose the aspect oft cleped "weapon skill" in thy vernacular."
 60: 0x0132 [0x23] WAIT_FOR_DIALOG_INTERACTION

SUBROUTINE_0133:
 61: 0x0133 [0x2B] Unnamed NPC (ID: 17523343/0x010B628F) [8070*]:
    → "Now that I have dispensed with the disclaimer, 'tis time to traipse onward toward matters of more import, kupo."
 62: 0x013A [0x23] WAIT_FOR_DIALOG_INTERACTION
 63: 0x013B [0x2B] Unnamed NPC (ID: 17523343/0x010B628F) [8071*]:
    → "The mysterious moogle magic I must employ differs depending on the weapon and the skill that accompanies it. In accordance, thou must needs select an appropriate armament from which to extract its essence."
 64: 0x0142 [0x23] WAIT_FOR_DIALOG_INTERACTION
 65: 0x0143 [0x2B] Unnamed NPC (ID: 17523343/0x010B628F) [8072*]:
    → "Eftsoons thy request hast been spoke, I shall set about making the requisite preparations, kupo."
 66: 0x014A [0x23] WAIT_FOR_DIALOG_INTERACTION

SUBROUTINE_014B:
 67: 0x014B [0x2B] Unnamed NPC (ID: 17523343/0x010B628F) [8073*]:
    → "Designate thy desire, kupo."
 68: 0x0152 [0x23] WAIT_FOR_DIALOG_INTERACTION
 69: 0x0153 [0x24] CREATE_DIALOG(message_id=8074*, default_option=0*, option_flags=0*)
    → "Which skill set shalt thou select? [Hand-to-hand./Dagger./Sword./Great Sword./Axe./Great Axe./Scythe./Polearm./Katana./Great Katana./Club./Staff./Archery./Marksmanship./None for the nonce.]"
 70: 0x015A [0x25] WAIT_DIALOG_SELECT()
 71: 0x015B [0x02] IF !(Work_Zone[0] == 0*) GOTO 0x01B1
 72: 0x0163 [0x03] Work_Zone[2] = 0*
 73: 0x0168 [0x2B] Unnamed NPC (ID: 17523343/0x010B628F) [8076*]:
    → "Dost thou soothly wish to transpose the power inherent within thy [hand-to-hand haranguer/dagger/sword/great sword/axe/great axe/scythe/polearm/katana/great katana/club/staff/archery armament/marksmanship mechanism]?"
 74: 0x016F [0x23] WAIT_FOR_DIALOG_INTERACTION
 75: 0x0170 [0x24] CREATE_DIALOG(message_id=8077*, default_option=1*, option_flags=0*)
    → "Is this the one? [Verily./Nay.]"
 76: 0x0177 [0x25] WAIT_DIALOG_SELECT()
 77: 0x0178 [0x02] IF !(Work_Zone[0] == 0*) GOTO 0x0198
 78: 0x0180 [0x2B] Unnamed NPC (ID: 17523343/0x010B628F) [8078*]:
    → "Understood! Whether through wanion or want, thou hast chosen thy [hand-to-hand haranguer/dagger/sword/great sword/axe/great axe/scythe/polearm/katana/great katana/club/staff/archery armament/marksmanship mechanism], kupo."
 79: 0x0187 [0x23] WAIT_FOR_DIALOG_INTERACTION
 80: 0x0188 [0x2B] Unnamed NPC (ID: 17523343/0x010B628F) [8079*]:
    → "Should this precious piece of warwaging wonder reside in thy satchel, I beseech thee bequeath it to me anon. If not, I shall wait until time immemorial for thy return, kupo."
 81: 0x018F [0x23] WAIT_FOR_DIALOG_INTERACTION
 82: 0x0190 [0x03] Work_Zone[1] = 16*
 83: 0x0195 [0x01] GOTO 0x01AE
 84: 0x0198 [0x02] IF !(Work_Zone[0] == 1*) GOTO 0x01AE
 85: 0x01A0 [0x2B] Unnamed NPC (ID: 17523343/0x010B628F) [8080*]:
    → "Yoicks! Have I made a mistake, kupo?"
 86: 0x01A7 [0x23] WAIT_FOR_DIALOG_INTERACTION
 87: 0x01A8 [0x01] GOTO 0x014B

SUBROUTINE_01AE:
 88: 0x01AE [0x01] GOTO 0x0627
 89: 0x01B1 [0x02] IF !(Work_Zone[0] == 1*) GOTO 0x0207
 90: 0x01B9 [0x03] Work_Zone[2] = 1*
 91: 0x01BE [0x2B] Unnamed NPC (ID: 17523343/0x010B628F) [8076*]:
    → "Dost thou soothly wish to transpose the power inherent within thy [hand-to-hand haranguer/dagger/sword/great sword/axe/great axe/scythe/polearm/katana/great katana/club/staff/archery armament/marksmanship mechanism]?"
 92: 0x01C5 [0x23] WAIT_FOR_DIALOG_INTERACTION
 93: 0x01C6 [0x24] CREATE_DIALOG(message_id=8077*, default_option=1*, option_flags=0*)
    → "Is this the one? [Verily./Nay.]"
 94: 0x01CD [0x25] WAIT_DIALOG_SELECT()
 95: 0x01CE [0x02] IF !(Work_Zone[0] == 0*) GOTO 0x01EE
 96: 0x01D6 [0x2B] Unnamed NPC (ID: 17523343/0x010B628F) [8078*]:
    → "Understood! Whether through wanion or want, thou hast chosen thy [hand-to-hand haranguer/dagger/sword/great sword/axe/great axe/scythe/polearm/katana/great katana/club/staff/archery armament/marksmanship mechanism], kupo."
 97: 0x01DD [0x23] WAIT_FOR_DIALOG_INTERACTION
 98: 0x01DE [0x2B] Unnamed NPC (ID: 17523343/0x010B628F) [8079*]:
    → "Should this precious piece of warwaging wonder reside in thy satchel, I beseech thee bequeath it to me anon. If not, I shall wait until time immemorial for thy return, kupo."
 99: 0x01E5 [0x23] WAIT_FOR_DIALOG_INTERACTION
100: 0x01E6 [0x03] Work_Zone[1] = 17*
101: 0x01EB [0x01] GOTO 0x0204
102: 0x01EE [0x02] IF !(Work_Zone[0] == 1*) GOTO 0x0204
103: 0x01F6 [0x2B] Unnamed NPC (ID: 17523343/0x010B628F) [8080*]:
    → "Yoicks! Have I made a mistake, kupo?"
104: 0x01FD [0x23] WAIT_FOR_DIALOG_INTERACTION
105: 0x01FE [0x01] GOTO 0x014B

SUBROUTINE_0204:
106: 0x0204 [0x01] GOTO 0x0627
107: 0x0207 [0x02] IF !(Work_Zone[0] == 2*) GOTO 0x025D
108: 0x020F [0x03] Work_Zone[2] = 2*
109: 0x0214 [0x2B] Unnamed NPC (ID: 17523343/0x010B628F) [8076*]:
    → "Dost thou soothly wish to transpose the power inherent within thy [hand-to-hand haranguer/dagger/sword/great sword/axe/great axe/scythe/polearm/katana/great katana/club/staff/archery armament/marksmanship mechanism]?"
110: 0x021B [0x23] WAIT_FOR_DIALOG_INTERACTION
111: 0x021C [0x24] CREATE_DIALOG(message_id=8077*, default_option=1*, option_flags=0*)
    → "Is this the one? [Verily./Nay.]"
112: 0x0223 [0x25] WAIT_DIALOG_SELECT()
113: 0x0224 [0x02] IF !(Work_Zone[0] == 0*) GOTO 0x0244
114: 0x022C [0x2B] Unnamed NPC (ID: 17523343/0x010B628F) [8078*]:
    → "Understood! Whether through wanion or want, thou hast chosen thy [hand-to-hand haranguer/dagger/sword/great sword/axe/great axe/scythe/polearm/katana/great katana/club/staff/archery armament/marksmanship mechanism], kupo."
115: 0x0233 [0x23] WAIT_FOR_DIALOG_INTERACTION
116: 0x0234 [0x2B] Unnamed NPC (ID: 17523343/0x010B628F) [8079*]:
    → "Should this precious piece of warwaging wonder reside in thy satchel, I beseech thee bequeath it to me anon. If not, I shall wait until time immemorial for thy return, kupo."
117: 0x023B [0x23] WAIT_FOR_DIALOG_INTERACTION
118: 0x023C [0x03] Work_Zone[1] = 18*
119: 0x0241 [0x01] GOTO 0x025A
120: 0x0244 [0x02] IF !(Work_Zone[0] == 1*) GOTO 0x025A
121: 0x024C [0x2B] Unnamed NPC (ID: 17523343/0x010B628F) [8080*]:
    → "Yoicks! Have I made a mistake, kupo?"
122: 0x0253 [0x23] WAIT_FOR_DIALOG_INTERACTION
123: 0x0254 [0x01] GOTO 0x014B

SUBROUTINE_025A:
124: 0x025A [0x01] GOTO 0x0627
125: 0x025D [0x02] IF !(Work_Zone[0] == 3*) GOTO 0x02B3
126: 0x0265 [0x03] Work_Zone[2] = 3*
127: 0x026A [0x2B] Unnamed NPC (ID: 17523343/0x010B628F) [8076*]:
    → "Dost thou soothly wish to transpose the power inherent within thy [hand-to-hand haranguer/dagger/sword/great sword/axe/great axe/scythe/polearm/katana/great katana/club/staff/archery armament/marksmanship mechanism]?"
128: 0x0271 [0x23] WAIT_FOR_DIALOG_INTERACTION
129: 0x0272 [0x24] CREATE_DIALOG(message_id=8077*, default_option=1*, option_flags=0*)
    → "Is this the one? [Verily./Nay.]"
130: 0x0279 [0x25] WAIT_DIALOG_SELECT()
131: 0x027A [0x02] IF !(Work_Zone[0] == 0*) GOTO 0x029A
132: 0x0282 [0x2B] Unnamed NPC (ID: 17523343/0x010B628F) [8078*]:
    → "Understood! Whether through wanion or want, thou hast chosen thy [hand-to-hand haranguer/dagger/sword/great sword/axe/great axe/scythe/polearm/katana/great katana/club/staff/archery armament/marksmanship mechanism], kupo."
133: 0x0289 [0x23] WAIT_FOR_DIALOG_INTERACTION
134: 0x028A [0x2B] Unnamed NPC (ID: 17523343/0x010B628F) [8079*]:
    → "Should this precious piece of warwaging wonder reside in thy satchel, I beseech thee bequeath it to me anon. If not, I shall wait until time immemorial for thy return, kupo."
135: 0x0291 [0x23] WAIT_FOR_DIALOG_INTERACTION
136: 0x0292 [0x03] Work_Zone[1] = 19*
137: 0x0297 [0x01] GOTO 0x02B0
138: 0x029A [0x02] IF !(Work_Zone[0] == 1*) GOTO 0x02B0
139: 0x02A2 [0x2B] Unnamed NPC (ID: 17523343/0x010B628F) [8080*]:
    → "Yoicks! Have I made a mistake, kupo?"
140: 0x02A9 [0x23] WAIT_FOR_DIALOG_INTERACTION
141: 0x02AA [0x01] GOTO 0x014B

SUBROUTINE_02B0:
142: 0x02B0 [0x01] GOTO 0x0627
143: 0x02B3 [0x02] IF !(Work_Zone[0] == 4*) GOTO 0x0309
144: 0x02BB [0x03] Work_Zone[2] = 4*
145: 0x02C0 [0x2B] Unnamed NPC (ID: 17523343/0x010B628F) [8076*]:
    → "Dost thou soothly wish to transpose the power inherent within thy [hand-to-hand haranguer/dagger/sword/great sword/axe/great axe/scythe/polearm/katana/great katana/club/staff/archery armament/marksmanship mechanism]?"
146: 0x02C7 [0x23] WAIT_FOR_DIALOG_INTERACTION
147: 0x02C8 [0x24] CREATE_DIALOG(message_id=8077*, default_option=1*, option_flags=0*)
    → "Is this the one? [Verily./Nay.]"
148: 0x02CF [0x25] WAIT_DIALOG_SELECT()
149: 0x02D0 [0x02] IF !(Work_Zone[0] == 0*) GOTO 0x02F0
150: 0x02D8 [0x2B] Unnamed NPC (ID: 17523343/0x010B628F) [8078*]:
    → "Understood! Whether through wanion or want, thou hast chosen thy [hand-to-hand haranguer/dagger/sword/great sword/axe/great axe/scythe/polearm/katana/great katana/club/staff/archery armament/marksmanship mechanism], kupo."
151: 0x02DF [0x23] WAIT_FOR_DIALOG_INTERACTION
152: 0x02E0 [0x2B] Unnamed NPC (ID: 17523343/0x010B628F) [8079*]:
    → "Should this precious piece of warwaging wonder reside in thy satchel, I beseech thee bequeath it to me anon. If not, I shall wait until time immemorial for thy return, kupo."
153: 0x02E7 [0x23] WAIT_FOR_DIALOG_INTERACTION
154: 0x02E8 [0x03] Work_Zone[1] = 20*
155: 0x02ED [0x01] GOTO 0x0306
156: 0x02F0 [0x02] IF !(Work_Zone[0] == 1*) GOTO 0x0306
157: 0x02F8 [0x2B] Unnamed NPC (ID: 17523343/0x010B628F) [8080*]:
    → "Yoicks! Have I made a mistake, kupo?"
158: 0x02FF [0x23] WAIT_FOR_DIALOG_INTERACTION
159: 0x0300 [0x01] GOTO 0x014B

SUBROUTINE_0306:
160: 0x0306 [0x01] GOTO 0x0627
161: 0x0309 [0x02] IF !(Work_Zone[0] == 5*) GOTO 0x035F
162: 0x0311 [0x03] Work_Zone[2] = 5*
163: 0x0316 [0x2B] Unnamed NPC (ID: 17523343/0x010B628F) [8076*]:
    → "Dost thou soothly wish to transpose the power inherent within thy [hand-to-hand haranguer/dagger/sword/great sword/axe/great axe/scythe/polearm/katana/great katana/club/staff/archery armament/marksmanship mechanism]?"
164: 0x031D [0x23] WAIT_FOR_DIALOG_INTERACTION
165: 0x031E [0x24] CREATE_DIALOG(message_id=8077*, default_option=1*, option_flags=0*)
    → "Is this the one? [Verily./Nay.]"
166: 0x0325 [0x25] WAIT_DIALOG_SELECT()
167: 0x0326 [0x02] IF !(Work_Zone[0] == 0*) GOTO 0x0346
168: 0x032E [0x2B] Unnamed NPC (ID: 17523343/0x010B628F) [8078*]:
    → "Understood! Whether through wanion or want, thou hast chosen thy [hand-to-hand haranguer/dagger/sword/great sword/axe/great axe/scythe/polearm/katana/great katana/club/staff/archery armament/marksmanship mechanism], kupo."
169: 0x0335 [0x23] WAIT_FOR_DIALOG_INTERACTION
170: 0x0336 [0x2B] Unnamed NPC (ID: 17523343/0x010B628F) [8079*]:
    → "Should this precious piece of warwaging wonder reside in thy satchel, I beseech thee bequeath it to me anon. If not, I shall wait until time immemorial for thy return, kupo."
171: 0x033D [0x23] WAIT_FOR_DIALOG_INTERACTION
172: 0x033E [0x03] Work_Zone[1] = 21*
173: 0x0343 [0x01] GOTO 0x035C
174: 0x0346 [0x02] IF !(Work_Zone[0] == 1*) GOTO 0x035C
175: 0x034E [0x2B] Unnamed NPC (ID: 17523343/0x010B628F) [8080*]:
    → "Yoicks! Have I made a mistake, kupo?"
176: 0x0355 [0x23] WAIT_FOR_DIALOG_INTERACTION
177: 0x0356 [0x01] GOTO 0x014B

SUBROUTINE_035C:
178: 0x035C [0x01] GOTO 0x0627
179: 0x035F [0x02] IF !(Work_Zone[0] == 6*) GOTO 0x03B5
180: 0x0367 [0x03] Work_Zone[2] = 6*
181: 0x036C [0x2B] Unnamed NPC (ID: 17523343/0x010B628F) [8076*]:
    → "Dost thou soothly wish to transpose the power inherent within thy [hand-to-hand haranguer/dagger/sword/great sword/axe/great axe/scythe/polearm/katana/great katana/club/staff/archery armament/marksmanship mechanism]?"
182: 0x0373 [0x23] WAIT_FOR_DIALOG_INTERACTION
183: 0x0374 [0x24] CREATE_DIALOG(message_id=8077*, default_option=1*, option_flags=0*)
    → "Is this the one? [Verily./Nay.]"
184: 0x037B [0x25] WAIT_DIALOG_SELECT()
185: 0x037C [0x02] IF !(Work_Zone[0] == 0*) GOTO 0x039C
186: 0x0384 [0x2B] Unnamed NPC (ID: 17523343/0x010B628F) [8078*]:
    → "Understood! Whether through wanion or want, thou hast chosen thy [hand-to-hand haranguer/dagger/sword/great sword/axe/great axe/scythe/polearm/katana/great katana/club/staff/archery armament/marksmanship mechanism], kupo."
187: 0x038B [0x23] WAIT_FOR_DIALOG_INTERACTION
188: 0x038C [0x2B] Unnamed NPC (ID: 17523343/0x010B628F) [8079*]:
    → "Should this precious piece of warwaging wonder reside in thy satchel, I beseech thee bequeath it to me anon. If not, I shall wait until time immemorial for thy return, kupo."
189: 0x0393 [0x23] WAIT_FOR_DIALOG_INTERACTION
190: 0x0394 [0x03] Work_Zone[1] = 22*
191: 0x0399 [0x01] GOTO 0x03B2
192: 0x039C [0x02] IF !(Work_Zone[0] == 1*) GOTO 0x03B2
193: 0x03A4 [0x2B] Unnamed NPC (ID: 17523343/0x010B628F) [8080*]:
    → "Yoicks! Have I made a mistake, kupo?"
194: 0x03AB [0x23] WAIT_FOR_DIALOG_INTERACTION
195: 0x03AC [0x01] GOTO 0x014B

SUBROUTINE_03B2:
196: 0x03B2 [0x01] GOTO 0x0627
197: 0x03B5 [0x02] IF !(Work_Zone[0] == 7*) GOTO 0x040B
198: 0x03BD [0x03] Work_Zone[2] = 7*
199: 0x03C2 [0x2B] Unnamed NPC (ID: 17523343/0x010B628F) [8076*]:
    → "Dost thou soothly wish to transpose the power inherent within thy [hand-to-hand haranguer/dagger/sword/great sword/axe/great axe/scythe/polearm/katana/great katana/club/staff/archery armament/marksmanship mechanism]?"
200: 0x03C9 [0x23] WAIT_FOR_DIALOG_INTERACTION
201: 0x03CA [0x24] CREATE_DIALOG(message_id=8077*, default_option=1*, option_flags=0*)
    → "Is this the one? [Verily./Nay.]"
202: 0x03D1 [0x25] WAIT_DIALOG_SELECT()
203: 0x03D2 [0x02] IF !(Work_Zone[0] == 0*) GOTO 0x03F2
204: 0x03DA [0x2B] Unnamed NPC (ID: 17523343/0x010B628F) [8078*]:
    → "Understood! Whether through wanion or want, thou hast chosen thy [hand-to-hand haranguer/dagger/sword/great sword/axe/great axe/scythe/polearm/katana/great katana/club/staff/archery armament/marksmanship mechanism], kupo."
205: 0x03E1 [0x23] WAIT_FOR_DIALOG_INTERACTION
206: 0x03E2 [0x2B] Unnamed NPC (ID: 17523343/0x010B628F) [8079*]:
    → "Should this precious piece of warwaging wonder reside in thy satchel, I beseech thee bequeath it to me anon. If not, I shall wait until time immemorial for thy return, kupo."
207: 0x03E9 [0x23] WAIT_FOR_DIALOG_INTERACTION
208: 0x03EA [0x03] Work_Zone[1] = 23*
209: 0x03EF [0x01] GOTO 0x0408
210: 0x03F2 [0x02] IF !(Work_Zone[0] == 1*) GOTO 0x0408
211: 0x03FA [0x2B] Unnamed NPC (ID: 17523343/0x010B628F) [8080*]:
    → "Yoicks! Have I made a mistake, kupo?"
212: 0x0401 [0x23] WAIT_FOR_DIALOG_INTERACTION
213: 0x0402 [0x01] GOTO 0x014B

SUBROUTINE_0408:
214: 0x0408 [0x01] GOTO 0x0627
215: 0x040B [0x02] IF !(Work_Zone[0] == 8*) GOTO 0x0461
216: 0x0413 [0x03] Work_Zone[2] = 8*
217: 0x0418 [0x2B] Unnamed NPC (ID: 17523343/0x010B628F) [8076*]:
    → "Dost thou soothly wish to transpose the power inherent within thy [hand-to-hand haranguer/dagger/sword/great sword/axe/great axe/scythe/polearm/katana/great katana/club/staff/archery armament/marksmanship mechanism]?"
218: 0x041F [0x23] WAIT_FOR_DIALOG_INTERACTION
219: 0x0420 [0x24] CREATE_DIALOG(message_id=8077*, default_option=1*, option_flags=0*)
    → "Is this the one? [Verily./Nay.]"
220: 0x0427 [0x25] WAIT_DIALOG_SELECT()
221: 0x0428 [0x02] IF !(Work_Zone[0] == 0*) GOTO 0x0448
222: 0x0430 [0x2B] Unnamed NPC (ID: 17523343/0x010B628F) [8078*]:
    → "Understood! Whether through wanion or want, thou hast chosen thy [hand-to-hand haranguer/dagger/sword/great sword/axe/great axe/scythe/polearm/katana/great katana/club/staff/archery armament/marksmanship mechanism], kupo."
223: 0x0437 [0x23] WAIT_FOR_DIALOG_INTERACTION
224: 0x0438 [0x2B] Unnamed NPC (ID: 17523343/0x010B628F) [8079*]:
    → "Should this precious piece of warwaging wonder reside in thy satchel, I beseech thee bequeath it to me anon. If not, I shall wait until time immemorial for thy return, kupo."
225: 0x043F [0x23] WAIT_FOR_DIALOG_INTERACTION
226: 0x0440 [0x03] Work_Zone[1] = 24*
227: 0x0445 [0x01] GOTO 0x045E
228: 0x0448 [0x02] IF !(Work_Zone[0] == 1*) GOTO 0x045E
229: 0x0450 [0x2B] Unnamed NPC (ID: 17523343/0x010B628F) [8080*]:
    → "Yoicks! Have I made a mistake, kupo?"
230: 0x0457 [0x23] WAIT_FOR_DIALOG_INTERACTION
231: 0x0458 [0x01] GOTO 0x014B

SUBROUTINE_045E:
232: 0x045E [0x01] GOTO 0x0627
233: 0x0461 [0x02] IF !(Work_Zone[0] == 9*) GOTO 0x04B7
234: 0x0469 [0x03] Work_Zone[2] = 9*
235: 0x046E [0x2B] Unnamed NPC (ID: 17523343/0x010B628F) [8076*]:
    → "Dost thou soothly wish to transpose the power inherent within thy [hand-to-hand haranguer/dagger/sword/great sword/axe/great axe/scythe/polearm/katana/great katana/club/staff/archery armament/marksmanship mechanism]?"
236: 0x0475 [0x23] WAIT_FOR_DIALOG_INTERACTION
237: 0x0476 [0x24] CREATE_DIALOG(message_id=8077*, default_option=1*, option_flags=0*)
    → "Is this the one? [Verily./Nay.]"
238: 0x047D [0x25] WAIT_DIALOG_SELECT()
239: 0x047E [0x02] IF !(Work_Zone[0] == 0*) GOTO 0x049E
240: 0x0486 [0x2B] Unnamed NPC (ID: 17523343/0x010B628F) [8078*]:
    → "Understood! Whether through wanion or want, thou hast chosen thy [hand-to-hand haranguer/dagger/sword/great sword/axe/great axe/scythe/polearm/katana/great katana/club/staff/archery armament/marksmanship mechanism], kupo."
241: 0x048D [0x23] WAIT_FOR_DIALOG_INTERACTION
242: 0x048E [0x2B] Unnamed NPC (ID: 17523343/0x010B628F) [8079*]:
    → "Should this precious piece of warwaging wonder reside in thy satchel, I beseech thee bequeath it to me anon. If not, I shall wait until time immemorial for thy return, kupo."
243: 0x0495 [0x23] WAIT_FOR_DIALOG_INTERACTION
244: 0x0496 [0x03] Work_Zone[1] = 25*
245: 0x049B [0x01] GOTO 0x04B4
246: 0x049E [0x02] IF !(Work_Zone[0] == 1*) GOTO 0x04B4
247: 0x04A6 [0x2B] Unnamed NPC (ID: 17523343/0x010B628F) [8080*]:
    → "Yoicks! Have I made a mistake, kupo?"
248: 0x04AD [0x23] WAIT_FOR_DIALOG_INTERACTION
249: 0x04AE [0x01] GOTO 0x014B

SUBROUTINE_04B4:
250: 0x04B4 [0x01] GOTO 0x0627
251: 0x04B7 [0x02] IF !(Work_Zone[0] == 10*) GOTO 0x050D
252: 0x04BF [0x03] Work_Zone[2] = 10*
253: 0x04C4 [0x2B] Unnamed NPC (ID: 17523343/0x010B628F) [8076*]:
    → "Dost thou soothly wish to transpose the power inherent within thy [hand-to-hand haranguer/dagger/sword/great sword/axe/great axe/scythe/polearm/katana/great katana/club/staff/archery armament/marksmanship mechanism]?"
254: 0x04CB [0x23] WAIT_FOR_DIALOG_INTERACTION
255: 0x04CC [0x24] CREATE_DIALOG(message_id=8077*, default_option=1*, option_flags=0*)
    → "Is this the one? [Verily./Nay.]"
256: 0x04D3 [0x25] WAIT_DIALOG_SELECT()
257: 0x04D4 [0x02] IF !(Work_Zone[0] == 0*) GOTO 0x04F4
258: 0x04DC [0x2B] Unnamed NPC (ID: 17523343/0x010B628F) [8078*]:
    → "Understood! Whether through wanion or want, thou hast chosen thy [hand-to-hand haranguer/dagger/sword/great sword/axe/great axe/scythe/polearm/katana/great katana/club/staff/archery armament/marksmanship mechanism], kupo."
259: 0x04E3 [0x23] WAIT_FOR_DIALOG_INTERACTION
260: 0x04E4 [0x2B] Unnamed NPC (ID: 17523343/0x010B628F) [8079*]:
    → "Should this precious piece of warwaging wonder reside in thy satchel, I beseech thee bequeath it to me anon. If not, I shall wait until time immemorial for thy return, kupo."
261: 0x04EB [0x23] WAIT_FOR_DIALOG_INTERACTION
262: 0x04EC [0x03] Work_Zone[1] = 26*
263: 0x04F1 [0x01] GOTO 0x050A
264: 0x04F4 [0x02] IF !(Work_Zone[0] == 1*) GOTO 0x050A
265: 0x04FC [0x2B] Unnamed NPC (ID: 17523343/0x010B628F) [8080*]:
    → "Yoicks! Have I made a mistake, kupo?"
266: 0x0503 [0x23] WAIT_FOR_DIALOG_INTERACTION
267: 0x0504 [0x01] GOTO 0x014B

SUBROUTINE_050A:
268: 0x050A [0x01] GOTO 0x0627
269: 0x050D [0x02] IF !(Work_Zone[0] == 11*) GOTO 0x0563
270: 0x0515 [0x03] Work_Zone[2] = 11*
271: 0x051A [0x2B] Unnamed NPC (ID: 17523343/0x010B628F) [8076*]:
    → "Dost thou soothly wish to transpose the power inherent within thy [hand-to-hand haranguer/dagger/sword/great sword/axe/great axe/scythe/polearm/katana/great katana/club/staff/archery armament/marksmanship mechanism]?"
272: 0x0521 [0x23] WAIT_FOR_DIALOG_INTERACTION
273: 0x0522 [0x24] CREATE_DIALOG(message_id=8077*, default_option=1*, option_flags=0*)
    → "Is this the one? [Verily./Nay.]"
274: 0x0529 [0x25] WAIT_DIALOG_SELECT()
275: 0x052A [0x02] IF !(Work_Zone[0] == 0*) GOTO 0x054A
276: 0x0532 [0x2B] Unnamed NPC (ID: 17523343/0x010B628F) [8078*]:
    → "Understood! Whether through wanion or want, thou hast chosen thy [hand-to-hand haranguer/dagger/sword/great sword/axe/great axe/scythe/polearm/katana/great katana/club/staff/archery armament/marksmanship mechanism], kupo."
277: 0x0539 [0x23] WAIT_FOR_DIALOG_INTERACTION
278: 0x053A [0x2B] Unnamed NPC (ID: 17523343/0x010B628F) [8079*]:
    → "Should this precious piece of warwaging wonder reside in thy satchel, I beseech thee bequeath it to me anon. If not, I shall wait until time immemorial for thy return, kupo."
279: 0x0541 [0x23] WAIT_FOR_DIALOG_INTERACTION
280: 0x0542 [0x03] Work_Zone[1] = 27*
281: 0x0547 [0x01] GOTO 0x0560
282: 0x054A [0x02] IF !(Work_Zone[0] == 1*) GOTO 0x0560
283: 0x0552 [0x2B] Unnamed NPC (ID: 17523343/0x010B628F) [8080*]:
    → "Yoicks! Have I made a mistake, kupo?"
284: 0x0559 [0x23] WAIT_FOR_DIALOG_INTERACTION
285: 0x055A [0x01] GOTO 0x014B

SUBROUTINE_0560:
286: 0x0560 [0x01] GOTO 0x0627
287: 0x0563 [0x02] IF !(Work_Zone[0] == 12*) GOTO 0x05B9
288: 0x056B [0x03] Work_Zone[2] = 12*
289: 0x0570 [0x2B] Unnamed NPC (ID: 17523343/0x010B628F) [8076*]:
    → "Dost thou soothly wish to transpose the power inherent within thy [hand-to-hand haranguer/dagger/sword/great sword/axe/great axe/scythe/polearm/katana/great katana/club/staff/archery armament/marksmanship mechanism]?"
290: 0x0577 [0x23] WAIT_FOR_DIALOG_INTERACTION
291: 0x0578 [0x24] CREATE_DIALOG(message_id=8077*, default_option=1*, option_flags=0*)
    → "Is this the one? [Verily./Nay.]"
292: 0x057F [0x25] WAIT_DIALOG_SELECT()
293: 0x0580 [0x02] IF !(Work_Zone[0] == 0*) GOTO 0x05A0
294: 0x0588 [0x2B] Unnamed NPC (ID: 17523343/0x010B628F) [8078*]:
    → "Understood! Whether through wanion or want, thou hast chosen thy [hand-to-hand haranguer/dagger/sword/great sword/axe/great axe/scythe/polearm/katana/great katana/club/staff/archery armament/marksmanship mechanism], kupo."
295: 0x058F [0x23] WAIT_FOR_DIALOG_INTERACTION
296: 0x0590 [0x2B] Unnamed NPC (ID: 17523343/0x010B628F) [8079*]:
    → "Should this precious piece of warwaging wonder reside in thy satchel, I beseech thee bequeath it to me anon. If not, I shall wait until time immemorial for thy return, kupo."
297: 0x0597 [0x23] WAIT_FOR_DIALOG_INTERACTION
298: 0x0598 [0x03] Work_Zone[1] = 28*
299: 0x059D [0x01] GOTO 0x05B6
300: 0x05A0 [0x02] IF !(Work_Zone[0] == 1*) GOTO 0x05B6
301: 0x05A8 [0x2B] Unnamed NPC (ID: 17523343/0x010B628F) [8080*]:
    → "Yoicks! Have I made a mistake, kupo?"
302: 0x05AF [0x23] WAIT_FOR_DIALOG_INTERACTION
303: 0x05B0 [0x01] GOTO 0x014B

SUBROUTINE_05B6:
304: 0x05B6 [0x01] GOTO 0x0627
305: 0x05B9 [0x02] IF !(Work_Zone[0] == 13*) GOTO 0x060F
306: 0x05C1 [0x03] Work_Zone[2] = 13*
307: 0x05C6 [0x2B] Unnamed NPC (ID: 17523343/0x010B628F) [8076*]:
    → "Dost thou soothly wish to transpose the power inherent within thy [hand-to-hand haranguer/dagger/sword/great sword/axe/great axe/scythe/polearm/katana/great katana/club/staff/archery armament/marksmanship mechanism]?"
308: 0x05CD [0x23] WAIT_FOR_DIALOG_INTERACTION
309: 0x05CE [0x24] CREATE_DIALOG(message_id=8077*, default_option=1*, option_flags=0*)
    → "Is this the one? [Verily./Nay.]"
310: 0x05D5 [0x25] WAIT_DIALOG_SELECT()
311: 0x05D6 [0x02] IF !(Work_Zone[0] == 0*) GOTO 0x05F6
312: 0x05DE [0x2B] Unnamed NPC (ID: 17523343/0x010B628F) [8078*]:
    → "Understood! Whether through wanion or want, thou hast chosen thy [hand-to-hand haranguer/dagger/sword/great sword/axe/great axe/scythe/polearm/katana/great katana/club/staff/archery armament/marksmanship mechanism], kupo."
313: 0x05E5 [0x23] WAIT_FOR_DIALOG_INTERACTION
314: 0x05E6 [0x2B] Unnamed NPC (ID: 17523343/0x010B628F) [8079*]:
    → "Should this precious piece of warwaging wonder reside in thy satchel, I beseech thee bequeath it to me anon. If not, I shall wait until time immemorial for thy return, kupo."
315: 0x05ED [0x23] WAIT_FOR_DIALOG_INTERACTION
316: 0x05EE [0x03] Work_Zone[1] = 29*
317: 0x05F3 [0x01] GOTO 0x060C
318: 0x05F6 [0x02] IF !(Work_Zone[0] == 1*) GOTO 0x060C
319: 0x05FE [0x2B] Unnamed NPC (ID: 17523343/0x010B628F) [8080*]:
    → "Yoicks! Have I made a mistake, kupo?"
320: 0x0605 [0x23] WAIT_FOR_DIALOG_INTERACTION
321: 0x0606 [0x01] GOTO 0x014B

SUBROUTINE_060C:
322: 0x060C [0x01] GOTO 0x0627
323: 0x060F [0x02] IF !(Work_Zone[0] == 14*) GOTO 0x0627
324: 0x0617 [0x2B] Unnamed NPC (ID: 17523343/0x010B628F) [8075*]:
    → "I understand it mayhaps be nigh impossible to choose from the bevy afore thee. Natheless, prithee visit me eft thy mind be made."
325: 0x061E [0x23] WAIT_FOR_DIALOG_INTERACTION
326: 0x061F [0x03] Work_Zone[1] = 1*
327: 0x0624 [0x01] GOTO 0x0627

SUBROUTINE_0627:
328: 0x0627 [0x01] GOTO 0x0642
329: 0x062A [0x02] IF !(Work_Zone[0] == 1*) GOTO 0x0642
330: 0x0632 [0x2B] Unnamed NPC (ID: 17523343/0x010B628F) [8063*]:
    → "Thy wish is my command, kupo."
331: 0x0639 [0x23] WAIT_FOR_DIALOG_INTERACTION
332: 0x063A [0x03] Work_Zone[1] = 0*
333: 0x063F [0x01] GOTO 0x0642

SUBROUTINE_0642:
334: 0x0642 [0x6C] FADE_ENTITY_COLOR(entity_id=Unnamed NPC (ID: 17523343/0x010B628F), end_alpha=0*, fade_time=60*)
335: 0x064B [0x21] END_EVENT
336: 0x064C [0x00] END_REQSTACK()
```

#### Data or dead code:

```
# Dead code (unreachable instructions):
     0x01AB [0x01] GOTO 0x01AE
# Dead code (unreachable instructions):
     0x0201 [0x01] GOTO 0x0204
# Dead code (unreachable instructions):
     0x0257 [0x01] GOTO 0x025A
# Dead code (unreachable instructions):
     0x02AD [0x01] GOTO 0x02B0
# Dead code (unreachable instructions):
     0x0303 [0x01] GOTO 0x0306
# Dead code (unreachable instructions):
     0x0359 [0x01] GOTO 0x035C
# Dead code (unreachable instructions):
     0x03AF [0x01] GOTO 0x03B2
# Dead code (unreachable instructions):
     0x0405 [0x01] GOTO 0x0408
# Dead code (unreachable instructions):
     0x045B [0x01] GOTO 0x045E
# Dead code (unreachable instructions):
     0x04B1 [0x01] GOTO 0x04B4
# Dead code (unreachable instructions):
     0x0507 [0x01] GOTO 0x050A
# Dead code (unreachable instructions):
     0x055D [0x01] GOTO 0x0560
# Dead code (unreachable instructions):
     0x05B3 [0x01] GOTO 0x05B6
# Dead code (unreachable instructions):
     0x0609 [0x01] GOTO 0x060C
```

### Event 119

#### Metadata

| Field        | Value     |
|--------------|-----------|
| Entrypoint   | 0x064D    |
| Data Size    | 188 bytes |
| Instructions | 33        |

```
      00 01 02 03 04 05 06 07  08 09 0A 0B 0C 0D 0E 0F
      -- -- -- -- -- -- -- --  -- -- -- -- -- -- -- --
0640:                                         42 03 00               B..
0650: 00 02 10 4E 00 75 62 0B  01 27 10 8F 62 0B 01 02  ...N.ub..'..b...
0660: 92 01 8F 62 0B 01 94 01  8F 62 0B 01 29 10 8F 62  ...b.....b..)..b
0670: 0B 01 12 29 10 8F 62 0B  01 13 80 8F 62 0B 01 6C  ...)..b.....b..l
0680: 8F 62 0B 01 00 80 01 80  1C 01 80 BA 8F 62 0B 01  .b...........b..
0690: 02 80 03 80 04 80 05 80  1C 06 80 4A F0 FF FF 7F  ...........J....
06A0: 8F 62 0B 01 BB 07 80 8F  62 0B 01 8F 62 0B 01 6D  .b......b...b..m
06B0: 61 69 6E 00 80 1C 08 80  4A 8F 62 0B 01 F0 FF FF  ain.....J.b.....
06C0: 7F 03 02 10 00 00 2B 8F  62 0B 01 44 80 23 24 45  ......+.b..D.#$E
06D0: 80 00 80 00 80 25 02 00  10 00 80 00 E6 06 03 01  .....%..........
06E0: 10 00 80 01 FE 06 02 00  10 01 80 00 FE 06 2B 8F  ..............+.
06F0: 62 0B 01 42 80 23 03 01  10 01 80 01 FE 06 6C 8F  b..B.#........l.
0700: 62 0B 01 00 80 43 80 21  00                       b....C.!.       
```

#### Opcodes

```
  0: 0x064D [0x42] SET_CLI_EVENT_CANCEL_DATA()
  1: 0x064E [0x03] ExtData[1]->WorkLocal[0] = Work_Zone[2]
  2: 0x0653 [0x4E] SET_ENTITY_HIDE_FLAG: Show Unnamed NPC (ID: 17523317/0x010B6275)
  3: 0x0659 [0x27] REQ_SET(priority=0x10, entity_id=Unnamed NPC (ID: 17523343/0x010B628F), tag_num=0x02)
  4: 0x0660 [0x92] Unnamed NPC (ID: 17523343/0x010B628F)->Render.Flags3 ^= 0x01
  5: 0x0666 [0x94] Unnamed NPC (ID: 17523343/0x010B628F)->Render.Flags3 ^= 0x01
  6: 0x066C [0x29] REQ_SET_WAIT(priority=0x10, entity_id=Unnamed NPC (ID: 17523343/0x010B628F), tag_num=0x12)
  7: 0x0673 [0x29] REQ_SET_WAIT(priority=0x10, entity_id=Unnamed NPC (ID: 17523343/0x010B628F), tag_num=0x13)
  8: 0x067A [0x80] LOAD_WAIT(entity=Unnamed NPC (ID: 17523343/0x010B628F))
  9: 0x067F [0x6C] FADE_ENTITY_COLOR(entity_id=Unnamed NPC (ID: 17523343/0x010B628F), end_alpha=0*, fade_time=1*)
 10: 0x0688 [0x1C] WAIT(1* ticks)
 11: 0x068B [0xBA] SET_ENTITY_POSITION(entity_id=Unnamed NPC (ID: 17523343/0x010B628F), pos_x=-420.000*, pos_z=7.000*, pos_y=10.000*, direction=90.0°*)
 12: 0x0698 [0x1C] WAIT(30* ticks)
 13: 0x069B [0x4A] LocalPlayer looks at Unnamed NPC (ID: 17523343/0x010B628F)
 14: 0x06A4 [0xBB] LOAD_EVENT_SCHEDULER_ALT: Load scheduler "main" with entities [Unnamed NPC (ID: 17523343/0x010B628F), Unnamed NPC (ID: 17523343/0x010B628F)], work=[121*, 0*]
 15: 0x06B5 [0x1C] WAIT(120* ticks)
 16: 0x06B8 [0x4A] Unnamed NPC (ID: 17523343/0x010B628F) looks at LocalPlayer
 17: 0x06C1 [0x03] Work_Zone[2] = ExtData[1]->WorkLocal[0]
 18: 0x06C6 [0x2B] Unnamed NPC (ID: 17523343/0x010B628F) [8089*]:
    → "Mercy! My mind moils making mystifying moogle magic manifest. Dost thou desire to quell this course of action and quit, kupo?"
 19: 0x06CD [0x23] WAIT_FOR_DIALOG_INTERACTION
 20: 0x06CE [0x24] CREATE_DIALOG(message_id=8090*, default_option=0*, option_flags=0*)
    → "Continue or quit? [Continue!/Quit!]"
 21: 0x06D5 [0x25] WAIT_DIALOG_SELECT()
 22: 0x06D6 [0x02] IF !(Work_Zone[0] == 0*) GOTO 0x06E6
 23: 0x06DE [0x03] Work_Zone[1] = 0*
 24: 0x06E3 [0x01] GOTO 0x06FE
 25: 0x06E6 [0x02] IF !(Work_Zone[0] == 1*) GOTO 0x06FE
 26: 0x06EE [0x2B] Unnamed NPC (ID: 17523343/0x010B628F) [8063*]:
    → "Thy wish is my command, kupo."
 27: 0x06F5 [0x23] WAIT_FOR_DIALOG_INTERACTION
 28: 0x06F6 [0x03] Work_Zone[1] = 1*
 29: 0x06FB [0x01] GOTO 0x06FE

SUBROUTINE_06FE:
 30: 0x06FE [0x6C] FADE_ENTITY_COLOR(entity_id=Unnamed NPC (ID: 17523343/0x010B628F), end_alpha=0*, fade_time=60*)
 31: 0x0707 [0x21] END_EVENT
 32: 0x0708 [0x00] END_REQSTACK()
```

### Event 120

#### Metadata

| Field        | Value      |
|--------------|------------|
| Entrypoint   | 0x0709     |
| Data Size    | 1393 bytes |
| Instructions | 287        |

```
      00 01 02 03 04 05 06 07  08 09 0A 0B 0C 0D 0E 0F
      -- -- -- -- -- -- -- --  -- -- -- -- -- -- -- --
0700:                             42 03 01 00 02 10 03           B......
0710: 03 10 01 80 42 4E 00 75  62 0B 01 27 10 8F 62 0B  ....BN.ub..'..b.
0720: 01 02 92 01 8F 62 0B 01  94 01 8F 62 0B 01 29 10  .....b.....b..).
0730: 8F 62 0B 01 12 29 10 8F  62 0B 01 13 80 8F 62 0B  .b...)..b.....b.
0740: 01 6C 8F 62 0B 01 00 80  01 80 1C 01 80 BA 8F 62  .l.b...........b
0750: 0B 01 02 80 03 80 04 80  05 80 1C 06 80 4A F0 FF  .............J..
0760: FF 7F 8F 62 0B 01 BB 07  80 8F 62 0B 01 8F 62 0B  ...b......b...b.
0770: 01 6D 61 69 6E 00 80 1C  08 80 4A 8F 62 0B 01 F0  .main.....J.b...
0780: FF FF 7F 2B 8F 62 0B 01  1D 80 23 2B 8F 62 0B 01  ...+.b....#+.b..
0790: 1E 80 23 2B 8F 62 0B 01  1F 80 23 24 20 80 00 80  ..#+.b....#$ ...
07A0: 01 00 25 02 00 10 00 80  00 F9 07 03 02 10 00 80  ..%.............
07B0: 2B 8F 62 0B 01 21 80 23  24 22 80 01 80 00 80 25  +.b..!.#$".....%
07C0: 02 00 10 00 80 00 E0 07  2B 8F 62 0B 01 23 80 23  ........+.b..#.#
07D0: 2B 8F 62 0B 01 24 80 23  03 01 10 25 80 01 F6 07  +.b..$.#...%....
07E0: 02 00 10 01 80 00 F6 07  2B 8F 62 0B 01 26 80 23  ........+.b..&.#
07F0: 01 93 07 01 F6 07 01 6F  0C 02 00 10 01 80 00 4F  .......o.......O
0800: 08 03 02 10 01 80 2B 8F  62 0B 01 21 80 23 24 22  ......+.b..!.#$"
0810: 80 01 80 00 80 25 02 00  10 00 80 00 36 08 2B 8F  .....%......6.+.
0820: 62 0B 01 23 80 23 2B 8F  62 0B 01 24 80 23 03 01  b..#.#+.b..$.#..
0830: 10 27 80 01 4C 08 02 00  10 01 80 00 4C 08 2B 8F  .'..L.......L.+.
0840: 62 0B 01 26 80 23 01 93  07 01 4C 08 01 6F 0C 02  b..&.#....L..o..
0850: 00 10 28 80 00 A5 08 03  02 10 28 80 2B 8F 62 0B  ..(.......(.+.b.
0860: 01 21 80 23 24 22 80 01  80 00 80 25 02 00 10 00  .!.#$".....%....
0870: 80 00 8C 08 2B 8F 62 0B  01 23 80 23 2B 8F 62 0B  ....+.b..#.#+.b.
0880: 01 24 80 23 03 01 10 29  80 01 A2 08 02 00 10 01  .$.#...)........
0890: 80 00 A2 08 2B 8F 62 0B  01 26 80 23 01 93 07 01  ....+.b..&.#....
08A0: A2 08 01 6F 0C 02 00 10  2A 80 00 FB 08 03 02 10  ...o....*.......
08B0: 2A 80 2B 8F 62 0B 01 21  80 23 24 22 80 01 80 00  *.+.b..!.#$"....
08C0: 80 25 02 00 10 00 80 00  E2 08 2B 8F 62 0B 01 23  .%........+.b..#
08D0: 80 23 2B 8F 62 0B 01 24  80 23 03 01 10 2B 80 01  .#+.b..$.#...+..
08E0: F8 08 02 00 10 01 80 00  F8 08 2B 8F 62 0B 01 26  ..........+.b..&
08F0: 80 23 01 93 07 01 F8 08  01 6F 0C 02 00 10 2C 80  .#.......o....,.
0900: 00 51 09 03 02 10 2C 80  2B 8F 62 0B 01 21 80 23  .Q....,.+.b..!.#
0910: 24 22 80 01 80 00 80 25  02 00 10 00 80 00 38 09  $".....%......8.
0920: 2B 8F 62 0B 01 23 80 23  2B 8F 62 0B 01 24 80 23  +.b..#.#+.b..$.#
0930: 03 01 10 2D 80 01 4E 09  02 00 10 01 80 00 4E 09  ...-..N.......N.
0940: 2B 8F 62 0B 01 26 80 23  01 93 07 01 4E 09 01 6F  +.b..&.#....N..o
0950: 0C 02 00 10 2E 80 00 A7  09 03 02 10 2E 80 2B 8F  ..............+.
0960: 62 0B 01 21 80 23 24 22  80 01 80 00 80 25 02 00  b..!.#$".....%..
0970: 10 00 80 00 8E 09 2B 8F  62 0B 01 23 80 23 2B 8F  ......+.b..#.#+.
0980: 62 0B 01 24 80 23 03 01  10 2F 80 01 A4 09 02 00  b..$.#.../......
0990: 10 01 80 00 A4 09 2B 8F  62 0B 01 26 80 23 01 93  ......+.b..&.#..
09A0: 07 01 A4 09 01 6F 0C 02  00 10 30 80 00 FD 09 03  .....o....0.....
09B0: 02 10 30 80 2B 8F 62 0B  01 21 80 23 24 22 80 01  ..0.+.b..!.#$"..
09C0: 80 00 80 25 02 00 10 00  80 00 E4 09 2B 8F 62 0B  ...%........+.b.
09D0: 01 23 80 23 2B 8F 62 0B  01 24 80 23 03 01 10 31  .#.#+.b..$.#...1
09E0: 80 01 FA 09 02 00 10 01  80 00 FA 09 2B 8F 62 0B  ............+.b.
09F0: 01 26 80 23 01 93 07 01  FA 09 01 6F 0C 02 00 10  .&.#.......o....
0A00: 32 80 00 53 0A 03 02 10  32 80 2B 8F 62 0B 01 21  2..S....2.+.b..!
0A10: 80 23 24 22 80 01 80 00  80 25 02 00 10 00 80 00  .#$".....%......
0A20: 3A 0A 2B 8F 62 0B 01 23  80 23 2B 8F 62 0B 01 24  :.+.b..#.#+.b..$
0A30: 80 23 03 01 10 33 80 01  50 0A 02 00 10 01 80 00  .#...3..P.......
0A40: 50 0A 2B 8F 62 0B 01 26  80 23 01 93 07 01 50 0A  P.+.b..&.#....P.
0A50: 01 6F 0C 02 00 10 34 80  00 A9 0A 03 02 10 34 80  .o....4.......4.
0A60: 2B 8F 62 0B 01 21 80 23  24 22 80 01 80 00 80 25  +.b..!.#$".....%
0A70: 02 00 10 00 80 00 90 0A  2B 8F 62 0B 01 23 80 23  ........+.b..#.#
0A80: 2B 8F 62 0B 01 24 80 23  03 01 10 35 80 01 A6 0A  +.b..$.#...5....
0A90: 02 00 10 01 80 00 A6 0A  2B 8F 62 0B 01 26 80 23  ........+.b..&.#
0AA0: 01 93 07 01 A6 0A 01 6F  0C 02 00 10 36 80 00 FF  .......o....6...
0AB0: 0A 03 02 10 36 80 2B 8F  62 0B 01 21 80 23 24 22  ....6.+.b..!.#$"
0AC0: 80 01 80 00 80 25 02 00  10 00 80 00 E6 0A 2B 8F  .....%........+.
0AD0: 62 0B 01 23 80 23 2B 8F  62 0B 01 24 80 23 03 01  b..#.#+.b..$.#..
0AE0: 10 37 80 01 FC 0A 02 00  10 01 80 00 FC 0A 2B 8F  .7............+.
0AF0: 62 0B 01 26 80 23 01 93  07 01 FC 0A 01 6F 0C 02  b..&.#.......o..
0B00: 00 10 38 80 00 55 0B 03  02 10 38 80 2B 8F 62 0B  ..8..U....8.+.b.
0B10: 01 21 80 23 24 22 80 01  80 00 80 25 02 00 10 00  .!.#$".....%....
0B20: 80 00 3C 0B 2B 8F 62 0B  01 23 80 23 2B 8F 62 0B  ..<.+.b..#.#+.b.
0B30: 01 24 80 23 03 01 10 39  80 01 52 0B 02 00 10 01  .$.#...9..R.....
0B40: 80 00 52 0B 2B 8F 62 0B  01 26 80 23 01 93 07 01  ..R.+.b..&.#....
0B50: 52 0B 01 6F 0C 02 00 10  3A 80 00 AB 0B 03 02 10  R..o....:.......
0B60: 3A 80 2B 8F 62 0B 01 21  80 23 24 22 80 01 80 00  :.+.b..!.#$"....
0B70: 80 25 02 00 10 00 80 00  92 0B 2B 8F 62 0B 01 23  .%........+.b..#
0B80: 80 23 2B 8F 62 0B 01 24  80 23 03 01 10 3B 80 01  .#+.b..$.#...;..
0B90: A8 0B 02 00 10 01 80 00  A8 0B 2B 8F 62 0B 01 26  ..........+.b..&
0BA0: 80 23 01 93 07 01 A8 0B  01 6F 0C 02 00 10 3C 80  .#.......o....<.
0BB0: 00 01 0C 03 02 10 3C 80  2B 8F 62 0B 01 21 80 23  ......<.+.b..!.#
0BC0: 24 22 80 01 80 00 80 25  02 00 10 00 80 00 E8 0B  $".....%........
0BD0: 2B 8F 62 0B 01 23 80 23  2B 8F 62 0B 01 24 80 23  +.b..#.#+.b..$.#
0BE0: 03 01 10 3D 80 01 FE 0B  02 00 10 01 80 00 FE 0B  ...=............
0BF0: 2B 8F 62 0B 01 26 80 23  01 93 07 01 FE 0B 01 6F  +.b..&.#.......o
0C00: 0C 02 00 10 3E 80 00 57  0C 03 02 10 3E 80 2B 8F  ....>..W....>.+.
0C10: 62 0B 01 21 80 23 24 22  80 01 80 00 80 25 02 00  b..!.#$".....%..
0C20: 10 00 80 00 3E 0C 2B 8F  62 0B 01 23 80 23 2B 8F  ....>.+.b..#.#+.
0C30: 62 0B 01 24 80 23 03 01  10 3F 80 01 54 0C 02 00  b..$.#...?..T...
0C40: 10 01 80 00 54 0C 2B 8F  62 0B 01 26 80 23 01 93  ....T.+.b..&.#..
0C50: 07 01 54 0C 01 6F 0C 02  00 10 40 80 00 6F 0C 2B  ..T..o....@..o.+
0C60: 8F 62 0B 01 41 80 23 03  01 10 01 80 01 6F 0C 6C  .b..A.#......o.l
0C70: 8F 62 0B 01 00 80 43 80  21 00                    .b....C.!.      
```

#### Opcodes

```
  0: 0x0709 [0x42] SET_CLI_EVENT_CANCEL_DATA()
  1: 0x070A [0x03] ExtData[1]->WorkLocal[1] = Work_Zone[2]
  2: 0x070F [0x03] Work_Zone[3] = 1*
  3: 0x0714 [0x42] SET_CLI_EVENT_CANCEL_DATA()
  4: 0x0715 [0x4E] SET_ENTITY_HIDE_FLAG: Show Unnamed NPC (ID: 17523317/0x010B6275)
  5: 0x071B [0x27] REQ_SET(priority=0x10, entity_id=Unnamed NPC (ID: 17523343/0x010B628F), tag_num=0x02)
  6: 0x0722 [0x92] Unnamed NPC (ID: 17523343/0x010B628F)->Render.Flags3 ^= 0x01
  7: 0x0728 [0x94] Unnamed NPC (ID: 17523343/0x010B628F)->Render.Flags3 ^= 0x01
  8: 0x072E [0x29] REQ_SET_WAIT(priority=0x10, entity_id=Unnamed NPC (ID: 17523343/0x010B628F), tag_num=0x12)
  9: 0x0735 [0x29] REQ_SET_WAIT(priority=0x10, entity_id=Unnamed NPC (ID: 17523343/0x010B628F), tag_num=0x13)
 10: 0x073C [0x80] LOAD_WAIT(entity=Unnamed NPC (ID: 17523343/0x010B628F))
 11: 0x0741 [0x6C] FADE_ENTITY_COLOR(entity_id=Unnamed NPC (ID: 17523343/0x010B628F), end_alpha=0*, fade_time=1*)
 12: 0x074A [0x1C] WAIT(1* ticks)
 13: 0x074D [0xBA] SET_ENTITY_POSITION(entity_id=Unnamed NPC (ID: 17523343/0x010B628F), pos_x=-420.000*, pos_z=7.000*, pos_y=10.000*, direction=90.0°*)
 14: 0x075A [0x1C] WAIT(30* ticks)
 15: 0x075D [0x4A] LocalPlayer looks at Unnamed NPC (ID: 17523343/0x010B628F)
 16: 0x0766 [0xBB] LOAD_EVENT_SCHEDULER_ALT: Load scheduler "main" with entities [Unnamed NPC (ID: 17523343/0x010B628F), Unnamed NPC (ID: 17523343/0x010B628F)], work=[121*, 0*]
 17: 0x0777 [0x1C] WAIT(120* ticks)
 18: 0x077A [0x4A] Unnamed NPC (ID: 17523343/0x010B628F) looks at LocalPlayer
 19: 0x0783 [0x2B] Unnamed NPC (ID: 17523343/0x010B628F) [8071*]:
    → "The mysterious moogle magic I must employ differs depending on the weapon and the skill that accompanies it. In accordance, thou must needs select an appropriate armament from which to extract its essence."
 20: 0x078A [0x23] WAIT_FOR_DIALOG_INTERACTION
 21: 0x078B [0x2B] Unnamed NPC (ID: 17523343/0x010B628F) [8072*]:
    → "Eftsoons thy request hast been spoke, I shall set about making the requisite preparations, kupo."
 22: 0x0792 [0x23] WAIT_FOR_DIALOG_INTERACTION
 23: 0x0793 [0x2B] Unnamed NPC (ID: 17523343/0x010B628F) [8073*]:
    → "Designate thy desire, kupo."
 24: 0x079A [0x23] WAIT_FOR_DIALOG_INTERACTION
 25: 0x079B [0x24] CREATE_DIALOG(message_id=8074*, default_option=0*, option_flags=ExtData[1]->WorkLocal[1])
    → "Which skill set shalt thou select? [Hand-to-hand./Dagger./Sword./Great Sword./Axe./Great Axe./Scythe./Polearm./Katana./Great Katana./Club./Staff./Archery./Marksmanship./None for the nonce.]"
 26: 0x07A2 [0x25] WAIT_DIALOG_SELECT()
 27: 0x07A3 [0x02] IF !(Work_Zone[0] == 0*) GOTO 0x07F9
 28: 0x07AB [0x03] Work_Zone[2] = 0*
 29: 0x07B0 [0x2B] Unnamed NPC (ID: 17523343/0x010B628F) [8076*]:
    → "Dost thou soothly wish to transpose the power inherent within thy [hand-to-hand haranguer/dagger/sword/great sword/axe/great axe/scythe/polearm/katana/great katana/club/staff/archery armament/marksmanship mechanism]?"
 30: 0x07B7 [0x23] WAIT_FOR_DIALOG_INTERACTION
 31: 0x07B8 [0x24] CREATE_DIALOG(message_id=8077*, default_option=1*, option_flags=0*)
    → "Is this the one? [Verily./Nay.]"
 32: 0x07BF [0x25] WAIT_DIALOG_SELECT()
 33: 0x07C0 [0x02] IF !(Work_Zone[0] == 0*) GOTO 0x07E0
 34: 0x07C8 [0x2B] Unnamed NPC (ID: 17523343/0x010B628F) [8078*]:
    → "Understood! Whether through wanion or want, thou hast chosen thy [hand-to-hand haranguer/dagger/sword/great sword/axe/great axe/scythe/polearm/katana/great katana/club/staff/archery armament/marksmanship mechanism], kupo."
 35: 0x07CF [0x23] WAIT_FOR_DIALOG_INTERACTION
 36: 0x07D0 [0x2B] Unnamed NPC (ID: 17523343/0x010B628F) [8079*]:
    → "Should this precious piece of warwaging wonder reside in thy satchel, I beseech thee bequeath it to me anon. If not, I shall wait until time immemorial for thy return, kupo."
 37: 0x07D7 [0x23] WAIT_FOR_DIALOG_INTERACTION
 38: 0x07D8 [0x03] Work_Zone[1] = 16*
 39: 0x07DD [0x01] GOTO 0x07F6
 40: 0x07E0 [0x02] IF !(Work_Zone[0] == 1*) GOTO 0x07F6
 41: 0x07E8 [0x2B] Unnamed NPC (ID: 17523343/0x010B628F) [8080*]:
    → "Yoicks! Have I made a mistake, kupo?"
 42: 0x07EF [0x23] WAIT_FOR_DIALOG_INTERACTION
 43: 0x07F0 [0x01] GOTO 0x0793

SUBROUTINE_07F6:
 44: 0x07F6 [0x01] GOTO 0x0C6F
 45: 0x07F9 [0x02] IF !(Work_Zone[0] == 1*) GOTO 0x084F
 46: 0x0801 [0x03] Work_Zone[2] = 1*
 47: 0x0806 [0x2B] Unnamed NPC (ID: 17523343/0x010B628F) [8076*]:
    → "Dost thou soothly wish to transpose the power inherent within thy [hand-to-hand haranguer/dagger/sword/great sword/axe/great axe/scythe/polearm/katana/great katana/club/staff/archery armament/marksmanship mechanism]?"
 48: 0x080D [0x23] WAIT_FOR_DIALOG_INTERACTION
 49: 0x080E [0x24] CREATE_DIALOG(message_id=8077*, default_option=1*, option_flags=0*)
    → "Is this the one? [Verily./Nay.]"
 50: 0x0815 [0x25] WAIT_DIALOG_SELECT()
 51: 0x0816 [0x02] IF !(Work_Zone[0] == 0*) GOTO 0x0836
 52: 0x081E [0x2B] Unnamed NPC (ID: 17523343/0x010B628F) [8078*]:
    → "Understood! Whether through wanion or want, thou hast chosen thy [hand-to-hand haranguer/dagger/sword/great sword/axe/great axe/scythe/polearm/katana/great katana/club/staff/archery armament/marksmanship mechanism], kupo."
 53: 0x0825 [0x23] WAIT_FOR_DIALOG_INTERACTION
 54: 0x0826 [0x2B] Unnamed NPC (ID: 17523343/0x010B628F) [8079*]:
    → "Should this precious piece of warwaging wonder reside in thy satchel, I beseech thee bequeath it to me anon. If not, I shall wait until time immemorial for thy return, kupo."
 55: 0x082D [0x23] WAIT_FOR_DIALOG_INTERACTION
 56: 0x082E [0x03] Work_Zone[1] = 17*
 57: 0x0833 [0x01] GOTO 0x084C
 58: 0x0836 [0x02] IF !(Work_Zone[0] == 1*) GOTO 0x084C
 59: 0x083E [0x2B] Unnamed NPC (ID: 17523343/0x010B628F) [8080*]:
    → "Yoicks! Have I made a mistake, kupo?"
 60: 0x0845 [0x23] WAIT_FOR_DIALOG_INTERACTION
 61: 0x0846 [0x01] GOTO 0x0793

SUBROUTINE_084C:
 62: 0x084C [0x01] GOTO 0x0C6F
 63: 0x084F [0x02] IF !(Work_Zone[0] == 2*) GOTO 0x08A5
 64: 0x0857 [0x03] Work_Zone[2] = 2*
 65: 0x085C [0x2B] Unnamed NPC (ID: 17523343/0x010B628F) [8076*]:
    → "Dost thou soothly wish to transpose the power inherent within thy [hand-to-hand haranguer/dagger/sword/great sword/axe/great axe/scythe/polearm/katana/great katana/club/staff/archery armament/marksmanship mechanism]?"
 66: 0x0863 [0x23] WAIT_FOR_DIALOG_INTERACTION
 67: 0x0864 [0x24] CREATE_DIALOG(message_id=8077*, default_option=1*, option_flags=0*)
    → "Is this the one? [Verily./Nay.]"
 68: 0x086B [0x25] WAIT_DIALOG_SELECT()
 69: 0x086C [0x02] IF !(Work_Zone[0] == 0*) GOTO 0x088C
 70: 0x0874 [0x2B] Unnamed NPC (ID: 17523343/0x010B628F) [8078*]:
    → "Understood! Whether through wanion or want, thou hast chosen thy [hand-to-hand haranguer/dagger/sword/great sword/axe/great axe/scythe/polearm/katana/great katana/club/staff/archery armament/marksmanship mechanism], kupo."
 71: 0x087B [0x23] WAIT_FOR_DIALOG_INTERACTION
 72: 0x087C [0x2B] Unnamed NPC (ID: 17523343/0x010B628F) [8079*]:
    → "Should this precious piece of warwaging wonder reside in thy satchel, I beseech thee bequeath it to me anon. If not, I shall wait until time immemorial for thy return, kupo."
 73: 0x0883 [0x23] WAIT_FOR_DIALOG_INTERACTION
 74: 0x0884 [0x03] Work_Zone[1] = 18*
 75: 0x0889 [0x01] GOTO 0x08A2
 76: 0x088C [0x02] IF !(Work_Zone[0] == 1*) GOTO 0x08A2
 77: 0x0894 [0x2B] Unnamed NPC (ID: 17523343/0x010B628F) [8080*]:
    → "Yoicks! Have I made a mistake, kupo?"
 78: 0x089B [0x23] WAIT_FOR_DIALOG_INTERACTION
 79: 0x089C [0x01] GOTO 0x0793

SUBROUTINE_08A2:
 80: 0x08A2 [0x01] GOTO 0x0C6F
 81: 0x08A5 [0x02] IF !(Work_Zone[0] == 3*) GOTO 0x08FB
 82: 0x08AD [0x03] Work_Zone[2] = 3*
 83: 0x08B2 [0x2B] Unnamed NPC (ID: 17523343/0x010B628F) [8076*]:
    → "Dost thou soothly wish to transpose the power inherent within thy [hand-to-hand haranguer/dagger/sword/great sword/axe/great axe/scythe/polearm/katana/great katana/club/staff/archery armament/marksmanship mechanism]?"
 84: 0x08B9 [0x23] WAIT_FOR_DIALOG_INTERACTION
 85: 0x08BA [0x24] CREATE_DIALOG(message_id=8077*, default_option=1*, option_flags=0*)
    → "Is this the one? [Verily./Nay.]"
 86: 0x08C1 [0x25] WAIT_DIALOG_SELECT()
 87: 0x08C2 [0x02] IF !(Work_Zone[0] == 0*) GOTO 0x08E2
 88: 0x08CA [0x2B] Unnamed NPC (ID: 17523343/0x010B628F) [8078*]:
    → "Understood! Whether through wanion or want, thou hast chosen thy [hand-to-hand haranguer/dagger/sword/great sword/axe/great axe/scythe/polearm/katana/great katana/club/staff/archery armament/marksmanship mechanism], kupo."
 89: 0x08D1 [0x23] WAIT_FOR_DIALOG_INTERACTION
 90: 0x08D2 [0x2B] Unnamed NPC (ID: 17523343/0x010B628F) [8079*]:
    → "Should this precious piece of warwaging wonder reside in thy satchel, I beseech thee bequeath it to me anon. If not, I shall wait until time immemorial for thy return, kupo."
 91: 0x08D9 [0x23] WAIT_FOR_DIALOG_INTERACTION
 92: 0x08DA [0x03] Work_Zone[1] = 19*
 93: 0x08DF [0x01] GOTO 0x08F8
 94: 0x08E2 [0x02] IF !(Work_Zone[0] == 1*) GOTO 0x08F8
 95: 0x08EA [0x2B] Unnamed NPC (ID: 17523343/0x010B628F) [8080*]:
    → "Yoicks! Have I made a mistake, kupo?"
 96: 0x08F1 [0x23] WAIT_FOR_DIALOG_INTERACTION
 97: 0x08F2 [0x01] GOTO 0x0793

SUBROUTINE_08F8:
 98: 0x08F8 [0x01] GOTO 0x0C6F
 99: 0x08FB [0x02] IF !(Work_Zone[0] == 4*) GOTO 0x0951
100: 0x0903 [0x03] Work_Zone[2] = 4*
101: 0x0908 [0x2B] Unnamed NPC (ID: 17523343/0x010B628F) [8076*]:
    → "Dost thou soothly wish to transpose the power inherent within thy [hand-to-hand haranguer/dagger/sword/great sword/axe/great axe/scythe/polearm/katana/great katana/club/staff/archery armament/marksmanship mechanism]?"
102: 0x090F [0x23] WAIT_FOR_DIALOG_INTERACTION
103: 0x0910 [0x24] CREATE_DIALOG(message_id=8077*, default_option=1*, option_flags=0*)
    → "Is this the one? [Verily./Nay.]"
104: 0x0917 [0x25] WAIT_DIALOG_SELECT()
105: 0x0918 [0x02] IF !(Work_Zone[0] == 0*) GOTO 0x0938
106: 0x0920 [0x2B] Unnamed NPC (ID: 17523343/0x010B628F) [8078*]:
    → "Understood! Whether through wanion or want, thou hast chosen thy [hand-to-hand haranguer/dagger/sword/great sword/axe/great axe/scythe/polearm/katana/great katana/club/staff/archery armament/marksmanship mechanism], kupo."
107: 0x0927 [0x23] WAIT_FOR_DIALOG_INTERACTION
108: 0x0928 [0x2B] Unnamed NPC (ID: 17523343/0x010B628F) [8079*]:
    → "Should this precious piece of warwaging wonder reside in thy satchel, I beseech thee bequeath it to me anon. If not, I shall wait until time immemorial for thy return, kupo."
109: 0x092F [0x23] WAIT_FOR_DIALOG_INTERACTION
110: 0x0930 [0x03] Work_Zone[1] = 20*
111: 0x0935 [0x01] GOTO 0x094E
112: 0x0938 [0x02] IF !(Work_Zone[0] == 1*) GOTO 0x094E
113: 0x0940 [0x2B] Unnamed NPC (ID: 17523343/0x010B628F) [8080*]:
    → "Yoicks! Have I made a mistake, kupo?"
114: 0x0947 [0x23] WAIT_FOR_DIALOG_INTERACTION
115: 0x0948 [0x01] GOTO 0x0793

SUBROUTINE_094E:
116: 0x094E [0x01] GOTO 0x0C6F
117: 0x0951 [0x02] IF !(Work_Zone[0] == 5*) GOTO 0x09A7
118: 0x0959 [0x03] Work_Zone[2] = 5*
119: 0x095E [0x2B] Unnamed NPC (ID: 17523343/0x010B628F) [8076*]:
    → "Dost thou soothly wish to transpose the power inherent within thy [hand-to-hand haranguer/dagger/sword/great sword/axe/great axe/scythe/polearm/katana/great katana/club/staff/archery armament/marksmanship mechanism]?"
120: 0x0965 [0x23] WAIT_FOR_DIALOG_INTERACTION
121: 0x0966 [0x24] CREATE_DIALOG(message_id=8077*, default_option=1*, option_flags=0*)
    → "Is this the one? [Verily./Nay.]"
122: 0x096D [0x25] WAIT_DIALOG_SELECT()
123: 0x096E [0x02] IF !(Work_Zone[0] == 0*) GOTO 0x098E
124: 0x0976 [0x2B] Unnamed NPC (ID: 17523343/0x010B628F) [8078*]:
    → "Understood! Whether through wanion or want, thou hast chosen thy [hand-to-hand haranguer/dagger/sword/great sword/axe/great axe/scythe/polearm/katana/great katana/club/staff/archery armament/marksmanship mechanism], kupo."
125: 0x097D [0x23] WAIT_FOR_DIALOG_INTERACTION
126: 0x097E [0x2B] Unnamed NPC (ID: 17523343/0x010B628F) [8079*]:
    → "Should this precious piece of warwaging wonder reside in thy satchel, I beseech thee bequeath it to me anon. If not, I shall wait until time immemorial for thy return, kupo."
127: 0x0985 [0x23] WAIT_FOR_DIALOG_INTERACTION
128: 0x0986 [0x03] Work_Zone[1] = 21*
129: 0x098B [0x01] GOTO 0x09A4
130: 0x098E [0x02] IF !(Work_Zone[0] == 1*) GOTO 0x09A4
131: 0x0996 [0x2B] Unnamed NPC (ID: 17523343/0x010B628F) [8080*]:
    → "Yoicks! Have I made a mistake, kupo?"
132: 0x099D [0x23] WAIT_FOR_DIALOG_INTERACTION
133: 0x099E [0x01] GOTO 0x0793

SUBROUTINE_09A4:
134: 0x09A4 [0x01] GOTO 0x0C6F
135: 0x09A7 [0x02] IF !(Work_Zone[0] == 6*) GOTO 0x09FD
136: 0x09AF [0x03] Work_Zone[2] = 6*
137: 0x09B4 [0x2B] Unnamed NPC (ID: 17523343/0x010B628F) [8076*]:
    → "Dost thou soothly wish to transpose the power inherent within thy [hand-to-hand haranguer/dagger/sword/great sword/axe/great axe/scythe/polearm/katana/great katana/club/staff/archery armament/marksmanship mechanism]?"
138: 0x09BB [0x23] WAIT_FOR_DIALOG_INTERACTION
139: 0x09BC [0x24] CREATE_DIALOG(message_id=8077*, default_option=1*, option_flags=0*)
    → "Is this the one? [Verily./Nay.]"
140: 0x09C3 [0x25] WAIT_DIALOG_SELECT()
141: 0x09C4 [0x02] IF !(Work_Zone[0] == 0*) GOTO 0x09E4
142: 0x09CC [0x2B] Unnamed NPC (ID: 17523343/0x010B628F) [8078*]:
    → "Understood! Whether through wanion or want, thou hast chosen thy [hand-to-hand haranguer/dagger/sword/great sword/axe/great axe/scythe/polearm/katana/great katana/club/staff/archery armament/marksmanship mechanism], kupo."
143: 0x09D3 [0x23] WAIT_FOR_DIALOG_INTERACTION
144: 0x09D4 [0x2B] Unnamed NPC (ID: 17523343/0x010B628F) [8079*]:
    → "Should this precious piece of warwaging wonder reside in thy satchel, I beseech thee bequeath it to me anon. If not, I shall wait until time immemorial for thy return, kupo."
145: 0x09DB [0x23] WAIT_FOR_DIALOG_INTERACTION
146: 0x09DC [0x03] Work_Zone[1] = 22*
147: 0x09E1 [0x01] GOTO 0x09FA
148: 0x09E4 [0x02] IF !(Work_Zone[0] == 1*) GOTO 0x09FA
149: 0x09EC [0x2B] Unnamed NPC (ID: 17523343/0x010B628F) [8080*]:
    → "Yoicks! Have I made a mistake, kupo?"
150: 0x09F3 [0x23] WAIT_FOR_DIALOG_INTERACTION
151: 0x09F4 [0x01] GOTO 0x0793

SUBROUTINE_09FA:
152: 0x09FA [0x01] GOTO 0x0C6F
153: 0x09FD [0x02] IF !(Work_Zone[0] == 7*) GOTO 0x0A53
154: 0x0A05 [0x03] Work_Zone[2] = 7*
155: 0x0A0A [0x2B] Unnamed NPC (ID: 17523343/0x010B628F) [8076*]:
    → "Dost thou soothly wish to transpose the power inherent within thy [hand-to-hand haranguer/dagger/sword/great sword/axe/great axe/scythe/polearm/katana/great katana/club/staff/archery armament/marksmanship mechanism]?"
156: 0x0A11 [0x23] WAIT_FOR_DIALOG_INTERACTION
157: 0x0A12 [0x24] CREATE_DIALOG(message_id=8077*, default_option=1*, option_flags=0*)
    → "Is this the one? [Verily./Nay.]"
158: 0x0A19 [0x25] WAIT_DIALOG_SELECT()
159: 0x0A1A [0x02] IF !(Work_Zone[0] == 0*) GOTO 0x0A3A
160: 0x0A22 [0x2B] Unnamed NPC (ID: 17523343/0x010B628F) [8078*]:
    → "Understood! Whether through wanion or want, thou hast chosen thy [hand-to-hand haranguer/dagger/sword/great sword/axe/great axe/scythe/polearm/katana/great katana/club/staff/archery armament/marksmanship mechanism], kupo."
161: 0x0A29 [0x23] WAIT_FOR_DIALOG_INTERACTION
162: 0x0A2A [0x2B] Unnamed NPC (ID: 17523343/0x010B628F) [8079*]:
    → "Should this precious piece of warwaging wonder reside in thy satchel, I beseech thee bequeath it to me anon. If not, I shall wait until time immemorial for thy return, kupo."
163: 0x0A31 [0x23] WAIT_FOR_DIALOG_INTERACTION
164: 0x0A32 [0x03] Work_Zone[1] = 23*
165: 0x0A37 [0x01] GOTO 0x0A50
166: 0x0A3A [0x02] IF !(Work_Zone[0] == 1*) GOTO 0x0A50
167: 0x0A42 [0x2B] Unnamed NPC (ID: 17523343/0x010B628F) [8080*]:
    → "Yoicks! Have I made a mistake, kupo?"
168: 0x0A49 [0x23] WAIT_FOR_DIALOG_INTERACTION
169: 0x0A4A [0x01] GOTO 0x0793

SUBROUTINE_0A50:
170: 0x0A50 [0x01] GOTO 0x0C6F
171: 0x0A53 [0x02] IF !(Work_Zone[0] == 8*) GOTO 0x0AA9
172: 0x0A5B [0x03] Work_Zone[2] = 8*
173: 0x0A60 [0x2B] Unnamed NPC (ID: 17523343/0x010B628F) [8076*]:
    → "Dost thou soothly wish to transpose the power inherent within thy [hand-to-hand haranguer/dagger/sword/great sword/axe/great axe/scythe/polearm/katana/great katana/club/staff/archery armament/marksmanship mechanism]?"
174: 0x0A67 [0x23] WAIT_FOR_DIALOG_INTERACTION
175: 0x0A68 [0x24] CREATE_DIALOG(message_id=8077*, default_option=1*, option_flags=0*)
    → "Is this the one? [Verily./Nay.]"
176: 0x0A6F [0x25] WAIT_DIALOG_SELECT()
177: 0x0A70 [0x02] IF !(Work_Zone[0] == 0*) GOTO 0x0A90
178: 0x0A78 [0x2B] Unnamed NPC (ID: 17523343/0x010B628F) [8078*]:
    → "Understood! Whether through wanion or want, thou hast chosen thy [hand-to-hand haranguer/dagger/sword/great sword/axe/great axe/scythe/polearm/katana/great katana/club/staff/archery armament/marksmanship mechanism], kupo."
179: 0x0A7F [0x23] WAIT_FOR_DIALOG_INTERACTION
180: 0x0A80 [0x2B] Unnamed NPC (ID: 17523343/0x010B628F) [8079*]:
    → "Should this precious piece of warwaging wonder reside in thy satchel, I beseech thee bequeath it to me anon. If not, I shall wait until time immemorial for thy return, kupo."
181: 0x0A87 [0x23] WAIT_FOR_DIALOG_INTERACTION
182: 0x0A88 [0x03] Work_Zone[1] = 24*
183: 0x0A8D [0x01] GOTO 0x0AA6
184: 0x0A90 [0x02] IF !(Work_Zone[0] == 1*) GOTO 0x0AA6
185: 0x0A98 [0x2B] Unnamed NPC (ID: 17523343/0x010B628F) [8080*]:
    → "Yoicks! Have I made a mistake, kupo?"
186: 0x0A9F [0x23] WAIT_FOR_DIALOG_INTERACTION
187: 0x0AA0 [0x01] GOTO 0x0793

SUBROUTINE_0AA6:
188: 0x0AA6 [0x01] GOTO 0x0C6F
189: 0x0AA9 [0x02] IF !(Work_Zone[0] == 9*) GOTO 0x0AFF
190: 0x0AB1 [0x03] Work_Zone[2] = 9*
191: 0x0AB6 [0x2B] Unnamed NPC (ID: 17523343/0x010B628F) [8076*]:
    → "Dost thou soothly wish to transpose the power inherent within thy [hand-to-hand haranguer/dagger/sword/great sword/axe/great axe/scythe/polearm/katana/great katana/club/staff/archery armament/marksmanship mechanism]?"
192: 0x0ABD [0x23] WAIT_FOR_DIALOG_INTERACTION
193: 0x0ABE [0x24] CREATE_DIALOG(message_id=8077*, default_option=1*, option_flags=0*)
    → "Is this the one? [Verily./Nay.]"
194: 0x0AC5 [0x25] WAIT_DIALOG_SELECT()
195: 0x0AC6 [0x02] IF !(Work_Zone[0] == 0*) GOTO 0x0AE6
196: 0x0ACE [0x2B] Unnamed NPC (ID: 17523343/0x010B628F) [8078*]:
    → "Understood! Whether through wanion or want, thou hast chosen thy [hand-to-hand haranguer/dagger/sword/great sword/axe/great axe/scythe/polearm/katana/great katana/club/staff/archery armament/marksmanship mechanism], kupo."
197: 0x0AD5 [0x23] WAIT_FOR_DIALOG_INTERACTION
198: 0x0AD6 [0x2B] Unnamed NPC (ID: 17523343/0x010B628F) [8079*]:
    → "Should this precious piece of warwaging wonder reside in thy satchel, I beseech thee bequeath it to me anon. If not, I shall wait until time immemorial for thy return, kupo."
199: 0x0ADD [0x23] WAIT_FOR_DIALOG_INTERACTION
200: 0x0ADE [0x03] Work_Zone[1] = 25*
201: 0x0AE3 [0x01] GOTO 0x0AFC
202: 0x0AE6 [0x02] IF !(Work_Zone[0] == 1*) GOTO 0x0AFC
203: 0x0AEE [0x2B] Unnamed NPC (ID: 17523343/0x010B628F) [8080*]:
    → "Yoicks! Have I made a mistake, kupo?"
204: 0x0AF5 [0x23] WAIT_FOR_DIALOG_INTERACTION
205: 0x0AF6 [0x01] GOTO 0x0793

SUBROUTINE_0AFC:
206: 0x0AFC [0x01] GOTO 0x0C6F
207: 0x0AFF [0x02] IF !(Work_Zone[0] == 10*) GOTO 0x0B55
208: 0x0B07 [0x03] Work_Zone[2] = 10*
209: 0x0B0C [0x2B] Unnamed NPC (ID: 17523343/0x010B628F) [8076*]:
    → "Dost thou soothly wish to transpose the power inherent within thy [hand-to-hand haranguer/dagger/sword/great sword/axe/great axe/scythe/polearm/katana/great katana/club/staff/archery armament/marksmanship mechanism]?"
210: 0x0B13 [0x23] WAIT_FOR_DIALOG_INTERACTION
211: 0x0B14 [0x24] CREATE_DIALOG(message_id=8077*, default_option=1*, option_flags=0*)
    → "Is this the one? [Verily./Nay.]"
212: 0x0B1B [0x25] WAIT_DIALOG_SELECT()
213: 0x0B1C [0x02] IF !(Work_Zone[0] == 0*) GOTO 0x0B3C
214: 0x0B24 [0x2B] Unnamed NPC (ID: 17523343/0x010B628F) [8078*]:
    → "Understood! Whether through wanion or want, thou hast chosen thy [hand-to-hand haranguer/dagger/sword/great sword/axe/great axe/scythe/polearm/katana/great katana/club/staff/archery armament/marksmanship mechanism], kupo."
215: 0x0B2B [0x23] WAIT_FOR_DIALOG_INTERACTION
216: 0x0B2C [0x2B] Unnamed NPC (ID: 17523343/0x010B628F) [8079*]:
    → "Should this precious piece of warwaging wonder reside in thy satchel, I beseech thee bequeath it to me anon. If not, I shall wait until time immemorial for thy return, kupo."
217: 0x0B33 [0x23] WAIT_FOR_DIALOG_INTERACTION
218: 0x0B34 [0x03] Work_Zone[1] = 26*
219: 0x0B39 [0x01] GOTO 0x0B52
220: 0x0B3C [0x02] IF !(Work_Zone[0] == 1*) GOTO 0x0B52
221: 0x0B44 [0x2B] Unnamed NPC (ID: 17523343/0x010B628F) [8080*]:
    → "Yoicks! Have I made a mistake, kupo?"
222: 0x0B4B [0x23] WAIT_FOR_DIALOG_INTERACTION
223: 0x0B4C [0x01] GOTO 0x0793

SUBROUTINE_0B52:
224: 0x0B52 [0x01] GOTO 0x0C6F
225: 0x0B55 [0x02] IF !(Work_Zone[0] == 11*) GOTO 0x0BAB
226: 0x0B5D [0x03] Work_Zone[2] = 11*
227: 0x0B62 [0x2B] Unnamed NPC (ID: 17523343/0x010B628F) [8076*]:
    → "Dost thou soothly wish to transpose the power inherent within thy [hand-to-hand haranguer/dagger/sword/great sword/axe/great axe/scythe/polearm/katana/great katana/club/staff/archery armament/marksmanship mechanism]?"
228: 0x0B69 [0x23] WAIT_FOR_DIALOG_INTERACTION
229: 0x0B6A [0x24] CREATE_DIALOG(message_id=8077*, default_option=1*, option_flags=0*)
    → "Is this the one? [Verily./Nay.]"
230: 0x0B71 [0x25] WAIT_DIALOG_SELECT()
231: 0x0B72 [0x02] IF !(Work_Zone[0] == 0*) GOTO 0x0B92
232: 0x0B7A [0x2B] Unnamed NPC (ID: 17523343/0x010B628F) [8078*]:
    → "Understood! Whether through wanion or want, thou hast chosen thy [hand-to-hand haranguer/dagger/sword/great sword/axe/great axe/scythe/polearm/katana/great katana/club/staff/archery armament/marksmanship mechanism], kupo."
233: 0x0B81 [0x23] WAIT_FOR_DIALOG_INTERACTION
234: 0x0B82 [0x2B] Unnamed NPC (ID: 17523343/0x010B628F) [8079*]:
    → "Should this precious piece of warwaging wonder reside in thy satchel, I beseech thee bequeath it to me anon. If not, I shall wait until time immemorial for thy return, kupo."
235: 0x0B89 [0x23] WAIT_FOR_DIALOG_INTERACTION
236: 0x0B8A [0x03] Work_Zone[1] = 27*
237: 0x0B8F [0x01] GOTO 0x0BA8
238: 0x0B92 [0x02] IF !(Work_Zone[0] == 1*) GOTO 0x0BA8
239: 0x0B9A [0x2B] Unnamed NPC (ID: 17523343/0x010B628F) [8080*]:
    → "Yoicks! Have I made a mistake, kupo?"
240: 0x0BA1 [0x23] WAIT_FOR_DIALOG_INTERACTION
241: 0x0BA2 [0x01] GOTO 0x0793

SUBROUTINE_0BA8:
242: 0x0BA8 [0x01] GOTO 0x0C6F
243: 0x0BAB [0x02] IF !(Work_Zone[0] == 12*) GOTO 0x0C01
244: 0x0BB3 [0x03] Work_Zone[2] = 12*
245: 0x0BB8 [0x2B] Unnamed NPC (ID: 17523343/0x010B628F) [8076*]:
    → "Dost thou soothly wish to transpose the power inherent within thy [hand-to-hand haranguer/dagger/sword/great sword/axe/great axe/scythe/polearm/katana/great katana/club/staff/archery armament/marksmanship mechanism]?"
246: 0x0BBF [0x23] WAIT_FOR_DIALOG_INTERACTION
247: 0x0BC0 [0x24] CREATE_DIALOG(message_id=8077*, default_option=1*, option_flags=0*)
    → "Is this the one? [Verily./Nay.]"
248: 0x0BC7 [0x25] WAIT_DIALOG_SELECT()
249: 0x0BC8 [0x02] IF !(Work_Zone[0] == 0*) GOTO 0x0BE8
250: 0x0BD0 [0x2B] Unnamed NPC (ID: 17523343/0x010B628F) [8078*]:
    → "Understood! Whether through wanion or want, thou hast chosen thy [hand-to-hand haranguer/dagger/sword/great sword/axe/great axe/scythe/polearm/katana/great katana/club/staff/archery armament/marksmanship mechanism], kupo."
251: 0x0BD7 [0x23] WAIT_FOR_DIALOG_INTERACTION
252: 0x0BD8 [0x2B] Unnamed NPC (ID: 17523343/0x010B628F) [8079*]:
    → "Should this precious piece of warwaging wonder reside in thy satchel, I beseech thee bequeath it to me anon. If not, I shall wait until time immemorial for thy return, kupo."
253: 0x0BDF [0x23] WAIT_FOR_DIALOG_INTERACTION
254: 0x0BE0 [0x03] Work_Zone[1] = 28*
255: 0x0BE5 [0x01] GOTO 0x0BFE
256: 0x0BE8 [0x02] IF !(Work_Zone[0] == 1*) GOTO 0x0BFE
257: 0x0BF0 [0x2B] Unnamed NPC (ID: 17523343/0x010B628F) [8080*]:
    → "Yoicks! Have I made a mistake, kupo?"
258: 0x0BF7 [0x23] WAIT_FOR_DIALOG_INTERACTION
259: 0x0BF8 [0x01] GOTO 0x0793

SUBROUTINE_0BFE:
260: 0x0BFE [0x01] GOTO 0x0C6F
261: 0x0C01 [0x02] IF !(Work_Zone[0] == 13*) GOTO 0x0C57
262: 0x0C09 [0x03] Work_Zone[2] = 13*
263: 0x0C0E [0x2B] Unnamed NPC (ID: 17523343/0x010B628F) [8076*]:
    → "Dost thou soothly wish to transpose the power inherent within thy [hand-to-hand haranguer/dagger/sword/great sword/axe/great axe/scythe/polearm/katana/great katana/club/staff/archery armament/marksmanship mechanism]?"
264: 0x0C15 [0x23] WAIT_FOR_DIALOG_INTERACTION
265: 0x0C16 [0x24] CREATE_DIALOG(message_id=8077*, default_option=1*, option_flags=0*)
    → "Is this the one? [Verily./Nay.]"
266: 0x0C1D [0x25] WAIT_DIALOG_SELECT()
267: 0x0C1E [0x02] IF !(Work_Zone[0] == 0*) GOTO 0x0C3E
268: 0x0C26 [0x2B] Unnamed NPC (ID: 17523343/0x010B628F) [8078*]:
    → "Understood! Whether through wanion or want, thou hast chosen thy [hand-to-hand haranguer/dagger/sword/great sword/axe/great axe/scythe/polearm/katana/great katana/club/staff/archery armament/marksmanship mechanism], kupo."
269: 0x0C2D [0x23] WAIT_FOR_DIALOG_INTERACTION
270: 0x0C2E [0x2B] Unnamed NPC (ID: 17523343/0x010B628F) [8079*]:
    → "Should this precious piece of warwaging wonder reside in thy satchel, I beseech thee bequeath it to me anon. If not, I shall wait until time immemorial for thy return, kupo."
271: 0x0C35 [0x23] WAIT_FOR_DIALOG_INTERACTION
272: 0x0C36 [0x03] Work_Zone[1] = 29*
273: 0x0C3B [0x01] GOTO 0x0C54
274: 0x0C3E [0x02] IF !(Work_Zone[0] == 1*) GOTO 0x0C54
275: 0x0C46 [0x2B] Unnamed NPC (ID: 17523343/0x010B628F) [8080*]:
    → "Yoicks! Have I made a mistake, kupo?"
276: 0x0C4D [0x23] WAIT_FOR_DIALOG_INTERACTION
277: 0x0C4E [0x01] GOTO 0x0793

SUBROUTINE_0C54:
278: 0x0C54 [0x01] GOTO 0x0C6F
279: 0x0C57 [0x02] IF !(Work_Zone[0] == 14*) GOTO 0x0C6F
280: 0x0C5F [0x2B] Unnamed NPC (ID: 17523343/0x010B628F) [8075*]:
    → "I understand it mayhaps be nigh impossible to choose from the bevy afore thee. Natheless, prithee visit me eft thy mind be made."
281: 0x0C66 [0x23] WAIT_FOR_DIALOG_INTERACTION
282: 0x0C67 [0x03] Work_Zone[1] = 1*
283: 0x0C6C [0x01] GOTO 0x0C6F

SUBROUTINE_0C6F:
284: 0x0C6F [0x6C] FADE_ENTITY_COLOR(entity_id=Unnamed NPC (ID: 17523343/0x010B628F), end_alpha=0*, fade_time=60*)
285: 0x0C78 [0x21] END_EVENT
286: 0x0C79 [0x00] END_REQSTACK()
```

#### Data or dead code:

```
# Dead code (unreachable instructions):
     0x07F3 [0x01] GOTO 0x07F6
# Dead code (unreachable instructions):
     0x0849 [0x01] GOTO 0x084C
# Dead code (unreachable instructions):
     0x089F [0x01] GOTO 0x08A2
# Dead code (unreachable instructions):
     0x08F5 [0x01] GOTO 0x08F8
# Dead code (unreachable instructions):
     0x094B [0x01] GOTO 0x094E
# Dead code (unreachable instructions):
     0x09A1 [0x01] GOTO 0x09A4
# Dead code (unreachable instructions):
     0x09F7 [0x01] GOTO 0x09FA
# Dead code (unreachable instructions):
     0x0A4D [0x01] GOTO 0x0A50
# Dead code (unreachable instructions):
     0x0AA3 [0x01] GOTO 0x0AA6
# Dead code (unreachable instructions):
     0x0AF9 [0x01] GOTO 0x0AFC
# Dead code (unreachable instructions):
     0x0B4F [0x01] GOTO 0x0B52
# Dead code (unreachable instructions):
     0x0BA5 [0x01] GOTO 0x0BA8
# Dead code (unreachable instructions):
     0x0BFB [0x01] GOTO 0x0BFE
# Dead code (unreachable instructions):
     0x0C51 [0x01] GOTO 0x0C54
```

### Event 121

#### Metadata

| Field        | Value     |
|--------------|-----------|
| Entrypoint   | 0x0C7A    |
| Data Size    | 130 bytes |
| Instructions | 21        |

```
      00 01 02 03 04 05 06 07  08 09 0A 0B 0C 0D 0E 0F
      -- -- -- -- -- -- -- --  -- -- -- -- -- -- -- --
0C70:                                42 4E 00 75 62 0B            BN.ub.
0C80: 01 27 10 8F 62 0B 01 02  92 01 8F 62 0B 01 94 01  .'..b......b....
0C90: 8F 62 0B 01 29 10 8F 62  0B 01 12 29 10 8F 62 0B  .b..)..b...)..b.
0CA0: 01 13 80 8F 62 0B 01 6C  8F 62 0B 01 00 80 01 80  ....b..l.b......
0CB0: 1C 01 80 BA 8F 62 0B 01  02 80 03 80 04 80 05 80  .....b..........
0CC0: 1C 06 80 4A F0 FF FF 7F  8F 62 0B 01 BB 07 80 8F  ...J.....b......
0CD0: 62 0B 01 8F 62 0B 01 6D  61 69 6E 00 80 1C 08 80  b...b..main.....
0CE0: 4A 8F 62 0B 01 F0 FF FF  7F 2B 8F 62 0B 01 46 80  J.b......+.b..F.
0CF0: 23 6C 8F 62 0B 01 00 80  43 80 21 00              #l.b....C.!.    
```

#### Opcodes

```
  0: 0x0C7A [0x42] SET_CLI_EVENT_CANCEL_DATA()
  1: 0x0C7B [0x4E] SET_ENTITY_HIDE_FLAG: Show Unnamed NPC (ID: 17523317/0x010B6275)
  2: 0x0C81 [0x27] REQ_SET(priority=0x10, entity_id=Unnamed NPC (ID: 17523343/0x010B628F), tag_num=0x02)
  3: 0x0C88 [0x92] Unnamed NPC (ID: 17523343/0x010B628F)->Render.Flags3 ^= 0x01
  4: 0x0C8E [0x94] Unnamed NPC (ID: 17523343/0x010B628F)->Render.Flags3 ^= 0x01
  5: 0x0C94 [0x29] REQ_SET_WAIT(priority=0x10, entity_id=Unnamed NPC (ID: 17523343/0x010B628F), tag_num=0x12)
  6: 0x0C9B [0x29] REQ_SET_WAIT(priority=0x10, entity_id=Unnamed NPC (ID: 17523343/0x010B628F), tag_num=0x13)
  7: 0x0CA2 [0x80] LOAD_WAIT(entity=Unnamed NPC (ID: 17523343/0x010B628F))
  8: 0x0CA7 [0x6C] FADE_ENTITY_COLOR(entity_id=Unnamed NPC (ID: 17523343/0x010B628F), end_alpha=0*, fade_time=1*)
  9: 0x0CB0 [0x1C] WAIT(1* ticks)
 10: 0x0CB3 [0xBA] SET_ENTITY_POSITION(entity_id=Unnamed NPC (ID: 17523343/0x010B628F), pos_x=-420.000*, pos_z=7.000*, pos_y=10.000*, direction=90.0°*)
 11: 0x0CC0 [0x1C] WAIT(30* ticks)
 12: 0x0CC3 [0x4A] LocalPlayer looks at Unnamed NPC (ID: 17523343/0x010B628F)
 13: 0x0CCC [0xBB] LOAD_EVENT_SCHEDULER_ALT: Load scheduler "main" with entities [Unnamed NPC (ID: 17523343/0x010B628F), Unnamed NPC (ID: 17523343/0x010B628F)], work=[121*, 0*]
 14: 0x0CDD [0x1C] WAIT(120* ticks)
 15: 0x0CE0 [0x4A] Unnamed NPC (ID: 17523343/0x010B628F) looks at LocalPlayer
 16: 0x0CE9 [0x2B] Unnamed NPC (ID: 17523343/0x010B628F) [8087*]:
    → "While thine enthusiasm for expertise elevation is encouraging to behold, overexposure to moogle magic hath been known to muddle many a mortal mind."
 17: 0x0CF0 [0x23] WAIT_FOR_DIALOG_INTERACTION
 18: 0x0CF1 [0x6C] FADE_ENTITY_COLOR(entity_id=Unnamed NPC (ID: 17523343/0x010B628F), end_alpha=0*, fade_time=60*)
 19: 0x0CFA [0x21] END_EVENT
 20: 0x0CFB [0x00] END_REQSTACK()
```

### Event 122

#### Metadata

| Field        | Value     |
|--------------|-----------|
| Entrypoint   | 0x0CFC    |
| Data Size    | 317 bytes |
| Instructions | 45        |

```
      00 01 02 03 04 05 06 07  08 09 0A 0B 0C 0D 0E 0F
      -- -- -- -- -- -- -- --  -- -- -- -- -- -- -- --
0CF0:                                      42 4E 00 75              BN.u
0D00: 62 0B 01 27 10 8F 62 0B  01 02 92 01 8F 62 0B 01  b..'..b......b..
0D10: 94 01 8F 62 0B 01 29 10  8F 62 0B 01 12 29 10 8F  ...b..)..b...)..
0D20: 62 0B 01 13 80 8F 62 0B  01 6C 8F 62 0B 01 00 80  b.....b..l.b....
0D30: 01 80 1C 01 80 BA 8F 62  0B 01 02 80 03 80 04 80  .......b........
0D40: 05 80 1C 06 80 4A F0 FF  FF 7F 8F 62 0B 01 BB 07  .....J.....b....
0D50: 80 8F 62 0B 01 8F 62 0B  01 6D 61 69 6E 00 80 1C  ..b...b..main...
0D60: 08 80 4A 8F 62 0B 01 F0  FF FF 7F 02 03 10 00 80  ..J.b...........
0D70: 00 7E 0D 2B 8F 62 0B 01  47 80 23 01 86 0D 2B 8F  .~.+.b..G.#...+.
0D80: 62 0B 01 48 80 23 2B 8F  62 0B 01 49 80 23 2B 8F  b..H.#+.b..I.#+.
0D90: 62 0B 01 4A 80 23 5B 4B  80 8F 62 0B 01 8F 62 0B  b..J.#[K..b...b.
0DA0: 01 6B 72 75 30 1C 4C 80  C5 4D 80 8F 62 0B 01 8F  .kru0.L..M..b...
0DB0: 62 0B 01 6D 61 69 6E 00  80 1C 4E 80 45 4F 80 F0  b..main...N.EO..
0DC0: FF FF 7F F0 FF FF 7F 77  68 6F 31 00 80 55 4F 80  .......who1..UO.
0DD0: F0 FF FF 7F F0 FF FF 7F  77 68 6F 31 1C 06 80 6B  ........who1...k
0DE0: 69 64 6C 30 8F 62 0B 01  45 4F 80 F0 FF FF 7F F0  idl0.b..EO......
0DF0: FF FF 7F 77 68 69 31 00  80 55 4F 80 F0 FF FF 7F  ...whi1..UO.....
0E00: F0 FF FF 7F 77 68 69 31  2B 8F 62 0B 01 50 80 23  ....whi1+.b..P.#
0E10: 2B 8F 62 0B 01 51 80 23  45 4F 80 F8 FF FF 7F F8  +.b..Q.#EO......
0E20: FF FF 7F 71 73 74 63 00  80 6C 8F 62 0B 01 00 80  ...qstc..l.b....
0E30: 43 80 03 01 10 02 10 21  00                       C......!.       
```

#### Opcodes

```
  0: 0x0CFC [0x42] SET_CLI_EVENT_CANCEL_DATA()
  1: 0x0CFD [0x4E] SET_ENTITY_HIDE_FLAG: Show Unnamed NPC (ID: 17523317/0x010B6275)
  2: 0x0D03 [0x27] REQ_SET(priority=0x10, entity_id=Unnamed NPC (ID: 17523343/0x010B628F), tag_num=0x02)
  3: 0x0D0A [0x92] Unnamed NPC (ID: 17523343/0x010B628F)->Render.Flags3 ^= 0x01
  4: 0x0D10 [0x94] Unnamed NPC (ID: 17523343/0x010B628F)->Render.Flags3 ^= 0x01
  5: 0x0D16 [0x29] REQ_SET_WAIT(priority=0x10, entity_id=Unnamed NPC (ID: 17523343/0x010B628F), tag_num=0x12)
  6: 0x0D1D [0x29] REQ_SET_WAIT(priority=0x10, entity_id=Unnamed NPC (ID: 17523343/0x010B628F), tag_num=0x13)
  7: 0x0D24 [0x80] LOAD_WAIT(entity=Unnamed NPC (ID: 17523343/0x010B628F))
  8: 0x0D29 [0x6C] FADE_ENTITY_COLOR(entity_id=Unnamed NPC (ID: 17523343/0x010B628F), end_alpha=0*, fade_time=1*)
  9: 0x0D32 [0x1C] WAIT(1* ticks)
 10: 0x0D35 [0xBA] SET_ENTITY_POSITION(entity_id=Unnamed NPC (ID: 17523343/0x010B628F), pos_x=-420.000*, pos_z=7.000*, pos_y=10.000*, direction=90.0°*)
 11: 0x0D42 [0x1C] WAIT(30* ticks)
 12: 0x0D45 [0x4A] LocalPlayer looks at Unnamed NPC (ID: 17523343/0x010B628F)
 13: 0x0D4E [0xBB] LOAD_EVENT_SCHEDULER_ALT: Load scheduler "main" with entities [Unnamed NPC (ID: 17523343/0x010B628F), Unnamed NPC (ID: 17523343/0x010B628F)], work=[121*, 0*]
 14: 0x0D5F [0x1C] WAIT(120* ticks)
 15: 0x0D62 [0x4A] Unnamed NPC (ID: 17523343/0x010B628F) looks at LocalPlayer
 16: 0x0D6B [0x02] IF !(Work_Zone[3] == 0*) GOTO 0x0D7E
 17: 0x0D73 [0x2B] Unnamed NPC (ID: 17523343/0x010B628F) [8081*]:
    → "Kupopopo... An inexplicable force resides within this armament, forsooth."
 18: 0x0D7A [0x23] WAIT_FOR_DIALOG_INTERACTION
 19: 0x0D7B [0x01] GOTO 0x0D86
 20: 0x0D7E [0x2B] Unnamed NPC (ID: 17523343/0x010B628F) [8082*]:
    → "Kupopopo... This armament is without a doubt worthy of the moniker "Empyrean," kupo. A single feint touch is all one needs to ascertain its celestial standards."
 21: 0x0D85 [0x23] WAIT_FOR_DIALOG_INTERACTION

SUBROUTINE_0D86:
 22: 0x0D86 [0x2B] Unnamed NPC (ID: 17523343/0x010B628F) [8083*]:
    → "Very well, then... Time to test this transference, kupo!"
 23: 0x0D8D [0x23] WAIT_FOR_DIALOG_INTERACTION
 24: 0x0D8E [0x2B] Unnamed NPC (ID: 17523343/0x010B628F) [8084*]:
    → "Watch now in awestruck amazement as the mighty moogle magic of Kupofried is cast upon thee!"
 25: 0x0D95 [0x23] WAIT_FOR_DIALOG_INTERACTION
 26: 0x0D96 [0x5B] LOAD_EXT_SCHEDULER: Load scheduler "kru0" with entities [Unnamed NPC (ID: 17523343/0x010B628F), Unnamed NPC (ID: 17523343/0x010B628F)], work=2636*
 27: 0x0DA5 [0x1C] WAIT(90* ticks)
 28: 0x0DA8 [0xC5] LOAD_SCHEDULED_TASK_ALT3: Load scheduler 0x80006E69 for entities [Unnamed NPC (ID: 17523343/0x010B628F), Unnamed NPC (ID: 17523343/0x010B628F)], work=152*, param=24941
 29: 0x0DB9 [0x1C] WAIT(180* ticks)
 30: 0x0DBC [0x45] LOAD_SCHEDULED_TASK: Load scheduler "who1" with entities [LocalPlayer, LocalPlayer], work=[201*, 0*]
 31: 0x0DCD [0x55] WAIT_LOAD_SCHEDULER: Wait for scheduler "who1" with entities [LocalPlayer, LocalPlayer], work=201*
 32: 0x0DDC [0x1C] WAIT(30* ticks)
 33: 0x0DDF [0x6B] STOP_AND_IDLE: Unnamed NPC (ID: 17523343/0x010B628F) stops current action and resets to idle (animation="idl0")
 34: 0x0DE8 [0x45] LOAD_SCHEDULED_TASK: Load scheduler "whi1" with entities [LocalPlayer, LocalPlayer], work=[201*, 0*]
 35: 0x0DF9 [0x55] WAIT_LOAD_SCHEDULER: Wait for scheduler "whi1" with entities [LocalPlayer, LocalPlayer], work=201*
 36: 0x0E08 [0x2B] Unnamed NPC (ID: 17523343/0x010B628F) [8085*]:
    → "Hohoho, a stunning success of a sublime scope, If I do say so myself."
 37: 0x0E0F [0x23] WAIT_FOR_DIALOG_INTERACTION
 38: 0x0E10 [0x2B] Unnamed NPC (ID: 17523343/0x010B628F) [8086*]:
    → "It may seem as if naught has come to pass, but would my fluffy facade ever deceive thee? Prithee wield another weapon and watch what happens with thy weapon skill, kupo."
 39: 0x0E17 [0x23] WAIT_FOR_DIALOG_INTERACTION
 40: 0x0E18 [0x45] LOAD_SCHEDULED_TASK: Load scheduler "qstc" with entities [EventEntity, EventEntity], work=[201*, 0*]
 41: 0x0E29 [0x6C] FADE_ENTITY_COLOR(entity_id=Unnamed NPC (ID: 17523343/0x010B628F), end_alpha=0*, fade_time=60*)
 42: 0x0E32 [0x03] Work_Zone[1] = Work_Zone[2]
 43: 0x0E37 [0x21] END_EVENT
 44: 0x0E38 [0x00] END_REQSTACK()
```
