# 17523350

## Common Data

| Field            | Value                    |
|------------------|--------------------------|
| Zone             | Walk of Echoes (ID: 182) |
| Block Size       | 12596 bytes              |
| Total Events     | 11                       |
| References Count | 259                      |

## List of Events

| Event ID              | Entrypoint   |   Size |   Instructions |
|-----------------------|--------------|--------|----------------|
| [65535](#event-65535) | 0x0000       |      1 |              1 |
| [26](#event-26)       | 0x0001       |    618 |             80 |
| [27](#event-27)       | 0x026B       |   6606 |            677 |
| [32](#event-32)       | 0x1C39       |     39 |              8 |
| [33](#event-33)       | 0x1C60       |     39 |              8 |
| [34](#event-34)       | 0x1C87       |     39 |              8 |
| [35](#event-35)       | 0x1CAE       |     47 |             10 |
| [29](#event-29)       | 0x1CDD       |      6 |              4 |
| [28](#event-28)       | 0x1CE3       |   2467 |            288 |
| [30](#event-30)       | 0x2686       |   1022 |            130 |
| [31](#event-31)       | 0x2A84       |    614 |             77 |

## DAT References (imed_data)

|   Index | Hex Value   |   Dec Value |
|---------|-------------|-------------|
|       0 | 0x0000      |           0 |
|       1 | 0x0078      |         120 |
|       2 | 0x00C8      |         200 |
|       3 | 0x001B      |          27 |
|       4 | 0xFFF5549B  |  4294268059 |
|       5 | 0xFFF96BDB  |  4294536155 |
|       6 | 0x018F      |         399 |
|       7 | 0xFFFFFC00  |  4294966272 |
|       8 | 0xFFF551A0  |  4294267296 |
|       9 | 0xFFF9497D  |  4294527357 |
|      10 | 0x0190      |         400 |
|      11 | 0x001E      |          30 |
|      12 | 0x0028      |          40 |
|      13 | 0x02FC      |         764 |
|      14 | 0x000F      |          15 |
|      15 | 0x005A      |          90 |
|      16 | 0x003C      |          60 |
|      17 | 0x2047      |        8263 |
|      18 | 0x0050      |          80 |
|      19 | 0x0855      |        2133 |
|      20 | 0x000A      |          10 |
|      21 | 0x2048      |        8264 |
|      22 | 0x2049      |        8265 |
|      23 | 0x204A      |        8266 |
|      24 | 0x204B      |        8267 |
|      25 | 0x0857      |        2135 |
|      26 | 0x0854      |        2132 |
|      27 | 0x204C      |        8268 |
|      28 | 0x00FF      |         255 |
|      29 | 0x0013      |          19 |
|      30 | 0x0001      |           1 |
|      31 | 0xFFF552D0  |  4294267600 |
|      32 | 0xFFFB215A  |  4294648154 |
|      33 | 0xFFFFB9B1  |  4294949297 |
|      34 | 0x0BFE      |        3070 |
|      35 | 0xFFF54E02  |  4294266370 |
|      36 | 0xFFFAE3D3  |  4294632403 |
|      37 | 0xFFFFBB40  |  4294949696 |
|      38 | 0x0C25      |        3109 |
|      39 | 0xFFF54A46  |  4294265414 |
|      40 | 0xFFFB1CAF  |  4294646959 |
|      41 | 0x0C44      |        3140 |
|      42 | 0x0302      |         770 |
|      43 | 0x0064      |         100 |
|      44 | 0x0014      |          20 |
|      45 | 0x204D      |        8269 |
|      46 | 0x0586      |        1414 |
|      47 | 0x204E      |        8270 |
|      48 | 0xFFF60D20  |  4294315296 |
|      49 | 0xFFF99760  |  4294547296 |
|      50 | 0x1000      |        4096 |
|      51 | 0xFFF60EC3  |  4294315715 |
|      52 | 0xFFF99892  |  4294547602 |
|      53 | 0xFFF60933  |  4294314291 |
|      54 | 0xFFF99389  |  4294546313 |
|      55 | 0xFFF6A960  |  4294355296 |
|      56 | 0xFFFFC6F8  |  4294952696 |
|      57 | 0xFFF613CF  |  4294317007 |
|      58 | 0xFFF994C4  |  4294546628 |
|      59 | 0xFFF6F74E  |  4294375246 |
|      60 | 0xFFF98F3B  |  4294545211 |
|      61 | 0xFFFF9C0E  |  4294941710 |
|      62 | 0xFFF6F7B1  |  4294375345 |
|      63 | 0xFFF9A422  |  4294550562 |
|      64 | 0xFFFFA5C4  |  4294944196 |
|      65 | 0xFFF6E849  |  4294371401 |
|      66 | 0xFFF99AAE  |  4294548142 |
|      67 | 0xFFFFA407  |  4294943751 |
|      68 | 0xFFF6F758  |  4294375256 |
|      69 | 0xFFF98F75  |  4294545269 |
|      70 | 0xFFFFA8FE  |  4294945022 |
|      71 | 0xFFF6BCE8  |  4294360296 |
|      72 | 0x0ED8      |        3800 |
|      73 | 0x0B2D      |        2861 |
|      74 | 0x0F3A      |        3898 |
|      75 | 0x0ED9      |        3801 |
|      76 | 0x1E14      |        7700 |
|      77 | 0x204F      |        8271 |
|      78 | 0x0096      |         150 |
|      79 | 0x0094      |         148 |
|      80 | 0x051F      |        1311 |
|      81 | 0x2050      |        8272 |
|      82 | 0x0D6E      |        3438 |
|      83 | 0x00B4      |         180 |
|      84 | 0x0D66      |        3430 |
|      85 | 0xFFF63D3B  |  4294327611 |
|      86 | 0xFFF99576  |  4294546806 |
|      87 | 0x0800      |        2048 |
|      88 | 0x2051      |        8273 |
|      89 | 0x2052      |        8274 |
|      90 | 0x0098      |         152 |
|      91 | 0x0118      |         280 |
|      92 | 0x0850      |        2128 |
|      93 | 0x2053      |        8275 |
|      94 | 0x008C      |         140 |
|      95 | 0xFFF6098C  |  4294314380 |
|      96 | 0xFFF99126  |  4294545702 |
|      97 | 0x004C      |          76 |
|      98 | 0x09D7      |        2519 |
|      99 | 0x0097      |         151 |
|     100 | 0x085A      |        2138 |
|     101 | 0x0002      |           2 |
|     102 | 0x0003      |           3 |
|     103 | 0x00A0      |         160 |
|     104 | 0x0004      |           4 |
|     105 | 0x00AA      |         170 |
|     106 | 0x0005      |           5 |
|     107 | 0x0006      |           6 |
|     108 | 0x0007      |           7 |
|     109 | 0x00BE      |         190 |
|     110 | 0x0008      |           8 |
|     111 | 0x2054      |        8276 |
|     112 | 0xFFF67A80  |  4294343296 |
|     113 | 0xFFFFD8F0  |  4294957296 |
|     114 | 0x0EDE      |        3806 |
|     115 | 0xFFF5FF4D  |  4294311757 |
|     116 | 0xFFF994CF  |  4294546639 |
|     117 | 0x00A2      |         162 |
|     118 | 0x0EDA      |        3802 |
|     119 | 0x0859      |        2137 |
|     120 | 0x2056      |        8278 |
|     121 | 0x2057      |        8279 |
|     122 | 0x2058      |        8280 |
|     123 | 0x2059      |        8281 |
|     124 | 0x205A      |        8282 |
|     125 | 0x205B      |        8283 |
|     126 | 0x205C      |        8284 |
|     127 | 0x205D      |        8285 |
|     128 | 0x205E      |        8286 |
|     129 | 0x0140      |         320 |
|     130 | 0x0EDB      |        3803 |
|     131 | 0x205F      |        8287 |
|     132 | 0x2060      |        8288 |
|     133 | 0x00FA      |         250 |
|     134 | 0x0032      |          50 |
|     135 | 0x2061      |        8289 |
|     136 | 0x2062      |        8290 |
|     137 | 0x0C68      |        3176 |
|     138 | 0x0099      |         153 |
|     139 | 0x0EDC      |        3804 |
|     140 | 0x009B      |         155 |
|     141 | 0x0077      |         119 |
|     142 | 0x006E      |         110 |
|     143 | 0x0EDD      |        3805 |
|     144 | 0x0F2C      |        3884 |
|     145 | 0x009C      |         156 |
|     146 | 0x0104      |         260 |
|     147 | 0xFFFF78D8  |  4294932696 |
|     148 | 0xFFF638E0  |  4294326496 |
|     149 | 0xFFF997B0  |  4294547376 |
|     150 | 0x2063      |        8291 |
|     151 | 0x0046      |          70 |
|     152 | 0x0082      |         130 |
|     153 | 0xFFF5DB45  |  4294302533 |
|     154 | 0xFFF991EA  |  4294545898 |
|     155 | 0x0EB9      |        3769 |
|     156 | 0xFFF66112  |  4294336786 |
|     157 | 0xFFF99717  |  4294547223 |
|     158 | 0x07FF      |        2047 |
|     159 | 0x2064      |        8292 |
|     160 | 0x2065      |        8293 |
|     161 | 0x09DF      |        2527 |
|     162 | 0x2066      |        8294 |
|     163 | 0x1B88      |        7048 |
|     164 | 0x1B89      |        7049 |
|     165 | 0xFFF5CA0D  |  4294298125 |
|     166 | 0xFFF99601  |  4294546945 |
|     167 | 0x0E7B      |        3707 |
|     168 | 0xFFF5CEA5  |  4294299301 |
|     169 | 0xFFF99016  |  4294545430 |
|     170 | 0x0AD3      |        2771 |
|     171 | 0xFFF5AE5E  |  4294291038 |
|     172 | 0xFFF97F92  |  4294541202 |
|     173 | 0x0E89      |        3721 |
|     174 | 0x09AB      |        2475 |
|     175 | 0x0BB9      |        3001 |
|     176 | 0x004F      |          79 |
|     177 | 0x02FE      |         766 |
|     178 | 0x2067      |        8295 |
|     179 | 0x2068      |        8296 |
|     180 | 0x2069      |        8297 |
|     181 | 0x206A      |        8298 |
|     182 | 0x0B16      |        2838 |
|     183 | 0x206B      |        8299 |
|     184 | 0x206C      |        8300 |
|     185 | 0x206D      |        8301 |
|     186 | 0x206E      |        8302 |
|     187 | 0x206F      |        8303 |
|     188 | 0x2070      |        8304 |
|     189 | 0x2071      |        8305 |
|     190 | 0x2072      |        8306 |
|     191 | 0x2073      |        8307 |
|     192 | 0x2074      |        8308 |
|     193 | 0x2075      |        8309 |
|     194 | 0x2076      |        8310 |
|     195 | 0x2077      |        8311 |
|     196 | 0x0020      |          32 |
|     197 | 0x2078      |        8312 |
|     198 | 0x2079      |        8313 |
|     199 | 0x207A      |        8314 |
|     200 | 0x207B      |        8315 |
|     201 | 0x0520      |        1312 |
|     202 | 0x207C      |        8316 |
|     203 | 0x207D      |        8317 |
|     204 | 0x085C      |        2140 |
|     205 | 0x207E      |        8318 |
|     206 | 0x0582      |        1410 |
|     207 | 0x207F      |        8319 |
|     208 | 0x2080      |        8320 |
|     209 | 0x2081      |        8321 |
|     210 | 0x0856      |        2134 |
|     211 | 0x2082      |        8322 |
|     212 | 0x2084      |        8324 |
|     213 | 0x2083      |        8323 |
|     214 | 0x2085      |        8325 |
|     215 | 0x2086      |        8326 |
|     216 | 0x2087      |        8327 |
|     217 | 0x0074      |         116 |
|     218 | 0x051E      |        1310 |
|     219 | 0x2088      |        8328 |
|     220 | 0x2089      |        8329 |
|     221 | 0x208A      |        8330 |
|     222 | 0x208B      |        8331 |
|     223 | 0x208C      |        8332 |
|     224 | 0xFFF552A1  |  4294267553 |
|     225 | 0xFFF966FC  |  4294534908 |
|     226 | 0x03F4      |        1012 |
|     227 | 0xFFF5508C  |  4294267020 |
|     228 | 0xFFF95166  |  4294529382 |
|     229 | 0xFFFFFD44  |  4294966596 |
|     230 | 0x0C00      |        3072 |
|     231 | 0xFFF54F60  |  4294266720 |
|     232 | 0xFFFFFE0C  |  4294966796 |
|     233 | 0xFFF551C4  |  4294267332 |
|     234 | 0xFFF951D6  |  4294529494 |
|     235 | 0xFFFFFC18  |  4294966296 |
|     236 | 0x208D      |        8333 |
|     237 | 0x208E      |        8334 |
|     238 | 0x208F      |        8335 |
|     239 | 0x2090      |        8336 |
|     240 | 0x2091      |        8337 |
|     241 | 0x2092      |        8338 |
|     242 | 0x2093      |        8339 |
|     243 | 0x2094      |        8340 |
|     244 | 0x2095      |        8341 |
|     245 | 0x2096      |        8342 |
|     246 | 0xFFF63E40  |  4294327872 |
|     247 | 0xFFF990B4  |  4294545588 |
|     248 | 0x092E      |        2350 |
|     249 | 0xFFF63471  |  4294325361 |
|     250 | 0xFFF9950B  |  4294546699 |
|     251 | 0x00F5      |         245 |
|     252 | 0x2097      |        8343 |
|     253 | 0x2098      |        8344 |
|     254 | 0x1F2F      |        7983 |
|     255 | 0x007C      |         124 |
|     256 | 0x2099      |        8345 |
|     257 | 0x007D      |         125 |
|     258 | 0x03E7      |         999 |

## String References

- **7048**: You are unable to make further progress in Rhapsodies of Vana'diel due to an event occurring in the [Chains of Promathia/Treasures of Aht Urhgan/Wings of the Goddess/Seekers of Adoulin/Rise of the Zilart] missions.
- **7049**: You are unable to make further progress in Rhapsodies of Vana'diel due to an event occurring in the quest [Champion of the Dawn/A Forbidden Reunion].
- **7700**: @@
- **7983**: Warp to [???/Provenance/Walk of Echoes/Pashhow Marshlands]? [Yes./No.]

## Events

### Event 65535

#### Metadata

| Field        | Value   |
|--------------|---------|
| Entrypoint   | 0x0000  |
| Data Size    | 1 bytes |
| Instructions | 1       |

```
      00 01 02 03 04 05 06 07  08 09 0A 0B 0C 0D 0E 0F
      -- -- -- -- -- -- -- --  -- -- -- -- -- -- -- --
0000: 00                                                .               
```

#### Opcodes

```
  0: 0x0000 [0x00] END_REQSTACK()
```

### Event 26

#### Metadata

| Field        | Value     |
|--------------|-----------|
| Entrypoint   | 0x0001    |
| Data Size    | 618 bytes |
| Instructions | 80        |

```
      00 01 02 03 04 05 06 07  08 09 0A 0B 0C 0D 0E 0F
      -- -- -- -- -- -- -- --  -- -- -- -- -- -- -- --
0000:    42 5D 00 80 01 80 45  02 80 F0 FF FF 7F F0 FF   B]....E........
0010: FF 7F 66 64 6F 31 00 80  55 02 80 F0 FF FF 7F F0  ..fdo1..U.......
0020: FF FF 7F 66 64 6F 31 46  01 38 03 80 2F 00 64 62  ...fdo1F.8../.db
0030: 0B 01 4E 00 64 62 0B 01  4E 00 F0 FF FF 7F 92 01  ..N.db..N.......
0040: 64 62 0B 01 94 01 64 62  0B 01 94 01 F0 FF FF 7F  db....db........
0050: BA 64 62 0B 01 04 80 05  80 06 80 07 80 BA F0 FF  .db.............
0060: FF 7F 08 80 09 80 0A 80  07 80 80 64 62 0B 01 80  ...........db...
0070: F0 FF FF 7F 1C 0B 80 29  10 F0 FF FF 7F 07 5C 00  .......)......\.
0080: 0C 80 5C 01 0C 80 9A 45  0D 80 F8 FF FF 7F F8 FF  ..\....E........
0090: FF 7F 73 31 32 35 00 80  1C 0E 80 45 02 80 F0 FF  ..s125.....E....
00A0: FF 7F F0 FF FF 7F 66 64  69 31 00 80 1C 0F 80 27  ......fdi1.....'
00B0: 10 F0 FF FF 7F 08 1C 10  80 52 0D 80 F8 FF FF 7F  .........R......
00C0: F8 FF FF 7F 73 31 32 35  45 0D 80 F8 FF FF 7F F8  ....s125E.......
00D0: FF FF 7F 73 31 32 36 00  80 2A 10 F0 FF FF 7F 27  ...s126..*.....'
00E0: 08 F0 FF FF 7F 59 1C 01  80 52 0D 80 F8 FF FF 7F  .....Y...R......
00F0: F8 FF FF 7F 73 31 32 36  45 0D 80 F8 FF FF 7F F8  ....s126E.......
0100: FF FF 7F 73 31 32 37 00  80 2B 64 62 0B 01 11 80  ...s127..+db....
0110: 23 2A 08 F0 FF FF 7F 27  05 F0 FF FF 7F 11 1C 12  #*.....'........
0120: 80 27 05 F0 FF FF 7F 12  4A 64 62 0B 01 F0 FF FF  .'......Jdb.....
0130: 7F 1C 0B 80 5B 13 80 64  62 0B 01 64 62 0B 01 74  ....[..db..db..t
0140: 68 62 30 1C 14 80 52 0D  80 F8 FF FF 7F F8 FF FF  hb0...R.........
0150: 7F 73 31 32 37 45 0D 80  F8 FF FF 7F F8 FF FF 7F  .s127E..........
0160: 73 31 32 38 00 80 2B 64  62 0B 01 15 80 23 2B 64  s128..+db....#+d
0170: 62 0B 01 16 80 23 55 0D  80 F8 FF FF 7F F8 FF FF  b....#U.........
0180: 7F 73 31 32 38 45 0D 80  F8 FF FF 7F F8 FF FF 7F  .s128E..........
0190: 73 31 32 39 00 80 5B 13  80 64 62 0B 01 64 62 0B  s129..[..db..db.
01A0: 01 74 68 62 31 2B 64 62  0B 01 17 80 23 2B 64 62  .thb1+db....#+db
01B0: 0B 01 18 80 23 7B 64 62  0B 01 81 00 64 62 0B 01  ....#{db....db..
01C0: 7C 00 64 62 0B 01 5B 19  80 64 62 0B 01 64 62 0B  |.db..[..db..db.
01D0: 01 66 64 30 31 5B 1A 80  64 62 0B 01 64 62 0B 01  .fd01[..db..db..
01E0: 74 6C 65 30 1C 14 80 52  0D 80 F8 FF FF 7F F8 FF  tle0...R........
01F0: FF 7F 73 31 32 39 45 0D  80 F8 FF FF 7F F8 FF FF  ..s129E.........
0200: 7F 73 31 33 30 00 80 2B  64 62 0B 01 1B 80 23 5C  .s130..+db....#\
0210: A0 00 80 01 80 5C A1 00  80 02 80 45 02 80 F0 FF  .....\.....E....
0220: FF 7F F0 FF FF 7F 66 64  6F 31 00 80 55 02 80 F0  ......fdo1..U...
0230: FF FF 7F F0 FF FF 7F 66  64 6F 31 52 0D 80 F8 FF  .......fdo1R....
0240: FF 7F F8 FF FF 7F 73 31  33 30 1C 02 80 5C 00 00  ......s130...\..
0250: 80 5C 01 00 80 9A 46 00  45 02 80 F0 FF FF 7F F0  .\....F.E.......
0260: FF FF 7F 66 64 69 32 00  80 21 00                 ...fdi2..!.     
```

#### Opcodes

```
  0: 0x0001 [0x42] SET_CLI_EVENT_CANCEL_DATA()
  1: 0x0002 [0x5D] SET_MUSIC_VOLUME(volume=0*, fade_time=120*)
  2: 0x0007 [0x45] LOAD_SCHEDULED_TASK: Load scheduler "fdo1" with entities [LocalPlayer, LocalPlayer], work=[200*, 0*]
  3: 0x0018 [0x55] WAIT_LOAD_SCHEDULER: Wait for scheduler "fdo1" with entities [LocalPlayer, LocalPlayer], work=200*
  4: 0x0027 [0x46] CAMERA_CONTROL: Disable user control
  5: 0x0029 [0x38] SET_CLIENT_EVENT_MODE(mode=27*)
  6: 0x002C [0x2F] Lilisette (ID: 17523300/0x010B6264)->Render.Flags0 &= ~0x80000 // Bit 19
  7: 0x0032 [0x4E] SET_ENTITY_HIDE_FLAG: Show Lilisette (ID: 17523300/0x010B6264)
  8: 0x0038 [0x4E] SET_ENTITY_HIDE_FLAG: Show LocalPlayer
  9: 0x003E [0x92] Lilisette (ID: 17523300/0x010B6264)->Render.Flags3 ^= 0x01
 10: 0x0044 [0x94] Lilisette (ID: 17523300/0x010B6264)->Render.Flags3 ^= 0x01
 11: 0x004A [0x94] LocalPlayer->Render.Flags3 ^= 0x01
 12: 0x0050 [0xBA] SET_ENTITY_POSITION(entity_id=Lilisette (ID: 17523300/0x010B6264), pos_x=-699.237*, pos_z=-431.141*, pos_y=0.399*, direction=377476129.2°*)
 13: 0x005D [0xBA] SET_ENTITY_POSITION(entity_id=LocalPlayer, pos_x=-700.000*, pos_z=-439.939*, pos_y=0.400*, direction=377476129.2°*)
 14: 0x006A [0x80] LOAD_WAIT(entity=Lilisette (ID: 17523300/0x010B6264))
 15: 0x006F [0x80] LOAD_WAIT(entity=LocalPlayer)
 16: 0x0074 [0x1C] WAIT(30* ticks)
 17: 0x0077 [0x29] REQ_SET_WAIT(priority=0x10, entity_id=LocalPlayer, tag_num=0x07)
 18: 0x007E [0x5C] MUSIC_CONTROL: Set Idle (Day) music to song 40*
 19: 0x0082 [0x5C] MUSIC_CONTROL: Set Idle (Night) music to song 40*
 20: 0x0086 [0x9A] WAIT_MUSIC_SERVER()
 21: 0x0087 [0x45] LOAD_SCHEDULED_TASK: Load scheduler "s125" with entities [EventEntity, EventEntity], work=[764*, 0*]
 22: 0x0098 [0x1C] WAIT(15* ticks)
 23: 0x009B [0x45] LOAD_SCHEDULED_TASK: Load scheduler "fdi1" with entities [LocalPlayer, LocalPlayer], work=[200*, 0*]
 24: 0x00AC [0x1C] WAIT(90* ticks)
 25: 0x00AF [0x27] REQ_SET(priority=0x10, entity_id=LocalPlayer, tag_num=0x08)
 26: 0x00B6 [0x1C] WAIT(60* ticks)
 27: 0x00B9 [0x52] END_LOAD_SCHEDULER: End scheduler "s125" with entities [EventEntity, EventEntity], work=764*
 28: 0x00C8 [0x45] LOAD_SCHEDULED_TASK: Load scheduler "s126" with entities [EventEntity, EventEntity], work=[764*, 0*]
 29: 0x00D9 [0x2A] GET_REQ_LEVEL(level=16, entity_id=LocalPlayer)
 30: 0x00DF [0x27] REQ_SET(priority=0x08, entity_id=LocalPlayer, tag_num=0x59)
 31: 0x00E6 [0x1C] WAIT(120* ticks)
 32: 0x00E9 [0x52] END_LOAD_SCHEDULER: End scheduler "s126" with entities [EventEntity, EventEntity], work=764*
 33: 0x00F8 [0x45] LOAD_SCHEDULED_TASK: Load scheduler "s127" with entities [EventEntity, EventEntity], work=[764*, 0*]
 34: 0x0109 [0x2B] Lilisette (ID: 17523300/0x010B6264) [8263*]:
    → "So this is the Walk of Echoes..."
 35: 0x0110 [0x23] WAIT_FOR_DIALOG_INTERACTION
 36: 0x0111 [0x2A] GET_REQ_LEVEL(level=8, entity_id=LocalPlayer)
 37: 0x0117 [0x27] REQ_SET(priority=0x05, entity_id=LocalPlayer, tag_num=0x11)
 38: 0x011E [0x1C] WAIT(80* ticks)
 39: 0x0121 [0x27] REQ_SET(priority=0x05, entity_id=LocalPlayer, tag_num=0x12)
 40: 0x0128 [0x4A] Lilisette (ID: 17523300/0x010B6264) looks at LocalPlayer
 41: 0x0131 [0x1C] WAIT(30* ticks)
 42: 0x0134 [0x5B] LOAD_EXT_SCHEDULER: Load scheduler "thb0" with entities [Lilisette (ID: 17523300/0x010B6264), Lilisette (ID: 17523300/0x010B6264)], work=2133*
 43: 0x0143 [0x1C] WAIT(10* ticks)
 44: 0x0146 [0x52] END_LOAD_SCHEDULER: End scheduler "s127" with entities [EventEntity, EventEntity], work=764*
 45: 0x0155 [0x45] LOAD_SCHEDULED_TASK: Load scheduler "s128" with entities [EventEntity, EventEntity], work=[764*, 0*]
 46: 0x0166 [0x2B] Lilisette (ID: 17523300/0x010B6264) [8264*]:
    → "So you mean the futures of a thousand worlds all collide here?"
 47: 0x016D [0x23] WAIT_FOR_DIALOG_INTERACTION
 48: 0x016E [0x2B] Lilisette (ID: 17523300/0x010B6264) [8265*]:
    → "I would have expected it to be brighter and more full of hope."
 49: 0x0175 [0x23] WAIT_FOR_DIALOG_INTERACTION
 50: 0x0176 [0x55] WAIT_LOAD_SCHEDULER: Wait for scheduler "s128" with entities [EventEntity, EventEntity], work=764*
 51: 0x0185 [0x45] LOAD_SCHEDULED_TASK: Load scheduler "s129" with entities [EventEntity, EventEntity], work=[764*, 0*]
 52: 0x0196 [0x5B] LOAD_EXT_SCHEDULER: Load scheduler "thb1" with entities [Lilisette (ID: 17523300/0x010B6264), Lilisette (ID: 17523300/0x010B6264)], work=2133*
 53: 0x01A5 [0x2B] Lilisette (ID: 17523300/0x010B6264) [8266*]:
    → "Before I found myself, I would have run away from such a dismal place."
 54: 0x01AC [0x23] WAIT_FOR_DIALOG_INTERACTION
 55: 0x01AD [0x2B] Lilisette (ID: 17523300/0x010B6264) [8267*]:
    → "But now that I've seen what the future may hold, I won't. I can't."
 56: 0x01B4 [0x23] WAIT_FOR_DIALOG_INTERACTION
 57: 0x01B5 [0x7B] Lilisette (ID: 17523300/0x010B6264) stops talking
 58: 0x01BA [0x81] SET_ENTITY_BLINKING(blink_flag=0x00, entity=Lilisette (ID: 17523300/0x010B6264))
 59: 0x01C0 [0x7C] Lilisette (ID: 17523300/0x010B6264)->Render.Flags2 |= 0x00
 60: 0x01C6 [0x5B] LOAD_EXT_SCHEDULER: Load scheduler "fd01" with entities [Lilisette (ID: 17523300/0x010B6264), Lilisette (ID: 17523300/0x010B6264)], work=2135*
 61: 0x01D5 [0x5B] LOAD_EXT_SCHEDULER: Load scheduler "tle0" with entities [Lilisette (ID: 17523300/0x010B6264), Lilisette (ID: 17523300/0x010B6264)], work=2132*
 62: 0x01E4 [0x1C] WAIT(10* ticks)
 63: 0x01E7 [0x52] END_LOAD_SCHEDULER: End scheduler "s129" with entities [EventEntity, EventEntity], work=764*
 64: 0x01F6 [0x45] LOAD_SCHEDULED_TASK: Load scheduler "s130" with entities [EventEntity, EventEntity], work=[764*, 0*]
 65: 0x0207 [0x2B] Lilisette (ID: 17523300/0x010B6264) [8268*]:
    → "I'll follow you to the ends of Vana'diel, <Player>! Let's go."
 66: 0x020E [0x23] WAIT_FOR_DIALOG_INTERACTION
 67: 0x020F [0x5C] MUSIC_CONTROL: Set music volume to song 0*, fade_time=120*
 68: 0x0215 [0x5C] MUSIC_CONTROL: Adjust music volume to song 0*, fade_time=200*
 69: 0x021B [0x45] LOAD_SCHEDULED_TASK: Load scheduler "fdo1" with entities [LocalPlayer, LocalPlayer], work=[200*, 0*]
 70: 0x022C [0x55] WAIT_LOAD_SCHEDULER: Wait for scheduler "fdo1" with entities [LocalPlayer, LocalPlayer], work=200*
 71: 0x023B [0x52] END_LOAD_SCHEDULER: End scheduler "s130" with entities [EventEntity, EventEntity], work=764*
 72: 0x024A [0x1C] WAIT(200* ticks)
 73: 0x024D [0x5C] MUSIC_CONTROL: Set Idle (Day) music to song 0*
 74: 0x0251 [0x5C] MUSIC_CONTROL: Set Idle (Night) music to song 0*
 75: 0x0255 [0x9A] WAIT_MUSIC_SERVER()
 76: 0x0256 [0x46] CAMERA_CONTROL: Restore default settings
 77: 0x0258 [0x45] LOAD_SCHEDULED_TASK: Load scheduler "fdi2" with entities [LocalPlayer, LocalPlayer], work=[200*, 0*]
 78: 0x0269 [0x21] END_EVENT
 79: 0x026A [0x00] END_REQSTACK()
```

### Event 27

#### Metadata

| Field        | Value      |
|--------------|------------|
| Entrypoint   | 0x026B     |
| Data Size    | 6606 bytes |
| Instructions | 677        |

```
      00 01 02 03 04 05 06 07  08 09 0A 0B 0C 0D 0E 0F
      -- -- -- -- -- -- -- --  -- -- -- -- -- -- -- --
0260:                                   42 03 00 00 02             B....
0270: 10 03 01 00 03 10 03 02  00 04 10 45 02 80 F0 FF  ...........E....
0280: FF 7F F0 FF FF 7F 66 64  6F 31 00 80 55 02 80 F0  ......fdo1..U...
0290: FF FF 7F F0 FF FF 7F 66  64 6F 31 46 01 38 03 80  .......fdo1F.8..
02A0: 77 1C 80 1D 80 1C 0B 80  AB 09 2D F0 FF FF 7F F0  w.........-.....
02B0: FF FF 7F 73 74 61 31 2D  F0 FF FF 7F F0 FF FF 7F  ...sta1-........
02C0: 73 74 61 32 2D F0 FF FF  7F F0 FF FF 7F 73 74 61  sta2-........sta
02D0: 33 2D F0 FF FF 7F F0 FF  FF 7F 73 74 61 34 2F 00  3-........sta4/.
02E0: 64 62 0B 01 2F 00 58 62  0B 01 4E 00 64 62 0B 01  db../.Xb..N.db..
02F0: 4E 00 58 62 0B 01 92 01  64 62 0B 01 92 01 58 62  N.Xb....db....Xb
0300: 0B 01 94 01 64 62 0B 01  94 01 58 62 0B 01 94 01  ....db....Xb....
0310: F0 FF FF 7F 02 01 00 1E  80 00 23 03 27 05 58 62  ..........#.'.Xb
0320: 0B 01 90 BA 64 62 0B 01  1F 80 20 80 21 80 22 80  ....db.... .!.".
0330: BA 58 62 0B 01 23 80 24  80 25 80 26 80 BA F0 FF  .Xb..#.$.%.&....
0340: FF 7F 27 80 28 80 21 80  29 80 80 64 62 0B 01 80  ..'.(.!.)..db...
0350: 58 62 0B 01 80 F0 FF FF  7F 45 2A 80 F8 FF FF 7F  Xb.......E*.....
0360: F8 FF FF 7F 73 30 30 30  00 80 1C 0E 80 45 02 80  ....s000.....E..
0370: F0 FF FF 7F F0 FF FF 7F  66 64 69 31 00 80 1C 2B  ........fdi1...+
0380: 80 27 05 58 62 0B 01 8A  1C 2C 80 52 2A 80 F8 FF  .'.Xb....,.R*...
0390: FF 7F F8 FF FF 7F 73 30  30 30 45 2A 80 F8 FF FF  ......s000E*....
03A0: 7F F8 FF FF 7F 73 30 30  31 00 80 2B 58 62 0B 01  .....s001..+Xb..
03B0: 2D 80 1C 10 80 4A F0 FF  FF 7F 58 62 0B 01 1C 0B  -....J....Xb....
03C0: 80 4A 64 62 0B 01 58 62  0B 01 1C 0B 80 52 2A 80  .Jdb..Xb.....R*.
03D0: F8 FF FF 7F F8 FF FF 7F  73 30 30 31 45 2A 80 F8  ........s001E*..
03E0: FF FF 7F F8 FF FF 7F 73  30 30 32 00 80 1C 0F 80  .......s002.....
03F0: 23 2A 05 58 62 0B 01 5B  2E 80 58 62 0B 01 58 62  #*.Xb..[..Xb..Xb
0400: 0B 01 74 6C 62 30 52 2A  80 F8 FF FF 7F F8 FF FF  ..tlb0R*........
0410: 7F 73 30 30 32 52 2A 80  F8 FF FF 7F F8 FF FF 7F  .s002R*.........
0420: 73 30 30 33 45 2A 80 F8  FF FF 7F F8 FF FF 7F 73  s003E*.........s
0430: 30 30 34 00 80 2B 58 62  0B 01 2F 80 23 5B 2E 80  004..+Xb../.#[..
0440: 58 62 0B 01 58 62 0B 01  74 6C 62 31 52 2A 80 F8  Xb..Xb..tlb1R*..
0450: FF FF 7F F8 FF FF 7F 73  30 30 34 45 2A 80 F8 FF  .......s004E*...
0460: FF 7F F8 FF FF 7F 73 30  30 35 00 80 1C 10 80 27  ......s005.....'
0470: 05 58 62 0B 01 8B 1C 14  80 27 05 F0 FF FF 7F 5B  .Xb......'.....[
0480: 1C 14 80 27 05 64 62 0B  01 1C 1C 0F 80 45 02 80  ...'.db......E..
0490: F0 FF FF 7F F0 FF FF 7F  66 64 6F 31 00 80 55 02  ........fdo1..U.
04A0: 80 F0 FF FF 7F F0 FF FF  7F 66 64 6F 31 52 2A 80  .........fdo1R*.
04B0: F8 FF FF 7F F8 FF FF 7F  73 30 30 35 7B 64 62 0B  ........s005{db.
04C0: 01 7A 00 58 62 0B 01 7A  00 F0 FF FF 7F 7A 00 64  .z.Xb..z.....z.d
04D0: 62 0B 01 2F 00 97 62 0B  01 2F 00 98 62 0B 01 2F  b../..b../..b../
04E0: 00 99 62 0B 01 2F 00 9A  62 0B 01 2F 00 9B 62 0B  ..b../..b../..b.
04F0: 01 2F 00 9C 62 0B 01 2F  00 9D 62 0B 01 4E 00 97  ./..b../..b..N..
0500: 62 0B 01 4E 00 98 62 0B  01 4E 00 99 62 0B 01 4E  b..N..b..N..b..N
0510: 00 9A 62 0B 01 4E 00 9B  62 0B 01 4E 00 9C 62 0B  ..b..N..b..N..b.
0520: 01 4E 00 9D 62 0B 01 92  01 97 62 0B 01 94 01 97  .N..b.....b.....
0530: 62 0B 01 94 01 98 62 0B  01 94 01 99 62 0B 01 94  b.....b.....b...
0540: 01 9A 62 0B 01 94 01 9B  62 0B 01 94 01 9C 62 0B  ..b.....b.....b.
0550: 01 94 01 9D 62 0B 01 59  05 97 62 0B 01 01 59 05  ....b..Y..b...Y.
0560: 98 62 0B 01 01 59 05 99  62 0B 01 01 59 05 9A 62  .b...Y..b...Y..b
0570: 0B 01 01 59 05 9B 62 0B  01 01 59 05 9C 62 0B 01  ...Y..b...Y..b..
0580: 01 59 05 9D 62 0B 01 01  27 05 98 62 0B 01 02 BA  .Y..b...'..b....
0590: 64 62 0B 01 30 80 31 80  0A 80 32 80 BA 58 62 0B  db..0.1...2..Xb.
05A0: 01 33 80 34 80 0A 80 32  80 BA F0 FF FF 7F 35 80  .3.4...2......5.
05B0: 36 80 06 80 32 80 BA 97  62 0B 01 37 80 31 80 38  6...2...b..7.1.8
05C0: 80 32 80 BA 98 62 0B 01  39 80 3A 80 06 80 00 80  .2...b..9.:.....
05D0: BA 99 62 0B 01 3B 80 3C  80 3D 80 32 80 BA 9A 62  ..b..;.<.=.2...b
05E0: 0B 01 3E 80 3F 80 40 80  32 80 BA 9B 62 0B 01 41  ..>.?.@.2...b..A
05F0: 80 42 80 43 80 32 80 BA  9C 62 0B 01 44 80 45 80  .B.C.2...b..D.E.
0600: 46 80 32 80 BA 9D 62 0B  01 47 80 31 80 38 80 32  F.2...b..G.1.8.2
0610: 80 80 64 62 0B 01 80 58  62 0B 01 80 F0 FF FF 7F  ..db...Xb.......
0620: 80 97 62 0B 01 80 99 62  0B 01 80 9A 62 0B 01 80  ..b....b....b...
0630: 9B 62 0B 01 80 9C 62 0B  01 80 9D 62 0B 01 79 00  .b....b....b..y.
0640: F0 FF FF 7F 97 62 0B 01  1C 0B 80 27 05 99 62 0B  .....b.....'..b.
0650: 01 03 81 00 58 62 0B 01  5B 48 80 97 62 0B 01 97  ....Xb..[H..b...
0660: 62 0B 01 66 79 75 30 5B  49 80 58 62 0B 01 58 62  b..fyu0[I.Xb..Xb
0670: 0B 01 6D 69 72 30 5B 4A  80 64 62 0B 01 64 62 0B  ..mir0[J.db..db.
0680: 01 6D 69 72 30 5F 03 4B  80 98 62 0B 01 98 62 0B  .mir0_.K..b...b.
0690: 01 6B 65 6E 30 1C 0B 80  5C 00 12 80 5C 01 12 80  .ken0...\...\...
06A0: 9A 48 4C 80 23 45 2A 80  F8 FF FF 7F F8 FF FF 7F  .HL.#E*.........
06B0: 73 30 30 36 00 80 1C 0E  80 45 02 80 F0 FF FF 7F  s006.....E......
06C0: F0 FF FF 7F 66 64 69 31  00 80 1C 10 80 2B 64 62  ....fdi1.....+db
06D0: 0B 01 4D 80 23 52 2A 80  F8 FF FF 7F F8 FF FF 7F  ..M.#R*.........
06E0: 73 30 30 36 45 2A 80 F8  FF FF 7F F8 FF FF 7F 73  s006E*.........s
06F0: 30 30 37 00 80 1C 4E 80  52 2A 80 F8 FF FF 7F F8  007...N.R*......
0700: FF FF 7F 73 30 30 37 45  2A 80 F8 FF FF 7F F8 FF  ...s007E*.......
0710: FF 7F 73 30 30 38 00 80  D0 4F 80 99 62 0B 01 99  ..s008...O..b...
0720: 62 0B 01 61 74 6D 30 00  80 D0 4F 80 99 62 0B 01  b..atm0...O..b..
0730: 99 62 0B 01 73 65 61 30  00 80 1C 0B 80 D0 4F 80  .b..sea0......O.
0740: 9A 62 0B 01 9A 62 0B 01  61 74 6D 30 00 80 1C 0B  .b...b..atm0....
0750: 80 D0 4F 80 9B 62 0B 01  9B 62 0B 01 61 74 6D 30  ..O..b...b..atm0
0760: 00 80 1C 0B 80 D0 4F 80  9C 62 0B 01 9C 62 0B 01  ......O..b...b..
0770: 61 74 6D 30 00 80 1C 10  80 52 2A 80 F8 FF FF 7F  atm0.....R*.....
0780: F8 FF FF 7F 73 30 30 38  45 2A 80 F8 FF FF 7F F8  ....s008E*......
0790: FF FF 7F 73 30 30 39 00  80 1C 4E 80 52 2A 80 F8  ...s009...N.R*..
07A0: FF FF 7F F8 FF FF 7F 73  30 30 39 45 2A 80 F8 FF  .......s009E*...
07B0: FF 7F F8 FF FF 7F 73 30  31 30 00 80 1C 01 80 52  ......s010.....R
07C0: 2A 80 F8 FF FF 7F F8 FF  FF 7F 73 30 31 30 45 2A  *.........s010E*
07D0: 80 F8 FF FF 7F F8 FF FF  7F 73 30 31 31 00 80 D0  .........s011...
07E0: 4F 80 99 62 0B 01 97 62  0B 01 61 74 6D 31 00 80  O..b...b..atm1..
07F0: D0 4F 80 9A 62 0B 01 97  62 0B 01 61 74 6D 31 00  .O..b...b..atm1.
0800: 80 D0 4F 80 99 62 0B 01  99 62 0B 01 73 65 61 31  ..O..b...b..sea1
0810: 00 80 1C 0B 80 D0 4F 80  9B 62 0B 01 97 62 0B 01  ......O..b...b..
0820: 61 74 6D 31 00 80 D0 4F  80 9C 62 0B 01 97 62 0B  atm1...O..b...b.
0830: 01 61 74 6D 31 00 80 1C  4E 80 D0 4F 80 97 62 0B  .atm1...N..O..b.
0840: 01 99 62 0B 01 65 6C 30  30 00 80 1C 0B 80 D0 4F  ..b..el00......O
0850: 80 97 62 0B 01 9A 62 0B  01 65 6C 30 30 00 80 1C  ..b...b..el00...
0860: 0B 80 52 2A 80 F8 FF FF  7F F8 FF FF 7F 73 30 31  ..R*.........s01
0870: 31 45 2A 80 F8 FF FF 7F  F8 FF FF 7F 73 30 31 32  1E*.........s012
0880: 00 80 5B 48 80 97 62 0B  01 97 62 0B 01 66 79 75  ..[H..b...b..fyu
0890: 31 D0 4F 80 97 62 0B 01  9B 62 0B 01 65 6C 30 30  1.O..b...b..el00
08A0: 00 80 1C 01 80 D0 4F 80  97 62 0B 01 9C 62 0B 01  ......O..b...b..
08B0: 65 6C 30 31 00 80 1C 10  80 D0 4F 80 99 62 0B 01  el01......O..b..
08C0: 99 62 0B 01 61 6B 6C 30  00 80 D0 4F 80 9A 62 0B  .b..akl0...O..b.
08D0: 01 9A 62 0B 01 61 6B 6C  30 00 80 D0 4F 80 9B 62  ..b..akl0...O..b
08E0: 0B 01 9B 62 0B 01 61 6B  6C 30 00 80 D0 4F 80 9C  ...b..akl0...O..
08F0: 62 0B 01 9C 62 0B 01 61  6B 6C 30 00 80 52 2A 80  b...b..akl0..R*.
0900: F8 FF FF 7F F8 FF FF 7F  73 30 31 32 45 2A 80 F8  ........s012E*..
0910: FF FF 7F F8 FF FF 7F 73  30 31 33 00 80 1C 4E 80  .......s013...N.
0920: 52 2A 80 F8 FF FF 7F F8  FF FF 7F 73 30 31 33 45  R*.........s013E
0930: 2A 80 F8 FF FF 7F F8 FF  FF 7F 73 30 31 34 00 80  *.........s014..
0940: 27 05 99 62 0B 01 02 D0  4F 80 99 62 0B 01 99 62  '..b....O..b...b
0950: 0B 01 61 74 6D 32 00 80  D0 4F 80 99 62 0B 01 99  ..atm2...O..b...
0960: 62 0B 01 73 65 61 32 00  80 1C 0B 80 27 05 9A 62  b..sea2.....'..b
0970: 0B 01 02 D0 4F 80 9A 62  0B 01 9A 62 0B 01 61 74  ....O..b...b..at
0980: 6D 32 00 80 1C 0B 80 27  05 9B 62 0B 01 02 D0 4F  m2.....'..b....O
0990: 80 9B 62 0B 01 9B 62 0B  01 61 74 6D 32 00 80 1C  ..b...b..atm2...
09A0: 0B 80 27 05 9C 62 0B 01  02 D0 4F 80 9C 62 0B 01  ..'..b....O..b..
09B0: 9C 62 0B 01 61 74 6D 32  00 80 1C 0F 80 5B 50 80  .b..atm2.....[P.
09C0: 58 62 0B 01 58 62 0B 01  62 69 6B 30 52 2A 80 F8  Xb..Xb..bik0R*..
09D0: FF FF 7F F8 FF FF 7F 73  30 31 34 45 2A 80 F8 FF  .......s014E*...
09E0: FF 7F F8 FF FF 7F 73 30  31 35 00 80 2B 58 62 0B  ......s015..+Xb.
09F0: 01 51 80 23 52 2A 80 F8  FF FF 7F F8 FF FF 7F 73  .Q.#R*.........s
0A00: 30 31 35 5F 03 52 80 9D  62 0B 01 9D 62 0B 01 66  015_.R..b...b..f
0A10: 72 69 31 5F 03 48 80 97  62 0B 01 97 62 0B 01 66  ri1_.H..b...b..f
0A20: 72 69 30 1C 12 80 5F 03  52 80 9D 62 0B 01 9D 62  ri0..._.R..b...b
0A30: 0B 01 66 72 69 33 1C 53  80 5F 03 52 80 9D 62 0B  ..fri3.S._.R..b.
0A40: 01 9D 62 0B 01 66 72 69  32 1C 0F 80 27 05 58 62  ..b..fri2...'.Xb
0A50: 0B 01 8C 1C 14 80 5F 03  54 80 9D 62 0B 01 9D 62  ......_.T..b...b
0A60: 0B 01 63 6D 6F 66 5F 02  9D 62 0B 01 45 2A 80 F8  ..cmof_..b..E*..
0A70: FF FF 7F F8 FF FF 7F 73  30 31 36 00 80 1C 10 80  .......s016.....
0A80: 6B 69 64 6C 30 64 62 0B  01 D0 4F 80 99 62 0B 01  kidl0db...O..b..
0A90: 99 62 0B 01 61 6B 6C 30  00 80 D0 4F 80 9A 62 0B  .b..akl0...O..b.
0AA0: 01 9A 62 0B 01 61 6B 6C  30 00 80 D0 4F 80 9B 62  ..b..akl0...O..b
0AB0: 0B 01 9B 62 0B 01 61 6B  6C 30 00 80 D0 4F 80 9C  ...b..akl0...O..
0AC0: 62 0B 01 9C 62 0B 01 61  6B 6C 30 00 80 D0 4F 80  b...b..akl0...O.
0AD0: 99 62 0B 01 99 62 0B 01  73 6B 6C 30 00 80 6B 69  .b...b..skl0..ki
0AE0: 64 6C 30 99 62 0B 01 6B  69 64 6C 30 9A 62 0B 01  dl0.b..kidl0.b..
0AF0: 6B 69 64 6C 30 9B 62 0B  01 27 05 99 62 0B 01 08  kidl0.b..'..b...
0B00: 27 05 9A 62 0B 01 04 27  05 9B 62 0B 01 03 4E 01  '..b...'..b...N.
0B10: 99 62 0B 01 4E 01 9A 62  0B 01 4E 01 9B 62 0B 01  .b..N..b..N..b..
0B20: 4E 01 9C 62 0B 01 BA 9A  62 0B 01 30 80 31 80 0A  N..b....b..0.1..
0B30: 80 32 80 BA 9B 62 0B 01  55 80 56 80 06 80 57 80  .2...b..U.V...W.
0B40: 5F 03 48 80 97 62 0B 01  97 62 0B 01 66 72 69 31  _.H..b...b..fri1
0B50: 1C 10 80 52 2A 80 F8 FF  FF 7F F8 FF FF 7F 73 30  ...R*.........s0
0B60: 31 36 45 2A 80 F8 FF FF  7F F8 FF FF 7F 73 30 31  16E*.........s01
0B70: 37 00 80 2A 05 58 62 0B  01 5B 2E 80 58 62 0B 01  7..*.Xb..[..Xb..
0B80: 58 62 0B 01 74 6C 62 30  2B 58 62 0B 01 58 80 23  Xb..tlb0+Xb..X.#
0B90: 52 2A 80 F8 FF FF 7F F8  FF FF 7F 73 30 31 37 45  R*.........s017E
0BA0: 2A 80 F8 FF FF 7F F8 FF  FF 7F 73 30 31 38 00 80  *.........s018..
0BB0: 2B 58 62 0B 01 59 80 23  BA 9D 62 0B 01 37 80 31  +Xb..Y.#..b..7.1
0BC0: 80 38 80 32 80 BA 97 62  0B 01 37 80 31 80 38 80  .8.2...b..7.1.8.
0BD0: 32 80 27 05 99 62 0B 01  05 1C 14 80 5B 2E 80 58  2.'..b......[..X
0BE0: 62 0B 01 58 62 0B 01 74  6C 62 31 52 2A 80 F8 FF  b..Xb..tlb1R*...
0BF0: FF 7F F8 FF FF 7F 73 30  31 38 AE 05 9D 62 0B 01  ......s018...b..
0C00: 97 62 0B 01 5F 03 52 80  9D 62 0B 01 9D 62 0B 01  .b.._.R..b...b..
0C10: 61 74 6B 30 5F 03 4B 80  97 62 0B 01 97 62 0B 01  atk0_.K..b...b..
0C20: 61 74 6B 30 D0 5A 80 97  62 0B 01 97 62 0B 01 78  atk0.Z..b...b..x
0C30: 63 30 30 00 80 1C 5B 80  81 00 64 62 0B 01 7C 00  c00...[...db..|.
0C40: 64 62 0B 01 5B 19 80 64  62 0B 01 64 62 0B 01 66  db..[..db..db..f
0C50: 6A 30 31 5B 5C 80 64 62  0B 01 64 62 0B 01 68 64  j01[\.db..db..hd
0C60: 62 30 5F 03 54 80 9D 62  0B 01 9D 62 0B 01 63 6D  b0_.T..b...b..cm
0C70: 6F 66 5F 02 9D 62 0B 01  45 2A 80 F8 FF FF 7F F8  of_..b..E*......
0C80: FF FF 7F 73 30 31 39 00  80 2B 64 62 0B 01 5D 80  ...s019..+db..].
0C90: 1C 0F 80 5B 19 80 64 62  0B 01 64 62 0B 01 66 6A  ...[..db..db..fj
0CA0: 30 30 52 2A 80 F8 FF FF  7F F8 FF FF 7F 73 30 31  00R*.........s01
0CB0: 39 45 2A 80 F8 FF FF 7F  F8 FF FF 7F 73 30 32 30  9E*.........s020
0CC0: 00 80 D0 5A 80 F8 FF FF  7F F8 FF FF 7F 6B 73 6B  ...Z.........ksk
0CD0: 30 00 80 1C 10 80 7B F0  FF FF 7F BA 64 62 0B 01  0.....{.....db..
0CE0: 30 80 31 80 0A 80 5E 80  BA F0 FF FF 7F 5F 80 60  0.1...^......_.`
0CF0: 80 06 80 32 80 27 05 99  62 0B 01 06 1C 2C 80 52  ...2.'..b....,.R
0D00: 2A 80 F8 FF FF 7F F8 FF  FF 7F 73 30 32 30 5F 03  *.........s020_.
0D10: 52 80 9D 62 0B 01 9D 62  0B 01 6D 69 72 30 5F 03  R..b...b..mir0_.
0D20: 4B 80 97 62 0B 01 97 62  0B 01 6D 69 72 30 C5 61  K..b...b..mir0.a
0D30: 80 58 62 0B 01 58 62 0B  01 68 69 74 30 00 80 1C  .Xb..Xb..hit0...
0D40: 01 80 BA 58 62 0B 01 33  80 34 80 0A 80 57 80 5B  ...Xb..3.4...W.[
0D50: 62 80 58 62 0B 01 58 62  0B 01 34 33 30 32 D0 63  b.Xb..Xb..4302.c
0D60: 80 58 62 0B 01 58 62 0B  01 65 31 6F 6E 00 80 AE  .Xb..Xb..e1on...
0D70: 06 97 62 0B 01 5F 03 54  80 9D 62 0B 01 9D 62 0B  ..b.._.T..b...b.
0D80: 01 63 6D 6F 66 5F 02 9D  62 0B 01 45 2A 80 F8 FF  .cmof_..b..E*...
0D90: FF 7F F8 FF FF 7F 73 30  32 31 00 80 5B 64 80 64  ......s021..[d.d
0DA0: 62 0B 01 64 62 0B 01 64  73 68 6C 02 87 7F 1E 80  b..db..dshl.....
0DB0: 80 C5 0D 66 5E 80 F0 FF  FF 7F F0 FF FF 7F 6D 61  ...f^.........ma
0DC0: 62 30 01 7B 0E 02 87 7F  65 80 80 DF 0D 66 4E 80  b0.{....e....fN.
0DD0: F0 FF FF 7F F0 FF FF 7F  6D 61 62 30 01 7B 0E 02  ........mab0.{..
0DE0: 87 7F 66 80 80 F9 0D 66  67 80 F0 FF FF 7F F0 FF  ..f....fg.......
0DF0: FF 7F 6D 61 62 30 01 7B  0E 02 87 7F 68 80 80 13  ..mab0.{....h...
0E00: 0E 66 69 80 F0 FF FF 7F  F0 FF FF 7F 6D 61 62 30  .fi.........mab0
0E10: 01 7B 0E 02 87 7F 6A 80  80 2D 0E 66 53 80 F0 FF  .{....j..-.fS...
0E20: FF 7F F0 FF FF 7F 6D 61  62 30 01 7B 0E 02 87 7F  ......mab0.{....
0E30: 6B 80 80 47 0E 66 53 80  F0 FF FF 7F F0 FF FF 7F  k..G.fS.........
0E40: 6D 61 62 30 01 7B 0E 02  87 7F 6C 80 80 61 0E 66  mab0.{....l..a.f
0E50: 6D 80 F0 FF FF 7F F0 FF  FF 7F 6D 61 62 30 01 7B  m.........mab0.{
0E60: 0E 02 87 7F 6E 80 80 7B  0E 66 02 80 F0 FF FF 7F  ....n..{.f......
0E70: F0 FF FF 7F 6D 61 62 30  01 7B 0E 2B 58 62 0B 01  ....mab0.{.+Xb..
0E80: 6F 80 1C 10 80 27 05 98  62 0B 01 03 1C 10 80 52  o....'..b......R
0E90: 2A 80 F8 FF FF 7F F8 FF  FF 7F 73 30 32 31 45 2A  *.........s021E*
0EA0: 80 F8 FF FF 7F F8 FF FF  7F 73 30 32 32 00 80 5B  .........s022..[
0EB0: 62 80 58 62 0B 01 58 62  0B 01 34 33 73 34 D0 63  b.Xb..Xb..43s4.c
0EC0: 80 58 62 0B 01 58 62 0B  01 65 32 6F 6E 00 80 1C  .Xb..Xb..e2on...
0ED0: 0B 80 CD 6C 80 F8 FF FF  7F F8 FF FF 7F 73 30 30  ...l.........s00
0EE0: 32 00 80 1C 0B 80 1C 10  80 D0 5A 80 98 62 0B 01  2.........Z..b..
0EF0: 98 62 0B 01 78 63 30 31  00 80 D0 5A 80 98 62 0B  .b..xc01...Z..b.
0F00: 01 98 62 0B 01 6B 6D 30  30 00 80 1C 0B 80 52 2A  ..b..km00.....R*
0F10: 80 F8 FF FF 7F F8 FF FF  7F 73 30 32 32 45 2A 80  .........s022E*.
0F20: F8 FF FF 7F F8 FF FF 7F  73 30 32 33 00 80 02 87  ........s023....
0F30: 7F 1E 80 80 48 0F 66 5E  80 F0 FF FF 7F F0 FF FF  ....H.f^........
0F40: 7F 6D 61 62 31 01 FE 0F  02 87 7F 65 80 80 62 0F  .mab1......e..b.
0F50: 66 4E 80 F0 FF FF 7F F0  FF FF 7F 6D 61 62 31 01  fN.........mab1.
0F60: FE 0F 02 87 7F 66 80 80  7C 0F 66 67 80 F0 FF FF  .....f..|.fg....
0F70: 7F F0 FF FF 7F 6D 61 62  31 01 FE 0F 02 87 7F 68  .....mab1......h
0F80: 80 80 96 0F 66 69 80 F0  FF FF 7F F0 FF FF 7F 6D  ....fi.........m
0F90: 61 62 31 01 FE 0F 02 87  7F 6A 80 80 B0 0F 66 53  ab1......j....fS
0FA0: 80 F0 FF FF 7F F0 FF FF  7F 6D 61 62 31 01 FE 0F  .........mab1...
0FB0: 02 87 7F 6B 80 80 CA 0F  66 53 80 F0 FF FF 7F F0  ...k....fS......
0FC0: FF FF 7F 6D 61 62 31 01  FE 0F 02 87 7F 6C 80 80  ...mab1......l..
0FD0: E4 0F 66 6D 80 F0 FF FF  7F F0 FF FF 7F 6D 61 62  ..fm.........mab
0FE0: 31 01 FE 0F 02 87 7F 6E  80 80 FE 0F 66 02 80 F0  1......n....f...
0FF0: FF FF 7F F0 FF FF 7F 6D  61 62 31 01 FE 0F 1C 2B  .......mab1....+
1000: 80 BA 97 62 0B 01 70 80  31 80 71 80 32 80 5F 03  ...b..p.1.q.2._.
1010: 4B 80 97 62 0B 01 97 62  0B 01 6D 69 6F 30 1C 2B  K..b...b..mio0.+
1020: 80 52 2A 80 F8 FF FF 7F  F8 FF FF 7F 73 30 32 33  .R*.........s023
1030: 02 87 7F 6A 80 80 4C 10  45 2A 80 F8 FF FF 7F F8  ...j..L.E*......
1040: FF FF 7F 73 30 32 35 00  80 01 79 10 02 87 7F 6B  ...s025...y....k
1050: 80 80 68 10 45 2A 80 F8  FF FF 7F F8 FF FF 7F 73  ..h.E*.........s
1060: 30 32 35 00 80 01 79 10  45 2A 80 F8 FF FF 7F F8  025...y.E*......
1070: FF FF 7F 73 30 32 34 00  80 1C 10 80 D0 5A 80 98  ...s024......Z..
1080: 62 0B 01 98 62 0B 01 6B  6D 6B 6C 00 80 5F 03 72  b...b..kmkl.._.r
1090: 80 98 62 0B 01 98 62 0B  01 6B 65 6E 30 BA 58 62  ..b...b..ken0.Xb
10A0: 0B 01 73 80 74 80 06 80  00 80 BA 98 62 0B 01 30  ..s.t.......b..0
10B0: 80 31 80 0A 80 32 80 5B  62 80 58 62 0B 01 58 62  .1...2.[b.Xb..Xb
10C0: 0B 01 34 33 30 35 1C 10  80 52 2A 80 F8 FF FF 7F  ..4305...R*.....
10D0: F8 FF FF 7F 73 30 32 34  52 2A 80 F8 FF FF 7F F8  ....s024R*......
10E0: FF FF 7F 73 30 32 35 45  2A 80 F8 FF FF 7F F8 FF  ...s025E*.......
10F0: FF 7F 73 30 32 36 00 80  D0 75 80 97 62 0B 01 97  ..s026...u..b...
1100: 62 0B 01 69 6E 30 30 00  80 1C 02 80 BA 9D 62 0B  b..in00.......b.
1110: 01 30 80 31 80 0A 80 32  80 BA 97 62 0B 01 30 80  .0.1...2...b..0.
1120: 31 80 0A 80 32 80 27 05  99 62 0B 01 07 1C 12 80  1...2.'..b......
1130: 52 2A 80 F8 FF FF 7F F8  FF FF 7F 73 30 32 36 AE  R*.........s026.
1140: 05 9D 62 0B 01 97 62 0B  01 5F 03 52 80 9D 62 0B  ..b...b.._.R..b.
1150: 01 9D 62 0B 01 6B 61 6D  31 5F 03 76 80 97 62 0B  ..b..kam1_.v..b.
1160: 01 97 62 0B 01 6B 61 6D  30 D0 5A 80 97 62 0B 01  ..b..kam0.Z..b..
1170: 97 62 0B 01 78 63 30 32  00 80 D0 75 80 97 62 0B  .b..xc02...u..b.
1180: 01 97 62 0B 01 6F 75 74  30 00 80 5F 03 72 80 98  ..b..out0.._.r..
1190: 62 0B 01 98 62 0B 01 6B  65 6E 31 D0 5A 80 98 62  b...b..ken1.Z..b
11A0: 0B 01 98 62 0B 01 78 63  30 34 00 80 1C 02 80 6B  ...b..xc04.....k
11B0: 69 64 6C 30 F0 FF FF 7F  6B 69 64 6C 30 64 62 0B  idl0....kidl0db.
11C0: 01 4A 64 62 0B 01 97 62  0B 01 79 00 F0 FF FF 7F  .Jdb...b..y.....
11D0: 97 62 0B 01 1C 5B 80 AE  06 97 62 0B 01 5F 03 54  .b...[....b.._.T
11E0: 80 9D 62 0B 01 9D 62 0B  01 63 6D 6F 66 5F 02 9D  ..b...b..cmof_..
11F0: 62 0B 01 45 2A 80 F8 FF  FF 7F F8 FF FF 7F 73 30  b..E*.........s0
1200: 32 37 00 80 5B 19 80 64  62 0B 01 64 62 0B 01 66  27..[..db..db..f
1210: 6A 30 31 5B 77 80 64 62  0B 01 64 62 0B 01 68 64  j01[w.db..db..hd
1220: 61 30 2B 64 62 0B 01 78  80 23 02 00 00 00 80 00  a0+db..x.#......
1230: A4 12 2B 64 62 0B 01 79  80 23 52 2A 80 F8 FF FF  ..+db..y.#R*....
1240: 7F F8 FF FF 7F 73 30 32  37 45 2A 80 F8 FF FF 7F  .....s027E*.....
1250: F8 FF FF 7F 73 31 32 34  00 80 2B 64 62 0B 01 7A  ....s124..+db..z
1260: 80 23 2B 64 62 0B 01 7B  80 23 52 2A 80 F8 FF FF  .#+db..{.#R*....
1270: 7F F8 FF FF 7F 73 31 32  34 45 2A 80 F8 FF FF 7F  .....s124E*.....
1280: F8 FF FF 7F 73 30 32 38  00 80 5B 77 80 64 62 0B  ....s028..[w.db.
1290: 01 64 62 0B 01 68 64 61  32 2B 64 62 0B 01 7C 80  .db..hda2+db..|.
12A0: 23 01 13 13 2B 64 62 0B  01 7D 80 23 52 2A 80 F8  #...+db..}.#R*..
12B0: FF FF 7F F8 FF FF 7F 73  30 32 37 45 2A 80 F8 FF  .......s027E*...
12C0: FF 7F F8 FF FF 7F 73 31  32 34 00 80 2B 64 62 0B  ......s124..+db.
12D0: 01 7E 80 23 2B 64 62 0B  01 7F 80 23 52 2A 80 F8  .~.#+db....#R*..
12E0: FF FF 7F F8 FF FF 7F 73  31 32 34 45 2A 80 F8 FF  .......s124E*...
12F0: FF 7F F8 FF FF 7F 73 30  32 38 00 80 5B 77 80 64  ......s028..[w.d
1300: 62 0B 01 64 62 0B 01 68  64 61 32 2B 64 62 0B 01  b..db..hda2+db..
1310: 80 80 23 5B 19 80 64 62  0B 01 64 62 0B 01 66 6A  ..#[..db..db..fj
1320: 30 30 5B 77 80 64 62 0B  01 64 62 0B 01 68 64 61  00[w.db..db..hda
1330: 31 5D 00 80 81 80 52 2A  80 F8 FF FF 7F F8 FF FF  1]....R*........
1340: 7F 73 30 32 38 5F 03 82  80 97 62 0B 01 97 62 0B  .s028_....b...b.
1350: 01 6B 72 75 30 D0 5A 80  97 62 0B 01 97 62 0B 01  .kru0.Z..b...b..
1360: 78 63 30 33 00 80 5F 03  52 80 9D 62 0B 01 9D 62  xc03.._.R..b...b
1370: 0B 01 6B 72 75 30 1C 67  80 2B 97 62 0B 01 83 80  ..kru0.g.+.b....
1380: 1C 81 80 23 5F 03 54 80  9D 62 0B 01 9D 62 0B 01  ...#_.T..b...b..
1390: 63 6D 6F 66 5F 02 9D 62  0B 01 45 2A 80 F8 FF FF  cmof_..b..E*....
13A0: 7F F8 FF FF 7F 73 30 32  39 00 80 5F 03 82 80 97  .....s029.._....
13B0: 62 0B 01 97 62 0B 01 6B  72 75 31 2B 97 62 0B 01  b...b..kru1+.b..
13C0: 84 80 1C 01 80 23 5C 00  85 80 5C 01 85 80 9A 52  .....#\...\....R
13D0: 2A 80 F8 FF FF 7F F8 FF  FF 7F 73 30 32 39 45 2A  *.........s029E*
13E0: 80 F8 FF FF 7F F8 FF FF  7F 73 30 33 30 00 80 45  .........s030..E
13F0: 2A 80 F8 FF FF 7F F8 FF  FF 7F 30 68 6F 65 00 80  *.........0hoe..
1400: CD 6C 80 F8 FF FF 7F F8  FF FF 7F 73 30 30 31 00  .l.........s001.
1410: 80 1C 86 80 1C 4E 80 52  2A 80 F8 FF FF 7F F8 FF  .....N.R*.......
1420: FF 7F 73 30 33 30 45 2A  80 F8 FF FF 7F F8 FF FF  ..s030E*........
1430: 7F 73 30 33 31 00 80 1C  0F 80 5B 62 80 58 62 0B  .s031.....[b.Xb.
1440: 01 58 62 0B 01 34 33 30  36 52 2A 80 F8 FF FF 7F  .Xb..4306R*.....
1450: F8 FF FF 7F 73 30 33 31  45 2A 80 F8 FF FF 7F F8  ....s031E*......
1460: FF FF 7F 73 30 33 32 00  80 2B 58 62 0B 01 87 80  ...s032..+Xb....
1470: 1C 0F 80 2B 58 62 0B 01  88 80 4E 00 99 62 0B 01  ...+Xb....N..b..
1480: 1C 0F 80 52 2A 80 F8 FF  FF 7F F8 FF FF 7F 73 30  ...R*.........s0
1490: 33 32 5F 03 52 80 9D 62  0B 01 9D 62 0B 01 74 6F  32_.R..b...b..to
14A0: 75 30 5F 03 89 80 99 62  0B 01 99 62 0B 01 74 6F  u0_....b...b..to
14B0: 75 30 5F 03 82 80 97 62  0B 01 97 62 0B 01 61 74  u0_....b...b..at
14C0: 6D 30 D0 8A 80 99 62 0B  01 99 62 0B 01 61 74 30  m0....b...b..at0
14D0: 30 00 80 BA 99 62 0B 01  30 80 31 80 0A 80 32 80  0....b..0.1...2.
14E0: 45 2A 80 F8 FF FF 7F F8  FF FF 7F 30 62 6C 66 00  E*.........0blf.
14F0: 80 1C 02 80 5F 03 54 80  9D 62 0B 01 9D 62 0B 01  ...._.T..b...b..
1500: 63 6D 6F 66 5F 02 9D 62  0B 01 45 2A 80 F8 FF FF  cmof_..b..E*....
1510: 7F F8 FF FF 7F 73 30 33  33 00 80 5F 03 89 80 99  .....s033.._....
1520: 62 0B 01 99 62 0B 01 68  61 69 30 D0 8A 80 99 62  b...b..hai0....b
1530: 0B 01 99 62 0B 01 61 74  30 31 00 80 27 05 97 62  ...b..at01..'..b
1540: 0B 01 04 1C 02 80 52 2A  80 F8 FF FF 7F F8 FF FF  ......R*........
1550: 7F 73 30 33 33 45 2A 80  F8 FF FF 7F F8 FF FF 7F  .s033E*.........
1560: 73 30 33 34 00 80 7B 64  62 0B 01 1C 2B 80 BA 64  s034..{db...+..d
1570: 62 0B 01 30 80 31 80 0A  80 32 80 BA 58 62 0B 01  b..0.1...2..Xb..
1580: 30 80 31 80 0A 80 32 80  4E 01 F0 FF FF 7F 27 05  0.1...2.N.....'.
1590: 9A 62 0B 01 03 1C 2C 80  4E 01 9B 62 0B 01 52 2A  .b....,.N..b..R*
15A0: 80 F8 FF FF 7F F8 FF FF  7F 73 30 33 34 AE 05 9D  .........s034...
15B0: 62 0B 01 97 62 0B 01 5F  03 52 80 9D 62 0B 01 9D  b...b.._.R..b...
15C0: 62 0B 01 6A 6D 70 30 5F  03 89 80 99 62 0B 01 99  b..jmp0_....b...
15D0: 62 0B 01 65 6E 67 30 5F  03 8B 80 97 62 0B 01 97  b..eng0_....b...
15E0: 62 0B 01 6A 6D 70 30 D0  8C 80 97 62 0B 01 99 62  b..jmp0....b...b
15F0: 0B 01 66 72 30 30 00 80  1C 81 80 5F 03 52 80 9D  ..fr00....._.R..
1600: 62 0B 01 9D 62 0B 01 6A  6D 70 31 5F 03 8B 80 97  b...b..jmp1_....
1610: 62 0B 01 97 62 0B 01 6A  6D 70 31 5F 03 4A 80 64  b...b..jmp1_.J.d
1620: 62 0B 01 64 62 0B 01 65  6F 75 30 5F 03 49 80 58  b..db..eou0_.I.X
1630: 62 0B 01 58 62 0B 01 65  6F 75 30 D0 8D 80 97 62  b..Xb..eou0....b
1640: 0B 01 97 62 0B 01 6B 30  30 30 00 80 D0 8A 80 99  ...b..k000......
1650: 62 0B 01 99 62 0B 01 61  74 30 32 00 80 45 2A 80  b...b..at02..E*.
1660: F8 FF FF 7F F8 FF FF 7F  34 73 31 38 00 80 1C 8E  ........4s18....
1670: 80 AE 06 97 62 0B 01 5F  03 54 80 9D 62 0B 01 9D  ....b.._.T..b...
1680: 62 0B 01 63 6D 6F 66 5F  02 9D 62 0B 01 5F 03 52  b..cmof_..b.._.R
1690: 80 9D 62 0B 01 9D 62 0B  01 74 79 6B 30 5F 03 8F  ..b...b..tyk0_..
16A0: 80 97 62 0B 01 97 62 0B  01 74 79 6B 30 45 2A 80  ..b...b..tyk0E*.
16B0: F8 FF FF 7F F8 FF FF 7F  34 6B 31 38 00 80 1C 0B  ........4k18....
16C0: 80 4E 00 F0 FF FF 7F 6B  69 64 6C 30 58 62 0B 01  .N.....kidl0Xb..
16D0: 6B 69 64 6C 30 64 62 0B  01 BA 58 62 0B 01 73 80  kidl0db...Xb..s.
16E0: 74 80 06 80 57 80 BA 64  62 0B 01 30 80 31 80 0A  t...W..db..0.1..
16F0: 80 57 80 BA F0 FF FF 7F  5F 80 60 80 06 80 57 80  .W......_.`...W.
1700: 1C 0B 80 5F 03 89 80 99  62 0B 01 99 62 0B 01 68  ..._....b...b..h
1710: 61 69 30 5B 62 80 58 62  0B 01 58 62 0B 01 34 33  ai0[b.Xb..Xb..43
1720: 30 36 5B 64 80 64 62 0B  01 64 62 0B 01 64 73 68  06[d.db..db..dsh
1730: 6C 1C 2B 80 5F 03 54 80  9D 62 0B 01 9D 62 0B 01  l.+._.T..b...b..
1740: 63 6D 6F 66 5F 02 9D 62  0B 01 45 2A 80 F8 FF FF  cmof_..b..E*....
1750: 7F F8 FF FF 7F 73 30 33  36 00 80 1C 10 80 27 05  .....s036.....'.
1760: 9B 62 0B 01 04 1C 10 80  52 2A 80 F8 FF FF 7F F8  .b......R*......
1770: FF FF 7F 73 30 33 36 AE  05 9D 62 0B 01 97 62 0B  ...s036...b...b.
1780: 01 5F 03 52 80 9D 62 0B  01 9D 62 0B 01 67 6E 79  ._.R..b...b..gny
1790: 30 5F 03 8F 80 97 62 0B  01 97 62 0B 01 67 6E 79  0_....b...b..gny
17A0: 30 5F 03 90 80 9A 62 0B  01 9A 62 0B 01 70 6F 70  0_....b...b..pop
17B0: 30 D0 91 80 97 62 0B 01  97 62 0B 01 70 6B 6A 30  0....b...b..pkj0
17C0: 00 80 D0 91 80 9A 62 0B  01 9A 62 0B 01 6B 6A 72  ......b...b..kjr
17D0: 30 00 80 4E 00 9A 62 0B  01 1C 92 80 AE 06 97 62  0..N..b........b
17E0: 0B 01 BA 9D 62 0B 01 30  80 31 80 93 80 32 80 5F  ....b..0.1...2._
17F0: 03 52 80 9D 62 0B 01 9D  62 0B 01 70 6F 70 30 5B  .R..b...b..pop0[
1800: 8F 80 97 62 0B 01 97 62  0B 01 68 65 74 30 1C 2B  ...b...b..het0.+
1810: 80 6B 69 64 6C 30 58 62  0B 01 BA F0 FF FF 7F 94  .kidl0Xb........
1820: 80 95 80 0A 80 57 80 1C  2C 80 5F 03 54 80 9D 62  .....W..,._.T..b
1830: 0B 01 9D 62 0B 01 63 6D  6F 66 5F 02 9D 62 0B 01  ...b..cmof_..b..
1840: 45 2A 80 F8 FF FF 7F F8  FF FF 7F 73 30 33 37 00  E*.........s037.
1850: 80 81 00 58 62 0B 01 7C  00 58 62 0B 01 5B 50 80  ...Xb..|.Xb..[P.
1860: 58 62 0B 01 58 62 0B 01  62 69 6B 30 BA 9D 62 0B  Xb..Xb..bik0..b.
1870: 01 30 80 31 80 0A 80 32  80 2B 58 62 0B 01 96 80  .0.1...2.+Xb....
1880: 23 02 87 7F 1E 80 80 9B  18 66 97 80 F0 FF FF 7F  #........f......
1890: F0 FF FF 7F 61 74 70 30  01 51 19 02 87 7F 65 80  ....atp0.Q....e.
18A0: 80 B5 18 66 12 80 F0 FF  FF 7F F0 FF FF 7F 61 74  ...f..........at
18B0: 70 30 01 51 19 02 87 7F  66 80 80 CF 18 66 0F 80  p0.Q....f....f..
18C0: F0 FF FF 7F F0 FF FF 7F  61 74 70 30 01 51 19 02  ........atp0.Q..
18D0: 87 7F 68 80 80 E9 18 66  2B 80 F0 FF FF 7F F0 FF  ..h....f+.......
18E0: FF 7F 61 74 70 30 01 51  19 02 87 7F 6A 80 80 03  ..atp0.Q....j...
18F0: 19 66 8E 80 F0 FF FF 7F  F0 FF FF 7F 61 74 70 30  .f..........atp0
1900: 01 51 19 02 87 7F 6B 80  80 1D 19 66 8E 80 F0 FF  .Q....k....f....
1910: FF 7F F0 FF FF 7F 61 74  70 30 01 51 19 02 87 7F  ......atp0.Q....
1920: 6C 80 80 37 19 66 01 80  F0 FF FF 7F F0 FF FF 7F  l..7.f..........
1930: 61 74 70 30 01 51 19 02  87 7F 6E 80 80 51 19 66  atp0.Q....n..Q.f
1940: 98 80 F0 FF FF 7F F0 FF  FF 7F 61 74 70 30 01 51  ..........atp0.Q
1950: 19 55 2A 80 F8 FF FF 7F  F8 FF FF 7F 73 30 33 37  .U*.........s037
1960: AE 05 9D 62 0B 01 9A 62  0B 01 5F 03 52 80 9D 62  ...b...b.._.R..b
1970: 0B 01 9D 62 0B 01 73 79  75 30 5F 03 90 80 9A 62  ...b..syu0_....b
1980: 0B 01 9A 62 0B 01 73 79  75 30 D0 91 80 9A 62 0B  ...b..syu0....b.
1990: 01 9A 62 0B 01 6B 6A 72  31 00 80 1C 98 80 45 02  ..b..kjr1.....E.
19A0: 80 F0 FF FF 7F F0 FF FF  7F 66 64 6F 30 00 80 55  .........fdo0..U
19B0: 02 80 F0 FF FF 7F F0 FF  FF 7F 66 64 6F 30 AE 06  ..........fdo0..
19C0: 9A 62 0B 01 5F 03 54 80  9D 62 0B 01 9D 62 0B 01  .b.._.T..b...b..
19D0: 63 6D 6F 66 5F 02 9D 62  0B 01 4E 01 F0 FF FF 7F  cmof_..b..N.....
19E0: 4E 01 9A 62 0B 01 6B 69  64 6C 30 64 62 0B 01 6B  N..b..kidl0db..k
19F0: 69 64 6C 30 97 62 0B 01  29 05 97 62 0B 01 03 BA  idl0.b..)..b....
1A00: 97 62 0B 01 99 80 9A 80  06 80 9B 80 80 97 62 0B  .b............b.
1A10: 01 4A 58 62 0B 01 64 62  0B 01 6B 69 64 6C 30 99  .JXb..db..kidl0.
1A20: 62 0B 01 29 10 99 62 0B  01 08 BA 99 62 0B 01 9C  b..)..b.....b...
1A30: 80 9D 80 06 80 9E 80 80  99 62 0B 01 5B 8F 80 97  .........b..[...
1A40: 62 0B 01 97 62 0B 01 6B  72 75 30 48 4C 80 23 45  b...b..kru0HL.#E
1A50: 2A 80 F8 FF FF 7F F8 FF  FF 7F 73 30 33 38 00 80  *.........s038..
1A60: 1C 0E 80 45 02 80 F0 FF  FF 7F F0 FF FF 7F 66 64  ...E..........fd
1A70: 69 30 00 80 5B 19 80 64  62 0B 01 64 62 0B 01 66  i0..[..db..db..f
1A80: 6A 30 31 5B 5C 80 64 62  0B 01 64 62 0B 01 68 64  j01[\.db..db..hd
1A90: 62 30 2B 64 62 0B 01 9F  80 1C 0F 80 23 5B 19 80  b0+db.......#[..
1AA0: 64 62 0B 01 64 62 0B 01  66 6A 30 30 55 2A 80 F8  db..db..fj00U*..
1AB0: FF FF 7F F8 FF FF 7F 73  30 33 38 45 2A 80 F8 FF  .......s038E*...
1AC0: FF 7F F8 FF FF 7F 73 30  33 39 00 80 5B 50 80 58  ......s039..[P.X
1AD0: 62 0B 01 58 62 0B 01 61  72 61 30 2B 58 62 0B 01  b..Xb..ara0+Xb..
1AE0: A0 80 1C 53 80 23 1C 10  80 52 2A 80 F8 FF FF 7F  ...S.#...R*.....
1AF0: F8 FF FF 7F 73 30 33 39  45 2A 80 F8 FF FF 7F F8  ....s039E*......
1B00: FF FF 7F 73 30 34 30 00  80 4B 58 62 0B 01 57 80  ...s040..KXb..W.
1B10: 1C 8E 80 5B 8F 80 97 62  0B 01 97 62 0B 01 6B 72  ...[...b...b..kr
1B20: 75 31 1C 14 80 52 2A 80  F8 FF FF 7F F8 FF FF 7F  u1...R*.........
1B30: 73 30 34 30 45 2A 80 F8  FF FF 7F F8 FF FF 7F 73  s040E*.........s
1B40: 30 34 32 00 80 1C 0B 80  5B 64 80 64 62 0B 01 64  042.....[d.db..d
1B50: 62 0B 01 64 73 68 6C 1C  0F 80 52 2A 80 F8 FF FF  b..dshl...R*....
1B60: 7F F8 FF FF 7F 73 30 34  32 45 2A 80 F8 FF FF 7F  .....s042E*.....
1B70: F8 FF FF 7F 73 30 34 31  00 80 5B A1 80 58 62 0B  ....s041..[..Xb.
1B80: 01 58 62 0B 01 6B 61 6D  30 2B 58 62 0B 01 A2 80  .Xb..kam0+Xb....
1B90: 23 5D 00 80 01 80 45 02  80 F0 FF FF 7F F0 FF FF  #]....E.........
1BA0: 7F 66 64 6F 31 00 80 55  02 80 F0 FF FF 7F F0 FF  .fdo1..U........
1BB0: FF 7F 66 64 6F 31 1C 0B  80 52 2A 80 F8 FF FF 7F  ..fdo1...R*.....
1BC0: F8 FF FF 7F 73 30 34 31  29 05 97 62 0B 01 05 29  ....s041)..b...)
1BD0: 05 99 62 0B 01 0B 29 05  9A 62 0B 01 05 29 05 9B  ..b...)..b...)..
1BE0: 62 0B 01 05 02 01 00 1E  80 00 F3 1B 27 05 58 62  b...........'.Xb
1BF0: 0B 01 91 80 97 62 0B 01  80 99 62 0B 01 80 9A 62  .....b....b....b
1C00: 0B 01 80 9B 62 0B 01 5C  00 00 80 5C 01 00 80 9A  ....b..\...\....
1C10: 1C 0E 80 AB 11 00 80 1C  1E 80 AB 0A 46 00 02 02  ............F...
1C20: 00 1E 80 00 37 1C 45 02  80 F0 FF FF 7F F0 FF FF  ....7.E.........
1C30: 7F 66 64 69 32 00 80 21  00                       .fdi2..!.       
```

#### Opcodes

```
  0: 0x026B [0x42] SET_CLI_EVENT_CANCEL_DATA()
  1: 0x026C [0x03] ExtData[1]->WorkLocal[0] = Work_Zone[2]
  2: 0x0271 [0x03] ExtData[1]->WorkLocal[1] = Work_Zone[3]
  3: 0x0276 [0x03] ExtData[1]->WorkLocal[2] = Work_Zone[4]
  4: 0x027B [0x45] LOAD_SCHEDULED_TASK: Load scheduler "fdo1" with entities [LocalPlayer, LocalPlayer], work=[200*, 0*]
  5: 0x028C [0x55] WAIT_LOAD_SCHEDULER: Wait for scheduler "fdo1" with entities [LocalPlayer, LocalPlayer], work=200*
  6: 0x029B [0x46] CAMERA_CONTROL: Disable user control
  7: 0x029D [0x38] SET_CLIENT_EVENT_MODE(mode=27*)
  8: 0x02A0 [0x77] SET_EVENT_TIME_WEATHER(hour=255*, weather=19*)
  9: 0x02A5 [0x1C] WAIT(30* ticks)
 10: 0x02A8 [0xAB] EventEntity->UnknownFlag = 1 // Enable unknown flag
 11: 0x02AA [0x2D] CREATE_ZONE_SCHEDULER_TASK: Create scheduler "sta1" with entities [LocalPlayer, LocalPlayer]
 12: 0x02B7 [0x2D] CREATE_ZONE_SCHEDULER_TASK: Create scheduler "sta2" with entities [LocalPlayer, LocalPlayer]
 13: 0x02C4 [0x2D] CREATE_ZONE_SCHEDULER_TASK: Create scheduler "sta3" with entities [LocalPlayer, LocalPlayer]
 14: 0x02D1 [0x2D] CREATE_ZONE_SCHEDULER_TASK: Create scheduler "sta4" with entities [LocalPlayer, LocalPlayer]
 15: 0x02DE [0x2F] Lilisette (ID: 17523300/0x010B6264)->Render.Flags0 &= ~0x80000 // Bit 19
 16: 0x02E4 [0x2F] Cait Sith (ID: 17523288/0x010B6258)->Render.Flags0 &= ~0x80000 // Bit 19
 17: 0x02EA [0x4E] SET_ENTITY_HIDE_FLAG: Show Lilisette (ID: 17523300/0x010B6264)
 18: 0x02F0 [0x4E] SET_ENTITY_HIDE_FLAG: Show Cait Sith (ID: 17523288/0x010B6258)
 19: 0x02F6 [0x92] Lilisette (ID: 17523300/0x010B6264)->Render.Flags3 ^= 0x01
 20: 0x02FC [0x92] Cait Sith (ID: 17523288/0x010B6258)->Render.Flags3 ^= 0x01
 21: 0x0302 [0x94] Lilisette (ID: 17523300/0x010B6264)->Render.Flags3 ^= 0x01
 22: 0x0308 [0x94] Cait Sith (ID: 17523288/0x010B6258)->Render.Flags3 ^= 0x01
 23: 0x030E [0x94] LocalPlayer->Render.Flags3 ^= 0x01
 24: 0x0314 [0x02] IF !(ExtData[1]->WorkLocal[1] == 1*) GOTO 0x0323
 25: 0x031C [0x27] REQ_SET(priority=0x05, entity_id=Cait Sith (ID: 17523288/0x010B6258), tag_num=0x90)
 26: 0x0323 [0xBA] SET_ENTITY_POSITION(entity_id=Lilisette (ID: 17523300/0x010B6264), pos_x=-699.696*, pos_z=-319.142*, pos_y=-17.999*, direction=269.8°*)
 27: 0x0330 [0xBA] SET_ENTITY_POSITION(entity_id=Cait Sith (ID: 17523288/0x010B6258), pos_x=-700.926*, pos_z=-334.893*, pos_y=-17.600*, direction=273.2°*)
 28: 0x033D [0xBA] SET_ENTITY_POSITION(entity_id=LocalPlayer, pos_x=-701.882*, pos_z=-320.337*, pos_y=-17.999*, direction=276.0°*)
 29: 0x034A [0x80] LOAD_WAIT(entity=Lilisette (ID: 17523300/0x010B6264))
 30: 0x034F [0x80] LOAD_WAIT(entity=Cait Sith (ID: 17523288/0x010B6258))
 31: 0x0354 [0x80] LOAD_WAIT(entity=LocalPlayer)
 32: 0x0359 [0x45] LOAD_SCHEDULED_TASK: Load scheduler "s000" with entities [EventEntity, EventEntity], work=[770*, 0*]
 33: 0x036A [0x1C] WAIT(15* ticks)
 34: 0x036D [0x45] LOAD_SCHEDULED_TASK: Load scheduler "fdi1" with entities [LocalPlayer, LocalPlayer], work=[200*, 0*]
 35: 0x037E [0x1C] WAIT(100* ticks)
 36: 0x0381 [0x27] REQ_SET(priority=0x05, entity_id=Cait Sith (ID: 17523288/0x010B6258), tag_num=0x8A)
 37: 0x0388 [0x1C] WAIT(20* ticks)
 38: 0x038B [0x52] END_LOAD_SCHEDULER: End scheduler "s000" with entities [EventEntity, EventEntity], work=770*
 39: 0x039A [0x45] LOAD_SCHEDULED_TASK: Load scheduler "s001" with entities [EventEntity, EventEntity], work=[770*, 0*]
 40: 0x03AB [0x2B] Cait Sith (ID: 17523288/0x010B6258) [8269*]:
    → "You took so long getting here that I figured you'd gotten swallowed whole! Gobbled up in one fell swoop!"
 41: 0x03B2 [0x1C] WAIT(60* ticks)
 42: 0x03B5 [0x4A] LocalPlayer looks at Cait Sith (ID: 17523288/0x010B6258)
 43: 0x03BE [0x1C] WAIT(30* ticks)
 44: 0x03C1 [0x4A] Lilisette (ID: 17523300/0x010B6264) looks at Cait Sith (ID: 17523288/0x010B6258)
 45: 0x03CA [0x1C] WAIT(30* ticks)
 46: 0x03CD [0x52] END_LOAD_SCHEDULER: End scheduler "s001" with entities [EventEntity, EventEntity], work=770*
 47: 0x03DC [0x45] LOAD_SCHEDULED_TASK: Load scheduler "s002" with entities [EventEntity, EventEntity], work=[770*, 0*]
 48: 0x03ED [0x1C] WAIT(90* ticks)
 49: 0x03F0 [0x23] WAIT_FOR_DIALOG_INTERACTION
 50: 0x03F1 [0x2A] GET_REQ_LEVEL(level=5, entity_id=Cait Sith (ID: 17523288/0x010B6258))
 51: 0x03F7 [0x5B] LOAD_EXT_SCHEDULER: Load scheduler "tlb0" with entities [Cait Sith (ID: 17523288/0x010B6258), Cait Sith (ID: 17523288/0x010B6258)], work=1414*
 52: 0x0406 [0x52] END_LOAD_SCHEDULER: End scheduler "s002" with entities [EventEntity, EventEntity], work=770*
 53: 0x0415 [0x52] END_LOAD_SCHEDULER: End scheduler "s003" with entities [EventEntity, EventEntity], work=770*
 54: 0x0424 [0x45] LOAD_SCHEDULED_TASK: Load scheduler "s004" with entities [EventEntity, EventEntity], work=[770*, 0*]
 55: 0x0435 [0x2B] Cait Sith (ID: 17523288/0x010B6258) [8270*]:
    → "Which, by the way, is what's about to happen anyway!"
 56: 0x043C [0x23] WAIT_FOR_DIALOG_INTERACTION
 57: 0x043D [0x5B] LOAD_EXT_SCHEDULER: Load scheduler "tlb1" with entities [Cait Sith (ID: 17523288/0x010B6258), Cait Sith (ID: 17523288/0x010B6258)], work=1414*
 58: 0x044C [0x52] END_LOAD_SCHEDULER: End scheduler "s004" with entities [EventEntity, EventEntity], work=770*
 59: 0x045B [0x45] LOAD_SCHEDULED_TASK: Load scheduler "s005" with entities [EventEntity, EventEntity], work=[770*, 0*]
 60: 0x046C [0x1C] WAIT(60* ticks)
 61: 0x046F [0x27] REQ_SET(priority=0x05, entity_id=Cait Sith (ID: 17523288/0x010B6258), tag_num=0x8B)
 62: 0x0476 [0x1C] WAIT(10* ticks)
 63: 0x0479 [0x27] REQ_SET(priority=0x05, entity_id=LocalPlayer, tag_num=0x5B)
 64: 0x0480 [0x1C] WAIT(10* ticks)
 65: 0x0483 [0x27] REQ_SET(priority=0x05, entity_id=Lilisette (ID: 17523300/0x010B6264), tag_num=0x1C)
 66: 0x048A [0x1C] WAIT(90* ticks)
 67: 0x048D [0x45] LOAD_SCHEDULED_TASK: Load scheduler "fdo1" with entities [LocalPlayer, LocalPlayer], work=[200*, 0*]
 68: 0x049E [0x55] WAIT_LOAD_SCHEDULER: Wait for scheduler "fdo1" with entities [LocalPlayer, LocalPlayer], work=200*
 69: 0x04AD [0x52] END_LOAD_SCHEDULER: End scheduler "s005" with entities [EventEntity, EventEntity], work=770*
 70: 0x04BC [0x7B] Lilisette (ID: 17523300/0x010B6264) stops talking
 71: 0x04C1 [0x7A] VM_CONTROL: Reset VM for Cait Sith (ID: 17523288/0x010B6258)
 72: 0x04C7 [0x7A] VM_CONTROL: Reset VM for LocalPlayer
 73: 0x04CD [0x7A] VM_CONTROL: Reset VM for Lilisette (ID: 17523300/0x010B6264)
 74: 0x04D3 [0x2F] Volto Oscuro (ID: 17523351/0x010B6297)->Render.Flags0 &= ~0x80000 // Bit 19
 75: 0x04D9 [0x2F] Unnamed NPC (ID: 17523352/0x010B6298)->Render.Flags0 &= ~0x80000 // Bit 19
 76: 0x04DF [0x2F] Unnamed NPC (ID: 17523353/0x010B6299)->Render.Flags0 &= ~0x80000 // Bit 19
 77: 0x04E5 [0x2F] Unnamed NPC (ID: 17523354/0x010B629A)->Render.Flags0 &= ~0x80000 // Bit 19
 78: 0x04EB [0x2F] Unnamed NPC (ID: 17523355/0x010B629B)->Render.Flags0 &= ~0x80000 // Bit 19
 79: 0x04F1 [0x2F] Unnamed NPC (ID: 17523356/0x010B629C)->Render.Flags0 &= ~0x80000 // Bit 19
 80: 0x04F7 [0x2F] Unnamed NPC (ID: 17523357/0x010B629D)->Render.Flags0 &= ~0x80000 // Bit 19
 81: 0x04FD [0x4E] SET_ENTITY_HIDE_FLAG: Show Volto Oscuro (ID: 17523351/0x010B6297)
 82: 0x0503 [0x4E] SET_ENTITY_HIDE_FLAG: Show Unnamed NPC (ID: 17523352/0x010B6298)
 83: 0x0509 [0x4E] SET_ENTITY_HIDE_FLAG: Show Unnamed NPC (ID: 17523353/0x010B6299)
 84: 0x050F [0x4E] SET_ENTITY_HIDE_FLAG: Show Unnamed NPC (ID: 17523354/0x010B629A)
 85: 0x0515 [0x4E] SET_ENTITY_HIDE_FLAG: Show Unnamed NPC (ID: 17523355/0x010B629B)
 86: 0x051B [0x4E] SET_ENTITY_HIDE_FLAG: Show Unnamed NPC (ID: 17523356/0x010B629C)
 87: 0x0521 [0x4E] SET_ENTITY_HIDE_FLAG: Show Unnamed NPC (ID: 17523357/0x010B629D)
 88: 0x0527 [0x92] Volto Oscuro (ID: 17523351/0x010B6297)->Render.Flags3 ^= 0x01
 89: 0x052D [0x94] Volto Oscuro (ID: 17523351/0x010B6297)->Render.Flags3 ^= 0x01
 90: 0x0533 [0x94] Unnamed NPC (ID: 17523352/0x010B6298)->Render.Flags3 ^= 0x01
 91: 0x0539 [0x94] Unnamed NPC (ID: 17523353/0x010B6299)->Render.Flags3 ^= 0x01
 92: 0x053F [0x94] Unnamed NPC (ID: 17523354/0x010B629A)->Render.Flags3 ^= 0x01
 93: 0x0545 [0x94] Unnamed NPC (ID: 17523355/0x010B629B)->Render.Flags3 ^= 0x01
 94: 0x054B [0x94] Unnamed NPC (ID: 17523356/0x010B629C)->Render.Flags3 ^= 0x01
 95: 0x0551 [0x94] Unnamed NPC (ID: 17523357/0x010B629D)->Render.Flags3 ^= 0x01
 96: 0x0557 [0x59] UPDATE_ENTITY_DATA: Volto Oscuro (ID: 17523351/0x010B6297)->Render.Flags0 |= 0x200000
 97: 0x055E [0x59] UPDATE_ENTITY_DATA: Unnamed NPC (ID: 17523352/0x010B6298)->Render.Flags0 |= 0x200000
 98: 0x0565 [0x59] UPDATE_ENTITY_DATA: Unnamed NPC (ID: 17523353/0x010B6299)->Render.Flags0 |= 0x200000
 99: 0x056C [0x59] UPDATE_ENTITY_DATA: Unnamed NPC (ID: 17523354/0x010B629A)->Render.Flags0 |= 0x200000
100: 0x0573 [0x59] UPDATE_ENTITY_DATA: Unnamed NPC (ID: 17523355/0x010B629B)->Render.Flags0 |= 0x200000
101: 0x057A [0x59] UPDATE_ENTITY_DATA: Unnamed NPC (ID: 17523356/0x010B629C)->Render.Flags0 |= 0x200000
102: 0x0581 [0x59] UPDATE_ENTITY_DATA: Unnamed NPC (ID: 17523357/0x010B629D)->Render.Flags0 |= 0x200000
103: 0x0588 [0x27] REQ_SET(priority=0x05, entity_id=Unnamed NPC (ID: 17523352/0x010B6298), tag_num=0x02)
104: 0x058F [0xBA] SET_ENTITY_POSITION(entity_id=Lilisette (ID: 17523300/0x010B6264), pos_x=-652.000*, pos_z=-420.000*, pos_y=0.400*, direction=360.0°*)
105: 0x059C [0xBA] SET_ENTITY_POSITION(entity_id=Cait Sith (ID: 17523288/0x010B6258), pos_x=-651.581*, pos_z=-419.694*, pos_y=0.400*, direction=360.0°*)
106: 0x05A9 [0xBA] SET_ENTITY_POSITION(entity_id=LocalPlayer, pos_x=-653.005*, pos_z=-420.983*, pos_y=0.399*, direction=360.0°*)
107: 0x05B6 [0xBA] SET_ENTITY_POSITION(entity_id=Volto Oscuro (ID: 17523351/0x010B6297), pos_x=-612.000*, pos_z=-420.000*, pos_y=-14.600*, direction=360.0°*)
108: 0x05C3 [0xBA] SET_ENTITY_POSITION(entity_id=Unnamed NPC (ID: 17523352/0x010B6298), pos_x=-650.289*, pos_z=-420.668*, pos_y=0.399*, direction=0.0°*)
109: 0x05D0 [0xBA] SET_ENTITY_POSITION(entity_id=Unnamed NPC (ID: 17523353/0x010B6299), pos_x=-592.050*, pos_z=-422.085*, pos_y=-25.586*, direction=360.0°*)
110: 0x05DD [0xBA] SET_ENTITY_POSITION(entity_id=Unnamed NPC (ID: 17523354/0x010B629A), pos_x=-591.951*, pos_z=-416.734*, pos_y=-23.100*, direction=360.0°*)
111: 0x05EA [0xBA] SET_ENTITY_POSITION(entity_id=Unnamed NPC (ID: 17523355/0x010B629B), pos_x=-595.895*, pos_z=-419.154*, pos_y=-23.545*, direction=360.0°*)
112: 0x05F7 [0xBA] SET_ENTITY_POSITION(entity_id=Unnamed NPC (ID: 17523356/0x010B629C), pos_x=-592.040*, pos_z=-422.027*, pos_y=-22.274*, direction=360.0°*)
113: 0x0604 [0xBA] SET_ENTITY_POSITION(entity_id=Unnamed NPC (ID: 17523357/0x010B629D), pos_x=-607.000*, pos_z=-420.000*, pos_y=-14.600*, direction=360.0°*)
114: 0x0611 [0x80] LOAD_WAIT(entity=Lilisette (ID: 17523300/0x010B6264))
115: 0x0616 [0x80] LOAD_WAIT(entity=Cait Sith (ID: 17523288/0x010B6258))
116: 0x061B [0x80] LOAD_WAIT(entity=LocalPlayer)
117: 0x0620 [0x80] LOAD_WAIT(entity=Volto Oscuro (ID: 17523351/0x010B6297))
118: 0x0625 [0x80] LOAD_WAIT(entity=Unnamed NPC (ID: 17523353/0x010B6299))
119: 0x062A [0x80] LOAD_WAIT(entity=Unnamed NPC (ID: 17523354/0x010B629A))
120: 0x062F [0x80] LOAD_WAIT(entity=Unnamed NPC (ID: 17523355/0x010B629B))
121: 0x0634 [0x80] LOAD_WAIT(entity=Unnamed NPC (ID: 17523356/0x010B629C))
122: 0x0639 [0x80] LOAD_WAIT(entity=Unnamed NPC (ID: 17523357/0x010B629D))
123: 0x063E [0x79] LocalPlayer looks at Volto Oscuro (ID: 17523351/0x010B6297) (Basic look)
124: 0x0648 [0x1C] WAIT(30* ticks)
125: 0x064B [0x27] REQ_SET(priority=0x05, entity_id=Unnamed NPC (ID: 17523353/0x010B6299), tag_num=0x03)
126: 0x0652 [0x81] SET_ENTITY_BLINKING(blink_flag=0x00, entity=Cait Sith (ID: 17523288/0x010B6258))
127: 0x0658 [0x5B] LOAD_EXT_SCHEDULER: Load scheduler "fyu0" with entities [Volto Oscuro (ID: 17523351/0x010B6297), Volto Oscuro (ID: 17523351/0x010B6297)], work=3800*
128: 0x0667 [0x5B] LOAD_EXT_SCHEDULER: Load scheduler "mir0" with entities [Cait Sith (ID: 17523288/0x010B6258), Cait Sith (ID: 17523288/0x010B6258)], work=2861*
129: 0x0676 [0x5B] LOAD_EXT_SCHEDULER: Load scheduler "mir0" with entities [Lilisette (ID: 17523300/0x010B6264), Lilisette (ID: 17523300/0x010B6264)], work=3898*
130: 0x0685 [0x5F] MULTI_HANDLER_COMPLEX(mode=0x03 - Load ext scheduler (OpCode 0x5B mode 0), ref=3801*, entity1=Unnamed NPC (ID: 17523352/0x010B6298), entity2=Unnamed NPC (ID: 17523352/0x010B6298), string="ken0")
131: 0x0695 [0x1C] WAIT(30* ticks)
132: 0x0698 [0x5C] MUSIC_CONTROL: Set Idle (Day) music to song 80*
133: 0x069C [0x5C] MUSIC_CONTROL: Set Idle (Night) music to song 80*
134: 0x06A0 [0x9A] WAIT_MUSIC_SERVER()
135: 0x06A1 [0x48] [System] [7700*]:
    → "@@"
136: 0x06A4 [0x23] WAIT_FOR_DIALOG_INTERACTION
137: 0x06A5 [0x45] LOAD_SCHEDULED_TASK: Load scheduler "s006" with entities [EventEntity, EventEntity], work=[770*, 0*]
138: 0x06B6 [0x1C] WAIT(15* ticks)
139: 0x06B9 [0x45] LOAD_SCHEDULED_TASK: Load scheduler "fdi1" with entities [LocalPlayer, LocalPlayer], work=[200*, 0*]
140: 0x06CA [0x1C] WAIT(60* ticks)
141: 0x06CD [0x2B] Lilisette (ID: 17523300/0x010B6264) [8271*]:
    → "I don't understand what..."
142: 0x06D4 [0x23] WAIT_FOR_DIALOG_INTERACTION
143: 0x06D5 [0x52] END_LOAD_SCHEDULER: End scheduler "s006" with entities [EventEntity, EventEntity], work=770*
144: 0x06E4 [0x45] LOAD_SCHEDULED_TASK: Load scheduler "s007" with entities [EventEntity, EventEntity], work=[770*, 0*]
145: 0x06F5 [0x1C] WAIT(150* ticks)
146: 0x06F8 [0x52] END_LOAD_SCHEDULER: End scheduler "s007" with entities [EventEntity, EventEntity], work=770*
147: 0x0707 [0x45] LOAD_SCHEDULED_TASK: Load scheduler "s008" with entities [EventEntity, EventEntity], work=[770*, 0*]
148: 0x0718 [0xD0] LOAD_SCHEDULED_TASK_ALT5: Load scheduler "atm0" with entities [Unnamed NPC (ID: 17523353/0x010B6299), Unnamed NPC (ID: 17523353/0x010B6299)], work=[148*, 0*]
149: 0x0729 [0xD0] LOAD_SCHEDULED_TASK_ALT5: Load scheduler "sea0" with entities [Unnamed NPC (ID: 17523353/0x010B6299), Unnamed NPC (ID: 17523353/0x010B6299)], work=[148*, 0*]
150: 0x073A [0x1C] WAIT(30* ticks)
151: 0x073D [0xD0] LOAD_SCHEDULED_TASK_ALT5: Load scheduler "atm0" with entities [Unnamed NPC (ID: 17523354/0x010B629A), Unnamed NPC (ID: 17523354/0x010B629A)], work=[148*, 0*]
152: 0x074E [0x1C] WAIT(30* ticks)
153: 0x0751 [0xD0] LOAD_SCHEDULED_TASK_ALT5: Load scheduler "atm0" with entities [Unnamed NPC (ID: 17523355/0x010B629B), Unnamed NPC (ID: 17523355/0x010B629B)], work=[148*, 0*]
154: 0x0762 [0x1C] WAIT(30* ticks)
155: 0x0765 [0xD0] LOAD_SCHEDULED_TASK_ALT5: Load scheduler "atm0" with entities [Unnamed NPC (ID: 17523356/0x010B629C), Unnamed NPC (ID: 17523356/0x010B629C)], work=[148*, 0*]
156: 0x0776 [0x1C] WAIT(60* ticks)
157: 0x0779 [0x52] END_LOAD_SCHEDULER: End scheduler "s008" with entities [EventEntity, EventEntity], work=770*
158: 0x0788 [0x45] LOAD_SCHEDULED_TASK: Load scheduler "s009" with entities [EventEntity, EventEntity], work=[770*, 0*]
159: 0x0799 [0x1C] WAIT(150* ticks)
160: 0x079C [0x52] END_LOAD_SCHEDULER: End scheduler "s009" with entities [EventEntity, EventEntity], work=770*
161: 0x07AB [0x45] LOAD_SCHEDULED_TASK: Load scheduler "s010" with entities [EventEntity, EventEntity], work=[770*, 0*]
162: 0x07BC [0x1C] WAIT(120* ticks)
163: 0x07BF [0x52] END_LOAD_SCHEDULER: End scheduler "s010" with entities [EventEntity, EventEntity], work=770*
164: 0x07CE [0x45] LOAD_SCHEDULED_TASK: Load scheduler "s011" with entities [EventEntity, EventEntity], work=[770*, 0*]
165: 0x07DF [0xD0] LOAD_SCHEDULED_TASK_ALT5: Load scheduler "atm1" with entities [Unnamed NPC (ID: 17523353/0x010B6299), Volto Oscuro (ID: 17523351/0x010B6297)], work=[148*, 0*]
166: 0x07F0 [0xD0] LOAD_SCHEDULED_TASK_ALT5: Load scheduler "atm1" with entities [Unnamed NPC (ID: 17523354/0x010B629A), Volto Oscuro (ID: 17523351/0x010B6297)], work=[148*, 0*]
167: 0x0801 [0xD0] LOAD_SCHEDULED_TASK_ALT5: Load scheduler "sea1" with entities [Unnamed NPC (ID: 17523353/0x010B6299), Unnamed NPC (ID: 17523353/0x010B6299)], work=[148*, 0*]
168: 0x0812 [0x1C] WAIT(30* ticks)
169: 0x0815 [0xD0] LOAD_SCHEDULED_TASK_ALT5: Load scheduler "atm1" with entities [Unnamed NPC (ID: 17523355/0x010B629B), Volto Oscuro (ID: 17523351/0x010B6297)], work=[148*, 0*]
170: 0x0826 [0xD0] LOAD_SCHEDULED_TASK_ALT5: Load scheduler "atm1" with entities [Unnamed NPC (ID: 17523356/0x010B629C), Volto Oscuro (ID: 17523351/0x010B6297)], work=[148*, 0*]
171: 0x0837 [0x1C] WAIT(150* ticks)
172: 0x083A [0xD0] LOAD_SCHEDULED_TASK_ALT5: Load scheduler "el00" with entities [Volto Oscuro (ID: 17523351/0x010B6297), Unnamed NPC (ID: 17523353/0x010B6299)], work=[148*, 0*]
173: 0x084B [0x1C] WAIT(30* ticks)
174: 0x084E [0xD0] LOAD_SCHEDULED_TASK_ALT5: Load scheduler "el00" with entities [Volto Oscuro (ID: 17523351/0x010B6297), Unnamed NPC (ID: 17523354/0x010B629A)], work=[148*, 0*]
175: 0x085F [0x1C] WAIT(30* ticks)
176: 0x0862 [0x52] END_LOAD_SCHEDULER: End scheduler "s011" with entities [EventEntity, EventEntity], work=770*
177: 0x0871 [0x45] LOAD_SCHEDULED_TASK: Load scheduler "s012" with entities [EventEntity, EventEntity], work=[770*, 0*]
178: 0x0882 [0x5B] LOAD_EXT_SCHEDULER: Load scheduler "fyu1" with entities [Volto Oscuro (ID: 17523351/0x010B6297), Volto Oscuro (ID: 17523351/0x010B6297)], work=3800*
179: 0x0891 [0xD0] LOAD_SCHEDULED_TASK_ALT5: Load scheduler "el00" with entities [Volto Oscuro (ID: 17523351/0x010B6297), Unnamed NPC (ID: 17523355/0x010B629B)], work=[148*, 0*]
180: 0x08A2 [0x1C] WAIT(120* ticks)
181: 0x08A5 [0xD0] LOAD_SCHEDULED_TASK_ALT5: Load scheduler "el01" with entities [Volto Oscuro (ID: 17523351/0x010B6297), Unnamed NPC (ID: 17523356/0x010B629C)], work=[148*, 0*]
182: 0x08B6 [0x1C] WAIT(60* ticks)
183: 0x08B9 [0xD0] LOAD_SCHEDULED_TASK_ALT5: Load scheduler "akl0" with entities [Unnamed NPC (ID: 17523353/0x010B6299), Unnamed NPC (ID: 17523353/0x010B6299)], work=[148*, 0*]
184: 0x08CA [0xD0] LOAD_SCHEDULED_TASK_ALT5: Load scheduler "akl0" with entities [Unnamed NPC (ID: 17523354/0x010B629A), Unnamed NPC (ID: 17523354/0x010B629A)], work=[148*, 0*]
185: 0x08DB [0xD0] LOAD_SCHEDULED_TASK_ALT5: Load scheduler "akl0" with entities [Unnamed NPC (ID: 17523355/0x010B629B), Unnamed NPC (ID: 17523355/0x010B629B)], work=[148*, 0*]
186: 0x08EC [0xD0] LOAD_SCHEDULED_TASK_ALT5: Load scheduler "akl0" with entities [Unnamed NPC (ID: 17523356/0x010B629C), Unnamed NPC (ID: 17523356/0x010B629C)], work=[148*, 0*]
187: 0x08FD [0x52] END_LOAD_SCHEDULER: End scheduler "s012" with entities [EventEntity, EventEntity], work=770*
188: 0x090C [0x45] LOAD_SCHEDULED_TASK: Load scheduler "s013" with entities [EventEntity, EventEntity], work=[770*, 0*]
189: 0x091D [0x1C] WAIT(150* ticks)
190: 0x0920 [0x52] END_LOAD_SCHEDULER: End scheduler "s013" with entities [EventEntity, EventEntity], work=770*
191: 0x092F [0x45] LOAD_SCHEDULED_TASK: Load scheduler "s014" with entities [EventEntity, EventEntity], work=[770*, 0*]
192: 0x0940 [0x27] REQ_SET(priority=0x05, entity_id=Unnamed NPC (ID: 17523353/0x010B6299), tag_num=0x02)
193: 0x0947 [0xD0] LOAD_SCHEDULED_TASK_ALT5: Load scheduler "atm2" with entities [Unnamed NPC (ID: 17523353/0x010B6299), Unnamed NPC (ID: 17523353/0x010B6299)], work=[148*, 0*]
194: 0x0958 [0xD0] LOAD_SCHEDULED_TASK_ALT5: Load scheduler "sea2" with entities [Unnamed NPC (ID: 17523353/0x010B6299), Unnamed NPC (ID: 17523353/0x010B6299)], work=[148*, 0*]
195: 0x0969 [0x1C] WAIT(30* ticks)
196: 0x096C [0x27] REQ_SET(priority=0x05, entity_id=Unnamed NPC (ID: 17523354/0x010B629A), tag_num=0x02)
197: 0x0973 [0xD0] LOAD_SCHEDULED_TASK_ALT5: Load scheduler "atm2" with entities [Unnamed NPC (ID: 17523354/0x010B629A), Unnamed NPC (ID: 17523354/0x010B629A)], work=[148*, 0*]
198: 0x0984 [0x1C] WAIT(30* ticks)
199: 0x0987 [0x27] REQ_SET(priority=0x05, entity_id=Unnamed NPC (ID: 17523355/0x010B629B), tag_num=0x02)
200: 0x098E [0xD0] LOAD_SCHEDULED_TASK_ALT5: Load scheduler "atm2" with entities [Unnamed NPC (ID: 17523355/0x010B629B), Unnamed NPC (ID: 17523355/0x010B629B)], work=[148*, 0*]
201: 0x099F [0x1C] WAIT(30* ticks)
202: 0x09A2 [0x27] REQ_SET(priority=0x05, entity_id=Unnamed NPC (ID: 17523356/0x010B629C), tag_num=0x02)
203: 0x09A9 [0xD0] LOAD_SCHEDULED_TASK_ALT5: Load scheduler "atm2" with entities [Unnamed NPC (ID: 17523356/0x010B629C), Unnamed NPC (ID: 17523356/0x010B629C)], work=[148*, 0*]
204: 0x09BA [0x1C] WAIT(90* ticks)
205: 0x09BD [0x5B] LOAD_EXT_SCHEDULER: Load scheduler "bik0" with entities [Cait Sith (ID: 17523288/0x010B6258), Cait Sith (ID: 17523288/0x010B6258)], work=1311*
206: 0x09CC [0x52] END_LOAD_SCHEDULER: End scheduler "s014" with entities [EventEntity, EventEntity], work=770*
207: 0x09DB [0x45] LOAD_SCHEDULED_TASK: Load scheduler "s015" with entities [EventEntity, EventEntity], work=[770*, 0*]
208: 0x09EC [0x2B] Cait Sith (ID: 17523288/0x010B6258) [8272*]:
    → "It's Atomos! It's multiplying and replicating itself!"
209: 0x09F3 [0x23] WAIT_FOR_DIALOG_INTERACTION
210: 0x09F4 [0x52] END_LOAD_SCHEDULER: End scheduler "s015" with entities [EventEntity, EventEntity], work=770*
211: 0x0A03 [0x5F] MULTI_HANDLER_COMPLEX(mode=0x03 - Load ext scheduler (OpCode 0x5B mode 0), ref=3438*, entity1=Unnamed NPC (ID: 17523357/0x010B629D), entity2=Unnamed NPC (ID: 17523357/0x010B629D), string="fri1")
212: 0x0A13 [0x5F] MULTI_HANDLER_COMPLEX(mode=0x03 - Load ext scheduler (OpCode 0x5B mode 0), ref=3800*, entity1=Volto Oscuro (ID: 17523351/0x010B6297), entity2=Volto Oscuro (ID: 17523351/0x010B6297), string="fri0")
213: 0x0A23 [0x1C] WAIT(80* ticks)
214: 0x0A26 [0x5F] MULTI_HANDLER_COMPLEX(mode=0x03 - Load ext scheduler (OpCode 0x5B mode 0), ref=3438*, entity1=Unnamed NPC (ID: 17523357/0x010B629D), entity2=Unnamed NPC (ID: 17523357/0x010B629D), string="fri3")
215: 0x0A36 [0x1C] WAIT(180* ticks)
216: 0x0A39 [0x5F] MULTI_HANDLER_COMPLEX(mode=0x03 - Load ext scheduler (OpCode 0x5B mode 0), ref=3438*, entity1=Unnamed NPC (ID: 17523357/0x010B629D), entity2=Unnamed NPC (ID: 17523357/0x010B629D), string="fri2")
217: 0x0A49 [0x1C] WAIT(90* ticks)
218: 0x0A4C [0x27] REQ_SET(priority=0x05, entity_id=Cait Sith (ID: 17523288/0x010B6258), tag_num=0x8C)
219: 0x0A53 [0x1C] WAIT(10* ticks)
220: 0x0A56 [0x5F] MULTI_HANDLER_COMPLEX(mode=0x03 - Load ext scheduler (OpCode 0x5B mode 0), ref=3430*, entity1=Unnamed NPC (ID: 17523357/0x010B629D), entity2=Unnamed NPC (ID: 17523357/0x010B629D), string="cmof")
221: 0x0A66 [0x5F] MULTI_HANDLER_COMPLEX(mode=0x02 - Kill entity action (OpCode 0xC1))
222: 0x0A6C [0x45] LOAD_SCHEDULED_TASK: Load scheduler "s016" with entities [EventEntity, EventEntity], work=[770*, 0*]
223: 0x0A7D [0x1C] WAIT(60* ticks)
224: 0x0A80 [0x6B] STOP_AND_IDLE: Lilisette (ID: 17523300/0x010B6264) stops current action and resets to idle (animation="idl0")
225: 0x0A89 [0xD0] LOAD_SCHEDULED_TASK_ALT5: Load scheduler "akl0" with entities [Unnamed NPC (ID: 17523353/0x010B6299), Unnamed NPC (ID: 17523353/0x010B6299)], work=[148*, 0*]
226: 0x0A9A [0xD0] LOAD_SCHEDULED_TASK_ALT5: Load scheduler "akl0" with entities [Unnamed NPC (ID: 17523354/0x010B629A), Unnamed NPC (ID: 17523354/0x010B629A)], work=[148*, 0*]
227: 0x0AAB [0xD0] LOAD_SCHEDULED_TASK_ALT5: Load scheduler "akl0" with entities [Unnamed NPC (ID: 17523355/0x010B629B), Unnamed NPC (ID: 17523355/0x010B629B)], work=[148*, 0*]
228: 0x0ABC [0xD0] LOAD_SCHEDULED_TASK_ALT5: Load scheduler "akl0" with entities [Unnamed NPC (ID: 17523356/0x010B629C), Unnamed NPC (ID: 17523356/0x010B629C)], work=[148*, 0*]
229: 0x0ACD [0xD0] LOAD_SCHEDULED_TASK_ALT5: Load scheduler "skl0" with entities [Unnamed NPC (ID: 17523353/0x010B6299), Unnamed NPC (ID: 17523353/0x010B6299)], work=[148*, 0*]
230: 0x0ADE [0x6B] STOP_AND_IDLE: Unnamed NPC (ID: 17523353/0x010B6299) stops current action and resets to idle (animation="idl0")
231: 0x0AE7 [0x6B] STOP_AND_IDLE: Unnamed NPC (ID: 17523354/0x010B629A) stops current action and resets to idle (animation="idl0")
232: 0x0AF0 [0x6B] STOP_AND_IDLE: Unnamed NPC (ID: 17523355/0x010B629B) stops current action and resets to idle (animation="idl0")
233: 0x0AF9 [0x27] REQ_SET(priority=0x05, entity_id=Unnamed NPC (ID: 17523353/0x010B6299), tag_num=0x08)
234: 0x0B00 [0x27] REQ_SET(priority=0x05, entity_id=Unnamed NPC (ID: 17523354/0x010B629A), tag_num=0x04)
235: 0x0B07 [0x27] REQ_SET(priority=0x05, entity_id=Unnamed NPC (ID: 17523355/0x010B629B), tag_num=0x03)
236: 0x0B0E [0x4E] SET_ENTITY_HIDE_FLAG: Hide Unnamed NPC (ID: 17523353/0x010B6299)
237: 0x0B14 [0x4E] SET_ENTITY_HIDE_FLAG: Hide Unnamed NPC (ID: 17523354/0x010B629A)
238: 0x0B1A [0x4E] SET_ENTITY_HIDE_FLAG: Hide Unnamed NPC (ID: 17523355/0x010B629B)
239: 0x0B20 [0x4E] SET_ENTITY_HIDE_FLAG: Hide Unnamed NPC (ID: 17523356/0x010B629C)
240: 0x0B26 [0xBA] SET_ENTITY_POSITION(entity_id=Unnamed NPC (ID: 17523354/0x010B629A), pos_x=-652.000*, pos_z=-420.000*, pos_y=0.400*, direction=360.0°*)
241: 0x0B33 [0xBA] SET_ENTITY_POSITION(entity_id=Unnamed NPC (ID: 17523355/0x010B629B), pos_x=-639.685*, pos_z=-420.490*, pos_y=0.399*, direction=180.0°*)
242: 0x0B40 [0x5F] MULTI_HANDLER_COMPLEX(mode=0x03 - Load ext scheduler (OpCode 0x5B mode 0), ref=3800*, entity1=Volto Oscuro (ID: 17523351/0x010B6297), entity2=Volto Oscuro (ID: 17523351/0x010B6297), string="fri1")
243: 0x0B50 [0x1C] WAIT(60* ticks)
244: 0x0B53 [0x52] END_LOAD_SCHEDULER: End scheduler "s016" with entities [EventEntity, EventEntity], work=770*
245: 0x0B62 [0x45] LOAD_SCHEDULED_TASK: Load scheduler "s017" with entities [EventEntity, EventEntity], work=[770*, 0*]
246: 0x0B73 [0x2A] GET_REQ_LEVEL(level=5, entity_id=Cait Sith (ID: 17523288/0x010B6258))
247: 0x0B79 [0x5B] LOAD_EXT_SCHEDULER: Load scheduler "tlb0" with entities [Cait Sith (ID: 17523288/0x010B6258), Cait Sith (ID: 17523288/0x010B6258)], work=1414*
248: 0x0B88 [0x2B] Cait Sith (ID: 17523288/0x010B6258) [8273*]:
    → "Hut-tut! Don't think I'm oblivious as to what's going on here! That I am utterly without clue!"
249: 0x0B8F [0x23] WAIT_FOR_DIALOG_INTERACTION
250: 0x0B90 [0x52] END_LOAD_SCHEDULER: End scheduler "s017" with entities [EventEntity, EventEntity], work=770*
251: 0x0B9F [0x45] LOAD_SCHEDULED_TASK: Load scheduler "s018" with entities [EventEntity, EventEntity], work=[770*, 0*]
252: 0x0BB0 [0x2B] Cait Sith (ID: 17523288/0x010B6258) [8274*]:
    → "You're trying to wrest Atomos's power for your own nefarious ends!"
253: 0x0BB7 [0x23] WAIT_FOR_DIALOG_INTERACTION
254: 0x0BB8 [0xBA] SET_ENTITY_POSITION(entity_id=Unnamed NPC (ID: 17523357/0x010B629D), pos_x=-612.000*, pos_z=-420.000*, pos_y=-14.600*, direction=360.0°*)
255: 0x0BC5 [0xBA] SET_ENTITY_POSITION(entity_id=Volto Oscuro (ID: 17523351/0x010B6297), pos_x=-612.000*, pos_z=-420.000*, pos_y=-14.600*, direction=360.0°*)
256: 0x0BD2 [0x27] REQ_SET(priority=0x05, entity_id=Unnamed NPC (ID: 17523353/0x010B6299), tag_num=0x05)
257: 0x0BD9 [0x1C] WAIT(10* ticks)
258: 0x0BDC [0x5B] LOAD_EXT_SCHEDULER: Load scheduler "tlb1" with entities [Cait Sith (ID: 17523288/0x010B6258), Cait Sith (ID: 17523288/0x010B6258)], work=1414*
259: 0x0BEB [0x52] END_LOAD_SCHEDULER: End scheduler "s018" with entities [EventEntity, EventEntity], work=770*
260: 0x0BFA [0xAE] MULTI_PURPOSE_ENTITY_HANDLER(case_type=0x05 - Link ActorPointer, entity1=Unnamed NPC (ID: 17523357/0x010B629D), entity2=Volto Oscuro (ID: 17523351/0x010B6297))
261: 0x0C04 [0x5F] MULTI_HANDLER_COMPLEX(mode=0x03 - Load ext scheduler (OpCode 0x5B mode 0), ref=3438*, entity1=Unnamed NPC (ID: 17523357/0x010B629D), entity2=Unnamed NPC (ID: 17523357/0x010B629D), string="atk0")
262: 0x0C14 [0x5F] MULTI_HANDLER_COMPLEX(mode=0x03 - Load ext scheduler (OpCode 0x5B mode 0), ref=3801*, entity1=Volto Oscuro (ID: 17523351/0x010B6297), entity2=Volto Oscuro (ID: 17523351/0x010B6297), string="atk0")
263: 0x0C24 [0xD0] LOAD_SCHEDULED_TASK_ALT5: Load scheduler "xc00" with entities [Volto Oscuro (ID: 17523351/0x010B6297), Volto Oscuro (ID: 17523351/0x010B6297)], work=[152*, 0*]
264: 0x0C35 [0x1C] WAIT(280* ticks)
265: 0x0C38 [0x81] SET_ENTITY_BLINKING(blink_flag=0x00, entity=Lilisette (ID: 17523300/0x010B6264))
266: 0x0C3E [0x7C] Lilisette (ID: 17523300/0x010B6264)->Render.Flags2 |= 0x00
267: 0x0C44 [0x5B] LOAD_EXT_SCHEDULER: Load scheduler "fj01" with entities [Lilisette (ID: 17523300/0x010B6264), Lilisette (ID: 17523300/0x010B6264)], work=2135*
268: 0x0C53 [0x5B] LOAD_EXT_SCHEDULER: Load scheduler "hdb0" with entities [Lilisette (ID: 17523300/0x010B6264), Lilisette (ID: 17523300/0x010B6264)], work=2128*
269: 0x0C62 [0x5F] MULTI_HANDLER_COMPLEX(mode=0x03 - Load ext scheduler (OpCode 0x5B mode 0), ref=3430*, entity1=Unnamed NPC (ID: 17523357/0x010B629D), entity2=Unnamed NPC (ID: 17523357/0x010B629D), string="cmof")
270: 0x0C72 [0x5F] MULTI_HANDLER_COMPLEX(mode=0x02 - Kill entity action (OpCode 0xC1))
271: 0x0C78 [0x45] LOAD_SCHEDULED_TASK: Load scheduler "s019" with entities [EventEntity, EventEntity], work=[770*, 0*]
272: 0x0C89 [0x2B] Lilisette (ID: 17523300/0x010B6264) [8275*]:
    → "Cait Sith, look out!"
273: 0x0C90 [0x1C] WAIT(90* ticks)
274: 0x0C93 [0x5B] LOAD_EXT_SCHEDULER: Load scheduler "fj00" with entities [Lilisette (ID: 17523300/0x010B6264), Lilisette (ID: 17523300/0x010B6264)], work=2135*
275: 0x0CA2 [0x52] END_LOAD_SCHEDULER: End scheduler "s019" with entities [EventEntity, EventEntity], work=770*
276: 0x0CB1 [0x45] LOAD_SCHEDULED_TASK: Load scheduler "s020" with entities [EventEntity, EventEntity], work=[770*, 0*]
277: 0x0CC2 [0xD0] LOAD_SCHEDULED_TASK_ALT5: Load scheduler "ksk0" with entities [EventEntity, EventEntity], work=[152*, 0*]
278: 0x0CD3 [0x1C] WAIT(60* ticks)
279: 0x0CD6 [0x7B] LocalPlayer stops talking
280: 0x0CDB [0xBA] SET_ENTITY_POSITION(entity_id=Lilisette (ID: 17523300/0x010B6264), pos_x=-652.000*, pos_z=-420.000*, pos_y=0.400*, direction=12.3°*)
281: 0x0CE8 [0xBA] SET_ENTITY_POSITION(entity_id=LocalPlayer, pos_x=-652.916*, pos_z=-421.594*, pos_y=0.399*, direction=360.0°*)
282: 0x0CF5 [0x27] REQ_SET(priority=0x05, entity_id=Unnamed NPC (ID: 17523353/0x010B6299), tag_num=0x06)
283: 0x0CFC [0x1C] WAIT(20* ticks)
284: 0x0CFF [0x52] END_LOAD_SCHEDULER: End scheduler "s020" with entities [EventEntity, EventEntity], work=770*
285: 0x0D0E [0x5F] MULTI_HANDLER_COMPLEX(mode=0x03 - Load ext scheduler (OpCode 0x5B mode 0), ref=3438*, entity1=Unnamed NPC (ID: 17523357/0x010B629D), entity2=Unnamed NPC (ID: 17523357/0x010B629D), string="mir0")
286: 0x0D1E [0x5F] MULTI_HANDLER_COMPLEX(mode=0x03 - Load ext scheduler (OpCode 0x5B mode 0), ref=3801*, entity1=Volto Oscuro (ID: 17523351/0x010B6297), entity2=Volto Oscuro (ID: 17523351/0x010B6297), string="mir0")
287: 0x0D2E [0xC5] LOAD_SCHEDULED_TASK_ALT3: Load scheduler 0x80003074 for entities [Cait Sith (ID: 17523288/0x010B6258), Cait Sith (ID: 17523288/0x010B6258)], work=76*, param=26984
288: 0x0D3F [0x1C] WAIT(120* ticks)
289: 0x0D42 [0xBA] SET_ENTITY_POSITION(entity_id=Cait Sith (ID: 17523288/0x010B6258), pos_x=-651.581*, pos_z=-419.694*, pos_y=0.400*, direction=180.0°*)
290: 0x0D4F [0x5B] LOAD_EXT_SCHEDULER: Load scheduler "4302" with entities [Cait Sith (ID: 17523288/0x010B6258), Cait Sith (ID: 17523288/0x010B6258)], work=2519*
291: 0x0D5E [0xD0] LOAD_SCHEDULED_TASK_ALT5: Load scheduler "e1on" with entities [Cait Sith (ID: 17523288/0x010B6258), Cait Sith (ID: 17523288/0x010B6258)], work=[151*, 0*]
292: 0x0D6F [0xAE] MULTI_PURPOSE_ENTITY_HANDLER(case_type=0x06 - Unset ActorPointer, entity=Volto Oscuro (ID: 17523351/0x010B6297))
293: 0x0D75 [0x5F] MULTI_HANDLER_COMPLEX(mode=0x03 - Load ext scheduler (OpCode 0x5B mode 0), ref=3430*, entity1=Unnamed NPC (ID: 17523357/0x010B629D), entity2=Unnamed NPC (ID: 17523357/0x010B629D), string="cmof")
294: 0x0D85 [0x5F] MULTI_HANDLER_COMPLEX(mode=0x02 - Kill entity action (OpCode 0xC1))
295: 0x0D8B [0x45] LOAD_SCHEDULED_TASK: Load scheduler "s021" with entities [EventEntity, EventEntity], work=[770*, 0*]
296: 0x0D9C [0x5B] LOAD_EXT_SCHEDULER: Load scheduler "dshl" with entities [Lilisette (ID: 17523300/0x010B6264), Lilisette (ID: 17523300/0x010B6264)], work=2138*
297: 0x0DAB [0x02] IF !(LocalPlayer->Race == 1*) GOTO 0x0DC5
298: 0x0DB3 [0x66] LOAD_EXT_SCHEDULER_MAIN: Load scheduler "mab0" with entities [LocalPlayer, LocalPlayer], work=140*
299: 0x0DC2 [0x01] GOTO 0x0E7B
300: 0x0DC5 [0x02] IF !(LocalPlayer->Race == 2*) GOTO 0x0DDF
301: 0x0DCD [0x66] LOAD_EXT_SCHEDULER_MAIN: Load scheduler "mab0" with entities [LocalPlayer, LocalPlayer], work=150*
302: 0x0DDC [0x01] GOTO 0x0E7B
303: 0x0DDF [0x02] IF !(LocalPlayer->Race == 3*) GOTO 0x0DF9
304: 0x0DE7 [0x66] LOAD_EXT_SCHEDULER_MAIN: Load scheduler "mab0" with entities [LocalPlayer, LocalPlayer], work=160*
305: 0x0DF6 [0x01] GOTO 0x0E7B
306: 0x0DF9 [0x02] IF !(LocalPlayer->Race == 4*) GOTO 0x0E13
307: 0x0E01 [0x66] LOAD_EXT_SCHEDULER_MAIN: Load scheduler "mab0" with entities [LocalPlayer, LocalPlayer], work=170*
308: 0x0E10 [0x01] GOTO 0x0E7B
309: 0x0E13 [0x02] IF !(LocalPlayer->Race == 5*) GOTO 0x0E2D
310: 0x0E1B [0x66] LOAD_EXT_SCHEDULER_MAIN: Load scheduler "mab0" with entities [LocalPlayer, LocalPlayer], work=180*
311: 0x0E2A [0x01] GOTO 0x0E7B
312: 0x0E2D [0x02] IF !(LocalPlayer->Race == 6*) GOTO 0x0E47
313: 0x0E35 [0x66] LOAD_EXT_SCHEDULER_MAIN: Load scheduler "mab0" with entities [LocalPlayer, LocalPlayer], work=180*
314: 0x0E44 [0x01] GOTO 0x0E7B
315: 0x0E47 [0x02] IF !(LocalPlayer->Race == 7*) GOTO 0x0E61
316: 0x0E4F [0x66] LOAD_EXT_SCHEDULER_MAIN: Load scheduler "mab0" with entities [LocalPlayer, LocalPlayer], work=190*
317: 0x0E5E [0x01] GOTO 0x0E7B
318: 0x0E61 [0x02] IF !(LocalPlayer->Race == 8*) GOTO 0x0E7B
319: 0x0E69 [0x66] LOAD_EXT_SCHEDULER_MAIN: Load scheduler "mab0" with entities [LocalPlayer, LocalPlayer], work=200*
320: 0x0E78 [0x01] GOTO 0x0E7B

SUBROUTINE_0E7B:
321: 0x0E7B [0x2B] Cait Sith (ID: 17523288/0x010B6258) [8276*]:
    → "Nyah!?"
322: 0x0E82 [0x1C] WAIT(60* ticks)
323: 0x0E85 [0x27] REQ_SET(priority=0x05, entity_id=Unnamed NPC (ID: 17523352/0x010B6298), tag_num=0x03)
324: 0x0E8C [0x1C] WAIT(60* ticks)
325: 0x0E8F [0x52] END_LOAD_SCHEDULER: End scheduler "s021" with entities [EventEntity, EventEntity], work=770*
326: 0x0E9E [0x45] LOAD_SCHEDULED_TASK: Load scheduler "s022" with entities [EventEntity, EventEntity], work=[770*, 0*]
327: 0x0EAF [0x5B] LOAD_EXT_SCHEDULER: Load scheduler "43s4" with entities [Cait Sith (ID: 17523288/0x010B6258), Cait Sith (ID: 17523288/0x010B6258)], work=2519*
328: 0x0EBE [0xD0] LOAD_SCHEDULED_TASK_ALT5: Load scheduler "e2on" with entities [Cait Sith (ID: 17523288/0x010B6258), Cait Sith (ID: 17523288/0x010B6258)], work=[151*, 0*]
329: 0x0ECF [0x1C] WAIT(30* ticks)
330: 0x0ED2 [0xCD] LOAD_SCHEDULED_TASK_ALT4: Load scheduler "s002" with entities [EventEntity, EventEntity], work=[7*, 0*]
331: 0x0EE3 [0x1C] WAIT(30* ticks)
332: 0x0EE6 [0x1C] WAIT(60* ticks)
333: 0x0EE9 [0xD0] LOAD_SCHEDULED_TASK_ALT5: Load scheduler "xc01" with entities [Unnamed NPC (ID: 17523352/0x010B6298), Unnamed NPC (ID: 17523352/0x010B6298)], work=[152*, 0*]
334: 0x0EFA [0xD0] LOAD_SCHEDULED_TASK_ALT5: Load scheduler "km00" with entities [Unnamed NPC (ID: 17523352/0x010B6298), Unnamed NPC (ID: 17523352/0x010B6298)], work=[152*, 0*]
335: 0x0F0B [0x1C] WAIT(30* ticks)
336: 0x0F0E [0x52] END_LOAD_SCHEDULER: End scheduler "s022" with entities [EventEntity, EventEntity], work=770*
337: 0x0F1D [0x45] LOAD_SCHEDULED_TASK: Load scheduler "s023" with entities [EventEntity, EventEntity], work=[770*, 0*]
338: 0x0F2E [0x02] IF !(LocalPlayer->Race == 1*) GOTO 0x0F48
339: 0x0F36 [0x66] LOAD_EXT_SCHEDULER_MAIN: Load scheduler "mab1" with entities [LocalPlayer, LocalPlayer], work=140*
340: 0x0F45 [0x01] GOTO 0x0FFE
341: 0x0F48 [0x02] IF !(LocalPlayer->Race == 2*) GOTO 0x0F62
342: 0x0F50 [0x66] LOAD_EXT_SCHEDULER_MAIN: Load scheduler "mab1" with entities [LocalPlayer, LocalPlayer], work=150*
343: 0x0F5F [0x01] GOTO 0x0FFE
344: 0x0F62 [0x02] IF !(LocalPlayer->Race == 3*) GOTO 0x0F7C
345: 0x0F6A [0x66] LOAD_EXT_SCHEDULER_MAIN: Load scheduler "mab1" with entities [LocalPlayer, LocalPlayer], work=160*
346: 0x0F79 [0x01] GOTO 0x0FFE
347: 0x0F7C [0x02] IF !(LocalPlayer->Race == 4*) GOTO 0x0F96
348: 0x0F84 [0x66] LOAD_EXT_SCHEDULER_MAIN: Load scheduler "mab1" with entities [LocalPlayer, LocalPlayer], work=170*
349: 0x0F93 [0x01] GOTO 0x0FFE
350: 0x0F96 [0x02] IF !(LocalPlayer->Race == 5*) GOTO 0x0FB0
351: 0x0F9E [0x66] LOAD_EXT_SCHEDULER_MAIN: Load scheduler "mab1" with entities [LocalPlayer, LocalPlayer], work=180*
352: 0x0FAD [0x01] GOTO 0x0FFE
353: 0x0FB0 [0x02] IF !(LocalPlayer->Race == 6*) GOTO 0x0FCA
354: 0x0FB8 [0x66] LOAD_EXT_SCHEDULER_MAIN: Load scheduler "mab1" with entities [LocalPlayer, LocalPlayer], work=180*
355: 0x0FC7 [0x01] GOTO 0x0FFE
356: 0x0FCA [0x02] IF !(LocalPlayer->Race == 7*) GOTO 0x0FE4
357: 0x0FD2 [0x66] LOAD_EXT_SCHEDULER_MAIN: Load scheduler "mab1" with entities [LocalPlayer, LocalPlayer], work=190*
358: 0x0FE1 [0x01] GOTO 0x0FFE
359: 0x0FE4 [0x02] IF !(LocalPlayer->Race == 8*) GOTO 0x0FFE
360: 0x0FEC [0x66] LOAD_EXT_SCHEDULER_MAIN: Load scheduler "mab1" with entities [LocalPlayer, LocalPlayer], work=200*
361: 0x0FFB [0x01] GOTO 0x0FFE

SUBROUTINE_0FFE:
362: 0x0FFE [0x1C] WAIT(100* ticks)
363: 0x1001 [0xBA] SET_ENTITY_POSITION(entity_id=Volto Oscuro (ID: 17523351/0x010B6297), pos_x=-624.000*, pos_z=-420.000*, pos_y=-10.000*, direction=360.0°*)
364: 0x100E [0x5F] MULTI_HANDLER_COMPLEX(mode=0x03 - Load ext scheduler (OpCode 0x5B mode 0), ref=3801*, entity1=Volto Oscuro (ID: 17523351/0x010B6297), entity2=Volto Oscuro (ID: 17523351/0x010B6297), string="mio0")
365: 0x101E [0x1C] WAIT(100* ticks)
366: 0x1021 [0x52] END_LOAD_SCHEDULER: End scheduler "s023" with entities [EventEntity, EventEntity], work=770*
367: 0x1030 [0x02] IF !(LocalPlayer->Race == 5*) GOTO 0x104C
368: 0x1038 [0x45] LOAD_SCHEDULED_TASK: Load scheduler "s025" with entities [EventEntity, EventEntity], work=[770*, 0*]
369: 0x1049 [0x01] GOTO 0x1079
370: 0x104C [0x02] IF !(LocalPlayer->Race == 6*) GOTO 0x1068
371: 0x1054 [0x45] LOAD_SCHEDULED_TASK: Load scheduler "s025" with entities [EventEntity, EventEntity], work=[770*, 0*]
372: 0x1065 [0x01] GOTO 0x1079
373: 0x1068 [0x45] LOAD_SCHEDULED_TASK: Load scheduler "s024" with entities [EventEntity, EventEntity], work=[770*, 0*]

SUBROUTINE_1079:
374: 0x1079 [0x1C] WAIT(60* ticks)
375: 0x107C [0xD0] LOAD_SCHEDULED_TASK_ALT5: Load scheduler "kmkl" with entities [Unnamed NPC (ID: 17523352/0x010B6298), Unnamed NPC (ID: 17523352/0x010B6298)], work=[152*, 0*]
376: 0x108D [0x5F] MULTI_HANDLER_COMPLEX(mode=0x03 - Load ext scheduler (OpCode 0x5B mode 0), ref=3806*, entity1=Unnamed NPC (ID: 17523352/0x010B6298), entity2=Unnamed NPC (ID: 17523352/0x010B6298), string="ken0")
377: 0x109D [0xBA] SET_ENTITY_POSITION(entity_id=Cait Sith (ID: 17523288/0x010B6258), pos_x=-655.539*, pos_z=-420.657*, pos_y=0.399*, direction=0.0°*)
378: 0x10AA [0xBA] SET_ENTITY_POSITION(entity_id=Unnamed NPC (ID: 17523352/0x010B6298), pos_x=-652.000*, pos_z=-420.000*, pos_y=0.400*, direction=360.0°*)
379: 0x10B7 [0x5B] LOAD_EXT_SCHEDULER: Load scheduler "4305" with entities [Cait Sith (ID: 17523288/0x010B6258), Cait Sith (ID: 17523288/0x010B6258)], work=2519*
380: 0x10C6 [0x1C] WAIT(60* ticks)
381: 0x10C9 [0x52] END_LOAD_SCHEDULER: End scheduler "s024" with entities [EventEntity, EventEntity], work=770*
382: 0x10D8 [0x52] END_LOAD_SCHEDULER: End scheduler "s025" with entities [EventEntity, EventEntity], work=770*
383: 0x10E7 [0x45] LOAD_SCHEDULED_TASK: Load scheduler "s026" with entities [EventEntity, EventEntity], work=[770*, 0*]
384: 0x10F8 [0xD0] LOAD_SCHEDULED_TASK_ALT5: Load scheduler "in00" with entities [Volto Oscuro (ID: 17523351/0x010B6297), Volto Oscuro (ID: 17523351/0x010B6297)], work=[162*, 0*]
385: 0x1109 [0x1C] WAIT(200* ticks)
386: 0x110C [0xBA] SET_ENTITY_POSITION(entity_id=Unnamed NPC (ID: 17523357/0x010B629D), pos_x=-652.000*, pos_z=-420.000*, pos_y=0.400*, direction=360.0°*)
387: 0x1119 [0xBA] SET_ENTITY_POSITION(entity_id=Volto Oscuro (ID: 17523351/0x010B6297), pos_x=-652.000*, pos_z=-420.000*, pos_y=0.400*, direction=360.0°*)
388: 0x1126 [0x27] REQ_SET(priority=0x05, entity_id=Unnamed NPC (ID: 17523353/0x010B6299), tag_num=0x07)
389: 0x112D [0x1C] WAIT(80* ticks)
390: 0x1130 [0x52] END_LOAD_SCHEDULER: End scheduler "s026" with entities [EventEntity, EventEntity], work=770*
391: 0x113F [0xAE] MULTI_PURPOSE_ENTITY_HANDLER(case_type=0x05 - Link ActorPointer, entity1=Unnamed NPC (ID: 17523357/0x010B629D), entity2=Volto Oscuro (ID: 17523351/0x010B6297))
392: 0x1149 [0x5F] MULTI_HANDLER_COMPLEX(mode=0x03 - Load ext scheduler (OpCode 0x5B mode 0), ref=3438*, entity1=Unnamed NPC (ID: 17523357/0x010B629D), entity2=Unnamed NPC (ID: 17523357/0x010B629D), string="kam1")
393: 0x1159 [0x5F] MULTI_HANDLER_COMPLEX(mode=0x03 - Load ext scheduler (OpCode 0x5B mode 0), ref=3802*, entity1=Volto Oscuro (ID: 17523351/0x010B6297), entity2=Volto Oscuro (ID: 17523351/0x010B6297), string="kam0")
394: 0x1169 [0xD0] LOAD_SCHEDULED_TASK_ALT5: Load scheduler "xc02" with entities [Volto Oscuro (ID: 17523351/0x010B6297), Volto Oscuro (ID: 17523351/0x010B6297)], work=[152*, 0*]
395: 0x117A [0xD0] LOAD_SCHEDULED_TASK_ALT5: Load scheduler "out0" with entities [Volto Oscuro (ID: 17523351/0x010B6297), Volto Oscuro (ID: 17523351/0x010B6297)], work=[162*, 0*]
396: 0x118B [0x5F] MULTI_HANDLER_COMPLEX(mode=0x03 - Load ext scheduler (OpCode 0x5B mode 0), ref=3806*, entity1=Unnamed NPC (ID: 17523352/0x010B6298), entity2=Unnamed NPC (ID: 17523352/0x010B6298), string="ken1")
397: 0x119B [0xD0] LOAD_SCHEDULED_TASK_ALT5: Load scheduler "xc04" with entities [Unnamed NPC (ID: 17523352/0x010B6298), Unnamed NPC (ID: 17523352/0x010B6298)], work=[152*, 0*]
398: 0x11AC [0x1C] WAIT(200* ticks)
399: 0x11AF [0x6B] STOP_AND_IDLE: LocalPlayer stops current action and resets to idle (animation="idl0")
400: 0x11B8 [0x6B] STOP_AND_IDLE: Lilisette (ID: 17523300/0x010B6264) stops current action and resets to idle (animation="idl0")
401: 0x11C1 [0x4A] Lilisette (ID: 17523300/0x010B6264) looks at Volto Oscuro (ID: 17523351/0x010B6297)
402: 0x11CA [0x79] LocalPlayer looks at Volto Oscuro (ID: 17523351/0x010B6297) (Basic look)
403: 0x11D4 [0x1C] WAIT(280* ticks)
404: 0x11D7 [0xAE] MULTI_PURPOSE_ENTITY_HANDLER(case_type=0x06 - Unset ActorPointer, entity=Volto Oscuro (ID: 17523351/0x010B6297))
405: 0x11DD [0x5F] MULTI_HANDLER_COMPLEX(mode=0x03 - Load ext scheduler (OpCode 0x5B mode 0), ref=3430*, entity1=Unnamed NPC (ID: 17523357/0x010B629D), entity2=Unnamed NPC (ID: 17523357/0x010B629D), string="cmof")
406: 0x11ED [0x5F] MULTI_HANDLER_COMPLEX(mode=0x02 - Kill entity action (OpCode 0xC1))
407: 0x11F3 [0x45] LOAD_SCHEDULED_TASK: Load scheduler "s027" with entities [EventEntity, EventEntity], work=[770*, 0*]
408: 0x1204 [0x5B] LOAD_EXT_SCHEDULER: Load scheduler "fj01" with entities [Lilisette (ID: 17523300/0x010B6264), Lilisette (ID: 17523300/0x010B6264)], work=2135*
409: 0x1213 [0x5B] LOAD_EXT_SCHEDULER: Load scheduler "hda0" with entities [Lilisette (ID: 17523300/0x010B6264), Lilisette (ID: 17523300/0x010B6264)], work=2137*
410: 0x1222 [0x2B] Lilisette (ID: 17523300/0x010B6264) [8278*]:
    → "The future is for us to decide--not you!"
411: 0x1229 [0x23] WAIT_FOR_DIALOG_INTERACTION
412: 0x122A [0x02] IF !(ExtData[1]->WorkLocal[0] == 0*) GOTO 0x12A4
413: 0x1232 [0x2B] Lilisette (ID: 17523300/0x010B6264) [8279*]:
    → "Even if there are some things I would change, I still love this world!"
414: 0x1239 [0x23] WAIT_FOR_DIALOG_INTERACTION
415: 0x123A [0x52] END_LOAD_SCHEDULER: End scheduler "s027" with entities [EventEntity, EventEntity], work=770*
416: 0x1249 [0x45] LOAD_SCHEDULED_TASK: Load scheduler "s124" with entities [EventEntity, EventEntity], work=[770*, 0*]
417: 0x125A [0x2B] Lilisette (ID: 17523300/0x010B6264) [8280*]:
    → "Yes, some crosses are difficult to bear and we lash out at things we find unjust..."
418: 0x1261 [0x23] WAIT_FOR_DIALOG_INTERACTION
419: 0x1262 [0x2B] Lilisette (ID: 17523300/0x010B6264) [8281*]:
    → "But our future is supposed to be bright and full of laughter, not wracked with despair!"
420: 0x1269 [0x23] WAIT_FOR_DIALOG_INTERACTION
421: 0x126A [0x52] END_LOAD_SCHEDULER: End scheduler "s124" with entities [EventEntity, EventEntity], work=770*
422: 0x1279 [0x45] LOAD_SCHEDULED_TASK: Load scheduler "s028" with entities [EventEntity, EventEntity], work=[770*, 0*]
423: 0x128A [0x5B] LOAD_EXT_SCHEDULER: Load scheduler "hda2" with entities [Lilisette (ID: 17523300/0x010B6264), Lilisette (ID: 17523300/0x010B6264)], work=2137*
424: 0x1299 [0x2B] Lilisette (ID: 17523300/0x010B6264) [8282*]:
    → "Nothing can stop me from protecting all that Vana'diel can be. Nothing!"
425: 0x12A0 [0x23] WAIT_FOR_DIALOG_INTERACTION
426: 0x12A1 [0x01] GOTO 0x1313
427: 0x12A4 [0x2B] Lilisette (ID: 17523300/0x010B6264) [8283*]:
    → "Even if there are some things we would change, we still love this world."
428: 0x12AB [0x23] WAIT_FOR_DIALOG_INTERACTION
429: 0x12AC [0x52] END_LOAD_SCHEDULER: End scheduler "s027" with entities [EventEntity, EventEntity], work=770*
430: 0x12BB [0x45] LOAD_SCHEDULED_TASK: Load scheduler "s124" with entities [EventEntity, EventEntity], work=[770*, 0*]
431: 0x12CC [0x2B] Lilisette (ID: 17523300/0x010B6264) [8284*]:
    → "Yes, some crosses are difficult to bear and we lash out at things we find unjust..."
432: 0x12D3 [0x23] WAIT_FOR_DIALOG_INTERACTION
433: 0x12D4 [0x2B] Lilisette (ID: 17523300/0x010B6264) [8285*]:
    → "But our future is supposed to be bright and full of laughter, not wracked with despair!"
434: 0x12DB [0x23] WAIT_FOR_DIALOG_INTERACTION
435: 0x12DC [0x52] END_LOAD_SCHEDULER: End scheduler "s124" with entities [EventEntity, EventEntity], work=770*
436: 0x12EB [0x45] LOAD_SCHEDULED_TASK: Load scheduler "s028" with entities [EventEntity, EventEntity], work=[770*, 0*]
437: 0x12FC [0x5B] LOAD_EXT_SCHEDULER: Load scheduler "hda2" with entities [Lilisette (ID: 17523300/0x010B6264), Lilisette (ID: 17523300/0x010B6264)], work=2137*
438: 0x130B [0x2B] Lilisette (ID: 17523300/0x010B6264) [8286*]:
    → "Nothing can stop us from protecting all that Vana'diel can be. Nothing!"
439: 0x1312 [0x23] WAIT_FOR_DIALOG_INTERACTION

SUBROUTINE_1313:
440: 0x1313 [0x5B] LOAD_EXT_SCHEDULER: Load scheduler "fj00" with entities [Lilisette (ID: 17523300/0x010B6264), Lilisette (ID: 17523300/0x010B6264)], work=2135*
441: 0x1322 [0x5B] LOAD_EXT_SCHEDULER: Load scheduler "hda1" with entities [Lilisette (ID: 17523300/0x010B6264), Lilisette (ID: 17523300/0x010B6264)], work=2137*
442: 0x1331 [0x5D] SET_MUSIC_VOLUME(volume=0*, fade_time=320*)
443: 0x1336 [0x52] END_LOAD_SCHEDULER: End scheduler "s028" with entities [EventEntity, EventEntity], work=770*
444: 0x1345 [0x5F] MULTI_HANDLER_COMPLEX(mode=0x03 - Load ext scheduler (OpCode 0x5B mode 0), ref=3803*, entity1=Volto Oscuro (ID: 17523351/0x010B6297), entity2=Volto Oscuro (ID: 17523351/0x010B6297), string="kru0")
445: 0x1355 [0xD0] LOAD_SCHEDULED_TASK_ALT5: Load scheduler "xc03" with entities [Volto Oscuro (ID: 17523351/0x010B6297), Volto Oscuro (ID: 17523351/0x010B6297)], work=[152*, 0*]
