# 17523331

## Common Data

| Field            | Value                    |
|------------------|--------------------------|
| Zone             | Walk of Echoes (ID: 182) |
| Block Size       | 312 bytes                |
| Total Events     | 14                       |
| References Count | 9                        |

## List of Events

| Event ID                   | Entrypoint   |   Size |   Instructions |
|----------------------------|--------------|--------|----------------|
| [65535](#event-65535)      | 0x0000       |      1 |              1 |
| [4](#event-4)              | 0x0001       |     15 |              4 |
| [10](#event-10)            | 0x0010       |     15 |              4 |
| [65535.1](#event-655351)   | 0x001F       |     10 |              2 |
| [65535.2](#event-655352)   | 0x0029       |     10 |              2 |
| [65535.3](#event-655353)   | 0x0033       |     10 |              2 |
| [65535.4](#event-655354)   | 0x003D       |     10 |              2 |
| [65535.5](#event-655355)   | 0x0047       |     10 |              2 |
| [65535.6](#event-655356)   | 0x0051       |     10 |              2 |
| [65535.7](#event-655357)   | 0x005B       |     10 |              2 |
| [65535.8](#event-655358)   | 0x0065       |     38 |              4 |
| [65535.9](#event-655359)   | 0x008B       |     13 |              3 |
| [65535.10](#event-6553510) | 0x0098       |     41 |              5 |
| [65535.11](#event-6553511) | 0x00C1       |     10 |              2 |

## DAT References (imed_data)

|   Index | Hex Value   |   Dec Value |
|---------|-------------|-------------|
|       0 | 0x0000      |           0 |
|       1 | 0x0078      |         120 |
|       2 | 0x007F      |         127 |
|       3 | 0x003C      |          60 |
|       4 | 0x0001      |           1 |
|       5 | 0x0094      |         148 |
|       6 | 0x001E      |          30 |
|       7 | 0x0050      |          80 |
|       8 | 0x0096      |         150 |

## Events

### Event 65535

#### Metadata

| Field        | Value   |
|--------------|---------|
| Entrypoint   | 0x0000  |
| Data Size    | 1 bytes |
| Instructions | 1       |

```
      00 01 02 03 04 05 06 07  08 09 0A 0B 0C 0D 0E 0F
      -- -- -- -- -- -- -- --  -- -- -- -- -- -- -- --
0000: 00                                                .               
```

#### Opcodes

```
  0: 0x0000 [0x00] END_REQSTACK()
```

### Event 4

#### Metadata

| Field        | Value    |
|--------------|----------|
| Entrypoint   | 0x0001   |
| Data Size    | 15 bytes |
| Instructions | 4        |

```
      00 01 02 03 04 05 06 07  08 09 0A 0B 0C 0D 0E 0F
      -- -- -- -- -- -- -- --  -- -- -- -- -- -- -- --
0000:    2F 00 83 62 0B 01 22  00 92 01 83 62 0B 01 00   /..b.."....b...
```

#### Opcodes

```
  0: 0x0001 [0x2F] ??? (ID: 17523331/0x010B6283)->Render.Flags0 &= ~0x80000 // Bit 19
  1: 0x0007 [0x22] ENTITY_HIDE_FLAG(enabled=0x00)
  2: 0x0009 [0x92] ??? (ID: 17523331/0x010B6283)->Render.Flags3 ^= 0x01
  3: 0x000F [0x00] END_REQSTACK()
```

### Event 10

#### Metadata

| Field        | Value    |
|--------------|----------|
| Entrypoint   | 0x0010   |
| Data Size    | 15 bytes |
| Instructions | 4        |

```
      00 01 02 03 04 05 06 07  08 09 0A 0B 0C 0D 0E 0F
      -- -- -- -- -- -- -- --  -- -- -- -- -- -- -- --
0010: 2F 00 83 62 0B 01 22 00  92 01 83 62 0B 01 00     /..b.."....b... 
```

#### Opcodes

```
  0: 0x0010 [0x2F] ??? (ID: 17523331/0x010B6283)->Render.Flags0 &= ~0x80000 // Bit 19
  1: 0x0016 [0x22] ENTITY_HIDE_FLAG(enabled=0x00)
  2: 0x0018 [0x92] ??? (ID: 17523331/0x010B6283)->Render.Flags3 ^= 0x01
  3: 0x001E [0x00] END_REQSTACK()
```

### Event 65535.1

#### Metadata

| Field        | Value    |
|--------------|----------|
| Entrypoint   | 0x001F   |
| Data Size    | 10 bytes |
| Instructions | 2        |

```
      00 01 02 03 04 05 06 07  08 09 0A 0B 0C 0D 0E 0F
      -- -- -- -- -- -- -- --  -- -- -- -- -- -- -- --
0010:                                               6C                 l
0020: 58 62 0B 01 00 80 01 80  00                       Xb.......       
```

#### Opcodes

```
  0: 0x001F [0x6C] FADE_ENTITY_COLOR(entity_id=Cait Sith (ID: 17523288/0x010B6258), end_alpha=0*, fade_time=120*)
  1: 0x0028 [0x00] END_REQSTACK()
```

### Event 65535.2

#### Metadata

| Field        | Value    |
|--------------|----------|
| Entrypoint   | 0x0029   |
| Data Size    | 10 bytes |
| Instructions | 2        |

```
      00 01 02 03 04 05 06 07  08 09 0A 0B 0C 0D 0E 0F
      -- -- -- -- -- -- -- --  -- -- -- -- -- -- -- --
0020:                             6C 58 62 0B 01 02 80           lXb....
0030: 03 80 00                                          ...             
```

#### Opcodes

```
  0: 0x0029 [0x6C] FADE_ENTITY_COLOR(entity_id=Cait Sith (ID: 17523288/0x010B6258), end_alpha=127*, fade_time=60*)
  1: 0x0032 [0x00] END_REQSTACK()
```

### Event 65535.3

#### Metadata

| Field        | Value    |
|--------------|----------|
| Entrypoint   | 0x0033   |
| Data Size    | 10 bytes |
| Instructions | 2        |

```
      00 01 02 03 04 05 06 07  08 09 0A 0B 0C 0D 0E 0F
      -- -- -- -- -- -- -- --  -- -- -- -- -- -- -- --
0030:          6C 67 62 0B 01  00 80 04 80 00              lgb.......   
```

#### Opcodes

```
  0: 0x0033 [0x6C] FADE_ENTITY_COLOR(entity_id=Lady Lilith (ID: 17523303/0x010B6267), end_alpha=0*, fade_time=1*)
  1: 0x003C [0x00] END_REQSTACK()
```

### Event 65535.4

#### Metadata

| Field        | Value    |
|--------------|----------|
| Entrypoint   | 0x003D   |
| Data Size    | 10 bytes |
| Instructions | 2        |

```
      00 01 02 03 04 05 06 07  08 09 0A 0B 0C 0D 0E 0F
      -- -- -- -- -- -- -- --  -- -- -- -- -- -- -- --
0030:                                         6C 67 62               lgb
0040: 0B 01 02 80 04 80 00                              .......         
```

#### Opcodes

```
  0: 0x003D [0x6C] FADE_ENTITY_COLOR(entity_id=Lady Lilith (ID: 17523303/0x010B6267), end_alpha=127*, fade_time=1*)
  1: 0x0046 [0x00] END_REQSTACK()
```

### Event 65535.5

#### Metadata

| Field        | Value    |
|--------------|----------|
| Entrypoint   | 0x0047   |
| Data Size    | 10 bytes |
| Instructions | 2        |

```
      00 01 02 03 04 05 06 07  08 09 0A 0B 0C 0D 0E 0F
      -- -- -- -- -- -- -- --  -- -- -- -- -- -- -- --
0040:                      6C  64 62 0B 01 00 80 04 80         ldb......
0050: 00                                                .               
```

#### Opcodes

```
  0: 0x0047 [0x6C] FADE_ENTITY_COLOR(entity_id=Lilisette (ID: 17523300/0x010B6264), end_alpha=0*, fade_time=1*)
  1: 0x0050 [0x00] END_REQSTACK()
```

### Event 65535.6

#### Metadata

| Field        | Value    |
|--------------|----------|
| Entrypoint   | 0x0051   |
| Data Size    | 10 bytes |
| Instructions | 2        |

```
      00 01 02 03 04 05 06 07  08 09 0A 0B 0C 0D 0E 0F
      -- -- -- -- -- -- -- --  -- -- -- -- -- -- -- --
0050:    6C 64 62 0B 01 02 80  04 80 00                  ldb.......     
```

#### Opcodes

```
  0: 0x0051 [0x6C] FADE_ENTITY_COLOR(entity_id=Lilisette (ID: 17523300/0x010B6264), end_alpha=127*, fade_time=1*)
  1: 0x005A [0x00] END_REQSTACK()
```

### Event 65535.7

#### Metadata

| Field        | Value    |
|--------------|----------|
| Entrypoint   | 0x005B   |
| Data Size    | 10 bytes |
| Instructions | 2        |

```
      00 01 02 03 04 05 06 07  08 09 0A 0B 0C 0D 0E 0F
      -- -- -- -- -- -- -- --  -- -- -- -- -- -- -- --
0050:                                   6C 64 62 0B 01             ldb..
0060: 00 80 01 80 00                                    .....           
```

#### Opcodes

```
  0: 0x005B [0x6C] FADE_ENTITY_COLOR(entity_id=Lilisette (ID: 17523300/0x010B6264), end_alpha=0*, fade_time=120*)
  1: 0x0064 [0x00] END_REQSTACK()
```

### Event 65535.8

#### Metadata

| Field        | Value    |
|--------------|----------|
| Entrypoint   | 0x0065   |
| Data Size    | 38 bytes |
| Instructions | 4        |

```
      00 01 02 03 04 05 06 07  08 09 0A 0B 0C 0D 0E 0F
      -- -- -- -- -- -- -- --  -- -- -- -- -- -- -- --
0060:                C5 05 80  64 62 0B 01 64 62 0B 01       ...db..db..
0070: 73 74 30 31 00 80 1C 06  80 C5 05 80 6C 62 0B 01  st01........lb..
0080: 6C 62 0B 01 73 74 30 36  00 80 00                 lb..st06...     
```

#### Opcodes

```
  0: 0x0065 [0xC5] LOAD_SCHEDULED_TASK_ALT3: Load scheduler 0x80003130 for entities [Lilisette (ID: 17523300/0x010B6264), Lilisette (ID: 17523300/0x010B6264)], work=148*, param=29811
  1: 0x0076 [0x1C] WAIT(30* ticks)
  2: 0x0079 [0xC5] LOAD_SCHEDULED_TASK_ALT3: Load scheduler 0x80003630 for entities [Portia (ID: 17523308/0x010B626C), Portia (ID: 17523308/0x010B626C)], work=148*, param=29811
  3: 0x008A [0x00] END_REQSTACK()
```

### Event 65535.9

#### Metadata

| Field        | Value    |
|--------------|----------|
| Entrypoint   | 0x008B   |
| Data Size    | 13 bytes |
| Instructions | 3        |

```
      00 01 02 03 04 05 06 07  08 09 0A 0B 0C 0D 0E 0F
      -- -- -- -- -- -- -- --  -- -- -- -- -- -- -- --
0080:                                   1C 07 80 6C 58             ...lX
0090: 62 0B 01 00 80 04 80 00                           b.......        
```

#### Opcodes

```
  0: 0x008B [0x1C] WAIT(80* ticks)
  1: 0x008E [0x6C] FADE_ENTITY_COLOR(entity_id=Cait Sith (ID: 17523288/0x010B6258), end_alpha=0*, fade_time=1*)
  2: 0x0097 [0x00] END_REQSTACK()
```

### Event 65535.10

#### Metadata

| Field        | Value    |
|--------------|----------|
| Entrypoint   | 0x0098   |
| Data Size    | 41 bytes |
| Instructions | 5        |

```
      00 01 02 03 04 05 06 07  08 09 0A 0B 0C 0D 0E 0F
      -- -- -- -- -- -- -- --  -- -- -- -- -- -- -- --
0090:                          1C 08 80 9F 02 80 F8 FF          ........
00A0: FF 7F F8 FF FF 7F 73 74  72 30 00 80 1C 03 80 9F  ......str0......
00B0: 02 80 F8 FF FF 7F F8 FF  FF 7F 6B 69 6C 6C 00 80  ..........kill..
00C0: 00                                                .               
```

#### Opcodes

```
  0: 0x0098 [0x1C] WAIT(150* ticks)
  1: 0x009B [0x9F] LOAD_SCHEDULED_TASK_ALT: Load scheduler "str0" with entities [EventEntity, EventEntity], work=[127*, 0*]
  2: 0x00AC [0x1C] WAIT(60* ticks)
  3: 0x00AF [0x9F] LOAD_SCHEDULED_TASK_ALT: Load scheduler "kill" with entities [EventEntity, EventEntity], work=[127*, 0*]
  4: 0x00C0 [0x00] END_REQSTACK()
```

### Event 65535.11

#### Metadata

| Field        | Value    |
|--------------|----------|
| Entrypoint   | 0x00C1   |
| Data Size    | 10 bytes |
| Instructions | 2        |

```
      00 01 02 03 04 05 06 07  08 09 0A 0B 0C 0D 0E 0F
      -- -- -- -- -- -- -- --  -- -- -- -- -- -- -- --
00C0:    6C F0 FF FF 7F 00 80  01 80 00                  l.........     
```

#### Opcodes

```
  0: 0x00C1 [0x6C] FADE_ENTITY_COLOR(entity_id=LocalPlayer, end_alpha=0*, fade_time=120*)
  1: 0x00CA [0x00] END_REQSTACK()
```
