# 2147483637

## Common Data

| Field            | Value                    |
|------------------|--------------------------|
| Zone             | Walk of Echoes (ID: 182) |
| Block Size       | 484 bytes                |
| Total Events     | 11                       |
| References Count | 16                       |

## List of Events

| Event ID                 | Entrypoint   |   Size |   Instructions |
|--------------------------|--------------|--------|----------------|
| [65535](#event-65535)    | 0x0000       |      1 |              1 |
| [1](#event-1)            | 0x0001       |     29 |              4 |
| [65535.1](#event-655351) | 0x001E       |     16 |              3 |
| [65535.2](#event-655352) | 0x002E       |     16 |              3 |
| [65535.3](#event-655353) | 0x003E       |     33 |              4 |
| [65535.4](#event-655354) | 0x005F       |      6 |              2 |
| [65535.5](#event-655355) | 0x0065       |      6 |              2 |
| [65535.6](#event-655356) | 0x006B       |     37 |              5 |
| [65535.7](#event-655357) | 0x0090       |     37 |              5 |
| [65535.8](#event-655358) | 0x00B5       |     14 |              2 |
| [65535.9](#event-655359) | 0x00C3       |    162 |             34 |

## DAT References (imed_data)

|   Index | Hex Value   |   Dec Value |
|---------|-------------|-------------|
|       0 | 0x0000      |           0 |
|       1 | 0x0001      |           1 |
|       2 | 0xFFF55CC2  |  4294270146 |
|       3 | 0xFFFDB93F  |  4294818111 |
|       4 | 0xFFFFCE1F  |  4294954527 |
|       5 | 0x0B54      |        2900 |
|       6 | 0x0080      |         128 |
|       7 | 0x0002      |           2 |
|       8 | 0xFFF55373  |  4294267763 |
|       9 | 0xFFFDB265  |  4294816357 |
|      10 | 0x0005      |           5 |
|      11 | 0x000A      |          10 |
|      12 | 0x0009      |           9 |
|      13 | 0x0046      |          70 |
|      14 | 0x008C      |         140 |
|      15 | 0x00D2      |         210 |

## Events

### Event 65535

#### Metadata

| Field        | Value   |
|--------------|---------|
| Entrypoint   | 0x0000  |
| Data Size    | 1 bytes |
| Instructions | 1       |

```
      00 01 02 03 04 05 06 07  08 09 0A 0B 0C 0D 0E 0F
      -- -- -- -- -- -- -- --  -- -- -- -- -- -- -- --
0000: 00                                                .               
```

#### Opcodes

```
  0: 0x0000 [0x00] END_REQSTACK()
```

### Event 1

#### Metadata

| Field        | Value    |
|--------------|----------|
| Entrypoint   | 0x0001   |
| Data Size    | 29 bytes |
| Instructions | 4        |

```
      00 01 02 03 04 05 06 07  08 09 0A 0B 0C 0D 0E 0F
      -- -- -- -- -- -- -- --  -- -- -- -- -- -- -- --
0000:    92 01 F8 FF FF 7F 6C  F8 FF FF 7F 00 80 01 80   ......l........
0010: BA F8 FF FF 7F 02 80 03  80 04 80 05 80 00        ..............  
```

#### Opcodes

```
  0: 0x0001 [0x92] EventEntity->Render.Flags3 ^= 0x01
  1: 0x0007 [0x6C] FADE_ENTITY_COLOR(entity_id=EventEntity, end_alpha=0*, fade_time=1*)
  2: 0x0010 [0xBA] SET_ENTITY_POSITION(entity_id=EventEntity, pos_x=-697.150*, pos_z=-149.185*, pos_y=-12.769*, direction=254.9°*)
  3: 0x001D [0x00] END_REQSTACK()
```

### Event 65535.1

#### Metadata

| Field        | Value    |
|--------------|----------|
| Entrypoint   | 0x001E   |
| Data Size    | 16 bytes |
| Instructions | 3        |

```
      00 01 02 03 04 05 06 07  08 09 0A 0B 0C 0D 0E 0F
      -- -- -- -- -- -- -- --  -- -- -- -- -- -- -- --
0010:                                            92 01                ..
0020: F8 FF FF 7F 6C F8 FF FF  7F 00 80 01 80 00        ....l.........  
```

#### Opcodes

```
  0: 0x001E [0x92] EventEntity->Render.Flags3 ^= 0x01
  1: 0x0024 [0x6C] FADE_ENTITY_COLOR(entity_id=EventEntity, end_alpha=0*, fade_time=1*)
  2: 0x002D [0x00] END_REQSTACK()
```

### Event 65535.2

#### Metadata

| Field        | Value    |
|--------------|----------|
| Entrypoint   | 0x002E   |
| Data Size    | 16 bytes |
| Instructions | 3        |

```
      00 01 02 03 04 05 06 07  08 09 0A 0B 0C 0D 0E 0F
      -- -- -- -- -- -- -- --  -- -- -- -- -- -- -- --
0020:                                            92 00                ..
0030: F8 FF FF 7F 6C F8 FF FF  7F 06 80 01 80 00        ....l.........  
```

#### Opcodes

```
  0: 0x002E [0x92] EventEntity->Render.Flags3 = Flags3  // No change (flag=0)
  1: 0x0034 [0x6C] FADE_ENTITY_COLOR(entity_id=EventEntity, end_alpha=128*, fade_time=1*)
  2: 0x003D [0x00] END_REQSTACK()
```

### Event 65535.3

#### Metadata

| Field        | Value    |
|--------------|----------|
| Entrypoint   | 0x003E   |
| Data Size    | 33 bytes |
| Instructions | 4        |

```
      00 01 02 03 04 05 06 07  08 09 0A 0B 0C 0D 0E 0F
      -- -- -- -- -- -- -- --  -- -- -- -- -- -- -- --
0030:                                            62 07                b.
0040: 80 F8 FF FF 7F F8 FF FF  7F 6D 61 69 6E 00 80 92  .........main...
0050: 00 F8 FF FF 7F 6C F8 FF  FF 7F 06 80 01 80 00     .....l......... 
```

#### Opcodes

```
  0: 0x003E [0x62] LOAD_EVENT_SCHEDULER: Load scheduler "main" with entities [EventEntity, EventEntity], work=[2*, 0*]
  1: 0x004F [0x92] EventEntity->Render.Flags3 = Flags3  // No change (flag=0)
  2: 0x0055 [0x6C] FADE_ENTITY_COLOR(entity_id=EventEntity, end_alpha=128*, fade_time=1*)
  3: 0x005E [0x00] END_REQSTACK()
```

### Event 65535.4

#### Metadata

| Field        | Value   |
|--------------|---------|
| Entrypoint   | 0x005F  |
| Data Size    | 6 bytes |
| Instructions | 2       |

```
      00 01 02 03 04 05 06 07  08 09 0A 0B 0C 0D 0E 0F
      -- -- -- -- -- -- -- --  -- -- -- -- -- -- -- --
0050:                                               03                 .
0060: 02 10 07 7F 00                                    .....           
```

#### Opcodes

```
  0: 0x005F [0x03] Work_Zone[2] = Entity->Race
  1: 0x0064 [0x00] END_REQSTACK()
```

### Event 65535.5

#### Metadata

| Field        | Value   |
|--------------|---------|
| Entrypoint   | 0x0065  |
| Data Size    | 6 bytes |
| Instructions | 2       |

```
      00 01 02 03 04 05 06 07  08 09 0A 0B 0C 0D 0E 0F
      -- -- -- -- -- -- -- --  -- -- -- -- -- -- -- --
0060:                03 02 10  0B 7F 00                      ......     
```

#### Opcodes

```
  0: 0x0065 [0x03] Work_Zone[2] = (Entity->Render.Flags01 >> 25) & 1
  1: 0x006A [0x00] END_REQSTACK()
```

### Event 65535.6

#### Metadata

| Field        | Value    |
|--------------|----------|
| Entrypoint   | 0x006B   |
| Data Size    | 37 bytes |
| Instructions | 5        |

```
      00 01 02 03 04 05 06 07  08 09 0A 0B 0C 0D 0E 0F
      -- -- -- -- -- -- -- --  -- -- -- -- -- -- -- --
0060:                                   03 00 00 07 7F             .....
0070: 1A D1 00 66 01 00 F8 FF  FF 7F F8 FF FF 7F 73 68  ...f..........sh
0080: 61 30 53 F8 FF FF 7F F8  FF FF 7F 73 68 61 30 00  a0S........sha0.
```

#### Opcodes

```
  0: 0x006B [0x03] ExtData[1]->WorkLocal[0] = Entity->Race
  1: 0x0070 [0x1A] CALL_SUBROUTINE(address=0x00D1)
  2: 0x0073 [0x66] LOAD_EXT_SCHEDULER_MAIN: Load scheduler "sha0" with entities [EventEntity, EventEntity], work=ExtData[1]->WorkLocal[1]
  3: 0x0082 [0x53] WAIT_SCHEDULER_TASK: Wait for scheduler "sha0" with entities [EventEntity, EventEntity]
  4: 0x008F [0x00] END_REQSTACK()
```

### Event 65535.7

#### Metadata

| Field        | Value    |
|--------------|----------|
| Entrypoint   | 0x0090   |
| Data Size    | 37 bytes |
| Instructions | 5        |

```
      00 01 02 03 04 05 06 07  08 09 0A 0B 0C 0D 0E 0F
      -- -- -- -- -- -- -- --  -- -- -- -- -- -- -- --
0090: 03 00 00 07 7F 1A D1 00  66 01 00 F8 FF FF 7F F8  ........f.......
00A0: FF FF 7F 73 68 61 31 53  F8 FF FF 7F F8 FF FF 7F  ...sha1S........
00B0: 73 68 61 31 00                                    sha1.           
```

#### Opcodes

```
  0: 0x0090 [0x03] ExtData[1]->WorkLocal[0] = Entity->Race
  1: 0x0095 [0x1A] CALL_SUBROUTINE(address=0x00D1)
  2: 0x0098 [0x66] LOAD_EXT_SCHEDULER_MAIN: Load scheduler "sha1" with entities [EventEntity, EventEntity], work=ExtData[1]->WorkLocal[1]
  3: 0x00A7 [0x53] WAIT_SCHEDULER_TASK: Wait for scheduler "sha1" with entities [EventEntity, EventEntity]
  4: 0x00B4 [0x00] END_REQSTACK()
```

### Event 65535.8

#### Metadata

| Field        | Value    |
|--------------|----------|
| Entrypoint   | 0x00B5   |
| Data Size    | 14 bytes |
| Instructions | 2        |

```
      00 01 02 03 04 05 06 07  08 09 0A 0B 0C 0D 0E 0F
      -- -- -- -- -- -- -- --  -- -- -- -- -- -- -- --
00B0:                BA F8 FF  FF 7F 08 80 09 80 04 80       ...........
00C0: 05 80 00                                          ...             
```

#### Opcodes

```
  0: 0x00B5 [0xBA] SET_ENTITY_POSITION(entity_id=EventEntity, pos_x=-699.533*, pos_z=-150.939*, pos_y=-12.769*, direction=254.9°*)
  1: 0x00C2 [0x00] END_REQSTACK()
```

### Event 65535.9

#### Metadata

| Field        | Value     |
|--------------|-----------|
| Entrypoint   | 0x00C3    |
| Data Size    | 162 bytes |
| Instructions | 2         |

```
      00 01 02 03 04 05 06 07  08 09 0A 0B 0C 0D 0E 0F
      -- -- -- -- -- -- -- --  -- -- -- -- -- -- -- --
00C0:          BA F8 FF FF 7F  02 80 03 80 04 80 05 80     .............
00D0: 00 03 01 00 00 00 02 01  00 0A 80 05 E6 00 08 01  ................
00E0: 00 01 80 01 EB 00 08 01  00 07 80 14 01 00 0B 80  ................
00F0: 07 01 00 0C 80 1B 03 01  00 00 00 02 01 00 0A 80  ................
0100: 05 0B 01 08 01 00 01 80  01 10 01 08 01 00 07 80  ................
0110: 14 01 00 0B 80 07 01 00  0D 80 1B 03 01 00 00 00  ................
0120: 02 01 00 0A 80 05 30 01  08 01 00 01 80 01 35 01  ......0.......5.
0130: 08 01 00 07 80 14 01 00  0B 80 07 01 00 0E 80 1B  ................
0140: 03 01 00 00 00 02 01 00  0A 80 05 55 01 08 01 00  ...........U....
0150: 01 80 01 5A 01 08 01 00  07 80 14 01 00 0B 80 07  ...Z............
0160: 01 00 0F 80 1B                                    .....           
```

#### Opcodes

```
  0: 0x00C3 [0xBA] SET_ENTITY_POSITION(entity_id=EventEntity, pos_x=-697.150*, pos_z=-149.185*, pos_y=-12.769*, direction=254.9°*)
  1: 0x00D0 [0x00] END_REQSTACK()
```

#### Data or dead code:

```
# Dead code (unreachable instructions):
     0x00D1 [0x03] ExtData[1]->WorkLocal[1] = ExtData[1]->WorkLocal[0]
     0x00D6 [0x02] IF !(ExtData[1]->WorkLocal[1] > 5*) GOTO 0x00E6
     0x00DE [0x08] ExtData[1]->WorkLocal[1] -= 1*
     0x00E3 [0x01] GOTO 0x00EB
     0x00E6 [0x08] ExtData[1]->WorkLocal[1] -= 2*
     0x00EB [0x14] ExtData[1]->WorkLocal[1] *= 10*
     0x00F0 [0x07] ExtData[1]->WorkLocal[1] += 9*
     0x00F5 [0x1B] RETURN
     0x00F6 [0x03] ExtData[1]->WorkLocal[1] = ExtData[1]->WorkLocal[0]
     0x00FB [0x02] IF !(ExtData[1]->WorkLocal[1] > 5*) GOTO 0x010B
     0x0103 [0x08] ExtData[1]->WorkLocal[1] -= 1*
     0x0108 [0x01] GOTO 0x0110
     0x010B [0x08] ExtData[1]->WorkLocal[1] -= 2*
     0x0110 [0x14] ExtData[1]->WorkLocal[1] *= 10*
     0x0115 [0x07] ExtData[1]->WorkLocal[1] += 70*
     0x011A [0x1B] RETURN
     0x011B [0x03] ExtData[1]->WorkLocal[1] = ExtData[1]->WorkLocal[0]
     0x0120 [0x02] IF !(ExtData[1]->WorkLocal[1] > 5*) GOTO 0x0130
     0x0128 [0x08] ExtData[1]->WorkLocal[1] -= 1*
     0x012D [0x01] GOTO 0x0135
     0x0130 [0x08] ExtData[1]->WorkLocal[1] -= 2*
     0x0135 [0x14] ExtData[1]->WorkLocal[1] *= 10*
     0x013A [0x07] ExtData[1]->WorkLocal[1] += 140*
     0x013F [0x1B] RETURN
     0x0140 [0x03] ExtData[1]->WorkLocal[1] = ExtData[1]->WorkLocal[0]
     0x0145 [0x02] IF !(ExtData[1]->WorkLocal[1] > 5*) GOTO 0x0155
     0x014D [0x08] ExtData[1]->WorkLocal[1] -= 1*
     0x0152 [0x01] GOTO 0x015A
     0x0155 [0x08] ExtData[1]->WorkLocal[1] -= 2*
     0x015A [0x14] ExtData[1]->WorkLocal[1] *= 10*
     0x015F [0x07] ExtData[1]->WorkLocal[1] += 210*
     0x0164 [0x1B] RETURN
```
