# 0x7FFFFFF0 - Zone Events

## Common Data

| Field            | Value                    |
|------------------|--------------------------|
| Zone             | Walk of Echoes (ID: 182) |
| Block Size       | 14972 bytes              |
| Total Events     | 95                       |
| References Count | 361                      |

## List of Events

| Event ID                   | Entrypoint   |   Size |   Instructions |
|----------------------------|--------------|--------|----------------|
| [65535](#event-65535)      | 0x0000       |      1 |              1 |
| [65534](#event-65534)      | 0x0001       |      1 |              1 |
| [50](#event-50)            | 0x0002       |    176 |             26 |
| [51](#event-51)            | 0x00B2       |     65 |              9 |
| [52](#event-52)            | 0x00F3       |     65 |              9 |
| [65535.1](#event-655351)   | 0x0134       |      6 |              2 |
| [65535.2](#event-655352)   | 0x013A       |      6 |              2 |
| [65535.3](#event-655353)   | 0x0140       |     37 |              5 |
| [65535.4](#event-655354)   | 0x0165       |     37 |              5 |
| [65535.5](#event-655355)   | 0x018A       |      7 |              3 |
| [65535.6](#event-655356)   | 0x0191       |      7 |              3 |
| [32000](#event-32000)      | 0x0198       |   2189 |            419 |
| [32002](#event-32002)      | 0x0A25       |    494 |             83 |
| [32001](#event-32001)      | 0x0C13       |    845 |            145 |
| [32003](#event-32003)      | 0x0F60       |    435 |             77 |
| [32004](#event-32004)      | 0x1113       |   3143 |            328 |
| [32005](#event-32005)      | 0x1D5A       |    468 |             90 |
| [65535.7](#event-655357)   | 0x1F2E       |     24 |              4 |
| [65535.8](#event-655358)   | 0x1F46       |     24 |              4 |
| [65535.9](#event-655359)   | 0x1F5E       |     38 |              5 |
| [65535.10](#event-6553510) | 0x1F84       |     38 |              5 |
| [65535.11](#event-6553511) | 0x1FAA       |     38 |              5 |
| [65535.12](#event-6553512) | 0x1FD0       |     37 |              5 |
| [65535.13](#event-6553513) | 0x1FF5       |     37 |              5 |
| [65535.14](#event-6553514) | 0x201A       |     42 |              6 |
| [65535.15](#event-6553515) | 0x2044       |     25 |              6 |
| [65535.16](#event-6553516) | 0x205D       |     25 |              6 |
| [65535.17](#event-6553517) | 0x2076       |     15 |              5 |
| [65535.18](#event-6553518) | 0x2085       |     10 |              2 |
| [65535.19](#event-6553519) | 0x208F       |     10 |              2 |
| [65535.20](#event-6553520) | 0x2099       |     14 |              4 |
| [65535.21](#event-6553521) | 0x20A7       |     20 |              6 |
| [65535.22](#event-6553522) | 0x20BB       |     14 |              4 |
| [65535.23](#event-6553523) | 0x20C9       |     55 |              9 |
| [65535.24](#event-6553524) | 0x2100       |     42 |              6 |
| [65535.25](#event-6553525) | 0x212A       |     42 |              6 |
| [65535.26](#event-6553526) | 0x2154       |     42 |              6 |
| [65535.27](#event-6553527) | 0x217E       |     42 |              6 |
| [65535.28](#event-6553528) | 0x21A8       |     31 |              6 |
| [65535.29](#event-6553529) | 0x21C7       |     29 |              5 |
| [65535.30](#event-6553530) | 0x21E4       |     20 |              6 |
| [65535.31](#event-6553531) | 0x21F8       |     24 |              4 |
| [65535.32](#event-6553532) | 0x2210       |     62 |              6 |
| [65535.33](#event-6553533) | 0x224E       |     38 |              5 |
| [65535.34](#event-6553534) | 0x2274       |     38 |              5 |
| [65535.35](#event-6553535) | 0x229A       |     38 |              5 |
| [65535.36](#event-6553536) | 0x22C0       |     19 |              5 |
| [65535.37](#event-6553537) | 0x22D3       |     15 |              5 |
| [65535.38](#event-6553538) | 0x22E2       |     14 |              4 |
| [65535.39](#event-6553539) | 0x22F0       |     12 |              4 |
| [65535.40](#event-6553540) | 0x22FC       |     20 |              6 |
| [65535.41](#event-6553541) | 0x2310       |     34 |              6 |
| [65535.42](#event-6553542) | 0x2332       |     29 |              5 |
| [65535.43](#event-6553543) | 0x234F       |     29 |              5 |
| [65535.44](#event-6553544) | 0x236C       |     29 |              5 |
| [65535.45](#event-6553545) | 0x2389       |     24 |              4 |
| [65535.46](#event-6553546) | 0x23A1       |     24 |              4 |
| [65535.47](#event-6553547) | 0x23B9       |     27 |              5 |
| [65535.48](#event-6553548) | 0x23D4       |     16 |              3 |
| [65535.49](#event-6553549) | 0x23E4       |     16 |              3 |
| [65535.50](#event-6553550) | 0x23F4       |     14 |              4 |
| [65535.51](#event-6553551) | 0x2402       |     14 |              4 |
| [65535.52](#event-6553552) | 0x2410       |     14 |              4 |
| [65535.53](#event-6553553) | 0x241E       |     14 |              4 |
| [65535.54](#event-6553554) | 0x242C       |      4 |              2 |
| [65535.55](#event-6553555) | 0x2430       |     70 |             15 |
| [65535.56](#event-6553556) | 0x2476       |     29 |              5 |
| [65535.57](#event-6553557) | 0x2493       |      6 |              2 |
| [65535.58](#event-6553558) | 0x2499       |      6 |              2 |
| [65535.59](#event-6553559) | 0x249F       |     10 |              2 |
| [65535.60](#event-6553560) | 0x24A9       |     14 |              4 |
| [65535.61](#event-6553561) | 0x24B7       |     10 |              2 |
| [65535.62](#event-6553562) | 0x24C1       |     14 |              4 |
| [65535.63](#event-6553563) | 0x24CF       |     10 |              2 |
| [65535.64](#event-6553564) | 0x24D9       |     10 |              2 |
| [65535.65](#event-6553565) | 0x24E3       |     14 |              4 |
| [65535.66](#event-6553566) | 0x24F1       |     14 |              4 |
| [65535.67](#event-6553567) | 0x24FF       |     49 |             11 |
| [65535.68](#event-6553568) | 0x2530       |     10 |              2 |
| [65535.69](#event-6553569) | 0x253A       |     10 |              2 |
| [65535.70](#event-6553570) | 0x2544       |     14 |              4 |
| [1000](#event-1000)        | 0x2552       |    884 |            201 |
| [1001](#event-1001)        | 0x28C6       |     64 |             17 |
| [1002](#event-1002)        | 0x2906       |     31 |              9 |
| [1003](#event-1003)        | 0x2925       |     31 |              9 |
| [1004](#event-1004)        | 0x2944       |    107 |             19 |
| [1005](#event-1005)        | 0x29AF       |     12 |              4 |
| [1006](#event-1006)        | 0x29BB       |    477 |             81 |
| [1602](#event-1602)        | 0x2B98       |   1670 |            249 |
| [65535.71](#event-6553571) | 0x321E       |     22 |              6 |
| [65535.72](#event-6553572) | 0x3234       |     14 |              4 |
| [65535.73](#event-6553573) | 0x3242       |     14 |              4 |
| [65535.74](#event-6553574) | 0x3250       |    217 |             25 |
| [65535.75](#event-6553575) | 0x3329       |     22 |              6 |
| [65535.76](#event-6553576) | 0x333F       |     10 |              2 |

## DAT References (imed_data)

|   Index | Hex Value   |   Dec Value |
|---------|-------------|-------------|
|       0 | 0x00C8      |         200 |
|       1 | 0x0000      |           0 |
|       2 | 0x003C      |          60 |
|       3 | 0x001E      |          30 |
|       4 | 0x005A      |          90 |
|       5 | 0x0001      |           1 |
|       6 | 0x000F      |          15 |
|       7 | 0x0010      |          16 |
|       8 | 0x001F      |          31 |
|       9 | 0xFFFFFFFF  |  4294967295 |
|      10 | 0x1E09      |        7689 |
|      11 | 0x1DF9      |        7673 |
|      12 | 0x0005      |           5 |
|      13 | 0x0002      |           2 |
|      14 | 0x0003      |           3 |
|      15 | 0x0004      |           4 |
|      16 | 0x1C8C      |        7308 |
|      17 | 0x00FF      |         255 |
|      18 | 0x0013      |          19 |
|      19 | 0x0008      |           8 |
|      20 | 0x0009      |           9 |
|      21 | 0x000B      |          11 |
|      22 | 0xFFF551A0  |  4294267296 |
|      23 | 0xFFFD40E0  |  4294787296 |
|      24 | 0xFFFFB9B0  |  4294949296 |
|      25 | 0x0C00      |        3072 |
|      26 | 0x1C97      |        7319 |
|      27 | 0x1C98      |        7320 |
|      28 | 0x1C99      |        7321 |
|      29 | 0x1C9A      |        7322 |
|      30 | 0x1CBE      |        7358 |
|      31 | 0x0006      |           6 |
|      32 | 0x0007      |           7 |
|      33 | 0x000A      |          10 |
|      34 | 0x000C      |          12 |
|      35 | 0x000D      |          13 |
|      36 | 0x000E      |          14 |
|      37 | 0x0011      |          17 |
|      38 | 0x0012      |          18 |
|      39 | 0x0014      |          20 |
|      40 | 0x0015      |          21 |
|      41 | 0x0016      |          22 |
|      42 | 0x0017      |          23 |
|      43 | 0x0018      |          24 |
|      44 | 0x0019      |          25 |
|      45 | 0x001A      |          26 |
|      46 | 0x001B      |          27 |
|      47 | 0x001C      |          28 |
|      48 | 0x001D      |          29 |
|      49 | 0x1DF3      |        7667 |
|      50 | 0x0064      |         100 |
|      51 | 0x1DDF      |        7647 |
|      52 | 0x00D9      |         217 |
|      53 | 0x002E      |          46 |
|      54 | 0x1C8F      |        7311 |
|      55 | 0x00C9      |         201 |
|      56 | 0x00B4      |         180 |
|      57 | 0xFFF6C42B  |  4294362155 |
|      58 | 0x752B9     |      479929 |
|      59 | 0xFFFFA767  |  4294944615 |
|      60 | 0x03E0      |         992 |
|      61 | 0xFFFBFE43  |  4294704707 |
|      62 | 0x5C401     |      377857 |
|      63 | 0xFFFDE79F  |  4294829983 |
|      64 | 0x0D92      |        3474 |
|      65 | 0x47AC      |       18348 |
|      66 | 0x76E1C     |      486940 |
|      67 | 0xFFFC93B2  |  4294742962 |
|      68 | 0x00C2      |         194 |
|      69 | 0x388A9     |      231593 |
|      70 | 0x57E9E     |      360094 |
|      71 | 0xFFFD59FC  |  4294793724 |
|      72 | 0x0726      |        1830 |
|      73 | 0x872C0     |      553664 |
|      74 | 0x7FEA3     |      523939 |
|      75 | 0xFFFF6AC3  |  4294929091 |
|      76 | 0x0A65      |        2661 |
|      77 | 0xFFFAE368  |  4294632296 |
|      78 | 0xFFFFBB40  |  4294949696 |
|      79 | 0x0400      |        1024 |
|      80 | 0xFFF2A593  |  4294092179 |
|      81 | 0xFFFF548C  |  4294923404 |
|      82 | 0xFFFF442C  |  4294919212 |
|      83 | 0x0201      |         513 |
|      84 | 0xFFF478D5  |  4294211797 |
|      85 | 0x89AEB     |      563947 |
|      86 | 0xFFFE4A5D  |  4294855261 |
|      87 | 0x0DEF      |        3567 |
|      88 | 0x1E173     |      123251 |
|      89 | 0xB8221     |      754209 |
|      90 | 0xFFFD5FA4  |  4294795172 |
|      91 | 0x01B8      |         440 |
|      92 | 0xFFF81ECC  |  4294450892 |
|      93 | 0xFFF3BE05  |  4294163973 |
|      94 | 0x5E8E      |       24206 |
|      95 | 0x01B5      |         437 |
|      96 | 0x012C      |         300 |
|      97 | 0x0080      |         128 |
|      98 | 0xFFF690A7  |  4294348967 |
|      99 | 0xFFF62CE4  |  4294323428 |
|     100 | 0xFFFF9B33  |  4294941491 |
|     101 | 0x0EB1      |        3761 |
|     102 | 0xFFFAEE7D  |  4294635133 |
|     103 | 0xFFF941C6  |  4294525382 |
|     104 | 0xFFFE8CB1  |  4294872241 |
|     105 | 0x0EB0      |        3760 |
|     106 | 0xFFFFCF50  |  4294954832 |
|     107 | 0xFFF61B47  |  4294318919 |
|     108 | 0xFFFD07BB  |  4294772667 |
|     109 | 0x0EBA      |        3770 |
|     110 | 0x4EF35     |      323381 |
|     111 | 0xFFF93A6F  |  4294523503 |
|     112 | 0xFFFE5868  |  4294858856 |
|     113 | 0x0EA0      |        3744 |
|     114 | 0x92763     |      599907 |
|     115 | 0xFFF5AB97  |  4294290327 |
|     116 | 0xFFFFA837  |  4294944823 |
|     117 | 0x0EB3      |        3763 |
|     118 | 0x00A8      |         168 |
|     119 | 0x30D7B     |      200059 |
|     120 | 0xFFFFAA3A  |  4294945338 |
|     121 | 0xFFFFFF06  |  4294967046 |
|     122 | 0x0411      |        1041 |
|     123 | 0x1DE1      |        7649 |
|     124 | 0x1DE0      |        7648 |
|     125 | 0x1E01      |        7681 |
|     126 | 0x1E05      |        7685 |
|     127 | 0x0078      |         120 |
|     128 | 0xFFF5517E  |  4294267262 |
|     129 | 0xFFFDE3A0  |  4294828960 |
|     130 | 0xFFFFCE1F  |  4294954527 |
|     131 | 0xFFF540F4  |  4294263028 |
|     132 | 0xFFFDE467  |  4294829159 |
|     133 | 0xFFF5317F  |  4294259071 |
|     134 | 0xFFFDBEB9  |  4294819513 |
|     135 | 0xFFFFBE7F  |  4294950527 |
|     136 | 0x0C5B      |        3163 |
|     137 | 0xFFF5611C  |  4294271260 |
|     138 | 0xFFFDD816  |  4294826006 |
|     139 | 0x0A4E      |        2638 |
|     140 | 0x0C1E      |        3102 |
|     141 | 0x057C      |        1404 |
|     142 | 0x082D      |        2093 |
|     143 | 0x051F      |        1311 |
|     144 | 0x0B27      |        2855 |
|     145 | 0x006A      |         106 |
|     146 | 0x0B8C      |        2956 |
|     147 | 0x0C1D      |        3101 |
|     148 | 0x0C07      |        3079 |
|     149 | 0x023E      |         574 |
|     150 | 0x1EB3      |        7859 |
|     151 | 0x1EB4      |        7860 |
|     152 | 0x006E      |         110 |
|     153 | 0x1EB5      |        7861 |
|     154 | 0x0028      |          40 |
|     155 | 0xFFF56915  |  4294273301 |
|     156 | 0xFFFDD25E  |  4294824542 |
|     157 | 0x0046      |          70 |
|     158 | 0x1EB6      |        7862 |
|     159 | 0x00AA      |         170 |
|     160 | 0x1EB7      |        7863 |
|     161 | 0x1EB8      |        7864 |
|     162 | 0x0C08      |        3080 |
|     163 | 0x006B      |         107 |
|     164 | 0x006C      |         108 |
|     165 | 0x0836      |        2102 |
|     166 | 0x0096      |         150 |
|     167 | 0x0057      |          87 |
|     168 | 0x1EB9      |        7865 |
|     169 | 0x1EBA      |        7866 |
|     170 | 0xFFF5287A  |  4294256762 |
|     171 | 0xFFFE0013  |  4294836243 |
|     172 | 0x0037      |          55 |
|     173 | 0x0C09      |        3081 |
|     174 | 0x00A0      |         160 |
|     175 | 0x0B1B      |        2843 |
|     176 | 0x1EBB      |        7867 |
|     177 | 0x00F0      |         240 |
|     178 | 0x0032      |          50 |
|     179 | 0x005F      |          95 |
|     180 | 0x1EBC      |        7868 |
|     181 | 0x007A      |         122 |
|     182 | 0x1EBD      |        7869 |
|     183 | 0x1EBE      |        7870 |
|     184 | 0x1EBF      |        7871 |
|     185 | 0xFFF579BC  |  4294277564 |
|     186 | 0xFFFDC385  |  4294820741 |
|     187 | 0x1EC0      |        7872 |
|     188 | 0xFFF55AA8  |  4294269608 |
|     189 | 0xFFFDDDB1  |  4294827441 |
|     190 | 0x01F4      |         500 |
|     191 | 0x0041      |          65 |
|     192 | 0x023A      |         570 |
|     193 | 0xFFFFC950  |  4294953296 |
|     194 | 0xFFF55211  |  4294267409 |
|     195 | 0xFFFDBBC7  |  4294818759 |
|     196 | 0x0B2C      |        2860 |
|     197 | 0x006D      |         109 |
|     198 | 0x0050      |          80 |
|     199 | 0xFFF81356  |  4294447958 |
|     200 | 0x7899B     |      493979 |
|     201 | 0xFFFE2B41  |  4294847297 |
|     202 | 0x0C21      |        3105 |
|     203 | 0xFFF8128A  |  4294447754 |
|     204 | 0x7804B     |      491595 |
|     205 | 0xFFFE2B40  |  4294847296 |
|     206 | 0x0C7E      |        3198 |
|     207 | 0xFFF80486  |  4294444166 |
|     208 | 0x786EB     |      493291 |
|     209 | 0x0C51      |        3153 |
|     210 | 0xFFF80BDB  |  4294446043 |
|     211 | 0x78530     |      492848 |
|     212 | 0x0C59      |        3161 |
|     213 | 0xFFF8199B  |  4294449563 |
|     214 | 0x783A0     |      492448 |
|     215 | 0x0B8D      |        2957 |
|     216 | 0xFFF82018  |  4294451224 |
|     217 | 0x785E2     |      493026 |
|     218 | 0x0B78      |        2936 |
|     219 | 0x008C      |         140 |
|     220 | 0x00D2      |         210 |
|     221 | 0x0091      |         145 |
|     222 | 0x004F      |          79 |
|     223 | 0x004C      |          76 |
|     224 | 0x0020      |          32 |
|     225 | 0x0030      |          48 |
|     226 | 0x0040      |          64 |
|     227 | 0xFFF5515D  |  4294267229 |
|     228 | 0xFFFDC8C2  |  4294822082 |
|     229 | 0xFFF55167  |  4294267239 |
|     230 | 0xFFF8D55F  |  4294497631 |
|     231 | 0x018F      |         399 |
|     232 | 0xFFF55521  |  4294268193 |
|     233 | 0xFFFAE2E6  |  4294632166 |
|     234 | 0xFFF5563F  |  4294268479 |
|     235 | 0xFFF973FC  |  4294538236 |
|     236 | 0xFFF98434  |  4294542388 |
|     237 | 0xFFFAAF20  |  4294618912 |
|     238 | 0xFFFFBB41  |  4294949697 |
|     239 | 0x004B      |          75 |
|     240 | 0xFFF97CA3  |  4294540451 |
|     241 | 0xFFFD4B2F  |  4294789935 |
|     242 | 0x36AF      |       13999 |
|     243 | 0x009C      |         156 |
|     244 | 0x01E2      |         482 |
|     245 | 0x0106      |         262 |
|     246 | 0x0060      |          96 |
|     247 | 0xFFF63FB7  |  4294328247 |
|     248 | 0xFFF99B9C  |  4294548380 |
|     249 | 0xFFF55144  |  4294267204 |
|     250 | 0xFFFB67A4  |  4294666148 |
|     251 | 0xFFF55170  |  4294267248 |
|     252 | 0xFFFB707E  |  4294668414 |
|     253 | 0xFFF54D53  |  4294266195 |
|     254 | 0xFFFDC3C0  |  4294820800 |
|     255 | 0xFFF543C0  |  4294263744 |
|     256 | 0xFFFDACC6  |  4294814918 |
|     257 | 0xFFF5561D  |  4294268445 |
|     258 | 0xFFFE9740  |  4294874944 |
|     259 | 0xFFFF9DDC  |  4294942172 |
|     260 | 0xFFF55614  |  4294268436 |
|     261 | 0xFFFE10AB  |  4294840491 |
|     262 | 0x0024      |          36 |
|     263 | 0xFFF55B07  |  4294269703 |
|     264 | 0xFFFDDDAB  |  4294827435 |
|     265 | 0x005D      |          93 |
|     266 | 0xFFF9497D  |  4294527357 |
|     267 | 0x0190      |         400 |
|     268 | 0xFFFFFC00  |  4294966272 |
|     269 | 0xFFF95B6A  |  4294531946 |
|     270 | 0xFFF5519B  |  4294267291 |
|     271 | 0xFFFE8DCA  |  4294872522 |
|     272 | 0xFFFF9DDB  |  4294942171 |
|     273 | 0x03DA      |         986 |
|     274 | 0xFFFE89E2  |  4294871522 |
|     275 | 0xFFF547ED  |  4294264813 |
|     276 | 0xFFFB05FE  |  4294641150 |
|     277 | 0x0AE3      |        2787 |
|     278 | 0xFFF54A5F  |  4294265439 |
|     279 | 0xFFFDAA0F  |  4294814223 |
|     280 | 0x0C5A      |        3162 |
|     281 | 0xFFFDC17F  |  4294820223 |
|     282 | 0xFFF53482  |  4294259842 |
|     283 | 0xFFFDE8EB  |  4294830315 |
|     284 | 0xFFF53D49  |  4294262089 |
|     285 | 0xFFFDEB2D  |  4294830893 |
|     286 | 0x016A      |         362 |
|     287 | 0xFFF556C1  |  4294268609 |
|     288 | 0xFFFB34BF  |  4294653119 |
|     289 | 0x047E      |        1150 |
|     290 | 0xFFF555D5  |  4294268373 |
|     291 | 0xFFFB09C5  |  4294642117 |
|     292 | 0x1C3C      |        7228 |
|     293 | 0x1C3E      |        7230 |
|     294 | 0x1C3F      |        7231 |
|     295 | 0x1C40      |        7232 |
|     296 | 0x1C41      |        7233 |
|     297 | 0x1C42      |        7234 |
|     298 | 0x1C43      |        7235 |
|     299 | 0x1C44      |        7236 |
|     300 | 0x1C45      |        7237 |
|     301 | 0x1C46      |        7238 |
|     302 | 0x1C47      |        7239 |
|     303 | 0x1C48      |        7240 |
|     304 | 0x1C49      |        7241 |
|     305 | 0x1C4A      |        7242 |
|     306 | 0x1C4B      |        7243 |
|     307 | 0x1C4C      |        7244 |
|     308 | 0x1C4D      |        7245 |
|     309 | 0x1C4E      |        7246 |
|     310 | 0x1C4F      |        7247 |
|     311 | 0x1C50      |        7248 |
|     312 | 0x1C51      |        7249 |
|     313 | 0x1C53      |        7251 |
|     314 | 0x1C52      |        7250 |
|     315 | 0x1C54      |        7252 |
|     316 | 0x1C86      |        7302 |
|     317 | 0x1C87      |        7303 |
|     318 | 0x063F      |        1599 |
|     319 | 0x1C55      |        7253 |
|     320 | 0x40000000  |  1073741824 |
|     321 | 0x1C3D      |        7229 |
|     322 | 0x1C58      |        7256 |
|     323 | 0x1C3B      |        7227 |
|     324 | 0x00BE      |         190 |
|     325 | 0x03E8      |        1000 |
|     326 | 0x07D0      |        2000 |
|     327 | 0x0BB8      |        3000 |
|     328 | 0x0FA0      |        4000 |
|     329 | 0x1C79      |        7289 |
|     330 | 0x1C83      |        7299 |
|     331 | 0xFFF550B1  |  4294267057 |
|     332 | 0xFFFB5335  |  4294660917 |
|     333 | 0x0C24      |        3108 |
|     334 | 0x1C8D      |        7309 |
|     335 | 0xFFF551B0  |  4294267312 |
|     336 | 0xFFFD4045  |  4294787141 |
|     337 | 0x0404      |        1028 |
|     338 | 0xFFF55279  |  4294267513 |
|     339 | 0xFFFD2C16  |  4294781974 |
|     340 | 0xFFFFB981  |  4294949249 |
|     341 | 0xFFF5521A  |  4294267418 |
|     342 | 0xFFFD18E5  |  4294777061 |
|     343 | 0xFFF55161  |  4294267233 |
|     344 | 0xFFFAEF81  |  4294635393 |
|     345 | 0x002D      |          45 |
|     346 | 0x00D7      |         215 |
|     347 | 0xFFF552BA  |  4294267578 |
|     348 | 0xFFF961E3  |  4294533603 |
|     349 | 0xFFF5C447  |  4294296647 |
|     350 | 0xFFF98D87  |  4294544775 |
|     351 | 0xFFF548D5  |  4294265045 |
|     352 | 0xFFFAD9C4  |  4294629828 |
|     353 | 0x008D      |         141 |
|     354 | 0x0097      |         151 |
|     355 | 0x00A1      |         161 |
|     356 | 0x00AB      |         171 |
|     357 | 0x00B5      |         181 |
|     358 | 0x00BF      |         191 |
|     359 | 0xFFF636C6  |  4294325958 |
|     360 | 0xFFF98CD3  |  4294544595 |

## String References

- **7227**: Leave the Walk of Echoes? [Yes./Not yet.]
- **7228**: This veridical conflux appears to be a portal to a battlefield.
- **7229**: You feel the faintest promise of a reaction, but nothing happens...
- **7230**: The faint scraping of claws echoes from beyond...
- **7231**: The faint trickling of a viscous fluid echoes from beyond...
- **7232**: The frenzied scurrying of insects echoes faintly from beyond...
- **7233**: The beating of fiendish wings echoes faintly from beyond...
- **7234**: The writhing of great reptiles echoes faintly from beyond...
- **7235**: The thunderous steps of massive reptiles echo faintly from beyond...
- **7236**: The howling of savage beasts echoes faintly from beyond...
- **7237**: The sinister heartbeat of a dragon echoes faintly from beyond...
- **7238**: The spine-chilling screech of a monstrous bird echoes faintly from beyond...
- **7239**: The curious popping of countless buds echoes faintly from beyond...
- **7240**: The ominous sound of bone scraping against metal echoes faintly from beyond...
- **7241**: The chilling sound of metal grinding against metal echoes faintly from beyond...
- **7242**: The baleful sound of a thousand dark wings beating in shadow echoes faintly from beyond...
- **7243**: The spine-chilling crack of beastly claws ripping through rock echoes faintly from beyond...
- **7244**: This conflux emits no sound, and yet you sense an unquenchable thirst for carnage and blood...
- **7245**: What will you do? [Nothing for now./Assess the situation./Enter the battlefield!]
- **7246**: [There are presently no enemies on the battlefield/Enemies have emerged on the battlefield/The enemy is being engaged on the battlefield/The battle has ended, and enemies no longer prowl the battlefield].
- **7247**: You cannot enter the battlefield at this time.
- **7248**: Enemies will appear in [under /]$0 [minute/minutes] (Earth time).
- **7249**: You have $0 [minute/minutes] (Earth time) to complete your objectives.
- **7250**: You have [under /]$0 [minute/minutes] (Earth time) left to complete your objectives.
- **7251**: There [is/are] currently $0 [participant/participants]. Up to $1 people may participate.
- **7252**: The current battle progress is $0%.
- **7253**: Unable to enter the battlefield. You do not possess $3.
- **7256**: Leave the battlefield? [Run away./Stay.]
- **7289**: Rank Set(Debug : [OFF/ON]) [Cancel/0\`$1/$1$133639\`$3/$3\`$4/$4\`$5/$5\`/[Debug ON/Debug OFF]]
- **7299**: Do what? ([pre-pop/popped/combat/post-combat] [$25$25/$26$25/$25$26/$26$26]). [Nothing./Restart normal battle./Restart surgebattle./Set endowed rate./Set surge rate.]
- **7302**: Items not yet obtain from the treasure coffer will be destroyed upon entry.
- **7303**: Proceed anyway? [Yes./No.]
- **7308**: Enter the battlefield? [Enter./Decline.]
- **7309**: Leave the battlefield? [Run away./Stay.]
- **7311**: You cannot enter the battlefield at present. Please wait a little longer.
- **7319**: You are cleared to enter the battlefield, but you cannot while party members are engaged in combat.
- **7320**: You are cleared to enter the battlefield, but you cannot while party members are engaged in combat.
- **7321**: You are cleared to enter the battlefield, but you cannot while party members are engaged in combat.
- **7322**: You are cleared to enter the battlefield, but you cannot while party members are engaged in combat.
- **7358**: You do not meet the requirements to enter the battlefield. Access is denied.
- **7647**: Skip the event? [Yes./No.]
- **7648**: Battlefield clear time: $3 second[/s]!
- **7649**: Battlefield clear time: $3 minute[/s], $2 second[/s]!
- **7667**: Only $3 [member/members] have clearance to enter the battlefield. This room has reached its maximum capacity.
- **7673**: Select difficulty. [Very difficult. (Level: ???)/Difficult. (Level: ???)/Normal. (Level: $18)/Easy. (Level: $17)/Very Easy. (Level: $16)/Leave.]
- **7681**: You have broken the clear time record for "[When Wills Collide/Maiden of the Dusk/Champion of the Dawn/A Forbidden Reunion/]"!
- **7685**: You have broken the clear time record for "[When Wills Collide/Maiden of the Dusk/The Dawn Also Rises/A Forbidden Reunion/]"!
- **7689**: Which battlefield will you enter? [None./When Wills Collide./Maiden of the Dusk./[Champion of the Dawn/The Dawn Also Rises]./A Forbidden Reunion./@/@/@/@/@/@/@/@/@/@/@/@/@/@/@/@/@/@/ / /@/@/@/@/@/@/@]

## Events

### Event 65535

#### Metadata

| Field        | Value   |
|--------------|---------|
| Entrypoint   | 0x0000  |
| Data Size    | 1 bytes |
| Instructions | 1       |

```
      00 01 02 03 04 05 06 07  08 09 0A 0B 0C 0D 0E 0F
      -- -- -- -- -- -- -- --  -- -- -- -- -- -- -- --
0000: 00                                                .               
```

#### Opcodes

```
  0: 0x0000 [0x00] END_REQSTACK()
```

### Event 65534

#### Metadata

| Field        | Value   |
|--------------|---------|
| Entrypoint   | 0x0001  |
| Data Size    | 1 bytes |
| Instructions | 1       |

```
      00 01 02 03 04 05 06 07  08 09 0A 0B 0C 0D 0E 0F
      -- -- -- -- -- -- -- --  -- -- -- -- -- -- -- --
0000:    00                                              .              
```

#### Opcodes

```
  0: 0x0001 [0x00] END_REQSTACK()
```

### Event 50

#### Metadata

| Field        | Value     |
|--------------|-----------|
| Entrypoint   | 0x0002    |
| Data Size    | 176 bytes |
| Instructions | 26        |

```
      00 01 02 03 04 05 06 07  08 09 0A 0B 0C 0D 0E 0F
      -- -- -- -- -- -- -- --  -- -- -- -- -- -- -- --
0000:       20 01 42 43 00 43  01 45 00 80 F0 FF FF 7F     .BC.C.E......
0010: F0 FF FF 7F 66 64 6F 31  01 80 1C 02 80 2D F0 FF  ....fdo1.....-..
0020: FF 7F F0 FF FF 7F 6B 69  6C 31 1C 03 80 2D F0 FF  ......kil1...-..
0030: FF 7F F0 FF FF 7F 6B 69  6C 32 1C 03 80 2D F0 FF  ......kil2...-..
0040: FF 7F F0 FF FF 7F 6B 69  6C 33 1C 03 80 2D F0 FF  ......kil3...-..
0050: FF 7F F0 FF FF 7F 6B 69  6C 34 1C 03 80 2D F0 FF  ......kil4...-..
0060: FF 7F F0 FF FF 7F 73 74  61 31 1C 04 80 2D F0 FF  ......sta1...-..
0070: FF 7F F0 FF FF 7F 73 74  61 32 1C 04 80 2D F0 FF  ......sta2...-..
0080: FF 7F F0 FF FF 7F 73 74  61 33 1C 04 80 2D F0 FF  ......sta3...-..
0090: FF 7F F0 FF FF 7F 73 74  61 34 1C 04 80 45 00 80  ......sta4...E..
00A0: F0 FF FF 7F F0 FF FF 7F  66 64 69 31 01 80 20 00  ........fdi1.. .
00B0: 21 00                                             !.              
```

#### Opcodes

```
  0: 0x0002 [0x20] SET_CLI_EVENT_UC_FLAG: Lock player control
  1: 0x0004 [0x42] SET_CLI_EVENT_CANCEL_DATA()
  2: 0x0005 [0x43] SEND_EVENT_UPDATE: Send pending tag to server (packet 0x005B)
  3: 0x0007 [0x43] SEND_EVENT_UPDATE: Check pending flag (skip if not pending)
  4: 0x0009 [0x45] LOAD_SCHEDULED_TASK: Load scheduler "fdo1" with entities [LocalPlayer, LocalPlayer], work=[200*, 0*]
  5: 0x001A [0x1C] WAIT(60* ticks)
  6: 0x001D [0x2D] CREATE_ZONE_SCHEDULER_TASK: Create scheduler "kil1" with entities [LocalPlayer, LocalPlayer]
  7: 0x002A [0x1C] WAIT(30* ticks)
  8: 0x002D [0x2D] CREATE_ZONE_SCHEDULER_TASK: Create scheduler "kil2" with entities [LocalPlayer, LocalPlayer]
  9: 0x003A [0x1C] WAIT(30* ticks)
 10: 0x003D [0x2D] CREATE_ZONE_SCHEDULER_TASK: Create scheduler "kil3" with entities [LocalPlayer, LocalPlayer]
 11: 0x004A [0x1C] WAIT(30* ticks)
 12: 0x004D [0x2D] CREATE_ZONE_SCHEDULER_TASK: Create scheduler "kil4" with entities [LocalPlayer, LocalPlayer]
 13: 0x005A [0x1C] WAIT(30* ticks)
 14: 0x005D [0x2D] CREATE_ZONE_SCHEDULER_TASK: Create scheduler "sta1" with entities [LocalPlayer, LocalPlayer]
 15: 0x006A [0x1C] WAIT(90* ticks)
 16: 0x006D [0x2D] CREATE_ZONE_SCHEDULER_TASK: Create scheduler "sta2" with entities [LocalPlayer, LocalPlayer]
 17: 0x007A [0x1C] WAIT(90* ticks)
 18: 0x007D [0x2D] CREATE_ZONE_SCHEDULER_TASK: Create scheduler "sta3" with entities [LocalPlayer, LocalPlayer]
 19: 0x008A [0x1C] WAIT(90* ticks)
 20: 0x008D [0x2D] CREATE_ZONE_SCHEDULER_TASK: Create scheduler "sta4" with entities [LocalPlayer, LocalPlayer]
 21: 0x009A [0x1C] WAIT(90* ticks)
 22: 0x009D [0x45] LOAD_SCHEDULED_TASK: Load scheduler "fdi1" with entities [LocalPlayer, LocalPlayer], work=[200*, 0*]
 23: 0x00AE [0x20] SET_CLI_EVENT_UC_FLAG: Unlock player control
 24: 0x00B0 [0x21] END_EVENT
 25: 0x00B1 [0x00] END_REQSTACK()
```

### Event 51

#### Metadata

| Field        | Value    |
|--------------|----------|
| Entrypoint   | 0x00B2   |
| Data Size    | 65 bytes |
| Instructions | 9        |

```
      00 01 02 03 04 05 06 07  08 09 0A 0B 0C 0D 0E 0F
      -- -- -- -- -- -- -- --  -- -- -- -- -- -- -- --
00B0:       2D F0 FF FF 7F F0  FF FF 7F 73 74 61 31 1C    -........sta1.
00C0: 03 80 2D F0 FF FF 7F F0  FF FF 7F 73 74 61 32 1C  ..-........sta2.
00D0: 03 80 2D F0 FF FF 7F F0  FF FF 7F 73 74 61 33 1C  ..-........sta3.
00E0: 03 80 2D F0 FF FF 7F F0  FF FF 7F 73 74 61 34 1C  ..-........sta4.
00F0: 03 80 00                                          ...             
```

#### Opcodes

```
  0: 0x00B2 [0x2D] CREATE_ZONE_SCHEDULER_TASK: Create scheduler "sta1" with entities [LocalPlayer, LocalPlayer]
  1: 0x00BF [0x1C] WAIT(30* ticks)
  2: 0x00C2 [0x2D] CREATE_ZONE_SCHEDULER_TASK: Create scheduler "sta2" with entities [LocalPlayer, LocalPlayer]
  3: 0x00CF [0x1C] WAIT(30* ticks)
  4: 0x00D2 [0x2D] CREATE_ZONE_SCHEDULER_TASK: Create scheduler "sta3" with entities [LocalPlayer, LocalPlayer]
  5: 0x00DF [0x1C] WAIT(30* ticks)
  6: 0x00E2 [0x2D] CREATE_ZONE_SCHEDULER_TASK: Create scheduler "sta4" with entities [LocalPlayer, LocalPlayer]
  7: 0x00EF [0x1C] WAIT(30* ticks)
  8: 0x00F2 [0x00] END_REQSTACK()
```

### Event 52

#### Metadata

| Field        | Value    |
|--------------|----------|
| Entrypoint   | 0x00F3   |
| Data Size    | 65 bytes |
| Instructions | 9        |

```
      00 01 02 03 04 05 06 07  08 09 0A 0B 0C 0D 0E 0F
      -- -- -- -- -- -- -- --  -- -- -- -- -- -- -- --
00F0:          2D F0 FF FF 7F  F0 FF FF 7F 6B 69 6C 31     -........kil1
0100: 1C 03 80 2D F0 FF FF 7F  F0 FF FF 7F 6B 69 6C 32  ...-........kil2
0110: 1C 03 80 2D F0 FF FF 7F  F0 FF FF 7F 6B 69 6C 33  ...-........kil3
0120: 1C 03 80 2D F0 FF FF 7F  F0 FF FF 7F 6B 69 6C 34  ...-........kil4
0130: 1C 03 80 00                                       ....            
```

#### Opcodes

```
  0: 0x00F3 [0x2D] CREATE_ZONE_SCHEDULER_TASK: Create scheduler "kil1" with entities [LocalPlayer, LocalPlayer]
  1: 0x0100 [0x1C] WAIT(30* ticks)
  2: 0x0103 [0x2D] CREATE_ZONE_SCHEDULER_TASK: Create scheduler "kil2" with entities [LocalPlayer, LocalPlayer]
  3: 0x0110 [0x1C] WAIT(30* ticks)
  4: 0x0113 [0x2D] CREATE_ZONE_SCHEDULER_TASK: Create scheduler "kil3" with entities [LocalPlayer, LocalPlayer]
  5: 0x0120 [0x1C] WAIT(30* ticks)
  6: 0x0123 [0x2D] CREATE_ZONE_SCHEDULER_TASK: Create scheduler "kil4" with entities [LocalPlayer, LocalPlayer]
  7: 0x0130 [0x1C] WAIT(30* ticks)
  8: 0x0133 [0x00] END_REQSTACK()
```

### Event 65535.1

#### Metadata

| Field        | Value   |
|--------------|---------|
| Entrypoint   | 0x0134  |
| Data Size    | 6 bytes |
| Instructions | 2       |

```
      00 01 02 03 04 05 06 07  08 09 0A 0B 0C 0D 0E 0F
      -- -- -- -- -- -- -- --  -- -- -- -- -- -- -- --
0130:             03 02 10 07  7F 00                        ......      
```

#### Opcodes

```
  0: 0x0134 [0x03] Work_Zone[2] = Entity->Race
  1: 0x0139 [0x00] END_REQSTACK()
```

### Event 65535.2

#### Metadata

| Field        | Value   |
|--------------|---------|
| Entrypoint   | 0x013A  |
| Data Size    | 6 bytes |
| Instructions | 2       |

```
      00 01 02 03 04 05 06 07  08 09 0A 0B 0C 0D 0E 0F
      -- -- -- -- -- -- -- --  -- -- -- -- -- -- -- --
0130:                                03 02 10 0B 7F 00            ......
```

#### Opcodes

```
  0: 0x013A [0x03] Work_Zone[2] = (Entity->Render.Flags01 >> 25) & 1
  1: 0x013F [0x00] END_REQSTACK()
```

### Event 65535.3

#### Metadata

| Field        | Value    |
|--------------|----------|
| Entrypoint   | 0x0140   |
| Data Size    | 37 bytes |
| Instructions | 5        |

```
      00 01 02 03 04 05 06 07  08 09 0A 0B 0C 0D 0E 0F
      -- -- -- -- -- -- -- --  -- -- -- -- -- -- -- --
0140: 03 27 00 07 7F 1A 9A 1E  66 28 00 F8 FF FF 7F F8  .'......f(......
0150: FF FF 7F 73 68 61 30 53  F8 FF FF 7F F8 FF FF 7F  ...sha0S........
0160: 73 68 61 30 00                                    sha0.           
```

#### Opcodes

```
  0: 0x0140 [0x03] ExtData[1]->WorkLocal[39] = Entity->Race
  1: 0x0145 [0x1A] CALL_SUBROUTINE(address=0x1E9A)
  2: 0x0148 [0x66] LOAD_EXT_SCHEDULER_MAIN: Load scheduler "sha0" with entities [EventEntity, EventEntity], work=ExtData[1]->WorkLocal[40]
  3: 0x0157 [0x53] WAIT_SCHEDULER_TASK: Wait for scheduler "sha0" with entities [EventEntity, EventEntity]
  4: 0x0164 [0x00] END_REQSTACK()
```

### Event 65535.4

#### Metadata

| Field        | Value    |
|--------------|----------|
| Entrypoint   | 0x0165   |
| Data Size    | 37 bytes |
| Instructions | 5        |

```
      00 01 02 03 04 05 06 07  08 09 0A 0B 0C 0D 0E 0F
      -- -- -- -- -- -- -- --  -- -- -- -- -- -- -- --
0160:                03 27 00  07 7F 1A 9A 1E 66 28 00       .'......f(.
0170: F8 FF FF 7F F8 FF FF 7F  73 68 61 31 53 F8 FF FF  ........sha1S...
0180: 7F F8 FF FF 7F 73 68 61  31 00                    .....sha1.      
```

#### Opcodes

```
  0: 0x0165 [0x03] ExtData[1]->WorkLocal[39] = Entity->Race
  1: 0x016A [0x1A] CALL_SUBROUTINE(address=0x1E9A)
  2: 0x016D [0x66] LOAD_EXT_SCHEDULER_MAIN: Load scheduler "sha1" with entities [EventEntity, EventEntity], work=ExtData[1]->WorkLocal[40]
  3: 0x017C [0x53] WAIT_SCHEDULER_TASK: Wait for scheduler "sha1" with entities [EventEntity, EventEntity]
  4: 0x0189 [0x00] END_REQSTACK()
```

### Event 65535.5

#### Metadata

| Field        | Value   |
|--------------|---------|
| Entrypoint   | 0x018A  |
| Data Size    | 7 bytes |
| Instructions | 3       |

```
      00 01 02 03 04 05 06 07  08 09 0A 0B 0C 0D 0E 0F
      -- -- -- -- -- -- -- --  -- -- -- -- -- -- -- --
0180:                                AB 03 AC 01 05 80            ......
0190: 00                                                .               
```

#### Opcodes

```
  0: 0x018A [0xAB] EventEntity->Render.Flags0 ^= 0x20000 // Toggle bit 17
  1: 0x018C [0xAC] EventEntity->StatusEvent = 1*
  2: 0x0190 [0x00] END_REQSTACK()
```

### Event 65535.6

#### Metadata

| Field        | Value   |
|--------------|---------|
| Entrypoint   | 0x0191  |
| Data Size    | 7 bytes |
| Instructions | 3       |

```
      00 01 02 03 04 05 06 07  08 09 0A 0B 0C 0D 0E 0F
      -- -- -- -- -- -- -- --  -- -- -- -- -- -- -- --
0190:    AC 01 01 80 AB 04 00                            .......        
```

#### Opcodes

```
  0: 0x0191 [0xAC] EventEntity->StatusEvent = 0*
  1: 0x0195 [0xAB] EventEntity->Render.Flags0 |= 0x40000 // Set bit 18
  2: 0x0197 [0x00] END_REQSTACK()
```

### Event 32000

#### Metadata

| Field        | Value      |
|--------------|------------|
| Entrypoint   | 0x0198     |
| Data Size    | 2189 bytes |
| Instructions | 293        |

```
      00 01 02 03 04 05 06 07  08 09 0A 0B 0C 0D 0E 0F
      -- -- -- -- -- -- -- --  -- -- -- -- -- -- -- --
0190:                          20 01 79 00 F0 FF FF 7F           .y.....
01A0: F0 FF FF 7F 03 02 00 02  10 03 03 00 03 10 03 05  ................
01B0: 00 04 10 03 06 00 05 10  03 0F 00 06 10 03 10 00  ................
01C0: 07 10 03 11 00 08 10 41  01 80 06 80 09 10 07 00  .......A........
01D0: 41 07 80 08 80 09 10 06  10 06 01 00 02 07 00 01  A...............
01E0: 80 00 D8 02 03 08 00 09  80 0F 08 00 06 00 10 08  ................
01F0: 00 05 80 24 0A 80 01 80  08 00 25 02 00 10 01 80  ...$......%.....
0200: 00 09 02 01 0A 0A 01 D8  02 03 03 00 00 10 0C 03  ................
0210: 00 06 15 00 3E 0F 00 03  00 B4 02 06 0F 00 06 08  ....>...........
0220: 00 3E 11 00 03 00 2B 02  01 32 02 3C 08 00 01 80  .>....+..2.<....
0230: 05 80 3E 10 00 03 00 3C  02 01 43 02 3C 08 00 05  ..>....<..C.<...
0240: 80 05 80 1A F2 2E 24 0B  80 0C 80 08 00 25 02 00  ......$......%..
0250: 10 01 80 00 5E 02 03 0F  00 05 80 01 B1 02 02 00  ....^...........
0260: 10 05 80 00 6E 02 03 0F  00 0D 80 01 B1 02 02 00  ....n...........
0270: 10 0D 80 00 7E 02 03 0F  00 0E 80 01 B1 02 02 00  ....~...........
0280: 10 0E 80 00 8E 02 03 0F  00 0F 80 01 B1 02 02 00  ................
0290: 10 0F 80 00 9E 02 03 0F  00 0C 80 01 B1 02 02 00  ................
02A0: 10 0C 80 00 AC 02 01 0A  0A 01 B1 02 03 0F 00 0E  ................
02B0: 80 01 D8 02 06 0F 00 1A  24 0A 02 15 00 05 80 00  ........$.......
02C0: D8 02 24 10 80 05 80 01  80 25 02 00 10 05 80 00  ..$......%......
02D0: D8 02 01 0A 0A 01 D8 02  42 03 01 10 11 80 43 00  ........B.....C.
02E0: 43 01 06 01 10 45 00 80  F0 FF FF 7F F0 FF FF 7F  C....E..........
02F0: 66 64 6F 31 01 80 55 00  80 F0 FF FF 7F F0 FF FF  fdo1..U.........
0300: 7F 66 64 6F 31 3B F0 FF  FF 7F 20 10 21 10 22 10  .fdo1;.... .!.".
0310: 38 12 80 02 07 00 05 80  00 32 03 03 00 00 05 80  8........2......
0320: 03 04 00 03 00 03 02 00  01 80 03 1B 00 01 80 01  ................
0330: 23 07 03 00 00 05 80 02  00 00 05 80 05 D3 09 02  #...............
0340: 01 80 05 80 00 4C 03 03  00 00 05 00 40 01 80 0E  .....L......@...
0350: 80 01 10 00 00 40 0F 80  13 80 01 10 03 00 40 14  .....@........@.
0360: 80 15 80 01 10 0F 00 06  02 10 06 03 10 06 04 10  ................
0370: 02 00 00 05 80 80 8F 03  03 09 00 16 80 03 0A 00  ................
0380: 17 80 03 0B 00 18 80 03  0C 00 19 80 01 EC 03 02  ................
0390: 00 00 0D 80 80 AE 03 03  09 00 01 80 03 0A 00 01  ................
03A0: 80 03 0B 00 01 80 03 0C  00 01 80 01 EC 03 02 00  ................
03B0: 00 0E 80 80 CD 03 03 09  00 01 80 03 0A 00 01 80  ................
03C0: 03 0B 00 01 80 03 0C 00  01 80 01 EC 03 02 00 00  ................
03D0: 0F 80 80 EC 03 03 09 00  01 80 03 0A 00 01 80 03  ................
03E0: 0B 00 01 80 03 0C 00 01  80 01 EC 03 47 00 09 00  ............G...
03F0: 0A 00 0B 00 0C 00 47 01  03 04 00 03 10 03 02 00  ......G.........
0400: 04 10 03 19 00 05 10 03  0D 00 06 10 03 0E 00 07  ................
0410: 10 03 1B 00 09 10 02 02  10 05 80 80 21 04 01 C0  ............!...
0420: 09 02 02 10 0F 80 80 6B  04 02 00 00 05 80 80 38  .......k.......8
0430: 04 48 1A 80 23 01 65 04  02 00 00 0D 80 80 47 04  .H..#.e.......G.
0440: 48 1B 80 23 01 65 04 02  00 00 0E 80 80 56 04 48  H..#.e.......V.H
0450: 1C 80 23 01 65 04 02 00  00 0F 80 80 65 04 48 1D  ..#.e.......e.H.
0460: 80 23 01 65 04 01 D7 09  01 C0 09 02 02 10 0C 80  .#.e............
0470: 80 7D 04 48 1E 80 23 01  D7 09 01 C0 09 02 02 10  .}.H..#.........
0480: 1F 80 80 7F 06 02 04 00  01 80 80 95 04 03 05 10  ................
0490: 1F 80 01 75 06 02 04 00  05 80 80 A5 04 03 05 10  ...u............
04A0: 1F 80 01 75 06 02 04 00  0D 80 80 B5 04 03 05 10  ...u............
04B0: 1F 80 01 75 06 02 04 00  0E 80 80 C5 04 03 05 10  ...u............
04C0: 1F 80 01 75 06 02 04 00  0F 80 80 D5 04 03 05 10  ...u............
04D0: 01 80 01 75 06 02 04 00  0C 80 80 E5 04 03 05 10  ...u............
04E0: 01 80 01 75 06 02 04 00  1F 80 80 F5 04 03 05 10  ...u............
04F0: 01 80 01 75 06 02 04 00  20 80 80 05 05 03 05 10  ...u.... .......
0500: 01 80 01 75 06 02 04 00  13 80 80 15 05 03 05 10  ...u............
0510: 01 80 01 75 06 02 04 00  14 80 80 25 05 03 05 10  ...u.......%....
0520: 01 80 01 75 06 02 04 00  21 80 80 35 05 03 05 10  ...u....!..5....
0530: 01 80 01 75 06 02 04 00  15 80 80 45 05 03 05 10  ...u.......E....
0540: 01 80 01 75 06 02 04 00  22 80 80 55 05 03 05 10  ...u...."..U....
0550: 01 80 01 75 06 02 04 00  23 80 80 65 05 03 05 10  ...u....#..e....
0560: 01 80 01 75 06 02 04 00  24 80 80 75 05 03 05 10  ...u....$..u....
0570: 01 80 01 75 06 02 04 00  06 80 80 85 05 03 05 10  ...u............
0580: 01 80 01 75 06 02 04 00  07 80 80 95 05 03 05 10  ...u............
0590: 01 80 01 75 06 02 04 00  25 80 80 A5 05 03 05 10  ...u....%.......
05A0: 01 80 01 75 06 02 04 00  26 80 80 B5 05 03 05 10  ...u....&.......
05B0: 01 80 01 75 06 02 04 00  12 80 80 C5 05 03 05 10  ...u............
05C0: 01 80 01 75 06 02 04 00  27 80 80 D5 05 03 05 10  ...u....'.......
05D0: 01 80 01 75 06 02 04 00  28 80 80 E5 05 03 05 10  ...u....(.......
05E0: 01 80 01 75 06 02 04 00  29 80 80 F5 05 03 05 10  ...u....).......
05F0: 01 80 01 75 06 02 04 00  2A 80 80 05 06 03 05 10  ...u....*.......
0600: 01 80 01 75 06 02 04 00  2B 80 80 15 06 03 05 10  ...u....+.......
0610: 01 80 01 75 06 02 04 00  2C 80 80 25 06 03 05 10  ...u....,..%....
0620: 01 80 01 75 06 02 04 00  2D 80 80 35 06 03 05 10  ...u....-..5....
0630: 01 80 01 75 06 02 04 00  2E 80 80 45 06 03 05 10  ...u.......E....
0640: 01 80 01 75 06 02 04 00  2F 80 80 55 06 03 05 10  ...u..../..U....
0650: 01 80 01 75 06 02 04 00  30 80 80 65 06 03 05 10  ...u....0..e....
0660: 01 80 01 75 06 02 04 00  03 80 80 75 06 03 05 10  ...u.......u....
0670: 01 80 01 75 06 48 31 80  23 01 D7 09 01 C0 09 02  ...u.H1.#.......
0680: 02 10 0E 80 80 8D 06 01  32 03 01 C0 09 02 02 10  ........2.......
0690: 0D 80 80 C0 09 02 0D 00  01 80 01 D9 06 03 05 10  ................
06A0: 19 00 02 19 00 01 80 02  C1 06 02 19 00 02 80 04  ................
06B0: C1 06 3F 04 10 05 10 02  80 15 05 10 02 80 01 C1  ..?.............
06C0: 06 02 0D 00 05 80 05 CC  06 01 D9 06 03 06 10 0D  ................
06D0: 00 0C 06 10 03 07 10 0D  00 03 03 00 04 00 03 13  ................
06E0: 00 32 80 07 13 00 03 00  02 02 00 13 00 00 F8 06  .2..............
06F0: 03 02 00 05 80 01 FD 06  03 02 00 01 80 02 02 00  ................
0700: 01 80 00 23 07 02 0E 00  05 80 00 23 07 24 33 80  ...#.......#.$3.
0710: 05 80 01 80 25 02 00 10  01 80 00 23 07 05 02 00  ....%......#....
0720: 01 23 07 06 14 00 02 04  00 01 80 80 36 07 03 14  .#..........6...
0730: 00 01 80 01 1B 09 02 04  00 05 80 80 46 07 03 14  ............F...
0740: 00 01 80 01 1B 09 02 04  00 0D 80 80 56 07 03 14  ............V...
0750: 00 01 80 01 1B 09 02 04  00 0E 80 80 66 07 03 14  ............f...
0760: 00 05 80 01 1B 09 02 04  00 0F 80 80 76 07 03 14  ............v...
0770: 00 01 80 01 1B 09 02 04  00 0C 80 80 86 07 03 14  ................
0780: 00 01 80 01 1B 09 02 04  00 1F 80 80 96 07 03 14  ................
0790: 00 01 80 01 1B 09 02 04  00 20 80 80 A6 07 03 14  ......... ......
07A0: 00 01 80 01 1B 09 02 04  00 13 80 80 B6 07 03 14  ................
07B0: 00 01 80 01 1B 09 02 04  00 14 80 80 C6 07 03 14  ................
07C0: 00 01 80 01 1B 09 02 04  00 21 80 80 D6 07 03 14  .........!......
07D0: 00 01 80 01 1B 09 02 04  00 15 80 80 E6 07 03 14  ................
07E0: 00 01 80 01 1B 09 02 04  00 22 80 80 F6 07 03 14  ........."......
07F0: 00 01 80 01 1B 09 02 04  00 23 80 80 06 08 03 14  .........#......
0800: 00 01 80 01 1B 09 02 04  00 24 80 80 16 08 03 14  .........$......
0810: 00 01 80 01 1B 09 02 04  00 06 80 80 26 08 03 14  ............&...
0820: 00 01 80 01 1B 09 02 04  00 07 80 80 36 08 03 14  ............6...
0830: 00 01 80 01 1B 09 02 04  00 25 80 80 46 08 03 14  .........%..F...
0840: 00 01 80 01 1B 09 02 04  00 26 80 80 56 08 03 14  .........&..V...
0850: 00 01 80 01 1B 09 02 04  00 12 80 80 66 08 03 14  ............f...
0860: 00 01 80 01 1B 09 02 04  00 27 80 80 76 08 03 14  .........'..v...
0870: 00 01 80 01 1B 09 02 04  00 28 80 80 86 08 03 14  .........(......
0880: 00 01 80 01 1B 09 02 04  00 29 80 80 96 08 03 14  .........)......
0890: 00 01 80 01 1B 09 02 04  00 2A 80 80 A6 08 03 14  .........*......
08A0: 00 01 80 01 1B 09 02 04  00 2B 80 80 B6 08 03 14  .........+......
08B0: 00 01 80 01 1B 09 02 04  00 2C 80 80 C6 08 03 14  .........,......
08C0: 00 01 80 01 1B 09 02 04  00 2D 80 80 D6 08 03 14  .........-......
08D0: 00 01 80 01 1B 09 02 04  00 2E 80 80 E6 08 03 14  ................
08E0: 00 01 80 01 1B 09 02 04  00 2F 80 80 F6 08 03 14  ........./......
08F0: 00 01 80 01 1B 09 02 04  00 30 80 80 06 09 03 14  .........0......
0900: 00 01 80 01 1B 09 02 04  00 03 80 80 16 09 03 14  ................
0910: 00 01 80 01 1B 09 03 14  00 01 80 02 02 00 05 80  ................
0920: 00 51 09 5C 00 34 80 5C  01 34 80 5C 02 34 80 5C  .Q.\.4.\.4.\.4.\
0930: 03 34 80 02 04 00 0E 80  80 4E 09 5C 00 35 80 5C  .4.......N.\.5.\
0940: 01 35 80 5C 02 35 80 5C  03 35 80 01 4E 09 01 69  .5.\.5.\.5..N..i
0950: 09 02 14 00 01 80 00 69  09 5C 00 34 80 5C 01 34  .......i.\.4.\.4
0960: 80 5C 02 34 80 5C 03 34  80 02 02 00 01 80 00 77  .\.4.\.4.......w
0970: 09 1A 99 2C 01 B0 09 6C  F0 FF FF 7F 01 80 05 80  ...,...l........
0980: 62 0D 80 F0 FF FF 7F F0  FF FF 7F 6D 61 69 6E 01  b..........main.
0990: 80 45 00 80 F0 FF FF 7F  F0 FF FF 7F 6F 76 6C 31  .E..........ovl1
09A0: 01 80 46 02 12 00 02 12  00 01 80 00 B0 09 46 00  ..F...........F.
09B0: 03 01 10 32 80 07 01 10  03 00 01 D7 09 01 C0 09  ...2............
09C0: 0B 00 00 02 01 80 05 80  00 D0 09 03 00 00 0D 80  ................
09D0: 01 37 03 48 36 80 23 45  37 80 F0 FF FF 7F F0 FF  .7.H6.#E7.......
09E0: FF 7F 77 68 69 31 01 80  45 00 80 F0 FF FF 7F F0  ..whi1..E.......
09F0: FF FF 7F 62 6C 6F 66 01  80 45 00 80 F0 FF FF 7F  ...blof..E......
0A00: F0 FF FF 7F 66 64 69 30  01 80 02 07 00 05 80 00  ....fdi0........
0A10: 22 0A 5C 00 01 80 5C 01  01 80 5C 02 34 80 5C 03  ".\...\...\.4.\.
0A20: 34 80 21 00 1B                                    4.!..           
```

#### Opcodes

```
  0: 0x0198 [0x20] SET_CLI_EVENT_UC_FLAG: Lock player control
  1: 0x019A [0x79] LocalPlayer looks at LocalPlayer (Basic look)
  2: 0x01A4 [0x03] ExtData[1]->WorkLocal[2] = Work_Zone[2]
  3: 0x01A9 [0x03] ExtData[1]->WorkLocal[3] = Work_Zone[3]
  4: 0x01AE [0x03] ExtData[1]->WorkLocal[5] = Work_Zone[4]
  5: 0x01B3 [0x03] ExtData[1]->WorkLocal[6] = Work_Zone[5]
  6: 0x01B8 [0x03] ExtData[1]->WorkLocal[15] = Work_Zone[6]
  7: 0x01BD [0x03] ExtData[1]->WorkLocal[16] = Work_Zone[7]
  8: 0x01C2 [0x03] ExtData[1]->WorkLocal[17] = Work_Zone[8]
  9: 0x01C7 [0x41] ExtData[1]->WorkLocal[7] = Work_Zone[9] (bits 0*-15*)
 10: 0x01D0 [0x41] Work_Zone[6] = Work_Zone[9] (bits 16*-31*)
 11: 0x01D9 [0x06] ExtData[1]->WorkLocal[1] = 0
 12: 0x01DC [0x02] IF !(ExtData[1]->WorkLocal[7] == 0*) GOTO 0x02D8
 13: 0x01E4 [0x03] ExtData[1]->WorkLocal[8] = 4294967295*
 14: 0x01E9 [0x0F] ExtData[1]->WorkLocal[8] ^= ExtData[1]->WorkLocal[6]
 15: 0x01EE [0x10] ExtData[1]->WorkLocal[8] <<= 1*
 16: 0x01F3 [0x24] CREATE_DIALOG(message_id=7689*, default_option=0*, option_flags=ExtData[1]->WorkLocal[8])
    → "Which battlefield will you enter? [None./When Wills Collide./Maiden of the Dusk./[Champion of the Dawn/The Dawn Also Rises]./A Forbidden Reunion./@/@/@/@/@/@/@/@/@/@/@/@/@/@/@/@/@/@/ / /@/@/@/@/@/@/@]"
 17: 0x01FA [0x25] WAIT_DIALOG_SELECT()
 18: 0x01FB [0x02] IF !(Work_Zone[0] == 0*) GOTO 0x0209
 19: 0x0203 [0x01] GOTO 0x0A0A

SUBROUTINE_0232:
 20: 0x0232 [0x3E] IF !(ExtData[1]->WorkLocal[16] bit ExtData[1]->WorkLocal[3]) GOTO 0x023C
 21: 0x0239 [0x01] GOTO 0x0243
 22: 0x023C [0x3C] SET_BIT_FLAG_CONDITIONAL(target_work_offset=ExtData[1]->WorkLocal[8], bit_index_work_offset=1*, condition_work_offset=1*)

SUBROUTINE_0243:
 23: 0x0243 [0x1A] CALL_SUBROUTINE(address=0x2EF2)
 24: 0x0246 [0x24] CREATE_DIALOG(message_id=7673*, default_option=5*, option_flags=ExtData[1]->WorkLocal[8])
    → "Select difficulty. [Very difficult. (Level: ???)/Difficult. (Level: ???)/Normal. (Level: $18)/Easy. (Level: $17)/Very Easy. (Level: $16)/Leave.]"
 25: 0x024D [0x25] WAIT_DIALOG_SELECT()
 26: 0x024E [0x02] IF !(Work_Zone[0] == 0*) GOTO 0x025E
 27: 0x0256 [0x03] ExtData[1]->WorkLocal[15] = 1*
 28: 0x025B [0x01] GOTO 0x02B1
 29: 0x025E [0x02] IF !(Work_Zone[0] == 1*) GOTO 0x026E
 30: 0x0266 [0x03] ExtData[1]->WorkLocal[15] = 2*
 31: 0x026B [0x01] GOTO 0x02B1
 32: 0x026E [0x02] IF !(Work_Zone[0] == 2*) GOTO 0x027E
 33: 0x0276 [0x03] ExtData[1]->WorkLocal[15] = 3*
 34: 0x027B [0x01] GOTO 0x02B1
 35: 0x027E [0x02] IF !(Work_Zone[0] == 3*) GOTO 0x028E
 36: 0x0286 [0x03] ExtData[1]->WorkLocal[15] = 4*
 37: 0x028B [0x01] GOTO 0x02B1
 38: 0x028E [0x02] IF !(Work_Zone[0] == 4*) GOTO 0x029E
 39: 0x0296 [0x03] ExtData[1]->WorkLocal[15] = 5*
 40: 0x029B [0x01] GOTO 0x02B1
 41: 0x029E [0x02] IF !(Work_Zone[0] == 5*) GOTO 0x02AC
 42: 0x02A6 [0x01] GOTO 0x0A0A

SUBROUTINE_02B1:
 43: 0x02B1 [0x01] GOTO 0x02D8
 44: 0x02B4 [0x06] ExtData[1]->WorkLocal[15] = 0
 45: 0x02B7 [0x1A] CALL_SUBROUTINE(address=0x0A24)
 46: 0x02BA [0x02] IF !(ExtData[1]->WorkLocal[21] == 1*) GOTO 0x02D8
 47: 0x02C2 [0x24] CREATE_DIALOG(message_id=7308*, default_option=1*, option_flags=0*)
    → "Enter the battlefield? [Enter./Decline.]"
 48: 0x02C9 [0x25] WAIT_DIALOG_SELECT()
 49: 0x02CA [0x02] IF !(Work_Zone[0] == 1*) GOTO 0x02D8
 50: 0x02D2 [0x01] GOTO 0x0A0A

SUBROUTINE_02D8:
 51: 0x02D8 [0x42] SET_CLI_EVENT_CANCEL_DATA()
 52: 0x02D9 [0x03] Work_Zone[1] = 255*
 53: 0x02DE [0x43] SEND_EVENT_UPDATE: Send pending tag to server (packet 0x005B)
 54: 0x02E0 [0x43] SEND_EVENT_UPDATE: Check pending flag (skip if not pending)
 55: 0x02E2 [0x06] Work_Zone[1] = 0
 56: 0x02E5 [0x45] LOAD_SCHEDULED_TASK: Load scheduler "fdo1" with entities [LocalPlayer, LocalPlayer], work=[200*, 0*]
 57: 0x02F6 [0x55] WAIT_LOAD_SCHEDULER: Wait for scheduler "fdo1" with entities [LocalPlayer, LocalPlayer], work=200*
 58: 0x0305 [0x3B] GET_ENTITY_POSITION(entity=LocalPlayer, x_destination=Work_Zone[32], y_destination=Work_Zone[33], z_destination=Work_Zone[34])
 59: 0x0310 [0x38] SET_CLIENT_EVENT_MODE(mode=19*)
 60: 0x0313 [0x02] IF !(ExtData[1]->WorkLocal[7] == 1*) GOTO 0x0332
 61: 0x031B [0x03] ExtData[1]->WorkLocal[0] = 1*
 62: 0x0320 [0x03] ExtData[1]->WorkLocal[4] = ExtData[1]->WorkLocal[3]
 63: 0x0325 [0x03] ExtData[1]->WorkLocal[2] = 0*
 64: 0x032A [0x03] ExtData[1]->WorkLocal[27] = 0*
 65: 0x032F [0x01] GOTO 0x0723

SUBROUTINE_0332:
 66: 0x0332 [0x03] ExtData[1]->WorkLocal[0] = 1*

SUBROUTINE_0337:
 67: 0x0337 [0x02] IF !(ExtData[1]->WorkLocal[0] > 1*) GOTO 0x09D3
 68: 0x033F [0x02] IF !(0* == 1*) GOTO 0x034C
 69: 0x0347 [0x03] ExtData[1]->WorkLocal[0] = ExtData[1]->WorkLocal[5]
 70: 0x034C [0x40] SET_BIT_WORK_RANGE(start_bit=0*, end_bit=3*, target=Work_Zone[1], source=ExtData[1]->WorkLocal[0])
 71: 0x0355 [0x40] SET_BIT_WORK_RANGE(start_bit=4*, end_bit=8*, target=Work_Zone[1], source=ExtData[1]->WorkLocal[3])
 72: 0x035E [0x40] SET_BIT_WORK_RANGE(start_bit=9*, end_bit=11*, target=Work_Zone[1], source=ExtData[1]->WorkLocal[15])
 73: 0x0367 [0x06] Work_Zone[2] = 0
 74: 0x036A [0x06] Work_Zone[3] = 0
 75: 0x036D [0x06] Work_Zone[4] = 0
 76: 0x0370 [0x02] IF !(ExtData[1]->WorkLocal[0] == 1*) GOTO 0x038F
 77: 0x0378 [0x03] ExtData[1]->WorkLocal[9] = 4294267296*
 78: 0x037D [0x03] ExtData[1]->WorkLocal[10] = 4294787296*
 79: 0x0382 [0x03] ExtData[1]->WorkLocal[11] = 4294949296*
 80: 0x0387 [0x03] ExtData[1]->WorkLocal[12] = 3072*
 81: 0x038C [0x01] GOTO 0x03EC
 82: 0x038F [0x02] IF !(ExtData[1]->WorkLocal[0] == 2*) GOTO 0x03AE
 83: 0x0397 [0x03] ExtData[1]->WorkLocal[9] = 0*
 84: 0x039C [0x03] ExtData[1]->WorkLocal[10] = 0*
 85: 0x03A1 [0x03] ExtData[1]->WorkLocal[11] = 0*
 86: 0x03A6 [0x03] ExtData[1]->WorkLocal[12] = 0*
 87: 0x03AB [0x01] GOTO 0x03EC
 88: 0x03AE [0x02] IF !(ExtData[1]->WorkLocal[0] == 3*) GOTO 0x03CD
 89: 0x03B6 [0x03] ExtData[1]->WorkLocal[9] = 0*
 90: 0x03BB [0x03] ExtData[1]->WorkLocal[10] = 0*
 91: 0x03C0 [0x03] ExtData[1]->WorkLocal[11] = 0*
 92: 0x03C5 [0x03] ExtData[1]->WorkLocal[12] = 0*
 93: 0x03CA [0x01] GOTO 0x03EC
 94: 0x03CD [0x02] IF !(ExtData[1]->WorkLocal[0] == 4*) GOTO 0x03EC
 95: 0x03D5 [0x03] ExtData[1]->WorkLocal[9] = 0*
 96: 0x03DA [0x03] ExtData[1]->WorkLocal[10] = 0*
 97: 0x03DF [0x03] ExtData[1]->WorkLocal[11] = 0*
 98: 0x03E4 [0x03] ExtData[1]->WorkLocal[12] = 0*
 99: 0x03E9 [0x01] GOTO 0x03EC

SUBROUTINE_03EC:
100: 0x03EC [0x47] UPDATE_PLAYER_POS(ExtData[1]->WorkLocal[9], ExtData[1]->WorkLocal[10], ExtData[1]->WorkLocal[11], yaw=ExtData[1]->WorkLocal[12])
101: 0x03F6 [0x47] WAIT_PLAYER_POS_UPDATE
102: 0x03F8 [0x03] ExtData[1]->WorkLocal[4] = Work_Zone[3]
103: 0x03FD [0x03] ExtData[1]->WorkLocal[2] = Work_Zone[4]
104: 0x0402 [0x03] ExtData[1]->WorkLocal[25] = Work_Zone[5]
105: 0x0407 [0x03] ExtData[1]->WorkLocal[13] = Work_Zone[6]
106: 0x040C [0x03] ExtData[1]->WorkLocal[14] = Work_Zone[7]
107: 0x0411 [0x03] ExtData[1]->WorkLocal[27] = Work_Zone[9]
108: 0x0416 [0x02] IF !(Work_Zone[2] == 1*) GOTO 0x0421
109: 0x041E [0x01] GOTO 0x09C0
110: 0x0421 [0x02] IF !(Work_Zone[2] == 4*) GOTO 0x046B
111: 0x0429 [0x02] IF !(ExtData[1]->WorkLocal[0] == 1*) GOTO 0x0438
112: 0x0431 [0x48] [System] [7319*]:
    → "You are cleared to enter the battlefield, but you cannot while party members are engaged in combat."
113: 0x0434 [0x23] WAIT_FOR_DIALOG_INTERACTION
114: 0x0435 [0x01] GOTO 0x0465
115: 0x0438 [0x02] IF !(ExtData[1]->WorkLocal[0] == 2*) GOTO 0x0447
116: 0x0440 [0x48] [System] [7320*]:
    → "You are cleared to enter the battlefield, but you cannot while party members are engaged in combat."
117: 0x0443 [0x23] WAIT_FOR_DIALOG_INTERACTION
118: 0x0444 [0x01] GOTO 0x0465
119: 0x0447 [0x02] IF !(ExtData[1]->WorkLocal[0] == 3*) GOTO 0x0456
120: 0x044F [0x48] [System] [7321*]:
    → "You are cleared to enter the battlefield, but you cannot while party members are engaged in combat."
121: 0x0452 [0x23] WAIT_FOR_DIALOG_INTERACTION
122: 0x0453 [0x01] GOTO 0x0465
123: 0x0456 [0x02] IF !(ExtData[1]->WorkLocal[0] == 4*) GOTO 0x0465
124: 0x045E [0x48] [System] [7322*]:
    → "You are cleared to enter the battlefield, but you cannot while party members are engaged in combat."
125: 0x0461 [0x23] WAIT_FOR_DIALOG_INTERACTION
126: 0x0462 [0x01] GOTO 0x0465

SUBROUTINE_0465:
127: 0x0465 [0x01] GOTO 0x09D7

SUBROUTINE_0675:
128: 0x0675 [0x48] [System] [7667*]:
    → "Only $3 [member/members] have clearance to enter the battlefield. This room has reached its maximum capacity."
129: 0x0678 [0x23] WAIT_FOR_DIALOG_INTERACTION
130: 0x0679 [0x01] GOTO 0x09D7

SUBROUTINE_06C1:
131: 0x06C1 [0x02] IF !(ExtData[1]->WorkLocal[13] > 1*) GOTO 0x06CC
132: 0x06C9 [0x01] GOTO 0x06D9
133: 0x06CC [0x03] Work_Zone[6] = ExtData[1]->WorkLocal[13]
134: 0x06D1 [0x0C] Work_Zone[6]--
135: 0x06D4 [0x03] Work_Zone[7] = ExtData[1]->WorkLocal[13]

SUBROUTINE_06D9:
136: 0x06D9 [0x03] ExtData[1]->WorkLocal[3] = ExtData[1]->WorkLocal[4]
137: 0x06DE [0x03] ExtData[1]->WorkLocal[19] = 100*
138: 0x06E3 [0x07] ExtData[1]->WorkLocal[19] += ExtData[1]->WorkLocal[3]
139: 0x06E8 [0x02] IF !(ExtData[1]->WorkLocal[2] == ExtData[1]->WorkLocal[19]) GOTO 0x06F8
140: 0x06F0 [0x03] ExtData[1]->WorkLocal[2] = 1*
141: 0x06F5 [0x01] GOTO 0x06FD
142: 0x06F8 [0x03] ExtData[1]->WorkLocal[2] = 0*

SUBROUTINE_06FD:
143: 0x06FD [0x02] IF !(ExtData[1]->WorkLocal[2] == 0*) GOTO 0x0723
144: 0x0705 [0x02] IF !(ExtData[1]->WorkLocal[14] == 1*) GOTO 0x0723
145: 0x070D [0x24] CREATE_DIALOG(message_id=7647*, default_option=1*, option_flags=0*)
    → "Skip the event? [Yes./No.]"
146: 0x0714 [0x25] WAIT_DIALOG_SELECT()
147: 0x0715 [0x02] IF !(Work_Zone[0] == 0*) GOTO 0x0723
148: 0x071D [0x05] ExtData[1]->WorkLocal[2] = 1
149: 0x0720 [0x01] GOTO 0x0723

SUBROUTINE_0723:
150: 0x0723 [0x06] ExtData[1]->WorkLocal[20] = 0
151: 0x0726 [0x02] IF !(ExtData[1]->WorkLocal[4] == 0*) GOTO 0x0736
152: 0x072E [0x03] ExtData[1]->WorkLocal[20] = 0*
153: 0x0733 [0x01] GOTO 0x091B
154: 0x0736 [0x02] IF !(ExtData[1]->WorkLocal[4] == 1*) GOTO 0x0746
155: 0x073E [0x03] ExtData[1]->WorkLocal[20] = 0*
156: 0x0743 [0x01] GOTO 0x091B
157: 0x0746 [0x02] IF !(ExtData[1]->WorkLocal[4] == 2*) GOTO 0x0756
158: 0x074E [0x03] ExtData[1]->WorkLocal[20] = 0*
159: 0x0753 [0x01] GOTO 0x091B
160: 0x0756 [0x02] IF !(ExtData[1]->WorkLocal[4] == 3*) GOTO 0x0766
161: 0x075E [0x03] ExtData[1]->WorkLocal[20] = 1*
162: 0x0763 [0x01] GOTO 0x091B
163: 0x0766 [0x02] IF !(ExtData[1]->WorkLocal[4] == 4*) GOTO 0x0776
164: 0x076E [0x03] ExtData[1]->WorkLocal[20] = 0*
165: 0x0773 [0x01] GOTO 0x091B
166: 0x0776 [0x02] IF !(ExtData[1]->WorkLocal[4] == 5*) GOTO 0x0786
167: 0x077E [0x03] ExtData[1]->WorkLocal[20] = 0*
168: 0x0783 [0x01] GOTO 0x091B
169: 0x0786 [0x02] IF !(ExtData[1]->WorkLocal[4] == 6*) GOTO 0x0796
170: 0x078E [0x03] ExtData[1]->WorkLocal[20] = 0*
171: 0x0793 [0x01] GOTO 0x091B
172: 0x0796 [0x02] IF !(ExtData[1]->WorkLocal[4] == 7*) GOTO 0x07A6
173: 0x079E [0x03] ExtData[1]->WorkLocal[20] = 0*
174: 0x07A3 [0x01] GOTO 0x091B
175: 0x07A6 [0x02] IF !(ExtData[1]->WorkLocal[4] == 8*) GOTO 0x07B6
176: 0x07AE [0x03] ExtData[1]->WorkLocal[20] = 0*
177: 0x07B3 [0x01] GOTO 0x091B
178: 0x07B6 [0x02] IF !(ExtData[1]->WorkLocal[4] == 9*) GOTO 0x07C6
179: 0x07BE [0x03] ExtData[1]->WorkLocal[20] = 0*
180: 0x07C3 [0x01] GOTO 0x091B
181: 0x07C6 [0x02] IF !(ExtData[1]->WorkLocal[4] == 10*) GOTO 0x07D6
182: 0x07CE [0x03] ExtData[1]->WorkLocal[20] = 0*
183: 0x07D3 [0x01] GOTO 0x091B
184: 0x07D6 [0x02] IF !(ExtData[1]->WorkLocal[4] == 11*) GOTO 0x07E6
185: 0x07DE [0x03] ExtData[1]->WorkLocal[20] = 0*
186: 0x07E3 [0x01] GOTO 0x091B
187: 0x07E6 [0x02] IF !(ExtData[1]->WorkLocal[4] == 12*) GOTO 0x07F6
188: 0x07EE [0x03] ExtData[1]->WorkLocal[20] = 0*
189: 0x07F3 [0x01] GOTO 0x091B
190: 0x07F6 [0x02] IF !(ExtData[1]->WorkLocal[4] == 13*) GOTO 0x0806
191: 0x07FE [0x03] ExtData[1]->WorkLocal[20] = 0*
192: 0x0803 [0x01] GOTO 0x091B
193: 0x0806 [0x02] IF !(ExtData[1]->WorkLocal[4] == 14*) GOTO 0x0816
194: 0x080E [0x03] ExtData[1]->WorkLocal[20] = 0*
195: 0x0813 [0x01] GOTO 0x091B
196: 0x0816 [0x02] IF !(ExtData[1]->WorkLocal[4] == 15*) GOTO 0x0826
197: 0x081E [0x03] ExtData[1]->WorkLocal[20] = 0*
198: 0x0823 [0x01] GOTO 0x091B
199: 0x0826 [0x02] IF !(ExtData[1]->WorkLocal[4] == 16*) GOTO 0x0836
200: 0x082E [0x03] ExtData[1]->WorkLocal[20] = 0*
201: 0x0833 [0x01] GOTO 0x091B
202: 0x0836 [0x02] IF !(ExtData[1]->WorkLocal[4] == 17*) GOTO 0x0846
203: 0x083E [0x03] ExtData[1]->WorkLocal[20] = 0*
204: 0x0843 [0x01] GOTO 0x091B
205: 0x0846 [0x02] IF !(ExtData[1]->WorkLocal[4] == 18*) GOTO 0x0856
206: 0x084E [0x03] ExtData[1]->WorkLocal[20] = 0*
207: 0x0853 [0x01] GOTO 0x091B
208: 0x0856 [0x02] IF !(ExtData[1]->WorkLocal[4] == 19*) GOTO 0x0866
209: 0x085E [0x03] ExtData[1]->WorkLocal[20] = 0*
210: 0x0863 [0x01] GOTO 0x091B
211: 0x0866 [0x02] IF !(ExtData[1]->WorkLocal[4] == 20*) GOTO 0x0876
212: 0x086E [0x03] ExtData[1]->WorkLocal[20] = 0*
213: 0x0873 [0x01] GOTO 0x091B
214: 0x0876 [0x02] IF !(ExtData[1]->WorkLocal[4] == 21*) GOTO 0x0886
215: 0x087E [0x03] ExtData[1]->WorkLocal[20] = 0*
216: 0x0883 [0x01] GOTO 0x091B
217: 0x0886 [0x02] IF !(ExtData[1]->WorkLocal[4] == 22*) GOTO 0x0896
218: 0x088E [0x03] ExtData[1]->WorkLocal[20] = 0*
219: 0x0893 [0x01] GOTO 0x091B
220: 0x0896 [0x02] IF !(ExtData[1]->WorkLocal[4] == 23*) GOTO 0x08A6
221: 0x089E [0x03] ExtData[1]->WorkLocal[20] = 0*
222: 0x08A3 [0x01] GOTO 0x091B
223: 0x08A6 [0x02] IF !(ExtData[1]->WorkLocal[4] == 24*) GOTO 0x08B6
224: 0x08AE [0x03] ExtData[1]->WorkLocal[20] = 0*
225: 0x08B3 [0x01] GOTO 0x091B
226: 0x08B6 [0x02] IF !(ExtData[1]->WorkLocal[4] == 25*) GOTO 0x08C6
227: 0x08BE [0x03] ExtData[1]->WorkLocal[20] = 0*
228: 0x08C3 [0x01] GOTO 0x091B
229: 0x08C6 [0x02] IF !(ExtData[1]->WorkLocal[4] == 26*) GOTO 0x08D6
230: 0x08CE [0x03] ExtData[1]->WorkLocal[20] = 0*
231: 0x08D3 [0x01] GOTO 0x091B
232: 0x08D6 [0x02] IF !(ExtData[1]->WorkLocal[4] == 27*) GOTO 0x08E6
233: 0x08DE [0x03] ExtData[1]->WorkLocal[20] = 0*
234: 0x08E3 [0x01] GOTO 0x091B
235: 0x08E6 [0x02] IF !(ExtData[1]->WorkLocal[4] == 28*) GOTO 0x08F6
236: 0x08EE [0x03] ExtData[1]->WorkLocal[20] = 0*
237: 0x08F3 [0x01] GOTO 0x091B
238: 0x08F6 [0x02] IF !(ExtData[1]->WorkLocal[4] == 29*) GOTO 0x0906
239: 0x08FE [0x03] ExtData[1]->WorkLocal[20] = 0*
240: 0x0903 [0x01] GOTO 0x091B
241: 0x0906 [0x02] IF !(ExtData[1]->WorkLocal[4] == 30*) GOTO 0x0916
242: 0x090E [0x03] ExtData[1]->WorkLocal[20] = 0*
243: 0x0913 [0x01] GOTO 0x091B
244: 0x0916 [0x03] ExtData[1]->WorkLocal[20] = 0*

SUBROUTINE_091B:
245: 0x091B [0x02] IF !(ExtData[1]->WorkLocal[2] == 1*) GOTO 0x0951
246: 0x0923 [0x5C] MUSIC_CONTROL: Set Idle (Day) music to song 217*
247: 0x0927 [0x5C] MUSIC_CONTROL: Set Idle (Night) music to song 217*
248: 0x092B [0x5C] MUSIC_CONTROL: Set Combat (Solo) music to song 217*
249: 0x092F [0x5C] MUSIC_CONTROL: Set Combat (Party) music to song 217*
250: 0x0933 [0x02] IF !(ExtData[1]->WorkLocal[4] == 3*) GOTO 0x094E
251: 0x093B [0x5C] MUSIC_CONTROL: Set Idle (Day) music to song 46*
252: 0x093F [0x5C] MUSIC_CONTROL: Set Idle (Night) music to song 46*
253: 0x0943 [0x5C] MUSIC_CONTROL: Set Combat (Solo) music to song 46*
254: 0x0947 [0x5C] MUSIC_CONTROL: Set Combat (Party) music to song 46*
255: 0x094B [0x01] GOTO 0x094E

SUBROUTINE_094E:
256: 0x094E [0x01] GOTO 0x0969
257: 0x0951 [0x02] IF !(ExtData[1]->WorkLocal[20] == 0*) GOTO 0x0969
258: 0x0959 [0x5C] MUSIC_CONTROL: Set Idle (Day) music to song 217*
259: 0x095D [0x5C] MUSIC_CONTROL: Set Idle (Night) music to song 217*
260: 0x0961 [0x5C] MUSIC_CONTROL: Set Combat (Solo) music to song 217*
261: 0x0965 [0x5C] MUSIC_CONTROL: Set Combat (Party) music to song 217*

SUBROUTINE_0969:
262: 0x0969 [0x02] IF !(ExtData[1]->WorkLocal[2] == 0*) GOTO 0x0977
263: 0x0971 [0x1A] CALL_SUBROUTINE(address=0x2C99)
264: 0x0974 [0x01] GOTO 0x09B0
265: 0x0977 [0x6C] FADE_ENTITY_COLOR(entity_id=LocalPlayer, end_alpha=0*, fade_time=1*)
266: 0x0980 [0x62] LOAD_EVENT_SCHEDULER: Load scheduler "main" with entities [LocalPlayer, LocalPlayer], work=[2*, 0*]
267: 0x0991 [0x45] LOAD_SCHEDULED_TASK: Load scheduler "ovl1" with entities [LocalPlayer, LocalPlayer], work=[200*, 0*]
268: 0x09A2 [0x46] CAMERA_CONTROL: Query status
269: 0x09A4 [0x12] 0x0200 = rand()
270: 0x09A7 [0x12] 0x0100 = rand()
271: 0x09AA [0x80] LOAD_WAIT(entity=Unknown NPC (ID: 1175040000/0x4609B000))
272: 0x09AF [0x00] END_REQSTACK()

SUBROUTINE_09B0:
273: 0x09B0 [0x03] Work_Zone[1] = 100*
274: 0x09B5 [0x07] Work_Zone[1] += ExtData[1]->WorkLocal[3]
275: 0x09BA [0x01] GOTO 0x09D7

SUBROUTINE_09C0:
276: 0x09C0 [0x0B] ExtData[1]->WorkLocal[0]++
277: 0x09C3 [0x02] IF !(0* == 1*) GOTO 0x09D0
278: 0x09CB [0x03] ExtData[1]->WorkLocal[0] = 2*
279: 0x09D0 [0x01] GOTO 0x0337
280: 0x09D3 [0x48] [System] [7311*]:
    → "You cannot enter the battlefield at present. Please wait a little longer."
281: 0x09D6 [0x23] WAIT_FOR_DIALOG_INTERACTION

SUBROUTINE_09D7:
282: 0x09D7 [0x45] LOAD_SCHEDULED_TASK: Load scheduler "whi1" with entities [LocalPlayer, LocalPlayer], work=[201*, 0*]
283: 0x09E8 [0x45] LOAD_SCHEDULED_TASK: Load scheduler "blof" with entities [LocalPlayer, LocalPlayer], work=[200*, 0*]
284: 0x09F9 [0x45] LOAD_SCHEDULED_TASK: Load scheduler "fdi0" with entities [LocalPlayer, LocalPlayer], work=[200*, 0*]

SUBROUTINE_0A0A:
285: 0x0A0A [0x02] IF !(ExtData[1]->WorkLocal[7] == 1*) GOTO 0x0A22
286: 0x0A12 [0x5C] MUSIC_CONTROL: Set Idle (Day) music to song 0*
287: 0x0A16 [0x5C] MUSIC_CONTROL: Set Idle (Night) music to song 0*
288: 0x0A1A [0x5C] MUSIC_CONTROL: Set Combat (Solo) music to song 217*
289: 0x0A1E [0x5C] MUSIC_CONTROL: Set Combat (Party) music to song 217*
290: 0x0A22 [0x21] END_EVENT
291: 0x0A23 [0x00] END_REQSTACK()

SUBROUTINE_0A24:
292: 0x0A24 [0x1B] RETURN
```

#### Data or dead code:

```
# Dead code (unreachable instructions):
     0x0206 [0x01] GOTO 0x02D8
# Dead code (unreachable instructions):
     0x02A9 [0x01] GOTO 0x02B1
# Dead code (unreachable instructions):
     0x02D5 [0x01] GOTO 0x02D8
# Dead code (unreachable instructions):
     0x0468 [0x01] GOTO 0x09C0
     0x047A [0x01] GOTO 0x09C0
# Dead code (unreachable instructions):
     0x067C [0x01] GOTO 0x09C0
     0x068A [0x01] GOTO 0x09C0
# Dead code (unreachable instructions):
     0x09BD [0x01] GOTO 0x09C0
```

### Event 32002

#### Metadata

| Field        | Value     |
|--------------|-----------|
| Entrypoint   | 0x0A25    |
| Data Size    | 494 bytes |
| Instructions | 83        |

```
      00 01 02 03 04 05 06 07  08 09 0A 0B 0C 0D 0E 0F
      -- -- -- -- -- -- -- --  -- -- -- -- -- -- -- --
0A20:                03 05 00  06 10 03 20 00 07 10 03       ...... ....
0A30: 1F 00 08 10 20 01 42 3B  F0 FF FF 7F 20 10 21 10  .... .B;.... .!.
0A40: 22 10 3A F0 FF FF 7F 23  10 45 00 80 F0 FF FF 7F  ".:....#.E......
0A50: F0 FF FF 7F 66 64 6F 31  01 80 55 00 80 F0 FF FF  ....fdo1..U.....
0A60: 7F F0 FF FF 7F 66 64 6F  31 02 01 80 05 80 00 D0  .....fdo1.......
0A70: 0A 02 05 00 05 80 80 88  0A 47 00 01 80 01 80 01  .........G......
0A80: 80 01 80 47 01 01 CD 0A  02 05 00 0D 80 80 9F 0A  ...G............
0A90: 47 00 01 80 01 80 01 80  01 80 47 01 01 CD 0A 02  G.........G.....
0AA0: 05 00 0E 80 80 B6 0A 47  00 01 80 01 80 01 80 01  .......G........
0AB0: 80 47 01 01 CD 0A 02 05  00 0F 80 80 CD 0A 47 00  .G............G.
0AC0: 01 80 01 80 01 80 01 80  47 01 01 CD 0A 01 D9 0B  ........G.......
0AD0: 02 1F 00 38 80 80 5A 0B  02 20 00 01 80 80 EF 0A  ...8..Z.. ......
0AE0: 47 00 39 80 3A 80 3B 80  3C 80 47 01 01 57 0B 02  G.9.:.;.<.G..W..
0AF0: 20 00 05 80 80 06 0B 47  00 3D 80 3E 80 3F 80 40   ......G.=.>.?.@
0B00: 80 47 01 01 57 0B 02 20  00 0D 80 80 1D 0B 47 00  .G..W.. ......G.
0B10: 41 80 42 80 43 80 44 80  47 01 01 57 0B 02 20 00  A.B.C.D.G..W.. .
0B20: 0E 80 80 34 0B 47 00 45  80 46 80 47 80 48 80 47  ...4.G.E.F.G.H.G
0B30: 01 01 57 0B 02 20 00 0F  80 80 4B 0B 47 00 49 80  ..W.. ....K.G.I.
0B40: 4A 80 4B 80 4C 80 47 01  01 57 0B 47 00 16 80 4D  J.K.L.G..W.G...M
0B50: 80 4E 80 4F 80 47 01 01  D9 0B 02 1F 00 1F 80 80  .N.O.G..........
0B60: CD 0B 02 20 00 05 80 80  79 0B 47 00 50 80 51 80  ... ....y.G.P.Q.
0B70: 52 80 53 80 47 01 01 CA  0B 02 20 00 0D 80 80 90  R.S.G..... .....
0B80: 0B 47 00 54 80 55 80 56  80 57 80 47 01 01 CA 0B  .G.T.U.V.W.G....
0B90: 02 20 00 0E 80 80 A7 0B  47 00 58 80 59 80 5A 80  . ......G.X.Y.Z.
0BA0: 5B 80 47 01 01 CA 0B 02  20 00 0F 80 80 BE 0B 47  [.G..... ......G
0BB0: 00 5C 80 5D 80 5E 80 5F  80 47 01 01 CA 0B 47 00  .\.].^._.G....G.
0BC0: 16 80 4D 80 4E 80 4F 80  47 01 01 D9 0B 47 00 16  ..M.N.O.G....G..
0BD0: 80 4D 80 4E 80 4F 80 47  01 38 12 80 1A E7 2E 45  .M.N.O.G.8.....E
0BE0: 37 80 F0 FF FF 7F F0 FF  FF 7F 77 68 69 31 01 80  7.........whi1..
0BF0: 45 00 80 F0 FF FF 7F F0  FF FF 7F 62 6C 6F 66 01  E..........blof.
0C00: 80 5C 00 01 80 5C 01 01  80 5C 02 34 80 5C 03 34  .\...\...\.4.\.4
0C10: 80 21 00                                          .!.             
```

#### Opcodes

```
  0: 0x0A25 [0x03] ExtData[1]->WorkLocal[5] = Work_Zone[6]
  1: 0x0A2A [0x03] ExtData[1]->WorkLocal[32] = Work_Zone[7]
  2: 0x0A2F [0x03] ExtData[1]->WorkLocal[31] = Work_Zone[8]
  3: 0x0A34 [0x20] SET_CLI_EVENT_UC_FLAG: Lock player control
  4: 0x0A36 [0x42] SET_CLI_EVENT_CANCEL_DATA()
  5: 0x0A37 [0x3B] GET_ENTITY_POSITION(entity=LocalPlayer, x_destination=Work_Zone[32], y_destination=Work_Zone[33], z_destination=Work_Zone[34])
  6: 0x0A42 [0x3A] CONVERT_YAW_TO_BYTE(entity=LocalPlayer, result_destination=Work_Zone[35])
  7: 0x0A49 [0x45] LOAD_SCHEDULED_TASK: Load scheduler "fdo1" with entities [LocalPlayer, LocalPlayer], work=[200*, 0*]
  8: 0x0A5A [0x55] WAIT_LOAD_SCHEDULER: Wait for scheduler "fdo1" with entities [LocalPlayer, LocalPlayer], work=200*
  9: 0x0A69 [0x02] IF !(0* == 1*) GOTO 0x0AD0
 10: 0x0A71 [0x02] IF !(ExtData[1]->WorkLocal[5] == 1*) GOTO 0x0A88
 11: 0x0A79 [0x47] UPDATE_PLAYER_POS(0.000*, 0.000*, 0.000*, yaw=0.0°*)
 12: 0x0A83 [0x47] WAIT_PLAYER_POS_UPDATE
 13: 0x0A85 [0x01] GOTO 0x0ACD
 14: 0x0A88 [0x02] IF !(ExtData[1]->WorkLocal[5] == 2*) GOTO 0x0A9F
 15: 0x0A90 [0x47] UPDATE_PLAYER_POS(0.000*, 0.000*, 0.000*, yaw=0.0°*)
 16: 0x0A9A [0x47] WAIT_PLAYER_POS_UPDATE
 17: 0x0A9C [0x01] GOTO 0x0ACD
 18: 0x0A9F [0x02] IF !(ExtData[1]->WorkLocal[5] == 3*) GOTO 0x0AB6
 19: 0x0AA7 [0x47] UPDATE_PLAYER_POS(0.000*, 0.000*, 0.000*, yaw=0.0°*)
 20: 0x0AB1 [0x47] WAIT_PLAYER_POS_UPDATE
 21: 0x0AB3 [0x01] GOTO 0x0ACD
 22: 0x0AB6 [0x02] IF !(ExtData[1]->WorkLocal[5] == 4*) GOTO 0x0ACD
 23: 0x0ABE [0x47] UPDATE_PLAYER_POS(0.000*, 0.000*, 0.000*, yaw=0.0°*)
 24: 0x0AC8 [0x47] WAIT_PLAYER_POS_UPDATE
 25: 0x0ACA [0x01] GOTO 0x0ACD

SUBROUTINE_0ACD:
 26: 0x0ACD [0x01] GOTO 0x0BD9
 27: 0x0AD0 [0x02] IF !(ExtData[1]->WorkLocal[31] == 180*) GOTO 0x0B5A
 28: 0x0AD8 [0x02] IF !(ExtData[1]->WorkLocal[32] == 0*) GOTO 0x0AEF
 29: 0x0AE0 [0x47] UPDATE_PLAYER_POS(-605.141*, 479.929*, -22.681*, yaw=87.2°*)
 30: 0x0AEA [0x47] WAIT_PLAYER_POS_UPDATE
 31: 0x0AEC [0x01] GOTO 0x0B57
 32: 0x0AEF [0x02] IF !(ExtData[1]->WorkLocal[32] == 1*) GOTO 0x0B06
 33: 0x0AF7 [0x47] UPDATE_PLAYER_POS(-262.589*, 377.857*, -137.313*, yaw=305.3°*)
 34: 0x0B01 [0x47] WAIT_PLAYER_POS_UPDATE
 35: 0x0B03 [0x01] GOTO 0x0B57
 36: 0x0B06 [0x02] IF !(ExtData[1]->WorkLocal[32] == 2*) GOTO 0x0B1D
 37: 0x0B0E [0x47] UPDATE_PLAYER_POS(18.348*, 486.940*, -224.334*, yaw=17.1°*)
 38: 0x0B18 [0x47] WAIT_PLAYER_POS_UPDATE
 39: 0x0B1A [0x01] GOTO 0x0B57
 40: 0x0B1D [0x02] IF !(ExtData[1]->WorkLocal[32] == 3*) GOTO 0x0B34
 41: 0x0B25 [0x47] UPDATE_PLAYER_POS(231.593*, 360.094*, -173.572*, yaw=160.8°*)
 42: 0x0B2F [0x47] WAIT_PLAYER_POS_UPDATE
 43: 0x0B31 [0x01] GOTO 0x0B57
 44: 0x0B34 [0x02] IF !(ExtData[1]->WorkLocal[32] == 4*) GOTO 0x0B4B
 45: 0x0B3C [0x47] UPDATE_PLAYER_POS(553.664*, 523.939*, -38.205*, yaw=233.9°*)
 46: 0x0B46 [0x47] WAIT_PLAYER_POS_UPDATE
 47: 0x0B48 [0x01] GOTO 0x0B57
 48: 0x0B4B [0x47] UPDATE_PLAYER_POS(-700.000*, -335.000*, -17.600*, yaw=90.0°*)
 49: 0x0B55 [0x47] WAIT_PLAYER_POS_UPDATE

SUBROUTINE_0B57:
 50: 0x0B57 [0x01] GOTO 0x0BD9
 51: 0x0B5A [0x02] IF !(ExtData[1]->WorkLocal[31] == 6*) GOTO 0x0BCD
 52: 0x0B62 [0x02] IF !(ExtData[1]->WorkLocal[32] == 1*) GOTO 0x0B79
 53: 0x0B6A [0x47] UPDATE_PLAYER_POS(-875.117*, -43.892*, -48.084*, yaw=45.1°*)
 54: 0x0B74 [0x47] WAIT_PLAYER_POS_UPDATE
 55: 0x0B76 [0x01] GOTO 0x0BCA
 56: 0x0B79 [0x02] IF !(ExtData[1]->WorkLocal[32] == 2*) GOTO 0x0B90
 57: 0x0B81 [0x47] UPDATE_PLAYER_POS(-755.499*, 563.947*, -112.035*, yaw=313.5°*)
 58: 0x0B8B [0x47] WAIT_PLAYER_POS_UPDATE
 59: 0x0B8D [0x01] GOTO 0x0BCA
 60: 0x0B90 [0x02] IF !(ExtData[1]->WorkLocal[32] == 3*) GOTO 0x0BA7
 61: 0x0B98 [0x47] UPDATE_PLAYER_POS(123.251*, 754.209*, -172.124*, yaw=38.7°*)
 62: 0x0BA2 [0x47] WAIT_PLAYER_POS_UPDATE
 63: 0x0BA4 [0x01] GOTO 0x0BCA
 64: 0x0BA7 [0x02] IF !(ExtData[1]->WorkLocal[32] == 4*) GOTO 0x0BBE
 65: 0x0BAF [0x47] UPDATE_PLAYER_POS(-516.404*, -803.323*, 24.206*, yaw=38.4°*)
 66: 0x0BB9 [0x47] WAIT_PLAYER_POS_UPDATE
 67: 0x0BBB [0x01] GOTO 0x0BCA
 68: 0x0BBE [0x47] UPDATE_PLAYER_POS(-700.000*, -335.000*, -17.600*, yaw=90.0°*)
 69: 0x0BC8 [0x47] WAIT_PLAYER_POS_UPDATE

SUBROUTINE_0BCA:
 70: 0x0BCA [0x01] GOTO 0x0BD9
 71: 0x0BCD [0x47] UPDATE_PLAYER_POS(-700.000*, -335.000*, -17.600*, yaw=90.0°*)
 72: 0x0BD7 [0x47] WAIT_PLAYER_POS_UPDATE

SUBROUTINE_0BD9:
 73: 0x0BD9 [0x38] SET_CLIENT_EVENT_MODE(mode=19*)
 74: 0x0BDC [0x1A] CALL_SUBROUTINE(address=0x2EE7)
 75: 0x0BDF [0x45] LOAD_SCHEDULED_TASK: Load scheduler "whi1" with entities [LocalPlayer, LocalPlayer], work=[201*, 0*]
 76: 0x0BF0 [0x45] LOAD_SCHEDULED_TASK: Load scheduler "blof" with entities [LocalPlayer, LocalPlayer], work=[200*, 0*]
 77: 0x0C01 [0x5C] MUSIC_CONTROL: Set Idle (Day) music to song 0*
 78: 0x0C05 [0x5C] MUSIC_CONTROL: Set Idle (Night) music to song 0*
 79: 0x0C09 [0x5C] MUSIC_CONTROL: Set Combat (Solo) music to song 217*
 80: 0x0C0D [0x5C] MUSIC_CONTROL: Set Combat (Party) music to song 217*
 81: 0x0C11 [0x21] END_EVENT
 82: 0x0C12 [0x00] END_REQSTACK()
```

### Event 32001

#### Metadata

| Field        | Value     |
|--------------|-----------|
| Entrypoint   | 0x0C13    |
| Data Size    | 845 bytes |
| Instructions | 143       |

```
      00 01 02 03 04 05 06 07  08 09 0A 0B 0C 0D 0E 0F
      -- -- -- -- -- -- -- --  -- -- -- -- -- -- -- --
0C10:          79 00 F0 FF FF  7F F0 FF FF 7F 03 20 00     y.......... .
0C20: 02 10 03 19 00 03 10 03  1A 00 05 10 03 1F 00 06  ................
0C30: 10 03 18 00 07 10 03 16  00 08 10 03 1B 00 09 10  ................
0C40: 20 01 42 3B F0 FF FF 7F  20 10 21 10 22 10 3A F0   .B;.... .!.".:.
0C50: FF FF 7F 23 10 02 1F 00  38 80 01 60 0C 1C 60 80  ...#....8..`..`.
0C60: 45 37 80 F0 FF FF 7F F0  FF FF 7F 77 68 69 31 01  E7.........whi1.
0C70: 80 45 00 80 F0 FF FF 7F  F0 FF FF 7F 62 6C 6F 66  .E..........blof
0C80: 01 80 45 00 80 F0 FF FF  7F F0 FF FF 7F 66 64 6F  ..E..........fdo
0C90: 31 01 80 55 00 80 F0 FF  FF 7F F0 FF FF 7F 66 64  1..U..........fd
0CA0: 6F 31 6C F0 FF FF 7F 61  80 05 80 06 01 10 02 16  o1l....a........
0CB0: 00 01 80 03 B9 0C 01 7D  0D 02 1F 00 38 80 80 43  .......}....8..C
0CC0: 0D 02 20 00 01 80 80 D8  0C 47 00 62 80 63 80 64  .. ......G.b.c.d
0CD0: 80 65 80 47 01 01 40 0D  02 20 00 05 80 80 EF 0C  .e.G..@.. ......
0CE0: 47 00 66 80 67 80 68 80  69 80 47 01 01 40 0D 02  G.f.g.h.i.G..@..
0CF0: 20 00 0D 80 80 06 0D 47  00 6A 80 6B 80 6C 80 6D   ......G.j.k.l.m
0D00: 80 47 01 01 40 0D 02 20  00 0E 80 80 1D 0D 47 00  .G..@.. ......G.
0D10: 6E 80 6F 80 70 80 71 80  47 01 01 40 0D 02 20 00  n.o.p.q.G..@.. .
0D20: 0F 80 80 34 0D 47 00 72  80 73 80 74 80 75 80 47  ...4.G.r.s.t.u.G
0D30: 01 01 40 0D 47 00 16 80  4D 80 4E 80 4F 80 47 01  ..@.G...M.N.O.G.
0D40: 01 7D 0D 02 1F 00 76 80  80 71 0D 02 18 00 01 80  .}....v..q......
0D50: 80 62 0D 47 00 16 80 4D  80 4E 80 4F 80 47 01 01  .b.G...M.N.O.G..
0D60: 6E 0D 47 00 77 80 78 80  79 80 7A 80 47 01 01 7D  n.G.w.x.y.z.G..}
0D70: 0D 47 00 16 80 4D 80 4E  80 4F 80 47 01 38 12 80  .G...M.N.O.G.8..
0D80: 02 16 00 0D 80 00 8B 0D  01 A6 0D 02 16 00 05 80  ................
0D90: 00 56 0E 1C 06 80 24 33  80 05 80 01 80 25 02 00  .V....$3.....%..
0DA0: 10 01 80 00 56 0E 02 1F  00 38 80 00 12 0E 02 20  ....V....8..... 
0DB0: 00 01 80 80 C0 0D 36 62  80 63 80 64 80 01 0F 0E  ......6b.c.d....
0DC0: 02 20 00 05 80 80 D2 0D  36 66 80 67 80 68 80 01  . ......6f.g.h..
0DD0: 0F 0E 02 20 00 0D 80 80  E4 0D 36 6A 80 6B 80 6C  ... ......6j.k.l
0DE0: 80 01 0F 0E 02 20 00 0E  80 80 F6 0D 36 6E 80 6F  ..... ......6n.o
0DF0: 80 70 80 01 0F 0E 02 20  00 0F 80 80 08 0E 36 72  .p..... ......6r
0E00: 80 73 80 74 80 01 0F 0E  36 16 80 4D 80 4E 80 01  .s.t....6..M.N..
0E10: 1B 0E 37 16 80 4D 80 4E  80 4F 80 80 F0 FF FF 7F  ..7..M.N.O......
0E20: 62 0D 80 F0 FF FF 7F F0  FF FF 7F 6D 61 69 6E 01  b..........main.
0E30: 80 45 00 80 F0 FF FF 7F  F0 FF FF 7F 66 64 69 32  .E..........fdi2
0E40: 01 80 46 02 12 00 02 12  00 01 80 00 50 0E 46 00  ..F.........P.F.
0E50: 01 7D 0E 01 56 0E 02 16  00 09 80 04 6F 0E 5C 00  .}..V.......o.\.
0E60: 34 80 5C 01 34 80 5C 02  34 80 5C 03 34 80 9A 1A  4.\.4.\.4.\.4...
0E70: 72 2D 02 16 00 01 80 03  7D 0E 01 F8 0E 03 05 10  r-......}.......
0E80: 1A 00 02 05 10 01 80 02  F8 0E 02 05 10 02 80 04  ................
0E90: A5 0E 3F 04 10 05 10 02  80 15 05 10 02 80 48 7B  ..?...........H{
0EA0: 80 23 01 A9 0E 48 7C 80  23 02 1A 00 19 00 05 D7  .#...H|.#.......
0EB0: 0E 03 07 10 18 00 02 06  10 01 80 80 C5 0E 48 7D  ..............H}
0EC0: 80 23 01 D4 0E 02 06 10  05 80 80 D4 0E 48 7E 80  .#...........H~.
0ED0: 23 01 D4 0E 01 F8 0E 02  19 00 02 80 04 F3 0E 03  #...............
0EE0: 05 10 19 00 3F 04 10 05  10 02 80 15 05 10 02 80  ....?...........
0EF0: 01 F8 0E 03 05 10 19 00  02 17 00 01 80 00 10 0F  ................
0F00: 5C 00 01 80 5C 01 01 80  5C 02 34 80 5C 03 34 80  \...\...\.4.\.4.
0F10: 02 16 00 01 80 03 39 0F  45 00 80 F0 FF FF 7F F0  ......9.E.......
0F20: FF FF 7F 66 64 69 32 01  80 5C 00 01 80 5C 01 01  ...fdi2..\...\..
0F30: 80 5C 02 34 80 5C 03 34  80 06 17 00 45 37 80 F0  .\.4.\.4....E7..
0F40: FF FF 7F F0 FF FF 7F 77  68 69 31 01 80 45 00 80  .......whi1..E..
0F50: F0 FF FF 7F F0 FF FF 7F  62 6C 6F 66 01 80 21 00  ........blof..!.
```

#### Opcodes

```
  0: 0x0C13 [0x79] LocalPlayer looks at LocalPlayer (Basic look)
  1: 0x0C1D [0x03] ExtData[1]->WorkLocal[32] = Work_Zone[2]
  2: 0x0C22 [0x03] ExtData[1]->WorkLocal[25] = Work_Zone[3]
  3: 0x0C27 [0x03] ExtData[1]->WorkLocal[26] = Work_Zone[5]
  4: 0x0C2C [0x03] ExtData[1]->WorkLocal[31] = Work_Zone[6]
  5: 0x0C31 [0x03] ExtData[1]->WorkLocal[24] = Work_Zone[7]
  6: 0x0C36 [0x03] ExtData[1]->WorkLocal[22] = Work_Zone[8]
  7: 0x0C3B [0x03] ExtData[1]->WorkLocal[27] = Work_Zone[9]
  8: 0x0C40 [0x20] SET_CLI_EVENT_UC_FLAG: Lock player control
  9: 0x0C42 [0x42] SET_CLI_EVENT_CANCEL_DATA()
 10: 0x0C43 [0x3B] GET_ENTITY_POSITION(entity=LocalPlayer, x_destination=Work_Zone[32], y_destination=Work_Zone[33], z_destination=Work_Zone[34])
 11: 0x0C4E [0x3A] CONVERT_YAW_TO_BYTE(entity=LocalPlayer, result_destination=Work_Zone[35])
 12: 0x0C55 [0x02] IF !(ExtData[1]->WorkLocal[31] == 180*) GOTO 0x0C60
 13: 0x0C5D [0x1C] WAIT(300* ticks)
 14: 0x0C60 [0x45] LOAD_SCHEDULED_TASK: Load scheduler "whi1" with entities [LocalPlayer, LocalPlayer], work=[201*, 0*]
 15: 0x0C71 [0x45] LOAD_SCHEDULED_TASK: Load scheduler "blof" with entities [LocalPlayer, LocalPlayer], work=[200*, 0*]
 16: 0x0C82 [0x45] LOAD_SCHEDULED_TASK: Load scheduler "fdo1" with entities [LocalPlayer, LocalPlayer], work=[200*, 0*]
 17: 0x0C93 [0x55] WAIT_LOAD_SCHEDULER: Wait for scheduler "fdo1" with entities [LocalPlayer, LocalPlayer], work=200*
 18: 0x0CA2 [0x6C] FADE_ENTITY_COLOR(entity_id=LocalPlayer, end_alpha=128*, fade_time=1*)
 19: 0x0CAB [0x06] Work_Zone[1] = 0
 20: 0x0CAE [0x02] IF !(ExtData[1]->WorkLocal[22] >= 0*) GOTO 0x0CB9
 21: 0x0CB6 [0x01] GOTO 0x0D7D
 22: 0x0CB9 [0x02] IF !(ExtData[1]->WorkLocal[31] == 180*) GOTO 0x0D43
 23: 0x0CC1 [0x02] IF !(ExtData[1]->WorkLocal[32] == 0*) GOTO 0x0CD8
 24: 0x0CC9 [0x47] UPDATE_PLAYER_POS(-618.329*, -643.868*, -25.805*, yaw=330.5°*)
 25: 0x0CD3 [0x47] WAIT_PLAYER_POS_UPDATE
 26: 0x0CD5 [0x01] GOTO 0x0D40
 27: 0x0CD8 [0x02] IF !(ExtData[1]->WorkLocal[32] == 1*) GOTO 0x0CEF
 28: 0x0CE0 [0x47] UPDATE_PLAYER_POS(-332.163*, -441.914*, -95.055*, yaw=330.5°*)
 29: 0x0CEA [0x47] WAIT_PLAYER_POS_UPDATE
 30: 0x0CEC [0x01] GOTO 0x0D40
 31: 0x0CEF [0x02] IF !(ExtData[1]->WorkLocal[32] == 2*) GOTO 0x0D06
 32: 0x0CF7 [0x47] UPDATE_PLAYER_POS(-12.464*, -648.377*, -194.629*, yaw=331.3°*)
 33: 0x0D01 [0x47] WAIT_PLAYER_POS_UPDATE
 34: 0x0D03 [0x01] GOTO 0x0D40
 35: 0x0D06 [0x02] IF !(ExtData[1]->WorkLocal[32] == 3*) GOTO 0x0D1D
 36: 0x0D0E [0x47] UPDATE_PLAYER_POS(323.381*, -443.793*, -108.440*, yaw=329.1°*)
 37: 0x0D18 [0x47] WAIT_PLAYER_POS_UPDATE
 38: 0x0D1A [0x01] GOTO 0x0D40
 39: 0x0D1D [0x02] IF !(ExtData[1]->WorkLocal[32] == 4*) GOTO 0x0D34
 40: 0x0D25 [0x47] UPDATE_PLAYER_POS(599.907*, -676.969*, -22.473*, yaw=330.7°*)
 41: 0x0D2F [0x47] WAIT_PLAYER_POS_UPDATE
 42: 0x0D31 [0x01] GOTO 0x0D40
 43: 0x0D34 [0x47] UPDATE_PLAYER_POS(-700.000*, -335.000*, -17.600*, yaw=90.0°*)
 44: 0x0D3E [0x47] WAIT_PLAYER_POS_UPDATE

SUBROUTINE_0D40:
 45: 0x0D40 [0x01] GOTO 0x0D7D
 46: 0x0D43 [0x02] IF !(ExtData[1]->WorkLocal[31] == 168*) GOTO 0x0D71
 47: 0x0D4B [0x02] IF !(ExtData[1]->WorkLocal[24] == 0*) GOTO 0x0D62
 48: 0x0D53 [0x47] UPDATE_PLAYER_POS(-700.000*, -335.000*, -17.600*, yaw=90.0°*)
 49: 0x0D5D [0x47] WAIT_PLAYER_POS_UPDATE
 50: 0x0D5F [0x01] GOTO 0x0D6E
 51: 0x0D62 [0x47] UPDATE_PLAYER_POS(200.059*, -21.958*, -0.250*, yaw=91.5°*)
 52: 0x0D6C [0x47] WAIT_PLAYER_POS_UPDATE

SUBROUTINE_0D6E:
 53: 0x0D6E [0x01] GOTO 0x0D7D
 54: 0x0D71 [0x47] UPDATE_PLAYER_POS(-700.000*, -335.000*, -17.600*, yaw=90.0°*)
 55: 0x0D7B [0x47] WAIT_PLAYER_POS_UPDATE

SUBROUTINE_0D7D:
 56: 0x0D7D [0x38] SET_CLIENT_EVENT_MODE(mode=19*)
 57: 0x0D80 [0x02] IF !(ExtData[1]->WorkLocal[22] == 2*) GOTO 0x0D8B
 58: 0x0D88 [0x01] GOTO 0x0DA6
 59: 0x0D8B [0x02] IF !(ExtData[1]->WorkLocal[22] == 1*) GOTO 0x0E56
 60: 0x0D93 [0x1C] WAIT(15* ticks)
 61: 0x0D96 [0x24] CREATE_DIALOG(message_id=7647*, default_option=1*, option_flags=0*)
    → "Skip the event? [Yes./No.]"
 62: 0x0D9D [0x25] WAIT_DIALOG_SELECT()
 63: 0x0D9E [0x02] IF !(Work_Zone[0] == 0*) GOTO 0x0E56

SUBROUTINE_0DA6:
 64: 0x0DA6 [0x02] IF !(ExtData[1]->WorkLocal[31] == 180*) GOTO 0x0E12
 65: 0x0DAE [0x02] IF !(ExtData[1]->WorkLocal[32] == 0*) GOTO 0x0DC0
 66: 0x0DB6 [0x36] SET_ENTITY_EVENT_POSITION(pos_x=-618.329*, pos_z=-643.868*, pos_y=-25.805*)
 67: 0x0DBD [0x01] GOTO 0x0E0F
 68: 0x0DC0 [0x02] IF !(ExtData[1]->WorkLocal[32] == 1*) GOTO 0x0DD2
 69: 0x0DC8 [0x36] SET_ENTITY_EVENT_POSITION(pos_x=-332.163*, pos_z=-441.914*, pos_y=-95.055*)
 70: 0x0DCF [0x01] GOTO 0x0E0F
 71: 0x0DD2 [0x02] IF !(ExtData[1]->WorkLocal[32] == 2*) GOTO 0x0DE4
 72: 0x0DDA [0x36] SET_ENTITY_EVENT_POSITION(pos_x=-12.464*, pos_z=-648.377*, pos_y=-194.629*)
 73: 0x0DE1 [0x01] GOTO 0x0E0F
 74: 0x0DE4 [0x02] IF !(ExtData[1]->WorkLocal[32] == 3*) GOTO 0x0DF6
 75: 0x0DEC [0x36] SET_ENTITY_EVENT_POSITION(pos_x=323.381*, pos_z=-443.793*, pos_y=-108.440*)
 76: 0x0DF3 [0x01] GOTO 0x0E0F
 77: 0x0DF6 [0x02] IF !(ExtData[1]->WorkLocal[32] == 4*) GOTO 0x0E08
 78: 0x0DFE [0x36] SET_ENTITY_EVENT_POSITION(pos_x=599.907*, pos_z=-676.969*, pos_y=-22.473*)
 79: 0x0E05 [0x01] GOTO 0x0E0F
 80: 0x0E08 [0x36] SET_ENTITY_EVENT_POSITION(pos_x=-700.000*, pos_z=-335.000*, pos_y=-17.600*)

SUBROUTINE_0E0F:
 81: 0x0E0F [0x01] GOTO 0x0E1B
 82: 0x0E12 [0x37] UPDATE_EVENT_POSITION_AND_DIR: x=-700.000*, z=-335.000*, y=-17.600*, direction=90.0°*

SUBROUTINE_0E1B:
 83: 0x0E1B [0x80] LOAD_WAIT(entity=LocalPlayer)
 84: 0x0E20 [0x62] LOAD_EVENT_SCHEDULER: Load scheduler "main" with entities [LocalPlayer, LocalPlayer], work=[2*, 0*]
 85: 0x0E31 [0x45] LOAD_SCHEDULED_TASK: Load scheduler "fdi2" with entities [LocalPlayer, LocalPlayer], work=[200*, 0*]
 86: 0x0E42 [0x46] CAMERA_CONTROL: Query status
 87: 0x0E44 [0x12] 0x0200 = rand()
 88: 0x0E47 [0x12] 0x0100 = rand()
 89: 0x0E4A [0x80] LOAD_WAIT(entity=Unknown NPC (ID: 1175343104/0x460E5000))
 90: 0x0E4F [0x00] END_REQSTACK()

SUBROUTINE_0E56:
 91: 0x0E56 [0x02] IF !(ExtData[1]->WorkLocal[22] < 4294967295*) GOTO 0x0E6F
 92: 0x0E5E [0x5C] MUSIC_CONTROL: Set Idle (Day) music to song 217*
 93: 0x0E62 [0x5C] MUSIC_CONTROL: Set Idle (Night) music to song 217*
 94: 0x0E66 [0x5C] MUSIC_CONTROL: Set Combat (Solo) music to song 217*
 95: 0x0E6A [0x5C] MUSIC_CONTROL: Set Combat (Party) music to song 217*
 96: 0x0E6E [0x9A] WAIT_MUSIC_SERVER()
 97: 0x0E6F [0x1A] CALL_SUBROUTINE(address=0x2D72)
 98: 0x0E72 [0x02] IF !(ExtData[1]->WorkLocal[22] >= 0*) GOTO 0x0E7D
 99: 0x0E7A [0x01] GOTO 0x0EF8

SUBROUTINE_0E7D:
100: 0x0E7D [0x03] Work_Zone[5] = ExtData[1]->WorkLocal[26]
101: 0x0E82 [0x02] IF !(Work_Zone[5] <= 0*) GOTO 0x0EF8
102: 0x0E8A [0x02] IF !(Work_Zone[5] < 60*) GOTO 0x0EA5
103: 0x0E92 [0x3F] Work_Zone[4] = Work_Zone[5] % 60*
104: 0x0E99 [0x15] Work_Zone[5] /= 60*
105: 0x0E9E [0x48] [System] [7649*]:
    → "Battlefield clear time: $3 minute[/s], $2 second[/s]!"
106: 0x0EA1 [0x23] WAIT_FOR_DIALOG_INTERACTION
107: 0x0EA2 [0x01] GOTO 0x0EA9
108: 0x0EA5 [0x48] [System] [7648*]:
    → "Battlefield clear time: $3 second[/s]!"
109: 0x0EA8 [0x23] WAIT_FOR_DIALOG_INTERACTION

SUBROUTINE_0EA9:
110: 0x0EA9 [0x02] IF !(ExtData[1]->WorkLocal[26] > ExtData[1]->WorkLocal[25]) GOTO 0x0ED7
111: 0x0EB1 [0x03] Work_Zone[7] = ExtData[1]->WorkLocal[24]
112: 0x0EB6 [0x02] IF !(Work_Zone[6] == 0*) GOTO 0x0EC5
113: 0x0EBE [0x48] [System] [7681*]:
    → "You have broken the clear time record for "[When Wills Collide/Maiden of the Dusk/Champion of the Dawn/A Forbidden Reunion/]"!"
114: 0x0EC1 [0x23] WAIT_FOR_DIALOG_INTERACTION
115: 0x0EC2 [0x01] GOTO 0x0ED4
116: 0x0EC5 [0x02] IF !(Work_Zone[6] == 1*) GOTO 0x0ED4
117: 0x0ECD [0x48] [System] [7685*]:
    → "You have broken the clear time record for "[When Wills Collide/Maiden of the Dusk/The Dawn Also Rises/A Forbidden Reunion/]"!"
118: 0x0ED0 [0x23] WAIT_FOR_DIALOG_INTERACTION
119: 0x0ED1 [0x01] GOTO 0x0ED4

SUBROUTINE_0ED4:
120: 0x0ED4 [0x01] GOTO 0x0EF8
121: 0x0ED7 [0x02] IF !(ExtData[1]->WorkLocal[25] < 60*) GOTO 0x0EF3
122: 0x0EDF [0x03] Work_Zone[5] = ExtData[1]->WorkLocal[25]
123: 0x0EE4 [0x3F] Work_Zone[4] = Work_Zone[5] % 60*
124: 0x0EEB [0x15] Work_Zone[5] /= 60*
125: 0x0EF0 [0x01] GOTO 0x0EF8
126: 0x0EF3 [0x03] Work_Zone[5] = ExtData[1]->WorkLocal[25]

SUBROUTINE_0EF8:
127: 0x0EF8 [0x02] IF !(ExtData[1]->WorkLocal[23] == 0*) GOTO 0x0F10
128: 0x0F00 [0x5C] MUSIC_CONTROL: Set Idle (Day) music to song 0*
129: 0x0F04 [0x5C] MUSIC_CONTROL: Set Idle (Night) music to song 0*
130: 0x0F08 [0x5C] MUSIC_CONTROL: Set Combat (Solo) music to song 217*
131: 0x0F0C [0x5C] MUSIC_CONTROL: Set Combat (Party) music to song 217*
132: 0x0F10 [0x02] IF !(ExtData[1]->WorkLocal[22] >= 0*) GOTO 0x0F39
133: 0x0F18 [0x45] LOAD_SCHEDULED_TASK: Load scheduler "fdi2" with entities [LocalPlayer, LocalPlayer], work=[200*, 0*]
134: 0x0F29 [0x5C] MUSIC_CONTROL: Set Idle (Day) music to song 0*
135: 0x0F2D [0x5C] MUSIC_CONTROL: Set Idle (Night) music to song 0*
136: 0x0F31 [0x5C] MUSIC_CONTROL: Set Combat (Solo) music to song 217*
137: 0x0F35 [0x5C] MUSIC_CONTROL: Set Combat (Party) music to song 217*
138: 0x0F39 [0x06] ExtData[1]->WorkLocal[23] = 0
139: 0x0F3C [0x45] LOAD_SCHEDULED_TASK: Load scheduler "whi1" with entities [LocalPlayer, LocalPlayer], work=[201*, 0*]
140: 0x0F4D [0x45] LOAD_SCHEDULED_TASK: Load scheduler "blof" with entities [LocalPlayer, LocalPlayer], work=[200*, 0*]
141: 0x0F5E [0x21] END_EVENT
142: 0x0F5F [0x00] END_REQSTACK()
```

#### Data or dead code:

```
# Dead code (unreachable instructions):
     0x0E50 [0x01] GOTO 0x0E7D
     0x0E53 [0x01] GOTO 0x0E56
```

### Event 32003

#### Metadata

| Field        | Value     |
|--------------|-----------|
| Entrypoint   | 0x0F60    |
| Data Size    | 435 bytes |
| Instructions | 77        |

```
      00 01 02 03 04 05 06 07  08 09 0A 0B 0C 0D 0E 0F
      -- -- -- -- -- -- -- --  -- -- -- -- -- -- -- --
0F60: 06 1C 00 06 1D 00 03 20  00 06 10 03 1F 00 07 10  ....... ........
0F70: 03 1E 00 08 10 06 01 10  1A 36 2E 02 1C 00 05 80  .........6......
0F80: 00 11 11 42 03 01 10 0D  80 43 00 43 01 03 01 10  ...B.....C.C....
0F90: 0E 80 43 00 43 01 1A 4D  2E 02 1D 00 05 80 00 11  ..C.C..M........
0FA0: 11 45 00 80 F0 FF FF 7F  F0 FF FF 7F 66 64 6F 31  .E..........fdo1
0FB0: 01 80 55 00 80 F0 FF FF  7F F0 FF FF 7F 66 64 6F  ..U..........fdo
0FC0: 31 03 01 10 0F 80 02 1F  00 38 80 80 50 10 02 20  1........8..P.. 
0FD0: 00 01 80 80 E5 0F 47 00  39 80 3A 80 3B 80 3C 80  ......G.9.:.;.<.
0FE0: 47 01 01 4D 10 02 20 00  05 80 80 FC 0F 47 00 3D  G..M.. ......G.=
0FF0: 80 3E 80 3F 80 40 80 47  01 01 4D 10 02 20 00 0D  .>.?.@.G..M.. ..
1000: 80 80 13 10 47 00 41 80  42 80 43 80 44 80 47 01  ....G.A.B.C.D.G.
1010: 01 4D 10 02 20 00 0E 80  80 2A 10 47 00 45 80 46  .M.. ....*.G.E.F
1020: 80 47 80 48 80 47 01 01  4D 10 02 20 00 0F 80 80  .G.H.G..M.. ....
1030: 41 10 47 00 49 80 4A 80  4B 80 4C 80 47 01 01 4D  A.G.I.J.K.L.G..M
1040: 10 47 00 16 80 4D 80 4E  80 4F 80 47 01 01 CF 10  .G...M.N.O.G....
1050: 02 1F 00 1F 80 80 C3 10  02 1E 00 05 80 80 6F 10  ..............o.
1060: 47 00 50 80 51 80 52 80  53 80 47 01 01 C0 10 02  G.P.Q.R.S.G.....
1070: 1E 00 0D 80 80 86 10 47  00 54 80 55 80 56 80 57  .......G.T.U.V.W
1080: 80 47 01 01 C0 10 02 1E  00 0E 80 80 9D 10 47 00  .G............G.
1090: 58 80 59 80 5A 80 5B 80  47 01 01 C0 10 02 1E 00  X.Y.Z.[.G.......
10A0: 0F 80 80 B4 10 47 00 5C  80 5D 80 5E 80 5F 80 47  .....G.\.].^._.G
10B0: 01 01 C0 10 47 00 16 80  4D 80 4E 80 4F 80 47 01  ....G...M.N.O.G.
10C0: 01 CF 10 47 00 16 80 4D  80 4E 80 4F 80 47 01 38  ...G...M.N.O.G.8
10D0: 12 80 79 00 F0 FF FF 7F  F0 FF FF 7F 1A 51 2E 45  ..y..........Q.E
10E0: 37 80 F0 FF FF 7F F0 FF  FF 7F 77 68 69 31 01 80  7.........whi1..
10F0: 45 00 80 F0 FF FF 7F F0  FF FF 7F 62 6C 6F 66 01  E..........blof.
1100: 80 5C 00 01 80 5C 01 01  80 5C 02 34 80 5C 03 34  .\...\...\.4.\.4
1110: 80 21 00                                          .!.             
```

#### Opcodes

```
  0: 0x0F60 [0x06] ExtData[1]->WorkLocal[28] = 0
  1: 0x0F63 [0x06] ExtData[1]->WorkLocal[29] = 0
  2: 0x0F66 [0x03] ExtData[1]->WorkLocal[32] = Work_Zone[6]
  3: 0x0F6B [0x03] ExtData[1]->WorkLocal[31] = Work_Zone[7]
  4: 0x0F70 [0x03] ExtData[1]->WorkLocal[30] = Work_Zone[8]
  5: 0x0F75 [0x06] Work_Zone[1] = 0
  6: 0x0F78 [0x1A] CALL_SUBROUTINE(address=0x2E36)
  7: 0x0F7B [0x02] IF !(ExtData[1]->WorkLocal[28] == 1*) GOTO 0x1111
  8: 0x0F83 [0x42] SET_CLI_EVENT_CANCEL_DATA()
  9: 0x0F84 [0x03] Work_Zone[1] = 2*
 10: 0x0F89 [0x43] SEND_EVENT_UPDATE: Send pending tag to server (packet 0x005B)
 11: 0x0F8B [0x43] SEND_EVENT_UPDATE: Check pending flag (skip if not pending)
 12: 0x0F8D [0x03] Work_Zone[1] = 3*
 13: 0x0F92 [0x43] SEND_EVENT_UPDATE: Send pending tag to server (packet 0x005B)
 14: 0x0F94 [0x43] SEND_EVENT_UPDATE: Check pending flag (skip if not pending)
 15: 0x0F96 [0x1A] CALL_SUBROUTINE(address=0x2E4D)
 16: 0x0F99 [0x02] IF !(ExtData[1]->WorkLocal[29] == 1*) GOTO 0x1111
 17: 0x0FA1 [0x45] LOAD_SCHEDULED_TASK: Load scheduler "fdo1" with entities [LocalPlayer, LocalPlayer], work=[200*, 0*]
 18: 0x0FB2 [0x55] WAIT_LOAD_SCHEDULER: Wait for scheduler "fdo1" with entities [LocalPlayer, LocalPlayer], work=200*
 19: 0x0FC1 [0x03] Work_Zone[1] = 4*
 20: 0x0FC6 [0x02] IF !(ExtData[1]->WorkLocal[31] == 180*) GOTO 0x1050
 21: 0x0FCE [0x02] IF !(ExtData[1]->WorkLocal[32] == 0*) GOTO 0x0FE5
 22: 0x0FD6 [0x47] UPDATE_PLAYER_POS(-605.141*, 479.929*, -22.681*, yaw=87.2°*)
 23: 0x0FE0 [0x47] WAIT_PLAYER_POS_UPDATE
 24: 0x0FE2 [0x01] GOTO 0x104D
 25: 0x0FE5 [0x02] IF !(ExtData[1]->WorkLocal[32] == 1*) GOTO 0x0FFC
 26: 0x0FED [0x47] UPDATE_PLAYER_POS(-262.589*, 377.857*, -137.313*, yaw=305.3°*)
 27: 0x0FF7 [0x47] WAIT_PLAYER_POS_UPDATE
 28: 0x0FF9 [0x01] GOTO 0x104D
 29: 0x0FFC [0x02] IF !(ExtData[1]->WorkLocal[32] == 2*) GOTO 0x1013
 30: 0x1004 [0x47] UPDATE_PLAYER_POS(18.348*, 486.940*, -224.334*, yaw=17.1°*)
 31: 0x100E [0x47] WAIT_PLAYER_POS_UPDATE
 32: 0x1010 [0x01] GOTO 0x104D
 33: 0x1013 [0x02] IF !(ExtData[1]->WorkLocal[32] == 3*) GOTO 0x102A
 34: 0x101B [0x47] UPDATE_PLAYER_POS(231.593*, 360.094*, -173.572*, yaw=160.8°*)
 35: 0x1025 [0x47] WAIT_PLAYER_POS_UPDATE
 36: 0x1027 [0x01] GOTO 0x104D
 37: 0x102A [0x02] IF !(ExtData[1]->WorkLocal[32] == 4*) GOTO 0x1041
 38: 0x1032 [0x47] UPDATE_PLAYER_POS(553.664*, 523.939*, -38.205*, yaw=233.9°*)
 39: 0x103C [0x47] WAIT_PLAYER_POS_UPDATE
 40: 0x103E [0x01] GOTO 0x104D
 41: 0x1041 [0x47] UPDATE_PLAYER_POS(-700.000*, -335.000*, -17.600*, yaw=90.0°*)
 42: 0x104B [0x47] WAIT_PLAYER_POS_UPDATE

SUBROUTINE_104D:
 43: 0x104D [0x01] GOTO 0x10CF
 44: 0x1050 [0x02] IF !(ExtData[1]->WorkLocal[31] == 6*) GOTO 0x10C3
 45: 0x1058 [0x02] IF !(ExtData[1]->WorkLocal[30] == 1*) GOTO 0x106F
 46: 0x1060 [0x47] UPDATE_PLAYER_POS(-875.117*, -43.892*, -48.084*, yaw=45.1°*)
 47: 0x106A [0x47] WAIT_PLAYER_POS_UPDATE
 48: 0x106C [0x01] GOTO 0x10C0
 49: 0x106F [0x02] IF !(ExtData[1]->WorkLocal[30] == 2*) GOTO 0x1086
 50: 0x1077 [0x47] UPDATE_PLAYER_POS(-755.499*, 563.947*, -112.035*, yaw=313.5°*)
 51: 0x1081 [0x47] WAIT_PLAYER_POS_UPDATE
 52: 0x1083 [0x01] GOTO 0x10C0
 53: 0x1086 [0x02] IF !(ExtData[1]->WorkLocal[30] == 3*) GOTO 0x109D
 54: 0x108E [0x47] UPDATE_PLAYER_POS(123.251*, 754.209*, -172.124*, yaw=38.7°*)
 55: 0x1098 [0x47] WAIT_PLAYER_POS_UPDATE
 56: 0x109A [0x01] GOTO 0x10C0
 57: 0x109D [0x02] IF !(ExtData[1]->WorkLocal[30] == 4*) GOTO 0x10B4
 58: 0x10A5 [0x47] UPDATE_PLAYER_POS(-516.404*, -803.323*, 24.206*, yaw=38.4°*)
 59: 0x10AF [0x47] WAIT_PLAYER_POS_UPDATE
 60: 0x10B1 [0x01] GOTO 0x10C0
 61: 0x10B4 [0x47] UPDATE_PLAYER_POS(-700.000*, -335.000*, -17.600*, yaw=90.0°*)
 62: 0x10BE [0x47] WAIT_PLAYER_POS_UPDATE

SUBROUTINE_10C0:
 63: 0x10C0 [0x01] GOTO 0x10CF
 64: 0x10C3 [0x47] UPDATE_PLAYER_POS(-700.000*, -335.000*, -17.600*, yaw=90.0°*)
 65: 0x10CD [0x47] WAIT_PLAYER_POS_UPDATE

SUBROUTINE_10CF:
 66: 0x10CF [0x38] SET_CLIENT_EVENT_MODE(mode=19*)
 67: 0x10D2 [0x79] LocalPlayer looks at LocalPlayer (Basic look)
 68: 0x10DC [0x1A] CALL_SUBROUTINE(address=0x2E51)
 69: 0x10DF [0x45] LOAD_SCHEDULED_TASK: Load scheduler "whi1" with entities [LocalPlayer, LocalPlayer], work=[201*, 0*]
 70: 0x10F0 [0x45] LOAD_SCHEDULED_TASK: Load scheduler "blof" with entities [LocalPlayer, LocalPlayer], work=[200*, 0*]
 71: 0x1101 [0x5C] MUSIC_CONTROL: Set Idle (Day) music to song 0*
 72: 0x1105 [0x5C] MUSIC_CONTROL: Set Idle (Night) music to song 0*
 73: 0x1109 [0x5C] MUSIC_CONTROL: Set Combat (Solo) music to song 217*
 74: 0x110D [0x5C] MUSIC_CONTROL: Set Combat (Party) music to song 217*
 75: 0x1111 [0x21] END_EVENT
 76: 0x1112 [0x00] END_REQSTACK()
```

### Event 32004

#### Metadata

| Field        | Value      |
|--------------|------------|
| Entrypoint   | 0x1113     |
| Data Size    | 3143 bytes |
| Instructions | 328        |

```
      00 01 02 03 04 05 06 07  08 09 0A 0B 0C 0D 0E 0F
      -- -- -- -- -- -- -- --  -- -- -- -- -- -- -- --
1110:          03 21 00 02 10  03 22 00 03 10 03 1E 00     .!...."......
1120: 04 10 03 23 00 05 10 42  1A 73 2F 20 01 46 01 5D  ...#...B.s/ .F.]
1130: 01 80 02 80 38 12 80 79  00 F0 FF FF 7F F0 FF FF  ....8..y........
1140: 7F 02 23 00 01 80 00 4C  11 1C 7F 80 02 1E 00 05  ..#....L........
1150: 80 80 57 11 01 57 11 1A  04 1E 1C 06 80 5E 69 64  ..W..W.......^id
1160: 6C 30 03 02 10 07 7F 03  24 00 02 10 27 10 67 62  l0......$...'.gb
1170: 0B 01 04 27 10 68 62 0B  01 04 27 10 64 62 0B 01  ...'.hb...'.db..
1180: 04 27 10 65 62 0B 01 04  27 10 58 62 0B 01 14 27  .'.eb...'.Xb...'
1190: 10 62 62 0B 01 02 27 10  59 62 0B 01 09 92 01 67  .bb...'.Yb.....g
11A0: 62 0B 01 92 01 68 62 0B  01 92 01 64 62 0B 01 92  b....hb....db...
11B0: 01 65 62 0B 01 92 01 58  62 0B 01 92 01 62 62 0B  .eb....Xb....bb.
11C0: 01 92 01 59 62 0B 01 94  01 67 62 0B 01 94 01 68  ...Yb....gb....h
11D0: 62 0B 01 94 01 64 62 0B  01 94 01 65 62 0B 01 94  b....db....eb...
11E0: 01 58 62 0B 01 94 01 F0  FF FF 7F 94 01 62 62 0B  .Xb..........bb.
11F0: 01 94 01 59 62 0B 01 59  05 62 62 0B 01 01 59 05  ...Yb..Y.bb...Y.
1200: 58 62 0B 01 01 59 05 59  62 0B 01 01 BA 67 62 0B  Xb...Y.Yb....gb.
1210: 01 80 80 81 80 82 80 4F  80 BA 68 62 0B 01 83 80  .......O..hb....
1220: 84 80 82 80 4F 80 BA 64  62 0B 01 80 80 81 80 82  ....O..db.......
1230: 80 4F 80 BA 65 62 0B 01  83 80 84 80 82 80 4F 80  .O..eb........O.
1240: BA 58 62 0B 01 85 80 86  80 87 80 88 80 BA 59 62  .Xb...........Yb
1250: 0B 01 85 80 86 80 87 80  88 80 BA F0 FF FF 7F 89  ................
1260: 80 8A 80 82 80 8B 80 59  05 62 62 0B 01 01 BA 62  .......Y.bb....b
1270: 62 0B 01 01 80 01 80 01  80 01 80 80 58 62 0B 01  b...........Xb..
1280: 80 F0 FF FF 7F 80 67 62  0B 01 80 64 62 0B 01 80  ......gb...db...
1290: 68 62 0B 01 80 65 62 0B  01 80 62 62 0B 01 1C 03  hb...eb...bb....
12A0: 80 81 00 67 62 0B 01 81  00 64 62 0B 01 7C 00 64  ...gb....db..|.d
12B0: 62 0B 01 81 00 68 62 0B  01 7C 00 68 62 0B 01 81  b....hb..|.hb...
12C0: 00 65 62 0B 01 7C 00 65  62 0B 01 4A F0 FF FF 7F  .eb..|.eb..J....
12D0: 67 62 0B 01 6F 76 F0 FF  FF 7F 5C 00 01 80 5C 01  gb..ov....\...\.
12E0: 01 80 5C 02 01 80 5C 03  01 80 9A 5B 8C 80 64 62  ..\...\....[..db
12F0: 0B 01 64 62 0B 01 00 FE  FE FE 5B 8D 80 67 62 0B  ..db......[..gb.
1300: 01 67 62 0B 01 00 FE FE  FE 5B 8E 80 67 62 0B 01  .gb......[..gb..
1310: 67 62 0B 01 00 FE FE FE  1C 0C 80 AB 03 AC 01 05  gb..............
1320: 80 27 10 65 62 0B 01 09  5B 8F 80 58 62 0B 01 58  .'.eb...[..Xb..X
1330: 62 0B 01 66 65 30 30 5B  90 80 58 62 0B 01 58 62  b..fe00[..Xb..Xb
1340: 0B 01 75 74 73 30 CD 91  80 59 62 0B 01 59 62 0B  ..uts0...Yb..Yb.
1350: 01 73 30 30 32 01 80 5B  92 80 62 62 0B 01 62 62  .s002..[..bb..bb
1360: 0B 01 74 61 6E 30 5B 93  80 64 62 0B 01 64 62 0B  ..tan0[..db..db.
1370: 01 6C 6C 7A 30 5B 94 80  67 62 0B 01 67 62 0B 01  .llz0[..gb..gb..
1380: 6C 6C 7A 30 1C 02 80 45  95 80 F8 FF FF 7F F8 FF  llz0...E........
1390: FF 7F 79 30 30 30 01 80  1A 52 2F 7C 00 67 62 0B  ..y000...R/|.gb.
13A0: 01 2B 67 62 0B 01 96 80  1C 32 80 52 95 80 F8 FF  .+gb.....2.R....
13B0: FF 7F F8 FF FF 7F 79 30  30 30 45 95 80 F8 FF FF  ......y000E.....
13C0: 7F F8 FF FF 7F 6F 76 34  30 01 80 45 95 80 F8 FF  .....ov40..E....
13D0: FF 7F F8 FF FF 7F 79 30  30 31 01 80 2B 64 62 0B  ......y001..+db.
13E0: 01 97 80 AC 01 01 80 AB  04 1C 98 80 52 95 80 F8  ............R...
13F0: FF FF 7F F8 FF FF 7F 79  30 30 31 45 95 80 F8 FF  .......y001E....
1400: FF 7F F8 FF FF 7F 6F 76  34 30 01 80 45 95 80 F8  ......ov40..E...
1410: FF FF 7F F8 FF FF 7F 79  30 30 32 01 80 2B 58 62  .......y002..+Xb
1420: 0B 01 99 80 1C 9A 80 BA  F0 FF FF 7F 9B 80 9C 80  ................
1430: 82 80 8B 80 1C 9D 80 5B  93 80 64 62 0B 01 64 62  .......[..db..db
1440: 0B 01 6C 6C 7A 31 1C 9A  80 52 95 80 F8 FF FF 7F  ..llz1...R......
1450: F8 FF FF 7F 79 30 30 32  45 95 80 F8 FF FF 7F F8  ....y002E.......
1460: FF FF 7F 79 30 30 33 01  80 1C 9A 80 1C 9D 80 2B  ...y003........+
1470: 64 62 0B 01 9E 80 1C 9F  80 2B 64 62 0B 01 A0 80  db.......+db....
1480: 1C 03 80 52 95 80 F8 FF  FF 7F F8 FF FF 7F 79 30  ...R..........y0
1490: 30 33 45 95 80 F8 FF FF  7F F8 FF FF 7F 6F 76 33  03E..........ov3
14A0: 30 01 80 45 95 80 F8 FF  FF 7F F8 FF FF 7F 79 30  0..E..........y0
14B0: 30 34 01 80 1C 9D 80 5B  94 80 67 62 0B 01 67 62  04.....[..gb..gb
14C0: 0B 01 6C 6C 7A 31 1C 9A  80 45 95 80 F8 FF FF 7F  ..llz1...E......
14D0: F8 FF FF 7F 6B 6C 30 34  01 80 1C 03 80 5B 93 80  ....kl04.....[..
14E0: 64 62 0B 01 64 62 0B 01  6C 6C 7A 32 5B 94 80 67  db..db..llz2[..g
14F0: 62 0B 01 67 62 0B 01 6C  6C 7A 32 45 95 80 F8 FF  b..gb..llz2E....
1500: FF 7F F8 FF FF 7F 79 30  30 36 01 80 1C 21 80 2B  ......y006...!.+
1510: 64 62 0B 01 A1 80 1C 9D  80 5B 94 80 68 62 0B 01  db.......[..hb..
1520: 68 62 0B 01 6C 6C 7A 33  52 95 80 F8 FF FF 7F F8  hb..llz3R.......
1530: FF FF 7F 79 30 30 36 45  95 80 F8 FF FF 7F F8 FF  ...y006E........
1540: FF 7F 79 30 30 37 01 80  1C 9A 80 1A C6 30 52 95  ..y007.......0R.
1550: 80 F8 FF FF 7F F8 FF FF  7F 79 30 30 37 5B 8C 80  .........y007[..
1560: 64 62 0B 01 64 62 0B 01  6C 6C 7A 33 5B A2 80 67  db..db..llz3[..g
1570: 62 0B 01 67 62 0B 01 6C  6C 7A 33 CD A3 80 67 62  b..gb..llz3...gb
1580: 0B 01 67 62 0B 01 73 6C  30 30 01 80 CD A4 80 64  ..gb..sl00.....d
1590: 62 0B 01 64 62 0B 01 73  7A 30 30 01 80 5B 8F 80  b..db..sz00..[..
15A0: 58 62 0B 01 58 62 0B 01  66 30 30 30 5B A5 80 58  Xb..Xb..f000[..X
15B0: 62 0B 01 58 62 0B 01 73  74 70 30 45 95 80 F8 FF  b..Xb..stp0E....
15C0: FF 7F F8 FF FF 7F 30 62  6C 72 01 80 45 95 80 F8  ......0blr..E...
15D0: FF FF 7F F8 FF FF 7F 79  31 30 37 01 80 1A 94 2F  .......y107..../
15E0: 6E F0 FF FF 7F 28 80 99  F0 FF FF 7F 1C 02 80 52  n....(.........R
15F0: 95 80 F8 FF FF 7F F8 FF  FF 7F 79 31 30 37 45 95  ..........y107E.
1600: 80 F8 FF FF 7F F8 FF FF  7F 6F 76 34 30 01 80 45  .........ov40..E
1610: 95 80 F8 FF FF 7F F8 FF  FF 7F 79 30 30 38 01 80  ..........y008..
