# Event 28

## Metadata

| Field           | Value    |
|-----------------|----------|
| Event Index     | 14/92    |
| Offset          | 0x0436   |
| Data Size       | 44 bytes |
| Calculated Size | 44 bytes |
| Instructions    | 12       |

```
      00 01 02 03 04 05 06 07  08 09 0A 0B 0C 0D 0E 0F
      -- -- -- -- -- -- -- --  -- -- -- -- -- -- -- --
0430:                   03 02  00 02 10 1E F0 FF FF 7F        ..........
0440: 6F 70 27 10 17 B0 11 01  58 03 02 00 02 10 1D 28  op'.....X......(
0450: 80 23 27 10 17 B0 11 01  5A 29 10 17 B0 11 01 5B  .#'.....Z).....[
0460: 21 00                                             !.              
```

## Opcodes

```
  0: 0x0436 [0x03] ExtData[1]->WorkLocal[2] = Work_Zone[2]
  1: 0x043B [0x1E] EventEntity looks at LocalPlayer and starts talking
  2: 0x0440 [0x6F] WAIT_FRAME_DELAY: Yield until WaitTime reaches zero
  3: 0x0441 [0x70] WAIT_ENTITY_RENDER_FLAG: Wait while EventEntity->Render.Flags3 bit 2 is set (cancel turn if not)
  4: 0x0442 [0x27] REQ_SET(priority=0x10, entity_id=Gama-Shama (ID: 17936407/0x0111B017), tag_num=0x58)
  5: 0x0449 [0x03] ExtData[1]->WorkLocal[2] = Work_Zone[2]
  6: 0x044E [0x1D] PRINT_EVENT_MESSAGE(message_id=7278*)
    → "Okay! I've got your \u0001\u0005#\u0002\u0000\u0000\u0000 all safe and sound. Make sure to come back tomorrow!\u007F1\u0000\u0007"
  7: 0x0451 [0x23] WAIT_FOR_DIALOG_INTERACTION
  8: 0x0452 [0x27] REQ_SET(priority=0x10, entity_id=Gama-Shama (ID: 17936407/0x0111B017), tag_num=0x5A)
  9: 0x0459 [0x29] REQ_SET_WAIT(priority=0x10, entity_id=Gama-Shama (ID: 17936407/0x0111B017), tag_num=0x5B)
 10: 0x0460 [0x21] END_EVENT
 11: 0x0461 [0x00] END_REQSTACK()
```
