# 17842724 - Rumin-Flumin

## Common Data

| Field            | Value                           |
|------------------|---------------------------------|
| Zone             | Yahse Hunting Grounds (ID: 260) |
| Block Size       | 692 bytes                       |
| Total Events     | 22                              |
| References Count | 21                              |

## List of Events

| Event ID                   | Entrypoint   |   Size |   Instructions |
|----------------------------|--------------|--------|----------------|
| [65535](#event-65535)      | 0x0000       |      1 |              1 |
| [65535.1](#event-655351)   | 0x0001       |     16 |              2 |
| [65535.2](#event-655352)   | 0x0011       |     22 |              4 |
| [65535.3](#event-655353)   | 0x0027       |     16 |              2 |
| [65535.4](#event-655354)   | 0x0037       |     14 |              2 |
| [65535.5](#event-655355)   | 0x0045       |     16 |              2 |
| [65535.6](#event-655356)   | 0x0055       |     14 |              2 |
| [65535.7](#event-655357)   | 0x0063       |     16 |              2 |
| [65535.8](#event-655358)   | 0x0073       |     22 |              4 |
| [65535.9](#event-655359)   | 0x0089       |     16 |              2 |
| [65535.10](#event-6553510) | 0x0099       |     14 |              2 |
| [65535.11](#event-6553511) | 0x00A7       |     16 |              2 |
| [65535.12](#event-6553512) | 0x00B7       |     22 |              4 |
| [65535.13](#event-6553513) | 0x00CD       |     16 |              2 |
| [65535.14](#event-6553514) | 0x00DD       |     14 |              2 |
| [65535.15](#event-6553515) | 0x00EB       |      9 |              3 |
| [65535.16](#event-6553516) | 0x00F4       |      1 |              1 |
| [2550](#event-2550)        | 0x00F5       |     34 |             11 |
| [2551](#event-2551)        | 0x0117       |    135 |             38 |
| [2552](#event-2552)        | 0x019E       |     38 |             13 |
| [2553](#event-2553)        | 0x01C4       |     25 |              9 |
| [2555](#event-2555)        | 0x01DD       |     27 |              9 |

## DAT References (imed_data)

|   Index | Hex Value   |   Dec Value |
|---------|-------------|-------------|
|       0 | 0x0028      |          40 |
|       1 | 0x001E      |          30 |
|       2 | 0x002A      |          42 |
|       3 | 0x0029      |          41 |
|       4 | 0x086D      |        2157 |
|       5 | 0x1D75      |        7541 |
|       6 | 0x08F0      |        2288 |
|       7 | 0x1D76      |        7542 |
|       8 | 0x1D77      |        7543 |
|       9 | 0x1D78      |        7544 |
|      10 | 0x1D79      |        7545 |
|      11 | 0x1D7A      |        7546 |
|      12 | 0x1D7B      |        7547 |
|      13 | 0x1D7C      |        7548 |
|      14 | 0x1D7D      |        7549 |
|      15 | 0x0008      |           8 |
|      16 | 0x1D7E      |        7550 |
|      17 | 0x1D7F      |        7551 |
|      18 | 0x1D80      |        7552 |
|      19 | 0x1D81      |        7553 |
|      20 | 0x1D82      |        7554 |

## String References

- **7541**: I can't entrustaru this task to you without $6. Only a bona fide pioneery-weer could help me.
- **7542**: Have you ever been to the Inventors' Coalition-wition? We make all sorts of goods and contraptions to make life easier. For example...this "$3"!
- **7543**: Placing it next to a swarm of bees will lure them inside and capture their yummy-wummy honey and nectar!
- **7544**: So! I've been collecting the nectar of numbing blossoms, a type of flower known for its paralytic effectarus, from bees located southwest of here.
- **7545**: But wait--there's more! The nectar from those flowers has special-wecial nutrients that we need.
- **7546**: "Why," you ask? These nutrientarus have antitoxin properties that help us resist the pungent fungi that dot the cave floors.
- **7547**: This is where you come in, [Mister/Miss] Pioneer. I want you to helpy-welp us collect some. You will help us, rightaru?
- **7548**: It's simple! Just go to the southwestaru until you come to a dead end and place our secret weapon near the swarm!
- **7549**: Then, kneel down and watch the magic-wagic begin. Wait until...oh, let's say ten bees fly inside, and collect the nectaru!
- **7550**: When that's done, head back to the Scouts' Coalition-wition and hand over your findings to Ndah Tolohjin.
- **7551**: Don't forgetaru--place the $3 near the bee swarm in the dead end toward the southwest.
- **7552**: And remember what I told you about kneeling down and staying perfectly still. That part is really-weally importantaru! When you're done, bring what you catch to Ndah Tolohjin at the Scouts' Coalition.
- **7553**: Did you collectaru what we needed? That's great! Now head over to Ndah Tolohjin. I'm pretty sure she's hanging around in the Scouts' Coalition.
- **7554**: Our research has taken on new forms! Now we're studying the eggs of local crawler-wallers. You think they might lead to new discoveries?

## Events

### Event 65535

#### Metadata

| Field        | Value   |
|--------------|---------|
| Entrypoint   | 0x0000  |
| Data Size    | 1 bytes |
| Instructions | 1       |

```
      00 01 02 03 04 05 06 07  08 09 0A 0B 0C 0D 0E 0F
      -- -- -- -- -- -- -- --  -- -- -- -- -- -- -- --
0000: 00                                                .               
```

#### Opcodes

```
  0: 0x0000 [0x00] END_REQSTACK()
```

### Event 65535.1

#### Metadata

| Field        | Value    |
|--------------|----------|
| Entrypoint   | 0x0001   |
| Data Size    | 16 bytes |
| Instructions | 2        |

```
      00 01 02 03 04 05 06 07  08 09 0A 0B 0C 0D 0E 0F
      -- -- -- -- -- -- -- --  -- -- -- -- -- -- -- --
0000:    66 00 80 F8 FF FF 7F  F8 FF FF 7F 74 6C 6B 30   f..........tlk0
0010: 00                                                .               
```

#### Opcodes

```
  0: 0x0001 [0x66] LOAD_EXT_SCHEDULER_MAIN: Load scheduler "tlk0" with entities [EventEntity, EventEntity], work=40*
  1: 0x0010 [0x00] END_REQSTACK()
```

### Event 65535.2

#### Metadata

| Field        | Value    |
|--------------|----------|
| Entrypoint   | 0x0011   |
| Data Size    | 22 bytes |
| Instructions | 4        |

```
      00 01 02 03 04 05 06 07  08 09 0A 0B 0C 0D 0E 0F
      -- -- -- -- -- -- -- --  -- -- -- -- -- -- -- --
0010:    53 F8 FF FF 7F F8 FF  FF 7F 74 6C 6B 30 5E 69   S........tlk0^i
0020: 64 6C 30 1C 01 80 00                              dl0....         
```

#### Opcodes

```
  0: 0x0011 [0x53] WAIT_SCHEDULER_TASK: Wait for scheduler "tlk0" with entities [EventEntity, EventEntity]
  1: 0x001E [0x5E] EventEntity goes idle (kills current action) (animation: "idl0")
  2: 0x0023 [0x1C] WAIT(30* ticks)
  3: 0x0026 [0x00] END_REQSTACK()
```

### Event 65535.3

#### Metadata

| Field        | Value    |
|--------------|----------|
| Entrypoint   | 0x0027   |
| Data Size    | 16 bytes |
| Instructions | 2        |

```
      00 01 02 03 04 05 06 07  08 09 0A 0B 0C 0D 0E 0F
      -- -- -- -- -- -- -- --  -- -- -- -- -- -- -- --
0020:                      66  00 80 F8 FF FF 7F F8 FF         f........
0030: FF 7F 74 68 6B 31 00                              ..thk1.         
```

#### Opcodes

```
  0: 0x0027 [0x66] LOAD_EXT_SCHEDULER_MAIN: Load scheduler "thk1" with entities [EventEntity, EventEntity], work=40*
  1: 0x0036 [0x00] END_REQSTACK()
```

### Event 65535.4

#### Metadata

| Field        | Value    |
|--------------|----------|
| Entrypoint   | 0x0037   |
| Data Size    | 14 bytes |
| Instructions | 2        |

```
      00 01 02 03 04 05 06 07  08 09 0A 0B 0C 0D 0E 0F
      -- -- -- -- -- -- -- --  -- -- -- -- -- -- -- --
0030:                      53  F8 FF FF 7F F8 FF FF 7F         S........
0040: 74 68 6B 31 00                                    thk1.           
```

#### Opcodes

```
  0: 0x0037 [0x53] WAIT_SCHEDULER_TASK: Wait for scheduler "thk1" with entities [EventEntity, EventEntity]
  1: 0x0044 [0x00] END_REQSTACK()
```

### Event 65535.5

#### Metadata

| Field        | Value    |
|--------------|----------|
| Entrypoint   | 0x0045   |
| Data Size    | 16 bytes |
| Instructions | 2        |

```
      00 01 02 03 04 05 06 07  08 09 0A 0B 0C 0D 0E 0F
      -- -- -- -- -- -- -- --  -- -- -- -- -- -- -- --
0040:                66 00 80  F8 FF FF 7F F8 FF FF 7F       f..........
0050: 74 68 6B 32 00                                    thk2.           
```

#### Opcodes

```
  0: 0x0045 [0x66] LOAD_EXT_SCHEDULER_MAIN: Load scheduler "thk2" with entities [EventEntity, EventEntity], work=40*
  1: 0x0054 [0x00] END_REQSTACK()
```

### Event 65535.6

#### Metadata

| Field        | Value    |
|--------------|----------|
| Entrypoint   | 0x0055   |
| Data Size    | 14 bytes |
| Instructions | 2        |

```
      00 01 02 03 04 05 06 07  08 09 0A 0B 0C 0D 0E 0F
      -- -- -- -- -- -- -- --  -- -- -- -- -- -- -- --
0050:                53 F8 FF  FF 7F F8 FF FF 7F 74 68       S........th
0060: 6B 32 00                                          k2.             
```

#### Opcodes

```
  0: 0x0055 [0x53] WAIT_SCHEDULER_TASK: Wait for scheduler "thk2" with entities [EventEntity, EventEntity]
  1: 0x0062 [0x00] END_REQSTACK()
```

### Event 65535.7

#### Metadata

| Field        | Value    |
|--------------|----------|
| Entrypoint   | 0x0063   |
| Data Size    | 16 bytes |
| Instructions | 2        |

```
      00 01 02 03 04 05 06 07  08 09 0A 0B 0C 0D 0E 0F
      -- -- -- -- -- -- -- --  -- -- -- -- -- -- -- --
0060:          66 02 80 F8 FF  FF 7F F8 FF FF 7F 74 65     f..........te
0070: 68 30 00                                          h0.             
```

#### Opcodes

```
  0: 0x0063 [0x66] LOAD_EXT_SCHEDULER_MAIN: Load scheduler "teh0" with entities [EventEntity, EventEntity], work=42*
  1: 0x0072 [0x00] END_REQSTACK()
```

### Event 65535.8

#### Metadata

| Field        | Value    |
|--------------|----------|
| Entrypoint   | 0x0073   |
| Data Size    | 22 bytes |
| Instructions | 4        |

```
      00 01 02 03 04 05 06 07  08 09 0A 0B 0C 0D 0E 0F
      -- -- -- -- -- -- -- --  -- -- -- -- -- -- -- --
0070:          53 F8 FF FF 7F  F8 FF FF 7F 74 65 68 30     S........teh0
0080: 5E 69 64 6C 30 1C 01 80  00                       ^idl0....       
```

#### Opcodes

```
  0: 0x0073 [0x53] WAIT_SCHEDULER_TASK: Wait for scheduler "teh0" with entities [EventEntity, EventEntity]
  1: 0x0080 [0x5E] EventEntity goes idle (kills current action) (animation: "idl0")
  2: 0x0085 [0x1C] WAIT(30* ticks)
  3: 0x0088 [0x00] END_REQSTACK()
```

### Event 65535.9

#### Metadata

| Field        | Value    |
|--------------|----------|
| Entrypoint   | 0x0089   |
| Data Size    | 16 bytes |
| Instructions | 2        |

```
      00 01 02 03 04 05 06 07  08 09 0A 0B 0C 0D 0E 0F
      -- -- -- -- -- -- -- --  -- -- -- -- -- -- -- --
0080:                             66 00 80 F8 FF FF 7F           f......
0090: F8 FF FF 7F 70 61 73 30  00                       ....pas0.       
```

#### Opcodes

```
  0: 0x0089 [0x66] LOAD_EXT_SCHEDULER_MAIN: Load scheduler "pas0" with entities [EventEntity, EventEntity], work=40*
  1: 0x0098 [0x00] END_REQSTACK()
```

### Event 65535.10

#### Metadata

| Field        | Value    |
|--------------|----------|
| Entrypoint   | 0x0099   |
| Data Size    | 14 bytes |
| Instructions | 2        |

```
      00 01 02 03 04 05 06 07  08 09 0A 0B 0C 0D 0E 0F
      -- -- -- -- -- -- -- --  -- -- -- -- -- -- -- --
0090:                             53 F8 FF FF 7F F8 FF           S......
00A0: FF 7F 70 61 73 30 00                              ..pas0.         
```

#### Opcodes

```
  0: 0x0099 [0x53] WAIT_SCHEDULER_TASK: Wait for scheduler "pas0" with entities [EventEntity, EventEntity]
  1: 0x00A6 [0x00] END_REQSTACK()
```

### Event 65535.11

#### Metadata

| Field        | Value    |
|--------------|----------|
| Entrypoint   | 0x00A7   |
| Data Size    | 16 bytes |
| Instructions | 2        |

```
      00 01 02 03 04 05 06 07  08 09 0A 0B 0C 0D 0E 0F
      -- -- -- -- -- -- -- --  -- -- -- -- -- -- -- --
00A0:                      66  00 80 F8 FF FF 7F F8 FF         f........
00B0: FF 7F 77 61 69 30 00                              ..wai0.         
```

#### Opcodes

```
  0: 0x00A7 [0x66] LOAD_EXT_SCHEDULER_MAIN: Load scheduler "wai0" with entities [EventEntity, EventEntity], work=40*
  1: 0x00B6 [0x00] END_REQSTACK()
```

### Event 65535.12

#### Metadata

| Field        | Value    |
|--------------|----------|
| Entrypoint   | 0x00B7   |
| Data Size    | 22 bytes |
| Instructions | 4        |

```
      00 01 02 03 04 05 06 07  08 09 0A 0B 0C 0D 0E 0F
      -- -- -- -- -- -- -- --  -- -- -- -- -- -- -- --
00B0:                      53  F8 FF FF 7F F8 FF FF 7F         S........
00C0: 77 61 69 30 5E 69 64 6C  30 1C 01 80 00           wai0^idl0....   
```

#### Opcodes

```
  0: 0x00B7 [0x53] WAIT_SCHEDULER_TASK: Wait for scheduler "wai0" with entities [EventEntity, EventEntity]
  1: 0x00C4 [0x5E] EventEntity goes idle (kills current action) (animation: "idl0")
  2: 0x00C9 [0x1C] WAIT(30* ticks)
  3: 0x00CC [0x00] END_REQSTACK()
```

### Event 65535.13

#### Metadata

| Field        | Value    |
|--------------|----------|
| Entrypoint   | 0x00CD   |
| Data Size    | 16 bytes |
| Instructions | 2        |

```
      00 01 02 03 04 05 06 07  08 09 0A 0B 0C 0D 0E 0F
      -- -- -- -- -- -- -- --  -- -- -- -- -- -- -- --
00C0:                                         66 03 80               f..
00D0: F8 FF FF 7F F8 FF FF 7F  65 68 6E 31 00           ........ehn1.   
```

#### Opcodes

```
  0: 0x00CD [0x66] LOAD_EXT_SCHEDULER_MAIN: Load scheduler "ehn1" with entities [EventEntity, EventEntity], work=41*
  1: 0x00DC [0x00] END_REQSTACK()
```

### Event 65535.14

#### Metadata

| Field        | Value    |
|--------------|----------|
| Entrypoint   | 0x00DD   |
| Data Size    | 14 bytes |
| Instructions | 2        |

```
      00 01 02 03 04 05 06 07  08 09 0A 0B 0C 0D 0E 0F
      -- -- -- -- -- -- -- --  -- -- -- -- -- -- -- --
00D0:                                         53 F8 FF               S..
00E0: FF 7F F8 FF FF 7F 65 68  6E 31 00                 ......ehn1.     
```

#### Opcodes

```
  0: 0x00DD [0x53] WAIT_SCHEDULER_TASK: Wait for scheduler "ehn1" with entities [EventEntity, EventEntity]
  1: 0x00EA [0x00] END_REQSTACK()
```

### Event 65535.15

#### Metadata

| Field        | Value   |
|--------------|---------|
| Entrypoint   | 0x00EB  |
| Data Size    | 9 bytes |
| Instructions | 3       |

```
      00 01 02 03 04 05 06 07  08 09 0A 0B 0C 0D 0E 0F
      -- -- -- -- -- -- -- --  -- -- -- -- -- -- -- --
00E0:                                   5E 69 64 6C 30             ^idl0
00F0: 1C 01 80 00                                       ....            
```

#### Opcodes

```
  0: 0x00EB [0x5E] EventEntity goes idle (kills current action) (animation: "idl0")
  1: 0x00F0 [0x1C] WAIT(30* ticks)
  2: 0x00F3 [0x00] END_REQSTACK()
```

### Event 65535.16

#### Metadata

| Field        | Value   |
|--------------|---------|
| Entrypoint   | 0x00F4  |
| Data Size    | 1 bytes |
| Instructions | 1       |

```
      00 01 02 03 04 05 06 07  08 09 0A 0B 0C 0D 0E 0F
      -- -- -- -- -- -- -- --  -- -- -- -- -- -- -- --
00F0:             00                                        .           
```

#### Opcodes

```
  0: 0x00F4 [0x00] END_REQSTACK()
```

### Event 2550

#### Metadata

| Field        | Value    |
|--------------|----------|
| Entrypoint   | 0x00F5   |
| Data Size    | 34 bytes |
| Instructions | 11       |

```
      00 01 02 03 04 05 06 07  08 09 0A 0B 0C 0D 0E 0F
      -- -- -- -- -- -- -- --  -- -- -- -- -- -- -- --
00F0:                1E F0 FF  FF 7F 6F 70 03 02 10 04       .....op....
0100: 80 29 08 24 42 10 01 01  1D 05 80 23 29 08 24 42  .).$B......#).$B
0110: 10 01 02 20 00 21 00                              ... .!.         
```

#### Opcodes

```
  0: 0x00F5 [0x1E] EventEntity looks at LocalPlayer and starts talking
  1: 0x00FA [0x6F] WAIT_FRAME_DELAY: Yield until WaitTime reaches zero
  2: 0x00FB [0x70] WAIT_ENTITY_RENDER_FLAG: Wait while EventEntity->Render.Flags3 bit 2 is set (cancel turn if not)
  3: 0x00FC [0x03] Work_Zone[2] = 2157*
  4: 0x0101 [0x29] REQ_SET_WAIT(priority=0x08, entity_id=Rumin-Flumin (ID: 17842724/0x01104224), tag_num=0x01)
  5: 0x0108 [0x1D] PRINT_EVENT_MESSAGE(message_id=7541*)
    → "I can't entrustaru this task to you without $6. Only a bona fide pioneery-weer could help me."
  6: 0x010B [0x23] WAIT_FOR_DIALOG_INTERACTION
  7: 0x010C [0x29] REQ_SET_WAIT(priority=0x08, entity_id=Rumin-Flumin (ID: 17842724/0x01104224), tag_num=0x02)
  8: 0x0113 [0x20] SET_CLI_EVENT_UC_FLAG: Unlock player control
  9: 0x0115 [0x21] END_EVENT
 10: 0x0116 [0x00] END_REQSTACK()
```

### Event 2551

#### Metadata

| Field        | Value     |
|--------------|-----------|
| Entrypoint   | 0x0117    |
| Data Size    | 135 bytes |
| Instructions | 38        |

```
      00 01 02 03 04 05 06 07  08 09 0A 0B 0C 0D 0E 0F
      -- -- -- -- -- -- -- --  -- -- -- -- -- -- -- --
0110:                      42  1E F0 FF FF 7F 6F 70 29         B.....op)
0120: 08 24 42 10 01 09 03 03  10 06 80 1D 07 80 23 1D  .$B...........#.
0130: 08 80 23 29 08 24 42 10  01 0A 29 08 24 42 10 01  ..#).$B...).$B..
0140: 07 1D 09 80 23 29 08 24  42 10 01 08 29 08 24 42  ....#).$B...).$B
0150: 10 01 0D 1D 0A 80 23 29  08 24 42 10 01 0E 29 08  ......#).$B...).
0160: 24 42 10 01 0B 1D 0B 80  23 1D 0C 80 23 29 08 24  $B......#...#).$
0170: 42 10 01 0C 29 08 24 42  10 01 09 1D 0D 80 23 1D  B...).$B......#.
0180: 0E 80 23 29 08 24 42 10  01 0A 6E F8 FF FF 7F 0F  ..#).$B...n.....
0190: 80 99 F8 FF FF 7F 1D 10  80 23 20 00 21 00        .........# .!.  
```

#### Opcodes

```
  0: 0x0117 [0x42] SET_CLI_EVENT_CANCEL_DATA()
  1: 0x0118 [0x1E] EventEntity looks at LocalPlayer and starts talking
  2: 0x011D [0x6F] WAIT_FRAME_DELAY: Yield until WaitTime reaches zero
  3: 0x011E [0x70] WAIT_ENTITY_RENDER_FLAG: Wait while EventEntity->Render.Flags3 bit 2 is set (cancel turn if not)
  4: 0x011F [0x29] REQ_SET_WAIT(priority=0x08, entity_id=Rumin-Flumin (ID: 17842724/0x01104224), tag_num=0x09)
  5: 0x0126 [0x03] Work_Zone[3] = 2288*
  6: 0x012B [0x1D] PRINT_EVENT_MESSAGE(message_id=7542*)
    → "Have you ever been to the Inventors' Coalition-wition? We make all sorts of goods and contraptions to make life easier. For example...this "$3"!"
  7: 0x012E [0x23] WAIT_FOR_DIALOG_INTERACTION
  8: 0x012F [0x1D] PRINT_EVENT_MESSAGE(message_id=7543*)
    → "Placing it next to a swarm of bees will lure them inside and capture their yummy-wummy honey and nectar!"
  9: 0x0132 [0x23] WAIT_FOR_DIALOG_INTERACTION
 10: 0x0133 [0x29] REQ_SET_WAIT(priority=0x08, entity_id=Rumin-Flumin (ID: 17842724/0x01104224), tag_num=0x0A)
 11: 0x013A [0x29] REQ_SET_WAIT(priority=0x08, entity_id=Rumin-Flumin (ID: 17842724/0x01104224), tag_num=0x07)
 12: 0x0141 [0x1D] PRINT_EVENT_MESSAGE(message_id=7544*)
    → "So! I've been collecting the nectar of numbing blossoms, a type of flower known for its paralytic effectarus, from bees located southwest of here."
 13: 0x0144 [0x23] WAIT_FOR_DIALOG_INTERACTION
 14: 0x0145 [0x29] REQ_SET_WAIT(priority=0x08, entity_id=Rumin-Flumin (ID: 17842724/0x01104224), tag_num=0x08)
 15: 0x014C [0x29] REQ_SET_WAIT(priority=0x08, entity_id=Rumin-Flumin (ID: 17842724/0x01104224), tag_num=0x0D)
 16: 0x0153 [0x1D] PRINT_EVENT_MESSAGE(message_id=7545*)
    → "But wait--there's more! The nectar from those flowers has special-wecial nutrients that we need."
 17: 0x0156 [0x23] WAIT_FOR_DIALOG_INTERACTION
 18: 0x0157 [0x29] REQ_SET_WAIT(priority=0x08, entity_id=Rumin-Flumin (ID: 17842724/0x01104224), tag_num=0x0E)
 19: 0x015E [0x29] REQ_SET_WAIT(priority=0x08, entity_id=Rumin-Flumin (ID: 17842724/0x01104224), tag_num=0x0B)
 20: 0x0165 [0x1D] PRINT_EVENT_MESSAGE(message_id=7546*)
    → ""Why," you ask? These nutrientarus have antitoxin properties that help us resist the pungent fungi that dot the cave floors."
 21: 0x0168 [0x23] WAIT_FOR_DIALOG_INTERACTION
 22: 0x0169 [0x1D] PRINT_EVENT_MESSAGE(message_id=7547*)
    → "This is where you come in, [Mister/Miss] Pioneer. I want you to helpy-welp us collect some. You will help us, rightaru?"
 23: 0x016C [0x23] WAIT_FOR_DIALOG_INTERACTION
 24: 0x016D [0x29] REQ_SET_WAIT(priority=0x08, entity_id=Rumin-Flumin (ID: 17842724/0x01104224), tag_num=0x0C)
 25: 0x0174 [0x29] REQ_SET_WAIT(priority=0x08, entity_id=Rumin-Flumin (ID: 17842724/0x01104224), tag_num=0x09)
 26: 0x017B [0x1D] PRINT_EVENT_MESSAGE(message_id=7548*)
    → "It's simple! Just go to the southwestaru until you come to a dead end and place our secret weapon near the swarm!"
 27: 0x017E [0x23] WAIT_FOR_DIALOG_INTERACTION
 28: 0x017F [0x1D] PRINT_EVENT_MESSAGE(message_id=7549*)
    → "Then, kneel down and watch the magic-wagic begin. Wait until...oh, let's say ten bees fly inside, and collect the nectaru!"
 29: 0x0182 [0x23] WAIT_FOR_DIALOG_INTERACTION
 30: 0x0183 [0x29] REQ_SET_WAIT(priority=0x08, entity_id=Rumin-Flumin (ID: 17842724/0x01104224), tag_num=0x0A)
 31: 0x018A [0x6E] EventEntity uses emote 8*
 32: 0x0191 [0x99] Wait for EventEntity animation to complete
 33: 0x0196 [0x1D] PRINT_EVENT_MESSAGE(message_id=7550*)
    → "When that's done, head back to the Scouts' Coalition-wition and hand over your findings to Ndah Tolohjin."
 34: 0x0199 [0x23] WAIT_FOR_DIALOG_INTERACTION
 35: 0x019A [0x20] SET_CLI_EVENT_UC_FLAG: Unlock player control
 36: 0x019C [0x21] END_EVENT
 37: 0x019D [0x00] END_REQSTACK()
```

### Event 2552

#### Metadata

| Field        | Value    |
|--------------|----------|
| Entrypoint   | 0x019E   |
| Data Size    | 38 bytes |
| Instructions | 13       |

```
      00 01 02 03 04 05 06 07  08 09 0A 0B 0C 0D 0E 0F
      -- -- -- -- -- -- -- --  -- -- -- -- -- -- -- --
0190:                                            1E F0                ..
01A0: FF FF 7F 6F 70 03 03 10  06 80 29 08 24 42 10 01  ...op.....).$B..
01B0: 01 1D 11 80 23 1D 12 80  23 29 08 24 42 10 01 02  ....#...#).$B...
01C0: 20 00 21 00                                        .!.            
```

#### Opcodes

```
  0: 0x019E [0x1E] EventEntity looks at LocalPlayer and starts talking
  1: 0x01A3 [0x6F] WAIT_FRAME_DELAY: Yield until WaitTime reaches zero
  2: 0x01A4 [0x70] WAIT_ENTITY_RENDER_FLAG: Wait while EventEntity->Render.Flags3 bit 2 is set (cancel turn if not)
  3: 0x01A5 [0x03] Work_Zone[3] = 2288*
  4: 0x01AA [0x29] REQ_SET_WAIT(priority=0x08, entity_id=Rumin-Flumin (ID: 17842724/0x01104224), tag_num=0x01)
  5: 0x01B1 [0x1D] PRINT_EVENT_MESSAGE(message_id=7551*)
    → "Don't forgetaru--place the $3 near the bee swarm in the dead end toward the southwest."
  6: 0x01B4 [0x23] WAIT_FOR_DIALOG_INTERACTION
  7: 0x01B5 [0x1D] PRINT_EVENT_MESSAGE(message_id=7552*)
    → "And remember what I told you about kneeling down and staying perfectly still. That part is really-weally importantaru! When you're done, bring what you catch to Ndah Tolohjin at the Scouts' Coalition."
  8: 0x01B8 [0x23] WAIT_FOR_DIALOG_INTERACTION
  9: 0x01B9 [0x29] REQ_SET_WAIT(priority=0x08, entity_id=Rumin-Flumin (ID: 17842724/0x01104224), tag_num=0x02)
 10: 0x01C0 [0x20] SET_CLI_EVENT_UC_FLAG: Unlock player control
 11: 0x01C2 [0x21] END_EVENT
 12: 0x01C3 [0x00] END_REQSTACK()
```

### Event 2553

#### Metadata

| Field        | Value    |
|--------------|----------|
| Entrypoint   | 0x01C4   |
| Data Size    | 25 bytes |
| Instructions | 9        |

```
      00 01 02 03 04 05 06 07  08 09 0A 0B 0C 0D 0E 0F
      -- -- -- -- -- -- -- --  -- -- -- -- -- -- -- --
01C0:             1E F0 FF FF  7F 6F 70 6E F8 FF FF 7F      .....opn....
01D0: 0F 80 99 F8 FF FF 7F 1D  13 80 23 21 00           ..........#!.   
```

#### Opcodes

```
  0: 0x01C4 [0x1E] EventEntity looks at LocalPlayer and starts talking
  1: 0x01C9 [0x6F] WAIT_FRAME_DELAY: Yield until WaitTime reaches zero
  2: 0x01CA [0x70] WAIT_ENTITY_RENDER_FLAG: Wait while EventEntity->Render.Flags3 bit 2 is set (cancel turn if not)
  3: 0x01CB [0x6E] EventEntity uses emote 8*
  4: 0x01D2 [0x99] Wait for EventEntity animation to complete
  5: 0x01D7 [0x1D] PRINT_EVENT_MESSAGE(message_id=7553*)
    → "Did you collectaru what we needed? That's great! Now head over to Ndah Tolohjin. I'm pretty sure she's hanging around in the Scouts' Coalition."
  6: 0x01DA [0x23] WAIT_FOR_DIALOG_INTERACTION
  7: 0x01DB [0x21] END_EVENT
  8: 0x01DC [0x00] END_REQSTACK()
```

### Event 2555

#### Metadata

| Field        | Value    |
|--------------|----------|
| Entrypoint   | 0x01DD   |
| Data Size    | 27 bytes |
| Instructions | 9        |

```
      00 01 02 03 04 05 06 07  08 09 0A 0B 0C 0D 0E 0F
      -- -- -- -- -- -- -- --  -- -- -- -- -- -- -- --
01D0:                                         1E F0 FF               ...
01E0: FF 7F 6F 70 29 08 24 42  10 01 01 1D 14 80 23 29  ..op).$B......#)
01F0: 08 24 42 10 01 02 21 00                           .$B...!.        
```

#### Opcodes

```
  0: 0x01DD [0x1E] EventEntity looks at LocalPlayer and starts talking
  1: 0x01E2 [0x6F] WAIT_FRAME_DELAY: Yield until WaitTime reaches zero
  2: 0x01E3 [0x70] WAIT_ENTITY_RENDER_FLAG: Wait while EventEntity->Render.Flags3 bit 2 is set (cancel turn if not)
  3: 0x01E4 [0x29] REQ_SET_WAIT(priority=0x08, entity_id=Rumin-Flumin (ID: 17842724/0x01104224), tag_num=0x01)
  4: 0x01EB [0x1D] PRINT_EVENT_MESSAGE(message_id=7554*)
    → "Our research has taken on new forms! Now we're studying the eggs of local crawler-wallers. You think they might lead to new discoveries?"
  5: 0x01EE [0x23] WAIT_FOR_DIALOG_INTERACTION
  6: 0x01EF [0x29] REQ_SET_WAIT(priority=0x08, entity_id=Rumin-Flumin (ID: 17842724/0x01104224), tag_num=0x02)
  7: 0x01F6 [0x21] END_EVENT
  8: 0x01F7 [0x00] END_REQSTACK()
```
