# 17842706 - Jumping Rabbit

## Common Data

| Field            | Value                           |
|------------------|---------------------------------|
| Zone             | Yahse Hunting Grounds (ID: 260) |
| Block Size       | 1436 bytes                      |
| Total Events     | 4                               |
| References Count | 68                              |

## List of Events

| Event ID              | Entrypoint   |   Size |   Instructions |
|-----------------------|--------------|--------|----------------|
| [65535](#event-65535) | 0x0000       |      1 |              1 |
| [20](#event-20)       | 0x0001       |    914 |            178 |
| [19](#event-19)       | 0x0393       |    193 |             55 |
| [17](#event-17)       | 0x0454       |     21 |              7 |

## DAT References (imed_data)

|   Index | Hex Value   |   Dec Value |
|---------|-------------|-------------|
|       0 | 0x000A      |          10 |
|       1 | 0x1EAB      |        7851 |
|       2 | 0x0028      |          40 |
|       3 | 0x5284      |       21124 |
|       4 | 0x6C8A      |       27786 |
|       5 | 0x6D16      |       27926 |
|       6 | 0x6DA2      |       28066 |
|       7 | 0x6E2E      |       28206 |
|       8 | 0x6EBA      |       28346 |
|       9 | 0x5128      |       20776 |
|      10 | 0x6C8B      |       27787 |
|      11 | 0x6D17      |       27927 |
|      12 | 0x6DA3      |       28067 |
|      13 | 0x6E2F      |       28207 |
|      14 | 0x6EBB      |       28347 |
|      15 | 0x0001      |           1 |
|      16 | 0x0002      |           2 |
|      17 | 0x0003      |           3 |
|      18 | 0x0004      |           4 |
|      19 | 0x0005      |           5 |
|      20 | 0x0006      |           6 |
|      21 | 0x0007      |           7 |
|      22 | 0x0008      |           8 |
|      23 | 0x0009      |           9 |
|      24 | 0x000B      |          11 |
|      25 | 0x000C      |          12 |
|      26 | 0x1EAC      |        7852 |
|      27 | 0x0000      |           0 |
|      28 | 0x0020      |          32 |
|      29 | 0x1EAD      |        7853 |
|      30 | 0x0050      |          80 |
|      31 | 0x0046      |          70 |
|      32 | 0x1EAE      |        7854 |
|      33 | 0x1EAF      |        7855 |
|      34 | 0x1EB0      |        7856 |
|      35 | 0x4E20      |       20000 |
|      36 | 0x1EB1      |        7857 |
|      37 | 0x0026      |          38 |
|      38 | 0x1EB2      |        7858 |
|      39 | 0x0096      |         150 |
|      40 | 0x1EB3      |        7859 |
|      41 | 0x1EB4      |        7860 |
|      42 | 0x0083      |         131 |
|      43 | 0x00C8      |         200 |
|      44 | 0x1EB5      |        7861 |
|      45 | 0x0024      |          36 |
|      46 | 0x1EB6      |        7862 |
|      47 | 0x005A      |          90 |
|      48 | 0x001A      |          26 |
|      49 | 0x1EB7      |        7863 |
|      50 | 0x001E      |          30 |
|      51 | 0x1E9D      |        7837 |
|      52 | 0x1E9E      |        7838 |
|      53 | 0x1E9F      |        7839 |
|      54 | 0x1EA0      |        7840 |
|      55 | 0x0063      |          99 |
|      56 | 0x0032      |          50 |
|      57 | 0x1EA1      |        7841 |
|      58 | 0x1EA2      |        7842 |
|      59 | 0x1EA3      |        7843 |
|      60 | 0x1EA4      |        7844 |
|      61 | 0x1EA5      |        7845 |
|      62 | 0x0010      |          16 |
|      63 | 0x1EA6      |        7846 |
|      64 | 0x1EA7      |        7847 |
|      65 | 0x1EA8      |        7848 |
|      66 | 0x003C      |          60 |
|      67 | 0x1E9B      |        7835 |

## String References

- **7835**: When I think of how many good men and women drowned from the crashing waves of the Senroh Sea...
- **7837**: I never expected one from the Middle Lands to emit such a familiar aura...
- **7838**: ...You must have studied under the tutelage of Sylvie or Octavien.
- **7839**: I stand guard over this spot, waiting for ill tidings to be borne from the Senroh Sea.
- **7840**: Bah. I say ill tidings, but in truth nothing of the sort has happened in months.
- **7841**: And what about you? Are you here in search of answers?
- **7842**: Need any answers? [I like answers./I'm better off not knowing.]
- **7843**: Hush now. You needn't say a word.
- **7844**: I can sense you questioning. Questioning whether you'll be able to recapture a sense of powers once gleaned but later lost.
- **7845**: Perhaps...perhaps I can guide you.
- **7851**: A deal. Right.
- **7853**: Hmm hmm hmm...given your height and weight, I'd say...
- **7854**: Yo, Nunana! You're better at this than I am. What d'you think will fit her?
- **7856**: Absolutely perfect! You'll have an endless parade of people clawing to get a look at you!
- **7857**: We're willing to part with it for, say...$0 bayld.
- **7861**: Enjoy, and may this be the answer you were looking for!
- **7863**: Can't help you if you don't have enough bayld!

## Events

### Event 65535

#### Metadata

| Field        | Value   |
|--------------|---------|
| Entrypoint   | 0x0000  |
| Data Size    | 1 bytes |
| Instructions | 1       |

```
      00 01 02 03 04 05 06 07  08 09 0A 0B 0C 0D 0E 0F
      -- -- -- -- -- -- -- --  -- -- -- -- -- -- -- --
0000: 00                                                .               
```

#### Opcodes

```
  0: 0x0000 [0x00] END_REQSTACK()
```

### Event 20

#### Metadata

| Field        | Value     |
|--------------|-----------|
| Entrypoint   | 0x0001    |
| Data Size    | 914 bytes |
| Instructions | 30        |

```
      00 01 02 03 04 05 06 07  08 09 0A 0B 0C 0D 0E 0F
      -- -- -- -- -- -- -- --  -- -- -- -- -- -- -- --
0000:    03 01 00 03 10 4A F0  FF FF 7F F8 FF FF 7F 1C   .....J.........
0010: 00 80 1E F0 FF FF 7F 6F  70 1D 01 80 1C 02 80 4A  .......op......J
0020: 13 42 10 01 F0 FF FF 7F  6F 76 13 42 10 01 23 06  .B......ov.B..#.
0030: 00 17 06 00 00 03 03 10  03 80 03 04 10 04 80 03  ................
0040: 05 10 05 80 03 06 10 06  80 03 07 10 07 80 03 08  ................
0050: 10 08 80 03 09 10 09 80  03 00 17 0A 80 03 01 17  ................
0060: 0B 80 03 02 17 0C 80 03  03 17 0D 80 03 04 17 0E  ................
0070: 80 D4 03 0F 80 03 10 D4  03 10 80 04 10 D4 03 11  ................
0080: 80 05 10 D4 03 12 80 06  10 D4 03 13 80 07 10 D4  ................
0090: 03 14 80 08 10 D4 03 15  80 09 10 D4 03 16 80 00  ................
00A0: 17 D4 03 17 80 01 17 D4  03 00 80 02 17 D4 03 18  ................
00B0: 80 03 17 D4 03 19 80 04  17 D4 02 1A 80 1B 80 01  ................
00C0: 00 25 02 00 10 1B 80 00  CF 00 21 00 01 CB 01 02  .%........!.....
00D0: 00 10 0F 80 00 E4 00 03  00 00 03 10 03 00 17 0F  ................
00E0: 80 01 CB 01 02 00 10 10  80 00 F9 00 03 00 00 04  ................
00F0: 10 03 00 17 10 80 01 CB  01 02 00 10 11 80 00 0E  ................
0100: 01 03 00 00 05 10 03 00  17 11 80 01 CB 01 02 00  ................
0110: 10 12 80 00 23 01 03 00  00 06 10 03 00 17 12 80  ....#...........
0120: 01 CB 01 02 00 10 13 80  00 38 01 03 00 00 07 10  .........8......
0130: 03 00 17 13 80 01 CB 01  02 00 10 14 80 00 4D 01  ..............M.
0140: 03 00 00 08 10 03 00 17  14 80 01 CB 01 02 00 10  ................
0150: 15 80 00 62 01 03 00 00  09 10 03 00 17 15 80 01  ...b............
0160: CB 01 02 00 10 16 80 00  77 01 03 00 00 00 17 03  ........w.......
0170: 00 17 16 80 01 CB 01 02  00 10 17 80 00 8C 01 03  ................
0180: 00 00 01 17 03 00 17 17  80 01 CB 01 02 00 10 00  ................
0190: 80 00 A1 01 03 00 00 02  17 03 00 17 00 80 01 CB  ................
01A0: 01 02 00 10 18 80 00 B6  01 03 00 00 03 17 03 00  ................
01B0: 17 18 80 01 CB 01 02 00  10 19 80 00 CB 01 03 00  ................
01C0: 00 04 17 03 00 17 19 80  01 CB 01 02 87 7F 10 80  ................
01D0: 80 D9 01 05 02 10 01 06  02 02 87 7F 12 80 80 E7  ................
01E0: 01 05 02 10 01 06 02 02  87 7F 14 80 80 F5 01 05  ................
01F0: 02 10 01 06 02 02 87 7F  15 80 80 03 02 05 02 10  ................
0200: 01 06 02 06 02 10 02 02  10 1B 80 00 36 02 6E F8  ............6.n.
0210: FF FF 7F 1C 80 99 F8 FF  FF 7F 1D 1D 80 1C 1E 80  ................
0220: 4A 13 42 10 01 F8 FF FF  7F 6F 76 13 42 10 01 1C  J.B......ov.B...
0230: 1F 80 23 01 6F 02 1E 13  42 10 01 6F 70 1D 20 80  ..#.o...B..op. .
0240: 23 6E 13 42 10 01 15 80  99 13 42 10 01 2B 13 42  #n.B......B..+.B
0250: 10 01 21 80 23 1C 1E 80  23 4A 13 42 10 01 F8 FF  ..!.#...#J.B....
0260: FF 7F 6F 76 13 42 10 01  1E F0 FF FF 7F 6F 70 1D  ..ov.B.......op.
0270: 22 80 23 03 02 10 23 80  1D 24 80 23 6E 13 42 10  ".#...#..$.#n.B.
0280: 01 25 80 99 13 42 10 01  2B 13 42 10 01 26 80 1C  .%...B..+.B..&..
0290: 27 80 23 4A 13 42 10 01  F0 FF FF 7F 6F 76 13 42  '.#J.B......ov.B
02A0: 10 01 06 01 10 03 02 10  23 80 D4 03 1B 80 00 00  ........#.......
02B0: D4 02 28 80 1B 80 1B 80  25 02 00 10 1B 80 00 86  ..(.....%.......
02C0: 03 42 03 01 10 1C 80 43  00 43 01 2E 02 08 10 0F  .B.....C.C......
02D0: 80 00 70 03 06 01 10 03  02 10 23 80 D4 03 1B 80  ..p.......#.....
02E0: 00 00 D4 02 29 80 1B 80  1B 80 25 02 00 10 1B 80  ....).....%.....
02F0: 00 62 03 42 03 01 10 1C  80 43 00 43 01 06 01 10  .b.B.....C.C....
0300: 02 08 10 0F 80 00 4B 03  5F 06 2A 80 F8 FF FF 7F  ......K._.*.....
0310: F8 FF FF 7F 70 61 73 30  2B 80 1D 2C 80 23 6E 13  ....pas0+..,.#n.
0320: 42 10 01 2D 80 99 13 42  10 01 2B 13 42 10 01 2E  B..-...B..+.B...
0330: 80 1C 2F 80 5F 07 F8 FF  FF 7F F8 FF FF 7F 70 61  ../._.........pa
0340: 73 30 23 03 01 10 00 17  01 5F 03 2E 6E F8 FF FF  s0#......_..n...
0350: 7F 30 80 99 F8 FF FF 7F  1D 31 80 1C 27 80 23 01  .0.......1..'.#.
0360: 6D 03 02 00 10 0F 80 00  6D 03 01 6D 03 01 83 03  m.......m..m....
0370: 6E F8 FF FF 7F 30 80 99  F8 FF FF 7F 1D 31 80 1C  n....0.......1..
0380: 27 80 23 01 91 03 02 00  10 0F 80 00 91 03 01 91  '.#.............
0390: 03 21 00                                          .!.             
```

#### Opcodes

```
  0: 0x0001 [0x03] ExtData[1]->WorkLocal[1] = Work_Zone[3]
  1: 0x0006 [0x4A] LocalPlayer looks at EventEntity
  2: 0x000F [0x1C] WAIT(10* ticks)
  3: 0x0012 [0x1E] EventEntity looks at LocalPlayer and starts talking
  4: 0x0017 [0x6F] WAIT_FRAME_DELAY: Yield until WaitTime reaches zero
  5: 0x0018 [0x70] WAIT_ENTITY_RENDER_FLAG: Wait while EventEntity->Render.Flags3 bit 2 is set (cancel turn if not)
  6: 0x0019 [0x1D] PRINT_EVENT_MESSAGE(message_id=7851*)
    → "A deal. Right."
  7: 0x001C [0x1C] WAIT(40* ticks)
  8: 0x001F [0x4A] Nunana (ID: 17842707/0x01104213) looks at LocalPlayer
  9: 0x0028 [0x6F] WAIT_FRAME_DELAY: Yield until WaitTime reaches zero
 10: 0x0029 [0x76] CHECK_ENTITY_RENDER_FLAGS: Wait until Nunana (ID: 17842707/0x01104213) Render.Flags0 and Render.Flags3 conditions are met
 11: 0x002E [0x23] WAIT_FOR_DIALOG_INTERACTION
 12: 0x002F [0x06] Work_Zone_1700[0] = 0
 13: 0x0032 [0x06] ExtData[1]->WorkLocal[0] = 0
 14: 0x0035 [0x03] Work_Zone[3] = 21124*
 15: 0x003A [0x03] Work_Zone[4] = 27786*
 16: 0x003F [0x03] Work_Zone[5] = 27926*
 17: 0x0044 [0x03] Work_Zone[6] = 28066*
 18: 0x0049 [0x03] Work_Zone[7] = 28206*
 19: 0x004E [0x03] Work_Zone[8] = 28346*
 20: 0x0053 [0x03] Work_Zone[9] = 20776*
 21: 0x0058 [0x03] Work_Zone_1700[0] = 27787*
 22: 0x005D [0x03] Work_Zone_1700[1] = 27927*
 23: 0x0062 [0x03] Work_Zone_1700[2] = 28067*
 24: 0x0067 [0x03] Work_Zone_1700[3] = 28207*
 25: 0x006C [0x03] Work_Zone_1700[4] = 28347*
 26: 0x0071 [0xD4] MAP_QUERY_WINDOW: Prepare buffer configuration A (buffer=[0F 80 03 10 D4 03 10 80...])
 27: 0x008F [0xD4] MAP_QUERY_WINDOW: Prepare buffer configuration A (buffer=[14 80 08 10 D4 03 15 80...])
 28: 0x00AD [0xD4] MAP_QUERY_WINDOW: Prepare buffer configuration A (buffer=[18 80 03 17 D4 03 19 80...])
 29: 0x00CB [0x00] END_REQSTACK()
```

#### Data or dead code:

```
# Dead code (unreachable instructions):
     0x00CC [0x01] GOTO 0x01CB
     0x00CF [0x02] IF !(Work_Zone[0] == 1*) GOTO 0x00E4
     0x00D7 [0x03] ExtData[1]->WorkLocal[0] = Work_Zone[3]
     0x00DC [0x03] Work_Zone_1700[0] = 1*
     0x00E1 [0x01] GOTO 0x01CB
     0x00E4 [0x02] IF !(Work_Zone[0] == 2*) GOTO 0x00F9
     0x00EC [0x03] ExtData[1]->WorkLocal[0] = Work_Zone[4]
     0x00F1 [0x03] Work_Zone_1700[0] = 2*
     0x00F6 [0x01] GOTO 0x01CB
     0x00F9 [0x02] IF !(Work_Zone[0] == 3*) GOTO 0x010E
     0x0101 [0x03] ExtData[1]->WorkLocal[0] = Work_Zone[5]
     0x0106 [0x03] Work_Zone_1700[0] = 3*
     0x010B [0x01] GOTO 0x01CB
     0x010E [0x02] IF !(Work_Zone[0] == 4*) GOTO 0x0123
     0x0116 [0x03] ExtData[1]->WorkLocal[0] = Work_Zone[6]
     0x011B [0x03] Work_Zone_1700[0] = 4*
     0x0120 [0x01] GOTO 0x01CB
     0x0123 [0x02] IF !(Work_Zone[0] == 5*) GOTO 0x0138
     0x012B [0x03] ExtData[1]->WorkLocal[0] = Work_Zone[7]
     0x0130 [0x03] Work_Zone_1700[0] = 5*
     0x0135 [0x01] GOTO 0x01CB
     0x0138 [0x02] IF !(Work_Zone[0] == 6*) GOTO 0x014D
     0x0140 [0x03] ExtData[1]->WorkLocal[0] = Work_Zone[8]
     0x0145 [0x03] Work_Zone_1700[0] = 6*
     0x014A [0x01] GOTO 0x01CB
     0x014D [0x02] IF !(Work_Zone[0] == 7*) GOTO 0x0162
     0x0155 [0x03] ExtData[1]->WorkLocal[0] = Work_Zone[9]
     0x015A [0x03] Work_Zone_1700[0] = 7*
     0x015F [0x01] GOTO 0x01CB
     0x0162 [0x02] IF !(Work_Zone[0] == 8*) GOTO 0x0177
     0x016A [0x03] ExtData[1]->WorkLocal[0] = Work_Zone_1700[0]
     0x016F [0x03] Work_Zone_1700[0] = 8*
     0x0174 [0x01] GOTO 0x01CB
     0x0177 [0x02] IF !(Work_Zone[0] == 9*) GOTO 0x018C
     0x017F [0x03] ExtData[1]->WorkLocal[0] = Work_Zone_1700[1]
     0x0184 [0x03] Work_Zone_1700[0] = 9*
     0x0189 [0x01] GOTO 0x01CB
     0x018C [0x02] IF !(Work_Zone[0] == 10*) GOTO 0x01A1
     0x0194 [0x03] ExtData[1]->WorkLocal[0] = Work_Zone_1700[2]
     0x0199 [0x03] Work_Zone_1700[0] = 10*
     0x019E [0x01] GOTO 0x01CB
     0x01A1 [0x02] IF !(Work_Zone[0] == 11*) GOTO 0x01B6
     0x01A9 [0x03] ExtData[1]->WorkLocal[0] = Work_Zone_1700[3]
     0x01AE [0x03] Work_Zone_1700[0] = 11*
     0x01B3 [0x01] GOTO 0x01CB
     0x01B6 [0x02] IF !(Work_Zone[0] == 12*) GOTO 0x01CB
     0x01BE [0x03] ExtData[1]->WorkLocal[0] = Work_Zone_1700[4]
     0x01C3 [0x03] Work_Zone_1700[0] = 12*
     0x01C8 [0x01] GOTO 0x01CB
     0x01CB [0x02] IF !(LocalPlayer->Race == 2*) GOTO 0x01D9
     0x01D3 [0x05] Work_Zone[2] = 1
     0x01D6 [0x01] GOTO 0x0206
     0x01D9 [0x02] IF !(LocalPlayer->Race == 4*) GOTO 0x01E7
     0x01E1 [0x05] Work_Zone[2] = 1
     0x01E4 [0x01] GOTO 0x0206
     0x01E7 [0x02] IF !(LocalPlayer->Race == 6*) GOTO 0x01F5
     0x01EF [0x05] Work_Zone[2] = 1
     0x01F2 [0x01] GOTO 0x0206
     0x01F5 [0x02] IF !(LocalPlayer->Race == 7*) GOTO 0x0203
     0x01FD [0x05] Work_Zone[2] = 1
     0x0200 [0x01] GOTO 0x0206
     0x0203 [0x06] Work_Zone[2] = 0
     0x0206 [0x02] IF !(Work_Zone[2] == 0*) GOTO 0x0236
     0x020E [0x6E] EventEntity uses emote 32*
     0x0215 [0x99] Wait for EventEntity animation to complete
     0x021A [0x1D] PRINT_EVENT_MESSAGE(message_id=7853*)
    → "Hmm hmm hmm...given your height and weight, I'd say..."
     0x021D [0x1C] WAIT(80* ticks)
     0x0220 [0x4A] Nunana (ID: 17842707/0x01104213) looks at EventEntity
     0x0229 [0x6F] WAIT_FRAME_DELAY: Yield until WaitTime reaches zero
     0x022A [0x76] CHECK_ENTITY_RENDER_FLAGS: Wait until Nunana (ID: 17842707/0x01104213) Render.Flags0 and Render.Flags3 conditions are met
     0x022F [0x1C] WAIT(70* ticks)
     0x0232 [0x23] WAIT_FOR_DIALOG_INTERACTION
     0x0233 [0x01] GOTO 0x026F
     0x0236 [0x1E] EventEntity looks at Nunana (ID: 17842707/0x01104213) and starts talking
     0x023B [0x6F] WAIT_FRAME_DELAY: Yield until WaitTime reaches zero
     0x023C [0x70] WAIT_ENTITY_RENDER_FLAG: Wait while EventEntity->Render.Flags3 bit 2 is set (cancel turn if not)
     0x023D [0x1D] PRINT_EVENT_MESSAGE(message_id=7854*)
    → "Yo, Nunana! You're better at this than I am. What d'you think will fit her?"
     0x0240 [0x23] WAIT_FOR_DIALOG_INTERACTION
     0x0241 [0x6E] Nunana (ID: 17842707/0x01104213) uses emote 7*
     0x0248 [0x99] Wait for Nunana (ID: 17842707/0x01104213) animation to complete
     0x024D [0x2B] Nunana (ID: 17842707/0x01104213) [7855*]:
    → "Hmm... Maybe you could stand to lose a few ponzes-wonzes... How about this?"
     0x0254 [0x23] WAIT_FOR_DIALOG_INTERACTION
     0x0255 [0x1C] WAIT(80* ticks)
     0x0258 [0x23] WAIT_FOR_DIALOG_INTERACTION
     0x0259 [0x4A] Nunana (ID: 17842707/0x01104213) looks at EventEntity
     0x0262 [0x6F] WAIT_FRAME_DELAY: Yield until WaitTime reaches zero
     0x0263 [0x76] CHECK_ENTITY_RENDER_FLAGS: Wait until Nunana (ID: 17842707/0x01104213) Render.Flags0 and Render.Flags3 conditions are met
     0x0268 [0x1E] EventEntity looks at LocalPlayer and starts talking
     0x026D [0x6F] WAIT_FRAME_DELAY: Yield until WaitTime reaches zero
     0x026E [0x70] WAIT_ENTITY_RENDER_FLAG: Wait while EventEntity->Render.Flags3 bit 2 is set (cancel turn if not)
     0x026F [0x1D] PRINT_EVENT_MESSAGE(message_id=7856*)
    → "Absolutely perfect! You'll have an endless parade of people clawing to get a look at you!"
     0x0272 [0x23] WAIT_FOR_DIALOG_INTERACTION
     0x0273 [0x03] Work_Zone[2] = 20000*
     0x0278 [0x1D] PRINT_EVENT_MESSAGE(message_id=7857*)
    → "We're willing to part with it for, say...$0 bayld."
     0x027B [0x23] WAIT_FOR_DIALOG_INTERACTION
     0x027C [0x6E] Nunana (ID: 17842707/0x01104213) uses emote 38*
     0x0283 [0x99] Wait for Nunana (ID: 17842707/0x01104213) animation to complete
     0x0288 [0x2B] Nunana (ID: 17842707/0x01104213) [7858*]:
    → "Hey, Rabbit! You tryin' to run us out of business-wusiness?"
     0x028F [0x1C] WAIT(150* ticks)
     0x0292 [0x23] WAIT_FOR_DIALOG_INTERACTION
     0x0293 [0x4A] Nunana (ID: 17842707/0x01104213) looks at LocalPlayer
     0x029C [0x6F] WAIT_FRAME_DELAY: Yield until WaitTime reaches zero
     0x029D [0x76] CHECK_ENTITY_RENDER_FLAGS: Wait until Nunana (ID: 17842707/0x01104213) Render.Flags0 and Render.Flags3 conditions are met
     0x02A2 [0x06] Work_Zone[1] = 0
     0x02A5 [0x03] Work_Zone[2] = 20000*
     0x02AA [0xD4] MAP_QUERY_WINDOW: Prepare buffer configuration A (buffer=[1B 80 00 00 D4 02 28 80...])
     0x02C8 [0x00] END_REQSTACK()
     0x02C9 [0x43] SEND_EVENT_UPDATE: Check pending flag (skip if not pending)
     0x02CB [0x2E] SET_CLI_EVENT_CANCEL_FLAGS()
     0x02CC [0x02] IF !(Work_Zone[8] == 1*) GOTO 0x0370
     0x02D4 [0x06] Work_Zone[1] = 0
     0x02D7 [0x03] Work_Zone[2] = 20000*
     0x02DC [0xD4] MAP_QUERY_WINDOW: Prepare buffer configuration A (buffer=[1B 80 00 00 D4 02 29 80...])
     0x02FA [0x00] END_REQSTACK()
     0x02FB [0x43] SEND_EVENT_UPDATE: Check pending flag (skip if not pending)
     0x02FD [0x06] Work_Zone[1] = 0
     0x0300 [0x02] IF !(Work_Zone[8] == 1*) GOTO 0x034B
     0x0308 [0x5F] MULTI_HANDLER_COMPLEX(mode=0x06 - Load ext scheduler with flag (OpCode 0x5B mode 1, flag 1), ref=131*, entity1=EventEntity, entity2=EventEntity, string="pas0", extra=200*)
     0x031A [0x1D] PRINT_EVENT_MESSAGE(message_id=7861*)
    → "Enjoy, and may this be the answer you were looking for!"
     0x031D [0x23] WAIT_FOR_DIALOG_INTERACTION
     0x031E [0x6E] Nunana (ID: 17842707/0x01104213) uses emote 36*
     0x0325 [0x99] Wait for Nunana (ID: 17842707/0x01104213) animation to complete
     0x032A [0x2B] Nunana (ID: 17842707/0x01104213) [7862*]:
    → "Come back if you need anything else!"
     0x0331 [0x1C] WAIT(90* ticks)
     0x0334 [0x5F] MULTI_HANDLER_COMPLEX(mode=0x07 - Wait scheduler task (OpCode 0x53))
     0x0342 [0x23] WAIT_FOR_DIALOG_INTERACTION
     0x0343 [0x03] Work_Zone[1] = Work_Zone_1700[0]
     0x0348 [0x01] GOTO 0x035F
     0x034B [0x2E] SET_CLI_EVENT_CANCEL_FLAGS()
     0x034C [0x6E] EventEntity uses emote 26*
     0x0353 [0x99] Wait for EventEntity animation to complete
     0x0358 [0x1D] PRINT_EVENT_MESSAGE(message_id=7863*)
    → "Can't help you if you don't have enough bayld!"
     0x035B [0x1C] WAIT(150* ticks)
     0x035E [0x23] WAIT_FOR_DIALOG_INTERACTION
     0x035F [0x01] GOTO 0x036D
     0x0362 [0x02] IF !(Work_Zone[0] == 1*) GOTO 0x036D
     0x036A [0x01] GOTO 0x036D
     0x036D [0x01] GOTO 0x0383
     0x0370 [0x6E] EventEntity uses emote 26*
     0x0377 [0x99] Wait for EventEntity animation to complete
     0x037C [0x1D] PRINT_EVENT_MESSAGE(message_id=7863*)
    → "Can't help you if you don't have enough bayld!"
     0x037F [0x1C] WAIT(150* ticks)
     0x0382 [0x23] WAIT_FOR_DIALOG_INTERACTION
     0x0383 [0x01] GOTO 0x0391
     0x0386 [0x02] IF !(Work_Zone[0] == 1*) GOTO 0x0391
     0x038E [0x01] GOTO 0x0391
     0x0391 [0x21] END_EVENT
     0x0392 [0x00] END_REQSTACK()
```

### Event 19

#### Metadata

| Field        | Value     |
|--------------|-----------|
| Entrypoint   | 0x0393    |
| Data Size    | 193 bytes |
| Instructions | 55        |

```
      00 01 02 03 04 05 06 07  08 09 0A 0B 0C 0D 0E 0F
      -- -- -- -- -- -- -- --  -- -- -- -- -- -- -- --
0390:          4A F0 FF FF 7F  F8 FF FF 7F 1C 00 80 1E     J............
03A0: F0 FF FF 7F 6F 70 1C 32  80 6E F8 FF FF 7F 1C 80  ....op.2.n......
03B0: 99 F8 FF FF 7F 1D 33 80  1C 02 80 4A 13 42 10 01  ......3....J.B..
03C0: F0 FF FF 7F 6F 76 13 42  10 01 23 1D 34 80 23 1D  ....ov.B..#.4.#.
03D0: 35 80 23 1D 36 80 1C 2F  80 23 7B F8 FF FF 7F 4B  5.#.6../.#{....K
03E0: F8 FF FF 7F 37 80 6F 70  1C 38 80 1D 39 80 23 24  ....7.op.8..9.#$
03F0: 3A 80 1B 80 1B 80 25 02  00 10 1B 80 00 02 04 01  :.....%.........
0400: 0D 04 02 00 10 0F 80 00  0D 04 01 0D 04 1D 3B 80  ..............;.
0410: 1C 38 80 6E F8 FF FF 7F  14 80 99 F8 FF FF 7F 23  .8.n...........#
0420: 1D 3C 80 23 1D 3D 80 1C  2F 80 23 6E 13 42 10 01  .<.#.=../.#n.B..
0430: 3E 80 99 13 42 10 01 2B  13 42 10 01 3F 80 23 2B  >...B..+.B..?.#+
0440: 13 42 10 01 40 80 23 2B  13 42 10 01 41 80 1C 42  .B..@.#+.B..A..B
0450: 80 23 21 00                                       .#!.            
```

#### Opcodes

```
  0: 0x0393 [0x4A] LocalPlayer looks at EventEntity
  1: 0x039C [0x1C] WAIT(10* ticks)
  2: 0x039F [0x1E] EventEntity looks at LocalPlayer and starts talking
  3: 0x03A4 [0x6F] WAIT_FRAME_DELAY: Yield until WaitTime reaches zero
  4: 0x03A5 [0x70] WAIT_ENTITY_RENDER_FLAG: Wait while EventEntity->Render.Flags3 bit 2 is set (cancel turn if not)
  5: 0x03A6 [0x1C] WAIT(30* ticks)
  6: 0x03A9 [0x6E] EventEntity uses emote 32*
  7: 0x03B0 [0x99] Wait for EventEntity animation to complete
  8: 0x03B5 [0x1D] PRINT_EVENT_MESSAGE(message_id=7837*)
    → "I never expected one from the Middle Lands to emit such a familiar aura..."
  9: 0x03B8 [0x1C] WAIT(40* ticks)
 10: 0x03BB [0x4A] Nunana (ID: 17842707/0x01104213) looks at LocalPlayer
 11: 0x03C4 [0x6F] WAIT_FRAME_DELAY: Yield until WaitTime reaches zero
 12: 0x03C5 [0x76] CHECK_ENTITY_RENDER_FLAGS: Wait until Nunana (ID: 17842707/0x01104213) Render.Flags0 and Render.Flags3 conditions are met
 13: 0x03CA [0x23] WAIT_FOR_DIALOG_INTERACTION
 14: 0x03CB [0x1D] PRINT_EVENT_MESSAGE(message_id=7838*)
    → "...You must have studied under the tutelage of Sylvie or Octavien."
 15: 0x03CE [0x23] WAIT_FOR_DIALOG_INTERACTION
 16: 0x03CF [0x1D] PRINT_EVENT_MESSAGE(message_id=7839*)
    → "I stand guard over this spot, waiting for ill tidings to be borne from the Senroh Sea."
 17: 0x03D2 [0x23] WAIT_FOR_DIALOG_INTERACTION
 18: 0x03D3 [0x1D] PRINT_EVENT_MESSAGE(message_id=7840*)
    → "Bah. I say ill tidings, but in truth nothing of the sort has happened in months."
 19: 0x03D6 [0x1C] WAIT(90* ticks)
 20: 0x03D9 [0x23] WAIT_FOR_DIALOG_INTERACTION
 21: 0x03DA [0x7B] EventEntity stops talking
 22: 0x03DF [0x4B] UPDATE_ENTITY_YAW(entity=EventEntity, yaw=0.5°*)
 23: 0x03E6 [0x6F] WAIT_FRAME_DELAY: Yield until WaitTime reaches zero
 24: 0x03E7 [0x70] WAIT_ENTITY_RENDER_FLAG: Wait while EventEntity->Render.Flags3 bit 2 is set (cancel turn if not)
 25: 0x03E8 [0x1C] WAIT(50* ticks)
 26: 0x03EB [0x1D] PRINT_EVENT_MESSAGE(message_id=7841*)
    → "And what about you? Are you here in search of answers?"
 27: 0x03EE [0x23] WAIT_FOR_DIALOG_INTERACTION
 28: 0x03EF [0x24] CREATE_DIALOG(message_id=7842*, default_option=0*, option_flags=0*)
    → "Need any answers? [I like answers./I'm better off not knowing.]"
 29: 0x03F6 [0x25] WAIT_DIALOG_SELECT()
 30: 0x03F7 [0x02] IF !(Work_Zone[0] == 0*) GOTO 0x0402
 31: 0x03FF [0x01] GOTO 0x040D
 32: 0x0402 [0x02] IF !(Work_Zone[0] == 1*) GOTO 0x040D
 33: 0x040A [0x01] GOTO 0x040D

SUBROUTINE_040D:
 34: 0x040D [0x1D] PRINT_EVENT_MESSAGE(message_id=7843*)
    → "Hush now. You needn't say a word."
 35: 0x0410 [0x1C] WAIT(50* ticks)
 36: 0x0413 [0x6E] EventEntity uses emote 6*
 37: 0x041A [0x99] Wait for EventEntity animation to complete
 38: 0x041F [0x23] WAIT_FOR_DIALOG_INTERACTION
 39: 0x0420 [0x1D] PRINT_EVENT_MESSAGE(message_id=7844*)
    → "I can sense you questioning. Questioning whether you'll be able to recapture a sense of powers once gleaned but later lost."
 40: 0x0423 [0x23] WAIT_FOR_DIALOG_INTERACTION
 41: 0x0424 [0x1D] PRINT_EVENT_MESSAGE(message_id=7845*)
    → "Perhaps...perhaps I can guide you."
 42: 0x0427 [0x1C] WAIT(90* ticks)
 43: 0x042A [0x23] WAIT_FOR_DIALOG_INTERACTION
 44: 0x042B [0x6E] Nunana (ID: 17842707/0x01104213) uses emote 16*
 45: 0x0432 [0x99] Wait for Nunana (ID: 17842707/0x01104213) animation to complete
 46: 0x0437 [0x2B] Nunana (ID: 17842707/0x01104213) [7846*]:
    → "(Psssssst! You there, with the face!)"
 47: 0x043E [0x23] WAIT_FOR_DIALOG_INTERACTION
 48: 0x043F [0x2B] Nunana (ID: 17842707/0x01104213) [7847*]:
    → "(We're offering to replace valuable-waluable geomantic and runic treasures you may have lost along your travels.)"
 49: 0x0446 [0x23] WAIT_FOR_DIALOG_INTERACTION
 50: 0x0447 [0x2B] Nunana (ID: 17842707/0x01104213) [7848*]:
    → "(You don't need to get bogged down in the details. Your bayld will do the talking.)"
 51: 0x044E [0x1C] WAIT(60* ticks)
 52: 0x0451 [0x23] WAIT_FOR_DIALOG_INTERACTION
 53: 0x0452 [0x21] END_EVENT
 54: 0x0453 [0x00] END_REQSTACK()
```

### Event 17

#### Metadata

| Field        | Value    |
|--------------|----------|
| Entrypoint   | 0x0454   |
| Data Size    | 21 bytes |
| Instructions | 7        |

```
      00 01 02 03 04 05 06 07  08 09 0A 0B 0C 0D 0E 0F
      -- -- -- -- -- -- -- --  -- -- -- -- -- -- -- --
0450:             6E F8 FF FF  7F 15 80 99 F8 FF FF 7F      n...........
0460: 1D 43 80 1C 42 80 23 21  00                       .C..B.#!.       
```

#### Opcodes

```
  0: 0x0454 [0x6E] EventEntity uses emote 7*
  1: 0x045B [0x99] Wait for EventEntity animation to complete
  2: 0x0460 [0x1D] PRINT_EVENT_MESSAGE(message_id=7835*)
    → "When I think of how many good men and women drowned from the crashing waves of the Senroh Sea..."
  3: 0x0463 [0x1C] WAIT(60* ticks)
  4: 0x0466 [0x23] WAIT_FOR_DIALOG_INTERACTION
  5: 0x0467 [0x21] END_EVENT
  6: 0x0468 [0x00] END_REQSTACK()
```
