# 17842669 - Soul Pyre

## Common Data

| Field            | Value                           |
|------------------|---------------------------------|
| Zone             | Yahse Hunting Grounds (ID: 260) |
| Block Size       | 224 bytes                       |
| Total Events     | 2                               |
| References Count | 9                               |

## List of Events

| Event ID              | Entrypoint   |   Size |   Instructions |
|-----------------------|--------------|--------|----------------|
| [65535](#event-65535) | 0x0000       |      1 |              1 |
| [4003](#event-4003)   | 0x0001       |    163 |             37 |

## DAT References (imed_data)

|   Index | Hex Value   |   Dec Value |
|---------|-------------|-------------|
|       0 | 0x0002      |           2 |
|       1 | 0x0001      |           1 |
|       2 | 0x0000      |           0 |
|       3 | 0x0003      |           3 |
|       4 | 0x1C2F      |        7215 |
|       5 | 0x1C30      |        7216 |
|       6 | 0x1C31      |        7217 |
|       7 | 0x1C32      |        7218 |
|       8 | 0x40000000  |  1073741824 |

## String References

- **7215**: The light flickers in and out of existence. Inside you see a distorted vision of[ /]$0[/bayld].
- **7216**: In order to acquire the spoils within, you must approach the light from a direction and distance that negates the distortion level as much as possible.
- **7217**: Touching the light may cause it to blink out for good. Using your limited knowledge of such phenomena, you sense that you have $0 attempt[/s] remaining.
- **7218**: Pick your poison. (Attempts left: $0) [Do nothing./Attempt to get the item./Give up.]

## Events

### Event 65535

#### Metadata

| Field        | Value   |
|--------------|---------|
| Entrypoint   | 0x0000  |
| Data Size    | 1 bytes |
| Instructions | 1       |

```
      00 01 02 03 04 05 06 07  08 09 0A 0B 0C 0D 0E 0F
      -- -- -- -- -- -- -- --  -- -- -- -- -- -- -- --
0000: 00                                                .               
```

#### Opcodes

```
  0: 0x0000 [0x00] END_REQSTACK()
```

### Event 4003

#### Metadata

| Field        | Value     |
|--------------|-----------|
| Entrypoint   | 0x0001    |
| Data Size    | 163 bytes |
| Instructions | 37        |

```
      00 01 02 03 04 05 06 07  08 09 0A 0B 0C 0D 0E 0F
      -- -- -- -- -- -- -- --  -- -- -- -- -- -- -- --
0000:    03 00 00 00 80 03 01  00 02 10 03 02 00 03 10   ...............
0010: 03 03 00 04 10 02 02 00  01 80 80 2A 00 03 02 10  ...........*....
0020: 01 00 03 03 10 02 80 01  54 00 02 02 00 00 80 80  ........T.......
0030: 3F 00 03 02 10 01 00 03  03 10 02 80 01 54 00 02  ?............T..
0040: 02 00 03 80 80 54 00 03  02 10 02 80 03 03 10 01  .....T..........
0050: 80 01 54 00 48 04 80 23  48 05 80 23 03 02 10 03  ..T.H..#H..#....
0060: 00 48 06 80 23 03 02 10  03 00 24 07 80 02 80 02  .H..#.....$.....
0070: 80 25 02 00 10 02 80 00  82 00 03 01 10 08 80 01  .%..............
0080: A2 00 02 00 10 01 80 00  92 00 03 01 10 01 80 01  ................
0090: A2 00 02 00 10 00 80 00  A2 00 03 01 10 00 80 01  ................
00A0: A2 00 21 00                                       ..!.            
```

#### Opcodes

```
  0: 0x0001 [0x03] ExtData[1]->WorkLocal[0] = 2*
  1: 0x0006 [0x03] ExtData[1]->WorkLocal[1] = Work_Zone[2]
  2: 0x000B [0x03] ExtData[1]->WorkLocal[2] = Work_Zone[3]
  3: 0x0010 [0x03] ExtData[1]->WorkLocal[3] = Work_Zone[4]
  4: 0x0015 [0x02] IF !(ExtData[1]->WorkLocal[2] == 1*) GOTO 0x002A
  5: 0x001D [0x03] Work_Zone[2] = ExtData[1]->WorkLocal[1]
  6: 0x0022 [0x03] Work_Zone[3] = 0*
  7: 0x0027 [0x01] GOTO 0x0054
  8: 0x002A [0x02] IF !(ExtData[1]->WorkLocal[2] == 2*) GOTO 0x003F
  9: 0x0032 [0x03] Work_Zone[2] = ExtData[1]->WorkLocal[1]
 10: 0x0037 [0x03] Work_Zone[3] = 0*
 11: 0x003C [0x01] GOTO 0x0054
 12: 0x003F [0x02] IF !(ExtData[1]->WorkLocal[2] == 3*) GOTO 0x0054
 13: 0x0047 [0x03] Work_Zone[2] = 0*
 14: 0x004C [0x03] Work_Zone[3] = 1*
 15: 0x0051 [0x01] GOTO 0x0054

SUBROUTINE_0054:
 16: 0x0054 [0x48] [System] [7215*]:
    → "The light flickers in and out of existence. Inside you see a distorted vision of[ /]$0[/bayld]."
 17: 0x0057 [0x23] WAIT_FOR_DIALOG_INTERACTION
 18: 0x0058 [0x48] [System] [7216*]:
    → "In order to acquire the spoils within, you must approach the light from a direction and distance that negates the distortion level as much as possible."
 19: 0x005B [0x23] WAIT_FOR_DIALOG_INTERACTION
 20: 0x005C [0x03] Work_Zone[2] = ExtData[1]->WorkLocal[3]
 21: 0x0061 [0x48] [System] [7217*]:
    → "Touching the light may cause it to blink out for good. Using your limited knowledge of such phenomena, you sense that you have $0 attempt[/s] remaining."
 22: 0x0064 [0x23] WAIT_FOR_DIALOG_INTERACTION
 23: 0x0065 [0x03] Work_Zone[2] = ExtData[1]->WorkLocal[3]
 24: 0x006A [0x24] CREATE_DIALOG(message_id=7218*, default_option=0*, option_flags=0*)
    → "Pick your poison. (Attempts left: $0) [Do nothing./Attempt to get the item./Give up.]"
 25: 0x0071 [0x25] WAIT_DIALOG_SELECT()
 26: 0x0072 [0x02] IF !(Work_Zone[0] == 0*) GOTO 0x0082
 27: 0x007A [0x03] Work_Zone[1] = 1073741824*
 28: 0x007F [0x01] GOTO 0x00A2
 29: 0x0082 [0x02] IF !(Work_Zone[0] == 1*) GOTO 0x0092
 30: 0x008A [0x03] Work_Zone[1] = 1*
 31: 0x008F [0x01] GOTO 0x00A2
 32: 0x0092 [0x02] IF !(Work_Zone[0] == 2*) GOTO 0x00A2
 33: 0x009A [0x03] Work_Zone[1] = 2*
 34: 0x009F [0x01] GOTO 0x00A2

SUBROUTINE_00A2:
 35: 0x00A2 [0x21] END_EVENT
 36: 0x00A3 [0x00] END_REQSTACK()
```
