# 17842707 - Nunana

## Common Data

| Field            | Value                           |
|------------------|---------------------------------|
| Zone             | Yahse Hunting Grounds (ID: 260) |
| Block Size       | 136 bytes                       |
| Total Events     | 6                               |
| References Count | 4                               |

## List of Events

| Event ID              | Entrypoint   |   Size |   Instructions |
|-----------------------|--------------|--------|----------------|
| [65535](#event-65535) | 0x0000       |      1 |              1 |
| [19](#event-19)       | 0x0001       |      1 |              1 |
| [20](#event-20)       | 0x0002       |      1 |              1 |
| [22](#event-22)       | 0x0003       |     25 |              9 |
| [21](#event-21)       | 0x001C       |     25 |              9 |
| [18](#event-18)       | 0x0035       |     25 |              9 |

## DAT References (imed_data)

|   Index | Hex Value   |   Dec Value |
|---------|-------------|-------------|
|       0 | 0x000A      |          10 |
|       1 | 0x1EAA      |        7850 |
|       2 | 0x1EA9      |        7849 |
|       3 | 0x1E9C      |        7836 |

## String References

- **7836**: Don't even think of stepping-wepping on our turf!
- **7849**: Hoo, boy, have we got a deal for you!
- **7850**: ...Hm? Okay, maybe a deal for other people-weople, but not you!

## Events

### Event 65535

#### Metadata

| Field        | Value   |
|--------------|---------|
| Entrypoint   | 0x0000  |
| Data Size    | 1 bytes |
| Instructions | 1       |

```
      00 01 02 03 04 05 06 07  08 09 0A 0B 0C 0D 0E 0F
      -- -- -- -- -- -- -- --  -- -- -- -- -- -- -- --
0000: 00                                                .               
```

#### Opcodes

```
  0: 0x0000 [0x00] END_REQSTACK()
```

### Event 19

#### Metadata

| Field        | Value   |
|--------------|---------|
| Entrypoint   | 0x0001  |
| Data Size    | 1 bytes |
| Instructions | 1       |

```
      00 01 02 03 04 05 06 07  08 09 0A 0B 0C 0D 0E 0F
      -- -- -- -- -- -- -- --  -- -- -- -- -- -- -- --
0000:    00                                              .              
```

#### Opcodes

```
  0: 0x0001 [0x00] END_REQSTACK()
```

### Event 20

#### Metadata

| Field        | Value   |
|--------------|---------|
| Entrypoint   | 0x0002  |
| Data Size    | 1 bytes |
| Instructions | 1       |

```
      00 01 02 03 04 05 06 07  08 09 0A 0B 0C 0D 0E 0F
      -- -- -- -- -- -- -- --  -- -- -- -- -- -- -- --
0000:       00                                            .             
```

#### Opcodes

```
  0: 0x0002 [0x00] END_REQSTACK()
```

### Event 22

#### Metadata

| Field        | Value    |
|--------------|----------|
| Entrypoint   | 0x0003   |
| Data Size    | 25 bytes |
| Instructions | 9        |

```
      00 01 02 03 04 05 06 07  08 09 0A 0B 0C 0D 0E 0F
      -- -- -- -- -- -- -- --  -- -- -- -- -- -- -- --
0000:          4A F0 FF FF 7F  F8 FF FF 7F 1C 00 80 1E     J............
0010: F0 FF FF 7F 6F 70 1D 01  80 23 21 00              ....op...#!.    
```

#### Opcodes

```
  0: 0x0003 [0x4A] LocalPlayer looks at EventEntity
  1: 0x000C [0x1C] WAIT(10* ticks)
  2: 0x000F [0x1E] EventEntity looks at LocalPlayer and starts talking
  3: 0x0014 [0x6F] WAIT_FRAME_DELAY: Yield until WaitTime reaches zero
  4: 0x0015 [0x70] WAIT_ENTITY_RENDER_FLAG: Wait while EventEntity->Render.Flags3 bit 2 is set (cancel turn if not)
  5: 0x0016 [0x1D] PRINT_EVENT_MESSAGE(message_id=7850*)
    → "...Hm? Okay, maybe a deal for other people-weople, but not you!"
  6: 0x0019 [0x23] WAIT_FOR_DIALOG_INTERACTION
  7: 0x001A [0x21] END_EVENT
  8: 0x001B [0x00] END_REQSTACK()
```

### Event 21

#### Metadata

| Field        | Value    |
|--------------|----------|
| Entrypoint   | 0x001C   |
| Data Size    | 25 bytes |
| Instructions | 9        |

```
      00 01 02 03 04 05 06 07  08 09 0A 0B 0C 0D 0E 0F
      -- -- -- -- -- -- -- --  -- -- -- -- -- -- -- --
0010:                                      4A F0 FF FF              J...
0020: 7F F8 FF FF 7F 1C 00 80  1E F0 FF FF 7F 6F 70 1D  .............op.
0030: 02 80 23 21 00                                    ..#!.           
```

#### Opcodes

```
  0: 0x001C [0x4A] LocalPlayer looks at EventEntity
  1: 0x0025 [0x1C] WAIT(10* ticks)
  2: 0x0028 [0x1E] EventEntity looks at LocalPlayer and starts talking
  3: 0x002D [0x6F] WAIT_FRAME_DELAY: Yield until WaitTime reaches zero
  4: 0x002E [0x70] WAIT_ENTITY_RENDER_FLAG: Wait while EventEntity->Render.Flags3 bit 2 is set (cancel turn if not)
  5: 0x002F [0x1D] PRINT_EVENT_MESSAGE(message_id=7849*)
    → "Hoo, boy, have we got a deal for you!"
  6: 0x0032 [0x23] WAIT_FOR_DIALOG_INTERACTION
  7: 0x0033 [0x21] END_EVENT
  8: 0x0034 [0x00] END_REQSTACK()
```

### Event 18

#### Metadata

| Field        | Value    |
|--------------|----------|
| Entrypoint   | 0x0035   |
| Data Size    | 25 bytes |
| Instructions | 9        |

```
      00 01 02 03 04 05 06 07  08 09 0A 0B 0C 0D 0E 0F
      -- -- -- -- -- -- -- --  -- -- -- -- -- -- -- --
0030:                4A F0 FF  FF 7F F8 FF FF 7F 1C 00       J..........
0040: 80 1E F0 FF FF 7F 6F 70  1D 03 80 23 21 00        ......op...#!.  
```

#### Opcodes

```
  0: 0x0035 [0x4A] LocalPlayer looks at EventEntity
  1: 0x003E [0x1C] WAIT(10* ticks)
  2: 0x0041 [0x1E] EventEntity looks at LocalPlayer and starts talking
  3: 0x0046 [0x6F] WAIT_FRAME_DELAY: Yield until WaitTime reaches zero
  4: 0x0047 [0x70] WAIT_ENTITY_RENDER_FLAG: Wait while EventEntity->Render.Flags3 bit 2 is set (cancel turn if not)
  5: 0x0048 [0x1D] PRINT_EVENT_MESSAGE(message_id=7836*)
    → "Don't even think of stepping-wepping on our turf!"
  6: 0x004B [0x23] WAIT_FOR_DIALOG_INTERACTION
  7: 0x004C [0x21] END_EVENT
  8: 0x004D [0x00] END_REQSTACK()
```
