# 17842729 - Javolio

## Common Data

| Field            | Value                           |
|------------------|---------------------------------|
| Zone             | Yahse Hunting Grounds (ID: 260) |
| Block Size       | 336 bytes                       |
| Total Events     | 4                               |
| References Count | 14                              |

## List of Events

| Event ID              | Entrypoint   |   Size |   Instructions |
|-----------------------|--------------|--------|----------------|
| [65535](#event-65535) | 0x0000       |      1 |              1 |
| [504](#event-504)     | 0x0001       |    125 |             23 |
| [511](#event-511)     | 0x007E       |     52 |             12 |
| [5004](#event-5004)   | 0x00B2       |     69 |             15 |

## DAT References (imed_data)

|   Index | Hex Value   |   Dec Value |
|---------|-------------|-------------|
|       0 | 0x0005      |           5 |
|       1 | 0x1EBE      |        7870 |
|       2 | 0x1EBF      |        7871 |
|       3 | 0x0000      |           0 |
|       4 | 0x0001      |           1 |
|       5 | 0x00C8      |         200 |
|       6 | 0x0002      |           2 |
|       7 | 0x086D      |        2157 |
|       8 | 0x1EC0      |        7872 |
|       9 | 0x1EC1      |        7873 |
|      10 | 0x001E      |          30 |
|      11 | 0x1E98      |        7832 |
|      12 | 0x1E99      |        7833 |
|      13 | 0x1E9A      |        7834 |

## String References

- **7870**: See that boat over there? It's mine. And because I'm feeling particularly generous today, I'll let you take it back to Eastern Adoulin.
- **7871**: Head to Eastern Adoulin? [Yes. I'm done here./No. I've got stuff to do.]
- **7872**: You mean...you don't have $6?
- **7873**: Hmph. No way I'm letting the likes of you on board unless I've got assurances that you are who you say you are!

## Events

### Event 65535

#### Metadata

| Field        | Value   |
|--------------|---------|
| Entrypoint   | 0x0000  |
| Data Size    | 1 bytes |
| Instructions | 1       |

```
      00 01 02 03 04 05 06 07  08 09 0A 0B 0C 0D 0E 0F
      -- -- -- -- -- -- -- --  -- -- -- -- -- -- -- --
0000: 00                                                .               
```

#### Opcodes

```
  0: 0x0000 [0x00] END_REQSTACK()
```

### Event 504

#### Metadata

| Field        | Value     |
|--------------|-----------|
| Entrypoint   | 0x0001    |
| Data Size    | 125 bytes |
| Instructions | 23        |

```
      00 01 02 03 04 05 06 07  08 09 0A 0B 0C 0D 0E 0F
      -- -- -- -- -- -- -- --  -- -- -- -- -- -- -- --
0000:    1E F0 FF FF 7F 6F 70  66 00 80 F8 FF FF 7F F8   .....opf.......
0010: FF FF 7F 74 6C 62 30 1D  01 80 23 24 02 80 03 80  ...tlb0...#$....
0020: 03 80 25 02 00 10 03 80  00 5D 00 42 03 01 10 04  ..%......].B....
0030: 80 43 00 43 01 45 05 80  F0 FF FF 7F F0 FF FF 7F  .C.C.E..........
0040: 66 64 6F 31 03 80 55 05  80 F0 FF FF 7F F0 FF FF  fdo1..U.........
0050: 7F 66 64 6F 31 03 01 10  04 80 01 6D 00 02 00 10  .fdo1......m....
0060: 04 80 00 6D 00 03 01 10  06 80 01 6D 00 66 00 80  ...m.......m.f..
0070: F8 FF FF 7F F8 FF FF 7F  74 6C 62 31 21 00        ........tlb1!.  
```

#### Opcodes

```
  0: 0x0001 [0x1E] EventEntity looks at LocalPlayer and starts talking
  1: 0x0006 [0x6F] WAIT_FRAME_DELAY: Yield until WaitTime reaches zero
  2: 0x0007 [0x70] WAIT_ENTITY_RENDER_FLAG: Wait while EventEntity->Render.Flags3 bit 2 is set (cancel turn if not)
  3: 0x0008 [0x66] LOAD_EXT_SCHEDULER_MAIN: Load scheduler "tlb0" with entities [EventEntity, EventEntity], work=5*
  4: 0x0017 [0x1D] PRINT_EVENT_MESSAGE(message_id=7870*)
    → "See that boat over there? It's mine. And because I'm feeling particularly generous today, I'll let you take it back to Eastern Adoulin."
  5: 0x001A [0x23] WAIT_FOR_DIALOG_INTERACTION
  6: 0x001B [0x24] CREATE_DIALOG(message_id=7871*, default_option=0*, option_flags=0*)
    → "Head to Eastern Adoulin? [Yes. I'm done here./No. I've got stuff to do.]"
  7: 0x0022 [0x25] WAIT_DIALOG_SELECT()
  8: 0x0023 [0x02] IF !(Work_Zone[0] == 0*) GOTO 0x005D
  9: 0x002B [0x42] SET_CLI_EVENT_CANCEL_DATA()
 10: 0x002C [0x03] Work_Zone[1] = 1*
 11: 0x0031 [0x43] SEND_EVENT_UPDATE: Send pending tag to server (packet 0x005B)
 12: 0x0033 [0x43] SEND_EVENT_UPDATE: Check pending flag (skip if not pending)
 13: 0x0035 [0x45] LOAD_SCHEDULED_TASK: Load scheduler "fdo1" with entities [LocalPlayer, LocalPlayer], work=[200*, 0*]
 14: 0x0046 [0x55] WAIT_LOAD_SCHEDULER: Wait for scheduler "fdo1" with entities [LocalPlayer, LocalPlayer], work=200*
 15: 0x0055 [0x03] Work_Zone[1] = 1*
 16: 0x005A [0x01] GOTO 0x006D
 17: 0x005D [0x02] IF !(Work_Zone[0] == 1*) GOTO 0x006D
 18: 0x0065 [0x03] Work_Zone[1] = 2*
 19: 0x006A [0x01] GOTO 0x006D

SUBROUTINE_006D:
 20: 0x006D [0x66] LOAD_EXT_SCHEDULER_MAIN: Load scheduler "tlb1" with entities [EventEntity, EventEntity], work=5*
 21: 0x007C [0x21] END_EVENT
 22: 0x007D [0x00] END_REQSTACK()
```

### Event 511

#### Metadata

| Field        | Value    |
|--------------|----------|
| Entrypoint   | 0x007E   |
| Data Size    | 52 bytes |
| Instructions | 12       |

```
      00 01 02 03 04 05 06 07  08 09 0A 0B 0C 0D 0E 0F
      -- -- -- -- -- -- -- --  -- -- -- -- -- -- -- --
0070:                                            1E F0                ..
0080: FF FF 7F 6F 70 66 00 80  F8 FF FF 7F F8 FF FF 7F  ...opf..........
0090: 74 6C 62 30 03 02 10 07  80 1D 08 80 23 1D 09 80  tlb0........#...
00A0: 23 66 00 80 F8 FF FF 7F  F8 FF FF 7F 74 6C 62 31  #f..........tlb1
00B0: 21 00                                             !.              
```

#### Opcodes

```
  0: 0x007E [0x1E] EventEntity looks at LocalPlayer and starts talking
  1: 0x0083 [0x6F] WAIT_FRAME_DELAY: Yield until WaitTime reaches zero
  2: 0x0084 [0x70] WAIT_ENTITY_RENDER_FLAG: Wait while EventEntity->Render.Flags3 bit 2 is set (cancel turn if not)
  3: 0x0085 [0x66] LOAD_EXT_SCHEDULER_MAIN: Load scheduler "tlb0" with entities [EventEntity, EventEntity], work=5*
  4: 0x0094 [0x03] Work_Zone[2] = 2157*
  5: 0x0099 [0x1D] PRINT_EVENT_MESSAGE(message_id=7872*)
    → "You mean...you don't have $6?"
  6: 0x009C [0x23] WAIT_FOR_DIALOG_INTERACTION
  7: 0x009D [0x1D] PRINT_EVENT_MESSAGE(message_id=7873*)
    → "Hmph. No way I'm letting the likes of you on board unless I've got assurances that you are who you say you are!"
  8: 0x00A0 [0x23] WAIT_FOR_DIALOG_INTERACTION
  9: 0x00A1 [0x66] LOAD_EXT_SCHEDULER_MAIN: Load scheduler "tlb1" with entities [EventEntity, EventEntity], work=5*
 10: 0x00B0 [0x21] END_EVENT
 11: 0x00B1 [0x00] END_REQSTACK()
```

### Event 5004

#### Metadata

| Field        | Value    |
|--------------|----------|
| Entrypoint   | 0x00B2   |
| Data Size    | 69 bytes |
| Instructions | 15       |

```
      00 01 02 03 04 05 06 07  08 09 0A 0B 0C 0D 0E 0F
      -- -- -- -- -- -- -- --  -- -- -- -- -- -- -- --
00B0:       1E F0 FF FF 7F 6F  70 66 00 80 F8 FF FF 7F    .....opf......
00C0: F8 FF FF 7F 74 6C 62 30  1C 0A 80 2B 29 42 10 01  ....tlb0...+)B..
00D0: 0B 80 23 2B 29 42 10 01  0C 80 23 2B 29 42 10 01  ..#+)B....#+)B..
00E0: 0D 80 23 66 00 80 F8 FF  FF 7F F8 FF FF 7F 74 6C  ..#f..........tl
00F0: 62 31 1C 0A 80 21 00                              b1...!.         
```

#### Opcodes

```
  0: 0x00B2 [0x1E] EventEntity looks at LocalPlayer and starts talking
  1: 0x00B7 [0x6F] WAIT_FRAME_DELAY: Yield until WaitTime reaches zero
  2: 0x00B8 [0x70] WAIT_ENTITY_RENDER_FLAG: Wait while EventEntity->Render.Flags3 bit 2 is set (cancel turn if not)
  3: 0x00B9 [0x66] LOAD_EXT_SCHEDULER_MAIN: Load scheduler "tlb0" with entities [EventEntity, EventEntity], work=5*
  4: 0x00C8 [0x1C] WAIT(30* ticks)
  5: 0x00CB [0x2B] Javolio (ID: 17842729/0x01104229) [7832*]:
    → "You want to hear some old sea dog's tales of Adoulin's past? Then boy, have I got a whopper for you!"
  6: 0x00D2 [0x23] WAIT_FOR_DIALOG_INTERACTION
  7: 0x00D3 [0x2B] Javolio (ID: 17842729/0x01104229) [7833*]:
    → "But my knee's achin' somethin' fierce, so I'm not in the mood to tell it. Here, have this map instead."
  8: 0x00DA [0x23] WAIT_FOR_DIALOG_INTERACTION
  9: 0x00DB [0x2B] Javolio (ID: 17842729/0x01104229) [7834*]:
    → "My friends made it long ago, and it charts the currents that rage around the seas here. I know it all by heart, so take it if you think it'll do you some good."
 10: 0x00E2 [0x23] WAIT_FOR_DIALOG_INTERACTION
 11: 0x00E3 [0x66] LOAD_EXT_SCHEDULER_MAIN: Load scheduler "tlb1" with entities [EventEntity, EventEntity], work=5*
 12: 0x00F2 [0x1C] WAIT(30* ticks)
 13: 0x00F5 [0x21] END_EVENT
 14: 0x00F6 [0x00] END_REQSTACK()
```
