# 17842727 - Eddarth

## Common Data

| Field            | Value                           |
|------------------|---------------------------------|
| Zone             | Yahse Hunting Grounds (ID: 260) |
| Block Size       | 264 bytes                       |
| Total Events     | 7                               |
| References Count | 15                              |

## List of Events

| Event ID                 | Entrypoint   |   Size |   Instructions |
|--------------------------|--------------|--------|----------------|
| [65535](#event-65535)    | 0x0000       |      1 |              1 |
| [509](#event-509)        | 0x0001       |     43 |              9 |
| [65535.1](#event-655351) | 0x002C       |      1 |              1 |
| [65535.2](#event-655352) | 0x002D       |     24 |              3 |
| [65535.3](#event-655353) | 0x0045       |     24 |              3 |
| [65535.4](#event-655354) | 0x005D       |     16 |              2 |
| [65535.5](#event-655355) | 0x006D       |     51 |              9 |

## DAT References (imed_data)

|   Index | Hex Value   |   Dec Value |
|---------|-------------|-------------|
|       0 | 0x0009      |           9 |
|       1 | 0x1EBC      |        7868 |
|       2 | 0x0001      |           1 |
|       3 | 0x000C      |          12 |
|       4 | 0x0000      |           0 |
|       5 | 0x0067      |         103 |
|       6 | 0x0066      |         102 |
|       7 | 0x0014      |          20 |
|       8 | 0x008E      |         142 |
|       9 | 0x0039      |          57 |
|      10 | 0x0078      |         120 |
|      11 | 0x0008      |           8 |
|      12 | 0x1DD5B     |      122203 |
|      13 | 0x5B702     |      374530 |
|      14 | 0x0233      |         563 |

## String References

- **7868**: <Sigh> Those Inventors' Coalition folks can get all hoity-toity when it comes to bossing people around.

## Events

### Event 65535

#### Metadata

| Field        | Value   |
|--------------|---------|
| Entrypoint   | 0x0000  |
| Data Size    | 1 bytes |
| Instructions | 1       |

```
      00 01 02 03 04 05 06 07  08 09 0A 0B 0C 0D 0E 0F
      -- -- -- -- -- -- -- --  -- -- -- -- -- -- -- --
0000: 00                                                .               
```

#### Opcodes

```
  0: 0x0000 [0x00] END_REQSTACK()
```

### Event 509

#### Metadata

| Field        | Value    |
|--------------|----------|
| Entrypoint   | 0x0001   |
| Data Size    | 43 bytes |
| Instructions | 9        |

```
      00 01 02 03 04 05 06 07  08 09 0A 0B 0C 0D 0E 0F
      -- -- -- -- -- -- -- --  -- -- -- -- -- -- -- --
0000:    1E F0 FF FF 7F 6F 70  66 00 80 F8 FF FF 7F F8   .....opf.......
0010: FF FF 7F 74 6C 6B 30 1D  01 80 23 66 00 80 F8 FF  ...tlk0...#f....
0020: FF 7F F8 FF FF 7F 74 6C  6B 31 21 00              ......tlk1!.    
```

#### Opcodes

```
  0: 0x0001 [0x1E] EventEntity looks at LocalPlayer and starts talking
  1: 0x0006 [0x6F] WAIT_FRAME_DELAY: Yield until WaitTime reaches zero
  2: 0x0007 [0x70] WAIT_ENTITY_RENDER_FLAG: Wait while EventEntity->Render.Flags3 bit 2 is set (cancel turn if not)
  3: 0x0008 [0x66] LOAD_EXT_SCHEDULER_MAIN: Load scheduler "tlk0" with entities [EventEntity, EventEntity], work=9*
  4: 0x0017 [0x1D] PRINT_EVENT_MESSAGE(message_id=7868*)
    → "<Sigh> Those Inventors' Coalition folks can get all hoity-toity when it comes to bossing people around."
  5: 0x001A [0x23] WAIT_FOR_DIALOG_INTERACTION
  6: 0x001B [0x66] LOAD_EXT_SCHEDULER_MAIN: Load scheduler "tlk1" with entities [EventEntity, EventEntity], work=9*
  7: 0x002A [0x21] END_EVENT
  8: 0x002B [0x00] END_REQSTACK()
```

### Event 65535.1

#### Metadata

| Field        | Value   |
|--------------|---------|
| Entrypoint   | 0x002C  |
| Data Size    | 1 bytes |
| Instructions | 1       |

```
      00 01 02 03 04 05 06 07  08 09 0A 0B 0C 0D 0E 0F
      -- -- -- -- -- -- -- --  -- -- -- -- -- -- -- --
0020:                                      00                       .   
```

#### Opcodes

```
  0: 0x002C [0x00] END_REQSTACK()
```

### Event 65535.2

#### Metadata

| Field        | Value    |
|--------------|----------|
| Entrypoint   | 0x002D   |
| Data Size    | 24 bytes |
| Instructions | 3        |

```
      00 01 02 03 04 05 06 07  08 09 0A 0B 0C 0D 0E 0F
      -- -- -- -- -- -- -- --  -- -- -- -- -- -- -- --
0020:                                         B6 0B 02               ...
0030: 80 03 80 04 80 05 80 05  80 06 80 06 80 04 80 04  ................
0040: 80 C0 02 80 00                                    .....           
```

#### Opcodes

```
  0: 0x002D [0xB6] ENTITY_APPEARANCE_HANDLER(case=Full entity look, race=1*, hair=12*, head=0*, body=103*, hands=103*, legs=102*, feet=102*, main=0*, sub=0*)
  1: 0x0041 [0xC0] EventEntity->Render.Flags3 |= 0x1000 // Set bit 12 (from 1*)
  2: 0x0044 [0x00] END_REQSTACK()
```

### Event 65535.3

#### Metadata

| Field        | Value    |
|--------------|----------|
| Entrypoint   | 0x0045   |
| Data Size    | 24 bytes |
| Instructions | 3        |

```
      00 01 02 03 04 05 06 07  08 09 0A 0B 0C 0D 0E 0F
      -- -- -- -- -- -- -- --  -- -- -- -- -- -- -- --
0040:                B6 0B 02  80 02 80 07 80 08 80 04       ...........
0050: 80 09 80 09 80 04 80 04  80 C0 02 80 00           .............   
```

#### Opcodes

```
  0: 0x0045 [0xB6] ENTITY_APPEARANCE_HANDLER(case=Full entity look, race=1*, hair=1*, head=20*, body=142*, hands=0*, legs=57*, feet=57*, main=0*, sub=0*)
  1: 0x0059 [0xC0] EventEntity->Render.Flags3 |= 0x1000 // Set bit 12 (from 1*)
  2: 0x005C [0x00] END_REQSTACK()
```

### Event 65535.4

#### Metadata

| Field        | Value    |
|--------------|----------|
| Entrypoint   | 0x005D   |
| Data Size    | 16 bytes |
| Instructions | 2        |

```
      00 01 02 03 04 05 06 07  08 09 0A 0B 0C 0D 0E 0F
      -- -- -- -- -- -- -- --  -- -- -- -- -- -- -- --
0050:                                         66 00 80               f..
0060: 27 42 10 01 27 42 10 01  73 69 74 30 00           'B..'B..sit0.   
```

#### Opcodes

```
  0: 0x005D [0x66] LOAD_EXT_SCHEDULER_MAIN: Load scheduler "sit0" with entities [Eddarth (ID: 17842727/0x01104227), Eddarth (ID: 17842727/0x01104227)], work=9*
  1: 0x006C [0x00] END_REQSTACK()
```

### Event 65535.5

#### Metadata

| Field        | Value    |
|--------------|----------|
| Entrypoint   | 0x006D   |
| Data Size    | 51 bytes |
| Instructions | 9        |

```
      00 01 02 03 04 05 06 07  08 09 0A 0B 0C 0D 0E 0F
      -- -- -- -- -- -- -- --  -- -- -- -- -- -- -- --
0060:                                         66 00 80               f..
0070: F8 FF FF 7F F8 FF FF 7F  73 69 74 31 53 F8 FF FF  ........sit1S...
0080: 7F F8 FF FF 7F 73 69 74  31 1C 0A 80 32 0B 80 1F  .....sit1...2...
0090: 00 0C 80 0D 80 0E 80 1F  01 6F 1E F0 FF FF 7F 00  .........o......
```

#### Opcodes

```
  0: 0x006D [0x66] LOAD_EXT_SCHEDULER_MAIN: Load scheduler "sit1" with entities [EventEntity, EventEntity], work=9*
  1: 0x007C [0x53] WAIT_SCHEDULER_TASK: Wait for scheduler "sit1" with entities [EventEntity, EventEntity]
  2: 0x0089 [0x1C] WAIT(120* ticks)
  3: 0x008C [0x32] ExtData[1]->MainSpeed = 8* * 0.1
  4: 0x008F [0x1F] MOVE_ENTITY: EventEntity moves to X=122.203*, Z=374.530*, Y=0.563*
  5: 0x0097 [0x1F] MOVE_ENTITY: Update entity position (mode=1)
  6: 0x0099 [0x6F] WAIT_FRAME_DELAY: Yield until WaitTime reaches zero
  7: 0x009A [0x1E] EventEntity looks at LocalPlayer and starts talking
  8: 0x009F [0x00] END_REQSTACK()
```
