# 17842728 - Gwenlyn

## Common Data

| Field            | Value                           |
|------------------|---------------------------------|
| Zone             | Yahse Hunting Grounds (ID: 260) |
| Block Size       | 292 bytes                       |
| Total Events     | 8                               |
| References Count | 17                              |

## List of Events

| Event ID                 | Entrypoint   |   Size |   Instructions |
|--------------------------|--------------|--------|----------------|
| [65535](#event-65535)    | 0x0000       |      1 |              1 |
| [503](#event-503)        | 0x0001       |     63 |             16 |
| [65535.1](#event-655351) | 0x0040       |      1 |              1 |
| [65535.2](#event-655352) | 0x0041       |     24 |              3 |
| [65535.3](#event-655353) | 0x0059       |     21 |              2 |
| [65535.4](#event-655354) | 0x006E       |     25 |              3 |
| [65535.5](#event-655355) | 0x0087       |     25 |              3 |
| [65535.6](#event-655356) | 0x00A0       |     15 |              5 |

## DAT References (imed_data)

|   Index | Hex Value   |   Dec Value |
|---------|-------------|-------------|
|       0 | 0x000A      |          10 |
|       1 | 0x1EB8      |        7864 |
|       2 | 0x1EB9      |        7865 |
|       3 | 0x0000      |           0 |
|       4 | 0x1EBA      |        7866 |
|       5 | 0x1EBB      |        7867 |
|       6 | 0x0001      |           1 |
|       7 | 0x000F      |          15 |
|       8 | 0x0066      |         102 |
|       9 | 0x0003      |           3 |
|      10 | 0x0002      |           2 |
|      11 | 0x0021      |          33 |
|      12 | 0x00A4      |         164 |
|      13 | 0x000D      |          13 |
|      14 | 0x1DA7B     |      121467 |
|      15 | 0x5BE60     |      376416 |
|      16 | 0x0259      |         601 |

## String References

- **7864**: Hail, good [sir/lady]. That look in your eyes--you've come to brush up on your pioneering skills, have you not?
- **7865**: The name of the battlegrounds has its origins in Yahse Karieyh, the founder of his order--the Order of Karieyh. Though this may appear to be a mere tidbit of trivia, knowing the history of Adoulin gives a more human face to the colonization initiative.
- **7866**: By the by, I've caught word of someone from the Inventors' Coalition getting his hands dirty deep within the battlegrounds. I try to steer clear of that coalition, though, because you never know when one of their "advancements" is going to blow up.
- **7867**: Still, I cannot deny that they have done much good for the city. In fact, you may find some knowledge to help you in your journey if you travel a bit farther in.

## Events

### Event 65535

#### Metadata

| Field        | Value   |
|--------------|---------|
| Entrypoint   | 0x0000  |
| Data Size    | 1 bytes |
| Instructions | 1       |

```
      00 01 02 03 04 05 06 07  08 09 0A 0B 0C 0D 0E 0F
      -- -- -- -- -- -- -- --  -- -- -- -- -- -- -- --
0000: 00                                                .               
```

#### Opcodes

```
  0: 0x0000 [0x00] END_REQSTACK()
```

### Event 503

#### Metadata

| Field        | Value    |
|--------------|----------|
| Entrypoint   | 0x0001   |
| Data Size    | 63 bytes |
| Instructions | 16       |

```
      00 01 02 03 04 05 06 07  08 09 0A 0B 0C 0D 0E 0F
      -- -- -- -- -- -- -- --  -- -- -- -- -- -- -- --
0000:    1E F0 FF FF 7F 6F 70  66 00 80 F8 FF FF 7F F8   .....opf.......
0010: FF FF 7F 74 6C 6B 30 1D  01 80 23 1D 02 80 23 02  ...tlk0...#...#.
0020: 03 10 03 80 00 2F 00 1D  04 80 23 1D 05 80 23 66  ...../....#...#f
0030: 00 80 F8 FF FF 7F F8 FF  FF 7F 74 6C 6B 31 21 00  ..........tlk1!.
```

#### Opcodes

```
  0: 0x0001 [0x1E] EventEntity looks at LocalPlayer and starts talking
  1: 0x0006 [0x6F] WAIT_FRAME_DELAY: Yield until WaitTime reaches zero
  2: 0x0007 [0x70] WAIT_ENTITY_RENDER_FLAG: Wait while EventEntity->Render.Flags3 bit 2 is set (cancel turn if not)
  3: 0x0008 [0x66] LOAD_EXT_SCHEDULER_MAIN: Load scheduler "tlk0" with entities [EventEntity, EventEntity], work=10*
  4: 0x0017 [0x1D] PRINT_EVENT_MESSAGE(message_id=7864*)
    → "Hail, good [sir/lady]. That look in your eyes--you've come to brush up on your pioneering skills, have you not?"
  5: 0x001A [0x23] WAIT_FOR_DIALOG_INTERACTION
  6: 0x001B [0x1D] PRINT_EVENT_MESSAGE(message_id=7865*)
    → "The name of the battlegrounds has its origins in Yahse Karieyh, the founder of his order--the Order of Karieyh. Though this may appear to be a mere tidbit of trivia, knowing the history of Adoulin gives a more human face to the colonization initiative."
  7: 0x001E [0x23] WAIT_FOR_DIALOG_INTERACTION
  8: 0x001F [0x02] IF !(Work_Zone[3] == 0*) GOTO 0x002F
  9: 0x0027 [0x1D] PRINT_EVENT_MESSAGE(message_id=7866*)
    → "By the by, I've caught word of someone from the Inventors' Coalition getting his hands dirty deep within the battlegrounds. I try to steer clear of that coalition, though, because you never know when one of their "advancements" is going to blow up."
 10: 0x002A [0x23] WAIT_FOR_DIALOG_INTERACTION
 11: 0x002B [0x1D] PRINT_EVENT_MESSAGE(message_id=7867*)
    → "Still, I cannot deny that they have done much good for the city. In fact, you may find some knowledge to help you in your journey if you travel a bit farther in."
 12: 0x002E [0x23] WAIT_FOR_DIALOG_INTERACTION
 13: 0x002F [0x66] LOAD_EXT_SCHEDULER_MAIN: Load scheduler "tlk1" with entities [EventEntity, EventEntity], work=10*
 14: 0x003E [0x21] END_EVENT
 15: 0x003F [0x00] END_REQSTACK()
```

### Event 65535.1

#### Metadata

| Field        | Value   |
|--------------|---------|
| Entrypoint   | 0x0040  |
| Data Size    | 1 bytes |
| Instructions | 1       |

```
      00 01 02 03 04 05 06 07  08 09 0A 0B 0C 0D 0E 0F
      -- -- -- -- -- -- -- --  -- -- -- -- -- -- -- --
0040: 00                                                .               
```

#### Opcodes

```
  0: 0x0040 [0x00] END_REQSTACK()
```

### Event 65535.2

#### Metadata

| Field        | Value    |
|--------------|----------|
| Entrypoint   | 0x0041   |
| Data Size    | 24 bytes |
| Instructions | 3        |

```
      00 01 02 03 04 05 06 07  08 09 0A 0B 0C 0D 0E 0F
      -- -- -- -- -- -- -- --  -- -- -- -- -- -- -- --
0040:    B6 0B 06 80 07 80 03  80 08 80 03 80 08 80 09   ...............
0050: 80 03 80 03 80 C0 06 80  00                       .........       
```

#### Opcodes

```
  0: 0x0041 [0xB6] ENTITY_APPEARANCE_HANDLER(case=Full entity look, race=1*, hair=15*, head=0*, body=102*, hands=0*, legs=102*, feet=3*, main=0*, sub=0*)
  1: 0x0055 [0xC0] EventEntity->Render.Flags3 |= 0x1000 // Set bit 12 (from 1*)
  2: 0x0058 [0x00] END_REQSTACK()
```

### Event 65535.3

#### Metadata

| Field        | Value    |
|--------------|----------|
| Entrypoint   | 0x0059   |
| Data Size    | 21 bytes |
| Instructions | 2        |

```
      00 01 02 03 04 05 06 07  08 09 0A 0B 0C 0D 0E 0F
      -- -- -- -- -- -- -- --  -- -- -- -- -- -- -- --
0050:                             B6 0B 0A 80 06 80 03           .......
0060: 80 0B 80 08 80 0C 80 0C  80 03 80 03 80 00        ..............  
```

#### Opcodes

```
  0: 0x0059 [0xB6] ENTITY_APPEARANCE_HANDLER(case=Full entity look, race=2*, hair=1*, head=0*, body=33*, hands=102*, legs=164*, feet=164*, main=0*, sub=0*)
  1: 0x006D [0x00] END_REQSTACK()
```

### Event 65535.4

#### Metadata

| Field        | Value    |
|--------------|----------|
| Entrypoint   | 0x006E   |
| Data Size    | 25 bytes |
| Instructions | 3        |

```
      00 01 02 03 04 05 06 07  08 09 0A 0B 0C 0D 0E 0F
      -- -- -- -- -- -- -- --  -- -- -- -- -- -- -- --
0060:                                            B4 00                ..
0070: 00 00 56 69 63 74 69 6D  00 00 00 00 00 00 00 00  ..Victim........
0080: 00 00 B5 00 00 00 00                              .......         
```

#### Opcodes

```
  0: 0x006E [0xB4] UI_WINDOW_STRING_HANDLER(case=0x00 - Copy string from opcode, work_offset=ExtData[1]->WorkLocal[0], string="Victim")
  1: 0x0082 [0xB5] SET_EVENT_ENTITY_NAME: Change EventEntity name to ExtData[1]->WorkLocal[0]
  2: 0x0086 [0x00] END_REQSTACK()
```

### Event 65535.5

#### Metadata

| Field        | Value    |
|--------------|----------|
| Entrypoint   | 0x0087   |
| Data Size    | 25 bytes |
| Instructions | 3        |

```
      00 01 02 03 04 05 06 07  08 09 0A 0B 0C 0D 0E 0F
      -- -- -- -- -- -- -- --  -- -- -- -- -- -- -- --
0080:                      B4  00 00 00 47 77 65 6E 6C         ....Gwenl
0090: 79 6E 00 00 00 00 00 00  00 00 00 B5 00 00 00 00  yn..............
```

#### Opcodes

```
  0: 0x0087 [0xB4] UI_WINDOW_STRING_HANDLER(case=0x00 - Copy string from opcode, work_offset=ExtData[1]->WorkLocal[0], string="Gwenlyn")
  1: 0x009B [0xB5] SET_EVENT_ENTITY_NAME: Change EventEntity name to ExtData[1]->WorkLocal[0]
  2: 0x009F [0x00] END_REQSTACK()
```

### Event 65535.6

#### Metadata

| Field        | Value    |
|--------------|----------|
| Entrypoint   | 0x00A0   |
| Data Size    | 15 bytes |
| Instructions | 5        |

```
      00 01 02 03 04 05 06 07  08 09 0A 0B 0C 0D 0E 0F
      -- -- -- -- -- -- -- --  -- -- -- -- -- -- -- --
00A0: 32 0D 80 1F 00 0E 80 0F  80 10 80 1F 01 6F 00     2............o. 
```

#### Opcodes

```
  0: 0x00A0 [0x32] ExtData[1]->MainSpeed = 13* * 0.1
  1: 0x00A3 [0x1F] MOVE_ENTITY: EventEntity moves to X=121.467*, Z=376.416*, Y=0.601*
  2: 0x00AB [0x1F] MOVE_ENTITY: Update entity position (mode=1)
  3: 0x00AD [0x6F] WAIT_FRAME_DELAY: Yield until WaitTime reaches zero
  4: 0x00AE [0x00] END_REQSTACK()
```
