# Event 554

## Metadata

| Field           | Value    |
|-----------------|----------|
| Event Index     | 14/14    |
| Offset          | 0x00D4   |
| Data Size       | 33 bytes |
| Calculated Size | 33 bytes |
| Instructions    | 12       |

```
      00 01 02 03 04 05 06 07  08 09 0A 0B 0C 0D 0E 0F
      -- -- -- -- -- -- -- --  -- -- -- -- -- -- -- --
00D0:             1E F0 FF FF  7F 6F 70 29 08 B6 10 0F      .....op)....
00E0: 01 01 1D 0D 80 23 1D 0E  80 23 29 08 B6 10 0F 01  .....#...#).....
00F0: 02 20 00 21 00                                    . .!.           
```

## Opcodes

```
  0: 0x00D4 [0x1E] EventEntity looks at LocalPlayer and starts talking
  1: 0x00D9 [0x6F] WAIT_FRAME_DELAY: Yield until WaitTime reaches zero
  2: 0x00DA [0x70] WAIT_ENTITY_RENDER_FLAG: Wait while EventEntity->Render.Flags3 bit 2 is set (cancel turn if not)
  3: 0x00DB [0x29] REQ_SET_WAIT(priority=0x08, entity_id=Wani Casdohry (ID: 17764534/0x010F10B6), tag_num=0x01)
  4: 0x00E2 [0x1D] PRINT_EVENT_MESSAGE(message_id=9406*)
    → "We found many earrings but had a terrible time trying to find the missing halves...I thought furrr was going to fly.\u007F1\u0000\u0007"
  5: 0x00E5 [0x23] WAIT_FOR_DIALOG_INTERACTION
  6: 0x00E6 [0x1D] PRINT_EVENT_MESSAGE(message_id=9407*)
    → "I wonder if the Mithran Tracker really believes that the daughter is dead... We can't let our guarrrd down yet.\u007F1\u0000\u0007"
  7: 0x00E9 [0x23] WAIT_FOR_DIALOG_INTERACTION
  8: 0x00EA [0x29] REQ_SET_WAIT(priority=0x08, entity_id=Wani Casdohry (ID: 17764534/0x010F10B6), tag_num=0x02)
  9: 0x00F1 [0x20] SET_CLI_EVENT_UC_FLAG: Unlock player control
 10: 0x00F3 [0x21] END_EVENT
 11: 0x00F4 [0x00] END_REQSTACK()
```
