# Event 86

## Metadata

| Field           | Value    |
|-----------------|----------|
| Event Index     | 6/14     |
| Offset          | 0x0044   |
| Data Size       | 33 bytes |
| Calculated Size | 33 bytes |
| Instructions    | 12       |

```
      00 01 02 03 04 05 06 07  08 09 0A 0B 0C 0D 0E 0F
      -- -- -- -- -- -- -- --  -- -- -- -- -- -- -- --
0040:             1E F0 FF FF  7F 6F 70 29 08 B6 10 0F      .....op)....
0050: 01 01 1D 04 80 23 1D 05  80 23 29 08 B6 10 0F 01  .....#...#).....
0060: 02 20 00 21 00                                    . .!.           
```

## Opcodes

```
  0: 0x0044 [0x1E] EventEntity looks at LocalPlayer and starts talking
  1: 0x0049 [0x6F] WAIT_FRAME_DELAY: Yield until WaitTime reaches zero
  2: 0x004A [0x70] WAIT_ENTITY_RENDER_FLAG: Wait while EventEntity->Render.Flags3 bit 2 is set (cancel turn if not)
  3: 0x004B [0x29] REQ_SET_WAIT(priority=0x08, entity_id=Wani Casdohry (ID: 17764534/0x010F10B6), tag_num=0x01)
  4: 0x0052 [0x1D] PRINT_EVENT_MESSAGE(message_id=7610*)
    → "You can get your paws on \u0001\u0005%\u0002\u0001\u0000\u0000 by defeating those Yagudo beastmen. But you won't please the Tarutaru very much if you go arrround fighting Yagudo!\u007F1\u0000\u0007"
  5: 0x0055 [0x23] WAIT_FOR_DIALOG_INTERACTION
  6: 0x0056 [0x1D] PRINT_EVENT_MESSAGE(message_id=7611*)
    → "Windurst is currently trying to maintain amicable relations with the Yagudo. It's a very different worrrld from what it was twenty years ago...\u007F1\u0000\u0007"
  7: 0x0059 [0x23] WAIT_FOR_DIALOG_INTERACTION
  8: 0x005A [0x29] REQ_SET_WAIT(priority=0x08, entity_id=Wani Casdohry (ID: 17764534/0x010F10B6), tag_num=0x02)
  9: 0x0061 [0x20] SET_CLI_EVENT_UC_FLAG: Unlock player control
 10: 0x0063 [0x21] END_EVENT
 11: 0x0064 [0x00] END_REQSTACK()
```
