# 17621596 - Trion

## Common Data

| Field            | Value                  |
|------------------|------------------------|
| Zone             | Qu'Bia Arena (ID: 206) |
| Block Size       | 344 bytes              |
| Total Events     | 11                     |
| References Count | 27                     |

## List of Events

| Event ID                 | Entrypoint   |   Size |   Instructions |
|--------------------------|--------------|--------|----------------|
| [65535](#event-65535)    | 0x0000       |      1 |              1 |
| [32001](#event-32001)    | 0x0001       |     13 |              3 |
| [65535.1](#event-655351) | 0x000E       |     12 |              4 |
| [65535.2](#event-655352) | 0x001A       |     10 |              2 |
| [65535.3](#event-655353) | 0x0024       |     12 |              4 |
| [65535.4](#event-655354) | 0x0030       |     27 |              6 |
| [65535.5](#event-655355) | 0x004B       |     17 |              5 |
| [32004](#event-32004)    | 0x005C       |     10 |              2 |
| [65535.6](#event-655356) | 0x0066       |     15 |              5 |
| [65535.7](#event-655357) | 0x0075       |     29 |              3 |
| [65535.8](#event-655358) | 0x0092       |     29 |              3 |

## DAT References (imed_data)

|   Index | Hex Value   |   Dec Value |
|---------|-------------|-------------|
|       0 | 0x000D      |          13 |
|       1 | 0xFFF9E55D  |  4294567261 |
|       2 | 0x6166B     |      398955 |
|       3 | 0xFFFCEC67  |  4294765671 |
|       4 | 0x03E8      |        1000 |
|       5 | 0xFFF9E533  |  4294567219 |
|       6 | 0x60F7F     |      397183 |
|       7 | 0xFFFF6BBA  |  4294929338 |
|       8 | 0xFFFF04B7  |  4294902967 |
|       9 | 0xFFFF90FD  |  4294938877 |
|      10 | 0x0568      |        1384 |
|      11 | 0xFFFF69B8  |  4294928824 |
|      12 | 0xFFFF0071  |  4294901873 |
|      13 | 0xFFFF90EF  |  4294938863 |
|      14 | 0xFFFF679D  |  4294928285 |
|      15 | 0xFFFEF7BB  |  4294899643 |
|      16 | 0xFFFF90D5  |  4294938837 |
|      17 | 0xFFFF4F9F  |  4294922143 |
|      18 | 0xFFFECBEE  |  4294888430 |
|      19 | 0xFFFF90AD  |  4294938797 |
|      20 | 0xFFF9E54F  |  4294567247 |
|      21 | 0x68CDB     |      429275 |
|      22 | 0xFFFCEA74  |  4294765172 |
|      23 | 0x0416      |        1046 |
|      24 | 0xFFF9E5C4  |  4294567364 |
|      25 | 0x670DC     |      422108 |
|      26 | 0x0075      |         117 |

## Events

### Event 65535

#### Metadata

| Field        | Value   |
|--------------|---------|
| Entrypoint   | 0x0000  |
| Data Size    | 1 bytes |
| Instructions | 1       |

```
      00 01 02 03 04 05 06 07  08 09 0A 0B 0C 0D 0E 0F
      -- -- -- -- -- -- -- --  -- -- -- -- -- -- -- --
0000: 00                                                .               
```

#### Opcodes

```
  0: 0x0000 [0x00] END_REQSTACK()
```

### Event 32001

#### Metadata

| Field        | Value    |
|--------------|----------|
| Entrypoint   | 0x0001   |
| Data Size    | 13 bytes |
| Instructions | 3        |

```
      00 01 02 03 04 05 06 07  08 09 0A 0B 0C 0D 0E 0F
      -- -- -- -- -- -- -- --  -- -- -- -- -- -- -- --
0000:    32 00 80 37 01 80 02  80 03 80 04 80 00         2..7.........  
```

#### Opcodes

```
  0: 0x0001 [0x32] ExtData[1]->MainSpeed = 13* * 0.1
  1: 0x0004 [0x37] UPDATE_EVENT_POSITION_AND_DIR: x=-400.035*, z=398.955*, y=-201.625*, direction=87.9°*
  2: 0x000D [0x00] END_REQSTACK()
```

### Event 65535.1

#### Metadata

| Field        | Value    |
|--------------|----------|
| Entrypoint   | 0x000E   |
| Data Size    | 12 bytes |
| Instructions | 4        |

```
      00 01 02 03 04 05 06 07  08 09 0A 0B 0C 0D 0E 0F
      -- -- -- -- -- -- -- --  -- -- -- -- -- -- -- --
0000:                                            1F 00                ..
0010: 05 80 06 80 03 80 1F 01  6F 00                    ........o.      
```

#### Opcodes

```
  0: 0x000E [0x1F] MOVE_ENTITY: EventEntity moves to X=-400.077*, Z=397.183*, Y=-201.625*
  1: 0x0016 [0x1F] MOVE_ENTITY: Update entity position (mode=1)
  2: 0x0018 [0x6F] WAIT_FRAME_DELAY: Yield until WaitTime reaches zero
  3: 0x0019 [0x00] END_REQSTACK()
```

### Event 65535.2

#### Metadata

| Field        | Value    |
|--------------|----------|
| Entrypoint   | 0x001A   |
| Data Size    | 10 bytes |
| Instructions | 2        |

```
      00 01 02 03 04 05 06 07  08 09 0A 0B 0C 0D 0E 0F
      -- -- -- -- -- -- -- --  -- -- -- -- -- -- -- --
0010:                                37 07 80 08 80 09            7.....
0020: 80 0A 80 00                                       ....            
```

#### Opcodes

```
  0: 0x001A [0x37] UPDATE_EVENT_POSITION_AND_DIR: x=-37.958*, z=-64.329*, y=-28.419*, direction=121.6°*
  1: 0x0023 [0x00] END_REQSTACK()
```

### Event 65535.3

#### Metadata

| Field        | Value    |
|--------------|----------|
| Entrypoint   | 0x0024   |
| Data Size    | 12 bytes |
| Instructions | 4        |

```
      00 01 02 03 04 05 06 07  08 09 0A 0B 0C 0D 0E 0F
      -- -- -- -- -- -- -- --  -- -- -- -- -- -- -- --
0020:             1F 00 0B 80  0C 80 0D 80 1F 01 6F 00      ..........o.
```

#### Opcodes

```
  0: 0x0024 [0x1F] MOVE_ENTITY: EventEntity moves to X=-38.472*, Z=-65.423*, Y=-28.433*
  1: 0x002C [0x1F] MOVE_ENTITY: Update entity position (mode=1)
  2: 0x002E [0x6F] WAIT_FRAME_DELAY: Yield until WaitTime reaches zero
  3: 0x002F [0x00] END_REQSTACK()
```

### Event 65535.4

#### Metadata

| Field        | Value    |
|--------------|----------|
| Entrypoint   | 0x0030   |
| Data Size    | 27 bytes |
| Instructions | 6        |

```
      00 01 02 03 04 05 06 07  08 09 0A 0B 0C 0D 0E 0F
      -- -- -- -- -- -- -- --  -- -- -- -- -- -- -- --
0030: 7B F8 FF FF 7F 1F 00 0E  80 0F 80 10 80 1F 01 6F  {..............o
0040: 79 00 F8 FF FF 7F 67 E2  0C 01 00                 y.....g....     
```

#### Opcodes

```
  0: 0x0030 [0x7B] EventEntity stops talking
  1: 0x0035 [0x1F] MOVE_ENTITY: EventEntity moves to X=-39.011*, Z=-67.653*, Y=-28.459*
  2: 0x003D [0x1F] MOVE_ENTITY: Update entity position (mode=1)
  3: 0x003F [0x6F] WAIT_FRAME_DELAY: Yield until WaitTime reaches zero
  4: 0x0040 [0x79] EventEntity looks at Nonterene (ID: 17621607/0x010CE267) (Basic look)
  5: 0x004A [0x00] END_REQSTACK()
```

### Event 65535.5

#### Metadata

| Field        | Value    |
|--------------|----------|
| Entrypoint   | 0x004B   |
| Data Size    | 17 bytes |
| Instructions | 5        |

```
      00 01 02 03 04 05 06 07  08 09 0A 0B 0C 0D 0E 0F
      -- -- -- -- -- -- -- --  -- -- -- -- -- -- -- --
0040:                                   7B F8 FF FF 7F             {....
0050: 1F 00 11 80 12 80 13 80  1F 01 6F 00              ..........o.    
```

#### Opcodes

```
  0: 0x004B [0x7B] EventEntity stops talking
  1: 0x0050 [0x1F] MOVE_ENTITY: EventEntity moves to X=-45.153*, Z=-78.866*, Y=-28.499*
  2: 0x0058 [0x1F] MOVE_ENTITY: Update entity position (mode=1)
  3: 0x005A [0x6F] WAIT_FRAME_DELAY: Yield until WaitTime reaches zero
  4: 0x005B [0x00] END_REQSTACK()
```

### Event 32004

#### Metadata

| Field        | Value    |
|--------------|----------|
| Entrypoint   | 0x005C   |
| Data Size    | 10 bytes |
| Instructions | 2        |

```
      00 01 02 03 04 05 06 07  08 09 0A 0B 0C 0D 0E 0F
      -- -- -- -- -- -- -- --  -- -- -- -- -- -- -- --
0050:                                      37 14 80 15              7...
0060: 80 16 80 17 80 00                                 ......          
```

#### Opcodes

```
  0: 0x005C [0x37] UPDATE_EVENT_POSITION_AND_DIR: x=-400.049*, z=429.275*, y=-202.124*, direction=91.9°*
  1: 0x0065 [0x00] END_REQSTACK()
```

### Event 65535.6

#### Metadata

| Field        | Value    |
|--------------|----------|
| Entrypoint   | 0x0066   |
| Data Size    | 15 bytes |
| Instructions | 5        |

```
      00 01 02 03 04 05 06 07  08 09 0A 0B 0C 0D 0E 0F
      -- -- -- -- -- -- -- --  -- -- -- -- -- -- -- --
0060:                   32 00  80 1F 00 18 80 19 80 16        2.........
0070: 80 1F 01 6F 00                                    ...o.           
```

#### Opcodes

```
  0: 0x0066 [0x32] ExtData[1]->MainSpeed = 13* * 0.1
  1: 0x0069 [0x1F] MOVE_ENTITY: EventEntity moves to X=-399.932*, Z=422.108*, Y=-202.124*
  2: 0x0071 [0x1F] MOVE_ENTITY: Update entity position (mode=1)
  3: 0x0073 [0x6F] WAIT_FRAME_DELAY: Yield until WaitTime reaches zero
  4: 0x0074 [0x00] END_REQSTACK()
```

### Event 65535.7

#### Metadata

| Field        | Value    |
|--------------|----------|
| Entrypoint   | 0x0075   |
| Data Size    | 29 bytes |
| Instructions | 3        |

```
      00 01 02 03 04 05 06 07  08 09 0A 0B 0C 0D 0E 0F
      -- -- -- -- -- -- -- --  -- -- -- -- -- -- -- --
0070:                5B 1A 80  F8 FF FF 7F F8 FF FF 7F       [..........
0080: 69 6E 30 30 53 F8 FF FF  7F F8 FF FF 7F 69 6E 30  in00S........in0
0090: 30 00                                             0.              
```

#### Opcodes

```
  0: 0x0075 [0x5B] LOAD_EXT_SCHEDULER: Load scheduler "in00" with entities [EventEntity, EventEntity], work=117*
  1: 0x0084 [0x53] WAIT_SCHEDULER_TASK: Wait for scheduler "in00" with entities [EventEntity, EventEntity]
  2: 0x0091 [0x00] END_REQSTACK()
```

### Event 65535.8

#### Metadata

| Field        | Value    |
|--------------|----------|
| Entrypoint   | 0x0092   |
| Data Size    | 29 bytes |
| Instructions | 3        |

```
      00 01 02 03 04 05 06 07  08 09 0A 0B 0C 0D 0E 0F
      -- -- -- -- -- -- -- --  -- -- -- -- -- -- -- --
0090:       5B 1A 80 F8 FF FF  7F F8 FF FF 7F 69 6E 30    [..........in0
00A0: 31 53 F8 FF FF 7F F8 FF  FF 7F 69 6E 30 31 00     1S........in01. 
```

#### Opcodes

```
  0: 0x0092 [0x5B] LOAD_EXT_SCHEDULER: Load scheduler "in01" with entities [EventEntity, EventEntity], work=117*
  1: 0x00A1 [0x53] WAIT_SCHEDULER_TASK: Wait for scheduler "in01" with entities [EventEntity, EventEntity]
  2: 0x00AE [0x00] END_REQSTACK()
```
