# 17621606 - Pieuje

## Common Data

| Field            | Value                  |
|------------------|------------------------|
| Zone             | Qu'Bia Arena (ID: 206) |
| Block Size       | 140 bytes              |
| Total Events     | 4                      |
| References Count | 12                     |

## List of Events

| Event ID                 | Entrypoint   |   Size |   Instructions |
|--------------------------|--------------|--------|----------------|
| [65535](#event-65535)    | 0x0000       |      1 |              1 |
| [32001](#event-32001)    | 0x0001       |     13 |              3 |
| [65535.1](#event-655351) | 0x000E       |     19 |              7 |
| [65535.2](#event-655352) | 0x0021       |     25 |              8 |

## DAT References (imed_data)

|   Index | Hex Value   |   Dec Value |
|---------|-------------|-------------|
|       0 | 0xFFFF5561  |  4294923617 |
|       1 | 0xFFFED947  |  4294891847 |
|       2 | 0xFFFF90AD  |  4294938797 |
|       3 | 0x0D58      |        3416 |
|       4 | 0x000D      |          13 |
|       5 | 0xFFFF679A  |  4294928282 |
|       6 | 0xFFFEF850  |  4294899792 |
|       7 | 0xFFFF90D7  |  4294938839 |
|       8 | 0xFFFF4D7A  |  4294921594 |
|       9 | 0xFFFEC88A  |  4294887562 |
|      10 | 0xFFFF33F7  |  4294915063 |
|      11 | 0xFFFEC805  |  4294887429 |

## Events

### Event 65535

#### Metadata

| Field        | Value   |
|--------------|---------|
| Entrypoint   | 0x0000  |
| Data Size    | 1 bytes |
| Instructions | 1       |

```
      00 01 02 03 04 05 06 07  08 09 0A 0B 0C 0D 0E 0F
      -- -- -- -- -- -- -- --  -- -- -- -- -- -- -- --
0000: 00                                                .               
```

#### Opcodes

```
  0: 0x0000 [0x00] END_REQSTACK()
```

### Event 32001

#### Metadata

| Field        | Value    |
|--------------|----------|
| Entrypoint   | 0x0001   |
| Data Size    | 13 bytes |
| Instructions | 3        |

```
      00 01 02 03 04 05 06 07  08 09 0A 0B 0C 0D 0E 0F
      -- -- -- -- -- -- -- --  -- -- -- -- -- -- -- --
0000:    37 00 80 01 80 02 80  03 80 32 04 80 00         7........2...  
```

#### Opcodes

```
  0: 0x0001 [0x37] UPDATE_EVENT_POSITION_AND_DIR: x=-43.679*, z=-75.449*, y=-28.499*, direction=300.2°*
  1: 0x000A [0x32] ExtData[1]->MainSpeed = 13* * 0.1
  2: 0x000D [0x00] END_REQSTACK()
```

### Event 65535.1

#### Metadata

| Field        | Value    |
|--------------|----------|
| Entrypoint   | 0x000E   |
| Data Size    | 19 bytes |
| Instructions | 7        |

```
      00 01 02 03 04 05 06 07  08 09 0A 0B 0C 0D 0E 0F
      -- -- -- -- -- -- -- --  -- -- -- -- -- -- -- --
0000:                                            1F 00                ..
0010: 05 80 06 80 07 80 1F 01  6F 1E 5C E2 0C 01 6F 70  ........o.\...op
0020: 00                                                .               
```

#### Opcodes

```
  0: 0x000E [0x1F] MOVE_ENTITY: EventEntity moves to X=-39.014*, Z=-67.504*, Y=-28.457*
  1: 0x0016 [0x1F] MOVE_ENTITY: Update entity position (mode=1)
  2: 0x0018 [0x6F] WAIT_FRAME_DELAY: Yield until WaitTime reaches zero
  3: 0x0019 [0x1E] EventEntity looks at Trion (ID: 17621596/0x010CE25C) and starts talking
  4: 0x001E [0x6F] WAIT_FRAME_DELAY: Yield until WaitTime reaches zero
  5: 0x001F [0x70] WAIT_ENTITY_RENDER_FLAG: Wait while EventEntity->Render.Flags3 bit 2 is set (cancel turn if not)
  6: 0x0020 [0x00] END_REQSTACK()
```

### Event 65535.2

#### Metadata

| Field        | Value    |
|--------------|----------|
| Entrypoint   | 0x0021   |
| Data Size    | 25 bytes |
| Instructions | 8        |

```
      00 01 02 03 04 05 06 07  08 09 0A 0B 0C 0D 0E 0F
      -- -- -- -- -- -- -- --  -- -- -- -- -- -- -- --
0020:    1F 00 08 80 09 80 02  80 1F 01 6F 1F 00 0A 80   ..........o....
0030: 0B 80 02 80 1F 01 6F 22  01 00                    ......o"..      
```

#### Opcodes

```
  0: 0x0021 [0x1F] MOVE_ENTITY: EventEntity moves to X=-45.702*, Z=-79.734*, Y=-28.499*
  1: 0x0029 [0x1F] MOVE_ENTITY: Update entity position (mode=1)
  2: 0x002B [0x6F] WAIT_FRAME_DELAY: Yield until WaitTime reaches zero
  3: 0x002C [0x1F] MOVE_ENTITY: EventEntity moves to X=-52.233*, Z=-79.867*, Y=-28.499*
  4: 0x0034 [0x1F] MOVE_ENTITY: Update entity position (mode=1)
  5: 0x0036 [0x6F] WAIT_FRAME_DELAY: Yield until WaitTime reaches zero
  6: 0x0037 [0x22] ENTITY_HIDE_FLAG(enabled=0x01)
  7: 0x0039 [0x00] END_REQSTACK()
```
