# 17621629 - Mathilde

## Common Data

| Field            | Value                  |
|------------------|------------------------|
| Zone             | Qu'Bia Arena (ID: 206) |
| Block Size       | 232 bytes              |
| Total Events     | 11                     |
| References Count | 8                      |

## List of Events

| Event ID                 | Entrypoint   |   Size |   Instructions |
|--------------------------|--------------|--------|----------------|
| [65535](#event-65535)    | 0x0000       |      1 |              1 |
| [5](#event-5)            | 0x0001       |      4 |              2 |
| [32001](#event-32001)    | 0x0005       |      4 |              2 |
| [65535.1](#event-655351) | 0x0009       |     18 |              2 |
| [65535.2](#event-655352) | 0x001B       |     18 |              2 |
| [65535.3](#event-655353) | 0x002D       |     18 |              2 |
| [65535.4](#event-655354) | 0x003F       |     16 |              2 |
| [65535.5](#event-655355) | 0x004F       |     16 |              2 |
| [65535.6](#event-655356) | 0x005F       |     16 |              2 |
| [65535.7](#event-655357) | 0x006F       |     16 |              2 |
| [65535.8](#event-655358) | 0x007F       |     10 |              2 |

## DAT References (imed_data)

|   Index | Hex Value   |   Dec Value |
|---------|-------------|-------------|
|       0 | 0x0001      |           1 |
|       1 | 0x004C      |          76 |
|       2 | 0x0000      |           0 |
|       3 | 0x0013      |          19 |
|       4 | 0x0A1A      |        2586 |
|       5 | 0x0A14      |        2580 |
|       6 | 0x000A      |          10 |
|       7 | 0x00F0      |         240 |

## Events

### Event 65535

#### Metadata

| Field        | Value   |
|--------------|---------|
| Entrypoint   | 0x0000  |
| Data Size    | 1 bytes |
| Instructions | 1       |

```
      00 01 02 03 04 05 06 07  08 09 0A 0B 0C 0D 0E 0F
      -- -- -- -- -- -- -- --  -- -- -- -- -- -- -- --
0000: 00                                                .               
```

#### Opcodes

```
  0: 0x0000 [0x00] END_REQSTACK()
```

### Event 5

#### Metadata

| Field        | Value   |
|--------------|---------|
| Entrypoint   | 0x0001  |
| Data Size    | 4 bytes |
| Instructions | 2       |

```
      00 01 02 03 04 05 06 07  08 09 0A 0B 0C 0D 0E 0F
      -- -- -- -- -- -- -- --  -- -- -- -- -- -- -- --
0000:    C0 00 80 00                                     ....           
```

#### Opcodes

```
  0: 0x0001 [0xC0] EventEntity->Render.Flags3 |= 0x1000 // Set bit 12 (from 1*)
  1: 0x0004 [0x00] END_REQSTACK()
```

### Event 32001

#### Metadata

| Field        | Value   |
|--------------|---------|
| Entrypoint   | 0x0005  |
| Data Size    | 4 bytes |
| Instructions | 2       |

```
      00 01 02 03 04 05 06 07  08 09 0A 0B 0C 0D 0E 0F
      -- -- -- -- -- -- -- --  -- -- -- -- -- -- -- --
0000:                C0 00 80  00                            ....       
```

#### Opcodes

```
  0: 0x0005 [0xC0] EventEntity->Render.Flags3 |= 0x1000 // Set bit 12 (from 1*)
  1: 0x0008 [0x00] END_REQSTACK()
```

### Event 65535.1

#### Metadata

| Field        | Value    |
|--------------|----------|
| Entrypoint   | 0x0009   |
| Data Size    | 18 bytes |
| Instructions | 2        |

```
      00 01 02 03 04 05 06 07  08 09 0A 0B 0C 0D 0E 0F
      -- -- -- -- -- -- -- --  -- -- -- -- -- -- -- --
0000:                             62 01 80 7D E2 0C 01           b..}...
0010: 7D E2 0C 01 6D 61 69 6E  02 80 00                 }...main...     
```

#### Opcodes

```
  0: 0x0009 [0x62] LOAD_EVENT_SCHEDULER: Load scheduler "main" with entities [Mathilde (ID: 17621629/0x010CE27D), Mathilde (ID: 17621629/0x010CE27D)], work=[76*, 0*]
  1: 0x001A [0x00] END_REQSTACK()
```

### Event 65535.2

#### Metadata

| Field        | Value    |
|--------------|----------|
| Entrypoint   | 0x001B   |
| Data Size    | 18 bytes |
| Instructions | 2        |

```
      00 01 02 03 04 05 06 07  08 09 0A 0B 0C 0D 0E 0F
      -- -- -- -- -- -- -- --  -- -- -- -- -- -- -- --
0010:                                   62 01 80 7D E2             b..}.
0020: 0C 01 7D E2 0C 01 73 65  6E 64 02 80 00           ..}...send...   
```

#### Opcodes

```
  0: 0x001B [0x62] LOAD_EVENT_SCHEDULER: Load scheduler "send" with entities [Mathilde (ID: 17621629/0x010CE27D), Mathilde (ID: 17621629/0x010CE27D)], work=[76*, 0*]
  1: 0x002C [0x00] END_REQSTACK()
```

### Event 65535.3

#### Metadata

| Field        | Value    |
|--------------|----------|
| Entrypoint   | 0x002D   |
| Data Size    | 18 bytes |
| Instructions | 2        |

```
      00 01 02 03 04 05 06 07  08 09 0A 0B 0C 0D 0E 0F
      -- -- -- -- -- -- -- --  -- -- -- -- -- -- -- --
0020:                                         9F 03 80               ...
0030: 7D E2 0C 01 7D E2 0C 01  6D 61 69 6E 02 80 00     }...}...main... 
```

#### Opcodes

```
  0: 0x002D [0x9F] LOAD_SCHEDULED_TASK_ALT: Load scheduler "main" with entities [Mathilde (ID: 17621629/0x010CE27D), Mathilde (ID: 17621629/0x010CE27D)], work=[19*, 0*]
  1: 0x003E [0x00] END_REQSTACK()
```

### Event 65535.4

#### Metadata

| Field        | Value    |
|--------------|----------|
| Entrypoint   | 0x003F   |
| Data Size    | 16 bytes |
| Instructions | 2        |

```
      00 01 02 03 04 05 06 07  08 09 0A 0B 0C 0D 0E 0F
      -- -- -- -- -- -- -- --  -- -- -- -- -- -- -- --
0030:                                               5B                 [
0040: 04 80 7D E2 0C 01 7D E2  0C 01 66 65 69 6C 00     ..}...}...feil. 
```

#### Opcodes

```
  0: 0x003F [0x5B] LOAD_EXT_SCHEDULER: Load scheduler "feil" with entities [Mathilde (ID: 17621629/0x010CE27D), Mathilde (ID: 17621629/0x010CE27D)], work=2586*
  1: 0x004E [0x00] END_REQSTACK()
```

### Event 65535.5

#### Metadata

| Field        | Value    |
|--------------|----------|
| Entrypoint   | 0x004F   |
| Data Size    | 16 bytes |
| Instructions | 2        |

```
      00 01 02 03 04 05 06 07  08 09 0A 0B 0C 0D 0E 0F
      -- -- -- -- -- -- -- --  -- -- -- -- -- -- -- --
0040:                                               5B                 [
0050: 04 80 7D E2 0C 01 7D E2  0C 01 66 65 69 30 00     ..}...}...fei0. 
```

#### Opcodes

```
  0: 0x004F [0x5B] LOAD_EXT_SCHEDULER: Load scheduler "fei0" with entities [Mathilde (ID: 17621629/0x010CE27D), Mathilde (ID: 17621629/0x010CE27D)], work=2586*
  1: 0x005E [0x00] END_REQSTACK()
```

### Event 65535.6

#### Metadata

| Field        | Value    |
|--------------|----------|
| Entrypoint   | 0x005F   |
| Data Size    | 16 bytes |
| Instructions | 2        |

```
      00 01 02 03 04 05 06 07  08 09 0A 0B 0C 0D 0E 0F
      -- -- -- -- -- -- -- --  -- -- -- -- -- -- -- --
0050:                                               5B                 [
0060: 05 80 7D E2 0C 01 7D E2  0C 01 75 74 61 31 00     ..}...}...uta1. 
```

#### Opcodes

```
  0: 0x005F [0x5B] LOAD_EXT_SCHEDULER: Load scheduler "uta1" with entities [Mathilde (ID: 17621629/0x010CE27D), Mathilde (ID: 17621629/0x010CE27D)], work=2580*
  1: 0x006E [0x00] END_REQSTACK()
```

### Event 65535.7

#### Metadata

| Field        | Value    |
|--------------|----------|
| Entrypoint   | 0x006F   |
| Data Size    | 16 bytes |
| Instructions | 2        |

```
      00 01 02 03 04 05 06 07  08 09 0A 0B 0C 0D 0E 0F
      -- -- -- -- -- -- -- --  -- -- -- -- -- -- -- --
0060:                                               5B                 [
0070: 06 80 7D E2 0C 01 7D E2  0C 01 74 6C 6B 31 00     ..}...}...tlk1. 
```

#### Opcodes

```
  0: 0x006F [0x5B] LOAD_EXT_SCHEDULER: Load scheduler "tlk1" with entities [Mathilde (ID: 17621629/0x010CE27D), Mathilde (ID: 17621629/0x010CE27D)], work=10*
  1: 0x007E [0x00] END_REQSTACK()
```

### Event 65535.8

#### Metadata

| Field        | Value    |
|--------------|----------|
| Entrypoint   | 0x007F   |
| Data Size    | 10 bytes |
| Instructions | 2        |

```
      00 01 02 03 04 05 06 07  08 09 0A 0B 0C 0D 0E 0F
      -- -- -- -- -- -- -- --  -- -- -- -- -- -- -- --
0070:                                               6C                 l
0080: 7D E2 0C 01 02 80 07 80  00                       }........       
```

#### Opcodes

```
  0: 0x007F [0x6C] FADE_ENTITY_COLOR(entity_id=Mathilde (ID: 17621629/0x010CE27D), end_alpha=0*, fade_time=240*)
  1: 0x0088 [0x00] END_REQSTACK()
```
