# 0x7FFFFFF0 - Zone Events

## Common Data

| Field            | Value                  |
|------------------|------------------------|
| Zone             | Qu'Bia Arena (ID: 206) |
| Block Size       | 44272 bytes            |
| Total Events     | 23                     |
| References Count | 816                    |

## List of Events

| Event ID                   | Entrypoint   |   Size |   Instructions |
|----------------------------|--------------|--------|----------------|
| [65535](#event-65535)      | 0x0000       |      1 |              1 |
| [65534](#event-65534)      | 0x0001       |      1 |              1 |
| [32000](#event-32000)      | 0x0002       |   2143 |            418 |
| [32002](#event-32002)      | 0x0861       |    494 |             83 |
| [32001](#event-32001)      | 0x0A4F       |   1060 |            185 |
| [32003](#event-32003)      | 0x0E73       |    435 |             77 |
| [32004](#event-32004)      | 0x1026       |   1104 |            146 |
| [32005](#event-32005)      | 0x1476       |  15927 |           2322 |
| [65535.1](#event-655351)   | 0x52AD       |     10 |              2 |
| [65535.2](#event-655352)   | 0x52B7       |     10 |              2 |
| [65535.3](#event-655353)   | 0x52C1       |     10 |              2 |
| [65535.4](#event-655354)   | 0x52CB       |    875 |            149 |
| [65535.5](#event-655355)   | 0x5636       |     10 |              2 |
| [65535.6](#event-655356)   | 0x5640       |     15 |              5 |
| [65535.7](#event-655357)   | 0x564F       |     10 |              2 |
| [65535.8](#event-655358)   | 0x5659       |     14 |              4 |
| [65535.9](#event-655359)   | 0x5667       |     15 |              5 |
| [65535.10](#event-6553510) | 0x5676       |     24 |              4 |
| [65535.11](#event-6553511) | 0x568E       |  18695 |           3217 |
| [65535.12](#event-6553512) | 0x9F95       |     15 |              5 |
| [65535.13](#event-6553513) | 0x9FA4       |     15 |              5 |
| [65535.14](#event-6553514) | 0x9FB3       |      7 |              3 |
| [65535.15](#event-6553515) | 0x9FBA       |      7 |              3 |

## DAT References (imed_data)

|   Index | Hex Value   |   Dec Value |
|---------|-------------|-------------|
|       0 | 0x0000      |           0 |
|       1 | 0x000F      |          15 |
|       2 | 0x0010      |          16 |
|       3 | 0x001F      |          31 |
|       4 | 0xFFFFFFFF  |  4294967295 |
|       5 | 0x0001      |           1 |
|       6 | 0x1DB5      |        7605 |
|       7 | 0x1DA8      |        7592 |
|       8 | 0x0005      |           5 |
|       9 | 0x0002      |           2 |
|      10 | 0x0003      |           3 |
|      11 | 0x0004      |           4 |
|      12 | 0x1C3B      |        7227 |
|      13 | 0x00FF      |         255 |
|      14 | 0x00C8      |         200 |
|      15 | 0x0013      |          19 |
|      16 | 0x0008      |           8 |
|      17 | 0x0009      |           9 |
|      18 | 0x000B      |          11 |
|      19 | 0x1C46      |        7238 |
|      20 | 0x1C47      |        7239 |
|      21 | 0x1C48      |        7240 |
|      22 | 0x1C49      |        7241 |
|      23 | 0x1C6D      |        7277 |
|      24 | 0x0006      |           6 |
|      25 | 0x0007      |           7 |
|      26 | 0x000A      |          10 |
|      27 | 0x000C      |          12 |
|      28 | 0x000D      |          13 |
|      29 | 0x000E      |          14 |
|      30 | 0x0011      |          17 |
|      31 | 0x0012      |          18 |
|      32 | 0x0014      |          20 |
|      33 | 0x0015      |          21 |
|      34 | 0x0016      |          22 |
|      35 | 0x0017      |          23 |
|      36 | 0x0018      |          24 |
|      37 | 0x0019      |          25 |
|      38 | 0x001A      |          26 |
|      39 | 0x001B      |          27 |
|      40 | 0x001C      |          28 |
|      41 | 0x001D      |          29 |
|      42 | 0x001E      |          30 |
|      43 | 0x1DA2      |        7586 |
|      44 | 0x1DA7      |        7591 |
|      45 | 0x1DA6      |        7590 |
|      46 | 0x003C      |          60 |
|      47 | 0x1DB3      |        7603 |
|      48 | 0x1DB2      |        7602 |
|      49 | 0x0064      |         100 |
|      50 | 0x1D8E      |        7566 |
|      51 | 0x007D      |         125 |
|      52 | 0x009D      |         157 |
|      53 | 0x1C3E      |        7230 |
|      54 | 0x00C9      |         201 |
|      55 | 0x2BE00     |      179712 |
|      56 | 0x5163E     |      333374 |
|      57 | 0x2EBC      |       11964 |
|      58 | 0x03C9      |         969 |
|      59 | 0x00B4      |         180 |
|      60 | 0xFFF6C42B  |  4294362155 |
|      61 | 0x752B9     |      479929 |
|      62 | 0xFFFFA767  |  4294944615 |
|      63 | 0x03E0      |         992 |
|      64 | 0xFFFBFE43  |  4294704707 |
|      65 | 0x5C401     |      377857 |
|      66 | 0xFFFDE79F  |  4294829983 |
|      67 | 0x0D92      |        3474 |
|      68 | 0x47AC      |       18348 |
|      69 | 0x76E1C     |      486940 |
|      70 | 0xFFFC93B2  |  4294742962 |
|      71 | 0x00C2      |         194 |
|      72 | 0x388A9     |      231593 |
|      73 | 0x57E9E     |      360094 |
|      74 | 0xFFFD59FC  |  4294793724 |
|      75 | 0x0726      |        1830 |
|      76 | 0x872C0     |      553664 |
|      77 | 0x7FEA3     |      523939 |
|      78 | 0xFFFF6AC3  |  4294929091 |
|      79 | 0x0A65      |        2661 |
|      80 | 0xFFFC7CF1  |  4294737137 |
|      81 | 0x4E49      |       20041 |
|      82 | 0xFFFFA146  |  4294943046 |
|      83 | 0x0809      |        2057 |
|      84 | 0xFFF2A593  |  4294092179 |
|      85 | 0xFFFF548C  |  4294923404 |
|      86 | 0xFFFF442C  |  4294919212 |
|      87 | 0x0201      |         513 |
|      88 | 0xFFF478D5  |  4294211797 |
|      89 | 0x89AEB     |      563947 |
|      90 | 0xFFFE4A5D  |  4294855261 |
|      91 | 0x0DEF      |        3567 |
|      92 | 0x1E173     |      123251 |
|      93 | 0xB8221     |      754209 |
|      94 | 0xFFFD5FA4  |  4294795172 |
|      95 | 0x01B8      |         440 |
|      96 | 0xFFF81ECC  |  4294450892 |
|      97 | 0xFFF3BE05  |  4294163973 |
|      98 | 0x5E8E      |       24206 |
|      99 | 0x01B5      |         437 |
|     100 | 0x012C      |         300 |
|     101 | 0x0080      |         128 |
|     102 | 0xFFF690A7  |  4294348967 |
|     103 | 0xFFF62CE4  |  4294323428 |
|     104 | 0xFFFF9B33  |  4294941491 |
|     105 | 0x0EB1      |        3761 |
|     106 | 0xFFFAEE7D  |  4294635133 |
|     107 | 0xFFF941C6  |  4294525382 |
|     108 | 0xFFFE8CB1  |  4294872241 |
|     109 | 0x0EB0      |        3760 |
|     110 | 0xFFFFCF50  |  4294954832 |
|     111 | 0xFFF61B47  |  4294318919 |
|     112 | 0xFFFD07BB  |  4294772667 |
|     113 | 0x0EBA      |        3770 |
|     114 | 0x4EF35     |      323381 |
|     115 | 0xFFF93A6F  |  4294523503 |
|     116 | 0xFFFE5868  |  4294858856 |
|     117 | 0x0EA0      |        3744 |
|     118 | 0x92763     |      599907 |
|     119 | 0xFFF5AB97  |  4294290327 |
|     120 | 0xFFFFA837  |  4294944823 |
|     121 | 0x0EB3      |        3763 |
|     122 | 0xFFFF6DC5  |  4294929861 |
|     123 | 0xFFFF0371  |  4294902641 |
|     124 | 0xFFFF90FD  |  4294938877 |
|     125 | 0x0542      |        1346 |
|     126 | 0x00A8      |         168 |
|     127 | 0x30D7B     |      200059 |
|     128 | 0xFFFFAA3A  |  4294945338 |
|     129 | 0xFFFFFF06  |  4294967046 |
|     130 | 0x0411      |        1041 |
|     131 | 0x00CA      |         202 |
|     132 | 0x837EC     |      538604 |
|     133 | 0x7A88C     |      501900 |
|     134 | 0xFFFFC98A  |  4294953354 |
|     135 | 0x0CBC      |        3260 |
|     136 | 0x00CB      |         203 |
|     137 | 0x870F5     |      553205 |
|     138 | 0x8FF41     |      589633 |
|     139 | 0xFFFFFFEB  |  4294967275 |
|     140 | 0x0587      |        1415 |
|     141 | 0x00D3      |         211 |
|     142 | 0x8AF88     |      569224 |
|     143 | 0x85E6E     |      548462 |
|     144 | 0x8FE5      |       36837 |
|     145 | 0x02A1      |         673 |
|     146 | 0x0024      |          36 |
|     147 | 0x1D90      |        7568 |
|     148 | 0x1D8F      |        7567 |
|     149 | 0x1DB1      |        7601 |
|     150 | 0x1D92      |        7570 |
|     151 | 0x1D91      |        7569 |
|     152 | 0xFFF9EA60  |  4294568544 |
|     153 | 0x629BA     |      403898 |
|     154 | 0xFFFCEC67  |  4294765671 |
|     155 | 0x057A      |        1402 |
|     156 | 0x00D7      |         215 |
|     157 | 0x002D      |          45 |
|     158 | 0x1DC8      |        7624 |
|     159 | 0x1DC9      |        7625 |
|     160 | 0x1DCA      |        7626 |
|     161 | 0x0078      |         120 |
|     162 | 0x00F3      |         243 |
|     163 | 0x005A      |          90 |
|     164 | 0x1DCB      |        7627 |
|     165 | 0x1DCC      |        7628 |
|     166 | 0x007F      |         127 |
|     167 | 0x00FA      |         250 |
|     168 | 0xFFFCAB79  |  4294749049 |
|     169 | 0x4E2E      |       20014 |
|     170 | 0xFFFF9FD0  |  4294942672 |
|     171 | 0x0055      |          85 |
|     172 | 0x006A      |         106 |
|     173 | 0xFFFCBDC4  |  4294753732 |
|     174 | 0x4E64      |       20068 |
|     175 | 0x0818      |        2072 |
|     176 | 0xFFF9E50E  |  4294567182 |
|     177 | 0x79375     |      496501 |
|     178 | 0xFFFCF4B5  |  4294767797 |
|     179 | 0x0401      |        1025 |
|     180 | 0xFFFFFFD7  |  4294967255 |
|     181 | 0x17958     |       96600 |
|     182 | 0x01F4      |         500 |
|     183 | 0x0406      |        1030 |
|     184 | 0x61A2A     |      399914 |
|     185 | 0xFFFB5FB8  |  4294664120 |
|     186 | 0x30F33     |      200499 |
|     187 | 0x03F6      |        1014 |
|     188 | 0xFFF9E594  |  4294567316 |
|     189 | 0x63A73     |      408179 |
|     190 | 0x03FC      |        1020 |
|     191 | 0xFFF9E5BD  |  4294567357 |
|     192 | 0x62084     |      401540 |
|     193 | 0x1DC5      |        7621 |
|     194 | 0x1DC6      |        7622 |
|     195 | 0x00E1      |         225 |
|     196 | 0x1DC7      |        7623 |
|     197 | 0x0053      |          83 |
|     198 | 0x00B5      |         181 |
|     199 | 0x1E01      |        7681 |
|     200 | 0x1E02      |        7682 |
|     201 | 0x1E03      |        7683 |
|     202 | 0x1E04      |        7684 |
|     203 | 0x1E05      |        7685 |
|     204 | 0x1E08      |        7688 |
|     205 | 0x1E09      |        7689 |
|     206 | 0x1E0A      |        7690 |
|     207 | 0x1E0B      |        7691 |
|     208 | 0x1E0C      |        7692 |
|     209 | 0x1E06      |        7686 |
|     210 | 0x1E07      |        7687 |
|     211 | 0x1E0D      |        7693 |
|     212 | 0x1E0E      |        7694 |
|     213 | 0x1E0F      |        7695 |
|     214 | 0x00B7      |         183 |
|     215 | 0x1E10      |        7696 |
|     216 | 0x0020      |          32 |
|     217 | 0x1E11      |        7697 |
|     218 | 0x00AA      |         170 |
|     219 | 0x1E12      |        7698 |
|     220 | 0x1E13      |        7699 |
|     221 | 0x1E14      |        7700 |
|     222 | 0x1E15      |        7701 |
|     223 | 0x1E18      |        7704 |
|     224 | 0x1E19      |        7705 |
|     225 | 0x1E1A      |        7706 |
|     226 | 0x1E1B      |        7707 |
|     227 | 0x1E1C      |        7708 |
|     228 | 0x1E16      |        7702 |
|     229 | 0x1E17      |        7703 |
|     230 | 0x1E1D      |        7709 |
|     231 | 0x1E1E      |        7710 |
|     232 | 0x1E1F      |        7711 |
|     233 | 0x00AF      |         175 |
|     234 | 0x1E20      |        7712 |
|     235 | 0x1E21      |        7713 |
|     236 | 0x1E22      |        7714 |
|     237 | 0x00AD      |         173 |
|     238 | 0x0096      |         150 |
|     239 | 0xFFF9E50D  |  4294567181 |
|     240 | 0x61154     |      397652 |
|     241 | 0xFFFCEC68  |  4294765672 |
|     242 | 0x03FF      |        1023 |
|     243 | 0x00AE      |         174 |
|     244 | 0x1E23      |        7715 |
|     245 | 0x1E24      |        7716 |
|     246 | 0x1E25      |        7717 |
|     247 | 0x1E26      |        7718 |
|     248 | 0x1E27      |        7719 |
|     249 | 0x1E28      |        7720 |
|     250 | 0x1E2B      |        7723 |
|     251 | 0x1E2C      |        7724 |
|     252 | 0x1E2D      |        7725 |
|     253 | 0x1E2E      |        7726 |
|     254 | 0x1E2F      |        7727 |
|     255 | 0x1E29      |        7721 |
|     256 | 0x1E2A      |        7722 |
|     257 | 0x1E30      |        7728 |
|     258 | 0x1E31      |        7729 |
|     259 | 0x03E7      |         999 |
|     260 | 0xFFFFEA13  |  4294961683 |
|     261 | 0x0C98      |        3224 |
|     262 | 0xFFFFF9A7  |  4294965671 |
|     263 | 0x0137      |         311 |
|     264 | 0xFFFFFED1  |  4294966993 |
|     265 | 0x007A      |         122 |
|     266 | 0x090B      |        2315 |
|     267 | 0x0150      |         336 |
|     268 | 0x1E99      |        7833 |
|     269 | 0x1E9A      |        7834 |
|     270 | 0x1E9B      |        7835 |
|     271 | 0x1E9C      |        7836 |
|     272 | 0x1E9D      |        7837 |
|     273 | 0x1E9E      |        7838 |
|     274 | 0x05A9      |        1449 |
|     275 | 0x1E9F      |        7839 |
|     276 | 0xFFF9E517  |  4294567191 |
|     277 | 0x6397C     |      407932 |
|     278 | 0x03F0      |        1008 |
|     279 | 0x6125B     |      397915 |
|     280 | 0x0BAA      |        2986 |
|     281 | 0x0023      |          35 |
|     282 | 0xFFF9E5CE  |  4294567374 |
|     283 | 0x62245     |      401989 |
|     284 | 0x1EB0      |        7856 |
|     285 | 0x1EB1      |        7857 |
|     286 | 0x1EB2      |        7858 |
|     287 | 0x1EB3      |        7859 |
|     288 | 0x1EB6      |        7862 |
|     289 | 0x1EB7      |        7863 |
|     290 | 0x1EB8      |        7864 |
|     291 | 0x1EB9      |        7865 |
|     292 | 0x1EBA      |        7866 |
|     293 | 0x1EB4      |        7860 |
|     294 | 0x1EB5      |        7861 |
|     295 | 0x1EBB      |        7867 |
|     296 | 0x1EBC      |        7868 |
|     297 | 0x1EBD      |        7869 |
|     298 | 0x1EBE      |        7870 |
|     299 | 0x1EBF      |        7871 |
|     300 | 0x1EC2      |        7874 |
|     301 | 0x1EC3      |        7875 |
|     302 | 0x1EC4      |        7876 |
|     303 | 0x1EC5      |        7877 |
|     304 | 0x1EC6      |        7878 |
|     305 | 0x1EC0      |        7872 |
|     306 | 0x1EC1      |        7873 |
|     307 | 0x1EC7      |        7879 |
|     308 | 0x1EC8      |        7880 |
|     309 | 0x1EC9      |        7881 |
|     310 | 0x1ECA      |        7882 |
|     311 | 0x1ECB      |        7883 |
|     312 | 0x1ECE      |        7886 |
|     313 | 0x1ECF      |        7887 |
|     314 | 0x1ED0      |        7888 |
|     315 | 0x1ED1      |        7889 |
|     316 | 0x1ED2      |        7890 |
|     317 | 0x1ECC      |        7884 |
|     318 | 0x1ECD      |        7885 |
|     319 | 0x1ED3      |        7891 |
|     320 | 0x022B      |         555 |
|     321 | 0x1F4B      |        8011 |
|     322 | 0x0075      |         117 |
|     323 | 0x007E      |         126 |
|     324 | 0x1F4C      |        8012 |
|     325 | 0x0032      |          50 |
|     326 | 0x0179      |         377 |
|     327 | 0x0A13      |        2579 |
|     328 | 0x1370      |        4976 |
|     329 | 0x05AB      |        1451 |
|     330 | 0x1DB6      |        7606 |
|     331 | 0x1DB7      |        7607 |
|     332 | 0x1DB8      |        7608 |
|     333 | 0x1DB9      |        7609 |
|     334 | 0x1DBA      |        7610 |
|     335 | 0xFFFF9C47  |  4294941767 |
|     336 | 0xFFFF4C6A  |  4294921322 |
|     337 | 0xFFFFC7DA  |  4294952922 |
|     338 | 0x07C5      |        1989 |
|     339 | 0x1DBB      |        7611 |
|     340 | 0x0514      |        1300 |
|     341 | 0x1DBC      |        7612 |
|     342 | 0x1DBD      |        7613 |
|     343 | 0xFFF9DCC1  |  4294565057 |
|     344 | 0x61A14     |      399892 |
|     345 | 0x03B8      |         952 |
|     346 | 0x1DCD      |        7629 |
|     347 | 0x1DCE      |        7630 |
|     348 | 0x1DCF      |        7631 |
|     349 | 0x1DD0      |        7632 |
|     350 | 0xFFFF7257  |  4294931031 |
|     351 | 0xFFFF076B  |  4294903659 |
|     352 | 0xFFFF9110  |  4294938896 |
|     353 | 0x0553      |        1363 |
|     354 | 0x1DD1      |        7633 |
|     355 | 0x1DD2      |        7634 |
|     356 | 0x1DD3      |        7635 |
|     357 | 0x1DD4      |        7636 |
|     358 | 0x1DD5      |        7637 |
|     359 | 0x00F0      |         240 |
|     360 | 0x1DD6      |        7638 |
|     361 | 0x1DD7      |        7639 |
|     362 | 0x1DD8      |        7640 |
|     363 | 0x1DD9      |        7641 |
|     364 | 0x1DDA      |        7642 |
|     365 | 0x0539      |        1337 |
|     366 | 0x00AC      |         172 |
|     367 | 0x1E4D      |        7757 |
|     368 | 0x1E4E      |        7758 |
|     369 | 0x007C      |         124 |
|     370 | 0x1E4F      |        7759 |
|     371 | 0x1E50      |        7760 |
|     372 | 0x1E51      |        7761 |
|     373 | 0x1E52      |        7762 |
|     374 | 0x1E55      |        7765 |
|     375 | 0x1E56      |        7766 |
|     376 | 0x1E57      |        7767 |
|     377 | 0x1E58      |        7768 |
|     378 | 0x1E59      |        7769 |
|     379 | 0x1E53      |        7763 |
|     380 | 0x1E54      |        7764 |
|     381 | 0x1E5A      |        7770 |
|     382 | 0x0027      |          39 |
|     383 | 0x003B      |          59 |
|     384 | 0x0045      |          69 |
|     385 | 0x1E5B      |        7771 |
|     386 | 0x1E5C      |        7772 |
|     387 | 0x1E5D      |        7773 |
|     388 | 0x1E5E      |        7774 |
|     389 | 0x1E61      |        7777 |
|     390 | 0x1E62      |        7778 |
|     391 | 0x1E63      |        7779 |
|     392 | 0x1E64      |        7780 |
|     393 | 0x1E65      |        7781 |
|     394 | 0x1E5F      |        7775 |
|     395 | 0x1E60      |        7776 |
|     396 | 0x1E66      |        7782 |
|     397 | 0x1E67      |        7783 |
|     398 | 0x1E68      |        7784 |
|     399 | 0x1E69      |        7785 |
|     400 | 0x1E6A      |        7786 |
|     401 | 0x1E6B      |        7787 |
|     402 | 0x1E6C      |        7788 |
|     403 | 0x1E6D      |        7789 |
|     404 | 0x1E6E      |        7790 |
|     405 | 0x1E6F      |        7791 |
|     406 | 0x1E70      |        7792 |
|     407 | 0x1E71      |        7793 |
|     408 | 0x1E72      |        7794 |
|     409 | 0x1E73      |        7795 |
|     410 | 0x1E74      |        7796 |
|     411 | 0x1E75      |        7797 |
|     412 | 0x1E78      |        7800 |
|     413 | 0x1E79      |        7801 |
|     414 | 0x1E7A      |        7802 |
|     415 | 0x1E7B      |        7803 |
|     416 | 0x1E7C      |        7804 |
|     417 | 0x1E76      |        7798 |
|     418 | 0x1E77      |        7799 |
|     419 | 0x1E7D      |        7805 |
|     420 | 0x1E7F      |        7807 |
|     421 | 0x1E80      |        7808 |
|     422 | 0x1E81      |        7809 |
|     423 | 0x1E82      |        7810 |
|     424 | 0x1E83      |        7811 |
|     425 | 0x1E86      |        7814 |
|     426 | 0x1E87      |        7815 |
|     427 | 0x1E88      |        7816 |
|     428 | 0x1E89      |        7817 |
|     429 | 0x1E8A      |        7818 |
|     430 | 0x1E84      |        7812 |
|     431 | 0x1E85      |        7813 |
|     432 | 0x1E8B      |        7819 |
|     433 | 0x1E8C      |        7820 |
|     434 | 0x1E8D      |        7821 |
|     435 | 0x1E8E      |        7822 |
|     436 | 0x1E8F      |        7823 |
|     437 | 0x1E90      |        7824 |
|     438 | 0x1E93      |        7827 |
|     439 | 0x1E94      |        7828 |
|     440 | 0x1E95      |        7829 |
|     441 | 0x1E96      |        7830 |
|     442 | 0x1E97      |        7831 |
|     443 | 0x1E91      |        7825 |
|     444 | 0x1E92      |        7826 |
|     445 | 0x1E98      |        7832 |
|     446 | 0xFFFFF245  |  4294963781 |
|     447 | 0x07B8      |        1976 |
|     448 | 0x0138      |         312 |
|     449 | 0x1EA0      |        7840 |
|     450 | 0x1EA1      |        7841 |
|     451 | 0x1EA2      |        7842 |
|     452 | 0x1EA3      |        7843 |
|     453 | 0x04E4      |        1252 |
|     454 | 0x1EA4      |        7844 |
|     455 | 0x09FC      |        2556 |
|     456 | 0x1EA5      |        7845 |
|     457 | 0x1EA6      |        7846 |
|     458 | 0x1EA7      |        7847 |
|     459 | 0x03EF      |        1007 |
|     460 | 0xFFF9E5AA  |  4294567338 |
|     461 | 0x61462     |      398434 |
|     462 | 0x1F04      |        7940 |
|     463 | 0x1F05      |        7941 |
|     464 | 0x1F06      |        7942 |
|     465 | 0x1F07      |        7943 |
|     466 | 0x1F0A      |        7946 |
|     467 | 0x1F0B      |        7947 |
|     468 | 0x1F0C      |        7948 |
|     469 | 0x1F0D      |        7949 |
|     470 | 0x1F0E      |        7950 |
|     471 | 0x1F08      |        7944 |
|     472 | 0x1F09      |        7945 |
|     473 | 0x1F0F      |        7951 |
|     474 | 0x1F10      |        7952 |
|     475 | 0x1F11      |        7953 |
|     476 | 0x1F12      |        7954 |
|     477 | 0x1F13      |        7955 |
|     478 | 0x1F16      |        7958 |
|     479 | 0x1F17      |        7959 |
|     480 | 0x1F18      |        7960 |
|     481 | 0x1F19      |        7961 |
|     482 | 0x1F1A      |        7962 |
|     483 | 0x1F14      |        7956 |
|     484 | 0x1F15      |        7957 |
|     485 | 0x1F1B      |        7963 |
|     486 | 0x1F1C      |        7964 |
|     487 | 0x1F1D      |        7965 |
|     488 | 0x1F1E      |        7966 |
|     489 | 0x1F1F      |        7967 |
|     490 | 0x1F22      |        7970 |
|     491 | 0x1F23      |        7971 |
|     492 | 0x1F24      |        7972 |
|     493 | 0x1F25      |        7973 |
|     494 | 0x1F26      |        7974 |
|     495 | 0x1F20      |        7968 |
|     496 | 0x1F21      |        7969 |
|     497 | 0x1F27      |        7975 |
|     498 | 0x1F28      |        7976 |
|     499 | 0x1F29      |        7977 |
|     500 | 0x1F2A      |        7978 |
|     501 | 0x1F2B      |        7979 |
|     502 | 0x1F2E      |        7982 |
|     503 | 0x1F2F      |        7983 |
|     504 | 0x1F30      |        7984 |
|     505 | 0x1F31      |        7985 |
|     506 | 0x1F32      |        7986 |
|     507 | 0x1F2C      |        7980 |
|     508 | 0x1F2D      |        7981 |
|     509 | 0x1F33      |        7987 |
|     510 | 0x1F34      |        7988 |
|     511 | 0x1735      |        5941 |
|     512 | 0xFFFFF9A8  |  4294965672 |
|     513 | 0x0400      |        1024 |
|     514 | 0xFFFFFAFA  |  4294966010 |
|     515 | 0x0533      |        1331 |
|     516 | 0x07D0      |        2000 |
|     517 | 0x08E1      |        2273 |
|     518 | 0xFFFFFA13  |  4294965779 |
|     519 | 0x04B1      |        1201 |
|     520 | 0xFFFFEE5F  |  4294962783 |
|     521 | 0xFFFFFAA0  |  4294965920 |
|     522 | 0x0384      |         900 |
|     523 | 0x0ECA      |        3786 |
|     524 | 0x099B      |        2459 |
|     525 | 0x01CD      |         461 |
|     526 | 0x00D2      |         210 |
|     527 | 0x1F43      |        8003 |
|     528 | 0x1F44      |        8004 |
|     529 | 0x1F45      |        8005 |
|     530 | 0x1F46      |        8006 |
|     531 | 0x1F47      |        8007 |
|     532 | 0x1F48      |        8008 |
|     533 | 0x1F49      |        8009 |
|     534 | 0x010E      |         270 |
|     535 | 0xFFFFFB32  |  4294966066 |
|     536 | 0x0277      |         631 |
|     537 | 0x0742      |        1858 |
|     538 | 0xFFFFFBA0  |  4294966176 |
|     539 | 0xFFFFE849  |  4294961225 |
|     540 | 0x0D6F      |        3439 |
|     541 | 0x0136      |         310 |
|     542 | 0xFFFFE472  |  4294960242 |
|     543 | 0x096F      |        2415 |
|     544 | 0x0959      |        2393 |
|     545 | 0x0031      |          49 |
|     546 | 0x0062      |          98 |
|     547 | 0x0804      |        2052 |
|     548 | 0x1F4D      |        8013 |
|     549 | 0x1F4E      |        8014 |
|     550 | 0x1F4F      |        8015 |
|     551 | 0x1F50      |        8016 |
|     552 | 0x1F51      |        8017 |
|     553 | 0x1F52      |        8018 |
|     554 | 0x0805      |        2053 |
|     555 | 0x1F53      |        8019 |
|     556 | 0x0050      |          80 |
|     557 | 0x1F54      |        8020 |
|     558 | 0x1F55      |        8021 |
|     559 | 0x1F56      |        8022 |
|     560 | 0x1F57      |        8023 |
|     561 | 0x1F58      |        8024 |
|     562 | 0x1C3C      |        7228 |
|     563 | 0x0C00      |        3072 |
|     564 | 0x0065      |         101 |
|     565 | 0x0068      |         104 |
|     566 | 0x006B      |         107 |
|     567 | 0x0067      |         103 |
|     568 | 0x006D      |         109 |
|     569 | 0x0077      |         119 |
|     570 | 0x0081      |         129 |
|     571 | 0xFFFF6816  |  4294928406 |
|     572 | 0xFFFEF923  |  4294900003 |
|     573 | 0xFFFF90DA  |  4294938842 |
|     574 | 0x0563      |        1379 |
|     575 | 0xFFF9EC8C  |  4294569100 |
|     576 | 0x65C44     |      416836 |
|     577 | 0x0444      |        1092 |
|     578 | 0xFFF9F699  |  4294571673 |
|     579 | 0x65C70     |      416880 |
|     580 | 0x04B0      |        1200 |
|     581 | 0xFFF9FEFB  |  4294573819 |
|     582 | 0x658C9     |      415945 |
|     583 | 0x050C      |        1292 |
|     584 | 0xFFF9DC4A  |  4294564938 |
|     585 | 0x65CEC     |      417004 |
|     586 | 0x039B      |         923 |
|     587 | 0xFFF9D3BC  |  4294562748 |
|     588 | 0x65A0A     |      416266 |
|     589 | 0x036B      |         875 |
|     590 | 0xFFF9C8C5  |  4294559941 |
|     591 | 0x656F8     |      415480 |
|     592 | 0x039C      |         924 |
|     593 | 0x08BD      |        2237 |
|     594 | 0x4346      |       17222 |
|     595 | 0x04A2      |        1186 |
|     596 | 0x10CD      |        4301 |
|     597 | 0x3FFF      |       16383 |
|     598 | 0x0499      |        1177 |
|     599 | 0x1857      |        6231 |
|     600 | 0x3B87      |       15239 |
|     601 | 0x0518      |        1304 |
|     602 | 0xFFFFF6E8  |  4294964968 |
|     603 | 0x411E      |       16670 |
|     604 | 0x03F1      |        1009 |
|     605 | 0xFFFFEDAE  |  4294962606 |
|     606 | 0x3F79      |       16249 |
|     607 | 0x0366      |         870 |
|     608 | 0xFFFFE454  |  4294960212 |
|     609 | 0x3C12      |       15378 |
|     610 | 0x031E      |         798 |
|     611 | 0x621A8     |      401832 |
|     612 | 0xFFFA218B  |  4294582667 |
|     613 | 0x306E6     |      198374 |
|     614 | 0x0466      |        1126 |
|     615 | 0x6292D     |      403757 |
|     616 | 0xFFFA1F9C  |  4294582172 |
|     617 | 0x039F      |         927 |
|     618 | 0x6319A     |      405914 |
|     619 | 0xFFFA1D92  |  4294581650 |
|     620 | 0x0328      |         808 |
|     621 | 0x60F18     |      397080 |
|     622 | 0xFFFA2442  |  4294583362 |
|     623 | 0x0372      |         882 |
|     624 | 0x604F0     |      394480 |
|     625 | 0xFFFA1ED3  |  4294581971 |
|     626 | 0x02F3      |         755 |
|     627 | 0x5FC8C     |      392332 |
|     628 | 0xFFFA1733  |  4294580019 |
|     629 | 0x0321      |         801 |
|     630 | 0x0046      |          70 |
|     631 | 0x008C      |         140 |
|     632 | 0x005F      |          95 |
|     633 | 0x0069      |         105 |
|     634 | 0x0052      |          82 |
|     635 | 0x0057      |          87 |
|     636 | 0x005C      |          92 |
|     637 | 0x0059      |          89 |
|     638 | 0x005D      |          93 |
|     639 | 0x0061      |          97 |
|     640 | 0x0060      |          96 |
|     641 | 0x018D      |         397 |
|     642 | 0x0175      |         373 |
|     643 | 0x0170      |         368 |
|     644 | 0x0171      |         369 |
|     645 | 0x014C      |         332 |
|     646 | 0x01C1      |         449 |
|     647 | 0x027C      |         636 |
|     648 | 0x027B      |         635 |
|     649 | 0x027D      |         637 |
|     650 | 0x02D3      |         723 |
|     651 | 0x0326      |         806 |
|     652 | 0x01E1      |         481 |
|     653 | 0x0343      |         835 |
|     654 | 0x0386      |         902 |
|     655 | 0x0388      |         904 |
|     656 | 0x0361      |         865 |
|     657 | 0x0387      |         903 |
|     658 | 0x038A      |         906 |
|     659 | 0x003F      |          63 |
|     660 | 0x0282      |         642 |
|     661 | 0x0283      |         643 |
|     662 | 0x0288      |         648 |
|     663 | 0x0289      |         649 |
|     664 | 0x028A      |         650 |
|     665 | 0x028B      |         651 |
|     666 | 0x029E      |         670 |
|     667 | 0x00C6      |         198 |
|     668 | 0x008E      |         142 |
|     669 | 0x014B      |         331 |
|     670 | 0x0148      |         328 |
|     671 | 0x0166      |         358 |
|     672 | 0x017A      |         378 |
|     673 | 0x0182      |         386 |
|     674 | 0x0183      |         387 |
|     675 | 0x0192      |         402 |
|     676 | 0x01DF      |         479 |
|     677 | 0x01E9      |         489 |
|     678 | 0x00E6      |         230 |
|     679 | 0x00EB      |         235 |
|     680 | 0x00F5      |         245 |
|     681 | 0x00F4      |         244 |
|     682 | 0x00E0      |         224 |
|     683 | 0x00E9      |         233 |
|     684 | 0x009E      |         158 |
|     685 | 0x00E2      |         226 |
|     686 | 0x014F      |         335 |
|     687 | 0x014E      |         334 |
|     688 | 0x0167      |         359 |
|     689 | 0x00E5      |         229 |
|     690 | 0x0169      |         361 |
|     691 | 0x016A      |         362 |
|     692 | 0x0168      |         360 |
|     693 | 0x0133      |         307 |
|     694 | 0x0174      |         372 |
|     695 | 0x018C      |         396 |
|     696 | 0x0194      |         404 |
|     697 | 0x0195      |         405 |
|     698 | 0x0178      |         376 |
|     699 | 0x0240      |         576 |
|     700 | 0x0197      |         407 |
|     701 | 0x0198      |         408 |
|     702 | 0x01A3      |         419 |
|     703 | 0x019E      |         414 |
|     704 | 0x0246      |         582 |
|     705 | 0x0247      |         583 |
|     706 | 0x0248      |         584 |
|     707 | 0x024B      |         587 |
|     708 | 0x024A      |         586 |
|     709 | 0x024F      |         591 |
|     710 | 0x01C3      |         451 |
|     711 | 0x01C4      |         452 |
|     712 | 0x01EF      |         495 |
|     713 | 0x01F0      |         496 |
|     714 | 0x0095      |         149 |
|     715 | 0x0073      |         115 |
|     716 | 0x0034      |          52 |
|     717 | 0x005E      |          94 |
|     718 | 0x0072      |         114 |
|     719 | 0x006C      |         108 |
|     720 | 0x003A      |          58 |
|     721 | 0x0035      |          53 |
|     722 | 0x0085      |         133 |
|     723 | 0x0033      |          51 |
|     724 | 0x0082      |         130 |
|     725 | 0x0039      |          57 |
|     726 | 0x0038      |          56 |
|     727 | 0x0036      |          54 |
|     728 | 0x0083      |         131 |
|     729 | 0x00A2      |         162 |
|     730 | 0x0022      |          34 |
|     731 | 0x0021      |          33 |
|     732 | 0x0086      |         134 |
|     733 | 0x008D      |         141 |
|     734 | 0x0037      |          55 |
|     735 | 0x008A      |         138 |
|     736 | 0x008B      |         139 |
|     737 | 0x002B      |          43 |
|     738 | 0x0030      |          48 |
|     739 | 0x00A1      |         161 |
|     740 | 0x0066      |         102 |
|     741 | 0x007B      |         123 |
|     742 | 0x01FE      |         510 |
|     743 | 0x009F      |         159 |
|     744 | 0x00A4      |         164 |
|     745 | 0x00A9      |         169 |
|     746 | 0x00B2      |         178 |
|     747 | 0x00B0      |         176 |
|     748 | 0x013D      |         317 |
|     749 | 0x0108      |         264 |
|     750 | 0x010C      |         268 |
|     751 | 0x0100      |         256 |
|     752 | 0x00FB      |         251 |
|     753 | 0x00B8      |         184 |
|     754 | 0x011C      |         284 |
|     755 | 0x0041      |          65 |
|     756 | 0x0042      |          66 |
|     757 | 0x0047      |          71 |
|     758 | 0x0160      |         352 |
|     759 | 0x0043      |          67 |
|     760 | 0x0048      |          72 |
|     761 | 0x004B      |          75 |
|     762 | 0x004C      |          76 |
|     763 | 0x004D      |          77 |
|     764 | 0x005B      |          91 |
|     765 | 0x0058      |          88 |
|     766 | 0x0054      |          84 |
|     767 | 0x0161      |         353 |
|     768 | 0x015C      |         348 |
|     769 | 0x016D      |         365 |
|     770 | 0x00C5      |         197 |
|     771 | 0x00C3      |         195 |
|     772 | 0x00C7      |         199 |
|     773 | 0x015E      |         350 |
|     774 | 0x00C4      |         196 |
|     775 | 0x016E      |         366 |
|     776 | 0x00D0      |         208 |
|     777 | 0x00CD      |         205 |
|     778 | 0x00D8      |         216 |
|     779 | 0x00D5      |         213 |
|     780 | 0x00D6      |         214 |
|     781 | 0x013B      |         315 |
|     782 | 0x013A      |         314 |
|     783 | 0x016F      |         367 |
|     784 | 0x0139      |         313 |
|     785 | 0x009A      |         154 |
|     786 | 0x0091      |         145 |
|     787 | 0x009B      |         155 |
|     788 | 0x0099      |         153 |
|     789 | 0x0093      |         147 |
|     790 | 0x0092      |         146 |
|     791 | 0x0098      |         152 |
|     792 | 0x0071      |         113 |
|     793 | 0x00E8      |         232 |
|     794 | 0x00DD      |         221 |
|     795 | 0x00F8      |         248 |
|     796 | 0x00F1      |         241 |
|     797 | 0x0124      |         292 |
|     798 | 0x012E      |         302 |
|     799 | 0x0129      |         297 |
|     800 | 0x0122      |         290 |
|     801 | 0x0132      |         306 |
|     802 | 0x0126      |         294 |
|     803 | 0x0155      |         341 |
|     804 | 0x0025      |          37 |
|     805 | 0x0029      |          41 |
|     806 | 0x0028      |          40 |
|     807 | 0x0079      |         121 |
|     808 | 0x0074      |         116 |
|     809 | 0x00EC      |         236 |
|     810 | 0x019C      |         412 |
|     811 | 0x0193      |         403 |
|     812 | 0x01C6      |         454 |
|     813 | 0x01C7      |         455 |
|     814 | 0x42FE      |       17150 |
|     815 | 0x3020      |       12320 |

## String References

- **7227**: Enter the battlefield? [Enter./Decline.]
- **7228**: Leave the battlefield? [Run away./Stay.]
- **7230**: You cannot enter the battlefield at present. Please wait a little longer.
- **7238**: You are cleared to enter the battlefield, but you cannot while party members are engaged in combat.
- **7239**: You are cleared to enter the battlefield, but you cannot while party members are engaged in combat.
- **7240**: You are cleared to enter the battlefield, but you cannot while party members are engaged in combat.
- **7241**: You are cleared to enter the battlefield, but you cannot while party members are engaged in combat.
- **7277**: You do not meet the requirements to enter the battlefield. Access is denied.
- **7566**: Skip the event? [Yes./No.]
- **7567**: Battlefield clear time: $3 second[/s]!
- **7568**: Battlefield clear time: $3 minute[/s], $2 second[/s]!
- **7569**: The current battlefield clear time record is $3 second[/s].
- **7570**: The current battlefield clear time record is $3 minute[/s] $2 second[/s].
- **7586**: Only $3 [member/members] have clearance to enter the battlefield. This room has reached its maximum capacity.
- **7590**: That record is held by $5 adventurers, including %0!
- **7591**: That record is held by %0!
- **7592**: Select difficulty. [Very difficult. (Level: ???)/Difficult. (Level: ???)/Normal. (Level: $18)/Easy. (Level: $17)/Very Easy. (Level: $16)/Leave.]
- **7601**: You have broken the clear time record for "[The Rank 5 Mission/Come Into My Parlor/E-vase-ive Action/Infernal Swarm/The Heir to the Light/Shattering Stars (PLD)/Shattering Stars (DRK)/Shattering Stars (BRD)/Demolition Squad/Die by the Sword/Let Sleeping Dogs Die/Brothers D'Aurphe/Undying Promise/Factory Rejects/Idol Thoughts/An Awful Autopsy/Celery/Mirror Images/A Furious Finale/Clash of the Comrades/Those Who Lurk in Shadows/Beyond Infinity/$26Factory Rejects/$26Demolition Squad/$26Brothers D'Aurphe/Mumor's Encore]"!
- **7602**: The current battlefield clear time record for "[The Rank 5 Mission/Come Into My Parlor/E-vase-ive Action/Infernal Swarm/The Heir to the Light/Shattering Stars (PLD)/Shattering Stars (DRK)/Shattering Stars (BRD)/Demolition Squad/Die by the Sword/Let Sleeping Dogs Die/Brothers D'Aurphe/Undying Promise/Factory Rejects/Idol Thoughts/An Awful Autopsy/Celery/Mirror Images/A Furious Finale/Clash of the Comrades/Those Who Lurk in Shadows/Beyond Infinity/$26Factory Rejects/$26Demolition Squad/$26Brothers D'Aurphe/Mumor 's Encore]" is $3 second[/s].
- **7603**: The current battlefield clear time record for "[The Rank 5 Mission/Come Into My Parlor/E-vase-ive Action/Infernal Swarm/The Heir to the Light/Shattering Stars (PLD)/Shattering Stars (DRK)/Shattering Stars (BRD)/Demolition Squad/Die by the Sword/Let Sleeping Dogs Die/Brothers D'Aurphe/Undying Promise/Factory Rejects/Idol Thoughts/An Awful Autopsy/Celery/Mirror Images/A Furious Finale/Clash of the Comrades/Those Who Lurk in Shadows/Beyond Infinity/$26Factory Rejects/$26Demolition Squad/$26Brothers D'Aurphe/Mumor's Encore]" is $3 minute[/s] $2 second[/s].
- **7605**: Which battlefield will you enter? [None./The Rank 5 Mission./Come Into My Parlor./E-vase-ive Action./Infernal Swarm./The Heir to the Light./Shattering Stars (PLD)./Shattering Stars (DRK)./Shattering Stars (BRD)./Demolition Squad./Die by the Sword./Let Sleeping Dogs Die./Brothers D'Aurphe./Undying Promise./Factory Rejects./Idol Thoughts./An Awful Autopsy./Celery./Mirror Images./A Furious Finale./Clash of the Comrades./Those Who Lurk in Shadows./Beyond Infinity./$26Factory Rejects./$26Demolition Squad./$26Brothers D'Aurphe./Mumor's Encore././././././././]
- **7988**: Your adventuring fellow's level limit is now 70.
- **8013**: The $3 disintegrates before your eyes!

## Events

### Event 65535

#### Metadata

| Field        | Value   |
|--------------|---------|
| Entrypoint   | 0x0000  |
| Data Size    | 1 bytes |
| Instructions | 1       |

```
      00 01 02 03 04 05 06 07  08 09 0A 0B 0C 0D 0E 0F
      -- -- -- -- -- -- -- --  -- -- -- -- -- -- -- --
0000: 00                                                .               
```

#### Opcodes

```
  0: 0x0000 [0x00] END_REQSTACK()
```

### Event 65534

#### Metadata

| Field        | Value   |
|--------------|---------|
| Entrypoint   | 0x0001  |
| Data Size    | 1 bytes |
| Instructions | 1       |

```
      00 01 02 03 04 05 06 07  08 09 0A 0B 0C 0D 0E 0F
      -- -- -- -- -- -- -- --  -- -- -- -- -- -- -- --
0000:    00                                              .              
```

#### Opcodes

```
  0: 0x0001 [0x00] END_REQSTACK()
```

### Event 32000

#### Metadata

| Field        | Value      |
|--------------|------------|
| Entrypoint   | 0x0002     |
| Data Size    | 2143 bytes |
| Instructions | 285        |

```
      00 01 02 03 04 05 06 07  08 09 0A 0B 0C 0D 0E 0F
      -- -- -- -- -- -- -- --  -- -- -- -- -- -- -- --
0000:       20 01 79 00 F0 FF  FF 7F F0 FF FF 7F 03 02     .y...........
0010: 00 02 10 03 03 00 03 10  03 05 00 04 10 03 06 00  ................
0020: 05 10 03 0F 00 06 10 03  10 00 07 10 03 11 00 08  ................
0030: 10 41 00 80 01 80 09 10  07 00 41 02 80 03 80 09  .A........A.....
0040: 10 06 10 06 01 00 02 07  00 00 80 00 45 01 03 08  ............E...
0050: 00 04 80 0F 08 00 06 00  10 08 00 05 80 24 06 80  .............$..
0060: 00 80 08 00 25 02 00 10  00 80 00 73 00 01 46 08  ....%......s..F.
0070: 01 45 01 03 03 00 00 10  0C 03 00 06 16 00 06 13  .E..............
0080: 00 3E 0F 00 03 00 21 01  06 0F 00 06 08 00 3E 11  .>....!.......>.
0090: 00 03 00 98 00 01 9F 00  3C 08 00 00 80 05 80 3E  ........<......>
00A0: 10 00 03 00 A9 00 01 B0  00 3C 08 00 05 80 05 80  .........<......
00B0: 1A 32 4F 24 07 80 08 80  08 00 25 02 00 10 00 80  .2O$......%.....
00C0: 00 CB 00 03 0F 00 05 80  01 1E 01 02 00 10 05 80  ................
00D0: 00 DB 00 03 0F 00 09 80  01 1E 01 02 00 10 09 80  ................
00E0: 00 EB 00 03 0F 00 0A 80  01 1E 01 02 00 10 0A 80  ................
00F0: 00 FB 00 03 0F 00 0B 80  01 1E 01 02 00 10 0B 80  ................
0100: 00 0B 01 03 0F 00 08 80  01 1E 01 02 00 10 08 80  ................
0110: 00 19 01 01 46 08 01 1E  01 03 0F 00 0A 80 01 45  ....F..........E
0120: 01 06 0F 00 1A 60 08 02  16 00 05 80 00 45 01 24  .....`.......E.$
0130: 0C 80 05 80 00 80 25 02  00 10 05 80 00 45 01 01  ......%......E..
0140: 46 08 01 45 01 42 03 01  10 0D 80 43 00 43 01 06  F..E.B.....C.C..
0150: 01 10 45 0E 80 F0 FF FF  7F F0 FF FF 7F 66 64 6F  ..E..........fdo
0160: 31 00 80 55 0E 80 F0 FF  FF 7F F0 FF FF 7F 66 64  1..U..........fd
0170: 6F 31 3B F0 FF FF 7F 20  10 21 10 22 10 38 0F 80  o1;.... .!.".8..
0180: 02 07 00 05 80 00 9F 01  03 00 00 05 80 03 04 00  ................
0190: 03 00 03 02 00 00 80 03  1C 00 00 80 01 5F 05 03  ............._..
01A0: 00 00 05 80 02 00 00 0A  80 05 0F 08 02 00 80 05  ................
01B0: 80 00 B9 01 03 00 00 05  00 40 00 80 0A 80 01 10  .........@......
01C0: 00 00 40 0B 80 10 80 01  10 03 00 40 11 80 12 80  ..@........@....
01D0: 01 10 0F 00 06 02 10 06  03 10 06 04 10 1A 30 52  ..............0R
01E0: 47 00 09 00 0A 00 0B 00  0C 00 47 01 03 04 00 03  G.........G.....
01F0: 10 03 02 00 04 10 03 1A  00 05 10 03 0D 00 06 10  ................
0200: 03 0E 00 07 10 03 1C 00  09 10 02 02 10 05 80 80  ................
0210: 15 02 01 FC 07 02 02 10  0B 80 80 5F 02 02 00 00  ..........._....
0220: 05 80 80 2C 02 48 13 80  23 01 59 02 02 00 00 09  ...,.H..#.Y.....
0230: 80 80 3B 02 48 14 80 23  01 59 02 02 00 00 0A 80  ..;.H..#.Y......
0240: 80 4A 02 48 15 80 23 01  59 02 02 00 00 0B 80 80  .J.H..#.Y.......
0250: 59 02 48 16 80 23 01 59  02 01 13 08 01 FC 07 02  Y.H..#.Y........
0260: 02 10 08 80 80 71 02 48  17 80 23 01 13 08 01 FC  .....q.H..#.....
0270: 07 02 02 10 18 80 80 73  04 02 04 00 00 80 80 89  .......s........
0280: 02 03 05 10 18 80 01 69  04 02 04 00 05 80 80 99  .......i........
0290: 02 03 05 10 18 80 01 69  04 02 04 00 09 80 80 A9  .......i........
02A0: 02 03 05 10 18 80 01 69  04 02 04 00 0A 80 80 B9  .......i........
02B0: 02 03 05 10 18 80 01 69  04 02 04 00 0B 80 80 C9  .......i........
02C0: 02 03 05 10 18 80 01 69  04 02 04 00 08 80 80 D9  .......i........
02D0: 02 03 05 10 05 80 01 69  04 02 04 00 18 80 80 E9  .......i........
02E0: 02 03 05 10 05 80 01 69  04 02 04 00 19 80 80 F9  .......i........
02F0: 02 03 05 10 05 80 01 69  04 02 04 00 10 80 80 09  .......i........
0300: 03 03 05 10 18 80 01 69  04 02 04 00 11 80 80 19  .......i........
0310: 03 03 05 10 0A 80 01 69  04 02 04 00 1A 80 80 29  .......i.......)
0320: 03 03 05 10 18 80 01 69  04 02 04 00 12 80 80 39  .......i.......9
0330: 03 03 05 10 18 80 01 69  04 02 04 00 1B 80 80 49  .......i.......I
0340: 03 03 05 10 0A 80 01 69  04 02 04 00 1C 80 80 59  .......i.......Y
0350: 03 03 05 10 18 80 01 69  04 02 04 00 1D 80 80 69  .......i.......i
0360: 03 03 05 10 18 80 01 69  04 02 04 00 01 80 80 79  .......i.......y
0370: 03 03 05 10 0A 80 01 69  04 02 04 00 02 80 80 89  .......i........
0380: 03 03 05 10 0A 80 01 69  04 02 04 00 1E 80 80 99  .......i........
0390: 03 03 05 10 05 80 01 69  04 02 04 00 1F 80 80 A9  .......i........
03A0: 03 03 05 10 05 80 01 69  04 02 04 00 0F 80 80 B9  .......i........
03B0: 03 03 05 10 05 80 01 69  04 02 04 00 20 80 80 C9  .......i.... ...
03C0: 03 03 05 10 18 80 01 69  04 02 04 00 21 80 80 D9  .......i....!...
03D0: 03 03 05 10 18 80 01 69  04 02 04 00 22 80 80 E9  .......i...."...
03E0: 03 03 05 10 18 80 01 69  04 02 04 00 23 80 80 F9  .......i....#...
03F0: 03 03 05 10 18 80 01 69  04 02 04 00 24 80 80 09  .......i....$...
0400: 04 03 05 10 18 80 01 69  04 02 04 00 25 80 80 19  .......i....%...
0410: 04 03 05 10 18 80 01 69  04 02 04 00 26 80 80 29  .......i....&..)
0420: 04 03 05 10 00 80 01 69  04 02 04 00 27 80 80 39  .......i....'..9
0430: 04 03 05 10 00 80 01 69  04 02 04 00 28 80 80 49  .......i....(..I
0440: 04 03 05 10 00 80 01 69  04 02 04 00 29 80 80 59  .......i....)..Y
0450: 04 03 05 10 00 80 01 69  04 02 04 00 2A 80 80 69  .......i....*..i
0460: 04 03 05 10 00 80 01 69  04 48 2B 80 23 01 13 08  .......i.H+.#...
0470: 01 FC 07 02 02 10 0A 80  80 81 04 01 9F 01 01 FC  ................
0480: 07 02 02 10 09 80 80 FC  07 02 0D 00 00 80 01 15  ................
0490: 05 02 13 00 00 80 01 C9  04 03 05 10 1A 00 02 1A  ................
04A0: 00 00 80 02 A6 04 02 0D  00 05 80 05 B5 04 48 2C  ..............H,
04B0: 80 23 01 C6 04 03 06 10  0D 00 0C 06 10 03 07 10  .#..............
04C0: 0D 00 48 2D 80 23 01 15  05 03 05 10 1A 00 02 1A  ..H-.#..........
04D0: 00 00 80 02 F5 04 02 1A  00 2E 80 04 F1 04 3F 04  ..............?.
04E0: 10 05 10 2E 80 15 05 10  2E 80 48 2F 80 23 01 F5  ..........H/.#..
04F0: 04 48 30 80 23 02 0D 00  05 80 05 04 05 48 2C 80  .H0.#........H,.
0500: 23 01 15 05 03 06 10 0D  00 0C 06 10 03 07 10 0D  #...............
0510: 00 48 2D 80 23 03 03 00  04 00 03 14 00 31 80 07  .H-.#........1..
0520: 14 00 03 00 02 02 00 14  00 00 34 05 03 02 00 05  ..........4.....
0530: 80 01 39 05 03 02 00 00  80 02 02 00 00 80 00 5F  ..9............_
0540: 05 02 0E 00 05 80 00 5F  05 24 32 80 05 80 00 80  ......._.$2.....
0550: 25 02 00 10 00 80 00 5F  05 05 02 00 01 5F 05 06  %......_....._..
0560: 15 00 02 04 00 00 80 80  72 05 03 15 00 00 80 01  ........r.......
0570: 57 07 02 04 00 05 80 80  82 05 03 15 00 00 80 01  W...............
0580: 57 07 02 04 00 09 80 80  92 05 03 15 00 00 80 01  W...............
0590: 57 07 02 04 00 0A 80 80  A2 05 03 15 00 00 80 01  W...............
05A0: 57 07 02 04 00 0B 80 80  B2 05 03 15 00 00 80 01  W...............
05B0: 57 07 02 04 00 08 80 80  C2 05 03 15 00 00 80 01  W...............
05C0: 57 07 02 04 00 18 80 80  D2 05 03 15 00 00 80 01  W...............
05D0: 57 07 02 04 00 19 80 80  E2 05 03 15 00 00 80 01  W...............
05E0: 57 07 02 04 00 10 80 80  F2 05 03 15 00 00 80 01  W...............
05F0: 57 07 02 04 00 11 80 80  02 06 03 15 00 00 80 01  W...............
0600: 57 07 02 04 00 1A 80 80  12 06 03 15 00 00 80 01  W...............
0610: 57 07 02 04 00 12 80 80  22 06 03 15 00 00 80 01  W.......".......
0620: 57 07 02 04 00 1B 80 80  32 06 03 15 00 00 80 01  W.......2.......
0630: 57 07 02 04 00 1C 80 80  42 06 03 15 00 00 80 01  W.......B.......
0640: 57 07 02 04 00 1D 80 80  52 06 03 15 00 00 80 01  W.......R.......
0650: 57 07 02 04 00 01 80 80  62 06 03 15 00 00 80 01  W.......b.......
0660: 57 07 02 04 00 02 80 80  72 06 03 15 00 00 80 01  W.......r.......
0670: 57 07 02 04 00 1E 80 80  82 06 03 15 00 05 80 01  W...............
0680: 57 07 02 04 00 1F 80 80  92 06 03 15 00 00 80 01  W...............
0690: 57 07 02 04 00 0F 80 80  A2 06 03 15 00 00 80 01  W...............
06A0: 57 07 02 04 00 20 80 80  B2 06 03 15 00 00 80 01  W.... ..........
06B0: 57 07 02 04 00 21 80 80  C2 06 03 15 00 00 80 01  W....!..........
06C0: 57 07 02 04 00 22 80 80  D2 06 03 15 00 00 80 01  W...."..........
06D0: 57 07 02 04 00 23 80 80  E2 06 03 15 00 00 80 01  W....#..........
06E0: 57 07 02 04 00 24 80 80  F2 06 03 15 00 00 80 01  W....$..........
06F0: 57 07 02 04 00 25 80 80  02 07 03 15 00 00 80 01  W....%..........
0700: 57 07 02 04 00 26 80 80  12 07 03 15 00 00 80 01  W....&..........
0710: 57 07 02 04 00 27 80 80  22 07 03 15 00 00 80 01  W....'..".......
0720: 57 07 02 04 00 28 80 80  32 07 03 15 00 00 80 01  W....(..2.......
0730: 57 07 02 04 00 29 80 80  42 07 03 15 00 00 80 01  W....)..B.......
0740: 57 07 02 04 00 2A 80 80  52 07 03 15 00 00 80 01  W....*..R.......
0750: 57 07 03 15 00 00 80 02  02 00 05 80 00 8D 07 5C  W..............\
0760: 00 33 80 5C 01 33 80 5C  02 33 80 5C 03 33 80 02  .3.\.3.\.3.\.3..
0770: 04 00 1E 80 80 8A 07 5C  00 34 80 5C 01 34 80 5C  .......\.4.\.4.\
0780: 02 34 80 5C 03 34 80 01  8A 07 01 A5 07 02 15 00  .4.\.4..........
0790: 00 80 00 A5 07 5C 00 33  80 5C 01 33 80 5C 02 33  .....\.3.\.3.\.3
07A0: 80 5C 03 33 80 02 02 00  00 80 00 B3 07 1A 1C 15  .\.3............
07B0: 01 EC 07 6C F0 FF FF 7F  00 80 05 80 62 09 80 F0  ...l........b...
07C0: FF FF 7F F0 FF FF 7F 6D  61 69 6E 00 80 45 0E 80  .......main..E..
07D0: F0 FF FF 7F F0 FF FF 7F  6F 76 6C 31 00 80 46 02  ........ovl1..F.
07E0: 12 00 02 12 00 00 80 00  EC 07 46 00 03 01 10 31  ..........F....1
07F0: 80 07 01 10 03 00 01 13  08 01 FC 07 0B 00 00 02  ................
0800: 00 80 05 80 00 0C 08 03  00 00 0B 80 01 A4 01 48  ...............H
0810: 35 80 23 45 36 80 F0 FF  FF 7F F0 FF FF 7F 77 68  5.#E6.........wh
0820: 69 31 00 80 45 0E 80 F0  FF FF 7F F0 FF FF 7F 62  i1..E..........b
0830: 6C 6F 66 00 80 45 0E 80  F0 FF FF 7F F0 FF FF 7F  lof..E..........
0840: 66 64 69 30 00 80 02 07  00 05 80 00 5E 08 5C 00  fdi0........^.\.
0850: 00 80 5C 01 00 80 5C 02  33 80 5C 03 33 80 21 00  ..\...\.3.\.3.!.
0860: 1B                                                .               
```

#### Opcodes

```
  0: 0x0002 [0x20] SET_CLI_EVENT_UC_FLAG: Lock player control
  1: 0x0004 [0x79] LocalPlayer looks at LocalPlayer (Basic look)
  2: 0x000E [0x03] ExtData[1]->WorkLocal[2] = Work_Zone[2]
  3: 0x0013 [0x03] ExtData[1]->WorkLocal[3] = Work_Zone[3]
  4: 0x0018 [0x03] ExtData[1]->WorkLocal[5] = Work_Zone[4]
  5: 0x001D [0x03] ExtData[1]->WorkLocal[6] = Work_Zone[5]
  6: 0x0022 [0x03] ExtData[1]->WorkLocal[15] = Work_Zone[6]
  7: 0x0027 [0x03] ExtData[1]->WorkLocal[16] = Work_Zone[7]
  8: 0x002C [0x03] ExtData[1]->WorkLocal[17] = Work_Zone[8]
  9: 0x0031 [0x41] ExtData[1]->WorkLocal[7] = Work_Zone[9] (bits 0*-15*)
 10: 0x003A [0x41] Work_Zone[6] = Work_Zone[9] (bits 16*-31*)
 11: 0x0043 [0x06] ExtData[1]->WorkLocal[1] = 0
 12: 0x0046 [0x02] IF !(ExtData[1]->WorkLocal[7] == 0*) GOTO 0x0145
 13: 0x004E [0x03] ExtData[1]->WorkLocal[8] = 4294967295*
 14: 0x0053 [0x0F] ExtData[1]->WorkLocal[8] ^= ExtData[1]->WorkLocal[6]
 15: 0x0058 [0x10] ExtData[1]->WorkLocal[8] <<= 1*
 16: 0x005D [0x24] CREATE_DIALOG(message_id=7605*, default_option=0*, option_flags=ExtData[1]->WorkLocal[8])
     "Which battlefield will you enter? [None./The Rank 5 Mission./Come Into My Parlor./E-vase-ive Action./Infernal Swarm./The Heir to the Light./Shattering Stars (PLD)./Shattering Stars (DRK)./Shattering Stars (BRD)./Demolition Squad./Die by the Sword./Let Sleeping Dogs Die./Brothers D'Aurphe./Undying Promise./Factory Rejects./Idol Thoughts./An Awful Autopsy./Celery./Mirror Images./A Furious Finale./Clash of the Comrades./Those Who Lurk in Shadows./Beyond Infinity./$26Factory Rejects./$26Demolition Squad./$26Brothers D'Aurphe./Mumor's Encore././././././././]"
 17: 0x0064 [0x25] WAIT_DIALOG_SELECT()
 18: 0x0065 [0x02] IF !(Work_Zone[0] == 0*) GOTO 0x0073
 19: 0x006D [0x01] GOTO 0x0846

SUBROUTINE_009F:
 20: 0x009F [0x3E] IF !(ExtData[1]->WorkLocal[16] bit ExtData[1]->WorkLocal[3]) GOTO 0x00A9
 21: 0x00A6 [0x01] GOTO 0x00B0
 22: 0x00A9 [0x3C] SET_BIT_FLAG_CONDITIONAL(target_work_offset=ExtData[1]->WorkLocal[8], bit_index_work_offset=1*, condition_work_offset=1*)

SUBROUTINE_00B0:
 23: 0x00B0 [0x1A] CALL_SUBROUTINE(address=0x4F32)
 24: 0x00B3 [0x24] CREATE_DIALOG(message_id=7592*, default_option=5*, option_flags=ExtData[1]->WorkLocal[8])
     "Select difficulty. [Very difficult. (Level: ???)/Difficult. (Level: ???)/Normal. (Level: $18)/Easy. (Level: $17)/Very Easy. (Level: $16)/Leave.]"
 25: 0x00BA [0x25] WAIT_DIALOG_SELECT()
 26: 0x00BB [0x02] IF !(Work_Zone[0] == 0*) GOTO 0x00CB
 27: 0x00C3 [0x03] ExtData[1]->WorkLocal[15] = 1*
 28: 0x00C8 [0x01] GOTO 0x011E
 29: 0x00CB [0x02] IF !(Work_Zone[0] == 1*) GOTO 0x00DB
 30: 0x00D3 [0x03] ExtData[1]->WorkLocal[15] = 2*
 31: 0x00D8 [0x01] GOTO 0x011E
 32: 0x00DB [0x02] IF !(Work_Zone[0] == 2*) GOTO 0x00EB
 33: 0x00E3 [0x03] ExtData[1]->WorkLocal[15] = 3*
 34: 0x00E8 [0x01] GOTO 0x011E
 35: 0x00EB [0x02] IF !(Work_Zone[0] == 3*) GOTO 0x00FB
 36: 0x00F3 [0x03] ExtData[1]->WorkLocal[15] = 4*
 37: 0x00F8 [0x01] GOTO 0x011E
 38: 0x00FB [0x02] IF !(Work_Zone[0] == 4*) GOTO 0x010B
 39: 0x0103 [0x03] ExtData[1]->WorkLocal[15] = 5*
 40: 0x0108 [0x01] GOTO 0x011E
 41: 0x010B [0x02] IF !(Work_Zone[0] == 5*) GOTO 0x0119
 42: 0x0113 [0x01] GOTO 0x0846

SUBROUTINE_011E:
 43: 0x011E [0x01] GOTO 0x0145
 44: 0x0121 [0x06] ExtData[1]->WorkLocal[15] = 0
 45: 0x0124 [0x1A] CALL_SUBROUTINE(address=0x0860)
 46: 0x0127 [0x02] IF !(ExtData[1]->WorkLocal[22] == 1*) GOTO 0x0145
 47: 0x012F [0x24] CREATE_DIALOG(message_id=7227*, default_option=1*, option_flags=0*)
     "Enter the battlefield? [Enter./Decline.]"
 48: 0x0136 [0x25] WAIT_DIALOG_SELECT()
 49: 0x0137 [0x02] IF !(Work_Zone[0] == 1*) GOTO 0x0145
 50: 0x013F [0x01] GOTO 0x0846

SUBROUTINE_0145:
 51: 0x0145 [0x42] SET_CLI_EVENT_CANCEL_DATA()
 52: 0x0146 [0x03] Work_Zone[1] = 255*
 53: 0x014B [0x43] SEND_EVENT_UPDATE: Send pending tag to server (packet 0x005B)
 54: 0x014D [0x43] SEND_EVENT_UPDATE: Check pending flag (skip if not pending)
 55: 0x014F [0x06] Work_Zone[1] = 0
 56: 0x0152 [0x45] LOAD_SCHEDULED_TASK: Load scheduler "fdo1" with entities [LocalPlayer, LocalPlayer], work=[200*, 0*]
 57: 0x0163 [0x55] WAIT_LOAD_SCHEDULER: Wait for scheduler "fdo1" with entities [LocalPlayer, LocalPlayer], work=200*
 58: 0x0172 [0x3B] GET_ENTITY_POSITION(entity=LocalPlayer, x_destination=Work_Zone[32], y_destination=Work_Zone[33], z_destination=Work_Zone[34])
 59: 0x017D [0x38] SET_CLIENT_EVENT_MODE(mode=19*)
 60: 0x0180 [0x02] IF !(ExtData[1]->WorkLocal[7] == 1*) GOTO 0x019F
 61: 0x0188 [0x03] ExtData[1]->WorkLocal[0] = 1*
 62: 0x018D [0x03] ExtData[1]->WorkLocal[4] = ExtData[1]->WorkLocal[3]
 63: 0x0192 [0x03] ExtData[1]->WorkLocal[2] = 0*
 64: 0x0197 [0x03] ExtData[1]->WorkLocal[28] = 0*
 65: 0x019C [0x01] GOTO 0x055F

SUBROUTINE_019F:
 66: 0x019F [0x03] ExtData[1]->WorkLocal[0] = 1*

SUBROUTINE_01A4:
 67: 0x01A4 [0x02] IF !(ExtData[1]->WorkLocal[0] > 3*) GOTO 0x080F
 68: 0x01AC [0x02] IF !(0* == 1*) GOTO 0x01B9
 69: 0x01B4 [0x03] ExtData[1]->WorkLocal[0] = ExtData[1]->WorkLocal[5]
 70: 0x01B9 [0x40] SET_BIT_WORK_RANGE(start_bit=0*, end_bit=3*, target=Work_Zone[1], source=ExtData[1]->WorkLocal[0])
 71: 0x01C2 [0x40] SET_BIT_WORK_RANGE(start_bit=4*, end_bit=8*, target=Work_Zone[1], source=ExtData[1]->WorkLocal[3])
 72: 0x01CB [0x40] SET_BIT_WORK_RANGE(start_bit=9*, end_bit=11*, target=Work_Zone[1], source=ExtData[1]->WorkLocal[15])
 73: 0x01D4 [0x06] Work_Zone[2] = 0
 74: 0x01D7 [0x06] Work_Zone[3] = 0
 75: 0x01DA [0x06] Work_Zone[4] = 0
 76: 0x01DD [0x1A] CALL_SUBROUTINE(address=0x5230)
 77: 0x01E0 [0x47] UPDATE_PLAYER_POS(ExtData[1]->WorkLocal[9], ExtData[1]->WorkLocal[10], ExtData[1]->WorkLocal[11], yaw=ExtData[1]->WorkLocal[12])
 78: 0x01EA [0x47] WAIT_PLAYER_POS_UPDATE
 79: 0x01EC [0x03] ExtData[1]->WorkLocal[4] = Work_Zone[3]
 80: 0x01F1 [0x03] ExtData[1]->WorkLocal[2] = Work_Zone[4]
 81: 0x01F6 [0x03] ExtData[1]->WorkLocal[26] = Work_Zone[5]
 82: 0x01FB [0x03] ExtData[1]->WorkLocal[13] = Work_Zone[6]
 83: 0x0200 [0x03] ExtData[1]->WorkLocal[14] = Work_Zone[7]
 84: 0x0205 [0x03] ExtData[1]->WorkLocal[28] = Work_Zone[9]
 85: 0x020A [0x02] IF !(Work_Zone[2] == 1*) GOTO 0x0215
 86: 0x0212 [0x01] GOTO 0x07FC
 87: 0x0215 [0x02] IF !(Work_Zone[2] == 4*) GOTO 0x025F
 88: 0x021D [0x02] IF !(ExtData[1]->WorkLocal[0] == 1*) GOTO 0x022C
 89: 0x0225 [0x48] [System] [7238*]:
     "You are cleared to enter the battlefield, but you cannot while party members are engaged in combat."
 90: 0x0228 [0x23] WAIT_FOR_DIALOG_INTERACTION
 91: 0x0229 [0x01] GOTO 0x0259
 92: 0x022C [0x02] IF !(ExtData[1]->WorkLocal[0] == 2*) GOTO 0x023B
 93: 0x0234 [0x48] [System] [7239*]:
     "You are cleared to enter the battlefield, but you cannot while party members are engaged in combat."
 94: 0x0237 [0x23] WAIT_FOR_DIALOG_INTERACTION
 95: 0x0238 [0x01] GOTO 0x0259
 96: 0x023B [0x02] IF !(ExtData[1]->WorkLocal[0] == 3*) GOTO 0x024A
 97: 0x0243 [0x48] [System] [7240*]:
     "You are cleared to enter the battlefield, but you cannot while party members are engaged in combat."
 98: 0x0246 [0x23] WAIT_FOR_DIALOG_INTERACTION
 99: 0x0247 [0x01] GOTO 0x0259
100: 0x024A [0x02] IF !(ExtData[1]->WorkLocal[0] == 4*) GOTO 0x0259
101: 0x0252 [0x48] [System] [7241*]:
     "You are cleared to enter the battlefield, but you cannot while party members are engaged in combat."
102: 0x0255 [0x23] WAIT_FOR_DIALOG_INTERACTION
103: 0x0256 [0x01] GOTO 0x0259

SUBROUTINE_0259:
104: 0x0259 [0x01] GOTO 0x0813

SUBROUTINE_0469:
105: 0x0469 [0x48] [System] [7586*]:
     "Only $3 [member/members] have clearance to enter the battlefield. This room has reached its maximum capacity."
106: 0x046C [0x23] WAIT_FOR_DIALOG_INTERACTION
107: 0x046D [0x01] GOTO 0x0813

SUBROUTINE_04C6:
108: 0x04C6 [0x01] GOTO 0x0515
109: 0x04C9 [0x03] Work_Zone[5] = ExtData[1]->WorkLocal[26]
110: 0x04CE [0x02] IF !(ExtData[1]->WorkLocal[26] <= 0*) GOTO 0x04F5
111: 0x04D6 [0x02] IF !(ExtData[1]->WorkLocal[26] < 60*) GOTO 0x04F1
112: 0x04DE [0x3F] Work_Zone[4] = Work_Zone[5] % 60*
113: 0x04E5 [0x15] Work_Zone[5] /= 60*
114: 0x04EA [0x48] [System] [7603*]:
     "The current battlefield clear time record for "[The Rank 5 Mission/Come Into My Parlor/E-vase-ive Action/Infernal Swarm/The Heir to the Light/Shattering Stars (PLD)/Shattering Stars (DRK)/Shattering Stars (BRD)/Demolition Squad/Die by the Sword/Let Sleeping Dogs Die/Brothers D'Aurphe/Undying Promise/Factory Rejects/Idol Thoughts/An Awful Autopsy/Celery/Mirror Images/A Furious Finale/Clash of the Comrades/Those Who Lurk in Shadows/Beyond Infinity/$26Factory Rejects/$26Demolition Squad/$26Brothers D'Aurphe/Mumor's Encore]" is $3 minute[/s] $2 second[/s]."
115: 0x04ED [0x23] WAIT_FOR_DIALOG_INTERACTION
116: 0x04EE [0x01] GOTO 0x04F5
117: 0x04F1 [0x48] [System] [7602*]:
     "The current battlefield clear time record for "[The Rank 5 Mission/Come Into My Parlor/E-vase-ive Action/Infernal Swarm/The Heir to the Light/Shattering Stars (PLD)/Shattering Stars (DRK)/Shattering Stars (BRD)/Demolition Squad/Die by the Sword/Let Sleeping Dogs Die/Brothers D'Aurphe/Undying Promise/Factory Rejects/Idol Thoughts/An Awful Autopsy/Celery/Mirror Images/A Furious Finale/Clash of the Comrades/Those Who Lurk in Shadows/Beyond Infinity/$26Factory Rejects/$26Demolition Squad/$26Brothers D'Aurphe/Mumor 's Encore]" is $3 second[/s]."
118: 0x04F4 [0x23] WAIT_FOR_DIALOG_INTERACTION

SUBROUTINE_04F5:
119: 0x04F5 [0x02] IF !(ExtData[1]->WorkLocal[13] > 1*) GOTO 0x0504
120: 0x04FD [0x48] [System] [7591*]:
     "That record is held by %0!"
121: 0x0500 [0x23] WAIT_FOR_DIALOG_INTERACTION
122: 0x0501 [0x01] GOTO 0x0515
123: 0x0504 [0x03] Work_Zone[6] = ExtData[1]->WorkLocal[13]
124: 0x0509 [0x0C] Work_Zone[6]--
125: 0x050C [0x03] Work_Zone[7] = ExtData[1]->WorkLocal[13]
126: 0x0511 [0x48] [System] [7590*]:
     "That record is held by $5 adventurers, including %0!"
127: 0x0514 [0x23] WAIT_FOR_DIALOG_INTERACTION

SUBROUTINE_0515:
128: 0x0515 [0x03] ExtData[1]->WorkLocal[3] = ExtData[1]->WorkLocal[4]
129: 0x051A [0x03] ExtData[1]->WorkLocal[20] = 100*
130: 0x051F [0x07] ExtData[1]->WorkLocal[20] += ExtData[1]->WorkLocal[3]
131: 0x0524 [0x02] IF !(ExtData[1]->WorkLocal[2] == ExtData[1]->WorkLocal[20]) GOTO 0x0534
132: 0x052C [0x03] ExtData[1]->WorkLocal[2] = 1*
133: 0x0531 [0x01] GOTO 0x0539
134: 0x0534 [0x03] ExtData[1]->WorkLocal[2] = 0*

SUBROUTINE_0539:
135: 0x0539 [0x02] IF !(ExtData[1]->WorkLocal[2] == 0*) GOTO 0x055F
136: 0x0541 [0x02] IF !(ExtData[1]->WorkLocal[14] == 1*) GOTO 0x055F
137: 0x0549 [0x24] CREATE_DIALOG(message_id=7566*, default_option=1*, option_flags=0*)
     "Skip the event? [Yes./No.]"
138: 0x0550 [0x25] WAIT_DIALOG_SELECT()
139: 0x0551 [0x02] IF !(Work_Zone[0] == 0*) GOTO 0x055F
140: 0x0559 [0x05] ExtData[1]->WorkLocal[2] = 1
141: 0x055C [0x01] GOTO 0x055F

SUBROUTINE_055F:
142: 0x055F [0x06] ExtData[1]->WorkLocal[21] = 0
143: 0x0562 [0x02] IF !(ExtData[1]->WorkLocal[4] == 0*) GOTO 0x0572
144: 0x056A [0x03] ExtData[1]->WorkLocal[21] = 0*
145: 0x056F [0x01] GOTO 0x0757
146: 0x0572 [0x02] IF !(ExtData[1]->WorkLocal[4] == 1*) GOTO 0x0582
147: 0x057A [0x03] ExtData[1]->WorkLocal[21] = 0*
148: 0x057F [0x01] GOTO 0x0757
149: 0x0582 [0x02] IF !(ExtData[1]->WorkLocal[4] == 2*) GOTO 0x0592
150: 0x058A [0x03] ExtData[1]->WorkLocal[21] = 0*
151: 0x058F [0x01] GOTO 0x0757
152: 0x0592 [0x02] IF !(ExtData[1]->WorkLocal[4] == 3*) GOTO 0x05A2
153: 0x059A [0x03] ExtData[1]->WorkLocal[21] = 0*
154: 0x059F [0x01] GOTO 0x0757
155: 0x05A2 [0x02] IF !(ExtData[1]->WorkLocal[4] == 4*) GOTO 0x05B2
156: 0x05AA [0x03] ExtData[1]->WorkLocal[21] = 0*
157: 0x05AF [0x01] GOTO 0x0757
158: 0x05B2 [0x02] IF !(ExtData[1]->WorkLocal[4] == 5*) GOTO 0x05C2
159: 0x05BA [0x03] ExtData[1]->WorkLocal[21] = 0*
160: 0x05BF [0x01] GOTO 0x0757
161: 0x05C2 [0x02] IF !(ExtData[1]->WorkLocal[4] == 6*) GOTO 0x05D2
162: 0x05CA [0x03] ExtData[1]->WorkLocal[21] = 0*
163: 0x05CF [0x01] GOTO 0x0757
164: 0x05D2 [0x02] IF !(ExtData[1]->WorkLocal[4] == 7*) GOTO 0x05E2
165: 0x05DA [0x03] ExtData[1]->WorkLocal[21] = 0*
166: 0x05DF [0x01] GOTO 0x0757
167: 0x05E2 [0x02] IF !(ExtData[1]->WorkLocal[4] == 8*) GOTO 0x05F2
168: 0x05EA [0x03] ExtData[1]->WorkLocal[21] = 0*
169: 0x05EF [0x01] GOTO 0x0757
170: 0x05F2 [0x02] IF !(ExtData[1]->WorkLocal[4] == 9*) GOTO 0x0602
171: 0x05FA [0x03] ExtData[1]->WorkLocal[21] = 0*
172: 0x05FF [0x01] GOTO 0x0757
173: 0x0602 [0x02] IF !(ExtData[1]->WorkLocal[4] == 10*) GOTO 0x0612
174: 0x060A [0x03] ExtData[1]->WorkLocal[21] = 0*
175: 0x060F [0x01] GOTO 0x0757
176: 0x0612 [0x02] IF !(ExtData[1]->WorkLocal[4] == 11*) GOTO 0x0622
177: 0x061A [0x03] ExtData[1]->WorkLocal[21] = 0*
178: 0x061F [0x01] GOTO 0x0757
179: 0x0622 [0x02] IF !(ExtData[1]->WorkLocal[4] == 12*) GOTO 0x0632
180: 0x062A [0x03] ExtData[1]->WorkLocal[21] = 0*
181: 0x062F [0x01] GOTO 0x0757
182: 0x0632 [0x02] IF !(ExtData[1]->WorkLocal[4] == 13*) GOTO 0x0642
183: 0x063A [0x03] ExtData[1]->WorkLocal[21] = 0*
184: 0x063F [0x01] GOTO 0x0757
185: 0x0642 [0x02] IF !(ExtData[1]->WorkLocal[4] == 14*) GOTO 0x0652
186: 0x064A [0x03] ExtData[1]->WorkLocal[21] = 0*
187: 0x064F [0x01] GOTO 0x0757
188: 0x0652 [0x02] IF !(ExtData[1]->WorkLocal[4] == 15*) GOTO 0x0662
189: 0x065A [0x03] ExtData[1]->WorkLocal[21] = 0*
190: 0x065F [0x01] GOTO 0x0757
191: 0x0662 [0x02] IF !(ExtData[1]->WorkLocal[4] == 16*) GOTO 0x0672
192: 0x066A [0x03] ExtData[1]->WorkLocal[21] = 0*
193: 0x066F [0x01] GOTO 0x0757
194: 0x0672 [0x02] IF !(ExtData[1]->WorkLocal[4] == 17*) GOTO 0x0682
195: 0x067A [0x03] ExtData[1]->WorkLocal[21] = 1*
196: 0x067F [0x01] GOTO 0x0757
197: 0x0682 [0x02] IF !(ExtData[1]->WorkLocal[4] == 18*) GOTO 0x0692
198: 0x068A [0x03] ExtData[1]->WorkLocal[21] = 0*
199: 0x068F [0x01] GOTO 0x0757
200: 0x0692 [0x02] IF !(ExtData[1]->WorkLocal[4] == 19*) GOTO 0x06A2
201: 0x069A [0x03] ExtData[1]->WorkLocal[21] = 0*
202: 0x069F [0x01] GOTO 0x0757
203: 0x06A2 [0x02] IF !(ExtData[1]->WorkLocal[4] == 20*) GOTO 0x06B2
204: 0x06AA [0x03] ExtData[1]->WorkLocal[21] = 0*
205: 0x06AF [0x01] GOTO 0x0757
206: 0x06B2 [0x02] IF !(ExtData[1]->WorkLocal[4] == 21*) GOTO 0x06C2
207: 0x06BA [0x03] ExtData[1]->WorkLocal[21] = 0*
208: 0x06BF [0x01] GOTO 0x0757
209: 0x06C2 [0x02] IF !(ExtData[1]->WorkLocal[4] == 22*) GOTO 0x06D2
210: 0x06CA [0x03] ExtData[1]->WorkLocal[21] = 0*
211: 0x06CF [0x01] GOTO 0x0757
212: 0x06D2 [0x02] IF !(ExtData[1]->WorkLocal[4] == 23*) GOTO 0x06E2
213: 0x06DA [0x03] ExtData[1]->WorkLocal[21] = 0*
214: 0x06DF [0x01] GOTO 0x0757
215: 0x06E2 [0x02] IF !(ExtData[1]->WorkLocal[4] == 24*) GOTO 0x06F2
216: 0x06EA [0x03] ExtData[1]->WorkLocal[21] = 0*
217: 0x06EF [0x01] GOTO 0x0757
218: 0x06F2 [0x02] IF !(ExtData[1]->WorkLocal[4] == 25*) GOTO 0x0702
219: 0x06FA [0x03] ExtData[1]->WorkLocal[21] = 0*
220: 0x06FF [0x01] GOTO 0x0757
221: 0x0702 [0x02] IF !(ExtData[1]->WorkLocal[4] == 26*) GOTO 0x0712
222: 0x070A [0x03] ExtData[1]->WorkLocal[21] = 0*
223: 0x070F [0x01] GOTO 0x0757
224: 0x0712 [0x02] IF !(ExtData[1]->WorkLocal[4] == 27*) GOTO 0x0722
225: 0x071A [0x03] ExtData[1]->WorkLocal[21] = 0*
226: 0x071F [0x01] GOTO 0x0757
227: 0x0722 [0x02] IF !(ExtData[1]->WorkLocal[4] == 28*) GOTO 0x0732
228: 0x072A [0x03] ExtData[1]->WorkLocal[21] = 0*
229: 0x072F [0x01] GOTO 0x0757
230: 0x0732 [0x02] IF !(ExtData[1]->WorkLocal[4] == 29*) GOTO 0x0742
231: 0x073A [0x03] ExtData[1]->WorkLocal[21] = 0*
232: 0x073F [0x01] GOTO 0x0757
233: 0x0742 [0x02] IF !(ExtData[1]->WorkLocal[4] == 30*) GOTO 0x0752
234: 0x074A [0x03] ExtData[1]->WorkLocal[21] = 0*
235: 0x074F [0x01] GOTO 0x0757
236: 0x0752 [0x03] ExtData[1]->WorkLocal[21] = 0*

SUBROUTINE_0757:
237: 0x0757 [0x02] IF !(ExtData[1]->WorkLocal[2] == 1*) GOTO 0x078D
238: 0x075F [0x5C] MUSIC_CONTROL: Set Idle (Day) music to song 125*
239: 0x0763 [0x5C] MUSIC_CONTROL: Set Idle (Night) music to song 125*
240: 0x0767 [0x5C] MUSIC_CONTROL: Set Combat (Solo) music to song 125*
241: 0x076B [0x5C] MUSIC_CONTROL: Set Combat (Party) music to song 125*
242: 0x076F [0x02] IF !(ExtData[1]->WorkLocal[4] == 17*) GOTO 0x078A
243: 0x0777 [0x5C] MUSIC_CONTROL: Set Idle (Day) music to song 157*
244: 0x077B [0x5C] MUSIC_CONTROL: Set Idle (Night) music to song 157*
245: 0x077F [0x5C] MUSIC_CONTROL: Set Combat (Solo) music to song 157*
246: 0x0783 [0x5C] MUSIC_CONTROL: Set Combat (Party) music to song 157*
247: 0x0787 [0x01] GOTO 0x078A

SUBROUTINE_078A:
248: 0x078A [0x01] GOTO 0x07A5
249: 0x078D [0x02] IF !(ExtData[1]->WorkLocal[21] == 0*) GOTO 0x07A5
250: 0x0795 [0x5C] MUSIC_CONTROL: Set Idle (Day) music to song 125*
251: 0x0799 [0x5C] MUSIC_CONTROL: Set Idle (Night) music to song 125*
252: 0x079D [0x5C] MUSIC_CONTROL: Set Combat (Solo) music to song 125*
253: 0x07A1 [0x5C] MUSIC_CONTROL: Set Combat (Party) music to song 125*

SUBROUTINE_07A5:
254: 0x07A5 [0x02] IF !(ExtData[1]->WorkLocal[2] == 0*) GOTO 0x07B3
255: 0x07AD [0x1A] CALL_SUBROUTINE(address=0x151C)
256: 0x07B0 [0x01] GOTO 0x07EC
257: 0x07B3 [0x6C] FADE_ENTITY_COLOR(entity_id=LocalPlayer, end_alpha=0*, fade_time=1*)
258: 0x07BC [0x62] LOAD_EVENT_SCHEDULER: Load scheduler "main" with entities [LocalPlayer, LocalPlayer], work=[2*, 0*]
259: 0x07CD [0x45] LOAD_SCHEDULED_TASK: Load scheduler "ovl1" with entities [LocalPlayer, LocalPlayer], work=[200*, 0*]
260: 0x07DE [0x46] CAMERA_CONTROL: Query status
261: 0x07E0 [0x12] 0x0200 = rand()
262: 0x07E3 [0x12] ExtData[1]->WorkLocal[0] = rand()
263: 0x07E6 [0x80] LOAD_WAIT(entity=Unknown NPC (ID: 1174924288/0x4607EC00))
264: 0x07EB [0x00] END_REQSTACK()

SUBROUTINE_07EC:
265: 0x07EC [0x03] Work_Zone[1] = 100*
266: 0x07F1 [0x07] Work_Zone[1] += ExtData[1]->WorkLocal[3]
267: 0x07F6 [0x01] GOTO 0x0813

SUBROUTINE_07FC:
268: 0x07FC [0x0B] ExtData[1]->WorkLocal[0]++
269: 0x07FF [0x02] IF !(0* == 1*) GOTO 0x080C
270: 0x0807 [0x03] ExtData[1]->WorkLocal[0] = 4*
271: 0x080C [0x01] GOTO 0x01A4
272: 0x080F [0x48] [System] [7230*]:
     "You cannot enter the battlefield at present. Please wait a little longer."
273: 0x0812 [0x23] WAIT_FOR_DIALOG_INTERACTION

SUBROUTINE_0813:
274: 0x0813 [0x45] LOAD_SCHEDULED_TASK: Load scheduler "whi1" with entities [LocalPlayer, LocalPlayer], work=[201*, 0*]
275: 0x0824 [0x45] LOAD_SCHEDULED_TASK: Load scheduler "blof" with entities [LocalPlayer, LocalPlayer], work=[200*, 0*]
276: 0x0835 [0x45] LOAD_SCHEDULED_TASK: Load scheduler "fdi0" with entities [LocalPlayer, LocalPlayer], work=[200*, 0*]

SUBROUTINE_0846:
277: 0x0846 [0x02] IF !(ExtData[1]->WorkLocal[7] == 1*) GOTO 0x085E
278: 0x084E [0x5C] MUSIC_CONTROL: Set Idle (Day) music to song 0*
279: 0x0852 [0x5C] MUSIC_CONTROL: Set Idle (Night) music to song 0*
280: 0x0856 [0x5C] MUSIC_CONTROL: Set Combat (Solo) music to song 125*
281: 0x085A [0x5C] MUSIC_CONTROL: Set Combat (Party) music to song 125*
282: 0x085E [0x21] END_EVENT
283: 0x085F [0x00] END_REQSTACK()

SUBROUTINE_0860:
284: 0x0860 [0x1B] RETURN
```

#### Data or dead code:

```
# Dead code (unreachable instructions):
     0x0070 [0x01] GOTO 0x0145
# Dead code (unreachable instructions):
     0x0116 [0x01] GOTO 0x011E
# Dead code (unreachable instructions):
     0x0142 [0x01] GOTO 0x0145
# Dead code (unreachable instructions):
     0x025C [0x01] GOTO 0x07FC
     0x026E [0x01] GOTO 0x07FC
# Dead code (unreachable instructions):
     0x0470 [0x01] GOTO 0x07FC
     0x047E [0x01] GOTO 0x07FC
# Dead code (unreachable instructions):
     0x07F9 [0x01] GOTO 0x07FC
```

### Event 32002

#### Metadata

| Field        | Value     |
|--------------|-----------|
| Entrypoint   | 0x0861    |
| Data Size    | 494 bytes |
| Instructions | 83        |

```
      00 01 02 03 04 05 06 07  08 09 0A 0B 0C 0D 0E 0F
      -- -- -- -- -- -- -- --  -- -- -- -- -- -- -- --
0860:    03 05 00 06 10 03 21  00 07 10 03 20 00 08 10   ......!.... ...
0870: 20 01 42 3B F0 FF FF 7F  20 10 21 10 22 10 3A F0   .B;.... .!.".:.
0880: FF FF 7F 23 10 45 0E 80  F0 FF FF 7F F0 FF FF 7F  ...#.E..........
0890: 66 64 6F 31 00 80 55 0E  80 F0 FF FF 7F F0 FF FF  fdo1..U.........
08A0: 7F 66 64 6F 31 02 00 80  05 80 00 0C 09 02 05 00  .fdo1...........
08B0: 05 80 80 C4 08 47 00 37  80 38 80 39 80 3A 80 47  .....G.7.8.9.:.G
08C0: 01 01 09 09 02 05 00 09  80 80 DB 08 47 00 37 80  ............G.7.
08D0: 38 80 39 80 3A 80 47 01  01 09 09 02 05 00 0A 80  8.9.:.G.........
08E0: 80 F2 08 47 00 37 80 38  80 39 80 3A 80 47 01 01  ...G.7.8.9.:.G..
08F0: 09 09 02 05 00 0B 80 80  09 09 47 00 37 80 38 80  ..........G.7.8.
0900: 39 80 3A 80 47 01 01 09  09 01 15 0A 02 20 00 3B  9.:.G........ .;
0910: 80 80 96 09 02 21 00 00  80 80 2B 09 47 00 3C 80  .....!....+.G.<.
0920: 3D 80 3E 80 3F 80 47 01  01 93 09 02 21 00 05 80  =.>.?.G.....!...
0930: 80 42 09 47 00 40 80 41  80 42 80 43 80 47 01 01  .B.G.@.A.B.C.G..
0940: 93 09 02 21 00 09 80 80  59 09 47 00 44 80 45 80  ...!....Y.G.D.E.
0950: 46 80 47 80 47 01 01 93  09 02 21 00 0A 80 80 70  F.G.G.....!....p
0960: 09 47 00 48 80 49 80 4A  80 4B 80 47 01 01 93 09  .G.H.I.J.K.G....
0970: 02 21 00 0B 80 80 87 09  47 00 4C 80 4D 80 4E 80  .!......G.L.M.N.
0980: 4F 80 47 01 01 93 09 47  00 50 80 51 80 52 80 53  O.G....G.P.Q.R.S
0990: 80 47 01 01 15 0A 02 20  00 18 80 80 09 0A 02 21  .G..... .......!
09A0: 00 05 80 80 B5 09 47 00  54 80 55 80 56 80 57 80  ......G.T.U.V.W.
09B0: 47 01 01 06 0A 02 21 00  09 80 80 CC 09 47 00 58  G.....!......G.X
09C0: 80 59 80 5A 80 5B 80 47  01 01 06 0A 02 21 00 0A  .Y.Z.[.G.....!..
09D0: 80 80 E3 09 47 00 5C 80  5D 80 5E 80 5F 80 47 01  ....G.\.].^._.G.
09E0: 01 06 0A 02 21 00 0B 80  80 FA 09 47 00 60 80 61  ....!......G.`.a
09F0: 80 62 80 63 80 47 01 01  06 0A 47 00 50 80 51 80  .b.c.G....G.P.Q.
0A00: 52 80 53 80 47 01 01 15  0A 47 00 50 80 51 80 52  R.S.G....G.P.Q.R
0A10: 80 53 80 47 01 38 0F 80  1A F3 4E 45 36 80 F0 FF  .S.G.8....NE6...
0A20: FF 7F F0 FF FF 7F 77 68  69 31 00 80 45 0E 80 F0  ......whi1..E...
0A30: FF FF 7F F0 FF FF 7F 62  6C 6F 66 00 80 5C 00 00  .......blof..\..
0A40: 80 5C 01 00 80 5C 02 33  80 5C 03 33 80 21 00     .\...\.3.\.3.!. 
```

#### Opcodes

```
  0: 0x0861 [0x03] ExtData[1]->WorkLocal[5] = Work_Zone[6]
  1: 0x0866 [0x03] ExtData[1]->WorkLocal[33] = Work_Zone[7]
  2: 0x086B [0x03] ExtData[1]->WorkLocal[32] = Work_Zone[8]
  3: 0x0870 [0x20] SET_CLI_EVENT_UC_FLAG: Lock player control
  4: 0x0872 [0x42] SET_CLI_EVENT_CANCEL_DATA()
  5: 0x0873 [0x3B] GET_ENTITY_POSITION(entity=LocalPlayer, x_destination=Work_Zone[32], y_destination=Work_Zone[33], z_destination=Work_Zone[34])
  6: 0x087E [0x3A] CONVERT_YAW_TO_BYTE(entity=LocalPlayer, result_destination=Work_Zone[35])
  7: 0x0885 [0x45] LOAD_SCHEDULED_TASK: Load scheduler "fdo1" with entities [LocalPlayer, LocalPlayer], work=[200*, 0*]
  8: 0x0896 [0x55] WAIT_LOAD_SCHEDULER: Wait for scheduler "fdo1" with entities [LocalPlayer, LocalPlayer], work=200*
  9: 0x08A5 [0x02] IF !(0* == 1*) GOTO 0x090C
 10: 0x08AD [0x02] IF !(ExtData[1]->WorkLocal[5] == 1*) GOTO 0x08C4
 11: 0x08B5 [0x47] UPDATE_PLAYER_POS(179.712*, 333.374*, 11.964*, yaw=85.2*)
 12: 0x08BF [0x47] WAIT_PLAYER_POS_UPDATE
 13: 0x08C1 [0x01] GOTO 0x0909
 14: 0x08C4 [0x02] IF !(ExtData[1]->WorkLocal[5] == 2*) GOTO 0x08DB
 15: 0x08CC [0x47] UPDATE_PLAYER_POS(179.712*, 333.374*, 11.964*, yaw=85.2*)
 16: 0x08D6 [0x47] WAIT_PLAYER_POS_UPDATE
 17: 0x08D8 [0x01] GOTO 0x0909
 18: 0x08DB [0x02] IF !(ExtData[1]->WorkLocal[5] == 3*) GOTO 0x08F2
 19: 0x08E3 [0x47] UPDATE_PLAYER_POS(179.712*, 333.374*, 11.964*, yaw=85.2*)
 20: 0x08ED [0x47] WAIT_PLAYER_POS_UPDATE
 21: 0x08EF [0x01] GOTO 0x0909
 22: 0x08F2 [0x02] IF !(ExtData[1]->WorkLocal[5] == 4*) GOTO 0x0909
 23: 0x08FA [0x47] UPDATE_PLAYER_POS(179.712*, 333.374*, 11.964*, yaw=85.2*)
 24: 0x0904 [0x47] WAIT_PLAYER_POS_UPDATE
 25: 0x0906 [0x01] GOTO 0x0909

SUBROUTINE_0909:
 26: 0x0909 [0x01] GOTO 0x0A15
 27: 0x090C [0x02] IF !(ExtData[1]->WorkLocal[32] == 180*) GOTO 0x0996
 28: 0x0914 [0x02] IF !(ExtData[1]->WorkLocal[33] == 0*) GOTO 0x092B
 29: 0x091C [0x47] UPDATE_PLAYER_POS(-605.141*, 479.929*, -22.681*, yaw=87.2*)
 30: 0x0926 [0x47] WAIT_PLAYER_POS_UPDATE
 31: 0x0928 [0x01] GOTO 0x0993
 32: 0x092B [0x02] IF !(ExtData[1]->WorkLocal[33] == 1*) GOTO 0x0942
 33: 0x0933 [0x47] UPDATE_PLAYER_POS(-262.589*, 377.857*, -137.313*, yaw=305.3*)
 34: 0x093D [0x47] WAIT_PLAYER_POS_UPDATE
 35: 0x093F [0x01] GOTO 0x0993
 36: 0x0942 [0x02] IF !(ExtData[1]->WorkLocal[33] == 2*) GOTO 0x0959
 37: 0x094A [0x47] UPDATE_PLAYER_POS(18.348*, 486.940*, -224.334*, yaw=17.1*)
 38: 0x0954 [0x47] WAIT_PLAYER_POS_UPDATE
 39: 0x0956 [0x01] GOTO 0x0993
 40: 0x0959 [0x02] IF !(ExtData[1]->WorkLocal[33] == 3*) GOTO 0x0970
 41: 0x0961 [0x47] UPDATE_PLAYER_POS(231.593*, 360.094*, -173.572*, yaw=160.8*)
 42: 0x096B [0x47] WAIT_PLAYER_POS_UPDATE
 43: 0x096D [0x01] GOTO 0x0993
 44: 0x0970 [0x02] IF !(ExtData[1]->WorkLocal[33] == 4*) GOTO 0x0987
 45: 0x0978 [0x47] UPDATE_PLAYER_POS(553.664*, 523.939*, -38.205*, yaw=233.9*)
 46: 0x0982 [0x47] WAIT_PLAYER_POS_UPDATE
 47: 0x0984 [0x01] GOTO 0x0993
 48: 0x0987 [0x47] UPDATE_PLAYER_POS(-230.159*, 20.041*, -24.250*, yaw=180.8*)
 49: 0x0991 [0x47] WAIT_PLAYER_POS_UPDATE

SUBROUTINE_0993:
 50: 0x0993 [0x01] GOTO 0x0A15
 51: 0x0996 [0x02] IF !(ExtData[1]->WorkLocal[32] == 6*) GOTO 0x0A09
 52: 0x099E [0x02] IF !(ExtData[1]->WorkLocal[33] == 1*) GOTO 0x09B5
 53: 0x09A6 [0x47] UPDATE_PLAYER_POS(-875.117*, -43.892*, -48.084*, yaw=45.1*)
 54: 0x09B0 [0x47] WAIT_PLAYER_POS_UPDATE
 55: 0x09B2 [0x01] GOTO 0x0A06
 56: 0x09B5 [0x02] IF !(ExtData[1]->WorkLocal[33] == 2*) GOTO 0x09CC
 57: 0x09BD [0x47] UPDATE_PLAYER_POS(-755.499*, 563.947*, -112.035*, yaw=313.5*)
 58: 0x09C7 [0x47] WAIT_PLAYER_POS_UPDATE
 59: 0x09C9 [0x01] GOTO 0x0A06
 60: 0x09CC [0x02] IF !(ExtData[1]->WorkLocal[33] == 3*) GOTO 0x09E3
 61: 0x09D4 [0x47] UPDATE_PLAYER_POS(123.251*, 754.209*, -172.124*, yaw=38.7*)
 62: 0x09DE [0x47] WAIT_PLAYER_POS_UPDATE
 63: 0x09E0 [0x01] GOTO 0x0A06
 64: 0x09E3 [0x02] IF !(ExtData[1]->WorkLocal[33] == 4*) GOTO 0x09FA
 65: 0x09EB [0x47] UPDATE_PLAYER_POS(-516.404*, -803.323*, 24.206*, yaw=38.4*)
 66: 0x09F5 [0x47] WAIT_PLAYER_POS_UPDATE
 67: 0x09F7 [0x01] GOTO 0x0A06
 68: 0x09FA [0x47] UPDATE_PLAYER_POS(-230.159*, 20.041*, -24.250*, yaw=180.8*)
 69: 0x0A04 [0x47] WAIT_PLAYER_POS_UPDATE

SUBROUTINE_0A06:
 70: 0x0A06 [0x01] GOTO 0x0A15
 71: 0x0A09 [0x47] UPDATE_PLAYER_POS(-230.159*, 20.041*, -24.250*, yaw=180.8*)
 72: 0x0A13 [0x47] WAIT_PLAYER_POS_UPDATE

SUBROUTINE_0A15:
 73: 0x0A15 [0x38] SET_CLIENT_EVENT_MODE(mode=19*)
 74: 0x0A18 [0x1A] CALL_SUBROUTINE(address=0x4EF3)
 75: 0x0A1B [0x45] LOAD_SCHEDULED_TASK: Load scheduler "whi1" with entities [LocalPlayer, LocalPlayer], work=[201*, 0*]
 76: 0x0A2C [0x45] LOAD_SCHEDULED_TASK: Load scheduler "blof" with entities [LocalPlayer, LocalPlayer], work=[200*, 0*]
 77: 0x0A3D [0x5C] MUSIC_CONTROL: Set Idle (Day) music to song 0*
 78: 0x0A41 [0x5C] MUSIC_CONTROL: Set Idle (Night) music to song 0*
 79: 0x0A45 [0x5C] MUSIC_CONTROL: Set Combat (Solo) music to song 125*
 80: 0x0A49 [0x5C] MUSIC_CONTROL: Set Combat (Party) music to song 125*
 81: 0x0A4D [0x21] END_EVENT
 82: 0x0A4E [0x00] END_REQSTACK()
```

### Event 32001

#### Metadata

| Field        | Value      |
|--------------|------------|
| Entrypoint   | 0x0A4F     |
| Data Size    | 1060 bytes |
| Instructions | 183        |

```
      00 01 02 03 04 05 06 07  08 09 0A 0B 0C 0D 0E 0F
      -- -- -- -- -- -- -- --  -- -- -- -- -- -- -- --
0A40:                                               79                 y
0A50: 00 F0 FF FF 7F F0 FF FF  7F 03 21 00 02 10 03 1A  ..........!.....
0A60: 00 03 10 03 1B 00 05 10  03 20 00 06 10 03 19 00  ......... ......
0A70: 07 10 03 17 00 08 10 02  17 00 0A 80 04 84 0A 03  ................
0A80: 17 00 00 80 03 1C 00 09  10 20 01 42 3B F0 FF FF  ......... .B;...
0A90: 7F 20 10 21 10 22 10 3A  F0 FF FF 7F 23 10 02 20  . .!.".:....#.. 
0AA0: 00 3B 80 01 A9 0A 1C 64  80 45 36 80 F0 FF FF 7F  .;.....d.E6.....
0AB0: F0 FF FF 7F 77 68 69 31  00 80 45 0E 80 F0 FF FF  ....whi1..E.....
0AC0: 7F F0 FF FF 7F 62 6C 6F  66 00 80 45 0E 80 F0 FF  .....blof..E....
0AD0: FF 7F F0 FF FF 7F 66 64  6F 31 00 80 55 0E 80 F0  ......fdo1..U...
0AE0: FF FF 7F F0 FF FF 7F 66  64 6F 31 6C F0 FF FF 7F  .......fdo1l....
0AF0: 65 80 05 80 06 01 10 02  17 00 00 80 03 02 0B 01  e...............
0B00: 50 0C 02 20 00 3B 80 80  8C 0B 02 21 00 00 80 80  P.. .;.....!....
0B10: 21 0B 47 00 66 80 67 80  68 80 69 80 47 01 01 89  !.G.f.g.h.i.G...
0B20: 0B 02 21 00 05 80 80 38  0B 47 00 6A 80 6B 80 6C  ..!....8.G.j.k.l
0B30: 80 6D 80 47 01 01 89 0B  02 21 00 09 80 80 4F 0B  .m.G.....!....O.
0B40: 47 00 6E 80 6F 80 70 80  71 80 47 01 01 89 0B 02  G.n.o.p.q.G.....
0B50: 21 00 0A 80 80 66 0B 47  00 72 80 73 80 74 80 75  !....f.G.r.s.t.u
0B60: 80 47 01 01 89 0B 02 21  00 0B 80 80 7D 0B 47 00  .G.....!....}.G.
0B70: 76 80 77 80 78 80 79 80  47 01 01 89 0B 47 00 7A  v.w.x.y.G....G.z
0B80: 80 7B 80 7C 80 7D 80 47  01 01 50 0C 02 20 00 7E  .{.|.}.G..P.. .~
0B90: 80 80 BA 0B 02 19 00 00  80 80 AB 0B 47 00 7A 80  ............G.z.
0BA0: 7B 80 7C 80 7D 80 47 01  01 B7 0B 47 00 7F 80 80  {.|.}.G....G....
0BB0: 80 81 80 82 80 47 01 01  50 0C 02 20 00 83 80 80  .....G..P.. ....
0BC0: E8 0B 02 19 00 0B 80 80  D9 0B 47 00 84 80 85 80  ..........G.....
0BD0: 86 80 87 80 47 01 01 E5  0B 47 00 7A 80 7B 80 7C  ....G....G.z.{.|
0BE0: 80 7D 80 47 01 01 50 0C  02 20 00 88 80 80 16 0C  .}.G..P.. ......
0BF0: 02 19 00 0B 80 80 07 0C  47 00 89 80 8A 80 8B 80  ........G.......
0C00: 8C 80 47 01 01 13 0C 47  00 7A 80 7B 80 7C 80 7D  ..G....G.z.{.|.}
0C10: 80 47 01 01 50 0C 02 20  00 8D 80 80 44 0C 02 19  .G..P.. ....D...
0C20: 00 0A 80 80 35 0C 47 00  8E 80 8F 80 90 80 91 80  ....5.G.........
0C30: 47 01 01 41 0C 47 00 7A  80 7B 80 7C 80 7D 80 47  G..A.G.z.{.|.}.G
0C40: 01 01 50 0C 47 00 7A 80  7B 80 7C 80 7D 80 47 01  ..P.G.z.{.|.}.G.
0C50: 38 0F 80 02 17 00 09 80  00 5E 0C 01 79 0C 02 17  8........^..y...
0C60: 00 05 80 00 29 0D 1C 01  80 24 32 80 05 80 00 80  ....)....$2.....
0C70: 25 02 00 10 00 80 00 29  0D 02 20 00 3B 80 00 E5  %......).. .;...
0C80: 0C 02 21 00 00 80 80 93  0C 36 66 80 67 80 68 80  ..!......6f.g.h.
0C90: 01 E2 0C 02 21 00 05 80  80 A5 0C 36 6A 80 6B 80  ....!......6j.k.
0CA0: 6C 80 01 E2 0C 02 21 00  09 80 80 B7 0C 36 6E 80  l.....!......6n.
0CB0: 6F 80 70 80 01 E2 0C 02  21 00 0A 80 80 C9 0C 36  o.p.....!......6
0CC0: 72 80 73 80 74 80 01 E2  0C 02 21 00 0B 80 80 DB  r.s.t.....!.....
0CD0: 0C 36 76 80 77 80 78 80  01 E2 0C 36 7A 80 7B 80  .6v.w.x....6z.{.
0CE0: 7C 80 01 EE 0C 37 7A 80  7B 80 7C 80 7D 80 80 F0  |....7z.{.|.}...
0CF0: FF FF 7F 62 09 80 F0 FF  FF 7F F0 FF FF 7F 6D 61  ...b..........ma
0D00: 69 6E 00 80 45 0E 80 F0  FF FF 7F F0 FF FF 7F 66  in..E..........f
0D10: 64 69 32 00 80 46 02 12  00 02 12 00 00 80 00 23  di2..F.........#
0D20: 0D 46 00 01 6B 0D 01 29  0D 02 17 00 04 80 04 5D  .F..k..).......]
0D30: 0D 5C 00 33 80 5C 01 33  80 5C 02 33 80 5C 03 33  .\.3.\.3.\.3.\.3
0D40: 80 02 19 00 1E 80 80 5C  0D 5C 00 34 80 5C 01 34  .......\.\.4.\.4
0D50: 80 5C 02 34 80 5C 03 34  80 01 5C 0D 9A 1A AF 2C  .\.4.\.4..\....,
0D60: 02 17 00 00 80 03 6B 0D  01 0B 0E 02 20 00 92 80  ......k..... ...
0D70: 80 76 0D 01 76 0D 02 20  00 1E 80 80 81 0D 01 0B  .v..v.. ........
0D80: 0E 02 20 00 0F 80 80 8C  0D 01 0B 0E 02 20 00 21  .. .......... .!
0D90: 80 80 97 0D 01 0B 0E 02  20 00 23 80 80 A2 0D 01  ........ .#.....
0DA0: 0B 0E 03 05 10 1B 00 02  05 10 00 80 02 0B 0E 02  ................
0DB0: 05 10 2E 80 04 CA 0D 3F  04 10 05 10 2E 80 15 05  .......?........
0DC0: 10 2E 80 48 93 80 23 01  CE 0D 48 94 80 23 02 1B  ...H..#...H..#..
0DD0: 00 1A 00 05 E2 0D 03 07  10 19 00 48 95 80 23 01  ...........H..#.
0DE0: 0B 0E 02 1A 00 2E 80 04  02 0E 03 05 10 1A 00 3F  ...............?
0DF0: 04 10 05 10 2E 80 15 05  10 2E 80 48 96 80 23 01  ...........H..#.
0E00: 0B 0E 03 05 10 1A 00 48  97 80 23 02 18 00 00 80  .......H..#.....
0E10: 00 23 0E 5C 00 00 80 5C  01 00 80 5C 02 33 80 5C  .#.\...\...\.3.\
0E20: 03 33 80 02 17 00 00 80  03 4C 0E 45 0E 80 F0 FF  .3.......L.E....
0E30: FF 7F F0 FF FF 7F 66 64  69 32 00 80 5C 00 00 80  ......fdi2..\...
0E40: 5C 01 00 80 5C 02 33 80  5C 03 33 80 06 18 00 45  \...\.3.\.3....E
0E50: 36 80 F0 FF FF 7F F0 FF  FF 7F 77 68 69 31 00 80  6.........whi1..
0E60: 45 0E 80 F0 FF FF 7F F0  FF FF 7F 62 6C 6F 66 00  E..........blof.
0E70: 80 21 00                                          .!.             
```

#### Opcodes

```
  0: 0x0A4F [0x79] LocalPlayer looks at LocalPlayer (Basic look)
  1: 0x0A59 [0x03] ExtData[1]->WorkLocal[33] = Work_Zone[2]
  2: 0x0A5E [0x03] ExtData[1]->WorkLocal[26] = Work_Zone[3]
  3: 0x0A63 [0x03] ExtData[1]->WorkLocal[27] = Work_Zone[5]
  4: 0x0A68 [0x03] ExtData[1]->WorkLocal[32] = Work_Zone[6]
  5: 0x0A6D [0x03] ExtData[1]->WorkLocal[25] = Work_Zone[7]
  6: 0x0A72 [0x03] ExtData[1]->WorkLocal[23] = Work_Zone[8]
  7: 0x0A77 [0x02] IF !(ExtData[1]->WorkLocal[23] < 3*) GOTO 0x0A84
  8: 0x0A7F [0x03] ExtData[1]->WorkLocal[23] = 0*
  9: 0x0A84 [0x03] ExtData[1]->WorkLocal[28] = Work_Zone[9]
 10: 0x0A89 [0x20] SET_CLI_EVENT_UC_FLAG: Lock player control
 11: 0x0A8B [0x42] SET_CLI_EVENT_CANCEL_DATA()
 12: 0x0A8C [0x3B] GET_ENTITY_POSITION(entity=LocalPlayer, x_destination=Work_Zone[32], y_destination=Work_Zone[33], z_destination=Work_Zone[34])
 13: 0x0A97 [0x3A] CONVERT_YAW_TO_BYTE(entity=LocalPlayer, result_destination=Work_Zone[35])
 14: 0x0A9E [0x02] IF !(ExtData[1]->WorkLocal[32] == 180*) GOTO 0x0AA9
 15: 0x0AA6 [0x1C] WAIT(300* ticks)
 16: 0x0AA9 [0x45] LOAD_SCHEDULED_TASK: Load scheduler "whi1" with entities [LocalPlayer, LocalPlayer], work=[201*, 0*]
 17: 0x0ABA [0x45] LOAD_SCHEDULED_TASK: Load scheduler "blof" with entities [LocalPlayer, LocalPlayer], work=[200*, 0*]
 18: 0x0ACB [0x45] LOAD_SCHEDULED_TASK: Load scheduler "fdo1" with entities [LocalPlayer, LocalPlayer], work=[200*, 0*]
 19: 0x0ADC [0x55] WAIT_LOAD_SCHEDULER: Wait for scheduler "fdo1" with entities [LocalPlayer, LocalPlayer], work=200*
 20: 0x0AEB [0x6C] FADE_ENTITY_COLOR(entity_id=LocalPlayer, end_alpha=128*, fade_time=1*)
 21: 0x0AF4 [0x06] Work_Zone[1] = 0
 22: 0x0AF7 [0x02] IF !(ExtData[1]->WorkLocal[23] >= 0*) GOTO 0x0B02
 23: 0x0AFF [0x01] GOTO 0x0C50
 24: 0x0B02 [0x02] IF !(ExtData[1]->WorkLocal[32] == 180*) GOTO 0x0B8C
 25: 0x0B0A [0x02] IF !(ExtData[1]->WorkLocal[33] == 0*) GOTO 0x0B21
 26: 0x0B12 [0x47] UPDATE_PLAYER_POS(-618.329*, -643.868*, -25.805*, yaw=330.5*)
 27: 0x0B1C [0x47] WAIT_PLAYER_POS_UPDATE
 28: 0x0B1E [0x01] GOTO 0x0B89
 29: 0x0B21 [0x02] IF !(ExtData[1]->WorkLocal[33] == 1*) GOTO 0x0B38
 30: 0x0B29 [0x47] UPDATE_PLAYER_POS(-332.163*, -441.914*, -95.055*, yaw=330.5*)
 31: 0x0B33 [0x47] WAIT_PLAYER_POS_UPDATE
 32: 0x0B35 [0x01] GOTO 0x0B89
 33: 0x0B38 [0x02] IF !(ExtData[1]->WorkLocal[33] == 2*) GOTO 0x0B4F
 34: 0x0B40 [0x47] UPDATE_PLAYER_POS(-12.464*, -648.377*, -194.629*, yaw=331.3*)
 35: 0x0B4A [0x47] WAIT_PLAYER_POS_UPDATE
 36: 0x0B4C [0x01] GOTO 0x0B89
 37: 0x0B4F [0x02] IF !(ExtData[1]->WorkLocal[33] == 3*) GOTO 0x0B66
 38: 0x0B57 [0x47] UPDATE_PLAYER_POS(323.381*, -443.793*, -108.440*, yaw=329.1*)
 39: 0x0B61 [0x47] WAIT_PLAYER_POS_UPDATE
 40: 0x0B63 [0x01] GOTO 0x0B89
 41: 0x0B66 [0x02] IF !(ExtData[1]->WorkLocal[33] == 4*) GOTO 0x0B7D
 42: 0x0B6E [0x47] UPDATE_PLAYER_POS(599.907*, -676.969*, -22.473*, yaw=330.7*)
 43: 0x0B78 [0x47] WAIT_PLAYER_POS_UPDATE
 44: 0x0B7A [0x01] GOTO 0x0B89
 45: 0x0B7D [0x47] UPDATE_PLAYER_POS(-37.435*, -64.655*, -28.419*, yaw=118.3*)
 46: 0x0B87 [0x47] WAIT_PLAYER_POS_UPDATE

SUBROUTINE_0B89:
 47: 0x0B89 [0x01] GOTO 0x0C50
 48: 0x0B8C [0x02] IF !(ExtData[1]->WorkLocal[32] == 168*) GOTO 0x0BBA
 49: 0x0B94 [0x02] IF !(ExtData[1]->WorkLocal[25] == 0*) GOTO 0x0BAB
 50: 0x0B9C [0x47] UPDATE_PLAYER_POS(-37.435*, -64.655*, -28.419*, yaw=118.3*)
 51: 0x0BA6 [0x47] WAIT_PLAYER_POS_UPDATE
 52: 0x0BA8 [0x01] GOTO 0x0BB7
 53: 0x0BAB [0x47] UPDATE_PLAYER_POS(200.059*, -21.958*, -0.250*, yaw=91.5*)
 54: 0x0BB5 [0x47] WAIT_PLAYER_POS_UPDATE

SUBROUTINE_0BB7:
 55: 0x0BB7 [0x01] GOTO 0x0C50
 56: 0x0BBA [0x02] IF !(ExtData[1]->WorkLocal[32] == 202*) GOTO 0x0BE8
 57: 0x0BC2 [0x02] IF !(ExtData[1]->WorkLocal[25] == 4*) GOTO 0x0BD9
 58: 0x0BCA [0x47] UPDATE_PLAYER_POS(538.604*, 501.900*, -13.942*, yaw=286.5*)
 59: 0x0BD4 [0x47] WAIT_PLAYER_POS_UPDATE
 60: 0x0BD6 [0x01] GOTO 0x0BE5
 61: 0x0BD9 [0x47] UPDATE_PLAYER_POS(-37.435*, -64.655*, -28.419*, yaw=118.3*)
 62: 0x0BE3 [0x47] WAIT_PLAYER_POS_UPDATE

SUBROUTINE_0BE5:
 63: 0x0BE5 [0x01] GOTO 0x0C50
 64: 0x0BE8 [0x02] IF !(ExtData[1]->WorkLocal[32] == 203*) GOTO 0x0C16
 65: 0x0BF0 [0x02] IF !(ExtData[1]->WorkLocal[25] == 4*) GOTO 0x0C07
 66: 0x0BF8 [0x47] UPDATE_PLAYER_POS(553.205*, 589.633*, -0.021*, yaw=124.4*)
 67: 0x0C02 [0x47] WAIT_PLAYER_POS_UPDATE
 68: 0x0C04 [0x01] GOTO 0x0C13
 69: 0x0C07 [0x47] UPDATE_PLAYER_POS(-37.435*, -64.655*, -28.419*, yaw=118.3*)
 70: 0x0C11 [0x47] WAIT_PLAYER_POS_UPDATE

SUBROUTINE_0C13:
 71: 0x0C13 [0x01] GOTO 0x0C50
 72: 0x0C16 [0x02] IF !(ExtData[1]->WorkLocal[32] == 211*) GOTO 0x0C44
 73: 0x0C1E [0x02] IF !(ExtData[1]->WorkLocal[25] == 3*) GOTO 0x0C35
 74: 0x0C26 [0x47] UPDATE_PLAYER_POS(569.224*, 548.462*, 36.837*, yaw=59.1*)
 75: 0x0C30 [0x47] WAIT_PLAYER_POS_UPDATE
 76: 0x0C32 [0x01] GOTO 0x0C41
 77: 0x0C35 [0x47] UPDATE_PLAYER_POS(-37.435*, -64.655*, -28.419*, yaw=118.3*)
 78: 0x0C3F [0x47] WAIT_PLAYER_POS_UPDATE

SUBROUTINE_0C41:
 79: 0x0C41 [0x01] GOTO 0x0C50
 80: 0x0C44 [0x47] UPDATE_PLAYER_POS(-37.435*, -64.655*, -28.419*, yaw=118.3*)
 81: 0x0C4E [0x47] WAIT_PLAYER_POS_UPDATE

SUBROUTINE_0C50:
 82: 0x0C50 [0x38] SET_CLIENT_EVENT_MODE(mode=19*)
 83: 0x0C53 [0x02] IF !(ExtData[1]->WorkLocal[23] == 2*) GOTO 0x0C5E
 84: 0x0C5B [0x01] GOTO 0x0C79
 85: 0x0C5E [0x02] IF !(ExtData[1]->WorkLocal[23] == 1*) GOTO 0x0D29
 86: 0x0C66 [0x1C] WAIT(15* ticks)
 87: 0x0C69 [0x24] CREATE_DIALOG(message_id=7566*, default_option=1*, option_flags=0*)
     "Skip the event? [Yes./No.]"
 88: 0x0C70 [0x25] WAIT_DIALOG_SELECT()
 89: 0x0C71 [0x02] IF !(Work_Zone[0] == 0*) GOTO 0x0D29

SUBROUTINE_0C79:
 90: 0x0C79 [0x02] IF !(ExtData[1]->WorkLocal[32] == 180*) GOTO 0x0CE5
 91: 0x0C81 [0x02] IF !(ExtData[1]->WorkLocal[33] == 0*) GOTO 0x0C93
 92: 0x0C89 [0x36] SET_ENTITY_EVENT_POSITION(pos_x=-618.329*, pos_z=-643.868*, pos_y=-25.805*)
 93: 0x0C90 [0x01] GOTO 0x0CE2
 94: 0x0C93 [0x02] IF !(ExtData[1]->WorkLocal[33] == 1*) GOTO 0x0CA5
 95: 0x0C9B [0x36] SET_ENTITY_EVENT_POSITION(pos_x=-332.163*, pos_z=-441.914*, pos_y=-95.055*)
 96: 0x0CA2 [0x01] GOTO 0x0CE2
 97: 0x0CA5 [0x02] IF !(ExtData[1]->WorkLocal[33] == 2*) GOTO 0x0CB7
 98: 0x0CAD [0x36] SET_ENTITY_EVENT_POSITION(pos_x=-12.464*, pos_z=-648.377*, pos_y=-194.629*)
 99: 0x0CB4 [0x01] GOTO 0x0CE2
100: 0x0CB7 [0x02] IF !(ExtData[1]->WorkLocal[33] == 3*) GOTO 0x0CC9
101: 0x0CBF [0x36] SET_ENTITY_EVENT_POSITION(pos_x=323.381*, pos_z=-443.793*, pos_y=-108.440*)
102: 0x0CC6 [0x01] GOTO 0x0CE2
103: 0x0CC9 [0x02] IF !(ExtData[1]->WorkLocal[33] == 4*) GOTO 0x0CDB
104: 0x0CD1 [0x36] SET_ENTITY_EVENT_POSITION(pos_x=599.907*, pos_z=-676.969*, pos_y=-22.473*)
105: 0x0CD8 [0x01] GOTO 0x0CE2
106: 0x0CDB [0x36] SET_ENTITY_EVENT_POSITION(pos_x=-37.435*, pos_z=-64.655*, pos_y=-28.419*)

SUBROUTINE_0CE2:
107: 0x0CE2 [0x01] GOTO 0x0CEE
108: 0x0CE5 [0x37] UPDATE_EVENT_POSITION_AND_DIR: x=-37.435*, z=-64.655*, y=-28.419*, direction=118.3*

SUBROUTINE_0CEE:
109: 0x0CEE [0x80] LOAD_WAIT(entity=LocalPlayer)
110: 0x0CF3 [0x62] LOAD_EVENT_SCHEDULER: Load scheduler "main" with entities [LocalPlayer, LocalPlayer], work=[2*, 0*]
111: 0x0D04 [0x45] LOAD_SCHEDULED_TASK: Load scheduler "fdi2" with entities [LocalPlayer, LocalPlayer], work=[200*, 0*]
112: 0x0D15 [0x46] CAMERA_CONTROL: Query status
113: 0x0D17 [0x12] 0x0200 = rand()
114: 0x0D1A [0x12] ExtData[1]->WorkLocal[0] = rand()
115: 0x0D1D [0x80] LOAD_WAIT(entity=Unknown NPC (ID: 1175266048/0x460D2300))
116: 0x0D22 [0x00] END_REQSTACK()

SUBROUTINE_0D29:
117: 0x0D29 [0x02] IF !(ExtData[1]->WorkLocal[23] < 4294967295*) GOTO 0x0D5D
118: 0x0D31 [0x5C] MUSIC_CONTROL: Set Idle (Day) music to song 125*
119: 0x0D35 [0x5C] MUSIC_CONTROL: Set Idle (Night) music to song 125*
120: 0x0D39 [0x5C] MUSIC_CONTROL: Set Combat (Solo) music to song 125*
121: 0x0D3D [0x5C] MUSIC_CONTROL: Set Combat (Party) music to song 125*
122: 0x0D41 [0x02] IF !(ExtData[1]->WorkLocal[25] == 17*) GOTO 0x0D5C
123: 0x0D49 [0x5C] MUSIC_CONTROL: Set Idle (Day) music to song 157*
124: 0x0D4D [0x5C] MUSIC_CONTROL: Set Idle (Night) music to song 157*
125: 0x0D51 [0x5C] MUSIC_CONTROL: Set Combat (Solo) music to song 157*
126: 0x0D55 [0x5C] MUSIC_CONTROL: Set Combat (Party) music to song 157*
127: 0x0D59 [0x01] GOTO 0x0D5C

SUBROUTINE_0D5C:
128: 0x0D5C [0x9A] WAIT_MUSIC_SERVER()
129: 0x0D5D [0x1A] CALL_SUBROUTINE(address=0x2CAF)
130: 0x0D60 [0x02] IF !(ExtData[1]->WorkLocal[23] >= 0*) GOTO 0x0D6B
131: 0x0D68 [0x01] GOTO 0x0E0B

SUBROUTINE_0D6B:
132: 0x0D6B [0x02] IF !(ExtData[1]->WorkLocal[32] == 36*) GOTO 0x0D76
133: 0x0D73 [0x01] GOTO 0x0D76

SUBROUTINE_0D76:
134: 0x0D76 [0x02] IF !(ExtData[1]->WorkLocal[32] == 17*) GOTO 0x0D81
135: 0x0D7E [0x01] GOTO 0x0E0B
136: 0x0D81 [0x02] IF !(ExtData[1]->WorkLocal[32] == 19*) GOTO 0x0D8C
137: 0x0D89 [0x01] GOTO 0x0E0B
138: 0x0D8C [0x02] IF !(ExtData[1]->WorkLocal[32] == 21*) GOTO 0x0D97
139: 0x0D94 [0x01] GOTO 0x0E0B
140: 0x0D97 [0x02] IF !(ExtData[1]->WorkLocal[32] == 23*) GOTO 0x0DA2
141: 0x0D9F [0x01] GOTO 0x0E0B
142: 0x0DA2 [0x03] Work_Zone[5] = ExtData[1]->WorkLocal[27]
143: 0x0DA7 [0x02] IF !(Work_Zone[5] <= 0*) GOTO 0x0E0B
144: 0x0DAF [0x02] IF !(Work_Zone[5] < 60*) GOTO 0x0DCA
145: 0x0DB7 [0x3F] Work_Zone[4] = Work_Zone[5] % 60*
146: 0x0DBE [0x15] Work_Zone[5] /= 60*
147: 0x0DC3 [0x48] [System] [7568*]:
     "Battlefield clear time: $3 minute[/s], $2 second[/s]!"
148: 0x0DC6 [0x23] WAIT_FOR_DIALOG_INTERACTION
149: 0x0DC7 [0x01] GOTO 0x0DCE
150: 0x0DCA [0x48] [System] [7567*]:
     "Battlefield clear time: $3 second[/s]!"
151: 0x0DCD [0x23] WAIT_FOR_DIALOG_INTERACTION

SUBROUTINE_0DCE:
152: 0x0DCE [0x02] IF !(ExtData[1]->WorkLocal[27] > ExtData[1]->WorkLocal[26]) GOTO 0x0DE2
153: 0x0DD6 [0x03] Work_Zone[7] = ExtData[1]->WorkLocal[25]
154: 0x0DDB [0x48] [System] [7601*]:
     "You have broken the clear time record for "[The Rank 5 Mission/Come Into My Parlor/E-vase-ive Action/Infernal Swarm/The Heir to the Light/Shattering Stars (PLD)/Shattering Stars (DRK)/Shattering Stars (BRD)/Demolition Squad/Die by the Sword/Let Sleeping Dogs Die/Brothers D'Aurphe/Undying Promise/Factory Rejects/Idol Thoughts/An Awful Autopsy/Celery/Mirror Images/A Furious Finale/Clash of the Comrades/Those Who Lurk in Shadows/Beyond Infinity/$26Factory Rejects/$26Demolition Squad/$26Brothers D'Aurphe/Mumor's Encore]"!"
155: 0x0DDE [0x23] WAIT_FOR_DIALOG_INTERACTION
156: 0x0DDF [0x01] GOTO 0x0E0B
157: 0x0DE2 [0x02] IF !(ExtData[1]->WorkLocal[26] < 60*) GOTO 0x0E02
158: 0x0DEA [0x03] Work_Zone[5] = ExtData[1]->WorkLocal[26]
159: 0x0DEF [0x3F] Work_Zone[4] = Work_Zone[5] % 60*
160: 0x0DF6 [0x15] Work_Zone[5] /= 60*
161: 0x0DFB [0x48] [System] [7570*]:
     "The current battlefield clear time record is $3 minute[/s] $2 second[/s]."
162: 0x0DFE [0x23] WAIT_FOR_DIALOG_INTERACTION
163: 0x0DFF [0x01] GOTO 0x0E0B
164: 0x0E02 [0x03] Work_Zone[5] = ExtData[1]->WorkLocal[26]
165: 0x0E07 [0x48] [System] [7569*]:
     "The current battlefield clear time record is $3 second[/s]."
166: 0x0E0A [0x23] WAIT_FOR_DIALOG_INTERACTION

SUBROUTINE_0E0B:
167: 0x0E0B [0x02] IF !(ExtData[1]->WorkLocal[24] == 0*) GOTO 0x0E23
168: 0x0E13 [0x5C] MUSIC_CONTROL: Set Idle (Day) music to song 0*
169: 0x0E17 [0x5C] MUSIC_CONTROL: Set Idle (Night) music to song 0*
170: 0x0E1B [0x5C] MUSIC_CONTROL: Set Combat (Solo) music to song 125*
171: 0x0E1F [0x5C] MUSIC_CONTROL: Set Combat (Party) music to song 125*
172: 0x0E23 [0x02] IF !(ExtData[1]->WorkLocal[23] >= 0*) GOTO 0x0E4C
173: 0x0E2B [0x45] LOAD_SCHEDULED_TASK: Load scheduler "fdi2" with entities [LocalPlayer, LocalPlayer], work=[200*, 0*]
174: 0x0E3C [0x5C] MUSIC_CONTROL: Set Idle (Day) music to song 0*
175: 0x0E40 [0x5C] MUSIC_CONTROL: Set Idle (Night) music to song 0*
176: 0x0E44 [0x5C] MUSIC_CONTROL: Set Combat (Solo) music to song 125*
177: 0x0E48 [0x5C] MUSIC_CONTROL: Set Combat (Party) music to song 125*
178: 0x0E4C [0x06] ExtData[1]->WorkLocal[24] = 0
179: 0x0E4F [0x45] LOAD_SCHEDULED_TASK: Load scheduler "whi1" with entities [LocalPlayer, LocalPlayer], work=[201*, 0*]
180: 0x0E60 [0x45] LOAD_SCHEDULED_TASK: Load scheduler "blof" with entities [LocalPlayer, LocalPlayer], work=[200*, 0*]
181: 0x0E71 [0x21] END_EVENT
182: 0x0E72 [0x00] END_REQSTACK()
```

#### Data or dead code:

```
# Dead code (unreachable instructions):
     0x0D23 [0x01] GOTO 0x0D6B
     0x0D26 [0x01] GOTO 0x0D29
```

### Event 32003

#### Metadata

| Field        | Value     |
|--------------|-----------|
| Entrypoint   | 0x0E73    |
| Data Size    | 435 bytes |
| Instructions | 77        |

```
      00 01 02 03 04 05 06 07  08 09 0A 0B 0C 0D 0E 0F
      -- -- -- -- -- -- -- --  -- -- -- -- -- -- -- --
0E70:          06 1D 00 06 1E  00 03 21 00 06 10 03 20     .......!.... 
0E80: 00 07 10 03 1F 00 08 10  06 01 10 1A 64 4E 02 1D  ............dN..
0E90: 00 05 80 00 24 10 42 03  01 10 09 80 43 00 43 01  ....$.B.....C.C.
0EA0: 03 01 10 0A 80 43 00 43  01 1A 7B 4E 02 1E 00 05  .....C.C..{N....
0EB0: 80 00 24 10 45 0E 80 F0  FF FF 7F F0 FF FF 7F 66  ..$.E..........f
0EC0: 64 6F 31 00 80 55 0E 80  F0 FF FF 7F F0 FF FF 7F  do1..U..........
0ED0: 66 64 6F 31 03 01 10 0B  80 02 20 00 3B 80 80 63  fdo1...... .;..c
0EE0: 0F 02 21 00 00 80 80 F8  0E 47 00 3C 80 3D 80 3E  ..!......G.<.=.>
0EF0: 80 3F 80 47 01 01 60 0F  02 21 00 05 80 80 0F 0F  .?.G..`..!......
0F00: 47 00 40 80 41 80 42 80  43 80 47 01 01 60 0F 02  G.@.A.B.C.G..`..
0F10: 21 00 09 80 80 26 0F 47  00 44 80 45 80 46 80 47  !....&.G.D.E.F.G
0F20: 80 47 01 01 60 0F 02 21  00 0A 80 80 3D 0F 47 00  .G..`..!....=.G.
0F30: 48 80 49 80 4A 80 4B 80  47 01 01 60 0F 02 21 00  H.I.J.K.G..`..!.
0F40: 0B 80 80 54 0F 47 00 4C  80 4D 80 4E 80 4F 80 47  ...T.G.L.M.N.O.G
0F50: 01 01 60 0F 47 00 50 80  51 80 52 80 53 80 47 01  ..`.G.P.Q.R.S.G.
0F60: 01 E2 0F 02 20 00 18 80  80 D6 0F 02 1F 00 05 80  .... ...........
0F70: 80 82 0F 47 00 54 80 55  80 56 80 57 80 47 01 01  ...G.T.U.V.W.G..
0F80: D3 0F 02 1F 00 09 80 80  99 0F 47 00 58 80 59 80  ..........G.X.Y.
0F90: 5A 80 5B 80 47 01 01 D3  0F 02 1F 00 0A 80 80 B0  Z.[.G...........
0FA0: 0F 47 00 5C 80 5D 80 5E  80 5F 80 47 01 01 D3 0F  .G.\.].^._.G....
0FB0: 02 1F 00 0B 80 80 C7 0F  47 00 60 80 61 80 62 80  ........G.`.a.b.
0FC0: 63 80 47 01 01 D3 0F 47  00 50 80 51 80 52 80 53  c.G....G.P.Q.R.S
0FD0: 80 47 01 01 E2 0F 47 00  50 80 51 80 52 80 53 80  .G....G.P.Q.R.S.
0FE0: 47 01 38 0F 80 79 00 F0  FF FF 7F F0 FF FF 7F 1A  G.8..y..........
0FF0: 7F 4E 45 36 80 F0 FF FF  7F F0 FF FF 7F 77 68 69  .NE6.........whi
1000: 31 00 80 45 0E 80 F0 FF  FF 7F F0 FF FF 7F 62 6C  1..E..........bl
1010: 6F 66 00 80 5C 00 00 80  5C 01 00 80 5C 02 33 80  of..\...\...\.3.
1020: 5C 03 33 80 21 00                                 \.3.!.          
```

#### Opcodes

```
  0: 0x0E73 [0x06] ExtData[1]->WorkLocal[29] = 0
  1: 0x0E76 [0x06] ExtData[1]->WorkLocal[30] = 0
  2: 0x0E79 [0x03] ExtData[1]->WorkLocal[33] = Work_Zone[6]
  3: 0x0E7E [0x03] ExtData[1]->WorkLocal[32] = Work_Zone[7]
  4: 0x0E83 [0x03] ExtData[1]->WorkLocal[31] = Work_Zone[8]
  5: 0x0E88 [0x06] Work_Zone[1] = 0
  6: 0x0E8B [0x1A] CALL_SUBROUTINE(address=0x4E64)
  7: 0x0E8E [0x02] IF !(ExtData[1]->WorkLocal[29] == 1*) GOTO 0x1024
  8: 0x0E96 [0x42] SET_CLI_EVENT_CANCEL_DATA()
  9: 0x0E97 [0x03] Work_Zone[1] = 2*
 10: 0x0E9C [0x43] SEND_EVENT_UPDATE: Send pending tag to server (packet 0x005B)
 11: 0x0E9E [0x43] SEND_EVENT_UPDATE: Check pending flag (skip if not pending)
 12: 0x0EA0 [0x03] Work_Zone[1] = 3*
 13: 0x0EA5 [0x43] SEND_EVENT_UPDATE: Send pending tag to server (packet 0x005B)
 14: 0x0EA7 [0x43] SEND_EVENT_UPDATE: Check pending flag (skip if not pending)
 15: 0x0EA9 [0x1A] CALL_SUBROUTINE(address=0x4E7B)
 16: 0x0EAC [0x02] IF !(ExtData[1]->WorkLocal[30] == 1*) GOTO 0x1024
 17: 0x0EB4 [0x45] LOAD_SCHEDULED_TASK: Load scheduler "fdo1" with entities [LocalPlayer, LocalPlayer], work=[200*, 0*]
 18: 0x0EC5 [0x55] WAIT_LOAD_SCHEDULER: Wait for scheduler "fdo1" with entities [LocalPlayer, LocalPlayer], work=200*
 19: 0x0ED4 [0x03] Work_Zone[1] = 4*
 20: 0x0ED9 [0x02] IF !(ExtData[1]->WorkLocal[32] == 180*) GOTO 0x0F63
 21: 0x0EE1 [0x02] IF !(ExtData[1]->WorkLocal[33] == 0*) GOTO 0x0EF8
 22: 0x0EE9 [0x47] UPDATE_PLAYER_POS(-605.141*, 479.929*, -22.681*, yaw=87.2*)
 23: 0x0EF3 [0x47] WAIT_PLAYER_POS_UPDATE
 24: 0x0EF5 [0x01] GOTO 0x0F60
 25: 0x0EF8 [0x02] IF !(ExtData[1]->WorkLocal[33] == 1*) GOTO 0x0F0F
 26: 0x0F00 [0x47] UPDATE_PLAYER_POS(-262.589*, 377.857*, -137.313*, yaw=305.3*)
 27: 0x0F0A [0x47] WAIT_PLAYER_POS_UPDATE
 28: 0x0F0C [0x01] GOTO 0x0F60
 29: 0x0F0F [0x02] IF !(ExtData[1]->WorkLocal[33] == 2*) GOTO 0x0F26
 30: 0x0F17 [0x47] UPDATE_PLAYER_POS(18.348*, 486.940*, -224.334*, yaw=17.1*)
 31: 0x0F21 [0x47] WAIT_PLAYER_POS_UPDATE
 32: 0x0F23 [0x01] GOTO 0x0F60
 33: 0x0F26 [0x02] IF !(ExtData[1]->WorkLocal[33] == 3*) GOTO 0x0F3D
 34: 0x0F2E [0x47] UPDATE_PLAYER_POS(231.593*, 360.094*, -173.572*, yaw=160.8*)
 35: 0x0F38 [0x47] WAIT_PLAYER_POS_UPDATE
 36: 0x0F3A [0x01] GOTO 0x0F60
 37: 0x0F3D [0x02] IF !(ExtData[1]->WorkLocal[33] == 4*) GOTO 0x0F54
 38: 0x0F45 [0x47] UPDATE_PLAYER_POS(553.664*, 523.939*, -38.205*, yaw=233.9*)
 39: 0x0F4F [0x47] WAIT_PLAYER_POS_UPDATE
 40: 0x0F51 [0x01] GOTO 0x0F60
 41: 0x0F54 [0x47] UPDATE_PLAYER_POS(-230.159*, 20.041*, -24.250*, yaw=180.8*)
 42: 0x0F5E [0x47] WAIT_PLAYER_POS_UPDATE

SUBROUTINE_0F60:
 43: 0x0F60 [0x01] GOTO 0x0FE2
 44: 0x0F63 [0x02] IF !(ExtData[1]->WorkLocal[32] == 6*) GOTO 0x0FD6
 45: 0x0F6B [0x02] IF !(ExtData[1]->WorkLocal[31] == 1*) GOTO 0x0F82
 46: 0x0F73 [0x47] UPDATE_PLAYER_POS(-875.117*, -43.892*, -48.084*, yaw=45.1*)
 47: 0x0F7D [0x47] WAIT_PLAYER_POS_UPDATE
 48: 0x0F7F [0x01] GOTO 0x0FD3
 49: 0x0F82 [0x02] IF !(ExtData[1]->WorkLocal[31] == 2*) GOTO 0x0F99
 50: 0x0F8A [0x47] UPDATE_PLAYER_POS(-755.499*, 563.947*, -112.035*, yaw=313.5*)
 51: 0x0F94 [0x47] WAIT_PLAYER_POS_UPDATE
 52: 0x0F96 [0x01] GOTO 0x0FD3
 53: 0x0F99 [0x02] IF !(ExtData[1]->WorkLocal[31] == 3*) GOTO 0x0FB0
 54: 0x0FA1 [0x47] UPDATE_PLAYER_POS(123.251*, 754.209*, -172.124*, yaw=38.7*)
 55: 0x0FAB [0x47] WAIT_PLAYER_POS_UPDATE
 56: 0x0FAD [0x01] GOTO 0x0FD3
 57: 0x0FB0 [0x02] IF !(ExtData[1]->WorkLocal[31] == 4*) GOTO 0x0FC7
