# Event 449

## Metadata

| Field           | Value    |
|-----------------|----------|
| Event Index     | 138/236  |
| Offset          | 0x1805   |
| Data Size       | 36 bytes |
| Calculated Size | 36 bytes |
| Instructions    | 11       |

```
      00 01 02 03 04 05 06 07  08 09 0A 0B 0C 0D 0E 0F
      -- -- -- -- -- -- -- --  -- -- -- -- -- -- -- --
1800:                1E F0 FF  FF 7F 6F 70 29 0B F0 FF       .....op)...
1810: FF 7F 03 29 08 1A F0 0E  01 29 1D C6 80 23 29 08  ...).....)...#).
1820: 1A F0 0E 01 2A 20 00 21  00                       ....* .!.       
```

## Opcodes

```
  0: 0x1805 [0x1E] EventEntity looks at LocalPlayer and starts talking
  1: 0x180A [0x6F] WAIT_FRAME_DELAY: Yield until WaitTime reaches zero
  2: 0x180B [0x70] WAIT_ENTITY_RENDER_FLAG: Wait while EventEntity->Render.Flags3 bit 2 is set (cancel turn if not)
  3: 0x180C [0x29] REQ_SET_WAIT(priority=0x0B, entity_id=LocalPlayer, tag_num=0x03)
  4: 0x1813 [0x29] REQ_SET_WAIT(priority=0x08, entity_id=Shantotto (ID: 17756186/0x010EF01A), tag_num=0x29)
  5: 0x181A [0x1D] PRINT_EVENT_MESSAGE(message_id=9089*)
    → "The time for the test is upon you. \u0007Journey to Ifrit's Cauldron and discover that new skill. Ta-taru!\u007F1\u0000\u0007"
  6: 0x181D [0x23] WAIT_FOR_DIALOG_INTERACTION
  7: 0x181E [0x29] REQ_SET_WAIT(priority=0x08, entity_id=Shantotto (ID: 17756186/0x010EF01A), tag_num=0x2A)
  8: 0x1825 [0x20] SET_CLI_EVENT_UC_FLAG: Unlock player control
  9: 0x1827 [0x21] END_EVENT
 10: 0x1828 [0x00] END_REQSTACK()
```
