# Event 508

## Metadata

| Field           | Value    |
|-----------------|----------|
| Event Index     | 157/236  |
| Offset          | 0x1D65   |
| Data Size       | 62 bytes |
| Calculated Size | 62 bytes |
| Instructions    | 12       |

```
      00 01 02 03 04 05 06 07  08 09 0A 0B 0C 0D 0E 0F
      -- -- -- -- -- -- -- --  -- -- -- -- -- -- -- --
1D60:                42 1E F0  FF FF 7F 1C F7 80 66 00       B........f.
1D70: 80 F8 FF FF 7F F8 FF FF  7F 74 6C 6B 30 2B 1A F0  .........tlk0+..
1D80: 0E 01 07 81 23 03 02 10  08 81 2B 1A F0 0E 01 09  ....#.....+.....
1D90: 81 23 66 00 80 F8 FF FF  7F F8 FF FF 7F 74 6C 6B  .#f..........tlk
1DA0: 31 21 00                                          1!.             
```

## Opcodes

```
  0: 0x1D65 [0x42] SET_CLI_EVENT_CANCEL_DATA()
  1: 0x1D66 [0x1E] EventEntity looks at LocalPlayer and starts talking
  2: 0x1D6B [0x1C] WAIT(30* ticks)
  3: 0x1D6E [0x66] LOAD_EXT_SCHEDULER_MAIN: Load scheduler "tlk0" with entities [EventEntity, EventEntity], work=40*
  4: 0x1D7D [0x2B] Shantotto (ID: 17756186/0x010EF01A) [9706*]:
    → "Still dawdling about?\u0007There's a curse to dispel--I suggest you move out!\u007F1\u0000\u0007"
  5: 0x1D84 [0x23] WAIT_FOR_DIALOG_INTERACTION
  6: 0x1D85 [0x03] Work_Zone[2] = 1143*
  7: 0x1D8A [0x2B] Shantotto (ID: 17756186/0x010EF01A) [9707*]:
    → "In Outer Horutoto, my \u0001\u00053\u0002\u0000\u0000\u0000 lies.\u0007Concealed in a very special Cardian--so keep peeled your eyes!\u007F1\u0000\u0007"
  8: 0x1D91 [0x23] WAIT_FOR_DIALOG_INTERACTION
  9: 0x1D92 [0x66] LOAD_EXT_SCHEDULER_MAIN: Load scheduler "tlk1" with entities [EventEntity, EventEntity], work=40*
 10: 0x1DA1 [0x21] END_EVENT
 11: 0x1DA2 [0x00] END_REQSTACK()
```
