# Event 509

## Metadata

| Field           | Value    |
|-----------------|----------|
| Event Index     | 158/236  |
| Offset          | 0x1DA3   |
| Data Size       | 54 bytes |
| Calculated Size | 54 bytes |
| Instructions    | 12       |

```
      00 01 02 03 04 05 06 07  08 09 0A 0B 0C 0D 0E 0F
      -- -- -- -- -- -- -- --  -- -- -- -- -- -- -- --
1DA0:          42 1E F0 FF FF  7F 1C F7 80 66 00 80 F8     B........f...
1DB0: FF FF 7F F8 FF FF 7F 74  6C 6B 30 03 02 10 08 81  .......tlk0.....
1DC0: 1D 0A 81 23 1D 0B 81 23  66 00 80 F8 FF FF 7F F8  ...#...#f.......
1DD0: FF FF 7F 74 6C 6B 31 21  00                       ...tlk1!.       
```

## Opcodes

```
  0: 0x1DA3 [0x42] SET_CLI_EVENT_CANCEL_DATA()
  1: 0x1DA4 [0x1E] EventEntity looks at LocalPlayer and starts talking
  2: 0x1DA9 [0x1C] WAIT(30* ticks)
  3: 0x1DAC [0x66] LOAD_EXT_SCHEDULER_MAIN(work_offset=40*, entity1=EventEntity, entity2=EventEntity, action="tlk0")
  4: 0x1DBB [0x03] Work_Zone[2] = 1143*
  5: 0x1DC0 [0x1D] PRINT_EVENT_MESSAGE(message_id=9709*)
    → "Excellent, and very well!\u0007Now, off to Jeuno--we've a curse to dispel!\u007F1\u0000\u0007"
  6: 0x1DC3 [0x23] WAIT_FOR_DIALOG_INTERACTION
  7: 0x1DC4 [0x1D] PRINT_EVENT_MESSAGE(message_id=9710*)
    → "Why don't you go on ahead?\u0007I must find someone to watch over the laboratory in my stead.\u007F1\u0000\u0007"
  8: 0x1DC7 [0x23] WAIT_FOR_DIALOG_INTERACTION
  9: 0x1DC8 [0x66] LOAD_EXT_SCHEDULER_MAIN(work_offset=40*, entity1=EventEntity, entity2=EventEntity, action="tlk1")
 10: 0x1DD7 [0x21] END_EVENT
 11: 0x1DD8 [0x00] END_REQSTACK()
```
