# Event 512

## Metadata

| Field           | Value    |
|-----------------|----------|
| Event Index     | 159/236  |
| Offset          | 0x1DD9   |
| Data Size       | 49 bytes |
| Calculated Size | 49 bytes |
| Instructions    | 11       |

```
      00 01 02 03 04 05 06 07  08 09 0A 0B 0C 0D 0E 0F
      -- -- -- -- -- -- -- --  -- -- -- -- -- -- -- --
1DD0:                             42 1E F0 FF FF 7F 1C           B......
1DE0: F7 80 66 00 80 F8 FF FF  7F F8 FF FF 7F 74 6C 6B  ..f..........tlk
1DF0: 30 1D 0C 81 23 1D 0D 81  23 66 00 80 F8 FF FF 7F  0...#...#f......
1E00: F8 FF FF 7F 74 6C 6B 31  21 00                    ....tlk1!.      
```

## Opcodes

```
  0: 0x1DD9 [0x42] SET_CLI_EVENT_CANCEL_DATA()
  1: 0x1DDA [0x1E] EventEntity looks at LocalPlayer and starts talking
  2: 0x1DDF [0x1C] WAIT(30* ticks)
  3: 0x1DE2 [0x66] LOAD_EXT_SCHEDULER_MAIN: Load scheduler "tlk0" with entities [EventEntity, EventEntity], work=40*
  4: 0x1DF1 [0x1D] PRINT_EVENT_MESSAGE(message_id=9714*)
    → "<Ahem>--Allow me to say this with consummate clarity.\u0007I am not in the business of running a charity!\u007F1\u0000\u0007"
  5: 0x1DF4 [0x23] WAIT_FOR_DIALOG_INTERACTION
  6: 0x1DF5 [0x1D] PRINT_EVENT_MESSAGE(message_id=9715*)
    → "If you're too cheap to pay, then off with you.\u007F1\u0000\u0007"
  7: 0x1DF8 [0x23] WAIT_FOR_DIALOG_INTERACTION
  8: 0x1DF9 [0x66] LOAD_EXT_SCHEDULER_MAIN: Load scheduler "tlk1" with entities [EventEntity, EventEntity], work=40*
  9: 0x1E08 [0x21] END_EVENT
 10: 0x1E09 [0x00] END_REQSTACK()
```
