# Event 65535

## Metadata

| Field           | Value    |
|-----------------|----------|
| Event Index     | 116/236  |
| Offset          | 0x0D16   |
| Data Size       | 30 bytes |
| Calculated Size | 30 bytes |
| Instructions    | 8        |

```
      00 01 02 03 04 05 06 07  08 09 0A 0B 0C 0D 0E 0F
      -- -- -- -- -- -- -- --  -- -- -- -- -- -- -- --
0D10:                   29 08  1A F0 0E 01 0D 1D 76 80        ).......v.
0D20: 23 29 08 1A F0 0E 01 0E  29 08 1A F0 0E 01 29 1D  #)......).....).
0D30: 77 80 23 00                                       w.#.            
```

## Opcodes

```
  0: 0x0D16 [0x29] REQ_SET_WAIT(priority=0x08, entity_id=Shantotto (ID: 17756186/0x010EF01A), tag_num=0x0D)
  1: 0x0D1D [0x1D] PRINT_EVENT_MESSAGE(message_id=8129*)
    → "Ohoho!\u0007This version should stand up to even the strongest golem magic.\u007F1\u0000\u0007"
  2: 0x0D20 [0x23] WAIT_FOR_DIALOG_INTERACTION
  3: 0x0D21 [0x29] REQ_SET_WAIT(priority=0x08, entity_id=Shantotto (ID: 17756186/0x010EF01A), tag_num=0x0E)
  4: 0x0D28 [0x29] REQ_SET_WAIT(priority=0x08, entity_id=Shantotto (ID: 17756186/0x010EF01A), tag_num=0x29)
  5: 0x0D2F [0x1D] PRINT_EVENT_MESSAGE(message_id=8130*)
    → "Use it well, and maybe your days as a total loser won't be so tragic.\u007F1\u0000\u0007"
  6: 0x0D32 [0x23] WAIT_FOR_DIALOG_INTERACTION
  7: 0x0D33 [0x00] END_REQSTACK()
```
