# Event 65535

## Metadata

| Field           | Value    |
|-----------------|----------|
| Event Index     | 121/236  |
| Offset          | 0x0DAD   |
| Data Size       | 37 bytes |
| Calculated Size | 37 bytes |
| Instructions    | 9        |

```
      00 01 02 03 04 05 06 07  08 09 0A 0B 0C 0D 0E 0F
      -- -- -- -- -- -- -- --  -- -- -- -- -- -- -- --
0DA0:                                         29 08 1A               )..
0DB0: F0 0E 01 01 1D 7D 80 23  29 08 1A F0 0E 01 02 29  .....}.#)......)
0DC0: 08 1A F0 0E 01 09 1D 7E  80 23 29 08 1A F0 0E 01  .......~.#).....
0DD0: 0A 00                                             ..              
```

## Opcodes

```
  0: 0x0DAD [0x29] REQ_SET_WAIT(priority=0x08, entity_id=Shantotto (ID: 17756186/0x010EF01A), tag_num=0x01)
  1: 0x0DB4 [0x1D] PRINT_EVENT_MESSAGE(message_id=7627*)
    → "Long ago, there was a student who did give the crazy subject a try...\u007F1\u0000\u0007"
  2: 0x0DB7 [0x23] WAIT_FOR_DIALOG_INTERACTION
  3: 0x0DB8 [0x29] REQ_SET_WAIT(priority=0x08, entity_id=Shantotto (ID: 17756186/0x010EF01A), tag_num=0x02)
  4: 0x0DBF [0x29] REQ_SET_WAIT(priority=0x08, entity_id=Shantotto (ID: 17756186/0x010EF01A), tag_num=0x09)
  5: 0x0DC6 [0x1D] PRINT_EVENT_MESSAGE(message_id=7628*)
    → "Well, if I was a professor at the School of Magic, I would fail that lunatic in the blink of an eye!\u007F1\u0000\u0007"
  6: 0x0DC9 [0x23] WAIT_FOR_DIALOG_INTERACTION
  7: 0x0DCA [0x29] REQ_SET_WAIT(priority=0x08, entity_id=Shantotto (ID: 17756186/0x010EF01A), tag_num=0x0A)
  8: 0x0DD1 [0x00] END_REQSTACK()
```
