# Event 65535

## Metadata

| Field           | Value    |
|-----------------|----------|
| Event Index     | 223/236  |
| Offset          | 0x21CC   |
| Data Size       | 32 bytes |
| Calculated Size | 32 bytes |
| Instructions    | 10       |

```
      00 01 02 03 04 05 06 07  08 09 0A 0B 0C 0D 0E 0F
      -- -- -- -- -- -- -- --  -- -- -- -- -- -- -- --
21C0:                                      32 08 80 5A              2..Z
21D0: 00 35 81 36 81 37 81 5A  01 1F 00 38 81 39 81 37  .5.6.7.Z...8.9.7
21E0: 81 1F 01 6F 1E 89 F0 0E  01 6F 70 00              ...o.....op.    
```

## Opcodes

```
  0: 0x21CC [0x32] ExtData[1]->MainSpeed = 13* * 0.1
  1: 0x21CF [0x5A] UPDATE_EVENT_POSITION: Set EventEntity MovePosition to X=117.871*, Z=109.967*, Y=-2.000*
  2: 0x21D7 [0x5A] UPDATE_EVENT_POSITION: Move EventEntity incrementally towards MovePosition
  3: 0x21D9 [0x1F] MOVE_ENTITY: EventEntity moves to X=117.004*, Z=111.312*, Y=-2.000*
  4: 0x21E1 [0x1F] MOVE_ENTITY: Update entity position (mode=1)
  5: 0x21E3 [0x6F] WAIT_FRAME_DELAY: Yield until WaitTime reaches zero
  6: 0x21E4 [0x1E] EventEntity looks at Koru-Moru (ID: 17756297/0x010EF089) and starts talking
  7: 0x21E9 [0x6F] WAIT_FRAME_DELAY: Yield until WaitTime reaches zero
  8: 0x21EA [0x70] WAIT_ENTITY_RENDER_FLAG: Wait while EventEntity->Render.Flags3 bit 2 is set (cancel turn if not)
  9: 0x21EB [0x00] END_REQSTACK()
```
