# Event 233

## Metadata

| Field           | Value    |
|-----------------|----------|
| Event Index     | 5/10     |
| Offset          | 0x008C   |
| Data Size       | 61 bytes |
| Calculated Size | 61 bytes |
| Instructions    | 11       |

```
      00 01 02 03 04 05 06 07  08 09 0A 0B 0C 0D 0E 0F
      -- -- -- -- -- -- -- --  -- -- -- -- -- -- -- --
0080:                                      42 1E F0 FF              B...
0090: FF 7F 1D 0D 80 23 66 01  80 F8 FF FF 7F F8 FF FF  .....#f.........
00A0: 7F 70 61 73 30 1D 0E 80  23 53 F8 FF FF 7F F8 FF  .pas0...#S......
00B0: FF 7F 70 61 73 30 45 0F  80 F0 FF FF 7F F0 FF FF  ..pas0E.........
00C0: 7F 71 73 74 63 10 80 21  00                       .qstc..!.       
```

## Opcodes

```
  0: 0x008C [0x42] SET_CLI_EVENT_CANCEL_DATA()
  1: 0x008D [0x1E] EventEntity looks at LocalPlayer and starts talking
  2: 0x0092 [0x1D] PRINT_EVENT_MESSAGE(message_id=7602*)
    → "So, did you do it?\u0007What's that? A letter from my daughter?\u0007Oh, how sweet!\u007F1\u0000\u0007"
  3: 0x0095 [0x23] WAIT_FOR_DIALOG_INTERACTION
  4: 0x0096 [0x66] LOAD_EXT_SCHEDULER_MAIN(work_offset=50*, entity1=EventEntity, entity2=EventEntity, action="pas0")
  5: 0x00A5 [0x1D] PRINT_EVENT_MESSAGE(message_id=7603*)
    → "Be patient, my little kitten--Mom's gonna work hard for you!\u0007Oh, wait...I should give you this first. Thanks again!\u007F1\u0000\u0007"
  6: 0x00A8 [0x23] WAIT_FOR_DIALOG_INTERACTION
  7: 0x00A9 [0x53] WAIT_SCHEDULER_TASK(entity1=EventEntity, entity2=EventEntity, action_id="pas0")
  8: 0x00B6 [0x45] LOAD_SCHEDULED_TASK(work_offset1=201*, entity1=LocalPlayer, entity2=LocalPlayer, scheduler_id="qstc", work_offset2=0*)
  9: 0x00C7 [0x21] END_EVENT
 10: 0x00C8 [0x00] END_REQSTACK()
```
