# Event 65535

## Metadata

| Field           | Value    |
|-----------------|----------|
| Event Index     | 19/19    |
| Offset          | 0x0060   |
| Data Size       | 50 bytes |
| Calculated Size | 50 bytes |
| Instructions    | 12       |

```
      00 01 02 03 04 05 06 07  08 09 0A 0B 0C 0D 0E 0F
      -- -- -- -- -- -- -- --  -- -- -- -- -- -- -- --
0060: 6C F8 FF FF 7F 02 80 01  80 32 03 80 1E 65 50 03  l........2...eP.
0070: 01 6F 76 F8 FF FF 7F 1F  00 04 80 05 80 06 80 1F  .ov.............
0080: 01 1F 00 07 80 08 80 09  80 1F 01 6F 1E 65 50 03  ...........o.eP.
0090: 01 00                                             ..              
```

## Opcodes

```
  0: 0x0060 [0x6C] FADE_ENTITY_COLOR(entity_id=EventEntity, end_alpha=128*, fade_time=1*)
  1: 0x0069 [0x32] ExtData[1]->MainSpeed = 38* * 0.1
  2: 0x006C [0x1E] EventEntity looks at Yoyoroon (ID: 16994405/0x01035065) and starts talking
  3: 0x0071 [0x6F] WAIT_FRAME_DELAY: Yield until WaitTime reaches zero
  4: 0x0072 [0x76] CHECK_ENTITY_RENDER_FLAGS: Wait until EventEntity Render.Flags0 and Render.Flags3 conditions are met
  5: 0x0077 [0x1F] MOVE_ENTITY: EventEntity moves to X=6.576*, Z=67.789*, Y=-6.000*
  6: 0x007F [0x1F] MOVE_ENTITY: Update entity position (mode=1)
  7: 0x0081 [0x1F] MOVE_ENTITY: EventEntity moves to X=-2.397*, Z=67.252*, Y=-6.667*
  8: 0x0089 [0x1F] MOVE_ENTITY: Update entity position (mode=1)
  9: 0x008B [0x6F] WAIT_FRAME_DELAY: Yield until WaitTime reaches zero
 10: 0x008C [0x1E] EventEntity looks at Yoyoroon (ID: 16994405/0x01035065) and starts talking
 11: 0x0091 [0x00] END_REQSTACK()
```
