# Event 14

## Metadata

| Field           | Value    |
|-----------------|----------|
| Event Index     | 4/12     |
| Offset          | 0x00D3   |
| Data Size       | 46 bytes |
| Calculated Size | 46 bytes |
| Instructions    | 12       |

```
      00 01 02 03 04 05 06 07  08 09 0A 0B 0C 0D 0E 0F
      -- -- -- -- -- -- -- --  -- -- -- -- -- -- -- --
00D0:          03 08 10 02 80  03 09 10 03 80 1E F0 FF     .............
00E0: FF 7F 6F 70 5B 00 80 F8  FF FF 7F F8 FF FF 7F 74  ..op[..........t
00F0: 6C 6B 30 1D 0F 80 23 5E  69 64 6C 30 1C 00 80 21  lk0...#^idl0...!
0100: 00                                                .               
```

## Opcodes

```
  0: 0x00D3 [0x03] Work_Zone[8] = 16631*
  1: 0x00D8 [0x03] Work_Zone[9] = 410*
  2: 0x00DD [0x1E] EventEntity looks at LocalPlayer and starts talking
  3: 0x00E2 [0x6F] WAIT_FRAME_DELAY: Yield until WaitTime reaches zero
  4: 0x00E3 [0x70] WAIT_ENTITY_RENDER_FLAG: Wait while EventEntity->Render.Flags3 bit 2 is set (cancel turn if not)
  5: 0x00E4 [0x5B] LOAD_EXT_SCHEDULER: Load scheduler "tlk0" with entities [EventEntity, EventEntity], work=60*
  6: 0x00F3 [0x1D] PRINT_EVENT_MESSAGE(message_id=7073*)
    → "Look, just bring me \u0001\u0001\u0001 \u0001\u0005$\u0002\u0006\u0000\u0000. And be careful, too.\u007F1\u0000\u0007"
  7: 0x00F6 [0x23] WAIT_FOR_DIALOG_INTERACTION
  8: 0x00F7 [0x5E] EventEntity goes idle (kills current action) (animation: "idl0")
  9: 0x00FC [0x1C] WAIT(60* ticks)
 10: 0x00FF [0x21] END_EVENT
 11: 0x0100 [0x00] END_REQSTACK()
```
