# Event 65535

## Metadata

| Field           | Value    |
|-----------------|----------|
| Event Index     | 76/78    |
| Offset          | 0x04AC   |
| Data Size       | 56 bytes |
| Calculated Size | 56 bytes |
| Instructions    | 10       |

```
      00 01 02 03 04 05 06 07  08 09 0A 0B 0C 0D 0E 0F
      -- -- -- -- -- -- -- --  -- -- -- -- -- -- -- --
04A0:                                      32 12 80 1F              2...
04B0: 00 13 80 14 80 10 80 1F  01 6F 4A 9A F1 06 01 F0  .........oJ.....
04C0: FF FF 7F 6F 76 9A F1 06  01 2C 9A F1 06 01 9A F1  ...ov....,......
04D0: 06 01 72 65 73 30 53 9A  F1 06 01 9A F1 06 01 72  ..res0S........r
04E0: 65 73 30 00                                       es0.            
```

## Opcodes

```
  0: 0x04AC [0x32] ExtData[1]->MainSpeed = 13* * 0.1
  1: 0x04AF [0x1F] MOVE_ENTITY: EventEntity moves to X=-339.269*, Z=135.667*, Y=-100.249*
  2: 0x04B7 [0x1F] MOVE_ENTITY: Update entity position (mode=1)
  3: 0x04B9 [0x6F] WAIT_FRAME_DELAY: Yield until WaitTime reaches zero
  4: 0x04BA [0x4A] Cherukiki (ID: 17232282/0x0106F19A) looks at LocalPlayer
  5: 0x04C3 [0x6F] WAIT_FRAME_DELAY: Yield until WaitTime reaches zero
  6: 0x04C4 [0x76] CHECK_ENTITY_RENDER_FLAGS: Wait until Cherukiki (ID: 17232282/0x0106F19A) Render.Flags0 and Render.Flags3 conditions are met
  7: 0x04C9 [0x2C] CREATE_SCHEDULER_TASK: Create scheduler "res0" for entities [Cherukiki (ID: 17232282/0x0106F19A), Cherukiki (ID: 17232282/0x0106F19A)]
  8: 0x04D6 [0x53] WAIT_SCHEDULER_TASK(entity1=Cherukiki (ID: 17232282/0x0106F19A), entity2=Cherukiki (ID: 17232282/0x0106F19A), action_id="res0")
  9: 0x04E3 [0x00] END_REQSTACK()
```
