# 17481863 - Dazbog

## Common Data

| Field            | Value                  |
|------------------|------------------------|
| Zone             | Zeruhn Mines (ID: 172) |
| Block Size       | 428 bytes              |
| Total Events     | 20                     |
| References Count | 9                      |

## List of Events

| Event ID                   | Entrypoint   |   Size |   Instructions |
|----------------------------|--------------|--------|----------------|
| [65535](#event-65535)      | 0x0000       |      1 |              1 |
| [225](#event-225)          | 0x0001       |      7 |              2 |
| [65535.1](#event-655351)   | 0x0008       |     14 |              2 |
| [65535.2](#event-655352)   | 0x0016       |     14 |              2 |
| [65535.3](#event-655353)   | 0x0024       |     14 |              2 |
| [65535.4](#event-655354)   | 0x0032       |     14 |              2 |
| [65535.5](#event-655355)   | 0x0040       |     42 |              6 |
| [65535.6](#event-655356)   | 0x006A       |     14 |              2 |
| [65535.7](#event-655357)   | 0x0078       |     14 |              2 |
| [65535.8](#event-655358)   | 0x0086       |     14 |              2 |
| [65535.9](#event-655359)   | 0x0094       |     14 |              2 |
| [65535.10](#event-6553510) | 0x00A2       |     14 |              2 |
| [65535.11](#event-6553511) | 0x00B0       |     14 |              2 |
| [65535.12](#event-6553512) | 0x00BE       |     14 |              2 |
| [65535.13](#event-6553513) | 0x00CC       |     14 |              2 |
| [65535.14](#event-6553514) | 0x00DA       |     14 |              2 |
| [65535.15](#event-6553515) | 0x00E8       |     14 |              2 |
| [65535.16](#event-6553516) | 0x00F6       |     25 |              7 |
| [65535.17](#event-6553517) | 0x010F       |     14 |              2 |
| [65535.18](#event-6553518) | 0x011D       |     10 |              2 |

## DAT References (imed_data)

|   Index | Hex Value   |   Dec Value |
|---------|-------------|-------------|
|       0 | 0x0028      |          40 |
|       1 | 0xFFFF1F4B  |  4294909771 |
|       2 | 0x54B7      |       21687 |
|       3 | 0x0043      |          67 |
|       4 | 0xFFFF600C  |  4294926348 |
|       5 | 0x52AC      |       21164 |
|       6 | 0x0000      |           0 |
|       7 | 0x0080      |         128 |
|       8 | 0x0064      |         100 |

## Events

### Event 65535

#### Metadata

| Field        | Value   |
|--------------|---------|
| Entrypoint   | 0x0000  |
| Data Size    | 1 bytes |
| Instructions | 1       |

```
      00 01 02 03 04 05 06 07  08 09 0A 0B 0C 0D 0E 0F
      -- -- -- -- -- -- -- --  -- -- -- -- -- -- -- --
0000: 00                                                .               
```

#### Opcodes

```
  0: 0x0000 [0x00] END_REQSTACK()
```

### Event 225

#### Metadata

| Field        | Value   |
|--------------|---------|
| Entrypoint   | 0x0001  |
| Data Size    | 7 bytes |
| Instructions | 2       |

```
      00 01 02 03 04 05 06 07  08 09 0A 0B 0C 0D 0E 0F
      -- -- -- -- -- -- -- --  -- -- -- -- -- -- -- --
0000:    92 01 F8 FF FF 7F 00                            .......        
```

#### Opcodes

```
  0: 0x0001 [0x92] EventEntity->Render.Flags3 ^= 0x01
  1: 0x0007 [0x00] END_REQSTACK()
```

### Event 65535.1

#### Metadata

| Field        | Value    |
|--------------|----------|
| Entrypoint   | 0x0008   |
| Data Size    | 14 bytes |
| Instructions | 2        |

```
      00 01 02 03 04 05 06 07  08 09 0A 0B 0C 0D 0E 0F
      -- -- -- -- -- -- -- --  -- -- -- -- -- -- -- --
0000:                          2C F8 FF FF 7F F8 FF FF          ,.......
0010: 7F 73 70 30 31 00                                 .sp01.          
```

#### Opcodes

```
  0: 0x0008 [0x2C] CREATE_SCHEDULER_TASK: Create scheduler "sp01" with entities [EventEntity, EventEntity]
  1: 0x0015 [0x00] END_REQSTACK()
```

### Event 65535.2

#### Metadata

| Field        | Value    |
|--------------|----------|
| Entrypoint   | 0x0016   |
| Data Size    | 14 bytes |
| Instructions | 2        |

```
      00 01 02 03 04 05 06 07  08 09 0A 0B 0C 0D 0E 0F
      -- -- -- -- -- -- -- --  -- -- -- -- -- -- -- --
0010:                   53 F8  FF FF 7F F8 FF FF 7F 73        S........s
0020: 70 30 31 00                                       p01.            
```

#### Opcodes

```
  0: 0x0016 [0x53] WAIT_SCHEDULER_TASK: Wait for scheduler "sp01" with entities [EventEntity, EventEntity]
  1: 0x0023 [0x00] END_REQSTACK()
```

### Event 65535.3

#### Metadata

| Field        | Value    |
|--------------|----------|
| Entrypoint   | 0x0024   |
| Data Size    | 14 bytes |
| Instructions | 2        |

```
      00 01 02 03 04 05 06 07  08 09 0A 0B 0C 0D 0E 0F
      -- -- -- -- -- -- -- --  -- -- -- -- -- -- -- --
0020:             2C F8 FF FF  7F F8 FF FF 7F 73 70 31      ,........sp1
0030: 30 00                                             0.              
```

#### Opcodes

```
  0: 0x0024 [0x2C] CREATE_SCHEDULER_TASK: Create scheduler "sp10" with entities [EventEntity, EventEntity]
  1: 0x0031 [0x00] END_REQSTACK()
```

### Event 65535.4

#### Metadata

| Field        | Value    |
|--------------|----------|
| Entrypoint   | 0x0032   |
| Data Size    | 14 bytes |
| Instructions | 2        |

```
      00 01 02 03 04 05 06 07  08 09 0A 0B 0C 0D 0E 0F
      -- -- -- -- -- -- -- --  -- -- -- -- -- -- -- --
0030:       53 F8 FF FF 7F F8  FF FF 7F 73 70 31 30 00    S........sp10.
```

#### Opcodes

```
  0: 0x0032 [0x53] WAIT_SCHEDULER_TASK: Wait for scheduler "sp10" with entities [EventEntity, EventEntity]
  1: 0x003F [0x00] END_REQSTACK()
```

### Event 65535.5

#### Metadata

| Field        | Value    |
|--------------|----------|
| Entrypoint   | 0x0040   |
| Data Size    | 42 bytes |
| Instructions | 6        |

```
      00 01 02 03 04 05 06 07  08 09 0A 0B 0C 0D 0E 0F
      -- -- -- -- -- -- -- --  -- -- -- -- -- -- -- --
0040: 2C F8 FF FF 7F F8 FF FF  7F 73 70 31 30 53 F8 FF  ,........sp10S..
0050: FF 7F F8 FF FF 7F 73 70  31 30 4A 87 C0 0A 01 F0  ......sp10J.....
0060: FF FF 7F 6F 76 87 C0 0A  01 00                    ...ov.....      
```

#### Opcodes

```
  0: 0x0040 [0x2C] CREATE_SCHEDULER_TASK: Create scheduler "sp10" with entities [EventEntity, EventEntity]
  1: 0x004D [0x53] WAIT_SCHEDULER_TASK: Wait for scheduler "sp10" with entities [EventEntity, EventEntity]
  2: 0x005A [0x4A] Dazbog (ID: 17481863/0x010AC087) looks at LocalPlayer
  3: 0x0063 [0x6F] WAIT_FRAME_DELAY: Yield until WaitTime reaches zero
  4: 0x0064 [0x76] CHECK_ENTITY_RENDER_FLAGS: Wait until Dazbog (ID: 17481863/0x010AC087) Render.Flags0 and Render.Flags3 conditions are met
  5: 0x0069 [0x00] END_REQSTACK()
```

### Event 65535.6

#### Metadata

| Field        | Value    |
|--------------|----------|
| Entrypoint   | 0x006A   |
| Data Size    | 14 bytes |
| Instructions | 2        |

```
      00 01 02 03 04 05 06 07  08 09 0A 0B 0C 0D 0E 0F
      -- -- -- -- -- -- -- --  -- -- -- -- -- -- -- --
0060:                                2C F8 FF FF 7F F8            ,.....
0070: FF FF 7F 73 70 32 30 00                           ...sp20.        
```

#### Opcodes

```
  0: 0x006A [0x2C] CREATE_SCHEDULER_TASK: Create scheduler "sp20" with entities [EventEntity, EventEntity]
  1: 0x0077 [0x00] END_REQSTACK()
```

### Event 65535.7

#### Metadata

| Field        | Value    |
|--------------|----------|
| Entrypoint   | 0x0078   |
| Data Size    | 14 bytes |
| Instructions | 2        |

```
      00 01 02 03 04 05 06 07  08 09 0A 0B 0C 0D 0E 0F
      -- -- -- -- -- -- -- --  -- -- -- -- -- -- -- --
0070:                          53 F8 FF FF 7F F8 FF FF          S.......
0080: 7F 73 70 32 30 00                                 .sp20.          
```

#### Opcodes

```
  0: 0x0078 [0x53] WAIT_SCHEDULER_TASK: Wait for scheduler "sp20" with entities [EventEntity, EventEntity]
  1: 0x0085 [0x00] END_REQSTACK()
```

### Event 65535.8

#### Metadata

| Field        | Value    |
|--------------|----------|
| Entrypoint   | 0x0086   |
| Data Size    | 14 bytes |
| Instructions | 2        |

```
      00 01 02 03 04 05 06 07  08 09 0A 0B 0C 0D 0E 0F
      -- -- -- -- -- -- -- --  -- -- -- -- -- -- -- --
0080:                   2C F8  FF FF 7F F8 FF FF 7F 73        ,........s
0090: 70 33 30 00                                       p30.            
```

#### Opcodes

```
  0: 0x0086 [0x2C] CREATE_SCHEDULER_TASK: Create scheduler "sp30" with entities [EventEntity, EventEntity]
  1: 0x0093 [0x00] END_REQSTACK()
```

### Event 65535.9

#### Metadata

| Field        | Value    |
|--------------|----------|
| Entrypoint   | 0x0094   |
| Data Size    | 14 bytes |
| Instructions | 2        |

```
      00 01 02 03 04 05 06 07  08 09 0A 0B 0C 0D 0E 0F
      -- -- -- -- -- -- -- --  -- -- -- -- -- -- -- --
0090:             53 F8 FF FF  7F F8 FF FF 7F 73 70 33      S........sp3
00A0: 30 00                                             0.              
```

#### Opcodes

```
  0: 0x0094 [0x53] WAIT_SCHEDULER_TASK: Wait for scheduler "sp30" with entities [EventEntity, EventEntity]
  1: 0x00A1 [0x00] END_REQSTACK()
```

### Event 65535.10

#### Metadata

| Field        | Value    |
|--------------|----------|
| Entrypoint   | 0x00A2   |
| Data Size    | 14 bytes |
| Instructions | 2        |

```
      00 01 02 03 04 05 06 07  08 09 0A 0B 0C 0D 0E 0F
      -- -- -- -- -- -- -- --  -- -- -- -- -- -- -- --
00A0:       2C F8 FF FF 7F F8  FF FF 7F 73 70 34 30 00    ,........sp40.
```

#### Opcodes

```
  0: 0x00A2 [0x2C] CREATE_SCHEDULER_TASK: Create scheduler "sp40" with entities [EventEntity, EventEntity]
  1: 0x00AF [0x00] END_REQSTACK()
```

### Event 65535.11

#### Metadata

| Field        | Value    |
|--------------|----------|
| Entrypoint   | 0x00B0   |
| Data Size    | 14 bytes |
| Instructions | 2        |

```
      00 01 02 03 04 05 06 07  08 09 0A 0B 0C 0D 0E 0F
      -- -- -- -- -- -- -- --  -- -- -- -- -- -- -- --
00B0: 53 F8 FF FF 7F F8 FF FF  7F 73 70 34 30 00        S........sp40.  
```

#### Opcodes

```
  0: 0x00B0 [0x53] WAIT_SCHEDULER_TASK: Wait for scheduler "sp40" with entities [EventEntity, EventEntity]
  1: 0x00BD [0x00] END_REQSTACK()
```

### Event 65535.12

#### Metadata

| Field        | Value    |
|--------------|----------|
| Entrypoint   | 0x00BE   |
| Data Size    | 14 bytes |
| Instructions | 2        |

```
      00 01 02 03 04 05 06 07  08 09 0A 0B 0C 0D 0E 0F
      -- -- -- -- -- -- -- --  -- -- -- -- -- -- -- --
00B0:                                            2C F8                ,.
00C0: FF FF 7F F8 FF FF 7F 73  70 35 30 00              .......sp50.    
```

#### Opcodes

```
  0: 0x00BE [0x2C] CREATE_SCHEDULER_TASK: Create scheduler "sp50" with entities [EventEntity, EventEntity]
  1: 0x00CB [0x00] END_REQSTACK()
```

### Event 65535.13

#### Metadata

| Field        | Value    |
|--------------|----------|
| Entrypoint   | 0x00CC   |
| Data Size    | 14 bytes |
| Instructions | 2        |

```
      00 01 02 03 04 05 06 07  08 09 0A 0B 0C 0D 0E 0F
      -- -- -- -- -- -- -- --  -- -- -- -- -- -- -- --
00C0:                                      53 F8 FF FF              S...
00D0: 7F F8 FF FF 7F 73 70 35  30 00                    .....sp50.      
```

#### Opcodes

```
  0: 0x00CC [0x53] WAIT_SCHEDULER_TASK: Wait for scheduler "sp50" with entities [EventEntity, EventEntity]
  1: 0x00D9 [0x00] END_REQSTACK()
```

### Event 65535.14

#### Metadata

| Field        | Value    |
|--------------|----------|
| Entrypoint   | 0x00DA   |
| Data Size    | 14 bytes |
| Instructions | 2        |

```
      00 01 02 03 04 05 06 07  08 09 0A 0B 0C 0D 0E 0F
      -- -- -- -- -- -- -- --  -- -- -- -- -- -- -- --
00D0:                                2C F8 FF FF 7F F8            ,.....
00E0: FF FF 7F 73 70 36 30 00                           ...sp60.        
```

#### Opcodes

```
  0: 0x00DA [0x2C] CREATE_SCHEDULER_TASK: Create scheduler "sp60" with entities [EventEntity, EventEntity]
  1: 0x00E7 [0x00] END_REQSTACK()
```

### Event 65535.15

#### Metadata

| Field        | Value    |
|--------------|----------|
| Entrypoint   | 0x00E8   |
| Data Size    | 14 bytes |
| Instructions | 2        |

```
      00 01 02 03 04 05 06 07  08 09 0A 0B 0C 0D 0E 0F
      -- -- -- -- -- -- -- --  -- -- -- -- -- -- -- --
00E0:                          53 F8 FF FF 7F F8 FF FF          S.......
00F0: 7F 73 70 36 30 00                                 .sp60.          
```

#### Opcodes

```
  0: 0x00E8 [0x53] WAIT_SCHEDULER_TASK: Wait for scheduler "sp60" with entities [EventEntity, EventEntity]
  1: 0x00F5 [0x00] END_REQSTACK()
```

### Event 65535.16

#### Metadata

| Field        | Value    |
|--------------|----------|
| Entrypoint   | 0x00F6   |
| Data Size    | 25 bytes |
| Instructions | 7        |

```
      00 01 02 03 04 05 06 07  08 09 0A 0B 0C 0D 0E 0F
      -- -- -- -- -- -- -- --  -- -- -- -- -- -- -- --
00F0:                   32 00  80 1F 00 01 80 02 80 03        2.........
0100: 80 1F 01 1F 00 04 80 05  80 06 80 1F 01 6F 00     .............o. 
```

#### Opcodes

```
  0: 0x00F6 [0x32] ExtData[1]->MainSpeed = 40* * 0.1
  1: 0x00F9 [0x1F] MOVE_ENTITY: EventEntity moves to X=-57.525*, Z=21.687*, Y=0.067*
  2: 0x0101 [0x1F] MOVE_ENTITY: Update entity position (mode=1)
  3: 0x0103 [0x1F] MOVE_ENTITY: EventEntity moves to X=-40.948*, Z=21.164*, Y=0.000*
  4: 0x010B [0x1F] MOVE_ENTITY: Update entity position (mode=1)
  5: 0x010D [0x6F] WAIT_FRAME_DELAY: Yield until WaitTime reaches zero
  6: 0x010E [0x00] END_REQSTACK()
```

### Event 65535.17

#### Metadata

| Field        | Value    |
|--------------|----------|
| Entrypoint   | 0x010F   |
| Data Size    | 14 bytes |
| Instructions | 2        |

```
      00 01 02 03 04 05 06 07  08 09 0A 0B 0C 0D 0E 0F
      -- -- -- -- -- -- -- --  -- -- -- -- -- -- -- --
0100:                                               2C                 ,
0110: 87 C0 0A 01 87 C0 0A 01  6B 65 73 75 00           ........kesu.   
```

#### Opcodes

```
  0: 0x010F [0x2C] CREATE_SCHEDULER_TASK: Create scheduler "kesu" with entities [Dazbog (ID: 17481863/0x010AC087), Dazbog (ID: 17481863/0x010AC087)]
  1: 0x011C [0x00] END_REQSTACK()
```

### Event 65535.18

#### Metadata

| Field        | Value    |
|--------------|----------|
| Entrypoint   | 0x011D   |
| Data Size    | 10 bytes |
| Instructions | 2        |

```
      00 01 02 03 04 05 06 07  08 09 0A 0B 0C 0D 0E 0F
      -- -- -- -- -- -- -- --  -- -- -- -- -- -- -- --
0110:                                         6C 87 C0               l..
0120: 0A 01 07 80 08 80 00                              .......         
```

#### Opcodes

```
  0: 0x011D [0x6C] FADE_ENTITY_COLOR(entity_id=Dazbog (ID: 17481863/0x010AC087), end_alpha=128*, fade_time=100*)
  1: 0x0126 [0x00] END_REQSTACK()
```
