# 17481868

## Common Data

| Field            | Value                  |
|------------------|------------------------|
| Zone             | Zeruhn Mines (ID: 172) |
| Block Size       | 128 bytes              |
| Total Events     | 3                      |
| References Count | 13                     |

## List of Events

| Event ID                 | Entrypoint   |   Size |   Instructions |
|--------------------------|--------------|--------|----------------|
| [65535](#event-65535)    | 0x0000       |      1 |              1 |
| [225](#event-225)        | 0x0001       |      1 |              1 |
| [65535.1](#event-655351) | 0x0002       |     45 |             11 |

## DAT References (imed_data)

|   Index | Hex Value   |   Dec Value |
|---------|-------------|-------------|
|       0 | 0x0028      |          40 |
|       1 | 0xFFFF89C2  |  4294937026 |
|       2 | 0x2652      |        9810 |
|       3 | 0x0022      |          34 |
|       4 | 0xFFFF928F  |  4294939279 |
|       5 | 0x1A91      |        6801 |
|       6 | 0x0000      |           0 |
|       7 | 0xFFFFBDF4  |  4294950388 |
|       8 | 0x13E7      |        5095 |
|       9 | 0x0013      |          19 |
|      10 | 0xFFFFE3BC  |  4294960060 |
|      11 | 0x14F2      |        5362 |
|      12 | 0x0008      |           8 |

## Events

### Event 65535

#### Metadata

| Field        | Value   |
|--------------|---------|
| Entrypoint   | 0x0000  |
| Data Size    | 1 bytes |
| Instructions | 1       |

```
      00 01 02 03 04 05 06 07  08 09 0A 0B 0C 0D 0E 0F
      -- -- -- -- -- -- -- --  -- -- -- -- -- -- -- --
0000: 00                                                .               
```

#### Opcodes

```
  0: 0x0000 [0x00] END_REQSTACK()
```

### Event 225

#### Metadata

| Field        | Value   |
|--------------|---------|
| Entrypoint   | 0x0001  |
| Data Size    | 1 bytes |
| Instructions | 1       |

```
      00 01 02 03 04 05 06 07  08 09 0A 0B 0C 0D 0E 0F
      -- -- -- -- -- -- -- --  -- -- -- -- -- -- -- --
0000:    00                                              .              
```

#### Opcodes

```
  0: 0x0001 [0x00] END_REQSTACK()
```

### Event 65535.1

#### Metadata

| Field        | Value    |
|--------------|----------|
| Entrypoint   | 0x0002   |
| Data Size    | 45 bytes |
| Instructions | 11       |

```
      00 01 02 03 04 05 06 07  08 09 0A 0B 0C 0D 0E 0F
      -- -- -- -- -- -- -- --  -- -- -- -- -- -- -- --
0000:       32 00 80 1F 00 01  80 02 80 03 80 1F 01 1F    2.............
0010: 00 04 80 05 80 06 80 1F  01 1F 00 07 80 08 80 09  ................
0020: 80 1F 01 1F 00 0A 80 0B  80 0C 80 1F 01 6F 00     .............o. 
```

#### Opcodes

```
  0: 0x0002 [0x32] ExtData[1]->MainSpeed = 40* * 0.1
  1: 0x0005 [0x1F] MOVE_ENTITY: EventEntity moves to X=-30.270*, Z=9.810*, Y=0.034*
  2: 0x000D [0x1F] MOVE_ENTITY: Update entity position (mode=1)
  3: 0x000F [0x1F] MOVE_ENTITY: EventEntity moves to X=-28.017*, Z=6.801*, Y=0.000*
  4: 0x0017 [0x1F] MOVE_ENTITY: Update entity position (mode=1)
  5: 0x0019 [0x1F] MOVE_ENTITY: EventEntity moves to X=-16.908*, Z=5.095*, Y=0.019*
  6: 0x0021 [0x1F] MOVE_ENTITY: Update entity position (mode=1)
  7: 0x0023 [0x1F] MOVE_ENTITY: EventEntity moves to X=-7.236*, Z=5.362*, Y=0.008*
  8: 0x002B [0x1F] MOVE_ENTITY: Update entity position (mode=1)
  9: 0x002D [0x6F] WAIT_FRAME_DELAY: Yield until WaitTime reaches zero
 10: 0x002E [0x00] END_REQSTACK()
```
