# 17481828 - Makarim

## Common Data

| Field            | Value                  |
|------------------|------------------------|
| Zone             | Zeruhn Mines (ID: 172) |
| Block Size       | 288 bytes              |
| Total Events     | 12                     |
| References Count | 23                     |

## List of Events

| Event ID                 | Entrypoint   |   Size |   Instructions |
|--------------------------|--------------|--------|----------------|
| [65535](#event-65535)    | 0x0000       |      1 |              1 |
| [104](#event-104)        | 0x0001       |     11 |              5 |
| [121](#event-121)        | 0x000C       |     30 |              8 |
| [204](#event-204)        | 0x002A       |      1 |              1 |
| [65535.1](#event-655351) | 0x002B       |     24 |              6 |
| [221](#event-221)        | 0x0043       |      1 |              1 |
| [224](#event-224)        | 0x0044       |      7 |              2 |
| [223](#event-223)        | 0x004B       |      1 |              1 |
| [65535.2](#event-655352) | 0x004C       |      5 |              2 |
| [65535.3](#event-655353) | 0x0051       |     21 |              2 |
| [65535.4](#event-655354) | 0x0066       |     15 |              5 |
| [65535.5](#event-655355) | 0x0075       |     15 |              5 |

## DAT References (imed_data)

|   Index | Hex Value   |   Dec Value |
|---------|-------------|-------------|
|       0 | 0x1CA7      |        7335 |
|       1 | 0x000A      |          10 |
|       2 | 0x1CA5      |        7333 |
|       3 | 0x1CA6      |        7334 |
|       4 | 0x0028      |          40 |
|       5 | 0xFFFEF643  |  4294899267 |
|       6 | 0xECED      |       60653 |
|       7 | 0x0000      |           0 |
|       8 | 0x0911      |        2321 |
|       9 | 0xFFFEDCDE  |  4294892766 |
|      10 | 0xE999      |       59801 |
|      11 | 0x0022      |          34 |
|      12 | 0x020B      |         523 |
|      13 | 0x0002      |           2 |
|      14 | 0x0007      |           7 |
|      15 | 0x000D      |          13 |
|      16 | 0x0005      |           5 |
|      17 | 0x22794     |      141204 |
|      18 | 0xFFFD1803  |  4294776835 |
|      19 | 0x20FD      |        8445 |
|      20 | 0x21F42     |      139074 |
|      21 | 0xFFFD1684  |  4294776452 |
|      22 | 0x2057      |        8279 |

## String References

- **7333**: Ah, you must be the courier. I've been expecting you. My report is ready.
- **7334**: Be careful on your way out. Remember, you should give my report to Naji, one of the Mythril Musketeers on post at the President's Office.
- **7335**: We shouldn't have to oversee the Galka at all. I wish our peoples would forget our differences and work together...

## Events

### Event 65535

#### Metadata

| Field        | Value   |
|--------------|---------|
| Entrypoint   | 0x0000  |
| Data Size    | 1 bytes |
| Instructions | 1       |

```
      00 01 02 03 04 05 06 07  08 09 0A 0B 0C 0D 0E 0F
      -- -- -- -- -- -- -- --  -- -- -- -- -- -- -- --
0000: 00                                                .               
```

#### Opcodes

```
  0: 0x0000 [0x00] END_REQSTACK()
```

### Event 104

#### Metadata

| Field        | Value    |
|--------------|----------|
| Entrypoint   | 0x0001   |
| Data Size    | 11 bytes |
| Instructions | 5        |

```
      00 01 02 03 04 05 06 07  08 09 0A 0B 0C 0D 0E 0F
      -- -- -- -- -- -- -- --  -- -- -- -- -- -- -- --
0000:    1E F0 FF FF 7F 1D 00  80 23 21 00               ........#!.    
```

#### Opcodes

```
  0: 0x0001 [0x1E] EventEntity looks at LocalPlayer and starts talking
  1: 0x0006 [0x1D] PRINT_EVENT_MESSAGE(message_id=7335*)
    → "We shouldn't have to oversee the Galka at all. I wish our peoples would forget our differences and work together..."
  2: 0x0009 [0x23] WAIT_FOR_DIALOG_INTERACTION
  3: 0x000A [0x21] END_EVENT
  4: 0x000B [0x00] END_REQSTACK()
```

### Event 121

#### Metadata

| Field        | Value    |
|--------------|----------|
| Entrypoint   | 0x000C   |
| Data Size    | 30 bytes |
| Instructions | 8        |

```
      00 01 02 03 04 05 06 07  08 09 0A 0B 0C 0D 0E 0F
      -- -- -- -- -- -- -- --  -- -- -- -- -- -- -- --
0000:                                      1E F0 FF FF              ....
0010: 7F 66 01 80 F8 FF FF 7F  F8 FF FF 7F 70 61 73 30  .f..........pas0
0020: 1D 02 80 23 1D 03 80 23  21 00                    ...#...#!.      
```

#### Opcodes

```
  0: 0x000C [0x1E] EventEntity looks at LocalPlayer and starts talking
  1: 0x0011 [0x66] LOAD_EXT_SCHEDULER_MAIN: Load scheduler "pas0" with entities [EventEntity, EventEntity], work=10*
  2: 0x0020 [0x1D] PRINT_EVENT_MESSAGE(message_id=7333*)
    → "Ah, you must be the courier. I've been expecting you. My report is ready."
  3: 0x0023 [0x23] WAIT_FOR_DIALOG_INTERACTION
  4: 0x0024 [0x1D] PRINT_EVENT_MESSAGE(message_id=7334*)
    → "Be careful on your way out. Remember, you should give my report to Naji, one of the Mythril Musketeers on post at the President's Office."
  5: 0x0027 [0x23] WAIT_FOR_DIALOG_INTERACTION
  6: 0x0028 [0x21] END_EVENT
  7: 0x0029 [0x00] END_REQSTACK()
```

### Event 204

#### Metadata

| Field        | Value   |
|--------------|---------|
| Entrypoint   | 0x002A  |
| Data Size    | 1 bytes |
| Instructions | 1       |

```
      00 01 02 03 04 05 06 07  08 09 0A 0B 0C 0D 0E 0F
      -- -- -- -- -- -- -- --  -- -- -- -- -- -- -- --
0020:                                00                           .     
```

#### Opcodes

```
  0: 0x002A [0x00] END_REQSTACK()
```

### Event 65535.1

#### Metadata

| Field        | Value    |
|--------------|----------|
| Entrypoint   | 0x002B   |
| Data Size    | 24 bytes |
| Instructions | 6        |

```
      00 01 02 03 04 05 06 07  08 09 0A 0B 0C 0D 0E 0F
      -- -- -- -- -- -- -- --  -- -- -- -- -- -- -- --
0020:                                   32 04 80 37 05             2..7.
0030: 80 06 80 07 80 08 80 1F  00 09 80 0A 80 0B 80 1F  ................
0040: 01 6F 00                                          .o.             
```

#### Opcodes

```
  0: 0x002B [0x32] ExtData[1]->MainSpeed = 40* * 0.1
  1: 0x002E [0x37] UPDATE_EVENT_POSITION_AND_DIR: x=-68.029*, z=60.653*, y=0.000*, direction=204.0°*
  2: 0x0037 [0x1F] MOVE_ENTITY: EventEntity moves to X=-74.530*, Z=59.801*, Y=0.034*
  3: 0x003F [0x1F] MOVE_ENTITY: Update entity position (mode=1)
  4: 0x0041 [0x6F] WAIT_FRAME_DELAY: Yield until WaitTime reaches zero
  5: 0x0042 [0x00] END_REQSTACK()
```

### Event 221

#### Metadata

| Field        | Value   |
|--------------|---------|
| Entrypoint   | 0x0043  |
| Data Size    | 1 bytes |
| Instructions | 1       |

```
      00 01 02 03 04 05 06 07  08 09 0A 0B 0C 0D 0E 0F
      -- -- -- -- -- -- -- --  -- -- -- -- -- -- -- --
0040:          00                                          .            
```

#### Opcodes

```
  0: 0x0043 [0x00] END_REQSTACK()
```

### Event 224

#### Metadata

| Field        | Value   |
|--------------|---------|
| Entrypoint   | 0x0044  |
| Data Size    | 7 bytes |
| Instructions | 2       |

```
      00 01 02 03 04 05 06 07  08 09 0A 0B 0C 0D 0E 0F
      -- -- -- -- -- -- -- --  -- -- -- -- -- -- -- --
0040:             92 01 F8 FF  FF 7F 00                     .......     
```

#### Opcodes

```
  0: 0x0044 [0x92] EventEntity->Render.Flags3 ^= 0x01
  1: 0x004A [0x00] END_REQSTACK()
```

### Event 223

#### Metadata

| Field        | Value   |
|--------------|---------|
| Entrypoint   | 0x004B  |
| Data Size    | 1 bytes |
| Instructions | 1       |

```
      00 01 02 03 04 05 06 07  08 09 0A 0B 0C 0D 0E 0F
      -- -- -- -- -- -- -- --  -- -- -- -- -- -- -- --
0040:                                   00                         .    
```

#### Opcodes

```
  0: 0x004B [0x00] END_REQSTACK()
```

### Event 65535.2

#### Metadata

| Field        | Value   |
|--------------|---------|
| Entrypoint   | 0x004C  |
| Data Size    | 5 bytes |
| Instructions | 2       |

```
      00 01 02 03 04 05 06 07  08 09 0A 0B 0C 0D 0E 0F
      -- -- -- -- -- -- -- --  -- -- -- -- -- -- -- --
0040:                                      B6 00 0C 80              ....
0050: 00                                                .               
```

#### Opcodes

```
  0: 0x004C [0xB6] ENTITY_APPEARANCE_HANDLER(case=Hair style, value=523*)
  1: 0x0050 [0x00] END_REQSTACK()
```

### Event 65535.3

#### Metadata

| Field        | Value    |
|--------------|----------|
| Entrypoint   | 0x0051   |
| Data Size    | 21 bytes |
| Instructions | 2        |

```
      00 01 02 03 04 05 06 07  08 09 0A 0B 0C 0D 0E 0F
      -- -- -- -- -- -- -- --  -- -- -- -- -- -- -- --
0050:    B6 0B 0D 80 0E 80 07  80 0F 80 10 80 10 80 10   ...............
0060: 80 07 80 07 80 00                                 ......          
```

#### Opcodes

```
  0: 0x0051 [0xB6] ENTITY_APPEARANCE_HANDLER(case=Full entity look, race=2*, hair=7*, head=0*, body=13*, hands=5*, legs=5*, feet=5*, main=0*, sub=0*)
  1: 0x0065 [0x00] END_REQSTACK()
```

### Event 65535.4

#### Metadata

| Field        | Value    |
|--------------|----------|
| Entrypoint   | 0x0066   |
| Data Size    | 15 bytes |
| Instructions | 5        |

```
      00 01 02 03 04 05 06 07  08 09 0A 0B 0C 0D 0E 0F
      -- -- -- -- -- -- -- --  -- -- -- -- -- -- -- --
0060:                   32 0F  80 1F 00 11 80 12 80 13        2.........
0070: 80 1F 01 6F 00                                    ...o.           
```

#### Opcodes

```
  0: 0x0066 [0x32] ExtData[1]->MainSpeed = 13* * 0.1
  1: 0x0069 [0x1F] MOVE_ENTITY: EventEntity moves to X=141.204*, Z=-190.461*, Y=8.445*
  2: 0x0071 [0x1F] MOVE_ENTITY: Update entity position (mode=1)
  3: 0x0073 [0x6F] WAIT_FRAME_DELAY: Yield until WaitTime reaches zero
  4: 0x0074 [0x00] END_REQSTACK()
```

### Event 65535.5

#### Metadata

| Field        | Value    |
|--------------|----------|
| Entrypoint   | 0x0075   |
| Data Size    | 15 bytes |
| Instructions | 5        |

```
      00 01 02 03 04 05 06 07  08 09 0A 0B 0C 0D 0E 0F
      -- -- -- -- -- -- -- --  -- -- -- -- -- -- -- --
0070:                32 0F 80  1F 00 14 80 15 80 16 80       2..........
0080: 1F 01 6F 00                                       ..o.            
```

#### Opcodes

```
  0: 0x0075 [0x32] ExtData[1]->MainSpeed = 13* * 0.1
  1: 0x0078 [0x1F] MOVE_ENTITY: EventEntity moves to X=139.074*, Z=-190.844*, Y=8.279*
  2: 0x0080 [0x1F] MOVE_ENTITY: Update entity position (mode=1)
  3: 0x0082 [0x6F] WAIT_FRAME_DELAY: Yield until WaitTime reaches zero
  4: 0x0083 [0x00] END_REQSTACK()
```
