# 17481860 - Raebrimm

## Common Data

| Field            | Value                  |
|------------------|------------------------|
| Zone             | Zeruhn Mines (ID: 172) |
| Block Size       | 432 bytes              |
| Total Events     | 13                     |
| References Count | 24                     |

## List of Events

| Event ID                   | Entrypoint   |   Size |   Instructions |
|----------------------------|--------------|--------|----------------|
| [65535](#event-65535)      | 0x0000       |      1 |              1 |
| [223](#event-223)          | 0x0001       |      7 |              2 |
| [224](#event-224)          | 0x0008       |      7 |              2 |
| [65535.1](#event-655351)   | 0x000F       |     25 |              3 |
| [65535.2](#event-655352)   | 0x0028       |     25 |              3 |
| [65535.3](#event-655353)   | 0x0041       |     39 |              9 |
| [65535.4](#event-655354)   | 0x0068       |     15 |              5 |
| [65535.5](#event-655355)   | 0x0077       |     28 |              4 |
| [65535.6](#event-655356)   | 0x0093       |     34 |              6 |
| [65535.7](#event-655357)   | 0x00B5       |     26 |              4 |
| [65535.8](#event-655358)   | 0x00CF       |     28 |              8 |
| [65535.9](#event-655359)   | 0x00EB       |     15 |              5 |
| [65535.10](#event-6553510) | 0x00FA       |     15 |              5 |

## DAT References (imed_data)

|   Index | Hex Value   |   Dec Value |
|---------|-------------|-------------|
|       0 | 0x0028      |          40 |
|       1 | 0x22F84     |      143236 |
|       2 | 0xFFFCF2D1  |  4294767313 |
|       3 | 0x1F36      |        7990 |
|       4 | 0x0CBB      |        3259 |
|       5 | 0x22AE6     |      142054 |
|       6 | 0xFFFD0044  |  4294770756 |
|       7 | 0x203E      |        8254 |
|       8 | 0x000D      |          13 |
|       9 | 0x22E23     |      142883 |
|      10 | 0xFFFD0451  |  4294771793 |
|      11 | 0x1FFB      |        8187 |
|      12 | 0x005B      |          91 |
|      13 | 0x003C      |          60 |
|      14 | 0x232EE     |      144110 |
|      15 | 0xFFFD03F5  |  4294771701 |
|      16 | 0x1F5D      |        8029 |
|      17 | 0x0A15      |        2581 |
|      18 | 0x227D0     |      141264 |
|      19 | 0xFFFD0BFC  |  4294773756 |
|      20 | 0x205D      |        8285 |
|      21 | 0x222CC     |      139980 |
|      22 | 0xFFFD15E0  |  4294776288 |
|      23 | 0x2002      |        8194 |

## Events

### Event 65535

#### Metadata

| Field        | Value   |
|--------------|---------|
| Entrypoint   | 0x0000  |
| Data Size    | 1 bytes |
| Instructions | 1       |

```
      00 01 02 03 04 05 06 07  08 09 0A 0B 0C 0D 0E 0F
      -- -- -- -- -- -- -- --  -- -- -- -- -- -- -- --
0000: 00                                                .               
```

#### Opcodes

```
  0: 0x0000 [0x00] END_REQSTACK()
```

### Event 223

#### Metadata

| Field        | Value   |
|--------------|---------|
| Entrypoint   | 0x0001  |
| Data Size    | 7 bytes |
| Instructions | 2       |

```
      00 01 02 03 04 05 06 07  08 09 0A 0B 0C 0D 0E 0F
      -- -- -- -- -- -- -- --  -- -- -- -- -- -- -- --
0000:    92 01 F8 FF FF 7F 00                            .......        
```

#### Opcodes

```
  0: 0x0001 [0x92] EventEntity->Render.Flags3 ^= 0x01
  1: 0x0007 [0x00] END_REQSTACK()
```

### Event 224

#### Metadata

| Field        | Value   |
|--------------|---------|
| Entrypoint   | 0x0008  |
| Data Size    | 7 bytes |
| Instructions | 2       |

```
      00 01 02 03 04 05 06 07  08 09 0A 0B 0C 0D 0E 0F
      -- -- -- -- -- -- -- --  -- -- -- -- -- -- -- --
0000:                          92 01 F8 FF FF 7F 00             ....... 
```

#### Opcodes

```
  0: 0x0008 [0x92] EventEntity->Render.Flags3 ^= 0x01
  1: 0x000E [0x00] END_REQSTACK()
```

### Event 65535.1

#### Metadata

| Field        | Value    |
|--------------|----------|
| Entrypoint   | 0x000F   |
| Data Size    | 25 bytes |
| Instructions | 3        |

```
      00 01 02 03 04 05 06 07  08 09 0A 0B 0C 0D 0E 0F
      -- -- -- -- -- -- -- --  -- -- -- -- -- -- -- --
0000:                                               B4                 .
0010: 00 00 00 3F 3F 3F 00 00  00 00 00 00 00 00 00 00  ...???..........
0020: 00 00 00 B5 00 00 00 00                           ........        
```

#### Opcodes

```
  0: 0x000F [0xB4] UI_WINDOW_STRING_HANDLER(case=0x00 - Copy string from opcode, work_offset=ExtData[1]->WorkLocal[0], string="???")
  1: 0x0023 [0xB5] SET_EVENT_ENTITY_NAME: Change EventEntity name to ExtData[1]->WorkLocal[0]
  2: 0x0027 [0x00] END_REQSTACK()
```

### Event 65535.2

#### Metadata

| Field        | Value    |
|--------------|----------|
| Entrypoint   | 0x0028   |
| Data Size    | 25 bytes |
| Instructions | 3        |

```
      00 01 02 03 04 05 06 07  08 09 0A 0B 0C 0D 0E 0F
      -- -- -- -- -- -- -- --  -- -- -- -- -- -- -- --
0020:                          B4 00 00 00 52 61 65 62          ....Raeb
0030: 72 69 6D 6D 00 00 00 00  00 00 00 00 B5 00 00 00  rimm............
0040: 00                                                .               
```

#### Opcodes

```
  0: 0x0028 [0xB4] UI_WINDOW_STRING_HANDLER(case=0x00 - Copy string from opcode, work_offset=ExtData[1]->WorkLocal[0], string="Raebrimm")
  1: 0x003C [0xB5] SET_EVENT_ENTITY_NAME: Change EventEntity name to ExtData[1]->WorkLocal[0]
  2: 0x0040 [0x00] END_REQSTACK()
```

### Event 65535.3

#### Metadata

| Field        | Value    |
|--------------|----------|
| Entrypoint   | 0x0041   |
| Data Size    | 39 bytes |
| Instructions | 9        |

```
      00 01 02 03 04 05 06 07  08 09 0A 0B 0C 0D 0E 0F
      -- -- -- -- -- -- -- --  -- -- -- -- -- -- -- --
0040:    32 00 80 37 01 80 02  80 03 80 04 80 1F 00 05   2..7...........
0050: 80 06 80 07 80 1F 01 6F  4A F8 FF FF 7F F0 FF FF  .......oJ.......
0060: 7F 6F 76 F8 FF FF 7F 00                           .ov.....        
```

#### Opcodes

```
  0: 0x0041 [0x32] ExtData[1]->MainSpeed = 40* * 0.1
  1: 0x0044 [0x37] UPDATE_EVENT_POSITION_AND_DIR: x=143.236*, z=-199.983*, y=7.990*, direction=286.4°*
  2: 0x004D [0x1F] MOVE_ENTITY: EventEntity moves to X=142.054*, Z=-196.540*, Y=8.254*
  3: 0x0055 [0x1F] MOVE_ENTITY: Update entity position (mode=1)
  4: 0x0057 [0x6F] WAIT_FRAME_DELAY: Yield until WaitTime reaches zero
  5: 0x0058 [0x4A] EventEntity looks at LocalPlayer
  6: 0x0061 [0x6F] WAIT_FRAME_DELAY: Yield until WaitTime reaches zero
  7: 0x0062 [0x76] CHECK_ENTITY_RENDER_FLAGS: Wait until EventEntity Render.Flags0 and Render.Flags3 conditions are met
  8: 0x0067 [0x00] END_REQSTACK()
```

### Event 65535.4

#### Metadata

| Field        | Value    |
|--------------|----------|
| Entrypoint   | 0x0068   |
| Data Size    | 15 bytes |
| Instructions | 5        |

```
      00 01 02 03 04 05 06 07  08 09 0A 0B 0C 0D 0E 0F
      -- -- -- -- -- -- -- --  -- -- -- -- -- -- -- --
0060:                          32 08 80 1F 00 09 80 0A          2.......
0070: 80 0B 80 1F 01 6F 00                              .....o.         
```

#### Opcodes

```
  0: 0x0068 [0x32] ExtData[1]->MainSpeed = 13* * 0.1
  1: 0x006B [0x1F] MOVE_ENTITY: EventEntity moves to X=142.883*, Z=-195.503*, Y=8.187*
  2: 0x0073 [0x1F] MOVE_ENTITY: Update entity position (mode=1)
  3: 0x0075 [0x6F] WAIT_FRAME_DELAY: Yield until WaitTime reaches zero
  4: 0x0076 [0x00] END_REQSTACK()
```

### Event 65535.5

#### Metadata

| Field        | Value    |
|--------------|----------|
| Entrypoint   | 0x0077   |
| Data Size    | 28 bytes |
| Instructions | 4        |

```
      00 01 02 03 04 05 06 07  08 09 0A 0B 0C 0D 0E 0F
      -- -- -- -- -- -- -- --  -- -- -- -- -- -- -- --
0070:                      81  00 F8 FF FF 7F 7C 00 F8         ......|..
0080: FF FF 7F 5B 0C 80 84 C0  0A 01 84 C0 0A 01 61 77  ...[..........aw
0090: 61 30 00                                          a0.             
```

#### Opcodes

```
  0: 0x0077 [0x81] SET_ENTITY_BLINKING(blink_flag=0x00, entity=EventEntity)
  1: 0x007D [0x7C] EventEntity->Render.Flags2 |= 0x00
  2: 0x0083 [0x5B] LOAD_EXT_SCHEDULER: Load scheduler "awa0" with entities [Raebrimm (ID: 17481860/0x010AC084), Raebrimm (ID: 17481860/0x010AC084)], work=91*
  3: 0x0092 [0x00] END_REQSTACK()
```

### Event 65535.6

#### Metadata

| Field        | Value    |
|--------------|----------|
| Entrypoint   | 0x0093   |
| Data Size    | 34 bytes |
| Instructions | 6        |

```
      00 01 02 03 04 05 06 07  08 09 0A 0B 0C 0D 0E 0F
      -- -- -- -- -- -- -- --  -- -- -- -- -- -- -- --
0090:          53 84 C0 0A 01  84 C0 0A 01 61 77 61 30     S........awa0
00A0: 5E 69 64 6C 30 1C 0D 80  81 01 F8 FF FF 7F 7C 01  ^idl0.........|.
00B0: F8 FF FF 7F 00                                    .....           
```

#### Opcodes

```
  0: 0x0093 [0x53] WAIT_SCHEDULER_TASK: Wait for scheduler "awa0" with entities [Raebrimm (ID: 17481860/0x010AC084), Raebrimm (ID: 17481860/0x010AC084)]
  1: 0x00A0 [0x5E] EventEntity goes idle (kills current action) (animation: "idl0")
  2: 0x00A5 [0x1C] WAIT(60* ticks)
  3: 0x00A8 [0x81] SET_ENTITY_BLINKING(blink_flag=0x01, entity=EventEntity)
  4: 0x00AE [0x7C] EventEntity->Render.Flags2 |= 0x01
  5: 0x00B4 [0x00] END_REQSTACK()
```

### Event 65535.7

#### Metadata

| Field        | Value    |
|--------------|----------|
| Entrypoint   | 0x00B5   |
| Data Size    | 26 bytes |
| Instructions | 4        |

```
      00 01 02 03 04 05 06 07  08 09 0A 0B 0C 0D 0E 0F
      -- -- -- -- -- -- -- --  -- -- -- -- -- -- -- --
00B0:                53 84 C0  0A 01 84 C0 0A 01 61 77       S........aw
00C0: 61 30 81 01 F8 FF FF 7F  7C 01 F8 FF FF 7F 00     a0......|...... 
```

#### Opcodes

```
  0: 0x00B5 [0x53] WAIT_SCHEDULER_TASK: Wait for scheduler "awa0" with entities [Raebrimm (ID: 17481860/0x010AC084), Raebrimm (ID: 17481860/0x010AC084)]
  1: 0x00C2 [0x81] SET_ENTITY_BLINKING(blink_flag=0x01, entity=EventEntity)
  2: 0x00C8 [0x7C] EventEntity->Render.Flags2 |= 0x01
  3: 0x00CE [0x00] END_REQSTACK()
```

### Event 65535.8

#### Metadata

| Field        | Value    |
|--------------|----------|
| Entrypoint   | 0x00CF   |
| Data Size    | 28 bytes |
| Instructions | 8        |

```
      00 01 02 03 04 05 06 07  08 09 0A 0B 0C 0D 0E 0F
      -- -- -- -- -- -- -- --  -- -- -- -- -- -- -- --
00C0:                                               32                 2
00D0: 00 80 1F 00 0E 80 0F 80  10 80 1F 01 6F 4B F8 FF  ............oK..
00E0: FF 7F 11 80 6F 76 F8 FF  FF 7F 00                 ....ov.....     
```

#### Opcodes

```
  0: 0x00CF [0x32] ExtData[1]->MainSpeed = 40* * 0.1
  1: 0x00D2 [0x1F] MOVE_ENTITY: EventEntity moves to X=144.110*, Z=-195.595*, Y=8.029*
  2: 0x00DA [0x1F] MOVE_ENTITY: Update entity position (mode=1)
  3: 0x00DC [0x6F] WAIT_FRAME_DELAY: Yield until WaitTime reaches zero
  4: 0x00DD [0x4B] UPDATE_ENTITY_YAW(entity=EventEntity, yaw=14.2°*)
  5: 0x00E4 [0x6F] WAIT_FRAME_DELAY: Yield until WaitTime reaches zero
  6: 0x00E5 [0x76] CHECK_ENTITY_RENDER_FLAGS: Wait until EventEntity Render.Flags0 and Render.Flags3 conditions are met
  7: 0x00EA [0x00] END_REQSTACK()
```

### Event 65535.9

#### Metadata

| Field        | Value    |
|--------------|----------|
| Entrypoint   | 0x00EB   |
| Data Size    | 15 bytes |
| Instructions | 5        |

```
      00 01 02 03 04 05 06 07  08 09 0A 0B 0C 0D 0E 0F
      -- -- -- -- -- -- -- --  -- -- -- -- -- -- -- --
00E0:                                   32 08 80 1F 00             2....
00F0: 12 80 13 80 14 80 1F 01  6F 00                    ........o.      
```

#### Opcodes

```
  0: 0x00EB [0x32] ExtData[1]->MainSpeed = 13* * 0.1
  1: 0x00EE [0x1F] MOVE_ENTITY: EventEntity moves to X=141.264*, Z=-193.540*, Y=8.285*
  2: 0x00F6 [0x1F] MOVE_ENTITY: Update entity position (mode=1)
  3: 0x00F8 [0x6F] WAIT_FRAME_DELAY: Yield until WaitTime reaches zero
  4: 0x00F9 [0x00] END_REQSTACK()
```

### Event 65535.10

#### Metadata

| Field        | Value    |
|--------------|----------|
| Entrypoint   | 0x00FA   |
| Data Size    | 15 bytes |
| Instructions | 5        |

```
      00 01 02 03 04 05 06 07  08 09 0A 0B 0C 0D 0E 0F
      -- -- -- -- -- -- -- --  -- -- -- -- -- -- -- --
00F0:                                32 08 80 1F 00 15            2.....
0100: 80 16 80 17 80 1F 01 6F  00                       .......o.       
```

#### Opcodes

```
  0: 0x00FA [0x32] ExtData[1]->MainSpeed = 13* * 0.1
  1: 0x00FD [0x1F] MOVE_ENTITY: EventEntity moves to X=139.980*, Z=-191.008*, Y=8.194*
  2: 0x0105 [0x1F] MOVE_ENTITY: Update entity position (mode=1)
  3: 0x0107 [0x6F] WAIT_FRAME_DELAY: Yield until WaitTime reaches zero
  4: 0x0108 [0x00] END_REQSTACK()
```
