# 17481867

## Common Data

| Field            | Value                  |
|------------------|------------------------|
| Zone             | Zeruhn Mines (ID: 172) |
| Block Size       | 160 bytes              |
| Total Events     | 5                      |
| References Count | 9                      |

## List of Events

| Event ID                 | Entrypoint   |   Size |   Instructions |
|--------------------------|--------------|--------|----------------|
| [65535](#event-65535)    | 0x0000       |      1 |              1 |
| [225](#event-225)        | 0x0001       |      1 |              1 |
| [65535.1](#event-655351) | 0x0002       |     29 |              4 |
| [65535.2](#event-655352) | 0x001F       |     29 |              4 |
| [65535.3](#event-655353) | 0x003C       |     26 |              8 |

## DAT References (imed_data)

|   Index | Hex Value   |   Dec Value |
|---------|-------------|-------------|
|       0 | 0x0C65      |        3173 |
|       1 | 0x0034      |          52 |
|       2 | 0x0028      |          40 |
|       3 | 0xFFFF23C0  |  4294910912 |
|       4 | 0x5631      |       22065 |
|       5 | 0x0008      |           8 |
|       6 | 0xFFFF84B6  |  4294935734 |
|       7 | 0x551B      |       21787 |
|       8 | 0x0000      |           0 |

## Events

### Event 65535

#### Metadata

| Field        | Value   |
|--------------|---------|
| Entrypoint   | 0x0000  |
| Data Size    | 1 bytes |
| Instructions | 1       |

```
      00 01 02 03 04 05 06 07  08 09 0A 0B 0C 0D 0E 0F
      -- -- -- -- -- -- -- --  -- -- -- -- -- -- -- --
0000: 00                                                .               
```

#### Opcodes

```
  0: 0x0000 [0x00] END_REQSTACK()
```

### Event 225

#### Metadata

| Field        | Value   |
|--------------|---------|
| Entrypoint   | 0x0001  |
| Data Size    | 1 bytes |
| Instructions | 1       |

```
      00 01 02 03 04 05 06 07  08 09 0A 0B 0C 0D 0E 0F
      -- -- -- -- -- -- -- --  -- -- -- -- -- -- -- --
0000:    00                                              .              
```

#### Opcodes

```
  0: 0x0001 [0x00] END_REQSTACK()
```

### Event 65535.1

#### Metadata

| Field        | Value    |
|--------------|----------|
| Entrypoint   | 0x0002   |
| Data Size    | 29 bytes |
| Instructions | 4        |

```
      00 01 02 03 04 05 06 07  08 09 0A 0B 0C 0D 0E 0F
      -- -- -- -- -- -- -- --  -- -- -- -- -- -- -- --
0000:       B6 00 00 80 B4 00  00 00 4D 65 72 63 61 6C    ........Mercal
0010: 69 76 61 6E 00 00 00 00  00 00 B5 00 00 00 00     ivan........... 
```

#### Opcodes

```
  0: 0x0002 [0xB6] ENTITY_APPEARANCE_HANDLER(case=Hair style, value=3173*)
  1: 0x0006 [0xB4] UI_WINDOW_STRING_HANDLER(case=0x00 - Copy string from opcode, work_offset=ExtData[1]->WorkLocal[0], string="Mercalivan")
  2: 0x001A [0xB5] SET_EVENT_ENTITY_NAME: Change EventEntity name to ExtData[1]->WorkLocal[0]
  3: 0x001E [0x00] END_REQSTACK()
```

### Event 65535.2

#### Metadata

| Field        | Value    |
|--------------|----------|
| Entrypoint   | 0x001F   |
| Data Size    | 29 bytes |
| Instructions | 4        |

```
      00 01 02 03 04 05 06 07  08 09 0A 0B 0C 0D 0E 0F
      -- -- -- -- -- -- -- --  -- -- -- -- -- -- -- --
0010:                                               B6                 .
0020: 00 01 80 B4 00 00 00 00  00 00 00 00 00 00 00 00  ................
0030: 00 00 00 00 00 00 00 B5  00 00 00 00              ............    
```

#### Opcodes

```
  0: 0x001F [0xB6] ENTITY_APPEARANCE_HANDLER(case=Hair style, value=52*)
  1: 0x0023 [0xB4] UI_WINDOW_STRING_HANDLER(case=0x00 - Copy string from opcode, work_offset=ExtData[1]->WorkLocal[0], string="")
  2: 0x0037 [0xB5] SET_EVENT_ENTITY_NAME: Change EventEntity name to ExtData[1]->WorkLocal[0]
  3: 0x003B [0x00] END_REQSTACK()
```

### Event 65535.3

#### Metadata

| Field        | Value    |
|--------------|----------|
| Entrypoint   | 0x003C   |
| Data Size    | 26 bytes |
| Instructions | 8        |

```
      00 01 02 03 04 05 06 07  08 09 0A 0B 0C 0D 0E 0F
      -- -- -- -- -- -- -- --  -- -- -- -- -- -- -- --
0030:                                      32 02 80 1F              2...
0040: 00 03 80 04 80 05 80 1F  01 6F 1F 00 06 80 07 80  .........o......
0050: 08 80 1F 01 6F 00                                 ....o.          
```

#### Opcodes

```
  0: 0x003C [0x32] ExtData[1]->MainSpeed = 40* * 0.1
  1: 0x003F [0x1F] MOVE_ENTITY: EventEntity moves to X=-56.384*, Z=22.065*, Y=0.008*
  2: 0x0047 [0x1F] MOVE_ENTITY: Update entity position (mode=1)
  3: 0x0049 [0x6F] WAIT_FRAME_DELAY: Yield until WaitTime reaches zero
  4: 0x004A [0x1F] MOVE_ENTITY: EventEntity moves to X=-31.562*, Z=21.787*, Y=0.000*
  5: 0x0052 [0x1F] MOVE_ENTITY: Update entity position (mode=1)
  6: 0x0054 [0x6F] WAIT_FRAME_DELAY: Yield until WaitTime reaches zero
  7: 0x0055 [0x00] END_REQSTACK()
```
