# 17481866

## Common Data

| Field            | Value                  |
|------------------|------------------------|
| Zone             | Zeruhn Mines (ID: 172) |
| Block Size       | 188 bytes              |
| Total Events     | 5                      |
| References Count | 12                     |

## List of Events

| Event ID                 | Entrypoint   |   Size |   Instructions |
|--------------------------|--------------|--------|----------------|
| [65535](#event-65535)    | 0x0000       |      1 |              1 |
| [225](#event-225)        | 0x0001       |      7 |              2 |
| [65535.1](#event-655351) | 0x0008       |     29 |              4 |
| [65535.2](#event-655352) | 0x0025       |     29 |              4 |
| [65535.3](#event-655353) | 0x0042       |     35 |              9 |

## DAT References (imed_data)

|   Index | Hex Value   |   Dec Value |
|---------|-------------|-------------|
|       0 | 0x0C64      |        3172 |
|       1 | 0x0034      |          52 |
|       2 | 0x0028      |          40 |
|       3 | 0xFFFF8F6B  |  4294938475 |
|       4 | 0x1DB9      |        7609 |
|       5 | 0x0000      |           0 |
|       6 | 0xFFFF9865  |  4294940773 |
|       7 | 0x16E1      |        5857 |
|       8 | 0x0006      |           6 |
|       9 | 0xFFFFEB56  |  4294962006 |
|      10 | 0x173D      |        5949 |
|      11 | 0x0018      |          24 |

## Events

### Event 65535

#### Metadata

| Field        | Value   |
|--------------|---------|
| Entrypoint   | 0x0000  |
| Data Size    | 1 bytes |
| Instructions | 1       |

```
      00 01 02 03 04 05 06 07  08 09 0A 0B 0C 0D 0E 0F
      -- -- -- -- -- -- -- --  -- -- -- -- -- -- -- --
0000: 00                                                .               
```

#### Opcodes

```
  0: 0x0000 [0x00] END_REQSTACK()
```

### Event 225

#### Metadata

| Field        | Value   |
|--------------|---------|
| Entrypoint   | 0x0001  |
| Data Size    | 7 bytes |
| Instructions | 2       |

```
      00 01 02 03 04 05 06 07  08 09 0A 0B 0C 0D 0E 0F
      -- -- -- -- -- -- -- --  -- -- -- -- -- -- -- --
0000:    92 01 F8 FF FF 7F 00                            .......        
```

#### Opcodes

```
  0: 0x0001 [0x92] EventEntity->Render.Flags3 ^= 0x01
  1: 0x0007 [0x00] END_REQSTACK()
```

### Event 65535.1

#### Metadata

| Field        | Value    |
|--------------|----------|
| Entrypoint   | 0x0008   |
| Data Size    | 29 bytes |
| Instructions | 4        |

```
      00 01 02 03 04 05 06 07  08 09 0A 0B 0C 0D 0E 0F
      -- -- -- -- -- -- -- --  -- -- -- -- -- -- -- --
0000:                          B6 00 00 80 B4 00 00 00          ........
0010: 51 75 65 72 6E 00 00 00  00 00 00 00 00 00 00 00  Quern...........
0020: B5 00 00 00 00                                    .....           
```

#### Opcodes

```
  0: 0x0008 [0xB6] ENTITY_APPEARANCE_HANDLER(case=Hair style, value=3172*)
  1: 0x000C [0xB4] UI_WINDOW_STRING_HANDLER(case=0x00 - Copy string from opcode, work_offset=ExtData[1]->WorkLocal[0], string="Quern")
  2: 0x0020 [0xB5] SET_EVENT_ENTITY_NAME: Change EventEntity name to ExtData[1]->WorkLocal[0]
  3: 0x0024 [0x00] END_REQSTACK()
```

### Event 65535.2

#### Metadata

| Field        | Value    |
|--------------|----------|
| Entrypoint   | 0x0025   |
| Data Size    | 29 bytes |
| Instructions | 4        |

```
      00 01 02 03 04 05 06 07  08 09 0A 0B 0C 0D 0E 0F
      -- -- -- -- -- -- -- --  -- -- -- -- -- -- -- --
0020:                B6 00 01  80 B4 00 00 00 00 00 00       ...........
0030: 00 00 00 00 00 00 00 00  00 00 00 00 00 B5 00 00  ................
0040: 00 00                                             ..              
```

#### Opcodes

```
  0: 0x0025 [0xB6] ENTITY_APPEARANCE_HANDLER(case=Hair style, value=52*)
  1: 0x0029 [0xB4] UI_WINDOW_STRING_HANDLER(case=0x00 - Copy string from opcode, work_offset=ExtData[1]->WorkLocal[0], string="")
  2: 0x003D [0xB5] SET_EVENT_ENTITY_NAME: Change EventEntity name to ExtData[1]->WorkLocal[0]
  3: 0x0041 [0x00] END_REQSTACK()
```

### Event 65535.3

#### Metadata

| Field        | Value    |
|--------------|----------|
| Entrypoint   | 0x0042   |
| Data Size    | 35 bytes |
| Instructions | 9        |

```
      00 01 02 03 04 05 06 07  08 09 0A 0B 0C 0D 0E 0F
      -- -- -- -- -- -- -- --  -- -- -- -- -- -- -- --
0040:       32 02 80 1F 00 03  80 04 80 05 80 1F 01 1F    2.............
0050: 00 06 80 07 80 08 80 1F  01 1F 00 09 80 0A 80 0B  ................
0060: 80 1F 01 6F 00                                    ...o.           
```

#### Opcodes

```
  0: 0x0042 [0x32] ExtData[1]->MainSpeed = 40* * 0.1
  1: 0x0045 [0x1F] MOVE_ENTITY: EventEntity moves to X=-28.821*, Z=7.609*, Y=0.000*
  2: 0x004D [0x1F] MOVE_ENTITY: Update entity position (mode=1)
  3: 0x004F [0x1F] MOVE_ENTITY: EventEntity moves to X=-26.523*, Z=5.857*, Y=0.006*
  4: 0x0057 [0x1F] MOVE_ENTITY: Update entity position (mode=1)
  5: 0x0059 [0x1F] MOVE_ENTITY: EventEntity moves to X=-5.290*, Z=5.949*, Y=0.024*
  6: 0x0061 [0x1F] MOVE_ENTITY: Update entity position (mode=1)
  7: 0x0063 [0x6F] WAIT_FRAME_DELAY: Yield until WaitTime reaches zero
  8: 0x0064 [0x00] END_REQSTACK()
```
