# 17481829 - Ormr

## Common Data

| Field            | Value                  |
|------------------|------------------------|
| Zone             | Zeruhn Mines (ID: 172) |
| Block Size       | 52 bytes               |
| Total Events     | 2                      |
| References Count | 1                      |

## List of Events

| Event ID              | Entrypoint   |   Size |   Instructions |
|-----------------------|--------------|--------|----------------|
| [65535](#event-65535) | 0x0000       |      1 |              1 |
| [109](#event-109)     | 0x0001       |     21 |              6 |

## DAT References (imed_data)

|   Index | Hex Value   |   Dec Value |
|---------|-------------|-------------|
|       0 | 0x1CAD      |        7341 |

## String References

- **7341**: What, is it so strange to see a Hume doing some honest work? Well, I wouldn't have to, if that foreman wasn't always watching...

## Events

### Event 65535

#### Metadata

| Field        | Value   |
|--------------|---------|
| Entrypoint   | 0x0000  |
| Data Size    | 1 bytes |
| Instructions | 1       |

```
      00 01 02 03 04 05 06 07  08 09 0A 0B 0C 0D 0E 0F
      -- -- -- -- -- -- -- --  -- -- -- -- -- -- -- --
0000: 00                                                .               
```

#### Opcodes

```
  0: 0x0000 [0x00] END_REQSTACK()
```

### Event 109

#### Metadata

| Field        | Value    |
|--------------|----------|
| Entrypoint   | 0x0001   |
| Data Size    | 21 bytes |
| Instructions | 6        |

```
      00 01 02 03 04 05 06 07  08 09 0A 0B 0C 0D 0E 0F
      -- -- -- -- -- -- -- --  -- -- -- -- -- -- -- --
0000:    79 00 F8 FF FF 7F F0  FF FF 7F 1D 00 80 23 7B   y............#{
0010: F8 FF FF 7F 21 00                                 ....!.          
```

#### Opcodes

```
  0: 0x0001 [0x79] EventEntity looks at LocalPlayer (Basic look)
  1: 0x000B [0x1D] PRINT_EVENT_MESSAGE(message_id=7341*)
    → "What, is it so strange to see a Hume doing some honest work? Well, I wouldn't have to, if that foreman wasn't always watching..."
  2: 0x000E [0x23] WAIT_FOR_DIALOG_INTERACTION
  3: 0x000F [0x7B] EventEntity stops talking
  4: 0x0014 [0x21] END_EVENT
  5: 0x0015 [0x00] END_REQSTACK()
```
