# 17481832 - Zelman

## Common Data

| Field            | Value                  |
|------------------|------------------------|
| Zone             | Zeruhn Mines (ID: 172) |
| Block Size       | 196 bytes              |
| Total Events     | 5                      |
| References Count | 10                     |

## List of Events

| Event ID              | Entrypoint   |   Size |   Instructions |
|-----------------------|--------------|--------|----------------|
| [65535](#event-65535) | 0x0000       |      1 |              1 |
| [160](#event-160)     | 0x0001       |     30 |              8 |
| [161](#event-161)     | 0x001F       |     39 |             11 |
| [162](#event-162)     | 0x0046       |     48 |             14 |
| [229](#event-229)     | 0x0076       |      1 |              1 |

## DAT References (imed_data)

|   Index | Hex Value   |   Dec Value |
|---------|-------------|-------------|
|       0 | 0x1CC2      |        7362 |
|       1 | 0x0006      |           6 |
|       2 | 0x1CC3      |        7363 |
|       3 | 0x1CBC      |        7356 |
|       4 | 0x1CC0      |        7360 |
|       5 | 0x1CC1      |        7361 |
|       6 | 0x1118      |        4376 |
|       7 | 0x1CBD      |        7357 |
|       8 | 0x1CBE      |        7358 |
|       9 | 0x1CBF      |        7359 |

## String References

- **7356**: What's this? A note from my wife?
- **7357**: You've read this, haven't you? See what she wants me to do? The groceries! What does she think I do all day, play dice with Goblins!?
- **7358**: Say, since you've read this note, can you go and get her $7 instead of me?
- **7359**: I can't run around doing everything she tells me to--I have my dignity to uphold!
- **7360**: Hah! What does she think I do all day--play dice with Goblins!?
- **7361**: Just tell her I got her message, and to not bother me again.
- **7362**: I wish I was an adventurer like you, free to go wherever I like.
- **7363**: Every day, all I do is dig tunnels in this dank place, and when I go home, my wife bosses me around...

## Events

### Event 65535

#### Metadata

| Field        | Value   |
|--------------|---------|
| Entrypoint   | 0x0000  |
| Data Size    | 1 bytes |
| Instructions | 1       |

```
      00 01 02 03 04 05 06 07  08 09 0A 0B 0C 0D 0E 0F
      -- -- -- -- -- -- -- --  -- -- -- -- -- -- -- --
0000: 00                                                .               
```

#### Opcodes

```
  0: 0x0000 [0x00] END_REQSTACK()
```

### Event 160

#### Metadata

| Field        | Value    |
|--------------|----------|
| Entrypoint   | 0x0001   |
| Data Size    | 30 bytes |
| Instructions | 8        |

```
      00 01 02 03 04 05 06 07  08 09 0A 0B 0C 0D 0E 0F
      -- -- -- -- -- -- -- --  -- -- -- -- -- -- -- --
0000:    1E F0 FF FF 7F 1D 00  80 23 5B 01 80 F8 FF FF   ........#[.....
0010: 7F F8 FF FF 7F 74 6C 6B  30 1D 02 80 23 21 00     .....tlk0...#!. 
```

#### Opcodes

```
  0: 0x0001 [0x1E] EventEntity looks at LocalPlayer and starts talking
  1: 0x0006 [0x1D] PRINT_EVENT_MESSAGE(message_id=7362*)
    → "I wish I was an adventurer like you, free to go wherever I like."
  2: 0x0009 [0x23] WAIT_FOR_DIALOG_INTERACTION
  3: 0x000A [0x5B] LOAD_EXT_SCHEDULER: Load scheduler "tlk0" with entities [EventEntity, EventEntity], work=6*
  4: 0x0019 [0x1D] PRINT_EVENT_MESSAGE(message_id=7363*)
    → "Every day, all I do is dig tunnels in this dank place, and when I go home, my wife bosses me around..."
  5: 0x001C [0x23] WAIT_FOR_DIALOG_INTERACTION
  6: 0x001D [0x21] END_EVENT
  7: 0x001E [0x00] END_REQSTACK()
```

### Event 161

#### Metadata

| Field        | Value    |
|--------------|----------|
| Entrypoint   | 0x001F   |
| Data Size    | 39 bytes |
| Instructions | 11       |

```
      00 01 02 03 04 05 06 07  08 09 0A 0B 0C 0D 0E 0F
      -- -- -- -- -- -- -- --  -- -- -- -- -- -- -- --
0010:                                               1E                 .
0020: F0 FF FF 7F 1D 03 80 23  5B 01 80 F8 FF FF 7F F8  .......#[.......
0030: FF FF 7F 74 6C 6B 30 1D  04 80 23 5E 69 64 6C 30  ...tlk0...#^idl0
0040: 1D 05 80 23 21 00                                 ...#!.          
```

#### Opcodes

```
  0: 0x001F [0x1E] EventEntity looks at LocalPlayer and starts talking
  1: 0x0024 [0x1D] PRINT_EVENT_MESSAGE(message_id=7356*)
    → "What's this? A note from my wife?"
  2: 0x0027 [0x23] WAIT_FOR_DIALOG_INTERACTION
  3: 0x0028 [0x5B] LOAD_EXT_SCHEDULER: Load scheduler "tlk0" with entities [EventEntity, EventEntity], work=6*
  4: 0x0037 [0x1D] PRINT_EVENT_MESSAGE(message_id=7360*)
    → "Hah! What does she think I do all day--play dice with Goblins!?"
  5: 0x003A [0x23] WAIT_FOR_DIALOG_INTERACTION
  6: 0x003B [0x5E] EventEntity goes idle (kills current action) (animation: "idl0")
  7: 0x0040 [0x1D] PRINT_EVENT_MESSAGE(message_id=7361*)
    → "Just tell her I got her message, and to not bother me again."
  8: 0x0043 [0x23] WAIT_FOR_DIALOG_INTERACTION
  9: 0x0044 [0x21] END_EVENT
 10: 0x0045 [0x00] END_REQSTACK()
```

### Event 162

#### Metadata

| Field        | Value    |
|--------------|----------|
| Entrypoint   | 0x0046   |
| Data Size    | 48 bytes |
| Instructions | 14       |

```
      00 01 02 03 04 05 06 07  08 09 0A 0B 0C 0D 0E 0F
      -- -- -- -- -- -- -- --  -- -- -- -- -- -- -- --
0040:                   1E F0  FF FF 7F 03 09 10 06 80        ..........
0050: 1D 03 80 23 5B 01 80 F8  FF FF 7F F8 FF FF 7F 74  ...#[..........t
0060: 6C 6B 30 1D 07 80 23 1D  08 80 23 5E 69 64 6C 30  lk0...#...#^idl0
0070: 1D 09 80 23 21 00                                 ...#!.          
```

#### Opcodes

```
  0: 0x0046 [0x1E] EventEntity looks at LocalPlayer and starts talking
  1: 0x004B [0x03] Work_Zone[9] = 4376*
  2: 0x0050 [0x1D] PRINT_EVENT_MESSAGE(message_id=7356*)
    → "What's this? A note from my wife?"
  3: 0x0053 [0x23] WAIT_FOR_DIALOG_INTERACTION
  4: 0x0054 [0x5B] LOAD_EXT_SCHEDULER: Load scheduler "tlk0" with entities [EventEntity, EventEntity], work=6*
  5: 0x0063 [0x1D] PRINT_EVENT_MESSAGE(message_id=7357*)
    → "You've read this, haven't you? See what she wants me to do? The groceries! What does she think I do all day, play dice with Goblins!?"
  6: 0x0066 [0x23] WAIT_FOR_DIALOG_INTERACTION
  7: 0x0067 [0x1D] PRINT_EVENT_MESSAGE(message_id=7358*)
    → "Say, since you've read this note, can you go and get her $7 instead of me?"
  8: 0x006A [0x23] WAIT_FOR_DIALOG_INTERACTION
  9: 0x006B [0x5E] EventEntity goes idle (kills current action) (animation: "idl0")
 10: 0x0070 [0x1D] PRINT_EVENT_MESSAGE(message_id=7359*)
    → "I can't run around doing everything she tells me to--I have my dignity to uphold!"
 11: 0x0073 [0x23] WAIT_FOR_DIALOG_INTERACTION
 12: 0x0074 [0x21] END_EVENT
 13: 0x0075 [0x00] END_REQSTACK()
```

### Event 229

#### Metadata

| Field        | Value   |
|--------------|---------|
| Entrypoint   | 0x0076  |
| Data Size    | 1 bytes |
| Instructions | 1       |

```
      00 01 02 03 04 05 06 07  08 09 0A 0B 0C 0D 0E 0F
      -- -- -- -- -- -- -- --  -- -- -- -- -- -- -- --
0070:                   00                                    .         
```

#### Opcodes

```
  0: 0x0076 [0x00] END_REQSTACK()
```
