# 17481859 - Cornelia

## Common Data

| Field            | Value                  |
|------------------|------------------------|
| Zone             | Zeruhn Mines (ID: 172) |
| Block Size       | 564 bytes              |
| Total Events     | 25                     |
| References Count | 28                     |

## List of Events

| Event ID                   | Entrypoint   |   Size |   Instructions |
|----------------------------|--------------|--------|----------------|
| [65535](#event-65535)      | 0x0000       |      1 |              1 |
| [220](#event-220)          | 0x0001       |      7 |              2 |
| [224](#event-224)          | 0x0008       |      7 |              2 |
| [65535.1](#event-655351)   | 0x000F       |      2 |              2 |
| [65535.2](#event-655352)   | 0x0011       |     15 |              5 |
| [65535.3](#event-655353)   | 0x0020       |     15 |              5 |
| [65535.4](#event-655354)   | 0x002F       |     15 |              5 |
| [65535.5](#event-655355)   | 0x003E       |     15 |              5 |
| [65535.6](#event-655356)   | 0x004D       |     15 |              5 |
| [225](#event-225)          | 0x005C       |      7 |              2 |
| [65535.7](#event-655357)   | 0x0063       |     16 |              2 |
| [65535.8](#event-655358)   | 0x0073       |     14 |              2 |
| [65535.9](#event-655359)   | 0x0081       |     16 |              2 |
| [65535.10](#event-6553510) | 0x0091       |     14 |              2 |
| [65535.11](#event-6553511) | 0x009F       |     16 |              2 |
| [65535.12](#event-6553512) | 0x00AF       |     14 |              2 |
| [65535.13](#event-6553513) | 0x00BD       |     16 |              2 |
| [65535.14](#event-6553514) | 0x00CD       |     14 |              2 |
| [65535.15](#event-6553515) | 0x00DB       |     16 |              2 |
| [65535.16](#event-6553516) | 0x00EB       |     14 |              2 |
| [65535.17](#event-6553517) | 0x00F9       |     16 |              2 |
| [65535.18](#event-6553518) | 0x0109       |     14 |              2 |
| [65535.19](#event-6553519) | 0x0117       |     15 |              5 |
| [65535.20](#event-6553520) | 0x0126       |     15 |              5 |
| [65535.21](#event-6553521) | 0x0135       |     25 |              7 |

## DAT References (imed_data)

|   Index | Hex Value   |   Dec Value |
|---------|-------------|-------------|
|       0 | 0x000D      |          13 |
|       1 | 0xFFFF9112  |  4294938898 |
|       2 | 0x0DC9      |        3529 |
|       3 | 0x0000      |           0 |
|       4 | 0xFFFF8D27  |  4294937895 |
|       5 | 0x000C      |          12 |
|       6 | 0xFFFFA882  |  4294944898 |
|       7 | 0x0028      |          40 |
|       8 | 0x22969     |      141673 |
|       9 | 0xFFFD1140  |  4294775104 |
|      10 | 0x204E      |        8270 |
|      11 | 0x21E33     |      138803 |
|      12 | 0xFFFD15B1  |  4294776241 |
|      13 | 0x2055      |        8277 |
|      14 | 0x0091      |         145 |
|      15 | 0x0092      |         146 |
|      16 | 0xFFFF3B0B  |  4294916875 |
|      17 | 0x4F49      |       20297 |
|      18 | 0x001E      |          30 |
|      19 | 0xFFFF4E7E  |  4294921854 |
|      20 | 0x4F0A      |       20234 |
|      21 | 0x0008      |           8 |
|      22 | 0xFFFF7DFC  |  4294934012 |
|      23 | 0x4977      |       18807 |
|      24 | 0x000A      |          10 |
|      25 | 0xFFFF9179  |  4294939001 |
|      26 | 0x2CC6      |       11462 |
|      27 | 0x0004      |           4 |

## Events

### Event 65535

#### Metadata

| Field        | Value   |
|--------------|---------|
| Entrypoint   | 0x0000  |
| Data Size    | 1 bytes |
| Instructions | 1       |

```
      00 01 02 03 04 05 06 07  08 09 0A 0B 0C 0D 0E 0F
      -- -- -- -- -- -- -- --  -- -- -- -- -- -- -- --
0000: 00                                                .               
```

#### Opcodes

```
  0: 0x0000 [0x00] END_REQSTACK()
```

### Event 220

#### Metadata

| Field        | Value   |
|--------------|---------|
| Entrypoint   | 0x0001  |
| Data Size    | 7 bytes |
| Instructions | 2       |

```
      00 01 02 03 04 05 06 07  08 09 0A 0B 0C 0D 0E 0F
      -- -- -- -- -- -- -- --  -- -- -- -- -- -- -- --
0000:    92 01 F8 FF FF 7F 00                            .......        
```

#### Opcodes

```
  0: 0x0001 [0x92] EventEntity->Render.Flags3 ^= 0x01
  1: 0x0007 [0x00] END_REQSTACK()
```

### Event 224

#### Metadata

| Field        | Value   |
|--------------|---------|
| Entrypoint   | 0x0008  |
| Data Size    | 7 bytes |
| Instructions | 2       |

```
      00 01 02 03 04 05 06 07  08 09 0A 0B 0C 0D 0E 0F
      -- -- -- -- -- -- -- --  -- -- -- -- -- -- -- --
0000:                          92 01 F8 FF FF 7F 00             ....... 
```

#### Opcodes

```
  0: 0x0008 [0x92] EventEntity->Render.Flags3 ^= 0x01
  1: 0x000E [0x00] END_REQSTACK()
```

### Event 65535.1

#### Metadata

| Field        | Value   |
|--------------|---------|
| Entrypoint   | 0x000F  |
| Data Size    | 2 bytes |
| Instructions | 2       |

```
      00 01 02 03 04 05 06 07  08 09 0A 0B 0C 0D 0E 0F
      -- -- -- -- -- -- -- --  -- -- -- -- -- -- -- --
0000:                                               84                 .
0010: 00                                                .               
```

#### Opcodes

```
  0: 0x000F [0x84] ADJUST_RENDER_FLAGS3_BIT0()
  1: 0x0010 [0x00] END_REQSTACK()
```

### Event 65535.2

#### Metadata

| Field        | Value    |
|--------------|----------|
| Entrypoint   | 0x0011   |
| Data Size    | 15 bytes |
| Instructions | 5        |

```
      00 01 02 03 04 05 06 07  08 09 0A 0B 0C 0D 0E 0F
      -- -- -- -- -- -- -- --  -- -- -- -- -- -- -- --
0010:    32 00 80 1F 00 01 80  02 80 03 80 1F 01 6F 00   2............o.
```

#### Opcodes

```
  0: 0x0011 [0x32] ExtData[1]->MainSpeed = 13* * 0.1
  1: 0x0014 [0x1F] MOVE_ENTITY: EventEntity moves to X=-28.398*, Z=3.529*, Y=0.000*
  2: 0x001C [0x1F] MOVE_ENTITY: Update entity position (mode=1)
  3: 0x001E [0x6F] WAIT_FRAME_DELAY: Yield until WaitTime reaches zero
  4: 0x001F [0x00] END_REQSTACK()
```

### Event 65535.3

#### Metadata

| Field        | Value    |
|--------------|----------|
| Entrypoint   | 0x0020   |
| Data Size    | 15 bytes |
| Instructions | 5        |

```
      00 01 02 03 04 05 06 07  08 09 0A 0B 0C 0D 0E 0F
      -- -- -- -- -- -- -- --  -- -- -- -- -- -- -- --
0020: 32 00 80 1F 00 04 80 02  80 05 80 1F 01 6F 00     2............o. 
```

#### Opcodes

```
  0: 0x0020 [0x32] ExtData[1]->MainSpeed = 13* * 0.1
  1: 0x0023 [0x1F] MOVE_ENTITY: EventEntity moves to X=-29.401*, Z=3.529*, Y=0.012*
  2: 0x002B [0x1F] MOVE_ENTITY: Update entity position (mode=1)
  3: 0x002D [0x6F] WAIT_FRAME_DELAY: Yield until WaitTime reaches zero
  4: 0x002E [0x00] END_REQSTACK()
```

### Event 65535.4

#### Metadata

| Field        | Value    |
|--------------|----------|
| Entrypoint   | 0x002F   |
| Data Size    | 15 bytes |
| Instructions | 5        |

```
      00 01 02 03 04 05 06 07  08 09 0A 0B 0C 0D 0E 0F
      -- -- -- -- -- -- -- --  -- -- -- -- -- -- -- --
0020:                                               32                 2
0030: 00 80 1F 00 06 80 02 80  03 80 1F 01 6F 00        ............o.  
```

#### Opcodes

```
  0: 0x002F [0x32] ExtData[1]->MainSpeed = 13* * 0.1
  1: 0x0032 [0x1F] MOVE_ENTITY: EventEntity moves to X=-22.398*, Z=3.529*, Y=0.000*
  2: 0x003A [0x1F] MOVE_ENTITY: Update entity position (mode=1)
  3: 0x003C [0x6F] WAIT_FRAME_DELAY: Yield until WaitTime reaches zero
  4: 0x003D [0x00] END_REQSTACK()
```

### Event 65535.5

#### Metadata

| Field        | Value    |
|--------------|----------|
| Entrypoint   | 0x003E   |
| Data Size    | 15 bytes |
| Instructions | 5        |

```
      00 01 02 03 04 05 06 07  08 09 0A 0B 0C 0D 0E 0F
      -- -- -- -- -- -- -- --  -- -- -- -- -- -- -- --
0030:                                            32 07                2.
0040: 80 1F 00 08 80 09 80 0A  80 1F 01 6F 00           ...........o.   
```

#### Opcodes

```
  0: 0x003E [0x32] ExtData[1]->MainSpeed = 40* * 0.1
  1: 0x0041 [0x1F] MOVE_ENTITY: EventEntity moves to X=141.673*, Z=-192.192*, Y=8.270*
  2: 0x0049 [0x1F] MOVE_ENTITY: Update entity position (mode=1)
  3: 0x004B [0x6F] WAIT_FRAME_DELAY: Yield until WaitTime reaches zero
  4: 0x004C [0x00] END_REQSTACK()
```

### Event 65535.6

#### Metadata

| Field        | Value    |
|--------------|----------|
| Entrypoint   | 0x004D   |
| Data Size    | 15 bytes |
| Instructions | 5        |

```
      00 01 02 03 04 05 06 07  08 09 0A 0B 0C 0D 0E 0F
      -- -- -- -- -- -- -- --  -- -- -- -- -- -- -- --
0040:                                         32 00 80               2..
0050: 1F 00 0B 80 0C 80 0D 80  1F 01 6F 00              ..........o.    
```

#### Opcodes

```
  0: 0x004D [0x32] ExtData[1]->MainSpeed = 13* * 0.1
  1: 0x0050 [0x1F] MOVE_ENTITY: EventEntity moves to X=138.803*, Z=-191.055*, Y=8.277*
  2: 0x0058 [0x1F] MOVE_ENTITY: Update entity position (mode=1)
  3: 0x005A [0x6F] WAIT_FRAME_DELAY: Yield until WaitTime reaches zero
  4: 0x005B [0x00] END_REQSTACK()
```

### Event 225

#### Metadata

| Field        | Value   |
|--------------|---------|
| Entrypoint   | 0x005C  |
| Data Size    | 7 bytes |
| Instructions | 2       |

```
      00 01 02 03 04 05 06 07  08 09 0A 0B 0C 0D 0E 0F
      -- -- -- -- -- -- -- --  -- -- -- -- -- -- -- --
0050:                                      92 01 F8 FF              ....
0060: FF 7F 00                                          ...             
```

#### Opcodes

```
  0: 0x005C [0x92] EventEntity->Render.Flags3 ^= 0x01
  1: 0x0062 [0x00] END_REQSTACK()
```

### Event 65535.7

#### Metadata

| Field        | Value    |
|--------------|----------|
| Entrypoint   | 0x0063   |
| Data Size    | 16 bytes |
| Instructions | 2        |

```
      00 01 02 03 04 05 06 07  08 09 0A 0B 0C 0D 0E 0F
      -- -- -- -- -- -- -- --  -- -- -- -- -- -- -- --
0060:          5B 0E 80 F8 FF  FF 7F F8 FF FF 7F 74 6C     [..........tl
0070: 61 30 00                                          a0.             
```

#### Opcodes

```
  0: 0x0063 [0x5B] LOAD_EXT_SCHEDULER: Load scheduler "tla0" with entities [EventEntity, EventEntity], work=145*
  1: 0x0072 [0x00] END_REQSTACK()
```

### Event 65535.8

#### Metadata

| Field        | Value    |
|--------------|----------|
| Entrypoint   | 0x0073   |
| Data Size    | 14 bytes |
| Instructions | 2        |

```
      00 01 02 03 04 05 06 07  08 09 0A 0B 0C 0D 0E 0F
      -- -- -- -- -- -- -- --  -- -- -- -- -- -- -- --
0070:          53 F8 FF FF 7F  F8 FF FF 7F 74 6C 61 30     S........tla0
0080: 00                                                .               
```

#### Opcodes

```
  0: 0x0073 [0x53] WAIT_SCHEDULER_TASK: Wait for scheduler "tla0" with entities [EventEntity, EventEntity]
  1: 0x0080 [0x00] END_REQSTACK()
```

### Event 65535.9

#### Metadata

| Field        | Value    |
|--------------|----------|
| Entrypoint   | 0x0081   |
| Data Size    | 16 bytes |
| Instructions | 2        |

```
      00 01 02 03 04 05 06 07  08 09 0A 0B 0C 0D 0E 0F
      -- -- -- -- -- -- -- --  -- -- -- -- -- -- -- --
0080:    5B 0E 80 F8 FF FF 7F  F8 FF FF 7F 74 6C 61 31   [..........tla1
0090: 00                                                .               
```

#### Opcodes

```
  0: 0x0081 [0x5B] LOAD_EXT_SCHEDULER: Load scheduler "tla1" with entities [EventEntity, EventEntity], work=145*
  1: 0x0090 [0x00] END_REQSTACK()
```

### Event 65535.10

#### Metadata

| Field        | Value    |
|--------------|----------|
| Entrypoint   | 0x0091   |
| Data Size    | 14 bytes |
| Instructions | 2        |

```
      00 01 02 03 04 05 06 07  08 09 0A 0B 0C 0D 0E 0F
      -- -- -- -- -- -- -- --  -- -- -- -- -- -- -- --
0090:    53 F8 FF FF 7F F8 FF  FF 7F 74 6C 61 31 00      S........tla1. 
```

#### Opcodes

```
  0: 0x0091 [0x53] WAIT_SCHEDULER_TASK: Wait for scheduler "tla1" with entities [EventEntity, EventEntity]
  1: 0x009E [0x00] END_REQSTACK()
```

### Event 65535.11

#### Metadata

| Field        | Value    |
|--------------|----------|
| Entrypoint   | 0x009F   |
| Data Size    | 16 bytes |
| Instructions | 2        |

```
      00 01 02 03 04 05 06 07  08 09 0A 0B 0C 0D 0E 0F
      -- -- -- -- -- -- -- --  -- -- -- -- -- -- -- --
0090:                                               5B                 [
00A0: 0F 80 F8 FF FF 7F F8 FF  FF 7F 69 6B 72 30 00     ..........ikr0. 
```

#### Opcodes

```
  0: 0x009F [0x5B] LOAD_EXT_SCHEDULER: Load scheduler "ikr0" with entities [EventEntity, EventEntity], work=146*
  1: 0x00AE [0x00] END_REQSTACK()
```

### Event 65535.12

#### Metadata

| Field        | Value    |
|--------------|----------|
| Entrypoint   | 0x00AF   |
| Data Size    | 14 bytes |
| Instructions | 2        |

```
      00 01 02 03 04 05 06 07  08 09 0A 0B 0C 0D 0E 0F
      -- -- -- -- -- -- -- --  -- -- -- -- -- -- -- --
00A0:                                               53                 S
00B0: F8 FF FF 7F F8 FF FF 7F  69 6B 72 30 00           ........ikr0.   
```

#### Opcodes

```
  0: 0x00AF [0x53] WAIT_SCHEDULER_TASK: Wait for scheduler "ikr0" with entities [EventEntity, EventEntity]
  1: 0x00BC [0x00] END_REQSTACK()
```

### Event 65535.13

#### Metadata

| Field        | Value    |
|--------------|----------|
| Entrypoint   | 0x00BD   |
| Data Size    | 16 bytes |
| Instructions | 2        |

```
      00 01 02 03 04 05 06 07  08 09 0A 0B 0C 0D 0E 0F
      -- -- -- -- -- -- -- --  -- -- -- -- -- -- -- --
00B0:                                         5B 0F 80               [..
00C0: F8 FF FF 7F F8 FF FF 7F  69 6B 72 31 00           ........ikr1.   
```

#### Opcodes

```
  0: 0x00BD [0x5B] LOAD_EXT_SCHEDULER: Load scheduler "ikr1" with entities [EventEntity, EventEntity], work=146*
  1: 0x00CC [0x00] END_REQSTACK()
```

### Event 65535.14

#### Metadata

| Field        | Value    |
|--------------|----------|
| Entrypoint   | 0x00CD   |
| Data Size    | 14 bytes |
| Instructions | 2        |

```
      00 01 02 03 04 05 06 07  08 09 0A 0B 0C 0D 0E 0F
      -- -- -- -- -- -- -- --  -- -- -- -- -- -- -- --
00C0:                                         53 F8 FF               S..
00D0: FF 7F F8 FF FF 7F 69 6B  72 31 00                 ......ikr1.     
```

#### Opcodes

```
  0: 0x00CD [0x53] WAIT_SCHEDULER_TASK: Wait for scheduler "ikr1" with entities [EventEntity, EventEntity]
  1: 0x00DA [0x00] END_REQSTACK()
```

### Event 65535.15

#### Metadata

| Field        | Value    |
|--------------|----------|
| Entrypoint   | 0x00DB   |
| Data Size    | 16 bytes |
| Instructions | 2        |

```
      00 01 02 03 04 05 06 07  08 09 0A 0B 0C 0D 0E 0F
      -- -- -- -- -- -- -- --  -- -- -- -- -- -- -- --
00D0:                                   5B 0F 80 F8 FF             [....
00E0: FF 7F F8 FF FF 7F 69 74  6C 30 00                 ......itl0.     
```

#### Opcodes

```
  0: 0x00DB [0x5B] LOAD_EXT_SCHEDULER: Load scheduler "itl0" with entities [EventEntity, EventEntity], work=146*
  1: 0x00EA [0x00] END_REQSTACK()
```

### Event 65535.16

#### Metadata

| Field        | Value    |
|--------------|----------|
| Entrypoint   | 0x00EB   |
| Data Size    | 14 bytes |
| Instructions | 2        |

```
      00 01 02 03 04 05 06 07  08 09 0A 0B 0C 0D 0E 0F
      -- -- -- -- -- -- -- --  -- -- -- -- -- -- -- --
00E0:                                   53 F8 FF FF 7F             S....
00F0: F8 FF FF 7F 69 74 6C 30  00                       ....itl0.       
```

#### Opcodes

```
  0: 0x00EB [0x53] WAIT_SCHEDULER_TASK: Wait for scheduler "itl0" with entities [EventEntity, EventEntity]
  1: 0x00F8 [0x00] END_REQSTACK()
```

### Event 65535.17

#### Metadata

| Field        | Value    |
|--------------|----------|
| Entrypoint   | 0x00F9   |
| Data Size    | 16 bytes |
| Instructions | 2        |

```
      00 01 02 03 04 05 06 07  08 09 0A 0B 0C 0D 0E 0F
      -- -- -- -- -- -- -- --  -- -- -- -- -- -- -- --
00F0:                             5B 0F 80 F8 FF FF 7F           [......
0100: F8 FF FF 7F 69 74 6C 31  00                       ....itl1.       
```

#### Opcodes

```
  0: 0x00F9 [0x5B] LOAD_EXT_SCHEDULER: Load scheduler "itl1" with entities [EventEntity, EventEntity], work=146*
  1: 0x0108 [0x00] END_REQSTACK()
```

### Event 65535.18

#### Metadata

| Field        | Value    |
|--------------|----------|
| Entrypoint   | 0x0109   |
| Data Size    | 14 bytes |
| Instructions | 2        |

```
      00 01 02 03 04 05 06 07  08 09 0A 0B 0C 0D 0E 0F
      -- -- -- -- -- -- -- --  -- -- -- -- -- -- -- --
0100:                             53 F8 FF FF 7F F8 FF           S......
0110: FF 7F 69 74 6C 31 00                              ..itl1.         
```

#### Opcodes

```
  0: 0x0109 [0x53] WAIT_SCHEDULER_TASK: Wait for scheduler "itl1" with entities [EventEntity, EventEntity]
  1: 0x0116 [0x00] END_REQSTACK()
```

### Event 65535.19

#### Metadata

| Field        | Value    |
|--------------|----------|
| Entrypoint   | 0x0117   |
| Data Size    | 15 bytes |
| Instructions | 5        |

```
      00 01 02 03 04 05 06 07  08 09 0A 0B 0C 0D 0E 0F
      -- -- -- -- -- -- -- --  -- -- -- -- -- -- -- --
0110:                      32  07 80 1F 00 10 80 11 80         2........
0120: 12 80 1F 01 6F 00                                 ....o.          
```

#### Opcodes

```
  0: 0x0117 [0x32] ExtData[1]->MainSpeed = 40* * 0.1
  1: 0x011A [0x1F] MOVE_ENTITY: EventEntity moves to X=-50.421*, Z=20.297*, Y=0.030*
  2: 0x0122 [0x1F] MOVE_ENTITY: Update entity position (mode=1)
  3: 0x0124 [0x6F] WAIT_FRAME_DELAY: Yield until WaitTime reaches zero
  4: 0x0125 [0x00] END_REQSTACK()
```

### Event 65535.20

#### Metadata

| Field        | Value    |
|--------------|----------|
| Entrypoint   | 0x0126   |
| Data Size    | 15 bytes |
| Instructions | 5        |

```
      00 01 02 03 04 05 06 07  08 09 0A 0B 0C 0D 0E 0F
      -- -- -- -- -- -- -- --  -- -- -- -- -- -- -- --
0120:                   32 07  80 1F 00 13 80 14 80 15        2.........
0130: 80 1F 01 6F 00                                    ...o.           
```

#### Opcodes

```
  0: 0x0126 [0x32] ExtData[1]->MainSpeed = 40* * 0.1
  1: 0x0129 [0x1F] MOVE_ENTITY: EventEntity moves to X=-45.442*, Z=20.234*, Y=0.008*
  2: 0x0131 [0x1F] MOVE_ENTITY: Update entity position (mode=1)
  3: 0x0133 [0x6F] WAIT_FRAME_DELAY: Yield until WaitTime reaches zero
  4: 0x0134 [0x00] END_REQSTACK()
```

### Event 65535.21

#### Metadata

| Field        | Value    |
|--------------|----------|
| Entrypoint   | 0x0135   |
| Data Size    | 25 bytes |
| Instructions | 7        |

```
      00 01 02 03 04 05 06 07  08 09 0A 0B 0C 0D 0E 0F
      -- -- -- -- -- -- -- --  -- -- -- -- -- -- -- --
0130:                32 07 80  1F 00 16 80 17 80 18 80       2..........
0140: 1F 01 1F 00 19 80 1A 80  1B 80 1F 01 6F 00        ............o.  
```

#### Opcodes

```
  0: 0x0135 [0x32] ExtData[1]->MainSpeed = 40* * 0.1
  1: 0x0138 [0x1F] MOVE_ENTITY: EventEntity moves to X=-33.284*, Z=18.807*, Y=0.010*
  2: 0x0140 [0x1F] MOVE_ENTITY: Update entity position (mode=1)
  3: 0x0142 [0x1F] MOVE_ENTITY: EventEntity moves to X=-28.295*, Z=11.462*, Y=0.004*
  4: 0x014A [0x1F] MOVE_ENTITY: Update entity position (mode=1)
  5: 0x014C [0x6F] WAIT_FRAME_DELAY: Yield until WaitTime reaches zero
  6: 0x014D [0x00] END_REQSTACK()
```
