# 17481857

## Common Data

| Field            | Value                  |
|------------------|------------------------|
| Zone             | Zeruhn Mines (ID: 172) |
| Block Size       | 19980 bytes            |
| Total Events     | 13                     |
| References Count | 362                    |

## List of Events

| Event ID              | Entrypoint   |   Size |   Instructions |
|-----------------------|--------------|--------|----------------|
| [65535](#event-65535) | 0x0000       |    658 |             62 |
| [220](#event-220)     | 0x0292       |   1835 |            231 |
| [221](#event-221)     | 0x09BD       |     93 |             15 |
| [222](#event-222)     | 0x0A1A       |     42 |             10 |
| [223](#event-223)     | 0x0A44       |   2657 |            330 |
| [224](#event-224)     | 0x14A5       |   4921 |            568 |
| [225](#event-225)     | 0x27DE       |   3774 |            501 |
| [226](#event-226)     | 0x369C       |     61 |             13 |
| [227](#event-227)     | 0x36D9       |     50 |             10 |
| [228](#event-228)     | 0x370B       |     73 |             13 |
| [229](#event-229)     | 0x3754       |     58 |             12 |
| [230](#event-230)     | 0x378E       |   1533 |            198 |
| [231](#event-231)     | 0x3D8B       |   2708 |            343 |

## DAT References (imed_data)

|   Index | Hex Value   |   Dec Value |
|---------|-------------|-------------|
|       0 | 0x00C8      |         200 |
|       1 | 0x0000      |           0 |
|       2 | 0x00C9      |         201 |
|       3 | 0x0001      |           1 |
|       4 | 0x002D      |          45 |
|       5 | 0x0002      |           2 |
|       6 | 0x001E      |          30 |
|       7 | 0x00D7      |         215 |
|       8 | 0x0093      |         147 |
|       9 | 0x012C      |         300 |
|      10 | 0xFFFF9112  |  4294938898 |
|      11 | 0x0DC9      |        3529 |
|      12 | 0x0D24      |        3364 |
|      13 | 0xFFFFC5B5  |  4294952373 |
|      14 | 0x107B      |        4219 |
|      15 | 0x0841      |        2113 |
|      16 | 0x007F      |         127 |
|      17 | 0x0091      |         145 |
|      18 | 0x0005      |           5 |
|      19 | 0x033E      |         830 |
|      20 | 0x0006      |           6 |
|      21 | 0x0003      |           3 |
|      22 | 0x0004      |           4 |
|      23 | 0x0008      |           8 |
|      24 | 0x000F      |          15 |
|      25 | 0x000A      |          10 |
|      26 | 0x297D      |       10621 |
|      27 | 0x297E      |       10622 |
|      28 | 0x005A      |          90 |
|      29 | 0xFFFF96B0  |  4294940336 |
|      30 | 0x1022      |        4130 |
|      31 | 0x000C      |          12 |
|      32 | 0x076C      |        1900 |
|      33 | 0xFFFF968E  |  4294940302 |
|      34 | 0x12C0      |        4800 |
|      35 | 0x05DC      |        1500 |
|      36 | 0xFFFF9561  |  4294940001 |
|      37 | 0x104B      |        4171 |
|      38 | 0x0E74      |        3700 |
|      39 | 0x0094      |         148 |
|      40 | 0x297F      |       10623 |
|      41 | 0x2980      |       10624 |
|      42 | 0x2981      |       10625 |
|      43 | 0x2982      |       10626 |
|      44 | 0x2983      |       10627 |
|      45 | 0x2984      |       10628 |
|      46 | 0x2985      |       10629 |
|      47 | 0x0258      |         600 |
|      48 | 0x02B8      |         696 |
|      49 | 0x2986      |       10630 |
|      50 | 0x2987      |       10631 |
|      51 | 0x2988      |       10632 |
|      52 | 0x2989      |       10633 |
|      53 | 0x298A      |       10634 |
|      54 | 0x2295C     |      141660 |
|      55 | 0xFFFCEBEA  |  4294765546 |
|      56 | 0x2030      |        8240 |
|      57 | 0x04B0      |        1200 |
|      58 | 0x22ED5     |      143061 |
|      59 | 0xFFFD03DD  |  4294771677 |
|      60 | 0x1FDE      |        8158 |
|      61 | 0x0D66      |        3430 |
|      62 | 0x22A9C     |      141980 |
|      63 | 0xFFFD05D0  |  4294772176 |
|      64 | 0x208A      |        8330 |
|      65 | 0x03B6      |         950 |
|      66 | 0x22065     |      139365 |
|      67 | 0xFFFD38BA  |  4294785210 |
|      68 | 0x2227      |        8743 |
|      69 | 0x0150      |         336 |
|      70 | 0x003C      |          60 |
|      71 | 0x0050      |          80 |
|      72 | 0x0078      |         120 |
|      73 | 0x0014      |          20 |
|      74 | 0x21998     |      137624 |
|      75 | 0xFFFD2630  |  4294780464 |
|      76 | 0x2145      |        8517 |
|      77 | 0x00DF      |         223 |
|      78 | 0x0037      |          55 |
|      79 | 0x298C      |       10636 |
|      80 | 0x001A      |          26 |
|      81 | 0x001D      |          29 |
|      82 | 0x0080      |         128 |
|      83 | 0x0028      |          40 |
|      84 | 0x0F66      |        3942 |
|      85 | 0x069F      |        1695 |
|      86 | 0x298D      |       10637 |
|      87 | 0x0007      |           7 |
|      88 | 0x22AF6     |      142070 |
|      89 | 0xFFFCF73D  |  4294768445 |
|      90 | 0x202A      |        8234 |
|      91 | 0x03A3      |         931 |
|      92 | 0x298E      |       10638 |
|      93 | 0x298F      |       10639 |
|      94 | 0x0070      |         112 |
|      95 | 0x2990      |       10640 |
|      96 | 0x2991      |       10641 |
|      97 | 0x2992      |       10642 |
|      98 | 0x0073      |         115 |
|      99 | 0x0066      |         102 |
|     100 | 0x2317C     |      143740 |
|     101 | 0xFFFD0101  |  4294770945 |
|     102 | 0x1F71      |        8049 |
|     103 | 0x094E      |        2382 |
|     104 | 0x2281F     |      141343 |
|     105 | 0xFFFD0852  |  4294772818 |
|     106 | 0x2008      |        8200 |
|     107 | 0x01F4      |         500 |
|     108 | 0x20905     |      133381 |
|     109 | 0xFFFD32F6  |  4294783734 |
|     110 | 0x20B6      |        8374 |
|     111 | 0x2331D     |      144157 |
|     112 | 0xFFFCFBA2  |  4294769570 |
|     113 | 0x1F29      |        7977 |
|     114 | 0x0AA1      |        2721 |
|     115 | 0x1FF83     |      130947 |
|     116 | 0xFFFD364D  |  4294784589 |
|     117 | 0x20AC      |        8364 |
|     118 | 0x058F      |        1423 |
|     119 | 0x21224     |      135716 |
|     120 | 0xFFFD2C9C  |  4294782108 |
|     121 | 0x20CA      |        8394 |
|     122 | 0x02FC      |         764 |
|     123 | 0x1FBEC     |      130028 |
|     124 | 0xFFFD3470  |  4294784112 |
|     125 | 0x20DA      |        8410 |
|     126 | 0x0114      |         276 |
|     127 | 0x001C      |          28 |
|     128 | 0x2996      |       10646 |
|     129 | 0x2997      |       10647 |
|     130 | 0x23347     |      144199 |
|     131 | 0xFFFD01CF  |  4294771151 |
|     132 | 0x1F3B      |        7995 |
|     133 | 0x094F      |        2383 |
|     134 | 0x00D8      |         216 |
|     135 | 0x0015      |          21 |
|     136 | 0x2998      |       10648 |
|     137 | 0x0046      |          70 |
|     138 | 0x2999      |       10649 |
|     139 | 0x299A      |       10650 |
|     140 | 0x0032      |          50 |
|     141 | 0x299B      |       10651 |
|     142 | 0x299C      |       10652 |
|     143 | 0x009B      |         155 |
|     144 | 0x299D      |       10653 |
|     145 | 0x22F4B     |      143179 |
|     146 | 0xFFFD0A02  |  4294773250 |
|     147 | 0x2037      |        8247 |
|     148 | 0x0A48      |        2632 |
|     149 | 0x2295B     |      141659 |
|     150 | 0xFFFD0A7F  |  4294773375 |
|     151 | 0x20A6      |        8358 |
|     152 | 0x0A15      |        2581 |
|     153 | 0x22A0A     |      141834 |
|     154 | 0xFFFD16B5  |  4294776501 |
|     155 | 0x2127      |        8487 |
|     156 | 0x0574      |        1396 |
|     157 | 0x21EA9     |      138921 |
|     158 | 0xFFFD1BDA  |  4294777818 |
|     159 | 0x20E6      |        8422 |
|     160 | 0x22DF8     |      142840 |
|     161 | 0xFFFD122E  |  4294775342 |
|     162 | 0x2016      |        8214 |
|     163 | 0x22919     |      141593 |
|     164 | 0xFFFD10AF  |  4294774959 |
|     165 | 0x2061      |        8289 |
|     166 | 0x0019      |          25 |
|     167 | 0x299E      |       10654 |
|     168 | 0x000B      |          11 |
|     169 | 0x299F      |       10655 |
|     170 | 0x29A0      |       10656 |
|     171 | 0x29A1      |       10657 |
|     172 | 0x29A2      |       10658 |
|     173 | 0x29A3      |       10659 |
|     174 | 0x009C      |         156 |
|     175 | 0x29A4      |       10660 |
|     176 | 0x29A5      |       10661 |
|     177 | 0x29A6      |       10662 |
|     178 | 0x29A7      |       10663 |
|     179 | 0x29A8      |       10664 |
|     180 | 0x29A9      |       10665 |
|     181 | 0x03E8      |        1000 |
|     182 | 0x22B0D     |      142093 |
|     183 | 0xFFFD139F  |  4294775711 |
|     184 | 0x20B7      |        8375 |
|     185 | 0x0704      |        1796 |
|     186 | 0x005B      |          91 |
|     187 | 0x0096      |         150 |
|     188 | 0x0E08      |        3592 |
|     189 | 0x0440      |        1088 |
|     190 | 0x29AA      |       10666 |
|     191 | 0x29AB      |       10667 |
|     192 | 0xFFFEFE90  |  4294901392 |
|     193 | 0x526C      |       21100 |
|     194 | 0xFFFFFFFB  |  4294967291 |
|     195 | 0x0043      |          67 |
|     196 | 0xFFFF2281  |  4294910593 |
|     197 | 0x99A9      |       39337 |
|     198 | 0x07C9      |        1993 |
|     199 | 0xFFFF21FD  |  4294910461 |
|     200 | 0x9EF4      |       40692 |
|     201 | 0x084E      |        2126 |
|     202 | 0xFFFF2095  |  4294910101 |
|     203 | 0xA431      |       42033 |
|     204 | 0x07E8      |        2024 |
|     205 | 0xFFFF149C  |  4294907036 |
|     206 | 0x38BF      |       14527 |
|     207 | 0x0051      |          81 |
|     208 | 0x0BFB      |        3067 |
|     209 | 0xFFFF8BA7  |  4294937511 |
|     210 | 0x3517      |       13591 |
|     211 | 0x036B      |         875 |
|     212 | 0xFFFF156F  |  4294907247 |
|     213 | 0x632D      |       25389 |
|     214 | 0x0018      |          24 |
|     215 | 0x044D      |        1101 |
|     216 | 0xFFFF848F  |  4294935695 |
|     217 | 0x3B14      |       15124 |
|     218 | 0x02CB      |         715 |
|     219 | 0xFFFEBDCE  |  4294884814 |
|     220 | 0x4F50      |       20304 |
|     221 | 0x00EE      |         238 |
|     222 | 0x00B3      |         179 |
|     223 | 0xFFFEBDD8  |  4294884824 |
|     224 | 0x5357      |       21335 |
|     225 | 0x004E      |          78 |
|     226 | 0x0F89      |        3977 |
|     227 | 0xFFFF1499  |  4294907033 |
|     228 | 0x76F8      |       30456 |
|     229 | 0x0429      |        1065 |
|     230 | 0xFFFF1006  |  4294905862 |
|     231 | 0x8080      |       32896 |
|     232 | 0xFFFFFFF0  |  4294967280 |
|     233 | 0x03FC      |        1020 |
|     234 | 0xFFFF1B3A  |  4294908730 |
|     235 | 0x78F1      |       30961 |
|     236 | 0xFFFF1692  |  4294907538 |
|     237 | 0x70FC      |       28924 |
|     238 | 0x03B4      |         948 |
|     239 | 0xFFFFA989  |  4294945161 |
|     240 | 0x10D0      |        4304 |
|     241 | 0x0024      |          36 |
|     242 | 0x07CF      |        1999 |
|     243 | 0x0353      |         851 |
|     244 | 0x00FA      |         250 |
|     245 | 0x29AC      |       10668 |
|     246 | 0xFFFF4CB1  |  4294921393 |
|     247 | 0x4A7E      |       19070 |
|     248 | 0x084C      |        2124 |
|     249 | 0x29AD      |       10669 |
|     250 | 0x0009      |           9 |
|     251 | 0x29AE      |       10670 |
|     252 | 0x29AF      |       10671 |
|     253 | 0x29B0      |       10672 |
|     254 | 0x0462      |        1122 |
|     255 | 0x29B1      |       10673 |
|     256 | 0x29B2      |       10674 |
|     257 | 0x29B3      |       10675 |
|     258 | 0x29B4      |       10676 |
|     259 | 0xFFFF35CA  |  4294915530 |
|     260 | 0x4FD7      |       20439 |
|     261 | 0x004F      |          79 |
|     262 | 0x07FA      |        2042 |
|     263 | 0x29B5      |       10677 |
|     264 | 0x29B6      |       10678 |
|     265 | 0x29B7      |       10679 |
|     266 | 0x29B8      |       10680 |
|     267 | 0x29B9      |       10681 |
|     268 | 0x29BA      |       10682 |
|     269 | 0x29BB      |       10683 |
|     270 | 0x0064      |         100 |
|     271 | 0x29BC      |       10684 |
|     272 | 0xFFFF1D34  |  4294909236 |
|     273 | 0x87DD      |       34781 |
|     274 | 0x03F6      |        1014 |
|     275 | 0xFFFF1CF2  |  4294909170 |
|     276 | 0x9341      |       37697 |
|     277 | 0x03CB      |         971 |
|     278 | 0x00B4      |         180 |
|     279 | 0x0106      |         262 |
|     280 | 0x010A      |         266 |
|     281 | 0x29BD      |       10685 |
|     282 | 0x29BE      |       10686 |
|     283 | 0x29BF      |       10687 |
|     284 | 0x29C0      |       10688 |
|     285 | 0x29C1      |       10689 |
|     286 | 0x29C2      |       10690 |
|     287 | 0x29C3      |       10691 |
|     288 | 0x10EF      |        4335 |
|     289 | 0xFFFDB6AE  |  4294817454 |
|     290 | 0x2436      |        9270 |
|     291 | 0x21F7      |        8695 |
|     292 | 0xFFFDA169  |  4294812009 |
|     293 | 0x23D0      |        9168 |
|     294 | 0x02B0      |         688 |
|     295 | 0x1531      |        5425 |
|     296 | 0xFFFDC88D  |  4294822029 |
|     297 | 0x247A      |        9338 |
|     298 | 0x0369      |         873 |
|     299 | 0x0259      |         601 |
|     300 | 0xFFFDC419  |  4294820889 |
|     301 | 0x251B      |        9499 |
|     302 | 0x0420      |        1056 |
|     303 | 0x0A72      |        2674 |
|     304 | 0xFFFE047B  |  4294837371 |
|     305 | 0x038B      |         907 |
|     306 | 0x00FF      |         255 |
|     307 | 0x00E3      |         227 |
|     308 | 0x29C4      |       10692 |
|     309 | 0x29C5      |       10693 |
|     310 | 0x29C6      |       10694 |
|     311 | 0x0FF7      |        4087 |
|     312 | 0xFFFE1B1A  |  4294843162 |
|     313 | 0x23A2      |        9122 |
|     314 | 0x04F1      |        1265 |
|     315 | 0x0E6D      |        3693 |
|     316 | 0xFFFE3AD8  |  4294851288 |
|     317 | 0x23AF      |        9135 |
|     318 | 0x05F1      |        1521 |
|     319 | 0x0E16      |        3606 |
|     320 | 0xFFFE53F7  |  4294857719 |
|     321 | 0x236D      |        9069 |
|     322 | 0x0241      |         577 |
|     323 | 0xFFFDD9D7  |  4294826455 |
|     324 | 0x2615      |        9749 |
|     325 | 0xFFFFF505  |  4294964485 |
|     326 | 0xFFFDD6C5  |  4294825669 |
|     327 | 0x25F0      |        9712 |
|     328 | 0x097E      |        2430 |
|     329 | 0x0542      |        1346 |
|     330 | 0xFFFDCA8A  |  4294822538 |
|     331 | 0x251C      |        9500 |
|     332 | 0x0DE7      |        3559 |
|     333 | 0xFFFDCD27  |  4294823207 |
|     334 | 0x24D7      |        9431 |
|     335 | 0xFFFFFE70  |  4294966896 |
|     336 | 0x122B      |        4651 |
|     337 | 0xFFFDF3E6  |  4294833126 |
|     338 | 0x2508      |        9480 |
|     339 | 0x05F2      |        1522 |
|     340 | 0x29C7      |       10695 |
|     341 | 0x0B10      |        2832 |
|     342 | 0x00C7      |         199 |
|     343 | 0x29C8      |       10696 |
|     344 | 0x07D0      |        2000 |
|     345 | 0x29C9      |       10697 |
|     346 | 0x29CA      |       10698 |
|     347 | 0x29CB      |       10699 |
|     348 | 0x29CC      |       10700 |
|     349 | 0x29CD      |       10701 |
|     350 | 0x29CE      |       10702 |
|     351 | 0x29CF      |       10703 |
|     352 | 0x29D0      |       10704 |
|     353 | 0x29D1      |       10705 |
|     354 | 0x29D2      |       10706 |
|     355 | 0x29D3      |       10707 |
|     356 | 0xFFFFFE0C  |  4294966796 |
|     357 | 0x29D4      |       10708 |
|     358 | 0x29D5      |       10709 |
|     359 | 0x29D6      |       10710 |
|     360 | 0x29D7      |       10711 |
|     361 | 0x29D8      |       10712 |

## Events

### Event 65535

#### Metadata

| Field        | Value     |
|--------------|-----------|
| Entrypoint   | 0x0000    |
| Data Size    | 658 bytes |
| Instructions | 1         |

```
      00 01 02 03 04 05 06 07  08 09 0A 0B 0C 0D 0E 0F
      -- -- -- -- -- -- -- --  -- -- -- -- -- -- -- --
0000: 00 45 00 80 F0 FF FF 7F  F0 FF FF 7F 66 64 69 30  .E..........fdi0
0010: 01 80 55 00 80 F0 FF FF  7F F0 FF FF 7F 66 64 69  ..U..........fdi
0020: 30 1B 45 00 80 F0 FF FF  7F F0 FF FF 7F 66 64 6F  0.E..........fdo
0030: 30 01 80 55 00 80 F0 FF  FF 7F F0 FF FF 7F 66 64  0..U..........fd
0040: 6F 30 1B 45 00 80 F0 FF  FF 7F F0 FF FF 7F 66 64  o0.E..........fd
0050: 69 31 01 80 55 00 80 F0  FF FF 7F F0 FF FF 7F 66  i1..U..........f
0060: 64 69 31 1B 45 00 80 F0  FF FF 7F F0 FF FF 7F 66  di1.E..........f
0070: 64 6F 31 01 80 55 00 80  F0 FF FF 7F F0 FF FF 7F  do1..U..........
0080: 66 64 6F 31 1B 45 02 80  F0 FF FF 7F F0 FF FF 7F  fdo1.E..........
0090: 77 68 69 31 01 80 55 02  80 F0 FF FF 7F F0 FF FF  whi1..U.........
00A0: 7F 77 68 69 31 1B 45 02  80 F0 FF FF 7F F0 FF FF  .whi1.E.........
00B0: 7F 77 68 6F 31 01 80 55  02 80 F0 FF FF 7F F0 FF  .who1..U........
00C0: FF 7F 77 68 6F 31 1B 45  02 80 F0 FF FF 7F F0 FF  ..who1.E........
00D0: FF 7F 77 68 6F 32 01 80  55 02 80 F0 FF FF 7F F0  ..who2..U.......
00E0: FF FF 7F 77 68 6F 32 1B  45 02 80 F0 FF FF 7F F0  ...who2.E.......
00F0: FF FF 7F 77 68 6F 33 01  80 55 02 80 F0 FF FF 7F  ...who3..U......
0100: F0 FF FF 7F 77 68 6F 33  1B 62 03 80 F0 FF FF 7F  ....who3.b......
0110: F0 FF FF 7F 6D 61 69 6E  01 80 1C 04 80 45 00 80  ....main.....E..
0120: F0 FF FF 7F F0 FF FF 7F  66 64 6F 31 01 80 55 00  ........fdo1..U.
0130: 80 F0 FF FF 7F F0 FF FF  7F 66 64 6F 31 1B 45 00  .........fdo1.E.
0140: 80 F0 FF FF 7F F0 FF FF  7F 66 64 69 31 01 80 62  .........fdi1..b
0150: 05 80 F0 FF FF 7F F0 FF  FF 7F 6D 61 69 6E 01 80  ..........main..
0160: 1C 06 80 55 00 80 F0 FF  FF 7F F0 FF FF 7F 66 64  ...U..........fd
0170: 69 31 1B 45 00 80 F0 FF  FF 7F F0 FF FF 7F 62 6C  i1.E..........bl
0180: 6F 6E 01 80 45 02 80 F0  FF FF 7F F0 FF FF 7F 62  on..E..........b
0190: 6C 6F 6E 01 80 1B 45 02  80 F0 FF FF 7F F0 FF FF  lon...E.........
01A0: 7F 77 68 69 30 01 80 55  02 80 F0 FF FF 7F F0 FF  .whi0..U........
01B0: FF 7F 77 68 69 30 1B 45  02 80 F0 FF FF 7F F0 FF  ..whi0.E........
01C0: FF 7F 77 68 6F 30 01 80  55 02 80 F0 FF FF 7F F0  ..who0..U.......
01D0: FF FF 7F 77 68 6F 30 1B  45 07 80 F0 FF FF 7F F0  ...who0.E.......
01E0: FF FF 7F 65 66 6F 6E 01  80 55 07 80 F0 FF FF 7F  ...efon..U......
01F0: F0 FF FF 7F 65 66 6F 6E  1B 45 00 80 F0 FF FF 7F  ....efon.E......
0200: F0 FF FF 7F 66 64 69 73  01 80 1B 45 00 80 F0 FF  ....fdis...E....
0210: FF 7F F0 FF FF 7F 66 64  6F 73 01 80 55 00 80 F0  ......fdos..U...
0220: FF FF 7F F0 FF FF 7F 66  64 6F 73 1B 45 00 80 F0  .......fdos.E...
0230: FF FF 7F F0 FF FF 7F 66  64 69 66 01 80 1B 45 00  .......fdif...E.
0240: 80 F0 FF FF 7F F0 FF FF  7F 66 64 6F 66 01 80 55  .........fdof..U
0250: 00 80 F0 FF FF 7F F0 FF  FF 7F 66 64 6F 66 1B 45  ..........fdof.E
0260: 00 80 F0 FF FF 7F F0 FF  FF 7F 66 64 69 70 01 80  ..........fdip..
0270: 1B 45 00 80 F0 FF FF 7F  F0 FF FF 7F 66 64 6F 70  .E..........fdop
0280: 01 80 55 00 80 F0 FF FF  7F F0 FF FF 7F 66 64 6F  ..U..........fdo
0290: 70 1B                                             p.              
```

#### Opcodes

```
  0: 0x0000 [0x00] END_REQSTACK()
```

#### Data or dead code:

```
# Dead code (unreachable instructions):
     0x0001 [0x45] LOAD_SCHEDULED_TASK: Load scheduler "fdi0" with entities [LocalPlayer, LocalPlayer], work=[200*, 0*]
     0x0012 [0x55] WAIT_LOAD_SCHEDULER: Wait for scheduler "fdi0" with entities [LocalPlayer, LocalPlayer], work=200*
     0x0021 [0x1B] RETURN
     0x0022 [0x45] LOAD_SCHEDULED_TASK: Load scheduler "fdo0" with entities [LocalPlayer, LocalPlayer], work=[200*, 0*]
     0x0033 [0x55] WAIT_LOAD_SCHEDULER: Wait for scheduler "fdo0" with entities [LocalPlayer, LocalPlayer], work=200*
     0x0042 [0x1B] RETURN
     0x0043 [0x45] LOAD_SCHEDULED_TASK: Load scheduler "fdi1" with entities [LocalPlayer, LocalPlayer], work=[200*, 0*]
     0x0054 [0x55] WAIT_LOAD_SCHEDULER: Wait for scheduler "fdi1" with entities [LocalPlayer, LocalPlayer], work=200*
     0x0063 [0x1B] RETURN
     0x0064 [0x45] LOAD_SCHEDULED_TASK: Load scheduler "fdo1" with entities [LocalPlayer, LocalPlayer], work=[200*, 0*]
     0x0075 [0x55] WAIT_LOAD_SCHEDULER: Wait for scheduler "fdo1" with entities [LocalPlayer, LocalPlayer], work=200*
     0x0084 [0x1B] RETURN
     0x0085 [0x45] LOAD_SCHEDULED_TASK: Load scheduler "whi1" with entities [LocalPlayer, LocalPlayer], work=[201*, 0*]
     0x0096 [0x55] WAIT_LOAD_SCHEDULER: Wait for scheduler "whi1" with entities [LocalPlayer, LocalPlayer], work=201*
     0x00A5 [0x1B] RETURN
     0x00A6 [0x45] LOAD_SCHEDULED_TASK: Load scheduler "who1" with entities [LocalPlayer, LocalPlayer], work=[201*, 0*]
     0x00B7 [0x55] WAIT_LOAD_SCHEDULER: Wait for scheduler "who1" with entities [LocalPlayer, LocalPlayer], work=201*
     0x00C6 [0x1B] RETURN
     0x00C7 [0x45] LOAD_SCHEDULED_TASK: Load scheduler "who2" with entities [LocalPlayer, LocalPlayer], work=[201*, 0*]
     0x00D8 [0x55] WAIT_LOAD_SCHEDULER: Wait for scheduler "who2" with entities [LocalPlayer, LocalPlayer], work=201*
     0x00E7 [0x1B] RETURN
     0x00E8 [0x45] LOAD_SCHEDULED_TASK: Load scheduler "who3" with entities [LocalPlayer, LocalPlayer], work=[201*, 0*]
     0x00F9 [0x55] WAIT_LOAD_SCHEDULER: Wait for scheduler "who3" with entities [LocalPlayer, LocalPlayer], work=201*
     0x0108 [0x1B] RETURN
     0x0109 [0x62] LOAD_EVENT_SCHEDULER: Load scheduler "main" with entities [LocalPlayer, LocalPlayer], work=[1*, 0*]
     0x011A [0x1C] WAIT(45* ticks)
     0x011D [0x45] LOAD_SCHEDULED_TASK: Load scheduler "fdo1" with entities [LocalPlayer, LocalPlayer], work=[200*, 0*]
     0x012E [0x55] WAIT_LOAD_SCHEDULER: Wait for scheduler "fdo1" with entities [LocalPlayer, LocalPlayer], work=200*
     0x013D [0x1B] RETURN
     0x013E [0x45] LOAD_SCHEDULED_TASK: Load scheduler "fdi1" with entities [LocalPlayer, LocalPlayer], work=[200*, 0*]
     0x014F [0x62] LOAD_EVENT_SCHEDULER: Load scheduler "main" with entities [LocalPlayer, LocalPlayer], work=[2*, 0*]
     0x0160 [0x1C] WAIT(30* ticks)
     0x0163 [0x55] WAIT_LOAD_SCHEDULER: Wait for scheduler "fdi1" with entities [LocalPlayer, LocalPlayer], work=200*
     0x0172 [0x1B] RETURN
     0x0173 [0x45] LOAD_SCHEDULED_TASK: Load scheduler "blon" with entities [LocalPlayer, LocalPlayer], work=[200*, 0*]
     0x0184 [0x45] LOAD_SCHEDULED_TASK: Load scheduler "blon" with entities [LocalPlayer, LocalPlayer], work=[201*, 0*]
     0x0195 [0x1B] RETURN
     0x0196 [0x45] LOAD_SCHEDULED_TASK: Load scheduler "whi0" with entities [LocalPlayer, LocalPlayer], work=[201*, 0*]
     0x01A7 [0x55] WAIT_LOAD_SCHEDULER: Wait for scheduler "whi0" with entities [LocalPlayer, LocalPlayer], work=201*
     0x01B6 [0x1B] RETURN
     0x01B7 [0x45] LOAD_SCHEDULED_TASK: Load scheduler "who0" with entities [LocalPlayer, LocalPlayer], work=[201*, 0*]
     0x01C8 [0x55] WAIT_LOAD_SCHEDULER: Wait for scheduler "who0" with entities [LocalPlayer, LocalPlayer], work=201*
     0x01D7 [0x1B] RETURN
     0x01D8 [0x45] LOAD_SCHEDULED_TASK: Load scheduler "efon" with entities [LocalPlayer, LocalPlayer], work=[215*, 0*]
     0x01E9 [0x55] WAIT_LOAD_SCHEDULER: Wait for scheduler "efon" with entities [LocalPlayer, LocalPlayer], work=215*
     0x01F8 [0x1B] RETURN
     0x01F9 [0x45] LOAD_SCHEDULED_TASK: Load scheduler "fdis" with entities [LocalPlayer, LocalPlayer], work=[200*, 0*]
     0x020A [0x1B] RETURN
     0x020B [0x45] LOAD_SCHEDULED_TASK: Load scheduler "fdos" with entities [LocalPlayer, LocalPlayer], work=[200*, 0*]
     0x021C [0x55] WAIT_LOAD_SCHEDULER: Wait for scheduler "fdos" with entities [LocalPlayer, LocalPlayer], work=200*
     0x022B [0x1B] RETURN
     0x022C [0x45] LOAD_SCHEDULED_TASK: Load scheduler "fdif" with entities [LocalPlayer, LocalPlayer], work=[200*, 0*]
     0x023D [0x1B] RETURN
     0x023E [0x45] LOAD_SCHEDULED_TASK: Load scheduler "fdof" with entities [LocalPlayer, LocalPlayer], work=[200*, 0*]
     0x024F [0x55] WAIT_LOAD_SCHEDULER: Wait for scheduler "fdof" with entities [LocalPlayer, LocalPlayer], work=200*
     0x025E [0x1B] RETURN
     0x025F [0x45] LOAD_SCHEDULED_TASK: Load scheduler "fdip" with entities [LocalPlayer, LocalPlayer], work=[200*, 0*]
     0x0270 [0x1B] RETURN
     0x0271 [0x45] LOAD_SCHEDULED_TASK: Load scheduler "fdop" with entities [LocalPlayer, LocalPlayer], work=[200*, 0*]
     0x0282 [0x55] WAIT_LOAD_SCHEDULER: Wait for scheduler "fdop" with entities [LocalPlayer, LocalPlayer], work=200*
     0x0291 [0x1B] RETURN
```

### Event 220

#### Metadata

| Field        | Value      |
|--------------|------------|
| Entrypoint   | 0x0292     |
| Data Size    | 1835 bytes |
| Instructions | 231        |

```
      00 01 02 03 04 05 06 07  08 09 0A 0B 0C 0D 0E 0F
      -- -- -- -- -- -- -- --  -- -- -- -- -- -- -- --
0290:       42 1A 64 00 46 01  38 08 80 5D 01 80 09 80    B.d.F.8..]....
02A0: 2F 00 83 C0 0A 01 4E 00  83 C0 0A 01 4E 00 F0 FF  /.....N.....N...
02B0: FF 7F 94 01 83 C0 0A 01  94 01 F0 FF FF 7F 29 10  ..............).
02C0: 83 C0 0A 01 03 BA 83 C0  0A 01 0A 80 0B 80 01 80  ................
02D0: 0C 80 29 10 83 C0 0A 01  03 BA F0 FF FF 7F 0D 80  ..).............
02E0: 0E 80 01 80 0F 80 80 83  C0 0A 01 80 F0 FF FF 7F  ................
02F0: 5C 00 10 80 5C 01 10 80  9A 5D 10 80 03 80 29 0F  \...\....]....).
0300: F0 FF FF 7F 11 5B 11 80  83 C0 0A 01 83 C0 0A 01  .....[..........
0310: 74 68 6B 31 53 83 C0 0A  01 83 C0 0A 01 74 68 6B  thk1S........thk
0320: 31 02 09 10 12 80 00 3D  03 45 13 80 F8 FF FF 7F  1......=.E......
0330: F8 FF FF 7F 73 30 37 38  01 80 01 6A 03 02 09 10  ....s078...j....
0340: 14 80 00 59 03 45 13 80  F8 FF FF 7F F8 FF FF 7F  ...Y.E..........
0350: 73 30 37 38 01 80 01 6A  03 45 13 80 F8 FF FF 7F  s078...j.E......
0360: F8 FF FF 7F 73 30 30 31  01 80 02 09 10 15 80 00  ....s001........
0370: 7C 03 27 0F F0 FF FF 7F  10 01 A7 03 02 09 10 16  |.'.............
0380: 80 00 8E 03 27 0F F0 FF  FF 7F 10 01 A7 03 02 09  ....'...........
0390: 10 17 80 00 A0 03 27 0F  F0 FF FF 7F 10 01 A7 03  ......'.........
03A0: 27 0F F0 FF FF 7F 0F 1A  43 00 1C 18 80 1C 06 80  '.......C.......
03B0: 79 00 F0 FF FF 7F 83 C0  0A 01 1C 06 80 5B 11 80  y............[..
03C0: 83 C0 0A 01 83 C0 0A 01  74 68 6B 32 02 09 10 12  ........thk2....
03D0: 80 00 E6 03 52 13 80 F8  FF FF 7F F8 FF FF 7F 73  ....R..........s
03E0: 30 37 38 01 0F 04 02 09  10 14 80 00 00 04 52 13  078...........R.
03F0: 80 F8 FF FF 7F F8 FF FF  7F 73 30 37 38 01 0F 04  .........s078...
0400: 52 13 80 F8 FF FF 7F F8  FF FF 7F 73 30 30 31 45  R..........s001E
0410: 13 80 F8 FF FF 7F F8 FF  FF 7F 73 30 30 32 01 80  ..........s002..
0420: 53 83 C0 0A 01 83 C0 0A  01 74 68 6B 32 79 00 83  S........thk2y..
0430: C0 0A 01 F0 FF FF 7F 1C  19 80 1C 06 80 4A 83 C0  .............J..
0440: 0A 01 F0 FF FF 7F 6F 76  83 C0 0A 01 2B 83 C0 0A  ......ov....+...
0450: 01 1A 80 23 27 0F 83 C0  0A 01 04 1C 19 80 7B 83  ...#'.........{.
0460: C0 0A 01 52 13 80 F8 FF  FF 7F F8 FF FF 7F 73 30  ...R..........s0
0470: 30 32 02 09 10 12 80 00  8E 04 45 13 80 F8 FF FF  02........E.....
0480: 7F F8 FF FF 7F 73 30 31  30 01 80 01 BB 04 02 09  .....s010.......
0490: 10 14 80 00 AA 04 45 13  80 F8 FF FF 7F F8 FF FF  ......E.........
04A0: 7F 73 30 31 30 01 80 01  BB 04 45 13 80 F8 FF FF  .s010.....E.....
04B0: 7F F8 FF FF 7F 73 30 30  30 01 80 7B 83 C0 0A 01  .....s000..{....
04C0: 2B 83 C0 0A 01 1B 80 23  2A 0F 83 C0 0A 01 02 09  +......#*.......
04D0: 10 15 80 00 DF 04 2A 0F  F0 FF FF 7F 01 07 05 02  ......*.........
04E0: 09 10 16 80 00 F0 04 2A  0F F0 FF FF 7F 01 07 05  .......*........
04F0: 02 09 10 17 80 00 01 05  2A 0F F0 FF FF 7F 01 07  ........*.......
0500: 05 2A 0F F0 FF FF 7F 1A  64 00 1C 1C 80 02 09 10  .*......d.......
0510: 12 80 00 27 05 52 13 80  F8 FF FF 7F F8 FF FF 7F  ...'.R..........
0520: 73 30 31 30 01 50 05 02  09 10 14 80 00 41 05 52  s010.P.......A.R
0530: 13 80 F8 FF FF 7F F8 FF  FF 7F 73 30 31 30 01 50  ..........s010.P
0540: 05 52 13 80 F8 FF FF 7F  F8 FF FF 7F 73 30 30 30  .R..........s000
0550: 02 09 10 15 80 00 68 05  BA F0 FF FF 7F 1D 80 1E  ......h.........
0560: 80 1F 80 20 80 01 93 05  02 09 10 17 80 00 80 05  ... ............
0570: BA F0 FF FF 7F 21 80 22  80 1F 80 23 80 01 93 05  .....!."...#....
0580: BA F0 FF FF 7F 24 80 25  80 1F 80 20 80 4E 01 F0  .....$.%... .N..
0590: FF FF 7F 4B 83 C0 0A 01  26 80 6F 76 83 C0 0A 01  ...K....&.ov....
05A0: 7B 83 C0 0A 01 5B 27 80  83 C0 0A 01 83 C0 0A 01  {....['.........
05B0: 75 74 75 30 53 83 C0 0A  01 83 C0 0A 01 75 74 75  utu0S........utu
05C0: 30 45 13 80 F8 FF FF 7F  F8 FF FF 7F 73 30 30 33  0E..........s003
05D0: 01 80 1A 43 00 2B 83 C0  0A 01 28 80 23 52 13 80  ...C.+....(.#R..
05E0: F8 FF FF 7F F8 FF FF 7F  73 30 30 33 02 09 10 15  ........s003....
05F0: 80 00 08 06 45 13 80 F8  FF FF 7F F8 FF FF 7F 73  ....E..........s
0600: 30 37 36 01 80 01 88 06  02 09 10 12 80 00 2D 06  076...........-.
0610: 45 13 80 F8 FF FF 7F F8  FF FF 7F 73 30 31 31 01  E..........s011.
0620: 80 1C 03 80 4E 00 F0 FF  FF 7F 01 88 06 02 09 10  ....N...........
0630: 14 80 00 52 06 45 13 80  F8 FF FF 7F F8 FF FF 7F  ...R.E..........
0640: 73 30 31 31 01 80 1C 03  80 4E 00 F0 FF FF 7F 01  s011.....N......
0650: 88 06 02 09 10 17 80 00  6E 06 45 13 80 F8 FF FF  ........n.E.....
0660: 7F F8 FF FF 7F 73 30 30  38 01 80 01 88 06 45 13  .....s008.....E.
0670: 80 F8 FF FF 7F F8 FF FF  7F 73 30 30 34 01 80 1C  .........s004...
0680: 03 80 4E 00 F0 FF FF 7F  5B 27 80 83 C0 0A 01 83  ..N.....['......
0690: C0 0A 01 75 74 75 31 53  83 C0 0A 01 83 C0 0A 01  ...utu1S........
06A0: 75 74 75 31 79 00 83 C0  0A 01 F0 FF FF 7F 2B 83  utu1y.........+.
06B0: C0 0A 01 29 80 5B 11 80  83 C0 0A 01 83 C0 0A 01  ...).[..........
06C0: 74 6C 61 30 23 53 83 C0  0A 01 83 C0 0A 01 74 6C  tla0#S........tl
06D0: 61 30 5B 11 80 83 C0 0A  01 83 C0 0A 01 74 6C 61  a0[..........tla
06E0: 31 2B 83 C0 0A 01 2A 80  23 53 83 C0 0A 01 83 C0  1+....*.#S......
06F0: 0A 01 74 6C 61 31 5B 08  80 83 C0 0A 01 83 C0 0A  ..tla1[.........
0700: 01 74 6C 62 30 2B 83 C0  0A 01 2B 80 23 53 83 C0  .tlb0+....+.#S..
0710: 0A 01 83 C0 0A 01 74 6C  62 30 5B 08 80 83 C0 0A  ......tlb0[.....
0720: 01 83 C0 0A 01 74 6C 62  31 53 83 C0 0A 01 83 C0  .....tlb1S......
0730: 0A 01 74 6C 62 31 02 09  10 15 80 00 50 07 52 13  ..tlb1......P.R.
0740: 80 F8 FF FF 7F F8 FF FF  7F 73 30 37 36 01 AD 07  .........s076...
0750: 02 09 10 12 80 00 6A 07  52 13 80 F8 FF FF 7F F8  ......j.R.......
0760: FF FF 7F 73 30 31 31 01  AD 07 02 09 10 14 80 00  ...s011.........
0770: 84 07 52 13 80 F8 FF FF  7F F8 FF FF 7F 73 30 31  ..R..........s01
0780: 31 01 AD 07 02 09 10 17  80 00 9E 07 52 13 80 F8  1...........R...
0790: FF FF 7F F8 FF FF 7F 73  30 30 38 01 AD 07 52 13  .......s008...R.
07A0: 80 F8 FF FF 7F F8 FF FF  7F 73 30 30 34 45 13 80  .........s004E..
07B0: F8 FF FF 7F F8 FF FF 7F  73 30 30 37 01 80 7B 83  ........s007..{.
07C0: C0 0A 01 2B 83 C0 0A 01  2C 80 5B 11 80 83 C0 0A  ...+....,.[.....
07D0: 01 83 C0 0A 01 74 68 6B  30 53 83 C0 0A 01 83 C0  .....thk0S......
07E0: 0A 01 74 68 6B 30 23 2B  83 C0 0A 01 2D 80 23 52  ..thk0#+....-.#R
07F0: 13 80 F8 FF FF 7F F8 FF  FF 7F 73 30 30 37 02 09  ..........s007..
0800: 10 15 80 00 1A 08 45 13  80 F8 FF FF 7F F8 FF FF  ......E.........
0810: 7F 73 30 37 37 01 80 01  7F 08 02 09 10 12 80 00  .s077...........
0820: 36 08 45 13 80 F8 FF FF  7F F8 FF FF 7F 73 30 31  6.E..........s01
0830: 32 01 80 01 7F 08 02 09  10 14 80 00 52 08 45 13  2...........R.E.
0840: 80 F8 FF FF 7F F8 FF FF  7F 73 30 31 32 01 80 01  .........s012...
0850: 7F 08 02 09 10 17 80 00  6E 08 45 13 80 F8 FF FF  ........n.E.....
0860: 7F F8 FF FF 7F 73 30 30  39 01 80 01 7F 08 45 13  .....s009.....E.
0870: 80 F8 FF FF 7F F8 FF FF  7F 73 30 30 36 01 80 79  .........s006..y
0880: 00 83 C0 0A 01 F0 FF FF  7F 5B 11 80 83 C0 0A 01  .........[......
0890: 83 C0 0A 01 74 6C 61 32  2B 83 C0 0A 01 2E 80 23  ....tla2+......#
08A0: 53 83 C0 0A 01 83 C0 0A  01 74 6C 61 32 02 09 10  S........tla2...
08B0: 15 80 00 C7 08 52 13 80  F8 FF FF 7F F8 FF FF 7F  .....R..........
08C0: 73 30 37 37 01 24 09 02  09 10 12 80 00 E1 08 52  s077.$.........R
08D0: 13 80 F8 FF FF 7F F8 FF  FF 7F 73 30 31 32 01 24  ..........s012.$
08E0: 09 02 09 10 14 80 00 FB  08 52 13 80 F8 FF FF 7F  .........R......
08F0: F8 FF FF 7F 73 30 31 32  01 24 09 02 09 10 17 80  ....s012.$......
0900: 00 15 09 52 13 80 F8 FF  FF 7F F8 FF FF 7F 73 30  ...R..........s0
0910: 30 39 01 24 09 52 13 80  F8 FF FF 7F F8 FF FF 7F  09.$.R..........
0920: 73 30 30 36 45 13 80 F8  FF FF 7F F8 FF FF 7F 73  s006E..........s
0930: 30 30 35 01 80 5B 11 80  83 C0 0A 01 83 C0 0A 01  005..[..........
0940: 77 61 76 30 53 83 C0 0A  01 83 C0 0A 01 77 61 76  wav0S........wav
0950: 30 5D 01 80 2F 80 7B 83  C0 0A 01 1C 12 80 27 0F  0]../.{.......'.
0960: 83 C0 0A 01 06 1C 06 80  1C 06 80 4B F0 FF FF 7F  ...........K....
0970: 30 80 6F 76 F0 FF FF 7F  1A 64 00 1C 18 80 52 13  0.ov.....d....R.
0980: 80 F8 FF FF 7F F8 FF FF  7F 73 30 30 35 2A 0F 83  .........s005*..
0990: C0 0A 01 5C 00 01 80 5C  01 01 80 9A 5D 10 80 03  ...\...\....]...
09A0: 80 AB 11 01 80 1C 03 80  46 00 45 00 80 F8 FF FF  ........F.E.....
09B0: 7F F8 FF FF 7F 66 64 69  32 01 80 21 00           .....fdi2..!.   
```

#### Opcodes

```
  0: 0x0292 [0x42] SET_CLI_EVENT_CANCEL_DATA()
  1: 0x0293 [0x1A] CALL_SUBROUTINE(address=0x0064)
  2: 0x0296 [0x46] CAMERA_CONTROL: Disable user control
  3: 0x0298 [0x38] SET_CLIENT_EVENT_MODE(mode=147*)
  4: 0x029B [0x5D] SET_MUSIC_VOLUME(volume=0*, fade_time=300*)
  5: 0x02A0 [0x2F] Cornelia (ID: 17481859/0x010AC083)->Render.Flags0 &= ~0x80000 // Bit 19
  6: 0x02A6 [0x4E] SET_ENTITY_HIDE_FLAG: Show Cornelia (ID: 17481859/0x010AC083)
  7: 0x02AC [0x4E] SET_ENTITY_HIDE_FLAG: Show LocalPlayer
  8: 0x02B2 [0x94] Cornelia (ID: 17481859/0x010AC083)->Render.Flags3 ^= 0x01
  9: 0x02B8 [0x94] LocalPlayer->Render.Flags3 ^= 0x01
 10: 0x02BE [0x29] REQ_SET_WAIT(priority=0x10, entity_id=Cornelia (ID: 17481859/0x010AC083), tag_num=0x03)
 11: 0x02C5 [0xBA] SET_ENTITY_POSITION(entity_id=Cornelia (ID: 17481859/0x010AC083), pos_x=-28.398*, pos_z=3.529*, pos_y=0.000*, direction=295.7°*)
 12: 0x02D2 [0x29] REQ_SET_WAIT(priority=0x10, entity_id=Cornelia (ID: 17481859/0x010AC083), tag_num=0x03)
 13: 0x02D9 [0xBA] SET_ENTITY_POSITION(entity_id=LocalPlayer, pos_x=-14.923*, pos_z=4.219*, pos_y=0.000*, direction=185.7°*)
 14: 0x02E6 [0x80] LOAD_WAIT(entity=Cornelia (ID: 17481859/0x010AC083))
 15: 0x02EB [0x80] LOAD_WAIT(entity=LocalPlayer)
 16: 0x02F0 [0x5C] MUSIC_CONTROL: Set Idle (Day) music to song 127*
 17: 0x02F4 [0x5C] MUSIC_CONTROL: Set Idle (Night) music to song 127*
 18: 0x02F8 [0x9A] WAIT_MUSIC_SERVER()
 19: 0x02F9 [0x5D] SET_MUSIC_VOLUME(volume=127*, fade_time=1*)
 20: 0x02FE [0x29] REQ_SET_WAIT(priority=0x0F, entity_id=LocalPlayer, tag_num=0x11)
 21: 0x0305 [0x5B] LOAD_EXT_SCHEDULER: Load scheduler "thk1" with entities [Cornelia (ID: 17481859/0x010AC083), Cornelia (ID: 17481859/0x010AC083)], work=145*
 22: 0x0314 [0x53] WAIT_SCHEDULER_TASK: Wait for scheduler "thk1" with entities [Cornelia (ID: 17481859/0x010AC083), Cornelia (ID: 17481859/0x010AC083)]
 23: 0x0321 [0x02] IF !(Work_Zone[9] == 5*) GOTO 0x033D
 24: 0x0329 [0x45] LOAD_SCHEDULED_TASK: Load scheduler "s078" with entities [EventEntity, EventEntity], work=[830*, 0*]
 25: 0x033A [0x01] GOTO 0x036A
 26: 0x033D [0x02] IF !(Work_Zone[9] == 6*) GOTO 0x0359
 27: 0x0345 [0x45] LOAD_SCHEDULED_TASK: Load scheduler "s078" with entities [EventEntity, EventEntity], work=[830*, 0*]
 28: 0x0356 [0x01] GOTO 0x036A
 29: 0x0359 [0x45] LOAD_SCHEDULED_TASK: Load scheduler "s001" with entities [EventEntity, EventEntity], work=[830*, 0*]

SUBROUTINE_036A:
 30: 0x036A [0x02] IF !(Work_Zone[9] == 3*) GOTO 0x037C
 31: 0x0372 [0x27] REQ_SET(priority=0x0F, entity_id=LocalPlayer, tag_num=0x10)
 32: 0x0379 [0x01] GOTO 0x03A7
 33: 0x037C [0x02] IF !(Work_Zone[9] == 4*) GOTO 0x038E
 34: 0x0384 [0x27] REQ_SET(priority=0x0F, entity_id=LocalPlayer, tag_num=0x10)
 35: 0x038B [0x01] GOTO 0x03A7
 36: 0x038E [0x02] IF !(Work_Zone[9] == 8*) GOTO 0x03A0
 37: 0x0396 [0x27] REQ_SET(priority=0x0F, entity_id=LocalPlayer, tag_num=0x10)
 38: 0x039D [0x01] GOTO 0x03A7
 39: 0x03A0 [0x27] REQ_SET(priority=0x0F, entity_id=LocalPlayer, tag_num=0x0F)

SUBROUTINE_03A7:
 40: 0x03A7 [0x1A] CALL_SUBROUTINE(address=0x0043)
 41: 0x03AA [0x1C] WAIT(15* ticks)
 42: 0x03AD [0x1C] WAIT(30* ticks)
 43: 0x03B0 [0x79] LocalPlayer looks at Cornelia (ID: 17481859/0x010AC083) (Basic look)
 44: 0x03BA [0x1C] WAIT(30* ticks)
 45: 0x03BD [0x5B] LOAD_EXT_SCHEDULER: Load scheduler "thk2" with entities [Cornelia (ID: 17481859/0x010AC083), Cornelia (ID: 17481859/0x010AC083)], work=145*
 46: 0x03CC [0x02] IF !(Work_Zone[9] == 5*) GOTO 0x03E6
 47: 0x03D4 [0x52] END_LOAD_SCHEDULER: End scheduler "s078" with entities [EventEntity, EventEntity], work=830*
 48: 0x03E3 [0x01] GOTO 0x040F
 49: 0x03E6 [0x02] IF !(Work_Zone[9] == 6*) GOTO 0x0400
 50: 0x03EE [0x52] END_LOAD_SCHEDULER: End scheduler "s078" with entities [EventEntity, EventEntity], work=830*
 51: 0x03FD [0x01] GOTO 0x040F
 52: 0x0400 [0x52] END_LOAD_SCHEDULER: End scheduler "s001" with entities [EventEntity, EventEntity], work=830*

SUBROUTINE_040F:
 53: 0x040F [0x45] LOAD_SCHEDULED_TASK: Load scheduler "s002" with entities [EventEntity, EventEntity], work=[830*, 0*]
 54: 0x0420 [0x53] WAIT_SCHEDULER_TASK: Wait for scheduler "thk2" with entities [Cornelia (ID: 17481859/0x010AC083), Cornelia (ID: 17481859/0x010AC083)]
 55: 0x042D [0x79] Cornelia (ID: 17481859/0x010AC083) looks at LocalPlayer (Basic look)
 56: 0x0437 [0x1C] WAIT(10* ticks)
 57: 0x043A [0x1C] WAIT(30* ticks)
 58: 0x043D [0x4A] Cornelia (ID: 17481859/0x010AC083) looks at LocalPlayer
 59: 0x0446 [0x6F] WAIT_FRAME_DELAY: Yield until WaitTime reaches zero
 60: 0x0447 [0x76] CHECK_ENTITY_RENDER_FLAGS: Wait until Cornelia (ID: 17481859/0x010AC083) Render.Flags0 and Render.Flags3 conditions are met
 61: 0x044C [0x2B] Cornelia (ID: 17481859/0x010AC083) [10621*]:
    → "Ah, look who it is."
 62: 0x0453 [0x23] WAIT_FOR_DIALOG_INTERACTION
 63: 0x0454 [0x27] REQ_SET(priority=0x0F, entity_id=Cornelia (ID: 17481859/0x010AC083), tag_num=0x04)
 64: 0x045B [0x1C] WAIT(10* ticks)
 65: 0x045E [0x7B] Cornelia (ID: 17481859/0x010AC083) stops talking
 66: 0x0463 [0x52] END_LOAD_SCHEDULER: End scheduler "s002" with entities [EventEntity, EventEntity], work=830*
 67: 0x0472 [0x02] IF !(Work_Zone[9] == 5*) GOTO 0x048E
 68: 0x047A [0x45] LOAD_SCHEDULED_TASK: Load scheduler "s010" with entities [EventEntity, EventEntity], work=[830*, 0*]
 69: 0x048B [0x01] GOTO 0x04BB
 70: 0x048E [0x02] IF !(Work_Zone[9] == 6*) GOTO 0x04AA
 71: 0x0496 [0x45] LOAD_SCHEDULED_TASK: Load scheduler "s010" with entities [EventEntity, EventEntity], work=[830*, 0*]
 72: 0x04A7 [0x01] GOTO 0x04BB
 73: 0x04AA [0x45] LOAD_SCHEDULED_TASK: Load scheduler "s000" with entities [EventEntity, EventEntity], work=[830*, 0*]

SUBROUTINE_04BB:
 74: 0x04BB [0x7B] Cornelia (ID: 17481859/0x010AC083) stops talking
 75: 0x04C0 [0x2B] Cornelia (ID: 17481859/0x010AC083) [10622*]:
    → "You must be concerned about the Galkan child too."
 76: 0x04C7 [0x23] WAIT_FOR_DIALOG_INTERACTION
 77: 0x04C8 [0x2A] GET_REQ_LEVEL(level=15, entity_id=Cornelia (ID: 17481859/0x010AC083))
 78: 0x04CE [0x02] IF !(Work_Zone[9] == 3*) GOTO 0x04DF
 79: 0x04D6 [0x2A] GET_REQ_LEVEL(level=15, entity_id=LocalPlayer)
 80: 0x04DC [0x01] GOTO 0x0507
 81: 0x04DF [0x02] IF !(Work_Zone[9] == 4*) GOTO 0x04F0
 82: 0x04E7 [0x2A] GET_REQ_LEVEL(level=15, entity_id=LocalPlayer)
 83: 0x04ED [0x01] GOTO 0x0507
 84: 0x04F0 [0x02] IF !(Work_Zone[9] == 8*) GOTO 0x0501
 85: 0x04F8 [0x2A] GET_REQ_LEVEL(level=15, entity_id=LocalPlayer)
 86: 0x04FE [0x01] GOTO 0x0507
 87: 0x0501 [0x2A] GET_REQ_LEVEL(level=15, entity_id=LocalPlayer)

SUBROUTINE_0507:
 88: 0x0507 [0x1A] CALL_SUBROUTINE(address=0x0064)
 89: 0x050A [0x1C] WAIT(90* ticks)
 90: 0x050D [0x02] IF !(Work_Zone[9] == 5*) GOTO 0x0527
 91: 0x0515 [0x52] END_LOAD_SCHEDULER: End scheduler "s010" with entities [EventEntity, EventEntity], work=830*
 92: 0x0524 [0x01] GOTO 0x0550
 93: 0x0527 [0x02] IF !(Work_Zone[9] == 6*) GOTO 0x0541
 94: 0x052F [0x52] END_LOAD_SCHEDULER: End scheduler "s010" with entities [EventEntity, EventEntity], work=830*
 95: 0x053E [0x01] GOTO 0x0550
 96: 0x0541 [0x52] END_LOAD_SCHEDULER: End scheduler "s000" with entities [EventEntity, EventEntity], work=830*

SUBROUTINE_0550:
 97: 0x0550 [0x02] IF !(Work_Zone[9] == 3*) GOTO 0x0568
 98: 0x0558 [0xBA] SET_ENTITY_POSITION(entity_id=LocalPlayer, pos_x=-26.960*, pos_z=4.130*, pos_y=0.012*, direction=167.0°*)
 99: 0x0565 [0x01] GOTO 0x0593
100: 0x0568 [0x02] IF !(Work_Zone[9] == 8*) GOTO 0x0580
101: 0x0570 [0xBA] SET_ENTITY_POSITION(entity_id=LocalPlayer, pos_x=-26.994*, pos_z=4.800*, pos_y=0.012*, direction=131.8°*)
102: 0x057D [0x01] GOTO 0x0593
103: 0x0580 [0xBA] SET_ENTITY_POSITION(entity_id=LocalPlayer, pos_x=-27.295*, pos_z=4.171*, pos_y=0.012*, direction=167.0°*)
104: 0x058D [0x4E] SET_ENTITY_HIDE_FLAG: Hide LocalPlayer

SUBROUTINE_0593:
105: 0x0593 [0x4B] UPDATE_ENTITY_YAW(entity=Cornelia (ID: 17481859/0x010AC083), yaw=20.3°*)
106: 0x059A [0x6F] WAIT_FRAME_DELAY: Yield until WaitTime reaches zero
107: 0x059B [0x76] CHECK_ENTITY_RENDER_FLAGS: Wait until Cornelia (ID: 17481859/0x010AC083) Render.Flags0 and Render.Flags3 conditions are met
108: 0x05A0 [0x7B] Cornelia (ID: 17481859/0x010AC083) stops talking
109: 0x05A5 [0x5B] LOAD_EXT_SCHEDULER: Load scheduler "utu0" with entities [Cornelia (ID: 17481859/0x010AC083), Cornelia (ID: 17481859/0x010AC083)], work=148*
110: 0x05B4 [0x53] WAIT_SCHEDULER_TASK: Wait for scheduler "utu0" with entities [Cornelia (ID: 17481859/0x010AC083), Cornelia (ID: 17481859/0x010AC083)]
111: 0x05C1 [0x45] LOAD_SCHEDULED_TASK: Load scheduler "s003" with entities [EventEntity, EventEntity], work=[830*, 0*]
112: 0x05D2 [0x1A] CALL_SUBROUTINE(address=0x0043)
113: 0x05D5 [0x2B] Cornelia (ID: 17481859/0x010AC083) [10623*]:
    → "Of course. I should have known Gumbah would worry about me."
114: 0x05DC [0x23] WAIT_FOR_DIALOG_INTERACTION
115: 0x05DD [0x52] END_LOAD_SCHEDULER: End scheduler "s003" with entities [EventEntity, EventEntity], work=830*
116: 0x05EC [0x02] IF !(Work_Zone[9] == 3*) GOTO 0x0608
117: 0x05F4 [0x45] LOAD_SCHEDULED_TASK: Load scheduler "s076" with entities [EventEntity, EventEntity], work=[830*, 0*]
118: 0x0605 [0x01] GOTO 0x0688
119: 0x0608 [0x02] IF !(Work_Zone[9] == 5*) GOTO 0x062D
120: 0x0610 [0x45] LOAD_SCHEDULED_TASK: Load scheduler "s011" with entities [EventEntity, EventEntity], work=[830*, 0*]
121: 0x0621 [0x1C] WAIT(1* ticks)
122: 0x0624 [0x4E] SET_ENTITY_HIDE_FLAG: Show LocalPlayer
123: 0x062A [0x01] GOTO 0x0688
124: 0x062D [0x02] IF !(Work_Zone[9] == 6*) GOTO 0x0652
125: 0x0635 [0x45] LOAD_SCHEDULED_TASK: Load scheduler "s011" with entities [EventEntity, EventEntity], work=[830*, 0*]
126: 0x0646 [0x1C] WAIT(1* ticks)
127: 0x0649 [0x4E] SET_ENTITY_HIDE_FLAG: Show LocalPlayer
128: 0x064F [0x01] GOTO 0x0688
129: 0x0652 [0x02] IF !(Work_Zone[9] == 8*) GOTO 0x066E
130: 0x065A [0x45] LOAD_SCHEDULED_TASK: Load scheduler "s008" with entities [EventEntity, EventEntity], work=[830*, 0*]
131: 0x066B [0x01] GOTO 0x0688
132: 0x066E [0x45] LOAD_SCHEDULED_TASK: Load scheduler "s004" with entities [EventEntity, EventEntity], work=[830*, 0*]
133: 0x067F [0x1C] WAIT(1* ticks)
134: 0x0682 [0x4E] SET_ENTITY_HIDE_FLAG: Show LocalPlayer

SUBROUTINE_0688:
135: 0x0688 [0x5B] LOAD_EXT_SCHEDULER: Load scheduler "utu1" with entities [Cornelia (ID: 17481859/0x010AC083), Cornelia (ID: 17481859/0x010AC083)], work=148*
136: 0x0697 [0x53] WAIT_SCHEDULER_TASK: Wait for scheduler "utu1" with entities [Cornelia (ID: 17481859/0x010AC083), Cornelia (ID: 17481859/0x010AC083)]
137: 0x06A4 [0x79] Cornelia (ID: 17481859/0x010AC083) looks at LocalPlayer (Basic look)
138: 0x06AE [0x2B] Cornelia (ID: 17481859/0x010AC083) [10624*]:
    → "Between him and the foremen, everyone I've talked to today is concerned for my well-being. They won't even let me further into the mines."
139: 0x06B5 [0x5B] LOAD_EXT_SCHEDULER: Load scheduler "tla0" with entities [Cornelia (ID: 17481859/0x010AC083), Cornelia (ID: 17481859/0x010AC083)], work=145*
140: 0x06C4 [0x23] WAIT_FOR_DIALOG_INTERACTION
141: 0x06C5 [0x53] WAIT_SCHEDULER_TASK: Wait for scheduler "tla0" with entities [Cornelia (ID: 17481859/0x010AC083), Cornelia (ID: 17481859/0x010AC083)]
142: 0x06D2 [0x5B] LOAD_EXT_SCHEDULER: Load scheduler "tla1" with entities [Cornelia (ID: 17481859/0x010AC083), Cornelia (ID: 17481859/0x010AC083)], work=145*
143: 0x06E1 [0x2B] Cornelia (ID: 17481859/0x010AC083) [10625*]:
    → "It doesn't make any sense. If they're that insistent on looking after me, then why wouldn't they be twice as interested in the young one wandering around unaccompanied?"
144: 0x06E8 [0x23] WAIT_FOR_DIALOG_INTERACTION
145: 0x06E9 [0x53] WAIT_SCHEDULER_TASK: Wait for scheduler "tla1" with entities [Cornelia (ID: 17481859/0x010AC083), Cornelia (ID: 17481859/0x010AC083)]
146: 0x06F6 [0x5B] LOAD_EXT_SCHEDULER: Load scheduler "tlb0" with entities [Cornelia (ID: 17481859/0x010AC083), Cornelia (ID: 17481859/0x010AC083)], work=147*
147: 0x0705 [0x2B] Cornelia (ID: 17481859/0x010AC083) [10626*]:
    → "When I pointed that out, Rasmus said, "Oh, right. We did see him deeper in...""
148: 0x070C [0x23] WAIT_FOR_DIALOG_INTERACTION
149: 0x070D [0x53] WAIT_SCHEDULER_TASK: Wait for scheduler "tlb0" with entities [Cornelia (ID: 17481859/0x010AC083), Cornelia (ID: 17481859/0x010AC083)]
150: 0x071A [0x5B] LOAD_EXT_SCHEDULER: Load scheduler "tlb1" with entities [Cornelia (ID: 17481859/0x010AC083), Cornelia (ID: 17481859/0x010AC083)], work=147*
151: 0x0729 [0x53] WAIT_SCHEDULER_TASK: Wait for scheduler "tlb1" with entities [Cornelia (ID: 17481859/0x010AC083), Cornelia (ID: 17481859/0x010AC083)]
152: 0x0736 [0x02] IF !(Work_Zone[9] == 3*) GOTO 0x0750
153: 0x073E [0x52] END_LOAD_SCHEDULER: End scheduler "s076" with entities [EventEntity, EventEntity], work=830*
154: 0x074D [0x01] GOTO 0x07AD
155: 0x0750 [0x02] IF !(Work_Zone[9] == 5*) GOTO 0x076A
156: 0x0758 [0x52] END_LOAD_SCHEDULER: End scheduler "s011" with entities [EventEntity, EventEntity], work=830*
157: 0x0767 [0x01] GOTO 0x07AD
158: 0x076A [0x02] IF !(Work_Zone[9] == 6*) GOTO 0x0784
159: 0x0772 [0x52] END_LOAD_SCHEDULER: End scheduler "s011" with entities [EventEntity, EventEntity], work=830*
160: 0x0781 [0x01] GOTO 0x07AD
161: 0x0784 [0x02] IF !(Work_Zone[9] == 8*) GOTO 0x079E
162: 0x078C [0x52] END_LOAD_SCHEDULER: End scheduler "s008" with entities [EventEntity, EventEntity], work=830*
163: 0x079B [0x01] GOTO 0x07AD
164: 0x079E [0x52] END_LOAD_SCHEDULER: End scheduler "s004" with entities [EventEntity, EventEntity], work=830*

SUBROUTINE_07AD:
165: 0x07AD [0x45] LOAD_SCHEDULED_TASK: Load scheduler "s007" with entities [EventEntity, EventEntity], work=[830*, 0*]
166: 0x07BE [0x7B] Cornelia (ID: 17481859/0x010AC083) stops talking
167: 0x07C3 [0x2B] Cornelia (ID: 17481859/0x010AC083) [10627*]:
    → "I know! They might not let me proceed, but surely they'd have no such qualms about you!"
168: 0x07CA [0x5B] LOAD_EXT_SCHEDULER: Load scheduler "thk0" with entities [Cornelia (ID: 17481859/0x010AC083), Cornelia (ID: 17481859/0x010AC083)], work=145*
169: 0x07D9 [0x53] WAIT_SCHEDULER_TASK: Wait for scheduler "thk0" with entities [Cornelia (ID: 17481859/0x010AC083), Cornelia (ID: 17481859/0x010AC083)]
170: 0x07E6 [0x23] WAIT_FOR_DIALOG_INTERACTION
171: 0x07E7 [0x2B] Cornelia (ID: 17481859/0x010AC083) [10628*]:
    → "Maybe some of the other foremen would know more. Could you ask them about the Galkan child and go looking for him?"
172: 0x07EE [0x23] WAIT_FOR_DIALOG_INTERACTION
173: 0x07EF [0x52] END_LOAD_SCHEDULER: End scheduler "s007" with entities [EventEntity, EventEntity], work=830*
174: 0x07FE [0x02] IF !(Work_Zone[9] == 3*) GOTO 0x081A
175: 0x0806 [0x45] LOAD_SCHEDULED_TASK: Load scheduler "s077" with entities [EventEntity, EventEntity], work=[830*, 0*]
176: 0x0817 [0x01] GOTO 0x087F
177: 0x081A [0x02] IF !(Work_Zone[9] == 5*) GOTO 0x0836
178: 0x0822 [0x45] LOAD_SCHEDULED_TASK: Load scheduler "s012" with entities [EventEntity, EventEntity], work=[830*, 0*]
179: 0x0833 [0x01] GOTO 0x087F
180: 0x0836 [0x02] IF !(Work_Zone[9] == 6*) GOTO 0x0852
181: 0x083E [0x45] LOAD_SCHEDULED_TASK: Load scheduler "s012" with entities [EventEntity, EventEntity], work=[830*, 0*]
182: 0x084F [0x01] GOTO 0x087F
183: 0x0852 [0x02] IF !(Work_Zone[9] == 8*) GOTO 0x086E
184: 0x085A [0x45] LOAD_SCHEDULED_TASK: Load scheduler "s009" with entities [EventEntity, EventEntity], work=[830*, 0*]
185: 0x086B [0x01] GOTO 0x087F
186: 0x086E [0x45] LOAD_SCHEDULED_TASK: Load scheduler "s006" with entities [EventEntity, EventEntity], work=[830*, 0*]

SUBROUTINE_087F:
187: 0x087F [0x79] Cornelia (ID: 17481859/0x010AC083) looks at LocalPlayer (Basic look)
188: 0x0889 [0x5B] LOAD_EXT_SCHEDULER: Load scheduler "tla2" with entities [Cornelia (ID: 17481859/0x010AC083), Cornelia (ID: 17481859/0x010AC083)], work=145*
189: 0x0898 [0x2B] Cornelia (ID: 17481859/0x010AC083) [10629*]:
    → "I'll go meet up with Gumbah. Best of luck!"
190: 0x089F [0x23] WAIT_FOR_DIALOG_INTERACTION
191: 0x08A0 [0x53] WAIT_SCHEDULER_TASK: Wait for scheduler "tla2" with entities [Cornelia (ID: 17481859/0x010AC083), Cornelia (ID: 17481859/0x010AC083)]
192: 0x08AD [0x02] IF !(Work_Zone[9] == 3*) GOTO 0x08C7
193: 0x08B5 [0x52] END_LOAD_SCHEDULER: End scheduler "s077" with entities [EventEntity, EventEntity], work=830*
194: 0x08C4 [0x01] GOTO 0x0924
195: 0x08C7 [0x02] IF !(Work_Zone[9] == 5*) GOTO 0x08E1
196: 0x08CF [0x52] END_LOAD_SCHEDULER: End scheduler "s012" with entities [EventEntity, EventEntity], work=830*
197: 0x08DE [0x01] GOTO 0x0924
198: 0x08E1 [0x02] IF !(Work_Zone[9] == 6*) GOTO 0x08FB
199: 0x08E9 [0x52] END_LOAD_SCHEDULER: End scheduler "s012" with entities [EventEntity, EventEntity], work=830*
200: 0x08F8 [0x01] GOTO 0x0924
201: 0x08FB [0x02] IF !(Work_Zone[9] == 8*) GOTO 0x0915
202: 0x0903 [0x52] END_LOAD_SCHEDULER: End scheduler "s009" with entities [EventEntity, EventEntity], work=830*
203: 0x0912 [0x01] GOTO 0x0924
204: 0x0915 [0x52] END_LOAD_SCHEDULER: End scheduler "s006" with entities [EventEntity, EventEntity], work=830*

SUBROUTINE_0924:
205: 0x0924 [0x45] LOAD_SCHEDULED_TASK: Load scheduler "s005" with entities [EventEntity, EventEntity], work=[830*, 0*]
206: 0x0935 [0x5B] LOAD_EXT_SCHEDULER: Load scheduler "wav0" with entities [Cornelia (ID: 17481859/0x010AC083), Cornelia (ID: 17481859/0x010AC083)], work=145*
207: 0x0944 [0x53] WAIT_SCHEDULER_TASK: Wait for scheduler "wav0" with entities [Cornelia (ID: 17481859/0x010AC083), Cornelia (ID: 17481859/0x010AC083)]
208: 0x0951 [0x5D] SET_MUSIC_VOLUME(volume=0*, fade_time=600*)
209: 0x0956 [0x7B] Cornelia (ID: 17481859/0x010AC083) stops talking
210: 0x095B [0x1C] WAIT(5* ticks)
211: 0x095E [0x27] REQ_SET(priority=0x0F, entity_id=Cornelia (ID: 17481859/0x010AC083), tag_num=0x06)
212: 0x0965 [0x1C] WAIT(30* ticks)
213: 0x0968 [0x1C] WAIT(30* ticks)
214: 0x096B [0x4B] UPDATE_ENTITY_YAW(entity=LocalPlayer, yaw=3.8°*)
215: 0x0972 [0x6F] WAIT_FRAME_DELAY: Yield until WaitTime reaches zero
216: 0x0973 [0x76] CHECK_ENTITY_RENDER_FLAGS: Wait until LocalPlayer Render.Flags0 and Render.Flags3 conditions are met
217: 0x0978 [0x1A] CALL_SUBROUTINE(address=0x0064)
218: 0x097B [0x1C] WAIT(15* ticks)
219: 0x097E [0x52] END_LOAD_SCHEDULER: End scheduler "s005" with entities [EventEntity, EventEntity], work=830*
220: 0x098D [0x2A] GET_REQ_LEVEL(level=15, entity_id=Cornelia (ID: 17481859/0x010AC083))
221: 0x0993 [0x5C] MUSIC_CONTROL: Set Idle (Day) music to song 0*
222: 0x0997 [0x5C] MUSIC_CONTROL: Set Idle (Night) music to song 0*
223: 0x099B [0x9A] WAIT_MUSIC_SERVER()
224: 0x099C [0x5D] SET_MUSIC_VOLUME(volume=127*, fade_time=1*)
225: 0x09A1 [0xAB] EventEntity->DespawnValue = 0* // Set despawn value
226: 0x09A5 [0x1C] WAIT(1* ticks)
227: 0x09A8 [0x46] CAMERA_CONTROL: Restore default settings
228: 0x09AA [0x45] LOAD_SCHEDULED_TASK: Load scheduler "fdi2" with entities [EventEntity, EventEntity], work=[200*, 0*]
229: 0x09BB [0x21] END_EVENT
230: 0x09BC [0x00] END_REQSTACK()
```

### Event 221

#### Metadata

| Field        | Value    |
|--------------|----------|
| Entrypoint   | 0x09BD   |
| Data Size    | 93 bytes |
| Instructions | 15       |

```
      00 01 02 03 04 05 06 07  08 09 0A 0B 0C 0D 0E 0F
      -- -- -- -- -- -- -- --  -- -- -- -- -- -- -- --
09B0:                                         4A 64 C0               Jd.
09C0: 0A 01 F0 FF FF 7F 6F 76  64 C0 0A 01 4A F0 FF FF  ......ovd...J...
09D0: 7F 64 C0 0A 01 66 19 80  64 C0 0A 01 64 C0 0A 01  .d...f..d...d...
09E0: 74 6C 6B 30 2B 64 C0 0A  01 31 80 23 2B 64 C0 0A  tlk0+d...1.#+d..
09F0: 01 32 80 23 53 64 C0 0A  01 64 C0 0A 01 74 6C 6B  .2.#Sd...d...tlk
0A00: 30 66 19 80 64 C0 0A 01  64 C0 0A 01 74 6C 6B 31  0f..d...d...tlk1
0A10: 2B 64 C0 0A 01 33 80 23  21 00                    +d...3.#!.      
```

#### Opcodes

```
  0: 0x09BD [0x4A] Makarim (ID: 17481828/0x010AC064) looks at LocalPlayer
  1: 0x09C6 [0x6F] WAIT_FRAME_DELAY: Yield until WaitTime reaches zero
  2: 0x09C7 [0x76] CHECK_ENTITY_RENDER_FLAGS: Wait until Makarim (ID: 17481828/0x010AC064) Render.Flags0 and Render.Flags3 conditions are met
  3: 0x09CC [0x4A] LocalPlayer looks at Makarim (ID: 17481828/0x010AC064)
  4: 0x09D5 [0x66] LOAD_EXT_SCHEDULER_MAIN: Load scheduler "tlk0" with entities [Makarim (ID: 17481828/0x010AC064), Makarim (ID: 17481828/0x010AC064)], work=10*
  5: 0x09E4 [0x2B] Makarim (ID: 17481828/0x010AC064) [10630*]:
    → "Hey there, adventurer. What can I do for you? You want to know if we saw a Galkan child?"
  6: 0x09EB [0x23] WAIT_FOR_DIALOG_INTERACTION
  7: 0x09EC [0x2B] Makarim (ID: 17481828/0x010AC064) [10631*]:
    → "Then my eyes weren't playing tricks on me. I saw him squatting down on the ground a little bit northeast of here."
  8: 0x09F3 [0x23] WAIT_FOR_DIALOG_INTERACTION
  9: 0x09F4 [0x53] WAIT_SCHEDULER_TASK: Wait for scheduler "tlk0" with entities [Makarim (ID: 17481828/0x010AC064), Makarim (ID: 17481828/0x010AC064)]
 10: 0x0A01 [0x66] LOAD_EXT_SCHEDULER_MAIN: Load scheduler "tlk1" with entities [Makarim (ID: 17481828/0x010AC064), Makarim (ID: 17481828/0x010AC064)], work=10*
 11: 0x0A10 [0x2B] Makarim (ID: 17481828/0x010AC064) [10632*]:
    → "Do you know who he is? You should go tell him that this is no place for children."
 12: 0x0A17 [0x23] WAIT_FOR_DIALOG_INTERACTION
 13: 0x0A18 [0x21] END_EVENT
 14: 0x0A19 [0x00] END_REQSTACK()
```

### Event 222

#### Metadata

| Field        | Value    |
|--------------|----------|
| Entrypoint   | 0x0A1A   |
| Data Size    | 42 bytes |
| Instructions | 10       |

```
      00 01 02 03 04 05 06 07  08 09 0A 0B 0C 0D 0E 0F
      -- -- -- -- -- -- -- --  -- -- -- -- -- -- -- --
0A10:                                4A 5D C0 0A 01 F0            J]....
0A20: FF FF 7F 6F 76 5D C0 0A  01 4A F0 FF FF 7F 5D C0  ...ov]...J....].
0A30: 0A 01 2B 5D C0 0A 01 34  80 23 2B 5D C0 0A 01 35  ..+]...4.#+]...5
0A40: 80 23 21 00                                       .#!.            
```

#### Opcodes

```
  0: 0x0A1A [0x4A] Rasmus (ID: 17481821/0x010AC05D) looks at LocalPlayer
  1: 0x0A23 [0x6F] WAIT_FRAME_DELAY: Yield until WaitTime reaches zero
  2: 0x0A24 [0x76] CHECK_ENTITY_RENDER_FLAGS: Wait until Rasmus (ID: 17481821/0x010AC05D) Render.Flags0 and Render.Flags3 conditions are met
  3: 0x0A29 [0x4A] LocalPlayer looks at Rasmus (ID: 17481821/0x010AC05D)
  4: 0x0A32 [0x2B] Rasmus (ID: 17481821/0x010AC05D) [10633*]:
    → "Cornelia said something about looking for a Galkan child."
  5: 0x0A39 [0x23] WAIT_FOR_DIALOG_INTERACTION
  6: 0x0A3A [0x2B] Rasmus (ID: 17481821/0x010AC05D) [10634*]:
    → "That's all well and good, but she really shouldn't be sticking her nose into everyone's business."
  7: 0x0A41 [0x23] WAIT_FOR_DIALOG_INTERACTION
  8: 0x0A42 [0x21] END_EVENT
  9: 0x0A43 [0x00] END_REQSTACK()
```

### Event 223

#### Metadata

| Field        | Value      |
|--------------|------------|
| Entrypoint   | 0x0A44     |
| Data Size    | 2657 bytes |
| Instructions | 330        |

```
      00 01 02 03 04 05 06 07  08 09 0A 0B 0C 0D 0E 0F
      -- -- -- -- -- -- -- --  -- -- -- -- -- -- -- --
0A40:             42 1A 64 00  46 01 38 08 80 5D 01 80      B.d.F.8..]..
0A50: 09 80 2F 00 84 C0 0A 01  2F 00 88 C0 0A 01 2F 00  ../...../...../.
0A60: 85 C0 0A 01 4E 00 84 C0  0A 01 4E 00 85 C0 0A 01  ....N.....N.....
0A70: 4E 00 88 C0 0A 01 4E 00  64 C0 0A 01 92 01 64 C0  N.....N.d.....d.
0A80: 0A 01 29 10 84 C0 0A 01  03 94 01 84 C0 0A 01 94  ..).............
0A90: 01 85 C0 0A 01 94 01 88  C0 0A 01 94 01 F0 FF FF  ................
0AA0: 7F 94 01 64 C0 0A 01 BA  84 C0 0A 01 36 80 37 80  ...d........6.7.
0AB0: 38 80 39 80 BA 85 C0 0A  01 3A 80 3B 80 3C 80 3D  8.9......:.;.<.=
0AC0: 80 BA F0 FF FF 7F 3E 80  3F 80 40 80 41 80 BA 64  ......>.?.@.A..d
0AD0: C0 0A 01 36 80 37 80 38  80 39 80 BA 88 C0 0A 01  ...6.7.8.9......
0AE0: 42 80 43 80 44 80 45 80  80 84 C0 0A 01 80 85 C0  B.C.D.E.........
0AF0: 0A 01 80 F0 FF FF 7F 6C  85 C0 0A 01 01 80 03 80  .......l........
0B00: 6C 64 C0 0A 01 01 80 03  80 6C 88 C0 0A 01 01 80  ld.......l......
0B10: 03 80 29 0F F0 FF FF 7F  11 4A F0 FF FF 7F 85 C0  ..)......J......
0B20: 0A 01 6F 76 F0 FF FF 7F  79 00 85 C0 0A 01 84 C0  ..ov....y.......
0B30: 0A 01 02 09 10 17 80 00  4E 0B 45 13 80 F8 FF FF  ........N.E.....
0B40: 7F F8 FF FF 7F 73 30 32  33 01 80 01 97 0B 02 09  .....s023.......
0B50: 10 12 80 00 6A 0B 45 13  80 F8 FF FF 7F F8 FF FF  ....j.E.........
0B60: 7F 73 30 32 39 01 80 01  97 0B 02 09 10 14 80 00  .s029...........
0B70: 86 0B 45 13 80 F8 FF FF  7F F8 FF FF 7F 73 30 32  ..E..........s02
0B80: 39 01 80 01 97 0B 45 13  80 F8 FF FF 7F F8 FF FF  9.....E.........
0B90: 7F 73 30 31 33 01 80 1A  43 00 1C 46 80 79 00 F0  .s013...C..F.y..
0BA0: FF FF 7F 84 C0 0A 01 1C  47 80 27 0F F0 FF FF 7F  ........G.'.....
0BB0: 12 1C 48 80 02 09 10 17  80 00 CE 0B 52 13 80 F8  ..H.........R...
0BC0: FF FF 7F F8 FF FF 7F 73  30 32 33 01 11 0C 02 09  .......s023.....
0BD0: 10 12 80 00 E8 0B 52 13  80 F8 FF FF 7F F8 FF FF  ......R.........
0BE0: 7F 73 30 32 39 01 11 0C  02 09 10 14 80 00 02 0C  .s029...........
0BF0: 52 13 80 F8 FF FF 7F F8  FF FF 7F 73 30 32 39 01  R..........s029.
0C00: 11 0C 52 13 80 F8 FF FF  7F F8 FF FF 7F 73 30 31  ..R..........s01
0C10: 33 45 13 80 F8 FF FF 7F  F8 FF FF 7F 73 30 31 34  3E..........s014
0C20: 01 80 2A 0F F0 FF FF 7F  1C 49 80 4A 84 C0 0A 01  ..*......I.J....
0C30: F0 FF FF 7F 6F 76 84 C0  0A 01 BA 85 C0 0A 01 4A  ....ov.........J
0C40: 80 4B 80 4C 80 4D 80 1C  4E 80 52 13 80 F8 FF FF  .K.L.M..N.R.....
0C50: 7F F8 FF FF 7F 73 30 31  34 45 13 80 F8 FF FF 7F  .....s014E......
0C60: F8 FF FF 7F 73 30 37 39  01 80 1C 00 80 2B 84 C0  ....s079.....+..
0C70: 0A 01 4F 80 1C 06 80 52  13 80 F8 FF FF 7F F8 FF  ..O....R........
0C80: FF 7F 73 30 37 39 02 09  10 17 80 00 A2 0C 45 13  ..s079........E.
0C90: 80 F8 FF FF 7F F8 FF FF  7F 73 30 32 38 01 80 01  .........s028...
0CA0: EB 0C 02 09 10 12 80 00  BE 0C 45 13 80 F8 FF FF  ..........E.....
0CB0: 7F F8 FF FF 7F 73 30 33  30 01 80 01 EB 0C 02 09  .....s030.......
0CC0: 10 14 80 00 DA 0C 45 13  80 F8 FF FF 7F F8 FF FF  ......E.........
0CD0: 7F 73 30 33 30 01 80 01  EB 0C 45 13 80 F8 FF FF  .s030.....E.....
0CE0: 7F F8 FF FF 7F 73 30 31  36 01 80 1C 06 80 23 5C  .....s016.....#\
0CF0: 00 50 80 5C 01 50 80 5C  02 50 80 5C 03 50 80 9A  .P.\.P.\.P.\.P..
0D00: 5D 10 80 03 80 27 0F 88  C0 0A 01 02 1C 51 80 6C  ]....'.......Q.l
0D10: 85 C0 0A 01 52 80 03 80  1C 03 80 27 0F 85 C0 0A  ....R......'....
0D20: 01 03 1C 53 80 4B F0 FF  FF 7F 54 80 1C 19 80 02  ...S.K....T.....
0D30: 09 10 17 80 00 49 0D 52  13 80 F8 FF FF 7F F8 FF  .....I.R........
0D40: FF 7F 73 30 32 38 01 8C  0D 02 09 10 12 80 00 63  ..s028.........c
0D50: 0D 52 13 80 F8 FF FF 7F  F8 FF FF 7F 73 30 33 30  .R..........s030
0D60: 01 8C 0D 02 09 10 14 80  00 7D 0D 52 13 80 F8 FF  .........}.R....
0D70: FF 7F F8 FF FF 7F 73 30  33 30 01 8C 0D 52 13 80  ......s030...R..
0D80: F8 FF FF 7F F8 FF FF 7F  73 30 31 36 45 13 80 F8  ........s016E...
0D90: FF FF 7F F8 FF FF 7F 73  30 38 30 01 80 6C 85 C0  .......s080..l..
0DA0: 0A 01 01 80 03 80 6C 88  C0 0A 01 52 80 03 80 1C  ......l....R....
0DB0: 46 80 1C 49 80 52 13 80  F8 FF FF 7F F8 FF FF 7F  F..I.R..........
0DC0: 73 30 38 30 45 13 80 F8  FF FF 7F F8 FF FF 7F 73  s080E..........s
0DD0: 30 33 34 01 80 6C 85 C0  0A 01 52 80 03 80 6C 88  034..l....R...l.
0DE0: C0 0A 01 01 80 03 80 4B  84 C0 0A 01 55 80 6F 76  .......K....U.ov
0DF0: 84 C0 0A 01 5B 1C 80 84  C0 0A 01 84 C0 0A 01 6B  ....[..........k
0E00: 6F 73 31 2B 85 C0 0A 01  56 80 23 1C 19 80 79 00  os1+....V.#...y.
0E10: F0 FF FF 7F 85 C0 0A 01  6F 76 F0 FF FF 7F 52 13  ........ov....R.
0E20: 80 F8 FF FF 7F F8 FF FF  7F 73 30 33 34 02 09 10  .........s034...
0E30: 05 80 00 49 0E 45 13 80  F8 FF FF 7F F8 FF FF 7F  ...I.E..........
0E40: 73 30 38 35 01 80 01 E6  0E 02 09 10 15 80 00 65  s085...........e
0E50: 0E 45 13 80 F8 FF FF 7F  F8 FF FF 7F 73 30 38 31  .E..........s081
0E60: 01 80 01 E6 0E 02 09 10  12 80 00 81 0E 45 13 80  .............E..
0E70: F8 FF FF 7F F8 FF FF 7F  73 30 38 34 01 80 01 E6  ........s084....
0E80: 0E 02 09 10 14 80 00 9D  0E 45 13 80 F8 FF FF 7F  .........E......
0E90: F8 FF FF 7F 73 30 38 34  01 80 01 E6 0E 02 09 10  ....s084........
0EA0: 57 80 00 B9 0E 45 13 80  F8 FF FF 7F F8 FF FF 7F  W....E..........
0EB0: 73 30 38 35 01 80 01 E6  0E 02 09 10 17 80 00 D5  s085............
0EC0: 0E 45 13 80 F8 FF FF 7F  F8 FF FF 7F 73 30 38 31  .E..........s081
0ED0: 01 80 01 E6 0E 45 13 80  F8 FF FF 7F F8 FF FF 7F  .....E..........
0EE0: 73 30 38 33 01 80 1C 03  80 6C 85 C0 0A 01 01 80  s083.....l......
0EF0: 03 80 1C 06 80 1C 19 80  1C 19 80 6C 85 C0 0A 01  ...........l....
0F00: 52 80 03 80 02 09 10 05  80 00 1E 0F 52 13 80 F8  R...........R...
0F10: FF FF 7F F8 FF FF 7F 73  30 38 35 01 AF 0F 02 09  .......s085.....
0F20: 10 15 80 00 38 0F 52 13  80 F8 FF FF 7F F8 FF FF  ....8.R.........
0F30: 7F 73 30 38 31 01 AF 0F  02 09 10 12 80 00 52 0F  .s081.........R.
0F40: 52 13 80 F8 FF FF 7F F8  FF FF 7F 73 30 38 34 01  R..........s084.
0F50: AF 0F 02 09 10 14 80 00  6C 0F 52 13 80 F8 FF FF  ........l.R.....
0F60: 7F F8 FF FF 7F 73 30 38  34 01 AF 0F 02 09 10 57  .....s084......W
0F70: 80 00 86 0F 52 13 80 F8  FF FF 7F F8 FF FF 7F 73  ....R..........s
0F80: 30 38 35 01 AF 0F 02 09  10 17 80 00 A0 0F 52 13  085...........R.
0F90: 80 F8 FF FF 7F F8 FF FF  7F 73 30 38 31 01 AF 0F  .........s081...
0FA0: 52 13 80 F8 FF FF 7F F8  FF FF 7F 73 30 38 33 45  R..........s083E
0FB0: 13 80 F8 FF FF 7F F8 FF  FF 7F 73 30 31 39 01 80  ..........s019..
0FC0: 6C F0 FF FF 7F 52 80 03  80 2A 0F 85 C0 0A 01 2A  l....R...*.....*
0FD0: 0F 88 C0 0A 01 1C 05 80  4A 85 C0 0A 01 84 C0 0A  ........J.......
0FE0: 01 6F 76 85 C0 0A 01 4A  F0 FF FF 7F 85 C0 0A 01  .ov....J........
0FF0: 52 13 80 F8 FF FF 7F F8  FF FF 7F 73 30 31 39 45  R..........s019E
1000: 13 80 F8 FF FF 7F F8 FF  FF 7F 73 30 31 38 01 80  ..........s018..
1010: 1C 03 80 6C F0 FF FF 7F  01 80 03 80 BA F0 FF FF  ...l............
1020: 7F 58 80 59 80 5A 80 5B  80 29 0F 85 C0 0A 01 05  .X.Y.Z.[.)......
1030: 2B 85 C0 0A 01 5C 80 23  53 84 C0 0A 01 84 C0 0A  +....\.#S.......
1040: 01 6B 6F 73 31 52 13 80  F8 FF FF 7F F8 FF FF 7F  .kos1R..........
1050: 73 30 31 38 45 13 80 F8  FF FF 7F F8 FF FF 7F 73  s018E..........s
1060: 30 32 34 01 80 1C 03 80  6C F0 FF FF 7F 52 80 03  024.....l....R..
1070: 80 7B 84 C0 0A 01 6B 69  64 6C 30 84 C0 0A 01 79  .{....kidl0....y
1080: 00 84 C0 0A 01 F0 FF FF  7F 6C 64 C0 0A 01 52 80  .........ld...R.
1090: 03 80 2B 85 C0 0A 01 5D  80 23 2C 85 C0 0A 01 64  ..+....].#,....d
10A0: C0 0A 01 61 74 69 30 1C  06 80 52 13 80 F8 FF FF  ...ati0...R.....
10B0: 7F F8 FF FF 7F 73 30 32  34 45 13 80 F8 FF FF 7F  .....s024E......
10C0: F8 FF FF 7F 62 30 30 30  01 80 6C 64 C0 0A 01 01  ....b000..ld....
10D0: 80 03 80 9F 5E 80 85 C0  0A 01 85 C0 0A 01 6D 61  ....^.........ma
10E0: 69 6E 01 80 1C 1C 80 1C  06 80 1C 06 80 9F 5E 80  in............^.
10F0: 85 C0 0A 01 85 C0 0A 01  6B 69 6C 6C 01 80 27 0F  ........kill..'.
1100: 84 C0 0A 01 05 45 13 80  F8 FF FF 7F F8 FF FF 7F  .....E..........
1110: 73 30 32 36 01 80 1C 19  80 6F 76 F0 FF FF 7F 52  s026.....ov....R
1120: 13 80 F8 FF FF 7F F8 FF  FF 7F 73 30 32 36 02 09  ..........s026..
1130: 10 05 80 00 54 11 45 13  80 F8 FF FF 7F F8 FF FF  ....T.E.........
1140: 7F 73 30 38 36 01 80 79  00 F0 FF FF 7F 85 C0 0A  .s086..y........
1150: 01 01 25 12 02 09 10 12  80 00 7A 11 45 13 80 F8  ..%.......z.E...
1160: FF FF 7F F8 FF FF 7F 73  30 33 31 01 80 79 00 F0  .......s031..y..
1170: FF FF 7F 85 C0 0A 01 01  25 12 02 09 10 14 80 00  ........%.......
1180: A0 11 45 13 80 F8 FF FF  7F F8 FF FF 7F 73 30 33  ..E..........s03
1190: 31 01 80 79 00 F0 FF FF  7F 85 C0 0A 01 01 25 12  1..y..........%.
11A0: 02 09 10 57 80 00 D0 11  45 13 80 F8 FF FF 7F F8  ...W....E.......
11B0: FF FF 7F 73 30 38 36 01  80 4A F0 FF FF 7F 85 C0  ...s086..J......
11C0: 0A 01 6F 76 F0 FF FF 7F  7B F0 FF FF 7F 01 25 12  ..ov....{.....%.
11D0: 02 09 10 17 80 00 0A 12  45 13 80 F8 FF FF 7F F8  ........E.......
11E0: FF FF 7F 73 30 32 35 01  80 4A F0 FF FF 7F 85 C0  ...s025..J......
11F0: 0A 01 6F 76 F0 FF FF 7F  7B F0 FF FF 7F 79 00 F0  ..ov....{....y..
1200: FF FF 7F 85 C0 0A 01 01  25 12 45 13 80 F8 FF FF  ........%.E.....
1210: 7F F8 FF FF 7F 73 30 32  32 01 80 79 00 F0 FF FF  .....s022..y....
1220: 7F 85 C0 0A 01 7B 84 C0  0A 01 4A 85 C0 0A 01 F0  .....{....J.....
1230: FF FF 7F 29 0F F0 FF FF  7F 13 1C 46 80 6F 76 85  ...).......F.ov.
1240: C0 0A 01 2A 0F 84 C0 0A  01 79 00 84 C0 0A 01 85  ...*.....y......
1250: C0 0A 01 02 09 10 05 80  00 6D 12 52 13 80 F8 FF  .........m.R....
1260: FF 7F F8 FF FF 7F 73 30  38 36 01 E4 12 02 09 10  ......s086......
1270: 12 80 00 87 12 52 13 80  F8 FF FF 7F F8 FF FF 7F  .....R..........
1280: 73 30 33 31 01 E4 12 02  09 10 14 80 00 A1 12 52  s031...........R
1290: 13 80 F8 FF FF 7F F8 FF  FF 7F 73 30 33 31 01 E4  ..........s031..
12A0: 12 02 09 10 57 80 00 BB  12 52 13 80 F8 FF FF 7F  ....W....R......
12B0: F8 FF FF 7F 73 30 38 36  01 E4 12 02 09 10 17 80  ....s086........
12C0: 00 D5 12 52 13 80 F8 FF  FF 7F F8 FF FF 7F 73 30  ...R..........s0
12D0: 32 35 01 E4 12 52 13 80  F8 FF FF 7F F8 FF FF 7F  25...R..........
12E0: 73 30 32 32 02 09 10 17  80 00 00 13 45 13 80 F8  s022........E...
12F0: FF FF 7F F8 FF FF 7F 73  30 38 32 01 80 01 49 13  .......s082...I.
1300: 02 09 10 12 80 00 1C 13  45 13 80 F8 FF FF 7F F8  ........E.......
1310: FF FF 7F 73 30 33 32 01  80 01 49 13 02 09 10 14  ...s032...I.....
1320: 80 00 38 13 45 13 80 F8  FF FF 7F F8 FF FF 7F 73  ..8.E..........s
1330: 30 33 32 01 80 01 49 13  45 13 80 F8 FF FF 7F F8  032...I.E.......
1340: FF FF 7F 73 30 32 30 01  80 2B 85 C0 0A 01 5F 80  ...s020..+...._.
1350: 23 1C 46 80 2B 85 C0 0A  01 60 80 23 02 09 10 17  #.F.+....`.#....
1360: 80 00 76 13 52 13 80 F8  FF FF 7F F8 FF FF 7F 73  ..v.R..........s
1370: 30 38 32 01 B9 13 02 09  10 12 80 00 90 13 52 13  082...........R.
1380: 80 F8 FF FF 7F F8 FF FF  7F 73 30 33 32 01 B9 13  .........s032...
1390: 02 09 10 14 80 00 AA 13  52 13 80 F8 FF FF 7F F8  ........R.......
13A0: FF FF 7F 73 30 33 32 01  B9 13 52 13 80 F8 FF FF  ...s032...R.....
13B0: 7F F8 FF FF 7F 73 30 32  30 45 13 80 F8 FF FF 7F  .....s020E......
13C0: F8 FF FF 7F 73 30 32 31  01 80 4E 01 F0 FF FF 7F  ....s021..N.....
13D0: 1C 06 80 2B 85 C0 0A 01  61 80 23 5D 01 80 00 80  ...+....a.#]....
13E0: 1A 64 00 52 13 80 F8 FF  FF 7F F8 FF FF 7F 73 30  .d.R..........s0
13F0: 32 31 45 13 80 F8 FF FF  7F F8 FF FF 7F 73 30 30  21E..........s00
1400: 31 01 80 4E 00 F0 FF FF  7F 29 0F F0 FF FF 7F 14  1..N.....)......
1410: 29 0F 85 C0 0A 01 06 29  10 84 C0 0A 01 04 6C 64  )......)......ld
1420: C0 0A 01 52 80 03 80 92  00 64 C0 0A 01 52 13 80  ...R.....d...R..
1430: F8 FF FF 7F F8 FF FF 7F  73 30 30 31 45 13 80 F8  ........s001E...
1440: FF FF 7F F8 FF FF 7F 73  30 32 31 01 80 5C 00 01  .......s021..\..
1450: 80 5C 01 01 80 5C 02 62  80 5C 03 63 80 9A 5D 10  .\...\.b.\.c..].
1460: 80 03 80 1C 05 80 52 13  80 F8 FF FF 7F F8 FF FF  ......R.........
1470: 7F 73 30 32 31 45 13 80  F8 FF FF 7F F8 FF FF 7F  .s021E..........
1480: 62 30 30 30 01 80 1C 18  80 AB 11 01 80 1C 03 80  b000............
1490: 46 00 45 00 80 F8 FF FF  7F F8 FF FF 7F 66 64 69  F.E..........fdi
14A0: 32 01 80 21 00                                    2..!.           
```

#### Opcodes

```
  0: 0x0A44 [0x42] SET_CLI_EVENT_CANCEL_DATA()
  1: 0x0A45 [0x1A] CALL_SUBROUTINE(address=0x0064)
  2: 0x0A48 [0x46] CAMERA_CONTROL: Disable user control
  3: 0x0A4A [0x38] SET_CLIENT_EVENT_MODE(mode=147*)
  4: 0x0A4D [0x5D] SET_MUSIC_VOLUME(volume=0*, fade_time=300*)
  5: 0x0A52 [0x2F] Raebrimm (ID: 17481860/0x010AC084)->Render.Flags0 &= ~0x80000 // Bit 19
  6: 0x0A58 [0x2F] Gloom Phantom (ID: 17481864/0x010AC088)->Render.Flags0 &= ~0x80000 // Bit 19
  7: 0x0A5E [0x2F] Gloom Phantom (ID: 17481861/0x010AC085)->Render.Flags0 &= ~0x80000 // Bit 19
  8: 0x0A64 [0x4E] SET_ENTITY_HIDE_FLAG: Show Raebrimm (ID: 17481860/0x010AC084)
  9: 0x0A6A [0x4E] SET_ENTITY_HIDE_FLAG: Show Gloom Phantom (ID: 17481861/0x010AC085)
 10: 0x0A70 [0x4E] SET_ENTITY_HIDE_FLAG: Show Gloom Phantom (ID: 17481864/0x010AC088)
 11: 0x0A76 [0x4E] SET_ENTITY_HIDE_FLAG: Show Makarim (ID: 17481828/0x010AC064)
 12: 0x0A7C [0x92] Makarim (ID: 17481828/0x010AC064)->Render.Flags3 ^= 0x01
 13: 0x0A82 [0x29] REQ_SET_WAIT(priority=0x10, entity_id=Raebrimm (ID: 17481860/0x010AC084), tag_num=0x03)
 14: 0x0A89 [0x94] Raebrimm (ID: 17481860/0x010AC084)->Render.Flags3 ^= 0x01
 15: 0x0A8F [0x94] Gloom Phantom (ID: 17481861/0x010AC085)->Render.Flags3 ^= 0x01
 16: 0x0A95 [0x94] Gloom Phantom (ID: 17481864/0x010AC088)->Render.Flags3 ^= 0x01
 17: 0x0A9B [0x94] LocalPlayer->Render.Flags3 ^= 0x01
 18: 0x0AA1 [0x94] Makarim (ID: 17481828/0x010AC064)->Render.Flags3 ^= 0x01
 19: 0x0AA7 [0xBA] SET_ENTITY_POSITION(entity_id=Raebrimm (ID: 17481860/0x010AC084), pos_x=141.660*, pos_z=-201.750*, pos_y=8.240*, direction=105.5°*)
 20: 0x0AB4 [0xBA] SET_ENTITY_POSITION(entity_id=Gloom Phantom (ID: 17481861/0x010AC085), pos_x=143.061*, pos_z=-195.619*, pos_y=8.158*, direction=301.5°*)
 21: 0x0AC1 [0xBA] SET_ENTITY_POSITION(entity_id=LocalPlayer, pos_x=141.980*, pos_z=-195.120*, pos_y=8.330*, direction=83.5°*)
 22: 0x0ACE [0xBA] SET_ENTITY_POSITION(entity_id=Makarim (ID: 17481828/0x010AC064), pos_x=141.660*, pos_z=-201.750*, pos_y=8.240*, direction=105.5°*)
 23: 0x0ADB [0xBA] SET_ENTITY_POSITION(entity_id=Gloom Phantom (ID: 17481864/0x010AC088), pos_x=139.365*, pos_z=-182.086*, pos_y=8.743*, direction=29.5°*)
 24: 0x0AE8 [0x80] LOAD_WAIT(entity=Raebrimm (ID: 17481860/0x010AC084))
 25: 0x0AED [0x80] LOAD_WAIT(entity=Gloom Phantom (ID: 17481861/0x010AC085))
 26: 0x0AF2 [0x80] LOAD_WAIT(entity=LocalPlayer)
 27: 0x0AF7 [0x6C] FADE_ENTITY_COLOR(entity_id=Gloom Phantom (ID: 17481861/0x010AC085), end_alpha=0*, fade_time=1*)
 28: 0x0B00 [0x6C] FADE_ENTITY_COLOR(entity_id=Makarim (ID: 17481828/0x010AC064), end_alpha=0*, fade_time=1*)
 29: 0x0B09 [0x6C] FADE_ENTITY_COLOR(entity_id=Gloom Phantom (ID: 17481864/0x010AC088), end_alpha=0*, fade_time=1*)
 30: 0x0B12 [0x29] REQ_SET_WAIT(priority=0x0F, entity_id=LocalPlayer, tag_num=0x11)
 31: 0x0B19 [0x4A] LocalPlayer looks at Gloom Phantom (ID: 17481861/0x010AC085)
 32: 0x0B22 [0x6F] WAIT_FRAME_DELAY: Yield until WaitTime reaches zero
 33: 0x0B23 [0x76] CHECK_ENTITY_RENDER_FLAGS: Wait until LocalPlayer Render.Flags0 and Render.Flags3 conditions are met
 34: 0x0B28 [0x79] Gloom Phantom (ID: 17481861/0x010AC085) looks at Raebrimm (ID: 17481860/0x010AC084) (Basic look)
 35: 0x0B32 [0x02] IF !(Work_Zone[9] == 8*) GOTO 0x0B4E
 36: 0x0B3A [0x45] LOAD_SCHEDULED_TASK: Load scheduler "s023" with entities [EventEntity, EventEntity], work=[830*, 0*]
 37: 0x0B4B [0x01] GOTO 0x0B97
 38: 0x0B4E [0x02] IF !(Work_Zone[9] == 5*) GOTO 0x0B6A
 39: 0x0B56 [0x45] LOAD_SCHEDULED_TASK: Load scheduler "s029" with entities [EventEntity, EventEntity], work=[830*, 0*]
 40: 0x0B67 [0x01] GOTO 0x0B97
 41: 0x0B6A [0x02] IF !(Work_Zone[9] == 6*) GOTO 0x0B86
 42: 0x0B72 [0x45] LOAD_SCHEDULED_TASK: Load scheduler "s029" with entities [EventEntity, EventEntity], work=[830*, 0*]
 43: 0x0B83 [0x01] GOTO 0x0B97
 44: 0x0B86 [0x45] LOAD_SCHEDULED_TASK: Load scheduler "s013" with entities [EventEntity, EventEntity], work=[830*, 0*]

SUBROUTINE_0B97:
 45: 0x0B97 [0x1A] CALL_SUBROUTINE(address=0x0043)
 46: 0x0B9A [0x1C] WAIT(60* ticks)
 47: 0x0B9D [0x79] LocalPlayer looks at Raebrimm (ID: 17481860/0x010AC084) (Basic look)
 48: 0x0BA7 [0x1C] WAIT(80* ticks)
 49: 0x0BAA [0x27] REQ_SET(priority=0x0F, entity_id=LocalPlayer, tag_num=0x12)
 50: 0x0BB1 [0x1C] WAIT(120* ticks)
 51: 0x0BB4 [0x02] IF !(Work_Zone[9] == 8*) GOTO 0x0BCE
 52: 0x0BBC [0x52] END_LOAD_SCHEDULER: End scheduler "s023" with entities [EventEntity, EventEntity], work=830*
 53: 0x0BCB [0x01] GOTO 0x0C11
 54: 0x0BCE [0x02] IF !(Work_Zone[9] == 5*) GOTO 0x0BE8
 55: 0x0BD6 [0x52] END_LOAD_SCHEDULER: End scheduler "s029" with entities [EventEntity, EventEntity], work=830*
 56: 0x0BE5 [0x01] GOTO 0x0C11
 57: 0x0BE8 [0x02] IF !(Work_Zone[9] == 6*) GOTO 0x0C02
 58: 0x0BF0 [0x52] END_LOAD_SCHEDULER: End scheduler "s029" with entities [EventEntity, EventEntity], work=830*
 59: 0x0BFF [0x01] GOTO 0x0C11
 60: 0x0C02 [0x52] END_LOAD_SCHEDULER: End scheduler "s013" with entities [EventEntity, EventEntity], work=830*

SUBROUTINE_0C11:
 61: 0x0C11 [0x45] LOAD_SCHEDULED_TASK: Load scheduler "s014" with entities [EventEntity, EventEntity], work=[830*, 0*]
 62: 0x0C22 [0x2A] GET_REQ_LEVEL(level=15, entity_id=LocalPlayer)
 63: 0x0C28 [0x1C] WAIT(20* ticks)
 64: 0x0C2B [0x4A] Raebrimm (ID: 17481860/0x010AC084) looks at LocalPlayer
 65: 0x0C34 [0x6F] WAIT_FRAME_DELAY: Yield until WaitTime reaches zero
 66: 0x0C35 [0x76] CHECK_ENTITY_RENDER_FLAGS: Wait until Raebrimm (ID: 17481860/0x010AC084) Render.Flags0 and Render.Flags3 conditions are met
 67: 0x0C3A [0xBA] SET_ENTITY_POSITION(entity_id=Gloom Phantom (ID: 17481861/0x010AC085), pos_x=137.624*, pos_z=-186.832*, pos_y=8.517*, direction=19.6°*)
 68: 0x0C47 [0x1C] WAIT(55* ticks)
 69: 0x0C4A [0x52] END_LOAD_SCHEDULER: End scheduler "s014" with entities [EventEntity, EventEntity], work=830*
 70: 0x0C59 [0x45] LOAD_SCHEDULED_TASK: Load scheduler "s079" with entities [EventEntity, EventEntity], work=[830*, 0*]
 71: 0x0C6A [0x1C] WAIT(200* ticks)
 72: 0x0C6D [0x2B] Raebrimm (ID: 17481860/0x010AC084) [10636*]:
    → "Who are...?"
 73: 0x0C74 [0x1C] WAIT(30* ticks)
 74: 0x0C77 [0x52] END_LOAD_SCHEDULER: End scheduler "s079" with entities [EventEntity, EventEntity], work=830*
 75: 0x0C86 [0x02] IF !(Work_Zone[9] == 8*) GOTO 0x0CA2
 76: 0x0C8E [0x45] LOAD_SCHEDULED_TASK: Load scheduler "s028" with entities [EventEntity, EventEntity], work=[830*, 0*]
 77: 0x0C9F [0x01] GOTO 0x0CEB
 78: 0x0CA2 [0x02] IF !(Work_Zone[9] == 5*) GOTO 0x0CBE
 79: 0x0CAA [0x45] LOAD_SCHEDULED_TASK: Load scheduler "s030" with entities [EventEntity, EventEntity], work=[830*, 0*]
 80: 0x0CBB [0x01] GOTO 0x0CEB
 81: 0x0CBE [0x02] IF !(Work_Zone[9] == 6*) GOTO 0x0CDA
 82: 0x0CC6 [0x45] LOAD_SCHEDULED_TASK: Load scheduler "s030" with entities [EventEntity, EventEntity], work=[830*, 0*]
 83: 0x0CD7 [0x01] GOTO 0x0CEB
 84: 0x0CDA [0x45] LOAD_SCHEDULED_TASK: Load scheduler "s016" with entities [EventEntity, EventEntity], work=[830*, 0*]

SUBROUTINE_0CEB:
 85: 0x0CEB [0x1C] WAIT(30* ticks)
 86: 0x0CEE [0x23] WAIT_FOR_DIALOG_INTERACTION
 87: 0x0CEF [0x5C] MUSIC_CONTROL: Set Idle (Day) music to song 26*
 88: 0x0CF3 [0x5C] MUSIC_CONTROL: Set Idle (Night) music to song 26*
 89: 0x0CF7 [0x5C] MUSIC_CONTROL: Set Combat (Solo) music to song 26*
 90: 0x0CFB [0x5C] MUSIC_CONTROL: Set Combat (Party) music to song 26*
 91: 0x0CFF [0x9A] WAIT_MUSIC_SERVER()
 92: 0x0D00 [0x5D] SET_MUSIC_VOLUME(volume=127*, fade_time=1*)
 93: 0x0D05 [0x27] REQ_SET(priority=0x0F, entity_id=Gloom Phantom (ID: 17481864/0x010AC088), tag_num=0x02)
 94: 0x0D0C [0x1C] WAIT(29* ticks)
 95: 0x0D0F [0x6C] FADE_ENTITY_COLOR(entity_id=Gloom Phantom (ID: 17481861/0x010AC085), end_alpha=128*, fade_time=1*)
 96: 0x0D18 [0x1C] WAIT(1* ticks)
 97: 0x0D1B [0x27] REQ_SET(priority=0x0F, entity_id=Gloom Phantom (ID: 17481861/0x010AC085), tag_num=0x03)
 98: 0x0D22 [0x1C] WAIT(40* ticks)
 99: 0x0D25 [0x4B] UPDATE_ENTITY_YAW(entity=LocalPlayer, yaw=21.7°*)
100: 0x0D2C [0x1C] WAIT(10* ticks)
101: 0x0D2F [0x02] IF !(Work_Zone[9] == 8*) GOTO 0x0D49
102: 0x0D37 [0x52] END_LOAD_SCHEDULER: End scheduler "s028" with entities [EventEntity, EventEntity], work=830*
103: 0x0D46 [0x01] GOTO 0x0D8C
104: 0x0D49 [0x02] IF !(Work_Zone[9] == 5*) GOTO 0x0D63
105: 0x0D51 [0x52] END_LOAD_SCHEDULER: End scheduler "s030" with entities [EventEntity, EventEntity], work=830*
106: 0x0D60 [0x01] GOTO 0x0D8C
107: 0x0D63 [0x02] IF !(Work_Zone[9] == 6*) GOTO 0x0D7D
108: 0x0D6B [0x52] END_LOAD_SCHEDULER: End scheduler "s030" with entities [EventEntity, EventEntity], work=830*
109: 0x0D7A [0x01] GOTO 0x0D8C
110: 0x0D7D [0x52] END_LOAD_SCHEDULER: End scheduler "s016" with entities [EventEntity, EventEntity], work=830*

SUBROUTINE_0D8C:
111: 0x0D8C [0x45] LOAD_SCHEDULED_TASK: Load scheduler "s080" with entities [EventEntity, EventEntity], work=[830*, 0*]
112: 0x0D9D [0x6C] FADE_ENTITY_COLOR(entity_id=Gloom Phantom (ID: 17481861/0x010AC085), end_alpha=0*, fade_time=1*)
113: 0x0DA6 [0x6C] FADE_ENTITY_COLOR(entity_id=Gloom Phantom (ID: 17481864/0x010AC088), end_alpha=128*, fade_time=1*)
114: 0x0DAF [0x1C] WAIT(60* ticks)
115: 0x0DB2 [0x1C] WAIT(20* ticks)
116: 0x0DB5 [0x52] END_LOAD_SCHEDULER: End scheduler "s080" with entities [EventEntity, EventEntity], work=830*
117: 0x0DC4 [0x45] LOAD_SCHEDULED_TASK: Load scheduler "s034" with entities [EventEntity, EventEntity], work=[830*, 0*]
118: 0x0DD5 [0x6C] FADE_ENTITY_COLOR(entity_id=Gloom Phantom (ID: 17481861/0x010AC085), end_alpha=128*, fade_time=1*)
119: 0x0DDE [0x6C] FADE_ENTITY_COLOR(entity_id=Gloom Phantom (ID: 17481864/0x010AC088), end_alpha=0*, fade_time=1*)
120: 0x0DE7 [0x4B] UPDATE_ENTITY_YAW(entity=Raebrimm (ID: 17481860/0x010AC084), yaw=9.3°*)
121: 0x0DEE [0x6F] WAIT_FRAME_DELAY: Yield until WaitTime reaches zero
122: 0x0DEF [0x76] CHECK_ENTITY_RENDER_FLAGS: Wait until Raebrimm (ID: 17481860/0x010AC084) Render.Flags0 and Render.Flags3 conditions are met
123: 0x0DF4 [0x5B] LOAD_EXT_SCHEDULER: Load scheduler "kos1" with entities [Raebrimm (ID: 17481860/0x010AC084), Raebrimm (ID: 17481860/0x010AC084)], work=90*
124: 0x0E03 [0x2B] Gloom Phantom (ID: 17481861/0x010AC085) [10637*]:
    → "Urk...!"
125: 0x0E0A [0x23] WAIT_FOR_DIALOG_INTERACTION
126: 0x0E0B [0x1C] WAIT(10* ticks)
127: 0x0E0E [0x79] LocalPlayer looks at Gloom Phantom (ID: 17481861/0x010AC085) (Basic look)
128: 0x0E18 [0x6F] WAIT_FRAME_DELAY: Yield until WaitTime reaches zero
129: 0x0E19 [0x76] CHECK_ENTITY_RENDER_FLAGS: Wait until LocalPlayer Render.Flags0 and Render.Flags3 conditions are met
130: 0x0E1E [0x52] END_LOAD_SCHEDULER: End scheduler "s034" with entities [EventEntity, EventEntity], work=830*
131: 0x0E2D [0x02] IF !(Work_Zone[9] == 2*) GOTO 0x0E49
132: 0x0E35 [0x45] LOAD_SCHEDULED_TASK: Load scheduler "s085" with entities [EventEntity, EventEntity], work=[830*, 0*]
133: 0x0E46 [0x01] GOTO 0x0EE6
134: 0x0E49 [0x02] IF !(Work_Zone[9] == 3*) GOTO 0x0E65
135: 0x0E51 [0x45] LOAD_SCHEDULED_TASK: Load scheduler "s081" with entities [EventEntity, EventEntity], work=[830*, 0*]
136: 0x0E62 [0x01] GOTO 0x0EE6
137: 0x0E65 [0x02] IF !(Work_Zone[9] == 5*) GOTO 0x0E81
138: 0x0E6D [0x45] LOAD_SCHEDULED_TASK: Load scheduler "s084" with entities [EventEntity, EventEntity], work=[830*, 0*]
139: 0x0E7E [0x01] GOTO 0x0EE6
140: 0x0E81 [0x02] IF !(Work_Zone[9] == 6*) GOTO 0x0E9D
141: 0x0E89 [0x45] LOAD_SCHEDULED_TASK: Load scheduler "s084" with entities [EventEntity, EventEntity], work=[830*, 0*]
142: 0x0E9A [0x01] GOTO 0x0EE6
143: 0x0E9D [0x02] IF !(Work_Zone[9] == 7*) GOTO 0x0EB9
144: 0x0EA5 [0x45] LOAD_SCHEDULED_TASK: Load scheduler "s085" with entities [EventEntity, EventEntity], work=[830*, 0*]
145: 0x0EB6 [0x01] GOTO 0x0EE6
146: 0x0EB9 [0x02] IF !(Work_Zone[9] == 8*) GOTO 0x0ED5
147: 0x0EC1 [0x45] LOAD_SCHEDULED_TASK: Load scheduler "s081" with entities [EventEntity, EventEntity], work=[830*, 0*]
148: 0x0ED2 [0x01] GOTO 0x0EE6
149: 0x0ED5 [0x45] LOAD_SCHEDULED_TASK: Load scheduler "s083" with entities [EventEntity, EventEntity], work=[830*, 0*]

SUBROUTINE_0EE6:
150: 0x0EE6 [0x1C] WAIT(1* ticks)
151: 0x0EE9 [0x6C] FADE_ENTITY_COLOR(entity_id=Gloom Phantom (ID: 17481861/0x010AC085), end_alpha=0*, fade_time=1*)
152: 0x0EF2 [0x1C] WAIT(30* ticks)
153: 0x0EF5 [0x1C] WAIT(10* ticks)
154: 0x0EF8 [0x1C] WAIT(10* ticks)
155: 0x0EFB [0x6C] FADE_ENTITY_COLOR(entity_id=Gloom Phantom (ID: 17481861/0x010AC085), end_alpha=128*, fade_time=1*)
156: 0x0F04 [0x02] IF !(Work_Zone[9] == 2*) GOTO 0x0F1E
157: 0x0F0C [0x52] END_LOAD_SCHEDULER: End scheduler "s085" with entities [EventEntity, EventEntity], work=830*
158: 0x0F1B [0x01] GOTO 0x0FAF
159: 0x0F1E [0x02] IF !(Work_Zone[9] == 3*) GOTO 0x0F38
160: 0x0F26 [0x52] END_LOAD_SCHEDULER: End scheduler "s081" with entities [EventEntity, EventEntity], work=830*
161: 0x0F35 [0x01] GOTO 0x0FAF
162: 0x0F38 [0x02] IF !(Work_Zone[9] == 5*) GOTO 0x0F52
163: 0x0F40 [0x52] END_LOAD_SCHEDULER: End scheduler "s084" with entities [EventEntity, EventEntity], work=830*
164: 0x0F4F [0x01] GOTO 0x0FAF
165: 0x0F52 [0x02] IF !(Work_Zone[9] == 6*) GOTO 0x0F6C
166: 0x0F5A [0x52] END_LOAD_SCHEDULER: End scheduler "s084" with entities [EventEntity, EventEntity], work=830*
167: 0x0F69 [0x01] GOTO 0x0FAF
168: 0x0F6C [0x02] IF !(Work_Zone[9] == 7*) GOTO 0x0F86
169: 0x0F74 [0x52] END_LOAD_SCHEDULER: End scheduler "s085" with entities [EventEntity, EventEntity], work=830*
170: 0x0F83 [0x01] GOTO 0x0FAF
171: 0x0F86 [0x02] IF !(Work_Zone[9] == 8*) GOTO 0x0FA0
172: 0x0F8E [0x52] END_LOAD_SCHEDULER: End scheduler "s081" with entities [EventEntity, EventEntity], work=830*
173: 0x0F9D [0x01] GOTO 0x0FAF
174: 0x0FA0 [0x52] END_LOAD_SCHEDULER: End scheduler "s083" with entities [EventEntity, EventEntity], work=830*

SUBROUTINE_0FAF:
175: 0x0FAF [0x45] LOAD_SCHEDULED_TASK: Load scheduler "s019" with entities [EventEntity, EventEntity], work=[830*, 0*]
176: 0x0FC0 [0x6C] FADE_ENTITY_COLOR(entity_id=LocalPlayer, end_alpha=128*, fade_time=1*)
177: 0x0FC9 [0x2A] GET_REQ_LEVEL(level=15, entity_id=Gloom Phantom (ID: 17481861/0x010AC085))
178: 0x0FCF [0x2A] GET_REQ_LEVEL(level=15, entity_id=Gloom Phantom (ID: 17481864/0x010AC088))
179: 0x0FD5 [0x1C] WAIT(2* ticks)
180: 0x0FD8 [0x4A] Gloom Phantom (ID: 17481861/0x010AC085) looks at Raebrimm (ID: 17481860/0x010AC084)
181: 0x0FE1 [0x6F] WAIT_FRAME_DELAY: Yield until WaitTime reaches zero
182: 0x0FE2 [0x76] CHECK_ENTITY_RENDER_FLAGS: Wait until Gloom Phantom (ID: 17481861/0x010AC085) Render.Flags0 and Render.Flags3 conditions are met
183: 0x0FE7 [0x4A] LocalPlayer looks at Gloom Phantom (ID: 17481861/0x010AC085)
184: 0x0FF0 [0x52] END_LOAD_SCHEDULER: End scheduler "s019" with entities [EventEntity, EventEntity], work=830*
185: 0x0FFF [0x45] LOAD_SCHEDULED_TASK: Load scheduler "s018" with entities [EventEntity, EventEntity], work=[830*, 0*]
186: 0x1010 [0x1C] WAIT(1* ticks)
187: 0x1013 [0x6C] FADE_ENTITY_COLOR(entity_id=LocalPlayer, end_alpha=0*, fade_time=1*)
188: 0x101C [0xBA] SET_ENTITY_POSITION(entity_id=LocalPlayer, pos_x=142.070*, pos_z=-198.851*, pos_y=8.234*, direction=81.8°*)
189: 0x1029 [0x29] REQ_SET_WAIT(priority=0x0F, entity_id=Gloom Phantom (ID: 17481861/0x010AC085), tag_num=0x05)
190: 0x1030 [0x2B] Gloom Phantom (ID: 17481861/0x010AC085) [10638*]:
    → "Get away from him!"
191: 0x1037 [0x23] WAIT_FOR_DIALOG_INTERACTION
192: 0x1038 [0x53] WAIT_SCHEDULER_TASK: Wait for scheduler "kos1" with entities [Raebrimm (ID: 17481860/0x010AC084), Raebrimm (ID: 17481860/0x010AC084)]
193: 0x1045 [0x52] END_LOAD_SCHEDULER: End scheduler "s018" with entities [EventEntity, EventEntity], work=830*
194: 0x1054 [0x45] LOAD_SCHEDULED_TASK: Load scheduler "s024" with entities [EventEntity, EventEntity], work=[830*, 0*]
195: 0x1065 [0x1C] WAIT(1* ticks)
196: 0x1068 [0x6C] FADE_ENTITY_COLOR(entity_id=LocalPlayer, end_alpha=128*, fade_time=1*)
197: 0x1071 [0x7B] Raebrimm (ID: 17481860/0x010AC084) stops talking
198: 0x1076 [0x6B] STOP_AND_IDLE: Raebrimm (ID: 17481860/0x010AC084) stops current action and resets to idle (animation="idl0")
199: 0x107F [0x79] Raebrimm (ID: 17481860/0x010AC084) looks at LocalPlayer (Basic look)
200: 0x1089 [0x6C] FADE_ENTITY_COLOR(entity_id=Makarim (ID: 17481828/0x010AC064), end_alpha=128*, fade_time=1*)
201: 0x1092 [0x2B] Gloom Phantom (ID: 17481861/0x010AC085) [10639*]:
    → "Graaah!"
202: 0x1099 [0x23] WAIT_FOR_DIALOG_INTERACTION
203: 0x109A [0x2C] CREATE_SCHEDULER_TASK: Create scheduler "ati0" with entities [Gloom Phantom (ID: 17481861/0x010AC085), Makarim (ID: 17481828/0x010AC064)]
204: 0x10A7 [0x1C] WAIT(30* ticks)
205: 0x10AA [0x52] END_LOAD_SCHEDULER: End scheduler "s024" with entities [EventEntity, EventEntity], work=830*
206: 0x10B9 [0x45] LOAD_SCHEDULED_TASK: Load scheduler "b000" with entities [EventEntity, EventEntity], work=[830*, 0*]
207: 0x10CA [0x6C] FADE_ENTITY_COLOR(entity_id=Makarim (ID: 17481828/0x010AC064), end_alpha=0*, fade_time=1*)
208: 0x10D3 [0x9F] LOAD_SCHEDULED_TASK_ALT: Load scheduler "main" with entities [Gloom Phantom (ID: 17481861/0x010AC085), Gloom Phantom (ID: 17481861/0x010AC085)], work=[112*, 0*]
209: 0x10E4 [0x1C] WAIT(90* ticks)
210: 0x10E7 [0x1C] WAIT(30* ticks)
211: 0x10EA [0x1C] WAIT(30* ticks)
212: 0x10ED [0x9F] LOAD_SCHEDULED_TASK_ALT: Load scheduler "kill" with entities [Gloom Phantom (ID: 17481861/0x010AC085), Gloom Phantom (ID: 17481861/0x010AC085)], work=[112*, 0*]
213: 0x10FE [0x27] REQ_SET(priority=0x0F, entity_id=Raebrimm (ID: 17481860/0x010AC084), tag_num=0x05)
214: 0x1105 [0x45] LOAD_SCHEDULED_TASK: Load scheduler "s026" with entities [EventEntity, EventEntity], work=[830*, 0*]
215: 0x1116 [0x1C] WAIT(10* ticks)
216: 0x1119 [0x6F] WAIT_FRAME_DELAY: Yield until WaitTime reaches zero
217: 0x111A [0x76] CHECK_ENTITY_RENDER_FLAGS: Wait until LocalPlayer Render.Flags0 and Render.Flags3 conditions are met
218: 0x111F [0x52] END_LOAD_SCHEDULER: End scheduler "s026" with entities [EventEntity, EventEntity], work=830*
219: 0x112E [0x02] IF !(Work_Zone[9] == 2*) GOTO 0x1154
220: 0x1136 [0x45] LOAD_SCHEDULED_TASK: Load scheduler "s086" with entities [EventEntity, EventEntity], work=[830*, 0*]
221: 0x1147 [0x79] LocalPlayer looks at Gloom Phantom (ID: 17481861/0x010AC085) (Basic look)
222: 0x1151 [0x01] GOTO 0x1225
223: 0x1154 [0x02] IF !(Work_Zone[9] == 5*) GOTO 0x117A
224: 0x115C [0x45] LOAD_SCHEDULED_TASK: Load scheduler "s031" with entities [EventEntity, EventEntity], work=[830*, 0*]
225: 0x116D [0x79] LocalPlayer looks at Gloom Phantom (ID: 17481861/0x010AC085) (Basic look)
226: 0x1177 [0x01] GOTO 0x1225
227: 0x117A [0x02] IF !(Work_Zone[9] == 6*) GOTO 0x11A0
228: 0x1182 [0x45] LOAD_SCHEDULED_TASK: Load scheduler "s031" with entities [EventEntity, EventEntity], work=[830*, 0*]
229: 0x1193 [0x79] LocalPlayer looks at Gloom Phantom (ID: 17481861/0x010AC085) (Basic look)
230: 0x119D [0x01] GOTO 0x1225
231: 0x11A0 [0x02] IF !(Work_Zone[9] == 7*) GOTO 0x11D0
232: 0x11A8 [0x45] LOAD_SCHEDULED_TASK: Load scheduler "s086" with entities [EventEntity, EventEntity], work=[830*, 0*]
233: 0x11B9 [0x4A] LocalPlayer looks at Gloom Phantom (ID: 17481861/0x010AC085)
234: 0x11C2 [0x6F] WAIT_FRAME_DELAY: Yield until WaitTime reaches zero
235: 0x11C3 [0x76] CHECK_ENTITY_RENDER_FLAGS: Wait until LocalPlayer Render.Flags0 and Render.Flags3 conditions are met
236: 0x11C8 [0x7B] LocalPlayer stops talking
237: 0x11CD [0x01] GOTO 0x1225
238: 0x11D0 [0x02] IF !(Work_Zone[9] == 8*) GOTO 0x120A
239: 0x11D8 [0x45] LOAD_SCHEDULED_TASK: Load scheduler "s025" with entities [EventEntity, EventEntity], work=[830*, 0*]
240: 0x11E9 [0x4A] LocalPlayer looks at Gloom Phantom (ID: 17481861/0x010AC085)
241: 0x11F2 [0x6F] WAIT_FRAME_DELAY: Yield until WaitTime reaches zero
242: 0x11F3 [0x76] CHECK_ENTITY_RENDER_FLAGS: Wait until LocalPlayer Render.Flags0 and Render.Flags3 conditions are met
243: 0x11F8 [0x7B] LocalPlayer stops talking
244: 0x11FD [0x79] LocalPlayer looks at Gloom Phantom (ID: 17481861/0x010AC085) (Basic look)
245: 0x1207 [0x01] GOTO 0x1225
246: 0x120A [0x45] LOAD_SCHEDULED_TASK: Load scheduler "s022" with entities [EventEntity, EventEntity], work=[830*, 0*]
247: 0x121B [0x79] LocalPlayer looks at Gloom Phantom (ID: 17481861/0x010AC085) (Basic look)

SUBROUTINE_1225:
248: 0x1225 [0x7B] Raebrimm (ID: 17481860/0x010AC084) stops talking
249: 0x122A [0x4A] Gloom Phantom (ID: 17481861/0x010AC085) looks at LocalPlayer
250: 0x1233 [0x29] REQ_SET_WAIT(priority=0x0F, entity_id=LocalPlayer, tag_num=0x13)
251: 0x123A [0x1C] WAIT(60* ticks)
252: 0x123D [0x6F] WAIT_FRAME_DELAY: Yield until WaitTime reaches zero
253: 0x123E [0x76] CHECK_ENTITY_RENDER_FLAGS: Wait until Gloom Phantom (ID: 17481861/0x010AC085) Render.Flags0 and Render.Flags3 conditions are met
254: 0x1243 [0x2A] GET_REQ_LEVEL(level=15, entity_id=Raebrimm (ID: 17481860/0x010AC084))
255: 0x1249 [0x79] Raebrimm (ID: 17481860/0x010AC084) looks at Gloom Phantom (ID: 17481861/0x010AC085) (Basic look)
256: 0x1253 [0x02] IF !(Work_Zone[9] == 2*) GOTO 0x126D
257: 0x125B [0x52] END_LOAD_SCHEDULER: End scheduler "s086" with entities [EventEntity, EventEntity], work=830*
258: 0x126A [0x01] GOTO 0x12E4
259: 0x126D [0x02] IF !(Work_Zone[9] == 5*) GOTO 0x1287
260: 0x1275 [0x52] END_LOAD_SCHEDULER: End scheduler "s031" with entities [EventEntity, EventEntity], work=830*
261: 0x1284 [0x01] GOTO 0x12E4
262: 0x1287 [0x02] IF !(Work_Zone[9] == 6*) GOTO 0x12A1
263: 0x128F [0x52] END_LOAD_SCHEDULER: End scheduler "s031" with entities [EventEntity, EventEntity], work=830*
264: 0x129E [0x01] GOTO 0x12E4
265: 0x12A1 [0x02] IF !(Work_Zone[9] == 7*) GOTO 0x12BB
266: 0x12A9 [0x52] END_LOAD_SCHEDULER: End scheduler "s086" with entities [EventEntity, EventEntity], work=830*
267: 0x12B8 [0x01] GOTO 0x12E4
268: 0x12BB [0x02] IF !(Work_Zone[9] == 8*) GOTO 0x12D5
269: 0x12C3 [0x52] END_LOAD_SCHEDULER: End scheduler "s025" with entities [EventEntity, EventEntity], work=830*
270: 0x12D2 [0x01] GOTO 0x12E4
271: 0x12D5 [0x52] END_LOAD_SCHEDULER: End scheduler "s022" with entities [EventEntity, EventEntity], work=830*

SUBROUTINE_12E4:
272: 0x12E4 [0x02] IF !(Work_Zone[9] == 8*) GOTO 0x1300
273: 0x12EC [0x45] LOAD_SCHEDULED_TASK: Load scheduler "s082" with entities [EventEntity, EventEntity], work=[830*, 0*]
274: 0x12FD [0x01] GOTO 0x1349
275: 0x1300 [0x02] IF !(Work_Zone[9] == 5*) GOTO 0x131C
276: 0x1308 [0x45] LOAD_SCHEDULED_TASK: Load scheduler "s032" with entities [EventEntity, EventEntity], work=[830*, 0*]
277: 0x1319 [0x01] GOTO 0x1349
278: 0x131C [0x02] IF !(Work_Zone[9] == 6*) GOTO 0x1338
279: 0x1324 [0x45] LOAD_SCHEDULED_TASK: Load scheduler "s032" with entities [EventEntity, EventEntity], work=[830*, 0*]
280: 0x1335 [0x01] GOTO 0x1349
281: 0x1338 [0x45] LOAD_SCHEDULED_TASK: Load scheduler "s020" with entities [EventEntity, EventEntity], work=[830*, 0*]

SUBROUTINE_1349:
282: 0x1349 [0x2B] Gloom Phantom (ID: 17481861/0x010AC085) [10640*]:
    → "Hm...?"
283: 0x1350 [0x23] WAIT_FOR_DIALOG_INTERACTION
284: 0x1351 [0x1C] WAIT(60* ticks)
285: 0x1354 [0x2B] Gloom Phantom (ID: 17481861/0x010AC085) [10641*]:
    → "You're with them, is it!?"
286: 0x135B [0x23] WAIT_FOR_DIALOG_INTERACTION
287: 0x135C [0x02] IF !(Work_Zone[9] == 8*) GOTO 0x1376
288: 0x1364 [0x52] END_LOAD_SCHEDULER: End scheduler "s082" with entities [EventEntity, EventEntity], work=830*
289: 0x1373 [0x01] GOTO 0x13B9
290: 0x1376 [0x02] IF !(Work_Zone[9] == 5*) GOTO 0x1390
291: 0x137E [0x52] END_LOAD_SCHEDULER: End scheduler "s032" with entities [EventEntity, EventEntity], work=830*
292: 0x138D [0x01] GOTO 0x13B9
293: 0x1390 [0x02] IF !(Work_Zone[9] == 6*) GOTO 0x13AA
294: 0x1398 [0x52] END_LOAD_SCHEDULER: End scheduler "s032" with entities [EventEntity, EventEntity], work=830*
295: 0x13A7 [0x01] GOTO 0x13B9
296: 0x13AA [0x52] END_LOAD_SCHEDULER: End scheduler "s020" with entities [EventEntity, EventEntity], work=830*

SUBROUTINE_13B9:
297: 0x13B9 [0x45] LOAD_SCHEDULED_TASK: Load scheduler "s021" with entities [EventEntity, EventEntity], work=[830*, 0*]
298: 0x13CA [0x4E] SET_ENTITY_HIDE_FLAG: Hide LocalPlayer
299: 0x13D0 [0x1C] WAIT(30* ticks)
300: 0x13D3 [0x2B] Gloom Phantom (ID: 17481861/0x010AC085) [10642*]:
    → "Then I'll have to slice you to ribbons!"
301: 0x13DA [0x23] WAIT_FOR_DIALOG_INTERACTION
302: 0x13DB [0x5D] SET_MUSIC_VOLUME(volume=0*, fade_time=200*)
303: 0x13E0 [0x1A] CALL_SUBROUTINE(address=0x0064)
304: 0x13E3 [0x52] END_LOAD_SCHEDULER: End scheduler "s021" with entities [EventEntity, EventEntity], work=830*
305: 0x13F2 [0x45] LOAD_SCHEDULED_TASK: Load scheduler "s001" with entities [EventEntity, EventEntity], work=[830*, 0*]
306: 0x1403 [0x4E] SET_ENTITY_HIDE_FLAG: Show LocalPlayer
307: 0x1409 [0x29] REQ_SET_WAIT(priority=0x0F, entity_id=LocalPlayer, tag_num=0x14)
308: 0x1410 [0x29] REQ_SET_WAIT(priority=0x0F, entity_id=Gloom Phantom (ID: 17481861/0x010AC085), tag_num=0x06)
309: 0x1417 [0x29] REQ_SET_WAIT(priority=0x10, entity_id=Raebrimm (ID: 17481860/0x010AC084), tag_num=0x04)
310: 0x141E [0x6C] FADE_ENTITY_COLOR(entity_id=Makarim (ID: 17481828/0x010AC064), end_alpha=128*, fade_time=1*)
311: 0x1427 [0x92] Makarim (ID: 17481828/0x010AC064)->Render.Flags3 = Flags3  // No change (flag=0)
312: 0x142D [0x52] END_LOAD_SCHEDULER: End scheduler "s001" with entities [EventEntity, EventEntity], work=830*
313: 0x143C [0x45] LOAD_SCHEDULED_TASK: Load scheduler "s021" with entities [EventEntity, EventEntity], work=[830*, 0*]
314: 0x144D [0x5C] MUSIC_CONTROL: Set Idle (Day) music to song 0*
315: 0x1451 [0x5C] MUSIC_CONTROL: Set Idle (Night) music to song 0*
316: 0x1455 [0x5C] MUSIC_CONTROL: Set Combat (Solo) music to song 115*
317: 0x1459 [0x5C] MUSIC_CONTROL: Set Combat (Party) music to song 102*
318: 0x145D [0x9A] WAIT_MUSIC_SERVER()
319: 0x145E [0x5D] SET_MUSIC_VOLUME(volume=127*, fade_time=1*)
320: 0x1463 [0x1C] WAIT(2* ticks)
321: 0x1466 [0x52] END_LOAD_SCHEDULER: End scheduler "s021" with entities [EventEntity, EventEntity], work=830*
322: 0x1475 [0x45] LOAD_SCHEDULED_TASK: Load scheduler "b000" with entities [EventEntity, EventEntity], work=[830*, 0*]
323: 0x1486 [0x1C] WAIT(15* ticks)
324: 0x1489 [0xAB] EventEntity->DespawnValue = 0* // Set despawn value
325: 0x148D [0x1C] WAIT(1* ticks)
326: 0x1490 [0x46] CAMERA_CONTROL: Restore default settings
327: 0x1492 [0x45] LOAD_SCHEDULED_TASK: Load scheduler "fdi2" with entities [EventEntity, EventEntity], work=[200*, 0*]
328: 0x14A3 [0x21] END_EVENT
329: 0x14A4 [0x00] END_REQSTACK()
```

### Event 224

#### Metadata

| Field        | Value      |
|--------------|------------|
| Entrypoint   | 0x14A5     |
| Data Size    | 4921 bytes |
| Instructions | 568        |

```
      00 01 02 03 04 05 06 07  08 09 0A 0B 0C 0D 0E 0F
      -- -- -- -- -- -- -- --  -- -- -- -- -- -- -- --
14A0:                42 1A 64  00 46 01 38 08 80 5D 01       B.d.F.8..].
14B0: 80 09 80 2F 00 82 C0 0A  01 2F 00 83 C0 0A 01 2F  .../...../...../
14C0: 00 84 C0 0A 01 2F 00 85  C0 0A 01 4E 00 82 C0 0A  ...../.....N....
14D0: 01 4E 00 83 C0 0A 01 4E  00 84 C0 0A 01 4E 00 85  .N.....N.....N..
14E0: C0 0A 01 29 10 84 C0 0A  01 03 29 10 85 C0 0A 01  ...)......).....
14F0: 07 94 01 82 C0 0A 01 94  01 83 C0 0A 01 94 01 84  ................
1500: C0 0A 01 94 01 85 C0 0A  01 94 01 64 C0 0A 01 94  ...........d....
1510: 01 5E C0 0A 01 94 01 F0  FF FF 7F BA F0 FF FF 7F  .^..............
1520: 64 80 65 80 66 80 67 80  59 05 85 C0 0A 01 01 BA  d.e.f.g.Y.......
1530: 85 C0 0A 01 68 80 69 80  6A 80 6B 80 BA 82 C0 0A  ....h.i.j.k.....
1540: 01 6C 80 6D 80 6E 80 45  80 BA 84 C0 0A 01 6F 80  .l.m.n.E......o.
1550: 70 80 71 80 72 80 29 10  83 C0 0A 01 03 BA 83 C0  p.q.r.).........
1560: 0A 01 73 80 74 80 75 80  76 80 29 10 83 C0 0A 01  ..s.t.u.v.).....
1570: 03 BA 64 C0 0A 01 77 80  78 80 79 80 7A 80 BA 5E  ..d...w.x.y.z..^
1580: C0 0A 01 7B 80 7C 80 7D  80 7E 80 80 82 C0 0A 01  ...{.|.}.~......
1590: 80 83 C0 0A 01 80 84 C0  0A 01 80 85 C0 0A 01 80  ................
15A0: 64 C0 0A 01 80 5E C0 0A  01 80 F0 FF FF 7F 6C 82  d....^........l.
15B0: C0 0A 01 01 80 03 80 6C  83 C0 0A 01 01 80 03 80  .......l........
15C0: 6C 64 C0 0A 01 01 80 03  80 6C 5E C0 0A 01 01 80  ld.......l^.....
15D0: 03 80 4A 84 C0 0A 01 85  C0 0A 01 79 00 F0 FF FF  ..J........y....
15E0: 7F 85 C0 0A 01 5C 00 7F  80 5C 01 7F 80 9A 5D 10  .....\...\....].
15F0: 80 03 80 5B 07 80 85 C0  0A 01 85 C0 0A 01 63 6F  ...[..........co
1600: 72 30 53 85 C0 0A 01 85  C0 0A 01 63 6F 72 30 2C  r0S........cor0,
1610: 85 C0 0A 01 85 C0 0A 01  77 70 6F 66 6F 76 84 C0  ........wpofov..
1620: 0A 01 6F 76 F0 FF FF 7F  79 00 84 C0 0A 01 85 C0  ..ov....y.......
1630: 0A 01 29 0F F0 FF FF 7F  11 45 13 80 F8 FF FF 7F  ..)......E......
1640: F8 FF FF 7F 73 30 33 35  01 80 1A 43 00 1C 46 80  ....s035...C..F.
1650: 5B 07 80 85 C0 0A 01 85  C0 0A 01 6F 6B 69 30 1C  [..........oki0.
1660: 46 80 52 13 80 F8 FF FF  7F F8 FF FF 7F 73 30 33  F.R..........s03
1670: 35 45 13 80 F8 FF FF 7F  F8 FF FF 7F 73 30 33 36  5E..........s036
1680: 01 80 1C 06 80 2B 85 C0  0A 01 80 80 53 85 C0 0A  .....+......S...
1690: 01 85 C0 0A 01 6F 6B 69  30 5B 07 80 85 C0 0A 01  .....oki0[......
16A0: 85 C0 0A 01 74 6C 6B 32  23 53 85 C0 0A 01 85 C0  ....tlk2#S......
16B0: 0A 01 74 6C 6B 32 52 13  80 F8 FF FF 7F F8 FF FF  ..tlk2R.........
16C0: 7F 73 30 33 36 02 09 10  12 80 00 E1 16 45 13 80  .s036........E..
16D0: F8 FF FF 7F F8 FF FF 7F  73 30 36 37 01 80 01 0E  ........s067....
16E0: 17 02 09 10 14 80 00 FD  16 45 13 80 F8 FF FF 7F  .........E......
16F0: F8 FF FF 7F 73 30 36 37  01 80 01 0E 17 45 13 80  ....s067.....E..
1700: F8 FF FF 7F F8 FF FF 7F  73 30 33 37 01 80 5B 07  ........s037..[.
1710: 80 85 C0 0A 01 85 C0 0A  01 74 69 64 30 2B 85 C0  .........tid0+..
1720: 0A 01 81 80 23 53 85 C0  0A 01 85 C0 0A 01 74 69  ....#S........ti
1730: 64 30 5B 07 80 85 C0 0A  01 85 C0 0A 01 6F 6B 69  d0[..........oki
1740: 30 02 09 10 12 80 00 5B  17 52 13 80 F8 FF FF 7F  0......[.R......
1750: F8 FF FF 7F 73 30 36 37  01 84 17 02 09 10 14 80  ....s067........
1760: 00 75 17 52 13 80 F8 FF  FF 7F F8 FF FF 7F 73 30  .u.R..........s0
1770: 36 37 01 84 17 52 13 80  F8 FF FF 7F F8 FF FF 7F  67...R..........
1780: 73 30 33 37 45 13 80 F8  FF FF 7F F8 FF FF 7F 73  s037E..........s
1790: 30 33 38 01 80 4E 01 F0  FF FF 7F 79 00 84 C0 0A  038..N.....y....
17A0: 01 64 C0 0A 01 1C 47 80  BA F0 FF FF 7F 82 80 83  .d....G.........
17B0: 80 84 80 85 80 59 05 85  C0 0A 01 00 53 85 C0 0A  .....Y......S...
17C0: 01 85 C0 0A 01 6F 6B 69  30 6B 69 64 6C 30 85 C0  .....oki0kidl0..
17D0: 0A 01 1C 05 80 5B 86 80  85 C0 0A 01 85 C0 0A 01  .....[..........
17E0: 61 6E 67 30 1C 12 80 4E  00 F0 FF FF 7F 52 13 80  ang0...N.....R..
17F0: F8 FF FF 7F F8 FF FF 7F  73 30 33 38 45 13 80 F8  ........s038E...
1800: FF FF 7F F8 FF FF 7F 73  30 33 39 01 80 1C 12 80  .......s039.....
1810: 29 0F 84 C0 0A 01 07 6E  F0 FF FF 7F 87 80 99 F0  )......n........
1820: FF FF 7F 2B 85 C0 0A 01  88 80 23 53 85 C0 0A 01  ...+......#S....
1830: 85 C0 0A 01 61 6E 67 30  52 13 80 F8 FF FF 7F F8  ....ang0R.......
1840: FF FF 7F 73 30 33 39 45  13 80 F8 FF FF 7F F8 FF  ...s039E........
1850: FF 7F 73 30 34 30 01 80  27 0F 85 C0 0A 01 09 27  ..s040..'......'
1860: 0F 84 C0 0A 01 09 1C 06  80 1C 19 80 1C 18 80 27  ...............'
1870: 0F F0 FF FF 7F 15 1C 18  80 52 13 80 F8 FF FF 7F  .........R......
1880: F8 FF FF 7F 73 30 34 30  45 13 80 F8 FF FF 7F F8  ....s040E.......
1890: FF FF 7F 73 30 34 38 01  80 79 00 84 C0 0A 01 F0  ...s048..y......
18A0: FF FF 7F 1C 06 80 2A 0F  84 C0 0A 01 27 0F 84 C0  ......*.....'...
18B0: 0A 01 06 1C 12 80 52 13  80 F8 FF FF 7F F8 FF FF  ......R.........
