# 0x7FFFFFF0 - Zone Events

## Common Data

| Field            | Value                  |
|------------------|------------------------|
| Zone             | Zeruhn Mines (ID: 172) |
| Block Size       | 3012 bytes             |
| Total Events     | 27                     |
| References Count | 130                    |

## List of Events

| Event ID                   | Entrypoint   |   Size |   Instructions |
|----------------------------|--------------|--------|----------------|
| [65535](#event-65535)      | 0x0000       |      1 |              1 |
| [150](#event-150)          | 0x0001       |    166 |             29 |
| [151](#event-151)          | 0x00A7       |    156 |             27 |
| [130](#event-130)          | 0x0143       |    445 |             57 |
| [131](#event-131)          | 0x0300       |    151 |             24 |
| [65534](#event-65534)      | 0x0397       |      1 |              1 |
| [182](#event-182)          | 0x0398       |     13 |              3 |
| [183](#event-183)          | 0x03A5       |     10 |              2 |
| [184](#event-184)          | 0x03AF       |     14 |              4 |
| [185](#event-185)          | 0x03BD       |     13 |              3 |
| [186](#event-186)          | 0x03CA       |     10 |              2 |
| [187](#event-187)          | 0x03D4       |     14 |              4 |
| [200](#event-200)          | 0x03E2       |    468 |             62 |
| [202](#event-202)          | 0x05B6       |    443 |             57 |
| [204](#event-204)          | 0x0771       |    287 |             39 |
| [65535.1](#event-655351)   | 0x0890       |     15 |              5 |
| [65535.2](#event-655352)   | 0x089F       |     15 |              5 |
| [65535.3](#event-655353)   | 0x08AE       |      6 |              2 |
| [65535.4](#event-655354)   | 0x08B4       |     15 |              5 |
| [65535.5](#event-655355)   | 0x08C3       |      7 |              3 |
| [65535.6](#event-655356)   | 0x08CA       |      7 |              3 |
| [65535.7](#event-655357)   | 0x08D1       |     20 |              6 |
| [65535.8](#event-655358)   | 0x08E5       |     15 |              5 |
| [65535.9](#event-655359)   | 0x08F4       |     15 |              5 |
| [65535.10](#event-6553510) | 0x0903       |     15 |              5 |
| [65535.11](#event-6553511) | 0x0912       |     28 |              8 |
| [65535.12](#event-6553512) | 0x092E       |     15 |              5 |

## DAT References (imed_data)

|   Index | Hex Value   |   Dec Value |
|---------|-------------|-------------|
|       0 | 0xFFFED8CB  |  4294891723 |
|       1 | 0xECC4      |       60612 |
|       2 | 0x0022      |          34 |
|       3 | 0x0FDC      |        4060 |
|       4 | 0xFFFE6BFA  |  4294863866 |
|       5 | 0x10B68     |       68456 |
|       6 | 0x08D9      |        2265 |
|       7 | 0x01EC      |         492 |
|       8 | 0x00C8      |         200 |
|       9 | 0x0000      |           0 |
|      10 | 0xFFFE6C1A  |  4294863898 |
|      11 | 0x104DF     |       66783 |
|      12 | 0xFFFE7590  |  4294866320 |
|      13 | 0xECFF      |       60671 |
|      14 | 0x05DB      |        1499 |
|      15 | 0xFFFE82F9  |  4294869753 |
|      16 | 0xE637      |       58935 |
|      17 | 0xFFFEBB84  |  4294884228 |
|      18 | 0xE771      |       59249 |
|      19 | 0x0145      |         325 |
|      20 | 0x003C      |          60 |
|      21 | 0x0014      |          20 |
|      22 | 0xFFFEC9CC  |  4294887884 |
|      23 | 0xECC3      |       60611 |
|      24 | 0x001E      |          30 |
|      25 | 0xFFFE92DA  |  4294873818 |
|      26 | 0x10B07     |       68359 |
|      27 | 0x016F      |         367 |
|      28 | 0xFFFE95B9  |  4294874553 |
|      29 | 0x10638     |       67128 |
|      30 | 0xFFFE9B2E  |  4294875950 |
|      31 | 0xF025      |       61477 |
|      32 | 0xFFFEBF59  |  4294885209 |
|      33 | 0xE773      |       59251 |
|      34 | 0x0095      |         149 |
|      35 | 0xFFFED8CC  |  4294891724 |
|      36 | 0x00BE      |         190 |
|      37 | 0x000D      |          13 |
|      38 | 0xFFFE6AD0  |  4294863568 |
|      39 | 0x10A6B     |       68203 |
|      40 | 0x01FF      |         511 |
|      41 | 0xFFFE7321  |  4294865697 |
|      42 | 0xEF0B      |       61195 |
|      43 | 0x05DC      |        1500 |
|      44 | 0x0078      |         120 |
|      45 | 0x1CAF      |        7343 |
|      46 | 0x0C58      |        3160 |
|      47 | 0x1CB0      |        7344 |
|      48 | 0x1CB1      |        7345 |
|      49 | 0x1CB2      |        7346 |
|      50 | 0x000A      |          10 |
|      51 | 0x00F3      |         243 |
|      52 | 0x1CB3      |        7347 |
|      53 | 0x1CB4      |        7348 |
|      54 | 0x1CB5      |        7349 |
|      55 | 0xFFFE72D2  |  4294865618 |
|      56 | 0xEF77      |       61303 |
|      57 | 0x0003      |           3 |
|      58 | 0x40DF      |       16607 |
|      59 | 0x1CB6      |        7350 |
|      60 | 0xFFFEBDA5  |  4294884773 |
|      61 | 0x4DE5      |       19941 |
|      62 | 0x011D      |         285 |
|      63 | 0x07FE      |        2046 |
|      64 | 0xFFFED18E  |  4294889870 |
|      65 | 0x4DAA      |       19882 |
|      66 | 0x07ED      |        2029 |
|      67 | 0x0FEB      |        4075 |
|      68 | 0x010A      |         266 |
|      69 | 0x0013      |          19 |
|      70 | 0xFFFEDB87  |  4294892423 |
|      71 | 0xE440      |       58432 |
|      72 | 0x0015      |          21 |
|      73 | 0x0975      |        2421 |
|      74 | 0x00EF      |         239 |
|      75 | 0x1CCF      |        7375 |
|      76 | 0x0045      |          69 |
|      77 | 0x1CD0      |        7376 |
|      78 | 0x1CD1      |        7377 |
|      79 | 0x1CD2      |        7378 |
|      80 | 0x1CD3      |        7379 |
|      81 | 0x1CD4      |        7380 |
|      82 | 0x1CD5      |        7381 |
|      83 | 0x1CD6      |        7382 |
|      84 | 0x1CD7      |        7383 |
|      85 | 0x1CD8      |        7384 |
|      86 | 0x1CD9      |        7385 |
|      87 | 0x0064      |         100 |
|      88 | 0x1CDA      |        7386 |
|      89 | 0x1CDB      |        7387 |
|      90 | 0x1CDC      |        7388 |
|      91 | 0x0001      |           1 |
|      92 | 0x1CDD      |        7389 |
|      93 | 0x1CDE      |        7390 |
|      94 | 0x0006      |           6 |
|      95 | 0x1CDF      |        7391 |
|      96 | 0x1CE0      |        7392 |
|      97 | 0x1CE1      |        7393 |
|      98 | 0x1CE2      |        7394 |
|      99 | 0x1CE3      |        7395 |
|     100 | 0x1CE4      |        7396 |
|     101 | 0x1CE6      |        7398 |
|     102 | 0x1CE7      |        7399 |
|     103 | 0x000B      |          11 |
|     104 | 0x1CE8      |        7400 |
|     105 | 0x009D      |         157 |
|     106 | 0x1CE9      |        7401 |
|     107 | 0xFFFF9A70  |  4294941296 |
|     108 | 0x0FA0      |        4000 |
|     109 | 0xFFFF9C00  |  4294941696 |
|     110 | 0x22B1F     |      142111 |
|     111 | 0xFFFCFA1A  |  4294769178 |
|     112 | 0x2023      |        8227 |
|     113 | 0x0028      |          40 |
|     114 | 0x22F4B     |      143179 |
|     115 | 0xFFFD0A02  |  4294773250 |
|     116 | 0x2037      |        8247 |
|     117 | 0xFFFF9283  |  4294939267 |
|     118 | 0x16C6      |        5830 |
|     119 | 0xFFFF8362  |  4294935394 |
|     120 | 0x4758      |       18264 |
|     121 | 0xFFFF4554  |  4294919508 |
|     122 | 0x4C19      |       19481 |
|     123 | 0xFFFF1981  |  4294908289 |
|     124 | 0x511B      |       20763 |
|     125 | 0xFFFFFFF4  |  4294967284 |
|     126 | 0x0BE0      |        3040 |
|     127 | 0x093B      |        2363 |
|     128 | 0xFFFDEC15  |  4294831125 |
|     129 | 0x250C      |        9484 |

## String References

- **7350**: You found $7.

## Events

### Event 65535

#### Metadata

| Field        | Value   |
|--------------|---------|
| Entrypoint   | 0x0000  |
| Data Size    | 1 bytes |
| Instructions | 1       |

```
      00 01 02 03 04 05 06 07  08 09 0A 0B 0C 0D 0E 0F
      -- -- -- -- -- -- -- --  -- -- -- -- -- -- -- --
0000: 00                                                .               
```

#### Opcodes

```
  0: 0x0000 [0x00] END_REQSTACK()
```

### Event 150

#### Metadata

| Field        | Value     |
|--------------|-----------|
| Entrypoint   | 0x0001    |
| Data Size    | 166 bytes |
| Instructions | 29        |

```
      00 01 02 03 04 05 06 07  08 09 0A 0B 0C 0D 0E 0F
      -- -- -- -- -- -- -- --  -- -- -- -- -- -- -- --
0000:    22 00 42 47 00 00 80  01 80 02 80 03 80 47 01   ".BG.........G.
0010: 37 04 80 05 80 06 80 07  80 45 08 80 F0 FF FF 7F  7........E......
0020: F0 FF FF 7F 66 64 69 31  09 80 1F 00 0A 80 0B 80  ....fdi1........
0030: 06 80 1F 01 1F 00 0C 80  0D 80 0E 80 1F 01 1F 00  ................
0040: 0F 80 10 80 0E 80 1F 01  1F 00 11 80 12 80 13 80  ................
0050: 1F 01 29 10 6A C0 0A 01  01 1C 14 80 32 15 80 1F  ..).j.......2...
0060: 00 16 80 17 80 02 80 1F  01 45 08 80 F0 FF FF 7F  .........E......
0070: F0 FF FF 7F 66 64 6F 30  09 80 1C 14 80 29 10 6A  ....fdo0.....).j
0080: C0 0A 01 02 1C 14 80 1C  18 80 37 00 80 01 80 02  ..........7.....
0090: 80 03 80 45 08 80 F0 FF  FF 7F F0 FF FF 7F 66 64  ...E..........fd
00A0: 69 31 09 80 2E 21 00                              i1...!.         
```

#### Opcodes

```
  0: 0x0001 [0x22] ENTITY_HIDE_FLAG(enabled=0x00)
  1: 0x0003 [0x42] SET_CLI_EVENT_CANCEL_DATA()
  2: 0x0004 [0x47] UPDATE_PLAYER_POS(-75.573*, 60.612*, 0.034*, yaw=356.8°*)
  3: 0x000E [0x47] WAIT_PLAYER_POS_UPDATE
  4: 0x0010 [0x37] UPDATE_EVENT_POSITION_AND_DIR: x=-103.430*, z=68.456*, y=2.265*, direction=43.2°*
  5: 0x0019 [0x45] LOAD_SCHEDULED_TASK: Load scheduler "fdi1" with entities [LocalPlayer, LocalPlayer], work=[200*, 0*]
  6: 0x002A [0x1F] MOVE_ENTITY: EventEntity moves to X=-103.398*, Z=66.783*, Y=2.265*
  7: 0x0032 [0x1F] MOVE_ENTITY: Update entity position (mode=1)
  8: 0x0034 [0x1F] MOVE_ENTITY: EventEntity moves to X=-100.976*, Z=60.671*, Y=1.499*
  9: 0x003C [0x1F] MOVE_ENTITY: Update entity position (mode=1)
 10: 0x003E [0x1F] MOVE_ENTITY: EventEntity moves to X=-97.543*, Z=58.935*, Y=1.499*
 11: 0x0046 [0x1F] MOVE_ENTITY: Update entity position (mode=1)
 12: 0x0048 [0x1F] MOVE_ENTITY: EventEntity moves to X=-83.068*, Z=59.249*, Y=0.325*
 13: 0x0050 [0x1F] MOVE_ENTITY: Update entity position (mode=1)
 14: 0x0052 [0x29] REQ_SET_WAIT(priority=0x10, entity_id=ship (ID: 17481834/0x010AC06A), tag_num=0x01)
 15: 0x0059 [0x1C] WAIT(60* ticks)
 16: 0x005C [0x32] ExtData[1]->MainSpeed = 20* * 0.1
 17: 0x005F [0x1F] MOVE_ENTITY: EventEntity moves to X=-79.412*, Z=60.611*, Y=0.034*
 18: 0x0067 [0x1F] MOVE_ENTITY: Update entity position (mode=1)
 19: 0x0069 [0x45] LOAD_SCHEDULED_TASK: Load scheduler "fdo0" with entities [LocalPlayer, LocalPlayer], work=[200*, 0*]
 20: 0x007A [0x1C] WAIT(60* ticks)
 21: 0x007D [0x29] REQ_SET_WAIT(priority=0x10, entity_id=ship (ID: 17481834/0x010AC06A), tag_num=0x02)
 22: 0x0084 [0x1C] WAIT(60* ticks)
 23: 0x0087 [0x1C] WAIT(30* ticks)
 24: 0x008A [0x37] UPDATE_EVENT_POSITION_AND_DIR: x=-75.573*, z=60.612*, y=0.034*, direction=356.8°*
 25: 0x0093 [0x45] LOAD_SCHEDULED_TASK: Load scheduler "fdi1" with entities [LocalPlayer, LocalPlayer], work=[200*, 0*]
 26: 0x00A4 [0x2E] SET_CLI_EVENT_CANCEL_FLAGS()
 27: 0x00A5 [0x21] END_EVENT
 28: 0x00A6 [0x00] END_REQSTACK()
```

### Event 151

#### Metadata

| Field        | Value     |
|--------------|-----------|
| Entrypoint   | 0x00A7    |
| Data Size    | 156 bytes |
| Instructions | 27        |

```
      00 01 02 03 04 05 06 07  08 09 0A 0B 0C 0D 0E 0F
      -- -- -- -- -- -- -- --  -- -- -- -- -- -- -- --
00A0:                      22  00 42 47 00 00 80 01 80         ".BG.....
00B0: 02 80 03 80 47 01 37 19  80 1A 80 06 80 1B 80 45  ....G.7........E
00C0: 08 80 F0 FF FF 7F F0 FF  FF 7F 66 64 69 31 09 80  ..........fdi1..
00D0: 1F 00 1C 80 1D 80 06 80  1F 01 1F 00 1E 80 1F 80  ................
00E0: 0E 80 1F 01 1F 00 20 80  21 80 22 80 1F 01 29 10  ...... .!."...).
00F0: 6A C0 0A 01 01 1C 14 80  32 15 80 1F 00 23 80 17  j.......2....#..
0100: 80 02 80 1F 01 29 10 6A  C0 0A 01 02 1C 14 80 45  .....).j.......E
0110: 08 80 F0 FF FF 7F F0 FF  FF 7F 66 64 6F 30 09 80  ..........fdo0..
0120: 1C 14 80 1C 18 80 37 00  80 01 80 02 80 03 80 45  ......7........E
0130: 08 80 F0 FF FF 7F F0 FF  FF 7F 66 64 69 31 09 80  ..........fdi1..
0140: 2E 21 00                                          .!.             
```

#### Opcodes

```
  0: 0x00A7 [0x22] ENTITY_HIDE_FLAG(enabled=0x00)
  1: 0x00A9 [0x42] SET_CLI_EVENT_CANCEL_DATA()
  2: 0x00AA [0x47] UPDATE_PLAYER_POS(-75.573*, 60.612*, 0.034*, yaw=356.8°*)
  3: 0x00B4 [0x47] WAIT_PLAYER_POS_UPDATE
  4: 0x00B6 [0x37] UPDATE_EVENT_POSITION_AND_DIR: x=-93.478*, z=68.359*, y=2.265*, direction=32.3°*
  5: 0x00BF [0x45] LOAD_SCHEDULED_TASK: Load scheduler "fdi1" with entities [LocalPlayer, LocalPlayer], work=[200*, 0*]
  6: 0x00D0 [0x1F] MOVE_ENTITY: EventEntity moves to X=-92.743*, Z=67.128*, Y=2.265*
  7: 0x00D8 [0x1F] MOVE_ENTITY: Update entity position (mode=1)
  8: 0x00DA [0x1F] MOVE_ENTITY: EventEntity moves to X=-91.346*, Z=61.477*, Y=1.499*
  9: 0x00E2 [0x1F] MOVE_ENTITY: Update entity position (mode=1)
 10: 0x00E4 [0x1F] MOVE_ENTITY: EventEntity moves to X=-82.087*, Z=59.251*, Y=0.149*
 11: 0x00EC [0x1F] MOVE_ENTITY: Update entity position (mode=1)
 12: 0x00EE [0x29] REQ_SET_WAIT(priority=0x10, entity_id=ship (ID: 17481834/0x010AC06A), tag_num=0x01)
 13: 0x00F5 [0x1C] WAIT(60* ticks)
 14: 0x00F8 [0x32] ExtData[1]->MainSpeed = 20* * 0.1
 15: 0x00FB [0x1F] MOVE_ENTITY: EventEntity moves to X=-75.572*, Z=60.611*, Y=0.034*
 16: 0x0103 [0x1F] MOVE_ENTITY: Update entity position (mode=1)
 17: 0x0105 [0x29] REQ_SET_WAIT(priority=0x10, entity_id=ship (ID: 17481834/0x010AC06A), tag_num=0x02)
 18: 0x010C [0x1C] WAIT(60* ticks)
 19: 0x010F [0x45] LOAD_SCHEDULED_TASK: Load scheduler "fdo0" with entities [LocalPlayer, LocalPlayer], work=[200*, 0*]
 20: 0x0120 [0x1C] WAIT(60* ticks)
 21: 0x0123 [0x1C] WAIT(30* ticks)
 22: 0x0126 [0x37] UPDATE_EVENT_POSITION_AND_DIR: x=-75.573*, z=60.612*, y=0.034*, direction=356.8°*
 23: 0x012F [0x45] LOAD_SCHEDULED_TASK: Load scheduler "fdi1" with entities [LocalPlayer, LocalPlayer], work=[200*, 0*]
 24: 0x0140 [0x2E] SET_CLI_EVENT_CANCEL_FLAGS()
 25: 0x0141 [0x21] END_EVENT
 26: 0x0142 [0x00] END_REQSTACK()
```

### Event 130

#### Metadata

| Field        | Value     |
|--------------|-----------|
| Entrypoint   | 0x0143    |
| Data Size    | 445 bytes |
| Instructions | 57        |

```
      00 01 02 03 04 05 06 07  08 09 0A 0B 0C 0D 0E 0F
      -- -- -- -- -- -- -- --  -- -- -- -- -- -- -- --
0140:          22 00 46 01 42  45 08 80 F0 FF FF 7F F0     ".F.BE.......
0150: FF FF 7F 66 64 69 31 09  80 79 00 F8 FF FF 7F 67  ...fdi1..y.....g
0160: C0 0A 01 45 24 80 F0 FF  FF 7F F0 FF FF 7F 73 30  ...E$.........s0
0170: 30 30 09 80 32 25 80 37  26 80 27 80 06 80 28 80  00..2%.7&.'...(.
0180: 1F 00 29 80 2A 80 2B 80  1F 01 1C 2C 80 2B 67 C0  ..).*.+....,.+g.
0190: 0A 01 2D 80 23 55 24 80  F0 FF FF 7F F0 FF FF 7F  ..-.#U$.........
01A0: 73 30 30 30 45 24 80 F0  FF FF 7F F0 FF FF 7F 73  s000E$.........s
01B0: 30 30 31 09 80 4B 67 C0  0A 01 2E 80 79 00 67 C0  001..Kg.....y.g.
01C0: 0A 01 F0 FF FF 7F 2B 67  C0 0A 01 2F 80 23 7B 67  ......+g.../.#{g
01D0: C0 0A 01 2B 67 C0 0A 01  30 80 23 79 00 67 C0 0A  ...+g...0.#y.g..
01E0: 01 F0 FF FF 7F 2B 67 C0  0A 01 31 80 23 45 08 80  .....+g...1.#E..
01F0: F0 FF FF 7F F0 FF FF 7F  66 64 6F 30 09 80 1C 15  ........fdo0....
0200: 80 4A 67 C0 0A 01 F0 FF  FF 7F 7B 67 C0 0A 01 1C  .Jg.......{g....
0210: 32 80 2C 67 C0 0A 01 67  C0 0A 01 77 6F 6E 34 5B  2.,g...g...won4[
0220: 33 80 67 C0 0A 01 67 C0  0A 01 73 77 6F 30 55 24  3.g...g...swo0U$
0230: 80 F0 FF FF 7F F0 FF FF  7F 73 30 30 31 45 24 80  .........s001E$.
0240: F0 FF FF 7F F0 FF FF 7F  73 30 30 32 09 80 45 08  ........s002..E.
0250: 80 F0 FF FF 7F F0 FF FF  7F 66 64 69 30 09 80 2B  .........fdi0..+
0260: 67 C0 0A 01 34 80 23 5B  33 80 67 C0 0A 01 67 C0  g...4.#[3.g...g.
0270: 0A 01 73 77 6F 31 2B 67  C0 0A 01 35 80 23 53 67  ..swo1+g...5.#Sg
0280: C0 0A 01 67 C0 0A 01 73  77 6F 31 2C 67 C0 0A 01  ...g...swo1,g...
0290: 67 C0 0A 01 77 6F 66 34  5B 33 80 67 C0 0A 01 67  g...wof4[3.g...g
02A0: C0 0A 01 73 77 6F 32 2B  67 C0 0A 01 36 80 23 53  ...swo2+g...6.#S
02B0: 67 C0 0A 01 67 C0 0A 01  73 77 6F 32 27 0A 67 C0  g...g...swo2'.g.
02C0: 0A 01 02 1C 14 80 1E 67  C0 0A 01 45 08 80 F0 FF  .......g...E....
02D0: FF 7F F0 FF FF 7F 66 64  6F 31 09 80 1C 14 80 47  ......fdo1.....G
02E0: 00 00 80 01 80 02 80 03  80 47 01 46 00 45 08 80  .........G.F.E..
02F0: F0 FF FF 7F F0 FF FF 7F  66 64 69 31 09 80 21 00  ........fdi1..!.
```

#### Opcodes

```
  0: 0x0143 [0x22] ENTITY_HIDE_FLAG(enabled=0x00)
  1: 0x0145 [0x46] CAMERA_CONTROL: Disable user control
  2: 0x0147 [0x42] SET_CLI_EVENT_CANCEL_DATA()
  3: 0x0148 [0x45] LOAD_SCHEDULED_TASK: Load scheduler "fdi1" with entities [LocalPlayer, LocalPlayer], work=[200*, 0*]
  4: 0x0159 [0x79] EventEntity looks at Zeid (ID: 17481831/0x010AC067) (Basic look)
  5: 0x0163 [0x45] LOAD_SCHEDULED_TASK: Load scheduler "s000" with entities [LocalPlayer, LocalPlayer], work=[190*, 0*]
  6: 0x0174 [0x32] ExtData[1]->MainSpeed = 13* * 0.1
  7: 0x0177 [0x37] UPDATE_EVENT_POSITION_AND_DIR: x=-103.728*, z=68.203*, y=2.265*, direction=44.9°*
  8: 0x0180 [0x1F] MOVE_ENTITY: EventEntity moves to X=-101.599*, Z=61.195*, Y=1.500*
  9: 0x0188 [0x1F] MOVE_ENTITY: Update entity position (mode=1)
 10: 0x018A [0x1C] WAIT(120* ticks)
 11: 0x018D [0x2B] Zeid (ID: 17481831/0x010AC067) [7343*]:
    → "Why are you looking at me that way? Have you never seen a dark knight before?"
 12: 0x0194 [0x23] WAIT_FOR_DIALOG_INTERACTION
 13: 0x0195 [0x55] WAIT_LOAD_SCHEDULER: Wait for scheduler "s000" with entities [LocalPlayer, LocalPlayer], work=190*
 14: 0x01A4 [0x45] LOAD_SCHEDULED_TASK: Load scheduler "s001" with entities [LocalPlayer, LocalPlayer], work=[190*, 0*]
 15: 0x01B5 [0x4B] UPDATE_ENTITY_YAW(entity=Zeid (ID: 17481831/0x010AC067), yaw=17.4°*)
 16: 0x01BC [0x79] Zeid (ID: 17481831/0x010AC067) looks at LocalPlayer (Basic look)
 17: 0x01C6 [0x2B] Zeid (ID: 17481831/0x010AC067) [7344*]:
    → "You say Gumbah told you about me? That child is always crossing the line. It's unfortunate what happened to Werei, but I see Volker has not changed."
 18: 0x01CD [0x23] WAIT_FOR_DIALOG_INTERACTION
 19: 0x01CE [0x7B] Zeid (ID: 17481831/0x010AC067) stops talking
 20: 0x01D3 [0x2B] Zeid (ID: 17481831/0x010AC067) [7345*]:
    → "I had thought I might visit the Mines District...but if they are still there, I should probably not."
 21: 0x01DA [0x23] WAIT_FOR_DIALOG_INTERACTION
 22: 0x01DB [0x79] Zeid (ID: 17481831/0x010AC067) looks at LocalPlayer (Basic look)
 23: 0x01E5 [0x2B] Zeid (ID: 17481831/0x010AC067) [7346*]:
    → "And why is it that you have sought me out? You seek training to become a dark knight, perhaps? Yes...I sense you have already felled many enemies..."
 24: 0x01EC [0x23] WAIT_FOR_DIALOG_INTERACTION
 25: 0x01ED [0x45] LOAD_SCHEDULED_TASK: Load scheduler "fdo0" with entities [LocalPlayer, LocalPlayer], work=[200*, 0*]
 26: 0x01FE [0x1C] WAIT(20* ticks)
 27: 0x0201 [0x4A] Zeid (ID: 17481831/0x010AC067) looks at LocalPlayer
 28: 0x020A [0x7B] Zeid (ID: 17481831/0x010AC067) stops talking
 29: 0x020F [0x1C] WAIT(10* ticks)
 30: 0x0212 [0x2C] CREATE_SCHEDULER_TASK: Create scheduler "won4" with entities [Zeid (ID: 17481831/0x010AC067), Zeid (ID: 17481831/0x010AC067)]
 31: 0x021F [0x5B] LOAD_EXT_SCHEDULER: Load scheduler "swo0" with entities [Zeid (ID: 17481831/0x010AC067), Zeid (ID: 17481831/0x010AC067)], work=243*
 32: 0x022E [0x55] WAIT_LOAD_SCHEDULER: Wait for scheduler "s001" with entities [LocalPlayer, LocalPlayer], work=190*
 33: 0x023D [0x45] LOAD_SCHEDULED_TASK: Load scheduler "s002" with entities [LocalPlayer, LocalPlayer], work=[190*, 0*]
 34: 0x024E [0x45] LOAD_SCHEDULED_TASK: Load scheduler "fdi0" with entities [LocalPlayer, LocalPlayer], work=[200*, 0*]
 35: 0x025F [0x2B] Zeid (ID: 17481831/0x010AC067) [7347*]:
    → "But the way of the dark knight is not one to be taken lightly. It is a hopeless road, where anger and sorrow are your only companions."
 36: 0x0266 [0x23] WAIT_FOR_DIALOG_INTERACTION
 37: 0x0267 [0x5B] LOAD_EXT_SCHEDULER: Load scheduler "swo1" with entities [Zeid (ID: 17481831/0x010AC067), Zeid (ID: 17481831/0x010AC067)], work=243*
 38: 0x0276 [0x2B] Zeid (ID: 17481831/0x010AC067) [7348*]:
    → "But if you still wish to become one, then take this sword. Let it feed on your bloodlust and the blood of your enemies."
 39: 0x027D [0x23] WAIT_FOR_DIALOG_INTERACTION
 40: 0x027E [0x53] WAIT_SCHEDULER_TASK: Wait for scheduler "swo1" with entities [Zeid (ID: 17481831/0x010AC067), Zeid (ID: 17481831/0x010AC067)]
 41: 0x028B [0x2C] CREATE_SCHEDULER_TASK: Create scheduler "wof4" with entities [Zeid (ID: 17481831/0x010AC067), Zeid (ID: 17481831/0x010AC067)]
 42: 0x0298 [0x5B] LOAD_EXT_SCHEDULER: Load scheduler "swo2" with entities [Zeid (ID: 17481831/0x010AC067), Zeid (ID: 17481831/0x010AC067)], work=243*
 43: 0x02A7 [0x2B] Zeid (ID: 17481831/0x010AC067) [7349*]:
    → "I must go. I have some business to attend to in Beadeaux, the Quadav stronghold. Sate that sword's hunger, and we will meet again..."
 44: 0x02AE [0x23] WAIT_FOR_DIALOG_INTERACTION
 45: 0x02AF [0x53] WAIT_SCHEDULER_TASK: Wait for scheduler "swo2" with entities [Zeid (ID: 17481831/0x010AC067), Zeid (ID: 17481831/0x010AC067)]
 46: 0x02BC [0x27] REQ_SET(priority=0x0A, entity_id=Zeid (ID: 17481831/0x010AC067), tag_num=0x02)
 47: 0x02C3 [0x1C] WAIT(60* ticks)
 48: 0x02C6 [0x1E] EventEntity looks at Zeid (ID: 17481831/0x010AC067) and starts talking
 49: 0x02CB [0x45] LOAD_SCHEDULED_TASK: Load scheduler "fdo1" with entities [LocalPlayer, LocalPlayer], work=[200*, 0*]
 50: 0x02DC [0x1C] WAIT(60* ticks)
 51: 0x02DF [0x47] UPDATE_PLAYER_POS(-75.573*, 60.612*, 0.034*, yaw=356.8°*)
 52: 0x02E9 [0x47] WAIT_PLAYER_POS_UPDATE
 53: 0x02EB [0x46] CAMERA_CONTROL: Restore default settings
 54: 0x02ED [0x45] LOAD_SCHEDULED_TASK: Load scheduler "fdi1" with entities [LocalPlayer, LocalPlayer], work=[200*, 0*]
 55: 0x02FE [0x21] END_EVENT
 56: 0x02FF [0x00] END_REQSTACK()
```

### Event 131

#### Metadata

| Field        | Value     |
|--------------|-----------|
| Entrypoint   | 0x0300    |
| Data Size    | 151 bytes |
| Instructions | 24        |

```
      00 01 02 03 04 05 06 07  08 09 0A 0B 0C 0D 0E 0F
      -- -- -- -- -- -- -- --  -- -- -- -- -- -- -- --
0300: 22 00 46 01 42 45 08 80  F0 FF FF 7F F0 FF FF 7F  ".F.BE..........
0310: 66 64 69 31 09 80 45 24  80 F0 FF FF 7F F0 FF FF  fdi1..E$........
0320: 7F 73 30 30 30 09 80 32  25 80 37 26 80 27 80 06  .s000..2%.7&.'..
0330: 80 28 80 1F 00 37 80 38  80 0E 80 1F 01 62 39 80  .(...7.8.....b9.
0340: 67 C0 0A 01 67 C0 0A 01  6D 61 69 6E 09 80 1C 18  g...g...main....
0350: 80 1E 67 C0 0A 01 1C 18  80 03 09 10 3A 80 48 3B  ..g.........:.H;
0360: 80 23 45 08 80 F0 FF FF  7F F0 FF FF 7F 66 64 6F  .#E..........fdo
0370: 31 09 80 1C 14 80 47 00  00 80 01 80 02 80 03 80  1.....G.........
0380: 47 01 46 00 45 08 80 F0  FF FF 7F F0 FF FF 7F 66  G.F.E..........f
0390: 64 69 31 09 80 21 00                              di1..!.         
```

#### Opcodes

```
  0: 0x0300 [0x22] ENTITY_HIDE_FLAG(enabled=0x00)
  1: 0x0302 [0x46] CAMERA_CONTROL: Disable user control
  2: 0x0304 [0x42] SET_CLI_EVENT_CANCEL_DATA()
  3: 0x0305 [0x45] LOAD_SCHEDULED_TASK: Load scheduler "fdi1" with entities [LocalPlayer, LocalPlayer], work=[200*, 0*]
  4: 0x0316 [0x45] LOAD_SCHEDULED_TASK: Load scheduler "s000" with entities [LocalPlayer, LocalPlayer], work=[190*, 0*]
  5: 0x0327 [0x32] ExtData[1]->MainSpeed = 13* * 0.1
  6: 0x032A [0x37] UPDATE_EVENT_POSITION_AND_DIR: x=-103.728*, z=68.203*, y=2.265*, direction=44.9°*
  7: 0x0333 [0x1F] MOVE_ENTITY: EventEntity moves to X=-101.678*, Z=61.303*, Y=1.499*
  8: 0x033B [0x1F] MOVE_ENTITY: Update entity position (mode=1)
  9: 0x033D [0x62] LOAD_EVENT_SCHEDULER: Load scheduler "main" with entities [Zeid (ID: 17481831/0x010AC067), Zeid (ID: 17481831/0x010AC067)], work=[3*, 0*]
 10: 0x034E [0x1C] WAIT(30* ticks)
 11: 0x0351 [0x1E] EventEntity looks at Zeid (ID: 17481831/0x010AC067) and starts talking
 12: 0x0356 [0x1C] WAIT(30* ticks)
 13: 0x0359 [0x03] Work_Zone[9] = 16607*
 14: 0x035E [0x48] [System] [7350*]:
    → "You found $7."
 15: 0x0361 [0x23] WAIT_FOR_DIALOG_INTERACTION
 16: 0x0362 [0x45] LOAD_SCHEDULED_TASK: Load scheduler "fdo1" with entities [LocalPlayer, LocalPlayer], work=[200*, 0*]
 17: 0x0373 [0x1C] WAIT(60* ticks)
 18: 0x0376 [0x47] UPDATE_PLAYER_POS(-75.573*, 60.612*, 0.034*, yaw=356.8°*)
 19: 0x0380 [0x47] WAIT_PLAYER_POS_UPDATE
 20: 0x0382 [0x46] CAMERA_CONTROL: Restore default settings
 21: 0x0384 [0x45] LOAD_SCHEDULED_TASK: Load scheduler "fdi1" with entities [LocalPlayer, LocalPlayer], work=[200*, 0*]
 22: 0x0395 [0x21] END_EVENT
 23: 0x0396 [0x00] END_REQSTACK()
```

### Event 65534

#### Metadata

| Field        | Value   |
|--------------|---------|
| Entrypoint   | 0x0397  |
| Data Size    | 1 bytes |
| Instructions | 1       |

```
      00 01 02 03 04 05 06 07  08 09 0A 0B 0C 0D 0E 0F
      -- -- -- -- -- -- -- --  -- -- -- -- -- -- -- --
0390:                      00                                  .        
```

#### Opcodes

```
  0: 0x0397 [0x00] END_REQSTACK()
```

### Event 182

#### Metadata

| Field        | Value    |
|--------------|----------|
| Entrypoint   | 0x0398   |
| Data Size    | 13 bytes |
| Instructions | 3        |

```
      00 01 02 03 04 05 06 07  08 09 0A 0B 0C 0D 0E 0F
      -- -- -- -- -- -- -- --  -- -- -- -- -- -- -- --
0390:                          47 00 3C 80 3D 80 3E 80          G.<.=.>.
03A0: 3F 80 47 01 00                                    ?.G..           
```

#### Opcodes

```
  0: 0x0398 [0x47] UPDATE_PLAYER_POS(-82.523*, 19.941*, 0.285*, yaw=179.8°*)
  1: 0x03A2 [0x47] WAIT_PLAYER_POS_UPDATE
  2: 0x03A4 [0x00] END_REQSTACK()
```

### Event 183

#### Metadata

| Field        | Value    |
|--------------|----------|
| Entrypoint   | 0x03A5   |
| Data Size    | 10 bytes |
| Instructions | 2        |

```
      00 01 02 03 04 05 06 07  08 09 0A 0B 0C 0D 0E 0F
      -- -- -- -- -- -- -- --  -- -- -- -- -- -- -- --
03A0:                37 40 80  41 80 09 80 42 80 00          7@.A...B.. 
```

#### Opcodes

```
  0: 0x03A5 [0x37] UPDATE_EVENT_POSITION_AND_DIR: x=-77.426*, z=19.882*, y=0.000*, direction=178.3°*
  1: 0x03AE [0x00] END_REQSTACK()
```

### Event 184

#### Metadata

| Field        | Value    |
|--------------|----------|
| Entrypoint   | 0x03AF   |
| Data Size    | 14 bytes |
| Instructions | 4        |

```
      00 01 02 03 04 05 06 07  08 09 0A 0B 0C 0D 0E 0F
      -- -- -- -- -- -- -- --  -- -- -- -- -- -- -- --
03A0:                                               32                 2
03B0: 25 80 1F 00 3C 80 3D 80  3E 80 1F 01 00           %...<.=.>....   
```

#### Opcodes

```
  0: 0x03AF [0x32] ExtData[1]->MainSpeed = 13* * 0.1
  1: 0x03B2 [0x1F] MOVE_ENTITY: EventEntity moves to X=-82.523*, Z=19.941*, Y=0.285*
  2: 0x03BA [0x1F] MOVE_ENTITY: Update entity position (mode=1)
  3: 0x03BC [0x00] END_REQSTACK()
```

### Event 185

#### Metadata

| Field        | Value    |
|--------------|----------|
| Entrypoint   | 0x03BD   |
| Data Size    | 13 bytes |
| Instructions | 3        |

```
      00 01 02 03 04 05 06 07  08 09 0A 0B 0C 0D 0E 0F
      -- -- -- -- -- -- -- --  -- -- -- -- -- -- -- --
03B0:                                         47 00 40               G.@
03C0: 80 41 80 09 80 43 80 47  01 00                    .A...C.G..      
```

#### Opcodes

```
  0: 0x03BD [0x47] UPDATE_PLAYER_POS(-77.426*, 19.882*, 0.000*, yaw=358.1°*)
  1: 0x03C7 [0x47] WAIT_PLAYER_POS_UPDATE
  2: 0x03C9 [0x00] END_REQSTACK()
```

### Event 186

#### Metadata

| Field        | Value    |
|--------------|----------|
| Entrypoint   | 0x03CA   |
| Data Size    | 10 bytes |
| Instructions | 2        |

```
      00 01 02 03 04 05 06 07  08 09 0A 0B 0C 0D 0E 0F
      -- -- -- -- -- -- -- --  -- -- -- -- -- -- -- --
03C0:                                37 3C 80 3D 80 3E            7<.=.>
03D0: 80 43 80 00                                       .C..            
```

#### Opcodes

```
  0: 0x03CA [0x37] UPDATE_EVENT_POSITION_AND_DIR: x=-82.523*, z=19.941*, y=0.285*, direction=358.1°*
  1: 0x03D3 [0x00] END_REQSTACK()
```

### Event 187

#### Metadata

| Field        | Value    |
|--------------|----------|
| Entrypoint   | 0x03D4   |
| Data Size    | 14 bytes |
| Instructions | 4        |

```
      00 01 02 03 04 05 06 07  08 09 0A 0B 0C 0D 0E 0F
      -- -- -- -- -- -- -- --  -- -- -- -- -- -- -- --
03D0:             32 25 80 1F  00 40 80 41 80 09 80 1F      2%...@.A....
03E0: 01 00                                             ..              
```

#### Opcodes

```
  0: 0x03D4 [0x32] ExtData[1]->MainSpeed = 13* * 0.1
  1: 0x03D7 [0x1F] MOVE_ENTITY: EventEntity moves to X=-77.426*, Z=19.882*, Y=0.000*
  2: 0x03DF [0x1F] MOVE_ENTITY: Update entity position (mode=1)
  3: 0x03E1 [0x00] END_REQSTACK()
```

### Event 200

#### Metadata

| Field        | Value     |
|--------------|-----------|
| Entrypoint   | 0x03E2    |
| Data Size    | 468 bytes |
| Instructions | 62        |

```
      00 01 02 03 04 05 06 07  08 09 0A 0B 0C 0D 0E 0F
      -- -- -- -- -- -- -- --  -- -- -- -- -- -- -- --
03E0:       03 09 10 44 80 42  45 08 80 F0 FF FF 7F F0    ...D.BE.......
03F0: FF FF 7F 66 64 6F 30 09  80 1C 18 80 38 45 80 46  ...fdo0.....8E.F
0400: 01 37 46 80 47 80 48 80  49 80 45 4A 80 F0 FF FF  .7F.G.H.I.EJ....
0410: 7F F0 FF FF 7F 73 30 30  30 09 80 45 08 80 F0 FF  .....s000..E....
0420: FF 7F F0 FF FF 7F 66 64  69 30 09 80 4A 5F C0 0A  ......fdi0..J_..
0430: 01 F0 FF FF 7F 2B 5F C0  0A 01 4B 80 23 66 4C 80  .....+_...K.#fL.
0440: 5F C0 0A 01 5F C0 0A 01  74 6C 6B 30 2B 5F C0 0A  _..._...tlk0+_..
0450: 01 4D 80 23 6B 69 64 6C  30 5F C0 0A 01 2B 5F C0  .M.#kidl0_...+_.
0460: 0A 01 4E 80 23 27 0A 7B  C0 0A 01 02 45 4A 80 F0  ..N.#'.{....EJ..
0470: FF FF 7F F0 FF FF 7F 73  30 30 31 09 80 2B 7B C0  .......s001..+{.
0480: 0A 01 4F 80 23 2A 0A 7B  C0 0A 01 4A 5F C0 0A 01  ..O.#*.{...J_...
0490: 7B C0 0A 01 2B 5F C0 0A  01 50 80 23 66 4C 80 7B  {...+_...P.#fL.{
04A0: C0 0A 01 7B C0 0A 01 74  6C 6B 30 2B 7B C0 0A 01  ...{...tlk0+{...
04B0: 51 80 23 6B 69 64 6C 30  7B C0 0A 01 79 00 7B C0  Q.#kidl0{...y.{.
04C0: 0A 01 F0 FF FF 7F 2B 7B  C0 0A 01 52 80 23 45 4A  ......+{...R.#EJ
04D0: 80 F0 FF FF 7F F0 FF FF  7F 73 30 30 32 09 80 4A  .........s002..J
04E0: F0 FF FF 7F 7B C0 0A 01  2B 7B C0 0A 01 53 80 23  ....{...+{...S.#
04F0: 2B 7B C0 0A 01 54 80 23  7B 7B C0 0A 01 2B 7B C0  +{...T.#{{...+{.
0500: 0A 01 55 80 23 66 4C 80  7B C0 0A 01 7B C0 0A 01  ..U.#fL.{...{...
0510: 74 68 6B 31 2B 7B C0 0A  01 56 80 23 66 4C 80 7B  thk1+{...V.#fL.{
0520: C0 0A 01 7B C0 0A 01 74  68 6B 32 53 7B C0 0A 01  ...{...thk2S{...
0530: 7B C0 0A 01 74 68 6B 32  27 0A 7B C0 0A 01 03 1C  {...thk2'.{.....
0540: 57 80 45 08 80 F0 FF FF  7F F0 FF FF 7F 6F 76 6C  W.E..........ovl
0550: 31 09 80 4A F0 FF FF 7F  5F C0 0A 01 52 4A 80 F0  1..J...._...RJ..
0560: FF FF 7F F0 FF FF 7F 73  30 30 32 45 4A 80 F0 FF  .......s002EJ...
0570: FF 7F F0 FF FF 7F 73 30  30 30 09 80 4A 5F C0 0A  ......s000..J_..
0580: 01 F0 FF FF 7F 2B 5F C0  0A 01 58 80 23 45 08 80  .....+_...X.#E..
0590: F0 FF FF 7F F0 FF FF 7F  66 64 6F 31 09 80 1C 14  ........fdo1....
05A0: 80 46 00 45 08 80 F0 FF  FF 7F F0 FF FF 7F 66 64  .F.E..........fd
05B0: 69 31 09 80 21 00                                 i1..!.          
```

#### Opcodes

```
  0: 0x03E2 [0x03] Work_Zone[9] = 266*
  1: 0x03E7 [0x42] SET_CLI_EVENT_CANCEL_DATA()
  2: 0x03E8 [0x45] LOAD_SCHEDULED_TASK: Load scheduler "fdo0" with entities [LocalPlayer, LocalPlayer], work=[200*, 0*]
  3: 0x03F9 [0x1C] WAIT(30* ticks)
  4: 0x03FC [0x38] SET_CLIENT_EVENT_MODE(mode=19*)
  5: 0x03FF [0x46] CAMERA_CONTROL: Disable user control
  6: 0x0401 [0x37] UPDATE_EVENT_POSITION_AND_DIR: x=-74.873*, z=58.432*, y=0.021*, direction=212.8°*
  7: 0x040A [0x45] LOAD_SCHEDULED_TASK: Load scheduler "s000" with entities [LocalPlayer, LocalPlayer], work=[239*, 0*]
  8: 0x041B [0x45] LOAD_SCHEDULED_TASK: Load scheduler "fdi0" with entities [LocalPlayer, LocalPlayer], work=[200*, 0*]
  9: 0x042C [0x4A] Drake Fang (ID: 17481823/0x010AC05F) looks at LocalPlayer
 10: 0x0435 [0x2B] Drake Fang (ID: 17481823/0x010AC05F) [7375*]:
    → "So you heard the details of the incident on Ore Street?"
 11: 0x043C [0x23] WAIT_FOR_DIALOG_INTERACTION
 12: 0x043D [0x66] LOAD_EXT_SCHEDULER_MAIN: Load scheduler "tlk0" with entities [Drake Fang (ID: 17481823/0x010AC05F), Drake Fang (ID: 17481823/0x010AC05F)], work=69*
 13: 0x044C [0x2B] Drake Fang (ID: 17481823/0x010AC05F) [7376*]:
    → "That child who calls himself the Talekeeper... We need to find out if what he says is true, but they're still hammering out the details of the plan upstairs."
 14: 0x0453 [0x23] WAIT_FOR_DIALOG_INTERACTION
 15: 0x0454 [0x6B] STOP_AND_IDLE: Drake Fang (ID: 17481823/0x010AC05F) stops current action and resets to idle (animation="idl0")
 16: 0x045D [0x2B] Drake Fang (ID: 17481823/0x010AC05F) [7377*]:
    → "If we assume from the beginning that he's a fake, it could cast a shadow on our pride. That's probably what's keeping the officials from making a quick decision."
 17: 0x0464 [0x23] WAIT_FOR_DIALOG_INTERACTION
 18: 0x0465 [0x27] REQ_SET(priority=0x0A, entity_id=Iron Eater (ID: 17481851/0x010AC07B), tag_num=0x02)
 19: 0x046C [0x45] LOAD_SCHEDULED_TASK: Load scheduler "s001" with entities [LocalPlayer, LocalPlayer], work=[239*, 0*]
 20: 0x047D [0x2B] Iron Eater (ID: 17481851/0x010AC07B) [7378*]:
    → "I will take responsibility for the adventurer's actions. Give [him/her] [his/her] orders."
 21: 0x0484 [0x23] WAIT_FOR_DIALOG_INTERACTION
 22: 0x0485 [0x2A] GET_REQ_LEVEL(level=10, entity_id=Iron Eater (ID: 17481851/0x010AC07B))
 23: 0x048B [0x4A] Drake Fang (ID: 17481823/0x010AC05F) looks at Iron Eater (ID: 17481851/0x010AC07B)
 24: 0x0494 [0x2B] Drake Fang (ID: 17481823/0x010AC05F) [7379*]:
    → "Sir Iron Eater! So, we have received clearance to send adventurers on this expedition?"
 25: 0x049B [0x23] WAIT_FOR_DIALOG_INTERACTION
 26: 0x049C [0x66] LOAD_EXT_SCHEDULER_MAIN: Load scheduler "tlk0" with entities [Iron Eater (ID: 17481851/0x010AC07B), Iron Eater (ID: 17481851/0x010AC07B)], work=69*
 27: 0x04AB [0x2B] Iron Eater (ID: 17481851/0x010AC07B) [7380*]:
    → "We have always had such clearance. Yet none of us knew the task to give the adventurers...until now."
 28: 0x04B2 [0x23] WAIT_FOR_DIALOG_INTERACTION
 29: 0x04B3 [0x6B] STOP_AND_IDLE: Iron Eater (ID: 17481851/0x010AC07B) stops current action and resets to idle (animation="idl0")
 30: 0x04BC [0x79] Iron Eater (ID: 17481851/0x010AC07B) looks at LocalPlayer (Basic look)
 31: 0x04C6 [0x2B] Iron Eater (ID: 17481851/0x010AC07B) [7381*]:
    → "I want you to journey to the Altepa Desert and see if the so-called Talekeeper's story is true."
 32: 0x04CD [0x23] WAIT_FOR_DIALOG_INTERACTION
 33: 0x04CE [0x45] LOAD_SCHEDULED_TASK: Load scheduler "s002" with entities [LocalPlayer, LocalPlayer], work=[239*, 0*]
 34: 0x04DF [0x4A] LocalPlayer looks at Iron Eater (ID: 17481851/0x010AC07B)
 35: 0x04E8 [0x2B] Iron Eater (ID: 17481851/0x010AC07B) [7382*]:
    → "He is saying that he found $6 near the Revelation Rock himself."
 36: 0x04EF [0x23] WAIT_FOR_DIALOG_INTERACTION
 37: 0x04F0 [0x2B] Iron Eater (ID: 17481851/0x010AC07B) [7383*]:
    → "If it is real, there is no way a normal child could have gotten his hands on it. It may prove that he is indeed the true Talekeeper."
 38: 0x04F7 [0x23] WAIT_FOR_DIALOG_INTERACTION
 39: 0x04F8 [0x7B] Iron Eater (ID: 17481851/0x010AC07B) stops talking
 40: 0x04FD [0x2B] Iron Eater (ID: 17481851/0x010AC07B) [7384*]:
    → "And if it is a fake, I want you to try to find $6. This will more than likely be a difficult task."
 41: 0x0504 [0x23] WAIT_FOR_DIALOG_INTERACTION
 42: 0x0505 [0x66] LOAD_EXT_SCHEDULER_MAIN: Load scheduler "thk1" with entities [Iron Eater (ID: 17481851/0x010AC07B), Iron Eater (ID: 17481851/0x010AC07B)], work=69*
 43: 0x0514 [0x2B] Iron Eater (ID: 17481851/0x010AC07B) [7385*]:
    → "This is a very strange situation for me, but I would like to know the truth. That is all. Good luck on your mission."
 44: 0x051B [0x23] WAIT_FOR_DIALOG_INTERACTION
 45: 0x051C [0x66] LOAD_EXT_SCHEDULER_MAIN: Load scheduler "thk2" with entities [Iron Eater (ID: 17481851/0x010AC07B), Iron Eater (ID: 17481851/0x010AC07B)], work=69*
 46: 0x052B [0x53] WAIT_SCHEDULER_TASK: Wait for scheduler "thk2" with entities [Iron Eater (ID: 17481851/0x010AC07B), Iron Eater (ID: 17481851/0x010AC07B)]
 47: 0x0538 [0x27] REQ_SET(priority=0x0A, entity_id=Iron Eater (ID: 17481851/0x010AC07B), tag_num=0x03)
 48: 0x053F [0x1C] WAIT(100* ticks)
 49: 0x0542 [0x45] LOAD_SCHEDULED_TASK: Load scheduler "ovl1" with entities [LocalPlayer, LocalPlayer], work=[200*, 0*]
 50: 0x0553 [0x4A] LocalPlayer looks at Drake Fang (ID: 17481823/0x010AC05F)
 51: 0x055C [0x52] END_LOAD_SCHEDULER: End scheduler "s002" with entities [LocalPlayer, LocalPlayer], work=239*
 52: 0x056B [0x45] LOAD_SCHEDULED_TASK: Load scheduler "s000" with entities [LocalPlayer, LocalPlayer], work=[239*, 0*]
 53: 0x057C [0x4A] Drake Fang (ID: 17481823/0x010AC05F) looks at LocalPlayer
 54: 0x0585 [0x2B] Drake Fang (ID: 17481823/0x010AC05F) [7386*]:
    → "If you happen to find $6, take it to Tall Mountain, a guard in the off-limits area in the Mines District."
 55: 0x058C [0x23] WAIT_FOR_DIALOG_INTERACTION
 56: 0x058D [0x45] LOAD_SCHEDULED_TASK: Load scheduler "fdo1" with entities [LocalPlayer, LocalPlayer], work=[200*, 0*]
 57: 0x059E [0x1C] WAIT(60* ticks)
 58: 0x05A1 [0x46] CAMERA_CONTROL: Restore default settings
 59: 0x05A3 [0x45] LOAD_SCHEDULED_TASK: Load scheduler "fdi1" with entities [LocalPlayer, LocalPlayer], work=[200*, 0*]
 60: 0x05B4 [0x21] END_EVENT
 61: 0x05B5 [0x00] END_REQSTACK()
```

### Event 202

#### Metadata

| Field        | Value     |
|--------------|-----------|
| Entrypoint   | 0x05B6    |
| Data Size    | 443 bytes |
| Instructions | 57        |

```
      00 01 02 03 04 05 06 07  08 09 0A 0B 0C 0D 0E 0F
      -- -- -- -- -- -- -- --  -- -- -- -- -- -- -- --
05B0:                   42 45  08 80 F0 FF FF 7F F0 FF        BE........
05C0: FF 7F 66 64 6F 30 09 80  1C 18 80 38 45 80 46 01  ..fdo0.....8E.F.
05D0: 37 46 80 47 80 48 80 49  80 45 4A 80 F0 FF FF 7F  7F.G.H.I.EJ.....
05E0: F0 FF FF 7F 73 30 30 30  09 80 45 08 80 F0 FF FF  ....s000..E.....
05F0: 7F F0 FF FF 7F 66 64 69  30 09 80 4A 5F C0 0A 01  .....fdi0..J_...
0600: F0 FF FF 7F 2B 5F C0 0A  01 59 80 23 66 4C 80 5F  ....+_...Y.#fL._
0610: C0 0A 01 5F C0 0A 01 74  6C 6B 30 2B 5F C0 0A 01  ..._...tlk0+_...
0620: 5A 80 23 27 0A 7B C0 0A  01 02 6B 69 64 6C 30 5F  Z.#'.{....kidl0_
0630: C0 0A 01 1C 5B 80 4A 5F  C0 0A 01 7B C0 0A 01 79  ....[.J_...{...y
0640: 00 F0 FF FF 7F 7B C0 0A  01 45 4A 80 F0 FF FF 7F  .....{...EJ.....
0650: F0 FF FF 7F 73 30 30 33  09 80 2B 7B C0 0A 01 5C  ....s003..+{...\
0660: 80 23 66 4C 80 5F C0 0A  01 5F C0 0A 01 74 6C 6B  .#fL._..._...tlk
0670: 30 2B 5F C0 0A 01 5D 80  23 6B 69 64 6C 30 5F C0  0+_...].#kidl0_.
0680: 0A 01 2A 0A 7B C0 0A 01  6E 7B C0 0A 01 5E 80 99  ..*.{...n{...^..
0690: 7B C0 0A 01 2B 7B C0 0A  01 5F 80 23 52 4A 80 F0  {...+{..._.#RJ..
06A0: FF FF 7F F0 FF FF 7F 73  30 30 33 45 4A 80 F0 FF  .......s003EJ...
06B0: FF 7F F0 FF FF 7F 73 30  30 34 09 80 99 7B C0 0A  ......s004...{..
06C0: 01 66 4C 80 7B C0 0A 01  7B C0 0A 01 74 68 6B 31  .fL.{...{...thk1
06D0: 2B 7B C0 0A 01 60 80 23  2B 7B C0 0A 01 61 80 23  +{...`.#+{...a.#
06E0: 66 4C 80 7B C0 0A 01 7B  C0 0A 01 74 68 6B 32 2B  fL.{...{...thk2+
06F0: 7B C0 0A 01 62 80 23 52  4A 80 F0 FF FF 7F F0 FF  {...b.#RJ.......
0700: FF 7F 73 30 30 34 45 4A  80 F0 FF FF 7F F0 FF FF  ..s004EJ........
0710: 7F 73 30 30 35 09 80 4A  7B C0 0A 01 F0 FF FF 7F  .s005..J{.......
0720: 2B 7B C0 0A 01 63 80 23  66 4C 80 7B C0 0A 01 7B  +{...c.#fL.{...{
0730: C0 0A 01 74 6C 6B 30 2B  7B C0 0A 01 64 80 23 6B  ...tlk0+{...d.#k
0740: 69 64 6C 30 7B C0 0A 01  45 08 80 F0 FF FF 7F F0  idl0{...E.......
0750: FF FF 7F 66 64 6F 31 09  80 1C 14 80 46 00 45 08  ...fdo1.....F.E.
0760: 80 F0 FF FF 7F F0 FF FF  7F 66 64 69 31 09 80 21  .........fdi1..!
0770: 00                                                .               
```

#### Opcodes

```
  0: 0x05B6 [0x42] SET_CLI_EVENT_CANCEL_DATA()
  1: 0x05B7 [0x45] LOAD_SCHEDULED_TASK: Load scheduler "fdo0" with entities [LocalPlayer, LocalPlayer], work=[200*, 0*]
  2: 0x05C8 [0x1C] WAIT(30* ticks)
  3: 0x05CB [0x38] SET_CLIENT_EVENT_MODE(mode=19*)
  4: 0x05CE [0x46] CAMERA_CONTROL: Disable user control
  5: 0x05D0 [0x37] UPDATE_EVENT_POSITION_AND_DIR: x=-74.873*, z=58.432*, y=0.021*, direction=212.8°*
  6: 0x05D9 [0x45] LOAD_SCHEDULED_TASK: Load scheduler "s000" with entities [LocalPlayer, LocalPlayer], work=[239*, 0*]
  7: 0x05EA [0x45] LOAD_SCHEDULED_TASK: Load scheduler "fdi0" with entities [LocalPlayer, LocalPlayer], work=[200*, 0*]
  8: 0x05FB [0x4A] Drake Fang (ID: 17481823/0x010AC05F) looks at LocalPlayer
  9: 0x0604 [0x2B] Drake Fang (ID: 17481823/0x010AC05F) [7387*]:
    → "Ah, you are the one we sent to Zepwell Island. I'm surprised you were so successful in revealing the true colors of that imposter."
 10: 0x060B [0x23] WAIT_FOR_DIALOG_INTERACTION
 11: 0x060C [0x66] LOAD_EXT_SCHEDULER_MAIN: Load scheduler "tlk0" with entities [Drake Fang (ID: 17481823/0x010AC05F), Drake Fang (ID: 17481823/0x010AC05F)], work=69*
 12: 0x061B [0x2B] Drake Fang (ID: 17481823/0x010AC05F) [7388*]:
    → "In any case, I just received a message stating that Sir Iron Eater is currently on his way here."
 13: 0x0622 [0x23] WAIT_FOR_DIALOG_INTERACTION
 14: 0x0623 [0x27] REQ_SET(priority=0x0A, entity_id=Iron Eater (ID: 17481851/0x010AC07B), tag_num=0x02)
 15: 0x062A [0x6B] STOP_AND_IDLE: Drake Fang (ID: 17481823/0x010AC05F) stops current action and resets to idle (animation="idl0")
 16: 0x0633 [0x1C] WAIT(1* ticks)
 17: 0x0636 [0x4A] Drake Fang (ID: 17481823/0x010AC05F) looks at Iron Eater (ID: 17481851/0x010AC07B)
 18: 0x063F [0x79] LocalPlayer looks at Iron Eater (ID: 17481851/0x010AC07B) (Basic look)
 19: 0x0649 [0x45] LOAD_SCHEDULED_TASK: Load scheduler "s003" with entities [LocalPlayer, LocalPlayer], work=[239*, 0*]
 20: 0x065A [0x2B] Iron Eater (ID: 17481851/0x010AC07B) [7389*]:
    → "I'm sorry about giving you all this extra work, Drake Fang. So, have there been any more complaints about not opening the Korroloka Tunnel to the public?"
 21: 0x0661 [0x23] WAIT_FOR_DIALOG_INTERACTION
 22: 0x0662 [0x66] LOAD_EXT_SCHEDULER_MAIN: Load scheduler "tlk0" with entities [Drake Fang (ID: 17481823/0x010AC05F), Drake Fang (ID: 17481823/0x010AC05F)], work=69*
 23: 0x0671 [0x2B] Drake Fang (ID: 17481823/0x010AC05F) [7390*]:
    → "I wish there were not, but we cannot allow civilians into such a dangerous place."
 24: 0x0678 [0x23] WAIT_FOR_DIALOG_INTERACTION
 25: 0x0679 [0x6B] STOP_AND_IDLE: Drake Fang (ID: 17481823/0x010AC05F) stops current action and resets to idle (animation="idl0")
 26: 0x0682 [0x2A] GET_REQ_LEVEL(level=10, entity_id=Iron Eater (ID: 17481851/0x010AC07B))
 27: 0x0688 [0x6E] Iron Eater (ID: 17481851/0x010AC07B) uses emote 6*
 28: 0x068F [0x99] Wait for Iron Eater (ID: 17481851/0x010AC07B) animation to complete
 29: 0x0694 [0x2B] Iron Eater (ID: 17481851/0x010AC07B) [7391*]:
    → "People assume that locked doors always hide secrets, and there is little we can do to change that perception. We need to get that investigation report finished as soon as possible..."
 30: 0x069B [0x23] WAIT_FOR_DIALOG_INTERACTION
 31: 0x069C [0x52] END_LOAD_SCHEDULER: End scheduler "s003" with entities [LocalPlayer, LocalPlayer], work=239*
 32: 0x06AB [0x45] LOAD_SCHEDULED_TASK: Load scheduler "s004" with entities [LocalPlayer, LocalPlayer], work=[239*, 0*]
 33: 0x06BC [0x99] Wait for Iron Eater (ID: 17481851/0x010AC07B) animation to complete
 34: 0x06C1 [0x66] LOAD_EXT_SCHEDULER_MAIN: Load scheduler "thk1" with entities [Iron Eater (ID: 17481851/0x010AC07B), Iron Eater (ID: 17481851/0x010AC07B)], work=69*
 35: 0x06D0 [0x2B] Iron Eater (ID: 17481851/0x010AC07B) [7392*]:
    → "I was supposed to accompany the expeditionary trip to Zepwell Island myself, but I was worried about the happenings in the Mines District."
 36: 0x06D7 [0x23] WAIT_FOR_DIALOG_INTERACTION
 37: 0x06D8 [0x2B] Iron Eater (ID: 17481851/0x010AC07B) [7393*]:
    → "It's almost like all the residents' discontent and hatred have come to a dangerous boil..."
 38: 0x06DF [0x23] WAIT_FOR_DIALOG_INTERACTION
 39: 0x06E0 [0x66] LOAD_EXT_SCHEDULER_MAIN: Load scheduler "thk2" with entities [Iron Eater (ID: 17481851/0x010AC07B), Iron Eater (ID: 17481851/0x010AC07B)], work=69*
 40: 0x06EF [0x2B] Iron Eater (ID: 17481851/0x010AC07B) [7394*]:
    → "And there is one other thing...something that Zeid said. It was like he was predicting the arrival of the true Talekeeper."
 41: 0x06F6 [0x23] WAIT_FOR_DIALOG_INTERACTION
 42: 0x06F7 [0x52] END_LOAD_SCHEDULER: End scheduler "s004" with entities [LocalPlayer, LocalPlayer], work=239*
 43: 0x0706 [0x45] LOAD_SCHEDULED_TASK: Load scheduler "s005" with entities [LocalPlayer, LocalPlayer], work=[239*, 0*]
 44: 0x0717 [0x4A] Iron Eater (ID: 17481851/0x010AC07B) looks at LocalPlayer
 45: 0x0720 [0x2B] Iron Eater (ID: 17481851/0x010AC07B) [7395*]:
    → "In any case, I'm leaving this next expedition to you. This is not official, but we have heard that Werei had set off for the Kuftal Tunnel."
 46: 0x0727 [0x23] WAIT_FOR_DIALOG_INTERACTION
 47: 0x0728 [0x66] LOAD_EXT_SCHEDULER_MAIN: Load scheduler "tlk0" with entities [Iron Eater (ID: 17481851/0x010AC07B), Iron Eater (ID: 17481851/0x010AC07B)], work=69*
 48: 0x0737 [0x2B] Iron Eater (ID: 17481851/0x010AC07B) [7396*]:
    → "We want you to go to the tunnel, find proof that he had been there, and bring it back to Drake Fang."
 49: 0x073E [0x23] WAIT_FOR_DIALOG_INTERACTION
 50: 0x073F [0x6B] STOP_AND_IDLE: Iron Eater (ID: 17481851/0x010AC07B) stops current action and resets to idle (animation="idl0")
 51: 0x0748 [0x45] LOAD_SCHEDULED_TASK: Load scheduler "fdo1" with entities [LocalPlayer, LocalPlayer], work=[200*, 0*]
 52: 0x0759 [0x1C] WAIT(60* ticks)
 53: 0x075C [0x46] CAMERA_CONTROL: Restore default settings
 54: 0x075E [0x45] LOAD_SCHEDULED_TASK: Load scheduler "fdi1" with entities [LocalPlayer, LocalPlayer], work=[200*, 0*]
 55: 0x076F [0x21] END_EVENT
 56: 0x0770 [0x00] END_REQSTACK()
```

### Event 204

#### Metadata

| Field        | Value     |
|--------------|-----------|
| Entrypoint   | 0x0771    |
| Data Size    | 287 bytes |
| Instructions | 39        |

```
      00 01 02 03 04 05 06 07  08 09 0A 0B 0C 0D 0E 0F
      -- -- -- -- -- -- -- --  -- -- -- -- -- -- -- --
0770:    42 45 08 80 F0 FF FF  7F F0 FF FF 7F 66 64 6F   BE..........fdo
0780: 30 09 80 1C 18 80 38 45  80 46 01 37 46 80 47 80  0.....8E.F.7F.G.
0790: 48 80 49 80 45 4A 80 F0  FF FF 7F F0 FF FF 7F 73  H.I.EJ.........s
07A0: 30 30 36 09 80 45 08 80  F0 FF FF 7F F0 FF FF 7F  006..E..........
07B0: 66 64 69 30 09 80 4A 5F  C0 0A 01 F0 FF FF 7F 2B  fdi0..J_.......+
07C0: 5F C0 0A 01 65 80 23 27  0A 64 C0 0A 01 04 27 0A  _...e.#'.d....'.
07D0: 5D C0 0A 01 04 79 00 5F  C0 0A 01 64 C0 0A 01 2B  ]....y._...d...+
07E0: 5F C0 0A 01 66 80 23 27  0A 5B C0 0A 01 05 45 4A  _...f.#'.[....EJ
07F0: 80 F0 FF FF 7F F0 FF FF  7F 73 30 30 37 09 80 1E  .........s007...
0800: 64 C0 0A 01 2A 0A 64 C0  0A 01 66 67 80 64 C0 0A  d...*.d...fg.d..
0810: 01 64 C0 0A 01 6E 74 6C  30 2B 64 C0 0A 01 68 80  .d...ntl0+d...h.
0820: 23 02 02 10 09 80 00 31  08 5C 00 69 80 5C 01 69  #......1.\.i.\.i
0830: 80 66 67 80 64 C0 0A 01  64 C0 0A 01 6E 74 6C 31  .fg.d...d...ntl1
0840: 2B 5F C0 0A 01 6A 80 23  02 02 10 09 80 00 67 08  +_...j.#......g.
0850: 45 08 80 F0 FF FF 7F F0  FF FF 7F 66 64 6F 31 09  E..........fdo1.
0860: 80 1C 14 80 01 8E 08 45  08 80 F0 FF FF 7F F0 FF  .......E........
0870: FF 7F 66 64 6F 31 09 80  1C 14 80 46 00 45 08 80  ..fdo1.....F.E..
0880: F0 FF FF 7F F0 FF FF 7F  66 64 69 31 09 80 21 00  ........fdi1..!.
```

#### Opcodes

```
  0: 0x0771 [0x42] SET_CLI_EVENT_CANCEL_DATA()
  1: 0x0772 [0x45] LOAD_SCHEDULED_TASK: Load scheduler "fdo0" with entities [LocalPlayer, LocalPlayer], work=[200*, 0*]
  2: 0x0783 [0x1C] WAIT(30* ticks)
  3: 0x0786 [0x38] SET_CLIENT_EVENT_MODE(mode=19*)
  4: 0x0789 [0x46] CAMERA_CONTROL: Disable user control
  5: 0x078B [0x37] UPDATE_EVENT_POSITION_AND_DIR: x=-74.873*, z=58.432*, y=0.021*, direction=212.8°*
  6: 0x0794 [0x45] LOAD_SCHEDULED_TASK: Load scheduler "s006" with entities [LocalPlayer, LocalPlayer], work=[239*, 0*]
  7: 0x07A5 [0x45] LOAD_SCHEDULED_TASK: Load scheduler "fdi0" with entities [LocalPlayer, LocalPlayer], work=[200*, 0*]
  8: 0x07B6 [0x4A] Drake Fang (ID: 17481823/0x010AC05F) looks at LocalPlayer
  9: 0x07BF [0x2B] Drake Fang (ID: 17481823/0x010AC05F) [7398*]:
    → "Well, it looks like Werei left a message on this piece of wood. This is an important find in our investigation."
 10: 0x07C6 [0x23] WAIT_FOR_DIALOG_INTERACTION
 11: 0x07C7 [0x27] REQ_SET(priority=0x0A, entity_id=Makarim (ID: 17481828/0x010AC064), tag_num=0x04)
 12: 0x07CE [0x27] REQ_SET(priority=0x0A, entity_id=Rasmus (ID: 17481821/0x010AC05D), tag_num=0x04)
 13: 0x07D5 [0x79] Drake Fang (ID: 17481823/0x010AC05F) looks at Makarim (ID: 17481828/0x010AC064) (Basic look)
 14: 0x07DF [0x2B] Drake Fang (ID: 17481823/0x010AC05F) [7399*]:
    → "Good. Now for--what? Is anything wrong, Foreman Makarim?"
 15: 0x07E6 [0x23] WAIT_FOR_DIALOG_INTERACTION
 16: 0x07E7 [0x27] REQ_SET(priority=0x0A, entity_id=Lasthenes (ID: 17481819/0x010AC05B), tag_num=0x05)
 17: 0x07EE [0x45] LOAD_SCHEDULED_TASK: Load scheduler "s007" with entities [LocalPlayer, LocalPlayer], work=[239*, 0*]
 18: 0x07FF [0x1E] EventEntity looks at Makarim (ID: 17481828/0x010AC064) and starts talking
 19: 0x0804 [0x2A] GET_REQ_LEVEL(level=10, entity_id=Makarim (ID: 17481828/0x010AC064))
 20: 0x080A [0x66] LOAD_EXT_SCHEDULER_MAIN: Load scheduler "ntl0" with entities [Makarim (ID: 17481828/0x010AC064), Makarim (ID: 17481828/0x010AC064)], work=11*
 21: 0x0819 [0x2B] Makarim (ID: 17481828/0x010AC064) [7400*]:
    → "Come quick! The Galka from the Mines District have forced their way up to the entrance of the mine!"
 22: 0x0820 [0x23] WAIT_FOR_DIALOG_INTERACTION
 23: 0x0821 [0x02] IF !(Work_Zone[2] == 0*) GOTO 0x0831
 24: 0x0829 [0x5C] MUSIC_CONTROL: Set Idle (Day) music to song 157*
 25: 0x082D [0x5C] MUSIC_CONTROL: Set Idle (Night) music to song 157*
 26: 0x0831 [0x66] LOAD_EXT_SCHEDULER_MAIN: Load scheduler "ntl1" with entities [Makarim (ID: 17481828/0x010AC064), Makarim (ID: 17481828/0x010AC064)], work=11*
 27: 0x0840 [0x2B] Drake Fang (ID: 17481823/0x010AC05F) [7401*]:
    → "What!?"
 28: 0x0847 [0x23] WAIT_FOR_DIALOG_INTERACTION
 29: 0x0848 [0x02] IF !(Work_Zone[2] == 0*) GOTO 0x0867
 30: 0x0850 [0x45] LOAD_SCHEDULED_TASK: Load scheduler "fdo1" with entities [LocalPlayer, LocalPlayer], work=[200*, 0*]
 31: 0x0861 [0x1C] WAIT(60* ticks)
 32: 0x0864 [0x01] GOTO 0x088E
 33: 0x0867 [0x45] LOAD_SCHEDULED_TASK: Load scheduler "fdo1" with entities [LocalPlayer, LocalPlayer], work=[200*, 0*]
 34: 0x0878 [0x1C] WAIT(60* ticks)
 35: 0x087B [0x46] CAMERA_CONTROL: Restore default settings
 36: 0x087D [0x45] LOAD_SCHEDULED_TASK: Load scheduler "fdi1" with entities [LocalPlayer, LocalPlayer], work=[200*, 0*]

SUBROUTINE_088E:
 37: 0x088E [0x21] END_EVENT
 38: 0x088F [0x00] END_REQSTACK()
```

### Event 65535.1

#### Metadata

| Field        | Value    |
|--------------|----------|
| Entrypoint   | 0x0890   |
| Data Size    | 15 bytes |
| Instructions | 5        |

```
      00 01 02 03 04 05 06 07  08 09 0A 0B 0C 0D 0E 0F
      -- -- -- -- -- -- -- --  -- -- -- -- -- -- -- --
0890: 32 25 80 1F 00 6B 80 6C  80 09 80 1F 01 6F 00     2%...k.l.....o. 
```

#### Opcodes

```
  0: 0x0890 [0x32] ExtData[1]->MainSpeed = 13* * 0.1
  1: 0x0893 [0x1F] MOVE_ENTITY: EventEntity moves to X=-26.000*, Z=4.000*, Y=0.000*
  2: 0x089B [0x1F] MOVE_ENTITY: Update entity position (mode=1)
  3: 0x089D [0x6F] WAIT_FRAME_DELAY: Yield until WaitTime reaches zero
  4: 0x089E [0x00] END_REQSTACK()
```

### Event 65535.2

#### Metadata

| Field        | Value    |
|--------------|----------|
| Entrypoint   | 0x089F   |
| Data Size    | 15 bytes |
| Instructions | 5        |

```
      00 01 02 03 04 05 06 07  08 09 0A 0B 0C 0D 0E 0F
      -- -- -- -- -- -- -- --  -- -- -- -- -- -- -- --
0890:                                               32                 2
08A0: 25 80 1F 00 6D 80 6C 80  09 80 1F 01 6F 00        %...m.l.....o.  
```

#### Opcodes

```
  0: 0x089F [0x32] ExtData[1]->MainSpeed = 13* * 0.1
  1: 0x08A2 [0x1F] MOVE_ENTITY: EventEntity moves to X=-25.600*, Z=4.000*, Y=0.000*
  2: 0x08AA [0x1F] MOVE_ENTITY: Update entity position (mode=1)
  3: 0x08AC [0x6F] WAIT_FRAME_DELAY: Yield until WaitTime reaches zero
  4: 0x08AD [0x00] END_REQSTACK()
```

### Event 65535.3

#### Metadata

| Field        | Value   |
|--------------|---------|
| Entrypoint   | 0x08AE  |
| Data Size    | 6 bytes |
| Instructions | 2       |

```
      00 01 02 03 04 05 06 07  08 09 0A 0B 0C 0D 0E 0F
      -- -- -- -- -- -- -- --  -- -- -- -- -- -- -- --
08A0:                                            03 09                ..
08B0: 10 07 7F 00                                       ....            
```

#### Opcodes

```
  0: 0x08AE [0x03] Work_Zone[9] = Entity->Race
  1: 0x08B3 [0x00] END_REQSTACK()
```

### Event 65535.4

#### Metadata

| Field        | Value    |
|--------------|----------|
| Entrypoint   | 0x08B4   |
| Data Size    | 15 bytes |
| Instructions | 5        |

```
      00 01 02 03 04 05 06 07  08 09 0A 0B 0C 0D 0E 0F
      -- -- -- -- -- -- -- --  -- -- -- -- -- -- -- --
08B0:             32 25 80 1F  00 6E 80 6F 80 70 80 1F      2%...n.o.p..
08C0: 01 6F 00                                          .o.             
```

#### Opcodes

```
  0: 0x08B4 [0x32] ExtData[1]->MainSpeed = 13* * 0.1
  1: 0x08B7 [0x1F] MOVE_ENTITY: EventEntity moves to X=142.111*, Z=-198.118*, Y=8.227*
  2: 0x08BF [0x1F] MOVE_ENTITY: Update entity position (mode=1)
  3: 0x08C1 [0x6F] WAIT_FRAME_DELAY: Yield until WaitTime reaches zero
  4: 0x08C2 [0x00] END_REQSTACK()
```

### Event 65535.5

#### Metadata

| Field        | Value   |
|--------------|---------|
| Entrypoint   | 0x08C3  |
| Data Size    | 7 bytes |
| Instructions | 3       |

```
      00 01 02 03 04 05 06 07  08 09 0A 0B 0C 0D 0E 0F
      -- -- -- -- -- -- -- --  -- -- -- -- -- -- -- --
08C0:          AB 03 AC 01 5B  80 00                       ....[..      
```

#### Opcodes

```
  0: 0x08C3 [0xAB] EventEntity->Render.Flags0 ^= 0x20000 // Toggle bit 17
  1: 0x08C5 [0xAC] EventEntity->StatusEvent = 1*
  2: 0x08C9 [0x00] END_REQSTACK()
```

### Event 65535.6

#### Metadata

| Field        | Value   |
|--------------|---------|
| Entrypoint   | 0x08CA  |
| Data Size    | 7 bytes |
| Instructions | 3       |

```
      00 01 02 03 04 05 06 07  08 09 0A 0B 0C 0D 0E 0F
      -- -- -- -- -- -- -- --  -- -- -- -- -- -- -- --
08C0:                                AC 01 09 80 AB 04            ......
08D0: 00                                                .               
```

#### Opcodes

```
  0: 0x08CA [0xAC] EventEntity->StatusEvent = 0*
  1: 0x08CE [0xAB] EventEntity->Render.Flags0 |= 0x40000 // Set bit 18
  2: 0x08D0 [0x00] END_REQSTACK()
```

### Event 65535.7

#### Metadata

| Field        | Value    |
|--------------|----------|
| Entrypoint   | 0x08D1   |
| Data Size    | 20 bytes |
| Instructions | 6        |

```
      00 01 02 03 04 05 06 07  08 09 0A 0B 0C 0D 0E 0F
      -- -- -- -- -- -- -- --  -- -- -- -- -- -- -- --
08D0:    99 F0 FF FF 7F 32 71  80 1F 00 72 80 73 80 74   .....2q...r.s.t
08E0: 80 1F 01 6F 00                                    ...o.           
```

#### Opcodes

```
  0: 0x08D1 [0x99] Wait for LocalPlayer animation to complete
  1: 0x08D6 [0x32] ExtData[1]->MainSpeed = 40* * 0.1
  2: 0x08D9 [0x1F] MOVE_ENTITY: EventEntity moves to X=143.179*, Z=-194.046*, Y=8.247*
  3: 0x08E1 [0x1F] MOVE_ENTITY: Update entity position (mode=1)
  4: 0x08E3 [0x6F] WAIT_FRAME_DELAY: Yield until WaitTime reaches zero
  5: 0x08E4 [0x00] END_REQSTACK()
```

### Event 65535.8

#### Metadata

| Field        | Value    |
|--------------|----------|
| Entrypoint   | 0x08E5   |
| Data Size    | 15 bytes |
| Instructions | 5        |

```
      00 01 02 03 04 05 06 07  08 09 0A 0B 0C 0D 0E 0F
      -- -- -- -- -- -- -- --  -- -- -- -- -- -- -- --
08E0:                32 25 80  1F 00 75 80 76 80 09 80       2%...u.v...
08F0: 1F 01 6F 00                                       ..o.            
```

#### Opcodes

```
  0: 0x08E5 [0x32] ExtData[1]->MainSpeed = 13* * 0.1
  1: 0x08E8 [0x1F] MOVE_ENTITY: EventEntity moves to X=-28.029*, Z=5.830*, Y=0.000*
  2: 0x08F0 [0x1F] MOVE_ENTITY: Update entity position (mode=1)
  3: 0x08F2 [0x6F] WAIT_FRAME_DELAY: Yield until WaitTime reaches zero
  4: 0x08F3 [0x00] END_REQSTACK()
```

### Event 65535.9

#### Metadata

| Field        | Value    |
|--------------|----------|
| Entrypoint   | 0x08F4   |
| Data Size    | 15 bytes |
| Instructions | 5        |

```
      00 01 02 03 04 05 06 07  08 09 0A 0B 0C 0D 0E 0F
      -- -- -- -- -- -- -- --  -- -- -- -- -- -- -- --
08F0:             32 71 80 1F  00 77 80 78 80 09 80 1F      2q...w.x....
0900: 01 6F 00                                          .o.             
```

#### Opcodes

```
  0: 0x08F4 [0x32] ExtData[1]->MainSpeed = 40* * 0.1
  1: 0x08F7 [0x1F] MOVE_ENTITY: EventEntity moves to X=-31.902*, Z=18.264*, Y=0.000*
  2: 0x08FF [0x1F] MOVE_ENTITY: Update entity position (mode=1)
  3: 0x0901 [0x6F] WAIT_FRAME_DELAY: Yield until WaitTime reaches zero
  4: 0x0902 [0x00] END_REQSTACK()
```

### Event 65535.10

#### Metadata

| Field        | Value    |
|--------------|----------|
| Entrypoint   | 0x0903   |
| Data Size    | 15 bytes |
| Instructions | 5        |

```
      00 01 02 03 04 05 06 07  08 09 0A 0B 0C 0D 0E 0F
      -- -- -- -- -- -- -- --  -- -- -- -- -- -- -- --
0900:          32 71 80 1F 00  79 80 7A 80 09 80 1F 01     2q...y.z.....
0910: 6F 00                                             o.              
```

#### Opcodes

```
  0: 0x0903 [0x32] ExtData[1]->MainSpeed = 40* * 0.1
  1: 0x0906 [0x1F] MOVE_ENTITY: EventEntity moves to X=-47.788*, Z=19.481*, Y=0.000*
  2: 0x090E [0x1F] MOVE_ENTITY: Update entity position (mode=1)
  3: 0x0910 [0x6F] WAIT_FRAME_DELAY: Yield until WaitTime reaches zero
  4: 0x0911 [0x00] END_REQSTACK()
```

### Event 65535.11

#### Metadata

| Field        | Value    |
|--------------|----------|
| Entrypoint   | 0x0912   |
| Data Size    | 28 bytes |
| Instructions | 8        |

```
      00 01 02 03 04 05 06 07  08 09 0A 0B 0C 0D 0E 0F
      -- -- -- -- -- -- -- --  -- -- -- -- -- -- -- --
0910:       32 25 80 1F 00 7B  80 7C 80 7D 80 1F 01 6F    2%...{.|.}...o
0920: 4B F8 FF FF 7F 7E 80 6F  76 F8 FF FF 7F 00        K....~.ov.....  
```

#### Opcodes

```
  0: 0x0912 [0x32] ExtData[1]->MainSpeed = 13* * 0.1
  1: 0x0915 [0x1F] MOVE_ENTITY: EventEntity moves to X=-59.007*, Z=20.763*, Y=-0.012*
  2: 0x091D [0x1F] MOVE_ENTITY: Update entity position (mode=1)
  3: 0x091F [0x6F] WAIT_FRAME_DELAY: Yield until WaitTime reaches zero
  4: 0x0920 [0x4B] UPDATE_ENTITY_YAW(entity=EventEntity, yaw=16.7°*)
  5: 0x0927 [0x6F] WAIT_FRAME_DELAY: Yield until WaitTime reaches zero
  6: 0x0928 [0x76] CHECK_ENTITY_RENDER_FLAGS: Wait until EventEntity Render.Flags0 and Render.Flags3 conditions are met
  7: 0x092D [0x00] END_REQSTACK()
```

### Event 65535.12

#### Metadata

| Field        | Value    |
|--------------|----------|
| Entrypoint   | 0x092E   |
| Data Size    | 15 bytes |
| Instructions | 5        |

```
      00 01 02 03 04 05 06 07  08 09 0A 0B 0C 0D 0E 0F
      -- -- -- -- -- -- -- --  -- -- -- -- -- -- -- --
0920:                                            32 71                2q
0930: 80 1F 00 7F 80 80 80 81  80 1F 01 6F 00           ...........o.   
```

#### Opcodes

```
  0: 0x092E [0x32] ExtData[1]->MainSpeed = 40* * 0.1
  1: 0x0931 [0x1F] MOVE_ENTITY: EventEntity moves to X=2.363*, Z=-136.171*, Y=9.484*
  2: 0x0939 [0x1F] MOVE_ENTITY: Update entity position (mode=1)
  3: 0x093B [0x6F] WAIT_FRAME_DELAY: Yield until WaitTime reaches zero
  4: 0x093C [0x00] END_REQSTACK()
```
