# Event 65535

## Metadata

| Field           | Value    |
|-----------------|----------|
| Event Index     | 12/28    |
| Offset          | 0x0083   |
| Data Size       | 53 bytes |
| Calculated Size | 53 bytes |
| Instructions    | 10       |

```
      00 01 02 03 04 05 06 07  08 09 0A 0B 0C 0D 0E 0F
      -- -- -- -- -- -- -- --  -- -- -- -- -- -- -- --
0080:          59 04 F8 FF FF  7F 14 80 1F 00 18 80 19     Y............
0090: 80 1A 80 1F 01 6F 4B F8  FF FF 7F 1B 80 7B F8 FF  .....oK......{..
00A0: FF 7F 6F 76 F8 FF FF 7F  66 1C 80 F8 FF FF 7F F8  ..ov....f.......
00B0: FF FF 7F 73 68 61 30 00                           ...sha0.        
```

## Opcodes

```
  0: 0x0083 [0x59] UPDATE_ENTITY_DATA: Set EventEntity main speed = 42* * 0.1
  1: 0x008B [0x1F] MOVE_ENTITY: EventEntity moves to X=-194.776*, Z=-15.197*, Y=0.275*
  2: 0x0093 [0x1F] MOVE_ENTITY: Update entity position (mode=1)
  3: 0x0095 [0x6F] WAIT_FRAME_DELAY: Yield until WaitTime reaches zero
  4: 0x0096 [0x4B] UPDATE_ENTITY_YAW(entity=EventEntity, yaw=17.84°*)
  5: 0x009D [0x7B] EventEntity stops talking
  6: 0x00A2 [0x6F] WAIT_FRAME_DELAY: Yield until WaitTime reaches zero
  7: 0x00A3 [0x76] CHECK_ENTITY_RENDER_FLAGS: Wait until EventEntity Render.Flags0 and Render.Flags3 conditions are met
  8: 0x00A8 [0x66] LOAD_EXT_SCHEDULER_MAIN(work_offset=59*, entity1=EventEntity, entity2=EventEntity, action="sha0")
  9: 0x00B7 [0x00] END_REQSTACK()
```
