# Event 20

## Metadata

| Field           | Value    |
|-----------------|----------|
| Event Index     | 54/90    |
| Offset          | 0x0331   |
| Data Size       | 40 bytes |
| Calculated Size | 40 bytes |
| Instructions    | 13       |

```
      00 01 02 03 04 05 06 07  08 09 0A 0B 0C 0D 0E 0F
      -- -- -- -- -- -- -- --  -- -- -- -- -- -- -- --
0330:    1E F0 FF FF 7F 6F 70  29 08 EA 21 11 01 01 1D   .....op)..!....
0340: 05 80 23 1D 06 80 23 29  08 EA 21 11 01 02 27 08  ..#...#)..!...'.
0350: EA 21 11 01 03 20 00 21  00                       .!... .!.       
```

## Opcodes

```
  0: 0x0331 [0x1E] EventEntity looks at LocalPlayer and starts talking
  1: 0x0336 [0x6F] WAIT_FRAME_DELAY: Yield until WaitTime reaches zero
  2: 0x0337 [0x70] WAIT_ENTITY_RENDER_FLAG: Wait while EventEntity->Render.Flags3 bit 2 is set (cancel turn if not)
  3: 0x0338 [0x29] REQ_SET_WAIT(priority=0x08, entity_id=Lerene (ID: 17900010/0x011121EA), tag_num=0x01)
  4: 0x033F [0x1D] PRINT_EVENT_MESSAGE(message_id=7790*)
    → "I am Lerene, a researcher of sorts who travels Vana'diel, studying ancient ruins.\u0007What brings you to this dreadful place?\u007F1\u0000\u0007"
  5: 0x0342 [0x23] WAIT_FOR_DIALOG_INTERACTION
  6: 0x0343 [0x1D] PRINT_EVENT_MESSAGE(message_id=7791*)
    → "My my, if only you knew how it does my heart good to see another living soul!\u007F1\u0000\u0007"
  7: 0x0346 [0x23] WAIT_FOR_DIALOG_INTERACTION
  8: 0x0347 [0x29] REQ_SET_WAIT(priority=0x08, entity_id=Lerene (ID: 17900010/0x011121EA), tag_num=0x02)
  9: 0x034E [0x27] REQ_SET(priority=0x08, entity_id=Lerene (ID: 17900010/0x011121EA), tag_num=0x03)
 10: 0x0355 [0x20] SET_CLI_EVENT_UC_FLAG: Unlock player control
 11: 0x0357 [0x21] END_EVENT
 12: 0x0358 [0x00] END_REQSTACK()
```
