# Event 21

## Metadata

| Field           | Value    |
|-----------------|----------|
| Event Index     | 55/90    |
| Offset          | 0x0359   |
| Data Size       | 40 bytes |
| Calculated Size | 40 bytes |
| Instructions    | 13       |

```
      00 01 02 03 04 05 06 07  08 09 0A 0B 0C 0D 0E 0F
      -- -- -- -- -- -- -- --  -- -- -- -- -- -- -- --
0350:                             1E F0 FF FF 7F 6F 70           .....op
0360: 29 08 EA 21 11 01 1F 1D  07 80 23 1D 08 80 23 29  )..!......#...#)
0370: 08 EA 21 11 01 20 29 08  EA 21 11 01 21 20 00 21  ..!.. )..!..! .!
0380: 00                                                .               
```

## Opcodes

```
  0: 0x0359 [0x1E] EventEntity looks at LocalPlayer and starts talking
  1: 0x035E [0x6F] WAIT_FRAME_DELAY: Yield until WaitTime reaches zero
  2: 0x035F [0x70] WAIT_ENTITY_RENDER_FLAG: Wait while EventEntity->Render.Flags3 bit 2 is set (cancel turn if not)
  3: 0x0360 [0x29] REQ_SET_WAIT(priority=0x08, entity_id=Lerene (ID: 17900010/0x011121EA), tag_num=0x1F)
  4: 0x0367 [0x1D] PRINT_EVENT_MESSAGE(message_id=7792*)
    → "How odd. I can't shake this feeling that we've met somewhere before.\u007F1\u0000\u0007"
  5: 0x036A [0x23] WAIT_FOR_DIALOG_INTERACTION
  6: 0x036B [0x1D] PRINT_EVENT_MESSAGE(message_id=7793*)
    → "My name is Er...\u0007Err...Lerene. I'm a bit of a researcher.\u007F1\u0000\u0007"
  7: 0x036E [0x23] WAIT_FOR_DIALOG_INTERACTION
  8: 0x036F [0x29] REQ_SET_WAIT(priority=0x08, entity_id=Lerene (ID: 17900010/0x011121EA), tag_num=0x20)
  9: 0x0376 [0x29] REQ_SET_WAIT(priority=0x08, entity_id=Lerene (ID: 17900010/0x011121EA), tag_num=0x21)
 10: 0x037D [0x20] SET_CLI_EVENT_UC_FLAG: Unlock player control
 11: 0x037F [0x21] END_EVENT
 12: 0x0380 [0x00] END_REQSTACK()
```
