# Event 23

## Metadata

| Field           | Value    |
|-----------------|----------|
| Event Index     | 57/90    |
| Offset          | 0x04A7   |
| Data Size       | 31 bytes |
| Calculated Size | 31 bytes |
| Instructions    | 12       |

```
      00 01 02 03 04 05 06 07  08 09 0A 0B 0C 0D 0E 0F
      -- -- -- -- -- -- -- --  -- -- -- -- -- -- -- --
04A0:                      1E  F0 FF FF 7F 6F 70 29 08         .....op).
04B0: EA 21 11 01 01 1D 1F 80  23 03 03 10 17 80 1D 20  .!......#...... 
04C0: 80 23 20 00 21 00                                 .# .!.          
```

## Opcodes

```
  0: 0x04A7 [0x1E] EventEntity looks at LocalPlayer and starts talking
  1: 0x04AC [0x6F] WAIT_FRAME_DELAY: Yield until WaitTime reaches zero
  2: 0x04AD [0x70] WAIT_ENTITY_RENDER_FLAG: Wait while EventEntity->Render.Flags3 bit 2 is set (cancel turn if not)
  3: 0x04AE [0x29] REQ_SET_WAIT(priority=0x08, entity_id=Lerene (ID: 17900010/0x011121EA), tag_num=0x01)
  4: 0x04B5 [0x1D] PRINT_EVENT_MESSAGE(message_id=7812*)
    → "The shadows located here within Ra'Kaznar have got to have what I seek. I can feel it.\u007F1\u0000\u0007"
  5: 0x04B8 [0x23] WAIT_FOR_DIALOG_INTERACTION
  6: 0x04B9 [0x03] Work_Zone[3] = 8751*
  7: 0x04BE [0x1D] PRINT_EVENT_MESSAGE(message_id=7813*)
    → "The more you bring back, the easier it'll be for me to make the paten. Let's see...a total of two \u0001\u0005%\u0002\u0001\u0000\u0000 should suffice.\u007F1\u0000\u0007"
  8: 0x04C1 [0x23] WAIT_FOR_DIALOG_INTERACTION
  9: 0x04C2 [0x20] SET_CLI_EVENT_UC_FLAG: Unlock player control
 10: 0x04C4 [0x21] END_EVENT
 11: 0x04C5 [0x00] END_REQSTACK()
```
