# Event 25

## Metadata

| Field           | Value    |
|-----------------|----------|
| Event Index     | 69/90    |
| Offset          | 0x058E   |
| Data Size       | 40 bytes |
| Calculated Size | 40 bytes |
| Instructions    | 13       |

```
      00 01 02 03 04 05 06 07  08 09 0A 0B 0C 0D 0E 0F
      -- -- -- -- -- -- -- --  -- -- -- -- -- -- -- --
0580:                                            1E F0                ..
0590: FF FF 7F 6F 70 29 08 EA  21 11 01 1F 1D 32 80 23  ...op)..!....2.#
05A0: 29 08 EA 21 11 01 20 29  08 EA 21 11 01 21 1D 33  )..!.. )..!..!.3
05B0: 80 23 20 00 21 00                                 .# .!.          
```

## Opcodes

```
  0: 0x058E [0x1E] EventEntity looks at LocalPlayer and starts talking
  1: 0x0593 [0x6F] WAIT_FRAME_DELAY: Yield until WaitTime reaches zero
  2: 0x0594 [0x70] WAIT_ENTITY_RENDER_FLAG: Wait while EventEntity->Render.Flags3 bit 2 is set (cancel turn if not)
  3: 0x0595 [0x29] REQ_SET_WAIT(priority=0x08, entity_id=Lerene (ID: 17900010/0x011121EA), tag_num=0x1F)
  4: 0x059C [0x1D] PRINT_EVENT_MESSAGE(message_id=7835*)
    → "Even the burning sun of ignorance cannot evaporate the fountain of knowledge. The rest I leave in your capable hands.\u007F1\u0000\u0007"
  5: 0x059F [0x23] WAIT_FOR_DIALOG_INTERACTION
  6: 0x05A0 [0x29] REQ_SET_WAIT(priority=0x08, entity_id=Lerene (ID: 17900010/0x011121EA), tag_num=0x20)
  7: 0x05A7 [0x29] REQ_SET_WAIT(priority=0x08, entity_id=Lerene (ID: 17900010/0x011121EA), tag_num=0x21)
  8: 0x05AE [0x1D] PRINT_EVENT_MESSAGE(message_id=7836*)
    → "After all, there is more research to be done!\u007F1\u0000\u0007"
  9: 0x05B1 [0x23] WAIT_FOR_DIALOG_INTERACTION
 10: 0x05B2 [0x20] SET_CLI_EVENT_UC_FLAG: Unlock player control
 11: 0x05B4 [0x21] END_EVENT
 12: 0x05B5 [0x00] END_REQSTACK()
```
