# Event 65535

## Metadata

| Field           | Value    |
|-----------------|----------|
| Event Index     | 63/90    |
| Offset          | 0x051A   |
| Data Size       | 58 bytes |
| Calculated Size | 58 bytes |
| Instructions    | 10       |

```
      00 01 02 03 04 05 06 07  08 09 0A 0B 0C 0D 0E 0F
      -- -- -- -- -- -- -- --  -- -- -- -- -- -- -- --
0510:                                32 01 80 1F 00 2E            2.....
0520: 80 2F 80 2A 80 1F 01 1C  24 80 4B F8 FF FF 7F 30  ./.*....$.K....0
0530: 80 6F 76 F8 FF FF 7F 66  03 80 F8 FF FF 7F F8 FF  .ov....f........
0540: FF 7F 64 6B 30 30 53 F8  FF FF 7F F8 FF FF 7F 64  ..dk00S........d
0550: 6B 30 30 00                                       k00.            
```

## Opcodes

```
  0: 0x051A [0x32] ExtData[1]->MainSpeed = 13* * 0.1
  1: 0x051D [0x1F] MOVE_ENTITY: EventEntity moves to X=737.479*, Z=119.962*, Y=99.999*
  2: 0x0525 [0x1F] MOVE_ENTITY: Update entity position (mode=1)
  3: 0x0527 [0x1C] WAIT(20* ticks)
  4: 0x052A [0x4B] UPDATE_ENTITY_YAW(entity=EventEntity, yaw=0.3°*)
  5: 0x0531 [0x6F] WAIT_FRAME_DELAY: Yield until WaitTime reaches zero
  6: 0x0532 [0x76] CHECK_ENTITY_RENDER_FLAGS: Wait until EventEntity Render.Flags0 and Render.Flags3 conditions are met
  7: 0x0537 [0x66] LOAD_EXT_SCHEDULER_MAIN: Load scheduler "dk00" with entities [EventEntity, EventEntity], work=12*
  8: 0x0546 [0x53] WAIT_SCHEDULER_TASK: Wait for scheduler "dk00" with entities [EventEntity, EventEntity]
  9: 0x0553 [0x00] END_REQSTACK()
```
