# Event 65535

## Metadata

| Field           | Value    |
|-----------------|----------|
| Event Index     | 24/28    |
| Offset          | 0x0141   |
| Data Size       | 42 bytes |
| Calculated Size | 42 bytes |
| Instructions    | 10       |

```
      00 01 02 03 04 05 06 07  08 09 0A 0B 0C 0D 0E 0F
      -- -- -- -- -- -- -- --  -- -- -- -- -- -- -- --
0140:    4A 5A 20 0F 01 55 20  0F 01 6F 76 5A 20 0F 01   JZ ..U ..ovZ ..
0150: 1C 0B 80 32 00 80 1F 00  0C 80 0D 80 0A 80 1F 01  ...2............
0160: 1F 00 0E 80 0F 80 0A 80  1F 01 00                 ...........     
```

## Opcodes

```
  0: 0x0141 [0x4A] Rakocha-Mukocha (ID: 17768538/0x010F205A) looks at Shantotto (ID: 17768533/0x010F2055)
  1: 0x014A [0x6F] WAIT_FRAME_DELAY: Yield until WaitTime reaches zero
  2: 0x014B [0x76] CHECK_ENTITY_RENDER_FLAGS: Wait until Rakocha-Mukocha (ID: 17768538/0x010F205A) Render.Flags0 and Render.Flags3 conditions are met
  3: 0x0150 [0x1C] WAIT(60* ticks)
  4: 0x0153 [0x32] ExtData[1]->MainSpeed = 40* * 0.1
  5: 0x0156 [0x1F] MOVE_ENTITY: EventEntity moves to X=-31.400*, Z=68.365*, Y=0.601*
  6: 0x015E [0x1F] MOVE_ENTITY: Update entity position (mode=1)
  7: 0x0160 [0x1F] MOVE_ENTITY: EventEntity moves to X=-33.862*, Z=68.775*, Y=0.601*
  8: 0x0168 [0x1F] MOVE_ENTITY: Update entity position (mode=1)
  9: 0x016A [0x00] END_REQSTACK()
```
