# Event 65535

## Metadata

| Field           | Value    |
|-----------------|----------|
| Event Index     | 15/34    |
| Offset          | 0x00AE   |
| Data Size       | 40 bytes |
| Calculated Size | 40 bytes |
| Instructions    | 9        |

```
      00 01 02 03 04 05 06 07  08 09 0A 0B 0C 0D 0E 0F
      -- -- -- -- -- -- -- --  -- -- -- -- -- -- -- --
00A0:                                            59 04                Y.
00B0: F8 FF FF 7F 0A 80 1F 00  0B 80 0C 80 0D 80 1F 01  ................
00C0: 1F 00 0E 80 0F 80 0D 80  1F 01 1F 00 10 80 11 80  ................
00D0: 12 80 1F 01 6F 00                                 ....o.          
```

## Opcodes

```
  0: 0x00AE [0x59] UPDATE_ENTITY_DATA: Set EventEntity main speed = 40* * 0.1
  1: 0x00B6 [0x1F] MOVE_ENTITY: EventEntity moves to X=-135.612*, Z=580.341*, Y=-6.750*
  2: 0x00BE [0x1F] MOVE_ENTITY: Update entity position (mode=1)
  3: 0x00C0 [0x1F] MOVE_ENTITY: EventEntity moves to X=-128.108*, Z=580.931*, Y=-6.750*
  4: 0x00C8 [0x1F] MOVE_ENTITY: Update entity position (mode=1)
  5: 0x00CA [0x1F] MOVE_ENTITY: EventEntity moves to X=-117.535*, Z=582.234*, Y=-7.334*
  6: 0x00D2 [0x1F] MOVE_ENTITY: Update entity position (mode=1)
  7: 0x00D4 [0x6F] WAIT_FRAME_DELAY: Yield until WaitTime reaches zero
  8: 0x00D5 [0x00] END_REQSTACK()
```
