# Event 65535

## Metadata

| Field           | Value    |
|-----------------|----------|
| Event Index     | 24/34    |
| Offset          | 0x01B5   |
| Data Size       | 50 bytes |
| Calculated Size | 50 bytes |
| Instructions    | 9        |

```
      00 01 02 03 04 05 06 07  08 09 0A 0B 0C 0D 0E 0F
      -- -- -- -- -- -- -- --  -- -- -- -- -- -- -- --
01B0:                59 04 F8  FF FF 7F 03 80 1F 00 2B       Y.........+
01C0: 80 2C 80 2D 80 1F 01 6F  4A F8 FF FF 7F F0 FF FF  .,.-...oJ.......
01D0: 7F 6F 76 F8 FF FF 7F 5B  2E 80 F8 FF FF 7F F8 FF  .ov....[........
01E0: FF 7F 70 61 73 30 00                              ..pas0.         
```

## Opcodes

```
  0: 0x01B5 [0x59] UPDATE_ENTITY_DATA: Set EventEntity main speed = 13* * 0.1
  1: 0x01BD [0x1F] MOVE_ENTITY: EventEntity moves to X=-143.632*, Z=585.101*, Y=-6.749*
  2: 0x01C5 [0x1F] MOVE_ENTITY: Update entity position (mode=1)
  3: 0x01C7 [0x6F] WAIT_FRAME_DELAY: Yield until WaitTime reaches zero
  4: 0x01C8 [0x4A] EventEntity looks at LocalPlayer
  5: 0x01D1 [0x6F] WAIT_FRAME_DELAY: Yield until WaitTime reaches zero
  6: 0x01D2 [0x76] CHECK_ENTITY_RENDER_FLAGS: Wait until EventEntity Render.Flags0 and Render.Flags3 conditions are met
  7: 0x01D7 [0x5B] LOAD_EXT_SCHEDULER: Load scheduler "pas0" with entities [EventEntity, EventEntity], work=2474*
  8: 0x01E6 [0x00] END_REQSTACK()
```
