# Event 65535

## Metadata

| Field           | Value    |
|-----------------|----------|
| Event Index     | 46/47    |
| Offset          | 0x01FE   |
| Data Size       | 53 bytes |
| Calculated Size | 53 bytes |
| Instructions    | 6        |

```
      00 01 02 03 04 05 06 07  08 09 0A 0B 0C 0D 0E 0F
      -- -- -- -- -- -- -- --  -- -- -- -- -- -- -- --
01F0:                                            22 00                ".
0200: 2F 00 F8 FF FF 7F B6 0B  10 80 10 80 11 80 12 80  /...............
0210: 00 80 06 80 06 80 13 80  00 80 B4 00 00 00 00 00  ................
0220: 00 00 00 00 00 00 00 00  00 00 00 00 00 00 B5 00  ................
0230: 00 00 00                                          ...             
```

## Opcodes

```
  0: 0x01FE [0x22] ENTITY_HIDE_FLAG(enabled=0x00)
  1: 0x0200 [0x2F] EventEntity->Render.Flags0 &= ~0x80000 // Bit 19
  2: 0x0206 [0xB6] ENTITY_APPEARANCE_HANDLER(case=Full entity look, race=5*, hair=5*, head=138*, body=145*, hands=0*, legs=2*, feet=2*, main=115*, sub=0*)
  3: 0x021A [0xB4] UI_WINDOW_STRING_HANDLER(case=0x00 - Copy string from opcode, work_offset=ExtData[1]->WorkLocal[0], string="")
  4: 0x022E [0xB5] SET_EVENT_ENTITY_NAME: Change EventEntity name to ExtData[1]->WorkLocal[0]
  5: 0x0232 [0x00] END_REQSTACK()
```
