# Event 10061

## Metadata

| Field           | Value    |
|-----------------|----------|
| Event Index     | 24/36    |
| Offset          | 0x0315   |
| Data Size       | 40 bytes |
| Calculated Size | 40 bytes |
| Instructions    | 12       |

```
      00 01 02 03 04 05 06 07  08 09 0A 0B 0C 0D 0E 0F
      -- -- -- -- -- -- -- --  -- -- -- -- -- -- -- --
0310:                1E F0 FF  FF 7F 6F 70 66 00 80 F8       .....opf...
0320: FF FF 7F F8 FF FF 7F 74  6C 6B 30 1D 38 80 23 1D  .......tlk0.8.#.
0330: 39 80 23 5E 69 64 6C 30  1C 19 80 21 00           9.#^idl0...!.   
```

## Opcodes

```
  0: 0x0315 [0x1E] EventEntity looks at LocalPlayer and starts talking
  1: 0x031A [0x6F] WAIT_FRAME_DELAY: Yield until WaitTime reaches zero
  2: 0x031B [0x70] WAIT_ENTITY_RENDER_FLAG: Wait while EventEntity->Render.Flags3 bit 2 is set (cancel turn if not)
  3: 0x031C [0x66] LOAD_EXT_SCHEDULER_MAIN(work_offset=40*, entity1=EventEntity, entity2=EventEntity, action="tlk0")
  4: 0x032B [0x1D] PRINT_EVENT_MESSAGE(message_id=9515*)
    → "What's going on?\u0007The boss is walking around like he's seen the Gates of Paradise, or something.\u007F1\u0000\u0007"
  5: 0x032E [0x23] WAIT_FOR_DIALOG_INTERACTION
  6: 0x032F [0x1D] PRINT_EVENT_MESSAGE(message_id=9516*)
    → "He always gets like that when you're around.\u0007I don't get it, you don't look that special to me.\u0007It's starting to give me the heebie-jeebies...\u007F1\u0000\u0007"
  7: 0x0332 [0x23] WAIT_FOR_DIALOG_INTERACTION
  8: 0x0333 [0x5E] EventEntity goes idle (kills current action) (animation: "idl0")
  9: 0x0338 [0x1C] WAIT(60* ticks)
 10: 0x033B [0x21] END_EVENT
 11: 0x033C [0x00] END_REQSTACK()
```
