# Event 87

## Metadata

| Field           | Value    |
|-----------------|----------|
| Event Index     | 13/36    |
| Offset          | 0x0194   |
| Data Size       | 40 bytes |
| Calculated Size | 40 bytes |
| Instructions    | 12       |

```
      00 01 02 03 04 05 06 07  08 09 0A 0B 0C 0D 0E 0F
      -- -- -- -- -- -- -- --  -- -- -- -- -- -- -- --
0190:             1E F0 FF FF  7F 6F 70 66 00 80 F8 FF      .....opf....
01A0: FF 7F F8 FF FF 7F 74 6C  6B 30 1D 23 80 23 1D 24  ......tlk0.#.#.$
01B0: 80 23 5E 69 64 6C 30 1C  19 80 21 00              .#^idl0...!.    
```

## Opcodes

```
  0: 0x0194 [0x1E] EventEntity looks at LocalPlayer and starts talking
  1: 0x0199 [0x6F] WAIT_FRAME_DELAY: Yield until WaitTime reaches zero
  2: 0x019A [0x70] WAIT_ENTITY_RENDER_FLAG: Wait while EventEntity->Render.Flags3 bit 2 is set (cancel turn if not)
  3: 0x019B [0x66] LOAD_EXT_SCHEDULER_MAIN: Load scheduler "tlk0" with entities [EventEntity, EventEntity], work=40*
  4: 0x01AA [0x1D] PRINT_EVENT_MESSAGE(message_id=7726*)
    → "This is great! This is stupendous! I have a feeling that everything will finally-winally go back to being the way it was!\u007F1\u0000\u0007"
  5: 0x01AD [0x23] WAIT_FOR_DIALOG_INTERACTION
  6: 0x01AE [0x1D] PRINT_EVENT_MESSAGE(message_id=7727*)
    → "But I'm still kinda worried about Verena... She's growing up so fast!\u007F1\u0000\u0007"
  7: 0x01B1 [0x23] WAIT_FOR_DIALOG_INTERACTION
  8: 0x01B2 [0x5E] EventEntity goes idle (kills current action) (animation: "idl0")
  9: 0x01B7 [0x1C] WAIT(60* ticks)
 10: 0x01BA [0x21] END_EVENT
 11: 0x01BB [0x00] END_REQSTACK()
```
