# Event 91

## Metadata

| Field           | Value    |
|-----------------|----------|
| Event Index     | 19/36    |
| Offset          | 0x0275   |
| Data Size       | 56 bytes |
| Calculated Size | 56 bytes |
| Instructions    | 13       |

```
      00 01 02 03 04 05 06 07  08 09 0A 0B 0C 0D 0E 0F
      -- -- -- -- -- -- -- --  -- -- -- -- -- -- -- --
0270:                20 01 42  1E F0 FF FF 7F 6F 70 66        .B.....opf
0280: 00 80 F8 FF FF 7F F8 FF  FF 7F 74 6C 6B 30 1D 35  ..........tlk0.5
0290: 80 23 45 36 80 F0 FF FF  7F F0 FF FF 7F 71 73 74  .#E6.........qst
02A0: 63 0A 80 5E 69 64 6C 30  1C 19 80 21 00           c..^idl0...!.   
```

## Opcodes

```
  0: 0x0275 [0x20] SET_CLI_EVENT_UC_FLAG: Lock player control
  1: 0x0277 [0x42] SET_CLI_EVENT_CANCEL_DATA()
  2: 0x0278 [0x1E] EventEntity looks at LocalPlayer and starts talking
  3: 0x027D [0x6F] WAIT_FRAME_DELAY: Yield until WaitTime reaches zero
  4: 0x027E [0x70] WAIT_ENTITY_RENDER_FLAG: Wait while EventEntity->Render.Flags3 bit 2 is set (cancel turn if not)
  5: 0x027F [0x66] LOAD_EXT_SCHEDULER_MAIN: Load scheduler "tlk0" with entities [EventEntity, EventEntity], work=40*
  6: 0x028E [0x1D] PRINT_EVENT_MESSAGE(message_id=7712*)
    → "Okey-dokey, here you go.\u007F1\u0000\u0007"
  7: 0x0291 [0x23] WAIT_FOR_DIALOG_INTERACTION
  8: 0x0292 [0x45] LOAD_SCHEDULED_TASK: Load scheduler "qstc" with entities [LocalPlayer, LocalPlayer], work=[201*, 0*]
  9: 0x02A3 [0x5E] EventEntity goes idle (kills current action) (animation: "idl0")
 10: 0x02A8 [0x1C] WAIT(60* ticks)
 11: 0x02AB [0x21] END_EVENT
 12: 0x02AC [0x00] END_REQSTACK()
```
