# Event 95

## Metadata

| Field           | Value    |
|-----------------|----------|
| Event Index     | 8/36     |
| Offset          | 0x00B5   |
| Data Size       | 40 bytes |
| Calculated Size | 40 bytes |
| Instructions    | 12       |

```
      00 01 02 03 04 05 06 07  08 09 0A 0B 0C 0D 0E 0F
      -- -- -- -- -- -- -- --  -- -- -- -- -- -- -- --
00B0:                1E F0 FF  FF 7F 6F 70 66 00 80 F8       .....opf...
00C0: FF FF 7F F8 FF FF 7F 74  6C 6B 30 1D 17 80 23 1D  .......tlk0...#.
00D0: 18 80 23 5E 69 64 6C 30  1C 19 80 21 00           ..#^idl0...!.   
```

## Opcodes

```
  0: 0x00B5 [0x1E] EventEntity looks at LocalPlayer and starts talking
  1: 0x00BA [0x6F] WAIT_FRAME_DELAY: Yield until WaitTime reaches zero
  2: 0x00BB [0x70] WAIT_ENTITY_RENDER_FLAG: Wait while EventEntity->Render.Flags3 bit 2 is set (cancel turn if not)
  3: 0x00BC [0x66] LOAD_EXT_SCHEDULER_MAIN(work_offset=40*, entity1=EventEntity, entity2=EventEntity, action="tlk0")
  4: 0x00CB [0x1D] PRINT_EVENT_MESSAGE(message_id=7716*)
    → "I'm shocked... I'm stunned... I can't believe that Lady-wady Verena is missing. If I had the time, I'd be out there searching...\u007F1\u0000\u0007"
  5: 0x00CE [0x23] WAIT_FOR_DIALOG_INTERACTION
  6: 0x00CF [0x1D] PRINT_EVENT_MESSAGE(message_id=7717*)
    → "If anything happened to her, what would I do!?\u007F1\u0000\u0007"
  7: 0x00D2 [0x23] WAIT_FOR_DIALOG_INTERACTION
  8: 0x00D3 [0x5E] EventEntity goes idle (kills current action) (animation: "idl0")
  9: 0x00D8 [0x1C] WAIT(60* ticks)
 10: 0x00DB [0x21] END_EVENT
 11: 0x00DC [0x00] END_REQSTACK()
```
