# Event 65535

## Metadata

| Field           | Value    |
|-----------------|----------|
| Event Index     | 32/36    |
| Offset          | 0x0462   |
| Data Size       | 67 bytes |
| Calculated Size | 67 bytes |
| Instructions    | 15       |

```
      00 01 02 03 04 05 06 07  08 09 0A 0B 0C 0D 0E 0F
      -- -- -- -- -- -- -- --  -- -- -- -- -- -- -- --
0460:       32 96 80 1F 00 97  80 98 80 99 80 1F 01 4B    2............K
0470: 1A 61 0E 01 9A 80 1C 7B  80 1F 00 9B 80 9C 80 9D  .a.....{........
0480: 80 1F 01 4B 1A 61 0E 01  9E 80 1C 9F 80 1F 00 A0  ...K.a..........
0490: 80 A1 80 A2 80 1F 01 1C  8F 80 4B 1A 61 0E 01 A3  ..........K.a...
04A0: 80 1C 7B 80 00                                    ..{..           
```

## Opcodes

```
  0: 0x0462 [0x32] ExtData[1]->MainSpeed = 45* * 0.1
  1: 0x0465 [0x1F] MOVE_ENTITY: EventEntity moves to X=-599.295*, Z=590.678*, Y=0.264*
  2: 0x046D [0x1F] MOVE_ENTITY: Update entity position (mode=1)
  3: 0x046F [0x4B] UPDATE_ENTITY_YAW(entity=Unnamed NPC (ID: 17719578/0x010E611A), yaw=5.27°*)
  4: 0x0476 [0x1C] WAIT(60* ticks)
  5: 0x0479 [0x1F] MOVE_ENTITY: EventEntity moves to X=-604.353*, Z=586.292*, Y=0.138*
  6: 0x0481 [0x1F] MOVE_ENTITY: Update entity position (mode=1)
  7: 0x0483 [0x4B] UPDATE_ENTITY_YAW(entity=Unnamed NPC (ID: 17719578/0x010E611A), yaw=0.20°*)
  8: 0x048A [0x1C] WAIT(240* ticks)
  9: 0x048D [0x1F] MOVE_ENTITY: EventEntity moves to X=-600.328*, Z=582.410*, Y=0.802*
 10: 0x0495 [0x1F] MOVE_ENTITY: Update entity position (mode=1)
 11: 0x0497 [0x1C] WAIT(30* ticks)
 12: 0x049A [0x4B] UPDATE_ENTITY_YAW(entity=Unnamed NPC (ID: 17719578/0x010E611A), yaw=16.63°*)
 13: 0x04A1 [0x1C] WAIT(60* ticks)
 14: 0x04A4 [0x00] END_REQSTACK()
```
