# Event 65535

## Metadata

| Field           | Value    |
|-----------------|----------|
| Event Index     | 34/36    |
| Offset          | 0x04B3   |
| Data Size       | 51 bytes |
| Calculated Size | 51 bytes |
| Instructions    | 11       |

```
      00 01 02 03 04 05 06 07  08 09 0A 0B 0C 0D 0E 0F
      -- -- -- -- -- -- -- --  -- -- -- -- -- -- -- --
04B0:          32 96 80 1F 00  A7 80 A8 80 A9 80 1F 01     2............
04C0: 1F 00 AA 80 AB 80 AC 80  1F 01 1F 00 AD 80 AE 80  ................
04D0: AF 80 1F 01 1E 19 61 0E  01 1C 8F 80 4A 19 61 0E  ......a.....J.a.
04E0: 01 1A 61 0E 01 00                                 ..a...          
```

## Opcodes

```
  0: 0x04B3 [0x32] ExtData[1]->MainSpeed = 45* * 0.1
  1: 0x04B6 [0x1F] MOVE_ENTITY: EventEntity moves to X=-604.257*, Z=586.573*, Y=0.057*
  2: 0x04BE [0x1F] MOVE_ENTITY: Update entity position (mode=1)
  3: 0x04C0 [0x1F] MOVE_ENTITY: EventEntity moves to X=-603.318*, Z=588.527*, Y=0.196*
  4: 0x04C8 [0x1F] MOVE_ENTITY: Update entity position (mode=1)
  5: 0x04CA [0x1F] MOVE_ENTITY: EventEntity moves to X=-601.495*, Z=586.040*, Y=0.496*
  6: 0x04D2 [0x1F] MOVE_ENTITY: Update entity position (mode=1)
  7: 0x04D4 [0x1E] EventEntity looks at Unnamed NPC (ID: 17719577/0x010E6119) and starts talking
  8: 0x04D9 [0x1C] WAIT(30* ticks)
  9: 0x04DC [0x4A] Unnamed NPC (ID: 17719577/0x010E6119) looks at Unnamed NPC (ID: 17719578/0x010E611A)
 10: 0x04E5 [0x00] END_REQSTACK()
```
