# Event 65535

## Metadata

| Field           | Value    |
|-----------------|----------|
| Event Index     | 28/36    |
| Offset          | 0x03CD   |
| Data Size       | 48 bytes |
| Calculated Size | 48 bytes |
| Instructions    | 11       |

```
      00 01 02 03 04 05 06 07  08 09 0A 0B 0C 0D 0E 0F
      -- -- -- -- -- -- -- --  -- -- -- -- -- -- -- --
03C0:                                         02 04 00               ...
03D0: 66 80 01 FC 03 32 30 80  1F 00 75 80 76 80 77 80  f....20...u.v.w.
03E0: 1F 01 1F 00 78 80 79 80  7A 80 1F 01 1C 7B 80 1F  ....x.y.z....{..
03F0: 00 7C 80 7D 80 7E 80 1F  01 01 CD 03 00           .|.}.~.......   
```

## Opcodes

```
  0: 0x03CD [0x02] IF !(ExtData[1]->WorkLocal[4] == 2*) GOTO 0x03FC
  1: 0x03D5 [0x32] ExtData[1]->MainSpeed = 15* * 0.1
  2: 0x03D8 [0x1F] MOVE_ENTITY: EventEntity moves to X=-605.972*, Z=607.697*, Y=0.004*
  3: 0x03E0 [0x1F] MOVE_ENTITY: Update entity position (mode=1)
  4: 0x03E2 [0x1F] MOVE_ENTITY: EventEntity moves to X=-608.286*, Z=606.788*, Y=-0.064*
  5: 0x03EA [0x1F] MOVE_ENTITY: Update entity position (mode=1)
  6: 0x03EC [0x1C] WAIT(60* ticks)
  7: 0x03EF [0x1F] MOVE_ENTITY: EventEntity moves to X=-606.508*, Z=607.958*, Y=-0.049*
  8: 0x03F7 [0x1F] MOVE_ENTITY: Update entity position (mode=1)
  9: 0x03F9 [0x01] GOTO 0x03CD

SUBROUTINE_03FC:
 10: 0x03FC [0x00] END_REQSTACK()
```
