# Event 65535

## Metadata

| Field           | Value    |
|-----------------|----------|
| Event Index     | 5/20     |
| Offset          | 0x004A   |
| Data Size       | 67 bytes |
| Calculated Size | 67 bytes |
| Instructions    | 13       |

```
      00 01 02 03 04 05 06 07  08 09 0A 0B 0C 0D 0E 0F
      -- -- -- -- -- -- -- --  -- -- -- -- -- -- -- --
0040:                                6E B8 32 03 01 09            n.2...
0050: 80 99 B8 32 03 01 1C 07  80 5B 0C 80 B9 32 03 01  ...2.....[...2..
0060: B9 32 03 01 69 72 6F 30  1C 0D 80 1C 07 80 1C 08  .2..iro0........
0070: 80 6E BA 32 03 01 0E 80  99 BA 32 03 01 1C 0A 80  .n.2......2.....
0080: 6E BB 32 03 01 09 80 99  BB 32 03 01 00           n.2......2...   
```

## Opcodes

```
  0: 0x004A [0x6E] FAN3 (ID: 16986808/0x010332B8) uses emote 11*
  1: 0x0051 [0x99] Wait for FAN3 (ID: 16986808/0x010332B8) animation to complete
  2: 0x0056 [0x1C] WAIT(3* ticks)
  3: 0x0059 [0x5B] LOAD_EXT_SCHEDULER: Load scheduler "iro0" with entities [FAN4 (ID: 16986809/0x010332B9), FAN4 (ID: 16986809/0x010332B9)], work=1328*
  4: 0x0068 [0x1C] WAIT(4* ticks)
  5: 0x006B [0x1C] WAIT(3* ticks)
  6: 0x006E [0x1C] WAIT(2* ticks)
  7: 0x0071 [0x6E] FAN7 (ID: 16986810/0x010332BA) uses emote 8*
  8: 0x0078 [0x99] Wait for FAN7 (ID: 16986810/0x010332BA) animation to complete
  9: 0x007D [0x1C] WAIT(5* ticks)
 10: 0x0080 [0x6E] FAN8 (ID: 16986811/0x010332BB) uses emote 11*
 11: 0x0087 [0x99] Wait for FAN8 (ID: 16986811/0x010332BB) animation to complete
 12: 0x008C [0x00] END_REQSTACK()
```
