# Event 326

## Metadata

| Field           | Value    |
|-----------------|----------|
| Event Index     | 5/11     |
| Offset          | 0x0010   |
| Data Size       | 58 bytes |
| Calculated Size | 58 bytes |
| Instructions    | 10       |

```
      00 01 02 03 04 05 06 07  08 09 0A 0B 0C 0D 0E 0F
      -- -- -- -- -- -- -- --  -- -- -- -- -- -- -- --
0010: 03 00 00 03 10 66 01 80  A1 C0 0E 01 A1 C0 0E 01  .....f..........
0020: 74 68 6B 31 1D 02 80 23  1D 03 80 23 66 01 80 A1  thk1...#...#f...
0030: C0 0E 01 A1 C0 0E 01 74  68 6B 32 53 A1 C0 0E 01  .......thk2S....
0040: A1 C0 0E 01 74 68 6B 32  21 00                    ....thk2!.      
```

## Opcodes

```
  0: 0x0010 [0x03] ExtData[1]->WorkLocal[0] = Work_Zone[3]
  1: 0x0015 [0x66] LOAD_EXT_SCHEDULER_MAIN: Load scheduler "thk1" with entities [Patient Wheel (ID: 17744033/0x010EC0A1), Patient Wheel (ID: 17744033/0x010EC0A1)], work=60*
  2: 0x0024 [0x1D] PRINT_EVENT_MESSAGE(message_id=9181*)
    → "Five \u0001\u0005%\u0002\u0001\u0000\u0000.\u0007It's a small price to pay for saving someone's life, but...\u007F1\u0000\u0007"
  3: 0x0027 [0x23] WAIT_FOR_DIALOG_INTERACTION
  4: 0x0028 [0x1D] PRINT_EVENT_MESSAGE(message_id=9182*)
    → "Where am I gonna get my hands on goods like that?\u007F1\u0000\u0007"
  5: 0x002B [0x23] WAIT_FOR_DIALOG_INTERACTION
  6: 0x002C [0x66] LOAD_EXT_SCHEDULER_MAIN: Load scheduler "thk2" with entities [Patient Wheel (ID: 17744033/0x010EC0A1), Patient Wheel (ID: 17744033/0x010EC0A1)], work=60*
  7: 0x003B [0x53] WAIT_SCHEDULER_TASK: Wait for scheduler "thk2" with entities [Patient Wheel (ID: 17744033/0x010EC0A1), Patient Wheel (ID: 17744033/0x010EC0A1)]
  8: 0x0048 [0x21] END_EVENT
  9: 0x0049 [0x00] END_REQSTACK()
```
