# Event 65535

## Metadata

| Field           | Value    |
|-----------------|----------|
| Event Index     | 51/61    |
| Offset          | 0x094A   |
| Data Size       | 40 bytes |
| Calculated Size | 40 bytes |
| Instructions    | 5        |

```
      00 01 02 03 04 05 06 07  08 09 0A 0B 0C 0D 0E 0F
      -- -- -- -- -- -- -- --  -- -- -- -- -- -- -- --
0940:                                5B CD 80 08 E2 05            [.....
0950: 01 08 E2 05 01 64 6B 69  30 1C CE 80 7C 00 F8 FF  .....dki0...|...
0960: FF 7F 5B CD 80 08 E2 05  01 08 E2 05 01 64 6B 69  ..[..........dki
0970: 31 00                                             1.              
```

## Opcodes

```
  0: 0x094A [0x5B] LOAD_EXT_SCHEDULER(work_offset=2415*, entity1=Romaa Mihgo (ID: 17162760/0x0105E208), entity2=Romaa Mihgo (ID: 17162760/0x0105E208), action="dki0")
  1: 0x0959 [0x1C] WAIT(45* ticks)
  2: 0x095C [0x7C] EventEntity->Render.Flags2 |= 0x00
  3: 0x0962 [0x5B] LOAD_EXT_SCHEDULER(work_offset=2415*, entity1=Romaa Mihgo (ID: 17162760/0x0105E208), entity2=Romaa Mihgo (ID: 17162760/0x0105E208), action="dki1")
  4: 0x0971 [0x00] END_REQSTACK()
```
