# 16883890 - Owain

## Common Data

| Field            | Value                       |
|------------------|-----------------------------|
| Zone             | Tavnazian Safehold (ID: 26) |
| Block Size       | 10908 bytes                 |
| Total Events     | 6                           |
| References Count | 241                         |

## List of Events

| Event ID              | Entrypoint   |   Size |   Instructions |
|-----------------------|--------------|--------|----------------|
| [65535](#event-65535) | 0x0000       |      1 |              1 |
| [625](#event-625)     | 0x0001       |     33 |              9 |
| [628](#event-628)     | 0x0022       |   1261 |            162 |
| [629](#event-629)     | 0x050F       |   3459 |            440 |
| [630](#event-630)     | 0x1292       |    214 |             45 |
| [626](#event-626)     | 0x1368       |   4936 |            938 |

## DAT References (imed_data)

|   Index | Hex Value   |   Dec Value |
|---------|-------------|-------------|
|       0 | 0x001E      |          30 |
|       1 | 0x0009      |           9 |
|       2 | 0x3312      |       13074 |
|       3 | 0x3313      |       13075 |
|       4 | 0x00C8      |         200 |
|       5 | 0x0000      |           0 |
|       6 | 0x0013      |          19 |
|       7 | 0xFFFFC14C  |  4294951244 |
|       8 | 0x1EC62     |      126050 |
|       9 | 0xFFFF9B00  |  4294941440 |
|      10 | 0x060C      |        1548 |
|      11 | 0x022D      |         557 |
|      12 | 0x000F      |          15 |
|      13 | 0x3314      |       13076 |
|      14 | 0x3315      |       13077 |
|      15 | 0x3316      |       13078 |
|      16 | 0x005A      |          90 |
|      17 | 0x3317      |       13079 |
|      18 | 0x3318      |       13080 |
|      19 | 0x0016      |          22 |
|      20 | 0x3319      |       13081 |
|      21 | 0x331A      |       13082 |
|      22 | 0x331B      |       13083 |
|      23 | 0x331C      |       13084 |
|      24 | 0x331D      |       13085 |
|      25 | 0x331E      |       13086 |
|      26 | 0x331F      |       13087 |
|      27 | 0x3320      |       13088 |
|      28 | 0x3321      |       13089 |
|      29 | 0x3322      |       13090 |
|      30 | 0x3323      |       13091 |
|      31 | 0x3324      |       13092 |
|      32 | 0x3329      |       13097 |
|      33 | 0x3325      |       13093 |
|      34 | 0x0078      |         120 |
|      35 | 0x3326      |       13094 |
|      36 | 0x0001      |           1 |
|      37 | 0x0015      |          21 |
|      38 | 0x3327      |       13095 |
|      39 | 0x3328      |       13096 |
|      40 | 0x0002      |           2 |
|      41 | 0x332A      |       13098 |
|      42 | 0x080C      |        2060 |
|      43 | 0x332B      |       13099 |
|      44 | 0x0603      |        1539 |
|      45 | 0x332C      |       13100 |
|      46 | 0x3330      |       13104 |
|      47 | 0x3331      |       13105 |
|      48 | 0x3332      |       13106 |
|      49 | 0x0003      |           3 |
|      50 | 0x0004      |           4 |
|      51 | 0x0005      |           5 |
|      52 | 0x0006      |           6 |
|      53 | 0x0008      |           8 |
|      54 | 0x000D      |          13 |
|      55 | 0xFFFFBC1F  |  4294949919 |
|      56 | 0x1E8E6     |      125158 |
|      57 | 0xFFFF9A5C  |  4294941276 |
|      58 | 0x3333      |       13107 |
|      59 | 0xFFFF8AD1  |  4294937297 |
|      60 | 0x1DCB5     |      122037 |
|      61 | 0xFFFF9515  |  4294939925 |
|      62 | 0x0ED1      |        3793 |
|      63 | 0xFFFF81F3  |  4294935027 |
|      64 | 0x1DDC6     |      122310 |
|      65 | 0xFFFF950C  |  4294939916 |
|      66 | 0x007F      |         127 |
|      67 | 0x3359      |       13145 |
|      68 | 0x003C      |          60 |
|      69 | 0x0028      |          40 |
|      70 | 0xFFFFBDA8  |  4294950312 |
|      71 | 0x1E25A     |      123482 |
|      72 | 0xFFFF99A0  |  4294941088 |
|      73 | 0x335A      |       13146 |
|      74 | 0x335B      |       13147 |
|      75 | 0x0342      |         834 |
|      76 | 0x335C      |       13148 |
|      77 | 0x000A      |          10 |
|      78 | 0xFFFFB4D9  |  4294948057 |
|      79 | 0x1CA57     |      117335 |
|      80 | 0xFFFF951A  |  4294939930 |
|      81 | 0xFFFFB621  |  4294948385 |
|      82 | 0x1CFC1     |      118721 |
|      83 | 0xFFFF9657  |  4294940247 |
|      84 | 0x0032      |          50 |
|      85 | 0x0096      |         150 |
|      86 | 0x335D      |       13149 |
|      87 | 0x00F5      |         245 |
|      88 | 0x0E4D      |        3661 |
|      89 | 0x335E      |       13150 |
|      90 | 0x335F      |       13151 |
|      91 | 0x3360      |       13152 |
|      92 | 0xFFFE5C08  |  4294859784 |
|      93 | 0xFFFF38C8  |  4294916296 |
|      94 | 0xFFFF973B  |  4294940475 |
|      95 | 0x0712      |        1810 |
|      96 | 0x0041      |          65 |
|      97 | 0x3334      |       13108 |
|      98 | 0x3335      |       13109 |
|      99 | 0x3336      |       13110 |
|     100 | 0x3337      |       13111 |
|     101 | 0x3338      |       13112 |
|     102 | 0xFFFFDC86  |  4294958214 |
|     103 | 0x1DAC2     |      121538 |
|     104 | 0xFFFF97A5  |  4294940581 |
|     105 | 0x09D3      |        2515 |
|     106 | 0x3365      |       13157 |
|     107 | 0x3366      |       13158 |
|     108 | 0x3367      |       13159 |
|     109 | 0x3368      |       13160 |
|     110 | 0xFFFFE2C1  |  4294959809 |
|     111 | 0x1D62A     |      120362 |
|     112 | 0xFFFF9717  |  4294940439 |
|     113 | 0x065E      |        1630 |
|     114 | 0x3369      |       13161 |
|     115 | 0x336A      |       13162 |
|     116 | 0x336B      |       13163 |
|     117 | 0x336C      |       13164 |
|     118 | 0x336D      |       13165 |
|     119 | 0x000B      |          11 |
|     120 | 0x336E      |       13166 |
|     121 | 0x336F      |       13167 |
|     122 | 0x00A3      |         163 |
|     123 | 0x3339      |       13113 |
|     124 | 0x333A      |       13114 |
|     125 | 0x333B      |       13115 |
|     126 | 0x01DF      |         479 |
|     127 | 0x333C      |       13116 |
|     128 | 0x01DB      |         475 |
|     129 | 0x333D      |       13117 |
|     130 | 0x333E      |       13118 |
|     131 | 0x3340      |       13120 |
|     132 | 0x333F      |       13119 |
|     133 | 0x3341      |       13121 |
|     134 | 0xFFFFB92F  |  4294949167 |
|     135 | 0x1C7A3     |      116643 |
|     136 | 0xFFFF940C  |  4294939660 |
|     137 | 0x015F      |         351 |
|     138 | 0x02E2      |         738 |
|     139 | 0x3342      |       13122 |
|     140 | 0x3343      |       13123 |
|     141 | 0x3344      |       13124 |
|     142 | 0xFFFFC392  |  4294951826 |
|     143 | 0x1D9B8     |      121272 |
|     144 | 0xFFFF975E  |  4294940510 |
|     145 | 0x3345      |       13125 |
|     146 | 0x3346      |       13126 |
|     147 | 0x0014      |          20 |
|     148 | 0x0064      |         100 |
|     149 | 0x3347      |       13127 |
|     150 | 0x007C      |         124 |
|     151 | 0x01A4      |         420 |
|     152 | 0x3348      |       13128 |
|     153 | 0x3349      |       13129 |
|     154 | 0x334A      |       13130 |
|     155 | 0x334B      |       13131 |
|     156 | 0x334C      |       13132 |
|     157 | 0x334D      |       13133 |
|     158 | 0x334E      |       13134 |
|     159 | 0x3361      |       13153 |
|     160 | 0x3362      |       13154 |
|     161 | 0x3363      |       13155 |
|     162 | 0x3364      |       13156 |
|     163 | 0x3372      |       13170 |
|     164 | 0x3355      |       13141 |
|     165 | 0x3356      |       13142 |
|     166 | 0x3357      |       13143 |
|     167 | 0x3358      |       13144 |
|     168 | 0x0007      |           7 |
|     169 | 0x000E      |          14 |
|     170 | 0x0011      |          17 |
|     171 | 0x0012      |          18 |
|     172 | 0x0017      |          23 |
|     173 | 0x3390      |       13200 |
|     174 | 0x3391      |       13201 |
|     175 | 0x3392      |       13202 |
|     176 | 0x3393      |       13203 |
|     177 | 0x3394      |       13204 |
|     178 | 0x3395      |       13205 |
|     179 | 0x3396      |       13206 |
|     180 | 0x3370      |       13168 |
|     181 | 0x3371      |       13169 |
|     182 | 0x334F      |       13135 |
|     183 | 0x3350      |       13136 |
|     184 | 0x3351      |       13137 |
|     185 | 0x3352      |       13138 |
|     186 | 0x3353      |       13139 |
|     187 | 0x3354      |       13140 |
|     188 | 0x332D      |       13101 |
|     189 | 0x40000000  |  1073741824 |
|     190 | 0x332F      |       13103 |
|     191 | 0x332E      |       13102 |
|     192 | 0x0010      |          16 |
|     193 | 0x001F      |          31 |
|     194 | 0x3373      |       13171 |
|     195 | 0x3374      |       13172 |
|     196 | 0x3375      |       13173 |
|     197 | 0x3376      |       13174 |
|     198 | 0x3379      |       13177 |
|     199 | 0x0D6A      |        3434 |
|     200 | 0x0BB8      |        3000 |
|     201 | 0x0D6B      |        3435 |
|     202 | 0x0D6C      |        3436 |
|     203 | 0x06EE      |        1774 |
|     204 | 0xC350      |       50000 |
|     205 | 0x06F1      |        1777 |
|     206 | 0x249F0     |      150000 |
|     207 | 0x06F2      |        1778 |
|     208 | 0x073E      |        1854 |
|     209 | 0x073F      |        1855 |
|     210 | 0x0614      |        1556 |
|     211 | 0x50910     |      330000 |
|     212 | 0x0615      |        1557 |
|     213 | 0x0616      |        1558 |
|     214 | 0x000C      |          12 |
|     215 | 0x337A      |       13178 |
|     216 | 0x337B      |       13179 |
|     217 | 0x338D      |       13197 |
|     218 | 0x3382      |       13186 |
|     219 | 0x3383      |       13187 |
|     220 | 0x3384      |       13188 |
|     221 | 0x3385      |       13189 |
|     222 | 0x3386      |       13190 |
|     223 | 0x3387      |       13191 |
|     224 | 0x3388      |       13192 |
|     225 | 0x3389      |       13193 |
|     226 | 0x337C      |       13180 |
|     227 | 0x337D      |       13181 |
|     228 | 0x337E      |       13182 |
|     229 | 0x016E      |         366 |
|     230 | 0x016F      |         367 |
|     231 | 0x0170      |         368 |
|     232 | 0x0171      |         369 |
|     233 | 0x0172      |         370 |
|     234 | 0x0173      |         371 |
|     235 | 0x0174      |         372 |
|     236 | 0x0175      |         373 |
|     237 | 0x0176      |         374 |
|     238 | 0x0177      |         375 |
|     239 | 0x0178      |         376 |
|     240 | 0x0179      |         377 |

## String References

- **13074**: I've been dispatched from many malms away on a very important mission.
- **13075**: "What might that objective be," you ask? One as heroically challenged as you need not concern yourself with it.
- **13076**: I've been dispatched from many malms away on a very important mission. "What sort of mission," you ask? An astute question indeed! And here I'd begun to lose hope of meeting any capable adventurers in these provincial backwaters.
- **13077**: (Shhh! Not so loud!)
- **13078**: (Yes, I hail from Jeuno, but we can't let the riffraff around these parts be privy to that information.)
- **13079**: What exactly is my objective? Oh, come now. I'm certain [a hero/a heroine] of your caliber could figure it out. The secrecy, the mention of <cough> Jeuno <cough>, propositioning adventurers...
- **13080**: Yes, it does indeed involve Voidwalkers--those eerie menaces that traverse time and space by way of those "planar rifts." I haven't the foggiest idea as to why, but they've apparently decided to make Tavnazia their next battlefront.
- **13081**: I was given an order to dispose of the threat, effective immediately. However, these fishmongering philistines...how do I put this politely? Show no respect for the Voidwatch's jurisdiction.
- **13082**: No matter how civil I try to be around these country bumpkins, they simply won't let me do my job. Thus I've been secretly recruiting adventurers to aid in our cause.
- **13083**: What say you take pity on a fellow crusader of justice and help rid this wasteland of its interdimensional intruders?
- **13084**: Oh, so you're <Player>? I've heard much about you from Justinius.
- **13085**: One of those being that your exploits factored heavily in Jeuno's decision to trade with this region.
- **13086**: In that sense, one could say it's your doing--for better or worse--that I've been dispatched to this goddess-forsaken crag.
- **13087**: I have a proposition, but I warn you--this task is more harrowing than listening to your mother-in-law berate you over a deceptively cordial cup of tea about how you don't spend enough time with your wife. Even now, I can see her eyes...bearing into my soul...as her venomous tongue paralyzes me like a death jacket's stinger. Die! Die, you accursed fiend!
- **13088**: But I digress. This mission actually involves Voidwalkers. According to the Tavnazian Patrol, planar rifts have been opening up across the archipelago recently.
- **13089**: What they see in this piddling swath of scattered rocks, I haven't a clue.
- **13090**: (Still, if they can find a mound of rubble like Tavnazia habitable, what's stopping them from infesting every area in the realm?)
- **13091**: In summation, we need your assistance in exterminating these pests.
- **13092**: What do you say? Will you do your part for the Voidwatch?
- **13093**: What will you do? [Nothing at all./Ask many a question./Participate in Voidwatch Ops./Request debriefing./Request $3./Check voidstone stock./Request reward issuance.]
- **13094**: I see... It would seem everyone in these parts is a lily-livered craven. It must be something in the water...
- **13095**: Whoa, whoa, whoa! There's something I need to get off my chest. I figured no one in this dirthole would be brave enough to sign up, so I didn't bother reading the recruitment manual.
- **13096**: It pains me to admit my own ignorance, but you'll have to seek out a Voidwatch Officer if you want some answers.
- **13097**: Did you finally grow a backbone? Now are you ready to join the Voidwatch and make the realm proud?
- **13098**: People say I sound like a pompous jackanapes, but at least I know how to give thanks. Your help will be more than welcome in the Uleguerand Range, Lufaise Meadows, Attohwa Chasm, and on the Misareaux Coast.
- **13099**: You'll need this $3 for your operations as well. Take it. Don't hold back on my account.
- **13100**: However, this won't be of much use unless you're also in possession of $6...or so my superiors tell me. Very well then. May you save the realm and one day depart this bastion of boors.
- **13104**: My compatriots within the 'Watch tell me that you've exterminated every last threat to the archipelago. Admirably done.
- **13105**: ...But we both know the old adage about assuming. Only greenhorns and village idiots fail to realize that these creatures possess an uncanny ability to revive as if they'd never suffered a scratch. If only we could decipher the manner in which they cheat death...
- **13106**: Stay that thought... If Voidwalkers can resurrect...then my mission will never end! I don't want to be trapped on this isolated archipelago for eternity! What will my hydrangeas ever do without me!?
- **13107**: ...Wait, I have an idea! You know what might turn the tide of this fathomless bloodbath? A war of attrition! If you could return every so often to slay these undying anomalies, we might yet be able to terminate the Voidwalkers once and for all!
- **13108**: Were you aware that the inhabitants of this land finally decided to open trade with Jeuno?
- **13109**: Though I often speak ill of them, truth is the locals are rather open-minded and accepting, though a tad unsophisticated.
- **13110**: Even Justinius of the Tavnazia Patrol has proven quite cooperative.
- **13111**: Speaking of Justinius, it would behoove us to inform him of your victories.
- **13112**: You're a credit to adventurers everywhere. Justinius certainly knows a capable [man/woman] when he sees one. Speaking of Justinius, it would behoove us to inform him of your victories.
- **13115**: Misareaux mantraps! Who might you be!?
- **13131**: ...Well, well, well. I should have known that being an adventurer is about having gil and [dames/beaus] scattered all over the realm.
- **13132**: ...Phew, what a relief that's over. I've withstood tempest gales with less destructive power than that diminutive rapscallion she tutors.
- **13133**: That diminutive girl was Prishe, correct? Perhaps all the rumors were all simply...rumors.
- **13134**: Well, you have my thanks for a job well done. I highly doubt you'll be receiving any accolades from the uncouth citizens of this cesspool, but I shall make sure word of your tremendous deeds reaches Jeuno.
- **13141**: What was that!? Voidwalkers in Bibiki Bay!? Why am I always the last to hear about these things!? Curse my backwoods assignment, and a pox upon the officers who sent me here!
- **13142**: Wait...does that Prishe girl intend to help us quell the Voidwalker threat?
- **13143**: I predict choppy seas ahead if you plan on sailing into the eye of her storm again. May you stay the course and remain unscathed...
- **13144**: I swear, that pixie is hellsbent on dragging the Tavnazian Patrol through the deepest puddle of mud she can find...
- **13145**: Take cover!
- **13149**: Phew, that was close. Those two are part of the Tavnazian Patrol. The unit's recently been making rounds more than just often, which has us 'Watchers on our toes.
- **13150**: I trust you realize what those two were discussing. You do not? Well, fortunately, I do.
- **13151**: I have here a report concerning the recent appearance of planar rifts in the Bibiki Bay area. Perhaps they're related to the change in your $3?
- **13152**: Either way, Bibiki Bay's farther away from here than my mother-in-law is from being congenial. There's no possible way I could make that trip without being declared AWOL.
- **13153**: What!? You felled the feral Voidwalkers at Bibiki Bay!? Let us rejoice!
- **13154**: (Oh my. I must learn to use my inside voice at times like this.)
- **13155**: Faux pas aside, if I didn't owe you one before, I certainly do now. Bibiki Bay's outside of my jurisdiction, so if anyone from the watch were to see me there, I'd be detained without a doubt.
- **13156**: Although now that the Voidwalkers are gone, I should be getting orders to ship out any day now. Please let it be today, please let it be today...
- **13158**: I resent that, Justinius! W-wait a moment. You two know each other?
- **13159**: Justinius...
- **13164**: Nooo! Not again!
- **13167**: But...but...I was supposed to go home! Why does this always happen to me!? <Sigh>
- **13170**: Wait, that means I can go home now, right!? Right!? Please tell me I'm right!
- **13171**: How many would you like? [None./Just one./As many as possible!]
- **13178**: Exchange for what? (Cruor: $0) [Nothing right now./$1: $2./$3: $4./$5: $6./$7: $8./$9: $10./$11: $12./$13: $14./$15: $16./$3: $18./$3: $20./$3: $22./$3: $24./$3: $26./$3: $28./$3: $30./$3: $ .]
- **13181**: Proceed with exchange? (Cruor: $0) [Yes./No.]
- **13186**: This periapt allows the bearer to infuse an additional atmacite for each one possessed.
- **13187**: This periapt grants the bearer heightened insight into Voidwalker weaknesses against weapon skills and abilities.
- **13188**: This periapt grants the bearer heightened insight into Voidwalker weaknesses against magic.
- **13189**: This periapt enhances the effect granted by a periapt of guidance.
- **13190**: This periapt enhances the effect granted by a periapt of percipience.
- **13191**: A bewitching light shines forth from within the crystallized walls of this fragment ripped from a Voidwalker, as if beckoning its bearer to come hither.
- **13192**: A tantalizing light shines forth from within the crystallized walls of this fragment ripped from a Voidwalker, as if appealing to its bearer's most ardent desires.
- **13193**: A crazed light shines forth from within the crystallized walls of this fragment ripped from a Voidwalker, as if seeking to breach the bearer's last bastion of sanity.
- **13197**: How many do you need? (Cruor: $0) [None, thank you./One ($1 cruor)./Three ($2 cruor)./Six ($3 cruor)./Nine ($4 cruor)./Twelve ($5 cruor).]
- **13200**: Voidwatch debug menu. [Exit./Alter participation status./Alter jurisdiction./Alter stratum./Alter abyssite receipt level.]
- **13201**: Participation status altered to [Eff, yeah/Heck, no].
- **13202**: Jurisdiction menu. [Back to the top./San d'Oria./Bastok./Windurst./Past San d'Oria./Past Bastok./Past Windurst.]
- **13203**: Jurisdiction changed to [San d'Oria/Bastok/Windurst/Past San d'Oria/Past Bastok/Past Windurst].
- **13204**: Stratum menu. [Back to the top./Stage 1./Stage 2./Stage 3./Stage 4.]
- **13205**: Stratum changed to [Stage 1/Stage 2/Stage 3/Stage 4].
- **13206**: Abyssite receipt level. [Back to the top./1st time./2nd time and onwards/Abyssite evolution./2nd abyssite evolution and onwards.]

## Events

### Event 65535

#### Metadata

| Field        | Value   |
|--------------|---------|
| Entrypoint   | 0x0000  |
| Data Size    | 1 bytes |
| Instructions | 1       |

```
      00 01 02 03 04 05 06 07  08 09 0A 0B 0C 0D 0E 0F
      -- -- -- -- -- -- -- --  -- -- -- -- -- -- -- --
0000: 00                                                .               
```

#### Opcodes

```
  0: 0x0000 [0x00] END_REQSTACK()
```

### Event 625

#### Metadata

| Field        | Value    |
|--------------|----------|
| Entrypoint   | 0x0001   |
| Data Size    | 33 bytes |
| Instructions | 9        |

```
      00 01 02 03 04 05 06 07  08 09 0A 0B 0C 0D 0E 0F
      -- -- -- -- -- -- -- --  -- -- -- -- -- -- -- --
0000:    1E F0 FF FF 7F 1C 00  80 66 01 80 F8 FF FF 7F   ........f......
0010: F8 FF FF 7F 74 6C 6B 30  1D 02 80 23 1D 03 80 23  ....tlk0...#...#
0020: 21 00                                             !.              
```

#### Opcodes

```
  0: 0x0001 [0x1E] EventEntity looks at LocalPlayer and starts talking
  1: 0x0006 [0x1C] WAIT(30* ticks)
  2: 0x0009 [0x66] LOAD_EXT_SCHEDULER_MAIN: Load scheduler "tlk0" with entities [EventEntity, EventEntity], work=9*
  3: 0x0018 [0x1D] PRINT_EVENT_MESSAGE(message_id=13074*)
    → "I've been dispatched from many malms away on a very important mission."
  4: 0x001B [0x23] WAIT_FOR_DIALOG_INTERACTION
  5: 0x001C [0x1D] PRINT_EVENT_MESSAGE(message_id=13075*)
    → ""What might that objective be," you ask? One as heroically challenged as you need not concern yourself with it."
  6: 0x001F [0x23] WAIT_FOR_DIALOG_INTERACTION
  7: 0x0020 [0x21] END_EVENT
  8: 0x0021 [0x00] END_REQSTACK()
```

### Event 628

#### Metadata

| Field        | Value      |
|--------------|------------|
| Entrypoint   | 0x0022     |
| Data Size    | 1261 bytes |
| Instructions | 144        |

```
      00 01 02 03 04 05 06 07  08 09 0A 0B 0C 0D 0E 0F
      -- -- -- -- -- -- -- --  -- -- -- -- -- -- -- --
0020:       42 45 04 80 F8 FF  FF 7F F8 FF FF 7F 66 64    BE..........fd
0030: 6F 32 05 80 55 04 80 F8  FF FF 7F F8 FF FF 7F 66  o2..U..........f
0040: 64 6F 32 46 01 38 06 80  03 01 10 05 80 94 01 F0  do2F.8..........
0050: FF FF 7F 94 01 F8 FF FF  7F 94 01 B4 A0 01 01 94  ................
0060: 01 B3 A0 01 01 92 01 F8  FF FF 7F 92 01 B4 A0 01  ................
0070: 01 2F 00 B3 A0 01 01 4E  00 B3 A0 01 01 BA F0 FF  ./.....N........
0080: FF 7F 07 80 08 80 09 80  0A 80 80 F0 FF FF 7F 80  ................
0090: F8 FF FF 7F 80 B4 A0 01  01 80 B3 A0 01 01 4A F0  ..............J.
00A0: FF FF 7F F8 FF FF 7F 1E  F0 FF FF 7F 1C 00 80 02  ................
00B0: 02 10 05 80 00 29 03 45  0B 80 F0 FF FF 7F F0 FF  .....).E........
00C0: FF 7F 73 30 30 30 05 80  1C 0C 80 45 04 80 F0 FF  ..s000.....E....
00D0: FF 7F F0 FF FF 7F 66 64  69 31 05 80 1C 00 80 66  ......fdi1.....f
00E0: 01 80 F8 FF FF 7F F8 FF  FF 7F 74 6C 6B 30 02 03  ..........tlk0..
00F0: 10 05 80 00 29 02 1D 0D  80 23 66 01 80 F8 FF FF  ....)....#f.....
0100: 7F F8 FF FF 7F 74 6C 6B  31 1C 0C 80 52 0B 80 F0  .....tlk1...R...
0110: FF FF 7F F0 FF FF 7F 73  30 30 30 45 0B 80 F0 FF  .......s000E....
0120: FF 7F F0 FF FF 7F 73 30  30 31 05 80 1D 0E 80 23  ......s001.....#
0130: 1D 0F 80 23 52 0B 80 F0  FF FF 7F F0 FF FF 7F 73  ...#R..........s
0140: 30 30 31 45 0B 80 F0 FF  FF 7F F0 FF FF 7F 73 30  001E..........s0
0150: 30 32 05 80 1E B3 A0 01  01 1C 10 80 1E F0 FF FF  02..............
0160: 7F 1C 0C 80 52 0B 80 F0  FF FF 7F F0 FF FF 7F 73  ....R..........s
0170: 30 30 32 45 0B 80 F0 FF  FF 7F F0 FF FF 7F 73 30  002E..........s0
0180: 30 33 05 80 1C 0C 80 66  01 80 F8 FF FF 7F F8 FF  03.....f........
0190: FF 7F 74 6C 6B 30 1D 11  80 23 1D 12 80 23 66 01  ..tlk0...#...#f.
01A0: 80 F8 FF FF 7F F8 FF FF  7F 74 6C 6B 31 1C 00 80  .........tlk1...
01B0: 52 0B 80 F0 FF FF 7F F0  FF FF 7F 73 30 30 33 45  R..........s003E
01C0: 0B 80 F0 FF FF 7F F0 FF  FF 7F 73 30 30 34 05 80  ..........s004..
01D0: 6E F8 FF FF 7F 13 80 99  F8 FF FF 7F 1D 14 80 23  n..............#
01E0: 1D 15 80 23 52 0B 80 F0  FF FF 7F F0 FF FF 7F 73  ...#R..........s
01F0: 30 30 34 45 0B 80 F0 FF  FF 7F F0 FF FF 7F 73 30  004E..........s0
0200: 30 35 05 80 66 01 80 F8  FF FF 7F F8 FF FF 7F 74  05..f..........t
0210: 6C 6B 30 1D 16 80 23 66  01 80 F8 FF FF 7F F8 FF  lk0...#f........
0220: FF 7F 74 6C 6B 31 01 26  03 1D 17 80 23 52 0B 80  ..tlk1.&....#R..
0230: F0 FF FF 7F F0 FF FF 7F  73 30 30 30 45 0B 80 F0  ........s000E...
0240: FF FF 7F F0 FF FF 7F 73  30 31 30 05 80 1D 18 80  .......s010.....
0250: 23 1D 19 80 23 52 0B 80  F0 FF FF 7F F0 FF FF 7F  #...#R..........
0260: 73 30 31 30 45 0B 80 F0  FF FF 7F F0 FF FF 7F 73  s010E..........s
0270: 30 31 31 05 80 1D 1A 80  23 1D 1B 80 23 52 0B 80  011.....#...#R..
0280: F0 FF FF 7F F0 FF FF 7F  73 30 31 31 45 0B 80 F0  ........s011E...
0290: FF FF 7F F0 FF FF 7F 73  30 31 32 05 80 66 01 80  .......s012..f..
02A0: F8 FF FF 7F F8 FF FF 7F  74 6C 6B 31 1D 1C 80 23  ........tlk1...#
02B0: 7C 00 F8 FF FF 7F 1D 1D  80 23 7C 01 F8 FF FF 7F  |........#|.....
02C0: 52 0B 80 F0 FF FF 7F F0  FF FF 7F 73 30 31 32 45  R..........s012E
02D0: 0B 80 F0 FF FF 7F F0 FF  FF 7F 73 30 31 33 05 80  ..........s013..
02E0: 66 01 80 F8 FF FF 7F F8  FF FF 7F 74 6C 6B 30 1D  f..........tlk0.
02F0: 1E 80 23 1D 1F 80 23 66  01 80 F8 FF FF 7F F8 FF  ..#...#f........
0300: FF 7F 74 6C 6B 31 52 0B  80 F0 FF FF 7F F0 FF FF  ..tlk1R.........
0310: 7F 73 30 31 33 45 0B 80  F0 FF FF 7F F0 FF FF 7F  .s013E..........
0320: 73 30 30 35 05 80 01 93  03 45 0B 80 F0 FF FF 7F  s005.....E......
0330: F0 FF FF 7F 73 30 32 37  05 80 1C 0C 80 45 04 80  ....s027.....E..
0340: F0 FF FF 7F F0 FF FF 7F  66 64 69 31 05 80 1C 00  ........fdi1....
0350: 80 66 01 80 F8 FF FF 7F  F8 FF FF 7F 74 6C 6B 30  .f..........tlk0
0360: 1D 20 80 23 66 01 80 F8  FF FF 7F F8 FF FF 7F 74  . .#f..........t
0370: 6C 6B 31 52 0B 80 F0 FF  FF 7F F0 FF FF 7F 73 30  lk1R..........s0
0380: 32 37 45 0B 80 F0 FF FF  7F F0 FF FF 7F 73 30 30  27E..........s00
0390: 35 05 80 24 21 80 05 80  22 80 25 02 00 10 05 80  5..$!...".%.....
03A0: 00 D6 03 52 0B 80 F0 FF  FF 7F F0 FF FF 7F 73 30  ...R..........s0
03B0: 30 35 45 0B 80 F0 FF FF  7F F0 FF FF 7F 73 30 30  05E..........s00
03C0: 36 05 80 6E F8 FF FF 7F  06 80 99 F8 FF FF 7F 1D  6..n............
03D0: 23 80 23 01 BC 04 02 00  10 24 80 00 38 04 52 0B  #.#......$..8.R.
03E0: 80 F0 FF FF 7F F0 FF FF  7F 73 30 30 35 45 0B 80  .........s005E..
03F0: F0 FF FF 7F F0 FF FF 7F  73 30 30 37 05 80 6E F8  ........s007..n.
0400: FF FF 7F 25 80 99 F8 FF  FF 7F 1D 26 80 23 1D 27  ...%.......&.#.'
0410: 80 23 52 0B 80 F0 FF FF  7F F0 FF FF 7F 73 30 30  .#R..........s00
0420: 37 45 0B 80 F0 FF FF 7F  F0 FF FF 7F 73 30 30 35  7E..........s005
0430: 05 80 01 93 03 01 BC 04  02 00 10 28 80 00 BC 04  ...........(....
0440: 52 0B 80 F0 FF FF 7F F0  FF FF 7F 73 30 30 35 45  R..........s005E
0450: 0B 80 F0 FF FF 7F F0 FF  FF 7F 73 30 30 38 05 80  ..........s008..
0460: 66 01 80 F8 FF FF 7F F8  FF FF 7F 74 6C 6B 30 1D  f..........tlk0.
0470: 29 80 23 03 02 10 2A 80  1D 2B 80 23 66 01 80 F8  ).#...*..+.#f...
0480: FF FF 7F F8 FF FF 7F 74  6C 6B 31 52 0B 80 F0 FF  .......tlk1R....
0490: FF 7F F0 FF FF 7F 73 30  30 38 45 0B 80 F0 FF FF  ......s008E.....
04A0: 7F F0 FF FF 7F 73 30 30  39 05 80 03 02 10 2C 80  .....s009.....,.
04B0: 1D 2D 80 23 03 01 10 24  80 01 BC 04 45 04 80 F8  .-.#...$....E...
04C0: FF FF 7F F8 FF FF 7F 66  64 6F 32 05 80 55 04 80  .......fdo2..U..
04D0: F8 FF FF 7F F8 FF FF 7F  66 64 6F 32 52 0B 80 F0  ........fdo2R...
04E0: FF FF 7F F0 FF FF 7F 73  30 30 36 52 0B 80 F0 FF  .......s006R....
04F0: FF 7F F0 FF FF 7F 73 30  30 39 46 00 45 04 80 F0  ......s009F.E...
0500: FF FF 7F F0 FF FF 7F 66  64 69 32 05 80 21 00     .......fdi2..!. 
```

#### Opcodes

```
  0: 0x0022 [0x42] SET_CLI_EVENT_CANCEL_DATA()
  1: 0x0023 [0x45] LOAD_SCHEDULED_TASK: Load scheduler "fdo2" with entities [EventEntity, EventEntity], work=[200*, 0*]
  2: 0x0034 [0x55] WAIT_LOAD_SCHEDULER: Wait for scheduler "fdo2" with entities [EventEntity, EventEntity], work=200*
  3: 0x0043 [0x46] CAMERA_CONTROL: Disable user control
  4: 0x0045 [0x38] SET_CLIENT_EVENT_MODE(mode=19*)
  5: 0x0048 [0x03] Work_Zone[1] = 0*
  6: 0x004D [0x94] LocalPlayer->Render.Flags3 ^= 0x01
  7: 0x0053 [0x94] EventEntity->Render.Flags3 ^= 0x01
  8: 0x0059 [0x94] Atmacite Refiner (ID: 16883892/0x0101A0B4)->Render.Flags3 ^= 0x01
  9: 0x005F [0x94] Unnamed NPC (ID: 16883891/0x0101A0B3)->Render.Flags3 ^= 0x01
 10: 0x0065 [0x92] EventEntity->Render.Flags3 ^= 0x01
 11: 0x006B [0x92] Atmacite Refiner (ID: 16883892/0x0101A0B4)->Render.Flags3 ^= 0x01
 12: 0x0071 [0x2F] Unnamed NPC (ID: 16883891/0x0101A0B3)->Render.Flags0 &= ~0x80000 // Bit 19
 13: 0x0077 [0x4E] SET_ENTITY_HIDE_FLAG: Show Unnamed NPC (ID: 16883891/0x0101A0B3)
 14: 0x007D [0xBA] SET_ENTITY_POSITION(entity_id=LocalPlayer, pos_x=-16.052*, pos_z=126.050*, pos_y=-25.856*, direction=136.1°*)
 15: 0x008A [0x80] LOAD_WAIT(entity=LocalPlayer)
 16: 0x008F [0x80] LOAD_WAIT(entity=EventEntity)
 17: 0x0094 [0x80] LOAD_WAIT(entity=Atmacite Refiner (ID: 16883892/0x0101A0B4))
 18: 0x0099 [0x80] LOAD_WAIT(entity=Unnamed NPC (ID: 16883891/0x0101A0B3))
 19: 0x009E [0x4A] LocalPlayer looks at EventEntity
 20: 0x00A7 [0x1E] EventEntity looks at LocalPlayer and starts talking
 21: 0x00AC [0x1C] WAIT(30* ticks)
 22: 0x00AF [0x02] IF !(Work_Zone[2] == 0*) GOTO 0x0329
 23: 0x00B7 [0x45] LOAD_SCHEDULED_TASK: Load scheduler "s000" with entities [LocalPlayer, LocalPlayer], work=[557*, 0*]
 24: 0x00C8 [0x1C] WAIT(15* ticks)
 25: 0x00CB [0x45] LOAD_SCHEDULED_TASK: Load scheduler "fdi1" with entities [LocalPlayer, LocalPlayer], work=[200*, 0*]
 26: 0x00DC [0x1C] WAIT(30* ticks)
 27: 0x00DF [0x66] LOAD_EXT_SCHEDULER_MAIN: Load scheduler "tlk0" with entities [EventEntity, EventEntity], work=9*
 28: 0x00EE [0x02] IF !(Work_Zone[3] == 0*) GOTO 0x0229
 29: 0x00F6 [0x1D] PRINT_EVENT_MESSAGE(message_id=13076*)
    → "I've been dispatched from many malms away on a very important mission. "What sort of mission," you ask? An astute question indeed! And here I'd begun to lose hope of meeting any capable adventurers in these provincial backwaters."
 30: 0x00F9 [0x23] WAIT_FOR_DIALOG_INTERACTION
 31: 0x00FA [0x66] LOAD_EXT_SCHEDULER_MAIN: Load scheduler "tlk1" with entities [EventEntity, EventEntity], work=9*
 32: 0x0109 [0x1C] WAIT(15* ticks)
 33: 0x010C [0x52] END_LOAD_SCHEDULER: End scheduler "s000" with entities [LocalPlayer, LocalPlayer], work=557*
 34: 0x011B [0x45] LOAD_SCHEDULED_TASK: Load scheduler "s001" with entities [LocalPlayer, LocalPlayer], work=[557*, 0*]
 35: 0x012C [0x1D] PRINT_EVENT_MESSAGE(message_id=13077*)
    → "(Shhh! Not so loud!)"
 36: 0x012F [0x23] WAIT_FOR_DIALOG_INTERACTION
 37: 0x0130 [0x1D] PRINT_EVENT_MESSAGE(message_id=13078*)
    → "(Yes, I hail from Jeuno, but we can't let the riffraff around these parts be privy to that information.)"
 38: 0x0133 [0x23] WAIT_FOR_DIALOG_INTERACTION
 39: 0x0134 [0x52] END_LOAD_SCHEDULER: End scheduler "s001" with entities [LocalPlayer, LocalPlayer], work=557*
 40: 0x0143 [0x45] LOAD_SCHEDULED_TASK: Load scheduler "s002" with entities [LocalPlayer, LocalPlayer], work=[557*, 0*]
 41: 0x0154 [0x1E] EventEntity looks at Unnamed NPC (ID: 16883891/0x0101A0B3) and starts talking
 42: 0x0159 [0x1C] WAIT(90* ticks)
 43: 0x015C [0x1E] EventEntity looks at LocalPlayer and starts talking
 44: 0x0161 [0x1C] WAIT(15* ticks)
 45: 0x0164 [0x52] END_LOAD_SCHEDULER: End scheduler "s002" with entities [LocalPlayer, LocalPlayer], work=557*
 46: 0x0173 [0x45] LOAD_SCHEDULED_TASK: Load scheduler "s003" with entities [LocalPlayer, LocalPlayer], work=[557*, 0*]
 47: 0x0184 [0x1C] WAIT(15* ticks)
 48: 0x0187 [0x66] LOAD_EXT_SCHEDULER_MAIN: Load scheduler "tlk0" with entities [EventEntity, EventEntity], work=9*
 49: 0x0196 [0x1D] PRINT_EVENT_MESSAGE(message_id=13079*)
    → "What exactly is my objective? Oh, come now. I'm certain [a hero/a heroine] of your caliber could figure it out. The secrecy, the mention of <cough> Jeuno <cough>, propositioning adventurers..."
 50: 0x0199 [0x23] WAIT_FOR_DIALOG_INTERACTION
 51: 0x019A [0x1D] PRINT_EVENT_MESSAGE(message_id=13080*)
    → "Yes, it does indeed involve Voidwalkers--those eerie menaces that traverse time and space by way of those "planar rifts." I haven't the foggiest idea as to why, but they've apparently decided to make Tavnazia their next battlefront."
 52: 0x019D [0x23] WAIT_FOR_DIALOG_INTERACTION
 53: 0x019E [0x66] LOAD_EXT_SCHEDULER_MAIN: Load scheduler "tlk1" with entities [EventEntity, EventEntity], work=9*
 54: 0x01AD [0x1C] WAIT(30* ticks)
 55: 0x01B0 [0x52] END_LOAD_SCHEDULER: End scheduler "s003" with entities [LocalPlayer, LocalPlayer], work=557*
 56: 0x01BF [0x45] LOAD_SCHEDULED_TASK: Load scheduler "s004" with entities [LocalPlayer, LocalPlayer], work=[557*, 0*]
 57: 0x01D0 [0x6E] EventEntity uses emote 22*
 58: 0x01D7 [0x99] Wait for EventEntity animation to complete
 59: 0x01DC [0x1D] PRINT_EVENT_MESSAGE(message_id=13081*)
    → "I was given an order to dispose of the threat, effective immediately. However, these fishmongering philistines...how do I put this politely? Show no respect for the Voidwatch's jurisdiction."
 60: 0x01DF [0x23] WAIT_FOR_DIALOG_INTERACTION
 61: 0x01E0 [0x1D] PRINT_EVENT_MESSAGE(message_id=13082*)
    → "No matter how civil I try to be around these country bumpkins, they simply won't let me do my job. Thus I've been secretly recruiting adventurers to aid in our cause."
 62: 0x01E3 [0x23] WAIT_FOR_DIALOG_INTERACTION
 63: 0x01E4 [0x52] END_LOAD_SCHEDULER: End scheduler "s004" with entities [LocalPlayer, LocalPlayer], work=557*
 64: 0x01F3 [0x45] LOAD_SCHEDULED_TASK: Load scheduler "s005" with entities [LocalPlayer, LocalPlayer], work=[557*, 0*]
 65: 0x0204 [0x66] LOAD_EXT_SCHEDULER_MAIN: Load scheduler "tlk0" with entities [EventEntity, EventEntity], work=9*
 66: 0x0213 [0x1D] PRINT_EVENT_MESSAGE(message_id=13083*)
    → "What say you take pity on a fellow crusader of justice and help rid this wasteland of its interdimensional intruders?"
 67: 0x0216 [0x23] WAIT_FOR_DIALOG_INTERACTION
 68: 0x0217 [0x66] LOAD_EXT_SCHEDULER_MAIN: Load scheduler "tlk1" with entities [EventEntity, EventEntity], work=9*
 69: 0x0226 [0x01] GOTO 0x0326
 70: 0x0229 [0x1D] PRINT_EVENT_MESSAGE(message_id=13084*)
    → "Oh, so you're <Player>? I've heard much about you from Justinius."
 71: 0x022C [0x23] WAIT_FOR_DIALOG_INTERACTION
 72: 0x022D [0x52] END_LOAD_SCHEDULER: End scheduler "s000" with entities [LocalPlayer, LocalPlayer], work=557*
 73: 0x023C [0x45] LOAD_SCHEDULED_TASK: Load scheduler "s010" with entities [LocalPlayer, LocalPlayer], work=[557*, 0*]
 74: 0x024D [0x1D] PRINT_EVENT_MESSAGE(message_id=13085*)
    → "One of those being that your exploits factored heavily in Jeuno's decision to trade with this region."
 75: 0x0250 [0x23] WAIT_FOR_DIALOG_INTERACTION
 76: 0x0251 [0x1D] PRINT_EVENT_MESSAGE(message_id=13086*)
    → "In that sense, one could say it's your doing--for better or worse--that I've been dispatched to this goddess-forsaken crag."
 77: 0x0254 [0x23] WAIT_FOR_DIALOG_INTERACTION
 78: 0x0255 [0x52] END_LOAD_SCHEDULER: End scheduler "s010" with entities [LocalPlayer, LocalPlayer], work=557*
 79: 0x0264 [0x45] LOAD_SCHEDULED_TASK: Load scheduler "s011" with entities [LocalPlayer, LocalPlayer], work=[557*, 0*]
 80: 0x0275 [0x1D] PRINT_EVENT_MESSAGE(message_id=13087*)
    → "I have a proposition, but I warn you--this task is more harrowing than listening to your mother-in-law berate you over a deceptively cordial cup of tea about how you don't spend enough time with your wife. Even now, I can see her eyes...bearing into my soul...as her venomous tongue paralyzes me like a death jacket's stinger. Die! Die, you accursed fiend!"
 81: 0x0278 [0x23] WAIT_FOR_DIALOG_INTERACTION
 82: 0x0279 [0x1D] PRINT_EVENT_MESSAGE(message_id=13088*)
    → "But I digress. This mission actually involves Voidwalkers. According to the Tavnazian Patrol, planar rifts have been opening up across the archipelago recently."
 83: 0x027C [0x23] WAIT_FOR_DIALOG_INTERACTION
 84: 0x027D [0x52] END_LOAD_SCHEDULER: End scheduler "s011" with entities [LocalPlayer, LocalPlayer], work=557*
 85: 0x028C [0x45] LOAD_SCHEDULED_TASK: Load scheduler "s012" with entities [LocalPlayer, LocalPlayer], work=[557*, 0*]
 86: 0x029D [0x66] LOAD_EXT_SCHEDULER_MAIN: Load scheduler "tlk1" with entities [EventEntity, EventEntity], work=9*
 87: 0x02AC [0x1D] PRINT_EVENT_MESSAGE(message_id=13089*)
    → "What they see in this piddling swath of scattered rocks, I haven't a clue."
 88: 0x02AF [0x23] WAIT_FOR_DIALOG_INTERACTION
 89: 0x02B0 [0x7C] EventEntity->Render.Flags2 |= 0x00
 90: 0x02B6 [0x1D] PRINT_EVENT_MESSAGE(message_id=13090*)
    → "(Still, if they can find a mound of rubble like Tavnazia habitable, what's stopping them from infesting every area in the realm?)"
 91: 0x02B9 [0x23] WAIT_FOR_DIALOG_INTERACTION
 92: 0x02BA [0x7C] EventEntity->Render.Flags2 |= 0x01
 93: 0x02C0 [0x52] END_LOAD_SCHEDULER: End scheduler "s012" with entities [LocalPlayer, LocalPlayer], work=557*
 94: 0x02CF [0x45] LOAD_SCHEDULED_TASK: Load scheduler "s013" with entities [LocalPlayer, LocalPlayer], work=[557*, 0*]
 95: 0x02E0 [0x66] LOAD_EXT_SCHEDULER_MAIN: Load scheduler "tlk0" with entities [EventEntity, EventEntity], work=9*
 96: 0x02EF [0x1D] PRINT_EVENT_MESSAGE(message_id=13091*)
    → "In summation, we need your assistance in exterminating these pests."
 97: 0x02F2 [0x23] WAIT_FOR_DIALOG_INTERACTION
 98: 0x02F3 [0x1D] PRINT_EVENT_MESSAGE(message_id=13092*)
    → "What do you say? Will you do your part for the Voidwatch?"
 99: 0x02F6 [0x23] WAIT_FOR_DIALOG_INTERACTION
100: 0x02F7 [0x66] LOAD_EXT_SCHEDULER_MAIN: Load scheduler "tlk1" with entities [EventEntity, EventEntity], work=9*
101: 0x0306 [0x52] END_LOAD_SCHEDULER: End scheduler "s013" with entities [LocalPlayer, LocalPlayer], work=557*
102: 0x0315 [0x45] LOAD_SCHEDULED_TASK: Load scheduler "s005" with entities [LocalPlayer, LocalPlayer], work=[557*, 0*]

SUBROUTINE_0326:
103: 0x0326 [0x01] GOTO 0x0393
104: 0x0329 [0x45] LOAD_SCHEDULED_TASK: Load scheduler "s027" with entities [LocalPlayer, LocalPlayer], work=[557*, 0*]
105: 0x033A [0x1C] WAIT(15* ticks)
106: 0x033D [0x45] LOAD_SCHEDULED_TASK: Load scheduler "fdi1" with entities [LocalPlayer, LocalPlayer], work=[200*, 0*]
107: 0x034E [0x1C] WAIT(30* ticks)
108: 0x0351 [0x66] LOAD_EXT_SCHEDULER_MAIN: Load scheduler "tlk0" with entities [EventEntity, EventEntity], work=9*
109: 0x0360 [0x1D] PRINT_EVENT_MESSAGE(message_id=13097*)
    → "Did you finally grow a backbone? Now are you ready to join the Voidwatch and make the realm proud?"
110: 0x0363 [0x23] WAIT_FOR_DIALOG_INTERACTION
111: 0x0364 [0x66] LOAD_EXT_SCHEDULER_MAIN: Load scheduler "tlk1" with entities [EventEntity, EventEntity], work=9*
112: 0x0373 [0x52] END_LOAD_SCHEDULER: End scheduler "s027" with entities [LocalPlayer, LocalPlayer], work=557*
113: 0x0382 [0x45] LOAD_SCHEDULED_TASK: Load scheduler "s005" with entities [LocalPlayer, LocalPlayer], work=[557*, 0*]

SUBROUTINE_0393:
114: 0x0393 [0x24] CREATE_DIALOG(message_id=13093*, default_option=0*, option_flags=120*)
    → "What will you do? [Nothing at all./Ask many a question./Participate in Voidwatch Ops./Request debriefing./Request $3./Check voidstone stock./Request reward issuance.]"
115: 0x039A [0x25] WAIT_DIALOG_SELECT()
116: 0x039B [0x02] IF !(Work_Zone[0] == 0*) GOTO 0x03D6
117: 0x03A3 [0x52] END_LOAD_SCHEDULER: End scheduler "s005" with entities [LocalPlayer, LocalPlayer], work=557*
118: 0x03B2 [0x45] LOAD_SCHEDULED_TASK: Load scheduler "s006" with entities [LocalPlayer, LocalPlayer], work=[557*, 0*]
119: 0x03C3 [0x6E] EventEntity uses emote 19*
120: 0x03CA [0x99] Wait for EventEntity animation to complete
121: 0x03CF [0x1D] PRINT_EVENT_MESSAGE(message_id=13094*)
    → "I see... It would seem everyone in these parts is a lily-livered craven. It must be something in the water..."
122: 0x03D2 [0x23] WAIT_FOR_DIALOG_INTERACTION
123: 0x03D3 [0x01] GOTO 0x04BC
124: 0x03D6 [0x02] IF !(Work_Zone[0] == 1*) GOTO 0x0438
125: 0x03DE [0x52] END_LOAD_SCHEDULER: End scheduler "s005" with entities [LocalPlayer, LocalPlayer], work=557*
126: 0x03ED [0x45] LOAD_SCHEDULED_TASK: Load scheduler "s007" with entities [LocalPlayer, LocalPlayer], work=[557*, 0*]
127: 0x03FE [0x6E] EventEntity uses emote 21*
128: 0x0405 [0x99] Wait for EventEntity animation to complete
129: 0x040A [0x1D] PRINT_EVENT_MESSAGE(message_id=13095*)
    → "Whoa, whoa, whoa! There's something I need to get off my chest. I figured no one in this dirthole would be brave enough to sign up, so I didn't bother reading the recruitment manual."
130: 0x040D [0x23] WAIT_FOR_DIALOG_INTERACTION
131: 0x040E [0x1D] PRINT_EVENT_MESSAGE(message_id=13096*)
    → "It pains me to admit my own ignorance, but you'll have to seek out a Voidwatch Officer if you want some answers."
132: 0x0411 [0x23] WAIT_FOR_DIALOG_INTERACTION
133: 0x0412 [0x52] END_LOAD_SCHEDULER: End scheduler "s007" with entities [LocalPlayer, LocalPlayer], work=557*
134: 0x0421 [0x45] LOAD_SCHEDULED_TASK: Load scheduler "s005" with entities [LocalPlayer, LocalPlayer], work=[557*, 0*]
135: 0x0432 [0x01] GOTO 0x0393

SUBROUTINE_04BC:
136: 0x04BC [0x45] LOAD_SCHEDULED_TASK: Load scheduler "fdo2" with entities [EventEntity, EventEntity], work=[200*, 0*]
137: 0x04CD [0x55] WAIT_LOAD_SCHEDULER: Wait for scheduler "fdo2" with entities [EventEntity, EventEntity], work=200*
138: 0x04DC [0x52] END_LOAD_SCHEDULER: End scheduler "s006" with entities [LocalPlayer, LocalPlayer], work=557*
139: 0x04EB [0x52] END_LOAD_SCHEDULER: End scheduler "s009" with entities [LocalPlayer, LocalPlayer], work=557*
140: 0x04FA [0x46] CAMERA_CONTROL: Restore default settings
141: 0x04FC [0x45] LOAD_SCHEDULED_TASK: Load scheduler "fdi2" with entities [LocalPlayer, LocalPlayer], work=[200*, 0*]
142: 0x050D [0x21] END_EVENT
143: 0x050E [0x00] END_REQSTACK()
```

#### Data or dead code:

```
# Dead code (unreachable instructions):
     0x0435 [0x01] GOTO 0x04BC
```

### Event 629

#### Metadata

| Field        | Value      |
|--------------|------------|
| Entrypoint   | 0x050F     |
| Data Size    | 3459 bytes |
| Instructions | 438        |

```
      00 01 02 03 04 05 06 07  08 09 0A 0B 0C 0D 0E 0F
      -- -- -- -- -- -- -- --  -- -- -- -- -- -- -- --
0500:                                               42                 B
0510: 06 00 00 06 01 00 06 02  00 06 03 00 03 00 00 03  ................
0520: 10 03 01 00 04 10 03 02  00 05 10 03 03 00 06 10  ................
0530: 45 04 80 F8 FF FF 7F F8  FF FF 7F 66 64 6F 32 05  E..........fdo2.
0540: 80 55 04 80 F8 FF FF 7F  F8 FF FF 7F 66 64 6F 32  .U..........fdo2
0550: 46 01 38 06 80 94 01 F0  FF FF 7F 94 01 F8 FF FF  F.8.............
0560: 7F 94 01 B4 A0 01 01 92  01 F8 FF FF 7F 92 01 B4  ................
0570: A0 01 01 BA F0 FF FF 7F  07 80 08 80 09 80 0A 80  ................
0580: 80 F0 FF FF 7F 80 F8 FF  FF 7F 80 B4 A0 01 01 4A  ...............J
0590: F0 FF FF 7F F8 FF FF 7F  1E F0 FF FF 7F 1C 00 80  ................
05A0: 45 0B 80 F0 FF FF 7F F0  FF FF 7F 73 30 31 34 05  E..........s014.
05B0: 80 1C 0C 80 45 04 80 F0  FF FF 7F F0 FF FF 7F 66  ....E..........f
05C0: 64 69 31 05 80 1C 00 80  66 01 80 F8 FF FF 7F F8  di1.....f.......
05D0: FF FF 7F 74 6C 6B 30 1D  2E 80 23 52 0B 80 F0 FF  ...tlk0...#R....
05E0: FF 7F F0 FF FF 7F 73 30  31 34 45 0B 80 F0 FF FF  ......s014E.....
05F0: 7F F0 FF FF 7F 73 30 31  35 05 80 1D 2F 80 23 66  .....s015.../.#f
0600: 01 80 F8 FF FF 7F F8 FF  FF 7F 74 6C 6B 31 1C 0C  ..........tlk1..
0610: 80 52 0B 80 F0 FF FF 7F  F0 FF FF 7F 73 30 31 35  .R..........s015
0620: 45 0B 80 F0 FF FF 7F F0  FF FF 7F 73 30 31 36 05  E..........s016.
0630: 80 1D 30 80 23 52 0B 80  F0 FF FF 7F F0 FF FF 7F  ..0.#R..........
0640: 73 30 31 36 02 87 7F 31  80 80 60 06 45 0B 80 F0  s016...1..`.E...
0650: FF FF 7F F0 FF FF 7F 73  30 32 34 05 80 01 E1 06  .......s024.....
0660: 02 87 7F 32 80 80 7C 06  45 0B 80 F0 FF FF 7F F0  ...2..|.E.......
0670: FF FF 7F 73 30 32 34 05  80 01 E1 06 02 87 7F 33  ...s024........3
0680: 80 80 98 06 45 0B 80 F0  FF FF 7F F0 FF FF 7F 73  ....E..........s
0690: 30 32 35 05 80 01 E1 06  02 87 7F 34 80 80 B4 06  025........4....
06A0: 45 0B 80 F0 FF FF 7F F0  FF FF 7F 73 30 32 35 05  E..........s025.
06B0: 80 01 E1 06 02 87 7F 35  80 80 D0 06 45 0B 80 F0  .......5....E...
06C0: FF FF 7F F0 FF FF 7F 73  30 32 34 05 80 01 E1 06  .......s024.....
06D0: 45 0B 80 F0 FF FF 7F F0  FF FF 7F 73 30 31 37 05  E..........s017.
06E0: 80 32 36 80 1F 00 37 80  38 80 39 80 1F 01 1D 3A  .26...7.8.9....:
06F0: 80 23 02 00 00 05 80 80  87 09 2F 00 0A A0 01 01  .#......../.....
0700: 2F 00 0B A0 01 01 4E 00  0A A0 01 01 4E 00 0B A0  /.....N.....N...
0710: 01 01 94 01 0A A0 01 01  94 01 0B A0 01 01 92 01  ................
0720: 0A A0 01 01 92 01 0B A0  01 01 BA 0A A0 01 01 3B  ...............;
0730: 80 3C 80 3D 80 3E 80 BA  0B A0 01 01 3F 80 40 80  .<.=.>......?.@.
0740: 41 80 3E 80 80 0A A0 01  01 80 0B A0 01 01 79 00  A.>...........y.
0750: 0B A0 01 01 0A A0 01 01  5C 00 42 80 5C 01 42 80  ........\.B.\.B.
0760: 9A 27 05 0A A0 01 01 31  1C 0C 80 27 05 0B A0 01  .'.....1...'....
0770: 01 24 1C 0C 80 52 0B 80  F0 FF FF 7F F0 FF FF 7F  .$...R..........
0780: 73 30 31 37 52 0B 80 F0  FF FF 7F F0 FF FF 7F 73  s017R..........s
0790: 30 32 34 52 0B 80 F0 FF  FF 7F F0 FF FF 7F 73 30  024R..........s0
07A0: 32 35 45 0B 80 F0 FF FF  7F F0 FF FF 7F 73 30 31  25E..........s01
07B0: 38 05 80 4A B2 A0 01 01  0A A0 01 01 1D 43 80 1C  8..J.........C..
07C0: 44 80 27 05 F0 FF FF 7F  75 32 45 80 1F 00 46 80  D.'.....u2E...F.
07D0: 47 80 48 80 1F 01 52 0B  80 F0 FF FF 7F F0 FF FF  G.H...R.........
07E0: 7F 73 30 31 38 45 0B 80  F0 FF FF 7F F0 FF FF 7F  .s018E..........
07F0: 73 30 31 39 05 80 2B 0A  A0 01 01 49 80 23 2B 0B  s019..+....I.#+.
0800: A0 01 01 4A 80 23 2A 05  0A A0 01 01 79 00 F0 FF  ...J.#*.....y...
0810: FF 7F 0A A0 01 01 4B B4  A0 01 01 4B 80 52 0B 80  ......K....K.R..
0820: F0 FF FF 7F F0 FF FF 7F  73 30 31 39 45 0B 80 F0  ........s019E...
0830: FF FF 7F F0 FF FF 7F 73  30 32 30 05 80 66 01 80  .......s020..f..
0840: 0A A0 01 01 0A A0 01 01  74 68 6B 31 2B 0A A0 01  ........thk1+...
0850: 01 4C 80 23 66 01 80 0A  A0 01 01 0A A0 01 01 74  .L.#f..........t
0860: 68 6B 32 7B 0B A0 01 01  52 0B 80 F0 FF FF 7F F0  hk2{....R.......
0870: FF FF 7F 73 30 32 30 45  0B 80 F0 FF FF 7F F0 FF  ...s020E........
0880: FF 7F 73 30 32 31 05 80  1C 4D 80 7A 00 0B A0 01  ..s021...M.z....
0890: 01 BA 0A A0 01 01 4E 80  4F 80 50 80 4B 80 BA 0B  ......N.O.P.K...
08A0: A0 01 01 51 80 52 80 53  80 4B 80 27 05 0A A0 01  ...Q.R.S.K.'....
08B0: 01 32 1C 54 80 27 05 0B  A0 01 01 25 1C 55 80 5D  .2.T.'.....%.U.]
08C0: 05 80 22 80 52 0B 80 F0  FF FF 7F F0 FF FF 7F 73  ..".R..........s
08D0: 30 32 31 45 0B 80 F0 FF  FF 7F F0 FF FF 7F 73 30  021E..........s0
08E0: 32 32 05 80 1C 22 80 1D  56 80 23 5C 00 57 80 5C  22..."..V.#\.W.\
08F0: 01 57 80 9A 52 0B 80 F0  FF FF 7F F0 FF FF 7F 73  .W..R..........s
0900: 30 32 32 45 0B 80 F0 FF  FF 7F F0 FF FF 7F 73 30  022E..........s0
0910: 32 33 05 80 1E F0 FF FF  7F 1C 0C 80 4A F0 FF FF  23..........J...
0920: 7F F8 FF FF 7F 1C 0C 80  4B B4 A0 01 01 58 80 66  ........K....X.f
0930: 01 80 F8 FF FF 7F F8 FF  FF 7F 74 6C 6B 30 1D 59  ..........tlk0.Y
0940: 80 23 03 02 10 2A 80 1D  5A 80 23 66 01 80 F8 FF  .#...*..Z.#f....
0950: FF 7F F8 FF FF 7F 74 6C  6B 31 2A 05 F0 FF FF 7F  ......tlk1*.....
0960: 52 0B 80 F0 FF FF 7F F0  FF FF 7F 73 30 32 33 45  R..........s023E
0970: 0B 80 F0 FF FF 7F F0 FF  FF 7F 73 30 32 36 05 80  ..........s026..
0980: 1D 5B 80 23 01 01 12 02  00 00 24 80 80 01 12 02  .[.#......$.....
0990: 01 00 05 80 00 B8 0A 45  04 80 F8 FF FF 7F F8 FF  .......E........
09A0: FF 7F 66 64 6F 30 05 80  BA 76 A0 01 01 5C 80 5D  ..fdo0...v...\.]
09B0: 80 5E 80 5F 80 66 44 80  55 A0 01 01 55 A0 01 01  .^._.fD.U...U...
09C0: 74 6C 6B 30 1C 0C 80 52  0B 80 F0 FF FF 7F F0 FF  tlk0...R........
09D0: FF 7F 73 30 31 37 52 0B  80 F0 FF FF 7F F0 FF FF  ..s017R.........
09E0: 7F 73 30 32 34 52 0B 80  F0 FF FF 7F F0 FF FF 7F  .s024R..........
09F0: 73 30 32 35 45 0B 80 F0  FF FF 7F F0 FF FF 7F 73  s025E..........s
0A00: 30 32 38 05 80 45 04 80  F0 FF FF 7F F0 FF FF 7F  028..E..........
0A10: 66 64 69 30 05 80 5B 60  80 76 A0 01 01 76 A0 01  fdi0..[`.v...v..
0A20: 01 74 6C 6B 30 1D 61 80  23 45 04 80 F8 FF FF 7F  .tlk0.a.#E......
0A30: F8 FF FF 7F 66 64 6F 30  05 80 52 0B 80 F0 FF FF  ....fdo0..R.....
0A40: 7F F0 FF FF 7F 73 30 32  38 1C 0C 80 45 0B 80 F0  .....s028...E...
0A50: FF FF 7F F0 FF FF 7F 73  30 32 39 05 80 45 04 80  .......s029..E..
0A60: F0 FF FF 7F F0 FF FF 7F  66 64 69 30 05 80 6E F8  ........fdi0..n.
0A70: FF FF 7F 13 80 99 F8 FF  FF 7F 1D 62 80 23 1D 63  ...........b.#.c
0A80: 80 23 52 0B 80 F0 FF FF  7F F0 FF FF 7F 73 30 32  .#R..........s02
0A90: 39 45 0B 80 F0 FF FF 7F  F0 FF FF 7F 73 30 33 30  9E..........s030
0AA0: 05 80 66 01 80 F8 FF FF  7F F8 FF FF 7F 74 6C 6B  ..f..........tlk
0AB0: 30 1D 64 80 23 01 09 0B  52 0B 80 F0 FF FF 7F F0  0.d.#...R.......
0AC0: FF FF 7F 73 30 31 37 52  0B 80 F0 FF FF 7F F0 FF  ...s017R........
0AD0: FF 7F 73 30 32 34 52 0B  80 F0 FF FF 7F F0 FF FF  ..s024R.........
0AE0: 7F 73 30 32 35 45 0B 80  F0 FF FF 7F F0 FF FF 7F  .s025E..........
0AF0: 73 30 33 30 05 80 66 01  80 F8 FF FF 7F F8 FF FF  s030..f.........
0B00: 7F 74 6C 6B 30 1D 65 80  23 66 01 80 F8 FF FF 7F  .tlk0.e.#f......
0B10: F8 FF FF 7F 74 6C 6B 31  02 02 00 05 80 00 8F 0D  ....tlk1........
0B20: 2F 00 0A A0 01 01 4E 00  0A A0 01 01 92 01 0A A0  /.....N.........
0B30: 01 01 94 01 0A A0 01 01  BA 0A A0 01 01 66 80 67  .............f.g
0B40: 80 68 80 69 80 80 0A A0  01 01 27 05 0A A0 01 01  .h.i......'.....
0B50: 33 1C 00 80 52 0B 80 F0  FF FF 7F F0 FF FF 7F 73  3...R..........s
0B60: 30 33 30 02 01 00 05 80  00 B5 0B 45 0B 80 F0 FF  030........E....
0B70: FF 7F F0 FF FF 7F 73 30  33 31 05 80 2B 0A A0 01  ......s031..+...
0B80: 01 6A 80 23 1E 0A A0 01  01 1C 00 80 4A F0 FF FF  .j.#........J...
0B90: 7F 0A A0 01 01 79 00 F8  FF FF 7F F0 FF FF 7F 1D  .....y..........
0BA0: 6B 80 23 52 0B 80 F0 FF  FF 7F F0 FF FF 7F 73 30  k.#R..........s0
0BB0: 33 31 01 F2 0B 45 0B 80  F0 FF FF 7F F0 FF FF 7F  31...E..........
0BC0: 73 30 33 31 05 80 2B 0A  A0 01 01 6A 80 23 1E 0A  s031..+....j.#..
0BD0: A0 01 01 1C 00 80 4A F0  FF FF 7F 0A A0 01 01 1D  ......J.........
0BE0: 6C 80 23 52 0B 80 F0 FF  FF 7F F0 FF FF 7F 73 30  l.#R..........s0
0BF0: 33 31 45 0B 80 F0 FF FF  7F F0 FF FF 7F 73 30 33  31E..........s03
0C00: 32 05 80 79 00 F8 FF FF  7F 0A A0 01 01 2B 0A A0  2..y.........+..
0C10: 01 01 6D 80 23 2F 00 0B  A0 01 01 4E 00 0B A0 01  ..m.#/.....N....
0C20: 01 92 01 0B A0 01 01 94  01 0B A0 01 01 BA 0B A0  ................
0C30: 01 01 6E 80 6F 80 70 80  71 80 80 0B A0 01 01 27  ..n.o.p.q......'
0C40: 05 0B A0 01 01 26 1C 0C  80 52 0B 80 F0 FF FF 7F  .....&...R......
0C50: F0 FF FF 7F 73 30 33 32  45 0B 80 F0 FF FF 7F F0  ....s032E.......
0C60: FF FF 7F 73 30 33 33 05  80 2B 0B A0 01 01 72 80  ...s033..+....r.
0C70: 23 4A 0A A0 01 01 0B A0  01 01 1C 00 80 2B 0A A0  #J...........+..
0C80: 01 01 73 80 23 52 0B 80  F0 FF FF 7F F0 FF FF 7F  ..s.#R..........
0C90: 73 30 33 33 45 0B 80 F0  FF FF 7F F0 FF FF 7F 73  s033E..........s
0CA0: 30 33 34 05 80 2B 0B A0  01 01 74 80 23 52 0B 80  034..+....t.#R..
0CB0: F0 FF FF 7F F0 FF FF 7F  73 30 33 34 45 0B 80 F0  ........s034E...
0CC0: FF FF 7F F0 FF FF 7F 73  30 33 35 05 80 6E F8 FF  .......s035..n..
0CD0: FF 7F 25 80 99 F8 FF FF  7F 1D 75 80 23 52 0B 80  ..%.......u.#R..
0CE0: F0 FF FF 7F F0 FF FF 7F  73 30 33 35 45 0B 80 F0  ........s035E...
0CF0: FF FF 7F F0 FF FF 7F 73  30 33 36 05 80 6E 0A A0  .......s036..n..
0D00: 01 01 06 80 99 0A A0 01  01 2B 0A A0 01 01 76 80  .........+....v.
0D10: 23 66 77 80 0B A0 01 01  0B A0 01 01 75 6E 7A 30  #fw.........unz0
0D20: 2B 0B A0 01 01 78 80 23  52 0B 80 F0 FF FF 7F F0  +....x.#R.......
0D30: FF FF 7F 73 30 33 36 45  0B 80 F0 FF FF 7F F0 FF  ...s036E........
0D40: FF 7F 73 30 33 37 05 80  27 05 0A A0 01 01 34 1C  ..s037..'.....4.
0D50: 0C 80 27 05 0B A0 01 01  27 1C 22 80 52 0B 80 F0  ..'.....'.".R...
0D60: FF FF 7F F0 FF FF 7F 73  30 33 37 45 0B 80 F0 FF  .......s037E....
0D70: FF 7F F0 FF FF 7F 73 30  33 38 05 80 6E F8 FF FF  ......s038..n...
0D80: 7F 06 80 99 F8 FF FF 7F  1D 79 80 23 01 FE 11 5D  .........y.#...]
0D90: 05 80 22 80 2F 00 04 A0  01 01 4E 00 04 A0 01 01  .."./.....N.....
0DA0: 92 01 04 A0 01 01 94 01  04 A0 01 01 BA 04 A0 01  ................
0DB0: 01 66 80 67 80 68 80 69  80 80 04 A0 01 01 5C 00  .f.g.h.i......\.
0DC0: 7A 80 5C 01 7A 80 9A 27  05 04 A0 01 01 32 1C 00  z.\.z..'.....2..
0DD0: 80 52 0B 80 F0 FF FF 7F  F0 FF FF 7F 73 30 33 30  .R..........s030
0DE0: 45 0B 80 F0 FF FF 7F F0  FF FF 7F 73 30 33 31 05  E..........s031.
0DF0: 80 02 03 00 05 80 00 04  0E 2B 04 A0 01 01 7B 80  .........+....{.
0E00: 23 01 0C 0E 2B 04 A0 01  01 7C 80 23 1E 04 A0 01  #...+....|.#....
0E10: 01 1C 00 80 4A F0 FF FF  7F 04 A0 01 01 1D 7D 80  ....J.........}.
0E20: 23 2A 05 04 A0 01 01 52  0B 80 F0 FF FF 7F F0 FF  #*.....R........
0E30: FF 7F 73 30 33 31 45 0B  80 F0 FF FF 7F F0 FF FF  ..s031E.........
0E40: 7F 73 30 33 39 05 80 4A  04 A0 01 01 F0 FF FF 7F  .s039..J........
0E50: 1C 0C 80 02 03 00 05 80  00 84 0E 5B 7E 80 04 A0  ...........[~...
0E60: 01 01 04 A0 01 01 73 74  64 30 2B 04 A0 01 01 7F  ......std0+.....
0E70: 80 23 5B 7E 80 04 A0 01  01 04 A0 01 01 73 74 64  .#[~.........std
0E80: 31 01 9B 0E 5B 80 80 04  A0 01 01 04 A0 01 01 74  1...[..........t
0E90: 6C 63 30 2B 04 A0 01 01  81 80 23 52 0B 80 F0 FF  lc0+......#R....
0EA0: FF 7F F0 FF FF 7F 73 30  33 39 45 0B 80 F0 FF FF  ......s039E.....
0EB0: 7F F0 FF FF 7F 73 30 34  30 05 80 02 03 00 05 80  .....s040.......
0EC0: 00 F4 0E 2B 04 A0 01 01  82 80 23 5B 80 80 04 A0  ...+......#[....
0ED0: 01 01 04 A0 01 01 74 6C  61 30 2B 04 A0 01 01 83  ......tla0+.....
0EE0: 80 23 5B 80 80 04 A0 01  01 04 A0 01 01 74 6C 61  .#[..........tla
0EF0: 31 01 13 0F 2B 04 A0 01  01 84 80 23 2B 04 A0 01  1...+......#+...
0F00: 01 85 80 23 5B 80 80 04  A0 01 01 04 A0 01 01 74  ...#[..........t
0F10: 6C 63 31 2F 00 03 A0 01  01 4E 00 03 A0 01 01 92  lc1/.....N......
0F20: 01 03 A0 01 01 94 01 03  A0 01 01 BA 03 A0 01 01  ................
0F30: 86 80 87 80 88 80 89 80  80 03 A0 01 01 4A 03 A0  .............J..
0F40: 01 01 04 A0 01 01 1C 00  80 5B 8A 80 03 A0 01 01  .........[......
0F50: 03 A0 01 01 6D 61 30 30  1C 33 80 5B 8A 80 03 A0  ....ma00.3.[....
0F60: 01 01 03 A0 01 01 6D 61  30 31 52 0B 80 F0 FF FF  ......ma01R.....
0F70: 7F F0 FF FF 7F 73 30 34  30 45 0B 80 F0 FF FF 7F  .....s040E......
0F80: F0 FF FF 7F 73 30 34 31  05 80 2B 03 A0 01 01 8B  ....s041..+.....
0F90: 80 23 52 0B 80 F0 FF FF  7F F0 FF FF 7F 73 30 34  .#R..........s04
0FA0: 31 45 0B 80 F0 FF FF 7F  F0 FF FF 7F 73 30 34 32  1E..........s042
0FB0: 05 80 4A 04 A0 01 01 03  A0 01 01 1C 00 80 6B 69  ..J...........ki
0FC0: 64 6C 30 03 A0 01 01 02  03 00 05 80 00 DA 0F 2B  dl0............+
0FD0: 04 A0 01 01 8C 80 23 01  EE 0F 7C 00 04 A0 01 01  ......#...|.....
0FE0: 2B 04 A0 01 01 8D 80 23  7C 01 04 A0 01 01 55 0B  +......#|.....U.
0FF0: 80 F0 FF FF 7F F0 FF FF  7F 73 30 34 32 45 0B 80  .........s042E..
1000: F0 FF FF 7F F0 FF FF 7F  73 30 34 33 05 80 4A 04  ........s043..J.
1010: A0 01 01 F0 FF FF 7F BA  03 A0 01 01 8E 80 8F 80  ................
1020: 90 80 89 80 7B 03 A0 01  01 1C 00 80 02 03 00 05  ....{...........
1030: 80 00 3F 10 2B 04 A0 01  01 91 80 23 01 47 10 2B  ..?.+......#.G.+
1040: 04 A0 01 01 92 80 23 52  0B 80 F0 FF FF 7F F0 FF  ......#R........
1050: FF 7F 73 30 34 33 45 0B  80 F0 FF FF 7F F0 FF FF  ..s043E.........
1060: 7F 73 30 34 34 05 80 27  05 04 A0 01 01 33 1C 93  .s044..'.....3..
1070: 80 27 05 03 A0 01 01 25  1C 94 80 5D 05 80 22 80  .'.....%...]..".
1080: 52 0B 80 F0 FF FF 7F F0  FF FF 7F 73 30 34 34 45  R..........s044E
1090: 0B 80 F0 FF FF 7F F0 FF  FF 7F 73 30 34 35 05 80  ..........s045..
10A0: 2B 03 A0 01 01 95 80 23  5C 00 96 80 5C 01 96 80  +......#\...\...
10B0: 9A 52 0B 80 F0 FF FF 7F  F0 FF FF 7F 73 30 34 35  .R..........s045
10C0: 45 0B 80 F0 FF FF 7F F0  FF FF 7F 73 30 34 36 05  E..........s046.
10D0: 80 4A 03 A0 01 01 F0 FF  FF 7F 1C 00 80 4A F0 FF  .J...........J..
10E0: FF 7F 03 A0 01 01 5B 97  80 03 A0 01 01 03 A0 01  ......[.........
10F0: 01 74 6C 61 30 2B 03 A0  01 01 98 80 23 52 0B 80  .tla0+......#R..
1100: F0 FF FF 7F F0 FF FF 7F  73 30 34 36 45 0B 80 F0  ........s046E...
1110: FF FF 7F F0 FF FF 7F 73  30 34 37 05 80 2B 03 A0  .......s047..+..
1120: 01 01 99 80 23 2B 03 A0  01 01 9A 80 23 5B 97 80  ....#+......#[..
1130: 03 A0 01 01 03 A0 01 01  74 6C 61 31 52 0B 80 F0  ........tla1R...
1140: FF FF 7F F0 FF FF 7F 73  30 34 37 45 0B 80 F0 FF  .......s047E....
1150: FF 7F F0 FF FF 7F 73 30  34 38 05 80 1C 00 80 27  ......s048.....'
1160: 05 03 A0 01 01 26 1C 22  80 5D 05 80 22 80 52 0B  .....&.".]..".R.
1170: 80 F0 FF FF 7F F0 FF FF  7F 73 30 34 38 45 0B 80  .........s048E..
1180: F0 FF FF 7F F0 FF FF 7F  73 30 34 39 05 80 02 01  ........s049....
1190: 00 05 80 00 A7 11 79 00  F8 FF FF 7F F0 FF FF 7F  ......y.........
11A0: 1D 9B 80 23 01 BA 11 02  03 00 05 80 00 B6 11 1D  ...#............
11B0: 9C 80 23 01 BA 11 1D 9D  80 23 5C 00 57 80 5C 01  ..#......#\.W.\.
11C0: 57 80 9A 52 0B 80 F0 FF  FF 7F F0 FF FF 7F 73 30  W..R..........s0
11D0: 34 39 45 0B 80 F0 FF FF  7F F0 FF FF 7F 73 30 35  49E..........s05
11E0: 30 05 80 1E F0 FF FF 7F  1C 00 80 66 01 80 F8 FF  0..........f....
11F0: FF 7F F8 FF FF 7F 74 6C  6B 30 1D 9E 80 23 01 01  ......tlk0...#..
1200: 12 45 04 80 F8 FF FF 7F  F8 FF FF 7F 66 64 6F 32  .E..........fdo2
1210: 05 80 55 04 80 F8 FF FF  7F F8 FF FF 7F 66 64 6F  ..U..........fdo
1220: 32 52 0B 80 F0 FF FF 7F  F0 FF FF 7F 73 30 31 37  2R..........s017
1230: 52 0B 80 F0 FF FF 7F F0  FF FF 7F 73 30 32 34 52  R..........s024R
1240: 0B 80 F0 FF FF 7F F0 FF  FF 7F 73 30 32 35 52 0B  ..........s025R.
1250: 80 F0 FF FF 7F F0 FF FF  7F 73 30 32 36 52 0B 80  .........s026R..
1260: F0 FF FF 7F F0 FF FF 7F  73 30 33 38 52 0B 80 F0  ........s038R...
1270: FF FF 7F F0 FF FF 7F 73  30 35 30 46 00 45 04 80  .......s050F.E..
1280: F0 FF FF 7F F0 FF FF 7F  66 64 69 32 05 80 21 00  ........fdi2..!.
1290: 21 00                                             !.              
```

#### Opcodes

```
  0: 0x050F [0x42] SET_CLI_EVENT_CANCEL_DATA()
  1: 0x0510 [0x06] ExtData[1]->WorkLocal[0] = 0
  2: 0x0513 [0x06] ExtData[1]->WorkLocal[1] = 0
  3: 0x0516 [0x06] ExtData[1]->WorkLocal[2] = 0
  4: 0x0519 [0x06] ExtData[1]->WorkLocal[3] = 0
  5: 0x051C [0x03] ExtData[1]->WorkLocal[0] = Work_Zone[3]
  6: 0x0521 [0x03] ExtData[1]->WorkLocal[1] = Work_Zone[4]
  7: 0x0526 [0x03] ExtData[1]->WorkLocal[2] = Work_Zone[5]
  8: 0x052B [0x03] ExtData[1]->WorkLocal[3] = Work_Zone[6]
  9: 0x0530 [0x45] LOAD_SCHEDULED_TASK: Load scheduler "fdo2" with entities [EventEntity, EventEntity], work=[200*, 0*]
 10: 0x0541 [0x55] WAIT_LOAD_SCHEDULER: Wait for scheduler "fdo2" with entities [EventEntity, EventEntity], work=200*
 11: 0x0550 [0x46] CAMERA_CONTROL: Disable user control
 12: 0x0552 [0x38] SET_CLIENT_EVENT_MODE(mode=19*)
 13: 0x0555 [0x94] LocalPlayer->Render.Flags3 ^= 0x01
 14: 0x055B [0x94] EventEntity->Render.Flags3 ^= 0x01
 15: 0x0561 [0x94] Atmacite Refiner (ID: 16883892/0x0101A0B4)->Render.Flags3 ^= 0x01
 16: 0x0567 [0x92] EventEntity->Render.Flags3 ^= 0x01
 17: 0x056D [0x92] Atmacite Refiner (ID: 16883892/0x0101A0B4)->Render.Flags3 ^= 0x01
 18: 0x0573 [0xBA] SET_ENTITY_POSITION(entity_id=LocalPlayer, pos_x=-16.052*, pos_z=126.050*, pos_y=-25.856*, direction=136.1°*)
 19: 0x0580 [0x80] LOAD_WAIT(entity=LocalPlayer)
 20: 0x0585 [0x80] LOAD_WAIT(entity=EventEntity)
 21: 0x058A [0x80] LOAD_WAIT(entity=Atmacite Refiner (ID: 16883892/0x0101A0B4))
 22: 0x058F [0x4A] LocalPlayer looks at EventEntity
 23: 0x0598 [0x1E] EventEntity looks at LocalPlayer and starts talking
 24: 0x059D [0x1C] WAIT(30* ticks)
 25: 0x05A0 [0x45] LOAD_SCHEDULED_TASK: Load scheduler "s014" with entities [LocalPlayer, LocalPlayer], work=[557*, 0*]
 26: 0x05B1 [0x1C] WAIT(15* ticks)
 27: 0x05B4 [0x45] LOAD_SCHEDULED_TASK: Load scheduler "fdi1" with entities [LocalPlayer, LocalPlayer], work=[200*, 0*]
 28: 0x05C5 [0x1C] WAIT(30* ticks)
 29: 0x05C8 [0x66] LOAD_EXT_SCHEDULER_MAIN: Load scheduler "tlk0" with entities [EventEntity, EventEntity], work=9*
 30: 0x05D7 [0x1D] PRINT_EVENT_MESSAGE(message_id=13104*)
    → "My compatriots within the 'Watch tell me that you've exterminated every last threat to the archipelago. Admirably done."
 31: 0x05DA [0x23] WAIT_FOR_DIALOG_INTERACTION
 32: 0x05DB [0x52] END_LOAD_SCHEDULER: End scheduler "s014" with entities [LocalPlayer, LocalPlayer], work=557*
 33: 0x05EA [0x45] LOAD_SCHEDULED_TASK: Load scheduler "s015" with entities [LocalPlayer, LocalPlayer], work=[557*, 0*]
 34: 0x05FB [0x1D] PRINT_EVENT_MESSAGE(message_id=13105*)
    → "...But we both know the old adage about assuming. Only greenhorns and village idiots fail to realize that these creatures possess an uncanny ability to revive as if they'd never suffered a scratch. If only we could decipher the manner in which they cheat death..."
 35: 0x05FE [0x23] WAIT_FOR_DIALOG_INTERACTION
 36: 0x05FF [0x66] LOAD_EXT_SCHEDULER_MAIN: Load scheduler "tlk1" with entities [EventEntity, EventEntity], work=9*
 37: 0x060E [0x1C] WAIT(15* ticks)
 38: 0x0611 [0x52] END_LOAD_SCHEDULER: End scheduler "s015" with entities [LocalPlayer, LocalPlayer], work=557*
 39: 0x0620 [0x45] LOAD_SCHEDULED_TASK: Load scheduler "s016" with entities [LocalPlayer, LocalPlayer], work=[557*, 0*]
 40: 0x0631 [0x1D] PRINT_EVENT_MESSAGE(message_id=13106*)
    → "Stay that thought... If Voidwalkers can resurrect...then my mission will never end! I don't want to be trapped on this isolated archipelago for eternity! What will my hydrangeas ever do without me!?"
 41: 0x0634 [0x23] WAIT_FOR_DIALOG_INTERACTION
 42: 0x0635 [0x52] END_LOAD_SCHEDULER: End scheduler "s016" with entities [LocalPlayer, LocalPlayer], work=557*
 43: 0x0644 [0x02] IF !(LocalPlayer->Race == 3*) GOTO 0x0660
 44: 0x064C [0x45] LOAD_SCHEDULED_TASK: Load scheduler "s024" with entities [LocalPlayer, LocalPlayer], work=[557*, 0*]
 45: 0x065D [0x01] GOTO 0x06E1
 46: 0x0660 [0x02] IF !(LocalPlayer->Race == 4*) GOTO 0x067C
 47: 0x0668 [0x45] LOAD_SCHEDULED_TASK: Load scheduler "s024" with entities [LocalPlayer, LocalPlayer], work=[557*, 0*]
 48: 0x0679 [0x01] GOTO 0x06E1
 49: 0x067C [0x02] IF !(LocalPlayer->Race == 5*) GOTO 0x0698
 50: 0x0684 [0x45] LOAD_SCHEDULED_TASK: Load scheduler "s025" with entities [LocalPlayer, LocalPlayer], work=[557*, 0*]
 51: 0x0695 [0x01] GOTO 0x06E1
 52: 0x0698 [0x02] IF !(LocalPlayer->Race == 6*) GOTO 0x06B4
 53: 0x06A0 [0x45] LOAD_SCHEDULED_TASK: Load scheduler "s025" with entities [LocalPlayer, LocalPlayer], work=[557*, 0*]
 54: 0x06B1 [0x01] GOTO 0x06E1
 55: 0x06B4 [0x02] IF !(LocalPlayer->Race == 8*) GOTO 0x06D0
 56: 0x06BC [0x45] LOAD_SCHEDULED_TASK: Load scheduler "s024" with entities [LocalPlayer, LocalPlayer], work=[557*, 0*]
 57: 0x06CD [0x01] GOTO 0x06E1
 58: 0x06D0 [0x45] LOAD_SCHEDULED_TASK: Load scheduler "s017" with entities [LocalPlayer, LocalPlayer], work=[557*, 0*]

SUBROUTINE_06E1:
 59: 0x06E1 [0x32] ExtData[1]->MainSpeed = 13* * 0.1
 60: 0x06E4 [0x1F] MOVE_ENTITY: EventEntity moves to X=-17.377*, Z=125.158*, Y=-26.020*
 61: 0x06EC [0x1F] MOVE_ENTITY: Update entity position (mode=1)
 62: 0x06EE [0x1D] PRINT_EVENT_MESSAGE(message_id=13107*)
    → "...Wait, I have an idea! You know what might turn the tide of this fathomless bloodbath? A war of attrition! If you could return every so often to slay these undying anomalies, we might yet be able to terminate the Voidwalkers once and for all!"
 63: 0x06F1 [0x23] WAIT_FOR_DIALOG_INTERACTION
 64: 0x06F2 [0x02] IF !(ExtData[1]->WorkLocal[0] == 0*) GOTO 0x0987
 65: 0x06FA [0x2F] Justinius (ID: 16883722/0x0101A00A)->Render.Flags0 &= ~0x80000 // Bit 19
 66: 0x0700 [0x2F] Tressia (ID: 16883723/0x0101A00B)->Render.Flags0 &= ~0x80000 // Bit 19
 67: 0x0706 [0x4E] SET_ENTITY_HIDE_FLAG: Show Justinius (ID: 16883722/0x0101A00A)
 68: 0x070C [0x4E] SET_ENTITY_HIDE_FLAG: Show Tressia (ID: 16883723/0x0101A00B)
 69: 0x0712 [0x94] Justinius (ID: 16883722/0x0101A00A)->Render.Flags3 ^= 0x01
 70: 0x0718 [0x94] Tressia (ID: 16883723/0x0101A00B)->Render.Flags3 ^= 0x01
 71: 0x071E [0x92] Justinius (ID: 16883722/0x0101A00A)->Render.Flags3 ^= 0x01
 72: 0x0724 [0x92] Tressia (ID: 16883723/0x0101A00B)->Render.Flags3 ^= 0x01
 73: 0x072A [0xBA] SET_ENTITY_POSITION(entity_id=Justinius (ID: 16883722/0x0101A00A), pos_x=-29.999*, pos_z=122.037*, pos_y=-27.371*, direction=333.4°*)
 74: 0x0737 [0xBA] SET_ENTITY_POSITION(entity_id=Tressia (ID: 16883723/0x0101A00B), pos_x=-32.269*, pos_z=122.310*, pos_y=-27.380*, direction=333.4°*)
 75: 0x0744 [0x80] LOAD_WAIT(entity=Justinius (ID: 16883722/0x0101A00A))
 76: 0x0749 [0x80] LOAD_WAIT(entity=Tressia (ID: 16883723/0x0101A00B))
 77: 0x074E [0x79] Tressia (ID: 16883723/0x0101A00B) looks at Justinius (ID: 16883722/0x0101A00A) (Basic look)
 78: 0x0758 [0x5C] MUSIC_CONTROL: Set Idle (Day) music to song 127*
 79: 0x075C [0x5C] MUSIC_CONTROL: Set Idle (Night) music to song 127*
 80: 0x0760 [0x9A] WAIT_MUSIC_SERVER()
 81: 0x0761 [0x27] REQ_SET(priority=0x05, entity_id=Justinius (ID: 16883722/0x0101A00A), tag_num=0x31)
 82: 0x0768 [0x1C] WAIT(15* ticks)
 83: 0x076B [0x27] REQ_SET(priority=0x05, entity_id=Tressia (ID: 16883723/0x0101A00B), tag_num=0x24)
 84: 0x0772 [0x1C] WAIT(15* ticks)
 85: 0x0775 [0x52] END_LOAD_SCHEDULER: End scheduler "s017" with entities [LocalPlayer, LocalPlayer], work=557*
 86: 0x0784 [0x52] END_LOAD_SCHEDULER: End scheduler "s024" with entities [LocalPlayer, LocalPlayer], work=557*
 87: 0x0793 [0x52] END_LOAD_SCHEDULER: End scheduler "s025" with entities [LocalPlayer, LocalPlayer], work=557*
 88: 0x07A2 [0x45] LOAD_SCHEDULED_TASK: Load scheduler "s018" with entities [LocalPlayer, LocalPlayer], work=[557*, 0*]
 89: 0x07B3 [0x4A] Owain (ID: 16883890/0x0101A0B2) looks at Justinius (ID: 16883722/0x0101A00A)
 90: 0x07BC [0x1D] PRINT_EVENT_MESSAGE(message_id=13145*)
    → "Take cover!"
 91: 0x07BF [0x1C] WAIT(60* ticks)
 92: 0x07C2 [0x27] REQ_SET(priority=0x05, entity_id=LocalPlayer, tag_num=0x75)
 93: 0x07C9 [0x32] ExtData[1]->MainSpeed = 40* * 0.1
 94: 0x07CC [0x1F] MOVE_ENTITY: EventEntity moves to X=-16.984*, Z=123.482*, Y=-26.208*
 95: 0x07D4 [0x1F] MOVE_ENTITY: Update entity position (mode=1)
 96: 0x07D6 [0x52] END_LOAD_SCHEDULER: End scheduler "s018" with entities [LocalPlayer, LocalPlayer], work=557*
 97: 0x07E5 [0x45] LOAD_SCHEDULED_TASK: Load scheduler "s019" with entities [LocalPlayer, LocalPlayer], work=[557*, 0*]
 98: 0x07F6 [0x2B] Justinius (ID: 16883722/0x0101A00A) [13146*]:
    → "I take it no one has divulged anything to the citizenry about the matter in question...?"
 99: 0x07FD [0x23] WAIT_FOR_DIALOG_INTERACTION
100: 0x07FE [0x2B] Tressia (ID: 16883723/0x0101A00B) [13147*]:
    → "That's right, sir."
101: 0x0805 [0x23] WAIT_FOR_DIALOG_INTERACTION
102: 0x0806 [0x2A] GET_REQ_LEVEL(level=5, entity_id=Justinius (ID: 16883722/0x0101A00A))
103: 0x080C [0x79] LocalPlayer looks at Justinius (ID: 16883722/0x0101A00A) (Basic look)
104: 0x0816 [0x4B] UPDATE_ENTITY_YAW(entity=Atmacite Refiner (ID: 16883892/0x0101A0B4), yaw=4.6°*)
105: 0x081D [0x52] END_LOAD_SCHEDULER: End scheduler "s019" with entities [LocalPlayer, LocalPlayer], work=557*
106: 0x082C [0x45] LOAD_SCHEDULED_TASK: Load scheduler "s020" with entities [LocalPlayer, LocalPlayer], work=[557*, 0*]
107: 0x083D [0x66] LOAD_EXT_SCHEDULER_MAIN: Load scheduler "thk1" with entities [Justinius (ID: 16883722/0x0101A00A), Justinius (ID: 16883722/0x0101A00A)], work=9*
108: 0x084C [0x2B] Justinius (ID: 16883722/0x0101A00A) [13148*]:
    → "For space to just twist and contort like that...such does not sit well with me. We must uncover the truth behind this phenomenon, and quickly."
109: 0x0853 [0x23] WAIT_FOR_DIALOG_INTERACTION
110: 0x0854 [0x66] LOAD_EXT_SCHEDULER_MAIN: Load scheduler "thk2" with entities [Justinius (ID: 16883722/0x0101A00A), Justinius (ID: 16883722/0x0101A00A)], work=9*
111: 0x0863 [0x7B] Tressia (ID: 16883723/0x0101A00B) stops talking
112: 0x0868 [0x52] END_LOAD_SCHEDULER: End scheduler "s020" with entities [LocalPlayer, LocalPlayer], work=557*
113: 0x0877 [0x45] LOAD_SCHEDULED_TASK: Load scheduler "s021" with entities [LocalPlayer, LocalPlayer], work=[557*, 0*]
114: 0x0888 [0x1C] WAIT(10* ticks)
115: 0x088B [0x7A] VM_CONTROL: Reset VM for Tressia (ID: 16883723/0x0101A00B)
116: 0x0891 [0xBA] SET_ENTITY_POSITION(entity_id=Justinius (ID: 16883722/0x0101A00A), pos_x=-19.239*, pos_z=117.335*, pos_y=-27.366*, direction=73.3°*)
117: 0x089E [0xBA] SET_ENTITY_POSITION(entity_id=Tressia (ID: 16883723/0x0101A00B), pos_x=-18.911*, pos_z=118.721*, pos_y=-27.049*, direction=73.3°*)
118: 0x08AB [0x27] REQ_SET(priority=0x05, entity_id=Justinius (ID: 16883722/0x0101A00A), tag_num=0x32)
119: 0x08B2 [0x1C] WAIT(50* ticks)
120: 0x08B5 [0x27] REQ_SET(priority=0x05, entity_id=Tressia (ID: 16883723/0x0101A00B), tag_num=0x25)
121: 0x08BC [0x1C] WAIT(150* ticks)
122: 0x08BF [0x5D] SET_MUSIC_VOLUME(volume=0*, fade_time=120*)
123: 0x08C4 [0x52] END_LOAD_SCHEDULER: End scheduler "s021" with entities [LocalPlayer, LocalPlayer], work=557*
124: 0x08D3 [0x45] LOAD_SCHEDULED_TASK: Load scheduler "s022" with entities [LocalPlayer, LocalPlayer], work=[557*, 0*]
125: 0x08E4 [0x1C] WAIT(120* ticks)
126: 0x08E7 [0x1D] PRINT_EVENT_MESSAGE(message_id=13149*)
    → "Phew, that was close. Those two are part of the Tavnazian Patrol. The unit's recently been making rounds more than just often, which has us 'Watchers on our toes."
127: 0x08EA [0x23] WAIT_FOR_DIALOG_INTERACTION
128: 0x08EB [0x5C] MUSIC_CONTROL: Set Idle (Day) music to song 245*
129: 0x08EF [0x5C] MUSIC_CONTROL: Set Idle (Night) music to song 245*
130: 0x08F3 [0x9A] WAIT_MUSIC_SERVER()
131: 0x08F4 [0x52] END_LOAD_SCHEDULER: End scheduler "s022" with entities [LocalPlayer, LocalPlayer], work=557*
132: 0x0903 [0x45] LOAD_SCHEDULED_TASK: Load scheduler "s023" with entities [LocalPlayer, LocalPlayer], work=[557*, 0*]
133: 0x0914 [0x1E] EventEntity looks at LocalPlayer and starts talking
134: 0x0919 [0x1C] WAIT(15* ticks)
135: 0x091C [0x4A] LocalPlayer looks at EventEntity
136: 0x0925 [0x1C] WAIT(15* ticks)
137: 0x0928 [0x4B] UPDATE_ENTITY_YAW(entity=Atmacite Refiner (ID: 16883892/0x0101A0B4), yaw=20.1°*)
138: 0x092F [0x66] LOAD_EXT_SCHEDULER_MAIN: Load scheduler "tlk0" with entities [EventEntity, EventEntity], work=9*
139: 0x093E [0x1D] PRINT_EVENT_MESSAGE(message_id=13150*)
    → "I trust you realize what those two were discussing. You do not? Well, fortunately, I do."
140: 0x0941 [0x23] WAIT_FOR_DIALOG_INTERACTION
141: 0x0942 [0x03] Work_Zone[2] = 2060*
142: 0x0947 [0x1D] PRINT_EVENT_MESSAGE(message_id=13151*)
    → "I have here a report concerning the recent appearance of planar rifts in the Bibiki Bay area. Perhaps they're related to the change in your $3?"
143: 0x094A [0x23] WAIT_FOR_DIALOG_INTERACTION
144: 0x094B [0x66] LOAD_EXT_SCHEDULER_MAIN: Load scheduler "tlk1" with entities [EventEntity, EventEntity], work=9*
145: 0x095A [0x2A] GET_REQ_LEVEL(level=5, entity_id=LocalPlayer)
146: 0x0960 [0x52] END_LOAD_SCHEDULER: End scheduler "s023" with entities [LocalPlayer, LocalPlayer], work=557*
147: 0x096F [0x45] LOAD_SCHEDULED_TASK: Load scheduler "s026" with entities [LocalPlayer, LocalPlayer], work=[557*, 0*]
148: 0x0980 [0x1D] PRINT_EVENT_MESSAGE(message_id=13152*)
    → "Either way, Bibiki Bay's farther away from here than my mother-in-law is from being congenial. There's no possible way I could make that trip without being declared AWOL."
149: 0x0983 [0x23] WAIT_FOR_DIALOG_INTERACTION
150: 0x0984 [0x01] GOTO 0x1201
151: 0x0987 [0x02] IF !(ExtData[1]->WorkLocal[0] == 1*) GOTO 0x1201
152: 0x098F [0x02] IF !(ExtData[1]->WorkLocal[1] == 0*) GOTO 0x0AB8
153: 0x0997 [0x45] LOAD_SCHEDULED_TASK: Load scheduler "fdo0" with entities [EventEntity, EventEntity], work=[200*, 0*]
154: 0x09A8 [0xBA] SET_ENTITY_POSITION(entity_id=Dominec (ID: 16883830/0x0101A076), pos_x=-107.512*, pos_z=-51.000*, pos_y=-26.821*, direction=159.1°*)
155: 0x09B5 [0x66] LOAD_EXT_SCHEDULER_MAIN: Load scheduler "tlk0" with entities [Ferocious Artisan (ID: 16883797/0x0101A055), Ferocious Artisan (ID: 16883797/0x0101A055)], work=60*
156: 0x09C4 [0x1C] WAIT(15* ticks)
157: 0x09C7 [0x52] END_LOAD_SCHEDULER: End scheduler "s017" with entities [LocalPlayer, LocalPlayer], work=557*
158: 0x09D6 [0x52] END_LOAD_SCHEDULER: End scheduler "s024" with entities [LocalPlayer, LocalPlayer], work=557*
159: 0x09E5 [0x52] END_LOAD_SCHEDULER: End scheduler "s025" with entities [LocalPlayer, LocalPlayer], work=557*
160: 0x09F4 [0x45] LOAD_SCHEDULED_TASK: Load scheduler "s028" with entities [LocalPlayer, LocalPlayer], work=[557*, 0*]
161: 0x0A05 [0x45] LOAD_SCHEDULED_TASK: Load scheduler "fdi0" with entities [LocalPlayer, LocalPlayer], work=[200*, 0*]
162: 0x0A16 [0x5B] LOAD_EXT_SCHEDULER: Load scheduler "tlk0" with entities [Dominec (ID: 16883830/0x0101A076), Dominec (ID: 16883830/0x0101A076)], work=65*
163: 0x0A25 [0x1D] PRINT_EVENT_MESSAGE(message_id=13108*)
    → "Were you aware that the inhabitants of this land finally decided to open trade with Jeuno?"
164: 0x0A28 [0x23] WAIT_FOR_DIALOG_INTERACTION
165: 0x0A29 [0x45] LOAD_SCHEDULED_TASK: Load scheduler "fdo0" with entities [EventEntity, EventEntity], work=[200*, 0*]
166: 0x0A3A [0x52] END_LOAD_SCHEDULER: End scheduler "s028" with entities [LocalPlayer, LocalPlayer], work=557*
167: 0x0A49 [0x1C] WAIT(15* ticks)
168: 0x0A4C [0x45] LOAD_SCHEDULED_TASK: Load scheduler "s029" with entities [LocalPlayer, LocalPlayer], work=[557*, 0*]
169: 0x0A5D [0x45] LOAD_SCHEDULED_TASK: Load scheduler "fdi0" with entities [LocalPlayer, LocalPlayer], work=[200*, 0*]
170: 0x0A6E [0x6E] EventEntity uses emote 22*
171: 0x0A75 [0x99] Wait for EventEntity animation to complete
172: 0x0A7A [0x1D] PRINT_EVENT_MESSAGE(message_id=13109*)
    → "Though I often speak ill of them, truth is the locals are rather open-minded and accepting, though a tad unsophisticated."
173: 0x0A7D [0x23] WAIT_FOR_DIALOG_INTERACTION
174: 0x0A7E [0x1D] PRINT_EVENT_MESSAGE(message_id=13110*)
    → "Even Justinius of the Tavnazia Patrol has proven quite cooperative."
175: 0x0A81 [0x23] WAIT_FOR_DIALOG_INTERACTION
176: 0x0A82 [0x52] END_LOAD_SCHEDULER: End scheduler "s029" with entities [LocalPlayer, LocalPlayer], work=557*
177: 0x0A91 [0x45] LOAD_SCHEDULED_TASK: Load scheduler "s030" with entities [LocalPlayer, LocalPlayer], work=[557*, 0*]
178: 0x0AA2 [0x66] LOAD_EXT_SCHEDULER_MAIN: Load scheduler "tlk0" with entities [EventEntity, EventEntity], work=9*
179: 0x0AB1 [0x1D] PRINT_EVENT_MESSAGE(message_id=13111*)
    → "Speaking of Justinius, it would behoove us to inform him of your victories."
180: 0x0AB4 [0x23] WAIT_FOR_DIALOG_INTERACTION
181: 0x0AB5 [0x01] GOTO 0x0B09
182: 0x0AB8 [0x52] END_LOAD_SCHEDULER: End scheduler "s017" with entities [LocalPlayer, LocalPlayer], work=557*
183: 0x0AC7 [0x52] END_LOAD_SCHEDULER: End scheduler "s024" with entities [LocalPlayer, LocalPlayer], work=557*
184: 0x0AD6 [0x52] END_LOAD_SCHEDULER: End scheduler "s025" with entities [LocalPlayer, LocalPlayer], work=557*
185: 0x0AE5 [0x45] LOAD_SCHEDULED_TASK: Load scheduler "s030" with entities [LocalPlayer, LocalPlayer], work=[557*, 0*]
186: 0x0AF6 [0x66] LOAD_EXT_SCHEDULER_MAIN: Load scheduler "tlk0" with entities [EventEntity, EventEntity], work=9*
187: 0x0B05 [0x1D] PRINT_EVENT_MESSAGE(message_id=13112*)
    → "You're a credit to adventurers everywhere. Justinius certainly knows a capable [man/woman] when he sees one. Speaking of Justinius, it would behoove us to inform him of your victories."
188: 0x0B08 [0x23] WAIT_FOR_DIALOG_INTERACTION

SUBROUTINE_0B09:
189: 0x0B09 [0x66] LOAD_EXT_SCHEDULER_MAIN: Load scheduler "tlk1" with entities [EventEntity, EventEntity], work=9*
190: 0x0B18 [0x02] IF !(ExtData[1]->WorkLocal[2] == 0*) GOTO 0x0D8F
191: 0x0B20 [0x2F] Justinius (ID: 16883722/0x0101A00A)->Render.Flags0 &= ~0x80000 // Bit 19
192: 0x0B26 [0x4E] SET_ENTITY_HIDE_FLAG: Show Justinius (ID: 16883722/0x0101A00A)
193: 0x0B2C [0x92] Justinius (ID: 16883722/0x0101A00A)->Render.Flags3 ^= 0x01
194: 0x0B32 [0x94] Justinius (ID: 16883722/0x0101A00A)->Render.Flags3 ^= 0x01
195: 0x0B38 [0xBA] SET_ENTITY_POSITION(entity_id=Justinius (ID: 16883722/0x0101A00A), pos_x=-9.082*, pos_z=121.538*, pos_y=-26.715*, direction=221.0°*)
196: 0x0B45 [0x80] LOAD_WAIT(entity=Justinius (ID: 16883722/0x0101A00A))
197: 0x0B4A [0x27] REQ_SET(priority=0x05, entity_id=Justinius (ID: 16883722/0x0101A00A), tag_num=0x33)
198: 0x0B51 [0x1C] WAIT(30* ticks)
199: 0x0B54 [0x52] END_LOAD_SCHEDULER: End scheduler "s030" with entities [LocalPlayer, LocalPlayer], work=557*
200: 0x0B63 [0x02] IF !(ExtData[1]->WorkLocal[1] == 0*) GOTO 0x0BB5
201: 0x0B6B [0x45] LOAD_SCHEDULED_TASK: Load scheduler "s031" with entities [LocalPlayer, LocalPlayer], work=[557*, 0*]
202: 0x0B7C [0x2B] Justinius (ID: 16883722/0x0101A00A) [13157*]:
    → "I can't thank you enough, <Player>. You've done so much to help us--which is infinitely more than that bumbling recruiter has."
203: 0x0B83 [0x23] WAIT_FOR_DIALOG_INTERACTION
204: 0x0B84 [0x1E] EventEntity looks at Justinius (ID: 16883722/0x0101A00A) and starts talking
205: 0x0B89 [0x1C] WAIT(30* ticks)
206: 0x0B8C [0x4A] LocalPlayer looks at Justinius (ID: 16883722/0x0101A00A)
207: 0x0B95 [0x79] EventEntity looks at LocalPlayer (Basic look)
208: 0x0B9F [0x1D] PRINT_EVENT_MESSAGE(message_id=13158*)
    → "I resent that, Justinius! W-wait a moment. You two know each other?"
209: 0x0BA2 [0x23] WAIT_FOR_DIALOG_INTERACTION
210: 0x0BA3 [0x52] END_LOAD_SCHEDULER: End scheduler "s031" with entities [LocalPlayer, LocalPlayer], work=557*
211: 0x0BB2 [0x01] GOTO 0x0BF2
212: 0x0BB5 [0x45] LOAD_SCHEDULED_TASK: Load scheduler "s031" with entities [LocalPlayer, LocalPlayer], work=[557*, 0*]
213: 0x0BC6 [0x2B] Justinius (ID: 16883722/0x0101A00A) [13157*]:
    → "I can't thank you enough, <Player>. You've done so much to help us--which is infinitely more than that bumbling recruiter has."
214: 0x0BCD [0x23] WAIT_FOR_DIALOG_INTERACTION
215: 0x0BCE [0x1E] EventEntity looks at Justinius (ID: 16883722/0x0101A00A) and starts talking
216: 0x0BD3 [0x1C] WAIT(30* ticks)
217: 0x0BD6 [0x4A] LocalPlayer looks at Justinius (ID: 16883722/0x0101A00A)
218: 0x0BDF [0x1D] PRINT_EVENT_MESSAGE(message_id=13159*)
    → "Justinius..."
219: 0x0BE2 [0x23] WAIT_FOR_DIALOG_INTERACTION
220: 0x0BE3 [0x52] END_LOAD_SCHEDULER: End scheduler "s031" with entities [LocalPlayer, LocalPlayer], work=557*

SUBROUTINE_0BF2:
221: 0x0BF2 [0x45] LOAD_SCHEDULED_TASK: Load scheduler "s032" with entities [LocalPlayer, LocalPlayer], work=[557*, 0*]
222: 0x0C03 [0x79] EventEntity looks at Justinius (ID: 16883722/0x0101A00A) (Basic look)
223: 0x0C0D [0x2B] Justinius (ID: 16883722/0x0101A00A) [13160*]:
    → "Yet now is hardly the time to rest on our laurels. We still know tragically few details about these creatures, and there's no telling what they're capable of."
224: 0x0C14 [0x23] WAIT_FOR_DIALOG_INTERACTION
225: 0x0C15 [0x2F] Tressia (ID: 16883723/0x0101A00B)->Render.Flags0 &= ~0x80000 // Bit 19
226: 0x0C1B [0x4E] SET_ENTITY_HIDE_FLAG: Show Tressia (ID: 16883723/0x0101A00B)
227: 0x0C21 [0x92] Tressia (ID: 16883723/0x0101A00B)->Render.Flags3 ^= 0x01
228: 0x0C27 [0x94] Tressia (ID: 16883723/0x0101A00B)->Render.Flags3 ^= 0x01
229: 0x0C2D [0xBA] SET_ENTITY_POSITION(entity_id=Tressia (ID: 16883723/0x0101A00B), pos_x=-7.487*, pos_z=120.362*, pos_y=-26.857*, direction=143.3°*)
230: 0x0C3A [0x80] LOAD_WAIT(entity=Tressia (ID: 16883723/0x0101A00B))
231: 0x0C3F [0x27] REQ_SET(priority=0x05, entity_id=Tressia (ID: 16883723/0x0101A00B), tag_num=0x26)
232: 0x0C46 [0x1C] WAIT(15* ticks)
233: 0x0C49 [0x52] END_LOAD_SCHEDULER: End scheduler "s032" with entities [LocalPlayer, LocalPlayer], work=557*
234: 0x0C58 [0x45] LOAD_SCHEDULED_TASK: Load scheduler "s033" with entities [LocalPlayer, LocalPlayer], work=[557*, 0*]
235: 0x0C69 [0x2B] Tressia (ID: 16883723/0x0101A00B) [13161*]:
    → "Pardon the intrusion, Captain."
236: 0x0C70 [0x23] WAIT_FOR_DIALOG_INTERACTION
237: 0x0C71 [0x4A] Justinius (ID: 16883722/0x0101A00A) looks at Tressia (ID: 16883723/0x0101A00B)
238: 0x0C7A [0x1C] WAIT(30* ticks)
239: 0x0C7D [0x2B] Justinius (ID: 16883722/0x0101A00A) [13162*]:
    → "What is it, Tressia?"
240: 0x0C84 [0x23] WAIT_FOR_DIALOG_INTERACTION
241: 0x0C85 [0x52] END_LOAD_SCHEDULER: End scheduler "s033" with entities [LocalPlayer, LocalPlayer], work=557*
242: 0x0C94 [0x45] LOAD_SCHEDULED_TASK: Load scheduler "s034" with entities [LocalPlayer, LocalPlayer], work=[557*, 0*]
243: 0x0CA5 [0x2B] Tressia (ID: 16883723/0x0101A00B) [13163*]:
    → "It appears the planar rifts are reforming, sir. At least that's the word I've received from our officers in the field."
244: 0x0CAC [0x23] WAIT_FOR_DIALOG_INTERACTION
245: 0x0CAD [0x52] END_LOAD_SCHEDULER: End scheduler "s034" with entities [LocalPlayer, LocalPlayer], work=557*
246: 0x0CBC [0x45] LOAD_SCHEDULED_TASK: Load scheduler "s035" with entities [LocalPlayer, LocalPlayer], work=[557*, 0*]
247: 0x0CCD [0x6E] EventEntity uses emote 21*
248: 0x0CD4 [0x99] Wait for EventEntity animation to complete
249: 0x0CD9 [0x1D] PRINT_EVENT_MESSAGE(message_id=13164*)
    → "Nooo! Not again!"
250: 0x0CDC [0x23] WAIT_FOR_DIALOG_INTERACTION
251: 0x0CDD [0x52] END_LOAD_SCHEDULER: End scheduler "s035" with entities [LocalPlayer, LocalPlayer], work=557*
252: 0x0CEC [0x45] LOAD_SCHEDULED_TASK: Load scheduler "s036" with entities [LocalPlayer, LocalPlayer], work=[557*, 0*]
253: 0x0CFD [0x6E] Justinius (ID: 16883722/0x0101A00A) uses emote 19*
254: 0x0D04 [0x99] Wait for Justinius (ID: 16883722/0x0101A00A) animation to complete
255: 0x0D09 [0x2B] Justinius (ID: 16883722/0x0101A00A) [13165*]:
    → "Understood. Rally the troops. I will contact Jeuno immediately."
256: 0x0D10 [0x23] WAIT_FOR_DIALOG_INTERACTION
257: 0x0D11 [0x66] LOAD_EXT_SCHEDULER_MAIN: Load scheduler "unz0" with entities [Tressia (ID: 16883723/0x0101A00B), Tressia (ID: 16883723/0x0101A00B)], work=11*
258: 0x0D20 [0x2B] Tressia (ID: 16883723/0x0101A00B) [13166*]:
    → "Yessir!"
259: 0x0D27 [0x23] WAIT_FOR_DIALOG_INTERACTION
260: 0x0D28 [0x52] END_LOAD_SCHEDULER: End scheduler "s036" with entities [LocalPlayer, LocalPlayer], work=557*
261: 0x0D37 [0x45] LOAD_SCHEDULED_TASK: Load scheduler "s037" with entities [LocalPlayer, LocalPlayer], work=[557*, 0*]
262: 0x0D48 [0x27] REQ_SET(priority=0x05, entity_id=Justinius (ID: 16883722/0x0101A00A), tag_num=0x34)
263: 0x0D4F [0x1C] WAIT(15* ticks)
264: 0x0D52 [0x27] REQ_SET(priority=0x05, entity_id=Tressia (ID: 16883723/0x0101A00B), tag_num=0x27)
265: 0x0D59 [0x1C] WAIT(120* ticks)
266: 0x0D5C [0x52] END_LOAD_SCHEDULER: End scheduler "s037" with entities [LocalPlayer, LocalPlayer], work=557*
267: 0x0D6B [0x45] LOAD_SCHEDULED_TASK: Load scheduler "s038" with entities [LocalPlayer, LocalPlayer], work=[557*, 0*]
268: 0x0D7C [0x6E] EventEntity uses emote 19*
269: 0x0D83 [0x99] Wait for EventEntity animation to complete
270: 0x0D88 [0x1D] PRINT_EVENT_MESSAGE(message_id=13167*)
    → "But...but...I was supposed to go home! Why does this always happen to me!? <Sigh>"
271: 0x0D8B [0x23] WAIT_FOR_DIALOG_INTERACTION
272: 0x0D8C [0x01] GOTO 0x11FE
273: 0x0D8F [0x5D] SET_MUSIC_VOLUME(volume=0*, fade_time=120*)
274: 0x0D94 [0x2F] Prishe (ID: 16883716/0x0101A004)->Render.Flags0 &= ~0x80000 // Bit 19
275: 0x0D9A [0x4E] SET_ENTITY_HIDE_FLAG: Show Prishe (ID: 16883716/0x0101A004)
276: 0x0DA0 [0x92] Prishe (ID: 16883716/0x0101A004)->Render.Flags3 ^= 0x01
277: 0x0DA6 [0x94] Prishe (ID: 16883716/0x0101A004)->Render.Flags3 ^= 0x01
278: 0x0DAC [0xBA] SET_ENTITY_POSITION(entity_id=Prishe (ID: 16883716/0x0101A004), pos_x=-9.082*, pos_z=121.538*, pos_y=-26.715*, direction=221.0°*)
279: 0x0DB9 [0x80] LOAD_WAIT(entity=Prishe (ID: 16883716/0x0101A004))
280: 0x0DBE [0x5C] MUSIC_CONTROL: Set Idle (Day) music to song 163*
281: 0x0DC2 [0x5C] MUSIC_CONTROL: Set Idle (Night) music to song 163*
282: 0x0DC6 [0x9A] WAIT_MUSIC_SERVER()
283: 0x0DC7 [0x27] REQ_SET(priority=0x05, entity_id=Prishe (ID: 16883716/0x0101A004), tag_num=0x32)
284: 0x0DCE [0x1C] WAIT(30* ticks)
285: 0x0DD1 [0x52] END_LOAD_SCHEDULER: End scheduler "s030" with entities [LocalPlayer, LocalPlayer], work=557*
286: 0x0DE0 [0x45] LOAD_SCHEDULED_TASK: Load scheduler "s031" with entities [LocalPlayer, LocalPlayer], work=[557*, 0*]
287: 0x0DF1 [0x02] IF !(ExtData[1]->WorkLocal[3] == 0*) GOTO 0x0E04
288: 0x0DF9 [0x2B] Prishe (ID: 16883716/0x0101A004) [13113*]:
    → "I'll tell you where I'll put my hooves if you're gonna keep secrets from me!"
289: 0x0E00 [0x23] WAIT_FOR_DIALOG_INTERACTION
290: 0x0E01 [0x01] GOTO 0x0E0C
291: 0x0E04 [0x2B] Prishe (ID: 16883716/0x0101A004) [13114*]:
    → "I knew you could do it, <Player>! No one can come close to matching your awesomeness!"
292: 0x0E0B [0x23] WAIT_FOR_DIALOG_INTERACTION

SUBROUTINE_0E0C:
293: 0x0E0C [0x1E] EventEntity looks at Prishe (ID: 16883716/0x0101A004) and starts talking
294: 0x0E11 [0x1C] WAIT(30* ticks)
295: 0x0E14 [0x4A] LocalPlayer looks at Prishe (ID: 16883716/0x0101A004)
296: 0x0E1D [0x1D] PRINT_EVENT_MESSAGE(message_id=13115*)
    → "Misareaux mantraps! Who might you be!?"
297: 0x0E20 [0x23] WAIT_FOR_DIALOG_INTERACTION
298: 0x0E21 [0x2A] GET_REQ_LEVEL(level=5, entity_id=Prishe (ID: 16883716/0x0101A004))
299: 0x0E27 [0x52] END_LOAD_SCHEDULER: End scheduler "s031" with entities [LocalPlayer, LocalPlayer], work=557*
300: 0x0E36 [0x45] LOAD_SCHEDULED_TASK: Load scheduler "s039" with entities [LocalPlayer, LocalPlayer], work=[557*, 0*]
301: 0x0E47 [0x4A] Prishe (ID: 16883716/0x0101A004) looks at LocalPlayer
302: 0x0E50 [0x1C] WAIT(15* ticks)
303: 0x0E53 [0x02] IF !(ExtData[1]->WorkLocal[3] == 0*) GOTO 0x0E84
304: 0x0E5B [0x5B] LOAD_EXT_SCHEDULER: Load scheduler "std0" with entities [Prishe (ID: 16883716/0x0101A004), Prishe (ID: 16883716/0x0101A004)], work=479*
305: 0x0E6A [0x2B] Prishe (ID: 16883716/0x0101A004) [13116*]:
    → "I see you're at it again, <Player>. We all know how powerful you are, so how about throwing the patrol a bone every once in a while? We're dying for some good press!"
306: 0x0E71 [0x23] WAIT_FOR_DIALOG_INTERACTION
307: 0x0E72 [0x5B] LOAD_EXT_SCHEDULER: Load scheduler "std1" with entities [Prishe (ID: 16883716/0x0101A004), Prishe (ID: 16883716/0x0101A004)], work=479*
308: 0x0E81 [0x01] GOTO 0x0E9B
309: 0x0E84 [0x5B] LOAD_EXT_SCHEDULER: Load scheduler "tlc0" with entities [Prishe (ID: 16883716/0x0101A004), Prishe (ID: 16883716/0x0101A004)], work=475*
310: 0x0E93 [0x2B] Prishe (ID: 16883716/0x0101A004) [13117*]:
    → "Justinius has told me all about your exploits. You're always there for Tavnazia when it needs you, <Player>. Thanks."
311: 0x0E9A [0x23] WAIT_FOR_DIALOG_INTERACTION

SUBROUTINE_0E9B:
312: 0x0E9B [0x52] END_LOAD_SCHEDULER: End scheduler "s039" with entities [LocalPlayer, LocalPlayer], work=557*
313: 0x0EAA [0x45] LOAD_SCHEDULED_TASK: Load scheduler "s040" with entities [LocalPlayer, LocalPlayer], work=[557*, 0*]
314: 0x0EBB [0x02] IF !(ExtData[1]->WorkLocal[3] == 0*) GOTO 0x0EF4
315: 0x0EC3 [0x2B] Prishe (ID: 16883716/0x0101A004) [13118*]:
    → "Although, I guess it should only be a matter of time before we get our due, what with all the Voidwalkers crawling around Tavnazia lately."
316: 0x0ECA [0x23] WAIT_FOR_DIALOG_INTERACTION
317: 0x0ECB [0x5B] LOAD_EXT_SCHEDULER: Load scheduler "tla0" with entities [Prishe (ID: 16883716/0x0101A004), Prishe (ID: 16883716/0x0101A004)], work=475*
318: 0x0EDA [0x2B] Prishe (ID: 16883716/0x0101A004) [13120*]:
    → "Just you wait! We'll cut down so many of those mystical invaders that...well, there won't be any left for you!"
319: 0x0EE1 [0x23] WAIT_FOR_DIALOG_INTERACTION
320: 0x0EE2 [0x5B] LOAD_EXT_SCHEDULER: Load scheduler "tla1" with entities [Prishe (ID: 16883716/0x0101A004), Prishe (ID: 16883716/0x0101A004)], work=475*
321: 0x0EF1 [0x01] GOTO 0x0F13
322: 0x0EF4 [0x2B] Prishe (ID: 16883716/0x0101A004) [13119*]:
    → "But Voidwalkers tend to reappear like maggots on meat, right?"
323: 0x0EFB [0x23] WAIT_FOR_DIALOG_INTERACTION
324: 0x0EFC [0x2B] Prishe (ID: 16883716/0x0101A004) [13121*]:
    → "Maybe this's the Tavnazian Patrol's chance to get some good press of our own!"
325: 0x0F03 [0x23] WAIT_FOR_DIALOG_INTERACTION
326: 0x0F04 [0x5B] LOAD_EXT_SCHEDULER: Load scheduler "tlc1" with entities [Prishe (ID: 16883716/0x0101A004), Prishe (ID: 16883716/0x0101A004)], work=475*

SUBROUTINE_0F13:
327: 0x0F13 [0x2F] Ulmia (ID: 16883715/0x0101A003)->Render.Flags0 &= ~0x80000 // Bit 19
328: 0x0F19 [0x4E] SET_ENTITY_HIDE_FLAG: Show Ulmia (ID: 16883715/0x0101A003)
329: 0x0F1F [0x92] Ulmia (ID: 16883715/0x0101A003)->Render.Flags3 ^= 0x01
330: 0x0F25 [0x94] Ulmia (ID: 16883715/0x0101A003)->Render.Flags3 ^= 0x01
331: 0x0F2B [0xBA] SET_ENTITY_POSITION(entity_id=Ulmia (ID: 16883715/0x0101A003), pos_x=-18.129*, pos_z=116.643*, pos_y=-27.636*, direction=30.8°*)
332: 0x0F38 [0x80] LOAD_WAIT(entity=Ulmia (ID: 16883715/0x0101A003))
333: 0x0F3D [0x4A] Ulmia (ID: 16883715/0x0101A003) looks at Prishe (ID: 16883716/0x0101A004)
334: 0x0F46 [0x1C] WAIT(30* ticks)
335: 0x0F49 [0x5B] LOAD_EXT_SCHEDULER: Load scheduler "ma00" with entities [Ulmia (ID: 16883715/0x0101A003), Ulmia (ID: 16883715/0x0101A003)], work=738*
336: 0x0F58 [0x1C] WAIT(5* ticks)
337: 0x0F5B [0x5B] LOAD_EXT_SCHEDULER: Load scheduler "ma01" with entities [Ulmia (ID: 16883715/0x0101A003), Ulmia (ID: 16883715/0x0101A003)], work=738*
338: 0x0F6A [0x52] END_LOAD_SCHEDULER: End scheduler "s040" with entities [LocalPlayer, LocalPlayer], work=557*
339: 0x0F79 [0x45] LOAD_SCHEDULED_TASK: Load scheduler "s041" with entities [LocalPlayer, LocalPlayer], work=[557*, 0*]
340: 0x0F8A [0x2B] Ulmia (ID: 16883715/0x0101A003) [13122*]:
    → "Prishe! This is hardly the time to be engaging in idle chatter! Your studies await!"
341: 0x0F91 [0x23] WAIT_FOR_DIALOG_INTERACTION
342: 0x0F92 [0x52] END_LOAD_SCHEDULER: End scheduler "s041" with entities [LocalPlayer, LocalPlayer], work=557*
343: 0x0FA1 [0x45] LOAD_SCHEDULED_TASK: Load scheduler "s042" with entities [LocalPlayer, LocalPlayer], work=[557*, 0*]
344: 0x0FB2 [0x4A] Prishe (ID: 16883716/0x0101A004) looks at Ulmia (ID: 16883715/0x0101A003)
345: 0x0FBB [0x1C] WAIT(30* ticks)
346: 0x0FBE [0x6B] STOP_AND_IDLE: Ulmia (ID: 16883715/0x0101A003) stops current action and resets to idle (animation="idl0")
347: 0x0FC7 [0x02] IF !(ExtData[1]->WorkLocal[3] == 0*) GOTO 0x0FDA
348: 0x0FCF [0x2B] Prishe (ID: 16883716/0x0101A004) [13123*]:
    → "Yikes! For crying out loud, Ulmia, you've become more of a curmudgeon than Despachiaire!"
349: 0x0FD6 [0x23] WAIT_FOR_DIALOG_INTERACTION
350: 0x0FD7 [0x01] GOTO 0x0FEE
351: 0x0FDA [0x7C] Prishe (ID: 16883716/0x0101A004)->Render.Flags2 |= 0x00
352: 0x0FE0 [0x2B] Prishe (ID: 16883716/0x0101A004) [13124*]:
    → "Ulmia!"
353: 0x0FE7 [0x23] WAIT_FOR_DIALOG_INTERACTION
354: 0x0FE8 [0x7C] Prishe (ID: 16883716/0x0101A004)->Render.Flags2 |= 0x01

SUBROUTINE_0FEE:
355: 0x0FEE [0x55] WAIT_LOAD_SCHEDULER: Wait for scheduler "s042" with entities [LocalPlayer, LocalPlayer], work=557*
356: 0x0FFD [0x45] LOAD_SCHEDULED_TASK: Load scheduler "s043" with entities [LocalPlayer, LocalPlayer], work=[557*, 0*]
357: 0x100E [0x4A] Prishe (ID: 16883716/0x0101A004) looks at LocalPlayer
358: 0x1017 [0xBA] SET_ENTITY_POSITION(entity_id=Ulmia (ID: 16883715/0x0101A003), pos_x=-15.470*, pos_z=121.272*, pos_y=-26.786*, direction=30.8°*)
359: 0x1024 [0x7B] Ulmia (ID: 16883715/0x0101A003) stops talking
360: 0x1029 [0x1C] WAIT(30* ticks)
361: 0x102C [0x02] IF !(ExtData[1]->WorkLocal[3] == 0*) GOTO 0x103F
362: 0x1034 [0x2B] Prishe (ID: 16883716/0x0101A004) [13125*]:
    → "Anyway, <Player>, I'll see you later!"
363: 0x103B [0x23] WAIT_FOR_DIALOG_INTERACTION
364: 0x103C [0x01] GOTO 0x1047
365: 0x103F [0x2B] Prishe (ID: 16883716/0x0101A004) [13126*]:
    → "I guess I've been corralled... See you around."
366: 0x1046 [0x23] WAIT_FOR_DIALOG_INTERACTION

SUBROUTINE_1047:
367: 0x1047 [0x52] END_LOAD_SCHEDULER: End scheduler "s043" with entities [LocalPlayer, LocalPlayer], work=557*
368: 0x1056 [0x45] LOAD_SCHEDULED_TASK: Load scheduler "s044" with entities [LocalPlayer, LocalPlayer], work=[557*, 0*]
369: 0x1067 [0x27] REQ_SET(priority=0x05, entity_id=Prishe (ID: 16883716/0x0101A004), tag_num=0x33)
370: 0x106E [0x1C] WAIT(20* ticks)
371: 0x1071 [0x27] REQ_SET(priority=0x05, entity_id=Ulmia (ID: 16883715/0x0101A003), tag_num=0x25)
372: 0x1078 [0x1C] WAIT(100* ticks)
373: 0x107B [0x5D] SET_MUSIC_VOLUME(volume=0*, fade_time=120*)
374: 0x1080 [0x52] END_LOAD_SCHEDULER: End scheduler "s044" with entities [LocalPlayer, LocalPlayer], work=557*
375: 0x108F [0x45] LOAD_SCHEDULED_TASK: Load scheduler "s045" with entities [LocalPlayer, LocalPlayer], work=[557*, 0*]
376: 0x10A0 [0x2B] Ulmia (ID: 16883715/0x0101A003) [13127*]:
    → "That girl..."
377: 0x10A7 [0x23] WAIT_FOR_DIALOG_INTERACTION
378: 0x10A8 [0x5C] MUSIC_CONTROL: Set Idle (Day) music to song 124*
379: 0x10AC [0x5C] MUSIC_CONTROL: Set Idle (Night) music to song 124*
380: 0x10B0 [0x9A] WAIT_MUSIC_SERVER()
381: 0x10B1 [0x52] END_LOAD_SCHEDULER: End scheduler "s045" with entities [LocalPlayer, LocalPlayer], work=557*
382: 0x10C0 [0x45] LOAD_SCHEDULED_TASK: Load scheduler "s046" with entities [LocalPlayer, LocalPlayer], work=[557*, 0*]
383: 0x10D1 [0x4A] Ulmia (ID: 16883715/0x0101A003) looks at LocalPlayer
384: 0x10DA [0x1C] WAIT(30* ticks)
385: 0x10DD [0x4A] LocalPlayer looks at Ulmia (ID: 16883715/0x0101A003)
386: 0x10E6 [0x5B] LOAD_EXT_SCHEDULER: Load scheduler "tla0" with entities [Ulmia (ID: 16883715/0x0101A003), Ulmia (ID: 16883715/0x0101A003)], work=420*
387: 0x10F5 [0x2B] Ulmia (ID: 16883715/0x0101A003) [13128*]:
    → "It's wonderful to see you in such high spirits, <Player>. I always knew in my heart of hearts that we would meet again."
388: 0x10FC [0x23] WAIT_FOR_DIALOG_INTERACTION
389: 0x10FD [0x52] END_LOAD_SCHEDULER: End scheduler "s046" with entities [LocalPlayer, LocalPlayer], work=557*
390: 0x110C [0x45] LOAD_SCHEDULED_TASK: Load scheduler "s047" with entities [LocalPlayer, LocalPlayer], work=[557*, 0*]
391: 0x111D [0x2B] Ulmia (ID: 16883715/0x0101A003) [13129*]:
    → "As you can see, Prishe is as lively as she's ever been."
392: 0x1124 [0x23] WAIT_FOR_DIALOG_INTERACTION
393: 0x1125 [0x2B] Ulmia (ID: 16883715/0x0101A003) [13130*]:
    → "Who knows where she, I, and all of Tavnazia would be without you, <Player>. Please return to visit us again sometime. Preferably after Prishe's lessons are finished."
394: 0x112C [0x23] WAIT_FOR_DIALOG_INTERACTION
395: 0x112D [0x5B] LOAD_EXT_SCHEDULER: Load scheduler "tla1" with entities [Ulmia (ID: 16883715/0x0101A003), Ulmia (ID: 16883715/0x0101A003)], work=420*
396: 0x113C [0x52] END_LOAD_SCHEDULER: End scheduler "s047" with entities [LocalPlayer, LocalPlayer], work=557*
397: 0x114B [0x45] LOAD_SCHEDULED_TASK: Load scheduler "s048" with entities [LocalPlayer, LocalPlayer], work=[557*, 0*]
398: 0x115C [0x1C] WAIT(30* ticks)
399: 0x115F [0x27] REQ_SET(priority=0x05, entity_id=Ulmia (ID: 16883715/0x0101A003), tag_num=0x26)
400: 0x1166 [0x1C] WAIT(120* ticks)
401: 0x1169 [0x5D] SET_MUSIC_VOLUME(volume=0*, fade_time=120*)
402: 0x116E [0x52] END_LOAD_SCHEDULER: End scheduler "s048" with entities [LocalPlayer, LocalPlayer], work=557*
403: 0x117D [0x45] LOAD_SCHEDULED_TASK: Load scheduler "s049" with entities [LocalPlayer, LocalPlayer], work=[557*, 0*]
404: 0x118E [0x02] IF !(ExtData[1]->WorkLocal[1] == 0*) GOTO 0x11A7
405: 0x1196 [0x79] EventEntity looks at LocalPlayer (Basic look)
406: 0x11A0 [0x1D] PRINT_EVENT_MESSAGE(message_id=13131*)
    → "...Well, well, well. I should have known that being an adventurer is about having gil and [dames/beaus] scattered all over the realm."
407: 0x11A3 [0x23] WAIT_FOR_DIALOG_INTERACTION
408: 0x11A4 [0x01] GOTO 0x11BA
409: 0x11A7 [0x02] IF !(ExtData[1]->WorkLocal[3] == 0*) GOTO 0x11B6
410: 0x11AF [0x1D] PRINT_EVENT_MESSAGE(message_id=13132*)
    → "...Phew, what a relief that's over. I've withstood tempest gales with less destructive power than that diminutive rapscallion she tutors."
411: 0x11B2 [0x23] WAIT_FOR_DIALOG_INTERACTION
412: 0x11B3 [0x01] GOTO 0x11BA
413: 0x11B6 [0x1D] PRINT_EVENT_MESSAGE(message_id=13133*)
    → "That diminutive girl was Prishe, correct? Perhaps all the rumors were all simply...rumors."
414: 0x11B9 [0x23] WAIT_FOR_DIALOG_INTERACTION

SUBROUTINE_11BA:
415: 0x11BA [0x5C] MUSIC_CONTROL: Set Idle (Day) music to song 245*
416: 0x11BE [0x5C] MUSIC_CONTROL: Set Idle (Night) music to song 245*
417: 0x11C2 [0x9A] WAIT_MUSIC_SERVER()
418: 0x11C3 [0x52] END_LOAD_SCHEDULER: End scheduler "s049" with entities [LocalPlayer, LocalPlayer], work=557*
419: 0x11D2 [0x45] LOAD_SCHEDULED_TASK: Load scheduler "s050" with entities [LocalPlayer, LocalPlayer], work=[557*, 0*]
420: 0x11E3 [0x1E] EventEntity looks at LocalPlayer and starts talking
421: 0x11E8 [0x1C] WAIT(30* ticks)
422: 0x11EB [0x66] LOAD_EXT_SCHEDULER_MAIN: Load scheduler "tlk0" with entities [EventEntity, EventEntity], work=9*
423: 0x11FA [0x1D] PRINT_EVENT_MESSAGE(message_id=13134*)
    → "Well, you have my thanks for a job well done. I highly doubt you'll be receiving any accolades from the uncouth citizens of this cesspool, but I shall make sure word of your tremendous deeds reaches Jeuno."
424: 0x11FD [0x23] WAIT_FOR_DIALOG_INTERACTION

SUBROUTINE_11FE:
425: 0x11FE [0x01] GOTO 0x1201

SUBROUTINE_1201:
426: 0x1201 [0x45] LOAD_SCHEDULED_TASK: Load scheduler "fdo2" with entities [EventEntity, EventEntity], work=[200*, 0*]
427: 0x1212 [0x55] WAIT_LOAD_SCHEDULER: Wait for scheduler "fdo2" with entities [EventEntity, EventEntity], work=200*
428: 0x1221 [0x52] END_LOAD_SCHEDULER: End scheduler "s017" with entities [LocalPlayer, LocalPlayer], work=557*
429: 0x1230 [0x52] END_LOAD_SCHEDULER: End scheduler "s024" with entities [LocalPlayer, LocalPlayer], work=557*
430: 0x123F [0x52] END_LOAD_SCHEDULER: End scheduler "s025" with entities [LocalPlayer, LocalPlayer], work=557*
431: 0x124E [0x52] END_LOAD_SCHEDULER: End scheduler "s026" with entities [LocalPlayer, LocalPlayer], work=557*
432: 0x125D [0x52] END_LOAD_SCHEDULER: End scheduler "s038" with entities [LocalPlayer, LocalPlayer], work=557*
433: 0x126C [0x52] END_LOAD_SCHEDULER: End scheduler "s050" with entities [LocalPlayer, LocalPlayer], work=557*
434: 0x127B [0x46] CAMERA_CONTROL: Restore default settings
435: 0x127D [0x45] LOAD_SCHEDULED_TASK: Load scheduler "fdi2" with entities [LocalPlayer, LocalPlayer], work=[200*, 0*]
436: 0x128E [0x21] END_EVENT
437: 0x128F [0x00] END_REQSTACK()
```

#### Data or dead code:

```
# Dead code (unreachable instructions):
     0x1290 [0x21] END_EVENT
     0x1291 [0x00] END_REQSTACK()
```

### Event 630

#### Metadata

