# 16883725 - Mengrenaux

## Common Data

| Field            | Value                       |
|------------------|-----------------------------|
| Zone             | Tavnazian Safehold (ID: 26) |
| Block Size       | 944 bytes                   |
| Total Events     | 31                          |
| References Count | 55                          |

## List of Events

| Event ID                 | Entrypoint   |   Size |   Instructions |
|--------------------------|--------------|--------|----------------|
| [65535](#event-65535)    | 0x0000       |      1 |              1 |
| [101](#event-101)        | 0x0001       |     16 |              3 |
| [105](#event-105)        | 0x0011       |      7 |              2 |
| [65535.1](#event-655351) | 0x0018       |     10 |              2 |
| [107](#event-107)        | 0x0022       |      7 |              2 |
| [65535.2](#event-655352) | 0x0029       |     20 |              3 |
| [270](#event-270)        | 0x003D       |     49 |             11 |
| [271](#event-271)        | 0x006E       |     30 |              8 |
| [272](#event-272)        | 0x008C       |     49 |             11 |
| [273](#event-273)        | 0x00BD       |     30 |              8 |
| [274](#event-274)        | 0x00DB       |     30 |              8 |
| [512](#event-512)        | 0x00F9       |      1 |              1 |
| [513](#event-513)        | 0x00FA       |      1 |              1 |
| [544](#event-544)        | 0x00FB       |      1 |              1 |
| [65535.3](#event-655353) | 0x00FC       |     16 |              5 |
| [546](#event-546)        | 0x010C       |     46 |             14 |
| [549](#event-549)        | 0x013A       |      1 |              1 |
| [65535.4](#event-655354) | 0x013B       |     10 |              2 |
| [557](#event-557)        | 0x0145       |      1 |              1 |
| [65535.5](#event-655355) | 0x0146       |     16 |              5 |
| [568](#event-568)        | 0x0156       |      1 |              1 |
| [569](#event-569)        | 0x0157       |      1 |              1 |
| [560](#event-560)        | 0x0158       |    150 |             31 |
| [565](#event-565)        | 0x01EE       |      1 |              1 |
| [567](#event-567)        | 0x01EF       |      1 |              1 |
| [558](#event-558)        | 0x01F0       |      1 |              1 |
| [65535.6](#event-655356) | 0x01F1       |     13 |              3 |
| [65535.7](#event-655357) | 0x01FE       |     14 |              4 |
| [563](#event-563)        | 0x020C       |     13 |              7 |
| [561](#event-561)        | 0x0219       |      1 |              1 |
| [580](#event-580)        | 0x021A       |     46 |             10 |

## DAT References (imed_data)

|   Index | Hex Value   |   Dec Value |
|---------|-------------|-------------|
|       0 | 0xFFFFE9AB  |  4294961579 |
|       1 | 0x1D0FE     |      119038 |
|       2 | 0xFFFF9600  |  4294940160 |
|       3 | 0x09ED      |        2541 |
|       4 | 0xFFFFFD11  |  4294966545 |
|       5 | 0x8614      |       34324 |
|       6 | 0xFFFFA434  |  4294943796 |
|       7 | 0x0369      |         873 |
|       8 | 0x10B0      |        4272 |
|       9 | 0xFFFFFBBA  |  4294966202 |
|      10 | 0xFFFFDCE4  |  4294958308 |
|      11 | 0x064D      |        1613 |
|      12 | 0x2ADF      |       10975 |
|      13 | 0x001D      |          29 |
|      14 | 0x2AE0      |       10976 |
|      15 | 0x2AE1      |       10977 |
|      16 | 0x2AE2      |       10978 |
|      17 | 0x2AE3      |       10979 |
|      18 | 0x2AE4      |       10980 |
|      19 | 0x2AE5      |       10981 |
|      20 | 0x2AE6      |       10982 |
|      21 | 0x2AE7      |       10983 |
|      22 | 0x2AE8      |       10984 |
|      23 | 0x2AE9      |       10985 |
|      24 | 0x2AEA      |       10986 |
|      25 | 0x000D      |          13 |
|      26 | 0x13BDD     |       80861 |
|      27 | 0xFE27      |       65063 |
|      28 | 0xFFFF7B40  |  4294933312 |
|      29 | 0x2D97      |       11671 |
|      30 | 0x0000      |           0 |
|      31 | 0x2D98      |       11672 |
|      32 | 0x0001      |           1 |
|      33 | 0x2D99      |       11673 |
|      34 | 0x147C9     |       83913 |
|      35 | 0xFEEA      |       65258 |
|      36 | 0xFFFF7B47  |  4294933319 |
|      37 | 0x0818      |        2072 |
|      38 | 0x14F6D     |       85869 |
|      39 | 0x10451     |       66641 |
|      40 | 0xFFFF7B3E  |  4294933310 |
|      41 | 0x2DDE      |       11742 |
|      42 | 0x0002      |           2 |
|      43 | 0x2DDF      |       11743 |
|      44 | 0xFFFFFB52  |  4294966098 |
|      45 | 0x2F9D      |       12189 |
|      46 | 0xFFFFA94B  |  4294945099 |
|      47 | 0x024D      |         589 |
|      48 | 0xFFFFFAFA  |  4294966010 |
|      49 | 0x25C7      |        9671 |
|      50 | 0xFFFFA999  |  4294945177 |
|      51 | 0x2E13      |       11795 |
|      52 | 0x0014      |          20 |
|      53 | 0x2DF0      |       11760 |
|      54 | 0x003C      |          60 |

## String References

- **10975**: You'd better have a look around the safehold while you can, because when our boss gets back, you might not be left with any legs to stand on.
- **10976**: No, I'm not talking about Justinius. Sure, he's the captain of the Tavnazian Patrol, but all final calls are made by the boss.
- **10977**: You'll see... Heh heh heh...
- **10978**: Huh. Still standing, I see. I thought Prishe would have whipped you into a pile of crimson jelly by now.
- **10979**: I don't know what the boss sees in you, but I'm not one to question her judgment.
- **10980**: The safehold elder has been calling Prishe "the abhorrent one" since I was knee-high to a bugard's eye.
- **10981**: I never actually knew what he was trying to say...
- **10982**: Come to think of it, I don't even know what "abhorrent" means!
- **10983**: You're going to save the boss, right!?
- **10984**: I didn't think much of you before, and to tell you the truth, I don't think much of you now. But there is one thing I do know, and that is if anybody can help Prishe, it's you!
- **10985**: I knew you could do it! I never doubted you for a minute! Hey, why don't you join the Tavnazian Patrol? I'd be honored to have a fine [man/woman] like you working under me.
- **10986**: Hm? You're not done with your journey yet? You adventurers have it hard, don't you?
- **11671**: Read the thief's letter? [Let me at it!/A thief? Too scary...]
- **11672**: "I'm coming for your treasure at midnight tonight. -Miledo-Shiraddo, Thief Extraordinaire"
- **11673**: We'll collect information too. I won't let an outsider like you take all the glory.
- **11742**: Take a look at my reports? [Report 1./Report 2./Not interested.]
- **11743**: Well then, good luck.
- **11760**: It is quite a coincidence that both Wazozo and the suspicious boy were seen in the same places.
- **11795**: To tell the truth, I'm a closet fan of Miledo-Shiraddo... I'd love to have adventures like that too...

## Events

### Event 65535

#### Metadata

| Field        | Value   |
|--------------|---------|
| Entrypoint   | 0x0000  |
| Data Size    | 1 bytes |
| Instructions | 1       |

```
      00 01 02 03 04 05 06 07  08 09 0A 0B 0C 0D 0E 0F
      -- -- -- -- -- -- -- --  -- -- -- -- -- -- -- --
0000: 00                                                .               
```

#### Opcodes

```
  0: 0x0000 [0x00] END_REQSTACK()
```

### Event 101

#### Metadata

| Field        | Value    |
|--------------|----------|
| Entrypoint   | 0x0001   |
| Data Size    | 16 bytes |
| Instructions | 3        |

```
      00 01 02 03 04 05 06 07  08 09 0A 0B 0C 0D 0E 0F
      -- -- -- -- -- -- -- --  -- -- -- -- -- -- -- --
0000:    92 01 F8 FF FF 7F 37  00 80 01 80 02 80 03 80   ......7........
0010: 00                                                .               
```

#### Opcodes

```
  0: 0x0001 [0x92] EventEntity->Render.Flags3 ^= 0x01
  1: 0x0007 [0x37] UPDATE_EVENT_POSITION_AND_DIR: x=-5.717*, z=119.038*, y=-27.136*, direction=223.3°*
  2: 0x0010 [0x00] END_REQSTACK()
```

### Event 105

#### Metadata

| Field        | Value   |
|--------------|---------|
| Entrypoint   | 0x0011  |
| Data Size    | 7 bytes |
| Instructions | 2       |

```
      00 01 02 03 04 05 06 07  08 09 0A 0B 0C 0D 0E 0F
      -- -- -- -- -- -- -- --  -- -- -- -- -- -- -- --
0010:    92 01 F8 FF FF 7F 00                            .......        
```

#### Opcodes

```
  0: 0x0011 [0x92] EventEntity->Render.Flags3 ^= 0x01
  1: 0x0017 [0x00] END_REQSTACK()
```

### Event 65535.1

#### Metadata

| Field        | Value    |
|--------------|----------|
| Entrypoint   | 0x0018   |
| Data Size    | 10 bytes |
| Instructions | 2        |

```
      00 01 02 03 04 05 06 07  08 09 0A 0B 0C 0D 0E 0F
      -- -- -- -- -- -- -- --  -- -- -- -- -- -- -- --
0010:                          37 04 80 05 80 06 80 07          7.......
0020: 80 00                                             ..              
```

#### Opcodes

```
  0: 0x0018 [0x37] UPDATE_EVENT_POSITION_AND_DIR: x=-0.751*, z=34.324*, y=-23.500*, direction=76.7°*
  1: 0x0021 [0x00] END_REQSTACK()
```

### Event 107

#### Metadata

| Field        | Value   |
|--------------|---------|
| Entrypoint   | 0x0022  |
| Data Size    | 7 bytes |
| Instructions | 2       |

```
      00 01 02 03 04 05 06 07  08 09 0A 0B 0C 0D 0E 0F
      -- -- -- -- -- -- -- --  -- -- -- -- -- -- -- --
0020:       92 01 F8 FF FF 7F  00                         .......       
```

#### Opcodes

```
  0: 0x0022 [0x92] EventEntity->Render.Flags3 ^= 0x01
  1: 0x0028 [0x00] END_REQSTACK()
```

### Event 65535.2

#### Metadata

| Field        | Value    |
|--------------|----------|
| Entrypoint   | 0x0029   |
| Data Size    | 20 bytes |
| Instructions | 3        |

```
      00 01 02 03 04 05 06 07  08 09 0A 0B 0C 0D 0E 0F
      -- -- -- -- -- -- -- --  -- -- -- -- -- -- -- --
0020:                             79 00 F8 FF FF 7F 04           y......
0030: A0 01 01 37 08 80 09 80  0A 80 0B 80 00           ...7.........   
```

#### Opcodes

```
  0: 0x0029 [0x79] EventEntity looks at Prishe (ID: 16883716/0x0101A004) (Basic look)
  1: 0x0033 [0x37] UPDATE_EVENT_POSITION_AND_DIR: x=4.272*, z=-1.094*, y=-8.988*, direction=141.8°*
  2: 0x003C [0x00] END_REQSTACK()
```

### Event 270

#### Metadata

| Field        | Value    |
|--------------|----------|
| Entrypoint   | 0x003D   |
| Data Size    | 49 bytes |
| Instructions | 11       |

```
      00 01 02 03 04 05 06 07  08 09 0A 0B 0C 0D 0E 0F
      -- -- -- -- -- -- -- --  -- -- -- -- -- -- -- --
0030:                                         1E F0 FF               ...
0040: FF 7F 1D 0C 80 23 66 0D  80 F8 FF FF 7F F8 FF FF  .....#f.........
0050: 7F 74 77 61 30 1D 0E 80  23 66 0D 80 F8 FF FF 7F  .twa0...#f......
0060: F8 FF FF 7F 74 77 61 31  1D 0F 80 23 21 00        ....twa1...#!.  
```

#### Opcodes

```
  0: 0x003D [0x1E] EventEntity looks at LocalPlayer and starts talking
  1: 0x0042 [0x1D] PRINT_EVENT_MESSAGE(message_id=10975*)
    → "You'd better have a look around the safehold while you can, because when our boss gets back, you might not be left with any legs to stand on."
  2: 0x0045 [0x23] WAIT_FOR_DIALOG_INTERACTION
  3: 0x0046 [0x66] LOAD_EXT_SCHEDULER_MAIN: Load scheduler "twa0" with entities [EventEntity, EventEntity], work=29*
  4: 0x0055 [0x1D] PRINT_EVENT_MESSAGE(message_id=10976*)
    → "No, I'm not talking about Justinius. Sure, he's the captain of the Tavnazian Patrol, but all final calls are made by the boss."
  5: 0x0058 [0x23] WAIT_FOR_DIALOG_INTERACTION
  6: 0x0059 [0x66] LOAD_EXT_SCHEDULER_MAIN: Load scheduler "twa1" with entities [EventEntity, EventEntity], work=29*
  7: 0x0068 [0x1D] PRINT_EVENT_MESSAGE(message_id=10977*)
    → "You'll see... Heh heh heh..."
  8: 0x006B [0x23] WAIT_FOR_DIALOG_INTERACTION
  9: 0x006C [0x21] END_EVENT
 10: 0x006D [0x00] END_REQSTACK()
```

### Event 271

#### Metadata

| Field        | Value    |
|--------------|----------|
| Entrypoint   | 0x006E   |
| Data Size    | 30 bytes |
| Instructions | 8        |

```
      00 01 02 03 04 05 06 07  08 09 0A 0B 0C 0D 0E 0F
      -- -- -- -- -- -- -- --  -- -- -- -- -- -- -- --
0060:                                            1E F0                ..
0070: FF FF 7F 1D 10 80 23 66  0D 80 F8 FF FF 7F F8 FF  ......#f........
0080: FF 7F 74 6C 6B 30 1D 11  80 23 21 00              ..tlk0...#!.    
```

#### Opcodes

```
  0: 0x006E [0x1E] EventEntity looks at LocalPlayer and starts talking
  1: 0x0073 [0x1D] PRINT_EVENT_MESSAGE(message_id=10978*)
    → "Huh. Still standing, I see. I thought Prishe would have whipped you into a pile of crimson jelly by now."
  2: 0x0076 [0x23] WAIT_FOR_DIALOG_INTERACTION
  3: 0x0077 [0x66] LOAD_EXT_SCHEDULER_MAIN: Load scheduler "tlk0" with entities [EventEntity, EventEntity], work=29*
  4: 0x0086 [0x1D] PRINT_EVENT_MESSAGE(message_id=10979*)
    → "I don't know what the boss sees in you, but I'm not one to question her judgment."
  5: 0x0089 [0x23] WAIT_FOR_DIALOG_INTERACTION
  6: 0x008A [0x21] END_EVENT
  7: 0x008B [0x00] END_REQSTACK()
```

### Event 272

#### Metadata

| Field        | Value    |
|--------------|----------|
| Entrypoint   | 0x008C   |
| Data Size    | 49 bytes |
| Instructions | 11       |

```
      00 01 02 03 04 05 06 07  08 09 0A 0B 0C 0D 0E 0F
      -- -- -- -- -- -- -- --  -- -- -- -- -- -- -- --
0080:                                      1E F0 FF FF              ....
0090: 7F 1D 12 80 23 66 0D 80  F8 FF FF 7F F8 FF FF 7F  ....#f..........
00A0: 74 77 62 30 1D 13 80 23  66 0D 80 F8 FF FF 7F F8  twb0...#f.......
00B0: FF FF 7F 74 77 62 31 1D  14 80 23 21 00           ...twb1...#!.   
```

#### Opcodes

```
  0: 0x008C [0x1E] EventEntity looks at LocalPlayer and starts talking
  1: 0x0091 [0x1D] PRINT_EVENT_MESSAGE(message_id=10980*)
    → "The safehold elder has been calling Prishe "the abhorrent one" since I was knee-high to a bugard's eye."
  2: 0x0094 [0x23] WAIT_FOR_DIALOG_INTERACTION
  3: 0x0095 [0x66] LOAD_EXT_SCHEDULER_MAIN: Load scheduler "twb0" with entities [EventEntity, EventEntity], work=29*
  4: 0x00A4 [0x1D] PRINT_EVENT_MESSAGE(message_id=10981*)
    → "I never actually knew what he was trying to say..."
  5: 0x00A7 [0x23] WAIT_FOR_DIALOG_INTERACTION
  6: 0x00A8 [0x66] LOAD_EXT_SCHEDULER_MAIN: Load scheduler "twb1" with entities [EventEntity, EventEntity], work=29*
  7: 0x00B7 [0x1D] PRINT_EVENT_MESSAGE(message_id=10982*)
    → "Come to think of it, I don't even know what "abhorrent" means!"
  8: 0x00BA [0x23] WAIT_FOR_DIALOG_INTERACTION
  9: 0x00BB [0x21] END_EVENT
 10: 0x00BC [0x00] END_REQSTACK()
```

### Event 273

#### Metadata

| Field        | Value    |
|--------------|----------|
| Entrypoint   | 0x00BD   |
| Data Size    | 30 bytes |
| Instructions | 8        |

```
      00 01 02 03 04 05 06 07  08 09 0A 0B 0C 0D 0E 0F
      -- -- -- -- -- -- -- --  -- -- -- -- -- -- -- --
00B0:                                         1E F0 FF               ...
00C0: FF 7F 1D 15 80 23 66 0D  80 F8 FF FF 7F F8 FF FF  .....#f.........
00D0: 7F 74 6C 6B 30 1D 16 80  23 21 00                 .tlk0...#!.     
```

#### Opcodes

```
  0: 0x00BD [0x1E] EventEntity looks at LocalPlayer and starts talking
  1: 0x00C2 [0x1D] PRINT_EVENT_MESSAGE(message_id=10983*)
    → "You're going to save the boss, right!?"
  2: 0x00C5 [0x23] WAIT_FOR_DIALOG_INTERACTION
  3: 0x00C6 [0x66] LOAD_EXT_SCHEDULER_MAIN: Load scheduler "tlk0" with entities [EventEntity, EventEntity], work=29*
  4: 0x00D5 [0x1D] PRINT_EVENT_MESSAGE(message_id=10984*)
    → "I didn't think much of you before, and to tell you the truth, I don't think much of you now. But there is one thing I do know, and that is if anybody can help Prishe, it's you!"
  5: 0x00D8 [0x23] WAIT_FOR_DIALOG_INTERACTION
  6: 0x00D9 [0x21] END_EVENT
  7: 0x00DA [0x00] END_REQSTACK()
```

### Event 274

#### Metadata

| Field        | Value    |
|--------------|----------|
| Entrypoint   | 0x00DB   |
| Data Size    | 30 bytes |
| Instructions | 8        |

```
      00 01 02 03 04 05 06 07  08 09 0A 0B 0C 0D 0E 0F
      -- -- -- -- -- -- -- --  -- -- -- -- -- -- -- --
00D0:                                   1E F0 FF FF 7F             .....
00E0: 1D 17 80 23 66 0D 80 F8  FF FF 7F F8 FF FF 7F 74  ...#f..........t
00F0: 77 61 30 1D 18 80 23 21  00                       wa0...#!.       
```

#### Opcodes

```
  0: 0x00DB [0x1E] EventEntity looks at LocalPlayer and starts talking
  1: 0x00E0 [0x1D] PRINT_EVENT_MESSAGE(message_id=10985*)
    → "I knew you could do it! I never doubted you for a minute! Hey, why don't you join the Tavnazian Patrol? I'd be honored to have a fine [man/woman] like you working under me."
  2: 0x00E3 [0x23] WAIT_FOR_DIALOG_INTERACTION
  3: 0x00E4 [0x66] LOAD_EXT_SCHEDULER_MAIN: Load scheduler "twa0" with entities [EventEntity, EventEntity], work=29*
  4: 0x00F3 [0x1D] PRINT_EVENT_MESSAGE(message_id=10986*)
    → "Hm? You're not done with your journey yet? You adventurers have it hard, don't you?"
  5: 0x00F6 [0x23] WAIT_FOR_DIALOG_INTERACTION
  6: 0x00F7 [0x21] END_EVENT
  7: 0x00F8 [0x00] END_REQSTACK()
```

### Event 512

#### Metadata

| Field        | Value   |
|--------------|---------|
| Entrypoint   | 0x00F9  |
| Data Size    | 1 bytes |
| Instructions | 1       |

```
      00 01 02 03 04 05 06 07  08 09 0A 0B 0C 0D 0E 0F
      -- -- -- -- -- -- -- --  -- -- -- -- -- -- -- --
00F0:                             00                             .      
```

#### Opcodes

```
  0: 0x00F9 [0x00] END_REQSTACK()
```

### Event 513

#### Metadata

| Field        | Value   |
|--------------|---------|
| Entrypoint   | 0x00FA  |
| Data Size    | 1 bytes |
| Instructions | 1       |

```
      00 01 02 03 04 05 06 07  08 09 0A 0B 0C 0D 0E 0F
      -- -- -- -- -- -- -- --  -- -- -- -- -- -- -- --
00F0:                                00                           .     
```

#### Opcodes

```
  0: 0x00FA [0x00] END_REQSTACK()
```

### Event 544

#### Metadata

| Field        | Value   |
|--------------|---------|
| Entrypoint   | 0x00FB  |
| Data Size    | 1 bytes |
| Instructions | 1       |

```
      00 01 02 03 04 05 06 07  08 09 0A 0B 0C 0D 0E 0F
      -- -- -- -- -- -- -- --  -- -- -- -- -- -- -- --
00F0:                                   00                         .    
```

#### Opcodes

```
  0: 0x00FB [0x00] END_REQSTACK()
```

### Event 65535.3

#### Metadata

| Field        | Value    |
|--------------|----------|
| Entrypoint   | 0x00FC   |
| Data Size    | 16 bytes |
| Instructions | 5        |

```
      00 01 02 03 04 05 06 07  08 09 0A 0B 0C 0D 0E 0F
      -- -- -- -- -- -- -- --  -- -- -- -- -- -- -- --
00F0:                                      61 00 32 19              a.2.
0100: 80 1F 00 1A 80 1B 80 1C  80 1F 01 00              ............    
```

#### Opcodes

```
  0: 0x00FC [0x61] EventEntity->Render.Flags2 &= ~0x00000001
  1: 0x00FE [0x32] ExtData[1]->MainSpeed = 13* * 0.1
  2: 0x0101 [0x1F] MOVE_ENTITY: EventEntity moves to X=80.861*, Z=65.063*, Y=-33.984*
  3: 0x0109 [0x1F] MOVE_ENTITY: Update entity position (mode=1)
  4: 0x010B [0x00] END_REQSTACK()
```

### Event 546

#### Metadata

| Field        | Value    |
|--------------|----------|
| Entrypoint   | 0x010C   |
| Data Size    | 46 bytes |
| Instructions | 14       |

```
      00 01 02 03 04 05 06 07  08 09 0A 0B 0C 0D 0E 0F
      -- -- -- -- -- -- -- --  -- -- -- -- -- -- -- --
0100:                                      1E F0 FF FF              ....
0110: 7F 6F 70 24 1D 80 1E 80  1E 80 25 02 00 10 1E 80  .op$......%.....
0120: 00 29 01 48 1F 80 01 38  01 02 00 10 20 80 00 38  .).H...8.... ..8
0130: 01 1D 21 80 23 01 38 01  21 00                    ..!.#.8.!.      
```

#### Opcodes

```
  0: 0x010C [0x1E] EventEntity looks at LocalPlayer and starts talking
  1: 0x0111 [0x6F] WAIT_FRAME_DELAY: Yield until WaitTime reaches zero
  2: 0x0112 [0x70] WAIT_ENTITY_RENDER_FLAG: Wait while EventEntity->Render.Flags3 bit 2 is set (cancel turn if not)
  3: 0x0113 [0x24] CREATE_DIALOG(message_id=11671*, default_option=0*, option_flags=0*)
    → "Read the thief's letter? [Let me at it!/A thief? Too scary...]"
  4: 0x011A [0x25] WAIT_DIALOG_SELECT()
  5: 0x011B [0x02] IF !(Work_Zone[0] == 0*) GOTO 0x0129
  6: 0x0123 [0x48] [System] [11672*]:
    → ""I'm coming for your treasure at midnight tonight. -Miledo-Shiraddo, Thief Extraordinaire""
  7: 0x0126 [0x01] GOTO 0x0138
  8: 0x0129 [0x02] IF !(Work_Zone[0] == 1*) GOTO 0x0138
  9: 0x0131 [0x1D] PRINT_EVENT_MESSAGE(message_id=11673*)
    → "We'll collect information too. I won't let an outsider like you take all the glory."
 10: 0x0134 [0x23] WAIT_FOR_DIALOG_INTERACTION
 11: 0x0135 [0x01] GOTO 0x0138

SUBROUTINE_0138:
 12: 0x0138 [0x21] END_EVENT
 13: 0x0139 [0x00] END_REQSTACK()
```

### Event 549

#### Metadata

| Field        | Value   |
|--------------|---------|
| Entrypoint   | 0x013A  |
| Data Size    | 1 bytes |
| Instructions | 1       |

```
      00 01 02 03 04 05 06 07  08 09 0A 0B 0C 0D 0E 0F
      -- -- -- -- -- -- -- --  -- -- -- -- -- -- -- --
0130:                                00                           .     
```

#### Opcodes

```
  0: 0x013A [0x00] END_REQSTACK()
```

### Event 65535.4

#### Metadata

| Field        | Value    |
|--------------|----------|
| Entrypoint   | 0x013B   |
| Data Size    | 10 bytes |
| Instructions | 2        |

```
      00 01 02 03 04 05 06 07  08 09 0A 0B 0C 0D 0E 0F
      -- -- -- -- -- -- -- --  -- -- -- -- -- -- -- --
0130:                                   37 22 80 23 80             7".#.
0140: 24 80 25 80 00                                    $.%..           
```

#### Opcodes

```
  0: 0x013B [0x37] UPDATE_EVENT_POSITION_AND_DIR: x=83.913*, z=65.258*, y=-33.977*, direction=182.1°*
  1: 0x0144 [0x00] END_REQSTACK()
```

### Event 557

#### Metadata

| Field        | Value   |
|--------------|---------|
| Entrypoint   | 0x0145  |
| Data Size    | 1 bytes |
| Instructions | 1       |

```
      00 01 02 03 04 05 06 07  08 09 0A 0B 0C 0D 0E 0F
      -- -- -- -- -- -- -- --  -- -- -- -- -- -- -- --
0140:                00                                      .          
```

#### Opcodes

```
  0: 0x0145 [0x00] END_REQSTACK()
```

### Event 65535.5

#### Metadata

| Field        | Value    |
|--------------|----------|
| Entrypoint   | 0x0146   |
| Data Size    | 16 bytes |
| Instructions | 5        |

```
      00 01 02 03 04 05 06 07  08 09 0A 0B 0C 0D 0E 0F
      -- -- -- -- -- -- -- --  -- -- -- -- -- -- -- --
0140:                   61 00  32 19 80 1F 00 26 80 27        a.2....&.'
0150: 80 28 80 1F 01 00                                 .(....          
```

#### Opcodes

```
  0: 0x0146 [0x61] EventEntity->Render.Flags2 &= ~0x00000001
  1: 0x0148 [0x32] ExtData[1]->MainSpeed = 13* * 0.1
  2: 0x014B [0x1F] MOVE_ENTITY: EventEntity moves to X=85.869*, Z=66.641*, Y=-33.986*
  3: 0x0153 [0x1F] MOVE_ENTITY: Update entity position (mode=1)
  4: 0x0155 [0x00] END_REQSTACK()
```

### Event 568

#### Metadata

| Field        | Value   |
|--------------|---------|
| Entrypoint   | 0x0156  |
| Data Size    | 1 bytes |
| Instructions | 1       |

```
      00 01 02 03 04 05 06 07  08 09 0A 0B 0C 0D 0E 0F
      -- -- -- -- -- -- -- --  -- -- -- -- -- -- -- --
0150:                   00                                    .         
```

#### Opcodes

```
  0: 0x0156 [0x00] END_REQSTACK()
```

### Event 569

#### Metadata

| Field        | Value   |
|--------------|---------|
| Entrypoint   | 0x0157  |
| Data Size    | 1 bytes |
| Instructions | 1       |

```
      00 01 02 03 04 05 06 07  08 09 0A 0B 0C 0D 0E 0F
      -- -- -- -- -- -- -- --  -- -- -- -- -- -- -- --
0150:                      00                                  .        
```

#### Opcodes

```
  0: 0x0157 [0x00] END_REQSTACK()
```

### Event 560

#### Metadata

| Field        | Value     |
|--------------|-----------|
| Entrypoint   | 0x0158    |
| Data Size    | 150 bytes |
| Instructions | 31        |

```
      00 01 02 03 04 05 06 07  08 09 0A 0B 0C 0D 0E 0F
      -- -- -- -- -- -- -- --  -- -- -- -- -- -- -- --
0150:                          1E F0 FF FF 7F 6F 70 24          .....op$
0160: 29 80 1E 80 1E 80 25 02  00 10 1E 80 00 A2 01 02  ).....%.........
0170: 04 10 20 80 00 87 01 27  0F F0 FF FF 7F 4D 2A 0F  .. ....'.....M*.
0180: F0 FF FF 7F 01 9F 01 02  04 10 1E 80 00 9F 01 27  ...............'
0190: 14 F0 FF FF 7F 4C 2A 14  F0 FF FF 7F 01 9F 01 01  .....L*.........
01A0: EC 01 02 00 10 20 80 00  DD 01 02 04 10 20 80 00  ..... ....... ..
01B0: C2 01 27 19 F0 FF FF 7F  51 2A 19 F0 FF FF 7F 01  ..'.....Q*......
01C0: DA 01 02 04 10 1E 80 00  DA 01 27 1E F0 FF FF 7F  ..........'.....
01D0: 50 2A 1E F0 FF FF 7F 01  DA 01 01 EC 01 02 00 10  P*..............
01E0: 2A 80 00 EC 01 1D 2B 80  23 01 EC 01 21 00        *.....+.#...!.  
```

#### Opcodes

```
  0: 0x0158 [0x1E] EventEntity looks at LocalPlayer and starts talking
  1: 0x015D [0x6F] WAIT_FRAME_DELAY: Yield until WaitTime reaches zero
  2: 0x015E [0x70] WAIT_ENTITY_RENDER_FLAG: Wait while EventEntity->Render.Flags3 bit 2 is set (cancel turn if not)
  3: 0x015F [0x24] CREATE_DIALOG(message_id=11742*, default_option=0*, option_flags=0*)
    → "Take a look at my reports? [Report 1./Report 2./Not interested.]"
  4: 0x0166 [0x25] WAIT_DIALOG_SELECT()
  5: 0x0167 [0x02] IF !(Work_Zone[0] == 0*) GOTO 0x01A2
  6: 0x016F [0x02] IF !(Work_Zone[4] == 1*) GOTO 0x0187
  7: 0x0177 [0x27] REQ_SET(priority=0x0F, entity_id=LocalPlayer, tag_num=0x4D)
  8: 0x017E [0x2A] GET_REQ_LEVEL(level=15, entity_id=LocalPlayer)
  9: 0x0184 [0x01] GOTO 0x019F
 10: 0x0187 [0x02] IF !(Work_Zone[4] == 0*) GOTO 0x019F
 11: 0x018F [0x27] REQ_SET(priority=0x14, entity_id=LocalPlayer, tag_num=0x4C)
 12: 0x0196 [0x2A] GET_REQ_LEVEL(level=20, entity_id=LocalPlayer)
 13: 0x019C [0x01] GOTO 0x019F

SUBROUTINE_019F:
 14: 0x019F [0x01] GOTO 0x01EC
 15: 0x01A2 [0x02] IF !(Work_Zone[0] == 1*) GOTO 0x01DD
 16: 0x01AA [0x02] IF !(Work_Zone[4] == 1*) GOTO 0x01C2
 17: 0x01B2 [0x27] REQ_SET(priority=0x19, entity_id=LocalPlayer, tag_num=0x51)
 18: 0x01B9 [0x2A] GET_REQ_LEVEL(level=25, entity_id=LocalPlayer)
 19: 0x01BF [0x01] GOTO 0x01DA
 20: 0x01C2 [0x02] IF !(Work_Zone[4] == 0*) GOTO 0x01DA
 21: 0x01CA [0x27] REQ_SET(priority=0x1E, entity_id=LocalPlayer, tag_num=0x50)
 22: 0x01D1 [0x2A] GET_REQ_LEVEL(level=30, entity_id=LocalPlayer)
 23: 0x01D7 [0x01] GOTO 0x01DA

SUBROUTINE_01DA:
 24: 0x01DA [0x01] GOTO 0x01EC
 25: 0x01DD [0x02] IF !(Work_Zone[0] == 2*) GOTO 0x01EC
 26: 0x01E5 [0x1D] PRINT_EVENT_MESSAGE(message_id=11743*)
    → "Well then, good luck."
 27: 0x01E8 [0x23] WAIT_FOR_DIALOG_INTERACTION
 28: 0x01E9 [0x01] GOTO 0x01EC

SUBROUTINE_01EC:
 29: 0x01EC [0x21] END_EVENT
 30: 0x01ED [0x00] END_REQSTACK()
```

### Event 565

#### Metadata

| Field        | Value   |
|--------------|---------|
| Entrypoint   | 0x01EE  |
| Data Size    | 1 bytes |
| Instructions | 1       |

```
      00 01 02 03 04 05 06 07  08 09 0A 0B 0C 0D 0E 0F
      -- -- -- -- -- -- -- --  -- -- -- -- -- -- -- --
01E0:                                            00                   . 
```

#### Opcodes

```
  0: 0x01EE [0x00] END_REQSTACK()
```

### Event 567

#### Metadata

| Field        | Value   |
|--------------|---------|
| Entrypoint   | 0x01EF  |
| Data Size    | 1 bytes |
| Instructions | 1       |

```
      00 01 02 03 04 05 06 07  08 09 0A 0B 0C 0D 0E 0F
      -- -- -- -- -- -- -- --  -- -- -- -- -- -- -- --
01E0:                                               00                 .
```

#### Opcodes

```
  0: 0x01EF [0x00] END_REQSTACK()
```

### Event 558

#### Metadata

| Field        | Value   |
|--------------|---------|
| Entrypoint   | 0x01F0  |
| Data Size    | 1 bytes |
| Instructions | 1       |

```
      00 01 02 03 04 05 06 07  08 09 0A 0B 0C 0D 0E 0F
      -- -- -- -- -- -- -- --  -- -- -- -- -- -- -- --
01F0: 00                                                .               
```

#### Opcodes

```
  0: 0x01F0 [0x00] END_REQSTACK()
```

### Event 65535.6

#### Metadata

| Field        | Value    |
|--------------|----------|
| Entrypoint   | 0x01F1   |
| Data Size    | 13 bytes |
| Instructions | 3        |

```
      00 01 02 03 04 05 06 07  08 09 0A 0B 0C 0D 0E 0F
      -- -- -- -- -- -- -- --  -- -- -- -- -- -- -- --
01F0:    37 2C 80 2D 80 2E 80  2F 80 95 1E 80 00         7,.-.../.....  
```

#### Opcodes

```
  0: 0x01F1 [0x37] UPDATE_EVENT_POSITION_AND_DIR: x=-1.198*, z=12.189*, y=-22.197*, direction=51.8°*
  1: 0x01FA [0x95] SETUP_EVENT_NPC: Prepare NPC for event (Render.Flags3 = 0*)
  2: 0x01FD [0x00] END_REQSTACK()
```

### Event 65535.7

#### Metadata

| Field        | Value    |
|--------------|----------|
| Entrypoint   | 0x01FE   |
| Data Size    | 14 bytes |
| Instructions | 4        |

```
      00 01 02 03 04 05 06 07  08 09 0A 0B 0C 0D 0E 0F
      -- -- -- -- -- -- -- --  -- -- -- -- -- -- -- --
01F0:                                            32 19                2.
0200: 80 1F 00 30 80 31 80 32  80 1F 01 00              ...0.1.2....    
```

#### Opcodes

```
  0: 0x01FE [0x32] ExtData[1]->MainSpeed = 13* * 0.1
  1: 0x0201 [0x1F] MOVE_ENTITY: EventEntity moves to X=-1.286*, Z=9.671*, Y=-22.119*
  2: 0x0209 [0x1F] MOVE_ENTITY: Update entity position (mode=1)
  3: 0x020B [0x00] END_REQSTACK()
```

### Event 563

#### Metadata

| Field        | Value    |
|--------------|----------|
| Entrypoint   | 0x020C   |
| Data Size    | 13 bytes |
| Instructions | 7        |

```
      00 01 02 03 04 05 06 07  08 09 0A 0B 0C 0D 0E 0F
      -- -- -- -- -- -- -- --  -- -- -- -- -- -- -- --
0200:                                      1E F0 FF FF              ....
0210: 7F 6F 70 1D 33 80 23 21  00                       .op.3.#!.       
```

#### Opcodes

```
  0: 0x020C [0x1E] EventEntity looks at LocalPlayer and starts talking
  1: 0x0211 [0x6F] WAIT_FRAME_DELAY: Yield until WaitTime reaches zero
  2: 0x0212 [0x70] WAIT_ENTITY_RENDER_FLAG: Wait while EventEntity->Render.Flags3 bit 2 is set (cancel turn if not)
  3: 0x0213 [0x1D] PRINT_EVENT_MESSAGE(message_id=11795*)
    → "To tell the truth, I'm a closet fan of Miledo-Shiraddo... I'd love to have adventures like that too..."
  4: 0x0216 [0x23] WAIT_FOR_DIALOG_INTERACTION
  5: 0x0217 [0x21] END_EVENT
  6: 0x0218 [0x00] END_REQSTACK()
```

### Event 561

#### Metadata

| Field        | Value   |
|--------------|---------|
| Entrypoint   | 0x0219  |
| Data Size    | 1 bytes |
| Instructions | 1       |

```
      00 01 02 03 04 05 06 07  08 09 0A 0B 0C 0D 0E 0F
      -- -- -- -- -- -- -- --  -- -- -- -- -- -- -- --
0210:                             00                             .      
```

#### Opcodes

```
  0: 0x0219 [0x00] END_REQSTACK()
```

### Event 580

#### Metadata

| Field        | Value    |
|--------------|----------|
| Entrypoint   | 0x021A   |
| Data Size    | 46 bytes |
| Instructions | 10       |

```
      00 01 02 03 04 05 06 07  08 09 0A 0B 0C 0D 0E 0F
      -- -- -- -- -- -- -- --  -- -- -- -- -- -- -- --
0210:                                1E F0 FF FF 7F 6F            .....o
0220: 70 66 34 80 F8 FF FF 7F  F8 FF FF 7F 74 68 6B 31  pf4.........thk1
0230: 1D 35 80 23 66 34 80 F8  FF FF 7F F8 FF FF 7F 74  .5.#f4.........t
0240: 68 6B 32 1C 36 80 21 00                           hk2.6.!.        
```

#### Opcodes

```
  0: 0x021A [0x1E] EventEntity looks at LocalPlayer and starts talking
  1: 0x021F [0x6F] WAIT_FRAME_DELAY: Yield until WaitTime reaches zero
  2: 0x0220 [0x70] WAIT_ENTITY_RENDER_FLAG: Wait while EventEntity->Render.Flags3 bit 2 is set (cancel turn if not)
  3: 0x0221 [0x66] LOAD_EXT_SCHEDULER_MAIN: Load scheduler "thk1" with entities [EventEntity, EventEntity], work=20*
  4: 0x0230 [0x1D] PRINT_EVENT_MESSAGE(message_id=11760*)
    → "It is quite a coincidence that both Wazozo and the suspicious boy were seen in the same places."
  5: 0x0233 [0x23] WAIT_FOR_DIALOG_INTERACTION
  6: 0x0234 [0x66] LOAD_EXT_SCHEDULER_MAIN: Load scheduler "thk2" with entities [EventEntity, EventEntity], work=20*
  7: 0x0243 [0x1C] WAIT(60* ticks)
  8: 0x0246 [0x21] END_EVENT
  9: 0x0247 [0x00] END_REQSTACK()
```
