# 16883857 - Miledo-Shiraddo

## Common Data

| Field            | Value                       |
|------------------|-----------------------------|
| Zone             | Tavnazian Safehold (ID: 26) |
| Block Size       | 1052 bytes                  |
| Total Events     | 21                          |
| References Count | 69                          |

## List of Events

| Event ID                   | Entrypoint   |   Size |   Instructions |
|----------------------------|--------------|--------|----------------|
| [65535](#event-65535)      | 0x0000       |      1 |              1 |
| [548](#event-548)          | 0x0001       |      1 |              1 |
| [550](#event-550)          | 0x0002       |      1 |              1 |
| [554](#event-554)          | 0x0003       |      1 |              1 |
| [65535.1](#event-655351)   | 0x0004       |     23 |              5 |
| [65535.2](#event-655352)   | 0x001B       |     10 |              2 |
| [65535.3](#event-655353)   | 0x0025       |     53 |             13 |
| [65535.4](#event-655354)   | 0x005A       |     10 |              2 |
| [65535.5](#event-655355)   | 0x0064       |    213 |             36 |
| [65535.6](#event-655356)   | 0x0139       |     15 |              5 |
| [65535.7](#event-655357)   | 0x0148       |     15 |              5 |
| [552](#event-552)          | 0x0157       |      1 |              1 |
| [65535.8](#event-655358)   | 0x0158       |     10 |              2 |
| [65535.9](#event-655359)   | 0x0162       |     15 |              5 |
| [558](#event-558)          | 0x0171       |      1 |              1 |
| [65535.10](#event-6553510) | 0x0172       |     24 |              6 |
| [65535.11](#event-6553511) | 0x018A       |     41 |             12 |
| [65535.12](#event-6553512) | 0x01B3       |    238 |             41 |
| [65535.13](#event-6553513) | 0x02A1       |      1 |              1 |
| [561](#event-561)          | 0x02A2       |      1 |              1 |
| [560](#event-560)          | 0x02A3       |      1 |              1 |

## DAT References (imed_data)

|   Index | Hex Value   |   Dec Value |
|---------|-------------|-------------|
|       0 | 0x14174     |       82292 |
|       1 | 0xEF1F      |       61215 |
|       2 | 0xFFFF7B30  |  4294933296 |
|       3 | 0x035B      |         859 |
|       4 | 0x000D      |          13 |
|       5 | 0x13C79     |       81017 |
|       6 | 0xEE8F      |       61071 |
|       7 | 0xFFFFFBD7  |  4294966231 |
|       8 | 0xFFFF99E8  |  4294941160 |
|       9 | 0xFFFFA722  |  4294944546 |
|      10 | 0x0363      |         867 |
|      11 | 0x088B      |        2187 |
|      12 | 0xFFFF9703  |  4294940419 |
|      13 | 0x04EF      |        1263 |
|      14 | 0xFFFFF74A  |  4294965066 |
|      15 | 0xFFFF8B30  |  4294937392 |
|      16 | 0xFFFFA628  |  4294944296 |
|      17 | 0x0180      |         384 |
|      18 | 0xFFFEE36A  |  4294894442 |
|      19 | 0x01F5      |         501 |
|      20 | 0xFFFFD1A5  |  4294955429 |
|      21 | 0x0067      |         103 |
|      22 | 0x0028      |          40 |
|      23 | 0x0096      |         150 |
|      24 | 0xFFFFFC18  |  4294966296 |
|      25 | 0x001E      |          30 |
|      26 | 0x000A      |          10 |
|      27 | 0x0050      |          80 |
|      28 | 0x0001      |           1 |
|      29 | 0x4650      |       18000 |
|      30 | 0x0000      |           0 |
|      31 | 0x02BC      |         700 |
|      32 | 0x000F      |          15 |
|      33 | 0xFFFEFD3F  |  4294901055 |
|      34 | 0x033D      |         829 |
|      35 | 0xFFFFE89A  |  4294961306 |
|      36 | 0xFFFF0B37  |  4294904631 |
|      37 | 0xFFFFFF72  |  4294967154 |
|      38 | 0xFFFFEA62  |  4294961762 |
|      39 | 0xFFFFFA8B  |  4294965899 |
|      40 | 0xFFFFED40  |  4294962496 |
|      41 | 0xFFFFAA2F  |  4294945327 |
|      42 | 0x0851      |        2129 |
|      43 | 0x05C8      |        1480 |
|      44 | 0xFFFFEE48  |  4294962760 |
|      45 | 0xFFFFAA38  |  4294945336 |
|      46 | 0xFFFFE383  |  4294960003 |
|      47 | 0xFFFFA82B  |  4294944811 |
|      48 | 0xFFFFA83C  |  4294944828 |
|      49 | 0x0FFD      |        4093 |
|      50 | 0xFFFFFF86  |  4294967174 |
|      51 | 0xFFFFA83B  |  4294944827 |
|      52 | 0xFFFFA723  |  4294944547 |
|      53 | 0xFFFFF330  |  4294964016 |
|      54 | 0xFFFFB944  |  4294949188 |
|      55 | 0xFFFFA859  |  4294944857 |
|      56 | 0xFFFFF7F5  |  4294965237 |
|      57 | 0xFFFFC418  |  4294951960 |
|      58 | 0xFFFF9B94  |  4294941588 |
|      59 | 0x003C      |          60 |
|      60 | 0x017F      |         383 |
|      61 | 0xFFFFE057  |  4294959191 |
|      62 | 0xFFFFE12B  |  4294959403 |
|      63 | 0xFFFFD8F0  |  4294957296 |
|      64 | 0x0DC3      |        3523 |
|      65 | 0x0078      |         120 |
|      66 | 0xFFFFC8C0  |  4294953152 |
|      67 | 0x0C8D      |        3213 |
|      68 | 0xFFFFD8F8  |  4294957304 |

## Events

### Event 65535

#### Metadata

| Field        | Value   |
|--------------|---------|
| Entrypoint   | 0x0000  |
| Data Size    | 1 bytes |
| Instructions | 1       |

```
      00 01 02 03 04 05 06 07  08 09 0A 0B 0C 0D 0E 0F
      -- -- -- -- -- -- -- --  -- -- -- -- -- -- -- --
0000: 00                                                .               
```

#### Opcodes

```
  0: 0x0000 [0x00] END_REQSTACK()
```

### Event 548

#### Metadata

| Field        | Value   |
|--------------|---------|
| Entrypoint   | 0x0001  |
| Data Size    | 1 bytes |
| Instructions | 1       |

```
      00 01 02 03 04 05 06 07  08 09 0A 0B 0C 0D 0E 0F
      -- -- -- -- -- -- -- --  -- -- -- -- -- -- -- --
0000:    00                                              .              
```

#### Opcodes

```
  0: 0x0001 [0x00] END_REQSTACK()
```

### Event 550

#### Metadata

| Field        | Value   |
|--------------|---------|
| Entrypoint   | 0x0002  |
| Data Size    | 1 bytes |
| Instructions | 1       |

```
      00 01 02 03 04 05 06 07  08 09 0A 0B 0C 0D 0E 0F
      -- -- -- -- -- -- -- --  -- -- -- -- -- -- -- --
0000:       00                                            .             
```

#### Opcodes

```
  0: 0x0002 [0x00] END_REQSTACK()
```

### Event 554

#### Metadata

| Field        | Value   |
|--------------|---------|
| Entrypoint   | 0x0003  |
| Data Size    | 1 bytes |
| Instructions | 1       |

```
      00 01 02 03 04 05 06 07  08 09 0A 0B 0C 0D 0E 0F
      -- -- -- -- -- -- -- --  -- -- -- -- -- -- -- --
0000:          00                                          .            
```

#### Opcodes

```
  0: 0x0003 [0x00] END_REQSTACK()
```

### Event 65535.1

#### Metadata

| Field        | Value    |
|--------------|----------|
| Entrypoint   | 0x0004   |
| Data Size    | 23 bytes |
| Instructions | 5        |

```
      00 01 02 03 04 05 06 07  08 09 0A 0B 0C 0D 0E 0F
      -- -- -- -- -- -- -- --  -- -- -- -- -- -- -- --
0000:             37 00 80 01  80 02 80 03 80 32 04 80      7........2..
0010: 1F 00 05 80 06 80 02 80  1F 01 00                 ...........     
```

#### Opcodes

```
  0: 0x0004 [0x37] UPDATE_EVENT_POSITION_AND_DIR: x=82.292*, z=61.215*, y=-34.000*, direction=75.5°*
  1: 0x000D [0x32] ExtData[1]->MainSpeed = 13* * 0.1
  2: 0x0010 [0x1F] MOVE_ENTITY: EventEntity moves to X=81.017*, Z=61.071*, Y=-34.000*
  3: 0x0018 [0x1F] MOVE_ENTITY: Update entity position (mode=1)
  4: 0x001A [0x00] END_REQSTACK()
```

### Event 65535.2

#### Metadata

| Field        | Value    |
|--------------|----------|
| Entrypoint   | 0x001B   |
| Data Size    | 10 bytes |
| Instructions | 2        |

```
      00 01 02 03 04 05 06 07  08 09 0A 0B 0C 0D 0E 0F
      -- -- -- -- -- -- -- --  -- -- -- -- -- -- -- --
0010:                                   37 07 80 08 80             7....
0020: 09 80 0A 80 00                                    .....           
```

#### Opcodes

```
  0: 0x001B [0x37] UPDATE_EVENT_POSITION_AND_DIR: x=-1.065*, z=-26.136*, y=-22.750*, direction=76.2°*
  1: 0x0024 [0x00] END_REQSTACK()
```

### Event 65535.3

#### Metadata

| Field        | Value    |
|--------------|----------|
| Entrypoint   | 0x0025   |
| Data Size    | 53 bytes |
| Instructions | 13       |

```
      00 01 02 03 04 05 06 07  08 09 0A 0B 0C 0D 0E 0F
      -- -- -- -- -- -- -- --  -- -- -- -- -- -- -- --
0020:                32 04 80  1F 00 0B 80 0C 80 09 80       2..........
0030: 1F 01 4B 91 A0 01 01 0D  80 6F 76 91 A0 01 01 32  ..K......ov....2
0040: 04 80 1F 00 0E 80 0F 80  10 80 1F 01 4B 91 A0 01  ............K...
0050: 01 11 80 6F 76 91 A0 01  01 00                    ...ov.....      
```

#### Opcodes

```
  0: 0x0025 [0x32] ExtData[1]->MainSpeed = 13* * 0.1
  1: 0x0028 [0x1F] MOVE_ENTITY: EventEntity moves to X=2.187*, Z=-26.877*, Y=-22.750*
  2: 0x0030 [0x1F] MOVE_ENTITY: Update entity position (mode=1)
  3: 0x0032 [0x4B] UPDATE_ENTITY_YAW(entity=Miledo-Shiraddo (ID: 16883857/0x0101A091), yaw=6.9°*)
  4: 0x0039 [0x6F] WAIT_FRAME_DELAY: Yield until WaitTime reaches zero
  5: 0x003A [0x76] CHECK_ENTITY_RENDER_FLAGS: Wait until Miledo-Shiraddo (ID: 16883857/0x0101A091) Render.Flags0 and Render.Flags3 conditions are met
  6: 0x003F [0x32] ExtData[1]->MainSpeed = 13* * 0.1
  7: 0x0042 [0x1F] MOVE_ENTITY: EventEntity moves to X=-2.230*, Z=-29.904*, Y=-23.000*
  8: 0x004A [0x1F] MOVE_ENTITY: Update entity position (mode=1)
  9: 0x004C [0x4B] UPDATE_ENTITY_YAW(entity=Miledo-Shiraddo (ID: 16883857/0x0101A091), yaw=2.1°*)
 10: 0x0053 [0x6F] WAIT_FRAME_DELAY: Yield until WaitTime reaches zero
 11: 0x0054 [0x76] CHECK_ENTITY_RENDER_FLAGS: Wait until Miledo-Shiraddo (ID: 16883857/0x0101A091) Render.Flags0 and Render.Flags3 conditions are met
 12: 0x0059 [0x00] END_REQSTACK()
```

### Event 65535.4

#### Metadata

| Field        | Value    |
|--------------|----------|
| Entrypoint   | 0x005A   |
| Data Size    | 10 bytes |
| Instructions | 2        |

```
      00 01 02 03 04 05 06 07  08 09 0A 0B 0C 0D 0E 0F
      -- -- -- -- -- -- -- --  -- -- -- -- -- -- -- --
0050:                                37 12 80 13 80 14            7.....
0060: 80 15 80 00                                       ....            
```

#### Opcodes

```
  0: 0x005A [0x37] UPDATE_EVENT_POSITION_AND_DIR: x=-72.854*, z=0.501*, y=-11.867*, direction=9.1°*
  1: 0x0063 [0x00] END_REQSTACK()
```

### Event 65535.5

#### Metadata

| Field        | Value     |
|--------------|-----------|
| Entrypoint   | 0x0064    |
| Data Size    | 213 bytes |
| Instructions | 36        |

```
      00 01 02 03 04 05 06 07  08 09 0A 0B 0C 0D 0E 0F
      -- -- -- -- -- -- -- --  -- -- -- -- -- -- -- --
0060:             33 01 03 00  00 00 7F 03 01 00 02 7F      3...........
0070: 03 02 00 01 7F 03 03 00  03 7F 03 04 00 01 7F 66  ...............f
0080: 16 80 F8 FF FF 7F F8 FF  FF 7F 6A 6D 70 30 53 F8  ..........jmp0S.
0090: FF FF 7F F8 FF FF 7F 6A  6D 70 30 66 16 80 F8 FF  .......jmp0f....
00A0: FF 7F F8 FF FF 7F 6A 6D  70 33 06 05 00 03 06 00  ......jmp3......
00B0: 17 80 02 05 00 18 80 04  EA 00 03 02 00 04 00 07  ................
00C0: 02 00 05 00 37 00 00 01  00 02 00 03 00 02 06 00  ....7...........
00D0: 19 80 04 DA 00 08 06 00  1A 80 07 00 00 1B 80 08  ................
00E0: 05 00 06 00 1C 1C 80 01  B2 00 06 07 00 02 05 00  ................
00F0: 1D 80 05 38 01 02 05 00  1E 80 05 08 01 02 07 00  ...8............
0100: 1E 80 00 08 01 05 07 00  03 02 00 04 00 07 02 00  ................
0110: 05 00 37 00 00 01 00 02  00 03 00 02 06 00 1F 80  ..7.............
0120: 05 28 01 07 06 00 20 80  07 00 00 1B 80 07 05 00  .(.... .........
0130: 06 00 1C 1C 80 01 ED 00  00                       .........       
```

#### Opcodes

```
  0: 0x0064 [0x33] EventEntity->Render.Flags0 |= 0x200000 // Bit 21 (flag=0x01)
  1: 0x0066 [0x03] ExtData[1]->WorkLocal[0] = ExtData[1]->EventPos[0] * 1000.0
  2: 0x006B [0x03] ExtData[1]->WorkLocal[1] = ExtData[1]->EventPos[2] * 1000.0
  3: 0x0070 [0x03] ExtData[1]->WorkLocal[2] = ExtData[1]->EventPos[1] * 1000.0
  4: 0x0075 [0x03] ExtData[1]->WorkLocal[3] = enDirCli(ExtData[1]->EventDir[1]) * 4096.0 * 0.15915963
  5: 0x007A [0x03] ExtData[1]->WorkLocal[4] = ExtData[1]->EventPos[1] * 1000.0
  6: 0x007F [0x66] LOAD_EXT_SCHEDULER_MAIN: Load scheduler "jmp0" with entities [EventEntity, EventEntity], work=40*
  7: 0x008E [0x53] WAIT_SCHEDULER_TASK: Wait for scheduler "jmp0" with entities [EventEntity, EventEntity]
  8: 0x009B [0x66] LOAD_EXT_SCHEDULER_MAIN: Load scheduler "jmp3" with entities [EventEntity, EventEntity], work=40*
  9: 0x00AA [0x06] ExtData[1]->WorkLocal[5] = 0
 10: 0x00AD [0x03] ExtData[1]->WorkLocal[6] = 150*
 11: 0x00B2 [0x02] IF !(ExtData[1]->WorkLocal[5] < 4294966296*) GOTO 0x00EA
 12: 0x00BA [0x03] ExtData[1]->WorkLocal[2] = ExtData[1]->WorkLocal[4]
 13: 0x00BF [0x07] ExtData[1]->WorkLocal[2] += ExtData[1]->WorkLocal[5]
 14: 0x00C4 [0x37] UPDATE_EVENT_POSITION_AND_DIR: x=ExtData[1]->WorkLocal[0], z=ExtData[1]->WorkLocal[1], y=ExtData[1]->WorkLocal[2], direction=ExtData[1]->WorkLocal[3]
 15: 0x00CD [0x02] IF !(ExtData[1]->WorkLocal[6] < 30*) GOTO 0x00DA
 16: 0x00D5 [0x08] ExtData[1]->WorkLocal[6] -= 10*
 17: 0x00DA [0x07] ExtData[1]->WorkLocal[0] += 80*
 18: 0x00DF [0x08] ExtData[1]->WorkLocal[5] -= ExtData[1]->WorkLocal[6]
 19: 0x00E4 [0x1C] WAIT(1* ticks)
 20: 0x00E7 [0x01] GOTO 0x00B2
 21: 0x00EA [0x06] ExtData[1]->WorkLocal[7] = 0

SUBROUTINE_00ED:
 22: 0x00ED [0x02] IF !(ExtData[1]->WorkLocal[5] > 18000*) GOTO 0x0138
 23: 0x00F5 [0x02] IF !(ExtData[1]->WorkLocal[5] > 0*) GOTO 0x0108
 24: 0x00FD [0x02] IF !(ExtData[1]->WorkLocal[7] == 0*) GOTO 0x0108
 25: 0x0105 [0x05] ExtData[1]->WorkLocal[7] = 1
 26: 0x0108 [0x03] ExtData[1]->WorkLocal[2] = ExtData[1]->WorkLocal[4]
 27: 0x010D [0x07] ExtData[1]->WorkLocal[2] += ExtData[1]->WorkLocal[5]
 28: 0x0112 [0x37] UPDATE_EVENT_POSITION_AND_DIR: x=ExtData[1]->WorkLocal[0], z=ExtData[1]->WorkLocal[1], y=ExtData[1]->WorkLocal[2], direction=ExtData[1]->WorkLocal[3]
 29: 0x011B [0x02] IF !(ExtData[1]->WorkLocal[6] > 700*) GOTO 0x0128
 30: 0x0123 [0x07] ExtData[1]->WorkLocal[6] += 15*
 31: 0x0128 [0x07] ExtData[1]->WorkLocal[0] += 80*
 32: 0x012D [0x07] ExtData[1]->WorkLocal[5] += ExtData[1]->WorkLocal[6]
 33: 0x0132 [0x1C] WAIT(1* ticks)
 34: 0x0135 [0x01] GOTO 0x00ED
 35: 0x0138 [0x00] END_REQSTACK()
```

### Event 65535.6

#### Metadata

| Field        | Value    |
|--------------|----------|
| Entrypoint   | 0x0139   |
| Data Size    | 15 bytes |
| Instructions | 5        |

```
      00 01 02 03 04 05 06 07  08 09 0A 0B 0C 0D 0E 0F
      -- -- -- -- -- -- -- --  -- -- -- -- -- -- -- --
0130:                             32 16 80 1F 00 21 80           2....!.
0140: 22 80 23 80 1F 01 6F 00                           ".#...o.        
```

#### Opcodes

```
  0: 0x0139 [0x32] ExtData[1]->MainSpeed = 40* * 0.1
  1: 0x013C [0x1F] MOVE_ENTITY: EventEntity moves to X=-66.241*, Z=0.829*, Y=-5.990*
  2: 0x0144 [0x1F] MOVE_ENTITY: Update entity position (mode=1)
  3: 0x0146 [0x6F] WAIT_FRAME_DELAY: Yield until WaitTime reaches zero
  4: 0x0147 [0x00] END_REQSTACK()
```

### Event 65535.7

#### Metadata

| Field        | Value    |
|--------------|----------|
| Entrypoint   | 0x0148   |
| Data Size    | 15 bytes |
| Instructions | 5        |

```
      00 01 02 03 04 05 06 07  08 09 0A 0B 0C 0D 0E 0F
      -- -- -- -- -- -- -- --  -- -- -- -- -- -- -- --
0140:                          32 04 80 1F 00 24 80 25          2....$.%
0150: 80 26 80 1F 01 6F 00                              .&...o.         
```

#### Opcodes

```
  0: 0x0148 [0x32] ExtData[1]->MainSpeed = 13* * 0.1
  1: 0x014B [0x1F] MOVE_ENTITY: EventEntity moves to X=-62.665*, Z=-0.142*, Y=-5.534*
  2: 0x0153 [0x1F] MOVE_ENTITY: Update entity position (mode=1)
  3: 0x0155 [0x6F] WAIT_FRAME_DELAY: Yield until WaitTime reaches zero
  4: 0x0156 [0x00] END_REQSTACK()
```

### Event 552

#### Metadata

| Field        | Value   |
|--------------|---------|
| Entrypoint   | 0x0157  |
| Data Size    | 1 bytes |
| Instructions | 1       |

```
      00 01 02 03 04 05 06 07  08 09 0A 0B 0C 0D 0E 0F
      -- -- -- -- -- -- -- --  -- -- -- -- -- -- -- --
0150:                      00                                  .        
```

#### Opcodes

```
  0: 0x0157 [0x00] END_REQSTACK()
```

### Event 65535.8

#### Metadata

| Field        | Value    |
|--------------|----------|
| Entrypoint   | 0x0158   |
| Data Size    | 10 bytes |
| Instructions | 2        |

```
      00 01 02 03 04 05 06 07  08 09 0A 0B 0C 0D 0E 0F
      -- -- -- -- -- -- -- --  -- -- -- -- -- -- -- --
0150:                          37 27 80 28 80 29 80 2A          7'.(.).*
0160: 80 00                                             ..              
```

#### Opcodes

```
  0: 0x0158 [0x37] UPDATE_EVENT_POSITION_AND_DIR: x=-1.397*, z=-4.800*, y=-21.969*, direction=187.1°*
  1: 0x0161 [0x00] END_REQSTACK()
```

### Event 65535.9

#### Metadata

| Field        | Value    |
|--------------|----------|
| Entrypoint   | 0x0162   |
| Data Size    | 15 bytes |
| Instructions | 5        |

```
      00 01 02 03 04 05 06 07  08 09 0A 0B 0C 0D 0E 0F
      -- -- -- -- -- -- -- --  -- -- -- -- -- -- -- --
0160:       32 04 80 1F 00 2B  80 2C 80 2D 80 1F 01 6F    2....+.,.-...o
0170: 00                                                .               
```

#### Opcodes

```
  0: 0x0162 [0x32] ExtData[1]->MainSpeed = 13* * 0.1
  1: 0x0165 [0x1F] MOVE_ENTITY: EventEntity moves to X=1.480*, Z=-4.536*, Y=-21.960*
  2: 0x016D [0x1F] MOVE_ENTITY: Update entity position (mode=1)
  3: 0x016F [0x6F] WAIT_FRAME_DELAY: Yield until WaitTime reaches zero
  4: 0x0170 [0x00] END_REQSTACK()
```

### Event 558

#### Metadata

| Field        | Value   |
|--------------|---------|
| Entrypoint   | 0x0171  |
| Data Size    | 1 bytes |
| Instructions | 1       |

```
      00 01 02 03 04 05 06 07  08 09 0A 0B 0C 0D 0E 0F
      -- -- -- -- -- -- -- --  -- -- -- -- -- -- -- --
0170:    00                                              .              
```

#### Opcodes

```
  0: 0x0171 [0x00] END_REQSTACK()
```

### Event 65535.10

#### Metadata

| Field        | Value    |
|--------------|----------|
| Entrypoint   | 0x0172   |
| Data Size    | 24 bytes |
| Instructions | 6        |

```
      00 01 02 03 04 05 06 07  08 09 0A 0B 0C 0D 0E 0F
      -- -- -- -- -- -- -- --  -- -- -- -- -- -- -- --
0170:       37 2E 80 2F 80 30  80 31 80 32 16 80 1F 00    7../.0.1.2....
0180: 32 80 33 80 34 80 1F 01  6F 00                    2.3.4...o.      
```

#### Opcodes

```
  0: 0x0172 [0x37] UPDATE_EVENT_POSITION_AND_DIR: x=-7.293*, z=-22.485*, y=-22.468*, direction=359.7°*
  1: 0x017B [0x32] ExtData[1]->MainSpeed = 40* * 0.1
  2: 0x017E [0x1F] MOVE_ENTITY: EventEntity moves to X=-0.122*, Z=-22.469*, Y=-22.749*
  3: 0x0186 [0x1F] MOVE_ENTITY: Update entity position (mode=1)
  4: 0x0188 [0x6F] WAIT_FRAME_DELAY: Yield until WaitTime reaches zero
  5: 0x0189 [0x00] END_REQSTACK()
```

### Event 65535.11

#### Metadata

| Field        | Value    |
|--------------|----------|
| Entrypoint   | 0x018A   |
| Data Size    | 41 bytes |
| Instructions | 12       |

```
      00 01 02 03 04 05 06 07  08 09 0A 0B 0C 0D 0E 0F
      -- -- -- -- -- -- -- --  -- -- -- -- -- -- -- --
0180:                                32 16 80 1F 00 35            2....5
0190: 80 36 80 37 80 1F 01 33  01 32 16 80 1F 00 38 80  .6.7...3.2....8.
01A0: 39 80 3A 80 1F 01 1C 3B  80 4B 91 A0 01 01 3C 80  9.:....;.K....<.
01B0: 6F 70 00                                          op.             
```

#### Opcodes

```
  0: 0x018A [0x32] ExtData[1]->MainSpeed = 40* * 0.1
  1: 0x018D [0x1F] MOVE_ENTITY: EventEntity moves to X=-3.280*, Z=-18.108*, Y=-22.439*
  2: 0x0195 [0x1F] MOVE_ENTITY: Update entity position (mode=1)
  3: 0x0197 [0x33] EventEntity->Render.Flags0 |= 0x200000 // Bit 21 (flag=0x01)
  4: 0x0199 [0x32] ExtData[1]->MainSpeed = 40* * 0.1
  5: 0x019C [0x1F] MOVE_ENTITY: EventEntity moves to X=-2.059*, Z=-15.336*, Y=-25.708*
  6: 0x01A4 [0x1F] MOVE_ENTITY: Update entity position (mode=1)
  7: 0x01A6 [0x1C] WAIT(60* ticks)
  8: 0x01A9 [0x4B] UPDATE_ENTITY_YAW(entity=Miledo-Shiraddo (ID: 16883857/0x0101A091), yaw=2.1°*)
  9: 0x01B0 [0x6F] WAIT_FRAME_DELAY: Yield until WaitTime reaches zero
 10: 0x01B1 [0x70] WAIT_ENTITY_RENDER_FLAG: Wait while EventEntity->Render.Flags3 bit 2 is set (cancel turn if not)
 11: 0x01B2 [0x00] END_REQSTACK()
```

### Event 65535.12

#### Metadata

| Field        | Value     |
|--------------|-----------|
| Entrypoint   | 0x01B3    |
| Data Size    | 238 bytes |
| Instructions | 41        |

```
      00 01 02 03 04 05 06 07  08 09 0A 0B 0C 0D 0E 0F
      -- -- -- -- -- -- -- --  -- -- -- -- -- -- -- --
01B0:          33 01 03 00 00  00 7F 03 01 00 02 7F 03     3............
01C0: 02 00 01 7F 03 03 00 03  7F 03 04 00 01 7F 66 16  ..............f.
01D0: 80 F8 FF FF 7F F8 FF FF  7F 6A 6D 70 30 53 F8 FF  .........jmp0S..
01E0: FF 7F F8 FF FF 7F 6A 6D  70 30 66 16 80 F8 FF FF  ......jmp0f.....
01F0: 7F F8 FF FF 7F 6A 6D 70  33 06 05 00 03 06 00 17  .....jmp3.......
0200: 80 02 05 00 18 80 04 39  02 03 02 00 04 00 07 02  .......9........
0210: 00 05 00 37 00 00 01 00  02 00 03 00 02 06 00 19  ...7............
0220: 80 04 29 02 08 06 00 1A  80 08 00 00 1B 80 08 05  ..).............
0230: 00 06 00 1C 1C 80 01 01  02 06 07 00 02 05 00 1D  ................
0240: 80 05 87 02 02 05 00 1E  80 05 57 02 02 07 00 1E  ..........W.....
0250: 80 00 57 02 05 07 00 03  02 00 04 00 07 02 00 05  ..W.............
0260: 00 37 00 00 01 00 02 00  03 00 02 06 00 1F 80 05  .7..............
0270: 77 02 07 06 00 20 80 08  00 00 1B 80 07 05 00 06  w.... ..........
0280: 00 1C 1C 80 01 3C 02 37  3D 80 3E 80 3F 80 40 80  .....<.7=.>.?.@.
0290: 1C 41 80 32 16 80 1F 00  42 80 43 80 44 80 1F 01  .A.2....B.C.D...
02A0: 00                                                .               
```

#### Opcodes

```
  0: 0x01B3 [0x33] EventEntity->Render.Flags0 |= 0x200000 // Bit 21 (flag=0x01)
  1: 0x01B5 [0x03] ExtData[1]->WorkLocal[0] = ExtData[1]->EventPos[0] * 1000.0
  2: 0x01BA [0x03] ExtData[1]->WorkLocal[1] = ExtData[1]->EventPos[2] * 1000.0
  3: 0x01BF [0x03] ExtData[1]->WorkLocal[2] = ExtData[1]->EventPos[1] * 1000.0
  4: 0x01C4 [0x03] ExtData[1]->WorkLocal[3] = enDirCli(ExtData[1]->EventDir[1]) * 4096.0 * 0.15915963
  5: 0x01C9 [0x03] ExtData[1]->WorkLocal[4] = ExtData[1]->EventPos[1] * 1000.0
  6: 0x01CE [0x66] LOAD_EXT_SCHEDULER_MAIN: Load scheduler "jmp0" with entities [EventEntity, EventEntity], work=40*
  7: 0x01DD [0x53] WAIT_SCHEDULER_TASK: Wait for scheduler "jmp0" with entities [EventEntity, EventEntity]
  8: 0x01EA [0x66] LOAD_EXT_SCHEDULER_MAIN: Load scheduler "jmp3" with entities [EventEntity, EventEntity], work=40*
  9: 0x01F9 [0x06] ExtData[1]->WorkLocal[5] = 0
 10: 0x01FC [0x03] ExtData[1]->WorkLocal[6] = 150*
 11: 0x0201 [0x02] IF !(ExtData[1]->WorkLocal[5] < 4294966296*) GOTO 0x0239
 12: 0x0209 [0x03] ExtData[1]->WorkLocal[2] = ExtData[1]->WorkLocal[4]
 13: 0x020E [0x07] ExtData[1]->WorkLocal[2] += ExtData[1]->WorkLocal[5]
 14: 0x0213 [0x37] UPDATE_EVENT_POSITION_AND_DIR: x=ExtData[1]->WorkLocal[0], z=ExtData[1]->WorkLocal[1], y=ExtData[1]->WorkLocal[2], direction=ExtData[1]->WorkLocal[3]
 15: 0x021C [0x02] IF !(ExtData[1]->WorkLocal[6] < 30*) GOTO 0x0229
 16: 0x0224 [0x08] ExtData[1]->WorkLocal[6] -= 10*
 17: 0x0229 [0x08] ExtData[1]->WorkLocal[0] -= 80*
 18: 0x022E [0x08] ExtData[1]->WorkLocal[5] -= ExtData[1]->WorkLocal[6]
 19: 0x0233 [0x1C] WAIT(1* ticks)
 20: 0x0236 [0x01] GOTO 0x0201
 21: 0x0239 [0x06] ExtData[1]->WorkLocal[7] = 0

SUBROUTINE_023C:
 22: 0x023C [0x02] IF !(ExtData[1]->WorkLocal[5] > 18000*) GOTO 0x0287
 23: 0x0244 [0x02] IF !(ExtData[1]->WorkLocal[5] > 0*) GOTO 0x0257
 24: 0x024C [0x02] IF !(ExtData[1]->WorkLocal[7] == 0*) GOTO 0x0257
 25: 0x0254 [0x05] ExtData[1]->WorkLocal[7] = 1
 26: 0x0257 [0x03] ExtData[1]->WorkLocal[2] = ExtData[1]->WorkLocal[4]
 27: 0x025C [0x07] ExtData[1]->WorkLocal[2] += ExtData[1]->WorkLocal[5]
 28: 0x0261 [0x37] UPDATE_EVENT_POSITION_AND_DIR: x=ExtData[1]->WorkLocal[0], z=ExtData[1]->WorkLocal[1], y=ExtData[1]->WorkLocal[2], direction=ExtData[1]->WorkLocal[3]
 29: 0x026A [0x02] IF !(ExtData[1]->WorkLocal[6] > 700*) GOTO 0x0277
 30: 0x0272 [0x07] ExtData[1]->WorkLocal[6] += 15*
 31: 0x0277 [0x08] ExtData[1]->WorkLocal[0] -= 80*
 32: 0x027C [0x07] ExtData[1]->WorkLocal[5] += ExtData[1]->WorkLocal[6]
 33: 0x0281 [0x1C] WAIT(1* ticks)
 34: 0x0284 [0x01] GOTO 0x023C
 35: 0x0287 [0x37] UPDATE_EVENT_POSITION_AND_DIR: x=-8.105*, z=-7.893*, y=-10.000*, direction=309.6°*
 36: 0x0290 [0x1C] WAIT(120* ticks)
 37: 0x0293 [0x32] ExtData[1]->MainSpeed = 40* * 0.1
 38: 0x0296 [0x1F] MOVE_ENTITY: EventEntity moves to X=-14.144*, Z=3.213*, Y=-9.992*
 39: 0x029E [0x1F] MOVE_ENTITY: Update entity position (mode=1)
 40: 0x02A0 [0x00] END_REQSTACK()
```

### Event 65535.13

#### Metadata

| Field        | Value   |
|--------------|---------|
| Entrypoint   | 0x02A1  |
| Data Size    | 1 bytes |
| Instructions | 1       |

```
      00 01 02 03 04 05 06 07  08 09 0A 0B 0C 0D 0E 0F
      -- -- -- -- -- -- -- --  -- -- -- -- -- -- -- --
02A0:    00                                              .              
```

#### Opcodes

```
  0: 0x02A1 [0x00] END_REQSTACK()
```

### Event 561

#### Metadata

| Field        | Value   |
|--------------|---------|
| Entrypoint   | 0x02A2  |
| Data Size    | 1 bytes |
| Instructions | 1       |

```
      00 01 02 03 04 05 06 07  08 09 0A 0B 0C 0D 0E 0F
      -- -- -- -- -- -- -- --  -- -- -- -- -- -- -- --
02A0:       00                                            .             
```

#### Opcodes

```
  0: 0x02A2 [0x00] END_REQSTACK()
```

### Event 560

#### Metadata

| Field        | Value   |
|--------------|---------|
| Entrypoint   | 0x02A3  |
| Data Size    | 1 bytes |
| Instructions | 1       |

```
      00 01 02 03 04 05 06 07  08 09 0A 0B 0C 0D 0E 0F
      -- -- -- -- -- -- -- --  -- -- -- -- -- -- -- --
02A0:          00                                          .            
```

#### Opcodes

```
  0: 0x02A3 [0x00] END_REQSTACK()
```
