# 16883867 - Meret

## Common Data

| Field            | Value                       |
|------------------|-----------------------------|
| Zone             | Tavnazian Safehold (ID: 26) |
| Block Size       | 336 bytes                   |
| Total Events     | 6                           |
| References Count | 20                          |

## List of Events

| Event ID              | Entrypoint   |   Size |   Instructions |
|-----------------------|--------------|--------|----------------|
| [65535](#event-65535) | 0x0000       |      1 |              1 |
| [582](#event-582)     | 0x0001       |     54 |             20 |
| [583](#event-583)     | 0x0037       |     25 |              9 |
| [584](#event-584)     | 0x0050       |     11 |              5 |
| [585](#event-585)     | 0x005B       |     11 |              5 |
| [586](#event-586)     | 0x0066       |    111 |             32 |

## DAT References (imed_data)

|   Index | Hex Value   |   Dec Value |
|---------|-------------|-------------|
|       0 | 0x2E32      |       11826 |
|       1 | 0x0016      |          22 |
|       2 | 0x2E33      |       11827 |
|       3 | 0x2E34      |       11828 |
|       4 | 0x0019      |          25 |
|       5 | 0x2E35      |       11829 |
|       6 | 0x2E36      |       11830 |
|       7 | 0x001A      |          26 |
|       8 | 0x2E37      |       11831 |
|       9 | 0x2E30      |       11824 |
|      10 | 0x2E31      |       11825 |
|      11 | 0x2E38      |       11832 |
|      12 | 0x000B      |          11 |
|      13 | 0x2E39      |       11833 |
|      14 | 0x0800      |        2048 |
|      15 | 0x002D      |          45 |
|      16 | 0x000F      |          15 |
|      17 | 0x0018      |          24 |
|      18 | 0x00B4      |         180 |
|      19 | 0x2E3A      |       11834 |

## String References

- **11824**: What? Yes? Could you please not...talk to me?
- **11825**: Yes? What? If you are not acquainted with Yurim, then I'm not interested in talking with you. Good day.
- **11826**: What have you given to Yurim?
- **11827**: Biolumin matter? I don't quite... Are you making fun of me?
- **11828**: Well. Yes. Maybe you could bring me some of this "biolumin matter." I'm quite wealthy and willing to reward you.
- **11829**: That snake Yurim! How dare she employ complete strangers to aid in her research! I will not be upstaged!
- **11830**: Bring me some of this biolumin matter. In any shape, color, or size. Quickly, now.
- **11831**: Did you bring me something containing biolumin matter? You do realize I have absolutely no interest in engaging you in small talk?
- **11832**: $0... So this is the matter that Yurim has been babbling about.
- **11833**: Yes. Now. How do I present this to Yurim and gain my own...? Hmmm.
- **11834**: Are you still here? Ah, of course. Your "reward." Be sure to bring any more samples you find directly to me.

## Events

### Event 65535

#### Metadata

| Field        | Value   |
|--------------|---------|
| Entrypoint   | 0x0000  |
| Data Size    | 1 bytes |
| Instructions | 1       |

```
      00 01 02 03 04 05 06 07  08 09 0A 0B 0C 0D 0E 0F
      -- -- -- -- -- -- -- --  -- -- -- -- -- -- -- --
0000: 00                                                .               
```

#### Opcodes

```
  0: 0x0000 [0x00] END_REQSTACK()
```

### Event 582

#### Metadata

| Field        | Value    |
|--------------|----------|
| Entrypoint   | 0x0001   |
| Data Size    | 54 bytes |
| Instructions | 20       |

```
      00 01 02 03 04 05 06 07  08 09 0A 0B 0C 0D 0E 0F
      -- -- -- -- -- -- -- --  -- -- -- -- -- -- -- --
0000:    42 1E F0 FF FF 7F 1D  00 80 23 6F 70 6E F8 FF   B........#opn..
0010: FF 7F 01 80 99 F8 FF FF  7F 1D 02 80 23 1D 03 80  ............#...
0020: 23 6E F8 FF FF 7F 04 80  99 F8 FF FF 7F 1D 05 80  #n..............
0030: 23 1D 06 80 23 21 00                              #...#!.         
```

#### Opcodes

```
  0: 0x0001 [0x42] SET_CLI_EVENT_CANCEL_DATA()
  1: 0x0002 [0x1E] EventEntity looks at LocalPlayer and starts talking
  2: 0x0007 [0x1D] PRINT_EVENT_MESSAGE(message_id=11826*)
    → "What have you given to Yurim?"
  3: 0x000A [0x23] WAIT_FOR_DIALOG_INTERACTION
  4: 0x000B [0x6F] WAIT_FRAME_DELAY: Yield until WaitTime reaches zero
  5: 0x000C [0x70] WAIT_ENTITY_RENDER_FLAG: Wait while EventEntity->Render.Flags3 bit 2 is set (cancel turn if not)
  6: 0x000D [0x6E] EventEntity uses emote 22*
  7: 0x0014 [0x99] Wait for EventEntity animation to complete
  8: 0x0019 [0x1D] PRINT_EVENT_MESSAGE(message_id=11827*)
    → "Biolumin matter? I don't quite... Are you making fun of me?"
  9: 0x001C [0x23] WAIT_FOR_DIALOG_INTERACTION
 10: 0x001D [0x1D] PRINT_EVENT_MESSAGE(message_id=11828*)
    → "Well. Yes. Maybe you could bring me some of this "biolumin matter." I'm quite wealthy and willing to reward you."
 11: 0x0020 [0x23] WAIT_FOR_DIALOG_INTERACTION
 12: 0x0021 [0x6E] EventEntity uses emote 25*
 13: 0x0028 [0x99] Wait for EventEntity animation to complete
 14: 0x002D [0x1D] PRINT_EVENT_MESSAGE(message_id=11829*)
    → "That snake Yurim! How dare she employ complete strangers to aid in her research! I will not be upstaged!"
 15: 0x0030 [0x23] WAIT_FOR_DIALOG_INTERACTION
 16: 0x0031 [0x1D] PRINT_EVENT_MESSAGE(message_id=11830*)
    → "Bring me some of this biolumin matter. In any shape, color, or size. Quickly, now."
 17: 0x0034 [0x23] WAIT_FOR_DIALOG_INTERACTION
 18: 0x0035 [0x21] END_EVENT
 19: 0x0036 [0x00] END_REQSTACK()
```

### Event 583

#### Metadata

| Field        | Value    |
|--------------|----------|
| Entrypoint   | 0x0037   |
| Data Size    | 25 bytes |
| Instructions | 9        |

```
      00 01 02 03 04 05 06 07  08 09 0A 0B 0C 0D 0E 0F
      -- -- -- -- -- -- -- --  -- -- -- -- -- -- -- --
0030:                      1E  F0 FF FF 7F 6F 70 6E F8         .....opn.
0040: FF FF 7F 07 80 99 F8 FF  FF 7F 1D 08 80 23 21 00  .............#!.
```

#### Opcodes

```
  0: 0x0037 [0x1E] EventEntity looks at LocalPlayer and starts talking
  1: 0x003C [0x6F] WAIT_FRAME_DELAY: Yield until WaitTime reaches zero
  2: 0x003D [0x70] WAIT_ENTITY_RENDER_FLAG: Wait while EventEntity->Render.Flags3 bit 2 is set (cancel turn if not)
  3: 0x003E [0x6E] EventEntity uses emote 26*
  4: 0x0045 [0x99] Wait for EventEntity animation to complete
  5: 0x004A [0x1D] PRINT_EVENT_MESSAGE(message_id=11831*)
    → "Did you bring me something containing biolumin matter? You do realize I have absolutely no interest in engaging you in small talk?"
  6: 0x004D [0x23] WAIT_FOR_DIALOG_INTERACTION
  7: 0x004E [0x21] END_EVENT
  8: 0x004F [0x00] END_REQSTACK()
```

### Event 584

#### Metadata

| Field        | Value    |
|--------------|----------|
| Entrypoint   | 0x0050   |
| Data Size    | 11 bytes |
| Instructions | 5        |

```
      00 01 02 03 04 05 06 07  08 09 0A 0B 0C 0D 0E 0F
      -- -- -- -- -- -- -- --  -- -- -- -- -- -- -- --
0050: 1E F0 FF FF 7F 1D 09 80  23 21 00                 ........#!.     
```

#### Opcodes

```
  0: 0x0050 [0x1E] EventEntity looks at LocalPlayer and starts talking
  1: 0x0055 [0x1D] PRINT_EVENT_MESSAGE(message_id=11824*)
    → "What? Yes? Could you please not...talk to me?"
  2: 0x0058 [0x23] WAIT_FOR_DIALOG_INTERACTION
  3: 0x0059 [0x21] END_EVENT
  4: 0x005A [0x00] END_REQSTACK()
```

### Event 585

#### Metadata

| Field        | Value    |
|--------------|----------|
| Entrypoint   | 0x005B   |
| Data Size    | 11 bytes |
| Instructions | 5        |

```
      00 01 02 03 04 05 06 07  08 09 0A 0B 0C 0D 0E 0F
      -- -- -- -- -- -- -- --  -- -- -- -- -- -- -- --
0050:                                   1E F0 FF FF 7F             .....
0060: 1D 0A 80 23 21 00                                 ...#!.          
```

#### Opcodes

```
  0: 0x005B [0x1E] EventEntity looks at LocalPlayer and starts talking
  1: 0x0060 [0x1D] PRINT_EVENT_MESSAGE(message_id=11825*)
    → "Yes? What? If you are not acquainted with Yurim, then I'm not interested in talking with you. Good day."
  2: 0x0063 [0x23] WAIT_FOR_DIALOG_INTERACTION
  3: 0x0064 [0x21] END_EVENT
  4: 0x0065 [0x00] END_REQSTACK()
```

### Event 586

#### Metadata

| Field        | Value     |
|--------------|-----------|
| Entrypoint   | 0x0066    |
| Data Size    | 111 bytes |
| Instructions | 32        |

```
      00 01 02 03 04 05 06 07  08 09 0A 0B 0C 0D 0E 0F
      -- -- -- -- -- -- -- --  -- -- -- -- -- -- -- --
0060:                   42 03  01 10 03 10 1E F0 FF FF        B.........
0070: 7F 1D 0B 80 23 6F 70 6E  F8 FF FF 7F 0C 80 99 F8  ....#opn........
0080: FF FF 7F 1D 0D 80 23 3A  F8 FF FF 7F 01 00 03 00  ......#:........
0090: 00 01 00 02 00 00 0E 80  03 A3 00 07 00 00 0E 80  ................
00A0: 01 A8 00 08 00 00 0E 80  1C 0F 80 4B F8 FF FF 7F  ...........K....
00B0: 00 00 6F 70 1C 10 80 6E  F8 FF FF 7F 11 80 99 F8  ..op...n........
00C0: FF FF 7F 1C 12 80 4B F8  FF FF 7F 01 00 6F 70 1D  ......K......op.
00D0: 13 80 23 21 00                                    ..#!.           
```

#### Opcodes

```
  0: 0x0066 [0x42] SET_CLI_EVENT_CANCEL_DATA()
  1: 0x0067 [0x03] Work_Zone[1] = Work_Zone[3]
  2: 0x006C [0x1E] EventEntity looks at LocalPlayer and starts talking
  3: 0x0071 [0x1D] PRINT_EVENT_MESSAGE(message_id=11832*)
    → "$0... So this is the matter that Yurim has been babbling about."
  4: 0x0074 [0x23] WAIT_FOR_DIALOG_INTERACTION
  5: 0x0075 [0x6F] WAIT_FRAME_DELAY: Yield until WaitTime reaches zero
  6: 0x0076 [0x70] WAIT_ENTITY_RENDER_FLAG: Wait while EventEntity->Render.Flags3 bit 2 is set (cancel turn if not)
  7: 0x0077 [0x6E] EventEntity uses emote 11*
  8: 0x007E [0x99] Wait for EventEntity animation to complete
  9: 0x0083 [0x1D] PRINT_EVENT_MESSAGE(message_id=11833*)
    → "Yes. Now. How do I present this to Yurim and gain my own...? Hmmm."
 10: 0x0086 [0x23] WAIT_FOR_DIALOG_INTERACTION
 11: 0x0087 [0x3A] CONVERT_YAW_TO_BYTE(entity=EventEntity, result_destination=ExtData[1]->WorkLocal[1])
 12: 0x008E [0x03] ExtData[1]->WorkLocal[0] = ExtData[1]->WorkLocal[1]
 13: 0x0093 [0x02] IF !(ExtData[1]->WorkLocal[0] >= 2048*) GOTO 0x00A3
 14: 0x009B [0x07] ExtData[1]->WorkLocal[0] += 2048*
 15: 0x00A0 [0x01] GOTO 0x00A8
 16: 0x00A3 [0x08] ExtData[1]->WorkLocal[0] -= 2048*

SUBROUTINE_00A8:
 17: 0x00A8 [0x1C] WAIT(45* ticks)
 18: 0x00AB [0x4B] UPDATE_ENTITY_YAW(entity=EventEntity, yaw=ExtData[1]->WorkLocal[0])
 19: 0x00B2 [0x6F] WAIT_FRAME_DELAY: Yield until WaitTime reaches zero
 20: 0x00B3 [0x70] WAIT_ENTITY_RENDER_FLAG: Wait while EventEntity->Render.Flags3 bit 2 is set (cancel turn if not)
 21: 0x00B4 [0x1C] WAIT(15* ticks)
 22: 0x00B7 [0x6E] EventEntity uses emote 24*
 23: 0x00BE [0x99] Wait for EventEntity animation to complete
 24: 0x00C3 [0x1C] WAIT(180* ticks)
 25: 0x00C6 [0x4B] UPDATE_ENTITY_YAW(entity=EventEntity, yaw=ExtData[1]->WorkLocal[1])
 26: 0x00CD [0x6F] WAIT_FRAME_DELAY: Yield until WaitTime reaches zero
 27: 0x00CE [0x70] WAIT_ENTITY_RENDER_FLAG: Wait while EventEntity->Render.Flags3 bit 2 is set (cancel turn if not)
 28: 0x00CF [0x1D] PRINT_EVENT_MESSAGE(message_id=11834*)
    → "Are you still here? Ah, of course. Your "reward." Be sure to bring any more samples you find directly to me."
 29: 0x00D2 [0x23] WAIT_FOR_DIALOG_INTERACTION
 30: 0x00D3 [0x21] END_EVENT
 31: 0x00D4 [0x00] END_REQSTACK()
```
