# 16883715 - Ulmia

## Common Data

| Field            | Value                       |
|------------------|-----------------------------|
| Zone             | Tavnazian Safehold (ID: 26) |
| Block Size       | 1364 bytes                  |
| Total Events     | 39                          |
| References Count | 89                          |

## List of Events

| Event ID                   | Entrypoint   |   Size |   Instructions |
|----------------------------|--------------|--------|----------------|
| [65535](#event-65535)      | 0x0000       |      7 |              2 |
| [65535.1](#event-655351)   | 0x0007       |     16 |              2 |
| [65535.2](#event-655352)   | 0x0017       |     29 |              3 |
| [65535.3](#event-655353)   | 0x0034       |     16 |              2 |
| [65535.4](#event-655354)   | 0x0044       |     29 |              3 |
| [65535.5](#event-655355)   | 0x0061       |     16 |              2 |
| [65535.6](#event-655356)   | 0x0071       |     29 |              3 |
| [65535.7](#event-655357)   | 0x008E       |     16 |              2 |
| [65535.8](#event-655358)   | 0x009E       |     29 |              3 |
| [65535.9](#event-655359)   | 0x00BB       |     29 |              3 |
| [65535.10](#event-6553510) | 0x00D8       |     29 |              3 |
| [65535.11](#event-6553511) | 0x00F5       |     44 |              4 |
| [65535.12](#event-6553512) | 0x0121       |     16 |              2 |
| [65535.13](#event-6553513) | 0x0131       |     16 |              2 |
| [105](#event-105)          | 0x0141       |     10 |              2 |
| [65535.14](#event-6553514) | 0x014B       |     25 |              6 |
| [65535.15](#event-6553515) | 0x0164       |     10 |              2 |
| [107](#event-107)          | 0x016E       |      1 |              1 |
| [65535.16](#event-6553516) | 0x016F       |     25 |              6 |
| [65535.17](#event-6553517) | 0x0188       |     14 |              4 |
| [110](#event-110)          | 0x0196       |     10 |              2 |
| [65535.18](#event-6553518) | 0x01A0       |     45 |             10 |
| [111](#event-111)          | 0x01CD       |     10 |              2 |
| [65535.19](#event-6553519) | 0x01D7       |     35 |              8 |
| [65535.20](#event-6553520) | 0x01FA       |     15 |              5 |
| [112](#event-112)          | 0x0209       |     10 |              2 |
| [117](#event-117)          | 0x0213       |     20 |              3 |
| [65535.21](#event-6553521) | 0x0227       |     14 |              4 |
| [514](#event-514)          | 0x0235       |      1 |              1 |
| [65535.22](#event-6553522) | 0x0236       |     15 |              3 |
| [518](#event-518)          | 0x0245       |     10 |              2 |
| [65535.23](#event-6553523) | 0x024F       |     42 |              4 |
| [543](#event-543)          | 0x0279       |     10 |              2 |
| [65535.24](#event-6553524) | 0x0283       |     40 |              8 |
| [65535.25](#event-6553525) | 0x02AB       |     91 |             19 |
| [65535.26](#event-6553526) | 0x0306       |     18 |              4 |
| [629](#event-629)          | 0x0318       |      1 |              1 |
| [65535.27](#event-6553527) | 0x0319       |     27 |              7 |
| [65535.28](#event-6553528) | 0x0334       |     14 |              4 |

## DAT References (imed_data)

|   Index | Hex Value   |   Dec Value |
|---------|-------------|-------------|
|       0 | 0x01A4      |         420 |
|       1 | 0x01A7      |         423 |
|       2 | 0x01A5      |         421 |
|       3 | 0x01A6      |         422 |
|       4 | 0xFFFFF835  |  4294965301 |
|       5 | 0x4BBA      |       19386 |
|       6 | 0xFFFFA78E  |  4294944654 |
|       7 | 0x0DD9      |        3545 |
|       8 | 0x000D      |          13 |
|       9 | 0xFFFFFC8C  |  4294966412 |
|      10 | 0x5527      |       21799 |
|      11 | 0xFFFFA723  |  4294944547 |
|      12 | 0x05C2      |        1474 |
|      13 | 0x5266      |       21094 |
|      14 | 0xFFFFA70C  |  4294944524 |
|      15 | 0x0D7C      |        3452 |
|      16 | 0x00C8      |         200 |
|      17 | 0xFFFFB27E  |  4294947454 |
|      18 | 0xFFFFE1DE  |  4294959582 |
|      19 | 0x0C2B      |        3115 |
|      20 | 0xFFFFF283  |  4294963843 |
|      21 | 0xFFFFDCE0  |  4294958304 |
|      22 | 0xFFFFF482  |  4294964354 |
|      23 | 0x3A31      |       14897 |
|      24 | 0xFFFFD8F8  |  4294957304 |
|      25 | 0x15984     |       88452 |
|      26 | 0xE91D      |       59677 |
|      27 | 0xFFFF7C76  |  4294933622 |
|      28 | 0x0A4C      |        2636 |
|      29 | 0x15658     |       87640 |
|      30 | 0xEF4E      |       61262 |
|      31 | 0xFFFF7C31  |  4294933553 |
|      32 | 0x1504F     |       86095 |
|      33 | 0xFA14      |       64020 |
|      34 | 0xFFFF7BAA  |  4294933418 |
|      35 | 0x14584     |       83332 |
|      36 | 0x1024B     |       66123 |
|      37 | 0xFFFF7B56  |  4294933334 |
|      38 | 0x1F43F     |      128063 |
|      39 | 0xB424      |       46116 |
|      40 | 0xFFFF5FD8  |  4294926296 |
|      41 | 0x0EE3      |        3811 |
|      42 | 0x0028      |          40 |
|      43 | 0x1FD08     |      130312 |
|      44 | 0xBB05      |       47877 |
|      45 | 0xFFFF5F77  |  4294926199 |
|      46 | 0x218FB     |      137467 |
|      47 | 0xC2DB      |       49883 |
|      48 | 0xFFFF63C0  |  4294927296 |
|      49 | 0x20DCE     |      134606 |
|      50 | 0xBF90      |       49040 |
|      51 | 0x1B2C4     |      111300 |
|      52 | 0xFFFEBB3C  |  4294884156 |
|      53 | 0x052A      |        1322 |
|      54 | 0x1AEA4     |      110244 |
|      55 | 0xFFFEB9A2  |  4294883746 |
|      56 | 0xFFFF63B1  |  4294927281 |
|      57 | 0x02C1      |         705 |
|      58 | 0x19163     |      102755 |
|      59 | 0xFFFEF378  |  4294898552 |
|      60 | 0xFFFF5E8B  |  4294925963 |
|      61 | 0x17395     |       95125 |
|      62 | 0xCCBF      |       52415 |
|      63 | 0xFFFF5FD9  |  4294926297 |
|      64 | 0x0539      |        1337 |
|      65 | 0xFFFD5F6F  |  4294795119 |
|      66 | 0xFFFB20EB  |  4294648043 |
|      67 | 0xFFFF8106  |  4294934790 |
|      68 | 0x0630      |        1584 |
|      69 | 0x233AD     |      144301 |
|      70 | 0xC239      |       49721 |
|      71 | 0x0927      |        2343 |
|      72 | 0x22D98     |      142744 |
|      73 | 0xC549      |       50505 |
|      74 | 0x07C5      |        1989 |
|      75 | 0x218B6     |      137398 |
|      76 | 0xBCA6      |       48294 |
|      77 | 0x0032      |          50 |
|      78 | 0x003C      |          60 |
|      79 | 0x03E8      |        1000 |
|      80 | 0x0000      |           0 |
|      81 | 0x0212      |         530 |
|      82 | 0xFFFFC78D  |  4294952845 |
|      83 | 0x1DFBF     |      122815 |
|      84 | 0xFFFF987A  |  4294940794 |
|      85 | 0x001E      |          30 |
|      86 | 0xFFFFB92F  |  4294949167 |
|      87 | 0x1C7A3     |      116643 |
|      88 | 0xFFFF940C  |  4294939660 |

## Events

### Event 65535

#### Metadata

| Field        | Value   |
|--------------|---------|
| Entrypoint   | 0x0000  |
| Data Size    | 7 bytes |
| Instructions | 2       |

```
      00 01 02 03 04 05 06 07  08 09 0A 0B 0C 0D 0E 0F
      -- -- -- -- -- -- -- --  -- -- -- -- -- -- -- --
0000: 92 01 F8 FF FF 7F 00                              .......         
```

#### Opcodes

```
  0: 0x0000 [0x92] EventEntity->Render.Flags3 ^= 0x01
  1: 0x0006 [0x00] END_REQSTACK()
```

### Event 65535.1

#### Metadata

| Field        | Value    |
|--------------|----------|
| Entrypoint   | 0x0007   |
| Data Size    | 16 bytes |
| Instructions | 2        |

```
      00 01 02 03 04 05 06 07  08 09 0A 0B 0C 0D 0E 0F
      -- -- -- -- -- -- -- --  -- -- -- -- -- -- -- --
0000:                      5B  00 80 F8 FF FF 7F F8 FF         [........
0010: FF 7F 74 6C 63 30 00                              ..tlc0.         
```

#### Opcodes

```
  0: 0x0007 [0x5B] LOAD_EXT_SCHEDULER: Load scheduler "tlc0" with entities [EventEntity, EventEntity], work=420*
  1: 0x0016 [0x00] END_REQSTACK()
```

### Event 65535.2

#### Metadata

| Field        | Value    |
|--------------|----------|
| Entrypoint   | 0x0017   |
| Data Size    | 29 bytes |
| Instructions | 3        |

```
      00 01 02 03 04 05 06 07  08 09 0A 0B 0C 0D 0E 0F
      -- -- -- -- -- -- -- --  -- -- -- -- -- -- -- --
0010:                      5B  00 80 F8 FF FF 7F F8 FF         [........
0020: FF 7F 74 6C 63 31 53 F8  FF FF 7F F8 FF FF 7F 74  ..tlc1S........t
0030: 6C 63 31 00                                       lc1.            
```

#### Opcodes

```
  0: 0x0017 [0x5B] LOAD_EXT_SCHEDULER: Load scheduler "tlc1" with entities [EventEntity, EventEntity], work=420*
  1: 0x0026 [0x53] WAIT_SCHEDULER_TASK: Wait for scheduler "tlc1" with entities [EventEntity, EventEntity]
  2: 0x0033 [0x00] END_REQSTACK()
```

### Event 65535.3

#### Metadata

| Field        | Value    |
|--------------|----------|
| Entrypoint   | 0x0034   |
| Data Size    | 16 bytes |
| Instructions | 2        |

```
      00 01 02 03 04 05 06 07  08 09 0A 0B 0C 0D 0E 0F
      -- -- -- -- -- -- -- --  -- -- -- -- -- -- -- --
0030:             5B 00 80 F8  FF FF 7F F8 FF FF 7F 74      [..........t
0040: 6C 61 30 00                                       la0.            
```

#### Opcodes

```
  0: 0x0034 [0x5B] LOAD_EXT_SCHEDULER: Load scheduler "tla0" with entities [EventEntity, EventEntity], work=420*
  1: 0x0043 [0x00] END_REQSTACK()
```

### Event 65535.4

#### Metadata

| Field        | Value    |
|--------------|----------|
| Entrypoint   | 0x0044   |
| Data Size    | 29 bytes |
| Instructions | 3        |

```
      00 01 02 03 04 05 06 07  08 09 0A 0B 0C 0D 0E 0F
      -- -- -- -- -- -- -- --  -- -- -- -- -- -- -- --
0040:             5B 00 80 F8  FF FF 7F F8 FF FF 7F 74      [..........t
0050: 6C 61 31 53 F8 FF FF 7F  F8 FF FF 7F 74 6C 61 31  la1S........tla1
0060: 00                                                .               
```

#### Opcodes

```
  0: 0x0044 [0x5B] LOAD_EXT_SCHEDULER: Load scheduler "tla1" with entities [EventEntity, EventEntity], work=420*
  1: 0x0053 [0x53] WAIT_SCHEDULER_TASK: Wait for scheduler "tla1" with entities [EventEntity, EventEntity]
  2: 0x0060 [0x00] END_REQSTACK()
```

### Event 65535.5

#### Metadata

| Field        | Value    |
|--------------|----------|
| Entrypoint   | 0x0061   |
| Data Size    | 16 bytes |
| Instructions | 2        |

```
      00 01 02 03 04 05 06 07  08 09 0A 0B 0C 0D 0E 0F
      -- -- -- -- -- -- -- --  -- -- -- -- -- -- -- --
0060:    5B 00 80 F8 FF FF 7F  F8 FF FF 7F 74 6C 62 30   [..........tlb0
0070: 00                                                .               
```

#### Opcodes

```
  0: 0x0061 [0x5B] LOAD_EXT_SCHEDULER: Load scheduler "tlb0" with entities [EventEntity, EventEntity], work=420*
  1: 0x0070 [0x00] END_REQSTACK()
```

### Event 65535.6

#### Metadata

| Field        | Value    |
|--------------|----------|
| Entrypoint   | 0x0071   |
| Data Size    | 29 bytes |
| Instructions | 3        |

```
      00 01 02 03 04 05 06 07  08 09 0A 0B 0C 0D 0E 0F
      -- -- -- -- -- -- -- --  -- -- -- -- -- -- -- --
0070:    5B 00 80 F8 FF FF 7F  F8 FF FF 7F 74 6C 62 31   [..........tlb1
0080: 53 F8 FF FF 7F F8 FF FF  7F 74 6C 62 31 00        S........tlb1.  
```

#### Opcodes

```
  0: 0x0071 [0x5B] LOAD_EXT_SCHEDULER: Load scheduler "tlb1" with entities [EventEntity, EventEntity], work=420*
  1: 0x0080 [0x53] WAIT_SCHEDULER_TASK: Wait for scheduler "tlb1" with entities [EventEntity, EventEntity]
  2: 0x008D [0x00] END_REQSTACK()
```

### Event 65535.7

#### Metadata

| Field        | Value    |
|--------------|----------|
| Entrypoint   | 0x008E   |
| Data Size    | 16 bytes |
| Instructions | 2        |

```
      00 01 02 03 04 05 06 07  08 09 0A 0B 0C 0D 0E 0F
      -- -- -- -- -- -- -- --  -- -- -- -- -- -- -- --
0080:                                            5B 01                [.
0090: 80 F8 FF FF 7F F8 FF FF  7F 68 74 61 30 00        .........hta0.  
```

#### Opcodes

```
  0: 0x008E [0x5B] LOAD_EXT_SCHEDULER: Load scheduler "hta0" with entities [EventEntity, EventEntity], work=423*
  1: 0x009D [0x00] END_REQSTACK()
```

### Event 65535.8

#### Metadata

| Field        | Value    |
|--------------|----------|
| Entrypoint   | 0x009E   |
| Data Size    | 29 bytes |
| Instructions | 3        |

```
      00 01 02 03 04 05 06 07  08 09 0A 0B 0C 0D 0E 0F
      -- -- -- -- -- -- -- --  -- -- -- -- -- -- -- --
0090:                                            5B 01                [.
00A0: 80 F8 FF FF 7F F8 FF FF  7F 68 74 61 31 53 F8 FF  .........hta1S..
00B0: FF 7F F8 FF FF 7F 68 74  61 31 00                 ......hta1.     
```

#### Opcodes

```
  0: 0x009E [0x5B] LOAD_EXT_SCHEDULER: Load scheduler "hta1" with entities [EventEntity, EventEntity], work=423*
  1: 0x00AD [0x53] WAIT_SCHEDULER_TASK: Wait for scheduler "hta1" with entities [EventEntity, EventEntity]
  2: 0x00BA [0x00] END_REQSTACK()
```

### Event 65535.9

#### Metadata

| Field        | Value    |
|--------------|----------|
| Entrypoint   | 0x00BB   |
| Data Size    | 29 bytes |
| Instructions | 3        |

```
      00 01 02 03 04 05 06 07  08 09 0A 0B 0C 0D 0E 0F
      -- -- -- -- -- -- -- --  -- -- -- -- -- -- -- --
00B0:                                   5B 02 80 F8 FF             [....
00C0: FF 7F F8 FF FF 7F 68 72  70 32 53 F8 FF FF 7F F8  ......hrp2S.....
00D0: FF FF 7F 68 72 70 32 00                           ...hrp2.        
```

#### Opcodes

```
  0: 0x00BB [0x5B] LOAD_EXT_SCHEDULER: Load scheduler "hrp2" with entities [EventEntity, EventEntity], work=421*
  1: 0x00CA [0x53] WAIT_SCHEDULER_TASK: Wait for scheduler "hrp2" with entities [EventEntity, EventEntity]
  2: 0x00D7 [0x00] END_REQSTACK()
```

### Event 65535.10

#### Metadata

| Field        | Value    |
|--------------|----------|
| Entrypoint   | 0x00D8   |
| Data Size    | 29 bytes |
| Instructions | 3        |

```
      00 01 02 03 04 05 06 07  08 09 0A 0B 0C 0D 0E 0F
      -- -- -- -- -- -- -- --  -- -- -- -- -- -- -- --
00D0:                          5B 02 80 F8 FF FF 7F F8          [.......
00E0: FF FF 7F 68 72 70 33 53  F8 FF FF 7F F8 FF FF 7F  ...hrp3S........
00F0: 68 72 70 33 00                                    hrp3.           
```

#### Opcodes

```
  0: 0x00D8 [0x5B] LOAD_EXT_SCHEDULER: Load scheduler "hrp3" with entities [EventEntity, EventEntity], work=421*
  1: 0x00E7 [0x53] WAIT_SCHEDULER_TASK: Wait for scheduler "hrp3" with entities [EventEntity, EventEntity]
  2: 0x00F4 [0x00] END_REQSTACK()
```

### Event 65535.11

#### Metadata

| Field        | Value    |
|--------------|----------|
| Entrypoint   | 0x00F5   |
| Data Size    | 44 bytes |
| Instructions | 4        |

```
      00 01 02 03 04 05 06 07  08 09 0A 0B 0C 0D 0E 0F
      -- -- -- -- -- -- -- --  -- -- -- -- -- -- -- --
00F0:                5B 03 80  F8 FF FF 7F F8 FF FF 7F       [..........
0100: 6E 6F 30 30 53 F8 FF FF  7F F8 FF FF 7F 6E 6F 30  no00S........no0
0110: 30 5B 03 80 F8 FF FF 7F  F8 FF FF 7F 6E 6F 30 31  0[..........no01
0120: 00                                                .               
```

#### Opcodes

```
  0: 0x00F5 [0x5B] LOAD_EXT_SCHEDULER: Load scheduler "no00" with entities [EventEntity, EventEntity], work=422*
  1: 0x0104 [0x53] WAIT_SCHEDULER_TASK: Wait for scheduler "no00" with entities [EventEntity, EventEntity]
  2: 0x0111 [0x5B] LOAD_EXT_SCHEDULER: Load scheduler "no01" with entities [EventEntity, EventEntity], work=422*
  3: 0x0120 [0x00] END_REQSTACK()
```

### Event 65535.12

#### Metadata

| Field        | Value    |
|--------------|----------|
| Entrypoint   | 0x0121   |
| Data Size    | 16 bytes |
| Instructions | 2        |

```
      00 01 02 03 04 05 06 07  08 09 0A 0B 0C 0D 0E 0F
      -- -- -- -- -- -- -- --  -- -- -- -- -- -- -- --
0120:    5B 00 80 F8 FF FF 7F  F8 FF FF 7F 74 6C 63 30   [..........tlc0
0130: 00                                                .               
```

#### Opcodes

```
  0: 0x0121 [0x5B] LOAD_EXT_SCHEDULER: Load scheduler "tlc0" with entities [EventEntity, EventEntity], work=420*
  1: 0x0130 [0x00] END_REQSTACK()
```

### Event 65535.13

#### Metadata

| Field        | Value    |
|--------------|----------|
| Entrypoint   | 0x0131   |
| Data Size    | 16 bytes |
| Instructions | 2        |

```
      00 01 02 03 04 05 06 07  08 09 0A 0B 0C 0D 0E 0F
      -- -- -- -- -- -- -- --  -- -- -- -- -- -- -- --
0130:    5B 00 80 F8 FF FF 7F  F8 FF FF 7F 74 6C 63 31   [..........tlc1
0140: 00                                                .               
```

#### Opcodes

```
  0: 0x0131 [0x5B] LOAD_EXT_SCHEDULER: Load scheduler "tlc1" with entities [EventEntity, EventEntity], work=420*
  1: 0x0140 [0x00] END_REQSTACK()
```

### Event 105

#### Metadata

| Field        | Value    |
|--------------|----------|
| Entrypoint   | 0x0141   |
| Data Size    | 10 bytes |
| Instructions | 2        |

```
      00 01 02 03 04 05 06 07  08 09 0A 0B 0C 0D 0E 0F
      -- -- -- -- -- -- -- --  -- -- -- -- -- -- -- --
0140:    37 04 80 05 80 06 80  07 80 00                  7.........     
```

#### Opcodes

```
  0: 0x0141 [0x37] UPDATE_EVENT_POSITION_AND_DIR: x=-1.995*, z=19.386*, y=-22.642*, direction=311.6°*
  1: 0x014A [0x00] END_REQSTACK()
```

### Event 65535.14

#### Metadata

| Field        | Value    |
|--------------|----------|
| Entrypoint   | 0x014B   |
| Data Size    | 25 bytes |
| Instructions | 6        |

```
      00 01 02 03 04 05 06 07  08 09 0A 0B 0C 0D 0E 0F
      -- -- -- -- -- -- -- --  -- -- -- -- -- -- -- --
0140:                                   79 00 03 A0 01             y....
0150: 01 04 A0 01 01 32 08 80  1F 00 09 80 0A 80 0B 80  .....2..........
0160: 1F 01 6F 00                                       ..o.            
```

#### Opcodes

```
  0: 0x014B [0x79] Ulmia (ID: 16883715/0x0101A003) looks at Prishe (ID: 16883716/0x0101A004) (Basic look)
  1: 0x0155 [0x32] ExtData[1]->MainSpeed = 13* * 0.1
  2: 0x0158 [0x1F] MOVE_ENTITY: EventEntity moves to X=-0.884*, Z=21.799*, Y=-22.749*
  3: 0x0160 [0x1F] MOVE_ENTITY: Update entity position (mode=1)
  4: 0x0162 [0x6F] WAIT_FRAME_DELAY: Yield until WaitTime reaches zero
  5: 0x0163 [0x00] END_REQSTACK()
```

### Event 65535.15

#### Metadata

| Field        | Value    |
|--------------|----------|
| Entrypoint   | 0x0164   |
| Data Size    | 10 bytes |
| Instructions | 2        |

```
      00 01 02 03 04 05 06 07  08 09 0A 0B 0C 0D 0E 0F
      -- -- -- -- -- -- -- --  -- -- -- -- -- -- -- --
0160:             37 0C 80 0D  80 0E 80 0F 80 00            7.........  
```

#### Opcodes

```
  0: 0x0164 [0x37] UPDATE_EVENT_POSITION_AND_DIR: x=1.474*, z=21.094*, y=-22.772*, direction=303.4°*
  1: 0x016D [0x00] END_REQSTACK()
```

### Event 107

#### Metadata

| Field        | Value   |
|--------------|---------|
| Entrypoint   | 0x016E  |
| Data Size    | 1 bytes |
| Instructions | 1       |

```
      00 01 02 03 04 05 06 07  08 09 0A 0B 0C 0D 0E 0F
      -- -- -- -- -- -- -- --  -- -- -- -- -- -- -- --
0160:                                            00                   . 
```

#### Opcodes

```
  0: 0x016E [0x00] END_REQSTACK()
```

### Event 65535.16

#### Metadata

| Field        | Value    |
|--------------|----------|
| Entrypoint   | 0x016F   |
| Data Size    | 25 bytes |
| Instructions | 6        |

```
      00 01 02 03 04 05 06 07  08 09 0A 0B 0C 0D 0E 0F
      -- -- -- -- -- -- -- --  -- -- -- -- -- -- -- --
0160:                                               32                 2
0170: 08 80 22 00 37 10 80 11  80 12 80 13 80 1F 00 10  ..".7...........
0180: 80 14 80 15 80 1F 01 00                           ........        
```

#### Opcodes

```
  0: 0x016F [0x32] ExtData[1]->MainSpeed = 13* * 0.1
  1: 0x0172 [0x22] ENTITY_HIDE_FLAG(enabled=0x00)
  2: 0x0174 [0x37] UPDATE_EVENT_POSITION_AND_DIR: x=0.200*, z=-19.842*, y=-7.714*, direction=273.8°*
  3: 0x017D [0x1F] MOVE_ENTITY: EventEntity moves to X=0.200*, Z=-3.453*, Y=-8.992*
  4: 0x0185 [0x1F] MOVE_ENTITY: Update entity position (mode=1)
  5: 0x0187 [0x00] END_REQSTACK()
```

### Event 65535.17

#### Metadata

| Field        | Value    |
|--------------|----------|
| Entrypoint   | 0x0188   |
| Data Size    | 14 bytes |
| Instructions | 4        |

```
      00 01 02 03 04 05 06 07  08 09 0A 0B 0C 0D 0E 0F
      -- -- -- -- -- -- -- --  -- -- -- -- -- -- -- --
0180:                          32 08 80 1F 00 16 80 17          2.......
0190: 80 18 80 1F 01 00                                 ......          
```

#### Opcodes

```
  0: 0x0188 [0x32] ExtData[1]->MainSpeed = 13* * 0.1
  1: 0x018B [0x1F] MOVE_ENTITY: EventEntity moves to X=-2.942*, Z=14.897*, Y=-9.992*
  2: 0x0193 [0x1F] MOVE_ENTITY: Update entity position (mode=1)
  3: 0x0195 [0x00] END_REQSTACK()
```

### Event 110

#### Metadata

| Field        | Value    |
|--------------|----------|
| Entrypoint   | 0x0196   |
| Data Size    | 10 bytes |
| Instructions | 2        |

```
      00 01 02 03 04 05 06 07  08 09 0A 0B 0C 0D 0E 0F
      -- -- -- -- -- -- -- --  -- -- -- -- -- -- -- --
0190:                   37 19  80 1A 80 1B 80 1C 80 00        7.........
```

#### Opcodes

```
  0: 0x0196 [0x37] UPDATE_EVENT_POSITION_AND_DIR: x=88.452*, z=59.677*, y=-33.674*, direction=231.7°*
  1: 0x019F [0x00] END_REQSTACK()
```

### Event 65535.18

#### Metadata

| Field        | Value    |
|--------------|----------|
| Entrypoint   | 0x01A0   |
| Data Size    | 45 bytes |
| Instructions | 10       |

```
      00 01 02 03 04 05 06 07  08 09 0A 0B 0C 0D 0E 0F
      -- -- -- -- -- -- -- --  -- -- -- -- -- -- -- --
01A0: 32 08 80 1F 00 1D 80 1E  80 1F 80 1F 01 1F 00 20  2.............. 
01B0: 80 21 80 22 80 1F 01 79  00 F8 FF FF 7F 0A A0 01  .!."...y........
01C0: 01 1F 00 23 80 24 80 25  80 1F 01 6F 00           ...#.$.%...o.   
```

#### Opcodes

```
  0: 0x01A0 [0x32] ExtData[1]->MainSpeed = 13* * 0.1
  1: 0x01A3 [0x1F] MOVE_ENTITY: EventEntity moves to X=87.640*, Z=61.262*, Y=-33.743*
  2: 0x01AB [0x1F] MOVE_ENTITY: Update entity position (mode=1)
  3: 0x01AD [0x1F] MOVE_ENTITY: EventEntity moves to X=86.095*, Z=64.020*, Y=-33.878*
  4: 0x01B5 [0x1F] MOVE_ENTITY: Update entity position (mode=1)
  5: 0x01B7 [0x79] EventEntity looks at Justinius (ID: 16883722/0x0101A00A) (Basic look)
  6: 0x01C1 [0x1F] MOVE_ENTITY: EventEntity moves to X=83.332*, Z=66.123*, Y=-33.962*
  7: 0x01C9 [0x1F] MOVE_ENTITY: Update entity position (mode=1)
  8: 0x01CB [0x6F] WAIT_FRAME_DELAY: Yield until WaitTime reaches zero
  9: 0x01CC [0x00] END_REQSTACK()
```

### Event 111

#### Metadata

| Field        | Value    |
|--------------|----------|
| Entrypoint   | 0x01CD   |
| Data Size    | 10 bytes |
| Instructions | 2        |

```
      00 01 02 03 04 05 06 07  08 09 0A 0B 0C 0D 0E 0F
      -- -- -- -- -- -- -- --  -- -- -- -- -- -- -- --
01C0:                                         37 26 80               7&.
01D0: 27 80 28 80 29 80 00                              '.(.)..         
```

#### Opcodes

```
  0: 0x01CD [0x37] UPDATE_EVENT_POSITION_AND_DIR: x=128.063*, z=46.116*, y=-41.000*, direction=334.9°*
  1: 0x01D6 [0x00] END_REQSTACK()
```

### Event 65535.19

#### Metadata

| Field        | Value    |
|--------------|----------|
| Entrypoint   | 0x01D7   |
| Data Size    | 35 bytes |
| Instructions | 8        |

```
      00 01 02 03 04 05 06 07  08 09 0A 0B 0C 0D 0E 0F
      -- -- -- -- -- -- -- --  -- -- -- -- -- -- -- --
01D0:                      79  00 F8 FF FF 7F 04 A0 01         y........
01E0: 01 32 2A 80 1F 00 2B 80  2C 80 2D 80 1F 01 1F 00  .2*...+.,.-.....
01F0: 2E 80 2F 80 30 80 1F 01  6F 00                    ../.0...o.      
```

#### Opcodes

```
  0: 0x01D7 [0x79] EventEntity looks at Prishe (ID: 16883716/0x0101A004) (Basic look)
  1: 0x01E1 [0x32] ExtData[1]->MainSpeed = 40* * 0.1
  2: 0x01E4 [0x1F] MOVE_ENTITY: EventEntity moves to X=130.312*, Z=47.877*, Y=-41.097*
  3: 0x01EC [0x1F] MOVE_ENTITY: Update entity position (mode=1)
  4: 0x01EE [0x1F] MOVE_ENTITY: EventEntity moves to X=137.467*, Z=49.883*, Y=-40.000*
  5: 0x01F6 [0x1F] MOVE_ENTITY: Update entity position (mode=1)
  6: 0x01F8 [0x6F] WAIT_FRAME_DELAY: Yield until WaitTime reaches zero
  7: 0x01F9 [0x00] END_REQSTACK()
```

### Event 65535.20

#### Metadata

| Field        | Value    |
|--------------|----------|
| Entrypoint   | 0x01FA   |
| Data Size    | 15 bytes |
| Instructions | 5        |

```
      00 01 02 03 04 05 06 07  08 09 0A 0B 0C 0D 0E 0F
      -- -- -- -- -- -- -- --  -- -- -- -- -- -- -- --
01F0:                                32 08 80 1F 00 31            2....1
0200: 80 32 80 30 80 1F 01 6F  00                       .2.0...o.       
```

#### Opcodes

```
  0: 0x01FA [0x32] ExtData[1]->MainSpeed = 13* * 0.1
  1: 0x01FD [0x1F] MOVE_ENTITY: EventEntity moves to X=134.606*, Z=49.040*, Y=-40.000*
  2: 0x0205 [0x1F] MOVE_ENTITY: Update entity position (mode=1)
  3: 0x0207 [0x6F] WAIT_FRAME_DELAY: Yield until WaitTime reaches zero
  4: 0x0208 [0x00] END_REQSTACK()
```

### Event 112

#### Metadata

| Field        | Value    |
|--------------|----------|
| Entrypoint   | 0x0209   |
| Data Size    | 10 bytes |
| Instructions | 2        |

```
      00 01 02 03 04 05 06 07  08 09 0A 0B 0C 0D 0E 0F
      -- -- -- -- -- -- -- --  -- -- -- -- -- -- -- --
0200:                             37 33 80 34 80 30 80           73.4.0.
0210: 35 80 00                                          5..             
```

#### Opcodes

```
  0: 0x0209 [0x37] UPDATE_EVENT_POSITION_AND_DIR: x=111.300*, z=-83.140*, y=-40.000*, direction=116.2°*
  1: 0x0212 [0x00] END_REQSTACK()
```

### Event 117

#### Metadata

| Field        | Value    |
|--------------|----------|
| Entrypoint   | 0x0213   |
| Data Size    | 20 bytes |
| Instructions | 3        |

```
      00 01 02 03 04 05 06 07  08 09 0A 0B 0C 0D 0E 0F
      -- -- -- -- -- -- -- --  -- -- -- -- -- -- -- --
0210:          79 00 F8 FF FF  7F 09 A0 01 01 37 36 80     y.........76.
0220: 37 80 38 80 39 80 00                              7.8.9..         
```

#### Opcodes

```
  0: 0x0213 [0x79] EventEntity looks at Despachiaire (ID: 16883721/0x0101A009) (Basic look)
  1: 0x021D [0x37] UPDATE_EVENT_POSITION_AND_DIR: x=110.244*, z=-83.550*, y=-40.015*, direction=62.0°*
  2: 0x0226 [0x00] END_REQSTACK()
```

### Event 65535.21

#### Metadata

| Field        | Value    |
|--------------|----------|
| Entrypoint   | 0x0227   |
| Data Size    | 14 bytes |
| Instructions | 4        |

```
      00 01 02 03 04 05 06 07  08 09 0A 0B 0C 0D 0E 0F
      -- -- -- -- -- -- -- --  -- -- -- -- -- -- -- --
0220:                      32  2A 80 1F 00 3A 80 3B 80         2*...:.;.
0230: 3C 80 1F 01 00                                    <....           
```

#### Opcodes

```
  0: 0x0227 [0x32] ExtData[1]->MainSpeed = 40* * 0.1
  1: 0x022A [0x1F] MOVE_ENTITY: EventEntity moves to X=102.755*, Z=-68.744*, Y=-41.333*
  2: 0x0232 [0x1F] MOVE_ENTITY: Update entity position (mode=1)
  3: 0x0234 [0x00] END_REQSTACK()
```

### Event 514

#### Metadata

| Field        | Value   |
|--------------|---------|
| Entrypoint   | 0x0235  |
| Data Size    | 1 bytes |
| Instructions | 1       |

```
      00 01 02 03 04 05 06 07  08 09 0A 0B 0C 0D 0E 0F
      -- -- -- -- -- -- -- --  -- -- -- -- -- -- -- --
0230:                00                                      .          
```

#### Opcodes

```
  0: 0x0235 [0x00] END_REQSTACK()
```

### Event 65535.22

#### Metadata

| Field        | Value    |
|--------------|----------|
| Entrypoint   | 0x0236   |
| Data Size    | 15 bytes |
| Instructions | 3        |

```
      00 01 02 03 04 05 06 07  08 09 0A 0B 0C 0D 0E 0F
      -- -- -- -- -- -- -- --  -- -- -- -- -- -- -- --
0230:                   37 3D  80 3E 80 3F 80 40 80 1E        7=.>.?.@..
0240: 04 A0 01 01 00                                    .....           
```

#### Opcodes

```
  0: 0x0236 [0x37] UPDATE_EVENT_POSITION_AND_DIR: x=95.125*, z=52.415*, y=-40.999*, direction=117.5°*
  1: 0x023F [0x1E] EventEntity looks at Prishe (ID: 16883716/0x0101A004) and starts talking
  2: 0x0244 [0x00] END_REQSTACK()
```

### Event 518

#### Metadata

| Field        | Value    |
|--------------|----------|
| Entrypoint   | 0x0245   |
| Data Size    | 10 bytes |
| Instructions | 2        |

```
      00 01 02 03 04 05 06 07  08 09 0A 0B 0C 0D 0E 0F
      -- -- -- -- -- -- -- --  -- -- -- -- -- -- -- --
0240:                37 41 80  42 80 43 80 44 80 00          7A.B.C.D.. 
```

#### Opcodes

```
  0: 0x0245 [0x37] UPDATE_EVENT_POSITION_AND_DIR: x=-172.177*, z=-319.253*, y=-32.506*, direction=139.2°*
  1: 0x024E [0x00] END_REQSTACK()
```

### Event 65535.23

#### Metadata

| Field        | Value    |
|--------------|----------|
| Entrypoint   | 0x024F   |
| Data Size    | 42 bytes |
| Instructions | 4        |

```
      00 01 02 03 04 05 06 07  08 09 0A 0B 0C 0D 0E 0F
      -- -- -- -- -- -- -- --  -- -- -- -- -- -- -- --
0240:                                               2C                 ,
0250: 03 A0 01 01 03 A0 01 01  77 6F 6E 32 5B 02 80 03  ........won2[...
0260: A0 01 01 03 A0 01 01 68  72 70 32 53 03 A0 01 01  .......hrp2S....
0270: 03 A0 01 01 68 72 70 32  00                       ....hrp2.       
```

#### Opcodes

```
  0: 0x024F [0x2C] CREATE_SCHEDULER_TASK: Create scheduler "won2" with entities [Ulmia (ID: 16883715/0x0101A003), Ulmia (ID: 16883715/0x0101A003)]
  1: 0x025C [0x5B] LOAD_EXT_SCHEDULER: Load scheduler "hrp2" with entities [Ulmia (ID: 16883715/0x0101A003), Ulmia (ID: 16883715/0x0101A003)], work=421*
  2: 0x026B [0x53] WAIT_SCHEDULER_TASK: Wait for scheduler "hrp2" with entities [Ulmia (ID: 16883715/0x0101A003), Ulmia (ID: 16883715/0x0101A003)]
  3: 0x0278 [0x00] END_REQSTACK()
```

### Event 543

#### Metadata

| Field        | Value    |
|--------------|----------|
| Entrypoint   | 0x0279   |
| Data Size    | 10 bytes |
| Instructions | 2        |

```
      00 01 02 03 04 05 06 07  08 09 0A 0B 0C 0D 0E 0F
      -- -- -- -- -- -- -- --  -- -- -- -- -- -- -- --
0270:                             37 45 80 46 80 30 80           7E.F.0.
0280: 47 80 00                                          G..             
```

#### Opcodes

```
  0: 0x0279 [0x37] UPDATE_EVENT_POSITION_AND_DIR: x=144.301*, z=49.721*, y=-40.000*, direction=205.9°*
  1: 0x0282 [0x00] END_REQSTACK()
```

### Event 65535.24

#### Metadata

| Field        | Value    |
|--------------|----------|
| Entrypoint   | 0x0283   |
| Data Size    | 40 bytes |
| Instructions | 8        |

```
      00 01 02 03 04 05 06 07  08 09 0A 0B 0C 0D 0E 0F
      -- -- -- -- -- -- -- --  -- -- -- -- -- -- -- --
0280:          37 48 80 49 80  30 80 4A 80 32 2A 80 31     7H.I.0.J.2*.1
0290: 00 4B 80 4C 80 38 80 4D  80 31 01 32 08 80 31 00  .K.L.8.M.1.2..1.
02A0: 4B 80 4C 80 38 80 4E 80  31 01 00                 K.L.8.N.1..     
```

#### Opcodes

```
  0: 0x0283 [0x37] UPDATE_EVENT_POSITION_AND_DIR: x=142.744*, z=50.505*, y=-40.000*, direction=174.8°*
  1: 0x028C [0x32] ExtData[1]->MainSpeed = 40* * 0.1
  2: 0x028F [0x31] UPDATE_ENTITY_POSITION: Set EventEntity goal position to X=137.398*, Z=48.294*, Y=-40.015*, Time=50*
  3: 0x0299 [0x31] UPDATE_ENTITY_POSITION: Move EventEntity towards goal position
  4: 0x029B [0x32] ExtData[1]->MainSpeed = 13* * 0.1
  5: 0x029E [0x31] UPDATE_ENTITY_POSITION: Set EventEntity goal position to X=137.398*, Z=48.294*, Y=-40.015*, Time=60*
  6: 0x02A8 [0x31] UPDATE_ENTITY_POSITION: Move EventEntity towards goal position
  7: 0x02AA [0x00] END_REQSTACK()
```

### Event 65535.25

#### Metadata

| Field        | Value    |
|--------------|----------|
| Entrypoint   | 0x02AB   |
| Data Size    | 91 bytes |
| Instructions | 14       |

```
      00 01 02 03 04 05 06 07  08 09 0A 0B 0C 0D 0E 0F
      -- -- -- -- -- -- -- --  -- -- -- -- -- -- -- --
02A0:                                   03 00 00 4F 80             ...O.
02B0: 1A C2 02 32 08 80 1F 00  01 00 02 00 03 00 1F 01  ...2............
02C0: 6F 00 3B F8 FF FF 7F 01  00 02 00 03 00 3A F8 FF  o.;..........:..
02D0: FF 7F 04 00 17 05 00 04  00 00 00 16 06 00 04 00  ................
02E0: 00 00 07 01 00 05 00 07  02 00 06 00 1B 17 05 00  ................
02F0: 04 00 00 00 16 06 00 04  00 00 00 07 01 00 05 00  ................
0300: 07 02 00 06 00 1B                                 ......          
```

#### Opcodes

```
  0: 0x02AB [0x03] ExtData[1]->WorkLocal[0] = 1000*
  1: 0x02B0 [0x1A] CALL_SUBROUTINE(address=0x02C2)
  2: 0x02B3 [0x32] ExtData[1]->MainSpeed = 13* * 0.1
  3: 0x02B6 [0x1F] MOVE_ENTITY: EventEntity moves to X=ExtData[1]->WorkLocal[1], Z=ExtData[1]->WorkLocal[2], Y=ExtData[1]->WorkLocal[3]
  4: 0x02BE [0x1F] MOVE_ENTITY: Update entity position (mode=1)
  5: 0x02C0 [0x6F] WAIT_FRAME_DELAY: Yield until WaitTime reaches zero
  6: 0x02C1 [0x00] END_REQSTACK()

SUBROUTINE_02C2:
  7: 0x02C2 [0x3B] GET_ENTITY_POSITION(entity=EventEntity, x_destination=ExtData[1]->WorkLocal[1], y_destination=ExtData[1]->WorkLocal[2], z_destination=ExtData[1]->WorkLocal[3])
  8: 0x02CD [0x3A] CONVERT_YAW_TO_BYTE(entity=EventEntity, result_destination=ExtData[1]->WorkLocal[4])
  9: 0x02D4 [0x17] ExtData[1]->WorkLocal[5] = cos(ExtData[1]->WorkLocal[4]) * ExtData[1]->WorkLocal[0]
 10: 0x02DB [0x16] ExtData[1]->WorkLocal[6] = sin(ExtData[1]->WorkLocal[4]) * ExtData[1]->WorkLocal[0]
 11: 0x02E2 [0x07] ExtData[1]->WorkLocal[1] += ExtData[1]->WorkLocal[5]
 12: 0x02E7 [0x07] ExtData[1]->WorkLocal[2] += ExtData[1]->WorkLocal[6]
 13: 0x02EC [0x1B] RETURN
```

#### Data or dead code:

```
# Dead code (unreachable instructions):
     0x02ED [0x17] ExtData[1]->WorkLocal[5] = cos(ExtData[1]->WorkLocal[4]) * ExtData[1]->WorkLocal[0]
     0x02F4 [0x16] ExtData[1]->WorkLocal[6] = sin(ExtData[1]->WorkLocal[4]) * ExtData[1]->WorkLocal[0]
     0x02FB [0x07] ExtData[1]->WorkLocal[1] += ExtData[1]->WorkLocal[5]
     0x0300 [0x07] ExtData[1]->WorkLocal[2] += ExtData[1]->WorkLocal[6]
     0x0305 [0x1B] RETURN
```

### Event 65535.26

#### Metadata

| Field        | Value    |
|--------------|----------|
| Entrypoint   | 0x0306   |
| Data Size    | 18 bytes |
| Instructions | 4        |

```
      00 01 02 03 04 05 06 07  08 09 0A 0B 0C 0D 0E 0F
      -- -- -- -- -- -- -- --  -- -- -- -- -- -- -- --
0300:                   03 00  00 50 80 1A C2 02 37 01        ...P....7.
0310: 00 02 00 03 00 51 80 00                           .....Q..        
```

#### Opcodes

```
  0: 0x0306 [0x03] ExtData[1]->WorkLocal[0] = 0*
  1: 0x030B [0x1A] CALL_SUBROUTINE(address=0x02C2)
  2: 0x030E [0x37] UPDATE_EVENT_POSITION_AND_DIR: x=ExtData[1]->WorkLocal[1], z=ExtData[1]->WorkLocal[2], y=ExtData[1]->WorkLocal[3], direction=46.6°*
  3: 0x0317 [0x00] END_REQSTACK()
```

### Event 629

#### Metadata

| Field        | Value   |
|--------------|---------|
| Entrypoint   | 0x0318  |
| Data Size    | 1 bytes |
| Instructions | 1       |

```
      00 01 02 03 04 05 06 07  08 09 0A 0B 0C 0D 0E 0F
      -- -- -- -- -- -- -- --  -- -- -- -- -- -- -- --
0310:                          00                               .       
```

#### Opcodes

```
  0: 0x0318 [0x00] END_REQSTACK()
```

### Event 65535.27

#### Metadata

| Field        | Value    |
|--------------|----------|
| Entrypoint   | 0x0319   |
| Data Size    | 27 bytes |
| Instructions | 7        |

```
      00 01 02 03 04 05 06 07  08 09 0A 0B 0C 0D 0E 0F
      -- -- -- -- -- -- -- --  -- -- -- -- -- -- -- --
0310:                             32 08 80 1F 00 52 80           2....R.
0320: 53 80 54 80 1F 01 1E 04  A0 01 01 7B F8 FF FF 7F  S.T........{....
0330: 1C 55 80 00                                       .U..            
```

#### Opcodes

```
  0: 0x0319 [0x32] ExtData[1]->MainSpeed = 13* * 0.1
  1: 0x031C [0x1F] MOVE_ENTITY: EventEntity moves to X=-14.451*, Z=122.815*, Y=-26.502*
  2: 0x0324 [0x1F] MOVE_ENTITY: Update entity position (mode=1)
  3: 0x0326 [0x1E] EventEntity looks at Prishe (ID: 16883716/0x0101A004) and starts talking
  4: 0x032B [0x7B] EventEntity stops talking
  5: 0x0330 [0x1C] WAIT(30* ticks)
  6: 0x0333 [0x00] END_REQSTACK()
```

### Event 65535.28

#### Metadata

| Field        | Value    |
|--------------|----------|
| Entrypoint   | 0x0334   |
| Data Size    | 14 bytes |
| Instructions | 4        |

```
      00 01 02 03 04 05 06 07  08 09 0A 0B 0C 0D 0E 0F
      -- -- -- -- -- -- -- --  -- -- -- -- -- -- -- --
0330:             32 08 80 1F  00 56 80 57 80 58 80 1F      2....V.W.X..
0340: 01 00                                             ..              
```

#### Opcodes

```
  0: 0x0334 [0x32] ExtData[1]->MainSpeed = 13* * 0.1
  1: 0x0337 [0x1F] MOVE_ENTITY: EventEntity moves to X=-18.129*, Z=116.643*, Y=-27.636*
  2: 0x033F [0x1F] MOVE_ENTITY: Update entity position (mode=1)
  3: 0x0341 [0x00] END_REQSTACK()
```
