# 16883781 - Nivorajean

## Common Data

| Field            | Value                       |
|------------------|-----------------------------|
| Zone             | Tavnazian Safehold (ID: 26) |
| Block Size       | 1048 bytes                  |
| Total Events     | 10                          |
| References Count | 41                          |

## List of Events

| Event ID              | Entrypoint   |   Size |   Instructions |
|-----------------------|--------------|--------|----------------|
| [65535](#event-65535) | 0x0000       |      1 |              1 |
| [221](#event-221)     | 0x0001       |     11 |              5 |
| [222](#event-222)     | 0x000C       |     11 |              5 |
| [223](#event-223)     | 0x0017       |     87 |             17 |
| [224](#event-224)     | 0x006E       |     30 |              8 |
| [225](#event-225)     | 0x008C       |    497 |            105 |
| [226](#event-226)     | 0x027D       |     11 |              5 |
| [228](#event-228)     | 0x0288       |    119 |             22 |
| [227](#event-227)     | 0x02FF       |     31 |              9 |
| [382](#event-382)     | 0x031E       |     30 |              8 |

## DAT References (imed_data)

|   Index | Hex Value   |   Dec Value |
|---------|-------------|-------------|
|       0 | 0x29FC      |       10748 |
|       1 | 0x29FD      |       10749 |
|       2 | 0x29FE      |       10750 |
|       3 | 0x0014      |          20 |
|       4 | 0x29FF      |       10751 |
|       5 | 0x2A00      |       10752 |
|       6 | 0x001B      |          27 |
|       7 | 0x2A01      |       10753 |
|       8 | 0x2A02      |       10754 |
|       9 | 0x025D      |         605 |
|      10 | 0x2A03      |       10755 |
|      11 | 0x2A04      |       10756 |
|      12 | 0x2A05      |       10757 |
|      13 | 0x2A06      |       10758 |
|      14 | 0x001C      |          28 |
|      15 | 0x0002      |           2 |
|      16 | 0x2A07      |       10759 |
|      17 | 0x0000      |           0 |
|      18 | 0x2A08      |       10760 |
|      19 | 0x0001      |           1 |
|      20 | 0x0003      |           3 |
|      21 | 0x2A09      |       10761 |
|      22 | 0x0006      |           6 |
|      23 | 0x2A0A      |       10762 |
|      24 | 0x0004      |           4 |
|      25 | 0x0005      |           5 |
|      26 | 0x2A0B      |       10763 |
|      27 | 0x0007      |           7 |
|      28 | 0x2A0C      |       10764 |
|      29 | 0x2A0D      |       10765 |
|      30 | 0x01BA      |         442 |
|      31 | 0x2A10      |       10768 |
|      32 | 0x2A11      |       10769 |
|      33 | 0x2A12      |       10770 |
|      34 | 0x2A13      |       10771 |
|      35 | 0x2A14      |       10772 |
|      36 | 0x00C9      |         201 |
|      37 | 0x2A0E      |       10766 |
|      38 | 0x2A0F      |       10767 |
|      39 | 0x2B6B      |       11115 |
|      40 | 0x2B6C      |       11116 |

## String References

- **10748**: This safehold we all live in now was once part of the Tavnazian Cathedral, as were the Sealion's Den and the Sacrarium.
- **10749**: Aid from Jeuno has begun arriving in our city. While these items may improve our ways of life at the moment, many of us still worry about the future of the safehold.
- **10750**: Have you ever journeyed to the Sacrarium?
- **10751**: Since I was a child, it has been my dream to become an architect. I often walk alone to the Sacrarium's libraries to study the books on ancient architecture.
- **10752**: One day, while reading a volume on Tavnazian masonry, I discovered a tattered old set of floorplans.
- **10753**: However, due to its condition, there were many sections of it that were difficult to make out. If we could find another copy, I might be able to construct a new map of the Sacrarium based on the combined sets of plans.
- **10754**: If you happen to come across even a fragment of a document that may be of use, bring it back to me and I will do my best to piece together the puzzle.
- **10755**: $6!
- **10756**: Yes, this looks similar to the set of plans I found before... But it, too, is damaged terribly. I cannot tell exactly which part of the Sacrarium it describes.
- **10757**: Hm? You say you found this document in a treasure chest?
- **10758**: Do you happen to remember in what area of the Sacrarium the chest was located?
- **10759**: There is a good chance that the plans describe the same area.
- **10760**: Where did you find the chest? [Think a little longer./Around <F-5>./Around <G-5>./Around <H-5>./Around <F-11>./Around <G-11>./Around <H-11>.]
- **10761**: Where did you find the chest? [Think a little longer./Around <F-7>./Around <G-7>./Around <H-7>./Around <F-9>./Around <G-9>./Around <H-9>.]
- **10762**: Where did you find the chest? [Think a little longer./Around <I-6>./Around <J-6>./Around <K-7>./Around <K-9>./Around <I-10>./Around <J-10>.]
- **10763**: Where did you find the chest? [Think a little longer./Around <J-7>./Around <K-7>./Around <I-8>./Around <L-8>./Around <J-9>./Around <K-9>.]
- **10764**: I see... I will use that information to attempt to reconstruct a precise map of the area. It will take me about a day to complete my work. Please come back tomorrow.
- **10765**: It will take me about a day to complete my work on the map of the Sacrarium. Please come back tomorrow.
- **10766**: I apologize. The information you provided was not precise enough for me to finish the map.
- **10767**: If you happen to come across any more pieces of the Sacrarium floorplans, please bring them to me. I will not give up until I've created a perfect map!
- **10768**: <Player>! I succeeded in completing the $3!
- **10769**: I never imagined that the area could be so simple, yet complicated...
- **10770**: This has been a wonderful experience for me. I have learned so much about the architecture of the cathedral.
- **10771**: Feel free to take the map with you. I have already made myself a copy. It is the least I can do.
- **10772**: I shall make sure to preserve it with the care due the most precious of research materials.
- **11115**: My late brother was once a member of the Tavnazian choir. I remember him once telling me that there existed a lost hymn that not a single member of the Tavnazian Cathedral was able to sing.
- **11116**: He said it was the words from that hymn that would save the children of Altana from their lives of suffering.

## Events

### Event 65535

#### Metadata

| Field        | Value   |
|--------------|---------|
| Entrypoint   | 0x0000  |
| Data Size    | 1 bytes |
| Instructions | 1       |

```
      00 01 02 03 04 05 06 07  08 09 0A 0B 0C 0D 0E 0F
      -- -- -- -- -- -- -- --  -- -- -- -- -- -- -- --
0000: 00                                                .               
```

#### Opcodes

```
  0: 0x0000 [0x00] END_REQSTACK()
```

### Event 221

#### Metadata

| Field        | Value    |
|--------------|----------|
| Entrypoint   | 0x0001   |
| Data Size    | 11 bytes |
| Instructions | 5        |

```
      00 01 02 03 04 05 06 07  08 09 0A 0B 0C 0D 0E 0F
      -- -- -- -- -- -- -- --  -- -- -- -- -- -- -- --
0000:    1E F0 FF FF 7F 1D 00  80 23 21 00               ........#!.    
```

#### Opcodes

```
  0: 0x0001 [0x1E] EventEntity looks at LocalPlayer and starts talking
  1: 0x0006 [0x1D] PRINT_EVENT_MESSAGE(message_id=10748*)
    → "This safehold we all live in now was once part of the Tavnazian Cathedral, as were the Sealion's Den and the Sacrarium."
  2: 0x0009 [0x23] WAIT_FOR_DIALOG_INTERACTION
  3: 0x000A [0x21] END_EVENT
  4: 0x000B [0x00] END_REQSTACK()
```

### Event 222

#### Metadata

| Field        | Value    |
|--------------|----------|
| Entrypoint   | 0x000C   |
| Data Size    | 11 bytes |
| Instructions | 5        |

```
      00 01 02 03 04 05 06 07  08 09 0A 0B 0C 0D 0E 0F
      -- -- -- -- -- -- -- --  -- -- -- -- -- -- -- --
0000:                                      1E F0 FF FF              ....
0010: 7F 1D 01 80 23 21 00                              ....#!.         
```

#### Opcodes

```
  0: 0x000C [0x1E] EventEntity looks at LocalPlayer and starts talking
  1: 0x0011 [0x1D] PRINT_EVENT_MESSAGE(message_id=10749*)
    → "Aid from Jeuno has begun arriving in our city. While these items may improve our ways of life at the moment, many of us still worry about the future of the safehold."
  2: 0x0014 [0x23] WAIT_FOR_DIALOG_INTERACTION
  3: 0x0015 [0x21] END_EVENT
  4: 0x0016 [0x00] END_REQSTACK()
```

### Event 223

#### Metadata

| Field        | Value    |
|--------------|----------|
| Entrypoint   | 0x0017   |
| Data Size    | 87 bytes |
| Instructions | 17       |

```
      00 01 02 03 04 05 06 07  08 09 0A 0B 0C 0D 0E 0F
      -- -- -- -- -- -- -- --  -- -- -- -- -- -- -- --
0010:                      1E  F0 FF FF 7F 1D 02 80 23         ........#
0020: 66 03 80 F8 FF FF 7F F8  FF FF 7F 74 6C 6B 30 1D  f..........tlk0.
0030: 04 80 23 66 03 80 F8 FF  FF 7F F8 FF FF 7F 74 6C  ..#f..........tl
0040: 6B 31 1D 05 80 23 66 06  80 F8 FF FF 7F F8 FF FF  k1...#f.........
0050: 7F 74 6C 62 30 1D 07 80  23 66 06 80 F8 FF FF 7F  .tlb0...#f......
0060: F8 FF FF 7F 74 6C 62 31  1D 08 80 23 21 00        ....tlb1...#!.  
```

#### Opcodes

```
  0: 0x0017 [0x1E] EventEntity looks at LocalPlayer and starts talking
  1: 0x001C [0x1D] PRINT_EVENT_MESSAGE(message_id=10750*)
    → "Have you ever journeyed to the Sacrarium?"
  2: 0x001F [0x23] WAIT_FOR_DIALOG_INTERACTION
  3: 0x0020 [0x66] LOAD_EXT_SCHEDULER_MAIN: Load scheduler "tlk0" with entities [EventEntity, EventEntity], work=20*
  4: 0x002F [0x1D] PRINT_EVENT_MESSAGE(message_id=10751*)
    → "Since I was a child, it has been my dream to become an architect. I often walk alone to the Sacrarium's libraries to study the books on ancient architecture."
  5: 0x0032 [0x23] WAIT_FOR_DIALOG_INTERACTION
  6: 0x0033 [0x66] LOAD_EXT_SCHEDULER_MAIN: Load scheduler "tlk1" with entities [EventEntity, EventEntity], work=20*
  7: 0x0042 [0x1D] PRINT_EVENT_MESSAGE(message_id=10752*)
    → "One day, while reading a volume on Tavnazian masonry, I discovered a tattered old set of floorplans."
  8: 0x0045 [0x23] WAIT_FOR_DIALOG_INTERACTION
  9: 0x0046 [0x66] LOAD_EXT_SCHEDULER_MAIN: Load scheduler "tlb0" with entities [EventEntity, EventEntity], work=27*
 10: 0x0055 [0x1D] PRINT_EVENT_MESSAGE(message_id=10753*)
    → "However, due to its condition, there were many sections of it that were difficult to make out. If we could find another copy, I might be able to construct a new map of the Sacrarium based on the combined sets of plans."
 11: 0x0058 [0x23] WAIT_FOR_DIALOG_INTERACTION
 12: 0x0059 [0x66] LOAD_EXT_SCHEDULER_MAIN: Load scheduler "tlb1" with entities [EventEntity, EventEntity], work=27*
 13: 0x0068 [0x1D] PRINT_EVENT_MESSAGE(message_id=10754*)
    → "If you happen to come across even a fragment of a document that may be of use, bring it back to me and I will do my best to piece together the puzzle."
 14: 0x006B [0x23] WAIT_FOR_DIALOG_INTERACTION
 15: 0x006C [0x21] END_EVENT
 16: 0x006D [0x00] END_REQSTACK()
```

### Event 224

#### Metadata

| Field        | Value    |
|--------------|----------|
| Entrypoint   | 0x006E   |
| Data Size    | 30 bytes |
| Instructions | 8        |

```
      00 01 02 03 04 05 06 07  08 09 0A 0B 0C 0D 0E 0F
      -- -- -- -- -- -- -- --  -- -- -- -- -- -- -- --
0060:                                            1E F0                ..
0070: FF FF 7F 1D 07 80 23 66  03 80 F8 FF FF 7F F8 FF  ......#f........
0080: FF 7F 74 6C 6B 30 1D 08  80 23 21 00              ..tlk0...#!.    
```

#### Opcodes

```
  0: 0x006E [0x1E] EventEntity looks at LocalPlayer and starts talking
  1: 0x0073 [0x1D] PRINT_EVENT_MESSAGE(message_id=10753*)
    → "However, due to its condition, there were many sections of it that were difficult to make out. If we could find another copy, I might be able to construct a new map of the Sacrarium based on the combined sets of plans."
  2: 0x0076 [0x23] WAIT_FOR_DIALOG_INTERACTION
  3: 0x0077 [0x66] LOAD_EXT_SCHEDULER_MAIN: Load scheduler "tlk0" with entities [EventEntity, EventEntity], work=20*
  4: 0x0086 [0x1D] PRINT_EVENT_MESSAGE(message_id=10754*)
    → "If you happen to come across even a fragment of a document that may be of use, bring it back to me and I will do my best to piece together the puzzle."
  5: 0x0089 [0x23] WAIT_FOR_DIALOG_INTERACTION
  6: 0x008A [0x21] END_EVENT
  7: 0x008B [0x00] END_REQSTACK()
```

### Event 225

#### Metadata

| Field        | Value     |
|--------------|-----------|
| Entrypoint   | 0x008C    |
| Data Size    | 497 bytes |
| Instructions | 73        |

```
      00 01 02 03 04 05 06 07  08 09 0A 0B 0C 0D 0E 0F
      -- -- -- -- -- -- -- --  -- -- -- -- -- -- -- --
0080:                                      03 09 10 09              ....
0090: 80 1E F0 FF FF 7F 1D 0A  80 23 66 03 80 F8 FF FF  .........#f.....
00A0: 7F F8 FF FF 7F 74 68 6B  31 1D 0B 80 23 66 03 80  .....thk1...#f..
00B0: F8 FF FF 7F F8 FF FF 7F  74 68 6B 32 1D 0C 80 23  ........thk2...#
00C0: 66 03 80 F8 FF FF 7F F8  FF FF 7F 74 6C 6B 30 1D  f..........tlk0.
00D0: 0D 80 23 66 03 80 F8 FF  FF 7F F8 FF FF 7F 74 6C  ..#f..........tl
00E0: 6B 31 42 8D 0E 80 0F 80  1D 10 80 23 8A 05 01 10  k1B........#....
00F0: 02 02 10 11 80 80 1F 01  24 12 80 11 80 11 80 25  ........$......%
0100: 02 00 10 11 80 00 0E 01  01 E3 00 01 1C 01 02 00  ................
0110: 10 13 80 00 1C 01 06 01  10 01 1C 01 01 68 02 02  .............h..
0120: 02 10 13 80 80 4E 01 24  12 80 11 80 11 80 25 02  .....N.$......%.
0130: 00 10 11 80 00 3D 01 01  E3 00 01 4B 01 02 00 10  .....=.....K....
0140: 14 80 00 4B 01 06 01 10  01 4B 01 01 68 02 02 02  ...K.....K..h...
0150: 10 0F 80 80 7D 01 24 15  80 11 80 11 80 25 02 00  ....}.$......%..
0160: 10 11 80 00 6C 01 01 E3  00 01 7A 01 02 00 10 16  ....l.....z.....
0170: 80 00 7A 01 06 01 10 01  7A 01 01 68 02 02 02 10  ..z.....z..h....
0180: 14 80 80 AC 01 24 17 80  11 80 11 80 25 02 00 10  .....$......%...
0190: 11 80 00 9B 01 01 E3 00  01 A9 01 02 00 10 0F 80  ................
01A0: 00 A9 01 06 01 10 01 A9  01 01 68 02 02 02 10 18  ..........h.....
01B0: 80 80 DB 01 24 17 80 11  80 11 80 25 02 00 10 11  ....$......%....
01C0: 80 00 CA 01 01 E3 00 01  D8 01 02 00 10 16 80 00  ................
01D0: D8 01 06 01 10 01 D8 01  01 68 02 02 02 10 19 80  .........h......
01E0: 80 0A 02 24 1A 80 11 80  11 80 25 02 00 10 11 80  ...$......%.....
01F0: 00 F9 01 01 E3 00 01 07  02 02 00 10 18 80 00 07  ................
0200: 02 06 01 10 01 07 02 01  68 02 02 02 10 16 80 80  ........h.......
0210: 39 02 24 12 80 11 80 11  80 25 02 00 10 11 80 00  9.$......%......
0220: 28 02 01 E3 00 01 36 02  02 00 10 16 80 00 36 02  (.....6.......6.
0230: 06 01 10 01 36 02 01 68  02 02 02 10 1B 80 80 68  ....6..h.......h
0240: 02 24 12 80 11 80 11 80  25 02 00 10 11 80 00 57  .$......%......W
0250: 02 01 E3 00 01 65 02 02  00 10 18 80 00 65 02 06  .....e.......e..
0260: 01 10 01 65 02 01 68 02  66 03 80 F8 FF FF 7F F8  ...e..h.f.......
0270: FF FF 7F 74 6C 6B 30 1D  1C 80 23 21 00           ...tlk0...#!.   
```

#### Opcodes

```
  0: 0x008C [0x03] Work_Zone[9] = 605*
  1: 0x0091 [0x1E] EventEntity looks at LocalPlayer and starts talking
  2: 0x0096 [0x1D] PRINT_EVENT_MESSAGE(message_id=10755*)
    → "$6!"
  3: 0x0099 [0x23] WAIT_FOR_DIALOG_INTERACTION
  4: 0x009A [0x66] LOAD_EXT_SCHEDULER_MAIN: Load scheduler "thk1" with entities [EventEntity, EventEntity], work=20*
  5: 0x00A9 [0x1D] PRINT_EVENT_MESSAGE(message_id=10756*)
    → "Yes, this looks similar to the set of plans I found before... But it, too, is damaged terribly. I cannot tell exactly which part of the Sacrarium it describes."
  6: 0x00AC [0x23] WAIT_FOR_DIALOG_INTERACTION
  7: 0x00AD [0x66] LOAD_EXT_SCHEDULER_MAIN: Load scheduler "thk2" with entities [EventEntity, EventEntity], work=20*
  8: 0x00BC [0x1D] PRINT_EVENT_MESSAGE(message_id=10757*)
    → "Hm? You say you found this document in a treasure chest?"
  9: 0x00BF [0x23] WAIT_FOR_DIALOG_INTERACTION
 10: 0x00C0 [0x66] LOAD_EXT_SCHEDULER_MAIN: Load scheduler "tlk0" with entities [EventEntity, EventEntity], work=20*
 11: 0x00CF [0x1D] PRINT_EVENT_MESSAGE(message_id=10758*)
    → "Do you happen to remember in what area of the Sacrarium the chest was located?"
 12: 0x00D2 [0x23] WAIT_FOR_DIALOG_INTERACTION
 13: 0x00D3 [0x66] LOAD_EXT_SCHEDULER_MAIN: Load scheduler "tlk1" with entities [EventEntity, EventEntity], work=20*
 14: 0x00E2 [0x42] SET_CLI_EVENT_CANCEL_DATA()
 15: 0x00E3 [0x8D] OPEN_MAP_WITH_PROPERTIES(map_id=28*, properties=2*)
 16: 0x00E8 [0x1D] PRINT_EVENT_MESSAGE(message_id=10759*)
    → "There is a good chance that the plans describe the same area."
 17: 0x00EB [0x23] WAIT_FOR_DIALOG_INTERACTION
 18: 0x00EC [0x8A] CLOSE_MAP()
 19: 0x00ED [0x05] Work_Zone[1] = 1
 20: 0x00F0 [0x02] IF !(Work_Zone[2] == 0*) GOTO 0x011F
 21: 0x00F8 [0x24] CREATE_DIALOG(message_id=10760*, default_option=0*, option_flags=0*)
    → "Where did you find the chest? [Think a little longer./Around <F-5>./Around <G-5>./Around <H-5>./Around <F-11>./Around <G-11>./Around <H-11>.]"
 22: 0x00FF [0x25] WAIT_DIALOG_SELECT()
 23: 0x0100 [0x02] IF !(Work_Zone[0] == 0*) GOTO 0x010E
 24: 0x0108 [0x01] GOTO 0x00E3

SUBROUTINE_011C:
 25: 0x011C [0x01] GOTO 0x0268
 26: 0x011F [0x02] IF !(Work_Zone[2] == 1*) GOTO 0x014E
 27: 0x0127 [0x24] CREATE_DIALOG(message_id=10760*, default_option=0*, option_flags=0*)
    → "Where did you find the chest? [Think a little longer./Around <F-5>./Around <G-5>./Around <H-5>./Around <F-11>./Around <G-11>./Around <H-11>.]"
 28: 0x012E [0x25] WAIT_DIALOG_SELECT()
 29: 0x012F [0x02] IF !(Work_Zone[0] == 0*) GOTO 0x013D
 30: 0x0137 [0x01] GOTO 0x00E3

SUBROUTINE_014B:
 31: 0x014B [0x01] GOTO 0x0268
 32: 0x014E [0x02] IF !(Work_Zone[2] == 2*) GOTO 0x017D
 33: 0x0156 [0x24] CREATE_DIALOG(message_id=10761*, default_option=0*, option_flags=0*)
    → "Where did you find the chest? [Think a little longer./Around <F-7>./Around <G-7>./Around <H-7>./Around <F-9>./Around <G-9>./Around <H-9>.]"
 34: 0x015D [0x25] WAIT_DIALOG_SELECT()
 35: 0x015E [0x02] IF !(Work_Zone[0] == 0*) GOTO 0x016C
 36: 0x0166 [0x01] GOTO 0x00E3

SUBROUTINE_017A:
 37: 0x017A [0x01] GOTO 0x0268
 38: 0x017D [0x02] IF !(Work_Zone[2] == 3*) GOTO 0x01AC
 39: 0x0185 [0x24] CREATE_DIALOG(message_id=10762*, default_option=0*, option_flags=0*)
    → "Where did you find the chest? [Think a little longer./Around <I-6>./Around <J-6>./Around <K-7>./Around <K-9>./Around <I-10>./Around <J-10>.]"
 40: 0x018C [0x25] WAIT_DIALOG_SELECT()
 41: 0x018D [0x02] IF !(Work_Zone[0] == 0*) GOTO 0x019B
 42: 0x0195 [0x01] GOTO 0x00E3

SUBROUTINE_01A9:
 43: 0x01A9 [0x01] GOTO 0x0268
 44: 0x01AC [0x02] IF !(Work_Zone[2] == 4*) GOTO 0x01DB
 45: 0x01B4 [0x24] CREATE_DIALOG(message_id=10762*, default_option=0*, option_flags=0*)
    → "Where did you find the chest? [Think a little longer./Around <I-6>./Around <J-6>./Around <K-7>./Around <K-9>./Around <I-10>./Around <J-10>.]"
 46: 0x01BB [0x25] WAIT_DIALOG_SELECT()
 47: 0x01BC [0x02] IF !(Work_Zone[0] == 0*) GOTO 0x01CA
 48: 0x01C4 [0x01] GOTO 0x00E3

SUBROUTINE_01D8:
 49: 0x01D8 [0x01] GOTO 0x0268
 50: 0x01DB [0x02] IF !(Work_Zone[2] == 5*) GOTO 0x020A
 51: 0x01E3 [0x24] CREATE_DIALOG(message_id=10763*, default_option=0*, option_flags=0*)
    → "Where did you find the chest? [Think a little longer./Around <J-7>./Around <K-7>./Around <I-8>./Around <L-8>./Around <J-9>./Around <K-9>.]"
 52: 0x01EA [0x25] WAIT_DIALOG_SELECT()
 53: 0x01EB [0x02] IF !(Work_Zone[0] == 0*) GOTO 0x01F9
 54: 0x01F3 [0x01] GOTO 0x00E3

SUBROUTINE_0207:
 55: 0x0207 [0x01] GOTO 0x0268
 56: 0x020A [0x02] IF !(Work_Zone[2] == 6*) GOTO 0x0239
 57: 0x0212 [0x24] CREATE_DIALOG(message_id=10760*, default_option=0*, option_flags=0*)
    → "Where did you find the chest? [Think a little longer./Around <F-5>./Around <G-5>./Around <H-5>./Around <F-11>./Around <G-11>./Around <H-11>.]"
 58: 0x0219 [0x25] WAIT_DIALOG_SELECT()
 59: 0x021A [0x02] IF !(Work_Zone[0] == 0*) GOTO 0x0228
 60: 0x0222 [0x01] GOTO 0x00E3

SUBROUTINE_0236:
 61: 0x0236 [0x01] GOTO 0x0268
 62: 0x0239 [0x02] IF !(Work_Zone[2] == 7*) GOTO 0x0268
 63: 0x0241 [0x24] CREATE_DIALOG(message_id=10760*, default_option=0*, option_flags=0*)
    → "Where did you find the chest? [Think a little longer./Around <F-5>./Around <G-5>./Around <H-5>./Around <F-11>./Around <G-11>./Around <H-11>.]"
 64: 0x0248 [0x25] WAIT_DIALOG_SELECT()
 65: 0x0249 [0x02] IF !(Work_Zone[0] == 0*) GOTO 0x0257
 66: 0x0251 [0x01] GOTO 0x00E3

SUBROUTINE_0265:
 67: 0x0265 [0x01] GOTO 0x0268

SUBROUTINE_0268:
 68: 0x0268 [0x66] LOAD_EXT_SCHEDULER_MAIN: Load scheduler "tlk0" with entities [EventEntity, EventEntity], work=20*
 69: 0x0277 [0x1D] PRINT_EVENT_MESSAGE(message_id=10764*)
    → "I see... I will use that information to attempt to reconstruct a precise map of the area. It will take me about a day to complete my work. Please come back tomorrow."
 70: 0x027A [0x23] WAIT_FOR_DIALOG_INTERACTION
 71: 0x027B [0x21] END_EVENT
 72: 0x027C [0x00] END_REQSTACK()
```

#### Data or dead code:

```
# Dead code (unreachable instructions):
     0x010B [0x01] GOTO 0x011C
# Dead code (unreachable instructions):
     0x013A [0x01] GOTO 0x014B
# Dead code (unreachable instructions):
     0x0169 [0x01] GOTO 0x017A
# Dead code (unreachable instructions):
     0x0198 [0x01] GOTO 0x01A9
# Dead code (unreachable instructions):
     0x01C7 [0x01] GOTO 0x01D8
# Dead code (unreachable instructions):
     0x01F6 [0x01] GOTO 0x0207
# Dead code (unreachable instructions):
     0x0225 [0x01] GOTO 0x0236
# Dead code (unreachable instructions):
     0x0254 [0x01] GOTO 0x0265
```

### Event 226

#### Metadata

| Field        | Value    |
|--------------|----------|
| Entrypoint   | 0x027D   |
| Data Size    | 11 bytes |
| Instructions | 5        |

```
      00 01 02 03 04 05 06 07  08 09 0A 0B 0C 0D 0E 0F
      -- -- -- -- -- -- -- --  -- -- -- -- -- -- -- --
0270:                                         1E F0 FF               ...
0280: FF 7F 1D 1D 80 23 21 00                           .....#!.        
```

#### Opcodes

```
  0: 0x027D [0x1E] EventEntity looks at LocalPlayer and starts talking
  1: 0x0282 [0x1D] PRINT_EVENT_MESSAGE(message_id=10765*)
    → "It will take me about a day to complete my work on the map of the Sacrarium. Please come back tomorrow."
  2: 0x0285 [0x23] WAIT_FOR_DIALOG_INTERACTION
  3: 0x0286 [0x21] END_EVENT
  4: 0x0287 [0x00] END_REQSTACK()
```

### Event 228

#### Metadata

| Field        | Value     |
|--------------|-----------|
| Entrypoint   | 0x0288    |
| Data Size    | 119 bytes |
| Instructions | 22        |

```
      00 01 02 03 04 05 06 07  08 09 0A 0B 0C 0D 0E 0F
      -- -- -- -- -- -- -- --  -- -- -- -- -- -- -- --
0280:                          42 1E F0 FF FF 7F 03 09          B.......
0290: 10 1E 80 1D 1F 80 23 66  03 80 F8 FF FF 7F F8 FF  ......#f........
02A0: FF 7F 74 6C 6B 30 1D 20  80 23 66 03 80 F8 FF FF  ..tlk0. .#f.....
02B0: 7F F8 FF FF 7F 74 6C 6B  31 1D 21 80 23 66 03 80  .....tlk1.!.#f..
02C0: F8 FF FF 7F F8 FF FF 7F  70 61 73 30 02 03 10 11  ........pas0....
02D0: 80 00 DB 02 1D 22 80 23  01 DF 02 1D 23 80 23 45  .....".#....#.#E
02E0: 24 80 F8 FF FF 7F F8 FF  FF 7F 71 73 74 63 11 80  $.........qstc..
02F0: 53 F8 FF FF 7F F8 FF FF  7F 70 61 73 30 21 00     S........pas0!. 
```

#### Opcodes

```
  0: 0x0288 [0x42] SET_CLI_EVENT_CANCEL_DATA()
  1: 0x0289 [0x1E] EventEntity looks at LocalPlayer and starts talking
  2: 0x028E [0x03] Work_Zone[9] = 442*
  3: 0x0293 [0x1D] PRINT_EVENT_MESSAGE(message_id=10768*)
    → "<Player>! I succeeded in completing the $3!"
  4: 0x0296 [0x23] WAIT_FOR_DIALOG_INTERACTION
  5: 0x0297 [0x66] LOAD_EXT_SCHEDULER_MAIN: Load scheduler "tlk0" with entities [EventEntity, EventEntity], work=20*
  6: 0x02A6 [0x1D] PRINT_EVENT_MESSAGE(message_id=10769*)
    → "I never imagined that the area could be so simple, yet complicated..."
  7: 0x02A9 [0x23] WAIT_FOR_DIALOG_INTERACTION
  8: 0x02AA [0x66] LOAD_EXT_SCHEDULER_MAIN: Load scheduler "tlk1" with entities [EventEntity, EventEntity], work=20*
  9: 0x02B9 [0x1D] PRINT_EVENT_MESSAGE(message_id=10770*)
    → "This has been a wonderful experience for me. I have learned so much about the architecture of the cathedral."
 10: 0x02BC [0x23] WAIT_FOR_DIALOG_INTERACTION
 11: 0x02BD [0x66] LOAD_EXT_SCHEDULER_MAIN: Load scheduler "pas0" with entities [EventEntity, EventEntity], work=20*
 12: 0x02CC [0x02] IF !(Work_Zone[3] == 0*) GOTO 0x02DB
 13: 0x02D4 [0x1D] PRINT_EVENT_MESSAGE(message_id=10771*)
    → "Feel free to take the map with you. I have already made myself a copy. It is the least I can do."
 14: 0x02D7 [0x23] WAIT_FOR_DIALOG_INTERACTION
 15: 0x02D8 [0x01] GOTO 0x02DF
 16: 0x02DB [0x1D] PRINT_EVENT_MESSAGE(message_id=10772*)
    → "I shall make sure to preserve it with the care due the most precious of research materials."
 17: 0x02DE [0x23] WAIT_FOR_DIALOG_INTERACTION

SUBROUTINE_02DF:
 18: 0x02DF [0x45] LOAD_SCHEDULED_TASK: Load scheduler "qstc" with entities [EventEntity, EventEntity], work=[201*, 0*]
 19: 0x02F0 [0x53] WAIT_SCHEDULER_TASK: Wait for scheduler "pas0" with entities [EventEntity, EventEntity]
 20: 0x02FD [0x21] END_EVENT
 21: 0x02FE [0x00] END_REQSTACK()
```

### Event 227

#### Metadata

| Field        | Value    |
|--------------|----------|
| Entrypoint   | 0x02FF   |
| Data Size    | 31 bytes |
| Instructions | 9        |

```
      00 01 02 03 04 05 06 07  08 09 0A 0B 0C 0D 0E 0F
      -- -- -- -- -- -- -- --  -- -- -- -- -- -- -- --
02F0:                                               42                 B
0300: 1E F0 FF FF 7F 1D 25 80  23 66 03 80 F8 FF FF 7F  ......%.#f......
0310: F8 FF FF 7F 74 6C 6B 30  1D 26 80 23 21 00        ....tlk0.&.#!.  
```

#### Opcodes

```
  0: 0x02FF [0x42] SET_CLI_EVENT_CANCEL_DATA()
  1: 0x0300 [0x1E] EventEntity looks at LocalPlayer and starts talking
  2: 0x0305 [0x1D] PRINT_EVENT_MESSAGE(message_id=10766*)
    → "I apologize. The information you provided was not precise enough for me to finish the map."
  3: 0x0308 [0x23] WAIT_FOR_DIALOG_INTERACTION
  4: 0x0309 [0x66] LOAD_EXT_SCHEDULER_MAIN: Load scheduler "tlk0" with entities [EventEntity, EventEntity], work=20*
  5: 0x0318 [0x1D] PRINT_EVENT_MESSAGE(message_id=10767*)
    → "If you happen to come across any more pieces of the Sacrarium floorplans, please bring them to me. I will not give up until I've created a perfect map!"
  6: 0x031B [0x23] WAIT_FOR_DIALOG_INTERACTION
  7: 0x031C [0x21] END_EVENT
  8: 0x031D [0x00] END_REQSTACK()
```

### Event 382

#### Metadata

| Field        | Value    |
|--------------|----------|
| Entrypoint   | 0x031E   |
| Data Size    | 30 bytes |
| Instructions | 8        |

```
      00 01 02 03 04 05 06 07  08 09 0A 0B 0C 0D 0E 0F
      -- -- -- -- -- -- -- --  -- -- -- -- -- -- -- --
0310:                                            1E F0                ..
0320: FF FF 7F 1D 27 80 23 66  03 80 F8 FF FF 7F F8 FF  ....'.#f........
0330: FF 7F 74 6C 6B 30 1D 28  80 23 21 00              ..tlk0.(.#!.    
```

#### Opcodes

```
  0: 0x031E [0x1E] EventEntity looks at LocalPlayer and starts talking
  1: 0x0323 [0x1D] PRINT_EVENT_MESSAGE(message_id=11115*)
    → "My late brother was once a member of the Tavnazian choir. I remember him once telling me that there existed a lost hymn that not a single member of the Tavnazian Cathedral was able to sing."
  2: 0x0326 [0x23] WAIT_FOR_DIALOG_INTERACTION
  3: 0x0327 [0x66] LOAD_EXT_SCHEDULER_MAIN: Load scheduler "tlk0" with entities [EventEntity, EventEntity], work=20*
  4: 0x0336 [0x1D] PRINT_EVENT_MESSAGE(message_id=11116*)
    → "He said it was the words from that hymn that would save the children of Altana from their lives of suffering."
  5: 0x0339 [0x23] WAIT_FOR_DIALOG_INTERACTION
  6: 0x033A [0x21] END_EVENT
  7: 0x033B [0x00] END_REQSTACK()
```
