# 16883723 - Tressia

## Common Data

| Field            | Value                       |
|------------------|-----------------------------|
| Zone             | Tavnazian Safehold (ID: 26) |
| Block Size       | 1564 bytes                  |
| Total Events     | 40                          |
| References Count | 89                          |

## List of Events

| Event ID                   | Entrypoint   |   Size |   Instructions |
|----------------------------|--------------|--------|----------------|
| [65535](#event-65535)      | 0x0000       |      1 |              1 |
| [105](#event-105)          | 0x0001       |      7 |              2 |
| [65535.1](#event-655351)   | 0x0008       |     25 |              6 |
| [107](#event-107)          | 0x0021       |      7 |              2 |
| [65535.2](#event-655352)   | 0x0028       |     22 |              4 |
| [310](#event-310)          | 0x003E       |     30 |              8 |
| [311](#event-311)          | 0x005C       |     49 |             11 |
| [312](#event-312)          | 0x008D       |     30 |              8 |
| [313](#event-313)          | 0x00AB       |     49 |             11 |
| [314](#event-314)          | 0x00DC       |     30 |              8 |
| [512](#event-512)          | 0x00FA       |      1 |              1 |
| [65535.3](#event-655353)   | 0x00FB       |     28 |              6 |
| [65535.4](#event-655354)   | 0x0117       |     24 |              5 |
| [513](#event-513)          | 0x012F       |      1 |              1 |
| [545](#event-545)          | 0x0130       |     13 |              7 |
| [544](#event-544)          | 0x013D       |      1 |              1 |
| [65535.5](#event-655355)   | 0x013E       |     35 |              8 |
| [65535.6](#event-655356)   | 0x0161       |     14 |              4 |
| [548](#event-548)          | 0x016F       |      1 |              1 |
| [549](#event-549)          | 0x0170       |      1 |              1 |
| [65535.7](#event-655357)   | 0x0171       |     10 |              2 |
| [556](#event-556)          | 0x017B       |     77 |             17 |
| [557](#event-557)          | 0x01C8       |      1 |              1 |
| [568](#event-568)          | 0x01C9       |      1 |              1 |
| [569](#event-569)          | 0x01CA       |      1 |              1 |
| [565](#event-565)          | 0x01CB       |    394 |             79 |
| [567](#event-567)          | 0x0355       |      1 |              1 |
| [566](#event-566)          | 0x0356       |     13 |              7 |
| [558](#event-558)          | 0x0363       |      1 |              1 |
| [65535.8](#event-655358)   | 0x0364       |     10 |              2 |
| [65535.9](#event-655359)   | 0x036E       |     14 |              4 |
| [562](#event-562)          | 0x037C       |     55 |             15 |
| [561](#event-561)          | 0x03B3       |      1 |              1 |
| [65535.10](#event-6553510) | 0x03B4       |      4 |              2 |
| [65535.11](#event-6553511) | 0x03B8       |      2 |              2 |
| [629](#event-629)          | 0x03BA       |      1 |              1 |
| [65535.12](#event-6553512) | 0x03BB       |     14 |              4 |
| [65535.13](#event-6553513) | 0x03C9       |     14 |              4 |
| [65535.14](#event-6553514) | 0x03D7       |     22 |              6 |
| [65535.15](#event-6553515) | 0x03ED       |     24 |              6 |

## DAT References (imed_data)

|   Index | Hex Value   |   Dec Value |
|---------|-------------|-------------|
|       0 | 0x181B      |        6171 |
|       1 | 0x5996      |       22934 |
|       2 | 0xFFFFA742  |  4294944578 |
|       3 | 0x07D8      |        2008 |
|       4 | 0x000D      |          13 |
|       5 | 0x0BA5      |        2981 |
|       6 | 0x5761      |       22369 |
|       7 | 0xFFFFA728  |  4294944552 |
|       8 | 0xFFFFF527  |  4294964519 |
|       9 | 0xFFFFF9CF  |  4294965711 |
|      10 | 0xFFFFDCE0  |  4294958304 |
|      11 | 0x0FDD      |        4061 |
|      12 | 0x2AD3      |       10963 |
|      13 | 0x000A      |          10 |
|      14 | 0x2AD4      |       10964 |
|      15 | 0x2AD5      |       10965 |
|      16 | 0x2AD6      |       10966 |
|      17 | 0x2AD7      |       10967 |
|      18 | 0x2AD8      |       10968 |
|      19 | 0x2AD9      |       10969 |
|      20 | 0x2ADA      |       10970 |
|      21 | 0x2ADB      |       10971 |
|      22 | 0x2ADC      |       10972 |
|      23 | 0x2ADD      |       10973 |
|      24 | 0x2ADE      |       10974 |
|      25 | 0x15843     |       88131 |
|      26 | 0x10616     |       67094 |
|      27 | 0xFFFF7B50  |  4294933328 |
|      28 | 0x07B9      |        1977 |
|      29 | 0x14C23     |       85027 |
|      30 | 0x103B0     |       66480 |
|      31 | 0xFFFF7B4A  |  4294933322 |
|      32 | 0x146F9     |       83705 |
|      33 | 0xFF55      |       65365 |
|      34 | 0xFFFF7B48  |  4294933320 |
|      35 | 0x2D96      |       11670 |
|      36 | 0x15CE0     |       89312 |
|      37 | 0x104C8     |       66760 |
|      38 | 0xFFFF7AEF  |  4294933231 |
|      39 | 0x1449E     |       83102 |
|      40 | 0xF7D2      |       63442 |
|      41 | 0xFFFF7B30  |  4294933296 |
|      42 | 0x14BA2     |       84898 |
|      43 | 0x100DF     |       65759 |
|      44 | 0xFFFF7B3F  |  4294933311 |
|      45 | 0x1490C     |       84236 |
|      46 | 0x104CD     |       66765 |
|      47 | 0xFFFF7B5D  |  4294933341 |
|      48 | 0x06E5      |        1765 |
|      49 | 0x2DBB      |       11707 |
|      50 | 0x0001      |           1 |
|      51 | 0x0000      |           0 |
|      52 | 0x2DBC      |       11708 |
|      53 | 0x2DBD      |       11709 |
|      54 | 0x02CE      |         718 |
|      55 | 0x2DE2      |       11746 |
|      56 | 0x2DE3      |       11747 |
|      57 | 0x0002      |           2 |
|      58 | 0x0003      |           3 |
|      59 | 0x2DE4      |       11748 |
|      60 | 0x2DE5      |       11749 |
|      61 | 0x2DE6      |       11750 |
|      62 | 0x2DE7      |       11751 |
|      63 | 0x0078      |         120 |
|      64 | 0x2DEF      |       11759 |
|      65 | 0xFFFFFF66  |  4294967142 |
|      66 | 0x3407      |       13319 |
|      67 | 0xFFFFA923  |  4294945059 |
|      68 | 0x049C      |        1180 |
|      69 | 0xFFFFFE91  |  4294966929 |
|      70 | 0x27EC      |       10220 |
|      71 | 0xFFFFA986  |  4294945158 |
|      72 | 0x2E0E      |       11790 |
|      73 | 0x2E0F      |       11791 |
|      74 | 0x2E10      |       11792 |
|      75 | 0x2E11      |       11793 |
|      76 | 0xFFFF94F4  |  4294939892 |
|      77 | 0x1E5CE     |      124366 |
|      78 | 0xFFFF9688  |  4294940296 |
|      79 | 0xFFFFC9AD  |  4294953389 |
|      80 | 0x1AEBF     |      110271 |
|      81 | 0xFFFF930F  |  4294939407 |
|      82 | 0xFFFFDBF6  |  4294958070 |
|      83 | 0x1DBD7     |      121815 |
|      84 | 0xFFFF97DE  |  4294940638 |
|      85 | 0x001E      |          30 |
|      86 | 0xFFFFE4E5  |  4294960357 |
|      87 | 0x1C8D4     |      116948 |
|      88 | 0xFFFF9298  |  4294939288 |

## String References

- **10963**: When I heard that somebody from the mainland had washed up on our island, I was expecting to see a burly pirate or a battle-scarred adventurer.
- **10964**: But look at you. I've seen scarier things under my bed. The world must be pretty peaceful if a pansy like you can travel about Vana'diel without getting [his/her] head lopped off with an Orcish axe.
- **10965**: Don't tell this to anybody, but I don't think I like that blonde robed guy with the funny apparatus over his eye.
- **10966**: He has all the elders wrapped around his little finger, but something tells me he's trying to pull a fast one.
- **10967**: If I only had proof...
- **10968**: If you even think of doing anything to make Prishe upset, I'll personally whack you upside the head so hard you won't remember what you had for breakfast.
- **10969**: Yeah, she may be a little rough around the edges, but deep inside she's only thinking of her friends and family here in the safehold.
- **10970**: It looks like something big's brewing...
- **10971**: I've never been too good with words, but...
- **10972**: Get out there and do what you have to do. For the safehold's sake, for Prishe's sake...heck, for the world's sake!
- **10973**: Maybe it's because we've lived in solitude for so long, but a lot of us have a hard time opening up to those from the outside.
- **10974**: But since you came, things have started to change. Thanks, <Player>...
- **11670**: Please find as much information as you can. We can worry about finding the culprit afterwards.
- **11707**: Are you finished collecting information? [Yes./I need more time.]
- **11708**: I see... I think we need a little more than this, though. Don't you have anything else?
- **11709**: Oh? Hmmm... Well, sorry, but you did offer to help! Someone in this town must know something.
- **11746**: So, did you figure out where each person was when they witnessed a suspicious act? If you know, please tell us.
- **11747**: Where did the events in Report 1 occur? [<I-8>./<H-8>./<J-7>./<G-9>.]
- **11748**: Where did the events in Report 2 occur? [<I-8>./<H-8>./<J-7>./<G-9>.]
- **11749**: Where did the events in Report 3 occur? [<I-8>./<H-8>./<J-7>./<G-9>.]
- **11750**: Where did the events in Report 4 occur? [<I-8>./<H-8>./<J-7>./<G-9>.]
- **11751**: Hmmm...
- **11759**: <Player>, do you think you could go to the tributary and follow the criminal's trail? We will stay here and try to find out why the thief was there in the first place.
- **11790**: Hey, thanks a lot for all you've done for us.
- **11791**: We put Wazozo to the question, and she eventually confessed to getting hold of a chunk of gold.
- **11792**: Oh yeah, I should give you something for your efforts. I've already informed Ondieulix of your deeds, so just talk to him for your reward.
- **11793**: We're still tailing Miledo-Shiraddo. If you happen to see him around, please inform us.

## Events

### Event 65535

#### Metadata

| Field        | Value   |
|--------------|---------|
| Entrypoint   | 0x0000  |
| Data Size    | 1 bytes |
| Instructions | 1       |

```
      00 01 02 03 04 05 06 07  08 09 0A 0B 0C 0D 0E 0F
      -- -- -- -- -- -- -- --  -- -- -- -- -- -- -- --
0000: 00                                                .               
```

#### Opcodes

```
  0: 0x0000 [0x00] END_REQSTACK()
```

### Event 105

#### Metadata

| Field        | Value   |
|--------------|---------|
| Entrypoint   | 0x0001  |
| Data Size    | 7 bytes |
| Instructions | 2       |

```
      00 01 02 03 04 05 06 07  08 09 0A 0B 0C 0D 0E 0F
      -- -- -- -- -- -- -- --  -- -- -- -- -- -- -- --
0000:    92 01 F8 FF FF 7F 00                            .......        
```

#### Opcodes

```
  0: 0x0001 [0x92] EventEntity->Render.Flags3 ^= 0x01
  1: 0x0007 [0x00] END_REQSTACK()
```

### Event 65535.1

#### Metadata

| Field        | Value    |
|--------------|----------|
| Entrypoint   | 0x0008   |
| Data Size    | 25 bytes |
| Instructions | 6        |

```
      00 01 02 03 04 05 06 07  08 09 0A 0B 0C 0D 0E 0F
      -- -- -- -- -- -- -- --  -- -- -- -- -- -- -- --
0000:                          22 00 37 00 80 01 80 02          ".7.....
0010: 80 03 80 32 04 80 1F 00  05 80 06 80 07 80 1F 01  ...2............
0020: 00                                                .               
```

#### Opcodes

```
  0: 0x0008 [0x22] ENTITY_HIDE_FLAG(enabled=0x00)
  1: 0x000A [0x37] UPDATE_EVENT_POSITION_AND_DIR: x=6.171*, z=22.934*, y=-22.718*, direction=176.5°*
  2: 0x0013 [0x32] ExtData[1]->MainSpeed = 13* * 0.1
  3: 0x0016 [0x1F] MOVE_ENTITY: EventEntity moves to X=2.981*, Z=22.369*, Y=-22.744*
  4: 0x001E [0x1F] MOVE_ENTITY: Update entity position (mode=1)
  5: 0x0020 [0x00] END_REQSTACK()
```

### Event 107

#### Metadata

| Field        | Value   |
|--------------|---------|
| Entrypoint   | 0x0021  |
| Data Size    | 7 bytes |
| Instructions | 2       |

```
      00 01 02 03 04 05 06 07  08 09 0A 0B 0C 0D 0E 0F
      -- -- -- -- -- -- -- --  -- -- -- -- -- -- -- --
0020:    92 01 F8 FF FF 7F 00                            .......        
```

#### Opcodes

```
  0: 0x0021 [0x92] EventEntity->Render.Flags3 ^= 0x01
  1: 0x0027 [0x00] END_REQSTACK()
```

### Event 65535.2

#### Metadata

| Field        | Value    |
|--------------|----------|
| Entrypoint   | 0x0028   |
| Data Size    | 22 bytes |
| Instructions | 4        |

```
      00 01 02 03 04 05 06 07  08 09 0A 0B 0C 0D 0E 0F
      -- -- -- -- -- -- -- --  -- -- -- -- -- -- -- --
0020:                          22 00 79 00 F8 FF FF 7F          ".y.....
0030: 04 A0 01 01 37 08 80 09  80 0A 80 0B 80 00        ....7.........  
```

#### Opcodes

```
  0: 0x0028 [0x22] ENTITY_HIDE_FLAG(enabled=0x00)
  1: 0x002A [0x79] EventEntity looks at Prishe (ID: 16883716/0x0101A004) (Basic look)
  2: 0x0034 [0x37] UPDATE_EVENT_POSITION_AND_DIR: x=-2.777*, z=-1.585*, y=-8.992*, direction=356.9°*
  3: 0x003D [0x00] END_REQSTACK()
```

### Event 310

#### Metadata

| Field        | Value    |
|--------------|----------|
| Entrypoint   | 0x003E   |
| Data Size    | 30 bytes |
| Instructions | 8        |

```
      00 01 02 03 04 05 06 07  08 09 0A 0B 0C 0D 0E 0F
      -- -- -- -- -- -- -- --  -- -- -- -- -- -- -- --
0030:                                            1E F0                ..
0040: FF FF 7F 1D 0C 80 23 66  0D 80 F8 FF FF 7F F8 FF  ......#f........
0050: FF 7F 74 6C 6B 30 1D 0E  80 23 21 00              ..tlk0...#!.    
```

#### Opcodes

```
  0: 0x003E [0x1E] EventEntity looks at LocalPlayer and starts talking
  1: 0x0043 [0x1D] PRINT_EVENT_MESSAGE(message_id=10963*)
    → "When I heard that somebody from the mainland had washed up on our island, I was expecting to see a burly pirate or a battle-scarred adventurer."
  2: 0x0046 [0x23] WAIT_FOR_DIALOG_INTERACTION
  3: 0x0047 [0x66] LOAD_EXT_SCHEDULER_MAIN: Load scheduler "tlk0" with entities [EventEntity, EventEntity], work=10*
  4: 0x0056 [0x1D] PRINT_EVENT_MESSAGE(message_id=10964*)
    → "But look at you. I've seen scarier things under my bed. The world must be pretty peaceful if a pansy like you can travel about Vana'diel without getting [his/her] head lopped off with an Orcish axe."
  5: 0x0059 [0x23] WAIT_FOR_DIALOG_INTERACTION
  6: 0x005A [0x21] END_EVENT
  7: 0x005B [0x00] END_REQSTACK()
```

### Event 311

#### Metadata

| Field        | Value    |
|--------------|----------|
| Entrypoint   | 0x005C   |
| Data Size    | 49 bytes |
| Instructions | 11       |

```
      00 01 02 03 04 05 06 07  08 09 0A 0B 0C 0D 0E 0F
      -- -- -- -- -- -- -- --  -- -- -- -- -- -- -- --
0050:                                      1E F0 FF FF              ....
0060: 7F 1D 0F 80 23 66 0D 80  F8 FF FF 7F F8 FF FF 7F  ....#f..........
0070: 74 68 6B 31 1D 10 80 23  66 0D 80 F8 FF FF 7F F8  thk1...#f.......
0080: FF FF 7F 74 68 6B 32 1D  11 80 23 21 00           ...thk2...#!.   
```

#### Opcodes

```
  0: 0x005C [0x1E] EventEntity looks at LocalPlayer and starts talking
  1: 0x0061 [0x1D] PRINT_EVENT_MESSAGE(message_id=10965*)
    → "Don't tell this to anybody, but I don't think I like that blonde robed guy with the funny apparatus over his eye."
  2: 0x0064 [0x23] WAIT_FOR_DIALOG_INTERACTION
  3: 0x0065 [0x66] LOAD_EXT_SCHEDULER_MAIN: Load scheduler "thk1" with entities [EventEntity, EventEntity], work=10*
  4: 0x0074 [0x1D] PRINT_EVENT_MESSAGE(message_id=10966*)
    → "He has all the elders wrapped around his little finger, but something tells me he's trying to pull a fast one."
  5: 0x0077 [0x23] WAIT_FOR_DIALOG_INTERACTION
  6: 0x0078 [0x66] LOAD_EXT_SCHEDULER_MAIN: Load scheduler "thk2" with entities [EventEntity, EventEntity], work=10*
  7: 0x0087 [0x1D] PRINT_EVENT_MESSAGE(message_id=10967*)
    → "If I only had proof..."
  8: 0x008A [0x23] WAIT_FOR_DIALOG_INTERACTION
  9: 0x008B [0x21] END_EVENT
 10: 0x008C [0x00] END_REQSTACK()
```

### Event 312

#### Metadata

| Field        | Value    |
|--------------|----------|
| Entrypoint   | 0x008D   |
| Data Size    | 30 bytes |
| Instructions | 8        |

```
      00 01 02 03 04 05 06 07  08 09 0A 0B 0C 0D 0E 0F
      -- -- -- -- -- -- -- --  -- -- -- -- -- -- -- --
0080:                                         1E F0 FF               ...
0090: FF 7F 1D 12 80 23 66 0D  80 F8 FF FF 7F F8 FF FF  .....#f.........
00A0: 7F 74 6C 6B 30 1D 13 80  23 21 00                 .tlk0...#!.     
```

#### Opcodes

```
  0: 0x008D [0x1E] EventEntity looks at LocalPlayer and starts talking
  1: 0x0092 [0x1D] PRINT_EVENT_MESSAGE(message_id=10968*)
    → "If you even think of doing anything to make Prishe upset, I'll personally whack you upside the head so hard you won't remember what you had for breakfast."
  2: 0x0095 [0x23] WAIT_FOR_DIALOG_INTERACTION
  3: 0x0096 [0x66] LOAD_EXT_SCHEDULER_MAIN: Load scheduler "tlk0" with entities [EventEntity, EventEntity], work=10*
  4: 0x00A5 [0x1D] PRINT_EVENT_MESSAGE(message_id=10969*)
    → "Yeah, she may be a little rough around the edges, but deep inside she's only thinking of her friends and family here in the safehold."
  5: 0x00A8 [0x23] WAIT_FOR_DIALOG_INTERACTION
  6: 0x00A9 [0x21] END_EVENT
  7: 0x00AA [0x00] END_REQSTACK()
```

### Event 313

#### Metadata

| Field        | Value    |
|--------------|----------|
| Entrypoint   | 0x00AB   |
| Data Size    | 49 bytes |
| Instructions | 11       |

```
      00 01 02 03 04 05 06 07  08 09 0A 0B 0C 0D 0E 0F
      -- -- -- -- -- -- -- --  -- -- -- -- -- -- -- --
00A0:                                   1E F0 FF FF 7F             .....
00B0: 1D 14 80 23 66 0D 80 F8  FF FF 7F F8 FF FF 7F 74  ...#f..........t
00C0: 68 6B 31 1D 15 80 23 66  0D 80 F8 FF FF 7F F8 FF  hk1...#f........
00D0: FF 7F 74 68 6B 32 1D 16  80 23 21 00              ..thk2...#!.    
```

#### Opcodes

```
  0: 0x00AB [0x1E] EventEntity looks at LocalPlayer and starts talking
  1: 0x00B0 [0x1D] PRINT_EVENT_MESSAGE(message_id=10970*)
    → "It looks like something big's brewing..."
  2: 0x00B3 [0x23] WAIT_FOR_DIALOG_INTERACTION
  3: 0x00B4 [0x66] LOAD_EXT_SCHEDULER_MAIN: Load scheduler "thk1" with entities [EventEntity, EventEntity], work=10*
  4: 0x00C3 [0x1D] PRINT_EVENT_MESSAGE(message_id=10971*)
    → "I've never been too good with words, but..."
  5: 0x00C6 [0x23] WAIT_FOR_DIALOG_INTERACTION
  6: 0x00C7 [0x66] LOAD_EXT_SCHEDULER_MAIN: Load scheduler "thk2" with entities [EventEntity, EventEntity], work=10*
  7: 0x00D6 [0x1D] PRINT_EVENT_MESSAGE(message_id=10972*)
    → "Get out there and do what you have to do. For the safehold's sake, for Prishe's sake...heck, for the world's sake!"
  8: 0x00D9 [0x23] WAIT_FOR_DIALOG_INTERACTION
  9: 0x00DA [0x21] END_EVENT
 10: 0x00DB [0x00] END_REQSTACK()
```

### Event 314

#### Metadata

| Field        | Value    |
|--------------|----------|
| Entrypoint   | 0x00DC   |
| Data Size    | 30 bytes |
| Instructions | 8        |

```
      00 01 02 03 04 05 06 07  08 09 0A 0B 0C 0D 0E 0F
      -- -- -- -- -- -- -- --  -- -- -- -- -- -- -- --
00D0:                                      1E F0 FF FF              ....
00E0: 7F 1D 17 80 23 66 0D 80  F8 FF FF 7F F8 FF FF 7F  ....#f..........
00F0: 74 6C 6B 30 1D 18 80 23  21 00                    tlk0...#!.      
```

#### Opcodes

```
  0: 0x00DC [0x1E] EventEntity looks at LocalPlayer and starts talking
  1: 0x00E1 [0x1D] PRINT_EVENT_MESSAGE(message_id=10973*)
    → "Maybe it's because we've lived in solitude for so long, but a lot of us have a hard time opening up to those from the outside."
  2: 0x00E4 [0x23] WAIT_FOR_DIALOG_INTERACTION
  3: 0x00E5 [0x66] LOAD_EXT_SCHEDULER_MAIN: Load scheduler "tlk0" with entities [EventEntity, EventEntity], work=10*
  4: 0x00F4 [0x1D] PRINT_EVENT_MESSAGE(message_id=10974*)
    → "But since you came, things have started to change. Thanks, <Player>..."
  5: 0x00F7 [0x23] WAIT_FOR_DIALOG_INTERACTION
  6: 0x00F8 [0x21] END_EVENT
  7: 0x00F9 [0x00] END_REQSTACK()
```

### Event 512

#### Metadata

| Field        | Value   |
|--------------|---------|
| Entrypoint   | 0x00FA  |
| Data Size    | 1 bytes |
| Instructions | 1       |

```
      00 01 02 03 04 05 06 07  08 09 0A 0B 0C 0D 0E 0F
      -- -- -- -- -- -- -- --  -- -- -- -- -- -- -- --
00F0:                                00                           .     
```

#### Opcodes

```
  0: 0x00FA [0x00] END_REQSTACK()
```

### Event 65535.3

#### Metadata

| Field        | Value    |
|--------------|----------|
| Entrypoint   | 0x00FB   |
| Data Size    | 28 bytes |
| Instructions | 6        |

```
      00 01 02 03 04 05 06 07  08 09 0A 0B 0C 0D 0E 0F
      -- -- -- -- -- -- -- --  -- -- -- -- -- -- -- --
00F0:                                   37 19 80 1A 80             7....
0100: 1B 80 1C 80 32 04 80 1F  00 1D 80 1E 80 1F 80 1F  ....2...........
0110: 01 1E 0C A0 01 01 00                              .......         
```

#### Opcodes

```
  0: 0x00FB [0x37] UPDATE_EVENT_POSITION_AND_DIR: x=88.131*, z=67.094*, y=-33.968*, direction=173.8°*
  1: 0x0104 [0x32] ExtData[1]->MainSpeed = 13* * 0.1
  2: 0x0107 [0x1F] MOVE_ENTITY: EventEntity moves to X=85.027*, Z=66.480*, Y=-33.974*
  3: 0x010F [0x1F] MOVE_ENTITY: Update entity position (mode=1)
  4: 0x0111 [0x1E] EventEntity looks at Chemioue (ID: 16883724/0x0101A00C) and starts talking
  5: 0x0116 [0x00] END_REQSTACK()
```

### Event 65535.4

#### Metadata

| Field        | Value    |
|--------------|----------|
| Entrypoint   | 0x0117   |
| Data Size    | 24 bytes |
| Instructions | 5        |

```
      00 01 02 03 04 05 06 07  08 09 0A 0B 0C 0D 0E 0F
      -- -- -- -- -- -- -- --  -- -- -- -- -- -- -- --
0110:                      32  04 80 1F 00 20 80 21 80         2.... .!.
0120: 22 80 1F 01 79 00 F8 FF  FF 7F 3D A0 01 01 00     "...y.....=.... 
```

#### Opcodes

```
  0: 0x0117 [0x32] ExtData[1]->MainSpeed = 13* * 0.1
  1: 0x011A [0x1F] MOVE_ENTITY: EventEntity moves to X=83.705*, Z=65.365*, Y=-33.976*
  2: 0x0122 [0x1F] MOVE_ENTITY: Update entity position (mode=1)
  3: 0x0124 [0x79] EventEntity looks at Raminey (ID: 16883773/0x0101A03D) (Basic look)
  4: 0x012E [0x00] END_REQSTACK()
```

### Event 513

#### Metadata

| Field        | Value   |
|--------------|---------|
| Entrypoint   | 0x012F  |
| Data Size    | 1 bytes |
| Instructions | 1       |

```
      00 01 02 03 04 05 06 07  08 09 0A 0B 0C 0D 0E 0F
      -- -- -- -- -- -- -- --  -- -- -- -- -- -- -- --
0120:                                               00                 .
```

#### Opcodes

```
  0: 0x012F [0x00] END_REQSTACK()
```

### Event 545

#### Metadata

| Field        | Value    |
|--------------|----------|
| Entrypoint   | 0x0130   |
| Data Size    | 13 bytes |
| Instructions | 7        |

```
      00 01 02 03 04 05 06 07  08 09 0A 0B 0C 0D 0E 0F
      -- -- -- -- -- -- -- --  -- -- -- -- -- -- -- --
0130: 1E F0 FF FF 7F 6F 70 1D  23 80 23 21 00           .....op.#.#!.   
```

#### Opcodes

```
  0: 0x0130 [0x1E] EventEntity looks at LocalPlayer and starts talking
  1: 0x0135 [0x6F] WAIT_FRAME_DELAY: Yield until WaitTime reaches zero
  2: 0x0136 [0x70] WAIT_ENTITY_RENDER_FLAG: Wait while EventEntity->Render.Flags3 bit 2 is set (cancel turn if not)
  3: 0x0137 [0x1D] PRINT_EVENT_MESSAGE(message_id=11670*)
    → "Please find as much information as you can. We can worry about finding the culprit afterwards."
  4: 0x013A [0x23] WAIT_FOR_DIALOG_INTERACTION
  5: 0x013B [0x21] END_EVENT
  6: 0x013C [0x00] END_REQSTACK()
```

### Event 544

#### Metadata

| Field        | Value   |
|--------------|---------|
| Entrypoint   | 0x013D  |
| Data Size    | 1 bytes |
| Instructions | 1       |

```
      00 01 02 03 04 05 06 07  08 09 0A 0B 0C 0D 0E 0F
      -- -- -- -- -- -- -- --  -- -- -- -- -- -- -- --
0130:                                         00                     .  
```

#### Opcodes

```
  0: 0x013D [0x00] END_REQSTACK()
```

### Event 65535.5

#### Metadata

| Field        | Value    |
|--------------|----------|
| Entrypoint   | 0x013E   |
| Data Size    | 35 bytes |
| Instructions | 8        |

```
      00 01 02 03 04 05 06 07  08 09 0A 0B 0C 0D 0E 0F
      -- -- -- -- -- -- -- --  -- -- -- -- -- -- -- --
0130:                                            61 00                a.
0140: 32 04 80 1F 00 24 80 25  80 26 80 1F 01 1F 00 27  2....$.%.&.....'
0150: 80 28 80 29 80 1F 01 4A  0B A0 01 01 92 A0 01 01  .(.)...J........
0160: 00                                                .               
```

#### Opcodes

```
  0: 0x013E [0x61] EventEntity->Render.Flags2 &= ~0x00000001
  1: 0x0140 [0x32] ExtData[1]->MainSpeed = 13* * 0.1
  2: 0x0143 [0x1F] MOVE_ENTITY: EventEntity moves to X=89.312*, Z=66.760*, Y=-34.065*
  3: 0x014B [0x1F] MOVE_ENTITY: Update entity position (mode=1)
  4: 0x014D [0x1F] MOVE_ENTITY: EventEntity moves to X=83.102*, Z=63.442*, Y=-34.000*
  5: 0x0155 [0x1F] MOVE_ENTITY: Update entity position (mode=1)
  6: 0x0157 [0x4A] Tressia (ID: 16883723/0x0101A00B) looks at Wazozo (ID: 16883858/0x0101A092)
  7: 0x0160 [0x00] END_REQSTACK()
```

### Event 65535.6

#### Metadata

| Field        | Value    |
|--------------|----------|
| Entrypoint   | 0x0161   |
| Data Size    | 14 bytes |
| Instructions | 4        |

```
      00 01 02 03 04 05 06 07  08 09 0A 0B 0C 0D 0E 0F
      -- -- -- -- -- -- -- --  -- -- -- -- -- -- -- --
0160:    32 04 80 1F 00 2A 80  2B 80 2C 80 1F 01 00      2....*.+.,.... 
```

#### Opcodes

```
  0: 0x0161 [0x32] ExtData[1]->MainSpeed = 13* * 0.1
  1: 0x0164 [0x1F] MOVE_ENTITY: EventEntity moves to X=84.898*, Z=65.759*, Y=-33.985*
  2: 0x016C [0x1F] MOVE_ENTITY: Update entity position (mode=1)
  3: 0x016E [0x00] END_REQSTACK()
```

### Event 548

#### Metadata

| Field        | Value   |
|--------------|---------|
| Entrypoint   | 0x016F  |
| Data Size    | 1 bytes |
| Instructions | 1       |

```
      00 01 02 03 04 05 06 07  08 09 0A 0B 0C 0D 0E 0F
      -- -- -- -- -- -- -- --  -- -- -- -- -- -- -- --
0160:                                               00                 .
```

#### Opcodes

```
  0: 0x016F [0x00] END_REQSTACK()
```

### Event 549

#### Metadata

| Field        | Value   |
|--------------|---------|
| Entrypoint   | 0x0170  |
| Data Size    | 1 bytes |
| Instructions | 1       |

```
      00 01 02 03 04 05 06 07  08 09 0A 0B 0C 0D 0E 0F
      -- -- -- -- -- -- -- --  -- -- -- -- -- -- -- --
0170: 00                                                .               
```

#### Opcodes

```
  0: 0x0170 [0x00] END_REQSTACK()
```

### Event 65535.7

#### Metadata

| Field        | Value    |
|--------------|----------|
| Entrypoint   | 0x0171   |
| Data Size    | 10 bytes |
| Instructions | 2        |

```
      00 01 02 03 04 05 06 07  08 09 0A 0B 0C 0D 0E 0F
      -- -- -- -- -- -- -- --  -- -- -- -- -- -- -- --
0170:    37 2D 80 2E 80 2F 80  30 80 00                  7-.../.0..     
```

#### Opcodes

```
  0: 0x0171 [0x37] UPDATE_EVENT_POSITION_AND_DIR: x=84.236*, z=66.765*, y=-33.955*, direction=155.1°*
  1: 0x017A [0x00] END_REQSTACK()
```

### Event 556

#### Metadata

| Field        | Value    |
|--------------|----------|
| Entrypoint   | 0x017B   |
| Data Size    | 77 bytes |
| Instructions | 17       |

```
      00 01 02 03 04 05 06 07  08 09 0A 0B 0C 0D 0E 0F
      -- -- -- -- -- -- -- --  -- -- -- -- -- -- -- --
0170:                                   1E F0 FF FF 7F             .....
0180: 6F 70 24 31 80 32 80 33  80 25 02 00 10 33 80 00  op$1.2.3.%...3..
0190: B7 01 66 0D 80 F8 FF FF  7F F8 FF FF 7F 74 68 6B  ..f..........thk
01A0: 31 1D 34 80 23 66 0D 80  F8 FF FF 7F F8 FF FF 7F  1.4.#f..........
01B0: 74 68 6B 32 01 C6 01 02  00 10 32 80 00 C6 01 1D  thk2......2.....
01C0: 35 80 23 01 C6 01 21 00                           5.#...!.        
```

#### Opcodes

```
  0: 0x017B [0x1E] EventEntity looks at LocalPlayer and starts talking
  1: 0x0180 [0x6F] WAIT_FRAME_DELAY: Yield until WaitTime reaches zero
  2: 0x0181 [0x70] WAIT_ENTITY_RENDER_FLAG: Wait while EventEntity->Render.Flags3 bit 2 is set (cancel turn if not)
  3: 0x0182 [0x24] CREATE_DIALOG(message_id=11707*, default_option=1*, option_flags=0*)
    → "Are you finished collecting information? [Yes./I need more time.]"
  4: 0x0189 [0x25] WAIT_DIALOG_SELECT()
  5: 0x018A [0x02] IF !(Work_Zone[0] == 0*) GOTO 0x01B7
  6: 0x0192 [0x66] LOAD_EXT_SCHEDULER_MAIN: Load scheduler "thk1" with entities [EventEntity, EventEntity], work=10*
  7: 0x01A1 [0x1D] PRINT_EVENT_MESSAGE(message_id=11708*)
    → "I see... I think we need a little more than this, though. Don't you have anything else?"
  8: 0x01A4 [0x23] WAIT_FOR_DIALOG_INTERACTION
  9: 0x01A5 [0x66] LOAD_EXT_SCHEDULER_MAIN: Load scheduler "thk2" with entities [EventEntity, EventEntity], work=10*
 10: 0x01B4 [0x01] GOTO 0x01C6
 11: 0x01B7 [0x02] IF !(Work_Zone[0] == 1*) GOTO 0x01C6
 12: 0x01BF [0x1D] PRINT_EVENT_MESSAGE(message_id=11709*)
    → "Oh? Hmmm... Well, sorry, but you did offer to help! Someone in this town must know something."
 13: 0x01C2 [0x23] WAIT_FOR_DIALOG_INTERACTION
 14: 0x01C3 [0x01] GOTO 0x01C6

SUBROUTINE_01C6:
 15: 0x01C6 [0x21] END_EVENT
 16: 0x01C7 [0x00] END_REQSTACK()
```

### Event 557

#### Metadata

| Field        | Value   |
|--------------|---------|
| Entrypoint   | 0x01C8  |
| Data Size    | 1 bytes |
| Instructions | 1       |

```
      00 01 02 03 04 05 06 07  08 09 0A 0B 0C 0D 0E 0F
      -- -- -- -- -- -- -- --  -- -- -- -- -- -- -- --
01C0:                          00                               .       
```

#### Opcodes

```
  0: 0x01C8 [0x00] END_REQSTACK()
```

### Event 568

#### Metadata

| Field        | Value   |
|--------------|---------|
| Entrypoint   | 0x01C9  |
| Data Size    | 1 bytes |
| Instructions | 1       |

```
      00 01 02 03 04 05 06 07  08 09 0A 0B 0C 0D 0E 0F
      -- -- -- -- -- -- -- --  -- -- -- -- -- -- -- --
01C0:                             00                             .      
```

#### Opcodes

```
  0: 0x01C9 [0x00] END_REQSTACK()
```

### Event 569

#### Metadata

| Field        | Value   |
|--------------|---------|
| Entrypoint   | 0x01CA  |
| Data Size    | 1 bytes |
| Instructions | 1       |

```
      00 01 02 03 04 05 06 07  08 09 0A 0B 0C 0D 0E 0F
      -- -- -- -- -- -- -- --  -- -- -- -- -- -- -- --
01C0:                                00                           .     
```

#### Opcodes

```
  0: 0x01CA [0x00] END_REQSTACK()
```

### Event 565

#### Metadata

| Field        | Value     |
|--------------|-----------|
| Entrypoint   | 0x01CB    |
| Data Size    | 394 bytes |
| Instructions | 79        |

```
      00 01 02 03 04 05 06 07  08 09 0A 0B 0C 0D 0E 0F
      -- -- -- -- -- -- -- --  -- -- -- -- -- -- -- --
01C0:                                   03 02 10 36 80             ...6.
01D0: 1E F0 FF FF 7F 1D 37 80  23 24 38 80 33 80 33 80  ......7.#$8.3.3.
01E0: 25 02 00 10 33 80 00 F1  01 03 00 00 33 80 01 21  %...3.......3..!
01F0: 02 02 00 10 32 80 00 01  02 03 00 00 32 80 01 21  ....2.......2..!
0200: 02 02 00 10 39 80 00 11  02 03 00 00 32 80 01 21  ....9.......2..!
0210: 02 02 00 10 3A 80 00 21  02 03 00 00 32 80 01 21  ....:..!....2..!
0220: 02 24 3B 80 33 80 33 80  25 02 00 10 33 80 00 44  .$;.3.3.%...3..D
0230: 02 02 00 00 33 80 00 41  02 03 00 00 32 80 01 41  ....3..A....2..A
0240: 02 01 7A 02 02 00 10 39  80 00 5F 02 02 00 00 33  ..z....9.._....3
0250: 80 00 5C 02 03 00 00 32  80 01 5C 02 01 7A 02 02  ..\....2..\..z..
0260: 00 10 3A 80 00 7A 02 02  00 00 33 80 00 77 02 03  ..:..z....3..w..
0270: 00 00 32 80 01 77 02 01  7A 02 24 3C 80 33 80 33  ..2..w..z.$<.3.3
0280: 80 25 02 00 10 33 80 00  9D 02 02 00 00 33 80 00  .%...3.......3..
0290: 9A 02 03 00 00 32 80 01  9A 02 01 D3 02 02 00 10  .....2..........
02A0: 32 80 00 B8 02 02 00 00  33 80 00 B5 02 03 00 00  2.......3.......
02B0: 32 80 01 B5 02 01 D3 02  02 00 10 39 80 00 D3 02  2..........9....
02C0: 02 00 00 33 80 00 D0 02  03 00 00 32 80 01 D0 02  ...3.......2....
02D0: 01 D3 02 24 3D 80 33 80  33 80 25 02 00 10 33 80  ...$=.3.3.%...3.
02E0: 00 F6 02 02 00 00 33 80  00 F3 02 03 00 00 32 80  ......3.......2.
02F0: 01 F3 02 01 2C 03 02 00  10 32 80 00 11 03 02 00  ....,....2......
0300: 00 33 80 00 0E 03 03 00  00 32 80 01 0E 03 01 2C  .3.......2.....,
0310: 03 02 00 10 3A 80 00 2C  03 02 00 00 33 80 00 29  ....:..,....3..)
0320: 03 03 00 00 32 80 01 29  03 01 2C 03 02 00 00 32  ....2..)..,....2
0330: 80 00 3B 03 1D 3E 80 23  01 50 03 02 00 00 33 80  ..;..>.#.P....3.
0340: 00 50 03 27 0F F0 FF FF  7F 57 2A 0F F0 FF FF 7F  .P.'.....W*.....
0350: 1C 3F 80 21 00                                    .?.!.           
```

#### Opcodes

```
  0: 0x01CB [0x03] Work_Zone[2] = 718*
  1: 0x01D0 [0x1E] EventEntity looks at LocalPlayer and starts talking
  2: 0x01D5 [0x1D] PRINT_EVENT_MESSAGE(message_id=11746*)
    → "So, did you figure out where each person was when they witnessed a suspicious act? If you know, please tell us."
  3: 0x01D8 [0x23] WAIT_FOR_DIALOG_INTERACTION
  4: 0x01D9 [0x24] CREATE_DIALOG(message_id=11747*, default_option=0*, option_flags=0*)
    → "Where did the events in Report 1 occur? [<I-8>./<H-8>./<J-7>./<G-9>.]"
  5: 0x01E0 [0x25] WAIT_DIALOG_SELECT()
  6: 0x01E1 [0x02] IF !(Work_Zone[0] == 0*) GOTO 0x01F1
  7: 0x01E9 [0x03] ExtData[1]->WorkLocal[0] = 0*
  8: 0x01EE [0x01] GOTO 0x0221
  9: 0x01F1 [0x02] IF !(Work_Zone[0] == 1*) GOTO 0x0201
 10: 0x01F9 [0x03] ExtData[1]->WorkLocal[0] = 1*
 11: 0x01FE [0x01] GOTO 0x0221
 12: 0x0201 [0x02] IF !(Work_Zone[0] == 2*) GOTO 0x0211
 13: 0x0209 [0x03] ExtData[1]->WorkLocal[0] = 1*
 14: 0x020E [0x01] GOTO 0x0221
 15: 0x0211 [0x02] IF !(Work_Zone[0] == 3*) GOTO 0x0221
 16: 0x0219 [0x03] ExtData[1]->WorkLocal[0] = 1*
 17: 0x021E [0x01] GOTO 0x0221

SUBROUTINE_0221:
 18: 0x0221 [0x24] CREATE_DIALOG(message_id=11748*, default_option=0*, option_flags=0*)
    → "Where did the events in Report 2 occur? [<I-8>./<H-8>./<J-7>./<G-9>.]"
 19: 0x0228 [0x25] WAIT_DIALOG_SELECT()
 20: 0x0229 [0x02] IF !(Work_Zone[0] == 0*) GOTO 0x0244
 21: 0x0231 [0x02] IF !(ExtData[1]->WorkLocal[0] == 0*) GOTO 0x0241
 22: 0x0239 [0x03] ExtData[1]->WorkLocal[0] = 1*
 23: 0x023E [0x01] GOTO 0x0241

SUBROUTINE_0241:
 24: 0x0241 [0x01] GOTO 0x027A
 25: 0x0244 [0x02] IF !(Work_Zone[0] == 2*) GOTO 0x025F
 26: 0x024C [0x02] IF !(ExtData[1]->WorkLocal[0] == 0*) GOTO 0x025C
 27: 0x0254 [0x03] ExtData[1]->WorkLocal[0] = 1*
 28: 0x0259 [0x01] GOTO 0x025C

SUBROUTINE_025C:
 29: 0x025C [0x01] GOTO 0x027A
 30: 0x025F [0x02] IF !(Work_Zone[0] == 3*) GOTO 0x027A
 31: 0x0267 [0x02] IF !(ExtData[1]->WorkLocal[0] == 0*) GOTO 0x0277
 32: 0x026F [0x03] ExtData[1]->WorkLocal[0] = 1*
 33: 0x0274 [0x01] GOTO 0x0277

SUBROUTINE_0277:
 34: 0x0277 [0x01] GOTO 0x027A

SUBROUTINE_027A:
 35: 0x027A [0x24] CREATE_DIALOG(message_id=11749*, default_option=0*, option_flags=0*)
    → "Where did the events in Report 3 occur? [<I-8>./<H-8>./<J-7>./<G-9>.]"
 36: 0x0281 [0x25] WAIT_DIALOG_SELECT()
 37: 0x0282 [0x02] IF !(Work_Zone[0] == 0*) GOTO 0x029D
 38: 0x028A [0x02] IF !(ExtData[1]->WorkLocal[0] == 0*) GOTO 0x029A
 39: 0x0292 [0x03] ExtData[1]->WorkLocal[0] = 1*
 40: 0x0297 [0x01] GOTO 0x029A

SUBROUTINE_029A:
 41: 0x029A [0x01] GOTO 0x02D3
 42: 0x029D [0x02] IF !(Work_Zone[0] == 1*) GOTO 0x02B8
 43: 0x02A5 [0x02] IF !(ExtData[1]->WorkLocal[0] == 0*) GOTO 0x02B5
 44: 0x02AD [0x03] ExtData[1]->WorkLocal[0] = 1*
 45: 0x02B2 [0x01] GOTO 0x02B5

SUBROUTINE_02B5:
 46: 0x02B5 [0x01] GOTO 0x02D3
 47: 0x02B8 [0x02] IF !(Work_Zone[0] == 2*) GOTO 0x02D3
 48: 0x02C0 [0x02] IF !(ExtData[1]->WorkLocal[0] == 0*) GOTO 0x02D0
 49: 0x02C8 [0x03] ExtData[1]->WorkLocal[0] = 1*
 50: 0x02CD [0x01] GOTO 0x02D0

SUBROUTINE_02D0:
 51: 0x02D0 [0x01] GOTO 0x02D3

SUBROUTINE_02D3:
 52: 0x02D3 [0x24] CREATE_DIALOG(message_id=11750*, default_option=0*, option_flags=0*)
    → "Where did the events in Report 4 occur? [<I-8>./<H-8>./<J-7>./<G-9>.]"
 53: 0x02DA [0x25] WAIT_DIALOG_SELECT()
 54: 0x02DB [0x02] IF !(Work_Zone[0] == 0*) GOTO 0x02F6
 55: 0x02E3 [0x02] IF !(ExtData[1]->WorkLocal[0] == 0*) GOTO 0x02F3
 56: 0x02EB [0x03] ExtData[1]->WorkLocal[0] = 1*
 57: 0x02F0 [0x01] GOTO 0x02F3

SUBROUTINE_02F3:
 58: 0x02F3 [0x01] GOTO 0x032C
 59: 0x02F6 [0x02] IF !(Work_Zone[0] == 1*) GOTO 0x0311
 60: 0x02FE [0x02] IF !(ExtData[1]->WorkLocal[0] == 0*) GOTO 0x030E
 61: 0x0306 [0x03] ExtData[1]->WorkLocal[0] = 1*
 62: 0x030B [0x01] GOTO 0x030E

SUBROUTINE_030E:
 63: 0x030E [0x01] GOTO 0x032C
 64: 0x0311 [0x02] IF !(Work_Zone[0] == 3*) GOTO 0x032C
 65: 0x0319 [0x02] IF !(ExtData[1]->WorkLocal[0] == 0*) GOTO 0x0329
 66: 0x0321 [0x03] ExtData[1]->WorkLocal[0] = 1*
 67: 0x0326 [0x01] GOTO 0x0329

SUBROUTINE_0329:
 68: 0x0329 [0x01] GOTO 0x032C

SUBROUTINE_032C:
 69: 0x032C [0x02] IF !(ExtData[1]->WorkLocal[0] == 1*) GOTO 0x033B
 70: 0x0334 [0x1D] PRINT_EVENT_MESSAGE(message_id=11751*)
    → "Hmmm..."
 71: 0x0337 [0x23] WAIT_FOR_DIALOG_INTERACTION
 72: 0x0338 [0x01] GOTO 0x0350
 73: 0x033B [0x02] IF !(ExtData[1]->WorkLocal[0] == 0*) GOTO 0x0350
 74: 0x0343 [0x27] REQ_SET(priority=0x0F, entity_id=LocalPlayer, tag_num=0x57)
 75: 0x034A [0x2A] GET_REQ_LEVEL(level=15, entity_id=LocalPlayer)

SUBROUTINE_0350:
 76: 0x0350 [0x1C] WAIT(120* ticks)
 77: 0x0353 [0x21] END_EVENT
 78: 0x0354 [0x00] END_REQSTACK()
```

### Event 567

#### Metadata

| Field        | Value   |
|--------------|---------|
| Entrypoint   | 0x0355  |
| Data Size    | 1 bytes |
| Instructions | 1       |

```
      00 01 02 03 04 05 06 07  08 09 0A 0B 0C 0D 0E 0F
      -- -- -- -- -- -- -- --  -- -- -- -- -- -- -- --
0350:                00                                      .          
```

#### Opcodes

```
  0: 0x0355 [0x00] END_REQSTACK()
```

### Event 566

#### Metadata

| Field        | Value    |
|--------------|----------|
| Entrypoint   | 0x0356   |
| Data Size    | 13 bytes |
| Instructions | 7        |

```
      00 01 02 03 04 05 06 07  08 09 0A 0B 0C 0D 0E 0F
      -- -- -- -- -- -- -- --  -- -- -- -- -- -- -- --
0350:                   1E F0  FF FF 7F 6F 70 1D 40 80        .....op.@.
0360: 23 21 00                                          #!.             
```

#### Opcodes

```
  0: 0x0356 [0x1E] EventEntity looks at LocalPlayer and starts talking
  1: 0x035B [0x6F] WAIT_FRAME_DELAY: Yield until WaitTime reaches zero
  2: 0x035C [0x70] WAIT_ENTITY_RENDER_FLAG: Wait while EventEntity->Render.Flags3 bit 2 is set (cancel turn if not)
  3: 0x035D [0x1D] PRINT_EVENT_MESSAGE(message_id=11759*)
    → "<Player>, do you think you could go to the tributary and follow the criminal's trail? We will stay here and try to find out why the thief was there in the first place."
  4: 0x0360 [0x23] WAIT_FOR_DIALOG_INTERACTION
  5: 0x0361 [0x21] END_EVENT
  6: 0x0362 [0x00] END_REQSTACK()
```

### Event 558

#### Metadata

| Field        | Value   |
|--------------|---------|
| Entrypoint   | 0x0363  |
| Data Size    | 1 bytes |
| Instructions | 1       |

```
      00 01 02 03 04 05 06 07  08 09 0A 0B 0C 0D 0E 0F
      -- -- -- -- -- -- -- --  -- -- -- -- -- -- -- --
0360:          00                                          .            
```

#### Opcodes

```
  0: 0x0363 [0x00] END_REQSTACK()
```

### Event 65535.8

#### Metadata

| Field        | Value    |
|--------------|----------|
| Entrypoint   | 0x0364   |
| Data Size    | 10 bytes |
| Instructions | 2        |

```
      00 01 02 03 04 05 06 07  08 09 0A 0B 0C 0D 0E 0F
      -- -- -- -- -- -- -- --  -- -- -- -- -- -- -- --
0360:             37 41 80 42  80 43 80 44 80 00            7A.B.C.D..  
```

#### Opcodes

```
  0: 0x0364 [0x37] UPDATE_EVENT_POSITION_AND_DIR: x=-0.154*, z=13.319*, y=-22.237*, direction=103.7°*
  1: 0x036D [0x00] END_REQSTACK()
```

### Event 65535.9

#### Metadata

| Field        | Value    |
|--------------|----------|
| Entrypoint   | 0x036E   |
| Data Size    | 14 bytes |
| Instructions | 4        |

```
      00 01 02 03 04 05 06 07  08 09 0A 0B 0C 0D 0E 0F
      -- -- -- -- -- -- -- --  -- -- -- -- -- -- -- --
0360:                                            32 04                2.
0370: 80 1F 00 45 80 46 80 47  80 1F 01 00              ...E.F.G....    
```

#### Opcodes

```
  0: 0x036E [0x32] ExtData[1]->MainSpeed = 13* * 0.1
  1: 0x0371 [0x1F] MOVE_ENTITY: EventEntity moves to X=-0.367*, Z=10.220*, Y=-22.138*
  2: 0x0379 [0x1F] MOVE_ENTITY: Update entity position (mode=1)
  3: 0x037B [0x00] END_REQSTACK()
```

### Event 562

#### Metadata

| Field        | Value    |
|--------------|----------|
| Entrypoint   | 0x037C   |
| Data Size    | 55 bytes |
| Instructions | 15       |

```
      00 01 02 03 04 05 06 07  08 09 0A 0B 0C 0D 0E 0F
      -- -- -- -- -- -- -- --  -- -- -- -- -- -- -- --
0370:                                      1E F0 FF FF              ....
0380: 7F 6F 70 1D 48 80 23 1D  49 80 23 66 04 80 F8 FF  .op.H.#.I.#f....
0390: FF 7F F8 FF FF 7F 74 6C  62 30 1D 4A 80 23 1D 4B  ......tlb0.J.#.K
03A0: 80 23 66 04 80 F8 FF FF  7F F8 FF FF 7F 74 6C 62  .#f..........tlb
03B0: 31 21 00                                          1!.             
```

#### Opcodes

```
  0: 0x037C [0x1E] EventEntity looks at LocalPlayer and starts talking
  1: 0x0381 [0x6F] WAIT_FRAME_DELAY: Yield until WaitTime reaches zero
  2: 0x0382 [0x70] WAIT_ENTITY_RENDER_FLAG: Wait while EventEntity->Render.Flags3 bit 2 is set (cancel turn if not)
  3: 0x0383 [0x1D] PRINT_EVENT_MESSAGE(message_id=11790*)
    → "Hey, thanks a lot for all you've done for us."
  4: 0x0386 [0x23] WAIT_FOR_DIALOG_INTERACTION
  5: 0x0387 [0x1D] PRINT_EVENT_MESSAGE(message_id=11791*)
    → "We put Wazozo to the question, and she eventually confessed to getting hold of a chunk of gold."
  6: 0x038A [0x23] WAIT_FOR_DIALOG_INTERACTION
  7: 0x038B [0x66] LOAD_EXT_SCHEDULER_MAIN: Load scheduler "tlb0" with entities [EventEntity, EventEntity], work=13*
  8: 0x039A [0x1D] PRINT_EVENT_MESSAGE(message_id=11792*)
    → "Oh yeah, I should give you something for your efforts. I've already informed Ondieulix of your deeds, so just talk to him for your reward."
  9: 0x039D [0x23] WAIT_FOR_DIALOG_INTERACTION
 10: 0x039E [0x1D] PRINT_EVENT_MESSAGE(message_id=11793*)
    → "We're still tailing Miledo-Shiraddo. If you happen to see him around, please inform us."
 11: 0x03A1 [0x23] WAIT_FOR_DIALOG_INTERACTION
 12: 0x03A2 [0x66] LOAD_EXT_SCHEDULER_MAIN: Load scheduler "tlb1" with entities [EventEntity, EventEntity], work=13*
 13: 0x03B1 [0x21] END_EVENT
 14: 0x03B2 [0x00] END_REQSTACK()
```

### Event 561

#### Metadata

| Field        | Value   |
|--------------|---------|
| Entrypoint   | 0x03B3  |
| Data Size    | 1 bytes |
| Instructions | 1       |

```
      00 01 02 03 04 05 06 07  08 09 0A 0B 0C 0D 0E 0F
      -- -- -- -- -- -- -- --  -- -- -- -- -- -- -- --
03B0:          00                                          .            
```

#### Opcodes

```
  0: 0x03B3 [0x00] END_REQSTACK()
```

### Event 65535.10

#### Metadata

| Field        | Value   |
|--------------|---------|
| Entrypoint   | 0x03B4  |
| Data Size    | 4 bytes |
| Instructions | 2       |

```
      00 01 02 03 04 05 06 07  08 09 0A 0B 0C 0D 0E 0F
      -- -- -- -- -- -- -- --  -- -- -- -- -- -- -- --
03B0:             95 33 80 00                               .3..        
```

#### Opcodes

```
  0: 0x03B4 [0x95] SETUP_EVENT_NPC: Prepare NPC for event (Render.Flags3 = 0*)
  1: 0x03B7 [0x00] END_REQSTACK()
```

### Event 65535.11

#### Metadata

| Field        | Value   |
|--------------|---------|
| Entrypoint   | 0x03B8  |
| Data Size    | 2 bytes |
| Instructions | 2       |

```
      00 01 02 03 04 05 06 07  08 09 0A 0B 0C 0D 0E 0F
      -- -- -- -- -- -- -- --  -- -- -- -- -- -- -- --
03B0:                          96 00                            ..      
```

#### Opcodes

```
  0: 0x03B8 [0x96] UNSET_EVENT_NPC: Restore NPC after event (removes event NPC status)
  1: 0x03B9 [0x00] END_REQSTACK()
```

### Event 629

#### Metadata

| Field        | Value   |
|--------------|---------|
| Entrypoint   | 0x03BA  |
| Data Size    | 1 bytes |
| Instructions | 1       |

```
      00 01 02 03 04 05 06 07  08 09 0A 0B 0C 0D 0E 0F
      -- -- -- -- -- -- -- --  -- -- -- -- -- -- -- --
03B0:                                00                           .     
```

#### Opcodes

```
  0: 0x03BA [0x00] END_REQSTACK()
```

### Event 65535.12

#### Metadata

| Field        | Value    |
|--------------|----------|
| Entrypoint   | 0x03BB   |
| Data Size    | 14 bytes |
| Instructions | 4        |

```
      00 01 02 03 04 05 06 07  08 09 0A 0B 0C 0D 0E 0F
      -- -- -- -- -- -- -- --  -- -- -- -- -- -- -- --
03B0:                                   32 04 80 1F 00             2....
03C0: 4C 80 4D 80 4E 80 1F 01  00                       L.M.N....       
```

#### Opcodes

```
  0: 0x03BB [0x32] ExtData[1]->MainSpeed = 13* * 0.1
  1: 0x03BE [0x1F] MOVE_ENTITY: EventEntity moves to X=-27.404*, Z=124.366*, Y=-27.000*
  2: 0x03C6 [0x1F] MOVE_ENTITY: Update entity position (mode=1)
  3: 0x03C8 [0x00] END_REQSTACK()
```

### Event 65535.13

#### Metadata

| Field        | Value    |
|--------------|----------|
| Entrypoint   | 0x03C9   |
| Data Size    | 14 bytes |
| Instructions | 4        |

```
      00 01 02 03 04 05 06 07  08 09 0A 0B 0C 0D 0E 0F
      -- -- -- -- -- -- -- --  -- -- -- -- -- -- -- --
03C0:                             32 04 80 1F 00 4F 80           2....O.
03D0: 50 80 51 80 1F 01 00                              P.Q....         
```

#### Opcodes

```
  0: 0x03C9 [0x32] ExtData[1]->MainSpeed = 13* * 0.1
  1: 0x03CC [0x1F] MOVE_ENTITY: EventEntity moves to X=-13.907*, Z=110.271*, Y=-27.889*
  2: 0x03D4 [0x1F] MOVE_ENTITY: Update entity position (mode=1)
  3: 0x03D6 [0x00] END_REQSTACK()
```

### Event 65535.14

#### Metadata

| Field        | Value    |
|--------------|----------|
| Entrypoint   | 0x03D7   |
| Data Size    | 22 bytes |
| Instructions | 6        |

```
      00 01 02 03 04 05 06 07  08 09 0A 0B 0C 0D 0E 0F
      -- -- -- -- -- -- -- --  -- -- -- -- -- -- -- --
03D0:                      32  04 80 1F 00 52 80 53 80         2....R.S.
03E0: 54 80 1F 01 1E 0A A0 01  01 1C 55 80 00           T.........U..   
```

#### Opcodes

```
  0: 0x03D7 [0x32] ExtData[1]->MainSpeed = 13* * 0.1
  1: 0x03DA [0x1F] MOVE_ENTITY: EventEntity moves to X=-9.226*, Z=121.815*, Y=-26.658*
  2: 0x03E2 [0x1F] MOVE_ENTITY: Update entity position (mode=1)
  3: 0x03E4 [0x1E] EventEntity looks at Justinius (ID: 16883722/0x0101A00A) and starts talking
  4: 0x03E9 [0x1C] WAIT(30* ticks)
  5: 0x03EC [0x00] END_REQSTACK()
```

### Event 65535.15

#### Metadata

| Field        | Value    |
|--------------|----------|
| Entrypoint   | 0x03ED   |
| Data Size    | 24 bytes |
| Instructions | 6        |

```
      00 01 02 03 04 05 06 07  08 09 0A 0B 0C 0D 0E 0F
      -- -- -- -- -- -- -- --  -- -- -- -- -- -- -- --
03E0:                                         32 04 80               2..
03F0: 1F 00 52 80 53 80 54 80  1F 01 1F 00 56 80 57 80  ..R.S.T.....V.W.
0400: 58 80 1F 01 00                                    X....           
```

#### Opcodes

```
  0: 0x03ED [0x32] ExtData[1]->MainSpeed = 13* * 0.1
  1: 0x03F0 [0x1F] MOVE_ENTITY: EventEntity moves to X=-9.226*, Z=121.815*, Y=-26.658*
  2: 0x03F8 [0x1F] MOVE_ENTITY: Update entity position (mode=1)
  3: 0x03FA [0x1F] MOVE_ENTITY: EventEntity moves to X=-6.939*, Z=116.948*, Y=-28.008*
  4: 0x0402 [0x1F] MOVE_ENTITY: Update entity position (mode=1)
  5: 0x0404 [0x00] END_REQSTACK()
```
