# 16883836 - Yurim

## Common Data

| Field            | Value                       |
|------------------|-----------------------------|
| Zone             | Tavnazian Safehold (ID: 26) |
| Block Size       | 4404 bytes                  |
| Total Events     | 11                          |
| References Count | 138                         |

## List of Events

| Event ID              | Entrypoint   |   Size |   Instructions |
|-----------------------|--------------|--------|----------------|
| [65535](#event-65535) | 0x0000       |      1 |              1 |
| [527](#event-527)     | 0x0001       |     19 |              9 |
| [519](#event-519)     | 0x0014       |    409 |            122 |
| [524](#event-524)     | 0x01AD       |    175 |             41 |
| [525](#event-525)     | 0x025C       |     11 |              5 |
| [526](#event-526)     | 0x0267       |    670 |            138 |
| [528](#event-528)     | 0x0505       |    539 |            108 |
| [531](#event-531)     | 0x0720       |   1104 |            256 |
| [529](#event-529)     | 0x0B70       |    313 |             64 |
| [530](#event-530)     | 0x0CA9       |     15 |              7 |
| [532](#event-532)     | 0x0CB8       |    536 |            108 |

## DAT References (imed_data)

|   Index | Hex Value   |   Dec Value |
|---------|-------------|-------------|
|       0 | 0x2C97      |       11415 |
|       1 | 0x2C98      |       11416 |
|       2 | 0x2C99      |       11417 |
|       3 | 0x0002      |           2 |
|       4 | 0x0000      |           0 |
|       5 | 0x2C9A      |       11418 |
|       6 | 0x0001      |           1 |
|       7 | 0x2C9B      |       11419 |
|       8 | 0x2C9C      |       11420 |
|       9 | 0x2C9D      |       11421 |
|      10 | 0x2CA0      |       11424 |
|      11 | 0x2CA1      |       11425 |
|      12 | 0x2CA3      |       11427 |
|      13 | 0x2CA4      |       11428 |
|      14 | 0x2CA5      |       11429 |
|      15 | 0x2CA6      |       11430 |
|      16 | 0x2CA7      |       11431 |
|      17 | 0x2CA8      |       11432 |
|      18 | 0x2CA9      |       11433 |
|      19 | 0x2CAA      |       11434 |
|      20 | 0x2CAB      |       11435 |
|      21 | 0x2CAC      |       11436 |
|      22 | 0x2CAD      |       11437 |
|      23 | 0x003C      |          60 |
|      24 | 0x0014      |          20 |
|      25 | 0x0013      |          19 |
|      26 | 0x2CAE      |       11438 |
|      27 | 0x2CAF      |       11439 |
|      28 | 0x2CA2      |       11426 |
|      29 | 0x2C9E      |       11422 |
|      30 | 0x2CB0      |       11440 |
|      31 | 0x2CB1      |       11441 |
|      32 | 0x2CB2      |       11442 |
|      33 | 0x2CB3      |       11443 |
|      34 | 0x0078      |         120 |
|      35 | 0x0012      |          18 |
|      36 | 0x2CB4      |       11444 |
|      37 | 0x2C9F      |       11423 |
|      38 | 0x2CB5      |       11445 |
|      39 | 0x0006      |           6 |
|      40 | 0x2CB6      |       11446 |
|      41 | 0x003D      |          61 |
|      42 | 0x2CB7      |       11447 |
|      43 | 0x2CB8      |       11448 |
|      44 | 0x2CB9      |       11449 |
|      45 | 0x2CBA      |       11450 |
|      46 | 0x2CBB      |       11451 |
|      47 | 0x2CBC      |       11452 |
|      48 | 0x2CBD      |       11453 |
|      49 | 0x2CBE      |       11454 |
|      50 | 0x2CBF      |       11455 |
|      51 | 0x2CC0      |       11456 |
|      52 | 0x2CC1      |       11457 |
|      53 | 0x2CC2      |       11458 |
|      54 | 0x2CC3      |       11459 |
|      55 | 0x3395      |       13205 |
|      56 | 0x01DA      |         474 |
|      57 | 0x01DE      |         478 |
|      58 | 0x0003      |           3 |
|      59 | 0x01DD      |         477 |
|      60 | 0x0004      |           4 |
|      61 | 0x01DC      |         476 |
|      62 | 0x0005      |           5 |
|      63 | 0x01DF      |         479 |
|      64 | 0x01DB      |         475 |
|      65 | 0x0007      |           7 |
|      66 | 0x01E0      |         480 |
|      67 | 0x0008      |           8 |
|      68 | 0x01E1      |         481 |
|      69 | 0x0009      |           9 |
|      70 | 0x3318      |       13080 |
|      71 | 0x000A      |          10 |
|      72 | 0x000B      |          11 |
|      73 | 0x000C      |          12 |
|      74 | 0x000D      |          13 |
|      75 | 0x000E      |          14 |
|      76 | 0x000F      |          15 |
|      77 | 0x0010      |          16 |
|      78 | 0x0011      |          17 |
|      79 | 0x340F      |       13327 |
|      80 | 0x0015      |          21 |
|      81 | 0x0016      |          22 |
|      82 | 0x0017      |          23 |
|      83 | 0x0018      |          24 |
|      84 | 0x2CC4      |       11460 |
|      85 | 0x2CC5      |       11461 |
|      86 | 0x2CC6      |       11462 |
|      87 | 0x2CC7      |       11463 |
|      88 | 0x2CC8      |       11464 |
|      89 | 0x2CC9      |       11465 |
|      90 | 0x2CCA      |       11466 |
|      91 | 0x2CCB      |       11467 |
|      92 | 0x2CCC      |       11468 |
|      93 | 0x2CCD      |       11469 |
|      94 | 0x0024      |          36 |
|      95 | 0x2CCE      |       11470 |
|      96 | 0x2CCF      |       11471 |
|      97 | 0x2CD2      |       11474 |
|      98 | 0x2CD0      |       11472 |
|      99 | 0x2CD1      |       11473 |
|     100 | 0x2CD3      |       11475 |
|     101 | 0x2CD4      |       11476 |
|     102 | 0x0020      |          32 |
|     103 | 0x2CD5      |       11477 |
|     104 | 0x2CD6      |       11478 |
|     105 | 0x2CD7      |       11479 |
|     106 | 0x2CD8      |       11480 |
|     107 | 0x06F7      |        1783 |
|     108 | 0x06F9      |        1785 |
|     109 | 0x06F8      |        1784 |
|     110 | 0x2CDA      |       11482 |
|     111 | 0x06FB      |        1787 |
|     112 | 0x06FA      |        1786 |
|     113 | 0x06FC      |        1788 |
|     114 | 0x2CDB      |       11483 |
|     115 | 0x071A      |        1818 |
|     116 | 0x2CD9      |       11481 |
|     117 | 0x2CDC      |       11484 |
|     118 | 0x2CDD      |       11485 |
|     119 | 0x2CDE      |       11486 |
|     120 | 0x001E      |          30 |
|     121 | 0x00C8      |         200 |
|     122 | 0x2CDF      |       11487 |
|     123 | 0x2CE0      |       11488 |
|     124 | 0x2CE1      |       11489 |
|     125 | 0x2CE2      |       11490 |
|     126 | 0x2CE3      |       11491 |
|     127 | 0x2CE4      |       11492 |
|     128 | 0x2CE5      |       11493 |
|     129 | 0x2CE6      |       11494 |
|     130 | 0x2CE7      |       11495 |
|     131 | 0x2CE8      |       11496 |
|     132 | 0x2CE9      |       11497 |
|     133 | 0x2CEA      |       11498 |
|     134 | 0x00C9      |         201 |
|     135 | 0x2CEB      |       11499 |
|     136 | 0x2CEC      |       11500 |
|     137 | 0x2CED      |       11501 |

## String References

- **11415**: Why, you don't look like you are a native to the archipelago. Are you trapped here as well?
- **11416**: I traveled to Jeuno from my home country in the Near East to continue my research in various types of matter and antimatter. However, one day while I was collecting specimens in the caves around Delkfutt's Tower, I fell into some strange vortex. When I woke up, I found myself here on this island with no way to return home.
- **11417**: How am I supposed to continue my studies in such an inconvenient location!?
- **11418**: Hmmm... The reverse fluctuation of alpha-thermo waves can be considered a sign of protomutation...
- **11419**: But the resulting flow of exoparticles that accompanies the hyporeaction drastically hinders the growth of new biomatter...
- **11420**: H-how dare you sneak up on a lady like that! Leave now before I call the Tavnazian Patrol!
- **11421**: Hm? You would like to know what I'm doing? It's fairly complicated, and you look awfully busy...
- **11422**: Hm? You would like to know what I'm doing? I don't know... You probably won't find it very interesting...
- **11423**: Hm? You would like to know what I'm doing? I don't think it concerns you, but...
- **11424**: Well...? [Hurry up and tell me!/If you put it that way.]
- **11425**: Alright... Recently I've begun research on new methods of matter processing. If I succeed, my theories could rival the primitive methods of conventional synthesis.
- **11426**: Very good. Now be on your way so I can return to my studies.
- **11427**: You see, in addition to crystals, there are certain unique types of matter that, when used as a catalyst, can transmogrify normal, everyday items into creations never seen before by man or woman! I like to call that substance "Xenomatter."
- **11428**: I'm still in the beginning stages of my research, but I've already discovered a way to manipulate Xenomatter in a way that it can be used to multiply the strength and durability of certain materials. I hope that my further studies will result in the discovery of even more benefits.
- **11429**: Let me explain further... For example, say I was to attempt to alter the polymolecular makeup of this clam using the Xenomatter in question. As you know, this particular variety of clam only lives in the shallows of a certain tiny island far off the coast of southeastern Mindartia.
- **11430**: To find one of these specimens, not only would one have to be an expert on the clam's native habitat, but also be knowledgeable of their mating and feeding patterns, their reactions to the rise and fall of geothermal temperature levels, as well as their migratory tendencies, and how all these are affected by the varying seasonal lunar cycles. In other words, it is extremely difficult.
- **11431**: However, large quantities of this rare species of bivalve mollusk are crucial in order to procure enough reliable data to prove my hypotheses infallible. Unfortunately, due to the difficulty in acquiring the specimens, I often find myself in quite a predicament. A single experiment consists of placing three medium-sized clams in a hypophosphorous chamber laced with a small quantity of Xenomatter.
- **11432**: After sealing the box with a cermopolymer compound (to prevent unnecessary carbo-oxidization), it is only a matter of minutes before a micronucleic reaction occurs and a minute quantity of fluoroplasm is released.
- **11433**: I have come to the conclusion that the energy for this reaction comes from the calcitron particles concealed within the mucocide membranes located between the abdominal region of the clam and its shell. Unfortunately, during the plasmatic release of free radicals, the specimen experiences a rapid loss of aminofluids and eventually turns to ash, therefore preventing me from using the same clam in a future test.
- **11434**: Overall, while I realize that the impact the excessive gathering of new specimens may have on the island's aquaculture could be catastrophic, I am ultimately left with no other option. Who am I to turn my back on scientific progress?
- **11435**: Now as I was saying, when applied to the clams, the Xenomatter causes a photomutegenic reaction that eventually reduces the specimen to a pile of neutrinogen-rich ashes (those ashes tend to be alkaline-based; however, I have yet to determine the significance of this phenomenon).
- **11436**: If I can find the reason behind the aminofluid loss and its relation with the plasmatic release, I may be able to explain the finite relation of the clams' hydroplasma-oriented biomorphic structure to the quasizymotic nature of Xenomatter. And if I succeed in that, it won't be long before I am...
- **11437**: Ow! I bit my thongue... Um... Won't the long thefore I...I...uthe that data to therfect a new nethod of natter throthething. ......... ...... ...
- **11438**: Did you get all that?
- **11439**: Well, no matter. Now leave me alone. I have to return to my studies.
- **11440**: By combining these techniques with the existing laws of biomechanics, I hope to one day discover a method of introducing life into non-sentient beings.
- **11441**: Currently I'm researching a way to utilize the vines from creatures of the malboro family in building a machine that will automatically sort and pack items.
- **11442**: So whenever you need an extra hand around the house, you can always call on my handy creation, handmade from a monster with more...hands than...
- **11443**: ...it...can...handle...? Ha ha?
- **11444**: Well, I told you it wasn't going to be very interesting!
- **11445**: I've begun research on new types of eyeglasses. If I succeed, my creations could rival the various brands used by the craft workers in guilds across Vana'diel...
- **11446**: However, I'm not having much luck. Optometry is a much more difficult field than you may think.
- **11447**: Excellent...
- **11448**: Hm? What am I so excited about? Why, my research, of course. I'm finally able to move into the final stage of my experiment.
- **11449**: Let me introduce myself. My name is Yurim. I've traveled from my country in the Near East to study various alternative methods of advanced synthesis.
- **11450**: Since I was a child, my dream has been to discover a new method of matter processing that doesn't rely on the elemental energy of crystals. Recently, I have focused my research on the fusion of magnetically opposite items, and just yesterday I made a most interesting discovery.
- **11451**: I realized that I was not delving into a new area of study...
- **11452**: ...but one that existed long ago before being lost in the annals of time.
- **11453**: "The secrets of the ancients," I guess you could call it.
- **11454**: Now I could sit and try to explain all this to you, but you don't look like the type that has time to listen to a woman ramble on about beta-quasiparticles and hyponitric mitosis. It would be much more time-effective to simply show you what I mean.
- **11455**: If you are interested, you will need to bring me the following items: First, I will require a tiny hexagonal chip of the variety often found buried about Quon.
- **11456**: Secondly, I will require $0 or $2. $1 would also produce magnificent results, but I fear you may not have much luck in locating this rare item.
- **11457**: It doesn't matter which one you bring, as long as it isn't too badly damaged.
- **11458**: Once you succeed in procuring the two items, hurry back here and I'll begin on the experiment.
- **11459**: A colored hexagonal chip and $0, $2, or $1. Bring me these two items and I will show you the discovery I have made.
- **11460**: Ah, $0 and $1...
- **11461**: Um... And...
- **11462**: Ummm......
- **11463**: I'd like to thank you for your effort in bringing me these items, but I'm afraid I won't be able to continue my experiment at this moment.
- **11464**: You see, earlier today I was supposed to receive a special shipment from a party of Moblin peddlers, but the conniving creatures never showed up. It was with the rare items in that shipment that I was to attempt to alter the molecular makeup of the $0 you brought me.
- **11465**: Only recently discovered, this type of strange matter is seemingly made up of thousands of independent biolumin organisms working together in some sort of symbiotic harmony. However, due to the immediate lack of untainted samples, little is known about it. There isn't even an official name for the matter.
- **11466**: While I've seen them rob, cheat, and kill, I've never known a Moblin to lie, so I think it can be safe to say there exists a place somewhere where we can obtain a few of these mysterious items.
- **11467**: Now, where that place could be...
- **11468**: You wouldn't happen to have any idea, would you?
- **11469**: I don't know exactly how many samples I'll need, but I can assume that one or two will definitely not be enough.
- **11470**: If you happen to come across anything that resembles what I have just described, please do not dispose of it.
- **11471**: Bring me a collection of samples and I will reward you by allowing you to witness firsthand one of the greatest discoveries in Vana'diel history!
- **11472**: I cannot show you the results of my research with only $0 and $1.
- **11473**: Once you have collected a large sample of biolumin matter, return here and I will begin my experiment... I promise!
- **11474**: All this research has sent my blood sugar levels plummeting. I could sure go for a hot apple pie...
- **11475**: What? $0, for me?
- **11476**: Mmmmmm... Pie......
- **11477**: Eureka! I think I've got it! Remember when I told you the matter I was searching for was from an organism that is made up of cells that work independently? What does that remind you of?
- **11478**: That's it! A jellyfish! Perhaps the things we are looking for anatomically resemble some type of jellyfish!
- **11479**: Hm? Hrmmm... Aha! I see a meadow! Yes... I wonder if this thing we seek has anything to do with flowers...
- **11480**: Aha! My tremendous years of experience can lead us to a conclusion most satisfying, as long as we do a little of this and a little of that...
- **11481**: Like $4 $0$3 and $6 $0$5 !
- **11482**: Or $4 $0$3 , $6 $0$5 , and $8 $0 !
- **11483**: Or maybe even $4 $0$3 , $6 $0$5 , $8 $0 , and $10 $0$0 !
- **11484**: Ah, only a master could come up with this $0!
- **11485**: This substance... Could this be...!?
- **11486**: Ah, yes. The experiment. Let me begin right away!
- **11487**: <Bubble...bubble...>
- **11488**: <Fizz......bubble...bubble...>
- **11489**: ..................
- **11490**: Wah! My eyes!
- **11491**: Ah! My jacket!
- **11492**: Ugh! The smell!
- **11493**: Wait... This reaction... Yes! It's exactly what my hypothesis predicted!
- **11494**: The bonding of the hexochip's nanoplasmatic beta-quasiparticles with the polyfluorescent biomatter has resulted in the artificial generation of an exodermic layer of neoluminic residue on the armor. In other words, the power of the original item has been enhanced exponentially!
- **11495**: Also, this data leads me to believe that different combinations of chips and items will result in objects differing from the one we produced today.
- **11496**: If you would like to take part in another experiment, bring a single colored chip and $0, $2, or $1.
- **11497**: And if those Moblin peddlers don't show, I might need you to bring some more of the biolumin matter as well.
- **11498**: Thank you again for all your assistance, and I hope I can work with you again in the future. You make a fine assistant!
- **11499**: Ah, I see that this time you've brought me $0 and $1.
- **11500**: Now all we need is a few samples of biolumin matter.
- **11501**: The Moblin peddlers? No, I'm sorry to say that they still haven't shown. I'm beginning to wonder if they ever will...

## Events

### Event 65535

#### Metadata

| Field        | Value   |
|--------------|---------|
| Entrypoint   | 0x0000  |
| Data Size    | 1 bytes |
| Instructions | 1       |

```
      00 01 02 03 04 05 06 07  08 09 0A 0B 0C 0D 0E 0F
      -- -- -- -- -- -- -- --  -- -- -- -- -- -- -- --
0000: 00                                                .               
```

#### Opcodes

```
  0: 0x0000 [0x00] END_REQSTACK()
```

### Event 527

#### Metadata

| Field        | Value    |
|--------------|----------|
| Entrypoint   | 0x0001   |
| Data Size    | 19 bytes |
| Instructions | 9        |

```
      00 01 02 03 04 05 06 07  08 09 0A 0B 0C 0D 0E 0F
      -- -- -- -- -- -- -- --  -- -- -- -- -- -- -- --
0000:    1E F0 FF FF 7F 1D 00  80 23 1D 01 80 23 1D 02   ........#...#..
0010: 80 23 21 00                                       .#!.            
```

#### Opcodes

```
  0: 0x0001 [0x1E] EventEntity looks at LocalPlayer and starts talking
  1: 0x0006 [0x1D] PRINT_EVENT_MESSAGE(message_id=11415*)
    → "Why, you don't look like you are a native to the archipelago. Are you trapped here as well?"
  2: 0x0009 [0x23] WAIT_FOR_DIALOG_INTERACTION
  3: 0x000A [0x1D] PRINT_EVENT_MESSAGE(message_id=11416*)
    → "I traveled to Jeuno from my home country in the Near East to continue my research in various types of matter and antimatter. However, one day while I was collecting specimens in the caves around Delkfutt's Tower, I fell into some strange vortex. When I woke up, I found myself here on this island with no way to return home."
  4: 0x000D [0x23] WAIT_FOR_DIALOG_INTERACTION
  5: 0x000E [0x1D] PRINT_EVENT_MESSAGE(message_id=11417*)
    → "How am I supposed to continue my studies in such an inconvenient location!?"
  6: 0x0011 [0x23] WAIT_FOR_DIALOG_INTERACTION
  7: 0x0012 [0x21] END_EVENT
  8: 0x0013 [0x00] END_REQSTACK()
```

### Event 519

#### Metadata

| Field        | Value     |
|--------------|-----------|
| Entrypoint   | 0x0014    |
| Data Size    | 409 bytes |
| Instructions | 122       |

```
      00 01 02 03 04 05 06 07  08 09 0A 0B 0C 0D 0E 0F
      -- -- -- -- -- -- -- --  -- -- -- -- -- -- -- --
0010:             13 00 00 03  80 02 00 00 04 80 80 2D      ...........-
0020: 00 1D 05 80 23 1E F0 FF  FF 7F 01 55 00 02 00 00  ....#......U....
0030: 06 80 80 41 00 1D 07 80  23 1E F0 FF FF 7F 01 55  ...A....#......U
0040: 00 02 00 00 03 80 80 55  00 1E F0 FF FF 7F 1D 08  .......U........
0050: 80 23 01 55 00 13 00 00  03 80 02 00 00 04 80 80  .#.U............
0060: 0E 01 1D 09 80 23 24 0A  80 06 80 04 80 25 02 00  .....#$......%..
0070: 10 04 80 00 FC 00 9C 01  00 1D 0B 80 23 1D 0C 80  ............#...
0080: 23 1D 0D 80 23 02 01 00  06 80 01 B4 00 1D 0E 80  #...#...........
0090: 23 1D 0F 80 23 1D 10 80  23 1D 11 80 23 1D 12 80  #...#...#...#...
00A0: 23 1D 13 80 23 1D 14 80  23 1D 15 80 23 1D 16 80  #...#...#...#...
00B0: 23 01 D3 00 1C 17 80 1D  0E 80 23 1C 18 80 1D 10  #.........#.....
00C0: 80 23 1C 18 80 1D 14 80  23 1C 18 80 1D 16 80 23  .#......#......#
00D0: 1C 18 80 66 19 80 F8 FF  FF 7F F8 FF FF 7F 74 6C  ...f..........tl
00E0: 6B 30 1D 1A 80 23 66 19  80 F8 FF FF 7F F8 FF FF  k0...#f.........
00F0: 7F 74 6C 6B 31 1D 1B 80  23 01 0B 01 02 00 10 06  .tlk1...#.......
0100: 80 00 0B 01 1D 1C 80 23  01 0B 01 01 AB 01 02 00  .......#........
0110: 00 06 80 80 66 01 1D 1D  80 23 24 0A 80 06 80 04  ....f....#$.....
0120: 80 25 02 00 10 04 80 00  54 01 1D 0B 80 23 1D 1E  .%......T....#..
0130: 80 23 1D 1F 80 23 1D 20  80 23 1D 21 80 23 1C 22  .#...#. .#.!.#."
0140: 80 6E F8 FF FF 7F 23 80  99 F8 FF FF 7F 1D 24 80  .n....#.......$.
0150: 23 01 63 01 02 00 10 06  80 00 63 01 1D 1C 80 23  #.c.......c....#
0160: 01 63 01 01 AB 01 02 00  00 03 80 80 AB 01 1D 25  .c.............%
0170: 80 23 24 0A 80 06 80 04  80 25 02 00 10 04 80 00  .#$......%......
0180: 99 01 1D 26 80 23 6E F8  FF FF 7F 27 80 99 F8 FF  ...&.#n....'....
0190: FF 7F 1D 28 80 23 01 A8  01 02 00 10 06 80 00 A8  ...(.#..........
01A0: 01 1D 1C 80 23 01 A8 01  01 AB 01 21 00           ....#......!.   
```

#### Opcodes

```
  0: 0x0014 [0x13] ExtData[1]->WorkLocal[0] = rand() % 2*
  1: 0x0019 [0x02] IF !(ExtData[1]->WorkLocal[0] == 0*) GOTO 0x002D
  2: 0x0021 [0x1D] PRINT_EVENT_MESSAGE(message_id=11418*)
    → "Hmmm... The reverse fluctuation of alpha-thermo waves can be considered a sign of protomutation..."
  3: 0x0024 [0x23] WAIT_FOR_DIALOG_INTERACTION
  4: 0x0025 [0x1E] EventEntity looks at LocalPlayer and starts talking
  5: 0x002A [0x01] GOTO 0x0055
  6: 0x002D [0x02] IF !(ExtData[1]->WorkLocal[0] == 1*) GOTO 0x0041
  7: 0x0035 [0x1D] PRINT_EVENT_MESSAGE(message_id=11419*)
    → "But the resulting flow of exoparticles that accompanies the hyporeaction drastically hinders the growth of new biomatter..."
  8: 0x0038 [0x23] WAIT_FOR_DIALOG_INTERACTION
  9: 0x0039 [0x1E] EventEntity looks at LocalPlayer and starts talking
 10: 0x003E [0x01] GOTO 0x0055
 11: 0x0041 [0x02] IF !(ExtData[1]->WorkLocal[0] == 2*) GOTO 0x0055
 12: 0x0049 [0x1E] EventEntity looks at LocalPlayer and starts talking
 13: 0x004E [0x1D] PRINT_EVENT_MESSAGE(message_id=11420*)
    → "H-how dare you sneak up on a lady like that! Leave now before I call the Tavnazian Patrol!"
 14: 0x0051 [0x23] WAIT_FOR_DIALOG_INTERACTION
 15: 0x0052 [0x01] GOTO 0x0055

SUBROUTINE_0055:
 16: 0x0055 [0x13] ExtData[1]->WorkLocal[0] = rand() % 2*
 17: 0x005A [0x02] IF !(ExtData[1]->WorkLocal[0] == 0*) GOTO 0x010E
 18: 0x0062 [0x1D] PRINT_EVENT_MESSAGE(message_id=11421*)
    → "Hm? You would like to know what I'm doing? It's fairly complicated, and you look awfully busy..."
 19: 0x0065 [0x23] WAIT_FOR_DIALOG_INTERACTION
 20: 0x0066 [0x24] CREATE_DIALOG(message_id=11424*, default_option=1*, option_flags=0*)
    → "Well...? [Hurry up and tell me!/If you put it that way.]"
 21: 0x006D [0x25] WAIT_DIALOG_SELECT()
 22: 0x006E [0x02] IF !(Work_Zone[0] == 0*) GOTO 0x00FC
 23: 0x0076 [0x9C] STORE_CLIENT_LANGUAGE_ID(result=0x01)
 24: 0x0079 [0x1D] PRINT_EVENT_MESSAGE(message_id=11425*)
    → "Alright... Recently I've begun research on new methods of matter processing. If I succeed, my theories could rival the primitive methods of conventional synthesis."
 25: 0x007C [0x23] WAIT_FOR_DIALOG_INTERACTION
 26: 0x007D [0x1D] PRINT_EVENT_MESSAGE(message_id=11427*)
    → "You see, in addition to crystals, there are certain unique types of matter that, when used as a catalyst, can transmogrify normal, everyday items into creations never seen before by man or woman! I like to call that substance "Xenomatter.""
 27: 0x0080 [0x23] WAIT_FOR_DIALOG_INTERACTION
 28: 0x0081 [0x1D] PRINT_EVENT_MESSAGE(message_id=11428*)
    → "I'm still in the beginning stages of my research, but I've already discovered a way to manipulate Xenomatter in a way that it can be used to multiply the strength and durability of certain materials. I hope that my further studies will result in the discovery of even more benefits."
 29: 0x0084 [0x23] WAIT_FOR_DIALOG_INTERACTION
 30: 0x0085 [0x02] IF !(ExtData[1]->WorkLocal[1] == 1*) GOTO 0x00B4
 31: 0x008D [0x1D] PRINT_EVENT_MESSAGE(message_id=11429*)
    → "Let me explain further... For example, say I was to attempt to alter the polymolecular makeup of this clam using the Xenomatter in question. As you know, this particular variety of clam only lives in the shallows of a certain tiny island far off the coast of southeastern Mindartia."
 32: 0x0090 [0x23] WAIT_FOR_DIALOG_INTERACTION
 33: 0x0091 [0x1D] PRINT_EVENT_MESSAGE(message_id=11430*)
    → "To find one of these specimens, not only would one have to be an expert on the clam's native habitat, but also be knowledgeable of their mating and feeding patterns, their reactions to the rise and fall of geothermal temperature levels, as well as their migratory tendencies, and how all these are affected by the varying seasonal lunar cycles. In other words, it is extremely difficult."
 34: 0x0094 [0x23] WAIT_FOR_DIALOG_INTERACTION
 35: 0x0095 [0x1D] PRINT_EVENT_MESSAGE(message_id=11431*)
    → "However, large quantities of this rare species of bivalve mollusk are crucial in order to procure enough reliable data to prove my hypotheses infallible. Unfortunately, due to the difficulty in acquiring the specimens, I often find myself in quite a predicament. A single experiment consists of placing three medium-sized clams in a hypophosphorous chamber laced with a small quantity of Xenomatter."
 36: 0x0098 [0x23] WAIT_FOR_DIALOG_INTERACTION
 37: 0x0099 [0x1D] PRINT_EVENT_MESSAGE(message_id=11432*)
    → "After sealing the box with a cermopolymer compound (to prevent unnecessary carbo-oxidization), it is only a matter of minutes before a micronucleic reaction occurs and a minute quantity of fluoroplasm is released."
 38: 0x009C [0x23] WAIT_FOR_DIALOG_INTERACTION
 39: 0x009D [0x1D] PRINT_EVENT_MESSAGE(message_id=11433*)
    → "I have come to the conclusion that the energy for this reaction comes from the calcitron particles concealed within the mucocide membranes located between the abdominal region of the clam and its shell. Unfortunately, during the plasmatic release of free radicals, the specimen experiences a rapid loss of aminofluids and eventually turns to ash, therefore preventing me from using the same clam in a future test."
 40: 0x00A0 [0x23] WAIT_FOR_DIALOG_INTERACTION
 41: 0x00A1 [0x1D] PRINT_EVENT_MESSAGE(message_id=11434*)
    → "Overall, while I realize that the impact the excessive gathering of new specimens may have on the island's aquaculture could be catastrophic, I am ultimately left with no other option. Who am I to turn my back on scientific progress?"
 42: 0x00A4 [0x23] WAIT_FOR_DIALOG_INTERACTION
 43: 0x00A5 [0x1D] PRINT_EVENT_MESSAGE(message_id=11435*)
    → "Now as I was saying, when applied to the clams, the Xenomatter causes a photomutegenic reaction that eventually reduces the specimen to a pile of neutrinogen-rich ashes (those ashes tend to be alkaline-based; however, I have yet to determine the significance of this phenomenon)."
 44: 0x00A8 [0x23] WAIT_FOR_DIALOG_INTERACTION
 45: 0x00A9 [0x1D] PRINT_EVENT_MESSAGE(message_id=11436*)
    → "If I can find the reason behind the aminofluid loss and its relation with the plasmatic release, I may be able to explain the finite relation of the clams' hydroplasma-oriented biomorphic structure to the quasizymotic nature of Xenomatter. And if I succeed in that, it won't be long before I am..."
 46: 0x00AC [0x23] WAIT_FOR_DIALOG_INTERACTION
 47: 0x00AD [0x1D] PRINT_EVENT_MESSAGE(message_id=11437*)
    → "Ow! I bit my thongue... Um... Won't the long thefore I...I...uthe that data to therfect a new nethod of natter throthething. ......... ...... ..."
 48: 0x00B0 [0x23] WAIT_FOR_DIALOG_INTERACTION
 49: 0x00B1 [0x01] GOTO 0x00D3
 50: 0x00B4 [0x1C] WAIT(60* ticks)
 51: 0x00B7 [0x1D] PRINT_EVENT_MESSAGE(message_id=11429*)
    → "Let me explain further... For example, say I was to attempt to alter the polymolecular makeup of this clam using the Xenomatter in question. As you know, this particular variety of clam only lives in the shallows of a certain tiny island far off the coast of southeastern Mindartia."
 52: 0x00BA [0x23] WAIT_FOR_DIALOG_INTERACTION
 53: 0x00BB [0x1C] WAIT(20* ticks)
 54: 0x00BE [0x1D] PRINT_EVENT_MESSAGE(message_id=11431*)
    → "However, large quantities of this rare species of bivalve mollusk are crucial in order to procure enough reliable data to prove my hypotheses infallible. Unfortunately, due to the difficulty in acquiring the specimens, I often find myself in quite a predicament. A single experiment consists of placing three medium-sized clams in a hypophosphorous chamber laced with a small quantity of Xenomatter."
 55: 0x00C1 [0x23] WAIT_FOR_DIALOG_INTERACTION
 56: 0x00C2 [0x1C] WAIT(20* ticks)
 57: 0x00C5 [0x1D] PRINT_EVENT_MESSAGE(message_id=11435*)
    → "Now as I was saying, when applied to the clams, the Xenomatter causes a photomutegenic reaction that eventually reduces the specimen to a pile of neutrinogen-rich ashes (those ashes tend to be alkaline-based; however, I have yet to determine the significance of this phenomenon)."
 58: 0x00C8 [0x23] WAIT_FOR_DIALOG_INTERACTION
 59: 0x00C9 [0x1C] WAIT(20* ticks)
 60: 0x00CC [0x1D] PRINT_EVENT_MESSAGE(message_id=11437*)
    → "Ow! I bit my thongue... Um... Won't the long thefore I...I...uthe that data to therfect a new nethod of natter throthething. ......... ...... ..."
 61: 0x00CF [0x23] WAIT_FOR_DIALOG_INTERACTION
 62: 0x00D0 [0x1C] WAIT(20* ticks)

SUBROUTINE_00D3:
 63: 0x00D3 [0x66] LOAD_EXT_SCHEDULER_MAIN: Load scheduler "tlk0" with entities [EventEntity, EventEntity], work=19*
 64: 0x00E2 [0x1D] PRINT_EVENT_MESSAGE(message_id=11438*)
    → "Did you get all that?"
 65: 0x00E5 [0x23] WAIT_FOR_DIALOG_INTERACTION
 66: 0x00E6 [0x66] LOAD_EXT_SCHEDULER_MAIN: Load scheduler "tlk1" with entities [EventEntity, EventEntity], work=19*
 67: 0x00F5 [0x1D] PRINT_EVENT_MESSAGE(message_id=11439*)
    → "Well, no matter. Now leave me alone. I have to return to my studies."
 68: 0x00F8 [0x23] WAIT_FOR_DIALOG_INTERACTION
 69: 0x00F9 [0x01] GOTO 0x010B
 70: 0x00FC [0x02] IF !(Work_Zone[0] == 1*) GOTO 0x010B
 71: 0x0104 [0x1D] PRINT_EVENT_MESSAGE(message_id=11426*)
    → "Very good. Now be on your way so I can return to my studies."
 72: 0x0107 [0x23] WAIT_FOR_DIALOG_INTERACTION
 73: 0x0108 [0x01] GOTO 0x010B

SUBROUTINE_010B:
 74: 0x010B [0x01] GOTO 0x01AB
 75: 0x010E [0x02] IF !(ExtData[1]->WorkLocal[0] == 1*) GOTO 0x0166
 76: 0x0116 [0x1D] PRINT_EVENT_MESSAGE(message_id=11422*)
    → "Hm? You would like to know what I'm doing? I don't know... You probably won't find it very interesting..."
 77: 0x0119 [0x23] WAIT_FOR_DIALOG_INTERACTION
 78: 0x011A [0x24] CREATE_DIALOG(message_id=11424*, default_option=1*, option_flags=0*)
    → "Well...? [Hurry up and tell me!/If you put it that way.]"
 79: 0x0121 [0x25] WAIT_DIALOG_SELECT()
 80: 0x0122 [0x02] IF !(Work_Zone[0] == 0*) GOTO 0x0154
 81: 0x012A [0x1D] PRINT_EVENT_MESSAGE(message_id=11425*)
    → "Alright... Recently I've begun research on new methods of matter processing. If I succeed, my theories could rival the primitive methods of conventional synthesis."
 82: 0x012D [0x23] WAIT_FOR_DIALOG_INTERACTION
 83: 0x012E [0x1D] PRINT_EVENT_MESSAGE(message_id=11440*)
    → "By combining these techniques with the existing laws of biomechanics, I hope to one day discover a method of introducing life into non-sentient beings."
 84: 0x0131 [0x23] WAIT_FOR_DIALOG_INTERACTION
 85: 0x0132 [0x1D] PRINT_EVENT_MESSAGE(message_id=11441*)
    → "Currently I'm researching a way to utilize the vines from creatures of the malboro family in building a machine that will automatically sort and pack items."
 86: 0x0135 [0x23] WAIT_FOR_DIALOG_INTERACTION
 87: 0x0136 [0x1D] PRINT_EVENT_MESSAGE(message_id=11442*)
    → "So whenever you need an extra hand around the house, you can always call on my handy creation, handmade from a monster with more...hands than..."
 88: 0x0139 [0x23] WAIT_FOR_DIALOG_INTERACTION
 89: 0x013A [0x1D] PRINT_EVENT_MESSAGE(message_id=11443*)
    → "...it...can...handle...? Ha ha?"
 90: 0x013D [0x23] WAIT_FOR_DIALOG_INTERACTION
 91: 0x013E [0x1C] WAIT(120* ticks)
 92: 0x0141 [0x6E] EventEntity uses emote 18*
 93: 0x0148 [0x99] Wait for EventEntity animation to complete
 94: 0x014D [0x1D] PRINT_EVENT_MESSAGE(message_id=11444*)
    → "Well, I told you it wasn't going to be very interesting!"
 95: 0x0150 [0x23] WAIT_FOR_DIALOG_INTERACTION
 96: 0x0151 [0x01] GOTO 0x0163
 97: 0x0154 [0x02] IF !(Work_Zone[0] == 1*) GOTO 0x0163
 98: 0x015C [0x1D] PRINT_EVENT_MESSAGE(message_id=11426*)
    → "Very good. Now be on your way so I can return to my studies."
 99: 0x015F [0x23] WAIT_FOR_DIALOG_INTERACTION
100: 0x0160 [0x01] GOTO 0x0163

SUBROUTINE_0163:
101: 0x0163 [0x01] GOTO 0x01AB
102: 0x0166 [0x02] IF !(ExtData[1]->WorkLocal[0] == 2*) GOTO 0x01AB
103: 0x016E [0x1D] PRINT_EVENT_MESSAGE(message_id=11423*)
    → "Hm? You would like to know what I'm doing? I don't think it concerns you, but..."
104: 0x0171 [0x23] WAIT_FOR_DIALOG_INTERACTION
105: 0x0172 [0x24] CREATE_DIALOG(message_id=11424*, default_option=1*, option_flags=0*)
    → "Well...? [Hurry up and tell me!/If you put it that way.]"
106: 0x0179 [0x25] WAIT_DIALOG_SELECT()
107: 0x017A [0x02] IF !(Work_Zone[0] == 0*) GOTO 0x0199
108: 0x0182 [0x1D] PRINT_EVENT_MESSAGE(message_id=11445*)
    → "I've begun research on new types of eyeglasses. If I succeed, my creations could rival the various brands used by the craft workers in guilds across Vana'diel..."
109: 0x0185 [0x23] WAIT_FOR_DIALOG_INTERACTION
110: 0x0186 [0x6E] EventEntity uses emote 6*
111: 0x018D [0x99] Wait for EventEntity animation to complete
112: 0x0192 [0x1D] PRINT_EVENT_MESSAGE(message_id=11446*)
    → "However, I'm not having much luck. Optometry is a much more difficult field than you may think."
113: 0x0195 [0x23] WAIT_FOR_DIALOG_INTERACTION
114: 0x0196 [0x01] GOTO 0x01A8
115: 0x0199 [0x02] IF !(Work_Zone[0] == 1*) GOTO 0x01A8
116: 0x01A1 [0x1D] PRINT_EVENT_MESSAGE(message_id=11426*)
    → "Very good. Now be on your way so I can return to my studies."
117: 0x01A4 [0x23] WAIT_FOR_DIALOG_INTERACTION
118: 0x01A5 [0x01] GOTO 0x01A8

SUBROUTINE_01A8:
119: 0x01A8 [0x01] GOTO 0x01AB

SUBROUTINE_01AB:
120: 0x01AB [0x21] END_EVENT
121: 0x01AC [0x00] END_REQSTACK()
```

### Event 524

#### Metadata

| Field        | Value     |
|--------------|-----------|
| Entrypoint   | 0x01AD    |
| Data Size    | 175 bytes |
| Instructions | 41        |

```
      00 01 02 03 04 05 06 07  08 09 0A 0B 0C 0D 0E 0F
      -- -- -- -- -- -- -- --  -- -- -- -- -- -- -- --
01A0:                                         45 29 80               E).
01B0: F0 FF FF 7F F0 FF FF 7F  74 65 73 74 04 80 6E F8  ........test..n.
01C0: FF FF 7F 27 80 99 F8 FF  FF 7F 99 F8 FF FF 7F 1D  ...'............
01D0: 2A 80 23 1E F0 FF FF 7F  1D 2B 80 23 6F 70 6E F8  *.#......+.#opn.
01E0: FF FF 7F 06 80 99 F8 FF  FF 7F 1D 2C 80 23 1D 2D  ...........,.#.-
01F0: 80 23 1D 2E 80 23 6E F8  FF FF 7F 27 80 99 F8 FF  .#...#n....'....
0200: FF 7F 1D 2F 80 23 1D 30  80 23 66 19 80 F8 FF FF  .../.#.0.#f.....
0210: 7F F8 FF FF 7F 74 6C 6B  30 1D 31 80 23 1D 32 80  .....tlk0.1.#.2.
0220: 23 66 19 80 F8 FF FF 7F  F8 FF FF 7F 74 6C 6B 31  #f..........tlk1
0230: 1D 33 80 23 66 19 80 F8  FF FF 7F F8 FF FF 7F 74  .3.#f..........t
0240: 6C 6B 30 1D 34 80 23 1D  35 80 23 66 19 80 F8 FF  lk0.4.#.5.#f....
0250: FF 7F F8 FF FF 7F 74 6C  6B 31 21 00              ......tlk1!.    
```

#### Opcodes

```
  0: 0x01AD [0x45] LOAD_SCHEDULED_TASK: Load scheduler "test" with entities [LocalPlayer, LocalPlayer], work=[61*, 0*]
  1: 0x01BE [0x6E] EventEntity uses emote 6*
  2: 0x01C5 [0x99] Wait for EventEntity animation to complete
  3: 0x01CA [0x99] Wait for EventEntity animation to complete
  4: 0x01CF [0x1D] PRINT_EVENT_MESSAGE(message_id=11447*)
    → "Excellent..."
  5: 0x01D2 [0x23] WAIT_FOR_DIALOG_INTERACTION
  6: 0x01D3 [0x1E] EventEntity looks at LocalPlayer and starts talking
  7: 0x01D8 [0x1D] PRINT_EVENT_MESSAGE(message_id=11448*)
    → "Hm? What am I so excited about? Why, my research, of course. I'm finally able to move into the final stage of my experiment."
  8: 0x01DB [0x23] WAIT_FOR_DIALOG_INTERACTION
  9: 0x01DC [0x6F] WAIT_FRAME_DELAY: Yield until WaitTime reaches zero
 10: 0x01DD [0x70] WAIT_ENTITY_RENDER_FLAG: Wait while EventEntity->Render.Flags3 bit 2 is set (cancel turn if not)
 11: 0x01DE [0x6E] EventEntity uses emote 1*
 12: 0x01E5 [0x99] Wait for EventEntity animation to complete
 13: 0x01EA [0x1D] PRINT_EVENT_MESSAGE(message_id=11449*)
    → "Let me introduce myself. My name is Yurim. I've traveled from my country in the Near East to study various alternative methods of advanced synthesis."
 14: 0x01ED [0x23] WAIT_FOR_DIALOG_INTERACTION
 15: 0x01EE [0x1D] PRINT_EVENT_MESSAGE(message_id=11450*)
    → "Since I was a child, my dream has been to discover a new method of matter processing that doesn't rely on the elemental energy of crystals. Recently, I have focused my research on the fusion of magnetically opposite items, and just yesterday I made a most interesting discovery."
 16: 0x01F1 [0x23] WAIT_FOR_DIALOG_INTERACTION
 17: 0x01F2 [0x1D] PRINT_EVENT_MESSAGE(message_id=11451*)
    → "I realized that I was not delving into a new area of study..."
 18: 0x01F5 [0x23] WAIT_FOR_DIALOG_INTERACTION
 19: 0x01F6 [0x6E] EventEntity uses emote 6*
 20: 0x01FD [0x99] Wait for EventEntity animation to complete
 21: 0x0202 [0x1D] PRINT_EVENT_MESSAGE(message_id=11452*)
    → "...but one that existed long ago before being lost in the annals of time."
 22: 0x0205 [0x23] WAIT_FOR_DIALOG_INTERACTION
 23: 0x0206 [0x1D] PRINT_EVENT_MESSAGE(message_id=11453*)
    → ""The secrets of the ancients," I guess you could call it."
 24: 0x0209 [0x23] WAIT_FOR_DIALOG_INTERACTION
 25: 0x020A [0x66] LOAD_EXT_SCHEDULER_MAIN: Load scheduler "tlk0" with entities [EventEntity, EventEntity], work=19*
 26: 0x0219 [0x1D] PRINT_EVENT_MESSAGE(message_id=11454*)
    → "Now I could sit and try to explain all this to you, but you don't look like the type that has time to listen to a woman ramble on about beta-quasiparticles and hyponitric mitosis. It would be much more time-effective to simply show you what I mean."
 27: 0x021C [0x23] WAIT_FOR_DIALOG_INTERACTION
 28: 0x021D [0x1D] PRINT_EVENT_MESSAGE(message_id=11455*)
    → "If you are interested, you will need to bring me the following items: First, I will require a tiny hexagonal chip of the variety often found buried about Quon."
 29: 0x0220 [0x23] WAIT_FOR_DIALOG_INTERACTION
 30: 0x0221 [0x66] LOAD_EXT_SCHEDULER_MAIN: Load scheduler "tlk1" with entities [EventEntity, EventEntity], work=19*
 31: 0x0230 [0x1D] PRINT_EVENT_MESSAGE(message_id=11456*)
    → "Secondly, I will require $0 or $2. $1 would also produce magnificent results, but I fear you may not have much luck in locating this rare item."
 32: 0x0233 [0x23] WAIT_FOR_DIALOG_INTERACTION
 33: 0x0234 [0x66] LOAD_EXT_SCHEDULER_MAIN: Load scheduler "tlk0" with entities [EventEntity, EventEntity], work=19*
 34: 0x0243 [0x1D] PRINT_EVENT_MESSAGE(message_id=11457*)
    → "It doesn't matter which one you bring, as long as it isn't too badly damaged."
 35: 0x0246 [0x23] WAIT_FOR_DIALOG_INTERACTION
 36: 0x0247 [0x1D] PRINT_EVENT_MESSAGE(message_id=11458*)
    → "Once you succeed in procuring the two items, hurry back here and I'll begin on the experiment."
 37: 0x024A [0x23] WAIT_FOR_DIALOG_INTERACTION
 38: 0x024B [0x66] LOAD_EXT_SCHEDULER_MAIN: Load scheduler "tlk1" with entities [EventEntity, EventEntity], work=19*
 39: 0x025A [0x21] END_EVENT
 40: 0x025B [0x00] END_REQSTACK()
```

### Event 525

#### Metadata

| Field        | Value    |
|--------------|----------|
| Entrypoint   | 0x025C   |
| Data Size    | 11 bytes |
| Instructions | 5        |

```
      00 01 02 03 04 05 06 07  08 09 0A 0B 0C 0D 0E 0F
      -- -- -- -- -- -- -- --  -- -- -- -- -- -- -- --
0250:                                      1E F0 FF FF              ....
0260: 7F 1D 36 80 23 21 00                              ..6.#!.         
```

#### Opcodes

```
  0: 0x025C [0x1E] EventEntity looks at LocalPlayer and starts talking
  1: 0x0261 [0x1D] PRINT_EVENT_MESSAGE(message_id=11459*)
    → "A colored hexagonal chip and $0, $2, or $1. Bring me these two items and I will show you the discovery I have made."
  2: 0x0264 [0x23] WAIT_FOR_DIALOG_INTERACTION
  3: 0x0265 [0x21] END_EVENT
  4: 0x0266 [0x00] END_REQSTACK()
```

### Event 526

#### Metadata

| Field        | Value     |
|--------------|-----------|
| Entrypoint   | 0x0267    |
| Data Size    | 670 bytes |
| Instructions | 138       |

```
      00 01 02 03 04 05 06 07  08 09 0A 0B 0C 0D 0E 0F
      -- -- -- -- -- -- -- --  -- -- -- -- -- -- -- --
0260:                      42  1E F0 FF FF 7F 02 02 10         B........
0270: 06 80 80 82 02 03 02 10  37 80 03 03 10 38 80 01  ........7....8..
0280: 65 04 02 02 10 03 80 80  97 02 03 02 10 37 80 03  e............7..
0290: 03 10 39 80 01 65 04 02  02 10 3A 80 80 AC 02 03  ..9..e....:.....
02A0: 02 10 37 80 03 03 10 3B  80 01 65 04 02 02 10 3C  ..7....;..e....<
02B0: 80 80 C1 02 03 02 10 37  80 03 03 10 3D 80 01 65  .......7....=..e
02C0: 04 02 02 10 3E 80 80 D6  02 03 02 10 37 80 03 03  ....>.......7...
02D0: 10 3F 80 01 65 04 02 02  10 27 80 80 EB 02 03 02  .?..e....'......
02E0: 10 37 80 03 03 10 40 80  01 65 04 02 02 10 41 80  .7....@..e....A.
02F0: 80 00 03 03 02 10 37 80  03 03 10 42 80 01 65 04  ......7....B..e.
0300: 02 02 10 43 80 80 15 03  03 02 10 37 80 03 03 10  ...C.......7....
0310: 44 80 01 65 04 02 02 10  45 80 80 2A 03 03 02 10  D..e....E..*....
0320: 46 80 03 03 10 38 80 01  65 04 02 02 10 47 80 80  F....8..e....G..
0330: 3F 03 03 02 10 46 80 03  03 10 39 80 01 65 04 02  ?....F....9..e..
0340: 02 10 48 80 80 54 03 03  02 10 46 80 03 03 10 3B  ..H..T....F....;
0350: 80 01 65 04 02 02 10 49  80 80 69 03 03 02 10 46  ..e....I..i....F
0360: 80 03 03 10 3D 80 01 65  04 02 02 10 4A 80 80 7E  ....=..e....J..~
0370: 03 03 02 10 46 80 03 03  10 3F 80 01 65 04 02 02  ....F....?..e...
0380: 10 4B 80 80 93 03 03 02  10 46 80 03 03 10 40 80  .K.......F....@.
0390: 01 65 04 02 02 10 4C 80  80 A8 03 03 02 10 46 80  .e....L.......F.
03A0: 03 03 10 42 80 01 65 04  02 02 10 4D 80 80 BD 03  ...B..e....M....
03B0: 03 02 10 46 80 03 03 10  44 80 01 65 04 02 02 10  ...F....D..e....
03C0: 4E 80 80 D2 03 03 02 10  4F 80 03 03 10 38 80 01  N.......O....8..
03D0: 65 04 02 02 10 23 80 80  E7 03 03 02 10 4F 80 03  e....#.......O..
03E0: 03 10 39 80 01 65 04 02  02 10 19 80 80 FC 03 03  ..9..e..........
03F0: 02 10 4F 80 03 03 10 3B  80 01 65 04 02 02 10 18  ..O....;..e.....
0400: 80 80 11 04 03 02 10 4F  80 03 03 10 3D 80 01 65  .......O....=..e
0410: 04 02 02 10 50 80 80 26  04 03 02 10 4F 80 03 03  ....P..&....O...
0420: 10 3F 80 01 65 04 02 02  10 51 80 80 3B 04 03 02  .?..e....Q..;...
0430: 10 4F 80 03 03 10 40 80  01 65 04 02 02 10 52 80  .O....@..e....R.
0440: 80 50 04 03 02 10 4F 80  03 03 10 42 80 01 65 04  .P....O....B..e.
0450: 02 02 10 53 80 80 65 04  03 02 10 4F 80 03 03 10  ...S..e....O....
0460: 44 80 01 65 04 1D 54 80  23 6F 70 6E F8 FF FF 7F  D..e..T.#opn....
0470: 41 80 99 F8 FF FF 7F 1D  55 80 23 6E F8 FF FF 7F  A.......U.#n....
0480: 27 80 99 F8 FF FF 7F 1D  56 80 23 1D 57 80 23 66  '.......V.#.W.#f
0490: 19 80 F8 FF FF 7F F8 FF  FF 7F 74 6C 6B 30 1D 58  ..........tlk0.X
04A0: 80 23 1D 59 80 23 1D 5A  80 23 66 19 80 F8 FF FF  .#.Y.#.Z.#f.....
04B0: 7F F8 FF FF 7F 74 6C 6B  31 1D 5B 80 23 66 19 80  .....tlk1.[.#f..
04C0: F8 FF FF 7F F8 FF FF 7F  74 6C 6B 30 1D 5C 80 23  ........tlk0.\.#
04D0: 66 19 80 F8 FF FF 7F F8  FF FF 7F 74 6C 6B 31 1D  f..........tlk1.
04E0: 5D 80 23 6E F8 FF FF 7F  5E 80 99 F8 FF FF 7F 1D  ].#n....^.......
04F0: 5F 80 23 6E F8 FF FF 7F  41 80 99 F8 FF FF 7F 1D  _.#n....A.......
0500: 60 80 23 21 00                                    `.#!.           
```

#### Opcodes

```
  0: 0x0267 [0x42] SET_CLI_EVENT_CANCEL_DATA()
  1: 0x0268 [0x1E] EventEntity looks at LocalPlayer and starts talking
  2: 0x026D [0x02] IF !(Work_Zone[2] == 1*) GOTO 0x0282
  3: 0x0275 [0x03] Work_Zone[2] = 13205*
  4: 0x027A [0x03] Work_Zone[3] = 474*
  5: 0x027F [0x01] GOTO 0x0465
  6: 0x0282 [0x02] IF !(Work_Zone[2] == 2*) GOTO 0x0297
  7: 0x028A [0x03] Work_Zone[2] = 13205*
  8: 0x028F [0x03] Work_Zone[3] = 478*
  9: 0x0294 [0x01] GOTO 0x0465
 10: 0x0297 [0x02] IF !(Work_Zone[2] == 3*) GOTO 0x02AC
 11: 0x029F [0x03] Work_Zone[2] = 13205*
 12: 0x02A4 [0x03] Work_Zone[3] = 477*
 13: 0x02A9 [0x01] GOTO 0x0465
 14: 0x02AC [0x02] IF !(Work_Zone[2] == 4*) GOTO 0x02C1
 15: 0x02B4 [0x03] Work_Zone[2] = 13205*
 16: 0x02B9 [0x03] Work_Zone[3] = 476*
 17: 0x02BE [0x01] GOTO 0x0465
 18: 0x02C1 [0x02] IF !(Work_Zone[2] == 5*) GOTO 0x02D6
 19: 0x02C9 [0x03] Work_Zone[2] = 13205*
 20: 0x02CE [0x03] Work_Zone[3] = 479*
 21: 0x02D3 [0x01] GOTO 0x0465
 22: 0x02D6 [0x02] IF !(Work_Zone[2] == 6*) GOTO 0x02EB
 23: 0x02DE [0x03] Work_Zone[2] = 13205*
 24: 0x02E3 [0x03] Work_Zone[3] = 475*
 25: 0x02E8 [0x01] GOTO 0x0465
 26: 0x02EB [0x02] IF !(Work_Zone[2] == 7*) GOTO 0x0300
 27: 0x02F3 [0x03] Work_Zone[2] = 13205*
 28: 0x02F8 [0x03] Work_Zone[3] = 480*
 29: 0x02FD [0x01] GOTO 0x0465
 30: 0x0300 [0x02] IF !(Work_Zone[2] == 8*) GOTO 0x0315
 31: 0x0308 [0x03] Work_Zone[2] = 13205*
 32: 0x030D [0x03] Work_Zone[3] = 481*
 33: 0x0312 [0x01] GOTO 0x0465
 34: 0x0315 [0x02] IF !(Work_Zone[2] == 9*) GOTO 0x032A
 35: 0x031D [0x03] Work_Zone[2] = 13080*
 36: 0x0322 [0x03] Work_Zone[3] = 474*
 37: 0x0327 [0x01] GOTO 0x0465
 38: 0x032A [0x02] IF !(Work_Zone[2] == 10*) GOTO 0x033F
 39: 0x0332 [0x03] Work_Zone[2] = 13080*
 40: 0x0337 [0x03] Work_Zone[3] = 478*
 41: 0x033C [0x01] GOTO 0x0465
 42: 0x033F [0x02] IF !(Work_Zone[2] == 11*) GOTO 0x0354
 43: 0x0347 [0x03] Work_Zone[2] = 13080*
 44: 0x034C [0x03] Work_Zone[3] = 477*
 45: 0x0351 [0x01] GOTO 0x0465
 46: 0x0354 [0x02] IF !(Work_Zone[2] == 12*) GOTO 0x0369
 47: 0x035C [0x03] Work_Zone[2] = 13080*
 48: 0x0361 [0x03] Work_Zone[3] = 476*
 49: 0x0366 [0x01] GOTO 0x0465
 50: 0x0369 [0x02] IF !(Work_Zone[2] == 13*) GOTO 0x037E
 51: 0x0371 [0x03] Work_Zone[2] = 13080*
 52: 0x0376 [0x03] Work_Zone[3] = 479*
 53: 0x037B [0x01] GOTO 0x0465
 54: 0x037E [0x02] IF !(Work_Zone[2] == 14*) GOTO 0x0393
 55: 0x0386 [0x03] Work_Zone[2] = 13080*
 56: 0x038B [0x03] Work_Zone[3] = 475*
 57: 0x0390 [0x01] GOTO 0x0465
 58: 0x0393 [0x02] IF !(Work_Zone[2] == 15*) GOTO 0x03A8
 59: 0x039B [0x03] Work_Zone[2] = 13080*
 60: 0x03A0 [0x03] Work_Zone[3] = 480*
 61: 0x03A5 [0x01] GOTO 0x0465
 62: 0x03A8 [0x02] IF !(Work_Zone[2] == 16*) GOTO 0x03BD
 63: 0x03B0 [0x03] Work_Zone[2] = 13080*
 64: 0x03B5 [0x03] Work_Zone[3] = 481*
 65: 0x03BA [0x01] GOTO 0x0465
 66: 0x03BD [0x02] IF !(Work_Zone[2] == 17*) GOTO 0x03D2
 67: 0x03C5 [0x03] Work_Zone[2] = 13327*
 68: 0x03CA [0x03] Work_Zone[3] = 474*
 69: 0x03CF [0x01] GOTO 0x0465
 70: 0x03D2 [0x02] IF !(Work_Zone[2] == 18*) GOTO 0x03E7
 71: 0x03DA [0x03] Work_Zone[2] = 13327*
 72: 0x03DF [0x03] Work_Zone[3] = 478*
 73: 0x03E4 [0x01] GOTO 0x0465
 74: 0x03E7 [0x02] IF !(Work_Zone[2] == 19*) GOTO 0x03FC
 75: 0x03EF [0x03] Work_Zone[2] = 13327*
 76: 0x03F4 [0x03] Work_Zone[3] = 477*
 77: 0x03F9 [0x01] GOTO 0x0465
 78: 0x03FC [0x02] IF !(Work_Zone[2] == 20*) GOTO 0x0411
 79: 0x0404 [0x03] Work_Zone[2] = 13327*
 80: 0x0409 [0x03] Work_Zone[3] = 476*
 81: 0x040E [0x01] GOTO 0x0465
 82: 0x0411 [0x02] IF !(Work_Zone[2] == 21*) GOTO 0x0426
 83: 0x0419 [0x03] Work_Zone[2] = 13327*
 84: 0x041E [0x03] Work_Zone[3] = 479*
 85: 0x0423 [0x01] GOTO 0x0465
 86: 0x0426 [0x02] IF !(Work_Zone[2] == 22*) GOTO 0x043B
 87: 0x042E [0x03] Work_Zone[2] = 13327*
 88: 0x0433 [0x03] Work_Zone[3] = 475*
 89: 0x0438 [0x01] GOTO 0x0465
 90: 0x043B [0x02] IF !(Work_Zone[2] == 23*) GOTO 0x0450
 91: 0x0443 [0x03] Work_Zone[2] = 13327*
 92: 0x0448 [0x03] Work_Zone[3] = 480*
 93: 0x044D [0x01] GOTO 0x0465
 94: 0x0450 [0x02] IF !(Work_Zone[2] == 24*) GOTO 0x0465
 95: 0x0458 [0x03] Work_Zone[2] = 13327*
 96: 0x045D [0x03] Work_Zone[3] = 481*
 97: 0x0462 [0x01] GOTO 0x0465

SUBROUTINE_0465:
 98: 0x0465 [0x1D] PRINT_EVENT_MESSAGE(message_id=11460*)
    → "Ah, $0 and $1..."
 99: 0x0468 [0x23] WAIT_FOR_DIALOG_INTERACTION
100: 0x0469 [0x6F] WAIT_FRAME_DELAY: Yield until WaitTime reaches zero
101: 0x046A [0x70] WAIT_ENTITY_RENDER_FLAG: Wait while EventEntity->Render.Flags3 bit 2 is set (cancel turn if not)
102: 0x046B [0x6E] EventEntity uses emote 7*
103: 0x0472 [0x99] Wait for EventEntity animation to complete
104: 0x0477 [0x1D] PRINT_EVENT_MESSAGE(message_id=11461*)
    → "Um... And..."
105: 0x047A [0x23] WAIT_FOR_DIALOG_INTERACTION
106: 0x047B [0x6E] EventEntity uses emote 6*
107: 0x0482 [0x99] Wait for EventEntity animation to complete
108: 0x0487 [0x1D] PRINT_EVENT_MESSAGE(message_id=11462*)
    → "Ummm......"
109: 0x048A [0x23] WAIT_FOR_DIALOG_INTERACTION
110: 0x048B [0x1D] PRINT_EVENT_MESSAGE(message_id=11463*)
    → "I'd like to thank you for your effort in bringing me these items, but I'm afraid I won't be able to continue my experiment at this moment."
111: 0x048E [0x23] WAIT_FOR_DIALOG_INTERACTION
112: 0x048F [0x66] LOAD_EXT_SCHEDULER_MAIN: Load scheduler "tlk0" with entities [EventEntity, EventEntity], work=19*
113: 0x049E [0x1D] PRINT_EVENT_MESSAGE(message_id=11464*)
    → "You see, earlier today I was supposed to receive a special shipment from a party of Moblin peddlers, but the conniving creatures never showed up. It was with the rare items in that shipment that I was to attempt to alter the molecular makeup of the $0 you brought me."
114: 0x04A1 [0x23] WAIT_FOR_DIALOG_INTERACTION
115: 0x04A2 [0x1D] PRINT_EVENT_MESSAGE(message_id=11465*)
    → "Only recently discovered, this type of strange matter is seemingly made up of thousands of independent biolumin organisms working together in some sort of symbiotic harmony. However, due to the immediate lack of untainted samples, little is known about it. There isn't even an official name for the matter."
116: 0x04A5 [0x23] WAIT_FOR_DIALOG_INTERACTION
117: 0x04A6 [0x1D] PRINT_EVENT_MESSAGE(message_id=11466*)
    → "While I've seen them rob, cheat, and kill, I've never known a Moblin to lie, so I think it can be safe to say there exists a place somewhere where we can obtain a few of these mysterious items."
118: 0x04A9 [0x23] WAIT_FOR_DIALOG_INTERACTION
119: 0x04AA [0x66] LOAD_EXT_SCHEDULER_MAIN: Load scheduler "tlk1" with entities [EventEntity, EventEntity], work=19*
120: 0x04B9 [0x1D] PRINT_EVENT_MESSAGE(message_id=11467*)
    → "Now, where that place could be..."
121: 0x04BC [0x23] WAIT_FOR_DIALOG_INTERACTION
122: 0x04BD [0x66] LOAD_EXT_SCHEDULER_MAIN: Load scheduler "tlk0" with entities [EventEntity, EventEntity], work=19*
123: 0x04CC [0x1D] PRINT_EVENT_MESSAGE(message_id=11468*)
    → "You wouldn't happen to have any idea, would you?"
124: 0x04CF [0x23] WAIT_FOR_DIALOG_INTERACTION
125: 0x04D0 [0x66] LOAD_EXT_SCHEDULER_MAIN: Load scheduler "tlk1" with entities [EventEntity, EventEntity], work=19*
126: 0x04DF [0x1D] PRINT_EVENT_MESSAGE(message_id=11469*)
    → "I don't know exactly how many samples I'll need, but I can assume that one or two will definitely not be enough."
127: 0x04E2 [0x23] WAIT_FOR_DIALOG_INTERACTION
128: 0x04E3 [0x6E] EventEntity uses emote 36*
129: 0x04EA [0x99] Wait for EventEntity animation to complete
130: 0x04EF [0x1D] PRINT_EVENT_MESSAGE(message_id=11470*)
    → "If you happen to come across anything that resembles what I have just described, please do not dispose of it."
131: 0x04F2 [0x23] WAIT_FOR_DIALOG_INTERACTION
132: 0x04F3 [0x6E] EventEntity uses emote 7*
133: 0x04FA [0x99] Wait for EventEntity animation to complete
134: 0x04FF [0x1D] PRINT_EVENT_MESSAGE(message_id=11471*)
    → "Bring me a collection of samples and I will reward you by allowing you to witness firsthand one of the greatest discoveries in Vana'diel history!"
135: 0x0502 [0x23] WAIT_FOR_DIALOG_INTERACTION
136: 0x0503 [0x21] END_EVENT
137: 0x0504 [0x00] END_REQSTACK()
```

### Event 528

#### Metadata

| Field        | Value     |
|--------------|-----------|
| Entrypoint   | 0x0505    |
| Data Size    | 539 bytes |
| Instructions | 108       |

```
      00 01 02 03 04 05 06 07  08 09 0A 0B 0C 0D 0E 0F
      -- -- -- -- -- -- -- --  -- -- -- -- -- -- -- --
0500:                13 00 00  3A 80 02 00 00 04 80 00       ...:.......
0510: 19 05 1D 61 80 23 01 1E  07 1E F0 FF FF 7F 02 02  ...a.#..........
0520: 10 06 80 80 33 05 03 02  10 37 80 03 03 10 38 80  ....3....7....8.
0530: 01 16 07 02 02 10 03 80  80 48 05 03 02 10 37 80  .........H....7.
0540: 03 03 10 39 80 01 16 07  02 02 10 3A 80 80 5D 05  ...9.......:..].
0550: 03 02 10 37 80 03 03 10  3B 80 01 16 07 02 02 10  ...7....;.......
0560: 3C 80 80 72 05 03 02 10  37 80 03 03 10 3D 80 01  <..r....7....=..
0570: 16 07 02 02 10 3E 80 80  87 05 03 02 10 37 80 03  .....>.......7..
0580: 03 10 3F 80 01 16 07 02  02 10 27 80 80 9C 05 03  ..?.......'.....
0590: 02 10 37 80 03 03 10 40  80 01 16 07 02 02 10 41  ..7....@.......A
05A0: 80 80 B1 05 03 02 10 37  80 03 03 10 42 80 01 16  .......7....B...
05B0: 07 02 02 10 43 80 80 C6  05 03 02 10 37 80 03 03  ....C.......7...
05C0: 10 44 80 01 16 07 02 02  10 45 80 80 DB 05 03 02  .D.......E......
05D0: 10 46 80 03 03 10 38 80  01 16 07 02 02 10 47 80  .F....8.......G.
05E0: 80 F0 05 03 02 10 46 80  03 03 10 39 80 01 16 07  ......F....9....
05F0: 02 02 10 48 80 80 05 06  03 02 10 46 80 03 03 10  ...H.......F....
0600: 3B 80 01 16 07 02 02 10  49 80 80 1A 06 03 02 10  ;.......I.......
0610: 46 80 03 03 10 3D 80 01  16 07 02 02 10 4A 80 80  F....=.......J..
0620: 2F 06 03 02 10 46 80 03  03 10 3F 80 01 16 07 02  /....F....?.....
0630: 02 10 4B 80 80 44 06 03  02 10 46 80 03 03 10 40  ..K..D....F....@
0640: 80 01 16 07 02 02 10 4C  80 80 59 06 03 02 10 46  .......L..Y....F
0650: 80 03 03 10 42 80 01 16  07 02 02 10 4D 80 80 6E  ....B.......M..n
0660: 06 03 02 10 46 80 03 03  10 44 80 01 16 07 02 02  ....F....D......
0670: 10 4E 80 80 83 06 03 02  10 4F 80 03 03 10 38 80  .N.......O....8.
0680: 01 16 07 02 02 10 23 80  80 98 06 03 02 10 4F 80  ......#.......O.
0690: 03 03 10 39 80 01 16 07  02 02 10 19 80 80 AD 06  ...9............
06A0: 03 02 10 4F 80 03 03 10  3B 80 01 16 07 02 02 10  ...O....;.......
06B0: 18 80 80 C2 06 03 02 10  4F 80 03 03 10 3D 80 01  ........O....=..
06C0: 16 07 02 02 10 50 80 80  D7 06 03 02 10 4F 80 03  .....P.......O..
06D0: 03 10 3F 80 01 16 07 02  02 10 51 80 80 EC 06 03  ..?.......Q.....
06E0: 02 10 4F 80 03 03 10 40  80 01 16 07 02 02 10 52  ..O....@.......R
06F0: 80 80 01 07 03 02 10 4F  80 03 03 10 42 80 01 16  .......O....B...
0700: 07 02 02 10 53 80 80 16  07 03 02 10 4F 80 03 03  ....S.......O...
0710: 10 44 80 01 16 07 1D 62  80 23 1D 63 80 23 21 00  .D.....b.#.c.#!.
```

#### Opcodes

```
  0: 0x0505 [0x13] ExtData[1]->WorkLocal[0] = rand() % 3*
  1: 0x050A [0x02] IF !(ExtData[1]->WorkLocal[0] == 0*) GOTO 0x0519
  2: 0x0512 [0x1D] PRINT_EVENT_MESSAGE(message_id=11474*)
    → "All this research has sent my blood sugar levels plummeting. I could sure go for a hot apple pie..."
  3: 0x0515 [0x23] WAIT_FOR_DIALOG_INTERACTION
  4: 0x0516 [0x01] GOTO 0x071E
  5: 0x0519 [0x1E] EventEntity looks at LocalPlayer and starts talking
  6: 0x051E [0x02] IF !(Work_Zone[2] == 1*) GOTO 0x0533
  7: 0x0526 [0x03] Work_Zone[2] = 13205*
  8: 0x052B [0x03] Work_Zone[3] = 474*
  9: 0x0530 [0x01] GOTO 0x0716
 10: 0x0533 [0x02] IF !(Work_Zone[2] == 2*) GOTO 0x0548
 11: 0x053B [0x03] Work_Zone[2] = 13205*
 12: 0x0540 [0x03] Work_Zone[3] = 478*
 13: 0x0545 [0x01] GOTO 0x0716
 14: 0x0548 [0x02] IF !(Work_Zone[2] == 3*) GOTO 0x055D
 15: 0x0550 [0x03] Work_Zone[2] = 13205*
 16: 0x0555 [0x03] Work_Zone[3] = 477*
 17: 0x055A [0x01] GOTO 0x0716
 18: 0x055D [0x02] IF !(Work_Zone[2] == 4*) GOTO 0x0572
 19: 0x0565 [0x03] Work_Zone[2] = 13205*
 20: 0x056A [0x03] Work_Zone[3] = 476*
 21: 0x056F [0x01] GOTO 0x0716
 22: 0x0572 [0x02] IF !(Work_Zone[2] == 5*) GOTO 0x0587
 23: 0x057A [0x03] Work_Zone[2] = 13205*
 24: 0x057F [0x03] Work_Zone[3] = 479*
 25: 0x0584 [0x01] GOTO 0x0716
 26: 0x0587 [0x02] IF !(Work_Zone[2] == 6*) GOTO 0x059C
 27: 0x058F [0x03] Work_Zone[2] = 13205*
 28: 0x0594 [0x03] Work_Zone[3] = 475*
 29: 0x0599 [0x01] GOTO 0x0716
 30: 0x059C [0x02] IF !(Work_Zone[2] == 7*) GOTO 0x05B1
 31: 0x05A4 [0x03] Work_Zone[2] = 13205*
 32: 0x05A9 [0x03] Work_Zone[3] = 480*
 33: 0x05AE [0x01] GOTO 0x0716
 34: 0x05B1 [0x02] IF !(Work_Zone[2] == 8*) GOTO 0x05C6
 35: 0x05B9 [0x03] Work_Zone[2] = 13205*
 36: 0x05BE [0x03] Work_Zone[3] = 481*
 37: 0x05C3 [0x01] GOTO 0x0716
 38: 0x05C6 [0x02] IF !(Work_Zone[2] == 9*) GOTO 0x05DB
 39: 0x05CE [0x03] Work_Zone[2] = 13080*
 40: 0x05D3 [0x03] Work_Zone[3] = 474*
 41: 0x05D8 [0x01] GOTO 0x0716
 42: 0x05DB [0x02] IF !(Work_Zone[2] == 10*) GOTO 0x05F0
 43: 0x05E3 [0x03] Work_Zone[2] = 13080*
 44: 0x05E8 [0x03] Work_Zone[3] = 478*
 45: 0x05ED [0x01] GOTO 0x0716
 46: 0x05F0 [0x02] IF !(Work_Zone[2] == 11*) GOTO 0x0605
 47: 0x05F8 [0x03] Work_Zone[2] = 13080*
 48: 0x05FD [0x03] Work_Zone[3] = 477*
 49: 0x0602 [0x01] GOTO 0x0716
 50: 0x0605 [0x02] IF !(Work_Zone[2] == 12*) GOTO 0x061A
 51: 0x060D [0x03] Work_Zone[2] = 13080*
 52: 0x0612 [0x03] Work_Zone[3] = 476*
 53: 0x0617 [0x01] GOTO 0x0716
 54: 0x061A [0x02] IF !(Work_Zone[2] == 13*) GOTO 0x062F
 55: 0x0622 [0x03] Work_Zone[2] = 13080*
 56: 0x0627 [0x03] Work_Zone[3] = 479*
 57: 0x062C [0x01] GOTO 0x0716
 58: 0x062F [0x02] IF !(Work_Zone[2] == 14*) GOTO 0x0644
 59: 0x0637 [0x03] Work_Zone[2] = 13080*
 60: 0x063C [0x03] Work_Zone[3] = 475*
 61: 0x0641 [0x01] GOTO 0x0716
 62: 0x0644 [0x02] IF !(Work_Zone[2] == 15*) GOTO 0x0659
 63: 0x064C [0x03] Work_Zone[2] = 13080*
 64: 0x0651 [0x03] Work_Zone[3] = 480*
 65: 0x0656 [0x01] GOTO 0x0716
 66: 0x0659 [0x02] IF !(Work_Zone[2] == 16*) GOTO 0x066E
 67: 0x0661 [0x03] Work_Zone[2] = 13080*
 68: 0x0666 [0x03] Work_Zone[3] = 481*
 69: 0x066B [0x01] GOTO 0x0716
 70: 0x066E [0x02] IF !(Work_Zone[2] == 17*) GOTO 0x0683
 71: 0x0676 [0x03] Work_Zone[2] = 13327*
 72: 0x067B [0x03] Work_Zone[3] = 474*
 73: 0x0680 [0x01] GOTO 0x0716
 74: 0x0683 [0x02] IF !(Work_Zone[2] == 18*) GOTO 0x0698
 75: 0x068B [0x03] Work_Zone[2] = 13327*
 76: 0x0690 [0x03] Work_Zone[3] = 478*
 77: 0x0695 [0x01] GOTO 0x0716
 78: 0x0698 [0x02] IF !(Work_Zone[2] == 19*) GOTO 0x06AD
 79: 0x06A0 [0x03] Work_Zone[2] = 13327*
 80: 0x06A5 [0x03] Work_Zone[3] = 477*
 81: 0x06AA [0x01] GOTO 0x0716
 82: 0x06AD [0x02] IF !(Work_Zone[2] == 20*) GOTO 0x06C2
 83: 0x06B5 [0x03] Work_Zone[2] = 13327*
 84: 0x06BA [0x03] Work_Zone[3] = 476*
 85: 0x06BF [0x01] GOTO 0x0716
 86: 0x06C2 [0x02] IF !(Work_Zone[2] == 21*) GOTO 0x06D7
 87: 0x06CA [0x03] Work_Zone[2] = 13327*
 88: 0x06CF [0x03] Work_Zone[3] = 479*
 89: 0x06D4 [0x01] GOTO 0x0716
 90: 0x06D7 [0x02] IF !(Work_Zone[2] == 22*) GOTO 0x06EC
 91: 0x06DF [0x03] Work_Zone[2] = 13327*
 92: 0x06E4 [0x03] Work_Zone[3] = 475*
 93: 0x06E9 [0x01] GOTO 0x0716
 94: 0x06EC [0x02] IF !(Work_Zone[2] == 23*) GOTO 0x0701
 95: 0x06F4 [0x03] Work_Zone[2] = 13327*
 96: 0x06F9 [0x03] Work_Zone[3] = 480*
 97: 0x06FE [0x01] GOTO 0x0716
 98: 0x0701 [0x02] IF !(Work_Zone[2] == 24*) GOTO 0x0716
 99: 0x0709 [0x03] Work_Zone[2] = 13327*
100: 0x070E [0x03] Work_Zone[3] = 481*
101: 0x0713 [0x01] GOTO 0x0716

SUBROUTINE_0716:
102: 0x0716 [0x1D] PRINT_EVENT_MESSAGE(message_id=11472*)
    → "I cannot show you the results of my research with only $0 and $1."
103: 0x0719 [0x23] WAIT_FOR_DIALOG_INTERACTION
104: 0x071A [0x1D] PRINT_EVENT_MESSAGE(message_id=11473*)
    → "Once you have collected a large sample of biolumin matter, return here and I will begin my experiment... I promise!"
105: 0x071D [0x23] WAIT_FOR_DIALOG_INTERACTION

SUBROUTINE_071E:
106: 0x071E [0x21] END_EVENT
107: 0x071F [0x00] END_REQSTACK()
```

### Event 531

#### Metadata

| Field        | Value      |
|--------------|------------|
| Entrypoint   | 0x0720     |
| Data Size    | 1104 bytes |
| Instructions | 256        |

```
      00 01 02 03 04 05 06 07  08 09 0A 0B 0C 0D 0E 0F
      -- -- -- -- -- -- -- --  -- -- -- -- -- -- -- --
0720: 42 1E F0 FF FF 7F 1D 64  80 23 6F 70 6E F8 FF FF  B......d.#opn...
0730: 7F 41 80 99 F8 FF FF 7F  1D 65 80 23 6E F8 FF FF  .A.......e.#n...
0740: 7F 66 80 99 F8 FF FF 7F  02 04 10 43 80 05 57 07  .f.........C..W.
0750: 1D 67 80 23 01 6A 07 02  04 10 4D 80 05 66 07 1D  .g.#.j....M..f..
0760: 68 80 23 01 6A 07 1D 69  80 23 1D 6A 80 23 02 04  h.#.j..i.#.j.#..
0770: 10 06 80 80 9B 07 03 05  10 6B 80 03 06 10 3A 80  .........k....:.
0780: 03 07 10 6C 80 03 08 10  3A 80 03 09 10 6D 80 03  ...l....:....m..
0790: 00 17 41 80 1D 6E 80 23  01 6A 0B 02 04 10 03 80  ..A..n.#.j......
07A0: 80 C8 07 03 05 10 6B 80  03 06 10 3A 80 03 07 10  ......k....:....
07B0: 6D 80 03 08 10 3A 80 03  09 10 6C 80 03 00 17 41  m....:....l....A
07C0: 80 1D 6E 80 23 01 6A 0B  02 04 10 3A 80 80 F5 07  ..n.#.j....:....
07D0: 03 05 10 6B 80 03 06 10  3A 80 03 07 10 6F 80 03  ...k....:....o..
07E0: 08 10 3A 80 03 09 10 70  80 03 00 17 41 80 1D 6E  ..:....p....A..n
07F0: 80 23 01 6A 0B 02 04 10  3C 80 80 22 08 03 05 10  .#.j....<.."....
0800: 6B 80 03 06 10 3A 80 03  07 10 70 80 03 08 10 3A  k....:....p....:
0810: 80 03 09 10 6F 80 03 00  17 41 80 1D 6E 80 23 01  ....o....A..n.#.
0820: 6A 0B 02 04 10 3E 80 80  4F 08 03 05 10 6B 80 03  j....>..O....k..
0830: 06 10 3A 80 03 07 10 6F  80 03 08 10 3A 80 03 09  ..:....o....:...
0840: 10 6D 80 03 00 17 41 80  1D 6E 80 23 01 6A 0B 02  .m....A..n.#.j..
0850: 04 10 27 80 80 7C 08 03  05 10 6B 80 03 06 10 3A  ..'..|....k....:
0860: 80 03 07 10 6D 80 03 08  10 3A 80 03 09 10 6F 80  ....m....:....o.
0870: 03 00 17 41 80 1D 6E 80  23 01 6A 0B 02 04 10 41  ...A..n.#.j....A
0880: 80 80 A9 08 03 05 10 6B  80 03 06 10 3A 80 03 07  .......k....:...
0890: 10 70 80 03 08 10 3A 80  03 09 10 6C 80 03 00 17  .p....:....l....
08A0: 41 80 1D 6E 80 23 01 6A  0B 02 04 10 43 80 80 D6  A..n.#.j....C...
08B0: 08 03 05 10 6B 80 03 06  10 3A 80 03 07 10 6C 80  ....k....:....l.
08C0: 03 08 10 3A 80 03 09 10  70 80 03 00 17 41 80 1D  ...:....p....A..
08D0: 6E 80 23 01 6A 0B 02 04  10 45 80 80 03 09 03 05  n.#.j....E......
08E0: 10 71 80 03 06 10 06 80  03 07 10 6C 80 03 08 10  .q.........l....
08F0: 3E 80 03 09 10 6D 80 03  00 17 47 80 1D 6E 80 23  >....m....G..n.#
0900: 01 6A 0B 02 04 10 47 80  80 30 09 03 05 10 71 80  .j....G..0....q.
0910: 03 06 10 06 80 03 07 10  70 80 03 08 10 3E 80 03  ........p....>..
0920: 09 10 6D 80 03 00 17 47  80 1D 6E 80 23 01 6A 0B  ..m....G..n.#.j.
0930: 02 04 10 48 80 80 5D 09  03 05 10 71 80 03 06 10  ...H..]....q....
0940: 06 80 03 07 10 6F 80 03  08 10 3E 80 03 09 10 6D  .....o....>....m
0950: 80 03 00 17 47 80 1D 6E  80 23 01 6A 0B 02 04 10  ....G..n.#.j....
0960: 49 80 80 8A 09 03 05 10  71 80 03 06 10 06 80 03  I.......q.......
0970: 07 10 70 80 03 08 10 3E  80 03 09 10 6C 80 03 00  ..p....>....l...
0980: 17 47 80 1D 6E 80 23 01  6A 0B 02 04 10 4A 80 80  .G..n.#.j....J..
0990: B7 09 03 05 10 71 80 03  06 10 06 80 03 07 10 6F  .....q.........o
09A0: 80 03 08 10 3E 80 03 09  10 6C 80 03 00 17 47 80  ....>....l....G.
09B0: 1D 6E 80 23 01 6A 0B 02  04 10 4B 80 80 E4 09 03  .n.#.j....K.....
09C0: 05 10 71 80 03 06 10 06  80 03 07 10 6F 80 03 08  ..q.........o...
09D0: 10 3E 80 03 09 10 70 80  03 00 17 47 80 1D 6E 80  .>....p....G..n.
09E0: 23 01 6A 0B 02 04 10 4C  80 80 1B 0A 03 05 10 71  #.j....L.......q
09F0: 80 03 06 10 03 80 03 07  10 6D 80 03 08 10 3A 80  .........m....:.
0A00: 03 09 10 6F 80 03 00 17  3A 80 03 01 17 70 80 03  ...o....:....p..
0A10: 02 17 41 80 1D 72 80 23  01 6A 0B 02 04 10 4D 80  ..A..r.#.j....M.
0A20: 80 52 0A 03 05 10 71 80  03 06 10 03 80 03 07 10  .R....q.........
0A30: 6D 80 03 08 10 3A 80 03  09 10 70 80 03 00 17 3A  m....:....p....:
0A40: 80 03 01 17 6F 80 03 02  17 41 80 1D 72 80 23 01  ....o....A..r.#.
0A50: 6A 0B 02 04 10 4E 80 80  75 0A 03 05 10 73 80 03  j....N..u....s..
0A60: 06 10 3E 80 03 07 10 6B  80 03 08 10 3E 80 1D 74  ..>....k....>..t
0A70: 80 23 01 6A 0B 02 04 10  23 80 80 98 0A 03 05 10  .#.j....#.......
0A80: 73 80 03 06 10 3E 80 03  07 10 6B 80 03 08 10 3E  s....>....k....>
0A90: 80 1D 74 80 23 01 6A 0B  02 04 10 19 80 80 BB 0A  ..t.#.j.........
0AA0: 03 05 10 73 80 03 06 10  3E 80 03 07 10 6B 80 03  ...s....>....k..
0AB0: 08 10 3E 80 1D 74 80 23  01 6A 0B 02 04 10 18 80  ..>..t.#.j......
0AC0: 80 DE 0A 03 05 10 73 80  03 06 10 3E 80 03 07 10  ......s....>....
0AD0: 6B 80 03 08 10 3E 80 1D  74 80 23 01 6A 0B 02 04  k....>..t.#.j...
0AE0: 10 50 80 80 01 0B 03 05  10 73 80 03 06 10 3E 80  .P.......s....>.
0AF0: 03 07 10 6B 80 03 08 10  3E 80 1D 74 80 23 01 6A  ...k....>..t.#.j
0B00: 0B 02 04 10 51 80 80 24  0B 03 05 10 73 80 03 06  ....Q..$....s...
0B10: 10 3E 80 03 07 10 6B 80  03 08 10 3E 80 1D 74 80  .>....k....>..t.
0B20: 23 01 6A 0B 02 04 10 52  80 80 47 0B 03 05 10 73  #.j....R..G....s
0B30: 80 03 06 10 3E 80 03 07  10 6B 80 03 08 10 3E 80  ....>....k....>.
0B40: 1D 74 80 23 01 6A 0B 02  04 10 53 80 80 6A 0B 03  .t.#.j....S..j..
0B50: 05 10 73 80 03 06 10 3E  80 03 07 10 6B 80 03 08  ..s....>....k...
0B60: 10 3E 80 1D 74 80 23 01  6A 0B 1D 75 80 23 21 00  .>..t.#.j..u.#!.
```

#### Opcodes

```
  0: 0x0720 [0x42] SET_CLI_EVENT_CANCEL_DATA()
  1: 0x0721 [0x1E] EventEntity looks at LocalPlayer and starts talking
  2: 0x0726 [0x1D] PRINT_EVENT_MESSAGE(message_id=11475*)
    → "What? $0, for me?"
  3: 0x0729 [0x23] WAIT_FOR_DIALOG_INTERACTION
  4: 0x072A [0x6F] WAIT_FRAME_DELAY: Yield until WaitTime reaches zero
  5: 0x072B [0x70] WAIT_ENTITY_RENDER_FLAG: Wait while EventEntity->Render.Flags3 bit 2 is set (cancel turn if not)
  6: 0x072C [0x6E] EventEntity uses emote 7*
  7: 0x0733 [0x99] Wait for EventEntity animation to complete
  8: 0x0738 [0x1D] PRINT_EVENT_MESSAGE(message_id=11476*)
    → "Mmmmmm... Pie......"
  9: 0x073B [0x23] WAIT_FOR_DIALOG_INTERACTION
 10: 0x073C [0x6E] EventEntity uses emote 32*
 11: 0x0743 [0x99] Wait for EventEntity animation to complete
 12: 0x0748 [0x02] IF !(Work_Zone[4] > 8*) GOTO 0x0757
 13: 0x0750 [0x1D] PRINT_EVENT_MESSAGE(message_id=11477*)
    → "Eureka! I think I've got it! Remember when I told you the matter I was searching for was from an organism that is made up of cells that work independently? What does that remind you of?"
 14: 0x0753 [0x23] WAIT_FOR_DIALOG_INTERACTION
 15: 0x0754 [0x01] GOTO 0x076A
 16: 0x0757 [0x02] IF !(Work_Zone[4] > 16*) GOTO 0x0766
 17: 0x075F [0x1D] PRINT_EVENT_MESSAGE(message_id=11478*)
    → "That's it! A jellyfish! Perhaps the things we are looking for anatomically resemble some type of jellyfish!"
 18: 0x0762 [0x23] WAIT_FOR_DIALOG_INTERACTION
 19: 0x0763 [0x01] GOTO 0x076A
 20: 0x0766 [0x1D] PRINT_EVENT_MESSAGE(message_id=11479*)
    → "Hm? Hrmmm... Aha! I see a meadow! Yes... I wonder if this thing we seek has anything to do with flowers..."
 21: 0x0769 [0x23] WAIT_FOR_DIALOG_INTERACTION

SUBROUTINE_076A:
 22: 0x076A [0x1D] PRINT_EVENT_MESSAGE(message_id=11480*)
    → "Aha! My tremendous years of experience can lead us to a conclusion most satisfying, as long as we do a little of this and a little of that..."
 23: 0x076D [0x23] WAIT_FOR_DIALOG_INTERACTION
 24: 0x076E [0x02] IF !(Work_Zone[4] == 1*) GOTO 0x079B
 25: 0x0776 [0x03] Work_Zone[5] = 1783*
 26: 0x077B [0x03] Work_Zone[6] = 3*
 27: 0x0780 [0x03] Work_Zone[7] = 1785*
 28: 0x0785 [0x03] Work_Zone[8] = 3*
 29: 0x078A [0x03] Work_Zone[9] = 1784*
 30: 0x078F [0x03] Work_Zone_1700[0] = 7*
 31: 0x0794 [0x1D] PRINT_EVENT_MESSAGE(message_id=11482*)
    → "Or $4 $0$3 , $6 $0$5 , and $8 $0 !"
 32: 0x0797 [0x23] WAIT_FOR_DIALOG_INTERACTION
 33: 0x0798 [0x01] GOTO 0x0B6A
 34: 0x079B [0x02] IF !(Work_Zone[4] == 2*) GOTO 0x07C8
 35: 0x07A3 [0x03] Work_Zone[5] = 1783*
 36: 0x07A8 [0x03] Work_Zone[6] = 3*
 37: 0x07AD [0x03] Work_Zone[7] = 1784*
 38: 0x07B2 [0x03] Work_Zone[8] = 3*
 39: 0x07B7 [0x03] Work_Zone[9] = 1785*
 40: 0x07BC [0x03] Work_Zone_1700[0] = 7*
 41: 0x07C1 [0x1D] PRINT_EVENT_MESSAGE(message_id=11482*)
    → "Or $4 $0$3 , $6 $0$5 , and $8 $0 !"
 42: 0x07C4 [0x23] WAIT_FOR_DIALOG_INTERACTION
 43: 0x07C5 [0x01] GOTO 0x0B6A
 44: 0x07C8 [0x02] IF !(Work_Zone[4] == 3*) GOTO 0x07F5
 45: 0x07D0 [0x03] Work_Zone[5] = 1783*
 46: 0x07D5 [0x03] Work_Zone[6] = 3*
 47: 0x07DA [0x03] Work_Zone[7] = 1787*
 48: 0x07DF [0x03] Work_Zone[8] = 3*
 49: 0x07E4 [0x03] Work_Zone[9] = 1786*
 50: 0x07E9 [0x03] Work_Zone_1700[0] = 7*
 51: 0x07EE [0x1D] PRINT_EVENT_MESSAGE(message_id=11482*)
    → "Or $4 $0$3 , $6 $0$5 , and $8 $0 !"
 52: 0x07F1 [0x23] WAIT_FOR_DIALOG_INTERACTION
 53: 0x07F2 [0x01] GOTO 0x0B6A
 54: 0x07F5 [0x02] IF !(Work_Zone[4] == 4*) GOTO 0x0822
 55: 0x07FD [0x03] Work_Zone[5] = 1783*
 56: 0x0802 [0x03] Work_Zone[6] = 3*
 57: 0x0807 [0x03] Work_Zone[7] = 1786*
 58: 0x080C [0x03] Work_Zone[8] = 3*
 59: 0x0811 [0x03] Work_Zone[9] = 1787*
 60: 0x0816 [0x03] Work_Zone_1700[0] = 7*
 61: 0x081B [0x1D] PRINT_EVENT_MESSAGE(message_id=11482*)
    → "Or $4 $0$3 , $6 $0$5 , and $8 $0 !"
 62: 0x081E [0x23] WAIT_FOR_DIALOG_INTERACTION
 63: 0x081F [0x01] GOTO 0x0B6A
 64: 0x0822 [0x02] IF !(Work_Zone[4] == 5*) GOTO 0x084F
 65: 0x082A [0x03] Work_Zone[5] = 1783*
 66: 0x082F [0x03] Work_Zone[6] = 3*
 67: 0x0834 [0x03] Work_Zone[7] = 1787*
 68: 0x0839 [0x03] Work_Zone[8] = 3*
 69: 0x083E [0x03] Work_Zone[9] = 1784*
 70: 0x0843 [0x03] Work_Zone_1700[0] = 7*
 71: 0x0848 [0x1D] PRINT_EVENT_MESSAGE(message_id=11482*)
    → "Or $4 $0$3 , $6 $0$5 , and $8 $0 !"
 72: 0x084B [0x23] WAIT_FOR_DIALOG_INTERACTION
 73: 0x084C [0x01] GOTO 0x0B6A
 74: 0x084F [0x02] IF !(Work_Zone[4] == 6*) GOTO 0x087C
 75: 0x0857 [0x03] Work_Zone[5] = 1783*
 76: 0x085C [0x03] Work_Zone[6] = 3*
 77: 0x0861 [0x03] Work_Zone[7] = 1784*
 78: 0x0866 [0x03] Work_Zone[8] = 3*
 79: 0x086B [0x03] Work_Zone[9] = 1787*
 80: 0x0870 [0x03] Work_Zone_1700[0] = 7*
 81: 0x0875 [0x1D] PRINT_EVENT_MESSAGE(message_id=11482*)
    → "Or $4 $0$3 , $6 $0$5 , and $8 $0 !"
 82: 0x0878 [0x23] WAIT_FOR_DIALOG_INTERACTION
 83: 0x0879 [0x01] GOTO 0x0B6A
 84: 0x087C [0x02] IF !(Work_Zone[4] == 7*) GOTO 0x08A9
 85: 0x0884 [0x03] Work_Zone[5] = 1783*
 86: 0x0889 [0x03] Work_Zone[6] = 3*
 87: 0x088E [0x03] Work_Zone[7] = 1786*
 88: 0x0893 [0x03] Work_Zone[8] = 3*
 89: 0x0898 [0x03] Work_Zone[9] = 1785*
 90: 0x089D [0x03] Work_Zone_1700[0] = 7*
 91: 0x08A2 [0x1D] PRINT_EVENT_MESSAGE(message_id=11482*)
    → "Or $4 $0$3 , $6 $0$5 , and $8 $0 !"
 92: 0x08A5 [0x23] WAIT_FOR_DIALOG_INTERACTION
 93: 0x08A6 [0x01] GOTO 0x0B6A
 94: 0x08A9 [0x02] IF !(Work_Zone[4] == 8*) GOTO 0x08D6
 95: 0x08B1 [0x03] Work_Zone[5] = 1783*
 96: 0x08B6 [0x03] Work_Zone[6] = 3*
 97: 0x08BB [0x03] Work_Zone[7] = 1785*
 98: 0x08C0 [0x03] Work_Zone[8] = 3*
 99: 0x08C5 [0x03] Work_Zone[9] = 1786*
100: 0x08CA [0x03] Work_Zone_1700[0] = 7*
101: 0x08CF [0x1D] PRINT_EVENT_MESSAGE(message_id=11482*)
    → "Or $4 $0$3 , $6 $0$5 , and $8 $0 !"
102: 0x08D2 [0x23] WAIT_FOR_DIALOG_INTERACTION
103: 0x08D3 [0x01] GOTO 0x0B6A
104: 0x08D6 [0x02] IF !(Work_Zone[4] == 9*) GOTO 0x0903
105: 0x08DE [0x03] Work_Zone[5] = 1788*
106: 0x08E3 [0x03] Work_Zone[6] = 1*
107: 0x08E8 [0x03] Work_Zone[7] = 1785*
108: 0x08ED [0x03] Work_Zone[8] = 5*
109: 0x08F2 [0x03] Work_Zone[9] = 1784*
110: 0x08F7 [0x03] Work_Zone_1700[0] = 10*
111: 0x08FC [0x1D] PRINT_EVENT_MESSAGE(message_id=11482*)
    → "Or $4 $0$3 , $6 $0$5 , and $8 $0 !"
112: 0x08FF [0x23] WAIT_FOR_DIALOG_INTERACTION
113: 0x0900 [0x01] GOTO 0x0B6A
114: 0x0903 [0x02] IF !(Work_Zone[4] == 10*) GOTO 0x0930
115: 0x090B [0x03] Work_Zone[5] = 1788*
116: 0x0910 [0x03] Work_Zone[6] = 1*
117: 0x0915 [0x03] Work_Zone[7] = 1786*
118: 0x091A [0x03] Work_Zone[8] = 5*
119: 0x091F [0x03] Work_Zone[9] = 1784*
120: 0x0924 [0x03] Work_Zone_1700[0] = 10*
121: 0x0929 [0x1D] PRINT_EVENT_MESSAGE(message_id=11482*)
    → "Or $4 $0$3 , $6 $0$5 , and $8 $0 !"
122: 0x092C [0x23] WAIT_FOR_DIALOG_INTERACTION
123: 0x092D [0x01] GOTO 0x0B6A
124: 0x0930 [0x02] IF !(Work_Zone[4] == 11*) GOTO 0x095D
125: 0x0938 [0x03] Work_Zone[5] = 1788*
126: 0x093D [0x03] Work_Zone[6] = 1*
127: 0x0942 [0x03] Work_Zone[7] = 1787*
128: 0x0947 [0x03] Work_Zone[8] = 5*
129: 0x094C [0x03] Work_Zone[9] = 1784*
130: 0x0951 [0x03] Work_Zone_1700[0] = 10*
131: 0x0956 [0x1D] PRINT_EVENT_MESSAGE(message_id=11482*)
    → "Or $4 $0$3 , $6 $0$5 , and $8 $0 !"
132: 0x0959 [0x23] WAIT_FOR_DIALOG_INTERACTION
133: 0x095A [0x01] GOTO 0x0B6A
134: 0x095D [0x02] IF !(Work_Zone[4] == 12*) GOTO 0x098A
135: 0x0965 [0x03] Work_Zone[5] = 1788*
136: 0x096A [0x03] Work_Zone[6] = 1*
137: 0x096F [0x03] Work_Zone[7] = 1786*
138: 0x0974 [0x03] Work_Zone[8] = 5*
139: 0x0979 [0x03] Work_Zone[9] = 1785*
140: 0x097E [0x03] Work_Zone_1700[0] = 10*
141: 0x0983 [0x1D] PRINT_EVENT_MESSAGE(message_id=11482*)
    → "Or $4 $0$3 , $6 $0$5 , and $8 $0 !"
142: 0x0986 [0x23] WAIT_FOR_DIALOG_INTERACTION
143: 0x0987 [0x01] GOTO 0x0B6A
144: 0x098A [0x02] IF !(Work_Zone[4] == 13*) GOTO 0x09B7
145: 0x0992 [0x03] Work_Zone[5] = 1788*
146: 0x0997 [0x03] Work_Zone[6] = 1*
147: 0x099C [0x03] Work_Zone[7] = 1787*
148: 0x09A1 [0x03] Work_Zone[8] = 5*
149: 0x09A6 [0x03] Work_Zone[9] = 1785*
150: 0x09AB [0x03] Work_Zone_1700[0] = 10*
151: 0x09B0 [0x1D] PRINT_EVENT_MESSAGE(message_id=11482*)
    → "Or $4 $0$3 , $6 $0$5 , and $8 $0 !"
152: 0x09B3 [0x23] WAIT_FOR_DIALOG_INTERACTION
153: 0x09B4 [0x01] GOTO 0x0B6A
154: 0x09B7 [0x02] IF !(Work_Zone[4] == 14*) GOTO 0x09E4
155: 0x09BF [0x03] Work_Zone[5] = 1788*
156: 0x09C4 [0x03] Work_Zone[6] = 1*
157: 0x09C9 [0x03] Work_Zone[7] = 1787*
158: 0x09CE [0x03] Work_Zone[8] = 5*
159: 0x09D3 [0x03] Work_Zone[9] = 1786*
160: 0x09D8 [0x03] Work_Zone_1700[0] = 10*
161: 0x09DD [0x1D] PRINT_EVENT_MESSAGE(message_id=11482*)
    → "Or $4 $0$3 , $6 $0$5 , and $8 $0 !"
162: 0x09E0 [0x23] WAIT_FOR_DIALOG_INTERACTION
163: 0x09E1 [0x01] GOTO 0x0B6A
164: 0x09E4 [0x02] IF !(Work_Zone[4] == 15*) GOTO 0x0A1B
165: 0x09EC [0x03] Work_Zone[5] = 1788*
166: 0x09F1 [0x03] Work_Zone[6] = 2*
167: 0x09F6 [0x03] Work_Zone[7] = 1784*
168: 0x09FB [0x03] Work_Zone[8] = 3*
169: 0x0A00 [0x03] Work_Zone[9] = 1787*
170: 0x0A05 [0x03] Work_Zone_1700[0] = 3*
171: 0x0A0A [0x03] Work_Zone_1700[1] = 1786*
172: 0x0A0F [0x03] Work_Zone_1700[2] = 7*
173: 0x0A14 [0x1D] PRINT_EVENT_MESSAGE(message_id=11483*)
    → "Or maybe even $4 $0$3 , $6 $0$5 , $8 $0 , and $10 $0$0 !"
174: 0x0A17 [0x23] WAIT_FOR_DIALOG_INTERACTION
175: 0x0A18 [0x01] GOTO 0x0B6A
176: 0x0A1B [0x02] IF !(Work_Zone[4] == 16*) GOTO 0x0A52
177: 0x0A23 [0x03] Work_Zone[5] = 1788*
178: 0x0A28 [0x03] Work_Zone[6] = 2*
179: 0x0A2D [0x03] Work_Zone[7] = 1784*
180: 0x0A32 [0x03] Work_Zone[8] = 3*
181: 0x0A37 [0x03] Work_Zone[9] = 1786*
182: 0x0A3C [0x03] Work_Zone_1700[0] = 3*
183: 0x0A41 [0x03] Work_Zone_1700[1] = 1787*
184: 0x0A46 [0x03] Work_Zone_1700[2] = 7*
185: 0x0A4B [0x1D] PRINT_EVENT_MESSAGE(message_id=11483*)
    → "Or maybe even $4 $0$3 , $6 $0$5 , $8 $0 , and $10 $0$0 !"
186: 0x0A4E [0x23] WAIT_FOR_DIALOG_INTERACTION
187: 0x0A4F [0x01] GOTO 0x0B6A
188: 0x0A52 [0x02] IF !(Work_Zone[4] == 17*) GOTO 0x0A75
189: 0x0A5A [0x03] Work_Zone[5] = 1818*
190: 0x0A5F [0x03] Work_Zone[6] = 5*
191: 0x0A64 [0x03] Work_Zone[7] = 1783*
192: 0x0A69 [0x03] Work_Zone[8] = 5*
193: 0x0A6E [0x1D] PRINT_EVENT_MESSAGE(message_id=11481*)
    → "Like $4 $0$3 and $6 $0$5 !"
194: 0x0A71 [0x23] WAIT_FOR_DIALOG_INTERACTION
195: 0x0A72 [0x01] GOTO 0x0B6A
196: 0x0A75 [0x02] IF !(Work_Zone[4] == 18*) GOTO 0x0A98
197: 0x0A7D [0x03] Work_Zone[5] = 1818*
198: 0x0A82 [0x03] Work_Zone[6] = 5*
199: 0x0A87 [0x03] Work_Zone[7] = 1783*
200: 0x0A8C [0x03] Work_Zone[8] = 5*
201: 0x0A91 [0x1D] PRINT_EVENT_MESSAGE(message_id=11481*)
    → "Like $4 $0$3 and $6 $0$5 !"
202: 0x0A94 [0x23] WAIT_FOR_DIALOG_INTERACTION
203: 0x0A95 [0x01] GOTO 0x0B6A
204: 0x0A98 [0x02] IF !(Work_Zone[4] == 19*) GOTO 0x0ABB
205: 0x0AA0 [0x03] Work_Zone[5] = 1818*
206: 0x0AA5 [0x03] Work_Zone[6] = 5*
207: 0x0AAA [0x03] Work_Zone[7] = 1783*
208: 0x0AAF [0x03] Work_Zone[8] = 5*
209: 0x0AB4 [0x1D] PRINT_EVENT_MESSAGE(message_id=11481*)
    → "Like $4 $0$3 and $6 $0$5 !"
210: 0x0AB7 [0x23] WAIT_FOR_DIALOG_INTERACTION
211: 0x0AB8 [0x01] GOTO 0x0B6A
212: 0x0ABB [0x02] IF !(Work_Zone[4] == 20*) GOTO 0x0ADE
213: 0x0AC3 [0x03] Work_Zone[5] = 1818*
214: 0x0AC8 [0x03] Work_Zone[6] = 5*
215: 0x0ACD [0x03] Work_Zone[7] = 1783*
216: 0x0AD2 [0x03] Work_Zone[8] = 5*
217: 0x0AD7 [0x1D] PRINT_EVENT_MESSAGE(message_id=11481*)
    → "Like $4 $0$3 and $6 $0$5 !"
218: 0x0ADA [0x23] WAIT_FOR_DIALOG_INTERACTION
219: 0x0ADB [0x01] GOTO 0x0B6A
220: 0x0ADE [0x02] IF !(Work_Zone[4] == 21*) GOTO 0x0B01
221: 0x0AE6 [0x03] Work_Zone[5] = 1818*
222: 0x0AEB [0x03] Work_Zone[6] = 5*
223: 0x0AF0 [0x03] Work_Zone[7] = 1783*
224: 0x0AF5 [0x03] Work_Zone[8] = 5*
225: 0x0AFA [0x1D] PRINT_EVENT_MESSAGE(message_id=11481*)
    → "Like $4 $0$3 and $6 $0$5 !"
226: 0x0AFD [0x23] WAIT_FOR_DIALOG_INTERACTION
227: 0x0AFE [0x01] GOTO 0x0B6A
228: 0x0B01 [0x02] IF !(Work_Zone[4] == 22*) GOTO 0x0B24
229: 0x0B09 [0x03] Work_Zone[5] = 1818*
230: 0x0B0E [0x03] Work_Zone[6] = 5*
231: 0x0B13 [0x03] Work_Zone[7] = 1783*
232: 0x0B18 [0x03] Work_Zone[8] = 5*
233: 0x0B1D [0x1D] PRINT_EVENT_MESSAGE(message_id=11481*)
    → "Like $4 $0$3 and $6 $0$5 !"
234: 0x0B20 [0x23] WAIT_FOR_DIALOG_INTERACTION
235: 0x0B21 [0x01] GOTO 0x0B6A
236: 0x0B24 [0x02] IF !(Work_Zone[4] == 23*) GOTO 0x0B47
237: 0x0B2C [0x03] Work_Zone[5] = 1818*
238: 0x0B31 [0x03] Work_Zone[6] = 5*
239: 0x0B36 [0x03] Work_Zone[7] = 1783*
240: 0x0B3B [0x03] Work_Zone[8] = 5*
241: 0x0B40 [0x1D] PRINT_EVENT_MESSAGE(message_id=11481*)
    → "Like $4 $0$3 and $6 $0$5 !"
242: 0x0B43 [0x23] WAIT_FOR_DIALOG_INTERACTION
243: 0x0B44 [0x01] GOTO 0x0B6A
244: 0x0B47 [0x02] IF !(Work_Zone[4] == 24*) GOTO 0x0B6A
245: 0x0B4F [0x03] Work_Zone[5] = 1818*
246: 0x0B54 [0x03] Work_Zone[6] = 5*
247: 0x0B59 [0x03] Work_Zone[7] = 1783*
248: 0x0B5E [0x03] Work_Zone[8] = 5*
249: 0x0B63 [0x1D] PRINT_EVENT_MESSAGE(message_id=11481*)
    → "Like $4 $0$3 and $6 $0$5 !"
250: 0x0B66 [0x23] WAIT_FOR_DIALOG_INTERACTION
251: 0x0B67 [0x01] GOTO 0x0B6A

SUBROUTINE_0B6A:
252: 0x0B6A [0x1D] PRINT_EVENT_MESSAGE(message_id=11484*)
    → "Ah, only a master could come up with this $0!"
253: 0x0B6D [0x23] WAIT_FOR_DIALOG_INTERACTION
254: 0x0B6E [0x21] END_EVENT
255: 0x0B6F [0x00] END_REQSTACK()
```

### Event 529

#### Metadata

| Field        | Value     |
|--------------|-----------|
| Entrypoint   | 0x0B70    |
| Data Size    | 313 bytes |
| Instructions | 64        |

```
      00 01 02 03 04 05 06 07  08 09 0A 0B 0C 0D 0E 0F
      -- -- -- -- -- -- -- --  -- -- -- -- -- -- -- --
0B70: 42 1E F0 FF FF 7F 6F 70  66 19 80 F8 FF FF 7F F8  B.....opf.......
0B80: FF FF 7F 74 6C 6B 30 1D  76 80 23 66 19 80 F8 FF  ...tlk0.v.#f....
0B90: FF 7F F8 FF FF 7F 74 6C  6B 31 1D 77 80 23 1C 78  ......tlk1.w.#.x
0BA0: 80 45 79 80 F8 FF FF 7F  F8 FF FF 7F 66 64 6F 30  .Ey.........fdo0
0BB0: 04 80 55 79 80 F8 FF FF  7F F8 FF FF 7F 66 64 6F  ..Uy.........fdo
0BC0: 30 1C 17 80 48 7A 80 23  48 7B 80 23 48 7C 80 23  0...Hz.#H{.#H|.#
0BD0: 13 00 00 03 80 02 00 00  04 80 80 E4 0B 1D 7D 80  ..............}.
0BE0: 23 01 02 0C 02 00 00 06  80 80 F3 0B 1D 7E 80 23  #............~.#
0BF0: 01 02 0C 02 00 00 03 80  80 02 0C 1D 7F 80 23 01  ..............#.
0C00: 02 0C 48 7C 80 23 48 7A  80 23 1C 78 80 45 79 80  ..H|.#Hz.#.x.Ey.
0C10: F8 FF FF 7F F8 FF FF 7F  66 64 69 30 04 80 55 79  ........fdi0..Uy
0C20: 80 F8 FF FF 7F F8 FF FF  7F 66 64 69 30 6E F8 FF  .........fdi0n..
0C30: FF 7F 48 80 99 F8 FF FF  7F 1D 80 80 23 66 19 80  ..H.........#f..
0C40: F8 FF FF 7F F8 FF FF 7F  74 6C 6B 30 1D 81 80 23  ........tlk0...#
0C50: 1D 82 80 23 1D 83 80 23  66 19 80 F8 FF FF 7F F8  ...#...#f.......
0C60: FF FF 7F 74 6C 6B 31 55  19 80 F8 FF FF 7F F8 FF  ...tlk1U........
0C70: FF 7F 74 6C 6B 31 6E F8  FF FF 7F 48 80 99 F8 FF  ..tlk1n....H....
0C80: FF 7F 1D 84 80 23 6E F8  FF FF 7F 43 80 99 F8 FF  .....#n....C....
0C90: FF 7F 1D 85 80 23 45 86  80 F8 FF FF 7F F8 FF FF  .....#E.........
0CA0: 7F 71 73 74 63 04 80 21  00                       .qstc..!.       
```

#### Opcodes

```
  0: 0x0B70 [0x42] SET_CLI_EVENT_CANCEL_DATA()
  1: 0x0B71 [0x1E] EventEntity looks at LocalPlayer and starts talking
  2: 0x0B76 [0x6F] WAIT_FRAME_DELAY: Yield until WaitTime reaches zero
  3: 0x0B77 [0x70] WAIT_ENTITY_RENDER_FLAG: Wait while EventEntity->Render.Flags3 bit 2 is set (cancel turn if not)
  4: 0x0B78 [0x66] LOAD_EXT_SCHEDULER_MAIN: Load scheduler "tlk0" with entities [EventEntity, EventEntity], work=19*
  5: 0x0B87 [0x1D] PRINT_EVENT_MESSAGE(message_id=11485*)
    → "This substance... Could this be...!?"
  6: 0x0B8A [0x23] WAIT_FOR_DIALOG_INTERACTION
  7: 0x0B8B [0x66] LOAD_EXT_SCHEDULER_MAIN: Load scheduler "tlk1" with entities [EventEntity, EventEntity], work=19*
  8: 0x0B9A [0x1D] PRINT_EVENT_MESSAGE(message_id=11486*)
    → "Ah, yes. The experiment. Let me begin right away!"
  9: 0x0B9D [0x23] WAIT_FOR_DIALOG_INTERACTION
 10: 0x0B9E [0x1C] WAIT(30* ticks)
 11: 0x0BA1 [0x45] LOAD_SCHEDULED_TASK: Load scheduler "fdo0" with entities [EventEntity, EventEntity], work=[200*, 0*]
 12: 0x0BB2 [0x55] WAIT_LOAD_SCHEDULER: Wait for scheduler "fdo0" with entities [EventEntity, EventEntity], work=200*
 13: 0x0BC1 [0x1C] WAIT(60* ticks)
 14: 0x0BC4 [0x48] [System] [11487*]:
    → "<Bubble...bubble...>"
 15: 0x0BC7 [0x23] WAIT_FOR_DIALOG_INTERACTION
 16: 0x0BC8 [0x48] [System] [11488*]:
    → "<Fizz......bubble...bubble...>"
 17: 0x0BCB [0x23] WAIT_FOR_DIALOG_INTERACTION
 18: 0x0BCC [0x48] [System] [11489*]:
    → ".................."
 19: 0x0BCF [0x23] WAIT_FOR_DIALOG_INTERACTION
 20: 0x0BD0 [0x13] ExtData[1]->WorkLocal[0] = rand() % 2*
 21: 0x0BD5 [0x02] IF !(ExtData[1]->WorkLocal[0] == 0*) GOTO 0x0BE4
 22: 0x0BDD [0x1D] PRINT_EVENT_MESSAGE(message_id=11490*)
    → "Wah! My eyes!"
 23: 0x0BE0 [0x23] WAIT_FOR_DIALOG_INTERACTION
 24: 0x0BE1 [0x01] GOTO 0x0C02
 25: 0x0BE4 [0x02] IF !(ExtData[1]->WorkLocal[0] == 1*) GOTO 0x0BF3
 26: 0x0BEC [0x1D] PRINT_EVENT_MESSAGE(message_id=11491*)
    → "Ah! My jacket!"
 27: 0x0BEF [0x23] WAIT_FOR_DIALOG_INTERACTION
 28: 0x0BF0 [0x01] GOTO 0x0C02
 29: 0x0BF3 [0x02] IF !(ExtData[1]->WorkLocal[0] == 2*) GOTO 0x0C02
 30: 0x0BFB [0x1D] PRINT_EVENT_MESSAGE(message_id=11492*)
    → "Ugh! The smell!"
 31: 0x0BFE [0x23] WAIT_FOR_DIALOG_INTERACTION
 32: 0x0BFF [0x01] GOTO 0x0C02

SUBROUTINE_0C02:
 33: 0x0C02 [0x48] [System] [11489*]:
    → ".................."
 34: 0x0C05 [0x23] WAIT_FOR_DIALOG_INTERACTION
 35: 0x0C06 [0x48] [System] [11487*]:
    → "<Bubble...bubble...>"
 36: 0x0C09 [0x23] WAIT_FOR_DIALOG_INTERACTION
 37: 0x0C0A [0x1C] WAIT(30* ticks)
 38: 0x0C0D [0x45] LOAD_SCHEDULED_TASK: Load scheduler "fdi0" with entities [EventEntity, EventEntity], work=[200*, 0*]
 39: 0x0C1E [0x55] WAIT_LOAD_SCHEDULER: Wait for scheduler "fdi0" with entities [EventEntity, EventEntity], work=200*
 40: 0x0C2D [0x6E] EventEntity uses emote 11*
 41: 0x0C34 [0x99] Wait for EventEntity animation to complete
 42: 0x0C39 [0x1D] PRINT_EVENT_MESSAGE(message_id=11493*)
    → "Wait... This reaction... Yes! It's exactly what my hypothesis predicted!"
 43: 0x0C3C [0x23] WAIT_FOR_DIALOG_INTERACTION
 44: 0x0C3D [0x66] LOAD_EXT_SCHEDULER_MAIN: Load scheduler "tlk0" with entities [EventEntity, EventEntity], work=19*
 45: 0x0C4C [0x1D] PRINT_EVENT_MESSAGE(message_id=11494*)
    → "The bonding of the hexochip's nanoplasmatic beta-quasiparticles with the polyfluorescent biomatter has resulted in the artificial generation of an exodermic layer of neoluminic residue on the armor. In other words, the power of the original item has been enhanced exponentially!"
 46: 0x0C4F [0x23] WAIT_FOR_DIALOG_INTERACTION
 47: 0x0C50 [0x1D] PRINT_EVENT_MESSAGE(message_id=11495*)
    → "Also, this data leads me to believe that different combinations of chips and items will result in objects differing from the one we produced today."
 48: 0x0C53 [0x23] WAIT_FOR_DIALOG_INTERACTION
 49: 0x0C54 [0x1D] PRINT_EVENT_MESSAGE(message_id=11496*)
    → "If you would like to take part in another experiment, bring a single colored chip and $0, $2, or $1."
 50: 0x0C57 [0x23] WAIT_FOR_DIALOG_INTERACTION
 51: 0x0C58 [0x66] LOAD_EXT_SCHEDULER_MAIN: Load scheduler "tlk1" with entities [EventEntity, EventEntity], work=19*
 52: 0x0C67 [0x55] WAIT_LOAD_SCHEDULER: Wait for scheduler "tlk1" with entities [EventEntity, EventEntity], work=19*
 53: 0x0C76 [0x6E] EventEntity uses emote 11*
 54: 0x0C7D [0x99] Wait for EventEntity animation to complete
 55: 0x0C82 [0x1D] PRINT_EVENT_MESSAGE(message_id=11497*)
    → "And if those Moblin peddlers don't show, I might need you to bring some more of the biolumin matter as well."
 56: 0x0C85 [0x23] WAIT_FOR_DIALOG_INTERACTION
 57: 0x0C86 [0x6E] EventEntity uses emote 8*
 58: 0x0C8D [0x99] Wait for EventEntity animation to complete
 59: 0x0C92 [0x1D] PRINT_EVENT_MESSAGE(message_id=11498*)
    → "Thank you again for all your assistance, and I hope I can work with you again in the future. You make a fine assistant!"
 60: 0x0C95 [0x23] WAIT_FOR_DIALOG_INTERACTION
 61: 0x0C96 [0x45] LOAD_SCHEDULED_TASK: Load scheduler "qstc" with entities [EventEntity, EventEntity], work=[201*, 0*]
 62: 0x0CA7 [0x21] END_EVENT
 63: 0x0CA8 [0x00] END_REQSTACK()
```

### Event 530

#### Metadata

| Field        | Value    |
|--------------|----------|
| Entrypoint   | 0x0CA9   |
| Data Size    | 15 bytes |
| Instructions | 7        |

```
      00 01 02 03 04 05 06 07  08 09 0A 0B 0C 0D 0E 0F
      -- -- -- -- -- -- -- --  -- -- -- -- -- -- -- --
0CA0:                             1E F0 FF FF 7F 1D 83           .......
0CB0: 80 23 1D 84 80 23 21 00                           .#...#!.        
```

#### Opcodes

```
  0: 0x0CA9 [0x1E] EventEntity looks at LocalPlayer and starts talking
  1: 0x0CAE [0x1D] PRINT_EVENT_MESSAGE(message_id=11496*)
    → "If you would like to take part in another experiment, bring a single colored chip and $0, $2, or $1."
  2: 0x0CB1 [0x23] WAIT_FOR_DIALOG_INTERACTION
  3: 0x0CB2 [0x1D] PRINT_EVENT_MESSAGE(message_id=11497*)
    → "And if those Moblin peddlers don't show, I might need you to bring some more of the biolumin matter as well."
  4: 0x0CB5 [0x23] WAIT_FOR_DIALOG_INTERACTION
  5: 0x0CB6 [0x21] END_EVENT
  6: 0x0CB7 [0x00] END_REQSTACK()
```

### Event 532

#### Metadata

| Field        | Value     |
|--------------|-----------|
| Entrypoint   | 0x0CB8    |
| Data Size    | 536 bytes |
| Instructions | 108       |

```
      00 01 02 03 04 05 06 07  08 09 0A 0B 0C 0D 0E 0F
      -- -- -- -- -- -- -- --  -- -- -- -- -- -- -- --
0CB0:                          42 1E F0 FF FF 7F 02 02          B.......
0CC0: 10 06 80 80 D3 0C 03 02  10 37 80 03 03 10 38 80  .........7....8.
0CD0: 01 B6 0E 02 02 10 03 80  80 E8 0C 03 02 10 37 80  ..............7.
0CE0: 03 03 10 39 80 01 B6 0E  02 02 10 3A 80 80 FD 0C  ...9.......:....
0CF0: 03 02 10 37 80 03 03 10  3B 80 01 B6 0E 02 02 10  ...7....;.......
0D00: 3C 80 80 12 0D 03 02 10  37 80 03 03 10 3D 80 01  <.......7....=..
0D10: B6 0E 02 02 10 3E 80 80  27 0D 03 02 10 37 80 03  .....>..'....7..
0D20: 03 10 3F 80 01 B6 0E 02  02 10 27 80 80 3C 0D 03  ..?.......'..<..
0D30: 02 10 37 80 03 03 10 40  80 01 B6 0E 02 02 10 41  ..7....@.......A
0D40: 80 80 51 0D 03 02 10 37  80 03 03 10 42 80 01 B6  ..Q....7....B...
0D50: 0E 02 02 10 43 80 80 66  0D 03 02 10 37 80 03 03  ....C..f....7...
0D60: 10 44 80 01 B6 0E 02 02  10 45 80 80 7B 0D 03 02  .D.......E..{...
0D70: 10 46 80 03 03 10 38 80  01 B6 0E 02 02 10 47 80  .F....8.......G.
0D80: 80 90 0D 03 02 10 46 80  03 03 10 39 80 01 B6 0E  ......F....9....
0D90: 02 02 10 48 80 80 A5 0D  03 02 10 46 80 03 03 10  ...H.......F....
0DA0: 3B 80 01 B6 0E 02 02 10  49 80 80 BA 0D 03 02 10  ;.......I.......
0DB0: 46 80 03 03 10 3D 80 01  B6 0E 02 02 10 4A 80 80  F....=.......J..
0DC0: CF 0D 03 02 10 46 80 03  03 10 3F 80 01 B6 0E 02  .....F....?.....
0DD0: 02 10 4B 80 80 E4 0D 03  02 10 46 80 03 03 10 40  ..K.......F....@
0DE0: 80 01 B6 0E 02 02 10 4C  80 80 F9 0D 03 02 10 46  .......L.......F
0DF0: 80 03 03 10 42 80 01 B6  0E 02 02 10 4D 80 80 0E  ....B.......M...
0E00: 0E 03 02 10 46 80 03 03  10 44 80 01 B6 0E 02 02  ....F....D......
0E10: 10 4E 80 80 23 0E 03 02  10 4F 80 03 03 10 38 80  .N..#....O....8.
0E20: 01 B6 0E 02 02 10 23 80  80 38 0E 03 02 10 4F 80  ......#..8....O.
0E30: 03 03 10 39 80 01 B6 0E  02 02 10 19 80 80 4D 0E  ...9..........M.
0E40: 03 02 10 4F 80 03 03 10  3B 80 01 B6 0E 02 02 10  ...O....;.......
0E50: 18 80 80 62 0E 03 02 10  4F 80 03 03 10 3D 80 01  ...b....O....=..
0E60: B6 0E 02 02 10 50 80 80  77 0E 03 02 10 4F 80 03  .....P..w....O..
0E70: 03 10 3F 80 01 B6 0E 02  02 10 51 80 80 8C 0E 03  ..?.......Q.....
0E80: 02 10 4F 80 03 03 10 40  80 01 B6 0E 02 02 10 52  ..O....@.......R
0E90: 80 80 A1 0E 03 02 10 4F  80 03 03 10 42 80 01 B6  .......O....B...
0EA0: 0E 02 02 10 53 80 80 B6  0E 03 02 10 4F 80 03 03  ....S.......O...
0EB0: 10 44 80 01 B6 0E 1D 87  80 23 1D 88 80 23 6E F8  .D.......#...#n.
0EC0: FF FF 7F 3E 80 99 F8 FF  FF 7F 1D 89 80 23 21 00  ...>.........#!.
```

#### Opcodes

```
  0: 0x0CB8 [0x42] SET_CLI_EVENT_CANCEL_DATA()
  1: 0x0CB9 [0x1E] EventEntity looks at LocalPlayer and starts talking
  2: 0x0CBE [0x02] IF !(Work_Zone[2] == 1*) GOTO 0x0CD3
  3: 0x0CC6 [0x03] Work_Zone[2] = 13205*
  4: 0x0CCB [0x03] Work_Zone[3] = 474*
  5: 0x0CD0 [0x01] GOTO 0x0EB6
  6: 0x0CD3 [0x02] IF !(Work_Zone[2] == 2*) GOTO 0x0CE8
  7: 0x0CDB [0x03] Work_Zone[2] = 13205*
  8: 0x0CE0 [0x03] Work_Zone[3] = 478*
  9: 0x0CE5 [0x01] GOTO 0x0EB6
 10: 0x0CE8 [0x02] IF !(Work_Zone[2] == 3*) GOTO 0x0CFD
 11: 0x0CF0 [0x03] Work_Zone[2] = 13205*
 12: 0x0CF5 [0x03] Work_Zone[3] = 477*
 13: 0x0CFA [0x01] GOTO 0x0EB6
 14: 0x0CFD [0x02] IF !(Work_Zone[2] == 4*) GOTO 0x0D12
 15: 0x0D05 [0x03] Work_Zone[2] = 13205*
 16: 0x0D0A [0x03] Work_Zone[3] = 476*
 17: 0x0D0F [0x01] GOTO 0x0EB6
 18: 0x0D12 [0x02] IF !(Work_Zone[2] == 5*) GOTO 0x0D27
 19: 0x0D1A [0x03] Work_Zone[2] = 13205*
 20: 0x0D1F [0x03] Work_Zone[3] = 479*
 21: 0x0D24 [0x01] GOTO 0x0EB6
 22: 0x0D27 [0x02] IF !(Work_Zone[2] == 6*) GOTO 0x0D3C
 23: 0x0D2F [0x03] Work_Zone[2] = 13205*
 24: 0x0D34 [0x03] Work_Zone[3] = 475*
 25: 0x0D39 [0x01] GOTO 0x0EB6
 26: 0x0D3C [0x02] IF !(Work_Zone[2] == 7*) GOTO 0x0D51
 27: 0x0D44 [0x03] Work_Zone[2] = 13205*
 28: 0x0D49 [0x03] Work_Zone[3] = 480*
 29: 0x0D4E [0x01] GOTO 0x0EB6
 30: 0x0D51 [0x02] IF !(Work_Zone[2] == 8*) GOTO 0x0D66
 31: 0x0D59 [0x03] Work_Zone[2] = 13205*
 32: 0x0D5E [0x03] Work_Zone[3] = 481*
 33: 0x0D63 [0x01] GOTO 0x0EB6
 34: 0x0D66 [0x02] IF !(Work_Zone[2] == 9*) GOTO 0x0D7B
 35: 0x0D6E [0x03] Work_Zone[2] = 13080*
 36: 0x0D73 [0x03] Work_Zone[3] = 474*
 37: 0x0D78 [0x01] GOTO 0x0EB6
 38: 0x0D7B [0x02] IF !(Work_Zone[2] == 10*) GOTO 0x0D90
 39: 0x0D83 [0x03] Work_Zone[2] = 13080*
 40: 0x0D88 [0x03] Work_Zone[3] = 478*
 41: 0x0D8D [0x01] GOTO 0x0EB6
 42: 0x0D90 [0x02] IF !(Work_Zone[2] == 11*) GOTO 0x0DA5
 43: 0x0D98 [0x03] Work_Zone[2] = 13080*
 44: 0x0D9D [0x03] Work_Zone[3] = 477*
 45: 0x0DA2 [0x01] GOTO 0x0EB6
 46: 0x0DA5 [0x02] IF !(Work_Zone[2] == 12*) GOTO 0x0DBA
 47: 0x0DAD [0x03] Work_Zone[2] = 13080*
 48: 0x0DB2 [0x03] Work_Zone[3] = 476*
 49: 0x0DB7 [0x01] GOTO 0x0EB6
 50: 0x0DBA [0x02] IF !(Work_Zone[2] == 13*) GOTO 0x0DCF
 51: 0x0DC2 [0x03] Work_Zone[2] = 13080*
 52: 0x0DC7 [0x03] Work_Zone[3] = 479*
 53: 0x0DCC [0x01] GOTO 0x0EB6
 54: 0x0DCF [0x02] IF !(Work_Zone[2] == 14*) GOTO 0x0DE4
 55: 0x0DD7 [0x03] Work_Zone[2] = 13080*
 56: 0x0DDC [0x03] Work_Zone[3] = 475*
 57: 0x0DE1 [0x01] GOTO 0x0EB6
 58: 0x0DE4 [0x02] IF !(Work_Zone[2] == 15*) GOTO 0x0DF9
 59: 0x0DEC [0x03] Work_Zone[2] = 13080*
 60: 0x0DF1 [0x03] Work_Zone[3] = 480*
 61: 0x0DF6 [0x01] GOTO 0x0EB6
 62: 0x0DF9 [0x02] IF !(Work_Zone[2] == 16*) GOTO 0x0E0E
 63: 0x0E01 [0x03] Work_Zone[2] = 13080*
 64: 0x0E06 [0x03] Work_Zone[3] = 481*
 65: 0x0E0B [0x01] GOTO 0x0EB6
 66: 0x0E0E [0x02] IF !(Work_Zone[2] == 17*) GOTO 0x0E23
 67: 0x0E16 [0x03] Work_Zone[2] = 13327*
 68: 0x0E1B [0x03] Work_Zone[3] = 474*
 69: 0x0E20 [0x01] GOTO 0x0EB6
 70: 0x0E23 [0x02] IF !(Work_Zone[2] == 18*) GOTO 0x0E38
 71: 0x0E2B [0x03] Work_Zone[2] = 13327*
 72: 0x0E30 [0x03] Work_Zone[3] = 478*
 73: 0x0E35 [0x01] GOTO 0x0EB6
 74: 0x0E38 [0x02] IF !(Work_Zone[2] == 19*) GOTO 0x0E4D
 75: 0x0E40 [0x03] Work_Zone[2] = 13327*
 76: 0x0E45 [0x03] Work_Zone[3] = 477*
 77: 0x0E4A [0x01] GOTO 0x0EB6
 78: 0x0E4D [0x02] IF !(Work_Zone[2] == 20*) GOTO 0x0E62
 79: 0x0E55 [0x03] Work_Zone[2] = 13327*
 80: 0x0E5A [0x03] Work_Zone[3] = 476*
 81: 0x0E5F [0x01] GOTO 0x0EB6
 82: 0x0E62 [0x02] IF !(Work_Zone[2] == 21*) GOTO 0x0E77
 83: 0x0E6A [0x03] Work_Zone[2] = 13327*
 84: 0x0E6F [0x03] Work_Zone[3] = 479*
 85: 0x0E74 [0x01] GOTO 0x0EB6
 86: 0x0E77 [0x02] IF !(Work_Zone[2] == 22*) GOTO 0x0E8C
 87: 0x0E7F [0x03] Work_Zone[2] = 13327*
 88: 0x0E84 [0x03] Work_Zone[3] = 475*
 89: 0x0E89 [0x01] GOTO 0x0EB6
 90: 0x0E8C [0x02] IF !(Work_Zone[2] == 23*) GOTO 0x0EA1
 91: 0x0E94 [0x03] Work_Zone[2] = 13327*
 92: 0x0E99 [0x03] Work_Zone[3] = 480*
 93: 0x0E9E [0x01] GOTO 0x0EB6
 94: 0x0EA1 [0x02] IF !(Work_Zone[2] == 24*) GOTO 0x0EB6
 95: 0x0EA9 [0x03] Work_Zone[2] = 13327*
 96: 0x0EAE [0x03] Work_Zone[3] = 481*
 97: 0x0EB3 [0x01] GOTO 0x0EB6

SUBROUTINE_0EB6:
 98: 0x0EB6 [0x1D] PRINT_EVENT_MESSAGE(message_id=11499*)
    → "Ah, I see that this time you've brought me $0 and $1."
 99: 0x0EB9 [0x23] WAIT_FOR_DIALOG_INTERACTION
100: 0x0EBA [0x1D] PRINT_EVENT_MESSAGE(message_id=11500*)
    → "Now all we need is a few samples of biolumin matter."
101: 0x0EBD [0x23] WAIT_FOR_DIALOG_INTERACTION
102: 0x0EBE [0x6E] EventEntity uses emote 5*
103: 0x0EC5 [0x99] Wait for EventEntity animation to complete
104: 0x0ECA [0x1D] PRINT_EVENT_MESSAGE(message_id=11501*)
    → "The Moblin peddlers? No, I'm sorry to say that they still haven't shown. I'm beginning to wonder if they ever will..."
105: 0x0ECD [0x23] WAIT_FOR_DIALOG_INTERACTION
106: 0x0ECE [0x21] END_EVENT
107: 0x0ECF [0x00] END_REQSTACK()
```
