# 16883724 - Chemioue

## Common Data

| Field            | Value                       |
|------------------|-----------------------------|
| Zone             | Tavnazian Safehold (ID: 26) |
| Block Size       | 1240 bytes                  |
| Total Events     | 42                          |
| References Count | 86                          |

## List of Events

| Event ID                   | Entrypoint   |   Size |   Instructions |
|----------------------------|--------------|--------|----------------|
| [65535](#event-65535)      | 0x0000       |      1 |              1 |
| [107](#event-107)          | 0x0001       |      7 |              2 |
| [65535.1](#event-655351)   | 0x0008       |     22 |              4 |
| [280](#event-280)          | 0x001E       |     30 |              8 |
| [281](#event-281)          | 0x003C       |     53 |             13 |
| [282](#event-282)          | 0x0071       |     30 |              8 |
| [283](#event-283)          | 0x008F       |     49 |             11 |
| [284](#event-284)          | 0x00C0       |     11 |              5 |
| [512](#event-512)          | 0x00CB       |      1 |              1 |
| [65535.2](#event-655352)   | 0x00CC       |     16 |              4 |
| [65535.3](#event-655353)   | 0x00DC       |     19 |              5 |
| [513](#event-513)          | 0x00EF       |      1 |              1 |
| [65535.4](#event-655354)   | 0x00F0       |     28 |              6 |
| [65535.5](#event-655355)   | 0x010C       |     19 |              5 |
| [516](#event-516)          | 0x011F       |      1 |              1 |
| [65535.6](#event-655356)   | 0x0120       |     23 |              5 |
| [65535.7](#event-655357)   | 0x0137       |     27 |              5 |
| [65535.8](#event-655358)   | 0x0152       |     15 |              3 |
| [65535.9](#event-655359)   | 0x0161       |     23 |              5 |
| [65535.10](#event-6553510) | 0x0178       |     15 |              3 |
| [65535.11](#event-6553511) | 0x0187       |     15 |              3 |
| [536](#event-536)          | 0x0196       |      1 |              1 |
| [65535.12](#event-6553512) | 0x0197       |     14 |              4 |
| [544](#event-544)          | 0x01A5       |      1 |              1 |
| [65535.13](#event-6553513) | 0x01A6       |     16 |              5 |
| [547](#event-547)          | 0x01B6       |     13 |              7 |
| [548](#event-548)          | 0x01C3       |      1 |              1 |
| [549](#event-549)          | 0x01C4       |      1 |              1 |
| [557](#event-557)          | 0x01C5       |      1 |              1 |
| [65535.14](#event-6553514) | 0x01C6       |     14 |              4 |
| [568](#event-568)          | 0x01D4       |      1 |              1 |
| [569](#event-569)          | 0x01D5       |      1 |              1 |
| [561](#event-561)          | 0x01D6       |    150 |             31 |
| [565](#event-565)          | 0x026C       |      1 |              1 |
| [567](#event-567)          | 0x026D       |      1 |              1 |
| [558](#event-558)          | 0x026E       |      1 |              1 |
| [65535.15](#event-6553515) | 0x026F       |     10 |              2 |
| [65535.16](#event-6553516) | 0x0279       |     14 |              4 |
| [564](#event-564)          | 0x0287       |     13 |              7 |
| [581](#event-581)          | 0x0294       |     46 |             10 |
| [65535.17](#event-6553517) | 0x02C2       |      4 |              2 |
| [65535.18](#event-6553518) | 0x02C6       |      2 |              2 |

## DAT References (imed_data)

|   Index | Hex Value   |   Dec Value |
|---------|-------------|-------------|
|       0 | 0x1319      |        4889 |
|       1 | 0xFFFFF290  |  4294963856 |
|       2 | 0xFFFFDCE3  |  4294958307 |
|       3 | 0x0873      |        2163 |
|       4 | 0x2AEB      |       10987 |
|       5 | 0x001E      |          30 |
|       6 | 0x2AEC      |       10988 |
|       7 | 0x2AED      |       10989 |
|       8 | 0x0021      |          33 |
|       9 | 0x2AEE      |       10990 |
|      10 | 0x2AEF      |       10991 |
|      11 | 0x2AF0      |       10992 |
|      12 | 0x2AF1      |       10993 |
|      13 | 0x2AF2      |       10994 |
|      14 | 0x2AF3      |       10995 |
|      15 | 0x2AF4      |       10996 |
|      16 | 0x2AF5      |       10997 |
|      17 | 0x2AF6      |       10998 |
|      18 | 0x1404E     |       81998 |
|      19 | 0x104B0     |       66736 |
|      20 | 0xFFFF7B54  |  4294933332 |
|      21 | 0x144F7     |       83191 |
|      22 | 0x1206C     |       73836 |
|      23 | 0xFFFF7AE4  |  4294933220 |
|      24 | 0x1B0D3     |      110803 |
|      25 | 0x8D0A      |       36106 |
|      26 | 0xFFFF600D  |  4294926349 |
|      27 | 0x06D9      |        1753 |
|      28 | 0x000D      |          13 |
|      29 | 0x1BC90     |      113808 |
|      30 | 0xA268      |       41576 |
|      31 | 0xFFFF5FD9  |  4294926297 |
|      32 | 0x0028      |          40 |
|      33 | 0x17960     |       96608 |
|      34 | 0xD540      |       54592 |
|      35 | 0xFFFFFEF3  |  4294967027 |
|      36 | 0x12457     |       74839 |
|      37 | 0xFFFF9C69  |  4294941801 |
|      38 | 0x03CA      |         970 |
|      39 | 0xFFFFFFA1  |  4294967201 |
|      40 | 0xC665      |       50789 |
|      41 | 0xFFFFA036  |  4294942774 |
|      42 | 0x18A30     |      100912 |
|      43 | 0xA0F3      |       41203 |
|      44 | 0xFFFF5FD8  |  4294926296 |
|      45 | 0x0CED      |        3309 |
|      46 | 0x199FE     |      104958 |
|      47 | 0xAEB6      |       44726 |
|      48 | 0xFFFF5FC8  |  4294926280 |
|      49 | 0x0E48      |        3656 |
|      50 | 0x1A3E8     |      107496 |
|      51 | 0xAF4E      |       44878 |
|      52 | 0xFFFF5F7C  |  4294926204 |
|      53 | 0x0DE9      |        3561 |
|      54 | 0x189F6     |      100854 |
|      55 | 0x943B      |       37947 |
|      56 | 0xFFFF601C  |  4294926364 |
|      57 | 0x14079     |       82041 |
|      58 | 0x10834     |       67636 |
|      59 | 0x0954      |        2388 |
|      60 | 0x0DE2      |        3554 |
|      61 | 0x156FA     |       87802 |
|      62 | 0xF851      |       63569 |
|      63 | 0xFFFF7C01  |  4294933505 |
|      64 | 0x14148     |       82248 |
|      65 | 0x10418     |       66584 |
|      66 | 0xFFFF7B58  |  4294933336 |
|      67 | 0x2D9A      |       11674 |
|      68 | 0x1482A     |       84010 |
|      69 | 0x10E77     |       69239 |
|      70 | 0xFFFF7B61  |  4294933345 |
|      71 | 0x2DE0      |       11744 |
|      72 | 0x0000      |           0 |
|      73 | 0x0001      |           1 |
|      74 | 0x0002      |           2 |
|      75 | 0x2DE1      |       11745 |
|      76 | 0x04BD      |        1213 |
|      77 | 0x2FB0      |       12208 |
|      78 | 0xFFFFA94A  |  4294945098 |
|      79 | 0x04CC      |        1228 |
|      80 | 0xFFFFFE7A  |  4294966906 |
|      81 | 0x2183      |        8579 |
|      82 | 0xFFFFA9BF  |  4294945215 |
|      83 | 0x2E12      |       11794 |
|      84 | 0x2DF1      |       11761 |
|      85 | 0x003C      |          60 |

## String References

- **10987**: There is a young girl living here who the elders all refer to as "the abhorrent one."
- **10988**: Oh, do not worry. You will know her when you see her.
- **10989**: Everyone in the safehold always follows what Prishe says. Am I the only one who feels that this is even the slightest bit odd?
- **10990**: Sir Justinius is the captain of the Tavnazian Patrol. He should have authority over all affairs concerning the city.
- **10991**: However, when it comes to making any sort of decision, all the men run off to that despicable little girl.
- **10992**: Ah, please do not tell anyone what I just told you. If Tressia or Mengrenaux were to find out, my rations would be cut in half for a week...
- **10993**: You see, I told you Prishe was a terrible child.
- **10994**: I can assure you that there will be more problems to come as long as she remains in the safehold!
- **10995**: A battle with the wyrms... I knew that Prishe would bring misfortune to our peaceful city...
- **10996**: However, I have a feeling that you and our lea--and that dastardly child will be victorious in your efforts.
- **10997**: Of course I despise her, but I cannot deny that she is the strongest woman I have ever met.
- **10998**: Prishe survived the battle, did she not!? Eh? Me, worry about "the abhorrent one"? Do not be absurd...
- **11674**: Collecting information is the next step, is it not? I do not know if I can be of help, but I will do what I can!
- **11744**: Take a look at my reports? [Report 3./Report 4./Not interested.]
- **11745**: Okay, I will leave it to you, then!
- **11761**: They must have been up to some mischief in the tributary. I have a feeling that knowing their doings would be rather significant to our investigation.
- **11794**: Maybe I was a little too sharp with Wazozo...

## Events

### Event 65535

#### Metadata

| Field        | Value   |
|--------------|---------|
| Entrypoint   | 0x0000  |
| Data Size    | 1 bytes |
| Instructions | 1       |

```
      00 01 02 03 04 05 06 07  08 09 0A 0B 0C 0D 0E 0F
      -- -- -- -- -- -- -- --  -- -- -- -- -- -- -- --
0000: 00                                                .               
```

#### Opcodes

```
  0: 0x0000 [0x00] END_REQSTACK()
```

### Event 107

#### Metadata

| Field        | Value   |
|--------------|---------|
| Entrypoint   | 0x0001  |
| Data Size    | 7 bytes |
| Instructions | 2       |

```
      00 01 02 03 04 05 06 07  08 09 0A 0B 0C 0D 0E 0F
      -- -- -- -- -- -- -- --  -- -- -- -- -- -- -- --
0000:    92 01 F8 FF FF 7F 00                            .......        
```

#### Opcodes

```
  0: 0x0001 [0x92] EventEntity->Render.Flags3 ^= 0x01
  1: 0x0007 [0x00] END_REQSTACK()
```

### Event 65535.1

#### Metadata

| Field        | Value    |
|--------------|----------|
| Entrypoint   | 0x0008   |
| Data Size    | 22 bytes |
| Instructions | 4        |

```
      00 01 02 03 04 05 06 07  08 09 0A 0B 0C 0D 0E 0F
      -- -- -- -- -- -- -- --  -- -- -- -- -- -- -- --
0000:                          22 00 79 00 F8 FF FF 7F          ".y.....
0010: 04 A0 01 01 37 00 80 01  80 02 80 03 80 00        ....7.........  
```

#### Opcodes

```
  0: 0x0008 [0x22] ENTITY_HIDE_FLAG(enabled=0x00)
  1: 0x000A [0x79] EventEntity looks at Prishe (ID: 16883716/0x0101A004) (Basic look)
  2: 0x0014 [0x37] UPDATE_EVENT_POSITION_AND_DIR: x=4.889*, z=-3.440*, y=-8.989*, direction=190.1°*
  3: 0x001D [0x00] END_REQSTACK()
```

### Event 280

#### Metadata

| Field        | Value    |
|--------------|----------|
| Entrypoint   | 0x001E   |
| Data Size    | 30 bytes |
| Instructions | 8        |

```
      00 01 02 03 04 05 06 07  08 09 0A 0B 0C 0D 0E 0F
      -- -- -- -- -- -- -- --  -- -- -- -- -- -- -- --
0010:                                            1E F0                ..
0020: FF FF 7F 1D 04 80 23 66  05 80 F8 FF FF 7F F8 FF  ......#f........
0030: FF 7F 74 6C 6B 30 1D 06  80 23 21 00              ..tlk0...#!.    
```

#### Opcodes

```
  0: 0x001E [0x1E] EventEntity looks at LocalPlayer and starts talking
  1: 0x0023 [0x1D] PRINT_EVENT_MESSAGE(message_id=10987*)
    → "There is a young girl living here who the elders all refer to as "the abhorrent one.""
  2: 0x0026 [0x23] WAIT_FOR_DIALOG_INTERACTION
  3: 0x0027 [0x66] LOAD_EXT_SCHEDULER_MAIN: Load scheduler "tlk0" with entities [EventEntity, EventEntity], work=30*
  4: 0x0036 [0x1D] PRINT_EVENT_MESSAGE(message_id=10988*)
    → "Oh, do not worry. You will know her when you see her."
  5: 0x0039 [0x23] WAIT_FOR_DIALOG_INTERACTION
  6: 0x003A [0x21] END_EVENT
  7: 0x003B [0x00] END_REQSTACK()
```

### Event 281

#### Metadata

| Field        | Value    |
|--------------|----------|
| Entrypoint   | 0x003C   |
| Data Size    | 53 bytes |
| Instructions | 13       |

```
      00 01 02 03 04 05 06 07  08 09 0A 0B 0C 0D 0E 0F
      -- -- -- -- -- -- -- --  -- -- -- -- -- -- -- --
0030:                                      1E F0 FF FF              ....
0040: 7F 1D 07 80 23 66 08 80  F8 FF FF 7F F8 FF FF 7F  ....#f..........
0050: 74 6C 62 30 1D 09 80 23  1D 0A 80 23 66 08 80 F8  tlb0...#...#f...
0060: FF FF 7F F8 FF FF 7F 74  6C 62 30 1D 0B 80 23 21  .......tlb0...#!
0070: 00                                                .               
```

#### Opcodes

```
  0: 0x003C [0x1E] EventEntity looks at LocalPlayer and starts talking
  1: 0x0041 [0x1D] PRINT_EVENT_MESSAGE(message_id=10989*)
    → "Everyone in the safehold always follows what Prishe says. Am I the only one who feels that this is even the slightest bit odd?"
  2: 0x0044 [0x23] WAIT_FOR_DIALOG_INTERACTION
  3: 0x0045 [0x66] LOAD_EXT_SCHEDULER_MAIN: Load scheduler "tlb0" with entities [EventEntity, EventEntity], work=33*
  4: 0x0054 [0x1D] PRINT_EVENT_MESSAGE(message_id=10990*)
    → "Sir Justinius is the captain of the Tavnazian Patrol. He should have authority over all affairs concerning the city."
  5: 0x0057 [0x23] WAIT_FOR_DIALOG_INTERACTION
  6: 0x0058 [0x1D] PRINT_EVENT_MESSAGE(message_id=10991*)
    → "However, when it comes to making any sort of decision, all the men run off to that despicable little girl."
  7: 0x005B [0x23] WAIT_FOR_DIALOG_INTERACTION
  8: 0x005C [0x66] LOAD_EXT_SCHEDULER_MAIN: Load scheduler "tlb0" with entities [EventEntity, EventEntity], work=33*
  9: 0x006B [0x1D] PRINT_EVENT_MESSAGE(message_id=10992*)
    → "Ah, please do not tell anyone what I just told you. If Tressia or Mengrenaux were to find out, my rations would be cut in half for a week..."
 10: 0x006E [0x23] WAIT_FOR_DIALOG_INTERACTION
 11: 0x006F [0x21] END_EVENT
 12: 0x0070 [0x00] END_REQSTACK()
```

### Event 282

#### Metadata

| Field        | Value    |
|--------------|----------|
| Entrypoint   | 0x0071   |
| Data Size    | 30 bytes |
| Instructions | 8        |

```
      00 01 02 03 04 05 06 07  08 09 0A 0B 0C 0D 0E 0F
      -- -- -- -- -- -- -- --  -- -- -- -- -- -- -- --
0070:    1E F0 FF FF 7F 1D 0C  80 23 66 05 80 F8 FF FF   ........#f.....
0080: 7F F8 FF FF 7F 74 6C 6B  30 1D 0D 80 23 21 00     .....tlk0...#!. 
```

#### Opcodes

```
  0: 0x0071 [0x1E] EventEntity looks at LocalPlayer and starts talking
  1: 0x0076 [0x1D] PRINT_EVENT_MESSAGE(message_id=10993*)
    → "You see, I told you Prishe was a terrible child."
  2: 0x0079 [0x23] WAIT_FOR_DIALOG_INTERACTION
  3: 0x007A [0x66] LOAD_EXT_SCHEDULER_MAIN: Load scheduler "tlk0" with entities [EventEntity, EventEntity], work=30*
  4: 0x0089 [0x1D] PRINT_EVENT_MESSAGE(message_id=10994*)
    → "I can assure you that there will be more problems to come as long as she remains in the safehold!"
  5: 0x008C [0x23] WAIT_FOR_DIALOG_INTERACTION
  6: 0x008D [0x21] END_EVENT
  7: 0x008E [0x00] END_REQSTACK()
```

### Event 283

#### Metadata

| Field        | Value    |
|--------------|----------|
| Entrypoint   | 0x008F   |
| Data Size    | 49 bytes |
| Instructions | 11       |

```
      00 01 02 03 04 05 06 07  08 09 0A 0B 0C 0D 0E 0F
      -- -- -- -- -- -- -- --  -- -- -- -- -- -- -- --
0080:                                               1E                 .
0090: F0 FF FF 7F 1D 0E 80 23  66 08 80 F8 FF FF 7F F8  .......#f.......
00A0: FF FF 7F 74 6C 62 30 1D  0F 80 23 66 08 80 F8 FF  ...tlb0...#f....
00B0: FF 7F F8 FF FF 7F 74 6C  62 31 1D 10 80 23 21 00  ......tlb1...#!.
```

#### Opcodes

```
  0: 0x008F [0x1E] EventEntity looks at LocalPlayer and starts talking
  1: 0x0094 [0x1D] PRINT_EVENT_MESSAGE(message_id=10995*)
    → "A battle with the wyrms... I knew that Prishe would bring misfortune to our peaceful city..."
  2: 0x0097 [0x23] WAIT_FOR_DIALOG_INTERACTION
  3: 0x0098 [0x66] LOAD_EXT_SCHEDULER_MAIN: Load scheduler "tlb0" with entities [EventEntity, EventEntity], work=33*
  4: 0x00A7 [0x1D] PRINT_EVENT_MESSAGE(message_id=10996*)
    → "However, I have a feeling that you and our lea--and that dastardly child will be victorious in your efforts."
  5: 0x00AA [0x23] WAIT_FOR_DIALOG_INTERACTION
  6: 0x00AB [0x66] LOAD_EXT_SCHEDULER_MAIN: Load scheduler "tlb1" with entities [EventEntity, EventEntity], work=33*
  7: 0x00BA [0x1D] PRINT_EVENT_MESSAGE(message_id=10997*)
    → "Of course I despise her, but I cannot deny that she is the strongest woman I have ever met."
  8: 0x00BD [0x23] WAIT_FOR_DIALOG_INTERACTION
  9: 0x00BE [0x21] END_EVENT
 10: 0x00BF [0x00] END_REQSTACK()
```

### Event 284

#### Metadata

| Field        | Value    |
|--------------|----------|
| Entrypoint   | 0x00C0   |
| Data Size    | 11 bytes |
| Instructions | 5        |

```
      00 01 02 03 04 05 06 07  08 09 0A 0B 0C 0D 0E 0F
      -- -- -- -- -- -- -- --  -- -- -- -- -- -- -- --
00C0: 1E F0 FF FF 7F 1D 11 80  23 21 00                 ........#!.     
```

#### Opcodes

```
  0: 0x00C0 [0x1E] EventEntity looks at LocalPlayer and starts talking
  1: 0x00C5 [0x1D] PRINT_EVENT_MESSAGE(message_id=10998*)
    → "Prishe survived the battle, did she not!? Eh? Me, worry about "the abhorrent one"? Do not be absurd..."
  2: 0x00C8 [0x23] WAIT_FOR_DIALOG_INTERACTION
  3: 0x00C9 [0x21] END_EVENT
  4: 0x00CA [0x00] END_REQSTACK()
```

### Event 512

#### Metadata

| Field        | Value   |
|--------------|---------|
| Entrypoint   | 0x00CB  |
| Data Size    | 1 bytes |
| Instructions | 1       |

```
      00 01 02 03 04 05 06 07  08 09 0A 0B 0C 0D 0E 0F
      -- -- -- -- -- -- -- --  -- -- -- -- -- -- -- --
00C0:                                   00                         .    
```

#### Opcodes

```
  0: 0x00CB [0x00] END_REQSTACK()
```

### Event 65535.2

#### Metadata

| Field        | Value    |
|--------------|----------|
| Entrypoint   | 0x00CC   |
| Data Size    | 16 bytes |
| Instructions | 4        |

```
      00 01 02 03 04 05 06 07  08 09 0A 0B 0C 0D 0E 0F
      -- -- -- -- -- -- -- --  -- -- -- -- -- -- -- --
00C0:                                      1F 00 12 80              ....
00D0: 13 80 14 80 1F 01 1E 0A  A0 01 01 00              ............    
```

#### Opcodes

```
  0: 0x00CC [0x1F] MOVE_ENTITY: EventEntity moves to X=81.998*, Z=66.736*, Y=-33.964*
  1: 0x00D4 [0x1F] MOVE_ENTITY: Update entity position (mode=1)
  2: 0x00D6 [0x1E] EventEntity looks at Justinius (ID: 16883722/0x0101A00A) and starts talking
  3: 0x00DB [0x00] END_REQSTACK()
```

### Event 65535.3

#### Metadata

| Field        | Value    |
|--------------|----------|
| Entrypoint   | 0x00DC   |
| Data Size    | 19 bytes |
| Instructions | 5        |

```
      00 01 02 03 04 05 06 07  08 09 0A 0B 0C 0D 0E 0F
      -- -- -- -- -- -- -- --  -- -- -- -- -- -- -- --
00D0:                                      1E 44 A0 01              .D..
00E0: 01 1C 05 80 1F 00 15 80  16 80 17 80 1F 01 00     ............... 
```

#### Opcodes

```
  0: 0x00DC [0x1E] EventEntity looks at Elysia (ID: 16883780/0x0101A044) and starts talking
  1: 0x00E1 [0x1C] WAIT(30* ticks)
  2: 0x00E4 [0x1F] MOVE_ENTITY: EventEntity moves to X=83.191*, Z=73.836*, Y=-34.076*
  3: 0x00EC [0x1F] MOVE_ENTITY: Update entity position (mode=1)
  4: 0x00EE [0x00] END_REQSTACK()
```

### Event 513

#### Metadata

| Field        | Value   |
|--------------|---------|
| Entrypoint   | 0x00EF  |
| Data Size    | 1 bytes |
| Instructions | 1       |

```
      00 01 02 03 04 05 06 07  08 09 0A 0B 0C 0D 0E 0F
      -- -- -- -- -- -- -- --  -- -- -- -- -- -- -- --
00E0:                                               00                 .
```

#### Opcodes

```
  0: 0x00EF [0x00] END_REQSTACK()
```

### Event 65535.4

#### Metadata

| Field        | Value    |
|--------------|----------|
| Entrypoint   | 0x00F0   |
| Data Size    | 28 bytes |
| Instructions | 6        |

```
      00 01 02 03 04 05 06 07  08 09 0A 0B 0C 0D 0E 0F
      -- -- -- -- -- -- -- --  -- -- -- -- -- -- -- --
00F0: 37 18 80 19 80 1A 80 1B  80 1E 0E A0 01 01 32 1C  7.............2.
0100: 80 1F 00 1D 80 1E 80 1F  80 1F 01 00              ............    
```

#### Opcodes

```
  0: 0x00F0 [0x37] UPDATE_EVENT_POSITION_AND_DIR: x=110.803*, z=36.106*, y=-40.947*, direction=154.1°*
  1: 0x00F9 [0x1E] EventEntity looks at Parelbriaux (ID: 16883726/0x0101A00E) and starts talking
  2: 0x00FE [0x32] ExtData[1]->MainSpeed = 13* * 0.1
  3: 0x0101 [0x1F] MOVE_ENTITY: EventEntity moves to X=113.808*, Z=41.576*, Y=-40.999*
  4: 0x0109 [0x1F] MOVE_ENTITY: Update entity position (mode=1)
  5: 0x010B [0x00] END_REQSTACK()
```

### Event 65535.5

#### Metadata

| Field        | Value    |
|--------------|----------|
| Entrypoint   | 0x010C   |
| Data Size    | 19 bytes |
| Instructions | 5        |

```
      00 01 02 03 04 05 06 07  08 09 0A 0B 0C 0D 0E 0F
      -- -- -- -- -- -- -- --  -- -- -- -- -- -- -- --
0100:                                      1E 63 A0 01              .c..
0110: 01 32 20 80 1F 00 21 80  22 80 1F 80 1F 01 00     .2 ...!."...... 
```

#### Opcodes

```
  0: 0x010C [0x1E] EventEntity looks at Guda (ID: 16883811/0x0101A063) and starts talking
  1: 0x0111 [0x32] ExtData[1]->MainSpeed = 40* * 0.1
  2: 0x0114 [0x1F] MOVE_ENTITY: EventEntity moves to X=96.608*, Z=54.592*, Y=-40.999*
  3: 0x011C [0x1F] MOVE_ENTITY: Update entity position (mode=1)
  4: 0x011E [0x00] END_REQSTACK()
```

### Event 516

#### Metadata

| Field        | Value   |
|--------------|---------|
| Entrypoint   | 0x011F  |
| Data Size    | 1 bytes |
| Instructions | 1       |

```
      00 01 02 03 04 05 06 07  08 09 0A 0B 0C 0D 0E 0F
      -- -- -- -- -- -- -- --  -- -- -- -- -- -- -- --
0110:                                               00                 .
```

#### Opcodes

```
  0: 0x011F [0x00] END_REQSTACK()
```

### Event 65535.6

#### Metadata

| Field        | Value    |
|--------------|----------|
| Entrypoint   | 0x0120   |
| Data Size    | 23 bytes |
| Instructions | 5        |

```
      00 01 02 03 04 05 06 07  08 09 0A 0B 0C 0D 0E 0F
      -- -- -- -- -- -- -- --  -- -- -- -- -- -- -- --
0120: 37 23 80 24 80 25 80 26  80 32 20 80 1F 00 27 80  7#.$.%.&.2 ...'.
0130: 28 80 29 80 1F 01 00                              (.)....         
```

#### Opcodes

```
  0: 0x0120 [0x37] UPDATE_EVENT_POSITION_AND_DIR: x=-0.269*, z=74.839*, y=-25.495*, direction=85.3°*
  1: 0x0129 [0x32] ExtData[1]->MainSpeed = 40* * 0.1
  2: 0x012C [0x1F] MOVE_ENTITY: EventEntity moves to X=-0.095*, Z=50.789*, Y=-24.522*
  3: 0x0134 [0x1F] MOVE_ENTITY: Update entity position (mode=1)
  4: 0x0136 [0x00] END_REQSTACK()
```

### Event 65535.7

#### Metadata

| Field        | Value    |
|--------------|----------|
| Entrypoint   | 0x0137   |
| Data Size    | 27 bytes |
| Instructions | 5        |

```
      00 01 02 03 04 05 06 07  08 09 0A 0B 0C 0D 0E 0F
      -- -- -- -- -- -- -- --  -- -- -- -- -- -- -- --
0130:                      37  2A 80 2B 80 2C 80 2D 80         7*.+.,.-.
0140: 32 20 80 37 2E 80 2F 80  30 80 31 80 1E 0E A0 01  2 .7../.0.1.....
0150: 01 00                                             ..              
```

#### Opcodes

```
  0: 0x0137 [0x37] UPDATE_EVENT_POSITION_AND_DIR: x=100.912*, z=41.203*, y=-41.000*, direction=290.8°*
  1: 0x0140 [0x32] ExtData[1]->MainSpeed = 40* * 0.1
  2: 0x0143 [0x37] UPDATE_EVENT_POSITION_AND_DIR: x=104.958*, z=44.726*, y=-41.016*, direction=321.3°*
  3: 0x014C [0x1E] EventEntity looks at Parelbriaux (ID: 16883726/0x0101A00E) and starts talking
  4: 0x0151 [0x00] END_REQSTACK()
```

### Event 65535.8

#### Metadata

| Field        | Value    |
|--------------|----------|
| Entrypoint   | 0x0152   |
| Data Size    | 15 bytes |
| Instructions | 3        |

```
      00 01 02 03 04 05 06 07  08 09 0A 0B 0C 0D 0E 0F
      -- -- -- -- -- -- -- --  -- -- -- -- -- -- -- --
0150:       37 32 80 33 80 34  80 35 80 1E 0E A0 01 01    72.3.4.5......
0160: 00                                                .               
```

#### Opcodes

```
  0: 0x0152 [0x37] UPDATE_EVENT_POSITION_AND_DIR: x=107.496*, z=44.878*, y=-41.092*, direction=313.0°*
  1: 0x015B [0x1E] EventEntity looks at Parelbriaux (ID: 16883726/0x0101A00E) and starts talking
  2: 0x0160 [0x00] END_REQSTACK()
```

### Event 65535.9

#### Metadata

| Field        | Value    |
|--------------|----------|
| Entrypoint   | 0x0161   |
| Data Size    | 23 bytes |
| Instructions | 5        |

```
      00 01 02 03 04 05 06 07  08 09 0A 0B 0C 0D 0E 0F
      -- -- -- -- -- -- -- --  -- -- -- -- -- -- -- --
0160:    37 32 80 33 80 34 80  35 80 32 1C 80 1F 00 36   72.3.4.5.2....6
0170: 80 37 80 38 80 1F 01 00                           .7.8....        
```

#### Opcodes

```
  0: 0x0161 [0x37] UPDATE_EVENT_POSITION_AND_DIR: x=107.496*, z=44.878*, y=-41.092*, direction=313.0°*
  1: 0x016A [0x32] ExtData[1]->MainSpeed = 13* * 0.1
  2: 0x016D [0x1F] MOVE_ENTITY: EventEntity moves to X=100.854*, Z=37.947*, Y=-40.932*
  3: 0x0175 [0x1F] MOVE_ENTITY: Update entity position (mode=1)
  4: 0x0177 [0x00] END_REQSTACK()
```

### Event 65535.10

#### Metadata

| Field        | Value    |
|--------------|----------|
| Entrypoint   | 0x0178   |
| Data Size    | 15 bytes |
| Instructions | 3        |

```
      00 01 02 03 04 05 06 07  08 09 0A 0B 0C 0D 0E 0F
      -- -- -- -- -- -- -- --  -- -- -- -- -- -- -- --
0170:                          37 39 80 3A 80 14 80 3B          79.:...;
0180: 80 1E 0A A0 01 01 00                              .......         
```

#### Opcodes

```
  0: 0x0178 [0x37] UPDATE_EVENT_POSITION_AND_DIR: x=82.041*, z=67.636*, y=-33.964*, direction=209.9°*
  1: 0x0181 [0x1E] EventEntity looks at Justinius (ID: 16883722/0x0101A00A) and starts talking
  2: 0x0186 [0x00] END_REQSTACK()
```

### Event 65535.11

#### Metadata

| Field        | Value    |
|--------------|----------|
| Entrypoint   | 0x0187   |
| Data Size    | 15 bytes |
| Instructions | 3        |

```
      00 01 02 03 04 05 06 07  08 09 0A 0B 0C 0D 0E 0F
      -- -- -- -- -- -- -- --  -- -- -- -- -- -- -- --
0180:                      37  1D 80 1E 80 1F 80 3C 80         7......<.
0190: 1E 0E A0 01 01 00                                 ......          
```

#### Opcodes

```
  0: 0x0187 [0x37] UPDATE_EVENT_POSITION_AND_DIR: x=113.808*, z=41.576*, y=-40.999*, direction=312.4°*
  1: 0x0190 [0x1E] EventEntity looks at Parelbriaux (ID: 16883726/0x0101A00E) and starts talking
  2: 0x0195 [0x00] END_REQSTACK()
```

### Event 536

#### Metadata

| Field        | Value   |
|--------------|---------|
| Entrypoint   | 0x0196  |
| Data Size    | 1 bytes |
| Instructions | 1       |

```
      00 01 02 03 04 05 06 07  08 09 0A 0B 0C 0D 0E 0F
      -- -- -- -- -- -- -- --  -- -- -- -- -- -- -- --
0190:                   00                                    .         
```

#### Opcodes

```
  0: 0x0196 [0x00] END_REQSTACK()
```

### Event 65535.12

#### Metadata

| Field        | Value    |
|--------------|----------|
| Entrypoint   | 0x0197   |
| Data Size    | 14 bytes |
| Instructions | 4        |

```
      00 01 02 03 04 05 06 07  08 09 0A 0B 0C 0D 0E 0F
      -- -- -- -- -- -- -- --  -- -- -- -- -- -- -- --
0190:                      32  1C 80 1F 00 3D 80 3E 80         2....=.>.
01A0: 3F 80 1F 01 00                                    ?....           
```

#### Opcodes

```
  0: 0x0197 [0x32] ExtData[1]->MainSpeed = 13* * 0.1
  1: 0x019A [0x1F] MOVE_ENTITY: EventEntity moves to X=87.802*, Z=63.569*, Y=-33.791*
  2: 0x01A2 [0x1F] MOVE_ENTITY: Update entity position (mode=1)
  3: 0x01A4 [0x00] END_REQSTACK()
```

### Event 544

#### Metadata

| Field        | Value   |
|--------------|---------|
| Entrypoint   | 0x01A5  |
| Data Size    | 1 bytes |
| Instructions | 1       |

```
      00 01 02 03 04 05 06 07  08 09 0A 0B 0C 0D 0E 0F
      -- -- -- -- -- -- -- --  -- -- -- -- -- -- -- --
01A0:                00                                      .          
```

#### Opcodes

```
  0: 0x01A5 [0x00] END_REQSTACK()
```

### Event 65535.13

#### Metadata

| Field        | Value    |
|--------------|----------|
| Entrypoint   | 0x01A6   |
| Data Size    | 16 bytes |
| Instructions | 5        |

```
      00 01 02 03 04 05 06 07  08 09 0A 0B 0C 0D 0E 0F
      -- -- -- -- -- -- -- --  -- -- -- -- -- -- -- --
01A0:                   61 00  32 1C 80 1F 00 40 80 41        a.2....@.A
01B0: 80 42 80 1F 01 00                                 .B....          
```

#### Opcodes

```
  0: 0x01A6 [0x61] EventEntity->Render.Flags2 &= ~0x00000001
  1: 0x01A8 [0x32] ExtData[1]->MainSpeed = 13* * 0.1
  2: 0x01AB [0x1F] MOVE_ENTITY: EventEntity moves to X=82.248*, Z=66.584*, Y=-33.960*
  3: 0x01B3 [0x1F] MOVE_ENTITY: Update entity position (mode=1)
  4: 0x01B5 [0x00] END_REQSTACK()
```

### Event 547

#### Metadata

| Field        | Value    |
|--------------|----------|
| Entrypoint   | 0x01B6   |
| Data Size    | 13 bytes |
| Instructions | 7        |

```
      00 01 02 03 04 05 06 07  08 09 0A 0B 0C 0D 0E 0F
      -- -- -- -- -- -- -- --  -- -- -- -- -- -- -- --
01B0:                   1E F0  FF FF 7F 6F 70 1D 43 80        .....op.C.
01C0: 23 21 00                                          #!.             
```

#### Opcodes

```
  0: 0x01B6 [0x1E] EventEntity looks at LocalPlayer and starts talking
  1: 0x01BB [0x6F] WAIT_FRAME_DELAY: Yield until WaitTime reaches zero
  2: 0x01BC [0x70] WAIT_ENTITY_RENDER_FLAG: Wait while EventEntity->Render.Flags3 bit 2 is set (cancel turn if not)
  3: 0x01BD [0x1D] PRINT_EVENT_MESSAGE(message_id=11674*)
    → "Collecting information is the next step, is it not? I do not know if I can be of help, but I will do what I can!"
  4: 0x01C0 [0x23] WAIT_FOR_DIALOG_INTERACTION
  5: 0x01C1 [0x21] END_EVENT
  6: 0x01C2 [0x00] END_REQSTACK()
```

### Event 548

#### Metadata

| Field        | Value   |
|--------------|---------|
| Entrypoint   | 0x01C3  |
| Data Size    | 1 bytes |
| Instructions | 1       |

```
      00 01 02 03 04 05 06 07  08 09 0A 0B 0C 0D 0E 0F
      -- -- -- -- -- -- -- --  -- -- -- -- -- -- -- --
01C0:          00                                          .            
```

#### Opcodes

```
  0: 0x01C3 [0x00] END_REQSTACK()
```

### Event 549

#### Metadata

| Field        | Value   |
|--------------|---------|
| Entrypoint   | 0x01C4  |
| Data Size    | 1 bytes |
| Instructions | 1       |

```
      00 01 02 03 04 05 06 07  08 09 0A 0B 0C 0D 0E 0F
      -- -- -- -- -- -- -- --  -- -- -- -- -- -- -- --
01C0:             00                                        .           
```

#### Opcodes

```
  0: 0x01C4 [0x00] END_REQSTACK()
```

### Event 557

#### Metadata

| Field        | Value   |
|--------------|---------|
| Entrypoint   | 0x01C5  |
| Data Size    | 1 bytes |
| Instructions | 1       |

```
      00 01 02 03 04 05 06 07  08 09 0A 0B 0C 0D 0E 0F
      -- -- -- -- -- -- -- --  -- -- -- -- -- -- -- --
01C0:                00                                      .          
```

#### Opcodes

```
  0: 0x01C5 [0x00] END_REQSTACK()
```

### Event 65535.14

#### Metadata

| Field        | Value    |
|--------------|----------|
| Entrypoint   | 0x01C6   |
| Data Size    | 14 bytes |
| Instructions | 4        |

```
      00 01 02 03 04 05 06 07  08 09 0A 0B 0C 0D 0E 0F
      -- -- -- -- -- -- -- --  -- -- -- -- -- -- -- --
01C0:                   32 1C  80 1F 00 44 80 45 80 46        2....D.E.F
01D0: 80 1F 01 00                                       ....            
```

#### Opcodes

```
  0: 0x01C6 [0x32] ExtData[1]->MainSpeed = 13* * 0.1
  1: 0x01C9 [0x1F] MOVE_ENTITY: EventEntity moves to X=84.010*, Z=69.239*, Y=-33.951*
  2: 0x01D1 [0x1F] MOVE_ENTITY: Update entity position (mode=1)
  3: 0x01D3 [0x00] END_REQSTACK()
```

### Event 568

#### Metadata

| Field        | Value   |
|--------------|---------|
| Entrypoint   | 0x01D4  |
| Data Size    | 1 bytes |
| Instructions | 1       |

```
      00 01 02 03 04 05 06 07  08 09 0A 0B 0C 0D 0E 0F
      -- -- -- -- -- -- -- --  -- -- -- -- -- -- -- --
01D0:             00                                        .           
```

#### Opcodes

```
  0: 0x01D4 [0x00] END_REQSTACK()
```

### Event 569

#### Metadata

| Field        | Value   |
|--------------|---------|
| Entrypoint   | 0x01D5  |
| Data Size    | 1 bytes |
| Instructions | 1       |

```
      00 01 02 03 04 05 06 07  08 09 0A 0B 0C 0D 0E 0F
      -- -- -- -- -- -- -- --  -- -- -- -- -- -- -- --
01D0:                00                                      .          
```

#### Opcodes

```
  0: 0x01D5 [0x00] END_REQSTACK()
```

### Event 561

#### Metadata

| Field        | Value     |
|--------------|-----------|
| Entrypoint   | 0x01D6    |
| Data Size    | 150 bytes |
| Instructions | 31        |

```
      00 01 02 03 04 05 06 07  08 09 0A 0B 0C 0D 0E 0F
      -- -- -- -- -- -- -- --  -- -- -- -- -- -- -- --
01D0:                   1E F0  FF FF 7F 6F 70 24 47 80        .....op$G.
01E0: 48 80 48 80 25 02 00 10  48 80 00 20 02 02 04 10  H.H.%...H.. ....
01F0: 49 80 00 05 02 27 0F F0  FF FF 7F 53 2A 0F F0 FF  I....'.....S*...
0200: FF 7F 01 1D 02 02 04 10  48 80 00 1D 02 27 14 F0  ........H....'..
0210: FF FF 7F 52 2A 14 F0 FF  FF 7F 01 1D 02 01 6A 02  ...R*.........j.
0220: 02 00 10 49 80 00 5B 02  02 04 10 49 80 00 40 02  ...I..[....I..@.
0230: 27 19 F0 FF FF 7F 4F 2A  19 F0 FF FF 7F 01 58 02  '.....O*......X.
0240: 02 04 10 48 80 00 58 02  27 1E F0 FF FF 7F 4E 2A  ...H..X.'.....N*
0250: 1E F0 FF FF 7F 01 58 02  01 6A 02 02 00 10 4A 80  ......X..j....J.
0260: 00 6A 02 1D 4B 80 23 01  6A 02 21 00              .j..K.#.j.!.    
```

#### Opcodes

```
  0: 0x01D6 [0x1E] EventEntity looks at LocalPlayer and starts talking
  1: 0x01DB [0x6F] WAIT_FRAME_DELAY: Yield until WaitTime reaches zero
  2: 0x01DC [0x70] WAIT_ENTITY_RENDER_FLAG: Wait while EventEntity->Render.Flags3 bit 2 is set (cancel turn if not)
  3: 0x01DD [0x24] CREATE_DIALOG(message_id=11744*, default_option=0*, option_flags=0*)
    → "Take a look at my reports? [Report 3./Report 4./Not interested.]"
  4: 0x01E4 [0x25] WAIT_DIALOG_SELECT()
  5: 0x01E5 [0x02] IF !(Work_Zone[0] == 0*) GOTO 0x0220
  6: 0x01ED [0x02] IF !(Work_Zone[4] == 1*) GOTO 0x0205
  7: 0x01F5 [0x27] REQ_SET(priority=0x0F, entity_id=LocalPlayer, tag_num=0x53)
  8: 0x01FC [0x2A] GET_REQ_LEVEL(level=15, entity_id=LocalPlayer)
  9: 0x0202 [0x01] GOTO 0x021D
 10: 0x0205 [0x02] IF !(Work_Zone[4] == 0*) GOTO 0x021D
 11: 0x020D [0x27] REQ_SET(priority=0x14, entity_id=LocalPlayer, tag_num=0x52)
 12: 0x0214 [0x2A] GET_REQ_LEVEL(level=20, entity_id=LocalPlayer)
 13: 0x021A [0x01] GOTO 0x021D

SUBROUTINE_021D:
 14: 0x021D [0x01] GOTO 0x026A
 15: 0x0220 [0x02] IF !(Work_Zone[0] == 1*) GOTO 0x025B
 16: 0x0228 [0x02] IF !(Work_Zone[4] == 1*) GOTO 0x0240
 17: 0x0230 [0x27] REQ_SET(priority=0x19, entity_id=LocalPlayer, tag_num=0x4F)
 18: 0x0237 [0x2A] GET_REQ_LEVEL(level=25, entity_id=LocalPlayer)
 19: 0x023D [0x01] GOTO 0x0258
 20: 0x0240 [0x02] IF !(Work_Zone[4] == 0*) GOTO 0x0258
 21: 0x0248 [0x27] REQ_SET(priority=0x1E, entity_id=LocalPlayer, tag_num=0x4E)
 22: 0x024F [0x2A] GET_REQ_LEVEL(level=30, entity_id=LocalPlayer)
 23: 0x0255 [0x01] GOTO 0x0258

SUBROUTINE_0258:
 24: 0x0258 [0x01] GOTO 0x026A
 25: 0x025B [0x02] IF !(Work_Zone[0] == 2*) GOTO 0x026A
 26: 0x0263 [0x1D] PRINT_EVENT_MESSAGE(message_id=11745*)
    → "Okay, I will leave it to you, then!"
 27: 0x0266 [0x23] WAIT_FOR_DIALOG_INTERACTION
 28: 0x0267 [0x01] GOTO 0x026A

SUBROUTINE_026A:
 29: 0x026A [0x21] END_EVENT
 30: 0x026B [0x00] END_REQSTACK()
```

### Event 565

#### Metadata

| Field        | Value   |
|--------------|---------|
| Entrypoint   | 0x026C  |
| Data Size    | 1 bytes |
| Instructions | 1       |

```
      00 01 02 03 04 05 06 07  08 09 0A 0B 0C 0D 0E 0F
      -- -- -- -- -- -- -- --  -- -- -- -- -- -- -- --
0260:                                      00                       .   
```

#### Opcodes

```
  0: 0x026C [0x00] END_REQSTACK()
```

### Event 567

#### Metadata

| Field        | Value   |
|--------------|---------|
| Entrypoint   | 0x026D  |
| Data Size    | 1 bytes |
| Instructions | 1       |

```
      00 01 02 03 04 05 06 07  08 09 0A 0B 0C 0D 0E 0F
      -- -- -- -- -- -- -- --  -- -- -- -- -- -- -- --
0260:                                         00                     .  
```

#### Opcodes

```
  0: 0x026D [0x00] END_REQSTACK()
```

### Event 558

#### Metadata

| Field        | Value   |
|--------------|---------|
| Entrypoint   | 0x026E  |
| Data Size    | 1 bytes |
| Instructions | 1       |

```
      00 01 02 03 04 05 06 07  08 09 0A 0B 0C 0D 0E 0F
      -- -- -- -- -- -- -- --  -- -- -- -- -- -- -- --
0260:                                            00                   . 
```

#### Opcodes

```
  0: 0x026E [0x00] END_REQSTACK()
```

### Event 65535.15

#### Metadata

| Field        | Value    |
|--------------|----------|
| Entrypoint   | 0x026F   |
| Data Size    | 10 bytes |
| Instructions | 2        |

```
      00 01 02 03 04 05 06 07  08 09 0A 0B 0C 0D 0E 0F
      -- -- -- -- -- -- -- --  -- -- -- -- -- -- -- --
0260:                                               37                 7
0270: 4C 80 4D 80 4E 80 4F 80  00                       L.M.N.O..       
```

#### Opcodes

```
  0: 0x026F [0x37] UPDATE_EVENT_POSITION_AND_DIR: x=1.213*, z=12.208*, y=-22.198*, direction=107.9°*
  1: 0x0278 [0x00] END_REQSTACK()
```

### Event 65535.16

#### Metadata

| Field        | Value    |
|--------------|----------|
| Entrypoint   | 0x0279   |
| Data Size    | 14 bytes |
| Instructions | 4        |

```
      00 01 02 03 04 05 06 07  08 09 0A 0B 0C 0D 0E 0F
      -- -- -- -- -- -- -- --  -- -- -- -- -- -- -- --
0270:                             32 1C 80 1F 00 50 80           2....P.
0280: 51 80 52 80 1F 01 00                              Q.R....         
```

#### Opcodes

```
  0: 0x0279 [0x32] ExtData[1]->MainSpeed = 13* * 0.1
  1: 0x027C [0x1F] MOVE_ENTITY: EventEntity moves to X=-0.390*, Z=8.579*, Y=-22.081*
  2: 0x0284 [0x1F] MOVE_ENTITY: Update entity position (mode=1)
  3: 0x0286 [0x00] END_REQSTACK()
```

### Event 564

#### Metadata

| Field        | Value    |
|--------------|----------|
| Entrypoint   | 0x0287   |
| Data Size    | 13 bytes |
| Instructions | 7        |

```
      00 01 02 03 04 05 06 07  08 09 0A 0B 0C 0D 0E 0F
      -- -- -- -- -- -- -- --  -- -- -- -- -- -- -- --
0280:                      1E  F0 FF FF 7F 6F 70 1D 53         .....op.S
0290: 80 23 21 00                                       .#!.            
```

#### Opcodes

```
  0: 0x0287 [0x1E] EventEntity looks at LocalPlayer and starts talking
  1: 0x028C [0x6F] WAIT_FRAME_DELAY: Yield until WaitTime reaches zero
  2: 0x028D [0x70] WAIT_ENTITY_RENDER_FLAG: Wait while EventEntity->Render.Flags3 bit 2 is set (cancel turn if not)
  3: 0x028E [0x1D] PRINT_EVENT_MESSAGE(message_id=11794*)
    → "Maybe I was a little too sharp with Wazozo..."
  4: 0x0291 [0x23] WAIT_FOR_DIALOG_INTERACTION
  5: 0x0292 [0x21] END_EVENT
  6: 0x0293 [0x00] END_REQSTACK()
```

### Event 581

#### Metadata

| Field        | Value    |
|--------------|----------|
| Entrypoint   | 0x0294   |
| Data Size    | 46 bytes |
| Instructions | 10       |

```
      00 01 02 03 04 05 06 07  08 09 0A 0B 0C 0D 0E 0F
      -- -- -- -- -- -- -- --  -- -- -- -- -- -- -- --
0290:             1E F0 FF FF  7F 6F 70 66 05 80 F8 FF      .....opf....
02A0: FF 7F F8 FF FF 7F 74 68  6B 31 1D 54 80 23 66 05  ......thk1.T.#f.
02B0: 80 F8 FF FF 7F F8 FF FF  7F 74 68 6B 32 1C 55 80  .........thk2.U.
02C0: 21 00                                             !.              
```

#### Opcodes

```
  0: 0x0294 [0x1E] EventEntity looks at LocalPlayer and starts talking
  1: 0x0299 [0x6F] WAIT_FRAME_DELAY: Yield until WaitTime reaches zero
  2: 0x029A [0x70] WAIT_ENTITY_RENDER_FLAG: Wait while EventEntity->Render.Flags3 bit 2 is set (cancel turn if not)
  3: 0x029B [0x66] LOAD_EXT_SCHEDULER_MAIN: Load scheduler "thk1" with entities [EventEntity, EventEntity], work=30*
  4: 0x02AA [0x1D] PRINT_EVENT_MESSAGE(message_id=11761*)
    → "They must have been up to some mischief in the tributary. I have a feeling that knowing their doings would be rather significant to our investigation."
  5: 0x02AD [0x23] WAIT_FOR_DIALOG_INTERACTION
  6: 0x02AE [0x66] LOAD_EXT_SCHEDULER_MAIN: Load scheduler "thk2" with entities [EventEntity, EventEntity], work=30*
  7: 0x02BD [0x1C] WAIT(60* ticks)
  8: 0x02C0 [0x21] END_EVENT
  9: 0x02C1 [0x00] END_REQSTACK()
```

### Event 65535.17

#### Metadata

| Field        | Value   |
|--------------|---------|
| Entrypoint   | 0x02C2  |
| Data Size    | 4 bytes |
| Instructions | 2       |

```
      00 01 02 03 04 05 06 07  08 09 0A 0B 0C 0D 0E 0F
      -- -- -- -- -- -- -- --  -- -- -- -- -- -- -- --
02C0:       95 48 80 00                                   .H..          
```

#### Opcodes

```
  0: 0x02C2 [0x95] SETUP_EVENT_NPC: Prepare NPC for event (Render.Flags3 = 0*)
  1: 0x02C5 [0x00] END_REQSTACK()
```

### Event 65535.18

#### Metadata

| Field        | Value   |
|--------------|---------|
| Entrypoint   | 0x02C6  |
| Data Size    | 2 bytes |
| Instructions | 2       |

```
      00 01 02 03 04 05 06 07  08 09 0A 0B 0C 0D 0E 0F
      -- -- -- -- -- -- -- --  -- -- -- -- -- -- -- --
02C0:                   96 00                                 ..        
```

#### Opcodes

```
  0: 0x02C6 [0x96] UNSET_EVENT_NPC: Restore NPC after event (removes event NPC status)
  1: 0x02C7 [0x00] END_REQSTACK()
```
