# 16883721 - Despachiaire

## Common Data

| Field            | Value                       |
|------------------|-----------------------------|
| Zone             | Tavnazian Safehold (ID: 26) |
| Block Size       | 1440 bytes                  |
| Total Events     | 50                          |
| References Count | 86                          |

## List of Events

| Event ID                   | Entrypoint   |   Size |   Instructions |
|----------------------------|--------------|--------|----------------|
| [65535](#event-65535)      | 0x0000       |      1 |              1 |
| [576](#event-576)          | 0x0001       |      1 |              1 |
| [579](#event-579)          | 0x0002       |     54 |             12 |
| [102](#event-102)          | 0x0038       |      1 |              1 |
| [104](#event-104)          | 0x0039       |      1 |              1 |
| [65535.1](#event-655351)   | 0x003A       |     39 |              8 |
| [106](#event-106)          | 0x0061       |     76 |             15 |
| [65535.2](#event-655352)   | 0x00AD       |     14 |              4 |
| [107](#event-107)          | 0x00BB       |      1 |              1 |
| [65535.3](#event-655353)   | 0x00BC       |     25 |              6 |
| [65535.4](#event-655354)   | 0x00D5       |     21 |              5 |
| [65535.5](#event-655355)   | 0x00EA       |     14 |              4 |
| [108](#event-108)          | 0x00F8       |      1 |              1 |
| [65535.6](#event-655356)   | 0x00F9       |     15 |              5 |
| [65535.7](#event-655357)   | 0x0108       |     15 |              5 |
| [110](#event-110)          | 0x0117       |     12 |              3 |
| [65535.8](#event-655358)   | 0x0123       |     25 |              7 |
| [112](#event-112)          | 0x013C       |      1 |              1 |
| [117](#event-117)          | 0x013D       |      1 |              1 |
| [118](#event-118)          | 0x013E       |      1 |              1 |
| [132](#event-132)          | 0x013F       |     68 |             14 |
| [133](#event-133)          | 0x0183       |     30 |              8 |
| [134](#event-134)          | 0x01A1       |     30 |              8 |
| [65535.9](#event-655359)   | 0x01BF       |     16 |              2 |
| [65535.10](#event-6553510) | 0x01CF       |     14 |              2 |
| [65535.11](#event-6553511) | 0x01DD       |     16 |              2 |
| [65535.12](#event-6553512) | 0x01ED       |     14 |              2 |
| [65535.13](#event-6553513) | 0x01FB       |     16 |              2 |
| [65535.14](#event-6553514) | 0x020B       |     14 |              2 |
| [65535.15](#event-6553515) | 0x0219       |     16 |              2 |
| [65535.16](#event-6553516) | 0x0229       |     14 |              2 |
| [65535.17](#event-6553517) | 0x0237       |     29 |              3 |
| [139](#event-139)          | 0x0254       |      1 |              1 |
| [65535.18](#event-6553518) | 0x0255       |     10 |              2 |
| [65535.19](#event-6553519) | 0x025F       |     15 |              5 |
| [144](#event-144)          | 0x026E       |     19 |             10 |
| [149](#event-149)          | 0x0281       |     11 |              6 |
| [315](#event-315)          | 0x028C       |     30 |              8 |
| [317](#event-317)          | 0x02AA       |     30 |              8 |
| [318](#event-318)          | 0x02C8       |     49 |             11 |
| [65535.20](#event-6553520) | 0x02F9       |     15 |              5 |
| [505](#event-505)          | 0x0308       |      1 |              1 |
| [65535.21](#event-6553521) | 0x0309       |     43 |              7 |
| [517](#event-517)          | 0x0334       |      1 |              1 |
| [518](#event-518)          | 0x0335       |      1 |              1 |
| [65535.22](#event-6553522) | 0x0336       |     15 |              5 |
| [65535.23](#event-6553523) | 0x0345       |     23 |              5 |
| [65535.24](#event-6553524) | 0x035C       |     17 |              6 |

## DAT References (imed_data)

|   Index | Hex Value   |   Dec Value |
|---------|-------------|-------------|
|       0 | 0x2E2E      |       11822 |
|       1 | 0x001E      |          30 |
|       2 | 0x2E2F      |       11823 |
|       3 | 0x000A      |          10 |
|       4 | 0x20579     |      132473 |
|       5 | 0xB702      |       46850 |
|       6 | 0xFFFF624C  |  4294926924 |
|       7 | 0x0072      |         114 |
|       8 | 0x217F3     |      137203 |
|       9 | 0xB2F6      |       45814 |
|      10 | 0xFFFF63B1  |  4294927281 |
|      11 | 0x2696      |        9878 |
|      12 | 0x01F1      |         497 |
|      13 | 0x2697      |        9879 |
|      14 | 0x0000      |           0 |
|      15 | 0x2698      |        9880 |
|      16 | 0x2699      |        9881 |
|      17 | 0x18F4F     |      102223 |
|      18 | 0xFFFEAC39  |  4294880313 |
|      19 | 0xFFFF63C0  |  4294927296 |
|      20 | 0xFFFFF409  |  4294964233 |
|      21 | 0x40CB      |       16587 |
|      22 | 0xFFFFD8F8  |  4294957304 |
|      23 | 0x02C5      |         709 |
|      24 | 0x0145      |         325 |
|      25 | 0x313F      |       12607 |
|      26 | 0xFFFFFFDB  |  4294967259 |
|      27 | 0x1089      |        4233 |
|      28 | 0xFFFFDCD6  |  4294958294 |
|      29 | 0x03F9      |        1017 |
|      30 | 0xFFFFFE12  |  4294966802 |
|      31 | 0x0037      |          55 |
|      32 | 0xFFFFDCE0  |  4294958304 |
|      33 | 0xFFFFF482  |  4294964354 |
|      34 | 0x3A31      |       14897 |
|      35 | 0x1AF03     |      110339 |
|      36 | 0xFFFEBA44  |  4294883908 |
|      37 | 0x1A642     |      108098 |
|      38 | 0xFFFEBA71  |  4294883953 |
|      39 | 0x15954     |       88404 |
|      40 | 0xE5A2      |       58786 |
|      41 | 0xFFFF7DFD  |  4294934013 |
|      42 | 0x08CC      |        2252 |
|      43 | 0x15404     |       87044 |
|      44 | 0xED64      |       60772 |
|      45 | 0xFFFF7C10  |  4294933520 |
|      46 | 0x14044     |       81988 |
|      47 | 0xF8D4      |       63700 |
|      48 | 0xFFFF7B30  |  4294933296 |
|      49 | 0x27E9      |       10217 |
|      50 | 0x27EA      |       10218 |
|      51 | 0x27EB      |       10219 |
|      52 | 0x27EC      |       10220 |
|      53 | 0x2820      |       10272 |
|      54 | 0x2821      |       10273 |
|      55 | 0x2822      |       10274 |
|      56 | 0x2823      |       10275 |
|      57 | 0x1ABDF     |      109535 |
|      58 | 0xFFFEB5A2  |  4294882722 |
|      59 | 0x0981      |        2433 |
|      60 | 0x000D      |          13 |
|      61 | 0x1AF8A     |      110474 |
|      62 | 0xFFFEAC44  |  4294880324 |
|      63 | 0x28D5      |       10453 |
|      64 | 0x28D6      |       10454 |
|      65 | 0x2B1E      |       11038 |
|      66 | 0x2B1F      |       11039 |
|      67 | 0x2B24      |       11044 |
|      68 | 0x2B25      |       11045 |
|      69 | 0x2B26      |       11046 |
|      70 | 0x2B27      |       11047 |
|      71 | 0x2B28      |       11048 |
|      72 | 0x1AD9B     |      109979 |
|      73 | 0xFFFEB97A  |  4294883706 |
|      74 | 0x19E94     |      106132 |
|      75 | 0xFFFEC275  |  4294886005 |
|      76 | 0x1A5D0     |      107984 |
|      77 | 0xFFFEAC8C  |  4294880396 |
|      78 | 0x194CC     |      103628 |
|      79 | 0xFFFEA840  |  4294879296 |
|      80 | 0x18829     |      100393 |
|      81 | 0xFFFEC470  |  4294886512 |
|      82 | 0xFFFF7360  |  4294931296 |
|      83 | 0x0070      |         112 |
|      84 | 0x1ADBD     |      110013 |
|      85 | 0xFFFEA98E  |  4294879630 |

## String References

- **9878**: I realize that back on the mainland, no one has the time to wonder about the fates of their lost brothers.
- **9879**: However, I pray that the powers that led you to Tavnazia turn out to be a blessing for both our peoples.
- **9880**: ...By the way, where is the other traveler that arrived with you here in the safehold?
- **9881**: I wish to hear his tales of the mainland as well...
- **10217**: I was relieved to hear that Sir Louverance would be taking Prishe into his custody.
- **10218**: She will be better off with the San d'Orian Cathedral seeing to her needs.
- **10219**: However, I never imagined that Cardinal Mildaurion was capable of committing crimes against the Kingdom.
- **10220**: To think that such a noble woman could resort to criminal activity... The heart is a mysterious thing. It can often change without even a hint of notice.
- **10272**: A young Mithran sin hunter visited the safehold a number of days ago. She said she was searching for Prishe.
- **10273**: If you can find her, perhaps she may be able to better inform you of the secrets behind the painting.
- **10274**: As you know, a young Mithran sin hunter visited the safehold a number of days ago.
- **10275**: I cannot imagine for what reasons she visited us. However, if you can find her, she may be able to better inform you of the secrets behind the painting.
- **10453**: Whatever could she have been searching for in Prishe's quarters?
- **10454**: I do hope this matter will not bring misfortune upon our already beleaguered community...
- **11038**: The nation of Jeuno has offered its hand to help lift up the ailing Tavnazia.
- **11039**: None of this would have been possible were it not for the kindness of Sir Nag'molada.
- **11044**: Is Ulmia... Is my granddaughter well?
- **11045**: Please... I beg of you, do not let anything harm her.
- **11046**: I have given up trying to hold Ulmia back.
- **11047**: She has the right to see the world for what it is, and find the destiny that awaits her.
- **11048**: I now realize that my duty as a grandfather is not to control her, but to watch over her as she walks her own path.
- **11822**: Ah, <Player>. Another letter has arrived for you. Why they should be delivered to me is quite the mystery, however...
- **11823**: Here it is. A love letter from a secret admirer, mayhap? Please forgive an old man's prying; my curiosity tends to get the better of me at times.

## Events

### Event 65535

#### Metadata

| Field        | Value   |
|--------------|---------|
| Entrypoint   | 0x0000  |
| Data Size    | 1 bytes |
| Instructions | 1       |

```
      00 01 02 03 04 05 06 07  08 09 0A 0B 0C 0D 0E 0F
      -- -- -- -- -- -- -- --  -- -- -- -- -- -- -- --
0000: 00                                                .               
```

#### Opcodes

```
  0: 0x0000 [0x00] END_REQSTACK()
```

### Event 576

#### Metadata

| Field        | Value   |
|--------------|---------|
| Entrypoint   | 0x0001  |
| Data Size    | 1 bytes |
| Instructions | 1       |

```
      00 01 02 03 04 05 06 07  08 09 0A 0B 0C 0D 0E 0F
      -- -- -- -- -- -- -- --  -- -- -- -- -- -- -- --
0000:    00                                              .              
```

#### Opcodes

```
  0: 0x0001 [0x00] END_REQSTACK()
```

### Event 579

#### Metadata

| Field        | Value    |
|--------------|----------|
| Entrypoint   | 0x0002   |
| Data Size    | 54 bytes |
| Instructions | 12       |

```
      00 01 02 03 04 05 06 07  08 09 0A 0B 0C 0D 0E 0F
      -- -- -- -- -- -- -- --  -- -- -- -- -- -- -- --
0000:       42 4A 09 A0 01 01  F0 FF FF 7F 6F 76 09 A0    BJ........ov..
0010: 01 01 1D 00 80 23 5B 01  80 F8 FF FF 7F F8 FF FF  .....#[.........
0020: 7F 70 61 73 30 1D 02 80  23 53 F8 FF FF 7F F8 FF  .pas0...#S......
0030: FF 7F 70 61 73 30 21 00                           ..pas0!.        
```

#### Opcodes

```
  0: 0x0002 [0x42] SET_CLI_EVENT_CANCEL_DATA()
  1: 0x0003 [0x4A] Despachiaire (ID: 16883721/0x0101A009) looks at LocalPlayer
  2: 0x000C [0x6F] WAIT_FRAME_DELAY: Yield until WaitTime reaches zero
  3: 0x000D [0x76] CHECK_ENTITY_RENDER_FLAGS: Wait until Despachiaire (ID: 16883721/0x0101A009) Render.Flags0 and Render.Flags3 conditions are met
  4: 0x0012 [0x1D] PRINT_EVENT_MESSAGE(message_id=11822*)
    → "Ah, <Player>. Another letter has arrived for you. Why they should be delivered to me is quite the mystery, however..."
  5: 0x0015 [0x23] WAIT_FOR_DIALOG_INTERACTION
  6: 0x0016 [0x5B] LOAD_EXT_SCHEDULER: Load scheduler "pas0" with entities [EventEntity, EventEntity], work=30*
  7: 0x0025 [0x1D] PRINT_EVENT_MESSAGE(message_id=11823*)
    → "Here it is. A love letter from a secret admirer, mayhap? Please forgive an old man's prying; my curiosity tends to get the better of me at times."
  8: 0x0028 [0x23] WAIT_FOR_DIALOG_INTERACTION
  9: 0x0029 [0x53] WAIT_SCHEDULER_TASK: Wait for scheduler "pas0" with entities [EventEntity, EventEntity]
 10: 0x0036 [0x21] END_EVENT
 11: 0x0037 [0x00] END_REQSTACK()
```

### Event 102

#### Metadata

| Field        | Value   |
|--------------|---------|
| Entrypoint   | 0x0038  |
| Data Size    | 1 bytes |
| Instructions | 1       |

```
      00 01 02 03 04 05 06 07  08 09 0A 0B 0C 0D 0E 0F
      -- -- -- -- -- -- -- --  -- -- -- -- -- -- -- --
0030:                          00                               .       
```

#### Opcodes

```
  0: 0x0038 [0x00] END_REQSTACK()
```

### Event 104

#### Metadata

| Field        | Value   |
|--------------|---------|
| Entrypoint   | 0x0039  |
| Data Size    | 1 bytes |
| Instructions | 1       |

```
      00 01 02 03 04 05 06 07  08 09 0A 0B 0C 0D 0E 0F
      -- -- -- -- -- -- -- --  -- -- -- -- -- -- -- --
0030:                             00                             .      
```

#### Opcodes

```
  0: 0x0039 [0x00] END_REQSTACK()
```

### Event 65535.1

#### Metadata

| Field        | Value    |
|--------------|----------|
| Entrypoint   | 0x003A   |
| Data Size    | 39 bytes |
| Instructions | 8        |

```
      00 01 02 03 04 05 06 07  08 09 0A 0B 0C 0D 0E 0F
      -- -- -- -- -- -- -- --  -- -- -- -- -- -- -- --
0030:                                32 03 80 79 00 F8            2..y..
0040: FF FF 7F 04 A0 01 01 37  04 80 05 80 06 80 07 80  .......7........
0050: 1F 00 08 80 09 80 0A 80  1F 01 6F 1E 04 A0 01 01  ..........o.....
0060: 00                                                .               
```

#### Opcodes

```
  0: 0x003A [0x32] ExtData[1]->MainSpeed = 10* * 0.1
  1: 0x003D [0x79] EventEntity looks at Prishe (ID: 16883716/0x0101A004) (Basic look)
  2: 0x0047 [0x37] UPDATE_EVENT_POSITION_AND_DIR: x=132.473*, z=46.850*, y=-40.372*, direction=10.0°*
  3: 0x0050 [0x1F] MOVE_ENTITY: EventEntity moves to X=137.203*, Z=45.814*, Y=-40.015*
  4: 0x0058 [0x1F] MOVE_ENTITY: Update entity position (mode=1)
  5: 0x005A [0x6F] WAIT_FRAME_DELAY: Yield until WaitTime reaches zero
  6: 0x005B [0x1E] EventEntity looks at Prishe (ID: 16883716/0x0101A004) and starts talking
  7: 0x0060 [0x00] END_REQSTACK()
```

### Event 106

#### Metadata

| Field        | Value    |
|--------------|----------|
| Entrypoint   | 0x0061   |
| Data Size    | 76 bytes |
| Instructions | 15       |

```
      00 01 02 03 04 05 06 07  08 09 0A 0B 0C 0D 0E 0F
      -- -- -- -- -- -- -- --  -- -- -- -- -- -- -- --
0060:    1E F0 FF FF 7F 1D 0B  80 23 5B 0C 80 09 A0 01   ........#[.....
0070: 01 09 A0 01 01 74 6C 6B  30 1D 0D 80 23 02 02 10  .....tlk0...#...
0080: 0E 80 01 AB 00 5B 0C 80  09 A0 01 01 09 A0 01 01  .....[..........
0090: 74 6C 6B 31 1D 0F 80 23  5B 01 80 09 A0 01 01 09  tlk1...#[.......
00A0: A0 01 01 74 6C 6B 30 1D  10 80 23 21 00           ...tlk0...#!.   
```

#### Opcodes

```
  0: 0x0061 [0x1E] EventEntity looks at LocalPlayer and starts talking
  1: 0x0066 [0x1D] PRINT_EVENT_MESSAGE(message_id=9878*)
    → "I realize that back on the mainland, no one has the time to wonder about the fates of their lost brothers."
  2: 0x0069 [0x23] WAIT_FOR_DIALOG_INTERACTION
  3: 0x006A [0x5B] LOAD_EXT_SCHEDULER: Load scheduler "tlk0" with entities [Despachiaire (ID: 16883721/0x0101A009), Despachiaire (ID: 16883721/0x0101A009)], work=497*
  4: 0x0079 [0x1D] PRINT_EVENT_MESSAGE(message_id=9879*)
    → "However, I pray that the powers that led you to Tavnazia turn out to be a blessing for both our peoples."
  5: 0x007C [0x23] WAIT_FOR_DIALOG_INTERACTION
  6: 0x007D [0x02] IF !(Work_Zone[2] == 0*) GOTO 0x00AB
  7: 0x0085 [0x5B] LOAD_EXT_SCHEDULER: Load scheduler "tlk1" with entities [Despachiaire (ID: 16883721/0x0101A009), Despachiaire (ID: 16883721/0x0101A009)], work=497*
  8: 0x0094 [0x1D] PRINT_EVENT_MESSAGE(message_id=9880*)
    → "...By the way, where is the other traveler that arrived with you here in the safehold?"
  9: 0x0097 [0x23] WAIT_FOR_DIALOG_INTERACTION
 10: 0x0098 [0x5B] LOAD_EXT_SCHEDULER: Load scheduler "tlk0" with entities [Despachiaire (ID: 16883721/0x0101A009), Despachiaire (ID: 16883721/0x0101A009)], work=30*
 11: 0x00A7 [0x1D] PRINT_EVENT_MESSAGE(message_id=9881*)
    → "I wish to hear his tales of the mainland as well..."
 12: 0x00AA [0x23] WAIT_FOR_DIALOG_INTERACTION
 13: 0x00AB [0x21] END_EVENT
 14: 0x00AC [0x00] END_REQSTACK()
```

### Event 65535.2

#### Metadata

| Field        | Value    |
|--------------|----------|
| Entrypoint   | 0x00AD   |
| Data Size    | 14 bytes |
| Instructions | 4        |

```
      00 01 02 03 04 05 06 07  08 09 0A 0B 0C 0D 0E 0F
      -- -- -- -- -- -- -- --  -- -- -- -- -- -- -- --
00A0:                                         32 03 80               2..
00B0: 1F 00 11 80 12 80 13 80  1F 01 00                 ...........     
```

#### Opcodes

```
  0: 0x00AD [0x32] ExtData[1]->MainSpeed = 10* * 0.1
  1: 0x00B0 [0x1F] MOVE_ENTITY: EventEntity moves to X=102.223*, Z=-86.983*, Y=-40.000*
  2: 0x00B8 [0x1F] MOVE_ENTITY: Update entity position (mode=1)
  3: 0x00BA [0x00] END_REQSTACK()
```

### Event 107

#### Metadata

| Field        | Value   |
|--------------|---------|
| Entrypoint   | 0x00BB  |
| Data Size    | 1 bytes |
| Instructions | 1       |

```
      00 01 02 03 04 05 06 07  08 09 0A 0B 0C 0D 0E 0F
      -- -- -- -- -- -- -- --  -- -- -- -- -- -- -- --
00B0:                                   00                         .    
```

#### Opcodes

```
  0: 0x00BB [0x00] END_REQSTACK()
```

### Event 65535.3

#### Metadata

| Field        | Value    |
|--------------|----------|
| Entrypoint   | 0x00BC   |
| Data Size    | 25 bytes |
| Instructions | 6        |

```
      00 01 02 03 04 05 06 07  08 09 0A 0B 0C 0D 0E 0F
      -- -- -- -- -- -- -- --  -- -- -- -- -- -- -- --
00B0:                                      32 03 80 22              2.."
00C0: 00 37 14 80 15 80 16 80  17 80 1F 00 18 80 19 80  .7..............
00D0: 16 80 1F 01 00                                    .....           
```

#### Opcodes

```
  0: 0x00BC [0x32] ExtData[1]->MainSpeed = 10* * 0.1
  1: 0x00BF [0x22] ENTITY_HIDE_FLAG(enabled=0x00)
  2: 0x00C1 [0x37] UPDATE_EVENT_POSITION_AND_DIR: x=-3.063*, z=16.587*, y=-9.992*, direction=62.3°*
  3: 0x00CA [0x1F] MOVE_ENTITY: EventEntity moves to X=0.325*, Z=12.607*, Y=-9.992*
  4: 0x00D2 [0x1F] MOVE_ENTITY: Update entity position (mode=1)
  5: 0x00D4 [0x00] END_REQSTACK()
```

### Event 65535.4

#### Metadata

| Field        | Value    |
|--------------|----------|
| Entrypoint   | 0x00D5   |
| Data Size    | 21 bytes |
| Instructions | 5        |

```
      00 01 02 03 04 05 06 07  08 09 0A 0B 0C 0D 0E 0F
      -- -- -- -- -- -- -- --  -- -- -- -- -- -- -- --
00D0:                37 1A 80  1B 80 1C 80 1D 80 1F 00       7..........
00E0: 1E 80 1F 80 20 80 1F 01  6F 00                    .... ...o.      
```

#### Opcodes

```
  0: 0x00D5 [0x37] UPDATE_EVENT_POSITION_AND_DIR: x=-0.037*, z=4.233*, y=-9.002*, direction=89.4°*
  1: 0x00DE [0x1F] MOVE_ENTITY: EventEntity moves to X=-0.494*, Z=0.055*, Y=-8.992*
  2: 0x00E6 [0x1F] MOVE_ENTITY: Update entity position (mode=1)
  3: 0x00E8 [0x6F] WAIT_FRAME_DELAY: Yield until WaitTime reaches zero
  4: 0x00E9 [0x00] END_REQSTACK()
```

### Event 65535.5

#### Metadata

| Field        | Value    |
|--------------|----------|
| Entrypoint   | 0x00EA   |
| Data Size    | 14 bytes |
| Instructions | 4        |

```
      00 01 02 03 04 05 06 07  08 09 0A 0B 0C 0D 0E 0F
      -- -- -- -- -- -- -- --  -- -- -- -- -- -- -- --
00E0:                                32 03 80 1F 00 21            2....!
00F0: 80 22 80 16 80 1F 01 00                           ."......        
```

#### Opcodes

```
  0: 0x00EA [0x32] ExtData[1]->MainSpeed = 10* * 0.1
  1: 0x00ED [0x1F] MOVE_ENTITY: EventEntity moves to X=-2.942*, Z=14.897*, Y=-9.992*
  2: 0x00F5 [0x1F] MOVE_ENTITY: Update entity position (mode=1)
  3: 0x00F7 [0x00] END_REQSTACK()
```

### Event 108

#### Metadata

| Field        | Value   |
|--------------|---------|
| Entrypoint   | 0x00F8  |
| Data Size    | 1 bytes |
| Instructions | 1       |

```
      00 01 02 03 04 05 06 07  08 09 0A 0B 0C 0D 0E 0F
      -- -- -- -- -- -- -- --  -- -- -- -- -- -- -- --
00F0:                          00                               .       
```

#### Opcodes

```
  0: 0x00F8 [0x00] END_REQSTACK()
```

### Event 65535.6

#### Metadata

| Field        | Value    |
|--------------|----------|
| Entrypoint   | 0x00F9   |
| Data Size    | 15 bytes |
| Instructions | 5        |

```
      00 01 02 03 04 05 06 07  08 09 0A 0B 0C 0D 0E 0F
      -- -- -- -- -- -- -- --  -- -- -- -- -- -- -- --
00F0:                             32 03 80 1F 00 23 80           2....#.
0100: 24 80 0A 80 1F 01 6F 00                           $.....o.        
```

#### Opcodes

```
  0: 0x00F9 [0x32] ExtData[1]->MainSpeed = 10* * 0.1
  1: 0x00FC [0x1F] MOVE_ENTITY: EventEntity moves to X=110.339*, Z=-83.388*, Y=-40.015*
  2: 0x0104 [0x1F] MOVE_ENTITY: Update entity position (mode=1)
  3: 0x0106 [0x6F] WAIT_FRAME_DELAY: Yield until WaitTime reaches zero
  4: 0x0107 [0x00] END_REQSTACK()
```

### Event 65535.7

#### Metadata

| Field        | Value    |
|--------------|----------|
| Entrypoint   | 0x0108   |
| Data Size    | 15 bytes |
| Instructions | 5        |

```
      00 01 02 03 04 05 06 07  08 09 0A 0B 0C 0D 0E 0F
      -- -- -- -- -- -- -- --  -- -- -- -- -- -- -- --
0100:                          32 03 80 1F 00 25 80 26          2....%.&
0110: 80 0A 80 1F 01 6F 00                              .....o.         
```

#### Opcodes

```
  0: 0x0108 [0x32] ExtData[1]->MainSpeed = 10* * 0.1
  1: 0x010B [0x1F] MOVE_ENTITY: EventEntity moves to X=108.098*, Z=-83.343*, Y=-40.015*
  2: 0x0113 [0x1F] MOVE_ENTITY: Update entity position (mode=1)
  3: 0x0115 [0x6F] WAIT_FRAME_DELAY: Yield until WaitTime reaches zero
  4: 0x0116 [0x00] END_REQSTACK()
```

### Event 110

#### Metadata

| Field        | Value    |
|--------------|----------|
| Entrypoint   | 0x0117   |
| Data Size    | 12 bytes |
| Instructions | 3        |

```
      00 01 02 03 04 05 06 07  08 09 0A 0B 0C 0D 0E 0F
      -- -- -- -- -- -- -- --  -- -- -- -- -- -- -- --
0110:                      22  01 37 27 80 28 80 29 80         ".7'.(.).
0120: 2A 80 00                                          *..             
```

#### Opcodes

```
  0: 0x0117 [0x22] ENTITY_HIDE_FLAG(enabled=0x01)
  1: 0x0119 [0x37] UPDATE_EVENT_POSITION_AND_DIR: x=88.404*, z=58.786*, y=-33.283*, direction=197.9°*
  2: 0x0122 [0x00] END_REQSTACK()
```

### Event 65535.8

#### Metadata

| Field        | Value    |
|--------------|----------|
| Entrypoint   | 0x0123   |
| Data Size    | 25 bytes |
| Instructions | 7        |

```
      00 01 02 03 04 05 06 07  08 09 0A 0B 0C 0D 0E 0F
      -- -- -- -- -- -- -- --  -- -- -- -- -- -- -- --
0120:          32 03 80 1F 00  2B 80 2C 80 2D 80 1F 01     2....+.,.-...
0130: 1F 00 2E 80 2F 80 30 80  1F 01 6F 00              ..../.0...o.    
```

#### Opcodes

```
  0: 0x0123 [0x32] ExtData[1]->MainSpeed = 10* * 0.1
  1: 0x0126 [0x1F] MOVE_ENTITY: EventEntity moves to X=87.044*, Z=60.772*, Y=-33.776*
  2: 0x012E [0x1F] MOVE_ENTITY: Update entity position (mode=1)
  3: 0x0130 [0x1F] MOVE_ENTITY: EventEntity moves to X=81.988*, Z=63.700*, Y=-34.000*
  4: 0x0138 [0x1F] MOVE_ENTITY: Update entity position (mode=1)
  5: 0x013A [0x6F] WAIT_FRAME_DELAY: Yield until WaitTime reaches zero
  6: 0x013B [0x00] END_REQSTACK()
```

### Event 112

#### Metadata

| Field        | Value   |
|--------------|---------|
| Entrypoint   | 0x013C  |
| Data Size    | 1 bytes |
| Instructions | 1       |

```
      00 01 02 03 04 05 06 07  08 09 0A 0B 0C 0D 0E 0F
      -- -- -- -- -- -- -- --  -- -- -- -- -- -- -- --
0130:                                      00                       .   
```

#### Opcodes

```
  0: 0x013C [0x00] END_REQSTACK()
```

### Event 117

#### Metadata

| Field        | Value   |
|--------------|---------|
| Entrypoint   | 0x013D  |
| Data Size    | 1 bytes |
| Instructions | 1       |

```
      00 01 02 03 04 05 06 07  08 09 0A 0B 0C 0D 0E 0F
      -- -- -- -- -- -- -- --  -- -- -- -- -- -- -- --
0130:                                         00                     .  
```

#### Opcodes

```
  0: 0x013D [0x00] END_REQSTACK()
```

### Event 118

#### Metadata

| Field        | Value   |
|--------------|---------|
| Entrypoint   | 0x013E  |
| Data Size    | 1 bytes |
| Instructions | 1       |

```
      00 01 02 03 04 05 06 07  08 09 0A 0B 0C 0D 0E 0F
      -- -- -- -- -- -- -- --  -- -- -- -- -- -- -- --
0130:                                            00                   . 
```

#### Opcodes

```
  0: 0x013E [0x00] END_REQSTACK()
```

### Event 132

#### Metadata

| Field        | Value    |
|--------------|----------|
| Entrypoint   | 0x013F   |
| Data Size    | 68 bytes |
| Instructions | 14       |

```
      00 01 02 03 04 05 06 07  08 09 0A 0B 0C 0D 0E 0F
      -- -- -- -- -- -- -- --  -- -- -- -- -- -- -- --
0130:                                               1E                 .
0140: F0 FF FF 7F 1D 31 80 23  5B 01 80 09 A0 01 01 09  .....1.#[.......
0150: A0 01 01 74 6C 6B 30 1D  32 80 23 5B 01 80 09 A0  ...tlk0.2.#[....
0160: 01 01 09 A0 01 01 74 6C  6B 31 1D 33 80 23 5B 0C  ......tlk1.3.#[.
0170: 80 09 A0 01 01 09 A0 01  01 74 6C 6B 30 1D 34 80  .........tlk0.4.
0180: 23 21 00                                          #!.             
```

#### Opcodes

```
  0: 0x013F [0x1E] EventEntity looks at LocalPlayer and starts talking
  1: 0x0144 [0x1D] PRINT_EVENT_MESSAGE(message_id=10217*)
    → "I was relieved to hear that Sir Louverance would be taking Prishe into his custody."
  2: 0x0147 [0x23] WAIT_FOR_DIALOG_INTERACTION
  3: 0x0148 [0x5B] LOAD_EXT_SCHEDULER: Load scheduler "tlk0" with entities [Despachiaire (ID: 16883721/0x0101A009), Despachiaire (ID: 16883721/0x0101A009)], work=30*
  4: 0x0157 [0x1D] PRINT_EVENT_MESSAGE(message_id=10218*)
    → "She will be better off with the San d'Orian Cathedral seeing to her needs."
  5: 0x015A [0x23] WAIT_FOR_DIALOG_INTERACTION
  6: 0x015B [0x5B] LOAD_EXT_SCHEDULER: Load scheduler "tlk1" with entities [Despachiaire (ID: 16883721/0x0101A009), Despachiaire (ID: 16883721/0x0101A009)], work=30*
  7: 0x016A [0x1D] PRINT_EVENT_MESSAGE(message_id=10219*)
    → "However, I never imagined that Cardinal Mildaurion was capable of committing crimes against the Kingdom."
  8: 0x016D [0x23] WAIT_FOR_DIALOG_INTERACTION
  9: 0x016E [0x5B] LOAD_EXT_SCHEDULER: Load scheduler "tlk0" with entities [Despachiaire (ID: 16883721/0x0101A009), Despachiaire (ID: 16883721/0x0101A009)], work=497*
 10: 0x017D [0x1D] PRINT_EVENT_MESSAGE(message_id=10220*)
    → "To think that such a noble woman could resort to criminal activity... The heart is a mysterious thing. It can often change without even a hint of notice."
 11: 0x0180 [0x23] WAIT_FOR_DIALOG_INTERACTION
 12: 0x0181 [0x21] END_EVENT
 13: 0x0182 [0x00] END_REQSTACK()
```

### Event 133

#### Metadata

| Field        | Value    |
|--------------|----------|
| Entrypoint   | 0x0183   |
| Data Size    | 30 bytes |
| Instructions | 8        |

```
      00 01 02 03 04 05 06 07  08 09 0A 0B 0C 0D 0E 0F
      -- -- -- -- -- -- -- --  -- -- -- -- -- -- -- --
0180:          1E F0 FF FF 7F  1D 35 80 23 5B 01 80 09     ......5.#[...
0190: A0 01 01 09 A0 01 01 74  6C 6B 30 1D 36 80 23 21  .......tlk0.6.#!
01A0: 00                                                .               
```

#### Opcodes

```
  0: 0x0183 [0x1E] EventEntity looks at LocalPlayer and starts talking
  1: 0x0188 [0x1D] PRINT_EVENT_MESSAGE(message_id=10272*)
    → "A young Mithran sin hunter visited the safehold a number of days ago. She said she was searching for Prishe."
  2: 0x018B [0x23] WAIT_FOR_DIALOG_INTERACTION
  3: 0x018C [0x5B] LOAD_EXT_SCHEDULER: Load scheduler "tlk0" with entities [Despachiaire (ID: 16883721/0x0101A009), Despachiaire (ID: 16883721/0x0101A009)], work=30*
  4: 0x019B [0x1D] PRINT_EVENT_MESSAGE(message_id=10273*)
    → "If you can find her, perhaps she may be able to better inform you of the secrets behind the painting."
  5: 0x019E [0x23] WAIT_FOR_DIALOG_INTERACTION
  6: 0x019F [0x21] END_EVENT
  7: 0x01A0 [0x00] END_REQSTACK()
```

### Event 134

#### Metadata

| Field        | Value    |
|--------------|----------|
| Entrypoint   | 0x01A1   |
| Data Size    | 30 bytes |
| Instructions | 8        |

```
      00 01 02 03 04 05 06 07  08 09 0A 0B 0C 0D 0E 0F
      -- -- -- -- -- -- -- --  -- -- -- -- -- -- -- --
01A0:    1E F0 FF FF 7F 1D 37  80 23 5B 01 80 09 A0 01   ......7.#[.....
01B0: 01 09 A0 01 01 74 6C 6B  30 1D 38 80 23 21 00     .....tlk0.8.#!. 
```

#### Opcodes

```
  0: 0x01A1 [0x1E] EventEntity looks at LocalPlayer and starts talking
  1: 0x01A6 [0x1D] PRINT_EVENT_MESSAGE(message_id=10274*)
    → "As you know, a young Mithran sin hunter visited the safehold a number of days ago."
  2: 0x01A9 [0x23] WAIT_FOR_DIALOG_INTERACTION
  3: 0x01AA [0x5B] LOAD_EXT_SCHEDULER: Load scheduler "tlk0" with entities [Despachiaire (ID: 16883721/0x0101A009), Despachiaire (ID: 16883721/0x0101A009)], work=30*
  4: 0x01B9 [0x1D] PRINT_EVENT_MESSAGE(message_id=10275*)
    → "I cannot imagine for what reasons she visited us. However, if you can find her, she may be able to better inform you of the secrets behind the painting."
  5: 0x01BC [0x23] WAIT_FOR_DIALOG_INTERACTION
  6: 0x01BD [0x21] END_EVENT
  7: 0x01BE [0x00] END_REQSTACK()
```

### Event 65535.9

#### Metadata

| Field        | Value    |
|--------------|----------|
| Entrypoint   | 0x01BF   |
| Data Size    | 16 bytes |
| Instructions | 2        |

```
      00 01 02 03 04 05 06 07  08 09 0A 0B 0C 0D 0E 0F
      -- -- -- -- -- -- -- --  -- -- -- -- -- -- -- --
01B0:                                               5B                 [
01C0: 01 80 F8 FF FF 7F F8 FF  FF 7F 74 68 6B 31 00     ..........thk1. 
```

#### Opcodes

```
  0: 0x01BF [0x5B] LOAD_EXT_SCHEDULER: Load scheduler "thk1" with entities [EventEntity, EventEntity], work=30*
  1: 0x01CE [0x00] END_REQSTACK()
```

### Event 65535.10

#### Metadata

| Field        | Value    |
|--------------|----------|
| Entrypoint   | 0x01CF   |
| Data Size    | 14 bytes |
| Instructions | 2        |

```
      00 01 02 03 04 05 06 07  08 09 0A 0B 0C 0D 0E 0F
      -- -- -- -- -- -- -- --  -- -- -- -- -- -- -- --
01C0:                                               53                 S
01D0: F8 FF FF 7F F8 FF FF 7F  74 68 6B 31 00           ........thk1.   
```

#### Opcodes

```
  0: 0x01CF [0x53] WAIT_SCHEDULER_TASK: Wait for scheduler "thk1" with entities [EventEntity, EventEntity]
  1: 0x01DC [0x00] END_REQSTACK()
```

### Event 65535.11

#### Metadata

| Field        | Value    |
|--------------|----------|
| Entrypoint   | 0x01DD   |
| Data Size    | 16 bytes |
| Instructions | 2        |

```
      00 01 02 03 04 05 06 07  08 09 0A 0B 0C 0D 0E 0F
      -- -- -- -- -- -- -- --  -- -- -- -- -- -- -- --
01D0:                                         5B 01 80               [..
01E0: F8 FF FF 7F F8 FF FF 7F  74 68 6B 32 00           ........thk2.   
```

#### Opcodes

```
  0: 0x01DD [0x5B] LOAD_EXT_SCHEDULER: Load scheduler "thk2" with entities [EventEntity, EventEntity], work=30*
  1: 0x01EC [0x00] END_REQSTACK()
```

### Event 65535.12

#### Metadata

| Field        | Value    |
|--------------|----------|
| Entrypoint   | 0x01ED   |
| Data Size    | 14 bytes |
| Instructions | 2        |

```
      00 01 02 03 04 05 06 07  08 09 0A 0B 0C 0D 0E 0F
      -- -- -- -- -- -- -- --  -- -- -- -- -- -- -- --
01E0:                                         53 F8 FF               S..
01F0: FF 7F F8 FF FF 7F 74 68  6B 32 00                 ......thk2.     
```

#### Opcodes

```
  0: 0x01ED [0x53] WAIT_SCHEDULER_TASK: Wait for scheduler "thk2" with entities [EventEntity, EventEntity]
  1: 0x01FA [0x00] END_REQSTACK()
```

### Event 65535.13

#### Metadata

| Field        | Value    |
|--------------|----------|
| Entrypoint   | 0x01FB   |
| Data Size    | 16 bytes |
| Instructions | 2        |

```
      00 01 02 03 04 05 06 07  08 09 0A 0B 0C 0D 0E 0F
      -- -- -- -- -- -- -- --  -- -- -- -- -- -- -- --
01F0:                                   5B 01 80 F8 FF             [....
0200: FF 7F F8 FF FF 7F 74 6C  6B 30 00                 ......tlk0.     
```

#### Opcodes

```
  0: 0x01FB [0x5B] LOAD_EXT_SCHEDULER: Load scheduler "tlk0" with entities [EventEntity, EventEntity], work=30*
  1: 0x020A [0x00] END_REQSTACK()
```

### Event 65535.14

#### Metadata

| Field        | Value    |
|--------------|----------|
| Entrypoint   | 0x020B   |
| Data Size    | 14 bytes |
| Instructions | 2        |

```
      00 01 02 03 04 05 06 07  08 09 0A 0B 0C 0D 0E 0F
      -- -- -- -- -- -- -- --  -- -- -- -- -- -- -- --
0200:                                   53 F8 FF FF 7F             S....
0210: F8 FF FF 7F 74 6C 6B 30  00                       ....tlk0.       
```

#### Opcodes

```
  0: 0x020B [0x53] WAIT_SCHEDULER_TASK: Wait for scheduler "tlk0" with entities [EventEntity, EventEntity]
  1: 0x0218 [0x00] END_REQSTACK()
```

### Event 65535.15

#### Metadata

| Field        | Value    |
|--------------|----------|
| Entrypoint   | 0x0219   |
| Data Size    | 16 bytes |
| Instructions | 2        |

```
      00 01 02 03 04 05 06 07  08 09 0A 0B 0C 0D 0E 0F
      -- -- -- -- -- -- -- --  -- -- -- -- -- -- -- --
0210:                             5B 01 80 F8 FF FF 7F           [......
0220: F8 FF FF 7F 74 6C 6B 31  00                       ....tlk1.       
```

#### Opcodes

```
  0: 0x0219 [0x5B] LOAD_EXT_SCHEDULER: Load scheduler "tlk1" with entities [EventEntity, EventEntity], work=30*
  1: 0x0228 [0x00] END_REQSTACK()
```

### Event 65535.16

#### Metadata

| Field        | Value    |
|--------------|----------|
| Entrypoint   | 0x0229   |
| Data Size    | 14 bytes |
| Instructions | 2        |

```
      00 01 02 03 04 05 06 07  08 09 0A 0B 0C 0D 0E 0F
      -- -- -- -- -- -- -- --  -- -- -- -- -- -- -- --
0220:                             53 F8 FF FF 7F F8 FF           S......
0230: FF 7F 74 6C 6B 31 00                              ..tlk1.         
```

#### Opcodes

```
  0: 0x0229 [0x53] WAIT_SCHEDULER_TASK: Wait for scheduler "tlk1" with entities [EventEntity, EventEntity]
  1: 0x0236 [0x00] END_REQSTACK()
```

### Event 65535.17

#### Metadata

| Field        | Value    |
|--------------|----------|
| Entrypoint   | 0x0237   |
| Data Size    | 29 bytes |
| Instructions | 3        |

```
      00 01 02 03 04 05 06 07  08 09 0A 0B 0C 0D 0E 0F
      -- -- -- -- -- -- -- --  -- -- -- -- -- -- -- --
0230:                      5B  01 80 F8 FF FF 7F F8 FF         [........
0240: FF 7F 70 61 73 30 53 F8  FF FF 7F F8 FF FF 7F 70  ..pas0S........p
0250: 61 73 30 00                                       as0.            
```

#### Opcodes

```
  0: 0x0237 [0x5B] LOAD_EXT_SCHEDULER: Load scheduler "pas0" with entities [EventEntity, EventEntity], work=30*
  1: 0x0246 [0x53] WAIT_SCHEDULER_TASK: Wait for scheduler "pas0" with entities [EventEntity, EventEntity]
  2: 0x0253 [0x00] END_REQSTACK()
```

### Event 139

#### Metadata

| Field        | Value   |
|--------------|---------|
| Entrypoint   | 0x0254  |
| Data Size    | 1 bytes |
| Instructions | 1       |

```
      00 01 02 03 04 05 06 07  08 09 0A 0B 0C 0D 0E 0F
      -- -- -- -- -- -- -- --  -- -- -- -- -- -- -- --
0250:             00                                        .           
```

#### Opcodes

```
  0: 0x0254 [0x00] END_REQSTACK()
```

### Event 65535.18

#### Metadata

| Field        | Value    |
|--------------|----------|
| Entrypoint   | 0x0255   |
| Data Size    | 10 bytes |
| Instructions | 2        |

```
      00 01 02 03 04 05 06 07  08 09 0A 0B 0C 0D 0E 0F
      -- -- -- -- -- -- -- --  -- -- -- -- -- -- -- --
0250:                37 39 80  3A 80 0A 80 3B 80 00          79.:...;.. 
```

#### Opcodes

```
  0: 0x0255 [0x37] UPDATE_EVENT_POSITION_AND_DIR: x=109.535*, z=-84.574*, y=-40.015*, direction=213.8°*
  1: 0x025E [0x00] END_REQSTACK()
```

### Event 65535.19

#### Metadata

| Field        | Value    |
|--------------|----------|
| Entrypoint   | 0x025F   |
| Data Size    | 15 bytes |
| Instructions | 5        |

```
      00 01 02 03 04 05 06 07  08 09 0A 0B 0C 0D 0E 0F
      -- -- -- -- -- -- -- --  -- -- -- -- -- -- -- --
0250:                                               32                 2
0260: 3C 80 1F 00 3D 80 3E 80  13 80 1F 01 6F 00        <...=.>.....o.  
```

#### Opcodes

```
  0: 0x025F [0x32] ExtData[1]->MainSpeed = 13* * 0.1
  1: 0x0262 [0x1F] MOVE_ENTITY: EventEntity moves to X=110.474*, Z=-86.972*, Y=-40.000*
  2: 0x026A [0x1F] MOVE_ENTITY: Update entity position (mode=1)
  3: 0x026C [0x6F] WAIT_FRAME_DELAY: Yield until WaitTime reaches zero
  4: 0x026D [0x00] END_REQSTACK()
```

### Event 144

#### Metadata

| Field        | Value    |
|--------------|----------|
| Entrypoint   | 0x026E   |
| Data Size    | 19 bytes |
| Instructions | 10       |

```
      00 01 02 03 04 05 06 07  08 09 0A 0B 0C 0D 0E 0F
      -- -- -- -- -- -- -- --  -- -- -- -- -- -- -- --
0260:                                            1E F0                ..
0270: FF FF 7F 6F 70 1D 3F 80  23 1D 40 80 23 20 00 21  ...op.?.#.@.# .!
0280: 00                                                .               
```

#### Opcodes

```
  0: 0x026E [0x1E] EventEntity looks at LocalPlayer and starts talking
  1: 0x0273 [0x6F] WAIT_FRAME_DELAY: Yield until WaitTime reaches zero
  2: 0x0274 [0x70] WAIT_ENTITY_RENDER_FLAG: Wait while EventEntity->Render.Flags3 bit 2 is set (cancel turn if not)
  3: 0x0275 [0x1D] PRINT_EVENT_MESSAGE(message_id=10453*)
    → "Whatever could she have been searching for in Prishe's quarters?"
  4: 0x0278 [0x23] WAIT_FOR_DIALOG_INTERACTION
  5: 0x0279 [0x1D] PRINT_EVENT_MESSAGE(message_id=10454*)
    → "I do hope this matter will not bring misfortune upon our already beleaguered community..."
  6: 0x027C [0x23] WAIT_FOR_DIALOG_INTERACTION
  7: 0x027D [0x20] SET_CLI_EVENT_UC_FLAG: Unlock player control
  8: 0x027F [0x21] END_EVENT
  9: 0x0280 [0x00] END_REQSTACK()
```

### Event 149

#### Metadata

| Field        | Value    |
|--------------|----------|
| Entrypoint   | 0x0281   |
| Data Size    | 11 bytes |
| Instructions | 6        |

```
      00 01 02 03 04 05 06 07  08 09 0A 0B 0C 0D 0E 0F
      -- -- -- -- -- -- -- --  -- -- -- -- -- -- -- --
0280:    1E F0 FF FF 7F 6F 70  20 00 21 00               .....op .!.    
```

#### Opcodes

```
  0: 0x0281 [0x1E] EventEntity looks at LocalPlayer and starts talking
  1: 0x0286 [0x6F] WAIT_FRAME_DELAY: Yield until WaitTime reaches zero
  2: 0x0287 [0x70] WAIT_ENTITY_RENDER_FLAG: Wait while EventEntity->Render.Flags3 bit 2 is set (cancel turn if not)
  3: 0x0288 [0x20] SET_CLI_EVENT_UC_FLAG: Unlock player control
  4: 0x028A [0x21] END_EVENT
  5: 0x028B [0x00] END_REQSTACK()
```

### Event 315

#### Metadata

| Field        | Value    |
|--------------|----------|
| Entrypoint   | 0x028C   |
| Data Size    | 30 bytes |
| Instructions | 8        |

```
      00 01 02 03 04 05 06 07  08 09 0A 0B 0C 0D 0E 0F
      -- -- -- -- -- -- -- --  -- -- -- -- -- -- -- --
0280:                                      1E F0 FF FF              ....
0290: 7F 1D 41 80 23 5B 01 80  F8 FF FF 7F F8 FF FF 7F  ..A.#[..........
02A0: 74 6C 6B 30 1D 42 80 23  21 00                    tlk0.B.#!.      
```

#### Opcodes

```
  0: 0x028C [0x1E] EventEntity looks at LocalPlayer and starts talking
  1: 0x0291 [0x1D] PRINT_EVENT_MESSAGE(message_id=11038*)
    → "The nation of Jeuno has offered its hand to help lift up the ailing Tavnazia."
  2: 0x0294 [0x23] WAIT_FOR_DIALOG_INTERACTION
  3: 0x0295 [0x5B] LOAD_EXT_SCHEDULER: Load scheduler "tlk0" with entities [EventEntity, EventEntity], work=30*
  4: 0x02A4 [0x1D] PRINT_EVENT_MESSAGE(message_id=11039*)
    → "None of this would have been possible were it not for the kindness of Sir Nag'molada."
  5: 0x02A7 [0x23] WAIT_FOR_DIALOG_INTERACTION
  6: 0x02A8 [0x21] END_EVENT
  7: 0x02A9 [0x00] END_REQSTACK()
```

### Event 317

#### Metadata

| Field        | Value    |
|--------------|----------|
| Entrypoint   | 0x02AA   |
| Data Size    | 30 bytes |
| Instructions | 8        |

```
      00 01 02 03 04 05 06 07  08 09 0A 0B 0C 0D 0E 0F
      -- -- -- -- -- -- -- --  -- -- -- -- -- -- -- --
02A0:                                1E F0 FF FF 7F 1D            ......
02B0: 43 80 23 5B 01 80 F8 FF  FF 7F F8 FF FF 7F 74 6C  C.#[..........tl
02C0: 6B 30 1D 44 80 23 21 00                           k0.D.#!.        
```

#### Opcodes

```
  0: 0x02AA [0x1E] EventEntity looks at LocalPlayer and starts talking
  1: 0x02AF [0x1D] PRINT_EVENT_MESSAGE(message_id=11044*)
    → "Is Ulmia... Is my granddaughter well?"
  2: 0x02B2 [0x23] WAIT_FOR_DIALOG_INTERACTION
  3: 0x02B3 [0x5B] LOAD_EXT_SCHEDULER: Load scheduler "tlk0" with entities [EventEntity, EventEntity], work=30*
  4: 0x02C2 [0x1D] PRINT_EVENT_MESSAGE(message_id=11045*)
    → "Please... I beg of you, do not let anything harm her."
  5: 0x02C5 [0x23] WAIT_FOR_DIALOG_INTERACTION
  6: 0x02C6 [0x21] END_EVENT
  7: 0x02C7 [0x00] END_REQSTACK()
```

### Event 318

#### Metadata

| Field        | Value    |
|--------------|----------|
| Entrypoint   | 0x02C8   |
| Data Size    | 49 bytes |
| Instructions | 11       |

```
      00 01 02 03 04 05 06 07  08 09 0A 0B 0C 0D 0E 0F
      -- -- -- -- -- -- -- --  -- -- -- -- -- -- -- --
02C0:                          1E F0 FF FF 7F 1D 45 80          ......E.
02D0: 23 5B 0C 80 09 A0 01 01  09 A0 01 01 74 6C 6B 30  #[..........tlk0
02E0: 1D 46 80 23 5B 0C 80 09  A0 01 01 09 A0 01 01 74  .F.#[..........t
02F0: 6C 6B 31 1D 47 80 23 21  00                       lk1.G.#!.       
```

#### Opcodes

```
  0: 0x02C8 [0x1E] EventEntity looks at LocalPlayer and starts talking
  1: 0x02CD [0x1D] PRINT_EVENT_MESSAGE(message_id=11046*)
    → "I have given up trying to hold Ulmia back."
  2: 0x02D0 [0x23] WAIT_FOR_DIALOG_INTERACTION
  3: 0x02D1 [0x5B] LOAD_EXT_SCHEDULER: Load scheduler "tlk0" with entities [Despachiaire (ID: 16883721/0x0101A009), Despachiaire (ID: 16883721/0x0101A009)], work=497*
  4: 0x02E0 [0x1D] PRINT_EVENT_MESSAGE(message_id=11047*)
    → "She has the right to see the world for what it is, and find the destiny that awaits her."
  5: 0x02E3 [0x23] WAIT_FOR_DIALOG_INTERACTION
  6: 0x02E4 [0x5B] LOAD_EXT_SCHEDULER: Load scheduler "tlk1" with entities [Despachiaire (ID: 16883721/0x0101A009), Despachiaire (ID: 16883721/0x0101A009)], work=497*
  7: 0x02F3 [0x1D] PRINT_EVENT_MESSAGE(message_id=11048*)
    → "I now realize that my duty as a grandfather is not to control her, but to watch over her as she walks her own path."
  8: 0x02F6 [0x23] WAIT_FOR_DIALOG_INTERACTION
  9: 0x02F7 [0x21] END_EVENT
 10: 0x02F8 [0x00] END_REQSTACK()
```

### Event 65535.20

#### Metadata

| Field        | Value    |
|--------------|----------|
| Entrypoint   | 0x02F9   |
| Data Size    | 15 bytes |
| Instructions | 5        |

```
      00 01 02 03 04 05 06 07  08 09 0A 0B 0C 0D 0E 0F
      -- -- -- -- -- -- -- --  -- -- -- -- -- -- -- --
02F0:                             32 3C 80 1F 00 48 80           2<...H.
0300: 49 80 0A 80 1F 01 6F 00                           I.....o.        
```

#### Opcodes

```
  0: 0x02F9 [0x32] ExtData[1]->MainSpeed = 13* * 0.1
  1: 0x02FC [0x1F] MOVE_ENTITY: EventEntity moves to X=109.979*, Z=-83.590*, Y=-40.015*
  2: 0x0304 [0x1F] MOVE_ENTITY: Update entity position (mode=1)
  3: 0x0306 [0x6F] WAIT_FRAME_DELAY: Yield until WaitTime reaches zero
  4: 0x0307 [0x00] END_REQSTACK()
```

### Event 505

#### Metadata

| Field        | Value   |
|--------------|---------|
| Entrypoint   | 0x0308  |
| Data Size    | 1 bytes |
| Instructions | 1       |

```
      00 01 02 03 04 05 06 07  08 09 0A 0B 0C 0D 0E 0F
      -- -- -- -- -- -- -- --  -- -- -- -- -- -- -- --
0300:                          00                               .       
```

#### Opcodes

```
  0: 0x0308 [0x00] END_REQSTACK()
```

### Event 65535.21

#### Metadata

| Field        | Value    |
|--------------|----------|
| Entrypoint   | 0x0309   |
| Data Size    | 43 bytes |
| Instructions | 7        |

```
      00 01 02 03 04 05 06 07  08 09 0A 0B 0C 0D 0E 0F
      -- -- -- -- -- -- -- --  -- -- -- -- -- -- -- --
0300:                             32 03 80 1F 00 4A 80           2....J.
0310: 4B 80 0A 80 1F 01 6F 5B  0C 80 09 A0 01 01 09 A0  K.....o[........
0320: 01 01 74 6C 6B 30 53 09  A0 01 01 09 A0 01 01 74  ..tlk0S........t
0330: 6C 6B 30 00                                       lk0.            
```

#### Opcodes

```
  0: 0x0309 [0x32] ExtData[1]->MainSpeed = 10* * 0.1
  1: 0x030C [0x1F] MOVE_ENTITY: EventEntity moves to X=106.132*, Z=-81.291*, Y=-40.015*
  2: 0x0314 [0x1F] MOVE_ENTITY: Update entity position (mode=1)
  3: 0x0316 [0x6F] WAIT_FRAME_DELAY: Yield until WaitTime reaches zero
  4: 0x0317 [0x5B] LOAD_EXT_SCHEDULER: Load scheduler "tlk0" with entities [Despachiaire (ID: 16883721/0x0101A009), Despachiaire (ID: 16883721/0x0101A009)], work=497*
  5: 0x0326 [0x53] WAIT_SCHEDULER_TASK: Wait for scheduler "tlk0" with entities [Despachiaire (ID: 16883721/0x0101A009), Despachiaire (ID: 16883721/0x0101A009)]
  6: 0x0333 [0x00] END_REQSTACK()
```

### Event 517

#### Metadata

| Field        | Value   |
|--------------|---------|
| Entrypoint   | 0x0334  |
| Data Size    | 1 bytes |
| Instructions | 1       |

```
      00 01 02 03 04 05 06 07  08 09 0A 0B 0C 0D 0E 0F
      -- -- -- -- -- -- -- --  -- -- -- -- -- -- -- --
0330:             00                                        .           
```

#### Opcodes

```
  0: 0x0334 [0x00] END_REQSTACK()
```

### Event 518

#### Metadata

| Field        | Value   |
|--------------|---------|
| Entrypoint   | 0x0335  |
| Data Size    | 1 bytes |
| Instructions | 1       |

```
      00 01 02 03 04 05 06 07  08 09 0A 0B 0C 0D 0E 0F
      -- -- -- -- -- -- -- --  -- -- -- -- -- -- -- --
0330:                00                                      .          
```

#### Opcodes

```
  0: 0x0335 [0x00] END_REQSTACK()
```

### Event 65535.22

#### Metadata

| Field        | Value    |
|--------------|----------|
| Entrypoint   | 0x0336   |
| Data Size    | 15 bytes |
| Instructions | 5        |

```
      00 01 02 03 04 05 06 07  08 09 0A 0B 0C 0D 0E 0F
      -- -- -- -- -- -- -- --  -- -- -- -- -- -- -- --
0330:                   32 03  80 1F 00 4C 80 4D 80 13        2....L.M..
0340: 80 1F 01 6F 00                                    ...o.           
```

#### Opcodes

```
  0: 0x0336 [0x32] ExtData[1]->MainSpeed = 10* * 0.1
  1: 0x0339 [0x1F] MOVE_ENTITY: EventEntity moves to X=107.984*, Z=-86.900*, Y=-40.000*
  2: 0x0341 [0x1F] MOVE_ENTITY: Update entity position (mode=1)
  3: 0x0343 [0x6F] WAIT_FRAME_DELAY: Yield until WaitTime reaches zero
  4: 0x0344 [0x00] END_REQSTACK()
```

### Event 65535.23

#### Metadata

| Field        | Value    |
|--------------|----------|
| Entrypoint   | 0x0345   |
| Data Size    | 23 bytes |
| Instructions | 5        |

```
      00 01 02 03 04 05 06 07  08 09 0A 0B 0C 0D 0E 0F
      -- -- -- -- -- -- -- --  -- -- -- -- -- -- -- --
0340:                32 03 80  1F 00 4E 80 4F 80 13 80       2....N.O...
0350: 1F 01 37 50 80 51 80 52  80 53 80 00              ..7P.Q.R.S..    
```

#### Opcodes

```
  0: 0x0345 [0x32] ExtData[1]->MainSpeed = 10* * 0.1
  1: 0x0348 [0x1F] MOVE_ENTITY: EventEntity moves to X=103.628*, Z=-88.000*, Y=-40.000*
  2: 0x0350 [0x1F] MOVE_ENTITY: Update entity position (mode=1)
  3: 0x0352 [0x37] UPDATE_EVENT_POSITION_AND_DIR: x=100.393*, z=-80.784*, y=-36.000*, direction=9.8°*
  4: 0x035B [0x00] END_REQSTACK()
```

### Event 65535.24

#### Metadata

| Field        | Value    |
|--------------|----------|
| Entrypoint   | 0x035C   |
| Data Size    | 17 bytes |
| Instructions | 6        |

```
      00 01 02 03 04 05 06 07  08 09 0A 0B 0C 0D 0E 0F
      -- -- -- -- -- -- -- --  -- -- -- -- -- -- -- --
0350:                                      32 03 80 1F              2...
0360: 00 54 80 55 80 13 80 1F  01 6F 33 01 00           .T.U.....o3..   
```

#### Opcodes

```
  0: 0x035C [0x32] ExtData[1]->MainSpeed = 10* * 0.1
  1: 0x035F [0x1F] MOVE_ENTITY: EventEntity moves to X=110.013*, Z=-87.666*, Y=-40.000*
  2: 0x0367 [0x1F] MOVE_ENTITY: Update entity position (mode=1)
  3: 0x0369 [0x6F] WAIT_FRAME_DELAY: Yield until WaitTime reaches zero
  4: 0x036A [0x33] EventEntity->Render.Flags0 |= 0x200000 // Bit 21 (flag=0x01)
  5: 0x036C [0x00] END_REQSTACK()
```
