# 16883827 - Jonette

## Common Data

| Field            | Value                       |
|------------------|-----------------------------|
| Zone             | Tavnazian Safehold (ID: 26) |
| Block Size       | 388 bytes                   |
| Total Events     | 6                           |
| References Count | 20                          |

## List of Events

| Event ID              | Entrypoint   |   Size |   Instructions |
|-----------------------|--------------|--------|----------------|
| [65535](#event-65535) | 0x0000       |      1 |              1 |
| [365](#event-365)     | 0x0001       |     30 |              8 |
| [366](#event-366)     | 0x001F       |     30 |              8 |
| [506](#event-506)     | 0x003D       |     92 |             20 |
| [507](#event-507)     | 0x0099       |     31 |              9 |
| [508](#event-508)     | 0x00B8       |     84 |             16 |

## DAT References (imed_data)

|   Index | Hex Value   |   Dec Value |
|---------|-------------|-------------|
|       0 | 0x2B57      |       11095 |
|       1 | 0x0046      |          70 |
|       2 | 0x2B58      |       11096 |
|       3 | 0x2B59      |       11097 |
|       4 | 0x2B5A      |       11098 |
|       5 | 0x2B9C      |       11164 |
|       6 | 0x2B9D      |       11165 |
|       7 | 0x2B9E      |       11166 |
|       8 | 0x2B9F      |       11167 |
|       9 | 0x2BA0      |       11168 |
|      10 | 0x2BA1      |       11169 |
|      11 | 0x2BA5      |       11173 |
|      12 | 0x2BA6      |       11174 |
|      13 | 0x026E      |         622 |
|      14 | 0x2BA2      |       11170 |
|      15 | 0x2BA3      |       11171 |
|      16 | 0x000A      |          10 |
|      17 | 0x2BA4      |       11172 |
|      18 | 0x00C9      |         201 |
|      19 | 0x0000      |           0 |

## String References

- **11095**: I feel sorry for the children all cooped up here in the safehold, but it is just too dangerous to allow them to play outside.
- **11096**: I will not say who, but there are three troublemakers who have taken it upon themselves to ignore this rule.
- **11097**: After returning from Jeuno, those troublesome Tarutaru personally delivered a barrel of supplies to my quarters.
- **11098**: Maybe I was wrong about them...
- **11164**: Ah, you wouldn't happen to be an adventurer, would you? I usually avoid pestering others with my problems, but I find myself in a fix.
- **11165**: Recently, I have begun studying traditional Tavnazian cooking methods.
- **11166**: However, our libraries contain no books on the subject, and the mists of time have clouded the memories of the safehold elders.
- **11167**: Our current state of affairs limits the bounty that we can bring to our children's plates. That is why I felt that rekindling the culinary arts of Tavnazia's past would rejuvenate the spirits of this cave's weary souls.
- **11168**: You wouldn't have happened to come across anything on your journey that may be of use, would you?
- **11169**: If you were to find something, I would be so grateful...as would all the other safehold residents.
- **11170**: $6! This is exactly the information I have been searching for!
- **11171**: Your kindness is a blessing that will bring smiles to the dinner tables of Tavnazia.
- **11172**: I know it is not much, but please accept this as a token of my appreciation.
- **11173**: The information you have brought me on Tavnazian cuisine has been a wonderful help!
- **11174**: If you happen to find any more, the children would be so delighted.

## Events

### Event 65535

#### Metadata

| Field        | Value   |
|--------------|---------|
| Entrypoint   | 0x0000  |
| Data Size    | 1 bytes |
| Instructions | 1       |

```
      00 01 02 03 04 05 06 07  08 09 0A 0B 0C 0D 0E 0F
      -- -- -- -- -- -- -- --  -- -- -- -- -- -- -- --
0000: 00                                                .               
```

#### Opcodes

```
  0: 0x0000 [0x00] END_REQSTACK()
```

### Event 365

#### Metadata

| Field        | Value    |
|--------------|----------|
| Entrypoint   | 0x0001   |
| Data Size    | 30 bytes |
| Instructions | 8        |

```
      00 01 02 03 04 05 06 07  08 09 0A 0B 0C 0D 0E 0F
      -- -- -- -- -- -- -- --  -- -- -- -- -- -- -- --
0000:    1E F0 FF FF 7F 1D 00  80 23 5B 01 80 F8 FF FF   ........#[.....
0010: 7F F8 FF FF 7F 74 6C 6B  30 1D 02 80 23 21 00     .....tlk0...#!. 
```

#### Opcodes

```
  0: 0x0001 [0x1E] EventEntity looks at LocalPlayer and starts talking
  1: 0x0006 [0x1D] PRINT_EVENT_MESSAGE(message_id=11095*)
    → "I feel sorry for the children all cooped up here in the safehold, but it is just too dangerous to allow them to play outside."
  2: 0x0009 [0x23] WAIT_FOR_DIALOG_INTERACTION
  3: 0x000A [0x5B] LOAD_EXT_SCHEDULER: Load scheduler "tlk0" with entities [EventEntity, EventEntity], work=70*
  4: 0x0019 [0x1D] PRINT_EVENT_MESSAGE(message_id=11096*)
    → "I will not say who, but there are three troublemakers who have taken it upon themselves to ignore this rule."
  5: 0x001C [0x23] WAIT_FOR_DIALOG_INTERACTION
  6: 0x001D [0x21] END_EVENT
  7: 0x001E [0x00] END_REQSTACK()
```

### Event 366

#### Metadata

| Field        | Value    |
|--------------|----------|
| Entrypoint   | 0x001F   |
| Data Size    | 30 bytes |
| Instructions | 8        |

```
      00 01 02 03 04 05 06 07  08 09 0A 0B 0C 0D 0E 0F
      -- -- -- -- -- -- -- --  -- -- -- -- -- -- -- --
0010:                                               1E                 .
0020: F0 FF FF 7F 1D 03 80 23  5B 01 80 F8 FF FF 7F F8  .......#[.......
0030: FF FF 7F 74 6C 6B 30 1D  04 80 23 21 00           ...tlk0...#!.   
```

#### Opcodes

```
  0: 0x001F [0x1E] EventEntity looks at LocalPlayer and starts talking
  1: 0x0024 [0x1D] PRINT_EVENT_MESSAGE(message_id=11097*)
    → "After returning from Jeuno, those troublesome Tarutaru personally delivered a barrel of supplies to my quarters."
  2: 0x0027 [0x23] WAIT_FOR_DIALOG_INTERACTION
  3: 0x0028 [0x5B] LOAD_EXT_SCHEDULER: Load scheduler "tlk0" with entities [EventEntity, EventEntity], work=70*
  4: 0x0037 [0x1D] PRINT_EVENT_MESSAGE(message_id=11098*)
    → "Maybe I was wrong about them..."
  5: 0x003A [0x23] WAIT_FOR_DIALOG_INTERACTION
  6: 0x003B [0x21] END_EVENT
  7: 0x003C [0x00] END_REQSTACK()
```

### Event 506

#### Metadata

| Field        | Value    |
|--------------|----------|
| Entrypoint   | 0x003D   |
| Data Size    | 92 bytes |
| Instructions | 20       |

```
      00 01 02 03 04 05 06 07  08 09 0A 0B 0C 0D 0E 0F
      -- -- -- -- -- -- -- --  -- -- -- -- -- -- -- --
0030:                                         42 1E F0               B..
0040: FF FF 7F 1D 05 80 23 5B  01 80 F8 FF FF 7F F8 FF  ......#[........
0050: FF 7F 74 6C 6B 30 1D 06  80 23 5B 01 80 F8 FF FF  ..tlk0...#[.....
0060: 7F F8 FF FF 7F 74 6C 6B  31 1D 07 80 23 5B 01 80  .....tlk1...#[..
0070: F8 FF FF 7F F8 FF FF 7F  74 68 6B 31 1D 08 80 23  ........thk1...#
0080: 1D 09 80 23 5B 01 80 F8  FF FF 7F F8 FF FF 7F 74  ...#[..........t
0090: 68 6B 32 1D 0A 80 23 21  00                       hk2...#!.       
```

#### Opcodes

```
  0: 0x003D [0x42] SET_CLI_EVENT_CANCEL_DATA()
  1: 0x003E [0x1E] EventEntity looks at LocalPlayer and starts talking
  2: 0x0043 [0x1D] PRINT_EVENT_MESSAGE(message_id=11164*)
    → "Ah, you wouldn't happen to be an adventurer, would you? I usually avoid pestering others with my problems, but I find myself in a fix."
  3: 0x0046 [0x23] WAIT_FOR_DIALOG_INTERACTION
  4: 0x0047 [0x5B] LOAD_EXT_SCHEDULER: Load scheduler "tlk0" with entities [EventEntity, EventEntity], work=70*
  5: 0x0056 [0x1D] PRINT_EVENT_MESSAGE(message_id=11165*)
    → "Recently, I have begun studying traditional Tavnazian cooking methods."
  6: 0x0059 [0x23] WAIT_FOR_DIALOG_INTERACTION
  7: 0x005A [0x5B] LOAD_EXT_SCHEDULER: Load scheduler "tlk1" with entities [EventEntity, EventEntity], work=70*
  8: 0x0069 [0x1D] PRINT_EVENT_MESSAGE(message_id=11166*)
    → "However, our libraries contain no books on the subject, and the mists of time have clouded the memories of the safehold elders."
  9: 0x006C [0x23] WAIT_FOR_DIALOG_INTERACTION
 10: 0x006D [0x5B] LOAD_EXT_SCHEDULER: Load scheduler "thk1" with entities [EventEntity, EventEntity], work=70*
 11: 0x007C [0x1D] PRINT_EVENT_MESSAGE(message_id=11167*)
    → "Our current state of affairs limits the bounty that we can bring to our children's plates. That is why I felt that rekindling the culinary arts of Tavnazia's past would rejuvenate the spirits of this cave's weary souls."
 12: 0x007F [0x23] WAIT_FOR_DIALOG_INTERACTION
 13: 0x0080 [0x1D] PRINT_EVENT_MESSAGE(message_id=11168*)
    → "You wouldn't have happened to come across anything on your journey that may be of use, would you?"
 14: 0x0083 [0x23] WAIT_FOR_DIALOG_INTERACTION
 15: 0x0084 [0x5B] LOAD_EXT_SCHEDULER: Load scheduler "thk2" with entities [EventEntity, EventEntity], work=70*
 16: 0x0093 [0x1D] PRINT_EVENT_MESSAGE(message_id=11169*)
    → "If you were to find something, I would be so grateful...as would all the other safehold residents."
 17: 0x0096 [0x23] WAIT_FOR_DIALOG_INTERACTION
 18: 0x0097 [0x21] END_EVENT
 19: 0x0098 [0x00] END_REQSTACK()
```

### Event 507

#### Metadata

| Field        | Value    |
|--------------|----------|
| Entrypoint   | 0x0099   |
| Data Size    | 31 bytes |
| Instructions | 9        |

```
      00 01 02 03 04 05 06 07  08 09 0A 0B 0C 0D 0E 0F
      -- -- -- -- -- -- -- --  -- -- -- -- -- -- -- --
0090:                             42 1E F0 FF FF 7F 1D           B......
00A0: 0B 80 23 5B 01 80 F8 FF  FF 7F F8 FF FF 7F 74 6C  ..#[..........tl
00B0: 6B 30 1D 0C 80 23 21 00                           k0...#!.        
```

#### Opcodes

```
  0: 0x0099 [0x42] SET_CLI_EVENT_CANCEL_DATA()
  1: 0x009A [0x1E] EventEntity looks at LocalPlayer and starts talking
  2: 0x009F [0x1D] PRINT_EVENT_MESSAGE(message_id=11173*)
    → "The information you have brought me on Tavnazian cuisine has been a wonderful help!"
  3: 0x00A2 [0x23] WAIT_FOR_DIALOG_INTERACTION
  4: 0x00A3 [0x5B] LOAD_EXT_SCHEDULER: Load scheduler "tlk0" with entities [EventEntity, EventEntity], work=70*
  5: 0x00B2 [0x1D] PRINT_EVENT_MESSAGE(message_id=11174*)
    → "If you happen to find any more, the children would be so delighted."
  6: 0x00B5 [0x23] WAIT_FOR_DIALOG_INTERACTION
  7: 0x00B6 [0x21] END_EVENT
  8: 0x00B7 [0x00] END_REQSTACK()
```

### Event 508

#### Metadata

| Field        | Value    |
|--------------|----------|
| Entrypoint   | 0x00B8   |
| Data Size    | 84 bytes |
| Instructions | 16       |

```
      00 01 02 03 04 05 06 07  08 09 0A 0B 0C 0D 0E 0F
      -- -- -- -- -- -- -- --  -- -- -- -- -- -- -- --
00B0:                          42 03 09 10 0D 80 1E F0          B.......
00C0: FF FF 7F 1D 0E 80 23 5B  01 80 F8 FF FF 7F F8 FF  ......#[........
00D0: FF 7F 74 6C 6B 30 1D 0F  80 23 6B 69 64 6C 30 F8  ..tlk0...#kidl0.
00E0: FF FF 7F 1C 10 80 5B 01  80 F8 FF FF 7F F8 FF FF  ......[.........
00F0: 7F 70 61 73 30 1D 11 80  23 45 12 80 F8 FF FF 7F  .pas0...#E......
0100: F8 FF FF 7F 71 73 74 63  13 80 21 00              ....qstc..!.    
```

#### Opcodes

```
  0: 0x00B8 [0x42] SET_CLI_EVENT_CANCEL_DATA()
  1: 0x00B9 [0x03] Work_Zone[9] = 622*
  2: 0x00BE [0x1E] EventEntity looks at LocalPlayer and starts talking
  3: 0x00C3 [0x1D] PRINT_EVENT_MESSAGE(message_id=11170*)
    → "$6! This is exactly the information I have been searching for!"
  4: 0x00C6 [0x23] WAIT_FOR_DIALOG_INTERACTION
  5: 0x00C7 [0x5B] LOAD_EXT_SCHEDULER: Load scheduler "tlk0" with entities [EventEntity, EventEntity], work=70*
  6: 0x00D6 [0x1D] PRINT_EVENT_MESSAGE(message_id=11171*)
    → "Your kindness is a blessing that will bring smiles to the dinner tables of Tavnazia."
  7: 0x00D9 [0x23] WAIT_FOR_DIALOG_INTERACTION
  8: 0x00DA [0x6B] STOP_AND_IDLE: EventEntity stops current action and resets to idle (animation="idl0")
  9: 0x00E3 [0x1C] WAIT(10* ticks)
 10: 0x00E6 [0x5B] LOAD_EXT_SCHEDULER: Load scheduler "pas0" with entities [EventEntity, EventEntity], work=70*
 11: 0x00F5 [0x1D] PRINT_EVENT_MESSAGE(message_id=11172*)
    → "I know it is not much, but please accept this as a token of my appreciation."
 12: 0x00F8 [0x23] WAIT_FOR_DIALOG_INTERACTION
 13: 0x00F9 [0x45] LOAD_SCHEDULED_TASK: Load scheduler "qstc" with entities [EventEntity, EventEntity], work=[201*, 0*]
 14: 0x010A [0x21] END_EVENT
 15: 0x010B [0x00] END_REQSTACK()
```
