# 16883728 - Tenzen

## Common Data

| Field            | Value                       |
|------------------|-----------------------------|
| Zone             | Tavnazian Safehold (ID: 26) |
| Block Size       | 412 bytes                   |
| Total Events     | 11                          |
| References Count | 39                          |

## List of Events

| Event ID                 | Entrypoint   |   Size |   Instructions |
|--------------------------|--------------|--------|----------------|
| [65535](#event-65535)    | 0x0000       |      7 |              2 |
| [108](#event-108)        | 0x0007       |      1 |              1 |
| [65535.1](#event-655351) | 0x0008       |     26 |              7 |
| [65535.2](#event-655352) | 0x0022       |     24 |              6 |
| [65535.3](#event-655353) | 0x003A       |     16 |              5 |
| [110](#event-110)        | 0x004A       |     10 |              2 |
| [65535.4](#event-655354) | 0x0054       |     45 |             10 |
| [111](#event-111)        | 0x0081       |     10 |              2 |
| [65535.5](#event-655355) | 0x008B       |     19 |              5 |
| [65535.6](#event-655356) | 0x009E       |     25 |              6 |
| [112](#event-112)        | 0x00B7       |     10 |              2 |

## DAT References (imed_data)

|   Index | Hex Value   |   Dec Value |
|---------|-------------|-------------|
|       0 | 0x000D      |          13 |
|       1 | 0x1A967     |      108903 |
|       2 | 0xFFFECEEC  |  4294889196 |
|       3 | 0xFFFF63C0  |  4294927296 |
|       4 | 0x02C2      |         706 |
|       5 | 0x1AC18     |      109592 |
|       6 | 0xFFFEC0C9  |  4294885577 |
|       7 | 0xFFFF63B1  |  4294927281 |
|       8 | 0x19028     |      102440 |
|       9 | 0xFFFF19C0  |  4294908352 |
|      10 | 0xFFFF5ED8  |  4294926040 |
|      11 | 0x0C00      |        3072 |
|      12 | 0x18DB2     |      101810 |
|      13 | 0xFFFF2FC4  |  4294913988 |
|      14 | 0xFFFF6075  |  4294926453 |
|      15 | 0x15479     |       87161 |
|      16 | 0xE3EB      |       58347 |
|      17 | 0xFFFF7E9D  |  4294934173 |
|      18 | 0x0AED      |        2797 |
|      19 | 0x1508C     |       86156 |
|      20 | 0xEF27      |       61223 |
|      21 | 0xFFFF7BC3  |  4294933443 |
|      22 | 0x14B0A     |       84746 |
|      23 | 0xF697      |       63127 |
|      24 | 0xFFFF7B5B  |  4294933339 |
|      25 | 0x14430     |       82992 |
|      26 | 0xFD28      |       64808 |
|      27 | 0xFFFF7B3F  |  4294933311 |
|      28 | 0x1FD6B     |      130411 |
|      29 | 0xAE6F      |       44655 |
|      30 | 0xFFFF5F98  |  4294926232 |
|      31 | 0x0F74      |        3956 |
|      32 | 0x215CE     |      136654 |
|      33 | 0xB908      |       47368 |
|      34 | 0x21A03     |      137731 |
|      35 | 0xBCBF      |       48319 |
|      36 | 0x1B1DC     |      111068 |
|      37 | 0xFFFEBF1B  |  4294885147 |
|      38 | 0x0360      |         864 |

## Events

### Event 65535

#### Metadata

| Field        | Value   |
|--------------|---------|
| Entrypoint   | 0x0000  |
| Data Size    | 7 bytes |
| Instructions | 2       |

```
      00 01 02 03 04 05 06 07  08 09 0A 0B 0C 0D 0E 0F
      -- -- -- -- -- -- -- --  -- -- -- -- -- -- -- --
0000: 92 01 F8 FF FF 7F 00                              .......         
```

#### Opcodes

```
  0: 0x0000 [0x92] EventEntity->Render.Flags3 ^= 0x01
  1: 0x0006 [0x00] END_REQSTACK()
```

### Event 108

#### Metadata

| Field        | Value   |
|--------------|---------|
| Entrypoint   | 0x0007  |
| Data Size    | 1 bytes |
| Instructions | 1       |

```
      00 01 02 03 04 05 06 07  08 09 0A 0B 0C 0D 0E 0F
      -- -- -- -- -- -- -- --  -- -- -- -- -- -- -- --
0000:                      00                                  .        
```

#### Opcodes

```
  0: 0x0007 [0x00] END_REQSTACK()
```

### Event 65535.1

#### Metadata

| Field        | Value    |
|--------------|----------|
| Entrypoint   | 0x0008   |
| Data Size    | 26 bytes |
| Instructions | 7        |

```
      00 01 02 03 04 05 06 07  08 09 0A 0B 0C 0D 0E 0F
      -- -- -- -- -- -- -- --  -- -- -- -- -- -- -- --
0000:                          22 00 32 00 80 37 01 80          ".2..7..
0010: 02 80 03 80 04 80 1F 00  05 80 06 80 07 80 1F 01  ................
0020: 6F 00                                             o.              
```

#### Opcodes

```
  0: 0x0008 [0x22] ENTITY_HIDE_FLAG(enabled=0x00)
  1: 0x000A [0x32] ExtData[1]->MainSpeed = 13* * 0.1
  2: 0x000D [0x37] UPDATE_EVENT_POSITION_AND_DIR: x=108.903*, z=-78.100*, y=-40.000*, direction=62.0°*
  3: 0x0016 [0x1F] MOVE_ENTITY: EventEntity moves to X=109.592*, Z=-81.719*, Y=-40.015*
  4: 0x001E [0x1F] MOVE_ENTITY: Update entity position (mode=1)
  5: 0x0020 [0x6F] WAIT_FRAME_DELAY: Yield until WaitTime reaches zero
  6: 0x0021 [0x00] END_REQSTACK()
```

### Event 65535.2

#### Metadata

| Field        | Value    |
|--------------|----------|
| Entrypoint   | 0x0022   |
| Data Size    | 24 bytes |
| Instructions | 6        |

```
      00 01 02 03 04 05 06 07  08 09 0A 0B 0C 0D 0E 0F
      -- -- -- -- -- -- -- --  -- -- -- -- -- -- -- --
0020:       32 00 80 1F 00 01  80 02 80 03 80 1F 01 6F    2............o
0030: 37 08 80 09 80 0A 80 0B  80 00                    7.........      
```

#### Opcodes

```
  0: 0x0022 [0x32] ExtData[1]->MainSpeed = 13* * 0.1
  1: 0x0025 [0x1F] MOVE_ENTITY: EventEntity moves to X=108.903*, Z=-78.100*, Y=-40.000*
  2: 0x002D [0x1F] MOVE_ENTITY: Update entity position (mode=1)
  3: 0x002F [0x6F] WAIT_FRAME_DELAY: Yield until WaitTime reaches zero
  4: 0x0030 [0x37] UPDATE_EVENT_POSITION_AND_DIR: x=102.440*, z=-58.944*, y=-41.256*, direction=270.0°*
  5: 0x0039 [0x00] END_REQSTACK()
```

### Event 65535.3

#### Metadata

| Field        | Value    |
|--------------|----------|
| Entrypoint   | 0x003A   |
| Data Size    | 16 bytes |
| Instructions | 5        |

```
      00 01 02 03 04 05 06 07  08 09 0A 0B 0C 0D 0E 0F
      -- -- -- -- -- -- -- --  -- -- -- -- -- -- -- --
0030:                                32 00 80 33 01 5A            2..3.Z
0040: 00 0C 80 0D 80 0E 80 5A  01 00                    .......Z..      
```

#### Opcodes

```
  0: 0x003A [0x32] ExtData[1]->MainSpeed = 13* * 0.1
  1: 0x003D [0x33] EventEntity->Render.Flags0 |= 0x200000 // Bit 21 (flag=0x01)
  2: 0x003F [0x5A] UPDATE_EVENT_POSITION: Set EventEntity MovePosition to X=101.810*, Z=-53.308*, Y=-40.843*
  3: 0x0047 [0x5A] UPDATE_EVENT_POSITION: Move EventEntity incrementally towards MovePosition
  4: 0x0049 [0x00] END_REQSTACK()
```

### Event 110

#### Metadata

| Field        | Value    |
|--------------|----------|
| Entrypoint   | 0x004A   |
| Data Size    | 10 bytes |
| Instructions | 2        |

```
      00 01 02 03 04 05 06 07  08 09 0A 0B 0C 0D 0E 0F
      -- -- -- -- -- -- -- --  -- -- -- -- -- -- -- --
0040:                                37 0F 80 10 80 11            7.....
0050: 80 12 80 00                                       ....            
```

#### Opcodes

```
  0: 0x004A [0x37] UPDATE_EVENT_POSITION_AND_DIR: x=87.161*, z=58.347*, y=-33.123*, direction=245.8°*
  1: 0x0053 [0x00] END_REQSTACK()
```

### Event 65535.4

#### Metadata

| Field        | Value    |
|--------------|----------|
| Entrypoint   | 0x0054   |
| Data Size    | 45 bytes |
| Instructions | 10       |

```
      00 01 02 03 04 05 06 07  08 09 0A 0B 0C 0D 0E 0F
      -- -- -- -- -- -- -- --  -- -- -- -- -- -- -- --
0050:             32 00 80 1F  00 13 80 14 80 15 80 1F      2...........
0060: 01 1F 00 16 80 17 80 18  80 1F 01 79 00 F8 FF FF  ...........y....
0070: 7F F0 FF FF 7F 1F 00 19  80 1A 80 1B 80 1F 01 6F  ...............o
0080: 00                                                .               
```

#### Opcodes

```
  0: 0x0054 [0x32] ExtData[1]->MainSpeed = 13* * 0.1
  1: 0x0057 [0x1F] MOVE_ENTITY: EventEntity moves to X=86.156*, Z=61.223*, Y=-33.853*
  2: 0x005F [0x1F] MOVE_ENTITY: Update entity position (mode=1)
  3: 0x0061 [0x1F] MOVE_ENTITY: EventEntity moves to X=84.746*, Z=63.127*, Y=-33.957*
  4: 0x0069 [0x1F] MOVE_ENTITY: Update entity position (mode=1)
  5: 0x006B [0x79] EventEntity looks at LocalPlayer (Basic look)
  6: 0x0075 [0x1F] MOVE_ENTITY: EventEntity moves to X=82.992*, Z=64.808*, Y=-33.985*
  7: 0x007D [0x1F] MOVE_ENTITY: Update entity position (mode=1)
  8: 0x007F [0x6F] WAIT_FRAME_DELAY: Yield until WaitTime reaches zero
  9: 0x0080 [0x00] END_REQSTACK()
```

### Event 111

#### Metadata

| Field        | Value    |
|--------------|----------|
| Entrypoint   | 0x0081   |
| Data Size    | 10 bytes |
| Instructions | 2        |

```
      00 01 02 03 04 05 06 07  08 09 0A 0B 0C 0D 0E 0F
      -- -- -- -- -- -- -- --  -- -- -- -- -- -- -- --
0080:    37 1C 80 1D 80 1E 80  1F 80 00                  7.........     
```

#### Opcodes

```
  0: 0x0081 [0x37] UPDATE_EVENT_POSITION_AND_DIR: x=130.411*, z=44.655*, y=-41.064*, direction=347.7°*
  1: 0x008A [0x00] END_REQSTACK()
```

### Event 65535.5

#### Metadata

| Field        | Value    |
|--------------|----------|
| Entrypoint   | 0x008B   |
| Data Size    | 19 bytes |
| Instructions | 5        |

```
      00 01 02 03 04 05 06 07  08 09 0A 0B 0C 0D 0E 0F
      -- -- -- -- -- -- -- --  -- -- -- -- -- -- -- --
0080:                                   32 00 80 1F 00             2....
0090: 20 80 21 80 07 80 1F 01  1E 04 A0 01 01 00         .!...........  
```

#### Opcodes

```
  0: 0x008B [0x32] ExtData[1]->MainSpeed = 13* * 0.1
  1: 0x008E [0x1F] MOVE_ENTITY: EventEntity moves to X=136.654*, Z=47.368*, Y=-40.015*
  2: 0x0096 [0x1F] MOVE_ENTITY: Update entity position (mode=1)
  3: 0x0098 [0x1E] EventEntity looks at Prishe (ID: 16883716/0x0101A004) and starts talking
  4: 0x009D [0x00] END_REQSTACK()
```

### Event 65535.6

#### Metadata

| Field        | Value    |
|--------------|----------|
| Entrypoint   | 0x009E   |
| Data Size    | 25 bytes |
| Instructions | 6        |

```
      00 01 02 03 04 05 06 07  08 09 0A 0B 0C 0D 0E 0F
      -- -- -- -- -- -- -- --  -- -- -- -- -- -- -- --
0090:                                            79 00                y.
00A0: 10 A0 01 01 04 A0 01 01  32 00 80 1F 00 22 80 23  ........2....".#
00B0: 80 07 80 1F 01 6F 00                              .....o.         
```

#### Opcodes

```
  0: 0x009E [0x79] Tenzen (ID: 16883728/0x0101A010) looks at Prishe (ID: 16883716/0x0101A004) (Basic look)
  1: 0x00A8 [0x32] ExtData[1]->MainSpeed = 13* * 0.1
  2: 0x00AB [0x1F] MOVE_ENTITY: EventEntity moves to X=137.731*, Z=48.319*, Y=-40.015*
  3: 0x00B3 [0x1F] MOVE_ENTITY: Update entity position (mode=1)
  4: 0x00B5 [0x6F] WAIT_FRAME_DELAY: Yield until WaitTime reaches zero
  5: 0x00B6 [0x00] END_REQSTACK()
```

### Event 112

#### Metadata

| Field        | Value    |
|--------------|----------|
| Entrypoint   | 0x00B7   |
| Data Size    | 10 bytes |
| Instructions | 2        |

```
      00 01 02 03 04 05 06 07  08 09 0A 0B 0C 0D 0E 0F
      -- -- -- -- -- -- -- --  -- -- -- -- -- -- -- --
00B0:                      37  24 80 25 80 07 80 26 80         7$.%...&.
00C0: 00                                                .               
```

#### Opcodes

```
  0: 0x00B7 [0x37] UPDATE_EVENT_POSITION_AND_DIR: x=111.068*, z=-82.149*, y=-40.015*, direction=75.9°*
  1: 0x00C0 [0x00] END_REQSTACK()
```
