# 16883726 - Parelbriaux

## Common Data

| Field            | Value                       |
|------------------|-----------------------------|
| Zone             | Tavnazian Safehold (ID: 26) |
| Block Size       | 2284 bytes                  |
| Total Events     | 91                          |
| References Count | 81                          |

## List of Events

| Event ID                   | Entrypoint   |   Size |   Instructions |
|----------------------------|--------------|--------|----------------|
| [65535](#event-65535)      | 0x0000       |      1 |              1 |
| [101](#event-101)          | 0x0001       |     16 |              3 |
| [105](#event-105)          | 0x0011       |      7 |              2 |
| [65535.1](#event-655351)   | 0x0018       |     10 |              2 |
| [65535.2](#event-655352)   | 0x0022       |     15 |              5 |
| [107](#event-107)          | 0x0031       |      7 |              2 |
| [65535.3](#event-655353)   | 0x0038       |     20 |              3 |
| [111](#event-111)          | 0x004C       |      7 |              2 |
| [65535.4](#event-655354)   | 0x0053       |     34 |              7 |
| [126](#event-126)          | 0x0075       |     11 |              5 |
| [137](#event-137)          | 0x0080       |     49 |             11 |
| [136](#event-136)          | 0x00B1       |     49 |             11 |
| [138](#event-138)          | 0x00E2       |     30 |              8 |
| [65535.5](#event-655355)   | 0x0100       |     16 |              2 |
| [65535.6](#event-655356)   | 0x0110       |     14 |              2 |
| [65535.7](#event-655357)   | 0x011E       |     16 |              2 |
| [65535.8](#event-655358)   | 0x012E       |     14 |              2 |
| [65535.9](#event-655359)   | 0x013C       |     16 |              2 |
| [65535.10](#event-6553510) | 0x014C       |     14 |              2 |
| [65535.11](#event-6553511) | 0x015A       |     16 |              2 |
| [65535.12](#event-6553512) | 0x016A       |     14 |              2 |
| [65535.13](#event-6553513) | 0x0178       |     16 |              2 |
| [65535.14](#event-6553514) | 0x0188       |     14 |              2 |
| [65535.15](#event-6553515) | 0x0196       |     16 |              2 |
| [65535.16](#event-6553516) | 0x01A6       |     14 |              2 |
| [65535.17](#event-6553517) | 0x01B4       |     16 |              2 |
| [65535.18](#event-6553518) | 0x01C4       |     14 |              2 |
| [65535.19](#event-6553519) | 0x01D2       |     16 |              2 |
| [65535.20](#event-6553520) | 0x01E2       |     14 |              2 |
| [65535.21](#event-6553521) | 0x01F0       |     16 |              2 |
| [65535.22](#event-6553522) | 0x0200       |     14 |              2 |
| [65535.23](#event-6553523) | 0x020E       |     16 |              2 |
| [65535.24](#event-6553524) | 0x021E       |     14 |              2 |
| [65535.25](#event-6553525) | 0x022C       |     16 |              2 |
| [65535.26](#event-6553526) | 0x023C       |     14 |              2 |
| [65535.27](#event-6553527) | 0x024A       |     16 |              2 |
| [65535.28](#event-6553528) | 0x025A       |     14 |              2 |
| [65535.29](#event-6553529) | 0x0268       |     16 |              2 |
| [65535.30](#event-6553530) | 0x0278       |     14 |              2 |
| [65535.31](#event-6553531) | 0x0286       |     57 |              5 |
| [65535.32](#event-6553532) | 0x02BF       |     16 |              2 |
| [65535.33](#event-6553533) | 0x02CF       |     14 |              2 |
| [65535.34](#event-6553534) | 0x02DD       |     16 |              2 |
| [65535.35](#event-6553535) | 0x02ED       |     14 |              2 |
| [65535.36](#event-6553536) | 0x02FB       |     16 |              2 |
| [65535.37](#event-6553537) | 0x030B       |     14 |              2 |
| [65535.38](#event-6553538) | 0x0319       |     16 |              2 |
| [65535.39](#event-6553539) | 0x0329       |     14 |              2 |
| [65535.40](#event-6553540) | 0x0337       |     16 |              2 |
| [65535.41](#event-6553541) | 0x0347       |     14 |              2 |
| [65535.42](#event-6553542) | 0x0355       |     16 |              2 |
| [65535.43](#event-6553543) | 0x0365       |     14 |              2 |
| [65535.44](#event-6553544) | 0x0373       |     16 |              2 |
| [65535.45](#event-6553545) | 0x0383       |     14 |              2 |
| [65535.46](#event-6553546) | 0x0391       |     16 |              2 |
| [65535.47](#event-6553547) | 0x03A1       |     14 |              2 |
| [65535.48](#event-6553548) | 0x03AF       |     16 |              2 |
| [65535.49](#event-6553549) | 0x03BF       |     14 |              2 |
| [65535.50](#event-6553550) | 0x03CD       |     16 |              2 |
| [65535.51](#event-6553551) | 0x03DD       |     14 |              2 |
| [65535.52](#event-6553552) | 0x03EB       |     16 |              2 |
| [65535.53](#event-6553553) | 0x03FB       |     14 |              2 |
| [65535.54](#event-6553554) | 0x0409       |     16 |              2 |
| [65535.55](#event-6553555) | 0x0419       |     14 |              2 |
| [65535.56](#event-6553556) | 0x0427       |     18 |              4 |
| [65535.57](#event-6553557) | 0x0439       |     18 |              4 |
| [65535.58](#event-6553558) | 0x044B       |     18 |              4 |
| [65535.59](#event-6553559) | 0x045D       |     18 |              4 |
| [65535.60](#event-6553560) | 0x046F       |     18 |              4 |
| [65535.61](#event-6553561) | 0x0481       |     18 |              4 |
| [65535.62](#event-6553562) | 0x0493       |      9 |              3 |
| [65535.63](#event-6553563) | 0x049C       |     27 |              3 |
| [65535.64](#event-6553564) | 0x04B7       |     27 |              3 |
| [65535.65](#event-6553565) | 0x04D2       |     27 |              3 |
| [140](#event-140)          | 0x04ED       |      1 |              1 |
| [65535.66](#event-6553566) | 0x04EE       |     10 |              2 |
| [145](#event-145)          | 0x04F8       |     47 |             14 |
| [294](#event-294)          | 0x0527       |     30 |              8 |
| [295](#event-295)          | 0x0545       |     49 |             11 |
| [296](#event-296)          | 0x0576       |     30 |              8 |
| [297](#event-297)          | 0x0594       |     30 |              8 |
| [298](#event-298)          | 0x05B2       |     30 |              8 |
| [513](#event-513)          | 0x05D0       |      1 |              1 |
| [65535.67](#event-6553567) | 0x05D1       |     10 |              2 |
| [514](#event-514)          | 0x05DB       |      1 |              1 |
| [65535.68](#event-6553568) | 0x05DC       |     23 |              5 |
| [65535.69](#event-6553569) | 0x05F3       |     10 |              2 |
| [516](#event-516)          | 0x05FD       |      1 |              1 |
| [65535.70](#event-6553570) | 0x05FE       |     10 |              2 |
| [65535.71](#event-6553571) | 0x0608       |     23 |              5 |
| [65535.72](#event-6553572) | 0x061F       |     10 |              2 |

## DAT References (imed_data)

|   Index | Hex Value   |   Dec Value |
|---------|-------------|-------------|
|       0 | 0xFFFFDF8E  |  4294958990 |
|       1 | 0x1C98D     |      117133 |
|       2 | 0xFFFF92B2  |  4294939314 |
|       3 | 0x0FC2      |        4034 |
|       4 | 0x03EB      |        1003 |
|       5 | 0xA8BA      |       43194 |
|       6 | 0xFFFFA446  |  4294943814 |
|       7 | 0x044A      |        1098 |
|       8 | 0x0028      |          40 |
|       9 | 0x0113      |         275 |
|      10 | 0x8246      |       33350 |
|      11 | 0xFFFFA435  |  4294943797 |
|      12 | 0xFFFFF97F  |  4294965631 |
|      13 | 0x0800      |        2048 |
|      14 | 0xFFFFDCE0  |  4294958304 |
|      15 | 0x0284      |         644 |
|      16 | 0x000D      |          13 |
|      17 | 0x1FC7A     |      130170 |
|      18 | 0xB934      |       47412 |
|      19 | 0xFFFF5FD9  |  4294926297 |
|      20 | 0x0F83      |        3971 |
|      21 | 0x20AAE     |      133806 |
|      22 | 0xBEC8      |       48840 |
|      23 | 0xFFFF63C0  |  4294927296 |
|      24 | 0x26FA      |        9978 |
|      25 | 0x27BC      |       10172 |
|      26 | 0x001D      |          29 |
|      27 | 0x27BD      |       10173 |
|      28 | 0x27BE      |       10174 |
|      29 | 0x28A8      |       10408 |
|      30 | 0x28A9      |       10409 |
|      31 | 0x28AA      |       10410 |
|      32 | 0x01A1      |         417 |
|      33 | 0x01A0      |         416 |
|      34 | 0x0018      |          24 |
|      35 | 0x01A2      |         418 |
|      36 | 0x0290      |         656 |
|      37 | 0x01A3      |         419 |
|      38 | 0x002B      |          43 |
|      39 | 0x0019      |          25 |
|      40 | 0x0007      |           7 |
|      41 | 0x0000      |           0 |
|      42 | 0x001E      |          30 |
|      43 | 0x1BD58     |      114008 |
|      44 | 0xAEEC      |       44780 |
|      45 | 0xFFFF5FD8  |  4294926296 |
|      46 | 0x09D2      |        2514 |
|      47 | 0x28DE      |       10462 |
|      48 | 0x28DF      |       10463 |
|      49 | 0x2B0A      |       11018 |
|      50 | 0x2B0B      |       11019 |
|      51 | 0x2B0C      |       11020 |
|      52 | 0x2B0D      |       11021 |
|      53 | 0x2B0E      |       11022 |
|      54 | 0x2B0F      |       11023 |
|      55 | 0x2B10      |       11024 |
|      56 | 0x2B11      |       11025 |
|      57 | 0x2B12      |       11026 |
|      58 | 0x2B13      |       11027 |
|      59 | 0x2B14      |       11028 |
|      60 | 0x1BBAF     |      113583 |
|      61 | 0xA7D5      |       42965 |
|      62 | 0x04D8      |        1240 |
|      63 | 0xFFFFF3CC  |  4294964172 |
|      64 | 0x12EBC     |       77500 |
|      65 | 0xFFFF9A3A  |  4294941242 |
|      66 | 0x026F      |         623 |
|      67 | 0x0070      |         112 |
|      68 | 0x10C35     |       68661 |
|      69 | 0xFFFF9F78  |  4294942584 |
|      70 | 0x1A511     |      107793 |
|      71 | 0xB5BB      |       46523 |
|      72 | 0xFFFF5FA4  |  4294926244 |
|      73 | 0x0227      |         551 |
|      74 | 0x134F5     |       79093 |
|      75 | 0xDFDF      |       57311 |
|      76 | 0xFFFF7792  |  4294932370 |
|      77 | 0x0CB0      |        3248 |
|      78 | 0x13357     |       78679 |
|      79 | 0xEC3B      |       60475 |
|      80 | 0xFFFF7A6D  |  4294933101 |

## String References

- **9978**: You're looking for Ulmia? Sorry, I haven't seen her. Try asking Justinius, he might know something.
- **10172**: I'm sorry, I can't let you see Prishe. It's unfortunate, but that's the way it is.
- **10173**: I haven't told anyone else yet, but they're saying that Prishe is the child of the Twilight God.
- **10174**: It's true, I'm telling you! That's because I also overheard that Promathia is residing in the deepest corner of the Sacrarium!
- **10408**: Prishe and Ulmia are inside. By the sound of it, they had a tough time on their trip to the clouds.
- **10409**: I know I said some pretty harsh things about Prishe before, but after hearing about how she stood up to that beast...
- **10410**: She has more guts than the rest of the Tavnazian Patrol put together! (Just don't let Justinius know I said that.)
- **10462**: That Mithra is some kind of tracker called a "sin hunter." That's what old Odeya told me.
- **10463**: The sin hunter went to talk to her after searching Prishe's room.
- **11018**: This is Prishe and Ulmia's room.
- **11019**: I'd keep your distance if you know what's good for you.
- **11020**: It's been kind of lonely without Ulmia or the boss around.
- **11021**: I sure hope nothing happens to Ulmia...
- **11022**: And Prishe? Oh, I know nothing will happen to Prishe. There isn't a jam she hasn't been able to find her way out of!
- **11023**: You see? I told you Prishe would be fine.
- **11024**: But I'd suggest putting your adventures on hold for a while. We wouldn't want to make elder Despachiaire too upset...
- **11025**: Just when I thought they were back for good, Ulmia and Prishe have run off again.
- **11026**: I wonder if they'll ever be back...
- **11027**: You're on your way to fight the wyrms, aren't you? I really wish that Ulmia would reconsider going...
- **11028**: ...but she wouldn't listen to me, would she...

## Events

### Event 65535

#### Metadata

| Field        | Value   |
|--------------|---------|
| Entrypoint   | 0x0000  |
| Data Size    | 1 bytes |
| Instructions | 1       |

```
      00 01 02 03 04 05 06 07  08 09 0A 0B 0C 0D 0E 0F
      -- -- -- -- -- -- -- --  -- -- -- -- -- -- -- --
0000: 00                                                .               
```

#### Opcodes

```
  0: 0x0000 [0x00] END_REQSTACK()
```

### Event 101

#### Metadata

| Field        | Value    |
|--------------|----------|
| Entrypoint   | 0x0001   |
| Data Size    | 16 bytes |
| Instructions | 3        |

```
      00 01 02 03 04 05 06 07  08 09 0A 0B 0C 0D 0E 0F
      -- -- -- -- -- -- -- --  -- -- -- -- -- -- -- --
0000:    92 01 F8 FF FF 7F 37  00 80 01 80 02 80 03 80   ......7........
0010: 00                                                .               
```

#### Opcodes

```
  0: 0x0001 [0x92] EventEntity->Render.Flags3 ^= 0x01
  1: 0x0007 [0x37] UPDATE_EVENT_POSITION_AND_DIR: x=-8.306*, z=117.133*, y=-27.982*, direction=354.5°*
  2: 0x0010 [0x00] END_REQSTACK()
```

### Event 105

#### Metadata

| Field        | Value   |
|--------------|---------|
| Entrypoint   | 0x0011  |
| Data Size    | 7 bytes |
| Instructions | 2       |

```
      00 01 02 03 04 05 06 07  08 09 0A 0B 0C 0D 0E 0F
      -- -- -- -- -- -- -- --  -- -- -- -- -- -- -- --
0010:    92 01 F8 FF FF 7F 00                            .......        
```

#### Opcodes

```
  0: 0x0011 [0x92] EventEntity->Render.Flags3 ^= 0x01
  1: 0x0017 [0x00] END_REQSTACK()
```

### Event 65535.1

#### Metadata

| Field        | Value    |
|--------------|----------|
| Entrypoint   | 0x0018   |
| Data Size    | 10 bytes |
| Instructions | 2        |

```
      00 01 02 03 04 05 06 07  08 09 0A 0B 0C 0D 0E 0F
      -- -- -- -- -- -- -- --  -- -- -- -- -- -- -- --
0010:                          37 04 80 05 80 06 80 07          7.......
0020: 80 00                                             ..              
```

#### Opcodes

```
  0: 0x0018 [0x37] UPDATE_EVENT_POSITION_AND_DIR: x=1.003*, z=43.194*, y=-23.482*, direction=96.5°*
  1: 0x0021 [0x00] END_REQSTACK()
```

### Event 65535.2

#### Metadata

| Field        | Value    |
|--------------|----------|
| Entrypoint   | 0x0022   |
| Data Size    | 15 bytes |
| Instructions | 5        |

```
      00 01 02 03 04 05 06 07  08 09 0A 0B 0C 0D 0E 0F
      -- -- -- -- -- -- -- --  -- -- -- -- -- -- -- --
0020:       32 08 80 1F 00 09  80 0A 80 0B 80 1F 01 6F    2............o
0030: 00                                                .               
```

#### Opcodes

```
  0: 0x0022 [0x32] ExtData[1]->MainSpeed = 40* * 0.1
  1: 0x0025 [0x1F] MOVE_ENTITY: EventEntity moves to X=0.275*, Z=33.350*, Y=-23.499*
  2: 0x002D [0x1F] MOVE_ENTITY: Update entity position (mode=1)
  3: 0x002F [0x6F] WAIT_FRAME_DELAY: Yield until WaitTime reaches zero
  4: 0x0030 [0x00] END_REQSTACK()
```

### Event 107

#### Metadata

| Field        | Value   |
|--------------|---------|
| Entrypoint   | 0x0031  |
| Data Size    | 7 bytes |
| Instructions | 2       |

```
      00 01 02 03 04 05 06 07  08 09 0A 0B 0C 0D 0E 0F
      -- -- -- -- -- -- -- --  -- -- -- -- -- -- -- --
0030:    92 01 F8 FF FF 7F 00                            .......        
```

#### Opcodes

```
  0: 0x0031 [0x92] EventEntity->Render.Flags3 ^= 0x01
  1: 0x0037 [0x00] END_REQSTACK()
```

### Event 65535.3

#### Metadata

| Field        | Value    |
|--------------|----------|
| Entrypoint   | 0x0038   |
| Data Size    | 20 bytes |
| Instructions | 3        |

```
      00 01 02 03 04 05 06 07  08 09 0A 0B 0C 0D 0E 0F
      -- -- -- -- -- -- -- --  -- -- -- -- -- -- -- --
0030:                          79 00 F8 FF FF 7F 04 A0          y.......
0040: 01 01 37 0C 80 0D 80 0E  80 0F 80 00              ..7.........    
```

#### Opcodes

```
  0: 0x0038 [0x79] EventEntity looks at Prishe (ID: 16883716/0x0101A004) (Basic look)
  1: 0x0042 [0x37] UPDATE_EVENT_POSITION_AND_DIR: x=-1.665*, z=2.048*, y=-8.992*, direction=56.6°*
  2: 0x004B [0x00] END_REQSTACK()
```

### Event 111

#### Metadata

| Field        | Value   |
|--------------|---------|
| Entrypoint   | 0x004C  |
| Data Size    | 7 bytes |
| Instructions | 2       |

```
      00 01 02 03 04 05 06 07  08 09 0A 0B 0C 0D 0E 0F
      -- -- -- -- -- -- -- --  -- -- -- -- -- -- -- --
0040:                                      92 01 F8 FF              ....
0050: FF 7F 00                                          ...             
```

#### Opcodes

```
  0: 0x004C [0x92] EventEntity->Render.Flags3 ^= 0x01
  1: 0x0052 [0x00] END_REQSTACK()
```

### Event 65535.4

#### Metadata

| Field        | Value    |
|--------------|----------|
| Entrypoint   | 0x0053   |
| Data Size    | 34 bytes |
| Instructions | 7        |

```
      00 01 02 03 04 05 06 07  08 09 0A 0B 0C 0D 0E 0F
      -- -- -- -- -- -- -- --  -- -- -- -- -- -- -- --
0050:          79 00 F8 FF FF  7F 03 A0 01 01 32 10 80     y.........2..
0060: 37 11 80 12 80 13 80 14  80 1F 00 15 80 16 80 17  7...............
0070: 80 1F 01 6F 00                                    ...o.           
```

#### Opcodes

```
  0: 0x0053 [0x79] EventEntity looks at Ulmia (ID: 16883715/0x0101A003) (Basic look)
  1: 0x005D [0x32] ExtData[1]->MainSpeed = 13* * 0.1
  2: 0x0060 [0x37] UPDATE_EVENT_POSITION_AND_DIR: x=130.170*, z=47.412*, y=-40.999*, direction=349.0°*
  3: 0x0069 [0x1F] MOVE_ENTITY: EventEntity moves to X=133.806*, Z=48.840*, Y=-40.000*
  4: 0x0071 [0x1F] MOVE_ENTITY: Update entity position (mode=1)
  5: 0x0073 [0x6F] WAIT_FRAME_DELAY: Yield until WaitTime reaches zero
  6: 0x0074 [0x00] END_REQSTACK()
```

### Event 126

#### Metadata

| Field        | Value    |
|--------------|----------|
| Entrypoint   | 0x0075   |
| Data Size    | 11 bytes |
| Instructions | 5        |

```
      00 01 02 03 04 05 06 07  08 09 0A 0B 0C 0D 0E 0F
      -- -- -- -- -- -- -- --  -- -- -- -- -- -- -- --
0070:                1E F0 FF  FF 7F 1D 18 80 23 21 00       ........#!.
```

#### Opcodes

```
  0: 0x0075 [0x1E] EventEntity looks at LocalPlayer and starts talking
  1: 0x007A [0x1D] PRINT_EVENT_MESSAGE(message_id=9978*)
    → "You're looking for Ulmia? Sorry, I haven't seen her. Try asking Justinius, he might know something."
  2: 0x007D [0x23] WAIT_FOR_DIALOG_INTERACTION
  3: 0x007E [0x21] END_EVENT
  4: 0x007F [0x00] END_REQSTACK()
```

### Event 137

#### Metadata

| Field        | Value    |
|--------------|----------|
| Entrypoint   | 0x0080   |
| Data Size    | 49 bytes |
| Instructions | 11       |

```
      00 01 02 03 04 05 06 07  08 09 0A 0B 0C 0D 0E 0F
      -- -- -- -- -- -- -- --  -- -- -- -- -- -- -- --
0080: 1E F0 FF FF 7F 1D 19 80  23 66 1A 80 0E A0 01 01  ........#f......
0090: 0E A0 01 01 74 77 61 30  1D 1B 80 23 66 1A 80 0E  ....twa0...#f...
00A0: A0 01 01 0E A0 01 01 74  77 61 31 1D 1C 80 23 21  .......twa1...#!
00B0: 00                                                .               
```

#### Opcodes

```
  0: 0x0080 [0x1E] EventEntity looks at LocalPlayer and starts talking
  1: 0x0085 [0x1D] PRINT_EVENT_MESSAGE(message_id=10172*)
    → "I'm sorry, I can't let you see Prishe. It's unfortunate, but that's the way it is."
  2: 0x0088 [0x23] WAIT_FOR_DIALOG_INTERACTION
  3: 0x0089 [0x66] LOAD_EXT_SCHEDULER_MAIN: Load scheduler "twa0" with entities [Parelbriaux (ID: 16883726/0x0101A00E), Parelbriaux (ID: 16883726/0x0101A00E)], work=29*
  4: 0x0098 [0x1D] PRINT_EVENT_MESSAGE(message_id=10173*)
    → "I haven't told anyone else yet, but they're saying that Prishe is the child of the Twilight God."
  5: 0x009B [0x23] WAIT_FOR_DIALOG_INTERACTION
  6: 0x009C [0x66] LOAD_EXT_SCHEDULER_MAIN: Load scheduler "twa1" with entities [Parelbriaux (ID: 16883726/0x0101A00E), Parelbriaux (ID: 16883726/0x0101A00E)], work=29*
  7: 0x00AB [0x1D] PRINT_EVENT_MESSAGE(message_id=10174*)
    → "It's true, I'm telling you! That's because I also overheard that Promathia is residing in the deepest corner of the Sacrarium!"
  8: 0x00AE [0x23] WAIT_FOR_DIALOG_INTERACTION
  9: 0x00AF [0x21] END_EVENT
 10: 0x00B0 [0x00] END_REQSTACK()
```

### Event 136

#### Metadata

| Field        | Value    |
|--------------|----------|
| Entrypoint   | 0x00B1   |
| Data Size    | 49 bytes |
| Instructions | 11       |

```
      00 01 02 03 04 05 06 07  08 09 0A 0B 0C 0D 0E 0F
      -- -- -- -- -- -- -- --  -- -- -- -- -- -- -- --
00B0:    1E F0 FF FF 7F 1D 1D  80 23 66 1A 80 0E A0 01   ........#f.....
00C0: 01 0E A0 01 01 74 77 61  30 1D 1E 80 23 66 1A 80  .....twa0...#f..
00D0: 0E A0 01 01 0E A0 01 01  74 77 61 31 1D 1F 80 23  ........twa1...#
00E0: 21 00                                             !.              
```

#### Opcodes

```
  0: 0x00B1 [0x1E] EventEntity looks at LocalPlayer and starts talking
  1: 0x00B6 [0x1D] PRINT_EVENT_MESSAGE(message_id=10408*)
    → "Prishe and Ulmia are inside. By the sound of it, they had a tough time on their trip to the clouds."
  2: 0x00B9 [0x23] WAIT_FOR_DIALOG_INTERACTION
  3: 0x00BA [0x66] LOAD_EXT_SCHEDULER_MAIN: Load scheduler "twa0" with entities [Parelbriaux (ID: 16883726/0x0101A00E), Parelbriaux (ID: 16883726/0x0101A00E)], work=29*
  4: 0x00C9 [0x1D] PRINT_EVENT_MESSAGE(message_id=10409*)
    → "I know I said some pretty harsh things about Prishe before, but after hearing about how she stood up to that beast..."
  5: 0x00CC [0x23] WAIT_FOR_DIALOG_INTERACTION
  6: 0x00CD [0x66] LOAD_EXT_SCHEDULER_MAIN: Load scheduler "twa1" with entities [Parelbriaux (ID: 16883726/0x0101A00E), Parelbriaux (ID: 16883726/0x0101A00E)], work=29*
  7: 0x00DC [0x1D] PRINT_EVENT_MESSAGE(message_id=10410*)
    → "She has more guts than the rest of the Tavnazian Patrol put together! (Just don't let Justinius know I said that.)"
  8: 0x00DF [0x23] WAIT_FOR_DIALOG_INTERACTION
  9: 0x00E0 [0x21] END_EVENT
 10: 0x00E1 [0x00] END_REQSTACK()
```

### Event 138

#### Metadata

| Field        | Value    |
|--------------|----------|
| Entrypoint   | 0x00E2   |
| Data Size    | 30 bytes |
| Instructions | 8        |

```
      00 01 02 03 04 05 06 07  08 09 0A 0B 0C 0D 0E 0F
      -- -- -- -- -- -- -- --  -- -- -- -- -- -- -- --
00E0:       1E F0 FF FF 7F 1D  1E 80 23 66 1A 80 0E A0    ........#f....
00F0: 01 01 0E A0 01 01 74 6C  6B 30 1D 1F 80 23 21 00  ......tlk0...#!.
```

#### Opcodes

```
  0: 0x00E2 [0x1E] EventEntity looks at LocalPlayer and starts talking
  1: 0x00E7 [0x1D] PRINT_EVENT_MESSAGE(message_id=10409*)
    → "I know I said some pretty harsh things about Prishe before, but after hearing about how she stood up to that beast..."
  2: 0x00EA [0x23] WAIT_FOR_DIALOG_INTERACTION
  3: 0x00EB [0x66] LOAD_EXT_SCHEDULER_MAIN: Load scheduler "tlk0" with entities [Parelbriaux (ID: 16883726/0x0101A00E), Parelbriaux (ID: 16883726/0x0101A00E)], work=29*
  4: 0x00FA [0x1D] PRINT_EVENT_MESSAGE(message_id=10410*)
    → "She has more guts than the rest of the Tavnazian Patrol put together! (Just don't let Justinius know I said that.)"
  5: 0x00FD [0x23] WAIT_FOR_DIALOG_INTERACTION
  6: 0x00FE [0x21] END_EVENT
  7: 0x00FF [0x00] END_REQSTACK()
```

### Event 65535.5

#### Metadata

| Field        | Value    |
|--------------|----------|
| Entrypoint   | 0x0100   |
| Data Size    | 16 bytes |
| Instructions | 2        |

```
      00 01 02 03 04 05 06 07  08 09 0A 0B 0C 0D 0E 0F
      -- -- -- -- -- -- -- --  -- -- -- -- -- -- -- --
0100: 5B 20 80 F8 FF FF 7F F8  FF FF 7F 6C 6B 6C 72 00  [ .........lklr.
```

#### Opcodes

```
  0: 0x0100 [0x5B] LOAD_EXT_SCHEDULER: Load scheduler "lklr" with entities [EventEntity, EventEntity], work=417*
  1: 0x010F [0x00] END_REQSTACK()
```

### Event 65535.6

#### Metadata

| Field        | Value    |
|--------------|----------|
| Entrypoint   | 0x0110   |
| Data Size    | 14 bytes |
| Instructions | 2        |

```
      00 01 02 03 04 05 06 07  08 09 0A 0B 0C 0D 0E 0F
      -- -- -- -- -- -- -- --  -- -- -- -- -- -- -- --
0110: 53 F8 FF FF 7F F8 FF FF  7F 6C 6B 6C 72 00        S........lklr.  
```

#### Opcodes

```
  0: 0x0110 [0x53] WAIT_SCHEDULER_TASK: Wait for scheduler "lklr" with entities [EventEntity, EventEntity]
  1: 0x011D [0x00] END_REQSTACK()
```

### Event 65535.7

#### Metadata

| Field        | Value    |
|--------------|----------|
| Entrypoint   | 0x011E   |
| Data Size    | 16 bytes |
| Instructions | 2        |

```
      00 01 02 03 04 05 06 07  08 09 0A 0B 0C 0D 0E 0F
      -- -- -- -- -- -- -- --  -- -- -- -- -- -- -- --
0110:                                            5B 21                [!
0120: 80 F8 FF FF 7F F8 FF FF  7F 75 74 61 68 00        .........utah.  
```

#### Opcodes

```
  0: 0x011E [0x5B] LOAD_EXT_SCHEDULER: Load scheduler "utah" with entities [EventEntity, EventEntity], work=416*
  1: 0x012D [0x00] END_REQSTACK()
```

### Event 65535.8

#### Metadata

| Field        | Value    |
|--------------|----------|
| Entrypoint   | 0x012E   |
| Data Size    | 14 bytes |
| Instructions | 2        |

```
      00 01 02 03 04 05 06 07  08 09 0A 0B 0C 0D 0E 0F
      -- -- -- -- -- -- -- --  -- -- -- -- -- -- -- --
0120:                                            53 F8                S.
0130: FF FF 7F F8 FF FF 7F 75  74 61 68 00              .......utah.    
```

#### Opcodes

```
  0: 0x012E [0x53] WAIT_SCHEDULER_TASK: Wait for scheduler "utah" with entities [EventEntity, EventEntity]
  1: 0x013B [0x00] END_REQSTACK()
```

### Event 65535.9

#### Metadata

| Field        | Value    |
|--------------|----------|
| Entrypoint   | 0x013C   |
| Data Size    | 16 bytes |
| Instructions | 2        |

```
      00 01 02 03 04 05 06 07  08 09 0A 0B 0C 0D 0E 0F
      -- -- -- -- -- -- -- --  -- -- -- -- -- -- -- --
0130:                                      5B 21 80 F8              [!..
0140: FF FF 7F F8 FF FF 7F 75  74 61 6E 00              .......utan.    
```

#### Opcodes

```
  0: 0x013C [0x5B] LOAD_EXT_SCHEDULER: Load scheduler "utan" with entities [EventEntity, EventEntity], work=416*
  1: 0x014B [0x00] END_REQSTACK()
```

### Event 65535.10

#### Metadata

| Field        | Value    |
|--------------|----------|
| Entrypoint   | 0x014C   |
| Data Size    | 14 bytes |
| Instructions | 2        |

```
      00 01 02 03 04 05 06 07  08 09 0A 0B 0C 0D 0E 0F
      -- -- -- -- -- -- -- --  -- -- -- -- -- -- -- --
0140:                                      53 F8 FF FF              S...
0150: 7F F8 FF FF 7F 75 74 61  6E 00                    .....utan.      
```

#### Opcodes

```
  0: 0x014C [0x53] WAIT_SCHEDULER_TASK: Wait for scheduler "utan" with entities [EventEntity, EventEntity]
  1: 0x0159 [0x00] END_REQSTACK()
```

### Event 65535.11

#### Metadata

| Field        | Value    |
|--------------|----------|
| Entrypoint   | 0x015A   |
| Data Size    | 16 bytes |
| Instructions | 2        |

```
      00 01 02 03 04 05 06 07  08 09 0A 0B 0C 0D 0E 0F
      -- -- -- -- -- -- -- --  -- -- -- -- -- -- -- --
0150:                                5B 21 80 F8 FF FF            [!....
0160: 7F F8 FF FF 7F 68 61 70  79 00                    .....hapy.      
```

#### Opcodes

```
  0: 0x015A [0x5B] LOAD_EXT_SCHEDULER: Load scheduler "hapy" with entities [EventEntity, EventEntity], work=416*
  1: 0x0169 [0x00] END_REQSTACK()
```

### Event 65535.12

#### Metadata

| Field        | Value    |
|--------------|----------|
| Entrypoint   | 0x016A   |
| Data Size    | 14 bytes |
| Instructions | 2        |

```
      00 01 02 03 04 05 06 07  08 09 0A 0B 0C 0D 0E 0F
      -- -- -- -- -- -- -- --  -- -- -- -- -- -- -- --
0160:                                53 F8 FF FF 7F F8            S.....
0170: FF FF 7F 68 61 70 79 00                           ...hapy.        
```

#### Opcodes

```
  0: 0x016A [0x53] WAIT_SCHEDULER_TASK: Wait for scheduler "hapy" with entities [EventEntity, EventEntity]
  1: 0x0177 [0x00] END_REQSTACK()
```

### Event 65535.13

#### Metadata

| Field        | Value    |
|--------------|----------|
| Entrypoint   | 0x0178   |
| Data Size    | 16 bytes |
| Instructions | 2        |

```
      00 01 02 03 04 05 06 07  08 09 0A 0B 0C 0D 0E 0F
      -- -- -- -- -- -- -- --  -- -- -- -- -- -- -- --
0170:                          5B 20 80 F8 FF FF 7F F8          [ ......
0180: FF FF 7F 73 69 6E 30 00                           ...sin0.        
```

#### Opcodes

```
  0: 0x0178 [0x5B] LOAD_EXT_SCHEDULER: Load scheduler "sin0" with entities [EventEntity, EventEntity], work=417*
  1: 0x0187 [0x00] END_REQSTACK()
```

### Event 65535.14

#### Metadata

| Field        | Value    |
|--------------|----------|
| Entrypoint   | 0x0188   |
| Data Size    | 14 bytes |
| Instructions | 2        |

```
      00 01 02 03 04 05 06 07  08 09 0A 0B 0C 0D 0E 0F
      -- -- -- -- -- -- -- --  -- -- -- -- -- -- -- --
0180:                          53 F8 FF FF 7F F8 FF FF          S.......
0190: 7F 73 69 6E 30 00                                 .sin0.          
```

#### Opcodes

```
  0: 0x0188 [0x53] WAIT_SCHEDULER_TASK: Wait for scheduler "sin0" with entities [EventEntity, EventEntity]
  1: 0x0195 [0x00] END_REQSTACK()
```

### Event 65535.15

#### Metadata

| Field        | Value    |
|--------------|----------|
| Entrypoint   | 0x0196   |
| Data Size    | 16 bytes |
| Instructions | 2        |

```
      00 01 02 03 04 05 06 07  08 09 0A 0B 0C 0D 0E 0F
      -- -- -- -- -- -- -- --  -- -- -- -- -- -- -- --
0190:                   66 22  80 F8 FF FF 7F F8 FF FF        f"........
01A0: 7F 73 77 6F 30 00                                 .swo0.          
```

#### Opcodes

```
  0: 0x0196 [0x66] LOAD_EXT_SCHEDULER_MAIN: Load scheduler "swo0" with entities [EventEntity, EventEntity], work=24*
  1: 0x01A5 [0x00] END_REQSTACK()
```

### Event 65535.16

#### Metadata

| Field        | Value    |
|--------------|----------|
| Entrypoint   | 0x01A6   |
| Data Size    | 14 bytes |
| Instructions | 2        |

```
      00 01 02 03 04 05 06 07  08 09 0A 0B 0C 0D 0E 0F
      -- -- -- -- -- -- -- --  -- -- -- -- -- -- -- --
01A0:                   53 F8  FF FF 7F F8 FF FF 7F 73        S........s
01B0: 77 6F 30 00                                       wo0.            
```

#### Opcodes

```
  0: 0x01A6 [0x53] WAIT_SCHEDULER_TASK: Wait for scheduler "swo0" with entities [EventEntity, EventEntity]
  1: 0x01B3 [0x00] END_REQSTACK()
```

### Event 65535.17

#### Metadata

| Field        | Value    |
|--------------|----------|
| Entrypoint   | 0x01B4   |
| Data Size    | 16 bytes |
| Instructions | 2        |

```
      00 01 02 03 04 05 06 07  08 09 0A 0B 0C 0D 0E 0F
      -- -- -- -- -- -- -- --  -- -- -- -- -- -- -- --
01B0:             66 22 80 F8  FF FF 7F F8 FF FF 7F 73      f".........s
01C0: 77 6F 31 00                                       wo1.            
```

#### Opcodes

```
  0: 0x01B4 [0x66] LOAD_EXT_SCHEDULER_MAIN: Load scheduler "swo1" with entities [EventEntity, EventEntity], work=24*
  1: 0x01C3 [0x00] END_REQSTACK()
```

### Event 65535.18

#### Metadata

| Field        | Value    |
|--------------|----------|
| Entrypoint   | 0x01C4   |
| Data Size    | 14 bytes |
| Instructions | 2        |

```
      00 01 02 03 04 05 06 07  08 09 0A 0B 0C 0D 0E 0F
      -- -- -- -- -- -- -- --  -- -- -- -- -- -- -- --
01C0:             53 F8 FF FF  7F F8 FF FF 7F 73 77 6F      S........swo
01D0: 31 00                                             1.              
```

#### Opcodes

```
  0: 0x01C4 [0x53] WAIT_SCHEDULER_TASK: Wait for scheduler "swo1" with entities [EventEntity, EventEntity]
  1: 0x01D1 [0x00] END_REQSTACK()
```

### Event 65535.19

#### Metadata

| Field        | Value    |
|--------------|----------|
| Entrypoint   | 0x01D2   |
| Data Size    | 16 bytes |
| Instructions | 2        |

```
      00 01 02 03 04 05 06 07  08 09 0A 0B 0C 0D 0E 0F
      -- -- -- -- -- -- -- --  -- -- -- -- -- -- -- --
01D0:       66 1A 80 F8 FF FF  7F F8 FF FF 7F 74 6C 6B    f..........tlk
01E0: 30 00                                             0.              
```

#### Opcodes

```
  0: 0x01D2 [0x66] LOAD_EXT_SCHEDULER_MAIN: Load scheduler "tlk0" with entities [EventEntity, EventEntity], work=29*
  1: 0x01E1 [0x00] END_REQSTACK()
```

### Event 65535.20

#### Metadata

| Field        | Value    |
|--------------|----------|
| Entrypoint   | 0x01E2   |
| Data Size    | 14 bytes |
| Instructions | 2        |

```
      00 01 02 03 04 05 06 07  08 09 0A 0B 0C 0D 0E 0F
      -- -- -- -- -- -- -- --  -- -- -- -- -- -- -- --
01E0:       53 F8 FF FF 7F F8  FF FF 7F 74 6C 6B 30 00    S........tlk0.
```

#### Opcodes

```
  0: 0x01E2 [0x53] WAIT_SCHEDULER_TASK: Wait for scheduler "tlk0" with entities [EventEntity, EventEntity]
  1: 0x01EF [0x00] END_REQSTACK()
```

### Event 65535.21

#### Metadata

| Field        | Value    |
|--------------|----------|
| Entrypoint   | 0x01F0   |
| Data Size    | 16 bytes |
| Instructions | 2        |

```
      00 01 02 03 04 05 06 07  08 09 0A 0B 0C 0D 0E 0F
      -- -- -- -- -- -- -- --  -- -- -- -- -- -- -- --
01F0: 66 1A 80 F8 FF FF 7F F8  FF FF 7F 74 6C 6B 31 00  f..........tlk1.
```

#### Opcodes

```
  0: 0x01F0 [0x66] LOAD_EXT_SCHEDULER_MAIN: Load scheduler "tlk1" with entities [EventEntity, EventEntity], work=29*
  1: 0x01FF [0x00] END_REQSTACK()
```

### Event 65535.22

#### Metadata

| Field        | Value    |
|--------------|----------|
| Entrypoint   | 0x0200   |
| Data Size    | 14 bytes |
| Instructions | 2        |

```
      00 01 02 03 04 05 06 07  08 09 0A 0B 0C 0D 0E 0F
      -- -- -- -- -- -- -- --  -- -- -- -- -- -- -- --
0200: 53 F8 FF FF 7F F8 FF FF  7F 74 6C 6B 31 00        S........tlk1.  
```

#### Opcodes

```
  0: 0x0200 [0x53] WAIT_SCHEDULER_TASK: Wait for scheduler "tlk1" with entities [EventEntity, EventEntity]
  1: 0x020D [0x00] END_REQSTACK()
```

### Event 65535.23

#### Metadata

| Field        | Value    |
|--------------|----------|
| Entrypoint   | 0x020E   |
| Data Size    | 16 bytes |
| Instructions | 2        |

```
      00 01 02 03 04 05 06 07  08 09 0A 0B 0C 0D 0E 0F
      -- -- -- -- -- -- -- --  -- -- -- -- -- -- -- --
0200:                                            66 1A                f.
0210: 80 F8 FF FF 7F F8 FF FF  7F 74 68 6B 31 00        .........thk1.  
```

#### Opcodes

```
  0: 0x020E [0x66] LOAD_EXT_SCHEDULER_MAIN: Load scheduler "thk1" with entities [EventEntity, EventEntity], work=29*
  1: 0x021D [0x00] END_REQSTACK()
```

### Event 65535.24

#### Metadata

| Field        | Value    |
|--------------|----------|
| Entrypoint   | 0x021E   |
| Data Size    | 14 bytes |
| Instructions | 2        |

```
      00 01 02 03 04 05 06 07  08 09 0A 0B 0C 0D 0E 0F
      -- -- -- -- -- -- -- --  -- -- -- -- -- -- -- --
0210:                                            53 F8                S.
0220: FF FF 7F F8 FF FF 7F 74  68 6B 31 00              .......thk1.    
```

#### Opcodes

```
  0: 0x021E [0x53] WAIT_SCHEDULER_TASK: Wait for scheduler "thk1" with entities [EventEntity, EventEntity]
  1: 0x022B [0x00] END_REQSTACK()
```

### Event 65535.25

#### Metadata

| Field        | Value    |
|--------------|----------|
| Entrypoint   | 0x022C   |
| Data Size    | 16 bytes |
| Instructions | 2        |

```
      00 01 02 03 04 05 06 07  08 09 0A 0B 0C 0D 0E 0F
      -- -- -- -- -- -- -- --  -- -- -- -- -- -- -- --
0220:                                      66 1A 80 F8              f...
0230: FF FF 7F F8 FF FF 7F 74  68 6B 32 00              .......thk2.    
```

#### Opcodes

```
  0: 0x022C [0x66] LOAD_EXT_SCHEDULER_MAIN: Load scheduler "thk2" with entities [EventEntity, EventEntity], work=29*
  1: 0x023B [0x00] END_REQSTACK()
```

### Event 65535.26

#### Metadata

| Field        | Value    |
|--------------|----------|
| Entrypoint   | 0x023C   |
| Data Size    | 14 bytes |
| Instructions | 2        |

```
      00 01 02 03 04 05 06 07  08 09 0A 0B 0C 0D 0E 0F
      -- -- -- -- -- -- -- --  -- -- -- -- -- -- -- --
0230:                                      53 F8 FF FF              S...
0240: 7F F8 FF FF 7F 74 68 6B  32 00                    .....thk2.      
```

#### Opcodes

```
  0: 0x023C [0x53] WAIT_SCHEDULER_TASK: Wait for scheduler "thk2" with entities [EventEntity, EventEntity]
  1: 0x0249 [0x00] END_REQSTACK()
```

### Event 65535.27

#### Metadata

| Field        | Value    |
|--------------|----------|
| Entrypoint   | 0x024A   |
| Data Size    | 16 bytes |
| Instructions | 2        |

```
      00 01 02 03 04 05 06 07  08 09 0A 0B 0C 0D 0E 0F
      -- -- -- -- -- -- -- --  -- -- -- -- -- -- -- --
0240:                                66 1A 80 F8 FF FF            f.....
0250: 7F F8 FF FF 7F 73 68 61  30 00                    .....sha0.      
```

#### Opcodes

```
  0: 0x024A [0x66] LOAD_EXT_SCHEDULER_MAIN: Load scheduler "sha0" with entities [EventEntity, EventEntity], work=29*
  1: 0x0259 [0x00] END_REQSTACK()
```

### Event 65535.28

#### Metadata

| Field        | Value    |
|--------------|----------|
| Entrypoint   | 0x025A   |
| Data Size    | 14 bytes |
| Instructions | 2        |

```
      00 01 02 03 04 05 06 07  08 09 0A 0B 0C 0D 0E 0F
      -- -- -- -- -- -- -- --  -- -- -- -- -- -- -- --
0250:                                53 F8 FF FF 7F F8            S.....
0260: FF FF 7F 73 68 61 30 00                           ...sha0.        
```

#### Opcodes

```
  0: 0x025A [0x53] WAIT_SCHEDULER_TASK: Wait for scheduler "sha0" with entities [EventEntity, EventEntity]
  1: 0x0267 [0x00] END_REQSTACK()
```

### Event 65535.29

#### Metadata

| Field        | Value    |
|--------------|----------|
| Entrypoint   | 0x0268   |
| Data Size    | 16 bytes |
| Instructions | 2        |

```
      00 01 02 03 04 05 06 07  08 09 0A 0B 0C 0D 0E 0F
      -- -- -- -- -- -- -- --  -- -- -- -- -- -- -- --
0260:                          66 1A 80 F8 FF FF 7F F8          f.......
0270: FF FF 7F 73 68 61 31 00                           ...sha1.        
```

#### Opcodes

```
  0: 0x0268 [0x66] LOAD_EXT_SCHEDULER_MAIN: Load scheduler "sha1" with entities [EventEntity, EventEntity], work=29*
  1: 0x0277 [0x00] END_REQSTACK()
```

### Event 65535.30

#### Metadata

| Field        | Value    |
|--------------|----------|
| Entrypoint   | 0x0278   |
| Data Size    | 14 bytes |
| Instructions | 2        |

```
      00 01 02 03 04 05 06 07  08 09 0A 0B 0C 0D 0E 0F
      -- -- -- -- -- -- -- --  -- -- -- -- -- -- -- --
0270:                          53 F8 FF FF 7F F8 FF FF          S.......
0280: 7F 73 68 61 31 00                                 .sha1.          
```

#### Opcodes

```
  0: 0x0278 [0x53] WAIT_SCHEDULER_TASK: Wait for scheduler "sha1" with entities [EventEntity, EventEntity]
  1: 0x0285 [0x00] END_REQSTACK()
```

### Event 65535.31

#### Metadata

| Field        | Value    |
|--------------|----------|
| Entrypoint   | 0x0286   |
| Data Size    | 57 bytes |
| Instructions | 5        |

```
      00 01 02 03 04 05 06 07  08 09 0A 0B 0C 0D 0E 0F
      -- -- -- -- -- -- -- --  -- -- -- -- -- -- -- --
0280:                   66 1A  80 F8 FF FF 7F F8 FF FF        f.........
0290: 7F 73 68 61 30 53 F8 FF  FF 7F F8 FF FF 7F 73 68  .sha0S........sh
02A0: 61 30 66 1A 80 F8 FF FF  7F F8 FF FF 7F 73 68 61  a0f..........sha
02B0: 31 53 F8 FF FF 7F F8 FF  FF 7F 73 68 61 31 00     1S........sha1. 
```

#### Opcodes

```
  0: 0x0286 [0x66] LOAD_EXT_SCHEDULER_MAIN: Load scheduler "sha0" with entities [EventEntity, EventEntity], work=29*
  1: 0x0295 [0x53] WAIT_SCHEDULER_TASK: Wait for scheduler "sha0" with entities [EventEntity, EventEntity]
  2: 0x02A2 [0x66] LOAD_EXT_SCHEDULER_MAIN: Load scheduler "sha1" with entities [EventEntity, EventEntity], work=29*
  3: 0x02B1 [0x53] WAIT_SCHEDULER_TASK: Wait for scheduler "sha1" with entities [EventEntity, EventEntity]
  4: 0x02BE [0x00] END_REQSTACK()
```

### Event 65535.32

#### Metadata

| Field        | Value    |
|--------------|----------|
| Entrypoint   | 0x02BF   |
| Data Size    | 16 bytes |
| Instructions | 2        |

```
      00 01 02 03 04 05 06 07  08 09 0A 0B 0C 0D 0E 0F
      -- -- -- -- -- -- -- --  -- -- -- -- -- -- -- --
02B0:                                               66                 f
02C0: 1A 80 F8 FF FF 7F F8 FF  FF 7F 73 69 72 30 00     ..........sir0. 
```

#### Opcodes

```
  0: 0x02BF [0x66] LOAD_EXT_SCHEDULER_MAIN: Load scheduler "sir0" with entities [EventEntity, EventEntity], work=29*
  1: 0x02CE [0x00] END_REQSTACK()
```

### Event 65535.33

#### Metadata

| Field        | Value    |
|--------------|----------|
| Entrypoint   | 0x02CF   |
| Data Size    | 14 bytes |
| Instructions | 2        |

```
      00 01 02 03 04 05 06 07  08 09 0A 0B 0C 0D 0E 0F
      -- -- -- -- -- -- -- --  -- -- -- -- -- -- -- --
02C0:                                               53                 S
02D0: F8 FF FF 7F F8 FF FF 7F  73 69 72 30 00           ........sir0.   
```

#### Opcodes

```
  0: 0x02CF [0x53] WAIT_SCHEDULER_TASK: Wait for scheduler "sir0" with entities [EventEntity, EventEntity]
  1: 0x02DC [0x00] END_REQSTACK()
```

### Event 65535.34

#### Metadata

| Field        | Value    |
|--------------|----------|
| Entrypoint   | 0x02DD   |
| Data Size    | 16 bytes |
| Instructions | 2        |

```
      00 01 02 03 04 05 06 07  08 09 0A 0B 0C 0D 0E 0F
      -- -- -- -- -- -- -- --  -- -- -- -- -- -- -- --
02D0:                                         66 1A 80               f..
02E0: F8 FF FF 7F F8 FF FF 7F  73 69 72 31 00           ........sir1.   
```

#### Opcodes

```
  0: 0x02DD [0x66] LOAD_EXT_SCHEDULER_MAIN: Load scheduler "sir1" with entities [EventEntity, EventEntity], work=29*
  1: 0x02EC [0x00] END_REQSTACK()
```

### Event 65535.35

#### Metadata

| Field        | Value    |
|--------------|----------|
| Entrypoint   | 0x02ED   |
| Data Size    | 14 bytes |
| Instructions | 2        |

```
      00 01 02 03 04 05 06 07  08 09 0A 0B 0C 0D 0E 0F
      -- -- -- -- -- -- -- --  -- -- -- -- -- -- -- --
02E0:                                         53 F8 FF               S..
02F0: FF 7F F8 FF FF 7F 73 69  72 31 00                 ......sir1.     
```

#### Opcodes

```
  0: 0x02ED [0x53] WAIT_SCHEDULER_TASK: Wait for scheduler "sir1" with entities [EventEntity, EventEntity]
  1: 0x02FA [0x00] END_REQSTACK()
```

### Event 65535.36

#### Metadata

| Field        | Value    |
|--------------|----------|
| Entrypoint   | 0x02FB   |
| Data Size    | 16 bytes |
| Instructions | 2        |

```
      00 01 02 03 04 05 06 07  08 09 0A 0B 0C 0D 0E 0F
      -- -- -- -- -- -- -- --  -- -- -- -- -- -- -- --
02F0:                                   5B 20 80 F8 FF             [ ...
0300: FF 7F F8 FF FF 7F 62 74  6C 73 00                 ......btls.     
```

#### Opcodes

```
  0: 0x02FB [0x5B] LOAD_EXT_SCHEDULER: Load scheduler "btls" with entities [EventEntity, EventEntity], work=417*
  1: 0x030A [0x00] END_REQSTACK()
```

### Event 65535.37

#### Metadata

| Field        | Value    |
|--------------|----------|
| Entrypoint   | 0x030B   |
| Data Size    | 14 bytes |
| Instructions | 2        |

```
      00 01 02 03 04 05 06 07  08 09 0A 0B 0C 0D 0E 0F
      -- -- -- -- -- -- -- --  -- -- -- -- -- -- -- --
0300:                                   53 F8 FF FF 7F             S....
0310: F8 FF FF 7F 62 74 6C 73  00                       ....btls.       
```

#### Opcodes

```
  0: 0x030B [0x53] WAIT_SCHEDULER_TASK: Wait for scheduler "btls" with entities [EventEntity, EventEntity]
  1: 0x0318 [0x00] END_REQSTACK()
```

### Event 65535.38

#### Metadata

| Field        | Value    |
|--------------|----------|
| Entrypoint   | 0x0319   |
| Data Size    | 16 bytes |
| Instructions | 2        |

```
      00 01 02 03 04 05 06 07  08 09 0A 0B 0C 0D 0E 0F
      -- -- -- -- -- -- -- --  -- -- -- -- -- -- -- --
0310:                             5B 23 80 F8 FF FF 7F           [#.....
0320: F8 FF FF 7F 6B 65 69 30  00                       ....kei0.       
```

#### Opcodes

```
  0: 0x0319 [0x5B] LOAD_EXT_SCHEDULER: Load scheduler "kei0" with entities [EventEntity, EventEntity], work=418*
  1: 0x0328 [0x00] END_REQSTACK()
```

### Event 65535.39

#### Metadata

| Field        | Value    |
|--------------|----------|
| Entrypoint   | 0x0329   |
| Data Size    | 14 bytes |
| Instructions | 2        |

```
      00 01 02 03 04 05 06 07  08 09 0A 0B 0C 0D 0E 0F
      -- -- -- -- -- -- -- --  -- -- -- -- -- -- -- --
0320:                             53 F8 FF FF 7F F8 FF           S......
0330: FF 7F 6B 65 69 30 00                              ..kei0.         
```

#### Opcodes

```
  0: 0x0329 [0x53] WAIT_SCHEDULER_TASK: Wait for scheduler "kei0" with entities [EventEntity, EventEntity]
  1: 0x0336 [0x00] END_REQSTACK()
```

### Event 65535.40

#### Metadata

| Field        | Value    |
|--------------|----------|
| Entrypoint   | 0x0337   |
| Data Size    | 16 bytes |
| Instructions | 2        |

```
      00 01 02 03 04 05 06 07  08 09 0A 0B 0C 0D 0E 0F
      -- -- -- -- -- -- -- --  -- -- -- -- -- -- -- --
0330:                      5B  23 80 F8 FF FF 7F F8 FF         [#.......
0340: FF 7F 6B 65 69 31 00                              ..kei1.         
```

#### Opcodes

```
  0: 0x0337 [0x5B] LOAD_EXT_SCHEDULER: Load scheduler "kei1" with entities [EventEntity, EventEntity], work=418*
  1: 0x0346 [0x00] END_REQSTACK()
```

### Event 65535.41

#### Metadata

| Field        | Value    |
|--------------|----------|
| Entrypoint   | 0x0347   |
| Data Size    | 14 bytes |
| Instructions | 2        |

```
      00 01 02 03 04 05 06 07  08 09 0A 0B 0C 0D 0E 0F
      -- -- -- -- -- -- -- --  -- -- -- -- -- -- -- --
0340:                      53  F8 FF FF 7F F8 FF FF 7F         S........
0350: 6B 65 69 31 00                                    kei1.           
```

#### Opcodes

```
  0: 0x0347 [0x53] WAIT_SCHEDULER_TASK: Wait for scheduler "kei1" with entities [EventEntity, EventEntity]
  1: 0x0354 [0x00] END_REQSTACK()
```

### Event 65535.42

#### Metadata

| Field        | Value    |
|--------------|----------|
| Entrypoint   | 0x0355   |
| Data Size    | 16 bytes |
| Instructions | 2        |

```
      00 01 02 03 04 05 06 07  08 09 0A 0B 0C 0D 0E 0F
      -- -- -- -- -- -- -- --  -- -- -- -- -- -- -- --
0350:                5B 24 80  F8 FF FF 7F F8 FF FF 7F       [$.........
0360: 73 72 64 30 00                                    srd0.           
```

#### Opcodes

```
  0: 0x0355 [0x5B] LOAD_EXT_SCHEDULER: Load scheduler "srd0" with entities [EventEntity, EventEntity], work=656*
  1: 0x0364 [0x00] END_REQSTACK()
```

### Event 65535.43

#### Metadata

| Field        | Value    |
|--------------|----------|
| Entrypoint   | 0x0365   |
| Data Size    | 14 bytes |
| Instructions | 2        |

```
      00 01 02 03 04 05 06 07  08 09 0A 0B 0C 0D 0E 0F
      -- -- -- -- -- -- -- --  -- -- -- -- -- -- -- --
0360:                53 F8 FF  FF 7F F8 FF FF 7F 73 72       S........sr
0370: 64 30 00                                          d0.             
```

#### Opcodes

```
  0: 0x0365 [0x53] WAIT_SCHEDULER_TASK: Wait for scheduler "srd0" with entities [EventEntity, EventEntity]
  1: 0x0372 [0x00] END_REQSTACK()
```

### Event 65535.44

#### Metadata

| Field        | Value    |
|--------------|----------|
| Entrypoint   | 0x0373   |
| Data Size    | 16 bytes |
| Instructions | 2        |

```
      00 01 02 03 04 05 06 07  08 09 0A 0B 0C 0D 0E 0F
      -- -- -- -- -- -- -- --  -- -- -- -- -- -- -- --
0370:          5B 24 80 F8 FF  FF 7F F8 FF FF 7F 73 72     [$.........sr
0380: 64 31 00                                          d1.             
```

#### Opcodes

```
  0: 0x0373 [0x5B] LOAD_EXT_SCHEDULER: Load scheduler "srd1" with entities [EventEntity, EventEntity], work=656*
  1: 0x0382 [0x00] END_REQSTACK()
```

### Event 65535.45

#### Metadata

| Field        | Value    |
|--------------|----------|
| Entrypoint   | 0x0383   |
| Data Size    | 14 bytes |
| Instructions | 2        |

```
      00 01 02 03 04 05 06 07  08 09 0A 0B 0C 0D 0E 0F
      -- -- -- -- -- -- -- --  -- -- -- -- -- -- -- --
0380:          53 F8 FF FF 7F  F8 FF FF 7F 73 72 64 31     S........srd1
0390: 00                                                .               
```

#### Opcodes

```
  0: 0x0383 [0x53] WAIT_SCHEDULER_TASK: Wait for scheduler "srd1" with entities [EventEntity, EventEntity]
  1: 0x0390 [0x00] END_REQSTACK()
```

### Event 65535.46

#### Metadata

| Field        | Value    |
|--------------|----------|
| Entrypoint   | 0x0391   |
| Data Size    | 16 bytes |
| Instructions | 2        |

```
      00 01 02 03 04 05 06 07  08 09 0A 0B 0C 0D 0E 0F
      -- -- -- -- -- -- -- --  -- -- -- -- -- -- -- --
0390:    5B 25 80 F8 FF FF 7F  F8 FF FF 7F 6A 6D 70 30   [%.........jmp0
03A0: 00                                                .               
```

#### Opcodes

```
  0: 0x0391 [0x5B] LOAD_EXT_SCHEDULER: Load scheduler "jmp0" with entities [EventEntity, EventEntity], work=419*
  1: 0x03A0 [0x00] END_REQSTACK()
```

### Event 65535.47

#### Metadata

| Field        | Value    |
|--------------|----------|
| Entrypoint   | 0x03A1   |
| Data Size    | 14 bytes |
| Instructions | 2        |

```
      00 01 02 03 04 05 06 07  08 09 0A 0B 0C 0D 0E 0F
      -- -- -- -- -- -- -- --  -- -- -- -- -- -- -- --
03A0:    53 F8 FF FF 7F F8 FF  FF 7F 6A 6D 70 30 00      S........jmp0. 
```

#### Opcodes

```
  0: 0x03A1 [0x53] WAIT_SCHEDULER_TASK: Wait for scheduler "jmp0" with entities [EventEntity, EventEntity]
  1: 0x03AE [0x00] END_REQSTACK()
```

### Event 65535.48

#### Metadata

| Field        | Value    |
|--------------|----------|
| Entrypoint   | 0x03AF   |
| Data Size    | 16 bytes |
| Instructions | 2        |

```
      00 01 02 03 04 05 06 07  08 09 0A 0B 0C 0D 0E 0F
      -- -- -- -- -- -- -- --  -- -- -- -- -- -- -- --
03A0:                                               66                 f
03B0: 1A 80 F8 FF FF 7F F8 FF  FF 7F 74 77 61 30 00     ..........twa0. 
```

#### Opcodes

```
  0: 0x03AF [0x66] LOAD_EXT_SCHEDULER_MAIN: Load scheduler "twa0" with entities [EventEntity, EventEntity], work=29*
  1: 0x03BE [0x00] END_REQSTACK()
```

### Event 65535.49

#### Metadata

| Field        | Value    |
|--------------|----------|
| Entrypoint   | 0x03BF   |
| Data Size    | 14 bytes |
| Instructions | 2        |

```
      00 01 02 03 04 05 06 07  08 09 0A 0B 0C 0D 0E 0F
      -- -- -- -- -- -- -- --  -- -- -- -- -- -- -- --
03B0:                                               53                 S
03C0: F8 FF FF 7F F8 FF FF 7F  74 77 61 30 00           ........twa0.   
```

#### Opcodes

```
  0: 0x03BF [0x53] WAIT_SCHEDULER_TASK: Wait for scheduler "twa0" with entities [EventEntity, EventEntity]
  1: 0x03CC [0x00] END_REQSTACK()
```

### Event 65535.50

#### Metadata

| Field        | Value    |
|--------------|----------|
| Entrypoint   | 0x03CD   |
| Data Size    | 16 bytes |
| Instructions | 2        |

```
      00 01 02 03 04 05 06 07  08 09 0A 0B 0C 0D 0E 0F
      -- -- -- -- -- -- -- --  -- -- -- -- -- -- -- --
03C0:                                         66 1A 80               f..
03D0: F8 FF FF 7F F8 FF FF 7F  74 77 61 31 00           ........twa1.   
```

#### Opcodes

```
  0: 0x03CD [0x66] LOAD_EXT_SCHEDULER_MAIN: Load scheduler "twa1" with entities [EventEntity, EventEntity], work=29*
  1: 0x03DC [0x00] END_REQSTACK()
```

### Event 65535.51

#### Metadata

| Field        | Value    |
|--------------|----------|
| Entrypoint   | 0x03DD   |
| Data Size    | 14 bytes |
| Instructions | 2        |

```
      00 01 02 03 04 05 06 07  08 09 0A 0B 0C 0D 0E 0F
      -- -- -- -- -- -- -- --  -- -- -- -- -- -- -- --
03D0:                                         53 F8 FF               S..
03E0: FF 7F F8 FF FF 7F 74 77  61 31 00                 ......twa1.     
```

#### Opcodes

```
  0: 0x03DD [0x53] WAIT_SCHEDULER_TASK: Wait for scheduler "twa1" with entities [EventEntity, EventEntity]
  1: 0x03EA [0x00] END_REQSTACK()
```

### Event 65535.52

#### Metadata

| Field        | Value    |
|--------------|----------|
| Entrypoint   | 0x03EB   |
| Data Size    | 16 bytes |
| Instructions | 2        |

```
      00 01 02 03 04 05 06 07  08 09 0A 0B 0C 0D 0E 0F
      -- -- -- -- -- -- -- --  -- -- -- -- -- -- -- --
03E0:                                   66 1A 80 F8 FF             f....
03F0: FF 7F F8 FF FF 7F 74 77  62 30 00                 ......twb0.     
```

#### Opcodes

```
  0: 0x03EB [0x66] LOAD_EXT_SCHEDULER_MAIN: Load scheduler "twb0" with entities [EventEntity, EventEntity], work=29*
  1: 0x03FA [0x00] END_REQSTACK()
```

### Event 65535.53

#### Metadata

| Field        | Value    |
|--------------|----------|
| Entrypoint   | 0x03FB   |
| Data Size    | 14 bytes |
| Instructions | 2        |

```
      00 01 02 03 04 05 06 07  08 09 0A 0B 0C 0D 0E 0F
      -- -- -- -- -- -- -- --  -- -- -- -- -- -- -- --
03F0:                                   53 F8 FF FF 7F             S....
0400: F8 FF FF 7F 74 77 62 30  00                       ....twb0.       
```

#### Opcodes

```
  0: 0x03FB [0x53] WAIT_SCHEDULER_TASK: Wait for scheduler "twb0" with entities [EventEntity, EventEntity]
  1: 0x0408 [0x00] END_REQSTACK()
```

### Event 65535.54

#### Metadata

| Field        | Value    |
|--------------|----------|
| Entrypoint   | 0x0409   |
| Data Size    | 16 bytes |
| Instructions | 2        |

```
      00 01 02 03 04 05 06 07  08 09 0A 0B 0C 0D 0E 0F
      -- -- -- -- -- -- -- --  -- -- -- -- -- -- -- --
0400:                             66 1A 80 F8 FF FF 7F           f......
0410: F8 FF FF 7F 74 77 62 31  00                       ....twb1.       
```

#### Opcodes

```
  0: 0x0409 [0x66] LOAD_EXT_SCHEDULER_MAIN: Load scheduler "twb1" with entities [EventEntity, EventEntity], work=29*
  1: 0x0418 [0x00] END_REQSTACK()
```

### Event 65535.55

#### Metadata

| Field        | Value    |
|--------------|----------|
| Entrypoint   | 0x0419   |
| Data Size    | 14 bytes |
| Instructions | 2        |

```
      00 01 02 03 04 05 06 07  08 09 0A 0B 0C 0D 0E 0F
      -- -- -- -- -- -- -- --  -- -- -- -- -- -- -- --
0410:                             53 F8 FF FF 7F F8 FF           S......
0420: FF 7F 74 77 62 31 00                              ..twb1.         
```

#### Opcodes

```
  0: 0x0419 [0x53] WAIT_SCHEDULER_TASK: Wait for scheduler "twb1" with entities [EventEntity, EventEntity]
  1: 0x0426 [0x00] END_REQSTACK()
```

### Event 65535.56

#### Metadata

| Field        | Value    |
|--------------|----------|
| Entrypoint   | 0x0427   |
| Data Size    | 18 bytes |
| Instructions | 4        |

```
      00 01 02 03 04 05 06 07  08 09 0A 0B 0C 0D 0E 0F
      -- -- -- -- -- -- -- --  -- -- -- -- -- -- -- --
0420:                      6E  F8 FF FF 7F 22 80 99 F8         n...."...
0430: FF FF 7F 99 F8 FF FF 7F  00                       .........       
```

#### Opcodes

```
  0: 0x0427 [0x6E] EventEntity uses emote 24*
  1: 0x042E [0x99] Wait for EventEntity animation to complete
  2: 0x0433 [0x99] Wait for EventEntity animation to complete
  3: 0x0438 [0x00] END_REQSTACK()
```

### Event 65535.57

#### Metadata

| Field        | Value    |
|--------------|----------|
| Entrypoint   | 0x0439   |
| Data Size    | 18 bytes |
| Instructions | 4        |

```
      00 01 02 03 04 05 06 07  08 09 0A 0B 0C 0D 0E 0F
      -- -- -- -- -- -- -- --  -- -- -- -- -- -- -- --
0430:                             6E F8 FF FF 7F 26 80           n....&.
0440: 99 F8 FF FF 7F 99 F8 FF  FF 7F 00                 ...........     
```

#### Opcodes

```
  0: 0x0439 [0x6E] EventEntity uses emote 43*
  1: 0x0440 [0x99] Wait for EventEntity animation to complete
  2: 0x0445 [0x99] Wait for EventEntity animation to complete
  3: 0x044A [0x00] END_REQSTACK()
```

### Event 65535.58

#### Metadata

| Field        | Value    |
|--------------|----------|
| Entrypoint   | 0x044B   |
| Data Size    | 18 bytes |
| Instructions | 4        |

```
      00 01 02 03 04 05 06 07  08 09 0A 0B 0C 0D 0E 0F
      -- -- -- -- -- -- -- --  -- -- -- -- -- -- -- --
0440:                                   6E F8 FF FF 7F             n....
0450: 27 80 99 F8 FF FF 7F 99  F8 FF FF 7F 00           '............   
```

#### Opcodes

```
  0: 0x044B [0x6E] EventEntity uses emote 25*
  1: 0x0452 [0x99] Wait for EventEntity animation to complete
  2: 0x0457 [0x99] Wait for EventEntity animation to complete
  3: 0x045C [0x00] END_REQSTACK()
```

### Event 65535.59

#### Metadata

| Field        | Value    |
|--------------|----------|
| Entrypoint   | 0x045D   |
| Data Size    | 18 bytes |
| Instructions | 4        |

```
      00 01 02 03 04 05 06 07  08 09 0A 0B 0C 0D 0E 0F
      -- -- -- -- -- -- -- --  -- -- -- -- -- -- -- --
0450:                                         6E F8 FF               n..
0460: FF 7F 28 80 99 F8 FF FF  7F 99 F8 FF FF 7F 00     ..(............ 
```

#### Opcodes

```
  0: 0x045D [0x6E] EventEntity uses emote 7*
  1: 0x0464 [0x99] Wait for EventEntity animation to complete
  2: 0x0469 [0x99] Wait for EventEntity animation to complete
  3: 0x046E [0x00] END_REQSTACK()
```

### Event 65535.60

#### Metadata

| Field        | Value    |
|--------------|----------|
| Entrypoint   | 0x046F   |
| Data Size    | 18 bytes |
| Instructions | 4        |

```
      00 01 02 03 04 05 06 07  08 09 0A 0B 0C 0D 0E 0F
      -- -- -- -- -- -- -- --  -- -- -- -- -- -- -- --
0460:                                               6E                 n
0470: F8 FF FF 7F 29 80 99 F8  FF FF 7F 99 F8 FF FF 7F  ....)...........
0480: 00                                                .               
```

#### Opcodes

```
  0: 0x046F [0x6E] EventEntity uses emote 0*
  1: 0x0476 [0x99] Wait for EventEntity animation to complete
  2: 0x047B [0x99] Wait for EventEntity animation to complete
  3: 0x0480 [0x00] END_REQSTACK()
```

### Event 65535.61

#### Metadata

| Field        | Value    |
|--------------|----------|
| Entrypoint   | 0x0481   |
| Data Size    | 18 bytes |
| Instructions | 4        |

```
      00 01 02 03 04 05 06 07  08 09 0A 0B 0C 0D 0E 0F
      -- -- -- -- -- -- -- --  -- -- -- -- -- -- -- --
0480:    6E F8 FF FF 7F 10 80  99 F8 FF FF 7F 99 F8 FF   n..............
0490: FF 7F 00                                          ...             
```

#### Opcodes

```
  0: 0x0481 [0x6E] EventEntity uses emote 13*
  1: 0x0488 [0x99] Wait for EventEntity animation to complete
  2: 0x048D [0x99] Wait for EventEntity animation to complete
  3: 0x0492 [0x00] END_REQSTACK()
```

### Event 65535.62

#### Metadata

| Field        | Value   |
|--------------|---------|
| Entrypoint   | 0x0493  |
| Data Size    | 9 bytes |
| Instructions | 3       |

```
      00 01 02 03 04 05 06 07  08 09 0A 0B 0C 0D 0E 0F
      -- -- -- -- -- -- -- --  -- -- -- -- -- -- -- --
0490:          5E 69 64 6C 30  1C 2A 80 00                 ^idl0.*..    
```

#### Opcodes

```
  0: 0x0493 [0x5E] EventEntity goes idle (kills current action) (animation: "idl0")
  1: 0x0498 [0x1C] WAIT(30* ticks)
  2: 0x049B [0x00] END_REQSTACK()
```

### Event 65535.63

#### Metadata

| Field        | Value    |
|--------------|----------|
| Entrypoint   | 0x049C   |
| Data Size    | 27 bytes |
| Instructions | 3        |

```
      00 01 02 03 04 05 06 07  08 09 0A 0B 0C 0D 0E 0F
      -- -- -- -- -- -- -- --  -- -- -- -- -- -- -- --
0490:                                      2C F8 FF FF              ,...
04A0: 7F F8 FF FF 7F 63 6F 72  70 53 F8 FF FF 7F F8 FF  .....corpS......
04B0: FF 7F 63 6F 72 70 00                              ..corp.         
```

#### Opcodes

```
  0: 0x049C [0x2C] CREATE_SCHEDULER_TASK: Create scheduler "corp" with entities [EventEntity, EventEntity]
  1: 0x04A9 [0x53] WAIT_SCHEDULER_TASK: Wait for scheduler "corp" with entities [EventEntity, EventEntity]
  2: 0x04B6 [0x00] END_REQSTACK()
```

### Event 65535.64

#### Metadata

| Field        | Value    |
|--------------|----------|
| Entrypoint   | 0x04B7   |
| Data Size    | 27 bytes |
| Instructions | 3        |

```
      00 01 02 03 04 05 06 07  08 09 0A 0B 0C 0D 0E 0F
      -- -- -- -- -- -- -- --  -- -- -- -- -- -- -- --
04B0:                      2C  F8 FF FF 7F F8 FF FF 7F         ,........
04C0: 72 65 73 31 53 F8 FF FF  7F F8 FF FF 7F 72 65 73  res1S........res
04D0: 31 00                                             1.              
```

#### Opcodes

```
  0: 0x04B7 [0x2C] CREATE_SCHEDULER_TASK: Create scheduler "res1" with entities [EventEntity, EventEntity]
  1: 0x04C4 [0x53] WAIT_SCHEDULER_TASK: Wait for scheduler "res1" with entities [EventEntity, EventEntity]
  2: 0x04D1 [0x00] END_REQSTACK()
```

### Event 65535.65

#### Metadata

| Field        | Value    |
|--------------|----------|
| Entrypoint   | 0x04D2   |
| Data Size    | 27 bytes |
| Instructions | 3        |

```
      00 01 02 03 04 05 06 07  08 09 0A 0B 0C 0D 0E 0F
      -- -- -- -- -- -- -- --  -- -- -- -- -- -- -- --
04D0:       2C F8 FF FF 7F F8  FF FF 7F 72 65 73 32 53    ,........res2S
04E0: F8 FF FF 7F F8 FF FF 7F  72 65 73 32 00           ........res2.   
```

#### Opcodes

```
  0: 0x04D2 [0x2C] CREATE_SCHEDULER_TASK: Create scheduler "res2" with entities [EventEntity, EventEntity]
  1: 0x04DF [0x53] WAIT_SCHEDULER_TASK: Wait for scheduler "res2" with entities [EventEntity, EventEntity]
  2: 0x04EC [0x00] END_REQSTACK()
```

### Event 140

#### Metadata

| Field        | Value   |
|--------------|---------|
| Entrypoint   | 0x04ED  |
| Data Size    | 1 bytes |
| Instructions | 1       |

```
      00 01 02 03 04 05 06 07  08 09 0A 0B 0C 0D 0E 0F
      -- -- -- -- -- -- -- --  -- -- -- -- -- -- -- --
04E0:                                         00                     .  
```

#### Opcodes

```
  0: 0x04ED [0x00] END_REQSTACK()
```

### Event 65535.66

#### Metadata

| Field        | Value    |
|--------------|----------|
| Entrypoint   | 0x04EE   |
| Data Size    | 10 bytes |
| Instructions | 2        |

```
      00 01 02 03 04 05 06 07  08 09 0A 0B 0C 0D 0E 0F
      -- -- -- -- -- -- -- --  -- -- -- -- -- -- -- --
04E0:                                            37 2B                7+
04F0: 80 2C 80 2D 80 2E 80 00                           .,.-....        
```

#### Opcodes

```
  0: 0x04EE [0x37] UPDATE_EVENT_POSITION_AND_DIR: x=114.008*, z=44.780*, y=-41.000*, direction=221.0°*
  1: 0x04F7 [0x00] END_REQSTACK()
```

### Event 145

#### Metadata

| Field        | Value    |
|--------------|----------|
| Entrypoint   | 0x04F8   |
| Data Size    | 47 bytes |
| Instructions | 14       |

```
      00 01 02 03 04 05 06 07  08 09 0A 0B 0C 0D 0E 0F
      -- -- -- -- -- -- -- --  -- -- -- -- -- -- -- --
04F0:                          1E F0 FF FF 7F 6F 70 29          .....op)
0500: 08 0E A0 01 01 1B 1D 2F  80 23 1D 30 80 23 29 08  ......./.#.0.#).
0510: 0E A0 01 01 1C 29 08 0E  A0 01 01 1D 29 08 0E A0  .....)......)...
0520: 01 01 1E 20 00 21 00                              ... .!.         
```

#### Opcodes

```
  0: 0x04F8 [0x1E] EventEntity looks at LocalPlayer and starts talking
  1: 0x04FD [0x6F] WAIT_FRAME_DELAY: Yield until WaitTime reaches zero
  2: 0x04FE [0x70] WAIT_ENTITY_RENDER_FLAG: Wait while EventEntity->Render.Flags3 bit 2 is set (cancel turn if not)
  3: 0x04FF [0x29] REQ_SET_WAIT(priority=0x08, entity_id=Parelbriaux (ID: 16883726/0x0101A00E), tag_num=0x1B)
  4: 0x0506 [0x1D] PRINT_EVENT_MESSAGE(message_id=10462*)
    → "That Mithra is some kind of tracker called a "sin hunter." That's what old Odeya told me."
  5: 0x0509 [0x23] WAIT_FOR_DIALOG_INTERACTION
  6: 0x050A [0x1D] PRINT_EVENT_MESSAGE(message_id=10463*)
    → "The sin hunter went to talk to her after searching Prishe's room."
  7: 0x050D [0x23] WAIT_FOR_DIALOG_INTERACTION
  8: 0x050E [0x29] REQ_SET_WAIT(priority=0x08, entity_id=Parelbriaux (ID: 16883726/0x0101A00E), tag_num=0x1C)
  9: 0x0515 [0x29] REQ_SET_WAIT(priority=0x08, entity_id=Parelbriaux (ID: 16883726/0x0101A00E), tag_num=0x1D)
 10: 0x051C [0x29] REQ_SET_WAIT(priority=0x08, entity_id=Parelbriaux (ID: 16883726/0x0101A00E), tag_num=0x1E)
 11: 0x0523 [0x20] SET_CLI_EVENT_UC_FLAG: Unlock player control
 12: 0x0525 [0x21] END_EVENT
 13: 0x0526 [0x00] END_REQSTACK()
```

### Event 294

#### Metadata

| Field        | Value    |
|--------------|----------|
| Entrypoint   | 0x0527   |
| Data Size    | 30 bytes |
| Instructions | 8        |

```
      00 01 02 03 04 05 06 07  08 09 0A 0B 0C 0D 0E 0F
      -- -- -- -- -- -- -- --  -- -- -- -- -- -- -- --
0520:                      1E  F0 FF FF 7F 1D 31 80 23         ......1.#
0530: 66 1A 80 0E A0 01 01 0E  A0 01 01 74 77 61 30 1D  f..........twa0.
0540: 32 80 23 21 00                                    2.#!.           
```

#### Opcodes

```
  0: 0x0527 [0x1E] EventEntity looks at LocalPlayer and starts talking
  1: 0x052C [0x1D] PRINT_EVENT_MESSAGE(message_id=11018*)
    → "This is Prishe and Ulmia's room."
  2: 0x052F [0x23] WAIT_FOR_DIALOG_INTERACTION
  3: 0x0530 [0x66] LOAD_EXT_SCHEDULER_MAIN: Load scheduler "twa0" with entities [Parelbriaux (ID: 16883726/0x0101A00E), Parelbriaux (ID: 16883726/0x0101A00E)], work=29*
  4: 0x053F [0x1D] PRINT_EVENT_MESSAGE(message_id=11019*)
    → "I'd keep your distance if you know what's good for you."
  5: 0x0542 [0x23] WAIT_FOR_DIALOG_INTERACTION
  6: 0x0543 [0x21] END_EVENT
  7: 0x0544 [0x00] END_REQSTACK()
```

### Event 295

#### Metadata

| Field        | Value    |
|--------------|----------|
| Entrypoint   | 0x0545   |
| Data Size    | 49 bytes |
| Instructions | 11       |

```
      00 01 02 03 04 05 06 07  08 09 0A 0B 0C 0D 0E 0F
      -- -- -- -- -- -- -- --  -- -- -- -- -- -- -- --
0540:                1E F0 FF  FF 7F 1D 33 80 23 66 1A       ......3.#f.
0550: 80 0E A0 01 01 0E A0 01  01 74 77 62 30 1D 34 80  .........twb0.4.
0560: 23 66 1A 80 0E A0 01 01  0E A0 01 01 74 77 62 31  #f..........twb1
0570: 1D 35 80 23 21 00                                 .5.#!.          
```

#### Opcodes

```
  0: 0x0545 [0x1E] EventEntity looks at LocalPlayer and starts talking
  1: 0x054A [0x1D] PRINT_EVENT_MESSAGE(message_id=11020*)
    → "It's been kind of lonely without Ulmia or the boss around."
  2: 0x054D [0x23] WAIT_FOR_DIALOG_INTERACTION
  3: 0x054E [0x66] LOAD_EXT_SCHEDULER_MAIN: Load scheduler "twb0" with entities [Parelbriaux (ID: 16883726/0x0101A00E), Parelbriaux (ID: 16883726/0x0101A00E)], work=29*
  4: 0x055D [0x1D] PRINT_EVENT_MESSAGE(message_id=11021*)
    → "I sure hope nothing happens to Ulmia..."
  5: 0x0560 [0x23] WAIT_FOR_DIALOG_INTERACTION
  6: 0x0561 [0x66] LOAD_EXT_SCHEDULER_MAIN: Load scheduler "twb1" with entities [Parelbriaux (ID: 16883726/0x0101A00E), Parelbriaux (ID: 16883726/0x0101A00E)], work=29*
  7: 0x0570 [0x1D] PRINT_EVENT_MESSAGE(message_id=11022*)
    → "And Prishe? Oh, I know nothing will happen to Prishe. There isn't a jam she hasn't been able to find her way out of!"
  8: 0x0573 [0x23] WAIT_FOR_DIALOG_INTERACTION
  9: 0x0574 [0x21] END_EVENT
 10: 0x0575 [0x00] END_REQSTACK()
```

### Event 296

#### Metadata

| Field        | Value    |
|--------------|----------|
| Entrypoint   | 0x0576   |
| Data Size    | 30 bytes |
| Instructions | 8        |

```
      00 01 02 03 04 05 06 07  08 09 0A 0B 0C 0D 0E 0F
      -- -- -- -- -- -- -- --  -- -- -- -- -- -- -- --
0570:                   1E F0  FF FF 7F 1D 36 80 23 66        ......6.#f
0580: 1A 80 0E A0 01 01 0E A0  01 01 74 77 61 30 1D 37  ..........twa0.7
0590: 80 23 21 00                                       .#!.            
```

#### Opcodes

```
  0: 0x0576 [0x1E] EventEntity looks at LocalPlayer and starts talking
  1: 0x057B [0x1D] PRINT_EVENT_MESSAGE(message_id=11023*)
    → "You see? I told you Prishe would be fine."
  2: 0x057E [0x23] WAIT_FOR_DIALOG_INTERACTION
  3: 0x057F [0x66] LOAD_EXT_SCHEDULER_MAIN: Load scheduler "twa0" with entities [Parelbriaux (ID: 16883726/0x0101A00E), Parelbriaux (ID: 16883726/0x0101A00E)], work=29*
  4: 0x058E [0x1D] PRINT_EVENT_MESSAGE(message_id=11024*)
    → "But I'd suggest putting your adventures on hold for a while. We wouldn't want to make elder Despachiaire too upset..."
  5: 0x0591 [0x23] WAIT_FOR_DIALOG_INTERACTION
  6: 0x0592 [0x21] END_EVENT
  7: 0x0593 [0x00] END_REQSTACK()
```

### Event 297

#### Metadata

| Field        | Value    |
|--------------|----------|
| Entrypoint   | 0x0594   |
| Data Size    | 30 bytes |
| Instructions | 8        |

```
      00 01 02 03 04 05 06 07  08 09 0A 0B 0C 0D 0E 0F
      -- -- -- -- -- -- -- --  -- -- -- -- -- -- -- --
0590:             1E F0 FF FF  7F 1D 38 80 23 66 1A 80      ......8.#f..
05A0: 0E A0 01 01 0E A0 01 01  74 77 62 30 1D 39 80 23  ........twb0.9.#
05B0: 21 00                                             !.              
```

#### Opcodes

```
  0: 0x0594 [0x1E] EventEntity looks at LocalPlayer and starts talking
  1: 0x0599 [0x1D] PRINT_EVENT_MESSAGE(message_id=11025*)
    → "Just when I thought they were back for good, Ulmia and Prishe have run off again."
  2: 0x059C [0x23] WAIT_FOR_DIALOG_INTERACTION
  3: 0x059D [0x66] LOAD_EXT_SCHEDULER_MAIN: Load scheduler "twb0" with entities [Parelbriaux (ID: 16883726/0x0101A00E), Parelbriaux (ID: 16883726/0x0101A00E)], work=29*
  4: 0x05AC [0x1D] PRINT_EVENT_MESSAGE(message_id=11026*)
    → "I wonder if they'll ever be back..."
  5: 0x05AF [0x23] WAIT_FOR_DIALOG_INTERACTION
  6: 0x05B0 [0x21] END_EVENT
  7: 0x05B1 [0x00] END_REQSTACK()
```

### Event 298

#### Metadata

| Field        | Value    |
|--------------|----------|
| Entrypoint   | 0x05B2   |
| Data Size    | 30 bytes |
| Instructions | 8        |

```
      00 01 02 03 04 05 06 07  08 09 0A 0B 0C 0D 0E 0F
      -- -- -- -- -- -- -- --  -- -- -- -- -- -- -- --
05B0:       1E F0 FF FF 7F 1D  3A 80 23 66 1A 80 0E A0    ......:.#f....
05C0: 01 01 0E A0 01 01 74 77  61 30 1D 3B 80 23 21 00  ......twa0.;.#!.
```

#### Opcodes

```
  0: 0x05B2 [0x1E] EventEntity looks at LocalPlayer and starts talking
  1: 0x05B7 [0x1D] PRINT_EVENT_MESSAGE(message_id=11027*)
    → "You're on your way to fight the wyrms, aren't you? I really wish that Ulmia would reconsider going..."
  2: 0x05BA [0x23] WAIT_FOR_DIALOG_INTERACTION
  3: 0x05BB [0x66] LOAD_EXT_SCHEDULER_MAIN: Load scheduler "twa0" with entities [Parelbriaux (ID: 16883726/0x0101A00E), Parelbriaux (ID: 16883726/0x0101A00E)], work=29*
  4: 0x05CA [0x1D] PRINT_EVENT_MESSAGE(message_id=11028*)
    → "...but she wouldn't listen to me, would she..."
  5: 0x05CD [0x23] WAIT_FOR_DIALOG_INTERACTION
  6: 0x05CE [0x21] END_EVENT
  7: 0x05CF [0x00] END_REQSTACK()
```

### Event 513

#### Metadata

| Field        | Value   |
|--------------|---------|
| Entrypoint   | 0x05D0  |
| Data Size    | 1 bytes |
| Instructions | 1       |

```
      00 01 02 03 04 05 06 07  08 09 0A 0B 0C 0D 0E 0F
      -- -- -- -- -- -- -- --  -- -- -- -- -- -- -- --
05D0: 00                                                .               
```

#### Opcodes

```
  0: 0x05D0 [0x00] END_REQSTACK()
```

### Event 65535.67

#### Metadata

| Field        | Value    |
|--------------|----------|
| Entrypoint   | 0x05D1   |
| Data Size    | 10 bytes |
| Instructions | 2        |

```
      00 01 02 03 04 05 06 07  08 09 0A 0B 0C 0D 0E 0F
      -- -- -- -- -- -- -- --  -- -- -- -- -- -- -- --
05D0:    37 3C 80 3D 80 2D 80  3E 80 00                  7<.=.-.>..     
```

#### Opcodes

```
  0: 0x05D1 [0x37] UPDATE_EVENT_POSITION_AND_DIR: x=113.583*, z=42.965*, y=-41.000*, direction=109.0°*
  1: 0x05DA [0x00] END_REQSTACK()
```

### Event 514

#### Metadata

| Field        | Value   |
|--------------|---------|
| Entrypoint   | 0x05DB  |
| Data Size    | 1 bytes |
| Instructions | 1       |

```
      00 01 02 03 04 05 06 07  08 09 0A 0B 0C 0D 0E 0F
      -- -- -- -- -- -- -- --  -- -- -- -- -- -- -- --
05D0:                                   00                         .    
```

#### Opcodes

```
  0: 0x05DB [0x00] END_REQSTACK()
```

### Event 65535.68

#### Metadata

| Field        | Value    |
|--------------|----------|
| Entrypoint   | 0x05DC   |
| Data Size    | 23 bytes |
| Instructions | 5        |

```
      00 01 02 03 04 05 06 07  08 09 0A 0B 0C 0D 0E 0F
      -- -- -- -- -- -- -- --  -- -- -- -- -- -- -- --
05D0:                                      37 3F 80 40              7?.@
05E0: 80 41 80 42 80 32 08 80  1F 00 43 80 44 80 45 80  .A.B.2....C.D.E.
05F0: 1F 01 00                                          ...             
```

#### Opcodes

```
  0: 0x05DC [0x37] UPDATE_EVENT_POSITION_AND_DIR: x=-3.124*, z=77.500*, y=-26.054*, direction=54.8°*
  1: 0x05E5 [0x32] ExtData[1]->MainSpeed = 40* * 0.1
  2: 0x05E8 [0x1F] MOVE_ENTITY: EventEntity moves to X=0.112*, Z=68.661*, Y=-24.712*
  3: 0x05F0 [0x1F] MOVE_ENTITY: Update entity position (mode=1)
  4: 0x05F2 [0x00] END_REQSTACK()
```

### Event 65535.69

#### Metadata

| Field        | Value    |
|--------------|----------|
| Entrypoint   | 0x05F3   |
| Data Size    | 10 bytes |
| Instructions | 2        |

```
      00 01 02 03 04 05 06 07  08 09 0A 0B 0C 0D 0E 0F
      -- -- -- -- -- -- -- --  -- -- -- -- -- -- -- --
05F0:          37 43 80 44 80  45 80 09 80 00              7C.D.E....   
```

#### Opcodes

```
  0: 0x05F3 [0x37] UPDATE_EVENT_POSITION_AND_DIR: x=0.112*, z=68.661*, y=-24.712*, direction=24.2°*
  1: 0x05FC [0x00] END_REQSTACK()
```

### Event 516

#### Metadata

| Field        | Value   |
|--------------|---------|
| Entrypoint   | 0x05FD  |
| Data Size    | 1 bytes |
| Instructions | 1       |

```
      00 01 02 03 04 05 06 07  08 09 0A 0B 0C 0D 0E 0F
      -- -- -- -- -- -- -- --  -- -- -- -- -- -- -- --
05F0:                                         00                     .  
```

#### Opcodes

```
  0: 0x05FD [0x00] END_REQSTACK()
```

### Event 65535.70

#### Metadata

| Field        | Value    |
|--------------|----------|
| Entrypoint   | 0x05FE   |
| Data Size    | 10 bytes |
| Instructions | 2        |

```
      00 01 02 03 04 05 06 07  08 09 0A 0B 0C 0D 0E 0F
      -- -- -- -- -- -- -- --  -- -- -- -- -- -- -- --
05F0:                                            37 46                7F
0600: 80 47 80 48 80 49 80 00                           .G.H.I..        
```

#### Opcodes

```
  0: 0x05FE [0x37] UPDATE_EVENT_POSITION_AND_DIR: x=107.793*, z=46.523*, y=-41.052*, direction=48.4°*
  1: 0x0607 [0x00] END_REQSTACK()
```

### Event 65535.71

#### Metadata

| Field        | Value    |
|--------------|----------|
| Entrypoint   | 0x0608   |
| Data Size    | 23 bytes |
| Instructions | 5        |

```
      00 01 02 03 04 05 06 07  08 09 0A 0B 0C 0D 0E 0F
      -- -- -- -- -- -- -- --  -- -- -- -- -- -- -- --
0600:                          37 4A 80 4B 80 4C 80 4D          7J.K.L.M
0610: 80 32 10 80 1F 00 4E 80  4F 80 50 80 1F 01 00     .2....N.O.P.... 
```

#### Opcodes

```
  0: 0x0608 [0x37] UPDATE_EVENT_POSITION_AND_DIR: x=79.093*, z=57.311*, y=-34.926*, direction=285.5°*
  1: 0x0611 [0x32] ExtData[1]->MainSpeed = 13* * 0.1
  2: 0x0614 [0x1F] MOVE_ENTITY: EventEntity moves to X=78.679*, Z=60.475*, Y=-34.195*
  3: 0x061C [0x1F] MOVE_ENTITY: Update entity position (mode=1)
  4: 0x061E [0x00] END_REQSTACK()
```

### Event 65535.72

#### Metadata

| Field        | Value    |
|--------------|----------|
| Entrypoint   | 0x061F   |
| Data Size    | 10 bytes |
| Instructions | 2        |

```
      00 01 02 03 04 05 06 07  08 09 0A 0B 0C 0D 0E 0F
      -- -- -- -- -- -- -- --  -- -- -- -- -- -- -- --
0610:                                               37                 7
0620: 3C 80 3D 80 2D 80 3E 80  00                       <.=.-.>..       
```

#### Opcodes

```
  0: 0x061F [0x37] UPDATE_EVENT_POSITION_AND_DIR: x=113.583*, z=42.965*, y=-41.000*, direction=109.0°*
  1: 0x0628 [0x00] END_REQSTACK()
```
