# 16883807 - Liphatte

## Common Data

| Field            | Value                       |
|------------------|-----------------------------|
| Zone             | Tavnazian Safehold (ID: 26) |
| Block Size       | 164 bytes                   |
| Total Events     | 3                           |
| References Count | 6                           |

## List of Events

| Event ID              | Entrypoint   |   Size |   Instructions |
|-----------------------|--------------|--------|----------------|
| [65535](#event-65535) | 0x0000       |      1 |              1 |
| [300](#event-300)     | 0x0001       |     57 |             15 |
| [301](#event-301)     | 0x003A       |     53 |             13 |

## DAT References (imed_data)

|   Index | Hex Value   |   Dec Value |
|---------|-------------|-------------|
|       0 | 0x2B15      |       11029 |
|       1 | 0x001E      |          30 |
|       2 | 0x2B16      |       11030 |
|       3 | 0x2B17      |       11031 |
|       4 | 0x2B18      |       11032 |
|       5 | 0x2B19      |       11033 |

## String References

- **11029**: Beyond those doors lie the Phomiuna Aqueducts.
- **11030**: The Phomiuna Aqueducts are connected in many places to the Tavnazian Cathedral's Sacrarium.
- **11031**: However, during the Great War many of the hallways caved in, making them virtually impassable.
- **11032**: In addition to that, Cardinal Mildaurion placed a powerful seal on the areas to weaken any beasts that remained in the halls and chambers.
- **11033**: She sacrificed her life to help the survivors of the burning city. We owe more than our lives to her...

## Events

### Event 65535

#### Metadata

| Field        | Value   |
|--------------|---------|
| Entrypoint   | 0x0000  |
| Data Size    | 1 bytes |
| Instructions | 1       |

```
      00 01 02 03 04 05 06 07  08 09 0A 0B 0C 0D 0E 0F
      -- -- -- -- -- -- -- --  -- -- -- -- -- -- -- --
0000: 00                                                .               
```

#### Opcodes

```
  0: 0x0000 [0x00] END_REQSTACK()
```

### Event 300

#### Metadata

| Field        | Value    |
|--------------|----------|
| Entrypoint   | 0x0001   |
| Data Size    | 57 bytes |
| Instructions | 15       |

```
      00 01 02 03 04 05 06 07  08 09 0A 0B 0C 0D 0E 0F
      -- -- -- -- -- -- -- --  -- -- -- -- -- -- -- --
0000:    1E F0 FF FF 7F 1D 00  80 23 66 01 80 F8 FF FF   ........#f.....
0010: 7F F8 FF FF 7F 74 6C 6B  30 1D 02 80 23 1D 03 80  .....tlk0...#...
0020: 23 1D 04 80 23 66 01 80  F8 FF FF 7F F8 FF FF 7F  #...#f..........
0030: 74 6C 6B 31 1D 05 80 23  21 00                    tlk1...#!.      
```

#### Opcodes

```
  0: 0x0001 [0x1E] EventEntity looks at LocalPlayer and starts talking
  1: 0x0006 [0x1D] PRINT_EVENT_MESSAGE(message_id=11029*)
    → "Beyond those doors lie the Phomiuna Aqueducts."
  2: 0x0009 [0x23] WAIT_FOR_DIALOG_INTERACTION
  3: 0x000A [0x66] LOAD_EXT_SCHEDULER_MAIN: Load scheduler "tlk0" with entities [EventEntity, EventEntity], work=30*
  4: 0x0019 [0x1D] PRINT_EVENT_MESSAGE(message_id=11030*)
    → "The Phomiuna Aqueducts are connected in many places to the Tavnazian Cathedral's Sacrarium."
  5: 0x001C [0x23] WAIT_FOR_DIALOG_INTERACTION
  6: 0x001D [0x1D] PRINT_EVENT_MESSAGE(message_id=11031*)
    → "However, during the Great War many of the hallways caved in, making them virtually impassable."
  7: 0x0020 [0x23] WAIT_FOR_DIALOG_INTERACTION
  8: 0x0021 [0x1D] PRINT_EVENT_MESSAGE(message_id=11032*)
    → "In addition to that, Cardinal Mildaurion placed a powerful seal on the areas to weaken any beasts that remained in the halls and chambers."
  9: 0x0024 [0x23] WAIT_FOR_DIALOG_INTERACTION
 10: 0x0025 [0x66] LOAD_EXT_SCHEDULER_MAIN: Load scheduler "tlk1" with entities [EventEntity, EventEntity], work=30*
 11: 0x0034 [0x1D] PRINT_EVENT_MESSAGE(message_id=11033*)
    → "She sacrificed her life to help the survivors of the burning city. We owe more than our lives to her..."
 12: 0x0037 [0x23] WAIT_FOR_DIALOG_INTERACTION
 13: 0x0038 [0x21] END_EVENT
 14: 0x0039 [0x00] END_REQSTACK()
```

### Event 301

#### Metadata

| Field        | Value    |
|--------------|----------|
| Entrypoint   | 0x003A   |
| Data Size    | 53 bytes |
| Instructions | 13       |

```
      00 01 02 03 04 05 06 07  08 09 0A 0B 0C 0D 0E 0F
      -- -- -- -- -- -- -- --  -- -- -- -- -- -- -- --
0030:                                1E F0 FF FF 7F 1D            ......
0040: 02 80 23 66 01 80 F8 FF  FF 7F F8 FF FF 7F 74 6C  ..#f..........tl
0050: 6B 30 1D 03 80 23 1D 04  80 23 66 01 80 F8 FF FF  k0...#...#f.....
0060: 7F F8 FF FF 7F 74 6C 6B  31 1D 05 80 23 21 00     .....tlk1...#!. 
```

#### Opcodes

```
  0: 0x003A [0x1E] EventEntity looks at LocalPlayer and starts talking
  1: 0x003F [0x1D] PRINT_EVENT_MESSAGE(message_id=11030*)
    → "The Phomiuna Aqueducts are connected in many places to the Tavnazian Cathedral's Sacrarium."
  2: 0x0042 [0x23] WAIT_FOR_DIALOG_INTERACTION
  3: 0x0043 [0x66] LOAD_EXT_SCHEDULER_MAIN: Load scheduler "tlk0" with entities [EventEntity, EventEntity], work=30*
  4: 0x0052 [0x1D] PRINT_EVENT_MESSAGE(message_id=11031*)
    → "However, during the Great War many of the hallways caved in, making them virtually impassable."
  5: 0x0055 [0x23] WAIT_FOR_DIALOG_INTERACTION
  6: 0x0056 [0x1D] PRINT_EVENT_MESSAGE(message_id=11032*)
    → "In addition to that, Cardinal Mildaurion placed a powerful seal on the areas to weaken any beasts that remained in the halls and chambers."
  7: 0x0059 [0x23] WAIT_FOR_DIALOG_INTERACTION
  8: 0x005A [0x66] LOAD_EXT_SCHEDULER_MAIN: Load scheduler "tlk1" with entities [EventEntity, EventEntity], work=30*
  9: 0x0069 [0x1D] PRINT_EVENT_MESSAGE(message_id=11033*)
    → "She sacrificed her life to help the survivors of the burning city. We owe more than our lives to her..."
 10: 0x006C [0x23] WAIT_FOR_DIALOG_INTERACTION
 11: 0x006D [0x21] END_EVENT
 12: 0x006E [0x00] END_REQSTACK()
```
