# 16883846 - Alsha

## Common Data

| Field            | Value                       |
|------------------|-----------------------------|
| Zone             | Tavnazian Safehold (ID: 26) |
| Block Size       | 124 bytes                   |
| Total Events     | 4                           |
| References Count | 10                          |

## List of Events

| Event ID                 | Entrypoint   |   Size |   Instructions |
|--------------------------|--------------|--------|----------------|
| [65535](#event-65535)    | 0x0000       |      1 |              1 |
| [534](#event-534)        | 0x0001       |      1 |              1 |
| [65535.1](#event-655351) | 0x0002       |     10 |              2 |
| [65535.2](#event-655352) | 0x000C       |     37 |              8 |

## DAT References (imed_data)

|   Index | Hex Value   |   Dec Value |
|---------|-------------|-------------|
|       0 | 0x0000      |           0 |
|       1 | 0x00B4      |         180 |
|       2 | 0x16BF7     |       93175 |
|       3 | 0xCAB6      |       51894 |
|       4 | 0xFFFF5FD8  |  4294926296 |
|       5 | 0x0FB3      |        4019 |
|       6 | 0x000D      |          13 |
|       7 | 0x17532     |       95538 |
|       8 | 0xD2D7      |       53975 |
|       9 | 0x001E      |          30 |

## Events

### Event 65535

#### Metadata

| Field        | Value   |
|--------------|---------|
| Entrypoint   | 0x0000  |
| Data Size    | 1 bytes |
| Instructions | 1       |

```
      00 01 02 03 04 05 06 07  08 09 0A 0B 0C 0D 0E 0F
      -- -- -- -- -- -- -- --  -- -- -- -- -- -- -- --
0000: 00                                                .               
```

#### Opcodes

```
  0: 0x0000 [0x00] END_REQSTACK()
```

### Event 534

#### Metadata

| Field        | Value   |
|--------------|---------|
| Entrypoint   | 0x0001  |
| Data Size    | 1 bytes |
| Instructions | 1       |

```
      00 01 02 03 04 05 06 07  08 09 0A 0B 0C 0D 0E 0F
      -- -- -- -- -- -- -- --  -- -- -- -- -- -- -- --
0000:    00                                              .              
```

#### Opcodes

```
  0: 0x0001 [0x00] END_REQSTACK()
```

### Event 65535.1

#### Metadata

| Field        | Value    |
|--------------|----------|
| Entrypoint   | 0x0002   |
| Data Size    | 10 bytes |
| Instructions | 2        |

```
      00 01 02 03 04 05 06 07  08 09 0A 0B 0C 0D 0E 0F
      -- -- -- -- -- -- -- --  -- -- -- -- -- -- -- --
0000:       6C 86 A0 01 01 00  80 01 80 00                l.........    
```

#### Opcodes

```
  0: 0x0002 [0x6C] FADE_ENTITY_COLOR(entity_id=Alsha (ID: 16883846/0x0101A086), end_alpha=0*, fade_time=180*)
  1: 0x000B [0x00] END_REQSTACK()
```

### Event 65535.2

#### Metadata

| Field        | Value    |
|--------------|----------|
| Entrypoint   | 0x000C   |
| Data Size    | 37 bytes |
| Instructions | 8        |

```
      00 01 02 03 04 05 06 07  08 09 0A 0B 0C 0D 0E 0F
      -- -- -- -- -- -- -- --  -- -- -- -- -- -- -- --
0000:                                      4E 00 86 A0              N...
0010: 01 01 37 02 80 03 80 04  80 05 80 32 06 80 1F 00  ..7........2....
0020: 07 80 08 80 04 80 1F 01  1C 09 80 1E 80 A0 01 01  ................
0030: 00                                                .               
```

#### Opcodes

```
  0: 0x000C [0x4E] SET_ENTITY_HIDE_FLAG: Show Alsha (ID: 16883846/0x0101A086)
  1: 0x0012 [0x37] UPDATE_EVENT_POSITION_AND_DIR: x=93.175*, z=51.894*, y=-41.000*, direction=353.2°*
  2: 0x001B [0x32] ExtData[1]->MainSpeed = 13* * 0.1
  3: 0x001E [0x1F] MOVE_ENTITY: EventEntity moves to X=95.538*, Z=53.975*, Y=-41.000*
  4: 0x0026 [0x1F] MOVE_ENTITY: Update entity position (mode=1)
  5: 0x0028 [0x1C] WAIT(30* ticks)
  6: 0x002B [0x1E] EventEntity looks at Enaremand (ID: 16883840/0x0101A080) and starts talking
  7: 0x0030 [0x00] END_REQSTACK()
```
