# 0x7FFFFFF0 - Zone Events

## Common Data

| Field            | Value                       |
|------------------|-----------------------------|
| Zone             | Tavnazian Safehold (ID: 26) |
| Block Size       | 67412 bytes                 |
| Total Events     | 118                         |
| References Count | 1598                        |

## List of Events

| Event ID                   | Entrypoint   |   Size |   Instructions |
|----------------------------|--------------|--------|----------------|
| [65535](#event-65535)      | 0x0000       |      1 |              1 |
| [65534](#event-65534)      | 0x0001       |      1 |              1 |
| [65535.1](#event-655351)   | 0x0002       |     24 |              4 |
| [65535.2](#event-655352)   | 0x001A       |     24 |              4 |
| [65535.3](#event-655353)   | 0x0032       |     27 |              5 |
| [65535.4](#event-655354)   | 0x004D       |     25 |              7 |
| [65535.5](#event-655355)   | 0x0066       |     10 |              2 |
| [65535.6](#event-655356)   | 0x0070       |     67 |             12 |
| [65535.7](#event-655357)   | 0x00B3       |    131 |             27 |
| [576](#event-576)          | 0x0136       |    319 |             40 |
| [570](#event-570)          | 0x0275       |    494 |             69 |
| [200](#event-200)          | 0x0463       |   1012 |            135 |
| [202](#event-202)          | 0x0857       |    721 |             98 |
| [204](#event-204)          | 0x0B28       |   1060 |            154 |
| [206](#event-206)          | 0x0F4C       |    945 |            124 |
| [65535.8](#event-655358)   | 0x12FD       |      6 |              2 |
| [65535.9](#event-655359)   | 0x1303       |      6 |              2 |
| [65535.10](#event-6553510) | 0x1309       |      6 |              2 |
| [65535.11](#event-6553511) | 0x130F       |      6 |              2 |
| [65535.12](#event-6553512) | 0x1315       |      6 |              2 |
| [101](#event-101)          | 0x131B       |   1184 |            159 |
| [102](#event-102)          | 0x17BB       |    833 |            118 |
| [103](#event-103)          | 0x1AFC       |   1550 |            187 |
| [104](#event-104)          | 0x210A       |   1262 |            156 |
| [105](#event-105)          | 0x25F8       |    917 |            117 |
| [107](#event-107)          | 0x298D       |    981 |            130 |
| [108](#event-108)          | 0x2D62       |   1170 |            153 |
| [109](#event-109)          | 0x31F4       |    106 |             23 |
| [110](#event-110)          | 0x325E       |   2950 |            366 |
| [111](#event-111)          | 0x3DE4       |   2856 |            349 |
| [112](#event-112)          | 0x490C       |   2079 |            244 |
| [500](#event-500)          | 0x512B       |     13 |              3 |
| [501](#event-501)          | 0x5138       |     14 |              4 |
| [65535.13](#event-6553513) | 0x5146       |     10 |              2 |
| [65535.14](#event-6553514) | 0x5150       |     10 |              2 |
| [65535.15](#event-6553515) | 0x515A       |     24 |              6 |
| [65535.16](#event-6553516) | 0x5172       |     10 |              2 |
| [65535.17](#event-6553517) | 0x517C       |     24 |              6 |
| [65535.18](#event-6553518) | 0x5194       |     10 |              2 |
| [65535.19](#event-6553519) | 0x519E       |     10 |              2 |
| [65535.20](#event-6553520) | 0x51A8       |     15 |              5 |
| [65535.21](#event-6553521) | 0x51B7       |     10 |              2 |
| [65535.22](#event-6553522) | 0x51C1       |     30 |              5 |
| [65535.23](#event-6553523) | 0x51DF       |     37 |              9 |
| [65535.24](#event-6553524) | 0x5204       |      7 |              2 |
| [65535.25](#event-6553525) | 0x520B       |     10 |              2 |
| [65535.26](#event-6553526) | 0x5215       |     10 |              2 |
| [65535.27](#event-6553527) | 0x521F       |     10 |              2 |
| [65535.28](#event-6553528) | 0x5229       |     10 |              2 |
| [117](#event-117)          | 0x5233       |    610 |             76 |
| [118](#event-118)          | 0x5495       |   1832 |            232 |
| [151](#event-151)          | 0x5BBD       |   1458 |            188 |
| [152](#event-152)          | 0x616F       |    250 |             43 |
| [153](#event-153)          | 0x6269       |    305 |             48 |
| [154](#event-154)          | 0x639A       |   1460 |            183 |
| [155](#event-155)          | 0x694E       |    911 |            120 |
| [170](#event-170)          | 0x6CDD       |    695 |             92 |
| [171](#event-171)          | 0x6F94       |    456 |             69 |
| [172](#event-172)          | 0x715C       |    667 |             95 |
| [173](#event-173)          | 0x73F7       |   1036 |            147 |
| [174](#event-174)          | 0x7803       |   2096 |            262 |
| [234](#event-234)          | 0x8033       |    867 |            122 |
| [216](#event-216)          | 0x8396       |     10 |              2 |
| [505](#event-505)          | 0x83A0       |    284 |             43 |
| [512](#event-512)          | 0x84BC       |   2653 |            310 |
| [513](#event-513)          | 0x8F19       |   2809 |            332 |
| [514](#event-514)          | 0x9A12       |   2207 |            274 |
| [516](#event-516)          | 0xA2B1       |   1960 |            250 |
| [517](#event-517)          | 0xAA59       |    623 |             88 |
| [518](#event-518)          | 0xACC8       |    847 |            138 |
| [529](#event-529)          | 0xB017       |      1 |              1 |
| [533](#event-533)          | 0xB018       |    793 |            116 |
| [534](#event-534)          | 0xB331       |   2228 |            291 |
| [535](#event-535)          | 0xBBE5       |    927 |            128 |
| [536](#event-536)          | 0xBF84       |    461 |             73 |
| [544](#event-544)          | 0xC151       |    998 |            153 |
| [552](#event-552)          | 0xC537       |    306 |             55 |
| [553](#event-553)          | 0xC669       |    247 |             49 |
| [548](#event-548)          | 0xC760       |    427 |             76 |
| [549](#event-549)          | 0xC90B       |    487 |             81 |
| [550](#event-550)          | 0xCAF2       |    274 |             51 |
| [551](#event-551)          | 0xCC04       |    334 |             55 |
| [554](#event-554)          | 0xCD52       |    339 |             57 |
| [555](#event-555)          | 0xCEA5       |    381 |             60 |
| [557](#event-557)          | 0xD022       |   5319 |           1059 |
| [568](#event-568)          | 0xE4E9       |    440 |             76 |
| [569](#event-569)          | 0xE6A1       |    384 |             62 |
| [567](#event-567)          | 0xE821       |    554 |             82 |
| [558](#event-558)          | 0xEA4B       |      1 |              1 |
| [65535.29](#event-6553529) | 0xEA4C       |     10 |              2 |
| [65535.30](#event-6553530) | 0xEA56       |     14 |              4 |
| [65535.31](#event-6553531) | 0xEA64       |     53 |             10 |
| [65535.32](#event-6553532) | 0xEA99       |     14 |              4 |
| [65535.33](#event-6553533) | 0xEAA7       |     10 |              2 |
| [65535.34](#event-6553534) | 0xEAB1       |     10 |              2 |
| [65535.35](#event-6553535) | 0xEABB       |     10 |              2 |
| [65535.36](#event-6553536) | 0xEAC5       |     10 |              2 |
| [65535.37](#event-6553537) | 0xEACF       |     10 |              2 |
| [65535.38](#event-6553538) | 0xEAD9       |     10 |              2 |
| [65535.39](#event-6553539) | 0xEAE3       |     10 |              2 |
| [65535.40](#event-6553540) | 0xEAED       |     10 |              2 |
| [65535.41](#event-6553541) | 0xEAF7       |     10 |              2 |
| [65535.42](#event-6553542) | 0xEB01       |     10 |              2 |
| [65535.43](#event-6553543) | 0xEB0B       |     10 |              2 |
| [65535.44](#event-6553544) | 0xEB15       |     10 |              2 |
| [65535.45](#event-6553545) | 0xEB1F       |     10 |              2 |
| [65535.46](#event-6553546) | 0xEB29       |     10 |              2 |
| [65535.47](#event-6553547) | 0xEB33       |     10 |              2 |
| [65535.48](#event-6553548) | 0xEB3D       |     10 |              2 |
| [65535.49](#event-6553549) | 0xEB47       |     10 |              2 |
| [65535.50](#event-6553550) | 0xEB51       |     10 |              2 |
| [65535.51](#event-6553551) | 0xEB5B       |     10 |              2 |
| [65535.52](#event-6553552) | 0xEB65       |     10 |              2 |
| [65535.53](#event-6553553) | 0xEB6F       |     12 |              3 |
| [65535.54](#event-6553554) | 0xEB7B       |     10 |              2 |
| [65535.55](#event-6553555) | 0xEB85       |     37 |              5 |
| [65535.56](#event-6553556) | 0xEBAA       |    185 |             37 |
| [65535.57](#event-6553557) | 0xEC63       |     14 |              4 |

## DAT References (imed_data)

|   Index | Hex Value   |   Dec Value |
|---------|-------------|-------------|
|       0 | 0x000D      |          13 |
|       1 | 0x1DF11     |      122641 |
|       2 | 0xA3E4      |       41956 |
|       3 | 0xFFFF5DE4  |  4294925796 |
|       4 | 0x20B75     |      134005 |
|       5 | 0xB2B4      |       45748 |
|       6 | 0xFFFF63C0  |  4294927296 |
|       7 | 0x0FFB      |        4091 |
|       8 | 0x1D3A6     |      119718 |
|       9 | 0xA41E      |       42014 |
|      10 | 0x0000      |           0 |
|      11 | 0xFFFFEC78  |  4294962296 |
|      12 | 0x2710      |       10000 |
|      13 | 0x012C      |         300 |
|      14 | 0x21FDD     |      139229 |
|      15 | 0xBAC7      |       47815 |
|      16 | 0xFFFF63B1  |  4294927281 |
|      17 | 0x0E84      |        3716 |
|      18 | 0xFFFFF448  |  4294964296 |
|      19 | 0xFFFFFC18  |  4294966296 |
|      20 | 0xFFFFFFFF  |  4294967295 |
|      21 | 0x00C8      |         200 |
|      22 | 0x0003      |           3 |
|      23 | 0x1ABB4     |      109492 |
|      24 | 0xFFFEB28F  |  4294881935 |
|      25 | 0x0026      |          38 |
|      26 | 0x0001      |           1 |
|      27 | 0x0054      |          84 |
|      28 | 0x000A      |          10 |
|      29 | 0x2E2B      |       11819 |
|      30 | 0x000F      |          15 |
|      31 | 0x2E2C      |       11820 |
|      32 | 0x2E2D      |       11821 |
|      33 | 0x0014      |          20 |
|      34 | 0x13B1F     |       80671 |
|      35 | 0x118EB     |       71915 |
|      36 | 0xFFFF7B31  |  4294933297 |
|      37 | 0x0692      |        1682 |
|      38 | 0x00A3      |         163 |
|      39 | 0x2E17      |       11799 |
|      40 | 0x2E18      |       11800 |
|      41 | 0x0005      |           5 |
|      42 | 0x2E19      |       11801 |
|      43 | 0x2E1A      |       11802 |
|      44 | 0x2E1B      |       11803 |
|      45 | 0x2E1C      |       11804 |
|      46 | 0x2E1D      |       11805 |
|      47 | 0x2E1E      |       11806 |
|      48 | 0x2E1F      |       11807 |
|      49 | 0x00F5      |         245 |
|      50 | 0xFFFF406A  |  4294918250 |
|      51 | 0xFFFF580A  |  4294924298 |
|      52 | 0xFFFFA9B5  |  4294945205 |
|      53 | 0x09F1      |        2545 |
|      54 | 0x00A4      |         164 |
|      55 | 0x0046      |          70 |
|      56 | 0x2A44      |       10820 |
|      57 | 0x0032      |          50 |
|      58 | 0x2A45      |       10821 |
|      59 | 0x001E      |          30 |
|      60 | 0x2A46      |       10822 |
|      61 | 0x2A47      |       10823 |
|      62 | 0x2A48      |       10824 |
|      63 | 0x2A49      |       10825 |
|      64 | 0x2A4A      |       10826 |
|      65 | 0x2A4B      |       10827 |
|      66 | 0x2A4C      |       10828 |
|      67 | 0x001B      |          27 |
|      68 | 0x2A4D      |       10829 |
|      69 | 0x2A4E      |       10830 |
|      70 | 0x2A4F      |       10831 |
|      71 | 0x2A50      |       10832 |
|      72 | 0x2A51      |       10833 |
|      73 | 0x2A52      |       10834 |
|      74 | 0x2A53      |       10835 |
|      75 | 0x0028      |          40 |
|      76 | 0x2A54      |       10836 |
|      77 | 0x0064      |         100 |
|      78 | 0x00A0      |         160 |
|      79 | 0x2A55      |       10837 |
|      80 | 0x2A56      |       10838 |
|      81 | 0x2A57      |       10839 |
|      82 | 0x0050      |          80 |
|      83 | 0x0082      |         130 |
|      84 | 0x2A58      |       10840 |
|      85 | 0x2A59      |       10841 |
|      86 | 0x2A5A      |       10842 |
|      87 | 0x2A5D      |       10845 |
|      88 | 0x007C      |         124 |
|      89 | 0x003C      |          60 |
|      90 | 0x2A5E      |       10846 |
|      91 | 0x2A5F      |       10847 |
|      92 | 0x2A60      |       10848 |
|      93 | 0x2A61      |       10849 |
|      94 | 0x2A62      |       10850 |
|      95 | 0x2A63      |       10851 |
|      96 | 0x2A64      |       10852 |
|      97 | 0x2A65      |       10853 |
|      98 | 0x00C9      |         201 |
|      99 | 0x2A66      |       10854 |
|     100 | 0x2A67      |       10855 |
|     101 | 0x2A68      |       10856 |
|     102 | 0x005A      |          90 |
|     103 | 0x2A69      |       10857 |
|     104 | 0x0078      |         120 |
|     105 | 0x2A6A      |       10858 |
|     106 | 0x2A6B      |       10859 |
|     107 | 0x2A6C      |       10860 |
|     108 | 0x0013      |          19 |
|     109 | 0xFFFFA5E8  |  4294944232 |
|     110 | 0x2035      |        8245 |
|     111 | 0xFFFFAA10  |  4294945296 |
|     112 | 0x00A7      |         167 |
|     113 | 0x2A6E      |       10862 |
|     114 | 0x0015      |          21 |
|     115 | 0x2A6F      |       10863 |
|     116 | 0x2A70      |       10864 |
|     117 | 0x2A71      |       10865 |
|     118 | 0x009F      |         159 |
|     119 | 0x0190      |         400 |
|     120 | 0xFFFFF7B4  |  4294965172 |
|     121 | 0xFFFF9E63  |  4294942307 |
|     122 | 0xFFFFA722  |  4294944546 |
|     123 | 0x049A      |        1178 |
|     124 | 0x2A72      |       10866 |
|     125 | 0x2A73      |       10867 |
|     126 | 0x2A74      |       10868 |
|     127 | 0x2A75      |       10869 |
|     128 | 0x2A76      |       10870 |
|     129 | 0x2A77      |       10871 |
|     130 | 0x2A78      |       10872 |
|     131 | 0x2A79      |       10873 |
|     132 | 0x2A7A      |       10874 |
|     133 | 0x2A7B      |       10875 |
|     134 | 0x2A7C      |       10876 |
|     135 | 0x2A7D      |       10877 |
|     136 | 0x2A7E      |       10878 |
|     137 | 0x00B4      |         180 |
|     138 | 0x2A7F      |       10879 |
|     139 | 0x2A80      |       10880 |
|     140 | 0x2A81      |       10881 |
|     141 | 0x2A82      |       10882 |
|     142 | 0xFFFFA787  |  4294944647 |
|     143 | 0x22FF      |        8959 |
|     144 | 0xFFFFAA11  |  4294945297 |
|     145 | 0x2A84      |       10884 |
|     146 | 0x2A85      |       10885 |
|     147 | 0x2A86      |       10886 |
|     148 | 0xFFFF90A3  |  4294938787 |
|     149 | 0x1B03      |        6915 |
|     150 | 0xFFFFA879  |  4294944889 |
|     151 | 0x00A6      |         166 |
|     152 | 0x2A87      |       10887 |
|     153 | 0x2A88      |       10888 |
|     154 | 0x2A89      |       10889 |
|     155 | 0x007A      |         122 |
|     156 | 0x2A8A      |       10890 |
|     157 | 0x2A8B      |       10891 |
|     158 | 0x2A8C      |       10892 |
|     159 | 0x2A8D      |       10893 |
|     160 | 0x2A8E      |       10894 |
|     161 | 0x2A8F      |       10895 |
|     162 | 0x2A90      |       10896 |
|     163 | 0x2A91      |       10897 |
|     164 | 0x2A92      |       10898 |
|     165 | 0x2A93      |       10899 |
|     166 | 0x2A94      |       10900 |
|     167 | 0x2A95      |       10901 |
|     168 | 0x2A96      |       10902 |
|     169 | 0x2A97      |       10903 |
|     170 | 0x006D      |         109 |
|     171 | 0xFFFFEC70  |  4294962288 |
|     172 | 0x22AB9     |      142009 |
|     173 | 0xFFFF8F15  |  4294938389 |
|     174 | 0x03FD      |        1021 |
|     175 | 0x00F0      |         240 |
|     176 | 0x266F      |        9839 |
|     177 | 0xFFFFEEB5  |  4294962869 |
|     178 | 0x21995     |      137621 |
|     179 | 0xFFFF961F  |  4294940191 |
|     180 | 0x03FA      |        1018 |
|     181 | 0x2670      |        9840 |
|     182 | 0xFFFFEF2E  |  4294962990 |
|     183 | 0x21152     |      135506 |
|     184 | 0xFFFF98B5  |  4294940853 |
|     185 | 0x0384      |         900 |
|     186 | 0x2671      |        9841 |
|     187 | 0xFFFFF314  |  4294963988 |
|     188 | 0x206AF     |      132783 |
|     189 | 0xFFFF9A63  |  4294941283 |
|     190 | 0x2672      |        9842 |
|     191 | 0x2673      |        9843 |
|     192 | 0x2674      |        9844 |
|     193 | 0x01B9      |         441 |
|     194 | 0x2675      |        9845 |
|     195 | 0x2676      |        9846 |
|     196 | 0x2677      |        9847 |
|     197 | 0x0150      |         336 |
|     198 | 0x00DC      |         220 |
|     199 | 0x01BA      |         442 |
|     200 | 0x2678      |        9848 |
|     201 | 0x0096      |         150 |
|     202 | 0x01F8      |         504 |
|     203 | 0x2679      |        9849 |
|     204 | 0x01AF      |         431 |
|     205 | 0x267A      |        9850 |
|     206 | 0x267B      |        9851 |
|     207 | 0x267C      |        9852 |
|     208 | 0x267D      |        9853 |
|     209 | 0x267E      |        9854 |
|     210 | 0x1ABEB     |      109547 |
|     211 | 0xFFFEB833  |  4294883379 |
|     212 | 0x019C      |         412 |
|     213 | 0x267F      |        9855 |
|     214 | 0x2680      |        9856 |
|     215 | 0x2681      |        9857 |
|     216 | 0x00F3      |         243 |
|     217 | 0x2682      |        9858 |
|     218 | 0x2683      |        9859 |
|     219 | 0x2684      |        9860 |
|     220 | 0x1ADE5     |      110053 |
|     221 | 0xFFFEB796  |  4294883222 |
|     222 | 0x06BD      |        1725 |
|     223 | 0x199C8     |      104904 |
|     224 | 0xFFFEB101  |  4294881537 |
|     225 | 0x2685      |        9861 |
|     226 | 0x2686      |        9862 |
|     227 | 0x2687      |        9863 |
|     228 | 0x2688      |        9864 |
|     229 | 0x2689      |        9865 |
|     230 | 0x01F1      |         497 |
|     231 | 0x268A      |        9866 |
|     232 | 0x268B      |        9867 |
|     233 | 0x268C      |        9868 |
|     234 | 0x268D      |        9869 |
|     235 | 0x268E      |        9870 |
|     236 | 0x268F      |        9871 |
|     237 | 0x2690      |        9872 |
|     238 | 0x2691      |        9873 |
|     239 | 0x2692      |        9874 |
|     240 | 0x2693      |        9875 |
|     241 | 0x2694      |        9876 |
|     242 | 0x01F0      |         496 |
|     243 | 0x2695      |        9877 |
|     244 | 0x70F6      |       28918 |
|     245 | 0xA9E0      |       43488 |
|     246 | 0xFFFFD121  |  4294955297 |
|     247 | 0x0A9D      |        2717 |
|     248 | 0x269C      |        9884 |
|     249 | 0x269D      |        9885 |
|     250 | 0x269E      |        9886 |
|     251 | 0x269F      |        9887 |
|     252 | 0x26A0      |        9888 |
|     253 | 0x26A1      |        9889 |
|     254 | 0x26A2      |        9890 |
|     255 | 0x26A3      |        9891 |
|     256 | 0x26A4      |        9892 |
|     257 | 0x0153      |         339 |
|     258 | 0x26A5      |        9893 |
|     259 | 0x0152      |         338 |
|     260 | 0x26A6      |        9894 |
|     261 | 0x0019      |          25 |
|     262 | 0x26A7      |        9895 |
|     263 | 0x26A8      |        9896 |
|     264 | 0x26A9      |        9897 |
|     265 | 0x26AA      |        9898 |
|     266 | 0x01D1      |         465 |
|     267 | 0x26AB      |        9899 |
|     268 | 0x26AC      |        9900 |
|     269 | 0x26AD      |        9901 |
|     270 | 0x26AE      |        9902 |
|     271 | 0x26AF      |        9903 |
|     272 | 0x26B0      |        9904 |
|     273 | 0x26B1      |        9905 |
|     274 | 0x26B2      |        9906 |
|     275 | 0x26B3      |        9907 |
|     276 | 0x26B4      |        9908 |
|     277 | 0x26B5      |        9909 |
|     278 | 0x26B8      |        9912 |
|     279 | 0x26B9      |        9913 |
|     280 | 0x26BA      |        9914 |
|     281 | 0x26BB      |        9915 |
|     282 | 0x26BC      |        9916 |
|     283 | 0x1F3EF     |      127983 |
|     284 | 0xAA17      |       43543 |
|     285 | 0xFFFF5FD8  |  4294926296 |
|     286 | 0x0EAE      |        3758 |
|     287 | 0x1FDDE     |      130526 |
|     288 | 0xAF25      |       44837 |
|     289 | 0xFFFF5FB0  |  4294926256 |
|     290 | 0x214D9     |      136409 |
|     291 | 0xAE2E      |       44590 |
|     292 | 0x26E7      |        9959 |
|     293 | 0x01E1      |         481 |
|     294 | 0x26E8      |        9960 |
|     295 | 0x01E0      |         480 |
|     296 | 0x26E9      |        9961 |
|     297 | 0x26EA      |        9962 |
|     298 | 0x26EB      |        9963 |
|     299 | 0x218C1     |      137409 |
|     300 | 0xAC3A      |       44090 |
|     301 | 0x0052      |          82 |
|     302 | 0x0023      |          35 |
|     303 | 0x007F      |         127 |
|     304 | 0x26EC      |        9964 |
|     305 | 0x26ED      |        9965 |
|     306 | 0x26EE      |        9966 |
|     307 | 0x01DF      |         479 |
|     308 | 0x26EF      |        9967 |
|     309 | 0x26F0      |        9968 |
|     310 | 0x26F1      |        9969 |
|     311 | 0x26F2      |        9970 |
|     312 | 0x26F3      |        9971 |
|     313 | 0x26F4      |        9972 |
|     314 | 0x01DB      |         475 |
|     315 | 0x26F5      |        9973 |
|     316 | 0x26F6      |        9974 |
|     317 | 0x0115      |         277 |
|     318 | 0x26F8      |        9976 |
|     319 | 0x26F9      |        9977 |
|     320 | 0xFFFFFDDC  |  4294966748 |
|     321 | 0x6D1D      |       27933 |
|     322 | 0xFFFFA44C  |  4294943820 |
|     323 | 0x03D9      |         985 |
|     324 | 0xFFFFFD6C  |  4294966636 |
|     325 | 0x655C      |       25948 |
|     326 | 0xFFFFA712  |  4294944530 |
|     327 | 0x00E7      |         231 |
|     328 | 0x26FC      |        9980 |
|     329 | 0x26FD      |        9981 |
|     330 | 0x26FE      |        9982 |
|     331 | 0x01A6      |         422 |
|     332 | 0x26FF      |        9983 |
|     333 | 0x2700      |        9984 |
|     334 | 0x0400      |        1024 |
|     335 | 0x2701      |        9985 |
|     336 | 0x002D      |          45 |
|     337 | 0x01E2      |         482 |
|     338 | 0x2702      |        9986 |
|     339 | 0x2703      |        9987 |
|     340 | 0x2704      |        9988 |
|     341 | 0x2705      |        9989 |
|     342 | 0x2706      |        9990 |
|     343 | 0x001D      |          29 |
|     344 | 0x2707      |        9991 |
|     345 | 0x2708      |        9992 |
|     346 | 0x0270      |         624 |
|     347 | 0x2709      |        9993 |
|     348 | 0x270A      |        9994 |
|     349 | 0x270B      |        9995 |
|     350 | 0x006F      |         111 |
|     351 | 0x007B      |         123 |
|     352 | 0x0031      |          49 |
|     353 | 0x0002      |           2 |
|     354 | 0x0039      |          57 |
|     355 | 0x004B      |          75 |
|     356 | 0x0004      |           4 |
|     357 | 0x0043      |          67 |
|     358 | 0x270F      |        9999 |
|     359 | 0x01A4      |         420 |
|     360 | 0x2711      |       10001 |
|     361 | 0x2712      |       10002 |
|     362 | 0x2713      |       10003 |
|     363 | 0x0009      |           9 |
|     364 | 0x2714      |       10004 |
|     365 | 0x2715      |       10005 |
|     366 | 0x2716      |       10006 |
|     367 | 0x006E      |         110 |
|     368 | 0x1AA32     |      109106 |
|     369 | 0xFFFEB1E1  |  4294881761 |
|     370 | 0x0FAC      |        4012 |
|     371 | 0x271A      |       10010 |
|     372 | 0x271B      |       10011 |
|     373 | 0x271C      |       10012 |
|     374 | 0x271D      |       10013 |
|     375 | 0x271E      |       10014 |
|     376 | 0x271F      |       10015 |
|     377 | 0x2720      |       10016 |
|     378 | 0x01AB      |         427 |
|     379 | 0x2721      |       10017 |
|     380 | 0x2722      |       10018 |
|     381 | 0x01A9      |         425 |
|     382 | 0x2723      |       10019 |
|     383 | 0x2724      |       10020 |
|     384 | 0x2725      |       10021 |
|     385 | 0x2726      |       10022 |
|     386 | 0x2727      |       10023 |
|     387 | 0x2728      |       10024 |
|     388 | 0x2729      |       10025 |
|     389 | 0x272A      |       10026 |
|     390 | 0x272B      |       10027 |
|     391 | 0x272C      |       10028 |
|     392 | 0x272D      |       10029 |
|     393 | 0x272E      |       10030 |
|     394 | 0x272F      |       10031 |
|     395 | 0x2730      |       10032 |
|     396 | 0x2731      |       10033 |
|     397 | 0x18D44     |      101700 |
|     398 | 0xFFFF078A  |  4294903690 |
|     399 | 0xFFFF5DE5  |  4294925797 |
|     400 | 0x0C00      |        3072 |
|     401 | 0xFFFF10AA  |  4294906026 |
|     402 | 0x2732      |       10034 |
|     403 | 0x2733      |       10035 |
|     404 | 0x12C9D     |       76957 |
|     405 | 0x10CEA     |       68842 |
|     406 | 0xFFFF7B30  |  4294933296 |
|     407 | 0x0D89      |        3465 |
|     408 | 0x02ED      |         749 |
|     409 | 0x2734      |       10036 |
|     410 | 0x2735      |       10037 |
|     411 | 0x2736      |       10038 |
|     412 | 0x0069      |         105 |
|     413 | 0x130FE     |       78078 |
|     414 | 0x106E2     |       67298 |
|     415 | 0x0C2C      |        3116 |
|     416 | 0x273A      |       10042 |
|     417 | 0x13426     |       78886 |
|     418 | 0x10588     |       66952 |
|     419 | 0x273B      |       10043 |
|     420 | 0x273C      |       10044 |
|     421 | 0x273D      |       10045 |
|     422 | 0x273E      |       10046 |
|     423 | 0x273F      |       10047 |
|     424 | 0x2740      |       10048 |
|     425 | 0x2741      |       10049 |
|     426 | 0x2742      |       10050 |
|     427 | 0x2743      |       10051 |
|     428 | 0x2744      |       10052 |
|     429 | 0x2745      |       10053 |
|     430 | 0x2746      |       10054 |
|     431 | 0x2747      |       10055 |
|     432 | 0x2748      |       10056 |
|     433 | 0x2749      |       10057 |
|     434 | 0x274A      |       10058 |
|     435 | 0x274B      |       10059 |
|     436 | 0x274C      |       10060 |
|     437 | 0x00A1      |         161 |
|     438 | 0x274D      |       10061 |
|     439 | 0x274E      |       10062 |
|     440 | 0x274F      |       10063 |
|     441 | 0x2750      |       10064 |
|     442 | 0x2751      |       10065 |
|     443 | 0x2752      |       10066 |
|     444 | 0x2753      |       10067 |
|     445 | 0x2754      |       10068 |
|     446 | 0x2755      |       10069 |
|     447 | 0x2756      |       10070 |
|     448 | 0x2757      |       10071 |
|     449 | 0x2758      |       10072 |
|     450 | 0x2759      |       10073 |
|     451 | 0x275A      |       10074 |
|     452 | 0x275B      |       10075 |
|     453 | 0x275C      |       10076 |
|     454 | 0x275D      |       10077 |
|     455 | 0x275E      |       10078 |
|     456 | 0x275F      |       10079 |
|     457 | 0x2760      |       10080 |
|     458 | 0x2761      |       10081 |
|     459 | 0x0281      |         641 |
|     460 | 0x2762      |       10082 |
|     461 | 0x2763      |       10083 |
|     462 | 0x2764      |       10084 |
|     463 | 0x2765      |       10085 |
|     464 | 0x2766      |       10086 |
|     465 | 0x2767      |       10087 |
|     466 | 0x2768      |       10088 |
|     467 | 0x2769      |       10089 |
|     468 | 0x276A      |       10090 |
|     469 | 0x276B      |       10091 |
|     470 | 0x276C      |       10092 |
|     471 | 0x276D      |       10093 |
|     472 | 0x276E      |       10094 |
|     473 | 0x276F      |       10095 |
|     474 | 0x2770      |       10096 |
|     475 | 0x2771      |       10097 |
|     476 | 0x2772      |       10098 |
|     477 | 0x0151      |         337 |
|     478 | 0x2773      |       10099 |
|     479 | 0x2774      |       10100 |
|     480 | 0x2775      |       10101 |
|     481 | 0x2776      |       10102 |
|     482 | 0x1F396     |      127894 |
|     483 | 0xB022      |       45090 |
|     484 | 0xFFFF5FD9  |  4294926297 |
|     485 | 0x0F1B      |        3867 |
|     486 | 0x1FB3F     |      129855 |
|     487 | 0xB54A      |       46410 |
|     488 | 0x277B      |       10107 |
|     489 | 0x214E6     |      136422 |
|     490 | 0xBCF2      |       48370 |
|     491 | 0x01E4      |         484 |
|     492 | 0x277C      |       10108 |
|     493 | 0x277D      |       10109 |
|     494 | 0x277E      |       10110 |
|     495 | 0x277F      |       10111 |
|     496 | 0x2780      |       10112 |
|     497 | 0x2781      |       10113 |
|     498 | 0x2782      |       10114 |
|     499 | 0x2783      |       10115 |
|     500 | 0x2784      |       10116 |
|     501 | 0x2785      |       10117 |
|     502 | 0x2786      |       10118 |
|     503 | 0x2787      |       10119 |
|     504 | 0x2788      |       10120 |
|     505 | 0x2789      |       10121 |
|     506 | 0x278A      |       10122 |
|     507 | 0x278B      |       10123 |
|     508 | 0x278C      |       10124 |
|     509 | 0x278D      |       10125 |
|     510 | 0x278E      |       10126 |
|     511 | 0x278F      |       10127 |
|     512 | 0x2790      |       10128 |
|     513 | 0x2791      |       10129 |
|     514 | 0x2792      |       10130 |
|     515 | 0x2793      |       10131 |
|     516 | 0x2794      |       10132 |
|     517 | 0x2795      |       10133 |
|     518 | 0x2796      |       10134 |
|     519 | 0x2797      |       10135 |
|     520 | 0x2798      |       10136 |
|     521 | 0x01DD      |         477 |
|     522 | 0x2799      |       10137 |
|     523 | 0x279A      |       10138 |
|     524 | 0x279B      |       10139 |
|     525 | 0x279C      |       10140 |
|     526 | 0x279D      |       10141 |
|     527 | 0x279E      |       10142 |
|     528 | 0x279F      |       10143 |
|     529 | 0x27A0      |       10144 |
|     530 | 0x27A1      |       10145 |
|     531 | 0x27A2      |       10146 |
|     532 | 0x27A3      |       10147 |
|     533 | 0x27A4      |       10148 |
|     534 | 0x27A5      |       10149 |
|     535 | 0x27A6      |       10150 |
|     536 | 0x27A7      |       10151 |
|     537 | 0x27A8      |       10152 |
|     538 | 0x27A9      |       10153 |
|     539 | 0x27AA      |       10154 |
|     540 | 0x27AB      |       10155 |
|     541 | 0x27AC      |       10156 |
|     542 | 0x27AD      |       10157 |
|     543 | 0x27AE      |       10158 |
|     544 | 0x27AF      |       10159 |
|     545 | 0x27B0      |       10160 |
|     546 | 0x27B1      |       10161 |
|     547 | 0x27B2      |       10162 |
|     548 | 0x27B3      |       10163 |
|     549 | 0x27B4      |       10164 |
|     550 | 0x27B5      |       10165 |
|     551 | 0x27B6      |       10166 |
|     552 | 0x27B7      |       10167 |
|     553 | 0x217A2     |      137122 |
|     554 | 0xBAFE      |       47870 |
|     555 | 0x27B8      |       10168 |
|     556 | 0x27B9      |       10169 |
|     557 | 0x27BA      |       10170 |
|     558 | 0x27BB      |       10171 |
|     559 | 0x19F91     |      106385 |
|     560 | 0xFFFEDF16  |  4294893334 |
|     561 | 0xFFFF5FA1  |  4294926241 |
|     562 | 0x02A1      |         673 |
|     563 | 0x1A657     |      108119 |
|     564 | 0xFFFECE1C  |  4294888988 |
|     565 | 0x1AEBC     |      110268 |
|     566 | 0xFFFEBF7F  |  4294885247 |
|     567 | 0x0360      |         864 |
|     568 | 0x27BF      |       10175 |
|     569 | 0x27C0      |       10176 |
|     570 | 0x27C1      |       10177 |
|     571 | 0x27C2      |       10178 |
|     572 | 0x27C3      |       10179 |
|     573 | 0x27C4      |       10180 |
|     574 | 0x27C5      |       10181 |
|     575 | 0x27C6      |       10182 |
|     576 | 0x27C7      |       10183 |
|     577 | 0x27C8      |       10184 |
|     578 | 0x27C9      |       10185 |
|     579 | 0x27CA      |       10186 |
|     580 | 0x27CB      |       10187 |
|     581 | 0x27CC      |       10188 |
|     582 | 0x27CD      |       10189 |
|     583 | 0x27CE      |       10190 |
|     584 | 0x27CF      |       10191 |
|     585 | 0x27D0      |       10192 |
|     586 | 0x27D1      |       10193 |
|     587 | 0x27D2      |       10194 |
|     588 | 0x27D3      |       10195 |
|     589 | 0x27D4      |       10196 |
|     590 | 0x27D5      |       10197 |
|     591 | 0x27D6      |       10198 |
|     592 | 0x27D7      |       10199 |
|     593 | 0x27D8      |       10200 |
|     594 | 0x27D9      |       10201 |
|     595 | 0x27DA      |       10202 |
|     596 | 0x27DB      |       10203 |
|     597 | 0x27DC      |       10204 |
|     598 | 0x27DD      |       10205 |
|     599 | 0x27DE      |       10206 |
|     600 | 0x27DF      |       10207 |
|     601 | 0x27E0      |       10208 |
|     602 | 0x27E1      |       10209 |
|     603 | 0x27E2      |       10210 |
|     604 | 0x27E3      |       10211 |
|     605 | 0x27E4      |       10212 |
|     606 | 0x27E5      |       10213 |
|     607 | 0x27E6      |       10214 |
|     608 | 0x27E7      |       10215 |
|     609 | 0x27E8      |       10216 |
|     610 | 0x6D23      |       27939 |
|     611 | 0xA5A6      |       42406 |
|     612 | 0x6D1C      |       27932 |
|     613 | 0xBFB0      |       49072 |
|     614 | 0x13A7E     |       80510 |
|     615 | 0x11C07     |       72711 |
|     616 | 0xFFFF7B12  |  4294933266 |
|     617 | 0x0613      |        1555 |
|     618 | 0x4406      |       17414 |
|     619 | 0x0564      |        1380 |
|     620 | 0xFFFF9264  |  4294939236 |
|     621 | 0x0720      |        1824 |
|     622 | 0x0258      |         600 |
|     623 | 0x0845      |        2117 |
|     624 | 0xFFFFAA8D  |  4294945421 |
|     625 | 0x0C37      |        3127 |
|     626 | 0x2B5E      |       11102 |
|     627 | 0xFFFFA970  |  4294945136 |
|     628 | 0xFFFFC336  |  4294951734 |
|     629 | 0x1DC03     |      121859 |
|     630 | 0xFFFF97F8  |  4294940664 |
|     631 | 0x04ED      |        1261 |
|     632 | 0xFFFFBFF0  |  4294950896 |
|     633 | 0x1CEFF     |      118527 |
|     634 | 0xFFFF948E  |  4294939790 |
|     635 | 0xFFFFC571  |  4294952305 |
|     636 | 0x1B845     |      112709 |
|     637 | 0xFFFF9303  |  4294939395 |
|     638 | 0xFFFFC630  |  4294952496 |
|     639 | 0x1B261     |      111201 |
|     640 | 0xFFFF92F3  |  4294939379 |
|     641 | 0x03B4      |         948 |
|     642 | 0x1CD88     |      118152 |
|     643 | 0xA3D5      |       41941 |
|     644 | 0x0FAF      |        4015 |
|     645 | 0x2181D     |      137245 |
|     646 | 0xBD1C      |       48412 |
|     647 | 0x00A5      |         165 |
|     648 | 0x0008      |           8 |
|     649 | 0x6F49      |       28489 |
|     650 | 0x984C      |       38988 |
|     651 | 0xFFFFD195  |  4294955413 |
|     652 | 0x0BF3      |        3059 |
|     653 | 0x6D60      |       28000 |
|     654 | 0x9A1E      |       39454 |
|     655 | 0xFFFFD0D4  |  4294955220 |
|     656 | 0xFFFFA416  |  4294943766 |
|     657 | 0xFFFFA723  |  4294944547 |
|     658 | 0x1A5CB     |      107979 |
|     659 | 0xFFFEBB25  |  4294884133 |
|     660 | 0x013E      |         318 |
|     661 | 0x1B8B8     |      112824 |
|     662 | 0xB4B5      |       46261 |
|     663 | 0x0284      |         644 |
|     664 | 0x13F80     |       81792 |
|     665 | 0xFFFEF304  |  4294898436 |
|     666 | 0xFFFF7A36  |  4294933046 |
|     667 | 0x0142      |         322 |
|     668 | 0x1ACAE     |      109742 |
|     669 | 0xFFFEB92C  |  4294883628 |
|     670 | 0x01B5      |         437 |
|     671 | 0x0A80      |        2688 |
|     672 | 0x27ED      |       10221 |
|     673 | 0x27EE      |       10222 |
|     674 | 0x27EF      |       10223 |
|     675 | 0x27F0      |       10224 |
|     676 | 0x27F1      |       10225 |
|     677 | 0x27F2      |       10226 |
|     678 | 0x27F3      |       10227 |
|     679 | 0x27F4      |       10228 |
|     680 | 0x27F5      |       10229 |
|     681 | 0x1B44A     |      111690 |
|     682 | 0xFFFEBAA0  |  4294884000 |
|     683 | 0x049F      |        1183 |
|     684 | 0x27F6      |       10230 |
|     685 | 0x00F4      |         244 |
|     686 | 0x27F7      |       10231 |
|     687 | 0x27F8      |       10232 |
|     688 | 0x27F9      |       10233 |
|     689 | 0x27FA      |       10234 |
|     690 | 0x27FB      |       10235 |
|     691 | 0x27FC      |       10236 |
|     692 | 0x27FD      |       10237 |
|     693 | 0x27FE      |       10238 |
|     694 | 0x27FF      |       10239 |
|     695 | 0x2800      |       10240 |
|     696 | 0x2801      |       10241 |
|     697 | 0x2802      |       10242 |
|     698 | 0x2803      |       10243 |
|     699 | 0x2804      |       10244 |
|     700 | 0x2805      |       10245 |
|     701 | 0x001C      |          28 |
|     702 | 0x2806      |       10246 |
|     703 | 0x2807      |       10247 |
|     704 | 0x2808      |       10248 |
|     705 | 0x2809      |       10249 |
|     706 | 0x280A      |       10250 |
|     707 | 0x001A      |          26 |
|     708 | 0x280B      |       10251 |
|     709 | 0x280C      |       10252 |
|     710 | 0x280D      |       10253 |
|     711 | 0x280E      |       10254 |
|     712 | 0x280F      |       10255 |
|     713 | 0x2810      |       10256 |
|     714 | 0x2811      |       10257 |
|     715 | 0x2812      |       10258 |
|     716 | 0x0361      |         865 |
|     717 | 0x2813      |       10259 |
|     718 | 0x2814      |       10260 |
|     719 | 0x2815      |       10261 |
|     720 | 0x2816      |       10262 |
|     721 | 0x2817      |       10263 |
|     722 | 0x2818      |       10264 |
|     723 | 0x2819      |       10265 |
|     724 | 0x281A      |       10266 |
|     725 | 0x281B      |       10267 |
|     726 | 0x281C      |       10268 |
|     727 | 0x281D      |       10269 |
|     728 | 0x18EF5     |      102133 |
|     729 | 0xFFFF12C0  |  4294906560 |
|     730 | 0x0B8F      |        2959 |
|     731 | 0x18E08     |      101896 |
|     732 | 0xFFFF18E3  |  4294908131 |
|     733 | 0xFFFF5EDE  |  4294926046 |
|     734 | 0x281E      |       10270 |
|     735 | 0x281F      |       10271 |
|     736 | 0x4550      |       17744 |
|     737 | 0x34E4      |       13540 |
|     738 | 0xFFFF7361  |  4294931297 |
|     739 | 0x0347      |         839 |
|     740 | 0x003E      |          62 |
|     741 | 0x290F      |       10511 |
|     742 | 0x2910      |       10512 |
|     743 | 0x2911      |       10513 |
|     744 | 0x2912      |       10514 |
|     745 | 0x2913      |       10515 |
|     746 | 0x101A03B   |    16883771 |
|     747 | 0x2914      |       10516 |
|     748 | 0x2915      |       10517 |
|     749 | 0x2916      |       10518 |
|     750 | 0x2917      |       10519 |
|     751 | 0x2918      |       10520 |
|     752 | 0x2919      |       10521 |
|     753 | 0x291A      |       10522 |
|     754 | 0x291B      |       10523 |
|     755 | 0x291C      |       10524 |
|     756 | 0x291D      |       10525 |
|     757 | 0x291E      |       10526 |
|     758 | 0x291F      |       10527 |
|     759 | 0x2920      |       10528 |
|     760 | 0x2921      |       10529 |
|     761 | 0x2922      |       10530 |
|     762 | 0x2923      |       10531 |
|     763 | 0x2924      |       10532 |
|     764 | 0x2925      |       10533 |
|     765 | 0x2926      |       10534 |
|     766 | 0x0027      |          39 |
|     767 | 0x2927      |       10535 |
|     768 | 0x2928      |       10536 |
|     769 | 0x2929      |       10537 |
|     770 | 0x292A      |       10538 |
|     771 | 0x292B      |       10539 |
|     772 | 0x292C      |       10540 |
|     773 | 0x292D      |       10541 |
|     774 | 0x43EA      |       17386 |
|     775 | 0x36A9      |       13993 |
|     776 | 0xFFFF7360  |  4294931296 |
|     777 | 0x02F3      |         755 |
|     778 | 0x292E      |       10542 |
|     779 | 0x292F      |       10543 |
|     780 | 0x2930      |       10544 |
|     781 | 0x2931      |       10545 |
|     782 | 0x2932      |       10546 |
|     783 | 0x1407B     |       82043 |
|     784 | 0xBBA3      |       48035 |
|     785 | 0xFFFF737D  |  4294931325 |
|     786 | 0x0CB7      |        3255 |
|     787 | 0x2933      |       10547 |
|     788 | 0x2934      |       10548 |
|     789 | 0x2935      |       10549 |
|     790 | 0x2936      |       10550 |
|     791 | 0x2937      |       10551 |
|     792 | 0x2938      |       10552 |
|     793 | 0x0006      |           6 |
|     794 | 0x2939      |       10553 |
|     795 | 0x293A      |       10554 |
|     796 | 0x0456      |        1110 |
|     797 | 0xFFFFBCF3  |  4294950131 |
|     798 | 0xFFFFA8C3  |  4294944963 |
|     799 | 0x0FC9      |        4041 |
|     800 | 0x293B      |       10555 |
|     801 | 0x293C      |       10556 |
|     802 | 0x293D      |       10557 |
|     803 | 0x293E      |       10558 |
|     804 | 0x293F      |       10559 |
|     805 | 0x2940      |       10560 |
|     806 | 0x2941      |       10561 |
|     807 | 0x4864      |       18532 |
|     808 | 0x37DC      |       14300 |
|     809 | 0x03D4      |         980 |
|     810 | 0x0017      |          23 |
|     811 | 0x2942      |       10562 |
|     812 | 0x2943      |       10563 |
|     813 | 0x2944      |       10564 |
|     814 | 0x2945      |       10565 |
|     815 | 0x2946      |       10566 |
|     816 | 0x2947      |       10567 |
|     817 | 0x2948      |       10568 |
|     818 | 0x2949      |       10569 |
|     819 | 0x294A      |       10570 |
|     820 | 0x294B      |       10571 |
|     821 | 0x294C      |       10572 |
|     822 | 0x294D      |       10573 |
|     823 | 0x294E      |       10574 |
|     824 | 0x294F      |       10575 |
|     825 | 0x2950      |       10576 |
|     826 | 0x2951      |       10577 |
|     827 | 0x2952      |       10578 |
|     828 | 0x2953      |       10579 |
|     829 | 0x2954      |       10580 |
|     830 | 0x2955      |       10581 |
|     831 | 0x2956      |       10582 |
|     832 | 0x2957      |       10583 |
|     833 | 0x2958      |       10584 |
|     834 | 0x2959      |       10585 |
|     835 | 0x295A      |       10586 |
|     836 | 0x295B      |       10587 |
|     837 | 0x295C      |       10588 |
|     838 | 0x295D      |       10589 |
|     839 | 0x295E      |       10590 |
|     840 | 0x03A6      |         934 |
|     841 | 0xFFFFB9C3  |  4294949315 |
|     842 | 0xFFFFA878  |  4294944888 |
|     843 | 0x0DD3      |        3539 |
|     844 | 0x295F      |       10591 |
|     845 | 0x2960      |       10592 |
|     846 | 0x2961      |       10593 |
|     847 | 0x2962      |       10594 |
|     848 | 0x2963      |       10595 |
|     849 | 0x2964      |       10596 |
|     850 | 0x2965      |       10597 |
|     851 | 0x2966      |       10598 |
|     852 | 0x2967      |       10599 |
|     853 | 0x2968      |       10600 |
|     854 | 0x2969      |       10601 |
|     855 | 0x296A      |       10602 |
|     856 | 0x296B      |       10603 |
|     857 | 0x296C      |       10604 |
|     858 | 0x296D      |       10605 |
|     859 | 0xFFFFB5CC  |  4294948300 |
|     860 | 0xFFFFA7C7  |  4294944711 |
|     861 | 0x0D10      |        3344 |
|     862 | 0x2974      |       10612 |
|     863 | 0x2975      |       10613 |
|     864 | 0x2976      |       10614 |
|     865 | 0x2977      |       10615 |
|     866 | 0x2978      |       10616 |
|     867 | 0x2979      |       10617 |
|     868 | 0x297A      |       10618 |
|     869 | 0x297B      |       10619 |
|     870 | 0x297C      |       10620 |
|     871 | 0x297D      |       10621 |
|     872 | 0x297E      |       10622 |
|     873 | 0x297F      |       10623 |
|     874 | 0x2980      |       10624 |
|     875 | 0x2981      |       10625 |
|     876 | 0x2982      |       10626 |
|     877 | 0x2983      |       10627 |
|     878 | 0x2984      |       10628 |
|     879 | 0x11FC9     |       73673 |
|     880 | 0x3237      |       12855 |
|     881 | 0xFFFF9EA5  |  4294942373 |
|     882 | 0x0060      |          96 |
|     883 | 0x2985      |       10629 |
|     884 | 0x2986      |       10630 |
|     885 | 0x2987      |       10631 |
|     886 | 0x2988      |       10632 |
|     887 | 0x2989      |       10633 |
|     888 | 0x298A      |       10634 |
|     889 | 0x298B      |       10635 |
|     890 | 0x298C      |       10636 |
|     891 | 0x298D      |       10637 |
|     892 | 0x298E      |       10638 |
|     893 | 0x298F      |       10639 |
|     894 | 0x2990      |       10640 |
|     895 | 0x13B36     |       80694 |
|     896 | 0xFFFFF70B  |  4294965003 |
|     897 | 0xFFFF9E78  |  4294942328 |
|     898 | 0x00E9      |         233 |
|     899 | 0x2991      |       10641 |
|     900 | 0x2992      |       10642 |
|     901 | 0x2993      |       10643 |
|     902 | 0x2994      |       10644 |
|     903 | 0x2995      |       10645 |
|     904 | 0x2996      |       10646 |
|     905 | 0x2997      |       10647 |
|     906 | 0xFFFFFE0C  |  4294966796 |
|     907 | 0x2998      |       10648 |
|     908 | 0x2999      |       10649 |
|     909 | 0x299A      |       10650 |
|     910 | 0x299B      |       10651 |
|     911 | 0x299C      |       10652 |
|     912 | 0x299D      |       10653 |
|     913 | 0x299E      |       10654 |
|     914 | 0x299F      |       10655 |
|     915 | 0x29A0      |       10656 |
|     916 | 0x29A1      |       10657 |
|     917 | 0x29A2      |       10658 |
|     918 | 0x29A3      |       10659 |
|     919 | 0x29A4      |       10660 |
|     920 | 0x29A5      |       10661 |
|     921 | 0x0020      |          32 |
|     922 | 0x29A6      |       10662 |
|     923 | 0x29A7      |       10663 |
|     924 | 0x29A8      |       10664 |
|     925 | 0x29A9      |       10665 |
|     926 | 0x29AA      |       10666 |
|     927 | 0x29AB      |       10667 |
|     928 | 0x29AC      |       10668 |
|     929 | 0x004C      |          76 |
|     930 | 0x29AD      |       10669 |
|     931 | 0x29AE      |       10670 |
|     932 | 0x29AF      |       10671 |
|     933 | 0x29B0      |       10672 |
|     934 | 0xFFFFFFAD  |  4294967213 |
|     935 | 0xFFFFA8C2  |  4294944962 |
|     936 | 0x09FA      |        2554 |
|     937 | 0x29B1      |       10673 |
|     938 | 0x29B2      |       10674 |
|     939 | 0x29B3      |       10675 |
|     940 | 0x29B4      |       10676 |
|     941 | 0x29B5      |       10677 |
|     942 | 0x29B6      |       10678 |
|     943 | 0x29B7      |       10679 |
|     944 | 0x29B8      |       10680 |
|     945 | 0x29B9      |       10681 |
|     946 | 0x29BA      |       10682 |
|     947 | 0x29BB      |       10683 |
|     948 | 0x29BC      |       10684 |
|     949 | 0x29BD      |       10685 |
|     950 | 0x29BE      |       10686 |
|     951 | 0x29BF      |       10687 |
|     952 | 0x29C0      |       10688 |
|     953 | 0x29C1      |       10689 |
|     954 | 0x29C2      |       10690 |
|     955 | 0x29C3      |       10691 |
|     956 | 0x29C4      |       10692 |
|     957 | 0x29C5      |       10693 |
|     958 | 0x29C6      |       10694 |
|     959 | 0x29C7      |       10695 |
|     960 | 0x29C8      |       10696 |
|     961 | 0x29C9      |       10697 |
|     962 | 0x29CA      |       10698 |
|     963 | 0x29CB      |       10699 |
|     964 | 0x29CC      |       10700 |
|     965 | 0x29CD      |       10701 |
|     966 | 0x29CE      |       10702 |
|     967 | 0x29D0      |       10704 |
|     968 | 0x29D1      |       10705 |
|     969 | 0x29D2      |       10706 |
|     970 | 0x29D3      |       10707 |
|     971 | 0x29D4      |       10708 |
|     972 | 0x29D5      |       10709 |
|     973 | 0x29D6      |       10710 |
|     974 | 0x29D7      |       10711 |
|     975 | 0x29D8      |       10712 |
|     976 | 0x29D9      |       10713 |
|     977 | 0x29DA      |       10714 |
|     978 | 0x29DB      |       10715 |
|     979 | 0x29DC      |       10716 |
|     980 | 0xFFFE6AA9  |  4294863529 |
|     981 | 0xE0CB      |       57547 |
|     982 | 0xFFFF9689  |  4294940297 |
|     983 | 0x0D57      |        3415 |
|     984 | 0x2A1D      |       10781 |
|     985 | 0x2A1E      |       10782 |
|     986 | 0x2A1F      |       10783 |
|     987 | 0x2A20      |       10784 |
|     988 | 0x0021      |          33 |
|     989 | 0x2A21      |       10785 |
|     990 | 0x2A22      |       10786 |
|     991 | 0x2A23      |       10787 |
|     992 | 0x00D7      |         215 |
|     993 | 0x2A24      |       10788 |
|     994 | 0x2A25      |       10789 |
|     995 | 0x2A26      |       10790 |
|     996 | 0x2A27      |       10791 |
|     997 | 0x2A28      |       10792 |
|     998 | 0x2A29      |       10793 |
|     999 | 0x2A2A      |       10794 |
|    1000 | 0x2A2B      |       10795 |
|    1001 | 0x2A2C      |       10796 |
|    1002 | 0x2A2D      |       10797 |
|    1003 | 0x2A2E      |       10798 |
|    1004 | 0x2A2F      |       10799 |
|    1005 | 0x2A30      |       10800 |
|    1006 | 0xFFFEAB10  |  4294880016 |
|    1007 | 0xFFFFFF1D  |  4294967069 |
|    1008 | 0xFFFFCBC9  |  4294953929 |
|    1009 | 0x0893      |        2195 |
|    1010 | 0x1AC36     |      109622 |
|    1011 | 0xFFFEB1FF  |  4294881791 |
|    1012 | 0x0051      |          81 |
|    1013 | 0x2B95      |       11157 |
|    1014 | 0x2B96      |       11158 |
|    1015 | 0x0ACC      |        2764 |
|    1016 | 0x2B97      |       11159 |
|    1017 | 0x2B98      |       11160 |
|    1018 | 0x2B99      |       11161 |
|    1019 | 0x2B9A      |       11162 |
|    1020 | 0x2B9B      |       11163 |
|    1021 | 0x143BC     |       82876 |
|    1022 | 0xFDE7      |       64999 |
|    1023 | 0xFFFF7B42  |  4294933314 |
|    1024 | 0x0AC7      |        2759 |
|    1025 | 0x0186      |         390 |
|    1026 | 0x2BD1      |       11217 |
|    1027 | 0x2BD2      |       11218 |
|    1028 | 0x2BD3      |       11219 |
|    1029 | 0x2BD4      |       11220 |
|    1030 | 0x2BD5      |       11221 |
|    1031 | 0x2BD6      |       11222 |
|    1032 | 0x2BD7      |       11223 |
|    1033 | 0x2BD8      |       11224 |
|    1034 | 0x1491D     |       84253 |
|    1035 | 0xF483      |       62595 |
|    1036 | 0x02C9      |         713 |
|    1037 | 0x2BD9      |       11225 |
|    1038 | 0x2BDA      |       11226 |
|    1039 | 0x2BDB      |       11227 |
|    1040 | 0x2BDC      |       11228 |
|    1041 | 0x2BDD      |       11229 |
|    1042 | 0x2BDE      |       11230 |
|    1043 | 0x2BDF      |       11231 |
|    1044 | 0x2BE0      |       11232 |
|    1045 | 0x2BE1      |       11233 |
|    1046 | 0x2BE2      |       11234 |
|    1047 | 0x2BE3      |       11235 |
|    1048 | 0x2BE4      |       11236 |
|    1049 | 0x2BE5      |       11237 |
|    1050 | 0x2BE6      |       11238 |
|    1051 | 0x2BE7      |       11239 |
|    1052 | 0x2BE8      |       11240 |
|    1053 | 0x2BE9      |       11241 |
|    1054 | 0x2BEA      |       11242 |
|    1055 | 0x2BEB      |       11243 |
|    1056 | 0x2BEC      |       11244 |
|    1057 | 0x2BED      |       11245 |
|    1058 | 0x2BEE      |       11246 |
|    1059 | 0x2BEF      |       11247 |
|    1060 | 0x2BF0      |       11248 |
|    1061 | 0x2BF1      |       11249 |
|    1062 | 0x2BF2      |       11250 |
|    1063 | 0x2BF3      |       11251 |
|    1064 | 0x2BF4      |       11252 |
|    1065 | 0x2BF5      |       11253 |
|    1066 | 0x1421D     |       82461 |
|    1067 | 0xFC36      |       64566 |
|    1068 | 0xFFFF7B3A  |  4294933306 |
|    1069 | 0x00F6      |         246 |
|    1070 | 0x2BF6      |       11254 |
|    1071 | 0x2BF7      |       11255 |
|    1072 | 0x2BF8      |       11256 |
|    1073 | 0x2BF9      |       11257 |
|    1074 | 0x2BFA      |       11258 |
|    1075 | 0x2BFB      |       11259 |
|    1076 | 0x2BFC      |       11260 |
|    1077 | 0x1B694     |      112276 |
|    1078 | 0xB091      |       45201 |
|    1079 | 0x01DC      |         476 |
|    1080 | 0x2BFD      |       11261 |
|    1081 | 0x2BFE      |       11262 |
|    1082 | 0x2BFF      |       11263 |
|    1083 | 0x2C00      |       11264 |
|    1084 | 0x2C01      |       11265 |
|    1085 | 0x2C02      |       11266 |
|    1086 | 0x2C03      |       11267 |
|    1087 | 0x2C04      |       11268 |
|    1088 | 0x2C05      |       11269 |
|    1089 | 0x2C06      |       11270 |
|    1090 | 0x2C07      |       11271 |
|    1091 | 0x2C08      |       11272 |
|    1092 | 0x2C09      |       11273 |
|    1093 | 0x2C0A      |       11274 |
|    1094 | 0x2C0B      |       11275 |
|    1095 | 0x2C0C      |       11276 |
|    1096 | 0x2C0D      |       11277 |
|    1097 | 0x2C0E      |       11278 |
|    1098 | 0x2C0F      |       11279 |
|    1099 | 0x2C10      |       11280 |
|    1100 | 0x2C11      |       11281 |
|    1101 | 0x2C12      |       11282 |
|    1102 | 0x2C13      |       11283 |
|    1103 | 0x2C14      |       11284 |
|    1104 | 0x2C15      |       11285 |
|    1105 | 0x2C16      |       11286 |
|    1106 | 0x2C17      |       11287 |
|    1107 | 0x2C18      |       11288 |
|    1108 | 0x2C19      |       11289 |
|    1109 | 0x2C1A      |       11290 |
|    1110 | 0x2C1B      |       11291 |
|    1111 | 0x2C1C      |       11292 |
|    1112 | 0x2C1D      |       11293 |
|    1113 | 0x2C1E      |       11294 |
|    1114 | 0x2C1F      |       11295 |
|    1115 | 0x2C20      |       11296 |
|    1116 | 0x2C21      |       11297 |
|    1117 | 0x2C22      |       11298 |
|    1118 | 0x2C23      |       11299 |
|    1119 | 0x0F90      |        3984 |
|    1120 | 0xFE4A      |       65098 |
|    1121 | 0xFFFF9E80  |  4294942336 |
|    1122 | 0x0FF1      |        4081 |
|    1123 | 0x2C24      |       11300 |
|    1124 | 0x2C25      |       11301 |
|    1125 | 0x2C26      |       11302 |
|    1126 | 0x2C27      |       11303 |
|    1127 | 0x2C28      |       11304 |
|    1128 | 0x2C29      |       11305 |
|    1129 | 0x2C2A      |       11306 |
|    1130 | 0x2C2B      |       11307 |
|    1131 | 0x2C2C      |       11308 |
|    1132 | 0x2C2D      |       11309 |
|    1133 | 0x2C2E      |       11310 |
|    1134 | 0x2C2F      |       11311 |
|    1135 | 0x2C30      |       11312 |
|    1136 | 0x2C31      |       11313 |
|    1137 | 0x2C32      |       11314 |
|    1138 | 0x2C33      |       11315 |
|    1139 | 0x2C34      |       11316 |
|    1140 | 0x2C35      |       11317 |
|    1141 | 0x2C36      |       11318 |
|    1142 | 0x2C37      |       11319 |
|    1143 | 0x2C38      |       11320 |
|    1144 | 0x2C39      |       11321 |
|    1145 | 0x2C3A      |       11322 |
|    1146 | 0x2C3B      |       11323 |
|    1147 | 0x16D37     |       93495 |
|    1148 | 0xCBD9      |       52185 |
|    1149 | 0x00F8      |         248 |
|    1150 | 0x2C3C      |       11324 |
|    1151 | 0x2C3D      |       11325 |
|    1152 | 0x2C3E      |       11326 |
|    1153 | 0x2C3F      |       11327 |
|    1154 | 0x2C40      |       11328 |
|    1155 | 0x2C41      |       11329 |
|    1156 | 0x2C42      |       11330 |
|    1157 | 0x2C43      |       11331 |
|    1158 | 0x2C44      |       11332 |
|    1159 | 0x2C45      |       11333 |
|    1160 | 0x2C46      |       11334 |
|    1161 | 0x2C47      |       11335 |
|    1162 | 0x2C48      |       11336 |
|    1163 | 0x2C49      |       11337 |
|    1164 | 0x2C4A      |       11338 |
|    1165 | 0x2C4B      |       11339 |
|    1166 | 0x2C4C      |       11340 |
|    1167 | 0x2C4D      |       11341 |
|    1168 | 0x2C4E      |       11342 |
|    1169 | 0x2C4F      |       11343 |
|    1170 | 0x2C50      |       11344 |
|    1171 | 0x2C51      |       11345 |
|    1172 | 0x2C52      |       11346 |
|    1173 | 0x2C53      |       11347 |
|    1174 | 0x0B1B      |        2843 |
|    1175 | 0x10731     |       67377 |
|    1176 | 0xFFFF9EFE  |  4294942462 |
|    1177 | 0x0189      |         393 |
|    1178 | 0x2C54      |       11348 |
|    1179 | 0x2C55      |       11349 |
|    1180 | 0x00EA      |         234 |
|    1181 | 0x2C56      |       11350 |
|    1182 | 0x2C57      |       11351 |
|    1183 | 0x2C58      |       11352 |
|    1184 | 0x2C59      |       11353 |
|    1185 | 0x2C5A      |       11354 |
|    1186 | 0x2C5B      |       11355 |
|    1187 | 0x2C5C      |       11356 |
|    1188 | 0x2C5D      |       11357 |
|    1189 | 0x2C5E      |       11358 |
|    1190 | 0x2C5F      |       11359 |
|    1191 | 0x2C60      |       11360 |
|    1192 | 0x2C61      |       11361 |
|    1193 | 0x2C62      |       11362 |
|    1194 | 0x2C63      |       11363 |
|    1195 | 0x2C64      |       11364 |
|    1196 | 0x2C65      |       11365 |
|    1197 | 0x2C66      |       11366 |
|    1198 | 0x2C67      |       11367 |
|    1199 | 0x2C68      |       11368 |
|    1200 | 0x2C69      |       11369 |
|    1201 | 0x2C6A      |       11370 |
|    1202 | 0x2C6B      |       11371 |
|    1203 | 0x2C6C      |       11372 |
|    1204 | 0x2C6D      |       11373 |
|    1205 | 0x2C6E      |       11374 |
|    1206 | 0x2C6F      |       11375 |
|    1207 | 0x15CE      |        5582 |
|    1208 | 0x1052E     |       66862 |
|    1209 | 0xFFFF9EB2  |  4294942386 |
|    1210 | 0x02FB      |         763 |
|    1211 | 0x2C70      |       11376 |
|    1212 | 0x2C71      |       11377 |
|    1213 | 0x2C72      |       11378 |
|    1214 | 0x2C73      |       11379 |
|    1215 | 0x2C74      |       11380 |
|    1216 | 0x2C75      |       11381 |
|    1217 | 0x2C76      |       11382 |
|    1218 | 0x2C77      |       11383 |
|    1219 | 0x2C78      |       11384 |
|    1220 | 0x2C79      |       11385 |
|    1221 | 0x2C7A      |       11386 |
|    1222 | 0x2C7B      |       11387 |
|    1223 | 0x2C7C      |       11388 |
|    1224 | 0x2C7D      |       11389 |
|    1225 | 0x2C7E      |       11390 |
|    1226 | 0x2C7F      |       11391 |
|    1227 | 0x17C36     |       97334 |
|    1228 | 0xFFFEB92A  |  4294883626 |
|    1229 | 0xFFFF6EFE  |  4294930174 |
|    1230 | 0x0CA0      |        3232 |
|    1231 | 0x17D89     |       97673 |
|    1232 | 0xFFFEC247  |  4294885959 |
|    1233 | 0x1824F     |       98895 |
|    1234 | 0xFFFEC47B  |  4294886523 |
|    1235 | 0x2C80      |       11392 |
|    1236 | 0x2C81      |       11393 |
|    1237 | 0x2C82      |       11394 |
|    1238 | 0x2C83      |       11395 |
|    1239 | 0x02A9      |         681 |
|    1240 | 0x02A8      |         680 |
|    1241 | 0x2C84      |       11396 |
|    1242 | 0x2C85      |       11397 |
|    1243 | 0x2C86      |       11398 |
|    1244 | 0x2C87      |       11399 |
|    1245 | 0x0011      |          17 |
|    1246 | 0x2C88      |       11400 |
|    1247 | 0x2C89      |       11401 |
|    1248 | 0x2C8A      |       11402 |
|    1249 | 0x2C8B      |       11403 |
|    1250 | 0x2C8C      |       11404 |
|    1251 | 0x2C8D      |       11405 |
|    1252 | 0x2C8E      |       11406 |
|    1253 | 0x2C8F      |       11407 |
|    1254 | 0x2C90      |       11408 |
|    1255 | 0x2C91      |       11409 |
|    1256 | 0x2C92      |       11410 |
|    1257 | 0x2C93      |       11411 |
|    1258 | 0x2C94      |       11412 |
|    1259 | 0x2C95      |       11413 |
|    1260 | 0x2C96      |       11414 |
|    1261 | 0x02C0      |         704 |
|    1262 | 0x0030      |          48 |
|    1263 | 0x17B4B     |       97099 |
|    1264 | 0xC5D9      |       50649 |
|    1265 | 0xFFFF6018  |  4294926360 |
|    1266 | 0x08A5      |        2213 |
|    1267 | 0x2CF9      |       11513 |
|    1268 | 0x2CFA      |       11514 |
|    1269 | 0x2CFB      |       11515 |
|    1270 | 0x2CFC      |       11516 |
|    1271 | 0x2CFD      |       11517 |
|    1272 | 0x2CFE      |       11518 |
|    1273 | 0x2CFF      |       11519 |
|    1274 | 0x2D00      |       11520 |
|    1275 | 0x2D01      |       11521 |
|    1276 | 0x2D02      |       11522 |
|    1277 | 0x2D03      |       11523 |
|    1278 | 0x2D04      |       11524 |
|    1279 | 0x2D05      |       11525 |
|    1280 | 0x2D06      |       11526 |
|    1281 | 0x17F66     |       98150 |
|    1282 | 0xC61E      |       50718 |
|    1283 | 0xFFFF6055  |  4294926421 |
|    1284 | 0x08F0      |        2288 |
|    1285 | 0x2D07      |       11527 |
|    1286 | 0x2D08      |       11528 |
|    1287 | 0x17FA9     |       98217 |
|    1288 | 0xCDBC      |       52668 |
|    1289 | 0xFFFF6030  |  4294926384 |
|    1290 | 0x2D09      |       11529 |
|    1291 | 0x2D0A      |       11530 |
|    1292 | 0x2D0B      |       11531 |
|    1293 | 0x2D0C      |       11532 |
|    1294 | 0x2D0D      |       11533 |
|    1295 | 0x2D0E      |       11534 |
|    1296 | 0x2D0F      |       11535 |
|    1297 | 0x000C      |          12 |
|    1298 | 0x17F42     |       98114 |
|    1299 | 0xC511      |       50449 |
|    1300 | 0xFFFF6053  |  4294926419 |
|    1301 | 0x0C13      |        3091 |
|    1302 | 0x2D10      |       11536 |
|    1303 | 0x2D11      |       11537 |
|    1304 | 0x2D12      |       11538 |
|    1305 | 0x2D13      |       11539 |
|    1306 | 0x2D14      |       11540 |
|    1307 | 0x2D15      |       11541 |
|    1308 | 0x2D16      |       11542 |
|    1309 | 0x2D17      |       11543 |
|    1310 | 0x2D18      |       11544 |
|    1311 | 0x2D19      |       11545 |
|    1312 | 0x2D1A      |       11546 |
|    1313 | 0x2D1B      |       11547 |
|    1314 | 0x000E      |          14 |
|    1315 | 0x2D1C      |       11548 |
|    1316 | 0x2D1D      |       11549 |
|    1317 | 0x0A52      |        2642 |
|    1318 | 0xFFFFF001  |  4294963201 |
|    1319 | 0x2D1E      |       11550 |
|    1320 | 0x2D1F      |       11551 |
|    1321 | 0x2D20      |       11552 |
|    1322 | 0x2D21      |       11553 |
|    1323 | 0x2D22      |       11554 |
|    1324 | 0x2D23      |       11555 |
|    1325 | 0x2D24      |       11556 |
|    1326 | 0x2D25      |       11557 |
|    1327 | 0x2D26      |       11558 |
|    1328 | 0x2D27      |       11559 |
|    1329 | 0x2D28      |       11560 |
|    1330 | 0x2D29      |       11561 |
|    1331 | 0x17EB6     |       97974 |
|    1332 | 0xCF0B      |       53003 |
|    1333 | 0xFFFF600F  |  4294926351 |
|    1334 | 0x0789      |        1929 |
|    1335 | 0x2D2A      |       11562 |
|    1336 | 0x2D2B      |       11563 |
|    1337 | 0x2D2C      |       11564 |
|    1338 | 0x2D2D      |       11565 |
|    1339 | 0x2D2E      |       11566 |
|    1340 | 0x2D2F      |       11567 |
|    1341 | 0x2D30      |       11568 |
|    1342 | 0x2D31      |       11569 |
|    1343 | 0x2D32      |       11570 |
|    1344 | 0x2D33      |       11571 |
|    1345 | 0x2D34      |       11572 |
|    1346 | 0x2D35      |       11573 |
|    1347 | 0x0F67      |        3943 |
|    1348 | 0x2D36      |       11574 |
|    1349 | 0x2D37      |       11575 |
|    1350 | 0x2D38      |       11576 |
|    1351 | 0x2D39      |       11577 |
|    1352 | 0x14179     |       82297 |
|    1353 | 0xFF83      |       65411 |
|    1354 | 0xFFFF7B49  |  4294933321 |
|    1355 | 0x0B76      |        2934 |
|    1356 | 0x2D3A      |       11578 |
|    1357 | 0x2D3B      |       11579 |
|    1358 | 0x2D3C      |       11580 |
|    1359 | 0x2D3D      |       11581 |
|    1360 | 0x14B95     |       84885 |
|    1361 | 0xFA4D      |       64077 |
|    1362 | 0xFFFF7B5A  |  4294933338 |
|    1363 | 0x2D3E      |       11582 |
|    1364 | 0x2D3F      |       11583 |
|    1365 | 0x2D40      |       11584 |
|    1366 | 0x2D41      |       11585 |
|    1367 | 0x02CE      |         718 |
|    1368 | 0x152F5     |       86773 |
|    1369 | 0x11A0F     |       72207 |
|    1370 | 0xFFFF7B23  |  4294933283 |
|    1371 | 0x021D      |         541 |
|    1372 | 0x15CBE     |       89278 |
|    1373 | 0x10EDB     |       69339 |
|    1374 | 0xFFFF7ABD  |  4294933181 |
|    1375 | 0x00BF      |         191 |
|    1376 | 0x14D7D     |       85373 |
|    1377 | 0x105DE     |       67038 |
|    1378 | 0xFFFF7B4D  |  4294933325 |
|    1379 | 0x2D83      |       11651 |
|    1380 | 0x2D84      |       11652 |
|    1381 | 0x2D85      |       11653 |
|    1382 | 0x2D86      |       11654 |
|    1383 | 0x000B      |          11 |
|    1384 | 0x2D87      |       11655 |
|    1385 | 0x2D88      |       11656 |
|    1386 | 0x2D89      |       11657 |
|    1387 | 0x2D8A      |       11658 |
|    1388 | 0x2D8B      |       11659 |
|    1389 | 0x2D8C      |       11660 |
|    1390 | 0x2D8D      |       11661 |
|    1391 | 0x2D8E      |       11662 |
|    1392 | 0x2D8F      |       11663 |
|    1393 | 0x2D90      |       11664 |
|    1394 | 0x2D91      |       11665 |
|    1395 | 0x2D92      |       11666 |
|    1396 | 0x2D93      |       11667 |
|    1397 | 0x2D94      |       11668 |
|    1398 | 0x2D95      |       11669 |
|    1399 | 0x5AD3      |       23251 |
|    1400 | 0xFFFFAC97  |  4294945943 |
|    1401 | 0xFFFF73C5  |  4294931397 |
|    1402 | 0x2D9B      |       11675 |
|    1403 | 0x2D9C      |       11676 |
|    1404 | 0x2D9D      |       11677 |
|    1405 | 0x2D9E      |       11678 |
|    1406 | 0x2DAC      |       11692 |
|    1407 | 0x2DAD      |       11693 |
|    1408 | 0x2DAE      |       11694 |
|    1409 | 0x13EF2     |       81650 |
|    1410 | 0xBAE1      |       47841 |
|    1411 | 0xFFFF7357  |  4294931287 |
|    1412 | 0x0D4E      |        3406 |
|    1413 | 0x2DA3      |       11683 |
|    1414 | 0x2DA4      |       11684 |
|    1415 | 0x2DA5      |       11685 |
|    1416 | 0x2DA6      |       11686 |
|    1417 | 0x0954      |        2388 |
|    1418 | 0x2DA7      |       11687 |
|    1419 | 0x2DB7      |       11703 |
|    1420 | 0x2DB8      |       11704 |
|    1421 | 0x2DB9      |       11705 |
|    1422 | 0x0007      |           7 |
|    1423 | 0x2DBA      |       11706 |
|    1424 | 0xFFFFD46C  |  4294956140 |
|    1425 | 0xFFFFC8F5  |  4294953205 |
|    1426 | 0xFFFFAA57  |  4294945367 |
|    1427 | 0x046A      |        1130 |
|    1428 | 0x2D9F      |       11679 |
|    1429 | 0x2DA0      |       11680 |
|    1430 | 0x2DA1      |       11681 |
|    1431 | 0x2DA2      |       11682 |
|    1432 | 0x0045      |          69 |
|    1433 | 0x2DAF      |       11695 |
|    1434 | 0x2DB0      |       11696 |
|    1435 | 0x2DB1      |       11697 |
|    1436 | 0x2DB2      |       11698 |
|    1437 | 0xFFFEE839  |  4294895673 |
|    1438 | 0x1D9C      |        7580 |
|    1439 | 0xFFFFD438  |  4294956088 |
|    1440 | 0x002C      |          44 |
|    1441 | 0x2DA8      |       11688 |
|    1442 | 0x2DA9      |       11689 |
|    1443 | 0x2DAA      |       11690 |
|    1444 | 0x2DAB      |       11691 |
|    1445 | 0x2DB3      |       11699 |
|    1446 | 0x2DB4      |       11700 |
|    1447 | 0x2DB5      |       11701 |
|    1448 | 0x2DB6      |       11702 |
|    1449 | 0x153CB     |       86987 |
|    1450 | 0x10944     |       67908 |
|    1451 | 0xFFFF7B41  |  4294933313 |
|    1452 | 0x0B48      |        2888 |
|    1453 | 0x2DBE      |       11710 |
|    1454 | 0x2DBF      |       11711 |
|    1455 | 0x2DC0      |       11712 |
|    1456 | 0x2DC1      |       11713 |
|    1457 | 0x2DC2      |       11714 |
|    1458 | 0x2DC3      |       11715 |
|    1459 | 0x2DC4      |       11716 |
|    1460 | 0x2DC5      |       11717 |
|    1461 | 0x2DC6      |       11718 |
|    1462 | 0x2DC7      |       11719 |
|    1463 | 0x2DC8      |       11720 |
|    1464 | 0x2DD6      |       11734 |
|    1465 | 0x2DCC      |       11724 |
|    1466 | 0x2DD5      |       11733 |
|    1467 | 0x2DD7      |       11735 |
|    1468 | 0x2DD4      |       11732 |
|    1469 | 0x2DCD      |       11725 |
|    1470 | 0x2DD3      |       11731 |
|    1471 | 0x2DCF      |       11727 |
|    1472 | 0x2DC9      |       11721 |
|    1473 | 0x2DCE      |       11726 |
|    1474 | 0x2DD2      |       11730 |
|    1475 | 0x2DD0      |       11728 |
|    1476 | 0x2DCA      |       11722 |
|    1477 | 0x2DD1      |       11729 |
|    1478 | 0x2DCB      |       11723 |
|    1479 | 0x2DD8      |       11736 |
|    1480 | 0x2DD9      |       11737 |
|    1481 | 0x2DDA      |       11738 |
|    1482 | 0x2DDB      |       11739 |
|    1483 | 0x2DDC      |       11740 |
|    1484 | 0x2DDD      |       11741 |
|    1485 | 0x2DE8      |       11752 |
|    1486 | 0x2DE9      |       11753 |
|    1487 | 0x2DEA      |       11754 |
|    1488 | 0x2DEB      |       11755 |
|    1489 | 0x2DEC      |       11756 |
|    1490 | 0x002A      |          42 |
|    1491 | 0x2DED      |       11757 |
|    1492 | 0x2DEE      |       11758 |
|    1493 | 0x2DEF      |       11759 |
|    1494 | 0xFFFFFBD1  |  4294966225 |
|    1495 | 0x4062      |       16482 |
|    1496 | 0xFFFFA8EE  |  4294945006 |
|    1497 | 0x02D8      |         728 |
|    1498 | 0xFFFFFC3C  |  4294966332 |
|    1499 | 0x3860      |       14432 |
|    1500 | 0xFFFFA96D  |  4294945133 |
|    1501 | 0x05A4      |        1444 |
|    1502 | 0x3112      |       12562 |
|    1503 | 0xFFFFA93E  |  4294945086 |
|    1504 | 0x0113      |         275 |
|    1505 | 0x0897      |        2199 |
|    1506 | 0xFFFFAA8A  |  4294945418 |
|    1507 | 0xFFFFFF1B  |  4294967067 |
|    1508 | 0xFFFFD883  |  4294957187 |
|    1509 | 0xFFFFA98A  |  4294945162 |
|    1510 | 0x03E4      |         996 |
|    1511 | 0xFFFFFF86  |  4294967174 |
|    1512 | 0xFFFFA83B  |  4294944827 |
|    1513 | 0xFFFFF542  |  4294964546 |
|    1514 | 0xFFFFBCEF  |  4294950127 |
|    1515 | 0x21D4A     |      138570 |
|    1516 | 0x1DC79     |      121977 |
|    1517 | 0xFFFFF830  |  4294965296 |
|    1518 | 0x086F      |        2159 |
|    1519 | 0x1807D     |       98429 |
|    1520 | 0xFFFEFF25  |  4294901541 |
|    1521 | 0x04E3      |        1251 |
|    1522 | 0xFFFCB26E  |  4294750830 |
|    1523 | 0xFFFE9627  |  4294874663 |
|    1524 | 0xFFFFFF0B  |  4294967051 |
|    1525 | 0x09F7      |        2551 |
|    1526 | 0x8B2F      |       35631 |
|    1527 | 0xFFFF3AAD  |  4294916781 |
|    1528 | 0x2329      |        9001 |
|    1529 | 0x09EC      |        2540 |
|    1530 | 0x27692     |      161426 |
|    1531 | 0x274F7     |      161015 |
|    1532 | 0x05F8      |        1528 |
|    1533 | 0x1C843     |      116803 |
|    1534 | 0xFFFEE69B  |  4294895259 |
|    1535 | 0x07F9      |        2041 |
|    1536 | 0xFFFC8339  |  4294738745 |
|    1537 | 0xFFFE2B86  |  4294847366 |
|    1538 | 0xFFFFFF07  |  4294967047 |
|    1539 | 0x0FFD      |        4093 |
|    1540 | 0xBF7E      |       49022 |
|    1541 | 0xFFFEE2B4  |  4294894260 |
|    1542 | 0x0C0F      |        3087 |
|    1543 | 0x185ED     |       99821 |
|    1544 | 0xFFFEFF9F  |  4294901663 |
|    1545 | 0x0312      |         786 |
|    1546 | 0x21BAA     |      138154 |
|    1547 | 0x1D514     |      120084 |
|    1548 | 0x0E96      |        3734 |
|    1549 | 0xFFFCB3AF  |  4294751151 |
|    1550 | 0xFFFE90C0  |  4294873280 |
|    1551 | 0xFFFFFF72  |  4294967154 |
|    1552 | 0x084B      |        2123 |
|    1553 | 0x8B65      |       35685 |
|    1554 | 0xFFFF3C2F  |  4294917167 |
|    1555 | 0x065B      |        1627 |
|    1556 | 0xFFFBBF41  |  4294688577 |
|    1557 | 0xFFF9A232  |  4294550066 |
|    1558 | 0xFFFF641B  |  4294927387 |
|    1559 | 0x0AA6      |        2726 |
|    1560 | 0x8B7BE     |      571326 |
|    1561 | 0xFFFBD923  |  4294695203 |
|    1562 | 0xFFFFFEA3  |  4294966947 |
|    1563 | 0xFFFBB61F  |  4294686239 |
|    1564 | 0xFFF9928F  |  4294546063 |
|    1565 | 0xFFFF648E  |  4294927502 |
|    1566 | 0x0704      |        1796 |
|    1567 | 0x88F90     |      561040 |
|    1568 | 0xFFFBC607  |  4294690311 |
|    1569 | 0x06C5      |        1733 |
|    1570 | 0xFFFA88AC  |  4294609068 |
|    1571 | 0x4DDD      |       19933 |
|    1572 | 0xFFFF7744  |  4294932292 |
|    1573 | 0x0831      |        2097 |
|    1574 | 0x1DA71     |      121457 |
|    1575 | 0x1C391     |      115601 |
|    1576 | 0xFFFFE0D3  |  4294959315 |
|    1577 | 0x0DA9      |        3497 |
|    1578 | 0x25BC9     |      154569 |
|    1579 | 0xFFFD5734  |  4294793012 |
|    1580 | 0x0227      |         551 |
|    1581 | 0x091C      |        2332 |
|    1582 | 0xFFFFC3F3  |  4294951923 |
|    1583 | 0x19656     |      104022 |
|    1584 | 0xFFFFBC6C  |  4294949996 |
|    1585 | 0x0379      |         889 |
|    1586 | 0x0286      |         646 |
|    1587 | 0xFFFF97B9  |  4294940601 |
|    1588 | 0xFFFFE43B  |  4294960187 |
|    1589 | 0x0689      |        1673 |
|    1590 | 0xFFFFFFD1  |  4294967249 |
|    1591 | 0xFFFF80F7  |  4294934775 |
|    1592 | 0xFFFFA435  |  4294943797 |
|    1593 | 0x008C      |         140 |
|    1594 | 0x00D2      |         210 |
|    1595 | 0xFFFFC3B8  |  4294951864 |
|    1596 | 0x1E44C     |      123980 |
|    1597 | 0xFFFF9A29  |  4294941225 |

## String References

- **9913**: Accept the challenge? [Yes./No.]
- **10089**: I... [I sold it./It was stolen./I gave it to Prishe.]
- **10126**: Do you understand? [Yes./No.]
- **11719**: Whose part of the story came first? [Fouagine./Zadant./Noam./Raminey.]
- **11720**: Whose part of the story came second? [Let me think a bit./Zadant./Noam./Raminey.]
- **11721**: Whose part of the story came second? [Let me think a bit./Fouagine./Noam./Raminey.]
- **11722**: Whose part of the story came second? [Let me think a bit./Fouagine./Zadant./Raminey.]
- **11723**: Whose part of the story came second? [Let me think a bit./Fouagine./Zadant./Noam.]
- **11724**: Whose part of the story came third? [Let me think a bit./Noam./Raminey.]
- **11725**: Whose part of the story came third? [Let me think a bit./Zadant./Raminey.]
- **11726**: Whose part of the story came third? [Let me think a bit./Fouagine./Raminey.]
- **11727**: Whose part of the story came third? [Let me think a bit./Zadant./Noam.]
- **11728**: Whose part of the story came third? [Let me think a bit./Fouagine./Noam.]
- **11729**: Whose part of the story came third? [Let me think a bit./Fouagine./Zadant.]
- **11730**: So Fouagine's was last, right? [Let me think a bit./That's right!]
- **11731**: So Zadant's was last, right? [Let me think a bit./That's right!]
- **11732**: So Noam's was last, right? [Let me think a bit./That's right!]
- **11733**: So Raminey's was last, right? [Let me think a bit./That's right!]
- **11805**: Take up this duty? [On my way./Not today.]

## Events

### Event 65535

#### Metadata

| Field        | Value   |
|--------------|---------|
| Entrypoint   | 0x0000  |
| Data Size    | 1 bytes |
| Instructions | 1       |

```
      00 01 02 03 04 05 06 07  08 09 0A 0B 0C 0D 0E 0F
      -- -- -- -- -- -- -- --  -- -- -- -- -- -- -- --
0000: 00                                                .               
```

#### Opcodes

```
  0: 0x0000 [0x00] END_REQSTACK()
```

### Event 65534

#### Metadata

| Field        | Value   |
|--------------|---------|
| Entrypoint   | 0x0001  |
| Data Size    | 1 bytes |
| Instructions | 1       |

```
      00 01 02 03 04 05 06 07  08 09 0A 0B 0C 0D 0E 0F
      -- -- -- -- -- -- -- --  -- -- -- -- -- -- -- --
0000:    00                                              .              
```

#### Opcodes

```
  0: 0x0001 [0x00] END_REQSTACK()
```

### Event 65535.1

#### Metadata

| Field        | Value    |
|--------------|----------|
| Entrypoint   | 0x0002   |
| Data Size    | 24 bytes |
| Instructions | 4        |

```
      00 01 02 03 04 05 06 07  08 09 0A 0B 0C 0D 0E 0F
      -- -- -- -- -- -- -- --  -- -- -- -- -- -- -- --
0000:       03 0A 00 07 7F 1A  CF EB 66 0B 00 F8 FF FF    ........f.....
0010: 7F F8 FF FF 7F 74 6C 6B  30 00                    .....tlk0.      
```

#### Opcodes

```
  0: 0x0002 [0x03] ExtData[1]->WorkLocal[10] = Entity->Race
  1: 0x0007 [0x1A] CALL_SUBROUTINE(address=0xEBCF)
  2: 0x000A [0x66] LOAD_EXT_SCHEDULER_MAIN: Load scheduler "tlk0" with entities [EventEntity, EventEntity], work=ExtData[1]->WorkLocal[11]
  3: 0x0019 [0x00] END_REQSTACK()
```

### Event 65535.2

#### Metadata

| Field        | Value    |
|--------------|----------|
| Entrypoint   | 0x001A   |
| Data Size    | 24 bytes |
| Instructions | 4        |

```
      00 01 02 03 04 05 06 07  08 09 0A 0B 0C 0D 0E 0F
      -- -- -- -- -- -- -- --  -- -- -- -- -- -- -- --
0010:                                03 0A 00 07 7F 1A            ......
0020: CF EB 66 0B 00 F8 FF FF  7F F8 FF FF 7F 74 6C 6B  ..f..........tlk
0030: 31 00                                             1.              
```

#### Opcodes

```
  0: 0x001A [0x03] ExtData[1]->WorkLocal[10] = Entity->Race
  1: 0x001F [0x1A] CALL_SUBROUTINE(address=0xEBCF)
  2: 0x0022 [0x66] LOAD_EXT_SCHEDULER_MAIN: Load scheduler "tlk1" with entities [EventEntity, EventEntity], work=ExtData[1]->WorkLocal[11]
  3: 0x0031 [0x00] END_REQSTACK()
```

### Event 65535.3

#### Metadata

| Field        | Value    |
|--------------|----------|
| Entrypoint   | 0x0032   |
| Data Size    | 27 bytes |
| Instructions | 5        |

```
      00 01 02 03 04 05 06 07  08 09 0A 0B 0C 0D 0E 0F
      -- -- -- -- -- -- -- --  -- -- -- -- -- -- -- --
0030:       03 0A 00 07 7F 1A  F4 EB 0B 0B 00 66 0B 00    ...........f..
0040: F8 FF FF 7F F8 FF FF 7F  70 61 73 30 00           ........pas0.   
```

#### Opcodes

```
  0: 0x0032 [0x03] ExtData[1]->WorkLocal[10] = Entity->Race
  1: 0x0037 [0x1A] CALL_SUBROUTINE(address=0xEBF4)
  2: 0x003A [0x0B] ExtData[1]->WorkLocal[11]++
  3: 0x003D [0x66] LOAD_EXT_SCHEDULER_MAIN: Load scheduler "pas0" with entities [EventEntity, EventEntity], work=ExtData[1]->WorkLocal[11]
  4: 0x004C [0x00] END_REQSTACK()
```

### Event 65535.4

#### Metadata

| Field        | Value    |
|--------------|----------|
| Entrypoint   | 0x004D   |
| Data Size    | 25 bytes |
| Instructions | 7        |

```
      00 01 02 03 04 05 06 07  08 09 0A 0B 0C 0D 0E 0F
      -- -- -- -- -- -- -- --  -- -- -- -- -- -- -- --
0040:                                         32 00 80               2..
0050: 1F 00 01 80 02 80 03 80  1F 01 6F 1F 00 04 80 05  ..........o.....
0060: 80 06 80 1F 01 00                                 ......          
```

#### Opcodes

```
  0: 0x004D [0x32] ExtData[1]->MainSpeed = 13* * 0.1
  1: 0x0050 [0x1F] MOVE_ENTITY: EventEntity moves to X=122.641*, Z=41.956*, Y=-41.500*
  2: 0x0058 [0x1F] MOVE_ENTITY: Update entity position (mode=1)
  3: 0x005A [0x6F] WAIT_FRAME_DELAY: Yield until WaitTime reaches zero
  4: 0x005B [0x1F] MOVE_ENTITY: EventEntity moves to X=134.005*, Z=45.748*, Y=-40.000*
  5: 0x0063 [0x1F] MOVE_ENTITY: Update entity position (mode=1)
  6: 0x0065 [0x00] END_REQSTACK()
```

### Event 65535.5

#### Metadata

| Field        | Value    |
|--------------|----------|
| Entrypoint   | 0x0066   |
| Data Size    | 10 bytes |
| Instructions | 2        |

```
      00 01 02 03 04 05 06 07  08 09 0A 0B 0C 0D 0E 0F
      -- -- -- -- -- -- -- --  -- -- -- -- -- -- -- --
0060:                   37 04  80 05 80 06 80 07 80 00        7.........
```

#### Opcodes

```
  0: 0x0066 [0x37] UPDATE_EVENT_POSITION_AND_DIR: x=134.005*, z=45.748*, y=-40.000*, direction=359.5*
  1: 0x006F [0x00] END_REQSTACK()
```

### Event 65535.6

#### Metadata

| Field        | Value    |
|--------------|----------|
| Entrypoint   | 0x0070   |
| Data Size    | 67 bytes |
| Instructions | 12       |

```
      00 01 02 03 04 05 06 07  08 09 0A 0B 0C 0D 0E 0F
      -- -- -- -- -- -- -- --  -- -- -- -- -- -- -- --
0070: 79 00 F0 FF FF 7F F0 FF  FF 7F 37 08 80 09 80 03  y.........7.....
0080: 80 0A 80 03 02 00 0B 80  1A F1 00 37 03 00 04 00  ...........7....
0090: 05 00 06 00 03 02 00 0C  80 1A F1 00 32 00 80 31  ............2..1
00A0: 00 03 00 04 00 05 00 0D  80 31 01 27 03 1C A0 01  .........1.'....
00B0: 01 03 00                                          ...             
```

#### Opcodes

```
  0: 0x0070 [0x79] LocalPlayer looks at LocalPlayer (Basic look)
  1: 0x007A [0x37] UPDATE_EVENT_POSITION_AND_DIR: x=119.718*, z=42.014*, y=-41.500*, direction=0.0*
  2: 0x0083 [0x03] ExtData[1]->WorkLocal[2] = 4294962296*
  3: 0x0088 [0x1A] CALL_SUBROUTINE(address=0x00F1)
  4: 0x008B [0x37] UPDATE_EVENT_POSITION_AND_DIR: x=ExtData[1]->WorkLocal[3], z=ExtData[1]->WorkLocal[4], y=ExtData[1]->WorkLocal[5], direction=ExtData[1]->WorkLocal[6]
  5: 0x0094 [0x03] ExtData[1]->WorkLocal[2] = 10000*
  6: 0x0099 [0x1A] CALL_SUBROUTINE(address=0x00F1)
  7: 0x009C [0x32] ExtData[1]->MainSpeed = 13* * 0.1
  8: 0x009F [0x31] UPDATE_ENTITY_POSITION: Set EventEntity goal position to X=ExtData[1]->WorkLocal[3], Z=ExtData[1]->WorkLocal[4], Y=ExtData[1]->WorkLocal[5], Time=300*
  9: 0x00A9 [0x31] UPDATE_ENTITY_POSITION: Move EventEntity towards goal position
 10: 0x00AB [0x27] REQ_SET(priority=0x03, entity_id=Walnut Door (ID: 16883740/0x0101A01C), tag_num=0x03)
 11: 0x00B2 [0x00] END_REQSTACK()
```

### Event 65535.7

#### Metadata

| Field        | Value     |
|--------------|-----------|
| Entrypoint   | 0x00B3    |
| Data Size    | 131 bytes |
| Instructions | 27        |

```
      00 01 02 03 04 05 06 07  08 09 0A 0B 0C 0D 0E 0F
      -- -- -- -- -- -- -- --  -- -- -- -- -- -- -- --
00B0:          03 03 00 0E 80  03 04 00 0F 80 03 05 00     .............
00C0: 10 80 03 06 00 11 80 03  02 00 12 80 1A 1C 01 07  ................
00D0: 05 00 13 80 37 03 00 04  00 05 00 06 00 14 02 00  ....7...........
00E0: 14 80 1A F1 00 1F 00 03  00 04 00 05 00 1F 01 6F  ...............o
00F0: 00 3B F8 FF FF 7F 03 00  04 00 05 00 3A F8 FF FF  .;..........:...
0100: 7F 06 00 17 07 00 06 00  02 00 16 08 00 06 00 02  ................
0110: 00 07 03 00 07 00 07 04  00 08 00 1B 17 07 00 06  ................
0120: 00 02 00 16 08 00 06 00  02 00 07 03 00 07 00 07  ................
0130: 04 00 08 00 1B 00                                 ......          
```

#### Opcodes

```
  0: 0x00B3 [0x03] ExtData[1]->WorkLocal[3] = 139229*
  1: 0x00B8 [0x03] ExtData[1]->WorkLocal[4] = 47815*
  2: 0x00BD [0x03] ExtData[1]->WorkLocal[5] = 4294927281*
  3: 0x00C2 [0x03] ExtData[1]->WorkLocal[6] = 3716*
  4: 0x00C7 [0x03] ExtData[1]->WorkLocal[2] = 4294964296*
  5: 0x00CC [0x1A] CALL_SUBROUTINE(address=0x011C)
  6: 0x00CF [0x07] ExtData[1]->WorkLocal[5] += 4294966296*
  7: 0x00D4 [0x37] UPDATE_EVENT_POSITION_AND_DIR: x=ExtData[1]->WorkLocal[3], z=ExtData[1]->WorkLocal[4], y=ExtData[1]->WorkLocal[5], direction=ExtData[1]->WorkLocal[6]
  8: 0x00DD [0x14] ExtData[1]->WorkLocal[2] *= 4294967295*
  9: 0x00E2 [0x1A] CALL_SUBROUTINE(address=0x00F1)
 10: 0x00E5 [0x1F] MOVE_ENTITY: EventEntity moves to X=ExtData[1]->WorkLocal[3], Z=ExtData[1]->WorkLocal[4], Y=ExtData[1]->WorkLocal[5]
 11: 0x00ED [0x1F] MOVE_ENTITY: Update entity position (mode=1)
 12: 0x00EF [0x6F] WAIT_FRAME_DELAY: Yield until WaitTime reaches zero
 13: 0x00F0 [0x00] END_REQSTACK()

SUBROUTINE_00F1:
 14: 0x00F1 [0x3B] GET_ENTITY_POSITION(entity=EventEntity, x_destination=ExtData[1]->WorkLocal[3], y_destination=ExtData[1]->WorkLocal[4], z_destination=ExtData[1]->WorkLocal[5])
 15: 0x00FC [0x3A] CONVERT_YAW_TO_BYTE(entity=EventEntity, result_destination=ExtData[1]->WorkLocal[6])
 16: 0x0103 [0x17] ExtData[1]->WorkLocal[7] = cos(ExtData[1]->WorkLocal[6]) * ExtData[1]->WorkLocal[2]
 17: 0x010A [0x16] ExtData[1]->WorkLocal[8] = sin(ExtData[1]->WorkLocal[6]) * ExtData[1]->WorkLocal[2]
 18: 0x0111 [0x07] ExtData[1]->WorkLocal[3] += ExtData[1]->WorkLocal[7]
 19: 0x0116 [0x07] ExtData[1]->WorkLocal[4] += ExtData[1]->WorkLocal[8]
 20: 0x011B [0x1B] RETURN

SUBROUTINE_011C:
 21: 0x011C [0x17] ExtData[1]->WorkLocal[7] = cos(ExtData[1]->WorkLocal[6]) * ExtData[1]->WorkLocal[2]
 22: 0x0123 [0x16] ExtData[1]->WorkLocal[8] = sin(ExtData[1]->WorkLocal[6]) * ExtData[1]->WorkLocal[2]
 23: 0x012A [0x07] ExtData[1]->WorkLocal[3] += ExtData[1]->WorkLocal[7]
 24: 0x012F [0x07] ExtData[1]->WorkLocal[4] += ExtData[1]->WorkLocal[8]
 25: 0x0134 [0x1B] RETURN
 26: 0x0135 [0x00] END_REQSTACK()
```

### Event 576

#### Metadata

| Field        | Value     |
|--------------|-----------|
| Entrypoint   | 0x0136    |
| Data Size    | 319 bytes |
| Instructions | 40        |

```
      00 01 02 03 04 05 06 07  08 09 0A 0B 0C 0D 0E 0F
      -- -- -- -- -- -- -- --  -- -- -- -- -- -- -- --
0130:                   20 01  46 01 42 45 15 80 F0 FF         .F.BE....
0140: FF 7F F0 FF FF 7F 66 64  6F 31 0A 80 55 15 80 F0  ......fdo1..U...
0150: FF FF 7F F0 FF FF 7F 66  64 6F 31 38 16 80 94 01  .......fdo18....
0160: F0 FF FF 7F 37 17 80 18  80 10 80 19 80 97 0A 80  ....7...........
0170: 1A 80 45 1B 80 F0 FF FF  7F F0 FF FF 7F 79 30 30  ..E..........y00
0180: 30 0A 80 45 15 80 F0 FF  FF 7F F0 FF FF 7F 66 64  0..E..........fd
0190: 69 31 0A 80 1C 1C 80 4A  09 A0 01 01 F0 FF FF 7F  i1.....J........
01A0: 55 15 80 F0 FF FF 7F F0  FF FF 7F 66 64 69 31 6F  U..........fdi1o
01B0: 76 09 A0 01 01 2B 09 A0  01 01 1D 80 1C 1E 80 27  v....+.........'
01C0: 03 09 A0 01 01 19 23 55  1B 80 F0 FF FF 7F F0 FF  ......#U........
01D0: FF 7F 79 30 30 30 45 1B  80 F0 FF FF 7F F0 FF FF  ..y000E.........
01E0: 7F 79 30 30 31 0A 80 1C  1C 80 29 03 09 A0 01 01  .y001.....).....
01F0: 1B 2B 09 A0 01 01 1F 80  23 55 1B 80 F0 FF FF 7F  .+......#U......
0200: F0 FF FF 7F 79 30 30 31  27 03 09 A0 01 01 21 2B  ....y001'.....!+
0210: 09 A0 01 01 20 80 1C 21  80 45 1B 80 F0 FF FF 7F  .... ..!.E......
0220: F0 FF FF 7F 79 30 30 32  0A 80 23 45 15 80 F0 FF  ....y002..#E....
0230: FF 7F F0 FF FF 7F 66 64  6F 32 0A 80 55 15 80 F0  ......fdo2..U...
0240: FF FF 7F F0 FF FF 7F 66  64 6F 32 2A 03 09 A0 01  .......fdo2*....
0250: 01 52 1B 80 F0 FF FF 7F  F0 FF FF 7F 79 30 30 32  .R..........y002
0260: 46 00 45 15 80 F0 FF FF  7F F0 FF FF 7F 66 64 69  F.E..........fdi
0270: 32 0A 80 21 00                                    2..!.           
```

#### Opcodes

```
  0: 0x0136 [0x20] SET_CLI_EVENT_UC_FLAG: Lock player control
  1: 0x0138 [0x46] CAMERA_CONTROL: Disable user control
  2: 0x013A [0x42] SET_CLI_EVENT_CANCEL_DATA()
  3: 0x013B [0x45] LOAD_SCHEDULED_TASK: Load scheduler "fdo1" with entities [LocalPlayer, LocalPlayer], work=[200*, 0*]
  4: 0x014C [0x55] WAIT_LOAD_SCHEDULER: Wait for scheduler "fdo1" with entities [LocalPlayer, LocalPlayer], work=200*
  5: 0x015B [0x38] SET_CLIENT_EVENT_MODE(mode=3*)
  6: 0x015E [0x94] LocalPlayer->Render.Flags3 ^= 0x01
  7: 0x0164 [0x37] UPDATE_EVENT_POSITION_AND_DIR: x=109.492*, z=-85.361*, y=-40.015*, direction=3.3*
  8: 0x016D [0x97] SAVE_SET_WIND_VALUES(wind_base=0x800A, wind_width=0x801A)
  9: 0x0172 [0x45] LOAD_SCHEDULED_TASK: Load scheduler "y000" with entities [LocalPlayer, LocalPlayer], work=[84*, 0*]
 10: 0x0183 [0x45] LOAD_SCHEDULED_TASK: Load scheduler "fdi1" with entities [LocalPlayer, LocalPlayer], work=[200*, 0*]
 11: 0x0194 [0x1C] WAIT(10* ticks)
 12: 0x0197 [0x4A] Despachiaire (ID: 16883721/0x0101A009) looks at LocalPlayer
 13: 0x01A0 [0x55] WAIT_LOAD_SCHEDULER: Wait for scheduler "fdi1" with entities [LocalPlayer, LocalPlayer], work=200*
 14: 0x01AF [0x6F] WAIT_FRAME_DELAY: Yield until WaitTime reaches zero
 15: 0x01B0 [0x76] CHECK_ENTITY_RENDER_FLAGS: Wait until Despachiaire (ID: 16883721/0x0101A009) Render.Flags0 and Render.Flags3 conditions are met
 16: 0x01B5 [0x2B] Despachiaire (ID: 16883721/0x0101A009) [11819*]:
     "Ah, <Player>. <Player>... There was something I was supposed to tell you..."
 17: 0x01BC [0x1C] WAIT(15* ticks)
 18: 0x01BF [0x27] REQ_SET(priority=0x03, entity_id=Despachiaire (ID: 16883721/0x0101A009), tag_num=0x19)
 19: 0x01C6 [0x23] WAIT_FOR_DIALOG_INTERACTION
 20: 0x01C7 [0x55] WAIT_LOAD_SCHEDULER: Wait for scheduler "y000" with entities [LocalPlayer, LocalPlayer], work=84*
 21: 0x01D6 [0x45] LOAD_SCHEDULED_TASK: Load scheduler "y001" with entities [LocalPlayer, LocalPlayer], work=[84*, 0*]
 22: 0x01E7 [0x1C] WAIT(10* ticks)
 23: 0x01EA [0x29] REQ_SET_WAIT(priority=0x03, entity_id=Despachiaire (ID: 16883721/0x0101A009), tag_num=0x1B)
 24: 0x01F1 [0x2B] Despachiaire (ID: 16883721/0x0101A009) [11820*]:
     "Ah, yes! I have a letter for you."
 25: 0x01F8 [0x23] WAIT_FOR_DIALOG_INTERACTION
 26: 0x01F9 [0x55] WAIT_LOAD_SCHEDULER: Wait for scheduler "y001" with entities [LocalPlayer, LocalPlayer], work=84*
 27: 0x0208 [0x27] REQ_SET(priority=0x03, entity_id=Despachiaire (ID: 16883721/0x0101A009), tag_num=0x21)
 28: 0x020F [0x2B] Despachiaire (ID: 16883721/0x0101A009) [11821*]:
     "It is always nice to receive word from a loved one, is it not? Why, I remember when I used to have regular correspondence with a friend of mine in Selbina..."
 29: 0x0216 [0x1C] WAIT(20* ticks)
 30: 0x0219 [0x45] LOAD_SCHEDULED_TASK: Load scheduler "y002" with entities [LocalPlayer, LocalPlayer], work=[84*, 0*]
 31: 0x022A [0x23] WAIT_FOR_DIALOG_INTERACTION
 32: 0x022B [0x45] LOAD_SCHEDULED_TASK: Load scheduler "fdo2" with entities [LocalPlayer, LocalPlayer], work=[200*, 0*]
 33: 0x023C [0x55] WAIT_LOAD_SCHEDULER: Wait for scheduler "fdo2" with entities [LocalPlayer, LocalPlayer], work=200*
 34: 0x024B [0x2A] GET_REQ_LEVEL(level=3, entity_id=Despachiaire (ID: 16883721/0x0101A009))
 35: 0x0251 [0x52] END_LOAD_SCHEDULER: End scheduler "y002" with entities [LocalPlayer, LocalPlayer], work=84*
 36: 0x0260 [0x46] CAMERA_CONTROL: Restore default settings
 37: 0x0262 [0x45] LOAD_SCHEDULED_TASK: Load scheduler "fdi2" with entities [LocalPlayer, LocalPlayer], work=[200*, 0*]
 38: 0x0273 [0x21] END_EVENT
 39: 0x0274 [0x00] END_REQSTACK()
```

### Event 570

#### Metadata

| Field        | Value     |
|--------------|-----------|
| Entrypoint   | 0x0275    |
| Data Size    | 494 bytes |
| Instructions | 69        |

```
      00 01 02 03 04 05 06 07  08 09 0A 0B 0C 0D 0E 0F
      -- -- -- -- -- -- -- --  -- -- -- -- -- -- -- --
0270:                20 01 46  01 42 45 15 80 F0 FF FF        .F.BE.....
0280: 7F F0 FF FF 7F 66 64 6F  31 0A 80 55 15 80 F0 FF  .....fdo1..U....
0290: FF 7F F0 FF FF 7F 66 64  6F 31 38 16 80 94 01 F0  ......fdo18.....
02A0: FF FF 7F 37 22 80 23 80  24 80 25 80 97 0A 80 1A  ...7".#.$.%.....
02B0: 80 5C 00 26 80 5C 01 26  80 45 1B 80 F0 FF FF 7F  .\.&.\.&.E......
02C0: F0 FF FF 7F 7A 30 30 30  0A 80 45 15 80 F0 FF FF  ....z000..E.....
02D0: 7F F0 FF FF 7F 66 64 69  31 0A 80 55 15 80 F0 FF  .....fdi1..U....
02E0: FF 7F F0 FF FF 7F 66 64  69 31 2B 0A A0 01 01 27  ......fdi1+....'
02F0: 80 23 4A 0A A0 01 01 F0  FF FF 7F 6F 76 0A A0 01  .#J........ov...
0300: 01 1C 1C 80 52 1B 80 F0  FF FF 7F F0 FF FF 7F 7A  ....R..........z
0310: 30 30 30 45 1B 80 F0 FF  FF 7F F0 FF FF 7F 7A 30  000E..........z0
0320: 30 31 0A 80 27 03 0A A0  01 01 01 2B 0A A0 01 01  01..'......+....
0330: 28 80 23 1C 1E 80 27 03  0A A0 01 01 02 1C 29 80  (.#...'.......).
0340: 52 1B 80 F0 FF FF 7F F0  FF FF 7F 7A 30 30 31 2B  R..........z001+
0350: 0A A0 01 01 2A 80 23 27  03 0A A0 01 01 03 1C 1C  ....*.#'........
0360: 80 45 1B 80 F0 FF FF 7F  F0 FF FF 7F 7A 30 30 32  .E..........z002
0370: 0A 80 2B 0A A0 01 01 2B  80 23 2B 0A A0 01 01 2C  ..+....+.#+....,
0380: 80 23 27 03 0A A0 01 01  04 1C 1C 80 52 1B 80 F0  .#'.........R...
0390: FF FF 7F F0 FF FF 7F 7A  30 30 32 45 1B 80 F0 FF  .......z002E....
03A0: FF 7F F0 FF FF 7F 7A 30  30 33 0A 80 55 1B 80 F0  ......z003..U...
03B0: FF FF 7F F0 FF FF 7F 7A  30 30 33 2B 0A A0 01 01  .......z003+....
03C0: 2D 80 23 06 01 10 24 2E  80 1A 80 0A 80 25 45 1B  -.#...$......%E.
03D0: 80 F0 FF FF 7F F0 FF FF  7F 7A 30 30 34 0A 80 02  .........z004...
03E0: 00 10 0A 80 00 04 04 27  03 0A A0 01 01 05 2B 0A  .......'......+.
03F0: A0 01 01 2F 80 23 2A 03  0A A0 01 01 03 01 10 1A  .../.#*.........
0400: 80 01 17 04 02 00 10 1A  80 00 17 04 2B 0A A0 01  ............+...
0410: 01 30 80 23 01 17 04 45  15 80 F0 FF FF 7F F0 FF  .0.#...E........
0420: FF 7F 66 64 6F 32 0A 80  55 15 80 F0 FF FF 7F F0  ..fdo2..U.......
0430: FF FF 7F 66 64 6F 32 52  1B 80 F0 FF FF 7F F0 FF  ...fdo2R........
0440: FF 7F 7A 30 30 34 5C 00  31 80 5C 01 31 80 46 00  ..z004\.1.\.1.F.
0450: 45 15 80 F0 FF FF 7F F0  FF FF 7F 66 64 69 32 0A  E..........fdi2.
0460: 80 21 00                                          .!.             
```

#### Opcodes

```
  0: 0x0275 [0x20] SET_CLI_EVENT_UC_FLAG: Lock player control
  1: 0x0277 [0x46] CAMERA_CONTROL: Disable user control
  2: 0x0279 [0x42] SET_CLI_EVENT_CANCEL_DATA()
  3: 0x027A [0x45] LOAD_SCHEDULED_TASK: Load scheduler "fdo1" with entities [LocalPlayer, LocalPlayer], work=[200*, 0*]
  4: 0x028B [0x55] WAIT_LOAD_SCHEDULER: Wait for scheduler "fdo1" with entities [LocalPlayer, LocalPlayer], work=200*
  5: 0x029A [0x38] SET_CLIENT_EVENT_MODE(mode=3*)
  6: 0x029D [0x94] LocalPlayer->Render.Flags3 ^= 0x01
  7: 0x02A3 [0x37] UPDATE_EVENT_POSITION_AND_DIR: x=80.671*, z=71.915*, y=-33.999*, direction=147.8*
  8: 0x02AC [0x97] SAVE_SET_WIND_VALUES(wind_base=0x800A, wind_width=0x801A)
  9: 0x02B1 [0x5C] MUSIC_CONTROL: Set Idle (Day) music to song 163*
 10: 0x02B5 [0x5C] MUSIC_CONTROL: Set Idle (Night) music to song 163*
 11: 0x02B9 [0x45] LOAD_SCHEDULED_TASK: Load scheduler "z000" with entities [LocalPlayer, LocalPlayer], work=[84*, 0*]
 12: 0x02CA [0x45] LOAD_SCHEDULED_TASK: Load scheduler "fdi1" with entities [LocalPlayer, LocalPlayer], work=[200*, 0*]
 13: 0x02DB [0x55] WAIT_LOAD_SCHEDULER: Wait for scheduler "fdi1" with entities [LocalPlayer, LocalPlayer], work=200*
 14: 0x02EA [0x2B] Justinius (ID: 16883722/0x0101A00A) [11799*]:
     "What could those villains be up to...?"
 15: 0x02F1 [0x23] WAIT_FOR_DIALOG_INTERACTION
 16: 0x02F2 [0x4A] Justinius (ID: 16883722/0x0101A00A) looks at LocalPlayer
 17: 0x02FB [0x6F] WAIT_FRAME_DELAY: Yield until WaitTime reaches zero
 18: 0x02FC [0x76] CHECK_ENTITY_RENDER_FLAGS: Wait until Justinius (ID: 16883722/0x0101A00A) Render.Flags0 and Render.Flags3 conditions are met
 19: 0x0301 [0x1C] WAIT(10* ticks)
 20: 0x0304 [0x52] END_LOAD_SCHEDULER: End scheduler "z000" with entities [LocalPlayer, LocalPlayer], work=84*
 21: 0x0313 [0x45] LOAD_SCHEDULED_TASK: Load scheduler "z001" with entities [LocalPlayer, LocalPlayer], work=[84*, 0*]
 22: 0x0324 [0x27] REQ_SET(priority=0x03, entity_id=Justinius (ID: 16883722/0x0101A00A), tag_num=0x01)
 23: 0x032B [0x2B] Justinius (ID: 16883722/0x0101A00A) [11800*]:
     "Oh, it's you, <Player>. I was just recalling my investigation at Monarch Linn. Unknown attackers set upon me, though their garb did remind me of Nag'molada..."
 24: 0x0332 [0x23] WAIT_FOR_DIALOG_INTERACTION
 25: 0x0333 [0x1C] WAIT(15* ticks)
 26: 0x0336 [0x27] REQ_SET(priority=0x03, entity_id=Justinius (ID: 16883722/0x0101A00A), tag_num=0x02)
 27: 0x033D [0x1C] WAIT(5* ticks)
 28: 0x0340 [0x52] END_LOAD_SCHEDULER: End scheduler "z001" with entities [LocalPlayer, LocalPlayer], work=84*
 29: 0x034F [0x2B] Justinius (ID: 16883722/0x0101A00A) [11801*]:
     "What's this!? You have experienced a similar attack!? Those men refuse to listen to reason!"
 30: 0x0356 [0x23] WAIT_FOR_DIALOG_INTERACTION
 31: 0x0357 [0x27] REQ_SET(priority=0x03, entity_id=Justinius (ID: 16883722/0x0101A00A), tag_num=0x03)
 32: 0x035E [0x1C] WAIT(10* ticks)
 33: 0x0361 [0x45] LOAD_SCHEDULED_TASK: Load scheduler "z002" with entities [LocalPlayer, LocalPlayer], work=[84*, 0*]
 34: 0x0372 [0x2B] Justinius (ID: 16883722/0x0101A00A) [11802*]:
     "They seem to have an unusual interest in the area--always creeping about like faceless shadows, the cowls of their black robes hiding their features."
 35: 0x0379 [0x23] WAIT_FOR_DIALOG_INTERACTION
 36: 0x037A [0x2B] Justinius (ID: 16883722/0x0101A00A) [11803*]:
     "I spotted them during my patrol the other day, but they attacked me before I even had the chance to ask their business."
 37: 0x0381 [0x23] WAIT_FOR_DIALOG_INTERACTION
 38: 0x0382 [0x27] REQ_SET(priority=0x03, entity_id=Justinius (ID: 16883722/0x0101A00A), tag_num=0x04)
 39: 0x0389 [0x1C] WAIT(10* ticks)
 40: 0x038C [0x52] END_LOAD_SCHEDULER: End scheduler "z002" with entities [LocalPlayer, LocalPlayer], work=84*
 41: 0x039B [0x45] LOAD_SCHEDULED_TASK: Load scheduler "z003" with entities [LocalPlayer, LocalPlayer], work=[84*, 0*]
 42: 0x03AC [0x55] WAIT_LOAD_SCHEDULER: Wait for scheduler "z003" with entities [LocalPlayer, LocalPlayer], work=84*
 43: 0x03BB [0x2B] Justinius (ID: 16883722/0x0101A00A) [11804*]:
     "I was wondering what to do about them, but it seems the solution is standing right in front of me. I want you to keep those "men" away from Monarch Linn. They are obstructing my patrols."
 44: 0x03C2 [0x23] WAIT_FOR_DIALOG_INTERACTION
 45: 0x03C3 [0x06] Work_Zone[1] = 0
 46: 0x03C6 [0x24] CREATE_DIALOG(message_id=11805*, default_option=1*, option_flags=0*)
     "Take up this duty? [On my way./Not today.]"
 47: 0x03CD [0x25] WAIT_DIALOG_SELECT()
 48: 0x03CE [0x45] LOAD_SCHEDULED_TASK: Load scheduler "z004" with entities [LocalPlayer, LocalPlayer], work=[84*, 0*]
 49: 0x03DF [0x02] IF !(Work_Zone[0] == 0*) GOTO 0x0404
 50: 0x03E7 [0x27] REQ_SET(priority=0x03, entity_id=Justinius (ID: 16883722/0x0101A00A), tag_num=0x05)
 51: 0x03EE [0x2B] Justinius (ID: 16883722/0x0101A00A) [11806*]:
     "Excellent. Take this and make your way to Monarch Linn. You may have fought them before, but be careful. Who knows what tricks they have hiding up their sleeves?"
 52: 0x03F5 [0x23] WAIT_FOR_DIALOG_INTERACTION
 53: 0x03F6 [0x2A] GET_REQ_LEVEL(level=3, entity_id=Justinius (ID: 16883722/0x0101A00A))
 54: 0x03FC [0x03] Work_Zone[1] = 1*
 55: 0x0401 [0x01] GOTO 0x0417
 56: 0x0404 [0x02] IF !(Work_Zone[0] == 1*) GOTO 0x0417
 57: 0x040C [0x2B] Justinius (ID: 16883722/0x0101A00A) [11807*]:
     "Lost your will for battle, hm? There might be another way to deal with this, but let me know if you change your mind. It would make my job a lot easier."
 58: 0x0413 [0x23] WAIT_FOR_DIALOG_INTERACTION
 59: 0x0414 [0x01] GOTO 0x0417

SUBROUTINE_0417:
 60: 0x0417 [0x45] LOAD_SCHEDULED_TASK: Load scheduler "fdo2" with entities [LocalPlayer, LocalPlayer], work=[200*, 0*]
 61: 0x0428 [0x55] WAIT_LOAD_SCHEDULER: Wait for scheduler "fdo2" with entities [LocalPlayer, LocalPlayer], work=200*
 62: 0x0437 [0x52] END_LOAD_SCHEDULER: End scheduler "z004" with entities [LocalPlayer, LocalPlayer], work=84*
 63: 0x0446 [0x5C] MUSIC_CONTROL: Set Idle (Day) music to song 245*
 64: 0x044A [0x5C] MUSIC_CONTROL: Set Idle (Night) music to song 245*
 65: 0x044E [0x46] CAMERA_CONTROL: Restore default settings
 66: 0x0450 [0x45] LOAD_SCHEDULED_TASK: Load scheduler "fdi2" with entities [LocalPlayer, LocalPlayer], work=[200*, 0*]
 67: 0x0461 [0x21] END_EVENT
 68: 0x0462 [0x00] END_REQSTACK()
```

### Event 200

#### Metadata

| Field        | Value      |
|--------------|------------|
| Entrypoint   | 0x0463     |
| Data Size    | 1012 bytes |
| Instructions | 135        |

```
      00 01 02 03 04 05 06 07  08 09 0A 0B 0C 0D 0E 0F
      -- -- -- -- -- -- -- --  -- -- -- -- -- -- -- --
0460:          42 1A 64 12 46  01 92 01 44 A0 01 01 92     B.d.F...D....
0470: 01 43 A0 01 01 38 16 80  37 32 80 33 80 34 80 35  .C...8..72.3.4.5
0480: 80 45 36 80 F0 FF FF 7F  F0 FF FF 7F 73 30 30 30  .E6.........s000
0490: 0A 80 1A D9 12 5B 37 80  44 A0 01 01 44 A0 01 01  .....[7.D...D...
04A0: 74 68 6B 31 2B 44 A0 01  01 38 80 23 1C 39 80 4A  thk1+D...8.#.9.J
04B0: 44 A0 01 01 F0 FF FF 7F  5B 37 80 44 A0 01 01 44  D.......[7.D...D
04C0: A0 01 01 74 68 6B 32 2B  44 A0 01 01 3A 80 23 45  ...thk2+D...:.#E
04D0: 15 80 F8 FF FF 7F F8 FF  FF 7F 6F 76 6C 31 0A 80  ..........ovl1..
04E0: 52 36 80 F0 FF FF 7F F0  FF FF 7F 73 30 30 30 45  R6.........s000E
04F0: 36 80 F0 FF FF 7F F0 FF  FF 7F 73 30 30 31 0A 80  6.........s001..
0500: 1C 3B 80 5B 37 80 44 A0  01 01 44 A0 01 01 74 6C  .;.[7.D...D...tl
0510: 61 30 2B 44 A0 01 01 3C  80 23 1C 3B 80 5B 37 80  a0+D...<.#.;.[7.
0520: 44 A0 01 01 44 A0 01 01  74 6C 63 30 79 00 44 A0  D...D...tlc0y.D.
0530: 01 01 F0 FF FF 7F 2B 44  A0 01 01 3D 80 23 1C 21  ......+D...=.#.!
0540: 80 27 0F 43 A0 01 01 02  2A 0F 43 A0 01 01 52 36  .'.C....*.C...R6
0550: 80 F0 FF FF 7F F0 FF FF  7F 73 30 30 31 45 36 80  .........s001E6.
