# Event 142

## Metadata

| Field           | Value    |
|-----------------|----------|
| Event Index     | 3/5      |
| Offset          | 0x0837   |
| Data Size       | 72 bytes |
| Calculated Size | 72 bytes |
| Instructions    | 13       |

```
      00 01 02 03 04 05 06 07  08 09 0A 0B 0C 0D 0E 0F
      -- -- -- -- -- -- -- --  -- -- -- -- -- -- -- --
0830:                      42  03 01 10 02 10 4A F0 FF         B.....J..
0840: FF 7F F8 FF FF 7F CD 02  80 F8 FF FF 7F F8 FF FF  ................
0850: 7F 73 30 30 30 00 80 1C  03 80 CD 02 80 F8 FF FF  .s000...........
0860: 7F F0 FF FF 7F 6D 61 69  6E 00 80 1C 32 80 92 01  .....main...2...
0870: F0 FF FF 7F 1C 01 80 1A  E3 08 1C 01 80 21 00     .............!. 
```

## Opcodes

```
  0: 0x0837 [0x42] SET_CLI_EVENT_CANCEL_DATA()
  1: 0x0838 [0x03] Work_Zone[1] = Work_Zone[2]
  2: 0x083D [0x4A] LocalPlayer looks at EventEntity
  3: 0x0846 [0xCD] LOAD_SCHEDULED_TASK_ALT4(work_offset=140*, entity1=EventEntity, entity2=EventEntity, action="s000", work_offset2=0*)
  4: 0x0857 [0x1C] WAIT(110* ticks)
  5: 0x085A [0xCD] LOAD_SCHEDULED_TASK_ALT4(work_offset=140*, entity1=EventEntity, entity2=LocalPlayer, action="main", work_offset2=0*)
  6: 0x086B [0x1C] WAIT(90* ticks)
  7: 0x086E [0x92] LocalPlayer->Render.Flags3 ^= 0x01
  8: 0x0874 [0x1C] WAIT(30* ticks)
  9: 0x0877 [0x1A] CALL_SUBROUTINE(address=0x08E3)
 10: 0x087A [0x1C] WAIT(30* ticks)
 11: 0x087D [0x21] END_EVENT
 12: 0x087E [0x00] END_REQSTACK()
```
