# Event 65535

## Metadata

| Field           | Value    |
|-----------------|----------|
| Event Index     | 86/88    |
| Offset          | 0x0527   |
| Data Size       | 22 bytes |
| Calculated Size | 22 bytes |
| Instructions    | 8        |

```
      00 01 02 03 04 05 06 07  08 09 0A 0B 0C 0D 0E 0F
      -- -- -- -- -- -- -- --  -- -- -- -- -- -- -- --
0520:                      32  0E 80 1F 00 18 80 19 80         2........
0530: 1A 80 1F 01 6F 1E EA C1  0C 01 6F 70 00           ....o.....op.   
```

## Opcodes

```
  0: 0x0527 [0x32] ExtData[1]->MainSpeed = 40* * 0.1
  1: 0x052A [0x1F] MOVE_ENTITY: EventEntity moves to X=10.769*, Z=130.583*, Y=0.020*
  2: 0x0532 [0x1F] MOVE_ENTITY: Update entity position (mode=1)
  3: 0x0534 [0x6F] WAIT_FRAME_DELAY: Yield until WaitTime reaches zero
  4: 0x0535 [0x1E] EventEntity looks at Altennia (ID: 17613290/0x010CC1EA) and starts talking
  5: 0x053A [0x6F] WAIT_FRAME_DELAY: Yield until WaitTime reaches zero
  6: 0x053B [0x70] WAIT_ENTITY_RENDER_FLAG: Wait while EventEntity->Render.Flags3 bit 2 is set (cancel turn if not)
  7: 0x053C [0x00] END_REQSTACK()
```
