# Event 65535

## Metadata

| Field           | Value    |
|-----------------|----------|
| Event Index     | 13/13    |
| Offset          | 0x00EA   |
| Data Size       | 70 bytes |
| Calculated Size | 70 bytes |
| Instructions    | 8        |

```
      00 01 02 03 04 05 06 07  08 09 0A 0B 0C 0D 0E 0F
      -- -- -- -- -- -- -- --  -- -- -- -- -- -- -- --
00E0:                                66 28 80 F8 FF FF            f(....
00F0: 7F F8 FF FF 7F 6B 75 64  30 1C 1C 80 5B 29 80 A0  .....kud0...[)..
0100: A0 0E 01 A0 A0 0E 01 74  6C 62 30 1C 1C 80 5B 28  .......tlb0...[(
0110: 80 6B A0 0E 01 6B A0 0E  01 69 6B 61 30 1C 1C 80  .k...k...ika0...
0120: 66 2A 80 36 A0 0E 01 36  A0 0E 01 6E 74 6C 30 00  f*.6...6...ntl0.
```

## Opcodes

```
  0: 0x00EA [0x66] LOAD_EXT_SCHEDULER_MAIN: Load scheduler "kud0" with entities [EventEntity, EventEntity], work=60*
  1: 0x00F9 [0x1C] WAIT(15* ticks)
  2: 0x00FC [0x5B] LOAD_EXT_SCHEDULER: Load scheduler "tlb0" with entities [Brutus (ID: 17735840/0x010EA0A0), Brutus (ID: 17735840/0x010EA0A0)], work=90*
  3: 0x010B [0x1C] WAIT(15* ticks)
  4: 0x010E [0x5B] LOAD_EXT_SCHEDULER: Load scheduler "ika0" with entities [Phara (ID: 17735787/0x010EA06B), Phara (ID: 17735787/0x010EA06B)], work=60*
  5: 0x011D [0x1C] WAIT(15* ticks)
  6: 0x0120 [0x66] LOAD_EXT_SCHEDULER_MAIN: Load scheduler "ntl0" with entities [Leonie (ID: 17735734/0x010EA036), Leonie (ID: 17735734/0x010EA036)], work=11*
  7: 0x012F [0x00] END_REQSTACK()
```
