# Event 65535

## Metadata

| Field           | Value    |
|-----------------|----------|
| Event Index     | 66/94    |
| Offset          | 0x03B6   |
| Data Size       | 68 bytes |
| Calculated Size | 68 bytes |
| Instructions    | 14       |

```
      00 01 02 03 04 05 06 07  08 09 0A 0B 0C 0D 0E 0F
      -- -- -- -- -- -- -- --  -- -- -- -- -- -- -- --
03B0:                   BA F8  FF FF 7F 7F 80 80 80 81        ..........
03C0: 80 82 80 1C 7E 80 1F 00  83 80 84 80 85 80 1F 01  ....~...........
03D0: 1F 00 86 80 87 80 88 80  1F 01 1F 00 89 80 8A 80  ................
03E0: 8B 80 1F 01 1F 00 8C 80  8D 80 8E 80 1F 01 1F 00  ................
03F0: 8F 80 90 80 91 80 1F 01  6F 00                    ........o.      
```

## Opcodes

```
  0: 0x03B6 [0xBA] SET_ENTITY_POSITION(entity_id=EventEntity, pos_x=21.289*, pos_z=-20.904*, pos_y=-21.249*, direction=302.7°*)
  1: 0x03C3 [0x1C] WAIT(5* ticks)
  2: 0x03C6 [0x1F] MOVE_ENTITY: EventEntity moves to X=25.538*, Z=-15.510*, Y=-22.749*
  3: 0x03CE [0x1F] MOVE_ENTITY: Update entity position (mode=1)
  4: 0x03D0 [0x1F] MOVE_ENTITY: EventEntity moves to X=27.511*, Z=-11.238*, Y=-23.749*
  5: 0x03D8 [0x1F] MOVE_ENTITY: Update entity position (mode=1)
  6: 0x03DA [0x1F] MOVE_ENTITY: EventEntity moves to X=28.920*, Z=-6.675*, Y=-24.749*
  7: 0x03E2 [0x1F] MOVE_ENTITY: Update entity position (mode=1)
  8: 0x03E4 [0x1F] MOVE_ENTITY: EventEntity moves to X=29.691*, Z=-2.133*, Y=-25.749*
  9: 0x03EC [0x1F] MOVE_ENTITY: Update entity position (mode=1)
 10: 0x03EE [0x1F] MOVE_ENTITY: EventEntity moves to X=29.695*, Z=1.206*, Y=-25.999*
 11: 0x03F6 [0x1F] MOVE_ENTITY: Update entity position (mode=1)
 12: 0x03F8 [0x6F] WAIT_FRAME_DELAY: Yield until WaitTime reaches zero
 13: 0x03F9 [0x00] END_REQSTACK()
```
