# Event 65535

## Metadata

| Field           | Value    |
|-----------------|----------|
| Event Index     | 72/94    |
| Offset          | 0x0430   |
| Data Size       | 42 bytes |
| Calculated Size | 42 bytes |
| Instructions    | 7        |

```
      00 01 02 03 04 05 06 07  08 09 0A 0B 0C 0D 0E 0F
      -- -- -- -- -- -- -- --  -- -- -- -- -- -- -- --
0430: 59 04 F8 FF FF 7F 9B 80  53 36 E2 05 01 36 E2 05  Y.......S6...6..
0440: 01 74 68 61 31 1F 00 9C  80 9D 80 9E 80 1F 01 6F  .tha1..........o
0450: 4A 36 E2 05 01 F0 FF FF  7F 00                    J6........      
```

## Opcodes

```
  0: 0x0430 [0x59] UPDATE_ENTITY_DATA: Set EventEntity main speed = 10* * 0.1
  1: 0x0438 [0x53] WAIT_SCHEDULER_TASK(entity1=Lehko Habhoka (ID: 17162806/0x0105E236), entity2=Lehko Habhoka (ID: 17162806/0x0105E236), action_id="tha1")
  2: 0x0445 [0x1F] MOVE_ENTITY: EventEntity moves to X=18.037*, Z=13.877*, Y=-26.250*
  3: 0x044D [0x1F] MOVE_ENTITY: Update entity position (mode=1)
  4: 0x044F [0x6F] WAIT_FRAME_DELAY: Yield until WaitTime reaches zero
  5: 0x0450 [0x4A] Lehko Habhoka (ID: 17162806/0x0105E236) looks at LocalPlayer
  6: 0x0459 [0x00] END_REQSTACK()
```
