# Event 65535

## Metadata

| Field           | Value    |
|-----------------|----------|
| Event Index     | 74/94    |
| Offset          | 0x047E   |
| Data Size       | 67 bytes |
| Calculated Size | 67 bytes |
| Instructions    | 7        |

```
      00 01 02 03 04 05 06 07  08 09 0A 0B 0C 0D 0E 0F
      -- -- -- -- -- -- -- --  -- -- -- -- -- -- -- --
0470:                                            5B 63                [c
0480: 80 36 E2 05 01 36 E2 05  01 74 6C 62 30 1C 64 80  .6...6...tlb0.d.
0490: 5B 63 80 36 E2 05 01 36  E2 05 01 74 6C 62 31 5B  [c.6...6...tlb1[
04A0: A2 80 36 E2 05 01 36 E2  05 01 66 63 30 31 1C 93  ..6...6...fc01..
04B0: 80 5B A2 80 36 E2 05 01  36 E2 05 01 66 63 30 30  .[..6...6...fc00
04C0: 00                                                .               
```

## Opcodes

```
  0: 0x047E [0x5B] LOAD_EXT_SCHEDULER: Load scheduler "tlb0" with entities [Lehko Habhoka (ID: 17162806/0x0105E236), Lehko Habhoka (ID: 17162806/0x0105E236)], work=1443*
  1: 0x048D [0x1C] WAIT(120* ticks)
  2: 0x0490 [0x5B] LOAD_EXT_SCHEDULER: Load scheduler "tlb1" with entities [Lehko Habhoka (ID: 17162806/0x0105E236), Lehko Habhoka (ID: 17162806/0x0105E236)], work=1443*
  3: 0x049F [0x5B] LOAD_EXT_SCHEDULER: Load scheduler "fc01" with entities [Lehko Habhoka (ID: 17162806/0x0105E236), Lehko Habhoka (ID: 17162806/0x0105E236)], work=1442*
  4: 0x04AE [0x1C] WAIT(180* ticks)
  5: 0x04B1 [0x5B] LOAD_EXT_SCHEDULER: Load scheduler "fc00" with entities [Lehko Habhoka (ID: 17162806/0x0105E236), Lehko Habhoka (ID: 17162806/0x0105E236)], work=1442*
  6: 0x04C0 [0x00] END_REQSTACK()
```
