# Event 65535

## Metadata

| Field           | Value    |
|-----------------|----------|
| Event Index     | 14/42    |
| Offset          | 0x00AC   |
| Data Size       | 30 bytes |
| Calculated Size | 30 bytes |
| Instructions    | 8        |

```
      00 01 02 03 04 05 06 07  08 09 0A 0B 0C 0D 0E 0F
      -- -- -- -- -- -- -- --  -- -- -- -- -- -- -- --
00A0:                                      29 08 5B 00              ).[.
00B0: 0F 01 01 1D 0D 80 23 1D  0E 80 23 29 08 5B 00 0F  ......#...#).[..
00C0: 01 03 29 08 5B 00 0F 01  04 00                    ..).[.....      
```

## Opcodes

```
  0: 0x00AC [0x29] REQ_SET_WAIT(priority=0x08, entity_id=Joker (ID: 17760347/0x010F005B), tag_num=0x01)
  1: 0x00B3 [0x1D] PRINT_EVENT_MESSAGE(message_id=4046*)
    → "jOkEr\u0001\u001AIs nOt A ghOst!\u007F1\u0000\u0007"
  2: 0x00B6 [0x23] WAIT_FOR_DIALOG_INTERACTION
  3: 0x00B7 [0x1D] PRINT_EVENT_MESSAGE(message_id=4047*)
    → "JoKeR iS a\u0001\u001ACaRdIaN!\u007F1\u0000\u0007"
  4: 0x00BA [0x23] WAIT_FOR_DIALOG_INTERACTION
  5: 0x00BB [0x29] REQ_SET_WAIT(priority=0x08, entity_id=Joker (ID: 17760347/0x010F005B), tag_num=0x03)
  6: 0x00C2 [0x29] REQ_SET_WAIT(priority=0x08, entity_id=Joker (ID: 17760347/0x010F005B), tag_num=0x04)
  7: 0x00C9 [0x00] END_REQSTACK()
```
