# Event 65535

## Metadata

| Field           | Value    |
|-----------------|----------|
| Event Index     | 10/10    |
| Offset          | 0x00D9   |
| Data Size       | 97 bytes |
| Calculated Size | 97 bytes |
| Instructions    | 3        |

```
      00 01 02 03 04 05 06 07  08 09 0A 0B 0C 0D 0E 0F
      -- -- -- -- -- -- -- --  -- -- -- -- -- -- -- --
00D0:                             66 0A 80 F8 FF FF 7F           f......
00E0: F8 FF FF 7F 74 68 6B 32  53 F8 FF FF 7F F8 FF FF  ....thk2S.......
00F0: 7F 74 68 6B 32 00 3B F8  FF FF 7F 01 00 02 00 03  .thk2.;.........
0100: 00 3A F8 FF FF 7F 04 00  17 05 00 04 00 00 00 16  .:..............
0110: 06 00 04 00 00 00 07 01  00 05 00 07 02 00 06 00  ................
0120: 1B 17 05 00 04 00 00 00  16 06 00 04 00 00 00 07  ................
0130: 01 00 05 00 07 02 00 06  00 1B                    ..........      
```

## Opcodes

```
  0: 0x00D9 [0x66] LOAD_EXT_SCHEDULER_MAIN: Load scheduler "thk2" with entities [EventEntity, EventEntity], work=29*
  1: 0x00E8 [0x53] WAIT_SCHEDULER_TASK: Wait for scheduler "thk2" with entities [EventEntity, EventEntity]
  2: 0x00F5 [0x00] END_REQSTACK()
```

## Data or dead code:

```
# Dead code (unreachable instructions):
     0x00F6 [0x3B] GET_ENTITY_POSITION(entity=EventEntity, x_destination=ExtData[1]->WorkLocal[1], y_destination=ExtData[1]->WorkLocal[2], z_destination=ExtData[1]->WorkLocal[3])
     0x0101 [0x3A] CONVERT_YAW_TO_BYTE(entity=EventEntity, result_destination=ExtData[1]->WorkLocal[4])
     0x0108 [0x17] ExtData[1]->WorkLocal[5] = cos(ExtData[1]->WorkLocal[4]) * ExtData[1]->WorkLocal[0]
     0x010F [0x16] ExtData[1]->WorkLocal[6] = sin(ExtData[1]->WorkLocal[4]) * ExtData[1]->WorkLocal[0]
     0x0116 [0x07] ExtData[1]->WorkLocal[1] += ExtData[1]->WorkLocal[5]
     0x011B [0x07] ExtData[1]->WorkLocal[2] += ExtData[1]->WorkLocal[6]
     0x0120 [0x1B] RETURN
     0x0121 [0x17] ExtData[1]->WorkLocal[5] = cos(ExtData[1]->WorkLocal[4]) * ExtData[1]->WorkLocal[0]
     0x0128 [0x16] ExtData[1]->WorkLocal[6] = sin(ExtData[1]->WorkLocal[4]) * ExtData[1]->WorkLocal[0]
     0x012F [0x07] ExtData[1]->WorkLocal[1] += ExtData[1]->WorkLocal[5]
     0x0134 [0x07] ExtData[1]->WorkLocal[2] += ExtData[1]->WorkLocal[6]
     0x0139 [0x1B] RETURN
```