# Event 65535

## Metadata

| Field           | Value    |
|-----------------|----------|
| Event Index     | 10/10    |
| Offset          | 0x00D9   |
| Data Size       | 97 bytes |
| Calculated Size | 97 bytes |
| Instructions    | 4        |

```
      00 01 02 03 04 05 06 07  08 09 0A 0B 0C 0D 0E 0F
      -- -- -- -- -- -- -- --  -- -- -- -- -- -- -- --
00D0:                             66 0A 80 F8 FF FF 7F           f......
00E0: F8 FF FF 7F 74 68 6B 32  53 F8 FF FF 7F F8 FF FF  ....thk2S.......
00F0: 7F 74 68 6B 32 00 3B F8  FF FF 7F 01 00 02 00 03  .thk2.;.........
0100: 00 3A F8 FF FF 7F 04 00  17 05 00 04 00 00 00 16  .:..............
0110: 06 00 04 00 00 00 07 01  00 05 00 07 02 00 06 00  ................
0120: 1B 17 05 00 04 00 00 00  16 06 00 04 00 00 00 07  ................
0130: 01 00 05 00 07 02 00 06  00 1B                    ..........      
```

## Opcodes

```
  0: 0x00D9 [0x66] LOAD_EXT_SCHEDULER_MAIN: Load scheduler "thk2" with entities [EventEntity, EventEntity], work=29*
  1: 0x00E8 [0x53] WAIT_SCHEDULER_TASK: Wait for scheduler "thk2" with entities [EventEntity, EventEntity]
  2: 0x00F5 [0x00] END_REQSTACK()
```

## Data or dead code:

```
# Data Section: 0x00F6 (68 bytes)
     0x00F6: 3B F8 FF FF 7F 01 00 02 00 03 00 3A F8 FF FF 7F
     0x0106: 04 00 17 05 00 04 00 00 00 16 06 00 04 00 00 00
     0x0116: 07 01 00 05 00 07 02 00 06 00 1B 17 05 00 04 00
     0x0126: 00 00 16 06 00 04 00 00 00 07 01 00 05 00 07 02
     0x0136: 00 06 00 1B
```