# Event 65535

## Metadata

| Field           | Value    |
|-----------------|----------|
| Event Index     | 24/59    |
| Offset          | 0x0254   |
| Data Size       | 35 bytes |
| Calculated Size | 35 bytes |
| Instructions    | 8        |

```
      00 01 02 03 04 05 06 07  08 09 0A 0B 0C 0D 0E 0F
      -- -- -- -- -- -- -- --  -- -- -- -- -- -- -- --
0250:             4A F8 FF FF  7F EC 02 05 01 6F 76 F8      J........ov.
0260: FF FF 7F 59 04 F8 FF FF  7F 03 80 1F 00 39 80 3A  ...Y.........9.:
0270: 80 00 80 1F 01 6F 00                              .....o.         
```

## Opcodes

```
  0: 0x0254 [0x4A] EventEntity looks at Tanja (ID: 17105644/0x010502EC)
  1: 0x025D [0x6F] WAIT_FRAME_DELAY: Yield until WaitTime reaches zero
  2: 0x025E [0x76] CHECK_ENTITY_RENDER_FLAGS: Wait until EventEntity Render.Flags0 and Render.Flags3 conditions are met
  3: 0x0263 [0x59] UPDATE_ENTITY_DATA: Set EventEntity main speed = 13* * 0.1
  4: 0x026B [0x1F] MOVE_ENTITY: EventEntity moves to X=88.636*, Z=112.696*, Y=0.000*
  5: 0x0273 [0x1F] MOVE_ENTITY: Update entity position (mode=1)
  6: 0x0275 [0x6F] WAIT_FRAME_DELAY: Yield until WaitTime reaches zero
  7: 0x0276 [0x00] END_REQSTACK()
```
