# Event 65535

## Metadata

| Field           | Value    |
|-----------------|----------|
| Event Index     | 4/5      |
| Offset          | 0x0019   |
| Data Size       | 52 bytes |
| Calculated Size | 52 bytes |
| Instructions    | 6        |

```
      00 01 02 03 04 05 06 07  08 09 0A 0B 0C 0D 0E 0F
      -- -- -- -- -- -- -- --  -- -- -- -- -- -- -- --
0010:                             48 04 80 66 05 80 4F           H..f..O
0020: 50 03 01 4F 50 03 01 64  61 69 30 9F 06 80 4F 50  P..OP..dai0...OP
0030: 03 01 4F 50 03 01 6D 61  69 6E 03 80 53 4F 50 03  ..OP..main..SOP.
0040: 01 4F 50 03 01 64 61 69  30 48 07 80 00           .OP..dai0H...   
```

## Opcodes

```
  0: 0x0019 [0x48] [System] [10650*]:
    → "\u001FPYadhiwa readies Dice Roll.\u0000\u0007"
  1: 0x001C [0x66] LOAD_EXT_SCHEDULER_MAIN(work_offset=31*, entity1=Yadhiwa (ID: 16994383/0x0103504F), entity2=Yadhiwa (ID: 16994383/0x0103504F), action="dai0")
  2: 0x002B [0x9F] LOAD_SCHEDULED_TASK_ALT: Load scheduler "main" with entities [Yadhiwa (ID: 16994383/0x0103504F), Yadhiwa (ID: 16994383/0x0103504F)], work=[228*, 0*]
  3: 0x003C [0x53] WAIT_SCHEDULER_TASK(entity1=Yadhiwa (ID: 16994383/0x0103504F), entity2=Yadhiwa (ID: 16994383/0x0103504F), action_id="dai0")
  4: 0x0049 [0x48] [System] [10651*]:
    → "\u001FyYadhiwa rolls a 999!\u0000\u0007"
  5: 0x004C [0x00] END_REQSTACK()
```
