# Event 316

## Metadata

| Field           | Value    |
|-----------------|----------|
| Event Index     | 7/7      |
| Offset          | 0x017D   |
| Data Size       | 47 bytes |
| Calculated Size | 47 bytes |
| Instructions    | 11       |

```
      00 01 02 03 04 05 06 07  08 09 0A 0B 0C 0D 0E 0F
      -- -- -- -- -- -- -- --  -- -- -- -- -- -- -- --
0170:                                         1E F0 FF               ...
0180: FF 7F 6F 70 66 03 80 F8  FF FF 7F F8 FF FF 7F 74  ..opf..........t
0190: 6C 6B 30 1D 17 80 23 1D  18 80 23 66 03 80 F8 FF  lk0...#...#f....
01A0: FF 7F F8 FF FF 7F 74 6C  6B 31 21 00              ......tlk1!.    
```

## Opcodes

```
  0: 0x017D [0x1E] EventEntity looks at LocalPlayer and starts talking
  1: 0x0182 [0x6F] WAIT_FRAME_DELAY: Yield until WaitTime reaches zero
  2: 0x0183 [0x70] WAIT_ENTITY_RENDER_FLAG: Wait while EventEntity->Render.Flags3 bit 2 is set (cancel turn if not)
  3: 0x0184 [0x66] LOAD_EXT_SCHEDULER_MAIN(work_offset=39*, entity1=EventEntity, entity2=EventEntity, action="tlk0")
  4: 0x0193 [0x1D] PRINT_EVENT_MESSAGE(message_id=8070*)
    → "Hail again, friend.\u0007I'm not quite sure how to say this, but it would seem my hapless scouts have once more gone astray.\u007F1\u0000\u0007"
  5: 0x0196 [0x23] WAIT_FOR_DIALOG_INTERACTION
  6: 0x0197 [0x1D] PRINT_EVENT_MESSAGE(message_id=8071*)
    → "Loath as I am to burden you yet again, I would be greatly in your debt if you could track them down and deliver these supplies.\u0007If not for me, then for the welfare of all the survivors!\u007F1\u0000\u0007"
  7: 0x019A [0x23] WAIT_FOR_DIALOG_INTERACTION
  8: 0x019B [0x66] LOAD_EXT_SCHEDULER_MAIN(work_offset=39*, entity1=EventEntity, entity2=EventEntity, action="tlk1")
  9: 0x01AA [0x21] END_EVENT
 10: 0x01AB [0x00] END_REQSTACK()
```
