# Event 65535

## Metadata

| Field           | Value    |
|-----------------|----------|
| Event Index     | 5/5      |
| Offset          | 0x0056   |
| Data Size       | 56 bytes |
| Calculated Size | 56 bytes |
| Instructions    | 14       |

```
      00 01 02 03 04 05 06 07  08 09 0A 0B 0C 0D 0E 0F
      -- -- -- -- -- -- -- --  -- -- -- -- -- -- -- --
0050:                   02 53  10 00 80 00 64 00 32 01        .S....d.2.
0060: 80 01 67 00 32 02 80 1F  00 0D 80 0E 80 08 80 1F  ..g.2...........
0070: 01 6F 02 53 10 00 80 00  80 00 1C 09 80 01 83 00  .o.S............
0080: 1C 0A 80 1F 00 0B 80 0C  80 08 80 1F 01 00        ..............  
```

## Opcodes

```
  0: 0x0056 [0x02] IF !(Work_Zone[83] == 0*) GOTO 0x0064
  1: 0x005E [0x32] ExtData[1]->MainSpeed = 13* * 0.1
  2: 0x0061 [0x01] GOTO 0x0067
  3: 0x0064 [0x32] ExtData[1]->MainSpeed = 40* * 0.1

SUBROUTINE_0067:
  4: 0x0067 [0x1F] MOVE_ENTITY: EventEntity moves to X=-147.522*, Z=11.471*, Y=-8.800*
  5: 0x006F [0x1F] MOVE_ENTITY: Update entity position (mode=1)
  6: 0x0071 [0x6F] WAIT_FRAME_DELAY: Yield until WaitTime reaches zero
  7: 0x0072 [0x02] IF !(Work_Zone[83] == 0*) GOTO 0x0080
  8: 0x007A [0x1C] WAIT(60* ticks)
  9: 0x007D [0x01] GOTO 0x0083
 10: 0x0080 [0x1C] WAIT(30* ticks)

SUBROUTINE_0083:
 11: 0x0083 [0x1F] MOVE_ENTITY: EventEntity moves to X=-146.777*, Z=11.345*, Y=-8.800*
 12: 0x008B [0x1F] MOVE_ENTITY: Update entity position (mode=1)
 13: 0x008D [0x00] END_REQSTACK()
```
