# Event 65535

## Metadata

| Field           | Value    |
|-----------------|----------|
| Event Index     | 4/5      |
| Offset          | 0x001E   |
| Data Size       | 56 bytes |
| Calculated Size | 56 bytes |
| Instructions    | 14       |

```
      00 01 02 03 04 05 06 07  08 09 0A 0B 0C 0D 0E 0F
      -- -- -- -- -- -- -- --  -- -- -- -- -- -- -- --
0010:                                            02 53                .S
0020: 10 00 80 00 2C 00 32 01  80 01 2F 00 32 02 80 1F  ....,.2.../.2...
0030: 00 06 80 07 80 08 80 1F  01 6F 02 53 10 00 80 00  .........o.S....
0040: 48 00 1C 09 80 01 4B 00  1C 0A 80 1F 00 0B 80 0C  H.....K.........
0050: 80 08 80 1F 01 00                                 ......          
```

## Opcodes

```
  0: 0x001E [0x02] IF !(Work_Zone[83] == 0*) GOTO 0x002C
  1: 0x0026 [0x32] ExtData[1]->MainSpeed = 13* * 0.1
  2: 0x0029 [0x01] GOTO 0x002F
  3: 0x002C [0x32] ExtData[1]->MainSpeed = 40* * 0.1

SUBROUTINE_002F:
  4: 0x002F [0x1F] MOVE_ENTITY: EventEntity moves to X=-145.938*, Z=11.255*, Y=-8.800*
  5: 0x0037 [0x1F] MOVE_ENTITY: Update entity position (mode=1)
  6: 0x0039 [0x6F] WAIT_FRAME_DELAY: Yield until WaitTime reaches zero
  7: 0x003A [0x02] IF !(Work_Zone[83] == 0*) GOTO 0x0048
  8: 0x0042 [0x1C] WAIT(60* ticks)
  9: 0x0045 [0x01] GOTO 0x004B
 10: 0x0048 [0x1C] WAIT(30* ticks)

SUBROUTINE_004B:
 11: 0x004B [0x1F] MOVE_ENTITY: EventEntity moves to X=-146.777*, Z=11.345*, Y=-8.800*
 12: 0x0053 [0x1F] MOVE_ENTITY: Update entity position (mode=1)
 13: 0x0055 [0x00] END_REQSTACK()
```
