# Event 65535

## Metadata

| Field           | Value    |
|-----------------|----------|
| Event Index     | 29/33    |
| Offset          | 0x0149   |
| Data Size       | 42 bytes |
| Calculated Size | 42 bytes |
| Instructions    | 8        |

```
      00 01 02 03 04 05 06 07  08 09 0A 0B 0C 0D 0E 0F
      -- -- -- -- -- -- -- --  -- -- -- -- -- -- -- --
0140:                             1F 00 2B 80 2C 80 2D           ..+.,.-
0150: 80 1F 01 6F 4A 2A E2 05  01 36 E2 05 01 6F 76 2A  ...oJ*...6...ov*
0160: E2 05 01 5B 2E 80 2A E2  05 01 2A E2 05 01 69 72  ...[..*...*...ir
0170: 6F 30 00                                          o0.             
```

## Opcodes

```
  0: 0x0149 [0x1F] MOVE_ENTITY: EventEntity moves to X=-41.285*, Z=213.805*, Y=-5.000*
  1: 0x0151 [0x1F] MOVE_ENTITY: Update entity position (mode=1)
  2: 0x0153 [0x6F] WAIT_FRAME_DELAY: Yield until WaitTime reaches zero
  3: 0x0154 [0x4A] Tihl Midurhi (ID: 17162794/0x0105E22A) looks at Lehko Habhoka (ID: 17162806/0x0105E236)
  4: 0x015D [0x6F] WAIT_FRAME_DELAY: Yield until WaitTime reaches zero
  5: 0x015E [0x76] CHECK_ENTITY_RENDER_FLAGS: Wait until Tihl Midurhi (ID: 17162794/0x0105E22A) Render.Flags0 and Render.Flags3 conditions are met
  6: 0x0163 [0x5B] LOAD_EXT_SCHEDULER: Load scheduler "iro0" with entities [Tihl Midurhi (ID: 17162794/0x0105E22A), Tihl Midurhi (ID: 17162794/0x0105E22A)], work=1328*
  7: 0x0172 [0x00] END_REQSTACK()
```
