# Event 65535

## Metadata

| Field           | Value    |
|-----------------|----------|
| Event Index     | 3/6      |
| Offset          | 0x0002   |
| Data Size       | 85 bytes |
| Calculated Size | 85 bytes |
| Instructions    | 7        |

```
      00 01 02 03 04 05 06 07  08 09 0A 0B 0C 0D 0E 0F
      -- -- -- -- -- -- -- --  -- -- -- -- -- -- -- --
0000:       45 00 80 F0 FF FF  7F F0 FF FF 7F 73 30 39    E..........s09
0010: 39 01 80 1C 02 80 52 00  80 F0 FF FF 7F F0 FF FF  9.....R.........
0020: 7F 73 30 39 39 45 03 80  F0 FF FF 7F F0 FF FF 7F  .s099E..........
0030: 6F 76 6C 31 01 80 45 00  80 F0 FF FF 7F F0 FF FF  ovl1..E.........
0040: 7F 73 31 30 32 01 80 55  00 80 F0 FF FF 7F F0 FF  .s102..U........
0050: FF 7F 73 31 30 32 00                              ..s102.         
```

## Opcodes

```
  0: 0x0002 [0x45] LOAD_SCHEDULED_TASK(work_offset1=15*, entity1=LocalPlayer, entity2=LocalPlayer, scheduler_id="s099", work_offset2=0*)
  1: 0x0013 [0x1C] WAIT(150* ticks)
  2: 0x0016 [0x52] END_LOAD_SCHEDULER: End scheduler "s099" with entities [LocalPlayer, LocalPlayer], work=15*
  3: 0x0025 [0x45] LOAD_SCHEDULED_TASK(work_offset1=200*, entity1=LocalPlayer, entity2=LocalPlayer, scheduler_id="ovl1", work_offset2=0*)
  4: 0x0036 [0x45] LOAD_SCHEDULED_TASK(work_offset1=15*, entity1=LocalPlayer, entity2=LocalPlayer, scheduler_id="s102", work_offset2=0*)
  5: 0x0047 [0x55] WAIT_LOAD_SCHEDULER(work_offset=15*, entity1=LocalPlayer, entity2=LocalPlayer, scheduler_id="s102")
  6: 0x0056 [0x00] END_REQSTACK()
```
