# 16929556 - Temenos Operator

## Common Data

| Field            | Value            |
|------------------|------------------|
| Zone             | Temenos (ID: 37) |
| Block Size       | 8588 bytes       |
| Total Events     | 3                |
| References Count | 504              |

## List of Events

| Event ID              | Entrypoint   |   Size |   Instructions |
|-----------------------|--------------|--------|----------------|
| [65535](#event-65535) | 0x0000       |      1 |              1 |
| [1031](#event-1031)   | 0x0001       |    180 |             66 |
| [1032](#event-1032)   | 0x00B5       |   6362 |           1042 |

## DAT References (imed_data)

|   Index | Hex Value   |   Dec Value |
|---------|-------------|-------------|
|       0 | 0x0001      |           1 |
|       1 | 0x015D      |         349 |
|       2 | 0x1C44      |        7236 |
|       3 | 0x1C53      |        7251 |
|       4 | 0x1C54      |        7252 |
|       5 | 0x1C45      |        7237 |
|       6 | 0x1C46      |        7238 |
|       7 | 0x1C47      |        7239 |
|       8 | 0x1C48      |        7240 |
|       9 | 0x1C49      |        7241 |
|      10 | 0x1C4A      |        7242 |
|      11 | 0x1C4B      |        7243 |
|      12 | 0x1C4C      |        7244 |
|      13 | 0x1C4D      |        7245 |
|      14 | 0x1C4E      |        7246 |
|      15 | 0x1C4F      |        7247 |
|      16 | 0x1C50      |        7248 |
|      17 | 0x1C51      |        7249 |
|      18 | 0x0082      |         130 |
|      19 | 0x1C55      |        7253 |
|      20 | 0x1C57      |        7255 |
|      21 | 0x0000      |           0 |
|      22 | 0x0003      |           3 |
|      23 | 0x0077      |         119 |
|      24 | 0x1C56      |        7254 |
|      25 | 0x1C52      |        7250 |
|      26 | 0x1C5D      |        7261 |
|      27 | 0x000F      |          15 |
|      28 | 0x0076      |         118 |
|      29 | 0x1C59      |        7257 |
|      30 | 0x000A      |          10 |
|      31 | 0x0010      |          16 |
|      32 | 0x001F      |          31 |
|      33 | 0x1C5A      |        7258 |
|      34 | 0x0002      |           2 |
|      35 | 0x1C5E      |        7262 |
|      36 | 0x1C5F      |        7263 |
|      37 | 0x1C60      |        7264 |
|      38 | 0x0005      |           5 |
|      39 | 0x0006      |           6 |
|      40 | 0x0007      |           7 |
|      41 | 0x0008      |           8 |
|      42 | 0x0009      |           9 |
|      43 | 0x1C61      |        7265 |
|      44 | 0x1C62      |        7266 |
|      45 | 0x0004      |           4 |
|      46 | 0x000B      |          11 |
|      47 | 0x000C      |          12 |
|      48 | 0x000D      |          13 |
|      49 | 0x000E      |          14 |
|      50 | 0x0011      |          17 |
|      51 | 0x0012      |          18 |
|      52 | 0x0013      |          19 |
|      53 | 0x0014      |          20 |
|      54 | 0x0015      |          21 |
|      55 | 0x0016      |          22 |
|      56 | 0x1C64      |        7268 |
|      57 | 0x1C65      |        7269 |
|      58 | 0x1C66      |        7270 |
|      59 | 0x4E20      |       20000 |
|      60 | 0x7530      |       30000 |
|      61 | 0x3A98      |       15000 |
|      62 | 0x61A8      |       25000 |
|      63 | 0x2710      |       10000 |
|      64 | 0x5B66      |       23398 |
|      65 | 0x5BA9      |       23465 |
|      66 | 0x5BEC      |       23532 |
|      67 | 0x5C2F      |       23599 |
|      68 | 0x5C72      |       23666 |
|      69 | 0x5D6E      |       23918 |
|      70 | 0x5D9B      |       23963 |
|      71 | 0x5DC8      |       24008 |
|      72 | 0x5DF5      |       24053 |
|      73 | 0x5E22      |       24098 |
|      74 | 0x5B67      |       23399 |
|      75 | 0x5BAA      |       23466 |
|      76 | 0x5BED      |       23533 |
|      77 | 0x5C30      |       23600 |
|      78 | 0x5C73      |       23667 |
|      79 | 0x5D6F      |       23919 |
|      80 | 0x5D9C      |       23964 |
|      81 | 0x5DC9      |       24009 |
|      82 | 0x5DF6      |       24054 |
|      83 | 0x5E23      |       24099 |
|      84 | 0x5B68      |       23400 |
|      85 | 0x5BAB      |       23467 |
|      86 | 0x5BEE      |       23534 |
|      87 | 0x5C31      |       23601 |
|      88 | 0x5C74      |       23668 |
|      89 | 0x5D70      |       23920 |
|      90 | 0x5D9D      |       23965 |
|      91 | 0x5DCA      |       24010 |
|      92 | 0x5DF7      |       24055 |
|      93 | 0x5E24      |       24100 |
|      94 | 0x5B69      |       23401 |
|      95 | 0x5BAC      |       23468 |
|      96 | 0x5BEF      |       23535 |
|      97 | 0x5C32      |       23602 |
|      98 | 0x5C75      |       23669 |
|      99 | 0x5D71      |       23921 |
|     100 | 0x5D9E      |       23966 |
|     101 | 0x5DCB      |       24011 |
|     102 | 0x5DF8      |       24056 |
|     103 | 0x5E25      |       24101 |
|     104 | 0x5B6A      |       23402 |
|     105 | 0x5BAD      |       23469 |
|     106 | 0x5BF0      |       23536 |
|     107 | 0x5C33      |       23603 |
|     108 | 0x5C76      |       23670 |
|     109 | 0x5D72      |       23922 |
|     110 | 0x5D9F      |       23967 |
|     111 | 0x5DCC      |       24012 |
|     112 | 0x5DF9      |       24057 |
|     113 | 0x5E26      |       24102 |
|     114 | 0x5B6B      |       23403 |
|     115 | 0x5BAE      |       23470 |
|     116 | 0x5BF1      |       23537 |
|     117 | 0x5C34      |       23604 |
|     118 | 0x5C77      |       23671 |
|     119 | 0x5D73      |       23923 |
|     120 | 0x5DA0      |       23968 |
|     121 | 0x5DCD      |       24013 |
|     122 | 0x5DFA      |       24058 |
|     123 | 0x5E27      |       24103 |
|     124 | 0x5B6C      |       23404 |
|     125 | 0x5BAF      |       23471 |
|     126 | 0x5BF2      |       23538 |
|     127 | 0x5C35      |       23605 |
|     128 | 0x5C78      |       23672 |
|     129 | 0x5D74      |       23924 |
|     130 | 0x5DA1      |       23969 |
|     131 | 0x5DCE      |       24014 |
|     132 | 0x5DFB      |       24059 |
|     133 | 0x5E28      |       24104 |
|     134 | 0x5B6D      |       23405 |
|     135 | 0x5BB0      |       23472 |
|     136 | 0x5BF3      |       23539 |
|     137 | 0x5C36      |       23606 |
|     138 | 0x5C79      |       23673 |
|     139 | 0x5D75      |       23925 |
|     140 | 0x5DA2      |       23970 |
|     141 | 0x5DCF      |       24015 |
|     142 | 0x5DFC      |       24060 |
|     143 | 0x5E29      |       24105 |
|     144 | 0x5B6E      |       23406 |
|     145 | 0x5BB1      |       23473 |
|     146 | 0x5BF4      |       23540 |
|     147 | 0x5C37      |       23607 |
|     148 | 0x5C7A      |       23674 |
|     149 | 0x5D76      |       23926 |
|     150 | 0x5DA3      |       23971 |
|     151 | 0x5DD0      |       24016 |
|     152 | 0x5DFD      |       24061 |
|     153 | 0x5E2A      |       24106 |
|     154 | 0x5B6F      |       23407 |
|     155 | 0x5BB2      |       23474 |
|     156 | 0x5BF5      |       23541 |
|     157 | 0x5C38      |       23608 |
|     158 | 0x5C7B      |       23675 |
|     159 | 0x5D77      |       23927 |
|     160 | 0x5DA4      |       23972 |
|     161 | 0x5DD1      |       24017 |
|     162 | 0x5DFE      |       24062 |
|     163 | 0x5E2B      |       24107 |
|     164 | 0x5B70      |       23408 |
|     165 | 0x5BB3      |       23475 |
|     166 | 0x5BF6      |       23542 |
|     167 | 0x5C39      |       23609 |
|     168 | 0x5C7C      |       23676 |
|     169 | 0x5D78      |       23928 |
|     170 | 0x5DA5      |       23973 |
|     171 | 0x5DD2      |       24018 |
|     172 | 0x5DFF      |       24063 |
|     173 | 0x5E2C      |       24108 |
|     174 | 0x5B71      |       23409 |
|     175 | 0x5BB4      |       23476 |
|     176 | 0x5BF7      |       23543 |
|     177 | 0x5C3A      |       23610 |
|     178 | 0x5C7D      |       23677 |
|     179 | 0x5D79      |       23929 |
|     180 | 0x5DA6      |       23974 |
|     181 | 0x5DD3      |       24019 |
|     182 | 0x5E00      |       24064 |
|     183 | 0x5E2D      |       24109 |
|     184 | 0x5B72      |       23410 |
|     185 | 0x5BB5      |       23477 |
|     186 | 0x5BF8      |       23544 |
|     187 | 0x5C3B      |       23611 |
|     188 | 0x5C7E      |       23678 |
|     189 | 0x5D7A      |       23930 |
|     190 | 0x5DA7      |       23975 |
|     191 | 0x5DD4      |       24020 |
|     192 | 0x5E01      |       24065 |
|     193 | 0x5E2E      |       24110 |
|     194 | 0x5B73      |       23411 |
|     195 | 0x5BB6      |       23478 |
|     196 | 0x5BF9      |       23545 |
|     197 | 0x5C3C      |       23612 |
|     198 | 0x5C7F      |       23679 |
|     199 | 0x5D7B      |       23931 |
|     200 | 0x5DA8      |       23976 |
|     201 | 0x5DD5      |       24021 |
|     202 | 0x5E02      |       24066 |
|     203 | 0x5E2F      |       24111 |
|     204 | 0x5B74      |       23412 |
|     205 | 0x5BB7      |       23479 |
|     206 | 0x5BFA      |       23546 |
|     207 | 0x5C3D      |       23613 |
|     208 | 0x5C80      |       23680 |
|     209 | 0x5D7C      |       23932 |
|     210 | 0x5DA9      |       23977 |
|     211 | 0x5DD6      |       24022 |
|     212 | 0x5E03      |       24067 |
|     213 | 0x5E30      |       24112 |
|     214 | 0x5B75      |       23413 |
|     215 | 0x5BB8      |       23480 |
|     216 | 0x5BFB      |       23547 |
|     217 | 0x5C3E      |       23614 |
|     218 | 0x5C81      |       23681 |
|     219 | 0x5D7D      |       23933 |
|     220 | 0x5DAA      |       23978 |
|     221 | 0x5DD7      |       24023 |
|     222 | 0x5E04      |       24068 |
|     223 | 0x5E31      |       24113 |
|     224 | 0x5B76      |       23414 |
|     225 | 0x5BB9      |       23481 |
|     226 | 0x5BFC      |       23548 |
|     227 | 0x5C3F      |       23615 |
|     228 | 0x5C82      |       23682 |
|     229 | 0x5D7E      |       23934 |
|     230 | 0x5DAB      |       23979 |
|     231 | 0x5DD8      |       24024 |
|     232 | 0x5E05      |       24069 |
|     233 | 0x5E32      |       24114 |
|     234 | 0x5B77      |       23415 |
|     235 | 0x5BBA      |       23482 |
|     236 | 0x5BFD      |       23549 |
|     237 | 0x5C40      |       23616 |
|     238 | 0x5C83      |       23683 |
|     239 | 0x5D7F      |       23935 |
|     240 | 0x5DAC      |       23980 |
|     241 | 0x5DD9      |       24025 |
|     242 | 0x5E06      |       24070 |
|     243 | 0x5E33      |       24115 |
|     244 | 0x5B78      |       23416 |
|     245 | 0x5BBB      |       23483 |
|     246 | 0x5BFE      |       23550 |
|     247 | 0x5C41      |       23617 |
|     248 | 0x5C84      |       23684 |
|     249 | 0x5D80      |       23936 |
|     250 | 0x5DAD      |       23981 |
|     251 | 0x5DDA      |       24026 |
|     252 | 0x5E07      |       24071 |
|     253 | 0x5E34      |       24116 |
|     254 | 0x5B79      |       23417 |
|     255 | 0x5BBC      |       23484 |
|     256 | 0x5BFF      |       23551 |
|     257 | 0x5C42      |       23618 |
|     258 | 0x5C85      |       23685 |
|     259 | 0x5D81      |       23937 |
|     260 | 0x5DAE      |       23982 |
|     261 | 0x5DDB      |       24027 |
|     262 | 0x5E08      |       24072 |
|     263 | 0x5E35      |       24117 |
|     264 | 0x5B7A      |       23418 |
|     265 | 0x5BBD      |       23485 |
|     266 | 0x5C00      |       23552 |
|     267 | 0x5C43      |       23619 |
|     268 | 0x5C86      |       23686 |
|     269 | 0x5D82      |       23938 |
|     270 | 0x5DAF      |       23983 |
|     271 | 0x5DDC      |       24028 |
|     272 | 0x5E09      |       24073 |
|     273 | 0x5E36      |       24118 |
|     274 | 0x5B7B      |       23419 |
|     275 | 0x5BBE      |       23486 |
|     276 | 0x5C01      |       23553 |
|     277 | 0x5C44      |       23620 |
|     278 | 0x5C87      |       23687 |
|     279 | 0x5D83      |       23939 |
|     280 | 0x5DB0      |       23984 |
|     281 | 0x5DDD      |       24029 |
|     282 | 0x5E0A      |       24074 |
|     283 | 0x5E37      |       24119 |
|     284 | 0x15B8      |        5560 |
|     285 | 0x15B9      |        5561 |
|     286 | 0x15BA      |        5562 |
|     287 | 0x15BB      |        5563 |
|     288 | 0x15BC      |        5564 |
|     289 | 0x15BD      |        5565 |
|     290 | 0x15BE      |        5566 |
|     291 | 0x15BF      |        5567 |
|     292 | 0x15C0      |        5568 |
|     293 | 0x15C1      |        5569 |
|     294 | 0x15C2      |        5570 |
|     295 | 0x15C3      |        5571 |
|     296 | 0x15C4      |        5572 |
|     297 | 0x15C5      |        5573 |
|     298 | 0x15C6      |        5574 |
|     299 | 0x15C7      |        5575 |
|     300 | 0x15C8      |        5576 |
|     301 | 0x15C9      |        5577 |
|     302 | 0x15CA      |        5578 |
|     303 | 0x15CB      |        5579 |
|     304 | 0x15CC      |        5580 |
|     305 | 0x15CD      |        5581 |
|     306 | 0x15CE      |        5582 |
|     307 | 0x15CF      |        5583 |
|     308 | 0x15D0      |        5584 |
|     309 | 0x15D1      |        5585 |
|     310 | 0x15D2      |        5586 |
|     311 | 0x15D3      |        5587 |
|     312 | 0x15D4      |        5588 |
|     313 | 0x15D5      |        5589 |
|     314 | 0x15D6      |        5590 |
|     315 | 0x15D7      |        5591 |
|     316 | 0x15D8      |        5592 |
|     317 | 0x15D9      |        5593 |
|     318 | 0x15DA      |        5594 |
|     319 | 0x15DB      |        5595 |
|     320 | 0x15DC      |        5596 |
|     321 | 0x15DD      |        5597 |
|     322 | 0x15DE      |        5598 |
|     323 | 0x15DF      |        5599 |
|     324 | 0x15E0      |        5600 |
|     325 | 0x15E1      |        5601 |
|     326 | 0x15E2      |        5602 |
|     327 | 0x15E3      |        5603 |
|     328 | 0x15E4      |        5604 |
|     329 | 0x15E5      |        5605 |
|     330 | 0x15E6      |        5606 |
|     331 | 0x15E7      |        5607 |
|     332 | 0x15E8      |        5608 |
|     333 | 0x15E9      |        5609 |
|     334 | 0x15EA      |        5610 |
|     335 | 0x15EB      |        5611 |
|     336 | 0x15EC      |        5612 |
|     337 | 0x15ED      |        5613 |
|     338 | 0x15EE      |        5614 |
|     339 | 0x15EF      |        5615 |
|     340 | 0x15F0      |        5616 |
|     341 | 0x15F1      |        5617 |
|     342 | 0x15F2      |        5618 |
|     343 | 0x15F3      |        5619 |
|     344 | 0x15F4      |        5620 |
|     345 | 0x15F5      |        5621 |
|     346 | 0x15F6      |        5622 |
|     347 | 0x15F7      |        5623 |
|     348 | 0x15F8      |        5624 |
|     349 | 0x15F9      |        5625 |
|     350 | 0x15FA      |        5626 |
|     351 | 0x15FB      |        5627 |
|     352 | 0x15FC      |        5628 |
|     353 | 0x15FD      |        5629 |
|     354 | 0x15FE      |        5630 |
|     355 | 0x15FF      |        5631 |
|     356 | 0x1600      |        5632 |
|     357 | 0x1601      |        5633 |
|     358 | 0x1602      |        5634 |
|     359 | 0x1603      |        5635 |
|     360 | 0x1604      |        5636 |
|     361 | 0x1605      |        5637 |
|     362 | 0x1606      |        5638 |
|     363 | 0x1607      |        5639 |
|     364 | 0x1608      |        5640 |
|     365 | 0x1609      |        5641 |
|     366 | 0x160A      |        5642 |
|     367 | 0x160B      |        5643 |
|     368 | 0x160C      |        5644 |
|     369 | 0x160D      |        5645 |
|     370 | 0x160E      |        5646 |
|     371 | 0x160F      |        5647 |
|     372 | 0x1610      |        5648 |
|     373 | 0x1611      |        5649 |
|     374 | 0x1612      |        5650 |
|     375 | 0x1613      |        5651 |
|     376 | 0x1614      |        5652 |
|     377 | 0x1615      |        5653 |
|     378 | 0x1616      |        5654 |
|     379 | 0x1617      |        5655 |
|     380 | 0x1618      |        5656 |
|     381 | 0x1619      |        5657 |
|     382 | 0x161A      |        5658 |
|     383 | 0x161B      |        5659 |
|     384 | 0x161C      |        5660 |
|     385 | 0x161D      |        5661 |
|     386 | 0x161E      |        5662 |
|     387 | 0x161F      |        5663 |
|     388 | 0x1620      |        5664 |
|     389 | 0x1621      |        5665 |
|     390 | 0x1622      |        5666 |
|     391 | 0x1623      |        5667 |
|     392 | 0x1624      |        5668 |
|     393 | 0x1625      |        5669 |
|     394 | 0x154A      |        5450 |
|     395 | 0x154B      |        5451 |
|     396 | 0x154C      |        5452 |
|     397 | 0x154D      |        5453 |
|     398 | 0x154E      |        5454 |
|     399 | 0x154F      |        5455 |
|     400 | 0x1550      |        5456 |
|     401 | 0x1551      |        5457 |
|     402 | 0x1552      |        5458 |
|     403 | 0x1553      |        5459 |
|     404 | 0x1554      |        5460 |
|     405 | 0x1555      |        5461 |
|     406 | 0x1556      |        5462 |
|     407 | 0x1557      |        5463 |
|     408 | 0x1558      |        5464 |
|     409 | 0x1559      |        5465 |
|     410 | 0x155A      |        5466 |
|     411 | 0x155B      |        5467 |
|     412 | 0x155C      |        5468 |
|     413 | 0x155D      |        5469 |
|     414 | 0x155E      |        5470 |
|     415 | 0x155F      |        5471 |
|     416 | 0x1560      |        5472 |
|     417 | 0x1561      |        5473 |
|     418 | 0x1562      |        5474 |
|     419 | 0x1563      |        5475 |
|     420 | 0x1564      |        5476 |
|     421 | 0x1565      |        5477 |
|     422 | 0x1566      |        5478 |
|     423 | 0x1567      |        5479 |
|     424 | 0x1568      |        5480 |
|     425 | 0x1569      |        5481 |
|     426 | 0x156A      |        5482 |
|     427 | 0x156B      |        5483 |
|     428 | 0x156C      |        5484 |
|     429 | 0x156D      |        5485 |
|     430 | 0x156E      |        5486 |
|     431 | 0x156F      |        5487 |
|     432 | 0x1570      |        5488 |
|     433 | 0x1571      |        5489 |
|     434 | 0x1572      |        5490 |
|     435 | 0x1573      |        5491 |
|     436 | 0x1574      |        5492 |
|     437 | 0x1575      |        5493 |
|     438 | 0x1576      |        5494 |
|     439 | 0x1577      |        5495 |
|     440 | 0x1578      |        5496 |
|     441 | 0x1579      |        5497 |
|     442 | 0x157A      |        5498 |
|     443 | 0x157B      |        5499 |
|     444 | 0x157C      |        5500 |
|     445 | 0x157D      |        5501 |
|     446 | 0x157E      |        5502 |
|     447 | 0x157F      |        5503 |
|     448 | 0x1580      |        5504 |
|     449 | 0x1581      |        5505 |
|     450 | 0x1582      |        5506 |
|     451 | 0x1583      |        5507 |
|     452 | 0x1584      |        5508 |
|     453 | 0x1585      |        5509 |
|     454 | 0x1586      |        5510 |
|     455 | 0x1587      |        5511 |
|     456 | 0x1588      |        5512 |
|     457 | 0x1589      |        5513 |
|     458 | 0x158A      |        5514 |
|     459 | 0x158B      |        5515 |
|     460 | 0x158C      |        5516 |
|     461 | 0x158D      |        5517 |
|     462 | 0x158E      |        5518 |
|     463 | 0x158F      |        5519 |
|     464 | 0x1590      |        5520 |
|     465 | 0x1591      |        5521 |
|     466 | 0x1592      |        5522 |
|     467 | 0x1593      |        5523 |
|     468 | 0x1594      |        5524 |
|     469 | 0x1595      |        5525 |
|     470 | 0x1596      |        5526 |
|     471 | 0x1597      |        5527 |
|     472 | 0x1598      |        5528 |
|     473 | 0x1599      |        5529 |
|     474 | 0x159A      |        5530 |
|     475 | 0x159B      |        5531 |
|     476 | 0x159C      |        5532 |
|     477 | 0x159D      |        5533 |
|     478 | 0x159E      |        5534 |
|     479 | 0x159F      |        5535 |
|     480 | 0x15A0      |        5536 |
|     481 | 0x15A1      |        5537 |
|     482 | 0x15A2      |        5538 |
|     483 | 0x15A3      |        5539 |
|     484 | 0x15A4      |        5540 |
|     485 | 0x15A5      |        5541 |
|     486 | 0x15A6      |        5542 |
|     487 | 0x15A7      |        5543 |
|     488 | 0x15A8      |        5544 |
|     489 | 0x15A9      |        5545 |
|     490 | 0x15AA      |        5546 |
|     491 | 0x15AB      |        5547 |
|     492 | 0x15AC      |        5548 |
|     493 | 0x15AD      |        5549 |
|     494 | 0x15AE      |        5550 |
|     495 | 0x15AF      |        5551 |
|     496 | 0x15B0      |        5552 |
|     497 | 0x15B1      |        5553 |
|     498 | 0x15B2      |        5554 |
|     499 | 0x15B3      |        5555 |
|     500 | 0x15B4      |        5556 |
|     501 | 0x15B5      |        5557 |
|     502 | 0x15B6      |        5558 |
|     503 | 0x15B7      |        5559 |

## String References

- **7236**: Welcome to Temenos. Please present your $3.
- **7237**: ...Credentials not present. Authorizing new issuance.
- **7238**: Registration in progress...
- **7239**: Welcome to Temenos. This place is designed for the generation of new life-forms.
- **7240**: North, West, East, and Central Towers contain monsters for recording data in your $3.
- **7241**: Successfully recording data will permit you to open Temenos Coffers.
- **7242**: You will also be authorized to collect a special currency called Temenos Units.
- **7243**: Systems are only capable of recording data for each registrant a total of five times per week (Earth time).
- **7244**: Temenos Units can be used in the Temenos Furnace.
- **7245**: Please use it to your advantage.
- **7246**: Special Limbus buffs known as Grace are also available to those who have deposited a sufficient amount of currency.
- **7247**: The more data, the stronger the Grace.
- **7248**: Your registration is now complete. Currently recording initial data in your $3.
- **7249**: Please set your initial monster level. The higher the level, the more precise the data we can gather.
- **7250**: Your $3 is now fully prepared. Glory to Zilart.
- **7251**: ...
- **7252**: ......
- **7253**: Enter a level value between 119 and $1 to be recorded in your $3.
- **7254**: "$1" has been recorded in your $3.
- **7255**: Enter 0 to cancel.
- **7257**: Increasing the level will reset your progress.
- **7258**: What will you do? [Change level and reset./Never mind.]
- **7261**: Inquire about what? [Level settings./Temenos./Temenos Units./The Temenos Furnace./Equipment list./Grace./Nothing for now.]
- **7262**: Remaining Temenos Units: $0. Total Temenos Units: $1/$2.
- **7263**: The Temenos Furnace uses data to enhance your equipment.
- **7264**: Inquire about which? [Agoge Armor./Hesychast's Attire./Piety Attire./Archmage's Attire./Vitiation Armor./Plunderer's Attire./Caballarius Armor./Fallen's Armor./Ankusa Armor./Bihu Attire./Arcadian Attire./Sakonji Armor./Mochizuki Armor./Telos Armor./Glyphic Attire./Luhlaza Attire./Lanuna Attire./Pitre Attire./Horos Attire./Pedagogy Attire./Bagua Attire./Futhark Attire./Nothing for now.]
- **7266**: Reforging your item into $0 requires $1 and $2 Temenos Units.
- **7268**: 3 effects: Accuracy+$1@Ranged Accuracy+$1@Magic Accuracy+$1.
- **7269**: $3 effects: BPALL+$3.
- **7270**: $3 effects: Max. HP+$5 EXP Loss Reduction: $6% MEXP Loss Reduction: $6%

## Events

### Event 65535

#### Metadata

| Field        | Value   |
|--------------|---------|
| Entrypoint   | 0x0000  |
| Data Size    | 1 bytes |
| Instructions | 1       |

```
      00 01 02 03 04 05 06 07  08 09 0A 0B 0C 0D 0E 0F
      -- -- -- -- -- -- -- --  -- -- -- -- -- -- -- --
0000: 00                                                .               
```

#### Opcodes

```
  0: 0x0000 [0x00] END_REQSTACK()
```

### Event 1031

#### Metadata

| Field        | Value     |
|--------------|-----------|
| Entrypoint   | 0x0001    |
| Data Size    | 180 bytes |
| Instructions | 66        |

```
      00 01 02 03 04 05 06 07  08 09 0A 0B 0C 0D 0E 0F
      -- -- -- -- -- -- -- --  -- -- -- -- -- -- -- --
0000:    1E F0 FF FF 7F 1C 00  80 03 02 10 01 80 1D 02   ...............
0010: 80 23 1D 03 80 23 1D 04  80 23 1D 05 80 23 1D 06  .#...#...#...#..
0020: 80 23 1D 07 80 23 1D 08  80 23 1D 09 80 23 1D 0A  .#...#...#...#..
0030: 80 23 1D 0B 80 23 1D 0C  80 23 1D 0D 80 23 1D 0E  .#...#...#...#..
0040: 80 23 1D 0F 80 23 1D 10  80 23 1D 11 80 23 03 03  .#...#...#...#..
0050: 10 12 80 1D 13 80 23 48  14 80 03 01 10 15 80 71  ......#H.......q
0060: 12 00 80 16 80 71 13 02  00 02 02 00 15 80 00 74  .....q.........t
0070: 00 01 B0 00 02 02 00 17  80 04 AD 00 02 02 00 12  ................
0080: 80 05 A7 00 42 03 02 10  01 80 03 03 10 02 00 03  ....B...........
0090: 01 10 02 00 1D 18 80 23  1D 03 80 23 1D 04 80 23  .......#...#...#
00A0: 1D 19 80 23 01 AA 00 01  4E 00 01 B0 00 01 4E 00  ...#....N.....N.
00B0: 2E 20 00 21 00                                    . .!.           
```

#### Opcodes

```
  0: 0x0001 [0x1E] EventEntity looks at LocalPlayer and starts talking
  1: 0x0006 [0x1C] WAIT(1* ticks)
  2: 0x0009 [0x03] Work_Zone[2] = 349*
  3: 0x000E [0x1D] PRINT_EVENT_MESSAGE(message_id=7236*)
    → "Welcome to Temenos. Please present your $3."
  4: 0x0011 [0x23] WAIT_FOR_DIALOG_INTERACTION
  5: 0x0012 [0x1D] PRINT_EVENT_MESSAGE(message_id=7251*)
    → "..."
  6: 0x0015 [0x23] WAIT_FOR_DIALOG_INTERACTION
  7: 0x0016 [0x1D] PRINT_EVENT_MESSAGE(message_id=7252*)
    → "......"
  8: 0x0019 [0x23] WAIT_FOR_DIALOG_INTERACTION
  9: 0x001A [0x1D] PRINT_EVENT_MESSAGE(message_id=7237*)
    → "...Credentials not present. Authorizing new issuance."
 10: 0x001D [0x23] WAIT_FOR_DIALOG_INTERACTION
 11: 0x001E [0x1D] PRINT_EVENT_MESSAGE(message_id=7238*)
    → "Registration in progress..."
 12: 0x0021 [0x23] WAIT_FOR_DIALOG_INTERACTION
 13: 0x0022 [0x1D] PRINT_EVENT_MESSAGE(message_id=7239*)
    → "Welcome to Temenos. This place is designed for the generation of new life-forms."
 14: 0x0025 [0x23] WAIT_FOR_DIALOG_INTERACTION
 15: 0x0026 [0x1D] PRINT_EVENT_MESSAGE(message_id=7240*)
    → "North, West, East, and Central Towers contain monsters for recording data in your $3."
 16: 0x0029 [0x23] WAIT_FOR_DIALOG_INTERACTION
 17: 0x002A [0x1D] PRINT_EVENT_MESSAGE(message_id=7241*)
    → "Successfully recording data will permit you to open Temenos Coffers."
 18: 0x002D [0x23] WAIT_FOR_DIALOG_INTERACTION
 19: 0x002E [0x1D] PRINT_EVENT_MESSAGE(message_id=7242*)
    → "You will also be authorized to collect a special currency called Temenos Units."
 20: 0x0031 [0x23] WAIT_FOR_DIALOG_INTERACTION
 21: 0x0032 [0x1D] PRINT_EVENT_MESSAGE(message_id=7243*)
    → "Systems are only capable of recording data for each registrant a total of five times per week (Earth time)."
 22: 0x0035 [0x23] WAIT_FOR_DIALOG_INTERACTION
 23: 0x0036 [0x1D] PRINT_EVENT_MESSAGE(message_id=7244*)
    → "Temenos Units can be used in the Temenos Furnace."
 24: 0x0039 [0x23] WAIT_FOR_DIALOG_INTERACTION
 25: 0x003A [0x1D] PRINT_EVENT_MESSAGE(message_id=7245*)
    → "Please use it to your advantage."
 26: 0x003D [0x23] WAIT_FOR_DIALOG_INTERACTION
 27: 0x003E [0x1D] PRINT_EVENT_MESSAGE(message_id=7246*)
    → "Special Limbus buffs known as Grace are also available to those who have deposited a sufficient amount of currency."
 28: 0x0041 [0x23] WAIT_FOR_DIALOG_INTERACTION
 29: 0x0042 [0x1D] PRINT_EVENT_MESSAGE(message_id=7247*)
    → "The more data, the stronger the Grace."
 30: 0x0045 [0x23] WAIT_FOR_DIALOG_INTERACTION
 31: 0x0046 [0x1D] PRINT_EVENT_MESSAGE(message_id=7248*)
    → "Your registration is now complete. Currently recording initial data in your $3."
 32: 0x0049 [0x23] WAIT_FOR_DIALOG_INTERACTION
 33: 0x004A [0x1D] PRINT_EVENT_MESSAGE(message_id=7249*)
    → "Please set your initial monster level. The higher the level, the more precise the data we can gather."
 34: 0x004D [0x23] WAIT_FOR_DIALOG_INTERACTION
 35: 0x004E [0x03] Work_Zone[3] = 130*
 36: 0x0053 [0x1D] PRINT_EVENT_MESSAGE(message_id=7253*)
    → "Enter a level value between 119 and $1 to be recorded in your $3."
 37: 0x0056 [0x23] WAIT_FOR_DIALOG_INTERACTION
 38: 0x0057 [0x48] [System] [7255*]:
    → "Enter 0 to cancel."
 39: 0x005A [0x03] Work_Zone[1] = 0*
 40: 0x005F [0x71] USER_INPUT_HANDLER: Open numerical input with params (work=[1*, 3*])
 41: 0x0065 [0x71] USER_INPUT_HANDLER: Process numerical input B (work=ExtData[1]->WorkLocal[2])
 42: 0x0069 [0x02] IF !(ExtData[1]->WorkLocal[2] == 0*) GOTO 0x0074
 43: 0x0071 [0x01] GOTO 0x00B0
 44: 0x0074 [0x02] IF !(ExtData[1]->WorkLocal[2] < 119*) GOTO 0x00AD
 45: 0x007C [0x02] IF !(ExtData[1]->WorkLocal[2] > 130*) GOTO 0x00A7
 46: 0x0084 [0x42] SET_CLI_EVENT_CANCEL_DATA()
 47: 0x0085 [0x03] Work_Zone[2] = 349*
 48: 0x008A [0x03] Work_Zone[3] = ExtData[1]->WorkLocal[2]
 49: 0x008F [0x03] Work_Zone[1] = ExtData[1]->WorkLocal[2]
 50: 0x0094 [0x1D] PRINT_EVENT_MESSAGE(message_id=7254*)
    → ""$1" has been recorded in your $3."
 51: 0x0097 [0x23] WAIT_FOR_DIALOG_INTERACTION
 52: 0x0098 [0x1D] PRINT_EVENT_MESSAGE(message_id=7251*)
    → "..."
 53: 0x009B [0x23] WAIT_FOR_DIALOG_INTERACTION
 54: 0x009C [0x1D] PRINT_EVENT_MESSAGE(message_id=7252*)
    → "......"
 55: 0x009F [0x23] WAIT_FOR_DIALOG_INTERACTION
 56: 0x00A0 [0x1D] PRINT_EVENT_MESSAGE(message_id=7250*)
    → "Your $3 is now fully prepared. Glory to Zilart."
 57: 0x00A3 [0x23] WAIT_FOR_DIALOG_INTERACTION
 58: 0x00A4 [0x01] GOTO 0x00AA
 59: 0x00A7 [0x01] GOTO 0x004E

SUBROUTINE_00AA:
 60: 0x00AA [0x01] GOTO 0x00B0
 61: 0x00AD [0x01] GOTO 0x004E

SUBROUTINE_00B0:
 62: 0x00B0 [0x2E] SET_CLI_EVENT_CANCEL_FLAGS()
 63: 0x00B1 [0x20] SET_CLI_EVENT_UC_FLAG: Unlock player control
 64: 0x00B3 [0x21] END_EVENT
 65: 0x00B4 [0x00] END_REQSTACK()
```

### Event 1032

#### Metadata

| Field        | Value      |
|--------------|------------|
| Entrypoint   | 0x00B5     |
| Data Size    | 6362 bytes |
| Instructions | 208        |

```
      00 01 02 03 04 05 06 07  08 09 0A 0B 0C 0D 0E 0F
      -- -- -- -- -- -- -- --  -- -- -- -- -- -- -- --
00B0:                03 07 00  02 10 1E F0 FF FF 7F 1C       ...........
00C0: 00 80 03 03 00 15 80 03  04 00 15 80 03 05 00 15  ................
00D0: 80 03 06 00 15 80 24 1A  80 03 00 07 00 25 02 00  ......$......%..
00E0: 10 15 80 00 FC 01 03 03  00 00 10 40 15 80 1B 80  ...........@....
00F0: 01 10 00 80 43 00 43 01  03 00 00 02 10 03 01 00  ....C.C.........
0100: 03 10 07 00 00 1C 80 03  02 10 01 80 03 03 10 12  ................
0110: 80 1D 13 80 23 48 14 80  02 01 00 15 80 00 23 01  ....#H........#.
0120: 01 26 01 48 1D 80 03 01  10 15 80 71 12 00 80 16  .&.H.......q....
0130: 80 71 13 02 00 02 02 00  15 80 00 40 01 01 F9 01  .q.........@....
0140: 02 02 00 17 80 04 F6 01  02 02 00 12 80 05 F0 01  ................
0150: 42 02 01 00 15 80 00 7C  01 03 02 10 01 80 03 03  B......|........
0160: 10 02 00 40 15 80 1E 80  01 10 00 80 40 1F 80 20  ...@........@.. 
0170: 80 01 10 02 00 1D 18 80  23 01 ED 01 02 02 00 00  ........#.......
0180: 00 02 CD 01 48 1D 80 24  21 80 00 80 15 80 25 02  ....H..$!.....%.
0190: 00 10 15 80 00 BA 01 03  02 10 01 80 03 03 10 02  ................
01A0: 00 40 15 80 1E 80 01 10  00 80 40 1F 80 20 80 01  .@........@.. ..
01B0: 10 02 00 1D 18 80 23 01  CA 01 02 00 10 00 80 00  ......#.........
01C0: CA 01 03 01 10 15 80 01  CA 01 01 ED 01 03 02 10  ................
01D0: 01 80 03 03 10 02 00 40  15 80 1E 80 01 10 00 80  .......@........
01E0: 40 1F 80 20 80 01 10 02  00 1D 18 80 23 01 F3 01  @.. ........#...
01F0: 01 07 01 01 F9 01 01 07  01 01 D1 13 02 00 10 00  ................
0200: 80 00 38 02 03 03 00 00  10 03 02 10 01 80 1D 07  ..8.............
0210: 80 23 1D 08 80 23 1D 09  80 23 1D 0A 80 23 1D 0B  .#...#...#...#..
0220: 80 23 1D 0C 80 23 1D 0D  80 23 1D 0E 80 23 1D 0F  .#...#...#...#..
0230: 80 23 01 D6 00 01 D1 13  02 00 10 22 80 00 5C 02  .#........."..\.
0240: 03 03 00 00 10 40 15 80  1B 80 01 10 16 80 43 00  .....@........C.
0250: 43 01 1D 23 80 23 01 D6  00 01 D1 13 02 00 10 16  C..#.#..........
0260: 80 00 61 13 03 03 00 00  10 1D 24 80 23 24 25 80  ..a.......$.#$%.
0270: 04 00 15 80 25 02 00 10  15 80 00 39 03 03 04 00  ....%......9....
0280: 00 10 03 05 00 15 80 40  1F 80 20 80 01 10 15 80  .......@.. .....
0290: 1A C6 18 9D 0A F5 13 0C  00 26 80 1E 80 9D 0A F5  .........&......
02A0: 13 0D 00 27 80 1E 80 9D  0A F5 13 0E 00 28 80 1E  ...'.........(..
02B0: 80 9D 0A F5 13 0F 00 29  80 1E 80 9D 0A F5 13 10  .......)........
02C0: 00 2A 80 1E 80 1A 39 19  D4 02 2B 80 05 00 15 80  .*....9...+.....
02D0: 25 02 00 10 26 80 00 DF  02 01 6D 02 01 36 03 03  %...&.....m..6..
02E0: 05 00 00 10 9D 0A D5 13  0B 00 00 10 26 80 03 02  ............&...
02F0: 10 0B 00 9D 0A 96 18 03  10 00 10 26 80 9D 0A A6  ...........&....
0300: 18 04 10 00 10 26 80 9D  0A B6 18 05 10 00 10 26  .....&.........&
0310: 80 CC 01 02 10 03 10 04  10 05 10 9D 0A F5 13 03  ................
0320: 10 00 10 1E 80 9D 0A E5  13 04 10 00 10 26 80 1D  .............&..
0330: 2C 80 23 01 C5 02 01 5B  13 02 00 10 00 80 00 FD  ,.#....[........
0340: 03 03 04 00 00 10 03 05  00 15 80 40 1F 80 20 80  ...........@.. .
0350: 01 10 00 80 1A C6 18 9D  0A 15 14 0C 00 26 80 1E  .............&..
0360: 80 9D 0A 15 14 0D 00 27  80 1E 80 9D 0A 15 14 0E  .......'........
0370: 00 28 80 1E 80 9D 0A 15  14 0F 00 29 80 1E 80 9D  .(.........)....
0380: 0A 15 14 10 00 2A 80 1E  80 1A 39 19 D4 02 2B 80  .....*....9...+.
0390: 05 00 15 80 25 02 00 10  26 80 00 A3 03 01 6D 02  ....%...&.....m.
03A0: 01 FA 03 03 05 00 00 10  9D 0A D5 13 0B 00 00 10  ................
03B0: 26 80 03 02 10 0B 00 9D  0A 96 18 03 10 00 10 26  &..............&
03C0: 80 9D 0A A6 18 04 10 00  10 26 80 9D 0A B6 18 05  .........&......
03D0: 10 00 10 26 80 CC 01 02  10 03 10 04 10 05 10 9D  ...&............
03E0: 0A 15 14 03 10 00 10 1E  80 9D 0A E5 13 04 10 00  ................
03F0: 10 26 80 1D 2C 80 23 01  89 03 01 5B 13 02 00 10  .&..,.#....[....
0400: 22 80 00 C1 04 03 04 00  00 10 03 05 00 15 80 40  "..............@
0410: 1F 80 20 80 01 10 22 80  1A C6 18 9D 0A 35 14 0C  .. ..."......5..
0420: 00 26 80 1E 80 9D 0A 35  14 0D 00 27 80 1E 80 9D  .&.....5...'....
0430: 0A 35 14 0E 00 28 80 1E  80 9D 0A 35 14 0F 00 29  .5...(.....5...)
0440: 80 1E 80 9D 0A 35 14 10  00 2A 80 1E 80 1A 39 19  .....5...*....9.
0450: D4 02 2B 80 05 00 15 80  25 02 00 10 26 80 00 67  ..+.....%...&..g
0460: 04 01 6D 02 01 BE 04 03  05 00 00 10 9D 0A D5 13  ..m.............
0470: 0B 00 00 10 26 80 03 02  10 0B 00 9D 0A 96 18 03  ....&...........
0480: 10 00 10 26 80 9D 0A A6  18 04 10 00 10 26 80 9D  ...&.........&..
0490: 0A B6 18 05 10 00 10 26  80 CC 01 02 10 03 10 04  .......&........
04A0: 10 05 10 9D 0A 35 14 03  10 00 10 1E 80 9D 0A E5  .....5..........
04B0: 13 04 10 00 10 26 80 1D  2C 80 23 01 4D 04 01 5B  .....&..,.#.M..[
04C0: 13 02 00 10 16 80 00 85  05 03 04 00 00 10 03 05  ................
04D0: 00 15 80 40 1F 80 20 80  01 10 16 80 1A C6 18 9D  ...@.. .........
04E0: 0A 55 14 0C 00 26 80 1E  80 9D 0A 55 14 0D 00 27  .U...&.....U...'
04F0: 80 1E 80 9D 0A 55 14 0E  00 28 80 1E 80 9D 0A 55  .....U...(.....U
0500: 14 0F 00 29 80 1E 80 9D  0A 55 14 10 00 2A 80 1E  ...).....U...*..
0510: 80 1A 39 19 D4 02 2B 80  05 00 15 80 25 02 00 10  ..9...+.....%...
0520: 26 80 00 2B 05 01 6D 02  01 82 05 03 05 00 00 10  &..+..m.........
0530: 9D 0A D5 13 0B 00 00 10  26 80 03 02 10 0B 00 9D  ........&.......
0540: 0A 96 18 03 10 00 10 26  80 9D 0A A6 18 04 10 00  .......&........
0550: 10 26 80 9D 0A B6 18 05  10 00 10 26 80 CC 01 02  .&.........&....
0560: 10 03 10 04 10 05 10 9D  0A 55 14 03 10 00 10 1E  .........U......
0570: 80 9D 0A E5 13 04 10 00  10 26 80 1D 2C 80 23 01  .........&..,.#.
0580: 11 05 01 5B 13 02 00 10  2D 80 00 49 06 03 04 00  ...[....-..I....
0590: 00 10 03 05 00 15 80 40  1F 80 20 80 01 10 2D 80  .......@.. ...-.
05A0: 1A C6 18 9D 0A 75 14 0C  00 26 80 1E 80 9D 0A 75  .....u...&.....u
05B0: 14 0D 00 27 80 1E 80 9D  0A 75 14 0E 00 28 80 1E  ...'.....u...(..
05C0: 80 9D 0A 75 14 0F 00 29  80 1E 80 9D 0A 75 14 10  ...u...).....u..
05D0: 00 2A 80 1E 80 1A 39 19  D4 02 2B 80 05 00 15 80  .*....9...+.....
05E0: 25 02 00 10 26 80 00 EF  05 01 6D 02 01 46 06 03  %...&.....m..F..
05F0: 05 00 00 10 9D 0A D5 13  0B 00 00 10 26 80 03 02  ............&...
0600: 10 0B 00 9D 0A 96 18 03  10 00 10 26 80 9D 0A A6  ...........&....
0610: 18 04 10 00 10 26 80 9D  0A B6 18 05 10 00 10 26  .....&.........&
0620: 80 CC 01 02 10 03 10 04  10 05 10 9D 0A 75 14 03  .............u..
0630: 10 00 10 1E 80 9D 0A E5  13 04 10 00 10 26 80 1D  .............&..
0640: 2C 80 23 01 D5 05 01 5B  13 02 00 10 26 80 00 0D  ,.#....[....&...
0650: 07 03 04 00 00 10 03 05  00 15 80 40 1F 80 20 80  ...........@.. .
0660: 01 10 26 80 1A C6 18 9D  0A 95 14 0C 00 26 80 1E  ..&..........&..
0670: 80 9D 0A 95 14 0D 00 27  80 1E 80 9D 0A 95 14 0E  .......'........
0680: 00 28 80 1E 80 9D 0A 95  14 0F 00 29 80 1E 80 9D  .(.........)....
0690: 0A 95 14 10 00 2A 80 1E  80 1A 39 19 D4 02 2B 80  .....*....9...+.
06A0: 05 00 15 80 25 02 00 10  26 80 00 B3 06 01 6D 02  ....%...&.....m.
06B0: 01 0A 07 03 05 00 00 10  9D 0A D5 13 0B 00 00 10  ................
06C0: 26 80 03 02 10 0B 00 9D  0A 96 18 03 10 00 10 26  &..............&
06D0: 80 9D 0A A6 18 04 10 00  10 26 80 9D 0A B6 18 05  .........&......
06E0: 10 00 10 26 80 CC 01 02  10 03 10 04 10 05 10 9D  ...&............
06F0: 0A 95 14 03 10 00 10 1E  80 9D 0A E5 13 04 10 00  ................
0700: 10 26 80 1D 2C 80 23 01  99 06 01 5B 13 02 00 10  .&..,.#....[....
0710: 27 80 00 D1 07 03 04 00  00 10 03 05 00 15 80 40  '..............@
0720: 1F 80 20 80 01 10 27 80  1A C6 18 9D 0A B5 14 0C  .. ...'.........
0730: 00 26 80 1E 80 9D 0A B5  14 0D 00 27 80 1E 80 9D  .&.........'....
0740: 0A B5 14 0E 00 28 80 1E  80 9D 0A B5 14 0F 00 29  .....(.........)
0750: 80 1E 80 9D 0A B5 14 10  00 2A 80 1E 80 1A 39 19  .........*....9.
0760: D4 02 2B 80 05 00 15 80  25 02 00 10 26 80 00 77  ..+.....%...&..w
0770: 07 01 6D 02 01 CE 07 03  05 00 00 10 9D 0A D5 13  ..m.............
0780: 0B 00 00 10 26 80 03 02  10 0B 00 9D 0A 96 18 03  ....&...........
0790: 10 00 10 26 80 9D 0A A6  18 04 10 00 10 26 80 9D  ...&.........&..
07A0: 0A B6 18 05 10 00 10 26  80 CC 01 02 10 03 10 04  .......&........
07B0: 10 05 10 9D 0A B5 14 03  10 00 10 1E 80 9D 0A E5  ................
07C0: 13 04 10 00 10 26 80 1D  2C 80 23 01 5D 07 01 5B  .....&..,.#.]..[
07D0: 13 02 00 10 28 80 00 95  08 03 04 00 00 10 03 05  ....(...........
07E0: 00 15 80 40 1F 80 20 80  01 10 28 80 1A C6 18 9D  ...@.. ...(.....
07F0: 0A D5 14 0C 00 26 80 1E  80 9D 0A D5 14 0D 00 27  .....&.........'
0800: 80 1E 80 9D 0A D5 14 0E  00 28 80 1E 80 9D 0A D5  .........(......
0810: 14 0F 00 29 80 1E 80 9D  0A D5 14 10 00 2A 80 1E  ...).........*..
0820: 80 1A 39 19 D4 02 2B 80  05 00 15 80 25 02 00 10  ..9...+.....%...
0830: 26 80 00 3B 08 01 6D 02  01 92 08 03 05 00 00 10  &..;..m.........
0840: 9D 0A D5 13 0B 00 00 10  26 80 03 02 10 0B 00 9D  ........&.......
0850: 0A 96 18 03 10 00 10 26  80 9D 0A A6 18 04 10 00  .......&........
0860: 10 26 80 9D 0A B6 18 05  10 00 10 26 80 CC 01 02  .&.........&....
0870: 10 03 10 04 10 05 10 9D  0A D5 14 03 10 00 10 1E  ................
0880: 80 9D 0A E5 13 04 10 00  10 26 80 1D 2C 80 23 01  .........&..,.#.
0890: 21 08 01 5B 13 02 00 10  29 80 00 59 09 03 04 00  !..[....)..Y....
08A0: 00 10 03 05 00 15 80 40  1F 80 20 80 01 10 29 80  .......@.. ...).
08B0: 1A C6 18 9D 0A F5 14 0C  00 26 80 1E 80 9D 0A F5  .........&......
08C0: 14 0D 00 27 80 1E 80 9D  0A F5 14 0E 00 28 80 1E  ...'.........(..
08D0: 80 9D 0A F5 14 0F 00 29  80 1E 80 9D 0A F5 14 10  .......)........
08E0: 00 2A 80 1E 80 1A 39 19  D4 02 2B 80 05 00 15 80  .*....9...+.....
08F0: 25 02 00 10 26 80 00 FF  08 01 6D 02 01 56 09 03  %...&.....m..V..
0900: 05 00 00 10 9D 0A D5 13  0B 00 00 10 26 80 03 02  ............&...
0910: 10 0B 00 9D 0A 96 18 03  10 00 10 26 80 9D 0A A6  ...........&....
0920: 18 04 10 00 10 26 80 9D  0A B6 18 05 10 00 10 26  .....&.........&
0930: 80 CC 01 02 10 03 10 04  10 05 10 9D 0A F5 14 03  ................
0940: 10 00 10 1E 80 9D 0A E5  13 04 10 00 10 26 80 1D  .............&..
0950: 2C 80 23 01 E5 08 01 5B  13 02 00 10 2A 80 00 1D  ,.#....[....*...
0960: 0A 03 04 00 00 10 03 05  00 15 80 40 1F 80 20 80  ...........@.. .
0970: 01 10 2A 80 1A C6 18 9D  0A 15 15 0C 00 26 80 1E  ..*..........&..
0980: 80 9D 0A 15 15 0D 00 27  80 1E 80 9D 0A 15 15 0E  .......'........
0990: 00 28 80 1E 80 9D 0A 15  15 0F 00 29 80 1E 80 9D  .(.........)....
09A0: 0A 15 15 10 00 2A 80 1E  80 1A 39 19 D4 02 2B 80  .....*....9...+.
09B0: 05 00 15 80 25 02 00 10  26 80 00 C3 09 01 6D 02  ....%...&.....m.
09C0: 01 1A 0A 03 05 00 00 10  9D 0A D5 13 0B 00 00 10  ................
09D0: 26 80 03 02 10 0B 00 9D  0A 96 18 03 10 00 10 26  &..............&
09E0: 80 9D 0A A6 18 04 10 00  10 26 80 9D 0A B6 18 05  .........&......
09F0: 10 00 10 26 80 CC 01 02  10 03 10 04 10 05 10 9D  ...&............
0A00: 0A 15 15 03 10 00 10 1E  80 9D 0A E5 13 04 10 00  ................
0A10: 10 26 80 1D 2C 80 23 01  A9 09 01 5B 13 02 00 10  .&..,.#....[....
0A20: 1E 80 00 E1 0A 03 04 00  00 10 03 05 00 15 80 40  ...............@
0A30: 1F 80 20 80 01 10 1E 80  1A C6 18 9D 0A 35 15 0C  .. ..........5..
0A40: 00 26 80 1E 80 9D 0A 35  15 0D 00 27 80 1E 80 9D  .&.....5...'....
0A50: 0A 35 15 0E 00 28 80 1E  80 9D 0A 35 15 0F 00 29  .5...(.....5...)
0A60: 80 1E 80 9D 0A 35 15 10  00 2A 80 1E 80 1A 39 19  .....5...*....9.
0A70: D4 02 2B 80 05 00 15 80  25 02 00 10 26 80 00 87  ..+.....%...&...
0A80: 0A 01 6D 02 01 DE 0A 03  05 00 00 10 9D 0A D5 13  ..m.............
0A90: 0B 00 00 10 26 80 03 02  10 0B 00 9D 0A 96 18 03  ....&...........
0AA0: 10 00 10 26 80 9D 0A A6  18 04 10 00 10 26 80 9D  ...&.........&..
0AB0: 0A B6 18 05 10 00 10 26  80 CC 01 02 10 03 10 04  .......&........
0AC0: 10 05 10 9D 0A 35 15 03  10 00 10 1E 80 9D 0A E5  .....5..........
0AD0: 13 04 10 00 10 26 80 1D  2C 80 23 01 6D 0A 01 5B  .....&..,.#.m..[
0AE0: 13 02 00 10 2E 80 00 A5  0B 03 04 00 00 10 03 05  ................
0AF0: 00 15 80 40 1F 80 20 80  01 10 2E 80 1A C6 18 9D  ...@.. .........
0B00: 0A 55 15 0C 00 26 80 1E  80 9D 0A 55 15 0D 00 27  .U...&.....U...'
0B10: 80 1E 80 9D 0A 55 15 0E  00 28 80 1E 80 9D 0A 55  .....U...(.....U
0B20: 15 0F 00 29 80 1E 80 9D  0A 55 15 10 00 2A 80 1E  ...).....U...*..
0B30: 80 1A 39 19 D4 02 2B 80  05 00 15 80 25 02 00 10  ..9...+.....%...
0B40: 26 80 00 4B 0B 01 6D 02  01 A2 0B 03 05 00 00 10  &..K..m.........
0B50: 9D 0A D5 13 0B 00 00 10  26 80 03 02 10 0B 00 9D  ........&.......
0B60: 0A 96 18 03 10 00 10 26  80 9D 0A A6 18 04 10 00  .......&........
0B70: 10 26 80 9D 0A B6 18 05  10 00 10 26 80 CC 01 02  .&.........&....
0B80: 10 03 10 04 10 05 10 9D  0A 55 15 03 10 00 10 1E  .........U......
0B90: 80 9D 0A E5 13 04 10 00  10 26 80 1D 2C 80 23 01  .........&..,.#.
0BA0: 31 0B 01 5B 13 02 00 10  2F 80 00 69 0C 03 04 00  1..[..../..i....
0BB0: 00 10 03 05 00 15 80 40  1F 80 20 80 01 10 2F 80  .......@.. .../.
0BC0: 1A C6 18 9D 0A 75 15 0C  00 26 80 1E 80 9D 0A 75  .....u...&.....u
0BD0: 15 0D 00 27 80 1E 80 9D  0A 75 15 0E 00 28 80 1E  ...'.....u...(..
0BE0: 80 9D 0A 75 15 0F 00 29  80 1E 80 9D 0A 75 15 10  ...u...).....u..
0BF0: 00 2A 80 1E 80 1A 39 19  D4 02 2B 80 05 00 15 80  .*....9...+.....
0C00: 25 02 00 10 26 80 00 0F  0C 01 6D 02 01 66 0C 03  %...&.....m..f..
0C10: 05 00 00 10 9D 0A D5 13  0B 00 00 10 26 80 03 02  ............&...
0C20: 10 0B 00 9D 0A 96 18 03  10 00 10 26 80 9D 0A A6  ...........&....
0C30: 18 04 10 00 10 26 80 9D  0A B6 18 05 10 00 10 26  .....&.........&
0C40: 80 CC 01 02 10 03 10 04  10 05 10 9D 0A 75 15 03  .............u..
0C50: 10 00 10 1E 80 9D 0A E5  13 04 10 00 10 26 80 1D  .............&..
0C60: 2C 80 23 01 F5 0B 01 5B  13 02 00 10 30 80 00 2D  ,.#....[....0..-
0C70: 0D 03 04 00 00 10 03 05  00 15 80 40 1F 80 20 80  ...........@.. .
0C80: 01 10 30 80 1A C6 18 9D  0A 95 15 0C 00 26 80 1E  ..0..........&..
0C90: 80 9D 0A 95 15 0D 00 27  80 1E 80 9D 0A 95 15 0E  .......'........
0CA0: 00 28 80 1E 80 9D 0A 95  15 0F 00 29 80 1E 80 9D  .(.........)....
0CB0: 0A 95 15 10 00 2A 80 1E  80 1A 39 19 D4 02 2B 80  .....*....9...+.
0CC0: 05 00 15 80 25 02 00 10  26 80 00 D3 0C 01 6D 02  ....%...&.....m.
0CD0: 01 2A 0D 03 05 00 00 10  9D 0A D5 13 0B 00 00 10  .*..............
0CE0: 26 80 03 02 10 0B 00 9D  0A 96 18 03 10 00 10 26  &..............&
0CF0: 80 9D 0A A6 18 04 10 00  10 26 80 9D 0A B6 18 05  .........&......
0D00: 10 00 10 26 80 CC 01 02  10 03 10 04 10 05 10 9D  ...&............
0D10: 0A 95 15 03 10 00 10 1E  80 9D 0A E5 13 04 10 00  ................
0D20: 10 26 80 1D 2C 80 23 01  B9 0C 01 5B 13 02 00 10  .&..,.#....[....
0D30: 31 80 00 F1 0D 03 04 00  00 10 03 05 00 15 80 40  1..............@
0D40: 1F 80 20 80 01 10 31 80  1A C6 18 9D 0A B5 15 0C  .. ...1.........
0D50: 00 26 80 1E 80 9D 0A B5  15 0D 00 27 80 1E 80 9D  .&.........'....
0D60: 0A B5 15 0E 00 28 80 1E  80 9D 0A B5 15 0F 00 29  .....(.........)
0D70: 80 1E 80 9D 0A B5 15 10  00 2A 80 1E 80 1A 39 19  .........*....9.
0D80: D4 02 2B 80 05 00 15 80  25 02 00 10 26 80 00 97  ..+.....%...&...
0D90: 0D 01 6D 02 01 EE 0D 03  05 00 00 10 9D 0A D5 13  ..m.............
0DA0: 0B 00 00 10 26 80 03 02  10 0B 00 9D 0A 96 18 03  ....&...........
0DB0: 10 00 10 26 80 9D 0A A6  18 04 10 00 10 26 80 9D  ...&.........&..
0DC0: 0A B6 18 05 10 00 10 26  80 CC 01 02 10 03 10 04  .......&........
0DD0: 10 05 10 9D 0A B5 15 03  10 00 10 1E 80 9D 0A E5  ................
0DE0: 13 04 10 00 10 26 80 1D  2C 80 23 01 7D 0D 01 5B  .....&..,.#.}..[
0DF0: 13 02 00 10 1B 80 00 B5  0E 03 04 00 00 10 03 05  ................
0E00: 00 15 80 40 1F 80 20 80  01 10 1B 80 1A C6 18 9D  ...@.. .........
0E10: 0A D5 15 0C 00 26 80 1E  80 9D 0A D5 15 0D 00 27  .....&.........'
0E20: 80 1E 80 9D 0A D5 15 0E  00 28 80 1E 80 9D 0A D5  .........(......
0E30: 15 0F 00 29 80 1E 80 9D  0A D5 15 10 00 2A 80 1E  ...).........*..
0E40: 80 1A 39 19 D4 02 2B 80  05 00 15 80 25 02 00 10  ..9...+.....%...
0E50: 26 80 00 5B 0E 01 6D 02  01 B2 0E 03 05 00 00 10  &..[..m.........
0E60: 9D 0A D5 13 0B 00 00 10  26 80 03 02 10 0B 00 9D  ........&.......
0E70: 0A 96 18 03 10 00 10 26  80 9D 0A A6 18 04 10 00  .......&........
0E80: 10 26 80 9D 0A B6 18 05  10 00 10 26 80 CC 01 02  .&.........&....
0E90: 10 03 10 04 10 05 10 9D  0A D5 15 03 10 00 10 1E  ................
0EA0: 80 9D 0A E5 13 04 10 00  10 26 80 1D 2C 80 23 01  .........&..,.#.
0EB0: 41 0E 01 5B 13 02 00 10  1F 80 00 79 0F 03 04 00  A..[.......y....
0EC0: 00 10 03 05 00 15 80 40  1F 80 20 80 01 10 1F 80  .......@.. .....
0ED0: 1A C6 18 9D 0A F5 15 0C  00 26 80 1E 80 9D 0A F5  .........&......
0EE0: 15 0D 00 27 80 1E 80 9D  0A F5 15 0E 00 28 80 1E  ...'.........(..
0EF0: 80 9D 0A F5 15 0F 00 29  80 1E 80 9D 0A F5 15 10  .......)........
0F00: 00 2A 80 1E 80 1A 39 19  D4 02 2B 80 05 00 15 80  .*....9...+.....
0F10: 25 02 00 10 26 80 00 1F  0F 01 6D 02 01 76 0F 03  %...&.....m..v..
0F20: 05 00 00 10 9D 0A D5 13  0B 00 00 10 26 80 03 02  ............&...
0F30: 10 0B 00 9D 0A 96 18 03  10 00 10 26 80 9D 0A A6  ...........&....
0F40: 18 04 10 00 10 26 80 9D  0A B6 18 05 10 00 10 26  .....&.........&
0F50: 80 CC 01 02 10 03 10 04  10 05 10 9D 0A F5 15 03  ................
0F60: 10 00 10 1E 80 9D 0A E5  13 04 10 00 10 26 80 1D  .............&..
0F70: 2C 80 23 01 05 0F 01 5B  13 02 00 10 32 80 00 3D  ,.#....[....2..=
0F80: 10 03 04 00 00 10 03 05  00 15 80 40 1F 80 20 80  ...........@.. .
0F90: 01 10 32 80 1A C6 18 9D  0A 15 16 0C 00 26 80 1E  ..2..........&..
0FA0: 80 9D 0A 15 16 0D 00 27  80 1E 80 9D 0A 15 16 0E  .......'........
0FB0: 00 28 80 1E 80 9D 0A 15  16 0F 00 29 80 1E 80 9D  .(.........)....
0FC0: 0A 15 16 10 00 2A 80 1E  80 1A 39 19 D4 02 2B 80  .....*....9...+.
0FD0: 05 00 15 80 25 02 00 10  26 80 00 E3 0F 01 6D 02  ....%...&.....m.
0FE0: 01 3A 10 03 05 00 00 10  9D 0A D5 13 0B 00 00 10  .:..............
0FF0: 26 80 03 02 10 0B 00 9D  0A 96 18 03 10 00 10 26  &..............&
1000: 80 9D 0A A6 18 04 10 00  10 26 80 9D 0A B6 18 05  .........&......
1010: 10 00 10 26 80 CC 01 02  10 03 10 04 10 05 10 9D  ...&............
1020: 0A 15 16 03 10 00 10 1E  80 9D 0A E5 13 04 10 00  ................
1030: 10 26 80 1D 2C 80 23 01  C9 0F 01 5B 13 02 00 10  .&..,.#....[....
1040: 33 80 00 01 11 03 04 00  00 10 03 05 00 15 80 40  3..............@
1050: 1F 80 20 80 01 10 33 80  1A C6 18 9D 0A 35 16 0C  .. ...3......5..
1060: 00 26 80 1E 80 9D 0A 35  16 0D 00 27 80 1E 80 9D  .&.....5...'....
1070: 0A 35 16 0E 00 28 80 1E  80 9D 0A 35 16 0F 00 29  .5...(.....5...)
1080: 80 1E 80 9D 0A 35 16 10  00 2A 80 1E 80 1A 39 19  .....5...*....9.
1090: D4 02 2B 80 05 00 15 80  25 02 00 10 26 80 00 A7  ..+.....%...&...
10A0: 10 01 6D 02 01 FE 10 03  05 00 00 10 9D 0A D5 13  ..m.............
10B0: 0B 00 00 10 26 80 03 02  10 0B 00 9D 0A 96 18 03  ....&...........
10C0: 10 00 10 26 80 9D 0A A6  18 04 10 00 10 26 80 9D  ...&.........&..
10D0: 0A B6 18 05 10 00 10 26  80 CC 01 02 10 03 10 04  .......&........
10E0: 10 05 10 9D 0A 35 16 03  10 00 10 1E 80 9D 0A E5  .....5..........
10F0: 13 04 10 00 10 26 80 1D  2C 80 23 01 8D 10 01 5B  .....&..,.#....[
1100: 13 02 00 10 34 80 00 C5  11 03 04 00 00 10 03 05  ....4...........
1110: 00 15 80 40 1F 80 20 80  01 10 34 80 1A C6 18 9D  ...@.. ...4.....
1120: 0A 55 16 0C 00 26 80 1E  80 9D 0A 55 16 0D 00 27  .U...&.....U...'
1130: 80 1E 80 9D 0A 55 16 0E  00 28 80 1E 80 9D 0A 55  .....U...(.....U
1140: 16 0F 00 29 80 1E 80 9D  0A 55 16 10 00 2A 80 1E  ...).....U...*..
1150: 80 1A 39 19 D4 02 2B 80  05 00 15 80 25 02 00 10  ..9...+.....%...
1160: 26 80 00 6B 11 01 6D 02  01 C2 11 03 05 00 00 10  &..k..m.........
1170: 9D 0A D5 13 0B 00 00 10  26 80 03 02 10 0B 00 9D  ........&.......
1180: 0A 96 18 03 10 00 10 26  80 9D 0A A6 18 04 10 00  .......&........
1190: 10 26 80 9D 0A B6 18 05  10 00 10 26 80 CC 01 02  .&.........&....
11A0: 10 03 10 04 10 05 10 9D  0A 55 16 03 10 00 10 1E  .........U......
11B0: 80 9D 0A E5 13 04 10 00  10 26 80 1D 2C 80 23 01  .........&..,.#.
11C0: 51 11 01 5B 13 02 00 10  35 80 00 89 12 03 04 00  Q..[....5.......
11D0: 00 10 03 05 00 15 80 40  1F 80 20 80 01 10 35 80  .......@.. ...5.
11E0: 1A C6 18 9D 0A 75 16 0C  00 26 80 1E 80 9D 0A 75  .....u...&.....u
11F0: 16 0D 00 27 80 1E 80 9D  0A 75 16 0E 00 28 80 1E  ...'.....u...(..
1200: 80 9D 0A 75 16 0F 00 29  80 1E 80 9D 0A 75 16 10  ...u...).....u..
1210: 00 2A 80 1E 80 1A 39 19  D4 02 2B 80 05 00 15 80  .*....9...+.....
1220: 25 02 00 10 26 80 00 2F  12 01 6D 02 01 86 12 03  %...&../..m.....
1230: 05 00 00 10 9D 0A D5 13  0B 00 00 10 26 80 03 02  ............&...
1240: 10 0B 00 9D 0A 96 18 03  10 00 10 26 80 9D 0A A6  ...........&....
1250: 18 04 10 00 10 26 80 9D  0A B6 18 05 10 00 10 26  .....&.........&
1260: 80 CC 01 02 10 03 10 04  10 05 10 9D 0A 75 16 03  .............u..
1270: 10 00 10 1E 80 9D 0A E5  13 04 10 00 10 26 80 1D  .............&..
1280: 2C 80 23 01 15 12 01 5B  13 02 00 10 36 80 00 4D  ,.#....[....6..M
1290: 13 03 04 00 00 10 03 05  00 15 80 40 1F 80 20 80  ...........@.. .
12A0: 01 10 36 80 1A C6 18 9D  0A 95 16 0C 00 26 80 1E  ..6..........&..
12B0: 80 9D 0A 95 16 0D 00 27  80 1E 80 9D 0A 95 16 0E  .......'........
12C0: 00 28 80 1E 80 9D 0A 95  16 0F 00 29 80 1E 80 9D  .(.........)....
12D0: 0A 95 16 10 00 2A 80 1E  80 1A 39 19 D4 02 2B 80  .....*....9...+.
12E0: 05 00 15 80 25 02 00 10  26 80 00 F3 12 01 6D 02  ....%...&.....m.
12F0: 01 4A 13 03 05 00 00 10  9D 0A D5 13 0B 00 00 10  .J..............
1300: 26 80 03 02 10 0B 00 9D  0A 96 18 03 10 00 10 26  &..............&
1310: 80 9D 0A A6 18 04 10 00  10 26 80 9D 0A B6 18 05  .........&......
1320: 10 00 10 26 80 CC 01 02  10 03 10 04 10 05 10 9D  ...&............
1330: 0A 95 16 03 10 00 10 1E  80 9D 0A E5 13 04 10 00  ................
1340: 10 26 80 1D 2C 80 23 01  D9 12 01 5B 13 02 00 10  .&..,.#....[....
1350: 37 80 00 5B 13 01 D6 00  01 5B 13 01 D6 00 01 D1  7..[.....[......
1360: 13 02 00 10 2D 80 00 74  13 03 03 00 00 10 01 6D  ....-..t.......m
1370: 02 01 D1 13 02 00 10 26  80 00 C1 13 03 03 00 00  .......&........
1380: 10 40 15 80 1B 80 01 10  2D 80 43 00 43 01 02 02  .@......-.C.C...
1390: 10 15 80 00 99 13 01 9D  13 1D 38 80 23 02 04 10  ..........8.#...
13A0: 15 80 00 A8 13 01 AC 13  1D 39 80 23 02 06 10 15  .........9.#....
13B0: 80 00 B7 13 01 BB 13 1D  3A 80 23 01 D6 00 01 D1  ........:.#.....
13C0: 13 02 00 10 27 80 00 D1  13 03 01 10 15 80 01 D1  ....'...........
13D0: 13 2E 20 00 21 02 10 03  10 04 10 05 10 06 10 15  .. .!...........
13E0: 80 15 80 15 80 3B 80 3C  80 3D 80 3E 80 3F 80 15  .....;.<.=.>.?..
13F0: 80 15 80 15 80 40 80 41  80 42 80 43 80 44 80 45  .....@.A.B.C.D.E
1400: 80 46 80 47 80 48 80 49  80 15 80 15 80 15 80 15  .F.G.H.I........
1410: 80 15 80 15 80 4A 80 4B  80 4C 80 4D 80 4E 80 4F  .....J.K.L.M.N.O
1420: 80 50 80 51 80 52 80 53  80 15 80 15 80 15 80 15  .P.Q.R.S........
1430: 80 15 80 15 80 54 80 55  80 56 80 57 80 58 80 59  .....T.U.V.W.X.Y
1440: 80 5A 80 5B 80 5C 80 5D  80 15 80 15 80 15 80 15  .Z.[.\.]........
1450: 80 15 80 15 80 5E 80 5F  80 60 80 61 80 62 80 63  .....^._.`.a.b.c
1460: 80 64 80 65 80 66 80 67  80 15 80 15 80 15 80 15  .d.e.f.g........
1470: 80 15 80 15 80 68 80 69  80 6A 80 6B 80 6C 80 6D  .....h.i.j.k.l.m
1480: 80 6E 80 6F 80 70 80 71  80 15 80 15 80 15 80 15  .n.o.p.q........
1490: 80 15 80 15 80 72 80 73  80 74 80 75 80 76 80 77  .....r.s.t.u.v.w
14A0: 80 78 80 79 80 7A 80 7B  80 15 80 15 80 15 80 15  .x.y.z.{........
14B0: 80 15 80 15 80 7C 80 7D  80 7E 80 7F 80 80 80 81  .....|.}.~......
14C0: 80 82 80 83 80 84 80 85  80 15 80 15 80 15 80 15  ................
14D0: 80 15 80 15 80 86 80 87  80 88 80 89 80 8A 80 8B  ................
14E0: 80 8C 80 8D 80 8E 80 8F  80 15 80 15 80 15 80 15  ................
14F0: 80 15 80 15 80 90 80 91  80 92 80 93 80 94 80 95  ................
1500: 80 96 80 97 80 98 80 99  80 15 80 15 80 15 80 15  ................
1510: 80 15 80 15 80 9A 80 9B  80 9C 80 9D 80 9E 80 9F  ................
1520: 80 A0 80 A1 80 A2 80 A3  80 15 80 15 80 15 80 15  ................
1530: 80 15 80 15 80 A4 80 A5  80 A6 80 A7 80 A8 80 A9  ................
1540: 80 AA 80 AB 80 AC 80 AD  80 15 80 15 80 15 80 15  ................
1550: 80 15 80 15 80 AE 80 AF  80 B0 80 B1 80 B2 80 B3  ................
1560: 80 B4 80 B5 80 B6 80 B7  80 15 80 15 80 15 80 15  ................
1570: 80 15 80 15 80 B8 80 B9  80 BA 80 BB 80 BC 80 BD  ................
1580: 80 BE 80 BF 80 C0 80 C1  80 15 80 15 80 15 80 15  ................
1590: 80 15 80 15 80 C2 80 C3  80 C4 80 C5 80 C6 80 C7  ................
15A0: 80 C8 80 C9 80 CA 80 CB  80 15 80 15 80 15 80 15  ................
15B0: 80 15 80 15 80 CC 80 CD  80 CE 80 CF 80 D0 80 D1  ................
15C0: 80 D2 80 D3 80 D4 80 D5  80 15 80 15 80 15 80 15  ................
15D0: 80 15 80 15 80 D6 80 D7  80 D8 80 D9 80 DA 80 DB  ................
15E0: 80 DC 80 DD 80 DE 80 DF  80 15 80 15 80 15 80 15  ................
15F0: 80 15 80 15 80 E0 80 E1  80 E2 80 E3 80 E4 80 E5  ................
1600: 80 E6 80 E7 80 E8 80 E9  80 15 80 15 80 15 80 15  ................
1610: 80 15 80 15 80 EA 80 EB  80 EC 80 ED 80 EE 80 EF  ................
1620: 80 F0 80 F1 80 F2 80 F3  80 15 80 15 80 15 80 15  ................
1630: 80 15 80 15 80 F4 80 F5  80 F6 80 F7 80 F8 80 F9  ................
1640: 80 FA 80 FB 80 FC 80 FD  80 15 80 15 80 15 80 15  ................
1650: 80 15 80 15 80 FE 80 FF  80 00 81 01 81 02 81 03  ................
1660: 81 04 81 05 81 06 81 07  81 15 80 15 80 15 80 15  ................
1670: 80 15 80 15 80 08 81 09  81 0A 81 0B 81 0C 81 0D  ................
1680: 81 0E 81 0F 81 10 81 11  81 15 80 15 80 15 80 15  ................
1690: 80 15 80 15 80 12 81 13  81 14 81 15 81 16 81 17  ................
16A0: 81 18 81 19 81 1A 81 1B  81 15 80 15 80 15 80 15  ................
16B0: 80 15 80 15 80 1C 81 1D  81 1E 81 1F 81 20 81 21  ............. .!
16C0: 81 22 81 23 81 24 81 25  81 26 81 27 81 28 81 29  .".#.$.%.&.'.(.)
16D0: 81 2A 81 2B 81 2C 81 2D  81 2E 81 2F 81 30 81 31  .*.+.,.-.../.0.1
16E0: 81 15 80 15 80 32 81 33  81 34 81 35 81 36 81 37  .....2.3.4.5.6.7
16F0: 81 38 81 39 81 3A 81 3B  81 3C 81 3D 81 3E 81 3F  .8.9.:.;.<.=.>.?
1700: 81 40 81 41 81 42 81 43  81 44 81 45 81 46 81 47  .@.A.B.C.D.E.F.G
1710: 81 15 80 15 80 48 81 49  81 4A 81 4B 81 4C 81 4D  .....H.I.J.K.L.M
1720: 81 4E 81 4F 81 50 81 51  81 52 81 53 81 54 81 55  .N.O.P.Q.R.S.T.U
1730: 81 56 81 57 81 58 81 59  81 5A 81 5B 81 5C 81 5D  .V.W.X.Y.Z.[.\.]
1740: 81 15 80 15 80 5E 81 5F  81 60 81 61 81 62 81 63  .....^._.`.a.b.c
1750: 81 64 81 65 81 66 81 67  81 68 81 69 81 6A 81 6B  .d.e.f.g.h.i.j.k
1760: 81 6C 81 6D 81 6E 81 6F  81 70 81 71 81 72 81 73  .l.m.n.o.p.q.r.s
1770: 81 15 80 15 80 74 81 75  81 76 81 77 81 78 81 79  .....t.u.v.w.x.y
1780: 81 7A 81 7B 81 7C 81 7D  81 7E 81 7F 81 80 81 81  .z.{.|.}.~......
1790: 81 82 81 83 81 84 81 85  81 86 81 87 81 88 81 89  ................
17A0: 81 15 80 15 80 8A 81 8B  81 8C 81 8D 81 8E 81 8F  ................
17B0: 81 90 81 91 81 92 81 93  81 94 81 95 81 96 81 97  ................
17C0: 81 98 81 99 81 9A 81 9B  81 9C 81 9D 81 9E 81 9F  ................
17D0: 81 15 80 15 80 A0 81 A1  81 A2 81 A3 81 A4 81 A5  ................
17E0: 81 A6 81 A7 81 A8 81 A9  81 AA 81 AB 81 AC 81 AD  ................
17F0: 81 AE 81 AF 81 B0 81 B1  81 B2 81 B3 81 B4 81 B5  ................
1800: 81 15 80 15 80 B6 81 B7  81 B8 81 B9 81 BA 81 BB  ................
1810: 81 BC 81 BD 81 BE 81 BF  81 C0 81 C1 81 C2 81 C3  ................
1820: 81 C4 81 C5 81 C6 81 C7  81 C8 81 C9 81 CA 81 CB  ................
1830: 81 15 80 15 80 CC 81 CD  81 CE 81 CF 81 D0 81 D1  ................
1840: 81 D2 81 D3 81 D4 81 D5  81 D6 81 D7 81 D8 81 D9  ................
1850: 81 DA 81 DB 81 DC 81 DD  81 DE 81 DF 81 E0 81 E1  ................
1860: 81 15 80 15 80 E2 81 E3  81 E4 81 E5 81 E6 81 E7  ................
1870: 81 E8 81 E9 81 EA 81 EB  81 EC 81 ED 81 EE 81 EF  ................
1880: 81 F0 81 F1 81 F2 81 F3  81 F4 81 F5 81 F6 81 F7  ................
1890: 81 15 80 15 80 00 11 00  14 00 17 00 1A 00 1D 00  ................
18A0: 15 80 15 80 15 80 12 00  15 00 18 00 1B 00 1E 00  ................
18B0: 15 80 15 80 15 80 13 00  16 00 19 00 1C 00 1F 00  ................
18C0: 15 80 15 80 15 80 40 15  80 1B 80 01 10 26 80 43  ......@......&.C
18D0: 00 43 01 03 14 00 02 10  03 15 00 03 10 03 16 00  .C..............
18E0: 04 10 03 11 00 05 10 03  12 00 06 10 03 13 00 07  ................
18F0: 10 40 15 80 1B 80 01 10  27 80 43 00 43 01 03 1A  .@......'.C.C...
1900: 00 02 10 03 1B 00 03 10  03 1C 00 04 10 03 17 00  ................
1910: 05 10 03 18 00 06 10 03  19 00 07 10 40 15 80 1B  ............@...
1920: 80 01 10 28 80 43 00 43  01 03 1D 00 02 10 03 1E  ...(.C.C........
1930: 00 03 10 03 1F 00 04 10  1B D4 04 15 80 0C 00 11  ................
1940: 00 12 00 13 00 D4 04 00  80 0D 00 14 00 15 00 16  ................
1950: 00 D4 04 22 80 0E 00 17  00 18 00 19 00 D4 04 16  ..."............
1960: 80 0F 00 1A 00 1B 00 1C  00 D4 04 2D 80 10 00 1D  ...........-....
1970: 00 1E 00 1F 00 03 02 10  0C 00 03 03 10 0D 00 03  ................
1980: 04 10 0E 00 03 05 10 0F  00 03 06 10 10 00 1B     ............... 
```

#### Opcodes

```
  0: 0x00B5 [0x03] ExtData[1]->WorkLocal[7] = Work_Zone[2]
  1: 0x00BA [0x1E] EventEntity looks at LocalPlayer and starts talking
  2: 0x00BF [0x1C] WAIT(1* ticks)
  3: 0x00C2 [0x03] ExtData[1]->WorkLocal[3] = 0*
  4: 0x00C7 [0x03] ExtData[1]->WorkLocal[4] = 0*
  5: 0x00CC [0x03] ExtData[1]->WorkLocal[5] = 0*
  6: 0x00D1 [0x03] ExtData[1]->WorkLocal[6] = 0*
  7: 0x00D6 [0x24] CREATE_DIALOG(message_id=7261*, default_option=ExtData[1]->WorkLocal[3], option_flags=ExtData[1]->WorkLocal[7])
    → "Inquire about what? [Level settings./Temenos./Temenos Units./The Temenos Furnace./Equipment list./Grace./Nothing for now.]"
  8: 0x00DD [0x25] WAIT_DIALOG_SELECT()
  9: 0x00DE [0x02] IF !(Work_Zone[0] == 0*) GOTO 0x01FC
 10: 0x00E6 [0x03] ExtData[1]->WorkLocal[3] = Work_Zone[0]
 11: 0x00EB [0x40] SET_BIT_WORK_RANGE(start_bit=0*, end_bit=15*, target=Work_Zone[1], source=1*)
 12: 0x00F4 [0x43] SEND_EVENT_UPDATE: Send pending tag to server (packet 0x005B)
 13: 0x00F6 [0x43] SEND_EVENT_UPDATE: Check pending flag (skip if not pending)
 14: 0x00F8 [0x03] ExtData[1]->WorkLocal[0] = Work_Zone[2]
 15: 0x00FD [0x03] ExtData[1]->WorkLocal[1] = Work_Zone[3]
 16: 0x0102 [0x07] ExtData[1]->WorkLocal[0] += 118*
 17: 0x0107 [0x03] Work_Zone[2] = 349*
 18: 0x010C [0x03] Work_Zone[3] = 130*
 19: 0x0111 [0x1D] PRINT_EVENT_MESSAGE(message_id=7253*)
    → "Enter a level value between 119 and $1 to be recorded in your $3."
 20: 0x0114 [0x23] WAIT_FOR_DIALOG_INTERACTION
 21: 0x0115 [0x48] [System] [7255*]:
    → "Enter 0 to cancel."
 22: 0x0118 [0x02] IF !(ExtData[1]->WorkLocal[1] == 0*) GOTO 0x0123
 23: 0x0120 [0x01] GOTO 0x0126
 24: 0x0123 [0x48] [System] [7257*]:
    → "Increasing the level will reset your progress."

SUBROUTINE_0126:
 25: 0x0126 [0x03] Work_Zone[1] = 0*
 26: 0x012B [0x71] USER_INPUT_HANDLER: Open numerical input with params (work=[1*, 3*])
 27: 0x0131 [0x71] USER_INPUT_HANDLER: Process numerical input B (work=ExtData[1]->WorkLocal[2])
 28: 0x0135 [0x02] IF !(ExtData[1]->WorkLocal[2] == 0*) GOTO 0x0140
 29: 0x013D [0x01] GOTO 0x01F9
 30: 0x0140 [0x02] IF !(ExtData[1]->WorkLocal[2] < 119*) GOTO 0x01F6
 31: 0x0148 [0x02] IF !(ExtData[1]->WorkLocal[2] > 130*) GOTO 0x01F0
 32: 0x0150 [0x42] SET_CLI_EVENT_CANCEL_DATA()
 33: 0x0151 [0x02] IF !(ExtData[1]->WorkLocal[1] == 0*) GOTO 0x017C
 34: 0x0159 [0x03] Work_Zone[2] = 349*
 35: 0x015E [0x03] Work_Zone[3] = ExtData[1]->WorkLocal[2]
 36: 0x0163 [0x40] SET_BIT_WORK_RANGE(start_bit=0*, end_bit=10*, target=Work_Zone[1], source=1*)
 37: 0x016C [0x40] SET_BIT_WORK_RANGE(start_bit=16*, end_bit=31*, target=Work_Zone[1], source=ExtData[1]->WorkLocal[2])
 38: 0x0175 [0x1D] PRINT_EVENT_MESSAGE(message_id=7254*)
    → ""$1" has been recorded in your $3."
 39: 0x0178 [0x23] WAIT_FOR_DIALOG_INTERACTION
 40: 0x0179 [0x01] GOTO 0x01ED
 41: 0x017C [0x02] IF !(ExtData[1]->WorkLocal[2] <= ExtData[1]->WorkLocal[0]) GOTO 0x01CD
 42: 0x0184 [0x48] [System] [7257*]:
    → "Increasing the level will reset your progress."
 43: 0x0187 [0x24] CREATE_DIALOG(message_id=7258*, default_option=1*, option_flags=0*)
    → "What will you do? [Change level and reset./Never mind.]"
 44: 0x018E [0x25] WAIT_DIALOG_SELECT()
 45: 0x018F [0x02] IF !(Work_Zone[0] == 0*) GOTO 0x01BA
 46: 0x0197 [0x03] Work_Zone[2] = 349*
 47: 0x019C [0x03] Work_Zone[3] = ExtData[1]->WorkLocal[2]
 48: 0x01A1 [0x40] SET_BIT_WORK_RANGE(start_bit=0*, end_bit=10*, target=Work_Zone[1], source=1*)
 49: 0x01AA [0x40] SET_BIT_WORK_RANGE(start_bit=16*, end_bit=31*, target=Work_Zone[1], source=ExtData[1]->WorkLocal[2])
 50: 0x01B3 [0x1D] PRINT_EVENT_MESSAGE(message_id=7254*)
    → ""$1" has been recorded in your $3."
 51: 0x01B6 [0x23] WAIT_FOR_DIALOG_INTERACTION
 52: 0x01B7 [0x01] GOTO 0x01CA
 53: 0x01BA [0x02] IF !(Work_Zone[0] == 1*) GOTO 0x01CA
 54: 0x01C2 [0x03] Work_Zone[1] = 0*
 55: 0x01C7 [0x01] GOTO 0x01CA

SUBROUTINE_01CA:
 56: 0x01CA [0x01] GOTO 0x01ED
 57: 0x01CD [0x03] Work_Zone[2] = 349*
 58: 0x01D2 [0x03] Work_Zone[3] = ExtData[1]->WorkLocal[2]
 59: 0x01D7 [0x40] SET_BIT_WORK_RANGE(start_bit=0*, end_bit=10*, target=Work_Zone[1], source=1*)
 60: 0x01E0 [0x40] SET_BIT_WORK_RANGE(start_bit=16*, end_bit=31*, target=Work_Zone[1], source=ExtData[1]->WorkLocal[2])
 61: 0x01E9 [0x1D] PRINT_EVENT_MESSAGE(message_id=7254*)
    → ""$1" has been recorded in your $3."
 62: 0x01EC [0x23] WAIT_FOR_DIALOG_INTERACTION

SUBROUTINE_01ED:
 63: 0x01ED [0x01] GOTO 0x01F3
 64: 0x01F0 [0x01] GOTO 0x0107

SUBROUTINE_01F3:
 65: 0x01F3 [0x01] GOTO 0x01F9
 66: 0x01F6 [0x01] GOTO 0x0107

SUBROUTINE_01F9:
 67: 0x01F9 [0x01] GOTO 0x13D1
 68: 0x01FC [0x02] IF !(Work_Zone[0] == 1*) GOTO 0x0238
 69: 0x0204 [0x03] ExtData[1]->WorkLocal[3] = Work_Zone[0]
 70: 0x0209 [0x03] Work_Zone[2] = 349*
 71: 0x020E [0x1D] PRINT_EVENT_MESSAGE(message_id=7239*)
    → "Welcome to Temenos. This place is designed for the generation of new life-forms."
 72: 0x0211 [0x23] WAIT_FOR_DIALOG_INTERACTION
 73: 0x0212 [0x1D] PRINT_EVENT_MESSAGE(message_id=7240*)
    → "North, West, East, and Central Towers contain monsters for recording data in your $3."
 74: 0x0215 [0x23] WAIT_FOR_DIALOG_INTERACTION
 75: 0x0216 [0x1D] PRINT_EVENT_MESSAGE(message_id=7241*)
    → "Successfully recording data will permit you to open Temenos Coffers."
 76: 0x0219 [0x23] WAIT_FOR_DIALOG_INTERACTION
 77: 0x021A [0x1D] PRINT_EVENT_MESSAGE(message_id=7242*)
    → "You will also be authorized to collect a special currency called Temenos Units."
 78: 0x021D [0x23] WAIT_FOR_DIALOG_INTERACTION
 79: 0x021E [0x1D] PRINT_EVENT_MESSAGE(message_id=7243*)
    → "Systems are only capable of recording data for each registrant a total of five times per week (Earth time)."
 80: 0x0221 [0x23] WAIT_FOR_DIALOG_INTERACTION
 81: 0x0222 [0x1D] PRINT_EVENT_MESSAGE(message_id=7244*)
    → "Temenos Units can be used in the Temenos Furnace."
 82: 0x0225 [0x23] WAIT_FOR_DIALOG_INTERACTION
 83: 0x0226 [0x1D] PRINT_EVENT_MESSAGE(message_id=7245*)
    → "Please use it to your advantage."
 84: 0x0229 [0x23] WAIT_FOR_DIALOG_INTERACTION
 85: 0x022A [0x1D] PRINT_EVENT_MESSAGE(message_id=7246*)
    → "Special Limbus buffs known as Grace are also available to those who have deposited a sufficient amount of currency."
 86: 0x022D [0x23] WAIT_FOR_DIALOG_INTERACTION
 87: 0x022E [0x1D] PRINT_EVENT_MESSAGE(message_id=7247*)
    → "The more data, the stronger the Grace."
 88: 0x0231 [0x23] WAIT_FOR_DIALOG_INTERACTION
 89: 0x0232 [0x01] GOTO 0x00D6

SUBROUTINE_026D:
 90: 0x026D [0x24] CREATE_DIALOG(message_id=7264*, default_option=ExtData[1]->WorkLocal[4], option_flags=0*)
    → "Inquire about which? [Agoge Armor./Hesychast's Attire./Piety Attire./Archmage's Attire./Vitiation Armor./Plunderer's Attire./Caballarius Armor./Fallen's Armor./Ankusa Armor./Bihu Attire./Arcadian Attire./Sakonji Armor./Mochizuki Armor./Telos Armor./Glyphic Attire./Luhlaza Attire./Lanuna Attire./Pitre Attire./Horos Attire./Pedagogy Attire./Bagua Attire./Futhark Attire./Nothing for now.]"
 91: 0x0274 [0x25] WAIT_DIALOG_SELECT()
 92: 0x0275 [0x02] IF !(Work_Zone[0] == 0*) GOTO 0x0339
 93: 0x027D [0x03] ExtData[1]->WorkLocal[4] = Work_Zone[0]
 94: 0x0282 [0x03] ExtData[1]->WorkLocal[5] = 0*
 95: 0x0287 [0x40] SET_BIT_WORK_RANGE(start_bit=16*, end_bit=31*, target=Work_Zone[1], source=0*)
 96: 0x0290 [0x1A] CALL_SUBROUTINE(address=0x18C6)
 97: 0x0293 [0x9D] IF (0x13F5) 5* = ExtData[1]->WorkLocal[12] // extra=0x801E
 98: 0x029D [0x9D] IF (0x13F5) 6* = ExtData[1]->WorkLocal[13] // extra=0x801E
 99: 0x02A7 [0x9D] IF (0x13F5) 7* = ExtData[1]->WorkLocal[14] // extra=0x801E
100: 0x02B1 [0x9D] IF (0x13F5) 8* = ExtData[1]->WorkLocal[15] // extra=0x801E
101: 0x02BB [0x9D] IF (0x13F5) 9* = ExtData[1]->WorkLocal[16] // extra=0x801E

SUBROUTINE_02C5:
102: 0x02C5 [0x1A] CALL_SUBROUTINE(address=0x1939)
103: 0x02C8 [0xD4] MAP_QUERY_WINDOW: Test and open query window (flag=0x2B, work=[0x0580, 0x1500, 0x2580])
104: 0x02D1 [0x02] IF !(Work_Zone[0] == 5*) GOTO 0x02DF
105: 0x02D9 [0x01] GOTO 0x026D

SUBROUTINE_0389:
106: 0x0389 [0x1A] CALL_SUBROUTINE(address=0x1939)
107: 0x038C [0xD4] MAP_QUERY_WINDOW: Test and open query window (flag=0x2B, work=[0x0580, 0x1500, 0x2580])
108: 0x0395 [0x02] IF !(Work_Zone[0] == 5*) GOTO 0x03A3
109: 0x039D [0x01] GOTO 0x026D

SUBROUTINE_044D:
110: 0x044D [0x1A] CALL_SUBROUTINE(address=0x1939)
111: 0x0450 [0xD4] MAP_QUERY_WINDOW: Test and open query window (flag=0x2B, work=[0x0580, 0x1500, 0x2580])
112: 0x0459 [0x02] IF !(Work_Zone[0] == 5*) GOTO 0x0467
113: 0x0461 [0x01] GOTO 0x026D

SUBROUTINE_0511:
114: 0x0511 [0x1A] CALL_SUBROUTINE(address=0x1939)
115: 0x0514 [0xD4] MAP_QUERY_WINDOW: Test and open query window (flag=0x2B, work=[0x0580, 0x1500, 0x2580])
116: 0x051D [0x02] IF !(Work_Zone[0] == 5*) GOTO 0x052B
117: 0x0525 [0x01] GOTO 0x026D

SUBROUTINE_05D5:
118: 0x05D5 [0x1A] CALL_SUBROUTINE(address=0x1939)
119: 0x05D8 [0xD4] MAP_QUERY_WINDOW: Test and open query window (flag=0x2B, work=[0x0580, 0x1500, 0x2580])
120: 0x05E1 [0x02] IF !(Work_Zone[0] == 5*) GOTO 0x05EF
121: 0x05E9 [0x01] GOTO 0x026D

SUBROUTINE_0699:
122: 0x0699 [0x1A] CALL_SUBROUTINE(address=0x1939)
123: 0x069C [0xD4] MAP_QUERY_WINDOW: Test and open query window (flag=0x2B, work=[0x0580, 0x1500, 0x2580])
124: 0x06A5 [0x02] IF !(Work_Zone[0] == 5*) GOTO 0x06B3
125: 0x06AD [0x01] GOTO 0x026D

SUBROUTINE_075D:
126: 0x075D [0x1A] CALL_SUBROUTINE(address=0x1939)
127: 0x0760 [0xD4] MAP_QUERY_WINDOW: Test and open query window (flag=0x2B, work=[0x0580, 0x1500, 0x2580])
128: 0x0769 [0x02] IF !(Work_Zone[0] == 5*) GOTO 0x0777
129: 0x0771 [0x01] GOTO 0x026D

SUBROUTINE_0821:
130: 0x0821 [0x1A] CALL_SUBROUTINE(address=0x1939)
131: 0x0824 [0xD4] MAP_QUERY_WINDOW: Test and open query window (flag=0x2B, work=[0x0580, 0x1500, 0x2580])
132: 0x082D [0x02] IF !(Work_Zone[0] == 5*) GOTO 0x083B
133: 0x0835 [0x01] GOTO 0x026D

SUBROUTINE_08E5:
134: 0x08E5 [0x1A] CALL_SUBROUTINE(address=0x1939)
135: 0x08E8 [0xD4] MAP_QUERY_WINDOW: Test and open query window (flag=0x2B, work=[0x0580, 0x1500, 0x2580])
136: 0x08F1 [0x02] IF !(Work_Zone[0] == 5*) GOTO 0x08FF
137: 0x08F9 [0x01] GOTO 0x026D

SUBROUTINE_09A9:
138: 0x09A9 [0x1A] CALL_SUBROUTINE(address=0x1939)
139: 0x09AC [0xD4] MAP_QUERY_WINDOW: Test and open query window (flag=0x2B, work=[0x0580, 0x1500, 0x2580])
140: 0x09B5 [0x02] IF !(Work_Zone[0] == 5*) GOTO 0x09C3
141: 0x09BD [0x01] GOTO 0x026D

SUBROUTINE_0A6D:
142: 0x0A6D [0x1A] CALL_SUBROUTINE(address=0x1939)
143: 0x0A70 [0xD4] MAP_QUERY_WINDOW: Test and open query window (flag=0x2B, work=[0x0580, 0x1500, 0x2580])
144: 0x0A79 [0x02] IF !(Work_Zone[0] == 5*) GOTO 0x0A87
145: 0x0A81 [0x01] GOTO 0x026D

SUBROUTINE_0B31:
146: 0x0B31 [0x1A] CALL_SUBROUTINE(address=0x1939)
147: 0x0B34 [0xD4] MAP_QUERY_WINDOW: Test and open query window (flag=0x2B, work=[0x0580, 0x1500, 0x2580])
148: 0x0B3D [0x02] IF !(Work_Zone[0] == 5*) GOTO 0x0B4B
149: 0x0B45 [0x01] GOTO 0x026D

SUBROUTINE_0BF5:
150: 0x0BF5 [0x1A] CALL_SUBROUTINE(address=0x1939)
151: 0x0BF8 [0xD4] MAP_QUERY_WINDOW: Test and open query window (flag=0x2B, work=[0x0580, 0x1500, 0x2580])
152: 0x0C01 [0x02] IF !(Work_Zone[0] == 5*) GOTO 0x0C0F
153: 0x0C09 [0x01] GOTO 0x026D

SUBROUTINE_0CB9:
154: 0x0CB9 [0x1A] CALL_SUBROUTINE(address=0x1939)
155: 0x0CBC [0xD4] MAP_QUERY_WINDOW: Test and open query window (flag=0x2B, work=[0x0580, 0x1500, 0x2580])
156: 0x0CC5 [0x02] IF !(Work_Zone[0] == 5*) GOTO 0x0CD3
157: 0x0CCD [0x01] GOTO 0x026D

SUBROUTINE_0D7D:
158: 0x0D7D [0x1A] CALL_SUBROUTINE(address=0x1939)
159: 0x0D80 [0xD4] MAP_QUERY_WINDOW: Test and open query window (flag=0x2B, work=[0x0580, 0x1500, 0x2580])
160: 0x0D89 [0x02] IF !(Work_Zone[0] == 5*) GOTO 0x0D97
161: 0x0D91 [0x01] GOTO 0x026D

SUBROUTINE_0E41:
162: 0x0E41 [0x1A] CALL_SUBROUTINE(address=0x1939)
163: 0x0E44 [0xD4] MAP_QUERY_WINDOW: Test and open query window (flag=0x2B, work=[0x0580, 0x1500, 0x2580])
164: 0x0E4D [0x02] IF !(Work_Zone[0] == 5*) GOTO 0x0E5B
165: 0x0E55 [0x01] GOTO 0x026D

SUBROUTINE_0F05:
166: 0x0F05 [0x1A] CALL_SUBROUTINE(address=0x1939)
167: 0x0F08 [0xD4] MAP_QUERY_WINDOW: Test and open query window (flag=0x2B, work=[0x0580, 0x1500, 0x2580])
168: 0x0F11 [0x02] IF !(Work_Zone[0] == 5*) GOTO 0x0F1F
169: 0x0F19 [0x01] GOTO 0x026D

SUBROUTINE_0FC9:
170: 0x0FC9 [0x1A] CALL_SUBROUTINE(address=0x1939)
171: 0x0FCC [0xD4] MAP_QUERY_WINDOW: Test and open query window (flag=0x2B, work=[0x0580, 0x1500, 0x2580])
172: 0x0FD5 [0x02] IF !(Work_Zone[0] == 5*) GOTO 0x0FE3
173: 0x0FDD [0x01] GOTO 0x026D

SUBROUTINE_108D:
174: 0x108D [0x1A] CALL_SUBROUTINE(address=0x1939)
175: 0x1090 [0xD4] MAP_QUERY_WINDOW: Test and open query window (flag=0x2B, work=[0x0580, 0x1500, 0x2580])
176: 0x1099 [0x02] IF !(Work_Zone[0] == 5*) GOTO 0x10A7
177: 0x10A1 [0x01] GOTO 0x026D

SUBROUTINE_1151:
178: 0x1151 [0x1A] CALL_SUBROUTINE(address=0x1939)
179: 0x1154 [0xD4] MAP_QUERY_WINDOW: Test and open query window (flag=0x2B, work=[0x0580, 0x1500, 0x2580])
180: 0x115D [0x02] IF !(Work_Zone[0] == 5*) GOTO 0x116B
181: 0x1165 [0x01] GOTO 0x026D

SUBROUTINE_1215:
182: 0x1215 [0x1A] CALL_SUBROUTINE(address=0x1939)
183: 0x1218 [0xD4] MAP_QUERY_WINDOW: Test and open query window (flag=0x2B, work=[0x0580, 0x1500, 0x2580])
184: 0x1221 [0x02] IF !(Work_Zone[0] == 5*) GOTO 0x122F
185: 0x1229 [0x01] GOTO 0x026D

SUBROUTINE_12D9:
186: 0x12D9 [0x1A] CALL_SUBROUTINE(address=0x1939)
187: 0x12DC [0xD4] MAP_QUERY_WINDOW: Test and open query window (flag=0x2B, work=[0x0580, 0x1500, 0x2580])
188: 0x12E5 [0x02] IF !(Work_Zone[0] == 5*) GOTO 0x12F3
189: 0x12ED [0x01] GOTO 0x026D

SUBROUTINE_135B:
190: 0x135B [0x01] GOTO 0x00D6

SUBROUTINE_139D:
191: 0x139D [0x02] IF !(Work_Zone[4] == 0*) GOTO 0x13A8
192: 0x13A5 [0x01] GOTO 0x13AC
193: 0x13A8 [0x1D] PRINT_EVENT_MESSAGE(message_id=7269*)
    → "$3 effects: BPALL+$3."
194: 0x13AB [0x23] WAIT_FOR_DIALOG_INTERACTION

SUBROUTINE_13AC:
195: 0x13AC [0x02] IF !(Work_Zone[6] == 0*) GOTO 0x13B7
196: 0x13B4 [0x01] GOTO 0x13BB
197: 0x13B7 [0x1D] PRINT_EVENT_MESSAGE(message_id=7270*)
    → "$3 effects: Max. HP+$5 EXP Loss Reduction: $6% MEXP Loss Reduction: $6%"
198: 0x13BA [0x23] WAIT_FOR_DIALOG_INTERACTION

SUBROUTINE_13BB:
199: 0x13BB [0x01] GOTO 0x00D6

SUBROUTINE_13D1:
200: 0x13D1 [0x2E] SET_CLI_EVENT_CANCEL_FLAGS()
201: 0x13D2 [0x20] SET_CLI_EVENT_UC_FLAG: Unlock player control
202: 0x13D4 [0x21] END_EVENT

SUBROUTINE_1939:
203: 0x1939 [0xD4] MAP_QUERY_WINDOW: Prepare buffer configuration B (buffer=[15 80 0C 00 11 00 12 00...])
204: 0x1957 [0x17] 0x1800 = cos(0x1900) * 0xD400
205: 0x195E [0x04] DEPRECATED_NOP(unused=0x8016)
206: 0x1961 [0x0F] 0x1A00 ^= 0x1B00
207: 0x1966 [0x00] END_REQSTACK()
```

#### Data or dead code:

```
# Dead code (unreachable instructions):
     0x0235 [0x01] GOTO 0x13D1
     0x0259 [0x01] GOTO 0x13D1
# Dead code (unreachable instructions):
     0x02DC [0x01] GOTO 0x0336
     0x0336 [0x01] GOTO 0x135B
# Dead code (unreachable instructions):
     0x03A0 [0x01] GOTO 0x03FA
     0x03FA [0x01] GOTO 0x135B
# Dead code (unreachable instructions):
     0x0464 [0x01] GOTO 0x04BE
     0x04BE [0x01] GOTO 0x135B
# Dead code (unreachable instructions):
     0x0528 [0x01] GOTO 0x0582
     0x0582 [0x01] GOTO 0x135B
# Dead code (unreachable instructions):
     0x05EC [0x01] GOTO 0x0646
     0x0646 [0x01] GOTO 0x135B
# Dead code (unreachable instructions):
     0x06B0 [0x01] GOTO 0x070A
     0x070A [0x01] GOTO 0x135B
# Dead code (unreachable instructions):
     0x0774 [0x01] GOTO 0x07CE
     0x07CE [0x01] GOTO 0x135B
# Dead code (unreachable instructions):
     0x0838 [0x01] GOTO 0x0892
     0x0892 [0x01] GOTO 0x135B
# Dead code (unreachable instructions):
     0x08FC [0x01] GOTO 0x0956
     0x0956 [0x01] GOTO 0x135B
# Dead code (unreachable instructions):
     0x09C0 [0x01] GOTO 0x0A1A
     0x0A1A [0x01] GOTO 0x135B
# Dead code (unreachable instructions):
     0x0A84 [0x01] GOTO 0x0ADE
     0x0ADE [0x01] GOTO 0x135B
# Dead code (unreachable instructions):
     0x0B48 [0x01] GOTO 0x0BA2
     0x0BA2 [0x01] GOTO 0x135B
# Dead code (unreachable instructions):
     0x0C0C [0x01] GOTO 0x0C66
     0x0C66 [0x01] GOTO 0x135B
# Dead code (unreachable instructions):
     0x0CD0 [0x01] GOTO 0x0D2A
     0x0D2A [0x01] GOTO 0x135B
# Dead code (unreachable instructions):
     0x0D94 [0x01] GOTO 0x0DEE
     0x0DEE [0x01] GOTO 0x135B
# Dead code (unreachable instructions):
     0x0E58 [0x01] GOTO 0x0EB2
     0x0EB2 [0x01] GOTO 0x135B
# Dead code (unreachable instructions):
     0x0F1C [0x01] GOTO 0x0F76
     0x0F76 [0x01] GOTO 0x135B
# Dead code (unreachable instructions):
     0x0FE0 [0x01] GOTO 0x103A
     0x103A [0x01] GOTO 0x135B
# Dead code (unreachable instructions):
     0x10A4 [0x01] GOTO 0x10FE
     0x10FE [0x01] GOTO 0x135B
# Dead code (unreachable instructions):
     0x1168 [0x01] GOTO 0x11C2
     0x11C2 [0x01] GOTO 0x135B
# Dead code (unreachable instructions):
     0x122C [0x01] GOTO 0x1286
     0x1286 [0x01] GOTO 0x135B
# Dead code (unreachable instructions):
     0x12F0 [0x01] GOTO 0x134A
     0x134A [0x01] GOTO 0x135B
     0x1358 [0x01] GOTO 0x135B
# Dead code (unreachable instructions):
     0x135E [0x01] GOTO 0x13D1
     0x1371 [0x01] GOTO 0x13D1
# Dead code (unreachable instructions):
     0x13BE [0x01] GOTO 0x13D1
# Dead code (unreachable instructions):
     0x13D5 [0x02] IF !(0x0310 == 0x0410) GOTO 0x1005
     0x13DD [0x06] 0x1510 = 0
     0x13E0 [0x80] LOAD_WAIT(entity=Unknown NPC (ID: 2148892693/0x80158015))
     0x13E5 [0x3B] GET_ENTITY_POSITION(entity=Unknown NPC (ID: 1031814272/0x3D803C80), x_destination=0x3E80, y_destination=0x3F80, z_destination=0x1580)
     0x13F0 [0x80] LOAD_WAIT(entity=Unknown NPC (ID: 2148892693/0x80158015))
     0x13F5 [0x40] SET_BIT_WORK_RANGE(start_bit=0x4180, end_bit=0x4280, target=0x4380, source=0x4480)
     0x13FE [0x80] LOAD_WAIT(entity=Unknown NPC (ID: 2152104005/0x80468045))
     0x1403 [0x47] WAIT_PLAYER_POS_UPDATE
     0x1405 [0x48] [System] [0x4980]:
     0x1408 [0x80] LOAD_WAIT(entity=Unknown NPC (ID: 2148892693/0x80158015))
     0x140D [0x15] 0x1580 /= 0x1580
     0x1412 [0x80] LOAD_WAIT(entity=Unknown NPC (ID: 2152366101/0x804A8015))
     0x1417 [0x4B] UPDATE_ENTITY_YAW(entity=Unknown NPC (ID: 1300253824/0x4D804C80), yaw=0x4E80)
     0x141E [0x80] LOAD_WAIT(entity=Unknown NPC (ID: 2152759375/0x8050804F))
     0x1423 [0x51] END_MAP_SCHEDULER: End scheduler 0x15801580 with entities [Unknown NPC (ID: 1400918656/0x53805280), Unknown NPC (ID: 360715648/0x15801580)]
     0x1430 [0x80] LOAD_WAIT(entity=Unknown NPC (ID: 2148892693/0x80158015))
     0x1435 [0x54] WAIT_MAP_SCHEDULER: Wait for scheduler 0x5A805980 with entities [Unknown NPC (ID: 1451251072/0x56805580), Unknown NPC (ID: 1484806016/0x58805780)]
     0x1442 [0x80] LOAD_WAIT(entity=Unknown NPC (ID: 2153545819/0x805C805B))
     0x1447 [0x5D] SET_MUSIC_VOLUME(volume=0x1580, fade_time=0x1580)
     0x144C [0x80] LOAD_WAIT(entity=Unknown NPC (ID: 2148892693/0x80158015))
     0x1451 [0x15] 0x1580 /= 0x5E80
     0x1456 [0x80] LOAD_WAIT(entity=Unknown NPC (ID: 2153807967/0x8060805F))
     0x145B [0x61] EventEntity->Render.Flags2 &= ~0x00000001
     0x145D [0x62] LOAD_EVENT_SCHEDULER: Load scheduler 0x15801580 with entities [Unknown NPC (ID: 1702913152/0x65806480), Unknown NPC (ID: 1736468096/0x67806680)], work=[0x6380, 0x1580]
     0x146E [0x80] LOAD_WAIT(entity=Unknown NPC (ID: 2148892693/0x80158015))
     0x1473 [0x15] 0x6880 /= 0x6980
     0x1478 [0x80] LOAD_WAIT(entity=Unknown NPC (ID: 2154528874/0x806B806A))
     0x147D [0x6C] FADE_ENTITY_COLOR(entity_id=Unknown NPC (ID: 1853910400/0x6E806D80), end_alpha=0x6F80, fade_time=0x7080)
     0x1486 [0x80] LOAD_WAIT(entity=Unknown NPC (ID: 2148892785/0x80158071))
     0x148B [0x15] 0x1580 /= 0x1580
     0x1490 [0x80] LOAD_WAIT(entity=Unknown NPC (ID: 2148892693/0x80158015))
     0x1495 [0x72] LOAD_EVENT_WEATHER: Unknown mode 128, weather_id=23470*
     0x1499 [0x74] EventEntity->Render.Flags1 ^= 0x00
     0x149B [0x75] LOAD_ROOM(Unknown mode 128, room=23671*)
     0x149F [0x77] SET_EVENT_TIME_WEATHER(hour=0x7880, weather=0x7980)
     0x14A4 [0x80] LOAD_WAIT(entity=Unknown NPC (ID: 2155577466/0x807B807A))
     0x14A9 [0x15] 0x1580 /= 0x1580
     0x14AE [0x80] LOAD_WAIT(entity=Unknown NPC (ID: 2148892693/0x80158015))
     0x14B3 [0x15] 0x7C80 /= 0x7D80
     0x14B8 [0x80] LOAD_WAIT(entity=Unknown NPC (ID: 2155839614/0x807F807E))
     0x14BD [0x80] LOAD_WAIT(entity=Unknown NPC (ID: 2189459840/0x82808180))
     0x14C2 [0x80] LOAD_WAIT(entity=Unknown NPC (ID: 2156167299/0x80848083))
     0x14C7 [0x85] OPEN_MOOGLE_MENU()
     0x14C8 [0x80] LOAD_WAIT(entity=Unknown NPC (ID: 2148892693/0x80158015))
     0x14CD [0x15] 0x1580 /= 0x1580
     0x14D2 [0x80] LOAD_WAIT(entity=Unknown NPC (ID: 2156298261/0x80868015))
     0x14D7 [0x87] WORLD_PASS_HANDLER_A: Send world pass packet 0x1B (Para=0)
     0x14D8 [0x80] LOAD_WAIT(entity=Unknown NPC (ID: 2156494984/0x80898088))
     0x14DD [0x8A] CLOSE_MAP()
     0x14DE [0x80] LOAD_WAIT(entity=Unknown NPC (ID: 2156691595/0x808C808B))
     0x14E3 [0x8D] OPEN_MAP_WITH_PROPERTIES(map_id=References[3712], properties=References[3968])
     0x14E8 [0x80] LOAD_WAIT(entity=Unknown NPC (ID: 2148892693/0x80158015))
     0x14ED [0x15] 0x1580 /= 0x1580
     0x14F2 [0x80] LOAD_WAIT(entity=Unknown NPC (ID: 2156953621/0x80908015))
     0x14F7 [0x91] ExtData[1]->MainSpeedBase = 0x9280 * 10.0
     0x14FA [0x80] LOAD_WAIT(entity=Unknown NPC (ID: 2157215891/0x80948093))
     0x14FF [0x95] SETUP_EVENT_NPC: Prepare NPC for event (Render.Flags3 = 0x9680)
     0x1502 [0x80] LOAD_WAIT(entity=Unknown NPC (ID: 2157478039/0x80988097))
     0x1507 [0x99] Wait for Unknown NPC (ID: 360715648/0x15801580) animation to complete
     0x150C [0x80] LOAD_WAIT(entity=Unknown NPC (ID: 2148892693/0x80158015))
     0x1511 [0x15] 0x1580 /= 0x9A80
     0x1516 [0x80] LOAD_WAIT(entity=Unknown NPC (ID: 2157740187/0x809C809B))
     0x151B [0x9D] OPCODE_9D[0x80]: Unknown
     0x151D [0x9E] SET_RECT_EVENT_SEND_FLAG: Notify client of area movement
     0x151F [0x9F] LOAD_SCHEDULED_TASK_ALT: Load scheduler 0x15801580 with entities [Unknown NPC (ID: 2726338944/0xA280A180), Unknown NPC (ID: 360752000/0x1580A380)], work=[0xA080, 0x1580]
     0x1530 [0x80] LOAD_WAIT(entity=Unknown NPC (ID: 2148892693/0x80158015))
     0x1535 [0xA4] EventEntity->Flags3.unknown_3_2 = 0
     0x1537 [0xA5] EventEntity->Flags3.BallistaTeam &= ~0x08  // Clear bit 3 of BallistaTeam
     0x1539 [0xA6] REQUEST_EVENT_MAP_NUMBER: Request map info from server (mode 128) (0x00EB packet)
     0x153B [0xA7] BATTLEFIELD_RESPONSE_WAIT: Wait for server response (Dynamis/MMM/Salvage), mode=0x80
     0x153D [0xA8] MAP_MARKER_CONTROL: Control markers (flag=0x80), zone=23928*, marker=23973*
     0x1543 [0xAB] ADJUST_ENTITY_FLAGS: Unknown sub_case 0x80
     0x1545 [0xAC] ENTITY_STATUS_HANDLER: Invalid case 0x80 (bad parse?)
     0x1549 [0x15] 0x1580 /= 0x1580
     0x154E [0x80] LOAD_WAIT(entity=Unknown NPC (ID: 2148892693/0x80158015))
     0x1553 [0x15] 0xAE80 /= 0xAF80
     0x1558 [0x80] LOAD_WAIT(entity=Unknown NPC (ID: 2159116464/0x80B180B0))
     0x155D [0xB2] DELIVERY_BOX_HANDLER(mode=0x80)
     0x155F [0xB3] RANKINGS_BOARD_HANDLER(case_type=0x80)
     0x1561 [0xB4] UI_WINDOW_STRING_HANDLER(case=0x80 - Unknown case 0x80)
     0x1563 [0xB5] SET_EVENT_ENTITY_NAME: Change EventEntity name to "^"*
     0x1567 [0xB7] ENTITY_DATA_HANDLER: Unknown case 0x80 for Unknown NPC (ID: 2148892693/0x80158015)
     0x156F [0x15] 0x1580 /= 0x1580
     0x1574 [0x80] LOAD_WAIT(entity=Unknown NPC (ID: 2159640760/0x80B980B8))
     0x1579 [0xBA] SET_ENTITY_POSITION(entity_id=Unknown NPC (ID: 3162553216/0xBC80BB80), pos_x=0xBD80, pos_z=0xBE80, pos_y=0xBF80, direction=0xC080)
     0x1586 [0x80] LOAD_WAIT(entity=Unknown NPC (ID: 2148892865/0x801580C1))
     0x158B [0x15] 0x1580 /= 0x1580
     0x1590 [0x80] LOAD_WAIT(entity=Unknown NPC (ID: 2148892693/0x80158015))
     0x1595 [0xC2] PARTY_STATE_CHECK: Unknown mode 0x80
     0x1597 [0xC3] COPY_STRING_TO_ARRAY(array_index=0xC480, string_value=0xC580, additional_value=0xC680)
     0x159E [0x80] LOAD_WAIT(entity=Unknown NPC (ID: 2160623815/0x80C880C7))
     0x15A3 [0xC9] ENABLE_GAME_TIMER()
     0x15A4 [0x80] LOAD_WAIT(entity=Unknown NPC (ID: 2160820426/0x80CB80CA))
     0x15A9 [0x15] 0x1580 /= 0x1580
     0x15AE [0x80] LOAD_WAIT(entity=Unknown NPC (ID: 2148892693/0x80158015))
     0x15B3 [0x15] 0xCC80 /= 0xCD80
     0x15B8 [0x80] LOAD_WAIT(entity=Unknown NPC (ID: 2161082574/0x80CF80CE))
     0x15BD [0xD0] LOAD_SCHEDULED_TASK_ALT5: Load scheduler 0x15801580 with entities [Unknown NPC (ID: 3548435072/0xD380D280), Unknown NPC (ID: 3581990016/0xD580D480)], work=[0xD180, 0x1580]
     0x15CE [0x80] LOAD_WAIT(entity=Unknown NPC (ID: 2148892693/0x80158015))
     0x15D3 [0x15] 0xD680 /= 0xD780
     0x15D8 [0x80] LOAD_WAIT(entity=Unknown NPC (ID: 2161737944/0x80D980D8))
     0x15DD [0xDA] UNKNOWN_0xDA
     0x15DE [0x80] LOAD_WAIT(entity=Unknown NPC (ID: 2161934555/0x80DC80DB))
     0x15E3 [0xDD] UNKNOWN_0xDD
     0x15E4 [0x80] LOAD_WAIT(entity=Unknown NPC (ID: 2162131166/0x80DF80DE))
     0x15E9 [0x15] 0x1580 /= 0x1580
     0x15EE [0x80] LOAD_WAIT(entity=Unknown NPC (ID: 2148892693/0x80158015))
     0x15F3 [0x15] 0xE080 /= 0xE180
     0x15F8 [0x80] LOAD_WAIT(entity=Unknown NPC (ID: 2162393314/0x80E380E2))
     0x15FD [0xE4] UNKNOWN_0xE4
     0x15FE [0x80] LOAD_WAIT(entity=Unknown NPC (ID: 2162589925/0x80E680E5))
     0x1603 [0xE7] UNKNOWN_0xE7
     0x1604 [0x80] LOAD_WAIT(entity=Unknown NPC (ID: 2162786536/0x80E980E8))
     0x1609 [0x15] 0x1580 /= 0x1580
     0x160E [0x80] LOAD_WAIT(entity=Unknown NPC (ID: 2148892693/0x80158015))
     0x1613 [0x15] 0xEA80 /= 0xEB80
     0x1618 [0x80] LOAD_WAIT(entity=Unknown NPC (ID: 2163048684/0x80ED80EC))
     0x161D [0xEE] UNKNOWN_0xEE
     0x161E [0x80] LOAD_WAIT(entity=Unknown NPC (ID: 2163245295/0x80F080EF))
     0x1623 [0xF1] UNKNOWN_0xF1
     0x1624 [0x80] LOAD_WAIT(entity=Unknown NPC (ID: 2163441906/0x80F380F2))
     0x1629 [0x15] 0x1580 /= 0x1580
     0x162E [0x80] LOAD_WAIT(entity=Unknown NPC (ID: 2148892693/0x80158015))
     0x1633 [0x15] 0xF480 /= 0xF580
     0x1638 [0x80] LOAD_WAIT(entity=Unknown NPC (ID: 2163704054/0x80F780F6))
     0x163D [0xF8] UNKNOWN_0xF8
     0x163E [0x80] LOAD_WAIT(entity=Unknown NPC (ID: 2163900665/0x80FA80F9))
     0x1643 [0xFB] UNKNOWN_0xFB
     0x1644 [0x80] LOAD_WAIT(entity=Unknown NPC (ID: 2164097276/0x80FD80FC))
     0x1649 [0x15] 0x1580 /= 0x1580
     0x164E [0x80] LOAD_WAIT(entity=Unknown NPC (ID: 2148892693/0x80158015))
     0x1653 [0x15] 0xFE80 /= 0xFF80
     0x1658 [0x80] LOAD_WAIT(entity=Unknown NPC (ID: 2164359424/0x81018100))
     0x165D [0x02] IF !(0x0381 == 0x0481) GOTO 0x8105
     0x1665 [0x06] 0x0781 = 0
     0x1668 [0x81] SET_ENTITY_BLINKING(blink_flag=0x15, entity=Unknown NPC (ID: 360715648/0x15801580))
     0x166E [0x80] LOAD_WAIT(entity=Unknown NPC (ID: 2148892693/0x80158015))
     0x1673 [0x15] 0x0880 /= 0x0981
     0x1678 [0x81] SET_ENTITY_BLINKING(blink_flag=0x0A, entity=Unknown NPC (ID: 209783681/0x0C810B81))
     0x167E [0x81] SET_ENTITY_BLINKING(blink_flag=0x0D, entity=Unknown NPC (ID: 260116097/0x0F810E81))
     0x1684 [0x81] SET_ENTITY_BLINKING(blink_flag=0x10, entity=Unknown NPC (ID: 360780161/0x15811181))
     0x168A [0x80] LOAD_WAIT(entity=Unknown NPC (ID: 2148892693/0x80158015))
     0x168F [0x15] 0x1580 /= 0x1580
     0x1694 [0x80] LOAD_WAIT(entity=Unknown NPC (ID: 2165539090/0x81138112))
     0x1699 [0x14] 0x1581 *= 0x1681
     0x169E [0x81] SET_ENTITY_BLINKING(blink_flag=0x17, entity=Unknown NPC (ID: 427890817/0x19811881))
     0x16A4 [0x81] SET_ENTITY_BLINKING(blink_flag=0x1A, entity=Unknown NPC (ID: 360782721/0x15811B81))
     0x16AA [0x80] LOAD_WAIT(entity=Unknown NPC (ID: 2148892693/0x80158015))
     0x16AF [0x15] 0x1580 /= 0x1580
     0x16B4 [0x80] LOAD_WAIT(entity=Unknown NPC (ID: 2166194460/0x811D811C))
     0x16B9 [0x1E] EventEntity looks at Unknown NPC (ID: 545333121/0x20811F81) and starts talking
     0x16BE [0x81] SET_ENTITY_BLINKING(blink_flag=0x21, entity=Unknown NPC (ID: 595665537/0x23812281))
     0x16C4 [0x81] SET_ENTITY_BLINKING(blink_flag=0x24, entity=Unknown NPC (ID: 645997953/0x26812581))
     0x16CA [0x81] SET_ENTITY_BLINKING(blink_flag=0x27, entity=Unknown NPC (ID: 696330369/0x29812881))
     0x16D0 [0x81] SET_ENTITY_BLINKING(blink_flag=0x2A, entity=Unknown NPC (ID: 746662785/0x2C812B81))
     0x16D6 [0x81] SET_ENTITY_BLINKING(blink_flag=0x2D, entity=Unknown NPC (ID: 796995201/0x2F812E81))
     0x16DC [0x81] SET_ENTITY_BLINKING(blink_flag=0x30, entity=Unknown NPC (ID: 360788353/0x15813181))
     0x16E2 [0x80] LOAD_WAIT(entity=Unknown NPC (ID: 2167570453/0x81328015))
     0x16E7 [0x33] EventEntity->Render.Flags0 ^= 0x200000 // Bit 21 (flag=0x81)
     0x16E9 [0x34] LOAD_UNLOAD_ZONE(zone_id=0x3581)
     0x16EC [0x81] SET_ENTITY_BLINKING(blink_flag=0x36, entity=Unknown NPC (ID: 947992449/0x38813781))
     0x16F2 [0x81] SET_ENTITY_BLINKING(blink_flag=0x39, entity=Unknown NPC (ID: 998324865/0x3B813A81))
     0x16F8 [0x81] SET_ENTITY_BLINKING(blink_flag=0x3C, entity=Unknown NPC (ID: 1048657281/0x3E813D81))
     0x16FE [0x81] SET_ENTITY_BLINKING(blink_flag=0x3F, entity=Unknown NPC (ID: 1098989697/0x41814081))
     0x1704 [0x81] SET_ENTITY_BLINKING(blink_flag=0x42, entity=Unknown NPC (ID: 1149322113/0x44814381))
     0x170A [0x81] SET_ENTITY_BLINKING(blink_flag=0x45, entity=Unknown NPC (ID: 1199654529/0x47814681))
     0x1710 [0x81] SET_ENTITY_BLINKING(blink_flag=0x15, entity=Unknown NPC (ID: 1216353664/0x48801580))
     0x1716 [0x81] SET_ENTITY_BLINKING(blink_flag=0x49, entity=Unknown NPC (ID: 1266764417/0x4B814A81))
     0x171C [0x81] SET_ENTITY_BLINKING(blink_flag=0x4C, entity=Unknown NPC (ID: 1317096833/0x4E814D81))
     0x1722 [0x81] SET_ENTITY_BLINKING(blink_flag=0x4F, entity=Unknown NPC (ID: 1367429249/0x51815081))
     0x1728 [0x81] SET_ENTITY_BLINKING(blink_flag=0x52, entity=Unknown NPC (ID: 1417761665/0x54815381))
     0x172E [0x81] SET_ENTITY_BLINKING(blink_flag=0x55, entity=Unknown NPC (ID: 1468094081/0x57815681))
     0x1734 [0x81] SET_ENTITY_BLINKING(blink_flag=0x58, entity=Unknown NPC (ID: 1518426497/0x5A815981))
     0x173A [0x81] SET_ENTITY_BLINKING(blink_flag=0x5B, entity=Unknown NPC (ID: 1568758913/0x5D815C81))
     0x1740 [0x81] SET_ENTITY_BLINKING(blink_flag=0x15, entity=Unknown NPC (ID: 1585452416/0x5E801580))
     0x1746 [0x81] SET_ENTITY_BLINKING(blink_flag=0x5F, entity=Unknown NPC (ID: 1635868801/0x61816081))
     0x174C [0x81] SET_ENTITY_BLINKING(blink_flag=0x62, entity=Unknown NPC (ID: 1686201217/0x64816381))
     0x1752 [0x81] SET_ENTITY_BLINKING(blink_flag=0x65, entity=Unknown NPC (ID: 1736533633/0x67816681))
     0x1758 [0x81] SET_ENTITY_BLINKING(blink_flag=0x68, entity=Unknown NPC (ID: 1786866049/0x6A816981))
     0x175E [0x81] SET_ENTITY_BLINKING(blink_flag=0x6B, entity=Unknown NPC (ID: 1837198465/0x6D816C81))
     0x1764 [0x81] SET_ENTITY_BLINKING(blink_flag=0x6E, entity=Unknown NPC (ID: 1887530881/0x70816F81))
     0x176A [0x81] SET_ENTITY_BLINKING(blink_flag=0x71, entity=Unknown NPC (ID: 1937863297/0x73817281))
     0x1770 [0x81] SET_ENTITY_BLINKING(blink_flag=0x15, entity=Unknown NPC (ID: 1954551168/0x74801580))
     0x1776 [0x81] SET_ENTITY_BLINKING(blink_flag=0x75, entity=Unknown NPC (ID: 2004973185/0x77817681))
     0x177C [0x81] SET_ENTITY_BLINKING(blink_flag=0x78, entity=Unknown NPC (ID: 2055305601/0x7A817981))
     0x1782 [0x81] SET_ENTITY_BLINKING(blink_flag=0x7B, entity=Unknown NPC (ID: 2105638017/0x7D817C81))
     0x1788 [0x81] SET_ENTITY_BLINKING(blink_flag=0x7E, entity=Unknown NPC (ID: 2155970433/0x80817F81))
     0x178E [0x81] SET_ENTITY_BLINKING(blink_flag=0x81, entity=Unknown NPC (ID: 2206302849/0x83818281))
     0x1794 [0x81] SET_ENTITY_BLINKING(blink_flag=0x84, entity=Unknown NPC (ID: 2256635265/0x86818581))
     0x179A [0x81] SET_ENTITY_BLINKING(blink_flag=0x87, entity=Unknown NPC (ID: 2306967681/0x89818881))
     0x17A0 [0x81] SET_ENTITY_BLINKING(blink_flag=0x15, entity=Unknown NPC (ID: 2323649920/0x8A801580))
     0x17A6 [0x81] SET_ENTITY_BLINKING(blink_flag=0x8B, entity=Unknown NPC (ID: 2374077569/0x8D818C81))
     0x17AC [0x81] SET_ENTITY_BLINKING(blink_flag=0x8E, entity=Unknown NPC (ID: 2424409985/0x90818F81))
     0x17B2 [0x81] SET_ENTITY_BLINKING(blink_flag=0x91, entity=Unknown NPC (ID: 2474742401/0x93819281))
     0x17B8 [0x81] SET_ENTITY_BLINKING(blink_flag=0x94, entity=Unknown NPC (ID: 2525074817/0x96819581))
     0x17BE [0x81] SET_ENTITY_BLINKING(blink_flag=0x97, entity=Unknown NPC (ID: 2575407233/0x99819881))
     0x17C4 [0x81] SET_ENTITY_BLINKING(blink_flag=0x9A, entity=Unknown NPC (ID: 2625739649/0x9C819B81))
     0x17CA [0x81] SET_ENTITY_BLINKING(blink_flag=0x9D, entity=Unknown NPC (ID: 2676072065/0x9F819E81))
     0x17D0 [0x81] SET_ENTITY_BLINKING(blink_flag=0x15, entity=Unknown NPC (ID: 2692748672/0xA0801580))
     0x17D6 [0x81] SET_ENTITY_BLINKING(blink_flag=0xA1, entity=Unknown NPC (ID: 2743181953/0xA381A281))
     0x17DC [0x81] SET_ENTITY_BLINKING(blink_flag=0xA4, entity=Unknown NPC (ID: 2793514369/0xA681A581))
     0x17E2 [0x81] SET_ENTITY_BLINKING(blink_flag=0xA7, entity=Unknown NPC (ID: 2843846785/0xA981A881))
     0x17E8 [0x81] SET_ENTITY_BLINKING(blink_flag=0xAA, entity=Unknown NPC (ID: 2894179201/0xAC81AB81))
     0x17EE [0x81] SET_ENTITY_BLINKING(blink_flag=0xAD, entity=Unknown NPC (ID: 2944511617/0xAF81AE81))
     0x17F4 [0x81] SET_ENTITY_BLINKING(blink_flag=0xB0, entity=Unknown NPC (ID: 2994844033/0xB281B181))
     0x17FA [0x81] SET_ENTITY_BLINKING(blink_flag=0xB3, entity=Unknown NPC (ID: 3045176449/0xB581B481))
     0x1800 [0x81] SET_ENTITY_BLINKING(blink_flag=0x15, entity=Unknown NPC (ID: 3061847424/0xB6801580))
     0x1806 [0x81] SET_ENTITY_BLINKING(blink_flag=0xB7, entity=Unknown NPC (ID: 3112286337/0xB981B881))
     0x180C [0x81] SET_ENTITY_BLINKING(blink_flag=0xBA, entity=Unknown NPC (ID: 3162618753/0xBC81BB81))
     0x1812 [0x81] SET_ENTITY_BLINKING(blink_flag=0xBD, entity=Unknown NPC (ID: 3212951169/0xBF81BE81))
     0x1818 [0x81] SET_ENTITY_BLINKING(blink_flag=0xC0, entity=Unknown NPC (ID: 3263283585/0xC281C181))
     0x181E [0x81] SET_ENTITY_BLINKING(blink_flag=0xC3, entity=Unknown NPC (ID: 3313616001/0xC581C481))
     0x1824 [0x81] SET_ENTITY_BLINKING(blink_flag=0xC6, entity=Unknown NPC (ID: 3363948417/0xC881C781))
     0x182A [0x81] SET_ENTITY_BLINKING(blink_flag=0xC9, entity=Unknown NPC (ID: 3414280833/0xCB81CA81))
     0x1830 [0x81] SET_ENTITY_BLINKING(blink_flag=0x15, entity=Unknown NPC (ID: 3430946176/0xCC801580))
     0x1836 [0x81] SET_ENTITY_BLINKING(blink_flag=0xCD, entity=Unknown NPC (ID: 3481390721/0xCF81CE81))
     0x183C [0x81] SET_ENTITY_BLINKING(blink_flag=0xD0, entity=Unknown NPC (ID: 3531723137/0xD281D181))
     0x1842 [0x81] SET_ENTITY_BLINKING(blink_flag=0xD3, entity=Unknown NPC (ID: 3582055553/0xD581D481))
     0x1848 [0x81] SET_ENTITY_BLINKING(blink_flag=0xD6, entity=Unknown NPC (ID: 3632387969/0xD881D781))
     0x184E [0x81] SET_ENTITY_BLINKING(blink_flag=0xD9, entity=Unknown NPC (ID: 3682720385/0xDB81DA81))
     0x1854 [0x81] SET_ENTITY_BLINKING(blink_flag=0xDC, entity=Unknown NPC (ID: 3733052801/0xDE81DD81))
     0x185A [0x81] SET_ENTITY_BLINKING(blink_flag=0xDF, entity=Unknown NPC (ID: 3783385217/0xE181E081))
     0x1860 [0x81] SET_ENTITY_BLINKING(blink_flag=0x15, entity=Unknown NPC (ID: 3800044928/0xE2801580))
     0x1866 [0x81] SET_ENTITY_BLINKING(blink_flag=0xE3, entity=Unknown NPC (ID: 3850495105/0xE581E481))
     0x186C [0x81] SET_ENTITY_BLINKING(blink_flag=0xE6, entity=Unknown NPC (ID: 3900827521/0xE881E781))
     0x1872 [0x81] SET_ENTITY_BLINKING(blink_flag=0xE9, entity=Unknown NPC (ID: 3951159937/0xEB81EA81))
     0x1878 [0x81] SET_ENTITY_BLINKING(blink_flag=0xEC, entity=Unknown NPC (ID: 4001492353/0xEE81ED81))
     0x187E [0x81] SET_ENTITY_BLINKING(blink_flag=0xEF, entity=Unknown NPC (ID: 4051824769/0xF181F081))
     0x1884 [0x81] SET_ENTITY_BLINKING(blink_flag=0xF2, entity=Unknown NPC (ID: 4102157185/0xF481F381))
     0x188A [0x81] SET_ENTITY_BLINKING(blink_flag=0xF5, entity=Unknown NPC (ID: 4152489601/0xF781F681))
     0x1890 [0x81] SET_ENTITY_BLINKING(blink_flag=0x15, entity=Unknown NPC (ID: 8394112/0x00801580))
     0x1896 [0x11] 0x1400 >>= Work_Zone_1700[0]
     0x189B [0x00] END_REQSTACK()
     0x189C [0x1A] CALL_SUBROUTINE(address=0x1D00)
     0x189F [0x00] END_REQSTACK()
     0x18A0 [0x15] 0x1580 /= 0x1580
     0x18A5 [0x80] LOAD_WAIT(entity=Unknown NPC (ID: 1376274/0x00150012))
     0x18AA [0x18] 0x1B00 = atan2(0x1E00, 0x1500)
     0x18B1 [0x80] LOAD_WAIT(entity=Unknown NPC (ID: 2148892693/0x80158015))
     0x18B6 [0x13] 0x1600 = rand() % 0x1900
     0x18BB [0x00] END_REQSTACK()
     0x18BC [0x1C] WAIT(0x1F00 ticks)
     0x18BF [0x00] END_REQSTACK()
     0x18C0 [0x15] 0x1580 /= 0x1580
     0x18C5 [0x80] LOAD_WAIT(entity=Unknown NPC (ID: 461378880/0x1B801540))
# Dead code (unreachable instructions):
     0x1967 [0x1C] WAIT(0xD400 ticks)
     0x196A [0x04] DEPRECATED_NOP(unused=0x802D)
     0x196D [0x10] 0x1D00 <<= 0x1E00
     0x1972 [0x00] END_REQSTACK()
     0x1973 [0x1F] MOVE_ENTITY: EventEntity moves to X=0x0203, Z=0x0C10, Y=0x0300
     0x197B [0x03] 0x0D10 = 0x0300
     0x1980 [0x04] DEPRECATED_NOP(unused=0x0E10)
     0x1983 [0x00] END_REQSTACK()
     0x1984 [0x03] Work_Zone[5] = ExtData[1]->WorkLocal[15]
     0x1989 [0x03] Work_Zone[6] = ExtData[1]->WorkLocal[16]
     0x198E [0x1B] RETURN
```
