# 16929570 - Temenos Operator

## Common Data

| Field            | Value            |
|------------------|------------------|
| Zone             | Temenos (ID: 37) |
| Block Size       | 9092 bytes       |
| Total Events     | 3                |
| References Count | 527              |

## List of Events

| Event ID              | Entrypoint   |   Size |   Instructions |
|-----------------------|--------------|--------|----------------|
| [65535](#event-65535) | 0x0000       |      1 |              1 |
| [1031](#event-1031)   | 0x0001       |    180 |             66 |
| [1032](#event-1032)   | 0x00B5       |   6775 |           1146 |

## DAT References (imed_data)

|   Index | Hex Value   |   Dec Value |
|---------|-------------|-------------|
|       0 | 0x0001      |           1 |
|       1 | 0x015D      |         349 |
|       2 | 0x1C44      |        7236 |
|       3 | 0x1C53      |        7251 |
|       4 | 0x1C54      |        7252 |
|       5 | 0x1C45      |        7237 |
|       6 | 0x1C46      |        7238 |
|       7 | 0x1C47      |        7239 |
|       8 | 0x1C48      |        7240 |
|       9 | 0x1C49      |        7241 |
|      10 | 0x1C4A      |        7242 |
|      11 | 0x1C4B      |        7243 |
|      12 | 0x1C4C      |        7244 |
|      13 | 0x1C4D      |        7245 |
|      14 | 0x1C4E      |        7246 |
|      15 | 0x1C4F      |        7247 |
|      16 | 0x1C50      |        7248 |
|      17 | 0x1C51      |        7249 |
|      18 | 0x0087      |         135 |
|      19 | 0x1C55      |        7253 |
|      20 | 0x1C57      |        7255 |
|      21 | 0x0000      |           0 |
|      22 | 0x0003      |           3 |
|      23 | 0x0077      |         119 |
|      24 | 0x1C56      |        7254 |
|      25 | 0x1C52      |        7250 |
|      26 | 0x270F      |        9999 |
|      27 | 0x1C5D      |        7261 |
|      28 | 0x000F      |          15 |
|      29 | 0x0076      |         118 |
|      30 | 0x1C59      |        7257 |
|      31 | 0x000A      |          10 |
|      32 | 0x0010      |          16 |
|      33 | 0x001F      |          31 |
|      34 | 0x1C5A      |        7258 |
|      35 | 0x0002      |           2 |
|      36 | 0x1C5E      |        7262 |
|      37 | 0x1C5F      |        7263 |
|      38 | 0x1C60      |        7264 |
|      39 | 0x0005      |           5 |
|      40 | 0x0006      |           6 |
|      41 | 0x0007      |           7 |
|      42 | 0x0008      |           8 |
|      43 | 0x0009      |           9 |
|      44 | 0x1C61      |        7265 |
|      45 | 0x1C62      |        7266 |
|      46 | 0x0004      |           4 |
|      47 | 0x000B      |          11 |
|      48 | 0x000C      |          12 |
|      49 | 0x000D      |          13 |
|      50 | 0x000E      |          14 |
|      51 | 0x0011      |          17 |
|      52 | 0x0012      |          18 |
|      53 | 0x0013      |          19 |
|      54 | 0x0014      |          20 |
|      55 | 0x0015      |          21 |
|      56 | 0x0016      |          22 |
|      57 | 0x1C64      |        7268 |
|      58 | 0x1C65      |        7269 |
|      59 | 0x1C66      |        7270 |
|      60 | 0x1C87      |        7303 |
|      61 | 0x1C72      |        7282 |
|      62 | 0x1C73      |        7283 |
|      63 | 0x1C74      |        7284 |
|      64 | 0x1C75      |        7285 |
|      65 | 0x1C76      |        7286 |
|      66 | 0x1C77      |        7287 |
|      67 | 0x1C88      |        7304 |
|      68 | 0x1C89      |        7305 |
|      69 | 0x1C8A      |        7306 |
|      70 | 0x1C8B      |        7307 |
|      71 | 0x1C8C      |        7308 |
|      72 | 0x1C7B      |        7291 |
|      73 | 0x1C78      |        7288 |
|      74 | 0x1C79      |        7289 |
|      75 | 0x1C7A      |        7290 |
|      76 | 0x2710      |       10000 |
|      77 | 0x1C8E      |        7310 |
|      78 | 0x1C8F      |        7311 |
|      79 | 0x1C90      |        7312 |
|      80 | 0x1C91      |        7313 |
|      81 | 0x1C92      |        7314 |
|      82 | 0x1C93      |        7315 |
|      83 | 0x4E20      |       20000 |
|      84 | 0x7530      |       30000 |
|      85 | 0x3A98      |       15000 |
|      86 | 0x61A8      |       25000 |
|      87 | 0x5B66      |       23398 |
|      88 | 0x5BA9      |       23465 |
|      89 | 0x5BEC      |       23532 |
|      90 | 0x5C2F      |       23599 |
|      91 | 0x5C72      |       23666 |
|      92 | 0x5D6E      |       23918 |
|      93 | 0x5D9B      |       23963 |
|      94 | 0x5DC8      |       24008 |
|      95 | 0x5DF5      |       24053 |
|      96 | 0x5E22      |       24098 |
|      97 | 0x5B67      |       23399 |
|      98 | 0x5BAA      |       23466 |
|      99 | 0x5BED      |       23533 |
|     100 | 0x5C30      |       23600 |
|     101 | 0x5C73      |       23667 |
|     102 | 0x5D6F      |       23919 |
|     103 | 0x5D9C      |       23964 |
|     104 | 0x5DC9      |       24009 |
|     105 | 0x5DF6      |       24054 |
|     106 | 0x5E23      |       24099 |
|     107 | 0x5B68      |       23400 |
|     108 | 0x5BAB      |       23467 |
|     109 | 0x5BEE      |       23534 |
|     110 | 0x5C31      |       23601 |
|     111 | 0x5C74      |       23668 |
|     112 | 0x5D70      |       23920 |
|     113 | 0x5D9D      |       23965 |
|     114 | 0x5DCA      |       24010 |
|     115 | 0x5DF7      |       24055 |
|     116 | 0x5E24      |       24100 |
|     117 | 0x5B69      |       23401 |
|     118 | 0x5BAC      |       23468 |
|     119 | 0x5BEF      |       23535 |
|     120 | 0x5C32      |       23602 |
|     121 | 0x5C75      |       23669 |
|     122 | 0x5D71      |       23921 |
|     123 | 0x5D9E      |       23966 |
|     124 | 0x5DCB      |       24011 |
|     125 | 0x5DF8      |       24056 |
|     126 | 0x5E25      |       24101 |
|     127 | 0x5B6A      |       23402 |
|     128 | 0x5BAD      |       23469 |
|     129 | 0x5BF0      |       23536 |
|     130 | 0x5C33      |       23603 |
|     131 | 0x5C76      |       23670 |
|     132 | 0x5D72      |       23922 |
|     133 | 0x5D9F      |       23967 |
|     134 | 0x5DCC      |       24012 |
|     135 | 0x5DF9      |       24057 |
|     136 | 0x5E26      |       24102 |
|     137 | 0x5B6B      |       23403 |
|     138 | 0x5BAE      |       23470 |
|     139 | 0x5BF1      |       23537 |
|     140 | 0x5C34      |       23604 |
|     141 | 0x5C77      |       23671 |
|     142 | 0x5D73      |       23923 |
|     143 | 0x5DA0      |       23968 |
|     144 | 0x5DCD      |       24013 |
|     145 | 0x5DFA      |       24058 |
|     146 | 0x5E27      |       24103 |
|     147 | 0x5B6C      |       23404 |
|     148 | 0x5BAF      |       23471 |
|     149 | 0x5BF2      |       23538 |
|     150 | 0x5C35      |       23605 |
|     151 | 0x5C78      |       23672 |
|     152 | 0x5D74      |       23924 |
|     153 | 0x5DA1      |       23969 |
|     154 | 0x5DCE      |       24014 |
|     155 | 0x5DFB      |       24059 |
|     156 | 0x5E28      |       24104 |
|     157 | 0x5B6D      |       23405 |
|     158 | 0x5BB0      |       23472 |
|     159 | 0x5BF3      |       23539 |
|     160 | 0x5C36      |       23606 |
|     161 | 0x5C79      |       23673 |
|     162 | 0x5D75      |       23925 |
|     163 | 0x5DA2      |       23970 |
|     164 | 0x5DCF      |       24015 |
|     165 | 0x5DFC      |       24060 |
|     166 | 0x5E29      |       24105 |
|     167 | 0x5B6E      |       23406 |
|     168 | 0x5BB1      |       23473 |
|     169 | 0x5BF4      |       23540 |
|     170 | 0x5C37      |       23607 |
|     171 | 0x5C7A      |       23674 |
|     172 | 0x5D76      |       23926 |
|     173 | 0x5DA3      |       23971 |
|     174 | 0x5DD0      |       24016 |
|     175 | 0x5DFD      |       24061 |
|     176 | 0x5E2A      |       24106 |
|     177 | 0x5B6F      |       23407 |
|     178 | 0x5BB2      |       23474 |
|     179 | 0x5BF5      |       23541 |
|     180 | 0x5C38      |       23608 |
|     181 | 0x5C7B      |       23675 |
|     182 | 0x5D77      |       23927 |
|     183 | 0x5DA4      |       23972 |
|     184 | 0x5DD1      |       24017 |
|     185 | 0x5DFE      |       24062 |
|     186 | 0x5E2B      |       24107 |
|     187 | 0x5B70      |       23408 |
|     188 | 0x5BB3      |       23475 |
|     189 | 0x5BF6      |       23542 |
|     190 | 0x5C39      |       23609 |
|     191 | 0x5C7C      |       23676 |
|     192 | 0x5D78      |       23928 |
|     193 | 0x5DA5      |       23973 |
|     194 | 0x5DD2      |       24018 |
|     195 | 0x5DFF      |       24063 |
|     196 | 0x5E2C      |       24108 |
|     197 | 0x5B71      |       23409 |
|     198 | 0x5BB4      |       23476 |
|     199 | 0x5BF7      |       23543 |
|     200 | 0x5C3A      |       23610 |
|     201 | 0x5C7D      |       23677 |
|     202 | 0x5D79      |       23929 |
|     203 | 0x5DA6      |       23974 |
|     204 | 0x5DD3      |       24019 |
|     205 | 0x5E00      |       24064 |
|     206 | 0x5E2D      |       24109 |
|     207 | 0x5B72      |       23410 |
|     208 | 0x5BB5      |       23477 |
|     209 | 0x5BF8      |       23544 |
|     210 | 0x5C3B      |       23611 |
|     211 | 0x5C7E      |       23678 |
|     212 | 0x5D7A      |       23930 |
|     213 | 0x5DA7      |       23975 |
|     214 | 0x5DD4      |       24020 |
|     215 | 0x5E01      |       24065 |
|     216 | 0x5E2E      |       24110 |
|     217 | 0x5B73      |       23411 |
|     218 | 0x5BB6      |       23478 |
|     219 | 0x5BF9      |       23545 |
|     220 | 0x5C3C      |       23612 |
|     221 | 0x5C7F      |       23679 |
|     222 | 0x5D7B      |       23931 |
|     223 | 0x5DA8      |       23976 |
|     224 | 0x5DD5      |       24021 |
|     225 | 0x5E02      |       24066 |
|     226 | 0x5E2F      |       24111 |
|     227 | 0x5B74      |       23412 |
|     228 | 0x5BB7      |       23479 |
|     229 | 0x5BFA      |       23546 |
|     230 | 0x5C3D      |       23613 |
|     231 | 0x5C80      |       23680 |
|     232 | 0x5D7C      |       23932 |
|     233 | 0x5DA9      |       23977 |
|     234 | 0x5DD6      |       24022 |
|     235 | 0x5E03      |       24067 |
|     236 | 0x5E30      |       24112 |
|     237 | 0x5B75      |       23413 |
|     238 | 0x5BB8      |       23480 |
|     239 | 0x5BFB      |       23547 |
|     240 | 0x5C3E      |       23614 |
|     241 | 0x5C81      |       23681 |
|     242 | 0x5D7D      |       23933 |
|     243 | 0x5DAA      |       23978 |
|     244 | 0x5DD7      |       24023 |
|     245 | 0x5E04      |       24068 |
|     246 | 0x5E31      |       24113 |
|     247 | 0x5B76      |       23414 |
|     248 | 0x5BB9      |       23481 |
|     249 | 0x5BFC      |       23548 |
|     250 | 0x5C3F      |       23615 |
|     251 | 0x5C82      |       23682 |
|     252 | 0x5D7E      |       23934 |
|     253 | 0x5DAB      |       23979 |
|     254 | 0x5DD8      |       24024 |
|     255 | 0x5E05      |       24069 |
|     256 | 0x5E32      |       24114 |
|     257 | 0x5B77      |       23415 |
|     258 | 0x5BBA      |       23482 |
|     259 | 0x5BFD      |       23549 |
|     260 | 0x5C40      |       23616 |
|     261 | 0x5C83      |       23683 |
|     262 | 0x5D7F      |       23935 |
|     263 | 0x5DAC      |       23980 |
|     264 | 0x5DD9      |       24025 |
|     265 | 0x5E06      |       24070 |
|     266 | 0x5E33      |       24115 |
|     267 | 0x5B78      |       23416 |
|     268 | 0x5BBB      |       23483 |
|     269 | 0x5BFE      |       23550 |
|     270 | 0x5C41      |       23617 |
|     271 | 0x5C84      |       23684 |
|     272 | 0x5D80      |       23936 |
|     273 | 0x5DAD      |       23981 |
|     274 | 0x5DDA      |       24026 |
|     275 | 0x5E07      |       24071 |
|     276 | 0x5E34      |       24116 |
|     277 | 0x5B79      |       23417 |
|     278 | 0x5BBC      |       23484 |
|     279 | 0x5BFF      |       23551 |
|     280 | 0x5C42      |       23618 |
|     281 | 0x5C85      |       23685 |
|     282 | 0x5D81      |       23937 |
|     283 | 0x5DAE      |       23982 |
|     284 | 0x5DDB      |       24027 |
|     285 | 0x5E08      |       24072 |
|     286 | 0x5E35      |       24117 |
|     287 | 0x5B7A      |       23418 |
|     288 | 0x5BBD      |       23485 |
|     289 | 0x5C00      |       23552 |
|     290 | 0x5C43      |       23619 |
|     291 | 0x5C86      |       23686 |
|     292 | 0x5D82      |       23938 |
|     293 | 0x5DAF      |       23983 |
|     294 | 0x5DDC      |       24028 |
|     295 | 0x5E09      |       24073 |
|     296 | 0x5E36      |       24118 |
|     297 | 0x5B7B      |       23419 |
|     298 | 0x5BBE      |       23486 |
|     299 | 0x5C01      |       23553 |
|     300 | 0x5C44      |       23620 |
|     301 | 0x5C87      |       23687 |
|     302 | 0x5D83      |       23939 |
|     303 | 0x5DB0      |       23984 |
|     304 | 0x5DDD      |       24029 |
|     305 | 0x5E0A      |       24074 |
|     306 | 0x5E37      |       24119 |
|     307 | 0x15B8      |        5560 |
|     308 | 0x15B9      |        5561 |
|     309 | 0x15BA      |        5562 |
|     310 | 0x15BB      |        5563 |
|     311 | 0x15BC      |        5564 |
|     312 | 0x15BD      |        5565 |
|     313 | 0x15BE      |        5566 |
|     314 | 0x15BF      |        5567 |
|     315 | 0x15C0      |        5568 |
|     316 | 0x15C1      |        5569 |
|     317 | 0x15C2      |        5570 |
|     318 | 0x15C3      |        5571 |
|     319 | 0x15C4      |        5572 |
|     320 | 0x15C5      |        5573 |
|     321 | 0x15C6      |        5574 |
|     322 | 0x15C7      |        5575 |
|     323 | 0x15C8      |        5576 |
|     324 | 0x15C9      |        5577 |
|     325 | 0x15CA      |        5578 |
|     326 | 0x15CB      |        5579 |
|     327 | 0x15CC      |        5580 |
|     328 | 0x15CD      |        5581 |
|     329 | 0x15CE      |        5582 |
|     330 | 0x15CF      |        5583 |
|     331 | 0x15D0      |        5584 |
|     332 | 0x15D1      |        5585 |
|     333 | 0x15D2      |        5586 |
|     334 | 0x15D3      |        5587 |
|     335 | 0x15D4      |        5588 |
|     336 | 0x15D5      |        5589 |
|     337 | 0x15D6      |        5590 |
|     338 | 0x15D7      |        5591 |
|     339 | 0x15D8      |        5592 |
|     340 | 0x15D9      |        5593 |
|     341 | 0x15DA      |        5594 |
|     342 | 0x15DB      |        5595 |
|     343 | 0x15DC      |        5596 |
|     344 | 0x15DD      |        5597 |
|     345 | 0x15DE      |        5598 |
|     346 | 0x15DF      |        5599 |
|     347 | 0x15E0      |        5600 |
|     348 | 0x15E1      |        5601 |
|     349 | 0x15E2      |        5602 |
|     350 | 0x15E3      |        5603 |
|     351 | 0x15E4      |        5604 |
|     352 | 0x15E5      |        5605 |
|     353 | 0x15E6      |        5606 |
|     354 | 0x15E7      |        5607 |
|     355 | 0x15E8      |        5608 |
|     356 | 0x15E9      |        5609 |
|     357 | 0x15EA      |        5610 |
|     358 | 0x15EB      |        5611 |
|     359 | 0x15EC      |        5612 |
|     360 | 0x15ED      |        5613 |
|     361 | 0x15EE      |        5614 |
|     362 | 0x15EF      |        5615 |
|     363 | 0x15F0      |        5616 |
|     364 | 0x15F1      |        5617 |
|     365 | 0x15F2      |        5618 |
|     366 | 0x15F3      |        5619 |
|     367 | 0x15F4      |        5620 |
|     368 | 0x15F5      |        5621 |
|     369 | 0x15F6      |        5622 |
|     370 | 0x15F7      |        5623 |
|     371 | 0x15F8      |        5624 |
|     372 | 0x15F9      |        5625 |
|     373 | 0x15FA      |        5626 |
|     374 | 0x15FB      |        5627 |
|     375 | 0x15FC      |        5628 |
|     376 | 0x15FD      |        5629 |
|     377 | 0x15FE      |        5630 |
|     378 | 0x15FF      |        5631 |
|     379 | 0x1600      |        5632 |
|     380 | 0x1601      |        5633 |
|     381 | 0x1602      |        5634 |
|     382 | 0x1603      |        5635 |
|     383 | 0x1604      |        5636 |
|     384 | 0x1605      |        5637 |
|     385 | 0x1606      |        5638 |
|     386 | 0x1607      |        5639 |
|     387 | 0x1608      |        5640 |
|     388 | 0x1609      |        5641 |
|     389 | 0x160A      |        5642 |
|     390 | 0x160B      |        5643 |
|     391 | 0x160C      |        5644 |
|     392 | 0x160D      |        5645 |
|     393 | 0x160E      |        5646 |
|     394 | 0x160F      |        5647 |
|     395 | 0x1610      |        5648 |
|     396 | 0x1611      |        5649 |
|     397 | 0x1612      |        5650 |
|     398 | 0x1613      |        5651 |
|     399 | 0x1614      |        5652 |
|     400 | 0x1615      |        5653 |
|     401 | 0x1616      |        5654 |
|     402 | 0x1617      |        5655 |
|     403 | 0x1618      |        5656 |
|     404 | 0x1619      |        5657 |
|     405 | 0x161A      |        5658 |
|     406 | 0x161B      |        5659 |
|     407 | 0x161C      |        5660 |
|     408 | 0x161D      |        5661 |
|     409 | 0x161E      |        5662 |
|     410 | 0x161F      |        5663 |
|     411 | 0x1620      |        5664 |
|     412 | 0x1621      |        5665 |
|     413 | 0x1622      |        5666 |
|     414 | 0x1623      |        5667 |
|     415 | 0x1624      |        5668 |
|     416 | 0x1625      |        5669 |
|     417 | 0x154A      |        5450 |
|     418 | 0x154B      |        5451 |
|     419 | 0x154C      |        5452 |
|     420 | 0x154D      |        5453 |
|     421 | 0x154E      |        5454 |
|     422 | 0x154F      |        5455 |
|     423 | 0x1550      |        5456 |
|     424 | 0x1551      |        5457 |
|     425 | 0x1552      |        5458 |
|     426 | 0x1553      |        5459 |
|     427 | 0x1554      |        5460 |
|     428 | 0x1555      |        5461 |
|     429 | 0x1556      |        5462 |
|     430 | 0x1557      |        5463 |
|     431 | 0x1558      |        5464 |
|     432 | 0x1559      |        5465 |
|     433 | 0x155A      |        5466 |
|     434 | 0x155B      |        5467 |
|     435 | 0x155C      |        5468 |
|     436 | 0x155D      |        5469 |
|     437 | 0x155E      |        5470 |
|     438 | 0x155F      |        5471 |
|     439 | 0x1560      |        5472 |
|     440 | 0x1561      |        5473 |
|     441 | 0x1562      |        5474 |
|     442 | 0x1563      |        5475 |
|     443 | 0x1564      |        5476 |
|     444 | 0x1565      |        5477 |
|     445 | 0x1566      |        5478 |
|     446 | 0x1567      |        5479 |
|     447 | 0x1568      |        5480 |
|     448 | 0x1569      |        5481 |
|     449 | 0x156A      |        5482 |
|     450 | 0x156B      |        5483 |
|     451 | 0x156C      |        5484 |
|     452 | 0x156D      |        5485 |
|     453 | 0x156E      |        5486 |
|     454 | 0x156F      |        5487 |
|     455 | 0x1570      |        5488 |
|     456 | 0x1571      |        5489 |
|     457 | 0x1572      |        5490 |
|     458 | 0x1573      |        5491 |
|     459 | 0x1574      |        5492 |
|     460 | 0x1575      |        5493 |
|     461 | 0x1576      |        5494 |
|     462 | 0x1577      |        5495 |
|     463 | 0x1578      |        5496 |
|     464 | 0x1579      |        5497 |
|     465 | 0x157A      |        5498 |
|     466 | 0x157B      |        5499 |
|     467 | 0x157C      |        5500 |
|     468 | 0x157D      |        5501 |
|     469 | 0x157E      |        5502 |
|     470 | 0x157F      |        5503 |
|     471 | 0x1580      |        5504 |
|     472 | 0x1581      |        5505 |
|     473 | 0x1582      |        5506 |
|     474 | 0x1583      |        5507 |
|     475 | 0x1584      |        5508 |
|     476 | 0x1585      |        5509 |
|     477 | 0x1586      |        5510 |
|     478 | 0x1587      |        5511 |
|     479 | 0x1588      |        5512 |
|     480 | 0x1589      |        5513 |
|     481 | 0x158A      |        5514 |
|     482 | 0x158B      |        5515 |
|     483 | 0x158C      |        5516 |
|     484 | 0x158D      |        5517 |
|     485 | 0x158E      |        5518 |
|     486 | 0x158F      |        5519 |
|     487 | 0x1590      |        5520 |
|     488 | 0x1591      |        5521 |
|     489 | 0x1592      |        5522 |
|     490 | 0x1593      |        5523 |
|     491 | 0x1594      |        5524 |
|     492 | 0x1595      |        5525 |
|     493 | 0x1596      |        5526 |
|     494 | 0x1597      |        5527 |
|     495 | 0x1598      |        5528 |
|     496 | 0x1599      |        5529 |
|     497 | 0x159A      |        5530 |
|     498 | 0x159B      |        5531 |
|     499 | 0x159C      |        5532 |
|     500 | 0x159D      |        5533 |
|     501 | 0x159E      |        5534 |
|     502 | 0x159F      |        5535 |
|     503 | 0x15A0      |        5536 |
|     504 | 0x15A1      |        5537 |
|     505 | 0x15A2      |        5538 |
|     506 | 0x15A3      |        5539 |
|     507 | 0x15A4      |        5540 |
|     508 | 0x15A5      |        5541 |
|     509 | 0x15A6      |        5542 |
|     510 | 0x15A7      |        5543 |
|     511 | 0x15A8      |        5544 |
|     512 | 0x15A9      |        5545 |
|     513 | 0x15AA      |        5546 |
|     514 | 0x15AB      |        5547 |
|     515 | 0x15AC      |        5548 |
|     516 | 0x15AD      |        5549 |
|     517 | 0x15AE      |        5550 |
|     518 | 0x15AF      |        5551 |
|     519 | 0x15B0      |        5552 |
|     520 | 0x15B1      |        5553 |
|     521 | 0x15B2      |        5554 |
|     522 | 0x15B3      |        5555 |
|     523 | 0x15B4      |        5556 |
|     524 | 0x15B5      |        5557 |
|     525 | 0x15B6      |        5558 |
|     526 | 0x15B7      |        5559 |

## String References

- **7236**: Welcome to Temenos. Please present your $3.
- **7237**: ...Credentials not present. Authorizing new issuance.
- **7238**: Registration in progress...
- **7239**: Welcome to Temenos. This place is designed for the generation of new life-forms.
- **7240**: North, West, East, and Central Towers contain monsters for recording data in your $3.
- **7241**: Successfully recording data will permit you to open Temenos Coffers.
- **7242**: You will also be authorized to collect a special currency called Temenos Units.
- **7243**: Systems are only capable of recording data for each registrant up to five times per week (Earth time).
- **7244**: Temenos Units can be used in the Temenos Furnace.
- **7245**: Please use it to your advantage.
- **7246**: Special Limbus buffs known as Grace are also available to those who have deposited a sufficient amount of currency.
- **7247**: The more data, the stronger the Grace.
- **7248**: Your registration is now complete. Currently recording initial data in your $3.
- **7249**: Please set your initial monster level. The higher the level, the more precise the data we can gather.
- **7250**: Your $3 is now fully prepared. Glory to Zilart.
- **7251**: ...
- **7252**: ......
- **7253**: Enter a level value between 119 and $1 to be recorded in your $3.
- **7254**: "$1" has been recorded in your $3.
- **7255**: Enter 0 to cancel.
- **7257**: Increasing the level will reset your progress.
- **7258**: What will you do? [Change level and reset./Never mind.]
- **7261**: Inquire about what? [Level settings./Temenos./Temenos Units./The Temenos Furnace./Equipment list./Grace./Notorious monsters./Tresure coffer timings./%.@/CN Opening.$1./Reforging.@/Nothing for now.]
- **7262**: Remaining Temenos Units: $0. Total Temenos Units: $1/$2.
- **7263**: The Temenos Furnace uses data to enhance your equipment.
- **7264**: Inquire about which? [Agoge Armor./Hesychast's Attire./Piety Attire./Archmage's Attire./Vitiation Armor./Plunderer's Attire./Caballarius Armor./Fallen's Armor./Ankusa Armor./Bihu Attire./Arcadian Attire./Sakonji Armor./Mochizuki Armor./Telos Armor./Glyphic Attire./Luhlaza Attire./Lanuna Attire./Pitre Attire./Horos Attire./Pedagogy Attire./Bagua Attire./Futhark Attire./Nothing for now.]
- **7266**: Reforging your item into $0 requires $1 and $2 Temenos Units.
- **7268**: 3 effects: Accuracy+$1@Ranged Accuracy+$1@Magic Accuracy+$1.
- **7269**: $3 effects: BPALL+$3.
- **7270**: $3 effects: Max. HP+$5 EXP Loss Reduction: $6% MEXP Loss Reduction: $6%
- **7282**: I have generated new notorious monsters based on your data.
- **7283**: Here is a quick rundown.
- **7284**: 1: they do not take your set level into account.
- **7285**: 2: there are 22 types, but only 4 will appear on any given day (Earth time).
- **7286**: $0: vanquishing them affects the contents of the Temenos Coffer available four weeks later.
- **7287**: This should enable you to collect even more precise data.
- **7288**: The $0 changes form when one uses Temenos Units.
- **7289**: It can produce special equipment.
- **7290**: The produced equipment can be further infused.
- **7291**: Notorious monster vanquishing information will affect Temenos Coffers in $0 [days/hours/hour or less] (Earth time).
- **7303**: Do what? [Phase 1./Phase 2./@/Back.]
- **7304**: New notorious monsters have been created based on collected data aand registrant information.
- **7305**: Communicating data on new notorious monsters.
- **7306**: 2: Notorious monsters are classified into three categories.
- **7307**: 3: Notorious monster spawn conditions are divided into two sets.
- **7308**: 4: They spawn in CN, which opens when certain conditions are met.
- **7310**: Creating $0 based on registrant information.
- **7311**: Multiple $0 may by created from $1 and $2.
- **7312**: Created items can be used to unlock and reforge new equipment.
- **7313**: Up to $3 $0 can be changed into other types.
- **7314**: Reforged equipment attributes can be carried over to higher-tier equipmen of the same series and equipment slot.
- **7315**: However, the original equipment will be consumed in the process.

## Events

### Event 65535

#### Metadata

| Field        | Value   |
|--------------|---------|
| Entrypoint   | 0x0000  |
| Data Size    | 1 bytes |
| Instructions | 1       |

```
      00 01 02 03 04 05 06 07  08 09 0A 0B 0C 0D 0E 0F
      -- -- -- -- -- -- -- --  -- -- -- -- -- -- -- --
0000: 00                                                .               
```

#### Opcodes

```
  0: 0x0000 [0x00] END_REQSTACK()
```

### Event 1031

#### Metadata

| Field        | Value     |
|--------------|-----------|
| Entrypoint   | 0x0001    |
| Data Size    | 180 bytes |
| Instructions | 66        |

```
      00 01 02 03 04 05 06 07  08 09 0A 0B 0C 0D 0E 0F
      -- -- -- -- -- -- -- --  -- -- -- -- -- -- -- --
0000:    1E F0 FF FF 7F 1C 00  80 03 02 10 01 80 1D 02   ...............
0010: 80 23 1D 03 80 23 1D 04  80 23 1D 05 80 23 1D 06  .#...#...#...#..
0020: 80 23 1D 07 80 23 1D 08  80 23 1D 09 80 23 1D 0A  .#...#...#...#..
0030: 80 23 1D 0B 80 23 1D 0C  80 23 1D 0D 80 23 1D 0E  .#...#...#...#..
0040: 80 23 1D 0F 80 23 1D 10  80 23 1D 11 80 23 03 03  .#...#...#...#..
0050: 10 12 80 1D 13 80 23 48  14 80 03 01 10 15 80 71  ......#H.......q
0060: 12 00 80 16 80 71 13 02  00 02 02 00 15 80 00 74  .....q.........t
0070: 00 01 B0 00 02 02 00 17  80 04 AD 00 02 02 00 12  ................
0080: 80 05 A7 00 42 03 02 10  01 80 03 03 10 02 00 03  ....B...........
0090: 01 10 02 00 1D 18 80 23  1D 03 80 23 1D 04 80 23  .......#...#...#
00A0: 1D 19 80 23 01 AA 00 01  4E 00 01 B0 00 01 4E 00  ...#....N.....N.
00B0: 2E 20 00 21 00                                    . .!.           
```

#### Opcodes

```
  0: 0x0001 [0x1E] EventEntity looks at LocalPlayer and starts talking
  1: 0x0006 [0x1C] WAIT(1* ticks)
  2: 0x0009 [0x03] Work_Zone[2] = 349*
  3: 0x000E [0x1D] PRINT_EVENT_MESSAGE(message_id=7236*)
    → "Welcome to Temenos. Please present your $3."
  4: 0x0011 [0x23] WAIT_FOR_DIALOG_INTERACTION
  5: 0x0012 [0x1D] PRINT_EVENT_MESSAGE(message_id=7251*)
    → "..."
  6: 0x0015 [0x23] WAIT_FOR_DIALOG_INTERACTION
  7: 0x0016 [0x1D] PRINT_EVENT_MESSAGE(message_id=7252*)
    → "......"
  8: 0x0019 [0x23] WAIT_FOR_DIALOG_INTERACTION
  9: 0x001A [0x1D] PRINT_EVENT_MESSAGE(message_id=7237*)
    → "...Credentials not present. Authorizing new issuance."
 10: 0x001D [0x23] WAIT_FOR_DIALOG_INTERACTION
 11: 0x001E [0x1D] PRINT_EVENT_MESSAGE(message_id=7238*)
    → "Registration in progress..."
 12: 0x0021 [0x23] WAIT_FOR_DIALOG_INTERACTION
 13: 0x0022 [0x1D] PRINT_EVENT_MESSAGE(message_id=7239*)
    → "Welcome to Temenos. This place is designed for the generation of new life-forms."
 14: 0x0025 [0x23] WAIT_FOR_DIALOG_INTERACTION
 15: 0x0026 [0x1D] PRINT_EVENT_MESSAGE(message_id=7240*)
    → "North, West, East, and Central Towers contain monsters for recording data in your $3."
 16: 0x0029 [0x23] WAIT_FOR_DIALOG_INTERACTION
 17: 0x002A [0x1D] PRINT_EVENT_MESSAGE(message_id=7241*)
    → "Successfully recording data will permit you to open Temenos Coffers."
 18: 0x002D [0x23] WAIT_FOR_DIALOG_INTERACTION
 19: 0x002E [0x1D] PRINT_EVENT_MESSAGE(message_id=7242*)
    → "You will also be authorized to collect a special currency called Temenos Units."
 20: 0x0031 [0x23] WAIT_FOR_DIALOG_INTERACTION
 21: 0x0032 [0x1D] PRINT_EVENT_MESSAGE(message_id=7243*)
    → "Systems are only capable of recording data for each registrant up to five times per week (Earth time)."
 22: 0x0035 [0x23] WAIT_FOR_DIALOG_INTERACTION
 23: 0x0036 [0x1D] PRINT_EVENT_MESSAGE(message_id=7244*)
    → "Temenos Units can be used in the Temenos Furnace."
 24: 0x0039 [0x23] WAIT_FOR_DIALOG_INTERACTION
 25: 0x003A [0x1D] PRINT_EVENT_MESSAGE(message_id=7245*)
    → "Please use it to your advantage."
 26: 0x003D [0x23] WAIT_FOR_DIALOG_INTERACTION
 27: 0x003E [0x1D] PRINT_EVENT_MESSAGE(message_id=7246*)
    → "Special Limbus buffs known as Grace are also available to those who have deposited a sufficient amount of currency."
 28: 0x0041 [0x23] WAIT_FOR_DIALOG_INTERACTION
 29: 0x0042 [0x1D] PRINT_EVENT_MESSAGE(message_id=7247*)
    → "The more data, the stronger the Grace."
 30: 0x0045 [0x23] WAIT_FOR_DIALOG_INTERACTION
 31: 0x0046 [0x1D] PRINT_EVENT_MESSAGE(message_id=7248*)
    → "Your registration is now complete. Currently recording initial data in your $3."
 32: 0x0049 [0x23] WAIT_FOR_DIALOG_INTERACTION
 33: 0x004A [0x1D] PRINT_EVENT_MESSAGE(message_id=7249*)
    → "Please set your initial monster level. The higher the level, the more precise the data we can gather."
 34: 0x004D [0x23] WAIT_FOR_DIALOG_INTERACTION
 35: 0x004E [0x03] Work_Zone[3] = 135*
 36: 0x0053 [0x1D] PRINT_EVENT_MESSAGE(message_id=7253*)
    → "Enter a level value between 119 and $1 to be recorded in your $3."
 37: 0x0056 [0x23] WAIT_FOR_DIALOG_INTERACTION
 38: 0x0057 [0x48] [System] [7255*]:
    → "Enter 0 to cancel."
 39: 0x005A [0x03] Work_Zone[1] = 0*
 40: 0x005F [0x71] USER_INPUT_HANDLER: Open numerical input with params (work=[1*, 3*])
 41: 0x0065 [0x71] USER_INPUT_HANDLER: Process numerical input B (work=ExtData[1]->WorkLocal[2])
 42: 0x0069 [0x02] IF !(ExtData[1]->WorkLocal[2] == 0*) GOTO 0x0074
 43: 0x0071 [0x01] GOTO 0x00B0
 44: 0x0074 [0x02] IF !(ExtData[1]->WorkLocal[2] < 119*) GOTO 0x00AD
 45: 0x007C [0x02] IF !(ExtData[1]->WorkLocal[2] > 135*) GOTO 0x00A7
 46: 0x0084 [0x42] SET_CLI_EVENT_CANCEL_DATA()
 47: 0x0085 [0x03] Work_Zone[2] = 349*
 48: 0x008A [0x03] Work_Zone[3] = ExtData[1]->WorkLocal[2]
 49: 0x008F [0x03] Work_Zone[1] = ExtData[1]->WorkLocal[2]
 50: 0x0094 [0x1D] PRINT_EVENT_MESSAGE(message_id=7254*)
    → ""$1" has been recorded in your $3."
 51: 0x0097 [0x23] WAIT_FOR_DIALOG_INTERACTION
 52: 0x0098 [0x1D] PRINT_EVENT_MESSAGE(message_id=7251*)
    → "..."
 53: 0x009B [0x23] WAIT_FOR_DIALOG_INTERACTION
 54: 0x009C [0x1D] PRINT_EVENT_MESSAGE(message_id=7252*)
    → "......"
 55: 0x009F [0x23] WAIT_FOR_DIALOG_INTERACTION
 56: 0x00A0 [0x1D] PRINT_EVENT_MESSAGE(message_id=7250*)
    → "Your $3 is now fully prepared. Glory to Zilart."
 57: 0x00A3 [0x23] WAIT_FOR_DIALOG_INTERACTION
 58: 0x00A4 [0x01] GOTO 0x00AA
 59: 0x00A7 [0x01] GOTO 0x004E

SUBROUTINE_00AA:
 60: 0x00AA [0x01] GOTO 0x00B0
 61: 0x00AD [0x01] GOTO 0x004E

SUBROUTINE_00B0:
 62: 0x00B0 [0x2E] SET_CLI_EVENT_CANCEL_FLAGS()
 63: 0x00B1 [0x20] SET_CLI_EVENT_UC_FLAG: Unlock player control
 64: 0x00B3 [0x21] END_EVENT
 65: 0x00B4 [0x00] END_REQSTACK()
```

### Event 1032

#### Metadata

| Field        | Value      |
|--------------|------------|
| Entrypoint   | 0x00B5     |
| Data Size    | 6775 bytes |
| Instructions | 263        |

```
      00 01 02 03 04 05 06 07  08 09 0A 0B 0C 0D 0E 0F
      -- -- -- -- -- -- -- --  -- -- -- -- -- -- -- --
00B0:                03 09 00  02 10 03 03 00 03 10 03       ...........
00C0: 04 00 04 10 1E F0 FF FF  7F 1C 00 80 03 05 00 15  ................
00D0: 80 03 06 00 15 80 03 07  00 15 80 03 08 00 15 80  ................
00E0: 03 02 10 1A 80 03 03 10  03 00 24 1B 80 05 00 09  ..........$.....
00F0: 00 25 02 00 10 15 80 00  10 02 03 05 00 00 10 40  .%.............@
0100: 15 80 1C 80 01 10 00 80  43 00 43 01 03 00 00 02  ........C.C.....
0110: 10 03 01 00 03 10 07 00  00 1D 80 03 02 10 01 80  ................
0120: 03 03 10 12 80 1D 13 80  23 48 14 80 02 01 00 15  ........#H......
0130: 80 00 37 01 01 3A 01 48  1E 80 03 01 10 15 80 71  ..7..:.H.......q
0140: 12 00 80 16 80 71 13 02  00 02 02 00 15 80 00 54  .....q.........T
0150: 01 01 0D 02 02 02 00 17  80 04 0A 02 02 02 00 12  ................
0160: 80 05 04 02 42 02 01 00  15 80 00 90 01 03 02 10  ....B...........
0170: 01 80 03 03 10 02 00 40  15 80 1F 80 01 10 00 80  .......@........
0180: 40 20 80 21 80 01 10 02  00 1D 18 80 23 01 01 02  @ .!........#...
0190: 02 02 00 00 00 02 E1 01  48 1E 80 24 22 80 00 80  ........H..$"...
01A0: 15 80 25 02 00 10 15 80  00 CE 01 03 02 10 01 80  ..%.............
01B0: 03 03 10 02 00 40 15 80  1F 80 01 10 00 80 40 20  .....@........@ 
01C0: 80 21 80 01 10 02 00 1D  18 80 23 01 DE 01 02 00  .!........#.....
01D0: 10 00 80 00 DE 01 03 01  10 15 80 01 DE 01 01 01  ................
01E0: 02 03 02 10 01 80 03 03  10 02 00 40 15 80 1F 80  ...........@....
01F0: 01 10 00 80 40 20 80 21  80 01 10 02 00 1D 18 80  ....@ .!........
0200: 23 01 07 02 01 1B 01 01  0D 02 01 1B 01 01 6E 15  #.............n.
0210: 02 00 10 00 80 00 4C 02  03 05 00 00 10 03 02 10  ......L.........
0220: 01 80 1D 07 80 23 1D 08  80 23 1D 09 80 23 1D 0A  .....#...#...#..
0230: 80 23 1D 0B 80 23 1D 0C  80 23 1D 0D 80 23 1D 0E  .#...#...#...#..
0240: 80 23 1D 0F 80 23 01 E0  00 01 6E 15 02 00 10 23  .#...#....n....#
0250: 80 00 70 02 03 05 00 00  10 40 15 80 1C 80 01 10  ..p......@......
0260: 16 80 43 00 43 01 1D 24  80 23 01 E0 00 01 6E 15  ..C.C..$.#....n.
0270: 02 00 10 16 80 00 75 13  03 05 00 00 10 1D 25 80  ......u.......%.
0280: 23 24 26 80 06 00 15 80  25 02 00 10 15 80 00 4D  #$&.....%......M
0290: 03 03 06 00 00 10 03 07  00 15 80 40 20 80 21 80  ...........@ .!.
02A0: 01 10 15 80 1A 63 1A 9D  0A 92 15 0E 00 27 80 1F  .....c.......'..
02B0: 80 9D 0A 92 15 0F 00 28  80 1F 80 9D 0A 92 15 10  .......(........
02C0: 00 29 80 1F 80 9D 0A 92  15 11 00 2A 80 1F 80 9D  .).........*....
02D0: 0A 92 15 12 00 2B 80 1F  80 1A D6 1A D4 02 2C 80  .....+........,.
02E0: 07 00 15 80 25 02 00 10  27 80 00 F3 02 01 81 02  ....%...'.......
02F0: 01 4A 03 03 07 00 00 10  9D 0A 72 15 0D 00 00 10  .J........r.....
0300: 27 80 03 02 10 0D 00 9D  0A 33 1A 03 10 00 10 27  '........3.....'
0310: 80 9D 0A 43 1A 04 10 00  10 27 80 9D 0A 53 1A 05  ...C.....'...S..
0320: 10 00 10 27 80 CC 01 02  10 03 10 04 10 05 10 9D  ...'............
0330: 0A 92 15 03 10 00 10 1F  80 9D 0A 82 15 04 10 00  ................
0340: 10 27 80 1D 2D 80 23 01  D9 02 01 6F 13 02 00 10  .'..-.#....o....
0350: 00 80 00 11 04 03 06 00  00 10 03 07 00 15 80 40  ...............@
0360: 20 80 21 80 01 10 00 80  1A 63 1A 9D 0A B2 15 0E   .!......c......
0370: 00 27 80 1F 80 9D 0A B2  15 0F 00 28 80 1F 80 9D  .'.........(....
0380: 0A B2 15 10 00 29 80 1F  80 9D 0A B2 15 11 00 2A  .....).........*
0390: 80 1F 80 9D 0A B2 15 12  00 2B 80 1F 80 1A D6 1A  .........+......
03A0: D4 02 2C 80 07 00 15 80  25 02 00 10 27 80 00 B7  ..,.....%...'...
03B0: 03 01 81 02 01 0E 04 03  07 00 00 10 9D 0A 72 15  ..............r.
03C0: 0D 00 00 10 27 80 03 02  10 0D 00 9D 0A 33 1A 03  ....'........3..
03D0: 10 00 10 27 80 9D 0A 43  1A 04 10 00 10 27 80 9D  ...'...C.....'..
03E0: 0A 53 1A 05 10 00 10 27  80 CC 01 02 10 03 10 04  .S.....'........
03F0: 10 05 10 9D 0A B2 15 03  10 00 10 1F 80 9D 0A 82  ................
0400: 15 04 10 00 10 27 80 1D  2D 80 23 01 9D 03 01 6F  .....'..-.#....o
0410: 13 02 00 10 23 80 00 D5  04 03 06 00 00 10 03 07  ....#...........
0420: 00 15 80 40 20 80 21 80  01 10 23 80 1A 63 1A 9D  ...@ .!...#..c..
0430: 0A D2 15 0E 00 27 80 1F  80 9D 0A D2 15 0F 00 28  .....'.........(
0440: 80 1F 80 9D 0A D2 15 10  00 29 80 1F 80 9D 0A D2  .........)......
0450: 15 11 00 2A 80 1F 80 9D  0A D2 15 12 00 2B 80 1F  ...*.........+..
0460: 80 1A D6 1A D4 02 2C 80  07 00 15 80 25 02 00 10  ......,.....%...
0470: 27 80 00 7B 04 01 81 02  01 D2 04 03 07 00 00 10  '..{............
0480: 9D 0A 72 15 0D 00 00 10  27 80 03 02 10 0D 00 9D  ..r.....'.......
0490: 0A 33 1A 03 10 00 10 27  80 9D 0A 43 1A 04 10 00  .3.....'...C....
04A0: 10 27 80 9D 0A 53 1A 05  10 00 10 27 80 CC 01 02  .'...S.....'....
04B0: 10 03 10 04 10 05 10 9D  0A D2 15 03 10 00 10 1F  ................
04C0: 80 9D 0A 82 15 04 10 00  10 27 80 1D 2D 80 23 01  .........'..-.#.
04D0: 61 04 01 6F 13 02 00 10  16 80 00 99 05 03 06 00  a..o............
04E0: 00 10 03 07 00 15 80 40  20 80 21 80 01 10 16 80  .......@ .!.....
04F0: 1A 63 1A 9D 0A F2 15 0E  00 27 80 1F 80 9D 0A F2  .c.......'......
0500: 15 0F 00 28 80 1F 80 9D  0A F2 15 10 00 29 80 1F  ...(.........)..
0510: 80 9D 0A F2 15 11 00 2A  80 1F 80 9D 0A F2 15 12  .......*........
0520: 00 2B 80 1F 80 1A D6 1A  D4 02 2C 80 07 00 15 80  .+........,.....
0530: 25 02 00 10 27 80 00 3F  05 01 81 02 01 96 05 03  %...'..?........
0540: 07 00 00 10 9D 0A 72 15  0D 00 00 10 27 80 03 02  ......r.....'...
0550: 10 0D 00 9D 0A 33 1A 03  10 00 10 27 80 9D 0A 43  .....3.....'...C
0560: 1A 04 10 00 10 27 80 9D  0A 53 1A 05 10 00 10 27  .....'...S.....'
0570: 80 CC 01 02 10 03 10 04  10 05 10 9D 0A F2 15 03  ................
0580: 10 00 10 1F 80 9D 0A 82  15 04 10 00 10 27 80 1D  .............'..
0590: 2D 80 23 01 25 05 01 6F  13 02 00 10 2E 80 00 5D  -.#.%..o.......]
05A0: 06 03 06 00 00 10 03 07  00 15 80 40 20 80 21 80  ...........@ .!.
05B0: 01 10 2E 80 1A 63 1A 9D  0A 12 16 0E 00 27 80 1F  .....c.......'..
05C0: 80 9D 0A 12 16 0F 00 28  80 1F 80 9D 0A 12 16 10  .......(........
05D0: 00 29 80 1F 80 9D 0A 12  16 11 00 2A 80 1F 80 9D  .).........*....
05E0: 0A 12 16 12 00 2B 80 1F  80 1A D6 1A D4 02 2C 80  .....+........,.
05F0: 07 00 15 80 25 02 00 10  27 80 00 03 06 01 81 02  ....%...'.......
0600: 01 5A 06 03 07 00 00 10  9D 0A 72 15 0D 00 00 10  .Z........r.....
0610: 27 80 03 02 10 0D 00 9D  0A 33 1A 03 10 00 10 27  '........3.....'
0620: 80 9D 0A 43 1A 04 10 00  10 27 80 9D 0A 53 1A 05  ...C.....'...S..
0630: 10 00 10 27 80 CC 01 02  10 03 10 04 10 05 10 9D  ...'............
0640: 0A 12 16 03 10 00 10 1F  80 9D 0A 82 15 04 10 00  ................
0650: 10 27 80 1D 2D 80 23 01  E9 05 01 6F 13 02 00 10  .'..-.#....o....
0660: 27 80 00 21 07 03 06 00  00 10 03 07 00 15 80 40  '..!...........@
0670: 20 80 21 80 01 10 27 80  1A 63 1A 9D 0A 32 16 0E   .!...'..c...2..
0680: 00 27 80 1F 80 9D 0A 32  16 0F 00 28 80 1F 80 9D  .'.....2...(....
0690: 0A 32 16 10 00 29 80 1F  80 9D 0A 32 16 11 00 2A  .2...).....2...*
06A0: 80 1F 80 9D 0A 32 16 12  00 2B 80 1F 80 1A D6 1A  .....2...+......
06B0: D4 02 2C 80 07 00 15 80  25 02 00 10 27 80 00 C7  ..,.....%...'...
06C0: 06 01 81 02 01 1E 07 03  07 00 00 10 9D 0A 72 15  ..............r.
06D0: 0D 00 00 10 27 80 03 02  10 0D 00 9D 0A 33 1A 03  ....'........3..
06E0: 10 00 10 27 80 9D 0A 43  1A 04 10 00 10 27 80 9D  ...'...C.....'..
06F0: 0A 53 1A 05 10 00 10 27  80 CC 01 02 10 03 10 04  .S.....'........
0700: 10 05 10 9D 0A 32 16 03  10 00 10 1F 80 9D 0A 82  .....2..........
0710: 15 04 10 00 10 27 80 1D  2D 80 23 01 AD 06 01 6F  .....'..-.#....o
0720: 13 02 00 10 28 80 00 E5  07 03 06 00 00 10 03 07  ....(...........
0730: 00 15 80 40 20 80 21 80  01 10 28 80 1A 63 1A 9D  ...@ .!...(..c..
0740: 0A 52 16 0E 00 27 80 1F  80 9D 0A 52 16 0F 00 28  .R...'.....R...(
0750: 80 1F 80 9D 0A 52 16 10  00 29 80 1F 80 9D 0A 52  .....R...).....R
0760: 16 11 00 2A 80 1F 80 9D  0A 52 16 12 00 2B 80 1F  ...*.....R...+..
0770: 80 1A D6 1A D4 02 2C 80  07 00 15 80 25 02 00 10  ......,.....%...
0780: 27 80 00 8B 07 01 81 02  01 E2 07 03 07 00 00 10  '...............
0790: 9D 0A 72 15 0D 00 00 10  27 80 03 02 10 0D 00 9D  ..r.....'.......
07A0: 0A 33 1A 03 10 00 10 27  80 9D 0A 43 1A 04 10 00  .3.....'...C....
07B0: 10 27 80 9D 0A 53 1A 05  10 00 10 27 80 CC 01 02  .'...S.....'....
07C0: 10 03 10 04 10 05 10 9D  0A 52 16 03 10 00 10 1F  .........R......
07D0: 80 9D 0A 82 15 04 10 00  10 27 80 1D 2D 80 23 01  .........'..-.#.
07E0: 71 07 01 6F 13 02 00 10  29 80 00 A9 08 03 06 00  q..o....).......
07F0: 00 10 03 07 00 15 80 40  20 80 21 80 01 10 29 80  .......@ .!...).
0800: 1A 63 1A 9D 0A 72 16 0E  00 27 80 1F 80 9D 0A 72  .c...r...'.....r
0810: 16 0F 00 28 80 1F 80 9D  0A 72 16 10 00 29 80 1F  ...(.....r...)..
0820: 80 9D 0A 72 16 11 00 2A  80 1F 80 9D 0A 72 16 12  ...r...*.....r..
0830: 00 2B 80 1F 80 1A D6 1A  D4 02 2C 80 07 00 15 80  .+........,.....
0840: 25 02 00 10 27 80 00 4F  08 01 81 02 01 A6 08 03  %...'..O........
0850: 07 00 00 10 9D 0A 72 15  0D 00 00 10 27 80 03 02  ......r.....'...
0860: 10 0D 00 9D 0A 33 1A 03  10 00 10 27 80 9D 0A 43  .....3.....'...C
0870: 1A 04 10 00 10 27 80 9D  0A 53 1A 05 10 00 10 27  .....'...S.....'
0880: 80 CC 01 02 10 03 10 04  10 05 10 9D 0A 72 16 03  .............r..
0890: 10 00 10 1F 80 9D 0A 82  15 04 10 00 10 27 80 1D  .............'..
08A0: 2D 80 23 01 35 08 01 6F  13 02 00 10 2A 80 00 6D  -.#.5..o....*..m
08B0: 09 03 06 00 00 10 03 07  00 15 80 40 20 80 21 80  ...........@ .!.
08C0: 01 10 2A 80 1A 63 1A 9D  0A 92 16 0E 00 27 80 1F  ..*..c.......'..
08D0: 80 9D 0A 92 16 0F 00 28  80 1F 80 9D 0A 92 16 10  .......(........
08E0: 00 29 80 1F 80 9D 0A 92  16 11 00 2A 80 1F 80 9D  .).........*....
08F0: 0A 92 16 12 00 2B 80 1F  80 1A D6 1A D4 02 2C 80  .....+........,.
0900: 07 00 15 80 25 02 00 10  27 80 00 13 09 01 81 02  ....%...'.......
0910: 01 6A 09 03 07 00 00 10  9D 0A 72 15 0D 00 00 10  .j........r.....
0920: 27 80 03 02 10 0D 00 9D  0A 33 1A 03 10 00 10 27  '........3.....'
0930: 80 9D 0A 43 1A 04 10 00  10 27 80 9D 0A 53 1A 05  ...C.....'...S..
0940: 10 00 10 27 80 CC 01 02  10 03 10 04 10 05 10 9D  ...'............
0950: 0A 92 16 03 10 00 10 1F  80 9D 0A 82 15 04 10 00  ................
0960: 10 27 80 1D 2D 80 23 01  F9 08 01 6F 13 02 00 10  .'..-.#....o....
0970: 2B 80 00 31 0A 03 06 00  00 10 03 07 00 15 80 40  +..1...........@
0980: 20 80 21 80 01 10 2B 80  1A 63 1A 9D 0A B2 16 0E   .!...+..c......
0990: 00 27 80 1F 80 9D 0A B2  16 0F 00 28 80 1F 80 9D  .'.........(....
09A0: 0A B2 16 10 00 29 80 1F  80 9D 0A B2 16 11 00 2A  .....).........*
09B0: 80 1F 80 9D 0A B2 16 12  00 2B 80 1F 80 1A D6 1A  .........+......
09C0: D4 02 2C 80 07 00 15 80  25 02 00 10 27 80 00 D7  ..,.....%...'...
09D0: 09 01 81 02 01 2E 0A 03  07 00 00 10 9D 0A 72 15  ..............r.
09E0: 0D 00 00 10 27 80 03 02  10 0D 00 9D 0A 33 1A 03  ....'........3..
09F0: 10 00 10 27 80 9D 0A 43  1A 04 10 00 10 27 80 9D  ...'...C.....'..
0A00: 0A 53 1A 05 10 00 10 27  80 CC 01 02 10 03 10 04  .S.....'........
0A10: 10 05 10 9D 0A B2 16 03  10 00 10 1F 80 9D 0A 82  ................
0A20: 15 04 10 00 10 27 80 1D  2D 80 23 01 BD 09 01 6F  .....'..-.#....o
0A30: 13 02 00 10 1F 80 00 F5  0A 03 06 00 00 10 03 07  ................
0A40: 00 15 80 40 20 80 21 80  01 10 1F 80 1A 63 1A 9D  ...@ .!......c..
0A50: 0A D2 16 0E 00 27 80 1F  80 9D 0A D2 16 0F 00 28  .....'.........(
0A60: 80 1F 80 9D 0A D2 16 10  00 29 80 1F 80 9D 0A D2  .........)......
0A70: 16 11 00 2A 80 1F 80 9D  0A D2 16 12 00 2B 80 1F  ...*.........+..
0A80: 80 1A D6 1A D4 02 2C 80  07 00 15 80 25 02 00 10  ......,.....%...
0A90: 27 80 00 9B 0A 01 81 02  01 F2 0A 03 07 00 00 10  '...............
0AA0: 9D 0A 72 15 0D 00 00 10  27 80 03 02 10 0D 00 9D  ..r.....'.......
0AB0: 0A 33 1A 03 10 00 10 27  80 9D 0A 43 1A 04 10 00  .3.....'...C....
0AC0: 10 27 80 9D 0A 53 1A 05  10 00 10 27 80 CC 01 02  .'...S.....'....
0AD0: 10 03 10 04 10 05 10 9D  0A D2 16 03 10 00 10 1F  ................
0AE0: 80 9D 0A 82 15 04 10 00  10 27 80 1D 2D 80 23 01  .........'..-.#.
0AF0: 81 0A 01 6F 13 02 00 10  2F 80 00 B9 0B 03 06 00  ...o..../.......
0B00: 00 10 03 07 00 15 80 40  20 80 21 80 01 10 2F 80  .......@ .!.../.
0B10: 1A 63 1A 9D 0A F2 16 0E  00 27 80 1F 80 9D 0A F2  .c.......'......
0B20: 16 0F 00 28 80 1F 80 9D  0A F2 16 10 00 29 80 1F  ...(.........)..
0B30: 80 9D 0A F2 16 11 00 2A  80 1F 80 9D 0A F2 16 12  .......*........
0B40: 00 2B 80 1F 80 1A D6 1A  D4 02 2C 80 07 00 15 80  .+........,.....
0B50: 25 02 00 10 27 80 00 5F  0B 01 81 02 01 B6 0B 03  %...'.._........
0B60: 07 00 00 10 9D 0A 72 15  0D 00 00 10 27 80 03 02  ......r.....'...
0B70: 10 0D 00 9D 0A 33 1A 03  10 00 10 27 80 9D 0A 43  .....3.....'...C
0B80: 1A 04 10 00 10 27 80 9D  0A 53 1A 05 10 00 10 27  .....'...S.....'
0B90: 80 CC 01 02 10 03 10 04  10 05 10 9D 0A F2 16 03  ................
0BA0: 10 00 10 1F 80 9D 0A 82  15 04 10 00 10 27 80 1D  .............'..
0BB0: 2D 80 23 01 45 0B 01 6F  13 02 00 10 30 80 00 7D  -.#.E..o....0..}
0BC0: 0C 03 06 00 00 10 03 07  00 15 80 40 20 80 21 80  ...........@ .!.
0BD0: 01 10 30 80 1A 63 1A 9D  0A 12 17 0E 00 27 80 1F  ..0..c.......'..
0BE0: 80 9D 0A 12 17 0F 00 28  80 1F 80 9D 0A 12 17 10  .......(........
0BF0: 00 29 80 1F 80 9D 0A 12  17 11 00 2A 80 1F 80 9D  .).........*....
0C00: 0A 12 17 12 00 2B 80 1F  80 1A D6 1A D4 02 2C 80  .....+........,.
0C10: 07 00 15 80 25 02 00 10  27 80 00 23 0C 01 81 02  ....%...'..#....
0C20: 01 7A 0C 03 07 00 00 10  9D 0A 72 15 0D 00 00 10  .z........r.....
0C30: 27 80 03 02 10 0D 00 9D  0A 33 1A 03 10 00 10 27  '........3.....'
0C40: 80 9D 0A 43 1A 04 10 00  10 27 80 9D 0A 53 1A 05  ...C.....'...S..
0C50: 10 00 10 27 80 CC 01 02  10 03 10 04 10 05 10 9D  ...'............
0C60: 0A 12 17 03 10 00 10 1F  80 9D 0A 82 15 04 10 00  ................
0C70: 10 27 80 1D 2D 80 23 01  09 0C 01 6F 13 02 00 10  .'..-.#....o....
0C80: 31 80 00 41 0D 03 06 00  00 10 03 07 00 15 80 40  1..A...........@
0C90: 20 80 21 80 01 10 31 80  1A 63 1A 9D 0A 32 17 0E   .!...1..c...2..
0CA0: 00 27 80 1F 80 9D 0A 32  17 0F 00 28 80 1F 80 9D  .'.....2...(....
0CB0: 0A 32 17 10 00 29 80 1F  80 9D 0A 32 17 11 00 2A  .2...).....2...*
0CC0: 80 1F 80 9D 0A 32 17 12  00 2B 80 1F 80 1A D6 1A  .....2...+......
0CD0: D4 02 2C 80 07 00 15 80  25 02 00 10 27 80 00 E7  ..,.....%...'...
0CE0: 0C 01 81 02 01 3E 0D 03  07 00 00 10 9D 0A 72 15  .....>........r.
0CF0: 0D 00 00 10 27 80 03 02  10 0D 00 9D 0A 33 1A 03  ....'........3..
0D00: 10 00 10 27 80 9D 0A 43  1A 04 10 00 10 27 80 9D  ...'...C.....'..
0D10: 0A 53 1A 05 10 00 10 27  80 CC 01 02 10 03 10 04  .S.....'........
0D20: 10 05 10 9D 0A 32 17 03  10 00 10 1F 80 9D 0A 82  .....2..........
0D30: 15 04 10 00 10 27 80 1D  2D 80 23 01 CD 0C 01 6F  .....'..-.#....o
0D40: 13 02 00 10 32 80 00 05  0E 03 06 00 00 10 03 07  ....2...........
0D50: 00 15 80 40 20 80 21 80  01 10 32 80 1A 63 1A 9D  ...@ .!...2..c..
0D60: 0A 52 17 0E 00 27 80 1F  80 9D 0A 52 17 0F 00 28  .R...'.....R...(
0D70: 80 1F 80 9D 0A 52 17 10  00 29 80 1F 80 9D 0A 52  .....R...).....R
0D80: 17 11 00 2A 80 1F 80 9D  0A 52 17 12 00 2B 80 1F  ...*.....R...+..
0D90: 80 1A D6 1A D4 02 2C 80  07 00 15 80 25 02 00 10  ......,.....%...
0DA0: 27 80 00 AB 0D 01 81 02  01 02 0E 03 07 00 00 10  '...............
0DB0: 9D 0A 72 15 0D 00 00 10  27 80 03 02 10 0D 00 9D  ..r.....'.......
0DC0: 0A 33 1A 03 10 00 10 27  80 9D 0A 43 1A 04 10 00  .3.....'...C....
0DD0: 10 27 80 9D 0A 53 1A 05  10 00 10 27 80 CC 01 02  .'...S.....'....
0DE0: 10 03 10 04 10 05 10 9D  0A 52 17 03 10 00 10 1F  .........R......
0DF0: 80 9D 0A 82 15 04 10 00  10 27 80 1D 2D 80 23 01  .........'..-.#.
0E00: 91 0D 01 6F 13 02 00 10  1C 80 00 C9 0E 03 06 00  ...o............
0E10: 00 10 03 07 00 15 80 40  20 80 21 80 01 10 1C 80  .......@ .!.....
0E20: 1A 63 1A 9D 0A 72 17 0E  00 27 80 1F 80 9D 0A 72  .c...r...'.....r
0E30: 17 0F 00 28 80 1F 80 9D  0A 72 17 10 00 29 80 1F  ...(.....r...)..
0E40: 80 9D 0A 72 17 11 00 2A  80 1F 80 9D 0A 72 17 12  ...r...*.....r..
0E50: 00 2B 80 1F 80 1A D6 1A  D4 02 2C 80 07 00 15 80  .+........,.....
0E60: 25 02 00 10 27 80 00 6F  0E 01 81 02 01 C6 0E 03  %...'..o........
0E70: 07 00 00 10 9D 0A 72 15  0D 00 00 10 27 80 03 02  ......r.....'...
0E80: 10 0D 00 9D 0A 33 1A 03  10 00 10 27 80 9D 0A 43  .....3.....'...C
0E90: 1A 04 10 00 10 27 80 9D  0A 53 1A 05 10 00 10 27  .....'...S.....'
0EA0: 80 CC 01 02 10 03 10 04  10 05 10 9D 0A 72 17 03  .............r..
0EB0: 10 00 10 1F 80 9D 0A 82  15 04 10 00 10 27 80 1D  .............'..
0EC0: 2D 80 23 01 55 0E 01 6F  13 02 00 10 20 80 00 8D  -.#.U..o.... ...
0ED0: 0F 03 06 00 00 10 03 07  00 15 80 40 20 80 21 80  ...........@ .!.
0EE0: 01 10 20 80 1A 63 1A 9D  0A 92 17 0E 00 27 80 1F  .. ..c.......'..
0EF0: 80 9D 0A 92 17 0F 00 28  80 1F 80 9D 0A 92 17 10  .......(........
0F00: 00 29 80 1F 80 9D 0A 92  17 11 00 2A 80 1F 80 9D  .).........*....
0F10: 0A 92 17 12 00 2B 80 1F  80 1A D6 1A D4 02 2C 80  .....+........,.
0F20: 07 00 15 80 25 02 00 10  27 80 00 33 0F 01 81 02  ....%...'..3....
0F30: 01 8A 0F 03 07 00 00 10  9D 0A 72 15 0D 00 00 10  ..........r.....
0F40: 27 80 03 02 10 0D 00 9D  0A 33 1A 03 10 00 10 27  '........3.....'
0F50: 80 9D 0A 43 1A 04 10 00  10 27 80 9D 0A 53 1A 05  ...C.....'...S..
0F60: 10 00 10 27 80 CC 01 02  10 03 10 04 10 05 10 9D  ...'............
0F70: 0A 92 17 03 10 00 10 1F  80 9D 0A 82 15 04 10 00  ................
0F80: 10 27 80 1D 2D 80 23 01  19 0F 01 6F 13 02 00 10  .'..-.#....o....
0F90: 33 80 00 51 10 03 06 00  00 10 03 07 00 15 80 40  3..Q...........@
0FA0: 20 80 21 80 01 10 33 80  1A 63 1A 9D 0A B2 17 0E   .!...3..c......
0FB0: 00 27 80 1F 80 9D 0A B2  17 0F 00 28 80 1F 80 9D  .'.........(....
0FC0: 0A B2 17 10 00 29 80 1F  80 9D 0A B2 17 11 00 2A  .....).........*
0FD0: 80 1F 80 9D 0A B2 17 12  00 2B 80 1F 80 1A D6 1A  .........+......
0FE0: D4 02 2C 80 07 00 15 80  25 02 00 10 27 80 00 F7  ..,.....%...'...
0FF0: 0F 01 81 02 01 4E 10 03  07 00 00 10 9D 0A 72 15  .....N........r.
1000: 0D 00 00 10 27 80 03 02  10 0D 00 9D 0A 33 1A 03  ....'........3..
1010: 10 00 10 27 80 9D 0A 43  1A 04 10 00 10 27 80 9D  ...'...C.....'..
1020: 0A 53 1A 05 10 00 10 27  80 CC 01 02 10 03 10 04  .S.....'........
1030: 10 05 10 9D 0A B2 17 03  10 00 10 1F 80 9D 0A 82  ................
1040: 15 04 10 00 10 27 80 1D  2D 80 23 01 DD 0F 01 6F  .....'..-.#....o
1050: 13 02 00 10 34 80 00 15  11 03 06 00 00 10 03 07  ....4...........
1060: 00 15 80 40 20 80 21 80  01 10 34 80 1A 63 1A 9D  ...@ .!...4..c..
1070: 0A D2 17 0E 00 27 80 1F  80 9D 0A D2 17 0F 00 28  .....'.........(
1080: 80 1F 80 9D 0A D2 17 10  00 29 80 1F 80 9D 0A D2  .........)......
1090: 17 11 00 2A 80 1F 80 9D  0A D2 17 12 00 2B 80 1F  ...*.........+..
10A0: 80 1A D6 1A D4 02 2C 80  07 00 15 80 25 02 00 10  ......,.....%...
10B0: 27 80 00 BB 10 01 81 02  01 12 11 03 07 00 00 10  '...............
10C0: 9D 0A 72 15 0D 00 00 10  27 80 03 02 10 0D 00 9D  ..r.....'.......
10D0: 0A 33 1A 03 10 00 10 27  80 9D 0A 43 1A 04 10 00  .3.....'...C....
10E0: 10 27 80 9D 0A 53 1A 05  10 00 10 27 80 CC 01 02  .'...S.....'....
10F0: 10 03 10 04 10 05 10 9D  0A D2 17 03 10 00 10 1F  ................
1100: 80 9D 0A 82 15 04 10 00  10 27 80 1D 2D 80 23 01  .........'..-.#.
1110: A1 10 01 6F 13 02 00 10  35 80 00 D9 11 03 06 00  ...o....5.......
1120: 00 10 03 07 00 15 80 40  20 80 21 80 01 10 35 80  .......@ .!...5.
1130: 1A 63 1A 9D 0A F2 17 0E  00 27 80 1F 80 9D 0A F2  .c.......'......
1140: 17 0F 00 28 80 1F 80 9D  0A F2 17 10 00 29 80 1F  ...(.........)..
1150: 80 9D 0A F2 17 11 00 2A  80 1F 80 9D 0A F2 17 12  .......*........
1160: 00 2B 80 1F 80 1A D6 1A  D4 02 2C 80 07 00 15 80  .+........,.....
1170: 25 02 00 10 27 80 00 7F  11 01 81 02 01 D6 11 03  %...'...........
1180: 07 00 00 10 9D 0A 72 15  0D 00 00 10 27 80 03 02  ......r.....'...
1190: 10 0D 00 9D 0A 33 1A 03  10 00 10 27 80 9D 0A 43  .....3.....'...C
11A0: 1A 04 10 00 10 27 80 9D  0A 53 1A 05 10 00 10 27  .....'...S.....'
11B0: 80 CC 01 02 10 03 10 04  10 05 10 9D 0A F2 17 03  ................
11C0: 10 00 10 1F 80 9D 0A 82  15 04 10 00 10 27 80 1D  .............'..
11D0: 2D 80 23 01 65 11 01 6F  13 02 00 10 36 80 00 9D  -.#.e..o....6...
11E0: 12 03 06 00 00 10 03 07  00 15 80 40 20 80 21 80  ...........@ .!.
11F0: 01 10 36 80 1A 63 1A 9D  0A 12 18 0E 00 27 80 1F  ..6..c.......'..
1200: 80 9D 0A 12 18 0F 00 28  80 1F 80 9D 0A 12 18 10  .......(........
1210: 00 29 80 1F 80 9D 0A 12  18 11 00 2A 80 1F 80 9D  .).........*....
1220: 0A 12 18 12 00 2B 80 1F  80 1A D6 1A D4 02 2C 80  .....+........,.
1230: 07 00 15 80 25 02 00 10  27 80 00 43 12 01 81 02  ....%...'..C....
1240: 01 9A 12 03 07 00 00 10  9D 0A 72 15 0D 00 00 10  ..........r.....
1250: 27 80 03 02 10 0D 00 9D  0A 33 1A 03 10 00 10 27  '........3.....'
1260: 80 9D 0A 43 1A 04 10 00  10 27 80 9D 0A 53 1A 05  ...C.....'...S..
1270: 10 00 10 27 80 CC 01 02  10 03 10 04 10 05 10 9D  ...'............
1280: 0A 12 18 03 10 00 10 1F  80 9D 0A 82 15 04 10 00  ................
1290: 10 27 80 1D 2D 80 23 01  29 12 01 6F 13 02 00 10  .'..-.#.)..o....
12A0: 37 80 00 61 13 03 06 00  00 10 03 07 00 15 80 40  7..a...........@
12B0: 20 80 21 80 01 10 37 80  1A 63 1A 9D 0A 32 18 0E   .!...7..c...2..
12C0: 00 27 80 1F 80 9D 0A 32  18 0F 00 28 80 1F 80 9D  .'.....2...(....
12D0: 0A 32 18 10 00 29 80 1F  80 9D 0A 32 18 11 00 2A  .2...).....2...*
12E0: 80 1F 80 9D 0A 32 18 12  00 2B 80 1F 80 1A D6 1A  .....2...+......
12F0: D4 02 2C 80 07 00 15 80  25 02 00 10 27 80 00 07  ..,.....%...'...
1300: 13 01 81 02 01 5E 13 03  07 00 00 10 9D 0A 72 15  .....^........r.
1310: 0D 00 00 10 27 80 03 02  10 0D 00 9D 0A 33 1A 03  ....'........3..
1320: 10 00 10 27 80 9D 0A 43  1A 04 10 00 10 27 80 9D  ...'...C.....'..
1330: 0A 53 1A 05 10 00 10 27  80 CC 01 02 10 03 10 04  .S.....'........
1340: 10 05 10 9D 0A 32 18 03  10 00 10 1F 80 9D 0A 82  .....2..........
1350: 15 04 10 00 10 27 80 1D  2D 80 23 01 ED 12 01 6F  .....'..-.#....o
1360: 13 02 00 10 38 80 00 6F  13 01 E0 00 01 6F 13 01  ....8..o.....o..
1370: E0 00 01 6E 15 02 00 10  2E 80 00 88 13 03 05 00  ...n............
1380: 00 10 01 81 02 01 6E 15  02 00 10 27 80 00 D5 13  ......n....'....
1390: 03 05 00 00 10 40 15 80  1C 80 01 10 2E 80 43 00  .....@........C.
13A0: 43 01 02 02 10 15 80 00  AD 13 01 B1 13 1D 39 80  C.............9.
13B0: 23 02 04 10 15 80 00 BC  13 01 C0 13 1D 3A 80 23  #............:.#
13C0: 02 06 10 15 80 00 CB 13  01 CF 13 1D 3B 80 23 01  ............;.#.
13D0: E0 00 01 6E 15 02 00 10  28 80 00 7D 14 03 05 00  ...n....(..}....
13E0: 00 10 3C 0A 00 23 80 00  80 24 3C 80 08 00 0A 00  ..<..#...$<.....
13F0: 25 02 00 10 15 80 00 21  14 03 08 00 00 10 1D 3D  %......!.......=
1400: 80 23 1D 3E 80 23 1D 3F  80 23 1D 40 80 23 03 02  .#.>.#.?.#.@.#..
1410: 10 16 80 1D 41 80 23 1D  42 80 23 01 E2 13 01 7A  ....A.#.B.#....z
1420: 14 02 00 10 00 80 00 59  14 03 08 00 00 10 1D 43  .......Y.......C
1430: 80 23 1D 44 80 23 1D 3F  80 23 1D 45 80 23 1D 46  .#.D.#.?.#.E.#.F
1440: 80 23 1D 47 80 23 03 02  10 27 80 1D 41 80 23 1D  .#.G.#...'..A.#.
1450: 42 80 23 01 E2 13 01 7A  14 02 00 10 23 80 00 6C  B.#....z....#..l
1460: 14 03 08 00 00 10 01 E2  13 01 7A 14 02 00 10 16  ..........z.....
1470: 80 00 7A 14 01 E0 00 01  7A 14 01 6E 15 02 00 10  ..z.....z..n....
1480: 29 80 00 A1 14 03 05 00  00 10 40 15 80 1C 80 01  ).........@.....
1490: 10 2A 80 43 00 43 01 1D  48 80 23 01 E0 00 01 6E  .*.C.C..H.#....n
14A0: 15 02 00 10 2A 80 00 C5  14 03 05 00 00 10 03 02  ....*...........
14B0: 10 1A 80 1D 49 80 23 1D  4A 80 23 1D 4B 80 23 01  ....I.#.J.#.K.#.
14C0: E0 00 01 6E 15 02 00 10  2B 80 00 0C 15 03 05 00  ...n....+.......
14D0: 00 10 40 15 80 1C 80 01  10 2B 80 43 00 43 01 40  ..@......+.C.C.@
14E0: 15 80 1C 80 01 10 1F 80  43 00 43 01 40 15 80 1C  ........C.C.@...
14F0: 80 01 10 2F 80 43 00 43  01 40 15 80 1C 80 01 10  .../.C.C.@......
1500: 30 80 43 00 43 01 01 E0  00 01 6E 15 02 00 10 1F  0.C.C.....n.....
1510: 80 00 43 15 03 05 00 00  10 03 02 10 03 00 03 03  ..C.............
1520: 10 1A 80 03 04 10 4C 80  1D 4D 80 23 1D 4E 80 23  ......L..M.#.N.#
1530: 1D 4F 80 23 03 05 10 04  00 1D 50 80 23 01 E0 00  .O.#......P.#...
1540: 01 6E 15 02 00 10 2F 80  00 5E 15 03 05 00 00 10  .n..../..^......
1550: 1D 51 80 23 1D 52 80 23  01 E0 00 01 6E 15 02 00  .Q.#.R.#....n...
1560: 10 30 80 00 6E 15 03 01  10 15 80 01 6E 15 2E 20  .0..n.......n.. 
1570: 00 21 02 10 03 10 04 10  05 10 06 10 15 80 15 80  .!..............
1580: 15 80 53 80 54 80 55 80  56 80 4C 80 15 80 15 80  ..S.T.U.V.L.....
1590: 15 80 57 80 58 80 59 80  5A 80 5B 80 5C 80 5D 80  ..W.X.Y.Z.[.\.].
15A0: 5E 80 5F 80 60 80 15 80  15 80 15 80 15 80 15 80  ^._.`...........
15B0: 15 80 61 80 62 80 63 80  64 80 65 80 66 80 67 80  ..a.b.c.d.e.f.g.
15C0: 68 80 69 80 6A 80 15 80  15 80 15 80 15 80 15 80  h.i.j...........
15D0: 15 80 6B 80 6C 80 6D 80  6E 80 6F 80 70 80 71 80  ..k.l.m.n.o.p.q.
15E0: 72 80 73 80 74 80 15 80  15 80 15 80 15 80 15 80  r.s.t...........
15F0: 15 80 75 80 76 80 77 80  78 80 79 80 7A 80 7B 80  ..u.v.w.x.y.z.{.
1600: 7C 80 7D 80 7E 80 15 80  15 80 15 80 15 80 15 80  |.}.~...........
1610: 15 80 7F 80 80 80 81 80  82 80 83 80 84 80 85 80  ................
1620: 86 80 87 80 88 80 15 80  15 80 15 80 15 80 15 80  ................
1630: 15 80 89 80 8A 80 8B 80  8C 80 8D 80 8E 80 8F 80  ................
1640: 90 80 91 80 92 80 15 80  15 80 15 80 15 80 15 80  ................
1650: 15 80 93 80 94 80 95 80  96 80 97 80 98 80 99 80  ................
1660: 9A 80 9B 80 9C 80 15 80  15 80 15 80 15 80 15 80  ................
1670: 15 80 9D 80 9E 80 9F 80  A0 80 A1 80 A2 80 A3 80  ................
1680: A4 80 A5 80 A6 80 15 80  15 80 15 80 15 80 15 80  ................
1690: 15 80 A7 80 A8 80 A9 80  AA 80 AB 80 AC 80 AD 80  ................
16A0: AE 80 AF 80 B0 80 15 80  15 80 15 80 15 80 15 80  ................
16B0: 15 80 B1 80 B2 80 B3 80  B4 80 B5 80 B6 80 B7 80  ................
16C0: B8 80 B9 80 BA 80 15 80  15 80 15 80 15 80 15 80  ................
16D0: 15 80 BB 80 BC 80 BD 80  BE 80 BF 80 C0 80 C1 80  ................
16E0: C2 80 C3 80 C4 80 15 80  15 80 15 80 15 80 15 80  ................
16F0: 15 80 C5 80 C6 80 C7 80  C8 80 C9 80 CA 80 CB 80  ................
1700: CC 80 CD 80 CE 80 15 80  15 80 15 80 15 80 15 80  ................
1710: 15 80 CF 80 D0 80 D1 80  D2 80 D3 80 D4 80 D5 80  ................
1720: D6 80 D7 80 D8 80 15 80  15 80 15 80 15 80 15 80  ................
1730: 15 80 D9 80 DA 80 DB 80  DC 80 DD 80 DE 80 DF 80  ................
1740: E0 80 E1 80 E2 80 15 80  15 80 15 80 15 80 15 80  ................
1750: 15 80 E3 80 E4 80 E5 80  E6 80 E7 80 E8 80 E9 80  ................
1760: EA 80 EB 80 EC 80 15 80  15 80 15 80 15 80 15 80  ................
1770: 15 80 ED 80 EE 80 EF 80  F0 80 F1 80 F2 80 F3 80  ................
1780: F4 80 F5 80 F6 80 15 80  15 80 15 80 15 80 15 80  ................
1790: 15 80 F7 80 F8 80 F9 80  FA 80 FB 80 FC 80 FD 80  ................
17A0: FE 80 FF 80 00 81 15 80  15 80 15 80 15 80 15 80  ................
17B0: 15 80 01 81 02 81 03 81  04 81 05 81 06 81 07 81  ................
17C0: 08 81 09 81 0A 81 15 80  15 80 15 80 15 80 15 80  ................
17D0: 15 80 0B 81 0C 81 0D 81  0E 81 0F 81 10 81 11 81  ................
17E0: 12 81 13 81 14 81 15 80  15 80 15 80 15 80 15 80  ................
17F0: 15 80 15 81 16 81 17 81  18 81 19 81 1A 81 1B 81  ................
1800: 1C 81 1D 81 1E 81 15 80  15 80 15 80 15 80 15 80  ................
1810: 15 80 1F 81 20 81 21 81  22 81 23 81 24 81 25 81  .... .!.".#.$.%.
1820: 26 81 27 81 28 81 15 80  15 80 15 80 15 80 15 80  &.'.(...........
1830: 15 80 29 81 2A 81 2B 81  2C 81 2D 81 2E 81 2F 81  ..).*.+.,.-.../.
1840: 30 81 31 81 32 81 15 80  15 80 15 80 15 80 15 80  0.1.2...........
1850: 15 80 33 81 34 81 35 81  36 81 37 81 38 81 39 81  ..3.4.5.6.7.8.9.
1860: 3A 81 3B 81 3C 81 3D 81  3E 81 3F 81 40 81 41 81  :.;.<.=.>.?.@.A.
1870: 42 81 43 81 44 81 45 81  46 81 47 81 48 81 15 80  B.C.D.E.F.G.H...
1880: 15 80 49 81 4A 81 4B 81  4C 81 4D 81 4E 81 4F 81  ..I.J.K.L.M.N.O.
1890: 50 81 51 81 52 81 53 81  54 81 55 81 56 81 57 81  P.Q.R.S.T.U.V.W.
18A0: 58 81 59 81 5A 81 5B 81  5C 81 5D 81 5E 81 15 80  X.Y.Z.[.\.].^...
18B0: 15 80 5F 81 60 81 61 81  62 81 63 81 64 81 65 81  .._.`.a.b.c.d.e.
18C0: 66 81 67 81 68 81 69 81  6A 81 6B 81 6C 81 6D 81  f.g.h.i.j.k.l.m.
18D0: 6E 81 6F 81 70 81 71 81  72 81 73 81 74 81 15 80  n.o.p.q.r.s.t...
18E0: 15 80 75 81 76 81 77 81  78 81 79 81 7A 81 7B 81  ..u.v.w.x.y.z.{.
18F0: 7C 81 7D 81 7E 81 7F 81  80 81 81 81 82 81 83 81  |.}.~...........
1900: 84 81 85 81 86 81 87 81  88 81 89 81 8A 81 15 80  ................
1910: 15 80 8B 81 8C 81 8D 81  8E 81 8F 81 90 81 91 81  ................
1920: 92 81 93 81 94 81 95 81  96 81 97 81 98 81 99 81  ................
1930: 9A 81 9B 81 9C 81 9D 81  9E 81 9F 81 A0 81 15 80  ................
1940: 15 80 A1 81 A2 81 A3 81  A4 81 A5 81 A6 81 A7 81  ................
1950: A8 81 A9 81 AA 81 AB 81  AC 81 AD 81 AE 81 AF 81  ................
1960: B0 81 B1 81 B2 81 B3 81  B4 81 B5 81 B6 81 15 80  ................
1970: 15 80 B7 81 B8 81 B9 81  BA 81 BB 81 BC 81 BD 81  ................
1980: BE 81 BF 81 C0 81 C1 81  C2 81 C3 81 C4 81 C5 81  ................
1990: C6 81 C7 81 C8 81 C9 81  CA 81 CB 81 CC 81 15 80  ................
19A0: 15 80 CD 81 CE 81 CF 81  D0 81 D1 81 D2 81 D3 81  ................
19B0: D4 81 D5 81 D6 81 D7 81  D8 81 D9 81 DA 81 DB 81  ................
19C0: DC 81 DD 81 DE 81 DF 81  E0 81 E1 81 E2 81 15 80  ................
19D0: 15 80 E3 81 E4 81 E5 81  E6 81 E7 81 E8 81 E9 81  ................
19E0: EA 81 EB 81 EC 81 ED 81  EE 81 EF 81 F0 81 F1 81  ................
19F0: F2 81 F3 81 F4 81 F5 81  F6 81 F7 81 F8 81 15 80  ................
1A00: 15 80 F9 81 FA 81 FB 81  FC 81 FD 81 FE 81 FF 81  ................
1A10: 00 82 01 82 02 82 03 82  04 82 05 82 06 82 07 82  ................
1A20: 08 82 09 82 0A 82 0B 82  0C 82 0D 82 0E 82 15 80  ................
1A30: 15 80 00 13 00 16 00 19  00 1C 00 1F 00 15 80 15  ................
1A40: 80 15 80 14 00 17 00 1A  00 1D 00 20 00 15 80 15  ........... ....
1A50: 80 15 80 15 00 18 00 1B  00 1E 00 21 00 15 80 15  ...........!....
1A60: 80 15 80 40 15 80 1C 80  01 10 27 80 43 00 43 01  ...@......'.C.C.
1A70: 03 16 00 02 10 03 17 00  03 10 03 18 00 04 10 03  ................
1A80: 13 00 05 10 03 14 00 06  10 03 15 00 07 10 40 15  ..............@.
1A90: 80 1C 80 01 10 28 80 43  00 43 01 03 1C 00 02 10  .....(.C.C......
1AA0: 03 1D 00 03 10 03 1E 00  04 10 03 19 00 05 10 03  ................
1AB0: 1A 00 06 10 03 1B 00 07  10 40 15 80 1C 80 01 10  .........@......
1AC0: 29 80 43 00 43 01 03 1F  00 02 10 03 20 00 03 10  ).C.C....... ...
1AD0: 03 21 00 04 10 1B D4 04  15 80 0E 00 13 00 14 00  .!..............
1AE0: 15 00 D4 04 00 80 0F 00  16 00 17 00 18 00 D4 04  ................
1AF0: 23 80 10 00 19 00 1A 00  1B 00 D4 04 16 80 11 00  #...............
1B00: 1C 00 1D 00 1E 00 D4 04  2E 80 12 00 1F 00 20 00  .............. .
1B10: 21 00 03 02 10 0E 00 03  03 10 0F 00 03 04 10 10  !...............
1B20: 00 03 05 10 11 00 03 06  10 12 00 1B              ............    
```

#### Opcodes

```
  0: 0x00B5 [0x03] ExtData[1]->WorkLocal[9] = Work_Zone[2]
  1: 0x00BA [0x03] ExtData[1]->WorkLocal[3] = Work_Zone[3]
  2: 0x00BF [0x03] ExtData[1]->WorkLocal[4] = Work_Zone[4]
  3: 0x00C4 [0x1E] EventEntity looks at LocalPlayer and starts talking
  4: 0x00C9 [0x1C] WAIT(1* ticks)
  5: 0x00CC [0x03] ExtData[1]->WorkLocal[5] = 0*
  6: 0x00D1 [0x03] ExtData[1]->WorkLocal[6] = 0*
  7: 0x00D6 [0x03] ExtData[1]->WorkLocal[7] = 0*
  8: 0x00DB [0x03] ExtData[1]->WorkLocal[8] = 0*
  9: 0x00E0 [0x03] Work_Zone[2] = 9999*
 10: 0x00E5 [0x03] Work_Zone[3] = ExtData[1]->WorkLocal[3]
 11: 0x00EA [0x24] CREATE_DIALOG(message_id=7261*, default_option=ExtData[1]->WorkLocal[5], option_flags=ExtData[1]->WorkLocal[9])
    → "Inquire about what? [Level settings./Temenos./Temenos Units./The Temenos Furnace./Equipment list./Grace./Notorious monsters./Tresure coffer timings./%.@/CN Opening.$1./Reforging.@/Nothing for now.]"
 12: 0x00F1 [0x25] WAIT_DIALOG_SELECT()
 13: 0x00F2 [0x02] IF !(Work_Zone[0] == 0*) GOTO 0x0210
 14: 0x00FA [0x03] ExtData[1]->WorkLocal[5] = Work_Zone[0]
 15: 0x00FF [0x40] SET_BIT_WORK_RANGE(start_bit=0*, end_bit=15*, target=Work_Zone[1], source=1*)
 16: 0x0108 [0x43] SEND_EVENT_UPDATE: Send pending tag to server (packet 0x005B)
 17: 0x010A [0x43] SEND_EVENT_UPDATE: Check pending flag (skip if not pending)
 18: 0x010C [0x03] ExtData[1]->WorkLocal[0] = Work_Zone[2]
 19: 0x0111 [0x03] ExtData[1]->WorkLocal[1] = Work_Zone[3]
 20: 0x0116 [0x07] ExtData[1]->WorkLocal[0] += 118*
 21: 0x011B [0x03] Work_Zone[2] = 349*
 22: 0x0120 [0x03] Work_Zone[3] = 135*
 23: 0x0125 [0x1D] PRINT_EVENT_MESSAGE(message_id=7253*)
    → "Enter a level value between 119 and $1 to be recorded in your $3."
 24: 0x0128 [0x23] WAIT_FOR_DIALOG_INTERACTION
 25: 0x0129 [0x48] [System] [7255*]:
    → "Enter 0 to cancel."
 26: 0x012C [0x02] IF !(ExtData[1]->WorkLocal[1] == 0*) GOTO 0x0137
 27: 0x0134 [0x01] GOTO 0x013A
 28: 0x0137 [0x48] [System] [7257*]:
    → "Increasing the level will reset your progress."

SUBROUTINE_013A:
 29: 0x013A [0x03] Work_Zone[1] = 0*
 30: 0x013F [0x71] USER_INPUT_HANDLER: Open numerical input with params (work=[1*, 3*])
 31: 0x0145 [0x71] USER_INPUT_HANDLER: Process numerical input B (work=ExtData[1]->WorkLocal[2])
 32: 0x0149 [0x02] IF !(ExtData[1]->WorkLocal[2] == 0*) GOTO 0x0154
 33: 0x0151 [0x01] GOTO 0x020D
 34: 0x0154 [0x02] IF !(ExtData[1]->WorkLocal[2] < 119*) GOTO 0x020A
 35: 0x015C [0x02] IF !(ExtData[1]->WorkLocal[2] > 135*) GOTO 0x0204
 36: 0x0164 [0x42] SET_CLI_EVENT_CANCEL_DATA()
 37: 0x0165 [0x02] IF !(ExtData[1]->WorkLocal[1] == 0*) GOTO 0x0190
 38: 0x016D [0x03] Work_Zone[2] = 349*
 39: 0x0172 [0x03] Work_Zone[3] = ExtData[1]->WorkLocal[2]
 40: 0x0177 [0x40] SET_BIT_WORK_RANGE(start_bit=0*, end_bit=10*, target=Work_Zone[1], source=1*)
 41: 0x0180 [0x40] SET_BIT_WORK_RANGE(start_bit=16*, end_bit=31*, target=Work_Zone[1], source=ExtData[1]->WorkLocal[2])
 42: 0x0189 [0x1D] PRINT_EVENT_MESSAGE(message_id=7254*)
    → ""$1" has been recorded in your $3."
 43: 0x018C [0x23] WAIT_FOR_DIALOG_INTERACTION
 44: 0x018D [0x01] GOTO 0x0201
 45: 0x0190 [0x02] IF !(ExtData[1]->WorkLocal[2] <= ExtData[1]->WorkLocal[0]) GOTO 0x01E1
 46: 0x0198 [0x48] [System] [7257*]:
    → "Increasing the level will reset your progress."
 47: 0x019B [0x24] CREATE_DIALOG(message_id=7258*, default_option=1*, option_flags=0*)
    → "What will you do? [Change level and reset./Never mind.]"
 48: 0x01A2 [0x25] WAIT_DIALOG_SELECT()
 49: 0x01A3 [0x02] IF !(Work_Zone[0] == 0*) GOTO 0x01CE
 50: 0x01AB [0x03] Work_Zone[2] = 349*
 51: 0x01B0 [0x03] Work_Zone[3] = ExtData[1]->WorkLocal[2]
 52: 0x01B5 [0x40] SET_BIT_WORK_RANGE(start_bit=0*, end_bit=10*, target=Work_Zone[1], source=1*)
 53: 0x01BE [0x40] SET_BIT_WORK_RANGE(start_bit=16*, end_bit=31*, target=Work_Zone[1], source=ExtData[1]->WorkLocal[2])
 54: 0x01C7 [0x1D] PRINT_EVENT_MESSAGE(message_id=7254*)
    → ""$1" has been recorded in your $3."
 55: 0x01CA [0x23] WAIT_FOR_DIALOG_INTERACTION
 56: 0x01CB [0x01] GOTO 0x01DE
 57: 0x01CE [0x02] IF !(Work_Zone[0] == 1*) GOTO 0x01DE
 58: 0x01D6 [0x03] Work_Zone[1] = 0*
 59: 0x01DB [0x01] GOTO 0x01DE

SUBROUTINE_01DE:
 60: 0x01DE [0x01] GOTO 0x0201
 61: 0x01E1 [0x03] Work_Zone[2] = 349*
 62: 0x01E6 [0x03] Work_Zone[3] = ExtData[1]->WorkLocal[2]
 63: 0x01EB [0x40] SET_BIT_WORK_RANGE(start_bit=0*, end_bit=10*, target=Work_Zone[1], source=1*)
 64: 0x01F4 [0x40] SET_BIT_WORK_RANGE(start_bit=16*, end_bit=31*, target=Work_Zone[1], source=ExtData[1]->WorkLocal[2])
 65: 0x01FD [0x1D] PRINT_EVENT_MESSAGE(message_id=7254*)
    → ""$1" has been recorded in your $3."
 66: 0x0200 [0x23] WAIT_FOR_DIALOG_INTERACTION

SUBROUTINE_0201:
 67: 0x0201 [0x01] GOTO 0x0207
 68: 0x0204 [0x01] GOTO 0x011B

SUBROUTINE_0207:
 69: 0x0207 [0x01] GOTO 0x020D
 70: 0x020A [0x01] GOTO 0x011B

SUBROUTINE_020D:
 71: 0x020D [0x01] GOTO 0x156E
 72: 0x0210 [0x02] IF !(Work_Zone[0] == 1*) GOTO 0x024C
 73: 0x0218 [0x03] ExtData[1]->WorkLocal[5] = Work_Zone[0]
 74: 0x021D [0x03] Work_Zone[2] = 349*
 75: 0x0222 [0x1D] PRINT_EVENT_MESSAGE(message_id=7239*)
    → "Welcome to Temenos. This place is designed for the generation of new life-forms."
 76: 0x0225 [0x23] WAIT_FOR_DIALOG_INTERACTION
 77: 0x0226 [0x1D] PRINT_EVENT_MESSAGE(message_id=7240*)
    → "North, West, East, and Central Towers contain monsters for recording data in your $3."
 78: 0x0229 [0x23] WAIT_FOR_DIALOG_INTERACTION
 79: 0x022A [0x1D] PRINT_EVENT_MESSAGE(message_id=7241*)
    → "Successfully recording data will permit you to open Temenos Coffers."
 80: 0x022D [0x23] WAIT_FOR_DIALOG_INTERACTION
 81: 0x022E [0x1D] PRINT_EVENT_MESSAGE(message_id=7242*)
    → "You will also be authorized to collect a special currency called Temenos Units."
 82: 0x0231 [0x23] WAIT_FOR_DIALOG_INTERACTION
 83: 0x0232 [0x1D] PRINT_EVENT_MESSAGE(message_id=7243*)
    → "Systems are only capable of recording data for each registrant up to five times per week (Earth time)."
 84: 0x0235 [0x23] WAIT_FOR_DIALOG_INTERACTION
 85: 0x0236 [0x1D] PRINT_EVENT_MESSAGE(message_id=7244*)
    → "Temenos Units can be used in the Temenos Furnace."
 86: 0x0239 [0x23] WAIT_FOR_DIALOG_INTERACTION
 87: 0x023A [0x1D] PRINT_EVENT_MESSAGE(message_id=7245*)
    → "Please use it to your advantage."
 88: 0x023D [0x23] WAIT_FOR_DIALOG_INTERACTION
 89: 0x023E [0x1D] PRINT_EVENT_MESSAGE(message_id=7246*)
    → "Special Limbus buffs known as Grace are also available to those who have deposited a sufficient amount of currency."
 90: 0x0241 [0x23] WAIT_FOR_DIALOG_INTERACTION
 91: 0x0242 [0x1D] PRINT_EVENT_MESSAGE(message_id=7247*)
    → "The more data, the stronger the Grace."
 92: 0x0245 [0x23] WAIT_FOR_DIALOG_INTERACTION
 93: 0x0246 [0x01] GOTO 0x00E0

SUBROUTINE_0281:
 94: 0x0281 [0x24] CREATE_DIALOG(message_id=7264*, default_option=ExtData[1]->WorkLocal[6], option_flags=0*)
    → "Inquire about which? [Agoge Armor./Hesychast's Attire./Piety Attire./Archmage's Attire./Vitiation Armor./Plunderer's Attire./Caballarius Armor./Fallen's Armor./Ankusa Armor./Bihu Attire./Arcadian Attire./Sakonji Armor./Mochizuki Armor./Telos Armor./Glyphic Attire./Luhlaza Attire./Lanuna Attire./Pitre Attire./Horos Attire./Pedagogy Attire./Bagua Attire./Futhark Attire./Nothing for now.]"
 95: 0x0288 [0x25] WAIT_DIALOG_SELECT()
 96: 0x0289 [0x02] IF !(Work_Zone[0] == 0*) GOTO 0x034D
 97: 0x0291 [0x03] ExtData[1]->WorkLocal[6] = Work_Zone[0]
 98: 0x0296 [0x03] ExtData[1]->WorkLocal[7] = 0*
 99: 0x029B [0x40] SET_BIT_WORK_RANGE(start_bit=16*, end_bit=31*, target=Work_Zone[1], source=0*)
100: 0x02A4 [0x1A] CALL_SUBROUTINE(address=0x1A63)
101: 0x02A7 [0x9D] IF (0x1592) 5* = ExtData[1]->WorkLocal[14] // extra=0x801F
102: 0x02B1 [0x9D] IF (0x1592) 6* = ExtData[1]->WorkLocal[15] // extra=0x801F
103: 0x02BB [0x9D] IF (0x1592) 7* = ExtData[1]->WorkLocal[16] // extra=0x801F
104: 0x02C5 [0x9D] IF (0x1592) 8* = ExtData[1]->WorkLocal[17] // extra=0x801F
105: 0x02CF [0x9D] IF (0x1592) 9* = ExtData[1]->WorkLocal[18] // extra=0x801F

SUBROUTINE_02D9:
106: 0x02D9 [0x1A] CALL_SUBROUTINE(address=0x1AD6)
107: 0x02DC [0xD4] MAP_QUERY_WINDOW: Test and open query window (flag=0x2C, work=[0x0780, 0x1500, 0x2580])
108: 0x02E5 [0x02] IF !(Work_Zone[0] == 5*) GOTO 0x02F3
109: 0x02ED [0x01] GOTO 0x0281

SUBROUTINE_039D:
110: 0x039D [0x1A] CALL_SUBROUTINE(address=0x1AD6)
111: 0x03A0 [0xD4] MAP_QUERY_WINDOW: Test and open query window (flag=0x2C, work=[0x0780, 0x1500, 0x2580])
112: 0x03A9 [0x02] IF !(Work_Zone[0] == 5*) GOTO 0x03B7
113: 0x03B1 [0x01] GOTO 0x0281

SUBROUTINE_0461:
114: 0x0461 [0x1A] CALL_SUBROUTINE(address=0x1AD6)
115: 0x0464 [0xD4] MAP_QUERY_WINDOW: Test and open query window (flag=0x2C, work=[0x0780, 0x1500, 0x2580])
116: 0x046D [0x02] IF !(Work_Zone[0] == 5*) GOTO 0x047B
117: 0x0475 [0x01] GOTO 0x0281

SUBROUTINE_0525:
118: 0x0525 [0x1A] CALL_SUBROUTINE(address=0x1AD6)
119: 0x0528 [0xD4] MAP_QUERY_WINDOW: Test and open query window (flag=0x2C, work=[0x0780, 0x1500, 0x2580])
120: 0x0531 [0x02] IF !(Work_Zone[0] == 5*) GOTO 0x053F
121: 0x0539 [0x01] GOTO 0x0281

SUBROUTINE_05E9:
122: 0x05E9 [0x1A] CALL_SUBROUTINE(address=0x1AD6)
123: 0x05EC [0xD4] MAP_QUERY_WINDOW: Test and open query window (flag=0x2C, work=[0x0780, 0x1500, 0x2580])
124: 0x05F5 [0x02] IF !(Work_Zone[0] == 5*) GOTO 0x0603
125: 0x05FD [0x01] GOTO 0x0281

SUBROUTINE_06AD:
126: 0x06AD [0x1A] CALL_SUBROUTINE(address=0x1AD6)
127: 0x06B0 [0xD4] MAP_QUERY_WINDOW: Test and open query window (flag=0x2C, work=[0x0780, 0x1500, 0x2580])
128: 0x06B9 [0x02] IF !(Work_Zone[0] == 5*) GOTO 0x06C7
129: 0x06C1 [0x01] GOTO 0x0281

SUBROUTINE_0771:
130: 0x0771 [0x1A] CALL_SUBROUTINE(address=0x1AD6)
131: 0x0774 [0xD4] MAP_QUERY_WINDOW: Test and open query window (flag=0x2C, work=[0x0780, 0x1500, 0x2580])
132: 0x077D [0x02] IF !(Work_Zone[0] == 5*) GOTO 0x078B
133: 0x0785 [0x01] GOTO 0x0281

SUBROUTINE_0835:
134: 0x0835 [0x1A] CALL_SUBROUTINE(address=0x1AD6)
135: 0x0838 [0xD4] MAP_QUERY_WINDOW: Test and open query window (flag=0x2C, work=[0x0780, 0x1500, 0x2580])
136: 0x0841 [0x02] IF !(Work_Zone[0] == 5*) GOTO 0x084F
137: 0x0849 [0x01] GOTO 0x0281

SUBROUTINE_08F9:
138: 0x08F9 [0x1A] CALL_SUBROUTINE(address=0x1AD6)
139: 0x08FC [0xD4] MAP_QUERY_WINDOW: Test and open query window (flag=0x2C, work=[0x0780, 0x1500, 0x2580])
140: 0x0905 [0x02] IF !(Work_Zone[0] == 5*) GOTO 0x0913
141: 0x090D [0x01] GOTO 0x0281

SUBROUTINE_09BD:
142: 0x09BD [0x1A] CALL_SUBROUTINE(address=0x1AD6)
143: 0x09C0 [0xD4] MAP_QUERY_WINDOW: Test and open query window (flag=0x2C, work=[0x0780, 0x1500, 0x2580])
144: 0x09C9 [0x02] IF !(Work_Zone[0] == 5*) GOTO 0x09D7
145: 0x09D1 [0x01] GOTO 0x0281

SUBROUTINE_0A81:
146: 0x0A81 [0x1A] CALL_SUBROUTINE(address=0x1AD6)
147: 0x0A84 [0xD4] MAP_QUERY_WINDOW: Test and open query window (flag=0x2C, work=[0x0780, 0x1500, 0x2580])
148: 0x0A8D [0x02] IF !(Work_Zone[0] == 5*) GOTO 0x0A9B
149: 0x0A95 [0x01] GOTO 0x0281

SUBROUTINE_0B45:
150: 0x0B45 [0x1A] CALL_SUBROUTINE(address=0x1AD6)
151: 0x0B48 [0xD4] MAP_QUERY_WINDOW: Test and open query window (flag=0x2C, work=[0x0780, 0x1500, 0x2580])
152: 0x0B51 [0x02] IF !(Work_Zone[0] == 5*) GOTO 0x0B5F
153: 0x0B59 [0x01] GOTO 0x0281

SUBROUTINE_0C09:
154: 0x0C09 [0x1A] CALL_SUBROUTINE(address=0x1AD6)
155: 0x0C0C [0xD4] MAP_QUERY_WINDOW: Test and open query window (flag=0x2C, work=[0x0780, 0x1500, 0x2580])
156: 0x0C15 [0x02] IF !(Work_Zone[0] == 5*) GOTO 0x0C23
157: 0x0C1D [0x01] GOTO 0x0281

SUBROUTINE_0CCD:
158: 0x0CCD [0x1A] CALL_SUBROUTINE(address=0x1AD6)
159: 0x0CD0 [0xD4] MAP_QUERY_WINDOW: Test and open query window (flag=0x2C, work=[0x0780, 0x1500, 0x2580])
160: 0x0CD9 [0x02] IF !(Work_Zone[0] == 5*) GOTO 0x0CE7
161: 0x0CE1 [0x01] GOTO 0x0281

SUBROUTINE_0D91:
162: 0x0D91 [0x1A] CALL_SUBROUTINE(address=0x1AD6)
163: 0x0D94 [0xD4] MAP_QUERY_WINDOW: Test and open query window (flag=0x2C, work=[0x0780, 0x1500, 0x2580])
164: 0x0D9D [0x02] IF !(Work_Zone[0] == 5*) GOTO 0x0DAB
165: 0x0DA5 [0x01] GOTO 0x0281

SUBROUTINE_0E55:
166: 0x0E55 [0x1A] CALL_SUBROUTINE(address=0x1AD6)
167: 0x0E58 [0xD4] MAP_QUERY_WINDOW: Test and open query window (flag=0x2C, work=[0x0780, 0x1500, 0x2580])
168: 0x0E61 [0x02] IF !(Work_Zone[0] == 5*) GOTO 0x0E6F
169: 0x0E69 [0x01] GOTO 0x0281

SUBROUTINE_0F19:
170: 0x0F19 [0x1A] CALL_SUBROUTINE(address=0x1AD6)
171: 0x0F1C [0xD4] MAP_QUERY_WINDOW: Test and open query window (flag=0x2C, work=[0x0780, 0x1500, 0x2580])
172: 0x0F25 [0x02] IF !(Work_Zone[0] == 5*) GOTO 0x0F33
173: 0x0F2D [0x01] GOTO 0x0281

SUBROUTINE_0FDD:
174: 0x0FDD [0x1A] CALL_SUBROUTINE(address=0x1AD6)
175: 0x0FE0 [0xD4] MAP_QUERY_WINDOW: Test and open query window (flag=0x2C, work=[0x0780, 0x1500, 0x2580])
176: 0x0FE9 [0x02] IF !(Work_Zone[0] == 5*) GOTO 0x0FF7
177: 0x0FF1 [0x01] GOTO 0x0281

SUBROUTINE_10A1:
178: 0x10A1 [0x1A] CALL_SUBROUTINE(address=0x1AD6)
179: 0x10A4 [0xD4] MAP_QUERY_WINDOW: Test and open query window (flag=0x2C, work=[0x0780, 0x1500, 0x2580])
180: 0x10AD [0x02] IF !(Work_Zone[0] == 5*) GOTO 0x10BB
181: 0x10B5 [0x01] GOTO 0x0281

SUBROUTINE_1165:
182: 0x1165 [0x1A] CALL_SUBROUTINE(address=0x1AD6)
183: 0x1168 [0xD4] MAP_QUERY_WINDOW: Test and open query window (flag=0x2C, work=[0x0780, 0x1500, 0x2580])
184: 0x1171 [0x02] IF !(Work_Zone[0] == 5*) GOTO 0x117F
185: 0x1179 [0x01] GOTO 0x0281

SUBROUTINE_1229:
186: 0x1229 [0x1A] CALL_SUBROUTINE(address=0x1AD6)
187: 0x122C [0xD4] MAP_QUERY_WINDOW: Test and open query window (flag=0x2C, work=[0x0780, 0x1500, 0x2580])
188: 0x1235 [0x02] IF !(Work_Zone[0] == 5*) GOTO 0x1243
189: 0x123D [0x01] GOTO 0x0281

SUBROUTINE_12ED:
190: 0x12ED [0x1A] CALL_SUBROUTINE(address=0x1AD6)
191: 0x12F0 [0xD4] MAP_QUERY_WINDOW: Test and open query window (flag=0x2C, work=[0x0780, 0x1500, 0x2580])
192: 0x12F9 [0x02] IF !(Work_Zone[0] == 5*) GOTO 0x1307
193: 0x1301 [0x01] GOTO 0x0281

SUBROUTINE_136F:
194: 0x136F [0x01] GOTO 0x00E0

SUBROUTINE_13B1:
195: 0x13B1 [0x02] IF !(Work_Zone[4] == 0*) GOTO 0x13BC
196: 0x13B9 [0x01] GOTO 0x13C0
197: 0x13BC [0x1D] PRINT_EVENT_MESSAGE(message_id=7269*)
    → "$3 effects: BPALL+$3."
198: 0x13BF [0x23] WAIT_FOR_DIALOG_INTERACTION

SUBROUTINE_13C0:
199: 0x13C0 [0x02] IF !(Work_Zone[6] == 0*) GOTO 0x13CB
200: 0x13C8 [0x01] GOTO 0x13CF
201: 0x13CB [0x1D] PRINT_EVENT_MESSAGE(message_id=7270*)
    → "$3 effects: Max. HP+$5 EXP Loss Reduction: $6% MEXP Loss Reduction: $6%"
202: 0x13CE [0x23] WAIT_FOR_DIALOG_INTERACTION

SUBROUTINE_13CF:
203: 0x13CF [0x01] GOTO 0x00E0

SUBROUTINE_13E2:
204: 0x13E2 [0x3C] SET_BIT_FLAG_CONDITIONAL(target_work_offset=ExtData[1]->WorkLocal[10], bit_index_work_offset=2*, condition_work_offset=1*)
205: 0x13E9 [0x24] CREATE_DIALOG(message_id=7303*, default_option=ExtData[1]->WorkLocal[8], option_flags=ExtData[1]->WorkLocal[10])
    → "Do what? [Phase 1./Phase 2./@/Back.]"
206: 0x13F0 [0x25] WAIT_DIALOG_SELECT()
207: 0x13F1 [0x02] IF !(Work_Zone[0] == 0*) GOTO 0x1421
208: 0x13F9 [0x03] ExtData[1]->WorkLocal[8] = Work_Zone[0]
209: 0x13FE [0x1D] PRINT_EVENT_MESSAGE(message_id=7282*)
    → "I have generated new notorious monsters based on your data."
210: 0x1401 [0x23] WAIT_FOR_DIALOG_INTERACTION
211: 0x1402 [0x1D] PRINT_EVENT_MESSAGE(message_id=7283*)
    → "Here is a quick rundown."
212: 0x1405 [0x23] WAIT_FOR_DIALOG_INTERACTION
213: 0x1406 [0x1D] PRINT_EVENT_MESSAGE(message_id=7284*)
    → "1: they do not take your set level into account."
214: 0x1409 [0x23] WAIT_FOR_DIALOG_INTERACTION
215: 0x140A [0x1D] PRINT_EVENT_MESSAGE(message_id=7285*)
    → "2: there are 22 types, but only 4 will appear on any given day (Earth time)."
216: 0x140D [0x23] WAIT_FOR_DIALOG_INTERACTION
217: 0x140E [0x03] Work_Zone[2] = 3*
218: 0x1413 [0x1D] PRINT_EVENT_MESSAGE(message_id=7286*)
    → "$0: vanquishing them affects the contents of the Temenos Coffer available four weeks later."
219: 0x1416 [0x23] WAIT_FOR_DIALOG_INTERACTION
220: 0x1417 [0x1D] PRINT_EVENT_MESSAGE(message_id=7287*)
    → "This should enable you to collect even more precise data."
221: 0x141A [0x23] WAIT_FOR_DIALOG_INTERACTION
222: 0x141B [0x01] GOTO 0x13E2

SUBROUTINE_147A:
223: 0x147A [0x01] GOTO 0x156E
224: 0x147D [0x02] IF !(Work_Zone[0] == 7*) GOTO 0x14A1
225: 0x1485 [0x03] ExtData[1]->WorkLocal[5] = Work_Zone[0]
226: 0x148A [0x40] SET_BIT_WORK_RANGE(start_bit=0*, end_bit=15*, target=Work_Zone[1], source=8*)
227: 0x1493 [0x43] SEND_EVENT_UPDATE: Send pending tag to server (packet 0x005B)
228: 0x1495 [0x43] SEND_EVENT_UPDATE: Check pending flag (skip if not pending)
229: 0x1497 [0x1D] PRINT_EVENT_MESSAGE(message_id=7291*)
    → "Notorious monster vanquishing information will affect Temenos Coffers in $0 [days/hours/hour or less] (Earth time)."
230: 0x149A [0x23] WAIT_FOR_DIALOG_INTERACTION
231: 0x149B [0x01] GOTO 0x00E0

SUBROUTINE_156E:
232: 0x156E [0x2E] SET_CLI_EVENT_CANCEL_FLAGS()
233: 0x156F [0x20] SET_CLI_EVENT_UC_FLAG: Unlock player control
234: 0x1571 [0x21] END_EVENT

SUBROUTINE_1A63:
235: 0x1A63 [0x40] SET_BIT_WORK_RANGE(start_bit=0*, end_bit=15*, target=Work_Zone[1], source=5*)
236: 0x1A6C [0x43] SEND_EVENT_UPDATE: Send pending tag to server (packet 0x005B)
237: 0x1A6E [0x43] SEND_EVENT_UPDATE: Check pending flag (skip if not pending)
238: 0x1A70 [0x03] ExtData[1]->WorkLocal[22] = Work_Zone[2]
239: 0x1A75 [0x03] ExtData[1]->WorkLocal[23] = Work_Zone[3]
240: 0x1A7A [0x03] ExtData[1]->WorkLocal[24] = Work_Zone[4]
241: 0x1A7F [0x03] ExtData[1]->WorkLocal[19] = Work_Zone[5]
242: 0x1A84 [0x03] ExtData[1]->WorkLocal[20] = Work_Zone[6]
243: 0x1A89 [0x03] ExtData[1]->WorkLocal[21] = Work_Zone[7]
244: 0x1A8E [0x40] SET_BIT_WORK_RANGE(start_bit=0*, end_bit=15*, target=Work_Zone[1], source=6*)
245: 0x1A97 [0x43] SEND_EVENT_UPDATE: Send pending tag to server (packet 0x005B)
246: 0x1A99 [0x43] SEND_EVENT_UPDATE: Check pending flag (skip if not pending)
247: 0x1A9B [0x03] ExtData[1]->WorkLocal[28] = Work_Zone[2]
248: 0x1AA0 [0x03] ExtData[1]->WorkLocal[29] = Work_Zone[3]
249: 0x1AA5 [0x03] ExtData[1]->WorkLocal[30] = Work_Zone[4]
250: 0x1AAA [0x03] ExtData[1]->WorkLocal[25] = Work_Zone[5]
251: 0x1AAF [0x03] ExtData[1]->WorkLocal[26] = Work_Zone[6]
252: 0x1AB4 [0x03] ExtData[1]->WorkLocal[27] = Work_Zone[7]
253: 0x1AB9 [0x40] SET_BIT_WORK_RANGE(start_bit=0*, end_bit=15*, target=Work_Zone[1], source=7*)
254: 0x1AC2 [0x43] SEND_EVENT_UPDATE: Send pending tag to server (packet 0x005B)
255: 0x1AC4 [0x43] SEND_EVENT_UPDATE: Check pending flag (skip if not pending)
256: 0x1AC6 [0x03] ExtData[1]->WorkLocal[31] = Work_Zone[2]
257: 0x1ACB [0x03] ExtData[1]->WorkLocal[32] = Work_Zone[3]
258: 0x1AD0 [0x03] ExtData[1]->WorkLocal[33] = Work_Zone[4]
259: 0x1AD5 [0x1B] RETURN

SUBROUTINE_1AD6:
260: 0x1AD6 [0xD4] MAP_QUERY_WINDOW: Prepare buffer configuration B (buffer=[15 80 0E 00 13 00 14 00...])
261: 0x1AF4 [0x19] SWAP(0x1A00, 0x1B00)
262: 0x1AF9 [0x00] END_REQSTACK()
```

#### Data or dead code:

```
# Dead code (unreachable instructions):
     0x0249 [0x01] GOTO 0x156E
     0x026D [0x01] GOTO 0x156E
# Dead code (unreachable instructions):
     0x02F0 [0x01] GOTO 0x034A
     0x034A [0x01] GOTO 0x136F
# Dead code (unreachable instructions):
     0x03B4 [0x01] GOTO 0x040E
     0x040E [0x01] GOTO 0x136F
# Dead code (unreachable instructions):
     0x0478 [0x01] GOTO 0x04D2
     0x04D2 [0x01] GOTO 0x136F
# Dead code (unreachable instructions):
     0x053C [0x01] GOTO 0x0596
     0x0596 [0x01] GOTO 0x136F
# Dead code (unreachable instructions):
     0x0600 [0x01] GOTO 0x065A
     0x065A [0x01] GOTO 0x136F
# Dead code (unreachable instructions):
     0x06C4 [0x01] GOTO 0x071E
     0x071E [0x01] GOTO 0x136F
# Dead code (unreachable instructions):
     0x0788 [0x01] GOTO 0x07E2
     0x07E2 [0x01] GOTO 0x136F
# Dead code (unreachable instructions):
     0x084C [0x01] GOTO 0x08A6
     0x08A6 [0x01] GOTO 0x136F
# Dead code (unreachable instructions):
     0x0910 [0x01] GOTO 0x096A
     0x096A [0x01] GOTO 0x136F
# Dead code (unreachable instructions):
     0x09D4 [0x01] GOTO 0x0A2E
     0x0A2E [0x01] GOTO 0x136F
# Dead code (unreachable instructions):
     0x0A98 [0x01] GOTO 0x0AF2
     0x0AF2 [0x01] GOTO 0x136F
# Dead code (unreachable instructions):
     0x0B5C [0x01] GOTO 0x0BB6
     0x0BB6 [0x01] GOTO 0x136F
# Dead code (unreachable instructions):
     0x0C20 [0x01] GOTO 0x0C7A
     0x0C7A [0x01] GOTO 0x136F
# Dead code (unreachable instructions):
     0x0CE4 [0x01] GOTO 0x0D3E
     0x0D3E [0x01] GOTO 0x136F
# Dead code (unreachable instructions):
     0x0DA8 [0x01] GOTO 0x0E02
     0x0E02 [0x01] GOTO 0x136F
# Dead code (unreachable instructions):
     0x0E6C [0x01] GOTO 0x0EC6
     0x0EC6 [0x01] GOTO 0x136F
# Dead code (unreachable instructions):
     0x0F30 [0x01] GOTO 0x0F8A
     0x0F8A [0x01] GOTO 0x136F
# Dead code (unreachable instructions):
     0x0FF4 [0x01] GOTO 0x104E
     0x104E [0x01] GOTO 0x136F
# Dead code (unreachable instructions):
     0x10B8 [0x01] GOTO 0x1112
     0x1112 [0x01] GOTO 0x136F
# Dead code (unreachable instructions):
     0x117C [0x01] GOTO 0x11D6
     0x11D6 [0x01] GOTO 0x136F
# Dead code (unreachable instructions):
     0x1240 [0x01] GOTO 0x129A
     0x129A [0x01] GOTO 0x136F
# Dead code (unreachable instructions):
     0x1304 [0x01] GOTO 0x135E
     0x135E [0x01] GOTO 0x136F
     0x136C [0x01] GOTO 0x136F
# Dead code (unreachable instructions):
     0x1372 [0x01] GOTO 0x156E
     0x1385 [0x01] GOTO 0x156E
# Dead code (unreachable instructions):
     0x13D2 [0x01] GOTO 0x156E
# Dead code (unreachable instructions):
     0x141E [0x01] GOTO 0x147A
     0x1456 [0x01] GOTO 0x147A
     0x1469 [0x01] GOTO 0x147A
     0x1477 [0x01] GOTO 0x147A
# Dead code (unreachable instructions):
     0x149E [0x01] GOTO 0x156E
     0x14C2 [0x01] GOTO 0x156E
     0x1509 [0x01] GOTO 0x156E
     0x1540 [0x01] GOTO 0x156E
     0x155B [0x01] GOTO 0x156E
# Dead code (unreachable instructions):
     0x1572 [0x02] IF !(0x0310 == 0x0410) GOTO 0x1005
     0x157A [0x06] 0x1510 = 0
     0x157D [0x80] LOAD_WAIT(entity=Unknown NPC (ID: 2148892693/0x80158015))
     0x1582 [0x53] WAIT_SCHEDULER_TASK: Wait for scheduler 0x15801580 with entities [Unknown NPC (ID: 1434473600/0x55805480), Unknown NPC (ID: 1283479168/0x4C805680)]
     0x158F [0x80] LOAD_WAIT(entity=Unknown NPC (ID: 2153218069/0x80578015))
     0x1594 [0x58] YIELD_EVENT_VM()
     0x1595 [0x80] LOAD_WAIT(entity=Unknown NPC (ID: 2153414745/0x805A8059))
     0x159A [0x5B] LOAD_EXT_SCHEDULER: Load scheduler 0x15801580 with entities [Unknown NPC (ID: 1585470848/0x5E805D80), Unknown NPC (ID: 1619025792/0x60805F80)], work=0x5C80
     0x15A9 [0x80] LOAD_WAIT(entity=Unknown NPC (ID: 2148892693/0x80158015))
     0x15AE [0x15] 0x1580 /= 0x6180
     0x15B3 [0x80] LOAD_WAIT(entity=Unknown NPC (ID: 2154004578/0x80638062))
     0x15B8 [0x64] CALCULATE_DISTANCE: 0x6580 = distance between point1(0x6680, 0x6780) and point2(0x6880, 0x6980)
     0x15C3 [0x80] LOAD_WAIT(entity=Unknown NPC (ID: 2148892778/0x8015806A))
     0x15C8 [0x15] 0x1580 /= 0x1580
     0x15CD [0x80] LOAD_WAIT(entity=Unknown NPC (ID: 2148892693/0x80158015))
     0x15D2 [0x6B] STOP_AND_IDLE: Unknown NPC (ID: 1870687872/0x6F806E80) stops current action and resets to idle (animation="lm")
     0x15DB [0x80] LOAD_WAIT(entity=Unknown NPC (ID: 2154922096/0x80718070))
     0x15E0 [0x72] LOAD_EVENT_WEATHER: Unknown mode 128, weather_id=24055*
     0x15E4 [0x74] EventEntity->Render.Flags1 ^= 0x00
     0x15E6 [0x15] 0x1580 /= 0x1580
     0x15EB [0x80] LOAD_WAIT(entity=Unknown NPC (ID: 2148892693/0x80158015))
     0x15F0 [0x15] 0x7580 /= 0x7680
     0x15F5 [0x80] LOAD_WAIT(entity=Unknown NPC (ID: 2155380855/0x80788077))
     0x15FA [0x79] Unknown NPC (ID: 2155577466/0x807B807A) looks at Unknown NPC (ID: 2155708540/0x807D807C) (Unknown mode 128)
     0x1604 [0x7E] CHOCOBO_MOUNT: Unknown mode 128
     0x160A [0x15] 0x1580 /= 0x1580
     0x160F [0x80] LOAD_WAIT(entity=Unknown NPC (ID: 2155839509/0x807F8015))
     0x1614 [0x80] LOAD_WAIT(entity=Unknown NPC (ID: 2189459840/0x82808180))
     0x1619 [0x80] LOAD_WAIT(entity=Unknown NPC (ID: 2156167299/0x80848083))
     0x161E [0x85] OPEN_MOOGLE_MENU()
     0x161F [0x80] LOAD_WAIT(entity=Unknown NPC (ID: 2156363910/0x80878086))
     0x1624 [0x88] WORLD_PASS_HANDLER_B: Send world pass packet 0x1B (Para=1, sets RecFriendPassFlag)
     0x1625 [0x80] LOAD_WAIT(entity=Unknown NPC (ID: 2148892693/0x80158015))
     0x162A [0x15] 0x1580 /= 0x1580
     0x162F [0x80] LOAD_WAIT(entity=Unknown NPC (ID: 2156494869/0x80898015))
     0x1634 [0x8A] CLOSE_MAP()
     0x1635 [0x80] LOAD_WAIT(entity=Unknown NPC (ID: 2156691595/0x808C808B))
     0x163A [0x8D] OPEN_MAP_WITH_PROPERTIES(map_id=References[3712], properties=References[3968])
     0x163F [0x80] LOAD_WAIT(entity=Unknown NPC (ID: 2157019280/0x80918090))
     0x1644 [0x92] Unknown NPC (ID: 2148892693/0x80158015)->Render.Flags3 ^= 0x80
     0x164A [0x15] 0x1580 /= 0x1580
     0x164F [0x80] LOAD_WAIT(entity=Unknown NPC (ID: 2157150229/0x80938015))
     0x1654 [0x94] Unknown NPC (ID: 2157346965/0x80968095)->Render.Flags3 ^= 0x80
     0x165A [0x97] SAVE_SET_WIND_VALUES(wind_base=0x9880, wind_width=0x9980)
     0x165F [0x80] LOAD_WAIT(entity=Unknown NPC (ID: 2157674650/0x809B809A))
     0x1664 [0x9C] STORE_CLIENT_LANGUAGE_ID(result=0x1580)
     0x1667 [0x80] LOAD_WAIT(entity=Unknown NPC (ID: 2148892693/0x80158015))
     0x166C [0x15] 0x1580 /= 0x1580
     0x1671 [0x80] LOAD_WAIT(entity=Unknown NPC (ID: 2157871261/0x809E809D))
     0x1676 [0x9F] LOAD_SCHEDULED_TASK_ALT: Load scheduler 0xA680A580 with entities [Unknown NPC (ID: 2726338944/0xA280A180), Unknown NPC (ID: 2759893888/0xA480A380)], work=[0xA080, 0x1580]
     0x1687 [0x80] LOAD_WAIT(entity=Unknown NPC (ID: 2148892693/0x80158015))
     0x168C [0x15] 0x1580 /= 0x1580
     0x1691 [0x80] LOAD_WAIT(entity=Unknown NPC (ID: 2158526631/0x80A880A7))
     0x1696 [0xA9] DISABLE_GAME_TIME_SET_SPECIFIC(time_offset=0xAA80)
     0x1699 [0x80] LOAD_WAIT(entity=Unknown NPC (ID: 2158788779/0x80AC80AB))
     0x169E [0xAD] DUAL_ENTITY_SCHEDULER_HANDLER: Execute sub-case 0 with entities [Unknown NPC (ID: 2159050927/0x80B080AF), Unknown NPC (ID: 2148892693/0x80158015)], work=24016*
     0x16AA [0x15] 0x1580 /= 0x1580
     0x16AF [0x80] LOAD_WAIT(entity=Unknown NPC (ID: 2159116309/0x80B18015))
     0x16B4 [0xB2] DELIVERY_BOX_HANDLER(mode=0x80)
     0x16B6 [0xB3] RANKINGS_BOARD_HANDLER(case_type=0x80)
     0x16B8 [0xB4] UI_WINDOW_STRING_HANDLER(case=0x80 - Unknown case 0x80)
     0x16BA [0xB5] SET_EVENT_ENTITY_NAME: Change EventEntity name to "w]"*
     0x16BE [0xB7] ENTITY_DATA_HANDLER: Unknown case 0x80 for Unknown NPC (ID: 2159640760/0x80B980B8)
     0x16C6 [0x15] 0x1580 /= 0x1580
     0x16CB [0x80] LOAD_WAIT(entity=Unknown NPC (ID: 2148892693/0x80158015))
     0x16D0 [0x15] 0xBB80 /= 0xBC80
     0x16D5 [0x80] LOAD_WAIT(entity=Unknown NPC (ID: 2159968445/0x80BE80BD))
     0x16DA [0xBF] CHOCOBO_RACING_PARAMETER_GETTER(param_type=0x80)
     0x16DC [0xC0] EventEntity->Render.Flags3 &= ~0x1000 // Clear bit 12
     0x16DF [0x80] LOAD_WAIT(entity=Unknown NPC (ID: 2160296130/0x80C380C2))
     0x16E4 [0xC4] SCHEDULE_MAGIC_CASTING_ALT (arg=16): Unknown NPC (ID: 2148892693/0x80158015) casts magic 0* on Unknown NPC (ID: 2148892693/0x80158015)
     0x16F0 [0x15] 0xC580 /= 0xC680
     0x16F5 [0x80] LOAD_WAIT(entity=Unknown NPC (ID: 2160623815/0x80C880C7))
     0x16FA [0xC9] ENABLE_GAME_TIMER()
     0x16FB [0x80] LOAD_WAIT(entity=Unknown NPC (ID: 2160820426/0x80CB80CA))
     0x1700 [0xCC] ITEM_INFO_WINDOW_HANDLER(case=0x80 - Unknown case 0x80)
     0x1704 [0xCE] WAIT_LOAD_SCHEDULER_ALT4: Wait for scheduler 0xCF801580 with entities [Unknown NPC (ID: 360715648/0x15801580), Unknown NPC (ID: 360715648/0x15801580)], work=0x1580
     0x1713 [0x80] LOAD_WAIT(entity=Unknown NPC (ID: 2161213648/0x80D180D0))
     0x1718 [0xD2] END_LOAD_SCHEDULER_MAIN_ALT7: End scheduler 0x0000D880 with entities [Unknown NPC (ID: 3581990016/0xD580D480), Unknown NPC (ID: 3615544960/0xD780D680)], work=ExtData[1]->WorkLocal[21]
     0x1727 [0x80] LOAD_WAIT(entity=Unknown NPC (ID: 2148892693/0x80158015))
     0x172C [0x15] 0x1580 /= 0x1580
     0x1731 [0x80] LOAD_WAIT(entity=Unknown NPC (ID: 2161803481/0x80DA80D9))
     0x1736 [0xDB] UNKNOWN_0xDB
     0x1737 [0x80] LOAD_WAIT(entity=Unknown NPC (ID: 2162000092/0x80DD80DC))
     0x173C [0xDE] UNKNOWN_0xDE
     0x173D [0x80] LOAD_WAIT(entity=Unknown NPC (ID: 2162196703/0x80E080DF))
     0x1742 [0xE1] UNKNOWN_0xE1
     0x1743 [0x80] LOAD_WAIT(entity=Unknown NPC (ID: 2148892898/0x801580E2))
     0x1748 [0x15] 0x1580 /= 0x1580
     0x174D [0x80] LOAD_WAIT(entity=Unknown NPC (ID: 2148892693/0x80158015))
     0x1752 [0xE3] UNKNOWN_0xE3
     0x1753 [0x80] LOAD_WAIT(entity=Unknown NPC (ID: 2162524388/0x80E580E4))
     0x1758 [0xE6] UNKNOWN_0xE6
     0x1759 [0x80] LOAD_WAIT(entity=Unknown NPC (ID: 2162720999/0x80E880E7))
     0x175E [0xE9] UNKNOWN_0xE9
     0x175F [0x80] LOAD_WAIT(entity=Unknown NPC (ID: 2162917610/0x80EB80EA))
     0x1764 [0xEC] UNKNOWN_0xEC
     0x1765 [0x80] LOAD_WAIT(entity=Unknown NPC (ID: 2148892693/0x80158015))
     0x176A [0x15] 0x1580 /= 0x1580
     0x176F [0x80] LOAD_WAIT(entity=Unknown NPC (ID: 2163048469/0x80ED8015))
     0x1774 [0xEE] UNKNOWN_0xEE
     0x1775 [0x80] LOAD_WAIT(entity=Unknown NPC (ID: 2163245295/0x80F080EF))
     0x177A [0xF1] UNKNOWN_0xF1
     0x177B [0x80] LOAD_WAIT(entity=Unknown NPC (ID: 2163441906/0x80F380F2))
     0x1780 [0xF4] UNKNOWN_0xF4
     0x1781 [0x80] LOAD_WAIT(entity=Unknown NPC (ID: 2163638517/0x80F680F5))
     0x1786 [0x15] 0x1580 /= 0x1580
     0x178B [0x80] LOAD_WAIT(entity=Unknown NPC (ID: 2148892693/0x80158015))
     0x1790 [0x15] 0xF780 /= 0xF880
     0x1795 [0x80] LOAD_WAIT(entity=Unknown NPC (ID: 2163900665/0x80FA80F9))
     0x179A [0xFB] UNKNOWN_0xFB
     0x179B [0x80] LOAD_WAIT(entity=Unknown NPC (ID: 2164097276/0x80FD80FC))
     0x17A0 [0xFE] UNKNOWN_0xFE
     0x17A1 [0x80] LOAD_WAIT(entity=Unknown NPC (ID: 2164293887/0x810080FF))
     0x17A6 [0x15] 0x1580 /= 0x1580
     0x17AB [0x80] LOAD_WAIT(entity=Unknown NPC (ID: 2148892693/0x80158015))
     0x17B0 [0x15] 0x0180 /= 0x0281
     0x17B5 [0x81] SET_ENTITY_BLINKING(blink_flag=0x03, entity=Unknown NPC (ID: 92341377/0x05810481))
     0x17BB [0x81] SET_ENTITY_BLINKING(blink_flag=0x06, entity=Unknown NPC (ID: 142673793/0x08810781))
     0x17C1 [0x81] SET_ENTITY_BLINKING(blink_flag=0x09, entity=Unknown NPC (ID: 360778369/0x15810A81))
     0x17C7 [0x80] LOAD_WAIT(entity=Unknown NPC (ID: 2148892693/0x80158015))
     0x17CC [0x15] 0x1580 /= 0x1580
     0x17D1 [0x80] LOAD_WAIT(entity=Unknown NPC (ID: 2165080331/0x810C810B))
     0x17D6 [0x0D] 0x0E81 &= 0x0F81
     0x17DB [0x81] SET_ENTITY_BLINKING(blink_flag=0x10, entity=Unknown NPC (ID: 310448513/0x12811181))
     0x17E1 [0x81] SET_ENTITY_BLINKING(blink_flag=0x13, entity=Unknown NPC (ID: 360780929/0x15811481))
     0x17E7 [0x80] LOAD_WAIT(entity=Unknown NPC (ID: 2148892693/0x80158015))
     0x17EC [0x15] 0x1580 /= 0x1580
     0x17F1 [0x80] LOAD_WAIT(entity=Unknown NPC (ID: 2165735701/0x81168115))
     0x17F6 [0x17] 0x1881 = cos(0x1981) * 0x1A81
     0x17FD [0x81] SET_ENTITY_BLINKING(blink_flag=0x1B, entity=Unknown NPC (ID: 495000705/0x1D811C81))
     0x1803 [0x81] SET_ENTITY_BLINKING(blink_flag=0x1E, entity=Unknown NPC (ID: 360715649/0x15801581))
     0x1809 [0x80] LOAD_WAIT(entity=Unknown NPC (ID: 2148892693/0x80158015))
     0x180E [0x15] 0x1580 /= 0x1F80
     0x1813 [0x81] SET_ENTITY_BLINKING(blink_flag=0x20, entity=Unknown NPC (ID: 578888065/0x22812181))
     0x1819 [0x81] SET_ENTITY_BLINKING(blink_flag=0x23, entity=Unknown NPC (ID: 629220481/0x25812481))
     0x181F [0x81] SET_ENTITY_BLINKING(blink_flag=0x26, entity=Unknown NPC (ID: 679552897/0x28812781))
     0x1825 [0x81] SET_ENTITY_BLINKING(blink_flag=0x15, entity=Unknown NPC (ID: 360715648/0x15801580))
     0x182B [0x80] LOAD_WAIT(entity=Unknown NPC (ID: 2148892693/0x80158015))
     0x1830 [0x15] 0x2980 /= 0x2A81
     0x1835 [0x81] SET_ENTITY_BLINKING(blink_flag=0x2B, entity=Unknown NPC (ID: 763440257/0x2D812C81))
     0x183B [0x81] SET_ENTITY_BLINKING(blink_flag=0x2E, entity=Unknown NPC (ID: 813772673/0x30812F81))
     0x1841 [0x81] SET_ENTITY_BLINKING(blink_flag=0x31, entity=Unknown NPC (ID: 360788609/0x15813281))
     0x1847 [0x80] LOAD_WAIT(entity=Unknown NPC (ID: 2148892693/0x80158015))
     0x184C [0x15] 0x1580 /= 0x1580
     0x1851 [0x80] LOAD_WAIT(entity=Unknown NPC (ID: 2167701811/0x81348133))
     0x1856 [0x35] LOAD_ZONE_NO_CLOSE(zone_id=0x3681)
     0x1859 [0x81] SET_ENTITY_BLINKING(blink_flag=0x37, entity=Unknown NPC (ID: 964769921/0x39813881))
     0x185F [0x81] SET_ENTITY_BLINKING(blink_flag=0x3A, entity=Unknown NPC (ID: 1015102337/0x3C813B81))
     0x1865 [0x81] SET_ENTITY_BLINKING(blink_flag=0x3D, entity=Unknown NPC (ID: 1065434753/0x3F813E81))
     0x186B [0x81] SET_ENTITY_BLINKING(blink_flag=0x40, entity=Unknown NPC (ID: 1115767169/0x42814181))
     0x1871 [0x81] SET_ENTITY_BLINKING(blink_flag=0x43, entity=Unknown NPC (ID: 1166099585/0x45814481))
     0x1877 [0x81] SET_ENTITY_BLINKING(blink_flag=0x46, entity=Unknown NPC (ID: 1216432001/0x48814781))
     0x187D [0x81] SET_ENTITY_BLINKING(blink_flag=0x15, entity=Unknown NPC (ID: 1233130880/0x49801580))
     0x1883 [0x81] SET_ENTITY_BLINKING(blink_flag=0x4A, entity=Unknown NPC (ID: 1283541889/0x4C814B81))
     0x1889 [0x81] SET_ENTITY_BLINKING(blink_flag=0x4D, entity=Unknown NPC (ID: 1333874305/0x4F814E81))
     0x188F [0x81] SET_ENTITY_BLINKING(blink_flag=0x50, entity=Unknown NPC (ID: 1384206721/0x52815181))
     0x1895 [0x81] SET_ENTITY_BLINKING(blink_flag=0x53, entity=Unknown NPC (ID: 1434539137/0x55815481))
     0x189B [0x81] SET_ENTITY_BLINKING(blink_flag=0x56, entity=Unknown NPC (ID: 1484871553/0x58815781))
     0x18A1 [0x81] SET_ENTITY_BLINKING(blink_flag=0x59, entity=Unknown NPC (ID: 1535203969/0x5B815A81))
     0x18A7 [0x81] SET_ENTITY_BLINKING(blink_flag=0x5C, entity=Unknown NPC (ID: 1585536385/0x5E815D81))
     0x18AD [0x81] SET_ENTITY_BLINKING(blink_flag=0x15, entity=Unknown NPC (ID: 1602229632/0x5F801580))
     0x18B3 [0x81] SET_ENTITY_BLINKING(blink_flag=0x60, entity=Unknown NPC (ID: 1652646273/0x62816181))
     0x18B9 [0x81] SET_ENTITY_BLINKING(blink_flag=0x63, entity=Unknown NPC (ID: 1702978689/0x65816481))
     0x18BF [0x81] SET_ENTITY_BLINKING(blink_flag=0x66, entity=Unknown NPC (ID: 1753311105/0x68816781))
     0x18C5 [0x81] SET_ENTITY_BLINKING(blink_flag=0x69, entity=Unknown NPC (ID: 1803643521/0x6B816A81))
     0x18CB [0x81] SET_ENTITY_BLINKING(blink_flag=0x6C, entity=Unknown NPC (ID: 1853975937/0x6E816D81))
     0x18D1 [0x81] SET_ENTITY_BLINKING(blink_flag=0x6F, entity=Unknown NPC (ID: 1904308353/0x71817081))
     0x18D7 [0x81] SET_ENTITY_BLINKING(blink_flag=0x72, entity=Unknown NPC (ID: 1954640769/0x74817381))
     0x18DD [0x81] SET_ENTITY_BLINKING(blink_flag=0x15, entity=Unknown NPC (ID: 1971328384/0x75801580))
     0x18E3 [0x81] SET_ENTITY_BLINKING(blink_flag=0x76, entity=Unknown NPC (ID: 2021750657/0x78817781))
     0x18E9 [0x81] SET_ENTITY_BLINKING(blink_flag=0x79, entity=Unknown NPC (ID: 2072083073/0x7B817A81))
     0x18EF [0x81] SET_ENTITY_BLINKING(blink_flag=0x7C, entity=Unknown NPC (ID: 2122415489/0x7E817D81))
     0x18F5 [0x81] SET_ENTITY_BLINKING(blink_flag=0x7F, entity=Unknown NPC (ID: 2172747905/0x81818081))
     0x18FB [0x81] SET_ENTITY_BLINKING(blink_flag=0x82, entity=Unknown NPC (ID: 2223080321/0x84818381))
     0x1901 [0x81] SET_ENTITY_BLINKING(blink_flag=0x85, entity=Unknown NPC (ID: 2273412737/0x87818681))
     0x1907 [0x81] SET_ENTITY_BLINKING(blink_flag=0x88, entity=Unknown NPC (ID: 2323745153/0x8A818981))
     0x190D [0x81] SET_ENTITY_BLINKING(blink_flag=0x15, entity=Unknown NPC (ID: 2340427136/0x8B801580))
     0x1913 [0x81] SET_ENTITY_BLINKING(blink_flag=0x8C, entity=Unknown NPC (ID: 2390855041/0x8E818D81))
     0x1919 [0x81] SET_ENTITY_BLINKING(blink_flag=0x8F, entity=Unknown NPC (ID: 2441187457/0x91819081))
     0x191F [0x81] SET_ENTITY_BLINKING(blink_flag=0x92, entity=Unknown NPC (ID: 2491519873/0x94819381))
     0x1925 [0x81] SET_ENTITY_BLINKING(blink_flag=0x95, entity=Unknown NPC (ID: 2541852289/0x97819681))
     0x192B [0x81] SET_ENTITY_BLINKING(blink_flag=0x98, entity=Unknown NPC (ID: 2592184705/0x9A819981))
     0x1931 [0x81] SET_ENTITY_BLINKING(blink_flag=0x9B, entity=Unknown NPC (ID: 2642517121/0x9D819C81))
     0x1937 [0x81] SET_ENTITY_BLINKING(blink_flag=0x9E, entity=Unknown NPC (ID: 2692849537/0xA0819F81))
     0x193D [0x81] SET_ENTITY_BLINKING(blink_flag=0x15, entity=Unknown NPC (ID: 2709525888/0xA1801580))
