# 16929666 - ticket_w

## Common Data

| Field            | Value            |
|------------------|------------------|
| Zone             | Temenos (ID: 37) |
| Block Size       | 140 bytes        |
| Total Events     | 2                |
| References Count | 7                |

## List of Events

| Event ID              | Entrypoint   |   Size |   Instructions |
|-----------------------|--------------|--------|----------------|
| [65535](#event-65535) | 0x0000       |      1 |              1 |
| [123](#event-123)     | 0x0001       |     84 |             18 |

## DAT References (imed_data)

|   Index | Hex Value   |   Dec Value |
|---------|-------------|-------------|
|       0 | 0x1C95      |        7317 |
|       1 | 0x0000      |           0 |
|       2 | 0x0001      |           1 |
|       3 | 0x0002      |           2 |
|       4 | 0x0003      |           3 |
|       5 | 0x0004      |           4 |
|       6 | 0x40000000  |  1073741824 |

## String References

- **7317**: $3$3$3o$3X$3\`$3P$3b$3g$3$3j$3$5[(@@) [$3X$3e[$3^$3X$m$P14F/@@/$P15[$P116$3f[$3^$9$z%;/$3\`$3P$3b$3g$P14j$|/b_i]

## Events

### Event 65535

#### Metadata

| Field        | Value   |
|--------------|---------|
| Entrypoint   | 0x0000  |
| Data Size    | 1 bytes |
| Instructions | 1       |

```
      00 01 02 03 04 05 06 07  08 09 0A 0B 0C 0D 0E 0F
      -- -- -- -- -- -- -- --  -- -- -- -- -- -- -- --
0000: 00                                                .               
```

#### Opcodes

```
  0: 0x0000 [0x00] END_REQSTACK()
```

### Event 123

#### Metadata

| Field        | Value    |
|--------------|----------|
| Entrypoint   | 0x0001   |
| Data Size    | 84 bytes |
| Instructions | 18       |

```
      00 01 02 03 04 05 06 07  08 09 0A 0B 0C 0D 0E 0F
      -- -- -- -- -- -- -- --  -- -- -- -- -- -- -- --
0000:    24 00 80 01 80 01 80  25 02 00 10 01 80 00 19   $......%.......
0010: 00 03 00 00 02 80 01 4E  00 02 00 10 02 80 00 29  .......N.......)
0020: 00 03 00 00 03 80 01 4E  00 02 00 10 03 80 00 39  .......N.......9
0030: 00 03 00 00 04 80 01 4E  00 02 00 10 04 80 00 49  .......N.......I
0040: 00 03 00 00 05 80 01 4E  00 03 00 00 06 80 03 01  .......N........
0050: 10 00 00 21 00                                    ...!.           
```

#### Opcodes

```
  0: 0x0001 [0x24] CREATE_DIALOG(message_id=7317*, default_option=0*, option_flags=0*)
    → "$3$3$3o$3X$3`$3P$3b$3g$3$3j$3$5[(@@) [$3X$3e[$3^$3X$m$P14F/@@/$P15[$P116$3f[$3^$9$z%;/$3`$3P$3b$3g$P14j$|/b_i]"
  1: 0x0008 [0x25] WAIT_DIALOG_SELECT()
  2: 0x0009 [0x02] IF !(Work_Zone[0] == 0*) GOTO 0x0019
  3: 0x0011 [0x03] ExtData[1]->WorkLocal[0] = 1*
  4: 0x0016 [0x01] GOTO 0x004E
  5: 0x0019 [0x02] IF !(Work_Zone[0] == 1*) GOTO 0x0029
  6: 0x0021 [0x03] ExtData[1]->WorkLocal[0] = 2*
  7: 0x0026 [0x01] GOTO 0x004E
  8: 0x0029 [0x02] IF !(Work_Zone[0] == 2*) GOTO 0x0039
  9: 0x0031 [0x03] ExtData[1]->WorkLocal[0] = 3*
 10: 0x0036 [0x01] GOTO 0x004E
 11: 0x0039 [0x02] IF !(Work_Zone[0] == 3*) GOTO 0x0049
 12: 0x0041 [0x03] ExtData[1]->WorkLocal[0] = 4*
 13: 0x0046 [0x01] GOTO 0x004E
 14: 0x0049 [0x03] ExtData[1]->WorkLocal[0] = 1073741824*

SUBROUTINE_004E:
 15: 0x004E [0x03] Work_Zone[1] = ExtData[1]->WorkLocal[0]
 16: 0x0053 [0x21] END_EVENT
 17: 0x0054 [0x00] END_REQSTACK()
```
