# 16929570 - Temenos Operator

## Common Data

| Field            | Value            |
|------------------|------------------|
| Zone             | Temenos (ID: 37) |
| Block Size       | 8752 bytes       |
| Total Events     | 3                |
| References Count | 515              |

## List of Events

| Event ID              | Entrypoint   |   Size |   Instructions |
|-----------------------|--------------|--------|----------------|
| [65535](#event-65535) | 0x0000       |      1 |              1 |
| [1031](#event-1031)   | 0x0001       |    180 |             66 |
| [1032](#event-1032)   | 0x00B5       |   6482 |           1073 |

## DAT References (imed_data)

|   Index | Hex Value   |   Dec Value |
|---------|-------------|-------------|
|       0 | 0x0001      |           1 |
|       1 | 0x015D      |         349 |
|       2 | 0x1C44      |        7236 |
|       3 | 0x1C53      |        7251 |
|       4 | 0x1C54      |        7252 |
|       5 | 0x1C45      |        7237 |
|       6 | 0x1C46      |        7238 |
|       7 | 0x1C47      |        7239 |
|       8 | 0x1C48      |        7240 |
|       9 | 0x1C49      |        7241 |
|      10 | 0x1C4A      |        7242 |
|      11 | 0x1C4B      |        7243 |
|      12 | 0x1C4C      |        7244 |
|      13 | 0x1C4D      |        7245 |
|      14 | 0x1C4E      |        7246 |
|      15 | 0x1C4F      |        7247 |
|      16 | 0x1C50      |        7248 |
|      17 | 0x1C51      |        7249 |
|      18 | 0x0087      |         135 |
|      19 | 0x1C55      |        7253 |
|      20 | 0x1C57      |        7255 |
|      21 | 0x0000      |           0 |
|      22 | 0x0003      |           3 |
|      23 | 0x0077      |         119 |
|      24 | 0x1C56      |        7254 |
|      25 | 0x1C52      |        7250 |
|      26 | 0x270F      |        9999 |
|      27 | 0x1C5D      |        7261 |
|      28 | 0x000F      |          15 |
|      29 | 0x0076      |         118 |
|      30 | 0x1C59      |        7257 |
|      31 | 0x000A      |          10 |
|      32 | 0x0010      |          16 |
|      33 | 0x001F      |          31 |
|      34 | 0x1C5A      |        7258 |
|      35 | 0x0002      |           2 |
|      36 | 0x1C5E      |        7262 |
|      37 | 0x1C5F      |        7263 |
|      38 | 0x1C60      |        7264 |
|      39 | 0x0005      |           5 |
|      40 | 0x0006      |           6 |
|      41 | 0x0007      |           7 |
|      42 | 0x0008      |           8 |
|      43 | 0x0009      |           9 |
|      44 | 0x1C61      |        7265 |
|      45 | 0x1C62      |        7266 |
|      46 | 0x0004      |           4 |
|      47 | 0x000B      |          11 |
|      48 | 0x000C      |          12 |
|      49 | 0x000D      |          13 |
|      50 | 0x000E      |          14 |
|      51 | 0x0011      |          17 |
|      52 | 0x0012      |          18 |
|      53 | 0x0013      |          19 |
|      54 | 0x0014      |          20 |
|      55 | 0x0015      |          21 |
|      56 | 0x0016      |          22 |
|      57 | 0x1C64      |        7268 |
|      58 | 0x1C65      |        7269 |
|      59 | 0x1C66      |        7270 |
|      60 | 0x1C72      |        7282 |
|      61 | 0x1C73      |        7283 |
|      62 | 0x1C74      |        7284 |
|      63 | 0x1C75      |        7285 |
|      64 | 0x1C76      |        7286 |
|      65 | 0x1C77      |        7287 |
|      66 | 0x1C7B      |        7291 |
|      67 | 0x1C78      |        7288 |
|      68 | 0x1C79      |        7289 |
|      69 | 0x1C7A      |        7290 |
|      70 | 0x4E20      |       20000 |
|      71 | 0x7530      |       30000 |
|      72 | 0x3A98      |       15000 |
|      73 | 0x61A8      |       25000 |
|      74 | 0x2710      |       10000 |
|      75 | 0x5B66      |       23398 |
|      76 | 0x5BA9      |       23465 |
|      77 | 0x5BEC      |       23532 |
|      78 | 0x5C2F      |       23599 |
|      79 | 0x5C72      |       23666 |
|      80 | 0x5D6E      |       23918 |
|      81 | 0x5D9B      |       23963 |
|      82 | 0x5DC8      |       24008 |
|      83 | 0x5DF5      |       24053 |
|      84 | 0x5E22      |       24098 |
|      85 | 0x5B67      |       23399 |
|      86 | 0x5BAA      |       23466 |
|      87 | 0x5BED      |       23533 |
|      88 | 0x5C30      |       23600 |
|      89 | 0x5C73      |       23667 |
|      90 | 0x5D6F      |       23919 |
|      91 | 0x5D9C      |       23964 |
|      92 | 0x5DC9      |       24009 |
|      93 | 0x5DF6      |       24054 |
|      94 | 0x5E23      |       24099 |
|      95 | 0x5B68      |       23400 |
|      96 | 0x5BAB      |       23467 |
|      97 | 0x5BEE      |       23534 |
|      98 | 0x5C31      |       23601 |
|      99 | 0x5C74      |       23668 |
|     100 | 0x5D70      |       23920 |
|     101 | 0x5D9D      |       23965 |
|     102 | 0x5DCA      |       24010 |
|     103 | 0x5DF7      |       24055 |
|     104 | 0x5E24      |       24100 |
|     105 | 0x5B69      |       23401 |
|     106 | 0x5BAC      |       23468 |
|     107 | 0x5BEF      |       23535 |
|     108 | 0x5C32      |       23602 |
|     109 | 0x5C75      |       23669 |
|     110 | 0x5D71      |       23921 |
|     111 | 0x5D9E      |       23966 |
|     112 | 0x5DCB      |       24011 |
|     113 | 0x5DF8      |       24056 |
|     114 | 0x5E25      |       24101 |
|     115 | 0x5B6A      |       23402 |
|     116 | 0x5BAD      |       23469 |
|     117 | 0x5BF0      |       23536 |
|     118 | 0x5C33      |       23603 |
|     119 | 0x5C76      |       23670 |
|     120 | 0x5D72      |       23922 |
|     121 | 0x5D9F      |       23967 |
|     122 | 0x5DCC      |       24012 |
|     123 | 0x5DF9      |       24057 |
|     124 | 0x5E26      |       24102 |
|     125 | 0x5B6B      |       23403 |
|     126 | 0x5BAE      |       23470 |
|     127 | 0x5BF1      |       23537 |
|     128 | 0x5C34      |       23604 |
|     129 | 0x5C77      |       23671 |
|     130 | 0x5D73      |       23923 |
|     131 | 0x5DA0      |       23968 |
|     132 | 0x5DCD      |       24013 |
|     133 | 0x5DFA      |       24058 |
|     134 | 0x5E27      |       24103 |
|     135 | 0x5B6C      |       23404 |
|     136 | 0x5BAF      |       23471 |
|     137 | 0x5BF2      |       23538 |
|     138 | 0x5C35      |       23605 |
|     139 | 0x5C78      |       23672 |
|     140 | 0x5D74      |       23924 |
|     141 | 0x5DA1      |       23969 |
|     142 | 0x5DCE      |       24014 |
|     143 | 0x5DFB      |       24059 |
|     144 | 0x5E28      |       24104 |
|     145 | 0x5B6D      |       23405 |
|     146 | 0x5BB0      |       23472 |
|     147 | 0x5BF3      |       23539 |
|     148 | 0x5C36      |       23606 |
|     149 | 0x5C79      |       23673 |
|     150 | 0x5D75      |       23925 |
|     151 | 0x5DA2      |       23970 |
|     152 | 0x5DCF      |       24015 |
|     153 | 0x5DFC      |       24060 |
|     154 | 0x5E29      |       24105 |
|     155 | 0x5B6E      |       23406 |
|     156 | 0x5BB1      |       23473 |
|     157 | 0x5BF4      |       23540 |
|     158 | 0x5C37      |       23607 |
|     159 | 0x5C7A      |       23674 |
|     160 | 0x5D76      |       23926 |
|     161 | 0x5DA3      |       23971 |
|     162 | 0x5DD0      |       24016 |
|     163 | 0x5DFD      |       24061 |
|     164 | 0x5E2A      |       24106 |
|     165 | 0x5B6F      |       23407 |
|     166 | 0x5BB2      |       23474 |
|     167 | 0x5BF5      |       23541 |
|     168 | 0x5C38      |       23608 |
|     169 | 0x5C7B      |       23675 |
|     170 | 0x5D77      |       23927 |
|     171 | 0x5DA4      |       23972 |
|     172 | 0x5DD1      |       24017 |
|     173 | 0x5DFE      |       24062 |
|     174 | 0x5E2B      |       24107 |
|     175 | 0x5B70      |       23408 |
|     176 | 0x5BB3      |       23475 |
|     177 | 0x5BF6      |       23542 |
|     178 | 0x5C39      |       23609 |
|     179 | 0x5C7C      |       23676 |
|     180 | 0x5D78      |       23928 |
|     181 | 0x5DA5      |       23973 |
|     182 | 0x5DD2      |       24018 |
|     183 | 0x5DFF      |       24063 |
|     184 | 0x5E2C      |       24108 |
|     185 | 0x5B71      |       23409 |
|     186 | 0x5BB4      |       23476 |
|     187 | 0x5BF7      |       23543 |
|     188 | 0x5C3A      |       23610 |
|     189 | 0x5C7D      |       23677 |
|     190 | 0x5D79      |       23929 |
|     191 | 0x5DA6      |       23974 |
|     192 | 0x5DD3      |       24019 |
|     193 | 0x5E00      |       24064 |
|     194 | 0x5E2D      |       24109 |
|     195 | 0x5B72      |       23410 |
|     196 | 0x5BB5      |       23477 |
|     197 | 0x5BF8      |       23544 |
|     198 | 0x5C3B      |       23611 |
|     199 | 0x5C7E      |       23678 |
|     200 | 0x5D7A      |       23930 |
|     201 | 0x5DA7      |       23975 |
|     202 | 0x5DD4      |       24020 |
|     203 | 0x5E01      |       24065 |
|     204 | 0x5E2E      |       24110 |
|     205 | 0x5B73      |       23411 |
|     206 | 0x5BB6      |       23478 |
|     207 | 0x5BF9      |       23545 |
|     208 | 0x5C3C      |       23612 |
|     209 | 0x5C7F      |       23679 |
|     210 | 0x5D7B      |       23931 |
|     211 | 0x5DA8      |       23976 |
|     212 | 0x5DD5      |       24021 |
|     213 | 0x5E02      |       24066 |
|     214 | 0x5E2F      |       24111 |
|     215 | 0x5B74      |       23412 |
|     216 | 0x5BB7      |       23479 |
|     217 | 0x5BFA      |       23546 |
|     218 | 0x5C3D      |       23613 |
|     219 | 0x5C80      |       23680 |
|     220 | 0x5D7C      |       23932 |
|     221 | 0x5DA9      |       23977 |
|     222 | 0x5DD6      |       24022 |
|     223 | 0x5E03      |       24067 |
|     224 | 0x5E30      |       24112 |
|     225 | 0x5B75      |       23413 |
|     226 | 0x5BB8      |       23480 |
|     227 | 0x5BFB      |       23547 |
|     228 | 0x5C3E      |       23614 |
|     229 | 0x5C81      |       23681 |
|     230 | 0x5D7D      |       23933 |
|     231 | 0x5DAA      |       23978 |
|     232 | 0x5DD7      |       24023 |
|     233 | 0x5E04      |       24068 |
|     234 | 0x5E31      |       24113 |
|     235 | 0x5B76      |       23414 |
|     236 | 0x5BB9      |       23481 |
|     237 | 0x5BFC      |       23548 |
|     238 | 0x5C3F      |       23615 |
|     239 | 0x5C82      |       23682 |
|     240 | 0x5D7E      |       23934 |
|     241 | 0x5DAB      |       23979 |
|     242 | 0x5DD8      |       24024 |
|     243 | 0x5E05      |       24069 |
|     244 | 0x5E32      |       24114 |
|     245 | 0x5B77      |       23415 |
|     246 | 0x5BBA      |       23482 |
|     247 | 0x5BFD      |       23549 |
|     248 | 0x5C40      |       23616 |
|     249 | 0x5C83      |       23683 |
|     250 | 0x5D7F      |       23935 |
|     251 | 0x5DAC      |       23980 |
|     252 | 0x5DD9      |       24025 |
|     253 | 0x5E06      |       24070 |
|     254 | 0x5E33      |       24115 |
|     255 | 0x5B78      |       23416 |
|     256 | 0x5BBB      |       23483 |
|     257 | 0x5BFE      |       23550 |
|     258 | 0x5C41      |       23617 |
|     259 | 0x5C84      |       23684 |
|     260 | 0x5D80      |       23936 |
|     261 | 0x5DAD      |       23981 |
|     262 | 0x5DDA      |       24026 |
|     263 | 0x5E07      |       24071 |
|     264 | 0x5E34      |       24116 |
|     265 | 0x5B79      |       23417 |
|     266 | 0x5BBC      |       23484 |
|     267 | 0x5BFF      |       23551 |
|     268 | 0x5C42      |       23618 |
|     269 | 0x5C85      |       23685 |
|     270 | 0x5D81      |       23937 |
|     271 | 0x5DAE      |       23982 |
|     272 | 0x5DDB      |       24027 |
|     273 | 0x5E08      |       24072 |
|     274 | 0x5E35      |       24117 |
|     275 | 0x5B7A      |       23418 |
|     276 | 0x5BBD      |       23485 |
|     277 | 0x5C00      |       23552 |
|     278 | 0x5C43      |       23619 |
|     279 | 0x5C86      |       23686 |
|     280 | 0x5D82      |       23938 |
|     281 | 0x5DAF      |       23983 |
|     282 | 0x5DDC      |       24028 |
|     283 | 0x5E09      |       24073 |
|     284 | 0x5E36      |       24118 |
|     285 | 0x5B7B      |       23419 |
|     286 | 0x5BBE      |       23486 |
|     287 | 0x5C01      |       23553 |
|     288 | 0x5C44      |       23620 |
|     289 | 0x5C87      |       23687 |
|     290 | 0x5D83      |       23939 |
|     291 | 0x5DB0      |       23984 |
|     292 | 0x5DDD      |       24029 |
|     293 | 0x5E0A      |       24074 |
|     294 | 0x5E37      |       24119 |
|     295 | 0x15B8      |        5560 |
|     296 | 0x15B9      |        5561 |
|     297 | 0x15BA      |        5562 |
|     298 | 0x15BB      |        5563 |
|     299 | 0x15BC      |        5564 |
|     300 | 0x15BD      |        5565 |
|     301 | 0x15BE      |        5566 |
|     302 | 0x15BF      |        5567 |
|     303 | 0x15C0      |        5568 |
|     304 | 0x15C1      |        5569 |
|     305 | 0x15C2      |        5570 |
|     306 | 0x15C3      |        5571 |
|     307 | 0x15C4      |        5572 |
|     308 | 0x15C5      |        5573 |
|     309 | 0x15C6      |        5574 |
|     310 | 0x15C7      |        5575 |
|     311 | 0x15C8      |        5576 |
|     312 | 0x15C9      |        5577 |
|     313 | 0x15CA      |        5578 |
|     314 | 0x15CB      |        5579 |
|     315 | 0x15CC      |        5580 |
|     316 | 0x15CD      |        5581 |
|     317 | 0x15CE      |        5582 |
|     318 | 0x15CF      |        5583 |
|     319 | 0x15D0      |        5584 |
|     320 | 0x15D1      |        5585 |
|     321 | 0x15D2      |        5586 |
|     322 | 0x15D3      |        5587 |
|     323 | 0x15D4      |        5588 |
|     324 | 0x15D5      |        5589 |
|     325 | 0x15D6      |        5590 |
|     326 | 0x15D7      |        5591 |
|     327 | 0x15D8      |        5592 |
|     328 | 0x15D9      |        5593 |
|     329 | 0x15DA      |        5594 |
|     330 | 0x15DB      |        5595 |
|     331 | 0x15DC      |        5596 |
|     332 | 0x15DD      |        5597 |
|     333 | 0x15DE      |        5598 |
|     334 | 0x15DF      |        5599 |
|     335 | 0x15E0      |        5600 |
|     336 | 0x15E1      |        5601 |
|     337 | 0x15E2      |        5602 |
|     338 | 0x15E3      |        5603 |
|     339 | 0x15E4      |        5604 |
|     340 | 0x15E5      |        5605 |
|     341 | 0x15E6      |        5606 |
|     342 | 0x15E7      |        5607 |
|     343 | 0x15E8      |        5608 |
|     344 | 0x15E9      |        5609 |
|     345 | 0x15EA      |        5610 |
|     346 | 0x15EB      |        5611 |
|     347 | 0x15EC      |        5612 |
|     348 | 0x15ED      |        5613 |
|     349 | 0x15EE      |        5614 |
|     350 | 0x15EF      |        5615 |
|     351 | 0x15F0      |        5616 |
|     352 | 0x15F1      |        5617 |
|     353 | 0x15F2      |        5618 |
|     354 | 0x15F3      |        5619 |
|     355 | 0x15F4      |        5620 |
|     356 | 0x15F5      |        5621 |
|     357 | 0x15F6      |        5622 |
|     358 | 0x15F7      |        5623 |
|     359 | 0x15F8      |        5624 |
|     360 | 0x15F9      |        5625 |
|     361 | 0x15FA      |        5626 |
|     362 | 0x15FB      |        5627 |
|     363 | 0x15FC      |        5628 |
|     364 | 0x15FD      |        5629 |
|     365 | 0x15FE      |        5630 |
|     366 | 0x15FF      |        5631 |
|     367 | 0x1600      |        5632 |
|     368 | 0x1601      |        5633 |
|     369 | 0x1602      |        5634 |
|     370 | 0x1603      |        5635 |
|     371 | 0x1604      |        5636 |
|     372 | 0x1605      |        5637 |
|     373 | 0x1606      |        5638 |
|     374 | 0x1607      |        5639 |
|     375 | 0x1608      |        5640 |
|     376 | 0x1609      |        5641 |
|     377 | 0x160A      |        5642 |
|     378 | 0x160B      |        5643 |
|     379 | 0x160C      |        5644 |
|     380 | 0x160D      |        5645 |
|     381 | 0x160E      |        5646 |
|     382 | 0x160F      |        5647 |
|     383 | 0x1610      |        5648 |
|     384 | 0x1611      |        5649 |
|     385 | 0x1612      |        5650 |
|     386 | 0x1613      |        5651 |
|     387 | 0x1614      |        5652 |
|     388 | 0x1615      |        5653 |
|     389 | 0x1616      |        5654 |
|     390 | 0x1617      |        5655 |
|     391 | 0x1618      |        5656 |
|     392 | 0x1619      |        5657 |
|     393 | 0x161A      |        5658 |
|     394 | 0x161B      |        5659 |
|     395 | 0x161C      |        5660 |
|     396 | 0x161D      |        5661 |
|     397 | 0x161E      |        5662 |
|     398 | 0x161F      |        5663 |
|     399 | 0x1620      |        5664 |
|     400 | 0x1621      |        5665 |
|     401 | 0x1622      |        5666 |
|     402 | 0x1623      |        5667 |
|     403 | 0x1624      |        5668 |
|     404 | 0x1625      |        5669 |
|     405 | 0x154A      |        5450 |
|     406 | 0x154B      |        5451 |
|     407 | 0x154C      |        5452 |
|     408 | 0x154D      |        5453 |
|     409 | 0x154E      |        5454 |
|     410 | 0x154F      |        5455 |
|     411 | 0x1550      |        5456 |
|     412 | 0x1551      |        5457 |
|     413 | 0x1552      |        5458 |
|     414 | 0x1553      |        5459 |
|     415 | 0x1554      |        5460 |
|     416 | 0x1555      |        5461 |
|     417 | 0x1556      |        5462 |
|     418 | 0x1557      |        5463 |
|     419 | 0x1558      |        5464 |
|     420 | 0x1559      |        5465 |
|     421 | 0x155A      |        5466 |
|     422 | 0x155B      |        5467 |
|     423 | 0x155C      |        5468 |
|     424 | 0x155D      |        5469 |
|     425 | 0x155E      |        5470 |
|     426 | 0x155F      |        5471 |
|     427 | 0x1560      |        5472 |
|     428 | 0x1561      |        5473 |
|     429 | 0x1562      |        5474 |
|     430 | 0x1563      |        5475 |
|     431 | 0x1564      |        5476 |
|     432 | 0x1565      |        5477 |
|     433 | 0x1566      |        5478 |
|     434 | 0x1567      |        5479 |
|     435 | 0x1568      |        5480 |
|     436 | 0x1569      |        5481 |
|     437 | 0x156A      |        5482 |
|     438 | 0x156B      |        5483 |
|     439 | 0x156C      |        5484 |
|     440 | 0x156D      |        5485 |
|     441 | 0x156E      |        5486 |
|     442 | 0x156F      |        5487 |
|     443 | 0x1570      |        5488 |
|     444 | 0x1571      |        5489 |
|     445 | 0x1572      |        5490 |
|     446 | 0x1573      |        5491 |
|     447 | 0x1574      |        5492 |
|     448 | 0x1575      |        5493 |
|     449 | 0x1576      |        5494 |
|     450 | 0x1577      |        5495 |
|     451 | 0x1578      |        5496 |
|     452 | 0x1579      |        5497 |
|     453 | 0x157A      |        5498 |
|     454 | 0x157B      |        5499 |
|     455 | 0x157C      |        5500 |
|     456 | 0x157D      |        5501 |
|     457 | 0x157E      |        5502 |
|     458 | 0x157F      |        5503 |
|     459 | 0x1580      |        5504 |
|     460 | 0x1581      |        5505 |
|     461 | 0x1582      |        5506 |
|     462 | 0x1583      |        5507 |
|     463 | 0x1584      |        5508 |
|     464 | 0x1585      |        5509 |
|     465 | 0x1586      |        5510 |
|     466 | 0x1587      |        5511 |
|     467 | 0x1588      |        5512 |
|     468 | 0x1589      |        5513 |
|     469 | 0x158A      |        5514 |
|     470 | 0x158B      |        5515 |
|     471 | 0x158C      |        5516 |
|     472 | 0x158D      |        5517 |
|     473 | 0x158E      |        5518 |
|     474 | 0x158F      |        5519 |
|     475 | 0x1590      |        5520 |
|     476 | 0x1591      |        5521 |
|     477 | 0x1592      |        5522 |
|     478 | 0x1593      |        5523 |
|     479 | 0x1594      |        5524 |
|     480 | 0x1595      |        5525 |
|     481 | 0x1596      |        5526 |
|     482 | 0x1597      |        5527 |
|     483 | 0x1598      |        5528 |
|     484 | 0x1599      |        5529 |
|     485 | 0x159A      |        5530 |
|     486 | 0x159B      |        5531 |
|     487 | 0x159C      |        5532 |
|     488 | 0x159D      |        5533 |
|     489 | 0x159E      |        5534 |
|     490 | 0x159F      |        5535 |
|     491 | 0x15A0      |        5536 |
|     492 | 0x15A1      |        5537 |
|     493 | 0x15A2      |        5538 |
|     494 | 0x15A3      |        5539 |
|     495 | 0x15A4      |        5540 |
|     496 | 0x15A5      |        5541 |
|     497 | 0x15A6      |        5542 |
|     498 | 0x15A7      |        5543 |
|     499 | 0x15A8      |        5544 |
|     500 | 0x15A9      |        5545 |
|     501 | 0x15AA      |        5546 |
|     502 | 0x15AB      |        5547 |
|     503 | 0x15AC      |        5548 |
|     504 | 0x15AD      |        5549 |
|     505 | 0x15AE      |        5550 |
|     506 | 0x15AF      |        5551 |
|     507 | 0x15B0      |        5552 |
|     508 | 0x15B1      |        5553 |
|     509 | 0x15B2      |        5554 |
|     510 | 0x15B3      |        5555 |
|     511 | 0x15B4      |        5556 |
|     512 | 0x15B5      |        5557 |
|     513 | 0x15B6      |        5558 |
|     514 | 0x15B7      |        5559 |

## String References

- **7236**: Welcome to Temenos. Please present your $3.
- **7237**: ...Credentials not present. Authorizing new issuance.
- **7238**: Registration in progress...
- **7239**: Welcome to Temenos. This place is designed for the generation of new life-forms.
- **7240**: North, West, East, and Central Towers contain monsters for recording data in your $3.
- **7241**: Successfully recording data will permit you to open Temenos Coffers.
- **7242**: You will also be authorized to collect a special currency called Temenos Units.
- **7243**: Systems are only capable of recording data for each registrant up to five times per week (Earth time).
- **7244**: Temenos Units can be used in the Temenos Furnace.
- **7245**: Please use it to your advantage.
- **7246**: Special Limbus buffs known as Grace are also available to those who have deposited a sufficient amount of currency.
- **7247**: The more data, the stronger the Grace.
- **7248**: Your registration is now complete. Currently recording initial data in your $3.
- **7249**: Please set your initial monster level. The higher the level, the more precise the data we can gather.
- **7250**: Your $3 is now fully prepared. Glory to Zilart.
- **7251**: ...
- **7252**: ......
- **7253**: Enter a level value between 119 and $1 to be recorded in your $3.
- **7254**: "$1" has been recorded in your $3.
- **7255**: Enter 0 to cancel.
- **7257**: Increasing the level will reset your progress.
- **7258**: What will you do? [Change level and reset./Never mind.]
- **7261**: Inquire about what? [Level settings./Temenos./Temenos Units./The Temenos Furnace./Equipment list./Grace./Notorious monsters./Tresure coffer timings./%.@/@/@/@/Nothing for now.]
- **7262**: Remaining Temenos Units: $0. Total Temenos Units: $1/$2.
- **7263**: The Temenos Furnace uses data to enhance your equipment.
- **7264**: Inquire about which? [Agoge Armor./Hesychast's Attire./Piety Attire./Archmage's Attire./Vitiation Armor./Plunderer's Attire./Caballarius Armor./Fallen's Armor./Ankusa Armor./Bihu Attire./Arcadian Attire./Sakonji Armor./Mochizuki Armor./Telos Armor./Glyphic Attire./Luhlaza Attire./Lanuna Attire./Pitre Attire./Horos Attire./Pedagogy Attire./Bagua Attire./Futhark Attire./Nothing for now.]
- **7266**: Reforging your item into $0 requires $1 and $2 Temenos Units.
- **7268**: 3 effects: Accuracy+$1@Ranged Accuracy+$1@Magic Accuracy+$1.
- **7269**: $3 effects: BPALL+$3.
- **7270**: $3 effects: Max. HP+$5 EXP Loss Reduction: $6% MEXP Loss Reduction: $6%
- **7282**: I have generated new notorious monsters based on your data.
- **7283**: Here is a quick rundown.
- **7284**: One: they do not take your set level into account.
- **7285**: Two: there are 22 types, but only 4 will appear on any given day (Earth time).
- **7286**: Three: vanquishing them affects the contents of the Temenos Coffer available four weeks later.
- **7287**: This should enable you to collect even more precise data.
- **7288**: The $0 changes form when one uses Temenos Units.
- **7289**: It can produce special equipment.
- **7290**: The produced equipment can be further infused.
- **7291**: Notorious monster vanquishing information will affect Temenos Coffers in $0 [days/hours/hour or less] (Earth time).

## Events

### Event 65535

#### Metadata

| Field        | Value   |
|--------------|---------|
| Entrypoint   | 0x0000  |
| Data Size    | 1 bytes |
| Instructions | 1       |

```
      00 01 02 03 04 05 06 07  08 09 0A 0B 0C 0D 0E 0F
      -- -- -- -- -- -- -- --  -- -- -- -- -- -- -- --
0000: 00                                                .               
```

#### Opcodes

```
  0: 0x0000 [0x00] END_REQSTACK()
```

### Event 1031

#### Metadata

| Field        | Value     |
|--------------|-----------|
| Entrypoint   | 0x0001    |
| Data Size    | 180 bytes |
| Instructions | 66        |

```
      00 01 02 03 04 05 06 07  08 09 0A 0B 0C 0D 0E 0F
      -- -- -- -- -- -- -- --  -- -- -- -- -- -- -- --
0000:    1E F0 FF FF 7F 1C 00  80 03 02 10 01 80 1D 02   ...............
0010: 80 23 1D 03 80 23 1D 04  80 23 1D 05 80 23 1D 06  .#...#...#...#..
0020: 80 23 1D 07 80 23 1D 08  80 23 1D 09 80 23 1D 0A  .#...#...#...#..
0030: 80 23 1D 0B 80 23 1D 0C  80 23 1D 0D 80 23 1D 0E  .#...#...#...#..
0040: 80 23 1D 0F 80 23 1D 10  80 23 1D 11 80 23 03 03  .#...#...#...#..
0050: 10 12 80 1D 13 80 23 48  14 80 03 01 10 15 80 71  ......#H.......q
0060: 12 00 80 16 80 71 13 02  00 02 02 00 15 80 00 74  .....q.........t
0070: 00 01 B0 00 02 02 00 17  80 04 AD 00 02 02 00 12  ................
0080: 80 05 A7 00 42 03 02 10  01 80 03 03 10 02 00 03  ....B...........
0090: 01 10 02 00 1D 18 80 23  1D 03 80 23 1D 04 80 23  .......#...#...#
00A0: 1D 19 80 23 01 AA 00 01  4E 00 01 B0 00 01 4E 00  ...#....N.....N.
00B0: 2E 20 00 21 00                                    . .!.           
```

#### Opcodes

```
  0: 0x0001 [0x1E] EventEntity looks at LocalPlayer and starts talking
  1: 0x0006 [0x1C] WAIT(1* ticks)
  2: 0x0009 [0x03] Work_Zone[2] = 349*
  3: 0x000E [0x1D] PRINT_EVENT_MESSAGE(message_id=7236*)
    → "Welcome to Temenos. Please present your $3."
  4: 0x0011 [0x23] WAIT_FOR_DIALOG_INTERACTION
  5: 0x0012 [0x1D] PRINT_EVENT_MESSAGE(message_id=7251*)
    → "..."
  6: 0x0015 [0x23] WAIT_FOR_DIALOG_INTERACTION
  7: 0x0016 [0x1D] PRINT_EVENT_MESSAGE(message_id=7252*)
    → "......"
  8: 0x0019 [0x23] WAIT_FOR_DIALOG_INTERACTION
  9: 0x001A [0x1D] PRINT_EVENT_MESSAGE(message_id=7237*)
    → "...Credentials not present. Authorizing new issuance."
 10: 0x001D [0x23] WAIT_FOR_DIALOG_INTERACTION
 11: 0x001E [0x1D] PRINT_EVENT_MESSAGE(message_id=7238*)
    → "Registration in progress..."
 12: 0x0021 [0x23] WAIT_FOR_DIALOG_INTERACTION
 13: 0x0022 [0x1D] PRINT_EVENT_MESSAGE(message_id=7239*)
    → "Welcome to Temenos. This place is designed for the generation of new life-forms."
 14: 0x0025 [0x23] WAIT_FOR_DIALOG_INTERACTION
 15: 0x0026 [0x1D] PRINT_EVENT_MESSAGE(message_id=7240*)
    → "North, West, East, and Central Towers contain monsters for recording data in your $3."
 16: 0x0029 [0x23] WAIT_FOR_DIALOG_INTERACTION
 17: 0x002A [0x1D] PRINT_EVENT_MESSAGE(message_id=7241*)
    → "Successfully recording data will permit you to open Temenos Coffers."
 18: 0x002D [0x23] WAIT_FOR_DIALOG_INTERACTION
 19: 0x002E [0x1D] PRINT_EVENT_MESSAGE(message_id=7242*)
    → "You will also be authorized to collect a special currency called Temenos Units."
 20: 0x0031 [0x23] WAIT_FOR_DIALOG_INTERACTION
 21: 0x0032 [0x1D] PRINT_EVENT_MESSAGE(message_id=7243*)
    → "Systems are only capable of recording data for each registrant up to five times per week (Earth time)."
 22: 0x0035 [0x23] WAIT_FOR_DIALOG_INTERACTION
 23: 0x0036 [0x1D] PRINT_EVENT_MESSAGE(message_id=7244*)
    → "Temenos Units can be used in the Temenos Furnace."
 24: 0x0039 [0x23] WAIT_FOR_DIALOG_INTERACTION
 25: 0x003A [0x1D] PRINT_EVENT_MESSAGE(message_id=7245*)
    → "Please use it to your advantage."
 26: 0x003D [0x23] WAIT_FOR_DIALOG_INTERACTION
 27: 0x003E [0x1D] PRINT_EVENT_MESSAGE(message_id=7246*)
    → "Special Limbus buffs known as Grace are also available to those who have deposited a sufficient amount of currency."
 28: 0x0041 [0x23] WAIT_FOR_DIALOG_INTERACTION
 29: 0x0042 [0x1D] PRINT_EVENT_MESSAGE(message_id=7247*)
    → "The more data, the stronger the Grace."
 30: 0x0045 [0x23] WAIT_FOR_DIALOG_INTERACTION
 31: 0x0046 [0x1D] PRINT_EVENT_MESSAGE(message_id=7248*)
    → "Your registration is now complete. Currently recording initial data in your $3."
 32: 0x0049 [0x23] WAIT_FOR_DIALOG_INTERACTION
 33: 0x004A [0x1D] PRINT_EVENT_MESSAGE(message_id=7249*)
    → "Please set your initial monster level. The higher the level, the more precise the data we can gather."
 34: 0x004D [0x23] WAIT_FOR_DIALOG_INTERACTION
 35: 0x004E [0x03] Work_Zone[3] = 135*
 36: 0x0053 [0x1D] PRINT_EVENT_MESSAGE(message_id=7253*)
    → "Enter a level value between 119 and $1 to be recorded in your $3."
 37: 0x0056 [0x23] WAIT_FOR_DIALOG_INTERACTION
 38: 0x0057 [0x48] [System] [7255*]:
    → "Enter 0 to cancel."
 39: 0x005A [0x03] Work_Zone[1] = 0*
 40: 0x005F [0x71] USER_INPUT_HANDLER: Open numerical input with params (work=[1*, 3*])
 41: 0x0065 [0x71] USER_INPUT_HANDLER: Process numerical input B (work=ExtData[1]->WorkLocal[2])
 42: 0x0069 [0x02] IF !(ExtData[1]->WorkLocal[2] == 0*) GOTO 0x0074
 43: 0x0071 [0x01] GOTO 0x00B0
 44: 0x0074 [0x02] IF !(ExtData[1]->WorkLocal[2] < 119*) GOTO 0x00AD
 45: 0x007C [0x02] IF !(ExtData[1]->WorkLocal[2] > 135*) GOTO 0x00A7
 46: 0x0084 [0x42] SET_CLI_EVENT_CANCEL_DATA()
 47: 0x0085 [0x03] Work_Zone[2] = 349*
 48: 0x008A [0x03] Work_Zone[3] = ExtData[1]->WorkLocal[2]
 49: 0x008F [0x03] Work_Zone[1] = ExtData[1]->WorkLocal[2]
 50: 0x0094 [0x1D] PRINT_EVENT_MESSAGE(message_id=7254*)
    → ""$1" has been recorded in your $3."
 51: 0x0097 [0x23] WAIT_FOR_DIALOG_INTERACTION
 52: 0x0098 [0x1D] PRINT_EVENT_MESSAGE(message_id=7251*)
    → "..."
 53: 0x009B [0x23] WAIT_FOR_DIALOG_INTERACTION
 54: 0x009C [0x1D] PRINT_EVENT_MESSAGE(message_id=7252*)
    → "......"
 55: 0x009F [0x23] WAIT_FOR_DIALOG_INTERACTION
 56: 0x00A0 [0x1D] PRINT_EVENT_MESSAGE(message_id=7250*)
    → "Your $3 is now fully prepared. Glory to Zilart."
 57: 0x00A3 [0x23] WAIT_FOR_DIALOG_INTERACTION
 58: 0x00A4 [0x01] GOTO 0x00AA
 59: 0x00A7 [0x01] GOTO 0x004E

SUBROUTINE_00AA:
 60: 0x00AA [0x01] GOTO 0x00B0
 61: 0x00AD [0x01] GOTO 0x004E

SUBROUTINE_00B0:
 62: 0x00B0 [0x2E] SET_CLI_EVENT_CANCEL_FLAGS()
 63: 0x00B1 [0x20] SET_CLI_EVENT_UC_FLAG: Unlock player control
 64: 0x00B3 [0x21] END_EVENT
 65: 0x00B4 [0x00] END_REQSTACK()
```

### Event 1032

#### Metadata

| Field        | Value      |
|--------------|------------|
| Entrypoint   | 0x00B5     |
| Data Size    | 6482 bytes |
| Instructions | 209        |

```
      00 01 02 03 04 05 06 07  08 09 0A 0B 0C 0D 0E 0F
      -- -- -- -- -- -- -- --  -- -- -- -- -- -- -- --
00B0:                03 07 00  02 10 1E F0 FF FF 7F 1C       ...........
00C0: 00 80 03 03 00 15 80 03  04 00 15 80 03 05 00 15  ................
00D0: 80 03 06 00 15 80 03 02  10 1A 80 24 1B 80 03 00  ...........$....
00E0: 07 00 25 02 00 10 15 80  00 01 02 03 03 00 00 10  ..%.............
00F0: 40 15 80 1C 80 01 10 00  80 43 00 43 01 03 00 00  @........C.C....
0100: 02 10 03 01 00 03 10 07  00 00 1D 80 03 02 10 01  ................
0110: 80 03 03 10 12 80 1D 13  80 23 48 14 80 02 01 00  .........#H.....
0120: 15 80 00 28 01 01 2B 01  48 1E 80 03 01 10 15 80  ...(..+.H.......
0130: 71 12 00 80 16 80 71 13  02 00 02 02 00 15 80 00  q.....q.........
0140: 45 01 01 FE 01 02 02 00  17 80 04 FB 01 02 02 00  E...............
0150: 12 80 05 F5 01 42 02 01  00 15 80 00 81 01 03 02  .....B..........
0160: 10 01 80 03 03 10 02 00  40 15 80 1F 80 01 10 00  ........@.......
0170: 80 40 20 80 21 80 01 10  02 00 1D 18 80 23 01 F2  .@ .!........#..
0180: 01 02 02 00 00 00 02 D2  01 48 1E 80 24 22 80 00  .........H..$"..
0190: 80 15 80 25 02 00 10 15  80 00 BF 01 03 02 10 01  ...%............
01A0: 80 03 03 10 02 00 40 15  80 1F 80 01 10 00 80 40  ......@........@
01B0: 20 80 21 80 01 10 02 00  1D 18 80 23 01 CF 01 02   .!........#....
01C0: 00 10 00 80 00 CF 01 03  01 10 15 80 01 CF 01 01  ................
01D0: F2 01 03 02 10 01 80 03  03 10 02 00 40 15 80 1F  ............@...
01E0: 80 01 10 00 80 40 20 80  21 80 01 10 02 00 1D 18  .....@ .!.......
01F0: 80 23 01 F8 01 01 0C 01  01 FE 01 01 0C 01 01 49  .#.............I
0200: 14 02 00 10 00 80 00 3D  02 03 03 00 00 10 03 02  .......=........
0210: 10 01 80 1D 07 80 23 1D  08 80 23 1D 09 80 23 1D  ......#...#...#.
0220: 0A 80 23 1D 0B 80 23 1D  0C 80 23 1D 0D 80 23 1D  ..#...#...#...#.
0230: 0E 80 23 1D 0F 80 23 01  D6 00 01 49 14 02 00 10  ..#...#....I....
0240: 23 80 00 61 02 03 03 00  00 10 40 15 80 1C 80 01  #..a......@.....
0250: 10 16 80 43 00 43 01 1D  24 80 23 01 D6 00 01 49  ...C.C..$.#....I
0260: 14 02 00 10 16 80 00 66  13 03 03 00 00 10 1D 25  .......f.......%
0270: 80 23 24 26 80 04 00 15  80 25 02 00 10 15 80 00  .#$&.....%......
0280: 3E 03 03 04 00 00 10 03  05 00 15 80 40 20 80 21  >...........@ .!
0290: 80 01 10 15 80 1A 3E 19  9D 0A 6D 14 0C 00 27 80  ......>...m...'.
02A0: 1F 80 9D 0A 6D 14 0D 00  28 80 1F 80 9D 0A 6D 14  ....m...(.....m.
02B0: 0E 00 29 80 1F 80 9D 0A  6D 14 0F 00 2A 80 1F 80  ..).....m...*...
02C0: 9D 0A 6D 14 10 00 2B 80  1F 80 1A B1 19 D4 02 2C  ..m...+........,
02D0: 80 05 00 15 80 25 02 00  10 27 80 00 E4 02 01 72  .....%...'.....r
02E0: 02 01 3B 03 03 05 00 00  10 9D 0A 4D 14 0B 00 00  ..;........M....
02F0: 10 27 80 03 02 10 0B 00  9D 0A 0E 19 03 10 00 10  .'..............
0300: 27 80 9D 0A 1E 19 04 10  00 10 27 80 9D 0A 2E 19  '.........'.....
0310: 05 10 00 10 27 80 CC 01  02 10 03 10 04 10 05 10  ....'...........
0320: 9D 0A 6D 14 03 10 00 10  1F 80 9D 0A 5D 14 04 10  ..m.........]...
0330: 00 10 27 80 1D 2D 80 23  01 CA 02 01 60 13 02 00  ..'..-.#....`...
0340: 10 00 80 00 02 04 03 04  00 00 10 03 05 00 15 80  ................
0350: 40 20 80 21 80 01 10 00  80 1A 3E 19 9D 0A 8D 14  @ .!......>.....
0360: 0C 00 27 80 1F 80 9D 0A  8D 14 0D 00 28 80 1F 80  ..'.........(...
0370: 9D 0A 8D 14 0E 00 29 80  1F 80 9D 0A 8D 14 0F 00  ......).........
0380: 2A 80 1F 80 9D 0A 8D 14  10 00 2B 80 1F 80 1A B1  *.........+.....
0390: 19 D4 02 2C 80 05 00 15  80 25 02 00 10 27 80 00  ...,.....%...'..
03A0: A8 03 01 72 02 01 FF 03  03 05 00 00 10 9D 0A 4D  ...r...........M
03B0: 14 0B 00 00 10 27 80 03  02 10 0B 00 9D 0A 0E 19  .....'..........
03C0: 03 10 00 10 27 80 9D 0A  1E 19 04 10 00 10 27 80  ....'.........'.
03D0: 9D 0A 2E 19 05 10 00 10  27 80 CC 01 02 10 03 10  ........'.......
03E0: 04 10 05 10 9D 0A 8D 14  03 10 00 10 1F 80 9D 0A  ................
03F0: 5D 14 04 10 00 10 27 80  1D 2D 80 23 01 8E 03 01  ].....'..-.#....
0400: 60 13 02 00 10 23 80 00  C6 04 03 04 00 00 10 03  `....#..........
0410: 05 00 15 80 40 20 80 21  80 01 10 23 80 1A 3E 19  ....@ .!...#..>.
0420: 9D 0A AD 14 0C 00 27 80  1F 80 9D 0A AD 14 0D 00  ......'.........
0430: 28 80 1F 80 9D 0A AD 14  0E 00 29 80 1F 80 9D 0A  (.........).....
0440: AD 14 0F 00 2A 80 1F 80  9D 0A AD 14 10 00 2B 80  ....*.........+.
0450: 1F 80 1A B1 19 D4 02 2C  80 05 00 15 80 25 02 00  .......,.....%..
0460: 10 27 80 00 6C 04 01 72  02 01 C3 04 03 05 00 00  .'..l..r........
0470: 10 9D 0A 4D 14 0B 00 00  10 27 80 03 02 10 0B 00  ...M.....'......
0480: 9D 0A 0E 19 03 10 00 10  27 80 9D 0A 1E 19 04 10  ........'.......
0490: 00 10 27 80 9D 0A 2E 19  05 10 00 10 27 80 CC 01  ..'.........'...
04A0: 02 10 03 10 04 10 05 10  9D 0A AD 14 03 10 00 10  ................
04B0: 1F 80 9D 0A 5D 14 04 10  00 10 27 80 1D 2D 80 23  ....].....'..-.#
04C0: 01 52 04 01 60 13 02 00  10 16 80 00 8A 05 03 04  .R..`...........
04D0: 00 00 10 03 05 00 15 80  40 20 80 21 80 01 10 16  ........@ .!....
04E0: 80 1A 3E 19 9D 0A CD 14  0C 00 27 80 1F 80 9D 0A  ..>.......'.....
04F0: CD 14 0D 00 28 80 1F 80  9D 0A CD 14 0E 00 29 80  ....(.........).
0500: 1F 80 9D 0A CD 14 0F 00  2A 80 1F 80 9D 0A CD 14  ........*.......
0510: 10 00 2B 80 1F 80 1A B1  19 D4 02 2C 80 05 00 15  ..+........,....
0520: 80 25 02 00 10 27 80 00  30 05 01 72 02 01 87 05  .%...'..0..r....
0530: 03 05 00 00 10 9D 0A 4D  14 0B 00 00 10 27 80 03  .......M.....'..
0540: 02 10 0B 00 9D 0A 0E 19  03 10 00 10 27 80 9D 0A  ............'...
0550: 1E 19 04 10 00 10 27 80  9D 0A 2E 19 05 10 00 10  ......'.........
0560: 27 80 CC 01 02 10 03 10  04 10 05 10 9D 0A CD 14  '...............
0570: 03 10 00 10 1F 80 9D 0A  5D 14 04 10 00 10 27 80  ........].....'.
0580: 1D 2D 80 23 01 16 05 01  60 13 02 00 10 2E 80 00  .-.#....`.......
0590: 4E 06 03 04 00 00 10 03  05 00 15 80 40 20 80 21  N...........@ .!
05A0: 80 01 10 2E 80 1A 3E 19  9D 0A ED 14 0C 00 27 80  ......>.......'.
05B0: 1F 80 9D 0A ED 14 0D 00  28 80 1F 80 9D 0A ED 14  ........(.......
05C0: 0E 00 29 80 1F 80 9D 0A  ED 14 0F 00 2A 80 1F 80  ..).........*...
05D0: 9D 0A ED 14 10 00 2B 80  1F 80 1A B1 19 D4 02 2C  ......+........,
05E0: 80 05 00 15 80 25 02 00  10 27 80 00 F4 05 01 72  .....%...'.....r
05F0: 02 01 4B 06 03 05 00 00  10 9D 0A 4D 14 0B 00 00  ..K........M....
0600: 10 27 80 03 02 10 0B 00  9D 0A 0E 19 03 10 00 10  .'..............
0610: 27 80 9D 0A 1E 19 04 10  00 10 27 80 9D 0A 2E 19  '.........'.....
0620: 05 10 00 10 27 80 CC 01  02 10 03 10 04 10 05 10  ....'...........
0630: 9D 0A ED 14 03 10 00 10  1F 80 9D 0A 5D 14 04 10  ............]...
0640: 00 10 27 80 1D 2D 80 23  01 DA 05 01 60 13 02 00  ..'..-.#....`...
0650: 10 27 80 00 12 07 03 04  00 00 10 03 05 00 15 80  .'..............
0660: 40 20 80 21 80 01 10 27  80 1A 3E 19 9D 0A 0D 15  @ .!...'..>.....
0670: 0C 00 27 80 1F 80 9D 0A  0D 15 0D 00 28 80 1F 80  ..'.........(...
0680: 9D 0A 0D 15 0E 00 29 80  1F 80 9D 0A 0D 15 0F 00  ......).........
0690: 2A 80 1F 80 9D 0A 0D 15  10 00 2B 80 1F 80 1A B1  *.........+.....
06A0: 19 D4 02 2C 80 05 00 15  80 25 02 00 10 27 80 00  ...,.....%...'..
06B0: B8 06 01 72 02 01 0F 07  03 05 00 00 10 9D 0A 4D  ...r...........M
06C0: 14 0B 00 00 10 27 80 03  02 10 0B 00 9D 0A 0E 19  .....'..........
06D0: 03 10 00 10 27 80 9D 0A  1E 19 04 10 00 10 27 80  ....'.........'.
06E0: 9D 0A 2E 19 05 10 00 10  27 80 CC 01 02 10 03 10  ........'.......
06F0: 04 10 05 10 9D 0A 0D 15  03 10 00 10 1F 80 9D 0A  ................
0700: 5D 14 04 10 00 10 27 80  1D 2D 80 23 01 9E 06 01  ].....'..-.#....
0710: 60 13 02 00 10 28 80 00  D6 07 03 04 00 00 10 03  `....(..........
0720: 05 00 15 80 40 20 80 21  80 01 10 28 80 1A 3E 19  ....@ .!...(..>.
0730: 9D 0A 2D 15 0C 00 27 80  1F 80 9D 0A 2D 15 0D 00  ..-...'.....-...
0740: 28 80 1F 80 9D 0A 2D 15  0E 00 29 80 1F 80 9D 0A  (.....-...).....
0750: 2D 15 0F 00 2A 80 1F 80  9D 0A 2D 15 10 00 2B 80  -...*.....-...+.
0760: 1F 80 1A B1 19 D4 02 2C  80 05 00 15 80 25 02 00  .......,.....%..
0770: 10 27 80 00 7C 07 01 72  02 01 D3 07 03 05 00 00  .'..|..r........
0780: 10 9D 0A 4D 14 0B 00 00  10 27 80 03 02 10 0B 00  ...M.....'......
0790: 9D 0A 0E 19 03 10 00 10  27 80 9D 0A 1E 19 04 10  ........'.......
07A0: 00 10 27 80 9D 0A 2E 19  05 10 00 10 27 80 CC 01  ..'.........'...
07B0: 02 10 03 10 04 10 05 10  9D 0A 2D 15 03 10 00 10  ..........-.....
07C0: 1F 80 9D 0A 5D 14 04 10  00 10 27 80 1D 2D 80 23  ....].....'..-.#
07D0: 01 62 07 01 60 13 02 00  10 29 80 00 9A 08 03 04  .b..`....)......
07E0: 00 00 10 03 05 00 15 80  40 20 80 21 80 01 10 29  ........@ .!...)
07F0: 80 1A 3E 19 9D 0A 4D 15  0C 00 27 80 1F 80 9D 0A  ..>...M...'.....
0800: 4D 15 0D 00 28 80 1F 80  9D 0A 4D 15 0E 00 29 80  M...(.....M...).
0810: 1F 80 9D 0A 4D 15 0F 00  2A 80 1F 80 9D 0A 4D 15  ....M...*.....M.
0820: 10 00 2B 80 1F 80 1A B1  19 D4 02 2C 80 05 00 15  ..+........,....
0830: 80 25 02 00 10 27 80 00  40 08 01 72 02 01 97 08  .%...'..@..r....
0840: 03 05 00 00 10 9D 0A 4D  14 0B 00 00 10 27 80 03  .......M.....'..
0850: 02 10 0B 00 9D 0A 0E 19  03 10 00 10 27 80 9D 0A  ............'...
0860: 1E 19 04 10 00 10 27 80  9D 0A 2E 19 05 10 00 10  ......'.........
0870: 27 80 CC 01 02 10 03 10  04 10 05 10 9D 0A 4D 15  '.............M.
0880: 03 10 00 10 1F 80 9D 0A  5D 14 04 10 00 10 27 80  ........].....'.
0890: 1D 2D 80 23 01 26 08 01  60 13 02 00 10 2A 80 00  .-.#.&..`....*..
08A0: 5E 09 03 04 00 00 10 03  05 00 15 80 40 20 80 21  ^...........@ .!
08B0: 80 01 10 2A 80 1A 3E 19  9D 0A 6D 15 0C 00 27 80  ...*..>...m...'.
08C0: 1F 80 9D 0A 6D 15 0D 00  28 80 1F 80 9D 0A 6D 15  ....m...(.....m.
08D0: 0E 00 29 80 1F 80 9D 0A  6D 15 0F 00 2A 80 1F 80  ..).....m...*...
08E0: 9D 0A 6D 15 10 00 2B 80  1F 80 1A B1 19 D4 02 2C  ..m...+........,
08F0: 80 05 00 15 80 25 02 00  10 27 80 00 04 09 01 72  .....%...'.....r
0900: 02 01 5B 09 03 05 00 00  10 9D 0A 4D 14 0B 00 00  ..[........M....
0910: 10 27 80 03 02 10 0B 00  9D 0A 0E 19 03 10 00 10  .'..............
0920: 27 80 9D 0A 1E 19 04 10  00 10 27 80 9D 0A 2E 19  '.........'.....
0930: 05 10 00 10 27 80 CC 01  02 10 03 10 04 10 05 10  ....'...........
0940: 9D 0A 6D 15 03 10 00 10  1F 80 9D 0A 5D 14 04 10  ..m.........]...
0950: 00 10 27 80 1D 2D 80 23  01 EA 08 01 60 13 02 00  ..'..-.#....`...
0960: 10 2B 80 00 22 0A 03 04  00 00 10 03 05 00 15 80  .+.."...........
0970: 40 20 80 21 80 01 10 2B  80 1A 3E 19 9D 0A 8D 15  @ .!...+..>.....
0980: 0C 00 27 80 1F 80 9D 0A  8D 15 0D 00 28 80 1F 80  ..'.........(...
0990: 9D 0A 8D 15 0E 00 29 80  1F 80 9D 0A 8D 15 0F 00  ......).........
09A0: 2A 80 1F 80 9D 0A 8D 15  10 00 2B 80 1F 80 1A B1  *.........+.....
09B0: 19 D4 02 2C 80 05 00 15  80 25 02 00 10 27 80 00  ...,.....%...'..
09C0: C8 09 01 72 02 01 1F 0A  03 05 00 00 10 9D 0A 4D  ...r...........M
09D0: 14 0B 00 00 10 27 80 03  02 10 0B 00 9D 0A 0E 19  .....'..........
09E0: 03 10 00 10 27 80 9D 0A  1E 19 04 10 00 10 27 80  ....'.........'.
09F0: 9D 0A 2E 19 05 10 00 10  27 80 CC 01 02 10 03 10  ........'.......
0A00: 04 10 05 10 9D 0A 8D 15  03 10 00 10 1F 80 9D 0A  ................
0A10: 5D 14 04 10 00 10 27 80  1D 2D 80 23 01 AE 09 01  ].....'..-.#....
0A20: 60 13 02 00 10 1F 80 00  E6 0A 03 04 00 00 10 03  `...............
0A30: 05 00 15 80 40 20 80 21  80 01 10 1F 80 1A 3E 19  ....@ .!......>.
0A40: 9D 0A AD 15 0C 00 27 80  1F 80 9D 0A AD 15 0D 00  ......'.........
0A50: 28 80 1F 80 9D 0A AD 15  0E 00 29 80 1F 80 9D 0A  (.........).....
0A60: AD 15 0F 00 2A 80 1F 80  9D 0A AD 15 10 00 2B 80  ....*.........+.
0A70: 1F 80 1A B1 19 D4 02 2C  80 05 00 15 80 25 02 00  .......,.....%..
0A80: 10 27 80 00 8C 0A 01 72  02 01 E3 0A 03 05 00 00  .'.....r........
0A90: 10 9D 0A 4D 14 0B 00 00  10 27 80 03 02 10 0B 00  ...M.....'......
0AA0: 9D 0A 0E 19 03 10 00 10  27 80 9D 0A 1E 19 04 10  ........'.......
0AB0: 00 10 27 80 9D 0A 2E 19  05 10 00 10 27 80 CC 01  ..'.........'...
0AC0: 02 10 03 10 04 10 05 10  9D 0A AD 15 03 10 00 10  ................
0AD0: 1F 80 9D 0A 5D 14 04 10  00 10 27 80 1D 2D 80 23  ....].....'..-.#
0AE0: 01 72 0A 01 60 13 02 00  10 2F 80 00 AA 0B 03 04  .r..`..../......
0AF0: 00 00 10 03 05 00 15 80  40 20 80 21 80 01 10 2F  ........@ .!.../
0B00: 80 1A 3E 19 9D 0A CD 15  0C 00 27 80 1F 80 9D 0A  ..>.......'.....
0B10: CD 15 0D 00 28 80 1F 80  9D 0A CD 15 0E 00 29 80  ....(.........).
0B20: 1F 80 9D 0A CD 15 0F 00  2A 80 1F 80 9D 0A CD 15  ........*.......
0B30: 10 00 2B 80 1F 80 1A B1  19 D4 02 2C 80 05 00 15  ..+........,....
0B40: 80 25 02 00 10 27 80 00  50 0B 01 72 02 01 A7 0B  .%...'..P..r....
0B50: 03 05 00 00 10 9D 0A 4D  14 0B 00 00 10 27 80 03  .......M.....'..
0B60: 02 10 0B 00 9D 0A 0E 19  03 10 00 10 27 80 9D 0A  ............'...
0B70: 1E 19 04 10 00 10 27 80  9D 0A 2E 19 05 10 00 10  ......'.........
0B80: 27 80 CC 01 02 10 03 10  04 10 05 10 9D 0A CD 15  '...............
0B90: 03 10 00 10 1F 80 9D 0A  5D 14 04 10 00 10 27 80  ........].....'.
0BA0: 1D 2D 80 23 01 36 0B 01  60 13 02 00 10 30 80 00  .-.#.6..`....0..
0BB0: 6E 0C 03 04 00 00 10 03  05 00 15 80 40 20 80 21  n...........@ .!
0BC0: 80 01 10 30 80 1A 3E 19  9D 0A ED 15 0C 00 27 80  ...0..>.......'.
0BD0: 1F 80 9D 0A ED 15 0D 00  28 80 1F 80 9D 0A ED 15  ........(.......
0BE0: 0E 00 29 80 1F 80 9D 0A  ED 15 0F 00 2A 80 1F 80  ..).........*...
0BF0: 9D 0A ED 15 10 00 2B 80  1F 80 1A B1 19 D4 02 2C  ......+........,
0C00: 80 05 00 15 80 25 02 00  10 27 80 00 14 0C 01 72  .....%...'.....r
0C10: 02 01 6B 0C 03 05 00 00  10 9D 0A 4D 14 0B 00 00  ..k........M....
0C20: 10 27 80 03 02 10 0B 00  9D 0A 0E 19 03 10 00 10  .'..............
0C30: 27 80 9D 0A 1E 19 04 10  00 10 27 80 9D 0A 2E 19  '.........'.....
0C40: 05 10 00 10 27 80 CC 01  02 10 03 10 04 10 05 10  ....'...........
0C50: 9D 0A ED 15 03 10 00 10  1F 80 9D 0A 5D 14 04 10  ............]...
0C60: 00 10 27 80 1D 2D 80 23  01 FA 0B 01 60 13 02 00  ..'..-.#....`...
0C70: 10 31 80 00 32 0D 03 04  00 00 10 03 05 00 15 80  .1..2...........
0C80: 40 20 80 21 80 01 10 31  80 1A 3E 19 9D 0A 0D 16  @ .!...1..>.....
0C90: 0C 00 27 80 1F 80 9D 0A  0D 16 0D 00 28 80 1F 80  ..'.........(...
0CA0: 9D 0A 0D 16 0E 00 29 80  1F 80 9D 0A 0D 16 0F 00  ......).........
0CB0: 2A 80 1F 80 9D 0A 0D 16  10 00 2B 80 1F 80 1A B1  *.........+.....
0CC0: 19 D4 02 2C 80 05 00 15  80 25 02 00 10 27 80 00  ...,.....%...'..
0CD0: D8 0C 01 72 02 01 2F 0D  03 05 00 00 10 9D 0A 4D  ...r../........M
0CE0: 14 0B 00 00 10 27 80 03  02 10 0B 00 9D 0A 0E 19  .....'..........
0CF0: 03 10 00 10 27 80 9D 0A  1E 19 04 10 00 10 27 80  ....'.........'.
0D00: 9D 0A 2E 19 05 10 00 10  27 80 CC 01 02 10 03 10  ........'.......
0D10: 04 10 05 10 9D 0A 0D 16  03 10 00 10 1F 80 9D 0A  ................
0D20: 5D 14 04 10 00 10 27 80  1D 2D 80 23 01 BE 0C 01  ].....'..-.#....
0D30: 60 13 02 00 10 32 80 00  F6 0D 03 04 00 00 10 03  `....2..........
0D40: 05 00 15 80 40 20 80 21  80 01 10 32 80 1A 3E 19  ....@ .!...2..>.
0D50: 9D 0A 2D 16 0C 00 27 80  1F 80 9D 0A 2D 16 0D 00  ..-...'.....-...
0D60: 28 80 1F 80 9D 0A 2D 16  0E 00 29 80 1F 80 9D 0A  (.....-...).....
0D70: 2D 16 0F 00 2A 80 1F 80  9D 0A 2D 16 10 00 2B 80  -...*.....-...+.
0D80: 1F 80 1A B1 19 D4 02 2C  80 05 00 15 80 25 02 00  .......,.....%..
0D90: 10 27 80 00 9C 0D 01 72  02 01 F3 0D 03 05 00 00  .'.....r........
0DA0: 10 9D 0A 4D 14 0B 00 00  10 27 80 03 02 10 0B 00  ...M.....'......
0DB0: 9D 0A 0E 19 03 10 00 10  27 80 9D 0A 1E 19 04 10  ........'.......
0DC0: 00 10 27 80 9D 0A 2E 19  05 10 00 10 27 80 CC 01  ..'.........'...
0DD0: 02 10 03 10 04 10 05 10  9D 0A 2D 16 03 10 00 10  ..........-.....
0DE0: 1F 80 9D 0A 5D 14 04 10  00 10 27 80 1D 2D 80 23  ....].....'..-.#
0DF0: 01 82 0D 01 60 13 02 00  10 1C 80 00 BA 0E 03 04  ....`...........
0E00: 00 00 10 03 05 00 15 80  40 20 80 21 80 01 10 1C  ........@ .!....
0E10: 80 1A 3E 19 9D 0A 4D 16  0C 00 27 80 1F 80 9D 0A  ..>...M...'.....
0E20: 4D 16 0D 00 28 80 1F 80  9D 0A 4D 16 0E 00 29 80  M...(.....M...).
0E30: 1F 80 9D 0A 4D 16 0F 00  2A 80 1F 80 9D 0A 4D 16  ....M...*.....M.
0E40: 10 00 2B 80 1F 80 1A B1  19 D4 02 2C 80 05 00 15  ..+........,....
0E50: 80 25 02 00 10 27 80 00  60 0E 01 72 02 01 B7 0E  .%...'..`..r....
0E60: 03 05 00 00 10 9D 0A 4D  14 0B 00 00 10 27 80 03  .......M.....'..
0E70: 02 10 0B 00 9D 0A 0E 19  03 10 00 10 27 80 9D 0A  ............'...
0E80: 1E 19 04 10 00 10 27 80  9D 0A 2E 19 05 10 00 10  ......'.........
0E90: 27 80 CC 01 02 10 03 10  04 10 05 10 9D 0A 4D 16  '.............M.
0EA0: 03 10 00 10 1F 80 9D 0A  5D 14 04 10 00 10 27 80  ........].....'.
0EB0: 1D 2D 80 23 01 46 0E 01  60 13 02 00 10 20 80 00  .-.#.F..`.... ..
0EC0: 7E 0F 03 04 00 00 10 03  05 00 15 80 40 20 80 21  ~...........@ .!
0ED0: 80 01 10 20 80 1A 3E 19  9D 0A 6D 16 0C 00 27 80  ... ..>...m...'.
0EE0: 1F 80 9D 0A 6D 16 0D 00  28 80 1F 80 9D 0A 6D 16  ....m...(.....m.
0EF0: 0E 00 29 80 1F 80 9D 0A  6D 16 0F 00 2A 80 1F 80  ..).....m...*...
0F00: 9D 0A 6D 16 10 00 2B 80  1F 80 1A B1 19 D4 02 2C  ..m...+........,
0F10: 80 05 00 15 80 25 02 00  10 27 80 00 24 0F 01 72  .....%...'..$..r
0F20: 02 01 7B 0F 03 05 00 00  10 9D 0A 4D 14 0B 00 00  ..{........M....
0F30: 10 27 80 03 02 10 0B 00  9D 0A 0E 19 03 10 00 10  .'..............
0F40: 27 80 9D 0A 1E 19 04 10  00 10 27 80 9D 0A 2E 19  '.........'.....
0F50: 05 10 00 10 27 80 CC 01  02 10 03 10 04 10 05 10  ....'...........
0F60: 9D 0A 6D 16 03 10 00 10  1F 80 9D 0A 5D 14 04 10  ..m.........]...
0F70: 00 10 27 80 1D 2D 80 23  01 0A 0F 01 60 13 02 00  ..'..-.#....`...
0F80: 10 33 80 00 42 10 03 04  00 00 10 03 05 00 15 80  .3..B...........
0F90: 40 20 80 21 80 01 10 33  80 1A 3E 19 9D 0A 8D 16  @ .!...3..>.....
0FA0: 0C 00 27 80 1F 80 9D 0A  8D 16 0D 00 28 80 1F 80  ..'.........(...
0FB0: 9D 0A 8D 16 0E 00 29 80  1F 80 9D 0A 8D 16 0F 00  ......).........
0FC0: 2A 80 1F 80 9D 0A 8D 16  10 00 2B 80 1F 80 1A B1  *.........+.....
0FD0: 19 D4 02 2C 80 05 00 15  80 25 02 00 10 27 80 00  ...,.....%...'..
0FE0: E8 0F 01 72 02 01 3F 10  03 05 00 00 10 9D 0A 4D  ...r..?........M
0FF0: 14 0B 00 00 10 27 80 03  02 10 0B 00 9D 0A 0E 19  .....'..........
1000: 03 10 00 10 27 80 9D 0A  1E 19 04 10 00 10 27 80  ....'.........'.
1010: 9D 0A 2E 19 05 10 00 10  27 80 CC 01 02 10 03 10  ........'.......
1020: 04 10 05 10 9D 0A 8D 16  03 10 00 10 1F 80 9D 0A  ................
1030: 5D 14 04 10 00 10 27 80  1D 2D 80 23 01 CE 0F 01  ].....'..-.#....
1040: 60 13 02 00 10 34 80 00  06 11 03 04 00 00 10 03  `....4..........
1050: 05 00 15 80 40 20 80 21  80 01 10 34 80 1A 3E 19  ....@ .!...4..>.
1060: 9D 0A AD 16 0C 00 27 80  1F 80 9D 0A AD 16 0D 00  ......'.........
1070: 28 80 1F 80 9D 0A AD 16  0E 00 29 80 1F 80 9D 0A  (.........).....
1080: AD 16 0F 00 2A 80 1F 80  9D 0A AD 16 10 00 2B 80  ....*.........+.
1090: 1F 80 1A B1 19 D4 02 2C  80 05 00 15 80 25 02 00  .......,.....%..
10A0: 10 27 80 00 AC 10 01 72  02 01 03 11 03 05 00 00  .'.....r........
10B0: 10 9D 0A 4D 14 0B 00 00  10 27 80 03 02 10 0B 00  ...M.....'......
10C0: 9D 0A 0E 19 03 10 00 10  27 80 9D 0A 1E 19 04 10  ........'.......
10D0: 00 10 27 80 9D 0A 2E 19  05 10 00 10 27 80 CC 01  ..'.........'...
10E0: 02 10 03 10 04 10 05 10  9D 0A AD 16 03 10 00 10  ................
10F0: 1F 80 9D 0A 5D 14 04 10  00 10 27 80 1D 2D 80 23  ....].....'..-.#
1100: 01 92 10 01 60 13 02 00  10 35 80 00 CA 11 03 04  ....`....5......
1110: 00 00 10 03 05 00 15 80  40 20 80 21 80 01 10 35  ........@ .!...5
1120: 80 1A 3E 19 9D 0A CD 16  0C 00 27 80 1F 80 9D 0A  ..>.......'.....
1130: CD 16 0D 00 28 80 1F 80  9D 0A CD 16 0E 00 29 80  ....(.........).
1140: 1F 80 9D 0A CD 16 0F 00  2A 80 1F 80 9D 0A CD 16  ........*.......
1150: 10 00 2B 80 1F 80 1A B1  19 D4 02 2C 80 05 00 15  ..+........,....
1160: 80 25 02 00 10 27 80 00  70 11 01 72 02 01 C7 11  .%...'..p..r....
1170: 03 05 00 00 10 9D 0A 4D  14 0B 00 00 10 27 80 03  .......M.....'..
1180: 02 10 0B 00 9D 0A 0E 19  03 10 00 10 27 80 9D 0A  ............'...
1190: 1E 19 04 10 00 10 27 80  9D 0A 2E 19 05 10 00 10  ......'.........
11A0: 27 80 CC 01 02 10 03 10  04 10 05 10 9D 0A CD 16  '...............
11B0: 03 10 00 10 1F 80 9D 0A  5D 14 04 10 00 10 27 80  ........].....'.
11C0: 1D 2D 80 23 01 56 11 01  60 13 02 00 10 36 80 00  .-.#.V..`....6..
11D0: 8E 12 03 04 00 00 10 03  05 00 15 80 40 20 80 21  ............@ .!
11E0: 80 01 10 36 80 1A 3E 19  9D 0A ED 16 0C 00 27 80  ...6..>.......'.
11F0: 1F 80 9D 0A ED 16 0D 00  28 80 1F 80 9D 0A ED 16  ........(.......
1200: 0E 00 29 80 1F 80 9D 0A  ED 16 0F 00 2A 80 1F 80  ..).........*...
1210: 9D 0A ED 16 10 00 2B 80  1F 80 1A B1 19 D4 02 2C  ......+........,
1220: 80 05 00 15 80 25 02 00  10 27 80 00 34 12 01 72  .....%...'..4..r
1230: 02 01 8B 12 03 05 00 00  10 9D 0A 4D 14 0B 00 00  ...........M....
1240: 10 27 80 03 02 10 0B 00  9D 0A 0E 19 03 10 00 10  .'..............
1250: 27 80 9D 0A 1E 19 04 10  00 10 27 80 9D 0A 2E 19  '.........'.....
1260: 05 10 00 10 27 80 CC 01  02 10 03 10 04 10 05 10  ....'...........
1270: 9D 0A ED 16 03 10 00 10  1F 80 9D 0A 5D 14 04 10  ............]...
1280: 00 10 27 80 1D 2D 80 23  01 1A 12 01 60 13 02 00  ..'..-.#....`...
1290: 10 37 80 00 52 13 03 04  00 00 10 03 05 00 15 80  .7..R...........
12A0: 40 20 80 21 80 01 10 37  80 1A 3E 19 9D 0A 0D 17  @ .!...7..>.....
12B0: 0C 00 27 80 1F 80 9D 0A  0D 17 0D 00 28 80 1F 80  ..'.........(...
12C0: 9D 0A 0D 17 0E 00 29 80  1F 80 9D 0A 0D 17 0F 00  ......).........
12D0: 2A 80 1F 80 9D 0A 0D 17  10 00 2B 80 1F 80 1A B1  *.........+.....
12E0: 19 D4 02 2C 80 05 00 15  80 25 02 00 10 27 80 00  ...,.....%...'..
12F0: F8 12 01 72 02 01 4F 13  03 05 00 00 10 9D 0A 4D  ...r..O........M
1300: 14 0B 00 00 10 27 80 03  02 10 0B 00 9D 0A 0E 19  .....'..........
1310: 03 10 00 10 27 80 9D 0A  1E 19 04 10 00 10 27 80  ....'.........'.
1320: 9D 0A 2E 19 05 10 00 10  27 80 CC 01 02 10 03 10  ........'.......
1330: 04 10 05 10 9D 0A 0D 17  03 10 00 10 1F 80 9D 0A  ................
1340: 5D 14 04 10 00 10 27 80  1D 2D 80 23 01 DE 12 01  ].....'..-.#....
1350: 60 13 02 00 10 38 80 00  60 13 01 D6 00 01 60 13  `....8..`.....`.
1360: 01 D6 00 01 49 14 02 00  10 2E 80 00 79 13 03 03  ....I.......y...
1370: 00 00 10 01 72 02 01 49  14 02 00 10 27 80 00 C6  ....r..I....'...
1380: 13 03 03 00 00 10 40 15  80 1C 80 01 10 2E 80 43  ......@........C
1390: 00 43 01 02 02 10 15 80  00 9E 13 01 A2 13 1D 39  .C.............9
13A0: 80 23 02 04 10 15 80 00  AD 13 01 B1 13 1D 3A 80  .#............:.
13B0: 23 02 06 10 15 80 00 BC  13 01 C0 13 1D 3B 80 23  #............;.#
13C0: 01 D6 00 01 49 14 02 00  10 28 80 00 F1 13 03 03  ....I....(......
13D0: 00 00 10 1D 3C 80 23 1D  3D 80 23 1D 3E 80 23 1D  ....<.#.=.#.>.#.
13E0: 3F 80 23 1D 40 80 23 1D  41 80 23 01 D6 00 01 49  ?.#.@.#.A.#....I
13F0: 14 02 00 10 29 80 00 15  14 03 03 00 00 10 40 15  ....).........@.
1400: 80 1C 80 01 10 2A 80 43  00 43 01 1D 42 80 23 01  .....*.C.C..B.#.
1410: D6 00 01 49 14 02 00 10  2A 80 00 39 14 03 03 00  ...I....*..9....
1420: 00 10 03 02 10 1A 80 1D  43 80 23 1D 44 80 23 1D  ........C.#.D.#.
1430: 45 80 23 01 D6 00 01 49  14 02 00 10 30 80 00 49  E.#....I....0..I
1440: 14 03 01 10 15 80 01 49  14 2E 20 00 21 02 10 03  .......I.. .!...
1450: 10 04 10 05 10 06 10 15  80 15 80 15 80 46 80 47  .............F.G
1460: 80 48 80 49 80 4A 80 15  80 15 80 15 80 4B 80 4C  .H.I.J.......K.L
1470: 80 4D 80 4E 80 4F 80 50  80 51 80 52 80 53 80 54  .M.N.O.P.Q.R.S.T
1480: 80 15 80 15 80 15 80 15  80 15 80 15 80 55 80 56  .............U.V
1490: 80 57 80 58 80 59 80 5A  80 5B 80 5C 80 5D 80 5E  .W.X.Y.Z.[.\.].^
14A0: 80 15 80 15 80 15 80 15  80 15 80 15 80 5F 80 60  ............._.`
14B0: 80 61 80 62 80 63 80 64  80 65 80 66 80 67 80 68  .a.b.c.d.e.f.g.h
14C0: 80 15 80 15 80 15 80 15  80 15 80 15 80 69 80 6A  .............i.j
14D0: 80 6B 80 6C 80 6D 80 6E  80 6F 80 70 80 71 80 72  .k.l.m.n.o.p.q.r
14E0: 80 15 80 15 80 15 80 15  80 15 80 15 80 73 80 74  .............s.t
14F0: 80 75 80 76 80 77 80 78  80 79 80 7A 80 7B 80 7C  .u.v.w.x.y.z.{.|
1500: 80 15 80 15 80 15 80 15  80 15 80 15 80 7D 80 7E  .............}.~
1510: 80 7F 80 80 80 81 80 82  80 83 80 84 80 85 80 86  ................
1520: 80 15 80 15 80 15 80 15  80 15 80 15 80 87 80 88  ................
1530: 80 89 80 8A 80 8B 80 8C  80 8D 80 8E 80 8F 80 90  ................
1540: 80 15 80 15 80 15 80 15  80 15 80 15 80 91 80 92  ................
1550: 80 93 80 94 80 95 80 96  80 97 80 98 80 99 80 9A  ................
1560: 80 15 80 15 80 15 80 15  80 15 80 15 80 9B 80 9C  ................
1570: 80 9D 80 9E 80 9F 80 A0  80 A1 80 A2 80 A3 80 A4  ................
1580: 80 15 80 15 80 15 80 15  80 15 80 15 80 A5 80 A6  ................
1590: 80 A7 80 A8 80 A9 80 AA  80 AB 80 AC 80 AD 80 AE  ................
15A0: 80 15 80 15 80 15 80 15  80 15 80 15 80 AF 80 B0  ................
15B0: 80 B1 80 B2 80 B3 80 B4  80 B5 80 B6 80 B7 80 B8  ................
15C0: 80 15 80 15 80 15 80 15  80 15 80 15 80 B9 80 BA  ................
15D0: 80 BB 80 BC 80 BD 80 BE  80 BF 80 C0 80 C1 80 C2  ................
15E0: 80 15 80 15 80 15 80 15  80 15 80 15 80 C3 80 C4  ................
15F0: 80 C5 80 C6 80 C7 80 C8  80 C9 80 CA 80 CB 80 CC  ................
1600: 80 15 80 15 80 15 80 15  80 15 80 15 80 CD 80 CE  ................
1610: 80 CF 80 D0 80 D1 80 D2  80 D3 80 D4 80 D5 80 D6  ................
1620: 80 15 80 15 80 15 80 15  80 15 80 15 80 D7 80 D8  ................
1630: 80 D9 80 DA 80 DB 80 DC  80 DD 80 DE 80 DF 80 E0  ................
1640: 80 15 80 15 80 15 80 15  80 15 80 15 80 E1 80 E2  ................
1650: 80 E3 80 E4 80 E5 80 E6  80 E7 80 E8 80 E9 80 EA  ................
1660: 80 15 80 15 80 15 80 15  80 15 80 15 80 EB 80 EC  ................
1670: 80 ED 80 EE 80 EF 80 F0  80 F1 80 F2 80 F3 80 F4  ................
1680: 80 15 80 15 80 15 80 15  80 15 80 15 80 F5 80 F6  ................
1690: 80 F7 80 F8 80 F9 80 FA  80 FB 80 FC 80 FD 80 FE  ................
16A0: 80 15 80 15 80 15 80 15  80 15 80 15 80 FF 80 00  ................
16B0: 81 01 81 02 81 03 81 04  81 05 81 06 81 07 81 08  ................
16C0: 81 15 80 15 80 15 80 15  80 15 80 15 80 09 81 0A  ................
16D0: 81 0B 81 0C 81 0D 81 0E  81 0F 81 10 81 11 81 12  ................
16E0: 81 15 80 15 80 15 80 15  80 15 80 15 80 13 81 14  ................
16F0: 81 15 81 16 81 17 81 18  81 19 81 1A 81 1B 81 1C  ................
1700: 81 15 80 15 80 15 80 15  80 15 80 15 80 1D 81 1E  ................
1710: 81 1F 81 20 81 21 81 22  81 23 81 24 81 25 81 26  ... .!.".#.$.%.&
1720: 81 15 80 15 80 15 80 15  80 15 80 15 80 27 81 28  .............'.(
1730: 81 29 81 2A 81 2B 81 2C  81 2D 81 2E 81 2F 81 30  .).*.+.,.-.../.0
1740: 81 31 81 32 81 33 81 34  81 35 81 36 81 37 81 38  .1.2.3.4.5.6.7.8
1750: 81 39 81 3A 81 3B 81 3C  81 15 80 15 80 3D 81 3E  .9.:.;.<.....=.>
1760: 81 3F 81 40 81 41 81 42  81 43 81 44 81 45 81 46  .?.@.A.B.C.D.E.F
1770: 81 47 81 48 81 49 81 4A  81 4B 81 4C 81 4D 81 4E  .G.H.I.J.K.L.M.N
1780: 81 4F 81 50 81 51 81 52  81 15 80 15 80 53 81 54  .O.P.Q.R.....S.T
1790: 81 55 81 56 81 57 81 58  81 59 81 5A 81 5B 81 5C  .U.V.W.X.Y.Z.[.\
17A0: 81 5D 81 5E 81 5F 81 60  81 61 81 62 81 63 81 64  .].^._.`.a.b.c.d
17B0: 81 65 81 66 81 67 81 68  81 15 80 15 80 69 81 6A  .e.f.g.h.....i.j
17C0: 81 6B 81 6C 81 6D 81 6E  81 6F 81 70 81 71 81 72  .k.l.m.n.o.p.q.r
17D0: 81 73 81 74 81 75 81 76  81 77 81 78 81 79 81 7A  .s.t.u.v.w.x.y.z
17E0: 81 7B 81 7C 81 7D 81 7E  81 15 80 15 80 7F 81 80  .{.|.}.~........
17F0: 81 81 81 82 81 83 81 84  81 85 81 86 81 87 81 88  ................
1800: 81 89 81 8A 81 8B 81 8C  81 8D 81 8E 81 8F 81 90  ................
1810: 81 91 81 92 81 93 81 94  81 15 80 15 80 95 81 96  ................
1820: 81 97 81 98 81 99 81 9A  81 9B 81 9C 81 9D 81 9E  ................
1830: 81 9F 81 A0 81 A1 81 A2  81 A3 81 A4 81 A5 81 A6  ................
1840: 81 A7 81 A8 81 A9 81 AA  81 15 80 15 80 AB 81 AC  ................
1850: 81 AD 81 AE 81 AF 81 B0  81 B1 81 B2 81 B3 81 B4  ................
1860: 81 B5 81 B6 81 B7 81 B8  81 B9 81 BA 81 BB 81 BC  ................
1870: 81 BD 81 BE 81 BF 81 C0  81 15 80 15 80 C1 81 C2  ................
1880: 81 C3 81 C4 81 C5 81 C6  81 C7 81 C8 81 C9 81 CA  ................
1890: 81 CB 81 CC 81 CD 81 CE  81 CF 81 D0 81 D1 81 D2  ................
18A0: 81 D3 81 D4 81 D5 81 D6  81 15 80 15 80 D7 81 D8  ................
18B0: 81 D9 81 DA 81 DB 81 DC  81 DD 81 DE 81 DF 81 E0  ................
18C0: 81 E1 81 E2 81 E3 81 E4  81 E5 81 E6 81 E7 81 E8  ................
18D0: 81 E9 81 EA 81 EB 81 EC  81 15 80 15 80 ED 81 EE  ................
18E0: 81 EF 81 F0 81 F1 81 F2  81 F3 81 F4 81 F5 81 F6  ................
18F0: 81 F7 81 F8 81 F9 81 FA  81 FB 81 FC 81 FD 81 FE  ................
1900: 81 FF 81 00 82 01 82 02  82 15 80 15 80 00 11 00  ................
1910: 14 00 17 00 1A 00 1D 00  15 80 15 80 15 80 12 00  ................
1920: 15 00 18 00 1B 00 1E 00  15 80 15 80 15 80 13 00  ................
1930: 16 00 19 00 1C 00 1F 00  15 80 15 80 15 80 40 15  ..............@.
1940: 80 1C 80 01 10 27 80 43  00 43 01 03 14 00 02 10  .....'.C.C......
1950: 03 15 00 03 10 03 16 00  04 10 03 11 00 05 10 03  ................
1960: 12 00 06 10 03 13 00 07  10 40 15 80 1C 80 01 10  .........@......
1970: 28 80 43 00 43 01 03 1A  00 02 10 03 1B 00 03 10  (.C.C...........
1980: 03 1C 00 04 10 03 17 00  05 10 03 18 00 06 10 03  ................
1990: 19 00 07 10 40 15 80 1C  80 01 10 29 80 43 00 43  ....@......).C.C
19A0: 01 03 1D 00 02 10 03 1E  00 03 10 03 1F 00 04 10  ................
19B0: 1B D4 04 15 80 0C 00 11  00 12 00 13 00 D4 04 00  ................
19C0: 80 0D 00 14 00 15 00 16  00 D4 04 23 80 0E 00 17  ...........#....
19D0: 00 18 00 19 00 D4 04 16  80 0F 00 1A 00 1B 00 1C  ................
19E0: 00 D4 04 2E 80 10 00 1D  00 1E 00 1F 00 03 02 10  ................
19F0: 0C 00 03 03 10 0D 00 03  04 10 0E 00 03 05 10 0F  ................
1A00: 00 03 06 10 10 00 1B                              .......         
```

#### Opcodes

```
  0: 0x00B5 [0x03] ExtData[1]->WorkLocal[7] = Work_Zone[2]
  1: 0x00BA [0x1E] EventEntity looks at LocalPlayer and starts talking
  2: 0x00BF [0x1C] WAIT(1* ticks)
  3: 0x00C2 [0x03] ExtData[1]->WorkLocal[3] = 0*
  4: 0x00C7 [0x03] ExtData[1]->WorkLocal[4] = 0*
  5: 0x00CC [0x03] ExtData[1]->WorkLocal[5] = 0*
  6: 0x00D1 [0x03] ExtData[1]->WorkLocal[6] = 0*
  7: 0x00D6 [0x03] Work_Zone[2] = 9999*
  8: 0x00DB [0x24] CREATE_DIALOG(message_id=7261*, default_option=ExtData[1]->WorkLocal[3], option_flags=ExtData[1]->WorkLocal[7])
    → "Inquire about what? [Level settings./Temenos./Temenos Units./The Temenos Furnace./Equipment list./Grace./Notorious monsters./Tresure coffer timings./%.@/@/@/@/Nothing for now.]"
  9: 0x00E2 [0x25] WAIT_DIALOG_SELECT()
 10: 0x00E3 [0x02] IF !(Work_Zone[0] == 0*) GOTO 0x0201
 11: 0x00EB [0x03] ExtData[1]->WorkLocal[3] = Work_Zone[0]
 12: 0x00F0 [0x40] SET_BIT_WORK_RANGE(start_bit=0*, end_bit=15*, target=Work_Zone[1], source=1*)
 13: 0x00F9 [0x43] SEND_EVENT_UPDATE: Send pending tag to server (packet 0x005B)
 14: 0x00FB [0x43] SEND_EVENT_UPDATE: Check pending flag (skip if not pending)
 15: 0x00FD [0x03] ExtData[1]->WorkLocal[0] = Work_Zone[2]
 16: 0x0102 [0x03] ExtData[1]->WorkLocal[1] = Work_Zone[3]
 17: 0x0107 [0x07] ExtData[1]->WorkLocal[0] += 118*
 18: 0x010C [0x03] Work_Zone[2] = 349*
 19: 0x0111 [0x03] Work_Zone[3] = 135*
 20: 0x0116 [0x1D] PRINT_EVENT_MESSAGE(message_id=7253*)
    → "Enter a level value between 119 and $1 to be recorded in your $3."
 21: 0x0119 [0x23] WAIT_FOR_DIALOG_INTERACTION
 22: 0x011A [0x48] [System] [7255*]:
    → "Enter 0 to cancel."
 23: 0x011D [0x02] IF !(ExtData[1]->WorkLocal[1] == 0*) GOTO 0x0128
 24: 0x0125 [0x01] GOTO 0x012B
 25: 0x0128 [0x48] [System] [7257*]:
    → "Increasing the level will reset your progress."

SUBROUTINE_012B:
 26: 0x012B [0x03] Work_Zone[1] = 0*
 27: 0x0130 [0x71] USER_INPUT_HANDLER: Open numerical input with params (work=[1*, 3*])
 28: 0x0136 [0x71] USER_INPUT_HANDLER: Process numerical input B (work=ExtData[1]->WorkLocal[2])
 29: 0x013A [0x02] IF !(ExtData[1]->WorkLocal[2] == 0*) GOTO 0x0145
 30: 0x0142 [0x01] GOTO 0x01FE
 31: 0x0145 [0x02] IF !(ExtData[1]->WorkLocal[2] < 119*) GOTO 0x01FB
 32: 0x014D [0x02] IF !(ExtData[1]->WorkLocal[2] > 135*) GOTO 0x01F5
 33: 0x0155 [0x42] SET_CLI_EVENT_CANCEL_DATA()
 34: 0x0156 [0x02] IF !(ExtData[1]->WorkLocal[1] == 0*) GOTO 0x0181
 35: 0x015E [0x03] Work_Zone[2] = 349*
 36: 0x0163 [0x03] Work_Zone[3] = ExtData[1]->WorkLocal[2]
 37: 0x0168 [0x40] SET_BIT_WORK_RANGE(start_bit=0*, end_bit=10*, target=Work_Zone[1], source=1*)
 38: 0x0171 [0x40] SET_BIT_WORK_RANGE(start_bit=16*, end_bit=31*, target=Work_Zone[1], source=ExtData[1]->WorkLocal[2])
 39: 0x017A [0x1D] PRINT_EVENT_MESSAGE(message_id=7254*)
    → ""$1" has been recorded in your $3."
 40: 0x017D [0x23] WAIT_FOR_DIALOG_INTERACTION
 41: 0x017E [0x01] GOTO 0x01F2
 42: 0x0181 [0x02] IF !(ExtData[1]->WorkLocal[2] <= ExtData[1]->WorkLocal[0]) GOTO 0x01D2
 43: 0x0189 [0x48] [System] [7257*]:
    → "Increasing the level will reset your progress."
 44: 0x018C [0x24] CREATE_DIALOG(message_id=7258*, default_option=1*, option_flags=0*)
    → "What will you do? [Change level and reset./Never mind.]"
 45: 0x0193 [0x25] WAIT_DIALOG_SELECT()
 46: 0x0194 [0x02] IF !(Work_Zone[0] == 0*) GOTO 0x01BF
 47: 0x019C [0x03] Work_Zone[2] = 349*
 48: 0x01A1 [0x03] Work_Zone[3] = ExtData[1]->WorkLocal[2]
 49: 0x01A6 [0x40] SET_BIT_WORK_RANGE(start_bit=0*, end_bit=10*, target=Work_Zone[1], source=1*)
 50: 0x01AF [0x40] SET_BIT_WORK_RANGE(start_bit=16*, end_bit=31*, target=Work_Zone[1], source=ExtData[1]->WorkLocal[2])
 51: 0x01B8 [0x1D] PRINT_EVENT_MESSAGE(message_id=7254*)
    → ""$1" has been recorded in your $3."
 52: 0x01BB [0x23] WAIT_FOR_DIALOG_INTERACTION
 53: 0x01BC [0x01] GOTO 0x01CF
 54: 0x01BF [0x02] IF !(Work_Zone[0] == 1*) GOTO 0x01CF
 55: 0x01C7 [0x03] Work_Zone[1] = 0*
 56: 0x01CC [0x01] GOTO 0x01CF

SUBROUTINE_01CF:
 57: 0x01CF [0x01] GOTO 0x01F2
 58: 0x01D2 [0x03] Work_Zone[2] = 349*
 59: 0x01D7 [0x03] Work_Zone[3] = ExtData[1]->WorkLocal[2]
 60: 0x01DC [0x40] SET_BIT_WORK_RANGE(start_bit=0*, end_bit=10*, target=Work_Zone[1], source=1*)
 61: 0x01E5 [0x40] SET_BIT_WORK_RANGE(start_bit=16*, end_bit=31*, target=Work_Zone[1], source=ExtData[1]->WorkLocal[2])
 62: 0x01EE [0x1D] PRINT_EVENT_MESSAGE(message_id=7254*)
    → ""$1" has been recorded in your $3."
 63: 0x01F1 [0x23] WAIT_FOR_DIALOG_INTERACTION

SUBROUTINE_01F2:
 64: 0x01F2 [0x01] GOTO 0x01F8
 65: 0x01F5 [0x01] GOTO 0x010C

SUBROUTINE_01F8:
 66: 0x01F8 [0x01] GOTO 0x01FE
 67: 0x01FB [0x01] GOTO 0x010C

SUBROUTINE_01FE:
 68: 0x01FE [0x01] GOTO 0x1449
 69: 0x0201 [0x02] IF !(Work_Zone[0] == 1*) GOTO 0x023D
 70: 0x0209 [0x03] ExtData[1]->WorkLocal[3] = Work_Zone[0]
 71: 0x020E [0x03] Work_Zone[2] = 349*
 72: 0x0213 [0x1D] PRINT_EVENT_MESSAGE(message_id=7239*)
    → "Welcome to Temenos. This place is designed for the generation of new life-forms."
 73: 0x0216 [0x23] WAIT_FOR_DIALOG_INTERACTION
 74: 0x0217 [0x1D] PRINT_EVENT_MESSAGE(message_id=7240*)
    → "North, West, East, and Central Towers contain monsters for recording data in your $3."
 75: 0x021A [0x23] WAIT_FOR_DIALOG_INTERACTION
 76: 0x021B [0x1D] PRINT_EVENT_MESSAGE(message_id=7241*)
    → "Successfully recording data will permit you to open Temenos Coffers."
 77: 0x021E [0x23] WAIT_FOR_DIALOG_INTERACTION
 78: 0x021F [0x1D] PRINT_EVENT_MESSAGE(message_id=7242*)
    → "You will also be authorized to collect a special currency called Temenos Units."
 79: 0x0222 [0x23] WAIT_FOR_DIALOG_INTERACTION
 80: 0x0223 [0x1D] PRINT_EVENT_MESSAGE(message_id=7243*)
    → "Systems are only capable of recording data for each registrant up to five times per week (Earth time)."
 81: 0x0226 [0x23] WAIT_FOR_DIALOG_INTERACTION
 82: 0x0227 [0x1D] PRINT_EVENT_MESSAGE(message_id=7244*)
    → "Temenos Units can be used in the Temenos Furnace."
 83: 0x022A [0x23] WAIT_FOR_DIALOG_INTERACTION
 84: 0x022B [0x1D] PRINT_EVENT_MESSAGE(message_id=7245*)
    → "Please use it to your advantage."
 85: 0x022E [0x23] WAIT_FOR_DIALOG_INTERACTION
 86: 0x022F [0x1D] PRINT_EVENT_MESSAGE(message_id=7246*)
    → "Special Limbus buffs known as Grace are also available to those who have deposited a sufficient amount of currency."
 87: 0x0232 [0x23] WAIT_FOR_DIALOG_INTERACTION
 88: 0x0233 [0x1D] PRINT_EVENT_MESSAGE(message_id=7247*)
    → "The more data, the stronger the Grace."
 89: 0x0236 [0x23] WAIT_FOR_DIALOG_INTERACTION
 90: 0x0237 [0x01] GOTO 0x00D6

SUBROUTINE_0272:
 91: 0x0272 [0x24] CREATE_DIALOG(message_id=7264*, default_option=ExtData[1]->WorkLocal[4], option_flags=0*)
    → "Inquire about which? [Agoge Armor./Hesychast's Attire./Piety Attire./Archmage's Attire./Vitiation Armor./Plunderer's Attire./Caballarius Armor./Fallen's Armor./Ankusa Armor./Bihu Attire./Arcadian Attire./Sakonji Armor./Mochizuki Armor./Telos Armor./Glyphic Attire./Luhlaza Attire./Lanuna Attire./Pitre Attire./Horos Attire./Pedagogy Attire./Bagua Attire./Futhark Attire./Nothing for now.]"
 92: 0x0279 [0x25] WAIT_DIALOG_SELECT()
 93: 0x027A [0x02] IF !(Work_Zone[0] == 0*) GOTO 0x033E
 94: 0x0282 [0x03] ExtData[1]->WorkLocal[4] = Work_Zone[0]
 95: 0x0287 [0x03] ExtData[1]->WorkLocal[5] = 0*
 96: 0x028C [0x40] SET_BIT_WORK_RANGE(start_bit=16*, end_bit=31*, target=Work_Zone[1], source=0*)
 97: 0x0295 [0x1A] CALL_SUBROUTINE(address=0x193E)
 98: 0x0298 [0x9D] IF (0x146D) 5* = ExtData[1]->WorkLocal[12] // extra=0x801F
 99: 0x02A2 [0x9D] IF (0x146D) 6* = ExtData[1]->WorkLocal[13] // extra=0x801F
100: 0x02AC [0x9D] IF (0x146D) 7* = ExtData[1]->WorkLocal[14] // extra=0x801F
101: 0x02B6 [0x9D] IF (0x146D) 8* = ExtData[1]->WorkLocal[15] // extra=0x801F
102: 0x02C0 [0x9D] IF (0x146D) 9* = ExtData[1]->WorkLocal[16] // extra=0x801F

SUBROUTINE_02CA:
103: 0x02CA [0x1A] CALL_SUBROUTINE(address=0x19B1)
104: 0x02CD [0xD4] MAP_QUERY_WINDOW: Test and open query window (flag=0x2C, work=[0x0580, 0x1500, 0x2580])
105: 0x02D6 [0x02] IF !(Work_Zone[0] == 5*) GOTO 0x02E4
106: 0x02DE [0x01] GOTO 0x0272

SUBROUTINE_038E:
107: 0x038E [0x1A] CALL_SUBROUTINE(address=0x19B1)
108: 0x0391 [0xD4] MAP_QUERY_WINDOW: Test and open query window (flag=0x2C, work=[0x0580, 0x1500, 0x2580])
109: 0x039A [0x02] IF !(Work_Zone[0] == 5*) GOTO 0x03A8
110: 0x03A2 [0x01] GOTO 0x0272

SUBROUTINE_0452:
111: 0x0452 [0x1A] CALL_SUBROUTINE(address=0x19B1)
112: 0x0455 [0xD4] MAP_QUERY_WINDOW: Test and open query window (flag=0x2C, work=[0x0580, 0x1500, 0x2580])
113: 0x045E [0x02] IF !(Work_Zone[0] == 5*) GOTO 0x046C
114: 0x0466 [0x01] GOTO 0x0272

SUBROUTINE_0516:
115: 0x0516 [0x1A] CALL_SUBROUTINE(address=0x19B1)
116: 0x0519 [0xD4] MAP_QUERY_WINDOW: Test and open query window (flag=0x2C, work=[0x0580, 0x1500, 0x2580])
117: 0x0522 [0x02] IF !(Work_Zone[0] == 5*) GOTO 0x0530
118: 0x052A [0x01] GOTO 0x0272

SUBROUTINE_05DA:
119: 0x05DA [0x1A] CALL_SUBROUTINE(address=0x19B1)
120: 0x05DD [0xD4] MAP_QUERY_WINDOW: Test and open query window (flag=0x2C, work=[0x0580, 0x1500, 0x2580])
121: 0x05E6 [0x02] IF !(Work_Zone[0] == 5*) GOTO 0x05F4
122: 0x05EE [0x01] GOTO 0x0272

SUBROUTINE_069E:
123: 0x069E [0x1A] CALL_SUBROUTINE(address=0x19B1)
124: 0x06A1 [0xD4] MAP_QUERY_WINDOW: Test and open query window (flag=0x2C, work=[0x0580, 0x1500, 0x2580])
125: 0x06AA [0x02] IF !(Work_Zone[0] == 5*) GOTO 0x06B8
126: 0x06B2 [0x01] GOTO 0x0272

SUBROUTINE_0762:
127: 0x0762 [0x1A] CALL_SUBROUTINE(address=0x19B1)
128: 0x0765 [0xD4] MAP_QUERY_WINDOW: Test and open query window (flag=0x2C, work=[0x0580, 0x1500, 0x2580])
129: 0x076E [0x02] IF !(Work_Zone[0] == 5*) GOTO 0x077C
130: 0x0776 [0x01] GOTO 0x0272

SUBROUTINE_0826:
131: 0x0826 [0x1A] CALL_SUBROUTINE(address=0x19B1)
132: 0x0829 [0xD4] MAP_QUERY_WINDOW: Test and open query window (flag=0x2C, work=[0x0580, 0x1500, 0x2580])
133: 0x0832 [0x02] IF !(Work_Zone[0] == 5*) GOTO 0x0840
134: 0x083A [0x01] GOTO 0x0272

SUBROUTINE_08EA:
135: 0x08EA [0x1A] CALL_SUBROUTINE(address=0x19B1)
136: 0x08ED [0xD4] MAP_QUERY_WINDOW: Test and open query window (flag=0x2C, work=[0x0580, 0x1500, 0x2580])
137: 0x08F6 [0x02] IF !(Work_Zone[0] == 5*) GOTO 0x0904
138: 0x08FE [0x01] GOTO 0x0272

SUBROUTINE_09AE:
139: 0x09AE [0x1A] CALL_SUBROUTINE(address=0x19B1)
140: 0x09B1 [0xD4] MAP_QUERY_WINDOW: Test and open query window (flag=0x2C, work=[0x0580, 0x1500, 0x2580])
141: 0x09BA [0x02] IF !(Work_Zone[0] == 5*) GOTO 0x09C8
142: 0x09C2 [0x01] GOTO 0x0272

SUBROUTINE_0A72:
143: 0x0A72 [0x1A] CALL_SUBROUTINE(address=0x19B1)
144: 0x0A75 [0xD4] MAP_QUERY_WINDOW: Test and open query window (flag=0x2C, work=[0x0580, 0x1500, 0x2580])
145: 0x0A7E [0x02] IF !(Work_Zone[0] == 5*) GOTO 0x0A8C
146: 0x0A86 [0x01] GOTO 0x0272

SUBROUTINE_0B36:
147: 0x0B36 [0x1A] CALL_SUBROUTINE(address=0x19B1)
148: 0x0B39 [0xD4] MAP_QUERY_WINDOW: Test and open query window (flag=0x2C, work=[0x0580, 0x1500, 0x2580])
149: 0x0B42 [0x02] IF !(Work_Zone[0] == 5*) GOTO 0x0B50
150: 0x0B4A [0x01] GOTO 0x0272

SUBROUTINE_0BFA:
151: 0x0BFA [0x1A] CALL_SUBROUTINE(address=0x19B1)
152: 0x0BFD [0xD4] MAP_QUERY_WINDOW: Test and open query window (flag=0x2C, work=[0x0580, 0x1500, 0x2580])
153: 0x0C06 [0x02] IF !(Work_Zone[0] == 5*) GOTO 0x0C14
154: 0x0C0E [0x01] GOTO 0x0272

SUBROUTINE_0CBE:
155: 0x0CBE [0x1A] CALL_SUBROUTINE(address=0x19B1)
156: 0x0CC1 [0xD4] MAP_QUERY_WINDOW: Test and open query window (flag=0x2C, work=[0x0580, 0x1500, 0x2580])
157: 0x0CCA [0x02] IF !(Work_Zone[0] == 5*) GOTO 0x0CD8
158: 0x0CD2 [0x01] GOTO 0x0272

SUBROUTINE_0D82:
159: 0x0D82 [0x1A] CALL_SUBROUTINE(address=0x19B1)
160: 0x0D85 [0xD4] MAP_QUERY_WINDOW: Test and open query window (flag=0x2C, work=[0x0580, 0x1500, 0x2580])
161: 0x0D8E [0x02] IF !(Work_Zone[0] == 5*) GOTO 0x0D9C
162: 0x0D96 [0x01] GOTO 0x0272

SUBROUTINE_0E46:
163: 0x0E46 [0x1A] CALL_SUBROUTINE(address=0x19B1)
164: 0x0E49 [0xD4] MAP_QUERY_WINDOW: Test and open query window (flag=0x2C, work=[0x0580, 0x1500, 0x2580])
165: 0x0E52 [0x02] IF !(Work_Zone[0] == 5*) GOTO 0x0E60
166: 0x0E5A [0x01] GOTO 0x0272

SUBROUTINE_0F0A:
167: 0x0F0A [0x1A] CALL_SUBROUTINE(address=0x19B1)
168: 0x0F0D [0xD4] MAP_QUERY_WINDOW: Test and open query window (flag=0x2C, work=[0x0580, 0x1500, 0x2580])
169: 0x0F16 [0x02] IF !(Work_Zone[0] == 5*) GOTO 0x0F24
170: 0x0F1E [0x01] GOTO 0x0272

SUBROUTINE_0FCE:
171: 0x0FCE [0x1A] CALL_SUBROUTINE(address=0x19B1)
172: 0x0FD1 [0xD4] MAP_QUERY_WINDOW: Test and open query window (flag=0x2C, work=[0x0580, 0x1500, 0x2580])
173: 0x0FDA [0x02] IF !(Work_Zone[0] == 5*) GOTO 0x0FE8
174: 0x0FE2 [0x01] GOTO 0x0272

SUBROUTINE_1092:
175: 0x1092 [0x1A] CALL_SUBROUTINE(address=0x19B1)
176: 0x1095 [0xD4] MAP_QUERY_WINDOW: Test and open query window (flag=0x2C, work=[0x0580, 0x1500, 0x2580])
177: 0x109E [0x02] IF !(Work_Zone[0] == 5*) GOTO 0x10AC
178: 0x10A6 [0x01] GOTO 0x0272

SUBROUTINE_1156:
179: 0x1156 [0x1A] CALL_SUBROUTINE(address=0x19B1)
180: 0x1159 [0xD4] MAP_QUERY_WINDOW: Test and open query window (flag=0x2C, work=[0x0580, 0x1500, 0x2580])
181: 0x1162 [0x02] IF !(Work_Zone[0] == 5*) GOTO 0x1170
182: 0x116A [0x01] GOTO 0x0272

SUBROUTINE_121A:
183: 0x121A [0x1A] CALL_SUBROUTINE(address=0x19B1)
184: 0x121D [0xD4] MAP_QUERY_WINDOW: Test and open query window (flag=0x2C, work=[0x0580, 0x1500, 0x2580])
185: 0x1226 [0x02] IF !(Work_Zone[0] == 5*) GOTO 0x1234
186: 0x122E [0x01] GOTO 0x0272

SUBROUTINE_12DE:
187: 0x12DE [0x1A] CALL_SUBROUTINE(address=0x19B1)
188: 0x12E1 [0xD4] MAP_QUERY_WINDOW: Test and open query window (flag=0x2C, work=[0x0580, 0x1500, 0x2580])
189: 0x12EA [0x02] IF !(Work_Zone[0] == 5*) GOTO 0x12F8
190: 0x12F2 [0x01] GOTO 0x0272

SUBROUTINE_1360:
191: 0x1360 [0x01] GOTO 0x00D6

SUBROUTINE_13A2:
192: 0x13A2 [0x02] IF !(Work_Zone[4] == 0*) GOTO 0x13AD
193: 0x13AA [0x01] GOTO 0x13B1
194: 0x13AD [0x1D] PRINT_EVENT_MESSAGE(message_id=7269*)
    → "$3 effects: BPALL+$3."
195: 0x13B0 [0x23] WAIT_FOR_DIALOG_INTERACTION

SUBROUTINE_13B1:
196: 0x13B1 [0x02] IF !(Work_Zone[6] == 0*) GOTO 0x13BC
197: 0x13B9 [0x01] GOTO 0x13C0
198: 0x13BC [0x1D] PRINT_EVENT_MESSAGE(message_id=7270*)
    → "$3 effects: Max. HP+$5 EXP Loss Reduction: $6% MEXP Loss Reduction: $6%"
199: 0x13BF [0x23] WAIT_FOR_DIALOG_INTERACTION

SUBROUTINE_13C0:
200: 0x13C0 [0x01] GOTO 0x00D6

SUBROUTINE_1449:
201: 0x1449 [0x2E] SET_CLI_EVENT_CANCEL_FLAGS()
202: 0x144A [0x20] SET_CLI_EVENT_UC_FLAG: Unlock player control
203: 0x144C [0x21] END_EVENT

SUBROUTINE_19B1:
204: 0x19B1 [0xD4] MAP_QUERY_WINDOW: Prepare buffer configuration B (buffer=[15 80 0C 00 11 00 12 00...])
205: 0x19CF [0x17] 0x1800 = cos(0x1900) * 0xD400
206: 0x19D6 [0x04] DEPRECATED_NOP(unused=0x8016)
207: 0x19D9 [0x0F] 0x1A00 ^= 0x1B00
208: 0x19DE [0x00] END_REQSTACK()
```

#### Data or dead code:

```
# Dead code (unreachable instructions):
     0x023A [0x01] GOTO 0x1449
     0x025E [0x01] GOTO 0x1449
# Dead code (unreachable instructions):
     0x02E1 [0x01] GOTO 0x033B
     0x033B [0x01] GOTO 0x1360
# Dead code (unreachable instructions):
     0x03A5 [0x01] GOTO 0x03FF
     0x03FF [0x01] GOTO 0x1360
# Dead code (unreachable instructions):
     0x0469 [0x01] GOTO 0x04C3
     0x04C3 [0x01] GOTO 0x1360
# Dead code (unreachable instructions):
     0x052D [0x01] GOTO 0x0587
     0x0587 [0x01] GOTO 0x1360
# Dead code (unreachable instructions):
     0x05F1 [0x01] GOTO 0x064B
     0x064B [0x01] GOTO 0x1360
# Dead code (unreachable instructions):
     0x06B5 [0x01] GOTO 0x070F
     0x070F [0x01] GOTO 0x1360
# Dead code (unreachable instructions):
     0x0779 [0x01] GOTO 0x07D3
     0x07D3 [0x01] GOTO 0x1360
# Dead code (unreachable instructions):
     0x083D [0x01] GOTO 0x0897
     0x0897 [0x01] GOTO 0x1360
# Dead code (unreachable instructions):
     0x0901 [0x01] GOTO 0x095B
     0x095B [0x01] GOTO 0x1360
# Dead code (unreachable instructions):
     0x09C5 [0x01] GOTO 0x0A1F
     0x0A1F [0x01] GOTO 0x1360
# Dead code (unreachable instructions):
     0x0A89 [0x01] GOTO 0x0AE3
     0x0AE3 [0x01] GOTO 0x1360
# Dead code (unreachable instructions):
     0x0B4D [0x01] GOTO 0x0BA7
     0x0BA7 [0x01] GOTO 0x1360
# Dead code (unreachable instructions):
     0x0C11 [0x01] GOTO 0x0C6B
     0x0C6B [0x01] GOTO 0x1360
# Dead code (unreachable instructions):
     0x0CD5 [0x01] GOTO 0x0D2F
     0x0D2F [0x01] GOTO 0x1360
# Dead code (unreachable instructions):
     0x0D99 [0x01] GOTO 0x0DF3
     0x0DF3 [0x01] GOTO 0x1360
# Dead code (unreachable instructions):
     0x0E5D [0x01] GOTO 0x0EB7
     0x0EB7 [0x01] GOTO 0x1360
# Dead code (unreachable instructions):
     0x0F21 [0x01] GOTO 0x0F7B
     0x0F7B [0x01] GOTO 0x1360
# Dead code (unreachable instructions):
     0x0FE5 [0x01] GOTO 0x103F
     0x103F [0x01] GOTO 0x1360
# Dead code (unreachable instructions):
     0x10A9 [0x01] GOTO 0x1103
     0x1103 [0x01] GOTO 0x1360
# Dead code (unreachable instructions):
     0x116D [0x01] GOTO 0x11C7
     0x11C7 [0x01] GOTO 0x1360
# Dead code (unreachable instructions):
     0x1231 [0x01] GOTO 0x128B
     0x128B [0x01] GOTO 0x1360
# Dead code (unreachable instructions):
     0x12F5 [0x01] GOTO 0x134F
     0x134F [0x01] GOTO 0x1360
     0x135D [0x01] GOTO 0x1360
# Dead code (unreachable instructions):
     0x1363 [0x01] GOTO 0x1449
     0x1376 [0x01] GOTO 0x1449
# Dead code (unreachable instructions):
     0x13C3 [0x01] GOTO 0x1449
     0x13EE [0x01] GOTO 0x1449
     0x1412 [0x01] GOTO 0x1449
     0x1436 [0x01] GOTO 0x1449
# Dead code (unreachable instructions):
     0x144D [0x02] IF !(0x0310 == 0x0410) GOTO 0x1005
     0x1455 [0x06] 0x1510 = 0
     0x1458 [0x80] LOAD_WAIT(entity=Unknown NPC (ID: 2148892693/0x80158015))
     0x145D [0x46] CAMERA_CONTROL: Unknown mode 0x80
     0x145F [0x47] WAIT_PLAYER_POS_UPDATE
     0x1461 [0x48] [System] [0x4980]:
     0x1464 [0x80] LOAD_WAIT(entity=Unknown NPC (ID: 2148892746/0x8015804A))
     0x1469 [0x15] 0x1580 /= 0x4B80
     0x146E [0x80] LOAD_WAIT(entity=Unknown NPC (ID: 2152562764/0x804D804C))
     0x1473 [0x4E] SET_ENTITY_HIDE_FLAG: Hide Unknown NPC (ID: 2152759375/0x8050804F)
     0x1479 [0x51] END_MAP_SCHEDULER: End scheduler 0x15801580 with entities [Unknown NPC (ID: 1400918656/0x53805280), Unknown NPC (ID: 360731776/0x15805480)]
     0x1486 [0x80] LOAD_WAIT(entity=Unknown NPC (ID: 2148892693/0x80158015))
     0x148B [0x15] 0x5580 /= 0x5680
     0x1490 [0x80] LOAD_WAIT(entity=Unknown NPC (ID: 2153283671/0x80588057))
     0x1495 [0x59] UPDATE_ENTITY_DATA: Unknown mode 128
     0x1499 [0x5B] LOAD_EXT_SCHEDULER: Load scheduler 0x15801580 with entities [Unknown NPC (ID: 1585470848/0x5E805D80), Unknown NPC (ID: 360715648/0x15801580)], work=0x5C80
     0x14A8 [0x80] LOAD_WAIT(entity=Unknown NPC (ID: 2148892693/0x80158015))
     0x14AD [0x5F] MULTI_HANDLER_COMPLEX(mode=0x80 - Unknown)
     0x14AF [0x60] ADJUST_RENDER_FLAGS1_MULTI: Deprecated mode 0x80 (no operation)
     0x14B1 [0x61] EventEntity->Render.Flags2 &= ~0x00000001
     0x14B3 [0x62] LOAD_EVENT_SCHEDULER: Load scheduler 0x15806880 with entities [Unknown NPC (ID: 1702913152/0x65806480), Unknown NPC (ID: 1736468096/0x67806680)], work=[0x6380, 0x1580]
     0x14C4 [0x80] LOAD_WAIT(entity=Unknown NPC (ID: 2148892693/0x80158015))
     0x14C9 [0x15] 0x1580 /= 0x6980
     0x14CE [0x80] LOAD_WAIT(entity=Unknown NPC (ID: 2154528874/0x806B806A))
     0x14D3 [0x6C] FADE_ENTITY_COLOR(entity_id=Unknown NPC (ID: 1853910400/0x6E806D80), end_alpha=0x6F80, fade_time=0x7080)
     0x14DC [0x80] LOAD_WAIT(entity=Unknown NPC (ID: 2154987633/0x80728071))
     0x14E1 [0x15] 0x1580 /= 0x1580
     0x14E6 [0x80] LOAD_WAIT(entity=Unknown NPC (ID: 2148892693/0x80158015))
     0x14EB [0x15] 0x7380 /= 0x7480
     0x14F0 [0x80] LOAD_WAIT(entity=Unknown NPC (ID: 2155249781/0x80768075))
     0x14F5 [0x77] SET_EVENT_TIME_WEATHER(hour=0x7880, weather=0x7980)
     0x14FA [0x80] LOAD_WAIT(entity=Unknown NPC (ID: 2155577466/0x807B807A))
     0x14FF [0x7C] Unknown NPC (ID: 2148892693/0x80158015)->Render.Flags2 ^= 0x00
     0x1505 [0x15] 0x1580 /= 0x1580
     0x150A [0x80] LOAD_WAIT(entity=Unknown NPC (ID: 2155708437/0x807D8015))
     0x150F [0x7E] CHOCOBO_MOUNT: Unknown mode 128
     0x1515 [0x81] SET_ENTITY_BLINKING(blink_flag=0x80, entity=Unknown NPC (ID: 2156101762/0x80838082))
     0x151B [0x84] ADJUST_RENDER_FLAGS3_BIT0()
     0x151C [0x80] LOAD_WAIT(entity=Unknown NPC (ID: 2156298373/0x80868085))
     0x1521 [0x15] 0x1580 /= 0x1580
     0x1526 [0x80] LOAD_WAIT(entity=Unknown NPC (ID: 2148892693/0x80158015))
     0x152B [0x15] References[1920] /= References[2176]
     0x1530 [0x80] LOAD_WAIT(entity=Unknown NPC (ID: 2156560521/0x808A8089))
     0x1535 [0x8B] SET_EVENT_MARK: Add/update map marker on map References[3200] at (References[3712], References[3968]), index=References[3456], name=(no name)
     0x153E [0x80] LOAD_WAIT(entity=Unknown NPC (ID: 2148892816/0x80158090))
     0x1543 [0x15] 0x1580 /= 0x1580
     0x1548 [0x80] LOAD_WAIT(entity=Unknown NPC (ID: 2148892693/0x80158015))
     0x154D [0x91] ExtData[1]->MainSpeedBase = 0x9280 * 10.0
     0x1550 [0x80] LOAD_WAIT(entity=Unknown NPC (ID: 2157215891/0x80948093))
     0x1555 [0x95] SETUP_EVENT_NPC: Prepare NPC for event (Render.Flags3 = 0x9680)
     0x1558 [0x80] LOAD_WAIT(entity=Unknown NPC (ID: 2157478039/0x80988097))
     0x155D [0x99] Wait for Unknown NPC (ID: 360749696/0x15809A80) animation to complete
     0x1562 [0x80] LOAD_WAIT(entity=Unknown NPC (ID: 2148892693/0x80158015))
     0x1567 [0x15] 0x1580 /= 0x1580
     0x156C [0x80] LOAD_WAIT(entity=Unknown NPC (ID: 2157740187/0x809C809B))
     0x1571 [0x9D] OPCODE_9D[0x80]: Unknown
     0x1573 [0x9E] SET_RECT_EVENT_SEND_FLAG: Notify client of area movement
     0x1575 [0x9F] LOAD_SCHEDULED_TASK_ALT: Load scheduler 0x15801580 with entities [Unknown NPC (ID: 2726338944/0xA280A180), Unknown NPC (ID: 2759893888/0xA480A380)], work=[0xA080, 0x1580]
     0x1586 [0x80] LOAD_WAIT(entity=Unknown NPC (ID: 2148892693/0x80158015))
     0x158B [0x15] 0xA580 /= 0xA680
     0x1590 [0x80] LOAD_WAIT(entity=Unknown NPC (ID: 2158526631/0x80A880A7))
     0x1595 [0xA9] DISABLE_GAME_TIME_SET_SPECIFIC(time_offset=0xAA80)
     0x1598 [0x80] LOAD_WAIT(entity=Unknown NPC (ID: 2158788779/0x80AC80AB))
     0x159D [0xAD] DUAL_ENTITY_SCHEDULER_HANDLER: Execute sub-case 0 with entities [Unknown NPC (ID: 2148892693/0x80158015), Unknown NPC (ID: 2148892693/0x80158015)], work=24107*
     0x15A9 [0x15] 0x1580 /= 0xAF80
     0x15AE [0x80] LOAD_WAIT(entity=Unknown NPC (ID: 2159116464/0x80B180B0))
     0x15B3 [0xB2] DELIVERY_BOX_HANDLER(mode=0x80)
     0x15B5 [0xB3] RANKINGS_BOARD_HANDLER(case_type=0x80)
     0x15B7 [0xB4] UI_WINDOW_STRING_HANDLER(case=0x80 - Unknown case 0x80)
     0x15B9 [0xB5] SET_EVENT_ENTITY_NAME: Change EventEntity name to "]"*
     0x15BD [0xB7] ENTITY_DATA_HANDLER: Unknown case 0x80 for Unknown NPC (ID: 2148892856/0x801580B8)
     0x15C5 [0x15] 0x1580 /= 0x1580
     0x15CA [0x80] LOAD_WAIT(entity=Unknown NPC (ID: 2159640597/0x80B98015))
     0x15CF [0xBA] SET_ENTITY_POSITION(entity_id=Unknown NPC (ID: 3162553216/0xBC80BB80), pos_x=0xBD80, pos_z=0xBE80, pos_y=0xBF80, direction=0xC080)
     0x15DC [0x80] LOAD_WAIT(entity=Unknown NPC (ID: 2160230593/0x80C280C1))
     0x15E1 [0x15] 0x1580 /= 0x1580
     0x15E6 [0x80] LOAD_WAIT(entity=Unknown NPC (ID: 2148892693/0x80158015))
     0x15EB [0x15] 0xC380 /= 0xC480
     0x15F0 [0x80] LOAD_WAIT(entity=Unknown NPC (ID: 2160492741/0x80C680C5))
     0x15F5 [0xC7] END_LOAD_SCHEDULER_ALT3: End scheduler 0x15801580 with entities [Unknown NPC (ID: 3397437824/0xCA80C980), Unknown NPC (ID: 3430992768/0xCC80CB80)], work=0xC880
     0x1604 [0x80] LOAD_WAIT(entity=Unknown NPC (ID: 2148892693/0x80158015))
     0x1609 [0x15] 0x1580 /= 0xCD80
     0x160E [0x80] LOAD_WAIT(entity=Unknown NPC (ID: 2161082574/0x80CF80CE))
     0x1613 [0xD0] LOAD_SCHEDULED_TASK_ALT5: Load scheduler 0x1580D680 with entities [Unknown NPC (ID: 3548435072/0xD380D280), Unknown NPC (ID: 3581990016/0xD580D480)], work=[0xD180, 0x1580]
     0x1624 [0x80] LOAD_WAIT(entity=Unknown NPC (ID: 2148892693/0x80158015))
     0x1629 [0x15] 0x1580 /= 0xD780
     0x162E [0x80] LOAD_WAIT(entity=Unknown NPC (ID: 2161737944/0x80D980D8))
     0x1633 [0xDA] UNKNOWN_0xDA
     0x1634 [0x80] LOAD_WAIT(entity=Unknown NPC (ID: 2161934555/0x80DC80DB))
     0x1639 [0xDD] UNKNOWN_0xDD
     0x163A [0x80] LOAD_WAIT(entity=Unknown NPC (ID: 2162131166/0x80DF80DE))
     0x163F [0xE0] UNKNOWN_0xE0
     0x1640 [0x80] LOAD_WAIT(entity=Unknown NPC (ID: 2148892693/0x80158015))
     0x1645 [0x15] 0x1580 /= 0x1580
     0x164A [0x80] LOAD_WAIT(entity=Unknown NPC (ID: 2162262037/0x80E18015))
     0x164F [0xE2] UNKNOWN_0xE2
     0x1650 [0x80] LOAD_WAIT(entity=Unknown NPC (ID: 2162458851/0x80E480E3))
     0x1655 [0xE5] UNKNOWN_0xE5
     0x1656 [0x80] LOAD_WAIT(entity=Unknown NPC (ID: 2162655462/0x80E780E6))
     0x165B [0xE8] UNKNOWN_0xE8
     0x165C [0x80] LOAD_WAIT(entity=Unknown NPC (ID: 2162852073/0x80EA80E9))
     0x1661 [0x15] 0x1580 /= 0x1580
     0x1666 [0x80] LOAD_WAIT(entity=Unknown NPC (ID: 2148892693/0x80158015))
     0x166B [0x15] 0xEB80 /= 0xEC80
     0x1670 [0x80] LOAD_WAIT(entity=Unknown NPC (ID: 2163114221/0x80EE80ED))
     0x1675 [0xEF] UNKNOWN_0xEF
     0x1676 [0x80] LOAD_WAIT(entity=Unknown NPC (ID: 2163310832/0x80F180F0))
     0x167B [0xF2] UNKNOWN_0xF2
     0x167C [0x80] LOAD_WAIT(entity=Unknown NPC (ID: 2163507443/0x80F480F3))
     0x1681 [0x15] 0x1580 /= 0x1580
     0x1686 [0x80] LOAD_WAIT(entity=Unknown NPC (ID: 2148892693/0x80158015))
     0x168B [0x15] 0xF580 /= 0xF680
     0x1690 [0x80] LOAD_WAIT(entity=Unknown NPC (ID: 2163769591/0x80F880F7))
     0x1695 [0xF9] UNKNOWN_0xF9
     0x1696 [0x80] LOAD_WAIT(entity=Unknown NPC (ID: 2163966202/0x80FB80FA))
     0x169B [0xFC] UNKNOWN_0xFC
     0x169C [0x80] LOAD_WAIT(entity=Unknown NPC (ID: 2164162813/0x80FE80FD))
     0x16A1 [0x15] 0x1580 /= 0x1580
     0x16A6 [0x80] LOAD_WAIT(entity=Unknown NPC (ID: 2148892693/0x80158015))
     0x16AB [0x15] 0xFF80 /= 0x80
     0x16B0 [0x81] SET_ENTITY_BLINKING(blink_flag=0x01, entity=Unknown NPC (ID: 58786433/0x03810281))
     0x16B6 [0x81] SET_ENTITY_BLINKING(blink_flag=0x04, entity=Unknown NPC (ID: 109118849/0x06810581))
     0x16BC [0x81] SET_ENTITY_BLINKING(blink_flag=0x07, entity=Unknown NPC (ID: 360777857/0x15810881))
     0x16C2 [0x80] LOAD_WAIT(entity=Unknown NPC (ID: 2148892693/0x80158015))
     0x16C7 [0x15] 0x1580 /= 0x1580
     0x16CC [0x80] LOAD_WAIT(entity=Unknown NPC (ID: 2164949257/0x810A8109))
     0x16D1 [0x0B] 0x0C81++
     0x16D4 [0x81] SET_ENTITY_BLINKING(blink_flag=0x0D, entity=Unknown NPC (ID: 260116097/0x0F810E81))
     0x16DA [0x81] SET_ENTITY_BLINKING(blink_flag=0x10, entity=Unknown NPC (ID: 310448513/0x12811181))
     0x16E0 [0x81] SET_ENTITY_BLINKING(blink_flag=0x15, entity=Unknown NPC (ID: 360715648/0x15801580))
     0x16E6 [0x80] LOAD_WAIT(entity=Unknown NPC (ID: 2148892693/0x80158015))
     0x16EB [0x15] 0x1380 /= 0x1481
     0x16F0 [0x81] SET_ENTITY_BLINKING(blink_flag=0x15, entity=Unknown NPC (ID: 394335873/0x17811681))
     0x16F6 [0x81] SET_ENTITY_BLINKING(blink_flag=0x18, entity=Unknown NPC (ID: 444668289/0x1A811981))
     0x16FC [0x81] SET_ENTITY_BLINKING(blink_flag=0x1B, entity=Unknown NPC (ID: 360782977/0x15811C81))
     0x1702 [0x80] LOAD_WAIT(entity=Unknown NPC (ID: 2148892693/0x80158015))
     0x1707 [0x15] 0x1580 /= 0x1580
     0x170C [0x80] LOAD_WAIT(entity=Unknown NPC (ID: 2166259997/0x811E811D))
     0x1711 [0x1F] MOVE_ENTITY: Update entity position (mode=129)
     0x1713 [0x20] SET_CLI_EVENT_UC_FLAG: Unknown flag value 0x81
     0x1715 [0x21] END_EVENT
     0x1716 [0x81] SET_ENTITY_BLINKING(blink_flag=0x22, entity=Unknown NPC (ID: 612443009/0x24812381))
     0x171C [0x81] SET_ENTITY_BLINKING(blink_flag=0x25, entity=Unknown NPC (ID: 360785537/0x15812681))
     0x1722 [0x80] LOAD_WAIT(entity=Unknown NPC (ID: 2148892693/0x80158015))
     0x1727 [0x15] 0x1580 /= 0x1580
     0x172C [0x80] LOAD_WAIT(entity=Unknown NPC (ID: 2166915367/0x81288127))
     0x1731 [0x29] REQ_SET_WAIT(priority=0x81, entity_id=Unknown NPC (ID: 2167111978/0x812B812A), tag_num=0x2C)
     0x1738 [0x81] SET_ENTITY_BLINKING(blink_flag=0x2D, entity=Unknown NPC (ID: 796995201/0x2F812E81))
     0x173E [0x81] SET_ENTITY_BLINKING(blink_flag=0x30, entity=Unknown NPC (ID: 847327617/0x32813181))
     0x1744 [0x81] SET_ENTITY_BLINKING(blink_flag=0x33, entity=Unknown NPC (ID: 897660033/0x35813481))
     0x174A [0x81] SET_ENTITY_BLINKING(blink_flag=0x36, entity=Unknown NPC (ID: 947992449/0x38813781))
     0x1750 [0x81] SET_ENTITY_BLINKING(blink_flag=0x39, entity=Unknown NPC (ID: 998324865/0x3B813A81))
     0x1756 [0x81] SET_ENTITY_BLINKING(blink_flag=0x3C, entity=Unknown NPC (ID: 360715649/0x15801581))
     0x175C [0x80] LOAD_WAIT(entity=Unknown NPC (ID: 2168357181/0x813E813D))
     0x1761 [0x3F] 0x4081 = 0x4181 % 0x4281
     0x1768 [0x81] SET_ENTITY_BLINKING(blink_flag=0x43, entity=Unknown NPC (ID: 1166099585/0x45814481))
     0x176E [0x81] SET_ENTITY_BLINKING(blink_flag=0x46, entity=Unknown NPC (ID: 1216432001/0x48814781))
     0x1774 [0x81] SET_ENTITY_BLINKING(blink_flag=0x49, entity=Unknown NPC (ID: 1266764417/0x4B814A81))
     0x177A [0x81] SET_ENTITY_BLINKING(blink_flag=0x4C, entity=Unknown NPC (ID: 1317096833/0x4E814D81))
     0x1780 [0x81] SET_ENTITY_BLINKING(blink_flag=0x4F, entity=Unknown NPC (ID: 1367429249/0x51815081))
     0x1786 [0x81] SET_ENTITY_BLINKING(blink_flag=0x52, entity=Unknown NPC (ID: 360715649/0x15801581))
     0x178C [0x80] LOAD_WAIT(entity=Unknown NPC (ID: 2169798995/0x81548153))
     0x1791 [0x55] WAIT_LOAD_SCHEDULER: Wait for scheduler 0x5C815B81 with entities [Unknown NPC (ID: 1484871553/0x58815781), Unknown NPC (ID: 1518426497/0x5A815981)], work=0x5681
     0x17A0 [0x81] SET_ENTITY_BLINKING(blink_flag=0x5D, entity=Unknown NPC (ID: 1602313857/0x5F815E81))
     0x17A6 [0x81] SET_ENTITY_BLINKING(blink_flag=0x60, entity=Unknown NPC (ID: 1652646273/0x62816181))
     0x17AC [0x81] SET_ENTITY_BLINKING(blink_flag=0x63, entity=Unknown NPC (ID: 1702978689/0x65816481))
     0x17B2 [0x81] SET_ENTITY_BLINKING(blink_flag=0x66, entity=Unknown NPC (ID: 1753311105/0x68816781))
     0x17B8 [0x81] SET_ENTITY_BLINKING(blink_flag=0x15, entity=Unknown NPC (ID: 1770001792/0x69801580))
     0x17BE [0x81] SET_ENTITY_BLINKING(blink_flag=0x6A, entity=Unknown NPC (ID: 1820420993/0x6C816B81))
     0x17C4 [0x81] SET_ENTITY_BLINKING(blink_flag=0x6D, entity=Unknown NPC (ID: 1870753409/0x6F816E81))
     0x17CA [0x81] SET_ENTITY_BLINKING(blink_flag=0x70, entity=Unknown NPC (ID: 1921085825/0x72817181))
     0x17D0 [0x81] SET_ENTITY_BLINKING(blink_flag=0x73, entity=Unknown NPC (ID: 1971418241/0x75817481))
     0x17D6 [0x81] SET_ENTITY_BLINKING(blink_flag=0x76, entity=Unknown NPC (ID: 2021750657/0x78817781))
     0x17DC [0x81] SET_ENTITY_BLINKING(blink_flag=0x79, entity=Unknown NPC (ID: 2072083073/0x7B817A81))
     0x17E2 [0x81] SET_ENTITY_BLINKING(blink_flag=0x7C, entity=Unknown NPC (ID: 2122415489/0x7E817D81))
     0x17E8 [0x81] SET_ENTITY_BLINKING(blink_flag=0x15, entity=Unknown NPC (ID: 2139100544/0x7F801580))
     0x17EE [0x81] SET_ENTITY_BLINKING(blink_flag=0x80, entity=Unknown NPC (ID: 2189525377/0x82818181))
     0x17F4 [0x81] SET_ENTITY_BLINKING(blink_flag=0x83, entity=Unknown NPC (ID: 2239857793/0x85818481))
     0x17FA [0x81] SET_ENTITY_BLINKING(blink_flag=0x86, entity=Unknown NPC (ID: 2290190209/0x88818781))
     0x1800 [0x81] SET_ENTITY_BLINKING(blink_flag=0x89, entity=Unknown NPC (ID: 2340522625/0x8B818A81))
     0x1806 [0x81] SET_ENTITY_BLINKING(blink_flag=0x8C, entity=Unknown NPC (ID: 2390855041/0x8E818D81))
     0x180C [0x81] SET_ENTITY_BLINKING(blink_flag=0x8F, entity=Unknown NPC (ID: 2441187457/0x91819081))
     0x1812 [0x81] SET_ENTITY_BLINKING(blink_flag=0x92, entity=Unknown NPC (ID: 2491519873/0x94819381))
     0x1818 [0x81] SET_ENTITY_BLINKING(blink_flag=0x15, entity=Unknown NPC (ID: 2508199296/0x95801580))
     0x181E [0x81] SET_ENTITY_BLINKING(blink_flag=0x96, entity=Unknown NPC (ID: 2558629761/0x98819781))
     0x1824 [0x81] SET_ENTITY_BLINKING(blink_flag=0x99, entity=Unknown NPC (ID: 2608962177/0x9B819A81))
     0x182A [0x81] SET_ENTITY_BLINKING(blink_flag=0x9C, entity=Unknown NPC (ID: 2659294593/0x9E819D81))
     0x1830 [0x81] SET_ENTITY_BLINKING(blink_flag=0x9F, entity=Unknown NPC (ID: 2709627009/0xA181A081))
     0x1836 [0x81] SET_ENTITY_BLINKING(blink_flag=0xA2, entity=Unknown NPC (ID: 2759959425/0xA481A381))
     0x183C [0x81] SET_ENTITY_BLINKING(blink_flag=0xA5, entity=Unknown NPC (ID: 2810291841/0xA781A681))
     0x1842 [0x81] SET_ENTITY_BLINKING(blink_flag=0xA8, entity=Unknown NPC (ID: 2860624257/0xAA81A981))
     0x1848 [0x81] SET_ENTITY_BLINKING(blink_flag=0x15, entity=Unknown NPC (ID: 2877298048/0xAB801580))
     0x184E [0x81] SET_ENTITY_BLINKING(blink_flag=0xAC, entity=Unknown NPC (ID: 2927734145/0xAE81AD81))
     0x1854 [0x81] SET_ENTITY_BLINKING(blink_flag=0xAF, entity=Unknown NPC (ID: 2978066561/0xB181B081))
     0x185A [0x81] SET_ENTITY_BLINKING(blink_flag=0xB2, entity=Unknown NPC (ID: 3028398977/0xB481B381))
     0x1860 [0x81] SET_ENTITY_BLINKING(blink_flag=0xB5, entity=Unknown NPC (ID: 3078731393/0xB781B681))
     0x1866 [0x81] SET_ENTITY_BLINKING(blink_flag=0xB8, entity=Unknown NPC (ID: 3129063809/0xBA81B981))
     0x186C [0x81] SET_ENTITY_BLINKING(blink_flag=0xBB, entity=Unknown NPC (ID: 3179396225/0xBD81BC81))
     0x1872 [0x81] SET_ENTITY_BLINKING(blink_flag=0xBE, entity=Unknown NPC (ID: 3229728641/0xC081BF81))
     0x1878 [0x81] SET_ENTITY_BLINKING(blink_flag=0x15, entity=Unknown NPC (ID: 3246396800/0xC1801580))
     0x187E [0x81] SET_ENTITY_BLINKING(blink_flag=0xC2, entity=Unknown NPC (ID: 3296838529/0xC481C381))
     0x1884 [0x81] SET_ENTITY_BLINKING(blink_flag=0xC5, entity=Unknown NPC (ID: 3347170945/0xC781C681))
     0x188A [0x81] SET_ENTITY_BLINKING(blink_flag=0xC8, entity=Unknown NPC (ID: 3397503361/0xCA81C981))
     0x1890 [0x81] SET_ENTITY_BLINKING(blink_flag=0xCB, entity=Unknown NPC (ID: 3447835777/0xCD81CC81))
     0x1896 [0x81] SET_ENTITY_BLINKING(blink_flag=0xCE, entity=Unknown NPC (ID: 3498168193/0xD081CF81))
     0x189C [0x81] SET_ENTITY_BLINKING(blink_flag=0xD1, entity=Unknown NPC (ID: 3548500609/0xD381D281))
     0x18A2 [0x81] SET_ENTITY_BLINKING(blink_flag=0xD4, entity=Unknown NPC (ID: 3598833025/0xD681D581))
     0x18A8 [0x81] SET_ENTITY_BLINKING(blink_flag=0x15, entity=Unknown NPC (ID: 3615495552/0xD7801580))
     0x18AE [0x81] SET_ENTITY_BLINKING(blink_flag=0xD8, entity=Unknown NPC (ID: 3665942913/0xDA81D981))
     0x18B4 [0x81] SET_ENTITY_BLINKING(blink_flag=0xDB, entity=Unknown NPC (ID: 3716275329/0xDD81DC81))
     0x18BA [0x81] SET_ENTITY_BLINKING(blink_flag=0xDE, entity=Unknown NPC (ID: 3766607745/0xE081DF81))
     0x18C0 [0x81] SET_ENTITY_BLINKING(blink_flag=0xE1, entity=Unknown NPC (ID: 3816940161/0xE381E281))
     0x18C6 [0x81] SET_ENTITY_BLINKING(blink_flag=0xE4, entity=Unknown NPC (ID: 3867272577/0xE681E581))
     0x18CC [0x81] SET_ENTITY_BLINKING(blink_flag=0xE7, entity=Unknown NPC (ID: 3917604993/0xE981E881))
     0x18D2 [0x81] SET_ENTITY_BLINKING(blink_flag=0xEA, entity=Unknown NPC (ID: 3967937409/0xEC81EB81))
     0x18D8 [0x81] SET_ENTITY_BLINKING(blink_flag=0x15, entity=Unknown NPC (ID: 3984594304/0xED801580))
     0x18DE [0x81] SET_ENTITY_BLINKING(blink_flag=0xEE, entity=Unknown NPC (ID: 4035047297/0xF081EF81))
     0x18E4 [0x81] SET_ENTITY_BLINKING(blink_flag=0xF1, entity=Unknown NPC (ID: 4085379713/0xF381F281))
     0x18EA [0x81] SET_ENTITY_BLINKING(blink_flag=0xF4, entity=Unknown NPC (ID: 4135712129/0xF681F581))
     0x18F0 [0x81] SET_ENTITY_BLINKING(blink_flag=0xF7, entity=Unknown NPC (ID: 4186044545/0xF981F881))
     0x18F6 [0x81] SET_ENTITY_BLINKING(blink_flag=0xFA, entity=Unknown NPC (ID: 4236376961/0xFC81FB81))
     0x18FC [0x81] SET_ENTITY_BLINKING(blink_flag=0xFD, entity=Unknown NPC (ID: 4286709377/0xFF81FE81))
     0x1902 [0x81] SET_ENTITY_BLINKING(blink_flag=0x00, entity=Unknown NPC (ID: 42074498/0x02820182))
     0x1908 [0x82] RECT_HIT_TEST_BRANCH: If EventEntity is NOT in rectangle 0x80158015, GOTO 0x1100
     0x190F [0x00] END_REQSTACK()
     0x1910 [0x14] Work_Zone_1700[0] *= 0x1A00
     0x1915 [0x00] END_REQSTACK()
     0x1916 [0x1D] PRINT_EVENT_MESSAGE(message_id=0x1500)
     0x1919 [0x80] LOAD_WAIT(entity=Unknown NPC (ID: 2148892693/0x80158015))
     0x191E [0x12] 0x1500 = rand()
     0x1921 [0x00] END_REQSTACK()
     0x1922 [0x18] 0x1B00 = atan2(0x1E00, 0x1500)
     0x1929 [0x80] LOAD_WAIT(entity=Unknown NPC (ID: 2148892693/0x80158015))
     0x192E [0x13] 0x1600 = rand() % 0x1900
     0x1933 [0x00] END_REQSTACK()
     0x1934 [0x1C] WAIT(0x1F00 ticks)
     0x1937 [0x00] END_REQSTACK()
     0x1938 [0x15] 0x1580 /= 0x1580
     0x193D [0x80] LOAD_WAIT(entity=Unknown NPC (ID: 478156096/0x1C801540))
# Dead code (unreachable instructions):
     0x19DF [0x1C] WAIT(0xD400 ticks)
     0x19E2 [0x04] DEPRECATED_NOP(unused=0x802E)
     0x19E5 [0x10] 0x1D00 <<= 0x1E00
     0x19EA [0x00] END_REQSTACK()
     0x19EB [0x1F] MOVE_ENTITY: EventEntity moves to X=0x0203, Z=0x0C10, Y=0x0300
     0x19F3 [0x03] 0x0D10 = 0x0300
     0x19F8 [0x04] DEPRECATED_NOP(unused=0x0E10)
     0x19FB [0x00] END_REQSTACK()
     0x19FC [0x03] Work_Zone[5] = ExtData[1]->WorkLocal[15]
     0x1A01 [0x03] Work_Zone[6] = ExtData[1]->WorkLocal[16]
     0x1A06 [0x1B] RETURN
```
