# 17900032

## Common Data

| Field            | Value                     |
|------------------|---------------------------|
| Zone             | Outer Ra'Kaznar (ID: 274) |
| Block Size       | 208 bytes                 |
| Total Events     | 8                         |
| References Count | 12                        |

## List of Events

| Event ID                 | Entrypoint   |   Size |   Instructions |
|--------------------------|--------------|--------|----------------|
| [65535](#event-65535)    | 0x0000       |      1 |              1 |
| [65535.1](#event-655351) | 0x0001       |      9 |              3 |
| [65535.2](#event-655352) | 0x000A       |      5 |              2 |
| [26](#event-26)          | 0x000F       |      1 |              1 |
| [27](#event-27)          | 0x0010       |      1 |              1 |
| [54](#event-54)          | 0x0011       |     21 |              2 |
| [65535.3](#event-655353) | 0x0026       |     41 |              5 |
| [65535.4](#event-655354) | 0x004F       |     33 |              3 |

## DAT References (imed_data)

|   Index | Hex Value   |   Dec Value |
|---------|-------------|-------------|
|       0 | 0x077C      |        1916 |
|       1 | 0x0028      |          40 |
|       2 | 0x0916      |        2326 |
|       3 | 0x0006      |           6 |
|       4 | 0x0004      |           4 |
|       5 | 0x0000      |           0 |
|       6 | 0x008B      |         139 |
|       7 | 0x0002      |           2 |
|       8 | 0x00BF      |         191 |
|       9 | 0x010E      |         270 |
|      10 | 0x0096      |         150 |
|      11 | 0x00AC      |         172 |

## Events

### Event 65535

#### Metadata

| Field        | Value   |
|--------------|---------|
| Entrypoint   | 0x0000  |
| Data Size    | 1 bytes |
| Instructions | 1       |

```
      00 01 02 03 04 05 06 07  08 09 0A 0B 0C 0D 0E 0F
      -- -- -- -- -- -- -- --  -- -- -- -- -- -- -- --
0000: 00                                                .               
```

#### Opcodes

```
  0: 0x0000 [0x00] END_REQSTACK()
```

### Event 65535.1

#### Metadata

| Field        | Value   |
|--------------|---------|
| Entrypoint   | 0x0001  |
| Data Size    | 9 bytes |
| Instructions | 3       |

```
      00 01 02 03 04 05 06 07  08 09 0A 0B 0C 0D 0E 0F
      -- -- -- -- -- -- -- --  -- -- -- -- -- -- -- --
0000:    B6 00 00 80 B6 0F 01  80 00                     .........      
```

#### Opcodes

```
  0: 0x0001 [0xB6] ENTITY_APPEARANCE_HANDLER(case=Hair style, value=1916*)
  1: 0x0005 [0xB6] ENTITY_APPEARANCE_HANDLER(case=Model size, value=40*)
  2: 0x0009 [0x00] END_REQSTACK()
```

### Event 65535.2

#### Metadata

| Field        | Value   |
|--------------|---------|
| Entrypoint   | 0x000A  |
| Data Size    | 5 bytes |
| Instructions | 2       |

```
      00 01 02 03 04 05 06 07  08 09 0A 0B 0C 0D 0E 0F
      -- -- -- -- -- -- -- --  -- -- -- -- -- -- -- --
0000:                                B6 00 02 80 00               ..... 
```

#### Opcodes

```
  0: 0x000A [0xB6] ENTITY_APPEARANCE_HANDLER(case=Hair style, value=2326*)
  1: 0x000E [0x00] END_REQSTACK()
```

### Event 26

#### Metadata

| Field        | Value   |
|--------------|---------|
| Entrypoint   | 0x000F  |
| Data Size    | 1 bytes |
| Instructions | 1       |

```
      00 01 02 03 04 05 06 07  08 09 0A 0B 0C 0D 0E 0F
      -- -- -- -- -- -- -- --  -- -- -- -- -- -- -- --
0000:                                               00                 .
```

#### Opcodes

```
  0: 0x000F [0x00] END_REQSTACK()
```

### Event 27

#### Metadata

| Field        | Value   |
|--------------|---------|
| Entrypoint   | 0x0010  |
| Data Size    | 1 bytes |
| Instructions | 1       |

```
      00 01 02 03 04 05 06 07  08 09 0A 0B 0C 0D 0E 0F
      -- -- -- -- -- -- -- --  -- -- -- -- -- -- -- --
0010: 00                                                .               
```

#### Opcodes

```
  0: 0x0010 [0x00] END_REQSTACK()
```

### Event 54

#### Metadata

| Field        | Value    |
|--------------|----------|
| Entrypoint   | 0x0011   |
| Data Size    | 21 bytes |
| Instructions | 2        |

```
      00 01 02 03 04 05 06 07  08 09 0A 0B 0C 0D 0E 0F
      -- -- -- -- -- -- -- --  -- -- -- -- -- -- -- --
0010:    B6 0B 03 80 04 80 05  80 06 80 05 80 07 80 07   ...............
0020: 80 05 80 05 80 00                                 ......          
```

#### Opcodes

```
  0: 0x0011 [0xB6] ENTITY_APPEARANCE_HANDLER(case=Full entity look, race=6*, hair=4*, head=0*, body=139*, hands=0*, legs=2*, feet=2*, main=0*, sub=0*)
  1: 0x0025 [0x00] END_REQSTACK()
```

### Event 65535.3

#### Metadata

| Field        | Value    |
|--------------|----------|
| Entrypoint   | 0x0026   |
| Data Size    | 41 bytes |
| Instructions | 5        |

```
      00 01 02 03 04 05 06 07  08 09 0A 0B 0C 0D 0E 0F
      -- -- -- -- -- -- -- --  -- -- -- -- -- -- -- --
0020:                   9F 08  80 F8 FF FF 7F F8 FF FF        ..........
0030: 7F 66 72 73 74 05 80 1C  09 80 9F 08 80 F8 FF FF  .frst...........
0040: 7F F8 FF FF 7F 6E 67 30  30 05 80 1C 0A 80 00     .....ng00...... 
```

#### Opcodes

```
  0: 0x0026 [0x9F] LOAD_SCHEDULED_TASK_ALT: Load scheduler "frst" with entities [EventEntity, EventEntity], work=[191*, 0*]
  1: 0x0037 [0x1C] WAIT(270* ticks)
  2: 0x003A [0x9F] LOAD_SCHEDULED_TASK_ALT: Load scheduler "ng00" with entities [EventEntity, EventEntity], work=[191*, 0*]
  3: 0x004B [0x1C] WAIT(150* ticks)
  4: 0x004E [0x00] END_REQSTACK()
```

### Event 65535.4

#### Metadata

| Field        | Value    |
|--------------|----------|
| Entrypoint   | 0x004F   |
| Data Size    | 33 bytes |
| Instructions | 3        |

```
      00 01 02 03 04 05 06 07  08 09 0A 0B 0C 0D 0E 0F
      -- -- -- -- -- -- -- --  -- -- -- -- -- -- -- --
0040:                                               5F                 _
0050: 06 01 80 F8 FF FF 7F F8  FF FF 7F 67 6B 72 30 0B  ...........gkr0.
0060: 80 5F 07 F8 FF FF 7F F8  FF FF 7F 67 6B 72 30 00  ._.........gkr0.
```

#### Opcodes

```
  0: 0x004F [0x5F] MULTI_HANDLER_COMPLEX(mode=0x06 - Load ext scheduler with flag (OpCode 0x5B mode 1, flag 1), ref=40*, entity1=EventEntity, entity2=EventEntity, string="gkr0", extra=172*)
  1: 0x0061 [0x5F] MULTI_HANDLER_COMPLEX(mode=0x07 - Wait scheduler task (OpCode 0x53))
  2: 0x006F [0x00] END_REQSTACK()
```
