# 17900027

## Common Data

| Field            | Value                     |
|------------------|---------------------------|
| Zone             | Outer Ra'Kaznar (ID: 274) |
| Block Size       | 8236 bytes                |
| Total Events     | 4                         |
| References Count | 183                       |

## List of Events

| Event ID              | Entrypoint   |   Size |   Instructions |
|-----------------------|--------------|--------|----------------|
| [65535](#event-65535) | 0x0000       |      1 |              1 |
| [54](#event-54)       | 0x0001       |   1691 |            227 |
| [26](#event-26)       | 0x069C       |   2615 |            308 |
| [27](#event-27)       | 0x10D3       |   3162 |            386 |

## DAT References (imed_data)

|   Index | Hex Value   |   Dec Value |
|---------|-------------|-------------|
|       0 | 0x00C8      |         200 |
|       1 | 0x0000      |           0 |
|       2 | 0x001B      |          27 |
|       3 | 0xFFFE829D  |  4294869661 |
|       4 | 0x33EB      |       13291 |
|       5 | 0xFFFD4601  |  4294788609 |
|       6 | 0x08DD      |        2269 |
|       7 | 0xFFFE7101  |  4294865153 |
|       8 | 0x4D8A      |       19850 |
|       9 | 0xFFFD31B6  |  4294783414 |
|      10 | 0x0678      |        1656 |
|      11 | 0xFFFE6C7C  |  4294863996 |
|      12 | 0x2CDC      |       11484 |
|      13 | 0xFFFC29B2  |  4294715826 |
|      14 | 0x0400      |        1024 |
|      15 | 0xFFFE62A1  |  4294861473 |
|      16 | 0x41BD      |       16829 |
|      17 | 0xFFFD48B0  |  4294789296 |
|      18 | 0x0CE2      |        3298 |
|      19 | 0x0003      |           3 |
|      20 | 0x02C6      |         710 |
|      21 | 0x0004      |           4 |
|      22 | 0x0005      |           5 |
|      23 | 0x0006      |           6 |
|      24 | 0x0008      |           8 |
|      25 | 0x001E      |          30 |
|      26 | 0x00AA      |         170 |
|      27 | 0x0AF4      |        2804 |
|      28 | 0x1ED5      |        7893 |
|      29 | 0x0046      |          70 |
|      30 | 0x00D5      |         213 |
|      31 | 0x001F      |          31 |
|      32 | 0x01E0      |         480 |
|      33 | 0x03C0      |         960 |
|      34 | 0x0032      |          50 |
|      35 | 0x1ED6      |        7894 |
|      36 | 0x1ED8      |        7896 |
|      37 | 0x1ED9      |        7897 |
|      38 | 0x0001      |           1 |
|      39 | 0x1ED7      |        7895 |
|      40 | 0x0068      |         104 |
|      41 | 0x0039      |          57 |
|      42 | 0x007F      |         127 |
|      43 | 0x1EDA      |        7898 |
|      44 | 0x1EDB      |        7899 |
|      45 | 0x1EDC      |        7900 |
|      46 | 0x1EDD      |        7901 |
|      47 | 0x1EDE      |        7902 |
|      48 | 0x1EDF      |        7903 |
|      49 | 0x1EE0      |        7904 |
|      50 | 0x1EE1      |        7905 |
|      51 | 0x000F      |          15 |
|      52 | 0x1EE2      |        7906 |
|      53 | 0x1EE3      |        7907 |
|      54 | 0x0050      |          80 |
|      55 | 0x1EE4      |        7908 |
|      56 | 0x1EE5      |        7909 |
|      57 | 0x1EE6      |        7910 |
|      58 | 0x1EE7      |        7911 |
|      59 | 0x003C      |          60 |
|      60 | 0x0007      |           7 |
|      61 | 0x1EE8      |        7912 |
|      62 | 0x1EE9      |        7913 |
|      63 | 0x1EEA      |        7914 |
|      64 | 0x0049      |          73 |
|      65 | 0xFFFCB4BE  |  4294751422 |
|      66 | 0xFFFDC51D  |  4294821149 |
|      67 | 0xFFFDB51D  |  4294817053 |
|      68 | 0x0980      |        2432 |
|      69 | 0xFFFCA69F  |  4294747807 |
|      70 | 0xFFFDC705  |  4294821637 |
|      71 | 0xFFFDACB9  |  4294814905 |
|      72 | 0xFFFCB062  |  4294750306 |
|      73 | 0xFFFDC71F  |  4294821663 |
|      74 | 0xFFFDB421  |  4294816801 |
|      75 | 0xFFFCC55C  |  4294755676 |
|      76 | 0xFFFDE707  |  4294829831 |
|      77 | 0xFFFDB610  |  4294817296 |
|      78 | 0x03D9      |         985 |
|      79 | 0x005A      |          90 |
|      80 | 0x000A      |          10 |
|      81 | 0x0268      |         616 |
|      82 | 0x0096      |         150 |
|      83 | 0x1EA0      |        7840 |
|      84 | 0x1EA1      |        7841 |
|      85 | 0x1EA2      |        7842 |
|      86 | 0x0028      |          40 |
|      87 | 0x1EA3      |        7843 |
|      88 | 0x1EA4      |        7844 |
|      89 | 0x1EA5      |        7845 |
|      90 | 0x1EA6      |        7846 |
|      91 | 0x000B      |          11 |
|      92 | 0x1EA8      |        7848 |
|      93 | 0x1EA7      |        7847 |
|      94 | 0x1EA9      |        7849 |
|      95 | 0x1EAA      |        7850 |
|      96 | 0x1EAB      |        7851 |
|      97 | 0x1EAC      |        7852 |
|      98 | 0x1EAD      |        7853 |
|      99 | 0x00F0      |         240 |
|     100 | 0x1EAE      |        7854 |
|     101 | 0x1EAF      |        7855 |
|     102 | 0x0078      |         120 |
|     103 | 0x00B4      |         180 |
|     104 | 0x0262      |         610 |
|     105 | 0x1EB0      |        7856 |
|     106 | 0x00BB      |         187 |
|     107 | 0x1EB1      |        7857 |
|     108 | 0x0137      |         311 |
|     109 | 0x0014      |          20 |
|     110 | 0x08A5      |        2213 |
|     111 | 0x00D1      |         209 |
|     112 | 0x1EB2      |        7858 |
|     113 | 0x1EB3      |        7859 |
|     114 | 0x1EB4      |        7860 |
|     115 | 0x00D2      |         210 |
|     116 | 0x1EB5      |        7861 |
|     117 | 0x1EB6      |        7862 |
|     118 | 0xFFFE7045  |  4294864965 |
|     119 | 0x43E3      |       17379 |
|     120 | 0x0959      |        2393 |
|     121 | 0xFFFE69FA  |  4294863354 |
|     122 | 0x3D72      |       15730 |
|     123 | 0x071D      |        1821 |
|     124 | 0x1EB7      |        7863 |
|     125 | 0x1EB8      |        7864 |
|     126 | 0x1EB9      |        7865 |
|     127 | 0x1EBA      |        7866 |
|     128 | 0x1EBB      |        7867 |
|     129 | 0x001A      |          26 |
|     130 | 0x1EBC      |        7868 |
|     131 | 0x1EBD      |        7869 |
|     132 | 0x1EBE      |        7870 |
|     133 | 0x0931      |        2353 |
|     134 | 0x1EBF      |        7871 |
|     135 | 0x1EC0      |        7872 |
|     136 | 0x0020      |          32 |
|     137 | 0x1EC1      |        7873 |
|     138 | 0x0013      |          19 |
|     139 | 0x1EC2      |        7874 |
|     140 | 0x1EC3      |        7875 |
|     141 | 0x0024      |          36 |
|     142 | 0x006E      |         110 |
|     143 | 0x1EC4      |        7876 |
|     144 | 0x1EC5      |        7877 |
|     145 | 0x1EC6      |        7878 |
|     146 | 0xFFFE776C  |  4294866796 |
|     147 | 0x4394      |       17300 |
|     148 | 0x0334      |         820 |
|     149 | 0xFFFD46E0  |  4294788832 |
|     150 | 0xFFFE7D00  |  4294868224 |
|     151 | 0x3ED0      |       16080 |
|     152 | 0xFFFD474D  |  4294788941 |
|     153 | 0x0870      |        2160 |
|     154 | 0xFFFE75DC  |  4294866396 |
|     155 | 0x3AFC      |       15100 |
|     156 | 0x0C80      |        3200 |
|     157 | 0xFFFE786B  |  4294867051 |
|     158 | 0x3EF6      |       16118 |
|     159 | 0xFFFD4590  |  4294788496 |
|     160 | 0x1EC7      |        7879 |
|     161 | 0x00C0      |         192 |
|     162 | 0x1EC8      |        7880 |
|     163 | 0x0123      |         291 |
|     164 | 0x0129      |         297 |
|     165 | 0x002B      |          43 |
|     166 | 0x01DF      |         479 |
|     167 | 0x00C9      |         201 |
|     168 | 0x1EC9      |        7881 |
|     169 | 0x09D2      |        2514 |
|     170 | 0x1ECA      |        7882 |
|     171 | 0x000C      |          12 |
|     172 | 0x1ECB      |        7883 |
|     173 | 0x1ECC      |        7884 |
|     174 | 0x1ECD      |        7885 |
|     175 | 0x1ECE      |        7886 |
|     176 | 0x1ED0      |        7888 |
|     177 | 0x1ED1      |        7889 |
|     178 | 0x1ED2      |        7890 |
|     179 | 0x1ED3      |        7891 |
|     180 | 0x1ED4      |        7892 |
|     181 | 0x1ECF      |        7887 |
|     182 | 0x008C      |         140 |

## String References

- **7846**: Will you assist her? [Beyond doubt./Sorry. I'm busy right now.]
- **7860**: Hidden energies flow forth from the mysterious tree...
- **7861**: ...and coalesce into a crystallized bauble in <Player>'s hands!
- **7886**: Any parting words for her? [Does your brother know you're alive?/No, I couldn't care less.]
- **7894**: How do you respond? [She sure did./Nope.]

## Events

### Event 65535

#### Metadata

| Field        | Value   |
|--------------|---------|
| Entrypoint   | 0x0000  |
| Data Size    | 1 bytes |
| Instructions | 1       |

```
      00 01 02 03 04 05 06 07  08 09 0A 0B 0C 0D 0E 0F
      -- -- -- -- -- -- -- --  -- -- -- -- -- -- -- --
0000: 00                                                .               
```

#### Opcodes

```
  0: 0x0000 [0x00] END_REQSTACK()
```

### Event 54

#### Metadata

| Field        | Value      |
|--------------|------------|
| Entrypoint   | 0x0001     |
| Data Size    | 1691 bytes |
| Instructions | 227        |

```
      00 01 02 03 04 05 06 07  08 09 0A 0B 0C 0D 0E 0F
      -- -- -- -- -- -- -- --  -- -- -- -- -- -- -- --
0000:    42 45 00 80 F0 FF FF  7F F0 FF FF 7F 66 64 6F   BE..........fdo
0010: 31 01 80 55 00 80 F0 FF  FF 7F F0 FF FF 7F 66 64  1..U..........fd
0020: 6F 31 46 01 38 02 80 4E  00 F0 FF FF 7F 4E 00 01  o1F.8..N.....N..
0030: 22 11 01 4E 00 FF 21 11  01 4E 00 03 22 11 01 2F  "..N..!..N.."../
0040: 00 01 22 11 01 2F 00 FF  21 11 01 2F 00 03 22 11  .."../..!../..".
0050: 01 94 01 01 22 11 01 94  01 FF 21 11 01 94 01 03  ....".....!.....
0060: 22 11 01 94 01 F0 FF FF  7F 92 01 01 22 11 01 92  "..........."...
0070: 01 FF 21 11 01 92 01 03  22 11 01 59 05 03 22 11  ..!....."..Y..".
0080: 01 01 BA 01 22 11 01 03  80 04 80 05 80 06 80 BA  ...."...........
0090: FF 21 11 01 07 80 08 80  09 80 0A 80 BA 03 22 11  .!............".
00A0: 01 0B 80 0C 80 0D 80 0E  80 BA F0 FF FF 7F 0F 80  ................
00B0: 10 80 11 80 12 80 29 10  01 22 11 01 58 80 01 22  ......).."..X.."
00C0: 11 01 80 FF 21 11 01 80  03 22 11 01 80 F0 FF FF  ....!...."......
00D0: 7F 4A 01 22 11 01 F0 FF  FF 7F 4A F0 FF FF 7F FF  .J."......J.....
00E0: 21 11 01 6F 76 F0 FF FF  7F 7B F0 FF FF 7F 02 87  !..ov....{......
00F0: 7F 13 80 80 0A 01 45 14  80 F8 FF FF 7F F8 FF FF  ......E.........
0100: 7F 73 30 30 30 01 80 01  8B 01 02 87 7F 15 80 80  .s000...........
0110: 26 01 45 14 80 F8 FF FF  7F F8 FF FF 7F 73 30 30  &.E..........s00
0120: 30 01 80 01 8B 01 02 87  7F 16 80 80 42 01 45 14  0...........B.E.
0130: 80 F8 FF FF 7F F8 FF FF  7F 73 30 30 32 01 80 01  .........s002...
0140: 8B 01 02 87 7F 17 80 80  5E 01 45 14 80 F8 FF FF  ........^.E.....
0150: 7F F8 FF FF 7F 73 30 30  32 01 80 01 8B 01 02 87  .....s002.......
0160: 7F 18 80 80 7A 01 45 14  80 F8 FF FF 7F F8 FF FF  ....z.E.........
0170: 7F 73 30 30 30 01 80 01  8B 01 45 14 80 F8 FF FF  .s000.....E.....
0180: 7F F8 FF FF 7F 73 30 30  31 01 80 1C 19 80 45 00  .....s001.....E.
0190: 80 F0 FF FF 7F F0 FF FF  7F 66 64 69 31 01 80 1C  .........fdi1...
01A0: 19 80 4A F0 FF FF 7F FF  21 11 01 6F 76 F0 FF FF  ..J.....!..ov...
01B0: 7F 1C 1A 80 27 08 01 22  11 01 48 03 02 10 1B 80  ....'.."..H.....
01C0: 2B 01 22 11 01 1C 80 1C  1D 80 52 14 80 F8 FF FF  +.".......R.....
01D0: 7F F8 FF FF 7F 73 30 30  30 52 14 80 F8 FF FF 7F  .....s000R......
01E0: F8 FF FF 7F 73 30 30 31  52 14 80 F8 FF FF 7F F8  ....s001R.......
01F0: FF FF 7F 73 30 30 32 C5  1E 80 03 22 11 01 03 22  ...s002...."..."
0200: 11 01 73 30 30 30 01 80  5C A0 1F 80 20 80 5C A1  ..s000..\... .\.
0210: 1F 80 21 80 45 14 80 F8  FF FF 7F F8 FF FF 7F 73  ..!.E..........s
0220: 30 30 33 01 80 1C 22 80  2A 08 01 22 11 01 4A F0  003...".*.."..J.
0230: FF FF 7F 01 22 11 01 6F  76 F0 FF FF 7F 23 52 14  ...."..ov....#R.
0240: 80 F8 FF FF 7F F8 FF FF  7F 73 30 30 33 45 14 80  .........s003E..
0250: F8 FF FF 7F F8 FF FF 7F  73 30 30 34 01 80 24 23  ........s004..$#
0260: 80 01 80 01 80 25 02 00  10 01 80 00 AA 02 7B 01  .....%........{.
0270: 22 11 01 27 08 01 22 11  01 4F 2B 01 22 11 01 24  "..'.."..O+."..$
0280: 80 2A 08 01 22 11 01 23  27 08 01 22 11 01 50 2B  .*.."..#'.."..P+
0290: 01 22 11 01 25 80 2A 08  01 22 11 01 79 00 01 22  ."..%.*.."..y.."
02A0: 11 01 F0 FF FF 7F 23 01  BD 02 02 00 10 26 80 00  ......#......&..
02B0: BD 02 2B 01 22 11 01 27  80 23 01 BD 02 52 14 80  ..+."..'.#...R..
02C0: F8 FF FF 7F F8 FF FF 7F  73 30 30 34 5C 00 28 80  ........s004\.(.
02D0: 5C 01 28 80 5C 02 29 80  5C 03 29 80 9A 5D 2A 80  \.(.\.).\.)..]*.
02E0: 01 80 45 14 80 F8 FF FF  7F F8 FF FF 7F 73 30 30  ..E..........s00
02F0: 35 01 80 27 08 01 22 11  01 4B 2B 01 22 11 01 2B  5..'.."..K+."..+
0300: 80 23 2B 01 22 11 01 2C  80 23 52 14 80 F8 FF FF  .#+."..,.#R.....
0310: 7F F8 FF FF 7F 73 30 30  35 02 87 7F 16 80 80 35  .....s005......5
0320: 03 45 14 80 F8 FF FF 7F  F8 FF FF 7F 73 30 30 37  .E..........s007
0330: 01 80 01 62 03 02 87 7F  17 80 80 51 03 45 14 80  ...b.......Q.E..
0340: F8 FF FF 7F F8 FF FF 7F  73 30 30 37 01 80 01 62  ........s007...b
0350: 03 45 14 80 F8 FF FF 7F  F8 FF FF 7F 73 30 30 36  .E..........s006
0360: 01 80 2B 01 22 11 01 2D  80 2A 08 01 22 11 01 23  ..+."..-.*.."..#
0370: 27 08 01 22 11 01 4C 2B  01 22 11 01 2E 80 2A 08  '.."..L+."....*.
0380: 01 22 11 01 23 52 14 80  F8 FF FF 7F F8 FF FF 7F  ."..#R..........
0390: 73 30 30 36 52 14 80 F8  FF FF 7F F8 FF FF 7F 73  s006R..........s
03A0: 30 30 37 45 14 80 F8 FF  FF 7F F8 FF FF 7F 73 30  007E..........s0
03B0: 30 38 01 80 27 08 01 22  11 01 4D 2B 01 22 11 01  08..'.."..M+."..
03C0: 2F 80 23 2B 01 22 11 01  30 80 2A 08 01 22 11 01  /.#+."..0.*.."..
03D0: 23 52 14 80 F8 FF FF 7F  F8 FF FF 7F 73 30 30 38  #R..........s008
03E0: 7B 01 22 11 01 45 14 80  F8 FF FF 7F F8 FF FF 7F  {."..E..........
03F0: 73 30 30 39 01 80 27 08  01 22 11 01 4E 2B 01 22  s009..'.."..N+."
0400: 11 01 31 80 2A 08 01 22  11 01 23 81 00 01 22 11  ..1.*.."..#...".
0410: 01 27 08 01 22 11 01 4F  2B 01 22 11 01 32 80 23  .'.."..O+."..2.#
0420: 45 14 80 F8 FF FF 7F F8  FF FF 7F 66 6C 77 68 01  E..........flwh.
0430: 80 1C 33 80 52 14 80 F8  FF FF 7F F8 FF FF 7F 73  ..3.R..........s
0440: 30 30 39 45 14 80 F8 FF  FF 7F F8 FF FF 7F 73 30  009E..........s0
0450: 31 30 01 80 1C 33 80 45  14 80 F8 FF FF 7F F8 FF  10...3.E........
0460: FF 7F 66 6C 63 6C 01 80  2B 01 22 11 01 34 80 23  ..flcl..+."..4.#
0470: 1C 19 80 29 08 03 22 11  01 02 1C 22 80 27 08 03  ...).."....".'..
0480: 22 11 01 03 2B 01 22 11  01 35 80 1C 36 80 23 45  "...+."..5..6.#E
0490: 14 80 F8 FF FF 7F F8 FF  FF 7F 66 6C 77 68 01 80  ..........flwh..
04A0: 1C 33 80 52 14 80 F8 FF  FF 7F F8 FF FF 7F 73 30  .3.R..........s0
04B0: 31 30 45 14 80 F8 FF FF  7F F8 FF FF 7F 73 30 31  10E..........s01
04C0: 31 01 80 1C 33 80 45 14  80 F8 FF FF 7F F8 FF FF  1...3.E.........
04D0: 7F 66 6C 63 6C 01 80 2B  01 22 11 01 37 80 23 2B  .flcl..+."..7.#+
04E0: 01 22 11 01 38 80 23 2B  01 22 11 01 39 80 2A 08  ."..8.#+."..9.*.
04F0: 01 22 11 01 23 52 14 80  F8 FF FF 7F F8 FF FF 7F  ."..#R..........
0500: 73 30 31 31 45 14 80 F8  FF FF 7F F8 FF FF 7F 73  s011E..........s
0510: 30 31 32 01 80 27 08 01  22 11 01 50 2B 01 22 11  012..'.."..P+.".
0520: 01 3A 80 1C 3B 80 6E F0  FF FF 7F 3C 80 99 F0 FF  .:..;.n....<....
0530: FF 7F 1C 19 80 2A 08 01  22 11 01 81 01 01 22 11  .....*..".....".
0540: 01 79 00 01 22 11 01 F0  FF FF 7F 23 52 14 80 F8  .y.."......#R...
0550: FF FF 7F F8 FF FF 7F 73  30 31 32 45 14 80 F8 FF  .......s012E....
0560: FF 7F F8 FF FF 7F 73 30  31 35 01 80 27 08 01 22  ......s015..'.."
0570: 11 01 49 2B 01 22 11 01  3D 80 23 2B 01 22 11 01  ..I+."..=.#+."..
0580: 3E 80 2A 08 01 22 11 01  23 52 14 80 F8 FF FF 7F  >.*.."..#R......
0590: F8 FF FF 7F 73 30 31 35  02 87 7F 16 80 80 B4 05  ....s015........
05A0: 45 14 80 F8 FF FF 7F F8  FF FF 7F 73 30 31 34 01  E..........s014.
05B0: 80 01 E1 05 02 87 7F 17  80 80 D0 05 45 14 80 F8  ............E...
05C0: FF FF 7F F8 FF FF 7F 73  30 31 34 01 80 01 E1 05  .......s014.....
05D0: 45 14 80 F8 FF FF 7F F8  FF FF 7F 73 30 31 33 01  E..........s013.
05E0: 80 2B 01 22 11 01 3F 80  23 27 08 01 22 11 01 56  .+."..?.#'.."..V
05F0: 1C 22 80 6E F0 FF FF 7F  26 80 99 F0 FF FF 7F 1C  .".n....&.......
0600: 3B 80 45 00 80 F0 FF FF  7F F0 FF FF 7F 66 64 6F  ;.E..........fdo
0610: 31 01 80 55 00 80 F0 FF  FF 7F F0 FF FF 7F 66 64  1..U..........fd
0620: 6F 31 52 14 80 F8 FF FF  7F F8 FF FF 7F 73 30 31  o1R..........s01
0630: 33 52 14 80 F8 FF FF 7F  F8 FF FF 7F 73 30 31 34  3R..........s014
0640: 5C 00 40 80 5C 01 40 80  5C 02 29 80 5C 03 29 80  \.@.\.@.\.).\.).
0650: 9A C5 1E 80 03 22 11 01  03 22 11 01 6B 69 6C 30  ....."..."..kil0
0660: 01 80 29 10 01 22 11 01  59 4E 01 01 22 11 01 4E  ..).."..YN.."..N
0670: 01 FF 21 11 01 4E 01 03  22 11 01 1C 33 80 AB 11  ..!..N.."...3...
0680: 01 80 1C 26 80 AB 0A 46  00 45 00 80 F0 FF FF 7F  ...&...F.E......
0690: F0 FF FF 7F 66 64 69 32  01 80 21 00              ....fdi2..!.    
```

#### Opcodes

```
  0: 0x0001 [0x42] SET_CLI_EVENT_CANCEL_DATA()
  1: 0x0002 [0x45] LOAD_SCHEDULED_TASK: Load scheduler "fdo1" with entities [LocalPlayer, LocalPlayer], work=[200*, 0*]
  2: 0x0013 [0x55] WAIT_LOAD_SCHEDULER: Wait for scheduler "fdo1" with entities [LocalPlayer, LocalPlayer], work=200*
  3: 0x0022 [0x46] CAMERA_CONTROL: Disable user control
  4: 0x0024 [0x38] SET_CLIENT_EVENT_MODE(mode=27*)
  5: 0x0027 [0x4E] SET_ENTITY_HIDE_FLAG: Show LocalPlayer
  6: 0x002D [0x4E] SET_ENTITY_HIDE_FLAG: Show ??? (ID: 17900033/0x01112201)
  7: 0x0033 [0x4E] SET_ENTITY_HIDE_FLAG: Show Unnamed NPC (ID: 17900031/0x011121FF)
  8: 0x0039 [0x4E] SET_ENTITY_HIDE_FLAG: Show Unnamed NPC (ID: 17900035/0x01112203)
  9: 0x003F [0x2F] ??? (ID: 17900033/0x01112201)->Render.Flags0 &= ~0x80000 // Bit 19
 10: 0x0045 [0x2F] Unnamed NPC (ID: 17900031/0x011121FF)->Render.Flags0 &= ~0x80000 // Bit 19
 11: 0x004B [0x2F] Unnamed NPC (ID: 17900035/0x01112203)->Render.Flags0 &= ~0x80000 // Bit 19
 12: 0x0051 [0x94] ??? (ID: 17900033/0x01112201)->Render.Flags3 ^= 0x01
 13: 0x0057 [0x94] Unnamed NPC (ID: 17900031/0x011121FF)->Render.Flags3 ^= 0x01
 14: 0x005D [0x94] Unnamed NPC (ID: 17900035/0x01112203)->Render.Flags3 ^= 0x01
 15: 0x0063 [0x94] LocalPlayer->Render.Flags3 ^= 0x01
 16: 0x0069 [0x92] ??? (ID: 17900033/0x01112201)->Render.Flags3 ^= 0x01
 17: 0x006F [0x92] Unnamed NPC (ID: 17900031/0x011121FF)->Render.Flags3 ^= 0x01
 18: 0x0075 [0x92] Unnamed NPC (ID: 17900035/0x01112203)->Render.Flags3 ^= 0x01
 19: 0x007B [0x59] UPDATE_ENTITY_DATA: Unnamed NPC (ID: 17900035/0x01112203)->Render.Flags0 |= 0x200000
 20: 0x0082 [0xBA] SET_ENTITY_POSITION(entity_id=??? (ID: 17900033/0x01112201), pos_x=-97.635*, pos_z=13.291*, pos_y=-178.687*, direction=199.4°*)
 21: 0x008F [0xBA] SET_ENTITY_POSITION(entity_id=Unnamed NPC (ID: 17900031/0x011121FF), pos_x=-102.143*, pos_z=19.850*, pos_y=-183.882*, direction=145.5°*)
 22: 0x009C [0xBA] SET_ENTITY_POSITION(entity_id=Unnamed NPC (ID: 17900035/0x01112203), pos_x=-103.300*, pos_z=11.484*, pos_y=-251.470*, direction=90.0°*)
 23: 0x00A9 [0xBA] SET_ENTITY_POSITION(entity_id=LocalPlayer, pos_x=-105.823*, pos_z=16.829*, pos_y=-178.000*, direction=289.9°*)
 24: 0x00B6 [0x29] REQ_SET_WAIT(priority=0x10, entity_id=??? (ID: 17900033/0x01112201), tag_num=0x58)
 25: 0x00BD [0x80] LOAD_WAIT(entity=??? (ID: 17900033/0x01112201))
 26: 0x00C2 [0x80] LOAD_WAIT(entity=Unnamed NPC (ID: 17900031/0x011121FF))
 27: 0x00C7 [0x80] LOAD_WAIT(entity=Unnamed NPC (ID: 17900035/0x01112203))
 28: 0x00CC [0x80] LOAD_WAIT(entity=LocalPlayer)
 29: 0x00D1 [0x4A] ??? (ID: 17900033/0x01112201) looks at LocalPlayer
 30: 0x00DA [0x4A] LocalPlayer looks at Unnamed NPC (ID: 17900031/0x011121FF)
 31: 0x00E3 [0x6F] WAIT_FRAME_DELAY: Yield until WaitTime reaches zero
 32: 0x00E4 [0x76] CHECK_ENTITY_RENDER_FLAGS: Wait until LocalPlayer Render.Flags0 and Render.Flags3 conditions are met
 33: 0x00E9 [0x7B] LocalPlayer stops talking
 34: 0x00EE [0x02] IF !(LocalPlayer->Race == 3*) GOTO 0x010A
 35: 0x00F6 [0x45] LOAD_SCHEDULED_TASK: Load scheduler "s000" with entities [EventEntity, EventEntity], work=[710*, 0*]
 36: 0x0107 [0x01] GOTO 0x018B
 37: 0x010A [0x02] IF !(LocalPlayer->Race == 4*) GOTO 0x0126
 38: 0x0112 [0x45] LOAD_SCHEDULED_TASK: Load scheduler "s000" with entities [EventEntity, EventEntity], work=[710*, 0*]
 39: 0x0123 [0x01] GOTO 0x018B
 40: 0x0126 [0x02] IF !(LocalPlayer->Race == 5*) GOTO 0x0142
 41: 0x012E [0x45] LOAD_SCHEDULED_TASK: Load scheduler "s002" with entities [EventEntity, EventEntity], work=[710*, 0*]
 42: 0x013F [0x01] GOTO 0x018B
 43: 0x0142 [0x02] IF !(LocalPlayer->Race == 6*) GOTO 0x015E
 44: 0x014A [0x45] LOAD_SCHEDULED_TASK: Load scheduler "s002" with entities [EventEntity, EventEntity], work=[710*, 0*]
 45: 0x015B [0x01] GOTO 0x018B
 46: 0x015E [0x02] IF !(LocalPlayer->Race == 8*) GOTO 0x017A
 47: 0x0166 [0x45] LOAD_SCHEDULED_TASK: Load scheduler "s000" with entities [EventEntity, EventEntity], work=[710*, 0*]
 48: 0x0177 [0x01] GOTO 0x018B
 49: 0x017A [0x45] LOAD_SCHEDULED_TASK: Load scheduler "s001" with entities [EventEntity, EventEntity], work=[710*, 0*]

SUBROUTINE_018B:
 50: 0x018B [0x1C] WAIT(30* ticks)
 51: 0x018E [0x45] LOAD_SCHEDULED_TASK: Load scheduler "fdi1" with entities [LocalPlayer, LocalPlayer], work=[200*, 0*]
 52: 0x019F [0x1C] WAIT(30* ticks)
 53: 0x01A2 [0x4A] LocalPlayer looks at Unnamed NPC (ID: 17900031/0x011121FF)
 54: 0x01AB [0x6F] WAIT_FRAME_DELAY: Yield until WaitTime reaches zero
 55: 0x01AC [0x76] CHECK_ENTITY_RENDER_FLAGS: Wait until LocalPlayer Render.Flags0 and Render.Flags3 conditions are met
 56: 0x01B1 [0x1C] WAIT(170* ticks)
 57: 0x01B4 [0x27] REQ_SET(priority=0x08, entity_id=??? (ID: 17900033/0x01112201), tag_num=0x48)
 58: 0x01BB [0x03] Work_Zone[2] = 2804*
 59: 0x01C0 [0x2B] ??? (ID: 17900033/0x01112201) [7893*]:
    → "Let me guess. Amchuchu sent you here to check-weck up on me."
 60: 0x01C7 [0x1C] WAIT(70* ticks)
 61: 0x01CA [0x52] END_LOAD_SCHEDULER: End scheduler "s000" with entities [EventEntity, EventEntity], work=710*
 62: 0x01D9 [0x52] END_LOAD_SCHEDULER: End scheduler "s001" with entities [EventEntity, EventEntity], work=710*
 63: 0x01E8 [0x52] END_LOAD_SCHEDULER: End scheduler "s002" with entities [EventEntity, EventEntity], work=710*
 64: 0x01F7 [0xC5] LOAD_SCHEDULED_TASK_ALT3: Load scheduler 0x80013030 for entities [Unnamed NPC (ID: 17900035/0x01112203), Unnamed NPC (ID: 17900035/0x01112203)], work=213*, param=12403
 65: 0x0208 [0x5C] MUSIC_CONTROL: Set music volume to song 31*, fade_time=480*
 66: 0x020E [0x5C] MUSIC_CONTROL: Adjust music volume to song 31*, fade_time=960*
 67: 0x0214 [0x45] LOAD_SCHEDULED_TASK: Load scheduler "s003" with entities [EventEntity, EventEntity], work=[710*, 0*]
 68: 0x0225 [0x1C] WAIT(50* ticks)
 69: 0x0228 [0x2A] GET_REQ_LEVEL(level=8, entity_id=??? (ID: 17900033/0x01112201))
 70: 0x022E [0x4A] LocalPlayer looks at ??? (ID: 17900033/0x01112201)
 71: 0x0237 [0x6F] WAIT_FRAME_DELAY: Yield until WaitTime reaches zero
 72: 0x0238 [0x76] CHECK_ENTITY_RENDER_FLAGS: Wait until LocalPlayer Render.Flags0 and Render.Flags3 conditions are met
 73: 0x023D [0x23] WAIT_FOR_DIALOG_INTERACTION
 74: 0x023E [0x52] END_LOAD_SCHEDULER: End scheduler "s003" with entities [EventEntity, EventEntity], work=710*
 75: 0x024D [0x45] LOAD_SCHEDULED_TASK: Load scheduler "s004" with entities [EventEntity, EventEntity], work=[710*, 0*]
 76: 0x025E [0x24] CREATE_DIALOG(message_id=7894*, default_option=0*, option_flags=0*)
    → "How do you respond? [She sure did./Nope.]"
 77: 0x0265 [0x25] WAIT_DIALOG_SELECT()
 78: 0x0266 [0x02] IF !(Work_Zone[0] == 0*) GOTO 0x02AA
 79: 0x026E [0x7B] ??? (ID: 17900033/0x01112201) stops talking
 80: 0x0273 [0x27] REQ_SET(priority=0x08, entity_id=??? (ID: 17900033/0x01112201), tag_num=0x4F)
 81: 0x027A [0x2B] ??? (ID: 17900033/0x01112201) [7896*]:
    → "I had a feeling-weeling. They probably think I've been out here too long, but my investigation is still incomplete."
 82: 0x0281 [0x2A] GET_REQ_LEVEL(level=8, entity_id=??? (ID: 17900033/0x01112201))
 83: 0x0287 [0x23] WAIT_FOR_DIALOG_INTERACTION
 84: 0x0288 [0x27] REQ_SET(priority=0x08, entity_id=??? (ID: 17900033/0x01112201), tag_num=0x50)
 85: 0x028F [0x2B] ??? (ID: 17900033/0x01112201) [7897*]:
    → "But that can wait for a moment."
 86: 0x0296 [0x2A] GET_REQ_LEVEL(level=8, entity_id=??? (ID: 17900033/0x01112201))
 87: 0x029C [0x79] ??? (ID: 17900033/0x01112201) looks at LocalPlayer (Basic look)
 88: 0x02A6 [0x23] WAIT_FOR_DIALOG_INTERACTION
 89: 0x02A7 [0x01] GOTO 0x02BD
 90: 0x02AA [0x02] IF !(Work_Zone[0] == 1*) GOTO 0x02BD
 91: 0x02B2 [0x2B] ??? (ID: 17900033/0x01112201) [7895*]:
    → "No? She didn't? Then forgetaru I said anything."
 92: 0x02B9 [0x23] WAIT_FOR_DIALOG_INTERACTION
 93: 0x02BA [0x01] GOTO 0x02BD

SUBROUTINE_02BD:
 94: 0x02BD [0x52] END_LOAD_SCHEDULER: End scheduler "s004" with entities [EventEntity, EventEntity], work=710*
 95: 0x02CC [0x5C] MUSIC_CONTROL: Set Idle (Day) music to song 104*
 96: 0x02D0 [0x5C] MUSIC_CONTROL: Set Idle (Night) music to song 104*
 97: 0x02D4 [0x5C] MUSIC_CONTROL: Set Combat (Solo) music to song 57*
 98: 0x02D8 [0x5C] MUSIC_CONTROL: Set Combat (Party) music to song 57*
 99: 0x02DC [0x9A] WAIT_MUSIC_SERVER()
100: 0x02DD [0x5D] SET_MUSIC_VOLUME(volume=127*, fade_time=0*)
101: 0x02E2 [0x45] LOAD_SCHEDULED_TASK: Load scheduler "s005" with entities [EventEntity, EventEntity], work=[710*, 0*]
102: 0x02F3 [0x27] REQ_SET(priority=0x08, entity_id=??? (ID: 17900033/0x01112201), tag_num=0x4B)
103: 0x02FA [0x2B] ??? (ID: 17900033/0x01112201) [7898*]:
    → "Either way, it's good to see you, <Player>."
104: 0x0301 [0x23] WAIT_FOR_DIALOG_INTERACTION
105: 0x0302 [0x2B] ??? (ID: 17900033/0x01112201) [7899*]:
    → "I know why you're here, so let's cutaru to the chase."
106: 0x0309 [0x23] WAIT_FOR_DIALOG_INTERACTION
107: 0x030A [0x52] END_LOAD_SCHEDULER: End scheduler "s005" with entities [EventEntity, EventEntity], work=710*
108: 0x0319 [0x02] IF !(LocalPlayer->Race == 5*) GOTO 0x0335
109: 0x0321 [0x45] LOAD_SCHEDULED_TASK: Load scheduler "s007" with entities [EventEntity, EventEntity], work=[710*, 0*]
110: 0x0332 [0x01] GOTO 0x0362
111: 0x0335 [0x02] IF !(LocalPlayer->Race == 6*) GOTO 0x0351
112: 0x033D [0x45] LOAD_SCHEDULED_TASK: Load scheduler "s007" with entities [EventEntity, EventEntity], work=[710*, 0*]
113: 0x034E [0x01] GOTO 0x0362
114: 0x0351 [0x45] LOAD_SCHEDULED_TASK: Load scheduler "s006" with entities [EventEntity, EventEntity], work=[710*, 0*]

SUBROUTINE_0362:
115: 0x0362 [0x2B] ??? (ID: 17900033/0x01112201) [7900*]:
    → "You're wondering why the $5 haven't made it to the coalition-wition."
116: 0x0369 [0x2A] GET_REQ_LEVEL(level=8, entity_id=??? (ID: 17900033/0x01112201))
117: 0x036F [0x23] WAIT_FOR_DIALOG_INTERACTION
118: 0x0370 [0x27] REQ_SET(priority=0x08, entity_id=??? (ID: 17900033/0x01112201), tag_num=0x4C)
119: 0x0377 [0x2B] ??? (ID: 17900033/0x01112201) [7901*]:
    → "I've done a bit of testaruing on my own and discovered a curious problem."
120: 0x037E [0x2A] GET_REQ_LEVEL(level=8, entity_id=??? (ID: 17900033/0x01112201))
121: 0x0384 [0x23] WAIT_FOR_DIALOG_INTERACTION
122: 0x0385 [0x52] END_LOAD_SCHEDULER: End scheduler "s006" with entities [EventEntity, EventEntity], work=710*
123: 0x0394 [0x52] END_LOAD_SCHEDULER: End scheduler "s007" with entities [EventEntity, EventEntity], work=710*
124: 0x03A3 [0x45] LOAD_SCHEDULED_TASK: Load scheduler "s008" with entities [EventEntity, EventEntity], work=[710*, 0*]
125: 0x03B4 [0x27] REQ_SET(priority=0x08, entity_id=??? (ID: 17900033/0x01112201), tag_num=0x4D)
126: 0x03BB [0x2B] ??? (ID: 17900033/0x01112201) [7902*]:
    → "Equipment constructed with $5 slowly wears over time, turning from state-of-the-art protection into worthless hunks of metal."
127: 0x03C2 [0x23] WAIT_FOR_DIALOG_INTERACTION
128: 0x03C3 [0x2B] ??? (ID: 17900033/0x01112201) [7903*]:
    → "What's more, we can't mass-produce-wuce them, yet it wouldn't do to throw them by the wayside."
129: 0x03CA [0x2A] GET_REQ_LEVEL(level=8, entity_id=??? (ID: 17900033/0x01112201))
130: 0x03D0 [0x23] WAIT_FOR_DIALOG_INTERACTION
131: 0x03D1 [0x52] END_LOAD_SCHEDULER: End scheduler "s008" with entities [EventEntity, EventEntity], work=710*
132: 0x03E0 [0x7B] ??? (ID: 17900033/0x01112201) stops talking
133: 0x03E5 [0x45] LOAD_SCHEDULED_TASK: Load scheduler "s009" with entities [EventEntity, EventEntity], work=[710*, 0*]
134: 0x03F6 [0x27] REQ_SET(priority=0x08, entity_id=??? (ID: 17900033/0x01112201), tag_num=0x4E)
135: 0x03FD [0x2B] ??? (ID: 17900033/0x01112201) [7904*]:
    → "So we're stuck without a satisfactory-wactory resolution."
136: 0x0404 [0x2A] GET_REQ_LEVEL(level=8, entity_id=??? (ID: 17900033/0x01112201))
137: 0x040A [0x23] WAIT_FOR_DIALOG_INTERACTION
138: 0x040B [0x81] SET_ENTITY_BLINKING(blink_flag=0x00, entity=??? (ID: 17900033/0x01112201))
139: 0x0411 [0x27] REQ_SET(priority=0x08, entity_id=??? (ID: 17900033/0x01112201), tag_num=0x4F)
140: 0x0418 [0x2B] ??? (ID: 17900033/0x01112201) [7905*]:
    → "My hypothesis was that infusing $5 with elemental-wental energies would suffice."
141: 0x041F [0x23] WAIT_FOR_DIALOG_INTERACTION
142: 0x0420 [0x45] LOAD_SCHEDULED_TASK: Load scheduler "flwh" with entities [EventEntity, EventEntity], work=[710*, 0*]
143: 0x0431 [0x1C] WAIT(15* ticks)
144: 0x0434 [0x52] END_LOAD_SCHEDULER: End scheduler "s009" with entities [EventEntity, EventEntity], work=710*
145: 0x0443 [0x45] LOAD_SCHEDULED_TASK: Load scheduler "s010" with entities [EventEntity, EventEntity], work=[710*, 0*]
146: 0x0454 [0x1C] WAIT(15* ticks)
147: 0x0457 [0x45] LOAD_SCHEDULED_TASK: Load scheduler "flcl" with entities [EventEntity, EventEntity], work=[710*, 0*]
148: 0x0468 [0x2B] ??? (ID: 17900033/0x01112201) [7906*]:
    → "And so I gathered crystals of each of the elementarus and combined them one by one..."
149: 0x046F [0x23] WAIT_FOR_DIALOG_INTERACTION
150: 0x0470 [0x1C] WAIT(30* ticks)
151: 0x0473 [0x29] REQ_SET_WAIT(priority=0x08, entity_id=Unnamed NPC (ID: 17900035/0x01112203), tag_num=0x02)
152: 0x047A [0x1C] WAIT(50* ticks)
153: 0x047D [0x27] REQ_SET(priority=0x08, entity_id=Unnamed NPC (ID: 17900035/0x01112203), tag_num=0x03)
154: 0x0484 [0x2B] ??? (ID: 17900033/0x01112201) [7907*]:
    → "...But it was no good."
155: 0x048B [0x1C] WAIT(80* ticks)
156: 0x048E [0x23] WAIT_FOR_DIALOG_INTERACTION
157: 0x048F [0x45] LOAD_SCHEDULED_TASK: Load scheduler "flwh" with entities [EventEntity, EventEntity], work=[710*, 0*]
158: 0x04A0 [0x1C] WAIT(15* ticks)
159: 0x04A3 [0x52] END_LOAD_SCHEDULER: End scheduler "s010" with entities [EventEntity, EventEntity], work=710*
160: 0x04B2 [0x45] LOAD_SCHEDULED_TASK: Load scheduler "s011" with entities [EventEntity, EventEntity], work=[710*, 0*]
161: 0x04C3 [0x1C] WAIT(15* ticks)
162: 0x04C6 [0x45] LOAD_SCHEDULED_TASK: Load scheduler "flcl" with entities [EventEntity, EventEntity], work=[710*, 0*]
163: 0x04D7 [0x2B] ??? (ID: 17900033/0x01112201) [7908*]:
    → "At firstaru things seemed to be going swimmingly, but when I added crystals that were the polar opposite of the ones I put in first, the entire thing collapsed upon itself!"
164: 0x04DE [0x23] WAIT_FOR_DIALOG_INTERACTION
165: 0x04DF [0x2B] ??? (ID: 17900033/0x01112201) [7909*]:
    → "I'll need to tackle it from a differentaru angle, to be sure, but I've racked my brains without getting any closer to a solution."
166: 0x04E6 [0x23] WAIT_FOR_DIALOG_INTERACTION
167: 0x04E7 [0x2B] ??? (ID: 17900033/0x01112201) [7910*]:
    → "I seem to recall Octavernost saying that he might have a lead-wead to go on..."
168: 0x04EE [0x2A] GET_REQ_LEVEL(level=8, entity_id=??? (ID: 17900033/0x01112201))
169: 0x04F4 [0x23] WAIT_FOR_DIALOG_INTERACTION
170: 0x04F5 [0x52] END_LOAD_SCHEDULER: End scheduler "s011" with entities [EventEntity, EventEntity], work=710*
171: 0x0504 [0x45] LOAD_SCHEDULED_TASK: Load scheduler "s012" with entities [EventEntity, EventEntity], work=[710*, 0*]
172: 0x0515 [0x27] REQ_SET(priority=0x08, entity_id=??? (ID: 17900033/0x01112201), tag_num=0x50)
173: 0x051C [0x2B] ??? (ID: 17900033/0x01112201) [7911*]:
    → "But when push comes to shove, the boy's nothing more than a pretty-wetty face."
174: 0x0523 [0x1C] WAIT(60* ticks)
175: 0x0526 [0x6E] LocalPlayer uses emote 7*
176: 0x052D [0x99] Wait for LocalPlayer animation to complete
177: 0x0532 [0x1C] WAIT(30* ticks)
178: 0x0535 [0x2A] GET_REQ_LEVEL(level=8, entity_id=??? (ID: 17900033/0x01112201))
179: 0x053B [0x81] SET_ENTITY_BLINKING(blink_flag=0x01, entity=??? (ID: 17900033/0x01112201))
180: 0x0541 [0x79] ??? (ID: 17900033/0x01112201) looks at LocalPlayer (Basic look)
181: 0x054B [0x23] WAIT_FOR_DIALOG_INTERACTION
182: 0x054C [0x52] END_LOAD_SCHEDULER: End scheduler "s012" with entities [EventEntity, EventEntity], work=710*
183: 0x055B [0x45] LOAD_SCHEDULED_TASK: Load scheduler "s015" with entities [EventEntity, EventEntity], work=[710*, 0*]
184: 0x056C [0x27] REQ_SET(priority=0x08, entity_id=??? (ID: 17900033/0x01112201), tag_num=0x49)
185: 0x0573 [0x2B] ??? (ID: 17900033/0x01112201) [7912*]:
    → "Still, I'll give you $6 to take back, if for no other reason-weason than to prove that you actually did find me."
186: 0x057A [0x23] WAIT_FOR_DIALOG_INTERACTION
187: 0x057B [0x2B] ??? (ID: 17900033/0x01112201) [7913*]:
    → "And don't worry. I'll head back to the Inventors' Coalition once I've procured a bitaru more."
188: 0x0582 [0x2A] GET_REQ_LEVEL(level=8, entity_id=??? (ID: 17900033/0x01112201))
189: 0x0588 [0x23] WAIT_FOR_DIALOG_INTERACTION
190: 0x0589 [0x52] END_LOAD_SCHEDULER: End scheduler "s015" with entities [EventEntity, EventEntity], work=710*
191: 0x0598 [0x02] IF !(LocalPlayer->Race == 5*) GOTO 0x05B4
192: 0x05A0 [0x45] LOAD_SCHEDULED_TASK: Load scheduler "s014" with entities [EventEntity, EventEntity], work=[710*, 0*]
193: 0x05B1 [0x01] GOTO 0x05E1
194: 0x05B4 [0x02] IF !(LocalPlayer->Race == 6*) GOTO 0x05D0
195: 0x05BC [0x45] LOAD_SCHEDULED_TASK: Load scheduler "s014" with entities [EventEntity, EventEntity], work=[710*, 0*]
196: 0x05CD [0x01] GOTO 0x05E1
197: 0x05D0 [0x45] LOAD_SCHEDULED_TASK: Load scheduler "s013" with entities [EventEntity, EventEntity], work=[710*, 0*]

SUBROUTINE_05E1:
198: 0x05E1 [0x2B] ??? (ID: 17900033/0x01112201) [7914*]:
    → "Don't run off getting yourself killed-willed in the meantime."
199: 0x05E8 [0x23] WAIT_FOR_DIALOG_INTERACTION
200: 0x05E9 [0x27] REQ_SET(priority=0x08, entity_id=??? (ID: 17900033/0x01112201), tag_num=0x56)
201: 0x05F0 [0x1C] WAIT(50* ticks)
202: 0x05F3 [0x6E] LocalPlayer uses emote 1*
203: 0x05FA [0x99] Wait for LocalPlayer animation to complete
204: 0x05FF [0x1C] WAIT(60* ticks)
205: 0x0602 [0x45] LOAD_SCHEDULED_TASK: Load scheduler "fdo1" with entities [LocalPlayer, LocalPlayer], work=[200*, 0*]
206: 0x0613 [0x55] WAIT_LOAD_SCHEDULER: Wait for scheduler "fdo1" with entities [LocalPlayer, LocalPlayer], work=200*
207: 0x0622 [0x52] END_LOAD_SCHEDULER: End scheduler "s013" with entities [EventEntity, EventEntity], work=710*
208: 0x0631 [0x52] END_LOAD_SCHEDULER: End scheduler "s014" with entities [EventEntity, EventEntity], work=710*
209: 0x0640 [0x5C] MUSIC_CONTROL: Set Idle (Day) music to song 73*
210: 0x0644 [0x5C] MUSIC_CONTROL: Set Idle (Night) music to song 73*
211: 0x0648 [0x5C] MUSIC_CONTROL: Set Combat (Solo) music to song 57*
212: 0x064C [0x5C] MUSIC_CONTROL: Set Combat (Party) music to song 57*
213: 0x0650 [0x9A] WAIT_MUSIC_SERVER()
214: 0x0651 [0xC5] LOAD_SCHEDULED_TASK_ALT3: Load scheduler 0x8001306C for entities [Unnamed NPC (ID: 17900035/0x01112203), Unnamed NPC (ID: 17900035/0x01112203)], work=213*, param=26987
215: 0x0662 [0x29] REQ_SET_WAIT(priority=0x10, entity_id=??? (ID: 17900033/0x01112201), tag_num=0x59)
216: 0x0669 [0x4E] SET_ENTITY_HIDE_FLAG: Hide ??? (ID: 17900033/0x01112201)
217: 0x066F [0x4E] SET_ENTITY_HIDE_FLAG: Hide Unnamed NPC (ID: 17900031/0x011121FF)
218: 0x0675 [0x4E] SET_ENTITY_HIDE_FLAG: Hide Unnamed NPC (ID: 17900035/0x01112203)
219: 0x067B [0x1C] WAIT(15* ticks)
220: 0x067E [0xAB] EventEntity->DespawnValue = 0* // Set despawn value
221: 0x0682 [0x1C] WAIT(1* ticks)
222: 0x0685 [0xAB] EventEntity->UnknownFlag = 0 // Disable unknown flag
223: 0x0687 [0x46] CAMERA_CONTROL: Restore default settings
224: 0x0689 [0x45] LOAD_SCHEDULED_TASK: Load scheduler "fdi2" with entities [LocalPlayer, LocalPlayer], work=[200*, 0*]
225: 0x069A [0x21] END_EVENT
226: 0x069B [0x00] END_REQSTACK()
```

### Event 26

#### Metadata

| Field        | Value      |
|--------------|------------|
| Entrypoint   | 0x069C     |
| Data Size    | 2615 bytes |
| Instructions | 307        |

```
      00 01 02 03 04 05 06 07  08 09 0A 0B 0C 0D 0E 0F
      -- -- -- -- -- -- -- --  -- -- -- -- -- -- -- --
0690:                                      42 03 00 00              B...
06A0: 09 10 69 01 26 80 45 00  80 F0 FF FF 7F F0 FF FF  ..i.&.E.........
06B0: 7F 66 64 6F 31 01 80 55  00 80 F0 FF FF 7F F0 FF  .fdo1..U........
06C0: FF 7F 66 64 6F 31 46 01  38 02 80 4E 01 FC 21 11  ..fdo1F.8..N..!.
06D0: 01 4E 00 F0 FF FF 7F 4E  00 EA 21 11 01 4E 00 FE  .N.....N..!..N..
06E0: 21 11 01 4E 00 FF 21 11  01 4E 00 00 22 11 01 2F  !..N..!..N.."../
06F0: 00 EA 21 11 01 2F 00 FE  21 11 01 2F 00 FF 21 11  ..!../..!../..!.
0700: 01 2F 00 00 22 11 01 94  01 EA 21 11 01 94 01 FE  ./..".....!.....
0710: 21 11 01 94 01 FF 21 11  01 94 01 00 22 11 01 94  !.....!....."...
0720: 01 F0 FF FF 7F 92 01 EA  21 11 01 92 01 FE 21 11  ........!.....!.
0730: 01 92 01 FF 21 11 01 92  01 00 22 11 01 BA EA 21  ....!....."....!
0740: 11 01 41 80 42 80 43 80  44 80 BA FE 21 11 01 45  ..A.B.C.D...!..E
0750: 80 46 80 47 80 01 80 BA  FF 21 11 01 48 80 49 80  .F.G.....!..H.I.
0760: 4A 80 01 80 BA 00 22 11  01 48 80 49 80 4A 80 01  J....."..H.I.J..
0770: 80 BA F0 FF FF 7F 4B 80  4C 80 4D 80 4E 80 29 10  ......K.L.M.N.).
0780: FF 21 11 01 01 29 10 00  22 11 01 01 02 03 10 26  .!...).."......&
0790: 80 00 97 07 01 9E 07 29  10 EA 21 11 01 54 80 EA  .......)..!..T..
07A0: 21 11 01 80 FE 21 11 01  80 FF 21 11 01 80 00 22  !....!....!...."
07B0: 11 01 80 F0 FF FF 7F 1C  4F 80 2C FF 21 11 01 FF  ........O.,.!...
07C0: 21 11 01 6B 69 6C 6C 2C  00 22 11 01 00 22 11 01  !..kill,."..."..
07D0: 6B 69 6C 6C 53 FF 21 11  01 FF 21 11 01 6B 69 6C  killS.!...!..kil
07E0: 6C 53 00 22 11 01 00 22  11 01 6B 69 6C 6C 1C 4F  lS."..."..kill.O
07F0: 80 06 01 10 4A EA 21 11  01 FE 21 11 01 66 50 80  ....J.!...!..fP.
0800: EA 21 11 01 EA 21 11 01  74 68 6B 31 45 51 80 F8  .!...!..thk1EQ..
0810: FF FF 7F F8 FF FF 7F 73  30 32 39 01 80 27 10 F0  .......s029..'..
0820: FF FF 7F 20 1C 33 80 45  00 80 F0 FF FF 7F F0 FF  ... .3.E........
0830: FF 7F 66 64 69 31 01 80  1C 52 80 2B EA 21 11 01  ..fdi1...R.+.!..
0840: 53 80 23 69 00 26 80 66  50 80 EA 21 11 01 EA 21  S.#i.&.fP..!...!
0850: 11 01 74 68 6B 32 53 EA  21 11 01 EA 21 11 01 74  ..thk2S.!...!..t
0860: 68 6B 32 2A 10 F0 FF FF  7F 4A EA 21 11 01 F0 FF  hk2*.....J.!....
0870: FF 7F 52 51 80 F8 FF FF  7F F8 FF FF 7F 73 30 32  ..RQ.........s02
0880: 39 45 51 80 F8 FF FF 7F  F8 FF FF 7F 73 30 32 38  9EQ.........s028
0890: 01 80 6F 70 2B EA 21 11  01 54 80 23 2B EA 21 11  ..op+.!..T.#+.!.
08A0: 01 55 80 23 52 51 80 F8  FF FF 7F F8 FF FF 7F 73  .U.#RQ.........s
08B0: 30 32 38 02 87 7F 13 80  80 CF 08 45 51 80 F8 FF  028........EQ...
08C0: FF 7F F8 FF FF 7F 73 30  33 30 01 80 01 50 09 02  ......s030...P..
08D0: 87 7F 15 80 80 EB 08 45  51 80 F8 FF FF 7F F8 FF  .......EQ.......
08E0: FF 7F 73 30 33 30 01 80  01 50 09 02 87 7F 16 80  ..s030...P......
08F0: 80 07 09 45 51 80 F8 FF  FF 7F F8 FF FF 7F 73 30  ...EQ.........s0
0900: 33 32 01 80 01 50 09 02  87 7F 17 80 80 23 09 45  32...P.......#.E
0910: 51 80 F8 FF FF 7F F8 FF  FF 7F 73 30 33 32 01 80  Q.........s032..
0920: 01 50 09 02 87 7F 18 80  80 3F 09 45 51 80 F8 FF  .P.......?.EQ...
0930: FF 7F F8 FF FF 7F 73 30  33 30 01 80 01 50 09 45  ......s030...P.E
0940: 51 80 F8 FF FF 7F F8 FF  FF 7F 73 30 33 31 01 80  Q.........s031..
0950: 6E F0 FF FF 7F 3C 80 99  F0 FF FF 7F 1C 36 80 52  n....<.......6.R
0960: 51 80 F8 FF FF 7F F8 FF  FF 7F 73 30 33 30 52 51  Q.........s030RQ
0970: 80 F8 FF FF 7F F8 FF FF  7F 73 30 33 31 52 51 80  .........s031RQ.
0980: F8 FF FF 7F F8 FF FF 7F  73 30 33 32 45 51 80 F8  ........s032EQ..
0990: FF FF 7F F8 FF FF 7F 73  30 33 33 01 80 29 08 EA  .......s033..)..
09A0: 21 11 01 01 1C 56 80 2B  EA 21 11 01 57 80 23 29  !....V.+.!..W.#)
09B0: 08 EA 21 11 01 03 29 08  EA 21 11 01 04 4A EA 21  ..!...)..!...J.!
09C0: 11 01 FE 21 11 01 52 51  80 F8 FF FF 7F F8 FF FF  ...!..RQ........
09D0: 7F 73 30 33 33 45 51 80  F8 FF FF 7F F8 FF FF 7F  .s033EQ.........
09E0: 73 30 33 34 01 80 6F 70  2B EA 21 11 01 58 80 23  s034..op+.!..X.#
09F0: 2B EA 21 11 01 59 80 23  4A EA 21 11 01 F0 FF FF  +.!..Y.#J.!.....
0A00: 7F 1C 33 80 52 51 80 F8  FF FF 7F F8 FF FF 7F 73  ..3.RQ.........s
0A10: 30 33 34 45 51 80 F8 FF  FF 7F F8 FF FF 7F 73 30  034EQ.........s0
0A20: 33 35 01 80 6F 70 24 5A  80 01 80 01 80 25 02 00  35..op$Z.....%..
0A30: 10 01 80 00 83 0A 05 01  10 52 51 80 F8 FF FF 7F  .........RQ.....
0A40: F8 FF FF 7F 73 30 33 35  45 51 80 F8 FF FF 7F F8  ....s035EQ......
0A50: FF FF 7F 73 30 33 36 01  80 66 5B 80 EA 21 11 01  ...s036..f[..!..
0A60: EA 21 11 01 6B 61 73 30  53 EA 21 11 01 EA 21 11  .!..kas0S.!...!.
0A70: 01 6B 61 73 30 2B EA 21  11 01 5C 80 23 1C 3B 80  .kas0+.!..\.#.;.
0A80: 01 C8 0A 02 00 10 26 80  00 C8 0A 52 51 80 F8 FF  ......&....RQ...
0A90: FF 7F F8 FF FF 7F 73 30  33 35 45 51 80 F8 FF FF  ......s035EQ....
0AA0: 7F F8 FF FF 7F 73 30 33  36 01 80 66 50 80 EA 21  .....s036..fP..!
0AB0: 11 01 EA 21 11 01 74 68  6B 31 2B EA 21 11 01 5D  ...!..thk1+.!..]
0AC0: 80 23 01 5B 10 01 C8 0A  52 51 80 F8 FF FF 7F F8  .#.[....RQ......
0AD0: FF FF 7F 73 30 33 36 45  51 80 F8 FF FF 7F F8 FF  ...s036EQ.......
0AE0: FF 7F 73 30 35 32 01 80  1C 1D 80 2B EA 21 11 01  ..s052.....+.!..
0AF0: 5E 80 23 2B EA 21 11 01  5F 80 23 29 08 EA 21 11  ^.#+.!.._.#)..!.
0B00: 01 1F 29 08 EA 21 11 01  20 2B EA 21 11 01 60 80  ..)..!.. +.!..`.
0B10: 23 52 51 80 F8 FF FF 7F  F8 FF FF 7F 73 30 35 32  #RQ.........s052
0B20: 45 51 80 F8 FF FF 7F F8  FF FF 7F 73 30 35 34 01  EQ.........s054.
0B30: 80 2B EA 21 11 01 61 80  23 29 08 EA 21 11 01 21  .+.!..a.#)..!..!
0B40: 2B EA 21 11 01 62 80 23  29 08 EA 21 11 01 22 52  +.!..b.#)..!.."R
0B50: 51 80 F8 FF FF 7F F8 FF  FF 7F 73 30 35 34 5D 01  Q.........s054].
0B60: 80 63 80 45 51 80 F8 FF  FF 7F F8 FF FF 7F 73 30  .c.EQ.........s0
0B70: 35 35 01 80 27 08 EA 21  11 01 58 2B EA 21 11 01  55..'..!..X+.!..
0B80: 64 80 23 2A 08 EA 21 11  01 2B EA 21 11 01 65 80  d.#*..!..+.!..e.
0B90: 23 52 51 80 F8 FF FF 7F  F8 FF FF 7F 73 30 35 35  #RQ.........s055
0BA0: 5C 00 29 80 5C 01 29 80  5C 02 29 80 5C 03 29 80  \.).\.).\.).\.).
0BB0: 9A 5D 2A 80 01 80 02 87  7F 13 80 80 D2 0B 45 51  .]*...........EQ
0BC0: 80 F8 FF FF 7F F8 FF FF  7F 73 30 35 36 01 80 01  .........s056...
0BD0: 53 0C 02 87 7F 15 80 80  EE 0B 45 51 80 F8 FF FF  S.........EQ....
0BE0: 7F F8 FF FF 7F 73 30 35  36 01 80 01 53 0C 02 87  .....s056...S...
0BF0: 7F 16 80 80 0A 0C 45 51  80 F8 FF FF 7F F8 FF FF  ......EQ........
0C00: 7F 73 30 35 38 01 80 01  53 0C 02 87 7F 17 80 80  .s058...S.......
0C10: 26 0C 45 51 80 F8 FF FF  7F F8 FF FF 7F 73 30 35  &.EQ.........s05
0C20: 38 01 80 01 53 0C 02 87  7F 18 80 80 42 0C 45 51  8...S.......B.EQ
0C30: 80 F8 FF FF 7F F8 FF FF  7F 73 30 35 36 01 80 01  .........s056...
0C40: 53 0C 45 51 80 F8 FF FF  7F F8 FF FF 7F 73 30 35  S.EQ.........s05
0C50: 37 01 80 2C F0 FF FF 7F  F0 FF FF 7F 63 61 67 65  7..,........cage
0C60: 1C 66 80 52 51 80 F8 FF  FF 7F F8 FF FF 7F 73 30  .f.RQ.........s0
0C70: 35 36 52 51 80 F8 FF FF  7F F8 FF FF 7F 73 30 35  56RQ.........s05
0C80: 37 52 51 80 F8 FF FF 7F  F8 FF FF 7F 73 30 35 38  7RQ.........s058
0C90: 29 08 EA 21 11 01 56 45  51 80 F8 FF FF 7F F8 FF  )..!..VEQ.......
0CA0: FF 7F 73 30 35 39 01 80  2C F0 FF FF 7F F0 FF FF  ..s059..,.......
0CB0: 7F 73 68 67 65 1C 56 80  2C FF 21 11 01 FF 21 11  .shge.V.,.!...!.
0CC0: 01 73 74 61 72 2C 00 22  11 01 00 22 11 01 73 74  .star,."..."..st
0CD0: 61 72 1C 67 80 52 51 80  F8 FF FF 7F F8 FF FF 7F  ar.g.RQ.........
0CE0: 73 30 35 39 45 68 80 F0  FF FF 7F F0 FF FF 7F 30  s059Eh.........0
0CF0: 30 62 6C 01 80 55 68 80  F0 FF FF 7F F0 FF FF 7F  0bl..Uh.........
0D00: 30 30 62 6C 45 51 80 F8  FF FF 7F F8 FF FF 7F 73  00blEQ.........s
0D10: 30 36 30 01 80 2B EA 21  11 01 69 80 AD 02 6A 80  060..+.!..i...j.
0D20: EA 21 11 01 EA 21 11 01  1C 67 80 52 51 80 F8 FF  .!...!...g.RQ...
0D30: FF 7F F8 FF FF 7F 73 30  36 30 45 51 80 F8 FF FF  ......s060EQ....
0D40: 7F F8 FF FF 7F 73 30 35  33 01 80 2C EA 21 11 01  .....s053..,.!..
0D50: EA 21 11 01 63 61 77 68  1C 67 80 2C EA 21 11 01  .!..cawh.g.,.!..
0D60: EA 21 11 01 73 68 77 68  1C 36 80 52 51 80 F8 FF  .!..shwh.6.RQ...
0D70: FF 7F F8 FF FF 7F 73 30  35 33 45 51 80 F8 FF FF  ......s053EQ....
0D80: 7F F8 FF FF 7F 73 30 36  31 01 80 73 15 80 FE 21  .....s061..s...!
0D90: 11 01 FE 21 11 01 1C 52  80 52 51 80 F8 FF FF 7F  ...!...R.RQ.....
0DA0: F8 FF FF 7F 73 30 36 31  45 51 80 F8 FF FF 7F F8  ....s061EQ......
0DB0: FF FF 7F 73 30 36 32 01  80 4A EA 21 11 01 F0 FF  ...s062..J.!....
0DC0: FF 7F 2B EA 21 11 01 6B  80 6F 76 EA 21 11 01 1C  ..+.!..k.ov.!...
0DD0: 36 80 AD 02 6C 80 F0 FF  FF 7F F0 FF FF 7F 1C 6D  6...l..........m
0DE0: 80 52 51 80 F8 FF FF 7F  F8 FF FF 7F 73 30 36 32  .RQ.........s062
0DF0: 45 51 80 F8 FF FF 7F F8  FF FF 7F 73 30 36 33 01  EQ.........s063.
0E00: 80 1C 19 80 C4 02 6E 80  00 22 11 01 FE 21 11 01  ......n.."...!..
0E10: 1C 50 80 2C FF 21 11 01  FF 21 11 01 6B 69 6C 6C  .P.,.!...!..kill
0E20: 2C 00 22 11 01 00 22 11  01 6B 69 6C 6C 29 08 EA  ,."..."..kill)..
0E30: 21 11 01 57 6B 69 64 6C  30 EA 21 11 01 1C 3B 80  !..Wkidl0.!...;.
0E40: 5D 01 80 63 80 29 08 EA  21 11 01 1F 29 08 EA 21  ]..c.)..!...)..!
0E50: 11 01 20 1C 67 80 52 51  80 F8 FF FF 7F F8 FF FF  .. .g.RQ........
0E60: 7F 73 30 36 33 45 68 80  F0 FF FF 7F F0 FF FF 7F  .s063Eh.........
0E70: 30 30 62 6C 01 80 55 68  80 F0 FF FF 7F F0 FF FF  00bl..Uh........
0E80: 7F 30 30 62 6C 45 51 80  F8 FF FF 7F F8 FF FF 7F  .00blEQ.........
0E90: 73 30 36 34 01 80 1C 3B  80 9F 6F 80 FE 21 11 01  s064...;..o..!..
0EA0: FE 21 11 01 6F 75 74 30  01 80 2B EA 21 11 01 70  .!..out0..+.!..p
0EB0: 80 23 1C 3B 80 29 08 EA  21 11 01 21 29 08 EA 21  .#.;.)..!..!)..!
0EC0: 11 01 22 27 08 EA 21 11  01 59 1C 1D 80 52 51 80  .."'..!..Y...RQ.
0ED0: F8 FF FF 7F F8 FF FF 7F  73 30 36 34 5C 00 40 80  ........s064\.@.
0EE0: 5C 01 40 80 5C 02 29 80  5C 03 29 80 9A 45 51 80  \.@.\.).\.)..EQ.
0EF0: F8 FF FF 7F F8 FF FF 7F  73 30 36 35 01 80 2A 08  ........s065..*.
0F00: EA 21 11 01 2B EA 21 11  01 71 80 23 1C 66 80 66  .!..+.!..q.#.f.f
0F10: 50 80 EA 21 11 01 EA 21  11 01 74 68 6B 31 2C F0  P..!...!..thk1,.
0F20: FF FF 7F F0 FF FF 7F 72  65 73 30 52 51 80 F8 FF  .......res0RQ...
0F30: FF 7F F8 FF FF 7F 73 30  36 35 45 51 80 F8 FF FF  ......s065EQ....
0F40: 7F F8 FF FF 7F 73 30 36  36 01 80 9F 6F 80 F0 FF  .....s066...o...
0F50: FF 7F F0 FF FF 7F 69 6E  30 30 01 80 48 72 80 53  ......in00..Hr.S
0F60: F0 FF FF 7F F0 FF FF 7F  72 65 73 30 1C 52 80 9F  ........res0.R..
0F70: 6F 80 F0 FF FF 7F F0 FF  FF 7F 69 6B 69 6C 01 80  o.........ikil..
0F80: 52 51 80 F8 FF FF 7F F8  FF FF 7F 73 30 36 36 45  RQ.........s066E
0F90: 51 80 F8 FF FF 7F F8 FF  FF 7F 73 30 36 38 01 80  Q.........s068..
0FA0: 9F 6F 80 FE 21 11 01 FE  21 11 01 6F 6B 69 6C 01  .o..!...!..okil.
0FB0: 80 9F 6F 80 F0 FF FF 7F  F0 FF FF 7F 6C 6F 6F 70  ..o.........loop
0FC0: 01 80 1C 73 80 48 74 80  9F 6F 80 F0 FF FF 7F F0  ...s.Ht..o......
0FD0: FF FF 7F 6C 6B 69 6C 01  80 1C 52 80 2C F0 FF FF  ...lkil...R.,...
0FE0: 7F F0 FF FF 7F 72 65 73  32 53 F0 FF FF 7F F0 FF  .....res2S......
0FF0: FF 7F 72 65 73 32 1C 3B  80 52 51 80 F8 FF FF 7F  ..res2.;.RQ.....
1000: F8 FF FF 7F 73 30 36 38  45 51 80 F8 FF FF 7F F8  ....s068EQ......
1010: FF FF 7F 73 30 36 37 01  80 66 50 80 EA 21 11 01  ...s067..fP..!..
1020: EA 21 11 01 74 68 6B 32  53 EA 21 11 01 EA 21 11  .!..thk2S.!...!.
1030: 01 74 68 6B 32 4A EA 21  11 01 F0 FF FF 7F 1C 19  .thk2J.!........
1040: 80 2B EA 21 11 01 75 80  23 66 5B 80 EA 21 11 01  .+.!..u.#f[..!..
1050: EA 21 11 01 6B 61 73 30  1C 36 80 29 10 EA 21 11  .!..kas0.6.)..!.
1060: 01 55 4E 01 FE 21 11 01  4E 01 FF 21 11 01 4E 01  .UN..!..N..!..N.
1070: 00 22 11 01 45 00 80 F0  FF FF 7F F0 FF FF 7F 66  ."..E..........f
1080: 64 6F 31 01 80 55 00 80  F0 FF FF 7F F0 FF FF 7F  do1..U..........
1090: 66 64 6F 31 52 51 80 F8  FF FF 7F F8 FF FF 7F 73  fdo1RQ.........s
10A0: 30 36 37 52 51 80 F8 FF  FF 7F F8 FF FF 7F 73 30  067RQ.........s0
10B0: 33 36 1C 33 80 AB 11 01  80 1C 26 80 AB 0A 46 00  36.3......&...F.
10C0: 45 00 80 F0 FF FF 7F F0  FF FF 7F 66 64 69 32 01  E..........fdi2.
10D0: 80 21 00                                          .!.             
```

#### Opcodes

```
  0: 0x069C [0x42] SET_CLI_EVENT_CANCEL_DATA()
  1: 0x069D [0x03] ExtData[1]->WorkLocal[0] = Work_Zone[9]
  2: 0x06A2 [0x69] SET_SOUND_VOLUME: Mute System/Zone
  3: 0x06A6 [0x45] LOAD_SCHEDULED_TASK: Load scheduler "fdo1" with entities [LocalPlayer, LocalPlayer], work=[200*, 0*]
  4: 0x06B7 [0x55] WAIT_LOAD_SCHEDULER: Wait for scheduler "fdo1" with entities [LocalPlayer, LocalPlayer], work=200*
  5: 0x06C6 [0x46] CAMERA_CONTROL: Disable user control
  6: 0x06C8 [0x38] SET_CLIENT_EVENT_MODE(mode=27*)
  7: 0x06CB [0x4E] SET_ENTITY_HIDE_FLAG: Hide Geomantic Fumes (ID: 17900028/0x011121FC)
  8: 0x06D1 [0x4E] SET_ENTITY_HIDE_FLAG: Show LocalPlayer
  9: 0x06D7 [0x4E] SET_ENTITY_HIDE_FLAG: Show Lerene (ID: 17900010/0x011121EA)
 10: 0x06DD [0x4E] SET_ENTITY_HIDE_FLAG: Show Unnamed NPC (ID: 17900030/0x011121FE)
 11: 0x06E3 [0x4E] SET_ENTITY_HIDE_FLAG: Show Unnamed NPC (ID: 17900031/0x011121FF)
 12: 0x06E9 [0x4E] SET_ENTITY_HIDE_FLAG: Show Unnamed NPC (ID: 17900032/0x01112200)
 13: 0x06EF [0x2F] Lerene (ID: 17900010/0x011121EA)->Render.Flags0 &= ~0x80000 // Bit 19
 14: 0x06F5 [0x2F] Unnamed NPC (ID: 17900030/0x011121FE)->Render.Flags0 &= ~0x80000 // Bit 19
 15: 0x06FB [0x2F] Unnamed NPC (ID: 17900031/0x011121FF)->Render.Flags0 &= ~0x80000 // Bit 19
 16: 0x0701 [0x2F] Unnamed NPC (ID: 17900032/0x01112200)->Render.Flags0 &= ~0x80000 // Bit 19
 17: 0x0707 [0x94] Lerene (ID: 17900010/0x011121EA)->Render.Flags3 ^= 0x01
 18: 0x070D [0x94] Unnamed NPC (ID: 17900030/0x011121FE)->Render.Flags3 ^= 0x01
 19: 0x0713 [0x94] Unnamed NPC (ID: 17900031/0x011121FF)->Render.Flags3 ^= 0x01
 20: 0x0719 [0x94] Unnamed NPC (ID: 17900032/0x01112200)->Render.Flags3 ^= 0x01
 21: 0x071F [0x94] LocalPlayer->Render.Flags3 ^= 0x01
 22: 0x0725 [0x92] Lerene (ID: 17900010/0x011121EA)->Render.Flags3 ^= 0x01
 23: 0x072B [0x92] Unnamed NPC (ID: 17900030/0x011121FE)->Render.Flags3 ^= 0x01
 24: 0x0731 [0x92] Unnamed NPC (ID: 17900031/0x011121FF)->Render.Flags3 ^= 0x01
 25: 0x0737 [0x92] Unnamed NPC (ID: 17900032/0x01112200)->Render.Flags3 ^= 0x01
 26: 0x073D [0xBA] SET_ENTITY_POSITION(entity_id=Lerene (ID: 17900010/0x011121EA), pos_x=-215.874*, pos_z=-146.147*, pos_y=-150.243*, direction=213.7°*)
 27: 0x074A [0xBA] SET_ENTITY_POSITION(entity_id=Unnamed NPC (ID: 17900030/0x011121FE), pos_x=-219.489*, pos_z=-145.659*, pos_y=-152.391*, direction=0.0°*)
 28: 0x0757 [0xBA] SET_ENTITY_POSITION(entity_id=Unnamed NPC (ID: 17900031/0x011121FF), pos_x=-216.990*, pos_z=-145.633*, pos_y=-150.495*, direction=0.0°*)
 29: 0x0764 [0xBA] SET_ENTITY_POSITION(entity_id=Unnamed NPC (ID: 17900032/0x01112200), pos_x=-216.990*, pos_z=-145.633*, pos_y=-150.495*, direction=0.0°*)
 30: 0x0771 [0xBA] SET_ENTITY_POSITION(entity_id=LocalPlayer, pos_x=-211.620*, pos_z=-137.465*, pos_y=-150.000*, direction=86.6°*)
 31: 0x077E [0x29] REQ_SET_WAIT(priority=0x10, entity_id=Unnamed NPC (ID: 17900031/0x011121FF), tag_num=0x01)
 32: 0x0785 [0x29] REQ_SET_WAIT(priority=0x10, entity_id=Unnamed NPC (ID: 17900032/0x01112200), tag_num=0x01)
 33: 0x078C [0x02] IF !(Work_Zone[3] == 1*) GOTO 0x0797
 34: 0x0794 [0x01] GOTO 0x079E
 35: 0x0797 [0x29] REQ_SET_WAIT(priority=0x10, entity_id=Lerene (ID: 17900010/0x011121EA), tag_num=0x54)

SUBROUTINE_079E:
 36: 0x079E [0x80] LOAD_WAIT(entity=Lerene (ID: 17900010/0x011121EA))
 37: 0x07A3 [0x80] LOAD_WAIT(entity=Unnamed NPC (ID: 17900030/0x011121FE))
 38: 0x07A8 [0x80] LOAD_WAIT(entity=Unnamed NPC (ID: 17900031/0x011121FF))
 39: 0x07AD [0x80] LOAD_WAIT(entity=Unnamed NPC (ID: 17900032/0x01112200))
 40: 0x07B2 [0x80] LOAD_WAIT(entity=LocalPlayer)
 41: 0x07B7 [0x1C] WAIT(90* ticks)
 42: 0x07BA [0x2C] CREATE_SCHEDULER_TASK: Create scheduler "kill" with entities [Unnamed NPC (ID: 17900031/0x011121FF), Unnamed NPC (ID: 17900031/0x011121FF)]
 43: 0x07C7 [0x2C] CREATE_SCHEDULER_TASK: Create scheduler "kill" with entities [Unnamed NPC (ID: 17900032/0x01112200), Unnamed NPC (ID: 17900032/0x01112200)]
 44: 0x07D4 [0x53] WAIT_SCHEDULER_TASK: Wait for scheduler "kill" with entities [Unnamed NPC (ID: 17900031/0x011121FF), Unnamed NPC (ID: 17900031/0x011121FF)]
 45: 0x07E1 [0x53] WAIT_SCHEDULER_TASK: Wait for scheduler "kill" with entities [Unnamed NPC (ID: 17900032/0x01112200), Unnamed NPC (ID: 17900032/0x01112200)]
 46: 0x07EE [0x1C] WAIT(90* ticks)
 47: 0x07F1 [0x06] Work_Zone[1] = 0
 48: 0x07F4 [0x4A] Lerene (ID: 17900010/0x011121EA) looks at Unnamed NPC (ID: 17900030/0x011121FE)
 49: 0x07FD [0x66] LOAD_EXT_SCHEDULER_MAIN: Load scheduler "thk1" with entities [Lerene (ID: 17900010/0x011121EA), Lerene (ID: 17900010/0x011121EA)], work=10*
 50: 0x080C [0x45] LOAD_SCHEDULED_TASK: Load scheduler "s029" with entities [EventEntity, EventEntity], work=[616*, 0*]
 51: 0x081D [0x27] REQ_SET(priority=0x10, entity_id=LocalPlayer, tag_num=0x20)
 52: 0x0824 [0x1C] WAIT(15* ticks)
 53: 0x0827 [0x45] LOAD_SCHEDULED_TASK: Load scheduler "fdi1" with entities [LocalPlayer, LocalPlayer], work=[200*, 0*]
 54: 0x0838 [0x1C] WAIT(150* ticks)
 55: 0x083B [0x2B] Lerene (ID: 17900010/0x011121EA) [7840*]:
    → "Now, just how is it that the paten doesn't work...?"
 56: 0x0842 [0x23] WAIT_FOR_DIALOG_INTERACTION
 57: 0x0843 [0x69] SET_SOUND_VOLUME: Unmute System/Zone
 58: 0x0847 [0x66] LOAD_EXT_SCHEDULER_MAIN: Load scheduler "thk2" with entities [Lerene (ID: 17900010/0x011121EA), Lerene (ID: 17900010/0x011121EA)], work=10*
 59: 0x0856 [0x53] WAIT_SCHEDULER_TASK: Wait for scheduler "thk2" with entities [Lerene (ID: 17900010/0x011121EA), Lerene (ID: 17900010/0x011121EA)]
 60: 0x0863 [0x2A] GET_REQ_LEVEL(level=16, entity_id=LocalPlayer)
 61: 0x0869 [0x4A] Lerene (ID: 17900010/0x011121EA) looks at LocalPlayer
 62: 0x0872 [0x52] END_LOAD_SCHEDULER: End scheduler "s029" with entities [EventEntity, EventEntity], work=616*
 63: 0x0881 [0x45] LOAD_SCHEDULED_TASK: Load scheduler "s028" with entities [EventEntity, EventEntity], work=[616*, 0*]
 64: 0x0892 [0x6F] WAIT_FRAME_DELAY: Yield until WaitTime reaches zero
 65: 0x0893 [0x70] WAIT_ENTITY_RENDER_FLAG: Wait while EventEntity->Render.Flags3 bit 2 is set (cancel turn if not)
 66: 0x0894 [0x2B] Lerene (ID: 17900010/0x011121EA) [7841*]:
    → "Oh! You must be a geomancer. Am I right?"
 67: 0x089B [0x23] WAIT_FOR_DIALOG_INTERACTION
 68: 0x089C [0x2B] Lerene (ID: 17900010/0x011121EA) [7842*]:
    → "Then you wouldn't go anywhere without your trusty luopan?"
 69: 0x08A3 [0x23] WAIT_FOR_DIALOG_INTERACTION
 70: 0x08A4 [0x52] END_LOAD_SCHEDULER: End scheduler "s028" with entities [EventEntity, EventEntity], work=616*
 71: 0x08B3 [0x02] IF !(LocalPlayer->Race == 3*) GOTO 0x08CF
 72: 0x08BB [0x45] LOAD_SCHEDULED_TASK: Load scheduler "s030" with entities [EventEntity, EventEntity], work=[616*, 0*]
 73: 0x08CC [0x01] GOTO 0x0950
 74: 0x08CF [0x02] IF !(LocalPlayer->Race == 4*) GOTO 0x08EB
 75: 0x08D7 [0x45] LOAD_SCHEDULED_TASK: Load scheduler "s030" with entities [EventEntity, EventEntity], work=[616*, 0*]
 76: 0x08E8 [0x01] GOTO 0x0950
 77: 0x08EB [0x02] IF !(LocalPlayer->Race == 5*) GOTO 0x0907
 78: 0x08F3 [0x45] LOAD_SCHEDULED_TASK: Load scheduler "s032" with entities [EventEntity, EventEntity], work=[616*, 0*]
 79: 0x0904 [0x01] GOTO 0x0950
 80: 0x0907 [0x02] IF !(LocalPlayer->Race == 6*) GOTO 0x0923
 81: 0x090F [0x45] LOAD_SCHEDULED_TASK: Load scheduler "s032" with entities [EventEntity, EventEntity], work=[616*, 0*]
 82: 0x0920 [0x01] GOTO 0x0950
 83: 0x0923 [0x02] IF !(LocalPlayer->Race == 8*) GOTO 0x093F
 84: 0x092B [0x45] LOAD_SCHEDULED_TASK: Load scheduler "s030" with entities [EventEntity, EventEntity], work=[616*, 0*]
 85: 0x093C [0x01] GOTO 0x0950
 86: 0x093F [0x45] LOAD_SCHEDULED_TASK: Load scheduler "s031" with entities [EventEntity, EventEntity], work=[616*, 0*]

SUBROUTINE_0950:
 87: 0x0950 [0x6E] LocalPlayer uses emote 7*
 88: 0x0957 [0x99] Wait for LocalPlayer animation to complete
 89: 0x095C [0x1C] WAIT(80* ticks)
 90: 0x095F [0x52] END_LOAD_SCHEDULER: End scheduler "s030" with entities [EventEntity, EventEntity], work=616*
 91: 0x096E [0x52] END_LOAD_SCHEDULER: End scheduler "s031" with entities [EventEntity, EventEntity], work=616*
 92: 0x097D [0x52] END_LOAD_SCHEDULER: End scheduler "s032" with entities [EventEntity, EventEntity], work=616*
 93: 0x098C [0x45] LOAD_SCHEDULED_TASK: Load scheduler "s033" with entities [EventEntity, EventEntity], work=[616*, 0*]
 94: 0x099D [0x29] REQ_SET_WAIT(priority=0x08, entity_id=Lerene (ID: 17900010/0x011121EA), tag_num=0x01)
 95: 0x09A4 [0x1C] WAIT(40* ticks)
 96: 0x09A7 [0x2B] Lerene (ID: 17900010/0x011121EA) [7843*]:
    → "Wonderful! Did you know that the techniques used in making it have been passed down through the ages?"
 97: 0x09AE [0x23] WAIT_FOR_DIALOG_INTERACTION
 98: 0x09AF [0x29] REQ_SET_WAIT(priority=0x08, entity_id=Lerene (ID: 17900010/0x011121EA), tag_num=0x03)
 99: 0x09B6 [0x29] REQ_SET_WAIT(priority=0x08, entity_id=Lerene (ID: 17900010/0x011121EA), tag_num=0x04)
100: 0x09BD [0x4A] Lerene (ID: 17900010/0x011121EA) looks at Unnamed NPC (ID: 17900030/0x011121FE)
101: 0x09C6 [0x52] END_LOAD_SCHEDULER: End scheduler "s033" with entities [EventEntity, EventEntity], work=616*
102: 0x09D5 [0x45] LOAD_SCHEDULED_TASK: Load scheduler "s034" with entities [EventEntity, EventEntity], work=[616*, 0*]
103: 0x09E6 [0x6F] WAIT_FRAME_DELAY: Yield until WaitTime reaches zero
104: 0x09E7 [0x70] WAIT_ENTITY_RENDER_FLAG: Wait while EventEntity->Render.Flags3 bit 2 is set (cancel turn if not)
105: 0x09E8 [0x2B] Lerene (ID: 17900010/0x011121EA) [7844*]:
    → "But I suppose you aren't interested in a scholarly lesson. I could use a bit of your geomantic energies, if you could spare the time."
106: 0x09EF [0x23] WAIT_FOR_DIALOG_INTERACTION
107: 0x09F0 [0x2B] Lerene (ID: 17900010/0x011121EA) [7845*]:
    → "If you are capable of feeling the lifestream, then you must be able to channel the powers latent in this tree."
108: 0x09F7 [0x23] WAIT_FOR_DIALOG_INTERACTION
109: 0x09F8 [0x4A] Lerene (ID: 17900010/0x011121EA) looks at LocalPlayer
110: 0x0A01 [0x1C] WAIT(15* ticks)
111: 0x0A04 [0x52] END_LOAD_SCHEDULER: End scheduler "s034" with entities [EventEntity, EventEntity], work=616*
112: 0x0A13 [0x45] LOAD_SCHEDULED_TASK: Load scheduler "s035" with entities [EventEntity, EventEntity], work=[616*, 0*]
113: 0x0A24 [0x6F] WAIT_FRAME_DELAY: Yield until WaitTime reaches zero
114: 0x0A25 [0x70] WAIT_ENTITY_RENDER_FLAG: Wait while EventEntity->Render.Flags3 bit 2 is set (cancel turn if not)
115: 0x0A26 [0x24] CREATE_DIALOG(message_id=7846*, default_option=0*, option_flags=0*)
    → "Will you assist her? [Beyond doubt./Sorry. I'm busy right now.]"
116: 0x0A2D [0x25] WAIT_DIALOG_SELECT()
117: 0x0A2E [0x02] IF !(Work_Zone[0] == 0*) GOTO 0x0A83
118: 0x0A36 [0x05] Work_Zone[1] = 1
119: 0x0A39 [0x52] END_LOAD_SCHEDULER: End scheduler "s035" with entities [EventEntity, EventEntity], work=616*
120: 0x0A48 [0x45] LOAD_SCHEDULED_TASK: Load scheduler "s036" with entities [EventEntity, EventEntity], work=[616*, 0*]
121: 0x0A59 [0x66] LOAD_EXT_SCHEDULER_MAIN: Load scheduler "kas0" with entities [Lerene (ID: 17900010/0x011121EA), Lerene (ID: 17900010/0x011121EA)], work=11*
122: 0x0A68 [0x53] WAIT_SCHEDULER_TASK: Wait for scheduler "kas0" with entities [Lerene (ID: 17900010/0x011121EA), Lerene (ID: 17900010/0x011121EA)]
123: 0x0A75 [0x2B] Lerene (ID: 17900010/0x011121EA) [7848*]:
    → "Good to hear. Let me explain my hypothesis:"
124: 0x0A7C [0x23] WAIT_FOR_DIALOG_INTERACTION
125: 0x0A7D [0x1C] WAIT(60* ticks)
126: 0x0A80 [0x01] GOTO 0x0AC8
127: 0x0A83 [0x02] IF !(Work_Zone[0] == 1*) GOTO 0x0AC8
128: 0x0A8B [0x52] END_LOAD_SCHEDULER: End scheduler "s035" with entities [EventEntity, EventEntity], work=616*
129: 0x0A9A [0x45] LOAD_SCHEDULED_TASK: Load scheduler "s036" with entities [EventEntity, EventEntity], work=[616*, 0*]
130: 0x0AAB [0x66] LOAD_EXT_SCHEDULER_MAIN: Load scheduler "thk1" with entities [Lerene (ID: 17900010/0x011121EA), Lerene (ID: 17900010/0x011121EA)], work=10*
131: 0x0ABA [0x2B] Lerene (ID: 17900010/0x011121EA) [7847*]:
    → "Quite a shame, indeed. I'm certain we could learn much from this discovery."
132: 0x0AC1 [0x23] WAIT_FOR_DIALOG_INTERACTION
133: 0x0AC2 [0x01] GOTO 0x105B

SUBROUTINE_0AC8:
134: 0x0AC8 [0x52] END_LOAD_SCHEDULER: End scheduler "s036" with entities [EventEntity, EventEntity], work=616*
135: 0x0AD7 [0x45] LOAD_SCHEDULED_TASK: Load scheduler "s052" with entities [EventEntity, EventEntity], work=[616*, 0*]
136: 0x0AE8 [0x1C] WAIT(70* ticks)
137: 0x0AEB [0x2B] Lerene (ID: 17900010/0x011121EA) [7849*]:
    → "The roots of this tree are protected--or perhaps a better phrase would be "sealed in"--by the magic enshrouding Ra'Kaznar."
138: 0x0AF2 [0x23] WAIT_FOR_DIALOG_INTERACTION
139: 0x0AF3 [0x2B] Lerene (ID: 17900010/0x011121EA) [7850*]:
    → "What I require is that you lay your luopan by its side and invoke a Geocolure ritual."
140: 0x0AFA [0x23] WAIT_FOR_DIALOG_INTERACTION
141: 0x0AFB [0x29] REQ_SET_WAIT(priority=0x08, entity_id=Lerene (ID: 17900010/0x011121EA), tag_num=0x1F)
142: 0x0B02 [0x29] REQ_SET_WAIT(priority=0x08, entity_id=Lerene (ID: 17900010/0x011121EA), tag_num=0x20)
143: 0x0B09 [0x2B] Lerene (ID: 17900010/0x011121EA) [7851*]:
    → "Once that is done, I will invoke a Cure spell in the hopes that the roots will absorb the healing energy, thus weakening the seal."
144: 0x0B10 [0x23] WAIT_FOR_DIALOG_INTERACTION
145: 0x0B11 [0x52] END_LOAD_SCHEDULER: End scheduler "s052" with entities [EventEntity, EventEntity], work=616*
146: 0x0B20 [0x45] LOAD_SCHEDULED_TASK: Load scheduler "s054" with entities [EventEntity, EventEntity], work=[616*, 0*]
147: 0x0B31 [0x2B] Lerene (ID: 17900010/0x011121EA) [7852*]:
    → "Finally, you will unleash the power of your luopan to shatter the bonds."
148: 0x0B38 [0x23] WAIT_FOR_DIALOG_INTERACTION
149: 0x0B39 [0x29] REQ_SET_WAIT(priority=0x08, entity_id=Lerene (ID: 17900010/0x011121EA), tag_num=0x21)
150: 0x0B40 [0x2B] Lerene (ID: 17900010/0x011121EA) [7853*]:
    → "This should enable us to get to the underbelly of this mystery. How does the saying go? "Let the cat out of the bag"?"
151: 0x0B47 [0x23] WAIT_FOR_DIALOG_INTERACTION
152: 0x0B48 [0x29] REQ_SET_WAIT(priority=0x08, entity_id=Lerene (ID: 17900010/0x011121EA), tag_num=0x22)
153: 0x0B4F [0x52] END_LOAD_SCHEDULER: End scheduler "s054" with entities [EventEntity, EventEntity], work=616*
154: 0x0B5E [0x5D] SET_MUSIC_VOLUME(volume=0*, fade_time=240*)
155: 0x0B63 [0x45] LOAD_SCHEDULED_TASK: Load scheduler "s055" with entities [EventEntity, EventEntity], work=[616*, 0*]
156: 0x0B74 [0x27] REQ_SET(priority=0x08, entity_id=Lerene (ID: 17900010/0x011121EA), tag_num=0x58)
157: 0x0B7B [0x2B] Lerene (ID: 17900010/0x011121EA) [7854*]:
    → "Sorry for the long-winded explanation. Are you ready?"
158: 0x0B82 [0x23] WAIT_FOR_DIALOG_INTERACTION
159: 0x0B83 [0x2A] GET_REQ_LEVEL(level=8, entity_id=Lerene (ID: 17900010/0x011121EA))
160: 0x0B89 [0x2B] Lerene (ID: 17900010/0x011121EA) [7855*]:
    → "Okay!"
161: 0x0B90 [0x23] WAIT_FOR_DIALOG_INTERACTION
162: 0x0B91 [0x52] END_LOAD_SCHEDULER: End scheduler "s055" with entities [EventEntity, EventEntity], work=616*
163: 0x0BA0 [0x5C] MUSIC_CONTROL: Set Idle (Day) music to song 57*
164: 0x0BA4 [0x5C] MUSIC_CONTROL: Set Idle (Night) music to song 57*
165: 0x0BA8 [0x5C] MUSIC_CONTROL: Set Combat (Solo) music to song 57*
166: 0x0BAC [0x5C] MUSIC_CONTROL: Set Combat (Party) music to song 57*
167: 0x0BB0 [0x9A] WAIT_MUSIC_SERVER()
168: 0x0BB1 [0x5D] SET_MUSIC_VOLUME(volume=127*, fade_time=0*)
169: 0x0BB6 [0x02] IF !(LocalPlayer->Race == 3*) GOTO 0x0BD2
170: 0x0BBE [0x45] LOAD_SCHEDULED_TASK: Load scheduler "s056" with entities [EventEntity, EventEntity], work=[616*, 0*]
171: 0x0BCF [0x01] GOTO 0x0C53
172: 0x0BD2 [0x02] IF !(LocalPlayer->Race == 4*) GOTO 0x0BEE
173: 0x0BDA [0x45] LOAD_SCHEDULED_TASK: Load scheduler "s056" with entities [EventEntity, EventEntity], work=[616*, 0*]
174: 0x0BEB [0x01] GOTO 0x0C53
175: 0x0BEE [0x02] IF !(LocalPlayer->Race == 5*) GOTO 0x0C0A
176: 0x0BF6 [0x45] LOAD_SCHEDULED_TASK: Load scheduler "s058" with entities [EventEntity, EventEntity], work=[616*, 0*]
177: 0x0C07 [0x01] GOTO 0x0C53
178: 0x0C0A [0x02] IF !(LocalPlayer->Race == 6*) GOTO 0x0C26
179: 0x0C12 [0x45] LOAD_SCHEDULED_TASK: Load scheduler "s058" with entities [EventEntity, EventEntity], work=[616*, 0*]
180: 0x0C23 [0x01] GOTO 0x0C53
181: 0x0C26 [0x02] IF !(LocalPlayer->Race == 8*) GOTO 0x0C42
182: 0x0C2E [0x45] LOAD_SCHEDULED_TASK: Load scheduler "s056" with entities [EventEntity, EventEntity], work=[616*, 0*]
183: 0x0C3F [0x01] GOTO 0x0C53
184: 0x0C42 [0x45] LOAD_SCHEDULED_TASK: Load scheduler "s057" with entities [EventEntity, EventEntity], work=[616*, 0*]

SUBROUTINE_0C53:
185: 0x0C53 [0x2C] CREATE_SCHEDULER_TASK: Create scheduler "cage" with entities [LocalPlayer, LocalPlayer]
186: 0x0C60 [0x1C] WAIT(120* ticks)
187: 0x0C63 [0x52] END_LOAD_SCHEDULER: End scheduler "s056" with entities [EventEntity, EventEntity], work=616*
188: 0x0C72 [0x52] END_LOAD_SCHEDULER: End scheduler "s057" with entities [EventEntity, EventEntity], work=616*
189: 0x0C81 [0x52] END_LOAD_SCHEDULER: End scheduler "s058" with entities [EventEntity, EventEntity], work=616*
190: 0x0C90 [0x29] REQ_SET_WAIT(priority=0x08, entity_id=Lerene (ID: 17900010/0x011121EA), tag_num=0x56)
191: 0x0C97 [0x45] LOAD_SCHEDULED_TASK: Load scheduler "s059" with entities [EventEntity, EventEntity], work=[616*, 0*]
192: 0x0CA8 [0x2C] CREATE_SCHEDULER_TASK: Create scheduler "shge" with entities [LocalPlayer, LocalPlayer]
193: 0x0CB5 [0x1C] WAIT(40* ticks)
194: 0x0CB8 [0x2C] CREATE_SCHEDULER_TASK: Create scheduler "star" with entities [Unnamed NPC (ID: 17900031/0x011121FF), Unnamed NPC (ID: 17900031/0x011121FF)]
195: 0x0CC5 [0x2C] CREATE_SCHEDULER_TASK: Create scheduler "star" with entities [Unnamed NPC (ID: 17900032/0x01112200), Unnamed NPC (ID: 17900032/0x01112200)]
196: 0x0CD2 [0x1C] WAIT(180* ticks)
197: 0x0CD5 [0x52] END_LOAD_SCHEDULER: End scheduler "s059" with entities [EventEntity, EventEntity], work=616*
198: 0x0CE4 [0x45] LOAD_SCHEDULED_TASK: Load scheduler "00bl" with entities [LocalPlayer, LocalPlayer], work=[610*, 0*]
199: 0x0CF5 [0x55] WAIT_LOAD_SCHEDULER: Wait for scheduler "00bl" with entities [LocalPlayer, LocalPlayer], work=610*
200: 0x0D04 [0x45] LOAD_SCHEDULED_TASK: Load scheduler "s060" with entities [EventEntity, EventEntity], work=[616*, 0*]
201: 0x0D15 [0x2B] Lerene (ID: 17900010/0x011121EA) [7856*]:
    → "Chains of light and links of darkness, entwine thyselves and unleash thy power!"
202: 0x0D1C [0xAD] DUAL_ENTITY_SCHEDULER_HANDLER: Execute sub-case 2 with entities [Lerene (ID: 17900010/0x011121EA), Lerene (ID: 17900010/0x011121EA)], work=187*
203: 0x0D28 [0x1C] WAIT(180* ticks)
204: 0x0D2B [0x52] END_LOAD_SCHEDULER: End scheduler "s060" with entities [EventEntity, EventEntity], work=616*
205: 0x0D3A [0x45] LOAD_SCHEDULED_TASK: Load scheduler "s053" with entities [EventEntity, EventEntity], work=[616*, 0*]
206: 0x0D4B [0x2C] CREATE_SCHEDULER_TASK: Create scheduler "cawh" with entities [Lerene (ID: 17900010/0x011121EA), Lerene (ID: 17900010/0x011121EA)]
207: 0x0D58 [0x1C] WAIT(180* ticks)
208: 0x0D5B [0x2C] CREATE_SCHEDULER_TASK: Create scheduler "shwh" with entities [Lerene (ID: 17900010/0x011121EA), Lerene (ID: 17900010/0x011121EA)]
209: 0x0D68 [0x1C] WAIT(80* ticks)
210: 0x0D6B [0x52] END_LOAD_SCHEDULER: End scheduler "s053" with entities [EventEntity, EventEntity], work=616*
211: 0x0D7A [0x45] LOAD_SCHEDULED_TASK: Load scheduler "s061" with entities [EventEntity, EventEntity], work=[616*, 0*]
212: 0x0D8B [0x73] Unnamed NPC (ID: 17900030/0x011121FE) casts magic 4* on Unnamed NPC (ID: 17900030/0x011121FE)
213: 0x0D96 [0x1C] WAIT(150* ticks)
214: 0x0D99 [0x52] END_LOAD_SCHEDULER: End scheduler "s061" with entities [EventEntity, EventEntity], work=616*
215: 0x0DA8 [0x45] LOAD_SCHEDULED_TASK: Load scheduler "s062" with entities [EventEntity, EventEntity], work=[616*, 0*]
216: 0x0DB9 [0x4A] Lerene (ID: 17900010/0x011121EA) looks at LocalPlayer
217: 0x0DC2 [0x2B] Lerene (ID: 17900010/0x011121EA) [7857*]:
    → "Come on, come on..."
218: 0x0DC9 [0x6F] WAIT_FRAME_DELAY: Yield until WaitTime reaches zero
219: 0x0DCA [0x76] CHECK_ENTITY_RENDER_FLAGS: Wait until Lerene (ID: 17900010/0x011121EA) Render.Flags0 and Render.Flags3 conditions are met
220: 0x0DCF [0x1C] WAIT(80* ticks)
221: 0x0DD2 [0xAD] DUAL_ENTITY_SCHEDULER_HANDLER: Execute sub-case 2 with entities [LocalPlayer, LocalPlayer], work=311*
222: 0x0DDE [0x1C] WAIT(20* ticks)
223: 0x0DE1 [0x52] END_LOAD_SCHEDULER: End scheduler "s062" with entities [EventEntity, EventEntity], work=616*
224: 0x0DF0 [0x45] LOAD_SCHEDULED_TASK: Load scheduler "s063" with entities [EventEntity, EventEntity], work=[616*, 0*]
225: 0x0E01 [0x1C] WAIT(30* ticks)
226: 0x0E04 [0xC4] SCHEDULE_MAGIC_CASTING_ALT (arg=18): Unnamed NPC (ID: 17900032/0x01112200) casts magic 2213* on Unnamed NPC (ID: 17900030/0x011121FE)
227: 0x0E10 [0x1C] WAIT(10* ticks)
228: 0x0E13 [0x2C] CREATE_SCHEDULER_TASK: Create scheduler "kill" with entities [Unnamed NPC (ID: 17900031/0x011121FF), Unnamed NPC (ID: 17900031/0x011121FF)]
229: 0x0E20 [0x2C] CREATE_SCHEDULER_TASK: Create scheduler "kill" with entities [Unnamed NPC (ID: 17900032/0x01112200), Unnamed NPC (ID: 17900032/0x01112200)]
230: 0x0E2D [0x29] REQ_SET_WAIT(priority=0x08, entity_id=Lerene (ID: 17900010/0x011121EA), tag_num=0x57)
231: 0x0E34 [0x6B] STOP_AND_IDLE: Lerene (ID: 17900010/0x011121EA) stops current action and resets to idle (animation="idl0")
232: 0x0E3D [0x1C] WAIT(60* ticks)
233: 0x0E40 [0x5D] SET_MUSIC_VOLUME(volume=0*, fade_time=240*)
234: 0x0E45 [0x29] REQ_SET_WAIT(priority=0x08, entity_id=Lerene (ID: 17900010/0x011121EA), tag_num=0x1F)
235: 0x0E4C [0x29] REQ_SET_WAIT(priority=0x08, entity_id=Lerene (ID: 17900010/0x011121EA), tag_num=0x20)
236: 0x0E53 [0x1C] WAIT(180* ticks)
237: 0x0E56 [0x52] END_LOAD_SCHEDULER: End scheduler "s063" with entities [EventEntity, EventEntity], work=616*
238: 0x0E65 [0x45] LOAD_SCHEDULED_TASK: Load scheduler "00bl" with entities [LocalPlayer, LocalPlayer], work=[610*, 0*]
239: 0x0E76 [0x55] WAIT_LOAD_SCHEDULER: Wait for scheduler "00bl" with entities [LocalPlayer, LocalPlayer], work=610*
240: 0x0E85 [0x45] LOAD_SCHEDULED_TASK: Load scheduler "s064" with entities [EventEntity, EventEntity], work=[616*, 0*]
241: 0x0E96 [0x1C] WAIT(60* ticks)
242: 0x0E99 [0x9F] LOAD_SCHEDULED_TASK_ALT: Load scheduler "out0" with entities [Unnamed NPC (ID: 17900030/0x011121FE), Unnamed NPC (ID: 17900030/0x011121FE)], work=[209*, 0*]
243: 0x0EAA [0x2B] Lerene (ID: 17900010/0x011121EA) [7858*]:
    → "It worked!"
244: 0x0EB1 [0x23] WAIT_FOR_DIALOG_INTERACTION
245: 0x0EB2 [0x1C] WAIT(60* ticks)
246: 0x0EB5 [0x29] REQ_SET_WAIT(priority=0x08, entity_id=Lerene (ID: 17900010/0x011121EA), tag_num=0x21)
247: 0x0EBC [0x29] REQ_SET_WAIT(priority=0x08, entity_id=Lerene (ID: 17900010/0x011121EA), tag_num=0x22)
248: 0x0EC3 [0x27] REQ_SET(priority=0x08, entity_id=Lerene (ID: 17900010/0x011121EA), tag_num=0x59)
249: 0x0ECA [0x1C] WAIT(70* ticks)
250: 0x0ECD [0x52] END_LOAD_SCHEDULER: End scheduler "s064" with entities [EventEntity, EventEntity], work=616*
251: 0x0EDC [0x5C] MUSIC_CONTROL: Set Idle (Day) music to song 73*
252: 0x0EE0 [0x5C] MUSIC_CONTROL: Set Idle (Night) music to song 73*
253: 0x0EE4 [0x5C] MUSIC_CONTROL: Set Combat (Solo) music to song 57*
254: 0x0EE8 [0x5C] MUSIC_CONTROL: Set Combat (Party) music to song 57*
255: 0x0EEC [0x9A] WAIT_MUSIC_SERVER()
256: 0x0EED [0x45] LOAD_SCHEDULED_TASK: Load scheduler "s065" with entities [EventEntity, EventEntity], work=[616*, 0*]
257: 0x0EFE [0x2A] GET_REQ_LEVEL(level=8, entity_id=Lerene (ID: 17900010/0x011121EA))
258: 0x0F04 [0x2B] Lerene (ID: 17900010/0x011121EA) [7859*]:
    → "Would you look at that. This tree must be..."
259: 0x0F0B [0x23] WAIT_FOR_DIALOG_INTERACTION
260: 0x0F0C [0x1C] WAIT(120* ticks)
261: 0x0F0F [0x66] LOAD_EXT_SCHEDULER_MAIN: Load scheduler "thk1" with entities [Lerene (ID: 17900010/0x011121EA), Lerene (ID: 17900010/0x011121EA)], work=10*
262: 0x0F1E [0x2C] CREATE_SCHEDULER_TASK: Create scheduler "res0" with entities [LocalPlayer, LocalPlayer]
263: 0x0F2B [0x52] END_LOAD_SCHEDULER: End scheduler "s065" with entities [EventEntity, EventEntity], work=616*
264: 0x0F3A [0x45] LOAD_SCHEDULED_TASK: Load scheduler "s066" with entities [EventEntity, EventEntity], work=[616*, 0*]
265: 0x0F4B [0x9F] LOAD_SCHEDULED_TASK_ALT: Load scheduler "in00" with entities [LocalPlayer, LocalPlayer], work=[209*, 0*]
266: 0x0F5C [0x48] [System] [7860*]:
    → "Hidden energies flow forth from the mysterious tree..."
267: 0x0F5F [0x53] WAIT_SCHEDULER_TASK: Wait for scheduler "res0" with entities [LocalPlayer, LocalPlayer]
268: 0x0F6C [0x1C] WAIT(150* ticks)
269: 0x0F6F [0x9F] LOAD_SCHEDULED_TASK_ALT: Load scheduler "ikil" with entities [LocalPlayer, LocalPlayer], work=[209*, 0*]
270: 0x0F80 [0x52] END_LOAD_SCHEDULER: End scheduler "s066" with entities [EventEntity, EventEntity], work=616*
271: 0x0F8F [0x45] LOAD_SCHEDULED_TASK: Load scheduler "s068" with entities [EventEntity, EventEntity], work=[616*, 0*]
272: 0x0FA0 [0x9F] LOAD_SCHEDULED_TASK_ALT: Load scheduler "okil" with entities [Unnamed NPC (ID: 17900030/0x011121FE), Unnamed NPC (ID: 17900030/0x011121FE)], work=[209*, 0*]
273: 0x0FB1 [0x9F] LOAD_SCHEDULED_TASK_ALT: Load scheduler "loop" with entities [LocalPlayer, LocalPlayer], work=[209*, 0*]
274: 0x0FC2 [0x1C] WAIT(210* ticks)
275: 0x0FC5 [0x48] [System] [7861*]:
    → "...and coalesce into a crystallized bauble in <Player>'s hands!"
276: 0x0FC8 [0x9F] LOAD_SCHEDULED_TASK_ALT: Load scheduler "lkil" with entities [LocalPlayer, LocalPlayer], work=[209*, 0*]
277: 0x0FD9 [0x1C] WAIT(150* ticks)
278: 0x0FDC [0x2C] CREATE_SCHEDULER_TASK: Create scheduler "res2" with entities [LocalPlayer, LocalPlayer]
279: 0x0FE9 [0x53] WAIT_SCHEDULER_TASK: Wait for scheduler "res2" with entities [LocalPlayer, LocalPlayer]
280: 0x0FF6 [0x1C] WAIT(60* ticks)
281: 0x0FF9 [0x52] END_LOAD_SCHEDULER: End scheduler "s068" with entities [EventEntity, EventEntity], work=616*
282: 0x1008 [0x45] LOAD_SCHEDULED_TASK: Load scheduler "s067" with entities [EventEntity, EventEntity], work=[616*, 0*]
283: 0x1019 [0x66] LOAD_EXT_SCHEDULER_MAIN: Load scheduler "thk2" with entities [Lerene (ID: 17900010/0x011121EA), Lerene (ID: 17900010/0x011121EA)], work=10*
284: 0x1028 [0x53] WAIT_SCHEDULER_TASK: Wait for scheduler "thk2" with entities [Lerene (ID: 17900010/0x011121EA), Lerene (ID: 17900010/0x011121EA)]
285: 0x1035 [0x4A] Lerene (ID: 17900010/0x011121EA) looks at LocalPlayer
286: 0x103E [0x1C] WAIT(30* ticks)
287: 0x1041 [0x2B] Lerene (ID: 17900010/0x011121EA) [7862*]:
    → "This is superb! I must make detailed records of what has transpired here. Thank you, pioneer!"
288: 0x1048 [0x23] WAIT_FOR_DIALOG_INTERACTION
289: 0x1049 [0x66] LOAD_EXT_SCHEDULER_MAIN: Load scheduler "kas0" with entities [Lerene (ID: 17900010/0x011121EA), Lerene (ID: 17900010/0x011121EA)], work=11*
290: 0x1058 [0x1C] WAIT(80* ticks)

SUBROUTINE_105B:
291: 0x105B [0x29] REQ_SET_WAIT(priority=0x10, entity_id=Lerene (ID: 17900010/0x011121EA), tag_num=0x55)
292: 0x1062 [0x4E] SET_ENTITY_HIDE_FLAG: Hide Unnamed NPC (ID: 17900030/0x011121FE)
293: 0x1068 [0x4E] SET_ENTITY_HIDE_FLAG: Hide Unnamed NPC (ID: 17900031/0x011121FF)
294: 0x106E [0x4E] SET_ENTITY_HIDE_FLAG: Hide Unnamed NPC (ID: 17900032/0x01112200)
295: 0x1074 [0x45] LOAD_SCHEDULED_TASK: Load scheduler "fdo1" with entities [LocalPlayer, LocalPlayer], work=[200*, 0*]
296: 0x1085 [0x55] WAIT_LOAD_SCHEDULER: Wait for scheduler "fdo1" with entities [LocalPlayer, LocalPlayer], work=200*
297: 0x1094 [0x52] END_LOAD_SCHEDULER: End scheduler "s067" with entities [EventEntity, EventEntity], work=616*
298: 0x10A3 [0x52] END_LOAD_SCHEDULER: End scheduler "s036" with entities [EventEntity, EventEntity], work=616*
299: 0x10B2 [0x1C] WAIT(15* ticks)
300: 0x10B5 [0xAB] EventEntity->DespawnValue = 0* // Set despawn value
301: 0x10B9 [0x1C] WAIT(1* ticks)
302: 0x10BC [0xAB] EventEntity->UnknownFlag = 0 // Disable unknown flag
303: 0x10BE [0x46] CAMERA_CONTROL: Restore default settings
304: 0x10C0 [0x45] LOAD_SCHEDULED_TASK: Load scheduler "fdi2" with entities [LocalPlayer, LocalPlayer], work=[200*, 0*]
305: 0x10D1 [0x21] END_EVENT
306: 0x10D2 [0x00] END_REQSTACK()
```

#### Data or dead code:

```
# Dead code (unreachable instructions):
     0x0AC5 [0x01] GOTO 0x0AC8
```

### Event 27

#### Metadata

| Field        | Value      |
|--------------|------------|
| Entrypoint   | 0x10D3     |
| Data Size    | 3162 bytes |
| Instructions | 386        |

```
      00 01 02 03 04 05 06 07  08 09 0A 0B 0C 0D 0E 0F
      -- -- -- -- -- -- -- --  -- -- -- -- -- -- -- --
10D0:          42 03 00 00 09  10 45 00 80 F0 FF FF 7F     B.....E......
10E0: F0 FF FF 7F 66 64 6F 31  01 80 55 00 80 F0 FF FF  ....fdo1..U.....
10F0: 7F F0 FF FF 7F 66 64 6F  31 46 01 38 02 80 4E 00  .....fdo1F.8..N.
1100: F0 FF FF 7F 4E 00 01 22  11 01 2F 00 01 22 11 01  ....N.."../.."..
1110: 2F 00 02 22 11 01 94 01  01 22 11 01 94 01 02 22  /.."....."....."
1120: 11 01 94 01 F0 FF FF 7F  92 01 01 22 11 01 92 01  ..........."....
1130: 02 22 11 01 BA 01 22 11  01 07 80 08 80 09 80 0A  ."....".........
1140: 80 BA 02 22 11 01 76 80  77 80 11 80 78 80 BA F0  ..."..v.w...x...
1150: FF FF 7F 79 80 7A 80 11  80 7B 80 29 10 01 22 11  ...y.z...{.)..".
1160: 01 59 80 F0 FF FF 7F 80  01 22 11 01 80 02 22 11  .Y......."....".
1170: 01 45 51 80 F8 FF FF 7F  F8 FF FF 7F 73 30 33 37  .EQ.........s037
1180: 01 80 27 10 F0 FF FF 7F  21 1C 33 80 45 00 80 F0  ..'.....!.3.E...
1190: FF FF 7F F0 FF FF 7F 66  64 69 31 01 80 1C 52 80  .......fdi1...R.
11A0: 2A 10 F0 FF FF 7F 4A 01  22 11 01 F0 FF FF 7F 52  *.....J."......R
11B0: 51 80 F8 FF FF 7F F8 FF  FF 7F 73 30 33 37 02 87  Q.........s037..
11C0: 7F 13 80 80 DA 11 45 51  80 F8 FF FF 7F F8 FF FF  ......EQ........
11D0: 7F 73 30 36 39 01 80 01  5B 12 02 87 7F 15 80 80  .s069...[.......
11E0: F6 11 45 51 80 F8 FF FF  7F F8 FF FF 7F 73 30 36  ..EQ.........s06
11F0: 39 01 80 01 5B 12 02 87  7F 16 80 80 12 12 45 51  9...[.........EQ
1200: 80 F8 FF FF 7F F8 FF FF  7F 73 30 37 34 01 80 01  .........s074...
1210: 5B 12 02 87 7F 17 80 80  2E 12 45 51 80 F8 FF FF  [.........EQ....
1220: 7F F8 FF FF 7F 73 30 37  34 01 80 01 5B 12 02 87  .....s074...[...
1230: 7F 18 80 80 4A 12 45 51  80 F8 FF FF 7F F8 FF FF  ....J.EQ........
1240: 7F 73 30 36 39 01 80 01  5B 12 45 51 80 F8 FF FF  .s069...[.EQ....
1250: 7F F8 FF FF 7F 73 30 37  33 01 80 5D 01 80 01 80  .....s073..]....
1260: 27 08 F0 FF FF 7F 23 2B  01 22 11 01 7C 80 23 1C  '.....#+."..|.#.
1270: 3B 80 2B 01 22 11 01 7D  80 23 2A 08 F0 FF FF 7F  ;.+."..}.#*.....
1280: 1C 19 80 4A F0 FF FF 7F  01 22 11 01 52 51 80 F8  ...J....."..RQ..
1290: FF FF 7F F8 FF FF 7F 73  30 36 39 52 51 80 F8 FF  .......s069RQ...
12A0: FF 7F F8 FF FF 7F 73 30  37 33 52 51 80 F8 FF FF  ......s073RQ....
12B0: 7F F8 FF FF 7F 73 30 37  34 45 51 80 F8 FF FF 7F  .....s074EQ.....
12C0: F8 FF FF 7F 73 30 37 30  01 80 6F 76 F0 FF FF 7F  ....s070..ov....
12D0: 1C 36 80 2B 01 22 11 01  7E 80 1C 1D 80 29 10 01  .6.+."..~....)..
12E0: 22 11 01 5A 27 10 01 22  11 01 5B 52 51 80 F8 FF  "..Z'.."..[RQ...
12F0: FF 7F F8 FF FF 7F 73 30  37 30 45 51 80 F8 FF FF  ......s070EQ....
1300: 7F F8 FF FF 7F 73 30 37  31 01 80 1C 3B 80 2A 10  .....s071...;.*.
1310: 01 22 11 01 4A F0 FF FF  7F 01 22 11 01 6F 76 F0  ."..J....."..ov.
1320: FF FF 7F 29 10 01 22 11  01 58 5C 00 28 80 5C 01  ...).."..X\.(.\.
1330: 28 80 5C 02 29 80 5C 03  29 80 9A 5D 2A 80 01 80  (.\.).\.)..]*...
1340: 66 56 80 01 22 11 01 01  22 11 01 74 6C 73 30 2B  fV.."..."..tls0+
1350: 01 22 11 01 7F 80 23 53  01 22 11 01 01 22 11 01  ."....#S."..."..
1360: 74 6C 73 30 4E 00 02 22  11 01 29 10 02 22 11 01  tls0N.."..).."..
1370: 03 66 56 80 01 22 11 01  01 22 11 01 74 6C 6B 31  .fV.."..."..tlk1
1380: 53 01 22 11 01 01 22 11  01 74 6C 6B 31 79 00 01  S."..."..tlk1y..
1390: 22 11 01 02 22 11 01 27  10 02 22 11 01 04 1C 6D  "..."..'.."....m
13A0: 80 52 51 80 F8 FF FF 7F  F8 FF FF 7F 73 30 37 31  .RQ.........s071
13B0: 45 51 80 F8 FF FF 7F F8  FF FF 7F 73 30 39 34 01  EQ.........s094.
13C0: 80 1C 36 80 2A 10 02 22  11 01 4A 02 22 11 01 F0  ..6.*.."..J."...
13D0: FF FF 7F 6F 76 02 22 11  01 2B 02 22 11 01 80 80  ...ov."..+."....
13E0: 23 4A F0 FF FF 7F 02 22  11 01 52 51 80 F8 FF FF  #J....."..RQ....
13F0: 7F F8 FF FF 7F 73 30 39  34 45 51 80 F8 FF FF 7F  .....s094EQ.....
1400: F8 FF FF 7F 73 30 37 32  01 80 6F 76 F0 FF FF 7F  ....s072..ov....
1410: 29 10 02 22 11 01 02 1C  22 80 6E 02 22 11 01 81  ).."....".n."...
1420: 80 99 02 22 11 01 2B 02  22 11 01 82 80 23 4A F0  ..."..+."....#J.
1430: FF FF 7F 01 22 11 01 4A  02 22 11 01 01 22 11 01  ...."..J."..."..
1440: 52 51 80 F8 FF FF 7F F8  FF FF 7F 73 30 37 32 45  RQ.........s072E
1450: 51 80 F8 FF FF 7F F8 FF  FF 7F 73 30 37 35 01 80  Q.........s075..
1460: 7B 01 22 11 01 6F 76 F0  FF FF 7F 6F 76 02 22 11  {."..ov....ov.".
1470: 01 66 56 80 01 22 11 01  01 22 11 01 74 68 6B 31  .fV.."..."..thk1
1480: 2B 01 22 11 01 83 80 23  53 01 22 11 01 01 22 11  +."....#S."...".
1490: 01 74 68 6B 31 66 56 80  01 22 11 01 01 22 11 01  .thk1fV.."..."..
14A0: 74 68 6B 32 2B 01 22 11  01 84 80 23 53 01 22 11  thk2+."....#S.".
14B0: 01 01 22 11 01 74 68 6B  32 52 51 80 F8 FF FF 7F  .."..thk2RQ.....
14C0: F8 FF FF 7F 73 30 37 35  02 87 7F 13 80 80 E4 14  ....s075........
14D0: 45 51 80 F8 FF FF 7F F8  FF FF 7F 73 30 37 36 01  EQ.........s076.
14E0: 80 01 65 15 02 87 7F 15  80 80 00 15 45 51 80 F8  ..e.........EQ..
14F0: FF FF 7F F8 FF FF 7F 73  30 37 36 01 80 01 65 15  .......s076...e.
1500: 02 87 7F 16 80 80 1C 15  45 51 80 F8 FF FF 7F F8  ........EQ......
1510: FF FF 7F 73 30 37 38 01  80 01 65 15 02 87 7F 17  ...s078...e.....
1520: 80 80 38 15 45 51 80 F8  FF FF 7F F8 FF FF 7F 73  ..8.EQ.........s
1530: 30 37 38 01 80 01 65 15  02 87 7F 18 80 80 54 15  078...e.......T.
1540: 45 51 80 F8 FF FF 7F F8  FF FF 7F 73 30 37 36 01  EQ.........s076.
1550: 80 01 65 15 45 51 80 F8  FF FF 7F F8 FF FF 7F 73  ..e.EQ.........s
1560: 30 37 37 01 80 03 02 10  85 80 2B 01 22 11 01 86  077.......+."...
1570: 80 23 2B 01 22 11 01 87  80 23 52 51 80 F8 FF FF  .#+."....#RQ....
1580: 7F F8 FF FF 7F 73 30 37  36 52 51 80 F8 FF FF 7F  .....s076RQ.....
1590: F8 FF FF 7F 73 30 37 37  52 51 80 F8 FF FF 7F F8  ....s077RQ......
15A0: FF FF 7F 73 30 37 38 45  51 80 F8 FF FF 7F F8 FF  ...s078EQ.......
15B0: FF 7F 73 30 37 39 01 80  6E 01 22 11 01 88 80 99  ..s079..n.".....
15C0: 01 22 11 01 2B 01 22 11  01 89 80 23 1C 22 80 52  ."..+."....#.".R
15D0: 51 80 F8 FF FF 7F F8 FF  FF 7F 73 30 37 39 45 51  Q.........s079EQ
15E0: 80 F8 FF FF 7F F8 FF FF  7F 73 30 38 30 01 80 66  .........s080..f
15F0: 8A 80 02 22 11 01 02 22  11 01 74 6C 6B 30 2B 02  ..."..."..tlk0+.
1600: 22 11 01 8B 80 23 4A 01  22 11 01 02 22 11 01 53  "....#J."..."..S
1610: 02 22 11 01 02 22 11 01  74 6C 6B 30 6F 76 01 22  ."..."..tlk0ov."
1620: 11 01 66 8A 80 02 22 11  01 02 22 11 01 74 6C 6B  ..f..."..."..tlk
1630: 31 2B 01 22 11 01 8C 80  23 53 02 22 11 01 02 22  1+."....#S."..."
1640: 11 01 74 6C 6B 31 52 51  80 F8 FF FF 7F F8 FF FF  ..tlk1RQ........
1650: 7F 73 30 38 30 45 51 80  F8 FF FF 7F F8 FF FF 7F  .s080EQ.........
1660: 73 30 38 31 01 80 66 56  80 01 22 11 01 01 22 11  s081..fV.."...".
1670: 01 74 6C 73 30 1C 52 80  4A F0 FF FF 7F 02 22 11  .tls0.R.J.....".
1680: 01 1C 3B 80 6E 02 22 11  01 8D 80 99 02 22 11 01  ..;.n."......"..
1690: 66 56 80 01 22 11 01 01  22 11 01 74 6C 6B 31 53  fV.."..."..tlk1S
16A0: 01 22 11 01 01 22 11 01  74 6C 6B 31 1C 22 80 4A  ."..."..tlk1.".J
16B0: 01 22 11 01 F0 FF FF 7F  1C 6D 80 66 56 80 01 22  .".......m.fV.."
16C0: 11 01 01 22 11 01 74 6C  73 30 1C 6D 80 4A F0 FF  ..."..tls0.m.J..
16D0: FF 7F 01 22 11 01 1C 8E  80 4A 02 22 11 01 F0 FF  ...".....J."....
16E0: FF 7F 1C 4F 80 6E F0 FF  FF 7F 3C 80 99 F0 FF FF  ...O.n....<.....
16F0: 7F 66 56 80 01 22 11 01  01 22 11 01 74 6C 6B 31  .fV.."..."..tlk1
1700: 53 01 22 11 01 01 22 11  01 74 6C 6B 31 1C 22 80  S."..."..tlk1.".
1710: 52 51 80 F8 FF FF 7F F8  FF FF 7F 73 30 38 31 45  RQ.........s081E
1720: 51 80 F8 FF FF 7F F8 FF  FF 7F 73 30 38 32 01 80  Q.........s082..
1730: 4A 02 22 11 01 01 22 11  01 4A F0 FF FF 7F 01 22  J."..."..J....."
1740: 11 01 2B 01 22 11 01 8F  80 23 2B 02 22 11 01 90  ..+."....#+."...
1750: 80 23 6E F0 FF FF 7F 8D  80 99 F0 FF FF 7F 1C 22  .#n............"
1760: 80 7B 01 22 11 01 1C 1D  80 52 51 80 F8 FF FF 7F  .{.".....RQ.....
1770: F8 FF FF 7F 73 30 38 32  45 51 80 F8 FF FF 7F F8  ....s082EQ......
1780: FF FF 7F 73 30 38 33 01  80 6E 01 22 11 01 26 80  ...s083..n."..&.
1790: 99 01 22 11 01 2B 01 22  11 01 91 80 23 1C 1D 80  .."..+."....#...
17A0: 45 00 80 F0 FF FF 7F F0  FF FF 7F 66 64 6F 31 01  E..........fdo1.
17B0: 80 55 00 80 F0 FF FF 7F  F0 FF FF 7F 66 64 6F 31  .U..........fdo1
17C0: 52 51 80 F8 FF FF 7F F8  FF FF 7F 73 30 38 33 5D  RQ.........s083]
17D0: 01 80 63 80 4E 00 02 22  11 01 4E 00 00 22 11 01  ..c.N.."..N.."..
17E0: 2F 00 00 22 11 01 94 01  00 22 11 01 92 01 00 22  /.."....."....."
17F0: 11 01 59 05 00 22 11 01  01 02 87 7F 16 80 80 44  ..Y..".........D
1800: 18 4E 00 FF 21 11 01 2F  00 FF 21 11 01 94 01 FF  .N..!../..!.....
1810: 21 11 01 92 01 FF 21 11  01 29 08 FF 21 11 01 02  !.....!..)..!...
1820: 59 05 F0 FF FF 7F 01 BA  FF 21 11 01 92 80 93 80  Y........!......
1830: 11 80 94 80 BA F0 FF FF  7F 92 80 93 80 95 80 94  ................
1840: 80 01 9C 18 02 87 7F 17  80 80 8F 18 4E 00 FF 21  ............N..!
1850: 11 01 2F 00 FF 21 11 01  94 01 FF 21 11 01 92 01  ../..!.....!....
1860: FF 21 11 01 29 08 FF 21  11 01 02 59 05 F0 FF FF  .!..)..!...Y....
1870: 7F 01 BA FF 21 11 01 92  80 93 80 11 80 94 80 BA  ....!...........
1880: F0 FF FF 7F 92 80 93 80  95 80 94 80 01 9C 18 BA  ................
1890: F0 FF FF 7F 92 80 93 80  11 80 94 80 BA 01 22 11  ..............".
18A0: 01 96 80 97 80 98 80 99  80 BA 02 22 11 01 9A 80  ..........."....
18B0: 9B 80 11 80 9C 80 BA 00  22 11 01 9D 80 9E 80 9F  ........".......
18C0: 80 01 80 80 01 22 11 01  80 02 22 11 01 80 FF 21  ....."...."....!
18D0: 11 01 80 00 22 11 01 7B  01 22 11 01 7B 02 22 11  ...."..{."..{.".
18E0: 01 7B F0 FF FF 7F 45 51  80 F8 FF FF 7F F8 FF FF  .{....EQ........
18F0: 7F 73 30 33 38 01 80 1C  33 80 45 00 80 F0 FF FF  .s038...3.E.....
1900: 7F F0 FF FF 7F 66 64 69  31 01 80 1C 52 80 2B 01  .....fdi1...R.+.
1910: 22 11 01 A0 80 23 52 51  80 F8 FF FF 7F F8 FF FF  "....#RQ........
1920: 7F 73 30 33 38 45 51 80  F8 FF FF 7F F8 FF FF 7F  .s038EQ.........
1930: 73 30 39 32 01 80 9F A1  80 01 22 11 01 01 22 11  s092......"...".
1940: 01 66 72 73 74 01 80 1C  52 80 2B 01 22 11 01 A2  .frst...R.+."...
1950: 80 9F A1 80 01 22 11 01  01 22 11 01 6F 6B 65 78  ....."..."..okex
1960: 01 80 1C 6D 80 AD 02 A3  80 02 22 11 01 02 22 11  ...m......"...".
1970: 01 AD 02 A4 80 F0 FF FF  7F F0 FF FF 7F 1C 56 80  ..............V.
1980: 52 51 80 F8 FF FF 7F F8  FF FF 7F 73 30 39 32 45  RQ.........s092E
1990: 51 80 F8 FF FF 7F F8 FF  FF 7F 73 30 39 33 01 80  Q.........s093..
19A0: 1C A5 80 52 51 80 F8 FF  FF 7F F8 FF FF 7F 73 30  ...RQ.........s0
19B0: 39 33 45 51 80 F8 FF FF  7F F8 FF FF 7F 73 30 38  93EQ.........s08
19C0: 34 01 80 73 A6 80 00 22  11 01 00 22 11 01 1C 8E  4..s..."..."....
19D0: 80 45 A7 80 F0 FF FF 7F  F0 FF FF 7F 77 68 6F 30  .E..........who0
19E0: 01 80 55 A7 80 F0 FF FF  7F F0 FF FF 7F 77 68 6F  ..U..........who
19F0: 30 52 51 80 F8 FF FF 7F  F8 FF FF 7F 73 30 38 34  0RQ.........s084
1A00: 45 68 80 F0 FF FF 7F F0  FF FF 7F 30 30 62 6C 01  Eh.........00bl.
1A10: 80 55 68 80 F0 FF FF 7F  F0 FF FF 7F 30 30 62 6C  .Uh.........00bl
1A20: 1C 3B 80 2B 01 22 11 01  A8 80 23 45 51 80 F8 FF  .;.+."....#EQ...
1A30: FF 7F F8 FF FF 7F 73 30  38 35 01 80 1C 33 80 5C  ......s085...3.\
1A40: 00 40 80 5C 01 40 80 5C  02 29 80 5C 03 29 80 9A  .@.\.@.\.).\.)..
1A50: 45 A7 80 F0 FF FF 7F F0  FF FF 7F 77 68 69 31 01  E..........whi1.
1A60: 80 55 A7 80 F0 FF FF 7F  F0 FF FF 7F 77 68 69 31  .U..........whi1
1A70: 1C 22 80 4A F0 FF FF 7F  01 22 11 01 6E 01 22 11  .".J....."..n.".
1A80: 01 5B 80 99 01 22 11 01  03 02 10 A9 80 2B 01 22  .[...".......+."
1A90: 11 01 AA 80 23 52 51 80  F8 FF FF 7F F8 FF FF 7F  ....#RQ.........
1AA0: 73 30 38 35 45 51 80 F8  FF FF 7F F8 FF FF 7F 73  s085EQ.........s
1AB0: 30 38 36 01 80 6E 02 22  11 01 AB 80 99 02 22 11  086..n."......".
1AC0: 01 2B 02 22 11 01 AC 80  23 4A 01 22 11 01 F0 FF  .+."....#J."....
1AD0: FF 7F 2B 01 22 11 01 AD  80 23 4A 02 22 11 01 F0  ..+."....#J."...
1AE0: FF FF 7F 52 51 80 F8 FF  FF 7F F8 FF FF 7F 73 30  ...RQ.........s0
1AF0: 38 36 45 51 80 F8 FF FF  7F F8 FF FF 7F 73 30 38  86EQ.........s08
1B00: 37 01 80 66 56 80 01 22  11 01 01 22 11 01 70 61  7..fV.."..."..pa
1B10: 73 30 2B 01 22 11 01 AE  80 23 53 01 22 11 01 01  s0+."....#S."...
1B20: 22 11 01 70 61 73 30 24  AF 80 01 80 01 80 25 02  "..pas0$......%.
1B30: 00 10 01 80 00 6D 1C 52  51 80 F8 FF FF 7F F8 FF  .....m.RQ.......
1B40: FF 7F 73 30 38 37 45 51  80 F8 FF FF 7F F8 FF FF  ..s087EQ........
1B50: 7F 73 30 38 39 01 80 66  56 80 01 22 11 01 01 22  .s089..fV.."..."
1B60: 11 01 74 6C 73 30 2B 01  22 11 01 B0 80 23 2B 01  ..tls0+."....#+.
1B70: 22 11 01 B1 80 23 66 56  80 01 22 11 01 01 22 11  "....#fV.."...".
1B80: 01 74 6C 6B 31 53 01 22  11 01 01 22 11 01 74 6C  .tlk1S."..."..tl
1B90: 6B 31 4A F0 FF FF 7F 02  22 11 01 52 51 80 F8 FF  k1J....."..RQ...
1BA0: FF 7F F8 FF FF 7F 73 30  38 39 45 51 80 F8 FF FF  ......s089EQ....
1BB0: 7F F8 FF FF 7F 73 30 39  30 01 80 6F 76 F0 FF FF  .....s090..ov...
1BC0: 7F 66 8A 80 02 22 11 01  02 22 11 01 74 6C 6B 30  .f..."..."..tlk0
1BD0: 2B 02 22 11 01 B2 80 23  53 02 22 11 01 02 22 11  +."....#S."...".
1BE0: 01 74 6C 6B 30 4A 01 22  11 01 02 22 11 01 66 8A  .tlk0J."..."..f.
1BF0: 80 02 22 11 01 02 22 11  01 74 6C 6B 31 53 02 22  .."..."..tlk1S."
1C00: 11 01 02 22 11 01 74 6C  6B 31 4A 02 22 11 01 01  ..."..tlk1J."...
1C10: 22 11 01 6F 76 02 22 11  01 27 10 F0 FF FF 7F 22  "..ov."..'....."
1C20: 2B 01 22 11 01 B3 80 23  7B 01 22 11 01 1C 19 80  +."....#{.".....
1C30: 52 51 80 F8 FF FF 7F F8  FF FF 7F 73 30 39 30 45  RQ.........s090E
1C40: 51 80 F8 FF FF 7F F8 FF  FF 7F 73 30 39 31 01 80  Q.........s091..
1C50: 66 56 80 01 22 11 01 01  22 11 01 74 68 6B 31 2B  fV.."..."..thk1+
1C60: 01 22 11 01 B4 80 23 1C  36 80 01 C2 1C 02 00 10  ."....#.6.......
1C70: 26 80 00 C2 1C 52 51 80  F8 FF FF 7F F8 FF FF 7F  &....RQ.........
1C80: 73 30 38 37 45 51 80 F8  FF FF 7F F8 FF FF 7F 73  s087EQ.........s
1C90: 30 38 38 01 80 6E 01 22  11 01 18 80 99 01 22 11  088..n."......".
1CA0: 01 2B 01 22 11 01 B5 80  1C 4F 80 27 10 01 22 11  .+.".....O.'..".
1CB0: 01 5C 1C 6D 80 27 10 02  22 11 01 05 1C B6 80 01  .\.m.'..".......
1CC0: C2 1C 4E 01 FF 21 11 01  4E 01 00 22 11 01 45 00  ..N..!..N.."..E.
1CD0: 80 F0 FF FF 7F F0 FF FF  7F 66 64 6F 31 01 80 55  .........fdo1..U
1CE0: 00 80 F0 FF FF 7F F0 FF  FF 7F 66 64 6F 31 52 51  ..........fdo1RQ
1CF0: 80 F8 FF FF 7F F8 FF FF  7F 73 30 39 31 52 51 80  .........s091RQ.
1D00: F8 FF FF 7F F8 FF FF 7F  73 30 38 38 1C 33 80 AB  ........s088.3..
1D10: 11 01 80 1C 26 80 AB 0A  46 00 45 00 80 F0 FF FF  ....&...F.E.....
1D20: 7F F0 FF FF 7F 66 64 69  32 01 80 21 00           .....fdi2..!.   
```

#### Opcodes

```
  0: 0x10D3 [0x42] SET_CLI_EVENT_CANCEL_DATA()
  1: 0x10D4 [0x03] ExtData[1]->WorkLocal[0] = Work_Zone[9]
  2: 0x10D9 [0x45] LOAD_SCHEDULED_TASK: Load scheduler "fdo1" with entities [LocalPlayer, LocalPlayer], work=[200*, 0*]
  3: 0x10EA [0x55] WAIT_LOAD_SCHEDULER: Wait for scheduler "fdo1" with entities [LocalPlayer, LocalPlayer], work=200*
  4: 0x10F9 [0x46] CAMERA_CONTROL: Disable user control
  5: 0x10FB [0x38] SET_CLIENT_EVENT_MODE(mode=27*)
  6: 0x10FE [0x4E] SET_ENTITY_HIDE_FLAG: Show LocalPlayer
  7: 0x1104 [0x4E] SET_ENTITY_HIDE_FLAG: Show ??? (ID: 17900033/0x01112201)
  8: 0x110A [0x2F] ??? (ID: 17900033/0x01112201)->Render.Flags0 &= ~0x80000 // Bit 19
  9: 0x1110 [0x2F] ??? (ID: 17900034/0x01112202)->Render.Flags0 &= ~0x80000 // Bit 19
 10: 0x1116 [0x94] ??? (ID: 17900033/0x01112201)->Render.Flags3 ^= 0x01
 11: 0x111C [0x94] ??? (ID: 17900034/0x01112202)->Render.Flags3 ^= 0x01
 12: 0x1122 [0x94] LocalPlayer->Render.Flags3 ^= 0x01
 13: 0x1128 [0x92] ??? (ID: 17900033/0x01112201)->Render.Flags3 ^= 0x01
 14: 0x112E [0x92] ??? (ID: 17900034/0x01112202)->Render.Flags3 ^= 0x01
 15: 0x1134 [0xBA] SET_ENTITY_POSITION(entity_id=??? (ID: 17900033/0x01112201), pos_x=-102.143*, pos_z=19.850*, pos_y=-183.882*, direction=145.5°*)
 16: 0x1141 [0xBA] SET_ENTITY_POSITION(entity_id=??? (ID: 17900034/0x01112202), pos_x=-102.331*, pos_z=17.379*, pos_y=-178.000*, direction=210.3°*)
 17: 0x114E [0xBA] SET_ENTITY_POSITION(entity_id=LocalPlayer, pos_x=-103.942*, pos_z=15.730*, pos_y=-178.000*, direction=160.0°*)
 18: 0x115B [0x29] REQ_SET_WAIT(priority=0x10, entity_id=??? (ID: 17900033/0x01112201), tag_num=0x59)
 19: 0x1162 [0x80] LOAD_WAIT(entity=LocalPlayer)
 20: 0x1167 [0x80] LOAD_WAIT(entity=??? (ID: 17900033/0x01112201))
 21: 0x116C [0x80] LOAD_WAIT(entity=??? (ID: 17900034/0x01112202))
 22: 0x1171 [0x45] LOAD_SCHEDULED_TASK: Load scheduler "s037" with entities [EventEntity, EventEntity], work=[616*, 0*]
 23: 0x1182 [0x27] REQ_SET(priority=0x10, entity_id=LocalPlayer, tag_num=0x21)
 24: 0x1189 [0x1C] WAIT(15* ticks)
 25: 0x118C [0x45] LOAD_SCHEDULED_TASK: Load scheduler "fdi1" with entities [LocalPlayer, LocalPlayer], work=[200*, 0*]
 26: 0x119D [0x1C] WAIT(150* ticks)
 27: 0x11A0 [0x2A] GET_REQ_LEVEL(level=16, entity_id=LocalPlayer)
 28: 0x11A6 [0x4A] ??? (ID: 17900033/0x01112201) looks at LocalPlayer
 29: 0x11AF [0x52] END_LOAD_SCHEDULER: End scheduler "s037" with entities [EventEntity, EventEntity], work=616*
 30: 0x11BE [0x02] IF !(LocalPlayer->Race == 3*) GOTO 0x11DA
 31: 0x11C6 [0x45] LOAD_SCHEDULED_TASK: Load scheduler "s069" with entities [EventEntity, EventEntity], work=[616*, 0*]
 32: 0x11D7 [0x01] GOTO 0x125B
 33: 0x11DA [0x02] IF !(LocalPlayer->Race == 4*) GOTO 0x11F6
 34: 0x11E2 [0x45] LOAD_SCHEDULED_TASK: Load scheduler "s069" with entities [EventEntity, EventEntity], work=[616*, 0*]
 35: 0x11F3 [0x01] GOTO 0x125B
 36: 0x11F6 [0x02] IF !(LocalPlayer->Race == 5*) GOTO 0x1212
 37: 0x11FE [0x45] LOAD_SCHEDULED_TASK: Load scheduler "s074" with entities [EventEntity, EventEntity], work=[616*, 0*]
 38: 0x120F [0x01] GOTO 0x125B
 39: 0x1212 [0x02] IF !(LocalPlayer->Race == 6*) GOTO 0x122E
 40: 0x121A [0x45] LOAD_SCHEDULED_TASK: Load scheduler "s074" with entities [EventEntity, EventEntity], work=[616*, 0*]
 41: 0x122B [0x01] GOTO 0x125B
 42: 0x122E [0x02] IF !(LocalPlayer->Race == 8*) GOTO 0x124A
 43: 0x1236 [0x45] LOAD_SCHEDULED_TASK: Load scheduler "s069" with entities [EventEntity, EventEntity], work=[616*, 0*]
 44: 0x1247 [0x01] GOTO 0x125B
 45: 0x124A [0x45] LOAD_SCHEDULED_TASK: Load scheduler "s073" with entities [EventEntity, EventEntity], work=[616*, 0*]

SUBROUTINE_125B:
 46: 0x125B [0x5D] SET_MUSIC_VOLUME(volume=0*, fade_time=0*)
 47: 0x1260 [0x27] REQ_SET(priority=0x08, entity_id=LocalPlayer, tag_num=0x23)
 48: 0x1267 [0x2B] ??? (ID: 17900033/0x01112201) [7863*]:
    → "So, you're the rune fencer the Inventarus' Coalition dispatched?"
 49: 0x126E [0x23] WAIT_FOR_DIALOG_INTERACTION
 50: 0x126F [0x1C] WAIT(60* ticks)
 51: 0x1272 [0x2B] ??? (ID: 17900033/0x01112201) [7864*]:
    → "Up here, silly-willy."
 52: 0x1279 [0x23] WAIT_FOR_DIALOG_INTERACTION
 53: 0x127A [0x2A] GET_REQ_LEVEL(level=8, entity_id=LocalPlayer)
 54: 0x1280 [0x1C] WAIT(30* ticks)
 55: 0x1283 [0x4A] LocalPlayer looks at ??? (ID: 17900033/0x01112201)
 56: 0x128C [0x52] END_LOAD_SCHEDULER: End scheduler "s069" with entities [EventEntity, EventEntity], work=616*
 57: 0x129B [0x52] END_LOAD_SCHEDULER: End scheduler "s073" with entities [EventEntity, EventEntity], work=616*
 58: 0x12AA [0x52] END_LOAD_SCHEDULER: End scheduler "s074" with entities [EventEntity, EventEntity], work=616*
 59: 0x12B9 [0x45] LOAD_SCHEDULED_TASK: Load scheduler "s070" with entities [EventEntity, EventEntity], work=[616*, 0*]
 60: 0x12CA [0x6F] WAIT_FRAME_DELAY: Yield until WaitTime reaches zero
 61: 0x12CB [0x76] CHECK_ENTITY_RENDER_FLAGS: Wait until LocalPlayer Render.Flags0 and Render.Flags3 conditions are met
 62: 0x12D0 [0x1C] WAIT(80* ticks)
 63: 0x12D3 [0x2B] ??? (ID: 17900033/0x01112201) [7865*]:
    → "Heh heh, I guess I'll just have to floataru on down to you."
 64: 0x12DA [0x1C] WAIT(70* ticks)
 65: 0x12DD [0x29] REQ_SET_WAIT(priority=0x10, entity_id=??? (ID: 17900033/0x01112201), tag_num=0x5A)
 66: 0x12E4 [0x27] REQ_SET(priority=0x10, entity_id=??? (ID: 17900033/0x01112201), tag_num=0x5B)
 67: 0x12EB [0x52] END_LOAD_SCHEDULER: End scheduler "s070" with entities [EventEntity, EventEntity], work=616*
 68: 0x12FA [0x45] LOAD_SCHEDULED_TASK: Load scheduler "s071" with entities [EventEntity, EventEntity], work=[616*, 0*]
 69: 0x130B [0x1C] WAIT(60* ticks)
 70: 0x130E [0x2A] GET_REQ_LEVEL(level=16, entity_id=??? (ID: 17900033/0x01112201))
 71: 0x1314 [0x4A] LocalPlayer looks at ??? (ID: 17900033/0x01112201)
 72: 0x131D [0x6F] WAIT_FRAME_DELAY: Yield until WaitTime reaches zero
 73: 0x131E [0x76] CHECK_ENTITY_RENDER_FLAGS: Wait until LocalPlayer Render.Flags0 and Render.Flags3 conditions are met
 74: 0x1323 [0x29] REQ_SET_WAIT(priority=0x10, entity_id=??? (ID: 17900033/0x01112201), tag_num=0x58)
 75: 0x132A [0x5C] MUSIC_CONTROL: Set Idle (Day) music to song 104*
 76: 0x132E [0x5C] MUSIC_CONTROL: Set Idle (Night) music to song 104*
 77: 0x1332 [0x5C] MUSIC_CONTROL: Set Combat (Solo) music to song 57*
 78: 0x1336 [0x5C] MUSIC_CONTROL: Set Combat (Party) music to song 57*
 79: 0x133A [0x9A] WAIT_MUSIC_SERVER()
 80: 0x133B [0x5D] SET_MUSIC_VOLUME(volume=127*, fade_time=0*)
 81: 0x1340 [0x66] LOAD_EXT_SCHEDULER_MAIN: Load scheduler "tls0" with entities [??? (ID: 17900033/0x01112201), ??? (ID: 17900033/0x01112201)], work=40*
 82: 0x134F [0x2B] ??? (ID: 17900033/0x01112201) [7866*]:
    → "Greetings, pioneer. My name's Mikolulu, and I've been out surveying this territory at Amchuchu's behestaru."
 83: 0x1356 [0x23] WAIT_FOR_DIALOG_INTERACTION
 84: 0x1357 [0x53] WAIT_SCHEDULER_TASK: Wait for scheduler "tls0" with entities [??? (ID: 17900033/0x01112201), ??? (ID: 17900033/0x01112201)]
 85: 0x1364 [0x4E] SET_ENTITY_HIDE_FLAG: Show ??? (ID: 17900034/0x01112202)
 86: 0x136A [0x29] REQ_SET_WAIT(priority=0x10, entity_id=??? (ID: 17900034/0x01112202), tag_num=0x03)
 87: 0x1371 [0x66] LOAD_EXT_SCHEDULER_MAIN: Load scheduler "tlk1" with entities [??? (ID: 17900033/0x01112201), ??? (ID: 17900033/0x01112201)], work=40*
 88: 0x1380 [0x53] WAIT_SCHEDULER_TASK: Wait for scheduler "tlk1" with entities [??? (ID: 17900033/0x01112201), ??? (ID: 17900033/0x01112201)]
 89: 0x138D [0x79] ??? (ID: 17900033/0x01112201) looks at ??? (ID: 17900034/0x01112202) (Basic look)
 90: 0x1397 [0x27] REQ_SET(priority=0x10, entity_id=??? (ID: 17900034/0x01112202), tag_num=0x04)
 91: 0x139E [0x1C] WAIT(20* ticks)
 92: 0x13A1 [0x52] END_LOAD_SCHEDULER: End scheduler "s071" with entities [EventEntity, EventEntity], work=616*
 93: 0x13B0 [0x45] LOAD_SCHEDULED_TASK: Load scheduler "s094" with entities [EventEntity, EventEntity], work=[616*, 0*]
 94: 0x13C1 [0x1C] WAIT(80* ticks)
 95: 0x13C4 [0x2A] GET_REQ_LEVEL(level=16, entity_id=??? (ID: 17900034/0x01112202))
 96: 0x13CA [0x4A] ??? (ID: 17900034/0x01112202) looks at LocalPlayer
