# 17900035

## Common Data

| Field            | Value                     |
|------------------|---------------------------|
| Zone             | Outer Ra'Kaznar (ID: 274) |
| Block Size       | 168 bytes                 |
| Total Events     | 4                         |
| References Count | 10                        |

## List of Events

| Event ID                 | Entrypoint   |   Size |   Instructions |
|--------------------------|--------------|--------|----------------|
| [65535](#event-65535)    | 0x0000       |      1 |              1 |
| [54](#event-54)          | 0x0001       |     21 |              2 |
| [65535.1](#event-655351) | 0x0016       |     41 |              5 |
| [65535.2](#event-655352) | 0x003F       |     33 |              3 |

## DAT References (imed_data)

|   Index | Hex Value   |   Dec Value |
|---------|-------------|-------------|
|       0 | 0x0006      |           6 |
|       1 | 0x0004      |           4 |
|       2 | 0x0000      |           0 |
|       3 | 0x008B      |         139 |
|       4 | 0x0002      |           2 |
|       5 | 0x00BF      |         191 |
|       6 | 0x010E      |         270 |
|       7 | 0x0096      |         150 |
|       8 | 0x0028      |          40 |
|       9 | 0x00AC      |         172 |

## Events

### Event 65535

#### Metadata

| Field        | Value   |
|--------------|---------|
| Entrypoint   | 0x0000  |
| Data Size    | 1 bytes |
| Instructions | 1       |

```
      00 01 02 03 04 05 06 07  08 09 0A 0B 0C 0D 0E 0F
      -- -- -- -- -- -- -- --  -- -- -- -- -- -- -- --
0000: 00                                                .               
```

#### Opcodes

```
  0: 0x0000 [0x00] END_REQSTACK()
```

### Event 54

#### Metadata

| Field        | Value    |
|--------------|----------|
| Entrypoint   | 0x0001   |
| Data Size    | 21 bytes |
| Instructions | 2        |

```
      00 01 02 03 04 05 06 07  08 09 0A 0B 0C 0D 0E 0F
      -- -- -- -- -- -- -- --  -- -- -- -- -- -- -- --
0000:    B6 0B 00 80 01 80 02  80 03 80 02 80 04 80 04   ...............
0010: 80 02 80 02 80 00                                 ......          
```

#### Opcodes

```
  0: 0x0001 [0xB6] ENTITY_APPEARANCE_HANDLER(case=Full entity look, race=6*, hair=4*, head=0*, body=139*, hands=0*, legs=2*, feet=2*, main=0*, sub=0*)
  1: 0x0015 [0x00] END_REQSTACK()
```

### Event 65535.1

#### Metadata

| Field        | Value    |
|--------------|----------|
| Entrypoint   | 0x0016   |
| Data Size    | 41 bytes |
| Instructions | 5        |

```
      00 01 02 03 04 05 06 07  08 09 0A 0B 0C 0D 0E 0F
      -- -- -- -- -- -- -- --  -- -- -- -- -- -- -- --
0010:                   9F 05  80 F8 FF FF 7F F8 FF FF        ..........
0020: 7F 66 72 73 74 02 80 1C  06 80 9F 05 80 F8 FF FF  .frst...........
0030: 7F F8 FF FF 7F 6E 67 30  30 02 80 1C 07 80 00     .....ng00...... 
```

#### Opcodes

```
  0: 0x0016 [0x9F] LOAD_SCHEDULED_TASK_ALT: Load scheduler "frst" with entities [EventEntity, EventEntity], work=[191*, 0*]
  1: 0x0027 [0x1C] WAIT(270* ticks)
  2: 0x002A [0x9F] LOAD_SCHEDULED_TASK_ALT: Load scheduler "ng00" with entities [EventEntity, EventEntity], work=[191*, 0*]
  3: 0x003B [0x1C] WAIT(150* ticks)
  4: 0x003E [0x00] END_REQSTACK()
```

### Event 65535.2

#### Metadata

| Field        | Value    |
|--------------|----------|
| Entrypoint   | 0x003F   |
| Data Size    | 33 bytes |
| Instructions | 3        |

```
      00 01 02 03 04 05 06 07  08 09 0A 0B 0C 0D 0E 0F
      -- -- -- -- -- -- -- --  -- -- -- -- -- -- -- --
0030:                                               5F                 _
0040: 06 08 80 F8 FF FF 7F F8  FF FF 7F 67 6B 72 30 09  ...........gkr0.
0050: 80 5F 07 F8 FF FF 7F F8  FF FF 7F 67 6B 72 30 00  ._.........gkr0.
```

#### Opcodes

```
  0: 0x003F [0x5F] MULTI_HANDLER_COMPLEX(mode=0x06 - Load ext scheduler with flag (OpCode 0x5B mode 1, flag 1), ref=40*, entity1=EventEntity, entity2=EventEntity, string="gkr0", extra=172*)
  1: 0x0051 [0x5F] MULTI_HANDLER_COMPLEX(mode=0x07 - Wait scheduler task (OpCode 0x53))
  2: 0x005F [0x00] END_REQSTACK()
```
