# 0x7FFFFFF0 - Zone Events

## Common Data

| Field            | Value                     |
|------------------|---------------------------|
| Zone             | Outer Ra'Kaznar (ID: 274) |
| Block Size       | 5472 bytes                |
| Total Events     | 38                        |
| References Count | 218                       |

## List of Events

| Event ID                   | Entrypoint   |   Size |   Instructions |
|----------------------------|--------------|--------|----------------|
| [65535](#event-65535)      | 0x0000       |      1 |              1 |
| [65534](#event-65534)      | 0x0001       |      1 |              1 |
| [65535.1](#event-655351)   | 0x0002       |     15 |              5 |
| [65535.2](#event-655352)   | 0x0011       |      7 |              3 |
| [65535.3](#event-655353)   | 0x0018       |      7 |              3 |
| [65535.4](#event-655354)   | 0x001F       |     25 |              7 |
| [65535.5](#event-655355)   | 0x0038       |     15 |              5 |
| [65535.6](#event-655356)   | 0x0047       |     15 |              5 |
| [65535.7](#event-655357)   | 0x0056       |     22 |              8 |
| [65535.8](#event-655358)   | 0x006C       |    181 |             43 |
| [65535.9](#event-655359)   | 0x0121       |      6 |              2 |
| [65535.10](#event-6553510) | 0x0127       |      6 |              2 |
| [65535.11](#event-6553511) | 0x012D       |      6 |              2 |
| [65535.12](#event-6553512) | 0x0133       |      6 |              2 |
| [65535.13](#event-6553513) | 0x0139       |     27 |              3 |
| [65535.14](#event-6553514) | 0x0154       |     24 |              4 |
| [65535.15](#event-6553515) | 0x016C       |     24 |              4 |
| [65535.16](#event-6553516) | 0x0184       |     37 |              5 |
| [65535.17](#event-6553517) | 0x01A9       |     37 |              5 |
| [65535.18](#event-6553518) | 0x01CE       |     27 |              5 |
| [65535.19](#event-6553519) | 0x01E9       |     10 |              2 |
| [65535.20](#event-6553520) | 0x01F3       |     14 |              4 |
| [65535.21](#event-6553521) | 0x0201       |     10 |              2 |
| [65535.22](#event-6553522) | 0x020B       |     14 |              4 |
| [65535.23](#event-6553523) | 0x0219       |     14 |              4 |
| [65535.24](#event-6553524) | 0x0227       |     10 |              2 |
| [65535.25](#event-6553525) | 0x0231       |     14 |              4 |
| [65535.26](#event-6553526) | 0x023F       |     55 |             12 |
| [65535.27](#event-6553527) | 0x0276       |     10 |              2 |
| [65535.28](#event-6553528) | 0x0280       |     14 |              4 |
| [65535.29](#event-6553529) | 0x028E       |     55 |             12 |
| [65535.30](#event-6553530) | 0x02C5       |      3 |              2 |
| [65535.31](#event-6553531) | 0x02C8       |     23 |              7 |
| [65535.32](#event-6553532) | 0x02DF       |     17 |              5 |
| [65535.33](#event-6553533) | 0x02F0       |     19 |              5 |
| [65535.34](#event-6553534) | 0x0303       |     16 |              4 |
| [5516](#event-5516)        | 0x0313       |   3514 |            742 |
| [5504](#event-5504)        | 0x10CD       |    128 |             14 |

## DAT References (imed_data)

|   Index | Hex Value   |   Dec Value |
|---------|-------------|-------------|
|       0 | 0x000D      |          13 |
|       1 | 0xFFF1A858  |  4294027352 |
|       2 | 0xFFFFB1D2  |  4294947282 |
|       3 | 0xFFFD13F4  |  4294775796 |
|       4 | 0x0001      |           1 |
|       5 | 0x0000      |           0 |
|       6 | 0x0028      |          40 |
|       7 | 0xFFFDC53D  |  4294821181 |
|       8 | 0x5C44F     |      377935 |
|       9 | 0xFFFD19D0  |  4294777296 |
|      10 | 0xFFFDE81E  |  4294830110 |
|      11 | 0x5BBFA     |      375802 |
|      12 | 0xFFFD18D6  |  4294777046 |
|      13 | 0xFFFE6BFF  |  4294863871 |
|      14 | 0x5A697     |      370327 |
|      15 | 0xFFFE89AB  |  4294871467 |
|      16 | 0x5A145     |      368965 |
|      17 | 0xFFFD19D1  |  4294777297 |
|      18 | 0xFFFE65E1  |  4294862305 |
|      19 | 0x5A1B0     |      369072 |
|      20 | 0xFFFE9167  |  4294873447 |
|      21 | 0x59755     |      366421 |
|      22 | 0xFFFE9301  |  4294873857 |
|      23 | 0x58838     |      362552 |
|      24 | 0x0005      |           5 |
|      25 | 0x0002      |           2 |
|      26 | 0x000A      |          10 |
|      27 | 0x0009      |           9 |
|      28 | 0x0046      |          70 |
|      29 | 0x008C      |         140 |
|      30 | 0x00D2      |         210 |
|      31 | 0xFFFF3FF8  |  4294918136 |
|      32 | 0xFFFF9953  |  4294941011 |
|      33 | 0xFFFD437C  |  4294787964 |
|      34 | 0x01EF      |         495 |
|      35 | 0xFFFF15C4  |  4294907332 |
|      36 | 0xFFFF9962  |  4294941026 |
|      37 | 0xAF7A8     |      718760 |
|      38 | 0x1C852     |      116818 |
|      39 | 0x1869F     |       99999 |
|      40 | 0x0FAE      |        4014 |
|      41 | 0xB2E8E     |      732814 |
|      42 | 0x1D192     |      119186 |
|      43 | 0xFFF8FB20  |  4294507296 |
|      44 | 0x6D26      |       27942 |
|      45 | 0xFFFDDD82  |  4294827394 |
|      46 | 0x0425      |        1061 |
|      47 | 0x4A38      |       19000 |
|      48 | 0xFFFDDD20  |  4294827296 |
|      49 | 0x002D      |          45 |
|      50 | 0xFFFDE108  |  4294828296 |
|      51 | 0x0400      |        1024 |
|      52 | 0x8D9A0     |      580000 |
|      53 | 0x6B8B      |       27531 |
|      54 | 0x186A0     |      100000 |
|      55 | 0x4AA6      |       19110 |
|      56 | 0x18678     |       99960 |
|      57 | 0x0026      |          38 |
|      58 | 0x182B8     |       99000 |
|      59 | 0xFFFCBF36  |  4294754102 |
|      60 | 0xFFFDD29E  |  4294824606 |
|      61 | 0xFFFDB610  |  4294817296 |
|      62 | 0x001E      |          30 |
|      63 | 0xFFFE62A0  |  4294861472 |
|      64 | 0x41BE      |       16830 |
|      65 | 0xFFFD48B0  |  4294789296 |
|      66 | 0x001D      |          29 |
|      67 | 0x0006      |           6 |
|      68 | 0x000B      |          11 |
|      69 | 0x000C      |          12 |
|      70 | 0x000F      |          15 |
|      71 | 0x0010      |          16 |
|      72 | 0x0320      |         800 |
|      73 | 0x0A51      |        2641 |
|      74 | 0x1EF4      |        7924 |
|      75 | 0x1EF5      |        7925 |
|      76 | 0x40000000  |  1073741824 |
|      77 | 0x1EFF      |        7935 |
|      78 | 0x1F00      |        7936 |
|      79 | 0x1E53      |        7763 |
|      80 | 0x1E50      |        7760 |
|      81 | 0x003C      |          60 |
|      82 | 0x0078      |         120 |
|      83 | 0x0003      |           3 |
|      84 | 0x0004      |           4 |
|      85 | 0x0007      |           7 |
|      86 | 0x0008      |           8 |
|      87 | 0x1E5C      |        7772 |
|      88 | 0x005A      |          90 |
|      89 | 0x00C9      |         201 |
|      90 | 0x00C8      |         200 |
|      91 | 0x0348      |         840 |
|      92 | 0x0349      |         841 |
|      93 | 0x034A      |         842 |
|      94 | 0x034B      |         843 |
|      95 | 0x034C      |         844 |
|      96 | 0x034D      |         845 |
|      97 | 0x034E      |         846 |
|      98 | 0x034F      |         847 |
|      99 | 0x0350      |         848 |
|     100 | 0x0351      |         849 |
|     101 | 0x0352      |         850 |
|     102 | 0x0353      |         851 |
|     103 | 0x0354      |         852 |
|     104 | 0x0355      |         853 |
|     105 | 0x0356      |         854 |
|     106 | 0x0357      |         855 |
|     107 | 0x0384      |         900 |
|     108 | 0x0385      |         901 |
|     109 | 0x0103      |         259 |
|     110 | 0x0108      |         264 |
|     111 | 0x010F      |         271 |
|     112 | 0x00E5      |         229 |
|     113 | 0x035F      |         863 |
|     114 | 0x0360      |         864 |
|     115 | 0x0361      |         865 |
|     116 | 0x0362      |         866 |
|     117 | 0x0363      |         867 |
|     118 | 0x0364      |         868 |
|     119 | 0x0365      |         869 |
|     120 | 0x0366      |         870 |
|     121 | 0x0367      |         871 |
|     122 | 0x5CC60     |      380000 |
|     123 | 0xFFFE5250  |  4294857296 |
|     124 | 0xFFFB1E00  |  4294647296 |
|     125 | 0x4650      |       18000 |
|     126 | 0x61A80     |      400000 |
|     127 | 0x2BF20     |      180000 |
|     128 | 0xFFFFF060  |  4294963296 |
|     129 | 0xFFFD40E0  |  4294787296 |
|     130 | 0xFFFE7960  |  4294867296 |
|     131 | 0xFFFDE05A  |  4294828122 |
|     132 | 0xFFFE7493  |  4294866067 |
|     133 | 0x48C0A     |      297994 |
|     134 | 0xFFFBBA40  |  4294687296 |
|     135 | 0xFFFC3F10  |  4294721296 |
|     136 | 0xD6D80     |      880000 |
|     137 | 0x445C0     |      280000 |
|     138 | 0x4AB50     |      306000 |
|     139 | 0xFFFDA864  |  4294813796 |
|     140 | 0xFFFD3CF8  |  4294786296 |
|     141 | 0x5AD20     |      372000 |
|     142 | 0xFFFD2D58  |  4294782296 |
|     143 | 0x1F40      |        8000 |
|     144 | 0xFFFB3570  |  4294653296 |
|     145 | 0x57E40     |      360000 |
|     146 | 0x1B580     |      112000 |
|     147 | 0x1CAFC     |      117500 |
|     148 | 0xFFFBC4B1  |  4294689969 |
|     149 | 0xD2F00     |      864000 |
|     150 | 0x493E0     |      300000 |
|     151 | 0x3EFD0     |      258000 |
|     152 | 0xFFF8C088  |  4294492296 |
|     153 | 0xFFF94364  |  4294525796 |
|     154 | 0x4E20      |       20000 |
|     155 | 0xFFFA81C0  |  4294607296 |
|     156 | 0x21B10     |      138000 |
|     157 | 0xFFF97050  |  4294537296 |
|     158 | 0x75300     |      480000 |
|     159 | 0xFFFC0860  |  4294707296 |
|     160 | 0xDAC0      |       56000 |
|     161 | 0xFFFACFE0  |  4294627296 |
|     162 | 0x4936F     |      299887 |
|     163 | 0xE819      |       59417 |
|     164 | 0x52EE2     |      339682 |
|     165 | 0x35B60     |      220000 |
|     166 | 0xA410      |       42000 |
|     167 | 0x88B8      |       35000 |
|     168 | 0xFFF9E580  |  4294567296 |
|     169 | 0xFFFA33A0  |  4294587296 |
|     170 | 0x3A980     |      240000 |
|     171 | 0x69398     |      431000 |
|     172 | 0xFFF958E0  |  4294531296 |
|     173 | 0x1C138     |      115000 |
|     174 | 0xFFF9BE70  |  4294557296 |
|     175 | 0xFFF9B2B8  |  4294554296 |
|     176 | 0xEA60      |       60000 |
|     177 | 0x589EF     |      362991 |
|     178 | 0xFFF5EDE0  |  4294307296 |
|     179 | 0xFFFECB68  |  4294888296 |
|     180 | 0xFFFC5680  |  4294727296 |
|     181 | 0xFFFFE890  |  4294961296 |
|     182 | 0x7530      |       30000 |
|     183 | 0x0FA0      |        4000 |
|     184 | 0xFFFFFE0C  |  4294966796 |
|     185 | 0x1068      |        4200 |
|     186 | 0x0FEF      |        4079 |
|     187 | 0x1099      |        4249 |
|     188 | 0x0F0E      |        3854 |
|     189 | 0x7668      |       30312 |
|     190 | 0x11170     |       70000 |
|     191 | 0x10F7C     |       69500 |
|     192 | 0x184AC     |       99500 |
|     193 | 0xFFFFE958  |  4294961496 |
|     194 | 0x7857      |       30807 |
|     195 | 0x7524      |       29988 |
|     196 | 0xFFFFE796  |  4294961046 |
|     197 | 0xFFFFCF2C  |  4294954796 |
|     198 | 0x03E8      |        1000 |
|     199 | 0x74AA      |       29866 |
|     200 | 0xFFFFFFC4  |  4294967236 |
|     201 | 0xFFFD73A8  |  4294800296 |
|     202 | 0x0800      |        2048 |
|     203 | 0x0E00      |        3584 |
|     204 | 0x0C18      |        3096 |
|     205 | 0x07F2      |        2034 |
|     206 | 0x0C00      |        3072 |
|     207 | 0x0DE8      |        3560 |
|     208 | 0x0600      |        1536 |
|     209 | 0x0A00      |        2560 |
|     210 | 0x0DFA      |        3578 |
|     211 | 0x0036      |          54 |
|     212 | 0x0038      |          56 |
|     213 | 0x0037      |          55 |
|     214 | 0x0039      |          57 |
|     215 | 0x0044      |          68 |
|     216 | 0x0113      |         275 |
|     217 | 0x0032      |          50 |

## String References

- **7760**: You cannot enter at this time. Please wait a moment and try again.
- **7763**: Your request for entry is being considered...
- **7772**: Now permeating the mists surrounding the [fracture/obscured domain].
- **7924**: Your $3 emits a strange pulse!
- **7925**: Now what? [Use the $3./Do nothing.]
- **7935**: Expend your $3 and enter the obscured domain with your alliance members?
- **7936**: Proceed? [Yes./No.]

## Events

### Event 65535

#### Metadata

| Field        | Value   |
|--------------|---------|
| Entrypoint   | 0x0000  |
| Data Size    | 1 bytes |
| Instructions | 1       |

```
      00 01 02 03 04 05 06 07  08 09 0A 0B 0C 0D 0E 0F
      -- -- -- -- -- -- -- --  -- -- -- -- -- -- -- --
0000: 00                                                .               
```

#### Opcodes

```
  0: 0x0000 [0x00] END_REQSTACK()
```

### Event 65534

#### Metadata

| Field        | Value   |
|--------------|---------|
| Entrypoint   | 0x0001  |
| Data Size    | 1 bytes |
| Instructions | 1       |

```
      00 01 02 03 04 05 06 07  08 09 0A 0B 0C 0D 0E 0F
      -- -- -- -- -- -- -- --  -- -- -- -- -- -- -- --
0000:    00                                              .              
```

#### Opcodes

```
  0: 0x0001 [0x00] END_REQSTACK()
```

### Event 65535.1

#### Metadata

| Field        | Value    |
|--------------|----------|
| Entrypoint   | 0x0002   |
| Data Size    | 15 bytes |
| Instructions | 5        |

```
      00 01 02 03 04 05 06 07  08 09 0A 0B 0C 0D 0E 0F
      -- -- -- -- -- -- -- --  -- -- -- -- -- -- -- --
0000:       32 00 80 1F 00 01  80 02 80 03 80 1F 01 6F    2............o
0010: 00                                                .               
```

#### Opcodes

```
  0: 0x0002 [0x32] ExtData[1]->MainSpeed = 13* * 0.1
  1: 0x0005 [0x1F] MOVE_ENTITY: EventEntity moves to X=-939.944*, Z=-20.014*, Y=-191.500*
  2: 0x000D [0x1F] MOVE_ENTITY: Update entity position (mode=1)
  3: 0x000F [0x6F] WAIT_FRAME_DELAY: Yield until WaitTime reaches zero
  4: 0x0010 [0x00] END_REQSTACK()
```

### Event 65535.2

#### Metadata

| Field        | Value   |
|--------------|---------|
| Entrypoint   | 0x0011  |
| Data Size    | 7 bytes |
| Instructions | 3       |

```
      00 01 02 03 04 05 06 07  08 09 0A 0B 0C 0D 0E 0F
      -- -- -- -- -- -- -- --  -- -- -- -- -- -- -- --
0010:    AB 03 AC 01 04 80 00                            .......        
```

#### Opcodes

```
  0: 0x0011 [0xAB] EventEntity->Render.Flags0 ^= 0x20000 // Toggle bit 17
  1: 0x0013 [0xAC] EventEntity->StatusEvent = 1*
  2: 0x0017 [0x00] END_REQSTACK()
```

### Event 65535.3

#### Metadata

| Field        | Value   |
|--------------|---------|
| Entrypoint   | 0x0018  |
| Data Size    | 7 bytes |
| Instructions | 3       |

```
      00 01 02 03 04 05 06 07  08 09 0A 0B 0C 0D 0E 0F
      -- -- -- -- -- -- -- --  -- -- -- -- -- -- -- --
0010:                          AC 01 05 80 AB 04 00             ....... 
```

#### Opcodes

```
  0: 0x0018 [0xAC] EventEntity->StatusEvent = 0*
  1: 0x001C [0xAB] EventEntity->Render.Flags0 |= 0x40000 // Set bit 18
  2: 0x001E [0x00] END_REQSTACK()
```

### Event 65535.4

#### Metadata

| Field        | Value    |
|--------------|----------|
| Entrypoint   | 0x001F   |
| Data Size    | 25 bytes |
| Instructions | 7        |

```
      00 01 02 03 04 05 06 07  08 09 0A 0B 0C 0D 0E 0F
      -- -- -- -- -- -- -- --  -- -- -- -- -- -- -- --
0010:                                               32                 2
0020: 06 80 1F 00 07 80 08 80  09 80 1F 01 1F 00 0A 80  ................
0030: 0B 80 0C 80 1F 01 6F 00                           ......o.        
```

#### Opcodes

```
  0: 0x001F [0x32] ExtData[1]->MainSpeed = 40* * 0.1
  1: 0x0022 [0x1F] MOVE_ENTITY: EventEntity moves to X=-146.115*, Z=377.935*, Y=-190.000*
  2: 0x002A [0x1F] MOVE_ENTITY: Update entity position (mode=1)
  3: 0x002C [0x1F] MOVE_ENTITY: EventEntity moves to X=-137.186*, Z=375.802*, Y=-190.250*
  4: 0x0034 [0x1F] MOVE_ENTITY: Update entity position (mode=1)
  5: 0x0036 [0x6F] WAIT_FRAME_DELAY: Yield until WaitTime reaches zero
  6: 0x0037 [0x00] END_REQSTACK()
```

### Event 65535.5

#### Metadata

| Field        | Value    |
|--------------|----------|
| Entrypoint   | 0x0038   |
| Data Size    | 15 bytes |
| Instructions | 5        |

```
      00 01 02 03 04 05 06 07  08 09 0A 0B 0C 0D 0E 0F
      -- -- -- -- -- -- -- --  -- -- -- -- -- -- -- --
0030:                          32 00 80 1F 00 0D 80 0E          2.......
0040: 80 09 80 1F 01 6F 00                              .....o.         
```

#### Opcodes

```
  0: 0x0038 [0x32] ExtData[1]->MainSpeed = 13* * 0.1
  1: 0x003B [0x1F] MOVE_ENTITY: EventEntity moves to X=-103.425*, Z=370.327*, Y=-190.000*
  2: 0x0043 [0x1F] MOVE_ENTITY: Update entity position (mode=1)
  3: 0x0045 [0x6F] WAIT_FRAME_DELAY: Yield until WaitTime reaches zero
  4: 0x0046 [0x00] END_REQSTACK()
```

### Event 65535.6

#### Metadata

| Field        | Value    |
|--------------|----------|
| Entrypoint   | 0x0047   |
| Data Size    | 15 bytes |
| Instructions | 5        |

```
      00 01 02 03 04 05 06 07  08 09 0A 0B 0C 0D 0E 0F
      -- -- -- -- -- -- -- --  -- -- -- -- -- -- -- --
0040:                      32  00 80 1F 00 0F 80 10 80         2........
0050: 11 80 1F 01 6F 00                                 ....o.          
```

#### Opcodes

```
  0: 0x0047 [0x32] ExtData[1]->MainSpeed = 13* * 0.1
  1: 0x004A [0x1F] MOVE_ENTITY: EventEntity moves to X=-95.829*, Z=368.965*, Y=-189.999*
  2: 0x0052 [0x1F] MOVE_ENTITY: Update entity position (mode=1)
  3: 0x0054 [0x6F] WAIT_FRAME_DELAY: Yield until WaitTime reaches zero
  4: 0x0055 [0x00] END_REQSTACK()
```

### Event 65535.7

#### Metadata

| Field        | Value    |
|--------------|----------|
| Entrypoint   | 0x0056   |
| Data Size    | 22 bytes |
| Instructions | 8        |

```
      00 01 02 03 04 05 06 07  08 09 0A 0B 0C 0D 0E 0F
      -- -- -- -- -- -- -- --  -- -- -- -- -- -- -- --
0050:                   32 06  80 1F 00 12 80 13 80 11        2.........
0060: 80 1F 01 6F 1E 19 22 11  01 6F 70 00              ...o.."..op.    
```

#### Opcodes

```
  0: 0x0056 [0x32] ExtData[1]->MainSpeed = 40* * 0.1
  1: 0x0059 [0x1F] MOVE_ENTITY: EventEntity moves to X=-104.991*, Z=369.072*, Y=-189.999*
  2: 0x0061 [0x1F] MOVE_ENTITY: Update entity position (mode=1)
  3: 0x0063 [0x6F] WAIT_FRAME_DELAY: Yield until WaitTime reaches zero
  4: 0x0064 [0x1E] EventEntity looks at Egg (ID: 17900057/0x01112219) and starts talking
  5: 0x0069 [0x6F] WAIT_FRAME_DELAY: Yield until WaitTime reaches zero
  6: 0x006A [0x70] WAIT_ENTITY_RENDER_FLAG: Wait while EventEntity->Render.Flags3 bit 2 is set (cancel turn if not)
  7: 0x006B [0x00] END_REQSTACK()
```

### Event 65535.8

#### Metadata

| Field        | Value     |
|--------------|-----------|
| Entrypoint   | 0x006C    |
| Data Size    | 181 bytes |
| Instructions | 11        |

```
      00 01 02 03 04 05 06 07  08 09 0A 0B 0C 0D 0E 0F
      -- -- -- -- -- -- -- --  -- -- -- -- -- -- -- --
0060:                                      32 00 80 1F              2...
0070: 00 14 80 15 80 11 80 1F  01 6F 1F 00 16 80 17 80  .........o......
0080: 11 80 1F 01 6F 1E 15 22  11 01 6F 70 00 03 01 00  ....o.."..op....
0090: 00 00 02 01 00 18 80 05  A2 00 08 01 00 04 80 01  ................
00A0: A7 00 08 01 00 19 80 14  01 00 1A 80 07 01 00 1B  ................
00B0: 80 1B 03 01 00 00 00 02  01 00 18 80 05 C7 00 08  ................
00C0: 01 00 04 80 01 CC 00 08  01 00 19 80 14 01 00 1A  ................
00D0: 80 07 01 00 1C 80 1B 03  01 00 00 00 02 01 00 18  ................
00E0: 80 05 EC 00 08 01 00 04  80 01 F1 00 08 01 00 19  ................
00F0: 80 14 01 00 1A 80 07 01  00 1D 80 1B 03 01 00 00  ................
0100: 00 02 01 00 18 80 05 11  01 08 01 00 04 80 01 16  ................
0110: 01 08 01 00 19 80 14 01  00 1A 80 07 01 00 1E 80  ................
0120: 1B                                                .               
```

#### Opcodes

```
  0: 0x006C [0x32] ExtData[1]->MainSpeed = 13* * 0.1
  1: 0x006F [0x1F] MOVE_ENTITY: EventEntity moves to X=-93.849*, Z=366.421*, Y=-189.999*
  2: 0x0077 [0x1F] MOVE_ENTITY: Update entity position (mode=1)
  3: 0x0079 [0x6F] WAIT_FRAME_DELAY: Yield until WaitTime reaches zero
  4: 0x007A [0x1F] MOVE_ENTITY: EventEntity moves to X=-93.439*, Z=362.552*, Y=-189.999*
  5: 0x0082 [0x1F] MOVE_ENTITY: Update entity position (mode=1)
  6: 0x0084 [0x6F] WAIT_FRAME_DELAY: Yield until WaitTime reaches zero
  7: 0x0085 [0x1E] EventEntity looks at Gloom Phantom (ID: 17900053/0x01112215) and starts talking
  8: 0x008A [0x6F] WAIT_FRAME_DELAY: Yield until WaitTime reaches zero
  9: 0x008B [0x70] WAIT_ENTITY_RENDER_FLAG: Wait while EventEntity->Render.Flags3 bit 2 is set (cancel turn if not)
 10: 0x008C [0x00] END_REQSTACK()
```

#### Data or dead code:

```
# Dead code (unreachable instructions):
     0x008D [0x03] ExtData[1]->WorkLocal[1] = ExtData[1]->WorkLocal[0]
     0x0092 [0x02] IF !(ExtData[1]->WorkLocal[1] > 5*) GOTO 0x00A2
     0x009A [0x08] ExtData[1]->WorkLocal[1] -= 1*
     0x009F [0x01] GOTO 0x00A7
     0x00A2 [0x08] ExtData[1]->WorkLocal[1] -= 2*
     0x00A7 [0x14] ExtData[1]->WorkLocal[1] *= 10*
     0x00AC [0x07] ExtData[1]->WorkLocal[1] += 9*
     0x00B1 [0x1B] RETURN
     0x00B2 [0x03] ExtData[1]->WorkLocal[1] = ExtData[1]->WorkLocal[0]
     0x00B7 [0x02] IF !(ExtData[1]->WorkLocal[1] > 5*) GOTO 0x00C7
     0x00BF [0x08] ExtData[1]->WorkLocal[1] -= 1*
     0x00C4 [0x01] GOTO 0x00CC
     0x00C7 [0x08] ExtData[1]->WorkLocal[1] -= 2*
     0x00CC [0x14] ExtData[1]->WorkLocal[1] *= 10*
     0x00D1 [0x07] ExtData[1]->WorkLocal[1] += 70*
     0x00D6 [0x1B] RETURN
     0x00D7 [0x03] ExtData[1]->WorkLocal[1] = ExtData[1]->WorkLocal[0]
     0x00DC [0x02] IF !(ExtData[1]->WorkLocal[1] > 5*) GOTO 0x00EC
     0x00E4 [0x08] ExtData[1]->WorkLocal[1] -= 1*
     0x00E9 [0x01] GOTO 0x00F1
     0x00EC [0x08] ExtData[1]->WorkLocal[1] -= 2*
     0x00F1 [0x14] ExtData[1]->WorkLocal[1] *= 10*
     0x00F6 [0x07] ExtData[1]->WorkLocal[1] += 140*
     0x00FB [0x1B] RETURN
     0x00FC [0x03] ExtData[1]->WorkLocal[1] = ExtData[1]->WorkLocal[0]
     0x0101 [0x02] IF !(ExtData[1]->WorkLocal[1] > 5*) GOTO 0x0111
     0x0109 [0x08] ExtData[1]->WorkLocal[1] -= 1*
     0x010E [0x01] GOTO 0x0116
     0x0111 [0x08] ExtData[1]->WorkLocal[1] -= 2*
     0x0116 [0x14] ExtData[1]->WorkLocal[1] *= 10*
     0x011B [0x07] ExtData[1]->WorkLocal[1] += 210*
     0x0120 [0x1B] RETURN
```

### Event 65535.9

#### Metadata

| Field        | Value   |
|--------------|---------|
| Entrypoint   | 0x0121  |
| Data Size    | 6 bytes |
| Instructions | 2       |

```
      00 01 02 03 04 05 06 07  08 09 0A 0B 0C 0D 0E 0F
      -- -- -- -- -- -- -- --  -- -- -- -- -- -- -- --
0120:    03 02 10 0B 7F 00                               ......         
```

#### Opcodes

```
  0: 0x0121 [0x03] Work_Zone[2] = (Entity->Render.Flags01 >> 25) & 1
  1: 0x0126 [0x00] END_REQSTACK()
```

### Event 65535.10

#### Metadata

| Field        | Value   |
|--------------|---------|
| Entrypoint   | 0x0127  |
| Data Size    | 6 bytes |
| Instructions | 2       |

```
      00 01 02 03 04 05 06 07  08 09 0A 0B 0C 0D 0E 0F
      -- -- -- -- -- -- -- --  -- -- -- -- -- -- -- --
0120:                      03  02 10 07 7F 00                  ......   
```

#### Opcodes

```
  0: 0x0127 [0x03] Work_Zone[2] = Entity->Race
  1: 0x012C [0x00] END_REQSTACK()
```

### Event 65535.11

#### Metadata

| Field        | Value   |
|--------------|---------|
| Entrypoint   | 0x012D  |
| Data Size    | 6 bytes |
| Instructions | 2       |

```
      00 01 02 03 04 05 06 07  08 09 0A 0B 0C 0D 0E 0F
      -- -- -- -- -- -- -- --  -- -- -- -- -- -- -- --
0120:                                         03 09 10               ...
0130: 07 7F 00                                          ...             
```

#### Opcodes

```
  0: 0x012D [0x03] Work_Zone[9] = Entity->Race
  1: 0x0132 [0x00] END_REQSTACK()
```

### Event 65535.12

#### Metadata

| Field        | Value   |
|--------------|---------|
| Entrypoint   | 0x0133  |
| Data Size    | 6 bytes |
| Instructions | 2       |

```
      00 01 02 03 04 05 06 07  08 09 0A 0B 0C 0D 0E 0F
      -- -- -- -- -- -- -- --  -- -- -- -- -- -- -- --
0130:          03 02 10 06 7F  00                          ......       
```

#### Opcodes

```
  0: 0x0133 [0x03] Work_Zone[2] = Entity->JobId (if LocalPlayer)
  1: 0x0138 [0x00] END_REQSTACK()
```

### Event 65535.13

#### Metadata

| Field        | Value    |
|--------------|----------|
| Entrypoint   | 0x0139   |
| Data Size    | 27 bytes |
| Instructions | 3        |

```
      00 01 02 03 04 05 06 07  08 09 0A 0B 0C 0D 0E 0F
      -- -- -- -- -- -- -- --  -- -- -- -- -- -- -- --
0130:                             2C F8 FF FF 7F F8 FF           ,......
0140: FF 7F 63 6F 72 70 53 F8  FF FF 7F F8 FF FF 7F 63  ..corpS........c
0150: 6F 72 70 00                                       orp.            
```

#### Opcodes

```
  0: 0x0139 [0x2C] CREATE_SCHEDULER_TASK: Create scheduler "corp" with entities [EventEntity, EventEntity]
  1: 0x0146 [0x53] WAIT_SCHEDULER_TASK: Wait for scheduler "corp" with entities [EventEntity, EventEntity]
  2: 0x0153 [0x00] END_REQSTACK()
```

### Event 65535.14

#### Metadata

| Field        | Value    |
|--------------|----------|
| Entrypoint   | 0x0154   |
| Data Size    | 24 bytes |
| Instructions | 4        |

```
      00 01 02 03 04 05 06 07  08 09 0A 0B 0C 0D 0E 0F
      -- -- -- -- -- -- -- --  -- -- -- -- -- -- -- --
0150:             03 00 00 07  7F 1A 8D 00 66 01 00 F8      ........f...
0160: FF FF 7F F8 FF FF 7F 74  6C 6B 30 00              .......tlk0.    
```

#### Opcodes

```
  0: 0x0154 [0x03] ExtData[1]->WorkLocal[0] = Entity->Race
  1: 0x0159 [0x1A] CALL_SUBROUTINE(address=0x008D)
  2: 0x015C [0x66] LOAD_EXT_SCHEDULER_MAIN: Load scheduler "tlk0" with entities [EventEntity, EventEntity], work=ExtData[1]->WorkLocal[1]
  3: 0x016B [0x00] END_REQSTACK()
```

### Event 65535.15

#### Metadata

| Field        | Value    |
|--------------|----------|
| Entrypoint   | 0x016C   |
| Data Size    | 24 bytes |
| Instructions | 4        |

```
      00 01 02 03 04 05 06 07  08 09 0A 0B 0C 0D 0E 0F
      -- -- -- -- -- -- -- --  -- -- -- -- -- -- -- --
0160:                                      03 00 00 07              ....
0170: 7F 1A 8D 00 66 01 00 F8  FF FF 7F F8 FF FF 7F 74  ....f..........t
0180: 6C 6B 31 00                                       lk1.            
```

#### Opcodes

```
  0: 0x016C [0x03] ExtData[1]->WorkLocal[0] = Entity->Race
  1: 0x0171 [0x1A] CALL_SUBROUTINE(address=0x008D)
  2: 0x0174 [0x66] LOAD_EXT_SCHEDULER_MAIN: Load scheduler "tlk1" with entities [EventEntity, EventEntity], work=ExtData[1]->WorkLocal[1]
  3: 0x0183 [0x00] END_REQSTACK()
```

### Event 65535.16

#### Metadata

| Field        | Value    |
|--------------|----------|
| Entrypoint   | 0x0184   |
| Data Size    | 37 bytes |
| Instructions | 5        |

```
      00 01 02 03 04 05 06 07  08 09 0A 0B 0C 0D 0E 0F
      -- -- -- -- -- -- -- --  -- -- -- -- -- -- -- --
0180:             03 00 00 07  7F 1A 8D 00 66 01 00 F8      ........f...
0190: FF FF 7F F8 FF FF 7F 73  68 61 30 53 F8 FF FF 7F  .......sha0S....
01A0: F8 FF FF 7F 73 68 61 30  00                       ....sha0.       
```

#### Opcodes

```
  0: 0x0184 [0x03] ExtData[1]->WorkLocal[0] = Entity->Race
  1: 0x0189 [0x1A] CALL_SUBROUTINE(address=0x008D)
  2: 0x018C [0x66] LOAD_EXT_SCHEDULER_MAIN: Load scheduler "sha0" with entities [EventEntity, EventEntity], work=ExtData[1]->WorkLocal[1]
  3: 0x019B [0x53] WAIT_SCHEDULER_TASK: Wait for scheduler "sha0" with entities [EventEntity, EventEntity]
  4: 0x01A8 [0x00] END_REQSTACK()
```

### Event 65535.17

#### Metadata

| Field        | Value    |
|--------------|----------|
| Entrypoint   | 0x01A9   |
| Data Size    | 37 bytes |
| Instructions | 5        |

```
      00 01 02 03 04 05 06 07  08 09 0A 0B 0C 0D 0E 0F
      -- -- -- -- -- -- -- --  -- -- -- -- -- -- -- --
01A0:                             03 00 00 07 7F 1A 8D           .......
01B0: 00 66 01 00 F8 FF FF 7F  F8 FF FF 7F 73 68 61 31  .f..........sha1
01C0: 53 F8 FF FF 7F F8 FF FF  7F 73 68 61 31 00        S........sha1.  
```

#### Opcodes

```
  0: 0x01A9 [0x03] ExtData[1]->WorkLocal[0] = Entity->Race
  1: 0x01AE [0x1A] CALL_SUBROUTINE(address=0x008D)
  2: 0x01B1 [0x66] LOAD_EXT_SCHEDULER_MAIN: Load scheduler "sha1" with entities [EventEntity, EventEntity], work=ExtData[1]->WorkLocal[1]
  3: 0x01C0 [0x53] WAIT_SCHEDULER_TASK: Wait for scheduler "sha1" with entities [EventEntity, EventEntity]
  4: 0x01CD [0x00] END_REQSTACK()
```

### Event 65535.18

#### Metadata

| Field        | Value    |
|--------------|----------|
| Entrypoint   | 0x01CE   |
| Data Size    | 27 bytes |
| Instructions | 5        |

```
      00 01 02 03 04 05 06 07  08 09 0A 0B 0C 0D 0E 0F
      -- -- -- -- -- -- -- --  -- -- -- -- -- -- -- --
01C0:                                            03 00                ..
01D0: 00 07 7F 1A B2 00 0B 01  00 66 01 00 F8 FF FF 7F  .........f......
01E0: F8 FF FF 7F 70 61 73 30  00                       ....pas0.       
```

#### Opcodes

```
  0: 0x01CE [0x03] ExtData[1]->WorkLocal[0] = Entity->Race
  1: 0x01D3 [0x1A] CALL_SUBROUTINE(address=0x00B2)
  2: 0x01D6 [0x0B] ExtData[1]->WorkLocal[1]++
  3: 0x01D9 [0x66] LOAD_EXT_SCHEDULER_MAIN: Load scheduler "pas0" with entities [EventEntity, EventEntity], work=ExtData[1]->WorkLocal[1]
  4: 0x01E8 [0x00] END_REQSTACK()
```

### Event 65535.19

#### Metadata

| Field        | Value    |
|--------------|----------|
| Entrypoint   | 0x01E9   |
| Data Size    | 10 bytes |
| Instructions | 2        |

```
      00 01 02 03 04 05 06 07  08 09 0A 0B 0C 0D 0E 0F
      -- -- -- -- -- -- -- --  -- -- -- -- -- -- -- --
01E0:                             37 1F 80 20 80 21 80           7.. .!.
01F0: 22 80 00                                          "..             
```

#### Opcodes

```
  0: 0x01E9 [0x37] UPDATE_EVENT_POSITION_AND_DIR: x=-49.160*, z=-26.285*, y=-179.332*, direction=43.5°*
  1: 0x01F2 [0x00] END_REQSTACK()
```

### Event 65535.20

#### Metadata

| Field        | Value    |
|--------------|----------|
| Entrypoint   | 0x01F3   |
| Data Size    | 14 bytes |
| Instructions | 4        |

```
      00 01 02 03 04 05 06 07  08 09 0A 0B 0C 0D 0E 0F
      -- -- -- -- -- -- -- --  -- -- -- -- -- -- -- --
01F0:          32 00 80 1F 00  23 80 24 80 21 80 1F 01     2....#.$.!...
0200: 00                                                .               
```

#### Opcodes

```
  0: 0x01F3 [0x32] ExtData[1]->MainSpeed = 13* * 0.1
  1: 0x01F6 [0x1F] MOVE_ENTITY: EventEntity moves to X=-59.964*, Z=-26.270*, Y=-179.332*
  2: 0x01FE [0x1F] MOVE_ENTITY: Update entity position (mode=1)
  3: 0x0200 [0x00] END_REQSTACK()
```

### Event 65535.21

#### Metadata

| Field        | Value    |
|--------------|----------|
| Entrypoint   | 0x0201   |
| Data Size    | 10 bytes |
| Instructions | 2        |

```
      00 01 02 03 04 05 06 07  08 09 0A 0B 0C 0D 0E 0F
      -- -- -- -- -- -- -- --  -- -- -- -- -- -- -- --
0200:    37 25 80 26 80 27 80  28 80 00                  7%.&.'.(..     
```

#### Opcodes

```
  0: 0x0201 [0x37] UPDATE_EVENT_POSITION_AND_DIR: x=718.760*, z=116.818*, y=99.999*, direction=352.8°*
  1: 0x020A [0x00] END_REQSTACK()
```

### Event 65535.22

#### Metadata

| Field        | Value    |
|--------------|----------|
| Entrypoint   | 0x020B   |
| Data Size    | 14 bytes |
| Instructions | 4        |

```
      00 01 02 03 04 05 06 07  08 09 0A 0B 0C 0D 0E 0F
      -- -- -- -- -- -- -- --  -- -- -- -- -- -- -- --
0200:                                   32 00 80 1F 00             2....
0210: 29 80 2A 80 27 80 1F 01  00                       ).*.'....       
```

#### Opcodes

```
  0: 0x020B [0x32] ExtData[1]->MainSpeed = 13* * 0.1
  1: 0x020E [0x1F] MOVE_ENTITY: EventEntity moves to X=732.814*, Z=119.186*, Y=99.999*
  2: 0x0216 [0x1F] MOVE_ENTITY: Update entity position (mode=1)
  3: 0x0218 [0x00] END_REQSTACK()
```

### Event 65535.23

#### Metadata

| Field        | Value    |
|--------------|----------|
| Entrypoint   | 0x0219   |
| Data Size    | 14 bytes |
| Instructions | 4        |

```
      00 01 02 03 04 05 06 07  08 09 0A 0B 0C 0D 0E 0F
      -- -- -- -- -- -- -- --  -- -- -- -- -- -- -- --
0210:                             32 00 80 1F 00 25 80           2....%.
0220: 26 80 27 80 1F 01 00                              &.'....         
```

#### Opcodes

```
  0: 0x0219 [0x32] ExtData[1]->MainSpeed = 13* * 0.1
  1: 0x021C [0x1F] MOVE_ENTITY: EventEntity moves to X=718.760*, Z=116.818*, Y=99.999*
  2: 0x0224 [0x1F] MOVE_ENTITY: Update entity position (mode=1)
  3: 0x0226 [0x00] END_REQSTACK()
```

### Event 65535.24

#### Metadata

| Field        | Value    |
|--------------|----------|
| Entrypoint   | 0x0227   |
| Data Size    | 10 bytes |
| Instructions | 2        |

```
      00 01 02 03 04 05 06 07  08 09 0A 0B 0C 0D 0E 0F
      -- -- -- -- -- -- -- --  -- -- -- -- -- -- -- --
0220:                      37  2B 80 2C 80 2D 80 2E 80         7+.,.-...
0230: 00                                                .               
```

#### Opcodes

```
  0: 0x0227 [0x37] UPDATE_EVENT_POSITION_AND_DIR: x=-460.000*, z=27.942*, y=-139.902*, direction=93.2°*
  1: 0x0230 [0x00] END_REQSTACK()
```

### Event 65535.25

#### Metadata

| Field        | Value    |
|--------------|----------|
| Entrypoint   | 0x0231   |
| Data Size    | 14 bytes |
| Instructions | 4        |

```
      00 01 02 03 04 05 06 07  08 09 0A 0B 0C 0D 0E 0F
      -- -- -- -- -- -- -- --  -- -- -- -- -- -- -- --
0230:    32 00 80 1F 00 2B 80  2F 80 30 80 1F 01 00      2....+./.0.... 
```

#### Opcodes

```
  0: 0x0231 [0x32] ExtData[1]->MainSpeed = 13* * 0.1
  1: 0x0234 [0x1F] MOVE_ENTITY: EventEntity moves to X=-460.000*, Z=19.000*, Y=-140.000*
  2: 0x023C [0x1F] MOVE_ENTITY: Update entity position (mode=1)
  3: 0x023E [0x00] END_REQSTACK()
```

### Event 65535.26

#### Metadata

| Field        | Value    |
|--------------|----------|
| Entrypoint   | 0x023F   |
| Data Size    | 55 bytes |
| Instructions | 12       |

```
      00 01 02 03 04 05 06 07  08 09 0A 0B 0C 0D 0E 0F
      -- -- -- -- -- -- -- --  -- -- -- -- -- -- -- --
0230:                                               33                 3
0240: 01 03 02 00 30 80 03 03  00 31 80 06 04 00 02 04  ....0....1......
0250: 00 05 80 00 75 02 02 02  00 32 80 02 61 02 05 04  ....u....2..a...
0260: 00 07 02 00 03 00 37 2B  80 2F 80 02 00 33 80 1C  ......7+./...3..
0270: 04 80 01 4E 02 00                                 ...N..          
```

#### Opcodes

```
  0: 0x023F [0x33] EventEntity->Render.Flags0 |= 0x200000 // Bit 21 (flag=0x01)
  1: 0x0241 [0x03] ExtData[1]->WorkLocal[2] = 4294827296*
  2: 0x0246 [0x03] ExtData[1]->WorkLocal[3] = 45*
  3: 0x024B [0x06] ExtData[1]->WorkLocal[4] = 0
  4: 0x024E [0x02] IF !(ExtData[1]->WorkLocal[4] == 0*) GOTO 0x0275
  5: 0x0256 [0x02] IF !(ExtData[1]->WorkLocal[2] <= 4294828296*) GOTO 0x0261
  6: 0x025E [0x05] ExtData[1]->WorkLocal[4] = 1
  7: 0x0261 [0x07] ExtData[1]->WorkLocal[2] += ExtData[1]->WorkLocal[3]
  8: 0x0266 [0x37] UPDATE_EVENT_POSITION_AND_DIR: x=-460.000*, z=19.000*, y=ExtData[1]->WorkLocal[2], direction=90.0°*
  9: 0x026F [0x1C] WAIT(1* ticks)
 10: 0x0272 [0x01] GOTO 0x024E
 11: 0x0275 [0x00] END_REQSTACK()
```

### Event 65535.27

#### Metadata

| Field        | Value    |
|--------------|----------|
| Entrypoint   | 0x0276   |
| Data Size    | 10 bytes |
| Instructions | 2        |

```
      00 01 02 03 04 05 06 07  08 09 0A 0B 0C 0D 0E 0F
      -- -- -- -- -- -- -- --  -- -- -- -- -- -- -- --
0270:                   37 34  80 35 80 36 80 33 80 00        74.5.6.3..
```

#### Opcodes

```
  0: 0x0276 [0x37] UPDATE_EVENT_POSITION_AND_DIR: x=580.000*, z=27.531*, y=100.000*, direction=90.0°*
  1: 0x027F [0x00] END_REQSTACK()
```

### Event 65535.28

#### Metadata

| Field        | Value    |
|--------------|----------|
| Entrypoint   | 0x0280   |
| Data Size    | 14 bytes |
| Instructions | 4        |

```
      00 01 02 03 04 05 06 07  08 09 0A 0B 0C 0D 0E 0F
      -- -- -- -- -- -- -- --  -- -- -- -- -- -- -- --
0280: 32 00 80 1F 00 34 80 37  80 38 80 1F 01 00        2....4.7.8....  
```

#### Opcodes

```
  0: 0x0280 [0x32] ExtData[1]->MainSpeed = 13* * 0.1
  1: 0x0283 [0x1F] MOVE_ENTITY: EventEntity moves to X=580.000*, Z=19.110*, Y=99.960*
  2: 0x028B [0x1F] MOVE_ENTITY: Update entity position (mode=1)
  3: 0x028D [0x00] END_REQSTACK()
```

### Event 65535.29

#### Metadata

| Field        | Value    |
|--------------|----------|
| Entrypoint   | 0x028E   |
| Data Size    | 55 bytes |
| Instructions | 12       |

```
      00 01 02 03 04 05 06 07  08 09 0A 0B 0C 0D 0E 0F
      -- -- -- -- -- -- -- --  -- -- -- -- -- -- -- --
0280:                                            33 01                3.
0290: 03 02 00 38 80 03 03 00  39 80 06 04 00 02 04 00  ...8....9.......
02A0: 05 80 00 C4 02 02 02 00  3A 80 03 B0 02 05 04 00  ........:.......
02B0: 08 02 00 03 00 37 34 80  37 80 02 00 33 80 1C 04  .....74.7...3...
02C0: 80 01 9D 02 00                                    .....           
```

#### Opcodes

```
  0: 0x028E [0x33] EventEntity->Render.Flags0 |= 0x200000 // Bit 21 (flag=0x01)
  1: 0x0290 [0x03] ExtData[1]->WorkLocal[2] = 99960*
  2: 0x0295 [0x03] ExtData[1]->WorkLocal[3] = 38*
  3: 0x029A [0x06] ExtData[1]->WorkLocal[4] = 0
  4: 0x029D [0x02] IF !(ExtData[1]->WorkLocal[4] == 0*) GOTO 0x02C4
  5: 0x02A5 [0x02] IF !(ExtData[1]->WorkLocal[2] >= 99000*) GOTO 0x02B0
  6: 0x02AD [0x05] ExtData[1]->WorkLocal[4] = 1
  7: 0x02B0 [0x08] ExtData[1]->WorkLocal[2] -= ExtData[1]->WorkLocal[3]
  8: 0x02B5 [0x37] UPDATE_EVENT_POSITION_AND_DIR: x=580.000*, z=19.110*, y=ExtData[1]->WorkLocal[2], direction=90.0°*
  9: 0x02BE [0x1C] WAIT(1* ticks)
 10: 0x02C1 [0x01] GOTO 0x029D
 11: 0x02C4 [0x00] END_REQSTACK()
```

### Event 65535.30

#### Metadata

| Field        | Value   |
|--------------|---------|
| Entrypoint   | 0x02C5  |
| Data Size    | 3 bytes |
| Instructions | 2       |

```
      00 01 02 03 04 05 06 07  08 09 0A 0B 0C 0D 0E 0F
      -- -- -- -- -- -- -- --  -- -- -- -- -- -- -- --
02C0:                33 00 00                                3..        
```

#### Opcodes

```
  0: 0x02C5 [0x33] EventEntity->Render.Flags0 &= ~ 0x200000 // Bit 21 (flag=0x00)
  1: 0x02C7 [0x00] END_REQSTACK()
```

### Event 65535.31

#### Metadata

| Field        | Value    |
|--------------|----------|
| Entrypoint   | 0x02C8   |
| Data Size    | 23 bytes |
| Instructions | 7        |

```
      00 01 02 03 04 05 06 07  08 09 0A 0B 0C 0D 0E 0F
      -- -- -- -- -- -- -- --  -- -- -- -- -- -- -- --
02C0:                          32 00 80 1F 00 3B 80 3C          2....;.<
02D0: 80 3D 80 1F 01 6F 1E EA  21 11 01 1C 3E 80 00     .=...o..!...>.. 
```

#### Opcodes

```
  0: 0x02C8 [0x32] ExtData[1]->MainSpeed = 13* * 0.1
  1: 0x02CB [0x1F] MOVE_ENTITY: EventEntity moves to X=-213.194*, Z=-142.690*, Y=-150.000*
  2: 0x02D3 [0x1F] MOVE_ENTITY: Update entity position (mode=1)
  3: 0x02D5 [0x6F] WAIT_FRAME_DELAY: Yield until WaitTime reaches zero
  4: 0x02D6 [0x1E] EventEntity looks at Lerene (ID: 17900010/0x011121EA) and starts talking
  5: 0x02DB [0x1C] WAIT(30* ticks)
  6: 0x02DE [0x00] END_REQSTACK()
```

### Event 65535.32

#### Metadata

| Field        | Value    |
|--------------|----------|
| Entrypoint   | 0x02DF   |
| Data Size    | 17 bytes |
| Instructions | 5        |

```
      00 01 02 03 04 05 06 07  08 09 0A 0B 0C 0D 0E 0F
      -- -- -- -- -- -- -- --  -- -- -- -- -- -- -- --
02D0:                                               32                 2
02E0: 00 80 1F 00 3F 80 40 80  41 80 1F 01 1C 3E 80 00  ....?.@.A....>..
```

#### Opcodes

```
  0: 0x02DF [0x32] ExtData[1]->MainSpeed = 13* * 0.1
  1: 0x02E2 [0x1F] MOVE_ENTITY: EventEntity moves to X=-105.824*, Z=16.830*, Y=-178.000*
  2: 0x02EA [0x1F] MOVE_ENTITY: Update entity position (mode=1)
  3: 0x02EC [0x1C] WAIT(30* ticks)
  4: 0x02EF [0x00] END_REQSTACK()
```

### Event 65535.33

#### Metadata

| Field        | Value    |
|--------------|----------|
| Entrypoint   | 0x02F0   |
| Data Size    | 19 bytes |
| Instructions | 5        |

```
      00 01 02 03 04 05 06 07  08 09 0A 0B 0C 0D 0E 0F
      -- -- -- -- -- -- -- --  -- -- -- -- -- -- -- --
02F0: 1C 3E 80 4A F0 FF FF 7F  01 22 11 01 6F 76 F0 FF  .>.J....."..ov..
0300: FF 7F 00                                          ...             
```

#### Opcodes

```
  0: 0x02F0 [0x1C] WAIT(30* ticks)
  1: 0x02F3 [0x4A] LocalPlayer looks at ??? (ID: 17900033/0x01112201)
  2: 0x02FC [0x6F] WAIT_FRAME_DELAY: Yield until WaitTime reaches zero
  3: 0x02FD [0x76] CHECK_ENTITY_RENDER_FLAGS: Wait until LocalPlayer Render.Flags0 and Render.Flags3 conditions are met
  4: 0x0302 [0x00] END_REQSTACK()
```

### Event 65535.34

#### Metadata

| Field        | Value    |
|--------------|----------|
| Entrypoint   | 0x0303   |
| Data Size    | 16 bytes |
| Instructions | 4        |

```
      00 01 02 03 04 05 06 07  08 09 0A 0B 0C 0D 0E 0F
      -- -- -- -- -- -- -- --  -- -- -- -- -- -- -- --
0300:          1C 1C 80 6E F8  FF FF 7F 42 80 99 F8 FF     ...n....B....
0310: FF 7F 00                                          ...             
```

#### Opcodes

```
  0: 0x0303 [0x1C] WAIT(70* ticks)
  1: 0x0306 [0x6E] EventEntity uses emote 29*
  2: 0x030D [0x99] Wait for EventEntity animation to complete
  3: 0x0312 [0x00] END_REQSTACK()
```

### Event 5516

#### Metadata

| Field        | Value      |
|--------------|------------|
| Entrypoint   | 0x0313     |
| Data Size    | 3514 bytes |
| Instructions | 178        |

```
      00 01 02 03 04 05 06 07  08 09 0A 0B 0C 0D 0E 0F
      -- -- -- -- -- -- -- --  -- -- -- -- -- -- -- --
0310:          42 03 13 00 43  80 03 14 00 03 10 03 18     B...C........
0320: 00 04 10 06 01 10 06 16  00 06 0A 00 06 0B 00 06  ................
0330: 15 00 03 0B 00 18 00 40  05 80 44 80 01 10 14 00  .......@..D.....
0340: 40 45 80 46 80 01 10 05  80 40 47 80 42 80 01 10  @E.F.....@G.B...
0350: 0B 00 03 11 00 01 10 03  16 00 14 00 08 16 00 48  ...............H
0360: 80 06 08 00 03 02 10 49  80 48 4A 80 23 06 08 00  .......I.HJ.#...
0370: 05 0C 00 03 02 10 49 80  24 4B 80 04 80 05 80 25  ......I.$K.....%
0380: 02 00 10 05 80 00 8B 03  01 9E 03 02 00 10 04 80  ................
0390: 00 9E 03 03 01 10 4C 80  05 08 00 01 9E 03 02 08  ......L.........
03A0: 00 05 80 00 E1 03 03 02  10 49 80 48 4D 80 23 24  .........I.HM.#$
03B0: 4E 80 0C 00 05 80 25 02  00 10 05 80 00 CB 03 06  N.....%.........
03C0: 0C 00 48 4F 80 1A E3 03  01 DE 03 02 00 10 04 80  ..HO............
03D0: 00 DE 03 03 01 10 4C 80  05 08 00 01 DE 03 01 9E  ......L.........
03E0: 03 21 00 06 0D 00 06 10  00 06 0E 00 02 0D 00 05  .!..............
03F0: 80 00 13 04 02 10 00 05  80 80 02 04 1A 14 04 01  ................
0400: 10 04 02 10 00 04 80 80  10 04 1A D5 04 01 10 04  ................
0410: 01 EC 03 1B 03 01 10 11  00 40 45 80 46 80 01 10  .........@E.F...
0420: 10 00 43 00 43 01 03 0F  00 09 10 03 01 10 05 80  ..C.C...........
0430: 02 0F 00 04 80 80 40 04  03 10 00 04 80 01 D4 04  ......@.........
0440: 02 0F 00 19 80 80 66 04  0B 0E 00 02 0E 00 18 80  ......f.........
0450: 02 60 04 05 0D 00 48 50  80 23 1C 51 80 01 63 04  .`....HP.#.Q..c.
0460: 1C 52 80 01 D4 04 02 0F  00 53 80 80 7C 04 03 01  .R.......S..|...
0470: 10 4C 80 05 0D 00 05 08  00 01 D4 04 02 0F 00 54  .L.............T
0480: 80 80 92 04 03 01 10 4C  80 05 0D 00 05 08 00 01  .......L........
0490: D4 04 02 0F 00 18 80 80  A8 04 03 01 10 4C 80 05  .............L..
04A0: 0D 00 05 08 00 01 D4 04  02 0F 00 43 80 80 BE 04  ...........C....
04B0: 03 01 10 4C 80 05 0D 00  05 08 00 01 D4 04 02 0F  ...L............
04C0: 00 55 80 80 D4 04 03 01  10 4C 80 05 0D 00 05 08  .U.......L......
04D0: 00 01 D4 04 1B 03 01 10  11 00 40 45 80 46 80 01  ..........@E.F..
04E0: 10 10 00 43 00 43 01 03  01 10 05 80 03 0F 00 09  ...C.C..........
04F0: 10 02 0F 00 53 80 80 04  05 03 01 10 4C 80 05 0D  ....S.......L...
0500: 00 01 4C 06 02 0F 00 54  80 80 1A 05 03 01 10 4C  ..L....T.......L
0510: 80 05 0D 00 05 08 00 01  4C 06 02 0F 00 18 80 80  ........L.......
0520: 30 05 03 01 10 4C 80 05  0D 00 05 08 00 01 4C 06  0....L........L.
0530: 02 0F 00 43 80 80 46 05  03 01 10 4C 80 05 0D 00  ...C..F....L....
0540: 05 08 00 01 4C 06 02 0F  00 55 80 80 5C 05 03 01  ....L....U..\...
0550: 10 4C 80 05 0D 00 05 08  00 01 4C 06 02 0F 00 56  .L........L....V
0560: 80 80 EB 05 03 03 10 04  80 48 57 80 23 62 04 80  .........HW.#b..
0570: F0 FF FF 7F F0 FF FF 7F  6D 61 69 6E 05 80 1C 58  ........main...X
0580: 80 45 59 80 F0 FF FF 7F  F0 FF FF 7F 77 68 6F 31  .EY.........who1
0590: 05 80 55 59 80 F0 FF FF  7F F0 FF FF 7F 77 68 6F  ..UY.........who
05A0: 31 1C 31 80 45 5A 80 F0  FF FF 7F F0 FF FF 7F 66  1.1.EZ.........f
05B0: 64 6F 31 05 80 55 5A 80  F0 FF FF 7F F0 FF FF 7F  do1..UZ.........
05C0: 66 64 6F 31 45 59 80 F0  FF FF 7F F0 FF FF 7F 77  fdo1EY.........w
05D0: 68 69 31 05 80 1C 46 80  30 05 0D 00 05 08 00 40  hi1...F.0......@
05E0: 05 80 55 80 01 10 56 80  01 4C 06 02 0F 00 1B 80  ..U...V..L......
05F0: 80 FE 05 03 01 10 4C 80  05 0D 00 01 4C 06 02 0F  ......L.....L...
0600: 00 1A 80 80 14 06 03 01  10 4C 80 05 0D 00 05 08  .........L......
0610: 00 01 4C 06 02 0F 00 44  80 80 4C 06 0B 0E 00 02  ..L....D..L.....
0620: 0E 00 46 80 02 46 06 03  01 10 11 00 40 45 80 46  ..F..F......@E.F
0630: 80 01 10 19 80 43 00 43  01 05 0D 00 48 50 80 23  .....C.C....HP.#
0640: 1C 51 80 01 49 06 1C 52  80 01 4C 06 1B 5B 80 5C  .Q..I..R..L..[.\
0650: 80 5D 80 5E 80 5F 80 60  80 61 80 62 80 63 80 64  .].^._.`.a.b.c.d
0660: 80 65 80 66 80 67 80 68  80 69 80 6A 80 05 80 05  .e.f.g.h.i.j....
0670: 80 05 80 6B 80 6B 80 6C  80 05 80 05 80 6D 80 6D  ...k.k.l.....m.m
0680: 80 6E 80 6D 80 6F 80 6F  80 6E 80 6D 80 6D 80 6E  .n.m.o.o.n.m.m.n
0690: 80 6F 80 6D 80 6E 80 6D  80 6D 80 6E 80 05 80 05  .o.m.n.m.m.n....
06A0: 80 05 80 6E 80 6E 80 70  80 05 80 05 80 69 80 71  ...n.n.p.....i.q
06B0: 80 72 80 73 80 74 80 75  80 76 80 77 80 78 80 79  .r.s.t.u.v.w.x.y
06C0: 80 05 80 05 80 05 80 05  80 05 80 05 80 7A 80 7A  .............z.z
06D0: 80 7A 80 7A 80 7A 80 7B  80 7C 80 7D 80 7E 80 7F  .z.z.z.{.|.}.~..
06E0: 80 80 80 81 80 82 80 83  80 84 80 85 80 36 80 36  .............6.6
06F0: 80 36 80 36 80 36 80 86  80 7E 80 87 80 88 80 88  .6.6.6...~......
0700: 80 89 80 89 80 34 80 05  80 05 80 05 80 05 80 05  .....4..........
0710: 80 05 80 05 80 05 80 05  80 05 80 05 80 8A 80 8A  ................
0720: 80 05 80 8B 80 30 80 8C  80 8D 80 8A 80 8E 80 8F  .....0..........
0730: 80 90 80 91 80 92 80 8A  80 91 80 93 80 94 80 05  ................
0740: 80 05 80 05 80 95 80 96  80 97 80 91 80 91 80 91  ................
0750: 80 91 80 91 80 91 80 91  80 91 80 91 80 05 80 05  ................
0760: 80 05 80 05 80 05 80 05  80 05 80 05 80 05 80 05  ................
0770: 80 05 80 05 80 05 80 05  80 05 80 05 80 05 80 05  ................
0780: 80 05 80 05 80 05 80 05  80 05 80 05 80 05 80 05  ................
0790: 80 05 80 05 80 98 80 99  80 05 80 05 80 05 80 05  ................
07A0: 80 05 80 05 80 05 80 05  80 05 80 05 80 05 80 05  ................
07B0: 80 05 80 05 80 05 80 05  80 05 80 05 80 05 80 05  ................
07C0: 80 05 80 05 80 05 80 05  80 05 80 05 80 9A 80 9A  ................
07D0: 80 9A 80 9A 80 9A 80 9B  80 9C 80 9D 80 9E 80 9F  ................
07E0: 80 A0 80 36 80 A1 80 A2  80 A3 80 A4 80 A5 80 A5  ...6............
07F0: 80 A5 80 A5 80 A5 80 91  80 9E 80 A6 80 89 80 7C  ...............|
0800: 80 7C 80 89 80 A7 80 05  80 05 80 05 80 05 80 05  .|..............
0810: 80 05 80 05 80 05 80 05  80 05 80 05 80 A8 80 A8  ................
0820: 80 05 80 A9 80 AA 80 AB  80 9F 80 A8 80 9A 80 AC  ................
0830: 80 AD 80 AE 80 9E 80 A8  80 AF 80 B0 80 B1 80 05  ................
0840: 80 05 80 05 80 96 80 B2  80 B2 80 AF 80 AF 80 AF  ................
0850: 80 AF 80 AF 80 AF 80 AF  80 AF 80 AF 80 05 80 05  ................
0860: 80 05 80 05 80 05 80 05  80 05 80 05 80 05 80 05  ................
0870: 80 05 80 05 80 05 80 05  80 05 80 05 80 05 80 05  ................
0880: 80 05 80 05 80 05 80 05  80 05 80 05 80 05 80 05  ................
0890: 80 05 80 05 80 B3 80 B4  80 05 80 05 80 05 80 05  ................
08A0: 80 05 80 05 80 05 80 05  80 05 80 05 80 05 80 05  ................
08B0: 80 05 80 05 80 05 80 05  80 05 80 05 80 05 80 05  ................
08C0: 80 05 80 05 80 05 80 05  80 05 80 05 80 B5 80 B5  ................
08D0: 80 B5 80 B5 80 B5 80 B5  80 B6 80 05 80 05 80 B7  ................
08E0: 80 05 80 B8 80 B9 80 BA  80 BB 80 BC 80 9A 80 9A  ................
08F0: 80 9A 80 9A 80 9A 80 B6  80 B6 80 BD 80 BE 80 BF  ................
0900: 80 BF 80 BE 80 C0 80 05  80 05 80 05 80 05 80 05  ................
0910: 80 05 80 05 80 05 80 05  80 05 80 05 80 B5 80 B5  ................
0920: 80 05 80 C1 80 C2 80 C3  80 05 80 B5 80 C4 80 05  ................
0930: 80 B6 80 C5 80 05 80 B5  80 C5 80 C6 80 C7 80 05  ................
0940: 80 05 80 05 80 BE 80 36  80 36 80 C5 80 C5 80 C5  .......6.6......
0950: 80 C5 80 C5 80 C5 80 C5  80 C5 80 C5 80 05 80 05  ................
0960: 80 05 80 05 80 05 80 05  80 05 80 05 80 05 80 05  ................
0970: 80 05 80 05 80 05 80 05  80 05 80 05 80 05 80 05  ................
0980: 80 05 80 05 80 05 80 05  80 05 80 05 80 05 80 05  ................
0990: 80 05 80 05 80 C8 80 C9  80 05 80 05 80 05 80 05  ................
09A0: 80 05 80 05 80 05 80 05  80 05 80 05 80 05 80 05  ................
09B0: 80 05 80 05 80 05 80 05  80 05 80 05 80 05 80 05  ................
09C0: 80 05 80 05 80 05 80 05  80 05 80 05 80 05 80 05  ................
09D0: 80 05 80 05 80 05 80 CA  80 33 80 CB 80 33 80 05  .........3...3..
09E0: 80 05 80 33 80 CA 80 05  80 CC 80 CD 80 CE 80 CE  ...3............
09F0: 80 CE 80 CE 80 CE 80 CF  80 D0 80 52 80 CA 80 CE  ...........R....
0A00: 80 05 80 33 80 CE 80 05  80 05 80 05 80 05 80 05  ...3............
0A10: 80 05 80 05 80 05 80 05  80 05 80 05 80 05 80 05  ................
0A20: 80 05 80 05 80 33 80 CE  80 05 80 05 80 05 80 05  .....3..........
0A30: 80 D1 80 CE 80 CA 80 05  80 CE 80 05 80 D2 80 05  ................
0A40: 80 05 80 05 80 CA 80 CC  80 05 80 CE 80 CE 80 CE  ................
0A50: 80 CE 80 CE 80 CE 80 CE  80 CE 80 CE 80 05 80 05  ................
0A60: 80 05 80 05 80 05 80 05  80 05 80 05 80 05 80 05  ................
0A70: 80 05 80 05 80 05 80 05  80 05 80 05 80 05 80 05  ................
0A80: 80 05 80 05 80 05 80 05  80 05 80 05 80 05 80 05  ................
0A90: 80 05 80 05 80 D1 80 CA  80 05 80 05 80 05 80 05  ................
0AA0: 80 05 80 05 80 05 80 05  80 05 80 05 80 05 80 05  ................
0AB0: 80 05 80 05 80 05 80 05  80 05 80 05 80 05 80 05  ................
0AC0: 80 05 80 05 80 05 80 05  80 05 80 05 80 D3 80 D3  ................
0AD0: 80 D3 80 D3 80 D3 80 D3  80 D4 80 D5 80 D5 80 D5  ................
0AE0: 80 D5 80 D5 80 D5 80 D5  80 D5 80 D5 80 D4 80 D4  ................
0AF0: 80 D4 80 D4 80 D4 80 D4  80 D4 80 D4 80 D6 80 D6  ................
0B00: 80 D6 80 D6 80 D6 80 D6  80 D6 80 D6 80 05 80 05  ................
0B10: 80 05 80 05 80 05 80 05  80 05 80 05 80 D3 80 D3  ................
0B20: 80 D4 80 D3 80 D4 80 D4  80 D5 80 D3 80 D3 80 D5  ................
0B30: 80 D4 80 D3 80 D5 80 D3  80 D3 80 D5 80 D4 80 D5  ................
0B40: 80 D4 80 D4 80 D6 80 D6  80 D6 80 D3 80 D3 80 D3  ................
0B50: 80 D3 80 D3 80 D3 80 D3  80 D3 80 D3 80 05 80 05  ................
0B60: 80 05 80 05 80 05 80 05  80 05 80 05 80 05 80 05  ................
0B70: 80 05 80 05 80 05 80 05  80 05 80 05 80 05 80 05  ................
0B80: 80 05 80 05 80 05 80 05  80 05 80 05 80 05 80 05  ................
0B90: 80 05 80 05 80 D5 80 D7  80 05 80 05 80 05 80 05  ................
0BA0: 80 05 80 05 80 05 80 05  80 05 80 05 80 05 80 05  ................
0BB0: 80 05 80 05 80 05 80 05  80 05 80 05 80 05 80 05  ................
0BC0: 80 05 80 05 80 05 80 05  80 05 80 05 80 6D 80 6D  .............m.m
0BD0: 80 6D 80 6D 80 6D 80 6D  80 6F 80 6E 80 6E 80 6E  .m.m.m.m.o.n.n.n
0BE0: 80 6E 80 6E 80 6E 80 6E  80 6E 80 6E 80 6F 80 6F  .n.n.n.n.n.n.o.o
0BF0: 80 6F 80 6F 80 6F 80 6F  80 6F 80 6F 80 D8 80 D8  .o.o.o.o.o.o....
0C00: 80 D8 80 D8 80 D8 80 D8  80 D8 80 D8 80 05 80 05  ................
0C10: 80 05 80 05 80 05 80 05  80 05 80 05 80 6D 80 6D  .............m.m
0C20: 80 6F 80 6D 80 6F 80 6F  80 6E 80 6D 80 6D 80 6E  .o.m.o.o.n.m.m.n
0C30: 80 6F 80 6D 80 6E 80 6D  80 6D 80 6E 80 6F 80 6E  .o.m.n.m.m.n.o.n
0C40: 80 6F 80 6F 80 D8 80 D8  80 D8 80 6D 80 6D 80 6D  .o.o.......m.m.m
0C50: 80 6D 80 6D 80 6D 80 6D  80 6D 80 6D 80 05 80 05  .m.m.m.m.m.m....
0C60: 80 05 80 05 80 05 80 05  80 05 80 05 80 05 80 05  ................
0C70: 80 05 80 05 80 05 80 05  80 05 80 05 80 05 80 05  ................
0C80: 80 05 80 05 80 05 80 05  80 05 80 05 80 05 80 05  ................
0C90: 80 05 80 05 80 6E 80 70  80 05 80 05 80 05 80 05  .....n.p........
0CA0: 80 05 80 05 80 05 80 05  80 05 80 05 80 05 80 05  ................
0CB0: 80 05 80 05 80 05 80 05  80 05 80 05 80 05 80 05  ................
0CC0: 80 05 80 05 80 05 80 05  80 05 80 05 80 04 80 04  ................
0CD0: 80 04 80 04 80 04 80 04  80 04 80 04 80 04 80 04  ................
0CE0: 80 04 80 04 80 04 80 53  80 53 80 53 80 04 80 04  .......S.S.S....
0CF0: 80 04 80 04 80 04 80 53  80 53 80 53 80 04 80 04  .......S.S.S....
0D00: 80 04 80 04 80 04 80 53  80 53 80 53 80 04 80 04  .......S.S.S....
0D10: 80 04 80 04 80 04 80 53  80 53 80 53 80 04 80 04  .......S.S.S....
0D20: 80 04 80 04 80 04 80 04  80 04 80 04 80 04 80 04  ................
0D30: 80 04 80 04 80 04 80 04  80 04 80 04 80 53 80 53  .............S.S
0D40: 80 53 80 53 80 53 80 53  80 53 80 04 80 04 80 04  .S.S.S.S.S......
0D50: 80 04 80 04 80 04 80 04  80 04 80 04 80 53 80 53  .............S.S
0D60: 80 53 80 53 80 53 80 53  80 53 80 53 80 53 80 53  .S.S.S.S.S.S.S.S
0D70: 80 53 80 53 80 53 80 53  80 53 80 53 80 53 80 53  .S.S.S.S.S.S.S.S
0D80: 80 53 80 53 80 53 80 53  80 53 80 53 80 53 80 53  .S.S.S.S.S.S.S.S
0D90: 80 53 80 53 80 04 80 04  80 53 80 53 80 53 80 53  .S.S.....S.S.S.S
0DA0: 80 53 80 53 80 53 80 53  80 53 80 53 80 53 80 53  .S.S.S.S.S.S.S.S
0DB0: 80 53 80 53 80 53 80 53  80 53 80 53 80 53 80 53  .S.S.S.S.S.S.S.S
0DC0: 80 53 80 53 80 53 80 53  80 53 80 53 80 3E 80 06  .S.S.S.S.S.S.>..
0DD0: 80 D9 80 51 80 51 80 51  80 51 80 51 80 3E 80 3E  ...Q.Q.Q.Q.Q.>.>
0DE0: 80 06 80 06 80 D9 80 31  80 31 80 31 80 3E 80 06  .......1.1.1.>..
0DF0: 80 D9 80 51 80 51 80 31  80 31 80 31 80 3E 80 06  ...Q.Q.1.1.1.>..
0E00: 80 D9 80 51 80 51 80 3E  80 3E 80 3E 80 3E 80 3E  ...Q.Q.>.>.>.>.>
0E10: 80 3E 80 3E 80 3E 80 3E  80 3E 80 3E 80 1A 80 1A  .>.>.>.>.>.>....
0E20: 80 3E 80 3E 80 3E 80 3E  80 46 80 46 80 3E 80 3E  .>.>.>.>.F.F.>.>
0E30: 80 3E 80 3E 80 3E 80 46  80 3E 80 3E 80 31 80 31  .>.>.>.F.>.>.1.1
0E40: 80 31 80 31 80 58 80 58  80 58 80 3E 80 3E 80 3E  .1.1.X.X.X.>.>.>
0E50: 80 3E 80 3E 80 3E 80 3E  80 3E 80 3E 80 3E 80 3E  .>.>.>.>.>.>.>.>
0E60: 80 3E 80 3E 80 3E 80 3E  80 3E 80 3E 80 3E 80 3E  .>.>.>.>.>.>.>.>
0E70: 80 3E 80 3E 80 3E 80 3E  80 3E 80 3E 80 3E 80 3E  .>.>.>.>.>.>.>.>
0E80: 80 3E 80 3E 80 3E 80 3E  80 3E 80 3E 80 3E 80 3E  .>.>.>.>.>.>.>.>
0E90: 80 3E 80 3E 80 3E 80 46  80 3E 80 3E 80 3E 80 3E  .>.>.>.F.>.>.>.>
0EA0: 80 3E 80 3E 80 3E 80 3E  80 3E 80 3E 80 3E 80 3E  .>.>.>.>.>.>.>.>
0EB0: 80 3E 80 3E 80 3E 80 3E  80 3E 80 3E 80 3E 80 3E  .>.>.>.>.>.>.>.>
0EC0: 80 3E 80 3E 80 3E 80 3E  80 3E 80 3E 80 05 80 05  .>.>.>.>.>.>....
0ED0: 80 05 80 05 80 05 80 05  80 05 80 05 80 05 80 05  ................
0EE0: 80 05 80 05 80 05 80 04  80 04 80 04 80 05 80 05  ................
0EF0: 80 05 80 05 80 05 80 04  80 04 80 04 80 05 80 05  ................
0F00: 80 05 80 05 80 05 80 05  80 05 80 05 80 05 80 05  ................
0F10: 80 05 80 05 80 05 80 05  80 05 80 05 80 05 80 05  ................
0F20: 80 05 80 05 80 05 80 05  80 05 80 05 80 05 80 05  ................
0F30: 80 05 80 05 80 05 80 05  80 05 80 05 80 04 80 04  ................
0F40: 80 04 80 04 80 04 80 04  80 04 80 05 80 05 80 05  ................
0F50: 80 05 80 05 80 05 80 05  80 05 80 05 80 05 80 05  ................
0F60: 80 05 80 05 80 05 80 05  80 05 80 05 80 05 80 05  ................
0F70: 80 05 80 05 80 05 80 05  80 05 80 05 80 05 80 05  ................
0F80: 80 05 80 05 80 05 80 05  80 05 80 05 80 05 80 05  ................
0F90: 80 05 80 05 80 05 80 05  80 05 80 05 80 05 80 05  ................
0FA0: 80 05 80 05 80 05 80 05  80 05 80 05 80 05 80 05  ................
0FB0: 80 05 80 05 80 05 80 05  80 05 80 05 80 05 80 05  ................
0FC0: 80 05 80 05 80 05 80 05  80 05 80 05 80 05 80 05  ................
0FD0: 80 05 80 05 80 05 80 05  80 05 80 05 80 05 80 05  ................
0FE0: 80 05 80 05 80 05 80 05  80 05 80 05 80 05 80 05  ................
0FF0: 80 05 80 05 80 05 80 05  80 05 80 05 80 05 80 05  ................
1000: 80 05 80 05 80 05 80 05  80 05 80 05 80 05 80 05  ................
1010: 80 05 80 05 80 05 80 05  80 05 80 05 80 04 80 04  ................
1020: 80 05 80 05 80 05 80 05  80 04 80 04 80 05 80 05  ................
1030: 80 05 80 05 80 05 80 05  80 05 80 05 80 05 80 05  ................
1040: 80 05 80 05 80 05 80 05  80 05 80 05 80 05 80 05  ................
1050: 80 05 80 05 80 05 80 05  80 05 80 05 80 05 80 05  ................
1060: 80 05 80 05 80 05 80 05  80 05 80 05 80 05 80 05  ................
1070: 80 05 80 05 80 05 80 05  80 05 80 05 80 05 80 05  ................
1080: 80 05 80 05 80 05 80 05  80 05 80 05 80 05 80 05  ................
1090: 80 05 80 05 80 05 80 04  80 05 80 05 80 05 80 05  ................
10A0: 80 05 80 05 80 05 80 05  80 05 80 05 80 05 80 05  ................
10B0: 80 05 80 05 80 05 80 05  80 05 80 05 80 05 80 05  ................
10C0: 80 05 80 05 80 05 80 05  80 05 80 05 80           .............   
```

#### Opcodes

```
  0: 0x0313 [0x42] SET_CLI_EVENT_CANCEL_DATA()
  1: 0x0314 [0x03] ExtData[1]->WorkLocal[19] = 6*
  2: 0x0319 [0x03] ExtData[1]->WorkLocal[20] = Work_Zone[3]
  3: 0x031E [0x03] ExtData[1]->WorkLocal[24] = Work_Zone[4]
  4: 0x0323 [0x06] Work_Zone[1] = 0
  5: 0x0326 [0x06] ExtData[1]->WorkLocal[22] = 0
  6: 0x0329 [0x06] ExtData[1]->WorkLocal[10] = 0
  7: 0x032C [0x06] ExtData[1]->WorkLocal[11] = 0
  8: 0x032F [0x06] ExtData[1]->WorkLocal[21] = 0
  9: 0x0332 [0x03] ExtData[1]->WorkLocal[11] = ExtData[1]->WorkLocal[24]
 10: 0x0337 [0x40] SET_BIT_WORK_RANGE(start_bit=0*, end_bit=11*, target=Work_Zone[1], source=ExtData[1]->WorkLocal[20])
 11: 0x0340 [0x40] SET_BIT_WORK_RANGE(start_bit=12*, end_bit=15*, target=Work_Zone[1], source=0*)
 12: 0x0349 [0x40] SET_BIT_WORK_RANGE(start_bit=16*, end_bit=29*, target=Work_Zone[1], source=ExtData[1]->WorkLocal[11])
 13: 0x0352 [0x03] ExtData[1]->WorkLocal[17] = Work_Zone[1]
 14: 0x0357 [0x03] ExtData[1]->WorkLocal[22] = ExtData[1]->WorkLocal[20]
 15: 0x035C [0x08] ExtData[1]->WorkLocal[22] -= 800*
 16: 0x0361 [0x06] ExtData[1]->WorkLocal[8] = 0
 17: 0x0364 [0x03] Work_Zone[2] = 2641*
 18: 0x0369 [0x48] [System] [7924*]:
    → "Your $3 emits a strange pulse!"
 19: 0x036C [0x23] WAIT_FOR_DIALOG_INTERACTION
 20: 0x036D [0x06] ExtData[1]->WorkLocal[8] = 0
 21: 0x0370 [0x05] ExtData[1]->WorkLocal[12] = 1
 22: 0x0373 [0x03] Work_Zone[2] = 2641*
 23: 0x0378 [0x24] CREATE_DIALOG(message_id=7925*, default_option=1*, option_flags=0*)
    → "Now what? [Use the $3./Do nothing.]"
 24: 0x037F [0x25] WAIT_DIALOG_SELECT()
 25: 0x0380 [0x02] IF !(Work_Zone[0] == 0*) GOTO 0x038B
 26: 0x0388 [0x01] GOTO 0x039E
 27: 0x038B [0x02] IF !(Work_Zone[0] == 1*) GOTO 0x039E
 28: 0x0393 [0x03] Work_Zone[1] = 1073741824*
 29: 0x0398 [0x05] ExtData[1]->WorkLocal[8] = 1
 30: 0x039B [0x01] GOTO 0x039E

SUBROUTINE_039E:
 31: 0x039E [0x02] IF !(ExtData[1]->WorkLocal[8] == 0*) GOTO 0x03E1
 32: 0x03A6 [0x03] Work_Zone[2] = 2641*
 33: 0x03AB [0x48] [System] [7935*]:
    → "Expend your $3 and enter the obscured domain with your alliance members?"
 34: 0x03AE [0x23] WAIT_FOR_DIALOG_INTERACTION
 35: 0x03AF [0x24] CREATE_DIALOG(message_id=7936*, default_option=ExtData[1]->WorkLocal[12], option_flags=0*)
    → "Proceed? [Yes./No.]"
 36: 0x03B6 [0x25] WAIT_DIALOG_SELECT()
 37: 0x03B7 [0x02] IF !(Work_Zone[0] == 0*) GOTO 0x03CB
 38: 0x03BF [0x06] ExtData[1]->WorkLocal[12] = 0
 39: 0x03C2 [0x48] [System] [7763*]:
    → "Your request for entry is being considered..."
 40: 0x03C5 [0x1A] CALL_SUBROUTINE(address=0x03E3)
 41: 0x03C8 [0x01] GOTO 0x03DE
 42: 0x03CB [0x02] IF !(Work_Zone[0] == 1*) GOTO 0x03DE
 43: 0x03D3 [0x03] Work_Zone[1] = 1073741824*
 44: 0x03D8 [0x05] ExtData[1]->WorkLocal[8] = 1
 45: 0x03DB [0x01] GOTO 0x03DE

SUBROUTINE_03DE:
 46: 0x03DE [0x01] GOTO 0x039E
 47: 0x03E1 [0x21] END_EVENT
 48: 0x03E2 [0x00] END_REQSTACK()

SUBROUTINE_03E3:
 49: 0x03E3 [0x06] ExtData[1]->WorkLocal[13] = 0
 50: 0x03E6 [0x06] ExtData[1]->WorkLocal[16] = 0
 51: 0x03E9 [0x06] ExtData[1]->WorkLocal[14] = 0

SUBROUTINE_03EC:
 52: 0x03EC [0x02] IF !(ExtData[1]->WorkLocal[13] == 0*) GOTO 0x0413
 53: 0x03F4 [0x02] IF !(ExtData[1]->WorkLocal[16] == 0*) GOTO 0x0402
 54: 0x03FC [0x1A] CALL_SUBROUTINE(address=0x0414)
 55: 0x03FF [0x01] GOTO 0x0410
 56: 0x0402 [0x02] IF !(ExtData[1]->WorkLocal[16] == 1*) GOTO 0x0410
 57: 0x040A [0x1A] CALL_SUBROUTINE(address=0x04D5)
 58: 0x040D [0x01] GOTO 0x0410

SUBROUTINE_0410:
 59: 0x0410 [0x01] GOTO 0x03EC
 60: 0x0413 [0x1B] RETURN

SUBROUTINE_0414:
 61: 0x0414 [0x03] Work_Zone[1] = ExtData[1]->WorkLocal[17]
 62: 0x0419 [0x40] SET_BIT_WORK_RANGE(start_bit=12*, end_bit=15*, target=Work_Zone[1], source=ExtData[1]->WorkLocal[16])
 63: 0x0422 [0x43] SEND_EVENT_UPDATE: Send pending tag to server (packet 0x005B)
 64: 0x0424 [0x43] SEND_EVENT_UPDATE: Check pending flag (skip if not pending)
 65: 0x0426 [0x03] ExtData[1]->WorkLocal[15] = Work_Zone[9]
 66: 0x042B [0x03] Work_Zone[1] = 0*
 67: 0x0430 [0x02] IF !(ExtData[1]->WorkLocal[15] == 1*) GOTO 0x0440
 68: 0x0438 [0x03] ExtData[1]->WorkLocal[16] = 1*
 69: 0x043D [0x01] GOTO 0x04D4
 70: 0x0440 [0x02] IF !(ExtData[1]->WorkLocal[15] == 2*) GOTO 0x0466
 71: 0x0448 [0x0B] ExtData[1]->WorkLocal[14]++
 72: 0x044B [0x02] IF !(ExtData[1]->WorkLocal[14] <= 5*) GOTO 0x0460
 73: 0x0453 [0x05] ExtData[1]->WorkLocal[13] = 1
 74: 0x0456 [0x48] [System] [7760*]:
    → "You cannot enter at this time. Please wait a moment and try again."
 75: 0x0459 [0x23] WAIT_FOR_DIALOG_INTERACTION
 76: 0x045A [0x1C] WAIT(60* ticks)
 77: 0x045D [0x01] GOTO 0x0463
 78: 0x0460 [0x1C] WAIT(120* ticks)

SUBROUTINE_0463:
 79: 0x0463 [0x01] GOTO 0x04D4
 80: 0x0466 [0x02] IF !(ExtData[1]->WorkLocal[15] == 3*) GOTO 0x047C
 81: 0x046E [0x03] Work_Zone[1] = 1073741824*
 82: 0x0473 [0x05] ExtData[1]->WorkLocal[13] = 1
 83: 0x0476 [0x05] ExtData[1]->WorkLocal[8] = 1
 84: 0x0479 [0x01] GOTO 0x04D4
 85: 0x047C [0x02] IF !(ExtData[1]->WorkLocal[15] == 4*) GOTO 0x0492
 86: 0x0484 [0x03] Work_Zone[1] = 1073741824*
 87: 0x0489 [0x05] ExtData[1]->WorkLocal[13] = 1
 88: 0x048C [0x05] ExtData[1]->WorkLocal[8] = 1
 89: 0x048F [0x01] GOTO 0x04D4
 90: 0x0492 [0x02] IF !(ExtData[1]->WorkLocal[15] == 5*) GOTO 0x04A8
 91: 0x049A [0x03] Work_Zone[1] = 1073741824*
 92: 0x049F [0x05] ExtData[1]->WorkLocal[13] = 1
 93: 0x04A2 [0x05] ExtData[1]->WorkLocal[8] = 1
 94: 0x04A5 [0x01] GOTO 0x04D4
 95: 0x04A8 [0x02] IF !(ExtData[1]->WorkLocal[15] == 6*) GOTO 0x04BE
 96: 0x04B0 [0x03] Work_Zone[1] = 1073741824*
 97: 0x04B5 [0x05] ExtData[1]->WorkLocal[13] = 1
 98: 0x04B8 [0x05] ExtData[1]->WorkLocal[8] = 1
 99: 0x04BB [0x01] GOTO 0x04D4
100: 0x04BE [0x02] IF !(ExtData[1]->WorkLocal[15] == 7*) GOTO 0x04D4
101: 0x04C6 [0x03] Work_Zone[1] = 1073741824*
102: 0x04CB [0x05] ExtData[1]->WorkLocal[13] = 1
103: 0x04CE [0x05] ExtData[1]->WorkLocal[8] = 1
104: 0x04D1 [0x01] GOTO 0x04D4

SUBROUTINE_04D4:
105: 0x04D4 [0x1B] RETURN

SUBROUTINE_04D5:
106: 0x04D5 [0x03] Work_Zone[1] = ExtData[1]->WorkLocal[17]
107: 0x04DA [0x40] SET_BIT_WORK_RANGE(start_bit=12*, end_bit=15*, target=Work_Zone[1], source=ExtData[1]->WorkLocal[16])
108: 0x04E3 [0x43] SEND_EVENT_UPDATE: Send pending tag to server (packet 0x005B)
109: 0x04E5 [0x43] SEND_EVENT_UPDATE: Check pending flag (skip if not pending)
110: 0x04E7 [0x03] Work_Zone[1] = 0*
111: 0x04EC [0x03] ExtData[1]->WorkLocal[15] = Work_Zone[9]
112: 0x04F1 [0x02] IF !(ExtData[1]->WorkLocal[15] == 3*) GOTO 0x0504
113: 0x04F9 [0x03] Work_Zone[1] = 1073741824*
114: 0x04FE [0x05] ExtData[1]->WorkLocal[13] = 1
115: 0x0501 [0x01] GOTO 0x064C
116: 0x0504 [0x02] IF !(ExtData[1]->WorkLocal[15] == 4*) GOTO 0x051A
117: 0x050C [0x03] Work_Zone[1] = 1073741824*
118: 0x0511 [0x05] ExtData[1]->WorkLocal[13] = 1
119: 0x0514 [0x05] ExtData[1]->WorkLocal[8] = 1
120: 0x0517 [0x01] GOTO 0x064C
121: 0x051A [0x02] IF !(ExtData[1]->WorkLocal[15] == 5*) GOTO 0x0530
122: 0x0522 [0x03] Work_Zone[1] = 1073741824*
123: 0x0527 [0x05] ExtData[1]->WorkLocal[13] = 1
124: 0x052A [0x05] ExtData[1]->WorkLocal[8] = 1
125: 0x052D [0x01] GOTO 0x064C
126: 0x0530 [0x02] IF !(ExtData[1]->WorkLocal[15] == 6*) GOTO 0x0546
127: 0x0538 [0x03] Work_Zone[1] = 1073741824*
128: 0x053D [0x05] ExtData[1]->WorkLocal[13] = 1
129: 0x0540 [0x05] ExtData[1]->WorkLocal[8] = 1
130: 0x0543 [0x01] GOTO 0x064C
131: 0x0546 [0x02] IF !(ExtData[1]->WorkLocal[15] == 7*) GOTO 0x055C
132: 0x054E [0x03] Work_Zone[1] = 1073741824*
133: 0x0553 [0x05] ExtData[1]->WorkLocal[13] = 1
134: 0x0556 [0x05] ExtData[1]->WorkLocal[8] = 1
135: 0x0559 [0x01] GOTO 0x064C
136: 0x055C [0x02] IF !(ExtData[1]->WorkLocal[15] == 8*) GOTO 0x05EB
137: 0x0564 [0x03] Work_Zone[3] = 1*
138: 0x0569 [0x48] [System] [7772*]:
    → "Now permeating the mists surrounding the [fracture/obscured domain]."
139: 0x056C [0x23] WAIT_FOR_DIALOG_INTERACTION
140: 0x056D [0x62] LOAD_EVENT_SCHEDULER: Load scheduler "main" with entities [LocalPlayer, LocalPlayer], work=[1*, 0*]
141: 0x057E [0x1C] WAIT(90* ticks)
142: 0x0581 [0x45] LOAD_SCHEDULED_TASK: Load scheduler "who1" with entities [LocalPlayer, LocalPlayer], work=[201*, 0*]
143: 0x0592 [0x55] WAIT_LOAD_SCHEDULER: Wait for scheduler "who1" with entities [LocalPlayer, LocalPlayer], work=201*
144: 0x05A1 [0x1C] WAIT(45* ticks)
145: 0x05A4 [0x45] LOAD_SCHEDULED_TASK: Load scheduler "fdo1" with entities [LocalPlayer, LocalPlayer], work=[200*, 0*]
146: 0x05B5 [0x55] WAIT_LOAD_SCHEDULER: Wait for scheduler "fdo1" with entities [LocalPlayer, LocalPlayer], work=200*
147: 0x05C4 [0x45] LOAD_SCHEDULED_TASK: Load scheduler "whi1" with entities [LocalPlayer, LocalPlayer], work=[201*, 0*]
148: 0x05D5 [0x1C] WAIT(15* ticks)
149: 0x05D8 [0x30] SET_UCOFF_CONTINUE_ZERO()
150: 0x05D9 [0x05] ExtData[1]->WorkLocal[13] = 1
151: 0x05DC [0x05] ExtData[1]->WorkLocal[8] = 1
152: 0x05DF [0x40] SET_BIT_WORK_RANGE(start_bit=0*, end_bit=7*, target=Work_Zone[1], source=8*)
153: 0x05E8 [0x01] GOTO 0x064C
154: 0x05EB [0x02] IF !(ExtData[1]->WorkLocal[15] == 9*) GOTO 0x05FE
155: 0x05F3 [0x03] Work_Zone[1] = 1073741824*
156: 0x05F8 [0x05] ExtData[1]->WorkLocal[13] = 1
157: 0x05FB [0x01] GOTO 0x064C
158: 0x05FE [0x02] IF !(ExtData[1]->WorkLocal[15] == 10*) GOTO 0x0614
159: 0x0606 [0x03] Work_Zone[1] = 1073741824*
160: 0x060B [0x05] ExtData[1]->WorkLocal[13] = 1
161: 0x060E [0x05] ExtData[1]->WorkLocal[8] = 1
162: 0x0611 [0x01] GOTO 0x064C
163: 0x0614 [0x02] IF !(ExtData[1]->WorkLocal[15] == 11*) GOTO 0x064C
164: 0x061C [0x0B] ExtData[1]->WorkLocal[14]++
165: 0x061F [0x02] IF !(ExtData[1]->WorkLocal[14] <= 15*) GOTO 0x0646
166: 0x0627 [0x03] Work_Zone[1] = ExtData[1]->WorkLocal[17]
167: 0x062C [0x40] SET_BIT_WORK_RANGE(start_bit=12*, end_bit=15*, target=Work_Zone[1], source=2*)
168: 0x0635 [0x43] SEND_EVENT_UPDATE: Send pending tag to server (packet 0x005B)
169: 0x0637 [0x43] SEND_EVENT_UPDATE: Check pending flag (skip if not pending)
170: 0x0639 [0x05] ExtData[1]->WorkLocal[13] = 1
171: 0x063C [0x48] [System] [7760*]:
    → "You cannot enter at this time. Please wait a moment and try again."
172: 0x063F [0x23] WAIT_FOR_DIALOG_INTERACTION
173: 0x0640 [0x1C] WAIT(60* ticks)
174: 0x0643 [0x01] GOTO 0x0649
175: 0x0646 [0x1C] WAIT(120* ticks)

SUBROUTINE_0649:
176: 0x0649 [0x01] GOTO 0x064C

SUBROUTINE_064C:
177: 0x064C [0x1B] RETURN
```

#### Data or dead code:

```
# Dead code (unreachable instructions):
     0x064D [0x5B] LOAD_EXT_SCHEDULER: Load scheduler 0x62806180 with entities [Unknown NPC (ID: 1585470848/0x5E805D80), Unknown NPC (ID: 1619025792/0x60805F80)], work=0x5C80
     0x065C [0x80] LOAD_WAIT(entity=Unknown NPC (ID: 2154070115/0x80648063))
     0x0661 [0x65] CALCULATE_3D_DISTANCE(result=0x6680, entity1=Unknown NPC (ID: 1753245568/0x68806780), entity2=Unknown NPC (ID: 1786800512/0x6A806980))
     0x066C [0x80] LOAD_WAIT(entity=Unknown NPC (ID: 2147844101/0x80058005))
     0x0671 [0x05] 0x6B80 = 1
     0x0674 [0x80] LOAD_WAIT(entity=Unknown NPC (ID: 2154594411/0x806C806B))
     0x0679 [0x05] 0x0580 = 1
     0x067C [0x80] LOAD_WAIT(entity=Unknown NPC (ID: 2154659949/0x806D806D))
     0x0681 [0x6E] Unknown NPC (ID: 1870687616/0x6F806D80) uses emote 0x6F80
     0x0688 [0x80] LOAD_WAIT(entity=Unknown NPC (ID: 2154659950/0x806D806E))
     0x068D [0x6D] DEPRECATED_OPCODE(unused1=0x6E80, unused2=0x6F80, unused3=0x6D80)
     0x0694 [0x80] LOAD_WAIT(entity=Unknown NPC (ID: 2154659950/0x806D806E))
     0x0699 [0x6D] DEPRECATED_OPCODE(unused1=0x6E80, unused2=0x0580, unused3=0x0580)
     0x06A0 [0x80] LOAD_WAIT(entity=Unknown NPC (ID: 2154725381/0x806E8005))
     0x06A5 [0x6E] Unknown NPC (ID: 92303488/0x05807080) uses emote 0x0580
     0x06AC [0x80] LOAD_WAIT(entity=Unknown NPC (ID: 2154922089/0x80718069))
     0x06B1 [0x72] LOAD_EVENT_WEATHER: Unknown mode 128, weather_id=865*
     0x06B5 [0x74] EventEntity->Render.Flags1 ^= 0x00
     0x06B7 [0x75] LOAD_ROOM(Unknown mode 128, room=868*)
     0x06BB [0x77] SET_EVENT_TIME_WEATHER(hour=0x7880, weather=0x7980)
     0x06C0 [0x80] LOAD_WAIT(entity=Unknown NPC (ID: 2147844101/0x80058005))
     0x06C5 [0x05] 0x0580 = 1
     0x06C8 [0x80] LOAD_WAIT(entity=Unknown NPC (ID: 2147844101/0x80058005))
     0x06CD [0x7A] VM_CONTROL(operation=128)
     0x06CF [0x7A] VM_CONTROL(operation=128)
     0x06D1 [0x7A] VM_CONTROL(operation=128)
     0x06D3 [0x7A] VM_CONTROL(operation=128)
     0x06D5 [0x7A] VM_CONTROL(operation=128)
     0x06D7 [0x7B] Unknown NPC (ID: 2105572480/0x7D807C80) stops talking
     0x06DC [0x80] LOAD_WAIT(entity=Unknown NPC (ID: 2155839614/0x807F807E))
     0x06E1 [0x80] LOAD_WAIT(entity=Unknown NPC (ID: 2189459840/0x82808180))
     0x06E6 [0x80] LOAD_WAIT(entity=Unknown NPC (ID: 2156167299/0x80848083))
     0x06EB [0x85] OPEN_MOOGLE_MENU()
     0x06EC [0x80] LOAD_WAIT(entity=Unknown NPC (ID: 2151055414/0x80368036))
     0x06F1 [0x36] SET_ENTITY_EVENT_POSITION(pos_x=0x3680, pos_z=0x3680, pos_y=References[1664])
     0x06F8 [0x80] LOAD_WAIT(entity=Unknown NPC (ID: 2156363902/0x8087807E))
     0x06FD [0x88] WORLD_PASS_HANDLER_B: Send world pass packet 0x1B (Para=1, sets RecFriendPassFlag)
     0x06FE [0x80] LOAD_WAIT(entity=Unknown NPC (ID: 2156494984/0x80898088))
     0x0703 [0x89] OPEN_MAP(map_id=0x00003480)
     0x0706 [0x80] LOAD_WAIT(entity=Unknown NPC (ID: 2147844101/0x80058005))
     0x070B [0x05] 0x0580 = 1
     0x070E [0x80] LOAD_WAIT(entity=Unknown NPC (ID: 2147844101/0x80058005))
     0x0713 [0x05] 0x0580 = 1
     0x0716 [0x80] LOAD_WAIT(entity=Unknown NPC (ID: 2147844101/0x80058005))
     0x071B [0x05] References[2688] = 1
     0x071E [0x80] LOAD_WAIT(entity=Unknown NPC (ID: 2147844234/0x8005808A))
     0x0723 [0x8B] SET_EVENT_MARK: Add/update map marker on map 0x3080 at (References[3456], References[2688]), index=References[3200], name=(no name)
     0x072C [0x80] LOAD_WAIT(entity=Unknown NPC (ID: 2156888206/0x808F808E))
     0x0731 [0x90] EventEntity->Render.Flags0 |= 0x04; EventEntity->Render.Flags1 |= 0x08
     0x0732 [0x80] LOAD_WAIT(entity=Unknown NPC (ID: 2157084817/0x80928091))
     0x0737 [0x8A] CLOSE_MAP()
     0x0738 [0x80] LOAD_WAIT(entity=Unknown NPC (ID: 2157150353/0x80938091))
     0x073D [0x94] Unknown NPC (ID: 2147844101/0x80058005)->Render.Flags3 ^= 0x80
     0x0743 [0x05] 0x9580 = 1
     0x0746 [0x80] LOAD_WAIT(entity=Unknown NPC (ID: 2157412502/0x80978096))
     0x074B [0x91] ExtData[1]->MainSpeedBase = 0x9180 * 10.0
     0x074E [0x80] LOAD_WAIT(entity=Unknown NPC (ID: 2157019281/0x80918091))
     0x0753 [0x91] ExtData[1]->MainSpeedBase = 0x9180 * 10.0
     0x0756 [0x80] LOAD_WAIT(entity=Unknown NPC (ID: 2157019281/0x80918091))
     0x075B [0x91] ExtData[1]->MainSpeedBase = 0x0580 * 10.0
     0x075E [0x80] LOAD_WAIT(entity=Unknown NPC (ID: 2147844101/0x80058005))
     0x0763 [0x05] 0x0580 = 1
     0x0766 [0x80] LOAD_WAIT(entity=Unknown NPC (ID: 2147844101/0x80058005))
     0x076B [0x05] 0x0580 = 1
     0x076E [0x80] LOAD_WAIT(entity=Unknown NPC (ID: 2147844101/0x80058005))
     0x0773 [0x05] 0x0580 = 1
     0x0776 [0x80] LOAD_WAIT(entity=Unknown NPC (ID: 2147844101/0x80058005))
     0x077B [0x05] 0x0580 = 1
     0x077E [0x80] LOAD_WAIT(entity=Unknown NPC (ID: 2147844101/0x80058005))
     0x0783 [0x05] 0x0580 = 1
     0x0786 [0x80] LOAD_WAIT(entity=Unknown NPC (ID: 2147844101/0x80058005))
     0x078B [0x05] 0x0580 = 1
     0x078E [0x80] LOAD_WAIT(entity=Unknown NPC (ID: 2147844101/0x80058005))
     0x0793 [0x05] 0x9880 = 1
     0x0796 [0x80] LOAD_WAIT(entity=Unknown NPC (ID: 2147844249/0x80058099))
     0x079B [0x05] 0x0580 = 1
     0x079E [0x80] LOAD_WAIT(entity=Unknown NPC (ID: 2147844101/0x80058005))
     0x07A3 [0x05] 0x0580 = 1
     0x07A6 [0x80] LOAD_WAIT(entity=Unknown NPC (ID: 2147844101/0x80058005))
     0x07AB [0x05] 0x0580 = 1
     0x07AE [0x80] LOAD_WAIT(entity=Unknown NPC (ID: 2147844101/0x80058005))
     0x07B3 [0x05] 0x0580 = 1
     0x07B6 [0x80] LOAD_WAIT(entity=Unknown NPC (ID: 2147844101/0x80058005))
     0x07BB [0x05] 0x0580 = 1
     0x07BE [0x80] LOAD_WAIT(entity=Unknown NPC (ID: 2147844101/0x80058005))
     0x07C3 [0x05] 0x0580 = 1
     0x07C6 [0x80] LOAD_WAIT(entity=Unknown NPC (ID: 2147844101/0x80058005))
     0x07CB [0x05] 0x9A80 = 1
     0x07CE [0x80] LOAD_WAIT(entity=Unknown NPC (ID: 2157609114/0x809A809A))
     0x07D3 [0x9A] WAIT_MUSIC_SERVER()
     0x07D4 [0x80] LOAD_WAIT(entity=Unknown NPC (ID: 2157674650/0x809B809A))
     0x07D9 [0x9C] STORE_CLIENT_LANGUAGE_ID(result=0x9D80)
     0x07DC [0x80] LOAD_WAIT(entity=Unknown NPC (ID: 2157936798/0x809F809E))
     0x07E1 [0xA0] WAIT_LOAD_SCHEDULER_MAIN_ALT2: Wait for scheduler 0xA580A580 with entities [Unknown NPC (ID: 2726338944/0xA280A180), Unknown NPC (ID: 2759893888/0xA480A380)], work=0x3680
     0x07F0 [0x80] LOAD_WAIT(entity=Unknown NPC (ID: 2158330021/0x80A580A5))
     0x07F5 [0xA5] EventEntity->Flags3.BallistaTeam &= ~0x08  // Clear bit 3 of BallistaTeam
     0x07F7 [0x91] ExtData[1]->MainSpeedBase = 0x9E80 * 10.0
     0x07FA [0x80] LOAD_WAIT(entity=Unknown NPC (ID: 2156495014/0x808980A6))
     0x07FF [0x7C] Unknown NPC (ID: 2156494972/0x8089807C)->Render.Flags2 ^= 0x00
     0x0805 [0xA7] BATTLEFIELD_RESPONSE_WAIT: Wait for server response (Dynamis/MMM/Salvage), mode=0x80
     0x0807 [0x05] 0x0580 = 1
     0x080A [0x80] LOAD_WAIT(entity=Unknown NPC (ID: 2147844101/0x80058005))
     0x080F [0x05] 0x0580 = 1
     0x0812 [0x80] LOAD_WAIT(entity=Unknown NPC (ID: 2147844101/0x80058005))
     0x0817 [0x05] 0x0580 = 1
     0x081A [0x80] LOAD_WAIT(entity=Unknown NPC (ID: 2158526469/0x80A88005))
     0x081F [0xA8] MAP_MARKER_CONTROL: Control markers (flag=0x80), zone=0*, marker=4294587296*
     0x0825 [0xAA] VANA_DIEL_TIMESTAMP_CONVERTER(timestamp=0xAB80, year=0x9F80, month=0xA880, day=0x9A80, weekday=0xAC80, hour=0xAD80, minute=0xAE80, moon=0x9E80)
     0x0836 [0x80] LOAD_WAIT(entity=Unknown NPC (ID: 2158985384/0x80AF80A8))
     0x083B [0xB0] PRINT_EVENT_MESSAGE(unknown1=0x80, speaker_id=0x800580B1, listener_id=0x80058005, message_offset=0x8096)
     0x0847 [0xB2] DELIVERY_BOX_HANDLER(mode=0x80)
     0x0849 [0xB2] DELIVERY_BOX_HANDLER(mode=0x80)
     0x084B [0xAF] GET_CAMERA_POSITION(mode=0x80, x=0x80AF, z=0x80AF, y=0x80AF)
     0x0853 [0xAF] GET_CAMERA_POSITION(mode=0x80, x=0x80AF, z=0x80AF, y=0x80AF)
     0x085B [0xAF] GET_CAMERA_POSITION(mode=0x80, x=0x8005, z=0x8005, y=0x8005)
     0x0863 [0x05] 0x0580 = 1
     0x0866 [0x80] LOAD_WAIT(entity=Unknown NPC (ID: 2147844101/0x80058005))
     0x086B [0x05] 0x0580 = 1
     0x086E [0x80] LOAD_WAIT(entity=Unknown NPC (ID: 2147844101/0x80058005))
     0x0873 [0x05] 0x0580 = 1
     0x0876 [0x80] LOAD_WAIT(entity=Unknown NPC (ID: 2147844101/0x80058005))
     0x087B [0x05] 0x0580 = 1
     0x087E [0x80] LOAD_WAIT(entity=Unknown NPC (ID: 2147844101/0x80058005))
     0x0883 [0x05] 0x0580 = 1
     0x0886 [0x80] LOAD_WAIT(entity=Unknown NPC (ID: 2147844101/0x80058005))
     0x088B [0x05] 0x0580 = 1
     0x088E [0x80] LOAD_WAIT(entity=Unknown NPC (ID: 2147844101/0x80058005))
     0x0893 [0x05] 0xB380 = 1
     0x0896 [0x80] LOAD_WAIT(entity=Unknown NPC (ID: 2147844276/0x800580B4))
     0x089B [0x05] 0x0580 = 1
     0x089E [0x80] LOAD_WAIT(entity=Unknown NPC (ID: 2147844101/0x80058005))
     0x08A3 [0x05] 0x0580 = 1
     0x08A6 [0x80] LOAD_WAIT(entity=Unknown NPC (ID: 2147844101/0x80058005))
     0x08AB [0x05] 0x0580 = 1
     0x08AE [0x80] LOAD_WAIT(entity=Unknown NPC (ID: 2147844101/0x80058005))
     0x08B3 [0x05] 0x0580 = 1
     0x08B6 [0x80] LOAD_WAIT(entity=Unknown NPC (ID: 2147844101/0x80058005))
     0x08BB [0x05] 0x0580 = 1
     0x08BE [0x80] LOAD_WAIT(entity=Unknown NPC (ID: 2147844101/0x80058005))
     0x08C3 [0x05] 0x0580 = 1
     0x08C6 [0x80] LOAD_WAIT(entity=Unknown NPC (ID: 2147844101/0x80058005))
     0x08CB [0x05] 0xB580 = 1
     0x08CE [0x80] LOAD_WAIT(entity=Unknown NPC (ID: 2159378613/0x80B580B5))
     0x08D3 [0xB5] SET_EVENT_ENTITY_NAME: Change EventEntity name to 4294961296*
     0x08D7 [0xB5] SET_EVENT_ENTITY_NAME: Change EventEntity name to "0u"*
     0x08DB [0x05] 0x0580 = 1
     0x08DE [0x80] LOAD_WAIT(entity=Unknown NPC (ID: 2147844279/0x800580B7))
     0x08E3 [0xB8] MAP_ADD_MARKER_WITH_NAME(zone=0xB980, submap=0xBA80, marker_id=0xBB80, x_pos=0xBC80, y_pos=0x9A80, marker_name=0x809a809a809a809a80b680b680bd80be)
     0x08FE [0x80] LOAD_WAIT(entity=Unknown NPC (ID: 2160033983/0x80BF80BF))
     0x0903 [0xBE] STORE_REQ_WHO_SERVER_ID(work_offset=0xC080)
     0x0906 [0x80] LOAD_WAIT(entity=Unknown NPC (ID: 2147844101/0x80058005))
     0x090B [0x05] 0x0580 = 1
     0x090E [0x80] LOAD_WAIT(entity=Unknown NPC (ID: 2147844101/0x80058005))
     0x0913 [0x05] 0x0580 = 1
     0x0916 [0x80] LOAD_WAIT(entity=Unknown NPC (ID: 2147844101/0x80058005))
     0x091B [0x05] 0xB580 = 1
     0x091E [0x80] LOAD_WAIT(entity=Unknown NPC (ID: 2147844277/0x800580B5))
     0x0923 [0xC1] KILL_ENTITY_ACTION(entity_id=0xC380C280)
     0x0928 [0x80] LOAD_WAIT(entity=Unknown NPC (ID: 2159378437/0x80B58005))
     0x092D [0xC4] SCHEDULE_MAGIC_CASTING_ALT (arg=16): Unknown NPC (ID: 2160427190/0x80C580B6) casts magic 0* on Unknown NPC (ID: 2159378437/0x80B58005)
     0x0939 [0xC5] LOAD_SCHEDULED_TASK_ALT3: Load scheduler 0x36803680 for entities [Unknown NPC (ID: 92325760/0x0580C780), Unknown NPC (ID: 92276096/0x05800580)], work=0xC680, param=48768
     0x094A [0x80] LOAD_WAIT(entity=Unknown NPC (ID: 2160427205/0x80C580C5))
     0x094F [0xC5] LOAD_SCHEDULED_TASK_ALT3: Load scheduler 0x05800580 for entities [Unknown NPC (ID: 3313550720/0xC580C580), Unknown NPC (ID: 3313550720/0xC580C580)], work=0xC580, param=50560
     0x0960 [0x80] LOAD_WAIT(entity=Unknown NPC (ID: 2147844101/0x80058005))
     0x0965 [0x05] 0x0580 = 1
     0x0968 [0x80] LOAD_WAIT(entity=Unknown NPC (ID: 2147844101/0x80058005))
     0x096D [0x05] 0x0580 = 1
     0x0970 [0x80] LOAD_WAIT(entity=Unknown NPC (ID: 2147844101/0x80058005))
     0x0975 [0x05] 0x0580 = 1
     0x0978 [0x80] LOAD_WAIT(entity=Unknown NPC (ID: 2147844101/0x80058005))
     0x097D [0x05] 0x0580 = 1
     0x0980 [0x80] LOAD_WAIT(entity=Unknown NPC (ID: 2147844101/0x80058005))
     0x0985 [0x05] 0x0580 = 1
     0x0988 [0x80] LOAD_WAIT(entity=Unknown NPC (ID: 2147844101/0x80058005))
     0x098D [0x05] 0x0580 = 1
     0x0990 [0x80] LOAD_WAIT(entity=Unknown NPC (ID: 2147844101/0x80058005))
     0x0995 [0xC8] OPEN_MAP_WINDOW(zone=0xC980, submap=0x0580, flag=0x0580)
     0x099C [0x80] LOAD_WAIT(entity=Unknown NPC (ID: 2147844101/0x80058005))
     0x09A1 [0x05] 0x0580 = 1
     0x09A4 [0x80] LOAD_WAIT(entity=Unknown NPC (ID: 2147844101/0x80058005))
     0x09A9 [0x05] 0x0580 = 1
     0x09AC [0x80] LOAD_WAIT(entity=Unknown NPC (ID: 2147844101/0x80058005))
     0x09B1 [0x05] 0x0580 = 1
     0x09B4 [0x80] LOAD_WAIT(entity=Unknown NPC (ID: 2147844101/0x80058005))
     0x09B9 [0x05] 0x0580 = 1
     0x09BC [0x80] LOAD_WAIT(entity=Unknown NPC (ID: 2147844101/0x80058005))
     0x09C1 [0x05] 0x0580 = 1
     0x09C4 [0x80] LOAD_WAIT(entity=Unknown NPC (ID: 2147844101/0x80058005))
     0x09C9 [0x05] 0x0580 = 1
     0x09CC [0x80] LOAD_WAIT(entity=Unknown NPC (ID: 2147844101/0x80058005))
     0x09D1 [0x05] 0x0580 = 1
     0x09D4 [0x80] LOAD_WAIT(entity=Unknown NPC (ID: 2160754693/0x80CA8005))
     0x09D9 [0x33] EventEntity->Render.Flags0 ^= 0x200000 // Bit 21 (flag=0x80)
     0x09DB [0xCB] DEPRECATED_OPCODE_CB()
     0x09DC [0x80] LOAD_WAIT(entity=Unknown NPC (ID: 2147844147/0x80058033))
     0x09E1 [0x05] 0x3380 = 1
     0x09E4 [0x80] LOAD_WAIT(entity=Unknown NPC (ID: 2147844298/0x800580CA))
     0x09E9 [0xCC] ITEM_INFO_WINDOW_HANDLER(case=0x80 - Unknown case 0x80)
     0x09ED [0xCE] WAIT_LOAD_SCHEDULER_ALT4: Wait for scheduler 0x5280D080 with entities [Unknown NPC (ID: 3464547968/0xCE80CE80), Unknown NPC (ID: 3481325184/0xCF80CE80)], work=0xCE80
     0x09FC [0x80] LOAD_WAIT(entity=Unknown NPC (ID: 2161017034/0x80CE80CA))
     0x0A01 [0x05] 0x3380 = 1
     0x0A04 [0x80] LOAD_WAIT(entity=Unknown NPC (ID: 2147844302/0x800580CE))
     0x0A09 [0x05] 0x0580 = 1
     0x0A0C [0x80] LOAD_WAIT(entity=Unknown NPC (ID: 2147844101/0x80058005))
     0x0A11 [0x05] 0x0580 = 1
     0x0A14 [0x80] LOAD_WAIT(entity=Unknown NPC (ID: 2147844101/0x80058005))
     0x0A19 [0x05] 0x0580 = 1
     0x0A1C [0x80] LOAD_WAIT(entity=Unknown NPC (ID: 2147844101/0x80058005))
     0x0A21 [0x05] 0x0580 = 1
     0x0A24 [0x80] LOAD_WAIT(entity=Unknown NPC (ID: 2161016883/0x80CE8033))
     0x0A29 [0x05] 0x0580 = 1
     0x0A2C [0x80] LOAD_WAIT(entity=Unknown NPC (ID: 2147844101/0x80058005))
     0x0A31 [0xD1] WAIT_LOAD_SCHEDULER_ALT5: Wait for scheduler 0x0580D280 with entities [Unknown NPC (ID: 92326528/0x0580CA80), Unknown NPC (ID: 92327552/0x0580CE80)], work=0xCE80
     0x0A40 [0x80] LOAD_WAIT(entity=Unknown NPC (ID: 2147844101/0x80058005))
     0x0A45 [0xCA] DEPRECATED_OPCODE_CA()
     0x0A46 [0x80] LOAD_WAIT(entity=Unknown NPC (ID: 2147844300/0x800580CC))
     0x0A4B [0xCE] WAIT_LOAD_SCHEDULER_ALT4: Wait for scheduler 0xCE80CE80 with entities [Unknown NPC (ID: 3464547968/0xCE80CE80), Unknown NPC (ID: 3464547968/0xCE80CE80)], work=0xCE80
     0x0A5A [0x80] LOAD_WAIT(entity=Unknown NPC (ID: 2147844302/0x800580CE))
     0x0A5F [0x05] 0x0580 = 1
     0x0A62 [0x80] LOAD_WAIT(entity=Unknown NPC (ID: 2147844101/0x80058005))
     0x0A67 [0x05] 0x0580 = 1
     0x0A6A [0x80] LOAD_WAIT(entity=Unknown NPC (ID: 2147844101/0x80058005))
     0x0A6F [0x05] 0x0580 = 1
     0x0A72 [0x80] LOAD_WAIT(entity=Unknown NPC (ID: 2147844101/0x80058005))
     0x0A77 [0x05] 0x0580 = 1
     0x0A7A [0x80] LOAD_WAIT(entity=Unknown NPC (ID: 2147844101/0x80058005))
     0x0A7F [0x05] 0x0580 = 1
     0x0A82 [0x80] LOAD_WAIT(entity=Unknown NPC (ID: 2147844101/0x80058005))
     0x0A87 [0x05] 0x0580 = 1
     0x0A8A [0x80] LOAD_WAIT(entity=Unknown NPC (ID: 2147844101/0x80058005))
     0x0A8F [0x05] 0x0580 = 1
     0x0A92 [0x80] LOAD_WAIT(entity=Unknown NPC (ID: 2161213445/0x80D18005))
     0x0A97 [0xCA] DEPRECATED_OPCODE_CA()
     0x0A98 [0x80] LOAD_WAIT(entity=Unknown NPC (ID: 2147844101/0x80058005))
     0x0A9D [0x05] 0x0580 = 1
     0x0AA0 [0x80] LOAD_WAIT(entity=Unknown NPC (ID: 2147844101/0x80058005))
     0x0AA5 [0x05] 0x0580 = 1
     0x0AA8 [0x80] LOAD_WAIT(entity=Unknown NPC (ID: 2147844101/0x80058005))
     0x0AAD [0x05] 0x0580 = 1
     0x0AB0 [0x80] LOAD_WAIT(entity=Unknown NPC (ID: 2147844101/0x80058005))
     0x0AB5 [0x05] 0x0580 = 1
     0x0AB8 [0x80] LOAD_WAIT(entity=Unknown NPC (ID: 2147844101/0x80058005))
     0x0ABD [0x05] 0x0580 = 1
     0x0AC0 [0x80] LOAD_WAIT(entity=Unknown NPC (ID: 2147844101/0x80058005))
     0x0AC5 [0x05] 0x0580 = 1
     0x0AC8 [0x80] LOAD_WAIT(entity=Unknown NPC (ID: 2147844101/0x80058005))
     0x0ACD [0xD3] CLEAR_ENTITY_MOTION_QUEUE(condition_flag=0x80, entity_server_id=0x80D380D3)
     0x0AD3 [0xD3] CLEAR_ENTITY_MOTION_QUEUE(condition_flag=0x80, entity_server_id=0x80D380D3)
     0x0AD9 [0xD4] MAP_QUERY_WINDOW: Unknown case 0x80
     0x0ADB [0xD5] LOAD_EVENT_SCHEDULER_ALT8: Load scheduler 0x0000D580 with entities [Unknown NPC (ID: 3581990272/0xD580D580), Unknown NPC (ID: 3581990272/0xD580D580)], work=0x80
     0x0AEC [0x80] LOAD_WAIT(entity=Unknown NPC (ID: 2161410260/0x80D480D4))
     0x0AF1 [0xD4] MAP_QUERY_WINDOW: Unknown case 0x80
     0x0AF3 [0xD4] MAP_QUERY_WINDOW: Unknown case 0x80
     0x0AF5 [0xD4] MAP_QUERY_WINDOW: Unknown case 0x80
     0x0AF7 [0xD4] MAP_QUERY_WINDOW: Unknown case 0x80
     0x0AF9 [0xD4] MAP_QUERY_WINDOW: Unknown case 0x80
     0x0AFB [0xD4] MAP_QUERY_WINDOW: Unknown case 0x80
     0x0AFD [0xD6] WAIT_LOAD_SCHEDULER_ALT6: Wait for scheduler 0xD680D680 with entities [Unknown NPC (ID: 3598767744/0xD680D680), Unknown NPC (ID: 3598767744/0xD680D680)], work=0xD680
     0x0B0C [0x80] LOAD_WAIT(entity=Unknown NPC (ID: 2147844101/0x80058005))
     0x0B11 [0x05] 0x0580 = 1
     0x0B14 [0x80] LOAD_WAIT(entity=Unknown NPC (ID: 2147844101/0x80058005))
     0x0B19 [0x05] 0x0580 = 1
     0x0B1C [0x80] LOAD_WAIT(entity=Unknown NPC (ID: 2161344723/0x80D380D3))
     0x0B21 [0xD4] MAP_QUERY_WINDOW: Unknown case 0x80
     0x0B23 [0xD3] CLEAR_ENTITY_MOTION_QUEUE(condition_flag=0x80, entity_server_id=0x80D480D4)
     0x0B29 [0xD5] LOAD_EVENT_SCHEDULER_ALT8: Load scheduler 0x0000D580 with entities [Unknown NPC (ID: 3581989760/0xD580D380), Unknown NPC (ID: 3548435584/0xD380D480)], work=0x80
     0x0B3A [0x80] LOAD_WAIT(entity=Unknown NPC (ID: 2161410261/0x80D480D5))
     0x0B3F [0xD5] LOAD_EVENT_SCHEDULER_ALT8: Load scheduler 0x0000D380 with entities [Unknown NPC (ID: 3598767232/0xD680D480), Unknown NPC (ID: 3598767744/0xD680D680)], work=0x80
     0x0B50 [0x80] LOAD_WAIT(entity=Unknown NPC (ID: 2161344723/0x80D380D3))
     0x0B55 [0xD3] CLEAR_ENTITY_MOTION_QUEUE(condition_flag=0x80, entity_server_id=0x80D380D3)
     0x0B5B [0xD3] CLEAR_ENTITY_MOTION_QUEUE(condition_flag=0x80, entity_server_id=0x80058005)
     0x0B61 [0x05] 0x0580 = 1
     0x0B64 [0x80] LOAD_WAIT(entity=Unknown NPC (ID: 2147844101/0x80058005))
     0x0B69 [0x05] 0x0580 = 1
     0x0B6C [0x80] LOAD_WAIT(entity=Unknown NPC (ID: 2147844101/0x80058005))
     0x0B71 [0x05] 0x0580 = 1
     0x0B74 [0x80] LOAD_WAIT(entity=Unknown NPC (ID: 2147844101/0x80058005))
     0x0B79 [0x05] 0x0580 = 1
     0x0B7C [0x80] LOAD_WAIT(entity=Unknown NPC (ID: 2147844101/0x80058005))
     0x0B81 [0x05] 0x0580 = 1
     0x0B84 [0x80] LOAD_WAIT(entity=Unknown NPC (ID: 2147844101/0x80058005))
     0x0B89 [0x05] 0x0580 = 1
     0x0B8C [0x80] LOAD_WAIT(entity=Unknown NPC (ID: 2147844101/0x80058005))
     0x0B91 [0x05] 0x0580 = 1
     0x0B94 [0x80] LOAD_WAIT(entity=Unknown NPC (ID: 2161606869/0x80D780D5))
     0x0B99 [0x05] 0x0580 = 1
     0x0B9C [0x80] LOAD_WAIT(entity=Unknown NPC (ID: 2147844101/0x80058005))
     0x0BA1 [0x05] 0x0580 = 1
     0x0BA4 [0x80] LOAD_WAIT(entity=Unknown NPC (ID: 2147844101/0x80058005))
     0x0BA9 [0x05] 0x0580 = 1
     0x0BAC [0x80] LOAD_WAIT(entity=Unknown NPC (ID: 2147844101/0x80058005))
     0x0BB1 [0x05] 0x0580 = 1
     0x0BB4 [0x80] LOAD_WAIT(entity=Unknown NPC (ID: 2147844101/0x80058005))
     0x0BB9 [0x05] 0x0580 = 1
     0x0BBC [0x80] LOAD_WAIT(entity=Unknown NPC (ID: 2147844101/0x80058005))
     0x0BC1 [0x05] 0x0580 = 1
     0x0BC4 [0x80] LOAD_WAIT(entity=Unknown NPC (ID: 2147844101/0x80058005))
     0x0BC9 [0x05] 0x0580 = 1
     0x0BCC [0x80] LOAD_WAIT(entity=Unknown NPC (ID: 2154659949/0x806D806D))
     0x0BD1 [0x6D] DEPRECATED_OPCODE(unused1=0x6D80, unused2=0x6D80, unused3=0x6D80)
     0x0BD8 [0x80] LOAD_WAIT(entity=Unknown NPC (ID: 2154725487/0x806E806F))
     0x0BDD [0x6E] Unknown NPC (ID: 1853910656/0x6E806E80) uses emote 0x6E80
     0x0BE4 [0x80] LOAD_WAIT(entity=Unknown NPC (ID: 2154725486/0x806E806E))
     0x0BE9 [0x6E] Unknown NPC (ID: 1870687872/0x6F806E80) uses emote 0x6F80
     0x0BF0 [0x80] LOAD_WAIT(entity=Unknown NPC (ID: 2154791023/0x806F806F))
     0x0BF5 [0x6F] WAIT_FRAME_DELAY: Yield until WaitTime reaches zero
     0x0BF6 [0x80] LOAD_WAIT(entity=Unknown NPC (ID: 2154791023/0x806F806F))
     0x0BFB [0x6F] WAIT_FRAME_DELAY: Yield until WaitTime reaches zero
     0x0BFC [0x80] LOAD_WAIT(entity=Unknown NPC (ID: 2161672408/0x80D880D8))
     0x0C01 [0xD8] SET_ENTITY_EVENT_DIR: Unknown mode 0x80 for Unknown NPC (ID: 2161672408/0x80D880D8)
     0x0C07 [0xD8] SET_ENTITY_EVENT_DIR: Unknown mode 0x80 for Unknown NPC (ID: 2161672408/0x80D880D8)
     0x0C0D [0x05] 0x0580 = 1
     0x0C10 [0x80] LOAD_WAIT(entity=Unknown NPC (ID: 2147844101/0x80058005))
     0x0C15 [0x05] 0x0580 = 1
     0x0C18 [0x80] LOAD_WAIT(entity=Unknown NPC (ID: 2147844101/0x80058005))
     0x0C1D [0x6D] DEPRECATED_OPCODE(unused1=0x6D80, unused2=0x6F80, unused3=0x6D80)
     0x0C24 [0x80] LOAD_WAIT(entity=Unknown NPC (ID: 2154791023/0x806F806F))
     0x0C29 [0x6E] Unknown NPC (ID: 1837133184/0x6D806D80) uses emote 0x6E80
     0x0C30 [0x80] LOAD_WAIT(entity=Unknown NPC (ID: 2154659951/0x806D806F))
     0x0C35 [0x6E] Unknown NPC (ID: 1837133184/0x6D806D80) uses emote 0x6E80
     0x0C3C [0x80] LOAD_WAIT(entity=Unknown NPC (ID: 2154725487/0x806E806F))
     0x0C41 [0x6F] WAIT_FRAME_DELAY: Yield until WaitTime reaches zero
     0x0C42 [0x80] LOAD_WAIT(entity=Unknown NPC (ID: 2161672303/0x80D8806F))
     0x0C47 [0xD8] SET_ENTITY_EVENT_DIR: Unknown mode 0x80 for Unknown NPC (ID: 2154660056/0x806D80D8)
     0x0C4D [0x6D] DEPRECATED_OPCODE(unused1=0x6D80, unused2=0x6D80, unused3=0x6D80)
     0x0C54 [0x80] LOAD_WAIT(entity=Unknown NPC (ID: 2154659949/0x806D806D))
     0x0C59 [0x6D] DEPRECATED_OPCODE(unused1=0x6D80, unused2=0x0580, unused3=0x0580)
     0x0C60 [0x80] LOAD_WAIT(entity=Unknown NPC (ID: 2147844101/0x80058005))
     0x0C65 [0x05] 0x0580 = 1
     0x0C68 [0x80] LOAD_WAIT(entity=Unknown NPC (ID: 2147844101/0x80058005))
     0x0C6D [0x05] 0x0580 = 1
     0x0C70 [0x80] LOAD_WAIT(entity=Unknown NPC (ID: 2147844101/0x80058005))
     0x0C75 [0x05] 0x0580 = 1
     0x0C78 [0x80] LOAD_WAIT(entity=Unknown NPC (ID: 2147844101/0x80058005))
     0x0C7D [0x05] 0x0580 = 1
     0x0C80 [0x80] LOAD_WAIT(entity=Unknown NPC (ID: 2147844101/0x80058005))
     0x0C85 [0x05] 0x0580 = 1
     0x0C88 [0x80] LOAD_WAIT(entity=Unknown NPC (ID: 2147844101/0x80058005))
     0x0C8D [0x05] 0x0580 = 1
     0x0C90 [0x80] LOAD_WAIT(entity=Unknown NPC (ID: 2147844101/0x80058005))
     0x0C95 [0x6E] Unknown NPC (ID: 92303488/0x05807080) uses emote 0x0580
     0x0C9C [0x80] LOAD_WAIT(entity=Unknown NPC (ID: 2147844101/0x80058005))
     0x0CA1 [0x05] 0x0580 = 1
     0x0CA4 [0x80] LOAD_WAIT(entity=Unknown NPC (ID: 2147844101/0x80058005))
     0x0CA9 [0x05] 0x0580 = 1
     0x0CAC [0x80] LOAD_WAIT(entity=Unknown NPC (ID: 2147844101/0x80058005))
     0x0CB1 [0x05] 0x0580 = 1
     0x0CB4 [0x80] LOAD_WAIT(entity=Unknown NPC (ID: 2147844101/0x80058005))
     0x0CB9 [0x05] 0x0580 = 1
     0x0CBC [0x80] LOAD_WAIT(entity=Unknown NPC (ID: 2147844101/0x80058005))
     0x0CC1 [0x05] 0x0580 = 1
     0x0CC4 [0x80] LOAD_WAIT(entity=Unknown NPC (ID: 2147844101/0x80058005))
     0x0CC9 [0x05] 0x0580 = 1
     0x0CCC [0x80] LOAD_WAIT(entity=Unknown NPC (ID: 2147778564/0x80048004))
     0x0CD1 [0x04] DEPRECATED_NOP(unused=0x0480)
     0x0CD4 [0x80] LOAD_WAIT(entity=Unknown NPC (ID: 2147778564/0x80048004))
     0x0CD9 [0x04] DEPRECATED_NOP(unused=0x0480)
     0x0CDC [0x80] LOAD_WAIT(entity=Unknown NPC (ID: 2147778564/0x80048004))
     0x0CE1 [0x04] DEPRECATED_NOP(unused=0x0480)
     0x0CE4 [0x80] LOAD_WAIT(entity=Unknown NPC (ID: 2152955908/0x80538004))
     0x0CE9 [0x53] WAIT_SCHEDULER_TASK: Wait for scheduler 0x04800480 with entities [Unknown NPC (ID: 75518848/0x04805380), Unknown NPC (ID: 75498624/0x04800480)]
     0x0CF6 [0x80] LOAD_WAIT(entity=Unknown NPC (ID: 2152955987/0x80538053))
     0x0CFB [0x53] WAIT_SCHEDULER_TASK: Wait for scheduler 0x53800480 with entities [Unknown NPC (ID: 75498624/0x04800480), Unknown NPC (ID: 75498624/0x04800480)]
     0x0D08 [0x80] LOAD_WAIT(entity=Unknown NPC (ID: 2152955987/0x80538053))
     0x0D0D [0x04] DEPRECATED_NOP(unused=0x0480)
     0x0D10 [0x80] LOAD_WAIT(entity=Unknown NPC (ID: 2147778564/0x80048004))
     0x0D15 [0x04] DEPRECATED_NOP(unused=0x5380)
     0x0D18 [0x80] LOAD_WAIT(entity=Unknown NPC (ID: 2152955987/0x80538053))
     0x0D1D [0x04] DEPRECATED_NOP(unused=0x0480)
     0x0D20 [0x80] LOAD_WAIT(entity=Unknown NPC (ID: 2147778564/0x80048004))
     0x0D25 [0x04] DEPRECATED_NOP(unused=0x0480)
     0x0D28 [0x80] LOAD_WAIT(entity=Unknown NPC (ID: 2147778564/0x80048004))
     0x0D2D [0x04] DEPRECATED_NOP(unused=0x0480)
     0x0D30 [0x80] LOAD_WAIT(entity=Unknown NPC (ID: 2147778564/0x80048004))
     0x0D35 [0x04] DEPRECATED_NOP(unused=0x0480)
     0x0D38 [0x80] LOAD_WAIT(entity=Unknown NPC (ID: 2147778564/0x80048004))
     0x0D3D [0x53] WAIT_SCHEDULER_TASK: Wait for scheduler 0x53805380 with entities [Unknown NPC (ID: 1400918912/0x53805380), Unknown NPC (ID: 1400918912/0x53805380)]
     0x0D4A [0x80] LOAD_WAIT(entity=Unknown NPC (ID: 2147778564/0x80048004))
     0x0D4F [0x04] DEPRECATED_NOP(unused=0x0480)
     0x0D52 [0x80] LOAD_WAIT(entity=Unknown NPC (ID: 2147778564/0x80048004))
     0x0D57 [0x04] DEPRECATED_NOP(unused=0x0480)
     0x0D5A [0x80] LOAD_WAIT(entity=Unknown NPC (ID: 2152955908/0x80538004))
     0x0D5F [0x53] WAIT_SCHEDULER_TASK: Wait for scheduler 0x53805380 with entities [Unknown NPC (ID: 1400918912/0x53805380), Unknown NPC (ID: 1400918912/0x53805380)]
     0x0D6C [0x80] LOAD_WAIT(entity=Unknown NPC (ID: 2152955987/0x80538053))
     0x0D71 [0x53] WAIT_SCHEDULER_TASK: Wait for scheduler 0x53805380 with entities [Unknown NPC (ID: 1400918912/0x53805380), Unknown NPC (ID: 1400918912/0x53805380)]
     0x0D7E [0x80] LOAD_WAIT(entity=Unknown NPC (ID: 2152955987/0x80538053))
     0x0D83 [0x53] WAIT_SCHEDULER_TASK: Wait for scheduler 0x53805380 with entities [Unknown NPC (ID: 1400918912/0x53805380), Unknown NPC (ID: 1400918912/0x53805380)]
     0x0D90 [0x80] LOAD_WAIT(entity=Unknown NPC (ID: 2152955987/0x80538053))
     0x0D95 [0x04] DEPRECATED_NOP(unused=0x0480)
     0x0D98 [0x80] LOAD_WAIT(entity=Unknown NPC (ID: 2152955987/0x80538053))
     0x0D9D [0x53] WAIT_SCHEDULER_TASK: Wait for scheduler 0x53805380 with entities [Unknown NPC (ID: 1400918912/0x53805380), Unknown NPC (ID: 1400918912/0x53805380)]
     0x0DAA [0x80] LOAD_WAIT(entity=Unknown NPC (ID: 2152955987/0x80538053))
     0x0DAF [0x53] WAIT_SCHEDULER_TASK: Wait for scheduler 0x53805380 with entities [Unknown NPC (ID: 1400918912/0x53805380), Unknown NPC (ID: 1400918912/0x53805380)]
     0x0DBC [0x80] LOAD_WAIT(entity=Unknown NPC (ID: 2152955987/0x80538053))
     0x0DC1 [0x53] WAIT_SCHEDULER_TASK: Wait for scheduler 0x3E805380 with entities [Unknown NPC (ID: 1400918912/0x53805380), Unknown NPC (ID: 1400918912/0x53805380)]
     0x0DCE [0x80] LOAD_WAIT(entity=Unknown NPC (ID: 2161737734/0x80D98006))
     0x0DD3 [0x51] END_MAP_SCHEDULER: End scheduler 0x3E803E80 with entities [Unknown NPC (ID: 1367363968/0x51805180), Unknown NPC (ID: 1367363968/0x51805180)]
     0x0DE0 [0x80] LOAD_WAIT(entity=Unknown NPC (ID: 2147909638/0x80068006))
     0x0DE5 [0xD9] SET_SOUND_EFFECT_LIMIT_FLAG(flag_value=0x80)
     0x0DE7 [0x31] UPDATE_ENTITY_POSITION: Set EventEntity goal position to X=0.045*, Z=0.045*, Y=0.030*, Time=40* (mode 0x80)
     0x0DF1 [0xD9] SET_SOUND_EFFECT_LIMIT_FLAG(flag_value=0x80)
     0x0DF3 [0x51] END_MAP_SCHEDULER: End scheduler 0x06803E80 with entities [Unknown NPC (ID: 830493056/0x31805180), Unknown NPC (ID: 830484864/0x31803180)]
     0x0E00 [0x80] LOAD_WAIT(entity=Unknown NPC (ID: 2152825049/0x805180D9))
     0x0E05 [0x51] END_MAP_SCHEDULER: End scheduler 0x3E803E80 with entities [Unknown NPC (ID: 1048592000/0x3E803E80), Unknown NPC (ID: 1048592000/0x3E803E80)]
     0x0E12 [0x80] LOAD_WAIT(entity=Unknown NPC (ID: 2151579710/0x803E803E))
     0x0E17 [0x3E] IF !(0x3E80 bit 0x3E80) GOTO 0x1A80
     0x0E1E [0x80] LOAD_WAIT(entity=Unknown NPC (ID: 2151579674/0x803E801A))
     0x0E23 [0x3E] IF !(0x3E80 bit 0x3E80) GOTO 0x4680
     0x0E2A [0x80] LOAD_WAIT(entity=Unknown NPC (ID: 2151579718/0x803E8046))
     0x0E2F [0x3E] IF !(0x3E80 bit 0x3E80) GOTO 0x3E80
     0x0E36 [0x80] LOAD_WAIT(entity=Unknown NPC (ID: 2151579718/0x803E8046))
     0x0E3B [0x3E] IF !(0x3180 bit 0x3180) GOTO 0x3180
     0x0E42 [0x80] LOAD_WAIT(entity=Unknown NPC (ID: 2153283633/0x80588031))
     0x0E47 [0x58] YIELD_EVENT_VM()
     0x0E48 [0x80] LOAD_WAIT(entity=Unknown NPC (ID: 2151579736/0x803E8058))
     0x0E4D [0x3E] IF !(0x3E80 bit 0x3E80) GOTO 0x3E80
     0x0E54 [0x80] LOAD_WAIT(entity=Unknown NPC (ID: 2151579710/0x803E803E))
     0x0E59 [0x3E] IF !(0x3E80 bit 0x3E80) GOTO 0x3E80
     0x0E60 [0x80] LOAD_WAIT(entity=Unknown NPC (ID: 2151579710/0x803E803E))
     0x0E65 [0x3E] IF !(0x3E80 bit 0x3E80) GOTO 0x3E80
     0x0E6C [0x80] LOAD_WAIT(entity=Unknown NPC (ID: 2151579710/0x803E803E))
     0x0E71 [0x3E] IF !(0x3E80 bit 0x3E80) GOTO 0x3E80
     0x0E78 [0x80] LOAD_WAIT(entity=Unknown NPC (ID: 2151579710/0x803E803E))
     0x0E7D [0x3E] IF !(0x3E80 bit 0x3E80) GOTO 0x3E80
     0x0E84 [0x80] LOAD_WAIT(entity=Unknown NPC (ID: 2151579710/0x803E803E))
     0x0E89 [0x3E] IF !(0x3E80 bit 0x3E80) GOTO 0x3E80
     0x0E90 [0x80] LOAD_WAIT(entity=Unknown NPC (ID: 2151579710/0x803E803E))
     0x0E95 [0x3E] IF !(0x4680 bit 0x3E80) GOTO 0x3E80
     0x0E9C [0x80] LOAD_WAIT(entity=Unknown NPC (ID: 2151579710/0x803E803E))
     0x0EA1 [0x3E] IF !(0x3E80 bit 0x3E80) GOTO 0x3E80
     0x0EA8 [0x80] LOAD_WAIT(entity=Unknown NPC (ID: 2151579710/0x803E803E))
     0x0EAD [0x3E] IF !(0x3E80 bit 0x3E80) GOTO 0x3E80
     0x0EB4 [0x80] LOAD_WAIT(entity=Unknown NPC (ID: 2151579710/0x803E803E))
     0x0EB9 [0x3E] IF !(0x3E80 bit 0x3E80) GOTO 0x3E80
     0x0EC0 [0x80] LOAD_WAIT(entity=Unknown NPC (ID: 2151579710/0x803E803E))
     0x0EC5 [0x3E] IF !(0x3E80 bit 0x3E80) GOTO 0x3E80
     0x0ECC [0x80] LOAD_WAIT(entity=Unknown NPC (ID: 2147844101/0x80058005))
     0x0ED1 [0x05] 0x0580 = 1
     0x0ED4 [0x80] LOAD_WAIT(entity=Unknown NPC (ID: 2147844101/0x80058005))
     0x0ED9 [0x05] 0x0580 = 1
     0x0EDC [0x80] LOAD_WAIT(entity=Unknown NPC (ID: 2147844101/0x80058005))
     0x0EE1 [0x05] 0x0580 = 1
     0x0EE4 [0x80] LOAD_WAIT(entity=Unknown NPC (ID: 2147778565/0x80048005))
     0x0EE9 [0x04] DEPRECATED_NOP(unused=0x0480)
     0x0EEC [0x80] LOAD_WAIT(entity=Unknown NPC (ID: 2147844101/0x80058005))
     0x0EF1 [0x05] 0x0580 = 1
     0x0EF4 [0x80] LOAD_WAIT(entity=Unknown NPC (ID: 2147778565/0x80048005))
     0x0EF9 [0x04] DEPRECATED_NOP(unused=0x0480)
     0x0EFC [0x80] LOAD_WAIT(entity=Unknown NPC (ID: 2147844101/0x80058005))
     0x0F01 [0x05] 0x0580 = 1
     0x0F04 [0x80] LOAD_WAIT(entity=Unknown NPC (ID: 2147844101/0x80058005))
     0x0F09 [0x05] 0x0580 = 1
     0x0F0C [0x80] LOAD_WAIT(entity=Unknown NPC (ID: 2147844101/0x80058005))
     0x0F11 [0x05] 0x0580 = 1
     0x0F14 [0x80] LOAD_WAIT(entity=Unknown NPC (ID: 2147844101/0x80058005))
     0x0F19 [0x05] 0x0580 = 1
     0x0F1C [0x80] LOAD_WAIT(entity=Unknown NPC (ID: 2147844101/0x80058005))
     0x0F21 [0x05] 0x0580 = 1
     0x0F24 [0x80] LOAD_WAIT(entity=Unknown NPC (ID: 2147844101/0x80058005))
     0x0F29 [0x05] 0x0580 = 1
     0x0F2C [0x80] LOAD_WAIT(entity=Unknown NPC (ID: 2147844101/0x80058005))
     0x0F31 [0x05] 0x0580 = 1
     0x0F34 [0x80] LOAD_WAIT(entity=Unknown NPC (ID: 2147844101/0x80058005))
