# Event 803

## Metadata

| Field           | Value    |
|-----------------|----------|
| Event Index     | 3/4      |
| Offset          | 0x001B   |
| Data Size       | 25 bytes |
| Calculated Size | 25 bytes |
| Instructions    | 11       |

```
      00 01 02 03 04 05 06 07  08 09 0A 0B 0C 0D 0E 0F
      -- -- -- -- -- -- -- --  -- -- -- -- -- -- -- --
0010:                                   42 03 01 10 02             B....
0020: 10 1E F0 FF FF 7F 1D 03  80 23 1D 04 80 23 1D 05  .........#...#..
0030: 80 23 21 00                                       .#!.            
```

## Opcodes

```
  0: 0x001B [0x42] SET_CLI_EVENT_CANCEL_DATA()
  1: 0x001C [0x03] Work_Zone[1] = Work_Zone[2]
  2: 0x0021 [0x1E] EventEntity looks at LocalPlayer and starts talking
  3: 0x0026 [0x1D] PRINT_EVENT_MESSAGE(message_id=10310*)
    → "You've managed to gather complementary pieces of chocolate! Wait just a moment, now...\u007F1\u0000\u0007"
  4: 0x0029 [0x23] WAIT_FOR_DIALOG_INTERACTION
  5: 0x002A [0x1D] PRINT_EVENT_MESSAGE(message_id=10311*)
    → "...\u007F1\u0000\u0007"
  6: 0x002D [0x23] WAIT_FOR_DIALOG_INTERACTION
  7: 0x002E [0x1D] PRINT_EVENT_MESSAGE(message_id=10312*)
    → "Kupopopo\u0001`!\u0007What a beautiful piece of chocolate!\u0007No need to thank me, now. Hurry and give it to the Valentione Single!\u007F1\u0000\u0007"
  8: 0x0031 [0x23] WAIT_FOR_DIALOG_INTERACTION
  9: 0x0032 [0x21] END_EVENT
 10: 0x0033 [0x00] END_REQSTACK()
```
