# Event 69

## Metadata

| Field           | Value    |
|-----------------|----------|
| Event Index     | 13/15    |
| Offset          | 0x00E5   |
| Data Size       | 33 bytes |
| Calculated Size | 33 bytes |
| Instructions    | 12       |

```
      00 01 02 03 04 05 06 07  08 09 0A 0B 0C 0D 0E 0F
      -- -- -- -- -- -- -- --  -- -- -- -- -- -- -- --
00E0:                1E F0 FF  FF 7F 6F 70 29 08 3A A0       .....op).:.
00F0: 0F 01 01 1D 14 80 23 1D  15 80 23 29 08 3A A0 0F  ......#...#).:..
0100: 01 02 20 00 21 00                                 .. .!.          
```

## Opcodes

```
  0: 0x00E5 [0x1E] EventEntity looks at LocalPlayer and starts talking
  1: 0x00EA [0x6F] WAIT_FRAME_DELAY: Yield until WaitTime reaches zero
  2: 0x00EB [0x70] WAIT_ENTITY_RENDER_FLAG: Wait while EventEntity->Render.Flags3 bit 2 is set (cancel turn if not)
  3: 0x00EC [0x29] REQ_SET_WAIT(priority=0x08, entity_id=Hari Pakhroib (ID: 17801274/0x010FA03A), tag_num=0x01)
  4: 0x00F3 [0x1D] PRINT_EVENT_MESSAGE(message_id=10053*)
    → "Travel east to the towerrring volcano. Walk up to the crater and place \u0001\u0001\u0001 \u0001\u0005$\u0002\u0001\u0000\u0000 on the altar therrre. Oh, and don't forget to shout your name.\u007F1\u0000\u0007"
  5: 0x00F6 [0x23] WAIT_FOR_DIALOG_INTERACTION
  6: 0x00F7 [0x1D] PRINT_EVENT_MESSAGE(message_id=10054*)
    → "And shout it like you mean it. If your voice is heard by our guarrrdian, then your stay on our island should be a safe one.\u007F1\u0000\u0007"
  7: 0x00FA [0x23] WAIT_FOR_DIALOG_INTERACTION
  8: 0x00FB [0x29] REQ_SET_WAIT(priority=0x08, entity_id=Hari Pakhroib (ID: 17801274/0x010FA03A), tag_num=0x02)
  9: 0x0102 [0x20] SET_CLI_EVENT_UC_FLAG: Unlock player control
 10: 0x0104 [0x21] END_EVENT
 11: 0x0105 [0x00] END_REQSTACK()
```
