# Event 125

## Metadata

| Field           | Value    |
|-----------------|----------|
| Event Index     | 8/15     |
| Offset          | 0x0063   |
| Data Size       | 27 bytes |
| Calculated Size | 27 bytes |
| Instructions    | 10       |

```
      00 01 02 03 04 05 06 07  08 09 0A 0B 0C 0D 0E 0F
      -- -- -- -- -- -- -- --  -- -- -- -- -- -- -- --
0060:          2B 44 70 0F 01  02 80 23 1E F0 FF FF 7F     +Dp....#.....
0070: 6F 70 2B 44 70 0F 01 03  80 23 20 00 21 00        op+Dp....# .!.  
```

## Opcodes

```
  0: 0x0063 [0x2B] Rudolfo (ID: 17788996/0x010F7044) [10465*]:
    → "This box needs to go in with that San d'Orian shipment.\u0007And this one... Dammit, where's my list?\u007F1\u0000\u0007"
  1: 0x006A [0x23] WAIT_FOR_DIALOG_INTERACTION
  2: 0x006B [0x1E] EventEntity looks at LocalPlayer and starts talking
  3: 0x0070 [0x6F] WAIT_FRAME_DELAY: Yield until WaitTime reaches zero
  4: 0x0071 [0x70] WAIT_ENTITY_RENDER_FLAG: Wait while EventEntity->Render.Flags3 bit 2 is set (cancel turn if not)
  5: 0x0072 [0x2B] Rudolfo (ID: 17788996/0x010F7044) [10466*]:
    → "Oh, and a fine day to you, adventurer.\u0007Rudolfo of the Rabao \u00072If it don't get there overnight, wait\u00073 Freight Company, at your service.\u007F1\u0000\u0007"
  6: 0x0079 [0x23] WAIT_FOR_DIALOG_INTERACTION
  7: 0x007A [0x20] SET_CLI_EVENT_UC_FLAG: Unlock player control
  8: 0x007C [0x21] END_EVENT
  9: 0x007D [0x00] END_REQSTACK()
```
