# 17912002

## Common Data

| Field            | Value                      |
|------------------|----------------------------|
| Zone             | Ra'Kaznar Turris (ID: 277) |
| Block Size       | 1244 bytes                 |
| Total Events     | 30                         |
| References Count | 58                         |

## List of Events

| Event ID                   | Entrypoint   |   Size |   Instructions |
|----------------------------|--------------|--------|----------------|
| [65535](#event-65535)      | 0x0000       |      1 |              1 |
| [1](#event-1)              | 0x0001       |      1 |              1 |
| [2](#event-2)              | 0x0002       |      1 |              1 |
| [3](#event-3)              | 0x0003       |      1 |              1 |
| [4](#event-4)              | 0x0004       |      1 |              1 |
| [100](#event-100)          | 0x0005       |      1 |              1 |
| [65535.1](#event-655351)   | 0x0006       |     10 |              2 |
| [65535.2](#event-655352)   | 0x0010       |    106 |             10 |
| [65535.3](#event-655353)   | 0x007A       |     33 |              3 |
| [65535.4](#event-655354)   | 0x009B       |     33 |              3 |
| [65535.5](#event-655355)   | 0x00BC       |      7 |              2 |
| [65535.6](#event-655356)   | 0x00C3       |      7 |              2 |
| [65535.7](#event-655357)   | 0x00CA       |     21 |              3 |
| [65535.8](#event-655358)   | 0x00DF       |      5 |              3 |
| [65535.9](#event-655359)   | 0x00E4       |      5 |              3 |
| [65535.10](#event-6553510) | 0x00E9       |      5 |              3 |
| [65535.11](#event-6553511) | 0x00EE       |      5 |              3 |
| [65535.12](#event-6553512) | 0x00F3       |     86 |              9 |
| [65535.13](#event-6553513) | 0x0149       |     23 |              5 |
| [65535.14](#event-6553514) | 0x0160       |      8 |              2 |
| [65535.15](#event-6553515) | 0x0168       |     10 |              2 |
| [65535.16](#event-6553516) | 0x0172       |     10 |              2 |
| [65535.17](#event-6553517) | 0x017C       |     10 |              2 |
| [65535.18](#event-6553518) | 0x0186       |     10 |              2 |
| [65535.19](#event-6553519) | 0x0190       |     10 |              2 |
| [65535.20](#event-6553520) | 0x019A       |     10 |              2 |
| [65535.21](#event-6553521) | 0x01A4       |     39 |              5 |
| [65535.22](#event-6553522) | 0x01CB       |     41 |              5 |
| [65535.23](#event-6553523) | 0x01F4       |    138 |             14 |
| [65535.24](#event-6553524) | 0x027E       |    235 |             23 |

## DAT References (imed_data)

|   Index | Hex Value   |   Dec Value |
|---------|-------------|-------------|
|       0 | 0x007F      |         127 |
|       1 | 0x0001      |           1 |
|       2 | 0x003C      |          60 |
|       3 | 0x02E2      |         738 |
|       4 | 0x0000      |           0 |
|       5 | 0x0DD9      |        3545 |
|       6 | 0x0E12      |        3602 |
|       7 | 0x0002      |           2 |
|       8 | 0x01CC      |         460 |
|       9 | 0x0029      |          41 |
|      10 | 0x208C      |        8332 |
|      11 | 0x208D      |        8333 |
|      12 | 0x208E      |        8334 |
|      13 | 0x208F      |        8335 |
|      14 | 0xFFF799BB  |  4294416827 |
|      15 | 0xFFF8A270  |  4294484592 |
|      16 | 0xFFFFEA84  |  4294961796 |
|      17 | 0x0800      |        2048 |
|      18 | 0xFFF793AC  |  4294415276 |
|      19 | 0xFFF8A748  |  4294485832 |
|      20 | 0xFFFFEACC  |  4294961868 |
|      21 | 0xFFF795BE  |  4294415806 |
|      22 | 0xFFF8ADA7  |  4294487463 |
|      23 | 0x0E64      |        3684 |
|      24 | 0x0078      |         120 |
|      25 | 0x0006      |           6 |
|      26 | 0x03E7      |         999 |
|      27 | 0xFFF7B994  |  4294424980 |
|      28 | 0xFFF8B0FB  |  4294488315 |
|      29 | 0x0779      |        1913 |
|      30 | 0xFFF7BB55  |  4294425429 |
|      31 | 0xFFF8B53C  |  4294489404 |
|      32 | 0x0056      |          86 |
|      33 | 0x0046      |          70 |
|      34 | 0x0190      |         400 |
|      35 | 0x0044      |          68 |
|      36 | 0xFFF6F969  |  4294375785 |
|      37 | 0xFFF8B463  |  4294489187 |
|      38 | 0xFFFFE889  |  4294961289 |
|      39 | 0x1000      |        4096 |
|      40 | 0xFFF6BEFB  |  4294360827 |
|      41 | 0xFFF8AFD9  |  4294488025 |
|      42 | 0xFFFFE05C  |  4294959196 |
|      43 | 0x0D6B      |        3435 |
|      44 | 0x0E80      |        3712 |
|      45 | 0xFFF639C7  |  4294326727 |
|      46 | 0xFFF8BF46  |  4294491974 |
|      47 | 0xFFFFCD0C  |  4294954252 |
|      48 | 0x0C00      |        3072 |
|      49 | 0x0E93      |        3731 |
|      50 | 0xFFF7B89A  |  4294424730 |
|      51 | 0xFFF8AD00  |  4294487296 |
|      52 | 0xFFFFE883  |  4294961283 |
|      53 | 0xFFFFE81A  |  4294961178 |
|      54 | 0x0400      |        1024 |
|      55 | 0xFFF6B5BB  |  4294358459 |
|      56 | 0xFFFFE0A8  |  4294959272 |
|      57 | 0xFFFFE149  |  4294959433 |

## String References

- **8332**: <Motheeer... Bring your power to this land once more!>
- **8333**: <Cleanse it of all iiimpurity!>
- **8334**: <And let Orthaaarsyne shine bright...>
- **8335**: <Like the breath of the holy dragooon himself!>

## Events

### Event 65535

#### Metadata

| Field        | Value   |
|--------------|---------|
| Entrypoint   | 0x0000  |
| Data Size    | 1 bytes |
| Instructions | 1       |

```
      00 01 02 03 04 05 06 07  08 09 0A 0B 0C 0D 0E 0F
      -- -- -- -- -- -- -- --  -- -- -- -- -- -- -- --
0000: 00                                                .               
```

#### Opcodes

```
  0: 0x0000 [0x00] END_REQSTACK()
```

### Event 1

#### Metadata

| Field        | Value   |
|--------------|---------|
| Entrypoint   | 0x0001  |
| Data Size    | 1 bytes |
| Instructions | 1       |

```
      00 01 02 03 04 05 06 07  08 09 0A 0B 0C 0D 0E 0F
      -- -- -- -- -- -- -- --  -- -- -- -- -- -- -- --
0000:    00                                              .              
```

#### Opcodes

```
  0: 0x0001 [0x00] END_REQSTACK()
```

### Event 2

#### Metadata

| Field        | Value   |
|--------------|---------|
| Entrypoint   | 0x0002  |
| Data Size    | 1 bytes |
| Instructions | 1       |

```
      00 01 02 03 04 05 06 07  08 09 0A 0B 0C 0D 0E 0F
      -- -- -- -- -- -- -- --  -- -- -- -- -- -- -- --
0000:       00                                            .             
```

#### Opcodes

```
  0: 0x0002 [0x00] END_REQSTACK()
```

### Event 3

#### Metadata

| Field        | Value   |
|--------------|---------|
| Entrypoint   | 0x0003  |
| Data Size    | 1 bytes |
| Instructions | 1       |

```
      00 01 02 03 04 05 06 07  08 09 0A 0B 0C 0D 0E 0F
      -- -- -- -- -- -- -- --  -- -- -- -- -- -- -- --
0000:          00                                          .            
```

#### Opcodes

```
  0: 0x0003 [0x00] END_REQSTACK()
```

### Event 4

#### Metadata

| Field        | Value   |
|--------------|---------|
| Entrypoint   | 0x0004  |
| Data Size    | 1 bytes |
| Instructions | 1       |

```
      00 01 02 03 04 05 06 07  08 09 0A 0B 0C 0D 0E 0F
      -- -- -- -- -- -- -- --  -- -- -- -- -- -- -- --
0000:             00                                        .           
```

#### Opcodes

```
  0: 0x0004 [0x00] END_REQSTACK()
```

### Event 100

#### Metadata

| Field        | Value   |
|--------------|---------|
| Entrypoint   | 0x0005  |
| Data Size    | 1 bytes |
| Instructions | 1       |

```
      00 01 02 03 04 05 06 07  08 09 0A 0B 0C 0D 0E 0F
      -- -- -- -- -- -- -- --  -- -- -- -- -- -- -- --
0000:                00                                      .          
```

#### Opcodes

```
  0: 0x0005 [0x00] END_REQSTACK()
```

### Event 65535.1

#### Metadata

| Field        | Value    |
|--------------|----------|
| Entrypoint   | 0x0006   |
| Data Size    | 10 bytes |
| Instructions | 2        |

```
      00 01 02 03 04 05 06 07  08 09 0A 0B 0C 0D 0E 0F
      -- -- -- -- -- -- -- --  -- -- -- -- -- -- -- --
0000:                   6C C9  50 11 01 00 80 01 80 00        l.P.......
```

#### Opcodes

```
  0: 0x0006 [0x6C] FADE_ENTITY_COLOR(entity_id=Unnamed NPC (ID: 17912009/0x011150C9), end_alpha=127*, fade_time=1*)
  1: 0x000F [0x00] END_REQSTACK()
```

### Event 65535.2

#### Metadata

| Field        | Value     |
|--------------|-----------|
| Entrypoint   | 0x0010    |
| Data Size    | 106 bytes |
| Instructions | 10        |

```
      00 01 02 03 04 05 06 07  08 09 0A 0B 0C 0D 0E 0F
      -- -- -- -- -- -- -- --  -- -- -- -- -- -- -- --
0010: 1C 02 80 52 03 80 F8 FF  FF 7F F8 FF FF 7F 65 78  ...R..........ex
0020: 30 31 45 03 80 F8 FF FF  7F F8 FF FF 7F 65 78 61  01E..........exa
0030: 32 04 80 1C 02 80 52 03  80 F8 FF FF 7F F8 FF FF  2.....R.........
0040: 7F 65 78 61 32 45 03 80  F8 FF FF 7F F8 FF FF 7F  .exa2E..........
0050: 65 78 30 34 04 80 1C 02  80 52 03 80 F8 FF FF 7F  ex04.....R......
0060: F8 FF FF 7F 65 78 30 34  45 03 80 F8 FF FF 7F F8  ....ex04E.......
0070: FF FF 7F 65 78 61 33 04  80 00                    ...exa3...      
```

#### Opcodes

```
  0: 0x0010 [0x1C] WAIT(60* ticks)
  1: 0x0013 [0x52] END_LOAD_SCHEDULER: End scheduler "ex01" with entities [EventEntity, EventEntity], work=738*
  2: 0x0022 [0x45] LOAD_SCHEDULED_TASK: Load scheduler "exa2" with entities [EventEntity, EventEntity], work=[738*, 0*]
  3: 0x0033 [0x1C] WAIT(60* ticks)
  4: 0x0036 [0x52] END_LOAD_SCHEDULER: End scheduler "exa2" with entities [EventEntity, EventEntity], work=738*
  5: 0x0045 [0x45] LOAD_SCHEDULED_TASK: Load scheduler "ex04" with entities [EventEntity, EventEntity], work=[738*, 0*]
  6: 0x0056 [0x1C] WAIT(60* ticks)
  7: 0x0059 [0x52] END_LOAD_SCHEDULER: End scheduler "ex04" with entities [EventEntity, EventEntity], work=738*
  8: 0x0068 [0x45] LOAD_SCHEDULED_TASK: Load scheduler "exa3" with entities [EventEntity, EventEntity], work=[738*, 0*]
  9: 0x0079 [0x00] END_REQSTACK()
```

### Event 65535.3

#### Metadata

| Field        | Value    |
|--------------|----------|
| Entrypoint   | 0x007A   |
| Data Size    | 33 bytes |
| Instructions | 3        |

```
      00 01 02 03 04 05 06 07  08 09 0A 0B 0C 0D 0E 0F
      -- -- -- -- -- -- -- --  -- -- -- -- -- -- -- --
0070:                                5F 03 05 80 C7 50            _....P
0080: 11 01 C7 50 11 01 78 78  78 78 5F 03 06 80 CA 50  ...P..xxxx_....P
0090: 11 01 CA 50 11 01 78 78  78 78 00                 ...P..xxxx.     
```

#### Opcodes

```
  0: 0x007A [0x5F] MULTI_HANDLER_COMPLEX(mode=0x03 - Load ext scheduler (OpCode 0x5B mode 0), ref=3545*, entity1=Arciela (ID: 17912007/0x011150C7), entity2=Arciela (ID: 17912007/0x011150C7), string="xxxx")
  1: 0x008A [0x5F] MULTI_HANDLER_COMPLEX(mode=0x03 - Load ext scheduler (OpCode 0x5B mode 0), ref=3602*, entity1=Unnamed NPC (ID: 17912010/0x011150CA), entity2=Unnamed NPC (ID: 17912010/0x011150CA), string="xxxx")
  2: 0x009A [0x00] END_REQSTACK()
```

### Event 65535.4

#### Metadata

| Field        | Value    |
|--------------|----------|
| Entrypoint   | 0x009B   |
| Data Size    | 33 bytes |
| Instructions | 3        |

```
      00 01 02 03 04 05 06 07  08 09 0A 0B 0C 0D 0E 0F
      -- -- -- -- -- -- -- --  -- -- -- -- -- -- -- --
0090:                                   5F 03 05 80 C7             _....
00A0: 50 11 01 C7 50 11 01 78  78 78 78 5F 03 06 80 CA  P...P..xxxx_....
00B0: 50 11 01 CA 50 11 01 78  78 78 78 00              P...P..xxxx.    
```

#### Opcodes

```
  0: 0x009B [0x5F] MULTI_HANDLER_COMPLEX(mode=0x03 - Load ext scheduler (OpCode 0x5B mode 0), ref=3545*, entity1=Arciela (ID: 17912007/0x011150C7), entity2=Arciela (ID: 17912007/0x011150C7), string="xxxx")
  1: 0x00AB [0x5F] MULTI_HANDLER_COMPLEX(mode=0x03 - Load ext scheduler (OpCode 0x5B mode 0), ref=3602*, entity1=Unnamed NPC (ID: 17912010/0x011150CA), entity2=Unnamed NPC (ID: 17912010/0x011150CA), string="xxxx")
  2: 0x00BB [0x00] END_REQSTACK()
```

### Event 65535.5

#### Metadata

| Field        | Value   |
|--------------|---------|
| Entrypoint   | 0x00BC  |
| Data Size    | 7 bytes |
| Instructions | 2       |

```
      00 01 02 03 04 05 06 07  08 09 0A 0B 0C 0D 0E 0F
      -- -- -- -- -- -- -- --  -- -- -- -- -- -- -- --
00B0:                                      AE 00 07 80              ....
00C0: 02 80 00                                          ...             
```

#### Opcodes

```
  0: 0x00BC [0xAE] MULTI_PURPOSE_ENTITY_HANDLER(case_type=0x00 - Weather, param1=2*, param2=60*)
  1: 0x00C2 [0x00] END_REQSTACK()
```

### Event 65535.6

#### Metadata

| Field        | Value   |
|--------------|---------|
| Entrypoint   | 0x00C3  |
| Data Size    | 7 bytes |
| Instructions | 2       |

```
      00 01 02 03 04 05 06 07  08 09 0A 0B 0C 0D 0E 0F
      -- -- -- -- -- -- -- --  -- -- -- -- -- -- -- --
00C0:          AE 00 04 80 02  80 00                       .......      
```

#### Opcodes

```
  0: 0x00C3 [0xAE] MULTI_PURPOSE_ENTITY_HANDLER(case_type=0x00 - Weather, param1=0*, param2=60*)
  1: 0x00C9 [0x00] END_REQSTACK()
```

### Event 65535.7

#### Metadata

| Field        | Value    |
|--------------|----------|
| Entrypoint   | 0x00CA   |
| Data Size    | 21 bytes |
| Instructions | 3        |

```
      00 01 02 03 04 05 06 07  08 09 0A 0B 0C 0D 0E 0F
      -- -- -- -- -- -- -- --  -- -- -- -- -- -- -- --
00C0:                                1C 08 80 D0 09 80            ......
00D0: F8 FF FF 7F F8 FF FF 7F  73 30 30 30 04 80 00     ........s000... 
```

#### Opcodes

```
  0: 0x00CA [0x1C] WAIT(460* ticks)
  1: 0x00CD [0xD0] LOAD_SCHEDULED_TASK_ALT5: Load scheduler "s000" with entities [EventEntity, EventEntity], work=[41*, 0*]
  2: 0x00DE [0x00] END_REQSTACK()
```

### Event 65535.8

#### Metadata

| Field        | Value   |
|--------------|---------|
| Entrypoint   | 0x00DF  |
| Data Size    | 5 bytes |
| Instructions | 3       |

```
      00 01 02 03 04 05 06 07  08 09 0A 0B 0C 0D 0E 0F
      -- -- -- -- -- -- -- --  -- -- -- -- -- -- -- --
00D0:                                               48                 H
00E0: 0A 80 23 00                                       ..#.            
```

#### Opcodes

```
  0: 0x00DF [0x48] [System] [8332*]:
    → "<Motheeer... Bring your power to this land once more!>"
  1: 0x00E2 [0x23] WAIT_FOR_DIALOG_INTERACTION
  2: 0x00E3 [0x00] END_REQSTACK()
```

### Event 65535.9

#### Metadata

| Field        | Value   |
|--------------|---------|
| Entrypoint   | 0x00E4  |
| Data Size    | 5 bytes |
| Instructions | 3       |

```
      00 01 02 03 04 05 06 07  08 09 0A 0B 0C 0D 0E 0F
      -- -- -- -- -- -- -- --  -- -- -- -- -- -- -- --
00E0:             48 0B 80 23  00                           H..#.       
```

#### Opcodes

```
  0: 0x00E4 [0x48] [System] [8333*]:
    → "<Cleanse it of all iiimpurity!>"
  1: 0x00E7 [0x23] WAIT_FOR_DIALOG_INTERACTION
  2: 0x00E8 [0x00] END_REQSTACK()
```

### Event 65535.10

#### Metadata

| Field        | Value   |
|--------------|---------|
| Entrypoint   | 0x00E9  |
| Data Size    | 5 bytes |
| Instructions | 3       |

```
      00 01 02 03 04 05 06 07  08 09 0A 0B 0C 0D 0E 0F
      -- -- -- -- -- -- -- --  -- -- -- -- -- -- -- --
00E0:                             48 0C 80 23 00                 H..#.  
```

#### Opcodes

```
  0: 0x00E9 [0x48] [System] [8334*]:
    → "<And let Orthaaarsyne shine bright...>"
  1: 0x00EC [0x23] WAIT_FOR_DIALOG_INTERACTION
  2: 0x00ED [0x00] END_REQSTACK()
```

### Event 65535.11

#### Metadata

| Field        | Value   |
|--------------|---------|
| Entrypoint   | 0x00EE  |
| Data Size    | 5 bytes |
| Instructions | 3       |

```
      00 01 02 03 04 05 06 07  08 09 0A 0B 0C 0D 0E 0F
      -- -- -- -- -- -- -- --  -- -- -- -- -- -- -- --
00E0:                                            48 0D                H.
00F0: 80 23 00                                          .#.             
```

#### Opcodes

```
  0: 0x00EE [0x48] [System] [8335*]:
    → "<Like the breath of the holy dragooon himself!>"
  1: 0x00F1 [0x23] WAIT_FOR_DIALOG_INTERACTION
  2: 0x00F2 [0x00] END_REQSTACK()
```

### Event 65535.12

#### Metadata

| Field        | Value    |
|--------------|----------|
| Entrypoint   | 0x00F3   |
| Data Size    | 86 bytes |
| Instructions | 9        |

```
      00 01 02 03 04 05 06 07  08 09 0A 0B 0C 0D 0E 0F
      -- -- -- -- -- -- -- --  -- -- -- -- -- -- -- --
00F0:          D3 00 C6 50 11  01 4E 00 F0 FF FF 7F BA     ...P..N......
0100: F0 FF FF 7F 0E 80 0F 80  10 80 11 80 BA C6 50 11  ..............P.
0110: 01 12 80 13 80 14 80 11  80 BA CC 50 11 01 15 80  ...........P....
0120: 16 80 14 80 11 80 5F 03  17 80 C6 50 11 01 C6 50  ......_....P...P
0130: 11 01 6B 61 6D 30 6B 69  64 6C 30 CC 50 11 01 6B  ..kam0kidl0.P..k
0140: 69 64 6C 30 F0 FF FF 7F  00                       idl0.....       
```

#### Opcodes

```
  0: 0x00F3 [0xD3] CLEAR_ENTITY_MOTION_QUEUE(condition_flag=0x00, entity_server_id=0x011150C6)
  1: 0x00F9 [0x4E] SET_ENTITY_HIDE_FLAG: Show LocalPlayer
  2: 0x00FF [0xBA] SET_ENTITY_POSITION(entity_id=LocalPlayer, pos_x=-550.469*, pos_z=-482.704*, pos_y=-5.500*, direction=180.0°*)
  3: 0x010C [0xBA] SET_ENTITY_POSITION(entity_id=Arciela (ID: 17912006/0x011150C6), pos_x=-552.020*, pos_z=-481.464*, pos_y=-5.428*, direction=180.0°*)
  4: 0x0119 [0xBA] SET_ENTITY_POSITION(entity_id=Unnamed NPC (ID: 17912012/0x011150CC), pos_x=-551.490*, pos_z=-479.833*, pos_y=-5.428*, direction=180.0°*)
  5: 0x0126 [0x5F] MULTI_HANDLER_COMPLEX(mode=0x03 - Load ext scheduler (OpCode 0x5B mode 0), ref=3684*, entity1=Arciela (ID: 17912006/0x011150C6), entity2=Arciela (ID: 17912006/0x011150C6), string="kam0")
  6: 0x0136 [0x6B] STOP_AND_IDLE: Unnamed NPC (ID: 17912012/0x011150CC) stops current action and resets to idle (animation="idl0")
  7: 0x013F [0x6B] STOP_AND_IDLE: LocalPlayer stops current action and resets to idle (animation="idl0")
  8: 0x0148 [0x00] END_REQSTACK()
```

### Event 65535.13

#### Metadata

| Field        | Value    |
|--------------|----------|
| Entrypoint   | 0x0149   |
| Data Size    | 23 bytes |
| Instructions | 5        |

```
      00 01 02 03 04 05 06 07  08 09 0A 0B 0C 0D 0E 0F
      -- -- -- -- -- -- -- --  -- -- -- -- -- -- -- --
0140:                             1C 18 80 5C A0 04 80           ...\...
0150: 01 80 5C A1 04 80 01 80  6A 04 80 01 80 19 80 00  ..\.....j.......
```

#### Opcodes

```
  0: 0x0149 [0x1C] WAIT(120* ticks)
  1: 0x014C [0x5C] MUSIC_CONTROL: Set music volume to song 0*, fade_time=1*
  2: 0x0152 [0x5C] MUSIC_CONTROL: Adjust music volume to song 0*, fade_time=1*
  3: 0x0158 [0x6A] CHANGE_SOUND_VOLUME: Set (System/Zone)* volume to 0*, fade_time=1*
  4: 0x015F [0x00] END_REQSTACK()
```

### Event 65535.14

#### Metadata

| Field        | Value   |
|--------------|---------|
| Entrypoint   | 0x0160  |
| Data Size    | 8 bytes |
| Instructions | 2       |

```
      00 01 02 03 04 05 06 07  08 09 0A 0B 0C 0D 0E 0F
      -- -- -- -- -- -- -- --  -- -- -- -- -- -- -- --
0160: 6A 1A 80 02 80 19 80 00                           j.......        
```

#### Opcodes

```
  0: 0x0160 [0x6A] CHANGE_SOUND_VOLUME: Set (System/Zone)* volume to 999*, fade_time=60*
  1: 0x0167 [0x00] END_REQSTACK()
```

### Event 65535.15

#### Metadata

| Field        | Value    |
|--------------|----------|
| Entrypoint   | 0x0168   |
| Data Size    | 10 bytes |
| Instructions | 2        |

```
      00 01 02 03 04 05 06 07  08 09 0A 0B 0C 0D 0E 0F
      -- -- -- -- -- -- -- --  -- -- -- -- -- -- -- --
0160:                          6C C6 50 11 01 00 80 01          l.P.....
0170: 80 00                                             ..              
```

#### Opcodes

```
  0: 0x0168 [0x6C] FADE_ENTITY_COLOR(entity_id=Arciela (ID: 17912006/0x011150C6), end_alpha=127*, fade_time=1*)
  1: 0x0171 [0x00] END_REQSTACK()
```

### Event 65535.16

#### Metadata

| Field        | Value    |
|--------------|----------|
| Entrypoint   | 0x0172   |
| Data Size    | 10 bytes |
| Instructions | 2        |

```
      00 01 02 03 04 05 06 07  08 09 0A 0B 0C 0D 0E 0F
      -- -- -- -- -- -- -- --  -- -- -- -- -- -- -- --
0170:       6C C6 50 11 01 04  80 01 80 00                l.P.......    
```

#### Opcodes

```
  0: 0x0172 [0x6C] FADE_ENTITY_COLOR(entity_id=Arciela (ID: 17912006/0x011150C6), end_alpha=0*, fade_time=1*)
  1: 0x017B [0x00] END_REQSTACK()
```

### Event 65535.17

#### Metadata

| Field        | Value    |
|--------------|----------|
| Entrypoint   | 0x017C   |
| Data Size    | 10 bytes |
| Instructions | 2        |

```
      00 01 02 03 04 05 06 07  08 09 0A 0B 0C 0D 0E 0F
      -- -- -- -- -- -- -- --  -- -- -- -- -- -- -- --
0170:                                      6C CA 50 11              l.P.
0180: 01 00 80 01 80 00                                 ......          
```

#### Opcodes

```
  0: 0x017C [0x6C] FADE_ENTITY_COLOR(entity_id=Unnamed NPC (ID: 17912010/0x011150CA), end_alpha=127*, fade_time=1*)
  1: 0x0185 [0x00] END_REQSTACK()
```

### Event 65535.18

#### Metadata

| Field        | Value    |
|--------------|----------|
| Entrypoint   | 0x0186   |
| Data Size    | 10 bytes |
| Instructions | 2        |

```
      00 01 02 03 04 05 06 07  08 09 0A 0B 0C 0D 0E 0F
      -- -- -- -- -- -- -- --  -- -- -- -- -- -- -- --
0180:                   6C CA  50 11 01 04 80 01 80 00        l.P.......
```

#### Opcodes

```
  0: 0x0186 [0x6C] FADE_ENTITY_COLOR(entity_id=Unnamed NPC (ID: 17912010/0x011150CA), end_alpha=0*, fade_time=1*)
  1: 0x018F [0x00] END_REQSTACK()
```

### Event 65535.19

#### Metadata

| Field        | Value    |
|--------------|----------|
| Entrypoint   | 0x0190   |
| Data Size    | 10 bytes |
| Instructions | 2        |

```
      00 01 02 03 04 05 06 07  08 09 0A 0B 0C 0D 0E 0F
      -- -- -- -- -- -- -- --  -- -- -- -- -- -- -- --
0190: 6C CC 50 11 01 00 80 01  80 00                    l.P.......      
```

#### Opcodes

```
  0: 0x0190 [0x6C] FADE_ENTITY_COLOR(entity_id=Unnamed NPC (ID: 17912012/0x011150CC), end_alpha=127*, fade_time=1*)
  1: 0x0199 [0x00] END_REQSTACK()
```

### Event 65535.20

#### Metadata

| Field        | Value    |
|--------------|----------|
| Entrypoint   | 0x019A   |
| Data Size    | 10 bytes |
| Instructions | 2        |

```
      00 01 02 03 04 05 06 07  08 09 0A 0B 0C 0D 0E 0F
      -- -- -- -- -- -- -- --  -- -- -- -- -- -- -- --
0190:                                6C CC 50 11 01 04            l.P...
01A0: 80 01 80 00                                       ....            
```

#### Opcodes

```
  0: 0x019A [0x6C] FADE_ENTITY_COLOR(entity_id=Unnamed NPC (ID: 17912012/0x011150CC), end_alpha=0*, fade_time=1*)
  1: 0x01A3 [0x00] END_REQSTACK()
```

### Event 65535.21

#### Metadata

| Field        | Value    |
|--------------|----------|
| Entrypoint   | 0x01A4   |
| Data Size    | 39 bytes |
| Instructions | 5        |

```
      00 01 02 03 04 05 06 07  08 09 0A 0B 0C 0D 0E 0F
      -- -- -- -- -- -- -- --  -- -- -- -- -- -- -- --
01A0:             7B F0 FF FF  7F BA C6 50 11 01 1B 80      {......P....
01B0: 1C 80 10 80 1D 80 BA F0  FF FF 7F 1E 80 1F 80 10  ................
01C0: 80 1D 80 27 10 F0 FF FF  7F 28 00                 ...'.....(.     
```

#### Opcodes

```
  0: 0x01A4 [0x7B] LocalPlayer stops talking
  1: 0x01A9 [0xBA] SET_ENTITY_POSITION(entity_id=Arciela (ID: 17912006/0x011150C6), pos_x=-542.316*, pos_z=-478.981*, pos_y=-5.500*, direction=168.1°*)
  2: 0x01B6 [0xBA] SET_ENTITY_POSITION(entity_id=LocalPlayer, pos_x=-541.867*, pos_z=-477.892*, pos_y=-5.500*, direction=168.1°*)
  3: 0x01C3 [0x27] REQ_SET(priority=0x10, entity_id=LocalPlayer, tag_num=0x28)
  4: 0x01CA [0x00] END_REQSTACK()
```

### Event 65535.22

#### Metadata

| Field        | Value    |
|--------------|----------|
| Entrypoint   | 0x01CB   |
| Data Size    | 41 bytes |
| Instructions | 5        |

```
      00 01 02 03 04 05 06 07  08 09 0A 0B 0C 0D 0E 0F
      -- -- -- -- -- -- -- --  -- -- -- -- -- -- -- --
01C0:                                   D0 20 80 CF 50             . ..P
01D0: 11 01 CF 50 11 01 79 30  30 30 04 80 1C 21 80 D0  ...P..y000...!..
01E0: 20 80 CF 50 11 01 CF 50  11 01 68 69 74 30 04 80   ..P...P..hit0..
01F0: 1C 22 80 00                                       ."..            
```

#### Opcodes

```
  0: 0x01CB [0xD0] LOAD_SCHEDULED_TASK_ALT5: Load scheduler "y000" with entities [Unnamed NPC (ID: 17912015/0x011150CF), Unnamed NPC (ID: 17912015/0x011150CF)], work=[86*, 0*]
  1: 0x01DC [0x1C] WAIT(70* ticks)
  2: 0x01DF [0xD0] LOAD_SCHEDULED_TASK_ALT5: Load scheduler "hit0" with entities [Unnamed NPC (ID: 17912015/0x011150CF), Unnamed NPC (ID: 17912015/0x011150CF)], work=[86*, 0*]
  3: 0x01F0 [0x1C] WAIT(400* ticks)
  4: 0x01F3 [0x00] END_REQSTACK()
```

### Event 65535.23

#### Metadata

| Field        | Value     |
|--------------|-----------|
| Entrypoint   | 0x01F4    |
| Data Size    | 138 bytes |
| Instructions | 14        |

```
      00 01 02 03 04 05 06 07  08 09 0A 0B 0C 0D 0E 0F
      -- -- -- -- -- -- -- --  -- -- -- -- -- -- -- --
01F0:             D0 20 80 CF  50 11 01 CF 50 11 01 79      . ..P...P..y
0200: 30 30 30 04 80 1C 23 80  D0 20 80 CF 50 11 01 CF  000...#.. ..P...
0210: 50 11 01 79 6B 6C 30 04  80 1C 07 80 D0 20 80 CF  P..ykl0...... ..
0220: 50 11 01 CF 50 11 01 79  30 30 30 04 80 1C 23 80  P...P..y000...#.
0230: D0 20 80 CF 50 11 01 CF  50 11 01 79 6B 6C 30 04  . ..P...P..ykl0.
0240: 80 1C 07 80 D0 20 80 CF  50 11 01 CF 50 11 01 79  ..... ..P...P..y
0250: 30 30 30 04 80 D0 21 80  CF 50 11 01 CF 50 11 01  000...!..P...P..
0260: 68 61 73 74 04 80 1C 21  80 D0 20 80 CF 50 11 01  hast...!.. ..P..
0270: CF 50 11 01 68 69 74 30  04 80 1C 22 80 00        .P..hit0..."..  
```

#### Opcodes

```
  0: 0x01F4 [0xD0] LOAD_SCHEDULED_TASK_ALT5: Load scheduler "y000" with entities [Unnamed NPC (ID: 17912015/0x011150CF), Unnamed NPC (ID: 17912015/0x011150CF)], work=[86*, 0*]
  1: 0x0205 [0x1C] WAIT(68* ticks)
  2: 0x0208 [0xD0] LOAD_SCHEDULED_TASK_ALT5: Load scheduler "ykl0" with entities [Unnamed NPC (ID: 17912015/0x011150CF), Unnamed NPC (ID: 17912015/0x011150CF)], work=[86*, 0*]
  3: 0x0219 [0x1C] WAIT(2* ticks)
  4: 0x021C [0xD0] LOAD_SCHEDULED_TASK_ALT5: Load scheduler "y000" with entities [Unnamed NPC (ID: 17912015/0x011150CF), Unnamed NPC (ID: 17912015/0x011150CF)], work=[86*, 0*]
  5: 0x022D [0x1C] WAIT(68* ticks)
  6: 0x0230 [0xD0] LOAD_SCHEDULED_TASK_ALT5: Load scheduler "ykl0" with entities [Unnamed NPC (ID: 17912015/0x011150CF), Unnamed NPC (ID: 17912015/0x011150CF)], work=[86*, 0*]
  7: 0x0241 [0x1C] WAIT(2* ticks)
  8: 0x0244 [0xD0] LOAD_SCHEDULED_TASK_ALT5: Load scheduler "y000" with entities [Unnamed NPC (ID: 17912015/0x011150CF), Unnamed NPC (ID: 17912015/0x011150CF)], work=[86*, 0*]
  9: 0x0255 [0xD0] LOAD_SCHEDULED_TASK_ALT5: Load scheduler "hast" with entities [Unnamed NPC (ID: 17912015/0x011150CF), Unnamed NPC (ID: 17912015/0x011150CF)], work=[70*, 0*]
 10: 0x0266 [0x1C] WAIT(70* ticks)
 11: 0x0269 [0xD0] LOAD_SCHEDULED_TASK_ALT5: Load scheduler "hit0" with entities [Unnamed NPC (ID: 17912015/0x011150CF), Unnamed NPC (ID: 17912015/0x011150CF)], work=[86*, 0*]
 12: 0x027A [0x1C] WAIT(400* ticks)
 13: 0x027D [0x00] END_REQSTACK()
```

### Event 65535.24

#### Metadata

| Field        | Value     |
|--------------|-----------|
| Entrypoint   | 0x027E    |
| Data Size    | 235 bytes |
| Instructions | 23        |

```
      00 01 02 03 04 05 06 07  08 09 0A 0B 0C 0D 0E 0F
      -- -- -- -- -- -- -- --  -- -- -- -- -- -- -- --
0270:                                            BA C4                ..
0280: 50 11 01 24 80 25 80 26  80 27 80 BA CB 50 11 01  P..$.%.&.'...P..
0290: 28 80 29 80 2A 80 27 80  AE 05 C4 50 11 01 CB 50  (.).*.'....P...P
02A0: 11 01 5F 03 2B 80 C4 50  11 01 C4 50 11 01 6A 6D  .._.+..P...P..jm
02B0: 70 30 5F 03 2C 80 CB 50  11 01 CB 50 11 01 6A 6D  p0_.,..P...P..jm
02C0: 70 30 27 05 CA 50 11 01  0E 27 05 CC 50 11 01 0D  p0'..P...'..P...
02D0: 27 05 CD 50 11 01 09 BA  C8 50 11 01 2D 80 2E 80  '..P.....P..-...
02E0: 2F 80 30 80 81 00 C8 50  11 01 7C 00 C8 50 11 01  /.0....P..|..P..
02F0: 5F 03 31 80 C8 50 11 01  C8 50 11 01 61 7A 61 30  _.1..P...P..aza0
0300: 6B 69 64 6C 30 C9 50 11  01 6B 69 64 6C 30 C6 50  kidl0.P..kidl0.P
0310: 11 01 BA C9 50 11 01 32  80 33 80 34 80 27 80 BA  ....P..2.3.4.'..
0320: C6 50 11 01 32 80 33 80  35 80 27 80 BA CA 50 11  .P..2.3.5.'...P.
0330: 01 2D 80 2E 80 2F 80 36  80 BA CC 50 11 01 37 80  .-.../.6...P..7.
0340: 2E 80 38 80 36 80 BA CD  50 11 01 37 80 2E 80 39  ..8.6...P..7...9
0350: 80 30 80 27 05 CA 50 11  01 06 27 05 CC 50 11 01  .0.'..P...'..P..
0360: 06 27 05 CD 50 11 01 06  00                       .'..P....       
```

#### Opcodes

```
  0: 0x027E [0xBA] SET_ENTITY_POSITION(entity_id=Unnamed NPC (ID: 17912004/0x011150C4), pos_x=-591.511*, pos_z=-478.109*, pos_y=-6.007*, direction=360.0°*)
  1: 0x028B [0xBA] SET_ENTITY_POSITION(entity_id=Unnamed NPC (ID: 17912011/0x011150CB), pos_x=-606.469*, pos_z=-479.271*, pos_y=-8.100*, direction=360.0°*)
  2: 0x0298 [0xAE] MULTI_PURPOSE_ENTITY_HANDLER(case_type=0x05 - Link ActorPointer, entity1=Unnamed NPC (ID: 17912004/0x011150C4), entity2=Unnamed NPC (ID: 17912011/0x011150CB))
  3: 0x02A2 [0x5F] MULTI_HANDLER_COMPLEX(mode=0x03 - Load ext scheduler (OpCode 0x5B mode 0), ref=3435*, entity1=Unnamed NPC (ID: 17912004/0x011150C4), entity2=Unnamed NPC (ID: 17912004/0x011150C4), string="jmp0")
  4: 0x02B2 [0x5F] MULTI_HANDLER_COMPLEX(mode=0x03 - Load ext scheduler (OpCode 0x5B mode 0), ref=3712*, entity1=Unnamed NPC (ID: 17912011/0x011150CB), entity2=Unnamed NPC (ID: 17912011/0x011150CB), string="jmp0")
  5: 0x02C2 [0x27] REQ_SET(priority=0x05, entity_id=Unnamed NPC (ID: 17912010/0x011150CA), tag_num=0x0E)
  6: 0x02C9 [0x27] REQ_SET(priority=0x05, entity_id=Unnamed NPC (ID: 17912012/0x011150CC), tag_num=0x0D)
  7: 0x02D0 [0x27] REQ_SET(priority=0x05, entity_id=Unnamed NPC (ID: 17912013/0x011150CD), tag_num=0x09)
  8: 0x02D7 [0xBA] SET_ENTITY_POSITION(entity_id=Hades (ID: 17912008/0x011150C8), pos_x=-640.569*, pos_z=-475.322*, pos_y=-13.044*, direction=270.0°*)
  9: 0x02E4 [0x81] SET_ENTITY_BLINKING(blink_flag=0x00, entity=Hades (ID: 17912008/0x011150C8))
 10: 0x02EA [0x7C] Hades (ID: 17912008/0x011150C8)->Render.Flags2 |= 0x00
 11: 0x02F0 [0x5F] MULTI_HANDLER_COMPLEX(mode=0x03 - Load ext scheduler (OpCode 0x5B mode 0), ref=3731*, entity1=Hades (ID: 17912008/0x011150C8), entity2=Hades (ID: 17912008/0x011150C8), string="aza0")
 12: 0x0300 [0x6B] STOP_AND_IDLE: Unnamed NPC (ID: 17912009/0x011150C9) stops current action and resets to idle (animation="idl0")
 13: 0x0309 [0x6B] STOP_AND_IDLE: Arciela (ID: 17912006/0x011150C6) stops current action and resets to idle (animation="idl0")
 14: 0x0312 [0xBA] SET_ENTITY_POSITION(entity_id=Unnamed NPC (ID: 17912009/0x011150C9), pos_x=-542.566*, pos_z=-480.000*, pos_y=-6.013*, direction=360.0°*)
 15: 0x031F [0xBA] SET_ENTITY_POSITION(entity_id=Arciela (ID: 17912006/0x011150C6), pos_x=-542.566*, pos_z=-480.000*, pos_y=-6.118*, direction=360.0°*)
 16: 0x032C [0xBA] SET_ENTITY_POSITION(entity_id=Unnamed NPC (ID: 17912010/0x011150CA), pos_x=-640.569*, pos_z=-475.322*, pos_y=-13.044*, direction=90.0°*)
 17: 0x0339 [0xBA] SET_ENTITY_POSITION(entity_id=Unnamed NPC (ID: 17912012/0x011150CC), pos_x=-608.837*, pos_z=-475.322*, pos_y=-8.024*, direction=90.0°*)
 18: 0x0346 [0xBA] SET_ENTITY_POSITION(entity_id=Unnamed NPC (ID: 17912013/0x011150CD), pos_x=-608.837*, pos_z=-475.322*, pos_y=-7.863*, direction=270.0°*)
 19: 0x0353 [0x27] REQ_SET(priority=0x05, entity_id=Unnamed NPC (ID: 17912010/0x011150CA), tag_num=0x06)
 20: 0x035A [0x27] REQ_SET(priority=0x05, entity_id=Unnamed NPC (ID: 17912012/0x011150CC), tag_num=0x06)
 21: 0x0361 [0x27] REQ_SET(priority=0x05, entity_id=Unnamed NPC (ID: 17912013/0x011150CD), tag_num=0x06)
 22: 0x0368 [0x00] END_REQSTACK()
```
