# 17912001

## Common Data

| Field            | Value                      |
|------------------|----------------------------|
| Zone             | Ra'Kaznar Turris (ID: 277) |
| Block Size       | 4392 bytes                 |
| Total Events     | 87                         |
| References Count | 109                        |

## List of Events

| Event ID                   | Entrypoint   |   Size |   Instructions |
|----------------------------|--------------|--------|----------------|
| [65535](#event-65535)      | 0x0000       |      1 |              1 |
| [65535.1](#event-655351)   | 0x0001       |      4 |              2 |
| [1](#event-1)              | 0x0005       |      1 |              1 |
| [2](#event-2)              | 0x0006       |      1 |              1 |
| [3](#event-3)              | 0x0007       |      1 |              1 |
| [4](#event-4)              | 0x0008       |      1 |              1 |
| [100](#event-100)          | 0x0009       |      1 |              1 |
| [65535.2](#event-655352)   | 0x000A       |     33 |              3 |
| [65535.3](#event-655353)   | 0x002B       |     33 |              3 |
| [65535.4](#event-655354)   | 0x004C       |     49 |              4 |
| [65535.5](#event-655355)   | 0x007D       |     33 |              3 |
| [65535.6](#event-655356)   | 0x009E       |     33 |              3 |
| [65535.7](#event-655357)   | 0x00BF       |     33 |              3 |
| [65535.8](#event-655358)   | 0x00E0       |     65 |              5 |
| [65535.9](#event-655359)   | 0x0121       |     33 |              3 |
| [65535.10](#event-6553510) | 0x0142       |     33 |              3 |
| [65535.11](#event-6553511) | 0x0163       |     33 |              3 |
| [65535.12](#event-6553512) | 0x0184       |     33 |              3 |
| [65535.13](#event-6553513) | 0x01A5       |     33 |              3 |
| [65535.14](#event-6553514) | 0x01C6       |     33 |              3 |
| [65535.15](#event-6553515) | 0x01E7       |     33 |              3 |
| [65535.16](#event-6553516) | 0x0208       |     33 |              3 |
| [65535.17](#event-6553517) | 0x0229       |     33 |              3 |
| [65535.18](#event-6553518) | 0x024A       |     33 |              3 |
| [65535.19](#event-6553519) | 0x026B       |     33 |              3 |
| [65535.20](#event-6553520) | 0x028C       |     33 |              3 |
| [65535.21](#event-6553521) | 0x02AD       |     33 |              3 |
| [65535.22](#event-6553522) | 0x02CE       |     49 |              4 |
| [65535.23](#event-6553523) | 0x02FF       |     33 |              3 |
| [65535.24](#event-6553524) | 0x0320       |     33 |              3 |
| [65535.25](#event-6553525) | 0x0341       |     33 |              3 |
| [65535.26](#event-6553526) | 0x0362       |     32 |              3 |
| [65535.27](#event-6553527) | 0x0382       |     33 |              3 |
| [65535.28](#event-6553528) | 0x03A3       |     33 |              3 |
| [65535.29](#event-6553529) | 0x03C4       |     33 |              3 |
| [65535.30](#event-6553530) | 0x03E5       |     33 |              3 |
| [65535.31](#event-6553531) | 0x0406       |     33 |              3 |
| [65535.32](#event-6553532) | 0x0427       |     33 |              3 |
| [65535.33](#event-6553533) | 0x0448       |     49 |              4 |
| [65535.34](#event-6553534) | 0x0479       |     33 |              3 |
| [65535.35](#event-6553535) | 0x049A       |     49 |              4 |
| [65535.36](#event-6553536) | 0x04CB       |     49 |              4 |
| [65535.37](#event-6553537) | 0x04FC       |     49 |              4 |
| [65535.38](#event-6553538) | 0x052D       |     49 |              4 |
| [65535.39](#event-6553539) | 0x055E       |     49 |              4 |
| [65535.40](#event-6553540) | 0x058F       |     49 |              4 |
| [65535.41](#event-6553541) | 0x05C0       |     33 |              3 |
| [65535.42](#event-6553542) | 0x05E1       |     33 |              3 |
| [65535.43](#event-6553543) | 0x0602       |     33 |              3 |
| [65535.44](#event-6553544) | 0x0623       |     49 |              4 |
| [65535.45](#event-6553545) | 0x0654       |     33 |              3 |
| [65535.46](#event-6553546) | 0x0675       |     33 |              3 |
| [65535.47](#event-6553547) | 0x0696       |     49 |              4 |
| [65535.48](#event-6553548) | 0x06C7       |     33 |              3 |
| [65535.49](#event-6553549) | 0x06E8       |     33 |              3 |
| [65535.50](#event-6553550) | 0x0709       |     49 |              4 |
| [65535.51](#event-6553551) | 0x073A       |     49 |              4 |
| [65535.52](#event-6553552) | 0x076B       |     33 |              3 |
| [65535.53](#event-6553553) | 0x078C       |     49 |              4 |
| [65535.54](#event-6553554) | 0x07BD       |     33 |              3 |
| [65535.55](#event-6553555) | 0x07DE       |     49 |              4 |
| [65535.56](#event-6553556) | 0x080F       |     49 |              4 |
| [65535.57](#event-6553557) | 0x0840       |     33 |              3 |
| [65535.58](#event-6553558) | 0x0861       |     49 |              4 |
| [65535.59](#event-6553559) | 0x0892       |     33 |              3 |
| [65535.60](#event-6553560) | 0x08B3       |     33 |              3 |
| [65535.61](#event-6553561) | 0x08D4       |     49 |              4 |
| [65535.62](#event-6553562) | 0x0905       |     65 |              5 |
| [65535.63](#event-6553563) | 0x0946       |     33 |              3 |
| [65535.64](#event-6553564) | 0x0967       |     49 |              4 |
| [65535.65](#event-6553565) | 0x0998       |     65 |              5 |
| [65535.66](#event-6553566) | 0x09D9       |     33 |              3 |
| [65535.67](#event-6553567) | 0x09FA       |    225 |             15 |
| [65535.68](#event-6553568) | 0x0ADB       |    129 |              9 |
| [65535.69](#event-6553569) | 0x0B5C       |     33 |              3 |
| [65535.70](#event-6553570) | 0x0B7D       |     33 |              3 |
| [65535.71](#event-6553571) | 0x0B9E       |     49 |              4 |
| [65535.72](#event-6553572) | 0x0BCF       |     33 |              3 |
| [65535.73](#event-6553573) | 0x0BF0       |     33 |              3 |
| [65535.74](#event-6553574) | 0x0C11       |     33 |              3 |
| [65535.75](#event-6553575) | 0x0C32       |     49 |              4 |
| [65535.76](#event-6553576) | 0x0C63       |     33 |              3 |
| [65535.77](#event-6553577) | 0x0C84       |     49 |              4 |
| [65535.78](#event-6553578) | 0x0CB5       |    224 |             26 |
| [65535.79](#event-6553579) | 0x0D95       |     49 |              4 |
| [65535.80](#event-6553580) | 0x0DC6       |     33 |              3 |
| [65535.81](#event-6553581) | 0x0DE7       |     33 |              3 |

## DAT References (imed_data)

|   Index | Hex Value   |   Dec Value |
|---------|-------------|-------------|
|       0 | 0x0D69      |        3433 |
|       1 | 0x0E25      |        3621 |
|       2 | 0x0E4B      |        3659 |
|       3 | 0x0E27      |        3623 |
|       4 | 0x0E4C      |        3660 |
|       5 | 0x0E54      |        3668 |
|       6 | 0x0E4D      |        3661 |
|       7 | 0x0D6A      |        3434 |
|       8 | 0x0D1C      |        3356 |
|       9 | 0x0E33      |        3635 |
|      10 | 0x0E34      |        3636 |
|      11 | 0x0E55      |        3669 |
|      12 | 0x0D1D      |        3357 |
|      13 | 0x0E59      |        3673 |
|      14 | 0x0E56      |        3670 |
|      15 | 0x0E4E      |        3662 |
|      16 | 0x0E4F      |        3663 |
|      17 | 0x0DD9      |        3545 |
|      18 | 0x0E12      |        3602 |
|      19 | 0x0E36      |        3638 |
|      20 | 0x0E38      |        3640 |
|      21 | 0x0E5C      |        3676 |
|      22 | 0x0E39      |        3641 |
|      23 | 0x0DF5      |        3573 |
|      24 | 0x0E3A      |        3642 |
|      25 | 0x0E3C      |        3644 |
|      26 | 0x0CAE      |        3246 |
|      27 | 0x0E2B      |        3627 |
|      28 | 0x0E41      |        3649 |
|      29 | 0x0D6B      |        3435 |
|      30 | 0x0E42      |        3650 |
|      31 | 0x0E63      |        3683 |
|      32 | 0x0E50      |        3664 |
|      33 | 0x0E43      |        3651 |
|      34 | 0x0E44      |        3652 |
|      35 | 0x0E7D      |        3709 |
|      36 | 0x0E51      |        3665 |
|      37 | 0x0E5D      |        3677 |
|      38 | 0x0E5E      |        3678 |
|      39 | 0x0E3D      |        3645 |
|      40 | 0x0E65      |        3685 |
|      41 | 0x0E7F      |        3711 |
|      42 | 0x0E82      |        3714 |
|      43 | 0x0E60      |        3680 |
|      44 | 0x0E7C      |        3708 |
|      45 | 0x0E61      |        3681 |
|      46 | 0x0E89      |        3721 |
|      47 | 0x0E93      |        3731 |
|      48 | 0x0E8A      |        3722 |
|      49 | 0x0E94      |        3732 |
|      50 | 0x0E8B      |        3723 |
|      51 | 0x0E95      |        3733 |
|      52 | 0x0E8C      |        3724 |
|      53 | 0x0E8D      |        3725 |
|      54 | 0x0E8F      |        3727 |
|      55 | 0x0E98      |        3736 |
|      56 | 0x0E90      |        3728 |
|      57 | 0x0E99      |        3737 |
|      58 | 0x0E96      |        3734 |
|      59 | 0x0E8E      |        3726 |
|      60 | 0x0E80      |        3712 |
|      61 | 0x0E6F      |        3695 |
|      62 | 0x0E9A      |        3738 |
|      63 | 0x0E84      |        3716 |
|      64 | 0x0E6A      |        3690 |
|      65 | 0x0EB0      |        3760 |
|      66 | 0x0D6C      |        3436 |
|      67 | 0x0E86      |        3718 |
|      68 | 0x0E9B      |        3739 |
|      69 | 0x0EB1      |        3761 |
|      70 | 0x0E1E      |        3614 |
|      71 | 0x0E7B      |        3707 |
|      72 | 0x0E81      |        3713 |
|      73 | 0x0EB4      |        3764 |
|      74 | 0x0E9C      |        3740 |
|      75 | 0x0EB5      |        3765 |
|      76 | 0x0E9D      |        3741 |
|      77 | 0x0EB6      |        3766 |
|      78 | 0x0E9E      |        3742 |
|      79 | 0x0E1F      |        3615 |
|      80 | 0x0EB8      |        3768 |
|      81 | 0x0EA0      |        3744 |
|      82 | 0x0EB7      |        3767 |
|      83 | 0x0E9F      |        3743 |
|      84 | 0x0EC9      |        3785 |
|      85 | 0x0EB9      |        3769 |
|      86 | 0x0EBA      |        3770 |
|      87 | 0x0ECA      |        3786 |
|      88 | 0x0EBB      |        3771 |
|      89 | 0x0E73      |        3699 |
|      90 | 0x0EBD      |        3773 |
|      91 | 0x0001      |           1 |
|      92 | 0x008E      |         142 |
|      93 | 0x0002      |           2 |
|      94 | 0x0098      |         152 |
|      95 | 0x0003      |           3 |
|      96 | 0x00A2      |         162 |
|      97 | 0x0004      |           4 |
|      98 | 0x00AC      |         172 |
|      99 | 0x0005      |           5 |
|     100 | 0x00B6      |         182 |
|     101 | 0x0006      |           6 |
|     102 | 0x0007      |           7 |
|     103 | 0x00C0      |         192 |
|     104 | 0x0008      |           8 |
|     105 | 0x00CA      |         202 |
|     106 | 0x0EE8      |        3816 |
|     107 | 0x0F06      |        3846 |
|     108 | 0x0E71      |        3697 |

## Events

### Event 65535

#### Metadata

| Field        | Value   |
|--------------|---------|
| Entrypoint   | 0x0000  |
| Data Size    | 1 bytes |
| Instructions | 1       |

```
      00 01 02 03 04 05 06 07  08 09 0A 0B 0C 0D 0E 0F
      -- -- -- -- -- -- -- --  -- -- -- -- -- -- -- --
0000: 00                                                .               
```

#### Opcodes

```
  0: 0x0000 [0x00] END_REQSTACK()
```

### Event 65535.1

#### Metadata

| Field        | Value   |
|--------------|---------|
| Entrypoint   | 0x0001  |
| Data Size    | 4 bytes |
| Instructions | 2       |

```
      00 01 02 03 04 05 06 07  08 09 0A 0B 0C 0D 0E 0F
      -- -- -- -- -- -- -- --  -- -- -- -- -- -- -- --
0000:    1C 02 10 00                                     ....           
```

#### Opcodes

```
  0: 0x0001 [0x1C] WAIT(Work_Zone[2] ticks)
  1: 0x0004 [0x00] END_REQSTACK()
```

### Event 1

#### Metadata

| Field        | Value   |
|--------------|---------|
| Entrypoint   | 0x0005  |
| Data Size    | 1 bytes |
| Instructions | 1       |

```
      00 01 02 03 04 05 06 07  08 09 0A 0B 0C 0D 0E 0F
      -- -- -- -- -- -- -- --  -- -- -- -- -- -- -- --
0000:                00                                      .          
```

#### Opcodes

```
  0: 0x0005 [0x00] END_REQSTACK()
```

### Event 2

#### Metadata

| Field        | Value   |
|--------------|---------|
| Entrypoint   | 0x0006  |
| Data Size    | 1 bytes |
| Instructions | 1       |

```
      00 01 02 03 04 05 06 07  08 09 0A 0B 0C 0D 0E 0F
      -- -- -- -- -- -- -- --  -- -- -- -- -- -- -- --
0000:                   00                                    .         
```

#### Opcodes

```
  0: 0x0006 [0x00] END_REQSTACK()
```

### Event 3

#### Metadata

| Field        | Value   |
|--------------|---------|
| Entrypoint   | 0x0007  |
| Data Size    | 1 bytes |
| Instructions | 1       |

```
      00 01 02 03 04 05 06 07  08 09 0A 0B 0C 0D 0E 0F
      -- -- -- -- -- -- -- --  -- -- -- -- -- -- -- --
0000:                      00                                  .        
```

#### Opcodes

```
  0: 0x0007 [0x00] END_REQSTACK()
```

### Event 4

#### Metadata

| Field        | Value   |
|--------------|---------|
| Entrypoint   | 0x0008  |
| Data Size    | 1 bytes |
| Instructions | 1       |

```
      00 01 02 03 04 05 06 07  08 09 0A 0B 0C 0D 0E 0F
      -- -- -- -- -- -- -- --  -- -- -- -- -- -- -- --
0000:                          00                               .       
```

#### Opcodes

```
  0: 0x0008 [0x00] END_REQSTACK()
```

### Event 100

#### Metadata

| Field        | Value   |
|--------------|---------|
| Entrypoint   | 0x0009  |
| Data Size    | 1 bytes |
| Instructions | 1       |

```
      00 01 02 03 04 05 06 07  08 09 0A 0B 0C 0D 0E 0F
      -- -- -- -- -- -- -- --  -- -- -- -- -- -- -- --
0000:                             00                             .      
```

#### Opcodes

```
  0: 0x0009 [0x00] END_REQSTACK()
```

### Event 65535.2

#### Metadata

| Field        | Value    |
|--------------|----------|
| Entrypoint   | 0x000A   |
| Data Size    | 33 bytes |
| Instructions | 3        |

```
      00 01 02 03 04 05 06 07  08 09 0A 0B 0C 0D 0E 0F
      -- -- -- -- -- -- -- --  -- -- -- -- -- -- -- --
0000:                                5F 03 00 80 C4 50            _....P
0010: 11 01 C4 50 11 01 78 78  78 78 5F 03 01 80 C6 50  ...P..xxxx_....P
0020: 11 01 C6 50 11 01 78 78  78 78 00                 ...P..xxxx.     
```

#### Opcodes

```
  0: 0x000A [0x5F] MULTI_HANDLER_COMPLEX(mode=0x03 - Load ext scheduler (OpCode 0x5B mode 0), ref=3433*, entity1=Unnamed NPC (ID: 17912004/0x011150C4), entity2=Unnamed NPC (ID: 17912004/0x011150C4), string="xxxx")
  1: 0x001A [0x5F] MULTI_HANDLER_COMPLEX(mode=0x03 - Load ext scheduler (OpCode 0x5B mode 0), ref=3621*, entity1=Arciela (ID: 17912006/0x011150C6), entity2=Arciela (ID: 17912006/0x011150C6), string="xxxx")
  2: 0x002A [0x00] END_REQSTACK()
```

### Event 65535.3

#### Metadata

| Field        | Value    |
|--------------|----------|
| Entrypoint   | 0x002B   |
| Data Size    | 33 bytes |
| Instructions | 3        |

```
      00 01 02 03 04 05 06 07  08 09 0A 0B 0C 0D 0E 0F
      -- -- -- -- -- -- -- --  -- -- -- -- -- -- -- --
0020:                                   5F 03 00 80 C4             _....
0030: 50 11 01 C4 50 11 01 78  78 78 78 5F 03 02 80 C9  P...P..xxxx_....
0040: 50 11 01 C9 50 11 01 78  78 78 78 00              P...P..xxxx.    
```

#### Opcodes

```
  0: 0x002B [0x5F] MULTI_HANDLER_COMPLEX(mode=0x03 - Load ext scheduler (OpCode 0x5B mode 0), ref=3433*, entity1=Unnamed NPC (ID: 17912004/0x011150C4), entity2=Unnamed NPC (ID: 17912004/0x011150C4), string="xxxx")
  1: 0x003B [0x5F] MULTI_HANDLER_COMPLEX(mode=0x03 - Load ext scheduler (OpCode 0x5B mode 0), ref=3659*, entity1=Unnamed NPC (ID: 17912009/0x011150C9), entity2=Unnamed NPC (ID: 17912009/0x011150C9), string="xxxx")
  2: 0x004B [0x00] END_REQSTACK()
```

### Event 65535.4

#### Metadata

| Field        | Value    |
|--------------|----------|
| Entrypoint   | 0x004C   |
| Data Size    | 49 bytes |
| Instructions | 4        |

```
      00 01 02 03 04 05 06 07  08 09 0A 0B 0C 0D 0E 0F
      -- -- -- -- -- -- -- --  -- -- -- -- -- -- -- --
0040:                                      5F 03 00 80              _...
0050: C4 50 11 01 C4 50 11 01  78 78 78 78 5F 03 01 80  .P...P..xxxx_...
0060: C6 50 11 01 C6 50 11 01  78 78 78 78 5F 03 03 80  .P...P..xxxx_...
0070: C7 50 11 01 C7 50 11 01  78 78 78 78 00           .P...P..xxxx.   
```

#### Opcodes

```
  0: 0x004C [0x5F] MULTI_HANDLER_COMPLEX(mode=0x03 - Load ext scheduler (OpCode 0x5B mode 0), ref=3433*, entity1=Unnamed NPC (ID: 17912004/0x011150C4), entity2=Unnamed NPC (ID: 17912004/0x011150C4), string="xxxx")
  1: 0x005C [0x5F] MULTI_HANDLER_COMPLEX(mode=0x03 - Load ext scheduler (OpCode 0x5B mode 0), ref=3621*, entity1=Arciela (ID: 17912006/0x011150C6), entity2=Arciela (ID: 17912006/0x011150C6), string="xxxx")
  2: 0x006C [0x5F] MULTI_HANDLER_COMPLEX(mode=0x03 - Load ext scheduler (OpCode 0x5B mode 0), ref=3623*, entity1=Arciela (ID: 17912007/0x011150C7), entity2=Arciela (ID: 17912007/0x011150C7), string="xxxx")
  3: 0x007C [0x00] END_REQSTACK()
```

### Event 65535.5

#### Metadata

| Field        | Value    |
|--------------|----------|
| Entrypoint   | 0x007D   |
| Data Size    | 33 bytes |
| Instructions | 3        |

```
      00 01 02 03 04 05 06 07  08 09 0A 0B 0C 0D 0E 0F
      -- -- -- -- -- -- -- --  -- -- -- -- -- -- -- --
0070:                                         5F 03 00               _..
0080: 80 C4 50 11 01 C4 50 11  01 78 78 78 78 5F 03 04  ..P...P..xxxx_..
0090: 80 C9 50 11 01 C9 50 11  01 78 78 78 78 00        ..P...P..xxxx.  
```

#### Opcodes

```
  0: 0x007D [0x5F] MULTI_HANDLER_COMPLEX(mode=0x03 - Load ext scheduler (OpCode 0x5B mode 0), ref=3433*, entity1=Unnamed NPC (ID: 17912004/0x011150C4), entity2=Unnamed NPC (ID: 17912004/0x011150C4), string="xxxx")
  1: 0x008D [0x5F] MULTI_HANDLER_COMPLEX(mode=0x03 - Load ext scheduler (OpCode 0x5B mode 0), ref=3660*, entity1=Unnamed NPC (ID: 17912009/0x011150C9), entity2=Unnamed NPC (ID: 17912009/0x011150C9), string="xxxx")
  2: 0x009D [0x00] END_REQSTACK()
```

### Event 65535.6

#### Metadata

| Field        | Value    |
|--------------|----------|
| Entrypoint   | 0x009E   |
| Data Size    | 33 bytes |
| Instructions | 3        |

```
      00 01 02 03 04 05 06 07  08 09 0A 0B 0C 0D 0E 0F
      -- -- -- -- -- -- -- --  -- -- -- -- -- -- -- --
0090:                                            5F 03                _.
00A0: 00 80 C4 50 11 01 C4 50  11 01 78 78 78 78 5F 03  ...P...P..xxxx_.
00B0: 05 80 CC 50 11 01 CC 50  11 01 78 78 78 78 00     ...P...P..xxxx. 
```

#### Opcodes

```
  0: 0x009E [0x5F] MULTI_HANDLER_COMPLEX(mode=0x03 - Load ext scheduler (OpCode 0x5B mode 0), ref=3433*, entity1=Unnamed NPC (ID: 17912004/0x011150C4), entity2=Unnamed NPC (ID: 17912004/0x011150C4), string="xxxx")
  1: 0x00AE [0x5F] MULTI_HANDLER_COMPLEX(mode=0x03 - Load ext scheduler (OpCode 0x5B mode 0), ref=3668*, entity1=Unnamed NPC (ID: 17912012/0x011150CC), entity2=Unnamed NPC (ID: 17912012/0x011150CC), string="xxxx")
  2: 0x00BE [0x00] END_REQSTACK()
```

### Event 65535.7

#### Metadata

| Field        | Value    |
|--------------|----------|
| Entrypoint   | 0x00BF   |
| Data Size    | 33 bytes |
| Instructions | 3        |

```
      00 01 02 03 04 05 06 07  08 09 0A 0B 0C 0D 0E 0F
      -- -- -- -- -- -- -- --  -- -- -- -- -- -- -- --
00B0:                                               5F                 _
00C0: 03 00 80 C4 50 11 01 C4  50 11 01 78 78 78 78 5F  ....P...P..xxxx_
00D0: 03 06 80 CF 50 11 01 CF  50 11 01 78 78 78 78 00  ....P...P..xxxx.
```

#### Opcodes

```
  0: 0x00BF [0x5F] MULTI_HANDLER_COMPLEX(mode=0x03 - Load ext scheduler (OpCode 0x5B mode 0), ref=3433*, entity1=Unnamed NPC (ID: 17912004/0x011150C4), entity2=Unnamed NPC (ID: 17912004/0x011150C4), string="xxxx")
  1: 0x00CF [0x5F] MULTI_HANDLER_COMPLEX(mode=0x03 - Load ext scheduler (OpCode 0x5B mode 0), ref=3661*, entity1=Unnamed NPC (ID: 17912015/0x011150CF), entity2=Unnamed NPC (ID: 17912015/0x011150CF), string="xxxx")
  2: 0x00DF [0x00] END_REQSTACK()
```

### Event 65535.8

#### Metadata

| Field        | Value    |
|--------------|----------|
| Entrypoint   | 0x00E0   |
| Data Size    | 65 bytes |
| Instructions | 5        |

```
      00 01 02 03 04 05 06 07  08 09 0A 0B 0C 0D 0E 0F
      -- -- -- -- -- -- -- --  -- -- -- -- -- -- -- --
00E0: 5F 03 07 80 C4 50 11 01  C4 50 11 01 78 78 78 78  _....P...P..xxxx
00F0: 5F 03 08 80 CE 50 11 01  CE 50 11 01 78 78 78 78  _....P...P..xxxx
0100: 5F 03 09 80 D0 50 11 01  D0 50 11 01 78 78 78 78  _....P...P..xxxx
0110: 5F 03 0A 80 D1 50 11 01  D1 50 11 01 78 78 78 78  _....P...P..xxxx
0120: 00                                                .               
```

#### Opcodes

```
  0: 0x00E0 [0x5F] MULTI_HANDLER_COMPLEX(mode=0x03 - Load ext scheduler (OpCode 0x5B mode 0), ref=3434*, entity1=Unnamed NPC (ID: 17912004/0x011150C4), entity2=Unnamed NPC (ID: 17912004/0x011150C4), string="xxxx")
  1: 0x00F0 [0x5F] MULTI_HANDLER_COMPLEX(mode=0x03 - Load ext scheduler (OpCode 0x5B mode 0), ref=3356*, entity1=Unnamed NPC (ID: 17912014/0x011150CE), entity2=Unnamed NPC (ID: 17912014/0x011150CE), string="xxxx")
  2: 0x0100 [0x5F] MULTI_HANDLER_COMPLEX(mode=0x03 - Load ext scheduler (OpCode 0x5B mode 0), ref=3635*, entity1=Unnamed NPC (ID: 17912016/0x011150D0), entity2=Unnamed NPC (ID: 17912016/0x011150D0), string="xxxx")
  3: 0x0110 [0x5F] MULTI_HANDLER_COMPLEX(mode=0x03 - Load ext scheduler (OpCode 0x5B mode 0), ref=3636*, entity1=Unnamed NPC (ID: 17912017/0x011150D1), entity2=Unnamed NPC (ID: 17912017/0x011150D1), string="xxxx")
  4: 0x0120 [0x00] END_REQSTACK()
```

### Event 65535.9

#### Metadata

| Field        | Value    |
|--------------|----------|
| Entrypoint   | 0x0121   |
| Data Size    | 33 bytes |
| Instructions | 3        |

```
      00 01 02 03 04 05 06 07  08 09 0A 0B 0C 0D 0E 0F
      -- -- -- -- -- -- -- --  -- -- -- -- -- -- -- --
0120:    5F 03 07 80 C4 50 11  01 C4 50 11 01 78 78 78   _....P...P..xxx
0130: 78 5F 03 0B 80 CC 50 11  01 CC 50 11 01 78 78 78  x_....P...P..xxx
0140: 78 00                                             x.              
```

#### Opcodes

```
  0: 0x0121 [0x5F] MULTI_HANDLER_COMPLEX(mode=0x03 - Load ext scheduler (OpCode 0x5B mode 0), ref=3434*, entity1=Unnamed NPC (ID: 17912004/0x011150C4), entity2=Unnamed NPC (ID: 17912004/0x011150C4), string="xxxx")
  1: 0x0131 [0x5F] MULTI_HANDLER_COMPLEX(mode=0x03 - Load ext scheduler (OpCode 0x5B mode 0), ref=3669*, entity1=Unnamed NPC (ID: 17912012/0x011150CC), entity2=Unnamed NPC (ID: 17912012/0x011150CC), string="xxxx")
  2: 0x0141 [0x00] END_REQSTACK()
```

### Event 65535.10

#### Metadata

| Field        | Value    |
|--------------|----------|
| Entrypoint   | 0x0142   |
| Data Size    | 33 bytes |
| Instructions | 3        |

```
      00 01 02 03 04 05 06 07  08 09 0A 0B 0C 0D 0E 0F
      -- -- -- -- -- -- -- --  -- -- -- -- -- -- -- --
0140:       5F 03 07 80 C4 50  11 01 C4 50 11 01 78 78    _....P...P..xx
0150: 78 78 5F 03 0C 80 CE 50  11 01 CE 50 11 01 78 78  xx_....P...P..xx
0160: 78 78 00                                          xx.             
```

#### Opcodes

```
  0: 0x0142 [0x5F] MULTI_HANDLER_COMPLEX(mode=0x03 - Load ext scheduler (OpCode 0x5B mode 0), ref=3434*, entity1=Unnamed NPC (ID: 17912004/0x011150C4), entity2=Unnamed NPC (ID: 17912004/0x011150C4), string="xxxx")
  1: 0x0152 [0x5F] MULTI_HANDLER_COMPLEX(mode=0x03 - Load ext scheduler (OpCode 0x5B mode 0), ref=3357*, entity1=Unnamed NPC (ID: 17912014/0x011150CE), entity2=Unnamed NPC (ID: 17912014/0x011150CE), string="xxxx")
  2: 0x0162 [0x00] END_REQSTACK()
```

### Event 65535.11

#### Metadata

| Field        | Value    |
|--------------|----------|
| Entrypoint   | 0x0163   |
| Data Size    | 33 bytes |
| Instructions | 3        |

```
      00 01 02 03 04 05 06 07  08 09 0A 0B 0C 0D 0E 0F
      -- -- -- -- -- -- -- --  -- -- -- -- -- -- -- --
0160:          5F 03 0B 80 CC  50 11 01 CC 50 11 01 78     _....P...P..x
0170: 78 78 78 5F 03 0D 80 C8  50 11 01 C8 50 11 01 78  xxx_....P...P..x
0180: 78 78 78 00                                       xxx.            
```

#### Opcodes

```
  0: 0x0163 [0x5F] MULTI_HANDLER_COMPLEX(mode=0x03 - Load ext scheduler (OpCode 0x5B mode 0), ref=3669*, entity1=Unnamed NPC (ID: 17912012/0x011150CC), entity2=Unnamed NPC (ID: 17912012/0x011150CC), string="xxxx")
  1: 0x0173 [0x5F] MULTI_HANDLER_COMPLEX(mode=0x03 - Load ext scheduler (OpCode 0x5B mode 0), ref=3673*, entity1=Hades (ID: 17912008/0x011150C8), entity2=Hades (ID: 17912008/0x011150C8), string="xxxx")
  2: 0x0183 [0x00] END_REQSTACK()
```

### Event 65535.12

#### Metadata

| Field        | Value    |
|--------------|----------|
| Entrypoint   | 0x0184   |
| Data Size    | 33 bytes |
| Instructions | 3        |

```
      00 01 02 03 04 05 06 07  08 09 0A 0B 0C 0D 0E 0F
      -- -- -- -- -- -- -- --  -- -- -- -- -- -- -- --
0180:             5F 03 0B 80  CC 50 11 01 CC 50 11 01      _....P...P..
0190: 78 78 78 78 5F 03 0D 80  C8 50 11 01 C8 50 11 01  xxxx_....P...P..
01A0: 78 78 78 78 00                                    xxxx.           
```

#### Opcodes

```
  0: 0x0184 [0x5F] MULTI_HANDLER_COMPLEX(mode=0x03 - Load ext scheduler (OpCode 0x5B mode 0), ref=3669*, entity1=Unnamed NPC (ID: 17912012/0x011150CC), entity2=Unnamed NPC (ID: 17912012/0x011150CC), string="xxxx")
  1: 0x0194 [0x5F] MULTI_HANDLER_COMPLEX(mode=0x03 - Load ext scheduler (OpCode 0x5B mode 0), ref=3673*, entity1=Hades (ID: 17912008/0x011150C8), entity2=Hades (ID: 17912008/0x011150C8), string="xxxx")
  2: 0x01A4 [0x00] END_REQSTACK()
```

### Event 65535.13

#### Metadata

| Field        | Value    |
|--------------|----------|
| Entrypoint   | 0x01A5   |
| Data Size    | 33 bytes |
| Instructions | 3        |

```
      00 01 02 03 04 05 06 07  08 09 0A 0B 0C 0D 0E 0F
      -- -- -- -- -- -- -- --  -- -- -- -- -- -- -- --
01A0:                5F 03 0E  80 CC 50 11 01 CC 50 11       _....P...P.
01B0: 01 78 78 78 78 5F 03 0D  80 C8 50 11 01 C8 50 11  .xxxx_....P...P.
01C0: 01 78 78 78 78 00                                 .xxxx.          
```

#### Opcodes

```
  0: 0x01A5 [0x5F] MULTI_HANDLER_COMPLEX(mode=0x03 - Load ext scheduler (OpCode 0x5B mode 0), ref=3670*, entity1=Unnamed NPC (ID: 17912012/0x011150CC), entity2=Unnamed NPC (ID: 17912012/0x011150CC), string="xxxx")
  1: 0x01B5 [0x5F] MULTI_HANDLER_COMPLEX(mode=0x03 - Load ext scheduler (OpCode 0x5B mode 0), ref=3673*, entity1=Hades (ID: 17912008/0x011150C8), entity2=Hades (ID: 17912008/0x011150C8), string="xxxx")
  2: 0x01C5 [0x00] END_REQSTACK()
```

### Event 65535.14

#### Metadata

| Field        | Value    |
|--------------|----------|
| Entrypoint   | 0x01C6   |
| Data Size    | 33 bytes |
| Instructions | 3        |

```
      00 01 02 03 04 05 06 07  08 09 0A 0B 0C 0D 0E 0F
      -- -- -- -- -- -- -- --  -- -- -- -- -- -- -- --
01C0:                   5F 03  00 80 C4 50 11 01 C4 50        _....P...P
01D0: 11 01 78 78 78 78 5F 03  0F 80 CF 50 11 01 CF 50  ..xxxx_....P...P
01E0: 11 01 78 78 78 78 00                              ..xxxx.         
```

#### Opcodes

```
  0: 0x01C6 [0x5F] MULTI_HANDLER_COMPLEX(mode=0x03 - Load ext scheduler (OpCode 0x5B mode 0), ref=3433*, entity1=Unnamed NPC (ID: 17912004/0x011150C4), entity2=Unnamed NPC (ID: 17912004/0x011150C4), string="xxxx")
  1: 0x01D6 [0x5F] MULTI_HANDLER_COMPLEX(mode=0x03 - Load ext scheduler (OpCode 0x5B mode 0), ref=3662*, entity1=Unnamed NPC (ID: 17912015/0x011150CF), entity2=Unnamed NPC (ID: 17912015/0x011150CF), string="xxxx")
  2: 0x01E6 [0x00] END_REQSTACK()
```

### Event 65535.15

#### Metadata

| Field        | Value    |
|--------------|----------|
| Entrypoint   | 0x01E7   |
| Data Size    | 33 bytes |
| Instructions | 3        |

```
      00 01 02 03 04 05 06 07  08 09 0A 0B 0C 0D 0E 0F
      -- -- -- -- -- -- -- --  -- -- -- -- -- -- -- --
01E0:                      5F  03 00 80 C4 50 11 01 C4         _....P...
01F0: 50 11 01 78 78 78 78 5F  03 10 80 CF 50 11 01 CF  P..xxxx_....P...
0200: 50 11 01 78 78 78 78 00                           P..xxxx.        
```

#### Opcodes

```
  0: 0x01E7 [0x5F] MULTI_HANDLER_COMPLEX(mode=0x03 - Load ext scheduler (OpCode 0x5B mode 0), ref=3433*, entity1=Unnamed NPC (ID: 17912004/0x011150C4), entity2=Unnamed NPC (ID: 17912004/0x011150C4), string="xxxx")
  1: 0x01F7 [0x5F] MULTI_HANDLER_COMPLEX(mode=0x03 - Load ext scheduler (OpCode 0x5B mode 0), ref=3663*, entity1=Unnamed NPC (ID: 17912015/0x011150CF), entity2=Unnamed NPC (ID: 17912015/0x011150CF), string="xxxx")
  2: 0x0207 [0x00] END_REQSTACK()
```

### Event 65535.16

#### Metadata

| Field        | Value    |
|--------------|----------|
| Entrypoint   | 0x0208   |
| Data Size    | 33 bytes |
| Instructions | 3        |

```
      00 01 02 03 04 05 06 07  08 09 0A 0B 0C 0D 0E 0F
      -- -- -- -- -- -- -- --  -- -- -- -- -- -- -- --
0200:                          5F 03 11 80 C6 50 11 01          _....P..
0210: C6 50 11 01 78 78 78 78  5F 03 12 80 C9 50 11 01  .P..xxxx_....P..
0220: C9 50 11 01 78 78 78 78  00                       .P..xxxx.       
```

#### Opcodes

```
  0: 0x0208 [0x5F] MULTI_HANDLER_COMPLEX(mode=0x03 - Load ext scheduler (OpCode 0x5B mode 0), ref=3545*, entity1=Arciela (ID: 17912006/0x011150C6), entity2=Arciela (ID: 17912006/0x011150C6), string="xxxx")
  1: 0x0218 [0x5F] MULTI_HANDLER_COMPLEX(mode=0x03 - Load ext scheduler (OpCode 0x5B mode 0), ref=3602*, entity1=Unnamed NPC (ID: 17912009/0x011150C9), entity2=Unnamed NPC (ID: 17912009/0x011150C9), string="xxxx")
  2: 0x0228 [0x00] END_REQSTACK()
```

### Event 65535.17

#### Metadata

| Field        | Value    |
|--------------|----------|
| Entrypoint   | 0x0229   |
| Data Size    | 33 bytes |
| Instructions | 3        |

```
      00 01 02 03 04 05 06 07  08 09 0A 0B 0C 0D 0E 0F
      -- -- -- -- -- -- -- --  -- -- -- -- -- -- -- --
0220:                             5F 03 11 80 C6 50 11           _....P.
0230: 01 C6 50 11 01 78 78 78  78 5F 03 12 80 C9 50 11  ..P..xxxx_....P.
0240: 01 C9 50 11 01 78 78 78  78 00                    ..P..xxxx.      
```

#### Opcodes

```
  0: 0x0229 [0x5F] MULTI_HANDLER_COMPLEX(mode=0x03 - Load ext scheduler (OpCode 0x5B mode 0), ref=3545*, entity1=Arciela (ID: 17912006/0x011150C6), entity2=Arciela (ID: 17912006/0x011150C6), string="xxxx")
  1: 0x0239 [0x5F] MULTI_HANDLER_COMPLEX(mode=0x03 - Load ext scheduler (OpCode 0x5B mode 0), ref=3602*, entity1=Unnamed NPC (ID: 17912009/0x011150C9), entity2=Unnamed NPC (ID: 17912009/0x011150C9), string="xxxx")
  2: 0x0249 [0x00] END_REQSTACK()
```

### Event 65535.18

#### Metadata

| Field        | Value    |
|--------------|----------|
| Entrypoint   | 0x024A   |
| Data Size    | 33 bytes |
| Instructions | 3        |

```
      00 01 02 03 04 05 06 07  08 09 0A 0B 0C 0D 0E 0F
      -- -- -- -- -- -- -- --  -- -- -- -- -- -- -- --
0240:                                5F 03 07 80 C4 50            _....P
0250: 11 01 C4 50 11 01 78 78  78 78 5F 03 13 80 CB 50  ...P..xxxx_....P
0260: 11 01 CB 50 11 01 78 78  78 78 00                 ...P..xxxx.     
```

#### Opcodes

```
  0: 0x024A [0x5F] MULTI_HANDLER_COMPLEX(mode=0x03 - Load ext scheduler (OpCode 0x5B mode 0), ref=3434*, entity1=Unnamed NPC (ID: 17912004/0x011150C4), entity2=Unnamed NPC (ID: 17912004/0x011150C4), string="xxxx")
  1: 0x025A [0x5F] MULTI_HANDLER_COMPLEX(mode=0x03 - Load ext scheduler (OpCode 0x5B mode 0), ref=3638*, entity1=Unnamed NPC (ID: 17912011/0x011150CB), entity2=Unnamed NPC (ID: 17912011/0x011150CB), string="xxxx")
  2: 0x026A [0x00] END_REQSTACK()
```

### Event 65535.19

#### Metadata

| Field        | Value    |
|--------------|----------|
| Entrypoint   | 0x026B   |
| Data Size    | 33 bytes |
| Instructions | 3        |

```
      00 01 02 03 04 05 06 07  08 09 0A 0B 0C 0D 0E 0F
      -- -- -- -- -- -- -- --  -- -- -- -- -- -- -- --
0260:                                   5F 03 07 80 C4             _....
0270: 50 11 01 C4 50 11 01 78  78 78 78 5F 03 13 80 CB  P...P..xxxx_....
0280: 50 11 01 CB 50 11 01 78  78 78 78 00              P...P..xxxx.    
```

#### Opcodes

```
  0: 0x026B [0x5F] MULTI_HANDLER_COMPLEX(mode=0x03 - Load ext scheduler (OpCode 0x5B mode 0), ref=3434*, entity1=Unnamed NPC (ID: 17912004/0x011150C4), entity2=Unnamed NPC (ID: 17912004/0x011150C4), string="xxxx")
  1: 0x027B [0x5F] MULTI_HANDLER_COMPLEX(mode=0x03 - Load ext scheduler (OpCode 0x5B mode 0), ref=3638*, entity1=Unnamed NPC (ID: 17912011/0x011150CB), entity2=Unnamed NPC (ID: 17912011/0x011150CB), string="xxxx")
  2: 0x028B [0x00] END_REQSTACK()
```

### Event 65535.20

#### Metadata

| Field        | Value    |
|--------------|----------|
| Entrypoint   | 0x028C   |
| Data Size    | 33 bytes |
| Instructions | 3        |

```
      00 01 02 03 04 05 06 07  08 09 0A 0B 0C 0D 0E 0F
      -- -- -- -- -- -- -- --  -- -- -- -- -- -- -- --
0280:                                      5F 03 07 80              _...
0290: C4 50 11 01 C4 50 11 01  78 78 78 78 5F 03 14 80  .P...P..xxxx_...
02A0: C9 50 11 01 C9 50 11 01  78 78 78 78 00           .P...P..xxxx.   
```

#### Opcodes

```
  0: 0x028C [0x5F] MULTI_HANDLER_COMPLEX(mode=0x03 - Load ext scheduler (OpCode 0x5B mode 0), ref=3434*, entity1=Unnamed NPC (ID: 17912004/0x011150C4), entity2=Unnamed NPC (ID: 17912004/0x011150C4), string="xxxx")
  1: 0x029C [0x5F] MULTI_HANDLER_COMPLEX(mode=0x03 - Load ext scheduler (OpCode 0x5B mode 0), ref=3640*, entity1=Unnamed NPC (ID: 17912009/0x011150C9), entity2=Unnamed NPC (ID: 17912009/0x011150C9), string="xxxx")
  2: 0x02AC [0x00] END_REQSTACK()
```

### Event 65535.21

#### Metadata

| Field        | Value    |
|--------------|----------|
| Entrypoint   | 0x02AD   |
| Data Size    | 33 bytes |
| Instructions | 3        |

```
      00 01 02 03 04 05 06 07  08 09 0A 0B 0C 0D 0E 0F
      -- -- -- -- -- -- -- --  -- -- -- -- -- -- -- --
02A0:                                         5F 03 07               _..
02B0: 80 C4 50 11 01 C4 50 11  01 78 78 78 78 5F 03 15  ..P...P..xxxx_..
02C0: 80 C8 50 11 01 C8 50 11  01 78 78 78 78 00        ..P...P..xxxx.  
```

#### Opcodes

```
  0: 0x02AD [0x5F] MULTI_HANDLER_COMPLEX(mode=0x03 - Load ext scheduler (OpCode 0x5B mode 0), ref=3434*, entity1=Unnamed NPC (ID: 17912004/0x011150C4), entity2=Unnamed NPC (ID: 17912004/0x011150C4), string="xxxx")
  1: 0x02BD [0x5F] MULTI_HANDLER_COMPLEX(mode=0x03 - Load ext scheduler (OpCode 0x5B mode 0), ref=3676*, entity1=Hades (ID: 17912008/0x011150C8), entity2=Hades (ID: 17912008/0x011150C8), string="xxxx")
  2: 0x02CD [0x00] END_REQSTACK()
```

### Event 65535.22

#### Metadata

| Field        | Value    |
|--------------|----------|
| Entrypoint   | 0x02CE   |
| Data Size    | 49 bytes |
| Instructions | 4        |

```
      00 01 02 03 04 05 06 07  08 09 0A 0B 0C 0D 0E 0F
      -- -- -- -- -- -- -- --  -- -- -- -- -- -- -- --
02C0:                                            5F 03                _.
02D0: 07 80 C4 50 11 01 C4 50  11 01 78 78 78 78 5F 03  ...P...P..xxxx_.
02E0: 16 80 C9 50 11 01 C9 50  11 01 78 78 78 78 5F 03  ...P...P..xxxx_.
02F0: 17 80 CA 50 11 01 CA 50  11 01 78 78 78 78 00     ...P...P..xxxx. 
```

#### Opcodes

```
  0: 0x02CE [0x5F] MULTI_HANDLER_COMPLEX(mode=0x03 - Load ext scheduler (OpCode 0x5B mode 0), ref=3434*, entity1=Unnamed NPC (ID: 17912004/0x011150C4), entity2=Unnamed NPC (ID: 17912004/0x011150C4), string="xxxx")
  1: 0x02DE [0x5F] MULTI_HANDLER_COMPLEX(mode=0x03 - Load ext scheduler (OpCode 0x5B mode 0), ref=3641*, entity1=Unnamed NPC (ID: 17912009/0x011150C9), entity2=Unnamed NPC (ID: 17912009/0x011150C9), string="xxxx")
  2: 0x02EE [0x5F] MULTI_HANDLER_COMPLEX(mode=0x03 - Load ext scheduler (OpCode 0x5B mode 0), ref=3573*, entity1=Unnamed NPC (ID: 17912010/0x011150CA), entity2=Unnamed NPC (ID: 17912010/0x011150CA), string="xxxx")
  3: 0x02FE [0x00] END_REQSTACK()
```

### Event 65535.23

#### Metadata

| Field        | Value    |
|--------------|----------|
| Entrypoint   | 0x02FF   |
| Data Size    | 33 bytes |
| Instructions | 3        |

```
      00 01 02 03 04 05 06 07  08 09 0A 0B 0C 0D 0E 0F
      -- -- -- -- -- -- -- --  -- -- -- -- -- -- -- --
02F0:                                               5F                 _
0300: 03 07 80 C4 50 11 01 C4  50 11 01 78 78 78 78 5F  ....P...P..xxxx_
0310: 03 18 80 C9 50 11 01 C9  50 11 01 78 78 78 78 00  ....P...P..xxxx.
```

#### Opcodes

```
  0: 0x02FF [0x5F] MULTI_HANDLER_COMPLEX(mode=0x03 - Load ext scheduler (OpCode 0x5B mode 0), ref=3434*, entity1=Unnamed NPC (ID: 17912004/0x011150C4), entity2=Unnamed NPC (ID: 17912004/0x011150C4), string="xxxx")
  1: 0x030F [0x5F] MULTI_HANDLER_COMPLEX(mode=0x03 - Load ext scheduler (OpCode 0x5B mode 0), ref=3642*, entity1=Unnamed NPC (ID: 17912009/0x011150C9), entity2=Unnamed NPC (ID: 17912009/0x011150C9), string="xxxx")
  2: 0x031F [0x00] END_REQSTACK()
```

### Event 65535.24

#### Metadata

| Field        | Value    |
|--------------|----------|
| Entrypoint   | 0x0320   |
| Data Size    | 33 bytes |
| Instructions | 3        |

```
      00 01 02 03 04 05 06 07  08 09 0A 0B 0C 0D 0E 0F
      -- -- -- -- -- -- -- --  -- -- -- -- -- -- -- --
0320: 5F 03 07 80 C4 50 11 01  C4 50 11 01 78 78 78 78  _....P...P..xxxx
0330: 5F 03 18 80 C9 50 11 01  C9 50 11 01 78 78 78 78  _....P...P..xxxx
0340: 00                                                .               
```

#### Opcodes

```
  0: 0x0320 [0x5F] MULTI_HANDLER_COMPLEX(mode=0x03 - Load ext scheduler (OpCode 0x5B mode 0), ref=3434*, entity1=Unnamed NPC (ID: 17912004/0x011150C4), entity2=Unnamed NPC (ID: 17912004/0x011150C4), string="xxxx")
  1: 0x0330 [0x5F] MULTI_HANDLER_COMPLEX(mode=0x03 - Load ext scheduler (OpCode 0x5B mode 0), ref=3642*, entity1=Unnamed NPC (ID: 17912009/0x011150C9), entity2=Unnamed NPC (ID: 17912009/0x011150C9), string="xxxx")
  2: 0x0340 [0x00] END_REQSTACK()
```

### Event 65535.25

#### Metadata

| Field        | Value    |
|--------------|----------|
| Entrypoint   | 0x0341   |
| Data Size    | 33 bytes |
| Instructions | 3        |

```
      00 01 02 03 04 05 06 07  08 09 0A 0B 0C 0D 0E 0F
      -- -- -- -- -- -- -- --  -- -- -- -- -- -- -- --
0340:    5F 03 07 80 C4 50 11  01 C4 50 11 01 78 78 78   _....P...P..xxx
0350: 78 5F 03 19 80 C9 50 11  01 C9 50 11 01 78 78 78  x_....P...P..xxx
0360: 78 00                                             x.              
```

#### Opcodes

```
  0: 0x0341 [0x5F] MULTI_HANDLER_COMPLEX(mode=0x03 - Load ext scheduler (OpCode 0x5B mode 0), ref=3434*, entity1=Unnamed NPC (ID: 17912004/0x011150C4), entity2=Unnamed NPC (ID: 17912004/0x011150C4), string="xxxx")
  1: 0x0351 [0x5F] MULTI_HANDLER_COMPLEX(mode=0x03 - Load ext scheduler (OpCode 0x5B mode 0), ref=3644*, entity1=Unnamed NPC (ID: 17912009/0x011150C9), entity2=Unnamed NPC (ID: 17912009/0x011150C9), string="xxxx")
  2: 0x0361 [0x00] END_REQSTACK()
```

### Event 65535.26

#### Metadata

| Field        | Value    |
|--------------|----------|
| Entrypoint   | 0x0362   |
| Data Size    | 32 bytes |
| Instructions | 3        |

```
      00 01 02 03 04 05 06 07  08 09 0A 0B 0C 0D 0E 0F
      -- -- -- -- -- -- -- --  -- -- -- -- -- -- -- --
0360:       5F 03 07 80 C4 50  11 01 C4 50 11 01 78 78    _....P...P..xx
0370: 78 78 5B 1A 80 D0 50 11  01 D0 50 11 01 78 78 78  xx[...P...P..xxx
0380: 78 00                                             x.              
```

#### Opcodes

```
  0: 0x0362 [0x5F] MULTI_HANDLER_COMPLEX(mode=0x03 - Load ext scheduler (OpCode 0x5B mode 0), ref=3434*, entity1=Unnamed NPC (ID: 17912004/0x011150C4), entity2=Unnamed NPC (ID: 17912004/0x011150C4), string="xxxx")
  1: 0x0372 [0x5B] LOAD_EXT_SCHEDULER: Load scheduler "xxxx" with entities [Unnamed NPC (ID: 17912016/0x011150D0), Unnamed NPC (ID: 17912016/0x011150D0)], work=3246*
  2: 0x0381 [0x00] END_REQSTACK()
```

### Event 65535.27

#### Metadata

| Field        | Value    |
|--------------|----------|
| Entrypoint   | 0x0382   |
| Data Size    | 33 bytes |
| Instructions | 3        |

```
      00 01 02 03 04 05 06 07  08 09 0A 0B 0C 0D 0E 0F
      -- -- -- -- -- -- -- --  -- -- -- -- -- -- -- --
0380:       5F 03 07 80 C4 50  11 01 C4 50 11 01 78 78    _....P...P..xx
0390: 78 78 5F 03 1B 80 C6 50  11 01 C6 50 11 01 78 78  xx_....P...P..xx
03A0: 78 78 00                                          xx.             
```

#### Opcodes

```
  0: 0x0382 [0x5F] MULTI_HANDLER_COMPLEX(mode=0x03 - Load ext scheduler (OpCode 0x5B mode 0), ref=3434*, entity1=Unnamed NPC (ID: 17912004/0x011150C4), entity2=Unnamed NPC (ID: 17912004/0x011150C4), string="xxxx")
  1: 0x0392 [0x5F] MULTI_HANDLER_COMPLEX(mode=0x03 - Load ext scheduler (OpCode 0x5B mode 0), ref=3627*, entity1=Arciela (ID: 17912006/0x011150C6), entity2=Arciela (ID: 17912006/0x011150C6), string="xxxx")
  2: 0x03A2 [0x00] END_REQSTACK()
```

### Event 65535.28

#### Metadata

| Field        | Value    |
|--------------|----------|
| Entrypoint   | 0x03A3   |
| Data Size    | 33 bytes |
| Instructions | 3        |

```
      00 01 02 03 04 05 06 07  08 09 0A 0B 0C 0D 0E 0F
      -- -- -- -- -- -- -- --  -- -- -- -- -- -- -- --
03A0:          5F 03 07 80 C4  50 11 01 C4 50 11 01 78     _....P...P..x
03B0: 78 78 78 5F 03 1C 80 CB  50 11 01 CB 50 11 01 78  xxx_....P...P..x
03C0: 78 78 78 00                                       xxx.            
```

#### Opcodes

```
  0: 0x03A3 [0x5F] MULTI_HANDLER_COMPLEX(mode=0x03 - Load ext scheduler (OpCode 0x5B mode 0), ref=3434*, entity1=Unnamed NPC (ID: 17912004/0x011150C4), entity2=Unnamed NPC (ID: 17912004/0x011150C4), string="xxxx")
  1: 0x03B3 [0x5F] MULTI_HANDLER_COMPLEX(mode=0x03 - Load ext scheduler (OpCode 0x5B mode 0), ref=3649*, entity1=Unnamed NPC (ID: 17912011/0x011150CB), entity2=Unnamed NPC (ID: 17912011/0x011150CB), string="xxxx")
  2: 0x03C3 [0x00] END_REQSTACK()
```

### Event 65535.29

#### Metadata

| Field        | Value    |
|--------------|----------|
| Entrypoint   | 0x03C4   |
| Data Size    | 33 bytes |
| Instructions | 3        |

```
      00 01 02 03 04 05 06 07  08 09 0A 0B 0C 0D 0E 0F
      -- -- -- -- -- -- -- --  -- -- -- -- -- -- -- --
03C0:             5F 03 1D 80  C4 50 11 01 C4 50 11 01      _....P...P..
03D0: 78 78 78 78 5F 03 1C 80  CB 50 11 01 CB 50 11 01  xxxx_....P...P..
03E0: 78 78 78 78 00                                    xxxx.           
```

#### Opcodes

```
  0: 0x03C4 [0x5F] MULTI_HANDLER_COMPLEX(mode=0x03 - Load ext scheduler (OpCode 0x5B mode 0), ref=3435*, entity1=Unnamed NPC (ID: 17912004/0x011150C4), entity2=Unnamed NPC (ID: 17912004/0x011150C4), string="xxxx")
  1: 0x03D4 [0x5F] MULTI_HANDLER_COMPLEX(mode=0x03 - Load ext scheduler (OpCode 0x5B mode 0), ref=3649*, entity1=Unnamed NPC (ID: 17912011/0x011150CB), entity2=Unnamed NPC (ID: 17912011/0x011150CB), string="xxxx")
  2: 0x03E4 [0x00] END_REQSTACK()
```

### Event 65535.30

#### Metadata

| Field        | Value    |
|--------------|----------|
| Entrypoint   | 0x03E5   |
| Data Size    | 33 bytes |
| Instructions | 3        |

```
      00 01 02 03 04 05 06 07  08 09 0A 0B 0C 0D 0E 0F
      -- -- -- -- -- -- -- --  -- -- -- -- -- -- -- --
03E0:                5F 03 1D  80 C4 50 11 01 C4 50 11       _....P...P.
03F0: 01 78 78 78 78 5F 03 1C  80 CB 50 11 01 CB 50 11  .xxxx_....P...P.
0400: 01 78 78 78 78 00                                 .xxxx.          
```

#### Opcodes

```
  0: 0x03E5 [0x5F] MULTI_HANDLER_COMPLEX(mode=0x03 - Load ext scheduler (OpCode 0x5B mode 0), ref=3435*, entity1=Unnamed NPC (ID: 17912004/0x011150C4), entity2=Unnamed NPC (ID: 17912004/0x011150C4), string="xxxx")
  1: 0x03F5 [0x5F] MULTI_HANDLER_COMPLEX(mode=0x03 - Load ext scheduler (OpCode 0x5B mode 0), ref=3649*, entity1=Unnamed NPC (ID: 17912011/0x011150CB), entity2=Unnamed NPC (ID: 17912011/0x011150CB), string="xxxx")
  2: 0x0405 [0x00] END_REQSTACK()
```

### Event 65535.31

#### Metadata

| Field        | Value    |
|--------------|----------|
| Entrypoint   | 0x0406   |
| Data Size    | 33 bytes |
| Instructions | 3        |

```
      00 01 02 03 04 05 06 07  08 09 0A 0B 0C 0D 0E 0F
      -- -- -- -- -- -- -- --  -- -- -- -- -- -- -- --
0400:                   5F 03  1E 80 CB 50 11 01 CB 50        _....P...P
0410: 11 01 78 78 78 78 5F 03  1F 80 C6 50 11 01 C6 50  ..xxxx_....P...P
0420: 11 01 78 78 78 78 00                              ..xxxx.         
```

#### Opcodes

```
  0: 0x0406 [0x5F] MULTI_HANDLER_COMPLEX(mode=0x03 - Load ext scheduler (OpCode 0x5B mode 0), ref=3650*, entity1=Unnamed NPC (ID: 17912011/0x011150CB), entity2=Unnamed NPC (ID: 17912011/0x011150CB), string="xxxx")
  1: 0x0416 [0x5F] MULTI_HANDLER_COMPLEX(mode=0x03 - Load ext scheduler (OpCode 0x5B mode 0), ref=3683*, entity1=Arciela (ID: 17912006/0x011150C6), entity2=Arciela (ID: 17912006/0x011150C6), string="xxxx")
  2: 0x0426 [0x00] END_REQSTACK()
```

### Event 65535.32

#### Metadata

| Field        | Value    |
|--------------|----------|
| Entrypoint   | 0x0427   |
| Data Size    | 33 bytes |
| Instructions | 3        |

```
      00 01 02 03 04 05 06 07  08 09 0A 0B 0C 0D 0E 0F
      -- -- -- -- -- -- -- --  -- -- -- -- -- -- -- --
0420:                      5F  03 1D 80 C4 50 11 01 C4         _....P...
0430: 50 11 01 78 78 78 78 5F  03 10 80 C9 50 11 01 C9  P..xxxx_....P...
0440: 50 11 01 78 78 78 78 00                           P..xxxx.        
```

#### Opcodes

```
  0: 0x0427 [0x5F] MULTI_HANDLER_COMPLEX(mode=0x03 - Load ext scheduler (OpCode 0x5B mode 0), ref=3435*, entity1=Unnamed NPC (ID: 17912004/0x011150C4), entity2=Unnamed NPC (ID: 17912004/0x011150C4), string="xxxx")
  1: 0x0437 [0x5F] MULTI_HANDLER_COMPLEX(mode=0x03 - Load ext scheduler (OpCode 0x5B mode 0), ref=3663*, entity1=Unnamed NPC (ID: 17912009/0x011150C9), entity2=Unnamed NPC (ID: 17912009/0x011150C9), string="xxxx")
  2: 0x0447 [0x00] END_REQSTACK()
```

### Event 65535.33

#### Metadata

| Field        | Value    |
|--------------|----------|
| Entrypoint   | 0x0448   |
| Data Size    | 49 bytes |
| Instructions | 4        |

```
      00 01 02 03 04 05 06 07  08 09 0A 0B 0C 0D 0E 0F
      -- -- -- -- -- -- -- --  -- -- -- -- -- -- -- --
0440:                          5F 03 1D 80 C4 50 11 01          _....P..
0450: C4 50 11 01 78 78 78 78  5F 03 1E 80 CB 50 11 01  .P..xxxx_....P..
0460: CB 50 11 01 78 78 78 78  5F 03 10 80 C9 50 11 01  .P..xxxx_....P..
0470: C9 50 11 01 78 78 78 78  00                       .P..xxxx.       
```

#### Opcodes

```
  0: 0x0448 [0x5F] MULTI_HANDLER_COMPLEX(mode=0x03 - Load ext scheduler (OpCode 0x5B mode 0), ref=3435*, entity1=Unnamed NPC (ID: 17912004/0x011150C4), entity2=Unnamed NPC (ID: 17912004/0x011150C4), string="xxxx")
  1: 0x0458 [0x5F] MULTI_HANDLER_COMPLEX(mode=0x03 - Load ext scheduler (OpCode 0x5B mode 0), ref=3650*, entity1=Unnamed NPC (ID: 17912011/0x011150CB), entity2=Unnamed NPC (ID: 17912011/0x011150CB), string="xxxx")
  2: 0x0468 [0x5F] MULTI_HANDLER_COMPLEX(mode=0x03 - Load ext scheduler (OpCode 0x5B mode 0), ref=3663*, entity1=Unnamed NPC (ID: 17912009/0x011150C9), entity2=Unnamed NPC (ID: 17912009/0x011150C9), string="xxxx")
  3: 0x0478 [0x00] END_REQSTACK()
```

### Event 65535.34

#### Metadata

| Field        | Value    |
|--------------|----------|
| Entrypoint   | 0x0479   |
| Data Size    | 33 bytes |
| Instructions | 3        |

```
      00 01 02 03 04 05 06 07  08 09 0A 0B 0C 0D 0E 0F
      -- -- -- -- -- -- -- --  -- -- -- -- -- -- -- --
0470:                             5F 03 1D 80 C4 50 11           _....P.
0480: 01 C4 50 11 01 78 78 78  78 5F 03 20 80 C9 50 11  ..P..xxxx_. ..P.
0490: 01 C9 50 11 01 78 78 78  78 00                    ..P..xxxx.      
```

#### Opcodes

```
  0: 0x0479 [0x5F] MULTI_HANDLER_COMPLEX(mode=0x03 - Load ext scheduler (OpCode 0x5B mode 0), ref=3435*, entity1=Unnamed NPC (ID: 17912004/0x011150C4), entity2=Unnamed NPC (ID: 17912004/0x011150C4), string="xxxx")
  1: 0x0489 [0x5F] MULTI_HANDLER_COMPLEX(mode=0x03 - Load ext scheduler (OpCode 0x5B mode 0), ref=3664*, entity1=Unnamed NPC (ID: 17912009/0x011150C9), entity2=Unnamed NPC (ID: 17912009/0x011150C9), string="xxxx")
  2: 0x0499 [0x00] END_REQSTACK()
```

### Event 65535.35

#### Metadata

| Field        | Value    |
|--------------|----------|
| Entrypoint   | 0x049A   |
| Data Size    | 49 bytes |
| Instructions | 4        |

```
      00 01 02 03 04 05 06 07  08 09 0A 0B 0C 0D 0E 0F
      -- -- -- -- -- -- -- --  -- -- -- -- -- -- -- --
0490:                                5F 03 1D 80 C4 50            _....P
04A0: 11 01 C4 50 11 01 78 78  78 78 5F 03 21 80 CB 50  ...P..xxxx_.!..P
04B0: 11 01 CB 50 11 01 78 78  78 78 5F 03 20 80 C9 50  ...P..xxxx_. ..P
04C0: 11 01 C9 50 11 01 78 78  78 78 00                 ...P..xxxx.     
```

#### Opcodes

```
  0: 0x049A [0x5F] MULTI_HANDLER_COMPLEX(mode=0x03 - Load ext scheduler (OpCode 0x5B mode 0), ref=3435*, entity1=Unnamed NPC (ID: 17912004/0x011150C4), entity2=Unnamed NPC (ID: 17912004/0x011150C4), string="xxxx")
  1: 0x04AA [0x5F] MULTI_HANDLER_COMPLEX(mode=0x03 - Load ext scheduler (OpCode 0x5B mode 0), ref=3651*, entity1=Unnamed NPC (ID: 17912011/0x011150CB), entity2=Unnamed NPC (ID: 17912011/0x011150CB), string="xxxx")
  2: 0x04BA [0x5F] MULTI_HANDLER_COMPLEX(mode=0x03 - Load ext scheduler (OpCode 0x5B mode 0), ref=3664*, entity1=Unnamed NPC (ID: 17912009/0x011150C9), entity2=Unnamed NPC (ID: 17912009/0x011150C9), string="xxxx")
  3: 0x04CA [0x00] END_REQSTACK()
```

### Event 65535.36

#### Metadata

| Field        | Value    |
|--------------|----------|
| Entrypoint   | 0x04CB   |
| Data Size    | 49 bytes |
| Instructions | 4        |

```
      00 01 02 03 04 05 06 07  08 09 0A 0B 0C 0D 0E 0F
      -- -- -- -- -- -- -- --  -- -- -- -- -- -- -- --
04C0:                                   5F 03 1D 80 C4             _....
04D0: 50 11 01 C4 50 11 01 78  78 78 78 5F 03 21 80 CB  P...P..xxxx_.!..
04E0: 50 11 01 CB 50 11 01 78  78 78 78 5F 03 20 80 C9  P...P..xxxx_. ..
04F0: 50 11 01 C9 50 11 01 78  78 78 78 00              P...P..xxxx.    
```

#### Opcodes

```
  0: 0x04CB [0x5F] MULTI_HANDLER_COMPLEX(mode=0x03 - Load ext scheduler (OpCode 0x5B mode 0), ref=3435*, entity1=Unnamed NPC (ID: 17912004/0x011150C4), entity2=Unnamed NPC (ID: 17912004/0x011150C4), string="xxxx")
  1: 0x04DB [0x5F] MULTI_HANDLER_COMPLEX(mode=0x03 - Load ext scheduler (OpCode 0x5B mode 0), ref=3651*, entity1=Unnamed NPC (ID: 17912011/0x011150CB), entity2=Unnamed NPC (ID: 17912011/0x011150CB), string="xxxx")
  2: 0x04EB [0x5F] MULTI_HANDLER_COMPLEX(mode=0x03 - Load ext scheduler (OpCode 0x5B mode 0), ref=3664*, entity1=Unnamed NPC (ID: 17912009/0x011150C9), entity2=Unnamed NPC (ID: 17912009/0x011150C9), string="xxxx")
  3: 0x04FB [0x00] END_REQSTACK()
```

### Event 65535.37

#### Metadata

| Field        | Value    |
|--------------|----------|
| Entrypoint   | 0x04FC   |
| Data Size    | 49 bytes |
| Instructions | 4        |

```
      00 01 02 03 04 05 06 07  08 09 0A 0B 0C 0D 0E 0F
      -- -- -- -- -- -- -- --  -- -- -- -- -- -- -- --
04F0:                                      5F 03 1D 80              _...
0500: C4 50 11 01 C4 50 11 01  78 78 78 78 5F 03 21 80  .P...P..xxxx_.!.
0510: CB 50 11 01 CB 50 11 01  78 78 78 78 5F 03 20 80  .P...P..xxxx_. .
0520: C9 50 11 01 C9 50 11 01  78 78 78 78 00           .P...P..xxxx.   
```

#### Opcodes

```
  0: 0x04FC [0x5F] MULTI_HANDLER_COMPLEX(mode=0x03 - Load ext scheduler (OpCode 0x5B mode 0), ref=3435*, entity1=Unnamed NPC (ID: 17912004/0x011150C4), entity2=Unnamed NPC (ID: 17912004/0x011150C4), string="xxxx")
  1: 0x050C [0x5F] MULTI_HANDLER_COMPLEX(mode=0x03 - Load ext scheduler (OpCode 0x5B mode 0), ref=3651*, entity1=Unnamed NPC (ID: 17912011/0x011150CB), entity2=Unnamed NPC (ID: 17912011/0x011150CB), string="xxxx")
  2: 0x051C [0x5F] MULTI_HANDLER_COMPLEX(mode=0x03 - Load ext scheduler (OpCode 0x5B mode 0), ref=3664*, entity1=Unnamed NPC (ID: 17912009/0x011150C9), entity2=Unnamed NPC (ID: 17912009/0x011150C9), string="xxxx")
  3: 0x052C [0x00] END_REQSTACK()
```

### Event 65535.38

#### Metadata

| Field        | Value    |
|--------------|----------|
| Entrypoint   | 0x052D   |
| Data Size    | 49 bytes |
| Instructions | 4        |

```
      00 01 02 03 04 05 06 07  08 09 0A 0B 0C 0D 0E 0F
      -- -- -- -- -- -- -- --  -- -- -- -- -- -- -- --
0520:                                         5F 03 1D               _..
0530: 80 C4 50 11 01 C4 50 11  01 78 78 78 78 5F 03 21  ..P...P..xxxx_.!
0540: 80 CB 50 11 01 CB 50 11  01 78 78 78 78 5F 03 20  ..P...P..xxxx_. 
0550: 80 C9 50 11 01 C9 50 11  01 78 78 78 78 00        ..P...P..xxxx.  
```

#### Opcodes

```
  0: 0x052D [0x5F] MULTI_HANDLER_COMPLEX(mode=0x03 - Load ext scheduler (OpCode 0x5B mode 0), ref=3435*, entity1=Unnamed NPC (ID: 17912004/0x011150C4), entity2=Unnamed NPC (ID: 17912004/0x011150C4), string="xxxx")
  1: 0x053D [0x5F] MULTI_HANDLER_COMPLEX(mode=0x03 - Load ext scheduler (OpCode 0x5B mode 0), ref=3651*, entity1=Unnamed NPC (ID: 17912011/0x011150CB), entity2=Unnamed NPC (ID: 17912011/0x011150CB), string="xxxx")
  2: 0x054D [0x5F] MULTI_HANDLER_COMPLEX(mode=0x03 - Load ext scheduler (OpCode 0x5B mode 0), ref=3664*, entity1=Unnamed NPC (ID: 17912009/0x011150C9), entity2=Unnamed NPC (ID: 17912009/0x011150C9), string="xxxx")
  3: 0x055D [0x00] END_REQSTACK()
```

### Event 65535.39

#### Metadata

| Field        | Value    |
|--------------|----------|
| Entrypoint   | 0x055E   |
| Data Size    | 49 bytes |
| Instructions | 4        |

```
      00 01 02 03 04 05 06 07  08 09 0A 0B 0C 0D 0E 0F
      -- -- -- -- -- -- -- --  -- -- -- -- -- -- -- --
0550:                                            5F 03                _.
0560: 1D 80 C4 50 11 01 C4 50  11 01 78 78 78 78 5F 03  ...P...P..xxxx_.
0570: 22 80 CB 50 11 01 CB 50  11 01 78 78 78 78 5F 03  "..P...P..xxxx_.
0580: 20 80 C9 50 11 01 C9 50  11 01 78 78 78 78 00      ..P...P..xxxx. 
```

#### Opcodes

```
  0: 0x055E [0x5F] MULTI_HANDLER_COMPLEX(mode=0x03 - Load ext scheduler (OpCode 0x5B mode 0), ref=3435*, entity1=Unnamed NPC (ID: 17912004/0x011150C4), entity2=Unnamed NPC (ID: 17912004/0x011150C4), string="xxxx")
  1: 0x056E [0x5F] MULTI_HANDLER_COMPLEX(mode=0x03 - Load ext scheduler (OpCode 0x5B mode 0), ref=3652*, entity1=Unnamed NPC (ID: 17912011/0x011150CB), entity2=Unnamed NPC (ID: 17912011/0x011150CB), string="xxxx")
  2: 0x057E [0x5F] MULTI_HANDLER_COMPLEX(mode=0x03 - Load ext scheduler (OpCode 0x5B mode 0), ref=3664*, entity1=Unnamed NPC (ID: 17912009/0x011150C9), entity2=Unnamed NPC (ID: 17912009/0x011150C9), string="xxxx")
  3: 0x058E [0x00] END_REQSTACK()
```

### Event 65535.40

#### Metadata

| Field        | Value    |
|--------------|----------|
| Entrypoint   | 0x058F   |
| Data Size    | 49 bytes |
| Instructions | 4        |

```
      00 01 02 03 04 05 06 07  08 09 0A 0B 0C 0D 0E 0F
      -- -- -- -- -- -- -- --  -- -- -- -- -- -- -- --
0580:                                               5F                 _
0590: 03 1D 80 C4 50 11 01 C4  50 11 01 78 78 78 78 5F  ....P...P..xxxx_
05A0: 03 23 80 CB 50 11 01 CB  50 11 01 78 78 78 78 5F  .#..P...P..xxxx_
05B0: 03 24 80 C9 50 11 01 C9  50 11 01 78 78 78 78 00  .$..P...P..xxxx.
```

#### Opcodes

```
  0: 0x058F [0x5F] MULTI_HANDLER_COMPLEX(mode=0x03 - Load ext scheduler (OpCode 0x5B mode 0), ref=3435*, entity1=Unnamed NPC (ID: 17912004/0x011150C4), entity2=Unnamed NPC (ID: 17912004/0x011150C4), string="xxxx")
  1: 0x059F [0x5F] MULTI_HANDLER_COMPLEX(mode=0x03 - Load ext scheduler (OpCode 0x5B mode 0), ref=3709*, entity1=Unnamed NPC (ID: 17912011/0x011150CB), entity2=Unnamed NPC (ID: 17912011/0x011150CB), string="xxxx")
  2: 0x05AF [0x5F] MULTI_HANDLER_COMPLEX(mode=0x03 - Load ext scheduler (OpCode 0x5B mode 0), ref=3665*, entity1=Unnamed NPC (ID: 17912009/0x011150C9), entity2=Unnamed NPC (ID: 17912009/0x011150C9), string="xxxx")
  3: 0x05BF [0x00] END_REQSTACK()
```

### Event 65535.41

#### Metadata

| Field        | Value    |
|--------------|----------|
| Entrypoint   | 0x05C0   |
| Data Size    | 33 bytes |
| Instructions | 3        |

```
      00 01 02 03 04 05 06 07  08 09 0A 0B 0C 0D 0E 0F
      -- -- -- -- -- -- -- --  -- -- -- -- -- -- -- --
05C0: 5F 03 1D 80 C4 50 11 01  C4 50 11 01 78 78 78 78  _....P...P..xxxx
05D0: 5F 03 23 80 CB 50 11 01  CB 50 11 01 78 78 78 78  _.#..P...P..xxxx
05E0: 00                                                .               
```

#### Opcodes

```
  0: 0x05C0 [0x5F] MULTI_HANDLER_COMPLEX(mode=0x03 - Load ext scheduler (OpCode 0x5B mode 0), ref=3435*, entity1=Unnamed NPC (ID: 17912004/0x011150C4), entity2=Unnamed NPC (ID: 17912004/0x011150C4), string="xxxx")
  1: 0x05D0 [0x5F] MULTI_HANDLER_COMPLEX(mode=0x03 - Load ext scheduler (OpCode 0x5B mode 0), ref=3709*, entity1=Unnamed NPC (ID: 17912011/0x011150CB), entity2=Unnamed NPC (ID: 17912011/0x011150CB), string="xxxx")
  2: 0x05E0 [0x00] END_REQSTACK()
```

### Event 65535.42

#### Metadata

| Field        | Value    |
|--------------|----------|
| Entrypoint   | 0x05E1   |
| Data Size    | 33 bytes |
| Instructions | 3        |

```
      00 01 02 03 04 05 06 07  08 09 0A 0B 0C 0D 0E 0F
      -- -- -- -- -- -- -- --  -- -- -- -- -- -- -- --
05E0:    5F 03 07 80 C4 50 11  01 C4 50 11 01 78 78 78   _....P...P..xxx
05F0: 78 5F 03 25 80 C8 50 11  01 C8 50 11 01 78 78 78  x_.%..P...P..xxx
0600: 78 00                                             x.              
```

#### Opcodes

```
  0: 0x05E1 [0x5F] MULTI_HANDLER_COMPLEX(mode=0x03 - Load ext scheduler (OpCode 0x5B mode 0), ref=3434*, entity1=Unnamed NPC (ID: 17912004/0x011150C4), entity2=Unnamed NPC (ID: 17912004/0x011150C4), string="xxxx")
  1: 0x05F1 [0x5F] MULTI_HANDLER_COMPLEX(mode=0x03 - Load ext scheduler (OpCode 0x5B mode 0), ref=3677*, entity1=Hades (ID: 17912008/0x011150C8), entity2=Hades (ID: 17912008/0x011150C8), string="xxxx")
  2: 0x0601 [0x00] END_REQSTACK()
```

### Event 65535.43

#### Metadata

| Field        | Value    |
|--------------|----------|
| Entrypoint   | 0x0602   |
| Data Size    | 33 bytes |
| Instructions | 3        |

```
      00 01 02 03 04 05 06 07  08 09 0A 0B 0C 0D 0E 0F
      -- -- -- -- -- -- -- --  -- -- -- -- -- -- -- --
0600:       5F 03 07 80 C4 50  11 01 C4 50 11 01 78 78    _....P...P..xx
0610: 78 78 5F 03 26 80 C8 50  11 01 C8 50 11 01 78 78  xx_.&..P...P..xx
0620: 78 78 00                                          xx.             
```

#### Opcodes

```
  0: 0x0602 [0x5F] MULTI_HANDLER_COMPLEX(mode=0x03 - Load ext scheduler (OpCode 0x5B mode 0), ref=3434*, entity1=Unnamed NPC (ID: 17912004/0x011150C4), entity2=Unnamed NPC (ID: 17912004/0x011150C4), string="xxxx")
  1: 0x0612 [0x5F] MULTI_HANDLER_COMPLEX(mode=0x03 - Load ext scheduler (OpCode 0x5B mode 0), ref=3678*, entity1=Hades (ID: 17912008/0x011150C8), entity2=Hades (ID: 17912008/0x011150C8), string="xxxx")
  2: 0x0622 [0x00] END_REQSTACK()
```

### Event 65535.44

#### Metadata

| Field        | Value    |
|--------------|----------|
| Entrypoint   | 0x0623   |
| Data Size    | 49 bytes |
| Instructions | 4        |

```
      00 01 02 03 04 05 06 07  08 09 0A 0B 0C 0D 0E 0F
      -- -- -- -- -- -- -- --  -- -- -- -- -- -- -- --
0620:          5F 03 1D 80 C4  50 11 01 C4 50 11 01 78     _....P...P..x
0630: 78 78 78 5F 03 27 80 C9  50 11 01 C9 50 11 01 78  xxx_.'..P...P..x
0640: 78 78 78 5F 03 28 80 C6  50 11 01 C6 50 11 01 78  xxx_.(..P...P..x
0650: 78 78 78 00                                       xxx.            
```

#### Opcodes

```
  0: 0x0623 [0x5F] MULTI_HANDLER_COMPLEX(mode=0x03 - Load ext scheduler (OpCode 0x5B mode 0), ref=3435*, entity1=Unnamed NPC (ID: 17912004/0x011150C4), entity2=Unnamed NPC (ID: 17912004/0x011150C4), string="xxxx")
  1: 0x0633 [0x5F] MULTI_HANDLER_COMPLEX(mode=0x03 - Load ext scheduler (OpCode 0x5B mode 0), ref=3645*, entity1=Unnamed NPC (ID: 17912009/0x011150C9), entity2=Unnamed NPC (ID: 17912009/0x011150C9), string="xxxx")
  2: 0x0643 [0x5F] MULTI_HANDLER_COMPLEX(mode=0x03 - Load ext scheduler (OpCode 0x5B mode 0), ref=3685*, entity1=Arciela (ID: 17912006/0x011150C6), entity2=Arciela (ID: 17912006/0x011150C6), string="xxxx")
  3: 0x0653 [0x00] END_REQSTACK()
```

### Event 65535.45

#### Metadata

| Field        | Value    |
|--------------|----------|
| Entrypoint   | 0x0654   |
| Data Size    | 33 bytes |
| Instructions | 3        |

```
      00 01 02 03 04 05 06 07  08 09 0A 0B 0C 0D 0E 0F
      -- -- -- -- -- -- -- --  -- -- -- -- -- -- -- --
0650:             5F 03 28 80  C6 50 11 01 C6 50 11 01      _.(..P...P..
0660: 78 78 78 78 5F 03 29 80  C9 50 11 01 C9 50 11 01  xxxx_.)..P...P..
0670: 78 78 78 78 00                                    xxxx.           
```

#### Opcodes

```
  0: 0x0654 [0x5F] MULTI_HANDLER_COMPLEX(mode=0x03 - Load ext scheduler (OpCode 0x5B mode 0), ref=3685*, entity1=Arciela (ID: 17912006/0x011150C6), entity2=Arciela (ID: 17912006/0x011150C6), string="xxxx")
  1: 0x0664 [0x5F] MULTI_HANDLER_COMPLEX(mode=0x03 - Load ext scheduler (OpCode 0x5B mode 0), ref=3711*, entity1=Unnamed NPC (ID: 17912009/0x011150C9), entity2=Unnamed NPC (ID: 17912009/0x011150C9), string="xxxx")
  2: 0x0674 [0x00] END_REQSTACK()
```

### Event 65535.46

#### Metadata

| Field        | Value    |
|--------------|----------|
| Entrypoint   | 0x0675   |
| Data Size    | 33 bytes |
| Instructions | 3        |

```
      00 01 02 03 04 05 06 07  08 09 0A 0B 0C 0D 0E 0F
      -- -- -- -- -- -- -- --  -- -- -- -- -- -- -- --
0670:                5F 03 07  80 C4 50 11 01 C4 50 11       _....P...P.
0680: 01 78 78 78 78 5F 03 2A  80 CB 50 11 01 CB 50 11  .xxxx_.*..P...P.
0690: 01 78 78 78 78 00                                 .xxxx.          
```

#### Opcodes

```
  0: 0x0675 [0x5F] MULTI_HANDLER_COMPLEX(mode=0x03 - Load ext scheduler (OpCode 0x5B mode 0), ref=3434*, entity1=Unnamed NPC (ID: 17912004/0x011150C4), entity2=Unnamed NPC (ID: 17912004/0x011150C4), string="xxxx")
  1: 0x0685 [0x5F] MULTI_HANDLER_COMPLEX(mode=0x03 - Load ext scheduler (OpCode 0x5B mode 0), ref=3714*, entity1=Unnamed NPC (ID: 17912011/0x011150CB), entity2=Unnamed NPC (ID: 17912011/0x011150CB), string="xxxx")
  2: 0x0695 [0x00] END_REQSTACK()
```

### Event 65535.47

#### Metadata

| Field        | Value    |
|--------------|----------|
| Entrypoint   | 0x0696   |
| Data Size    | 49 bytes |
| Instructions | 4        |

```
      00 01 02 03 04 05 06 07  08 09 0A 0B 0C 0D 0E 0F
      -- -- -- -- -- -- -- --  -- -- -- -- -- -- -- --
0690:                   5F 03  2B 80 C8 50 11 01 C8 50        _.+..P...P
06A0: 11 01 78 78 78 78 5F 03  2C 80 CA 50 11 01 CA 50  ..xxxx_.,..P...P
06B0: 11 01 78 78 78 78 5F 03  1D 80 C4 50 11 01 C4 50  ..xxxx_....P...P
06C0: 11 01 78 78 78 78 00                              ..xxxx.         
```

#### Opcodes

```
  0: 0x0696 [0x5F] MULTI_HANDLER_COMPLEX(mode=0x03 - Load ext scheduler (OpCode 0x5B mode 0), ref=3680*, entity1=Hades (ID: 17912008/0x011150C8), entity2=Hades (ID: 17912008/0x011150C8), string="xxxx")
  1: 0x06A6 [0x5F] MULTI_HANDLER_COMPLEX(mode=0x03 - Load ext scheduler (OpCode 0x5B mode 0), ref=3708*, entity1=Unnamed NPC (ID: 17912010/0x011150CA), entity2=Unnamed NPC (ID: 17912010/0x011150CA), string="xxxx")
  2: 0x06B6 [0x5F] MULTI_HANDLER_COMPLEX(mode=0x03 - Load ext scheduler (OpCode 0x5B mode 0), ref=3435*, entity1=Unnamed NPC (ID: 17912004/0x011150C4), entity2=Unnamed NPC (ID: 17912004/0x011150C4), string="xxxx")
  3: 0x06C6 [0x00] END_REQSTACK()
```

### Event 65535.48

#### Metadata

| Field        | Value    |
|--------------|----------|
| Entrypoint   | 0x06C7   |
| Data Size    | 33 bytes |
| Instructions | 3        |

```
      00 01 02 03 04 05 06 07  08 09 0A 0B 0C 0D 0E 0F
      -- -- -- -- -- -- -- --  -- -- -- -- -- -- -- --
06C0:                      5F  03 1D 80 C4 50 11 01 C4         _....P...
06D0: 50 11 01 78 78 78 78 5F  03 2D 80 C8 50 11 01 C8  P..xxxx_.-..P...
06E0: 50 11 01 78 78 78 78 00                           P..xxxx.        
```

#### Opcodes

```
  0: 0x06C7 [0x5F] MULTI_HANDLER_COMPLEX(mode=0x03 - Load ext scheduler (OpCode 0x5B mode 0), ref=3435*, entity1=Unnamed NPC (ID: 17912004/0x011150C4), entity2=Unnamed NPC (ID: 17912004/0x011150C4), string="xxxx")
  1: 0x06D7 [0x5F] MULTI_HANDLER_COMPLEX(mode=0x03 - Load ext scheduler (OpCode 0x5B mode 0), ref=3681*, entity1=Hades (ID: 17912008/0x011150C8), entity2=Hades (ID: 17912008/0x011150C8), string="xxxx")
  2: 0x06E7 [0x00] END_REQSTACK()
```

### Event 65535.49

#### Metadata

| Field        | Value    |
|--------------|----------|
| Entrypoint   | 0x06E8   |
| Data Size    | 33 bytes |
| Instructions | 3        |

```
      00 01 02 03 04 05 06 07  08 09 0A 0B 0C 0D 0E 0F
      -- -- -- -- -- -- -- --  -- -- -- -- -- -- -- --
06E0:                          5F 03 1D 80 C4 50 11 01          _....P..
06F0: C4 50 11 01 78 78 78 78  5F 03 2E 80 CA 50 11 01  .P..xxxx_....P..
0700: CA 50 11 01 78 78 78 78  00                       .P..xxxx.       
```

#### Opcodes

```
  0: 0x06E8 [0x5F] MULTI_HANDLER_COMPLEX(mode=0x03 - Load ext scheduler (OpCode 0x5B mode 0), ref=3435*, entity1=Unnamed NPC (ID: 17912004/0x011150C4), entity2=Unnamed NPC (ID: 17912004/0x011150C4), string="xxxx")
  1: 0x06F8 [0x5F] MULTI_HANDLER_COMPLEX(mode=0x03 - Load ext scheduler (OpCode 0x5B mode 0), ref=3721*, entity1=Unnamed NPC (ID: 17912010/0x011150CA), entity2=Unnamed NPC (ID: 17912010/0x011150CA), string="xxxx")
  2: 0x0708 [0x00] END_REQSTACK()
```

### Event 65535.50

#### Metadata

| Field        | Value    |
|--------------|----------|
| Entrypoint   | 0x0709   |
| Data Size    | 49 bytes |
| Instructions | 4        |

```
      00 01 02 03 04 05 06 07  08 09 0A 0B 0C 0D 0E 0F
      -- -- -- -- -- -- -- --  -- -- -- -- -- -- -- --
0700:                             5F 03 1D 80 C4 50 11           _....P.
0710: 01 C4 50 11 01 78 78 78  78 5F 03 2F 80 C8 50 11  ..P..xxxx_./..P.
0720: 01 C8 50 11 01 78 78 78  78 5F 03 30 80 CA 50 11  ..P..xxxx_.0..P.
0730: 01 CA 50 11 01 78 78 78  78 00                    ..P..xxxx.      
```

#### Opcodes

```
  0: 0x0709 [0x5F] MULTI_HANDLER_COMPLEX(mode=0x03 - Load ext scheduler (OpCode 0x5B mode 0), ref=3435*, entity1=Unnamed NPC (ID: 17912004/0x011150C4), entity2=Unnamed NPC (ID: 17912004/0x011150C4), string="xxxx")
  1: 0x0719 [0x5F] MULTI_HANDLER_COMPLEX(mode=0x03 - Load ext scheduler (OpCode 0x5B mode 0), ref=3731*, entity1=Hades (ID: 17912008/0x011150C8), entity2=Hades (ID: 17912008/0x011150C8), string="xxxx")
  2: 0x0729 [0x5F] MULTI_HANDLER_COMPLEX(mode=0x03 - Load ext scheduler (OpCode 0x5B mode 0), ref=3722*, entity1=Unnamed NPC (ID: 17912010/0x011150CA), entity2=Unnamed NPC (ID: 17912010/0x011150CA), string="xxxx")
  3: 0x0739 [0x00] END_REQSTACK()
```

### Event 65535.51

#### Metadata

| Field        | Value    |
|--------------|----------|
| Entrypoint   | 0x073A   |
| Data Size    | 49 bytes |
| Instructions | 4        |

```
      00 01 02 03 04 05 06 07  08 09 0A 0B 0C 0D 0E 0F
      -- -- -- -- -- -- -- --  -- -- -- -- -- -- -- --
0730:                                5F 03 1D 80 C4 50            _....P
0740: 11 01 C4 50 11 01 78 78  78 78 5F 03 31 80 C8 50  ...P..xxxx_.1..P
0750: 11 01 C8 50 11 01 78 78  78 78 5F 03 32 80 CA 50  ...P..xxxx_.2..P
0760: 11 01 CA 50 11 01 78 78  78 78 00                 ...P..xxxx.     
```

#### Opcodes

```
  0: 0x073A [0x5F] MULTI_HANDLER_COMPLEX(mode=0x03 - Load ext scheduler (OpCode 0x5B mode 0), ref=3435*, entity1=Unnamed NPC (ID: 17912004/0x011150C4), entity2=Unnamed NPC (ID: 17912004/0x011150C4), string="xxxx")
  1: 0x074A [0x5F] MULTI_HANDLER_COMPLEX(mode=0x03 - Load ext scheduler (OpCode 0x5B mode 0), ref=3732*, entity1=Hades (ID: 17912008/0x011150C8), entity2=Hades (ID: 17912008/0x011150C8), string="xxxx")
  2: 0x075A [0x5F] MULTI_HANDLER_COMPLEX(mode=0x03 - Load ext scheduler (OpCode 0x5B mode 0), ref=3723*, entity1=Unnamed NPC (ID: 17912010/0x011150CA), entity2=Unnamed NPC (ID: 17912010/0x011150CA), string="xxxx")
  3: 0x076A [0x00] END_REQSTACK()
```

### Event 65535.52

#### Metadata

| Field        | Value    |
|--------------|----------|
| Entrypoint   | 0x076B   |
| Data Size    | 33 bytes |
| Instructions | 3        |

```
      00 01 02 03 04 05 06 07  08 09 0A 0B 0C 0D 0E 0F
      -- -- -- -- -- -- -- --  -- -- -- -- -- -- -- --
0760:                                   5F 03 33 80 C8             _.3..
0770: 50 11 01 C8 50 11 01 78  78 78 78 5F 03 34 80 CA  P...P..xxxx_.4..
0780: 50 11 01 CA 50 11 01 78  78 78 78 00              P...P..xxxx.    
```

#### Opcodes

```
  0: 0x076B [0x5F] MULTI_HANDLER_COMPLEX(mode=0x03 - Load ext scheduler (OpCode 0x5B mode 0), ref=3733*, entity1=Hades (ID: 17912008/0x011150C8), entity2=Hades (ID: 17912008/0x011150C8), string="xxxx")
  1: 0x077B [0x5F] MULTI_HANDLER_COMPLEX(mode=0x03 - Load ext scheduler (OpCode 0x5B mode 0), ref=3724*, entity1=Unnamed NPC (ID: 17912010/0x011150CA), entity2=Unnamed NPC (ID: 17912010/0x011150CA), string="xxxx")
  2: 0x078B [0x00] END_REQSTACK()
```

### Event 65535.53

#### Metadata

| Field        | Value    |
|--------------|----------|
| Entrypoint   | 0x078C   |
| Data Size    | 49 bytes |
| Instructions | 4        |

```
      00 01 02 03 04 05 06 07  08 09 0A 0B 0C 0D 0E 0F
      -- -- -- -- -- -- -- --  -- -- -- -- -- -- -- --
0780:                                      5F 03 1D 80              _...
0790: C4 50 11 01 C4 50 11 01  78 78 78 78 5F 03 33 80  .P...P..xxxx_.3.
07A0: C8 50 11 01 C8 50 11 01  78 78 78 78 5F 03 35 80  .P...P..xxxx_.5.
07B0: CA 50 11 01 CA 50 11 01  78 78 78 78 00           .P...P..xxxx.   
```

#### Opcodes

```
  0: 0x078C [0x5F] MULTI_HANDLER_COMPLEX(mode=0x03 - Load ext scheduler (OpCode 0x5B mode 0), ref=3435*, entity1=Unnamed NPC (ID: 17912004/0x011150C4), entity2=Unnamed NPC (ID: 17912004/0x011150C4), string="xxxx")
  1: 0x079C [0x5F] MULTI_HANDLER_COMPLEX(mode=0x03 - Load ext scheduler (OpCode 0x5B mode 0), ref=3733*, entity1=Hades (ID: 17912008/0x011150C8), entity2=Hades (ID: 17912008/0x011150C8), string="xxxx")
  2: 0x07AC [0x5F] MULTI_HANDLER_COMPLEX(mode=0x03 - Load ext scheduler (OpCode 0x5B mode 0), ref=3725*, entity1=Unnamed NPC (ID: 17912010/0x011150CA), entity2=Unnamed NPC (ID: 17912010/0x011150CA), string="xxxx")
  3: 0x07BC [0x00] END_REQSTACK()
```

### Event 65535.54

#### Metadata

| Field        | Value    |
|--------------|----------|
| Entrypoint   | 0x07BD   |
| Data Size    | 33 bytes |
| Instructions | 3        |

```
      00 01 02 03 04 05 06 07  08 09 0A 0B 0C 0D 0E 0F
      -- -- -- -- -- -- -- --  -- -- -- -- -- -- -- --
07B0:                                         5F 03 1D               _..
07C0: 80 C4 50 11 01 C4 50 11  01 78 78 78 78 5F 03 36  ..P...P..xxxx_.6
07D0: 80 CA 50 11 01 CA 50 11  01 78 78 78 78 00        ..P...P..xxxx.  
```

#### Opcodes

```
  0: 0x07BD [0x5F] MULTI_HANDLER_COMPLEX(mode=0x03 - Load ext scheduler (OpCode 0x5B mode 0), ref=3435*, entity1=Unnamed NPC (ID: 17912004/0x011150C4), entity2=Unnamed NPC (ID: 17912004/0x011150C4), string="xxxx")
  1: 0x07CD [0x5F] MULTI_HANDLER_COMPLEX(mode=0x03 - Load ext scheduler (OpCode 0x5B mode 0), ref=3727*, entity1=Unnamed NPC (ID: 17912010/0x011150CA), entity2=Unnamed NPC (ID: 17912010/0x011150CA), string="xxxx")
  2: 0x07DD [0x00] END_REQSTACK()
```

### Event 65535.55

#### Metadata

| Field        | Value    |
|--------------|----------|
| Entrypoint   | 0x07DE   |
| Data Size    | 49 bytes |
| Instructions | 4        |

```
      00 01 02 03 04 05 06 07  08 09 0A 0B 0C 0D 0E 0F
      -- -- -- -- -- -- -- --  -- -- -- -- -- -- -- --
07D0:                                            5F 03                _.
07E0: 1D 80 C4 50 11 01 C4 50  11 01 78 78 78 78 5F 03  ...P...P..xxxx_.
07F0: 36 80 CA 50 11 01 CA 50  11 01 78 78 78 78 5F 03  6..P...P..xxxx_.
0800: 37 80 C8 50 11 01 C8 50  11 01 78 78 78 78 00     7..P...P..xxxx. 
```

#### Opcodes

```
  0: 0x07DE [0x5F] MULTI_HANDLER_COMPLEX(mode=0x03 - Load ext scheduler (OpCode 0x5B mode 0), ref=3435*, entity1=Unnamed NPC (ID: 17912004/0x011150C4), entity2=Unnamed NPC (ID: 17912004/0x011150C4), string="xxxx")
  1: 0x07EE [0x5F] MULTI_HANDLER_COMPLEX(mode=0x03 - Load ext scheduler (OpCode 0x5B mode 0), ref=3727*, entity1=Unnamed NPC (ID: 17912010/0x011150CA), entity2=Unnamed NPC (ID: 17912010/0x011150CA), string="xxxx")
  2: 0x07FE [0x5F] MULTI_HANDLER_COMPLEX(mode=0x03 - Load ext scheduler (OpCode 0x5B mode 0), ref=3736*, entity1=Hades (ID: 17912008/0x011150C8), entity2=Hades (ID: 17912008/0x011150C8), string="xxxx")
  3: 0x080E [0x00] END_REQSTACK()
```

### Event 65535.56

#### Metadata

| Field        | Value    |
|--------------|----------|
| Entrypoint   | 0x080F   |
| Data Size    | 49 bytes |
| Instructions | 4        |

```
      00 01 02 03 04 05 06 07  08 09 0A 0B 0C 0D 0E 0F
      -- -- -- -- -- -- -- --  -- -- -- -- -- -- -- --
0800:                                               5F                 _
0810: 03 1D 80 C4 50 11 01 C4  50 11 01 78 78 78 78 5F  ....P...P..xxxx_
0820: 03 38 80 CA 50 11 01 CA  50 11 01 78 78 78 78 5F  .8..P...P..xxxx_
0830: 03 39 80 C8 50 11 01 C8  50 11 01 78 78 78 78 00  .9..P...P..xxxx.
```

#### Opcodes

```
  0: 0x080F [0x5F] MULTI_HANDLER_COMPLEX(mode=0x03 - Load ext scheduler (OpCode 0x5B mode 0), ref=3435*, entity1=Unnamed NPC (ID: 17912004/0x011150C4), entity2=Unnamed NPC (ID: 17912004/0x011150C4), string="xxxx")
  1: 0x081F [0x5F] MULTI_HANDLER_COMPLEX(mode=0x03 - Load ext scheduler (OpCode 0x5B mode 0), ref=3728*, entity1=Unnamed NPC (ID: 17912010/0x011150CA), entity2=Unnamed NPC (ID: 17912010/0x011150CA), string="xxxx")
  2: 0x082F [0x5F] MULTI_HANDLER_COMPLEX(mode=0x03 - Load ext scheduler (OpCode 0x5B mode 0), ref=3737*, entity1=Hades (ID: 17912008/0x011150C8), entity2=Hades (ID: 17912008/0x011150C8), string="xxxx")
  3: 0x083F [0x00] END_REQSTACK()
```

### Event 65535.57

#### Metadata

| Field        | Value    |
|--------------|----------|
| Entrypoint   | 0x0840   |
| Data Size    | 33 bytes |
| Instructions | 3        |

```
      00 01 02 03 04 05 06 07  08 09 0A 0B 0C 0D 0E 0F
      -- -- -- -- -- -- -- --  -- -- -- -- -- -- -- --
0840: 5F 03 33 80 C8 50 11 01  C8 50 11 01 78 78 78 78  _.3..P...P..xxxx
0850: 5F 03 35 80 CA 50 11 01  CA 50 11 01 78 78 78 78  _.5..P...P..xxxx
0860: 00                                                .               
```

#### Opcodes

```
  0: 0x0840 [0x5F] MULTI_HANDLER_COMPLEX(mode=0x03 - Load ext scheduler (OpCode 0x5B mode 0), ref=3733*, entity1=Hades (ID: 17912008/0x011150C8), entity2=Hades (ID: 17912008/0x011150C8), string="xxxx")
  1: 0x0850 [0x5F] MULTI_HANDLER_COMPLEX(mode=0x03 - Load ext scheduler (OpCode 0x5B mode 0), ref=3725*, entity1=Unnamed NPC (ID: 17912010/0x011150CA), entity2=Unnamed NPC (ID: 17912010/0x011150CA), string="xxxx")
  2: 0x0860 [0x00] END_REQSTACK()
```

### Event 65535.58

#### Metadata

| Field        | Value    |
|--------------|----------|
| Entrypoint   | 0x0861   |
| Data Size    | 49 bytes |
| Instructions | 4        |

```
      00 01 02 03 04 05 06 07  08 09 0A 0B 0C 0D 0E 0F
      -- -- -- -- -- -- -- --  -- -- -- -- -- -- -- --
0860:    5F 03 1D 80 C4 50 11  01 C4 50 11 01 78 78 78   _....P...P..xxx
0870: 78 5F 03 3A 80 C8 50 11  01 C8 50 11 01 78 78 78  x_.:..P...P..xxx
0880: 78 5F 03 3B 80 CA 50 11  01 CA 50 11 01 78 78 78  x_.;..P...P..xxx
0890: 78 00                                             x.              
```

#### Opcodes

```
  0: 0x0861 [0x5F] MULTI_HANDLER_COMPLEX(mode=0x03 - Load ext scheduler (OpCode 0x5B mode 0), ref=3435*, entity1=Unnamed NPC (ID: 17912004/0x011150C4), entity2=Unnamed NPC (ID: 17912004/0x011150C4), string="xxxx")
  1: 0x0871 [0x5F] MULTI_HANDLER_COMPLEX(mode=0x03 - Load ext scheduler (OpCode 0x5B mode 0), ref=3734*, entity1=Hades (ID: 17912008/0x011150C8), entity2=Hades (ID: 17912008/0x011150C8), string="xxxx")
  2: 0x0881 [0x5F] MULTI_HANDLER_COMPLEX(mode=0x03 - Load ext scheduler (OpCode 0x5B mode 0), ref=3726*, entity1=Unnamed NPC (ID: 17912010/0x011150CA), entity2=Unnamed NPC (ID: 17912010/0x011150CA), string="xxxx")
  3: 0x0891 [0x00] END_REQSTACK()
```

### Event 65535.59

#### Metadata

| Field        | Value    |
|--------------|----------|
| Entrypoint   | 0x0892   |
| Data Size    | 33 bytes |
| Instructions | 3        |

```
      00 01 02 03 04 05 06 07  08 09 0A 0B 0C 0D 0E 0F
      -- -- -- -- -- -- -- --  -- -- -- -- -- -- -- --
0890:       5F 03 1D 80 C4 50  11 01 C4 50 11 01 78 78    _....P...P..xx
08A0: 78 78 5F 03 3C 80 CB 50  11 01 CB 50 11 01 78 78  xx_.<..P...P..xx
08B0: 78 78 00                                          xx.             
```

#### Opcodes

```
  0: 0x0892 [0x5F] MULTI_HANDLER_COMPLEX(mode=0x03 - Load ext scheduler (OpCode 0x5B mode 0), ref=3435*, entity1=Unnamed NPC (ID: 17912004/0x011150C4), entity2=Unnamed NPC (ID: 17912004/0x011150C4), string="xxxx")
  1: 0x08A2 [0x5F] MULTI_HANDLER_COMPLEX(mode=0x03 - Load ext scheduler (OpCode 0x5B mode 0), ref=3712*, entity1=Unnamed NPC (ID: 17912011/0x011150CB), entity2=Unnamed NPC (ID: 17912011/0x011150CB), string="xxxx")
  2: 0x08B2 [0x00] END_REQSTACK()
```

### Event 65535.60

#### Metadata

| Field        | Value    |
|--------------|----------|
| Entrypoint   | 0x08B3   |
| Data Size    | 33 bytes |
| Instructions | 3        |

```
      00 01 02 03 04 05 06 07  08 09 0A 0B 0C 0D 0E 0F
      -- -- -- -- -- -- -- --  -- -- -- -- -- -- -- --
08B0:          5F 03 3D 80 CC  50 11 01 CC 50 11 01 78     _.=..P...P..x
08C0: 78 78 78 5F 03 3E 80 C8  50 11 01 C8 50 11 01 78  xxx_.>..P...P..x
08D0: 78 78 78 00                                       xxx.            
```

#### Opcodes

```
  0: 0x08B3 [0x5F] MULTI_HANDLER_COMPLEX(mode=0x03 - Load ext scheduler (OpCode 0x5B mode 0), ref=3695*, entity1=Unnamed NPC (ID: 17912012/0x011150CC), entity2=Unnamed NPC (ID: 17912012/0x011150CC), string="xxxx")
  1: 0x08C3 [0x5F] MULTI_HANDLER_COMPLEX(mode=0x03 - Load ext scheduler (OpCode 0x5B mode 0), ref=3738*, entity1=Hades (ID: 17912008/0x011150C8), entity2=Hades (ID: 17912008/0x011150C8), string="xxxx")
  2: 0x08D3 [0x00] END_REQSTACK()
```

### Event 65535.61

#### Metadata

| Field        | Value    |
|--------------|----------|
| Entrypoint   | 0x08D4   |
| Data Size    | 49 bytes |
| Instructions | 4        |

```
      00 01 02 03 04 05 06 07  08 09 0A 0B 0C 0D 0E 0F
      -- -- -- -- -- -- -- --  -- -- -- -- -- -- -- --
08D0:             5F 03 3F 80  CB 50 11 01 CB 50 11 01      _.?..P...P..
08E0: 78 78 78 78 5F 03 40 80  C6 50 11 01 C6 50 11 01  xxxx_.@..P...P..
08F0: 78 78 78 78 5F 03 41 80  CA 50 11 01 CA 50 11 01  xxxx_.A..P...P..
0900: 78 78 78 78 00                                    xxxx.           
```

#### Opcodes

```
  0: 0x08D4 [0x5F] MULTI_HANDLER_COMPLEX(mode=0x03 - Load ext scheduler (OpCode 0x5B mode 0), ref=3716*, entity1=Unnamed NPC (ID: 17912011/0x011150CB), entity2=Unnamed NPC (ID: 17912011/0x011150CB), string="xxxx")
  1: 0x08E4 [0x5F] MULTI_HANDLER_COMPLEX(mode=0x03 - Load ext scheduler (OpCode 0x5B mode 0), ref=3690*, entity1=Arciela (ID: 17912006/0x011150C6), entity2=Arciela (ID: 17912006/0x011150C6), string="xxxx")
  2: 0x08F4 [0x5F] MULTI_HANDLER_COMPLEX(mode=0x03 - Load ext scheduler (OpCode 0x5B mode 0), ref=3760*, entity1=Unnamed NPC (ID: 17912010/0x011150CA), entity2=Unnamed NPC (ID: 17912010/0x011150CA), string="xxxx")
  3: 0x0904 [0x00] END_REQSTACK()
```

### Event 65535.62

#### Metadata

| Field        | Value    |
|--------------|----------|
| Entrypoint   | 0x0905   |
| Data Size    | 65 bytes |
| Instructions | 5        |

```
      00 01 02 03 04 05 06 07  08 09 0A 0B 0C 0D 0E 0F
      -- -- -- -- -- -- -- --  -- -- -- -- -- -- -- --
0900:                5F 03 42  80 C4 50 11 01 C4 50 11       _.B..P...P.
0910: 01 78 78 78 78 5F 03 43  80 CB 50 11 01 CB 50 11  .xxxx_.C..P...P.
0920: 01 78 78 78 78 5F 03 40  80 C6 50 11 01 C6 50 11  .xxxx_.@..P...P.
0930: 01 78 78 78 78 5F 03 41  80 CA 50 11 01 CA 50 11  .xxxx_.A..P...P.
0940: 01 78 78 78 78 00                                 .xxxx.          
```

#### Opcodes

```
  0: 0x0905 [0x5F] MULTI_HANDLER_COMPLEX(mode=0x03 - Load ext scheduler (OpCode 0x5B mode 0), ref=3436*, entity1=Unnamed NPC (ID: 17912004/0x011150C4), entity2=Unnamed NPC (ID: 17912004/0x011150C4), string="xxxx")
  1: 0x0915 [0x5F] MULTI_HANDLER_COMPLEX(mode=0x03 - Load ext scheduler (OpCode 0x5B mode 0), ref=3718*, entity1=Unnamed NPC (ID: 17912011/0x011150CB), entity2=Unnamed NPC (ID: 17912011/0x011150CB), string="xxxx")
  2: 0x0925 [0x5F] MULTI_HANDLER_COMPLEX(mode=0x03 - Load ext scheduler (OpCode 0x5B mode 0), ref=3690*, entity1=Arciela (ID: 17912006/0x011150C6), entity2=Arciela (ID: 17912006/0x011150C6), string="xxxx")
  3: 0x0935 [0x5F] MULTI_HANDLER_COMPLEX(mode=0x03 - Load ext scheduler (OpCode 0x5B mode 0), ref=3760*, entity1=Unnamed NPC (ID: 17912010/0x011150CA), entity2=Unnamed NPC (ID: 17912010/0x011150CA), string="xxxx")
  4: 0x0945 [0x00] END_REQSTACK()
```

### Event 65535.63

#### Metadata

| Field        | Value    |
|--------------|----------|
| Entrypoint   | 0x0946   |
| Data Size    | 33 bytes |
| Instructions | 3        |

```
      00 01 02 03 04 05 06 07  08 09 0A 0B 0C 0D 0E 0F
      -- -- -- -- -- -- -- --  -- -- -- -- -- -- -- --
0940:                   5F 03  42 80 C4 50 11 01 C4 50        _.B..P...P
0950: 11 01 78 78 78 78 5F 03  43 80 CB 50 11 01 CB 50  ..xxxx_.C..P...P
0960: 11 01 78 78 78 78 00                              ..xxxx.         
```

#### Opcodes

```
  0: 0x0946 [0x5F] MULTI_HANDLER_COMPLEX(mode=0x03 - Load ext scheduler (OpCode 0x5B mode 0), ref=3436*, entity1=Unnamed NPC (ID: 17912004/0x011150C4), entity2=Unnamed NPC (ID: 17912004/0x011150C4), string="xxxx")
  1: 0x0956 [0x5F] MULTI_HANDLER_COMPLEX(mode=0x03 - Load ext scheduler (OpCode 0x5B mode 0), ref=3718*, entity1=Unnamed NPC (ID: 17912011/0x011150CB), entity2=Unnamed NPC (ID: 17912011/0x011150CB), string="xxxx")
  2: 0x0966 [0x00] END_REQSTACK()
```

### Event 65535.64

#### Metadata

| Field        | Value    |
|--------------|----------|
| Entrypoint   | 0x0967   |
| Data Size    | 49 bytes |
| Instructions | 4        |

```
      00 01 02 03 04 05 06 07  08 09 0A 0B 0C 0D 0E 0F
      -- -- -- -- -- -- -- --  -- -- -- -- -- -- -- --
0960:                      5F  03 1D 80 C4 50 11 01 C4         _....P...
0970: 50 11 01 78 78 78 78 5F  03 31 80 C8 50 11 01 C8  P..xxxx_.1..P...
0980: 50 11 01 78 78 78 78 5F  03 32 80 CC 50 11 01 CC  P..xxxx_.2..P...
0990: 50 11 01 78 78 78 78 00                           P..xxxx.        
```

#### Opcodes

```
  0: 0x0967 [0x5F] MULTI_HANDLER_COMPLEX(mode=0x03 - Load ext scheduler (OpCode 0x5B mode 0), ref=3435*, entity1=Unnamed NPC (ID: 17912004/0x011150C4), entity2=Unnamed NPC (ID: 17912004/0x011150C4), string="xxxx")
  1: 0x0977 [0x5F] MULTI_HANDLER_COMPLEX(mode=0x03 - Load ext scheduler (OpCode 0x5B mode 0), ref=3732*, entity1=Hades (ID: 17912008/0x011150C8), entity2=Hades (ID: 17912008/0x011150C8), string="xxxx")
  2: 0x0987 [0x5F] MULTI_HANDLER_COMPLEX(mode=0x03 - Load ext scheduler (OpCode 0x5B mode 0), ref=3723*, entity1=Unnamed NPC (ID: 17912012/0x011150CC), entity2=Unnamed NPC (ID: 17912012/0x011150CC), string="xxxx")
  3: 0x0997 [0x00] END_REQSTACK()
```

### Event 65535.65

#### Metadata

| Field        | Value    |
|--------------|----------|
| Entrypoint   | 0x0998   |
| Data Size    | 65 bytes |
| Instructions | 5        |

```
      00 01 02 03 04 05 06 07  08 09 0A 0B 0C 0D 0E 0F
      -- -- -- -- -- -- -- --  -- -- -- -- -- -- -- --
0990:                          5F 03 42 80 C4 50 11 01          _.B..P..
09A0: C4 50 11 01 78 78 78 78  5F 03 44 80 CB 50 11 01  .P..xxxx_.D..P..
09B0: CB 50 11 01 78 78 78 78  5F 03 40 80 C6 50 11 01  .P..xxxx_.@..P..
09C0: C6 50 11 01 78 78 78 78  5F 03 41 80 CA 50 11 01  .P..xxxx_.A..P..
09D0: CA 50 11 01 78 78 78 78  00                       .P..xxxx.       
```

#### Opcodes

```
  0: 0x0998 [0x5F] MULTI_HANDLER_COMPLEX(mode=0x03 - Load ext scheduler (OpCode 0x5B mode 0), ref=3436*, entity1=Unnamed NPC (ID: 17912004/0x011150C4), entity2=Unnamed NPC (ID: 17912004/0x011150C4), string="xxxx")
  1: 0x09A8 [0x5F] MULTI_HANDLER_COMPLEX(mode=0x03 - Load ext scheduler (OpCode 0x5B mode 0), ref=3739*, entity1=Unnamed NPC (ID: 17912011/0x011150CB), entity2=Unnamed NPC (ID: 17912011/0x011150CB), string="xxxx")
  2: 0x09B8 [0x5F] MULTI_HANDLER_COMPLEX(mode=0x03 - Load ext scheduler (OpCode 0x5B mode 0), ref=3690*, entity1=Arciela (ID: 17912006/0x011150C6), entity2=Arciela (ID: 17912006/0x011150C6), string="xxxx")
  3: 0x09C8 [0x5F] MULTI_HANDLER_COMPLEX(mode=0x03 - Load ext scheduler (OpCode 0x5B mode 0), ref=3760*, entity1=Unnamed NPC (ID: 17912010/0x011150CA), entity2=Unnamed NPC (ID: 17912010/0x011150CA), string="xxxx")
  4: 0x09D8 [0x00] END_REQSTACK()
```

### Event 65535.66

#### Metadata

| Field        | Value    |
|--------------|----------|
| Entrypoint   | 0x09D9   |
| Data Size    | 33 bytes |
| Instructions | 3        |

```
      00 01 02 03 04 05 06 07  08 09 0A 0B 0C 0D 0E 0F
      -- -- -- -- -- -- -- --  -- -- -- -- -- -- -- --
09D0:                             5F 03 3A 80 C8 50 11           _.:..P.
09E0: 01 C8 50 11 01 78 78 78  78 5F 03 45 80 CA 50 11  ..P..xxxx_.E..P.
09F0: 01 CA 50 11 01 78 78 78  78 00                    ..P..xxxx.      
```

#### Opcodes

```
  0: 0x09D9 [0x5F] MULTI_HANDLER_COMPLEX(mode=0x03 - Load ext scheduler (OpCode 0x5B mode 0), ref=3734*, entity1=Hades (ID: 17912008/0x011150C8), entity2=Hades (ID: 17912008/0x011150C8), string="xxxx")
  1: 0x09E9 [0x5F] MULTI_HANDLER_COMPLEX(mode=0x03 - Load ext scheduler (OpCode 0x5B mode 0), ref=3761*, entity1=Unnamed NPC (ID: 17912010/0x011150CA), entity2=Unnamed NPC (ID: 17912010/0x011150CA), string="xxxx")
  2: 0x09F9 [0x00] END_REQSTACK()
```

### Event 65535.67

#### Metadata

| Field        | Value     |
|--------------|-----------|
| Entrypoint   | 0x09FA    |
| Data Size    | 225 bytes |
| Instructions | 15        |

```
      00 01 02 03 04 05 06 07  08 09 0A 0B 0C 0D 0E 0F
      -- -- -- -- -- -- -- --  -- -- -- -- -- -- -- --
09F0:                                5F 03 42 80 C4 50            _.B..P
0A00: 11 01 C4 50 11 01 78 78  78 78 5F 03 46 80 CB 50  ...P..xxxx_.F..P
0A10: 11 01 CB 50 11 01 78 78  78 78 5F 03 47 80 CA 50  ...P..xxxx_.G..P
0A20: 11 01 CA 50 11 01 78 78  78 78 5F 03 48 80 C9 50  ...P..xxxx_.H..P
0A30: 11 01 C9 50 11 01 78 78  78 78 5F 03 42 80 C5 50  ...P..xxxx_.B..P
0A40: 11 01 C5 50 11 01 78 78  78 78 5F 03 46 80 CE 50  ...P..xxxx_.F..P
0A50: 11 01 CE 50 11 01 78 78  78 78 5F 03 47 80 CD 50  ...P..xxxx_.G..P
0A60: 11 01 CD 50 11 01 78 78  78 78 5F 03 48 80 CC 50  ...P..xxxx_.H..P
0A70: 11 01 CC 50 11 01 78 78  78 78 5F 03 49 80 CD 50  ...P..xxxx_.I..P
0A80: 11 01 CD 50 11 01 78 78  78 78 5F 03 4A 80 CC 50  ...P..xxxx_.J..P
0A90: 11 01 CC 50 11 01 78 78  78 78 5F 03 4B 80 CD 50  ...P..xxxx_.K..P
0AA0: 11 01 CD 50 11 01 78 78  78 78 5F 03 4C 80 CC 50  ...P..xxxx_.L..P
0AB0: 11 01 CC 50 11 01 78 78  78 78 5F 03 4D 80 CD 50  ...P..xxxx_.M..P
0AC0: 11 01 CD 50 11 01 78 78  78 78 5F 03 4E 80 CC 50  ...P..xxxx_.N..P
0AD0: 11 01 CC 50 11 01 78 78  78 78 00                 ...P..xxxx.     
```

#### Opcodes

```
  0: 0x09FA [0x5F] MULTI_HANDLER_COMPLEX(mode=0x03 - Load ext scheduler (OpCode 0x5B mode 0), ref=3436*, entity1=Unnamed NPC (ID: 17912004/0x011150C4), entity2=Unnamed NPC (ID: 17912004/0x011150C4), string="xxxx")
  1: 0x0A0A [0x5F] MULTI_HANDLER_COMPLEX(mode=0x03 - Load ext scheduler (OpCode 0x5B mode 0), ref=3614*, entity1=Unnamed NPC (ID: 17912011/0x011150CB), entity2=Unnamed NPC (ID: 17912011/0x011150CB), string="xxxx")
  2: 0x0A1A [0x5F] MULTI_HANDLER_COMPLEX(mode=0x03 - Load ext scheduler (OpCode 0x5B mode 0), ref=3707*, entity1=Unnamed NPC (ID: 17912010/0x011150CA), entity2=Unnamed NPC (ID: 17912010/0x011150CA), string="xxxx")
  3: 0x0A2A [0x5F] MULTI_HANDLER_COMPLEX(mode=0x03 - Load ext scheduler (OpCode 0x5B mode 0), ref=3713*, entity1=Unnamed NPC (ID: 17912009/0x011150C9), entity2=Unnamed NPC (ID: 17912009/0x011150C9), string="xxxx")
  4: 0x0A3A [0x5F] MULTI_HANDLER_COMPLEX(mode=0x03 - Load ext scheduler (OpCode 0x5B mode 0), ref=3436*, entity1=Unnamed NPC (ID: 17912005/0x011150C5), entity2=Unnamed NPC (ID: 17912005/0x011150C5), string="xxxx")
  5: 0x0A4A [0x5F] MULTI_HANDLER_COMPLEX(mode=0x03 - Load ext scheduler (OpCode 0x5B mode 0), ref=3614*, entity1=Unnamed NPC (ID: 17912014/0x011150CE), entity2=Unnamed NPC (ID: 17912014/0x011150CE), string="xxxx")
  6: 0x0A5A [0x5F] MULTI_HANDLER_COMPLEX(mode=0x03 - Load ext scheduler (OpCode 0x5B mode 0), ref=3707*, entity1=Unnamed NPC (ID: 17912013/0x011150CD), entity2=Unnamed NPC (ID: 17912013/0x011150CD), string="xxxx")
  7: 0x0A6A [0x5F] MULTI_HANDLER_COMPLEX(mode=0x03 - Load ext scheduler (OpCode 0x5B mode 0), ref=3713*, entity1=Unnamed NPC (ID: 17912012/0x011150CC), entity2=Unnamed NPC (ID: 17912012/0x011150CC), string="xxxx")
  8: 0x0A7A [0x5F] MULTI_HANDLER_COMPLEX(mode=0x03 - Load ext scheduler (OpCode 0x5B mode 0), ref=3764*, entity1=Unnamed NPC (ID: 17912013/0x011150CD), entity2=Unnamed NPC (ID: 17912013/0x011150CD), string="xxxx")
  9: 0x0A8A [0x5F] MULTI_HANDLER_COMPLEX(mode=0x03 - Load ext scheduler (OpCode 0x5B mode 0), ref=3740*, entity1=Unnamed NPC (ID: 17912012/0x011150CC), entity2=Unnamed NPC (ID: 17912012/0x011150CC), string="xxxx")
 10: 0x0A9A [0x5F] MULTI_HANDLER_COMPLEX(mode=0x03 - Load ext scheduler (OpCode 0x5B mode 0), ref=3765*, entity1=Unnamed NPC (ID: 17912013/0x011150CD), entity2=Unnamed NPC (ID: 17912013/0x011150CD), string="xxxx")
 11: 0x0AAA [0x5F] MULTI_HANDLER_COMPLEX(mode=0x03 - Load ext scheduler (OpCode 0x5B mode 0), ref=3741*, entity1=Unnamed NPC (ID: 17912012/0x011150CC), entity2=Unnamed NPC (ID: 17912012/0x011150CC), string="xxxx")
 12: 0x0ABA [0x5F] MULTI_HANDLER_COMPLEX(mode=0x03 - Load ext scheduler (OpCode 0x5B mode 0), ref=3766*, entity1=Unnamed NPC (ID: 17912013/0x011150CD), entity2=Unnamed NPC (ID: 17912013/0x011150CD), string="xxxx")
 13: 0x0ACA [0x5F] MULTI_HANDLER_COMPLEX(mode=0x03 - Load ext scheduler (OpCode 0x5B mode 0), ref=3742*, entity1=Unnamed NPC (ID: 17912012/0x011150CC), entity2=Unnamed NPC (ID: 17912012/0x011150CC), string="xxxx")
 14: 0x0ADA [0x00] END_REQSTACK()
```

### Event 65535.68

#### Metadata

| Field        | Value     |
|--------------|-----------|
| Entrypoint   | 0x0ADB    |
| Data Size    | 129 bytes |
| Instructions | 9         |

```
      00 01 02 03 04 05 06 07  08 09 0A 0B 0C 0D 0E 0F
      -- -- -- -- -- -- -- --  -- -- -- -- -- -- -- --
0AD0:                                   5F 03 42 80 C4             _.B..
0AE0: 50 11 01 C4 50 11 01 78  78 78 78 5F 03 4F 80 CB  P...P..xxxx_.O..
0AF0: 50 11 01 CB 50 11 01 78  78 78 78 5F 03 50 80 CA  P...P..xxxx_.P..
0B00: 50 11 01 CA 50 11 01 78  78 78 78 5F 03 51 80 C9  P...P..xxxx_.Q..
0B10: 50 11 01 C9 50 11 01 78  78 78 78 5F 03 42 80 C5  P...P..xxxx_.B..
0B20: 50 11 01 C5 50 11 01 78  78 78 78 5F 03 4F 80 CE  P...P..xxxx_.O..
0B30: 50 11 01 CE 50 11 01 78  78 78 78 5F 03 50 80 CD  P...P..xxxx_.P..
0B40: 50 11 01 CD 50 11 01 78  78 78 78 5F 03 51 80 CC  P...P..xxxx_.Q..
0B50: 50 11 01 CC 50 11 01 78  78 78 78 00              P...P..xxxx.    
```

#### Opcodes

```
  0: 0x0ADB [0x5F] MULTI_HANDLER_COMPLEX(mode=0x03 - Load ext scheduler (OpCode 0x5B mode 0), ref=3436*, entity1=Unnamed NPC (ID: 17912004/0x011150C4), entity2=Unnamed NPC (ID: 17912004/0x011150C4), string="xxxx")
  1: 0x0AEB [0x5F] MULTI_HANDLER_COMPLEX(mode=0x03 - Load ext scheduler (OpCode 0x5B mode 0), ref=3615*, entity1=Unnamed NPC (ID: 17912011/0x011150CB), entity2=Unnamed NPC (ID: 17912011/0x011150CB), string="xxxx")
  2: 0x0AFB [0x5F] MULTI_HANDLER_COMPLEX(mode=0x03 - Load ext scheduler (OpCode 0x5B mode 0), ref=3768*, entity1=Unnamed NPC (ID: 17912010/0x011150CA), entity2=Unnamed NPC (ID: 17912010/0x011150CA), string="xxxx")
  3: 0x0B0B [0x5F] MULTI_HANDLER_COMPLEX(mode=0x03 - Load ext scheduler (OpCode 0x5B mode 0), ref=3744*, entity1=Unnamed NPC (ID: 17912009/0x011150C9), entity2=Unnamed NPC (ID: 17912009/0x011150C9), string="xxxx")
  4: 0x0B1B [0x5F] MULTI_HANDLER_COMPLEX(mode=0x03 - Load ext scheduler (OpCode 0x5B mode 0), ref=3436*, entity1=Unnamed NPC (ID: 17912005/0x011150C5), entity2=Unnamed NPC (ID: 17912005/0x011150C5), string="xxxx")
  5: 0x0B2B [0x5F] MULTI_HANDLER_COMPLEX(mode=0x03 - Load ext scheduler (OpCode 0x5B mode 0), ref=3615*, entity1=Unnamed NPC (ID: 17912014/0x011150CE), entity2=Unnamed NPC (ID: 17912014/0x011150CE), string="xxxx")
  6: 0x0B3B [0x5F] MULTI_HANDLER_COMPLEX(mode=0x03 - Load ext scheduler (OpCode 0x5B mode 0), ref=3768*, entity1=Unnamed NPC (ID: 17912013/0x011150CD), entity2=Unnamed NPC (ID: 17912013/0x011150CD), string="xxxx")
  7: 0x0B4B [0x5F] MULTI_HANDLER_COMPLEX(mode=0x03 - Load ext scheduler (OpCode 0x5B mode 0), ref=3744*, entity1=Unnamed NPC (ID: 17912012/0x011150CC), entity2=Unnamed NPC (ID: 17912012/0x011150CC), string="xxxx")
  8: 0x0B5B [0x00] END_REQSTACK()
```

### Event 65535.69

#### Metadata

| Field        | Value    |
|--------------|----------|
| Entrypoint   | 0x0B5C   |
| Data Size    | 33 bytes |
| Instructions | 3        |

```
      00 01 02 03 04 05 06 07  08 09 0A 0B 0C 0D 0E 0F
      -- -- -- -- -- -- -- --  -- -- -- -- -- -- -- --
0B50:                                      5F 03 52 80              _.R.
0B60: CA 50 11 01 CA 50 11 01  78 78 78 78 5F 03 53 80  .P...P..xxxx_.S.
0B70: C9 50 11 01 C9 50 11 01  78 78 78 78 00           .P...P..xxxx.   
```

#### Opcodes

```
  0: 0x0B5C [0x5F] MULTI_HANDLER_COMPLEX(mode=0x03 - Load ext scheduler (OpCode 0x5B mode 0), ref=3767*, entity1=Unnamed NPC (ID: 17912010/0x011150CA), entity2=Unnamed NPC (ID: 17912010/0x011150CA), string="xxxx")
  1: 0x0B6C [0x5F] MULTI_HANDLER_COMPLEX(mode=0x03 - Load ext scheduler (OpCode 0x5B mode 0), ref=3743*, entity1=Unnamed NPC (ID: 17912009/0x011150C9), entity2=Unnamed NPC (ID: 17912009/0x011150C9), string="xxxx")
  2: 0x0B7C [0x00] END_REQSTACK()
```

### Event 65535.70

#### Metadata

| Field        | Value    |
|--------------|----------|
| Entrypoint   | 0x0B7D   |
| Data Size    | 33 bytes |
| Instructions | 3        |

```
      00 01 02 03 04 05 06 07  08 09 0A 0B 0C 0D 0E 0F
      -- -- -- -- -- -- -- --  -- -- -- -- -- -- -- --
0B70:                                         5F 03 54               _.T
0B80: 80 C8 50 11 01 C8 50 11  01 78 78 78 78 5F 03 55  ..P...P..xxxx_.U
0B90: 80 CA 50 11 01 CA 50 11  01 78 78 78 78 00        ..P...P..xxxx.  
```

#### Opcodes

```
  0: 0x0B7D [0x5F] MULTI_HANDLER_COMPLEX(mode=0x03 - Load ext scheduler (OpCode 0x5B mode 0), ref=3785*, entity1=Hades (ID: 17912008/0x011150C8), entity2=Hades (ID: 17912008/0x011150C8), string="xxxx")
  1: 0x0B8D [0x5F] MULTI_HANDLER_COMPLEX(mode=0x03 - Load ext scheduler (OpCode 0x5B mode 0), ref=3769*, entity1=Unnamed NPC (ID: 17912010/0x011150CA), entity2=Unnamed NPC (ID: 17912010/0x011150CA), string="xxxx")
  2: 0x0B9D [0x00] END_REQSTACK()
```

### Event 65535.71

#### Metadata

| Field        | Value    |
|--------------|----------|
| Entrypoint   | 0x0B9E   |
| Data Size    | 49 bytes |
| Instructions | 4        |

```
      00 01 02 03 04 05 06 07  08 09 0A 0B 0C 0D 0E 0F
      -- -- -- -- -- -- -- --  -- -- -- -- -- -- -- --
0B90:                                            5F 03                _.
0BA0: 42 80 C4 50 11 01 C4 50  11 01 78 78 78 78 5F 03  B..P...P..xxxx_.
0BB0: 54 80 C8 50 11 01 C8 50  11 01 78 78 78 78 5F 03  T..P...P..xxxx_.
0BC0: 55 80 CA 50 11 01 CA 50  11 01 78 78 78 78 00     U..P...P..xxxx. 
```

#### Opcodes

```
  0: 0x0B9E [0x5F] MULTI_HANDLER_COMPLEX(mode=0x03 - Load ext scheduler (OpCode 0x5B mode 0), ref=3436*, entity1=Unnamed NPC (ID: 17912004/0x011150C4), entity2=Unnamed NPC (ID: 17912004/0x011150C4), string="xxxx")
  1: 0x0BAE [0x5F] MULTI_HANDLER_COMPLEX(mode=0x03 - Load ext scheduler (OpCode 0x5B mode 0), ref=3785*, entity1=Hades (ID: 17912008/0x011150C8), entity2=Hades (ID: 17912008/0x011150C8), string="xxxx")
  2: 0x0BBE [0x5F] MULTI_HANDLER_COMPLEX(mode=0x03 - Load ext scheduler (OpCode 0x5B mode 0), ref=3769*, entity1=Unnamed NPC (ID: 17912010/0x011150CA), entity2=Unnamed NPC (ID: 17912010/0x011150CA), string="xxxx")
  3: 0x0BCE [0x00] END_REQSTACK()
```

### Event 65535.72

#### Metadata

| Field        | Value    |
|--------------|----------|
| Entrypoint   | 0x0BCF   |
| Data Size    | 33 bytes |
| Instructions | 3        |

```
      00 01 02 03 04 05 06 07  08 09 0A 0B 0C 0D 0E 0F
      -- -- -- -- -- -- -- --  -- -- -- -- -- -- -- --
0BC0:                                               5F                 _
0BD0: 03 54 80 C8 50 11 01 C8  50 11 01 78 78 78 78 5F  .T..P...P..xxxx_
0BE0: 03 56 80 CA 50 11 01 CA  50 11 01 78 78 78 78 00  .V..P...P..xxxx.
```

#### Opcodes

```
  0: 0x0BCF [0x5F] MULTI_HANDLER_COMPLEX(mode=0x03 - Load ext scheduler (OpCode 0x5B mode 0), ref=3785*, entity1=Hades (ID: 17912008/0x011150C8), entity2=Hades (ID: 17912008/0x011150C8), string="xxxx")
  1: 0x0BDF [0x5F] MULTI_HANDLER_COMPLEX(mode=0x03 - Load ext scheduler (OpCode 0x5B mode 0), ref=3770*, entity1=Unnamed NPC (ID: 17912010/0x011150CA), entity2=Unnamed NPC (ID: 17912010/0x011150CA), string="xxxx")
  2: 0x0BEF [0x00] END_REQSTACK()
```

### Event 65535.73

#### Metadata

| Field        | Value    |
|--------------|----------|
| Entrypoint   | 0x0BF0   |
| Data Size    | 33 bytes |
| Instructions | 3        |

```
      00 01 02 03 04 05 06 07  08 09 0A 0B 0C 0D 0E 0F
      -- -- -- -- -- -- -- --  -- -- -- -- -- -- -- --
0BF0: 5F 03 57 80 C8 50 11 01  C8 50 11 01 78 78 78 78  _.W..P...P..xxxx
0C00: 5F 03 58 80 CA 50 11 01  CA 50 11 01 78 78 78 78  _.X..P...P..xxxx
0C10: 00                                                .               
```

#### Opcodes

```
  0: 0x0BF0 [0x5F] MULTI_HANDLER_COMPLEX(mode=0x03 - Load ext scheduler (OpCode 0x5B mode 0), ref=3786*, entity1=Hades (ID: 17912008/0x011150C8), entity2=Hades (ID: 17912008/0x011150C8), string="xxxx")
  1: 0x0C00 [0x5F] MULTI_HANDLER_COMPLEX(mode=0x03 - Load ext scheduler (OpCode 0x5B mode 0), ref=3771*, entity1=Unnamed NPC (ID: 17912010/0x011150CA), entity2=Unnamed NPC (ID: 17912010/0x011150CA), string="xxxx")
  2: 0x0C10 [0x00] END_REQSTACK()
```

### Event 65535.74

#### Metadata

| Field        | Value    |
|--------------|----------|
| Entrypoint   | 0x0C11   |
| Data Size    | 33 bytes |
| Instructions | 3        |

```
      00 01 02 03 04 05 06 07  08 09 0A 0B 0C 0D 0E 0F
      -- -- -- -- -- -- -- --  -- -- -- -- -- -- -- --
0C10:    5F 03 59 80 CE 50 11  01 CE 50 11 01 78 78 78   _.Y..P...P..xxx
0C20: 78 5F 03 5A 80 CA 50 11  01 CA 50 11 01 78 78 78  x_.Z..P...P..xxx
0C30: 78 00                                             x.              
```

#### Opcodes

```
  0: 0x0C11 [0x5F] MULTI_HANDLER_COMPLEX(mode=0x03 - Load ext scheduler (OpCode 0x5B mode 0), ref=3699*, entity1=Unnamed NPC (ID: 17912014/0x011150CE), entity2=Unnamed NPC (ID: 17912014/0x011150CE), string="xxxx")
  1: 0x0C21 [0x5F] MULTI_HANDLER_COMPLEX(mode=0x03 - Load ext scheduler (OpCode 0x5B mode 0), ref=3773*, entity1=Unnamed NPC (ID: 17912010/0x011150CA), entity2=Unnamed NPC (ID: 17912010/0x011150CA), string="xxxx")
  2: 0x0C31 [0x00] END_REQSTACK()
```

### Event 65535.75

#### Metadata

| Field        | Value    |
|--------------|----------|
| Entrypoint   | 0x0C32   |
| Data Size    | 49 bytes |
| Instructions | 4        |

```
      00 01 02 03 04 05 06 07  08 09 0A 0B 0C 0D 0E 0F
      -- -- -- -- -- -- -- --  -- -- -- -- -- -- -- --
0C30:       5F 03 42 80 C5 50  11 01 C5 50 11 01 78 78    _.B..P...P..xx
0C40: 78 78 5F 03 49 80 CD 50  11 01 CD 50 11 01 78 78  xx_.I..P...P..xx
0C50: 78 78 5F 03 4A 80 CC 50  11 01 CC 50 11 01 78 78  xx_.J..P...P..xx
0C60: 78 78 00                                          xx.             
```

#### Opcodes

```
