# 0x7FFFFFF0 - Zone Events

## Common Data

| Field            | Value                      |
|------------------|----------------------------|
| Zone             | Ra'Kaznar Turris (ID: 277) |
| Block Size       | 6600 bytes                 |
| Total Events     | 57                         |
| References Count | 125                        |

## List of Events

| Event ID                   | Entrypoint   |   Size |   Instructions |
|----------------------------|--------------|--------|----------------|
| [65535](#event-65535)      | 0x0000       |      1 |              1 |
| [65534](#event-65534)      | 0x0001       |      1 |              1 |
| [10](#event-10)            | 0x0002       |     19 |              5 |
| [11](#event-11)            | 0x0015       |     19 |              5 |
| [12](#event-12)            | 0x0028       |     19 |              5 |
| [13](#event-13)            | 0x003B       |    147 |             23 |
| [65535.1](#event-655351)   | 0x00CE       |     41 |              5 |
| [65535.2](#event-655352)   | 0x00F7       |     38 |              4 |
| [65535.3](#event-655353)   | 0x011D       |     37 |              5 |
| [65535.4](#event-655354)   | 0x0142       |     37 |              5 |
| [65535.5](#event-655355)   | 0x0167       |      7 |              3 |
| [65535.6](#event-655356)   | 0x016E       |    155 |             35 |
| [65535.7](#event-655357)   | 0x0209       |     24 |              4 |
| [65535.8](#event-655358)   | 0x0221       |     24 |              4 |
| [65535.9](#event-655359)   | 0x0239       |     38 |              5 |
| [65535.10](#event-6553510) | 0x025F       |     38 |              5 |
| [65535.11](#event-6553511) | 0x0285       |     38 |              5 |
| [65535.12](#event-6553512) | 0x02AB       |     37 |              5 |
| [65535.13](#event-6553513) | 0x02D0       |     37 |              5 |
| [65535.14](#event-6553514) | 0x02F5       |     42 |              6 |
| [65535.15](#event-6553515) | 0x031F       |     29 |              5 |
| [65535.16](#event-6553516) | 0x033C       |     24 |              4 |
| [65535.17](#event-6553517) | 0x0354       |      5 |              2 |
| [65535.18](#event-6553518) | 0x0359       |      5 |              2 |
| [65535.19](#event-6553519) | 0x035E       |      5 |              2 |
| [65535.20](#event-6553520) | 0x0363       |      5 |              2 |
| [65535.21](#event-6553521) | 0x0368       |     14 |              4 |
| [65535.22](#event-6553522) | 0x0376       |     14 |              4 |
| [65535.23](#event-6553523) | 0x0384       |     14 |              4 |
| [65535.24](#event-6553524) | 0x0392       |     14 |              4 |
| [65535.25](#event-6553525) | 0x03A0       |     10 |              2 |
| [65535.26](#event-6553526) | 0x03AA       |     10 |              2 |
| [65535.27](#event-6553527) | 0x03B4       |     14 |              4 |
| [65535.28](#event-6553528) | 0x03C2       |     19 |              5 |
| [65535.29](#event-6553529) | 0x03D5       |     19 |              5 |
| [65535.30](#event-6553530) | 0x03E8       |     14 |              4 |
| [65535.31](#event-6553531) | 0x03F6       |     29 |              5 |
| [65535.32](#event-6553532) | 0x0413       |     24 |              4 |
| [65535.33](#event-6553533) | 0x042B       |     24 |              4 |
| [65535.34](#event-6553534) | 0x0443       |     24 |              4 |
| [65535.35](#event-6553535) | 0x045B       |     24 |              4 |
| [65535.36](#event-6553536) | 0x0473       |      3 |              2 |
| [65535.37](#event-6553537) | 0x0476       |      3 |              2 |
| [65535.38](#event-6553538) | 0x0479       |      6 |              2 |
| [65535.39](#event-6553539) | 0x047F       |      6 |              2 |
| [65535.40](#event-6553540) | 0x0485       |      6 |              2 |
| [65535.41](#event-6553541) | 0x048B       |      6 |              2 |
| [65535.42](#event-6553542) | 0x0491       |     27 |              3 |
| [65535.43](#event-6553543) | 0x04AC       |     10 |              2 |
| [65535.44](#event-6553544) | 0x04B6       |     14 |              4 |
| [65535.45](#event-6553545) | 0x04C4       |     53 |             12 |
| [65535.46](#event-6553546) | 0x04F9       |      3 |              2 |
| [32000](#event-32000)      | 0x04FC       |   2255 |            441 |
| [32002](#event-32002)      | 0x0DCB       |    133 |             20 |
| [32001](#event-32001)      | 0x0E50       |    562 |             95 |
| [32003](#event-32003)      | 0x1082       |    182 |             33 |
| [32004](#event-32004)      | 0x1138       |   1448 |            219 |

## DAT References (imed_data)

|   Index | Hex Value   |   Dec Value |
|---------|-------------|-------------|
|       0 | 0x34AC6     |      215750 |
|       1 | 0xFFFFB1E0  |  4294947296 |
|       2 | 0x39D0      |       14800 |
|       3 | 0x0000      |           0 |
|       4 | 0x1973A     |      104250 |
|       5 | 0xFFFFC4A0  |  4294952096 |
|       6 | 0x0800      |        2048 |
|       7 | 0xEA60      |       60000 |
|       8 | 0x0013      |          19 |
|       9 | 0x0008      |           8 |
|      10 | 0x000A      |          10 |
|      11 | 0x00C8      |         200 |
|      12 | 0x0014      |          20 |
|      13 | 0x0001      |           1 |
|      14 | 0x008C      |         140 |
|      15 | 0x003C      |          60 |
|      16 | 0x0002      |           2 |
|      17 | 0x00AA      |         170 |
|      18 | 0x0005      |           5 |
|      19 | 0x0009      |           9 |
|      20 | 0x0046      |          70 |
|      21 | 0x00D2      |         210 |
|      22 | 0x0007      |           7 |
|      23 | 0x0091      |         145 |
|      24 | 0x004F      |          79 |
|      25 | 0x004C      |          76 |
|      26 | 0x00C9      |         201 |
|      27 | 0x0018      |          24 |
|      28 | 0x0020      |          32 |
|      29 | 0x0030      |          48 |
|      30 | 0x0040      |          64 |
|      31 | 0x0057      |          87 |
|      32 | 0x005D      |          93 |
|      33 | 0x0060      |          96 |
|      34 | 0x0064      |         100 |
|      35 | 0x0028      |          40 |
|      36 | 0xFFF722E7  |  4294386407 |
|      37 | 0xFFF8B306  |  4294488838 |
|      38 | 0xFFFFE890  |  4294961296 |
|      39 | 0xFFF77246  |  4294406726 |
|      40 | 0xFFF8B22B  |  4294488619 |
|      41 | 0xFFFFEA84  |  4294961796 |
|      42 | 0x0019      |          25 |
|      43 | 0xFFF77947  |  4294408519 |
|      44 | 0xFFF8B195  |  4294488469 |
|      45 | 0xFFF8635B  |  4294468443 |
|      46 | 0xFFF8B14F  |  4294488399 |
|      47 | 0x0080      |         128 |
|      48 | 0xFFF77362  |  4294407010 |
|      49 | 0xFFF8AD86  |  4294487430 |
|      50 | 0xFFF7A8B5  |  4294420661 |
|      51 | 0xFFF8C570  |  4294493552 |
|      52 | 0xFFFFE974  |  4294961524 |
|      53 | 0xFFF78FD1  |  4294414289 |
|      54 | 0xFFF8DEBD  |  4294500029 |
|      55 | 0xFFFFE9DE  |  4294961630 |
|      56 | 0x000D      |          13 |
|      57 | 0xFFF7B5F9  |  4294424057 |
|      58 | 0xFFF8B3F4  |  4294489076 |
|      59 | 0x4E20      |       20000 |
|      60 | 0xFFFF8AD0  |  4294937296 |
|      61 | 0xE290      |       58000 |
|      62 | 0x0026      |          38 |
|      63 | 0xFFFF86E8  |  4294936296 |
|      64 | 0x000F      |          15 |
|      65 | 0x0010      |          16 |
|      66 | 0x001F      |          31 |
|      67 | 0xFFFFFFFF  |  4294967295 |
|      68 | 0x20FC      |        8444 |
|      69 | 0x1F79      |        8057 |
|      70 | 0x0003      |           3 |
|      71 | 0x0004      |           4 |
|      72 | 0x1E0C      |        7692 |
|      73 | 0x00FF      |         255 |
|      74 | 0x000B      |          11 |
|      75 | 0xB71B0     |      750000 |
|      76 | 0x75300     |      480000 |
|      77 | 0xFFF9CE10  |  4294561296 |
|      78 | 0x60310     |      394000 |
|      79 | 0xFFF8AD00  |  4294487296 |
|      80 | 0xFFF7E9B0  |  4294437296 |
|      81 | 0x1E17      |        7703 |
|      82 | 0x1E18      |        7704 |
|      83 | 0x1E19      |        7705 |
|      84 | 0x1E1A      |        7706 |
|      85 | 0x1E1B      |        7707 |
|      86 | 0x1E3E      |        7742 |
|      87 | 0x0006      |           6 |
|      88 | 0x000C      |          12 |
|      89 | 0x000E      |          14 |
|      90 | 0x0011      |          17 |
|      91 | 0x0012      |          18 |
|      92 | 0x0015      |          21 |
|      93 | 0x0016      |          22 |
|      94 | 0x0017      |          23 |
|      95 | 0x001A      |          26 |
|      96 | 0x001B      |          27 |
|      97 | 0x001C      |          28 |
|      98 | 0x001D      |          29 |
|      99 | 0x001E      |          30 |
|     100 | 0x1F73      |        8051 |
|     101 | 0x1F78      |        8056 |
|     102 | 0x1F77      |        8055 |
|     103 | 0x20FA      |        8442 |
|     104 | 0x20F9      |        8441 |
|     105 | 0x1F5F      |        8031 |
|     106 | 0x003E      |          62 |
|     107 | 0x1E0F      |        7695 |
|     108 | 0x20468     |      132200 |
|     109 | 0x9A4C      |       39500 |
|     110 | 0x00B4      |         180 |
|     111 | 0x012C      |         300 |
|     112 | 0x1F61      |        8033 |
|     113 | 0x1F60      |        8032 |
|     114 | 0x20F8      |        8440 |
|     115 | 0x1F63      |        8035 |
|     116 | 0x1F62      |        8034 |
|     117 | 0x0078      |         120 |
|     118 | 0x1E0D      |        7693 |
|     119 | 0x0041      |          65 |
|     120 | 0x004B      |          75 |
|     121 | 0x004A      |          74 |
|     122 | 0x006C      |         108 |
|     123 | 0x002D      |          45 |
|     124 | 0x00D7      |         215 |

## String References

- **7692**: Enter the battlefield? [Enter./Decline.]
- **7693**: Leave the battlefield? [Run away./Stay.]
- **7695**: You cannot enter the battlefield at present. Please wait a little longer.
- **7703**: You are cleared to enter the battlefield, but you cannot while party members are engaged in combat.
- **7704**: You are cleared to enter the battlefield, but you cannot while party members are engaged in combat.
- **7705**: You are cleared to enter the battlefield, but you cannot while party members are engaged in combat.
- **7706**: You are cleared to enter the battlefield, but you cannot while party members are engaged in combat.
- **7707**: You are cleared to enter the battlefield, but you cannot while party members are engaged in combat.
- **7742**: You do not meet the requirements to enter the battlefield. Access is denied.
- **8031**: Skip the event? [Yes./No.]
- **8032**: Battlefield clear time: $3 second[/s]!
- **8033**: Battlefield clear time: $3 minute[/s], $2 second[/s]!
- **8034**: The current battlefield clear time record is $3 second[/s].
- **8035**: The current battlefield clear time record is $3 minute[/s] $2 second[/s].
- **8051**: Only $3 [member/members] have clearance to enter the battlefield. This room has reached its maximum capacity.
- **8055**: That record is held by $5 adventurers, including %0!
- **8056**: That record is held by %0!
- **8057**: Select difficulty. [Very difficult. (Level: ???)/Difficult. (Level: ???)/Normal. (Level: $18)/Easy. (Level: $17)/Very Easy. (Level: $16)/Leave.]
- **8440**: You have broken the clear time record for "[Reckoning/Abomination/Vagary: Putraxia/Vagary: Rancibus/Vagary: Palloritus/Vagary: Perfidien/Vagary: Plouton/Oathblade]"!
- **8441**: The current clear time record for "[Reckoning/Abomination/Vagary: Putraxia/Vagary: Rancibus/Vagary: Palloritus/Vagary: Perfidien/Vagary: Plouton/Oathblade]" is $3 second[/s].
- **8442**: The current clear time record for "[Reckoning/Abomination/Vagary: Putraxia/Vagary: Rancibus/Vagary: Palloritus/Vagary: Perfidien/Vagary: Plouton/Oathblade]" is $3 minute[/s], $2 second[/s].
- **8444**: $P16?$P16qL Which battlefield will you enter? [None./Reckoning./Abomination./Vagary: Putraxia. (Difficulty: 128)/Vagary: Rancibus. (Difficulty: 128)/Vagary: Palloritus. (Difficulty: 128)/Vagary: Perfidien. (Difficulty: 130)/Vagary: Plouton. (Difficulty: 132)/Oathblade./]

## Events

### Event 65535

#### Metadata

| Field        | Value   |
|--------------|---------|
| Entrypoint   | 0x0000  |
| Data Size    | 1 bytes |
| Instructions | 1       |

```
      00 01 02 03 04 05 06 07  08 09 0A 0B 0C 0D 0E 0F
      -- -- -- -- -- -- -- --  -- -- -- -- -- -- -- --
0000: 00                                                .               
```

#### Opcodes

```
  0: 0x0000 [0x00] END_REQSTACK()
```

### Event 65534

#### Metadata

| Field        | Value   |
|--------------|---------|
| Entrypoint   | 0x0001  |
| Data Size    | 1 bytes |
| Instructions | 1       |

```
      00 01 02 03 04 05 06 07  08 09 0A 0B 0C 0D 0E 0F
      -- -- -- -- -- -- -- --  -- -- -- -- -- -- -- --
0000:    00                                              .              
```

#### Opcodes

```
  0: 0x0001 [0x00] END_REQSTACK()
```

### Event 10

#### Metadata

| Field        | Value    |
|--------------|----------|
| Entrypoint   | 0x0002   |
| Data Size    | 19 bytes |
| Instructions | 5        |

```
      00 01 02 03 04 05 06 07  08 09 0A 0B 0C 0D 0E 0F
      -- -- -- -- -- -- -- --  -- -- -- -- -- -- -- --
0000:       1A 4E 00 47 00 00  80 01 80 02 80 03 80 47    .N.G.........G
0010: 01 1A 93 00 00                                    .....           
```

#### Opcodes

```
  0: 0x0002 [0x1A] CALL_SUBROUTINE(address=0x004E)
  1: 0x0005 [0x47] UPDATE_PLAYER_POS(215.750*, -20.000*, 14.800*, yaw=0.0째*)
  2: 0x000F [0x47] WAIT_PLAYER_POS_UPDATE
  3: 0x0011 [0x1A] CALL_SUBROUTINE(address=0x0093)
  4: 0x0014 [0x00] END_REQSTACK()
```

### Event 11

#### Metadata

| Field        | Value    |
|--------------|----------|
| Entrypoint   | 0x0015   |
| Data Size    | 19 bytes |
| Instructions | 5        |

```
      00 01 02 03 04 05 06 07  08 09 0A 0B 0C 0D 0E 0F
      -- -- -- -- -- -- -- --  -- -- -- -- -- -- -- --
0010:                1A 4E 00  47 00 04 80 01 80 05 80       .N.G.......
0020: 06 80 47 01 1A 93 00 00                           ..G.....        
```

#### Opcodes

```
  0: 0x0015 [0x1A] CALL_SUBROUTINE(address=0x004E)
  1: 0x0018 [0x47] UPDATE_PLAYER_POS(104.250*, -20.000*, -15.200*, yaw=180.0째*)
  2: 0x0022 [0x47] WAIT_PLAYER_POS_UPDATE
  3: 0x0024 [0x1A] CALL_SUBROUTINE(address=0x0093)
  4: 0x0027 [0x00] END_REQSTACK()
```

### Event 12

#### Metadata

| Field        | Value    |
|--------------|----------|
| Entrypoint   | 0x0028   |
| Data Size    | 19 bytes |
| Instructions | 5        |

```
      00 01 02 03 04 05 06 07  08 09 0A 0B 0C 0D 0E 0F
      -- -- -- -- -- -- -- --  -- -- -- -- -- -- -- --
0020:                          1A 4E 00 47 00 00 80 07          .N.G....
0030: 80 02 80 03 80 47 01 1A  93 00 00                 .....G.....     
```

#### Opcodes

```
  0: 0x0028 [0x1A] CALL_SUBROUTINE(address=0x004E)
  1: 0x002B [0x47] UPDATE_PLAYER_POS(215.750*, 60.000*, 14.800*, yaw=0.0째*)
  2: 0x0035 [0x47] WAIT_PLAYER_POS_UPDATE
  3: 0x0037 [0x1A] CALL_SUBROUTINE(address=0x0093)
  4: 0x003A [0x00] END_REQSTACK()
```

### Event 13

#### Metadata

| Field        | Value     |
|--------------|-----------|
| Entrypoint   | 0x003B    |
| Data Size    | 147 bytes |
| Instructions | 22        |

```
      00 01 02 03 04 05 06 07  08 09 0A 0B 0C 0D 0E 0F
      -- -- -- -- -- -- -- --  -- -- -- -- -- -- -- --
0030:                                   1A 4E 00 47 00             .N.G.
0040: 04 80 07 80 05 80 06 80  47 01 1A 93 00 00 20 01  ........G..... .
0050: 42 D0 08 80 F8 FF FF 7F  F0 FF FF 7F 73 30 30 30  B...........s000
0060: 03 80 1C 09 80 92 01 F0  FF FF 7F 1C 0A 80 45 0B  ..............E.
0070: 80 F0 FF FF 7F F0 FF FF  7F 66 64 6F 31 03 80 55  .........fdo1..U
0080: 0B 80 F0 FF FF 7F F0 FF  FF 7F 66 64 6F 31 43 00  ..........fdo1C.
0090: 43 01 1B 45 0B 80 F0 FF  FF 7F F0 FF FF 7F 66 64  C..E..........fd
00A0: 69 31 03 80 55 0B 80 F0  FF FF 7F F0 FF FF 7F 66  i1..U..........f
00B0: 64 69 31 D0 0C 80 F8 FF  FF 7F F0 FF FF 7F 73 30  di1...........s0
00C0: 30 30 03 80 92 00 F0 FF  FF 7F 20 00 21 1B        00........ .!.  
```

#### Opcodes

```
  0: 0x003B [0x1A] CALL_SUBROUTINE(address=0x004E)
  1: 0x003E [0x47] UPDATE_PLAYER_POS(104.250*, 60.000*, -15.200*, yaw=180.0째*)
  2: 0x0048 [0x47] WAIT_PLAYER_POS_UPDATE
  3: 0x004A [0x1A] CALL_SUBROUTINE(address=0x0093)
  4: 0x004D [0x00] END_REQSTACK()

SUBROUTINE_004E:
  5: 0x004E [0x20] SET_CLI_EVENT_UC_FLAG: Lock player control
  6: 0x0050 [0x42] SET_CLI_EVENT_CANCEL_DATA()
  7: 0x0051 [0xD0] LOAD_SCHEDULED_TASK_ALT5: Load scheduler "s000" with entities [EventEntity, LocalPlayer], work=[19*, 0*]
  8: 0x0062 [0x1C] WAIT(8* ticks)
  9: 0x0065 [0x92] LocalPlayer->Render.Flags3 ^= 0x01
 10: 0x006B [0x1C] WAIT(10* ticks)
 11: 0x006E [0x45] LOAD_SCHEDULED_TASK: Load scheduler "fdo1" with entities [LocalPlayer, LocalPlayer], work=[200*, 0*]
 12: 0x007F [0x55] WAIT_LOAD_SCHEDULER: Wait for scheduler "fdo1" with entities [LocalPlayer, LocalPlayer], work=200*
 13: 0x008E [0x43] SEND_EVENT_UPDATE: Send pending tag to server (packet 0x005B)
 14: 0x0090 [0x43] SEND_EVENT_UPDATE: Check pending flag (skip if not pending)
 15: 0x0092 [0x1B] RETURN

SUBROUTINE_0093:
 16: 0x0093 [0x45] LOAD_SCHEDULED_TASK: Load scheduler "fdi1" with entities [LocalPlayer, LocalPlayer], work=[200*, 0*]
 17: 0x00A4 [0x55] WAIT_LOAD_SCHEDULER: Wait for scheduler "fdi1" with entities [LocalPlayer, LocalPlayer], work=200*
 18: 0x00B3 [0xD0] LOAD_SCHEDULED_TASK_ALT5: Load scheduler "s000" with entities [EventEntity, LocalPlayer], work=[20*, 0*]
 19: 0x00C4 [0x92] LocalPlayer->Render.Flags3 = Flags3  // No change (flag=0)
 20: 0x00CA [0x20] SET_CLI_EVENT_UC_FLAG: Unlock player control
 21: 0x00CC [0x21] END_EVENT
```

#### Data or dead code:

```
# Dead code (unreachable instructions):
     0x00CD [0x1B] RETURN
```

### Event 65535.1

#### Metadata

| Field        | Value    |
|--------------|----------|
| Entrypoint   | 0x00CE   |
| Data Size    | 41 bytes |
| Instructions | 5        |

```
      00 01 02 03 04 05 06 07  08 09 0A 0B 0C 0D 0E 0F
      -- -- -- -- -- -- -- --  -- -- -- -- -- -- -- --
00C0:                                            62 0D                b.
00D0: 80 F0 FF FF 7F F0 FF FF  7F 6D 61 69 6E 03 80 1C  .........main...
00E0: 0E 80 45 0B 80 F0 FF FF  7F F0 FF FF 7F 66 64 6F  ..E..........fdo
00F0: 31 03 80 1C 0F 80 00                              1......         
```

#### Opcodes

```
  0: 0x00CE [0x62] LOAD_EVENT_SCHEDULER: Load scheduler "main" with entities [LocalPlayer, LocalPlayer], work=[1*, 0*]
  1: 0x00DF [0x1C] WAIT(140* ticks)
  2: 0x00E2 [0x45] LOAD_SCHEDULED_TASK: Load scheduler "fdo1" with entities [LocalPlayer, LocalPlayer], work=[200*, 0*]
  3: 0x00F3 [0x1C] WAIT(60* ticks)
  4: 0x00F6 [0x00] END_REQSTACK()
```

### Event 65535.2

#### Metadata

| Field        | Value    |
|--------------|----------|
| Entrypoint   | 0x00F7   |
| Data Size    | 38 bytes |
| Instructions | 4        |

```
      00 01 02 03 04 05 06 07  08 09 0A 0B 0C 0D 0E 0F
      -- -- -- -- -- -- -- --  -- -- -- -- -- -- -- --
00F0:                      45  0B 80 F0 FF FF 7F F0 FF         E........
0100: FF 7F 66 64 69 31 03 80  62 10 80 F0 FF FF 7F F0  ..fdi1..b.......
0110: FF FF 7F 6D 61 69 6E 03  80 1C 11 80 00           ...main......   
```

#### Opcodes

```
  0: 0x00F7 [0x45] LOAD_SCHEDULED_TASK: Load scheduler "fdi1" with entities [LocalPlayer, LocalPlayer], work=[200*, 0*]
  1: 0x0108 [0x62] LOAD_EVENT_SCHEDULER: Load scheduler "main" with entities [LocalPlayer, LocalPlayer], work=[2*, 0*]
  2: 0x0119 [0x1C] WAIT(170* ticks)
  3: 0x011C [0x00] END_REQSTACK()
```

### Event 65535.3

#### Metadata

| Field        | Value    |
|--------------|----------|
| Entrypoint   | 0x011D   |
| Data Size    | 37 bytes |
| Instructions | 5        |

```
      00 01 02 03 04 05 06 07  08 09 0A 0B 0C 0D 0E 0F
      -- -- -- -- -- -- -- --  -- -- -- -- -- -- -- --
0110:                                         03 03 00               ...
0120: 07 7F 1A 75 01 66 04 00  F8 FF FF 7F F8 FF FF 7F  ...u.f..........
0130: 73 68 61 30 53 F8 FF FF  7F F8 FF FF 7F 73 68 61  sha0S........sha
0140: 30 00                                             0.              
```

#### Opcodes

```
  0: 0x011D [0x03] ExtData[1]->WorkLocal[3] = Entity->Race
  1: 0x0122 [0x1A] CALL_SUBROUTINE(address=0x0175)
  2: 0x0125 [0x66] LOAD_EXT_SCHEDULER_MAIN: Load scheduler "sha0" with entities [EventEntity, EventEntity], work=ExtData[1]->WorkLocal[4]
  3: 0x0134 [0x53] WAIT_SCHEDULER_TASK: Wait for scheduler "sha0" with entities [EventEntity, EventEntity]
  4: 0x0141 [0x00] END_REQSTACK()
```

### Event 65535.4

#### Metadata

| Field        | Value    |
|--------------|----------|
| Entrypoint   | 0x0142   |
| Data Size    | 37 bytes |
| Instructions | 5        |

```
      00 01 02 03 04 05 06 07  08 09 0A 0B 0C 0D 0E 0F
      -- -- -- -- -- -- -- --  -- -- -- -- -- -- -- --
0140:       03 03 00 07 7F 1A  75 01 66 04 00 F8 FF FF    ......u.f.....
0150: 7F F8 FF FF 7F 73 68 61  31 53 F8 FF FF 7F F8 FF  .....sha1S......
0160: FF 7F 73 68 61 31 00                              ..sha1.         
```

#### Opcodes

```
  0: 0x0142 [0x03] ExtData[1]->WorkLocal[3] = Entity->Race
  1: 0x0147 [0x1A] CALL_SUBROUTINE(address=0x0175)
  2: 0x014A [0x66] LOAD_EXT_SCHEDULER_MAIN: Load scheduler "sha1" with entities [EventEntity, EventEntity], work=ExtData[1]->WorkLocal[4]
  3: 0x0159 [0x53] WAIT_SCHEDULER_TASK: Wait for scheduler "sha1" with entities [EventEntity, EventEntity]
  4: 0x0166 [0x00] END_REQSTACK()
```

### Event 65535.5

#### Metadata

| Field        | Value   |
|--------------|---------|
| Entrypoint   | 0x0167  |
| Data Size    | 7 bytes |
| Instructions | 3       |

```
      00 01 02 03 04 05 06 07  08 09 0A 0B 0C 0D 0E 0F
      -- -- -- -- -- -- -- --  -- -- -- -- -- -- -- --
0160:                      AB  03 AC 01 0D 80 00               .......  
```

#### Opcodes

```
  0: 0x0167 [0xAB] EventEntity->Render.Flags0 ^= 0x20000 // Toggle bit 17
  1: 0x0169 [0xAC] EventEntity->StatusEvent = 1*
  2: 0x016D [0x00] END_REQSTACK()
```

### Event 65535.6

#### Metadata

| Field        | Value     |
|--------------|-----------|
| Entrypoint   | 0x016E    |
| Data Size    | 155 bytes |
| Instructions | 3         |

```
      00 01 02 03 04 05 06 07  08 09 0A 0B 0C 0D 0E 0F
      -- -- -- -- -- -- -- --  -- -- -- -- -- -- -- --
0160:                                            AC 01                ..
0170: 03 80 AB 04 00 03 04 00  03 00 02 04 00 12 80 05  ................
0180: 8A 01 08 04 00 0D 80 01  8F 01 08 04 00 10 80 14  ................
0190: 04 00 0A 80 07 04 00 13  80 1B 03 04 00 03 00 02  ................
01A0: 04 00 12 80 05 AF 01 08  04 00 0D 80 01 B4 01 08  ................
01B0: 04 00 10 80 14 04 00 0A  80 07 04 00 14 80 1B 03  ................
01C0: 04 00 03 00 02 04 00 12  80 05 D4 01 08 04 00 0D  ................
01D0: 80 01 D9 01 08 04 00 10  80 14 04 00 0A 80 07 04  ................
01E0: 00 0E 80 1B 03 04 00 03  00 02 04 00 12 80 05 F9  ................
01F0: 01 08 04 00 0D 80 01 FE  01 08 04 00 10 80 14 04  ................
0200: 00 0A 80 07 04 00 15 80  1B                       .........       
```

#### Opcodes

```
  0: 0x016E [0xAC] EventEntity->StatusEvent = 0*
  1: 0x0172 [0xAB] EventEntity->Render.Flags0 |= 0x40000 // Set bit 18
  2: 0x0174 [0x00] END_REQSTACK()
```

#### Data or dead code:

```
# Dead code (unreachable instructions):
     0x0175 [0x03] ExtData[1]->WorkLocal[4] = ExtData[1]->WorkLocal[3]
     0x017A [0x02] IF !(ExtData[1]->WorkLocal[4] > 5*) GOTO 0x018A
     0x0182 [0x08] ExtData[1]->WorkLocal[4] -= 1*
     0x0187 [0x01] GOTO 0x018F
     0x018A [0x08] ExtData[1]->WorkLocal[4] -= 2*
     0x018F [0x14] ExtData[1]->WorkLocal[4] *= 10*
     0x0194 [0x07] ExtData[1]->WorkLocal[4] += 9*
     0x0199 [0x1B] RETURN
     0x019A [0x03] ExtData[1]->WorkLocal[4] = ExtData[1]->WorkLocal[3]
     0x019F [0x02] IF !(ExtData[1]->WorkLocal[4] > 5*) GOTO 0x01AF
     0x01A7 [0x08] ExtData[1]->WorkLocal[4] -= 1*
     0x01AC [0x01] GOTO 0x01B4
     0x01AF [0x08] ExtData[1]->WorkLocal[4] -= 2*
     0x01B4 [0x14] ExtData[1]->WorkLocal[4] *= 10*
     0x01B9 [0x07] ExtData[1]->WorkLocal[4] += 70*
     0x01BE [0x1B] RETURN
     0x01BF [0x03] ExtData[1]->WorkLocal[4] = ExtData[1]->WorkLocal[3]
     0x01C4 [0x02] IF !(ExtData[1]->WorkLocal[4] > 5*) GOTO 0x01D4
     0x01CC [0x08] ExtData[1]->WorkLocal[4] -= 1*
     0x01D1 [0x01] GOTO 0x01D9
     0x01D4 [0x08] ExtData[1]->WorkLocal[4] -= 2*
     0x01D9 [0x14] ExtData[1]->WorkLocal[4] *= 10*
     0x01DE [0x07] ExtData[1]->WorkLocal[4] += 140*
     0x01E3 [0x1B] RETURN
     0x01E4 [0x03] ExtData[1]->WorkLocal[4] = ExtData[1]->WorkLocal[3]
     0x01E9 [0x02] IF !(ExtData[1]->WorkLocal[4] > 5*) GOTO 0x01F9
     0x01F1 [0x08] ExtData[1]->WorkLocal[4] -= 1*
     0x01F6 [0x01] GOTO 0x01FE
     0x01F9 [0x08] ExtData[1]->WorkLocal[4] -= 2*
     0x01FE [0x14] ExtData[1]->WorkLocal[4] *= 10*
     0x0203 [0x07] ExtData[1]->WorkLocal[4] += 210*
     0x0208 [0x1B] RETURN
```

### Event 65535.7

#### Metadata

| Field        | Value    |
|--------------|----------|
| Entrypoint   | 0x0209   |
| Data Size    | 24 bytes |
| Instructions | 4        |

```
      00 01 02 03 04 05 06 07  08 09 0A 0B 0C 0D 0E 0F
      -- -- -- -- -- -- -- --  -- -- -- -- -- -- -- --
0200:                             03 03 00 07 7F 1A 75           ......u
0210: 01 66 04 00 F8 FF FF 7F  F8 FF FF 7F 74 6C 6B 30  .f..........tlk0
0220: 00                                                .               
```

#### Opcodes

```
  0: 0x0209 [0x03] ExtData[1]->WorkLocal[3] = Entity->Race
  1: 0x020E [0x1A] CALL_SUBROUTINE(address=0x0175)
  2: 0x0211 [0x66] LOAD_EXT_SCHEDULER_MAIN: Load scheduler "tlk0" with entities [EventEntity, EventEntity], work=ExtData[1]->WorkLocal[4]
  3: 0x0220 [0x00] END_REQSTACK()
```

### Event 65535.8

#### Metadata

| Field        | Value    |
|--------------|----------|
| Entrypoint   | 0x0221   |
| Data Size    | 24 bytes |
| Instructions | 4        |

```
      00 01 02 03 04 05 06 07  08 09 0A 0B 0C 0D 0E 0F
      -- -- -- -- -- -- -- --  -- -- -- -- -- -- -- --
0220:    03 03 00 07 7F 1A 75  01 66 04 00 F8 FF FF 7F   ......u.f......
0230: F8 FF FF 7F 74 6C 6B 31  00                       ....tlk1.       
```

#### Opcodes

```
  0: 0x0221 [0x03] ExtData[1]->WorkLocal[3] = Entity->Race
  1: 0x0226 [0x1A] CALL_SUBROUTINE(address=0x0175)
  2: 0x0229 [0x66] LOAD_EXT_SCHEDULER_MAIN: Load scheduler "tlk1" with entities [EventEntity, EventEntity], work=ExtData[1]->WorkLocal[4]
  3: 0x0238 [0x00] END_REQSTACK()
```

### Event 65535.9

#### Metadata

| Field        | Value    |
|--------------|----------|
| Entrypoint   | 0x0239   |
| Data Size    | 38 bytes |
| Instructions | 5        |

```
      00 01 02 03 04 05 06 07  08 09 0A 0B 0C 0D 0E 0F
      -- -- -- -- -- -- -- --  -- -- -- -- -- -- -- --
0230:                             22 00 2F 00 F8 FF FF           "./....
0240: 7F B6 0B 09 80 16 80 17  80 18 80 19 80 19 80 19  ................
0250: 80 1A 80 1B 80 6C F8 FF  FF 7F 1C 80 0D 80 00     .....l......... 
```

#### Opcodes

```
  0: 0x0239 [0x22] ENTITY_HIDE_FLAG(enabled=0x00)
  1: 0x023B [0x2F] EventEntity->Render.Flags0 &= ~0x80000 // Bit 19
  2: 0x0241 [0xB6] ENTITY_APPEARANCE_HANDLER(case=Full entity look, race=8*, hair=7*, head=145*, body=79*, hands=76*, legs=76*, feet=76*, main=201*, sub=24*)
  3: 0x0255 [0x6C] FADE_ENTITY_COLOR(entity_id=EventEntity, end_alpha=32*, fade_time=1*)
  4: 0x025E [0x00] END_REQSTACK()
```

### Event 65535.10

#### Metadata

| Field        | Value    |
|--------------|----------|
| Entrypoint   | 0x025F   |
| Data Size    | 38 bytes |
| Instructions | 5        |

```
      00 01 02 03 04 05 06 07  08 09 0A 0B 0C 0D 0E 0F
      -- -- -- -- -- -- -- --  -- -- -- -- -- -- -- --
0250:                                               22                 "
0260: 00 2F 00 F8 FF FF 7F B6  0B 16 80 16 80 17 80 18  ./..............
0270: 80 19 80 19 80 19 80 1A  80 1B 80 6C F8 FF FF 7F  ...........l....
0280: 1D 80 0D 80 00                                    .....           
```

#### Opcodes

```
  0: 0x025F [0x22] ENTITY_HIDE_FLAG(enabled=0x00)
  1: 0x0261 [0x2F] EventEntity->Render.Flags0 &= ~0x80000 // Bit 19
  2: 0x0267 [0xB6] ENTITY_APPEARANCE_HANDLER(case=Full entity look, race=7*, hair=7*, head=145*, body=79*, hands=76*, legs=76*, feet=76*, main=201*, sub=24*)
  3: 0x027B [0x6C] FADE_ENTITY_COLOR(entity_id=EventEntity, end_alpha=48*, fade_time=1*)
  4: 0x0284 [0x00] END_REQSTACK()
```

### Event 65535.11

#### Metadata

| Field        | Value    |
|--------------|----------|
| Entrypoint   | 0x0285   |
| Data Size    | 38 bytes |
| Instructions | 5        |

```
      00 01 02 03 04 05 06 07  08 09 0A 0B 0C 0D 0E 0F
      -- -- -- -- -- -- -- --  -- -- -- -- -- -- -- --
0280:                22 00 2F  00 F8 FF FF 7F B6 0B 12       "./........
0290: 80 16 80 17 80 18 80 19  80 19 80 19 80 1A 80 1B  ................
02A0: 80 6C F8 FF FF 7F 1E 80  0D 80 00                 .l.........     
```

#### Opcodes

```
  0: 0x0285 [0x22] ENTITY_HIDE_FLAG(enabled=0x00)
  1: 0x0287 [0x2F] EventEntity->Render.Flags0 &= ~0x80000 // Bit 19
  2: 0x028D [0xB6] ENTITY_APPEARANCE_HANDLER(case=Full entity look, race=5*, hair=7*, head=145*, body=79*, hands=76*, legs=76*, feet=76*, main=201*, sub=24*)
  3: 0x02A1 [0x6C] FADE_ENTITY_COLOR(entity_id=EventEntity, end_alpha=64*, fade_time=1*)
  4: 0x02AA [0x00] END_REQSTACK()
```

### Event 65535.12

#### Metadata

| Field        | Value    |
|--------------|----------|
| Entrypoint   | 0x02AB   |
| Data Size    | 37 bytes |
| Instructions | 5        |

```
      00 01 02 03 04 05 06 07  08 09 0A 0B 0C 0D 0E 0F
      -- -- -- -- -- -- -- --  -- -- -- -- -- -- -- --
02A0:                                   03 03 00 07 7F             .....
02B0: 1A 75 01 66 04 00 F8 FF  FF 7F F8 FF FF 7F 73 69  .u.f..........si
02C0: 74 30 53 F8 FF FF 7F F8  FF FF 7F 73 69 74 30 00  t0S........sit0.
```

#### Opcodes

```
  0: 0x02AB [0x03] ExtData[1]->WorkLocal[3] = Entity->Race
  1: 0x02B0 [0x1A] CALL_SUBROUTINE(address=0x0175)
  2: 0x02B3 [0x66] LOAD_EXT_SCHEDULER_MAIN: Load scheduler "sit0" with entities [EventEntity, EventEntity], work=ExtData[1]->WorkLocal[4]
  3: 0x02C2 [0x53] WAIT_SCHEDULER_TASK: Wait for scheduler "sit0" with entities [EventEntity, EventEntity]
  4: 0x02CF [0x00] END_REQSTACK()
```

### Event 65535.13

#### Metadata

| Field        | Value    |
|--------------|----------|
| Entrypoint   | 0x02D0   |
| Data Size    | 37 bytes |
| Instructions | 5        |

```
      00 01 02 03 04 05 06 07  08 09 0A 0B 0C 0D 0E 0F
      -- -- -- -- -- -- -- --  -- -- -- -- -- -- -- --
02D0: 03 03 00 07 7F 1A 75 01  66 04 00 F8 FF FF 7F F8  ......u.f.......
02E0: FF FF 7F 73 69 74 31 53  F8 FF FF 7F F8 FF FF 7F  ...sit1S........
02F0: 73 69 74 31 00                                    sit1.           
```

#### Opcodes

```
  0: 0x02D0 [0x03] ExtData[1]->WorkLocal[3] = Entity->Race
  1: 0x02D5 [0x1A] CALL_SUBROUTINE(address=0x0175)
  2: 0x02D8 [0x66] LOAD_EXT_SCHEDULER_MAIN: Load scheduler "sit1" with entities [EventEntity, EventEntity], work=ExtData[1]->WorkLocal[4]
  3: 0x02E7 [0x53] WAIT_SCHEDULER_TASK: Wait for scheduler "sit1" with entities [EventEntity, EventEntity]
  4: 0x02F4 [0x00] END_REQSTACK()
```

### Event 65535.14

#### Metadata

| Field        | Value    |
|--------------|----------|
| Entrypoint   | 0x02F5   |
| Data Size    | 42 bytes |
| Instructions | 6        |

```
      00 01 02 03 04 05 06 07  08 09 0A 0B 0C 0D 0E 0F
      -- -- -- -- -- -- -- --  -- -- -- -- -- -- -- --
02F0:                03 03 00  07 7F 1A 75 01 66 04 00       ......u.f..
0300: F8 FF FF 7F F8 FF FF 7F  74 6C 6B 30 1C 0F 80 66  ........tlk0...f
0310: 04 00 F8 FF FF 7F F8 FF  FF 7F 74 6C 6B 31 00     ..........tlk1. 
```

#### Opcodes

```
  0: 0x02F5 [0x03] ExtData[1]->WorkLocal[3] = Entity->Race
  1: 0x02FA [0x1A] CALL_SUBROUTINE(address=0x0175)
  2: 0x02FD [0x66] LOAD_EXT_SCHEDULER_MAIN: Load scheduler "tlk0" with entities [EventEntity, EventEntity], work=ExtData[1]->WorkLocal[4]
  3: 0x030C [0x1C] WAIT(60* ticks)
  4: 0x030F [0x66] LOAD_EXT_SCHEDULER_MAIN: Load scheduler "tlk1" with entities [EventEntity, EventEntity], work=ExtData[1]->WorkLocal[4]
  5: 0x031E [0x00] END_REQSTACK()
```

### Event 65535.15

#### Metadata

| Field        | Value    |
|--------------|----------|
| Entrypoint   | 0x031F   |
| Data Size    | 29 bytes |
| Instructions | 5        |

```
      00 01 02 03 04 05 06 07  08 09 0A 0B 0C 0D 0E 0F
      -- -- -- -- -- -- -- --  -- -- -- -- -- -- -- --
0310:                                               03                 .
0320: 03 00 07 7F 1A 9A 01 07  04 00 0D 80 66 04 00 F8  ............f...
0330: FF FF 7F F8 FF FF 7F 70  61 73 30 00              .......pas0.    
```

#### Opcodes

```
  0: 0x031F [0x03] ExtData[1]->WorkLocal[3] = Entity->Race
  1: 0x0324 [0x1A] CALL_SUBROUTINE(address=0x019A)
  2: 0x0327 [0x07] ExtData[1]->WorkLocal[4] += 1*
  3: 0x032C [0x66] LOAD_EXT_SCHEDULER_MAIN: Load scheduler "pas0" with entities [EventEntity, EventEntity], work=ExtData[1]->WorkLocal[4]
  4: 0x033B [0x00] END_REQSTACK()
```

### Event 65535.16

#### Metadata

| Field        | Value    |
|--------------|----------|
| Entrypoint   | 0x033C   |
| Data Size    | 24 bytes |
| Instructions | 4        |

```
      00 01 02 03 04 05 06 07  08 09 0A 0B 0C 0D 0E 0F
      -- -- -- -- -- -- -- --  -- -- -- -- -- -- -- --
0330:                                      03 03 00 07              ....
0340: 7F 1A BF 01 66 04 00 F8  FF FF 7F F8 FF FF 7F 6F  ....f..........o
0350: 72 7A 30 00                                       rz0.            
```

#### Opcodes

```
  0: 0x033C [0x03] ExtData[1]->WorkLocal[3] = Entity->Race
  1: 0x0341 [0x1A] CALL_SUBROUTINE(address=0x01BF)
  2: 0x0344 [0x66] LOAD_EXT_SCHEDULER_MAIN: Load scheduler "orz0" with entities [EventEntity, EventEntity], work=ExtData[1]->WorkLocal[4]
  3: 0x0353 [0x00] END_REQSTACK()
```

### Event 65535.17

#### Metadata

| Field        | Value   |
|--------------|---------|
| Entrypoint   | 0x0354  |
| Data Size    | 5 bytes |
| Instructions | 2       |

```
      00 01 02 03 04 05 06 07  08 09 0A 0B 0C 0D 0E 0F
      -- -- -- -- -- -- -- --  -- -- -- -- -- -- -- --
0350:             B6 0F 1F 80  00                           .....       
```

#### Opcodes

```
  0: 0x0354 [0xB6] ENTITY_APPEARANCE_HANDLER(case=Model size, value=87*)
  1: 0x0358 [0x00] END_REQSTACK()
```

### Event 65535.18

#### Metadata

| Field        | Value   |
|--------------|---------|
| Entrypoint   | 0x0359  |
| Data Size    | 5 bytes |
| Instructions | 2       |

```
      00 01 02 03 04 05 06 07  08 09 0A 0B 0C 0D 0E 0F
      -- -- -- -- -- -- -- --  -- -- -- -- -- -- -- --
0350:                             B6 0F 20 80 00                 .. ..  
```

#### Opcodes

```
  0: 0x0359 [0xB6] ENTITY_APPEARANCE_HANDLER(case=Model size, value=93*)
  1: 0x035D [0x00] END_REQSTACK()
```

### Event 65535.19

#### Metadata

| Field        | Value   |
|--------------|---------|
| Entrypoint   | 0x035E  |
| Data Size    | 5 bytes |
| Instructions | 2       |

```
      00 01 02 03 04 05 06 07  08 09 0A 0B 0C 0D 0E 0F
      -- -- -- -- -- -- -- --  -- -- -- -- -- -- -- --
0350:                                            B6 0F                ..
0360: 21 80 00                                          !..             
```

#### Opcodes

```
  0: 0x035E [0xB6] ENTITY_APPEARANCE_HANDLER(case=Model size, value=96*)
  1: 0x0362 [0x00] END_REQSTACK()
```

### Event 65535.20

#### Metadata

| Field        | Value   |
|--------------|---------|
| Entrypoint   | 0x0363  |
| Data Size    | 5 bytes |
| Instructions | 2       |

```
      00 01 02 03 04 05 06 07  08 09 0A 0B 0C 0D 0E 0F
      -- -- -- -- -- -- -- --  -- -- -- -- -- -- -- --
0360:          B6 0F 22 80 00                              .."..        
```

#### Opcodes

```
  0: 0x0363 [0xB6] ENTITY_APPEARANCE_HANDLER(case=Model size, value=100*)
  1: 0x0367 [0x00] END_REQSTACK()
```

### Event 65535.21

#### Metadata

| Field        | Value    |
|--------------|----------|
| Entrypoint   | 0x0368   |
| Data Size    | 14 bytes |
| Instructions | 4        |

```
      00 01 02 03 04 05 06 07  08 09 0A 0B 0C 0D 0E 0F
      -- -- -- -- -- -- -- --  -- -- -- -- -- -- -- --
0360:                          32 23 80 1F 00 24 80 25          2#...$.%
0370: 80 26 80 1F 01 00                                 .&....          
```

#### Opcodes

```
  0: 0x0368 [0x32] ExtData[1]->MainSpeed = 40* * 0.1
  1: 0x036B [0x1F] MOVE_ENTITY: EventEntity moves to X=-580.889*, Z=-478.458*, Y=-6.000*
  2: 0x0373 [0x1F] MOVE_ENTITY: Update entity position (mode=1)
  3: 0x0375 [0x00] END_REQSTACK()
```

### Event 65535.22

#### Metadata

| Field        | Value    |
|--------------|----------|
| Entrypoint   | 0x0376   |
| Data Size    | 14 bytes |
| Instructions | 4        |

```
      00 01 02 03 04 05 06 07  08 09 0A 0B 0C 0D 0E 0F
      -- -- -- -- -- -- -- --  -- -- -- -- -- -- -- --
0370:                   32 23  80 1F 00 27 80 28 80 29        2#...'.(.)
0380: 80 1F 01 00                                       ....            
```

#### Opcodes

```
  0: 0x0376 [0x32] ExtData[1]->MainSpeed = 40* * 0.1
  1: 0x0379 [0x1F] MOVE_ENTITY: EventEntity moves to X=-560.570*, Z=-478.677*, Y=-5.500*
  2: 0x0381 [0x1F] MOVE_ENTITY: Update entity position (mode=1)
  3: 0x0383 [0x00] END_REQSTACK()
```

### Event 65535.23

#### Metadata

| Field        | Value    |
|--------------|----------|
| Entrypoint   | 0x0384   |
| Data Size    | 14 bytes |
| Instructions | 4        |

```
      00 01 02 03 04 05 06 07  08 09 0A 0B 0C 0D 0E 0F
      -- -- -- -- -- -- -- --  -- -- -- -- -- -- -- --
0380:             32 2A 80 1F  00 2B 80 2C 80 29 80 1F      2*...+.,.)..
0390: 01 00                                             ..              
```

#### Opcodes

```
  0: 0x0384 [0x32] ExtData[1]->MainSpeed = 25* * 0.1
  1: 0x0387 [0x1F] MOVE_ENTITY: EventEntity moves to X=-558.777*, Z=-478.827*, Y=-5.500*
  2: 0x038F [0x1F] MOVE_ENTITY: Update entity position (mode=1)
  3: 0x0391 [0x00] END_REQSTACK()
```

### Event 65535.24

#### Metadata

| Field        | Value    |
|--------------|----------|
| Entrypoint   | 0x0392   |
| Data Size    | 14 bytes |
| Instructions | 4        |

```
      00 01 02 03 04 05 06 07  08 09 0A 0B 0C 0D 0E 0F
      -- -- -- -- -- -- -- --  -- -- -- -- -- -- -- --
0390:       32 23 80 1F 00 2D  80 2E 80 26 80 1F 01 00    2#...-...&....
```

#### Opcodes

```
  0: 0x0392 [0x32] ExtData[1]->MainSpeed = 40* * 0.1
  1: 0x0395 [0x1F] MOVE_ENTITY: EventEntity moves to X=-498.853*, Z=-478.897*, Y=-6.000*
  2: 0x039D [0x1F] MOVE_ENTITY: Update entity position (mode=1)
  3: 0x039F [0x00] END_REQSTACK()
```

### Event 65535.25

#### Metadata

| Field        | Value    |
|--------------|----------|
| Entrypoint   | 0x03A0   |
| Data Size    | 10 bytes |
| Instructions | 2        |

```
      00 01 02 03 04 05 06 07  08 09 0A 0B 0C 0D 0E 0F
      -- -- -- -- -- -- -- --  -- -- -- -- -- -- -- --
03A0: 6C F8 FF FF 7F 03 80 0D  80 00                    l.........      
```

#### Opcodes

```
  0: 0x03A0 [0x6C] FADE_ENTITY_COLOR(entity_id=EventEntity, end_alpha=0*, fade_time=1*)
  1: 0x03A9 [0x00] END_REQSTACK()
```

### Event 65535.26

#### Metadata

| Field        | Value    |
|--------------|----------|
| Entrypoint   | 0x03AA   |
| Data Size    | 10 bytes |
| Instructions | 2        |

```
      00 01 02 03 04 05 06 07  08 09 0A 0B 0C 0D 0E 0F
      -- -- -- -- -- -- -- --  -- -- -- -- -- -- -- --
03A0:                                6C F8 FF FF 7F 2F            l..../
03B0: 80 0D 80 00                                       ....            
```

#### Opcodes

```
  0: 0x03AA [0x6C] FADE_ENTITY_COLOR(entity_id=EventEntity, end_alpha=128*, fade_time=1*)
  1: 0x03B3 [0x00] END_REQSTACK()
```

### Event 65535.27

#### Metadata

| Field        | Value    |
|--------------|----------|
| Entrypoint   | 0x03B4   |
| Data Size    | 14 bytes |
| Instructions | 4        |

```
      00 01 02 03 04 05 06 07  08 09 0A 0B 0C 0D 0E 0F
      -- -- -- -- -- -- -- --  -- -- -- -- -- -- -- --
03B0:             32 23 80 1F  00 30 80 31 80 29 80 1F      2#...0.1.)..
03C0: 01 00                                             ..              
```

#### Opcodes

```
  0: 0x03B4 [0x32] ExtData[1]->MainSpeed = 40* * 0.1
  1: 0x03B7 [0x1F] MOVE_ENTITY: EventEntity moves to X=-560.286*, Z=-479.866*, Y=-5.500*
  2: 0x03BF [0x1F] MOVE_ENTITY: Update entity position (mode=1)
  3: 0x03C1 [0x00] END_REQSTACK()
```

### Event 65535.28

#### Metadata

| Field        | Value    |
|--------------|----------|
| Entrypoint   | 0x03C2   |
| Data Size    | 19 bytes |
| Instructions | 5        |

```
      00 01 02 03 04 05 06 07  08 09 0A 0B 0C 0D 0E 0F
      -- -- -- -- -- -- -- --  -- -- -- -- -- -- -- --
03C0:       32 23 80 1F 00 32  80 33 80 34 80 1F 01 1E    2#...2.3.4....
03D0: CA 50 11 01 00                                    .P...           
```

#### Opcodes

```
  0: 0x03C2 [0x32] ExtData[1]->MainSpeed = 40* * 0.1
  1: 0x03C5 [0x1F] MOVE_ENTITY: EventEntity moves to X=-546.635*, Z=-473.744*, Y=-5.772*
  2: 0x03CD [0x1F] MOVE_ENTITY: Update entity position (mode=1)
  3: 0x03CF [0x1E] EventEntity looks at Unnamed NPC (ID: 17912010/0x011150CA) and starts talking
  4: 0x03D4 [0x00] END_REQSTACK()
```

### Event 65535.29

#### Metadata

| Field        | Value    |
|--------------|----------|
| Entrypoint   | 0x03D5   |
| Data Size    | 19 bytes |
| Instructions | 5        |

```
      00 01 02 03 04 05 06 07  08 09 0A 0B 0C 0D 0E 0F
      -- -- -- -- -- -- -- --  -- -- -- -- -- -- -- --
03D0:                32 23 80  1F 00 35 80 36 80 37 80       2#...5.6.7.
03E0: 1F 01 1E CE 50 11 01 00                           ....P...        
```

#### Opcodes

```
  0: 0x03D5 [0x32] ExtData[1]->MainSpeed = 40* * 0.1
  1: 0x03D8 [0x1F] MOVE_ENTITY: EventEntity moves to X=-553.007*, Z=-467.267*, Y=-5.666*
  2: 0x03E0 [0x1F] MOVE_ENTITY: Update entity position (mode=1)
  3: 0x03E2 [0x1E] EventEntity looks at Unnamed NPC (ID: 17912014/0x011150CE) and starts talking
  4: 0x03E7 [0x00] END_REQSTACK()
```

### Event 65535.30

#### Metadata

| Field        | Value    |
|--------------|----------|
| Entrypoint   | 0x03E8   |
| Data Size    | 14 bytes |
| Instructions | 4        |

```
      00 01 02 03 04 05 06 07  08 09 0A 0B 0C 0D 0E 0F
      -- -- -- -- -- -- -- --  -- -- -- -- -- -- -- --
03E0:                          32 38 80 1F 00 39 80 3A          28...9.:
03F0: 80 29 80 1F 01 00                                 .)....          
```

#### Opcodes

```
  0: 0x03E8 [0x32] ExtData[1]->MainSpeed = 13* * 0.1
  1: 0x03EB [0x1F] MOVE_ENTITY: EventEntity moves to X=-543.239*, Z=-478.220*, Y=-5.500*
  2: 0x03F3 [0x1F] MOVE_ENTITY: Update entity position (mode=1)
  3: 0x03F5 [0x00] END_REQSTACK()
```

### Event 65535.31

#### Metadata

| Field        | Value    |
|--------------|----------|
| Entrypoint   | 0x03F6   |
| Data Size    | 29 bytes |
| Instructions | 5        |

```
      00 01 02 03 04 05 06 07  08 09 0A 0B 0C 0D 0E 0F
      -- -- -- -- -- -- -- --  -- -- -- -- -- -- -- --
03F0:                   03 03  00 07 7F 1A BF 01 07 04        ..........
0400: 00 10 80 66 04 00 F8 FF  FF 7F F8 FF FF 7F 64 61  ...f..........da
0410: 69 30 00                                          i0.             
```

#### Opcodes

```
  0: 0x03F6 [0x03] ExtData[1]->WorkLocal[3] = Entity->Race
  1: 0x03FB [0x1A] CALL_SUBROUTINE(address=0x01BF)
  2: 0x03FE [0x07] ExtData[1]->WorkLocal[4] += 2*
  3: 0x0403 [0x66] LOAD_EXT_SCHEDULER_MAIN: Load scheduler "dai0" with entities [EventEntity, EventEntity], work=ExtData[1]->WorkLocal[4]
  4: 0x0412 [0x00] END_REQSTACK()
```

### Event 65535.32

#### Metadata

| Field        | Value    |
|--------------|----------|
| Entrypoint   | 0x0413   |
| Data Size    | 24 bytes |
| Instructions | 4        |

```
      00 01 02 03 04 05 06 07  08 09 0A 0B 0C 0D 0E 0F
      -- -- -- -- -- -- -- --  -- -- -- -- -- -- -- --
0410:          03 03 00 07 7F  1A 9A 01 66 04 00 F8 FF     ........f....
0420: FF 7F F8 FF FF 7F 65 63  30 30 00                 ......ec00.     
```

#### Opcodes

```
  0: 0x0413 [0x03] ExtData[1]->WorkLocal[3] = Entity->Race
  1: 0x0418 [0x1A] CALL_SUBROUTINE(address=0x019A)
  2: 0x041B [0x66] LOAD_EXT_SCHEDULER_MAIN: Load scheduler "ec00" with entities [EventEntity, EventEntity], work=ExtData[1]->WorkLocal[4]
  3: 0x042A [0x00] END_REQSTACK()
```

### Event 65535.33

#### Metadata

| Field        | Value    |
|--------------|----------|
| Entrypoint   | 0x042B   |
| Data Size    | 24 bytes |
| Instructions | 4        |

```
      00 01 02 03 04 05 06 07  08 09 0A 0B 0C 0D 0E 0F
      -- -- -- -- -- -- -- --  -- -- -- -- -- -- -- --
0420:                                   03 03 00 07 7F             .....
0430: 1A BF 01 66 04 00 F8 FF  FF 7F F8 FF FF 7F 6D 61  ...f..........ma
0440: 62 30 00                                          b0.             
```

#### Opcodes

```
  0: 0x042B [0x03] ExtData[1]->WorkLocal[3] = Entity->Race
  1: 0x0430 [0x1A] CALL_SUBROUTINE(address=0x01BF)
  2: 0x0433 [0x66] LOAD_EXT_SCHEDULER_MAIN: Load scheduler "mab0" with entities [EventEntity, EventEntity], work=ExtData[1]->WorkLocal[4]
  3: 0x0442 [0x00] END_REQSTACK()
```

### Event 65535.34

#### Metadata

| Field        | Value    |
|--------------|----------|
| Entrypoint   | 0x0443   |
| Data Size    | 24 bytes |
| Instructions | 4        |

```
      00 01 02 03 04 05 06 07  08 09 0A 0B 0C 0D 0E 0F
      -- -- -- -- -- -- -- --  -- -- -- -- -- -- -- --
0440:          03 03 00 07 7F  1A BF 01 66 04 00 F8 FF     ........f....
0450: FF 7F F8 FF FF 7F 6D 61  62 31 00                 ......mab1.     
```

#### Opcodes

```
  0: 0x0443 [0x03] ExtData[1]->WorkLocal[3] = Entity->Race
  1: 0x0448 [0x1A] CALL_SUBROUTINE(address=0x01BF)
  2: 0x044B [0x66] LOAD_EXT_SCHEDULER_MAIN: Load scheduler "mab1" with entities [EventEntity, EventEntity], work=ExtData[1]->WorkLocal[4]
  3: 0x045A [0x00] END_REQSTACK()
```

### Event 65535.35

#### Metadata

| Field        | Value    |
|--------------|----------|
| Entrypoint   | 0x045B   |
| Data Size    | 24 bytes |
| Instructions | 4        |

```
      00 01 02 03 04 05 06 07  08 09 0A 0B 0C 0D 0E 0F
      -- -- -- -- -- -- -- --  -- -- -- -- -- -- -- --
0450:                                   03 03 00 07 7F             .....
0460: 1A 9A 01 66 04 00 F8 FF  FF 7F F8 FF FF 7F 61 74  ...f..........at
0470: 70 30 00                                          p0.             
```

#### Opcodes

```
  0: 0x045B [0x03] ExtData[1]->WorkLocal[3] = Entity->Race
  1: 0x0460 [0x1A] CALL_SUBROUTINE(address=0x019A)
  2: 0x0463 [0x66] LOAD_EXT_SCHEDULER_MAIN: Load scheduler "atp0" with entities [EventEntity, EventEntity], work=ExtData[1]->WorkLocal[4]
  3: 0x0472 [0x00] END_REQSTACK()
```

### Event 65535.36

#### Metadata

| Field        | Value   |
|--------------|---------|
| Entrypoint   | 0x0473  |
| Data Size    | 3 bytes |
| Instructions | 2       |

```
      00 01 02 03 04 05 06 07  08 09 0A 0B 0C 0D 0E 0F
      -- -- -- -- -- -- -- --  -- -- -- -- -- -- -- --
0470:          AB 08 00                                    ...          
```

#### Opcodes

```
  0: 0x0473 [0xAB] EventEntity->Render.Flags2 |= 0x02 // Set bit 1
  1: 0x0475 [0x00] END_REQSTACK()
```

### Event 65535.37

#### Metadata

| Field        | Value   |
|--------------|---------|
| Entrypoint   | 0x0476  |
| Data Size    | 3 bytes |
| Instructions | 2       |

```
      00 01 02 03 04 05 06 07  08 09 0A 0B 0C 0D 0E 0F
      -- -- -- -- -- -- -- --  -- -- -- -- -- -- -- --
0470:                   AB 07  00                             ...       
```

#### Opcodes

```
  0: 0x0476 [0xAB] EventEntity->Render.Flags2 |= 0x01 // Set bit 0
  1: 0x0478 [0x00] END_REQSTACK()
```

### Event 65535.38

#### Metadata

| Field        | Value   |
|--------------|---------|
| Entrypoint   | 0x0479  |
| Data Size    | 6 bytes |
| Instructions | 2       |

```
      00 01 02 03 04 05 06 07  08 09 0A 0B 0C 0D 0E 0F
      -- -- -- -- -- -- -- --  -- -- -- -- -- -- -- --
0470:                             03 02 10 0B 7F 00              ...... 
```

#### Opcodes

```
  0: 0x0479 [0x03] Work_Zone[2] = (Entity->Render.Flags01 >> 25) & 1
  1: 0x047E [0x00] END_REQSTACK()
```

### Event 65535.39

#### Metadata

| Field        | Value   |
|--------------|---------|
| Entrypoint   | 0x047F  |
| Data Size    | 6 bytes |
| Instructions | 2       |

```
      00 01 02 03 04 05 06 07  08 09 0A 0B 0C 0D 0E 0F
      -- -- -- -- -- -- -- --  -- -- -- -- -- -- -- --
0470:                                               03                 .
0480: 02 10 07 7F 00                                    .....           
```

#### Opcodes

```
  0: 0x047F [0x03] Work_Zone[2] = Entity->Race
  1: 0x0484 [0x00] END_REQSTACK()
```

### Event 65535.40

#### Metadata

| Field        | Value   |
|--------------|---------|
| Entrypoint   | 0x0485  |
| Data Size    | 6 bytes |
| Instructions | 2       |

```
      00 01 02 03 04 05 06 07  08 09 0A 0B 0C 0D 0E 0F
      -- -- -- -- -- -- -- --  -- -- -- -- -- -- -- --
0480:                03 09 10  07 7F 00                      ......     
```

#### Opcodes

```
  0: 0x0485 [0x03] Work_Zone[9] = Entity->Race
  1: 0x048A [0x00] END_REQSTACK()
```

### Event 65535.41

#### Metadata

| Field        | Value   |
|--------------|---------|
| Entrypoint   | 0x048B  |
| Data Size    | 6 bytes |
| Instructions | 2       |

```
      00 01 02 03 04 05 06 07  08 09 0A 0B 0C 0D 0E 0F
      -- -- -- -- -- -- -- --  -- -- -- -- -- -- -- --
0480:                                   03 02 10 06 7F             .....
0490: 00                                                .               
```

#### Opcodes

```
  0: 0x048B [0x03] Work_Zone[2] = Entity->JobId (if LocalPlayer)
  1: 0x0490 [0x00] END_REQSTACK()
```

### Event 65535.42

#### Metadata

| Field        | Value    |
|--------------|----------|
| Entrypoint   | 0x0491   |
| Data Size    | 27 bytes |
| Instructions | 3        |

```
      00 01 02 03 04 05 06 07  08 09 0A 0B 0C 0D 0E 0F
      -- -- -- -- -- -- -- --  -- -- -- -- -- -- -- --
0490:    2C F8 FF FF 7F F8 FF  FF 7F 63 6F 72 70 53 F8   ,........corpS.
04A0: FF FF 7F F8 FF FF 7F 63  6F 72 70 00              .......corp.    
```

#### Opcodes

```
  0: 0x0491 [0x2C] CREATE_SCHEDULER_TASK: Create scheduler "corp" with entities [EventEntity, EventEntity]
  1: 0x049E [0x53] WAIT_SCHEDULER_TASK: Wait for scheduler "corp" with entities [EventEntity, EventEntity]
  2: 0x04AB [0x00] END_REQSTACK()
```

### Event 65535.43

#### Metadata

| Field        | Value    |
|--------------|----------|
| Entrypoint   | 0x04AC   |
| Data Size    | 10 bytes |
| Instructions | 2        |

```
      00 01 02 03 04 05 06 07  08 09 0A 0B 0C 0D 0E 0F
      -- -- -- -- -- -- -- --  -- -- -- -- -- -- -- --
04A0:                                      37 07 80 3B              7..;
04B0: 80 3C 80 06 80 00                                 .<....          
```

#### Opcodes

```
  0: 0x04AC [0x37] UPDATE_EVENT_POSITION_AND_DIR: x=60.000*, z=20.000*, y=-30.000*, direction=180.0째*
  1: 0x04B5 [0x00] END_REQSTACK()
```

### Event 65535.44

#### Metadata

| Field        | Value    |
|--------------|----------|
| Entrypoint   | 0x04B6   |
| Data Size    | 14 bytes |
| Instructions | 4        |

```
      00 01 02 03 04 05 06 07  08 09 0A 0B 0C 0D 0E 0F
      -- -- -- -- -- -- -- --  -- -- -- -- -- -- -- --
04B0:                   32 38  80 1F 00 3D 80 3B 80 3C        28...=.;.<
04C0: 80 1F 01 00                                       ....            
```

#### Opcodes

```
  0: 0x04B6 [0x32] ExtData[1]->MainSpeed = 13* * 0.1
  1: 0x04B9 [0x1F] MOVE_ENTITY: EventEntity moves to X=58.000*, Z=20.000*, Y=-30.000*
  2: 0x04C1 [0x1F] MOVE_ENTITY: Update entity position (mode=1)
  3: 0x04C3 [0x00] END_REQSTACK()
```

### Event 65535.45

#### Metadata

| Field        | Value    |
|--------------|----------|
| Entrypoint   | 0x04C4   |
| Data Size    | 53 bytes |
| Instructions | 12       |

```
      00 01 02 03 04 05 06 07  08 09 0A 0B 0C 0D 0E 0F
      -- -- -- -- -- -- -- --  -- -- -- -- -- -- -- --
04C0:             33 01 03 00  00 3C 80 03 01 00 3E 80      3....<....>.
04D0: 06 02 00 02 02 00 03 80  00 F8 04 02 00 00 3F 80  ..............?.
04E0: 03 E6 04 05 02 00 08 00  00 01 00 36 3D 80 3B 80  ...........6=.;.
04F0: 00 00 1C 0D 80 01 D3 04  00                       .........       
```

#### Opcodes

```
  0: 0x04C4 [0x33] EventEntity->Render.Flags0 |= 0x200000 // Bit 21 (flag=0x01)
  1: 0x04C6 [0x03] ExtData[1]->WorkLocal[0] = 4294937296*
  2: 0x04CB [0x03] ExtData[1]->WorkLocal[1] = 38*
  3: 0x04D0 [0x06] ExtData[1]->WorkLocal[2] = 0
  4: 0x04D3 [0x02] IF !(ExtData[1]->WorkLocal[2] == 0*) GOTO 0x04F8
  5: 0x04DB [0x02] IF !(ExtData[1]->WorkLocal[0] >= 4294936296*) GOTO 0x04E6
  6: 0x04E3 [0x05] ExtData[1]->WorkLocal[2] = 1
  7: 0x04E6 [0x08] ExtData[1]->WorkLocal[0] -= ExtData[1]->WorkLocal[1]
  8: 0x04EB [0x36] SET_ENTITY_EVENT_POSITION(pos_x=58.000*, pos_z=20.000*, pos_y=ExtData[1]->WorkLocal[0])
  9: 0x04F2 [0x1C] WAIT(1* ticks)
 10: 0x04F5 [0x01] GOTO 0x04D3
 11: 0x04F8 [0x00] END_REQSTACK()
```

### Event 65535.46

#### Metadata

| Field        | Value   |
|--------------|---------|
| Entrypoint   | 0x04F9  |
| Data Size    | 3 bytes |
| Instructions | 2       |

```
      00 01 02 03 04 05 06 07  08 09 0A 0B 0C 0D 0E 0F
      -- -- -- -- -- -- -- --  -- -- -- -- -- -- -- --
04F0:                             33 00 00                       3..    
```

#### Opcodes

```
  0: 0x04F9 [0x33] EventEntity->Render.Flags0 &= ~ 0x200000 // Bit 21 (flag=0x00)
  1: 0x04FB [0x00] END_REQSTACK()
```

### Event 32000

#### Metadata

| Field        | Value      |
|--------------|------------|
| Entrypoint   | 0x04FC     |
| Data Size    | 2255 bytes |
| Instructions | 306        |

```
      00 01 02 03 04 05 06 07  08 09 0A 0B 0C 0D 0E 0F
      -- -- -- -- -- -- -- --  -- -- -- -- -- -- -- --
04F0:                                      20 01 79 00               .y.
0500: F0 FF FF 7F F0 FF FF 7F  03 07 00 02 10 03 08 00  ................
0510: 03 10 03 0A 00 05 10 03  13 00 06 10 03 14 00 07  ................
0520: 10 03 15 00 08 10 41 03  80 40 80 09 10 0B 00 41  ......A..@.....A
0530: 41 80 42 80 09 10 06 10  06 06 00 02 0B 00 03 80  A.B.............
0540: 00 3A 06 03 0C 00 43 80  0F 0C 00 0A 00 10 0C 00  .:....C.........
0550: 0D 80 24 44 80 03 80 0C  00 25 02 00 10 03 80 00  ..$D.....%......
0560: 68 05 01 B0 0D 01 3A 06  03 08 00 00 10 0C 08 00  h.....:.........
0570: 06 1A 00 06 17 00 3E 13  00 08 00 16 06 06 13 00  ......>.........
0580: 06 0C 00 3E 15 00 08 00  8D 05 01 94 05 3C 0C 00  ...>.........<..
0590: 03 80 0D 80 3E 14 00 08  00 9E 05 01 A5 05 3C 0C  ....>.........<.
05A0: 00 0D 80 0D 80 1A 58 13  24 45 80 12 80 0C 00 25  ......X.$E.....%
05B0: 02 00 10 03 80 00 C0 05  03 13 00 0D 80 01 13 06  ................
05C0: 02 00 10 0D 80 00 D0 05  03 13 00 10 80 01 13 06  ................
05D0: 02 00 10 10 80 00 E0 05  03 13 00 46 80 01 13 06  ...........F....
05E0: 02 00 10 46 80 00 F0 05  03 13 00 47 80 01 13 06  ...F.......G....
05F0: 02 00 10 47 80 00 00 06  03 13 00 12 80 01 13 06  ...G............
0600: 02 00 10 12 80 00 0E 06  01 B0 0D 01 13 06 03 13  ................
0610: 00 46 80 01 3A 06 06 13  00 1A CA 0D 02 1A 00 0D  .F..:...........
0620: 80 00 3A 06 24 48 80 0D  80 03 80 25 02 00 10 0D  ..:.$H.....%....
0630: 80 00 3A 06 01 B0 0D 01  3A 06 42 03 01 10 49 80  ..:.....:.B...I.
0640: 43 00 43 01 06 01 10 45  0B 80 F0 FF FF 7F F0 FF  C.C....E........
0650: FF 7F 66 64 6F 31 03 80  55 0B 80 F0 FF FF 7F F0  ..fdo1..U.......
0660: FF FF 7F 66 64 6F 31 3B  F0 FF FF 7F 20 10 21 10  ...fdo1;.... .!.
0670: 22 10 38 08 80 02 0B 00  0D 80 00 94 06 03 05 00  ".8.............
0680: 0D 80 03 09 00 08 00 03  07 00 03 80 03 20 00 03  ............. ..
0690: 80 01 EE 0A 03 05 00 0D  80 02 05 00 12 80 05 79  ...............y
06A0: 0D 40 03 80 46 80 01 10  05 00 40 47 80 09 80 01  .@..F.....@G....
06B0: 10 08 00 40 13 80 4A 80  01 10 13 00 06 02 10 06  ...@..J.........
06C0: 03 10 06 04 10 02 05 00  0D 80 80 E4 06 03 0D 00  ................
06D0: 4B 80 03 0E 00 4C 80 03  0F 00 4D 80 03 10 00 06  K....L....M.....
06E0: 80 01 60 07 02 05 00 10  80 80 03 07 03 0D 00 4B  ..`............K
06F0: 80 03 0E 00 03 80 03 0F  00 4E 80 03 10 00 06 80  .........N......
0700: 01 60 07 02 05 00 46 80  80 22 07 03 0D 00 4B 80  .`....F.."....K.
0710: 03 0E 00 4F 80 03 0F 00  4D 80 03 10 00 06 80 01  ...O....M.......
0720: 60 07 02 05 00 47 80 80  41 07 03 0D 00 50 80 03  `....G..A....P..
0730: 0E 00 4C 80 03 0F 00 4D  80 03 10 00 06 80 01 60  ..L....M.......`
0740: 07 02 05 00 12 80 80 60  07 03 0D 00 50 80 03 0E  .......`....P...
0750: 00 03 80 03 0F 00 4E 80  03 10 00 06 80 01 60 07  ......N.......`.
0760: 47 00 0D 00 0E 00 0F 00  10 00 47 01 03 09 00 03  G.........G.....
0770: 10 03 07 00 04 10 03 1E  00 05 10 03 11 00 06 10  ................
0780: 03 12 00 07 10 03 20 00  09 10 02 02 10 0D 80 80  ...... .........
0790: 95 07 01 73 0D 02 02 10  47 80 80 EE 07 02 05 00  ...s....G.......
07A0: 0D 80 80 AC 07 48 51 80  23 01 E8 07 02 05 00 10  .....HQ.#.......
07B0: 80 80 BB 07 48 52 80 23  01 E8 07 02 05 00 46 80  ....HR.#......F.
07C0: 80 CA 07 48 53 80 23 01  E8 07 02 05 00 47 80 80  ...HS.#......G..
07D0: D9 07 48 54 80 23 01 E8  07 02 05 00 12 80 80 E8  ..HT.#..........
07E0: 07 48 55 80 23 01 E8 07  01 7D 0D 01 73 0D 02 02  .HU.#....}..s...
07F0: 10 12 80 80 00 08 48 56  80 23 01 7D 0D 01 73 0D  ......HV.#.}..s.
0800: 02 02 10 57 80 80 02 0A  02 09 00 03 80 80 18 08  ...W............
0810: 03 05 10 57 80 01 F8 09  02 09 00 0D 80 80 28 08  ...W..........(.
0820: 03 05 10 57 80 01 F8 09  02 09 00 10 80 80 38 08  ...W..........8.
0830: 03 05 10 57 80 01 F8 09  02 09 00 46 80 80 48 08  ...W.......F..H.
0840: 03 05 10 57 80 01 F8 09  02 09 00 47 80 80 58 08  ...W.......G..X.
0850: 03 05 10 57 80 01 F8 09  02 09 00 12 80 80 68 08  ...W..........h.
0860: 03 05 10 57 80 01 F8 09  02 09 00 57 80 80 78 08  ...W.......W..x.
0870: 03 05 10 57 80 01 F8 09  02 09 00 16 80 80 88 08  ...W............
0880: 03 05 10 57 80 01 F8 09  02 09 00 09 80 80 98 08  ...W............
0890: 03 05 10 03 80 01 F8 09  02 09 00 13 80 80 A8 08  ................
08A0: 03 05 10 03 80 01 F8 09  02 09 00 0A 80 80 B8 08  ................
08B0: 03 05 10 03 80 01 F8 09  02 09 00 4A 80 80 C8 08  ...........J....
08C0: 03 05 10 03 80 01 F8 09  02 09 00 58 80 80 D8 08  ...........X....
08D0: 03 05 10 03 80 01 F8 09  02 09 00 38 80 80 E8 08  ...........8....
08E0: 03 05 10 03 80 01 F8 09  02 09 00 59 80 80 F8 08  ...........Y....
08F0: 03 05 10 03 80 01 F8 09  02 09 00 40 80 80 08 09  ...........@....
0900: 03 05 10 03 80 01 F8 09  02 09 00 41 80 80 18 09  ...........A....
0910: 03 05 10 03 80 01 F8 09  02 09 00 5A 80 80 28 09  ...........Z..(.
0920: 03 05 10 03 80 01 F8 09  02 09 00 5B 80 80 38 09  ...........[..8.
0930: 03 05 10 03 80 01 F8 09  02 09 00 08 80 80 48 09  ..............H.
0940: 03 05 10 03 80 01 F8 09  02 09 00 0C 80 80 58 09  ..............X.
0950: 03 05 10 03 80 01 F8 09  02 09 00 5C 80 80 68 09  ...........\..h.
0960: 03 05 10 03 80 01 F8 09  02 09 00 5D 80 80 78 09  ...........]..x.
0970: 03 05 10 03 80 01 F8 09  02 09 00 5E 80 80 88 09  ...........^....
0980: 03 05 10 03 80 01 F8 09  02 09 00 1B 80 80 98 09  ................
0990: 03 05 10 03 80 01 F8 09  02 09 00 2A 80 80 A8 09  ...........*....
09A0: 03 05 10 03 80 01 F8 09  02 09 00 5F 80 80 B8 09  ..........._....
09B0: 03 05 10 03 80 01 F8 09  02 09 00 60 80 80 C8 09  ...........`....
09C0: 03 05 10 03 80 01 F8 09  02 09 00 61 80 80 D8 09  ...........a....
09D0: 03 05 10 03 80 01 F8 09  02 09 00 62 80 80 E8 09  ...........b....
09E0: 03 05 10 03 80 01 F8 09  02 09 00 63 80 80 F8 09  ...........c....
09F0: 03 05 10 03 80 01 F8 09  48 64 80 23 01 7D 0D 01  ........Hd.#.}..
0A00: 73 0D 02 02 10 46 80 80  10 0A 01 94 06 01 73 0D  s....F........s.
0A10: 02 02 10 10 80 80 73 0D  02 11 00 03 80 01 A4 0A  ......s.........
0A20: 02 17 00 03 80 01 58 0A  03 05 10 1E 00 02 1E 00  ......X.........
0A30: 03 80 02 35 0A 02 11 00  0D 80 05 44 0A 48 65 80  ...5.......D.He.
0A40: 23 01 55 0A 03 06 10 11  00 0C 06 10 03 07 10 11  #.U.............
0A50: 00 48 66 80 23 01 A4 0A  03 05 10 1E 00 02 1E 00  .Hf.#...........
0A60: 03 80 02 84 0A 02 1E 00  0F 80 04 80 0A 3F 04 10  .............?..
0A70: 05 10 0F 80 15 05 10 0F  80 48 67 80 23 01 84 0A  .........Hg.#...
0A80: 48 68 80 23 02 11 00 0D  80 05 93 0A 48 65 80 23  Hh.#........He.#
0A90: 01 A4 0A 03 06 10 11 00  0C 06 10 03 07 10 11 00  ................
0AA0: 48 66 80 23 03 08 00 09  00 03 18 00 22 80 07 18  Hf.#........"...
0AB0: 00 08 00 02 07 00 18 00  00 C3 0A 03 07 00 0D 80  ................
0AC0: 01 C8 0A 03 07 00 03 80  02 07 00 03 80 00 EE 0A  ................
0AD0: 02 12 00 0D 80 00 EE 0A  24 69 80 0D 80 03 80 25  ........$i.....%
0AE0: 02 00 10 03 80 00 EE 0A  05 07 00 01 EE 0A 06 19  ................
0AF0: 00 02 09 00 03 80 80 01  0B 03 19 00 03 80 01 E6  ................
0B00: 0C 02 09 00 0D 80 80 11  0B 03 19 00 03 80 01 E6  ................
0B10: 0C 02 09 00 10 80 80 21  0B 03 19 00 03 80 01 E6  .......!........
0B20: 0C 02 09 00 46 80 80 31  0B 03 19 00 03 80 01 E6  ....F..1........
0B30: 0C 02 09 00 47 80 80 41  0B 03 19 00 03 80 01 E6  ....G..A........
0B40: 0C 02 09 00 12 80 80 51  0B 03 19 00 03 80 01 E6  .......Q........
0B50: 0C 02 09 00 57 80 80 61  0B 03 19 00 03 80 01 E6  ....W..a........
0B60: 0C 02 09 00 16 80 80 71  0B 03 19 00 0D 80 01 E6  .......q........
0B70: 0C 02 09 00 09 80 80 81  0B 03 19 00 03 80 01 E6  ................
0B80: 0C 02 09 00 13 80 80 91  0B 03 19 00 03 80 01 E6  ................
0B90: 0C 02 09 00 0A 80 80 A1  0B 03 19 00 03 80 01 E6  ................
0BA0: 0C 02 09 00 4A 80 80 B1  0B 03 19 00 03 80 01 E6  ....J...........
0BB0: 0C 02 09 00 58 80 80 C1  0B 03 19 00 03 80 01 E6  ....X...........
0BC0: 0C 02 09 00 38 80 80 D1  0B 03 19 00 03 80 01 E6  ....8...........
0BD0: 0C 02 09 00 59 80 80 E1  0B 03 19 00 03 80 01 E6  ....Y...........
0BE0: 0C 02 09 00 40 80 80 F1  0B 03 19 00 03 80 01 E6  ....@...........
0BF0: 0C 02 09 00 41 80 80 01  0C 03 19 00 03 80 01 E6  ....A...........
0C00: 0C 02 09 00 5A 80 80 11  0C 03 19 00 03 80 01 E6  ....Z...........
0C10: 0C 02 09 00 5B 80 80 21  0C 03 19 00 03 80 01 E6  ....[..!........
0C20: 0C 02 09 00 08 80 80 31  0C 03 19 00 03 80 01 E6  .......1........
0C30: 0C 02 09 00 0C 80 80 41  0C 03 19 00 03 80 01 E6  .......A........
0C40: 0C 02 09 00 5C 80 80 51  0C 03 19 00 03 80 01 E6  ....\..Q........
0C50: 0C 02 09 00 5D 80 80 61  0C 03 19 00 03 80 01 E6  ....]..a........
0C60: 0C 02 09 00 5E 80 80 71  0C 03 19 00 03 80 01 E6  ....^..q........
0C70: 0C 02 09 00 1B 80 80 81  0C 03 19 00 03 80 01 E6  ................
0C80: 0C 02 09 00 2A 80 80 91  0C 03 19 00 03 80 01 E6  ....*...........
0C90: 0C 02 09 00 5F 80 80 A1  0C 03 19 00 03 80 01 E6  ...._...........
0CA0: 0C 02 09 00 60 80 80 B1  0C 03 19 00 03 80 01 E6  ....`...........
0CB0: 0C 02 09 00 61 80 80 C1  0C 03 19 00 03 80 01 E6  ....a...........
0CC0: 0C 02 09 00 62 80 80 D1  0C 03 19 00 03 80 01 E6  ....b...........
0CD0: 0C 02 09 00 63 80 80 E1  0C 03 19 00 03 80 01 E6  ....c...........
0CE0: 0C 03 19 00 03 80 02 07  00 0D 80 00 01 0D 5C 00  ..............\.
0CF0: 6A 80 5C 01 6A 80 5C 02  6A 80 5C 03 6A 80 01 19  j.\.j.\.j.\.j...
0D00: 0D 02 19 00 03 80 00 19  0D 5C 00 6A 80 5C 01 6A  .........\.j.\.j
0D10: 80 5C 02 6A 80 5C 03 6A  80 1A 64 13 02 07 00 03  .\.j.\.j..d.....
0D20: 80 00 2A 0D 1A 0E 12 01  63 0D 6C F0 FF FF 7F 03  ..*.....c.l.....
0D30: 80 0D 80 62 10 80 F0 FF  FF 7F F0 FF FF 7F 6D 61  ...b..........ma
0D40: 69 6E 03 80 45 0B 80 F0  FF FF 7F F0 FF FF 7F 6F  in..E..........o
0D50: 76 6C 31 03 80 46 02 16  00 02 16 00 03 80 00 63  vl1..F.........c
0D60: 0D 46 00 03 01 10 22 80  07 01 10 08 00 01 7D 0D  .F....".......}.
0D70: 01 73 0D 0B 05 00 01 99  06 48 6B 80 23 45 1A 80  .s.......Hk.#E..
0D80: F0 FF FF 7F F0 FF FF 7F  77 68 69 31 03 80 45 0B  ........whi1..E.
0D90: 80 F0 FF FF 7F F0 FF FF  7F 62 6C 6F 66 03 80 45  .........blof..E
0DA0: 0B 80 F0 FF FF 7F F0 FF  FF 7F 66 64 69 30 03 80  ..........fdi0..
0DB0: 02 0B 00 0D 80 00 C8 0D  5C 00 03 80 5C 01 03 80  ........\...\...
0DC0: 5C 02 6A 80 5C 03 6A 80  21 00 1B                 \.j.\.j.!..     
```

#### Opcodes

```
  0: 0x04FC [0x20] SET_CLI_EVENT_UC_FLAG: Lock player control
  1: 0x04FE [0x79] LocalPlayer looks at LocalPlayer (Basic look)
  2: 0x0508 [0x03] ExtData[1]->WorkLocal[7] = Work_Zone[2]
  3: 0x050D [0x03] ExtData[1]->WorkLocal[8] = Work_Zone[3]
  4: 0x0512 [0x03] ExtData[1]->WorkLocal[10] = Work_Zone[5]
  5: 0x0517 [0x03] ExtData[1]->WorkLocal[19] = Work_Zone[6]
  6: 0x051C [0x03] ExtData[1]->WorkLocal[20] = Work_Zone[7]
  7: 0x0521 [0x03] ExtData[1]->WorkLocal[21] = Work_Zone[8]
  8: 0x0526 [0x41] ExtData[1]->WorkLocal[11] = Work_Zone[9] (bits 0*-15*)
  9: 0x052F [0x41] Work_Zone[6] = Work_Zone[9] (bits 16*-31*)
 10: 0x0538 [0x06] ExtData[1]->WorkLocal[6] = 0
 11: 0x053B [0x02] IF !(ExtData[1]->WorkLocal[11] == 0*) GOTO 0x063A
 12: 0x0543 [0x03] ExtData[1]->WorkLocal[12] = 4294967295*
 13: 0x0548 [0x0F] ExtData[1]->WorkLocal[12] ^= ExtData[1]->WorkLocal[10]
 14: 0x054D [0x10] ExtData[1]->WorkLocal[12] <<= 1*
 15: 0x0552 [0x24] CREATE_DIALOG(message_id=8444*, default_option=0*, option_flags=ExtData[1]->WorkLocal[12])
     "$P16?$P16qL Which battlefield will you enter? [None./Reckoning./Abomination./Vagary: Putraxia. (Difficulty: 128)/Vagary: Rancibus. (Difficulty: 128)/Vagary: Palloritus. (Difficulty: 128)/Vagary: Perfidien. (Difficulty: 130)/Vagary: Plouton. (Difficulty: 132)/Oathblade./]"
 16: 0x0559 [0x25] WAIT_DIALOG_SELECT()
 17: 0x055A [0x02] IF !(Work_Zone[0] == 0*) GOTO 0x0568
 18: 0x0562 [0x01] GOTO 0x0DB0

SUBROUTINE_0594:
 19: 0x0594 [0x3E] IF !(ExtData[1]->WorkLocal[20] bit ExtData[1]->WorkLocal[8]) GOTO 0x059E
 20: 0x059B [0x01] GOTO 0x05A5
 21: 0x059E [0x3C] SET_BIT_FLAG_CONDITIONAL(target_work_offset=ExtData[1]->WorkLocal[12], bit_index_work_offset=1*, condition_work_offset=1*)

SUBROUTINE_05A5:
 22: 0x05A5 [0x1A] CALL_SUBROUTINE(address=0x1358)
 23: 0x05A8 [0x24] CREATE_DIALOG(message_id=8057*, default_option=5*, option_flags=ExtData[1]->WorkLocal[12])
     "Select difficulty. [Very difficult. (Level: ???)/Difficult. (Level: ???)/Normal. (Level: $18)/Easy. (Level: $17)/Very Easy. (Level: $16)/Leave.]"
 24: 0x05AF [0x25] WAIT_DIALOG_SELECT()
 25: 0x05B0 [0x02] IF !(Work_Zone[0] == 0*) GOTO 0x05C0
 26: 0x05B8 [0x03] ExtData[1]->WorkLocal[19] = 1*
 27: 0x05BD [0x01] GOTO 0x0613
 28: 0x05C0 [0x02] IF !(Work_Zone[0] == 1*) GOTO 0x05D0
 29: 0x05C8 [0x03] ExtData[1]->WorkLocal[19] = 2*
 30: 0x05CD [0x01] GOTO 0x0613
 31: 0x05D0 [0x02] IF !(Work_Zone[0] == 2*) GOTO 0x05E0
 32: 0x05D8 [0x03] ExtData[1]->WorkLocal[19] = 3*
 33: 0x05DD [0x01] GOTO 0x0613
 34: 0x05E0 [0x02] IF !(Work_Zone[0] == 3*) GOTO 0x05F0
 35: 0x05E8 [0x03] ExtData[1]->WorkLocal[19] = 4*
 36: 0x05ED [0x01] GOTO 0x0613
 37: 0x05F0 [0x02] IF !(Work_Zone[0] == 4*) GOTO 0x0600
 38: 0x05F8 [0x03] ExtData[1]->WorkLocal[19] = 5*
 39: 0x05FD [0x01] GOTO 0x0613
 40: 0x0600 [0x02] IF !(Work_Zone[0] == 5*) GOTO 0x060E
 41: 0x0608 [0x01] GOTO 0x0DB0

SUBROUTINE_0613:
 42: 0x0613 [0x01] GOTO 0x063A
 43: 0x0616 [0x06] ExtData[1]->WorkLocal[19] = 0
 44: 0x0619 [0x1A] CALL_SUBROUTINE(address=0x0DCA)
 45: 0x061C [0x02] IF !(ExtData[1]->WorkLocal[26] == 1*) GOTO 0x063A
 46: 0x0624 [0x24] CREATE_DIALOG(message_id=7692*, default_option=1*, option_flags=0*)
     "Enter the battlefield? [Enter./Decline.]"
 47: 0x062B [0x25] WAIT_DIALOG_SELECT()
 48: 0x062C [0x02] IF !(Work_Zone[0] == 1*) GOTO 0x063A
 49: 0x0634 [0x01] GOTO 0x0DB0

SUBROUTINE_063A:
 50: 0x063A [0x42] SET_CLI_EVENT_CANCEL_DATA()
 51: 0x063B [0x03] Work_Zone[1] = 255*
 52: 0x0640 [0x43] SEND_EVENT_UPDATE: Send pending tag to server (packet 0x005B)
 53: 0x0642 [0x43] SEND_EVENT_UPDATE: Check pending flag (skip if not pending)
 54: 0x0644 [0x06] Work_Zone[1] = 0
 55: 0x0647 [0x45] LOAD_SCHEDULED_TASK: Load scheduler "fdo1" with entities [LocalPlayer, LocalPlayer], work=[200*, 0*]
 56: 0x0658 [0x55] WAIT_LOAD_SCHEDULER: Wait for scheduler "fdo1" with entities [LocalPlayer, LocalPlayer], work=200*
 57: 0x0667 [0x3B] GET_ENTITY_POSITION(entity=LocalPlayer, x_destination=Work_Zone[32], y_destination=Work_Zone[33], z_destination=Work_Zone[34])
 58: 0x0672 [0x38] SET_CLIENT_EVENT_MODE(mode=19*)
 59: 0x0675 [0x02] IF !(ExtData[1]->WorkLocal[11] == 1*) GOTO 0x0694
 60: 0x067D [0x03] ExtData[1]->WorkLocal[5] = 1*
 61: 0x0682 [0x03] ExtData[1]->WorkLocal[9] = ExtData[1]->WorkLocal[8]
 62: 0x0687 [0x03] ExtData[1]->WorkLocal[7] = 0*
 63: 0x068C [0x03] ExtData[1]->WorkLocal[32] = 0*
 64: 0x0691 [0x01] GOTO 0x0AEE

SUBROUTINE_0694:
 65: 0x0694 [0x03] ExtData[1]->WorkLocal[5] = 1*

SUBROUTINE_0699:
 66: 0x0699 [0x02] IF !(ExtData[1]->WorkLocal[5] > 5*) GOTO 0x0D79
 67: 0x06A1 [0x40] SET_BIT_WORK_RANGE(start_bit=0*, end_bit=3*, target=Work_Zone[1], source=ExtData[1]->WorkLocal[5])
 68: 0x06AA [0x40] SET_BIT_WORK_RANGE(start_bit=4*, end_bit=8*, target=Work_Zone[1], source=ExtData[1]->WorkLocal[8])
 69: 0x06B3 [0x40] SET_BIT_WORK_RANGE(start_bit=9*, end_bit=11*, target=Work_Zone[1], source=ExtData[1]->WorkLocal[19])
 70: 0x06BC [0x06] Work_Zone[2] = 0
 71: 0x06BF [0x06] Work_Zone[3] = 0
 72: 0x06C2 [0x06] Work_Zone[4] = 0
 73: 0x06C5 [0x02] IF !(ExtData[1]->WorkLocal[5] == 1*) GOTO 0x06E4
 74: 0x06CD [0x03] ExtData[1]->WorkLocal[13] = 750000*
 75: 0x06D2 [0x03] ExtData[1]->WorkLocal[14] = 480000*
 76: 0x06D7 [0x03] ExtData[1]->WorkLocal[15] = 4294561296*
 77: 0x06DC [0x03] ExtData[1]->WorkLocal[16] = 2048*
 78: 0x06E1 [0x01] GOTO 0x0760
 79: 0x06E4 [0x02] IF !(ExtData[1]->WorkLocal[5] == 2*) GOTO 0x0703
 80: 0x06EC [0x03] ExtData[1]->WorkLocal[13] = 750000*
 81: 0x06F1 [0x03] ExtData[1]->WorkLocal[14] = 0*
 82: 0x06F6 [0x03] ExtData[1]->WorkLocal[15] = 394000*
 83: 0x06FB [0x03] ExtData[1]->WorkLocal[16] = 2048*
 84: 0x0700 [0x01] GOTO 0x0760
 85: 0x0703 [0x02] IF !(ExtData[1]->WorkLocal[5] == 3*) GOTO 0x0722
 86: 0x070B [0x03] ExtData[1]->WorkLocal[13] = 750000*
 87: 0x0710 [0x03] ExtData[1]->WorkLocal[14] = 4294487296*
 88: 0x0715 [0x03] ExtData[1]->WorkLocal[15] = 4294561296*
 89: 0x071A [0x03] ExtData[1]->WorkLocal[16] = 2048*
 90: 0x071F [0x01] GOTO 0x0760
 91: 0x0722 [0x02] IF !(ExtData[1]->WorkLocal[5] == 4*) GOTO 0x0741
 92: 0x072A [0x03] ExtData[1]->WorkLocal[13] = 4294437296*
 93: 0x072F [0x03] ExtData[1]->WorkLocal[14] = 480000*
 94: 0x0734 [0x03] ExtData[1]->WorkLocal[15] = 4294561296*
 95: 0x0739 [0x03] ExtData[1]->WorkLocal[16] = 2048*
 96: 0x073E [0x01] GOTO 0x0760
 97: 0x0741 [0x02] IF !(ExtData[1]->WorkLocal[5] == 5*) GOTO 0x0760
 98: 0x0749 [0x03] ExtData[1]->WorkLocal[13] = 4294437296*
 99: 0x074E [0x03] ExtData[1]->WorkLocal[14] = 0*
100: 0x0753 [0x03] ExtData[1]->WorkLocal[15] = 394000*
101: 0x0758 [0x03] ExtData[1]->WorkLocal[16] = 2048*
102: 0x075D [0x01] GOTO 0x0760

SUBROUTINE_0760:
103: 0x0760 [0x47] UPDATE_PLAYER_POS(ExtData[1]->WorkLocal[13], ExtData[1]->WorkLocal[14], ExtData[1]->WorkLocal[15], yaw=ExtData[1]->WorkLocal[16])
104: 0x076A [0x47] WAIT_PLAYER_POS_UPDATE
105: 0x076C [0x03] ExtData[1]->WorkLocal[9] = Work_Zone[3]
106: 0x0771 [0x03] ExtData[1]->WorkLocal[7] = Work_Zone[4]
107: 0x0776 [0x03] ExtData[1]->WorkLocal[30] = Work_Zone[5]
108: 0x077B [0x03] ExtData[1]->WorkLocal[17] = Work_Zone[6]
109: 0x0780 [0x03] ExtData[1]->WorkLocal[18] = Work_Zone[7]
110: 0x0785 [0x03] ExtData[1]->WorkLocal[32] = Work_Zone[9]
111: 0x078A [0x02] IF !(Work_Zone[2] == 1*) GOTO 0x0795
112: 0x0792 [0x01] GOTO 0x0D73
113: 0x0795 [0x02] IF !(Work_Zone[2] == 4*) GOTO 0x07EE
114: 0x079D [0x02] IF !(ExtData[1]->WorkLocal[5] == 1*) GOTO 0x07AC
115: 0x07A5 [0x48] [System] [7703*]:
     "You are cleared to enter the battlefield, but you cannot while party members are engaged in combat."
116: 0x07A8 [0x23] WAIT_FOR_DIALOG_INTERACTION
117: 0x07A9 [0x01] GOTO 0x07E8
118: 0x07AC [0x02] IF !(ExtData[1]->WorkLocal[5] == 2*) GOTO 0x07BB
119: 0x07B4 [0x48] [System] [7704*]:
     "You are cleared to enter the battlefield, but you cannot while party members are engaged in combat."
120: 0x07B7 [0x23] WAIT_FOR_DIALOG_INTERACTION
121: 0x07B8 [0x01] GOTO 0x07E8
122: 0x07BB [0x02] IF !(ExtData[1]->WorkLocal[5] == 3*) GOTO 0x07CA
123: 0x07C3 [0x48] [System] [7705*]:
     "You are cleared to enter the battlefield, but you cannot while party members are engaged in combat."
124: 0x07C6 [0x23] WAIT_FOR_DIALOG_INTERACTION
125: 0x07C7 [0x01] GOTO 0x07E8
126: 0x07CA [0x02] IF !(ExtData[1]->WorkLocal[5] == 4*) GOTO 0x07D9
127: 0x07D2 [0x48] [System] [7706*]:
     "You are cleared to enter the battlefield, but you cannot while party members are engaged in combat."
128: 0x07D5 [0x23] WAIT_FOR_DIALOG_INTERACTION
129: 0x07D6 [0x01] GOTO 0x07E8
130: 0x07D9 [0x02] IF !(ExtData[1]->WorkLocal[5] == 5*) GOTO 0x07E8
131: 0x07E1 [0x48] [System] [7707*]:
     "You are cleared to enter the battlefield, but you cannot while party members are engaged in combat."
132: 0x07E4 [0x23] WAIT_FOR_DIALOG_INTERACTION
133: 0x07E5 [0x01] GOTO 0x07E8

SUBROUTINE_07E8:
134: 0x07E8 [0x01] GOTO 0x0D7D

SUBROUTINE_09F8:
135: 0x09F8 [0x48] [System] [8051*]:
     "Only $3 [member/members] have clearance to enter the battlefield. This room has reached its maximum capacity."
136: 0x09FB [0x23] WAIT_FOR_DIALOG_INTERACTION
137: 0x09FC [0x01] GOTO 0x0D7D

SUBROUTINE_0A55:
138: 0x0A55 [0x01] GOTO 0x0AA4
139: 0x0A58 [0x03] Work_Zone[5] = ExtData[1]->WorkLocal[30]
140: 0x0A5D [0x02] IF !(ExtData[1]->WorkLocal[30] <= 0*) GOTO 0x0A84
141: 0x0A65 [0x02] IF !(ExtData[1]->WorkLocal[30] < 60*) GOTO 0x0A80
142: 0x0A6D [0x3F] Work_Zone[4] = Work_Zone[5] % 60*
143: 0x0A74 [0x15] Work_Zone[5] /= 60*
144: 0x0A79 [0x48] [System] [8442*]:
     "The current clear time record for "[Reckoning/Abomination/Vagary: Putraxia/Vagary: Rancibus/Vagary: Palloritus/Vagary: Perfidien/Vagary: Plouton/Oathblade]" is $3 minute[/s], $2 second[/s]."
145: 0x0A7C [0x23] WAIT_FOR_DIALOG_INTERACTION
146: 0x0A7D [0x01] GOTO 0x0A84
147: 0x0A80 [0x48] [System] [8441*]:
     "The current clear time record for "[Reckoning/Abomination/Vagary: Putraxia/Vagary: Rancibus/Vagary: Palloritus/Vagary: Perfidien/Vagary: Plouton/Oathblade]" is $3 second[/s]."
148: 0x0A83 [0x23] WAIT_FOR_DIALOG_INTERACTION

SUBROUTINE_0A84:
149: 0x0A84 [0x02] IF !(ExtData[1]->WorkLocal[17] > 1*) GOTO 0x0A93
150: 0x0A8C [0x48] [System] [8056*]:
     "That record is held by %0!"
151: 0x0A8F [0x23] WAIT_FOR_DIALOG_INTERACTION
152: 0x0A90 [0x01] GOTO 0x0AA4
153: 0x0A93 [0x03] Work_Zone[6] = ExtData[1]->WorkLocal[17]
154: 0x0A98 [0x0C] Work_Zone[6]--
155: 0x0A9B [0x03] Work_Zone[7] = ExtData[1]->WorkLocal[17]
156: 0x0AA0 [0x48] [System] [8055*]:
     "That record is held by $5 adventurers, including %0!"
157: 0x0AA3 [0x23] WAIT_FOR_DIALOG_INTERACTION

SUBROUTINE_0AA4:
158: 0x0AA4 [0x03] ExtData[1]->WorkLocal[8] = ExtData[1]->WorkLocal[9]
159: 0x0AA9 [0x03] ExtData[1]->WorkLocal[24] = 100*
160: 0x0AAE [0x07] ExtData[1]->WorkLocal[24] += ExtData[1]->WorkLocal[8]
161: 0x0AB3 [0x02] IF !(ExtData[1]->WorkLocal[7] == ExtData[1]->WorkLocal[24]) GOTO 0x0AC3
162: 0x0ABB [0x03] ExtData[1]->WorkLocal[7] = 1*
163: 0x0AC0 [0x01] GOTO 0x0AC8
164: 0x0AC3 [0x03] ExtData[1]->WorkLocal[7] = 0*

SUBROUTINE_0AC8:
165: 0x0AC8 [0x02] IF !(ExtData[1]->WorkLocal[7] == 0*) GOTO 0x0AEE
166: 0x0AD0 [0x02] IF !(ExtData[1]->WorkLocal[18] == 1*) GOTO 0x0AEE
167: 0x0AD8 [0x24] CREATE_DIALOG(message_id=8031*, default_option=1*, option_flags=0*)
     "Skip the event? [Yes./No.]"
168: 0x0ADF [0x25] WAIT_DIALOG_SELECT()
169: 0x0AE0 [0x02] IF !(Work_Zone[0] == 0*) GOTO 0x0AEE
170: 0x0AE8 [0x05] ExtData[1]->WorkLocal[7] = 1
171: 0x0AEB [0x01] GOTO 0x0AEE

SUBROUTINE_0AEE:
172: 0x0AEE [0x06] ExtData[1]->WorkLocal[25] = 0
173: 0x0AF1 [0x02] IF !(ExtData[1]->WorkLocal[9] == 0*) GOTO 0x0B01
174: 0x0AF9 [0x03] ExtData[1]->WorkLocal[25] = 0*
175: 0x0AFE [0x01] GOTO 0x0CE6
176: 0x0B01 [0x02] IF !(ExtData[1]->WorkLocal[9] == 1*) GOTO 0x0B11
177: 0x0B09 [0x03] ExtData[1]->WorkLocal[25] = 0*
178: 0x0B0E [0x01] GOTO 0x0CE6
179: 0x0B11 [0x02] IF !(ExtData[1]->WorkLocal[9] == 2*) GOTO 0x0B21
180: 0x0B19 [0x03] ExtData[1]->WorkLocal[25] = 0*
181: 0x0B1E [0x01] GOTO 0x0CE6
182: 0x0B21 [0x02] IF !(ExtData[1]->WorkLocal[9] == 3*) GOTO 0x0B31
183: 0x0B29 [0x03] ExtData[1]->WorkLocal[25] = 0*
184: 0x0B2E [0x01] GOTO 0x0CE6
185: 0x0B31 [0x02] IF !(ExtData[1]->WorkLocal[9] == 4*) GOTO 0x0B41
186: 0x0B39 [0x03] ExtData[1]->WorkLocal[25] = 0*
187: 0x0B3E [0x01] GOTO 0x0CE6
188: 0x0B41 [0x02] IF !(ExtData[1]->WorkLocal[9] == 5*) GOTO 0x0B51
189: 0x0B49 [0x03] ExtData[1]->WorkLocal[25] = 0*
190: 0x0B4E [0x01] GOTO 0x0CE6
191: 0x0B51 [0x02] IF !(ExtData[1]->WorkLocal[9] == 6*) GOTO 0x0B61
192: 0x0B59 [0x03] ExtData[1]->WorkLocal[25] = 0*
193: 0x0B5E [0x01] GOTO 0x0CE6
194: 0x0B61 [0x02] IF !(ExtData[1]->WorkLocal[9] == 7*) GOTO 0x0B71
195: 0x0B69 [0x03] ExtData[1]->WorkLocal[25] = 1*
196: 0x0B6E [0x01] GOTO 0x0CE6
197: 0x0B71 [0x02] IF !(ExtData[1]->WorkLocal[9] == 8*) GOTO 0x0B81
198: 0x0B79 [0x03] ExtData[1]->WorkLocal[25] = 0*
199: 0x0B7E [0x01] GOTO 0x0CE6
200: 0x0B81 [0x02] IF !(ExtData[1]->WorkLocal[9] == 9*) GOTO 0x0B91
201: 0x0B89 [0x03] ExtData[1]->WorkLocal[25] = 0*
202: 0x0B8E [0x01] GOTO 0x0CE6
203: 0x0B91 [0x02] IF !(ExtData[1]->WorkLocal[9] == 10*) GOTO 0x0BA1
204: 0x0B99 [0x03] ExtData[1]->WorkLocal[25] = 0*
205: 0x0B9E [0x01] GOTO 0x0CE6
206: 0x0BA1 [0x02] IF !(ExtData[1]->WorkLocal[9] == 11*) GOTO 0x0BB1
207: 0x0BA9 [0x03] ExtData[1]->WorkLocal[25] = 0*
208: 0x0BAE [0x01] GOTO 0x0CE6
209: 0x0BB1 [0x02] IF !(ExtData[1]->WorkLocal[9] == 12*) GOTO 0x0BC1
210: 0x0BB9 [0x03] ExtData[1]->WorkLocal[25] = 0*
211: 0x0BBE [0x01] GOTO 0x0CE6
212: 0x0BC1 [0x02] IF !(ExtData[1]->WorkLocal[9] == 13*) GOTO 0x0BD1
213: 0x0BC9 [0x03] ExtData[1]->WorkLocal[25] = 0*
214: 0x0BCE [0x01] GOTO 0x0CE6
215: 0x0BD1 [0x02] IF !(ExtData[1]->WorkLocal[9] == 14*) GOTO 0x0BE1
216: 0x0BD9 [0x03] ExtData[1]->WorkLocal[25] = 0*
217: 0x0BDE [0x01] GOTO 0x0CE6
218: 0x0BE1 [0x02] IF !(ExtData[1]->WorkLocal[9] == 15*) GOTO 0x0BF1
219: 0x0BE9 [0x03] ExtData[1]->WorkLocal[25] = 0*
220: 0x0BEE [0x01] GOTO 0x0CE6
221: 0x0BF1 [0x02] IF !(ExtData[1]->WorkLocal[9] == 16*) GOTO 0x0C01
222: 0x0BF9 [0x03] ExtData[1]->WorkLocal[25] = 0*
223: 0x0BFE [0x01] GOTO 0x0CE6
224: 0x0C01 [0x02] IF !(ExtData[1]->WorkLocal[9] == 17*) GOTO 0x0C11
225: 0x0C09 [0x03] ExtData[1]->WorkLocal[25] = 0*
226: 0x0C0E [0x01] GOTO 0x0CE6
227: 0x0C11 [0x02] IF !(ExtData[1]->WorkLocal[9] == 18*) GOTO 0x0C21
228: 0x0C19 [0x03] ExtData[1]->WorkLocal[25] = 0*
229: 0x0C1E [0x01] GOTO 0x0CE6
230: 0x0C21 [0x02] IF !(ExtData[1]->WorkLocal[9] == 19*) GOTO 0x0C31
231: 0x0C29 [0x03] ExtData[1]->WorkLocal[25] = 0*
232: 0x0C2E [0x01] GOTO 0x0CE6
233: 0x0C31 [0x02] IF !(ExtData[1]->WorkLocal[9] == 20*) GOTO 0x0C41
234: 0x0C39 [0x03] ExtData[1]->WorkLocal[25] = 0*
235: 0x0C3E [0x01] GOTO 0x0CE6
236: 0x0C41 [0x02] IF !(ExtData[1]->WorkLocal[9] == 21*) GOTO 0x0C51
237: 0x0C49 [0x03] ExtData[1]->WorkLocal[25] = 0*
238: 0x0C4E [0x01] GOTO 0x0CE6
239: 0x0C51 [0x02] IF !(ExtData[1]->WorkLocal[9] == 22*) GOTO 0x0C61
240: 0x0C59 [0x03] ExtData[1]->WorkLocal[25] = 0*
241: 0x0C5E [0x01] GOTO 0x0CE6
242: 0x0C61 [0x02] IF !(ExtData[1]->WorkLocal[9] == 23*) GOTO 0x0C71
243: 0x0C69 [0x03] ExtData[1]->WorkLocal[25] = 0*
244: 0x0C6E [0x01] GOTO 0x0CE6
245: 0x0C71 [0x02] IF !(ExtData[1]->WorkLocal[9] == 24*) GOTO 0x0C81
246: 0x0C79 [0x03] ExtData[1]->WorkLocal[25] = 0*
247: 0x0C7E [0x01] GOTO 0x0CE6
248: 0x0C81 [0x02] IF !(ExtData[1]->WorkLocal[9] == 25*) GOTO 0x0C91
249: 0x0C89 [0x03] ExtData[1]->WorkLocal[25] = 0*
250: 0x0C8E [0x01] GOTO 0x0CE6
251: 0x0C91 [0x02] IF !(ExtData[1]->WorkLocal[9] == 26*) GOTO 0x0CA1
252: 0x0C99 [0x03] ExtData[1]->WorkLocal[25] = 0*
253: 0x0C9E [0x01] GOTO 0x0CE6
254: 0x0CA1 [0x02] IF !(ExtData[1]->WorkLocal[9] == 27*) GOTO 0x0CB1
255: 0x0CA9 [0x03] ExtData[1]->WorkLocal[25] = 0*
256: 0x0CAE [0x01] GOTO 0x0CE6
257: 0x0CB1 [0x02] IF !(ExtData[1]->WorkLocal[9] == 28*) GOTO 0x0CC1
258: 0x0CB9 [0x03] ExtData[1]->WorkLocal[25] = 0*
259: 0x0CBE [0x01] GOTO 0x0CE6
260: 0x0CC1 [0x02] IF !(ExtData[1]->WorkLocal[9] == 29*) GOTO 0x0CD1
261: 0x0CC9 [0x03] ExtData[1]->WorkLocal[25] = 0*
262: 0x0CCE [0x01] GOTO 0x0CE6
263: 0x0CD1 [0x02] IF !(ExtData[1]->WorkLocal[9] == 30*) GOTO 0x0CE1
264: 0x0CD9 [0x03] ExtData[1]->WorkLocal[25] = 0*
265: 0x0CDE [0x01] GOTO 0x0CE6
266: 0x0CE1 [0x03] ExtData[1]->WorkLocal[25] = 0*

SUBROUTINE_0CE6:
267: 0x0CE6 [0x02] IF !(ExtData[1]->WorkLocal[7] == 1*) GOTO 0x0D01
268: 0x0CEE [0x5C] MUSIC_CONTROL: Set Idle (Day) music to song 62*
269: 0x0CF2 [0x5C] MUSIC_CONTROL: Set Idle (Night) music to song 62*
270: 0x0CF6 [0x5C] MUSIC_CONTROL: Set Combat (Solo) music to song 62*
271: 0x0CFA [0x5C] MUSIC_CONTROL: Set Combat (Party) music to song 62*
272: 0x0CFE [0x01] GOTO 0x0D19
273: 0x0D01 [0x02] IF !(ExtData[1]->WorkLocal[25] == 0*) GOTO 0x0D19
274: 0x0D09 [0x5C] MUSIC_CONTROL: Set Idle (Day) music to song 62*
275: 0x0D0D [0x5C] MUSIC_CONTROL: Set Idle (Night) music to song 62*
276: 0x0D11 [0x5C] MUSIC_CONTROL: Set Combat (Solo) music to song 62*
277: 0x0D15 [0x5C] MUSIC_CONTROL: Set Combat (Party) music to song 62*

SUBROUTINE_0D19:
278: 0x0D19 [0x1A] CALL_SUBROUTINE(address=0x1364)
279: 0x0D1C [0x02] IF !(ExtData[1]->WorkLocal[7] == 0*) GOTO 0x0D2A
280: 0x0D24 [0x1A] CALL_SUBROUTINE(address=0x120E)
281: 0x0D27 [0x01] GOTO 0x0D63
282: 0x0D2A [0x6C] FADE_ENTITY_COLOR(entity_id=LocalPlayer, end_alpha=0*, fade_time=1*)
283: 0x0D33 [0x62] LOAD_EVENT_SCHEDULER: Load scheduler "main" with entities [LocalPlayer, LocalPlayer], work=[2*, 0*]
284: 0x0D44 [0x45] LOAD_SCHEDULED_TASK: Load scheduler "ovl1" with entities [LocalPlayer, LocalPlayer], work=[200*, 0*]
285: 0x0D55 [0x46] CAMERA_CONTROL: Query status
286: 0x0D57 [0x16] 0x0200 = sin(ExtData[1]->WorkLocal[22]) * 0*
287: 0x0D5E [0x00] END_REQSTACK()

SUBROUTINE_0D63:
288: 0x0D63 [0x03] Work_Zone[1] = 100*
289: 0x0D68 [0x07] Work_Zone[1] += ExtData[1]->WorkLocal[8]
290: 0x0D6D [0x01] GOTO 0x0D7D

SUBROUTINE_0D73:
291: 0x0D73 [0x0B] ExtData[1]->WorkLocal[5]++
292: 0x0D76 [0x01] GOTO 0x0699
293: 0x0D79 [0x48] [System] [7695*]:
     "You cannot enter the battlefield at present. Please wait a little longer."
294: 0x0D7C [0x23] WAIT_FOR_DIALOG_INTERACTION

SUBROUTINE_0D7D:
295: 0x0D7D [0x45] LOAD_SCHEDULED_TASK: Load scheduler "whi1" with entities [LocalPlayer, LocalPlayer], work=[201*, 0*]
296: 0x0D8E [0x45] LOAD_SCHEDULED_TASK: Load scheduler "blof" with entities [LocalPlayer, LocalPlayer], work=[200*, 0*]
297: 0x0D9F [0x45] LOAD_SCHEDULED_TASK: Load scheduler "fdi0" with entities [LocalPlayer, LocalPlayer], work=[200*, 0*]

SUBROUTINE_0DB0:
298: 0x0DB0 [0x02] IF !(ExtData[1]->WorkLocal[11] == 1*) GOTO 0x0DC8
299: 0x0DB8 [0x5C] MUSIC_CONTROL: Set Idle (Day) music to song 0*
300: 0x0DBC [0x5C] MUSIC_CONTROL: Set Idle (Night) music to song 0*
301: 0x0DC0 [0x5C] MUSIC_CONTROL: Set Combat (Solo) music to song 62*
302: 0x0DC4 [0x5C] MUSIC_CONTROL: Set Combat (Party) music to song 62*
303: 0x0DC8 [0x21] END_EVENT
304: 0x0DC9 [0x00] END_REQSTACK()

SUBROUTINE_0DCA:
305: 0x0DCA [0x1B] RETURN
```

#### Data or dead code:

```
# Dead code (unreachable instructions):
     0x0565 [0x01] GOTO 0x063A
# Dead code (unreachable instructions):
     0x060B [0x01] GOTO 0x0613
# Dead code (unreachable instructions):
     0x0637 [0x01] GOTO 0x063A
# Dead code (unreachable instructions):
     0x07EB [0x01] GOTO 0x0D73
     0x07FD [0x01] GOTO 0x0D73
# Dead code (unreachable instructions):
     0x09FF [0x01] GOTO 0x0D73
     0x0A0D [0x01] GOTO 0x0D73
# Dead code (unreachable instructions):
     0x0D5F [0x63] PLAY_ANIMATION_WAIT(animation=17933)
     0x0D62 [0x00] END_REQSTACK()
# Dead code (unreachable instructions):
     0x0D70 [0x01] GOTO 0x0D73
```

### Event 32002

#### Metadata

| Field        | Value     |
|--------------|-----------|
| Entrypoint   | 0x0DCB    |
| Data Size    | 133 bytes |
| Instructions | 20        |

```
      00 01 02 03 04 05 06 07  08 09 0A 0B 0C 0D 0E 0F
      -- -- -- -- -- -- -- --  -- -- -- -- -- -- -- --
0DC0:                                   03 25 00 07 10             .%...
0DD0: 03 24 00 08 10 20 01 42  3B F0 FF FF 7F 20 10 21  .$... .B;.... .!
0DE0: 10 22 10 3A F0 FF FF 7F  23 10 45 0B 80 F0 FF FF  .".:....#.E.....
0DF0: 7F F0 FF FF 7F 66 64 6F  31 03 80 55 0B 80 F0 FF  .....fdo1..U....
0E00: FF 7F F0 FF FF 7F 66 64  6F 31 47 00 6C 80 3B 80  ......fdo1G.l.;.
0E10: 6D 80 03 80 47 01 38 08  80 1A 4D 13 45 1A 80 F0  m...G.8...M.E...
0E20: FF FF 7F F0 FF FF 7F 77  68 69 31 03 80 45 0B 80  .......whi1..E..
0E30: F0 FF FF 7F F0 FF FF 7F  62 6C 6F 66 03 80 5C 00  ........blof..\.
0E40: 03 80 5C 01 03 80 5C 02  6A 80 5C 03 6A 80 21 00  ..\...\.j.\.j.!.
```

#### Opcodes

```
  0: 0x0DCB [0x03] ExtData[1]->WorkLocal[37] = Work_Zone[7]
  1: 0x0DD0 [0x03] ExtData[1]->WorkLocal[36] = Work_Zone[8]
  2: 0x0DD5 [0x20] SET_CLI_EVENT_UC_FLAG: Lock player control
  3: 0x0DD7 [0x42] SET_CLI_EVENT_CANCEL_DATA()
  4: 0x0DD8 [0x3B] GET_ENTITY_POSITION(entity=LocalPlayer, x_destination=Work_Zone[32], y_destination=Work_Zone[33], z_destination=Work_Zone[34])
  5: 0x0DE3 [0x3A] CONVERT_YAW_TO_BYTE(entity=LocalPlayer, result_destination=Work_Zone[35])
  6: 0x0DEA [0x45] LOAD_SCHEDULED_TASK: Load scheduler "fdo1" with entities [LocalPlayer, LocalPlayer], work=[200*, 0*]
  7: 0x0DFB [0x55] WAIT_LOAD_SCHEDULER: Wait for scheduler "fdo1" with entities [LocalPlayer, LocalPlayer], work=200*
  8: 0x0E0A [0x47] UPDATE_PLAYER_POS(132.200*, 20.000*, 39.500*, yaw=0.0째*)
  9: 0x0E14 [0x47] WAIT_PLAYER_POS_UPDATE
 10: 0x0E16 [0x38] SET_CLIENT_EVENT_MODE(mode=19*)
 11: 0x0E19 [0x1A] CALL_SUBROUTINE(address=0x134D)
 12: 0x0E1C [0x45] LOAD_SCHEDULED_TASK: Load scheduler "whi1" with entities [LocalPlayer, LocalPlayer], work=[201*, 0*]
 13: 0x0E2D [0x45] LOAD_SCHEDULED_TASK: Load scheduler "blof" with entities [LocalPlayer, LocalPlayer], work=[200*, 0*]
 14: 0x0E3E [0x5C] MUSIC_CONTROL: Set Idle (Day) music to song 0*
 15: 0x0E42 [0x5C] MUSIC_CONTROL: Set Idle (Night) music to song 0*
 16: 0x0E46 [0x5C] MUSIC_CONTROL: Set Combat (Solo) music to song 62*
 17: 0x0E4A [0x5C] MUSIC_CONTROL: Set Combat (Party) music to song 62*
 18: 0x0E4E [0x21] END_EVENT
 19: 0x0E4F [0x00] END_REQSTACK()
```

### Event 32001

#### Metadata

| Field        | Value     |
|--------------|-----------|
| Entrypoint   | 0x0E50    |
| Data Size    | 562 bytes |
| Instructions | 83        |

```
      00 01 02 03 04 05 06 07  08 09 0A 0B 0C 0D 0E 0F
      -- -- -- -- -- -- -- --  -- -- -- -- -- -- -- --
0E50: 79 00 F0 FF FF 7F F0 FF  FF 7F 03 25 00 02 10 03  y..........%....
0E60: 1E 00 03 10 03 1F 00 05  10 03 24 00 06 10 03 1D  ..........$.....
0E70: 00 07 10 03 1B 00 08 10  02 1B 00 46 80 04 85 0E  ...........F....
0E80: 03 1B 00 03 80 1A 4C 13  03 20 00 09 10 20 01 42  ......L.. ... .B
0E90: 3B F0 FF FF 7F 20 10 21  10 22 10 3A F0 FF FF 7F  ;.... .!.".:....
0EA0: 23 10 02 24 00 6E 80 01  AD 0E 1C 6F 80 45 1A 80  #..$.n.....o.E..
0EB0: F0 FF FF 7F F0 FF FF 7F  77 68 69 31 03 80 45 0B  ........whi1..E.
0EC0: 80 F0 FF FF 7F F0 FF FF  7F 62 6C 6F 66 03 80 45  .........blof..E
0ED0: 0B 80 F0 FF FF 7F F0 FF  FF 7F 66 64 6F 31 03 80  ..........fdo1..
0EE0: 55 0B 80 F0 FF FF 7F F0  FF FF 7F 66 64 6F 31 6C  U..........fdo1l
0EF0: F0 FF FF 7F 2F 80 0D 80  06 01 10 02 1B 00 03 80  ..../...........
0F00: 03 06 0F 01 12 0F 47 00  6C 80 3B 80 6D 80 03 80  ......G.l.;.m...
0F10: 47 01 38 08 80 02 1B 00  10 80 00 20 0F 01 3B 0F  G.8........ ..;.
0F20: 02 1B 00 0D 80 00 7F 0F  1C 40 80 24 69 80 0D 80  .........@.$i...
0F30: 03 80 25 02 00 10 03 80  00 7F 0F 37 6C 80 3B 80  ..%........7l.;.
0F40: 6D 80 03 80 80 F0 FF FF  7F 62 10 80 F0 FF FF 7F  m........b......
0F50: F0 FF FF 7F 6D 61 69 6E  03 80 45 0B 80 F0 FF FF  ....main..E.....
0F60: 7F F0 FF FF 7F 66 64 69  32 03 80 46 02 16 00 02  .....fdi2..F....
0F70: 16 00 03 80 00 79 0F 46  00 01 A6 0F 01 7F 0F 02  .....y.F........
0F80: 1B 00 43 80 04 98 0F 5C  00 6A 80 5C 01 6A 80 5C  ..C....\.j.\.j.\
0F90: 02 6A 80 5C 03 6A 80 9A  1A 9D 12 02 1B 00 03 80  .j.\.j..........
0FA0: 03 A6 0F 01 1A 10 02 24  00 03 80 80 B1 0F 01 B1  .......$........
0FB0: 0F 03 05 10 1F 00 02 05  10 03 80 02 1A 10 02 05  ................
0FC0: 10 0F 80 04 D9 0F 3F 04  10 05 10 0F 80 15 05 10  ......?.........
0FD0: 0F 80 48 70 80 23 01 DD  0F 48 71 80 23 02 1F 00  ..Hp.#...Hq.#...
0FE0: 1E 00 05 F1 0F 03 07 10  1D 00 48 72 80 23 01 1A  ..........Hr.#..
0FF0: 10 02 1E 00 0F 80 04 11  10 03 05 10 1E 00 3F 04  ..............?.
1000: 10 05 10 0F 80 15 05 10  0F 80 48 73 80 23 01 1A  ..........Hs.#..
1010: 10 03 05 10 1E 00 48 74  80 23 02 1C 00 03 80 00  ......Ht.#......
1020: 32 10 5C 00 03 80 5C 01  03 80 5C 02 6A 80 5C 03  2.\...\...\.j.\.
1030: 6A 80 02 1B 00 03 80 03  5B 10 45 0B 80 F0 FF FF  j.......[.E.....
1040: 7F F0 FF FF 7F 66 64 69  32 03 80 5C 00 03 80 5C  .....fdi2..\...\
1050: 01 03 80 5C 02 6A 80 5C  03 6A 80 06 1C 00 45 1A  ...\.j.\.j....E.
1060: 80 F0 FF FF 7F F0 FF FF  7F 77 68 69 31 03 80 45  .........whi1..E
1070: 0B 80 F0 FF FF 7F F0 FF  FF 7F 62 6C 6F 66 03 80  ..........blof..
1080: 21 00                                             !.              
```

#### Opcodes

```
  0: 0x0E50 [0x79] LocalPlayer looks at LocalPlayer (Basic look)
  1: 0x0E5A [0x03] ExtData[1]->WorkLocal[37] = Work_Zone[2]
  2: 0x0E5F [0x03] ExtData[1]->WorkLocal[30] = Work_Zone[3]
  3: 0x0E64 [0x03] ExtData[1]->WorkLocal[31] = Work_Zone[5]
  4: 0x0E69 [0x03] ExtData[1]->WorkLocal[36] = Work_Zone[6]
  5: 0x0E6E [0x03] ExtData[1]->WorkLocal[29] = Work_Zone[7]
  6: 0x0E73 [0x03] ExtData[1]->WorkLocal[27] = Work_Zone[8]
  7: 0x0E78 [0x02] IF !(ExtData[1]->WorkLocal[27] < 3*) GOTO 0x0E85
  8: 0x0E80 [0x03] ExtData[1]->WorkLocal[27] = 0*
  9: 0x0E85 [0x1A] CALL_SUBROUTINE(address=0x134C)
 10: 0x0E88 [0x03] ExtData[1]->WorkLocal[32] = Work_Zone[9]
 11: 0x0E8D [0x20] SET_CLI_EVENT_UC_FLAG: Lock player control
 12: 0x0E8F [0x42] SET_CLI_EVENT_CANCEL_DATA()
 13: 0x0E90 [0x3B] GET_ENTITY_POSITION(entity=LocalPlayer, x_destination=Work_Zone[32], y_destination=Work_Zone[33], z_destination=Work_Zone[34])
 14: 0x0E9B [0x3A] CONVERT_YAW_TO_BYTE(entity=LocalPlayer, result_destination=Work_Zone[35])
 15: 0x0EA2 [0x02] IF !(ExtData[1]->WorkLocal[36] == 180*) GOTO 0x0EAD
 16: 0x0EAA [0x1C] WAIT(300* ticks)
 17: 0x0EAD [0x45] LOAD_SCHEDULED_TASK: Load scheduler "whi1" with entities [LocalPlayer, LocalPlayer], work=[201*, 0*]
 18: 0x0EBE [0x45] LOAD_SCHEDULED_TASK: Load scheduler "blof" with entities [LocalPlayer, LocalPlayer], work=[200*, 0*]
 19: 0x0ECF [0x45] LOAD_SCHEDULED_TASK: Load scheduler "fdo1" with entities [LocalPlayer, LocalPlayer], work=[200*, 0*]
 20: 0x0EE0 [0x55] WAIT_LOAD_SCHEDULER: Wait for scheduler "fdo1" with entities [LocalPlayer, LocalPlayer], work=200*
 21: 0x0EEF [0x6C] FADE_ENTITY_COLOR(entity_id=LocalPlayer, end_alpha=128*, fade_time=1*)
 22: 0x0EF8 [0x06] Work_Zone[1] = 0
 23: 0x0EFB [0x02] IF !(ExtData[1]->WorkLocal[27] >= 0*) GOTO 0x0F06
 24: 0x0F03 [0x01] GOTO 0x0F12
 25: 0x0F06 [0x47] UPDATE_PLAYER_POS(132.200*, 20.000*, 39.500*, yaw=0.0째*)
 26: 0x0F10 [0x47] WAIT_PLAYER_POS_UPDATE

SUBROUTINE_0F12:
 27: 0x0F12 [0x38] SET_CLIENT_EVENT_MODE(mode=19*)
 28: 0x0F15 [0x02] IF !(ExtData[1]->WorkLocal[27] == 2*) GOTO 0x0F20
 29: 0x0F1D [0x01] GOTO 0x0F3B
 30: 0x0F20 [0x02] IF !(ExtData[1]->WorkLocal[27] == 1*) GOTO 0x0F7F
 31: 0x0F28 [0x1C] WAIT(15* ticks)
 32: 0x0F2B [0x24] CREATE_DIALOG(message_id=8031*, default_option=1*, option_flags=0*)
     "Skip the event? [Yes./No.]"
 33: 0x0F32 [0x25] WAIT_DIALOG_SELECT()
 34: 0x0F33 [0x02] IF !(Work_Zone[0] == 0*) GOTO 0x0F7F

SUBROUTINE_0F3B:
 35: 0x0F3B [0x37] UPDATE_EVENT_POSITION_AND_DIR: x=132.200*, z=20.000*, y=39.500*, direction=0.0째*
 36: 0x0F44 [0x80] LOAD_WAIT(entity=LocalPlayer)
 37: 0x0F49 [0x62] LOAD_EVENT_SCHEDULER: Load scheduler "main" with entities [LocalPlayer, LocalPlayer], work=[2*, 0*]
 38: 0x0F5A [0x45] LOAD_SCHEDULED_TASK: Load scheduler "fdi2" with entities [LocalPlayer, LocalPlayer], work=[200*, 0*]
 39: 0x0F6B [0x46] CAMERA_CONTROL: Query status
 40: 0x0F6D [0x16] 0x0200 = sin(ExtData[1]->WorkLocal[22]) * 0*
 41: 0x0F74 [0x00] END_REQSTACK()

SUBROUTINE_0FB1:
 42: 0x0FB1 [0x03] Work_Zone[5] = ExtData[1]->WorkLocal[31]
 43: 0x0FB6 [0x02] IF !(Work_Zone[5] <= 0*) GOTO 0x101A
 44: 0x0FBE [0x02] IF !(Work_Zone[5] < 60*) GOTO 0x0FD9
 45: 0x0FC6 [0x3F] Work_Zone[4] = Work_Zone[5] % 60*
 46: 0x0FCD [0x15] Work_Zone[5] /= 60*
 47: 0x0FD2 [0x48] [System] [8033*]:
     "Battlefield clear time: $3 minute[/s], $2 second[/s]!"
 48: 0x0FD5 [0x23] WAIT_FOR_DIALOG_INTERACTION
 49: 0x0FD6 [0x01] GOTO 0x0FDD
 50: 0x0FD9 [0x48] [System] [8032*]:
     "Battlefield clear time: $3 second[/s]!"
 51: 0x0FDC [0x23] WAIT_FOR_DIALOG_INTERACTION

SUBROUTINE_0FDD:
 52: 0x0FDD [0x02] IF !(ExtData[1]->WorkLocal[31] > ExtData[1]->WorkLocal[30]) GOTO 0x0FF1
 53: 0x0FE5 [0x03] Work_Zone[7] = ExtData[1]->WorkLocal[29]
 54: 0x0FEA [0x48] [System] [8440*]:
     "You have broken the clear time record for "[Reckoning/Abomination/Vagary: Putraxia/Vagary: Rancibus/Vagary: Palloritus/Vagary: Perfidien/Vagary: Plouton/Oathblade]"!"
 55: 0x0FED [0x23] WAIT_FOR_DIALOG_INTERACTION
 56: 0x0FEE [0x01] GOTO 0x101A
 57: 0x0FF1 [0x02] IF !(ExtData[1]->WorkLocal[30] < 60*) GOTO 0x1011
 58: 0x0FF9 [0x03] Work_Zone[5] = ExtData[1]->WorkLocal[30]
 59: 0x0FFE [0x3F] Work_Zone[4] = Work_Zone[5] % 60*
 60: 0x1005 [0x15] Work_Zone[5] /= 60*
 61: 0x100A [0x48] [System] [8035*]:
     "The current battlefield clear time record is $3 minute[/s] $2 second[/s]."
 62: 0x100D [0x23] WAIT_FOR_DIALOG_INTERACTION
 63: 0x100E [0x01] GOTO 0x101A
 64: 0x1011 [0x03] Work_Zone[5] = ExtData[1]->WorkLocal[30]
 65: 0x1016 [0x48] [System] [8034*]:
     "The current battlefield clear time record is $3 second[/s]."
 66: 0x1019 [0x23] WAIT_FOR_DIALOG_INTERACTION

SUBROUTINE_101A:
 67: 0x101A [0x02] IF !(ExtData[1]->WorkLocal[28] == 0*) GOTO 0x1032
 68: 0x1022 [0x5C] MUSIC_CONTROL: Set Idle (Day) music to song 0*
 69: 0x1026 [0x5C] MUSIC_CONTROL: Set Idle (Night) music to song 0*
 70: 0x102A [0x5C] MUSIC_CONTROL: Set Combat (Solo) music to song 62*
 71: 0x102E [0x5C] MUSIC_CONTROL: Set Combat (Party) music to song 62*
 72: 0x1032 [0x02] IF !(ExtData[1]->WorkLocal[27] >= 0*) GOTO 0x105B
 73: 0x103A [0x45] LOAD_SCHEDULED_TASK: Load scheduler "fdi2" with entities [LocalPlayer, LocalPlayer], work=[200*, 0*]
 74: 0x104B [0x5C] MUSIC_CONTROL: Set Idle (Day) music to song 0*
 75: 0x104F [0x5C] MUSIC_CONTROL: Set Idle (Night) music to song 0*
 76: 0x1053 [0x5C] MUSIC_CONTROL: Set Combat (Solo) music to song 62*
 77: 0x1057 [0x5C] MUSIC_CONTROL: Set Combat (Party) music to song 62*
 78: 0x105B [0x06] ExtData[1]->WorkLocal[28] = 0
 79: 0x105E [0x45] LOAD_SCHEDULED_TASK: Load scheduler "whi1" with entities [LocalPlayer, LocalPlayer], work=[201*, 0*]
 80: 0x106F [0x45] LOAD_SCHEDULED_TASK: Load scheduler "blof" with entities [LocalPlayer, LocalPlayer], work=[200*, 0*]
 81: 0x1080 [0x21] END_EVENT
 82: 0x1081 [0x00] END_REQSTACK()
```

#### Data or dead code:

```
# Dead code (unreachable instructions):
     0x0F75 [0x79] Unknown NPC (ID: 2785083462/0xA6010046) looks at Unknown NPC (ID: 259981583/0x0F7F010F) (Unknown mode 15)
```

### Event 32003

#### Metadata

| Field        | Value     |
|--------------|-----------|
| Entrypoint   | 0x1082    |
| Data Size    | 182 bytes |
| Instructions | 33        |

```
      00 01 02 03 04 05 06 07  08 09 0A 0B 0C 0D 0E 0F
      -- -- -- -- -- -- -- --  -- -- -- -- -- -- -- --
1080:       06 21 00 06 22 00  03 25 00 06 10 03 24 00    .!.."..%....$.
1090: 07 10 03 23 00 08 10 06  01 10 1A FC 12 02 21 00  ...#..........!.
10A0: 0D 80 00 36 11 42 03 01  10 10 80 43 00 43 01 03  ...6.B.....C.C..
10B0: 01 10 46 80 43 00 43 01  1A 13 13 02 22 00 0D 80  ..F.C.C....."...
10C0: 00 36 11 45 0B 80 F0 FF  FF 7F F0 FF FF 7F 66 64  .6.E..........fd
10D0: 6F 31 03 80 55 0B 80 F0  FF FF 7F F0 FF FF 7F 66  o1..U..........f
10E0: 64 6F 31 03 01 10 47 80  47 00 6C 80 3B 80 6D 80  do1...G.G.l.;.m.
10F0: 03 80 47 01 38 08 80 79  00 F0 FF FF 7F F0 FF FF  ..G.8..y........
1100: 7F 1A 17 13 45 1A 80 F0  FF FF 7F F0 FF FF 7F 77  ....E..........w
1110: 68 69 31 03 80 45 0B 80  F0 FF FF 7F F0 FF FF 7F  hi1..E..........
1120: 62 6C 6F 66 03 80 5C 00  03 80 5C 01 03 80 5C 02  blof..\...\...\.
1130: 6A 80 5C 03 6A 80 21 00                           j.\.j.!.        
```

#### Opcodes

```
  0: 0x1082 [0x06] ExtData[1]->WorkLocal[33] = 0
  1: 0x1085 [0x06] ExtData[1]->WorkLocal[34] = 0
  2: 0x1088 [0x03] ExtData[1]->WorkLocal[37] = Work_Zone[6]
  3: 0x108D [0x03] ExtData[1]->WorkLocal[36] = Work_Zone[7]
  4: 0x1092 [0x03] ExtData[1]->WorkLocal[35] = Work_Zone[8]
  5: 0x1097 [0x06] Work_Zone[1] = 0
  6: 0x109A [0x1A] CALL_SUBROUTINE(address=0x12FC)
  7: 0x109D [0x02] IF !(ExtData[1]->WorkLocal[33] == 1*) GOTO 0x1136
  8: 0x10A5 [0x42] SET_CLI_EVENT_CANCEL_DATA()
  9: 0x10A6 [0x03] Work_Zone[1] = 2*
 10: 0x10AB [0x43] SEND_EVENT_UPDATE: Send pending tag to server (packet 0x005B)
 11: 0x10AD [0x43] SEND_EVENT_UPDATE: Check pending flag (skip if not pending)
 12: 0x10AF [0x03] Work_Zone[1] = 3*
 13: 0x10B4 [0x43] SEND_EVENT_UPDATE: Send pending tag to server (packet 0x005B)
 14: 0x10B6 [0x43] SEND_EVENT_UPDATE: Check pending flag (skip if not pending)
 15: 0x10B8 [0x1A] CALL_SUBROUTINE(address=0x1313)
 16: 0x10BB [0x02] IF !(ExtData[1]->WorkLocal[34] == 1*) GOTO 0x1136
 17: 0x10C3 [0x45] LOAD_SCHEDULED_TASK: Load scheduler "fdo1" with entities [LocalPlayer, LocalPlayer], work=[200*, 0*]
 18: 0x10D4 [0x55] WAIT_LOAD_SCHEDULER: Wait for scheduler "fdo1" with entities [LocalPlayer, LocalPlayer], work=200*
 19: 0x10E3 [0x03] Work_Zone[1] = 4*
 20: 0x10E8 [0x47] UPDATE_PLAYER_POS(132.200*, 20.000*, 39.500*, yaw=0.0째*)
 21: 0x10F2 [0x47] WAIT_PLAYER_POS_UPDATE
 22: 0x10F4 [0x38] SET_CLIENT_EVENT_MODE(mode=19*)
 23: 0x10F7 [0x79] LocalPlayer looks at LocalPlayer (Basic look)
 24: 0x1101 [0x1A] CALL_SUBROUTINE(address=0x1317)
 25: 0x1104 [0x45] LOAD_SCHEDULED_TASK: Load scheduler "whi1" with entities [LocalPlayer, LocalPlayer], work=[201*, 0*]
 26: 0x1115 [0x45] LOAD_SCHEDULED_TASK: Load scheduler "blof" with entities [LocalPlayer, LocalPlayer], work=[200*, 0*]
 27: 0x1126 [0x5C] MUSIC_CONTROL: Set Idle (Day) music to song 0*
 28: 0x112A [0x5C] MUSIC_CONTROL: Set Idle (Night) music to song 0*
 29: 0x112E [0x5C] MUSIC_CONTROL: Set Combat (Solo) music to song 62*
 30: 0x1132 [0x5C] MUSIC_CONTROL: Set Combat (Party) music to song 62*
 31: 0x1136 [0x21] END_EVENT
 32: 0x1137 [0x00] END_REQSTACK()
```

### Event 32004

#### Metadata

| Field        | Value      |
|--------------|------------|
| Entrypoint   | 0x1138     |
| Data Size    | 1448 bytes |
| Instructions | 14         |

```
      00 01 02 03 04 05 06 07  08 09 0A 0B 0C 0D 0E 0F
      -- -- -- -- -- -- -- --  -- -- -- -- -- -- -- --
1130:                          03 26 00 02 10 03 27 00          .&....'.
1140: 03 10 03 23 00 04 10 03  28 00 05 10 42 38 60 80  ...#....(...B8`.
1150: 02 28 00 03 80 00 5B 11  1C 75 80 02 23 00 03 80  .(....[..u..#...
1160: 80 66 11 01 66 11 45 0B  80 F0 FF FF 7F F0 FF FF  .f..f.E.........
1170: 7F 66 64 69 32 03 80 46  00 21 00 02 28 00 03 80  .fdi2..F.!..(...
1180: 00 F6 11 02 26 00 0D 80  80 9A 11 47 00 4B 80 4C  ....&......G.K.L
1190: 80 4D 80 06 80 47 01 01  F6 11 02 26 00 10 80 80  .M...G.....&....
11A0: B1 11 47 00 4B 80 03 80  4E 80 06 80 47 01 01 F6  ..G.K...N...G...
11B0: 11 02 26 00 46 80 80 C8  11 47 00 4B 80 4F 80 4D  ..&.F....G.K.O.M
11C0: 80 06 80 47 01 01 F6 11  02 26 00 47 80 80 DF 11  ...G.....&.G....
11D0: 47 00 50 80 4C 80 4D 80  06 80 47 01 01 F6 11 02  G.P.L.M...G.....
11E0: 26 00 12 80 80 F6 11 47  00 50 80 03 80 4E 80 06  &......G.P...N..
