# Event 608

## Metadata

| Field           | Value    |
|-----------------|----------|
| Event Index     | 8/11     |
| Offset          | 0x0093   |
| Data Size       | 33 bytes |
| Calculated Size | 33 bytes |
| Instructions    | 12       |

```
      00 01 02 03 04 05 06 07  08 09 0A 0B 0C 0D 0E 0F
      -- -- -- -- -- -- -- --  -- -- -- -- -- -- -- --
0090:          1E F0 FF FF 7F  6F 70 29 08 4E E0 0E 01     .....op).N...
00A0: 01 1D 08 80 23 1D 09 80  23 29 08 4E E0 0E 01 02  ....#...#).N....
00B0: 20 00 21 00                                        .!.            
```

## Opcodes

```
  0: 0x0093 [0x1E] EventEntity looks at LocalPlayer and starts talking
  1: 0x0098 [0x6F] WAIT_FRAME_DELAY: Yield until WaitTime reaches zero
  2: 0x0099 [0x70] WAIT_ENTITY_RENDER_FLAG: Wait while EventEntity->Render.Flags3 bit 2 is set (cancel turn if not)
  3: 0x009A [0x29] REQ_SET_WAIT(priority=0x08, entity_id=Aramu-Paramu (ID: 17752142/0x010EE04E), tag_num=0x01)
  4: 0x00A1 [0x1D] PRINT_EVENT_MESSAGE(message_id=8886*)
    → "Welcome to the \u00072Cerulean Stairs\u00073 Restaurant...the cheapest and tastiest place in all Windurst.\u007F1\u0000\u0007"
  5: 0x00A4 [0x23] WAIT_FOR_DIALOG_INTERACTION
  6: 0x00A5 [0x1D] PRINT_EVENT_MESSAGE(message_id=8887*)
    → "Today we have fresh seafood by the boatload. Why not try our fish for lunch or dinner?\u007F1\u0000\u0007"
  7: 0x00A8 [0x23] WAIT_FOR_DIALOG_INTERACTION
  8: 0x00A9 [0x29] REQ_SET_WAIT(priority=0x08, entity_id=Aramu-Paramu (ID: 17752142/0x010EE04E), tag_num=0x02)
  9: 0x00B0 [0x20] SET_CLI_EVENT_UC_FLAG: Unlock player control
 10: 0x00B2 [0x21] END_EVENT
 11: 0x00B3 [0x00] END_REQSTACK()
```
