# Event 683

## Metadata

| Field           | Value    |
|-----------------|----------|
| Event Index     | 9/11     |
| Offset          | 0x00B4   |
| Data Size       | 33 bytes |
| Calculated Size | 33 bytes |
| Instructions    | 12       |

```
      00 01 02 03 04 05 06 07  08 09 0A 0B 0C 0D 0E 0F
      -- -- -- -- -- -- -- --  -- -- -- -- -- -- -- --
00B0:             1E F0 FF FF  7F 6F 70 29 08 4E E0 0E      .....op).N..
00C0: 01 01 1D 0A 80 23 1D 0B  80 23 29 08 4E E0 0E 01  .....#...#).N...
00D0: 02 20 00 21 00                                    . .!.           
```

## Opcodes

```
  0: 0x00B4 [0x1E] EventEntity looks at LocalPlayer and starts talking
  1: 0x00B9 [0x6F] WAIT_FRAME_DELAY: Yield until WaitTime reaches zero
  2: 0x00BA [0x70] WAIT_ENTITY_RENDER_FLAG: Wait while EventEntity->Render.Flags3 bit 2 is set (cancel turn if not)
  3: 0x00BB [0x29] REQ_SET_WAIT(priority=0x08, entity_id=Aramu-Paramu (ID: 17752142/0x010EE04E), tag_num=0x01)
  4: 0x00C2 [0x1D] PRINT_EVENT_MESSAGE(message_id=8922*)
    → "Naturally, I also am most worried about Jatan-Paratan.\u007F1\u0000\u0007"
  5: 0x00C5 [0x23] WAIT_FOR_DIALOG_INTERACTION
  6: 0x00C6 [0x1D] PRINT_EVENT_MESSAGE(message_id=8923*)
    → "That bard who came from Jeuno the other day appears to be an old traveling companion of his. So I assume that when they got caught up on each other's tales, he suddenly got the urge to start wandering again...?\u007F1\u0000\u0007"
  7: 0x00C9 [0x23] WAIT_FOR_DIALOG_INTERACTION
  8: 0x00CA [0x29] REQ_SET_WAIT(priority=0x08, entity_id=Aramu-Paramu (ID: 17752142/0x010EE04E), tag_num=0x02)
  9: 0x00D1 [0x20] SET_CLI_EVENT_UC_FLAG: Unlock player control
 10: 0x00D3 [0x21] END_EVENT
 11: 0x00D4 [0x00] END_REQSTACK()
```
