# Event 65535

## Metadata

| Field           | Value    |
|-----------------|----------|
| Event Index     | 10/17    |
| Offset          | 0x0172   |
| Data Size       | 32 bytes |
| Calculated Size | 32 bytes |
| Instructions    | 9        |

```
      00 01 02 03 04 05 06 07  08 09 0A 0B 0C 0D 0E 0F
      -- -- -- -- -- -- -- --  -- -- -- -- -- -- -- --
0170:       32 0E 80 1F 00 0A  80 0F 80 0C 80 1F 01 6F    2............o
0180: 1E 07 30 0F 01 79 00 12  30 0F 01 F0 FF FF 7F 6F  ..0..y..0......o
0190: 70 00                                             p.              
```

## Opcodes

```
  0: 0x0172 [0x32] ExtData[1]->MainSpeed = 40* * 0.1
  1: 0x0175 [0x1F] MOVE_ENTITY: EventEntity moves to X=-1.000*, Z=40.750*, Y=1.999*
  2: 0x017D [0x1F] MOVE_ENTITY: Update entity position (mode=1)
  3: 0x017F [0x6F] WAIT_FRAME_DELAY: Yield until WaitTime reaches zero
  4: 0x0180 [0x1E] EventEntity looks at Wolfgang (ID: 17772551/0x010F3007) and starts talking
  5: 0x0185 [0x79] Auchefort (ID: 17772562/0x010F3012) looks at LocalPlayer (Basic look)
  6: 0x018F [0x6F] WAIT_FRAME_DELAY: Yield until WaitTime reaches zero
  7: 0x0190 [0x70] WAIT_ENTITY_RENDER_FLAG: Wait while EventEntity->Render.Flags3 bit 2 is set (cancel turn if not)
  8: 0x0191 [0x00] END_REQSTACK()
```
