# Event 2

## Metadata

| Field           | Value    |
|-----------------|----------|
| Event Index     | 3/3      |
| Offset          | 0x002E   |
| Data Size       | 19 bytes |
| Calculated Size | 19 bytes |
| Instructions    | 11       |

```
      00 01 02 03 04 05 06 07  08 09 0A 0B 0C 0D 0E 0F
      -- -- -- -- -- -- -- --  -- -- -- -- -- -- -- --
0020:                                            42 20                B 
0030: 01 1D 09 80 23 1D 0A 80  23 1D 0B 80 23 20 00 21  ....#...#...# .!
0040: 00                                                .               
```

## Opcodes

```
  0: 0x002E [0x42] SET_CLI_EVENT_CANCEL_DATA()
  1: 0x002F [0x20] SET_CLI_EVENT_UC_FLAG: Lock player control
  2: 0x0031 [0x1D] PRINT_EVENT_MESSAGE(message_id=7368*)
    → "My sword! You've brought me my sword!\u007F1\u0000\u0007"
  3: 0x0034 [0x23] WAIT_FOR_DIALOG_INTERACTION
  4: 0x0035 [0x1D] PRINT_EVENT_MESSAGE(message_id=7371*)
    → "This is just what I needed. I thank you, adventurer.\u007F1\u0000\u0007"
  5: 0x0038 [0x23] WAIT_FOR_DIALOG_INTERACTION
  6: 0x0039 [0x1D] PRINT_EVENT_MESSAGE(message_id=7372*)
    → "I'll be fine from here on out.\u0007Please let my captain know...\u007F1\u0000\u0007"
  7: 0x003C [0x23] WAIT_FOR_DIALOG_INTERACTION
  8: 0x003D [0x20] SET_CLI_EVENT_UC_FLAG: Unlock player control
  9: 0x003F [0x21] END_EVENT
 10: 0x0040 [0x00] END_REQSTACK()
```
