# Event 65535

## Metadata

| Field           | Value    |
|-----------------|----------|
| Event Index     | 7/15     |
| Offset          | 0x0091   |
| Data Size       | 64 bytes |
| Calculated Size | 64 bytes |
| Instructions    | 6        |

```
      00 01 02 03 04 05 06 07  08 09 0A 0B 0C 0D 0E 0F
      -- -- -- -- -- -- -- --  -- -- -- -- -- -- -- --
0090:    5B 08 80 F8 FF FF 7F  F8 FF FF 7F 77 6F 6E 32   [..........won2
00A0: 5B 09 80 F8 FF FF 7F F8  FF FF 7F 75 6B 74 30 1C  [..........ukt0.
00B0: 0A 80 45 0B 80 10 70 0E  01 10 70 0E 01 73 65 30  ..E...p...p..se0
00C0: 31 06 80 53 F8 FF FF 7F  F8 FF FF 7F 75 6B 74 30  1..S........ukt0
00D0: 00                                                .               
```

## Opcodes

```
  0: 0x0091 [0x5B] LOAD_EXT_SCHEDULER(work_offset=13*, entity1=EventEntity, entity2=EventEntity, action="won2")
  1: 0x00A0 [0x5B] LOAD_EXT_SCHEDULER(work_offset=15*, entity1=EventEntity, entity2=EventEntity, action="ukt0")
  2: 0x00AF [0x1C] WAIT(30* ticks)
  3: 0x00B2 [0x45] LOAD_SCHEDULED_TASK(work_offset1=243*, entity1=Shamonde (ID: 17723408/0x010E7010), entity2=Shamonde (ID: 17723408/0x010E7010), scheduler_id="se01", work_offset2=0*)
  4: 0x00C3 [0x53] WAIT_SCHEDULER_TASK(entity1=EventEntity, entity2=EventEntity, action_id="ukt0")
  5: 0x00D0 [0x00] END_REQSTACK()
```
