# Event 10286

## Metadata

| Field           | Value    |
|-----------------|----------|
| Event Index     | 58/58    |
| Offset          | 0x074F   |
| Data Size       | 51 bytes |
| Calculated Size | 51 bytes |
| Instructions    | 12       |

```
      00 01 02 03 04 05 06 07  08 09 0A 0B 0C 0D 0E 0F
      -- -- -- -- -- -- -- --  -- -- -- -- -- -- -- --
0740:                                               1E                 .
0750: F0 FF FF 7F 6F 70 66 03  80 F8 FF FF 7F F8 FF FF  ....opf.........
0760: 7F 64 6B 30 30 1D 3F 80  1C 06 80 23 66 03 80 F8  .dk00.?....#f...
0770: FF FF 7F F8 FF FF 7F 64  6B 30 31 1C 04 80 20 00  .......dk01... .
0780: 21 00                                             !.              
```

## Opcodes

```
  0: 0x074F [0x1E] EventEntity looks at LocalPlayer and starts talking
  1: 0x0754 [0x6F] WAIT_FRAME_DELAY: Yield until WaitTime reaches zero
  2: 0x0755 [0x70] WAIT_ENTITY_RENDER_FLAG: Wait while EventEntity->Render.Flags3 bit 2 is set (cancel turn if not)
  3: 0x0756 [0x66] LOAD_EXT_SCHEDULER_MAIN: Load scheduler "dk00" with entities [EventEntity, EventEntity], work=12*
  4: 0x0765 [0x1D] PRINT_EVENT_MESSAGE(message_id=15732*)
    → "Now get out there and experience the fruits of my research for yourself!\u007F1\u0000\u0007"
  5: 0x0768 [0x1C] WAIT(90* ticks)
  6: 0x076B [0x23] WAIT_FOR_DIALOG_INTERACTION
  7: 0x076C [0x66] LOAD_EXT_SCHEDULER_MAIN: Load scheduler "dk01" with entities [EventEntity, EventEntity], work=12*
  8: 0x077B [0x1C] WAIT(60* ticks)
  9: 0x077E [0x20] SET_CLI_EVENT_UC_FLAG: Unlock player control
 10: 0x0780 [0x21] END_EVENT
 11: 0x0781 [0x00] END_REQSTACK()
```
