# Event 10284

## Metadata

| Field           | Value    |
|-----------------|----------|
| Event Index     | 56/58    |
| Offset          | 0x05B3   |
| Data Size       | 33 bytes |
| Calculated Size | 33 bytes |
| Instructions    | 10       |

```
      00 01 02 03 04 05 06 07  08 09 0A 0B 0C 0D 0E 0F
      -- -- -- -- -- -- -- --  -- -- -- -- -- -- -- --
05B0:          1E F0 FF FF 7F  6F 70 66 00 80 F8 FF FF     .....opf.....
05C0: 7F F8 FF FF 7F 77 61 76  30 1D 25 80 1C 06 80 23  .....wav0.%....#
05D0: 20 00 21 00                                        .!.            
```

## Opcodes

```
  0: 0x05B3 [0x1E] EventEntity looks at LocalPlayer and starts talking
  1: 0x05B8 [0x6F] WAIT_FRAME_DELAY: Yield until WaitTime reaches zero
  2: 0x05B9 [0x70] WAIT_ENTITY_RENDER_FLAG: Wait while EventEntity->Render.Flags3 bit 2 is set (cancel turn if not)
  3: 0x05BA [0x66] LOAD_EXT_SCHEDULER_MAIN(work_offset=10*, entity1=EventEntity, entity2=EventEntity, action="wav0")
  4: 0x05C9 [0x1D] PRINT_EVENT_MESSAGE(message_id=15710*)
    → "There are three objectives for you to complete. You simply need to complete them all to collect what is necessary!\u007F1\u0000\u0007"
  5: 0x05CC [0x1C] WAIT(90* ticks)
  6: 0x05CF [0x23] WAIT_FOR_DIALOG_INTERACTION
  7: 0x05D0 [0x20] SET_CLI_EVENT_UC_FLAG: Unlock player control
  8: 0x05D2 [0x21] END_EVENT
  9: 0x05D3 [0x00] END_REQSTACK()
```
