# Event 65535

## Metadata

| Field           | Value    |
|-----------------|----------|
| Event Index     | 40/43    |
| Offset          | 0x0448   |
| Data Size       | 53 bytes |
| Calculated Size | 53 bytes |
| Instructions    | 10       |

```
      00 01 02 03 04 05 06 07  08 09 0A 0B 0C 0D 0E 0F
      -- -- -- -- -- -- -- --  -- -- -- -- -- -- -- --
0440:                          32 08 80 1F 00 4C 80 4D          2....L.M
0450: 80 02 80 1F 01 1F 00 4E  80 4F 80 02 80 1F 01 6F  .......N.O.....o
0460: 1C 18 80 79 00 49 60 0F  01 86 60 0F 01 5B 50 80  ...y.I`...`..[P.
0470: 86 60 0F 01 86 60 0F 01  74 6C 6B 30 00           .`...`..tlk0.   
```

## Opcodes

```
  0: 0x0448 [0x32] ExtData[1]->MainSpeed = 13* * 0.1
  1: 0x044B [0x1F] MOVE_ENTITY: EventEntity moves to X=-58.047*, Z=9.433*, Y=0.000*
  2: 0x0453 [0x1F] MOVE_ENTITY: Update entity position (mode=1)
  3: 0x0455 [0x1F] MOVE_ENTITY: EventEntity moves to X=-56.466*, Z=10.018*, Y=0.000*
  4: 0x045D [0x1F] MOVE_ENTITY: Update entity position (mode=1)
  5: 0x045F [0x6F] WAIT_FRAME_DELAY: Yield until WaitTime reaches zero
  6: 0x0460 [0x1C] WAIT(15* ticks)
  7: 0x0463 [0x79] Shami (ID: 17784905/0x010F6049) looks at Squintrox Dryeyes (ID: 17784966/0x010F6086) (Basic look)
  8: 0x046D [0x5B] LOAD_EXT_SCHEDULER: Load scheduler "tlk0" with entities [Squintrox Dryeyes (ID: 17784966/0x010F6086), Squintrox Dryeyes (ID: 17784966/0x010F6086)], work=215*
  9: 0x047C [0x00] END_REQSTACK()
```
