# Event 65535

## Metadata

| Field           | Value    |
|-----------------|----------|
| Event Index     | 29/43    |
| Offset          | 0x02C8   |
| Data Size       | 45 bytes |
| Calculated Size | 45 bytes |
| Instructions    | 13       |

```
      00 01 02 03 04 05 06 07  08 09 0A 0B 0C 0D 0E 0F
      -- -- -- -- -- -- -- --  -- -- -- -- -- -- -- --
02C0:                          32 08 80 1F 00 2E 80 2F          2....../
02D0: 80 02 80 1F 01 1C 15 80  39 30 80 1C 31 80 1F 00  ........90..1...
02E0: 32 80 33 80 02 80 1F 01  1C 15 80 39 34 80 1C 31  2.3........94..1
02F0: 80 01 C8 02 00                                    .....           
```

## Opcodes

```
  0: 0x02C8 [0x32] ExtData[1]->MainSpeed = 13* * 0.1
  1: 0x02CB [0x1F] MOVE_ENTITY: EventEntity moves to X=-96.584*, Z=-8.519*, Y=0.000*
  2: 0x02D3 [0x1F] MOVE_ENTITY: Update entity position (mode=1)
  3: 0x02D5 [0x1C] WAIT(30* ticks)
  4: 0x02D8 [0x39] SET_ENTITY_DIRECTION(direction=19.7°*)
  5: 0x02DB [0x1C] WAIT(360* ticks)
  6: 0x02DE [0x1F] MOVE_ENTITY: EventEntity moves to X=-96.241*, Z=8.872*, Y=0.000*
  7: 0x02E6 [0x1F] MOVE_ENTITY: Update entity position (mode=1)
  8: 0x02E8 [0x1C] WAIT(30* ticks)
  9: 0x02EB [0x39] SET_ENTITY_DIRECTION(direction=2.8°*)
 10: 0x02EE [0x1C] WAIT(360* ticks)
 11: 0x02F1 [0x01] GOTO 0x02C8
```

## Data or dead code:

```
# Dead code (unreachable instructions):
     0x02F4 [0x00] END_REQSTACK()
```