# Event 287

## Metadata

| Field           | Value    |
|-----------------|----------|
| Event Index     | 6/14     |
| Offset          | 0x042E   |
| Data Size       | 44 bytes |
| Calculated Size | 44 bytes |
| Instructions    | 8        |

```
      00 01 02 03 04 05 06 07  08 09 0A 0B 0C 0D 0E 0F
      -- -- -- -- -- -- -- --  -- -- -- -- -- -- -- --
0420:                                            1E F0                ..
0430: FF FF 7F 5B 00 80 F8 FF  FF 7F F8 FF FF 7F 74 6C  ...[..........tl
0440: 62 30 1D 21 80 23 5B 00  80 F8 FF FF 7F F8 FF FF  b0.!.#[.........
0450: 7F 74 6C 62 31 1C 04 80  21 00                    .tlb1...!.      
```

## Opcodes

```
  0: 0x042E [0x1E] EventEntity looks at LocalPlayer and starts talking
  1: 0x0433 [0x5B] LOAD_EXT_SCHEDULER(work_offset=843*, entity1=EventEntity, entity2=EventEntity, action="tlb0")
  2: 0x0442 [0x1D] PRINT_EVENT_MESSAGE(message_id=10696*)
    → "Nation where Leleroon have friend.\u0001t\u0007Place with castle inside of fooorest, yooo know?\u007F1\u0000\u0007"
  3: 0x0445 [0x23] WAIT_FOR_DIALOG_INTERACTION
  4: 0x0446 [0x5B] LOAD_EXT_SCHEDULER(work_offset=843*, entity1=EventEntity, entity2=EventEntity, action="tlb1")
  5: 0x0455 [0x1C] WAIT(30* ticks)
  6: 0x0458 [0x21] END_EVENT
  7: 0x0459 [0x00] END_REQSTACK()
```
