# Event 292

## Metadata

| Field           | Value    |
|-----------------|----------|
| Event Index     | 8/14     |
| Offset          | 0x0656   |
| Data Size       | 52 bytes |
| Calculated Size | 52 bytes |
| Instructions    | 12       |

```
      00 01 02 03 04 05 06 07  08 09 0A 0B 0C 0D 0E 0F
      -- -- -- -- -- -- -- --  -- -- -- -- -- -- -- --
0650:                   1E F0  FF FF 7F 5B 00 80 F8 FF        .....[....
0660: FF 7F F8 FF FF 7F 74 6C  62 30 1D 2F 80 23 1D 30  ......tlb0./.#.0
0670: 80 23 1D 31 80 23 5B 00  80 F8 FF FF 7F F8 FF FF  .#.1.#[.........
0680: 7F 74 6C 62 31 1C 04 80  21 00                    .tlb1...!.      
```

## Opcodes

```
  0: 0x0656 [0x1E] EventEntity looks at LocalPlayer and starts talking
  1: 0x065B [0x5B] LOAD_EXT_SCHEDULER(work_offset=843*, entity1=EventEntity, entity2=EventEntity, action="tlb0")
  2: 0x066A [0x1D] PRINT_EVENT_MESSAGE(message_id=10708*)
    → "No goood, nooo hydrooo cage! Charge! Charge! At shiny place! Then tick tock, yooo know?\u007F1\u0000\u0007"
  3: 0x066D [0x23] WAIT_FOR_DIALOG_INTERACTION
  4: 0x066E [0x1D] PRINT_EVENT_MESSAGE(message_id=10709*)
    → "Leleroon think Jajooomie Woodland? Jajajooom! Only tell Jajajooomie to Seagoool crooo!\u007F1\u0000\u0007"
  5: 0x0671 [0x23] WAIT_FOR_DIALOG_INTERACTION
  6: 0x0672 [0x1D] PRINT_EVENT_MESSAGE(message_id=10710*)
    → "When charge done, yooo get, okay? Then Leleroon know everyone so happiness!\u007F1\u0000\u0007"
  7: 0x0675 [0x23] WAIT_FOR_DIALOG_INTERACTION
  8: 0x0676 [0x5B] LOAD_EXT_SCHEDULER(work_offset=843*, entity1=EventEntity, entity2=EventEntity, action="tlb1")
  9: 0x0685 [0x1C] WAIT(30* ticks)
 10: 0x0688 [0x21] END_EVENT
 11: 0x0689 [0x00] END_REQSTACK()
```
