# Event 185

## Metadata

| Field           | Value    |
|-----------------|----------|
| Event Index     | 7/15     |
| Offset          | 0x005B   |
| Data Size       | 54 bytes |
| Calculated Size | 54 bytes |
| Instructions    | 6        |

```
      00 01 02 03 04 05 06 07  08 09 0A 0B 0C 0D 0E 0F
      -- -- -- -- -- -- -- --  -- -- -- -- -- -- -- --
0050:                                   B4 00 00 00 43             ....C
0060: 68 61 6C 76 61 76 61 00  00 00 00 00 00 00 00 B5  halvava.........
0070: 00 00 00 B6 0B 13 80 14  80 15 80 16 80 05 80 17  ................
0080: 80 0F 80 05 80 05 80 95  00 80 92 01 F8 FF FF 7F  ................
0090: 00                                                .               
```

## Opcodes

```
  0: 0x005B [0xB4] UI_WINDOW_STRING_HANDLER(case=0x00 - Copy string from opcode, work_offset=ExtData[1]->WorkLocal[0], string="Chalvava")
  1: 0x006F [0xB5] SET_EVENT_ENTITY_NAME: Change EventEntity name to ExtData[1]->WorkLocal[0]
  2: 0x0073 [0xB6] ENTITY_APPEARANCE_HANDLER(case=Full entity look, race=6*, hair=5*, head=115*, body=103*, hands=0*, legs=171*, feet=3*, main=0*, sub=0*)
  3: 0x0087 [0x95] SETUP_EVENT_NPC: Prepare NPC for event (Render.Flags3 = 1*)
  4: 0x008A [0x92] EventEntity->Render.Flags3 ^= 0x01
  5: 0x0090 [0x00] END_REQSTACK()
```
