# Event 65535

## Metadata

| Field           | Value    |
|-----------------|----------|
| Event Index     | 6/16     |
| Offset          | 0x0056   |
| Data Size       | 36 bytes |
| Calculated Size | 36 bytes |
| Instructions    | 8        |

```
      00 01 02 03 04 05 06 07  08 09 0A 0B 0C 0D 0E 0F
      -- -- -- -- -- -- -- --  -- -- -- -- -- -- -- --
0050:                   32 04  80 1F 00 13 80 14 80 15        2.........
0060: 80 1F 01 6F 1C 16 80 5B  17 80 F8 FF FF 7F F8 FF  ...o...[........
0070: FF 7F 69 6B 61 30 1C 00  17 00                    ..ika0....      
```

## Opcodes

```
  0: 0x0056 [0x32] ExtData[1]->MainSpeed = 40* * 0.1
  1: 0x0059 [0x1F] MOVE_ENTITY: EventEntity moves to X=168.877*, Z=163.611*, Y=-0.071*
  2: 0x0061 [0x1F] MOVE_ENTITY: Update entity position (mode=1)
  3: 0x0063 [0x6F] WAIT_FRAME_DELAY: Yield until WaitTime reaches zero
  4: 0x0064 [0x1C] WAIT(10* ticks)
  5: 0x0067 [0x5B] LOAD_EXT_SCHEDULER: Load scheduler "ika0" with entities [EventEntity, EventEntity], work=3255*
  6: 0x0076 [0x1C] WAIT(Work_Zone_1700[0] ticks)
  7: 0x0079 [0x00] END_REQSTACK()
```
