# Event 65535

## Metadata

| Field           | Value    |
|-----------------|----------|
| Event Index     | 16/16    |
| Offset          | 0x0106   |
| Data Size       | 50 bytes |
| Calculated Size | 50 bytes |
| Instructions    | 12       |

```
      00 01 02 03 04 05 06 07  08 09 0A 0B 0C 0D 0E 0F
      -- -- -- -- -- -- -- --  -- -- -- -- -- -- -- --
0100:                   39 21  80 1C 20 80 32 04 80 1F        9!.. .2...
0110: 00 22 80 23 80 24 80 1F  01 1F 00 25 80 26 80 27  .".#.$.....%.&.'
0120: 80 1F 01 1F 00 28 80 29  80 2A 80 1F 01 1F 00 2B  .....(.).*.....+
0130: 80 2C 80 2D 80 1F 01 00                           .,.-....        
```

## Opcodes

```
  0: 0x0106 [0x39] SET_ENTITY_DIRECTION(direction=354.4°*)
  1: 0x0109 [0x1C] WAIT(15* ticks)
  2: 0x010C [0x32] ExtData[1]->MainSpeed = 40* * 0.1
  3: 0x010F [0x1F] MOVE_ENTITY: EventEntity moves to X=168.550*, Z=175.330*, Y=0.690*
  4: 0x0117 [0x1F] MOVE_ENTITY: Update entity position (mode=1)
  5: 0x0119 [0x1F] MOVE_ENTITY: EventEntity moves to X=170.190*, Z=178.720*, Y=0.830*
  6: 0x0121 [0x1F] MOVE_ENTITY: Update entity position (mode=1)
  7: 0x0123 [0x1F] MOVE_ENTITY: EventEntity moves to X=173.630*, Z=183.600*, Y=1.050*
  8: 0x012B [0x1F] MOVE_ENTITY: Update entity position (mode=1)
  9: 0x012D [0x1F] MOVE_ENTITY: EventEntity moves to X=206.810*, Z=207.560*, Y=0.490*
 10: 0x0135 [0x1F] MOVE_ENTITY: Update entity position (mode=1)
 11: 0x0137 [0x00] END_REQSTACK()
```
