# 17285688 - Casket

## Common Data

| Field            | Value                    |
|------------------|--------------------------|
| Zone             | Yhoator Jungle (ID: 124) |
| Block Size       | 384 bytes                |
| Total Events     | 5                        |
| References Count | 34                       |

## List of Events

| Event ID              | Entrypoint   |   Size |   Instructions |
|-----------------------|--------------|--------|----------------|
| [65535](#event-65535) | 0x0000       |      1 |              1 |
| [105](#event-105)     | 0x0001       |      1 |              1 |
| [106](#event-106)     | 0x0002       |     15 |              4 |
| [107](#event-107)     | 0x0011       |     14 |              2 |
| [108](#event-108)     | 0x001F       |    178 |             30 |

## DAT References (imed_data)

|   Index | Hex Value   |   Dec Value |
|---------|-------------|-------------|
|       0 | 0x0078      |         120 |
|       1 | 0x00B4      |         180 |
|       2 | 0x0000      |           0 |
|       3 | 0xFFFDB657  |  4294817367 |
|       4 | 0xDDB9      |       56761 |
|       5 | 0xFFFFFB84  |  4294966148 |
|       6 | 0x0001      |           1 |
|       7 | 0x13A88     |       80520 |
|       8 | 0x30DD3     |      200147 |
|       9 | 0xFFFFFAE0  |  4294965984 |
|      10 | 0x0002      |           2 |
|      11 | 0x307FA     |      198650 |
|      12 | 0xE2BE      |       58046 |
|      13 | 0xFFFFFCF1  |  4294966513 |
|      14 | 0x0003      |           3 |
|      15 | 0x3246C     |      205932 |
|      16 | 0xFFFD54DA  |  4294792410 |
|      17 | 0xFFFFFBB7  |  4294966199 |
|      18 | 0x0004      |           4 |
|      19 | 0x803B7     |      525239 |
|      20 | 0xFFF9FCC2  |  4294573250 |
|      21 | 0xFFFFFB38  |  4294966072 |
|      22 | 0x0005      |           5 |
|      23 | 0x3AAD5     |      240341 |
|      24 | 0xFFF9DB9C  |  4294564764 |
|      25 | 0xFFFFFCC6  |  4294966470 |
|      26 | 0x0006      |           6 |
|      27 | 0x3EC5      |       16069 |
|      28 | 0xFFF9FD8D  |  4294573453 |
|      29 | 0xFFFFFCA4  |  4294966436 |
|      30 | 0x0007      |           7 |
|      31 | 0xFFFC1A82  |  4294711938 |
|      32 | 0xFFF9D146  |  4294562118 |
|      33 | 0xFFFFFDD2  |  4294966738 |

## Events

### Event 65535

#### Metadata

| Field        | Value   |
|--------------|---------|
| Entrypoint   | 0x0000  |
| Data Size    | 1 bytes |
| Instructions | 1       |

```
      00 01 02 03 04 05 06 07  08 09 0A 0B 0C 0D 0E 0F
      -- -- -- -- -- -- -- --  -- -- -- -- -- -- -- --
0000: 00                                                .               
```

#### Opcodes

```
  0: 0x0000 [0x00] END_REQSTACK()
```

### Event 105

#### Metadata

| Field        | Value   |
|--------------|---------|
| Entrypoint   | 0x0001  |
| Data Size    | 1 bytes |
| Instructions | 1       |

```
      00 01 02 03 04 05 06 07  08 09 0A 0B 0C 0D 0E 0F
      -- -- -- -- -- -- -- --  -- -- -- -- -- -- -- --
0000:    00                                              .              
```

#### Opcodes

```
  0: 0x0001 [0x00] END_REQSTACK()
```

### Event 106

#### Metadata

| Field        | Value    |
|--------------|----------|
| Entrypoint   | 0x0002   |
| Data Size    | 15 bytes |
| Instructions | 4        |

```
      00 01 02 03 04 05 06 07  08 09 0A 0B 0C 0D 0E 0F
      -- -- -- -- -- -- -- --  -- -- -- -- -- -- -- --
0000:       1A 40 00 1E F0 FF  FF 7F 4E 00 38 C2 07 01    .@......N.8...
0010: 00                                                .               
```

#### Opcodes

```
  0: 0x0002 [0x1A] CALL_SUBROUTINE(address=0x0040)
  1: 0x0005 [0x1E] EventEntity looks at LocalPlayer and starts talking
  2: 0x000A [0x4E] SET_ENTITY_HIDE_FLAG: Show Casket (ID: 17285688/0x0107C238)
  3: 0x0010 [0x00] END_REQSTACK()
```

### Event 107

#### Metadata

| Field        | Value    |
|--------------|----------|
| Entrypoint   | 0x0011   |
| Data Size    | 14 bytes |
| Instructions | 2        |

```
      00 01 02 03 04 05 06 07  08 09 0A 0B 0C 0D 0E 0F
      -- -- -- -- -- -- -- --  -- -- -- -- -- -- -- --
0010:    2C F8 FF FF 7F F8 FF  FF 7F 6F 70 65 6E 00      ,........open. 
```

#### Opcodes

```
  0: 0x0011 [0x2C] CREATE_SCHEDULER_TASK: Create scheduler "open" with entities [EventEntity, EventEntity]
  1: 0x001E [0x00] END_REQSTACK()
```

### Event 108

#### Metadata

| Field        | Value     |
|--------------|-----------|
| Entrypoint   | 0x001F    |
| Data Size    | 178 bytes |
| Instructions | 5         |

```
      00 01 02 03 04 05 06 07  08 09 0A 0B 0C 0D 0E 0F
      -- -- -- -- -- -- -- --  -- -- -- -- -- -- -- --
0010:                                               2C                 ,
0020: F8 FF FF 7F F8 FF FF 7F  63 6C 6F 73 1C 00 80 2C  ........clos...,
0030: F8 FF FF 7F F8 FF FF 7F  6E 74 6F 65 1C 01 80 00  ........ntoe....
0040: 02 06 10 02 80 80 52 00  36 03 80 04 80 05 80 01  ......R.6.......
0050: D0 00 02 06 10 06 80 80  64 00 36 07 80 08 80 09  ........d.6.....
0060: 80 01 D0 00 02 06 10 0A  80 80 76 00 36 0B 80 0C  ..........v.6...
0070: 80 0D 80 01 D0 00 02 06  10 0E 80 80 88 00 36 0F  ..............6.
0080: 80 10 80 11 80 01 D0 00  02 06 10 12 80 80 9A 00  ................
0090: 36 13 80 14 80 15 80 01  D0 00 02 06 10 16 80 80  6...............
00A0: AC 00 36 17 80 18 80 19  80 01 D0 00 02 06 10 1A  ..6.............
00B0: 80 80 BE 00 36 1B 80 1C  80 1D 80 01 D0 00 02 06  ....6...........
00C0: 10 1E 80 80 D0 00 36 1F  80 20 80 21 80 01 D0 00  ......6.. .!....
00D0: 1B                                                .               
```

#### Opcodes

```
  0: 0x001F [0x2C] CREATE_SCHEDULER_TASK: Create scheduler "clos" with entities [EventEntity, EventEntity]
  1: 0x002C [0x1C] WAIT(120* ticks)
  2: 0x002F [0x2C] CREATE_SCHEDULER_TASK: Create scheduler "ntoe" with entities [EventEntity, EventEntity]
  3: 0x003C [0x1C] WAIT(180* ticks)
  4: 0x003F [0x00] END_REQSTACK()
```

#### Data or dead code:

```
# Dead code (unreachable instructions):
     0x0040 [0x02] IF !(Work_Zone[6] == 0*) GOTO 0x0052
     0x0048 [0x36] SET_ENTITY_EVENT_POSITION(pos_x=-149.929*, pos_z=56.761*, pos_y=-1.148*)
     0x004F [0x01] GOTO 0x00D0
     0x0052 [0x02] IF !(Work_Zone[6] == 1*) GOTO 0x0064
     0x005A [0x36] SET_ENTITY_EVENT_POSITION(pos_x=80.520*, pos_z=200.147*, pos_y=-1.312*)
     0x0061 [0x01] GOTO 0x00D0
     0x0064 [0x02] IF !(Work_Zone[6] == 2*) GOTO 0x0076
     0x006C [0x36] SET_ENTITY_EVENT_POSITION(pos_x=198.650*, pos_z=58.046*, pos_y=-0.783*)
     0x0073 [0x01] GOTO 0x00D0
     0x0076 [0x02] IF !(Work_Zone[6] == 3*) GOTO 0x0088
     0x007E [0x36] SET_ENTITY_EVENT_POSITION(pos_x=205.932*, pos_z=-174.886*, pos_y=-1.097*)
     0x0085 [0x01] GOTO 0x00D0
     0x0088 [0x02] IF !(Work_Zone[6] == 4*) GOTO 0x009A
     0x0090 [0x36] SET_ENTITY_EVENT_POSITION(pos_x=525.239*, pos_z=-394.046*, pos_y=-1.224*)
     0x0097 [0x01] GOTO 0x00D0
     0x009A [0x02] IF !(Work_Zone[6] == 5*) GOTO 0x00AC
     0x00A2 [0x36] SET_ENTITY_EVENT_POSITION(pos_x=240.341*, pos_z=-402.532*, pos_y=-0.826*)
     0x00A9 [0x01] GOTO 0x00D0
     0x00AC [0x02] IF !(Work_Zone[6] == 6*) GOTO 0x00BE
     0x00B4 [0x36] SET_ENTITY_EVENT_POSITION(pos_x=16.069*, pos_z=-393.843*, pos_y=-0.860*)
     0x00BB [0x01] GOTO 0x00D0
     0x00BE [0x02] IF !(Work_Zone[6] == 7*) GOTO 0x00D0
     0x00C6 [0x36] SET_ENTITY_EVENT_POSITION(pos_x=-255.358*, pos_z=-405.178*, pos_y=-0.558*)
     0x00CD [0x01] GOTO 0x00D0
     0x00D0 [0x1B] RETURN
```
