# Event 65535

## Metadata

| Field           | Value    |
|-----------------|----------|
| Event Index     | 54/55    |
| Offset          | 0x0578   |
| Data Size       | 58 bytes |
| Calculated Size | 58 bytes |
| Instructions    | 12       |

```
      00 01 02 03 04 05 06 07  08 09 0A 0B 0C 0D 0E 0F
      -- -- -- -- -- -- -- --  -- -- -- -- -- -- -- --
0570:                          5B 02 80 F8 FF FF 7F F8          [.......
0580: FF FF 7F 74 68 6B 31 1C  57 80 5B 02 80 F8 FF FF  ...thk1.W.[.....
0590: 7F F8 FF FF 7F 74 68 6B  32 1C 04 80 39 09 80 6F  .....thk2...9..o
05A0: 70 1C 21 80 32 28 80 1F  00 54 80 52 80 09 80 1F  p.!.2(...T.R....
05B0: 01 00                                             ..              
```

## Opcodes

```
  0: 0x0578 [0x5B] LOAD_EXT_SCHEDULER(work_offset=90*, entity1=EventEntity, entity2=EventEntity, action="thk1")
  1: 0x0587 [0x1C] WAIT(210* ticks)
  2: 0x058A [0x5B] LOAD_EXT_SCHEDULER(work_offset=90*, entity1=EventEntity, entity2=EventEntity, action="thk2")
  3: 0x0599 [0x1C] WAIT(60* ticks)
  4: 0x059C [0x39] SET_ENTITY_DIRECTION(direction=0.0°*)
  5: 0x059F [0x6F] WAIT_FRAME_DELAY: Yield until WaitTime reaches zero
  6: 0x05A0 [0x70] WAIT_ENTITY_RENDER_FLAG: Wait while EventEntity->Render.Flags3 bit 2 is set (cancel turn if not)
  7: 0x05A1 [0x1C] WAIT(10* ticks)
  8: 0x05A4 [0x32] ExtData[1]->MainSpeed = 40* * 0.1
  9: 0x05A7 [0x1F] MOVE_ENTITY: EventEntity moves to X=-63.000*, Z=-2.500*, Y=0.000*
 10: 0x05AF [0x1F] MOVE_ENTITY: Update entity position (mode=1)
 11: 0x05B1 [0x00] END_REQSTACK()
```
