# Event 310

## Metadata

| Field           | Value    |
|-----------------|----------|
| Event Index     | 27/39    |
| Offset          | 0x14F1   |
| Data Size       | 71 bytes |
| Calculated Size | 71 bytes |
| Instructions    | 9        |

```
      00 01 02 03 04 05 06 07  08 09 0A 0B 0C 0D 0E 0F
      -- -- -- -- -- -- -- --  -- -- -- -- -- -- -- --
14F0:    45 A2 80 F0 FF FF 7F  F0 FF FF 7F 73 30 34 37   E..........s047
1500: 01 80 29 0B 0C 00 0F 01  2F 45 A2 80 F0 FF FF 7F  ..)...../E......
1510: F0 FF FF 7F 73 30 33 36  01 80 29 0B 0C 00 0F 01  ....s036..).....
1520: 30 4A 0C 00 0F 01 19 00  0F 01 6F 76 0C 00 0F 01  0J........ov....
1530: 29 0B 0C 00 0F 01 31 00                           ).....1.        
```

## Opcodes

```
  0: 0x14F1 [0x45] LOAD_SCHEDULED_TASK: Load scheduler "s047" with entities [LocalPlayer, LocalPlayer], work=[140*, 0*]
  1: 0x1502 [0x29] REQ_SET_WAIT(priority=0x0B, entity_id=Semih Lafihna (ID: 17760268/0x010F000C), tag_num=0x2F)
  2: 0x1509 [0x45] LOAD_SCHEDULED_TASK: Load scheduler "s036" with entities [LocalPlayer, LocalPlayer], work=[140*, 0*]
  3: 0x151A [0x29] REQ_SET_WAIT(priority=0x0B, entity_id=Semih Lafihna (ID: 17760268/0x010F000C), tag_num=0x30)
  4: 0x1521 [0x4A] Semih Lafihna (ID: 17760268/0x010F000C) looks at Ajido-Marujido (ID: 17760281/0x010F0019)
  5: 0x152A [0x6F] WAIT_FRAME_DELAY: Yield until WaitTime reaches zero
  6: 0x152B [0x76] CHECK_ENTITY_RENDER_FLAGS: Wait until Semih Lafihna (ID: 17760268/0x010F000C) Render.Flags0 and Render.Flags3 conditions are met
  7: 0x1530 [0x29] REQ_SET_WAIT(priority=0x0B, entity_id=Semih Lafihna (ID: 17760268/0x010F000C), tag_num=0x31)
  8: 0x1537 [0x00] END_REQSTACK()
```
