# Event 65535

## Metadata

| Field           | Value    |
|-----------------|----------|
| Event Index     | 53/59    |
| Offset          | 0x02F6   |
| Data Size       | 65 bytes |
| Calculated Size | 65 bytes |
| Instructions    | 11       |

```
      00 01 02 03 04 05 06 07  08 09 0A 0B 0C 0D 0E 0F
      -- -- -- -- -- -- -- --  -- -- -- -- -- -- -- --
02F0:                   03 00  00 06 80 02 00 00 06 80        ..........
0300: 00 36 03 1C 07 80 C4 01  06 80 F8 FF FF 7F FE 62  .6.............b
0310: 06 01 1C 08 80 C4 01 06  80 F8 FF FF 7F FE 62 06  ..............b.
0320: 01 1C 08 80 C4 01 06 80  F8 FF FF 7F FE 62 06 01  .............b..
0330: 1C 08 80 01 FB 02 00                              .......         
```

## Opcodes

```
  0: 0x02F6 [0x03] ExtData[1]->WorkLocal[0] = 0*
  1: 0x02FB [0x02] IF !(ExtData[1]->WorkLocal[0] == 0*) GOTO 0x0336
  2: 0x0303 [0x1C] WAIT(90* ticks)
  3: 0x0306 [0xC4] SCHEDULE_MAGIC_CASTING_ALT (arg=17): EventEntity casts magic 0* on Kupofried (ID: 17195774/0x010662FE)
  4: 0x0312 [0x1C] WAIT(110* ticks)
  5: 0x0315 [0xC4] SCHEDULE_MAGIC_CASTING_ALT (arg=17): EventEntity casts magic 0* on Kupofried (ID: 17195774/0x010662FE)
  6: 0x0321 [0x1C] WAIT(110* ticks)
  7: 0x0324 [0xC4] SCHEDULE_MAGIC_CASTING_ALT (arg=17): EventEntity casts magic 0* on Kupofried (ID: 17195774/0x010662FE)
  8: 0x0330 [0x1C] WAIT(110* ticks)
  9: 0x0333 [0x01] GOTO 0x02FB

SUBROUTINE_0336:
 10: 0x0336 [0x00] END_REQSTACK()
```
