# Event 65535

## Metadata

| Field           | Value    |
|-----------------|----------|
| Event Index     | 22/22    |
| Offset          | 0x01D4   |
| Data Size       | 58 bytes |
| Calculated Size | 58 bytes |
| Instructions    | 10       |

```
      00 01 02 03 04 05 06 07  08 09 0A 0B 0C 0D 0E 0F
      -- -- -- -- -- -- -- --  -- -- -- -- -- -- -- --
01D0:             66 0C 80 F8  FF FF 7F F8 FF FF 7F 61      f..........a
01E0: 6B 62 30 53 F8 FF FF 7F  F8 FF FF 7F 61 6B 62 30  kb0S........akb0
01F0: 1C 0B 80 32 07 80 1F 00  12 80 13 80 05 80 1F 01  ...2............
0200: 6F 4B F8 FF FF 7F 01 80  7B F8 FF FF 7F 00        oK......{.....  
```

## Opcodes

```
  0: 0x01D4 [0x66] LOAD_EXT_SCHEDULER_MAIN: Load scheduler "akb0" with entities [EventEntity, EventEntity], work=5*
  1: 0x01E3 [0x53] WAIT_SCHEDULER_TASK: Wait for scheduler "akb0" with entities [EventEntity, EventEntity]
  2: 0x01F0 [0x1C] WAIT(60* ticks)
  3: 0x01F3 [0x32] ExtData[1]->MainSpeed = 13* * 0.1
  4: 0x01F6 [0x1F] MOVE_ENTITY: EventEntity moves to X=-147.198*, Z=-3.121*, Y=1.800*
  5: 0x01FE [0x1F] MOVE_ENTITY: Update entity position (mode=1)
  6: 0x0200 [0x6F] WAIT_FRAME_DELAY: Yield until WaitTime reaches zero
  7: 0x0201 [0x4B] UPDATE_ENTITY_YAW(entity=EventEntity, yaw=0.00°*)
  8: 0x0208 [0x7B] EventEntity stops talking
  9: 0x020D [0x00] END_REQSTACK()
```
