# Event 65535

## Metadata

| Field           | Value    |
|-----------------|----------|
| Event Index     | 15/22    |
| Offset          | 0x013F   |
| Data Size       | 61 bytes |
| Calculated Size | 61 bytes |
| Instructions    | 11       |

```
      00 01 02 03 04 05 06 07  08 09 0A 0B 0C 0D 0E 0F
      -- -- -- -- -- -- -- --  -- -- -- -- -- -- -- --
0130:                                               1C                 .
0140: 0B 80 66 0C 80 F8 FF FF  7F F8 FF FF 7F 61 6B 62  ..f..........akb
0150: 30 53 F8 FF FF 7F F8 FF  FF 7F 61 6B 62 30 1C 0E  0S........akb0..
0160: 80 32 11 80 1F 00 12 80  13 80 05 80 1F 01 6F 4B  .2............oK
0170: F8 FF FF 7F 01 80 7B F8  FF FF 7F 00              ......{.....    
```

## Opcodes

```
  0: 0x013F [0x1C] WAIT(60* ticks)
  1: 0x0142 [0x66] LOAD_EXT_SCHEDULER_MAIN: Load scheduler "akb0" with entities [EventEntity, EventEntity], work=5*
  2: 0x0151 [0x53] WAIT_SCHEDULER_TASK: Wait for scheduler "akb0" with entities [EventEntity, EventEntity]
  3: 0x015E [0x1C] WAIT(120* ticks)
  4: 0x0161 [0x32] ExtData[1]->MainSpeed = 16* * 0.1
  5: 0x0164 [0x1F] MOVE_ENTITY: EventEntity moves to X=-147.198*, Z=-3.121*, Y=1.800*
  6: 0x016C [0x1F] MOVE_ENTITY: Update entity position (mode=1)
  7: 0x016E [0x6F] WAIT_FRAME_DELAY: Yield until WaitTime reaches zero
  8: 0x016F [0x4B] UPDATE_ENTITY_YAW(entity=EventEntity, yaw=0.00°*)
  9: 0x0176 [0x7B] EventEntity stops talking
 10: 0x017B [0x00] END_REQSTACK()
```
