# Event 65535

## Metadata

| Field           | Value    |
|-----------------|----------|
| Event Index     | 7/23     |
| Offset          | 0x0051   |
| Data Size       | 48 bytes |
| Calculated Size | 48 bytes |
| Instructions    | 11       |

```
      00 01 02 03 04 05 06 07  08 09 0A 0B 0C 0D 0E 0F
      -- -- -- -- -- -- -- --  -- -- -- -- -- -- -- --
0050:    02 04 00 10 80 01 80  00 32 11 80 1F 00 06 80   ........2......
0060: 07 80 08 80 1F 01 1F 00  09 80 0A 80 0B 80 1F 01  ................
0070: 1C 0C 80 1F 00 0D 80 0E  80 0F 80 1F 01 01 51 00  ..............Q.
0080: 00                                                .               
```

## Opcodes

```
  0: 0x0051 [0x02] IF !(ExtData[1]->WorkLocal[4] == 2*) GOTO 0x0080
  1: 0x0059 [0x32] ExtData[1]->MainSpeed = 19* * 0.1
  2: 0x005C [0x1F] MOVE_ENTITY: EventEntity moves to X=-609.607*, Z=603.553*, Y=0.278*
  3: 0x0064 [0x1F] MOVE_ENTITY: Update entity position (mode=1)
  4: 0x0066 [0x1F] MOVE_ENTITY: EventEntity moves to X=-606.877*, Z=603.550*, Y=0.142*
  5: 0x006E [0x1F] MOVE_ENTITY: Update entity position (mode=1)
  6: 0x0070 [0x1C] WAIT(90* ticks)
  7: 0x0073 [0x1F] MOVE_ENTITY: EventEntity moves to X=-606.905*, Z=605.946*, Y=0.107*
  8: 0x007B [0x1F] MOVE_ENTITY: Update entity position (mode=1)
  9: 0x007D [0x01] GOTO 0x0051

SUBROUTINE_0080:
 10: 0x0080 [0x00] END_REQSTACK()
```
