# Event 65535

## Metadata

| Field           | Value    |
|-----------------|----------|
| Event Index     | 16/23    |
| Offset          | 0x01CA   |
| Data Size       | 67 bytes |
| Calculated Size | 67 bytes |
| Instructions    | 15       |

```
      00 01 02 03 04 05 06 07  08 09 0A 0B 0C 0D 0E 0F
      -- -- -- -- -- -- -- --  -- -- -- -- -- -- -- --
01C0:                                32 36 80 1F 00 37            26...7
01D0: 80 38 80 39 80 1F 01 4B  49 10 0F 01 3A 80 1C 2E  .8.9...KI...:...
01E0: 80 1F 00 3B 80 3C 80 3D  80 1F 01 4B 49 10 0F 01  ...;.<.=...KI...
01F0: 3E 80 1C 3F 80 1F 00 40  80 41 80 42 80 1F 01 1C  >..?...@.A.B....
0200: 22 80 4B 49 10 0F 01 43  80 1C 2E 80 00           ".KI...C.....   
```

## Opcodes

```
  0: 0x01CA [0x32] ExtData[1]->MainSpeed = 57* * 0.1
  1: 0x01CD [0x1F] MOVE_ENTITY: EventEntity moves to X=-599.295*, Z=590.678*, Y=0.264*
  2: 0x01D5 [0x1F] MOVE_ENTITY: Update entity position (mode=1)
  3: 0x01D7 [0x4B] UPDATE_ENTITY_YAW(entity=Unnamed NPC (ID: 17764425/0x010F1049), yaw=5.27°*)
  4: 0x01DE [0x1C] WAIT(60* ticks)
  5: 0x01E1 [0x1F] MOVE_ENTITY: EventEntity moves to X=-604.353*, Z=586.292*, Y=0.138*
  6: 0x01E9 [0x1F] MOVE_ENTITY: Update entity position (mode=1)
  7: 0x01EB [0x4B] UPDATE_ENTITY_YAW(entity=Unnamed NPC (ID: 17764425/0x010F1049), yaw=0.20°*)
  8: 0x01F2 [0x1C] WAIT(240* ticks)
  9: 0x01F5 [0x1F] MOVE_ENTITY: EventEntity moves to X=-600.328*, Z=582.410*, Y=0.802*
 10: 0x01FD [0x1F] MOVE_ENTITY: Update entity position (mode=1)
 11: 0x01FF [0x1C] WAIT(30* ticks)
 12: 0x0202 [0x4B] UPDATE_ENTITY_YAW(entity=Unnamed NPC (ID: 17764425/0x010F1049), yaw=16.63°*)
 13: 0x0209 [0x1C] WAIT(60* ticks)
 14: 0x020C [0x00] END_REQSTACK()
```
