# Event 65535

## Metadata

| Field           | Value    |
|-----------------|----------|
| Event Index     | 18/23    |
| Offset          | 0x021B   |
| Data Size       | 51 bytes |
| Calculated Size | 51 bytes |
| Instructions    | 11       |

```
      00 01 02 03 04 05 06 07  08 09 0A 0B 0C 0D 0E 0F
      -- -- -- -- -- -- -- --  -- -- -- -- -- -- -- --
0210:                                   32 05 80 1F 00             2....
0220: 47 80 48 80 36 80 1F 01  1F 00 49 80 4A 80 4B 80  G.H.6.....I.J.K.
0230: 1F 01 1F 00 4C 80 4D 80  4E 80 1F 01 1E 44 10 0F  ....L.M.N....D..
0240: 01 1C 22 80 4A 44 10 0F  01 45 10 0F 01 00        ..".JD...E....  
```

## Opcodes

```
  0: 0x021B [0x32] ExtData[1]->MainSpeed = 10* * 0.1
  1: 0x021E [0x1F] MOVE_ENTITY: EventEntity moves to X=-604.257*, Z=586.573*, Y=0.057*
  2: 0x0226 [0x1F] MOVE_ENTITY: Update entity position (mode=1)
  3: 0x0228 [0x1F] MOVE_ENTITY: EventEntity moves to X=-603.318*, Z=588.527*, Y=0.196*
  4: 0x0230 [0x1F] MOVE_ENTITY: Update entity position (mode=1)
  5: 0x0232 [0x1F] MOVE_ENTITY: EventEntity moves to X=-601.495*, Z=586.040*, Y=0.496*
  6: 0x023A [0x1F] MOVE_ENTITY: Update entity position (mode=1)
  7: 0x023C [0x1E] EventEntity looks at Unnamed NPC (ID: 17764420/0x010F1044) and starts talking
  8: 0x0241 [0x1C] WAIT(30* ticks)
  9: 0x0244 [0x4A] Unnamed NPC (ID: 17764420/0x010F1044) looks at Unnamed NPC (ID: 17764421/0x010F1045)
 10: 0x024D [0x00] END_REQSTACK()
```
