# Event 65535

## Metadata

| Field           | Value    |
|-----------------|----------|
| Event Index     | 32/94    |
| Offset          | 0x0526   |
| Data Size       | 54 bytes |
| Calculated Size | 54 bytes |
| Instructions    | 10       |

```
      00 01 02 03 04 05 06 07  08 09 0A 0B 0C 0D 0E 0F
      -- -- -- -- -- -- -- --  -- -- -- -- -- -- -- --
0520:                   45 00  80 F8 FF FF 7F F8 FF FF        E.........
0530: 7F 73 30 30 30 01 80 29  08 13 72 05 01 15 1D 14  .s000..)..r.....
0540: 80 23 1D 15 80 23 29 08  13 72 05 01 16 29 08 13  .#...#)..r...)..
0550: 72 05 01 17 29 08 13 72  05 01 16 00              r...)..r....    
```

## Opcodes

```
  0: 0x0526 [0x45] LOAD_SCHEDULED_TASK(work_offset1=188*, entity1=EventEntity, entity2=EventEntity, scheduler_id="s000", work_offset2=0*)
  1: 0x0537 [0x29] REQ_SET_WAIT(priority=0x08, entity_id=Moogle (ID: 17134099/0x01057213), tag_num=0x15)
  2: 0x053E [0x1D] PRINT_EVENT_MESSAGE(message_id=7414*)
    → "The Mog Safe is where I keep items that you can't carry! It's an especially secure and solid safe, kupo!\u007F1\u0000\u0007"
  3: 0x0541 [0x23] WAIT_FOR_DIALOG_INTERACTION
  4: 0x0542 [0x1D] PRINT_EVENT_MESSAGE(message_id=7415*)
    → "You can only put so many items in it, kupo... But I'll guard them even if it means my life, kupo!\u007F1\u0000\u0007"
  5: 0x0545 [0x23] WAIT_FOR_DIALOG_INTERACTION
  6: 0x0546 [0x29] REQ_SET_WAIT(priority=0x08, entity_id=Moogle (ID: 17134099/0x01057213), tag_num=0x16)
  7: 0x054D [0x29] REQ_SET_WAIT(priority=0x08, entity_id=Moogle (ID: 17134099/0x01057213), tag_num=0x17)
  8: 0x0554 [0x29] REQ_SET_WAIT(priority=0x08, entity_id=Moogle (ID: 17134099/0x01057213), tag_num=0x16)
  9: 0x055B [0x00] END_REQSTACK()
```
