# Event 1109

## Metadata

| Field           | Value    |
|-----------------|----------|
| Event Index     | 35/41    |
| Offset          | 0x047B   |
| Data Size       | 33 bytes |
| Calculated Size | 33 bytes |
| Instructions    | 12       |

```
      00 01 02 03 04 05 06 07  08 09 0A 0B 0C 0D 0E 0F
      -- -- -- -- -- -- -- --  -- -- -- -- -- -- -- --
0470:                                   1E F0 FF FF 7F             .....
0480: 6F 70 29 08 0F 80 0F 01  13 1D 22 80 23 1D 23 80  op).......".#.#.
0490: 23 29 08 0F 80 0F 01 14  20 00 21 00              #)...... .!.    
```

## Opcodes

```
  0: 0x047B [0x1E] EventEntity looks at LocalPlayer and starts talking
  1: 0x0480 [0x6F] WAIT_FRAME_DELAY: Yield until WaitTime reaches zero
  2: 0x0481 [0x70] WAIT_ENTITY_RENDER_FLAG: Wait while EventEntity->Render.Flags3 bit 2 is set (cancel turn if not)
  3: 0x0482 [0x29] REQ_SET_WAIT(priority=0x08, entity_id=Abelard (ID: 17793039/0x010F800F), tag_num=0x13)
  4: 0x0489 [0x1D] PRINT_EVENT_MESSAGE(message_id=7415*)
    → "Did the young lady really go into that cave in the Valkurm Dunes?\u007F1\u0000\u0007"
  5: 0x048C [0x23] WAIT_FOR_DIALOG_INTERACTION
  6: 0x048D [0x1D] PRINT_EVENT_MESSAGE(message_id=7416*)
    → "She's either extremely brave or extremely foolish to try and reach Tavnazia through that vortex.\u007F1\u0000\u0007"
  7: 0x0490 [0x23] WAIT_FOR_DIALOG_INTERACTION
  8: 0x0491 [0x29] REQ_SET_WAIT(priority=0x08, entity_id=Abelard (ID: 17793039/0x010F800F), tag_num=0x14)
  9: 0x0498 [0x20] SET_CLI_EVENT_UC_FLAG: Unlock player control
 10: 0x049A [0x21] END_EVENT
 11: 0x049B [0x00] END_REQSTACK()
```
