# Event 45

## Metadata

| Field           | Value    |
|-----------------|----------|
| Event Index     | 8/41     |
| Offset          | 0x0253   |
| Data Size       | 36 bytes |
| Calculated Size | 36 bytes |
| Instructions    | 11       |

```
      00 01 02 03 04 05 06 07  08 09 0A 0B 0C 0D 0E 0F
      -- -- -- -- -- -- -- --  -- -- -- -- -- -- -- --
0250:          42 20 01 1E F0  FF FF 7F 6F 70 5B 01 80     B ......op[..
0260: F8 FF FF 7F F8 FF FF 7F  74 6C 62 30 1D 16 80 23  ........tlb0...#
0270: 03 01 10 12 80 21 00                              .....!.         
```

## Opcodes

```
  0: 0x0253 [0x42] SET_CLI_EVENT_CANCEL_DATA()
  1: 0x0254 [0x20] SET_CLI_EVENT_UC_FLAG: Lock player control
  2: 0x0256 [0x1E] EventEntity looks at LocalPlayer and starts talking
  3: 0x025B [0x6F] WAIT_FRAME_DELAY: Yield until WaitTime reaches zero
  4: 0x025C [0x70] WAIT_ENTITY_RENDER_FLAG: Wait while EventEntity->Render.Flags3 bit 2 is set (cancel turn if not)
  5: 0x025D [0x5B] LOAD_EXT_SCHEDULER(work_offset=60*, entity1=EventEntity, entity2=EventEntity, action="tlb0")
  6: 0x026C [0x1D] PRINT_EVENT_MESSAGE(message_id=6776*)
    → "Oh, I'm sorry, my friend, but I've already got this one, so try getting me a different one. Take care, now.\u007F1\u0000\u0007"
  7: 0x026F [0x23] WAIT_FOR_DIALOG_INTERACTION
  8: 0x0270 [0x03] Work_Zone[1] = 110*
  9: 0x0275 [0x21] END_EVENT
 10: 0x0276 [0x00] END_REQSTACK()
```
