# Event 47

## Metadata

| Field           | Value    |
|-----------------|----------|
| Event Index     | 11/41    |
| Offset          | 0x02B9   |
| Data Size       | 53 bytes |
| Calculated Size | 53 bytes |
| Instructions    | 12       |

```
      00 01 02 03 04 05 06 07  08 09 0A 0B 0C 0D 0E 0F
      -- -- -- -- -- -- -- --  -- -- -- -- -- -- -- --
02B0:                             42 20 01 1E F0 FF FF           B .....
02C0: 7F 6F 70 5B 01 80 F8 FF  FF 7F F8 FF FF 7F 74 6C  .op[..........tl
02D0: 6B 30 1D 19 80 23 03 01  10 12 80 45 1A 80 F0 FF  k0...#.....E....
02E0: FF 7F F0 FF FF 7F 71 73  74 63 08 80 21 00        ......qstc..!.  
```

## Opcodes

```
  0: 0x02B9 [0x42] SET_CLI_EVENT_CANCEL_DATA()
  1: 0x02BA [0x20] SET_CLI_EVENT_UC_FLAG: Lock player control
  2: 0x02BC [0x1E] EventEntity looks at LocalPlayer and starts talking
  3: 0x02C1 [0x6F] WAIT_FRAME_DELAY: Yield until WaitTime reaches zero
  4: 0x02C2 [0x70] WAIT_ENTITY_RENDER_FLAG: Wait while EventEntity->Render.Flags3 bit 2 is set (cancel turn if not)
  5: 0x02C3 [0x5B] LOAD_EXT_SCHEDULER(work_offset=60*, entity1=EventEntity, entity2=EventEntity, action="tlk0")
  6: 0x02D2 [0x1D] PRINT_EVENT_MESSAGE(message_id=6779*)
    → "You're back! And with the last one! Thank you so much, my friend. In return for your unwavering kindness, I give you this.\u007F1\u0000\u0007"
  7: 0x02D5 [0x23] WAIT_FOR_DIALOG_INTERACTION
  8: 0x02D6 [0x03] Work_Zone[1] = 110*
  9: 0x02DB [0x45] LOAD_SCHEDULED_TASK(work_offset1=201*, entity1=LocalPlayer, entity2=LocalPlayer, scheduler_id="qstc", work_offset2=0*)
 10: 0x02EC [0x21] END_EVENT
 11: 0x02ED [0x00] END_REQSTACK()
```
