# Event 65535

## Metadata

| Field           | Value    |
|-----------------|----------|
| Event Index     | 40/41    |
| Offset          | 0x04B5   |
| Data Size       | 55 bytes |
| Calculated Size | 55 bytes |
| Instructions    | 9        |

```
      00 01 02 03 04 05 06 07  08 09 0A 0B 0C 0D 0E 0F
      -- -- -- -- -- -- -- --  -- -- -- -- -- -- -- --
04B0:                32 24 80  1F 00 29 80 2A 80 2B 80       2$...).*.+.
04C0: 1F 01 1E 7C 80 0F 01 1C  28 80 5B 01 80 0F 80 0F  ...|....(.[.....
04D0: 01 0F 80 0F 01 74 6C 6B  30 1C 2C 80 5B 01 80 0F  .....tlk0.,.[...
04E0: 80 0F 01 0F 80 0F 01 74  6C 6B 31 00              .......tlk1.    
```

## Opcodes

```
  0: 0x04B5 [0x32] ExtData[1]->MainSpeed = 13* * 0.1
  1: 0x04B8 [0x1F] MOVE_ENTITY: EventEntity moves to X=-54.798*, Z=-11.891*, Y=-11.338*
  2: 0x04C0 [0x1F] MOVE_ENTITY: Update entity position (mode=1)
  3: 0x04C2 [0x1E] EventEntity looks at Gilgamesh (ID: 17793148/0x010F807C) and starts talking
  4: 0x04C7 [0x1C] WAIT(30* ticks)
  5: 0x04CA [0x5B] LOAD_EXT_SCHEDULER: Load scheduler "tlk0" with entities [Abelard (ID: 17793039/0x010F800F), Abelard (ID: 17793039/0x010F800F)], work=60*
  6: 0x04D9 [0x1C] WAIT(120* ticks)
  7: 0x04DC [0x5B] LOAD_EXT_SCHEDULER: Load scheduler "tlk1" with entities [Abelard (ID: 17793039/0x010F800F), Abelard (ID: 17793039/0x010F800F)], work=60*
  8: 0x04EB [0x00] END_REQSTACK()
```
