# 17109807

## Common Data

| Field            | Value                      |
|------------------|----------------------------|
| Zone             | East Ronfaure [S] (ID: 81) |
| Block Size       | 4188 bytes                 |
| Total Events     | 11                         |
| References Count | 151                        |

## List of Events

| Event ID                 | Entrypoint   |   Size |   Instructions |
|--------------------------|--------------|--------|----------------|
| [65535](#event-65535)    | 0x0000       |      6 |              2 |
| [65535.1](#event-655351) | 0x0006       |      1 |              1 |
| [65535.2](#event-655352) | 0x0007       |     18 |              4 |
| [65535.3](#event-655353) | 0x0019       |     10 |              2 |
| [65535.4](#event-655354) | 0x0023       |      9 |              3 |
| [65535.5](#event-655355) | 0x002C       |      9 |              3 |
| [65535.6](#event-655356) | 0x0035       |     10 |              2 |
| [65535.7](#event-655357) | 0x003F       |     10 |              2 |
| [261](#event-261)        | 0x0049       |      1 |              1 |
| [65535.8](#event-655358) | 0x004A       |     39 |              7 |
| [65535.9](#event-655359) | 0x0071       |   3408 |            602 |

## DAT References (imed_data)

|   Index | Hex Value   |   Dec Value |
|---------|-------------|-------------|
|       0 | 0x0003      |           3 |
|       1 | 0x0000      |           0 |
|       2 | 0x0001      |           1 |
|       3 | 0x0080      |         128 |
|       4 | 0x0004      |           4 |
|       5 | 0x000B      |          11 |
|       6 | 0xF4240     |     1000000 |
|       7 | 0x000C      |          12 |
|       8 | 0x0011      |          17 |
|       9 | 0x0400      |        1024 |
|      10 | 0x1000      |        4096 |
|      11 | 0x0384      |         900 |
|      12 | 0x01C2      |         450 |
|      13 | 0x0800      |        2048 |
|      14 | 0x2710      |       10000 |
|      15 | 0x03E8      |        1000 |
|      16 | 0x0019      |          25 |
|      17 | 0x0002      |           2 |
|      18 | 0x0012      |          18 |
|      19 | 0x0017      |          23 |
|      20 | 0x00BE      |         190 |
|      21 | 0x00C1      |         193 |
|      22 | 0x00BD      |         189 |
|      23 | 0x00BF      |         191 |
|      24 | 0x0005      |           5 |
|      25 | 0x00C0      |         192 |
|      26 | 0x0006      |           6 |
|      27 | 0x00BC      |         188 |
|      28 | 0x0007      |           7 |
|      29 | 0x00C2      |         194 |
|      30 | 0x0008      |           8 |
|      31 | 0x00C3      |         195 |
|      32 | 0x0078      |         120 |
|      33 | 0x00B4      |         180 |
|      34 | 0x0064      |         100 |
|      35 | 0x0BB8      |        3000 |
|      36 | 0x000F      |          15 |
|      37 | 0x0010      |          16 |
|      38 | 0x0076      |         118 |
|      39 | 0x0067      |         103 |
|      40 | 0x0073      |         115 |
|      41 | 0x0069      |         105 |
|      42 | 0x0071      |         113 |
|      43 | 0x007D      |         125 |
|      44 | 0x0066      |         102 |
|      45 | 0x0074      |         116 |
|      46 | 0x000E      |          14 |
|      47 | 0x0024      |          36 |
|      48 | 0x0075      |         117 |
|      49 | 0x016C      |         364 |
|      50 | 0x002E      |          46 |
|      51 | 0x0077      |         119 |
|      52 | 0x0027      |          39 |
|      53 | 0x0072      |         114 |
|      54 | 0x00AC      |         172 |
|      55 | 0x0025      |          37 |
|      56 | 0x0087      |         135 |
|      57 | 0x001E      |          30 |
|      58 | 0x0028      |          40 |
|      59 | 0x0032      |          50 |
|      60 | 0x0258      |         600 |
|      61 | 0x003C      |          60 |
|      62 | 0x0050      |          80 |
|      63 | 0x0014      |          20 |
|      64 | 0xBA4D      |       47693 |
|      65 | 0xFFFFF831  |  4294965297 |
|      66 | 0x0051      |          81 |
|      67 | 0x4C33D     |      312125 |
|      68 | 0xFFFE49CA  |  4294855114 |
|      69 | 0xFFFF8C2A  |  4294937642 |
|      70 | 0x0052      |          82 |
|      71 | 0xFA23      |       64035 |
|      72 | 0xFFFF8235  |  4294935093 |
|      73 | 0x02A9      |         681 |
|      74 | 0x0053      |          83 |
|      75 | 0xFFFD037E  |  4294771582 |
|      76 | 0xFFFBBAC7  |  4294687431 |
|      77 | 0xFFFF63C1  |  4294927297 |
|      78 | 0x0054      |          84 |
|      79 | 0x33019     |      208921 |
|      80 | 0x5D21      |       23841 |
|      81 | 0x2200      |        8704 |
|      82 | 0x00AF      |         175 |
|      83 | 0x4D7B9     |      317369 |
|      84 | 0x4E26      |       20006 |
|      85 | 0xFFFF939B  |  4294939547 |
|      86 | 0x0057      |          87 |
|      87 | 0xFFFBB86B  |  4294686827 |
|      88 | 0xFFFF0809  |  4294903817 |
|      89 | 0xFFFFCF2D  |  4294954797 |
|      90 | 0x0058      |          88 |
|      91 | 0xFFF7464E  |  4294395470 |
|      92 | 0xD7E1      |       55265 |
|      93 | 0x9C7A      |       40058 |
|      94 | 0x0059      |          89 |
|      95 | 0x4CA6A     |      313962 |
|      96 | 0x191D9     |      102873 |
|      97 | 0xFFFF4707  |  4294919943 |
|      98 | 0x005A      |          90 |
|      99 | 0x6A938     |      436536 |
|     100 | 0x5EF88     |      389000 |
|     101 | 0x6113      |       24851 |
|     102 | 0x005B      |          91 |
|     103 | 0x3F40F     |      259087 |
|     104 | 0x315DF     |      202207 |
|     105 | 0x21B2      |        8626 |
|     106 | 0x00AB      |         171 |
|     107 | 0xFFFE104B  |  4294840395 |
|     108 | 0xFFFEAA93  |  4294879891 |
|     109 | 0xFFFF80D6  |  4294934742 |
|     110 | 0x005E      |          94 |
|     111 | 0xFFFF1E49  |  4294909513 |
|     112 | 0xFFFD2935  |  4294781237 |
|     113 | 0xFFFFF9FB  |  4294965755 |
|     114 | 0x005F      |          95 |
|     115 | 0xFFFFD5BD  |  4294956477 |
|     116 | 0x4B95D     |      309597 |
|     117 | 0xFFFFCDC6  |  4294954438 |
|     118 | 0x0060      |          96 |
|     119 | 0xFFFE57AF  |  4294858671 |
|     120 | 0xFFFFFF86  |  4294967174 |
|     121 | 0xFFFEC77A  |  4294887290 |
|     122 | 0x0061      |          97 |
|     123 | 0xFFFB7296  |  4294668950 |
|     124 | 0x68EEE     |      429806 |
|     125 | 0x411D      |       16669 |
|     126 | 0x0062      |          98 |
|     127 | 0xFFFF580E  |  4294924302 |
|     128 | 0x35B7E     |      220030 |
|     129 | 0x61A5      |       24997 |
|     130 | 0x00A4      |         164 |
|     131 | 0xFFFFA9CD  |  4294945229 |
|     132 | 0xFFFFB212  |  4294947346 |
|     133 | 0x0088      |         136 |
|     134 | 0x146AD     |       83629 |
|     135 | 0xFFFF4408  |  4294919176 |
|     136 | 0xFFFF166D  |  4294907501 |
|     137 | 0x0089      |         137 |
|     138 | 0x1F64D     |      128589 |
|     139 | 0xFFFE32ED  |  4294849261 |
|     140 | 0xFFFFA50C  |  4294944012 |
|     141 | 0x0C18      |        3096 |
|     142 | 0x0A00      |        2560 |
|     143 | 0x0B43      |        2883 |
|     144 | 0x0200      |         512 |
|     145 | 0x0D5C      |        3420 |
|     146 | 0x0C00      |        3072 |
|     147 | 0x0600      |        1536 |
|     148 | 0x0406      |        1030 |
|     149 | 0x07EC      |        2028 |
|     150 | 0x0FFF      |        4095 |

## Events

### Event 65535

#### Metadata

| Field        | Value   |
|--------------|---------|
| Entrypoint   | 0x0000  |
| Data Size    | 6 bytes |
| Instructions | 2       |

```
      00 01 02 03 04 05 06 07  08 09 0A 0B 0C 0D 0E 0F
      -- -- -- -- -- -- -- --  -- -- -- -- -- -- -- --
0000: 03 00 00 00 80 00                                 ......          
```

#### Opcodes

```
  0: 0x0000 [0x03] ExtData[1]->WorkLocal[0] = 3*
  1: 0x0005 [0x00] END_REQSTACK()
```

### Event 65535.1

#### Metadata

| Field        | Value   |
|--------------|---------|
| Entrypoint   | 0x0006  |
| Data Size    | 1 bytes |
| Instructions | 1       |

```
      00 01 02 03 04 05 06 07  08 09 0A 0B 0C 0D 0E 0F
      -- -- -- -- -- -- -- --  -- -- -- -- -- -- -- --
0000:                   00                                    .         
```

#### Opcodes

```
  0: 0x0006 [0x00] END_REQSTACK()
```

### Event 65535.2

#### Metadata

| Field        | Value    |
|--------------|----------|
| Entrypoint   | 0x0007   |
| Data Size    | 18 bytes |
| Instructions | 4        |

```
      00 01 02 03 04 05 06 07  08 09 0A 0B 0C 0D 0E 0F
      -- -- -- -- -- -- -- --  -- -- -- -- -- -- -- --
0000:                      22  00 2F 00 F8 FF FF 7F 6C         "./.....l
0010: F8 FF FF 7F 01 80 02 80  00                       .........       
```

#### Opcodes

```
  0: 0x0007 [0x22] ENTITY_HIDE_FLAG(enabled=0x00)
  1: 0x0009 [0x2F] EventEntity->Render.Flags0 &= ~0x80000 // Bit 19
  2: 0x000F [0x6C] FADE_ENTITY_COLOR(entity_id=EventEntity, end_alpha=0*, fade_time=1*)
  3: 0x0018 [0x00] END_REQSTACK()
```

### Event 65535.3

#### Metadata

| Field        | Value    |
|--------------|----------|
| Entrypoint   | 0x0019   |
| Data Size    | 10 bytes |
| Instructions | 2        |

```
      00 01 02 03 04 05 06 07  08 09 0A 0B 0C 0D 0E 0F
      -- -- -- -- -- -- -- --  -- -- -- -- -- -- -- --
0010:                             6C F8 FF FF 7F 03 80           l......
0020: 02 80 00                                          ...             
```

#### Opcodes

```
  0: 0x0019 [0x6C] FADE_ENTITY_COLOR(entity_id=EventEntity, end_alpha=128*, fade_time=1*)
  1: 0x0022 [0x00] END_REQSTACK()
```

### Event 65535.4

#### Metadata

| Field        | Value   |
|--------------|---------|
| Entrypoint   | 0x0023  |
| Data Size    | 9 bytes |
| Instructions | 3       |

```
      00 01 02 03 04 05 06 07  08 09 0A 0B 0C 0D 0E 0F
      -- -- -- -- -- -- -- --  -- -- -- -- -- -- -- --
0020:          22 00 2F 00 F8  FF FF 7F 00                 "./......    
```

#### Opcodes

```
  0: 0x0023 [0x22] ENTITY_HIDE_FLAG(enabled=0x00)
  1: 0x0025 [0x2F] EventEntity->Render.Flags0 &= ~0x80000 // Bit 19
  2: 0x002B [0x00] END_REQSTACK()
```

### Event 65535.5

#### Metadata

| Field        | Value   |
|--------------|---------|
| Entrypoint   | 0x002C  |
| Data Size    | 9 bytes |
| Instructions | 3       |

```
      00 01 02 03 04 05 06 07  08 09 0A 0B 0C 0D 0E 0F
      -- -- -- -- -- -- -- --  -- -- -- -- -- -- -- --
0020:                                      22 01 2F 01              "./.
0030: F8 FF FF 7F 00                                    .....           
```

#### Opcodes

```
  0: 0x002C [0x22] ENTITY_HIDE_FLAG(enabled=0x01)
  1: 0x002E [0x2F] EventEntity->Render.Flags0 |= 0x80000 // Bit 19
  2: 0x0034 [0x00] END_REQSTACK()
```

### Event 65535.6

#### Metadata

| Field        | Value    |
|--------------|----------|
| Entrypoint   | 0x0035   |
| Data Size    | 10 bytes |
| Instructions | 2        |

```
      00 01 02 03 04 05 06 07  08 09 0A 0B 0C 0D 0E 0F
      -- -- -- -- -- -- -- --  -- -- -- -- -- -- -- --
0030:                6C F8 FF  FF 7F 01 80 02 80 00          l......... 
```

#### Opcodes

```
  0: 0x0035 [0x6C] FADE_ENTITY_COLOR(entity_id=EventEntity, end_alpha=0*, fade_time=1*)
  1: 0x003E [0x00] END_REQSTACK()
```

### Event 65535.7

#### Metadata

| Field        | Value    |
|--------------|----------|
| Entrypoint   | 0x003F   |
| Data Size    | 10 bytes |
| Instructions | 2        |

```
      00 01 02 03 04 05 06 07  08 09 0A 0B 0C 0D 0E 0F
      -- -- -- -- -- -- -- --  -- -- -- -- -- -- -- --
0030:                                               6C                 l
0040: F8 FF FF 7F 03 80 02 80  00                       .........       
```

#### Opcodes

```
  0: 0x003F [0x6C] FADE_ENTITY_COLOR(entity_id=EventEntity, end_alpha=128*, fade_time=1*)
  1: 0x0048 [0x00] END_REQSTACK()
```

### Event 261

#### Metadata

| Field        | Value   |
|--------------|---------|
| Entrypoint   | 0x0049  |
| Data Size    | 1 bytes |
| Instructions | 1       |

```
      00 01 02 03 04 05 06 07  08 09 0A 0B 0C 0D 0E 0F
      -- -- -- -- -- -- -- --  -- -- -- -- -- -- -- --
0040:                             00                             .      
```

#### Opcodes

```
  0: 0x0049 [0x00] END_REQSTACK()
```

### Event 65535.8

#### Metadata

| Field        | Value    |
|--------------|----------|
| Entrypoint   | 0x004A   |
| Data Size    | 39 bytes |
| Instructions | 7        |

```
      00 01 02 03 04 05 06 07  08 09 0A 0B 0C 0D 0E 0F
      -- -- -- -- -- -- -- --  -- -- -- -- -- -- -- --
0040:                                92 01 F8 FF FF 7F            ......
0050: 94 01 F8 FF FF 7F 41 01  80 00 80 24 10 02 00 41  ......A....$...A
0060: 04 80 05 80 24 10 01 00  1A 46 04 03 03 00 01 80  ....$....F......
0070: 00                                                .               
```

#### Opcodes

```
  0: 0x004A [0x92] EventEntity->Render.Flags3 ^= 0x01
  1: 0x0050 [0x94] EventEntity->Render.Flags3 ^= 0x01
  2: 0x0056 [0x41] ExtData[1]->WorkLocal[2] = Work_Zone[36] (bits 0*-3*)
  3: 0x005F [0x41] ExtData[1]->WorkLocal[1] = Work_Zone[36] (bits 4*-11*)
  4: 0x0068 [0x1A] CALL_SUBROUTINE(address=0x0446)
  5: 0x006B [0x03] ExtData[1]->WorkLocal[3] = 0*
  6: 0x0070 [0x00] END_REQSTACK()
```

### Event 65535.9

#### Metadata

| Field        | Value      |
|--------------|------------|
| Entrypoint   | 0x0071     |
| Data Size    | 3408 bytes |
| Instructions | 602        |

```
      00 01 02 03 04 05 06 07  08 09 0A 0B 0C 0D 0E 0F
      -- -- -- -- -- -- -- --  -- -- -- -- -- -- -- --
0070:    03 04 00 06 80 02 01  80 04 00 03 45 04 02 03   ...........E...
0080: 00 01 80 80 D4 01 41 07  80 08 80 24 10 0D 00 02  ......A....$....
0090: 0D 00 01 80 00 A2 00 03  04 00 01 80 1A 46 04 01  .............F..
00A0: D1 01 0C 0D 00 40 07 80  08 80 24 10 0D 00 1A 4F  .....@....$....O
00B0: 08 1A 46 04 1A 29 05 1A  87 04 1A 98 08 80 F8 FF  ..F..)..........
00C0: FF 7F 1A 91 09 1A 4C 0A  1A 96 0D 1A 2F 06 1A 8D  ......L...../...
00D0: 05 1A DE 05 08 0E 00 02  80 02 0E 00 04 80 03 2C  ...............,
00E0: 01 07 0C 00 09 80 02 0C  00 0A 80 04 F3 00 08 0C  ................
00F0: 00 0A 80 03 0D 00 00 80  08 0D 00 0E 00 03 0E 00  ................
0100: 0D 00 03 05 00 0B 80 14  05 00 0E 00 07 05 00 0C  ................
0110: 80 17 0D 00 0C 00 05 00  07 09 00 0D 00 16 0D 00  ................
0120: 0C 00 05 00 08 0B 00 0D  00 01 6A 01 08 0C 00 09  ..........j.....
0130: 80 02 0C 00 01 80 03 3E  01 07 0C 00 0A 80 08 0E  .......>........
0140: 00 04 80 03 05 00 0B 80  14 05 00 0E 00 07 05 00  ................
0150: 0C 80 17 0D 00 0C 00 05  00 07 09 00 0D 00 16 0D  ................
0160: 00 0C 00 05 00 08 0B 00  0D 00 03 06 00 09 00 03  ................
0170: 07 00 0A 00 03 08 00 0B  00 1A 96 0D 07 0C 00 0D  ................
0180: 80 02 0C 00 0A 80 04 8E  01 08 0C 00 0A 80 17 0D  ................
0190: 00 0C 00 0E 80 07 09 00  0D 00 16 0D 00 0C 00 0E  ................
01A0: 80 08 0B 00 0D 00 37 09  00 0B 00 0A 00 0C 00 1A  ......7.........
01B0: 0B 0A 13 0D 00 0E 00 1C  0D 00 1F 00 06 00 08 00  ................
01C0: 07 00 1F 01 03 10 00 01  80 1A CA 09 03 03 00 02  ................
01D0: 80 01 42 04 02 03 00 02  80 80 0E 02 3B F8 FF FF  ..B.........;...
01E0: 7F 09 00 0B 00 0A 00 64  05 00 09 00 0B 00 06 00  .......d........
01F0: 08 00 02 05 00 0F 80 05  0B 02 1A 55 0C 39 0D 00  ...........U.9..
0200: 1C 10 80 1A 65 07 03 03  00 11 80 01 42 04 02 03  ....e.......B...
0210: 00 11 80 80 72 02 1A F7  07 02 0E 00 01 80 00 67  ....r..........g
0220: 02 02 10 00 0F 00 03 32  02 0B 10 00 1C 02 80 01  .......2........
0230: 64 02 1A AE 07 41 07 80  08 80 24 10 0D 00 0B 0D  d....A....$.....
0240: 00 40 07 80 08 80 24 10  0D 00 41 12 80 13 80 24  .@....$...A....$
0250: 10 0D 00 0B 0D 00 40 12  80 13 80 24 10 0D 00 03  ......@....$....
0260: 03 00 04 80 01 6F 02 1A  AE 07 03 03 00 00 80 01  .....o..........
0270: 42 04 02 03 00 00 80 80  2D 03 1A D8 04 02 0E 00  B.......-.......
0280: 02 80 80 8D 02 03 0E 00  14 80 01 FD 02 02 0E 00  ................
0290: 11 80 80 9D 02 03 0E 00  15 80 01 FD 02 02 0E 00  ................
02A0: 00 80 80 AD 02 03 0E 00  16 80 01 FD 02 02 0E 00  ................
02B0: 04 80 80 BD 02 03 0E 00  17 80 01 FD 02 02 0E 00  ................
02C0: 18 80 80 CD 02 03 0E 00  19 80 01 FD 02 02 0E 00  ................
02D0: 1A 80 80 DD 02 03 0E 00  1B 80 01 FD 02 02 0E 00  ................
02E0: 1C 80 80 ED 02 03 0E 00  1D 80 01 FD 02 02 0E 00  ................
02F0: 1E 80 80 FD 02 03 0E 00  1F 80 01 FD 02 9F 0E 00  ................
0300: F8 FF FF 7F F8 FF FF 7F  66 72 73 74 01 80 1C 20  ........frst... 
0310: 80 9F 0E 00 F8 FF FF 7F  F8 FF FF 7F 6F 6B 30 30  ............ok00
0320: 01 80 1C 21 80 03 03 00  04 80 01 42 04 02 03 00  ...!.......B....
0330: 04 80 80 77 03 32 22 80  1A 96 0D 07 0C 00 0D 80  ...w.2".........
0340: 02 0C 00 0A 80 04 4D 03  08 0C 00 0A 80 17 0D 00  ......M.........
0350: 0C 00 23 80 07 06 00 0D  00 16 0D 00 0C 00 23 80  ..#...........#.
0360: 08 08 00 0D 00 1F 00 06  00 08 00 07 00 1F 01 03  ................
0370: 03 00 18 80 01 42 04 02  03 00 18 80 80 01 04 3B  .....B.........;
0380: F8 FF FF 7F 09 00 0B 00  0A 00 64 05 00 09 00 0B  ..........d.....
0390: 00 06 00 08 00 02 05 00  0F 80 05 FE 03 1A 96 0D  ................
03A0: 1A DE 05 08 0E 00 02 80  02 0E 00 04 80 03 C5 03  ................
03B0: 07 0C 00 09 80 02 0C 00  0A 80 04 C2 03 08 0C 00  ................
03C0: 0A 80 01 D7 03 08 0C 00  09 80 02 0C 00 01 80 03  ................
03D0: D7 03 07 0C 00 0A 80 17  0D 00 0C 00 0E 80 07 06  ................
03E0: 00 0D 00 16 0D 00 0C 00  0E 80 08 08 00 0D 00 1F  ................
03F0: 00 06 00 08 00 07 00 1F  01 03 03 00 1A 80 01 42  ...............B
0400: 04 02 03 00 1A 80 80 2F  04 3B F8 FF FF 7F 09 00  ......./.;......
0410: 0B 00 0A 00 64 05 00 09  00 0B 00 06 00 08 00 02  ....d...........
0420: 05 00 0F 80 05 2C 04 03  03 00 1C 80 01 42 04 02  .....,.......B..
0430: 03 00 1C 80 80 42 04 1A  46 04 03 03 00 01 80 01  .....B..F.......
0440: 42 04 01 76 00 00 02 00  00 01 80 80 56 04 03 20  B..v........V.. 
0450: 10 01 80 01 86 04 02 00  00 02 80 80 66 04 03 21  ............f..!
0460: 10 01 80 01 86 04 02 00  00 11 80 80 76 04 03 22  ............v.."
0470: 10 01 80 01 86 04 02 00  00 00 80 80 86 04 03 23  ...............#
0480: 10 01 80 01 86 04 1B 02  00 00 01 80 80 9B 04 40  ...............@
0490: 01 80 1C 80 20 10 0E 00  01 D7 04 02 00 00 02 80  .... ...........
04A0: 80 AF 04 40 01 80 1C 80  21 10 0E 00 01 D7 04 02  ...@....!.......
04B0: 00 00 11 80 80 C3 04 40  01 80 1C 80 22 10 0E 00  .......@...."...
04C0: 01 D7 04 02 00 00 00 80  80 D7 04 40 01 80 1C 80  ...........@....
04D0: 23 10 0E 00 01 D7 04 1B  02 00 00 01 80 80 EC 04  #...............
04E0: 41 01 80 1C 80 20 10 0E  00 01 28 05 02 00 00 02  A.... ....(.....
04F0: 80 80 00 05 41 01 80 1C  80 21 10 0E 00 01 28 05  ....A....!....(.
0500: 02 00 00 11 80 80 14 05  41 01 80 1C 80 22 10 0E  ........A...."..
0510: 00 01 28 05 02 00 00 00  80 80 28 05 41 01 80 1C  ..(.......(.A...
0520: 80 23 10 0E 00 01 28 05  1B 03 0D 00 02 80 02 0D  .#....(.........
0530: 00 01 80 02 8C 05 13 0E  00 1C 80 07 0E 00 02 80  ................
0540: 41 01 80 1C 80 20 10 05  00 02 05 00 0E 00 01 89  A.... ..........
0550: 05 41 01 80 1C 80 21 10  05 00 02 05 00 0E 00 01  .A....!.........
0560: 89 05 41 01 80 1C 80 22  10 05 00 02 05 00 0E 00  ..A...."........
0570: 01 89 05 41 01 80 1C 80  23 10 05 00 02 05 00 0E  ...A....#.......
0580: 00 01 89 05 03 0D 00 01  80 01 2E 05 1B 02 00 00  ................
0590: 01 80 80 A1 05 40 1E 80  24 80 20 10 0E 00 01 DD  .....@..$. .....
05A0: 05 02 00 00 02 80 80 B5  05 40 1E 80 24 80 21 10  .........@..$.!.
05B0: 0E 00 01 DD 05 02 00 00  11 80 80 C9 05 40 1E 80  .............@..
05C0: 24 80 22 10 0E 00 01 DD  05 02 00 00 00 80 80 DD  $.".............
05D0: 05 40 1E 80 24 80 23 10  0E 00 01 DD 05 1B 02 00  .@..$.#.........
05E0: 00 01 80 80 F2 05 41 1E  80 24 80 20 10 0E 00 01  ......A..$. ....
05F0: 2E 06 02 00 00 02 80 80  06 06 41 1E 80 24 80 21  ..........A..$.!
0600: 10 0E 00 01 2E 06 02 00  00 11 80 80 1A 06 41 1E  ..............A.
0610: 80 24 80 22 10 0E 00 01  2E 06 02 00 00 00 80 80  .$."............
0620: 2E 06 41 1E 80 24 80 23  10 0E 00 01 2E 06 1B 02  ..A..$.#........
0630: 02 00 02 80 80 3D 06 1A  D8 04 01 64 07 02 02 00  .....=.....d....
0640: 11 80 80 88 06 02 00 00  01 80 80 55 06 03 0E 00  ...........U....
0650: 00 80 01 85 06 02 00 00  02 80 80 65 06 03 0E 00  ...........e....
0660: 04 80 01 85 06 02 00 00  11 80 80 75 06 03 0E 00  ...........u....
0670: 18 80 01 85 06 02 00 00  00 80 80 85 06 03 0E 00  ................
0680: 1A 80 01 85 06 01 64 07  02 02 00 00 80 80 F6 06  ......d.........
0690: 03 0D 00 02 80 02 0D 00  01 80 02 F3 06 13 0E 00  ................
06A0: 1C 80 07 0E 00 02 80 41  1E 80 24 80 20 10 05 00  .......A..$. ...
06B0: 02 05 00 0E 00 01 F0 06  41 1E 80 24 80 21 10 05  ........A..$.!..
06C0: 00 02 05 00 0E 00 01 F0  06 41 1E 80 24 80 22 10  .........A..$.".
06D0: 05 00 02 05 00 0E 00 01  F0 06 41 1E 80 24 80 23  ..........A..$.#
06E0: 10 05 00 02 05 00 0E 00  01 F0 06 03 0D 00 01 80  ................
06F0: 01 95 06 01 64 07 02 02  00 04 80 80 64 07 03 0D  ....d.......d...
0700: 00 02 80 02 0D 00 01 80  02 61 07 13 0E 00 1C 80  .........a......
0710: 07 0E 00 02 80 41 1E 80  24 80 20 10 05 00 02 05  .....A..$. .....
0720: 00 0E 00 01 5E 07 41 1E  80 24 80 21 10 05 00 02  ....^.A..$.!....
0730: 05 00 0E 00 01 5E 07 41  1E 80 24 80 22 10 05 00  .....^.A..$."...
0740: 02 05 00 0E 00 01 5E 07  41 1E 80 24 80 23 10 05  ......^.A..$.#..
0750: 00 02 05 00 0E 00 01 5E  07 03 0D 00 01 80 01 03  .......^........
0760: 07 01 64 07 1B 02 00 00  01 80 80 77 07 3C 20 10  ..d........w.< .
0770: 25 80 02 80 01 AD 07 02  00 00 02 80 80 89 07 3C  %..............<
0780: 21 10 25 80 02 80 01 AD  07 02 00 00 11 80 80 9B  !.%.............
0790: 07 3C 22 10 25 80 02 80  01 AD 07 02 00 00 00 80  .<".%...........
07A0: 80 AD 07 3C 23 10 25 80  02 80 01 AD 07 1B 02 00  ...<#.%.........
07B0: 00 01 80 80 C0 07 3D 20  10 25 80 02 80 01 F6 07  ......= .%......
07C0: 02 00 00 02 80 80 D2 07  3D 21 10 25 80 02 80 01  ........=!.%....
07D0: F6 07 02 00 00 11 80 80  E4 07 3D 22 10 25 80 02  ..........=".%..
07E0: 80 01 F6 07 02 00 00 00  80 80 F6 07 3D 23 10 25  ............=#.%
07F0: 80 02 80 01 F6 07 1B 06  0E 00 02 00 00 01 80 80  ................
0800: 0F 08 3E 20 10 08 80 0C  08 05 0E 00 01 4E 08 02  ..> .........N..
0810: 00 00 02 80 80 24 08 3E  21 10 08 80 21 08 05 0E  .....$.>!...!...
0820: 00 01 4E 08 02 00 00 11  80 80 39 08 3E 22 10 08  ..N.......9.>"..
0830: 80 36 08 05 0E 00 01 4E  08 02 00 00 00 80 80 4E  .6.....N.......N
0840: 08 3E 23 10 08 80 4B 08  05 0E 00 01 4E 08 1B 02  .>#...K.....N...
0850: 00 00 01 80 80 61 08 3C  20 10 12 80 02 80 01 97  .....a.< .......
0860: 08 02 00 00 02 80 80 73  08 3C 21 10 12 80 02 80  .......s.<!.....
0870: 01 97 08 02 00 00 11 80  80 85 08 3C 22 10 12 80  ...........<"...
0880: 02 80 01 97 08 02 00 00  00 80 80 97 08 3C 23 10  .............<#.
0890: 12 80 02 80 01 97 08 1B  02 0E 00 02 80 80 B7 08  ................
08A0: B6 0B 00 80 04 80 13 80  26 80 26 80 27 80 27 80  ........&.&.'.'.
08B0: 28 80 01 80 01 90 09 02  0E 00 11 80 80 D6 08 B6  (...............
08C0: 0B 1A 80 1C 80 01 80 29  80 29 80 29 80 29 80 2A  .......).).).).*
08D0: 80 01 80 01 90 09 02 0E  00 00 80 80 F5 08 B6 0B  ................
08E0: 11 80 18 80 2B 80 2B 80  2C 80 2C 80 2C 80 2D 80  ....+.+.,.,.,.-.
08F0: 01 80 01 90 09 02 0E 00  04 80 80 14 09 B6 0B 00  ................
0900: 80 2E 80 2F 80 30 80 30  80 27 80 27 80 31 80 01  .../.0.0.'.'.1..
0910: 80 01 90 09 02 0E 00 18  80 80 33 09 B6 0B 1C 80  ..........3.....
0920: 07 80 01 80 32 80 29 80  29 80 29 80 01 80 01 80  ....2.).).).....
0930: 01 90 09 02 0E 00 1A 80  80 52 09 B6 0B 18 80 24  .........R.....$
0940: 80 33 80 34 80 29 80 29  80 29 80 35 80 01 80 01  .3.4.).).).5....
0950: 90 09 02 0E 00 1C 80 80  71 09 B6 0B 02 80 04 80  ........q.......
0960: 36 80 37 80 2C 80 2C 80  2C 80 01 80 01 80 01 90  6.7.,.,.,.......
0970: 09 02 0E 00 1E 80 80 90  09 B6 0B 04 80 01 80 38  ...............8
0980: 80 27 80 27 80 27 80 27  80 01 80 01 80 01 90 09  .'.'.'.'........
0990: 1B 02 02 00 02 80 80 9F  09 32 39 80 01 C9 09 02  .........29.....
09A0: 02 00 11 80 80 AD 09 32  3A 80 01 C9 09 02 02 00  .......2:.......
09B0: 00 80 80 BB 09 32 3B 80  01 C9 09 02 02 00 04 80  .....2;.........
09C0: 80 C9 09 32 3B 80 01 C9  09 1B 02 02 00 02 80 80  ...2;...........
09D0: DA 09 03 0F 00 3C 80 01  0A 0A 02 02 00 11 80 80  .....<..........
09E0: EA 09 03 0F 00 21 80 01  0A 0A 02 02 00 00 80 80  .....!..........
09F0: FA 09 03 0F 00 20 80 01  0A 0A 02 02 00 04 80 80  ..... ..........
0A00: 0A 0A 03 0F 00 20 80 01  0A 0A 1B 02 02 00 02 80  ..... ..........
0A10: 80 1B 0A 03 0E 00 21 80  01 4B 0A 02 02 00 11 80  ......!..K......
0A20: 80 2B 0A 03 0E 00 20 80  01 4B 0A 02 02 00 00 80  .+.... ..K......
0A30: 80 3B 0A 03 0E 00 3D 80  01 4B 0A 02 02 00 04 80  .;....=..K......
0A40: 80 4B 0A 03 0E 00 3D 80  01 4B 0A 1B 02 01 00 3E  .K....=..K.....>
0A50: 80 80 66 0A 03 09 00 3F  80 03 0B 00 40 80 03 0A  ..f....?....@...
0A60: 00 41 80 01 54 0C 02 01  00 42 80 80 80 0A 03 09  .A..T....B......
0A70: 00 43 80 03 0B 00 44 80  03 0A 00 45 80 01 54 0C  .C....D....E..T.
0A80: 02 01 00 46 80 80 9A 0A  03 09 00 47 80 03 0B 00  ...F.......G....
0A90: 48 80 03 0A 00 49 80 01  54 0C 02 01 00 4A 80 80  H....I..T....J..
0AA0: B4 0A 03 09 00 4B 80 03  0B 00 4C 80 03 0A 00 4D  .....K....L....M
0AB0: 80 01 54 0C 02 01 00 4E  80 80 CE 0A 03 09 00 4F  ..T....N.......O
0AC0: 80 03 0B 00 50 80 03 0A  00 51 80 01 54 0C 02 01  ....P....Q..T...
0AD0: 00 52 80 80 E8 0A 03 09  00 53 80 03 0B 00 54 80  .R.......S....T.
0AE0: 03 0A 00 55 80 01 54 0C  02 01 00 56 80 80 02 0B  ...U..T....V....
0AF0: 03 09 00 57 80 03 0B 00  58 80 03 0A 00 59 80 01  ...W....X....Y..
0B00: 54 0C 02 01 00 5A 80 80  1C 0B 03 09 00 5B 80 03  T....Z.......[..
0B10: 0B 00 5C 80 03 0A 00 5D  80 01 54 0C 02 01 00 5E  ..\....]..T....^
0B20: 80 80 36 0B 03 09 00 5F  80 03 0B 00 60 80 03 0A  ..6...._....`...
0B30: 00 61 80 01 54 0C 02 01  00 62 80 80 50 0B 03 09  .a..T....b..P...
0B40: 00 63 80 03 0B 00 64 80  03 0A 00 65 80 01 54 0C  .c....d....e..T.
0B50: 02 01 00 66 80 80 6A 0B  03 09 00 67 80 03 0B 00  ...f..j....g....
0B60: 68 80 03 0A 00 69 80 01  54 0C 02 01 00 6A 80 80  h....i..T....j..
0B70: 84 0B 03 09 00 6B 80 03  0B 00 6C 80 03 0A 00 6D  .....k....l....m
0B80: 80 01 54 0C 02 01 00 6E  80 80 9E 0B 03 09 00 6F  ..T....n.......o
0B90: 80 03 0B 00 70 80 03 0A  00 71 80 01 54 0C 02 01  ....p....q..T...
0BA0: 00 72 80 80 B8 0B 03 09  00 73 80 03 0B 00 74 80  .r.......s....t.
0BB0: 03 0A 00 75 80 01 54 0C  02 01 00 76 80 80 D2 0B  ...u..T....v....
0BC0: 03 09 00 77 80 03 0B 00  78 80 03 0A 00 79 80 01  ...w....x....y..
0BD0: 54 0C 02 01 00 7A 80 80  EC 0B 03 09 00 7B 80 03  T....z.......{..
0BE0: 0B 00 7C 80 03 0A 00 7D  80 01 54 0C 02 01 00 7E  ..|....}..T....~
0BF0: 80 80 06 0C 03 09 00 7F  80 03 0B 00 80 80 03 0A  ................
0C00: 00 81 80 01 54 0C 02 01  00 82 80 80 20 0C 03 09  ....T....... ...
0C10: 00 83 80 03 0B 00 84 80  03 0A 00 01 80 01 54 0C  ..............T.
0C20: 02 01 00 85 80 80 3A 0C  03 09 00 86 80 03 0B 00  ......:.........
0C30: 87 80 03 0A 00 88 80 01  54 0C 02 01 00 89 80 80  ........T.......
0C40: 54 0C 03 09 00 8A 80 03  0B 00 8B 80 03 0A 00 8C  T...............
0C50: 80 01 54 0C 1B 02 01 00  3E 80 80 65 0C 03 0D 00  ..T.....>..e....
0C60: 8D 80 01 95 0D 02 01 00  42 80 80 75 0C 03 0D 00  ........B..u....
0C70: 8E 80 01 95 0D 02 01 00  46 80 80 85 0C 03 0D 00  ........F.......
0C80: 8F 80 01 95 0D 02 01 00  4A 80 80 95 0C 03 0D 00  ........J.......
0C90: 0D 80 01 95 0D 02 01 00  4E 80 80 A5 0C 03 0D 00  ........N.......
0CA0: 01 80 01 95 0D 02 01 00  52 80 80 B5 0C 03 0D 00  ........R.......
0CB0: 01 80 01 95 0D 02 01 00  56 80 80 C5 0C 03 0D 00  ........V.......
0CC0: 90 80 01 95 0D 02 01 00  5A 80 80 D5 0C 03 0D 00  ........Z.......
0CD0: 91 80 01 95 0D 02 01 00  5E 80 80 E5 0C 03 0D 00  ........^.......
0CE0: 01 80 01 95 0D 02 01 00  62 80 80 F5 0C 03 0D 00  ........b.......
0CF0: 01 80 01 95 0D 02 01 00  66 80 80 05 0D 03 0D 00  ........f.......
0D00: 92 80 01 95 0D 02 01 00  6A 80 80 15 0D 03 0D 00  ........j.......
0D10: 93 80 01 95 0D 02 01 00  6E 80 80 25 0D 03 0D 00  ........n..%....
0D20: 94 80 01 95 0D 02 01 00  72 80 80 35 0D 03 0D 00  ........r..5....
0D30: 01 80 01 95 0D 02 01 00  76 80 80 45 0D 03 0D 00  ........v..E....
0D40: 0D 80 01 95 0D 02 01 00  7A 80 80 55 0D 03 0D 00  ........z..U....
0D50: 01 80 01 95 0D 02 01 00  7E 80 80 65 0D 03 0D 00  ........~..e....
0D60: 0D 80 01 95 0D 02 01 00  82 80 80 75 0D 03 0D 00  ...........u....
0D70: 95 80 01 95 0D 02 01 00  85 80 80 85 0D 03 0D 00  ................
0D80: 01 80 01 95 0D 02 01 00  89 80 80 95 0D 03 0D 00  ................
0D90: 0D 80 01 95 0D 1B 1A 55  0C 03 0C 00 96 80 08 0C  .......U........
0DA0: 00 0D 00 02 0C 00 01 80  03 B3 0D 07 0C 00 96 80  ................
0DB0: 01 C0 0D 02 0C 00 0A 80  04 C0 0D 08 0C 00 0A 80  ................
0DC0: 1B                                                .               
```

#### Opcodes

```
  0: 0x0071 [0x03] ExtData[1]->WorkLocal[4] = 1000000*
  1: 0x0076 [0x02] IF !(0* >= ExtData[1]->WorkLocal[4]) GOTO 0x0445
  2: 0x007E [0x02] IF !(ExtData[1]->WorkLocal[3] == 0*) GOTO 0x01D4
  3: 0x0086 [0x41] ExtData[1]->WorkLocal[13] = Work_Zone[36] (bits 12*-17*)
  4: 0x008F [0x02] IF !(ExtData[1]->WorkLocal[13] == 0*) GOTO 0x00A2
  5: 0x0097 [0x03] ExtData[1]->WorkLocal[4] = 0*
  6: 0x009C [0x1A] CALL_SUBROUTINE(address=0x0446)
  7: 0x009F [0x01] GOTO 0x01D1
  8: 0x00A2 [0x0C] ExtData[1]->WorkLocal[13]--
  9: 0x00A5 [0x40] SET_BIT_WORK_RANGE(start_bit=12*, end_bit=17*, target=Work_Zone[36], source=ExtData[1]->WorkLocal[13])
 10: 0x00AE [0x1A] CALL_SUBROUTINE(address=0x084F)
 11: 0x00B1 [0x1A] CALL_SUBROUTINE(address=0x0446)
 12: 0x00B4 [0x1A] CALL_SUBROUTINE(address=0x0529)
 13: 0x00B7 [0x1A] CALL_SUBROUTINE(address=0x0487)
 14: 0x00BA [0x1A] CALL_SUBROUTINE(address=0x0898)
 15: 0x00BD [0x80] LOAD_WAIT(entity=EventEntity)
 16: 0x00C2 [0x1A] CALL_SUBROUTINE(address=0x0991)
 17: 0x00C5 [0x1A] CALL_SUBROUTINE(address=0x0A4C)
 18: 0x00C8 [0x1A] CALL_SUBROUTINE(address=0x0D96)
 19: 0x00CB [0x1A] CALL_SUBROUTINE(address=0x062F)
 20: 0x00CE [0x1A] CALL_SUBROUTINE(address=0x058D)
 21: 0x00D1 [0x1A] CALL_SUBROUTINE(address=0x05DE)
 22: 0x00D4 [0x08] ExtData[1]->WorkLocal[14] -= 1*
 23: 0x00D9 [0x02] IF !(ExtData[1]->WorkLocal[14] >= 4*) GOTO 0x012C
 24: 0x00E1 [0x07] ExtData[1]->WorkLocal[12] += 1024*
 25: 0x00E6 [0x02] IF !(ExtData[1]->WorkLocal[12] < 4096*) GOTO 0x00F3
 26: 0x00EE [0x08] ExtData[1]->WorkLocal[12] -= 4096*
 27: 0x00F3 [0x03] ExtData[1]->WorkLocal[13] = 3*
 28: 0x00F8 [0x08] ExtData[1]->WorkLocal[13] -= ExtData[1]->WorkLocal[14]
 29: 0x00FD [0x03] ExtData[1]->WorkLocal[14] = ExtData[1]->WorkLocal[13]
 30: 0x0102 [0x03] ExtData[1]->WorkLocal[5] = 900*
 31: 0x0107 [0x14] ExtData[1]->WorkLocal[5] *= ExtData[1]->WorkLocal[14]
 32: 0x010C [0x07] ExtData[1]->WorkLocal[5] += 450*
 33: 0x0111 [0x17] ExtData[1]->WorkLocal[13] = cos(ExtData[1]->WorkLocal[12]) * ExtData[1]->WorkLocal[5]
 34: 0x0118 [0x07] ExtData[1]->WorkLocal[9] += ExtData[1]->WorkLocal[13]
 35: 0x011D [0x16] ExtData[1]->WorkLocal[13] = sin(ExtData[1]->WorkLocal[12]) * ExtData[1]->WorkLocal[5]
 36: 0x0124 [0x08] ExtData[1]->WorkLocal[11] -= ExtData[1]->WorkLocal[13]
 37: 0x0129 [0x01] GOTO 0x016A
 38: 0x012C [0x08] ExtData[1]->WorkLocal[12] -= 1024*
 39: 0x0131 [0x02] IF !(ExtData[1]->WorkLocal[12] >= 0*) GOTO 0x013E
 40: 0x0139 [0x07] ExtData[1]->WorkLocal[12] += 4096*
 41: 0x013E [0x08] ExtData[1]->WorkLocal[14] -= 4*
 42: 0x0143 [0x03] ExtData[1]->WorkLocal[5] = 900*
 43: 0x0148 [0x14] ExtData[1]->WorkLocal[5] *= ExtData[1]->WorkLocal[14]
 44: 0x014D [0x07] ExtData[1]->WorkLocal[5] += 450*
 45: 0x0152 [0x17] ExtData[1]->WorkLocal[13] = cos(ExtData[1]->WorkLocal[12]) * ExtData[1]->WorkLocal[5]
 46: 0x0159 [0x07] ExtData[1]->WorkLocal[9] += ExtData[1]->WorkLocal[13]
 47: 0x015E [0x16] ExtData[1]->WorkLocal[13] = sin(ExtData[1]->WorkLocal[12]) * ExtData[1]->WorkLocal[5]
 48: 0x0165 [0x08] ExtData[1]->WorkLocal[11] -= ExtData[1]->WorkLocal[13]

SUBROUTINE_016A:
 49: 0x016A [0x03] ExtData[1]->WorkLocal[6] = ExtData[1]->WorkLocal[9]
 50: 0x016F [0x03] ExtData[1]->WorkLocal[7] = ExtData[1]->WorkLocal[10]
 51: 0x0174 [0x03] ExtData[1]->WorkLocal[8] = ExtData[1]->WorkLocal[11]
 52: 0x0179 [0x1A] CALL_SUBROUTINE(address=0x0D96)
 53: 0x017C [0x07] ExtData[1]->WorkLocal[12] += 2048*
 54: 0x0181 [0x02] IF !(ExtData[1]->WorkLocal[12] < 4096*) GOTO 0x018E
 55: 0x0189 [0x08] ExtData[1]->WorkLocal[12] -= 4096*
 56: 0x018E [0x17] ExtData[1]->WorkLocal[13] = cos(ExtData[1]->WorkLocal[12]) * 10000*
 57: 0x0195 [0x07] ExtData[1]->WorkLocal[9] += ExtData[1]->WorkLocal[13]
 58: 0x019A [0x16] ExtData[1]->WorkLocal[13] = sin(ExtData[1]->WorkLocal[12]) * 10000*
 59: 0x01A1 [0x08] ExtData[1]->WorkLocal[11] -= ExtData[1]->WorkLocal[13]
 60: 0x01A6 [0x37] UPDATE_EVENT_POSITION_AND_DIR: x=ExtData[1]->WorkLocal[9], z=ExtData[1]->WorkLocal[11], y=ExtData[1]->WorkLocal[10], direction=ExtData[1]->WorkLocal[12]
 61: 0x01AF [0x1A] CALL_SUBROUTINE(address=0x0A0B)
 62: 0x01B2 [0x13] ExtData[1]->WorkLocal[13] = rand() % ExtData[1]->WorkLocal[14]
 63: 0x01B7 [0x1C] WAIT(ExtData[1]->WorkLocal[13] ticks)
 64: 0x01BA [0x1F] MOVE_ENTITY: EventEntity moves to X=ExtData[1]->WorkLocal[6], Z=ExtData[1]->WorkLocal[8], Y=ExtData[1]->WorkLocal[7]
 65: 0x01C2 [0x1F] MOVE_ENTITY: Update entity position (mode=1)
 66: 0x01C4 [0x03] ExtData[1]->WorkLocal[16] = 0*
 67: 0x01C9 [0x1A] CALL_SUBROUTINE(address=0x09CA)
 68: 0x01CC [0x03] ExtData[1]->WorkLocal[3] = 1*

SUBROUTINE_01D1:
 69: 0x01D1 [0x01] GOTO 0x0442
 70: 0x01D4 [0x02] IF !(ExtData[1]->WorkLocal[3] == 1*) GOTO 0x020E
 71: 0x01DC [0x3B] GET_ENTITY_POSITION(entity=EventEntity, x_destination=ExtData[1]->WorkLocal[9], y_destination=ExtData[1]->WorkLocal[11], z_destination=ExtData[1]->WorkLocal[10])
 72: 0x01E7 [0x64] CALCULATE_DISTANCE: ExtData[1]->WorkLocal[5] = distance between point1(ExtData[1]->WorkLocal[9], ExtData[1]->WorkLocal[11]) and point2(ExtData[1]->WorkLocal[6], ExtData[1]->WorkLocal[8])
 73: 0x01F2 [0x02] IF !(ExtData[1]->WorkLocal[5] > 1000*) GOTO 0x020B
 74: 0x01FA [0x1A] CALL_SUBROUTINE(address=0x0C55)
 75: 0x01FD [0x39] SET_ENTITY_DIRECTION(direction=ExtData[1]->WorkLocal[13])
 76: 0x0200 [0x1C] WAIT(25* ticks)
 77: 0x0203 [0x1A] CALL_SUBROUTINE(address=0x0765)
 78: 0x0206 [0x03] ExtData[1]->WorkLocal[3] = 2*
 79: 0x020B [0x01] GOTO 0x0442
 80: 0x020E [0x02] IF !(ExtData[1]->WorkLocal[3] == 2*) GOTO 0x0272
 81: 0x0216 [0x1A] CALL_SUBROUTINE(address=0x07F7)
 82: 0x0219 [0x02] IF !(ExtData[1]->WorkLocal[14] == 0*) GOTO 0x0267
 83: 0x0221 [0x02] IF !(ExtData[1]->WorkLocal[16] >= ExtData[1]->WorkLocal[15]) GOTO 0x0232
 84: 0x0229 [0x0B] ExtData[1]->WorkLocal[16]++
 85: 0x022C [0x1C] WAIT(1* ticks)
 86: 0x022F [0x01] GOTO 0x0264
 87: 0x0232 [0x1A] CALL_SUBROUTINE(address=0x07AE)
 88: 0x0235 [0x41] ExtData[1]->WorkLocal[13] = Work_Zone[36] (bits 12*-17*)
 89: 0x023E [0x0B] ExtData[1]->WorkLocal[13]++
 90: 0x0241 [0x40] SET_BIT_WORK_RANGE(start_bit=12*, end_bit=17*, target=Work_Zone[36], source=ExtData[1]->WorkLocal[13])
 91: 0x024A [0x41] ExtData[1]->WorkLocal[13] = Work_Zone[36] (bits 18*-23*)
 92: 0x0253 [0x0B] ExtData[1]->WorkLocal[13]++
 93: 0x0256 [0x40] SET_BIT_WORK_RANGE(start_bit=18*, end_bit=23*, target=Work_Zone[36], source=ExtData[1]->WorkLocal[13])
 94: 0x025F [0x03] ExtData[1]->WorkLocal[3] = 4*

SUBROUTINE_0264:
 95: 0x0264 [0x01] GOTO 0x026F
 96: 0x0267 [0x1A] CALL_SUBROUTINE(address=0x07AE)
 97: 0x026A [0x03] ExtData[1]->WorkLocal[3] = 3*

SUBROUTINE_026F:
 98: 0x026F [0x01] GOTO 0x0442
 99: 0x0272 [0x02] IF !(ExtData[1]->WorkLocal[3] == 3*) GOTO 0x032D
100: 0x027A [0x1A] CALL_SUBROUTINE(address=0x04D8)
101: 0x027D [0x02] IF !(ExtData[1]->WorkLocal[14] == 1*) GOTO 0x028D
102: 0x0285 [0x03] ExtData[1]->WorkLocal[14] = 190*
103: 0x028A [0x01] GOTO 0x02FD
104: 0x028D [0x02] IF !(ExtData[1]->WorkLocal[14] == 2*) GOTO 0x029D
105: 0x0295 [0x03] ExtData[1]->WorkLocal[14] = 193*
106: 0x029A [0x01] GOTO 0x02FD
107: 0x029D [0x02] IF !(ExtData[1]->WorkLocal[14] == 3*) GOTO 0x02AD
108: 0x02A5 [0x03] ExtData[1]->WorkLocal[14] = 189*
109: 0x02AA [0x01] GOTO 0x02FD
110: 0x02AD [0x02] IF !(ExtData[1]->WorkLocal[14] == 4*) GOTO 0x02BD
111: 0x02B5 [0x03] ExtData[1]->WorkLocal[14] = 191*
112: 0x02BA [0x01] GOTO 0x02FD
113: 0x02BD [0x02] IF !(ExtData[1]->WorkLocal[14] == 5*) GOTO 0x02CD
114: 0x02C5 [0x03] ExtData[1]->WorkLocal[14] = 192*
115: 0x02CA [0x01] GOTO 0x02FD
116: 0x02CD [0x02] IF !(ExtData[1]->WorkLocal[14] == 6*) GOTO 0x02DD
117: 0x02D5 [0x03] ExtData[1]->WorkLocal[14] = 188*
118: 0x02DA [0x01] GOTO 0x02FD
119: 0x02DD [0x02] IF !(ExtData[1]->WorkLocal[14] == 7*) GOTO 0x02ED
120: 0x02E5 [0x03] ExtData[1]->WorkLocal[14] = 194*
121: 0x02EA [0x01] GOTO 0x02FD
122: 0x02ED [0x02] IF !(ExtData[1]->WorkLocal[14] == 8*) GOTO 0x02FD
123: 0x02F5 [0x03] ExtData[1]->WorkLocal[14] = 195*
124: 0x02FA [0x01] GOTO 0x02FD

SUBROUTINE_02FD:
125: 0x02FD [0x9F] LOAD_SCHEDULED_TASK_ALT: Load scheduler "frst" with entities [EventEntity, EventEntity], work=[ExtData[1]->WorkLocal[14], 0*]
126: 0x030E [0x1C] WAIT(120* ticks)
127: 0x0311 [0x9F] LOAD_SCHEDULED_TASK_ALT: Load scheduler "ok00" with entities [EventEntity, EventEntity], work=[ExtData[1]->WorkLocal[14], 0*]
128: 0x0322 [0x1C] WAIT(180* ticks)
129: 0x0325 [0x03] ExtData[1]->WorkLocal[3] = 4*
130: 0x032A [0x01] GOTO 0x0442
131: 0x032D [0x02] IF !(ExtData[1]->WorkLocal[3] == 4*) GOTO 0x0377
132: 0x0335 [0x32] ExtData[1]->MainSpeed = 100* * 0.1
133: 0x0338 [0x1A] CALL_SUBROUTINE(address=0x0D96)
134: 0x033B [0x07] ExtData[1]->WorkLocal[12] += 2048*
135: 0x0340 [0x02] IF !(ExtData[1]->WorkLocal[12] < 4096*) GOTO 0x034D
136: 0x0348 [0x08] ExtData[1]->WorkLocal[12] -= 4096*
137: 0x034D [0x17] ExtData[1]->WorkLocal[13] = cos(ExtData[1]->WorkLocal[12]) * 3000*
138: 0x0354 [0x07] ExtData[1]->WorkLocal[6] += ExtData[1]->WorkLocal[13]
139: 0x0359 [0x16] ExtData[1]->WorkLocal[13] = sin(ExtData[1]->WorkLocal[12]) * 3000*
140: 0x0360 [0x08] ExtData[1]->WorkLocal[8] -= ExtData[1]->WorkLocal[13]
141: 0x0365 [0x1F] MOVE_ENTITY: EventEntity moves to X=ExtData[1]->WorkLocal[6], Z=ExtData[1]->WorkLocal[8], Y=ExtData[1]->WorkLocal[7]
142: 0x036D [0x1F] MOVE_ENTITY: Update entity position (mode=1)
143: 0x036F [0x03] ExtData[1]->WorkLocal[3] = 5*
144: 0x0374 [0x01] GOTO 0x0442
145: 0x0377 [0x02] IF !(ExtData[1]->WorkLocal[3] == 5*) GOTO 0x0401
146: 0x037F [0x3B] GET_ENTITY_POSITION(entity=EventEntity, x_destination=ExtData[1]->WorkLocal[9], y_destination=ExtData[1]->WorkLocal[11], z_destination=ExtData[1]->WorkLocal[10])
147: 0x038A [0x64] CALCULATE_DISTANCE: ExtData[1]->WorkLocal[5] = distance between point1(ExtData[1]->WorkLocal[9], ExtData[1]->WorkLocal[11]) and point2(ExtData[1]->WorkLocal[6], ExtData[1]->WorkLocal[8])
148: 0x0395 [0x02] IF !(ExtData[1]->WorkLocal[5] > 1000*) GOTO 0x03FE
149: 0x039D [0x1A] CALL_SUBROUTINE(address=0x0D96)
150: 0x03A0 [0x1A] CALL_SUBROUTINE(address=0x05DE)
151: 0x03A3 [0x08] ExtData[1]->WorkLocal[14] -= 1*
152: 0x03A8 [0x02] IF !(ExtData[1]->WorkLocal[14] >= 4*) GOTO 0x03C5
153: 0x03B0 [0x07] ExtData[1]->WorkLocal[12] += 1024*
154: 0x03B5 [0x02] IF !(ExtData[1]->WorkLocal[12] < 4096*) GOTO 0x03C2
155: 0x03BD [0x08] ExtData[1]->WorkLocal[12] -= 4096*
156: 0x03C2 [0x01] GOTO 0x03D7
157: 0x03C5 [0x08] ExtData[1]->WorkLocal[12] -= 1024*
158: 0x03CA [0x02] IF !(ExtData[1]->WorkLocal[12] >= 0*) GOTO 0x03D7
159: 0x03D2 [0x07] ExtData[1]->WorkLocal[12] += 4096*

SUBROUTINE_03D7:
160: 0x03D7 [0x17] ExtData[1]->WorkLocal[13] = cos(ExtData[1]->WorkLocal[12]) * 10000*
161: 0x03DE [0x07] ExtData[1]->WorkLocal[6] += ExtData[1]->WorkLocal[13]
162: 0x03E3 [0x16] ExtData[1]->WorkLocal[13] = sin(ExtData[1]->WorkLocal[12]) * 10000*
163: 0x03EA [0x08] ExtData[1]->WorkLocal[8] -= ExtData[1]->WorkLocal[13]
164: 0x03EF [0x1F] MOVE_ENTITY: EventEntity moves to X=ExtData[1]->WorkLocal[6], Z=ExtData[1]->WorkLocal[8], Y=ExtData[1]->WorkLocal[7]
165: 0x03F7 [0x1F] MOVE_ENTITY: Update entity position (mode=1)
166: 0x03F9 [0x03] ExtData[1]->WorkLocal[3] = 6*
167: 0x03FE [0x01] GOTO 0x0442
168: 0x0401 [0x02] IF !(ExtData[1]->WorkLocal[3] == 6*) GOTO 0x042F
169: 0x0409 [0x3B] GET_ENTITY_POSITION(entity=EventEntity, x_destination=ExtData[1]->WorkLocal[9], y_destination=ExtData[1]->WorkLocal[11], z_destination=ExtData[1]->WorkLocal[10])
170: 0x0414 [0x64] CALCULATE_DISTANCE: ExtData[1]->WorkLocal[5] = distance between point1(ExtData[1]->WorkLocal[9], ExtData[1]->WorkLocal[11]) and point2(ExtData[1]->WorkLocal[6], ExtData[1]->WorkLocal[8])
171: 0x041F [0x02] IF !(ExtData[1]->WorkLocal[5] > 1000*) GOTO 0x042C
172: 0x0427 [0x03] ExtData[1]->WorkLocal[3] = 7*
173: 0x042C [0x01] GOTO 0x0442
174: 0x042F [0x02] IF !(ExtData[1]->WorkLocal[3] == 7*) GOTO 0x0442
175: 0x0437 [0x1A] CALL_SUBROUTINE(address=0x0446)
176: 0x043A [0x03] ExtData[1]->WorkLocal[3] = 0*
177: 0x043F [0x01] GOTO 0x0442

SUBROUTINE_0442:
178: 0x0442 [0x01] GOTO 0x0076
179: 0x0445 [0x00] END_REQSTACK()

SUBROUTINE_0446:
180: 0x0446 [0x02] IF !(ExtData[1]->WorkLocal[0] == 0*) GOTO 0x0456
181: 0x044E [0x03] Work_Zone[32] = 0*
182: 0x0453 [0x01] GOTO 0x0486
183: 0x0456 [0x02] IF !(ExtData[1]->WorkLocal[0] == 1*) GOTO 0x0466
184: 0x045E [0x03] Work_Zone[33] = 0*
185: 0x0463 [0x01] GOTO 0x0486
186: 0x0466 [0x02] IF !(ExtData[1]->WorkLocal[0] == 2*) GOTO 0x0476
187: 0x046E [0x03] Work_Zone[34] = 0*
188: 0x0473 [0x01] GOTO 0x0486
189: 0x0476 [0x02] IF !(ExtData[1]->WorkLocal[0] == 3*) GOTO 0x0486
190: 0x047E [0x03] Work_Zone[35] = 0*
191: 0x0483 [0x01] GOTO 0x0486

SUBROUTINE_0486:
192: 0x0486 [0x1B] RETURN

SUBROUTINE_0487:
193: 0x0487 [0x02] IF !(ExtData[1]->WorkLocal[0] == 0*) GOTO 0x049B
194: 0x048F [0x40] SET_BIT_WORK_RANGE(start_bit=0*, end_bit=7*, target=Work_Zone[32], source=ExtData[1]->WorkLocal[14])
195: 0x0498 [0x01] GOTO 0x04D7
196: 0x049B [0x02] IF !(ExtData[1]->WorkLocal[0] == 1*) GOTO 0x04AF
197: 0x04A3 [0x40] SET_BIT_WORK_RANGE(start_bit=0*, end_bit=7*, target=Work_Zone[33], source=ExtData[1]->WorkLocal[14])
198: 0x04AC [0x01] GOTO 0x04D7
199: 0x04AF [0x02] IF !(ExtData[1]->WorkLocal[0] == 2*) GOTO 0x04C3
200: 0x04B7 [0x40] SET_BIT_WORK_RANGE(start_bit=0*, end_bit=7*, target=Work_Zone[34], source=ExtData[1]->WorkLocal[14])
201: 0x04C0 [0x01] GOTO 0x04D7
202: 0x04C3 [0x02] IF !(ExtData[1]->WorkLocal[0] == 3*) GOTO 0x04D7
203: 0x04CB [0x40] SET_BIT_WORK_RANGE(start_bit=0*, end_bit=7*, target=Work_Zone[35], source=ExtData[1]->WorkLocal[14])
204: 0x04D4 [0x01] GOTO 0x04D7

SUBROUTINE_04D7:
205: 0x04D7 [0x1B] RETURN

SUBROUTINE_04D8:
206: 0x04D8 [0x02] IF !(ExtData[1]->WorkLocal[0] == 0*) GOTO 0x04EC
207: 0x04E0 [0x41] ExtData[1]->WorkLocal[14] = Work_Zone[32] (bits 0*-7*)
208: 0x04E9 [0x01] GOTO 0x0528
209: 0x04EC [0x02] IF !(ExtData[1]->WorkLocal[0] == 1*) GOTO 0x0500
210: 0x04F4 [0x41] ExtData[1]->WorkLocal[14] = Work_Zone[33] (bits 0*-7*)
211: 0x04FD [0x01] GOTO 0x0528
212: 0x0500 [0x02] IF !(ExtData[1]->WorkLocal[0] == 2*) GOTO 0x0514
213: 0x0508 [0x41] ExtData[1]->WorkLocal[14] = Work_Zone[34] (bits 0*-7*)
214: 0x0511 [0x01] GOTO 0x0528
215: 0x0514 [0x02] IF !(ExtData[1]->WorkLocal[0] == 3*) GOTO 0x0528
216: 0x051C [0x41] ExtData[1]->WorkLocal[14] = Work_Zone[35] (bits 0*-7*)
217: 0x0525 [0x01] GOTO 0x0528

SUBROUTINE_0528:
218: 0x0528 [0x1B] RETURN

SUBROUTINE_0529:
219: 0x0529 [0x03] ExtData[1]->WorkLocal[13] = 1*

SUBROUTINE_052E:
220: 0x052E [0x02] IF !(ExtData[1]->WorkLocal[13] <= 0*) GOTO 0x058C
221: 0x0536 [0x13] ExtData[1]->WorkLocal[14] = rand() % 7*
222: 0x053B [0x07] ExtData[1]->WorkLocal[14] += 1*
223: 0x0540 [0x41] ExtData[1]->WorkLocal[5] = Work_Zone[32] (bits 0*-7*)
224: 0x0549 [0x02] IF !(ExtData[1]->WorkLocal[5] == ExtData[1]->WorkLocal[14]) GOTO 0x0589
225: 0x0551 [0x41] ExtData[1]->WorkLocal[5] = Work_Zone[33] (bits 0*-7*)
226: 0x055A [0x02] IF !(ExtData[1]->WorkLocal[5] == ExtData[1]->WorkLocal[14]) GOTO 0x0589
227: 0x0562 [0x41] ExtData[1]->WorkLocal[5] = Work_Zone[34] (bits 0*-7*)
228: 0x056B [0x02] IF !(ExtData[1]->WorkLocal[5] == ExtData[1]->WorkLocal[14]) GOTO 0x0589
229: 0x0573 [0x41] ExtData[1]->WorkLocal[5] = Work_Zone[35] (bits 0*-7*)
230: 0x057C [0x02] IF !(ExtData[1]->WorkLocal[5] == ExtData[1]->WorkLocal[14]) GOTO 0x0589
231: 0x0584 [0x03] ExtData[1]->WorkLocal[13] = 0*
232: 0x0589 [0x01] GOTO 0x052E
233: 0x058C [0x1B] RETURN

SUBROUTINE_058D:
234: 0x058D [0x02] IF !(ExtData[1]->WorkLocal[0] == 0*) GOTO 0x05A1
235: 0x0595 [0x40] SET_BIT_WORK_RANGE(start_bit=8*, end_bit=15*, target=Work_Zone[32], source=ExtData[1]->WorkLocal[14])
236: 0x059E [0x01] GOTO 0x05DD
237: 0x05A1 [0x02] IF !(ExtData[1]->WorkLocal[0] == 1*) GOTO 0x05B5
238: 0x05A9 [0x40] SET_BIT_WORK_RANGE(start_bit=8*, end_bit=15*, target=Work_Zone[33], source=ExtData[1]->WorkLocal[14])
239: 0x05B2 [0x01] GOTO 0x05DD
240: 0x05B5 [0x02] IF !(ExtData[1]->WorkLocal[0] == 2*) GOTO 0x05C9
241: 0x05BD [0x40] SET_BIT_WORK_RANGE(start_bit=8*, end_bit=15*, target=Work_Zone[34], source=ExtData[1]->WorkLocal[14])
242: 0x05C6 [0x01] GOTO 0x05DD
243: 0x05C9 [0x02] IF !(ExtData[1]->WorkLocal[0] == 3*) GOTO 0x05DD
244: 0x05D1 [0x40] SET_BIT_WORK_RANGE(start_bit=8*, end_bit=15*, target=Work_Zone[35], source=ExtData[1]->WorkLocal[14])
245: 0x05DA [0x01] GOTO 0x05DD

SUBROUTINE_05DD:
246: 0x05DD [0x1B] RETURN

SUBROUTINE_05DE:
247: 0x05DE [0x02] IF !(ExtData[1]->WorkLocal[0] == 0*) GOTO 0x05F2
248: 0x05E6 [0x41] ExtData[1]->WorkLocal[14] = Work_Zone[32] (bits 8*-15*)
249: 0x05EF [0x01] GOTO 0x062E
250: 0x05F2 [0x02] IF !(ExtData[1]->WorkLocal[0] == 1*) GOTO 0x0606
251: 0x05FA [0x41] ExtData[1]->WorkLocal[14] = Work_Zone[33] (bits 8*-15*)
252: 0x0603 [0x01] GOTO 0x062E
253: 0x0606 [0x02] IF !(ExtData[1]->WorkLocal[0] == 2*) GOTO 0x061A
254: 0x060E [0x41] ExtData[1]->WorkLocal[14] = Work_Zone[34] (bits 8*-15*)
255: 0x0617 [0x01] GOTO 0x062E
256: 0x061A [0x02] IF !(ExtData[1]->WorkLocal[0] == 3*) GOTO 0x062E
257: 0x0622 [0x41] ExtData[1]->WorkLocal[14] = Work_Zone[35] (bits 8*-15*)
258: 0x062B [0x01] GOTO 0x062E

SUBROUTINE_062E:
259: 0x062E [0x1B] RETURN

SUBROUTINE_062F:
260: 0x062F [0x02] IF !(ExtData[1]->WorkLocal[2] == 1*) GOTO 0x063D
261: 0x0637 [0x1A] CALL_SUBROUTINE(address=0x04D8)
262: 0x063A [0x01] GOTO 0x0764
263: 0x063D [0x02] IF !(ExtData[1]->WorkLocal[2] == 2*) GOTO 0x0688
264: 0x0645 [0x02] IF !(ExtData[1]->WorkLocal[0] == 0*) GOTO 0x0655
265: 0x064D [0x03] ExtData[1]->WorkLocal[14] = 3*
266: 0x0652 [0x01] GOTO 0x0685
267: 0x0655 [0x02] IF !(ExtData[1]->WorkLocal[0] == 1*) GOTO 0x0665
268: 0x065D [0x03] ExtData[1]->WorkLocal[14] = 4*
269: 0x0662 [0x01] GOTO 0x0685
270: 0x0665 [0x02] IF !(ExtData[1]->WorkLocal[0] == 2*) GOTO 0x0675
271: 0x066D [0x03] ExtData[1]->WorkLocal[14] = 5*
272: 0x0672 [0x01] GOTO 0x0685
273: 0x0675 [0x02] IF !(ExtData[1]->WorkLocal[0] == 3*) GOTO 0x0685
274: 0x067D [0x03] ExtData[1]->WorkLocal[14] = 6*
275: 0x0682 [0x01] GOTO 0x0685

SUBROUTINE_0685:
276: 0x0685 [0x01] GOTO 0x0764
277: 0x0688 [0x02] IF !(ExtData[1]->WorkLocal[2] == 3*) GOTO 0x06F6
278: 0x0690 [0x03] ExtData[1]->WorkLocal[13] = 1*

SUBROUTINE_0695:
279: 0x0695 [0x02] IF !(ExtData[1]->WorkLocal[13] <= 0*) GOTO 0x06F3
280: 0x069D [0x13] ExtData[1]->WorkLocal[14] = rand() % 7*
281: 0x06A2 [0x07] ExtData[1]->WorkLocal[14] += 1*
282: 0x06A7 [0x41] ExtData[1]->WorkLocal[5] = Work_Zone[32] (bits 8*-15*)
283: 0x06B0 [0x02] IF !(ExtData[1]->WorkLocal[5] == ExtData[1]->WorkLocal[14]) GOTO 0x06F0
284: 0x06B8 [0x41] ExtData[1]->WorkLocal[5] = Work_Zone[33] (bits 8*-15*)
285: 0x06C1 [0x02] IF !(ExtData[1]->WorkLocal[5] == ExtData[1]->WorkLocal[14]) GOTO 0x06F0
286: 0x06C9 [0x41] ExtData[1]->WorkLocal[5] = Work_Zone[34] (bits 8*-15*)
287: 0x06D2 [0x02] IF !(ExtData[1]->WorkLocal[5] == ExtData[1]->WorkLocal[14]) GOTO 0x06F0
288: 0x06DA [0x41] ExtData[1]->WorkLocal[5] = Work_Zone[35] (bits 8*-15*)
289: 0x06E3 [0x02] IF !(ExtData[1]->WorkLocal[5] == ExtData[1]->WorkLocal[14]) GOTO 0x06F0
290: 0x06EB [0x03] ExtData[1]->WorkLocal[13] = 0*
291: 0x06F0 [0x01] GOTO 0x0695
292: 0x06F3 [0x01] GOTO 0x0764
293: 0x06F6 [0x02] IF !(ExtData[1]->WorkLocal[2] == 4*) GOTO 0x0764
294: 0x06FE [0x03] ExtData[1]->WorkLocal[13] = 1*

SUBROUTINE_0703:
295: 0x0703 [0x02] IF !(ExtData[1]->WorkLocal[13] <= 0*) GOTO 0x0761
296: 0x070B [0x13] ExtData[1]->WorkLocal[14] = rand() % 7*
297: 0x0710 [0x07] ExtData[1]->WorkLocal[14] += 1*
298: 0x0715 [0x41] ExtData[1]->WorkLocal[5] = Work_Zone[32] (bits 8*-15*)
299: 0x071E [0x02] IF !(ExtData[1]->WorkLocal[5] == ExtData[1]->WorkLocal[14]) GOTO 0x075E
300: 0x0726 [0x41] ExtData[1]->WorkLocal[5] = Work_Zone[33] (bits 8*-15*)
301: 0x072F [0x02] IF !(ExtData[1]->WorkLocal[5] == ExtData[1]->WorkLocal[14]) GOTO 0x075E
302: 0x0737 [0x41] ExtData[1]->WorkLocal[5] = Work_Zone[34] (bits 8*-15*)
303: 0x0740 [0x02] IF !(ExtData[1]->WorkLocal[5] == ExtData[1]->WorkLocal[14]) GOTO 0x075E
304: 0x0748 [0x41] ExtData[1]->WorkLocal[5] = Work_Zone[35] (bits 8*-15*)
305: 0x0751 [0x02] IF !(ExtData[1]->WorkLocal[5] == ExtData[1]->WorkLocal[14]) GOTO 0x075E
306: 0x0759 [0x03] ExtData[1]->WorkLocal[13] = 0*
307: 0x075E [0x01] GOTO 0x0703
308: 0x0761 [0x01] GOTO 0x0764

SUBROUTINE_0764:
309: 0x0764 [0x1B] RETURN

SUBROUTINE_0765:
310: 0x0765 [0x02] IF !(ExtData[1]->WorkLocal[0] == 0*) GOTO 0x0777
311: 0x076D [0x3C] SET_BIT_FLAG_CONDITIONAL(target_work_offset=Work_Zone[32], bit_index_work_offset=16*, condition_work_offset=1*)
312: 0x0774 [0x01] GOTO 0x07AD
313: 0x0777 [0x02] IF !(ExtData[1]->WorkLocal[0] == 1*) GOTO 0x0789
314: 0x077F [0x3C] SET_BIT_FLAG_CONDITIONAL(target_work_offset=Work_Zone[33], bit_index_work_offset=16*, condition_work_offset=1*)
315: 0x0786 [0x01] GOTO 0x07AD
316: 0x0789 [0x02] IF !(ExtData[1]->WorkLocal[0] == 2*) GOTO 0x079B
317: 0x0791 [0x3C] SET_BIT_FLAG_CONDITIONAL(target_work_offset=Work_Zone[34], bit_index_work_offset=16*, condition_work_offset=1*)
318: 0x0798 [0x01] GOTO 0x07AD
319: 0x079B [0x02] IF !(ExtData[1]->WorkLocal[0] == 3*) GOTO 0x07AD
320: 0x07A3 [0x3C] SET_BIT_FLAG_CONDITIONAL(target_work_offset=Work_Zone[35], bit_index_work_offset=16*, condition_work_offset=1*)
321: 0x07AA [0x01] GOTO 0x07AD

SUBROUTINE_07AD:
322: 0x07AD [0x1B] RETURN

SUBROUTINE_07AE:
323: 0x07AE [0x02] IF !(ExtData[1]->WorkLocal[0] == 0*) GOTO 0x07C0
324: 0x07B6 [0x3D] CLEAR_BIT_FLAG_CONDITIONAL(target_work_offset=Work_Zone[32], bit_index_work_offset=16*, condition_work_offset=1*)
325: 0x07BD [0x01] GOTO 0x07F6
326: 0x07C0 [0x02] IF !(ExtData[1]->WorkLocal[0] == 1*) GOTO 0x07D2
327: 0x07C8 [0x3D] CLEAR_BIT_FLAG_CONDITIONAL(target_work_offset=Work_Zone[33], bit_index_work_offset=16*, condition_work_offset=1*)
328: 0x07CF [0x01] GOTO 0x07F6
329: 0x07D2 [0x02] IF !(ExtData[1]->WorkLocal[0] == 2*) GOTO 0x07E4
330: 0x07DA [0x3D] CLEAR_BIT_FLAG_CONDITIONAL(target_work_offset=Work_Zone[34], bit_index_work_offset=16*, condition_work_offset=1*)
331: 0x07E1 [0x01] GOTO 0x07F6
332: 0x07E4 [0x02] IF !(ExtData[1]->WorkLocal[0] == 3*) GOTO 0x07F6
333: 0x07EC [0x3D] CLEAR_BIT_FLAG_CONDITIONAL(target_work_offset=Work_Zone[35], bit_index_work_offset=16*, condition_work_offset=1*)
334: 0x07F3 [0x01] GOTO 0x07F6

SUBROUTINE_07F6:
335: 0x07F6 [0x1B] RETURN

SUBROUTINE_07F7:
336: 0x07F7 [0x06] ExtData[1]->WorkLocal[14] = 0
337: 0x07FA [0x02] IF !(ExtData[1]->WorkLocal[0] == 0*) GOTO 0x080F
338: 0x0802 [0x3E] IF !(Work_Zone[32] bit 17*) GOTO 0x080C
339: 0x0809 [0x05] ExtData[1]->WorkLocal[14] = 1
340: 0x080C [0x01] GOTO 0x084E
341: 0x080F [0x02] IF !(ExtData[1]->WorkLocal[0] == 1*) GOTO 0x0824
342: 0x0817 [0x3E] IF !(Work_Zone[33] bit 17*) GOTO 0x0821
343: 0x081E [0x05] ExtData[1]->WorkLocal[14] = 1
344: 0x0821 [0x01] GOTO 0x084E
345: 0x0824 [0x02] IF !(ExtData[1]->WorkLocal[0] == 2*) GOTO 0x0839
346: 0x082C [0x3E] IF !(Work_Zone[34] bit 17*) GOTO 0x0836
347: 0x0833 [0x05] ExtData[1]->WorkLocal[14] = 1
348: 0x0836 [0x01] GOTO 0x084E
349: 0x0839 [0x02] IF !(ExtData[1]->WorkLocal[0] == 3*) GOTO 0x084E
350: 0x0841 [0x3E] IF !(Work_Zone[35] bit 17*) GOTO 0x084B
351: 0x0848 [0x05] ExtData[1]->WorkLocal[14] = 1
352: 0x084B [0x01] GOTO 0x084E

SUBROUTINE_084E:
353: 0x084E [0x1B] RETURN

SUBROUTINE_084F:
354: 0x084F [0x02] IF !(ExtData[1]->WorkLocal[0] == 0*) GOTO 0x0861
355: 0x0857 [0x3C] SET_BIT_FLAG_CONDITIONAL(target_work_offset=Work_Zone[32], bit_index_work_offset=18*, condition_work_offset=1*)
356: 0x085E [0x01] GOTO 0x0897
357: 0x0861 [0x02] IF !(ExtData[1]->WorkLocal[0] == 1*) GOTO 0x0873
358: 0x0869 [0x3C] SET_BIT_FLAG_CONDITIONAL(target_work_offset=Work_Zone[33], bit_index_work_offset=18*, condition_work_offset=1*)
359: 0x0870 [0x01] GOTO 0x0897
360: 0x0873 [0x02] IF !(ExtData[1]->WorkLocal[0] == 2*) GOTO 0x0885
361: 0x087B [0x3C] SET_BIT_FLAG_CONDITIONAL(target_work_offset=Work_Zone[34], bit_index_work_offset=18*, condition_work_offset=1*)
362: 0x0882 [0x01] GOTO 0x0897
363: 0x0885 [0x02] IF !(ExtData[1]->WorkLocal[0] == 3*) GOTO 0x0897
364: 0x088D [0x3C] SET_BIT_FLAG_CONDITIONAL(target_work_offset=Work_Zone[35], bit_index_work_offset=18*, condition_work_offset=1*)
365: 0x0894 [0x01] GOTO 0x0897

SUBROUTINE_0897:
366: 0x0897 [0x1B] RETURN

SUBROUTINE_0898:
367: 0x0898 [0x02] IF !(ExtData[1]->WorkLocal[14] == 1*) GOTO 0x08B7
368: 0x08A0 [0xB6] ENTITY_APPEARANCE_HANDLER(case=Full entity look, race=3*, hair=4*, head=23*, body=118*, hands=118*, legs=103*, feet=103*, main=115*, sub=0*)
369: 0x08B4 [0x01] GOTO 0x0990
370: 0x08B7 [0x02] IF !(ExtData[1]->WorkLocal[14] == 2*) GOTO 0x08D6
371: 0x08BF [0xB6] ENTITY_APPEARANCE_HANDLER(case=Full entity look, race=6*, hair=7*, head=0*, body=105*, hands=105*, legs=105*, feet=105*, main=113*, sub=0*)
372: 0x08D3 [0x01] GOTO 0x0990
373: 0x08D6 [0x02] IF !(ExtData[1]->WorkLocal[14] == 3*) GOTO 0x08F5
374: 0x08DE [0xB6] ENTITY_APPEARANCE_HANDLER(case=Full entity look, race=2*, hair=5*, head=125*, body=125*, hands=102*, legs=102*, feet=102*, main=116*, sub=0*)
375: 0x08F2 [0x01] GOTO 0x0990
376: 0x08F5 [0x02] IF !(ExtData[1]->WorkLocal[14] == 4*) GOTO 0x0914
377: 0x08FD [0xB6] ENTITY_APPEARANCE_HANDLER(case=Full entity look, race=3*, hair=14*, head=36*, body=117*, hands=117*, legs=103*, feet=103*, main=364*, sub=0*)
378: 0x0911 [0x01] GOTO 0x0990
379: 0x0914 [0x02] IF !(ExtData[1]->WorkLocal[14] == 5*) GOTO 0x0933
380: 0x091C [0xB6] ENTITY_APPEARANCE_HANDLER(case=Full entity look, race=7*, hair=12*, head=0*, body=46*, hands=105*, legs=105*, feet=105*, main=0*, sub=0*)
381: 0x0930 [0x01] GOTO 0x0990
382: 0x0933 [0x02] IF !(ExtData[1]->WorkLocal[14] == 6*) GOTO 0x0952
383: 0x093B [0xB6] ENTITY_APPEARANCE_HANDLER(case=Full entity look, race=5*, hair=15*, head=119*, body=39*, hands=105*, legs=105*, feet=105*, main=114*, sub=0*)
384: 0x094F [0x01] GOTO 0x0990
385: 0x0952 [0x02] IF !(ExtData[1]->WorkLocal[14] == 7*) GOTO 0x0971
386: 0x095A [0xB6] ENTITY_APPEARANCE_HANDLER(case=Full entity look, race=1*, hair=4*, head=172*, body=37*, hands=102*, legs=102*, feet=102*, main=0*, sub=0*)
387: 0x096E [0x01] GOTO 0x0990
388: 0x0971 [0x02] IF !(ExtData[1]->WorkLocal[14] == 8*) GOTO 0x0990
389: 0x0979 [0xB6] ENTITY_APPEARANCE_HANDLER(case=Full entity look, race=4*, hair=0*, head=135*, body=103*, hands=103*, legs=103*, feet=103*, main=0*, sub=0*)
390: 0x098D [0x01] GOTO 0x0990

SUBROUTINE_0990:
391: 0x0990 [0x1B] RETURN

SUBROUTINE_0991:
392: 0x0991 [0x02] IF !(ExtData[1]->WorkLocal[2] == 1*) GOTO 0x099F
393: 0x0999 [0x32] ExtData[1]->MainSpeed = 30* * 0.1
394: 0x099C [0x01] GOTO 0x09C9
395: 0x099F [0x02] IF !(ExtData[1]->WorkLocal[2] == 2*) GOTO 0x09AD
396: 0x09A7 [0x32] ExtData[1]->MainSpeed = 40* * 0.1
397: 0x09AA [0x01] GOTO 0x09C9
398: 0x09AD [0x02] IF !(ExtData[1]->WorkLocal[2] == 3*) GOTO 0x09BB
399: 0x09B5 [0x32] ExtData[1]->MainSpeed = 50* * 0.1
400: 0x09B8 [0x01] GOTO 0x09C9
401: 0x09BB [0x02] IF !(ExtData[1]->WorkLocal[2] == 4*) GOTO 0x09C9
402: 0x09C3 [0x32] ExtData[1]->MainSpeed = 50* * 0.1
403: 0x09C6 [0x01] GOTO 0x09C9

SUBROUTINE_09C9:
404: 0x09C9 [0x1B] RETURN

SUBROUTINE_09CA:
405: 0x09CA [0x02] IF !(ExtData[1]->WorkLocal[2] == 1*) GOTO 0x09DA
406: 0x09D2 [0x03] ExtData[1]->WorkLocal[15] = 600*
407: 0x09D7 [0x01] GOTO 0x0A0A
408: 0x09DA [0x02] IF !(ExtData[1]->WorkLocal[2] == 2*) GOTO 0x09EA
409: 0x09E2 [0x03] ExtData[1]->WorkLocal[15] = 180*
410: 0x09E7 [0x01] GOTO 0x0A0A
411: 0x09EA [0x02] IF !(ExtData[1]->WorkLocal[2] == 3*) GOTO 0x09FA
412: 0x09F2 [0x03] ExtData[1]->WorkLocal[15] = 120*
413: 0x09F7 [0x01] GOTO 0x0A0A
414: 0x09FA [0x02] IF !(ExtData[1]->WorkLocal[2] == 4*) GOTO 0x0A0A
415: 0x0A02 [0x03] ExtData[1]->WorkLocal[15] = 120*
416: 0x0A07 [0x01] GOTO 0x0A0A

SUBROUTINE_0A0A:
417: 0x0A0A [0x1B] RETURN

SUBROUTINE_0A0B:
418: 0x0A0B [0x02] IF !(ExtData[1]->WorkLocal[2] == 1*) GOTO 0x0A1B
419: 0x0A13 [0x03] ExtData[1]->WorkLocal[14] = 180*
420: 0x0A18 [0x01] GOTO 0x0A4B
421: 0x0A1B [0x02] IF !(ExtData[1]->WorkLocal[2] == 2*) GOTO 0x0A2B
422: 0x0A23 [0x03] ExtData[1]->WorkLocal[14] = 120*
423: 0x0A28 [0x01] GOTO 0x0A4B
424: 0x0A2B [0x02] IF !(ExtData[1]->WorkLocal[2] == 3*) GOTO 0x0A3B
425: 0x0A33 [0x03] ExtData[1]->WorkLocal[14] = 60*
426: 0x0A38 [0x01] GOTO 0x0A4B
427: 0x0A3B [0x02] IF !(ExtData[1]->WorkLocal[2] == 4*) GOTO 0x0A4B
428: 0x0A43 [0x03] ExtData[1]->WorkLocal[14] = 60*
429: 0x0A48 [0x01] GOTO 0x0A4B

SUBROUTINE_0A4B:
430: 0x0A4B [0x1B] RETURN

SUBROUTINE_0A4C:
431: 0x0A4C [0x02] IF !(ExtData[1]->WorkLocal[1] == 80*) GOTO 0x0A66
432: 0x0A54 [0x03] ExtData[1]->WorkLocal[9] = 20*
433: 0x0A59 [0x03] ExtData[1]->WorkLocal[11] = 47693*
434: 0x0A5E [0x03] ExtData[1]->WorkLocal[10] = 4294965297*
435: 0x0A63 [0x01] GOTO 0x0C54
436: 0x0A66 [0x02] IF !(ExtData[1]->WorkLocal[1] == 81*) GOTO 0x0A80
437: 0x0A6E [0x03] ExtData[1]->WorkLocal[9] = 312125*
438: 0x0A73 [0x03] ExtData[1]->WorkLocal[11] = 4294855114*
439: 0x0A78 [0x03] ExtData[1]->WorkLocal[10] = 4294937642*
440: 0x0A7D [0x01] GOTO 0x0C54
441: 0x0A80 [0x02] IF !(ExtData[1]->WorkLocal[1] == 82*) GOTO 0x0A9A
442: 0x0A88 [0x03] ExtData[1]->WorkLocal[9] = 64035*
443: 0x0A8D [0x03] ExtData[1]->WorkLocal[11] = 4294935093*
444: 0x0A92 [0x03] ExtData[1]->WorkLocal[10] = 681*
445: 0x0A97 [0x01] GOTO 0x0C54
446: 0x0A9A [0x02] IF !(ExtData[1]->WorkLocal[1] == 83*) GOTO 0x0AB4
447: 0x0AA2 [0x03] ExtData[1]->WorkLocal[9] = 4294771582*
448: 0x0AA7 [0x03] ExtData[1]->WorkLocal[11] = 4294687431*
449: 0x0AAC [0x03] ExtData[1]->WorkLocal[10] = 4294927297*
450: 0x0AB1 [0x01] GOTO 0x0C54
451: 0x0AB4 [0x02] IF !(ExtData[1]->WorkLocal[1] == 84*) GOTO 0x0ACE
452: 0x0ABC [0x03] ExtData[1]->WorkLocal[9] = 208921*
453: 0x0AC1 [0x03] ExtData[1]->WorkLocal[11] = 23841*
454: 0x0AC6 [0x03] ExtData[1]->WorkLocal[10] = 8704*
455: 0x0ACB [0x01] GOTO 0x0C54
456: 0x0ACE [0x02] IF !(ExtData[1]->WorkLocal[1] == 175*) GOTO 0x0AE8
457: 0x0AD6 [0x03] ExtData[1]->WorkLocal[9] = 317369*
458: 0x0ADB [0x03] ExtData[1]->WorkLocal[11] = 20006*
459: 0x0AE0 [0x03] ExtData[1]->WorkLocal[10] = 4294939547*
460: 0x0AE5 [0x01] GOTO 0x0C54
461: 0x0AE8 [0x02] IF !(ExtData[1]->WorkLocal[1] == 87*) GOTO 0x0B02
462: 0x0AF0 [0x03] ExtData[1]->WorkLocal[9] = 4294686827*
463: 0x0AF5 [0x03] ExtData[1]->WorkLocal[11] = 4294903817*
464: 0x0AFA [0x03] ExtData[1]->WorkLocal[10] = 4294954797*
465: 0x0AFF [0x01] GOTO 0x0C54
466: 0x0B02 [0x02] IF !(ExtData[1]->WorkLocal[1] == 88*) GOTO 0x0B1C
467: 0x0B0A [0x03] ExtData[1]->WorkLocal[9] = 4294395470*
468: 0x0B0F [0x03] ExtData[1]->WorkLocal[11] = 55265*
469: 0x0B14 [0x03] ExtData[1]->WorkLocal[10] = 40058*
470: 0x0B19 [0x01] GOTO 0x0C54
471: 0x0B1C [0x02] IF !(ExtData[1]->WorkLocal[1] == 89*) GOTO 0x0B36
472: 0x0B24 [0x03] ExtData[1]->WorkLocal[9] = 313962*
473: 0x0B29 [0x03] ExtData[1]->WorkLocal[11] = 102873*
474: 0x0B2E [0x03] ExtData[1]->WorkLocal[10] = 4294919943*
475: 0x0B33 [0x01] GOTO 0x0C54
476: 0x0B36 [0x02] IF !(ExtData[1]->WorkLocal[1] == 90*) GOTO 0x0B50
477: 0x0B3E [0x03] ExtData[1]->WorkLocal[9] = 436536*
478: 0x0B43 [0x03] ExtData[1]->WorkLocal[11] = 389000*
479: 0x0B48 [0x03] ExtData[1]->WorkLocal[10] = 24851*
480: 0x0B4D [0x01] GOTO 0x0C54
481: 0x0B50 [0x02] IF !(ExtData[1]->WorkLocal[1] == 91*) GOTO 0x0B6A
482: 0x0B58 [0x03] ExtData[1]->WorkLocal[9] = 259087*
483: 0x0B5D [0x03] ExtData[1]->WorkLocal[11] = 202207*
484: 0x0B62 [0x03] ExtData[1]->WorkLocal[10] = 8626*
485: 0x0B67 [0x01] GOTO 0x0C54
486: 0x0B6A [0x02] IF !(ExtData[1]->WorkLocal[1] == 171*) GOTO 0x0B84
487: 0x0B72 [0x03] ExtData[1]->WorkLocal[9] = 4294840395*
488: 0x0B77 [0x03] ExtData[1]->WorkLocal[11] = 4294879891*
489: 0x0B7C [0x03] ExtData[1]->WorkLocal[10] = 4294934742*
490: 0x0B81 [0x01] GOTO 0x0C54
491: 0x0B84 [0x02] IF !(ExtData[1]->WorkLocal[1] == 94*) GOTO 0x0B9E
492: 0x0B8C [0x03] ExtData[1]->WorkLocal[9] = 4294909513*
493: 0x0B91 [0x03] ExtData[1]->WorkLocal[11] = 4294781237*
494: 0x0B96 [0x03] ExtData[1]->WorkLocal[10] = 4294965755*
495: 0x0B9B [0x01] GOTO 0x0C54
496: 0x0B9E [0x02] IF !(ExtData[1]->WorkLocal[1] == 95*) GOTO 0x0BB8
497: 0x0BA6 [0x03] ExtData[1]->WorkLocal[9] = 4294956477*
498: 0x0BAB [0x03] ExtData[1]->WorkLocal[11] = 309597*
499: 0x0BB0 [0x03] ExtData[1]->WorkLocal[10] = 4294954438*
500: 0x0BB5 [0x01] GOTO 0x0C54
501: 0x0BB8 [0x02] IF !(ExtData[1]->WorkLocal[1] == 96*) GOTO 0x0BD2
502: 0x0BC0 [0x03] ExtData[1]->WorkLocal[9] = 4294858671*
503: 0x0BC5 [0x03] ExtData[1]->WorkLocal[11] = 4294967174*
504: 0x0BCA [0x03] ExtData[1]->WorkLocal[10] = 4294887290*
505: 0x0BCF [0x01] GOTO 0x0C54
506: 0x0BD2 [0x02] IF !(ExtData[1]->WorkLocal[1] == 97*) GOTO 0x0BEC
507: 0x0BDA [0x03] ExtData[1]->WorkLocal[9] = 4294668950*
508: 0x0BDF [0x03] ExtData[1]->WorkLocal[11] = 429806*
509: 0x0BE4 [0x03] ExtData[1]->WorkLocal[10] = 16669*
510: 0x0BE9 [0x01] GOTO 0x0C54
511: 0x0BEC [0x02] IF !(ExtData[1]->WorkLocal[1] == 98*) GOTO 0x0C06
512: 0x0BF4 [0x03] ExtData[1]->WorkLocal[9] = 4294924302*
513: 0x0BF9 [0x03] ExtData[1]->WorkLocal[11] = 220030*
514: 0x0BFE [0x03] ExtData[1]->WorkLocal[10] = 24997*
515: 0x0C03 [0x01] GOTO 0x0C54
516: 0x0C06 [0x02] IF !(ExtData[1]->WorkLocal[1] == 164*) GOTO 0x0C20
517: 0x0C0E [0x03] ExtData[1]->WorkLocal[9] = 4294945229*
518: 0x0C13 [0x03] ExtData[1]->WorkLocal[11] = 4294947346*
519: 0x0C18 [0x03] ExtData[1]->WorkLocal[10] = 0*
520: 0x0C1D [0x01] GOTO 0x0C54
521: 0x0C20 [0x02] IF !(ExtData[1]->WorkLocal[1] == 136*) GOTO 0x0C3A
522: 0x0C28 [0x03] ExtData[1]->WorkLocal[9] = 83629*
523: 0x0C2D [0x03] ExtData[1]->WorkLocal[11] = 4294919176*
524: 0x0C32 [0x03] ExtData[1]->WorkLocal[10] = 4294907501*
525: 0x0C37 [0x01] GOTO 0x0C54
526: 0x0C3A [0x02] IF !(ExtData[1]->WorkLocal[1] == 137*) GOTO 0x0C54
527: 0x0C42 [0x03] ExtData[1]->WorkLocal[9] = 128589*
528: 0x0C47 [0x03] ExtData[1]->WorkLocal[11] = 4294849261*
529: 0x0C4C [0x03] ExtData[1]->WorkLocal[10] = 4294944012*
530: 0x0C51 [0x01] GOTO 0x0C54

SUBROUTINE_0C54:
531: 0x0C54 [0x1B] RETURN

SUBROUTINE_0C55:
532: 0x0C55 [0x02] IF !(ExtData[1]->WorkLocal[1] == 80*) GOTO 0x0C65
533: 0x0C5D [0x03] ExtData[1]->WorkLocal[13] = 3096*
534: 0x0C62 [0x01] GOTO 0x0D95
535: 0x0C65 [0x02] IF !(ExtData[1]->WorkLocal[1] == 81*) GOTO 0x0C75
536: 0x0C6D [0x03] ExtData[1]->WorkLocal[13] = 2560*
537: 0x0C72 [0x01] GOTO 0x0D95
538: 0x0C75 [0x02] IF !(ExtData[1]->WorkLocal[1] == 82*) GOTO 0x0C85
539: 0x0C7D [0x03] ExtData[1]->WorkLocal[13] = 2883*
540: 0x0C82 [0x01] GOTO 0x0D95
541: 0x0C85 [0x02] IF !(ExtData[1]->WorkLocal[1] == 83*) GOTO 0x0C95
542: 0x0C8D [0x03] ExtData[1]->WorkLocal[13] = 2048*
543: 0x0C92 [0x01] GOTO 0x0D95
544: 0x0C95 [0x02] IF !(ExtData[1]->WorkLocal[1] == 84*) GOTO 0x0CA5
545: 0x0C9D [0x03] ExtData[1]->WorkLocal[13] = 0*
546: 0x0CA2 [0x01] GOTO 0x0D95
547: 0x0CA5 [0x02] IF !(ExtData[1]->WorkLocal[1] == 175*) GOTO 0x0CB5
548: 0x0CAD [0x03] ExtData[1]->WorkLocal[13] = 0*
549: 0x0CB2 [0x01] GOTO 0x0D95
550: 0x0CB5 [0x02] IF !(ExtData[1]->WorkLocal[1] == 87*) GOTO 0x0CC5
551: 0x0CBD [0x03] ExtData[1]->WorkLocal[13] = 512*
552: 0x0CC2 [0x01] GOTO 0x0D95
553: 0x0CC5 [0x02] IF !(ExtData[1]->WorkLocal[1] == 88*) GOTO 0x0CD5
554: 0x0CCD [0x03] ExtData[1]->WorkLocal[13] = 3420*
555: 0x0CD2 [0x01] GOTO 0x0D95
556: 0x0CD5 [0x02] IF !(ExtData[1]->WorkLocal[1] == 89*) GOTO 0x0CE5
557: 0x0CDD [0x03] ExtData[1]->WorkLocal[13] = 0*
558: 0x0CE2 [0x01] GOTO 0x0D95
559: 0x0CE5 [0x02] IF !(ExtData[1]->WorkLocal[1] == 90*) GOTO 0x0CF5
560: 0x0CED [0x03] ExtData[1]->WorkLocal[13] = 0*
561: 0x0CF2 [0x01] GOTO 0x0D95
562: 0x0CF5 [0x02] IF !(ExtData[1]->WorkLocal[1] == 91*) GOTO 0x0D05
563: 0x0CFD [0x03] ExtData[1]->WorkLocal[13] = 3072*
564: 0x0D02 [0x01] GOTO 0x0D95
565: 0x0D05 [0x02] IF !(ExtData[1]->WorkLocal[1] == 171*) GOTO 0x0D15
566: 0x0D0D [0x03] ExtData[1]->WorkLocal[13] = 1536*
567: 0x0D12 [0x01] GOTO 0x0D95
568: 0x0D15 [0x02] IF !(ExtData[1]->WorkLocal[1] == 94*) GOTO 0x0D25
569: 0x0D1D [0x03] ExtData[1]->WorkLocal[13] = 1030*
570: 0x0D22 [0x01] GOTO 0x0D95
571: 0x0D25 [0x02] IF !(ExtData[1]->WorkLocal[1] == 95*) GOTO 0x0D35
572: 0x0D2D [0x03] ExtData[1]->WorkLocal[13] = 0*
573: 0x0D32 [0x01] GOTO 0x0D95
574: 0x0D35 [0x02] IF !(ExtData[1]->WorkLocal[1] == 96*) GOTO 0x0D45
575: 0x0D3D [0x03] ExtData[1]->WorkLocal[13] = 2048*
576: 0x0D42 [0x01] GOTO 0x0D95
577: 0x0D45 [0x02] IF !(ExtData[1]->WorkLocal[1] == 97*) GOTO 0x0D55
578: 0x0D4D [0x03] ExtData[1]->WorkLocal[13] = 0*
579: 0x0D52 [0x01] GOTO 0x0D95
580: 0x0D55 [0x02] IF !(ExtData[1]->WorkLocal[1] == 98*) GOTO 0x0D65
581: 0x0D5D [0x03] ExtData[1]->WorkLocal[13] = 2048*
582: 0x0D62 [0x01] GOTO 0x0D95
583: 0x0D65 [0x02] IF !(ExtData[1]->WorkLocal[1] == 164*) GOTO 0x0D75
584: 0x0D6D [0x03] ExtData[1]->WorkLocal[13] = 2028*
585: 0x0D72 [0x01] GOTO 0x0D95
586: 0x0D75 [0x02] IF !(ExtData[1]->WorkLocal[1] == 136*) GOTO 0x0D85
587: 0x0D7D [0x03] ExtData[1]->WorkLocal[13] = 0*
588: 0x0D82 [0x01] GOTO 0x0D95
589: 0x0D85 [0x02] IF !(ExtData[1]->WorkLocal[1] == 137*) GOTO 0x0D95
590: 0x0D8D [0x03] ExtData[1]->WorkLocal[13] = 2048*
591: 0x0D92 [0x01] GOTO 0x0D95

SUBROUTINE_0D95:
592: 0x0D95 [0x1B] RETURN

SUBROUTINE_0D96:
593: 0x0D96 [0x1A] CALL_SUBROUTINE(address=0x0C55)
594: 0x0D99 [0x03] ExtData[1]->WorkLocal[12] = 4095*
595: 0x0D9E [0x08] ExtData[1]->WorkLocal[12] -= ExtData[1]->WorkLocal[13]
596: 0x0DA3 [0x02] IF !(ExtData[1]->WorkLocal[12] >= 0*) GOTO 0x0DB3
597: 0x0DAB [0x07] ExtData[1]->WorkLocal[12] += 4095*
598: 0x0DB0 [0x01] GOTO 0x0DC0
599: 0x0DB3 [0x02] IF !(ExtData[1]->WorkLocal[12] < 4096*) GOTO 0x0DC0
600: 0x0DBB [0x08] ExtData[1]->WorkLocal[12] -= 4096*

SUBROUTINE_0DC0:
601: 0x0DC0 [0x1B] RETURN
```
