# 17109831 - Judith

## Common Data

| Field            | Value                      |
|------------------|----------------------------|
| Zone             | East Ronfaure [S] (ID: 81) |
| Block Size       | 480 bytes                  |
| Total Events     | 15                         |
| References Count | 16                         |

## List of Events

| Event ID                   | Entrypoint   |   Size |   Instructions |
|----------------------------|--------------|--------|----------------|
| [65535](#event-65535)      | 0x0000       |      1 |              1 |
| [65535.1](#event-655351)   | 0x0001       |      1 |              1 |
| [65535.2](#event-655352)   | 0x0002       |     18 |              4 |
| [65535.3](#event-655353)   | 0x0014       |     10 |              2 |
| [65535.4](#event-655354)   | 0x001E       |      9 |              3 |
| [65535.5](#event-655355)   | 0x0027       |      9 |              3 |
| [65535.6](#event-655356)   | 0x0030       |     10 |              2 |
| [65535.7](#event-655357)   | 0x003A       |     10 |              2 |
| [7](#event-7)              | 0x0044       |      4 |              2 |
| [65535.8](#event-655358)   | 0x0048       |     16 |              4 |
| [65535.9](#event-655359)   | 0x0058       |     37 |              5 |
| [65535.10](#event-6553510) | 0x007D       |    185 |             37 |
| [65535.11](#event-6553511) | 0x0136       |     25 |              6 |
| [16](#event-16)            | 0x014F       |      1 |              1 |
| [17](#event-17)            | 0x0150       |      1 |              1 |

## DAT References (imed_data)

|   Index | Hex Value   |   Dec Value |
|---------|-------------|-------------|
|       0 | 0x0000      |           0 |
|       1 | 0x0001      |           1 |
|       2 | 0x0080      |         128 |
|       3 | 0x0082      |         130 |
|       4 | 0x0021      |          33 |
|       5 | 0x0005      |           5 |
|       6 | 0x0002      |           2 |
|       7 | 0x000A      |          10 |
|       8 | 0x0009      |           9 |
|       9 | 0x0046      |          70 |
|      10 | 0x008C      |         140 |
|      11 | 0x00D2      |         210 |
|      12 | 0x000B      |          11 |
|      13 | 0x35A16     |      219670 |
|      14 | 0x2BB31     |      178993 |
|      15 | 0xFFFF3E9C  |  4294917788 |

## Events

### Event 65535

#### Metadata

| Field        | Value   |
|--------------|---------|
| Entrypoint   | 0x0000  |
| Data Size    | 1 bytes |
| Instructions | 1       |

```
      00 01 02 03 04 05 06 07  08 09 0A 0B 0C 0D 0E 0F
      -- -- -- -- -- -- -- --  -- -- -- -- -- -- -- --
0000: 00                                                .               
```

#### Opcodes

```
  0: 0x0000 [0x00] END_REQSTACK()
```

### Event 65535.1

#### Metadata

| Field        | Value   |
|--------------|---------|
| Entrypoint   | 0x0001  |
| Data Size    | 1 bytes |
| Instructions | 1       |

```
      00 01 02 03 04 05 06 07  08 09 0A 0B 0C 0D 0E 0F
      -- -- -- -- -- -- -- --  -- -- -- -- -- -- -- --
0000:    00                                              .              
```

#### Opcodes

```
  0: 0x0001 [0x00] END_REQSTACK()
```

### Event 65535.2

#### Metadata

| Field        | Value    |
|--------------|----------|
| Entrypoint   | 0x0002   |
| Data Size    | 18 bytes |
| Instructions | 4        |

```
      00 01 02 03 04 05 06 07  08 09 0A 0B 0C 0D 0E 0F
      -- -- -- -- -- -- -- --  -- -- -- -- -- -- -- --
0000:       22 00 2F 00 F8 FF  FF 7F 6C F8 FF FF 7F 00    "./.....l.....
0010: 80 01 80 00                                       ....            
```

#### Opcodes

```
  0: 0x0002 [0x22] ENTITY_HIDE_FLAG(enabled=0x00)
  1: 0x0004 [0x2F] EventEntity->Render.Flags0 &= ~0x80000 // Bit 19
  2: 0x000A [0x6C] FADE_ENTITY_COLOR(entity_id=EventEntity, end_alpha=0*, fade_time=1*)
  3: 0x0013 [0x00] END_REQSTACK()
```

### Event 65535.3

#### Metadata

| Field        | Value    |
|--------------|----------|
| Entrypoint   | 0x0014   |
| Data Size    | 10 bytes |
| Instructions | 2        |

```
      00 01 02 03 04 05 06 07  08 09 0A 0B 0C 0D 0E 0F
      -- -- -- -- -- -- -- --  -- -- -- -- -- -- -- --
0010:             6C F8 FF FF  7F 02 80 01 80 00            l.........  
```

#### Opcodes

```
  0: 0x0014 [0x6C] FADE_ENTITY_COLOR(entity_id=EventEntity, end_alpha=128*, fade_time=1*)
  1: 0x001D [0x00] END_REQSTACK()
```

### Event 65535.4

#### Metadata

| Field        | Value   |
|--------------|---------|
| Entrypoint   | 0x001E  |
| Data Size    | 9 bytes |
| Instructions | 3       |

```
      00 01 02 03 04 05 06 07  08 09 0A 0B 0C 0D 0E 0F
      -- -- -- -- -- -- -- --  -- -- -- -- -- -- -- --
0010:                                            22 00                ".
0020: 2F 00 F8 FF FF 7F 00                              /......         
```

#### Opcodes

```
  0: 0x001E [0x22] ENTITY_HIDE_FLAG(enabled=0x00)
  1: 0x0020 [0x2F] EventEntity->Render.Flags0 &= ~0x80000 // Bit 19
  2: 0x0026 [0x00] END_REQSTACK()
```

### Event 65535.5

#### Metadata

| Field        | Value   |
|--------------|---------|
| Entrypoint   | 0x0027  |
| Data Size    | 9 bytes |
| Instructions | 3       |

```
      00 01 02 03 04 05 06 07  08 09 0A 0B 0C 0D 0E 0F
      -- -- -- -- -- -- -- --  -- -- -- -- -- -- -- --
0020:                      22  01 2F 01 F8 FF FF 7F 00         "./......
```

#### Opcodes

```
  0: 0x0027 [0x22] ENTITY_HIDE_FLAG(enabled=0x01)
  1: 0x0029 [0x2F] EventEntity->Render.Flags0 |= 0x80000 // Bit 19
  2: 0x002F [0x00] END_REQSTACK()
```

### Event 65535.6

#### Metadata

| Field        | Value    |
|--------------|----------|
| Entrypoint   | 0x0030   |
| Data Size    | 10 bytes |
| Instructions | 2        |

```
      00 01 02 03 04 05 06 07  08 09 0A 0B 0C 0D 0E 0F
      -- -- -- -- -- -- -- --  -- -- -- -- -- -- -- --
0030: 6C F8 FF FF 7F 00 80 01  80 00                    l.........      
```

#### Opcodes

```
  0: 0x0030 [0x6C] FADE_ENTITY_COLOR(entity_id=EventEntity, end_alpha=0*, fade_time=1*)
  1: 0x0039 [0x00] END_REQSTACK()
```

### Event 65535.7

#### Metadata

| Field        | Value    |
|--------------|----------|
| Entrypoint   | 0x003A   |
| Data Size    | 10 bytes |
| Instructions | 2        |

```
      00 01 02 03 04 05 06 07  08 09 0A 0B 0C 0D 0E 0F
      -- -- -- -- -- -- -- --  -- -- -- -- -- -- -- --
0030:                                6C F8 FF FF 7F 02            l.....
0040: 80 01 80 00                                       ....            
```

#### Opcodes

```
  0: 0x003A [0x6C] FADE_ENTITY_COLOR(entity_id=EventEntity, end_alpha=128*, fade_time=1*)
  1: 0x0043 [0x00] END_REQSTACK()
```

### Event 7

#### Metadata

| Field        | Value   |
|--------------|---------|
| Entrypoint   | 0x0044  |
| Data Size    | 4 bytes |
| Instructions | 2       |

```
      00 01 02 03 04 05 06 07  08 09 0A 0B 0C 0D 0E 0F
      -- -- -- -- -- -- -- --  -- -- -- -- -- -- -- --
0040:             C0 01 80 00                               ....        
```

#### Opcodes

```
  0: 0x0044 [0xC0] EventEntity->Render.Flags3 |= 0x1000 // Set bit 12 (from 1*)
  1: 0x0047 [0x00] END_REQSTACK()
```

### Event 65535.8

#### Metadata

| Field        | Value    |
|--------------|----------|
| Entrypoint   | 0x0048   |
| Data Size    | 16 bytes |
| Instructions | 4        |

```
      00 01 02 03 04 05 06 07  08 09 0A 0B 0C 0D 0E 0F
      -- -- -- -- -- -- -- --  -- -- -- -- -- -- -- --
0040:                          1C 03 80 6E F8 FF FF 7F          ...n....
0050: 04 80 99 F8 FF FF 7F 00                           ........        
```

#### Opcodes

```
  0: 0x0048 [0x1C] WAIT(130* ticks)
  1: 0x004B [0x6E] EventEntity uses emote 33*
  2: 0x0052 [0x99] Wait for EventEntity animation to complete
  3: 0x0057 [0x00] END_REQSTACK()
```

### Event 65535.9

#### Metadata

| Field        | Value    |
|--------------|----------|
| Entrypoint   | 0x0058   |
| Data Size    | 37 bytes |
| Instructions | 5        |

```
      00 01 02 03 04 05 06 07  08 09 0A 0B 0C 0D 0E 0F
      -- -- -- -- -- -- -- --  -- -- -- -- -- -- -- --
0050:                          03 00 00 07 7F 1A A2 00          ........
0060: 66 01 00 F8 FF FF 7F F8  FF FF 7F 73 68 61 30 53  f..........sha0S
0070: F8 FF FF 7F F8 FF FF 7F  73 68 61 30 00           ........sha0.   
```

#### Opcodes

```
  0: 0x0058 [0x03] ExtData[1]->WorkLocal[0] = Entity->Race
  1: 0x005D [0x1A] CALL_SUBROUTINE(address=0x00A2)
  2: 0x0060 [0x66] LOAD_EXT_SCHEDULER_MAIN: Load scheduler "sha0" with entities [EventEntity, EventEntity], work=ExtData[1]->WorkLocal[1]
  3: 0x006F [0x53] WAIT_SCHEDULER_TASK: Wait for scheduler "sha0" with entities [EventEntity, EventEntity]
  4: 0x007C [0x00] END_REQSTACK()
```

### Event 65535.10

#### Metadata

| Field        | Value     |
|--------------|-----------|
| Entrypoint   | 0x007D    |
| Data Size    | 185 bytes |
| Instructions | 13        |

```
      00 01 02 03 04 05 06 07  08 09 0A 0B 0C 0D 0E 0F
      -- -- -- -- -- -- -- --  -- -- -- -- -- -- -- --
0070:                                         03 00 00               ...
0080: 07 7F 1A A2 00 66 01 00  F8 FF FF 7F F8 FF FF 7F  .....f..........
0090: 73 68 65 31 53 F8 FF FF  7F F8 FF FF 7F 73 68 65  she1S........she
00A0: 31 00 03 01 00 00 00 02  01 00 05 80 05 B7 00 08  1...............
00B0: 01 00 01 80 01 BC 00 08  01 00 06 80 14 01 00 07  ................
00C0: 80 07 01 00 08 80 1B 03  01 00 00 00 02 01 00 05  ................
00D0: 80 05 DC 00 08 01 00 01  80 01 E1 00 08 01 00 06  ................
00E0: 80 14 01 00 07 80 07 01  00 09 80 1B 03 01 00 00  ................
00F0: 00 02 01 00 05 80 05 01  01 08 01 00 01 80 01 06  ................
0100: 01 08 01 00 06 80 14 01  00 07 80 07 01 00 0A 80  ................
0110: 1B 03 01 00 00 00 02 01  00 05 80 05 26 01 08 01  ............&...
0120: 00 01 80 01 2B 01 08 01  00 06 80 14 01 00 07 80  ....+...........
0130: 07 01 00 0B 80 1B                                 ......          
```

#### Opcodes

```
  0: 0x007D [0x03] ExtData[1]->WorkLocal[0] = Entity->Race
  1: 0x0082 [0x1A] CALL_SUBROUTINE(address=0x00A2)
  2: 0x0085 [0x66] LOAD_EXT_SCHEDULER_MAIN: Load scheduler "she1" with entities [EventEntity, EventEntity], work=ExtData[1]->WorkLocal[1]
  3: 0x0094 [0x53] WAIT_SCHEDULER_TASK: Wait for scheduler "she1" with entities [EventEntity, EventEntity]
  4: 0x00A1 [0x00] END_REQSTACK()

SUBROUTINE_00A2:
  5: 0x00A2 [0x03] ExtData[1]->WorkLocal[1] = ExtData[1]->WorkLocal[0]
  6: 0x00A7 [0x02] IF !(ExtData[1]->WorkLocal[1] > 5*) GOTO 0x00B7
  7: 0x00AF [0x08] ExtData[1]->WorkLocal[1] -= 1*
  8: 0x00B4 [0x01] GOTO 0x00BC
  9: 0x00B7 [0x08] ExtData[1]->WorkLocal[1] -= 2*

SUBROUTINE_00BC:
 10: 0x00BC [0x14] ExtData[1]->WorkLocal[1] *= 10*
 11: 0x00C1 [0x07] ExtData[1]->WorkLocal[1] += 9*
 12: 0x00C6 [0x1B] RETURN
```

#### Data or dead code:

```
# Dead code (unreachable instructions):
     0x00C7 [0x03] ExtData[1]->WorkLocal[1] = ExtData[1]->WorkLocal[0]
     0x00CC [0x02] IF !(ExtData[1]->WorkLocal[1] > 5*) GOTO 0x00DC
     0x00D4 [0x08] ExtData[1]->WorkLocal[1] -= 1*
     0x00D9 [0x01] GOTO 0x00E1
     0x00DC [0x08] ExtData[1]->WorkLocal[1] -= 2*
     0x00E1 [0x14] ExtData[1]->WorkLocal[1] *= 10*
     0x00E6 [0x07] ExtData[1]->WorkLocal[1] += 70*
     0x00EB [0x1B] RETURN
     0x00EC [0x03] ExtData[1]->WorkLocal[1] = ExtData[1]->WorkLocal[0]
     0x00F1 [0x02] IF !(ExtData[1]->WorkLocal[1] > 5*) GOTO 0x0101
     0x00F9 [0x08] ExtData[1]->WorkLocal[1] -= 1*
     0x00FE [0x01] GOTO 0x0106
     0x0101 [0x08] ExtData[1]->WorkLocal[1] -= 2*
     0x0106 [0x14] ExtData[1]->WorkLocal[1] *= 10*
     0x010B [0x07] ExtData[1]->WorkLocal[1] += 140*
     0x0110 [0x1B] RETURN
     0x0111 [0x03] ExtData[1]->WorkLocal[1] = ExtData[1]->WorkLocal[0]
     0x0116 [0x02] IF !(ExtData[1]->WorkLocal[1] > 5*) GOTO 0x0126
     0x011E [0x08] ExtData[1]->WorkLocal[1] -= 1*
     0x0123 [0x01] GOTO 0x012B
     0x0126 [0x08] ExtData[1]->WorkLocal[1] -= 2*
     0x012B [0x14] ExtData[1]->WorkLocal[1] *= 10*
     0x0130 [0x07] ExtData[1]->WorkLocal[1] += 210*
     0x0135 [0x1B] RETURN
```

### Event 65535.11

#### Metadata

| Field        | Value    |
|--------------|----------|
| Entrypoint   | 0x0136   |
| Data Size    | 25 bytes |
| Instructions | 6        |

```
      00 01 02 03 04 05 06 07  08 09 0A 0B 0C 0D 0E 0F
      -- -- -- -- -- -- -- --  -- -- -- -- -- -- -- --
0130:                   79 00  F8 FF FF 7F 44 13 05 01        y.....D...
0140: 32 0C 80 1F 00 0D 80 0E  80 0F 80 1F 01 6F 00     2............o. 
```

#### Opcodes

```
  0: 0x0136 [0x79] EventEntity looks at Cait Sith (ID: 17109828/0x01051344) (Basic look)
  1: 0x0140 [0x32] ExtData[1]->MainSpeed = 11* * 0.1
  2: 0x0143 [0x1F] MOVE_ENTITY: EventEntity moves to X=219.670*, Z=178.993*, Y=-49.508*
  3: 0x014B [0x1F] MOVE_ENTITY: Update entity position (mode=1)
  4: 0x014D [0x6F] WAIT_FRAME_DELAY: Yield until WaitTime reaches zero
  5: 0x014E [0x00] END_REQSTACK()
```

### Event 16

#### Metadata

| Field        | Value   |
|--------------|---------|
| Entrypoint   | 0x014F  |
| Data Size    | 1 bytes |
| Instructions | 1       |

```
      00 01 02 03 04 05 06 07  08 09 0A 0B 0C 0D 0E 0F
      -- -- -- -- -- -- -- --  -- -- -- -- -- -- -- --
0140:                                               00                 .
```

#### Opcodes

```
  0: 0x014F [0x00] END_REQSTACK()
```

### Event 17

#### Metadata

| Field        | Value   |
|--------------|---------|
| Entrypoint   | 0x0150  |
| Data Size    | 1 bytes |
| Instructions | 1       |

```
      00 01 02 03 04 05 06 07  08 09 0A 0B 0C 0D 0E 0F
      -- -- -- -- -- -- -- --  -- -- -- -- -- -- -- --
0150: 00                                                .               
```

#### Opcodes

```
  0: 0x0150 [0x00] END_REQSTACK()
```
