# 0x7FFFFFF0 - Zone Events

## Common Data

| Field            | Value                      |
|------------------|----------------------------|
| Zone             | East Ronfaure [S] (ID: 81) |
| Block Size       | 2528 bytes                 |
| Total Events     | 32                         |
| References Count | 98                         |

## List of Events

| Event ID                   | Entrypoint   |   Size |   Instructions |
|----------------------------|--------------|--------|----------------|
| [65535](#event-65535)      | 0x0000       |      1 |              1 |
| [65534](#event-65534)      | 0x0001       |      1 |              1 |
| [65535.1](#event-655351)   | 0x0002       |     37 |              5 |
| [65535.2](#event-655352)   | 0x0027       |     37 |              5 |
| [65535.3](#event-655353)   | 0x004C       |     37 |              5 |
| [65535.4](#event-655354)   | 0x0071       |    185 |             37 |
| [65535.5](#event-655355)   | 0x012A       |     15 |              5 |
| [65535.6](#event-655356)   | 0x0139       |     20 |              6 |
| [65535.7](#event-655357)   | 0x014D       |     28 |              8 |
| [65535.8](#event-655358)   | 0x0169       |     18 |              6 |
| [65535.9](#event-655359)   | 0x017B       |     18 |              6 |
| [65535.10](#event-6553510) | 0x018D       |     34 |              8 |
| [65535.11](#event-6553511) | 0x01AF       |      4 |              2 |
| [65535.12](#event-6553512) | 0x01B3       |     28 |              6 |
| [65535.13](#event-6553513) | 0x01CF       |     40 |              6 |
| [65535.14](#event-6553514) | 0x01F7       |     10 |              2 |
| [65535.15](#event-6553515) | 0x0201       |     10 |              2 |
| [65535.16](#event-6553516) | 0x020B       |     14 |              4 |
| [65535.17](#event-6553517) | 0x0219       |     38 |              5 |
| [65535.18](#event-6553518) | 0x023F       |     38 |              5 |
| [65535.19](#event-6553519) | 0x0265       |     38 |              5 |
| [65535.20](#event-6553520) | 0x028B       |     14 |              4 |
| [65535.21](#event-6553521) | 0x0299       |     40 |             10 |
| [65535.22](#event-6553522) | 0x02C1       |     10 |              2 |
| [65535.23](#event-6553523) | 0x02CB       |     16 |              3 |
| [65535.24](#event-6553524) | 0x02DB       |     16 |              3 |
| [65535.25](#event-6553525) | 0x02EB       |     41 |              5 |
| [65535.26](#event-6553526) | 0x0314       |      6 |              2 |
| [65535.27](#event-6553527) | 0x031A       |      6 |              2 |
| [201](#event-201)          | 0x0320       |    102 |             15 |
| [264](#event-264)          | 0x0386       |     29 |              7 |
| [265](#event-265)          | 0x03A3       |   1061 |            204 |

## DAT References (imed_data)

|   Index | Hex Value   |   Dec Value |
|---------|-------------|-------------|
|       0 | 0x0005      |           5 |
|       1 | 0x0001      |           1 |
|       2 | 0x0002      |           2 |
|       3 | 0x000A      |          10 |
|       4 | 0x0009      |           9 |
|       5 | 0x0046      |          70 |
|       6 | 0x008C      |         140 |
|       7 | 0x00D2      |         210 |
|       8 | 0x0026      |          38 |
|       9 | 0x1951E     |      103710 |
|      10 | 0x3EB24     |      256804 |
|      11 | 0xFFFF15EA  |  4294907370 |
|      12 | 0x0028      |          40 |
|      13 | 0x1BAB9     |      113337 |
|      14 | 0x3A7D4     |      239572 |
|      15 | 0xFFFF16E7  |  4294907623 |
|      16 | 0x0025      |          37 |
|      17 | 0x35E09     |      220681 |
|      18 | 0x2D8A9     |      186537 |
|      19 | 0xFFFF3C4D  |  4294917197 |
|      20 | 0x000D      |          13 |
|      21 | 0x360D3     |      221395 |
|      22 | 0x2CA9C     |      182940 |
|      23 | 0xFFFF3DE1  |  4294917601 |
|      24 | 0x001E      |          30 |
|      25 | 0x000B      |          11 |
|      26 | 0x35BFC     |      220156 |
|      27 | 0x2C28E     |      180878 |
|      28 | 0xFFFF3E06  |  4294917638 |
|      29 | 0x002D      |          45 |
|      30 | 0x35F8B     |      221067 |
|      31 | 0x2BF1C     |      179996 |
|      32 | 0xFFFF3E41  |  4294917697 |
|      33 | 0x2585A     |      153690 |
|      34 | 0x352D8     |      217816 |
|      35 | 0xFFFF23DB  |  4294910939 |
|      36 | 0x086C      |        2156 |
|      37 | 0x1FC8A     |      130186 |
|      38 | 0x357EF     |      219119 |
|      39 | 0xFFFF1A70  |  4294908528 |
|      40 | 0x0064      |         100 |
|      41 | 0x003C      |          60 |
|      42 | 0x0015      |          21 |
|      43 | 0x0078      |         120 |
|      44 | 0x0000      |           0 |
|      45 | 0x0080      |         128 |
|      46 | 0x35FB0     |      221104 |
|      47 | 0x2B3D5     |      177109 |
|      48 | 0xFFFF3F66  |  4294917990 |
|      49 | 0x0008      |           8 |
|      50 | 0x0091      |         145 |
|      51 | 0x004F      |          79 |
|      52 | 0x004C      |          76 |
|      53 | 0x00C9      |         201 |
|      54 | 0x0106      |         262 |
|      55 | 0x0040      |          64 |
|      56 | 0x0004      |           4 |
|      57 | 0x0018      |          24 |
|      58 | 0x0050      |          80 |
|      59 | 0x0060      |          96 |
|      60 | 0x19796     |      104342 |
|      61 | 0x3E944     |      256324 |
|      62 | 0xFFFF15FE  |  4294907390 |
|      63 | 0x0023      |          35 |
|      64 | 0x3E144     |      254276 |
|      65 | 0x34533     |      214323 |
|      66 | 0xFFFF4FD7  |  4294922199 |
|      67 | 0x3CD58     |      249176 |
|      68 | 0x354A3     |      218275 |
|      69 | 0xFFFF4FAE  |  4294922158 |
|      70 | 0x3C9C9     |      248265 |
|      71 | 0x35795     |      219029 |
|      72 | 0xFFFF4F61  |  4294922081 |
|      73 | 0x0056      |          86 |
|      74 | 0x4EA02     |      322050 |
|      75 | 0x7B52B     |      505131 |
|      76 | 0xFFFF1615  |  4294907413 |
|      77 | 0x0C00      |        3072 |
|      78 | 0x0094      |         148 |
|      79 | 0x00F0      |         240 |
|      80 | 0x00C8      |         200 |
|      81 | 0x1DF0      |        7664 |
|      82 | 0x005A      |          90 |
|      83 | 0x1ED0      |        7888 |
|      84 | 0x00EA      |         234 |
|      85 | 0x0003      |           3 |
|      86 | 0x0013      |          19 |
|      87 | 0x0090      |         144 |
|      88 | 0x00B4      |         180 |
|      89 | 0x1C1D      |        7197 |
|      90 | 0x1C1E      |        7198 |
|      91 | 0x1C20      |        7200 |
|      92 | 0x1C21      |        7201 |
|      93 | 0x1C22      |        7202 |
|      94 | 0x1C23      |        7203 |
|      95 | 0x0102      |         258 |
|      96 | 0x0202      |         514 |
|      97 | 0x0156      |         342 |

## String References

- **7664**: The order has been given by your party leader to enter [Everbloom Hollow/the Ruhotz Silvermines/Ghoyu's Reverie].
- **7888**: The sandworm swallows you whole!

## Events

### Event 65535

#### Metadata

| Field        | Value   |
|--------------|---------|
| Entrypoint   | 0x0000  |
| Data Size    | 1 bytes |
| Instructions | 1       |

```
      00 01 02 03 04 05 06 07  08 09 0A 0B 0C 0D 0E 0F
      -- -- -- -- -- -- -- --  -- -- -- -- -- -- -- --
0000: 00                                                .               
```

#### Opcodes

```
  0: 0x0000 [0x00] END_REQSTACK()
```

### Event 65534

#### Metadata

| Field        | Value   |
|--------------|---------|
| Entrypoint   | 0x0001  |
| Data Size    | 1 bytes |
| Instructions | 1       |

```
      00 01 02 03 04 05 06 07  08 09 0A 0B 0C 0D 0E 0F
      -- -- -- -- -- -- -- --  -- -- -- -- -- -- -- --
0000:    00                                              .              
```

#### Opcodes

```
  0: 0x0001 [0x00] END_REQSTACK()
```

### Event 65535.1

#### Metadata

| Field        | Value    |
|--------------|----------|
| Entrypoint   | 0x0002   |
| Data Size    | 37 bytes |
| Instructions | 5        |

```
      00 01 02 03 04 05 06 07  08 09 0A 0B 0C 0D 0E 0F
      -- -- -- -- -- -- -- --  -- -- -- -- -- -- -- --
0000:       03 00 00 07 7F 1A  96 00 66 01 00 F8 FF FF    ........f.....
0010: 7F F8 FF FF 7F 73 68 61  30 53 F8 FF FF 7F F8 FF  .....sha0S......
0020: FF 7F 73 68 61 30 00                              ..sha0.         
```

#### Opcodes

```
  0: 0x0002 [0x03] ExtData[1]->WorkLocal[0] = Entity->Race
  1: 0x0007 [0x1A] CALL_SUBROUTINE(address=0x0096)
  2: 0x000A [0x66] LOAD_EXT_SCHEDULER_MAIN: Load scheduler "sha0" with entities [EventEntity, EventEntity], work=ExtData[1]->WorkLocal[1]
  3: 0x0019 [0x53] WAIT_SCHEDULER_TASK: Wait for scheduler "sha0" with entities [EventEntity, EventEntity]
  4: 0x0026 [0x00] END_REQSTACK()
```

### Event 65535.2

#### Metadata

| Field        | Value    |
|--------------|----------|
| Entrypoint   | 0x0027   |
| Data Size    | 37 bytes |
| Instructions | 5        |

```
      00 01 02 03 04 05 06 07  08 09 0A 0B 0C 0D 0E 0F
      -- -- -- -- -- -- -- --  -- -- -- -- -- -- -- --
0020:                      03  00 00 07 7F 1A 96 00 66         ........f
0030: 01 00 F8 FF FF 7F F8 FF  FF 7F 73 68 61 31 53 F8  ..........sha1S.
0040: FF FF 7F F8 FF FF 7F 73  68 61 31 00              .......sha1.    
```

#### Opcodes

```
  0: 0x0027 [0x03] ExtData[1]->WorkLocal[0] = Entity->Race
  1: 0x002C [0x1A] CALL_SUBROUTINE(address=0x0096)
  2: 0x002F [0x66] LOAD_EXT_SCHEDULER_MAIN: Load scheduler "sha1" with entities [EventEntity, EventEntity], work=ExtData[1]->WorkLocal[1]
  3: 0x003E [0x53] WAIT_SCHEDULER_TASK: Wait for scheduler "sha1" with entities [EventEntity, EventEntity]
  4: 0x004B [0x00] END_REQSTACK()
```

### Event 65535.3

#### Metadata

| Field        | Value    |
|--------------|----------|
| Entrypoint   | 0x004C   |
| Data Size    | 37 bytes |
| Instructions | 5        |

```
      00 01 02 03 04 05 06 07  08 09 0A 0B 0C 0D 0E 0F
      -- -- -- -- -- -- -- --  -- -- -- -- -- -- -- --
0040:                                      03 00 00 07              ....
0050: 7F 1A 96 00 66 01 00 F8  FF FF 7F F8 FF FF 7F 74  ....f..........t
0060: 6C 6B 30 53 F8 FF FF 7F  F8 FF FF 7F 74 6C 6B 30  lk0S........tlk0
0070: 00                                                .               
```

#### Opcodes

```
  0: 0x004C [0x03] ExtData[1]->WorkLocal[0] = Entity->Race
  1: 0x0051 [0x1A] CALL_SUBROUTINE(address=0x0096)
  2: 0x0054 [0x66] LOAD_EXT_SCHEDULER_MAIN: Load scheduler "tlk0" with entities [EventEntity, EventEntity], work=ExtData[1]->WorkLocal[1]
  3: 0x0063 [0x53] WAIT_SCHEDULER_TASK: Wait for scheduler "tlk0" with entities [EventEntity, EventEntity]
  4: 0x0070 [0x00] END_REQSTACK()
```

### Event 65535.4

#### Metadata

| Field        | Value     |
|--------------|-----------|
| Entrypoint   | 0x0071    |
| Data Size    | 185 bytes |
| Instructions | 13        |

```
      00 01 02 03 04 05 06 07  08 09 0A 0B 0C 0D 0E 0F
      -- -- -- -- -- -- -- --  -- -- -- -- -- -- -- --
0070:    03 00 00 07 7F 1A 96  00 66 01 00 F8 FF FF 7F   ........f......
0080: F8 FF FF 7F 74 6C 6B 31  53 F8 FF FF 7F F8 FF FF  ....tlk1S.......
0090: 7F 74 6C 6B 31 00 03 01  00 00 00 02 01 00 00 80  .tlk1...........
00A0: 05 AB 00 08 01 00 01 80  01 B0 00 08 01 00 02 80  ................
00B0: 14 01 00 03 80 07 01 00  04 80 1B 03 01 00 00 00  ................
00C0: 02 01 00 00 80 05 D0 00  08 01 00 01 80 01 D5 00  ................
00D0: 08 01 00 02 80 14 01 00  03 80 07 01 00 05 80 1B  ................
00E0: 03 01 00 00 00 02 01 00  00 80 05 F5 00 08 01 00  ................
00F0: 01 80 01 FA 00 08 01 00  02 80 14 01 00 03 80 07  ................
0100: 01 00 06 80 1B 03 01 00  00 00 02 01 00 00 80 05  ................
0110: 1A 01 08 01 00 01 80 01  1F 01 08 01 00 02 80 14  ................
0120: 01 00 03 80 07 01 00 07  80 1B                    ..........      
```

#### Opcodes

```
  0: 0x0071 [0x03] ExtData[1]->WorkLocal[0] = Entity->Race
  1: 0x0076 [0x1A] CALL_SUBROUTINE(address=0x0096)
  2: 0x0079 [0x66] LOAD_EXT_SCHEDULER_MAIN: Load scheduler "tlk1" with entities [EventEntity, EventEntity], work=ExtData[1]->WorkLocal[1]
  3: 0x0088 [0x53] WAIT_SCHEDULER_TASK: Wait for scheduler "tlk1" with entities [EventEntity, EventEntity]
  4: 0x0095 [0x00] END_REQSTACK()

SUBROUTINE_0096:
  5: 0x0096 [0x03] ExtData[1]->WorkLocal[1] = ExtData[1]->WorkLocal[0]
  6: 0x009B [0x02] IF !(ExtData[1]->WorkLocal[1] > 5*) GOTO 0x00AB
  7: 0x00A3 [0x08] ExtData[1]->WorkLocal[1] -= 1*
  8: 0x00A8 [0x01] GOTO 0x00B0
  9: 0x00AB [0x08] ExtData[1]->WorkLocal[1] -= 2*

SUBROUTINE_00B0:
 10: 0x00B0 [0x14] ExtData[1]->WorkLocal[1] *= 10*
 11: 0x00B5 [0x07] ExtData[1]->WorkLocal[1] += 9*
 12: 0x00BA [0x1B] RETURN
```

#### Data or dead code:

```
# Dead code (unreachable instructions):
     0x00BB [0x03] ExtData[1]->WorkLocal[1] = ExtData[1]->WorkLocal[0]
     0x00C0 [0x02] IF !(ExtData[1]->WorkLocal[1] > 5*) GOTO 0x00D0
     0x00C8 [0x08] ExtData[1]->WorkLocal[1] -= 1*
     0x00CD [0x01] GOTO 0x00D5
     0x00D0 [0x08] ExtData[1]->WorkLocal[1] -= 2*
     0x00D5 [0x14] ExtData[1]->WorkLocal[1] *= 10*
     0x00DA [0x07] ExtData[1]->WorkLocal[1] += 70*
     0x00DF [0x1B] RETURN
     0x00E0 [0x03] ExtData[1]->WorkLocal[1] = ExtData[1]->WorkLocal[0]
     0x00E5 [0x02] IF !(ExtData[1]->WorkLocal[1] > 5*) GOTO 0x00F5
     0x00ED [0x08] ExtData[1]->WorkLocal[1] -= 1*
     0x00F2 [0x01] GOTO 0x00FA
     0x00F5 [0x08] ExtData[1]->WorkLocal[1] -= 2*
     0x00FA [0x14] ExtData[1]->WorkLocal[1] *= 10*
     0x00FF [0x07] ExtData[1]->WorkLocal[1] += 140*
     0x0104 [0x1B] RETURN
     0x0105 [0x03] ExtData[1]->WorkLocal[1] = ExtData[1]->WorkLocal[0]
     0x010A [0x02] IF !(ExtData[1]->WorkLocal[1] > 5*) GOTO 0x011A
     0x0112 [0x08] ExtData[1]->WorkLocal[1] -= 1*
     0x0117 [0x01] GOTO 0x011F
     0x011A [0x08] ExtData[1]->WorkLocal[1] -= 2*
     0x011F [0x14] ExtData[1]->WorkLocal[1] *= 10*
     0x0124 [0x07] ExtData[1]->WorkLocal[1] += 210*
     0x0129 [0x1B] RETURN
```

### Event 65535.5

#### Metadata

| Field        | Value    |
|--------------|----------|
| Entrypoint   | 0x012A   |
| Data Size    | 15 bytes |
| Instructions | 5        |

```
      00 01 02 03 04 05 06 07  08 09 0A 0B 0C 0D 0E 0F
      -- -- -- -- -- -- -- --  -- -- -- -- -- -- -- --
0120:                                32 08 80 1F 00 09            2.....
0130: 80 0A 80 0B 80 1F 01 6F  00                       .......o.       
```

#### Opcodes

```
  0: 0x012A [0x32] ExtData[1]->MainSpeed = 38* * 0.1
  1: 0x012D [0x1F] MOVE_ENTITY: EventEntity moves to X=103.710*, Z=256.804*, Y=-59.926*
  2: 0x0135 [0x1F] MOVE_ENTITY: Update entity position (mode=1)
  3: 0x0137 [0x6F] WAIT_FRAME_DELAY: Yield until WaitTime reaches zero
  4: 0x0138 [0x00] END_REQSTACK()
```

### Event 65535.6

#### Metadata

| Field        | Value    |
|--------------|----------|
| Entrypoint   | 0x0139   |
| Data Size    | 20 bytes |
| Instructions | 6        |

```
      00 01 02 03 04 05 06 07  08 09 0A 0B 0C 0D 0E 0F
      -- -- -- -- -- -- -- --  -- -- -- -- -- -- -- --
0130:                             7B F8 FF FF 7F 32 0C           {....2.
0140: 80 1F 00 0D 80 0E 80 0F  80 1F 01 6F 00           ...........o.   
```

#### Opcodes

```
  0: 0x0139 [0x7B] EventEntity stops talking
  1: 0x013E [0x32] ExtData[1]->MainSpeed = 40* * 0.1
  2: 0x0141 [0x1F] MOVE_ENTITY: EventEntity moves to X=113.337*, Z=239.572*, Y=-59.673*
  3: 0x0149 [0x1F] MOVE_ENTITY: Update entity position (mode=1)
  4: 0x014B [0x6F] WAIT_FRAME_DELAY: Yield until WaitTime reaches zero
  5: 0x014C [0x00] END_REQSTACK()
```

### Event 65535.7

#### Metadata

| Field        | Value    |
|--------------|----------|
| Entrypoint   | 0x014D   |
| Data Size    | 28 bytes |
| Instructions | 8        |

```
      00 01 02 03 04 05 06 07  08 09 0A 0B 0C 0D 0E 0F
      -- -- -- -- -- -- -- --  -- -- -- -- -- -- -- --
0140:                                         32 10 80               2..
0150: 1F 00 11 80 12 80 13 80  1F 01 32 14 80 1F 00 15  ..........2.....
0160: 80 16 80 17 80 1F 01 6F  00                       .......o.       
```

#### Opcodes

```
  0: 0x014D [0x32] ExtData[1]->MainSpeed = 37* * 0.1
  1: 0x0150 [0x1F] MOVE_ENTITY: EventEntity moves to X=220.681*, Z=186.537*, Y=-50.099*
  2: 0x0158 [0x1F] MOVE_ENTITY: Update entity position (mode=1)
  3: 0x015A [0x32] ExtData[1]->MainSpeed = 13* * 0.1
  4: 0x015D [0x1F] MOVE_ENTITY: EventEntity moves to X=221.395*, Z=182.940*, Y=-49.695*
  5: 0x0165 [0x1F] MOVE_ENTITY: Update entity position (mode=1)
  6: 0x0167 [0x6F] WAIT_FRAME_DELAY: Yield until WaitTime reaches zero
  7: 0x0168 [0x00] END_REQSTACK()
```

### Event 65535.8

#### Metadata

| Field        | Value    |
|--------------|----------|
| Entrypoint   | 0x0169   |
| Data Size    | 18 bytes |
| Instructions | 6        |

```
      00 01 02 03 04 05 06 07  08 09 0A 0B 0C 0D 0E 0F
      -- -- -- -- -- -- -- --  -- -- -- -- -- -- -- --
0160:                             1C 18 80 32 19 80 1F           ...2...
0170: 00 1A 80 1B 80 1C 80 1F  01 6F 00                 .........o.     
```

#### Opcodes

```
  0: 0x0169 [0x1C] WAIT(30* ticks)
  1: 0x016C [0x32] ExtData[1]->MainSpeed = 11* * 0.1
  2: 0x016F [0x1F] MOVE_ENTITY: EventEntity moves to X=220.156*, Z=180.878*, Y=-49.658*
  3: 0x0177 [0x1F] MOVE_ENTITY: Update entity position (mode=1)
  4: 0x0179 [0x6F] WAIT_FRAME_DELAY: Yield until WaitTime reaches zero
  5: 0x017A [0x00] END_REQSTACK()
```

### Event 65535.9

#### Metadata

| Field        | Value    |
|--------------|----------|
| Entrypoint   | 0x017B   |
| Data Size    | 18 bytes |
| Instructions | 6        |

```
      00 01 02 03 04 05 06 07  08 09 0A 0B 0C 0D 0E 0F
      -- -- -- -- -- -- -- --  -- -- -- -- -- -- -- --
0170:                                   1C 1D 80 32 03             ...2.
0180: 80 1F 00 1E 80 1F 80 20  80 1F 01 6F 00           ....... ...o.   
```

#### Opcodes

```
  0: 0x017B [0x1C] WAIT(45* ticks)
  1: 0x017E [0x32] ExtData[1]->MainSpeed = 10* * 0.1
  2: 0x0181 [0x1F] MOVE_ENTITY: EventEntity moves to X=221.067*, Z=179.996*, Y=-49.599*
  3: 0x0189 [0x1F] MOVE_ENTITY: Update entity position (mode=1)
  4: 0x018B [0x6F] WAIT_FRAME_DELAY: Yield until WaitTime reaches zero
  5: 0x018C [0x00] END_REQSTACK()
```

### Event 65535.10

#### Metadata

| Field        | Value    |
|--------------|----------|
| Entrypoint   | 0x018D   |
| Data Size    | 34 bytes |
| Instructions | 8        |

```
      00 01 02 03 04 05 06 07  08 09 0A 0B 0C 0D 0E 0F
      -- -- -- -- -- -- -- --  -- -- -- -- -- -- -- --
0180:                                         37 21 80               7!.
0190: 22 80 23 80 24 80 32 0C  80 1F 00 25 80 26 80 27  ".#.$.2....%.&.'
01A0: 80 1F 01 6F 1E 48 13 05  01 7B F8 FF FF 7F 00     ...o.H...{..... 
```

#### Opcodes

```
  0: 0x018D [0x37] UPDATE_EVENT_POSITION_AND_DIR: x=153.690*, z=217.816*, y=-56.357*, direction=189.5°*
  1: 0x0196 [0x32] ExtData[1]->MainSpeed = 40* * 0.1
  2: 0x0199 [0x1F] MOVE_ENTITY: EventEntity moves to X=130.186*, Z=219.119*, Y=-58.768*
  3: 0x01A1 [0x1F] MOVE_ENTITY: Update entity position (mode=1)
  4: 0x01A3 [0x6F] WAIT_FRAME_DELAY: Yield until WaitTime reaches zero
  5: 0x01A4 [0x1E] EventEntity looks at Portia (ID: 17109832/0x01051348) and starts talking
  6: 0x01A9 [0x7B] EventEntity stops talking
  7: 0x01AE [0x00] END_REQSTACK()
```

### Event 65535.11

#### Metadata

| Field        | Value   |
|--------------|---------|
| Entrypoint   | 0x01AF  |
| Data Size    | 4 bytes |
| Instructions | 2       |

```
      00 01 02 03 04 05 06 07  08 09 0A 0B 0C 0D 0E 0F
      -- -- -- -- -- -- -- --  -- -- -- -- -- -- -- --
01A0:                                               39                 9
01B0: 28 80 00                                          (..             
```

#### Opcodes

```
  0: 0x01AF [0x39] SET_ENTITY_DIRECTION(direction=0.5°*)
  1: 0x01B2 [0x00] END_REQSTACK()
```

### Event 65535.12

#### Metadata

| Field        | Value    |
|--------------|----------|
| Entrypoint   | 0x01B3   |
| Data Size    | 28 bytes |
| Instructions | 6        |

```
      00 01 02 03 04 05 06 07  08 09 0A 0B 0C 0D 0E 0F
      -- -- -- -- -- -- -- --  -- -- -- -- -- -- -- --
01B0:          1C 03 80 4A F0  FF FF 7F 42 13 05 01 1C     ...J....B....
01C0: 29 80 6E F8 FF FF 7F 2A  80 99 F8 FF FF 7F 00     ).n....*....... 
```

#### Opcodes

```
  0: 0x01B3 [0x1C] WAIT(10* ticks)
  1: 0x01B6 [0x4A] LocalPlayer looks at Lilisette (ID: 17109826/0x01051342)
  2: 0x01BF [0x1C] WAIT(60* ticks)
  3: 0x01C2 [0x6E] EventEntity uses emote 21*
  4: 0x01C9 [0x99] Wait for EventEntity animation to complete
  5: 0x01CE [0x00] END_REQSTACK()
```

### Event 65535.13

#### Metadata

| Field        | Value    |
|--------------|----------|
| Entrypoint   | 0x01CF   |
| Data Size    | 40 bytes |
| Instructions | 6        |

```
      00 01 02 03 04 05 06 07  08 09 0A 0B 0C 0D 0E 0F
      -- -- -- -- -- -- -- --  -- -- -- -- -- -- -- --
01C0:                                               03                 .
01D0: 00 00 07 7F 1A 96 00 1C  2B 80 66 01 00 F8 FF FF  ........+.f.....
01E0: 7F F8 FF FF 7F 74 6C 6B  31 53 F8 FF FF 7F F8 FF  .....tlk1S......
01F0: FF 7F 74 6C 6B 31 00                              ..tlk1.         
```

#### Opcodes

```
  0: 0x01CF [0x03] ExtData[1]->WorkLocal[0] = Entity->Race
  1: 0x01D4 [0x1A] CALL_SUBROUTINE(address=0x0096)
  2: 0x01D7 [0x1C] WAIT(120* ticks)
  3: 0x01DA [0x66] LOAD_EXT_SCHEDULER_MAIN: Load scheduler "tlk1" with entities [EventEntity, EventEntity], work=ExtData[1]->WorkLocal[1]
  4: 0x01E9 [0x53] WAIT_SCHEDULER_TASK: Wait for scheduler "tlk1" with entities [EventEntity, EventEntity]
  5: 0x01F6 [0x00] END_REQSTACK()
```

### Event 65535.14

#### Metadata

| Field        | Value    |
|--------------|----------|
| Entrypoint   | 0x01F7   |
| Data Size    | 10 bytes |
| Instructions | 2        |

```
      00 01 02 03 04 05 06 07  08 09 0A 0B 0C 0D 0E 0F
      -- -- -- -- -- -- -- --  -- -- -- -- -- -- -- --
01F0:                      6C  F0 FF FF 7F 2C 80 01 80         l....,...
0200: 00                                                .               
```

#### Opcodes

```
  0: 0x01F7 [0x6C] FADE_ENTITY_COLOR(entity_id=LocalPlayer, end_alpha=0*, fade_time=1*)
  1: 0x0200 [0x00] END_REQSTACK()
```

### Event 65535.15

#### Metadata

| Field        | Value    |
|--------------|----------|
| Entrypoint   | 0x0201   |
| Data Size    | 10 bytes |
| Instructions | 2        |

```
      00 01 02 03 04 05 06 07  08 09 0A 0B 0C 0D 0E 0F
      -- -- -- -- -- -- -- --  -- -- -- -- -- -- -- --
0200:    6C F0 FF FF 7F 2D 80  01 80 00                  l....-....     
```

#### Opcodes

```
  0: 0x0201 [0x6C] FADE_ENTITY_COLOR(entity_id=LocalPlayer, end_alpha=128*, fade_time=1*)
  1: 0x020A [0x00] END_REQSTACK()
```

### Event 65535.16

#### Metadata

| Field        | Value    |
|--------------|----------|
| Entrypoint   | 0x020B   |
| Data Size    | 14 bytes |
| Instructions | 4        |

```
      00 01 02 03 04 05 06 07  08 09 0A 0B 0C 0D 0E 0F
      -- -- -- -- -- -- -- --  -- -- -- -- -- -- -- --
0200:                                   32 03 80 1F 00             2....
0210: 2E 80 2F 80 30 80 1F 01  00                       ../.0....       
```

#### Opcodes

```
  0: 0x020B [0x32] ExtData[1]->MainSpeed = 10* * 0.1
  1: 0x020E [0x1F] MOVE_ENTITY: EventEntity moves to X=221.104*, Z=177.109*, Y=-49.306*
  2: 0x0216 [0x1F] MOVE_ENTITY: Update entity position (mode=1)
  3: 0x0218 [0x00] END_REQSTACK()
```

### Event 65535.17

#### Metadata

| Field        | Value    |
|--------------|----------|
| Entrypoint   | 0x0219   |
| Data Size    | 38 bytes |
| Instructions | 5        |

```
      00 01 02 03 04 05 06 07  08 09 0A 0B 0C 0D 0E 0F
      -- -- -- -- -- -- -- --  -- -- -- -- -- -- -- --
0210:                             22 00 2F 00 F8 FF FF           "./....
0220: 7F B6 0B 31 80 2C 80 32  80 33 80 34 80 34 80 34  ...1.,.2.3.4.4.4
0230: 80 35 80 36 80 6C F8 FF  FF 7F 37 80 01 80 00     .5.6.l....7.... 
```

#### Opcodes

```
  0: 0x0219 [0x22] ENTITY_HIDE_FLAG(enabled=0x00)
  1: 0x021B [0x2F] EventEntity->Render.Flags0 &= ~0x80000 // Bit 19
  2: 0x0221 [0xB6] ENTITY_APPEARANCE_HANDLER(case=Full entity look, race=8*, hair=0*, head=145*, body=79*, hands=76*, legs=76*, feet=76*, main=201*, sub=262*)
  3: 0x0235 [0x6C] FADE_ENTITY_COLOR(entity_id=EventEntity, end_alpha=64*, fade_time=1*)
  4: 0x023E [0x00] END_REQSTACK()
```

### Event 65535.18

#### Metadata

| Field        | Value    |
|--------------|----------|
| Entrypoint   | 0x023F   |
| Data Size    | 38 bytes |
| Instructions | 5        |

```
      00 01 02 03 04 05 06 07  08 09 0A 0B 0C 0D 0E 0F
      -- -- -- -- -- -- -- --  -- -- -- -- -- -- -- --
0230:                                               22                 "
0240: 00 2F 00 F8 FF FF 7F B6  0B 38 80 2C 80 32 80 33  ./.......8.,.2.3
0250: 80 34 80 34 80 34 80 35  80 39 80 6C F8 FF FF 7F  .4.4.4.5.9.l....
0260: 3A 80 01 80 00                                    :....           
```

#### Opcodes

```
  0: 0x023F [0x22] ENTITY_HIDE_FLAG(enabled=0x00)
  1: 0x0241 [0x2F] EventEntity->Render.Flags0 &= ~0x80000 // Bit 19
  2: 0x0247 [0xB6] ENTITY_APPEARANCE_HANDLER(case=Full entity look, race=4*, hair=0*, head=145*, body=79*, hands=76*, legs=76*, feet=76*, main=201*, sub=24*)
  3: 0x025B [0x6C] FADE_ENTITY_COLOR(entity_id=EventEntity, end_alpha=80*, fade_time=1*)
  4: 0x0264 [0x00] END_REQSTACK()
```

### Event 65535.19

#### Metadata

| Field        | Value    |
|--------------|----------|
| Entrypoint   | 0x0265   |
| Data Size    | 38 bytes |
| Instructions | 5        |

```
      00 01 02 03 04 05 06 07  08 09 0A 0B 0C 0D 0E 0F
      -- -- -- -- -- -- -- --  -- -- -- -- -- -- -- --
0260:                22 00 2F  00 F8 FF FF 7F B6 0B 00       "./........
0270: 80 2C 80 32 80 33 80 34  80 34 80 34 80 35 80 39  .,.2.3.4.4.4.5.9
0280: 80 6C F8 FF FF 7F 3B 80  01 80 00                 .l....;....     
```

#### Opcodes

```
  0: 0x0265 [0x22] ENTITY_HIDE_FLAG(enabled=0x00)
  1: 0x0267 [0x2F] EventEntity->Render.Flags0 &= ~0x80000 // Bit 19
  2: 0x026D [0xB6] ENTITY_APPEARANCE_HANDLER(case=Full entity look, race=5*, hair=0*, head=145*, body=79*, hands=76*, legs=76*, feet=76*, main=201*, sub=24*)
  3: 0x0281 [0x6C] FADE_ENTITY_COLOR(entity_id=EventEntity, end_alpha=96*, fade_time=1*)
  4: 0x028A [0x00] END_REQSTACK()
```

### Event 65535.20

#### Metadata

| Field        | Value    |
|--------------|----------|
| Entrypoint   | 0x028B   |
| Data Size    | 14 bytes |
| Instructions | 4        |

```
      00 01 02 03 04 05 06 07  08 09 0A 0B 0C 0D 0E 0F
      -- -- -- -- -- -- -- --  -- -- -- -- -- -- -- --
0280:                                   32 14 80 1F 00             2....
0290: 3C 80 3D 80 3E 80 1F 01  00                       <.=.>....       
```

#### Opcodes

```
  0: 0x028B [0x32] ExtData[1]->MainSpeed = 13* * 0.1
  1: 0x028E [0x1F] MOVE_ENTITY: EventEntity moves to X=104.342*, Z=256.324*, Y=-59.906*
  2: 0x0296 [0x1F] MOVE_ENTITY: Update entity position (mode=1)
  3: 0x0298 [0x00] END_REQSTACK()
```

### Event 65535.21

#### Metadata

| Field        | Value    |
|--------------|----------|
| Entrypoint   | 0x0299   |
| Data Size    | 40 bytes |
| Instructions | 10       |

```
      00 01 02 03 04 05 06 07  08 09 0A 0B 0C 0D 0E 0F
      -- -- -- -- -- -- -- --  -- -- -- -- -- -- -- --
0290:                             32 3F 80 1F 00 40 80           2?...@.
02A0: 41 80 42 80 1F 01 1F 00  43 80 44 80 45 80 1F 01  A.B.....C.D.E...
02B0: 1F 00 46 80 47 80 48 80  1F 01 6F 1E 42 13 05 01  ..F.G.H...o.B...
02C0: 00                                                .               
```

#### Opcodes

```
  0: 0x0299 [0x32] ExtData[1]->MainSpeed = 35* * 0.1
  1: 0x029C [0x1F] MOVE_ENTITY: EventEntity moves to X=254.276*, Z=214.323*, Y=-45.097*
  2: 0x02A4 [0x1F] MOVE_ENTITY: Update entity position (mode=1)
  3: 0x02A6 [0x1F] MOVE_ENTITY: EventEntity moves to X=249.176*, Z=218.275*, Y=-45.138*
  4: 0x02AE [0x1F] MOVE_ENTITY: Update entity position (mode=1)
  5: 0x02B0 [0x1F] MOVE_ENTITY: EventEntity moves to X=248.265*, Z=219.029*, Y=-45.215*
  6: 0x02B8 [0x1F] MOVE_ENTITY: Update entity position (mode=1)
  7: 0x02BA [0x6F] WAIT_FRAME_DELAY: Yield until WaitTime reaches zero
  8: 0x02BB [0x1E] EventEntity looks at Lilisette (ID: 17109826/0x01051342) and starts talking
  9: 0x02C0 [0x00] END_REQSTACK()
```

### Event 65535.22

#### Metadata

| Field        | Value    |
|--------------|----------|
| Entrypoint   | 0x02C1   |
| Data Size    | 10 bytes |
| Instructions | 2        |

```
      00 01 02 03 04 05 06 07  08 09 0A 0B 0C 0D 0E 0F
      -- -- -- -- -- -- -- --  -- -- -- -- -- -- -- --
02C0:    6C F8 FF FF 7F 49 80  01 80 00                  l....I....     
```

#### Opcodes

```
  0: 0x02C1 [0x6C] FADE_ENTITY_COLOR(entity_id=EventEntity, end_alpha=86*, fade_time=1*)
  1: 0x02CA [0x00] END_REQSTACK()
```

### Event 65535.23

#### Metadata

| Field        | Value    |
|--------------|----------|
| Entrypoint   | 0x02CB   |
| Data Size    | 16 bytes |
| Instructions | 3        |

```
      00 01 02 03 04 05 06 07  08 09 0A 0B 0C 0D 0E 0F
      -- -- -- -- -- -- -- --  -- -- -- -- -- -- -- --
02C0:                                   92 00 F8 FF FF             .....
02D0: 7F 6C F8 FF FF 7F 2D 80  01 80 00                 .l....-....     
```

#### Opcodes

```
  0: 0x02CB [0x92] EventEntity->Render.Flags3 = Flags3  // No change (flag=0)
  1: 0x02D1 [0x6C] FADE_ENTITY_COLOR(entity_id=EventEntity, end_alpha=128*, fade_time=1*)
  2: 0x02DA [0x00] END_REQSTACK()
```

### Event 65535.24

#### Metadata

| Field        | Value    |
|--------------|----------|
| Entrypoint   | 0x02DB   |
| Data Size    | 16 bytes |
| Instructions | 3        |

```
      00 01 02 03 04 05 06 07  08 09 0A 0B 0C 0D 0E 0F
      -- -- -- -- -- -- -- --  -- -- -- -- -- -- -- --
02D0:                                   92 01 F0 FF FF             .....
02E0: 7F 37 4A 80 4B 80 4C 80  4D 80 00                 .7J.K.L.M..     
```

#### Opcodes

```
  0: 0x02DB [0x92] LocalPlayer->Render.Flags3 ^= 0x01
  1: 0x02E1 [0x37] UPDATE_EVENT_POSITION_AND_DIR: x=322.050*, z=505.131*, y=-59.883*, direction=270.0°*
  2: 0x02EA [0x00] END_REQSTACK()
```

### Event 65535.25

#### Metadata

| Field        | Value    |
|--------------|----------|
| Entrypoint   | 0x02EB   |
| Data Size    | 41 bytes |
| Instructions | 5        |

```
      00 01 02 03 04 05 06 07  08 09 0A 0B 0C 0D 0E 0F
      -- -- -- -- -- -- -- --  -- -- -- -- -- -- -- --
02E0:                                   BB 4E 80 F0 FF             .N...
02F0: FF 7F 12 13 05 01 6D 61  69 6E 2C 80 1C 4F 80 45  ......main,..O.E
0300: 50 80 F0 FF FF 7F F0 FF  FF 7F 66 64 6F 31 2C 80  P.........fdo1,.
0310: 1C 29 80 00                                       .)..            
```

#### Opcodes

```
  0: 0x02EB [0xBB] LOAD_EVENT_SCHEDULER_ALT: Load scheduler "main" with entities [LocalPlayer, Cavernous Maw (ID: 17109778/0x01051312)], work=[148*, 0*]
  1: 0x02FC [0x1C] WAIT(240* ticks)
  2: 0x02FF [0x45] LOAD_SCHEDULED_TASK: Load scheduler "fdo1" with entities [LocalPlayer, LocalPlayer], work=[200*, 0*]
  3: 0x0310 [0x1C] WAIT(60* ticks)
  4: 0x0313 [0x00] END_REQSTACK()
```

### Event 65535.26

#### Metadata

| Field        | Value   |
|--------------|---------|
| Entrypoint   | 0x0314  |
| Data Size    | 6 bytes |
| Instructions | 2       |

```
      00 01 02 03 04 05 06 07  08 09 0A 0B 0C 0D 0E 0F
      -- -- -- -- -- -- -- --  -- -- -- -- -- -- -- --
0310:             03 02 10 07  7F 00                        ......      
```

#### Opcodes

```
  0: 0x0314 [0x03] Work_Zone[2] = Entity->Race
  1: 0x0319 [0x00] END_REQSTACK()
```

### Event 65535.27

#### Metadata

| Field        | Value   |
|--------------|---------|
| Entrypoint   | 0x031A  |
| Data Size    | 6 bytes |
| Instructions | 2       |

```
      00 01 02 03 04 05 06 07  08 09 0A 0B 0C 0D 0E 0F
      -- -- -- -- -- -- -- --  -- -- -- -- -- -- -- --
0310:                                03 02 10 0B 7F 00            ......
```

#### Opcodes

```
  0: 0x031A [0x03] Work_Zone[2] = (Entity->Render.Flags01 >> 25) & 1
  1: 0x031F [0x00] END_REQSTACK()
```

### Event 201

#### Metadata

| Field        | Value     |
|--------------|-----------|
| Entrypoint   | 0x0320    |
| Data Size    | 102 bytes |
| Instructions | 15        |

```
      00 01 02 03 04 05 06 07  08 09 0A 0B 0C 0D 0E 0F
      -- -- -- -- -- -- -- --  -- -- -- -- -- -- -- --
0320: 42 48 51 80 45 50 80 F0  FF FF 7F F0 FF FF 7F 66  BHQ.EP.........f
0330: 64 6F 31 2C 80 02 03 10  2C 80 00 51 03 62 01 80  do1,....,..Q.b..
0340: F0 FF FF 7F F0 FF FF 7F  6D 61 69 6E 2C 80 1C 52  ........main,..R
0350: 80 1C 29 80 83 1E 17 AA  1E 17 1E 17 1E 17 1E 17  ..).............
0360: 1E 17 1F 17 1E 17 1E 17  03 02 00 2C 80 77 1F 17  ...........,.w..
0370: 02 00 78 45 35 80 F0 FF  FF 7F F0 FF FF 7F 77 68  ..xE5.........wh
0380: 69 31 2C 80 21 00                                 i1,.!.          
```

#### Opcodes

```
  0: 0x0320 [0x42] SET_CLI_EVENT_CANCEL_DATA()
  1: 0x0321 [0x48] [System] [7664*]:
    → "The order has been given by your party leader to enter [Everbloom Hollow/the Ruhotz Silvermines/Ghoyu's Reverie]."
  2: 0x0324 [0x45] LOAD_SCHEDULED_TASK: Load scheduler "fdo1" with entities [LocalPlayer, LocalPlayer], work=[200*, 0*]
  3: 0x0335 [0x02] IF !(Work_Zone[3] == 0*) GOTO 0x0351
  4: 0x033D [0x62] LOAD_EVENT_SCHEDULER: Load scheduler "main" with entities [LocalPlayer, LocalPlayer], work=[1*, 0*]
  5: 0x034E [0x1C] WAIT(90* ticks)
  6: 0x0351 [0x1C] WAIT(60* ticks)
  7: 0x0354 [0x83] Work_Zone_1700[30] = GetGameTime()
  8: 0x0357 [0xAA] VANA_DIEL_TIMESTAMP_CONVERTER(timestamp=Work_Zone_1700[30], year=Work_Zone_1700[30], month=Work_Zone_1700[30], day=Work_Zone_1700[30], weekday=Work_Zone_1700[30], hour=Work_Zone_1700[31], minute=Work_Zone_1700[30], moon=Work_Zone_1700[30])
  9: 0x0368 [0x03] ExtData[1]->WorkLocal[2] = 0*
 10: 0x036D [0x77] SET_EVENT_TIME_WEATHER(hour=Work_Zone_1700[31], weather=ExtData[1]->WorkLocal[2])
 11: 0x0372 [0x78] ENABLE_GAME_TIMER_RESET_WEATHER()
 12: 0x0373 [0x45] LOAD_SCHEDULED_TASK: Load scheduler "whi1" with entities [LocalPlayer, LocalPlayer], work=[201*, 0*]
 13: 0x0384 [0x21] END_EVENT
 14: 0x0385 [0x00] END_REQSTACK()
```

### Event 264

#### Metadata

| Field        | Value    |
|--------------|----------|
| Entrypoint   | 0x0386   |
| Data Size    | 29 bytes |
| Instructions | 7        |

```
      00 01 02 03 04 05 06 07  08 09 0A 0B 0C 0D 0E 0F
      -- -- -- -- -- -- -- --  -- -- -- -- -- -- -- --
0380:                   42 48  53 80 BB 54 80 F0 FF FF        BHS..T....
0390: 7F F0 FF FF 7F 6D 61 69  6E 2C 80 1C 29 80 1C 29  .....main,..)..)
03A0: 80 21 00                                          .!.             
```

#### Opcodes

```
  0: 0x0386 [0x42] SET_CLI_EVENT_CANCEL_DATA()
  1: 0x0387 [0x48] [System] [7888*]:
    → "The sandworm swallows you whole!"
  2: 0x038A [0xBB] LOAD_EVENT_SCHEDULER_ALT: Load scheduler "main" with entities [LocalPlayer, LocalPlayer], work=[234*, 0*]
  3: 0x039B [0x1C] WAIT(60* ticks)
  4: 0x039E [0x1C] WAIT(60* ticks)
  5: 0x03A1 [0x21] END_EVENT
  6: 0x03A2 [0x00] END_REQSTACK()
```

### Event 265

#### Metadata

| Field        | Value      |
|--------------|------------|
| Entrypoint   | 0x03A3     |
| Data Size    | 1061 bytes |
| Instructions | 204        |

```
      00 01 02 03 04 05 06 07  08 09 0A 0B 0C 0D 0E 0F
      -- -- -- -- -- -- -- --  -- -- -- -- -- -- -- --
03A0:          42 46 01 3E 04  10 2C 80 B5 03 03 03 00     BF.>..,......
03B0: 01 80 01 BA 03 03 03 00  2C 80 3E 04 10 01 80 C9  ........,.>.....
03C0: 03 03 04 00 01 80 01 CE  03 03 04 00 2C 80 41 02  ............,.A.
03D0: 80 55 80 04 10 05 00 45  50 80 F8 FF FF 7F F8 FF  .U.....EP.......
03E0: FF 7F 66 64 6F 30 2C 80  55 50 80 F8 FF FF 7F F8  ..fdo0,.UP......
03F0: FF FF 7F 66 64 6F 30 BA  F0 FF FF 7F 05 10 06 10  ...fdo0.........
0400: 07 10 08 10 1A E4 04 1A  42 05 38 56 80 1A 87 05  ........B.8V....
0410: 03 05 10 02 10 03 06 10  02 10 03 07 10 02 10 15  ................
0420: 05 10 57 80 15 06 10 29  80 3F 07 10 07 10 29 80  ..W....).?....).
0430: 1A A6 07 1A C7 05 45 50  80 F8 FF FF 7F F8 FF FF  ......EP........
0440: 7F 66 64 69 31 2C 80 1C  58 80 1A 60 07 1A 04 06  .fdi1,..X..`....
0450: 1C 29 80 1A 3E 06 02 04  00 2C 80 00 67 04 1C 29  .)..>....,..g..)
0460: 80 1A 78 06 01 A9 04 1C  29 80 1A B2 06 02 03 10  ..x.....).......
0470: 2C 80 01 A9 04 03 05 10  03 10 03 06 10 03 10 03  ,...............
0480: 07 10 03 10 15 05 10 57  80 15 06 10 29 80 3F 07  .......W....).?.
0490: 10 07 10 29 80 1C 29 80  02 03 00 2C 80 00 A6 04  ...)..)....,....
04A0: 1A EC 06 01 A9 04 1A 26  07 1C 29 80 1A B8 07 45  .......&..)....E
04B0: 50 80 F8 FF FF 7F F8 FF  FF 7F 66 64 6F 31 2C 80  P.........fdo1,.
04C0: 55 50 80 F8 FF FF 7F F8  FF FF 7F 66 64 6F 31 46  UP.........fdo1F
04D0: 00 45 50 80 F8 FF FF 7F  F8 FF FF 7F 66 64 69 32  .EP.........fdi2
04E0: 2C 80 21 00 02 05 00 01  80 80 01 05 4E 00 08 13  ,.!.........N...
04F0: 05 01 92 01 08 13 05 01  4E 00 0B 13 05 01 01 3B  ........N......;
0500: 05 02 05 00 02 80 80 1E  05 4E 00 09 13 05 01 92  .........N......
0510: 01 09 13 05 01 4E 00 0C  13 05 01 01 3B 05 02 05  .....N......;...
0520: 00 55 80 80 3B 05 4E 00  0A 13 05 01 92 01 0A 13  .U..;.N.........
0530: 05 01 4E 00 0D 13 05 01  01 3B 05 4E 00 30 13 05  ..N......;.N.0..
0540: 01 1B 02 05 00 01 80 80  57 05 80 08 13 05 01 80  ........W.......
0550: 0B 13 05 01 01 81 05 02  05 00 02 80 80 6C 05 80  .............l..
0560: 09 13 05 01 80 0C 13 05  01 01 81 05 02 05 00 55  ...............U
0570: 80 80 81 05 80 0A 13 05  01 80 0D 13 05 01 01 81  ................
0580: 05 80 30 13 05 01 1B 02  05 00 02 80 80 9C 05 79  ..0............y
0590: 00 F0 FF FF 7F 08 13 05  01 01 C6 05 02 05 00 55  ...............U
05A0: 80 80 B1 05 79 00 F0 FF  FF 7F 09 13 05 01 01 C6  ....y...........
05B0: 05 02 05 00 38 80 80 C6  05 79 00 F0 FF FF 7F 0A  ....8....y......
05C0: 13 05 01 01 C6 05 1B 02  05 00 01 80 80 DB 05 4A  ...............J
05D0: 08 13 05 01 F0 FF FF 7F  01 03 06 02 05 00 02 80  ................
05E0: 80 EF 05 4A 09 13 05 01  F0 FF FF 7F 01 03 06 02  ...J............
05F0: 05 00 55 80 80 03 06 4A  0A 13 05 01 F0 FF FF 7F  ..U....J........
0600: 01 03 06 1B 02 05 00 01  80 80 17 06 2B 08 13 05  ............+...
0610: 01 59 80 23 01 3D 06 02  05 00 02 80 80 2A 06 2B  .Y.#.=.......*.+
0620: 09 13 05 01 59 80 23 01  3D 06 02 05 00 55 80 80  ....Y.#.=....U..
0630: 3D 06 2B 0A 13 05 01 59  80 23 01 3D 06 1B 02 05  =.+....Y.#.=....
0640: 00 01 80 80 51 06 2B 08  13 05 01 5A 80 23 01 77  ....Q.+....Z.#.w
0650: 06 02 05 00 02 80 80 64  06 2B 09 13 05 01 5A 80  .......d.+....Z.
0660: 23 01 77 06 02 05 00 55  80 80 77 06 2B 0A 13 05  #.w....U..w.+...
0670: 01 5A 80 23 01 77 06 1B  02 05 00 01 80 80 8B 06  .Z.#.w..........
0680: 2B 08 13 05 01 5B 80 23  01 B1 06 02 05 00 02 80  +....[.#........
0690: 80 9E 06 2B 09 13 05 01  5B 80 23 01 B1 06 02 05  ...+....[.#.....
06A0: 00 55 80 80 B1 06 2B 0A  13 05 01 5B 80 23 01 B1  .U....+....[.#..
06B0: 06 1B 02 05 00 01 80 80  C5 06 2B 08 13 05 01 5C  ..........+....\
06C0: 80 23 01 EB 06 02 05 00  02 80 80 D8 06 2B 09 13  .#...........+..
06D0: 05 01 5C 80 23 01 EB 06  02 05 00 55 80 80 EB 06  ..\.#......U....
06E0: 2B 0A 13 05 01 5C 80 23  01 EB 06 1B 02 05 00 01  +....\.#........
06F0: 80 80 FF 06 2B 08 13 05  01 5D 80 23 01 25 07 02  ....+....].#.%..
0700: 05 00 02 80 80 12 07 2B  09 13 05 01 5D 80 23 01  .......+....].#.
0710: 25 07 02 05 00 55 80 80  25 07 2B 0A 13 05 01 5D  %....U..%.+....]
0720: 80 23 01 25 07 1B 02 05  00 01 80 80 39 07 2B 08  .#.%........9.+.
0730: 13 05 01 5E 80 23 01 5F  07 02 05 00 02 80 80 4C  ...^.#._.......L
0740: 07 2B 09 13 05 01 5E 80  23 01 5F 07 02 05 00 55  .+....^.#._....U
0750: 80 80 5F 07 2B 0A 13 05  01 5E 80 23 01 5F 07 1B  .._.+....^.#._..
0760: 02 05 00 01 80 80 77 07  6E 08 13 05 01 02 80 99  ......w.n.......
0770: 08 13 05 01 01 A5 07 02  05 00 02 80 80 8E 07 6E  ...............n
0780: 09 13 05 01 5F 80 99 09  13 05 01 01 A5 07 02 05  ...._...........
0790: 00 55 80 80 A5 07 6E 0A  13 05 01 60 80 99 0A 13  .U....n....`....
07A0: 05 01 01 A5 07 1B 45 61  80 F0 FF FF 7F F0 FF FF  ......Ea........
07B0: 7F 63 30 38 31 2C 80 1B  52 61 80 F0 FF FF 7F F0  .c081,..Ra......
07C0: FF FF 7F 63 30 38 31 1B                           ...c081.        
```

#### Opcodes

```
  0: 0x03A3 [0x42] SET_CLI_EVENT_CANCEL_DATA()
  1: 0x03A4 [0x46] CAMERA_CONTROL: Disable user control
  2: 0x03A6 [0x3E] IF !(Work_Zone[4] bit 0*) GOTO 0x03B5
  3: 0x03AD [0x03] ExtData[1]->WorkLocal[3] = 1*
  4: 0x03B2 [0x01] GOTO 0x03BA
  5: 0x03B5 [0x03] ExtData[1]->WorkLocal[3] = 0*

SUBROUTINE_03BA:
  6: 0x03BA [0x3E] IF !(Work_Zone[4] bit 1*) GOTO 0x03C9
  7: 0x03C1 [0x03] ExtData[1]->WorkLocal[4] = 1*
  8: 0x03C6 [0x01] GOTO 0x03CE
  9: 0x03C9 [0x03] ExtData[1]->WorkLocal[4] = 0*

SUBROUTINE_03CE:
 10: 0x03CE [0x41] ExtData[1]->WorkLocal[5] = Work_Zone[4] (bits 2*-3*)
 11: 0x03D7 [0x45] LOAD_SCHEDULED_TASK: Load scheduler "fdo0" with entities [EventEntity, EventEntity], work=[200*, 0*]
 12: 0x03E8 [0x55] WAIT_LOAD_SCHEDULER: Wait for scheduler "fdo0" with entities [EventEntity, EventEntity], work=200*
 13: 0x03F7 [0xBA] SET_ENTITY_POSITION(entity_id=LocalPlayer, pos_x=Work_Zone[5], pos_z=Work_Zone[6], pos_y=Work_Zone[7], direction=Work_Zone[8])
 14: 0x0404 [0x1A] CALL_SUBROUTINE(address=0x04E4)
 15: 0x0407 [0x1A] CALL_SUBROUTINE(address=0x0542)
 16: 0x040A [0x38] SET_CLIENT_EVENT_MODE(mode=19*)
 17: 0x040D [0x1A] CALL_SUBROUTINE(address=0x0587)
 18: 0x0410 [0x03] Work_Zone[5] = Work_Zone[2]
 19: 0x0415 [0x03] Work_Zone[6] = Work_Zone[2]
 20: 0x041A [0x03] Work_Zone[7] = Work_Zone[2]
 21: 0x041F [0x15] Work_Zone[5] /= 144*
 22: 0x0424 [0x15] Work_Zone[6] /= 60*
 23: 0x0429 [0x3F] Work_Zone[7] = Work_Zone[7] % 60*
 24: 0x0430 [0x1A] CALL_SUBROUTINE(address=0x07A6)
 25: 0x0433 [0x1A] CALL_SUBROUTINE(address=0x05C7)
 26: 0x0436 [0x45] LOAD_SCHEDULED_TASK: Load scheduler "fdi1" with entities [EventEntity, EventEntity], work=[200*, 0*]
 27: 0x0447 [0x1C] WAIT(180* ticks)
 28: 0x044A [0x1A] CALL_SUBROUTINE(address=0x0760)
 29: 0x044D [0x1A] CALL_SUBROUTINE(address=0x0604)
 30: 0x0450 [0x1C] WAIT(60* ticks)
 31: 0x0453 [0x1A] CALL_SUBROUTINE(address=0x063E)
 32: 0x0456 [0x02] IF !(ExtData[1]->WorkLocal[4] == 0*) GOTO 0x0467
 33: 0x045E [0x1C] WAIT(60* ticks)
 34: 0x0461 [0x1A] CALL_SUBROUTINE(address=0x0678)
 35: 0x0464 [0x01] GOTO 0x04A9
 36: 0x0467 [0x1C] WAIT(60* ticks)
 37: 0x046A [0x1A] CALL_SUBROUTINE(address=0x06B2)
 38: 0x046D [0x02] IF !(Work_Zone[3] == 0*) GOTO 0x04A9
 39: 0x0475 [0x03] Work_Zone[5] = Work_Zone[3]
 40: 0x047A [0x03] Work_Zone[6] = Work_Zone[3]
 41: 0x047F [0x03] Work_Zone[7] = Work_Zone[3]
 42: 0x0484 [0x15] Work_Zone[5] /= 144*
 43: 0x0489 [0x15] Work_Zone[6] /= 60*
 44: 0x048E [0x3F] Work_Zone[7] = Work_Zone[7] % 60*
 45: 0x0495 [0x1C] WAIT(60* ticks)
 46: 0x0498 [0x02] IF !(ExtData[1]->WorkLocal[3] == 0*) GOTO 0x04A6
 47: 0x04A0 [0x1A] CALL_SUBROUTINE(address=0x06EC)
 48: 0x04A3 [0x01] GOTO 0x04A9
 49: 0x04A6 [0x1A] CALL_SUBROUTINE(address=0x0726)

SUBROUTINE_04A9:
 50: 0x04A9 [0x1C] WAIT(60* ticks)
 51: 0x04AC [0x1A] CALL_SUBROUTINE(address=0x07B8)
 52: 0x04AF [0x45] LOAD_SCHEDULED_TASK: Load scheduler "fdo1" with entities [EventEntity, EventEntity], work=[200*, 0*]
 53: 0x04C0 [0x55] WAIT_LOAD_SCHEDULER: Wait for scheduler "fdo1" with entities [EventEntity, EventEntity], work=200*
 54: 0x04CF [0x46] CAMERA_CONTROL: Restore default settings
 55: 0x04D1 [0x45] LOAD_SCHEDULED_TASK: Load scheduler "fdi2" with entities [EventEntity, EventEntity], work=[200*, 0*]
 56: 0x04E2 [0x21] END_EVENT
 57: 0x04E3 [0x00] END_REQSTACK()

SUBROUTINE_04E4:
 58: 0x04E4 [0x02] IF !(ExtData[1]->WorkLocal[5] == 1*) GOTO 0x0501
 59: 0x04EC [0x4E] SET_ENTITY_HIDE_FLAG: Show Arlayse, R.K. (ID: 17109768/0x01051308)
 60: 0x04F2 [0x92] Arlayse, R.K. (ID: 17109768/0x01051308)->Render.Flags3 ^= 0x01
 61: 0x04F8 [0x4E] SET_ENTITY_HIDE_FLAG: Show Unnamed NPC (ID: 17109771/0x0105130B)
 62: 0x04FE [0x01] GOTO 0x053B
 63: 0x0501 [0x02] IF !(ExtData[1]->WorkLocal[5] == 2*) GOTO 0x051E
 64: 0x0509 [0x4E] SET_ENTITY_HIDE_FLAG: Show Aged Stone, L.C. (ID: 17109769/0x01051309)
 65: 0x050F [0x92] Aged Stone, L.C. (ID: 17109769/0x01051309)->Render.Flags3 ^= 0x01
 66: 0x0515 [0x4E] SET_ENTITY_HIDE_FLAG: Show Unnamed NPC (ID: 17109772/0x0105130C)
 67: 0x051B [0x01] GOTO 0x053B
 68: 0x051E [0x02] IF !(ExtData[1]->WorkLocal[5] == 3*) GOTO 0x053B
 69: 0x0526 [0x4E] SET_ENTITY_HIDE_FLAG: Show Ihli Llamhya, M.C. (ID: 17109770/0x0105130A)
 70: 0x052C [0x92] Ihli Llamhya, M.C. (ID: 17109770/0x0105130A)->Render.Flags3 ^= 0x01
 71: 0x0532 [0x4E] SET_ENTITY_HIDE_FLAG: Show Unnamed NPC (ID: 17109773/0x0105130D)
 72: 0x0538 [0x01] GOTO 0x053B

SUBROUTINE_053B:
 73: 0x053B [0x4E] SET_ENTITY_HIDE_FLAG: Show Unnamed NPC (ID: 17109808/0x01051330)
 74: 0x0541 [0x1B] RETURN

SUBROUTINE_0542:
 75: 0x0542 [0x02] IF !(ExtData[1]->WorkLocal[5] == 1*) GOTO 0x0557
 76: 0x054A [0x80] LOAD_WAIT(entity=Arlayse, R.K. (ID: 17109768/0x01051308))
 77: 0x054F [0x80] LOAD_WAIT(entity=Unnamed NPC (ID: 17109771/0x0105130B))
 78: 0x0554 [0x01] GOTO 0x0581
 79: 0x0557 [0x02] IF !(ExtData[1]->WorkLocal[5] == 2*) GOTO 0x056C
 80: 0x055F [0x80] LOAD_WAIT(entity=Aged Stone, L.C. (ID: 17109769/0x01051309))
 81: 0x0564 [0x80] LOAD_WAIT(entity=Unnamed NPC (ID: 17109772/0x0105130C))
 82: 0x0569 [0x01] GOTO 0x0581
 83: 0x056C [0x02] IF !(ExtData[1]->WorkLocal[5] == 3*) GOTO 0x0581
 84: 0x0574 [0x80] LOAD_WAIT(entity=Ihli Llamhya, M.C. (ID: 17109770/0x0105130A))
 85: 0x0579 [0x80] LOAD_WAIT(entity=Unnamed NPC (ID: 17109773/0x0105130D))
 86: 0x057E [0x01] GOTO 0x0581

SUBROUTINE_0581:
 87: 0x0581 [0x80] LOAD_WAIT(entity=Unnamed NPC (ID: 17109808/0x01051330))
 88: 0x0586 [0x1B] RETURN

SUBROUTINE_0587:
 89: 0x0587 [0x02] IF !(ExtData[1]->WorkLocal[5] == 2*) GOTO 0x059C
 90: 0x058F [0x79] LocalPlayer looks at Arlayse, R.K. (ID: 17109768/0x01051308) (Basic look)
 91: 0x0599 [0x01] GOTO 0x05C6
 92: 0x059C [0x02] IF !(ExtData[1]->WorkLocal[5] == 3*) GOTO 0x05B1
 93: 0x05A4 [0x79] LocalPlayer looks at Aged Stone, L.C. (ID: 17109769/0x01051309) (Basic look)
 94: 0x05AE [0x01] GOTO 0x05C6
 95: 0x05B1 [0x02] IF !(ExtData[1]->WorkLocal[5] == 4*) GOTO 0x05C6
 96: 0x05B9 [0x79] LocalPlayer looks at Ihli Llamhya, M.C. (ID: 17109770/0x0105130A) (Basic look)
 97: 0x05C3 [0x01] GOTO 0x05C6

SUBROUTINE_05C6:
 98: 0x05C6 [0x1B] RETURN

SUBROUTINE_05C7:
 99: 0x05C7 [0x02] IF !(ExtData[1]->WorkLocal[5] == 1*) GOTO 0x05DB
100: 0x05CF [0x4A] Arlayse, R.K. (ID: 17109768/0x01051308) looks at LocalPlayer
101: 0x05D8 [0x01] GOTO 0x0603
102: 0x05DB [0x02] IF !(ExtData[1]->WorkLocal[5] == 2*) GOTO 0x05EF
103: 0x05E3 [0x4A] Aged Stone, L.C. (ID: 17109769/0x01051309) looks at LocalPlayer
104: 0x05EC [0x01] GOTO 0x0603
105: 0x05EF [0x02] IF !(ExtData[1]->WorkLocal[5] == 3*) GOTO 0x0603
106: 0x05F7 [0x4A] Ihli Llamhya, M.C. (ID: 17109770/0x0105130A) looks at LocalPlayer
107: 0x0600 [0x01] GOTO 0x0603

SUBROUTINE_0603:
108: 0x0603 [0x1B] RETURN

SUBROUTINE_0604:
109: 0x0604 [0x02] IF !(ExtData[1]->WorkLocal[5] == 1*) GOTO 0x0617
110: 0x060C [0x2B] Arlayse, R.K. (ID: 17109768/0x01051308) [7197*]:
    → "Ah, you must be <Player>. We've been expecting you."
111: 0x0613 [0x23] WAIT_FOR_DIALOG_INTERACTION
112: 0x0614 [0x01] GOTO 0x063D
113: 0x0617 [0x02] IF !(ExtData[1]->WorkLocal[5] == 2*) GOTO 0x062A
114: 0x061F [0x2B] Aged Stone, L.C. (ID: 17109769/0x01051309) [7197*]:
    → "Ah, you must be <Player>. We've been expecting you."
115: 0x0626 [0x23] WAIT_FOR_DIALOG_INTERACTION
116: 0x0627 [0x01] GOTO 0x063D
117: 0x062A [0x02] IF !(ExtData[1]->WorkLocal[5] == 3*) GOTO 0x063D
118: 0x0632 [0x2B] Ihli Llamhya, M.C. (ID: 17109770/0x0105130A) [7197*]:
    → "Ah, you must be <Player>. We've been expecting you."
119: 0x0639 [0x23] WAIT_FOR_DIALOG_INTERACTION
120: 0x063A [0x01] GOTO 0x063D

SUBROUTINE_063D:
121: 0x063D [0x1B] RETURN

SUBROUTINE_063E:
122: 0x063E [0x02] IF !(ExtData[1]->WorkLocal[5] == 1*) GOTO 0x0651
123: 0x0646 [0x2B] Arlayse, R.K. (ID: 17109768/0x01051308) [7198*]:
    → "The delivery took you $3 [hour/hours] ($4 [minute/minutes] and $5 [second/seconds] Earth time)."
124: 0x064D [0x23] WAIT_FOR_DIALOG_INTERACTION
125: 0x064E [0x01] GOTO 0x0677
126: 0x0651 [0x02] IF !(ExtData[1]->WorkLocal[5] == 2*) GOTO 0x0664
127: 0x0659 [0x2B] Aged Stone, L.C. (ID: 17109769/0x01051309) [7198*]:
    → "The delivery took you $3 [hour/hours] ($4 [minute/minutes] and $5 [second/seconds] Earth time)."
128: 0x0660 [0x23] WAIT_FOR_DIALOG_INTERACTION
129: 0x0661 [0x01] GOTO 0x0677
130: 0x0664 [0x02] IF !(ExtData[1]->WorkLocal[5] == 3*) GOTO 0x0677
131: 0x066C [0x2B] Ihli Llamhya, M.C. (ID: 17109770/0x0105130A) [7198*]:
    → "The delivery took you $3 [hour/hours] ($4 [minute/minutes] and $5 [second/seconds] Earth time)."
132: 0x0673 [0x23] WAIT_FOR_DIALOG_INTERACTION
133: 0x0674 [0x01] GOTO 0x0677

SUBROUTINE_0677:
134: 0x0677 [0x1B] RETURN

SUBROUTINE_0678:
135: 0x0678 [0x02] IF !(ExtData[1]->WorkLocal[5] == 1*) GOTO 0x068B
136: 0x0680 [0x2B] Arlayse, R.K. (ID: 17109768/0x01051308) [7200*]:
    → "While you were dawdling your way here, a separate shipment of construction materials was delivered to us. We shan't be requiring anymore."
137: 0x0687 [0x23] WAIT_FOR_DIALOG_INTERACTION
138: 0x0688 [0x01] GOTO 0x06B1
139: 0x068B [0x02] IF !(ExtData[1]->WorkLocal[5] == 2*) GOTO 0x069E
140: 0x0693 [0x2B] Aged Stone, L.C. (ID: 17109769/0x01051309) [7200*]:
    → "While you were dawdling your way here, a separate shipment of construction materials was delivered to us. We shan't be requiring anymore."
141: 0x069A [0x23] WAIT_FOR_DIALOG_INTERACTION
142: 0x069B [0x01] GOTO 0x06B1
143: 0x069E [0x02] IF !(ExtData[1]->WorkLocal[5] == 3*) GOTO 0x06B1
144: 0x06A6 [0x2B] Ihli Llamhya, M.C. (ID: 17109770/0x0105130A) [7200*]:
    → "While you were dawdling your way here, a separate shipment of construction materials was delivered to us. We shan't be requiring anymore."
145: 0x06AD [0x23] WAIT_FOR_DIALOG_INTERACTION
146: 0x06AE [0x01] GOTO 0x06B1

SUBROUTINE_06B1:
147: 0x06B1 [0x1B] RETURN

SUBROUTINE_06B2:
148: 0x06B2 [0x02] IF !(ExtData[1]->WorkLocal[5] == 1*) GOTO 0x06C5
149: 0x06BA [0x2B] Arlayse, R.K. (ID: 17109768/0x01051308) [7201*]:
    → "I commend you on your expeditiousness. Thanks to you, the construction work on our provision storehouse here can proceed as planned."
150: 0x06C1 [0x23] WAIT_FOR_DIALOG_INTERACTION
151: 0x06C2 [0x01] GOTO 0x06EB
152: 0x06C5 [0x02] IF !(ExtData[1]->WorkLocal[5] == 2*) GOTO 0x06D8
153: 0x06CD [0x2B] Aged Stone, L.C. (ID: 17109769/0x01051309) [7201*]:
    → "I commend you on your expeditiousness. Thanks to you, the construction work on our provision storehouse here can proceed as planned."
154: 0x06D4 [0x23] WAIT_FOR_DIALOG_INTERACTION
155: 0x06D5 [0x01] GOTO 0x06EB
156: 0x06D8 [0x02] IF !(ExtData[1]->WorkLocal[5] == 3*) GOTO 0x06EB
157: 0x06E0 [0x2B] Ihli Llamhya, M.C. (ID: 17109770/0x0105130A) [7201*]:
    → "I commend you on your expeditiousness. Thanks to you, the construction work on our provision storehouse here can proceed as planned."
158: 0x06E7 [0x23] WAIT_FOR_DIALOG_INTERACTION
159: 0x06E8 [0x01] GOTO 0x06EB

SUBROUTINE_06EB:
160: 0x06EB [0x1B] RETURN

SUBROUTINE_06EC:
161: 0x06EC [0x02] IF !(ExtData[1]->WorkLocal[5] == 1*) GOTO 0x06FF
162: 0x06F4 [0x2B] Arlayse, R.K. (ID: 17109768/0x01051308) [7202*]:
    → "So you have something to aspire to, the quickest delivery thus far was made by %0. That indefatigable soldier traversed the same course as you in just $3 [hour/hours] ($4 [minute/minutes] and $5 [second/seconds] Earth time)."
163: 0x06FB [0x23] WAIT_FOR_DIALOG_INTERACTION
164: 0x06FC [0x01] GOTO 0x0725
165: 0x06FF [0x02] IF !(ExtData[1]->WorkLocal[5] == 2*) GOTO 0x0712
166: 0x0707 [0x2B] Aged Stone, L.C. (ID: 17109769/0x01051309) [7202*]:
    → "So you have something to aspire to, the quickest delivery thus far was made by %0. That indefatigable soldier traversed the same course as you in just $3 [hour/hours] ($4 [minute/minutes] and $5 [second/seconds] Earth time)."
167: 0x070E [0x23] WAIT_FOR_DIALOG_INTERACTION
168: 0x070F [0x01] GOTO 0x0725
169: 0x0712 [0x02] IF !(ExtData[1]->WorkLocal[5] == 3*) GOTO 0x0725
170: 0x071A [0x2B] Ihli Llamhya, M.C. (ID: 17109770/0x0105130A) [7202*]:
    → "So you have something to aspire to, the quickest delivery thus far was made by %0. That indefatigable soldier traversed the same course as you in just $3 [hour/hours] ($4 [minute/minutes] and $5 [second/seconds] Earth time)."
171: 0x0721 [0x23] WAIT_FOR_DIALOG_INTERACTION
172: 0x0722 [0x01] GOTO 0x0725

SUBROUTINE_0725:
173: 0x0725 [0x1B] RETURN

SUBROUTINE_0726:
174: 0x0726 [0x02] IF !(ExtData[1]->WorkLocal[5] == 1*) GOTO 0x0739
175: 0x072E [0x2B] Arlayse, R.K. (ID: 17109768/0x01051308) [7203*]:
    → "You're the current quickest delivery record holder, with a lightning-fast time of $3 [hour/hours] ($4 [minute/minutes] and $5 [second/seconds] Earth time). But that's no excuse to slack off, you hear?"
176: 0x0735 [0x23] WAIT_FOR_DIALOG_INTERACTION
177: 0x0736 [0x01] GOTO 0x075F
178: 0x0739 [0x02] IF !(ExtData[1]->WorkLocal[5] == 2*) GOTO 0x074C
179: 0x0741 [0x2B] Aged Stone, L.C. (ID: 17109769/0x01051309) [7203*]:
    → "You're the current quickest delivery record holder, with a lightning-fast time of $3 [hour/hours] ($4 [minute/minutes] and $5 [second/seconds] Earth time). But that's no excuse to slack off, you hear?"
180: 0x0748 [0x23] WAIT_FOR_DIALOG_INTERACTION
181: 0x0749 [0x01] GOTO 0x075F
182: 0x074C [0x02] IF !(ExtData[1]->WorkLocal[5] == 3*) GOTO 0x075F
183: 0x0754 [0x2B] Ihli Llamhya, M.C. (ID: 17109770/0x0105130A) [7203*]:
    → "You're the current quickest delivery record holder, with a lightning-fast time of $3 [hour/hours] ($4 [minute/minutes] and $5 [second/seconds] Earth time). But that's no excuse to slack off, you hear?"
184: 0x075B [0x23] WAIT_FOR_DIALOG_INTERACTION
185: 0x075C [0x01] GOTO 0x075F

SUBROUTINE_075F:
186: 0x075F [0x1B] RETURN

SUBROUTINE_0760:
187: 0x0760 [0x02] IF !(ExtData[1]->WorkLocal[5] == 1*) GOTO 0x0777
188: 0x0768 [0x6E] Arlayse, R.K. (ID: 17109768/0x01051308) uses emote 2*
189: 0x076F [0x99] Wait for Arlayse, R.K. (ID: 17109768/0x01051308) animation to complete
190: 0x0774 [0x01] GOTO 0x07A5
191: 0x0777 [0x02] IF !(ExtData[1]->WorkLocal[5] == 2*) GOTO 0x078E
192: 0x077F [0x6E] Aged Stone, L.C. (ID: 17109769/0x01051309) uses emote 258*
193: 0x0786 [0x99] Wait for Aged Stone, L.C. (ID: 17109769/0x01051309) animation to complete
194: 0x078B [0x01] GOTO 0x07A5
195: 0x078E [0x02] IF !(ExtData[1]->WorkLocal[5] == 3*) GOTO 0x07A5
196: 0x0796 [0x6E] Ihli Llamhya, M.C. (ID: 17109770/0x0105130A) uses emote 514*
197: 0x079D [0x99] Wait for Ihli Llamhya, M.C. (ID: 17109770/0x0105130A) animation to complete
198: 0x07A2 [0x01] GOTO 0x07A5

SUBROUTINE_07A5:
199: 0x07A5 [0x1B] RETURN

SUBROUTINE_07A6:
200: 0x07A6 [0x45] LOAD_SCHEDULED_TASK: Load scheduler "c081" with entities [LocalPlayer, LocalPlayer], work=[342*, 0*]
201: 0x07B7 [0x1B] RETURN

SUBROUTINE_07B8:
202: 0x07B8 [0x52] END_LOAD_SCHEDULER: End scheduler "c081" with entities [LocalPlayer, LocalPlayer], work=342*
203: 0x07C7 [0x1B] RETURN
```
