# Event 65535

## Metadata

| Field           | Value    |
|-----------------|----------|
| Event Index     | 18/21    |
| Offset          | 0x0970   |
| Data Size       | 64 bytes |
| Calculated Size | 64 bytes |
| Instructions    | 14       |

```
      00 01 02 03 04 05 06 07  08 09 0A 0B 0C 0D 0E 0F
      -- -- -- -- -- -- -- --  -- -- -- -- -- -- -- --
0970: 32 07 80 1F 00 70 80 71  80 72 80 1F 01 1F 00 73  2....p.q.r.....s
0980: 80 74 80 75 80 1F 01 1F  00 76 80 77 80 03 80 1F  .t.u.....v.w....
0990: 01 1F 00 78 80 79 80 03  80 1F 01 1F 00 7A 80 7B  ...x.y.......z.{
09A0: 80 03 80 1F 01 1F 00 7C  80 7D 80 03 80 1F 01 00  .......|.}......
```

## Opcodes

```
  0: 0x0970 [0x32] ExtData[1]->MainSpeed = 60* * 0.1
  1: 0x0973 [0x1F] MOVE_ENTITY: EventEntity moves to X=-40.930*, Z=92.020*, Y=8.000*
  2: 0x097B [0x1F] MOVE_ENTITY: Update entity position (mode=1)
  3: 0x097D [0x1F] MOVE_ENTITY: EventEntity moves to X=-43.190*, Z=85.670*, Y=7.700*
  4: 0x0985 [0x1F] MOVE_ENTITY: Update entity position (mode=1)
  5: 0x0987 [0x1F] MOVE_ENTITY: EventEntity moves to X=-59.100*, Z=76.510*, Y=0.000*
  6: 0x098F [0x1F] MOVE_ENTITY: Update entity position (mode=1)
  7: 0x0991 [0x1F] MOVE_ENTITY: EventEntity moves to X=-64.080*, Z=78.410*, Y=0.000*
  8: 0x0999 [0x1F] MOVE_ENTITY: Update entity position (mode=1)
  9: 0x099B [0x1F] MOVE_ENTITY: EventEntity moves to X=-69.220*, Z=92.070*, Y=0.000*
 10: 0x09A3 [0x1F] MOVE_ENTITY: Update entity position (mode=1)
 11: 0x09A5 [0x1F] MOVE_ENTITY: EventEntity moves to X=-66.820*, Z=120.920*, Y=0.000*
 12: 0x09AD [0x1F] MOVE_ENTITY: Update entity position (mode=1)
 13: 0x09AF [0x00] END_REQSTACK()
```
