# Event 65535

## Metadata

| Field           | Value    |
|-----------------|----------|
| Event Index     | 40/56    |
| Offset          | 0x0251   |
| Data Size       | 50 bytes |
| Calculated Size | 50 bytes |
| Instructions    | 14       |

```
      00 01 02 03 04 05 06 07  08 09 0A 0B 0C 0D 0E 0F
      -- -- -- -- -- -- -- --  -- -- -- -- -- -- -- --
0250:    32 5C 80 1F 00 5D 80  5E 80 5F 80 1F 01 6F 32   2\...].^._...o2
0260: 5C 80 1F 00 60 80 61 80  62 80 1F 01 6F 27 10 F0  \...`.a.b...o'..
0270: FF FF 7F 32 32 5C 80 1F  00 63 80 64 80 65 80 1F  ...22\...c.d.e..
0280: 01 6F 00                                          .o.             
```

## Opcodes

```
  0: 0x0251 [0x32] ExtData[1]->MainSpeed = 8* * 0.1
  1: 0x0254 [0x1F] MOVE_ENTITY: EventEntity moves to X=-50.873*, Z=-98.424*, Y=5.947*
  2: 0x025C [0x1F] MOVE_ENTITY: Update entity position (mode=1)
  3: 0x025E [0x6F] WAIT_FRAME_DELAY: Yield until WaitTime reaches zero
  4: 0x025F [0x32] ExtData[1]->MainSpeed = 8* * 0.1
  5: 0x0262 [0x1F] MOVE_ENTITY: EventEntity moves to X=-52.639*, Z=-101.871*, Y=5.933*
  6: 0x026A [0x1F] MOVE_ENTITY: Update entity position (mode=1)
  7: 0x026C [0x6F] WAIT_FRAME_DELAY: Yield until WaitTime reaches zero
  8: 0x026D [0x27] REQ_SET(priority=0x10, entity_id=LocalPlayer, tag_num=0x32)
  9: 0x0274 [0x32] ExtData[1]->MainSpeed = 8* * 0.1
 10: 0x0277 [0x1F] MOVE_ENTITY: EventEntity moves to X=-54.302*, Z=-99.979*, Y=6.024*
 11: 0x027F [0x1F] MOVE_ENTITY: Update entity position (mode=1)
 12: 0x0281 [0x6F] WAIT_FRAME_DELAY: Yield until WaitTime reaches zero
 13: 0x0282 [0x00] END_REQSTACK()
```
