# Event 65535

## Metadata

| Field           | Value    |
|-----------------|----------|
| Event Index     | 36/56    |
| Offset          | 0x0224   |
| Data Size       | 28 bytes |
| Calculated Size | 28 bytes |
| Instructions    | 8        |

```
      00 01 02 03 04 05 06 07  08 09 0A 0B 0C 0D 0E 0F
      -- -- -- -- -- -- -- --  -- -- -- -- -- -- -- --
0220:             1F 00 53 80  54 80 55 80 1F 01 6F 1F      ..S.T.U...o.
0230: 00 56 80 57 80 58 80 1F  01 6F 1E 3D 12 04 01 00  .V.W.X...o.=....
```

## Opcodes

```
  0: 0x0224 [0x1F] MOVE_ENTITY: EventEntity moves to X=-48.618*, Z=-98.796*, Y=5.920*
  1: 0x022C [0x1F] MOVE_ENTITY: Update entity position (mode=1)
  2: 0x022E [0x6F] WAIT_FRAME_DELAY: Yield until WaitTime reaches zero
  3: 0x022F [0x1F] MOVE_ENTITY: EventEntity moves to X=-50.026*, Z=-99.137*, Y=5.984*
  4: 0x0237 [0x1F] MOVE_ENTITY: Update entity position (mode=1)
  5: 0x0239 [0x6F] WAIT_FRAME_DELAY: Yield until WaitTime reaches zero
  6: 0x023A [0x1E] EventEntity looks at Unnamed NPC (ID: 17044029/0x0104123D) and starts talking
  7: 0x023F [0x00] END_REQSTACK()
```
