# Event 164

## Metadata

| Field           | Value    |
|-----------------|----------|
| Event Index     | 11/15    |
| Offset          | 0x034C   |
| Data Size       | 32 bytes |
| Calculated Size | 32 bytes |
| Instructions    | 10       |

```
      00 01 02 03 04 05 06 07  08 09 0A 0B 0C 0D 0E 0F
      -- -- -- -- -- -- -- --  -- -- -- -- -- -- -- --
0340:                                      1E F0 FF FF              ....
0350: 7F 6F 70 66 01 80 F8 FF  FF 7F F8 FF FF 7F 74 6C  .opf..........tl
0360: 6B 30 1D 21 80 23 1D 22  80 23 21 00              k0.!.#.".#!.    
```

## Opcodes

```
  0: 0x034C [0x1E] EventEntity looks at LocalPlayer and starts talking
  1: 0x0351 [0x6F] WAIT_FRAME_DELAY: Yield until WaitTime reaches zero
  2: 0x0352 [0x70] WAIT_ENTITY_RENDER_FLAG: Wait while EventEntity->Render.Flags3 bit 2 is set (cancel turn if not)
  3: 0x0353 [0x66] LOAD_EXT_SCHEDULER_MAIN: Load scheduler "tlk0" with entities [EventEntity, EventEntity], work=60*
  4: 0x0362 [0x1D] PRINT_EVENT_MESSAGE(message_id=6910*)
    → "Try \u0001\u0005#\u0002\u0000\u0000\u0000 and \u0001\u0005#\u0002\u0001\u0000\u0000. They're all fish that someone like you could catch. They love to gulp stuff down.\u007F1\u0000\u0007"
  5: 0x0365 [0x23] WAIT_FOR_DIALOG_INTERACTION
  6: 0x0366 [0x1D] PRINT_EVENT_MESSAGE(message_id=6911*)
    → "And don't forget these: \u0001\u0005#\u0002\u0002\u0000\u0000, \u0001\u0005#\u0002\u0003\u0000\u0000, \u0001\u0005#\u0002\u0004\u0000\u0000, and \u0001\u0005#\u0002\u0005\u0000\u0000.\u007F1\u0000\u0007"
  7: 0x0369 [0x23] WAIT_FOR_DIALOG_INTERACTION
  8: 0x036A [0x21] END_EVENT
  9: 0x036B [0x00] END_REQSTACK()
```
