# Event 589

## Metadata

| Field           | Value    |
|-----------------|----------|
| Event Index     | 13/27    |
| Offset          | 0x462C   |
| Data Size       | 55 bytes |
| Calculated Size | 55 bytes |
| Instructions    | 11       |

```
      00 01 02 03 04 05 06 07  08 09 0A 0B 0C 0D 0E 0F
      -- -- -- -- -- -- -- --  -- -- -- -- -- -- -- --
4620:                                      02 02 10 13              ....
4630: 81 04 61 46 02 02 10 1C  81 05 61 46 29 08 0C 90  ..aF......aF)...
4640: 0E 01 43 2B 0C 90 0E 01  1F 81 23 29 08 0C 90 0E  ..C+......#)....
4650: 01 44 29 08 0C 90 0E 01  45 2B 0C 90 0E 01 20 81  .D).....E+.... .
4660: 23 21 00                                          #!.             
```

## Opcodes

```
  0: 0x462C [0x02] IF !(Work_Zone[2] < 206*) GOTO 0x4661
  1: 0x4634 [0x02] IF !(Work_Zone[2] > 208*) GOTO 0x4661
  2: 0x463C [0x29] REQ_SET_WAIT(priority=0x08, entity_id=Curilla (ID: 17731596/0x010E900C), tag_num=0x43)
  3: 0x4643 [0x2B] Curilla (ID: 17731596/0x010E900C) [8754*]:
    → "Duke Gaetan of House Teulomme...\u007F1\u0000\u0007"
  4: 0x464A [0x23] WAIT_FOR_DIALOG_INTERACTION
  5: 0x464B [0x29] REQ_SET_WAIT(priority=0x08, entity_id=Curilla (ID: 17731596/0x010E900C), tag_num=0x44)
  6: 0x4652 [0x29] REQ_SET_WAIT(priority=0x08, entity_id=Curilla (ID: 17731596/0x010E900C), tag_num=0x45)
  7: 0x4659 [0x2B] Curilla (ID: 17731596/0x010E900C) [8755*]:
    → "Hmm... I wonder if my father would be pleased...\u007F1\u0000\u0007"
  8: 0x4660 [0x23] WAIT_FOR_DIALOG_INTERACTION
  9: 0x4661 [0x21] END_EVENT
 10: 0x4662 [0x00] END_REQSTACK()
```
