# Event 7

## Metadata

| Field           | Value    |
|-----------------|----------|
| Event Index     | 7/7      |
| Offset          | 0x0299   |
| Data Size       | 75 bytes |
| Calculated Size | 75 bytes |
| Instructions    | 5        |

```
      00 01 02 03 04 05 06 07  08 09 0A 0B 0C 0D 0E 0F
      -- -- -- -- -- -- -- --  -- -- -- -- -- -- -- --
0290:                             42 48 23 80 1C 1B 80           BH#....
02A0: 21 00 45 24 80 F8 FF FF  7F F8 FF FF 7F 66 64 6F  !.E$.........fdo
02B0: 31 06 80 55 24 80 F8 FF  FF 7F F8 FF FF 7F 66 64  1..U$.........fd
02C0: 6F 31 1B 45 24 80 F8 FF  FF 7F F8 FF FF 7F 66 64  o1.E$.........fd
02D0: 69 32 06 80 55 24 80 F8  FF FF 7F F8 FF FF 7F 66  i2..U$.........f
02E0: 64 69 32 1B                                       di2.            
```

## Opcodes

```
  0: 0x0299 [0x42] SET_CLI_EVENT_CANCEL_DATA()
  1: 0x029A [0x48] [System] [7663*]:
    → "A sign reading "Keep Away From Fire!" is affixed to the case.\u0000\u0007"
  2: 0x029D [0x1C] WAIT(60* ticks)
  3: 0x02A0 [0x21] END_EVENT
  4: 0x02A1 [0x00] END_REQSTACK()
```

## Data or dead code:

```
# Dead code (unreachable instructions):
     0x02A2 [0x45] LOAD_SCHEDULED_TASK: Load scheduler "fdo1" with entities [EventEntity, EventEntity], work=[200*, 0*]
     0x02B3 [0x55] WAIT_LOAD_SCHEDULER: Wait for scheduler "fdo1" with entities [EventEntity, EventEntity], work=200*
     0x02C2 [0x1B] RETURN
     0x02C3 [0x45] LOAD_SCHEDULED_TASK: Load scheduler "fdi2" with entities [EventEntity, EventEntity], work=[200*, 0*]
     0x02D4 [0x55] WAIT_LOAD_SCHEDULER: Wait for scheduler "fdi2" with entities [EventEntity, EventEntity], work=200*
     0x02E3 [0x1B] RETURN
```