# Event 8

## Metadata

| Field           | Value    |
|-----------------|----------|
| Event Index     | 4/7      |
| Offset          | 0x014F   |
| Data Size       | 55 bytes |
| Calculated Size | 55 bytes |
| Instructions    | 9        |

```
      00 01 02 03 04 05 06 07  08 09 0A 0B 0C 0D 0E 0F
      -- -- -- -- -- -- -- --  -- -- -- -- -- -- -- --
0140:                                               42                 B
0150: 4A 14 42 0A 01 F0 FF FF  7F 03 02 10 10 80 66 01  J.B...........f.
0160: 80 14 42 0A 01 14 42 0A  01 74 6C 6B 30 2B 14 42  ..B...B..tlk0+.B
0170: 0A 01 15 80 23 66 01 80  14 42 0A 01 14 42 0A 01  ....#f...B...B..
0180: 74 6C 6B 31 21 00                                 tlk1!.          
```

## Opcodes

```
  0: 0x014F [0x42] SET_CLI_EVENT_CANCEL_DATA()
  1: 0x0150 [0x4A] Rarcasmeault (ID: 17449492/0x010A4214) looks at LocalPlayer
  2: 0x0159 [0x03] Work_Zone[2] = 949*
  3: 0x015E [0x66] LOAD_EXT_SCHEDULER_MAIN(work_offset=29*, entity1=Rarcasmeault (ID: 17449492/0x010A4214), entity2=Rarcasmeault (ID: 17449492/0x010A4214), action="tlk0")
  4: 0x016D [0x2B] Rarcasmeault (ID: 17449492/0x010A4214) [7662*]:
    → "You get your hands on that \u0001\u00053\u0002\u0000\u0000\u0000 from the Firesand Storeroom yet? I'll have your map ready by the time you bring it back.\u007F1\u0000\u0007"
  5: 0x0174 [0x23] WAIT_FOR_DIALOG_INTERACTION
  6: 0x0175 [0x66] LOAD_EXT_SCHEDULER_MAIN(work_offset=29*, entity1=Rarcasmeault (ID: 17449492/0x010A4214), entity2=Rarcasmeault (ID: 17449492/0x010A4214), action="tlk1")
  7: 0x0184 [0x21] END_EVENT
  8: 0x0185 [0x00] END_REQSTACK()
```
