# Event 40

## Metadata

| Field           | Value    |
|-----------------|----------|
| Event Index     | 8/24     |
| Offset          | 0x0133   |
| Data Size       | 93 bytes |
| Calculated Size | 93 bytes |
| Instructions    | 13       |

```
      00 01 02 03 04 05 06 07  08 09 0A 0B 0C 0D 0E 0F
      -- -- -- -- -- -- -- --  -- -- -- -- -- -- -- --
0130:          37 22 80 23 80  24 80 25 80 32 0C 80 1F     7".#.$.%.2...
0140: 00 26 80 27 80 28 80 1F  01 39 29 80 1C 11 80 03  .&.'.(...9).....
0150: 00 00 04 10 1A 1A 02 66  01 00 F0 FF FF 7F F0 FF  .......f........
0160: FF 7F 73 69 72 30 53 F0  FF FF 7F F0 FF FF 7F 73  ..sir0S........s
0170: 69 72 30 66 01 00 F0 FF  FF 7F F0 FF FF 7F 73 69  ir0f..........si
0180: 72 31 53 F0 FF FF 7F F0  FF FF 7F 73 69 72 31 00  r1S........sir1.
```

## Opcodes

```
  0: 0x0133 [0x37] UPDATE_EVENT_POSITION_AND_DIR: x=-213.948*, z=-102.386*, y=0.674*, direction=93.2°*
  1: 0x013C [0x32] ExtData[1]->MainSpeed = 13* * 0.1
  2: 0x013F [0x1F] MOVE_ENTITY: EventEntity moves to X=-214.521*, Z=-104.575*, Y=0.496*
  3: 0x0147 [0x1F] MOVE_ENTITY: Update entity position (mode=1)
  4: 0x0149 [0x39] SET_ENTITY_DIRECTION(direction=7.8°*)
  5: 0x014C [0x1C] WAIT(15* ticks)
  6: 0x014F [0x03] ExtData[1]->WorkLocal[0] = Work_Zone[4]
  7: 0x0154 [0x1A] CALL_SUBROUTINE(address=0x021A)
  8: 0x0157 [0x66] LOAD_EXT_SCHEDULER_MAIN(work_offset=0x0001, entity1=LocalPlayer, entity2=LocalPlayer, action="sir0")
  9: 0x0166 [0x53] WAIT_SCHEDULER_TASK(entity1=LocalPlayer, entity2=LocalPlayer, action_id="sir0")
 10: 0x0173 [0x66] LOAD_EXT_SCHEDULER_MAIN(work_offset=0x0001, entity1=LocalPlayer, entity2=LocalPlayer, action="sir1")
 11: 0x0182 [0x53] WAIT_SCHEDULER_TASK(entity1=LocalPlayer, entity2=LocalPlayer, action_id="sir1")
 12: 0x018F [0x00] END_REQSTACK()
```
