# Event 65535

## Metadata

| Field           | Value    |
|-----------------|----------|
| Event Index     | 23/28    |
| Offset          | 0x0C4D   |
| Data Size       | 44 bytes |
| Calculated Size | 44 bytes |
| Instructions    | 11       |

```
      00 01 02 03 04 05 06 07  08 09 0A 0B 0C 0D 0E 0F
      -- -- -- -- -- -- -- --  -- -- -- -- -- -- -- --
0C40:                                         24 90 80               $..
0C50: 01 80 01 80 25 02 00 10  01 80 00 65 0C 03 01 10  ....%......e....
0C60: 91 80 01 75 0C 02 00 10  02 80 00 75 0C 03 01 10  ...u.......u....
0C70: 92 80 01 75 0C 20 00 21  00                       ...u. .!.       
```

## Opcodes

```
  0: 0x0C4D [0x24] CREATE_DIALOG(message_id=6702*, default_option=0*, option_flags=0*)
    → "\u0001@m203_609\u0003t\u0003	\u0003O\u0017'\u0002D\u0002i\u0002E\u0003U\u0001[\u0003}\u0003X\u0001H\u0007\u000B\u0001@OK\u0003t\u0003	\u0003O\u0007\u0015P\u0015{\u00025\u0002)\u0003N\u0003
\u0003A\u0001[\u00025\u0002D\u0002H\u0002"\u007F1\u0000\u0007"
  1: 0x0C54 [0x25] WAIT_DIALOG_SELECT()
  2: 0x0C55 [0x02] IF !(Work_Zone[0] == 0*) GOTO 0x0C65
  3: 0x0C5D [0x03] Work_Zone[1] = 93*
  4: 0x0C62 [0x01] GOTO 0x0C75
  5: 0x0C65 [0x02] IF !(Work_Zone[0] == 1*) GOTO 0x0C75
  6: 0x0C6D [0x03] Work_Zone[1] = 94*
  7: 0x0C72 [0x01] GOTO 0x0C75

SUBROUTINE_0C75:
  8: 0x0C75 [0x20] SET_CLI_EVENT_UC_FLAG: Unlock player control
  9: 0x0C77 [0x21] END_EVENT
 10: 0x0C78 [0x00] END_REQSTACK()
```
