# Event 9751

## Metadata

| Field           | Value    |
|-----------------|----------|
| Event Index     | 3/4      |
| Offset          | 0x0064   |
| Data Size       | 20 bytes |
| Calculated Size | 20 bytes |
| Instructions    | 10       |

```
      00 01 02 03 04 05 06 07  08 09 0A 0B 0C 0D 0E 0F
      -- -- -- -- -- -- -- --  -- -- -- -- -- -- -- --
0060:             2E 1A D7 01  1E F0 FF FF 7F 6F 70 1D      .........op.
0070: 13 80 23 1A 86 00 21 00                           ..#...!.        
```

## Opcodes

```
  0: 0x0064 [0x2E] SET_CLI_EVENT_CANCEL_FLAGS()
  1: 0x0065 [0x1A] CALL_SUBROUTINE(address=0x01D7)
  2: 0x0068 [0x1E] EventEntity looks at LocalPlayer and starts talking
  3: 0x006D [0x6F] WAIT_FRAME_DELAY: Yield until WaitTime reaches zero
  4: 0x006E [0x70] WAIT_ENTITY_RENDER_FLAG: Wait while EventEntity->Render.Flags3 bit 2 is set (cancel turn if not)
  5: 0x006F [0x1D] PRINT_EVENT_MESSAGE(message_id=8012*)
    → "Heya, Dandy-\u007F\u0005[man/girl]. What you got for Emporox?\u007F1\u0000\u0007"
  6: 0x0072 [0x23] WAIT_FOR_DIALOG_INTERACTION
  7: 0x0073 [0x1A] CALL_SUBROUTINE(address=0x0086)
  8: 0x0076 [0x21] END_EVENT
  9: 0x0077 [0x00] END_REQSTACK()
```
