# Event 47

## Metadata

| Field           | Value    |
|-----------------|----------|
| Event Index     | 3/3      |
| Offset          | 0x002E   |
| Data Size       | 45 bytes |
| Calculated Size | 45 bytes |
| Instructions    | 13       |

```
      00 01 02 03 04 05 06 07  08 09 0A 0B 0C 0D 0E 0F
      -- -- -- -- -- -- -- --  -- -- -- -- -- -- -- --
0020:                                            24 00                $.
0030: 80 01 80 02 80 25 02 00  10 02 80 00 4A 00 43 00  .....%......J.C.
0040: 43 01 03 01 10 03 80 01  59 00 02 00 10 01 80 00  C.......Y.......
0050: 59 00 43 00 43 01 01 59  00 21 00                 Y.C.C..Y.!.     
```

## Opcodes

```
  0: 0x002E [0x24] CREATE_DIALOG(message_id=7082*, default_option=1*, option_flags=0*)
    → "Take this coin?\u0007\u000BYes.\u0007No.\u007F1\u0000\u0007"
  1: 0x0035 [0x25] WAIT_DIALOG_SELECT()
  2: 0x0036 [0x02] IF !(Work_Zone[0] == 0*) GOTO 0x004A
  3: 0x003E [0x43] SEND_EVENT_UPDATE: Send pending tag to server (packet 0x005B)
  4: 0x0040 [0x43] SEND_EVENT_UPDATE: Check pending flag (skip if not pending)
  5: 0x0042 [0x03] Work_Zone[1] = 2*
  6: 0x0047 [0x01] GOTO 0x0059

SUBROUTINE_004A:
  7: 0x004A [0x02] IF !(Work_Zone[0] == 1*) GOTO 0x0059
  8: 0x0052 [0x43] SEND_EVENT_UPDATE: Send pending tag to server (packet 0x005B)
  9: 0x0054 [0x43] SEND_EVENT_UPDATE: Check pending flag (skip if not pending)
 10: 0x0056 [0x01] GOTO 0x0059

SUBROUTINE_0059:
 11: 0x0059 [0x21] END_EVENT
 12: 0x005A [0x00] END_REQSTACK()
```
