# Event 65535

## Metadata

| Field           | Value    |
|-----------------|----------|
| Event Index     | 21/25    |
| Offset          | 0x01B7   |
| Data Size       | 67 bytes |
| Calculated Size | 67 bytes |
| Instructions    | 15       |

```
      00 01 02 03 04 05 06 07  08 09 0A 0B 0C 0D 0E 0F
      -- -- -- -- -- -- -- --  -- -- -- -- -- -- -- --
01B0:                      32  45 80 1F 00 46 80 47 80         2E...F.G.
01C0: 48 80 1F 01 4B 9B A0 0E  01 49 80 1C 22 80 1F 00  H...K....I.."...
01D0: 4A 80 4B 80 4C 80 1F 01  4B 9B A0 0E 01 4D 80 1C  J.K.L...K....M..
01E0: 4E 80 1F 00 4F 80 50 80  51 80 1F 01 1C 3E 80 4B  N...O.P.Q....>.K
01F0: 9B A0 0E 01 52 80 1C 22  80 00                    ....R.."..      
```

## Opcodes

```
  0: 0x01B7 [0x32] ExtData[1]->MainSpeed = 45* * 0.1
  1: 0x01BA [0x1F] MOVE_ENTITY: EventEntity moves to X=-599.295*, Z=590.678*, Y=0.264*
  2: 0x01C2 [0x1F] MOVE_ENTITY: Update entity position (mode=1)
  3: 0x01C4 [0x4B] UPDATE_ENTITY_YAW(entity=Unnamed NPC (ID: 17735835/0x010EA09B), yaw=5.3°*)
  4: 0x01CB [0x1C] WAIT(60* ticks)
  5: 0x01CE [0x1F] MOVE_ENTITY: EventEntity moves to X=-604.353*, Z=586.292*, Y=0.138*
  6: 0x01D6 [0x1F] MOVE_ENTITY: Update entity position (mode=1)
  7: 0x01D8 [0x4B] UPDATE_ENTITY_YAW(entity=Unnamed NPC (ID: 17735835/0x010EA09B), yaw=0.2°*)
  8: 0x01DF [0x1C] WAIT(240* ticks)
  9: 0x01E2 [0x1F] MOVE_ENTITY: EventEntity moves to X=-600.328*, Z=582.410*, Y=0.802*
 10: 0x01EA [0x1F] MOVE_ENTITY: Update entity position (mode=1)
 11: 0x01EC [0x1C] WAIT(30* ticks)
 12: 0x01EF [0x4B] UPDATE_ENTITY_YAW(entity=Unnamed NPC (ID: 17735835/0x010EA09B), yaw=16.6°*)
 13: 0x01F6 [0x1C] WAIT(60* ticks)
 14: 0x01F9 [0x00] END_REQSTACK()
```
