# Event 65535

## Metadata

| Field           | Value    |
|-----------------|----------|
| Event Index     | 23/25    |
| Offset          | 0x0208   |
| Data Size       | 51 bytes |
| Calculated Size | 51 bytes |
| Instructions    | 11       |

```
      00 01 02 03 04 05 06 07  08 09 0A 0B 0C 0D 0E 0F
      -- -- -- -- -- -- -- --  -- -- -- -- -- -- -- --
0200:                          32 45 80 1F 00 56 80 57          2E...V.W
0210: 80 58 80 1F 01 1F 00 59  80 5A 80 5B 80 1F 01 1F  .X.....Y.Z.[....
0220: 00 5C 80 5D 80 5E 80 1F  01 1E 97 A0 0E 01 1C 3E  .\.].^.........>
0230: 80 4A 97 A0 0E 01 9B A0  0E 01 00                 .J.........     
```

## Opcodes

```
  0: 0x0208 [0x32] ExtData[1]->MainSpeed = 45* * 0.1
  1: 0x020B [0x1F] MOVE_ENTITY: EventEntity moves to X=-604.257*, Z=586.573*, Y=0.057*
  2: 0x0213 [0x1F] MOVE_ENTITY: Update entity position (mode=1)
  3: 0x0215 [0x1F] MOVE_ENTITY: EventEntity moves to X=-603.318*, Z=588.527*, Y=0.196*
  4: 0x021D [0x1F] MOVE_ENTITY: Update entity position (mode=1)
  5: 0x021F [0x1F] MOVE_ENTITY: EventEntity moves to X=-601.495*, Z=586.040*, Y=0.496*
  6: 0x0227 [0x1F] MOVE_ENTITY: Update entity position (mode=1)
  7: 0x0229 [0x1E] EventEntity looks at Unnamed NPC (ID: 17735831/0x010EA097) and starts talking
  8: 0x022E [0x1C] WAIT(30* ticks)
  9: 0x0231 [0x4A] Unnamed NPC (ID: 17735831/0x010EA097) looks at Unnamed NPC (ID: 17735835/0x010EA09B)
 10: 0x023A [0x00] END_REQSTACK()
```
