# Event 65535

## Metadata

| Field           | Value    |
|-----------------|----------|
| Event Index     | 17/25    |
| Offset          | 0x0120   |
| Data Size       | 45 bytes |
| Calculated Size | 45 bytes |
| Instructions    | 10       |

```
      00 01 02 03 04 05 06 07  08 09 0A 0B 0C 0D 0E 0F
      -- -- -- -- -- -- -- --  -- -- -- -- -- -- -- --
0120: 02 04 00 23 80 01 4C 01  32 24 80 1F 00 25 80 26  ...#..L.2$...%.&
0130: 80 27 80 1F 01 1F 00 28  80 29 80 2A 80 1F 01 1F  .'.....(.).*....
0140: 00 2B 80 2C 80 2D 80 1F  01 01 20 01 00           .+.,.-.... ..   
```

## Opcodes

```
  0: 0x0120 [0x02] IF !(ExtData[1]->WorkLocal[4] == 2*) GOTO 0x014C
  1: 0x0128 [0x32] ExtData[1]->MainSpeed = 15* * 0.1
  2: 0x012B [0x1F] MOVE_ENTITY: EventEntity moves to X=-597.769*, Z=608.337*, Y=0.215*
  3: 0x0133 [0x1F] MOVE_ENTITY: Update entity position (mode=1)
  4: 0x0135 [0x1F] MOVE_ENTITY: EventEntity moves to X=-599.753*, Z=608.709*, Y=0.233*
  5: 0x013D [0x1F] MOVE_ENTITY: Update entity position (mode=1)
  6: 0x013F [0x1F] MOVE_ENTITY: EventEntity moves to X=-603.262*, Z=606.367*, Y=0.116*
  7: 0x0147 [0x1F] MOVE_ENTITY: Update entity position (mode=1)
  8: 0x0149 [0x01] GOTO 0x0120
  9: 0x014C [0x00] END_REQSTACK()
```
