# Event 360

## Metadata

| Field           | Value    |
|-----------------|----------|
| Event Index     | 41/72    |
| Offset          | 0x04DE   |
| Data Size       | 40 bytes |
| Calculated Size | 40 bytes |
| Instructions    | 11       |

```
      00 01 02 03 04 05 06 07  08 09 0A 0B 0C 0D 0E 0F
      -- -- -- -- -- -- -- --  -- -- -- -- -- -- -- --
04D0:                                            42 29                B)
04E0: 08 2F E0 0E 01 01 1E F0  FF FF 7F 6F 70 29 0B 2F  ./.........op)./
04F0: E0 0E 01 29 29 0B 2F E0  0E 01 2A 29 08 2F E0 0E  ...))./...*)./..
0500: 01 02 20 00 21 00                                 .. .!.          
```

## Opcodes

```
  0: 0x04DE [0x42] SET_CLI_EVENT_CANCEL_DATA()
  1: 0x04DF [0x29] REQ_SET_WAIT(priority=0x08, entity_id=Kerutoto (ID: 17752111/0x010EE02F), tag_num=0x01)
  2: 0x04E6 [0x1E] EventEntity looks at LocalPlayer and starts talking
  3: 0x04EB [0x6F] WAIT_FRAME_DELAY: Yield until WaitTime reaches zero
  4: 0x04EC [0x70] WAIT_ENTITY_RENDER_FLAG: Wait while EventEntity->Render.Flags3 bit 2 is set (cancel turn if not)
  5: 0x04ED [0x29] REQ_SET_WAIT(priority=0x0B, entity_id=Kerutoto (ID: 17752111/0x010EE02F), tag_num=0x29)
  6: 0x04F4 [0x29] REQ_SET_WAIT(priority=0x0B, entity_id=Kerutoto (ID: 17752111/0x010EE02F), tag_num=0x2A)
  7: 0x04FB [0x29] REQ_SET_WAIT(priority=0x08, entity_id=Kerutoto (ID: 17752111/0x010EE02F), tag_num=0x02)
  8: 0x0502 [0x20] SET_CLI_EVENT_UC_FLAG: Unlock player control
  9: 0x0504 [0x21] END_EVENT
 10: 0x0505 [0x00] END_REQSTACK()
```
