# Event 65535

## Metadata

| Field           | Value    |
|-----------------|----------|
| Event Index     | 57/72    |
| Offset          | 0x089F   |
| Data Size       | 73 bytes |
| Calculated Size | 73 bytes |
| Instructions    | 7        |

```
      00 01 02 03 04 05 06 07  08 09 0A 0B 0C 0D 0E 0F
      -- -- -- -- -- -- -- --  -- -- -- -- -- -- -- --
0890:                                               45                 E
08A0: 59 80 F0 FF FF 7F F0 FF  FF 7F 73 30 30 35 0B 80  Y.........s005..
08B0: 1C 5A 80 52 59 80 F0 FF  FF 7F F0 FF FF 7F 73 30  .Z.RY.........s0
08C0: 30 35 45 38 80 F0 FF FF  7F F0 FF FF 7F 6F 76 6C  05E8.........ovl
08D0: 31 0B 80 45 59 80 F0 FF  FF 7F F0 FF FF 7F 73 30  1..EY.........s0
08E0: 30 31 0B 80 1C 3C 80 00                           01...<..        
```

## Opcodes

```
  0: 0x089F [0x45] LOAD_SCHEDULED_TASK(work_offset1=248*, entity1=LocalPlayer, entity2=LocalPlayer, scheduler_id="s005", work_offset2=0*)
  1: 0x08B0 [0x1C] WAIT(150* ticks)
  2: 0x08B3 [0x52] END_LOAD_SCHEDULER: End scheduler "s005" with entities [LocalPlayer, LocalPlayer], work=248*
  3: 0x08C2 [0x45] LOAD_SCHEDULED_TASK(work_offset1=200*, entity1=LocalPlayer, entity2=LocalPlayer, scheduler_id="ovl1", work_offset2=0*)
  4: 0x08D3 [0x45] LOAD_SCHEDULED_TASK(work_offset1=248*, entity1=LocalPlayer, entity2=LocalPlayer, scheduler_id="s001", work_offset2=0*)
  5: 0x08E4 [0x1C] WAIT(100* ticks)
  6: 0x08E7 [0x00] END_REQSTACK()
```
