# Event 737

## Metadata

| Field           | Value    |
|-----------------|----------|
| Event Index     | 50/72    |
| Offset          | 0x0816   |
| Data Size       | 36 bytes |
| Calculated Size | 36 bytes |
| Instructions    | 14       |

```
      00 01 02 03 04 05 06 07  08 09 0A 0B 0C 0D 0E 0F
      -- -- -- -- -- -- -- --  -- -- -- -- -- -- -- --
0810:                   20 01  42 29 08 2F E0 0E 01 01         .B)./....
0820: 1E F0 FF FF 7F 6F 70 1D  3E 80 23 1D 4D 80 23 29  .....op.>.#.M.#)
0830: 08 2F E0 0E 01 02 20 00  21 00                    ./.... .!.      
```

## Opcodes

```
  0: 0x0816 [0x20] SET_CLI_EVENT_UC_FLAG: Lock player control
  1: 0x0818 [0x42] SET_CLI_EVENT_CANCEL_DATA()
  2: 0x0819 [0x29] REQ_SET_WAIT(priority=0x08, entity_id=Kerutoto (ID: 17752111/0x010EE02F), tag_num=0x01)
  3: 0x0820 [0x1E] EventEntity looks at LocalPlayer and starts talking
  4: 0x0825 [0x6F] WAIT_FRAME_DELAY: Yield until WaitTime reaches zero
  5: 0x0826 [0x70] WAIT_ENTITY_RENDER_FLAG: Wait while EventEntity->Render.Flags3 bit 2 is set (cancel turn if not)
  6: 0x0827 [0x1D] PRINT_EVENT_MESSAGE(message_id=9724*)
    → "Have you talked with Leepe-Hoppe on the second floor?\u007F1\u0000\u0007"
  7: 0x082A [0x23] WAIT_FOR_DIALOG_INTERACTION
  8: 0x082B [0x1D] PRINT_EVENT_MESSAGE(message_id=9725*)
    → "Please go talk with him firstaru. If he doesn't know someone has accepted the mission, he won't be able think straight for worry.\u007F1\u0000\u0007"
  9: 0x082E [0x23] WAIT_FOR_DIALOG_INTERACTION
 10: 0x082F [0x29] REQ_SET_WAIT(priority=0x08, entity_id=Kerutoto (ID: 17752111/0x010EE02F), tag_num=0x02)
 11: 0x0836 [0x20] SET_CLI_EVENT_UC_FLAG: Unlock player control
 12: 0x0838 [0x21] END_EVENT
 13: 0x0839 [0x00] END_REQSTACK()
```
