# Event 576

## Metadata

| Field           | Value    |
|-----------------|----------|
| Event Index     | 40/47    |
| Offset          | 0x03EB   |
| Data Size       | 33 bytes |
| Calculated Size | 33 bytes |
| Instructions    | 12       |

```
      00 01 02 03 04 05 06 07  08 09 0A 0B 0C 0D 0E 0F
      -- -- -- -- -- -- -- --  -- -- -- -- -- -- -- --
03E0:                                   1E F0 FF FF 7F             .....
03F0: 6F 70 29 08 12 10 0F 01  01 1D 33 80 23 1D 34 80  op).......3.#.4.
0400: 23 29 08 12 10 0F 01 09  20 00 21 00              #)...... .!.    
```

## Opcodes

```
  0: 0x03EB [0x1E] EventEntity looks at LocalPlayer and starts talking
  1: 0x03F0 [0x6F] WAIT_FRAME_DELAY: Yield until WaitTime reaches zero
  2: 0x03F1 [0x70] WAIT_ENTITY_RENDER_FLAG: Wait while EventEntity->Render.Flags3 bit 2 is set (cancel turn if not)
  3: 0x03F2 [0x29] REQ_SET_WAIT(priority=0x08, entity_id=Sola Jaab (ID: 17764370/0x010F1012), tag_num=0x01)
  4: 0x03F9 [0x1D] PRINT_EVENT_MESSAGE(message_id=9456*)
    → "We Mithra came to Windurst from a village far to the south.\u007F1\u0000\u0007"
  5: 0x03FC [0x23] WAIT_FOR_DIALOG_INTERACTION
  6: 0x03FD [0x1D] PRINT_EVENT_MESSAGE(message_id=9457*)
    → "...I don't really rememberrr much about it, though. Just that it was always hot.\u007F1\u0000\u0007"
  7: 0x0400 [0x23] WAIT_FOR_DIALOG_INTERACTION
  8: 0x0401 [0x29] REQ_SET_WAIT(priority=0x08, entity_id=Sola Jaab (ID: 17764370/0x010F1012), tag_num=0x09)
  9: 0x0408 [0x20] SET_CLI_EVENT_UC_FLAG: Unlock player control
 10: 0x040A [0x21] END_EVENT
 11: 0x040B [0x00] END_REQSTACK()
```
