# Event 595

## Metadata

| Field           | Value    |
|-----------------|----------|
| Event Index     | 36/47    |
| Offset          | 0x032F   |
| Data Size       | 33 bytes |
| Calculated Size | 33 bytes |
| Instructions    | 12       |

```
      00 01 02 03 04 05 06 07  08 09 0A 0B 0C 0D 0E 0F
      -- -- -- -- -- -- -- --  -- -- -- -- -- -- -- --
0320:                                               1E                 .
0330: F0 FF FF 7F 6F 70 29 08  12 10 0F 01 01 1D 2B 80  ....op).......+.
0340: 23 1D 2C 80 23 29 08 12  10 0F 01 09 20 00 21 00  #.,.#)...... .!.
```

## Opcodes

```
  0: 0x032F [0x1E] EventEntity looks at LocalPlayer and starts talking
  1: 0x0334 [0x6F] WAIT_FRAME_DELAY: Yield until WaitTime reaches zero
  2: 0x0335 [0x70] WAIT_ENTITY_RENDER_FLAG: Wait while EventEntity->Render.Flags3 bit 2 is set (cancel turn if not)
  3: 0x0336 [0x29] REQ_SET_WAIT(priority=0x08, entity_id=Sola Jaab (ID: 17764370/0x010F1012), tag_num=0x01)
  4: 0x033D [0x1D] PRINT_EVENT_MESSAGE(message_id=9413*)
    → "Captain Rakoh Buuma has been fuming that the guards of Windurst Woods have \u00072rrreally been slacking off, slacking off completely\u00073!\u007F1\u0000\u0007"
  5: 0x0340 [0x23] WAIT_FOR_DIALOG_INTERACTION
  6: 0x0341 [0x1D] PRINT_EVENT_MESSAGE(message_id=9414*)
    → "I wonderrr if she found out about me fishing during patrol duty? I'm not gonna fish anymorrre! I'm gonna do my job properly!\u007F1\u0000\u0007"
  7: 0x0344 [0x23] WAIT_FOR_DIALOG_INTERACTION
  8: 0x0345 [0x29] REQ_SET_WAIT(priority=0x08, entity_id=Sola Jaab (ID: 17764370/0x010F1012), tag_num=0x09)
  9: 0x034C [0x20] SET_CLI_EVENT_UC_FLAG: Unlock player control
 10: 0x034E [0x21] END_EVENT
 11: 0x034F [0x00] END_REQSTACK()
```
