# Event 108

## Metadata

| Field           | Value    |
|-----------------|----------|
| Event Index     | 63/79    |
| Offset          | 0x0665   |
| Data Size       | 33 bytes |
| Calculated Size | 33 bytes |
| Instructions    | 12       |

```
      00 01 02 03 04 05 06 07  08 09 0A 0B 0C 0D 0E 0F
      -- -- -- -- -- -- -- --  -- -- -- -- -- -- -- --
0660:                1E F0 FF  FF 7F 6F 70 29 08 08 A0       .....op)...
0670: 0F 01 0D 1D 3D 80 23 29  08 08 A0 0F 01 0E 1D 3E  ....=.#).......>
0680: 80 23 20 00 21 00                                 .# .!.          
```

## Opcodes

```
  0: 0x0665 [0x1E] EventEntity looks at LocalPlayer and starts talking
  1: 0x066A [0x6F] WAIT_FRAME_DELAY: Yield until WaitTime reaches zero
  2: 0x066B [0x70] WAIT_ENTITY_RENDER_FLAG: Wait while EventEntity->Render.Flags3 bit 2 is set (cancel turn if not)
  3: 0x066C [0x29] REQ_SET_WAIT(priority=0x08, entity_id=Jakoh Wahcondalo (ID: 17801224/0x010FA008), tag_num=0x0D)
  4: 0x0673 [0x1D] PRINT_EVENT_MESSAGE(message_id=10160*)
    → "The \u0001\u0005#\u0002\u0001\u0000\u0000 in your body has the power to call forrrth the Tonberries. That is why anyone currrsed with that flame is forrrbidden frrrom enterrring Kazham!\u007F1\u0000\u0007"
  5: 0x0676 [0x23] WAIT_FOR_DIALOG_INTERACTION
  6: 0x0677 [0x29] REQ_SET_WAIT(priority=0x08, entity_id=Jakoh Wahcondalo (ID: 17801224/0x010FA008), tag_num=0x0E)
  7: 0x067E [0x1D] PRINT_EVENT_MESSAGE(message_id=10161*)
    → "You have a day. Get yourrr things togetherrr and get out of my village!\u007F1\u0000\u0007"
  8: 0x0681 [0x23] WAIT_FOR_DIALOG_INTERACTION
  9: 0x0682 [0x20] SET_CLI_EVENT_UC_FLAG: Unlock player control
 10: 0x0684 [0x21] END_EVENT
 11: 0x0685 [0x00] END_REQSTACK()
```
