# Event 115

## Metadata

| Field           | Value    |
|-----------------|----------|
| Event Index     | 29/79    |
| Offset          | 0x044F   |
| Data Size       | 43 bytes |
| Calculated Size | 43 bytes |
| Instructions    | 12       |

```
      00 01 02 03 04 05 06 07  08 09 0A 0B 0C 0D 0E 0F
      -- -- -- -- -- -- -- --  -- -- -- -- -- -- -- --
0440:                                               1E                 .
0450: F0 FF FF 7F 6F 70 29 08  08 A0 0F 01 01 1D 14 80  ....op).........
0460: 23 29 08 08 A0 0F 01 01  29 08 08 A0 0F 01 03 29  #)......)......)
0470: 08 08 A0 0F 01 04 20 00  21 00                    ...... .!.      
```

## Opcodes

```
  0: 0x044F [0x1E] EventEntity looks at LocalPlayer and starts talking
  1: 0x0454 [0x6F] WAIT_FRAME_DELAY: Yield until WaitTime reaches zero
  2: 0x0455 [0x70] WAIT_ENTITY_RENDER_FLAG: Wait while EventEntity->Render.Flags3 bit 2 is set (cancel turn if not)
  3: 0x0456 [0x29] REQ_SET_WAIT(priority=0x08, entity_id=Jakoh Wahcondalo (ID: 17801224/0x010FA008), tag_num=0x01)
  4: 0x045D [0x1D] PRINT_EVENT_MESSAGE(message_id=9975*)
    → "You don't know the way to the temple? It's just to the southeast of here. But that's all the help I can give you. I'm not rrrisking my, or any of my guards', tails.\u007F1\u0000\u0007"
  5: 0x0460 [0x23] WAIT_FOR_DIALOG_INTERACTION
  6: 0x0461 [0x29] REQ_SET_WAIT(priority=0x08, entity_id=Jakoh Wahcondalo (ID: 17801224/0x010FA008), tag_num=0x01)
  7: 0x0468 [0x29] REQ_SET_WAIT(priority=0x08, entity_id=Jakoh Wahcondalo (ID: 17801224/0x010FA008), tag_num=0x03)
  8: 0x046F [0x29] REQ_SET_WAIT(priority=0x08, entity_id=Jakoh Wahcondalo (ID: 17801224/0x010FA008), tag_num=0x04)
  9: 0x0476 [0x20] SET_CLI_EVENT_UC_FLAG: Unlock player control
 10: 0x0478 [0x21] END_EVENT
 11: 0x0479 [0x00] END_REQSTACK()
```
