# Event 65535

## Metadata

| Field           | Value    |
|-----------------|----------|
| Event Index     | 11/15    |
| Offset          | 0x0043   |
| Data Size       | 42 bytes |
| Calculated Size | 42 bytes |
| Instructions    | 10       |

```
      00 01 02 03 04 05 06 07  08 09 0A 0B 0C 0D 0E 0F
      -- -- -- -- -- -- -- --  -- -- -- -- -- -- -- --
0040:          1C 06 80 4A 13  70 0E 01 03 70 0E 01 6F     ...J.p...p..o
0050: 76 13 70 0E 01 1C 06 80  32 04 80 1F 00 07 80 08  v.p.....2.......
0060: 80 02 80 1F 01 4B 12 70  0E 01 09 80 00           .....K.p.....   
```

## Opcodes

```
  0: 0x0043 [0x1C] WAIT(60* ticks)
  1: 0x0046 [0x4A] Prerivon (ID: 17723411/0x010E7013) looks at Pieuje (ID: 17723395/0x010E7003)
  2: 0x004F [0x6F] WAIT_FRAME_DELAY: Yield until WaitTime reaches zero
  3: 0x0050 [0x76] CHECK_ENTITY_RENDER_FLAGS: Wait until Prerivon (ID: 17723411/0x010E7013) Render.Flags0 and Render.Flags3 conditions are met
  4: 0x0055 [0x1C] WAIT(60* ticks)
  5: 0x0058 [0x32] ExtData[1]->MainSpeed = 13* * 0.1
  6: 0x005B [0x1F] MOVE_ENTITY: EventEntity moves to X=140.768*, Z=139.072*, Y=0.000*
  7: 0x0063 [0x1F] MOVE_ENTITY: Update entity position (mode=1)
  8: 0x0065 [0x4B] UPDATE_ENTITY_YAW(entity=Fittesegat (ID: 17723410/0x010E7012), yaw=0.94°*)
  9: 0x006C [0x00] END_REQSTACK()
```
