# Event 277

## Metadata

| Field           | Value    |
|-----------------|----------|
| Event Index     | 71/79    |
| Offset          | 0x2DE4   |
| Data Size       | 33 bytes |
| Calculated Size | 33 bytes |
| Instructions    | 12       |

```
      00 01 02 03 04 05 06 07  08 09 0A 0B 0C 0D 0E 0F
      -- -- -- -- -- -- -- --  -- -- -- -- -- -- -- --
2DE0:             1E F0 FF FF  7F 6F 70 29 08 53 20 0F      .....op).S .
2DF0: 01 01 1D 8B 80 23 1D 8C  80 23 29 08 53 20 0F 01  .....#...#).S ..
2E00: 02 20 00 21 00                                    . .!.           
```

## Opcodes

```
  0: 0x2DE4 [0x1E] EventEntity looks at LocalPlayer and starts talking
  1: 0x2DE9 [0x6F] WAIT_FRAME_DELAY: Yield until WaitTime reaches zero
  2: 0x2DEA [0x70] WAIT_ENTITY_RENDER_FLAG: Wait while EventEntity->Render.Flags3 bit 2 is set (cancel turn if not)
  3: 0x2DEB [0x29] REQ_SET_WAIT(priority=0x08, entity_id=Chumimi (ID: 17768531/0x010F2053), tag_num=0x01)
  4: 0x2DF2 [0x1D] PRINT_EVENT_MESSAGE(message_id=8061*)
    → "Finally something is happily-happening! And once your access to the Toraimarai Canal has been granted, we may get some answers at last!\u007F1\u0000\u0007"
  5: 0x2DF5 [0x23] WAIT_FOR_DIALOG_INTERACTION
  6: 0x2DF6 [0x1D] PRINT_EVENT_MESSAGE(message_id=8062*)
    → "But we'll need that magic doll first. Professor Koru-Moru needs you to bring \u0001\u0001\u0001 \u0001\u0005$\u0002\u0001\u0000\u0000 to him at his major manor.\u007F1\u0000\u0007"
  7: 0x2DF9 [0x23] WAIT_FOR_DIALOG_INTERACTION
  8: 0x2DFA [0x29] REQ_SET_WAIT(priority=0x08, entity_id=Chumimi (ID: 17768531/0x010F2053), tag_num=0x02)
  9: 0x2E01 [0x20] SET_CLI_EVENT_UC_FLAG: Unlock player control
 10: 0x2E03 [0x21] END_EVENT
 11: 0x2E04 [0x00] END_REQSTACK()
```
