# Event 282

## Metadata

| Field           | Value    |
|-----------------|----------|
| Event Index     | 78/79    |
| Offset          | 0x34B6   |
| Data Size       | 33 bytes |
| Calculated Size | 33 bytes |
| Instructions    | 12       |

```
      00 01 02 03 04 05 06 07  08 09 0A 0B 0C 0D 0E 0F
      -- -- -- -- -- -- -- --  -- -- -- -- -- -- -- --
34B0:                   1E F0  FF FF 7F 6F 70 29 08 53        .....op).S
34C0: 20 0F 01 01 1D 94 80 23  1D 95 80 23 29 08 53 20   ......#...#).S 
34D0: 0F 01 02 20 00 21 00                              ... .!.         
```

## Opcodes

```
  0: 0x34B6 [0x1E] EventEntity looks at LocalPlayer and starts talking
  1: 0x34BB [0x6F] WAIT_FRAME_DELAY: Yield until WaitTime reaches zero
  2: 0x34BC [0x70] WAIT_ENTITY_RENDER_FLAG: Wait while EventEntity->Render.Flags3 bit 2 is set (cancel turn if not)
  3: 0x34BD [0x29] REQ_SET_WAIT(priority=0x08, entity_id=Chumimi (ID: 17768531/0x010F2053), tag_num=0x01)
  4: 0x34C4 [0x1D] PRINT_EVENT_MESSAGE(message_id=8092*)
    → "Thank you so much for your help. The three professors are as grateful as a giant goobbue.\u007F1\u0000\u0007"
  5: 0x34C7 [0x23] WAIT_FOR_DIALOG_INTERACTION
  6: 0x34C8 [0x1D] PRINT_EVENT_MESSAGE(message_id=8093*)
    → "Oh, the Gate of Earth? Well, the central tower is under the jurisdiction of Heaven Tower, so I'm sure the cleric Kupipi will grant you permission to travel down there rightaru away.\u007F1\u0000\u0007"
  7: 0x34CB [0x23] WAIT_FOR_DIALOG_INTERACTION
  8: 0x34CC [0x29] REQ_SET_WAIT(priority=0x08, entity_id=Chumimi (ID: 17768531/0x010F2053), tag_num=0x02)
  9: 0x34D3 [0x20] SET_CLI_EVENT_UC_FLAG: Unlock player control
 10: 0x34D5 [0x21] END_EVENT
 11: 0x34D6 [0x00] END_REQSTACK()
```
