# Event 65535

## Metadata

| Field           | Value    |
|-----------------|----------|
| Event Index     | 55/79    |
| Offset          | 0x2333   |
| Data Size       | 37 bytes |
| Calculated Size | 37 bytes |
| Instructions    | 9        |

```
      00 01 02 03 04 05 06 07  08 09 0A 0B 0C 0D 0E 0F
      -- -- -- -- -- -- -- --  -- -- -- -- -- -- -- --
2330:          29 08 53 20 0F  01 03 1D 6A 80 23 29 08     ).S ....j.#).
2340: 53 20 0F 01 04 29 08 53  20 0F 01 05 1D 6B 80 23  S ...).S ....k.#
2350: 29 08 53 20 0F 01 06 00                           ).S ....        
```

## Opcodes

```
  0: 0x2333 [0x29] REQ_SET_WAIT(priority=0x08, entity_id=Chumimi (ID: 17768531/0x010F2053), tag_num=0x03)
  1: 0x233A [0x1D] PRINT_EVENT_MESSAGE(message_id=7958*)
    → "By looking at the number on the bag, I can tell you that these are as old as an old Quadav. I'd have to check the records to make sure, but this appears to be a bag that was lost during the Great War.\u007F1\u0000\u0007"
  2: 0x233D [0x23] WAIT_FOR_DIALOG_INTERACTION
  3: 0x233E [0x29] REQ_SET_WAIT(priority=0x08, entity_id=Chumimi (ID: 17768531/0x010F2053), tag_num=0x04)
  4: 0x2345 [0x29] REQ_SET_WAIT(priority=0x08, entity_id=Chumimi (ID: 17768531/0x010F2053), tag_num=0x05)
  5: 0x234C [0x1D] PRINT_EVENT_MESSAGE(message_id=7959*)
    → "Many seeds were lost when Windurst Walls flooded twenty years ago.\u007F1\u0000\u0007"
  6: 0x234F [0x23] WAIT_FOR_DIALOG_INTERACTION
  7: 0x2350 [0x29] REQ_SET_WAIT(priority=0x08, entity_id=Chumimi (ID: 17768531/0x010F2053), tag_num=0x06)
  8: 0x2357 [0x00] END_REQSTACK()
```
