# Event 65535

## Metadata

| Field           | Value    |
|-----------------|----------|
| Event Index     | 11/19    |
| Offset          | 0x0044   |
| Data Size       | 80 bytes |
| Calculated Size | 80 bytes |
| Instructions    | 9        |

```
      00 01 02 03 04 05 06 07  08 09 0A 0B 0C 0D 0E 0F
      -- -- -- -- -- -- -- --  -- -- -- -- -- -- -- --
0040:             1A 35 01 02  01 00 02 80 00 66 00 B6      .5.......f..
0050: 0B 05 80 06 80 02 80 07  80 03 80 03 80 03 80 02  ................
0060: 80 02 80 01 7A 00 B6 0B  01 00 06 80 02 80 07 80  ....z...........
0070: 03 80 03 80 03 80 02 80  02 80 7E 03 F8 FF FF 7F  ..........~.....
0080: 02 00 02 80 03 00 04 00  05 00 7E 04 F8 FF FF 7F  ..........~.....
0090: 32 08 80 00                                       2...            
```

## Opcodes

```
  0: 0x0044 [0x1A] CALL_SUBROUTINE(address=0x0135)
  1: 0x0047 [0x02] IF !(ExtData[1]->WorkLocal[1] == 0*) GOTO 0x0066
  2: 0x004F [0xB6] ENTITY_APPEARANCE_HANDLER(case=Full entity look, race=8*, hair=4*, head=0*, body=188*, hands=6*, legs=6*, feet=6*, main=0*, sub=0*)
  3: 0x0063 [0x01] GOTO 0x007A

SUBROUTINE_0066:
  4: 0x0066 [0xB6] ENTITY_APPEARANCE_HANDLER(case=Full entity look, race=1, hair=4*, head=0*, body=188*, hands=6*, legs=6*, feet=6*, main=0*, sub=0*)
  5: 0x007A [0x7E] CHOCOBO_MOUNT: Mount custom chocobo on EventEntity (index=2, color=32770, name_id=3)
  6: 0x008A [0x7E] CHOCOBO_MOUNT: Mode 4 on EventEntity
  7: 0x0090 [0x32] ExtData[1]->MainSpeed = 80* * 0.1
  8: 0x0093 [0x00] END_REQSTACK()
```
