# Event 65535

## Metadata

| Field           | Value    |
|-----------------|----------|
| Event Index     | 4/4      |
| Offset          | 0x0003   |
| Data Size       | 71 bytes |
| Calculated Size | 71 bytes |
| Instructions    | 15       |

```
      00 01 02 03 04 05 06 07  08 09 0A 0B 0C 0D 0E 0F
      -- -- -- -- -- -- -- --  -- -- -- -- -- -- -- --
0000:          27 10 4E C1 0E  01 0A 1C 00 80 27 10 4F     '.N.......'.O
0010: C1 0E 01 0A 1C 00 80 27  10 50 C1 0E 01 0A 1C 00  .......'.P......
0020: 80 27 10 51 C1 0E 01 0A  1C 00 80 27 10 52 C1 0E  .'.Q.......'.R..
0030: 01 0A 1C 00 80 27 10 53  C1 0E 01 0A 1C 00 80 27  .....'.S.......'
0040: 10 54 C1 0E 01 0A 1C 00  80 00                    .T........      
```

## Opcodes

```
  0: 0x0003 [0x27] REQ_SET(priority=0x10, entity_id=Disjoined One (ID: 17744206/0x010EC14E), tag_num=0x0A)
  1: 0x000A [0x1C] WAIT(45* ticks)
  2: 0x000D [0x27] REQ_SET(priority=0x10, entity_id=Disjoined One (ID: 17744207/0x010EC14F), tag_num=0x0A)
  3: 0x0014 [0x1C] WAIT(45* ticks)
  4: 0x0017 [0x27] REQ_SET(priority=0x10, entity_id=Disjoined One (ID: 17744208/0x010EC150), tag_num=0x0A)
  5: 0x001E [0x1C] WAIT(45* ticks)
  6: 0x0021 [0x27] REQ_SET(priority=0x10, entity_id=Disjoined One (ID: 17744209/0x010EC151), tag_num=0x0A)
  7: 0x0028 [0x1C] WAIT(45* ticks)
  8: 0x002B [0x27] REQ_SET(priority=0x10, entity_id=Disjoined One (ID: 17744210/0x010EC152), tag_num=0x0A)
  9: 0x0032 [0x1C] WAIT(45* ticks)
 10: 0x0035 [0x27] REQ_SET(priority=0x10, entity_id=Disjoined One (ID: 17744211/0x010EC153), tag_num=0x0A)
 11: 0x003C [0x1C] WAIT(45* ticks)
 12: 0x003F [0x27] REQ_SET(priority=0x10, entity_id=Disjoined One (ID: 17744212/0x010EC154), tag_num=0x0A)
 13: 0x0046 [0x1C] WAIT(45* ticks)
 14: 0x0049 [0x00] END_REQSTACK()
```
