# Event 10163

## Metadata

| Field           | Value    |
|-----------------|----------|
| Event Index     | 40/41    |
| Offset          | 0x010E   |
| Data Size       | 47 bytes |
| Calculated Size | 47 bytes |
| Instructions    | 13       |

```
      00 01 02 03 04 05 06 07  08 09 0A 0B 0C 0D 0E 0F
      -- -- -- -- -- -- -- --  -- -- -- -- -- -- -- --
0100:                                            42 1D                B.
0110: 23 80 23 24 24 80 17 80  05 80 25 02 00 10 05 80  #.#$$.....%.....
0120: 00 2B 01 03 01 10 17 80  01 3B 01 02 00 10 17 80  .+.......;......
0130: 00 3B 01 03 01 10 05 80  01 3B 01 21 00           .;.......;.!.   
```

## Opcodes

```
  0: 0x010E [0x42] SET_CLI_EVENT_CANCEL_DATA()
  1: 0x010F [0x1D] PRINT_EVENT_MESSAGE(message_id=12119*)
    → "We'll duke it out at Qu'Bia Arena. Ye ready to go?\u007F1\u0000\u0007"
  2: 0x0112 [0x23] WAIT_FOR_DIALOG_INTERACTION
  3: 0x0113 [0x24] CREATE_DIALOG(message_id=12120*, default_option=1*, option_flags=0*)
    → "Go to Qu'Bia Arena?\u0007\u000BReady when you are!\u0007I need time to prepare...\u007F1\u0000\u0007"
  4: 0x011A [0x25] WAIT_DIALOG_SELECT()
  5: 0x011B [0x02] IF !(Work_Zone[0] == 0*) GOTO 0x012B
  6: 0x0123 [0x03] Work_Zone[1] = 1*
  7: 0x0128 [0x01] GOTO 0x013B

SUBROUTINE_012B:
  8: 0x012B [0x02] IF !(Work_Zone[0] == 1*) GOTO 0x013B
  9: 0x0133 [0x03] Work_Zone[1] = 0*
 10: 0x0138 [0x01] GOTO 0x013B

SUBROUTINE_013B:
 11: 0x013B [0x21] END_EVENT
 12: 0x013C [0x00] END_REQSTACK()
```
