# Event 65535

## Metadata

| Field           | Value    |
|-----------------|----------|
| Event Index     | 35/41    |
| Offset          | 0x00BA   |
| Data Size       | 57 bytes |
| Calculated Size | 57 bytes |
| Instructions    | 12       |

```
      00 01 02 03 04 05 06 07  08 09 0A 0B 0C 0D 0E 0F
      -- -- -- -- -- -- -- --  -- -- -- -- -- -- -- --
00B0:                                02 00 00 05 80 00            ......
00C0: F2 00 6E F8 FF FF 7F 1B  80 99 F8 FF FF 7F 1C 1C  ..n.............
00D0: 80 6E F8 FF FF 7F 1D 80  99 F8 FF FF 7F 1C 1C 80  .n..............
00E0: 6E F8 FF FF 7F 1E 80 99  F8 FF FF 7F 1C 1C 80 01  n...............
00F0: BA 00 00                                          ...             
```

## Opcodes

```
  0: 0x00BA [0x02] IF !(ExtData[1]->WorkLocal[0] == 0*) GOTO 0x00F2
  1: 0x00C2 [0x6E] EventEntity uses emote 65*
  2: 0x00C9 [0x99] Wait for EventEntity animation to complete
  3: 0x00CE [0x1C] WAIT(180* ticks)
  4: 0x00D1 [0x6E] EventEntity uses emote 66*
  5: 0x00D8 [0x99] Wait for EventEntity animation to complete
  6: 0x00DD [0x1C] WAIT(180* ticks)
  7: 0x00E0 [0x6E] EventEntity uses emote 67*
  8: 0x00E7 [0x99] Wait for EventEntity animation to complete
  9: 0x00EC [0x1C] WAIT(180* ticks)
 10: 0x00EF [0x01] GOTO 0x00BA
 11: 0x00F2 [0x00] END_REQSTACK()
```
