# Event 65535

## Metadata

| Field           | Value    |
|-----------------|----------|
| Event Index     | 2/15     |
| Offset          | 0x000D   |
| Data Size       | 88 bytes |
| Calculated Size | 88 bytes |
| Instructions    | 12       |

```
      00 01 02 03 04 05 06 07  08 09 0A 0B 0C 0D 0E 0F
      -- -- -- -- -- -- -- --  -- -- -- -- -- -- -- --
0000:                                         5B 00 80               [..
0010: F8 FF FF 7F F8 FF FF 7F  68 32 30 31 02 24 10 01  ........h201.$..
0020: 80 01 64 00 02 24 10 02  80 00 40 00 5B 00 80 F8  ..d..$....@.[...
0030: FF FF 7F F8 FF FF 7F 68  32 30 32 03 24 10 03 80  .......h202.$...
0040: 3B 9F 00 02 01 00 00 01  00 02 00 07 00 00 04 80  ;...............
0050: 07 01 00 05 80 37 00 00  01 00 06 80 07 80 1C 01  .....7..........
0060: 80 01 1C 00 00                                    .....           
```

## Opcodes

```
  0: 0x000D [0x5B] LOAD_EXT_SCHEDULER: Load scheduler "h201" with entities [EventEntity, EventEntity], work=631*
  1: 0x001C [0x02] IF !(Work_Zone[36] == 1*) GOTO 0x0064
  2: 0x0024 [0x02] IF !(Work_Zone[36] == 2*) GOTO 0x0040
  3: 0x002C [0x5B] LOAD_EXT_SCHEDULER: Load scheduler "h202" with entities [EventEntity, EventEntity], work=631*
  4: 0x003B [0x03] Work_Zone[36] = 3*
  5: 0x0040 [0x3B] GET_ENTITY_POSITION(entity=ship (ID: 16908447/0x0102009F), x_destination=ExtData[1]->WorkLocal[0], y_destination=ExtData[1]->WorkLocal[1], z_destination=ExtData[1]->WorkLocal[2])
  6: 0x004B [0x07] ExtData[1]->WorkLocal[0] += 12291*
  7: 0x0050 [0x07] ExtData[1]->WorkLocal[1] += 9*
  8: 0x0055 [0x37] UPDATE_EVENT_POSITION_AND_DIR: x=ExtData[1]->WorkLocal[0], z=ExtData[1]->WorkLocal[1], y=-231.950*, direction=0.0°*
  9: 0x005E [0x1C] WAIT(1* ticks)
 10: 0x0061 [0x01] GOTO 0x001C
 11: 0x0064 [0x00] END_REQSTACK()
```
