# Event 124

## Metadata

| Field           | Value    |
|-----------------|----------|
| Event Index     | 16/25    |
| Offset          | 0x00D6   |
| Data Size       | 33 bytes |
| Calculated Size | 33 bytes |
| Instructions    | 12       |

```
      00 01 02 03 04 05 06 07  08 09 0A 0B 0C 0D 0E 0F
      -- -- -- -- -- -- -- --  -- -- -- -- -- -- -- --
00D0:                   1E F0  FF FF 7F 6F 70 29 08 32        .....op).2
00E0: 20 0F 01 01 1D 06 80 23  1D 07 80 23 29 08 32 20   ......#...#).2 
00F0: 0F 01 02 20 00 21 00                              ... .!.         
```

## Opcodes

```
  0: 0x00D6 [0x1E] EventEntity looks at LocalPlayer and starts talking
  1: 0x00DB [0x6F] WAIT_FRAME_DELAY: Yield until WaitTime reaches zero
  2: 0x00DC [0x70] WAIT_ENTITY_RENDER_FLAG: Wait while EventEntity->Render.Flags3 bit 2 is set (cancel turn if not)
  3: 0x00DD [0x29] REQ_SET_WAIT(priority=0x08, entity_id=Kiwawa (ID: 17768498/0x010F2032), tag_num=0x01)
  4: 0x00E4 [0x1D] PRINT_EVENT_MESSAGE(message_id=245*)
    → "I cannot see why Lady Zubaba would ask a blimey-grimy adventurer like you to help her.\u007F1\u0000\u0007"
  5: 0x00E7 [0x23] WAIT_FOR_DIALOG_INTERACTION
  6: 0x00E8 [0x1D] PRINT_EVENT_MESSAGE(message_id=246*)
    → "Now don't go off blabby-wabbing all that you've heard here today. This matter is between you, Lady Zubaba, and the Star Sibyl.\u007F1\u0000\u0007"
  7: 0x00EB [0x23] WAIT_FOR_DIALOG_INTERACTION
  8: 0x00EC [0x29] REQ_SET_WAIT(priority=0x08, entity_id=Kiwawa (ID: 17768498/0x010F2032), tag_num=0x02)
  9: 0x00F3 [0x20] SET_CLI_EVENT_UC_FLAG: Unlock player control
 10: 0x00F5 [0x21] END_EVENT
 11: 0x00F6 [0x00] END_REQSTACK()
```
