# Event 317

## Metadata

| Field           | Value    |
|-----------------|----------|
| Event Index     | 21/25    |
| Offset          | 0x017B   |
| Data Size       | 33 bytes |
| Calculated Size | 33 bytes |
| Instructions    | 12       |

```
      00 01 02 03 04 05 06 07  08 09 0A 0B 0C 0D 0E 0F
      -- -- -- -- -- -- -- --  -- -- -- -- -- -- -- --
0170:                                   1E F0 FF FF 7F             .....
0180: 6F 70 29 08 32 20 0F 01  01 1D 10 80 23 1D 11 80  op).2 ......#...
0190: 23 29 08 32 20 0F 01 02  20 00 21 00              #).2 ... .!.    
```

## Opcodes

```
  0: 0x017B [0x1E] EventEntity looks at LocalPlayer and starts talking
  1: 0x0180 [0x6F] WAIT_FRAME_DELAY: Yield until WaitTime reaches zero
  2: 0x0181 [0x70] WAIT_ENTITY_RENDER_FLAG: Wait while EventEntity->Render.Flags3 bit 2 is set (cancel turn if not)
  3: 0x0182 [0x29] REQ_SET_WAIT(priority=0x08, entity_id=Kiwawa (ID: 17768498/0x010F2032), tag_num=0x01)
  4: 0x0189 [0x1D] PRINT_EVENT_MESSAGE(message_id=8140*)
    → "Your next journey will be safey-wafey and profitable, I believe.\u007F1\u0000\u0007"
  5: 0x018C [0x23] WAIT_FOR_DIALOG_INTERACTION
  6: 0x018D [0x1D] PRINT_EVENT_MESSAGE(message_id=8141*)
    → "Oh, please don't misunderstand me. I really-weally don't trust you at all. I'm well aware that adventurer types are not worthy of an honest person's trust.\u007F1\u0000\u0007"
  7: 0x0190 [0x23] WAIT_FOR_DIALOG_INTERACTION
  8: 0x0191 [0x29] REQ_SET_WAIT(priority=0x08, entity_id=Kiwawa (ID: 17768498/0x010F2032), tag_num=0x02)
  9: 0x0198 [0x20] SET_CLI_EVENT_UC_FLAG: Unlock player control
 10: 0x019A [0x21] END_EVENT
 11: 0x019B [0x00] END_REQSTACK()
```
