# Event 65535

## Metadata

| Field           | Value    |
|-----------------|----------|
| Event Index     | 3/72     |
| Offset          | 0x000B   |
| Data Size       | 50 bytes |
| Calculated Size | 50 bytes |
| Instructions    | 13       |

```
      00 01 02 03 04 05 06 07  08 09 0A 0B 0C 0D 0E 0F
      -- -- -- -- -- -- -- --  -- -- -- -- -- -- -- --
0000:                                   3A EA 80 00 01             :....
0010: 00 00 08 00 00 04 80 39  00 00 79 00 F8 FF FF 7F  .......9..y.....
0020: EA 80 00 01 6F 70 03 01  00 05 80 1A DE 00 32 06  ....op........2.
0030: 80 1F 00 02 00 03 00 04  00 1F 01 6F 00           ...........o.   
```

## Opcodes

```
  0: 0x000B [0x3A] CONVERT_YAW_TO_BYTE(entity=Shikaree Z (ID: 16810218/0x010080EA), result_destination=ExtData[1]->WorkLocal[0])
  1: 0x0012 [0x08] ExtData[1]->WorkLocal[0] -= 128*
  2: 0x0017 [0x39] SET_ENTITY_DIRECTION(direction=0.0°)
  3: 0x001A [0x79] EventEntity looks at Shikaree Z (ID: 16810218/0x010080EA) (Basic look)
  4: 0x0024 [0x6F] WAIT_FRAME_DELAY: Yield until WaitTime reaches zero
  5: 0x0025 [0x70] WAIT_ENTITY_RENDER_FLAG: Wait while EventEntity->Render.Flags3 bit 2 is set (cancel turn if not)
  6: 0x0026 [0x03] ExtData[1]->WorkLocal[1] = 10000*
  7: 0x002B [0x1A] CALL_SUBROUTINE(address=0x00DE)
  8: 0x002E [0x32] ExtData[1]->MainSpeed = 40* * 0.1
  9: 0x0031 [0x1F] MOVE_ENTITY: EventEntity moves to X=0.002, Z=0.003, Y=0.004
 10: 0x0039 [0x1F] MOVE_ENTITY: Update entity position (mode=1)
 11: 0x003B [0x6F] WAIT_FRAME_DELAY: Yield until WaitTime reaches zero
 12: 0x003C [0x00] END_REQSTACK()
```
