# Event 65535

## Metadata

| Field           | Value    |
|-----------------|----------|
| Event Index     | 4/5      |
| Offset          | 0x004C   |
| Data Size       | 55 bytes |
| Calculated Size | 55 bytes |
| Instructions    | 11       |

```
      00 01 02 03 04 05 06 07  08 09 0A 0B 0C 0D 0E 0F
      -- -- -- -- -- -- -- --  -- -- -- -- -- -- -- --
0040:                                      24 04 80 01              $...
0050: 80 01 80 25 02 00 10 01  80 00 6B 00 29 0A F0 FF  ...%......k.)...
0060: FF 7F 02 03 01 10 05 80  01 82 00 02 00 10 02 80  ................
0070: 00 82 00 29 0A F0 FF FF  7F 02 03 01 10 06 80 01  ...)............
0080: 82 00 00                                          ...             
```

## Opcodes

```
  0: 0x004C [0x24] CREATE_DIALOG(message_id=7254*, default_option=0*, option_flags=0*)
    → "AND SO...?\u0007\u000BTAKE FANG RIGHT AWAY!\u0007START QUEST OVER.\u007F1\u0000\u0007"
  1: 0x0053 [0x25] WAIT_DIALOG_SELECT()
  2: 0x0054 [0x02] IF !(Work_Zone[0] == 0*) GOTO 0x006B
  3: 0x005C [0x29] REQ_SET_WAIT(priority=0x0A, entity_id=LocalPlayer, tag_num=0x02)
  4: 0x0063 [0x03] Work_Zone[1] = 11*
  5: 0x0068 [0x01] GOTO 0x0082

SUBROUTINE_006B:
  6: 0x006B [0x02] IF !(Work_Zone[0] == 1*) GOTO 0x0082
  7: 0x0073 [0x29] REQ_SET_WAIT(priority=0x0A, entity_id=LocalPlayer, tag_num=0x02)
  8: 0x007A [0x03] Work_Zone[1] = 12*
  9: 0x007F [0x01] GOTO 0x0082

SUBROUTINE_0082:
 10: 0x0082 [0x00] END_REQSTACK()
```
