# 17543480

## Common Data

| Field            | Value                        |
|------------------|------------------------------|
| Zone             | Dynamis - Windurst (ID: 187) |
| Block Size       | 176 bytes                    |
| Total Events     | 2                            |
| References Count | 6                            |

## List of Events

| Event ID              | Entrypoint   |   Size |   Instructions |
|-----------------------|--------------|--------|----------------|
| [65535](#event-65535) | 0x0000       |      1 |              1 |
| [102](#event-102)     | 0x0001       |    127 |             37 |

## DAT References (imed_data)

|   Index | Hex Value   |   Dec Value |
|---------|-------------|-------------|
|       0 | 0x1CB0      |        7344 |
|       1 | 0x1CB1      |        7345 |
|       2 | 0x1CB2      |        7346 |
|       3 | 0x0000      |           0 |
|       4 | 0x1CB4      |        7348 |
|       5 | 0x1CB3      |        7347 |

## String References

- **7344**: You sense an aura of boundless rage...
- **7345**: $0...
- **7346**: Or perhaps...
- **7347**: You sense that something might happen if you possessed one of these...
- **7348**: Or perhaps...

## Events

### Event 65535

#### Metadata

| Field        | Value   |
|--------------|---------|
| Entrypoint   | 0x0000  |
| Data Size    | 1 bytes |
| Instructions | 1       |

```
      00 01 02 03 04 05 06 07  08 09 0A 0B 0C 0D 0E 0F
      -- -- -- -- -- -- -- --  -- -- -- -- -- -- -- --
0000: 00                                                .               
```

#### Opcodes

```
  0: 0x0000 [0x00] END_REQSTACK()
```

### Event 102

#### Metadata

| Field        | Value     |
|--------------|-----------|
| Entrypoint   | 0x0001    |
| Data Size    | 127 bytes |
| Instructions | 37        |

```
      00 01 02 03 04 05 06 07  08 09 0A 0B 0C 0D 0E 0F
      -- -- -- -- -- -- -- --  -- -- -- -- -- -- -- --
0000:    48 00 80 23 48 01 80  23 48 02 80 23 03 02 10   H..#H..#H..#...
0010: 03 10 02 02 10 03 80 01  1E 00 48 01 80 23 03 02  ..........H..#..
0020: 10 04 10 02 02 10 03 80  01 2F 00 48 01 80 23 03  ........./.H..#.
0030: 02 10 05 10 02 02 10 03  80 01 40 00 48 01 80 23  ..........@.H..#
0040: 03 02 10 06 10 02 02 10  03 80 01 51 00 48 01 80  ...........Q.H..
0050: 23 03 02 10 07 10 02 02  10 03 80 01 62 00 48 01  #...........b.H.
0060: 80 23 02 08 10 03 80 00  6D 00 01 7A 00 48 04 80  .#......m..z.H..
0070: 23 03 02 10 08 10 48 01  80 23 48 05 80 23 21 00  #.....H..#H..#!.
```

#### Opcodes

```
  0: 0x0001 [0x48] [System] [7344*]:
    → "You sense an aura of boundless rage..."
  1: 0x0004 [0x23] WAIT_FOR_DIALOG_INTERACTION
  2: 0x0005 [0x48] [System] [7345*]:
    → "$0..."
  3: 0x0008 [0x23] WAIT_FOR_DIALOG_INTERACTION
  4: 0x0009 [0x48] [System] [7346*]:
    → "Or perhaps..."
  5: 0x000C [0x23] WAIT_FOR_DIALOG_INTERACTION
  6: 0x000D [0x03] Work_Zone[2] = Work_Zone[3]
  7: 0x0012 [0x02] IF !(Work_Zone[2] == 0*) GOTO 0x001E
  8: 0x001A [0x48] [System] [7345*]:
    → "$0..."
  9: 0x001D [0x23] WAIT_FOR_DIALOG_INTERACTION
 10: 0x001E [0x03] Work_Zone[2] = Work_Zone[4]
 11: 0x0023 [0x02] IF !(Work_Zone[2] == 0*) GOTO 0x002F
 12: 0x002B [0x48] [System] [7345*]:
    → "$0..."
 13: 0x002E [0x23] WAIT_FOR_DIALOG_INTERACTION
 14: 0x002F [0x03] Work_Zone[2] = Work_Zone[5]
 15: 0x0034 [0x02] IF !(Work_Zone[2] == 0*) GOTO 0x0040
 16: 0x003C [0x48] [System] [7345*]:
    → "$0..."
 17: 0x003F [0x23] WAIT_FOR_DIALOG_INTERACTION
 18: 0x0040 [0x03] Work_Zone[2] = Work_Zone[6]
 19: 0x0045 [0x02] IF !(Work_Zone[2] == 0*) GOTO 0x0051
 20: 0x004D [0x48] [System] [7345*]:
    → "$0..."
 21: 0x0050 [0x23] WAIT_FOR_DIALOG_INTERACTION
 22: 0x0051 [0x03] Work_Zone[2] = Work_Zone[7]
 23: 0x0056 [0x02] IF !(Work_Zone[2] == 0*) GOTO 0x0062
 24: 0x005E [0x48] [System] [7345*]:
    → "$0..."
 25: 0x0061 [0x23] WAIT_FOR_DIALOG_INTERACTION
 26: 0x0062 [0x02] IF !(Work_Zone[8] == 0*) GOTO 0x006D
 27: 0x006A [0x01] GOTO 0x007A
 28: 0x006D [0x48] [System] [7348*]:
    → "Or perhaps..."
 29: 0x0070 [0x23] WAIT_FOR_DIALOG_INTERACTION
 30: 0x0071 [0x03] Work_Zone[2] = Work_Zone[8]
 31: 0x0076 [0x48] [System] [7345*]:
    → "$0..."
 32: 0x0079 [0x23] WAIT_FOR_DIALOG_INTERACTION

SUBROUTINE_007A:
 33: 0x007A [0x48] [System] [7347*]:
    → "You sense that something might happen if you possessed one of these..."
 34: 0x007D [0x23] WAIT_FOR_DIALOG_INTERACTION
 35: 0x007E [0x21] END_EVENT
 36: 0x007F [0x00] END_REQSTACK()
```
