# Event 65535

## Metadata

| Field           | Value    |
|-----------------|----------|
| Event Index     | 17/24    |
| Offset          | 0x01DE   |
| Data Size       | 51 bytes |
| Calculated Size | 51 bytes |
| Instructions    | 13       |

```
      00 01 02 03 04 05 06 07  08 09 0A 0B 0C 0D 0E 0F
      -- -- -- -- -- -- -- --  -- -- -- -- -- -- -- --
01D0:                                            32 34                24
01E0: 80 1F 00 35 80 36 80 25  80 1F 01 1F 00 37 80 38  ...5.6.%.....7.8
01F0: 80 25 80 1F 01 1F 00 39  80 3A 80 25 80 1F 01 6F  .%.....9.:.%...o
0200: 4B F8 FF FF 7F 3B 80 6F  76 F8 FF FF 7F 1C 3C 80  K....;.ov.....<.
0210: 00                                                .               
```

## Opcodes

```
  0: 0x01DE [0x32] ExtData[1]->MainSpeed = 11* * 0.1
  1: 0x01E1 [0x1F] MOVE_ENTITY: EventEntity moves to X=312.827*, Z=-31.073*, Y=-17.500*
  2: 0x01E9 [0x1F] MOVE_ENTITY: Update entity position (mode=1)
  3: 0x01EB [0x1F] MOVE_ENTITY: EventEntity moves to X=312.416*, Z=-29.869*, Y=-17.500*
  4: 0x01F3 [0x1F] MOVE_ENTITY: Update entity position (mode=1)
  5: 0x01F5 [0x1F] MOVE_ENTITY: EventEntity moves to X=310.998*, Z=-28.819*, Y=-17.500*
  6: 0x01FD [0x1F] MOVE_ENTITY: Update entity position (mode=1)
  7: 0x01FF [0x6F] WAIT_FRAME_DELAY: Yield until WaitTime reaches zero
  8: 0x0200 [0x4B] UPDATE_ENTITY_YAW(entity=EventEntity, yaw=16.9°*)
  9: 0x0207 [0x6F] WAIT_FRAME_DELAY: Yield until WaitTime reaches zero
 10: 0x0208 [0x76] CHECK_ENTITY_RENDER_FLAGS: Wait until EventEntity Render.Flags0 and Render.Flags3 conditions are met
 11: 0x020D [0x1C] WAIT(60* ticks)
 12: 0x0210 [0x00] END_REQSTACK()
```
