# Event 4891

## Metadata

| Field           | Value     |
|-----------------|-----------|
| Event Index     | 11/11     |
| Offset          | 0x0086    |
| Data Size       | 913 bytes |
| Calculated Size | 913 bytes |
| Instructions    | 38        |

```
      00 01 02 03 04 05 06 07  08 09 0A 0B 0C 0D 0E 0F
      -- -- -- -- -- -- -- --  -- -- -- -- -- -- -- --
0080:                   1A 9D  03 21 00 03 00 00 06 10        ...!......
0090: 1E F0 FF FF 7F 6F 70 02  00 00 06 80 00 BF 00 2C  .....op........,
00A0: F8 FF FF 7F F8 FF FF 7F  74 6C 6B 30 1D 07 80 23  ........tlk0...#
00B0: 1D 08 80 23 1D 09 80 23  1D 0A 80 23 01 CC 01 02  ...#...#...#....
00C0: 00 00 0B 80 00 E7 00 2C  F8 FF FF 7F F8 FF FF 7F  .......,........
00D0: 74 6C 6B 30 1D 0C 80 23  1D 0D 80 23 1D 0E 80 23  tlk0...#...#...#
00E0: 1D 0F 80 23 01 CC 01 02  00 00 10 80 00 0F 01 2C  ...#...........,
00F0: F8 FF FF 7F F8 FF FF 7F  74 6C 6B 30 1D 11 80 23  ........tlk0...#
0100: 1D 12 80 23 1D 13 80 23  1D 14 80 23 01 CC 01 02  ...#...#...#....
0110: 00 00 15 80 00 37 01 2C  F8 FF FF 7F F8 FF FF 7F  .....7.,........
0120: 74 6C 6B 30 1D 16 80 23  1D 17 80 23 1D 18 80 23  tlk0...#...#...#
0130: 1D 19 80 23 01 CC 01 02  00 00 1A 80 00 5F 01 2C  ...#........._.,
0140: F8 FF FF 7F F8 FF FF 7F  74 6C 6B 30 1D 1B 80 23  ........tlk0...#
0150: 1D 1C 80 23 1D 1D 80 23  1D 1E 80 23 01 CC 01 02  ...#...#...#....
0160: 00 00 1F 80 00 87 01 2C  F8 FF FF 7F F8 FF FF 7F  .......,........
0170: 74 6C 6B 30 1D 20 80 23  1D 21 80 23 1D 22 80 23  tlk0. .#.!.#.".#
0180: 1D 23 80 23 01 CC 01 02  00 00 24 80 00 AF 01 2C  .#.#......$....,
0190: F8 FF FF 7F F8 FF FF 7F  74 6C 6B 30 1D 25 80 23  ........tlk0.%.#
01A0: 1D 26 80 23 1D 27 80 23  1D 28 80 23 01 CC 01 2C  .&.#.'.#.(.#...,
01B0: F8 FF FF 7F F8 FF FF 7F  74 6C 6B 30 1D 29 80 23  ........tlk0.).#
01C0: 1D 2A 80 23 1D 2B 80 23  1D 2C 80 23 1B 03 00 00  .*.#.+.#.,.#....
01D0: 06 10 1E F0 FF FF 7F 6F  70 02 00 00 06 80 00 EC  .......op.......
01E0: 01 1D 09 80 23 1D 0A 80  23 01 66 02 02 00 00 0B  ....#...#.f.....
01F0: 80 00 FF 01 1D 0E 80 23  1D 0F 80 23 01 66 02 02  .......#...#.f..
0200: 00 00 10 80 00 12 02 1D  13 80 23 1D 14 80 23 01  ..........#...#.
0210: 66 02 02 00 00 15 80 00  25 02 1D 18 80 23 1D 19  f.......%....#..
0220: 80 23 01 66 02 02 00 00  1A 80 00 38 02 1D 1D 80  .#.f.......8....
0230: 23 1D 1E 80 23 01 66 02  02 00 00 1F 80 00 4B 02  #...#.f.......K.
0240: 1D 22 80 23 1D 23 80 23  01 66 02 02 00 00 24 80  .".#.#.#.f....$.
0250: 00 5E 02 1D 27 80 23 1D  28 80 23 01 66 02 1D 2B  .^..'.#.(.#.f..+
0260: 80 23 1D 2C 80 23 1B 03  00 00 06 10 42 1E F0 FF  .#.,.#......B...
0270: FF 7F 6F 70 02 00 00 06  80 00 83 02 1D 2D 80 23  ..op.........-.#
0280: 01 E1 02 02 00 00 0B 80  00 92 02 1D 2E 80 23 01  ..............#.
0290: E1 02 02 00 00 10 80 00  A1 02 1D 2F 80 23 01 E1  .........../.#..
02A0: 02 02 00 00 15 80 00 B0  02 1D 30 80 23 01 E1 02  ..........0.#...
02B0: 02 00 00 1A 80 00 BF 02  1D 31 80 23 01 E1 02 02  .........1.#....
02C0: 00 00 1F 80 00 CE 02 1D  32 80 23 01 E1 02 02 00  ........2.#.....
02D0: 00 24 80 00 DD 02 1D 33  80 23 01 E1 02 1D 34 80  .$.....3.#....4.
02E0: 23 1B 03 00 00 06 10 42  1E F0 FF FF 7F 6F 70 02  #......B.....op.
02F0: 00 00 06 80 00 06 03 1D  35 80 23 1D 36 80 23 1D  ........5.#.6.#.
0300: 37 80 23 01 9C 03 02 00  00 0B 80 00 1D 03 1D 38  7.#............8
0310: 80 23 1D 39 80 23 1D 3A  80 23 01 9C 03 02 00 00  .#.9.#.:.#......
0320: 10 80 00 34 03 1D 3B 80  23 1D 3C 80 23 1D 3D 80  ...4..;.#.<.#.=.
0330: 23 01 9C 03 02 00 00 15  80 00 4B 03 1D 3E 80 23  #.........K..>.#
0340: 1D 3F 80 23 1D 40 80 23  01 9C 03 02 00 00 1A 80  .?.#.@.#........
0350: 00 62 03 1D 41 80 23 1D  42 80 23 1D 43 80 23 01  .b..A.#.B.#.C.#.
0360: 9C 03 02 00 00 1F 80 00  79 03 1D 44 80 23 1D 45  ........y..D.#.E
0370: 80 23 1D 46 80 23 01 9C  03 02 00 00 24 80 00 90  .#.F.#......$...
0380: 03 1D 47 80 23 1D 48 80  23 1D 49 80 23 01 9C 03  ..G.#.H.#.I.#...
0390: 1D 4A 80 23 1D 4B 80 23  1D 4C 80 23 1B 03 00 00  .J.#.K.#.L.#....
03A0: 06 10 1E F0 FF FF 7F 6F  70 02 00 00 06 80 00 B8  .......op.......
03B0: 03 1D 37 80 23 01 16 04  02 00 00 0B 80 00 C7 03  ..7.#...........
03C0: 1D 3A 80 23 01 16 04 02  00 00 10 80 00 D6 03 1D  .:.#............
03D0: 3D 80 23 01 16 04 02 00  00 15 80 00 E5 03 1D 40  =.#............@
03E0: 80 23 01 16 04 02 00 00  1A 80 00 F4 03 1D 43 80  .#............C.
03F0: 23 01 16 04 02 00 00 1F  80 00 03 04 1D 46 80 23  #............F.#
0400: 01 16 04 02 00 00 24 80  00 12 04 1D 49 80 23 01  ......$.....I.#.
0410: 16 04 1D 4C 80 23 1B                              ...L.#.         
```

## Opcodes

```
  0: 0x0086 [0x1A] CALL_SUBROUTINE(address=0x039D)
  1: 0x0089 [0x21] END_EVENT
  2: 0x008A [0x00] END_REQSTACK()

SUBROUTINE_039D:
  3: 0x039D [0x03] ExtData[1]->WorkLocal[0] = Work_Zone[6]
  4: 0x03A2 [0x1E] EventEntity looks at LocalPlayer and starts talking
  5: 0x03A7 [0x6F] WAIT_FRAME_DELAY: Yield until WaitTime reaches zero
  6: 0x03A8 [0x70] WAIT_ENTITY_RENDER_FLAG: Wait while EventEntity->Render.Flags3 bit 2 is set (cancel turn if not)
  7: 0x03A9 [0x02] IF !(ExtData[1]->WorkLocal[0] == 1*) GOTO 0x03B8
  8: 0x03B1 [0x1D] PRINT_EVENT_MESSAGE(message_id=15713*)
    → "And please thank \u001C\u0000 the next time you see that good samaritan.\u0007The person who said, \u00072'Tis better to give than receive\u00073 probably never had a gift drought as long as mine. I feel fantastic!\u007F1\u0000\u0007"
  9: 0x03B4 [0x23] WAIT_FOR_DIALOG_INTERACTION
 10: 0x03B5 [0x01] GOTO 0x0416
 11: 0x03B8 [0x02] IF !(ExtData[1]->WorkLocal[0] == 2*) GOTO 0x03C7
 12: 0x03C0 [0x1D] PRINT_EVENT_MESSAGE(message_id=15716*)
    → "I'm actually quite fed up with these ridiculous baubles, but I'm not one for losing face.\u0007If you should see \u001C\u0000 again, please give my regards and say I found the gift rather...quaint.\u007F1\u0000\u0007"
 13: 0x03C3 [0x23] WAIT_FOR_DIALOG_INTERACTION
 14: 0x03C4 [0x01] GOTO 0x0416
 15: 0x03C7 [0x02] IF !(ExtData[1]->WorkLocal[0] == 3*) GOTO 0x03D6
 16: 0x03CF [0x1D] PRINT_EVENT_MESSAGE(message_id=15719*)
    → "Would you be so kind as to tell \u001C\u0000 that I truly appreciate the gift?\u0007I am also thoroughly impressed with your selfless nature, adventurer.\u007F1\u0000\u0007"
 17: 0x03D2 [0x23] WAIT_FOR_DIALOG_INTERACTION
 18: 0x03D3 [0x01] GOTO 0x0416
 19: 0x03D6 [0x02] IF !(ExtData[1]->WorkLocal[0] == 4*) GOTO 0x03E5
 20: 0x03DE [0x1D] PRINT_EVENT_MESSAGE(message_id=15722*)
    → "The finite words of us mere mortals may not be sufficient to convey the depths of my gratitude, but I earnestly hope \u001C\u0000 would appreciate a succinct \u00072Thank you.\u00073\u007F1\u0000\u0007"
 21: 0x03E1 [0x23] WAIT_FOR_DIALOG_INTERACTION
 22: 0x03E2 [0x01] GOTO 0x0416
 23: 0x03E5 [0x02] IF !(ExtData[1]->WorkLocal[0] == 5*) GOTO 0x03F4
 24: 0x03ED [0x1D] PRINT_EVENT_MESSAGE(message_id=15725*)
    → "Well then, I suppose some thanks are in order. But if I find out that this was just some elaborataru scheme to make me lower my guard, I'm going to boppy-wop you both in the noggin!\u007F1\u0000\u0007"
 25: 0x03F0 [0x23] WAIT_FOR_DIALOG_INTERACTION
 26: 0x03F1 [0x01] GOTO 0x0416
 27: 0x03F4 [0x02] IF !(ExtData[1]->WorkLocal[0] == 6*) GOTO 0x0403
 28: 0x03FC [0x1D] PRINT_EVENT_MESSAGE(message_id=15728*)
    → "No, thataru wouldn't be right. Besides, it might not be edible.\u0007Anyway, please be sure to thank \u001C\u0000 for pudding the icing on such a delectable Starcake Chocolation.\u0007Ugh, I'm just terrible!\u007F1\u0000\u0007"
 29: 0x03FF [0x23] WAIT_FOR_DIALOG_INTERACTION
 30: 0x0400 [0x01] GOTO 0x0416
 31: 0x0403 [0x02] IF !(ExtData[1]->WorkLocal[0] == 7*) GOTO 0x0412
 32: 0x040B [0x1D] PRINT_EVENT_MESSAGE(message_id=15734*)
    → "Don't get the wrrrong idea! It's not like I enjoy the gift or anything!\u0007Just run back to \u001C\u0000 and drop dead! This conversation never happened!\u007F1\u0000\u0007"
 33: 0x040E [0x23] WAIT_FOR_DIALOG_INTERACTION
 34: 0x040F [0x01] GOTO 0x0416
 35: 0x0412 [0x1D] PRINT_EVENT_MESSAGE(message_id=15731*)
    → "I best start looking for something to give in return. In the meantime, please tell \u001C\u0000 how happy I am to have received this.\u0007And maybe next year I'll remember before it's too late. <Sigh>...One can only hope.\u007F1\u0000\u0007"
 36: 0x0415 [0x23] WAIT_FOR_DIALOG_INTERACTION
 37: 0x0416 [0x1B] RETURN
```

## Data or dead code:

```
# Dead code (unreachable instructions):
     0x008B [0x03] ExtData[1]->WorkLocal[0] = Work_Zone[6]
     0x0090 [0x1E] EventEntity looks at LocalPlayer and starts talking
     0x0095 [0x6F] WAIT_FRAME_DELAY: Yield until WaitTime reaches zero
     0x0096 [0x70] WAIT_ENTITY_RENDER_FLAG: Wait while EventEntity->Render.Flags3 bit 2 is set (cancel turn if not)
     0x0097 [0x02] IF !(ExtData[1]->WorkLocal[0] == 1*) GOTO 0x00BF
     0x009F [0x2C] CREATE_SCHEDULER_TASK: Create scheduler "tlk0" with entities [EventEntity, EventEntity]
     0x00AC [0x1D] PRINT_EVENT_MESSAGE(message_id=15671*)
    → "What? But how...?\u0007If that's truly from \u001C\u0000, that must mean...you stole it and you're ransoming it back to me!\u0007If you think for one moment that I'd pay scum like you, you'd best think twice!\u007F1\u0000\u0007"
     0x00AF [0x23] WAIT_FOR_DIALOG_INTERACTION
     0x00B0 [0x1D] PRINT_EVENT_MESSAGE(message_id=15672*)
    → "Oh, I see. My apologies.\u0007How silly of me. Everyone knows how mischievous Goblins get during the Starlight Celebration season. I read somewhere that it's got something to do with the moon and the tides or whatnot.\u007F1\u0000\u0007"
     0x00B3 [0x23] WAIT_FOR_DIALOG_INTERACTION
     0x00B4 [0x1D] PRINT_EVENT_MESSAGE(message_id=15673*)
    → "Anyway, sorry to trouble you, but could you deliver this in my stead?\u0007I may look like a strapping young lad, but I have this illness that prevents me from doing the same task twice in one day. Quite troublesome, really.\u007F1\u0000\u0007"
     0x00B7 [0x23] WAIT_FOR_DIALOG_INTERACTION
     0x00B8 [0x1D] PRINT_EVENT_MESSAGE(message_id=15674*)
    → "Also, could you do me a favor and report back to me after you're done?\u0007I didn't want to spend the extra gil for delivery confirmation with times as tough as they are, you know?\u007F1\u0000\u0007"
     0x00BB [0x23] WAIT_FOR_DIALOG_INTERACTION
     0x00BC [0x01] GOTO 0x01CC
     0x00BF [0x02] IF !(ExtData[1]->WorkLocal[0] == 2*) GOTO 0x00E7
     0x00C7 [0x2C] CREATE_SCHEDULER_TASK: Create scheduler "tlk0" with entities [EventEntity, EventEntity]
     0x00D4 [0x1D] PRINT_EVENT_MESSAGE(message_id=15676*)
    → "Waaah, a cutthroat! Take anything you want, just not my lucky chocobo hose, please! I...\u0007Wait, isn't that the gift I sent \u001C\u0000? You didn't steal that too, did you!?\u007F1\u0000\u0007"
     0x00D7 [0x23] WAIT_FOR_DIALOG_INTERACTION
     0x00D8 [0x1D] PRINT_EVENT_MESSAGE(message_id=15677*)
    → "What!? You...valiantly wrested it from the clutches of a greedy Goblin so you could return it to me?\u0007I just knew my \u007F\u0005[handsome champion/fair handmaiden] in resplendent regalia would come some day!\u007F1\u0000\u0007"
     0x00DB [0x23] WAIT_FOR_DIALOG_INTERACTION
     0x00DC [0x1D] PRINT_EVENT_MESSAGE(message_id=15678*)
    → "I'm sure you've been through quite a few trials and tribulations just getting this back to me, your fair lady. However, my hands are tied at the moment and I can't take this present to \u001C\u0000.\u0007Therefore, I command you, my loyal follower, to act as my liaison and deliver it unscathed. I have no doubt that you'll succeed, since a \u007F\u0005[knight/handmaiden] will do anything to serve and protect \u007F\u0005[his/her] mistress.\u007F1\u0000\u0007"
     0x00DF [0x23] WAIT_FOR_DIALOG_INTERACTION
     0x00E0 [0x1D] PRINT_EVENT_MESSAGE(message_id=15679*)
    → "And please don't forget to check in with me after the delivery is made. Every \u007F\u0005[champion/handmaiden] knows that's the \u007F\u0005[chivalrous/proper] thing to do.\u007F1\u0000\u0007"
     0x00E3 [0x23] WAIT_FOR_DIALOG_INTERACTION
     0x00E4 [0x01] GOTO 0x01CC
     0x00E7 [0x02] IF !(ExtData[1]->WorkLocal[0] == 3*) GOTO 0x010F
     0x00EF [0x2C] CREATE_SCHEDULER_TASK: Create scheduler "tlk0" with entities [EventEntity, EventEntity]
     0x00FC [0x1D] PRINT_EVENT_MESSAGE(message_id=15681*)
    → "I beg your pardon, but I cannot help but notice that this is the parcel I sent to \u001C\u0000. How might you have come by it?\u007F1\u0000\u0007"
     0x00FF [0x23] WAIT_FOR_DIALOG_INTERACTION
     0x0100 [0x1D] PRINT_EVENT_MESSAGE(message_id=15682*)
    → "Ah, I see. Those Goblin rapscallions still show a complete and utter disregard for social graces, would you not agree?\u0007At any rate, you seem to possess a rather strong sense of justice, and for that I am most grateful.\u007F1\u0000\u0007"
     0x0103 [0x23] WAIT_FOR_DIALOG_INTERACTION
     0x0104 [0x1D] PRINT_EVENT_MESSAGE(message_id=15683*)
    → "Could you also find it within your heart to see that this package reaches \u001C\u0000 safely? I may be a man of humble means, but you will certainly have my eternal gratitude and undying admiration.\u007F1\u0000\u0007"
     0x0107 [0x23] WAIT_FOR_DIALOG_INTERACTION
     0x0108 [0x1D] PRINT_EVENT_MESSAGE(message_id=15684*)
    → "Oh my. This utterly slipped my addled mind.\u0007I am truly sorry, but I fear I must heap one more request upon your already burdened back. Could you please report back to me after you've made the delivery?\u0007It would undoubtedly lessen the anxiety weighing down my fragile heart.\u007F1\u0000\u0007"
     0x010B [0x23] WAIT_FOR_DIALOG_INTERACTION
     0x010C [0x01] GOTO 0x01CC
     0x010F [0x02] IF !(ExtData[1]->WorkLocal[0] == 4*) GOTO 0x0137
     0x0117 [0x2C] CREATE_SCHEDULER_TASK: Create scheduler "tlk0" with entities [EventEntity, EventEntity]
     0x0124 [0x1D] PRINT_EVENT_MESSAGE(message_id=15686*)
    → "What doth bring thee 'fore these rheumy eyes, orbs that pierce the soul and a stranger's guise?\u0007Harken, thou hast \u001C\u0000's present, from whom hast thou received such consent?\u007F1\u0000\u0007"
     0x0127 [0x23] WAIT_FOR_DIALOG_INTERACTION
     0x0128 [0x1D] PRINT_EVENT_MESSAGE(message_id=15687*)
    → "'Tis an entertaining tale with which thy jowls doth flail,\u0007A tale of Goblins run amok, and wretched me bereft of luck.\u0007Still, thanks are in store for completing this chore with a dearth of gore.\u007F1\u0000\u0007"
     0x012B [0x23] WAIT_FOR_DIALOG_INTERACTION
     0x012C [0x1D] PRINT_EVENT_MESSAGE(message_id=15688*)
    → "While these next words may conjure a storm, I cannot assist thee in any form.\u0007Thus, I entreat thee to heed the call...deliver this gift to \u001C\u0000 once and for all!\u007F1\u0000\u0007"
     0x012F [0x23] WAIT_FOR_DIALOG_INTERACTION
     0x0130 [0x1D] PRINT_EVENT_MESSAGE(message_id=15689*)
    → "'Fore I finish this lengthy tirade, one last request must be made.\u0007Once the gift hath changed hands, return at once for further plans.\u007F1\u0000\u0007"
     0x0133 [0x23] WAIT_FOR_DIALOG_INTERACTION
     0x0134 [0x01] GOTO 0x01CC
     0x0137 [0x02] IF !(ExtData[1]->WorkLocal[0] == 5*) GOTO 0x015F
     0x013F [0x2C] CREATE_SCHEDULER_TASK: Create scheduler "tlk0" with entities [EventEntity, EventEntity]
     0x014C [0x1D] PRINT_EVENT_MESSAGE(message_id=15691*)
    → "Wh-wh-what have you got there? It looks awfully-wafully like the gift I gave to \u001C\u0000.\u0007Did something happen? P-p-please don't tell me that \u001C\u0000 passy-wassed away!\u007F1\u0000\u0007"
     0x014F [0x23] WAIT_FOR_DIALOG_INTERACTION
     0x0150 [0x1D] PRINT_EVENT_MESSAGE(message_id=15692*)
    → "...It was just a G-g-goblin prank?\u0007Sorry to overreactaru. I had a t-t-traumatic experience last Starlight Devastation--er, Celebration! So now I always feary-wear the worst.\u0007By the way, th-th-thank you for getting my gift back.\u007F1\u0000\u0007"
     0x0153 [0x23] WAIT_FOR_DIALOG_INTERACTION
     0x0154 [0x1D] PRINT_EVENT_MESSAGE(message_id=15693*)
    → "As you can guess, m-m-my comfort zone is rather itty-bitty. I know you must be expired--tired! But can you please helpy-welp me and deliver my present to \u001C\u0000?\u007F1\u0000\u0007"
     0x0157 [0x23] WAIT_FOR_DIALOG_INTERACTION
     0x0158 [0x1D] PRINT_EVENT_MESSAGE(message_id=15694*)
    → "After you pass on--the gift! Pass the gift on! Then c-c-could you report back to me?\u0007I truly-wuly want to know how \u001C\u0000 reacts.\u007F1\u0000\u0007"
     0x015B [0x23] WAIT_FOR_DIALOG_INTERACTION
     0x015C [0x01] GOTO 0x01CC
     0x015F [0x02] IF !(ExtData[1]->WorkLocal[0] == 6*) GOTO 0x0187
     0x0167 [0x2C] CREATE_SCHEDULER_TASK: Create scheduler "tlk0" with entities [EventEntity, EventEntity]
     0x0174 [0x1D] PRINT_EVENT_MESSAGE(message_id=15696*)
    → "So many nasty-wasty things happened to me today, I'm just too moody-woody to listen to your blather!\u0007Begone before I--wait, isn't that my present to \u001C\u0000?\u007F1\u0000\u0007"
     0x0177 [0x23] WAIT_FOR_DIALOG_INTERACTION
     0x0178 [0x1D] PRINT_EVENT_MESSAGE(message_id=15697*)
    → "Ugh, quit barking like a bog dog, \u007F\u0005[brother-wother/sister-wister]! I don't give a ham and cheese about giddy Goblins or lazy moogles.\u007F1\u0000\u0007"
     0x017B [0x23] WAIT_FOR_DIALOG_INTERACTION
     0x017C [0x1D] PRINT_EVENT_MESSAGE(message_id=15698*)
    → "You think you're so great because you saved my present from some baddie-waddies? Bah humbug-wumbug!\u0007If you're gonna stick your nosey-wose in others' business, then you bettaru finish what you started!\u0007You'll be taking that gift on over to \u001C\u0000, I tell you what!\u007F1\u0000\u0007"
     0x017F [0x23] WAIT_FOR_DIALOG_INTERACTION
     0x0180 [0x1D] PRINT_EVENT_MESSAGE(message_id=15699*)
    → "And don't think for a minute-winute that I'm going to let you get away with ruining my day! Report back here for a tongue-lashing when you're done!\u0007Now get going before I gutaru you right here and now!\u007F1\u0000\u0007"
     0x0183 [0x23] WAIT_FOR_DIALOG_INTERACTION
     0x0184 [0x01] GOTO 0x01CC
     0x0187 [0x02] IF !(ExtData[1]->WorkLocal[0] == 7*) GOTO 0x01AF
     0x018F [0x2C] CREATE_SCHEDULER_TASK: Create scheduler "tlk0" with entities [EventEntity, EventEntity]
     0x019C [0x1D] PRINT_EVENT_MESSAGE(message_id=15706*)
    → "What have we here? A cat burrrglar?\u0007How dare you despoil the innocent people of our fair nation!\u007F1\u0000\u0007"
     0x019F [0x23] WAIT_FOR_DIALOG_INTERACTION
     0x01A0 [0x1D] PRINT_EVENT_MESSAGE(message_id=15707*)
    → "What am I talking about?\u0007That's the prrresent I sent \u001C\u0000! How could you have it if you didn't steal it!?\u007F1\u0000\u0007"
     0x01A3 [0x23] WAIT_FOR_DIALOG_INTERACTION
     0x01A4 [0x1D] PRINT_EVENT_MESSAGE(message_id=15708*)
    → "Oh, I see. You're a defender of justice too.\u0007Good job negotiating with those Goblin scum. I just hope that rrrepeating that story to everyone you've saved hasn't got you hacking up hairballs.\u007F1\u0000\u0007"
     0x01A7 [0x23] WAIT_FOR_DIALOG_INTERACTION
     0x01A8 [0x1D] PRINT_EVENT_MESSAGE(message_id=15709*)
    → "But enough tail wagging. I have some prey I need to take care of, so could you rrredeliver that gift to \u001C\u0000 and report back to me when you're done?\u007F1\u0000\u0007"
     0x01AB [0x23] WAIT_FOR_DIALOG_INTERACTION
     0x01AC [0x01] GOTO 0x01CC
     0x01AF [0x2C] CREATE_SCHEDULER_TASK: Create scheduler "tlk0" with entities [EventEntity, EventEntity]
     0x01BC [0x1D] PRINT_EVENT_MESSAGE(message_id=15701*)
    → "Hey, I sent that to \u001C\u0000. Why do you have it?\u007F1\u0000\u0007"
     0x01BF [0x23] WAIT_FOR_DIALOG_INTERACTION
     0x01C0 [0x1D] PRINT_EVENT_MESSAGE(message_id=15702*)
    → "Hmmm. Stolen by Gobbies, huh?\u0007Thanks for getting it back.\u007F1\u0000\u0007"
     0x01C3 [0x23] WAIT_FOR_DIALOG_INTERACTION
     0x01C4 [0x1D] PRINT_EVENT_MESSAGE(message_id=15703*)
    → "Sorry to burden you, but could you bring it to \u001C\u0000 again for me?\u007F1\u0000\u0007"
     0x01C7 [0x23] WAIT_FOR_DIALOG_INTERACTION
     0x01C8 [0x1D] PRINT_EVENT_MESSAGE(message_id=15704*)
    → "Also, I'd like it if you could please fill me in when you're done.\u007F1\u0000\u0007"
     0x01CB [0x23] WAIT_FOR_DIALOG_INTERACTION
     0x01CC [0x1B] RETURN
     0x01CD [0x03] ExtData[1]->WorkLocal[0] = Work_Zone[6]
     0x01D2 [0x1E] EventEntity looks at LocalPlayer and starts talking
     0x01D7 [0x6F] WAIT_FRAME_DELAY: Yield until WaitTime reaches zero
     0x01D8 [0x70] WAIT_ENTITY_RENDER_FLAG: Wait while EventEntity->Render.Flags3 bit 2 is set (cancel turn if not)
     0x01D9 [0x02] IF !(ExtData[1]->WorkLocal[0] == 1*) GOTO 0x01EC
     0x01E1 [0x1D] PRINT_EVENT_MESSAGE(message_id=15673*)
    → "Anyway, sorry to trouble you, but could you deliver this in my stead?\u0007I may look like a strapping young lad, but I have this illness that prevents me from doing the same task twice in one day. Quite troublesome, really.\u007F1\u0000\u0007"
     0x01E4 [0x23] WAIT_FOR_DIALOG_INTERACTION
     0x01E5 [0x1D] PRINT_EVENT_MESSAGE(message_id=15674*)
    → "Also, could you do me a favor and report back to me after you're done?\u0007I didn't want to spend the extra gil for delivery confirmation with times as tough as they are, you know?\u007F1\u0000\u0007"
     0x01E8 [0x23] WAIT_FOR_DIALOG_INTERACTION
     0x01E9 [0x01] GOTO 0x0266
     0x01EC [0x02] IF !(ExtData[1]->WorkLocal[0] == 2*) GOTO 0x01FF
     0x01F4 [0x1D] PRINT_EVENT_MESSAGE(message_id=15678*)
    → "I'm sure you've been through quite a few trials and tribulations just getting this back to me, your fair lady. However, my hands are tied at the moment and I can't take this present to \u001C\u0000.\u0007Therefore, I command you, my loyal follower, to act as my liaison and deliver it unscathed. I have no doubt that you'll succeed, since a \u007F\u0005[knight/handmaiden] will do anything to serve and protect \u007F\u0005[his/her] mistress.\u007F1\u0000\u0007"
     0x01F7 [0x23] WAIT_FOR_DIALOG_INTERACTION
     0x01F8 [0x1D] PRINT_EVENT_MESSAGE(message_id=15679*)
    → "And please don't forget to check in with me after the delivery is made. Every \u007F\u0005[champion/handmaiden] knows that's the \u007F\u0005[chivalrous/proper] thing to do.\u007F1\u0000\u0007"
     0x01FB [0x23] WAIT_FOR_DIALOG_INTERACTION
     0x01FC [0x01] GOTO 0x0266
     0x01FF [0x02] IF !(ExtData[1]->WorkLocal[0] == 3*) GOTO 0x0212
     0x0207 [0x1D] PRINT_EVENT_MESSAGE(message_id=15683*)
    → "Could you also find it within your heart to see that this package reaches \u001C\u0000 safely? I may be a man of humble means, but you will certainly have my eternal gratitude and undying admiration.\u007F1\u0000\u0007"
     0x020A [0x23] WAIT_FOR_DIALOG_INTERACTION
     0x020B [0x1D] PRINT_EVENT_MESSAGE(message_id=15684*)
    → "Oh my. This utterly slipped my addled mind.\u0007I am truly sorry, but I fear I must heap one more request upon your already burdened back. Could you please report back to me after you've made the delivery?\u0007It would undoubtedly lessen the anxiety weighing down my fragile heart.\u007F1\u0000\u0007"
     0x020E [0x23] WAIT_FOR_DIALOG_INTERACTION
     0x020F [0x01] GOTO 0x0266
     0x0212 [0x02] IF !(ExtData[1]->WorkLocal[0] == 4*) GOTO 0x0225
     0x021A [0x1D] PRINT_EVENT_MESSAGE(message_id=15688*)
    → "While these next words may conjure a storm, I cannot assist thee in any form.\u0007Thus, I entreat thee to heed the call...deliver this gift to \u001C\u0000 once and for all!\u007F1\u0000\u0007"
     0x021D [0x23] WAIT_FOR_DIALOG_INTERACTION
     0x021E [0x1D] PRINT_EVENT_MESSAGE(message_id=15689*)
    → "'Fore I finish this lengthy tirade, one last request must be made.\u0007Once the gift hath changed hands, return at once for further plans.\u007F1\u0000\u0007"
     0x0221 [0x23] WAIT_FOR_DIALOG_INTERACTION
     0x0222 [0x01] GOTO 0x0266
     0x0225 [0x02] IF !(ExtData[1]->WorkLocal[0] == 5*) GOTO 0x0238
     0x022D [0x1D] PRINT_EVENT_MESSAGE(message_id=15693*)
    → "As you can guess, m-m-my comfort zone is rather itty-bitty. I know you must be expired--tired! But can you please helpy-welp me and deliver my present to \u001C\u0000?\u007F1\u0000\u0007"
     0x0230 [0x23] WAIT_FOR_DIALOG_INTERACTION
     0x0231 [0x1D] PRINT_EVENT_MESSAGE(message_id=15694*)
    → "After you pass on--the gift! Pass the gift on! Then c-c-could you report back to me?\u0007I truly-wuly want to know how \u001C\u0000 reacts.\u007F1\u0000\u0007"
     0x0234 [0x23] WAIT_FOR_DIALOG_INTERACTION
     0x0235 [0x01] GOTO 0x0266
     0x0238 [0x02] IF !(ExtData[1]->WorkLocal[0] == 6*) GOTO 0x024B
     0x0240 [0x1D] PRINT_EVENT_MESSAGE(message_id=15698*)
    → "You think you're so great because you saved my present from some baddie-waddies? Bah humbug-wumbug!\u0007If you're gonna stick your nosey-wose in others' business, then you bettaru finish what you started!\u0007You'll be taking that gift on over to \u001C\u0000, I tell you what!\u007F1\u0000\u0007"
     0x0243 [0x23] WAIT_FOR_DIALOG_INTERACTION
     0x0244 [0x1D] PRINT_EVENT_MESSAGE(message_id=15699*)
    → "And don't think for a minute-winute that I'm going to let you get away with ruining my day! Report back here for a tongue-lashing when you're done!\u0007Now get going before I gutaru you right here and now!\u007F1\u0000\u0007"
     0x0247 [0x23] WAIT_FOR_DIALOG_INTERACTION
     0x0248 [0x01] GOTO 0x0266
     0x024B [0x02] IF !(ExtData[1]->WorkLocal[0] == 7*) GOTO 0x025E
     0x0253 [0x1D] PRINT_EVENT_MESSAGE(message_id=15708*)
    → "Oh, I see. You're a defender of justice too.\u0007Good job negotiating with those Goblin scum. I just hope that rrrepeating that story to everyone you've saved hasn't got you hacking up hairballs.\u007F1\u0000\u0007"
     0x0256 [0x23] WAIT_FOR_DIALOG_INTERACTION
     0x0257 [0x1D] PRINT_EVENT_MESSAGE(message_id=15709*)
    → "But enough tail wagging. I have some prey I need to take care of, so could you rrredeliver that gift to \u001C\u0000 and report back to me when you're done?\u007F1\u0000\u0007"
     0x025A [0x23] WAIT_FOR_DIALOG_INTERACTION
     0x025B [0x01] GOTO 0x0266
     0x025E [0x1D] PRINT_EVENT_MESSAGE(message_id=15703*)
    → "Sorry to burden you, but could you bring it to \u001C\u0000 again for me?\u007F1\u0000\u0007"
     0x0261 [0x23] WAIT_FOR_DIALOG_INTERACTION
     0x0262 [0x1D] PRINT_EVENT_MESSAGE(message_id=15704*)
    → "Also, I'd like it if you could please fill me in when you're done.\u007F1\u0000\u0007"
     0x0265 [0x23] WAIT_FOR_DIALOG_INTERACTION
     0x0266 [0x1B] RETURN
     0x0267 [0x03] ExtData[1]->WorkLocal[0] = Work_Zone[6]
     0x026C [0x42] SET_CLI_EVENT_CANCEL_DATA()
     0x026D [0x1E] EventEntity looks at LocalPlayer and starts talking
     0x0272 [0x6F] WAIT_FRAME_DELAY: Yield until WaitTime reaches zero
     0x0273 [0x70] WAIT_ENTITY_RENDER_FLAG: Wait while EventEntity->Render.Flags3 bit 2 is set (cancel turn if not)
     0x0274 [0x02] IF !(ExtData[1]->WorkLocal[0] == 1*) GOTO 0x0283
     0x027C [0x1D] PRINT_EVENT_MESSAGE(message_id=15675*)
    → "I take it you delivered my present safe and sound?\u0007Oh, and it was well received, too? Ha, you didn't need to tell me that, for my gifts are always a hit.\u0007I guess I should thank you though, seeing as how you played a tiny part in my Starlight Celebration success.\u007F1\u0000\u0007"
     0x027F [0x23] WAIT_FOR_DIALOG_INTERACTION
     0x0280 [0x01] GOTO 0x02E1
     0x0283 [0x02] IF !(ExtData[1]->WorkLocal[0] == 2*) GOTO 0x0292
     0x028B [0x1D] PRINT_EVENT_MESSAGE(message_id=15680*)
    → "How fared your journey, my \u007F\u0005[courageous champion/humble handmaiden]?\u0007Oh, I simply knew I could place my complete trust in you! You've not only made your fair lady quite proud, but saved the Starlight Celebration from those covetous beastmen! Oh, joyous day!\u007F1\u0000\u0007"
     0x028E [0x23] WAIT_FOR_DIALOG_INTERACTION
     0x028F [0x01] GOTO 0x02E1
     0x0292 [0x02] IF !(ExtData[1]->WorkLocal[0] == 3*) GOTO 0x02A1
     0x029A [0x1D] PRINT_EVENT_MESSAGE(message_id=15685*)
    → "Goddess be good, you have returned! And with favorable tidings, no?\u0007Splendid. Absolutely splendid. Thanks to you, I feel as if I could burst into a Starlight carol at any moment. Fa-la-la-la\u0001`\u0001t.\u007F1\u0000\u0007"
     0x029D [0x23] WAIT_FOR_DIALOG_INTERACTION
     0x029E [0x01] GOTO 0x02E1
     0x02A1 [0x02] IF !(ExtData[1]->WorkLocal[0] == 4*) GOTO 0x02B0
     0x02A9 [0x1D] PRINT_EVENT_MESSAGE(message_id=15690*)
    → "Thou hast safely returned from thy trial? Upon us both doth Altana smile!\u0007To thee, the savior of the Starlight Celebration, I do give heartfelt acclamations!\u007F1\u0000\u0007"
     0x02AC [0x23] WAIT_FOR_DIALOG_INTERACTION
     0x02AD [0x01] GOTO 0x02E1
     0x02B0 [0x02] IF !(ExtData[1]->WorkLocal[0] == 5*) GOTO 0x02BF
     0x02B8 [0x1D] PRINT_EVENT_MESSAGE(message_id=15695*)
    → "Ah, you're back!\u0007It's \u001C\u0000's most perished, er, cherished possession, you say? Wh-wh-what lofty-wofty praise!\u0007I can't thank you enough for your c-c-contributions, adventurer.\u007F1\u0000\u0007"
     0x02BB [0x23] WAIT_FOR_DIALOG_INTERACTION
     0x02BC [0x01] GOTO 0x02E1
     0x02BF [0x02] IF !(ExtData[1]->WorkLocal[0] == 6*) GOTO 0x02CE
     0x02C7 [0x1D] PRINT_EVENT_MESSAGE(message_id=15700*)
    → "Hmph, so you're stupid as well as rude? Are you so subservient that you'd actually come backy-wack for a beating?\u0007Get out of my face! You disgustaru me. Oh, and Merry Starlight!\u007F1\u0000\u0007"
     0x02CA [0x23] WAIT_FOR_DIALOG_INTERACTION
     0x02CB [0x01] GOTO 0x02E1
     0x02CE [0x02] IF !(ExtData[1]->WorkLocal[0] == 7*) GOTO 0x02DD
     0x02D6 [0x1D] PRINT_EVENT_MESSAGE(message_id=15710*)
    → "What timing! I've just rrreturned from my own mission.\u0007Whew, good thing \u001C\u0000 liked it! That little trinket was as high priced as the hair on a cat's back!\u0007Anyway, thanks for your help. If your fur ever gets rubbed the wrong way, give me a sign and I'll come rrroaring to the rescue!\u007F1\u0000\u0007"
     0x02D9 [0x23] WAIT_FOR_DIALOG_INTERACTION
     0x02DA [0x01] GOTO 0x02E1
     0x02DD [0x1D] PRINT_EVENT_MESSAGE(message_id=15705*)
    → "I see you've returned.\u0007Mmm...that's good news indeed. Thank you for the kindness you've shown me and my friend.\u007F1\u0000\u0007"
     0x02E0 [0x23] WAIT_FOR_DIALOG_INTERACTION
     0x02E1 [0x1B] RETURN
     0x02E2 [0x03] ExtData[1]->WorkLocal[0] = Work_Zone[6]
     0x02E7 [0x42] SET_CLI_EVENT_CANCEL_DATA()
     0x02E8 [0x1E] EventEntity looks at LocalPlayer and starts talking
     0x02ED [0x6F] WAIT_FRAME_DELAY: Yield until WaitTime reaches zero
     0x02EE [0x70] WAIT_ENTITY_RENDER_FLAG: Wait while EventEntity->Render.Flags3 bit 2 is set (cancel turn if not)
     0x02EF [0x02] IF !(ExtData[1]->WorkLocal[0] == 1*) GOTO 0x0306
     0x02F7 [0x1D] PRINT_EVENT_MESSAGE(message_id=15711*)
    → "A present...from \u001C\u0000? Oh, glorious day!\u0007This is for all those times I never got a present and kept telling myself next year will be the one.\u007F1\u0000\u0007"
     0x02FA [0x23] WAIT_FOR_DIALOG_INTERACTION
     0x02FB [0x1D] PRINT_EVENT_MESSAGE(message_id=15712*)
    → "I'm at a loss for what to say! I'm just overwhelmed with a waterfall of emotion!\u0007Thank you so much!\u007F1\u0000\u0007"
     0x02FE [0x23] WAIT_FOR_DIALOG_INTERACTION
     0x02FF [0x1D] PRINT_EVENT_MESSAGE(message_id=15713*)
    → "And please thank \u001C\u0000 the next time you see that good samaritan.\u0007The person who said, \u00072'Tis better to give than receive\u00073 probably never had a gift drought as long as mine. I feel fantastic!\u007F1\u0000\u0007"
     0x0302 [0x23] WAIT_FOR_DIALOG_INTERACTION
     0x0303 [0x01] GOTO 0x039C
     0x0306 [0x02] IF !(ExtData[1]->WorkLocal[0] == 2*) GOTO 0x031D
     0x030E [0x1D] PRINT_EVENT_MESSAGE(message_id=15714*)
    → "Oh, is that...a present? From \u001C\u0000, you say?\u007F1\u0000\u0007"
     0x0311 [0x23] WAIT_FOR_DIALOG_INTERACTION
     0x0312 [0x1D] PRINT_EVENT_MESSAGE(message_id=15715*)
    → "Ugh, it figures. Did it come with a card that says something pathetic like \u00072I've died a thousand deaths drowning in the depths of your eyes\u00073?\u0007That scoundrel has been stalking me ever since we happened to meet one day on a boat to Buburimu Peninsula.\u007F1\u0000\u0007"
     0x0315 [0x23] WAIT_FOR_DIALOG_INTERACTION
     0x0316 [0x1D] PRINT_EVENT_MESSAGE(message_id=15716*)
    → "I'm actually quite fed up with these ridiculous baubles, but I'm not one for losing face.\u0007If you should see \u001C\u0000 again, please give my regards and say I found the gift rather...quaint.\u007F1\u0000\u0007"
     0x0319 [0x23] WAIT_FOR_DIALOG_INTERACTION
     0x031A [0x01] GOTO 0x039C
     0x031D [0x02] IF !(ExtData[1]->WorkLocal[0] == 3*) GOTO 0x0334
     0x0325 [0x1D] PRINT_EVENT_MESSAGE(message_id=15717*)
    → "What's this? A present addressed to me from \u001C\u0000?\u007F1\u0000\u0007"
     0x0328 [0x23] WAIT_FOR_DIALOG_INTERACTION
     0x0329 [0x1D] PRINT_EVENT_MESSAGE(message_id=15718*)
    → "How unexpectedly charming and thoughtful. This has certainly brightened what was about to be a gloomy Starlight Celebration.\u007F1\u0000\u0007"
     0x032C [0x23] WAIT_FOR_DIALOG_INTERACTION
     0x032D [0x1D] PRINT_EVENT_MESSAGE(message_id=15719*)
    → "Would you be so kind as to tell \u001C\u0000 that I truly appreciate the gift?\u0007I am also thoroughly impressed with your selfless nature, adventurer.\u007F1\u0000\u0007"
     0x0330 [0x23] WAIT_FOR_DIALOG_INTERACTION
     0x0331 [0x01] GOTO 0x039C
     0x0334 [0x02] IF !(ExtData[1]->WorkLocal[0] == 4*) GOTO 0x034B
     0x033C [0x1D] PRINT_EVENT_MESSAGE(message_id=15720*)
    → "Could it be...? Indeed, it is benevolence manifest, emanating from the humble home of one \u001C\u0000?\u007F1\u0000\u0007"
     0x033F [0x23] WAIT_FOR_DIALOG_INTERACTION
     0x0340 [0x1D] PRINT_EVENT_MESSAGE(message_id=15721*)
    → "What a decidedly pleasant surprise. I am simply beside myself with an unbridled, childish glee that has not washed over me in ever so long.\u0007I swear that I am on the brink of giggling like I used to when I was still knee-high to a Taru.\u007F1\u0000\u0007"
     0x0343 [0x23] WAIT_FOR_DIALOG_INTERACTION
     0x0344 [0x1D] PRINT_EVENT_MESSAGE(message_id=15722*)
    → "The finite words of us mere mortals may not be sufficient to convey the depths of my gratitude, but I earnestly hope \u001C\u0000 would appreciate a succinct \u00072Thank you.\u00073\u007F1\u0000\u0007"
     0x0347 [0x23] WAIT_FOR_DIALOG_INTERACTION
     0x0348 [0x01] GOTO 0x039C
     0x034B [0x02] IF !(ExtData[1]->WorkLocal[0] == 5*) GOTO 0x0362
     0x0353 [0x1D] PRINT_EVENT_MESSAGE(message_id=15723*)
    → "A present from...\u001C\u0000? This isn't one of those tricky-wicky flimflams, is it?\u007F1\u0000\u0007"
     0x0356 [0x23] WAIT_FOR_DIALOG_INTERACTION
     0x0357 [0x1D] PRINT_EVENT_MESSAGE(message_id=15724*)
    → "Of course I'll take it! I'm not one to look a gift horse in the mouth, even if it's from my mortaru enemy!\u0007Maybe \u001C\u0000 has turned over a new leaf since we last met...\u007F1\u0000\u0007"
     0x035A [0x23] WAIT_FOR_DIALOG_INTERACTION
     0x035B [0x1D] PRINT_EVENT_MESSAGE(message_id=15725*)
    → "Well then, I suppose some thanks are in order. But if I find out that this was just some elaborataru scheme to make me lower my guard, I'm going to boppy-wop you both in the noggin!\u007F1\u0000\u0007"
     0x035E [0x23] WAIT_FOR_DIALOG_INTERACTION
     0x035F [0x01] GOTO 0x039C
     0x0362 [0x02] IF !(ExtData[1]->WorkLocal[0] == 6*) GOTO 0x0379
     0x036A [0x1D] PRINT_EVENT_MESSAGE(message_id=15726*)
    → "Oooh, a gift from \u001C\u0000?\u0007What jolly-wolly tidings you've brought, adventurer.\u007F1\u0000\u0007"
     0x036D [0x23] WAIT_FOR_DIALOG_INTERACTION
     0x036E [0x1D] PRINT_EVENT_MESSAGE(message_id=15727*)
    → "I wonder what's inside... Could it be a scrum-diddly-umptious cake?\u0007But I've already gotten so roly-poly during the holiday season! Maybe I should just send it back! \u007F1\u0000\u0007"
     0x0371 [0x23] WAIT_FOR_DIALOG_INTERACTION
     0x0372 [0x1D] PRINT_EVENT_MESSAGE(message_id=15728*)
    → "No, thataru wouldn't be right. Besides, it might not be edible.\u0007Anyway, please be sure to thank \u001C\u0000 for pudding the icing on such a delectable Starcake Chocolation.\u0007Ugh, I'm just terrible!\u007F1\u0000\u0007"
     0x0375 [0x23] WAIT_FOR_DIALOG_INTERACTION
     0x0376 [0x01] GOTO 0x039C
     0x0379 [0x02] IF !(ExtData[1]->WorkLocal[0] == 7*) GOTO 0x0390
     0x0381 [0x1D] PRINT_EVENT_MESSAGE(message_id=15732*)
    → "A present for me? \u0007I'm a lone lioness, and I don't need to share my kills with anyone!\u007F1\u0000\u0007"
     0x0384 [0x23] WAIT_FOR_DIALOG_INTERACTION
     0x0385 [0x1D] PRINT_EVENT_MESSAGE(message_id=15733*)
    → "What? \u001C\u0000 wanted me to have this? Well, I guess I could take it...\u007F1\u0000\u0007"
     0x0388 [0x23] WAIT_FOR_DIALOG_INTERACTION
     0x0389 [0x1D] PRINT_EVENT_MESSAGE(message_id=15734*)
    → "Don't get the wrrrong idea! It's not like I enjoy the gift or anything!\u0007Just run back to \u001C\u0000 and drop dead! This conversation never happened!\u007F1\u0000\u0007"
     0x038C [0x23] WAIT_FOR_DIALOG_INTERACTION
     0x038D [0x01] GOTO 0x039C
     0x0390 [0x1D] PRINT_EVENT_MESSAGE(message_id=15729*)
    → "Why would \u001C\u0000 be sending me a gift? It's not like there's anything special going on.\u007F1\u0000\u0007"
     0x0393 [0x23] WAIT_FOR_DIALOG_INTERACTION
     0x0394 [0x1D] PRINT_EVENT_MESSAGE(message_id=15730*)
    → "The Starlight Celebration, you say? So that explains the light shows and festive atmosphere around here lately.\u0007My head just hasn't been the same since I fell off that chocobo last month.\u007F1\u0000\u0007"
     0x0397 [0x23] WAIT_FOR_DIALOG_INTERACTION
     0x0398 [0x1D] PRINT_EVENT_MESSAGE(message_id=15731*)
    → "I best start looking for something to give in return. In the meantime, please tell \u001C\u0000 how happy I am to have received this.\u0007And maybe next year I'll remember before it's too late. <Sigh>...One can only hope.\u007F1\u0000\u0007"
     0x039B [0x23] WAIT_FOR_DIALOG_INTERACTION
     0x039C [0x1B] RETURN
```