# 17768498 - Kiwawa

## Common Data

| Field            | Value                   |
|------------------|-------------------------|
| Zone             | Heavens Tower (ID: 242) |
| Block Size       | 812 bytes               |
| Total Events     | 25                      |
| References Count | 25                      |

## List of Events

| Event ID                   | Entrypoint   |   Size |   Instructions |
|----------------------------|--------------|--------|----------------|
| [65535](#event-65535)      | 0x0000       |      1 |              1 |
| [65535.1](#event-655351)   | 0x0001       |     16 |              2 |
| [65535.2](#event-655352)   | 0x0011       |      9 |              3 |
| [65535.3](#event-655353)   | 0x001A       |     16 |              2 |
| [65535.4](#event-655354)   | 0x002A       |     14 |              2 |
| [65535.5](#event-655355)   | 0x0038       |     16 |              2 |
| [65535.6](#event-655356)   | 0x0048       |     14 |              2 |
| [65535.7](#event-655357)   | 0x0056       |     16 |              2 |
| [65535.8](#event-655358)   | 0x0066       |     14 |              2 |
| [65535.9](#event-655359)   | 0x0074       |     16 |              2 |
| [65535.10](#event-6553510) | 0x0084       |     14 |              2 |
| [58](#event-58)            | 0x0092       |     33 |             12 |
| [69](#event-69)            | 0x00B3       |     33 |             12 |
| [121](#event-121)          | 0x00D4       |      1 |              1 |
| [135](#event-135)          | 0x00D5       |      1 |              1 |
| [124](#event-124)          | 0x00D6       |     33 |             12 |
| [138](#event-138)          | 0x00F7       |     33 |             12 |
| [178](#event-178)          | 0x0118       |     33 |             12 |
| [203](#event-203)          | 0x0139       |     33 |             12 |
| [224](#event-224)          | 0x015A       |     33 |             12 |
| [317](#event-317)          | 0x017B       |     33 |             12 |
| [309](#event-309)          | 0x019C       |     29 |             10 |
| [338](#event-338)          | 0x01B9       |     47 |             14 |
| [351](#event-351)          | 0x01E8       |     61 |             16 |
| [389](#event-389)          | 0x0225       |     47 |             14 |

## DAT References (imed_data)

|   Index | Hex Value   |   Dec Value |
|---------|-------------|-------------|
|       0 | 0x0028      |          40 |
|       1 | 0x001E      |          30 |
|       2 | 0x001F      |          31 |
|       3 | 0x0020      |          32 |
|       4 | 0x0035      |          53 |
|       5 | 0x0036      |          54 |
|       6 | 0x00F5      |         245 |
|       7 | 0x00F6      |         246 |
|       8 | 0x0116      |         278 |
|       9 | 0x0117      |         279 |
|      10 | 0x016F      |         367 |
|      11 | 0x0170      |         368 |
|      12 | 0x01C4      |         452 |
|      13 | 0x01C5      |         453 |
|      14 | 0x01F3      |         499 |
|      15 | 0x01F4      |         500 |
|      16 | 0x1FCC      |        8140 |
|      17 | 0x1FCD      |        8141 |
|      18 | 0x1FE1      |        8161 |
|      19 | 0x2059      |        8281 |
|      20 | 0x205A      |        8282 |
|      21 | 0x20E5      |        8421 |
|      22 | 0x20E6      |        8422 |
|      23 | 0x213F      |        8511 |
|      24 | 0x2140      |        8512 |

## String References

- **31**: I apologize, but no matter how many itty-bitty battles you have fought for Windurst, our trust must be earned in other ways here.
- **32**: Our hopes and beliefs lie fully in the Star Sibyl. Only she can duly-truly guide us.
- **53**: I apologize, but no matter how many itty-bitty battles you have fought for Windurst, our trust must be earned in other ways here.
- **54**: However, I can tell you this. Thanks to you, the Star Sibyl is feeling a little bitter-better, and most of the ladies-in-waiting are relieved.
- **245**: I cannot see why Lady Zubaba would ask a blimey-grimy adventurer like you to help her.
- **246**: Now don't go off blabby-wabbing all that you've heard here today. This matter is between you, Lady Zubaba, and the Star Sibyl.
- **278**: The Star Sibyl will be resting for the next few days.
- **279**: You can trust us ladies-in-waiting to take good carey-wary of her.
- **367**: So, once again history has begun to repeat itself. We ladies-in-waiting must get ready-steady for the coming battle.
- **368**: No, no, no. I have to believe the remaining talismans are still intact.
- **452**: Is it true that Bastok and San d'Oria also had their talismans stolen?
- **453**: Then we have no time to losey-woosey! Something must be done immediately!
- **499**: I heard that when the tell-tale talismans were stolen, adventurers from all around Vana'diel set out for the Northlands.
- **500**: Crossing cultural boundaries, joining hands and paws for one great cause... What excitement! What romance! What...oh! Pardon me!
- **8140**: Your next journey will be safey-wafey and profitable, I believe.
- **8141**: Oh, please don't misunderstand me. I really-weally don't trust you at all. I'm well aware that adventurer types are not worthy of an honest person's trust.
- **8161**: I thought that maybe I could trust an adventurer like yourself, but...I still have some reservations.
- **8281**: ...I c-c-can'taru s-s-stop sh-sh-shaking...
- **8282**: What is it about that b-b-bearer of d-d-darkness that c-c-causes such f-f-fear...? It was like b-b-being wrappy-wapped in p-p-pure blackness...
- **8421**: I heard that lots of those feral-weral Cardians were on the move across Sarutabaruta.
- **8422**: I wonder if their creator, Zonpa-Zippa, could've tamed them had he been here.
- **8511**: Is it true that the Star Sibyl defeatarued the Bearer of Darkness?
- **8512**: You were there when it happened, rightaru? I wish I could've been there to see the glorious-worious spectacle of our courageous Star Sibyl.

## Events

### Event 65535

#### Metadata

| Field        | Value   |
|--------------|---------|
| Entrypoint   | 0x0000  |
| Data Size    | 1 bytes |
| Instructions | 1       |

```
      00 01 02 03 04 05 06 07  08 09 0A 0B 0C 0D 0E 0F
      -- -- -- -- -- -- -- --  -- -- -- -- -- -- -- --
0000: 00                                                .               
```

#### Opcodes

```
  0: 0x0000 [0x00] END_REQSTACK()
```

### Event 65535.1

#### Metadata

| Field        | Value    |
|--------------|----------|
| Entrypoint   | 0x0001   |
| Data Size    | 16 bytes |
| Instructions | 2        |

```
      00 01 02 03 04 05 06 07  08 09 0A 0B 0C 0D 0E 0F
      -- -- -- -- -- -- -- --  -- -- -- -- -- -- -- --
0000:    66 00 80 F8 FF FF 7F  F8 FF FF 7F 74 6C 6B 30   f..........tlk0
0010: 00                                                .               
```

#### Opcodes

```
  0: 0x0001 [0x66] LOAD_EXT_SCHEDULER_MAIN: Load scheduler "tlk0" with entities [EventEntity, EventEntity], work=40*
  1: 0x0010 [0x00] END_REQSTACK()
```

### Event 65535.2

#### Metadata

| Field        | Value   |
|--------------|---------|
| Entrypoint   | 0x0011  |
| Data Size    | 9 bytes |
| Instructions | 3       |

```
      00 01 02 03 04 05 06 07  08 09 0A 0B 0C 0D 0E 0F
      -- -- -- -- -- -- -- --  -- -- -- -- -- -- -- --
0010:    5E 69 64 6C 30 1C 01  80 00                     ^idl0....      
```

#### Opcodes

```
  0: 0x0011 [0x5E] EventEntity goes idle (kills current action) (animation: "idl0")
  1: 0x0016 [0x1C] WAIT(30* ticks)
  2: 0x0019 [0x00] END_REQSTACK()
```

### Event 65535.3

#### Metadata

| Field        | Value    |
|--------------|----------|
| Entrypoint   | 0x001A   |
| Data Size    | 16 bytes |
| Instructions | 2        |

```
      00 01 02 03 04 05 06 07  08 09 0A 0B 0C 0D 0E 0F
      -- -- -- -- -- -- -- --  -- -- -- -- -- -- -- --
0010:                                66 00 80 F8 FF FF            f.....
0020: 7F F8 FF FF 7F 6F 62 69  30 00                    .....obi0.      
```

#### Opcodes

```
  0: 0x001A [0x66] LOAD_EXT_SCHEDULER_MAIN: Load scheduler "obi0" with entities [EventEntity, EventEntity], work=40*
  1: 0x0029 [0x00] END_REQSTACK()
```

### Event 65535.4

#### Metadata

| Field        | Value    |
|--------------|----------|
| Entrypoint   | 0x002A   |
| Data Size    | 14 bytes |
| Instructions | 2        |

```
      00 01 02 03 04 05 06 07  08 09 0A 0B 0C 0D 0E 0F
      -- -- -- -- -- -- -- --  -- -- -- -- -- -- -- --
0020:                                53 F8 FF FF 7F F8            S.....
0030: FF FF 7F 6F 62 69 30 00                           ...obi0.        
```

#### Opcodes

```
  0: 0x002A [0x53] WAIT_SCHEDULER_TASK: Wait for scheduler "obi0" with entities [EventEntity, EventEntity]
  1: 0x0037 [0x00] END_REQSTACK()
```

### Event 65535.5

#### Metadata

| Field        | Value    |
|--------------|----------|
| Entrypoint   | 0x0038   |
| Data Size    | 16 bytes |
| Instructions | 2        |

```
      00 01 02 03 04 05 06 07  08 09 0A 0B 0C 0D 0E 0F
      -- -- -- -- -- -- -- --  -- -- -- -- -- -- -- --
0030:                          66 00 80 F8 FF FF 7F F8          f.......
0040: FF FF 7F 6F 62 69 31 00                           ...obi1.        
```

#### Opcodes

```
  0: 0x0038 [0x66] LOAD_EXT_SCHEDULER_MAIN: Load scheduler "obi1" with entities [EventEntity, EventEntity], work=40*
  1: 0x0047 [0x00] END_REQSTACK()
```

### Event 65535.6

#### Metadata

| Field        | Value    |
|--------------|----------|
| Entrypoint   | 0x0048   |
| Data Size    | 14 bytes |
| Instructions | 2        |

```
      00 01 02 03 04 05 06 07  08 09 0A 0B 0C 0D 0E 0F
      -- -- -- -- -- -- -- --  -- -- -- -- -- -- -- --
0040:                          53 F8 FF FF 7F F8 FF FF          S.......
0050: 7F 6F 62 69 31 00                                 .obi1.          
```

#### Opcodes

```
  0: 0x0048 [0x53] WAIT_SCHEDULER_TASK: Wait for scheduler "obi1" with entities [EventEntity, EventEntity]
  1: 0x0055 [0x00] END_REQSTACK()
```

### Event 65535.7

#### Metadata

| Field        | Value    |
|--------------|----------|
| Entrypoint   | 0x0056   |
| Data Size    | 16 bytes |
| Instructions | 2        |

```
      00 01 02 03 04 05 06 07  08 09 0A 0B 0C 0D 0E 0F
      -- -- -- -- -- -- -- --  -- -- -- -- -- -- -- --
0050:                   66 00  80 F8 FF FF 7F F8 FF FF        f.........
0060: 7F 74 68 6B 31 00                                 .thk1.          
```

#### Opcodes

```
  0: 0x0056 [0x66] LOAD_EXT_SCHEDULER_MAIN: Load scheduler "thk1" with entities [EventEntity, EventEntity], work=40*
  1: 0x0065 [0x00] END_REQSTACK()
```

### Event 65535.8

#### Metadata

| Field        | Value    |
|--------------|----------|
| Entrypoint   | 0x0066   |
| Data Size    | 14 bytes |
| Instructions | 2        |

```
      00 01 02 03 04 05 06 07  08 09 0A 0B 0C 0D 0E 0F
      -- -- -- -- -- -- -- --  -- -- -- -- -- -- -- --
0060:                   53 F8  FF FF 7F F8 FF FF 7F 74        S........t
0070: 68 6B 31 00                                       hk1.            
```

#### Opcodes

```
  0: 0x0066 [0x53] WAIT_SCHEDULER_TASK: Wait for scheduler "thk1" with entities [EventEntity, EventEntity]
  1: 0x0073 [0x00] END_REQSTACK()
```

### Event 65535.9

#### Metadata

| Field        | Value    |
|--------------|----------|
| Entrypoint   | 0x0074   |
| Data Size    | 16 bytes |
| Instructions | 2        |

```
      00 01 02 03 04 05 06 07  08 09 0A 0B 0C 0D 0E 0F
      -- -- -- -- -- -- -- --  -- -- -- -- -- -- -- --
0070:             66 00 80 F8  FF FF 7F F8 FF FF 7F 74      f..........t
0080: 68 6B 32 00                                       hk2.            
```

#### Opcodes

```
  0: 0x0074 [0x66] LOAD_EXT_SCHEDULER_MAIN: Load scheduler "thk2" with entities [EventEntity, EventEntity], work=40*
  1: 0x0083 [0x00] END_REQSTACK()
```

### Event 65535.10

#### Metadata

| Field        | Value    |
|--------------|----------|
| Entrypoint   | 0x0084   |
| Data Size    | 14 bytes |
| Instructions | 2        |

```
      00 01 02 03 04 05 06 07  08 09 0A 0B 0C 0D 0E 0F
      -- -- -- -- -- -- -- --  -- -- -- -- -- -- -- --
0080:             53 F8 FF FF  7F F8 FF FF 7F 74 68 6B      S........thk
0090: 32 00                                             2.              
```

#### Opcodes

```
  0: 0x0084 [0x53] WAIT_SCHEDULER_TASK: Wait for scheduler "thk2" with entities [EventEntity, EventEntity]
  1: 0x0091 [0x00] END_REQSTACK()
```

### Event 58

#### Metadata

| Field        | Value    |
|--------------|----------|
| Entrypoint   | 0x0092   |
| Data Size    | 33 bytes |
| Instructions | 12       |

```
      00 01 02 03 04 05 06 07  08 09 0A 0B 0C 0D 0E 0F
      -- -- -- -- -- -- -- --  -- -- -- -- -- -- -- --
0090:       1E F0 FF FF 7F 6F  70 29 08 32 20 0F 01 01    .....op).2 ...
00A0: 1D 02 80 23 1D 03 80 23  29 08 32 20 0F 01 02 20  ...#...#).2 ... 
00B0: 00 21 00                                          .!.             
```

#### Opcodes

```
  0: 0x0092 [0x1E] EventEntity looks at LocalPlayer and starts talking
  1: 0x0097 [0x6F] WAIT_FRAME_DELAY: Yield until WaitTime reaches zero
  2: 0x0098 [0x70] WAIT_ENTITY_RENDER_FLAG: Wait while EventEntity->Render.Flags3 bit 2 is set (cancel turn if not)
  3: 0x0099 [0x29] REQ_SET_WAIT(priority=0x08, entity_id=Kiwawa (ID: 17768498/0x010F2032), tag_num=0x01)
  4: 0x00A0 [0x1D] PRINT_EVENT_MESSAGE(message_id=31*)
    → "I apologize, but no matter how many itty-bitty battles you have fought for Windurst, our trust must be earned in other ways here."
  5: 0x00A3 [0x23] WAIT_FOR_DIALOG_INTERACTION
  6: 0x00A4 [0x1D] PRINT_EVENT_MESSAGE(message_id=32*)
    → "Our hopes and beliefs lie fully in the Star Sibyl. Only she can duly-truly guide us."
  7: 0x00A7 [0x23] WAIT_FOR_DIALOG_INTERACTION
  8: 0x00A8 [0x29] REQ_SET_WAIT(priority=0x08, entity_id=Kiwawa (ID: 17768498/0x010F2032), tag_num=0x02)
  9: 0x00AF [0x20] SET_CLI_EVENT_UC_FLAG: Unlock player control
 10: 0x00B1 [0x21] END_EVENT
 11: 0x00B2 [0x00] END_REQSTACK()
```

### Event 69

#### Metadata

| Field        | Value    |
|--------------|----------|
| Entrypoint   | 0x00B3   |
| Data Size    | 33 bytes |
| Instructions | 12       |

```
      00 01 02 03 04 05 06 07  08 09 0A 0B 0C 0D 0E 0F
      -- -- -- -- -- -- -- --  -- -- -- -- -- -- -- --
00B0:          1E F0 FF FF 7F  6F 70 29 08 32 20 0F 01     .....op).2 ..
00C0: 01 1D 04 80 23 1D 05 80  23 29 08 32 20 0F 01 02  ....#...#).2 ...
00D0: 20 00 21 00                                        .!.            
```

#### Opcodes

```
  0: 0x00B3 [0x1E] EventEntity looks at LocalPlayer and starts talking
  1: 0x00B8 [0x6F] WAIT_FRAME_DELAY: Yield until WaitTime reaches zero
  2: 0x00B9 [0x70] WAIT_ENTITY_RENDER_FLAG: Wait while EventEntity->Render.Flags3 bit 2 is set (cancel turn if not)
  3: 0x00BA [0x29] REQ_SET_WAIT(priority=0x08, entity_id=Kiwawa (ID: 17768498/0x010F2032), tag_num=0x01)
  4: 0x00C1 [0x1D] PRINT_EVENT_MESSAGE(message_id=53*)
    → "I apologize, but no matter how many itty-bitty battles you have fought for Windurst, our trust must be earned in other ways here."
  5: 0x00C4 [0x23] WAIT_FOR_DIALOG_INTERACTION
  6: 0x00C5 [0x1D] PRINT_EVENT_MESSAGE(message_id=54*)
    → "However, I can tell you this. Thanks to you, the Star Sibyl is feeling a little bitter-better, and most of the ladies-in-waiting are relieved."
  7: 0x00C8 [0x23] WAIT_FOR_DIALOG_INTERACTION
  8: 0x00C9 [0x29] REQ_SET_WAIT(priority=0x08, entity_id=Kiwawa (ID: 17768498/0x010F2032), tag_num=0x02)
  9: 0x00D0 [0x20] SET_CLI_EVENT_UC_FLAG: Unlock player control
 10: 0x00D2 [0x21] END_EVENT
 11: 0x00D3 [0x00] END_REQSTACK()
```

### Event 121

#### Metadata

| Field        | Value   |
|--------------|---------|
| Entrypoint   | 0x00D4  |
| Data Size    | 1 bytes |
| Instructions | 1       |

```
      00 01 02 03 04 05 06 07  08 09 0A 0B 0C 0D 0E 0F
      -- -- -- -- -- -- -- --  -- -- -- -- -- -- -- --
00D0:             00                                        .           
```

#### Opcodes

```
  0: 0x00D4 [0x00] END_REQSTACK()
```

### Event 135

#### Metadata

| Field        | Value   |
|--------------|---------|
| Entrypoint   | 0x00D5  |
| Data Size    | 1 bytes |
| Instructions | 1       |

```
      00 01 02 03 04 05 06 07  08 09 0A 0B 0C 0D 0E 0F
      -- -- -- -- -- -- -- --  -- -- -- -- -- -- -- --
00D0:                00                                      .          
```

#### Opcodes

```
  0: 0x00D5 [0x00] END_REQSTACK()
```

### Event 124

#### Metadata

| Field        | Value    |
|--------------|----------|
| Entrypoint   | 0x00D6   |
| Data Size    | 33 bytes |
| Instructions | 12       |

```
      00 01 02 03 04 05 06 07  08 09 0A 0B 0C 0D 0E 0F
      -- -- -- -- -- -- -- --  -- -- -- -- -- -- -- --
00D0:                   1E F0  FF FF 7F 6F 70 29 08 32        .....op).2
00E0: 20 0F 01 01 1D 06 80 23  1D 07 80 23 29 08 32 20   ......#...#).2 
00F0: 0F 01 02 20 00 21 00                              ... .!.         
```

#### Opcodes

```
  0: 0x00D6 [0x1E] EventEntity looks at LocalPlayer and starts talking
  1: 0x00DB [0x6F] WAIT_FRAME_DELAY: Yield until WaitTime reaches zero
  2: 0x00DC [0x70] WAIT_ENTITY_RENDER_FLAG: Wait while EventEntity->Render.Flags3 bit 2 is set (cancel turn if not)
  3: 0x00DD [0x29] REQ_SET_WAIT(priority=0x08, entity_id=Kiwawa (ID: 17768498/0x010F2032), tag_num=0x01)
  4: 0x00E4 [0x1D] PRINT_EVENT_MESSAGE(message_id=245*)
    → "I cannot see why Lady Zubaba would ask a blimey-grimy adventurer like you to help her."
  5: 0x00E7 [0x23] WAIT_FOR_DIALOG_INTERACTION
  6: 0x00E8 [0x1D] PRINT_EVENT_MESSAGE(message_id=246*)
    → "Now don't go off blabby-wabbing all that you've heard here today. This matter is between you, Lady Zubaba, and the Star Sibyl."
  7: 0x00EB [0x23] WAIT_FOR_DIALOG_INTERACTION
  8: 0x00EC [0x29] REQ_SET_WAIT(priority=0x08, entity_id=Kiwawa (ID: 17768498/0x010F2032), tag_num=0x02)
  9: 0x00F3 [0x20] SET_CLI_EVENT_UC_FLAG: Unlock player control
 10: 0x00F5 [0x21] END_EVENT
 11: 0x00F6 [0x00] END_REQSTACK()
```

### Event 138

#### Metadata

| Field        | Value    |
|--------------|----------|
| Entrypoint   | 0x00F7   |
| Data Size    | 33 bytes |
| Instructions | 12       |

```
      00 01 02 03 04 05 06 07  08 09 0A 0B 0C 0D 0E 0F
      -- -- -- -- -- -- -- --  -- -- -- -- -- -- -- --
00F0:                      1E  F0 FF FF 7F 6F 70 29 08         .....op).
0100: 32 20 0F 01 01 1D 08 80  23 1D 09 80 23 29 08 32  2 ......#...#).2
0110: 20 0F 01 02 20 00 21 00                            ... .!.        
```

#### Opcodes

```
  0: 0x00F7 [0x1E] EventEntity looks at LocalPlayer and starts talking
  1: 0x00FC [0x6F] WAIT_FRAME_DELAY: Yield until WaitTime reaches zero
  2: 0x00FD [0x70] WAIT_ENTITY_RENDER_FLAG: Wait while EventEntity->Render.Flags3 bit 2 is set (cancel turn if not)
  3: 0x00FE [0x29] REQ_SET_WAIT(priority=0x08, entity_id=Kiwawa (ID: 17768498/0x010F2032), tag_num=0x01)
  4: 0x0105 [0x1D] PRINT_EVENT_MESSAGE(message_id=278*)
    → "The Star Sibyl will be resting for the next few days."
  5: 0x0108 [0x23] WAIT_FOR_DIALOG_INTERACTION
  6: 0x0109 [0x1D] PRINT_EVENT_MESSAGE(message_id=279*)
    → "You can trust us ladies-in-waiting to take good carey-wary of her."
  7: 0x010C [0x23] WAIT_FOR_DIALOG_INTERACTION
  8: 0x010D [0x29] REQ_SET_WAIT(priority=0x08, entity_id=Kiwawa (ID: 17768498/0x010F2032), tag_num=0x02)
  9: 0x0114 [0x20] SET_CLI_EVENT_UC_FLAG: Unlock player control
 10: 0x0116 [0x21] END_EVENT
 11: 0x0117 [0x00] END_REQSTACK()
```

### Event 178

#### Metadata

| Field        | Value    |
|--------------|----------|
| Entrypoint   | 0x0118   |
| Data Size    | 33 bytes |
| Instructions | 12       |

```
      00 01 02 03 04 05 06 07  08 09 0A 0B 0C 0D 0E 0F
      -- -- -- -- -- -- -- --  -- -- -- -- -- -- -- --
0110:                          1E F0 FF FF 7F 6F 70 29          .....op)
0120: 08 32 20 0F 01 01 1D 0A  80 23 1D 0B 80 23 29 08  .2 ......#...#).
0130: 32 20 0F 01 02 20 00 21  00                       2 ... .!.       
```

#### Opcodes

```
  0: 0x0118 [0x1E] EventEntity looks at LocalPlayer and starts talking
  1: 0x011D [0x6F] WAIT_FRAME_DELAY: Yield until WaitTime reaches zero
  2: 0x011E [0x70] WAIT_ENTITY_RENDER_FLAG: Wait while EventEntity->Render.Flags3 bit 2 is set (cancel turn if not)
  3: 0x011F [0x29] REQ_SET_WAIT(priority=0x08, entity_id=Kiwawa (ID: 17768498/0x010F2032), tag_num=0x01)
  4: 0x0126 [0x1D] PRINT_EVENT_MESSAGE(message_id=367*)
    → "So, once again history has begun to repeat itself. We ladies-in-waiting must get ready-steady for the coming battle."
  5: 0x0129 [0x23] WAIT_FOR_DIALOG_INTERACTION
  6: 0x012A [0x1D] PRINT_EVENT_MESSAGE(message_id=368*)
    → "No, no, no. I have to believe the remaining talismans are still intact."
  7: 0x012D [0x23] WAIT_FOR_DIALOG_INTERACTION
  8: 0x012E [0x29] REQ_SET_WAIT(priority=0x08, entity_id=Kiwawa (ID: 17768498/0x010F2032), tag_num=0x02)
  9: 0x0135 [0x20] SET_CLI_EVENT_UC_FLAG: Unlock player control
 10: 0x0137 [0x21] END_EVENT
 11: 0x0138 [0x00] END_REQSTACK()
```

### Event 203

#### Metadata

| Field        | Value    |
|--------------|----------|
| Entrypoint   | 0x0139   |
| Data Size    | 33 bytes |
| Instructions | 12       |

```
      00 01 02 03 04 05 06 07  08 09 0A 0B 0C 0D 0E 0F
      -- -- -- -- -- -- -- --  -- -- -- -- -- -- -- --
0130:                             1E F0 FF FF 7F 6F 70           .....op
0140: 29 08 32 20 0F 01 01 1D  0C 80 23 1D 0D 80 23 29  ).2 ......#...#)
0150: 08 32 20 0F 01 02 20 00  21 00                    .2 ... .!.      
```

#### Opcodes

```
  0: 0x0139 [0x1E] EventEntity looks at LocalPlayer and starts talking
  1: 0x013E [0x6F] WAIT_FRAME_DELAY: Yield until WaitTime reaches zero
  2: 0x013F [0x70] WAIT_ENTITY_RENDER_FLAG: Wait while EventEntity->Render.Flags3 bit 2 is set (cancel turn if not)
  3: 0x0140 [0x29] REQ_SET_WAIT(priority=0x08, entity_id=Kiwawa (ID: 17768498/0x010F2032), tag_num=0x01)
  4: 0x0147 [0x1D] PRINT_EVENT_MESSAGE(message_id=452*)
    → "Is it true that Bastok and San d'Oria also had their talismans stolen?"
  5: 0x014A [0x23] WAIT_FOR_DIALOG_INTERACTION
  6: 0x014B [0x1D] PRINT_EVENT_MESSAGE(message_id=453*)
    → "Then we have no time to losey-woosey! Something must be done immediately!"
  7: 0x014E [0x23] WAIT_FOR_DIALOG_INTERACTION
  8: 0x014F [0x29] REQ_SET_WAIT(priority=0x08, entity_id=Kiwawa (ID: 17768498/0x010F2032), tag_num=0x02)
  9: 0x0156 [0x20] SET_CLI_EVENT_UC_FLAG: Unlock player control
 10: 0x0158 [0x21] END_EVENT
 11: 0x0159 [0x00] END_REQSTACK()
```

### Event 224

#### Metadata

| Field        | Value    |
|--------------|----------|
| Entrypoint   | 0x015A   |
| Data Size    | 33 bytes |
| Instructions | 12       |

```
      00 01 02 03 04 05 06 07  08 09 0A 0B 0C 0D 0E 0F
      -- -- -- -- -- -- -- --  -- -- -- -- -- -- -- --
0150:                                1E F0 FF FF 7F 6F            .....o
0160: 70 29 08 32 20 0F 01 01  1D 0E 80 23 1D 0F 80 23  p).2 ......#...#
0170: 29 08 32 20 0F 01 02 20  00 21 00                 ).2 ... .!.     
```

#### Opcodes

```
  0: 0x015A [0x1E] EventEntity looks at LocalPlayer and starts talking
  1: 0x015F [0x6F] WAIT_FRAME_DELAY: Yield until WaitTime reaches zero
  2: 0x0160 [0x70] WAIT_ENTITY_RENDER_FLAG: Wait while EventEntity->Render.Flags3 bit 2 is set (cancel turn if not)
  3: 0x0161 [0x29] REQ_SET_WAIT(priority=0x08, entity_id=Kiwawa (ID: 17768498/0x010F2032), tag_num=0x01)
  4: 0x0168 [0x1D] PRINT_EVENT_MESSAGE(message_id=499*)
    → "I heard that when the tell-tale talismans were stolen, adventurers from all around Vana'diel set out for the Northlands."
  5: 0x016B [0x23] WAIT_FOR_DIALOG_INTERACTION
  6: 0x016C [0x1D] PRINT_EVENT_MESSAGE(message_id=500*)
    → "Crossing cultural boundaries, joining hands and paws for one great cause... What excitement! What romance! What...oh! Pardon me!"
  7: 0x016F [0x23] WAIT_FOR_DIALOG_INTERACTION
  8: 0x0170 [0x29] REQ_SET_WAIT(priority=0x08, entity_id=Kiwawa (ID: 17768498/0x010F2032), tag_num=0x02)
  9: 0x0177 [0x20] SET_CLI_EVENT_UC_FLAG: Unlock player control
 10: 0x0179 [0x21] END_EVENT
 11: 0x017A [0x00] END_REQSTACK()
```

### Event 317

#### Metadata

| Field        | Value    |
|--------------|----------|
| Entrypoint   | 0x017B   |
| Data Size    | 33 bytes |
| Instructions | 12       |

```
      00 01 02 03 04 05 06 07  08 09 0A 0B 0C 0D 0E 0F
      -- -- -- -- -- -- -- --  -- -- -- -- -- -- -- --
0170:                                   1E F0 FF FF 7F             .....
0180: 6F 70 29 08 32 20 0F 01  01 1D 10 80 23 1D 11 80  op).2 ......#...
0190: 23 29 08 32 20 0F 01 02  20 00 21 00              #).2 ... .!.    
```

#### Opcodes

```
  0: 0x017B [0x1E] EventEntity looks at LocalPlayer and starts talking
  1: 0x0180 [0x6F] WAIT_FRAME_DELAY: Yield until WaitTime reaches zero
  2: 0x0181 [0x70] WAIT_ENTITY_RENDER_FLAG: Wait while EventEntity->Render.Flags3 bit 2 is set (cancel turn if not)
  3: 0x0182 [0x29] REQ_SET_WAIT(priority=0x08, entity_id=Kiwawa (ID: 17768498/0x010F2032), tag_num=0x01)
  4: 0x0189 [0x1D] PRINT_EVENT_MESSAGE(message_id=8140*)
    → "Your next journey will be safey-wafey and profitable, I believe."
  5: 0x018C [0x23] WAIT_FOR_DIALOG_INTERACTION
  6: 0x018D [0x1D] PRINT_EVENT_MESSAGE(message_id=8141*)
    → "Oh, please don't misunderstand me. I really-weally don't trust you at all. I'm well aware that adventurer types are not worthy of an honest person's trust."
  7: 0x0190 [0x23] WAIT_FOR_DIALOG_INTERACTION
  8: 0x0191 [0x29] REQ_SET_WAIT(priority=0x08, entity_id=Kiwawa (ID: 17768498/0x010F2032), tag_num=0x02)
  9: 0x0198 [0x20] SET_CLI_EVENT_UC_FLAG: Unlock player control
 10: 0x019A [0x21] END_EVENT
 11: 0x019B [0x00] END_REQSTACK()
```

### Event 309

#### Metadata

| Field        | Value    |
|--------------|----------|
| Entrypoint   | 0x019C   |
| Data Size    | 29 bytes |
| Instructions | 10       |

```
      00 01 02 03 04 05 06 07  08 09 0A 0B 0C 0D 0E 0F
      -- -- -- -- -- -- -- --  -- -- -- -- -- -- -- --
0190:                                      1E F0 FF FF              ....
01A0: 7F 6F 70 29 08 32 20 0F  01 01 1D 12 80 23 29 08  .op).2 ......#).
01B0: 32 20 0F 01 02 20 00 21  00                       2 ... .!.       
```

#### Opcodes

```
  0: 0x019C [0x1E] EventEntity looks at LocalPlayer and starts talking
  1: 0x01A1 [0x6F] WAIT_FRAME_DELAY: Yield until WaitTime reaches zero
  2: 0x01A2 [0x70] WAIT_ENTITY_RENDER_FLAG: Wait while EventEntity->Render.Flags3 bit 2 is set (cancel turn if not)
  3: 0x01A3 [0x29] REQ_SET_WAIT(priority=0x08, entity_id=Kiwawa (ID: 17768498/0x010F2032), tag_num=0x01)
  4: 0x01AA [0x1D] PRINT_EVENT_MESSAGE(message_id=8161*)
    → "I thought that maybe I could trust an adventurer like yourself, but...I still have some reservations."
  5: 0x01AD [0x23] WAIT_FOR_DIALOG_INTERACTION
  6: 0x01AE [0x29] REQ_SET_WAIT(priority=0x08, entity_id=Kiwawa (ID: 17768498/0x010F2032), tag_num=0x02)
  7: 0x01B5 [0x20] SET_CLI_EVENT_UC_FLAG: Unlock player control
  8: 0x01B7 [0x21] END_EVENT
  9: 0x01B8 [0x00] END_REQSTACK()
```

### Event 338

#### Metadata

| Field        | Value    |
|--------------|----------|
| Entrypoint   | 0x01B9   |
| Data Size    | 47 bytes |
| Instructions | 14       |

```
      00 01 02 03 04 05 06 07  08 09 0A 0B 0C 0D 0E 0F
      -- -- -- -- -- -- -- --  -- -- -- -- -- -- -- --
01B0:                             1E F0 FF FF 7F 6F 70           .....op
01C0: 29 08 32 20 0F 01 03 1D  13 80 23 1D 14 80 23 29  ).2 ......#...#)
01D0: 08 32 20 0F 01 04 29 08  32 20 0F 01 05 29 08 32  .2 ...).2 ...).2
01E0: 20 0F 01 06 20 00 21 00                            ... .!.        
```

#### Opcodes

```
  0: 0x01B9 [0x1E] EventEntity looks at LocalPlayer and starts talking
  1: 0x01BE [0x6F] WAIT_FRAME_DELAY: Yield until WaitTime reaches zero
  2: 0x01BF [0x70] WAIT_ENTITY_RENDER_FLAG: Wait while EventEntity->Render.Flags3 bit 2 is set (cancel turn if not)
  3: 0x01C0 [0x29] REQ_SET_WAIT(priority=0x08, entity_id=Kiwawa (ID: 17768498/0x010F2032), tag_num=0x03)
  4: 0x01C7 [0x1D] PRINT_EVENT_MESSAGE(message_id=8281*)
    → "...I c-c-can'taru s-s-stop sh-sh-shaking..."
  5: 0x01CA [0x23] WAIT_FOR_DIALOG_INTERACTION
  6: 0x01CB [0x1D] PRINT_EVENT_MESSAGE(message_id=8282*)
    → "What is it about that b-b-bearer of d-d-darkness that c-c-causes such f-f-fear...? It was like b-b-being wrappy-wapped in p-p-pure blackness..."
  7: 0x01CE [0x23] WAIT_FOR_DIALOG_INTERACTION
  8: 0x01CF [0x29] REQ_SET_WAIT(priority=0x08, entity_id=Kiwawa (ID: 17768498/0x010F2032), tag_num=0x04)
  9: 0x01D6 [0x29] REQ_SET_WAIT(priority=0x08, entity_id=Kiwawa (ID: 17768498/0x010F2032), tag_num=0x05)
 10: 0x01DD [0x29] REQ_SET_WAIT(priority=0x08, entity_id=Kiwawa (ID: 17768498/0x010F2032), tag_num=0x06)
 11: 0x01E4 [0x20] SET_CLI_EVENT_UC_FLAG: Unlock player control
 12: 0x01E6 [0x21] END_EVENT
 13: 0x01E7 [0x00] END_REQSTACK()
```

### Event 351

#### Metadata

| Field        | Value    |
|--------------|----------|
| Entrypoint   | 0x01E8   |
| Data Size    | 61 bytes |
| Instructions | 16       |

```
      00 01 02 03 04 05 06 07  08 09 0A 0B 0C 0D 0E 0F
      -- -- -- -- -- -- -- --  -- -- -- -- -- -- -- --
01E0:                          1E F0 FF FF 7F 6F 70 29          .....op)
01F0: 08 32 20 0F 01 01 1D 15  80 23 29 08 32 20 0F 01  .2 ......#).2 ..
0200: 02 29 08 32 20 0F 01 03  1D 16 80 23 29 08 32 20  .).2 ......#).2 
0210: 0F 01 04 29 08 32 20 0F  01 05 29 08 32 20 0F 01  ...).2 ...).2 ..
0220: 06 20 00 21 00                                    . .!.           
```

#### Opcodes

```
  0: 0x01E8 [0x1E] EventEntity looks at LocalPlayer and starts talking
  1: 0x01ED [0x6F] WAIT_FRAME_DELAY: Yield until WaitTime reaches zero
  2: 0x01EE [0x70] WAIT_ENTITY_RENDER_FLAG: Wait while EventEntity->Render.Flags3 bit 2 is set (cancel turn if not)
  3: 0x01EF [0x29] REQ_SET_WAIT(priority=0x08, entity_id=Kiwawa (ID: 17768498/0x010F2032), tag_num=0x01)
  4: 0x01F6 [0x1D] PRINT_EVENT_MESSAGE(message_id=8421*)
    → "I heard that lots of those feral-weral Cardians were on the move across Sarutabaruta."
  5: 0x01F9 [0x23] WAIT_FOR_DIALOG_INTERACTION
  6: 0x01FA [0x29] REQ_SET_WAIT(priority=0x08, entity_id=Kiwawa (ID: 17768498/0x010F2032), tag_num=0x02)
  7: 0x0201 [0x29] REQ_SET_WAIT(priority=0x08, entity_id=Kiwawa (ID: 17768498/0x010F2032), tag_num=0x03)
  8: 0x0208 [0x1D] PRINT_EVENT_MESSAGE(message_id=8422*)
    → "I wonder if their creator, Zonpa-Zippa, could've tamed them had he been here."
  9: 0x020B [0x23] WAIT_FOR_DIALOG_INTERACTION
 10: 0x020C [0x29] REQ_SET_WAIT(priority=0x08, entity_id=Kiwawa (ID: 17768498/0x010F2032), tag_num=0x04)
 11: 0x0213 [0x29] REQ_SET_WAIT(priority=0x08, entity_id=Kiwawa (ID: 17768498/0x010F2032), tag_num=0x05)
 12: 0x021A [0x29] REQ_SET_WAIT(priority=0x08, entity_id=Kiwawa (ID: 17768498/0x010F2032), tag_num=0x06)
 13: 0x0221 [0x20] SET_CLI_EVENT_UC_FLAG: Unlock player control
 14: 0x0223 [0x21] END_EVENT
 15: 0x0224 [0x00] END_REQSTACK()
```

### Event 389

#### Metadata

| Field        | Value    |
|--------------|----------|
| Entrypoint   | 0x0225   |
| Data Size    | 47 bytes |
| Instructions | 14       |

```
      00 01 02 03 04 05 06 07  08 09 0A 0B 0C 0D 0E 0F
      -- -- -- -- -- -- -- --  -- -- -- -- -- -- -- --
0220:                1E F0 FF  FF 7F 6F 70 29 08 32 20       .....op).2 
0230: 0F 01 07 1D 17 80 23 29  08 32 20 0F 01 08 29 08  ......#).2 ...).
0240: 32 20 0F 01 09 1D 18 80  23 29 08 32 20 0F 01 0A  2 ......#).2 ...
0250: 20 00 21 00                                        .!.            
```

#### Opcodes

```
  0: 0x0225 [0x1E] EventEntity looks at LocalPlayer and starts talking
  1: 0x022A [0x6F] WAIT_FRAME_DELAY: Yield until WaitTime reaches zero
  2: 0x022B [0x70] WAIT_ENTITY_RENDER_FLAG: Wait while EventEntity->Render.Flags3 bit 2 is set (cancel turn if not)
  3: 0x022C [0x29] REQ_SET_WAIT(priority=0x08, entity_id=Kiwawa (ID: 17768498/0x010F2032), tag_num=0x07)
  4: 0x0233 [0x1D] PRINT_EVENT_MESSAGE(message_id=8511*)
    → "Is it true that the Star Sibyl defeatarued the Bearer of Darkness?"
  5: 0x0236 [0x23] WAIT_FOR_DIALOG_INTERACTION
  6: 0x0237 [0x29] REQ_SET_WAIT(priority=0x08, entity_id=Kiwawa (ID: 17768498/0x010F2032), tag_num=0x08)
  7: 0x023E [0x29] REQ_SET_WAIT(priority=0x08, entity_id=Kiwawa (ID: 17768498/0x010F2032), tag_num=0x09)
  8: 0x0245 [0x1D] PRINT_EVENT_MESSAGE(message_id=8512*)
    → "You were there when it happened, rightaru? I wish I could've been there to see the glorious-worious spectacle of our courageous Star Sibyl."
  9: 0x0248 [0x23] WAIT_FOR_DIALOG_INTERACTION
 10: 0x0249 [0x29] REQ_SET_WAIT(priority=0x08, entity_id=Kiwawa (ID: 17768498/0x010F2032), tag_num=0x0A)
 11: 0x0250 [0x20] SET_CLI_EVENT_UC_FLAG: Unlock player control
 12: 0x0252 [0x21] END_EVENT
 13: 0x0253 [0x00] END_REQSTACK()
```
