# 17768467 - Kupipi

## Common Data

| Field            | Value                   |
|------------------|-------------------------|
| Zone             | Heavens Tower (ID: 242) |
| Block Size       | 16060 bytes             |
| Total Events     | 194                     |
| References Count | 318                     |

## List of Events

| Event ID                     | Entrypoint   |   Size |   Instructions |
|------------------------------|--------------|--------|----------------|
| [65535](#event-65535)        | 0x0000       |      1 |              1 |
| [65535.1](#event-655351)     | 0x0001       |     16 |              2 |
| [65535.2](#event-655352)     | 0x0011       |     22 |              4 |
| [65535.3](#event-655353)     | 0x0027       |     16 |              2 |
| [65535.4](#event-655354)     | 0x0037       |     14 |              2 |
| [65535.5](#event-655355)     | 0x0045       |     16 |              2 |
| [65535.6](#event-655356)     | 0x0055       |     14 |              2 |
| [65535.7](#event-655357)     | 0x0063       |     16 |              2 |
| [65535.8](#event-655358)     | 0x0073       |     14 |              2 |
| [65535.9](#event-655359)     | 0x0081       |     24 |              4 |
| [65535.10](#event-6553510)   | 0x0099       |     14 |              2 |
| [65535.11](#event-6553511)   | 0x00A7       |     16 |              2 |
| [65535.12](#event-6553512)   | 0x00B7       |     22 |              4 |
| [65535.13](#event-6553513)   | 0x00CD       |     16 |              2 |
| [65535.14](#event-6553514)   | 0x00DD       |     14 |              2 |
| [65535.15](#event-6553515)   | 0x00EB       |     16 |              2 |
| [65535.16](#event-6553516)   | 0x00FB       |     14 |              2 |
| [65535.17](#event-6553517)   | 0x0109       |     16 |              2 |
| [65535.18](#event-6553518)   | 0x0119       |     14 |              2 |
| [65535.19](#event-6553519)   | 0x0127       |     16 |              2 |
| [65535.20](#event-6553520)   | 0x0137       |     14 |              2 |
| [65535.21](#event-6553521)   | 0x0145       |     16 |              2 |
| [65535.22](#event-6553522)   | 0x0155       |     22 |              4 |
| [65535.23](#event-6553523)   | 0x016B       |     37 |              5 |
| [65535.24](#event-6553524)   | 0x0190       |     16 |              2 |
| [65535.25](#event-6553525)   | 0x01A0       |     22 |              4 |
| [65535.26](#event-6553526)   | 0x01B6       |     16 |              2 |
| [65535.27](#event-6553527)   | 0x01C6       |     14 |              2 |
| [65535.28](#event-6553528)   | 0x01D4       |     16 |              2 |
| [65535.29](#event-6553529)   | 0x01E4       |     14 |              2 |
| [65535.30](#event-6553530)   | 0x01F2       |     16 |              2 |
| [65535.31](#event-6553531)   | 0x0202       |     14 |              2 |
| [65535.32](#event-6553532)   | 0x0210       |     16 |              2 |
| [65535.33](#event-6553533)   | 0x0220       |     14 |              2 |
| [65535.34](#event-6553534)   | 0x022E       |     16 |              2 |
| [65535.35](#event-6553535)   | 0x023E       |     14 |              2 |
| [65535.36](#event-6553536)   | 0x024C       |     16 |              2 |
| [65535.37](#event-6553537)   | 0x025C       |     14 |              2 |
| [65535.38](#event-6553538)   | 0x026A       |     16 |              2 |
| [65535.39](#event-6553539)   | 0x027A       |     14 |              2 |
| [65535.40](#event-6553540)   | 0x0288       |     16 |              2 |
| [65535.41](#event-6553541)   | 0x0298       |     14 |              2 |
| [65535.42](#event-6553542)   | 0x02A6       |     16 |              2 |
| [65535.43](#event-6553543)   | 0x02B6       |     14 |              2 |
| [65535.44](#event-6553544)   | 0x02C4       |     16 |              2 |
| [65535.45](#event-6553545)   | 0x02D4       |     14 |              2 |
| [65535.46](#event-6553546)   | 0x02E2       |     16 |              2 |
| [65535.47](#event-6553547)   | 0x02F2       |     22 |              4 |
| [65535.48](#event-6553548)   | 0x0308       |     16 |              2 |
| [65535.49](#event-6553549)   | 0x0318       |     14 |              2 |
| [65535.50](#event-6553550)   | 0x0326       |     16 |              2 |
| [65535.51](#event-6553551)   | 0x0336       |     14 |              2 |
| [65535.52](#event-6553552)   | 0x0344       |     16 |              2 |
| [65535.53](#event-6553553)   | 0x0354       |     14 |              2 |
| [65535.54](#event-6553554)   | 0x0362       |      9 |              3 |
| [65535.55](#event-6553555)   | 0x036B       |     30 |              9 |
| [254](#event-254)            | 0x0389       |     33 |             12 |
| [258](#event-258)            | 0x03AA       |     51 |             16 |
| [255](#event-255)            | 0x03DD       |    202 |             43 |
| [251](#event-251)            | 0x04A7       |     60 |             18 |
| [95](#event-95)              | 0x04E3       |   1674 |            227 |
| [65535.56](#event-6553556)   | 0x0B6D       |     19 |              5 |
| [65535.57](#event-6553557)   | 0x0B80       |     19 |              5 |
| [65535.58](#event-6553558)   | 0x0B93       |     37 |              9 |
| [65535.59](#event-6553559)   | 0x0BB8       |     37 |              9 |
| [65535.60](#event-6553560)   | 0x0BDD       |     23 |              6 |
| [65535.61](#event-6553561)   | 0x0BF4       |      5 |              3 |
| [65535.62](#event-6553562)   | 0x0BF9       |      5 |              3 |
| [65535.63](#event-6553563)   | 0x0BFE       |     18 |              5 |
| [65535.64](#event-6553564)   | 0x0C10       |     19 |              5 |
| [65535.65](#event-6553565)   | 0x0C23       |     23 |              7 |
| [65535.66](#event-6553566)   | 0x0C3A       |     23 |              7 |
| [65535.67](#event-6553567)   | 0x0C51       |     19 |              5 |
| [65535.68](#event-6553568)   | 0x0C64       |     18 |              5 |
| [65535.69](#event-6553569)   | 0x0C76       |     23 |              7 |
| [65535.70](#event-6553570)   | 0x0C8D       |     23 |              7 |
| [97](#event-97)              | 0x0CA4       |     60 |             18 |
| [98](#event-98)              | 0x0CE0       |     46 |             14 |
| [238](#event-238)            | 0x0D0E       |     71 |             17 |
| [239](#event-239)            | 0x0D55       |    569 |             81 |
| [440](#event-440)            | 0x0F8E       |    793 |             99 |
| [65535.71](#event-6553571)   | 0x12A7       |      5 |              3 |
| [65535.72](#event-6553572)   | 0x12AC       |      9 |              5 |
| [240](#event-240)            | 0x12B5       |     33 |             12 |
| [241](#event-241)            | 0x12D6       |     33 |             12 |
| [242](#event-242)            | 0x12F7       |     82 |             18 |
| [65535.73](#event-6553573)   | 0x1349       |      5 |              3 |
| [65535.74](#event-6553574)   | 0x134E       |      9 |              5 |
| [65535.75](#event-6553575)   | 0x1357       |      9 |              5 |
| [243](#event-243)            | 0x1360       |     29 |             10 |
| [244](#event-244)            | 0x137D       |     25 |              8 |
| [65535.76](#event-6553576)   | 0x1396       |     30 |              8 |
| [65535.77](#event-6553577)   | 0x13B4       |     29 |              8 |
| [245](#event-245)            | 0x13D1       |     33 |             12 |
| [246](#event-246)            | 0x13F2       |     25 |              8 |
| [65535.78](#event-6553578)   | 0x140B       |     30 |              8 |
| [65535.79](#event-6553579)   | 0x1429       |     29 |              8 |
| [247](#event-247)            | 0x1446       |     33 |             12 |
| [101](#event-101)            | 0x1467       |    108 |             20 |
| [65535.80](#event-6553580)   | 0x14D3       |      5 |              3 |
| [65535.81](#event-6553581)   | 0x14D8       |      5 |              3 |
| [65535.82](#event-6553582)   | 0x14DD       |      5 |              3 |
| [65535.83](#event-6553583)   | 0x14E2       |     23 |              7 |
| [65535.84](#event-6553584)   | 0x14F9       |      5 |              3 |
| [102](#event-102)            | 0x14FE       |     29 |             10 |
| [291](#event-291)            | 0x151B       |    372 |             57 |
| [292](#event-292)            | 0x168F       |    232 |             36 |
| [293](#event-293)            | 0x1777       |    340 |             48 |
| [295](#event-295)            | 0x18CB       |     29 |             10 |
| [103](#event-103)            | 0x18E8       |     32 |              9 |
| [65535.85](#event-6553585)   | 0x1908       |     37 |              9 |
| [65535.86](#event-6553586)   | 0x192D       |     19 |              5 |
| [65535.87](#event-6553587)   | 0x1940       |     19 |              5 |
| [104](#event-104)            | 0x1953       |     33 |             12 |
| [113](#event-113)            | 0x1974       |     33 |             12 |
| [120](#event-120)            | 0x1995       |     33 |             12 |
| [155](#event-155)            | 0x19B6       |     29 |             10 |
| [156](#event-156)            | 0x19D3       |     33 |             12 |
| [167](#event-167)            | 0x19F4       |     29 |             10 |
| [168](#event-168)            | 0x1A11       |     33 |             12 |
| [193](#event-193)            | 0x1A32       |     33 |             12 |
| [235](#event-235)            | 0x1A53       |     97 |             24 |
| [283](#event-283)            | 0x1AB4       |     52 |             17 |
| [314](#event-314)            | 0x1AE8       |     33 |             12 |
| [300](#event-300)            | 0x1B09       |     47 |             14 |
| [311](#event-311)            | 0x1B38       |     33 |             12 |
| [333](#event-333)            | 0x1B59       |     51 |             16 |
| [313](#event-313)            | 0x1B8C       |     33 |             12 |
| [329](#event-329)            | 0x1BAD       |     45 |             14 |
| [326](#event-326)            | 0x1BDA       |    665 |             85 |
| [65535.88](#event-6553588)   | 0x1E73       |      5 |              3 |
| [65535.89](#event-6553589)   | 0x1E78       |      5 |              3 |
| [65535.90](#event-6553590)   | 0x1E7D       |      5 |              3 |
| [65535.91](#event-6553591)   | 0x1E82       |      5 |              3 |
| [65535.92](#event-6553592)   | 0x1E87       |      5 |              3 |
| [65535.93](#event-6553593)   | 0x1E8C       |      5 |              3 |
| [65535.94](#event-6553594)   | 0x1E91       |      5 |              3 |
| [65535.95](#event-6553595)   | 0x1E96       |      5 |              3 |
| [65535.96](#event-6553596)   | 0x1E9B       |      5 |              3 |
| [65535.97](#event-6553597)   | 0x1EA0       |      5 |              3 |
| [327](#event-327)            | 0x1EA5       |     33 |             12 |
| [332](#event-332)            | 0x1EC6       |     47 |             14 |
| [363](#event-363)            | 0x1EF5       |     47 |             14 |
| [364](#event-364)            | 0x1F24       |     47 |             14 |
| [400](#event-400)            | 0x1F53       |     47 |             14 |
| [408](#event-408)            | 0x1F82       |     73 |             22 |
| [65535.98](#event-6553598)   | 0x1FCB       |     21 |              7 |
| [65535.99](#event-6553599)   | 0x1FE0       |     10 |              2 |
| [65535.100](#event-65535100) | 0x1FEA       |     16 |              4 |
| [65535.101](#event-65535101) | 0x1FFA       |     10 |              2 |
| [426](#event-426)            | 0x2004       |   1874 |            255 |
| [427](#event-427)            | 0x2756       |   1531 |            209 |
| [428](#event-428)            | 0x2D51       |   1531 |            209 |
| [429](#event-429)            | 0x334C       |      1 |              1 |
| [430](#event-430)            | 0x334D       |      1 |              1 |
| [65535.102](#event-65535102) | 0x334E       |     11 |              3 |
| [65535.103](#event-65535103) | 0x3359       |     21 |              5 |
| [435](#event-435)            | 0x336E       |      1 |              1 |
| [65535.104](#event-65535104) | 0x336F       |     10 |              2 |
| [65535.105](#event-65535105) | 0x3379       |     14 |              4 |
| [65535.106](#event-65535106) | 0x3387       |     10 |              2 |
| [65535.107](#event-65535107) | 0x3391       |     14 |              4 |
| [436](#event-436)            | 0x339F       |     47 |             14 |
| [437](#event-437)            | 0x33CE       |    345 |             79 |
| [438](#event-438)            | 0x3527       |     85 |             23 |
| [439](#event-439)            | 0x357C       |      1 |              1 |
| [65535.108](#event-65535108) | 0x357D       |     14 |              4 |
| [441](#event-441)            | 0x358B       |      1 |              1 |
| [448](#event-448)            | 0x358C       |      1 |              1 |
| [449](#event-449)            | 0x358D       |      1 |              1 |
| [450](#event-450)            | 0x358E       |      1 |              1 |
| [65535.109](#event-65535109) | 0x358F       |     15 |              5 |
| [65535.110](#event-65535110) | 0x359E       |     15 |              5 |
| [65535.111](#event-65535111) | 0x35AD       |     15 |              5 |
| [65535.112](#event-65535112) | 0x35BC       |     15 |              5 |
| [65535.113](#event-65535113) | 0x35CB       |     15 |              5 |
| [65535.114](#event-65535114) | 0x35DA       |     22 |              8 |
| [65535.115](#event-65535115) | 0x35F0       |     15 |              5 |
| [65535.116](#event-65535116) | 0x35FF       |     15 |              5 |
| [454](#event-454)            | 0x360E       |      1 |              1 |
| [455](#event-455)            | 0x360F       |      1 |              1 |
| [456](#event-456)            | 0x3610       |      1 |              1 |
| [65535.117](#event-65535117) | 0x3611       |     15 |              5 |
| [65535.118](#event-65535118) | 0x3620       |     15 |              5 |
| [460](#event-460)            | 0x362F       |      1 |              1 |
| [461](#event-461)            | 0x3630       |      1 |              1 |
| [65535.119](#event-65535119) | 0x3631       |     15 |              5 |
| [65535.120](#event-65535120) | 0x3640       |     22 |              8 |
| [65535.121](#event-65535121) | 0x3656       |     22 |              8 |
| [65535.122](#event-65535122) | 0x366C       |     22 |              8 |
| [462](#event-462)            | 0x3682       |      1 |              1 |
| [65535.123](#event-65535123) | 0x3683       |     17 |              6 |
| [65535.124](#event-65535124) | 0x3694       |     22 |              8 |
| [463](#event-463)            | 0x36AA       |      1 |              1 |

## DAT References (imed_data)

|   Index | Hex Value   |   Dec Value |
|---------|-------------|-------------|
|       0 | 0x0028      |          40 |
|       1 | 0x001E      |          30 |
|       2 | 0x0029      |          41 |
|       3 | 0x002A      |          42 |
|       4 | 0x002E      |          46 |
|       5 | 0x01AF      |         431 |
|       6 | 0x01B0      |         432 |
|       7 | 0x0001      |           1 |
|       8 | 0x0064      |         100 |
|       9 | 0x0236      |         566 |
|      10 | 0x0237      |         567 |
|      11 | 0x023C      |         572 |
|      12 | 0x023D      |         573 |
|      13 | 0x023E      |         574 |
|      14 | 0x0238      |         568 |
|      15 | 0x0239      |         569 |
|      16 | 0x0000      |           0 |
|      17 | 0x0002      |           2 |
|      18 | 0x0003      |           3 |
|      19 | 0x0004      |           4 |
|      20 | 0x0005      |           5 |
|      21 | 0x0006      |           6 |
|      22 | 0x0007      |           7 |
|      23 | 0x001F      |          31 |
|      24 | 0x1CA3      |        7331 |
|      25 | 0x0230      |         560 |
|      26 | 0x0231      |         561 |
|      27 | 0x00C8      |         200 |
|      28 | 0x003C      |          60 |
|      29 | 0x01AA      |         426 |
|      30 | 0x0078      |         120 |
|      31 | 0x008E      |         142 |
|      32 | 0x0008      |           8 |
|      33 | 0x0072      |         114 |
|      34 | 0x0074      |         116 |
|      35 | 0x02FA      |         762 |
|      36 | 0x0096      |         150 |
|      37 | 0x0400      |        1024 |
|      38 | 0x0BA0      |        2976 |
|      39 | 0x007C      |         124 |
|      40 | 0x4E20      |       20000 |
|      41 | 0x00A2      |         162 |
|      42 | 0x007F      |         127 |
|      43 | 0x27AD      |       10157 |
|      44 | 0x2457      |        9303 |
|      45 | 0x2458      |        9304 |
|      46 | 0x0050      |          80 |
|      47 | 0x2459      |        9305 |
|      48 | 0x246D      |        9325 |
|      49 | 0x000F      |          15 |
|      50 | 0x0167      |         359 |
|      51 | 0x245A      |        9306 |
|      52 | 0x245B      |        9307 |
|      53 | 0x245C      |        9308 |
|      54 | 0x245D      |        9309 |
|      55 | 0x245E      |        9310 |
|      56 | 0x245F      |        9311 |
|      57 | 0x0061      |          97 |
|      58 | 0x0062      |          98 |
|      59 | 0x0063      |          99 |
|      60 | 0x0065      |         101 |
|      61 | 0x0066      |         102 |
|      62 | 0x0068      |         104 |
|      63 | 0x006A      |         106 |
|      64 | 0x006B      |         107 |
|      65 | 0x0071      |         113 |
|      66 | 0x0075      |         117 |
|      67 | 0x0076      |         118 |
|      68 | 0x0077      |         119 |
|      69 | 0x0079      |         121 |
|      70 | 0x007A      |         122 |
|      71 | 0x007B      |         123 |
|      72 | 0x007D      |         125 |
|      73 | 0x007E      |         126 |
|      74 | 0x0081      |         129 |
|      75 | 0x0082      |         130 |
|      76 | 0x0080      |         128 |
|      77 | 0x0083      |         131 |
|      78 | 0x0084      |         132 |
|      79 | 0x0093      |         147 |
|      80 | 0x080B      |        2059 |
|      81 | 0x74ED      |       29933 |
|      82 | 0x001B      |          27 |
|      83 | 0x2460      |        9312 |
|      84 | 0x2461      |        9313 |
|      85 | 0x2462      |        9314 |
|      86 | 0x0802      |        2050 |
|      87 | 0x7E90      |       32400 |
|      88 | 0x044C      |        1100 |
|      89 | 0x76FD      |       30461 |
|      90 | 0x0B47      |        2887 |
|      91 | 0x75E9      |       30185 |
|      92 | 0x0949      |        2377 |
|      93 | 0x2463      |        9315 |
|      94 | 0x0020      |          32 |
|      95 | 0x2464      |        9316 |
|      96 | 0x005A      |          90 |
|      97 | 0x2465      |        9317 |
|      98 | 0x2466      |        9318 |
|      99 | 0x0211      |         529 |
|     100 | 0x0212      |         530 |
|     101 | 0x0213      |         531 |
|     102 | 0x0214      |         532 |
|     103 | 0x0215      |         533 |
|     104 | 0x0216      |         534 |
|     105 | 0x0217      |         535 |
|     106 | 0x0218      |         536 |
|     107 | 0x0219      |         537 |
|     108 | 0x021A      |         538 |
|     109 | 0x021B      |         539 |
|     110 | 0x021C      |         540 |
|     111 | 0x021D      |         541 |
|     112 | 0x021E      |         542 |
|     113 | 0x021F      |         543 |
|     114 | 0x0220      |         544 |
|     115 | 0x0221      |         545 |
|     116 | 0x0222      |         546 |
|     117 | 0x0223      |         547 |
|     118 | 0x0224      |         548 |
|     119 | 0x0225      |         549 |
|     120 | 0x0226      |         550 |
|     121 | 0x0227      |         551 |
|     122 | 0x0228      |         552 |
|     123 | 0x0229      |         553 |
|     124 | 0x00C9      |         201 |
|     125 | 0x0012      |          18 |
|     126 | 0x0089      |         137 |
|     127 | 0x008A      |         138 |
|     128 | 0x008B      |         139 |
|     129 | 0x008C      |         140 |
|     130 | 0x008D      |         141 |
|     131 | 0x008F      |         143 |
|     132 | 0x1FB1      |        8113 |
|     133 | 0x1FB2      |        8114 |
|     134 | 0x1FB3      |        8115 |
|     135 | 0x1FB4      |        8116 |
|     136 | 0x1FB5      |        8117 |
|     137 | 0x1FB6      |        8118 |
|     138 | 0x1FB7      |        8119 |
|     139 | 0x1FB8      |        8120 |
|     140 | 0x1FB9      |        8121 |
|     141 | 0x0090      |         144 |
|     142 | 0x0091      |         145 |
|     143 | 0x0092      |         146 |
|     144 | 0x0094      |         148 |
|     145 | 0x00BD      |         189 |
|     146 | 0x00BE      |         190 |
|     147 | 0x00D3      |         211 |
|     148 | 0x00D4      |         212 |
|     149 | 0x0137      |         311 |
|     150 | 0x0138      |         312 |
|     151 | 0x0139      |         313 |
|     152 | 0x015B      |         347 |
|     153 | 0x015C      |         348 |
|     154 | 0x015D      |         349 |
|     155 | 0x01B2      |         434 |
|     156 | 0x01B3      |         435 |
|     157 | 0x0209      |         521 |
|     158 | 0x020A      |         522 |
|     159 | 0x020B      |         523 |
|     160 | 0x020C      |         524 |
|     161 | 0x1F9E      |        8094 |
|     162 | 0x1F9F      |        8095 |
|     163 | 0x1FA0      |        8096 |
|     164 | 0x1FC6      |        8134 |
|     165 | 0x1FC7      |        8135 |
|     166 | 0x1FD2      |        8146 |
|     167 | 0x1FD3      |        8147 |
|     168 | 0x1FF9      |        8185 |
|     169 | 0x1FFA      |        8186 |
|     170 | 0x1FFB      |        8187 |
|     171 | 0x1FFC      |        8188 |
|     172 | 0x1FFD      |        8189 |
|     173 | 0x2002      |        8194 |
|     174 | 0x2003      |        8195 |
|     175 | 0x2004      |        8196 |
|     176 | 0x2005      |        8197 |
|     177 | 0x200A      |        8202 |
|     178 | 0x2011      |        8209 |
|     179 | 0x2006      |        8198 |
|     180 | 0x2007      |        8199 |
|     181 | 0x2008      |        8200 |
|     182 | 0x2009      |        8201 |
|     183 | 0x200B      |        8203 |
|     184 | 0x200C      |        8204 |
|     185 | 0x200D      |        8205 |
|     186 | 0x200E      |        8206 |
|     187 | 0x200F      |        8207 |
|     188 | 0x2010      |        8208 |
|     189 | 0x2012      |        8210 |
|     190 | 0x2013      |        8211 |
|     191 | 0x2014      |        8212 |
|     192 | 0x2015      |        8213 |
|     193 | 0x206F      |        8303 |
|     194 | 0x2070      |        8304 |
|     195 | 0x20FB      |        8443 |
|     196 | 0x20FC      |        8444 |
|     197 | 0x2157      |        8535 |
|     198 | 0x2158      |        8536 |
|     199 | 0x2163      |        8547 |
|     200 | 0x2164      |        8548 |
|     201 | 0x2165      |        8549 |
|     202 | 0x2166      |        8550 |
|     203 | 0x2167      |        8551 |
|     204 | 0x000D      |          13 |
|     205 | 0xFFFFFEE8  |  4294967016 |
|     206 | 0x8754      |       34644 |
|     207 | 0x00F9      |         249 |
|     208 | 0x0722      |        1826 |
|     209 | 0xBD6F      |       48495 |
|     210 | 0xFFFF11A3  |  4294906275 |
|     211 | 0x052C      |        1324 |
|     212 | 0x0A71      |        2673 |
|     213 | 0x0016      |          22 |
|     214 | 0x2168      |        8552 |
|     215 | 0x2169      |        8553 |
|     216 | 0x216A      |        8554 |
|     217 | 0x216B      |        8555 |
|     218 | 0x216C      |        8556 |
|     219 | 0x216D      |        8557 |
|     220 | 0x216E      |        8558 |
|     221 | 0x01AC      |         428 |
|     222 | 0x216F      |        8559 |
|     223 | 0x2170      |        8560 |
|     224 | 0x2171      |        8561 |
|     225 | 0x2172      |        8562 |
|     226 | 0x2173      |        8563 |
|     227 | 0x2174      |        8564 |
|     228 | 0x0258      |         600 |
|     229 | 0x2175      |        8565 |
|     230 | 0x2176      |        8566 |
|     231 | 0x2177      |        8567 |
|     232 | 0x2178      |        8568 |
|     233 | 0x2179      |        8569 |
|     234 | 0x217A      |        8570 |
|     235 | 0x217B      |        8571 |
|     236 | 0x2190      |        8592 |
|     237 | 0x2191      |        8593 |
|     238 | 0x0572      |        1394 |
|     239 | 0x2192      |        8594 |
|     240 | 0x2193      |        8595 |
|     241 | 0x2194      |        8596 |
|     242 | 0x2195      |        8597 |
|     243 | 0x2196      |        8598 |
|     244 | 0x217C      |        8572 |
|     245 | 0x217D      |        8573 |
|     246 | 0x217E      |        8574 |
|     247 | 0x217F      |        8575 |
|     248 | 0x2180      |        8576 |
|     249 | 0x2181      |        8577 |
|     250 | 0x2182      |        8578 |
|     251 | 0x2183      |        8579 |
|     252 | 0x2184      |        8580 |
|     253 | 0x2185      |        8581 |
|     254 | 0x2186      |        8582 |
|     255 | 0x2187      |        8583 |
|     256 | 0x2188      |        8584 |
|     257 | 0x2189      |        8585 |
|     258 | 0x218A      |        8586 |
|     259 | 0x218B      |        8587 |
|     260 | 0x218C      |        8588 |
|     261 | 0x218D      |        8589 |
|     262 | 0x218E      |        8590 |
|     263 | 0x218F      |        8591 |
|     264 | 0xFFFFF4A4  |  4294964388 |
|     265 | 0x86A5      |       34469 |
|     266 | 0x0888      |        2184 |
|     267 | 0x89A5      |       35237 |
|     268 | 0x0BB8      |        3000 |
|     269 | 0xFFFFE963  |  4294961507 |
|     270 | 0x75C0      |       30144 |
|     271 | 0x00B8      |         184 |
|     272 | 0xFFFFF60B  |  4294964747 |
|     273 | 0x721F      |       29215 |
|     274 | 0x01F3      |         499 |
|     275 | 0x2444      |        9284 |
|     276 | 0x2445      |        9285 |
|     277 | 0x2446      |        9286 |
|     278 | 0x2447      |        9287 |
|     279 | 0x2448      |        9288 |
|     280 | 0x2449      |        9289 |
|     281 | 0x244A      |        9290 |
|     282 | 0x09C0      |        2496 |
|     283 | 0x244B      |        9291 |
|     284 | 0x244C      |        9292 |
|     285 | 0x244D      |        9293 |
|     286 | 0x244E      |        9294 |
|     287 | 0x244F      |        9295 |
|     288 | 0x2450      |        9296 |
|     289 | 0x2451      |        9297 |
|     290 | 0x09C1      |        2497 |
|     291 | 0x2452      |        9298 |
|     292 | 0x2453      |        9299 |
|     293 | 0x2454      |        9300 |
|     294 | 0x2455      |        9301 |
|     295 | 0x2456      |        9302 |
|     296 | 0xFFFFEE8B  |  4294962827 |
|     297 | 0x8672      |       34418 |
|     298 | 0x0442      |        1090 |
|     299 | 0x8033      |       32819 |
|     300 | 0x0787      |        1927 |
|     301 | 0x810D      |       33037 |
|     302 | 0xFFFFFF4E  |  4294967118 |
|     303 | 0x078A      |        1930 |
|     304 | 0x0485      |        1157 |
|     305 | 0x7FDF      |       32735 |
|     306 | 0x04A7      |        1191 |
|     307 | 0x84F6      |       34038 |
|     308 | 0x07D0      |        2000 |
|     309 | 0x8020      |       32800 |
|     310 | 0x07CB      |        1995 |
|     311 | 0x7FE0      |       32736 |
|     312 | 0x9706      |       38662 |
|     313 | 0x14C5      |        5317 |
|     314 | 0x80AA      |       32938 |
|     315 | 0xFFFFFF94  |  4294967188 |
|     316 | 0xFFFFF8F6  |  4294965494 |
|     317 | 0x807A      |       32890 |

## String References

- **97**: Welcome to Heavens Tower. Are you the adventurer who came for your mission orders?
- **98**: ...You're rank 2?
- **99**: This next mission is really, really, rea\`lly important, and will test your abilities in many different ways.
- **100**: I am not sure that someone of your rank will be able to handle it...
- **101**: Oh, I know I shouldn't...but you di\`d complete the Rhinostery mission...
- **102**: And if you were good enough to do that, then I gue\`ss you can handle the next one.
- **104**: Do you know Lady Semih Lafihna?
- **106**: [He/She] is here to accept [his/her] next mission from Heavens Tower...but [he's/she's] still only rank 2.
- **107**: [He/She] is here to accept [his/her] next mission from Heavens Tower...but [he's/she's] still only rank 2.
- **113**: Umm... Uh... Understood!
- **117**: Yes, now where was I...?
- **118**: According to the pact constructed by the three countries, Windurst is allowed a consulate in both Bastok and San d'Oria.
- **119**: Your next mission is to travel to the consulates in these two countries and gather any information you can. Which country you travel to first is up to you.
- **120**: You may receive various tasks from them, so use that as a means of gathering useful information.
- **121**: When you have learned something interesting, return back here to Windurst with your report.
- **122**: The quickest way to get to either of the two countries is by the ferry that departs from Mhaura.
- **123**: Do you have a\`ny questions?
- **124**: A\`ny questions? [I got it the first time./Could you go over that one more time?]
- **125**: Are you su\`re? The Republic of Bastok in the west and the Kingdom of San d'Oria in the north; journey to either one.
- **126**: There, seek out the Windurstian consulate and obtain information from the consuls.
- **127**: Hmm... Are you su\`re you were listening?
- **128**: San d'Oria in the north and Bastok in the west; travel to these two countries and meet the Windurstian consuls in each. They'll tell you what to do from there.
- **129**: Don't forget that Windurst is a neutral country set on maintaining peace.
- **130**: No matter what you are told in those other countries, you must remember that Windurst is not about to get involved in another Great War.
- **131**: That is all.
- **132**: Now skedaddle!
- **137**: Welcome back, adventurer! Hm? What is that you have there? Is it a pre\`sent? A present for Kupi...
- **138**: ...Oh. Your report. You were told to deliver it to the Star Sibyl?
- **139**: I see. Well, we can't have common adventurers like yo\`u dirtying up our sacred to\`wer, so I will take your report to the Star Sibyl myself.
- **140**: You're still here? What? You say you're entitled to some kind of certificate?
- **141**: Oh yes, it must have slipped my mind. Here is your $3. Now you are a full-fledged adventurer.
- **142**: You're still here? You can go home now.
- **143**: What? I sound upset? That's silly! Just because SO\`MEONE didn't bring me back a present from their mission doesn't mean Kupipi's in a bad mood...
- **144**: You say you've been called by Lady Semih Lafihna, the Sibyl Guard?
- **145**: You mean to tell me you've REA\`LLY-WILLY been called by Lady Semih Lafihna? You?
- **146**: Hmph. I guess I'll trust you this time. Use this $3 to gain access to the top floor. But don't forget to give that back!
- **147**: When visiting the upper floors of the tower, you must be on your be\`st behavior. Especially around the head lady-in-waiting, Zubaba!
- **148**: And another piece of advice: be ca\`reful when dealing with the other Sibyl Guards. There's one in there with a lion's temper!
- **189**: Have I seen the Orastery minister? He just stormed out of here a few minutes ago.
- **190**: Don't ask m\`e where he went. For all I know, he returned to the Orastery.
- **211**: You say that the old...the head lady-in-waiting, Zubaba, requests your audience?
- **212**: It must be a\`ll the good things I told her about you! Don't screw up, or I'm the one who's going to pay!
- **311**: To get to the Star Sibyl's chambers, you must pass through the Planetarium and enter through the door in the back.
- **312**: No, no. You don't need to say anything. I already know why you are here.
- **313**: I\`'m the one who wrote the star crested summons that you carry!
- **347**: To get to the Star Sibyl's chambers, you must pass through the Planetarium and enter through the door in the back.
- **348**: The Sibyl is not taking what has happened very well...
- **349**: Lady Semih Lafihna has also returned. You should hurry-scurry to the Planetarium.
- **434**: To get to the Star Sibyl's chambers, you must pass through the Planetarium and enter through the door in the back.
- **435**: I never thought that yo\`u would ever accept such a da\`ngerous mission. Kupipi's pretty impressed!
- **521**: Kupipi's s\`o happy to see you back, <Player>! The ladies from upstairs already told me about your adventures!
- **522**: I give out a lo\`t of missions to a lo\`t of adventurers.
- **523**: I've never seen someone who looks so coo\`l, but whose heart is so full of burning vigor!
- **524**: Kupipi has just one word for you: "Right on!" Oh wait, that was two words.
- **529**: [Mister/Miss]...<Player>, is it? I have received a report on your mission. Yo\`u are the adventurer from [San d'Oria/Bastok] who will be taking today's offering to Giddeus.
- **530**: It makes Kupipi s\`o sad to have to ask adventurers from other countries to do a task that should be done by Windurstians.
- **531**: But doing this helps maintain peace in Windurst, so I ask you kindly to shut your eyes to any doubts you have concerning this mission. Now take this item to the treasure chamber in Giddeus and hurry back...in one piece!
- **532**: It makes Kupipi s\`o sad to have to ask adventurers from other countries to do a task that should be done by Windurstians.
- **533**: But doing this helps maintain peace in Windurst, so I ask you kindly to shut your eyes to any doubts you have concerning this mission. Now take this item to the treasure chamber in Giddeus and hurry back...in one piece!
- **534**: Back so soon?
- **535**: Were you able to make the o\`fferings? Did you have any pro\`blems? Those Yagudo are always complaining about our generosity, you know.
- **536**: [Mister/Miss]...<Player>, is it? I have received a repo\`rt on your mission. You are the adventurer from [San d'Oria/Bastok] who will be helping us today.
- **537**: The Yagudo in Giddeus have a problem. A te\`rrible monster has appeared deep within their caves.
- **538**: Your mission is to travel a\`ll the way to Giddeus and help the Yagudo rid themselves of this beast.
- **539**: Here is the key you will need to get into the deeper-weeper parts of the Yagudo's dwellings.
- **540**: Giddeus is a sca\`ry-wary place. You would never catch me going there... Well, have a nice trip!
- **541**: Giddeus is a sca\`ry-wary place. You would never catch me going there... Well, have a nice trip!
- **542**: Oh! You made it back in one piece! Lady Semih Lafihna looked s\`o depressed when she returned, I thought you had bit the rusty bucket!
- **543**: Wait... You're not a ghost...are you?
- **544**: Ahem! Anyway, congratulations on completing your mission.
- **545**: Your next task is to inform Lady Melek in the Consulate of Bastok that your mission was a success.
- **546**: Have you informed Lady Melek in the Consulate of Bastok that your mission was a success?
- **547**: I'm su\`re that she'll be more than happy to see you. Maybe you'll even get a present!
- **548**: Oh! You made it back in one piece! Lady Semih Lafihna looked s\`o depressed when she returned, I thought you had bit the rusty bucket!
- **549**: Wait... You're not a ghost...are you?
- **550**: Ahem! Anyway, congratulations on completing your mission.
- **551**: Your next task is to inform Consul Mourices in the San d'Orian Consulate that your mission was a success.
- **552**: Have you informed Consul Mourices in the San d'Orian Consulate that your mission was a success?
- **553**: I'm su\`re that he'll be more than happy to see you. Maybe you'll even get a present!
- **560**: Welcome to Heavens Tower--home of the Great Star Tree and our leader, the Star Sibyl.
- **561**: The Star Sibyl can hear a\`ll the thoughts and dreams of a\`ll the people in Windurst. So you'd better keep quiet.
- **566**: You can't take up tw\`o missions at once.
- **567**: Come back when you have finished the one you are currently working on.
- **568**: Then you can leave it to Kupipi to find you something just right for you.
- **569**: Which mission will you accept? [Mission 1-1/Mission 1-2/Mission 1-3/Mission 2-1/Mission 2-2/Mission 2-3/Mission 3-1/Mission 3-2/Mission 3-3/Mission 4-1/Mission 4-2/Mission 4-3/Dummy 1/Dummy 2/Dummy 3/Dummy 4/Dummy 5/Dummy 6/Dummy 7/Dummy 8/Dummy 9/Dummy 10/Dummy 11/Dummy 12/Dummy 13/Dummy 14/Dummy 15/Dummy 16/Dummy 17/Dummy!/Dummy!!/Accept no missions!]
- **572**: The Star Sibyl is not taking the recent happenings very well...
- **573**: But at times like these, you just have to get out there and kick some butt for the home team!
- **574**: Come on, you stinkin' Yagudo! Bring it on!
- **7331**: Accept this mission? [Yes./No.]
- **8094**: Wha\`t? Can't you see I'm busy-wusy? If you don't have any business with Kupipi, off with you.
- **8095**: $6? We\`ll, it just happens that I have the last one right here. Don't worry! You're the first in line.
- **8096**: Are you sti\`ll here? Kupipi's having a hard enough time already trying to remember all the names of all the new adventurers that came in today. You're breaking my concentration!
- **8113**: What? For me? Even though I didn't... You shouldn't have!
- **8114**: I'm so...so...so...
- **8115**: W-wait right here. I have a little something for you.
- **8116**: With this, you can open the Sealed Portal in the Horutoto Ruins by yourself.
- **8117**: Don't worry, I even got that o\`ld battle axe Zubaba's permission. I told her that with this key, our brave adventurer could clean the central tower at any time!
- **8118**: Keep up the good work for Windurst! And if you're ever in Jeuno...
- **8119**: I'll ne\`ver forget your act of kindness! If you are ever near Heavens Tower, be sure to stop by and visit Kupipi! Maybe I'll even have a present for you!
- **8120**: You are the kind adventurer that brought me the $1!
- **8121**: I'll ne\`ver forget your act of kindness! If you are ever near Heavens Tower, be sure to stop by and visit Kupipi! Maybe I'll even have a present for you!
- **8134**: You have performed ma\`ny great deeds, but you have not been alone in accomplishing them.
- **8135**: If you forget this fact, and forget those who helped you get where you are, things will turn to sour grapes on you. You must a\`lways remember to be grateful.
- **8146**: To get to the Star Sibyl's chambers, you must pass throu\`gh the Planetarium and enter through the door wa\`y in the back.
- **8147**: ...... <sniff> I just can't hold back a\`ll the tears. <sob>
- **8185**: ...... <sniff> I just can't hold back the tears. <sob>
- **8186**: I don't know how to say this any other way. ...Plea\`se come back to us alive.
- **8187**: ...! You're ba\`ck!
- **8188**: Thank the Goddess you're safe. I had heard that even if you win at Balga's Dais, the Yagudo of Oztroja sti\`ll treat you as an intruder-wuder.
- **8189**: The Yagudo just don't play fair... But there's not a lot that we can do about it...
- **8194**: You are the cha\`mpion of Windurst! I thought the punishment handed down by the Star Sibyl would be the end of you!
- **8195**: But now that you have overcome this little-bitty-witty stumbling block, you have increased your standing to rank seven!
- **8196**: You have had many hardships to overcome... What drives you to meet and defeat a\`ll of these challenges?
- **8197**: ...You don't have to answer that question. Just know that we appreciate ev\`erything you have done for us.
- **8198**: What is it, what is it? You seem a\`ll worked up about something.
- **8199**: I don't respond to veiled threats. If you have something you want to ask me, just come out and say it.
- **8200**: ...A\`bsolutely not.
- **8201**: The $3 is extre\`mely valuable and can't just be handed over to any old adventurer on demand. Tell me exa\`ctly what you want to use it for.
- **8202**: Why do you want the ring? [For a jai\`lbreak!/As a favor for Minister Apu\`ruru./As a favor for the O\`rastery.]
- **8203**: !!! A\`bsolutely out of the question!!!
- **8204**: For Minister Apururu...? There's something deci\`dedly suspicious going on here.
- **8205**: You can tell the members of the Orastery that one of them can bring proof of his identity and come to Heavens Tower himself.
- **8206**: ...But maybe I've been a li\`ttle hasty. You and I have known each other for a while now, and I assume you have a goo\`d reason for wanting the ring.
- **8207**: So I'll give you a li\`ttle hint. The $3 is being carried by Semih Lafihna.
- **8208**: At the moment, she's off at the northwest tower of the Horutoto Ruins, dealing with the roguey-woguey Cardians.
- **8209**: ...She's been gone such a lo\`ng time, though, and I'm starting to worry.
- **8210**: The $3 is being carried by Semih Lafihna. She was last headed for the northwest tower of the Horutoto Ruins.
- **8211**: The roguey-woguey Cardians are up to something. I overheard the children at the port saying Semih Lafihna had gone off by herself to assess the situation.
- **8212**: Hmph! Something's not right here. Why do I get the feely-wheeling you're hiding something from me...?
- **8213**: The Star Sibyl and Semi Lafihna have that sa\`me aura around them, and it's cast a da\`rk pall over Heavens Tower. It troubles me greatly.
- **8303**: Oh, you're far too la\`te!
- **8304**: Minister Ajido-Marujido and Semih Lafihna have a\`lready gotten rid of the evil creature. There's no need for you to go u\`p there.
- **8443**: I ca\`n't get the Star Sibyl's signature for orders that are issued from Heavens Tower!
- **8444**: Extremely impo\`rtantaru documents need to be processed! Please help the Star Sibyl!
- **8535**: There hasn't been a rank ten adventurer around here for deca\`des!!!
- **8536**: I can'taru even fi\`nd the proper forms that deal with someone of that status!!! No\`body reaches rank ten these days!
- **8547**: Rank ten... This is uncha\`rted territory...
- **8548**: Congratula\`tions! To commemorate the occasion, your deeds are to be put in a book and kept in the library!
- **8549**: You'll be in the textbooks used by the School of Magic, and everyone will gro\`vel at your feet! This could be the start of a life of fa\`me and fo\`rtune!
- **8550**: Oh, wait a minutaru. It seems that since the events you took part in are too sensitive to be released to the public, your book is to be placed in the restricted section.
- **8551**: ...Well, don't let it get you down, Kupipi won't forget what you have done for us. That should be eno\`ugh for you!
- **8552**: Co\`nflictt Confli\`ctt Co\`nfli\`ctt
- **8553**: Oh, the\`re you are! I've been waiting for you for e\`ons!
- **8554**: Let me guess. You're here because you got a beef with those blokes in San d'Oria and Bastok, right?
- **8555**: Do\`n't try to hide it. I know exa\`ctly how you feel!
- **8556**: This secretary is going to do some se\`rious butt kicking and show those pompous Elvaan and those flip-flopping Humes who's boss!
- **8557**: Now head on up and see the Star Sibyl.
- **8558**: Go! Go! Go\`!
- **8572**: Co\`nflict? You wouldn't happen to be one of those adventurers from [San d'Oria/Bastok], would you?
- **8573**: (Hmph. [He'll/She'll] be no match for our forces. Heh heh heh.)
- **8574**: We\`lcome, we\`lcome! Reincarnate of the Dawn Goddess, the Star Sibyl, has been awai\`ting your arrival. Let me show you to her chambers.
- **8575**: Come on, come on! Don't be shy. Just keep quiet and follow me...and don't touch anything!
- **8592**: And the\`re you have it.
- **8593**: You've been given the stamp of approval. You've been rated grade-A. You're ready to be packed up and shipped out.
- **8594**: Now go talk with Captain Mhabi Molkot and you'll be set.
- **8595**: Oh, and a bit of advice from me to you: don't think that this is going to be an\`ything like fighting those airheaded beastmen.
- **8596**: Stay on your toes, or you'll be lying face down in the mu\`d, back on the gra\`ss, eating breakfast with the wor\`ms.
- **8597**: You know what to do, now go do it!
- **8598**: C'mon, c'mon! Get your rear in gear and get moving!
- **9284**: You can try it out in East or West Sarutabaruta and see how well Kupipi number two fightarus with you!
- **9285**: Once you've seen her white mage prowess, reportaru back to me. Don't ask me what'll happen if you don't treat her nicely!
- **9286**: How are you finding my alter e\`go?
- **9287**: How was Kupipi doing? [Wo\`nderfully./Te\`rribly.]
- **9288**: Oh, that's lo\`vely to hear! Surely it's thanks to the strong bonds that bind us!
- **9289**: I'm sorry-worry to hear that--not as sorry as you'll be when I'm done chewing you out, though.
- **9290**: Let's be honestaru. The reason it isn't going well is because you don't have enough faith in me.
- **9291**: You know what's interesting? The members of the institute told me that there are still many unkno\`wns about this form of magic.
- **9292**: Go ask Wetata. She's the one who gave you the $3, after all, and surely has more to teach-weach you.
- **9293**: The more adventurers participate in Trust, the more we learn-wearn! We might even be able to completely figure out how it works one day!
- **9294**: Then I can yell at those magisters who are shirking a\`ll their duties for this research to get back to work!
- **9295**: <Sigh> And those in charge of the magisters are the craziestaru of them all.
- **9296**: But back to the main topic. I am not the only one participating in this grand experimentaru. There are people in other nations, too--and a certain Mithra right here in Windurst.
- **9297**: May\`be you've heard of her--the famed cat burglar, Nanaa Mihgo.
- **9298**: So pleasey-wease, if you see her, give this $3 to her.
- **9299**: Not that it'll he\`lp.
- **9300**: Maybe if you were her lackey-wackey, things might be different. If you still want to try, she's probably over in Windurst Woods.
- **9301**: Couldn't hu\`rt, anyway.
- **9302**: But for now, enjoy da\`shing around the world with my alter ego like hopped-up chocobos!
- **9325**: @@

## Events

### Event 65535

#### Metadata

| Field        | Value   |
|--------------|---------|
| Entrypoint   | 0x0000  |
| Data Size    | 1 bytes |
| Instructions | 1       |

```
      00 01 02 03 04 05 06 07  08 09 0A 0B 0C 0D 0E 0F
      -- -- -- -- -- -- -- --  -- -- -- -- -- -- -- --
0000: 00                                                .               
```

#### Opcodes

```
  0: 0x0000 [0x00] END_REQSTACK()
```

### Event 65535.1

#### Metadata

| Field        | Value    |
|--------------|----------|
| Entrypoint   | 0x0001   |
| Data Size    | 16 bytes |
| Instructions | 2        |

```
      00 01 02 03 04 05 06 07  08 09 0A 0B 0C 0D 0E 0F
      -- -- -- -- -- -- -- --  -- -- -- -- -- -- -- --
0000:    66 00 80 F8 FF FF 7F  F8 FF FF 7F 74 6C 6B 30   f..........tlk0
0010: 00                                                .               
```

#### Opcodes

```
  0: 0x0001 [0x66] LOAD_EXT_SCHEDULER_MAIN: Load scheduler "tlk0" with entities [EventEntity, EventEntity], work=40*
  1: 0x0010 [0x00] END_REQSTACK()
```

### Event 65535.2

#### Metadata

| Field        | Value    |
|--------------|----------|
| Entrypoint   | 0x0011   |
| Data Size    | 22 bytes |
| Instructions | 4        |

```
      00 01 02 03 04 05 06 07  08 09 0A 0B 0C 0D 0E 0F
      -- -- -- -- -- -- -- --  -- -- -- -- -- -- -- --
0010:    53 F8 FF FF 7F F8 FF  FF 7F 74 6C 6B 30 5E 69   S........tlk0^i
0020: 64 6C 30 1C 01 80 00                              dl0....         
```

#### Opcodes

```
  0: 0x0011 [0x53] WAIT_SCHEDULER_TASK: Wait for scheduler "tlk0" with entities [EventEntity, EventEntity]
  1: 0x001E [0x5E] EventEntity goes idle (kills current action) (animation: "idl0")
  2: 0x0023 [0x1C] WAIT(30* ticks)
  3: 0x0026 [0x00] END_REQSTACK()
```

### Event 65535.3

#### Metadata

| Field        | Value    |
|--------------|----------|
| Entrypoint   | 0x0027   |
| Data Size    | 16 bytes |
| Instructions | 2        |

```
      00 01 02 03 04 05 06 07  08 09 0A 0B 0C 0D 0E 0F
      -- -- -- -- -- -- -- --  -- -- -- -- -- -- -- --
0020:                      66  00 80 F8 FF FF 7F F8 FF         f........
0030: FF 7F 74 68 6B 31 00                              ..thk1.         
```

#### Opcodes

```
  0: 0x0027 [0x66] LOAD_EXT_SCHEDULER_MAIN: Load scheduler "thk1" with entities [EventEntity, EventEntity], work=40*
  1: 0x0036 [0x00] END_REQSTACK()
```

### Event 65535.4

#### Metadata

| Field        | Value    |
|--------------|----------|
| Entrypoint   | 0x0037   |
| Data Size    | 14 bytes |
| Instructions | 2        |

```
      00 01 02 03 04 05 06 07  08 09 0A 0B 0C 0D 0E 0F
      -- -- -- -- -- -- -- --  -- -- -- -- -- -- -- --
0030:                      53  F8 FF FF 7F F8 FF FF 7F         S........
0040: 74 68 6B 31 00                                    thk1.           
```

#### Opcodes

```
  0: 0x0037 [0x53] WAIT_SCHEDULER_TASK: Wait for scheduler "thk1" with entities [EventEntity, EventEntity]
  1: 0x0044 [0x00] END_REQSTACK()
```

### Event 65535.5

#### Metadata

| Field        | Value    |
|--------------|----------|
| Entrypoint   | 0x0045   |
| Data Size    | 16 bytes |
| Instructions | 2        |

```
      00 01 02 03 04 05 06 07  08 09 0A 0B 0C 0D 0E 0F
      -- -- -- -- -- -- -- --  -- -- -- -- -- -- -- --
0040:                66 00 80  F8 FF FF 7F F8 FF FF 7F       f..........
0050: 74 68 6B 32 00                                    thk2.           
```

#### Opcodes

```
  0: 0x0045 [0x66] LOAD_EXT_SCHEDULER_MAIN: Load scheduler "thk2" with entities [EventEntity, EventEntity], work=40*
  1: 0x0054 [0x00] END_REQSTACK()
```

### Event 65535.6

#### Metadata

| Field        | Value    |
|--------------|----------|
| Entrypoint   | 0x0055   |
| Data Size    | 14 bytes |
| Instructions | 2        |

```
      00 01 02 03 04 05 06 07  08 09 0A 0B 0C 0D 0E 0F
      -- -- -- -- -- -- -- --  -- -- -- -- -- -- -- --
0050:                53 F8 FF  FF 7F F8 FF FF 7F 74 68       S........th
0060: 6B 32 00                                          k2.             
```

#### Opcodes

```
  0: 0x0055 [0x53] WAIT_SCHEDULER_TASK: Wait for scheduler "thk2" with entities [EventEntity, EventEntity]
  1: 0x0062 [0x00] END_REQSTACK()
```

### Event 65535.7

#### Metadata

| Field        | Value    |
|--------------|----------|
| Entrypoint   | 0x0063   |
| Data Size    | 16 bytes |
| Instructions | 2        |

```
      00 01 02 03 04 05 06 07  08 09 0A 0B 0C 0D 0E 0F
      -- -- -- -- -- -- -- --  -- -- -- -- -- -- -- --
0060:          66 02 80 F8 FF  FF 7F F8 FF FF 7F 73 68     f..........sh
0070: 6B 30 00                                          k0.             
```

#### Opcodes

```
  0: 0x0063 [0x66] LOAD_EXT_SCHEDULER_MAIN: Load scheduler "shk0" with entities [EventEntity, EventEntity], work=41*
  1: 0x0072 [0x00] END_REQSTACK()
```

### Event 65535.8

#### Metadata

| Field        | Value    |
|--------------|----------|
| Entrypoint   | 0x0073   |
| Data Size    | 14 bytes |
| Instructions | 2        |

```
      00 01 02 03 04 05 06 07  08 09 0A 0B 0C 0D 0E 0F
      -- -- -- -- -- -- -- --  -- -- -- -- -- -- -- --
0070:          53 F8 FF FF 7F  F8 FF FF 7F 73 68 6B 30     S........shk0
0080: 00                                                .               
```

#### Opcodes

```
  0: 0x0073 [0x53] WAIT_SCHEDULER_TASK: Wait for scheduler "shk0" with entities [EventEntity, EventEntity]
  1: 0x0080 [0x00] END_REQSTACK()
```

### Event 65535.9

#### Metadata

| Field        | Value    |
|--------------|----------|
| Entrypoint   | 0x0081   |
| Data Size    | 24 bytes |
| Instructions | 4        |

```
      00 01 02 03 04 05 06 07  08 09 0A 0B 0C 0D 0E 0F
      -- -- -- -- -- -- -- --  -- -- -- -- -- -- -- --
0080:    66 03 80 F8 FF FF 7F  F8 FF FF 7F 62 69 6B 30   f..........bik0
0090: 5E 69 64 6C 30 1C 01 80  00                       ^idl0....       
```

#### Opcodes

```
  0: 0x0081 [0x66] LOAD_EXT_SCHEDULER_MAIN: Load scheduler "bik0" with entities [EventEntity, EventEntity], work=42*
  1: 0x0090 [0x5E] EventEntity goes idle (kills current action) (animation: "idl0")
  2: 0x0095 [0x1C] WAIT(30* ticks)
  3: 0x0098 [0x00] END_REQSTACK()
```

### Event 65535.10

#### Metadata

| Field        | Value    |
|--------------|----------|
| Entrypoint   | 0x0099   |
| Data Size    | 14 bytes |
| Instructions | 2        |

```
      00 01 02 03 04 05 06 07  08 09 0A 0B 0C 0D 0E 0F
      -- -- -- -- -- -- -- --  -- -- -- -- -- -- -- --
0090:                             53 F8 FF FF 7F F8 FF           S......
00A0: FF 7F 62 69 6B 30 00                              ..bik0.         
```

#### Opcodes

```
  0: 0x0099 [0x53] WAIT_SCHEDULER_TASK: Wait for scheduler "bik0" with entities [EventEntity, EventEntity]
  1: 0x00A6 [0x00] END_REQSTACK()
```

### Event 65535.11

#### Metadata

| Field        | Value    |
|--------------|----------|
| Entrypoint   | 0x00A7   |
| Data Size    | 16 bytes |
| Instructions | 2        |

```
      00 01 02 03 04 05 06 07  08 09 0A 0B 0C 0D 0E 0F
      -- -- -- -- -- -- -- --  -- -- -- -- -- -- -- --
00A0:                      66  00 80 F8 FF FF 7F F8 FF         f........
00B0: FF 7F 67 6B 72 30 00                              ..gkr0.         
```

#### Opcodes

```
  0: 0x00A7 [0x66] LOAD_EXT_SCHEDULER_MAIN: Load scheduler "gkr0" with entities [EventEntity, EventEntity], work=40*
  1: 0x00B6 [0x00] END_REQSTACK()
```

### Event 65535.12

#### Metadata

| Field        | Value    |
|--------------|----------|
| Entrypoint   | 0x00B7   |
| Data Size    | 22 bytes |
| Instructions | 4        |

```
      00 01 02 03 04 05 06 07  08 09 0A 0B 0C 0D 0E 0F
      -- -- -- -- -- -- -- --  -- -- -- -- -- -- -- --
00B0:                      53  F8 FF FF 7F F8 FF FF 7F         S........
00C0: 67 6B 72 30 5E 69 64 6C  30 1C 01 80 00           gkr0^idl0....   
```

#### Opcodes

```
  0: 0x00B7 [0x53] WAIT_SCHEDULER_TASK: Wait for scheduler "gkr0" with entities [EventEntity, EventEntity]
  1: 0x00C4 [0x5E] EventEntity goes idle (kills current action) (animation: "idl0")
  2: 0x00C9 [0x1C] WAIT(30* ticks)
  3: 0x00CC [0x00] END_REQSTACK()
```

### Event 65535.13

#### Metadata

| Field        | Value    |
|--------------|----------|
| Entrypoint   | 0x00CD   |
| Data Size    | 16 bytes |
| Instructions | 2        |

```
      00 01 02 03 04 05 06 07  08 09 0A 0B 0C 0D 0E 0F
      -- -- -- -- -- -- -- --  -- -- -- -- -- -- -- --
00C0:                                         66 00 80               f..
00D0: F8 FF FF 7F F8 FF FF 7F  73 79 75 30 00           ........syu0.   
```

#### Opcodes

```
  0: 0x00CD [0x66] LOAD_EXT_SCHEDULER_MAIN: Load scheduler "syu0" with entities [EventEntity, EventEntity], work=40*
  1: 0x00DC [0x00] END_REQSTACK()
```

### Event 65535.14

#### Metadata

| Field        | Value    |
|--------------|----------|
| Entrypoint   | 0x00DD   |
| Data Size    | 14 bytes |
| Instructions | 2        |

```
      00 01 02 03 04 05 06 07  08 09 0A 0B 0C 0D 0E 0F
      -- -- -- -- -- -- -- --  -- -- -- -- -- -- -- --
00D0:                                         53 F8 FF               S..
00E0: FF 7F F8 FF FF 7F 73 79  75 30 00                 ......syu0.     
```

#### Opcodes

```
  0: 0x00DD [0x53] WAIT_SCHEDULER_TASK: Wait for scheduler "syu0" with entities [EventEntity, EventEntity]
  1: 0x00EA [0x00] END_REQSTACK()
```

### Event 65535.15

#### Metadata

| Field        | Value    |
|--------------|----------|
| Entrypoint   | 0x00EB   |
| Data Size    | 16 bytes |
| Instructions | 2        |

```
      00 01 02 03 04 05 06 07  08 09 0A 0B 0C 0D 0E 0F
      -- -- -- -- -- -- -- --  -- -- -- -- -- -- -- --
00E0:                                   66 00 80 F8 FF             f....
00F0: FF 7F F8 FF FF 7F 69 72  6F 30 00                 ......iro0.     
```

#### Opcodes

```
  0: 0x00EB [0x66] LOAD_EXT_SCHEDULER_MAIN: Load scheduler "iro0" with entities [EventEntity, EventEntity], work=40*
  1: 0x00FA [0x00] END_REQSTACK()
```

### Event 65535.16

#### Metadata

| Field        | Value    |
|--------------|----------|
| Entrypoint   | 0x00FB   |
| Data Size    | 14 bytes |
| Instructions | 2        |

```
      00 01 02 03 04 05 06 07  08 09 0A 0B 0C 0D 0E 0F
      -- -- -- -- -- -- -- --  -- -- -- -- -- -- -- --
00F0:                                   53 F8 FF FF 7F             S....
0100: F8 FF FF 7F 69 72 6F 30  00                       ....iro0.       
```

#### Opcodes

```
  0: 0x00FB [0x53] WAIT_SCHEDULER_TASK: Wait for scheduler "iro0" with entities [EventEntity, EventEntity]
  1: 0x0108 [0x00] END_REQSTACK()
```

### Event 65535.17

#### Metadata

| Field        | Value    |
|--------------|----------|
| Entrypoint   | 0x0109   |
| Data Size    | 16 bytes |
| Instructions | 2        |

```
      00 01 02 03 04 05 06 07  08 09 0A 0B 0C 0D 0E 0F
      -- -- -- -- -- -- -- --  -- -- -- -- -- -- -- --
0100:                             66 00 80 F8 FF FF 7F           f......
0110: F8 FF FF 7F 64 69 73 30  00                       ....dis0.       
```

#### Opcodes

```
  0: 0x0109 [0x66] LOAD_EXT_SCHEDULER_MAIN: Load scheduler "dis0" with entities [EventEntity, EventEntity], work=40*
  1: 0x0118 [0x00] END_REQSTACK()
```

### Event 65535.18

#### Metadata

| Field        | Value    |
|--------------|----------|
| Entrypoint   | 0x0119   |
| Data Size    | 14 bytes |
| Instructions | 2        |

```
      00 01 02 03 04 05 06 07  08 09 0A 0B 0C 0D 0E 0F
      -- -- -- -- -- -- -- --  -- -- -- -- -- -- -- --
0110:                             53 F8 FF FF 7F F8 FF           S......
0120: FF 7F 64 69 73 30 00                              ..dis0.         
```

#### Opcodes

```
  0: 0x0119 [0x53] WAIT_SCHEDULER_TASK: Wait for scheduler "dis0" with entities [EventEntity, EventEntity]
  1: 0x0126 [0x00] END_REQSTACK()
```

### Event 65535.19

#### Metadata

| Field        | Value    |
|--------------|----------|
| Entrypoint   | 0x0127   |
| Data Size    | 16 bytes |
| Instructions | 2        |

```
      00 01 02 03 04 05 06 07  08 09 0A 0B 0C 0D 0E 0F
      -- -- -- -- -- -- -- --  -- -- -- -- -- -- -- --
0120:                      66  00 80 F8 FF FF 7F F8 FF         f........
0130: FF 7F 70 61 73 30 00                              ..pas0.         
```

#### Opcodes

```
  0: 0x0127 [0x66] LOAD_EXT_SCHEDULER_MAIN: Load scheduler "pas0" with entities [EventEntity, EventEntity], work=40*
  1: 0x0136 [0x00] END_REQSTACK()
```

### Event 65535.20

#### Metadata

| Field        | Value    |
|--------------|----------|
| Entrypoint   | 0x0137   |
| Data Size    | 14 bytes |
| Instructions | 2        |

```
      00 01 02 03 04 05 06 07  08 09 0A 0B 0C 0D 0E 0F
      -- -- -- -- -- -- -- --  -- -- -- -- -- -- -- --
0130:                      53  F8 FF FF 7F F8 FF FF 7F         S........
0140: 70 61 73 30 00                                    pas0.           
```

#### Opcodes

```
  0: 0x0137 [0x53] WAIT_SCHEDULER_TASK: Wait for scheduler "pas0" with entities [EventEntity, EventEntity]
  1: 0x0144 [0x00] END_REQSTACK()
```

### Event 65535.21

#### Metadata

| Field        | Value    |
|--------------|----------|
| Entrypoint   | 0x0145   |
| Data Size    | 16 bytes |
| Instructions | 2        |

```
      00 01 02 03 04 05 06 07  08 09 0A 0B 0C 0D 0E 0F
      -- -- -- -- -- -- -- --  -- -- -- -- -- -- -- --
0140:                66 03 80  F8 FF FF 7F F8 FF FF 7F       f..........
0150: 74 65 68 30 00                                    teh0.           
```

#### Opcodes

```
  0: 0x0145 [0x66] LOAD_EXT_SCHEDULER_MAIN: Load scheduler "teh0" with entities [EventEntity, EventEntity], work=42*
  1: 0x0154 [0x00] END_REQSTACK()
```

### Event 65535.22

#### Metadata

| Field        | Value    |
|--------------|----------|
| Entrypoint   | 0x0155   |
| Data Size    | 22 bytes |
| Instructions | 4        |

```
      00 01 02 03 04 05 06 07  08 09 0A 0B 0C 0D 0E 0F
      -- -- -- -- -- -- -- --  -- -- -- -- -- -- -- --
0150:                53 F8 FF  FF 7F F8 FF FF 7F 74 65       S........te
0160: 68 30 5E 69 64 6C 30 1C  01 80 00                 h0^idl0....     
```

#### Opcodes

```
  0: 0x0155 [0x53] WAIT_SCHEDULER_TASK: Wait for scheduler "teh0" with entities [EventEntity, EventEntity]
  1: 0x0162 [0x5E] EventEntity goes idle (kills current action) (animation: "idl0")
  2: 0x0167 [0x1C] WAIT(30* ticks)
  3: 0x016A [0x00] END_REQSTACK()
```

### Event 65535.23

#### Metadata

| Field        | Value    |
|--------------|----------|
| Entrypoint   | 0x016B   |
| Data Size    | 37 bytes |
| Instructions | 5        |

```
      00 01 02 03 04 05 06 07  08 09 0A 0B 0C 0D 0E 0F
      -- -- -- -- -- -- -- --  -- -- -- -- -- -- -- --
0160:                                   66 03 80 F8 FF             f....
0170: FF 7F F8 FF FF 7F 74 65  68 30 53 F8 FF FF 7F F8  ......teh0S.....
0180: FF FF 7F 74 65 68 30 5E  69 64 6C 30 1C 01 80 00  ...teh0^idl0....
```

#### Opcodes

```
  0: 0x016B [0x66] LOAD_EXT_SCHEDULER_MAIN: Load scheduler "teh0" with entities [EventEntity, EventEntity], work=42*
  1: 0x017A [0x53] WAIT_SCHEDULER_TASK: Wait for scheduler "teh0" with entities [EventEntity, EventEntity]
  2: 0x0187 [0x5E] EventEntity goes idle (kills current action) (animation: "idl0")
  3: 0x018C [0x1C] WAIT(30* ticks)
  4: 0x018F [0x00] END_REQSTACK()
```

### Event 65535.24

#### Metadata

| Field        | Value    |
|--------------|----------|
| Entrypoint   | 0x0190   |
| Data Size    | 16 bytes |
| Instructions | 2        |

```
      00 01 02 03 04 05 06 07  08 09 0A 0B 0C 0D 0E 0F
      -- -- -- -- -- -- -- --  -- -- -- -- -- -- -- --
0190: 66 00 80 F8 FF FF 7F F8  FF FF 7F 7A 69 74 30 00  f..........zit0.
```

#### Opcodes

```
  0: 0x0190 [0x66] LOAD_EXT_SCHEDULER_MAIN: Load scheduler "zit0" with entities [EventEntity, EventEntity], work=40*
  1: 0x019F [0x00] END_REQSTACK()
```

### Event 65535.25

#### Metadata

| Field        | Value    |
|--------------|----------|
| Entrypoint   | 0x01A0   |
| Data Size    | 22 bytes |
| Instructions | 4        |

```
      00 01 02 03 04 05 06 07  08 09 0A 0B 0C 0D 0E 0F
      -- -- -- -- -- -- -- --  -- -- -- -- -- -- -- --
01A0: 53 F8 FF FF 7F F8 FF FF  7F 7A 69 74 30 5E 69 64  S........zit0^id
01B0: 6C 30 1C 01 80 00                                 l0....          
```

#### Opcodes

```
  0: 0x01A0 [0x53] WAIT_SCHEDULER_TASK: Wait for scheduler "zit0" with entities [EventEntity, EventEntity]
  1: 0x01AD [0x5E] EventEntity goes idle (kills current action) (animation: "idl0")
  2: 0x01B2 [0x1C] WAIT(30* ticks)
  3: 0x01B5 [0x00] END_REQSTACK()
```

### Event 65535.26

#### Metadata

| Field        | Value    |
|--------------|----------|
| Entrypoint   | 0x01B6   |
| Data Size    | 16 bytes |
| Instructions | 2        |

```
      00 01 02 03 04 05 06 07  08 09 0A 0B 0C 0D 0E 0F
      -- -- -- -- -- -- -- --  -- -- -- -- -- -- -- --
01B0:                   66 00  80 F8 FF FF 7F F8 FF FF        f.........
01C0: 7F 77 61 69 30 00                                 .wai0.          
```

#### Opcodes

```
  0: 0x01B6 [0x66] LOAD_EXT_SCHEDULER_MAIN: Load scheduler "wai0" with entities [EventEntity, EventEntity], work=40*
  1: 0x01C5 [0x00] END_REQSTACK()
```

### Event 65535.27

#### Metadata

| Field        | Value    |
|--------------|----------|
| Entrypoint   | 0x01C6   |
| Data Size    | 14 bytes |
| Instructions | 2        |

```
      00 01 02 03 04 05 06 07  08 09 0A 0B 0C 0D 0E 0F
      -- -- -- -- -- -- -- --  -- -- -- -- -- -- -- --
01C0:                   53 F8  FF FF 7F F8 FF FF 7F 77        S........w
01D0: 61 69 30 00                                       ai0.            
```

#### Opcodes

```
  0: 0x01C6 [0x53] WAIT_SCHEDULER_TASK: Wait for scheduler "wai0" with entities [EventEntity, EventEntity]
  1: 0x01D3 [0x00] END_REQSTACK()
```

### Event 65535.28

#### Metadata

| Field        | Value    |
|--------------|----------|
| Entrypoint   | 0x01D4   |
| Data Size    | 16 bytes |
| Instructions | 2        |

```
      00 01 02 03 04 05 06 07  08 09 0A 0B 0C 0D 0E 0F
      -- -- -- -- -- -- -- --  -- -- -- -- -- -- -- --
01D0:             66 02 80 F8  FF FF 7F F8 FF FF 7F 65      f..........e
01E0: 68 6E 30 00                                       hn0.            
```

#### Opcodes

```
  0: 0x01D4 [0x66] LOAD_EXT_SCHEDULER_MAIN: Load scheduler "ehn0" with entities [EventEntity, EventEntity], work=41*
  1: 0x01E3 [0x00] END_REQSTACK()
```

### Event 65535.29

#### Metadata

| Field        | Value    |
|--------------|----------|
| Entrypoint   | 0x01E4   |
| Data Size    | 14 bytes |
| Instructions | 2        |

```
      00 01 02 03 04 05 06 07  08 09 0A 0B 0C 0D 0E 0F
      -- -- -- -- -- -- -- --  -- -- -- -- -- -- -- --
01E0:             53 F8 FF FF  7F F8 FF FF 7F 65 68 6E      S........ehn
01F0: 30 00                                             0.              
```

#### Opcodes

```
  0: 0x01E4 [0x53] WAIT_SCHEDULER_TASK: Wait for scheduler "ehn0" with entities [EventEntity, EventEntity]
  1: 0x01F1 [0x00] END_REQSTACK()
```

### Event 65535.30

#### Metadata

| Field        | Value    |
|--------------|----------|
| Entrypoint   | 0x01F2   |
| Data Size    | 16 bytes |
| Instructions | 2        |

```
      00 01 02 03 04 05 06 07  08 09 0A 0B 0C 0D 0E 0F
      -- -- -- -- -- -- -- --  -- -- -- -- -- -- -- --
01F0:       66 00 80 F8 FF FF  7F F8 FF FF 7F 70 6F 69    f..........poi
0200: 30 00                                             0.              
```

#### Opcodes

```
  0: 0x01F2 [0x66] LOAD_EXT_SCHEDULER_MAIN: Load scheduler "poi0" with entities [EventEntity, EventEntity], work=40*
  1: 0x0201 [0x00] END_REQSTACK()
```

### Event 65535.31

#### Metadata

| Field        | Value    |
|--------------|----------|
| Entrypoint   | 0x0202   |
| Data Size    | 14 bytes |
| Instructions | 2        |

```
      00 01 02 03 04 05 06 07  08 09 0A 0B 0C 0D 0E 0F
      -- -- -- -- -- -- -- --  -- -- -- -- -- -- -- --
0200:       53 F8 FF FF 7F F8  FF FF 7F 65 68 6E 30 00    S........ehn0.
```

#### Opcodes

```
  0: 0x0202 [0x53] WAIT_SCHEDULER_TASK: Wait for scheduler "ehn0" with entities [EventEntity, EventEntity]
  1: 0x020F [0x00] END_REQSTACK()
```

### Event 65535.32

#### Metadata

| Field        | Value    |
|--------------|----------|
| Entrypoint   | 0x0210   |
| Data Size    | 16 bytes |
| Instructions | 2        |

```
      00 01 02 03 04 05 06 07  08 09 0A 0B 0C 0D 0E 0F
      -- -- -- -- -- -- -- --  -- -- -- -- -- -- -- --
0210: 66 00 80 F8 FF FF 7F F8  FF FF 7F 6F 62 69 30 00  f..........obi0.
```

#### Opcodes

```
  0: 0x0210 [0x66] LOAD_EXT_SCHEDULER_MAIN: Load scheduler "obi0" with entities [EventEntity, EventEntity], work=40*
  1: 0x021F [0x00] END_REQSTACK()
```

### Event 65535.33

#### Metadata

| Field        | Value    |
|--------------|----------|
| Entrypoint   | 0x0220   |
| Data Size    | 14 bytes |
| Instructions | 2        |

```
      00 01 02 03 04 05 06 07  08 09 0A 0B 0C 0D 0E 0F
      -- -- -- -- -- -- -- --  -- -- -- -- -- -- -- --
0220: 53 F8 FF FF 7F F8 FF FF  7F 6F 62 69 30 00        S........obi0.  
```

#### Opcodes

```
  0: 0x0220 [0x53] WAIT_SCHEDULER_TASK: Wait for scheduler "obi0" with entities [EventEntity, EventEntity]
  1: 0x022D [0x00] END_REQSTACK()
```

### Event 65535.34

#### Metadata

| Field        | Value    |
|--------------|----------|
| Entrypoint   | 0x022E   |
| Data Size    | 16 bytes |
| Instructions | 2        |

```
      00 01 02 03 04 05 06 07  08 09 0A 0B 0C 0D 0E 0F
      -- -- -- -- -- -- -- --  -- -- -- -- -- -- -- --
0220:                                            66 00                f.
0230: 80 F8 FF FF 7F F8 FF FF  7F 6F 62 69 31 00        .........obi1.  
```

#### Opcodes

```
  0: 0x022E [0x66] LOAD_EXT_SCHEDULER_MAIN: Load scheduler "obi1" with entities [EventEntity, EventEntity], work=40*
  1: 0x023D [0x00] END_REQSTACK()
```

### Event 65535.35

#### Metadata

| Field        | Value    |
|--------------|----------|
| Entrypoint   | 0x023E   |
| Data Size    | 14 bytes |
| Instructions | 2        |

```
      00 01 02 03 04 05 06 07  08 09 0A 0B 0C 0D 0E 0F
      -- -- -- -- -- -- -- --  -- -- -- -- -- -- -- --
0230:                                            53 F8                S.
0240: FF FF 7F F8 FF FF 7F 6F  62 69 31 00              .......obi1.    
```

#### Opcodes

```
  0: 0x023E [0x53] WAIT_SCHEDULER_TASK: Wait for scheduler "obi1" with entities [EventEntity, EventEntity]
  1: 0x024B [0x00] END_REQSTACK()
```

### Event 65535.36

#### Metadata

| Field        | Value    |
|--------------|----------|
| Entrypoint   | 0x024C   |
| Data Size    | 16 bytes |
| Instructions | 2        |

```
      00 01 02 03 04 05 06 07  08 09 0A 0B 0C 0D 0E 0F
      -- -- -- -- -- -- -- --  -- -- -- -- -- -- -- --
0240:                                      66 03 80 F8              f...
0250: FF FF 7F F8 FF FF 7F 62  69 6B 30 00              .......bik0.    
```

#### Opcodes

```
  0: 0x024C [0x66] LOAD_EXT_SCHEDULER_MAIN: Load scheduler "bik0" with entities [EventEntity, EventEntity], work=42*
  1: 0x025B [0x00] END_REQSTACK()
```

### Event 65535.37

#### Metadata

| Field        | Value    |
|--------------|----------|
| Entrypoint   | 0x025C   |
| Data Size    | 14 bytes |
| Instructions | 2        |

```
      00 01 02 03 04 05 06 07  08 09 0A 0B 0C 0D 0E 0F
      -- -- -- -- -- -- -- --  -- -- -- -- -- -- -- --
0250:                                      53 F8 FF FF              S...
0260: 7F F8 FF FF 7F 62 69 6B  30 00                    .....bik0.      
```

#### Opcodes

```
  0: 0x025C [0x53] WAIT_SCHEDULER_TASK: Wait for scheduler "bik0" with entities [EventEntity, EventEntity]
  1: 0x0269 [0x00] END_REQSTACK()
```

### Event 65535.38

#### Metadata

| Field        | Value    |
|--------------|----------|
| Entrypoint   | 0x026A   |
| Data Size    | 16 bytes |
| Instructions | 2        |

```
      00 01 02 03 04 05 06 07  08 09 0A 0B 0C 0D 0E 0F
      -- -- -- -- -- -- -- --  -- -- -- -- -- -- -- --
0260:                                66 02 80 F8 FF FF            f.....
0270: 7F F8 FF FF 7F 67 6D 6E  30 00                    .....gmn0.      
```

#### Opcodes

```
  0: 0x026A [0x66] LOAD_EXT_SCHEDULER_MAIN: Load scheduler "gmn0" with entities [EventEntity, EventEntity], work=41*
  1: 0x0279 [0x00] END_REQSTACK()
```

### Event 65535.39

#### Metadata

| Field        | Value    |
|--------------|----------|
| Entrypoint   | 0x027A   |
| Data Size    | 14 bytes |
| Instructions | 2        |

```
      00 01 02 03 04 05 06 07  08 09 0A 0B 0C 0D 0E 0F
      -- -- -- -- -- -- -- --  -- -- -- -- -- -- -- --
0270:                                53 F8 FF FF 7F F8            S.....
0280: FF FF 7F 67 6D 6E 30 00                           ...gmn0.        
```

#### Opcodes

```
  0: 0x027A [0x53] WAIT_SCHEDULER_TASK: Wait for scheduler "gmn0" with entities [EventEntity, EventEntity]
  1: 0x0287 [0x00] END_REQSTACK()
```

### Event 65535.40

#### Metadata

| Field        | Value    |
|--------------|----------|
| Entrypoint   | 0x0288   |
| Data Size    | 16 bytes |
| Instructions | 2        |

```
      00 01 02 03 04 05 06 07  08 09 0A 0B 0C 0D 0E 0F
      -- -- -- -- -- -- -- --  -- -- -- -- -- -- -- --
0280:                          66 02 80 F8 FF FF 7F F8          f.......
0290: FF FF 7F 67 6D 6E 31 00                           ...gmn1.        
```

#### Opcodes

```
  0: 0x0288 [0x66] LOAD_EXT_SCHEDULER_MAIN: Load scheduler "gmn1" with entities [EventEntity, EventEntity], work=41*
  1: 0x0297 [0x00] END_REQSTACK()
```

### Event 65535.41

#### Metadata

| Field        | Value    |
|--------------|----------|
| Entrypoint   | 0x0298   |
| Data Size    | 14 bytes |
| Instructions | 2        |

```
      00 01 02 03 04 05 06 07  08 09 0A 0B 0C 0D 0E 0F
      -- -- -- -- -- -- -- --  -- -- -- -- -- -- -- --
0290:                          53 F8 FF FF 7F F8 FF FF          S.......
02A0: 7F 67 6D 6E 31 00                                 .gmn1.          
```

#### Opcodes

```
  0: 0x0298 [0x53] WAIT_SCHEDULER_TASK: Wait for scheduler "gmn1" with entities [EventEntity, EventEntity]
  1: 0x02A5 [0x00] END_REQSTACK()
```

### Event 65535.42

#### Metadata

| Field        | Value    |
|--------------|----------|
| Entrypoint   | 0x02A6   |
| Data Size    | 16 bytes |
| Instructions | 2        |

```
      00 01 02 03 04 05 06 07  08 09 0A 0B 0C 0D 0E 0F
      -- -- -- -- -- -- -- --  -- -- -- -- -- -- -- --
02A0:                   66 04  80 F8 FF FF 7F F8 FF FF        f.........
02B0: 7F 6D 64 71 30 00                                 .mdq0.          
```

#### Opcodes

```
  0: 0x02A6 [0x66] LOAD_EXT_SCHEDULER_MAIN: Load scheduler "mdq0" with entities [EventEntity, EventEntity], work=46*
  1: 0x02B5 [0x00] END_REQSTACK()
```

### Event 65535.43

#### Metadata

| Field        | Value    |
|--------------|----------|
| Entrypoint   | 0x02B6   |
| Data Size    | 14 bytes |
| Instructions | 2        |

```
      00 01 02 03 04 05 06 07  08 09 0A 0B 0C 0D 0E 0F
      -- -- -- -- -- -- -- --  -- -- -- -- -- -- -- --
02B0:                   53 F8  FF FF 7F F8 FF FF 7F 6D        S........m
02C0: 64 71 30 00                                       dq0.            
```

#### Opcodes

```
  0: 0x02B6 [0x53] WAIT_SCHEDULER_TASK: Wait for scheduler "mdq0" with entities [EventEntity, EventEntity]
  1: 0x02C3 [0x00] END_REQSTACK()
```

### Event 65535.44

#### Metadata

| Field        | Value    |
|--------------|----------|
| Entrypoint   | 0x02C4   |
| Data Size    | 16 bytes |
| Instructions | 2        |

```
      00 01 02 03 04 05 06 07  08 09 0A 0B 0C 0D 0E 0F
      -- -- -- -- -- -- -- --  -- -- -- -- -- -- -- --
02C0:             66 04 80 F8  FF FF 7F F8 FF FF 7F 6D      f..........m
02D0: 64 71 31 00                                       dq1.            
```

#### Opcodes

```
  0: 0x02C4 [0x66] LOAD_EXT_SCHEDULER_MAIN: Load scheduler "mdq1" with entities [EventEntity, EventEntity], work=46*
  1: 0x02D3 [0x00] END_REQSTACK()
```

### Event 65535.45

#### Metadata

| Field        | Value    |
|--------------|----------|
| Entrypoint   | 0x02D4   |
| Data Size    | 14 bytes |
| Instructions | 2        |

```
      00 01 02 03 04 05 06 07  08 09 0A 0B 0C 0D 0E 0F
      -- -- -- -- -- -- -- --  -- -- -- -- -- -- -- --
02D0:             53 F8 FF FF  7F F8 FF FF 7F 6D 64 71      S........mdq
02E0: 31 00                                             1.              
```

#### Opcodes

```
  0: 0x02D4 [0x53] WAIT_SCHEDULER_TASK: Wait for scheduler "mdq1" with entities [EventEntity, EventEntity]
  1: 0x02E1 [0x00] END_REQSTACK()
```

### Event 65535.46

#### Metadata

| Field        | Value    |
|--------------|----------|
| Entrypoint   | 0x02E2   |
| Data Size    | 16 bytes |
| Instructions | 2        |

```
      00 01 02 03 04 05 06 07  08 09 0A 0B 0C 0D 0E 0F
      -- -- -- -- -- -- -- --  -- -- -- -- -- -- -- --
02E0:       66 00 80 F8 FF FF  7F F8 FF FF 7F 6D 6F 6A    f..........moj
02F0: 30 00                                             0.              
```

#### Opcodes

```
  0: 0x02E2 [0x66] LOAD_EXT_SCHEDULER_MAIN: Load scheduler "moj0" with entities [EventEntity, EventEntity], work=40*
  1: 0x02F1 [0x00] END_REQSTACK()
```

### Event 65535.47

#### Metadata

| Field        | Value    |
|--------------|----------|
| Entrypoint   | 0x02F2   |
| Data Size    | 22 bytes |
| Instructions | 4        |

```
      00 01 02 03 04 05 06 07  08 09 0A 0B 0C 0D 0E 0F
      -- -- -- -- -- -- -- --  -- -- -- -- -- -- -- --
02F0:       53 F8 FF FF 7F F8  FF FF 7F 6D 6F 6A 30 5E    S........moj0^
0300: 69 64 6C 30 1C 01 80 00                           idl0....        
```

#### Opcodes

```
  0: 0x02F2 [0x53] WAIT_SCHEDULER_TASK: Wait for scheduler "moj0" with entities [EventEntity, EventEntity]
  1: 0x02FF [0x5E] EventEntity goes idle (kills current action) (animation: "idl0")
  2: 0x0304 [0x1C] WAIT(30* ticks)
  3: 0x0307 [0x00] END_REQSTACK()
```

### Event 65535.48

#### Metadata

| Field        | Value    |
|--------------|----------|
| Entrypoint   | 0x0308   |
| Data Size    | 16 bytes |
| Instructions | 2        |

```
      00 01 02 03 04 05 06 07  08 09 0A 0B 0C 0D 0E 0F
      -- -- -- -- -- -- -- --  -- -- -- -- -- -- -- --
0300:                          5B 05 80 F8 FF FF 7F F8          [.......
0310: FF FF 7F 75 73 69 30 00                           ...usi0.        
```

#### Opcodes

```
  0: 0x0308 [0x5B] LOAD_EXT_SCHEDULER: Load scheduler "usi0" with entities [EventEntity, EventEntity], work=431*
  1: 0x0317 [0x00] END_REQSTACK()
```

### Event 65535.49

#### Metadata

| Field        | Value    |
|--------------|----------|
| Entrypoint   | 0x0318   |
| Data Size    | 14 bytes |
| Instructions | 2        |

```
      00 01 02 03 04 05 06 07  08 09 0A 0B 0C 0D 0E 0F
      -- -- -- -- -- -- -- --  -- -- -- -- -- -- -- --
0310:                          53 F8 FF FF 7F F8 FF FF          S.......
0320: 7F 75 73 69 30 00                                 .usi0.          
```

#### Opcodes

```
  0: 0x0318 [0x53] WAIT_SCHEDULER_TASK: Wait for scheduler "usi0" with entities [EventEntity, EventEntity]
  1: 0x0325 [0x00] END_REQSTACK()
```

### Event 65535.50

#### Metadata

| Field        | Value    |
|--------------|----------|
| Entrypoint   | 0x0326   |
| Data Size    | 16 bytes |
| Instructions | 2        |

```
      00 01 02 03 04 05 06 07  08 09 0A 0B 0C 0D 0E 0F
      -- -- -- -- -- -- -- --  -- -- -- -- -- -- -- --
0320:                   5B 05  80 F8 FF FF 7F F8 FF FF        [.........
0330: 7F 75 73 69 31 00                                 .usi1.          
```

#### Opcodes

```
  0: 0x0326 [0x5B] LOAD_EXT_SCHEDULER: Load scheduler "usi1" with entities [EventEntity, EventEntity], work=431*
  1: 0x0335 [0x00] END_REQSTACK()
```

### Event 65535.51

#### Metadata

| Field        | Value    |
|--------------|----------|
| Entrypoint   | 0x0336   |
| Data Size    | 14 bytes |
| Instructions | 2        |

```
      00 01 02 03 04 05 06 07  08 09 0A 0B 0C 0D 0E 0F
      -- -- -- -- -- -- -- --  -- -- -- -- -- -- -- --
0330:                   53 F8  FF FF 7F F8 FF FF 7F 75        S........u
0340: 73 69 31 00                                       si1.            
```

#### Opcodes

```
  0: 0x0336 [0x53] WAIT_SCHEDULER_TASK: Wait for scheduler "usi1" with entities [EventEntity, EventEntity]
  1: 0x0343 [0x00] END_REQSTACK()
```

### Event 65535.52

#### Metadata

| Field        | Value    |
|--------------|----------|
| Entrypoint   | 0x0344   |
| Data Size    | 16 bytes |
| Instructions | 2        |

```
      00 01 02 03 04 05 06 07  08 09 0A 0B 0C 0D 0E 0F
      -- -- -- -- -- -- -- --  -- -- -- -- -- -- -- --
0340:             5B 06 80 F8  FF FF 7F F8 FF FF 7F 79      [..........y
0350: 65 73 30 00                                       es0.            
```

#### Opcodes

```
  0: 0x0344 [0x5B] LOAD_EXT_SCHEDULER: Load scheduler "yes0" with entities [EventEntity, EventEntity], work=432*
  1: 0x0353 [0x00] END_REQSTACK()
```

### Event 65535.53

#### Metadata

| Field        | Value    |
|--------------|----------|
| Entrypoint   | 0x0354   |
| Data Size    | 14 bytes |
| Instructions | 2        |

```
      00 01 02 03 04 05 06 07  08 09 0A 0B 0C 0D 0E 0F
      -- -- -- -- -- -- -- --  -- -- -- -- -- -- -- --
0350:             53 F8 FF FF  7F F8 FF FF 7F 79 65 73      S........yes
0360: 30 00                                             0.              
```

#### Opcodes

```
  0: 0x0354 [0x53] WAIT_SCHEDULER_TASK: Wait for scheduler "yes0" with entities [EventEntity, EventEntity]
  1: 0x0361 [0x00] END_REQSTACK()
```

### Event 65535.54

#### Metadata

| Field        | Value   |
|--------------|---------|
| Entrypoint   | 0x0362  |
| Data Size    | 9 bytes |
| Instructions | 3       |

```
      00 01 02 03 04 05 06 07  08 09 0A 0B 0C 0D 0E 0F
      -- -- -- -- -- -- -- --  -- -- -- -- -- -- -- --
0360:       5E 69 64 6C 30 1C  01 80 00                   ^idl0....     
```

#### Opcodes

```
  0: 0x0362 [0x5E] EventEntity goes idle (kills current action) (animation: "idl0")
  1: 0x0367 [0x1C] WAIT(30* ticks)
  2: 0x036A [0x00] END_REQSTACK()
```

### Event 65535.55

#### Metadata

| Field        | Value    |
|--------------|----------|
| Entrypoint   | 0x036B   |
| Data Size    | 30 bytes |
| Instructions | 9        |

```
      00 01 02 03 04 05 06 07  08 09 0A 0B 0C 0D 0E 0F
      -- -- -- -- -- -- -- --  -- -- -- -- -- -- -- --
0360:                                   02 01 00 07 80             .....
0370: 00 88 03 1E F0 FF FF 7F  6F 70 1C 08 80 1E 16 20  ........op..... 
0380: 0F 01 1C 08 80 01 6B 03  00                       ......k..       
```

#### Opcodes

```
  0: 0x036B [0x02] IF !(ExtData[1]->WorkLocal[1] == 1*) GOTO 0x0388
  1: 0x0373 [0x1E] EventEntity looks at LocalPlayer and starts talking
  2: 0x0378 [0x6F] WAIT_FRAME_DELAY: Yield until WaitTime reaches zero
  3: 0x0379 [0x70] WAIT_ENTITY_RENDER_FLAG: Wait while EventEntity->Render.Flags3 bit 2 is set (cancel turn if not)
  4: 0x037A [0x1C] WAIT(100* ticks)
  5: 0x037D [0x1E] EventEntity looks at Semih Lafihna (ID: 17768470/0x010F2016) and starts talking
  6: 0x0382 [0x1C] WAIT(100* ticks)
  7: 0x0385 [0x01] GOTO 0x036B
  8: 0x0388 [0x00] END_REQSTACK()
```

### Event 254

#### Metadata

| Field        | Value    |
|--------------|----------|
| Entrypoint   | 0x0389   |
| Data Size    | 33 bytes |
| Instructions | 12       |

```
      00 01 02 03 04 05 06 07  08 09 0A 0B 0C 0D 0E 0F
      -- -- -- -- -- -- -- --  -- -- -- -- -- -- -- --
0380:                             1E F0 FF FF 7F 6F 70           .....op
0390: 29 08 13 20 0F 01 01 1D  09 80 23 1D 0A 80 23 29  ).. ......#...#)
03A0: 08 13 20 0F 01 36 20 00  21 00                    .. ..6 .!.      
```

#### Opcodes

```
  0: 0x0389 [0x1E] EventEntity looks at LocalPlayer and starts talking
  1: 0x038E [0x6F] WAIT_FRAME_DELAY: Yield until WaitTime reaches zero
  2: 0x038F [0x70] WAIT_ENTITY_RENDER_FLAG: Wait while EventEntity->Render.Flags3 bit 2 is set (cancel turn if not)
  3: 0x0390 [0x29] REQ_SET_WAIT(priority=0x08, entity_id=Kupipi (ID: 17768467/0x010F2013), tag_num=0x01)
  4: 0x0397 [0x1D] PRINT_EVENT_MESSAGE(message_id=566*)
     "You can't take up tw`o missions at once."
  5: 0x039A [0x23] WAIT_FOR_DIALOG_INTERACTION
  6: 0x039B [0x1D] PRINT_EVENT_MESSAGE(message_id=567*)
     "Come back when you have finished the one you are currently working on."
  7: 0x039E [0x23] WAIT_FOR_DIALOG_INTERACTION
  8: 0x039F [0x29] REQ_SET_WAIT(priority=0x08, entity_id=Kupipi (ID: 17768467/0x010F2013), tag_num=0x36)
  9: 0x03A6 [0x20] SET_CLI_EVENT_UC_FLAG: Unlock player control
 10: 0x03A8 [0x21] END_EVENT
 11: 0x03A9 [0x00] END_REQSTACK()
```

### Event 258

#### Metadata

| Field        | Value    |
|--------------|----------|
| Entrypoint   | 0x03AA   |
| Data Size    | 51 bytes |
| Instructions | 16       |

```
      00 01 02 03 04 05 06 07  08 09 0A 0B 0C 0D 0E 0F
      -- -- -- -- -- -- -- --  -- -- -- -- -- -- -- --
03A0:                                1E F0 FF FF 7F 6F            .....o
03B0: 70 29 08 13 20 0F 01 01  1D 0B 80 23 1D 0C 80 23  p).. ......#...#
03C0: 29 08 13 20 0F 01 36 29  08 13 20 0F 01 0D 1D 0D  ).. ..6).. .....
03D0: 80 23 29 08 13 20 0F 01  0E 20 00 21 00           .#).. ... .!.   
```

#### Opcodes

```
  0: 0x03AA [0x1E] EventEntity looks at LocalPlayer and starts talking
  1: 0x03AF [0x6F] WAIT_FRAME_DELAY: Yield until WaitTime reaches zero
  2: 0x03B0 [0x70] WAIT_ENTITY_RENDER_FLAG: Wait while EventEntity->Render.Flags3 bit 2 is set (cancel turn if not)
  3: 0x03B1 [0x29] REQ_SET_WAIT(priority=0x08, entity_id=Kupipi (ID: 17768467/0x010F2013), tag_num=0x01)
  4: 0x03B8 [0x1D] PRINT_EVENT_MESSAGE(message_id=572*)
     "The Star Sibyl is not taking the recent happenings very well..."
  5: 0x03BB [0x23] WAIT_FOR_DIALOG_INTERACTION
  6: 0x03BC [0x1D] PRINT_EVENT_MESSAGE(message_id=573*)
     "But at times like these, you just have to get out there and kick some butt for the home team!"
  7: 0x03BF [0x23] WAIT_FOR_DIALOG_INTERACTION
  8: 0x03C0 [0x29] REQ_SET_WAIT(priority=0x08, entity_id=Kupipi (ID: 17768467/0x010F2013), tag_num=0x36)
  9: 0x03C7 [0x29] REQ_SET_WAIT(priority=0x08, entity_id=Kupipi (ID: 17768467/0x010F2013), tag_num=0x0D)
 10: 0x03CE [0x1D] PRINT_EVENT_MESSAGE(message_id=574*)
     "Come on, you stinkin' Yagudo! Bring it on!"
 11: 0x03D1 [0x23] WAIT_FOR_DIALOG_INTERACTION
 12: 0x03D2 [0x29] REQ_SET_WAIT(priority=0x08, entity_id=Kupipi (ID: 17768467/0x010F2013), tag_num=0x0E)
 13: 0x03D9 [0x20] SET_CLI_EVENT_UC_FLAG: Unlock player control
 14: 0x03DB [0x21] END_EVENT
 15: 0x03DC [0x00] END_REQSTACK()
```

### Event 255

#### Metadata

| Field        | Value     |
|--------------|-----------|
| Entrypoint   | 0x03DD    |
| Data Size    | 202 bytes |
| Instructions | 43        |

```
      00 01 02 03 04 05 06 07  08 09 0A 0B 0C 0D 0E 0F
      -- -- -- -- -- -- -- --  -- -- -- -- -- -- -- --
03D0:                                         1E F0 FF               ...
03E0: FF 7F 6F 70 29 08 13 20  0F 01 01 1D 0E 80 23 24  ..op).. ......#$
03F0: 0F 80 10 80 02 10 25 02  00 10 10 80 00 07 04 03  ......%.........
0400: 01 10 10 80 01 77 04 02  00 10 07 80 00 17 04 03  .....w..........
0410: 01 10 07 80 01 77 04 02  00 10 11 80 00 27 04 03  .....w.......'..
0420: 01 10 11 80 01 77 04 02  00 10 12 80 00 37 04 03  .....w.......7..
0430: 01 10 12 80 01 77 04 02  00 10 13 80 00 47 04 03  .....w.......G..
0440: 01 10 13 80 01 77 04 02  00 10 14 80 00 57 04 03  .....w.......W..
0450: 01 10 14 80 01 77 04 02  00 10 15 80 00 67 04 03  .....w.......g..
0460: 01 10 15 80 01 77 04 02  00 10 16 80 00 77 04 03  .....w.......w..
0470: 01 10 16 80 01 77 04 03  01 10 00 10 02 01 10 17  .....w..........
0480: 80 01 9C 04 24 18 80 10  80 10 80 25 02 00 10 07  ....$......%....
0490: 80 00 9C 04 03 01 10 17  80 01 9C 04 29 08 13 20  ............).. 
04A0: 0F 01 36 20 00 21 00                              ..6 .!.         
```

#### Opcodes

```
  0: 0x03DD [0x1E] EventEntity looks at LocalPlayer and starts talking
  1: 0x03E2 [0x6F] WAIT_FRAME_DELAY: Yield until WaitTime reaches zero
  2: 0x03E3 [0x70] WAIT_ENTITY_RENDER_FLAG: Wait while EventEntity->Render.Flags3 bit 2 is set (cancel turn if not)
  3: 0x03E4 [0x29] REQ_SET_WAIT(priority=0x08, entity_id=Kupipi (ID: 17768467/0x010F2013), tag_num=0x01)
  4: 0x03EB [0x1D] PRINT_EVENT_MESSAGE(message_id=568*)
     "Then you can leave it to Kupipi to find you something just right for you."
  5: 0x03EE [0x23] WAIT_FOR_DIALOG_INTERACTION
  6: 0x03EF [0x24] CREATE_DIALOG(message_id=569*, default_option=0*, option_flags=Work_Zone[2])
     "Which mission will you accept? [Mission 1-1/Mission 1-2/Mission 1-3/Mission 2-1/Mission 2-2/Mission 2-3/Mission 3-1/Mission 3-2/Mission 3-3/Mission 4-1/Mission 4-2/Mission 4-3/Dummy 1/Dummy 2/Dummy 3/Dummy 4/Dummy 5/Dummy 6/Dummy 7/Dummy 8/Dummy 9/Dummy 10/Dummy 11/Dummy 12/Dummy 13/Dummy 14/Dummy 15/Dummy 16/Dummy 17/Dummy!/Dummy!!/Accept no missions!]"
  7: 0x03F6 [0x25] WAIT_DIALOG_SELECT()
  8: 0x03F7 [0x02] IF !(Work_Zone[0] == 0*) GOTO 0x0407
  9: 0x03FF [0x03] Work_Zone[1] = 0*
 10: 0x0404 [0x01] GOTO 0x0477
 11: 0x0407 [0x02] IF !(Work_Zone[0] == 1*) GOTO 0x0417
 12: 0x040F [0x03] Work_Zone[1] = 1*
 13: 0x0414 [0x01] GOTO 0x0477
 14: 0x0417 [0x02] IF !(Work_Zone[0] == 2*) GOTO 0x0427
 15: 0x041F [0x03] Work_Zone[1] = 2*
 16: 0x0424 [0x01] GOTO 0x0477
 17: 0x0427 [0x02] IF !(Work_Zone[0] == 3*) GOTO 0x0437
 18: 0x042F [0x03] Work_Zone[1] = 3*
 19: 0x0434 [0x01] GOTO 0x0477
 20: 0x0437 [0x02] IF !(Work_Zone[0] == 4*) GOTO 0x0447
 21: 0x043F [0x03] Work_Zone[1] = 4*
 22: 0x0444 [0x01] GOTO 0x0477
 23: 0x0447 [0x02] IF !(Work_Zone[0] == 5*) GOTO 0x0457
 24: 0x044F [0x03] Work_Zone[1] = 5*
 25: 0x0454 [0x01] GOTO 0x0477
 26: 0x0457 [0x02] IF !(Work_Zone[0] == 6*) GOTO 0x0467
 27: 0x045F [0x03] Work_Zone[1] = 6*
 28: 0x0464 [0x01] GOTO 0x0477
 29: 0x0467 [0x02] IF !(Work_Zone[0] == 7*) GOTO 0x0477
 30: 0x046F [0x03] Work_Zone[1] = 7*
 31: 0x0474 [0x01] GOTO 0x0477

SUBROUTINE_0477:
 32: 0x0477 [0x03] Work_Zone[1] = Work_Zone[0]
 33: 0x047C [0x02] IF !(Work_Zone[1] == 31*) GOTO 0x049C
 34: 0x0484 [0x24] CREATE_DIALOG(message_id=7331*, default_option=0*, option_flags=0*)
     "Accept this mission? [Yes./No.]"
 35: 0x048B [0x25] WAIT_DIALOG_SELECT()
 36: 0x048C [0x02] IF !(Work_Zone[0] == 1*) GOTO 0x049C
 37: 0x0494 [0x03] Work_Zone[1] = 31*
 38: 0x0499 [0x01] GOTO 0x049C

SUBROUTINE_049C:
 39: 0x049C [0x29] REQ_SET_WAIT(priority=0x08, entity_id=Kupipi (ID: 17768467/0x010F2013), tag_num=0x36)
 40: 0x04A3 [0x20] SET_CLI_EVENT_UC_FLAG: Unlock player control
 41: 0x04A5 [0x21] END_EVENT
 42: 0x04A6 [0x00] END_REQSTACK()
```

### Event 251

#### Metadata

| Field        | Value    |
|--------------|----------|
| Entrypoint   | 0x04A7   |
| Data Size    | 60 bytes |
| Instructions | 18       |

```
      00 01 02 03 04 05 06 07  08 09 0A 0B 0C 0D 0E 0F
      -- -- -- -- -- -- -- --  -- -- -- -- -- -- -- --
04A0:                      42  03 07 00 07 10 03 06 00         B........
04B0: 08 10 03 05 00 09 10 1E  F0 FF FF 7F 6F 70 29 08  ............op).
04C0: 13 20 0F 01 01 1D 19 80  23 1D 1A 80 23 29 08 13  . ......#...#)..
04D0: 20 0F 01 36 02 05 00 07  80 00 DF 04 1A 9C 0D 20   ..6........... 
04E0: 00 21 00                                          .!.             
```

#### Opcodes

```
  0: 0x04A7 [0x42] SET_CLI_EVENT_CANCEL_DATA()
  1: 0x04A8 [0x03] ExtData[1]->WorkLocal[7] = Work_Zone[7]
  2: 0x04AD [0x03] ExtData[1]->WorkLocal[6] = Work_Zone[8]
  3: 0x04B2 [0x03] ExtData[1]->WorkLocal[5] = Work_Zone[9]
  4: 0x04B7 [0x1E] EventEntity looks at LocalPlayer and starts talking
  5: 0x04BC [0x6F] WAIT_FRAME_DELAY: Yield until WaitTime reaches zero
  6: 0x04BD [0x70] WAIT_ENTITY_RENDER_FLAG: Wait while EventEntity->Render.Flags3 bit 2 is set (cancel turn if not)
  7: 0x04BE [0x29] REQ_SET_WAIT(priority=0x08, entity_id=Kupipi (ID: 17768467/0x010F2013), tag_num=0x01)
  8: 0x04C5 [0x1D] PRINT_EVENT_MESSAGE(message_id=560*)
     "Welcome to Heavens Tower--home of the Great Star Tree and our leader, the Star Sibyl."
  9: 0x04C8 [0x23] WAIT_FOR_DIALOG_INTERACTION
 10: 0x04C9 [0x1D] PRINT_EVENT_MESSAGE(message_id=561*)
     "The Star Sibyl can hear a`ll the thoughts and dreams of a`ll the people in Windurst. So you'd better keep quiet."
 11: 0x04CC [0x23] WAIT_FOR_DIALOG_INTERACTION
 12: 0x04CD [0x29] REQ_SET_WAIT(priority=0x08, entity_id=Kupipi (ID: 17768467/0x010F2013), tag_num=0x36)
 13: 0x04D4 [0x02] IF !(ExtData[1]->WorkLocal[5] == 1*) GOTO 0x04DF
 14: 0x04DC [0x1A] CALL_SUBROUTINE(address=0x0D9C)
 15: 0x04DF [0x20] SET_CLI_EVENT_UC_FLAG: Unlock player control
 16: 0x04E1 [0x21] END_EVENT
 17: 0x04E2 [0x00] END_REQSTACK()
```

### Event 95

#### Metadata

| Field        | Value      |
|--------------|------------|
| Entrypoint   | 0x04E3     |
| Data Size    | 1674 bytes |
| Instructions | 227        |

```
      00 01 02 03 04 05 06 07  08 09 0A 0B 0C 0D 0E 0F
      -- -- -- -- -- -- -- --  -- -- -- -- -- -- -- --
04E0:          46 01 42 03 06  00 08 10 03 05 00 09 10     F.B..........
04F0: 45 1B 80 F8 FF FF 7F F8  FF FF 7F 66 64 6F 31 10  E..........fdo1.
0500: 80 1C 1C 80 75 00 1D 80  75 01 38 12 80 5C 00 1E  ....u...u.8..\..
0510: 80 5C 01 1E 80 1C 08 80  4E 01 F0 FF FF 7F 4E 00  .\......N.....N.
0520: 16 20 0F 01 80 16 20 0F  01 29 08 F0 FF FF 7F 06  . .... ..)......
0530: 29 0E F0 FF FF 7F 23 03  01 00 10 80 29 08 F0 FF  ).....#.....)...
0540: FF 7F 05 4A 13 20 0F 01  F0 FF FF 7F 6F 76 13 20  ...J. ......ov. 
0550: 0F 01 2C 16 20 0F 01 16  20 0F 01 77 6F 66 34 45  ..,. ... ..wof4E
0560: 1F 80 F8 FF FF 7F F8 FF  FF 7F 73 30 30 30 10 80  ..........s000..
0570: 45 1B 80 F8 FF FF 7F F8  FF FF 7F 66 64 69 31 10  E..........fdi1.
0580: 80 29 0B 13 20 0F 01 3D  45 1F 80 F8 FF FF 7F F8  .).. ..=E.......
0590: FF FF 7F 73 30 30 33 10  80 4E 01 16 20 0F 01 4E  ...s003..N.. ..N
05A0: 00 F0 FF FF 7F 29 0B 13  20 0F 01 3E 27 08 1B 20  .....).. ..>'.. 
05B0: 0F 01 02 02 03 10 10 80  00 C5 05 29 0B 13 20 0F  ...........).. .
05C0: 01 3F 01 CC 05 29 0B 13  20 0F 01 40 45 1F 80 F8  .?...).. ..@E...
05D0: FF FF 7F F8 FF FF 7F 73  30 30 31 10 80 4E 00 16  .......s001..N..
05E0: 20 0F 01 4E 00 F0 FF FF  7F 4A F0 FF FF 7F 16 20   ..N.....J..... 
05F0: 0F 01 4A 13 20 0F 01 16  20 0F 01 6F 76 13 20 0F  ..J. ... ..ov. .
0600: 01 80 16 20 0F 01 29 0B  16 20 0F 01 2E 2A 08 1B  ... ..).. ...*..
0610: 20 0F 01 27 0B 16 20 0F  01 29 1C 08 80 2A 0B 16   ..'.. ..)...*..
0620: 20 0F 01 52 1F 80 F8 FF  FF 7F F8 FF FF 7F 73 30   ..R..........s0
0630: 30 31 45 1F 80 F8 FF FF  7F F8 FF FF 7F 73 30 30  01E..........s00
0640: 32 10 80 27 0B 16 20 0F  01 2A 29 0D F0 FF FF 7F  2..'.. ..*).....
0650: 24 2A 0B 16 20 0F 01 4A  13 20 0F 01 16 20 0F 01  $*.. ..J. ... ..
0660: 6F 76 13 20 0F 01 29 0A  13 20 0F 01 41 52 1F 80  ov. ..).. ..AR..
0670: F8 FF FF 7F F8 FF FF 7F  73 30 30 32 45 1F 80 F8  ........s002E...
0680: FF FF 7F F8 FF FF 7F 73  30 38 39 10 80 4A 16 20  .......s089..J. 
0690: 0F 01 13 20 0F 01 6F 76  16 20 0F 01 29 0B 16 20  ... ..ov. ..).. 
06A0: 0F 01 2F 45 1F 80 F8 FF  FF 7F F8 FF FF 7F 73 30  ../E..........s0
06B0: 30 34 10 80 4A 13 20 0F  01 16 20 0F 01 6F 76 13  04..J. ... ..ov.
06C0: 20 0F 01 02 03 10 10 80  00 D5 06 29 0B 13 20 0F   ..........).. .
06D0: 01 42 01 DC 06 29 0B 13  20 0F 01 43 4A 16 20 0F  .B...).. ..CJ. .
06E0: 01 13 20 0F 01 6F 76 16  20 0F 01 29 0B 16 20 0F  .. ..ov. ..).. .
06F0: 01 30 4A 13 20 0F 01 F0  FF FF 7F 6F 76 13 20 0F  .0J. ......ov. .
0700: 01 45 1B 80 F8 FF FF 7F  F8 FF FF 7F 66 64 6F 31  .E..........fdo1
0710: 10 80 1C 1B 80 4A 16 20  0F 01 F0 FF FF 7F 6F 76  .....J. ......ov
0720: 16 20 0F 01 2C 16 20 0F  01 16 20 0F 01 77 6F 66  . ..,. ... ..wof
0730: 34 45 1F 80 F8 FF FF 7F  F8 FF FF 7F 73 30 38 36  4E..........s086
0740: 10 80 45 1B 80 F8 FF FF  7F F8 FF FF 7F 66 64 69  ..E..........fdi
0750: 31 10 80 29 0B 16 20 0F  01 31 45 1F 80 F8 FF FF  1..).. ..1E.....
0760: 7F F8 FF FF 7F 73 30 30  35 10 80 4A 16 20 0F 01  .....s005..J. ..
0770: 13 20 0F 01 6F 76 16 20  0F 01 4A 13 20 0F 01 16  . ..ov. ..J. ...
0780: 20 0F 01 6F 76 13 20 0F  01 29 0B 16 20 0F 01 32   ..ov. ..).. ..2
0790: 29 0B 13 20 0F 01 44 02  08 10 20 80 00 B3 07 45  ).. ..D... ....E
07A0: 1F 80 F8 FF FF 7F F8 FF  FF 7F 73 31 30 31 10 80  ..........s101..
07B0: 01 C4 07 45 1F 80 F8 FF  FF 7F F8 FF FF 7F 73 30  ...E..........s0
07C0: 38 37 10 80 4A 16 20 0F  01 F0 FF FF 7F 6F 76 16  87..J. ......ov.
07D0: 20 0F 01 79 00 16 20 0F  01 F0 FF FF 7F 1C 01 80   ..y.. .........
07E0: 02 05 00 07 80 00 F3 07  03 06 10 11 80 1A E5 09  ................
07F0: 01 0A 08 02 04 10 12 80  00 03 08 2B 16 20 0F 01  ...........+. ..
0800: 21 80 23 29 0B 16 20 0F  01 33 79 00 16 20 0F 01  !.#).. ..3y.. ..
0810: 13 20 0F 01 2B 16 20 0F  01 22 80 23 02 08 10 20  . ..+. ..".#... 
0820: 80 00 36 08 52 1F 80 F8  FF FF 7F F8 FF FF 7F 73  ..6.R..........s
0830: 31 30 31 01 45 08 52 1F  80 F8 FF FF 7F F8 FF FF  101.E.R.........
0840: 7F 73 30 38 37 52 23 80  F8 FF FF 7F F8 FF FF 7F  .s087R#.........
0850: 73 30 37 35 45 1F 80 F8  FF FF 7F F8 FF FF 7F 73  s075E..........s
0860: 30 38 38 10 80 7B 16 20  0F 01 29 0B 16 20 0F 01  088..{. ..).. ..
0870: 2D 4A 13 20 0F 01 F0 FF  FF 7F 6F 76 13 20 0F 01  -J. ......ov. ..
0880: 6F 76 13 20 0F 01 45 1B  80 F8 FF FF 7F F8 FF FF  ov. ..E.........
0890: 7F 66 64 6F 31 10 80 52  1F 80 F8 FF FF 7F F8 FF  .fdo1..R........
08A0: FF 7F 73 30 38 38 29 0B  F0 FF FF 7F 25 1C 24 80  ..s088).....%.$.
08B0: 4B 13 20 0F 01 25 80 6F  76 13 20 0F 01 4B F0 FF  K. ..%.ov. ..K..
08C0: FF 7F 26 80 45 1B 80 F8  FF FF 7F F8 FF FF 7F 66  ..&.E..........f
08D0: 64 69 31 10 80 02 00 00  10 80 00 72 09 4E 01 F0  di1........r.N..
08E0: FF FF 7F 45 1F 80 F8 FF  FF 7F F8 FF FF 7F 73 30  ...E..........s0
08F0: 30 30 10 80 29 0B 13 20  0F 01 45 4A F0 FF FF 7F  00..).. ..EJ....
0900: 13 20 0F 01 29 0B 13 20  0F 01 46 29 0B 13 20 0F  . ..).. ..F).. .
0910: 01 47 45 1F 80 F8 FF FF  7F F8 FF FF 7F 73 30 30  .GE..........s00
0920: 35 10 80 4E 00 F0 FF FF  7F 29 0B 13 20 0F 01 48  5..N.....).. ..H
0930: 29 0B 13 20 0F 01 49 24  27 80 10 80 10 80 25 02  ).. ..I$'.....%.
0940: 00 10 10 80 00 5F 09 03  01 10 10 80 0B 00 00 02  ....._..........
0950: 00 00 28 80 02 5C 09 03  00 00 07 80 01 6F 09 02  ..(..\.......o..
0960: 00 10 07 80 00 6F 09 03  01 10 07 80 01 6F 09 01  .....o.......o..
0970: D5 08 4E 01 F0 FF FF 7F  45 1F 80 F8 FF FF 7F F8  ..N.....E.......
0980: FF FF 7F 73 30 30 30 10  80 29 0B 13 20 0F 01 4B  ...s000..).. ..K
0990: 5D 10 80 1B 80 45 1B 80  F8 FF FF 7F F8 FF FF 7F  ]....E..........
09A0: 66 64 6F 31 10 80 1C 1B  80 2A 0B 16 20 0F 01 5C  fdo1.....*.. ..\
09B0: 00 29 80 5C 01 29 80 5D  2A 80 07 80 4E 00 F0 FF  .).\.).]*...N...
09C0: FF 7F 4E 01 16 20 0F 01  2F 01 16 20 0F 01 46 00  ..N.. ../.. ..F.
09D0: 45 1B 80 F8 FF FF 7F F8  FF FF 7F 66 64 69 31 10  E..........fdi1.
09E0: 80 20 00 21 00 03 02 10  2B 80 2B 16 20 0F 01 2C  . .!....+.+. ..,
09F0: 80 23 02 06 00 10 80 00  07 0A 03 02 10 11 80 2B  .#.............+
0A00: 16 20 0F 01 2D 80 23 29  0B 16 20 0F 01 33 27 05  . ..-.#).. ..3'.
0A10: F0 FF FF 7F 60 1C 2E 80  27 05 F0 FF FF 7F 61 1C  ....`...'.....a.
0A20: 00 80 52 1F 80 F8 FF FF  7F F8 FF FF 7F 73 31 30  ..R..........s10
0A30: 31 52 1F 80 F8 FF FF 7F  F8 FF FF 7F 73 30 38 37  1R..........s087
0A40: 45 23 80 F8 FF FF 7F F8  FF FF 7F 73 30 35 35 10  E#.........s055.
0A50: 80 2B 16 20 0F 01 2F 80  23 45 1B 80 F8 FF FF 7F  .+. ../.#E......
0A60: F8 FF FF 7F 66 64 6F 31  10 80 55 1B 80 F8 FF FF  ....fdo1..U.....
0A70: 7F F8 FF FF 7F 66 64 6F  31 52 23 80 F8 FF FF 7F  .....fdo1R#.....
0A80: F8 FF FF 7F 73 30 35 35  1C 1C 80 48 30 80 1C 1E  ....s055...H0...
0A90: 80 45 23 80 F8 FF FF 7F  F8 FF FF 7F 73 30 35 36  .E#.........s056
0AA0: 10 80 1C 31 80 45 1B 80  F8 FF FF 7F F8 FF FF 7F  ...1.E..........
0AB0: 66 64 69 31 10 80 5B 32  80 16 20 0F 01 16 20 0F  fdi1..[2.. ... .
0AC0: 01 74 6C 6B 30 2B 16 20  0F 01 33 80 23 2B 16 20  .tlk0+. ..3.#+. 
0AD0: 0F 01 34 80 23 52 23 80  F8 FF FF 7F F8 FF FF 7F  ..4.#R#.........
0AE0: 73 30 35 36 45 23 80 F8  FF FF 7F F8 FF FF 7F 73  s056E#.........s
0AF0: 30 35 37 10 80 2B 16 20  0F 01 35 80 23 2B 16 20  057..+. ..5.#+. 
0B00: 0F 01 36 80 23 52 23 80  F8 FF FF 7F F8 FF FF 7F  ..6.#R#.........
0B10: 73 30 35 37 45 23 80 F8  FF FF 7F F8 FF FF 7F 73  s057E#.........s
0B20: 30 35 38 10 80 2B 16 20  0F 01 37 80 23 5B 32 80  058..+. ..7.#[2.
0B30: 16 20 0F 01 16 20 0F 01  74 6C 6B 32 02 04 10 12  . ... ..tlk2....
0B40: 80 00 4C 0B 2B 16 20 0F  01 38 80 23 52 23 80 F8  ..L.+. ..8.#R#..
0B50: FF FF 7F F8 FF FF 7F 73  30 35 38 45 23 80 F8 FF  .......s058E#...
0B60: FF 7F F8 FF FF 7F 73 30  37 35 10 80 1B           ......s075...   
```

#### Opcodes

```
  0: 0x04E3 [0x46] CAMERA_CONTROL: Disable user control
  1: 0x04E5 [0x42] SET_CLI_EVENT_CANCEL_DATA()
  2: 0x04E6 [0x03] ExtData[1]->WorkLocal[6] = Work_Zone[8]
  3: 0x04EB [0x03] ExtData[1]->WorkLocal[5] = Work_Zone[9]
  4: 0x04F0 [0x45] LOAD_SCHEDULED_TASK: Load scheduler "fdo1" with entities [EventEntity, EventEntity], work=[200*, 0*]
  5: 0x0501 [0x1C] WAIT(60* ticks)
  6: 0x0504 [0x75] LOAD_ROOM(Load indoor room, room=426*)
  7: 0x0508 [0x75] LOAD_ROOM(No action)
  8: 0x050A [0x38] SET_CLIENT_EVENT_MODE(mode=3*)
  9: 0x050D [0x5C] MUSIC_CONTROL: Set Idle (Day) music to song 120*
 10: 0x0511 [0x5C] MUSIC_CONTROL: Set Idle (Night) music to song 120*
 11: 0x0515 [0x1C] WAIT(100* ticks)
 12: 0x0518 [0x4E] SET_ENTITY_HIDE_FLAG: Hide LocalPlayer
 13: 0x051E [0x4E] SET_ENTITY_HIDE_FLAG: Show Semih Lafihna (ID: 17768470/0x010F2016)
 14: 0x0524 [0x80] LOAD_WAIT(entity=Semih Lafihna (ID: 17768470/0x010F2016))
 15: 0x0529 [0x29] REQ_SET_WAIT(priority=0x08, entity_id=LocalPlayer, tag_num=0x06)
 16: 0x0530 [0x29] REQ_SET_WAIT(priority=0x0E, entity_id=LocalPlayer, tag_num=0x23)
 17: 0x0537 [0x03] ExtData[1]->WorkLocal[1] = 0*
