# 17768572

## Common Data

| Field            | Value                   |
|------------------|-------------------------|
| Zone             | Heavens Tower (ID: 242) |
| Block Size       | 36412 bytes             |
| Total Events     | 24                      |
| References Count | 524                     |

## List of Events

| Event ID              | Entrypoint   |   Size |   Instructions |
|-----------------------|--------------|--------|----------------|
| [65535](#event-65535) | 0x0000       |    658 |             62 |
| [441](#event-441)     | 0x0292       |   4596 |            606 |
| [442](#event-442)     | 0x1486       |    193 |             38 |
| [445](#event-445)     | 0x1547       |    163 |             33 |
| [443](#event-443)     | 0x15EA       |    168 |             34 |
| [446](#event-446)     | 0x1692       |    210 |             42 |
| [444](#event-444)     | 0x1764       |    233 |             47 |
| [447](#event-447)     | 0x184D       |    259 |             51 |
| [448](#event-448)     | 0x1950       |   1568 |            220 |
| [449](#event-449)     | 0x1F70       |   3201 |            417 |
| [450](#event-450)     | 0x2BF1       |    261 |             50 |
| [451](#event-451)     | 0x2CF6       |    238 |             46 |
| [452](#event-452)     | 0x2DE4       |    214 |             42 |
| [453](#event-453)     | 0x2EBA       |    231 |             45 |
| [454](#event-454)     | 0x2FA1       |   3571 |            456 |
| [455](#event-455)     | 0x3D94       |   4627 |            637 |
| [456](#event-456)     | 0x4FA7       |     89 |             16 |
| [457](#event-457)     | 0x5000       |    142 |             27 |
| [458](#event-458)     | 0x508E       |    126 |             25 |
| [459](#event-459)     | 0x510C       |    143 |             28 |
| [460](#event-460)     | 0x519B       |   5802 |            754 |
| [461](#event-461)     | 0x6845       |    113 |             23 |
| [462](#event-462)     | 0x68B6       |   7313 |            936 |
| [463](#event-463)     | 0x8547       |     83 |             17 |

## DAT References (imed_data)

|   Index | Hex Value   |   Dec Value |
|---------|-------------|-------------|
|       0 | 0x00C8      |         200 |
|       1 | 0x0000      |           0 |
|       2 | 0x00C9      |         201 |
|       3 | 0x0001      |           1 |
|       4 | 0x002D      |          45 |
|       5 | 0x0002      |           2 |
|       6 | 0x001E      |          30 |
|       7 | 0x00D7      |         215 |
|       8 | 0x0093      |         147 |
|       9 | 0x012C      |         300 |
|      10 | 0x01AA      |         426 |
|      11 | 0x21C0      |        8640 |
|      12 | 0x7CF5      |       31989 |
|      13 | 0x00F9      |         249 |
|      14 | 0x06AC      |        1708 |
|      15 | 0x1F2C      |        7980 |
|      16 | 0x805F      |       32863 |
|      17 | 0xFFFFFFF6  |  4294967286 |
|      18 | 0x05A9      |        1449 |
|      19 | 0x0B0E      |        2830 |
|      20 | 0x7F83      |       32643 |
|      21 | 0x044A      |        1098 |
|      22 | 0x07A6      |        1958 |
|      23 | 0x7637      |       30263 |
|      24 | 0x0CCB      |        3275 |
|      25 | 0x0003      |           3 |
|      26 | 0x0005      |           5 |
|      27 | 0x0D09      |        3337 |
|      28 | 0x762E      |       30254 |
|      29 | 0x0B67      |        2919 |
|      30 | 0x0006      |           6 |
|      31 | 0x0CDA      |        3290 |
|      32 | 0x6F2C      |       28460 |
|      33 | 0x01F3      |         499 |
|      34 | 0x0B74      |        2932 |
|      35 | 0x0BE4      |        3044 |
|      36 | 0x00A1      |         161 |
|      37 | 0x007F      |         127 |
|      38 | 0x0342      |         834 |
|      39 | 0x0014      |          20 |
|      40 | 0x246E      |        9326 |
|      41 | 0x246F      |        9327 |
|      42 | 0x2470      |        9328 |
|      43 | 0x2471      |        9329 |
|      44 | 0x2472      |        9330 |
|      45 | 0x2473      |        9331 |
|      46 | 0x2474      |        9332 |
|      47 | 0x0008      |           8 |
|      48 | 0x2475      |        9333 |
|      49 | 0x2476      |        9334 |
|      50 | 0x2477      |        9335 |
|      51 | 0x2478      |        9336 |
|      52 | 0x0007      |           7 |
|      53 | 0x2479      |        9337 |
|      54 | 0x247A      |        9338 |
|      55 | 0x247B      |        9339 |
|      56 | 0x247C      |        9340 |
|      57 | 0x247D      |        9341 |
|      58 | 0x247E      |        9342 |
|      59 | 0x247F      |        9343 |
|      60 | 0x2480      |        9344 |
|      61 | 0x2481      |        9345 |
|      62 | 0x2482      |        9346 |
|      63 | 0x07F1      |        2033 |
|      64 | 0x007B      |         123 |
|      65 | 0x0032      |          50 |
|      66 | 0x2483      |        9347 |
|      67 | 0x2484      |        9348 |
|      68 | 0x2485      |        9349 |
|      69 | 0x0404      |        1028 |
|      70 | 0x2486      |        9350 |
|      71 | 0x2487      |        9351 |
|      72 | 0x2488      |        9352 |
|      73 | 0x000A      |          10 |
|      74 | 0x2489      |        9353 |
|      75 | 0x248A      |        9354 |
|      76 | 0x0C80      |        3200 |
|      77 | 0x248B      |        9355 |
|      78 | 0x248C      |        9356 |
|      79 | 0x248D      |        9357 |
|      80 | 0x248E      |        9358 |
|      81 | 0x0015      |          21 |
|      82 | 0x248F      |        9359 |
|      83 | 0x2490      |        9360 |
|      84 | 0x2491      |        9361 |
|      85 | 0x2492      |        9362 |
|      86 | 0x2493      |        9363 |
|      87 | 0x2494      |        9364 |
|      88 | 0x000F      |          15 |
|      89 | 0x00A2      |         162 |
|      90 | 0x249C      |        9372 |
|      91 | 0x249D      |        9373 |
|      92 | 0x249E      |        9374 |
|      93 | 0x0725      |        1829 |
|      94 | 0x249F      |        9375 |
|      95 | 0x24A0      |        9376 |
|      96 | 0x24A1      |        9377 |
|      97 | 0x24A2      |        9378 |
|      98 | 0x24A5      |        9381 |
|      99 | 0x24A6      |        9382 |
|     100 | 0x24A7      |        9383 |
|     101 | 0x24A8      |        9384 |
|     102 | 0x24A9      |        9385 |
|     103 | 0x24AA      |        9386 |
|     104 | 0x24AB      |        9387 |
|     105 | 0x24AE      |        9390 |
|     106 | 0x24AF      |        9391 |
|     107 | 0x24B0      |        9392 |
|     108 | 0x24B1      |        9393 |
|     109 | 0x11CE      |        4558 |
|     110 | 0x24B2      |        9394 |
|     111 | 0x24B3      |        9395 |
|     112 | 0x24B4      |        9396 |
|     113 | 0x24B7      |        9399 |
|     114 | 0x24B8      |        9400 |
|     115 | 0x19CC      |        6604 |
|     116 | 0x24B9      |        9401 |
|     117 | 0x24BA      |        9402 |
|     118 | 0x24BB      |        9403 |
|     119 | 0x24BC      |        9404 |
|     120 | 0x24BD      |        9405 |
|     121 | 0x24BE      |        9406 |
|     122 | 0x24BF      |        9407 |
|     123 | 0x24C2      |        9410 |
|     124 | 0x24C3      |        9411 |
|     125 | 0x24C4      |        9412 |
|     126 | 0x24C5      |        9413 |
|     127 | 0x24C6      |        9414 |
|     128 | 0x24C7      |        9415 |
|     129 | 0x24C8      |        9416 |
|     130 | 0x0FFA      |        4090 |
|     131 | 0x24C9      |        9417 |
|     132 | 0x24CA      |        9418 |
|     133 | 0x24CB      |        9419 |
|     134 | 0x24CC      |        9420 |
|     135 | 0x24D0      |        9424 |
|     136 | 0x24D1      |        9425 |
|     137 | 0x24D2      |        9426 |
|     138 | 0x24D3      |        9427 |
|     139 | 0x24D4      |        9428 |
|     140 | 0x24D5      |        9429 |
|     141 | 0x24D6      |        9430 |
|     142 | 0x24D7      |        9431 |
|     143 | 0x24D8      |        9432 |
|     144 | 0x24D9      |        9433 |
|     145 | 0x24DA      |        9434 |
|     146 | 0x24DB      |        9435 |
|     147 | 0x0802      |        2050 |
|     148 | 0x7E90      |       32400 |
|     149 | 0x0400      |        1024 |
|     150 | 0x0920      |        2336 |
|     151 | 0x76DA      |       30426 |
|     152 | 0x0BF1      |        3057 |
|     153 | 0x092B      |        2347 |
|     154 | 0x7217      |       29207 |
|     155 | 0x00FA      |         250 |
|     156 | 0x0019      |          25 |
|     157 | 0x24DE      |        9438 |
|     158 | 0x7FBC      |       32700 |
|     159 | 0x24DF      |        9439 |
|     160 | 0x24E0      |        9440 |
|     161 | 0x24E1      |        9441 |
|     162 | 0x24E2      |        9442 |
|     163 | 0x24E3      |        9443 |
|     164 | 0x0078      |         120 |
|     165 | 0x24E4      |        9444 |
|     166 | 0x0004      |           4 |
|     167 | 0x00AA      |         170 |
|     168 | 0x24E5      |        9445 |
|     169 | 0x24E6      |        9446 |
|     170 | 0x24E7      |        9447 |
|     171 | 0x24E8      |        9448 |
|     172 | 0x24E9      |        9449 |
|     173 | 0x8020      |       32800 |
|     174 | 0x1A6D      |        6765 |
|     175 | 0x6FC4      |       28612 |
|     176 | 0x094A      |        2378 |
|     177 | 0x091F      |        2335 |
|     178 | 0x7177      |       29047 |
|     179 | 0x0BD0      |        3024 |
|     180 | 0x24EE      |        9454 |
|     181 | 0x0028      |          40 |
|     182 | 0x19CD      |        6605 |
|     183 | 0x24EF      |        9455 |
|     184 | 0x24ED      |        9453 |
|     185 | 0x24F0      |        9456 |
|     186 | 0x0060      |          96 |
|     187 | 0x00CE      |         206 |
|     188 | 0x0023      |          35 |
|     189 | 0x0064      |         100 |
|     190 | 0x24F1      |        9457 |
|     191 | 0x24F2      |        9458 |
|     192 | 0x24F3      |        9459 |
|     193 | 0x24F4      |        9460 |
|     194 | 0x24F5      |        9461 |
|     195 | 0x24F6      |        9462 |
|     196 | 0x24F7      |        9463 |
|     197 | 0x24F8      |        9464 |
|     198 | 0x24F9      |        9465 |
|     199 | 0x24FA      |        9466 |
|     200 | 0x00E7      |         231 |
|     201 | 0x24FB      |        9467 |
|     202 | 0x24FC      |        9468 |
|     203 | 0x24FD      |        9469 |
|     204 | 0x24FE      |        9470 |
|     205 | 0x0029      |          41 |
|     206 | 0x24FF      |        9471 |
|     207 | 0x2500      |        9472 |
|     208 | 0x2501      |        9473 |
|     209 | 0x2502      |        9474 |
|     210 | 0x2503      |        9475 |
|     211 | 0x2504      |        9476 |
|     212 | 0x2505      |        9477 |
|     213 | 0x2506      |        9478 |
|     214 | 0x003C      |          60 |
|     215 | 0x2507      |        9479 |
|     216 | 0x2508      |        9480 |
|     217 | 0x0BE8      |        3048 |
|     218 | 0x2509      |        9481 |
|     219 | 0x250A      |        9482 |
|     220 | 0x008C      |         140 |
|     221 | 0x2495      |        9365 |
|     222 | 0x2496      |        9366 |
|     223 | 0x2497      |        9367 |
|     224 | 0x2498      |        9368 |
|     225 | 0x2499      |        9369 |
|     226 | 0x249A      |        9370 |
|     227 | 0x249B      |        9371 |
|     228 | 0x008E      |         142 |
|     229 | 0x24EA      |        9450 |
|     230 | 0x24EB      |        9451 |
|     231 | 0x24EC      |        9452 |
|     232 | 0x0090      |         144 |
|     233 | 0x250B      |        9483 |
|     234 | 0x250C      |        9484 |
|     235 | 0x24A3      |        9379 |
|     236 | 0x24A4      |        9380 |
|     237 | 0x24AC      |        9388 |
|     238 | 0x24AD      |        9389 |
|     239 | 0x250D      |        9485 |
|     240 | 0x250E      |        9486 |
|     241 | 0x250F      |        9487 |
|     242 | 0x24B5      |        9397 |
|     243 | 0x24B6      |        9398 |
|     244 | 0x24C0      |        9408 |
|     245 | 0x24C1      |        9409 |
|     246 | 0x2510      |        9488 |
|     247 | 0x2511      |        9489 |
|     248 | 0x24CD      |        9421 |
|     249 | 0x24CE      |        9422 |
|     250 | 0x24CF      |        9423 |
|     251 | 0x24DC      |        9436 |
|     252 | 0x24DD      |        9437 |
|     253 | 0x2512      |        9490 |
|     254 | 0x2513      |        9491 |
|     255 | 0x0BB8      |        3000 |
|     256 | 0x82CB      |       33483 |
|     257 | 0x0479      |        1145 |
|     258 | 0x0DA2      |        3490 |
|     259 | 0x8039      |       32825 |
|     260 | 0x069D      |        1693 |
|     261 | 0x2514      |        9492 |
|     262 | 0x2515      |        9493 |
|     263 | 0x2516      |        9494 |
|     264 | 0x2517      |        9495 |
|     265 | 0x2518      |        9496 |
|     266 | 0x2519      |        9497 |
|     267 | 0x251A      |        9498 |
|     268 | 0x251B      |        9499 |
|     269 | 0x251C      |        9500 |
|     270 | 0x251D      |        9501 |
|     271 | 0x251E      |        9502 |
|     272 | 0x251F      |        9503 |
|     273 | 0x2520      |        9504 |
|     274 | 0x2521      |        9505 |
|     275 | 0x2522      |        9506 |
|     276 | 0x2523      |        9507 |
|     277 | 0x0080      |         128 |
|     278 | 0x2524      |        9508 |
|     279 | 0x2525      |        9509 |
|     280 | 0x2526      |        9510 |
|     281 | 0x2527      |        9511 |
|     282 | 0x2528      |        9512 |
|     283 | 0x2529      |        9513 |
|     284 | 0x252A      |        9514 |
|     285 | 0x000D      |          13 |
|     286 | 0x252B      |        9515 |
|     287 | 0x252C      |        9516 |
|     288 | 0x252D      |        9517 |
|     289 | 0x252E      |        9518 |
|     290 | 0x252F      |        9519 |
|     291 | 0xFFFFFD89  |  4294966665 |
|     292 | 0x52F9      |       21241 |
|     293 | 0x0D06      |        3334 |
|     294 | 0xFFFFFF81  |  4294967169 |
|     295 | 0x4E5D      |       20061 |
|     296 | 0x0BEF      |        3055 |
|     297 | 0x13EB      |        5099 |
|     298 | 0x7F43      |       32579 |
|     299 | 0x0027      |          39 |
|     300 | 0x096A      |        2410 |
|     301 | 0x74EA      |       29930 |
|     302 | 0x0BC1      |        3009 |
|     303 | 0x0AC9      |        2761 |
|     304 | 0x6EAC      |       28332 |
|     305 | 0x0B29      |        2857 |
|     306 | 0x0344      |         836 |
|     307 | 0x2543      |        9539 |
|     308 | 0x2544      |        9540 |
|     309 | 0x2545      |        9541 |
|     310 | 0x2546      |        9542 |
|     311 | 0x2547      |        9543 |
|     312 | 0x2548      |        9544 |
|     313 | 0x0BFC      |        3068 |
|     314 | 0x2549      |        9545 |
|     315 | 0x254A      |        9546 |
|     316 | 0x254B      |        9547 |
|     317 | 0x020F      |         527 |
|     318 | 0x4EEC      |       20204 |
|     319 | 0x0C15      |        3093 |
|     320 | 0x254C      |        9548 |
|     321 | 0x01F4      |         500 |
|     322 | 0x254D      |        9549 |
|     323 | 0x004B      |          75 |
|     324 | 0x254E      |        9550 |
|     325 | 0x254F      |        9551 |
|     326 | 0x2550      |        9552 |
|     327 | 0x06CC      |        1740 |
|     328 | 0x774B      |       30539 |
|     329 | 0x0B6B      |        2923 |
|     330 | 0x005A      |          90 |
|     331 | 0x2551      |        9553 |
|     332 | 0x2552      |        9554 |
|     333 | 0xFFFFF6D4  |  4294964948 |
|     334 | 0x2553      |        9555 |
|     335 | 0x2554      |        9556 |
|     336 | 0x2555      |        9557 |
|     337 | 0x2556      |        9558 |
|     338 | 0x2557      |        9559 |
|     339 | 0x2558      |        9560 |
|     340 | 0x2559      |        9561 |
|     341 | 0x255A      |        9562 |
|     342 | 0x255B      |        9563 |
|     343 | 0x255C      |        9564 |
|     344 | 0x255D      |        9565 |
|     345 | 0x255E      |        9566 |
|     346 | 0x255F      |        9567 |
|     347 | 0x2560      |        9568 |
|     348 | 0x2561      |        9569 |
|     349 | 0x2562      |        9570 |
|     350 | 0x2563      |        9571 |
|     351 | 0x2564      |        9572 |
|     352 | 0x2565      |        9573 |
|     353 | 0x2566      |        9574 |
|     354 | 0x2567      |        9575 |
|     355 | 0x2568      |        9576 |
|     356 | 0x2569      |        9577 |
|     357 | 0xFFFFF830  |  4294965296 |
|     358 | 0xFFFFF768  |  4294965096 |
|     359 | 0x0096      |         150 |
|     360 | 0x009A      |         154 |
|     361 | 0x2530      |        9520 |
|     362 | 0x2531      |        9521 |
|     363 | 0x2532      |        9522 |
|     364 | 0x2533      |        9523 |
|     365 | 0x2534      |        9524 |
|     366 | 0x2535      |        9525 |
|     367 | 0x009C      |         156 |
|     368 | 0x253D      |        9533 |
|     369 | 0x253E      |        9534 |
|     370 | 0x2536      |        9526 |
|     371 | 0x2537      |        9527 |
|     372 | 0x2538      |        9528 |
|     373 | 0x253F      |        9535 |
|     374 | 0x2540      |        9536 |
|     375 | 0x2539      |        9529 |
|     376 | 0x253A      |        9530 |
|     377 | 0x253B      |        9531 |
|     378 | 0x253C      |        9532 |
|     379 | 0x2541      |        9537 |
|     380 | 0x2542      |        9538 |
|     381 | 0x1863      |        6243 |
|     382 | 0x7F62      |       32610 |
|     383 | 0xFFFFFF6D  |  4294967149 |
|     384 | 0x0552      |        1362 |
|     385 | 0x1737      |        5943 |
|     386 | 0x816A      |       33130 |
|     387 | 0x04CD      |        1229 |
|     388 | 0xFFFFE56E  |  4294960494 |
|     389 | 0x72E7      |       29415 |
|     390 | 0x0FEA      |        4074 |
|     391 | 0x256A      |        9578 |
|     392 | 0x256B      |        9579 |
|     393 | 0x256C      |        9580 |
|     394 | 0x256D      |        9581 |
|     395 | 0x256E      |        9582 |
|     396 | 0x256F      |        9583 |
|     397 | 0x2570      |        9584 |
|     398 | 0x2571      |        9585 |
|     399 | 0x2572      |        9586 |
|     400 | 0x058D      |        1421 |
|     401 | 0x7710      |       30480 |
|     402 | 0x0F3C      |        3900 |
|     403 | 0x2573      |        9587 |
|     404 | 0x2574      |        9588 |
|     405 | 0x2575      |        9589 |
|     406 | 0x2576      |        9590 |
|     407 | 0x2577      |        9591 |
|     408 | 0x2578      |        9592 |
|     409 | 0x2579      |        9593 |
|     410 | 0x257A      |        9594 |
|     411 | 0x257B      |        9595 |
|     412 | 0x257C      |        9596 |
|     413 | 0x257D      |        9597 |
|     414 | 0x257E      |        9598 |
|     415 | 0x257F      |        9599 |
|     416 | 0x044C      |        1100 |
|     417 | 0x2580      |        9600 |
|     418 | 0x2581      |        9601 |
|     419 | 0x2582      |        9602 |
|     420 | 0x2583      |        9603 |
|     421 | 0x2584      |        9604 |
|     422 | 0x2585      |        9605 |
|     423 | 0x2586      |        9606 |
|     424 | 0x2587      |        9607 |
|     425 | 0x2588      |        9608 |
|     426 | 0x0FA0      |        4000 |
|     427 | 0x2589      |        9609 |
|     428 | 0x258A      |        9610 |
|     429 | 0x04C8      |        1224 |
|     430 | 0x258B      |        9611 |
|     431 | 0x258C      |        9612 |
|     432 | 0x258D      |        9613 |
|     433 | 0x258E      |        9614 |
|     434 | 0x258F      |        9615 |
|     435 | 0x2590      |        9616 |
|     436 | 0x0DAC      |        3500 |
|     437 | 0x2591      |        9617 |
|     438 | 0x2592      |        9618 |
|     439 | 0x2593      |        9619 |
|     440 | 0x2594      |        9620 |
|     441 | 0x00A0      |         160 |
|     442 | 0x2595      |        9621 |
|     443 | 0x0C9D      |        3229 |
|     444 | 0x2596      |        9622 |
|     445 | 0x2597      |        9623 |
|     446 | 0x2598      |        9624 |
|     447 | 0x181E      |        6174 |
|     448 | 0x7E1D      |       32285 |
|     449 | 0x044E      |        1102 |
|     450 | 0x1BA3      |        7075 |
|     451 | 0x7295      |       29333 |
|     452 | 0x0B76      |        2934 |
|     453 | 0x2599      |        9625 |
|     454 | 0x259A      |        9626 |
|     455 | 0x259B      |        9627 |
|     456 | 0x259C      |        9628 |
|     457 | 0x259D      |        9629 |
|     458 | 0x259E      |        9630 |
|     459 | 0x259F      |        9631 |
|     460 | 0x25A0      |        9632 |
|     461 | 0x08FC      |        2300 |
|     462 | 0x25A1      |        9633 |
|     463 | 0x0046      |          70 |
|     464 | 0x001B      |          27 |
|     465 | 0xFFFFF8F6  |  4294965494 |
|     466 | 0x807A      |       32890 |
|     467 | 0x0F17      |        3863 |
|     468 | 0x0699      |        1689 |
|     469 | 0x76C4      |       30404 |
|     470 | 0x03E8      |        1000 |
|     471 | 0x25A2      |        9634 |
|     472 | 0x25A3      |        9635 |
|     473 | 0x25A4      |        9636 |
|     474 | 0x25A5      |        9637 |
|     475 | 0x25A6      |        9638 |
|     476 | 0x25A7      |        9639 |
|     477 | 0x25A8      |        9640 |
|     478 | 0x25A9      |        9641 |
|     479 | 0x25AA      |        9642 |
|     480 | 0x25AB      |        9643 |
|     481 | 0x25AC      |        9644 |
|     482 | 0x25AD      |        9645 |
|     483 | 0x25AE      |        9646 |
|     484 | 0x25AF      |        9647 |
|     485 | 0x25B0      |        9648 |
|     486 | 0x25B1      |        9649 |
|     487 | 0x25B2      |        9650 |
|     488 | 0x0033      |          51 |
|     489 | 0x25B3      |        9651 |
|     490 | 0x25B4      |        9652 |
|     491 | 0x25B5      |        9653 |
|     492 | 0x25B6      |        9654 |
|     493 | 0x25B7      |        9655 |
|     494 | 0x25B8      |        9656 |
|     495 | 0x25B9      |        9657 |
|     496 | 0x25BA      |        9658 |
|     497 | 0x25BB      |        9659 |
|     498 | 0x25BC      |        9660 |
|     499 | 0x03F2      |        1010 |
|     500 | 0x25BD      |        9661 |
|     501 | 0x25BE      |        9662 |
|     502 | 0x25BF      |        9663 |
|     503 | 0x25C0      |        9664 |
|     504 | 0x571B      |       22299 |
|     505 | 0x25C1      |        9665 |
|     506 | 0x25C2      |        9666 |
|     507 | 0x0CA0      |        3232 |
|     508 | 0x25C3      |        9667 |
|     509 | 0x25C4      |        9668 |
|     510 | 0xFFFFFE70  |  4294966896 |
|     511 | 0x25C5      |        9669 |
|     512 | 0x25C6      |        9670 |
|     513 | 0x25C7      |        9671 |
|     514 | 0x25C8      |        9672 |
|     515 | 0x25C9      |        9673 |
|     516 | 0x25CA      |        9674 |
|     517 | 0x25CB      |        9675 |
|     518 | 0x25CC      |        9676 |
|     519 | 0x07E4      |        2020 |
|     520 | 0x25CD      |        9677 |
|     521 | 0x00BE      |         190 |
|     522 | 0x25CE      |        9678 |
|     523 | 0x25CF      |        9679 |

## String References

- **9336**: Get to the bottom of things? [Sure./No thanks./What's going on here?]
- **9505**: Are you interested? [Sure./Not really./I didn't say a word...]
- **9581**: Are the Yagudo behind this? [Of course./Probably not.]
- **9651**: Did it say anything? ["Chaos".../Did it?]

## Events

### Event 65535

#### Metadata

| Field        | Value     |
|--------------|-----------|
| Entrypoint   | 0x0000    |
| Data Size    | 658 bytes |
| Instructions | 1         |

```
      00 01 02 03 04 05 06 07  08 09 0A 0B 0C 0D 0E 0F
      -- -- -- -- -- -- -- --  -- -- -- -- -- -- -- --
0000: 00 45 00 80 F0 FF FF 7F  F0 FF FF 7F 66 64 69 30  .E..........fdi0
0010: 01 80 55 00 80 F0 FF FF  7F F0 FF FF 7F 66 64 69  ..U..........fdi
0020: 30 1B 45 00 80 F0 FF FF  7F F0 FF FF 7F 66 64 6F  0.E..........fdo
0030: 30 01 80 55 00 80 F0 FF  FF 7F F0 FF FF 7F 66 64  0..U..........fd
0040: 6F 30 1B 45 00 80 F0 FF  FF 7F F0 FF FF 7F 66 64  o0.E..........fd
0050: 69 31 01 80 55 00 80 F0  FF FF 7F F0 FF FF 7F 66  i1..U..........f
0060: 64 69 31 1B 45 00 80 F0  FF FF 7F F0 FF FF 7F 66  di1.E..........f
0070: 64 6F 31 01 80 55 00 80  F0 FF FF 7F F0 FF FF 7F  do1..U..........
0080: 66 64 6F 31 1B 45 02 80  F0 FF FF 7F F0 FF FF 7F  fdo1.E..........
0090: 77 68 69 31 01 80 55 02  80 F0 FF FF 7F F0 FF FF  whi1..U.........
00A0: 7F 77 68 69 31 1B 45 02  80 F0 FF FF 7F F0 FF FF  .whi1.E.........
00B0: 7F 77 68 6F 31 01 80 55  02 80 F0 FF FF 7F F0 FF  .who1..U........
00C0: FF 7F 77 68 6F 31 1B 45  02 80 F0 FF FF 7F F0 FF  ..who1.E........
00D0: FF 7F 77 68 6F 32 01 80  55 02 80 F0 FF FF 7F F0  ..who2..U.......
00E0: FF FF 7F 77 68 6F 32 1B  45 02 80 F0 FF FF 7F F0  ...who2.E.......
00F0: FF FF 7F 77 68 6F 33 01  80 55 02 80 F0 FF FF 7F  ...who3..U......
0100: F0 FF FF 7F 77 68 6F 33  1B 62 03 80 F0 FF FF 7F  ....who3.b......
0110: F0 FF FF 7F 6D 61 69 6E  01 80 1C 04 80 45 00 80  ....main.....E..
0120: F0 FF FF 7F F0 FF FF 7F  66 64 6F 31 01 80 55 00  ........fdo1..U.
0130: 80 F0 FF FF 7F F0 FF FF  7F 66 64 6F 31 1B 45 00  .........fdo1.E.
0140: 80 F0 FF FF 7F F0 FF FF  7F 66 64 69 31 01 80 62  .........fdi1..b
0150: 05 80 F0 FF FF 7F F0 FF  FF 7F 6D 61 69 6E 01 80  ..........main..
0160: 1C 06 80 55 00 80 F0 FF  FF 7F F0 FF FF 7F 66 64  ...U..........fd
0170: 69 31 1B 45 00 80 F0 FF  FF 7F F0 FF FF 7F 62 6C  i1.E..........bl
0180: 6F 6E 01 80 45 02 80 F0  FF FF 7F F0 FF FF 7F 62  on..E..........b
0190: 6C 6F 6E 01 80 1B 45 02  80 F0 FF FF 7F F0 FF FF  lon...E.........
01A0: 7F 77 68 69 30 01 80 55  02 80 F0 FF FF 7F F0 FF  .whi0..U........
01B0: FF 7F 77 68 69 30 1B 45  02 80 F0 FF FF 7F F0 FF  ..whi0.E........
01C0: FF 7F 77 68 6F 30 01 80  55 02 80 F0 FF FF 7F F0  ..who0..U.......
01D0: FF FF 7F 77 68 6F 30 1B  45 07 80 F0 FF FF 7F F0  ...who0.E.......
01E0: FF FF 7F 65 66 6F 6E 01  80 55 07 80 F0 FF FF 7F  ...efon..U......
01F0: F0 FF FF 7F 65 66 6F 6E  1B 45 00 80 F0 FF FF 7F  ....efon.E......
0200: F0 FF FF 7F 66 64 69 73  01 80 1B 45 00 80 F0 FF  ....fdis...E....
0210: FF 7F F0 FF FF 7F 66 64  6F 73 01 80 55 00 80 F0  ......fdos..U...
0220: FF FF 7F F0 FF FF 7F 66  64 6F 73 1B 45 00 80 F0  .......fdos.E...
0230: FF FF 7F F0 FF FF 7F 66  64 69 66 01 80 1B 45 00  .......fdif...E.
0240: 80 F0 FF FF 7F F0 FF FF  7F 66 64 6F 66 01 80 55  .........fdof..U
0250: 00 80 F0 FF FF 7F F0 FF  FF 7F 66 64 6F 66 1B 45  ..........fdof.E
0260: 00 80 F0 FF FF 7F F0 FF  FF 7F 66 64 69 70 01 80  ..........fdip..
0270: 1B 45 00 80 F0 FF FF 7F  F0 FF FF 7F 66 64 6F 70  .E..........fdop
0280: 01 80 55 00 80 F0 FF FF  7F F0 FF FF 7F 66 64 6F  ..U..........fdo
0290: 70 1B                                             p.              
```

#### Opcodes

```
  0: 0x0000 [0x00] END_REQSTACK()
```

#### Data or dead code:

```
# Dead code (unreachable instructions):
     0x0001 [0x45] LOAD_SCHEDULED_TASK: Load scheduler "fdi0" with entities [LocalPlayer, LocalPlayer], work=[200*, 0*]
     0x0012 [0x55] WAIT_LOAD_SCHEDULER: Wait for scheduler "fdi0" with entities [LocalPlayer, LocalPlayer], work=200*
     0x0021 [0x1B] RETURN
     0x0022 [0x45] LOAD_SCHEDULED_TASK: Load scheduler "fdo0" with entities [LocalPlayer, LocalPlayer], work=[200*, 0*]
     0x0033 [0x55] WAIT_LOAD_SCHEDULER: Wait for scheduler "fdo0" with entities [LocalPlayer, LocalPlayer], work=200*
     0x0042 [0x1B] RETURN
     0x0043 [0x45] LOAD_SCHEDULED_TASK: Load scheduler "fdi1" with entities [LocalPlayer, LocalPlayer], work=[200*, 0*]
     0x0054 [0x55] WAIT_LOAD_SCHEDULER: Wait for scheduler "fdi1" with entities [LocalPlayer, LocalPlayer], work=200*
     0x0063 [0x1B] RETURN
     0x0064 [0x45] LOAD_SCHEDULED_TASK: Load scheduler "fdo1" with entities [LocalPlayer, LocalPlayer], work=[200*, 0*]
     0x0075 [0x55] WAIT_LOAD_SCHEDULER: Wait for scheduler "fdo1" with entities [LocalPlayer, LocalPlayer], work=200*
     0x0084 [0x1B] RETURN
     0x0085 [0x45] LOAD_SCHEDULED_TASK: Load scheduler "whi1" with entities [LocalPlayer, LocalPlayer], work=[201*, 0*]
     0x0096 [0x55] WAIT_LOAD_SCHEDULER: Wait for scheduler "whi1" with entities [LocalPlayer, LocalPlayer], work=201*
     0x00A5 [0x1B] RETURN
     0x00A6 [0x45] LOAD_SCHEDULED_TASK: Load scheduler "who1" with entities [LocalPlayer, LocalPlayer], work=[201*, 0*]
     0x00B7 [0x55] WAIT_LOAD_SCHEDULER: Wait for scheduler "who1" with entities [LocalPlayer, LocalPlayer], work=201*
     0x00C6 [0x1B] RETURN
     0x00C7 [0x45] LOAD_SCHEDULED_TASK: Load scheduler "who2" with entities [LocalPlayer, LocalPlayer], work=[201*, 0*]
     0x00D8 [0x55] WAIT_LOAD_SCHEDULER: Wait for scheduler "who2" with entities [LocalPlayer, LocalPlayer], work=201*
     0x00E7 [0x1B] RETURN
     0x00E8 [0x45] LOAD_SCHEDULED_TASK: Load scheduler "who3" with entities [LocalPlayer, LocalPlayer], work=[201*, 0*]
     0x00F9 [0x55] WAIT_LOAD_SCHEDULER: Wait for scheduler "who3" with entities [LocalPlayer, LocalPlayer], work=201*
     0x0108 [0x1B] RETURN
     0x0109 [0x62] LOAD_EVENT_SCHEDULER: Load scheduler "main" with entities [LocalPlayer, LocalPlayer], work=[1*, 0*]
     0x011A [0x1C] WAIT(45* ticks)
     0x011D [0x45] LOAD_SCHEDULED_TASK: Load scheduler "fdo1" with entities [LocalPlayer, LocalPlayer], work=[200*, 0*]
     0x012E [0x55] WAIT_LOAD_SCHEDULER: Wait for scheduler "fdo1" with entities [LocalPlayer, LocalPlayer], work=200*
     0x013D [0x1B] RETURN
     0x013E [0x45] LOAD_SCHEDULED_TASK: Load scheduler "fdi1" with entities [LocalPlayer, LocalPlayer], work=[200*, 0*]
     0x014F [0x62] LOAD_EVENT_SCHEDULER: Load scheduler "main" with entities [LocalPlayer, LocalPlayer], work=[2*, 0*]
     0x0160 [0x1C] WAIT(30* ticks)
     0x0163 [0x55] WAIT_LOAD_SCHEDULER: Wait for scheduler "fdi1" with entities [LocalPlayer, LocalPlayer], work=200*
     0x0172 [0x1B] RETURN
     0x0173 [0x45] LOAD_SCHEDULED_TASK: Load scheduler "blon" with entities [LocalPlayer, LocalPlayer], work=[200*, 0*]
     0x0184 [0x45] LOAD_SCHEDULED_TASK: Load scheduler "blon" with entities [LocalPlayer, LocalPlayer], work=[201*, 0*]
     0x0195 [0x1B] RETURN
     0x0196 [0x45] LOAD_SCHEDULED_TASK: Load scheduler "whi0" with entities [LocalPlayer, LocalPlayer], work=[201*, 0*]
     0x01A7 [0x55] WAIT_LOAD_SCHEDULER: Wait for scheduler "whi0" with entities [LocalPlayer, LocalPlayer], work=201*
     0x01B6 [0x1B] RETURN
     0x01B7 [0x45] LOAD_SCHEDULED_TASK: Load scheduler "who0" with entities [LocalPlayer, LocalPlayer], work=[201*, 0*]
     0x01C8 [0x55] WAIT_LOAD_SCHEDULER: Wait for scheduler "who0" with entities [LocalPlayer, LocalPlayer], work=201*
     0x01D7 [0x1B] RETURN
     0x01D8 [0x45] LOAD_SCHEDULED_TASK: Load scheduler "efon" with entities [LocalPlayer, LocalPlayer], work=[215*, 0*]
     0x01E9 [0x55] WAIT_LOAD_SCHEDULER: Wait for scheduler "efon" with entities [LocalPlayer, LocalPlayer], work=215*
     0x01F8 [0x1B] RETURN
     0x01F9 [0x45] LOAD_SCHEDULED_TASK: Load scheduler "fdis" with entities [LocalPlayer, LocalPlayer], work=[200*, 0*]
     0x020A [0x1B] RETURN
     0x020B [0x45] LOAD_SCHEDULED_TASK: Load scheduler "fdos" with entities [LocalPlayer, LocalPlayer], work=[200*, 0*]
     0x021C [0x55] WAIT_LOAD_SCHEDULER: Wait for scheduler "fdos" with entities [LocalPlayer, LocalPlayer], work=200*
     0x022B [0x1B] RETURN
     0x022C [0x45] LOAD_SCHEDULED_TASK: Load scheduler "fdif" with entities [LocalPlayer, LocalPlayer], work=[200*, 0*]
     0x023D [0x1B] RETURN
     0x023E [0x45] LOAD_SCHEDULED_TASK: Load scheduler "fdof" with entities [LocalPlayer, LocalPlayer], work=[200*, 0*]
     0x024F [0x55] WAIT_LOAD_SCHEDULER: Wait for scheduler "fdof" with entities [LocalPlayer, LocalPlayer], work=200*
     0x025E [0x1B] RETURN
     0x025F [0x45] LOAD_SCHEDULED_TASK: Load scheduler "fdip" with entities [LocalPlayer, LocalPlayer], work=[200*, 0*]
     0x0270 [0x1B] RETURN
     0x0271 [0x45] LOAD_SCHEDULED_TASK: Load scheduler "fdop" with entities [LocalPlayer, LocalPlayer], work=[200*, 0*]
     0x0282 [0x55] WAIT_LOAD_SCHEDULER: Wait for scheduler "fdop" with entities [LocalPlayer, LocalPlayer], work=200*
     0x0291 [0x1B] RETURN
```

### Event 441

#### Metadata

| Field        | Value      |
|--------------|------------|
| Entrypoint   | 0x0292     |
| Data Size    | 4596 bytes |
| Instructions | 597        |

```
      00 01 02 03 04 05 06 07  08 09 0A 0B 0C 0D 0E 0F
      -- -- -- -- -- -- -- --  -- -- -- -- -- -- -- --
0290:       03 01 00 01 80 42  1A 64 00 46 01 38 08 80    .....B.d.F.8..
02A0: 5D 01 80 09 80 02 09 10  01 80 01 B3 02 75 00 0A  ]............u..
02B0: 80 75 01 2F 00 7D 20 0F  01 4E 00 7D 20 0F 01 92  .u./.} ..N.} ...
02C0: 01 13 20 0F 01 92 01 19  20 0F 01 92 01 1A 20 0F  .. ..... ..... .
02D0: 01 92 01 15 20 0F 01 92  01 7D 20 0F 01 92 01 14  .... ....} .....
02E0: 20 0F 01 94 01 13 20 0F  01 94 01 19 20 0F 01 94   ..... ..... ...
02F0: 01 1A 20 0F 01 94 01 15  20 0F 01 94 01 7D 20 0F  .. ..... ....} .
0300: 01 94 01 14 20 0F 01 94  01 F0 FF FF 7F BA 1A 20  .... .......... 
0310: 0F 01 0B 80 0C 80 0D 80  0E 80 BA 19 20 0F 01 0F  ............ ...
0320: 80 10 80 11 80 12 80 BA  13 20 0F 01 13 80 14 80  ......... ......
0330: 01 80 15 80 BA 7D 20 0F  01 16 80 17 80 01 80 18  .....} .........
0340: 80 29 08 47 20 0F 01 1B  29 08 F0 FF FF 7F 17 1C  .).G ...).......
0350: 19 80 02 09 10 1A 80 00  6A 03 BA F0 FF FF 7F 1B  ........j.......
0360: 80 1C 80 01 80 1D 80 01  8F 03 02 09 10 1E 80 00  ................
0370: 82 03 BA F0 FF FF 7F 1B  80 1C 80 01 80 1D 80 01  ................
0380: 8F 03 BA F0 FF FF 7F 1F  80 20 80 21 80 22 80 80  ......... .!."..
0390: 13 20 0F 01 80 19 20 0F  01 80 1A 20 0F 01 80 15  . .... .... ....
03A0: 20 0F 01 80 14 20 0F 01  80 7D 20 0F 01 80 F0 FF   .... ...} .....
03B0: FF 7F 79 00 F0 FF FF 7F  13 20 0F 01 4A 19 20 0F  ..y...... ..J. .
03C0: 01 13 20 0F 01 4A 1A 20  0F 01 13 20 0F 01 4A 15  .. ..J. ... ..J.
03D0: 20 0F 01 7D 20 0F 01 02  09 10 1A 80 00 EB 03 4A   ..} ..........J
03E0: F0 FF FF 7F 13 20 0F 01  01 06 04 02 09 10 1E 80  ..... ..........
03F0: 00 FF 03 4A F0 FF FF 7F  13 20 0F 01 01 06 04 4B  ...J..... .....K
0400: F0 FF FF 7F 23 80 4A 13  20 0F 01 7D 20 0F 01 4A  ....#.J. ..} ..J
0410: 7D 20 0F 01 13 20 0F 01  6F 76 13 20 0F 01 6F 76  } ... ..ov. ..ov
0420: 7D 20 0F 01 6F 76 F0 FF  FF 7F 6F 76 19 20 0F 01  } ..ov....ov. ..
0430: 6F 76 1A 20 0F 01 6F 76  15 20 0F 01 79 00 F0 FF  ov. ..ov. ..y...
0440: FF 7F 13 20 0F 01 5C 00  24 80 5C 01 24 80 9A 5D  ... ..\.$.\.$..]
0450: 25 80 03 80 02 09 10 1A  80 00 70 04 45 26 80 F8  %.........p.E&..
0460: FF FF 7F F8 FF FF 7F 73  30 33 39 01 80 01 9D 04  .......s039.....
0470: 02 09 10 1E 80 00 8C 04  45 26 80 F8 FF FF 7F F8  ........E&......
0480: FF FF 7F 73 30 33 39 01  80 01 9D 04 45 26 80 F8  ...s039.....E&..
0490: FF FF 7F F8 FF FF 7F 73  30 30 30 01 80 1A 43 00  .......s000...C.
04A0: 29 08 13 20 0F 01 24 1C  27 80 79 00 F0 FF FF 7F  ).. ..$.'.y.....
04B0: 7D 20 0F 01 1C 06 80 1C  06 80 2B 7D 20 0F 01 28  } ........+} ..(
04C0: 80 1C 06 80 02 09 10 1A  80 00 CF 04 01 FA 04 02  ................
04D0: 09 10 1E 80 00 DA 04 01  FA 04 52 26 80 F8 FF FF  ..........R&....
04E0: 7F F8 FF FF 7F 73 30 30  30 45 26 80 F8 FF FF 7F  .....s000E&.....
04F0: F8 FF FF 7F 73 30 30 31  01 80 23 29 08 13 20 0F  ....s001..#).. .
0500: 01 25 1C 06 80 29 08 13  20 0F 01 07 29 08 13 20  .%...).. ...).. 
0510: 0F 01 08 02 09 10 1A 80  00 2D 05 52 26 80 F8 FF  .........-.R&...
0520: FF 7F F8 FF FF 7F 73 30  33 39 01 56 05 02 09 10  ......s039.V....
0530: 1E 80 00 47 05 52 26 80  F8 FF FF 7F F8 FF FF 7F  ...G.R&.........
0540: 73 30 33 39 01 56 05 52  26 80 F8 FF FF 7F F8 FF  s039.V.R&.......
0550: FF 7F 73 30 30 31 45 26  80 F8 FF FF 7F F8 FF FF  ..s001E&........
0560: 7F 73 30 30 32 01 80 79  00 F0 FF FF 7F 13 20 0F  .s002..y...... .
0570: 01 29 08 13 20 0F 01 20  2B 13 20 0F 01 29 80 23  .).. .. +. ..).#
0580: 2B 13 20 0F 01 2A 80 23  29 08 13 20 0F 01 21 52  +. ..*.#).. ..!R
0590: 26 80 F8 FF FF 7F F8 FF  FF 7F 73 30 30 32 45 26  &.........s002E&
05A0: 80 F8 FF FF 7F F8 FF FF  7F 73 30 30 33 01 80 2B  .........s003..+
05B0: 13 20 0F 01 2B 80 23 29  08 13 20 0F 01 18 52 26  . ..+.#).. ...R&
05C0: 80 F8 FF FF 7F F8 FF FF  7F 73 30 30 33 45 26 80  .........s003E&.
05D0: F8 FF FF 7F F8 FF FF 7F  73 30 30 34 01 80 29 08  ........s004..).
05E0: 19 20 0F 01 06 29 08 1A  20 0F 01 11 2B 13 20 0F  . ...).. ...+. .
05F0: 01 2C 80 23 52 26 80 F8  FF FF 7F F8 FF FF 7F 73  .,.#R&.........s
0600: 30 30 33 45 26 80 F8 FF  FF 7F F8 FF FF 7F 73 30  003E&.........s0
0610: 30 35 01 80 29 08 19 20  0F 01 07 29 08 1A 20 0F  05..).. ...).. .
0620: 01 12 1C 06 80 79 00 F0  FF FF 7F 7D 20 0F 01 29  .....y.....} ..)
0630: 08 7D 20 0F 01 09 2B 7D  20 0F 01 2D 80 23 29 08  .} ...+} ..-.#).
0640: 7D 20 0F 01 0A 29 08 13  20 0F 01 19 52 26 80 F8  } ...).. ...R&..
0650: FF FF 7F F8 FF FF 7F 73  30 30 35 45 26 80 F8 FF  .......s005E&...
0660: FF 7F F8 FF FF 7F 73 30  30 36 01 80 79 00 F0 FF  ......s006..y...
0670: FF 7F 13 20 0F 01 29 08  13 20 0F 01 20 2B 13 20  ... ..).. .. +. 
0680: 0F 01 2E 80 23 52 26 80  F8 FF FF 7F F8 FF FF 7F  ....#R&.........
0690: 73 30 30 36 02 09 10 1A  80 00 B0 06 45 26 80 F8  s006........E&..
06A0: FF FF 7F F8 FF FF 7F 73  30 34 31 01 80 01 DD 06  .......s041.....
06B0: 02 09 10 1E 80 00 CC 06  45 26 80 F8 FF FF 7F F8  ........E&......
06C0: FF FF 7F 73 30 34 31 01  80 01 DD 06 45 26 80 F8  ...s041.....E&..
06D0: FF FF 7F F8 FF FF 7F 73  30 30 39 01 80 29 08 7D  .......s009..).}
06E0: 20 0F 01 11 29 08 7D 20  0F 01 12 79 00 7D 20 0F   ...).} ...y.} .
06F0: 01 F0 FF FF 7F 02 09 10  1A 80 00 00 07 01 1A 07  ................
0700: 02 09 10 1E 80 00 0B 07  01 1A 07 52 26 80 F8 FF  ...........R&...
0710: FF 7F F8 FF FF 7F 73 30  30 39 02 09 10 1A 80 00  ......s009......
0720: 25 07 01 5D 07 02 09 10  1E 80 00 30 07 01 5D 07  %..].......0..].
0730: 02 09 10 2F 80 00 4C 07  45 26 80 F8 FF FF 7F F8  .../..L.E&......
0740: FF FF 7F 73 30 33 30 01  80 01 5D 07 45 26 80 F8  ...s030...].E&..
0750: FF FF 7F F8 FF FF 7F 73  30 30 37 01 80 4A 7D 20  .......s007..J} 
0760: 0F 01 F0 FF FF 7F 6F 76  7D 20 0F 01 79 00 F0 FF  ......ov} ..y...
0770: FF 7F 7D 20 0F 01 1C 06  80 2B 7D 20 0F 01 30 80  ..} .....+} ..0.
0780: 23 29 08 7D 20 0F 01 03  2B 7D 20 0F 01 31 80 23  #).} ...+} ..1.#
0790: 29 08 7D 20 0F 01 04 02  09 10 1A 80 00 B1 07 52  ).} ...........R
07A0: 26 80 F8 FF FF 7F F8 FF  FF 7F 73 30 34 31 01 F4  &.........s041..
07B0: 07 02 09 10 1E 80 00 CB  07 52 26 80 F8 FF FF 7F  .........R&.....
07C0: F8 FF FF 7F 73 30 34 31  01 F4 07 02 09 10 2F 80  ....s041....../.
07D0: 00 E5 07 52 26 80 F8 FF  FF 7F F8 FF FF 7F 73 30  ...R&.........s0
07E0: 33 30 01 F4 07 52 26 80  F8 FF FF 7F F8 FF FF 7F  30...R&.........
07F0: 73 30 30 37 02 09 10 1A  80 00 10 08 45 26 80 F8  s007........E&..
0800: FF FF 7F F8 FF FF 7F 73  30 33 36 01 80 01 3D 08  .......s036...=.
0810: 02 09 10 1E 80 00 2C 08  45 26 80 F8 FF FF 7F F8  ......,.E&......
0820: FF FF 7F 73 30 33 36 01  80 01 3D 08 45 26 80 F8  ...s036...=.E&..
0830: FF FF 7F F8 FF FF 7F 73  30 31 30 01 80 29 08 13  .......s010..)..
0840: 20 0F 01 21 1C 05 80 4A  F0 FF FF 7F 7D 20 0F 01   ..!...J....} ..
0850: 29 08 7D 20 0F 01 09 2B  7D 20 0F 01 32 80 23 29  ).} ...+} ..2.#)
0860: 08 7D 20 0F 01 0A 6F 76  F0 FF FF 7F 03 02 00 01  .} ...ov........
0870: 80 24 33 80 02 00 01 80  25 02 00 10 01 80 00 99  .$3.....%.......
0880: 09 02 01 00 01 80 00 15  09 02 09 10 1A 80 00 A3  ................
0890: 08 52 26 80 F8 FF FF 7F  F8 FF FF 7F 73 30 33 36  .R&.........s036
08A0: 01 CC 08 02 09 10 1E 80  00 BD 08 52 26 80 F8 FF  ...........R&...
08B0: FF 7F F8 FF FF 7F 73 30  33 36 01 CC 08 52 26 80  ......s036...R&.
08C0: F8 FF FF 7F F8 FF FF 7F  73 30 31 30 02 09 10 1A  ........s010....
08D0: 80 00 E8 08 45 26 80 F8  FF FF 7F F8 FF FF 7F 73  ....E&.........s
08E0: 30 33 35 01 80 01 15 09  02 09 10 1E 80 00 04 09  035.............
08F0: 45 26 80 F8 FF FF 7F F8  FF FF 7F 73 30 33 35 01  E&.........s035.
0900: 80 01 15 09 45 26 80 F8  FF FF 7F F8 FF FF 7F 73  ....E&.........s
0910: 30 31 31 01 80 79 00 F0  FF FF 7F 7D 20 0F 01 6E  011..y.....} ..n
0920: F0 FF FF 7F 34 80 99 F0  FF FF 7F 1C 06 80 29 08  ....4.........).
0930: 15 20 0F 01 03 29 08 7D  20 0F 01 0D 2B 7D 20 0F  . ...).} ...+} .
0940: 01 35 80 23 2B 7D 20 0F  01 36 80 23 29 08 7D 20  .5.#+} ..6.#).} 
0950: 0F 01 0E 02 09 10 1A 80  00 6D 09 52 26 80 F8 FF  .........m.R&...
0960: FF 7F F8 FF FF 7F 73 30  33 35 01 96 09 02 09 10  ......s035......
0970: 1E 80 00 87 09 52 26 80  F8 FF FF 7F F8 FF FF 7F  .....R&.........
0980: 73 30 33 35 01 96 09 52  26 80 F8 FF FF 7F F8 FF  s035...R&.......
0990: FF 7F 73 30 31 31 01 F2  0D 02 00 10 03 80 00 F3  ..s011..........
09A0: 0C 02 01 00 01 80 00 35  0A 02 09 10 1A 80 00 C3  .......5........
09B0: 09 52 26 80 F8 FF FF 7F  F8 FF FF 7F 73 30 33 36  .R&.........s036
09C0: 01 EC 09 02 09 10 1E 80  00 DD 09 52 26 80 F8 FF  ...........R&...
09D0: FF 7F F8 FF FF 7F 73 30  33 36 01 EC 09 52 26 80  ......s036...R&.
09E0: F8 FF FF 7F F8 FF FF 7F  73 30 31 30 02 09 10 1A  ........s010....
09F0: 80 00 08 0A 45 26 80 F8  FF FF 7F F8 FF FF 7F 73  ....E&.........s
0A00: 30 33 34 01 80 01 35 0A  02 09 10 1E 80 00 24 0A  034...5.......$.
0A10: 45 26 80 F8 FF FF 7F F8  FF FF 7F 73 30 33 34 01  E&.........s034.
0A20: 80 01 35 0A 45 26 80 F8  FF FF 7F F8 FF FF 7F 73  ..5.E&.........s
0A30: 30 31 31 01 80 6E F0 FF  FF 7F 1E 80 99 F0 FF FF  011..n..........
0A40: 7F 1C 06 80 29 08 15 20  0F 01 06 29 08 7D 20 0F  ....).. ...).} .
0A50: 01 0F 29 08 7D 20 0F 01  10 29 08 15 20 0F 01 07  ..).} ...).. ...
0A60: 02 09 10 1A 80 00 7A 0A  52 26 80 F8 FF FF 7F F8  ......z.R&......
0A70: FF FF 7F 73 30 33 34 01  A3 0A 02 09 10 1E 80 00  ...s034.........
0A80: 94 0A 52 26 80 F8 FF FF  7F F8 FF FF 7F 73 30 33  ..R&.........s03
0A90: 34 01 A3 0A 52 26 80 F8  FF FF 7F F8 FF FF 7F 73  4...R&.........s
0AA0: 30 31 31 02 09 10 1A 80  00 C9 0A 45 26 80 F8 FF  011........E&...
0AB0: FF 7F F8 FF FF 7F 73 30  33 38 01 80 79 00 F0 FF  ......s038..y...
0AC0: FF 7F 13 20 0F 01 01 00  0B 02 09 10 1E 80 00 EF  ... ............
0AD0: 0A 45 26 80 F8 FF FF 7F  F8 FF FF 7F 73 30 33 38  .E&.........s038
0AE0: 01 80 79 00 F0 FF FF 7F  13 20 0F 01 01 00 0B 45  ..y...... .....E
0AF0: 26 80 F8 FF FF 7F F8 FF  FF 7F 73 30 31 36 01 80  &.........s016..
0B00: 4A 7D 20 0F 01 13 20 0F  01 6F 76 7D 20 0F 01 2B  J} ... ..ov} ..+
0B10: 7D 20 0F 01 37 80 23 79  00 F0 FF FF 7F 13 20 0F  } ..7.#y...... .
0B20: 01 29 08 13 20 0F 01 07  2B 13 20 0F 01 38 80 23  .).. ...+. ..8.#
0B30: 29 08 13 20 0F 01 08 02  09 10 1A 80 00 51 0B 52  ).. .........Q.R
0B40: 26 80 F8 FF FF 7F F8 FF  FF 7F 73 30 33 38 01 7A  &.........s038.z
0B50: 0B 02 09 10 1E 80 00 6B  0B 52 26 80 F8 FF FF 7F  .......k.R&.....
0B60: F8 FF FF 7F 73 30 33 38  01 7A 0B 52 26 80 F8 FF  ....s038.z.R&...
0B70: FF 7F F8 FF FF 7F 73 30  31 36 02 09 10 1A 80 00  ......s016......
0B80: 96 0B 45 26 80 F8 FF FF  7F F8 FF FF 7F 73 30 33  ..E&.........s03
0B90: 37 01 80 01 DF 0B 02 09  10 1E 80 00 B2 0B 45 26  7.............E&
0BA0: 80 F8 FF FF 7F F8 FF FF  7F 73 30 33 37 01 80 01  .........s037...
0BB0: DF 0B 02 09 10 2F 80 00  CE 0B 45 26 80 F8 FF FF  ...../....E&....
0BC0: 7F F8 FF FF 7F 73 30 33  33 01 80 01 DF 0B 45 26  .....s033.....E&
0BD0: 80 F8 FF FF 7F F8 FF FF  7F 73 30 31 37 01 80 4A  .........s017..J
0BE0: 13 20 0F 01 F0 FF FF 7F  6F 76 13 20 0F 01 4A 7D  . ......ov. ..J}
0BF0: 20 0F 01 F0 FF FF 7F 29  08 13 20 0F 01 18 79 00   ......).. ...y.
0C00: F0 FF FF 7F 13 20 0F 01  2B 13 20 0F 01 39 80 23  ..... ..+. ..9.#
0C10: 2B 13 20 0F 01 3A 80 23  6F 76 7D 20 0F 01 02 09  +. ..:.#ov} ....
0C20: 10 1A 80 00 38 0C 52 26  80 F8 FF FF 7F F8 FF FF  ....8.R&........
0C30: 7F 73 30 33 37 01 7B 0C  02 09 10 1E 80 00 52 0C  .s037.{.......R.
0C40: 52 26 80 F8 FF FF 7F F8  FF FF 7F 73 30 33 37 01  R&.........s037.
0C50: 7B 0C 02 09 10 2F 80 00  6C 0C 52 26 80 F8 FF FF  {..../..l.R&....
0C60: 7F F8 FF FF 7F 73 30 33  33 01 7B 0C 52 26 80 F8  .....s033.{.R&..
0C70: FF FF 7F F8 FF FF 7F 73  30 31 37 02 09 10 1A 80  .......s017.....
0C80: 00 97 0C 45 26 80 F8 FF  FF 7F F8 FF FF 7F 73 30  ...E&.........s0
0C90: 33 34 01 80 01 C4 0C 02  09 10 1E 80 00 B3 0C 45  34.............E
0CA0: 26 80 F8 FF FF 7F F8 FF  FF 7F 73 30 33 34 01 80  &.........s034..
0CB0: 01 C4 0C 45 26 80 F8 FF  FF 7F F8 FF FF 7F 73 30  ...E&.........s0
0CC0: 31 31 01 80 79 00 F0 FF  FF 7F 7D 20 0F 01 29 08  11..y.....} ..).
0CD0: 13 20 0F 01 19 29 08 13  20 0F 01 20 29 08 13 20  . ...).. .. ).. 
0CE0: 0F 01 21 03 01 00 03 80  03 02 00 00 10 01 71 08  ..!...........q.
0CF0: 01 F2 0D 02 00 10 05 80  00 F2 0D 02 09 10 1A 80  ................
0D00: 00 15 0D 52 26 80 F8 FF  FF 7F F8 FF FF 7F 73 30  ...R&.........s0
0D10: 33 36 01 3E 0D 02 09 10  1E 80 00 2F 0D 52 26 80  36.>......./.R&.
0D20: F8 FF FF 7F F8 FF FF 7F  73 30 33 36 01 3E 0D 52  ........s036.>.R
0D30: 26 80 F8 FF FF 7F F8 FF  FF 7F 73 30 31 30 02 09  &.........s010..
0D40: 10 1A 80 00 5A 0D 45 26  80 F8 FF FF 7F F8 FF FF  ....Z.E&........
0D50: 7F 73 30 33 35 01 80 01  87 0D 02 09 10 1E 80 00  .s035...........
0D60: 76 0D 45 26 80 F8 FF FF  7F F8 FF FF 7F 73 30 33  v.E&.........s03
0D70: 35 01 80 01 87 0D 45 26  80 F8 FF FF 7F F8 FF FF  5.....E&........
0D80: 7F 73 30 31 31 01 80 29  08 F0 FF FF 7F 68 29 08  .s011..).....h).
0D90: 7D 20 0F 01 11 2B 7D 20  0F 01 3B 80 23 2B 7D 20  } ...+} ..;.#+} 
0DA0: 0F 01 3C 80 23 29 08 7D  20 0F 01 12 02 09 10 1A  ..<.#).} .......
0DB0: 80 00 C6 0D 52 26 80 F8  FF FF 7F F8 FF FF 7F 73  ....R&.........s
0DC0: 30 33 35 01 EF 0D 02 09  10 1E 80 00 E0 0D 52 26  035...........R&
0DD0: 80 F8 FF FF 7F F8 FF FF  7F 73 30 33 35 01 EF 0D  .........s035...
0DE0: 52 26 80 F8 FF FF 7F F8  FF FF 7F 73 30 31 31 01  R&.........s011.
0DF0: F2 0D 02 09 10 1A 80 00  18 0E 45 26 80 F8 FF FF  ..........E&....
0E00: 7F F8 FF FF 7F 73 30 34  32 01 80 79 00 F0 FF FF  .....s042..y....
0E10: 7F 13 20 0F 01 01 4F 0E  02 09 10 1E 80 00 3E 0E  .. ...O.......>.
0E20: 45 26 80 F8 FF FF 7F F8  FF FF 7F 73 30 34 32 01  E&.........s042.
0E30: 80 79 00 F0 FF FF 7F 13  20 0F 01 01 4F 0E 45 26  .y...... ...O.E&
0E40: 80 F8 FF FF 7F F8 FF FF  7F 73 30 31 32 01 80 79  .........s012..y
0E50: 00 F0 FF FF 7F 7D 20 0F  01 29 08 7D 20 0F 01 05  .....} ..).} ...
0E60: 2B 7D 20 0F 01 3D 80 79  00 13 20 0F 01 7D 20 0F  +} ..=.y.. ..} .
0E70: 01 1C 06 80 29 08 13 20  0F 01 22 29 08 13 20 0F  ....).. ..").. .
0E80: 01 23 29 08 13 20 0F 01  07 29 08 13 20 0F 01 08  .#).. ...).. ...
0E90: 23 29 08 7D 20 0F 01 06  29 08 7D 20 0F 01 07 29  #).} ...).} ...)
0EA0: 08 7D 20 0F 01 08 02 09  10 1A 80 00 C0 0E 52 26  .} ...........R&
0EB0: 80 F8 FF FF 7F F8 FF FF  7F 73 30 34 32 01 E9 0E  .........s042...
0EC0: 02 09 10 1E 80 00 DA 0E  52 26 80 F8 FF FF 7F F8  ........R&......
0ED0: FF FF 7F 73 30 34 32 01  E9 0E 52 26 80 F8 FF FF  ...s042...R&....
0EE0: 7F F8 FF FF 7F 73 30 31  32 02 09 10 2F 80 00 05  .....s012.../...
0EF0: 0F 45 26 80 F8 FF FF 7F  F8 FF FF 7F 73 30 33 31  .E&.........s031
0F00: 01 80 01 16 0F 45 26 80  F8 FF FF 7F F8 FF FF 7F  .....E&.........
0F10: 73 30 31 33 01 80 29 08  7D 20 0F 01 01 2B 7D 20  s013..).} ...+} 
0F20: 0F 01 3E 80 23 29 08 7D  20 0F 01 02 29 08 15 20  ..>.#).} ...).. 
0F30: 0F 01 03 7B 7D 20 0F 01  27 08 7D 20 0F 01 19 1C  ...{} ..'.} ....
0F40: 06 80 02 09 10 2F 80 00  5C 0F 52 26 80 F8 FF FF  ...../..\.R&....
0F50: 7F F8 FF FF 7F 73 30 33  31 01 6B 0F 52 26 80 F8  .....s031.k.R&..
0F60: FF FF 7F F8 FF FF 7F 73  30 31 33 45 26 80 F8 FF  .......s013E&...
0F70: FF 7F F8 FF FF 7F 73 30  31 34 01 80 4B F0 FF FF  ......s014..K...
0F80: 7F 3F 80 6F 76 F0 FF FF  7F 1C 06 80 1A 64 00 5D  .?.ov........d.]
0F90: 01 80 09 80 1C 06 80 29  08 47 20 0F 01 1A 2A 08  .......).G ...*.
0FA0: 7D 20 0F 01 52 26 80 F8  FF FF 7F F8 FF FF 7F 73  } ..R&.........s
0FB0: 30 31 34 6C 7D 20 0F 01  01 80 03 80 1C 06 80 29  014l} .........)
0FC0: 08 47 20 0F 01 1B 4A 13  20 0F 01 F0 FF FF 7F 6F  .G ...J. ......o
0FD0: 76 13 20 0F 01 7B 13 20  0F 01 29 08 13 20 0F 01  v. ..{. ..).. ..
0FE0: 03 29 08 13 20 0F 01 04  5C 00 40 80 5C 01 40 80  .).. ...\.@.\.@.
0FF0: 9A 5D 25 80 03 80 45 26  80 F8 FF FF 7F F8 FF FF  .]%...E&........
1000: 7F 73 30 31 35 01 80 1A  43 00 1C 41 80 29 08 13  .s015...C..A.)..
1010: 20 0F 01 05 29 08 13 20  0F 01 06 1C 06 80 2B 13   ...).. ......+.
1020: 20 0F 01 42 80 1C 06 80  52 26 80 F8 FF FF 7F F8   ..B....R&......
1030: FF FF 7F 73 30 31 35 45  26 80 F8 FF FF 7F F8 FF  ...s015E&.......
1040: FF 7F 73 30 31 38 01 80  79 00 F0 FF FF 7F 13 20  ..s018..y...... 
1050: 0F 01 23 52 26 80 F8 FF  FF 7F F8 FF FF 7F 73 30  ..#R&.........s0
1060: 31 38 45 26 80 F8 FF FF  7F F8 FF FF 7F 73 30 31  18E&.........s01
1070: 39 01 80 27 08 13 20 0F  01 AB 2B 13 20 0F 01 43  9..'.. ...+. ..C
1080: 80 23 2A 08 13 20 0F 01  4A F0 FF FF 7F 13 20 0F  .#*.. ..J..... .
1090: 01 6F 76 F0 FF FF 7F 29  08 13 20 0F 01 11 2B 13  .ov....).. ...+.
10A0: 20 0F 01 44 80 23 29 08  13 20 0F 01 12 52 26 80   ..D.#).. ...R&.
10B0: F8 FF FF 7F F8 FF FF 7F  73 30 31 39 45 26 80 F8  ........s019E&..
10C0: FF FF 7F F8 FF FF 7F 73  30 32 30 01 80 4B 13 20  .......s020..K. 
10D0: 0F 01 45 80 6F 76 13 20  0F 01 4A F0 FF FF 7F 13  ..E.ov. ..J.....
10E0: 20 0F 01 29 08 13 20 0F  01 0F 2B 13 20 0F 01 46   ..).. ...+. ..F
10F0: 80 23 2B 13 20 0F 01 47  80 23 29 08 13 20 0F 01  .#+. ..G.#).. ..
1100: 10 6F 76 F0 FF FF 7F 52  26 80 F8 FF FF 7F F8 FF  .ov....R&.......
1110: FF 7F 73 30 32 30 45 26  80 F8 FF FF 7F F8 FF FF  ..s020E&........
1120: 7F 73 30 32 39 01 80 7B  13 20 0F 01 29 08 13 20  .s029..{. ..).. 
1130: 0F 01 07 2B 13 20 0F 01  48 80 1C 49 80 29 08 19  ...+. ..H..I.)..
1140: 20 0F 01 06 1C 49 80 29  08 1A 20 0F 01 11 23 29   ....I.).. ...#)
1150: 08 13 20 0F 01 08 29 08  19 20 0F 01 07 29 08 1A  .. ...).. ...)..
1160: 20 0F 01 12 52 26 80 F8  FF FF 7F F8 FF FF 7F 73   ...R&.........s
1170: 30 32 39 45 26 80 F8 FF  FF 7F F8 FF FF 7F 73 30  029E&.........s0
1180: 32 31 01 80 27 08 13 20  0F 01 AC 2B 13 20 0F 01  21..'.. ...+. ..
1190: 4A 80 23 2A 08 13 20 0F  01 29 08 13 20 0F 01 24  J.#*.. ..).. ..$
11A0: 2B 13 20 0F 01 4B 80 23  29 08 13 20 0F 01 25 52  +. ..K.#).. ..%R
11B0: 26 80 F8 FF FF 7F F8 FF  FF 7F 73 30 32 31 45 26  &.........s021E&
11C0: 80 F8 FF FF 7F F8 FF FF  7F 73 30 32 32 01 80 29  .........s022..)
11D0: 08 13 20 0F 01 36 4B 13  20 0F 01 4C 80 6F 76 13  .. ..6K. ..L.ov.
11E0: 20 0F 01 2B 13 20 0F 01  4D 80 23 29 08 13 20 0F   ..+. ..M.#).. .
11F0: 01 0B 2B 13 20 0F 01 4E  80 23 52 26 80 F8 FF FF  ..+. ..N.#R&....
1200: 7F F8 FF FF 7F 73 30 32  32 45 26 80 F8 FF FF 7F  .....s022E&.....
1210: F8 FF FF 7F 73 30 32 35  01 80 27 08 13 20 0F 01  ....s025..'.. ..
1220: 0C 2B 13 20 0F 01 4F 80  23 2A 08 13 20 0F 01 52  .+. ..O.#*.. ..R
1230: 26 80 F8 FF FF 7F F8 FF  FF 7F 73 30 32 35 02 09  &.........s025..
1240: 10 2F 80 00 5A 12 45 26  80 F8 FF FF 7F F8 FF FF  ./..Z.E&........
1250: 7F 73 30 33 32 01 80 01  6B 12 45 26 80 F8 FF FF  .s032...k.E&....
1260: 7F F8 FF FF 7F 73 30 32  34 01 80 4B 13 20 0F 01  .....s024..K. ..
1270: 45 80 6F 76 13 20 0F 01  29 08 13 20 0F 01 18 2B  E.ov. ..).. ...+
1280: 13 20 0F 01 50 80 1C 49  80 6E F0 FF FF 7F 51 80  . ..P..I.n....Q.
1290: 99 F0 FF FF 7F 23 27 08  13 20 0F 01 AD 1C 1E 80  .....#'.. ......
12A0: 02 09 10 2F 80 00 BA 12  52 26 80 F8 FF FF 7F F8  .../....R&......
12B0: FF FF 7F 73 30 33 32 01  C9 12 52 26 80 F8 FF FF  ...s032...R&....
12C0: 7F F8 FF FF 7F 73 30 32  34 45 26 80 F8 FF FF 7F  .....s024E&.....
12D0: F8 FF FF 7F 73 30 32 33  01 80 29 08 13 20 0F 01  ....s023..).. ..
12E0: 19 2B 13 20 0F 01 52 80  23 2A 08 13 20 0F 01 29  .+. ..R.#*.. ..)
12F0: 08 13 20 0F 01 01 2B 13  20 0F 01 53 80 23 29 08  .. ...+. ..S.#).
1300: 13 20 0F 01 02 52 26 80  F8 FF FF 7F F8 FF FF 7F  . ...R&.........
1310: 73 30 32 33 02 09 10 1A  80 00 30 13 45 26 80 F8  s023......0.E&..
1320: FF FF 7F F8 FF FF 7F 73  30 34 30 01 80 01 5D 13  .......s040...].
1330: 02 09 10 1E 80 00 4C 13  45 26 80 F8 FF FF 7F F8  ......L.E&......
1340: FF FF 7F 73 30 34 30 01  80 01 5D 13 45 26 80 F8  ...s040...].E&..
1350: FF FF 7F F8 FF FF 7F 73  30 32 36 01 80 29 08 13  .......s026..)..
1360: 20 0F 01 03 2B 13 20 0F  01 54 80 23 2B 13 20 0F   ...+. ..T.#+. .
1370: 01 55 80 23 29 08 13 20  0F 01 04 02 09 10 1A 80  .U.#).. ........
1380: 00 95 13 52 26 80 F8 FF  FF 7F F8 FF FF 7F 73 30  ...R&.........s0
1390: 34 30 01 BE 13 02 09 10  1E 80 00 AF 13 52 26 80  40...........R&.
13A0: F8 FF FF 7F F8 FF FF 7F  73 30 34 30 01 BE 13 52  ........s040...R
13B0: 26 80 F8 FF FF 7F F8 FF  FF 7F 73 30 32 36 45 26  &.........s026E&
13C0: 80 F8 FF FF 7F F8 FF FF  7F 73 30 32 37 01 80 7B  .........s027..{
13D0: 13 20 0F 01 29 08 13 20  0F 01 05 2B 13 20 0F 01  . ..).. ...+. ..
13E0: 56 80 1C 49 80 29 08 19  20 0F 01 0C 1C 49 80 29  V..I.).. ....I.)
13F0: 08 1A 20 0F 01 13 23 29  08 19 20 0F 01 0D 29 08  .. ...#).. ...).
1400: 1A 20 0F 01 14 29 08 13  20 0F 01 06 52 26 80 F8  . ...).. ...R&..
1410: FF FF 7F F8 FF FF 7F 73  30 32 37 45 26 80 F8 FF  .......s027E&...
1420: FF 7F F8 FF FF 7F 73 30  32 38 01 80 29 08 13 20  ......s028..).. 
1430: 0F 01 0D 2B 13 20 0F 01  57 80 23 29 08 13 20 0F  ...+. ..W.#).. .
1440: 01 0E 5D 01 80 09 80 1A  64 00 1C 58 80 52 26 80  ..].....d..X.R&.
1450: F8 FF FF 7F F8 FF FF 7F  73 30 32 38 5C 00 59 80  ........s028\.Y.
1460: 5C 01 59 80 9A 5D 25 80  03 80 AB 11 01 80 1C 03  \.Y..]%.........
1470: 80 46 00 45 00 80 F8 FF  FF 7F F8 FF FF 7F 66 64  .F.E..........fd
1480: 69 32 01 80 21 00                                 i2..!.          
```

#### Opcodes

```
  0: 0x0292 [0x03] ExtData[1]->WorkLocal[1] = 0*
  1: 0x0297 [0x42] SET_CLI_EVENT_CANCEL_DATA()
  2: 0x0298 [0x1A] CALL_SUBROUTINE(address=0x0064)
  3: 0x029B [0x46] CAMERA_CONTROL: Disable user control
  4: 0x029D [0x38] SET_CLIENT_EVENT_MODE(mode=147*)
  5: 0x02A0 [0x5D] SET_MUSIC_VOLUME(volume=0*, fade_time=300*)
  6: 0x02A5 [0x02] IF !(Work_Zone[9] == 0*) GOTO 0x02B3
  7: 0x02AD [0x75] LOAD_ROOM(Load indoor room, room=426*)
  8: 0x02B1 [0x75] LOAD_ROOM(No action)
  9: 0x02B3 [0x2F] Shantotto (ID: 17768573/0x010F207D)->Render.Flags0 &= ~0x80000 // Bit 19
 10: 0x02B9 [0x4E] SET_ENTITY_HIDE_FLAG: Show Shantotto (ID: 17768573/0x010F207D)
 11: 0x02BF [0x92] Kupipi (ID: 17768467/0x010F2013)->Render.Flags3 ^= 0x01
 12: 0x02C5 [0x92] Gamimi (ID: 17768473/0x010F2019)->Render.Flags3 ^= 0x01
 13: 0x02CB [0x92] Rakano-Marukano (ID: 17768474/0x010F201A)->Render.Flags3 ^= 0x01
 14: 0x02D1 [0x92] Urubero-Mohbero (ID: 17768469/0x010F2015)->Render.Flags3 ^= 0x01
 15: 0x02D7 [0x92] Shantotto (ID: 17768573/0x010F207D)->Render.Flags3 ^= 0x01
 16: 0x02DD [0x92] Tayaya (ID: 17768468/0x010F2014)->Render.Flags3 ^= 0x01
 17: 0x02E3 [0x94] Kupipi (ID: 17768467/0x010F2013)->Render.Flags3 ^= 0x01
 18: 0x02E9 [0x94] Gamimi (ID: 17768473/0x010F2019)->Render.Flags3 ^= 0x01
 19: 0x02EF [0x94] Rakano-Marukano (ID: 17768474/0x010F201A)->Render.Flags3 ^= 0x01
 20: 0x02F5 [0x94] Urubero-Mohbero (ID: 17768469/0x010F2015)->Render.Flags3 ^= 0x01
 21: 0x02FB [0x94] Shantotto (ID: 17768573/0x010F207D)->Render.Flags3 ^= 0x01
 22: 0x0301 [0x94] Tayaya (ID: 17768468/0x010F2014)->Render.Flags3 ^= 0x01
 23: 0x0307 [0x94] LocalPlayer->Render.Flags3 ^= 0x01
 24: 0x030D [0xBA] SET_ENTITY_POSITION(entity_id=Rakano-Marukano (ID: 17768474/0x010F201A), pos_x=8.640*, pos_z=31.989*, pos_y=0.249*, direction=150.1*)
 25: 0x031A [0xBA] SET_ENTITY_POSITION(entity_id=Gamimi (ID: 17768473/0x010F2019), pos_x=7.980*, pos_z=32.863*, pos_y=-0.010*, direction=127.3*)
 26: 0x0327 [0xBA] SET_ENTITY_POSITION(entity_id=Kupipi (ID: 17768467/0x010F2013), pos_x=2.830*, pos_z=32.643*, pos_y=0.000*, direction=96.5*)
 27: 0x0334 [0xBA] SET_ENTITY_POSITION(entity_id=Shantotto (ID: 17768573/0x010F207D), pos_x=1.958*, pos_z=30.263*, pos_y=0.000*, direction=287.8*)
 28: 0x0341 [0x29] REQ_SET_WAIT(priority=0x08, entity_id=Door:Clerical Chamber (ID: 17768519/0x010F2047), tag_num=0x1B)
 29: 0x0348 [0x29] REQ_SET_WAIT(priority=0x08, entity_id=LocalPlayer, tag_num=0x17)
 30: 0x034F [0x1C] WAIT(3* ticks)
 31: 0x0352 [0x02] IF !(Work_Zone[9] == 5*) GOTO 0x036A
 32: 0x035A [0xBA] SET_ENTITY_POSITION(entity_id=LocalPlayer, pos_x=3.337*, pos_z=30.254*, pos_y=0.000*, direction=256.5*)
 33: 0x0367 [0x01] GOTO 0x038F
 34: 0x036A [0x02] IF !(Work_Zone[9] == 6*) GOTO 0x0382
 35: 0x0372 [0xBA] SET_ENTITY_POSITION(entity_id=LocalPlayer, pos_x=3.337*, pos_z=30.254*, pos_y=0.000*, direction=256.5*)
 36: 0x037F [0x01] GOTO 0x038F
 37: 0x0382 [0xBA] SET_ENTITY_POSITION(entity_id=LocalPlayer, pos_x=3.290*, pos_z=28.460*, pos_y=0.499*, direction=257.7*)

SUBROUTINE_038F:
 38: 0x038F [0x80] LOAD_WAIT(entity=Kupipi (ID: 17768467/0x010F2013))
 39: 0x0394 [0x80] LOAD_WAIT(entity=Gamimi (ID: 17768473/0x010F2019))
 40: 0x0399 [0x80] LOAD_WAIT(entity=Rakano-Marukano (ID: 17768474/0x010F201A))
 41: 0x039E [0x80] LOAD_WAIT(entity=Urubero-Mohbero (ID: 17768469/0x010F2015))
 42: 0x03A3 [0x80] LOAD_WAIT(entity=Tayaya (ID: 17768468/0x010F2014))
 43: 0x03A8 [0x80] LOAD_WAIT(entity=Shantotto (ID: 17768573/0x010F207D))
 44: 0x03AD [0x80] LOAD_WAIT(entity=LocalPlayer)
 45: 0x03B2 [0x79] LocalPlayer looks at Kupipi (ID: 17768467/0x010F2013) (Basic look)
 46: 0x03BC [0x4A] Gamimi (ID: 17768473/0x010F2019) looks at Kupipi (ID: 17768467/0x010F2013)
 47: 0x03C5 [0x4A] Rakano-Marukano (ID: 17768474/0x010F201A) looks at Kupipi (ID: 17768467/0x010F2013)
 48: 0x03CE [0x4A] Urubero-Mohbero (ID: 17768469/0x010F2015) looks at Shantotto (ID: 17768573/0x010F207D)
 49: 0x03D7 [0x02] IF !(Work_Zone[9] == 5*) GOTO 0x03EB
 50: 0x03DF [0x4A] LocalPlayer looks at Kupipi (ID: 17768467/0x010F2013)
 51: 0x03E8 [0x01] GOTO 0x0406
 52: 0x03EB [0x02] IF !(Work_Zone[9] == 6*) GOTO 0x03FF
 53: 0x03F3 [0x4A] LocalPlayer looks at Kupipi (ID: 17768467/0x010F2013)
 54: 0x03FC [0x01] GOTO 0x0406
 55: 0x03FF [0x4B] UPDATE_ENTITY_YAW(entity=LocalPlayer, yaw=16.7*)

SUBROUTINE_0406:
 56: 0x0406 [0x4A] Kupipi (ID: 17768467/0x010F2013) looks at Shantotto (ID: 17768573/0x010F207D)
 57: 0x040F [0x4A] Shantotto (ID: 17768573/0x010F207D) looks at Kupipi (ID: 17768467/0x010F2013)
 58: 0x0418 [0x6F] WAIT_FRAME_DELAY: Yield until WaitTime reaches zero
 59: 0x0419 [0x76] CHECK_ENTITY_RENDER_FLAGS: Wait until Kupipi (ID: 17768467/0x010F2013) Render.Flags0 and Render.Flags3 conditions are met
 60: 0x041E [0x6F] WAIT_FRAME_DELAY: Yield until WaitTime reaches zero
 61: 0x041F [0x76] CHECK_ENTITY_RENDER_FLAGS: Wait until Shantotto (ID: 17768573/0x010F207D) Render.Flags0 and Render.Flags3 conditions are met
 62: 0x0424 [0x6F] WAIT_FRAME_DELAY: Yield until WaitTime reaches zero
 63: 0x0425 [0x76] CHECK_ENTITY_RENDER_FLAGS: Wait until LocalPlayer Render.Flags0 and Render.Flags3 conditions are met
 64: 0x042A [0x6F] WAIT_FRAME_DELAY: Yield until WaitTime reaches zero
 65: 0x042B [0x76] CHECK_ENTITY_RENDER_FLAGS: Wait until Gamimi (ID: 17768473/0x010F2019) Render.Flags0 and Render.Flags3 conditions are met
 66: 0x0430 [0x6F] WAIT_FRAME_DELAY: Yield until WaitTime reaches zero
 67: 0x0431 [0x76] CHECK_ENTITY_RENDER_FLAGS: Wait until Rakano-Marukano (ID: 17768474/0x010F201A) Render.Flags0 and Render.Flags3 conditions are met
 68: 0x0436 [0x6F] WAIT_FRAME_DELAY: Yield until WaitTime reaches zero
 69: 0x0437 [0x76] CHECK_ENTITY_RENDER_FLAGS: Wait until Urubero-Mohbero (ID: 17768469/0x010F2015) Render.Flags0 and Render.Flags3 conditions are met
 70: 0x043C [0x79] LocalPlayer looks at Kupipi (ID: 17768467/0x010F2013) (Basic look)
 71: 0x0446 [0x5C] MUSIC_CONTROL: Set Idle (Day) music to song 161*
 72: 0x044A [0x5C] MUSIC_CONTROL: Set Idle (Night) music to song 161*
 73: 0x044E [0x9A] WAIT_MUSIC_SERVER()
 74: 0x044F [0x5D] SET_MUSIC_VOLUME(volume=127*, fade_time=1*)
 75: 0x0454 [0x02] IF !(Work_Zone[9] == 5*) GOTO 0x0470
 76: 0x045C [0x45] LOAD_SCHEDULED_TASK: Load scheduler "s039" with entities [EventEntity, EventEntity], work=[834*, 0*]
 77: 0x046D [0x01] GOTO 0x049D
 78: 0x0470 [0x02] IF !(Work_Zone[9] == 6*) GOTO 0x048C
 79: 0x0478 [0x45] LOAD_SCHEDULED_TASK: Load scheduler "s039" with entities [EventEntity, EventEntity], work=[834*, 0*]
 80: 0x0489 [0x01] GOTO 0x049D
 81: 0x048C [0x45] LOAD_SCHEDULED_TASK: Load scheduler "s000" with entities [EventEntity, EventEntity], work=[834*, 0*]

SUBROUTINE_049D:
 82: 0x049D [0x1A] CALL_SUBROUTINE(address=0x0043)
 83: 0x04A0 [0x29] REQ_SET_WAIT(priority=0x08, entity_id=Kupipi (ID: 17768467/0x010F2013), tag_num=0x24)
 84: 0x04A7 [0x1C] WAIT(20* ticks)
 85: 0x04AA [0x79] LocalPlayer looks at Shantotto (ID: 17768573/0x010F207D) (Basic look)
 86: 0x04B4 [0x1C] WAIT(30* ticks)
 87: 0x04B7 [0x1C] WAIT(30* ticks)
 88: 0x04BA [0x2B] Shantotto (ID: 17768573/0x010F207D) [9326*]:
     "My dearest Kupipi, a word, if you will. You will explain this to me until I've had my fill."
 89: 0x04C1 [0x1C] WAIT(30* ticks)
 90: 0x04C4 [0x02] IF !(Work_Zone[9] == 5*) GOTO 0x04CF
 91: 0x04CC [0x01] GOTO 0x04FA
 92: 0x04CF [0x02] IF !(Work_Zone[9] == 6*) GOTO 0x04DA
 93: 0x04D7 [0x01] GOTO 0x04FA
 94: 0x04DA [0x52] END_LOAD_SCHEDULER: End scheduler "s000" with entities [EventEntity, EventEntity], work=834*
 95: 0x04E9 [0x45] LOAD_SCHEDULED_TASK: Load scheduler "s001" with entities [EventEntity, EventEntity], work=[834*, 0*]

SUBROUTINE_04FA:
 96: 0x04FA [0x23] WAIT_FOR_DIALOG_INTERACTION
 97: 0x04FB [0x29] REQ_SET_WAIT(priority=0x08, entity_id=Kupipi (ID: 17768467/0x010F2013), tag_num=0x25)
 98: 0x0502 [0x1C] WAIT(30* ticks)
 99: 0x0505 [0x29] REQ_SET_WAIT(priority=0x08, entity_id=Kupipi (ID: 17768467/0x010F2013), tag_num=0x07)
100: 0x050C [0x29] REQ_SET_WAIT(priority=0x08, entity_id=Kupipi (ID: 17768467/0x010F2013), tag_num=0x08)
101: 0x0513 [0x02] IF !(Work_Zone[9] == 5*) GOTO 0x052D
102: 0x051B [0x52] END_LOAD_SCHEDULER: End scheduler "s039" with entities [EventEntity, EventEntity], work=834*
103: 0x052A [0x01] GOTO 0x0556
104: 0x052D [0x02] IF !(Work_Zone[9] == 6*) GOTO 0x0547
105: 0x0535 [0x52] END_LOAD_SCHEDULER: End scheduler "s039" with entities [EventEntity, EventEntity], work=834*
106: 0x0544 [0x01] GOTO 0x0556
107: 0x0547 [0x52] END_LOAD_SCHEDULER: End scheduler "s001" with entities [EventEntity, EventEntity], work=834*

SUBROUTINE_0556:
108: 0x0556 [0x45] LOAD_SCHEDULED_TASK: Load scheduler "s002" with entities [EventEntity, EventEntity], work=[834*, 0*]
109: 0x0567 [0x79] LocalPlayer looks at Kupipi (ID: 17768467/0x010F2013) (Basic look)
110: 0x0571 [0x29] REQ_SET_WAIT(priority=0x08, entity_id=Kupipi (ID: 17768467/0x010F2013), tag_num=0x20)
111: 0x0578 [0x2B] Kupipi (ID: 17768467/0x010F2013) [9327*]:
     "Sh-Sh-Shantotto, please forgi`ve me!"
112: 0x057F [0x23] WAIT_FOR_DIALOG_INTERACTION
113: 0x0580 [0x2B] Kupipi (ID: 17768467/0x010F2013) [9328*]:
     "None of this makes a`ny sense to me, either! It's a mystery most curious!"
114: 0x0587 [0x23] WAIT_FOR_DIALOG_INTERACTION
115: 0x0588 [0x29] REQ_SET_WAIT(priority=0x08, entity_id=Kupipi (ID: 17768467/0x010F2013), tag_num=0x21)
116: 0x058F [0x52] END_LOAD_SCHEDULER: End scheduler "s002" with entities [EventEntity, EventEntity], work=834*
117: 0x059E [0x45] LOAD_SCHEDULED_TASK: Load scheduler "s003" with entities [EventEntity, EventEntity], work=[834*, 0*]
118: 0x05AF [0x2B] Kupipi (ID: 17768467/0x010F2013) [9329*]:
     "I ne`ver forget the slightest detail. Why, I can even tell you the names and favorite foods of e`very adventurer who ever set foot inside these halls!"
119: 0x05B6 [0x23] WAIT_FOR_DIALOG_INTERACTION
120: 0x05B7 [0x29] REQ_SET_WAIT(priority=0x08, entity_id=Kupipi (ID: 17768467/0x010F2013), tag_num=0x18)
121: 0x05BE [0x52] END_LOAD_SCHEDULER: End scheduler "s003" with entities [EventEntity, EventEntity], work=834*
122: 0x05CD [0x45] LOAD_SCHEDULED_TASK: Load scheduler "s004" with entities [EventEntity, EventEntity], work=[834*, 0*]
123: 0x05DE [0x29] REQ_SET_WAIT(priority=0x08, entity_id=Gamimi (ID: 17768473/0x010F2019), tag_num=0x06)
124: 0x05E5 [0x29] REQ_SET_WAIT(priority=0x08, entity_id=Rakano-Marukano (ID: 17768474/0x010F201A), tag_num=0x11)
125: 0x05EC [0x2B] Kupipi (ID: 17768467/0x010F2013) [9330*]:
     "So there's absolu`tely no way that I would forget any important task with which you have entrusted me!"
126: 0x05F3 [0x23] WAIT_FOR_DIALOG_INTERACTION
127: 0x05F4 [0x52] END_LOAD_SCHEDULER: End scheduler "s003" with entities [EventEntity, EventEntity], work=834*
128: 0x0603 [0x45] LOAD_SCHEDULED_TASK: Load scheduler "s005" with entities [EventEntity, EventEntity], work=[834*, 0*]
129: 0x0614 [0x29] REQ_SET_WAIT(priority=0x08, entity_id=Gamimi (ID: 17768473/0x010F2019), tag_num=0x07)
130: 0x061B [0x29] REQ_SET_WAIT(priority=0x08, entity_id=Rakano-Marukano (ID: 17768474/0x010F201A), tag_num=0x12)
131: 0x0622 [0x1C] WAIT(30* ticks)
132: 0x0625 [0x79] LocalPlayer looks at Shantotto (ID: 17768573/0x010F207D) (Basic look)
133: 0x062F [0x29] REQ_SET_WAIT(priority=0x08, entity_id=Shantotto (ID: 17768573/0x010F207D), tag_num=0x09)
134: 0x0636 [0x2B] Shantotto (ID: 17768573/0x010F207D) [9331*]:
     "I would beg to differ with your interpretation of events. You will tell me the truth, or I'll make your repent."
135: 0x063D [0x23] WAIT_FOR_DIALOG_INTERACTION
136: 0x063E [0x29] REQ_SET_WAIT(priority=0x08, entity_id=Shantotto (ID: 17768573/0x010F207D), tag_num=0x0A)
137: 0x0645 [0x29] REQ_SET_WAIT(priority=0x08, entity_id=Kupipi (ID: 17768467/0x010F2013), tag_num=0x19)
138: 0x064C [0x52] END_LOAD_SCHEDULER: End scheduler "s005" with entities [EventEntity, EventEntity], work=834*
139: 0x065B [0x45] LOAD_SCHEDULED_TASK: Load scheduler "s006" with entities [EventEntity, EventEntity], work=[834*, 0*]
140: 0x066C [0x79] LocalPlayer looks at Kupipi (ID: 17768467/0x010F2013) (Basic look)
141: 0x0676 [0x29] REQ_SET_WAIT(priority=0x08, entity_id=Kupipi (ID: 17768467/0x010F2013), tag_num=0x20)
142: 0x067D [0x2B] Kupipi (ID: 17768467/0x010F2013) [9332*]:
     "P-p-please! A`nything but that!"
143: 0x0684 [0x23] WAIT_FOR_DIALOG_INTERACTION
144: 0x0685 [0x52] END_LOAD_SCHEDULER: End scheduler "s006" with entities [EventEntity, EventEntity], work=834*
145: 0x0694 [0x02] IF !(Work_Zone[9] == 5*) GOTO 0x06B0
146: 0x069C [0x45] LOAD_SCHEDULED_TASK: Load scheduler "s041" with entities [EventEntity, EventEntity], work=[834*, 0*]
147: 0x06AD [0x01] GOTO 0x06DD
148: 0x06B0 [0x02] IF !(Work_Zone[9] == 6*) GOTO 0x06CC
149: 0x06B8 [0x45] LOAD_SCHEDULED_TASK: Load scheduler "s041" with entities [EventEntity, EventEntity], work=[834*, 0*]
150: 0x06C9 [0x01] GOTO 0x06DD
151: 0x06CC [0x45] LOAD_SCHEDULED_TASK: Load scheduler "s009" with entities [EventEntity, EventEntity], work=[834*, 0*]

SUBROUTINE_06DD:
152: 0x06DD [0x29] REQ_SET_WAIT(priority=0x08, entity_id=Shantotto (ID: 17768573/0x010F207D), tag_num=0x11)
153: 0x06E4 [0x29] REQ_SET_WAIT(priority=0x08, entity_id=Shantotto (ID: 17768573/0x010F207D), tag_num=0x12)
154: 0x06EB [0x79] Shantotto (ID: 17768573/0x010F207D) looks at LocalPlayer (Basic look)
155: 0x06F5 [0x02] IF !(Work_Zone[9] == 5*) GOTO 0x0700
156: 0x06FD [0x01] GOTO 0x071A
157: 0x0700 [0x02] IF !(Work_Zone[9] == 6*) GOTO 0x070B
158: 0x0708 [0x01] GOTO 0x071A
159: 0x070B [0x52] END_LOAD_SCHEDULER: End scheduler "s009" with entities [EventEntity, EventEntity], work=834*

SUBROUTINE_071A:
160: 0x071A [0x02] IF !(Work_Zone[9] == 5*) GOTO 0x0725
161: 0x0722 [0x01] GOTO 0x075D
162: 0x0725 [0x02] IF !(Work_Zone[9] == 6*) GOTO 0x0730
163: 0x072D [0x01] GOTO 0x075D
164: 0x0730 [0x02] IF !(Work_Zone[9] == 8*) GOTO 0x074C
165: 0x0738 [0x45] LOAD_SCHEDULED_TASK: Load scheduler "s030" with entities [EventEntity, EventEntity], work=[834*, 0*]
166: 0x0749 [0x01] GOTO 0x075D
167: 0x074C [0x45] LOAD_SCHEDULED_TASK: Load scheduler "s007" with entities [EventEntity, EventEntity], work=[834*, 0*]

SUBROUTINE_075D:
168: 0x075D [0x4A] Shantotto (ID: 17768573/0x010F207D) looks at LocalPlayer
169: 0x0766 [0x6F] WAIT_FRAME_DELAY: Yield until WaitTime reaches zero
170: 0x0767 [0x76] CHECK_ENTITY_RENDER_FLAGS: Wait until Shantotto (ID: 17768573/0x010F207D) Render.Flags0 and Render.Flags3 conditions are met
171: 0x076C [0x79] LocalPlayer looks at Shantotto (ID: 17768573/0x010F207D) (Basic look)
172: 0x0776 [0x1C] WAIT(30* ticks)
173: 0x0779 [0x2B] Shantotto (ID: 17768573/0x010F207D) [9333*]:
     "Ah, well look who we have over here. An adventurer who can help with my task most dear."
174: 0x0780 [0x23] WAIT_FOR_DIALOG_INTERACTION
175: 0x0781 [0x29] REQ_SET_WAIT(priority=0x08, entity_id=Shantotto (ID: 17768573/0x010F207D), tag_num=0x03)
176: 0x0788 [0x2B] Shantotto (ID: 17768573/0x010F207D) [9334*]:
     "You see, adventurer, I need an objective eye. Kupipi says she can't remember--and to that, I say fie!"
177: 0x078F [0x23] WAIT_FOR_DIALOG_INTERACTION
178: 0x0790 [0x29] REQ_SET_WAIT(priority=0x08, entity_id=Shantotto (ID: 17768573/0x010F207D), tag_num=0x04)
179: 0x0797 [0x02] IF !(Work_Zone[9] == 5*) GOTO 0x07B1
180: 0x079F [0x52] END_LOAD_SCHEDULER: End scheduler "s041" with entities [EventEntity, EventEntity], work=834*
181: 0x07AE [0x01] GOTO 0x07F4
182: 0x07B1 [0x02] IF !(Work_Zone[9] == 6*) GOTO 0x07CB
183: 0x07B9 [0x52] END_LOAD_SCHEDULER: End scheduler "s041" with entities [EventEntity, EventEntity], work=834*
184: 0x07C8 [0x01] GOTO 0x07F4
185: 0x07CB [0x02] IF !(Work_Zone[9] == 8*) GOTO 0x07E5
186: 0x07D3 [0x52] END_LOAD_SCHEDULER: End scheduler "s030" with entities [EventEntity, EventEntity], work=834*
187: 0x07E2 [0x01] GOTO 0x07F4
188: 0x07E5 [0x52] END_LOAD_SCHEDULER: End scheduler "s007" with entities [EventEntity, EventEntity], work=834*

SUBROUTINE_07F4:
189: 0x07F4 [0x02] IF !(Work_Zone[9] == 5*) GOTO 0x0810
190: 0x07FC [0x45] LOAD_SCHEDULED_TASK: Load scheduler "s036" with entities [EventEntity, EventEntity], work=[834*, 0*]
191: 0x080D [0x01] GOTO 0x083D
192: 0x0810 [0x02] IF !(Work_Zone[9] == 6*) GOTO 0x082C
193: 0x0818 [0x45] LOAD_SCHEDULED_TASK: Load scheduler "s036" with entities [EventEntity, EventEntity], work=[834*, 0*]
194: 0x0829 [0x01] GOTO 0x083D
195: 0x082C [0x45] LOAD_SCHEDULED_TASK: Load scheduler "s010" with entities [EventEntity, EventEntity], work=[834*, 0*]

SUBROUTINE_083D:
196: 0x083D [0x29] REQ_SET_WAIT(priority=0x08, entity_id=Kupipi (ID: 17768467/0x010F2013), tag_num=0x21)
197: 0x0844 [0x1C] WAIT(2* ticks)
198: 0x0847 [0x4A] LocalPlayer looks at Shantotto (ID: 17768573/0x010F207D)
199: 0x0850 [0x29] REQ_SET_WAIT(priority=0x08, entity_id=Shantotto (ID: 17768573/0x010F207D), tag_num=0x09)
200: 0x0857 [0x2B] Shantotto (ID: 17768573/0x010F207D) [9335*]:
     "Something strange is afoot in our fair city. And if we don't find the source, there will be naught left to pity."
201: 0x085E [0x23] WAIT_FOR_DIALOG_INTERACTION
202: 0x085F [0x29] REQ_SET_WAIT(priority=0x08, entity_id=Shantotto (ID: 17768573/0x010F207D), tag_num=0x0A)
203: 0x0866 [0x6F] WAIT_FRAME_DELAY: Yield until WaitTime reaches zero
204: 0x0867 [0x76] CHECK_ENTITY_RENDER_FLAGS: Wait until LocalPlayer Render.Flags0 and Render.Flags3 conditions are met
205: 0x086C [0x03] ExtData[1]->WorkLocal[2] = 0*

SUBROUTINE_0871:
206: 0x0871 [0x24] CREATE_DIALOG(message_id=9336*, default_option=ExtData[1]->WorkLocal[2], option_flags=0*)
     "Get to the bottom of things? [Sure./No thanks./What's going on here?]"
207: 0x0878 [0x25] WAIT_DIALOG_SELECT()
208: 0x0879 [0x02] IF !(Work_Zone[0] == 0*) GOTO 0x0999
209: 0x0881 [0x02] IF !(ExtData[1]->WorkLocal[1] == 0*) GOTO 0x0915
210: 0x0889 [0x02] IF !(Work_Zone[9] == 5*) GOTO 0x08A3
211: 0x0891 [0x52] END_LOAD_SCHEDULER: End scheduler "s036" with entities [EventEntity, EventEntity], work=834*
212: 0x08A0 [0x01] GOTO 0x08CC
213: 0x08A3 [0x02] IF !(Work_Zone[9] == 6*) GOTO 0x08BD
214: 0x08AB [0x52] END_LOAD_SCHEDULER: End scheduler "s036" with entities [EventEntity, EventEntity], work=834*
215: 0x08BA [0x01] GOTO 0x08CC
216: 0x08BD [0x52] END_LOAD_SCHEDULER: End scheduler "s010" with entities [EventEntity, EventEntity], work=834*

SUBROUTINE_08CC:
217: 0x08CC [0x02] IF !(Work_Zone[9] == 5*) GOTO 0x08E8
218: 0x08D4 [0x45] LOAD_SCHEDULED_TASK: Load scheduler "s035" with entities [EventEntity, EventEntity], work=[834*, 0*]
219: 0x08E5 [0x01] GOTO 0x0915
220: 0x08E8 [0x02] IF !(Work_Zone[9] == 6*) GOTO 0x0904
221: 0x08F0 [0x45] LOAD_SCHEDULED_TASK: Load scheduler "s035" with entities [EventEntity, EventEntity], work=[834*, 0*]
222: 0x0901 [0x01] GOTO 0x0915
223: 0x0904 [0x45] LOAD_SCHEDULED_TASK: Load scheduler "s011" with entities [EventEntity, EventEntity], work=[834*, 0*]

SUBROUTINE_0915:
224: 0x0915 [0x79] LocalPlayer looks at Shantotto (ID: 17768573/0x010F207D) (Basic look)
225: 0x091F [0x6E] LocalPlayer uses emote 7*
226: 0x0926 [0x99] Wait for LocalPlayer animation to complete
227: 0x092B [0x1C] WAIT(30* ticks)
228: 0x092E [0x29] REQ_SET_WAIT(priority=0x08, entity_id=Urubero-Mohbero (ID: 17768469/0x010F2015), tag_num=0x03)
229: 0x0935 [0x29] REQ_SET_WAIT(priority=0x08, entity_id=Shantotto (ID: 17768573/0x010F207D), tag_num=0x0D)
230: 0x093C [0x2B] Shantotto (ID: 17768573/0x010F207D) [9337*]:
     "I am pleased for your aid. ...And we'll need it in spades."
231: 0x0943 [0x23] WAIT_FOR_DIALOG_INTERACTION
232: 0x0944 [0x2B] Shantotto (ID: 17768573/0x010F207D) [9338*]:
     "I'm sick of waiting for this outfit to be mended. If you could hurry it up, that would be splendid."
233: 0x094B [0x23] WAIT_FOR_DIALOG_INTERACTION
234: 0x094C [0x29] REQ_SET_WAIT(priority=0x08, entity_id=Shantotto (ID: 17768573/0x010F207D), tag_num=0x0E)
235: 0x0953 [0x02] IF !(Work_Zone[9] == 5*) GOTO 0x096D
236: 0x095B [0x52] END_LOAD_SCHEDULER: End scheduler "s035" with entities [EventEntity, EventEntity], work=834*
237: 0x096A [0x01] GOTO 0x0996
238: 0x096D [0x02] IF !(Work_Zone[9] == 6*) GOTO 0x0987
239: 0x0975 [0x52] END_LOAD_SCHEDULER: End scheduler "s035" with entities [EventEntity, EventEntity], work=834*
240: 0x0984 [0x01] GOTO 0x0996
241: 0x0987 [0x52] END_LOAD_SCHEDULER: End scheduler "s011" with entities [EventEntity, EventEntity], work=834*

SUBROUTINE_0996:
242: 0x0996 [0x01] GOTO 0x0DF2
243: 0x0999 [0x02] IF !(Work_Zone[0] == 1*) GOTO 0x0CF3
244: 0x09A1 [0x02] IF !(ExtData[1]->WorkLocal[1] == 0*) GOTO 0x0A35
245: 0x09A9 [0x02] IF !(Work_Zone[9] == 5*) GOTO 0x09C3
246: 0x09B1 [0x52] END_LOAD_SCHEDULER: End scheduler "s036" with entities [EventEntity, EventEntity], work=834*
247: 0x09C0 [0x01] GOTO 0x09EC
248: 0x09C3 [0x02] IF !(Work_Zone[9] == 6*) GOTO 0x09DD
249: 0x09CB [0x52] END_LOAD_SCHEDULER: End scheduler "s036" with entities [EventEntity, EventEntity], work=834*
250: 0x09DA [0x01] GOTO 0x09EC
251: 0x09DD [0x52] END_LOAD_SCHEDULER: End scheduler "s010" with entities [EventEntity, EventEntity], work=834*

SUBROUTINE_09EC:
252: 0x09EC [0x02] IF !(Work_Zone[9] == 5*) GOTO 0x0A08
253: 0x09F4 [0x45] LOAD_SCHEDULED_TASK: Load scheduler "s034" with entities [EventEntity, EventEntity], work=[834*, 0*]
254: 0x0A05 [0x01] GOTO 0x0A35
255: 0x0A08 [0x02] IF !(Work_Zone[9] == 6*) GOTO 0x0A24
256: 0x0A10 [0x45] LOAD_SCHEDULED_TASK: Load scheduler "s034" with entities [EventEntity, EventEntity], work=[834*, 0*]
257: 0x0A21 [0x01] GOTO 0x0A35
258: 0x0A24 [0x45] LOAD_SCHEDULED_TASK: Load scheduler "s011" with entities [EventEntity, EventEntity], work=[834*, 0*]

SUBROUTINE_0A35:
259: 0x0A35 [0x6E] LocalPlayer uses emote 6*
260: 0x0A3C [0x99] Wait for LocalPlayer animation to complete
261: 0x0A41 [0x1C] WAIT(30* ticks)
262: 0x0A44 [0x29] REQ_SET_WAIT(priority=0x08, entity_id=Urubero-Mohbero (ID: 17768469/0x010F2015), tag_num=0x06)
263: 0x0A4B [0x29] REQ_SET_WAIT(priority=0x08, entity_id=Shantotto (ID: 17768573/0x010F207D), tag_num=0x0F)
264: 0x0A52 [0x29] REQ_SET_WAIT(priority=0x08, entity_id=Shantotto (ID: 17768573/0x010F207D), tag_num=0x10)
265: 0x0A59 [0x29] REQ_SET_WAIT(priority=0x08, entity_id=Urubero-Mohbero (ID: 17768469/0x010F2015), tag_num=0x07)
266: 0x0A60 [0x02] IF !(Work_Zone[9] == 5*) GOTO 0x0A7A
267: 0x0A68 [0x52] END_LOAD_SCHEDULER: End scheduler "s034" with entities [EventEntity, EventEntity], work=834*
268: 0x0A77 [0x01] GOTO 0x0AA3
269: 0x0A7A [0x02] IF !(Work_Zone[9] == 6*) GOTO 0x0A94
270: 0x0A82 [0x52] END_LOAD_SCHEDULER: End scheduler "s034" with entities [EventEntity, EventEntity], work=834*
271: 0x0A91 [0x01] GOTO 0x0AA3
272: 0x0A94 [0x52] END_LOAD_SCHEDULER: End scheduler "s011" with entities [EventEntity, EventEntity], work=834*

SUBROUTINE_0AA3:
273: 0x0AA3 [0x02] IF !(Work_Zone[9] == 5*) GOTO 0x0AC9
274: 0x0AAB [0x45] LOAD_SCHEDULED_TASK: Load scheduler "s038" with entities [EventEntity, EventEntity], work=[834*, 0*]
275: 0x0ABC [0x79] LocalPlayer looks at Kupipi (ID: 17768467/0x010F2013) (Basic look)
276: 0x0AC6 [0x01] GOTO 0x0B00
277: 0x0AC9 [0x02] IF !(Work_Zone[9] == 6*) GOTO 0x0AEF
278: 0x0AD1 [0x45] LOAD_SCHEDULED_TASK: Load scheduler "s038" with entities [EventEntity, EventEntity], work=[834*, 0*]
279: 0x0AE2 [0x79] LocalPlayer looks at Kupipi (ID: 17768467/0x010F2013) (Basic look)
280: 0x0AEC [0x01] GOTO 0x0B00
281: 0x0AEF [0x45] LOAD_SCHEDULED_TASK: Load scheduler "s016" with entities [EventEntity, EventEntity], work=[834*, 0*]

SUBROUTINE_0B00:
282: 0x0B00 [0x4A] Shantotto (ID: 17768573/0x010F207D) looks at Kupipi (ID: 17768467/0x010F2013)
283: 0x0B09 [0x6F] WAIT_FRAME_DELAY: Yield until WaitTime reaches zero
284: 0x0B0A [0x76] CHECK_ENTITY_RENDER_FLAGS: Wait until Shantotto (ID: 17768573/0x010F207D) Render.Flags0 and Render.Flags3 conditions are met
285: 0x0B0F [0x2B] Shantotto (ID: 17768573/0x010F207D) [9339*]:
     "Then my judgment shall be merciless and swift. Kupipi shall be banished to the rift."
286: 0x0B16 [0x23] WAIT_FOR_DIALOG_INTERACTION
287: 0x0B17 [0x79] LocalPlayer looks at Kupipi (ID: 17768467/0x010F2013) (Basic look)
288: 0x0B21 [0x29] REQ_SET_WAIT(priority=0x08, entity_id=Kupipi (ID: 17768467/0x010F2013), tag_num=0x07)
289: 0x0B28 [0x2B] Kupipi (ID: 17768467/0x010F2013) [9340*]:
     "The r-r-rift!? Oh, no! A`nything but that!"
290: 0x0B2F [0x23] WAIT_FOR_DIALOG_INTERACTION
291: 0x0B30 [0x29] REQ_SET_WAIT(priority=0x08, entity_id=Kupipi (ID: 17768467/0x010F2013), tag_num=0x08)
292: 0x0B37 [0x02] IF !(Work_Zone[9] == 5*) GOTO 0x0B51
293: 0x0B3F [0x52] END_LOAD_SCHEDULER: End scheduler "s038" with entities [EventEntity, EventEntity], work=834*
294: 0x0B4E [0x01] GOTO 0x0B7A
295: 0x0B51 [0x02] IF !(Work_Zone[9] == 6*) GOTO 0x0B6B
296: 0x0B59 [0x52] END_LOAD_SCHEDULER: End scheduler "s038" with entities [EventEntity, EventEntity], work=834*
297: 0x0B68 [0x01] GOTO 0x0B7A
298: 0x0B6B [0x52] END_LOAD_SCHEDULER: End scheduler "s016" with entities [EventEntity, EventEntity], work=834*

SUBROUTINE_0B7A:
299: 0x0B7A [0x02] IF !(Work_Zone[9] == 5*) GOTO 0x0B96
300: 0x0B82 [0x45] LOAD_SCHEDULED_TASK: Load scheduler "s037" with entities [EventEntity, EventEntity], work=[834*, 0*]
301: 0x0B93 [0x01] GOTO 0x0BDF
302: 0x0B96 [0x02] IF !(Work_Zone[9] == 6*) GOTO 0x0BB2
303: 0x0B9E [0x45] LOAD_SCHEDULED_TASK: Load scheduler "s037" with entities [EventEntity, EventEntity], work=[834*, 0*]
304: 0x0BAF [0x01] GOTO 0x0BDF
305: 0x0BB2 [0x02] IF !(Work_Zone[9] == 8*) GOTO 0x0BCE
306: 0x0BBA [0x45] LOAD_SCHEDULED_TASK: Load scheduler "s033" with entities [EventEntity, EventEntity], work=[834*, 0*]
307: 0x0BCB [0x01] GOTO 0x0BDF
308: 0x0BCE [0x45] LOAD_SCHEDULED_TASK: Load scheduler "s017" with entities [EventEntity, EventEntity], work=[834*, 0*]

SUBROUTINE_0BDF:
309: 0x0BDF [0x4A] Kupipi (ID: 17768467/0x010F2013) looks at LocalPlayer
310: 0x0BE8 [0x6F] WAIT_FRAME_DELAY: Yield until WaitTime reaches zero
311: 0x0BE9 [0x76] CHECK_ENTITY_RENDER_FLAGS: Wait until Kupipi (ID: 17768467/0x010F2013) Render.Flags0 and Render.Flags3 conditions are met
312: 0x0BEE [0x4A] Shantotto (ID: 17768573/0x010F207D) looks at LocalPlayer
313: 0x0BF7 [0x29] REQ_SET_WAIT(priority=0x08, entity_id=Kupipi (ID: 17768467/0x010F2013), tag_num=0x18)
314: 0x0BFE [0x79] LocalPlayer looks at Kupipi (ID: 17768467/0x010F2013) (Basic look)
315: 0x0C08 [0x2B] Kupipi (ID: 17768467/0x010F2013) [9341*]:
     "You just h`ave to help me, <Player>!"
316: 0x0C0F [0x23] WAIT_FOR_DIALOG_INTERACTION
317: 0x0C10 [0x2B] Kupipi (ID: 17768467/0x010F2013) [9342*]:
     "And not just for my own sake--for the sake of e`veryone in Windurst!"
318: 0x0C17 [0x23] WAIT_FOR_DIALOG_INTERACTION
319: 0x0C18 [0x6F] WAIT_FRAME_DELAY: Yield until WaitTime reaches zero
320: 0x0C19 [0x76] CHECK_ENTITY_RENDER_FLAGS: Wait until Shantotto (ID: 17768573/0x010F207D) Render.Flags0 and Render.Flags3 conditions are met
321: 0x0C1E [0x02] IF !(Work_Zone[9] == 5*) GOTO 0x0C38
322: 0x0C26 [0x52] END_LOAD_SCHEDULER: End scheduler "s037" with entities [EventEntity, EventEntity], work=834*
323: 0x0C35 [0x01] GOTO 0x0C7B
324: 0x0C38 [0x02] IF !(Work_Zone[9] == 6*) GOTO 0x0C52
325: 0x0C40 [0x52] END_LOAD_SCHEDULER: End scheduler "s037" with entities [EventEntity, EventEntity], work=834*
326: 0x0C4F [0x01] GOTO 0x0C7B
327: 0x0C52 [0x02] IF !(Work_Zone[9] == 8*) GOTO 0x0C6C
328: 0x0C5A [0x52] END_LOAD_SCHEDULER: End scheduler "s033" with entities [EventEntity, EventEntity], work=834*
329: 0x0C69 [0x01] GOTO 0x0C7B
330: 0x0C6C [0x52] END_LOAD_SCHEDULER: End scheduler "s017" with entities [EventEntity, EventEntity], work=834*

SUBROUTINE_0C7B:
331: 0x0C7B [0x02] IF !(Work_Zone[9] == 5*) GOTO 0x0C97
332: 0x0C83 [0x45] LOAD_SCHEDULED_TASK: Load scheduler "s034" with entities [EventEntity, EventEntity], work=[834*, 0*]
333: 0x0C94 [0x01] GOTO 0x0CC4
334: 0x0C97 [0x02] IF !(Work_Zone[9] == 6*) GOTO 0x0CB3
335: 0x0C9F [0x45] LOAD_SCHEDULED_TASK: Load scheduler "s034" with entities [EventEntity, EventEntity], work=[834*, 0*]
336: 0x0CB0 [0x01] GOTO 0x0CC4
337: 0x0CB3 [0x45] LOAD_SCHEDULED_TASK: Load scheduler "s011" with entities [EventEntity, EventEntity], work=[834*, 0*]

SUBROUTINE_0CC4:
338: 0x0CC4 [0x79] LocalPlayer looks at Shantotto (ID: 17768573/0x010F207D) (Basic look)
339: 0x0CCE [0x29] REQ_SET_WAIT(priority=0x08, entity_id=Kupipi (ID: 17768467/0x010F2013), tag_num=0x19)
340: 0x0CD5 [0x29] REQ_SET_WAIT(priority=0x08, entity_id=Kupipi (ID: 17768467/0x010F2013), tag_num=0x20)
341: 0x0CDC [0x29] REQ_SET_WAIT(priority=0x08, entity_id=Kupipi (ID: 17768467/0x010F2013), tag_num=0x21)
342: 0x0CE3 [0x03] ExtData[1]->WorkLocal[1] = 1*
343: 0x0CE8 [0x03] ExtData[1]->WorkLocal[2] = Work_Zone[0]
344: 0x0CED [0x01] GOTO 0x0871

SUBROUTINE_0D3E:
345: 0x0D3E [0x02] IF !(Work_Zone[9] == 5*) GOTO 0x0D5A
346: 0x0D46 [0x45] LOAD_SCHEDULED_TASK: Load scheduler "s035" with entities [EventEntity, EventEntity], work=[834*, 0*]
347: 0x0D57 [0x01] GOTO 0x0D87
348: 0x0D5A [0x02] IF !(Work_Zone[9] == 6*) GOTO 0x0D76
349: 0x0D62 [0x45] LOAD_SCHEDULED_TASK: Load scheduler "s035" with entities [EventEntity, EventEntity], work=[834*, 0*]
350: 0x0D73 [0x01] GOTO 0x0D87
351: 0x0D76 [0x45] LOAD_SCHEDULED_TASK: Load scheduler "s011" with entities [EventEntity, EventEntity], work=[834*, 0*]

SUBROUTINE_0D87:
352: 0x0D87 [0x29] REQ_SET_WAIT(priority=0x08, entity_id=LocalPlayer, tag_num=0x68)
353: 0x0D8E [0x29] REQ_SET_WAIT(priority=0x08, entity_id=Shantotto (ID: 17768573/0x010F207D), tag_num=0x11)
354: 0x0D95 [0x2B] Shantotto (ID: 17768573/0x010F207D) [9343*]:
     "I wish I could give you some better information, but I don't know what's going on with our nation."
355: 0x0D9C [0x23] WAIT_FOR_DIALOG_INTERACTION
356: 0x0D9D [0x2B] Shantotto (ID: 17768573/0x010F207D) [9344*]:
     "I'm tired of waiting for repairs to my clothing. Every passing second fills me with greater loathing."
357: 0x0DA4 [0x23] WAIT_FOR_DIALOG_INTERACTION
358: 0x0DA5 [0x29] REQ_SET_WAIT(priority=0x08, entity_id=Shantotto (ID: 17768573/0x010F207D), tag_num=0x12)
359: 0x0DAC [0x02] IF !(Work_Zone[9] == 5*) GOTO 0x0DC6
360: 0x0DB4 [0x52] END_LOAD_SCHEDULER: End scheduler "s035" with entities [EventEntity, EventEntity], work=834*
361: 0x0DC3 [0x01] GOTO 0x0DEF
362: 0x0DC6 [0x02] IF !(Work_Zone[9] == 6*) GOTO 0x0DE0
363: 0x0DCE [0x52] END_LOAD_SCHEDULER: End scheduler "s035" with entities [EventEntity, EventEntity], work=834*
364: 0x0DDD [0x01] GOTO 0x0DEF
365: 0x0DE0 [0x52] END_LOAD_SCHEDULER: End scheduler "s011" with entities [EventEntity, EventEntity], work=834*

SUBROUTINE_0DEF:
366: 0x0DEF [0x01] GOTO 0x0DF2

SUBROUTINE_0DF2:
367: 0x0DF2 [0x02] IF !(Work_Zone[9] == 5*) GOTO 0x0E18
368: 0x0DFA [0x45] LOAD_SCHEDULED_TASK: Load scheduler "s042" with entities [EventEntity, EventEntity], work=[834*, 0*]
369: 0x0E0B [0x79] LocalPlayer looks at Kupipi (ID: 17768467/0x010F2013) (Basic look)
370: 0x0E15 [0x01] GOTO 0x0E4F
371: 0x0E18 [0x02] IF !(Work_Zone[9] == 6*) GOTO 0x0E3E
372: 0x0E20 [0x45] LOAD_SCHEDULED_TASK: Load scheduler "s042" with entities [EventEntity, EventEntity], work=[834*, 0*]
373: 0x0E31 [0x79] LocalPlayer looks at Kupipi (ID: 17768467/0x010F2013) (Basic look)
374: 0x0E3B [0x01] GOTO 0x0E4F
375: 0x0E3E [0x45] LOAD_SCHEDULED_TASK: Load scheduler "s012" with entities [EventEntity, EventEntity], work=[834*, 0*]

SUBROUTINE_0E4F:
376: 0x0E4F [0x79] LocalPlayer looks at Shantotto (ID: 17768573/0x010F207D) (Basic look)
377: 0x0E59 [0x29] REQ_SET_WAIT(priority=0x08, entity_id=Shantotto (ID: 17768573/0x010F207D), tag_num=0x05)
378: 0x0E60 [0x2B] Shantotto (ID: 17768573/0x010F207D) [9345*]:
     "Kupipi can give you all of the details. And as for my clothes--well, I paid full retail!"
379: 0x0E67 [0x79] Kupipi (ID: 17768467/0x010F2013) looks at Shantotto (ID: 17768573/0x010F207D) (Basic look)
380: 0x0E71 [0x1C] WAIT(30* ticks)
381: 0x0E74 [0x29] REQ_SET_WAIT(priority=0x08, entity_id=Kupipi (ID: 17768467/0x010F2013), tag_num=0x22)
382: 0x0E7B [0x29] REQ_SET_WAIT(priority=0x08, entity_id=Kupipi (ID: 17768467/0x010F2013), tag_num=0x23)
383: 0x0E82 [0x29] REQ_SET_WAIT(priority=0x08, entity_id=Kupipi (ID: 17768467/0x010F2013), tag_num=0x07)
384: 0x0E89 [0x29] REQ_SET_WAIT(priority=0x08, entity_id=Kupipi (ID: 17768467/0x010F2013), tag_num=0x08)
385: 0x0E90 [0x23] WAIT_FOR_DIALOG_INTERACTION
386: 0x0E91 [0x29] REQ_SET_WAIT(priority=0x08, entity_id=Shantotto (ID: 17768573/0x010F207D), tag_num=0x06)
387: 0x0E98 [0x29] REQ_SET_WAIT(priority=0x08, entity_id=Shantotto (ID: 17768573/0x010F207D), tag_num=0x07)
388: 0x0E9F [0x29] REQ_SET_WAIT(priority=0x08, entity_id=Shantotto (ID: 17768573/0x010F207D), tag_num=0x08)
389: 0x0EA6 [0x02] IF !(Work_Zone[9] == 5*) GOTO 0x0EC0
390: 0x0EAE [0x52] END_LOAD_SCHEDULER: End scheduler "s042" with entities [EventEntity, EventEntity], work=834*
391: 0x0EBD [0x01] GOTO 0x0EE9
392: 0x0EC0 [0x02] IF !(Work_Zone[9] == 6*) GOTO 0x0EDA
393: 0x0EC8 [0x52] END_LOAD_SCHEDULER: End scheduler "s042" with entities [EventEntity, EventEntity], work=834*
394: 0x0ED7 [0x01] GOTO 0x0EE9
395: 0x0EDA [0x52] END_LOAD_SCHEDULER: End scheduler "s012" with entities [EventEntity, EventEntity], work=834*

SUBROUTINE_0EE9:
396: 0x0EE9 [0x02] IF !(Work_Zone[9] == 8*) GOTO 0x0F05
397: 0x0EF1 [0x45] LOAD_SCHEDULED_TASK: Load scheduler "s031" with entities [EventEntity, EventEntity], work=[834*, 0*]
398: 0x0F02 [0x01] GOTO 0x0F16
399: 0x0F05 [0x45] LOAD_SCHEDULED_TASK: Load scheduler "s013" with entities [EventEntity, EventEntity], work=[834*, 0*]

SUBROUTINE_0F16:
400: 0x0F16 [0x29] REQ_SET_WAIT(priority=0x08, entity_id=Shantotto (ID: 17768573/0x010F207D), tag_num=0x01)
401: 0x0F1D [0x2B] Shantotto (ID: 17768573/0x010F207D) [9346*]:
     "And with that task requested, I bid you adieu. Good luck, my detective. I'll leave it to you!"
402: 0x0F24 [0x23] WAIT_FOR_DIALOG_INTERACTION
403: 0x0F25 [0x29] REQ_SET_WAIT(priority=0x08, entity_id=Shantotto (ID: 17768573/0x010F207D), tag_num=0x02)
404: 0x0F2C [0x29] REQ_SET_WAIT(priority=0x08, entity_id=Urubero-Mohbero (ID: 17768469/0x010F2015), tag_num=0x03)
405: 0x0F33 [0x7B] Shantotto (ID: 17768573/0x010F207D) stops talking
406: 0x0F38 [0x27] REQ_SET(priority=0x08, entity_id=Shantotto (ID: 17768573/0x010F207D), tag_num=0x19)
407: 0x0F3F [0x1C] WAIT(30* ticks)
408: 0x0F42 [0x02] IF !(Work_Zone[9] == 8*) GOTO 0x0F5C
409: 0x0F4A [0x52] END_LOAD_SCHEDULER: End scheduler "s031" with entities [EventEntity, EventEntity], work=834*
410: 0x0F59 [0x01] GOTO 0x0F6B
411: 0x0F5C [0x52] END_LOAD_SCHEDULER: End scheduler "s013" with entities [EventEntity, EventEntity], work=834*

SUBROUTINE_0F6B:
412: 0x0F6B [0x45] LOAD_SCHEDULED_TASK: Load scheduler "s014" with entities [EventEntity, EventEntity], work=[834*, 0*]
413: 0x0F7C [0x4B] UPDATE_ENTITY_YAW(entity=LocalPlayer, yaw=11.2*)
414: 0x0F83 [0x6F] WAIT_FRAME_DELAY: Yield until WaitTime reaches zero
415: 0x0F84 [0x76] CHECK_ENTITY_RENDER_FLAGS: Wait until LocalPlayer Render.Flags0 and Render.Flags3 conditions are met
416: 0x0F89 [0x1C] WAIT(30* ticks)
417: 0x0F8C [0x1A] CALL_SUBROUTINE(address=0x0064)
418: 0x0F8F [0x5D] SET_MUSIC_VOLUME(volume=0*, fade_time=300*)
419: 0x0F94 [0x1C] WAIT(30* ticks)
420: 0x0F97 [0x29] REQ_SET_WAIT(priority=0x08, entity_id=Door:Clerical Chamber (ID: 17768519/0x010F2047), tag_num=0x1A)
421: 0x0F9E [0x2A] GET_REQ_LEVEL(level=8, entity_id=Shantotto (ID: 17768573/0x010F207D))
422: 0x0FA4 [0x52] END_LOAD_SCHEDULER: End scheduler "s014" with entities [EventEntity, EventEntity], work=834*
423: 0x0FB3 [0x6C] FADE_ENTITY_COLOR(entity_id=Shantotto (ID: 17768573/0x010F207D), end_alpha=0*, fade_time=1*)
424: 0x0FBC [0x1C] WAIT(30* ticks)
425: 0x0FBF [0x29] REQ_SET_WAIT(priority=0x08, entity_id=Door:Clerical Chamber (ID: 17768519/0x010F2047), tag_num=0x1B)
426: 0x0FC6 [0x4A] Kupipi (ID: 17768467/0x010F2013) looks at LocalPlayer
427: 0x0FCF [0x6F] WAIT_FRAME_DELAY: Yield until WaitTime reaches zero
428: 0x0FD0 [0x76] CHECK_ENTITY_RENDER_FLAGS: Wait until Kupipi (ID: 17768467/0x010F2013) Render.Flags0 and Render.Flags3 conditions are met
429: 0x0FD5 [0x7B] Kupipi (ID: 17768467/0x010F2013) stops talking
430: 0x0FDA [0x29] REQ_SET_WAIT(priority=0x08, entity_id=Kupipi (ID: 17768467/0x010F2013), tag_num=0x03)
431: 0x0FE1 [0x29] REQ_SET_WAIT(priority=0x08, entity_id=Kupipi (ID: 17768467/0x010F2013), tag_num=0x04)
432: 0x0FE8 [0x5C] MUSIC_CONTROL: Set Idle (Day) music to song 123*
433: 0x0FEC [0x5C] MUSIC_CONTROL: Set Idle (Night) music to song 123*
434: 0x0FF0 [0x9A] WAIT_MUSIC_SERVER()
435: 0x0FF1 [0x5D] SET_MUSIC_VOLUME(volume=127*, fade_time=1*)
436: 0x0FF6 [0x45] LOAD_SCHEDULED_TASK: Load scheduler "s015" with entities [EventEntity, EventEntity], work=[834*, 0*]
437: 0x1007 [0x1A] CALL_SUBROUTINE(address=0x0043)
438: 0x100A [0x1C] WAIT(50* ticks)
439: 0x100D [0x29] REQ_SET_WAIT(priority=0x08, entity_id=Kupipi (ID: 17768467/0x010F2013), tag_num=0x05)
440: 0x1014 [0x29] REQ_SET_WAIT(priority=0x08, entity_id=Kupipi (ID: 17768467/0x010F2013), tag_num=0x06)
441: 0x101B [0x1C] WAIT(30* ticks)
442: 0x101E [0x2B] Kupipi (ID: 17768467/0x010F2013) [9347*]:
     "This enti`re situation started to head south with a recent cosplay competition held in Bastok not a few days prior."
443: 0x1025 [0x1C] WAIT(30* ticks)
444: 0x1028 [0x52] END_LOAD_SCHEDULER: End scheduler "s015" with entities [EventEntity, EventEntity], work=834*
445: 0x1037 [0x45] LOAD_SCHEDULED_TASK: Load scheduler "s018" with entities [EventEntity, EventEntity], work=[834*, 0*]
446: 0x1048 [0x79] LocalPlayer looks at Kupipi (ID: 17768467/0x010F2013) (Basic look)
447: 0x1052 [0x23] WAIT_FOR_DIALOG_INTERACTION
448: 0x1053 [0x52] END_LOAD_SCHEDULER: End scheduler "s018" with entities [EventEntity, EventEntity], work=834*
449: 0x1062 [0x45] LOAD_SCHEDULED_TASK: Load scheduler "s019" with entities [EventEntity, EventEntity], work=[834*, 0*]
450: 0x1073 [0x27] REQ_SET(priority=0x08, entity_id=Kupipi (ID: 17768467/0x010F2013), tag_num=0xAB)
451: 0x107A [0x2B] Kupipi (ID: 17768467/0x010F2013) [9348*]:
     "The event was said to test the skill and prowess of ma`ny costume enthusiasts."
452: 0x1081 [0x23] WAIT_FOR_DIALOG_INTERACTION
453: 0x1082 [0x2A] GET_REQ_LEVEL(level=8, entity_id=Kupipi (ID: 17768467/0x010F2013))
454: 0x1088 [0x4A] LocalPlayer looks at Kupipi (ID: 17768467/0x010F2013)
455: 0x1091 [0x6F] WAIT_FRAME_DELAY: Yield until WaitTime reaches zero
456: 0x1092 [0x76] CHECK_ENTITY_RENDER_FLAGS: Wait until LocalPlayer Render.Flags0 and Render.Flags3 conditions are met
457: 0x1097 [0x29] REQ_SET_WAIT(priority=0x08, entity_id=Kupipi (ID: 17768467/0x010F2013), tag_num=0x11)
458: 0x109E [0x2B] Kupipi (ID: 17768467/0x010F2013) [9349*]:
     "And Doctor Shantotto, ne`ver one to back down from a challenge, said that she would surreptitiously enter the competition and claim first place."
459: 0x10A5 [0x23] WAIT_FOR_DIALOG_INTERACTION
460: 0x10A6 [0x29] REQ_SET_WAIT(priority=0x08, entity_id=Kupipi (ID: 17768467/0x010F2013), tag_num=0x12)
461: 0x10AD [0x52] END_LOAD_SCHEDULER: End scheduler "s019" with entities [EventEntity, EventEntity], work=834*
462: 0x10BC [0x45] LOAD_SCHEDULED_TASK: Load scheduler "s020" with entities [EventEntity, EventEntity], work=[834*, 0*]
463: 0x10CD [0x4B] UPDATE_ENTITY_YAW(entity=Kupipi (ID: 17768467/0x010F2013), yaw=5.6*)
464: 0x10D4 [0x6F] WAIT_FRAME_DELAY: Yield until WaitTime reaches zero
465: 0x10D5 [0x76] CHECK_ENTITY_RENDER_FLAGS: Wait until Kupipi (ID: 17768467/0x010F2013) Render.Flags0 and Render.Flags3 conditions are met
466: 0x10DA [0x4A] LocalPlayer looks at Kupipi (ID: 17768467/0x010F2013)
467: 0x10E3 [0x29] REQ_SET_WAIT(priority=0x08, entity_id=Kupipi (ID: 17768467/0x010F2013), tag_num=0x0F)
468: 0x10EA [0x2B] Kupipi (ID: 17768467/0x010F2013) [9350*]:
     "So she came here to Heavens Tower to bo`rrow an outfit."
469: 0x10F1 [0x23] WAIT_FOR_DIALOG_INTERACTION
470: 0x10F2 [0x2B] Kupipi (ID: 17768467/0x010F2013) [9351*]:
     "That's right--the outfit she used to wear from her time as mi`nister of the Orastery."
471: 0x10F9 [0x23] WAIT_FOR_DIALOG_INTERACTION
472: 0x10FA [0x29] REQ_SET_WAIT(priority=0x08, entity_id=Kupipi (ID: 17768467/0x010F2013), tag_num=0x10)
473: 0x1101 [0x6F] WAIT_FRAME_DELAY: Yield until WaitTime reaches zero
474: 0x1102 [0x76] CHECK_ENTITY_RENDER_FLAGS: Wait until LocalPlayer Render.Flags0 and Render.Flags3 conditions are met
475: 0x1107 [0x52] END_LOAD_SCHEDULER: End scheduler "s020" with entities [EventEntity, EventEntity], work=834*
476: 0x1116 [0x45] LOAD_SCHEDULED_TASK: Load scheduler "s029" with entities [EventEntity, EventEntity], work=[834*, 0*]
477: 0x1127 [0x7B] Kupipi (ID: 17768467/0x010F2013) stops talking
478: 0x112C [0x29] REQ_SET_WAIT(priority=0x08, entity_id=Kupipi (ID: 17768467/0x010F2013), tag_num=0x07)
479: 0x1133 [0x2B] Kupipi (ID: 17768467/0x010F2013) [9352*]:
     "But she couldn't get the outfit ready in ti`me!"
480: 0x113A [0x1C] WAIT(10* ticks)
481: 0x113D [0x29] REQ_SET_WAIT(priority=0x08, entity_id=Gamimi (ID: 17768473/0x010F2019), tag_num=0x06)
482: 0x1144 [0x1C] WAIT(10* ticks)
483: 0x1147 [0x29] REQ_SET_WAIT(priority=0x08, entity_id=Rakano-Marukano (ID: 17768474/0x010F201A), tag_num=0x11)
484: 0x114E [0x23] WAIT_FOR_DIALOG_INTERACTION
485: 0x114F [0x29] REQ_SET_WAIT(priority=0x08, entity_id=Kupipi (ID: 17768467/0x010F2013), tag_num=0x08)
486: 0x1156 [0x29] REQ_SET_WAIT(priority=0x08, entity_id=Gamimi (ID: 17768473/0x010F2019), tag_num=0x07)
487: 0x115D [0x29] REQ_SET_WAIT(priority=0x08, entity_id=Rakano-Marukano (ID: 17768474/0x010F201A), tag_num=0x12)
488: 0x1164 [0x52] END_LOAD_SCHEDULER: End scheduler "s029" with entities [EventEntity, EventEntity], work=834*
489: 0x1173 [0x45] LOAD_SCHEDULED_TASK: Load scheduler "s021" with entities [EventEntity, EventEntity], work=[834*, 0*]
490: 0x1184 [0x27] REQ_SET(priority=0x08, entity_id=Kupipi (ID: 17768467/0x010F2013), tag_num=0xAC)
491: 0x118B [0x2B] Kupipi (ID: 17768467/0x010F2013) [9353*]:
     "And since she completely missed the competition, she's gone stark raving ma`d!"
492: 0x1192 [0x23] WAIT_FOR_DIALOG_INTERACTION
493: 0x1193 [0x2A] GET_REQ_LEVEL(level=8, entity_id=Kupipi (ID: 17768467/0x010F2013))
494: 0x1199 [0x29] REQ_SET_WAIT(priority=0x08, entity_id=Kupipi (ID: 17768467/0x010F2013), tag_num=0x24)
495: 0x11A0 [0x2B] Kupipi (ID: 17768467/0x010F2013) [9354*]:
     "What's worse, she's got it into her head that it's a`ll my fault!"
496: 0x11A7 [0x23] WAIT_FOR_DIALOG_INTERACTION
497: 0x11A8 [0x29] REQ_SET_WAIT(priority=0x08, entity_id=Kupipi (ID: 17768467/0x010F2013), tag_num=0x25)
498: 0x11AF [0x52] END_LOAD_SCHEDULER: End scheduler "s021" with entities [EventEntity, EventEntity], work=834*
499: 0x11BE [0x45] LOAD_SCHEDULED_TASK: Load scheduler "s022" with entities [EventEntity, EventEntity], work=[834*, 0*]
500: 0x11CF [0x29] REQ_SET_WAIT(priority=0x08, entity_id=Kupipi (ID: 17768467/0x010F2013), tag_num=0x36)
501: 0x11D6 [0x4B] UPDATE_ENTITY_YAW(entity=Kupipi (ID: 17768467/0x010F2013), yaw=17.6*)
502: 0x11DD [0x6F] WAIT_FRAME_DELAY: Yield until WaitTime reaches zero
503: 0x11DE [0x76] CHECK_ENTITY_RENDER_FLAGS: Wait until Kupipi (ID: 17768467/0x010F2013) Render.Flags0 and Render.Flags3 conditions are met
504: 0x11E3 [0x2B] Kupipi (ID: 17768467/0x010F2013) [9355*]:
     "But I don't see how..."
505: 0x11EA [0x23] WAIT_FOR_DIALOG_INTERACTION
506: 0x11EB [0x29] REQ_SET_WAIT(priority=0x08, entity_id=Kupipi (ID: 17768467/0x010F2013), tag_num=0x0B)
507: 0x11F2 [0x2B] Kupipi (ID: 17768467/0x010F2013) [9356*]:
     "She insi`sts that she told me to make some alterations to the outfit and spruce it up a little bit..."
508: 0x11F9 [0x23] WAIT_FOR_DIALOG_INTERACTION
509: 0x11FA [0x52] END_LOAD_SCHEDULER: End scheduler "s022" with entities [EventEntity, EventEntity], work=834*
510: 0x1209 [0x45] LOAD_SCHEDULED_TASK: Load scheduler "s025" with entities [EventEntity, EventEntity], work=[834*, 0*]
511: 0x121A [0x27] REQ_SET(priority=0x08, entity_id=Kupipi (ID: 17768467/0x010F2013), tag_num=0x0C)
512: 0x1221 [0x2B] Kupipi (ID: 17768467/0x010F2013) [9357*]:
     "...but I would swear upon a stack of books that she asked no such things."
513: 0x1228 [0x23] WAIT_FOR_DIALOG_INTERACTION
514: 0x1229 [0x2A] GET_REQ_LEVEL(level=8, entity_id=Kupipi (ID: 17768467/0x010F2013))
515: 0x122F [0x52] END_LOAD_SCHEDULER: End scheduler "s025" with entities [EventEntity, EventEntity], work=834*
516: 0x123E [0x02] IF !(Work_Zone[9] == 8*) GOTO 0x125A
517: 0x1246 [0x45] LOAD_SCHEDULED_TASK: Load scheduler "s032" with entities [EventEntity, EventEntity], work=[834*, 0*]
518: 0x1257 [0x01] GOTO 0x126B
519: 0x125A [0x45] LOAD_SCHEDULED_TASK: Load scheduler "s024" with entities [EventEntity, EventEntity], work=[834*, 0*]

SUBROUTINE_126B:
520: 0x126B [0x4B] UPDATE_ENTITY_YAW(entity=Kupipi (ID: 17768467/0x010F2013), yaw=5.6*)
521: 0x1272 [0x6F] WAIT_FRAME_DELAY: Yield until WaitTime reaches zero
522: 0x1273 [0x76] CHECK_ENTITY_RENDER_FLAGS: Wait until Kupipi (ID: 17768467/0x010F2013) Render.Flags0 and Render.Flags3 conditions are met
523: 0x1278 [0x29] REQ_SET_WAIT(priority=0x08, entity_id=Kupipi (ID: 17768467/0x010F2013), tag_num=0x18)
524: 0x127F [0x2B] Kupipi (ID: 17768467/0x010F2013) [9358*]:
     "How could I forge`t something so important? It's completely unlike me!"
525: 0x1286 [0x1C] WAIT(10* ticks)
526: 0x1289 [0x6E] LocalPlayer uses emote 21*
527: 0x1290 [0x99] Wait for LocalPlayer animation to complete
528: 0x1295 [0x23] WAIT_FOR_DIALOG_INTERACTION
529: 0x1296 [0x27] REQ_SET(priority=0x08, entity_id=Kupipi (ID: 17768467/0x010F2013), tag_num=0xAD)
530: 0x129D [0x1C] WAIT(6* ticks)
531: 0x12A0 [0x02] IF !(Work_Zone[9] == 8*) GOTO 0x12BA
532: 0x12A8 [0x52] END_LOAD_SCHEDULER: End scheduler "s032" with entities [EventEntity, EventEntity], work=834*
533: 0x12B7 [0x01] GOTO 0x12C9
534: 0x12BA [0x52] END_LOAD_SCHEDULER: End scheduler "s024" with entities [EventEntity, EventEntity], work=834*

SUBROUTINE_12C9:
535: 0x12C9 [0x45] LOAD_SCHEDULED_TASK: Load scheduler "s023" with entities [EventEntity, EventEntity], work=[834*, 0*]
536: 0x12DA [0x29] REQ_SET_WAIT(priority=0x08, entity_id=Kupipi (ID: 17768467/0x010F2013), tag_num=0x19)
537: 0x12E1 [0x2B] Kupipi (ID: 17768467/0x010F2013) [9359*]:
     "That's where you come in!"
538: 0x12E8 [0x23] WAIT_FOR_DIALOG_INTERACTION
539: 0x12E9 [0x2A] GET_REQ_LEVEL(level=8, entity_id=Kupipi (ID: 17768467/0x010F2013))
540: 0x12EF [0x29] REQ_SET_WAIT(priority=0x08, entity_id=Kupipi (ID: 17768467/0x010F2013), tag_num=0x01)
541: 0x12F6 [0x2B] Kupipi (ID: 17768467/0x010F2013) [9360*]:
     "Can you ask the o`ther Tarutaru working on the first floor of Heavens Tower if they remember anything?"
542: 0x12FD [0x23] WAIT_FOR_DIALOG_INTERACTION
