# 17768483 - Rhy Epocan

## Common Data

| Field            | Value                   |
|------------------|-------------------------|
| Zone             | Heavens Tower (ID: 242) |
| Block Size       | 1136 bytes              |
| Total Events     | 49                      |
| References Count | 38                      |

## List of Events

| Event ID                   | Entrypoint   |   Size |   Instructions |
|----------------------------|--------------|--------|----------------|
| [65535](#event-65535)      | 0x0000       |      1 |              1 |
| [65535.1](#event-655351)   | 0x0001       |     16 |              2 |
| [65535.2](#event-655352)   | 0x0011       |     14 |              2 |
| [65535.3](#event-655353)   | 0x001F       |     16 |              2 |
| [65535.4](#event-655354)   | 0x002F       |     14 |              2 |
| [65535.5](#event-655355)   | 0x003D       |     16 |              2 |
| [65535.6](#event-655356)   | 0x004D       |     14 |              2 |
| [65535.7](#event-655357)   | 0x005B       |     16 |              2 |
| [65535.8](#event-655358)   | 0x006B       |     14 |              2 |
| [65535.9](#event-655359)   | 0x0079       |     16 |              2 |
| [65535.10](#event-6553510) | 0x0089       |     14 |              2 |
| [65535.11](#event-6553511) | 0x0097       |     16 |              2 |
| [65535.12](#event-6553512) | 0x00A7       |     14 |              2 |
| [65535.13](#event-6553513) | 0x00B5       |     16 |              2 |
| [65535.14](#event-6553514) | 0x00C5       |     14 |              2 |
| [65535.15](#event-6553515) | 0x00D3       |     16 |              2 |
| [65535.16](#event-6553516) | 0x00E3       |     14 |              2 |
| [65535.17](#event-6553517) | 0x00F1       |     16 |              2 |
| [65535.18](#event-6553518) | 0x0101       |     14 |              2 |
| [65535.19](#event-6553519) | 0x010F       |     16 |              2 |
| [65535.20](#event-6553520) | 0x011F       |     14 |              2 |
| [65535.21](#event-6553521) | 0x012D       |     16 |              2 |
| [65535.22](#event-6553522) | 0x013D       |     14 |              2 |
| [65535.23](#event-6553523) | 0x014B       |      9 |              3 |
| [93](#event-93)            | 0x0154       |     19 |             10 |
| [6](#event-6)              | 0x0167       |      1 |              1 |
| [107](#event-107)          | 0x0168       |      1 |              1 |
| [108](#event-108)          | 0x0169       |     19 |             10 |
| [114](#event-114)          | 0x017C       |      1 |              1 |
| [65535.24](#event-6553524) | 0x017D       |      5 |              3 |
| [65535.25](#event-6553525) | 0x0182       |      5 |              3 |
| [115](#event-115)          | 0x0187       |     15 |              8 |
| [158](#event-158)          | 0x0196       |     29 |             10 |
| [160](#event-160)          | 0x01B3       |     15 |              8 |
| [170](#event-170)          | 0x01C2       |     29 |             10 |
| [175](#event-175)          | 0x01DF       |     19 |             10 |
| [195](#event-195)          | 0x01F2       |     29 |             10 |
| [200](#event-200)          | 0x020F       |     19 |             10 |
| [218](#event-218)          | 0x0222       |     33 |             12 |
| [318](#event-318)          | 0x0243       |     19 |             10 |
| [323](#event-323)          | 0x0256       |     19 |             10 |
| [302](#event-302)          | 0x0269       |     29 |             10 |
| [307](#event-307)          | 0x0286       |     19 |             10 |
| [369](#event-369)          | 0x0299       |     19 |             10 |
| [374](#event-374)          | 0x02AC       |     19 |             10 |
| [376](#event-376)          | 0x02BF       |     29 |             10 |
| [380](#event-380)          | 0x02DC       |     19 |             10 |
| [405](#event-405)          | 0x02EF       |     19 |             10 |
| [386](#event-386)          | 0x0302       |      1 |              1 |

## DAT References (imed_data)

|   Index | Hex Value   |   Dec Value |
|---------|-------------|-------------|
|       0 | 0x0032      |          50 |
|       1 | 0x0034      |          52 |
|       2 | 0x0035      |          53 |
|       3 | 0x0039      |          57 |
|       4 | 0x001E      |          30 |
|       5 | 0x005D      |          93 |
|       6 | 0x005E      |          94 |
|       7 | 0x00B3      |         179 |
|       8 | 0x00B4      |         180 |
|       9 | 0x00BF      |         191 |
|      10 | 0x00C0      |         192 |
|      11 | 0x00C8      |         200 |
|      12 | 0x013C      |         316 |
|      13 | 0x013E      |         318 |
|      14 | 0x0160      |         352 |
|      15 | 0x0168      |         360 |
|      16 | 0x0169      |         361 |
|      17 | 0x01B6      |         438 |
|      18 | 0x01BE      |         446 |
|      19 | 0x01BF      |         447 |
|      20 | 0x01E8      |         488 |
|      21 | 0x01E9      |         489 |
|      22 | 0x1FBA      |        8122 |
|      23 | 0x1FBB      |        8123 |
|      24 | 0x1FC2      |        8130 |
|      25 | 0x1FC3      |        8131 |
|      26 | 0x1FD6      |        8150 |
|      27 | 0x1FDD      |        8157 |
|      28 | 0x1FDE      |        8158 |
|      29 | 0x2071      |        8305 |
|      30 | 0x2072      |        8306 |
|      31 | 0x2085      |        8325 |
|      32 | 0x2086      |        8326 |
|      33 | 0x2103      |        8451 |
|      34 | 0x2105      |        8453 |
|      35 | 0x2106      |        8454 |
|      36 | 0x215F      |        8543 |
|      37 | 0x2160      |        8544 |

## String References

- **93**: There is no stopping tomorrow from coming, but there is no guarantee that the tomorrow that comes will be a bright one.
- **94**: To create a better tomorrow...that is why we Mithra left our jungle home for this city. And we will not rrreturn until we have accomplished our task.
- **179**: Orastery minister, Ajido-Marujido...
- **180**: He's so determined to decipher the mystery behind the forbidden magic that he cannot see what is rrreally going on around him.
- **191**: Currently, Lady Semih Lafihna is not in Heavens Tower.
- **192**: Wait. She has just rrreturned.
- **200**: The Yagudo have been living on this continent as long as the Tarutaru. Our conflict with the beastmen goes back that far.
- **316**: Proceed to the door in the back.
- **318**: Rrremember, you will be rrrepresenting your country. Act accordingly!
- **352**: Proceed to the door in the back.
- **360**: The talisman sealing Castle Zvahl has been stolen from the Horutoto Rrruins.
- **361**: It is not clear yet who the perpetrators were, but we Sibyl Guards are rrready for any foe.
- **438**: Proceed to the door in the back.
- **446**: I knew it! The beastmen were planning the rrreturn of the Shadow Lord all along.
- **447**: The decision of the ministers keeps me from participating in any battle, but an adventurer like you...
- **488**: I applaud you on your efforts in the Northlands. You are the pride of Windurst!
- **489**: It is rrregrettable that you cannot be publicly honored for your deeds, but the Sibyl Guards all commend you on what you have accomplished for Windurst.
- **8122**: Now that the Shadow Lord, King of the beastmen, has been defeated, it is time for the people of Vana'diel to rrrise again. To keep ahead of other nations, we must first stabilize our own country...
- **8123**: Leave the prrroblems of Windurst in the hands of the Sibyl Guards. You need to be keeping an eye on the progress of our rrrival countries. It is not unthinkable that certain elements could be plotting against us.
- **8130**: After the defeat of the Shadow Lord, I thought there would be a change in attitude from the Yagudo. However, Castle Oztroja continues to maintain its silence.
- **8131**: This silence is verrry unsettling. I wonder if they still have another card left to play?
- **8150**: Proceed to the door in the back.
- **8157**: The Shadow Lord has fallen, but the beastmen are still stirring.
- **8158**: They will embrace a new leader and turn their predatory gaze towards us once more. We must keep our skills sharp for the next uprising.
- **8305**: I, I feel so useless...
- **8306**: Our best attacks merely rrrebounded off that thing. So this is what it feels like to be completely outmatched...
- **8325**: For some reason or another, that Joker Cardian and the bearer of darkness seem to share the same kind of aura.
- **8326**: I can't really explain it very well, but I think Semih Lafihna underrrstands what I mean.
- **8451**: Semih Lafihna awaits you in the Vestal Chamber.
- **8453**: Let us join our strength and change the flow of fate.
- **8454**: A need to fight comes from one's own weakness. A weakness born from lack of rrresolve, impatience, and fear. We must rrrise above all these to grasp a higher power.
- **8543**: Semih Lafihna and Chieftainness Perih Vashai have been holding talks on what to do concerning the Yagudo.
- **8544**: Things probably won't change for a while yet. A prrrotracted battle is the same as a defeat. First we need to increase our military strength.

## Events

### Event 65535

#### Metadata

| Field        | Value   |
|--------------|---------|
| Entrypoint   | 0x0000  |
| Data Size    | 1 bytes |
| Instructions | 1       |

```
      00 01 02 03 04 05 06 07  08 09 0A 0B 0C 0D 0E 0F
      -- -- -- -- -- -- -- --  -- -- -- -- -- -- -- --
0000: 00                                                .               
```

#### Opcodes

```
  0: 0x0000 [0x00] END_REQSTACK()
```

### Event 65535.1

#### Metadata

| Field        | Value    |
|--------------|----------|
| Entrypoint   | 0x0001   |
| Data Size    | 16 bytes |
| Instructions | 2        |

```
      00 01 02 03 04 05 06 07  08 09 0A 0B 0C 0D 0E 0F
      -- -- -- -- -- -- -- --  -- -- -- -- -- -- -- --
0000:    66 00 80 F8 FF FF 7F  F8 FF FF 7F 74 6C 6B 30   f..........tlk0
0010: 00                                                .               
```

#### Opcodes

```
  0: 0x0001 [0x66] LOAD_EXT_SCHEDULER_MAIN: Load scheduler "tlk0" with entities [EventEntity, EventEntity], work=50*
  1: 0x0010 [0x00] END_REQSTACK()
```

### Event 65535.2

#### Metadata

| Field        | Value    |
|--------------|----------|
| Entrypoint   | 0x0011   |
| Data Size    | 14 bytes |
| Instructions | 2        |

```
      00 01 02 03 04 05 06 07  08 09 0A 0B 0C 0D 0E 0F
      -- -- -- -- -- -- -- --  -- -- -- -- -- -- -- --
0010:    53 F8 FF FF 7F F8 FF  FF 7F 74 6C 6B 30 00      S........tlk0. 
```

#### Opcodes

```
  0: 0x0011 [0x53] WAIT_SCHEDULER_TASK: Wait for scheduler "tlk0" with entities [EventEntity, EventEntity]
  1: 0x001E [0x00] END_REQSTACK()
```

### Event 65535.3

#### Metadata

| Field        | Value    |
|--------------|----------|
| Entrypoint   | 0x001F   |
| Data Size    | 16 bytes |
| Instructions | 2        |

```
      00 01 02 03 04 05 06 07  08 09 0A 0B 0C 0D 0E 0F
      -- -- -- -- -- -- -- --  -- -- -- -- -- -- -- --
0010:                                               66                 f
0020: 00 80 F8 FF FF 7F F8 FF  FF 7F 74 6C 6B 32 00     ..........tlk2. 
```

#### Opcodes

```
  0: 0x001F [0x66] LOAD_EXT_SCHEDULER_MAIN: Load scheduler "tlk2" with entities [EventEntity, EventEntity], work=50*
  1: 0x002E [0x00] END_REQSTACK()
```

### Event 65535.4

#### Metadata

| Field        | Value    |
|--------------|----------|
| Entrypoint   | 0x002F   |
| Data Size    | 14 bytes |
| Instructions | 2        |

```
      00 01 02 03 04 05 06 07  08 09 0A 0B 0C 0D 0E 0F
      -- -- -- -- -- -- -- --  -- -- -- -- -- -- -- --
0020:                                               53                 S
0030: F8 FF FF 7F F8 FF FF 7F  74 6C 6B 32 00           ........tlk2.   
```

#### Opcodes

```
  0: 0x002F [0x53] WAIT_SCHEDULER_TASK: Wait for scheduler "tlk2" with entities [EventEntity, EventEntity]
  1: 0x003C [0x00] END_REQSTACK()
```

### Event 65535.5

#### Metadata

| Field        | Value    |
|--------------|----------|
| Entrypoint   | 0x003D   |
| Data Size    | 16 bytes |
| Instructions | 2        |

```
      00 01 02 03 04 05 06 07  08 09 0A 0B 0C 0D 0E 0F
      -- -- -- -- -- -- -- --  -- -- -- -- -- -- -- --
0030:                                         66 00 80               f..
0040: F8 FF FF 7F F8 FF FF 7F  74 68 6B 31 00           ........thk1.   
```

#### Opcodes

```
  0: 0x003D [0x66] LOAD_EXT_SCHEDULER_MAIN: Load scheduler "thk1" with entities [EventEntity, EventEntity], work=50*
  1: 0x004C [0x00] END_REQSTACK()
```

### Event 65535.6

#### Metadata

| Field        | Value    |
|--------------|----------|
| Entrypoint   | 0x004D   |
| Data Size    | 14 bytes |
| Instructions | 2        |

```
      00 01 02 03 04 05 06 07  08 09 0A 0B 0C 0D 0E 0F
      -- -- -- -- -- -- -- --  -- -- -- -- -- -- -- --
0040:                                         53 F8 FF               S..
0050: FF 7F F8 FF FF 7F 74 68  6B 31 00                 ......thk1.     
```

#### Opcodes

```
  0: 0x004D [0x53] WAIT_SCHEDULER_TASK: Wait for scheduler "thk1" with entities [EventEntity, EventEntity]
  1: 0x005A [0x00] END_REQSTACK()
```

### Event 65535.7

#### Metadata

| Field        | Value    |
|--------------|----------|
| Entrypoint   | 0x005B   |
| Data Size    | 16 bytes |
| Instructions | 2        |

```
      00 01 02 03 04 05 06 07  08 09 0A 0B 0C 0D 0E 0F
      -- -- -- -- -- -- -- --  -- -- -- -- -- -- -- --
0050:                                   66 00 80 F8 FF             f....
0060: FF 7F F8 FF FF 7F 74 68  6B 32 00                 ......thk2.     
```

#### Opcodes

```
  0: 0x005B [0x66] LOAD_EXT_SCHEDULER_MAIN: Load scheduler "thk2" with entities [EventEntity, EventEntity], work=50*
  1: 0x006A [0x00] END_REQSTACK()
```

### Event 65535.8

#### Metadata

| Field        | Value    |
|--------------|----------|
| Entrypoint   | 0x006B   |
| Data Size    | 14 bytes |
| Instructions | 2        |

```
      00 01 02 03 04 05 06 07  08 09 0A 0B 0C 0D 0E 0F
      -- -- -- -- -- -- -- --  -- -- -- -- -- -- -- --
0060:                                   53 F8 FF FF 7F             S....
0070: F8 FF FF 7F 74 68 6B 32  00                       ....thk2.       
```

#### Opcodes

```
  0: 0x006B [0x53] WAIT_SCHEDULER_TASK: Wait for scheduler "thk2" with entities [EventEntity, EventEntity]
  1: 0x0078 [0x00] END_REQSTACK()
```

### Event 65535.9

#### Metadata

| Field        | Value    |
|--------------|----------|
| Entrypoint   | 0x0079   |
| Data Size    | 16 bytes |
| Instructions | 2        |

```
      00 01 02 03 04 05 06 07  08 09 0A 0B 0C 0D 0E 0F
      -- -- -- -- -- -- -- --  -- -- -- -- -- -- -- --
0070:                             66 01 80 F8 FF FF 7F           f......
0080: F8 FF FF 7F 64 69 73 30  00                       ....dis0.       
```

#### Opcodes

```
  0: 0x0079 [0x66] LOAD_EXT_SCHEDULER_MAIN: Load scheduler "dis0" with entities [EventEntity, EventEntity], work=52*
  1: 0x0088 [0x00] END_REQSTACK()
```

### Event 65535.10

#### Metadata

| Field        | Value    |
|--------------|----------|
| Entrypoint   | 0x0089   |
| Data Size    | 14 bytes |
| Instructions | 2        |

```
      00 01 02 03 04 05 06 07  08 09 0A 0B 0C 0D 0E 0F
      -- -- -- -- -- -- -- --  -- -- -- -- -- -- -- --
0080:                             53 F8 FF FF 7F F8 FF           S......
0090: FF 7F 64 69 73 30 00                              ..dis0.         
```

#### Opcodes

```
  0: 0x0089 [0x53] WAIT_SCHEDULER_TASK: Wait for scheduler "dis0" with entities [EventEntity, EventEntity]
  1: 0x0096 [0x00] END_REQSTACK()
```

### Event 65535.11

#### Metadata

| Field        | Value    |
|--------------|----------|
| Entrypoint   | 0x0097   |
| Data Size    | 16 bytes |
| Instructions | 2        |

```
      00 01 02 03 04 05 06 07  08 09 0A 0B 0C 0D 0E 0F
      -- -- -- -- -- -- -- --  -- -- -- -- -- -- -- --
0090:                      66  01 80 F8 FF FF 7F F8 FF         f........
00A0: FF 7F 74 6C 63 30 00                              ..tlc0.         
```

#### Opcodes

```
  0: 0x0097 [0x66] LOAD_EXT_SCHEDULER_MAIN: Load scheduler "tlc0" with entities [EventEntity, EventEntity], work=52*
  1: 0x00A6 [0x00] END_REQSTACK()
```

### Event 65535.12

#### Metadata

| Field        | Value    |
|--------------|----------|
| Entrypoint   | 0x00A7   |
| Data Size    | 14 bytes |
| Instructions | 2        |

```
      00 01 02 03 04 05 06 07  08 09 0A 0B 0C 0D 0E 0F
      -- -- -- -- -- -- -- --  -- -- -- -- -- -- -- --
00A0:                      53  F8 FF FF 7F F8 FF FF 7F         S........
00B0: 74 6C 63 30 00                                    tlc0.           
```

#### Opcodes

```
  0: 0x00A7 [0x53] WAIT_SCHEDULER_TASK: Wait for scheduler "tlc0" with entities [EventEntity, EventEntity]
  1: 0x00B4 [0x00] END_REQSTACK()
```

### Event 65535.13

#### Metadata

| Field        | Value    |
|--------------|----------|
| Entrypoint   | 0x00B5   |
| Data Size    | 16 bytes |
| Instructions | 2        |

```
      00 01 02 03 04 05 06 07  08 09 0A 0B 0C 0D 0E 0F
      -- -- -- -- -- -- -- --  -- -- -- -- -- -- -- --
00B0:                66 01 80  F8 FF FF 7F F8 FF FF 7F       f..........
00C0: 74 6C 63 31 00                                    tlc1.           
```

#### Opcodes

```
  0: 0x00B5 [0x66] LOAD_EXT_SCHEDULER_MAIN: Load scheduler "tlc1" with entities [EventEntity, EventEntity], work=52*
  1: 0x00C4 [0x00] END_REQSTACK()
```

### Event 65535.14

#### Metadata

| Field        | Value    |
|--------------|----------|
| Entrypoint   | 0x00C5   |
| Data Size    | 14 bytes |
| Instructions | 2        |

```
      00 01 02 03 04 05 06 07  08 09 0A 0B 0C 0D 0E 0F
      -- -- -- -- -- -- -- --  -- -- -- -- -- -- -- --
00C0:                53 F8 FF  FF 7F F8 FF FF 7F 74 6C       S........tl
00D0: 63 31 00                                          c1.             
```

#### Opcodes

```
  0: 0x00C5 [0x53] WAIT_SCHEDULER_TASK: Wait for scheduler "tlc1" with entities [EventEntity, EventEntity]
  1: 0x00D2 [0x00] END_REQSTACK()
```

### Event 65535.15

#### Metadata

| Field        | Value    |
|--------------|----------|
| Entrypoint   | 0x00D3   |
| Data Size    | 16 bytes |
| Instructions | 2        |

```
      00 01 02 03 04 05 06 07  08 09 0A 0B 0C 0D 0E 0F
      -- -- -- -- -- -- -- --  -- -- -- -- -- -- -- --
00D0:          66 02 80 F8 FF  FF 7F F8 FF FF 7F 74 6C     f..........tl
00E0: 62 31 00                                          b1.             
```

#### Opcodes

```
  0: 0x00D3 [0x66] LOAD_EXT_SCHEDULER_MAIN: Load scheduler "tlb1" with entities [EventEntity, EventEntity], work=53*
  1: 0x00E2 [0x00] END_REQSTACK()
```

### Event 65535.16

#### Metadata

| Field        | Value    |
|--------------|----------|
| Entrypoint   | 0x00E3   |
| Data Size    | 14 bytes |
| Instructions | 2        |

```
      00 01 02 03 04 05 06 07  08 09 0A 0B 0C 0D 0E 0F
      -- -- -- -- -- -- -- --  -- -- -- -- -- -- -- --
00E0:          53 F8 FF FF 7F  F8 FF FF 7F 74 6C 62 31     S........tlb1
00F0: 00                                                .               
```

#### Opcodes

```
  0: 0x00E3 [0x53] WAIT_SCHEDULER_TASK: Wait for scheduler "tlb1" with entities [EventEntity, EventEntity]
  1: 0x00F0 [0x00] END_REQSTACK()
```

### Event 65535.17

#### Metadata

| Field        | Value    |
|--------------|----------|
| Entrypoint   | 0x00F1   |
| Data Size    | 16 bytes |
| Instructions | 2        |

```
      00 01 02 03 04 05 06 07  08 09 0A 0B 0C 0D 0E 0F
      -- -- -- -- -- -- -- --  -- -- -- -- -- -- -- --
00F0:    66 02 80 F8 FF FF 7F  F8 FF FF 7F 74 6C 62 32   f..........tlb2
0100: 00                                                .               
```

#### Opcodes

```
  0: 0x00F1 [0x66] LOAD_EXT_SCHEDULER_MAIN: Load scheduler "tlb2" with entities [EventEntity, EventEntity], work=53*
  1: 0x0100 [0x00] END_REQSTACK()
```

### Event 65535.18

#### Metadata

| Field        | Value    |
|--------------|----------|
| Entrypoint   | 0x0101   |
| Data Size    | 14 bytes |
| Instructions | 2        |

```
      00 01 02 03 04 05 06 07  08 09 0A 0B 0C 0D 0E 0F
      -- -- -- -- -- -- -- --  -- -- -- -- -- -- -- --
0100:    53 F8 FF FF 7F F8 FF  FF 7F 74 6C 62 32 00      S........tlb2. 
```

#### Opcodes

```
  0: 0x0101 [0x53] WAIT_SCHEDULER_TASK: Wait for scheduler "tlb2" with entities [EventEntity, EventEntity]
  1: 0x010E [0x00] END_REQSTACK()
```

### Event 65535.19

#### Metadata

| Field        | Value    |
|--------------|----------|
| Entrypoint   | 0x010F   |
| Data Size    | 16 bytes |
| Instructions | 2        |

```
      00 01 02 03 04 05 06 07  08 09 0A 0B 0C 0D 0E 0F
      -- -- -- -- -- -- -- --  -- -- -- -- -- -- -- --
0100:                                               66                 f
0110: 02 80 F8 FF FF 7F F8 FF  FF 7F 6B 77 69 30 00     ..........kwi0. 
```

#### Opcodes

```
  0: 0x010F [0x66] LOAD_EXT_SCHEDULER_MAIN: Load scheduler "kwi0" with entities [EventEntity, EventEntity], work=53*
  1: 0x011E [0x00] END_REQSTACK()
```

### Event 65535.20

#### Metadata

| Field        | Value    |
|--------------|----------|
| Entrypoint   | 0x011F   |
| Data Size    | 14 bytes |
| Instructions | 2        |

```
      00 01 02 03 04 05 06 07  08 09 0A 0B 0C 0D 0E 0F
      -- -- -- -- -- -- -- --  -- -- -- -- -- -- -- --
0110:                                               53                 S
0120: F8 FF FF 7F F8 FF FF 7F  6B 77 69 30 00           ........kwi0.   
```

#### Opcodes

```
  0: 0x011F [0x53] WAIT_SCHEDULER_TASK: Wait for scheduler "kwi0" with entities [EventEntity, EventEntity]
  1: 0x012C [0x00] END_REQSTACK()
```

### Event 65535.21

#### Metadata

| Field        | Value    |
|--------------|----------|
| Entrypoint   | 0x012D   |
| Data Size    | 16 bytes |
| Instructions | 2        |

```
      00 01 02 03 04 05 06 07  08 09 0A 0B 0C 0D 0E 0F
      -- -- -- -- -- -- -- --  -- -- -- -- -- -- -- --
0120:                                         66 03 80               f..
0130: F8 FF FF 7F F8 FF FF 7F  6D 68 69 30 00           ........mhi0.   
```

#### Opcodes

```
  0: 0x012D [0x66] LOAD_EXT_SCHEDULER_MAIN: Load scheduler "mhi0" with entities [EventEntity, EventEntity], work=57*
  1: 0x013C [0x00] END_REQSTACK()
```

### Event 65535.22

#### Metadata

| Field        | Value    |
|--------------|----------|
| Entrypoint   | 0x013D   |
| Data Size    | 14 bytes |
| Instructions | 2        |

```
      00 01 02 03 04 05 06 07  08 09 0A 0B 0C 0D 0E 0F
      -- -- -- -- -- -- -- --  -- -- -- -- -- -- -- --
0130:                                         53 F8 FF               S..
0140: FF 7F F8 FF FF 7F 6D 68  69 30 00                 ......mhi0.     
```

#### Opcodes

```
  0: 0x013D [0x53] WAIT_SCHEDULER_TASK: Wait for scheduler "mhi0" with entities [EventEntity, EventEntity]
  1: 0x014A [0x00] END_REQSTACK()
```

### Event 65535.23

#### Metadata

| Field        | Value   |
|--------------|---------|
| Entrypoint   | 0x014B  |
| Data Size    | 9 bytes |
| Instructions | 3       |

```
      00 01 02 03 04 05 06 07  08 09 0A 0B 0C 0D 0E 0F
      -- -- -- -- -- -- -- --  -- -- -- -- -- -- -- --
0140:                                   5E 69 64 6C 30             ^idl0
0150: 1C 04 80 00                                       ....            
```

#### Opcodes

```
  0: 0x014B [0x5E] EventEntity goes idle (kills current action) (animation: "idl0")
  1: 0x0150 [0x1C] WAIT(30* ticks)
  2: 0x0153 [0x00] END_REQSTACK()
```

### Event 93

#### Metadata

| Field        | Value    |
|--------------|----------|
| Entrypoint   | 0x0154   |
| Data Size    | 19 bytes |
| Instructions | 10       |

```
      00 01 02 03 04 05 06 07  08 09 0A 0B 0C 0D 0E 0F
      -- -- -- -- -- -- -- --  -- -- -- -- -- -- -- --
0150:             1E F0 FF FF  7F 6F 70 1D 05 80 23 1D      .....op...#.
0160: 06 80 23 20 00 21 00                              ..# .!.         
```

#### Opcodes

```
  0: 0x0154 [0x1E] EventEntity looks at LocalPlayer and starts talking
  1: 0x0159 [0x6F] WAIT_FRAME_DELAY: Yield until WaitTime reaches zero
  2: 0x015A [0x70] WAIT_ENTITY_RENDER_FLAG: Wait while EventEntity->Render.Flags3 bit 2 is set (cancel turn if not)
  3: 0x015B [0x1D] PRINT_EVENT_MESSAGE(message_id=93*)
    → "There is no stopping tomorrow from coming, but there is no guarantee that the tomorrow that comes will be a bright one."
  4: 0x015E [0x23] WAIT_FOR_DIALOG_INTERACTION
  5: 0x015F [0x1D] PRINT_EVENT_MESSAGE(message_id=94*)
    → "To create a better tomorrow...that is why we Mithra left our jungle home for this city. And we will not rrreturn until we have accomplished our task."
  6: 0x0162 [0x23] WAIT_FOR_DIALOG_INTERACTION
  7: 0x0163 [0x20] SET_CLI_EVENT_UC_FLAG: Unlock player control
  8: 0x0165 [0x21] END_EVENT
  9: 0x0166 [0x00] END_REQSTACK()
```

### Event 6

#### Metadata

| Field        | Value   |
|--------------|---------|
| Entrypoint   | 0x0167  |
| Data Size    | 1 bytes |
| Instructions | 1       |

```
      00 01 02 03 04 05 06 07  08 09 0A 0B 0C 0D 0E 0F
      -- -- -- -- -- -- -- --  -- -- -- -- -- -- -- --
0160:                      00                                  .        
```

#### Opcodes

```
  0: 0x0167 [0x00] END_REQSTACK()
```

### Event 107

#### Metadata

| Field        | Value   |
|--------------|---------|
| Entrypoint   | 0x0168  |
| Data Size    | 1 bytes |
| Instructions | 1       |

```
      00 01 02 03 04 05 06 07  08 09 0A 0B 0C 0D 0E 0F
      -- -- -- -- -- -- -- --  -- -- -- -- -- -- -- --
0160:                          00                               .       
```

#### Opcodes

```
  0: 0x0168 [0x00] END_REQSTACK()
```

### Event 108

#### Metadata

| Field        | Value    |
|--------------|----------|
| Entrypoint   | 0x0169   |
| Data Size    | 19 bytes |
| Instructions | 10       |

```
      00 01 02 03 04 05 06 07  08 09 0A 0B 0C 0D 0E 0F
      -- -- -- -- -- -- -- --  -- -- -- -- -- -- -- --
0160:                             1E F0 FF FF 7F 6F 70           .....op
0170: 1D 07 80 23 1D 08 80 23  20 00 21 00              ...#...# .!.    
```

#### Opcodes

```
  0: 0x0169 [0x1E] EventEntity looks at LocalPlayer and starts talking
  1: 0x016E [0x6F] WAIT_FRAME_DELAY: Yield until WaitTime reaches zero
  2: 0x016F [0x70] WAIT_ENTITY_RENDER_FLAG: Wait while EventEntity->Render.Flags3 bit 2 is set (cancel turn if not)
  3: 0x0170 [0x1D] PRINT_EVENT_MESSAGE(message_id=179*)
    → "Orastery minister, Ajido-Marujido..."
  4: 0x0173 [0x23] WAIT_FOR_DIALOG_INTERACTION
  5: 0x0174 [0x1D] PRINT_EVENT_MESSAGE(message_id=180*)
    → "He's so determined to decipher the mystery behind the forbidden magic that he cannot see what is rrreally going on around him."
  6: 0x0177 [0x23] WAIT_FOR_DIALOG_INTERACTION
  7: 0x0178 [0x20] SET_CLI_EVENT_UC_FLAG: Unlock player control
  8: 0x017A [0x21] END_EVENT
  9: 0x017B [0x00] END_REQSTACK()
```

### Event 114

#### Metadata

| Field        | Value   |
|--------------|---------|
| Entrypoint   | 0x017C  |
| Data Size    | 1 bytes |
| Instructions | 1       |

```
      00 01 02 03 04 05 06 07  08 09 0A 0B 0C 0D 0E 0F
      -- -- -- -- -- -- -- --  -- -- -- -- -- -- -- --
0170:                                      00                       .   
```

#### Opcodes

```
  0: 0x017C [0x00] END_REQSTACK()
```

### Event 65535.24

#### Metadata

| Field        | Value   |
|--------------|---------|
| Entrypoint   | 0x017D  |
| Data Size    | 5 bytes |
| Instructions | 3       |

```
      00 01 02 03 04 05 06 07  08 09 0A 0B 0C 0D 0E 0F
      -- -- -- -- -- -- -- --  -- -- -- -- -- -- -- --
0170:                                         1D 09 80               ...
0180: 23 00                                             #.              
```

#### Opcodes

```
  0: 0x017D [0x1D] PRINT_EVENT_MESSAGE(message_id=191*)
    → "Currently, Lady Semih Lafihna is not in Heavens Tower."
  1: 0x0180 [0x23] WAIT_FOR_DIALOG_INTERACTION
  2: 0x0181 [0x00] END_REQSTACK()
```

### Event 65535.25

#### Metadata

| Field        | Value   |
|--------------|---------|
| Entrypoint   | 0x0182  |
| Data Size    | 5 bytes |
| Instructions | 3       |

```
      00 01 02 03 04 05 06 07  08 09 0A 0B 0C 0D 0E 0F
      -- -- -- -- -- -- -- --  -- -- -- -- -- -- -- --
0180:       1D 0A 80 23 00                                ...#.         
```

#### Opcodes

```
  0: 0x0182 [0x1D] PRINT_EVENT_MESSAGE(message_id=192*)
    → "Wait. She has just rrreturned."
  1: 0x0185 [0x23] WAIT_FOR_DIALOG_INTERACTION
  2: 0x0186 [0x00] END_REQSTACK()
```

### Event 115

#### Metadata

| Field        | Value    |
|--------------|----------|
| Entrypoint   | 0x0187   |
| Data Size    | 15 bytes |
| Instructions | 8        |

```
      00 01 02 03 04 05 06 07  08 09 0A 0B 0C 0D 0E 0F
      -- -- -- -- -- -- -- --  -- -- -- -- -- -- -- --
0180:                      1E  F0 FF FF 7F 6F 70 1D 0B         .....op..
0190: 80 23 20 00 21 00                                 .# .!.          
```

#### Opcodes

```
  0: 0x0187 [0x1E] EventEntity looks at LocalPlayer and starts talking
  1: 0x018C [0x6F] WAIT_FRAME_DELAY: Yield until WaitTime reaches zero
  2: 0x018D [0x70] WAIT_ENTITY_RENDER_FLAG: Wait while EventEntity->Render.Flags3 bit 2 is set (cancel turn if not)
  3: 0x018E [0x1D] PRINT_EVENT_MESSAGE(message_id=200*)
    → "The Yagudo have been living on this continent as long as the Tarutaru. Our conflict with the beastmen goes back that far."
  4: 0x0191 [0x23] WAIT_FOR_DIALOG_INTERACTION
  5: 0x0192 [0x20] SET_CLI_EVENT_UC_FLAG: Unlock player control
  6: 0x0194 [0x21] END_EVENT
  7: 0x0195 [0x00] END_REQSTACK()
```

### Event 158

#### Metadata

| Field        | Value    |
|--------------|----------|
| Entrypoint   | 0x0196   |
| Data Size    | 29 bytes |
| Instructions | 10       |

```
      00 01 02 03 04 05 06 07  08 09 0A 0B 0C 0D 0E 0F
      -- -- -- -- -- -- -- --  -- -- -- -- -- -- -- --
0190:                   1E F0  FF FF 7F 6F 70 29 08 24        .....op).$
01A0: 20 0F 01 13 1D 0C 80 23  29 08 24 20 0F 01 14 20   ......#).$ ... 
01B0: 00 21 00                                          .!.             
```

#### Opcodes

```
  0: 0x0196 [0x1E] EventEntity looks at LocalPlayer and starts talking
  1: 0x019B [0x6F] WAIT_FRAME_DELAY: Yield until WaitTime reaches zero
  2: 0x019C [0x70] WAIT_ENTITY_RENDER_FLAG: Wait while EventEntity->Render.Flags3 bit 2 is set (cancel turn if not)
  3: 0x019D [0x29] REQ_SET_WAIT(priority=0x08, entity_id=Ufu Koromoa (ID: 17768484/0x010F2024), tag_num=0x13)
  4: 0x01A4 [0x1D] PRINT_EVENT_MESSAGE(message_id=316*)
    → "Proceed to the door in the back."
  5: 0x01A7 [0x23] WAIT_FOR_DIALOG_INTERACTION
  6: 0x01A8 [0x29] REQ_SET_WAIT(priority=0x08, entity_id=Ufu Koromoa (ID: 17768484/0x010F2024), tag_num=0x14)
  7: 0x01AF [0x20] SET_CLI_EVENT_UC_FLAG: Unlock player control
  8: 0x01B1 [0x21] END_EVENT
  9: 0x01B2 [0x00] END_REQSTACK()
```

### Event 160

#### Metadata

| Field        | Value    |
|--------------|----------|
| Entrypoint   | 0x01B3   |
| Data Size    | 15 bytes |
| Instructions | 8        |

```
      00 01 02 03 04 05 06 07  08 09 0A 0B 0C 0D 0E 0F
      -- -- -- -- -- -- -- --  -- -- -- -- -- -- -- --
01B0:          1E F0 FF FF 7F  6F 70 1D 0D 80 23 20 00     .....op...# .
01C0: 21 00                                             !.              
```

#### Opcodes

```
  0: 0x01B3 [0x1E] EventEntity looks at LocalPlayer and starts talking
  1: 0x01B8 [0x6F] WAIT_FRAME_DELAY: Yield until WaitTime reaches zero
  2: 0x01B9 [0x70] WAIT_ENTITY_RENDER_FLAG: Wait while EventEntity->Render.Flags3 bit 2 is set (cancel turn if not)
  3: 0x01BA [0x1D] PRINT_EVENT_MESSAGE(message_id=318*)
    → "Rrremember, you will be rrrepresenting your country. Act accordingly!"
  4: 0x01BD [0x23] WAIT_FOR_DIALOG_INTERACTION
  5: 0x01BE [0x20] SET_CLI_EVENT_UC_FLAG: Unlock player control
  6: 0x01C0 [0x21] END_EVENT
  7: 0x01C1 [0x00] END_REQSTACK()
```

### Event 170

#### Metadata

| Field        | Value    |
|--------------|----------|
| Entrypoint   | 0x01C2   |
| Data Size    | 29 bytes |
| Instructions | 10       |

```
      00 01 02 03 04 05 06 07  08 09 0A 0B 0C 0D 0E 0F
      -- -- -- -- -- -- -- --  -- -- -- -- -- -- -- --
01C0:       1E F0 FF FF 7F 6F  70 29 08 24 20 0F 01 13    .....op).$ ...
01D0: 1D 0E 80 23 29 08 24 20  0F 01 14 20 00 21 00     ...#).$ ... .!. 
```

#### Opcodes

```
  0: 0x01C2 [0x1E] EventEntity looks at LocalPlayer and starts talking
  1: 0x01C7 [0x6F] WAIT_FRAME_DELAY: Yield until WaitTime reaches zero
  2: 0x01C8 [0x70] WAIT_ENTITY_RENDER_FLAG: Wait while EventEntity->Render.Flags3 bit 2 is set (cancel turn if not)
  3: 0x01C9 [0x29] REQ_SET_WAIT(priority=0x08, entity_id=Ufu Koromoa (ID: 17768484/0x010F2024), tag_num=0x13)
  4: 0x01D0 [0x1D] PRINT_EVENT_MESSAGE(message_id=352*)
    → "Proceed to the door in the back."
  5: 0x01D3 [0x23] WAIT_FOR_DIALOG_INTERACTION
  6: 0x01D4 [0x29] REQ_SET_WAIT(priority=0x08, entity_id=Ufu Koromoa (ID: 17768484/0x010F2024), tag_num=0x14)
  7: 0x01DB [0x20] SET_CLI_EVENT_UC_FLAG: Unlock player control
  8: 0x01DD [0x21] END_EVENT
  9: 0x01DE [0x00] END_REQSTACK()
```

### Event 175

#### Metadata

| Field        | Value    |
|--------------|----------|
| Entrypoint   | 0x01DF   |
| Data Size    | 19 bytes |
| Instructions | 10       |

```
      00 01 02 03 04 05 06 07  08 09 0A 0B 0C 0D 0E 0F
      -- -- -- -- -- -- -- --  -- -- -- -- -- -- -- --
01D0:                                               1E                 .
01E0: F0 FF FF 7F 6F 70 1D 0F  80 23 1D 10 80 23 20 00  ....op...#...# .
01F0: 21 00                                             !.              
```

#### Opcodes

```
  0: 0x01DF [0x1E] EventEntity looks at LocalPlayer and starts talking
  1: 0x01E4 [0x6F] WAIT_FRAME_DELAY: Yield until WaitTime reaches zero
  2: 0x01E5 [0x70] WAIT_ENTITY_RENDER_FLAG: Wait while EventEntity->Render.Flags3 bit 2 is set (cancel turn if not)
  3: 0x01E6 [0x1D] PRINT_EVENT_MESSAGE(message_id=360*)
    → "The talisman sealing Castle Zvahl has been stolen from the Horutoto Rrruins."
  4: 0x01E9 [0x23] WAIT_FOR_DIALOG_INTERACTION
  5: 0x01EA [0x1D] PRINT_EVENT_MESSAGE(message_id=361*)
    → "It is not clear yet who the perpetrators were, but we Sibyl Guards are rrready for any foe."
  6: 0x01ED [0x23] WAIT_FOR_DIALOG_INTERACTION
  7: 0x01EE [0x20] SET_CLI_EVENT_UC_FLAG: Unlock player control
  8: 0x01F0 [0x21] END_EVENT
  9: 0x01F1 [0x00] END_REQSTACK()
```

### Event 195

#### Metadata

| Field        | Value    |
|--------------|----------|
| Entrypoint   | 0x01F2   |
| Data Size    | 29 bytes |
| Instructions | 10       |

```
      00 01 02 03 04 05 06 07  08 09 0A 0B 0C 0D 0E 0F
      -- -- -- -- -- -- -- --  -- -- -- -- -- -- -- --
01F0:       1E F0 FF FF 7F 6F  70 29 08 24 20 0F 01 13    .....op).$ ...
0200: 1D 11 80 23 29 08 24 20  0F 01 14 20 00 21 00     ...#).$ ... .!. 
```

#### Opcodes

```
  0: 0x01F2 [0x1E] EventEntity looks at LocalPlayer and starts talking
  1: 0x01F7 [0x6F] WAIT_FRAME_DELAY: Yield until WaitTime reaches zero
  2: 0x01F8 [0x70] WAIT_ENTITY_RENDER_FLAG: Wait while EventEntity->Render.Flags3 bit 2 is set (cancel turn if not)
  3: 0x01F9 [0x29] REQ_SET_WAIT(priority=0x08, entity_id=Ufu Koromoa (ID: 17768484/0x010F2024), tag_num=0x13)
  4: 0x0200 [0x1D] PRINT_EVENT_MESSAGE(message_id=438*)
    → "Proceed to the door in the back."
  5: 0x0203 [0x23] WAIT_FOR_DIALOG_INTERACTION
  6: 0x0204 [0x29] REQ_SET_WAIT(priority=0x08, entity_id=Ufu Koromoa (ID: 17768484/0x010F2024), tag_num=0x14)
  7: 0x020B [0x20] SET_CLI_EVENT_UC_FLAG: Unlock player control
  8: 0x020D [0x21] END_EVENT
  9: 0x020E [0x00] END_REQSTACK()
```

### Event 200

#### Metadata

| Field        | Value    |
|--------------|----------|
| Entrypoint   | 0x020F   |
| Data Size    | 19 bytes |
| Instructions | 10       |

```
      00 01 02 03 04 05 06 07  08 09 0A 0B 0C 0D 0E 0F
      -- -- -- -- -- -- -- --  -- -- -- -- -- -- -- --
0200:                                               1E                 .
0210: F0 FF FF 7F 6F 70 1D 12  80 23 1D 13 80 23 20 00  ....op...#...# .
0220: 21 00                                             !.              
```

#### Opcodes

```
  0: 0x020F [0x1E] EventEntity looks at LocalPlayer and starts talking
  1: 0x0214 [0x6F] WAIT_FRAME_DELAY: Yield until WaitTime reaches zero
  2: 0x0215 [0x70] WAIT_ENTITY_RENDER_FLAG: Wait while EventEntity->Render.Flags3 bit 2 is set (cancel turn if not)
  3: 0x0216 [0x1D] PRINT_EVENT_MESSAGE(message_id=446*)
    → "I knew it! The beastmen were planning the rrreturn of the Shadow Lord all along."
  4: 0x0219 [0x23] WAIT_FOR_DIALOG_INTERACTION
  5: 0x021A [0x1D] PRINT_EVENT_MESSAGE(message_id=447*)
    → "The decision of the ministers keeps me from participating in any battle, but an adventurer like you..."
  6: 0x021D [0x23] WAIT_FOR_DIALOG_INTERACTION
  7: 0x021E [0x20] SET_CLI_EVENT_UC_FLAG: Unlock player control
  8: 0x0220 [0x21] END_EVENT
  9: 0x0221 [0x00] END_REQSTACK()
```

### Event 218

#### Metadata

| Field        | Value    |
|--------------|----------|
| Entrypoint   | 0x0222   |
| Data Size    | 33 bytes |
| Instructions | 12       |

```
      00 01 02 03 04 05 06 07  08 09 0A 0B 0C 0D 0E 0F
      -- -- -- -- -- -- -- --  -- -- -- -- -- -- -- --
0220:       1E F0 FF FF 7F 6F  70 29 08 23 20 0F 01 13    .....op).# ...
0230: 1D 14 80 23 1D 15 80 23  29 08 23 20 0F 01 14 20  ...#...#).# ... 
0240: 00 21 00                                          .!.             
```

#### Opcodes

```
  0: 0x0222 [0x1E] EventEntity looks at LocalPlayer and starts talking
  1: 0x0227 [0x6F] WAIT_FRAME_DELAY: Yield until WaitTime reaches zero
  2: 0x0228 [0x70] WAIT_ENTITY_RENDER_FLAG: Wait while EventEntity->Render.Flags3 bit 2 is set (cancel turn if not)
  3: 0x0229 [0x29] REQ_SET_WAIT(priority=0x08, entity_id=Rhy Epocan (ID: 17768483/0x010F2023), tag_num=0x13)
  4: 0x0230 [0x1D] PRINT_EVENT_MESSAGE(message_id=488*)
    → "I applaud you on your efforts in the Northlands. You are the pride of Windurst!"
  5: 0x0233 [0x23] WAIT_FOR_DIALOG_INTERACTION
  6: 0x0234 [0x1D] PRINT_EVENT_MESSAGE(message_id=489*)
    → "It is rrregrettable that you cannot be publicly honored for your deeds, but the Sibyl Guards all commend you on what you have accomplished for Windurst."
  7: 0x0237 [0x23] WAIT_FOR_DIALOG_INTERACTION
  8: 0x0238 [0x29] REQ_SET_WAIT(priority=0x08, entity_id=Rhy Epocan (ID: 17768483/0x010F2023), tag_num=0x14)
  9: 0x023F [0x20] SET_CLI_EVENT_UC_FLAG: Unlock player control
 10: 0x0241 [0x21] END_EVENT
 11: 0x0242 [0x00] END_REQSTACK()
```

### Event 318

#### Metadata

| Field        | Value    |
|--------------|----------|
| Entrypoint   | 0x0243   |
| Data Size    | 19 bytes |
| Instructions | 10       |

```
      00 01 02 03 04 05 06 07  08 09 0A 0B 0C 0D 0E 0F
      -- -- -- -- -- -- -- --  -- -- -- -- -- -- -- --
0240:          1E F0 FF FF 7F  6F 70 1D 16 80 23 1D 17     .....op...#..
0250: 80 23 20 00 21 00                                 .# .!.          
```

#### Opcodes

```
  0: 0x0243 [0x1E] EventEntity looks at LocalPlayer and starts talking
  1: 0x0248 [0x6F] WAIT_FRAME_DELAY: Yield until WaitTime reaches zero
  2: 0x0249 [0x70] WAIT_ENTITY_RENDER_FLAG: Wait while EventEntity->Render.Flags3 bit 2 is set (cancel turn if not)
  3: 0x024A [0x1D] PRINT_EVENT_MESSAGE(message_id=8122*)
    → "Now that the Shadow Lord, King of the beastmen, has been defeated, it is time for the people of Vana'diel to rrrise again. To keep ahead of other nations, we must first stabilize our own country..."
  4: 0x024D [0x23] WAIT_FOR_DIALOG_INTERACTION
  5: 0x024E [0x1D] PRINT_EVENT_MESSAGE(message_id=8123*)
    → "Leave the prrroblems of Windurst in the hands of the Sibyl Guards. You need to be keeping an eye on the progress of our rrrival countries. It is not unthinkable that certain elements could be plotting against us."
  6: 0x0251 [0x23] WAIT_FOR_DIALOG_INTERACTION
  7: 0x0252 [0x20] SET_CLI_EVENT_UC_FLAG: Unlock player control
  8: 0x0254 [0x21] END_EVENT
  9: 0x0255 [0x00] END_REQSTACK()
```

### Event 323

#### Metadata

| Field        | Value    |
|--------------|----------|
| Entrypoint   | 0x0256   |
| Data Size    | 19 bytes |
| Instructions | 10       |

```
      00 01 02 03 04 05 06 07  08 09 0A 0B 0C 0D 0E 0F
      -- -- -- -- -- -- -- --  -- -- -- -- -- -- -- --
0250:                   1E F0  FF FF 7F 6F 70 1D 18 80        .....op...
0260: 23 1D 19 80 23 20 00 21  00                       #...# .!.       
```

#### Opcodes

```
  0: 0x0256 [0x1E] EventEntity looks at LocalPlayer and starts talking
  1: 0x025B [0x6F] WAIT_FRAME_DELAY: Yield until WaitTime reaches zero
  2: 0x025C [0x70] WAIT_ENTITY_RENDER_FLAG: Wait while EventEntity->Render.Flags3 bit 2 is set (cancel turn if not)
  3: 0x025D [0x1D] PRINT_EVENT_MESSAGE(message_id=8130*)
    → "After the defeat of the Shadow Lord, I thought there would be a change in attitude from the Yagudo. However, Castle Oztroja continues to maintain its silence."
  4: 0x0260 [0x23] WAIT_FOR_DIALOG_INTERACTION
  5: 0x0261 [0x1D] PRINT_EVENT_MESSAGE(message_id=8131*)
    → "This silence is verrry unsettling. I wonder if they still have another card left to play?"
  6: 0x0264 [0x23] WAIT_FOR_DIALOG_INTERACTION
  7: 0x0265 [0x20] SET_CLI_EVENT_UC_FLAG: Unlock player control
  8: 0x0267 [0x21] END_EVENT
  9: 0x0268 [0x00] END_REQSTACK()
```

### Event 302

#### Metadata

| Field        | Value    |
|--------------|----------|
| Entrypoint   | 0x0269   |
| Data Size    | 29 bytes |
| Instructions | 10       |

```
      00 01 02 03 04 05 06 07  08 09 0A 0B 0C 0D 0E 0F
      -- -- -- -- -- -- -- --  -- -- -- -- -- -- -- --
0260:                             1E F0 FF FF 7F 6F 70           .....op
0270: 29 08 24 20 0F 01 13 1D  1A 80 23 29 08 24 20 0F  ).$ ......#).$ .
0280: 01 14 20 00 21 00                                 .. .!.          
```

#### Opcodes

```
  0: 0x0269 [0x1E] EventEntity looks at LocalPlayer and starts talking
  1: 0x026E [0x6F] WAIT_FRAME_DELAY: Yield until WaitTime reaches zero
  2: 0x026F [0x70] WAIT_ENTITY_RENDER_FLAG: Wait while EventEntity->Render.Flags3 bit 2 is set (cancel turn if not)
  3: 0x0270 [0x29] REQ_SET_WAIT(priority=0x08, entity_id=Ufu Koromoa (ID: 17768484/0x010F2024), tag_num=0x13)
  4: 0x0277 [0x1D] PRINT_EVENT_MESSAGE(message_id=8150*)
    → "Proceed to the door in the back."
  5: 0x027A [0x23] WAIT_FOR_DIALOG_INTERACTION
  6: 0x027B [0x29] REQ_SET_WAIT(priority=0x08, entity_id=Ufu Koromoa (ID: 17768484/0x010F2024), tag_num=0x14)
  7: 0x0282 [0x20] SET_CLI_EVENT_UC_FLAG: Unlock player control
  8: 0x0284 [0x21] END_EVENT
  9: 0x0285 [0x00] END_REQSTACK()
```

### Event 307

#### Metadata

| Field        | Value    |
|--------------|----------|
| Entrypoint   | 0x0286   |
| Data Size    | 19 bytes |
| Instructions | 10       |

```
      00 01 02 03 04 05 06 07  08 09 0A 0B 0C 0D 0E 0F
      -- -- -- -- -- -- -- --  -- -- -- -- -- -- -- --
0280:                   1E F0  FF FF 7F 6F 70 1D 1B 80        .....op...
0290: 23 1D 1C 80 23 20 00 21  00                       #...# .!.       
```

#### Opcodes

```
  0: 0x0286 [0x1E] EventEntity looks at LocalPlayer and starts talking
  1: 0x028B [0x6F] WAIT_FRAME_DELAY: Yield until WaitTime reaches zero
  2: 0x028C [0x70] WAIT_ENTITY_RENDER_FLAG: Wait while EventEntity->Render.Flags3 bit 2 is set (cancel turn if not)
  3: 0x028D [0x1D] PRINT_EVENT_MESSAGE(message_id=8157*)
    → "The Shadow Lord has fallen, but the beastmen are still stirring."
  4: 0x0290 [0x23] WAIT_FOR_DIALOG_INTERACTION
  5: 0x0291 [0x1D] PRINT_EVENT_MESSAGE(message_id=8158*)
    → "They will embrace a new leader and turn their predatory gaze towards us once more. We must keep our skills sharp for the next uprising."
  6: 0x0294 [0x23] WAIT_FOR_DIALOG_INTERACTION
  7: 0x0295 [0x20] SET_CLI_EVENT_UC_FLAG: Unlock player control
  8: 0x0297 [0x21] END_EVENT
  9: 0x0298 [0x00] END_REQSTACK()
```

### Event 369

#### Metadata

| Field        | Value    |
|--------------|----------|
| Entrypoint   | 0x0299   |
| Data Size    | 19 bytes |
| Instructions | 10       |

```
      00 01 02 03 04 05 06 07  08 09 0A 0B 0C 0D 0E 0F
      -- -- -- -- -- -- -- --  -- -- -- -- -- -- -- --
0290:                             1E F0 FF FF 7F 6F 70           .....op
02A0: 1D 1D 80 23 1D 1E 80 23  20 00 21 00              ...#...# .!.    
```

#### Opcodes

```
  0: 0x0299 [0x1E] EventEntity looks at LocalPlayer and starts talking
  1: 0x029E [0x6F] WAIT_FRAME_DELAY: Yield until WaitTime reaches zero
  2: 0x029F [0x70] WAIT_ENTITY_RENDER_FLAG: Wait while EventEntity->Render.Flags3 bit 2 is set (cancel turn if not)
  3: 0x02A0 [0x1D] PRINT_EVENT_MESSAGE(message_id=8305*)
    → "I, I feel so useless..."
  4: 0x02A3 [0x23] WAIT_FOR_DIALOG_INTERACTION
  5: 0x02A4 [0x1D] PRINT_EVENT_MESSAGE(message_id=8306*)
    → "Our best attacks merely rrrebounded off that thing. So this is what it feels like to be completely outmatched..."
  6: 0x02A7 [0x23] WAIT_FOR_DIALOG_INTERACTION
  7: 0x02A8 [0x20] SET_CLI_EVENT_UC_FLAG: Unlock player control
  8: 0x02AA [0x21] END_EVENT
  9: 0x02AB [0x00] END_REQSTACK()
```

### Event 374

#### Metadata

| Field        | Value    |
|--------------|----------|
| Entrypoint   | 0x02AC   |
| Data Size    | 19 bytes |
| Instructions | 10       |

```
      00 01 02 03 04 05 06 07  08 09 0A 0B 0C 0D 0E 0F
      -- -- -- -- -- -- -- --  -- -- -- -- -- -- -- --
02A0:                                      1E F0 FF FF              ....
02B0: 7F 6F 70 1D 1F 80 23 1D  20 80 23 20 00 21 00     .op...#. .# .!. 
```

#### Opcodes

```
  0: 0x02AC [0x1E] EventEntity looks at LocalPlayer and starts talking
  1: 0x02B1 [0x6F] WAIT_FRAME_DELAY: Yield until WaitTime reaches zero
  2: 0x02B2 [0x70] WAIT_ENTITY_RENDER_FLAG: Wait while EventEntity->Render.Flags3 bit 2 is set (cancel turn if not)
  3: 0x02B3 [0x1D] PRINT_EVENT_MESSAGE(message_id=8325*)
    → "For some reason or another, that Joker Cardian and the bearer of darkness seem to share the same kind of aura."
  4: 0x02B6 [0x23] WAIT_FOR_DIALOG_INTERACTION
  5: 0x02B7 [0x1D] PRINT_EVENT_MESSAGE(message_id=8326*)
    → "I can't really explain it very well, but I think Semih Lafihna underrrstands what I mean."
  6: 0x02BA [0x23] WAIT_FOR_DIALOG_INTERACTION
  7: 0x02BB [0x20] SET_CLI_EVENT_UC_FLAG: Unlock player control
  8: 0x02BD [0x21] END_EVENT
  9: 0x02BE [0x00] END_REQSTACK()
```

### Event 376

#### Metadata

| Field        | Value    |
|--------------|----------|
| Entrypoint   | 0x02BF   |
| Data Size    | 29 bytes |
| Instructions | 10       |

```
      00 01 02 03 04 05 06 07  08 09 0A 0B 0C 0D 0E 0F
      -- -- -- -- -- -- -- --  -- -- -- -- -- -- -- --
02B0:                                               1E                 .
02C0: F0 FF FF 7F 6F 70 29 08  24 20 0F 01 13 1D 21 80  ....op).$ ....!.
02D0: 23 29 08 24 20 0F 01 14  20 00 21 00              #).$ ... .!.    
```

#### Opcodes

```
  0: 0x02BF [0x1E] EventEntity looks at LocalPlayer and starts talking
  1: 0x02C4 [0x6F] WAIT_FRAME_DELAY: Yield until WaitTime reaches zero
  2: 0x02C5 [0x70] WAIT_ENTITY_RENDER_FLAG: Wait while EventEntity->Render.Flags3 bit 2 is set (cancel turn if not)
  3: 0x02C6 [0x29] REQ_SET_WAIT(priority=0x08, entity_id=Ufu Koromoa (ID: 17768484/0x010F2024), tag_num=0x13)
  4: 0x02CD [0x1D] PRINT_EVENT_MESSAGE(message_id=8451*)
    → "Semih Lafihna awaits you in the Vestal Chamber."
  5: 0x02D0 [0x23] WAIT_FOR_DIALOG_INTERACTION
  6: 0x02D1 [0x29] REQ_SET_WAIT(priority=0x08, entity_id=Ufu Koromoa (ID: 17768484/0x010F2024), tag_num=0x14)
  7: 0x02D8 [0x20] SET_CLI_EVENT_UC_FLAG: Unlock player control
  8: 0x02DA [0x21] END_EVENT
  9: 0x02DB [0x00] END_REQSTACK()
```

### Event 380

#### Metadata

| Field        | Value    |
|--------------|----------|
| Entrypoint   | 0x02DC   |
| Data Size    | 19 bytes |
| Instructions | 10       |

```
      00 01 02 03 04 05 06 07  08 09 0A 0B 0C 0D 0E 0F
      -- -- -- -- -- -- -- --  -- -- -- -- -- -- -- --
02D0:                                      1E F0 FF FF              ....
02E0: 7F 6F 70 1D 22 80 23 1D  23 80 23 20 00 21 00     .op.".#.#.# .!. 
```

#### Opcodes

```
  0: 0x02DC [0x1E] EventEntity looks at LocalPlayer and starts talking
  1: 0x02E1 [0x6F] WAIT_FRAME_DELAY: Yield until WaitTime reaches zero
  2: 0x02E2 [0x70] WAIT_ENTITY_RENDER_FLAG: Wait while EventEntity->Render.Flags3 bit 2 is set (cancel turn if not)
  3: 0x02E3 [0x1D] PRINT_EVENT_MESSAGE(message_id=8453*)
    → "Let us join our strength and change the flow of fate."
  4: 0x02E6 [0x23] WAIT_FOR_DIALOG_INTERACTION
  5: 0x02E7 [0x1D] PRINT_EVENT_MESSAGE(message_id=8454*)
    → "A need to fight comes from one's own weakness. A weakness born from lack of rrresolve, impatience, and fear. We must rrrise above all these to grasp a higher power."
  6: 0x02EA [0x23] WAIT_FOR_DIALOG_INTERACTION
  7: 0x02EB [0x20] SET_CLI_EVENT_UC_FLAG: Unlock player control
  8: 0x02ED [0x21] END_EVENT
  9: 0x02EE [0x00] END_REQSTACK()
```

### Event 405

#### Metadata

| Field        | Value    |
|--------------|----------|
| Entrypoint   | 0x02EF   |
| Data Size    | 19 bytes |
| Instructions | 10       |

```
      00 01 02 03 04 05 06 07  08 09 0A 0B 0C 0D 0E 0F
      -- -- -- -- -- -- -- --  -- -- -- -- -- -- -- --
02E0:                                               1E                 .
02F0: F0 FF FF 7F 6F 70 1D 24  80 23 1D 25 80 23 20 00  ....op.$.#.%.# .
0300: 21 00                                             !.              
```

#### Opcodes

```
  0: 0x02EF [0x1E] EventEntity looks at LocalPlayer and starts talking
  1: 0x02F4 [0x6F] WAIT_FRAME_DELAY: Yield until WaitTime reaches zero
  2: 0x02F5 [0x70] WAIT_ENTITY_RENDER_FLAG: Wait while EventEntity->Render.Flags3 bit 2 is set (cancel turn if not)
  3: 0x02F6 [0x1D] PRINT_EVENT_MESSAGE(message_id=8543*)
    → "Semih Lafihna and Chieftainness Perih Vashai have been holding talks on what to do concerning the Yagudo."
  4: 0x02F9 [0x23] WAIT_FOR_DIALOG_INTERACTION
  5: 0x02FA [0x1D] PRINT_EVENT_MESSAGE(message_id=8544*)
    → "Things probably won't change for a while yet. A prrrotracted battle is the same as a defeat. First we need to increase our military strength."
  6: 0x02FD [0x23] WAIT_FOR_DIALOG_INTERACTION
  7: 0x02FE [0x20] SET_CLI_EVENT_UC_FLAG: Unlock player control
  8: 0x0300 [0x21] END_EVENT
  9: 0x0301 [0x00] END_REQSTACK()
```

### Event 386

#### Metadata

| Field        | Value   |
|--------------|---------|
| Entrypoint   | 0x0302  |
| Data Size    | 1 bytes |
| Instructions | 1       |

```
      00 01 02 03 04 05 06 07  08 09 0A 0B 0C 0D 0E 0F
      -- -- -- -- -- -- -- --  -- -- -- -- -- -- -- --
0300:       00                                            .             
```

#### Opcodes

```
  0: 0x0302 [0x00] END_REQSTACK()
```
