# 17768457 - PRODUCER

## Common Data

| Field            | Value                   |
|------------------|-------------------------|
| Zone             | Heavens Tower (ID: 242) |
| Block Size       | 3692 bytes              |
| Total Events     | 22                      |
| References Count | 141                     |

## List of Events

| Event ID                   | Entrypoint   |   Size |   Instructions |
|----------------------------|--------------|--------|----------------|
| [65535](#event-65535)      | 0x0000       |      1 |              1 |
| [11](#event-11)            | 0x0001       |    143 |             27 |
| [65535.1](#event-655351)   | 0x0090       |    120 |             23 |
| [65535.2](#event-655352)   | 0x0108       |    219 |             41 |
| [65535.3](#event-655353)   | 0x01E3       |    368 |             67 |
| [65535.4](#event-655354)   | 0x0353       |    156 |             32 |
| [65535.5](#event-655355)   | 0x03EF       |    132 |             30 |
| [65535.6](#event-655356)   | 0x0473       |    148 |             33 |
| [65535.7](#event-655357)   | 0x0507       |    132 |             30 |
| [65535.8](#event-655358)   | 0x058B       |    164 |             36 |
| [65535.9](#event-655359)   | 0x062F       |    180 |             39 |
| [65535.10](#event-6553510) | 0x06E3       |    116 |             27 |
| [65535.11](#event-6553511) | 0x0757       |    116 |             27 |
| [65535.12](#event-6553512) | 0x07CB       |    116 |             27 |
| [65535.13](#event-6553513) | 0x083F       |    116 |             27 |
| [65535.14](#event-6553514) | 0x08B3       |    132 |             30 |
| [65535.15](#event-6553515) | 0x0937       |    112 |             25 |
| [65535.16](#event-6553516) | 0x09A7       |    160 |             34 |
| [65535.17](#event-6553517) | 0x0A47       |    116 |             27 |
| [65535.18](#event-6553518) | 0x0ABB       |    116 |             27 |
| [65535.19](#event-6553519) | 0x0B2F       |    116 |             27 |
| [65535.20](#event-6553520) | 0x0BA3       |     44 |             11 |

## DAT References (imed_data)

|   Index | Hex Value   |   Dec Value |
|---------|-------------|-------------|
|       0 | 0x00FC      |         252 |
|       1 | 0x023F      |         575 |
|       2 | 0x0000      |           0 |
|       3 | 0x0067      |         103 |
|       4 | 0x0001      |           1 |
|       5 | 0x0002      |           2 |
|       6 | 0x0003      |           3 |
|       7 | 0x0004      |           4 |
|       8 | 0x0063      |          99 |
|       9 | 0x0005      |           5 |
|      10 | 0x0064      |         100 |
|      11 | 0x0006      |           6 |
|      12 | 0x0240      |         576 |
|      13 | 0x0242      |         578 |
|      14 | 0x012C      |         300 |
|      15 | 0x012D      |         301 |
|      16 | 0x012E      |         302 |
|      17 | 0x012F      |         303 |
|      18 | 0x0130      |         304 |
|      19 | 0x0131      |         305 |
|      20 | 0x0132      |         306 |
|      21 | 0x0007      |           7 |
|      22 | 0x0133      |         307 |
|      23 | 0x0008      |           8 |
|      24 | 0x0134      |         308 |
|      25 | 0x1C6D      |        7277 |
|      26 | 0x0009      |           9 |
|      27 | 0x000A      |          10 |
|      28 | 0x000B      |          11 |
|      29 | 0x000C      |          12 |
|      30 | 0x000D      |          13 |
|      31 | 0x000E      |          14 |
|      32 | 0x000F      |          15 |
|      33 | 0x0010      |          16 |
|      34 | 0x005F      |          95 |
|      35 | 0x0011      |          17 |
|      36 | 0x00CD      |         205 |
|      37 | 0x0012      |          18 |
|      38 | 0x0013      |          19 |
|      39 | 0x1C6A      |        7274 |
|      40 | 0x1C7E      |        7294 |
|      41 | 0x1C6E      |        7278 |
|      42 | 0x1C69      |        7273 |
|      43 | 0x1C6F      |        7279 |
|      44 | 0x0014      |          20 |
|      45 | 0x006D      |         109 |
|      46 | 0x0015      |          21 |
|      47 | 0x0016      |          22 |
|      48 | 0x1C70      |        7280 |
|      49 | 0x0017      |          23 |
|      50 | 0x0018      |          24 |
|      51 | 0x0019      |          25 |
|      52 | 0x001A      |          26 |
|      53 | 0x0060      |          96 |
|      54 | 0x001B      |          27 |
|      55 | 0x1C71      |        7281 |
|      56 | 0x001C      |          28 |
|      57 | 0x001D      |          29 |
|      58 | 0x001E      |          30 |
|      59 | 0x0061      |          97 |
|      60 | 0x001F      |          31 |
|      61 | 0x0020      |          32 |
|      62 | 0x0021      |          33 |
|      63 | 0x0022      |          34 |
|      64 | 0x1C72      |        7282 |
|      65 | 0x0025      |          37 |
|      66 | 0x0026      |          38 |
|      67 | 0x0027      |          39 |
|      68 | 0x0069      |         105 |
|      69 | 0x0028      |          40 |
|      70 | 0x006A      |         106 |
|      71 | 0x0029      |          41 |
|      72 | 0x002A      |          42 |
|      73 | 0x002B      |          43 |
|      74 | 0x1C73      |        7283 |
|      75 | 0x002D      |          45 |
|      76 | 0x002E      |          46 |
|      77 | 0x002F      |          47 |
|      78 | 0x0030      |          48 |
|      79 | 0x006E      |         110 |
|      80 | 0x1C75      |        7285 |
|      81 | 0x0032      |          50 |
|      82 | 0x0033      |          51 |
|      83 | 0x0034      |          52 |
|      84 | 0x0035      |          53 |
|      85 | 0x0036      |          54 |
|      86 | 0x1C76      |        7286 |
|      87 | 0x0037      |          55 |
|      88 | 0x0038      |          56 |
|      89 | 0x0039      |          57 |
|      90 | 0x003A      |          58 |
|      91 | 0x003B      |          59 |
|      92 | 0x1C79      |        7289 |
|      93 | 0x003C      |          60 |
|      94 | 0x003D      |          61 |
|      95 | 0x003E      |          62 |
|      96 | 0x003F      |          63 |
|      97 | 0x0040      |          64 |
|      98 | 0x1C7A      |        7290 |
|      99 | 0x0041      |          65 |
|     100 | 0x0042      |          66 |
|     101 | 0x0043      |          67 |
|     102 | 0x0044      |          68 |
|     103 | 0x0045      |          69 |
|     104 | 0x006C      |         108 |
|     105 | 0x1C7B      |        7291 |
|     106 | 0x0046      |          70 |
|     107 | 0x0070      |         112 |
|     108 | 0x0047      |          71 |
|     109 | 0x0048      |          72 |
|     110 | 0x0049      |          73 |
|     111 | 0x1C7C      |        7292 |
|     112 | 0x004A      |          74 |
|     113 | 0x0071      |         113 |
|     114 | 0x004B      |          75 |
|     115 | 0x006B      |         107 |
|     116 | 0x006F      |         111 |
|     117 | 0x004C      |          76 |
|     118 | 0x004D      |          77 |
|     119 | 0x0072      |         114 |
|     120 | 0x1C7D      |        7293 |
|     121 | 0x004E      |          78 |
|     122 | 0x004F      |          79 |
|     123 | 0x0050      |          80 |
|     124 | 0x0051      |          81 |
|     125 | 0x0052      |          82 |
|     126 | 0x1C77      |        7287 |
|     127 | 0x0053      |          83 |
|     128 | 0x0054      |          84 |
|     129 | 0x0055      |          85 |
|     130 | 0x0056      |          86 |
|     131 | 0x0057      |          87 |
|     132 | 0x1C78      |        7288 |
|     133 | 0x0058      |          88 |
|     134 | 0x0059      |          89 |
|     135 | 0x005A      |          90 |
|     136 | 0x005B      |          91 |
|     137 | 0x005C      |          92 |
|     138 | 0x1C74      |        7284 |
|     139 | 0x005D      |          93 |
|     140 | 0x005E      |          94 |

## String References

- **575**: I am zee Producah! [@Sah zee opening event/Missions/Wahp/Quest/Left the ZONE once/Ahhl reset!/EX Missions]
- **576**: Wahp vhere? [Clerics/Ladiez/Orchahd/Stah Spring/Sibyl's room/Stahway Stairway]
- **578**: GL$3N$3G$3X$3g$3U[$3}$3XH [km001:$s/=/km002:$s/=/km002:$s/D$3R$3 [$3$3 [$P15R$I%9c/km002:$P10l\`$3Q$3b$3g/km003:$s/=/km003:$P106$Y$I%9/km003:$5%H<Player>K%$14s/=/km003:$3{$3X$P13|5=/km003:$P11S$20$I%9/ZONEp<Player>j$P13xE\`$o=1FI7i/$3N$3G$3X$3gFLAGL]reset]
- **7273**: Abracadabra!
- **7274**: Oh no! Your Adventurers' certificate vanished!
- **7277**: GL$3~$3b$3V$3 $3$2HL6aH [$802838 [$E$3L$P11e$@1v/u1-2:$3J$3J$3VL$P10Sv/u1-3:$P15=%aL=_Iv/$1117995v/u2-2:$141L$s$P15{v/u2-3:$O$P11e [-$17v/u2-3:$P11<$17V1bv/u2-3:$P11<$17V2bv/u2-3:$P11<$17V1av/u2-3:$P11<$17V2av/u3-1:$P11N%'v/u3-2:$P10/$P13G]v/$4719165i%7%'?v/u5-1:$EcLl$4v/u5-2:$P10"$EL%JDE$P11RB$Rv/u2-3_609:3$17$4h)g$P16_AD+=v/u600:$3$3C$3I$3$2?aq$3t$3@[$3X$3g$3C$3$3p$3N$3gv/100000 gil, please/ZONEp<Player>j$P13xE\`$o=1FI7i/All reset!]
- **7278**: m101$3t$3$3O%'DiE$3U[$3}$3XH [@OK$3t$3$3O/START$3t$3$3O/{L%@$sA=$3t$3$3O/$2$P16@$3$sA=$3t$3$3O/$2$P139 [$5$P13n5=$3t$3$3O/END$P12<c$3t$3$3O/All reset!]
- **7279**: m102$3t$3$3O%'DiE$3U[$3}$3XH [@OK$3t$3$3O/START$3t$3$3O/{L%@$sA=$3t$3$3O/$2$P16@$3$sA=$3t$3$3O/$P11S$20;k&D$0q>h$3$1[$3v/$2$P139 [$5$3J$3J$3VI$P13n5=$3t$3$3O/END$P12<c$3t$3$3O/All reset!]
- **7280**: m103$3t$3$3O%'DiE$3U[$3}$3XH [@OK$3t$3$3O/START$3t$3$3O/$P122%$3M$3 [$3h$sA=$3t$3$3O/$3M$3f$3A$3X$sA=$3t$3$3O/$P15@L%@Lp)=/END$P12<c$3t$3$3O/All reset!]
- **7281**: m201$3t$3$3O%'DiE$3U[$3}$3XH [@OK$3t$3$3O/START$3t$3$3O/$P16ZL%@$sA=$3t$3$3O/\`f\`_GET$3t$3$3O/$3J$3MGET$3t$3$3O/$2$P16@$3$3C$3x$3$3g$I%9$3t$3$3O/$"$+$mL%F$3C$3x$3$3g$I%9$3t$3$3O/END$P12<c$3t$3$3O/All reset!]
- **7282**: m202$3t$3$3O%'DiE$3U[$3}$3XH [@OK$3t$3$3O/START$3t$3$3O/$(L%@$sA=$3t$3$3O/$3^$3$3$3M$P11e [,$P12J$8$P14s/$3^$3$3$3M$P11e [,$P12J(TIME6$1%q5{100$P15C)/$3p$3$3X$3e$3B$3i$P16&$8$P14s/$3p$3$3X$3e$3B$3i$P16&(TIME6$1%q5{100$P15C)/$141$/OK$3t$3$3O/END$P12<c$3t$3$3O/All reset!]
- **7283**: m203$3t$3$3O%'DiE$3U[$3}$3XH [@OK$3t$3$3O/START$3t$3$3O/$P13VL$3$sA=$3t$3$3O/END$P12<c$3t$3$3O/$3T$3$3h$3$3A$sAD+=/All reset!]
- **7284**: @m203_609$3t$3$3O%'DiE$3U[$3}$3XH [@OK$3t$3$3O/$P15P$P15{5)$3N$3$3A$5"]
- **7285**: @m203_1Bi1%q$P16Zj$3t$3$3O%'DiE$3U[$3}$3XH [@OK$3t$3$3O/@$3o$3X$3g$3D[$3N%L$22$Y$sA=$3t$3$3O/$201548$sA=$3t$3$3O/@$3M$3f$3A$3Xlv2$sA=$3t$3$3O/@END$P12<c$3t$3$3O/@All reset!]
- **7286**: @m203_2Bi2%q$P16Zj$3t$3$3O%'DiE$3U[$3}$3XH [@OK$3t$3$3O/@$3o$3X$3g$3D[$3N%L$22$Y$sA=$3t$3$3O/$201548$sA=$3t$3$3O/@$3M$3f$3A$3Xlv3$sA=$3t$3$3O/@END$P12<c$3t$3$3O/@All reset!]
- **7287**: m203_1A(1%q$P16Z)$3t$3$3O%'DiE$3U[$3}$3XH [@OK$3t$3$3O/$3T$3$3h$3$3A%L$22$Y$sA=$3t$3$3O"$7L$2p$hI$P13|j=>//$3M$3f$3A$3Xlv2E$2$P16@$2p$P14[_=>//END$P12<c$3t$3$3O/All reset!]
- **7288**: m203_2A(2%q$P16Z)$3t$3$3O%'DiE$3U[$3}$3XH [@OK$3t$3$3O/$3T$3$3h$3$3A%L$22$Y$sA=$3t$3$3O/$P13VL$3$sA=$3t$3$3O/$3M$3f$3A$3Xlv3$sA=$3t$3$3O/END$P12<c$3t$3$3O/All reset!]
- **7289**: m301$3t$3$3O%'DiE$3U[$3}$3XH [@OK$3t$3$3O/START$3t$3$3O/$P13VL$3$sA=$3t$3$3O/$3I$3Y$3g$3$3$4$sA=$3t$3$3O/END$P12<c$3t$3$3O/All reset!]
- **7290**: m302$3t$3$3O%'DiE$3U[$3}$3XH [@OK$3t$3$3O/START$3t$3$3O/$P13VL$3$sA=$3t$3$3O/$2$P16@$3Q$sA=$3t$3$3O/END$P12<c$3t$3$3O"%q$P16Z$/=$3t$3$3O/All reset!]
- **7291**: m303$3t$3$3O%'DiE$3U[$3}$3XH [@OK$3t$3$3O"02$3N$3$3A$5"/START$3t$3$3O/$P13VL$3$sA=$3t$3$3O/$3998273$3t$3$3O/END$P12<c$3t$3$3O/All reset!]
- **7292**: m501$3t$3$3O%'DiE$3U[$3}$3XH [@OK$3t$3$3O/OK$3t$3$3O(MS3-2$6423136ADH")/$P13VL$3$sA=$3t$3$3O/$P13VL$3$sA=/G$P12fA=$3t$3$3O/$3K$7540293/=$3t$3$3O/$3t$3F$3C$3$13sA=$3t$3$3O/END$P12<c$3t$3$3O/11E3-2p$s/=gci$2$P13!%pj/All reset!]
- **7293**: m502$3t$3$3O%'DiE$3U[$3}$3XH [@OK$3t$3$3O/START/$P13VL$3$sA=$3t$3$3O/$3Y$3$3@$3998273$3t$3$3O/END$P12<c$3t$3$3O/All reset!]
- **7294**: ex [u6-1:v$P12<$P11O/u6-2:v$P12<$P11O/u7-1:v$P12<$P11O/u7-2:v$P12<$P11O/u8-1:v$P12<$P11O/u8-2:v$P12<$P11O/u9-1:v$P12<$P11O/u9-2:v$P12<$P11O/u9-2:$6816365]

## Events

### Event 65535

#### Metadata

| Field        | Value   |
|--------------|---------|
| Entrypoint   | 0x0000  |
| Data Size    | 1 bytes |
| Instructions | 1       |

```
      00 01 02 03 04 05 06 07  08 09 0A 0B 0C 0D 0E 0F
      -- -- -- -- -- -- -- --  -- -- -- -- -- -- -- --
0000: 00                                                .               
```

#### Opcodes

```
  0: 0x0000 [0x00] END_REQSTACK()
```

### Event 11

#### Metadata

| Field        | Value     |
|--------------|-----------|
| Entrypoint   | 0x0001    |
| Data Size    | 143 bytes |
| Instructions | 27        |

```
      00 01 02 03 04 05 06 07  08 09 0A 0B 0C 0D 0E 0F
      -- -- -- -- -- -- -- --  -- -- -- -- -- -- -- --
0000:    73 00 80 0A 20 0F 01  09 20 0F 01 24 01 80 02   s... ... ..$...
0010: 80 02 80 25 02 00 10 02  80 00 24 00 03 01 10 03  ...%......$.....
0020: 80 01 8C 00 02 00 10 04  80 00 36 00 29 0E 09 20  ..........6.).. 
0030: 0F 01 04 01 8C 00 02 00  10 05 80 00 48 00 29 0E  ............H.).
0040: 09 20 0F 01 02 01 8C 00  02 00 10 06 80 00 5A 00  . ............Z.
0050: 29 0E 09 20 0F 01 03 01  8C 00 02 00 10 07 80 00  ).. ............
0060: 6A 00 03 01 10 08 80 01  8C 00 02 00 10 09 80 00  j...............
0070: 7A 00 03 01 10 0A 80 01  8C 00 02 00 10 0B 80 00  z...............
0080: 8C 00 29 0E 09 20 0F 01  05 01 8C 00 20 00 21 00  ..).. ...... .!.
```

#### Opcodes

```
  0: 0x0001 [0x73] Unnamed NPC (ID: 17768458/0x010F200A) casts magic 252* on PRODUCER (ID: 17768457/0x010F2009)
  1: 0x000C [0x24] CREATE_DIALOG(message_id=575*, default_option=0*, option_flags=0*)
    → "I am zee Producah! [@Sah zee opening event/Missions/Wahp/Quest/Left the ZONE once/Ahhl reset!/EX Missions]"
  2: 0x0013 [0x25] WAIT_DIALOG_SELECT()
  3: 0x0014 [0x02] IF !(Work_Zone[0] == 0*) GOTO 0x0024
  4: 0x001C [0x03] Work_Zone[1] = 103*
  5: 0x0021 [0x01] GOTO 0x008C
  6: 0x0024 [0x02] IF !(Work_Zone[0] == 1*) GOTO 0x0036
  7: 0x002C [0x29] REQ_SET_WAIT(priority=0x0E, entity_id=PRODUCER (ID: 17768457/0x010F2009), tag_num=0x04)
  8: 0x0033 [0x01] GOTO 0x008C
  9: 0x0036 [0x02] IF !(Work_Zone[0] == 2*) GOTO 0x0048
 10: 0x003E [0x29] REQ_SET_WAIT(priority=0x0E, entity_id=PRODUCER (ID: 17768457/0x010F2009), tag_num=0x02)
 11: 0x0045 [0x01] GOTO 0x008C
 12: 0x0048 [0x02] IF !(Work_Zone[0] == 3*) GOTO 0x005A
 13: 0x0050 [0x29] REQ_SET_WAIT(priority=0x0E, entity_id=PRODUCER (ID: 17768457/0x010F2009), tag_num=0x03)
 14: 0x0057 [0x01] GOTO 0x008C
 15: 0x005A [0x02] IF !(Work_Zone[0] == 4*) GOTO 0x006A
 16: 0x0062 [0x03] Work_Zone[1] = 99*
 17: 0x0067 [0x01] GOTO 0x008C
 18: 0x006A [0x02] IF !(Work_Zone[0] == 5*) GOTO 0x007A
 19: 0x0072 [0x03] Work_Zone[1] = 100*
 20: 0x0077 [0x01] GOTO 0x008C
 21: 0x007A [0x02] IF !(Work_Zone[0] == 6*) GOTO 0x008C
 22: 0x0082 [0x29] REQ_SET_WAIT(priority=0x0E, entity_id=PRODUCER (ID: 17768457/0x010F2009), tag_num=0x05)
 23: 0x0089 [0x01] GOTO 0x008C

SUBROUTINE_008C:
 24: 0x008C [0x20] SET_CLI_EVENT_UC_FLAG: Unlock player control
 25: 0x008E [0x21] END_EVENT
 26: 0x008F [0x00] END_REQSTACK()
```

### Event 65535.1

#### Metadata

| Field        | Value     |
|--------------|-----------|
| Entrypoint   | 0x0090    |
| Data Size    | 120 bytes |
| Instructions | 23        |

```
      00 01 02 03 04 05 06 07  08 09 0A 0B 0C 0D 0E 0F
      -- -- -- -- -- -- -- --  -- -- -- -- -- -- -- --
0090: 24 0C 80 02 80 02 80 25  02 00 10 02 80 00 AA 00  $......%........
00A0: 29 09 F0 FF FF 7F 18 01  04 01 02 00 10 04 80 00  )...............
00B0: BC 00 29 09 F0 FF FF 7F  19 01 04 01 02 00 10 05  ..).............
00C0: 80 00 CE 00 29 09 F0 FF  FF 7F 1A 01 04 01 02 00  ....)...........
00D0: 10 06 80 00 E0 00 29 09  F0 FF FF 7F 1B 01 04 01  ......).........
00E0: 02 00 10 07 80 00 F2 00  29 09 F0 FF FF 7F 1D 01  ........).......
00F0: 04 01 02 00 10 09 80 00  04 01 29 09 F0 FF FF 7F  ..........).....
0100: 1C 01 04 01 20 00 21 00                           .... .!.        
```

#### Opcodes

```
  0: 0x0090 [0x24] CREATE_DIALOG(message_id=576*, default_option=0*, option_flags=0*)
    → "Wahp vhere? [Clerics/Ladiez/Orchahd/Stah Spring/Sibyl's room/Stahway Stairway]"
  1: 0x0097 [0x25] WAIT_DIALOG_SELECT()
  2: 0x0098 [0x02] IF !(Work_Zone[0] == 0*) GOTO 0x00AA
  3: 0x00A0 [0x29] REQ_SET_WAIT(priority=0x09, entity_id=LocalPlayer, tag_num=0x18)
  4: 0x00A7 [0x01] GOTO 0x0104
  5: 0x00AA [0x02] IF !(Work_Zone[0] == 1*) GOTO 0x00BC
  6: 0x00B2 [0x29] REQ_SET_WAIT(priority=0x09, entity_id=LocalPlayer, tag_num=0x19)
  7: 0x00B9 [0x01] GOTO 0x0104
  8: 0x00BC [0x02] IF !(Work_Zone[0] == 2*) GOTO 0x00CE
  9: 0x00C4 [0x29] REQ_SET_WAIT(priority=0x09, entity_id=LocalPlayer, tag_num=0x1A)
 10: 0x00CB [0x01] GOTO 0x0104
 11: 0x00CE [0x02] IF !(Work_Zone[0] == 3*) GOTO 0x00E0
 12: 0x00D6 [0x29] REQ_SET_WAIT(priority=0x09, entity_id=LocalPlayer, tag_num=0x1B)
 13: 0x00DD [0x01] GOTO 0x0104
 14: 0x00E0 [0x02] IF !(Work_Zone[0] == 4*) GOTO 0x00F2
 15: 0x00E8 [0x29] REQ_SET_WAIT(priority=0x09, entity_id=LocalPlayer, tag_num=0x1D)
 16: 0x00EF [0x01] GOTO 0x0104
 17: 0x00F2 [0x02] IF !(Work_Zone[0] == 5*) GOTO 0x0104
 18: 0x00FA [0x29] REQ_SET_WAIT(priority=0x09, entity_id=LocalPlayer, tag_num=0x1C)
 19: 0x0101 [0x01] GOTO 0x0104

SUBROUTINE_0104:
 20: 0x0104 [0x20] SET_CLI_EVENT_UC_FLAG: Unlock player control
 21: 0x0106 [0x21] END_EVENT
 22: 0x0107 [0x00] END_REQSTACK()
```

### Event 65535.2

#### Metadata

| Field        | Value     |
|--------------|-----------|
| Entrypoint   | 0x0108    |
| Data Size    | 219 bytes |
| Instructions | 41        |

```
      00 01 02 03 04 05 06 07  08 09 0A 0B 0C 0D 0E 0F
      -- -- -- -- -- -- -- --  -- -- -- -- -- -- -- --
0100:                          24 0D 80 02 80 02 80 25          $......%
0110: 02 00 10 02 80 00 27 01  29 09 F0 FF FF 7F 1A 03  ......'.).......
0120: 01 10 0E 80 01 DF 01 02  00 10 04 80 00 3E 01 29  .............>.)
0130: 09 F0 FF FF 7F 1A 03 01  10 0F 80 01 DF 01 02 00  ................
0140: 10 05 80 00 55 01 29 09  F0 FF FF 7F 1A 03 01 10  ....U.).........
0150: 10 80 01 DF 01 02 00 10  06 80 00 6C 01 29 09 F0  ...........l.)..
0160: FF FF 7F 1A 03 01 10 11  80 01 DF 01 02 00 10 07  ................
0170: 80 00 83 01 29 09 F0 FF  FF 7F 1A 03 01 10 12 80  ....)...........
0180: 01 DF 01 02 00 10 09 80  00 9A 01 29 09 F0 FF FF  ...........)....
0190: 7F 1A 03 01 10 13 80 01  DF 01 02 00 10 0B 80 00  ................
01A0: B1 01 29 09 F0 FF FF 7F  1A 03 01 10 14 80 01 DF  ..).............
01B0: 01 02 00 10 15 80 00 C8  01 29 09 F0 FF FF 7F 1A  .........)......
01C0: 03 01 10 16 80 01 DF 01  02 00 10 17 80 00 DF 01  ................
01D0: 29 09 F0 FF FF 7F 1A 03  01 10 18 80 01 DF 01 20  ).............. 
01E0: 00 21 00                                          .!.             
```

#### Opcodes

```
  0: 0x0108 [0x24] CREATE_DIALOG(message_id=578*, default_option=0*, option_flags=0*)
    → "GL$3N$3G$3X$3g$3U[$3}$3XH [km001:$s/=/km002:$s/=/km002:$s/D$3R$3 [$3$3 [$P15R$I%9c/km002:$P10l`$3Q$3b$3g/km003:$s/=/km003:$P106$Y$I%9/km003:$5%H<Player>K%$14s/=/km003:$3{$3X$P13|5=/km003:$P11S$20$I%9/ZONEp<Player>j$P13xE`$o=1FI7i/$3N$3G$3X$3gFLAGL]reset]"
  1: 0x010F [0x25] WAIT_DIALOG_SELECT()
  2: 0x0110 [0x02] IF !(Work_Zone[0] == 0*) GOTO 0x0127
  3: 0x0118 [0x29] REQ_SET_WAIT(priority=0x09, entity_id=LocalPlayer, tag_num=0x1A)
  4: 0x011F [0x03] Work_Zone[1] = 300*
  5: 0x0124 [0x01] GOTO 0x01DF
  6: 0x0127 [0x02] IF !(Work_Zone[0] == 1*) GOTO 0x013E
  7: 0x012F [0x29] REQ_SET_WAIT(priority=0x09, entity_id=LocalPlayer, tag_num=0x1A)
  8: 0x0136 [0x03] Work_Zone[1] = 301*
  9: 0x013B [0x01] GOTO 0x01DF
 10: 0x013E [0x02] IF !(Work_Zone[0] == 2*) GOTO 0x0155
 11: 0x0146 [0x29] REQ_SET_WAIT(priority=0x09, entity_id=LocalPlayer, tag_num=0x1A)
 12: 0x014D [0x03] Work_Zone[1] = 302*
 13: 0x0152 [0x01] GOTO 0x01DF
 14: 0x0155 [0x02] IF !(Work_Zone[0] == 3*) GOTO 0x016C
 15: 0x015D [0x29] REQ_SET_WAIT(priority=0x09, entity_id=LocalPlayer, tag_num=0x1A)
 16: 0x0164 [0x03] Work_Zone[1] = 303*
 17: 0x0169 [0x01] GOTO 0x01DF
 18: 0x016C [0x02] IF !(Work_Zone[0] == 4*) GOTO 0x0183
 19: 0x0174 [0x29] REQ_SET_WAIT(priority=0x09, entity_id=LocalPlayer, tag_num=0x1A)
 20: 0x017B [0x03] Work_Zone[1] = 304*
 21: 0x0180 [0x01] GOTO 0x01DF
 22: 0x0183 [0x02] IF !(Work_Zone[0] == 5*) GOTO 0x019A
 23: 0x018B [0x29] REQ_SET_WAIT(priority=0x09, entity_id=LocalPlayer, tag_num=0x1A)
 24: 0x0192 [0x03] Work_Zone[1] = 305*
 25: 0x0197 [0x01] GOTO 0x01DF
 26: 0x019A [0x02] IF !(Work_Zone[0] == 6*) GOTO 0x01B1
 27: 0x01A2 [0x29] REQ_SET_WAIT(priority=0x09, entity_id=LocalPlayer, tag_num=0x1A)
 28: 0x01A9 [0x03] Work_Zone[1] = 306*
 29: 0x01AE [0x01] GOTO 0x01DF
 30: 0x01B1 [0x02] IF !(Work_Zone[0] == 7*) GOTO 0x01C8
 31: 0x01B9 [0x29] REQ_SET_WAIT(priority=0x09, entity_id=LocalPlayer, tag_num=0x1A)
 32: 0x01C0 [0x03] Work_Zone[1] = 307*
 33: 0x01C5 [0x01] GOTO 0x01DF
 34: 0x01C8 [0x02] IF !(Work_Zone[0] == 8*) GOTO 0x01DF
 35: 0x01D0 [0x29] REQ_SET_WAIT(priority=0x09, entity_id=LocalPlayer, tag_num=0x1A)
 36: 0x01D7 [0x03] Work_Zone[1] = 308*
 37: 0x01DC [0x01] GOTO 0x01DF

SUBROUTINE_01DF:
 38: 0x01DF [0x20] SET_CLI_EVENT_UC_FLAG: Unlock player control
 39: 0x01E1 [0x21] END_EVENT
 40: 0x01E2 [0x00] END_REQSTACK()
```

### Event 65535.3

#### Metadata

| Field        | Value     |
|--------------|-----------|
| Entrypoint   | 0x01E3    |
| Data Size    | 368 bytes |
| Instructions | 67        |

```
      00 01 02 03 04 05 06 07  08 09 0A 0B 0C 0D 0E 0F
      -- -- -- -- -- -- -- --  -- -- -- -- -- -- -- --
01E0:          24 19 80 02 80  02 80 25 02 00 10 02 80     $......%.....
01F0: 00 FD 01 29 0A 09 20 0F  01 06 01 4F 03 02 00 10  ...).. ....O....
0200: 04 80 00 0F 02 29 0A 09  20 0F 01 07 01 4F 03 02  .....).. ....O..
0210: 00 10 05 80 00 21 02 29  0A 09 20 0F 01 08 01 4F  .....!.).. ....O
0220: 03 02 00 10 06 80 00 33  02 29 0A 09 20 0F 01 09  .......3.).. ...
0230: 01 4F 03 02 00 10 07 80  00 45 02 29 0A 09 20 0F  .O.......E.).. .
0240: 01 0A 01 4F 03 02 00 10  09 80 00 57 02 29 0A 09  ...O.......W.)..
0250: 20 0F 01 0B 01 4F 03 02  00 10 0B 80 00 69 02 29   ....O.......i.)
0260: 0A 09 20 0F 01 0C 01 4F  03 02 00 10 15 80 00 7B  .. ....O.......{
0270: 02 29 0A 09 20 0F 01 0D  01 4F 03 02 00 10 17 80  .).. ....O......
0280: 00 8D 02 29 0A 09 20 0F  01 13 01 4F 03 02 00 10  ...).. ....O....
0290: 1A 80 00 9F 02 29 0A 09  20 0F 01 14 01 4F 03 02  .....).. ....O..
02A0: 00 10 1B 80 00 B1 02 29  0A 09 20 0F 01 0E 01 4F  .......).. ....O
02B0: 03 02 00 10 1C 80 00 C3  02 29 0A 09 20 0F 01 0F  .........).. ...
02C0: 01 4F 03 02 00 10 1D 80  00 D5 02 29 0A 09 20 0F  .O.........).. .
02D0: 01 10 01 4F 03 02 00 10  1E 80 00 E7 02 29 0A 09  ...O.........)..
02E0: 20 0F 01 11 01 4F 03 02  00 10 1F 80 00 F9 02 29   ....O.........)
02F0: 0A 09 20 0F 01 12 01 4F  03 02 00 10 20 80 00 0B  .. ....O.... ...
0300: 03 29 0A 09 20 0F 01 15  01 4F 03 02 00 10 21 80  .).. ....O....!.
0310: 00 1B 03 03 01 10 22 80  01 4F 03 02 00 10 23 80  ......"..O....#.
0320: 00 2B 03 03 01 10 24 80  01 4F 03 02 00 10 25 80  .+....$..O....%.
0330: 00 3B 03 03 01 10 08 80  01 4F 03 02 00 10 26 80  .;.......O....&.
0340: 00 4F 03 1D 27 80 23 03  01 10 0A 80 01 4F 03 20  .O..'.#......O. 
0350: 00 21 00                                          .!.             
```

#### Opcodes

```
  0: 0x01E3 [0x24] CREATE_DIALOG(message_id=7277*, default_option=0*, option_flags=0*)
    → "GL$3~$3b$3V$3 $3$2HL6aH [$802838 [$E$3L$P11e$@1v/u1-2:$3J$3J$3VL$P10Sv/u1-3:$P15=%aL=_Iv/$1117995v/u2-2:$141L$s$P15{v/u2-3:$O$P11e [-$17v/u2-3:$P11<$17V1bv/u2-3:$P11<$17V2bv/u2-3:$P11<$17V1av/u2-3:$P11<$17V2av/u3-1:$P11N%'v/u3-2:$P10/$P13G]v/$4719165i%7%'?v/u5-1:$EcLl$4v/u5-2:$P10"$EL%JDE$P11RB$Rv/u2-3_609:3$17$4h)g$P16_AD+=v/u600:$3$3C$3I$3$2?aq$3t$3@[$3X$3g$3C$3$3p$3N$3gv/100000 gil, please/ZONEp<Player>j$P13xE`$o=1FI7i/All reset!]"
  1: 0x01EA [0x25] WAIT_DIALOG_SELECT()
  2: 0x01EB [0x02] IF !(Work_Zone[0] == 0*) GOTO 0x01FD
  3: 0x01F3 [0x29] REQ_SET_WAIT(priority=0x0A, entity_id=PRODUCER (ID: 17768457/0x010F2009), tag_num=0x06)
  4: 0x01FA [0x01] GOTO 0x034F
  5: 0x01FD [0x02] IF !(Work_Zone[0] == 1*) GOTO 0x020F
  6: 0x0205 [0x29] REQ_SET_WAIT(priority=0x0A, entity_id=PRODUCER (ID: 17768457/0x010F2009), tag_num=0x07)
  7: 0x020C [0x01] GOTO 0x034F
  8: 0x020F [0x02] IF !(Work_Zone[0] == 2*) GOTO 0x0221
  9: 0x0217 [0x29] REQ_SET_WAIT(priority=0x0A, entity_id=PRODUCER (ID: 17768457/0x010F2009), tag_num=0x08)
 10: 0x021E [0x01] GOTO 0x034F
 11: 0x0221 [0x02] IF !(Work_Zone[0] == 3*) GOTO 0x0233
 12: 0x0229 [0x29] REQ_SET_WAIT(priority=0x0A, entity_id=PRODUCER (ID: 17768457/0x010F2009), tag_num=0x09)
 13: 0x0230 [0x01] GOTO 0x034F
 14: 0x0233 [0x02] IF !(Work_Zone[0] == 4*) GOTO 0x0245
 15: 0x023B [0x29] REQ_SET_WAIT(priority=0x0A, entity_id=PRODUCER (ID: 17768457/0x010F2009), tag_num=0x0A)
 16: 0x0242 [0x01] GOTO 0x034F
 17: 0x0245 [0x02] IF !(Work_Zone[0] == 5*) GOTO 0x0257
 18: 0x024D [0x29] REQ_SET_WAIT(priority=0x0A, entity_id=PRODUCER (ID: 17768457/0x010F2009), tag_num=0x0B)
 19: 0x0254 [0x01] GOTO 0x034F
 20: 0x0257 [0x02] IF !(Work_Zone[0] == 6*) GOTO 0x0269
 21: 0x025F [0x29] REQ_SET_WAIT(priority=0x0A, entity_id=PRODUCER (ID: 17768457/0x010F2009), tag_num=0x0C)
 22: 0x0266 [0x01] GOTO 0x034F
 23: 0x0269 [0x02] IF !(Work_Zone[0] == 7*) GOTO 0x027B
 24: 0x0271 [0x29] REQ_SET_WAIT(priority=0x0A, entity_id=PRODUCER (ID: 17768457/0x010F2009), tag_num=0x0D)
 25: 0x0278 [0x01] GOTO 0x034F
 26: 0x027B [0x02] IF !(Work_Zone[0] == 8*) GOTO 0x028D
 27: 0x0283 [0x29] REQ_SET_WAIT(priority=0x0A, entity_id=PRODUCER (ID: 17768457/0x010F2009), tag_num=0x13)
 28: 0x028A [0x01] GOTO 0x034F
 29: 0x028D [0x02] IF !(Work_Zone[0] == 9*) GOTO 0x029F
 30: 0x0295 [0x29] REQ_SET_WAIT(priority=0x0A, entity_id=PRODUCER (ID: 17768457/0x010F2009), tag_num=0x14)
 31: 0x029C [0x01] GOTO 0x034F
 32: 0x029F [0x02] IF !(Work_Zone[0] == 10*) GOTO 0x02B1
 33: 0x02A7 [0x29] REQ_SET_WAIT(priority=0x0A, entity_id=PRODUCER (ID: 17768457/0x010F2009), tag_num=0x0E)
 34: 0x02AE [0x01] GOTO 0x034F
 35: 0x02B1 [0x02] IF !(Work_Zone[0] == 11*) GOTO 0x02C3
 36: 0x02B9 [0x29] REQ_SET_WAIT(priority=0x0A, entity_id=PRODUCER (ID: 17768457/0x010F2009), tag_num=0x0F)
 37: 0x02C0 [0x01] GOTO 0x034F
 38: 0x02C3 [0x02] IF !(Work_Zone[0] == 12*) GOTO 0x02D5
 39: 0x02CB [0x29] REQ_SET_WAIT(priority=0x0A, entity_id=PRODUCER (ID: 17768457/0x010F2009), tag_num=0x10)
 40: 0x02D2 [0x01] GOTO 0x034F
 41: 0x02D5 [0x02] IF !(Work_Zone[0] == 13*) GOTO 0x02E7
 42: 0x02DD [0x29] REQ_SET_WAIT(priority=0x0A, entity_id=PRODUCER (ID: 17768457/0x010F2009), tag_num=0x11)
 43: 0x02E4 [0x01] GOTO 0x034F
 44: 0x02E7 [0x02] IF !(Work_Zone[0] == 14*) GOTO 0x02F9
 45: 0x02EF [0x29] REQ_SET_WAIT(priority=0x0A, entity_id=PRODUCER (ID: 17768457/0x010F2009), tag_num=0x12)
 46: 0x02F6 [0x01] GOTO 0x034F
 47: 0x02F9 [0x02] IF !(Work_Zone[0] == 15*) GOTO 0x030B
 48: 0x0301 [0x29] REQ_SET_WAIT(priority=0x0A, entity_id=PRODUCER (ID: 17768457/0x010F2009), tag_num=0x15)
 49: 0x0308 [0x01] GOTO 0x034F
 50: 0x030B [0x02] IF !(Work_Zone[0] == 16*) GOTO 0x031B
 51: 0x0313 [0x03] Work_Zone[1] = 95*
 52: 0x0318 [0x01] GOTO 0x034F
 53: 0x031B [0x02] IF !(Work_Zone[0] == 17*) GOTO 0x032B
 54: 0x0323 [0x03] Work_Zone[1] = 205*
 55: 0x0328 [0x01] GOTO 0x034F
 56: 0x032B [0x02] IF !(Work_Zone[0] == 18*) GOTO 0x033B
 57: 0x0333 [0x03] Work_Zone[1] = 99*
 58: 0x0338 [0x01] GOTO 0x034F
 59: 0x033B [0x02] IF !(Work_Zone[0] == 19*) GOTO 0x034F
 60: 0x0343 [0x1D] PRINT_EVENT_MESSAGE(message_id=7274*)
    → "Oh no! Your Adventurers' certificate vanished!"
 61: 0x0346 [0x23] WAIT_FOR_DIALOG_INTERACTION
 62: 0x0347 [0x03] Work_Zone[1] = 100*
 63: 0x034C [0x01] GOTO 0x034F

SUBROUTINE_034F:
 64: 0x034F [0x20] SET_CLI_EVENT_UC_FLAG: Unlock player control
 65: 0x0351 [0x21] END_EVENT
 66: 0x0352 [0x00] END_REQSTACK()
```

### Event 65535.4

#### Metadata

| Field        | Value     |
|--------------|-----------|
| Entrypoint   | 0x0353    |
| Data Size    | 156 bytes |
| Instructions | 32        |

```
      00 01 02 03 04 05 06 07  08 09 0A 0B 0C 0D 0E 0F
      -- -- -- -- -- -- -- --  -- -- -- -- -- -- -- --
0350:          24 28 80 02 80  02 80 25 02 00 10 02 80     $(.....%.....
0360: 00 6B 03 03 01 10 0E 80  01 EB 03 02 00 10 04 80  .k..............
0370: 00 7B 03 03 01 10 0F 80  01 EB 03 02 00 10 05 80  .{..............
0380: 00 8B 03 03 01 10 10 80  01 EB 03 02 00 10 06 80  ................
0390: 00 9B 03 03 01 10 11 80  01 EB 03 02 00 10 07 80  ................
03A0: 00 AB 03 03 01 10 12 80  01 EB 03 02 00 10 09 80  ................
03B0: 00 BB 03 03 01 10 13 80  01 EB 03 02 00 10 0B 80  ................
03C0: 00 CB 03 03 01 10 14 80  01 EB 03 02 00 10 15 80  ................
03D0: 00 DB 03 03 01 10 16 80  01 EB 03 02 00 10 17 80  ................
03E0: 00 EB 03 03 01 10 18 80  01 EB 03 20 00 21 00     ........... .!. 
```

#### Opcodes

```
  0: 0x0353 [0x24] CREATE_DIALOG(message_id=7294*, default_option=0*, option_flags=0*)
    → "ex [u6-1:v$P12<$P11O/u6-2:v$P12<$P11O/u7-1:v$P12<$P11O/u7-2:v$P12<$P11O/u8-1:v$P12<$P11O/u8-2:v$P12<$P11O/u9-1:v$P12<$P11O/u9-2:v$P12<$P11O/u9-2:$6816365]"
  1: 0x035A [0x25] WAIT_DIALOG_SELECT()
  2: 0x035B [0x02] IF !(Work_Zone[0] == 0*) GOTO 0x036B
  3: 0x0363 [0x03] Work_Zone[1] = 300*
  4: 0x0368 [0x01] GOTO 0x03EB
  5: 0x036B [0x02] IF !(Work_Zone[0] == 1*) GOTO 0x037B
  6: 0x0373 [0x03] Work_Zone[1] = 301*
  7: 0x0378 [0x01] GOTO 0x03EB
  8: 0x037B [0x02] IF !(Work_Zone[0] == 2*) GOTO 0x038B
  9: 0x0383 [0x03] Work_Zone[1] = 302*
 10: 0x0388 [0x01] GOTO 0x03EB
 11: 0x038B [0x02] IF !(Work_Zone[0] == 3*) GOTO 0x039B
 12: 0x0393 [0x03] Work_Zone[1] = 303*
 13: 0x0398 [0x01] GOTO 0x03EB
 14: 0x039B [0x02] IF !(Work_Zone[0] == 4*) GOTO 0x03AB
 15: 0x03A3 [0x03] Work_Zone[1] = 304*
 16: 0x03A8 [0x01] GOTO 0x03EB
 17: 0x03AB [0x02] IF !(Work_Zone[0] == 5*) GOTO 0x03BB
 18: 0x03B3 [0x03] Work_Zone[1] = 305*
 19: 0x03B8 [0x01] GOTO 0x03EB
 20: 0x03BB [0x02] IF !(Work_Zone[0] == 6*) GOTO 0x03CB
 21: 0x03C3 [0x03] Work_Zone[1] = 306*
 22: 0x03C8 [0x01] GOTO 0x03EB
 23: 0x03CB [0x02] IF !(Work_Zone[0] == 7*) GOTO 0x03DB
 24: 0x03D3 [0x03] Work_Zone[1] = 307*
 25: 0x03D8 [0x01] GOTO 0x03EB
 26: 0x03DB [0x02] IF !(Work_Zone[0] == 8*) GOTO 0x03EB
 27: 0x03E3 [0x03] Work_Zone[1] = 308*
 28: 0x03E8 [0x01] GOTO 0x03EB

SUBROUTINE_03EB:
 29: 0x03EB [0x20] SET_CLI_EVENT_UC_FLAG: Unlock player control
 30: 0x03ED [0x21] END_EVENT
 31: 0x03EE [0x00] END_REQSTACK()
```

### Event 65535.5

#### Metadata

| Field        | Value     |
|--------------|-----------|
| Entrypoint   | 0x03EF    |
| Data Size    | 132 bytes |
| Instructions | 30        |

```
      00 01 02 03 04 05 06 07  08 09 0A 0B 0C 0D 0E 0F
      -- -- -- -- -- -- -- --  -- -- -- -- -- -- -- --
03E0:                                               24                 $
03F0: 29 80 02 80 02 80 25 02  00 10 02 80 00 0B 04 1D  ).....%.........
0400: 2A 80 23 03 01 10 1C 80  01 6F 04 02 00 10 04 80  *.#......o......
0410: 00 1B 04 03 01 10 1D 80  01 6F 04 02 00 10 05 80  .........o......
0420: 00 2B 04 03 01 10 1E 80  01 6F 04 02 00 10 06 80  .+.......o......
0430: 00 3B 04 03 01 10 1F 80  01 6F 04 02 00 10 07 80  .;.......o......
0440: 00 4B 04 03 01 10 20 80  01 6F 04 02 00 10 09 80  .K.... ..o......
0450: 00 5B 04 03 01 10 21 80  01 6F 04 02 00 10 0B 80  .[....!..o......
0460: 00 6F 04 1D 27 80 23 03  01 10 0A 80 01 6F 04 20  .o..'.#......o. 
0470: 00 21 00                                          .!.             
```

#### Opcodes

```
  0: 0x03EF [0x24] CREATE_DIALOG(message_id=7278*, default_option=0*, option_flags=0*)
    → "m101$3t$3$3O%'DiE$3U[$3}$3XH [@OK$3t$3$3O/START$3t$3$3O/{L%@$sA=$3t$3$3O/$2$P16@$3$sA=$3t$3$3O/$2$P139 [$5$P13n5=$3t$3$3O/END$P12<c$3t$3$3O/All reset!]"
  1: 0x03F6 [0x25] WAIT_DIALOG_SELECT()
  2: 0x03F7 [0x02] IF !(Work_Zone[0] == 0*) GOTO 0x040B
  3: 0x03FF [0x1D] PRINT_EVENT_MESSAGE(message_id=7273*)
    → "Abracadabra!"
  4: 0x0402 [0x23] WAIT_FOR_DIALOG_INTERACTION
  5: 0x0403 [0x03] Work_Zone[1] = 11*
  6: 0x0408 [0x01] GOTO 0x046F
  7: 0x040B [0x02] IF !(Work_Zone[0] == 1*) GOTO 0x041B
  8: 0x0413 [0x03] Work_Zone[1] = 12*
  9: 0x0418 [0x01] GOTO 0x046F
 10: 0x041B [0x02] IF !(Work_Zone[0] == 2*) GOTO 0x042B
 11: 0x0423 [0x03] Work_Zone[1] = 13*
 12: 0x0428 [0x01] GOTO 0x046F
 13: 0x042B [0x02] IF !(Work_Zone[0] == 3*) GOTO 0x043B
 14: 0x0433 [0x03] Work_Zone[1] = 14*
 15: 0x0438 [0x01] GOTO 0x046F
 16: 0x043B [0x02] IF !(Work_Zone[0] == 4*) GOTO 0x044B
 17: 0x0443 [0x03] Work_Zone[1] = 15*
 18: 0x0448 [0x01] GOTO 0x046F
 19: 0x044B [0x02] IF !(Work_Zone[0] == 5*) GOTO 0x045B
 20: 0x0453 [0x03] Work_Zone[1] = 16*
 21: 0x0458 [0x01] GOTO 0x046F
 22: 0x045B [0x02] IF !(Work_Zone[0] == 6*) GOTO 0x046F
 23: 0x0463 [0x1D] PRINT_EVENT_MESSAGE(message_id=7274*)
    → "Oh no! Your Adventurers' certificate vanished!"
 24: 0x0466 [0x23] WAIT_FOR_DIALOG_INTERACTION
 25: 0x0467 [0x03] Work_Zone[1] = 100*
 26: 0x046C [0x01] GOTO 0x046F

SUBROUTINE_046F:
 27: 0x046F [0x20] SET_CLI_EVENT_UC_FLAG: Unlock player control
 28: 0x0471 [0x21] END_EVENT
 29: 0x0472 [0x00] END_REQSTACK()
```

### Event 65535.6

#### Metadata

| Field        | Value     |
|--------------|-----------|
| Entrypoint   | 0x0473    |
| Data Size    | 148 bytes |
| Instructions | 33        |

```
      00 01 02 03 04 05 06 07  08 09 0A 0B 0C 0D 0E 0F
      -- -- -- -- -- -- -- --  -- -- -- -- -- -- -- --
0470:          24 2B 80 02 80  02 80 25 02 00 10 02 80     $+.....%.....
0480: 00 8F 04 1D 2A 80 23 03  01 10 23 80 01 03 05 02  ....*.#...#.....
0490: 00 10 04 80 00 9F 04 03  01 10 25 80 01 03 05 02  ..........%.....
04A0: 00 10 05 80 00 AF 04 03  01 10 26 80 01 03 05 02  ..........&.....
04B0: 00 10 06 80 00 BF 04 03  01 10 2C 80 01 03 05 02  ..........,.....
04C0: 00 10 07 80 00 CF 04 03  01 10 2D 80 01 03 05 02  ..........-.....
04D0: 00 10 09 80 00 DF 04 03  01 10 2E 80 01 03 05 02  ................
04E0: 00 10 0B 80 00 EF 04 03  01 10 2F 80 01 03 05 02  ........../.....
04F0: 00 10 15 80 00 03 05 1D  27 80 23 03 01 10 0A 80  ........'.#.....
0500: 01 03 05 20 00 21 00                              ... .!.         
```

#### Opcodes

```
  0: 0x0473 [0x24] CREATE_DIALOG(message_id=7279*, default_option=0*, option_flags=0*)
    → "m102$3t$3$3O%'DiE$3U[$3}$3XH [@OK$3t$3$3O/START$3t$3$3O/{L%@$sA=$3t$3$3O/$2$P16@$3$sA=$3t$3$3O/$P11S$20;k&D$0q>h$3$1[$3v/$2$P139 [$5$3J$3J$3VI$P13n5=$3t$3$3O/END$P12<c$3t$3$3O/All reset!]"
  1: 0x047A [0x25] WAIT_DIALOG_SELECT()
  2: 0x047B [0x02] IF !(Work_Zone[0] == 0*) GOTO 0x048F
  3: 0x0483 [0x1D] PRINT_EVENT_MESSAGE(message_id=7273*)
    → "Abracadabra!"
  4: 0x0486 [0x23] WAIT_FOR_DIALOG_INTERACTION
  5: 0x0487 [0x03] Work_Zone[1] = 17*
  6: 0x048C [0x01] GOTO 0x0503
  7: 0x048F [0x02] IF !(Work_Zone[0] == 1*) GOTO 0x049F
  8: 0x0497 [0x03] Work_Zone[1] = 18*
  9: 0x049C [0x01] GOTO 0x0503
 10: 0x049F [0x02] IF !(Work_Zone[0] == 2*) GOTO 0x04AF
 11: 0x04A7 [0x03] Work_Zone[1] = 19*
 12: 0x04AC [0x01] GOTO 0x0503
 13: 0x04AF [0x02] IF !(Work_Zone[0] == 3*) GOTO 0x04BF
 14: 0x04B7 [0x03] Work_Zone[1] = 20*
 15: 0x04BC [0x01] GOTO 0x0503
 16: 0x04BF [0x02] IF !(Work_Zone[0] == 4*) GOTO 0x04CF
 17: 0x04C7 [0x03] Work_Zone[1] = 109*
 18: 0x04CC [0x01] GOTO 0x0503
 19: 0x04CF [0x02] IF !(Work_Zone[0] == 5*) GOTO 0x04DF
 20: 0x04D7 [0x03] Work_Zone[1] = 21*
 21: 0x04DC [0x01] GOTO 0x0503
 22: 0x04DF [0x02] IF !(Work_Zone[0] == 6*) GOTO 0x04EF
 23: 0x04E7 [0x03] Work_Zone[1] = 22*
 24: 0x04EC [0x01] GOTO 0x0503
 25: 0x04EF [0x02] IF !(Work_Zone[0] == 7*) GOTO 0x0503
 26: 0x04F7 [0x1D] PRINT_EVENT_MESSAGE(message_id=7274*)
    → "Oh no! Your Adventurers' certificate vanished!"
 27: 0x04FA [0x23] WAIT_FOR_DIALOG_INTERACTION
 28: 0x04FB [0x03] Work_Zone[1] = 100*
 29: 0x0500 [0x01] GOTO 0x0503

SUBROUTINE_0503:
 30: 0x0503 [0x20] SET_CLI_EVENT_UC_FLAG: Unlock player control
 31: 0x0505 [0x21] END_EVENT
 32: 0x0506 [0x00] END_REQSTACK()
```

### Event 65535.7

#### Metadata

| Field        | Value     |
|--------------|-----------|
| Entrypoint   | 0x0507    |
| Data Size    | 132 bytes |
| Instructions | 30        |

```
      00 01 02 03 04 05 06 07  08 09 0A 0B 0C 0D 0E 0F
      -- -- -- -- -- -- -- --  -- -- -- -- -- -- -- --
0500:                      24  30 80 02 80 02 80 25 02         $0.....%.
0510: 00 10 02 80 00 23 05 1D  2A 80 23 03 01 10 31 80  .....#..*.#...1.
0520: 01 87 05 02 00 10 04 80  00 33 05 03 01 10 32 80  .........3....2.
0530: 01 87 05 02 00 10 05 80  00 43 05 03 01 10 33 80  .........C....3.
0540: 01 87 05 02 00 10 06 80  00 53 05 03 01 10 34 80  .........S....4.
0550: 01 87 05 02 00 10 07 80  00 63 05 03 01 10 35 80  .........c....5.
0560: 01 87 05 02 00 10 09 80  00 73 05 03 01 10 36 80  .........s....6.
0570: 01 87 05 02 00 10 0B 80  00 87 05 1D 27 80 23 03  ............'.#.
0580: 01 10 0A 80 01 87 05 20  00 21 00                 ....... .!.     
```

#### Opcodes

```
  0: 0x0507 [0x24] CREATE_DIALOG(message_id=7280*, default_option=0*, option_flags=0*)
    → "m103$3t$3$3O%'DiE$3U[$3}$3XH [@OK$3t$3$3O/START$3t$3$3O/$P122%$3M$3 [$3h$sA=$3t$3$3O/$3M$3f$3A$3X$sA=$3t$3$3O/$P15@L%@Lp)=/END$P12<c$3t$3$3O/All reset!]"
  1: 0x050E [0x25] WAIT_DIALOG_SELECT()
  2: 0x050F [0x02] IF !(Work_Zone[0] == 0*) GOTO 0x0523
  3: 0x0517 [0x1D] PRINT_EVENT_MESSAGE(message_id=7273*)
    → "Abracadabra!"
  4: 0x051A [0x23] WAIT_FOR_DIALOG_INTERACTION
  5: 0x051B [0x03] Work_Zone[1] = 23*
  6: 0x0520 [0x01] GOTO 0x0587
  7: 0x0523 [0x02] IF !(Work_Zone[0] == 1*) GOTO 0x0533
  8: 0x052B [0x03] Work_Zone[1] = 24*
  9: 0x0530 [0x01] GOTO 0x0587
 10: 0x0533 [0x02] IF !(Work_Zone[0] == 2*) GOTO 0x0543
 11: 0x053B [0x03] Work_Zone[1] = 25*
 12: 0x0540 [0x01] GOTO 0x0587
 13: 0x0543 [0x02] IF !(Work_Zone[0] == 3*) GOTO 0x0553
 14: 0x054B [0x03] Work_Zone[1] = 26*
 15: 0x0550 [0x01] GOTO 0x0587
 16: 0x0553 [0x02] IF !(Work_Zone[0] == 4*) GOTO 0x0563
 17: 0x055B [0x03] Work_Zone[1] = 96*
 18: 0x0560 [0x01] GOTO 0x0587
 19: 0x0563 [0x02] IF !(Work_Zone[0] == 5*) GOTO 0x0573
 20: 0x056B [0x03] Work_Zone[1] = 27*
 21: 0x0570 [0x01] GOTO 0x0587
 22: 0x0573 [0x02] IF !(Work_Zone[0] == 6*) GOTO 0x0587
 23: 0x057B [0x1D] PRINT_EVENT_MESSAGE(message_id=7274*)
    → "Oh no! Your Adventurers' certificate vanished!"
 24: 0x057E [0x23] WAIT_FOR_DIALOG_INTERACTION
 25: 0x057F [0x03] Work_Zone[1] = 100*
 26: 0x0584 [0x01] GOTO 0x0587

SUBROUTINE_0587:
 27: 0x0587 [0x20] SET_CLI_EVENT_UC_FLAG: Unlock player control
 28: 0x0589 [0x21] END_EVENT
 29: 0x058A [0x00] END_REQSTACK()
```

### Event 65535.8

#### Metadata

| Field        | Value     |
|--------------|-----------|
| Entrypoint   | 0x058B    |
| Data Size    | 164 bytes |
| Instructions | 36        |

```
      00 01 02 03 04 05 06 07  08 09 0A 0B 0C 0D 0E 0F
      -- -- -- -- -- -- -- --  -- -- -- -- -- -- -- --
0580:                                   24 37 80 02 80             $7...
0590: 02 80 25 02 00 10 02 80  00 A7 05 1D 2A 80 23 03  ..%.........*.#.
05A0: 01 10 38 80 01 2B 06 02  00 10 04 80 00 B7 05 03  ..8..+..........
05B0: 01 10 39 80 01 2B 06 02  00 10 05 80 00 C7 05 03  ..9..+..........
05C0: 01 10 3A 80 01 2B 06 02  00 10 06 80 00 D7 05 03  ..:..+..........
05D0: 01 10 3B 80 01 2B 06 02  00 10 07 80 00 E7 05 03  ..;..+..........
05E0: 01 10 3C 80 01 2B 06 02  00 10 09 80 00 F7 05 03  ..<..+..........
05F0: 01 10 3D 80 01 2B 06 02  00 10 0B 80 00 07 06 03  ..=..+..........
0600: 01 10 3E 80 01 2B 06 02  00 10 15 80 00 17 06 03  ..>..+..........
0610: 01 10 3F 80 01 2B 06 02  00 10 17 80 00 2B 06 1D  ..?..+.......+..
0620: 27 80 23 03 01 10 0A 80  01 2B 06 20 00 21 00     '.#......+. .!. 
```

#### Opcodes

```
  0: 0x058B [0x24] CREATE_DIALOG(message_id=7281*, default_option=0*, option_flags=0*)
    → "m201$3t$3$3O%'DiE$3U[$3}$3XH [@OK$3t$3$3O/START$3t$3$3O/$P16ZL%@$sA=$3t$3$3O/`f`_GET$3t$3$3O/$3J$3MGET$3t$3$3O/$2$P16@$3$3C$3x$3$3g$I%9$3t$3$3O/$"$+$mL%F$3C$3x$3$3g$I%9$3t$3$3O/END$P12<c$3t$3$3O/All reset!]"
  1: 0x0592 [0x25] WAIT_DIALOG_SELECT()
  2: 0x0593 [0x02] IF !(Work_Zone[0] == 0*) GOTO 0x05A7
  3: 0x059B [0x1D] PRINT_EVENT_MESSAGE(message_id=7273*)
    → "Abracadabra!"
  4: 0x059E [0x23] WAIT_FOR_DIALOG_INTERACTION
  5: 0x059F [0x03] Work_Zone[1] = 28*
  6: 0x05A4 [0x01] GOTO 0x062B
  7: 0x05A7 [0x02] IF !(Work_Zone[0] == 1*) GOTO 0x05B7
  8: 0x05AF [0x03] Work_Zone[1] = 29*
  9: 0x05B4 [0x01] GOTO 0x062B
 10: 0x05B7 [0x02] IF !(Work_Zone[0] == 2*) GOTO 0x05C7
 11: 0x05BF [0x03] Work_Zone[1] = 30*
 12: 0x05C4 [0x01] GOTO 0x062B
 13: 0x05C7 [0x02] IF !(Work_Zone[0] == 3*) GOTO 0x05D7
 14: 0x05CF [0x03] Work_Zone[1] = 97*
 15: 0x05D4 [0x01] GOTO 0x062B
 16: 0x05D7 [0x02] IF !(Work_Zone[0] == 4*) GOTO 0x05E7
 17: 0x05DF [0x03] Work_Zone[1] = 31*
 18: 0x05E4 [0x01] GOTO 0x062B
 19: 0x05E7 [0x02] IF !(Work_Zone[0] == 5*) GOTO 0x05F7
 20: 0x05EF [0x03] Work_Zone[1] = 32*
 21: 0x05F4 [0x01] GOTO 0x062B
 22: 0x05F7 [0x02] IF !(Work_Zone[0] == 6*) GOTO 0x0607
 23: 0x05FF [0x03] Work_Zone[1] = 33*
 24: 0x0604 [0x01] GOTO 0x062B
 25: 0x0607 [0x02] IF !(Work_Zone[0] == 7*) GOTO 0x0617
 26: 0x060F [0x03] Work_Zone[1] = 34*
 27: 0x0614 [0x01] GOTO 0x062B
 28: 0x0617 [0x02] IF !(Work_Zone[0] == 8*) GOTO 0x062B
 29: 0x061F [0x1D] PRINT_EVENT_MESSAGE(message_id=7274*)
    → "Oh no! Your Adventurers' certificate vanished!"
 30: 0x0622 [0x23] WAIT_FOR_DIALOG_INTERACTION
 31: 0x0623 [0x03] Work_Zone[1] = 100*
 32: 0x0628 [0x01] GOTO 0x062B

SUBROUTINE_062B:
 33: 0x062B [0x20] SET_CLI_EVENT_UC_FLAG: Unlock player control
 34: 0x062D [0x21] END_EVENT
 35: 0x062E [0x00] END_REQSTACK()
```

### Event 65535.9

#### Metadata

| Field        | Value     |
|--------------|-----------|
| Entrypoint   | 0x062F    |
| Data Size    | 180 bytes |
| Instructions | 39        |

```
      00 01 02 03 04 05 06 07  08 09 0A 0B 0C 0D 0E 0F
      -- -- -- -- -- -- -- --  -- -- -- -- -- -- -- --
0620:                                               24                 $
0630: 40 80 02 80 02 80 25 02  00 10 02 80 00 4B 06 1D  @.....%......K..
0640: 2A 80 23 03 01 10 41 80  01 DF 06 02 00 10 04 80  *.#...A.........
0650: 00 5B 06 03 01 10 42 80  01 DF 06 02 00 10 05 80  .[....B.........
0660: 00 6B 06 03 01 10 43 80  01 DF 06 02 00 10 06 80  .k....C.........
0670: 00 7B 06 03 01 10 44 80  01 DF 06 02 00 10 07 80  .{....D.........
0680: 00 8B 06 03 01 10 45 80  01 DF 06 02 00 10 09 80  ......E.........
0690: 00 9B 06 03 01 10 46 80  01 DF 06 02 00 10 0B 80  ......F.........
06A0: 00 AB 06 03 01 10 47 80  01 DF 06 02 00 10 15 80  ......G.........
06B0: 00 BB 06 03 01 10 48 80  01 DF 06 02 00 10 17 80  ......H.........
06C0: 00 CB 06 03 01 10 49 80  01 DF 06 02 00 10 1A 80  ......I.........
06D0: 00 DF 06 1D 27 80 23 03  01 10 0A 80 01 DF 06 20  ....'.#........ 
06E0: 00 21 00                                          .!.             
```

#### Opcodes

```
  0: 0x062F [0x24] CREATE_DIALOG(message_id=7282*, default_option=0*, option_flags=0*)
    → "m202$3t$3$3O%'DiE$3U[$3}$3XH [@OK$3t$3$3O/START$3t$3$3O/$(L%@$sA=$3t$3$3O/$3^$3$3$3M$P11e [,$P12J$8$P14s/$3^$3$3$3M$P11e [,$P12J(TIME6$1%q5{100$P15C)/$3p$3$3X$3e$3B$3i$P16&$8$P14s/$3p$3$3X$3e$3B$3i$P16&(TIME6$1%q5{100$P15C)/$141$/OK$3t$3$3O/END$P12<c$3t$3$3O/All reset!]"
  1: 0x0636 [0x25] WAIT_DIALOG_SELECT()
  2: 0x0637 [0x02] IF !(Work_Zone[0] == 0*) GOTO 0x064B
  3: 0x063F [0x1D] PRINT_EVENT_MESSAGE(message_id=7273*)
    → "Abracadabra!"
  4: 0x0642 [0x23] WAIT_FOR_DIALOG_INTERACTION
  5: 0x0643 [0x03] Work_Zone[1] = 37*
  6: 0x0648 [0x01] GOTO 0x06DF
  7: 0x064B [0x02] IF !(Work_Zone[0] == 1*) GOTO 0x065B
  8: 0x0653 [0x03] Work_Zone[1] = 38*
  9: 0x0658 [0x01] GOTO 0x06DF
 10: 0x065B [0x02] IF !(Work_Zone[0] == 2*) GOTO 0x066B
 11: 0x0663 [0x03] Work_Zone[1] = 39*
 12: 0x0668 [0x01] GOTO 0x06DF
 13: 0x066B [0x02] IF !(Work_Zone[0] == 3*) GOTO 0x067B
 14: 0x0673 [0x03] Work_Zone[1] = 105*
 15: 0x0678 [0x01] GOTO 0x06DF
 16: 0x067B [0x02] IF !(Work_Zone[0] == 4*) GOTO 0x068B
 17: 0x0683 [0x03] Work_Zone[1] = 40*
 18: 0x0688 [0x01] GOTO 0x06DF
 19: 0x068B [0x02] IF !(Work_Zone[0] == 5*) GOTO 0x069B
 20: 0x0693 [0x03] Work_Zone[1] = 106*
 21: 0x0698 [0x01] GOTO 0x06DF
 22: 0x069B [0x02] IF !(Work_Zone[0] == 6*) GOTO 0x06AB
 23: 0x06A3 [0x03] Work_Zone[1] = 41*
 24: 0x06A8 [0x01] GOTO 0x06DF
 25: 0x06AB [0x02] IF !(Work_Zone[0] == 7*) GOTO 0x06BB
 26: 0x06B3 [0x03] Work_Zone[1] = 42*
 27: 0x06B8 [0x01] GOTO 0x06DF
 28: 0x06BB [0x02] IF !(Work_Zone[0] == 8*) GOTO 0x06CB
 29: 0x06C3 [0x03] Work_Zone[1] = 43*
 30: 0x06C8 [0x01] GOTO 0x06DF
 31: 0x06CB [0x02] IF !(Work_Zone[0] == 9*) GOTO 0x06DF
 32: 0x06D3 [0x1D] PRINT_EVENT_MESSAGE(message_id=7274*)
    → "Oh no! Your Adventurers' certificate vanished!"
 33: 0x06D6 [0x23] WAIT_FOR_DIALOG_INTERACTION
 34: 0x06D7 [0x03] Work_Zone[1] = 100*
 35: 0x06DC [0x01] GOTO 0x06DF

SUBROUTINE_06DF:
 36: 0x06DF [0x20] SET_CLI_EVENT_UC_FLAG: Unlock player control
 37: 0x06E1 [0x21] END_EVENT
 38: 0x06E2 [0x00] END_REQSTACK()
```

### Event 65535.10

#### Metadata

| Field        | Value     |
|--------------|-----------|
| Entrypoint   | 0x06E3    |
| Data Size    | 116 bytes |
| Instructions | 27        |

```
      00 01 02 03 04 05 06 07  08 09 0A 0B 0C 0D 0E 0F
      -- -- -- -- -- -- -- --  -- -- -- -- -- -- -- --
06E0:          24 4A 80 02 80  02 80 25 02 00 10 02 80     $J.....%.....
06F0: 00 FF 06 1D 2A 80 23 03  01 10 4B 80 01 53 07 02  ....*.#...K..S..
0700: 00 10 04 80 00 0F 07 03  01 10 4C 80 01 53 07 02  ..........L..S..
0710: 00 10 05 80 00 1F 07 03  01 10 4D 80 01 53 07 02  ..........M..S..
0720: 00 10 06 80 00 2F 07 03  01 10 4E 80 01 53 07 02  ...../....N..S..
0730: 00 10 07 80 00 3F 07 03  01 10 4F 80 01 53 07 02  .....?....O..S..
0740: 00 10 09 80 00 53 07 1D  27 80 23 03 01 10 0A 80  .....S..'.#.....
0750: 01 53 07 20 00 21 00                              .S. .!.         
```

#### Opcodes

```
  0: 0x06E3 [0x24] CREATE_DIALOG(message_id=7283*, default_option=0*, option_flags=0*)
    → "m203$3t$3$3O%'DiE$3U[$3}$3XH [@OK$3t$3$3O/START$3t$3$3O/$P13VL$3$sA=$3t$3$3O/END$P12<c$3t$3$3O/$3T$3$3h$3$3A$sAD+=/All reset!]"
  1: 0x06EA [0x25] WAIT_DIALOG_SELECT()
  2: 0x06EB [0x02] IF !(Work_Zone[0] == 0*) GOTO 0x06FF
  3: 0x06F3 [0x1D] PRINT_EVENT_MESSAGE(message_id=7273*)
    → "Abracadabra!"
  4: 0x06F6 [0x23] WAIT_FOR_DIALOG_INTERACTION
  5: 0x06F7 [0x03] Work_Zone[1] = 45*
  6: 0x06FC [0x01] GOTO 0x0753
  7: 0x06FF [0x02] IF !(Work_Zone[0] == 1*) GOTO 0x070F
  8: 0x0707 [0x03] Work_Zone[1] = 46*
  9: 0x070C [0x01] GOTO 0x0753
 10: 0x070F [0x02] IF !(Work_Zone[0] == 2*) GOTO 0x071F
 11: 0x0717 [0x03] Work_Zone[1] = 47*
 12: 0x071C [0x01] GOTO 0x0753
 13: 0x071F [0x02] IF !(Work_Zone[0] == 3*) GOTO 0x072F
 14: 0x0727 [0x03] Work_Zone[1] = 48*
 15: 0x072C [0x01] GOTO 0x0753
 16: 0x072F [0x02] IF !(Work_Zone[0] == 4*) GOTO 0x073F
 17: 0x0737 [0x03] Work_Zone[1] = 110*
 18: 0x073C [0x01] GOTO 0x0753
 19: 0x073F [0x02] IF !(Work_Zone[0] == 5*) GOTO 0x0753
 20: 0x0747 [0x1D] PRINT_EVENT_MESSAGE(message_id=7274*)
    → "Oh no! Your Adventurers' certificate vanished!"
 21: 0x074A [0x23] WAIT_FOR_DIALOG_INTERACTION
 22: 0x074B [0x03] Work_Zone[1] = 100*
 23: 0x0750 [0x01] GOTO 0x0753

SUBROUTINE_0753:
 24: 0x0753 [0x20] SET_CLI_EVENT_UC_FLAG: Unlock player control
 25: 0x0755 [0x21] END_EVENT
 26: 0x0756 [0x00] END_REQSTACK()
```

### Event 65535.11

#### Metadata

| Field        | Value     |
|--------------|-----------|
| Entrypoint   | 0x0757    |
| Data Size    | 116 bytes |
| Instructions | 27        |

```
      00 01 02 03 04 05 06 07  08 09 0A 0B 0C 0D 0E 0F
      -- -- -- -- -- -- -- --  -- -- -- -- -- -- -- --
0750:                      24  50 80 02 80 02 80 25 02         $P.....%.
0760: 00 10 02 80 00 73 07 1D  2A 80 23 03 01 10 51 80  .....s..*.#...Q.
0770: 01 C7 07 02 00 10 04 80  00 83 07 03 01 10 52 80  ..............R.
0780: 01 C7 07 02 00 10 05 80  00 93 07 03 01 10 53 80  ..............S.
0790: 01 C7 07 02 00 10 06 80  00 A3 07 03 01 10 54 80  ..............T.
07A0: 01 C7 07 02 00 10 07 80  00 B3 07 03 01 10 55 80  ..............U.
07B0: 01 C7 07 02 00 10 09 80  00 C7 07 1D 27 80 23 03  ............'.#.
07C0: 01 10 0A 80 01 C7 07 20  00 21 00                 ....... .!.     
```

#### Opcodes

```
  0: 0x0757 [0x24] CREATE_DIALOG(message_id=7285*, default_option=0*, option_flags=0*)
    → "@m203_1Bi1%q$P16Zj$3t$3$3O%'DiE$3U[$3}$3XH [@OK$3t$3$3O/@$3o$3X$3g$3D[$3N%L$22$Y$sA=$3t$3$3O/$201548$sA=$3t$3$3O/@$3M$3f$3A$3Xlv2$sA=$3t$3$3O/@END$P12<c$3t$3$3O/@All reset!]"
  1: 0x075E [0x25] WAIT_DIALOG_SELECT()
  2: 0x075F [0x02] IF !(Work_Zone[0] == 0*) GOTO 0x0773
  3: 0x0767 [0x1D] PRINT_EVENT_MESSAGE(message_id=7273*)
    → "Abracadabra!"
  4: 0x076A [0x23] WAIT_FOR_DIALOG_INTERACTION
  5: 0x076B [0x03] Work_Zone[1] = 50*
  6: 0x0770 [0x01] GOTO 0x07C7
  7: 0x0773 [0x02] IF !(Work_Zone[0] == 1*) GOTO 0x0783
  8: 0x077B [0x03] Work_Zone[1] = 51*
  9: 0x0780 [0x01] GOTO 0x07C7
 10: 0x0783 [0x02] IF !(Work_Zone[0] == 2*) GOTO 0x0793
 11: 0x078B [0x03] Work_Zone[1] = 52*
 12: 0x0790 [0x01] GOTO 0x07C7
 13: 0x0793 [0x02] IF !(Work_Zone[0] == 3*) GOTO 0x07A3
 14: 0x079B [0x03] Work_Zone[1] = 53*
 15: 0x07A0 [0x01] GOTO 0x07C7
 16: 0x07A3 [0x02] IF !(Work_Zone[0] == 4*) GOTO 0x07B3
 17: 0x07AB [0x03] Work_Zone[1] = 54*
 18: 0x07B0 [0x01] GOTO 0x07C7
 19: 0x07B3 [0x02] IF !(Work_Zone[0] == 5*) GOTO 0x07C7
 20: 0x07BB [0x1D] PRINT_EVENT_MESSAGE(message_id=7274*)
    → "Oh no! Your Adventurers' certificate vanished!"
 21: 0x07BE [0x23] WAIT_FOR_DIALOG_INTERACTION
 22: 0x07BF [0x03] Work_Zone[1] = 100*
 23: 0x07C4 [0x01] GOTO 0x07C7

SUBROUTINE_07C7:
 24: 0x07C7 [0x20] SET_CLI_EVENT_UC_FLAG: Unlock player control
 25: 0x07C9 [0x21] END_EVENT
 26: 0x07CA [0x00] END_REQSTACK()
```

### Event 65535.12

#### Metadata

| Field        | Value     |
|--------------|-----------|
| Entrypoint   | 0x07CB    |
| Data Size    | 116 bytes |
| Instructions | 27        |

```
      00 01 02 03 04 05 06 07  08 09 0A 0B 0C 0D 0E 0F
      -- -- -- -- -- -- -- --  -- -- -- -- -- -- -- --
07C0:                                   24 56 80 02 80             $V...
07D0: 02 80 25 02 00 10 02 80  00 E7 07 1D 2A 80 23 03  ..%.........*.#.
07E0: 01 10 57 80 01 3B 08 02  00 10 04 80 00 F7 07 03  ..W..;..........
07F0: 01 10 58 80 01 3B 08 02  00 10 05 80 00 07 08 03  ..X..;..........
0800: 01 10 59 80 01 3B 08 02  00 10 06 80 00 17 08 03  ..Y..;..........
0810: 01 10 5A 80 01 3B 08 02  00 10 07 80 00 27 08 03  ..Z..;.......'..
0820: 01 10 5B 80 01 3B 08 02  00 10 09 80 00 3B 08 1D  ..[..;.......;..
0830: 27 80 23 03 01 10 0A 80  01 3B 08 20 00 21 00     '.#......;. .!. 
```

#### Opcodes

```
  0: 0x07CB [0x24] CREATE_DIALOG(message_id=7286*, default_option=0*, option_flags=0*)
    → "@m203_2Bi2%q$P16Zj$3t$3$3O%'DiE$3U[$3}$3XH [@OK$3t$3$3O/@$3o$3X$3g$3D[$3N%L$22$Y$sA=$3t$3$3O/$201548$sA=$3t$3$3O/@$3M$3f$3A$3Xlv3$sA=$3t$3$3O/@END$P12<c$3t$3$3O/@All reset!]"
  1: 0x07D2 [0x25] WAIT_DIALOG_SELECT()
  2: 0x07D3 [0x02] IF !(Work_Zone[0] == 0*) GOTO 0x07E7
  3: 0x07DB [0x1D] PRINT_EVENT_MESSAGE(message_id=7273*)
    → "Abracadabra!"
  4: 0x07DE [0x23] WAIT_FOR_DIALOG_INTERACTION
  5: 0x07DF [0x03] Work_Zone[1] = 55*
  6: 0x07E4 [0x01] GOTO 0x083B
  7: 0x07E7 [0x02] IF !(Work_Zone[0] == 1*) GOTO 0x07F7
  8: 0x07EF [0x03] Work_Zone[1] = 56*
  9: 0x07F4 [0x01] GOTO 0x083B
 10: 0x07F7 [0x02] IF !(Work_Zone[0] == 2*) GOTO 0x0807
 11: 0x07FF [0x03] Work_Zone[1] = 57*
 12: 0x0804 [0x01] GOTO 0x083B
 13: 0x0807 [0x02] IF !(Work_Zone[0] == 3*) GOTO 0x0817
 14: 0x080F [0x03] Work_Zone[1] = 58*
 15: 0x0814 [0x01] GOTO 0x083B
 16: 0x0817 [0x02] IF !(Work_Zone[0] == 4*) GOTO 0x0827
 17: 0x081F [0x03] Work_Zone[1] = 59*
 18: 0x0824 [0x01] GOTO 0x083B
 19: 0x0827 [0x02] IF !(Work_Zone[0] == 5*) GOTO 0x083B
 20: 0x082F [0x1D] PRINT_EVENT_MESSAGE(message_id=7274*)
    → "Oh no! Your Adventurers' certificate vanished!"
 21: 0x0832 [0x23] WAIT_FOR_DIALOG_INTERACTION
 22: 0x0833 [0x03] Work_Zone[1] = 100*
 23: 0x0838 [0x01] GOTO 0x083B

SUBROUTINE_083B:
 24: 0x083B [0x20] SET_CLI_EVENT_UC_FLAG: Unlock player control
 25: 0x083D [0x21] END_EVENT
 26: 0x083E [0x00] END_REQSTACK()
```

### Event 65535.13

#### Metadata

| Field        | Value     |
|--------------|-----------|
| Entrypoint   | 0x083F    |
| Data Size    | 116 bytes |
| Instructions | 27        |

```
      00 01 02 03 04 05 06 07  08 09 0A 0B 0C 0D 0E 0F
      -- -- -- -- -- -- -- --  -- -- -- -- -- -- -- --
0830:                                               24                 $
0840: 5C 80 02 80 02 80 25 02  00 10 02 80 00 5B 08 1D  \.....%......[..
0850: 2A 80 23 03 01 10 5D 80  01 AF 08 02 00 10 04 80  *.#...].........
0860: 00 6B 08 03 01 10 5E 80  01 AF 08 02 00 10 05 80  .k....^.........
0870: 00 7B 08 03 01 10 5F 80  01 AF 08 02 00 10 06 80  .{...._.........
0880: 00 8B 08 03 01 10 60 80  01 AF 08 02 00 10 07 80  ......`.........
0890: 00 9B 08 03 01 10 61 80  01 AF 08 02 00 10 09 80  ......a.........
08A0: 00 AF 08 1D 27 80 23 03  01 10 0A 80 01 AF 08 20  ....'.#........ 
08B0: 00 21 00                                          .!.             
```

#### Opcodes

```
  0: 0x083F [0x24] CREATE_DIALOG(message_id=7289*, default_option=0*, option_flags=0*)
    → "m301$3t$3$3O%'DiE$3U[$3}$3XH [@OK$3t$3$3O/START$3t$3$3O/$P13VL$3$sA=$3t$3$3O/$3I$3Y$3g$3$3$4$sA=$3t$3$3O/END$P12<c$3t$3$3O/All reset!]"
  1: 0x0846 [0x25] WAIT_DIALOG_SELECT()
  2: 0x0847 [0x02] IF !(Work_Zone[0] == 0*) GOTO 0x085B
  3: 0x084F [0x1D] PRINT_EVENT_MESSAGE(message_id=7273*)
    → "Abracadabra!"
  4: 0x0852 [0x23] WAIT_FOR_DIALOG_INTERACTION
  5: 0x0853 [0x03] Work_Zone[1] = 60*
  6: 0x0858 [0x01] GOTO 0x08AF
  7: 0x085B [0x02] IF !(Work_Zone[0] == 1*) GOTO 0x086B
  8: 0x0863 [0x03] Work_Zone[1] = 61*
  9: 0x0868 [0x01] GOTO 0x08AF
 10: 0x086B [0x02] IF !(Work_Zone[0] == 2*) GOTO 0x087B
 11: 0x0873 [0x03] Work_Zone[1] = 62*
 12: 0x0878 [0x01] GOTO 0x08AF
 13: 0x087B [0x02] IF !(Work_Zone[0] == 3*) GOTO 0x088B
 14: 0x0883 [0x03] Work_Zone[1] = 63*
 15: 0x0888 [0x01] GOTO 0x08AF
 16: 0x088B [0x02] IF !(Work_Zone[0] == 4*) GOTO 0x089B
 17: 0x0893 [0x03] Work_Zone[1] = 64*
 18: 0x0898 [0x01] GOTO 0x08AF
 19: 0x089B [0x02] IF !(Work_Zone[0] == 5*) GOTO 0x08AF
 20: 0x08A3 [0x1D] PRINT_EVENT_MESSAGE(message_id=7274*)
    → "Oh no! Your Adventurers' certificate vanished!"
 21: 0x08A6 [0x23] WAIT_FOR_DIALOG_INTERACTION
 22: 0x08A7 [0x03] Work_Zone[1] = 100*
 23: 0x08AC [0x01] GOTO 0x08AF

SUBROUTINE_08AF:
 24: 0x08AF [0x20] SET_CLI_EVENT_UC_FLAG: Unlock player control
 25: 0x08B1 [0x21] END_EVENT
 26: 0x08B2 [0x00] END_REQSTACK()
```

### Event 65535.14

#### Metadata

| Field        | Value     |
|--------------|-----------|
| Entrypoint   | 0x08B3    |
| Data Size    | 132 bytes |
| Instructions | 30        |

```
      00 01 02 03 04 05 06 07  08 09 0A 0B 0C 0D 0E 0F
      -- -- -- -- -- -- -- --  -- -- -- -- -- -- -- --
08B0:          24 62 80 02 80  02 80 25 02 00 10 02 80     $b.....%.....
08C0: 00 CF 08 1D 2A 80 23 03  01 10 63 80 01 33 09 02  ....*.#...c..3..
08D0: 00 10 04 80 00 DF 08 03  01 10 64 80 01 33 09 02  ..........d..3..
08E0: 00 10 05 80 00 EF 08 03  01 10 65 80 01 33 09 02  ..........e..3..
08F0: 00 10 06 80 00 FF 08 03  01 10 66 80 01 33 09 02  ..........f..3..
0900: 00 10 07 80 00 0F 09 03  01 10 67 80 01 33 09 02  ..........g..3..
0910: 00 10 09 80 00 1F 09 03  01 10 68 80 01 33 09 02  ..........h..3..
0920: 00 10 0B 80 00 33 09 1D  27 80 23 03 01 10 0A 80  .....3..'.#.....
0930: 01 33 09 20 00 21 00                              .3. .!.         
```

#### Opcodes

```
  0: 0x08B3 [0x24] CREATE_DIALOG(message_id=7290*, default_option=0*, option_flags=0*)
    → "m302$3t$3$3O%'DiE$3U[$3}$3XH [@OK$3t$3$3O/START$3t$3$3O/$P13VL$3$sA=$3t$3$3O/$2$P16@$3Q$sA=$3t$3$3O/END$P12<c$3t$3$3O"%q$P16Z$/=$3t$3$3O/All reset!]"
  1: 0x08BA [0x25] WAIT_DIALOG_SELECT()
  2: 0x08BB [0x02] IF !(Work_Zone[0] == 0*) GOTO 0x08CF
  3: 0x08C3 [0x1D] PRINT_EVENT_MESSAGE(message_id=7273*)
    → "Abracadabra!"
  4: 0x08C6 [0x23] WAIT_FOR_DIALOG_INTERACTION
  5: 0x08C7 [0x03] Work_Zone[1] = 65*
  6: 0x08CC [0x01] GOTO 0x0933
  7: 0x08CF [0x02] IF !(Work_Zone[0] == 1*) GOTO 0x08DF
  8: 0x08D7 [0x03] Work_Zone[1] = 66*
  9: 0x08DC [0x01] GOTO 0x0933
 10: 0x08DF [0x02] IF !(Work_Zone[0] == 2*) GOTO 0x08EF
 11: 0x08E7 [0x03] Work_Zone[1] = 67*
 12: 0x08EC [0x01] GOTO 0x0933
 13: 0x08EF [0x02] IF !(Work_Zone[0] == 3*) GOTO 0x08FF
 14: 0x08F7 [0x03] Work_Zone[1] = 68*
 15: 0x08FC [0x01] GOTO 0x0933
 16: 0x08FF [0x02] IF !(Work_Zone[0] == 4*) GOTO 0x090F
 17: 0x0907 [0x03] Work_Zone[1] = 69*
 18: 0x090C [0x01] GOTO 0x0933
 19: 0x090F [0x02] IF !(Work_Zone[0] == 5*) GOTO 0x091F
 20: 0x0917 [0x03] Work_Zone[1] = 108*
 21: 0x091C [0x01] GOTO 0x0933
 22: 0x091F [0x02] IF !(Work_Zone[0] == 6*) GOTO 0x0933
 23: 0x0927 [0x1D] PRINT_EVENT_MESSAGE(message_id=7274*)
    → "Oh no! Your Adventurers' certificate vanished!"
 24: 0x092A [0x23] WAIT_FOR_DIALOG_INTERACTION
 25: 0x092B [0x03] Work_Zone[1] = 100*
 26: 0x0930 [0x01] GOTO 0x0933

SUBROUTINE_0933:
 27: 0x0933 [0x20] SET_CLI_EVENT_UC_FLAG: Unlock player control
 28: 0x0935 [0x21] END_EVENT
 29: 0x0936 [0x00] END_REQSTACK()
```

### Event 65535.15

#### Metadata

| Field        | Value     |
|--------------|-----------|
| Entrypoint   | 0x0937    |
| Data Size    | 112 bytes |
| Instructions | 25        |

```
      00 01 02 03 04 05 06 07  08 09 0A 0B 0C 0D 0E 0F
      -- -- -- -- -- -- -- --  -- -- -- -- -- -- -- --
0930:                      24  69 80 02 80 02 80 25 02         $i.....%.
0940: 00 10 02 80 00 4F 09 03  01 10 6A 80 01 A3 09 02  .....O....j.....
0950: 00 10 04 80 00 5F 09 03  01 10 6B 80 01 A3 09 02  ....._....k.....
0960: 00 10 05 80 00 6F 09 03  01 10 6C 80 01 A3 09 02  .....o....l.....
0970: 00 10 06 80 00 7F 09 03  01 10 6D 80 01 A3 09 02  ..........m.....
0980: 00 10 07 80 00 8F 09 03  01 10 6E 80 01 A3 09 02  ..........n.....
0990: 00 10 09 80 00 A3 09 1D  27 80 23 03 01 10 0A 80  ........'.#.....
09A0: 01 A3 09 20 00 21 00                              ... .!.         
```

#### Opcodes

```
  0: 0x0937 [0x24] CREATE_DIALOG(message_id=7291*, default_option=0*, option_flags=0*)
    → "m303$3t$3$3O%'DiE$3U[$3}$3XH [@OK$3t$3$3O"02$3N$3$3A$5"/START$3t$3$3O/$P13VL$3$sA=$3t$3$3O/$3998273$3t$3$3O/END$P12<c$3t$3$3O/All reset!]"
  1: 0x093E [0x25] WAIT_DIALOG_SELECT()
  2: 0x093F [0x02] IF !(Work_Zone[0] == 0*) GOTO 0x094F
  3: 0x0947 [0x03] Work_Zone[1] = 70*
  4: 0x094C [0x01] GOTO 0x09A3
  5: 0x094F [0x02] IF !(Work_Zone[0] == 1*) GOTO 0x095F
  6: 0x0957 [0x03] Work_Zone[1] = 112*
  7: 0x095C [0x01] GOTO 0x09A3
  8: 0x095F [0x02] IF !(Work_Zone[0] == 2*) GOTO 0x096F
  9: 0x0967 [0x03] Work_Zone[1] = 71*
 10: 0x096C [0x01] GOTO 0x09A3
 11: 0x096F [0x02] IF !(Work_Zone[0] == 3*) GOTO 0x097F
 12: 0x0977 [0x03] Work_Zone[1] = 72*
 13: 0x097C [0x01] GOTO 0x09A3
 14: 0x097F [0x02] IF !(Work_Zone[0] == 4*) GOTO 0x098F
 15: 0x0987 [0x03] Work_Zone[1] = 73*
 16: 0x098C [0x01] GOTO 0x09A3
 17: 0x098F [0x02] IF !(Work_Zone[0] == 5*) GOTO 0x09A3
 18: 0x0997 [0x1D] PRINT_EVENT_MESSAGE(message_id=7274*)
    → "Oh no! Your Adventurers' certificate vanished!"
 19: 0x099A [0x23] WAIT_FOR_DIALOG_INTERACTION
 20: 0x099B [0x03] Work_Zone[1] = 100*
 21: 0x09A0 [0x01] GOTO 0x09A3

SUBROUTINE_09A3:
 22: 0x09A3 [0x20] SET_CLI_EVENT_UC_FLAG: Unlock player control
 23: 0x09A5 [0x21] END_EVENT
 24: 0x09A6 [0x00] END_REQSTACK()
```

### Event 65535.16

#### Metadata

| Field        | Value     |
|--------------|-----------|
| Entrypoint   | 0x09A7    |
| Data Size    | 160 bytes |
| Instructions | 34        |

```
      00 01 02 03 04 05 06 07  08 09 0A 0B 0C 0D 0E 0F
      -- -- -- -- -- -- -- --  -- -- -- -- -- -- -- --
09A0:                      24  6F 80 02 80 02 80 25 02         $o.....%.
09B0: 00 10 02 80 00 BF 09 03  01 10 70 80 01 43 0A 02  ..........p..C..
09C0: 00 10 04 80 00 CF 09 03  01 10 71 80 01 43 0A 02  ..........q..C..
09D0: 00 10 05 80 00 DF 09 03  01 10 72 80 01 43 0A 02  ..........r..C..
09E0: 00 10 06 80 00 EF 09 03  01 10 73 80 01 43 0A 02  ..........s..C..
09F0: 00 10 07 80 00 FF 09 03  01 10 74 80 01 43 0A 02  ..........t..C..
0A00: 00 10 09 80 00 0F 0A 03  01 10 75 80 01 43 0A 02  ..........u..C..
0A10: 00 10 0B 80 00 1F 0A 03  01 10 76 80 01 43 0A 02  ..........v..C..
0A20: 00 10 15 80 00 2F 0A 03  01 10 77 80 01 43 0A 02  ...../....w..C..
0A30: 00 10 17 80 00 43 0A 1D  27 80 23 03 01 10 0A 80  .....C..'.#.....
0A40: 01 43 0A 20 00 21 00                              .C. .!.         
```

#### Opcodes

```
  0: 0x09A7 [0x24] CREATE_DIALOG(message_id=7292*, default_option=0*, option_flags=0*)
    → "m501$3t$3$3O%'DiE$3U[$3}$3XH [@OK$3t$3$3O/OK$3t$3$3O(MS3-2$6423136ADH")/$P13VL$3$sA=$3t$3$3O/$P13VL$3$sA=/G$P12fA=$3t$3$3O/$3K$7540293/=$3t$3$3O/$3t$3F$3C$3$13sA=$3t$3$3O/END$P12<c$3t$3$3O/11E3-2p$s/=gci$2$P13!%pj/All reset!]"
  1: 0x09AE [0x25] WAIT_DIALOG_SELECT()
  2: 0x09AF [0x02] IF !(Work_Zone[0] == 0*) GOTO 0x09BF
  3: 0x09B7 [0x03] Work_Zone[1] = 74*
  4: 0x09BC [0x01] GOTO 0x0A43
  5: 0x09BF [0x02] IF !(Work_Zone[0] == 1*) GOTO 0x09CF
  6: 0x09C7 [0x03] Work_Zone[1] = 113*
  7: 0x09CC [0x01] GOTO 0x0A43
  8: 0x09CF [0x02] IF !(Work_Zone[0] == 2*) GOTO 0x09DF
  9: 0x09D7 [0x03] Work_Zone[1] = 75*
 10: 0x09DC [0x01] GOTO 0x0A43
 11: 0x09DF [0x02] IF !(Work_Zone[0] == 3*) GOTO 0x09EF
 12: 0x09E7 [0x03] Work_Zone[1] = 107*
 13: 0x09EC [0x01] GOTO 0x0A43
 14: 0x09EF [0x02] IF !(Work_Zone[0] == 4*) GOTO 0x09FF
 15: 0x09F7 [0x03] Work_Zone[1] = 111*
 16: 0x09FC [0x01] GOTO 0x0A43
 17: 0x09FF [0x02] IF !(Work_Zone[0] == 5*) GOTO 0x0A0F
 18: 0x0A07 [0x03] Work_Zone[1] = 76*
 19: 0x0A0C [0x01] GOTO 0x0A43
 20: 0x0A0F [0x02] IF !(Work_Zone[0] == 6*) GOTO 0x0A1F
 21: 0x0A17 [0x03] Work_Zone[1] = 77*
 22: 0x0A1C [0x01] GOTO 0x0A43
 23: 0x0A1F [0x02] IF !(Work_Zone[0] == 7*) GOTO 0x0A2F
 24: 0x0A27 [0x03] Work_Zone[1] = 114*
 25: 0x0A2C [0x01] GOTO 0x0A43
 26: 0x0A2F [0x02] IF !(Work_Zone[0] == 8*) GOTO 0x0A43
 27: 0x0A37 [0x1D] PRINT_EVENT_MESSAGE(message_id=7274*)
    → "Oh no! Your Adventurers' certificate vanished!"
 28: 0x0A3A [0x23] WAIT_FOR_DIALOG_INTERACTION
 29: 0x0A3B [0x03] Work_Zone[1] = 100*
 30: 0x0A40 [0x01] GOTO 0x0A43

SUBROUTINE_0A43:
 31: 0x0A43 [0x20] SET_CLI_EVENT_UC_FLAG: Unlock player control
 32: 0x0A45 [0x21] END_EVENT
 33: 0x0A46 [0x00] END_REQSTACK()
```

### Event 65535.17

#### Metadata

| Field        | Value     |
|--------------|-----------|
| Entrypoint   | 0x0A47    |
| Data Size    | 116 bytes |
| Instructions | 27        |

```
      00 01 02 03 04 05 06 07  08 09 0A 0B 0C 0D 0E 0F
      -- -- -- -- -- -- -- --  -- -- -- -- -- -- -- --
0A40:                      24  78 80 02 80 02 80 25 02         $x.....%.
0A50: 00 10 02 80 00 63 0A 1D  2A 80 23 03 01 10 79 80  .....c..*.#...y.
0A60: 01 B7 0A 02 00 10 04 80  00 73 0A 03 01 10 7A 80  .........s....z.
0A70: 01 B7 0A 02 00 10 05 80  00 83 0A 03 01 10 7B 80  ..............{.
0A80: 01 B7 0A 02 00 10 06 80  00 93 0A 03 01 10 7C 80  ..............|.
0A90: 01 B7 0A 02 00 10 07 80  00 A3 0A 03 01 10 7D 80  ..............}.
0AA0: 01 B7 0A 02 00 10 09 80  00 B7 0A 1D 27 80 23 03  ............'.#.
0AB0: 01 10 0A 80 01 B7 0A 20  00 21 00                 ....... .!.     
```

#### Opcodes

```
  0: 0x0A47 [0x24] CREATE_DIALOG(message_id=7293*, default_option=0*, option_flags=0*)
    → "m502$3t$3$3O%'DiE$3U[$3}$3XH [@OK$3t$3$3O/START/$P13VL$3$sA=$3t$3$3O/$3Y$3$3@$3998273$3t$3$3O/END$P12<c$3t$3$3O/All reset!]"
  1: 0x0A4E [0x25] WAIT_DIALOG_SELECT()
  2: 0x0A4F [0x02] IF !(Work_Zone[0] == 0*) GOTO 0x0A63
  3: 0x0A57 [0x1D] PRINT_EVENT_MESSAGE(message_id=7273*)
    → "Abracadabra!"
  4: 0x0A5A [0x23] WAIT_FOR_DIALOG_INTERACTION
  5: 0x0A5B [0x03] Work_Zone[1] = 78*
  6: 0x0A60 [0x01] GOTO 0x0AB7
  7: 0x0A63 [0x02] IF !(Work_Zone[0] == 1*) GOTO 0x0A73
  8: 0x0A6B [0x03] Work_Zone[1] = 79*
  9: 0x0A70 [0x01] GOTO 0x0AB7
 10: 0x0A73 [0x02] IF !(Work_Zone[0] == 2*) GOTO 0x0A83
 11: 0x0A7B [0x03] Work_Zone[1] = 80*
 12: 0x0A80 [0x01] GOTO 0x0AB7
 13: 0x0A83 [0x02] IF !(Work_Zone[0] == 3*) GOTO 0x0A93
 14: 0x0A8B [0x03] Work_Zone[1] = 81*
 15: 0x0A90 [0x01] GOTO 0x0AB7
 16: 0x0A93 [0x02] IF !(Work_Zone[0] == 4*) GOTO 0x0AA3
 17: 0x0A9B [0x03] Work_Zone[1] = 82*
 18: 0x0AA0 [0x01] GOTO 0x0AB7
 19: 0x0AA3 [0x02] IF !(Work_Zone[0] == 5*) GOTO 0x0AB7
 20: 0x0AAB [0x1D] PRINT_EVENT_MESSAGE(message_id=7274*)
    → "Oh no! Your Adventurers' certificate vanished!"
 21: 0x0AAE [0x23] WAIT_FOR_DIALOG_INTERACTION
 22: 0x0AAF [0x03] Work_Zone[1] = 100*
 23: 0x0AB4 [0x01] GOTO 0x0AB7

SUBROUTINE_0AB7:
 24: 0x0AB7 [0x20] SET_CLI_EVENT_UC_FLAG: Unlock player control
 25: 0x0AB9 [0x21] END_EVENT
 26: 0x0ABA [0x00] END_REQSTACK()
```

### Event 65535.18

#### Metadata

| Field        | Value     |
|--------------|-----------|
| Entrypoint   | 0x0ABB    |
| Data Size    | 116 bytes |
| Instructions | 27        |

```
      00 01 02 03 04 05 06 07  08 09 0A 0B 0C 0D 0E 0F
      -- -- -- -- -- -- -- --  -- -- -- -- -- -- -- --
0AB0:                                   24 7E 80 02 80             $~...
0AC0: 02 80 25 02 00 10 02 80  00 D7 0A 1D 2A 80 23 03  ..%.........*.#.
0AD0: 01 10 7F 80 01 2B 0B 02  00 10 04 80 00 E7 0A 03  .....+..........
0AE0: 01 10 80 80 01 2B 0B 02  00 10 05 80 00 F7 0A 03  .....+..........
0AF0: 01 10 81 80 01 2B 0B 02  00 10 06 80 00 07 0B 03  .....+..........
0B00: 01 10 82 80 01 2B 0B 02  00 10 07 80 00 17 0B 03  .....+..........
0B10: 01 10 83 80 01 2B 0B 02  00 10 09 80 00 2B 0B 1D  .....+.......+..
0B20: 27 80 23 03 01 10 0A 80  01 2B 0B 20 00 21 00     '.#......+. .!. 
```

#### Opcodes

```
  0: 0x0ABB [0x24] CREATE_DIALOG(message_id=7287*, default_option=0*, option_flags=0*)
    → "m203_1A(1%q$P16Z)$3t$3$3O%'DiE$3U[$3}$3XH [@OK$3t$3$3O/$3T$3$3h$3$3A%L$22$Y$sA=$3t$3$3O"$7L$2p$hI$P13|j=>//$3M$3f$3A$3Xlv2E$2$P16@$2p$P14[_=>//END$P12<c$3t$3$3O/All reset!]"
  1: 0x0AC2 [0x25] WAIT_DIALOG_SELECT()
  2: 0x0AC3 [0x02] IF !(Work_Zone[0] == 0*) GOTO 0x0AD7
  3: 0x0ACB [0x1D] PRINT_EVENT_MESSAGE(message_id=7273*)
    → "Abracadabra!"
  4: 0x0ACE [0x23] WAIT_FOR_DIALOG_INTERACTION
  5: 0x0ACF [0x03] Work_Zone[1] = 83*
  6: 0x0AD4 [0x01] GOTO 0x0B2B
  7: 0x0AD7 [0x02] IF !(Work_Zone[0] == 1*) GOTO 0x0AE7
  8: 0x0ADF [0x03] Work_Zone[1] = 84*
  9: 0x0AE4 [0x01] GOTO 0x0B2B
 10: 0x0AE7 [0x02] IF !(Work_Zone[0] == 2*) GOTO 0x0AF7
 11: 0x0AEF [0x03] Work_Zone[1] = 85*
 12: 0x0AF4 [0x01] GOTO 0x0B2B
 13: 0x0AF7 [0x02] IF !(Work_Zone[0] == 3*) GOTO 0x0B07
 14: 0x0AFF [0x03] Work_Zone[1] = 86*
 15: 0x0B04 [0x01] GOTO 0x0B2B
 16: 0x0B07 [0x02] IF !(Work_Zone[0] == 4*) GOTO 0x0B17
 17: 0x0B0F [0x03] Work_Zone[1] = 87*
 18: 0x0B14 [0x01] GOTO 0x0B2B
 19: 0x0B17 [0x02] IF !(Work_Zone[0] == 5*) GOTO 0x0B2B
 20: 0x0B1F [0x1D] PRINT_EVENT_MESSAGE(message_id=7274*)
    → "Oh no! Your Adventurers' certificate vanished!"
 21: 0x0B22 [0x23] WAIT_FOR_DIALOG_INTERACTION
 22: 0x0B23 [0x03] Work_Zone[1] = 100*
 23: 0x0B28 [0x01] GOTO 0x0B2B

SUBROUTINE_0B2B:
 24: 0x0B2B [0x20] SET_CLI_EVENT_UC_FLAG: Unlock player control
 25: 0x0B2D [0x21] END_EVENT
 26: 0x0B2E [0x00] END_REQSTACK()
```

### Event 65535.19

#### Metadata

| Field        | Value     |
|--------------|-----------|
| Entrypoint   | 0x0B2F    |
| Data Size    | 116 bytes |
| Instructions | 27        |

```
      00 01 02 03 04 05 06 07  08 09 0A 0B 0C 0D 0E 0F
      -- -- -- -- -- -- -- --  -- -- -- -- -- -- -- --
0B20:                                               24                 $
0B30: 84 80 02 80 02 80 25 02  00 10 02 80 00 4B 0B 1D  ......%......K..
0B40: 2A 80 23 03 01 10 85 80  01 9F 0B 02 00 10 04 80  *.#.............
0B50: 00 5B 0B 03 01 10 86 80  01 9F 0B 02 00 10 05 80  .[..............
0B60: 00 6B 0B 03 01 10 87 80  01 9F 0B 02 00 10 06 80  .k..............
0B70: 00 7B 0B 03 01 10 88 80  01 9F 0B 02 00 10 07 80  .{..............
0B80: 00 8B 0B 03 01 10 89 80  01 9F 0B 02 00 10 09 80  ................
0B90: 00 9F 0B 1D 27 80 23 03  01 10 0A 80 01 9F 0B 20  ....'.#........ 
0BA0: 00 21 00                                          .!.             
```

#### Opcodes

```
  0: 0x0B2F [0x24] CREATE_DIALOG(message_id=7288*, default_option=0*, option_flags=0*)
    → "m203_2A(2%q$P16Z)$3t$3$3O%'DiE$3U[$3}$3XH [@OK$3t$3$3O/$3T$3$3h$3$3A%L$22$Y$sA=$3t$3$3O/$P13VL$3$sA=$3t$3$3O/$3M$3f$3A$3Xlv3$sA=$3t$3$3O/END$P12<c$3t$3$3O/All reset!]"
  1: 0x0B36 [0x25] WAIT_DIALOG_SELECT()
  2: 0x0B37 [0x02] IF !(Work_Zone[0] == 0*) GOTO 0x0B4B
  3: 0x0B3F [0x1D] PRINT_EVENT_MESSAGE(message_id=7273*)
    → "Abracadabra!"
  4: 0x0B42 [0x23] WAIT_FOR_DIALOG_INTERACTION
  5: 0x0B43 [0x03] Work_Zone[1] = 88*
  6: 0x0B48 [0x01] GOTO 0x0B9F
  7: 0x0B4B [0x02] IF !(Work_Zone[0] == 1*) GOTO 0x0B5B
  8: 0x0B53 [0x03] Work_Zone[1] = 89*
  9: 0x0B58 [0x01] GOTO 0x0B9F
 10: 0x0B5B [0x02] IF !(Work_Zone[0] == 2*) GOTO 0x0B6B
 11: 0x0B63 [0x03] Work_Zone[1] = 90*
 12: 0x0B68 [0x01] GOTO 0x0B9F
 13: 0x0B6B [0x02] IF !(Work_Zone[0] == 3*) GOTO 0x0B7B
 14: 0x0B73 [0x03] Work_Zone[1] = 91*
 15: 0x0B78 [0x01] GOTO 0x0B9F
 16: 0x0B7B [0x02] IF !(Work_Zone[0] == 4*) GOTO 0x0B8B
 17: 0x0B83 [0x03] Work_Zone[1] = 92*
 18: 0x0B88 [0x01] GOTO 0x0B9F
 19: 0x0B8B [0x02] IF !(Work_Zone[0] == 5*) GOTO 0x0B9F
 20: 0x0B93 [0x1D] PRINT_EVENT_MESSAGE(message_id=7274*)
    → "Oh no! Your Adventurers' certificate vanished!"
 21: 0x0B96 [0x23] WAIT_FOR_DIALOG_INTERACTION
 22: 0x0B97 [0x03] Work_Zone[1] = 100*
 23: 0x0B9C [0x01] GOTO 0x0B9F

SUBROUTINE_0B9F:
 24: 0x0B9F [0x20] SET_CLI_EVENT_UC_FLAG: Unlock player control
 25: 0x0BA1 [0x21] END_EVENT
 26: 0x0BA2 [0x00] END_REQSTACK()
```

### Event 65535.20

#### Metadata

| Field        | Value    |
|--------------|----------|
| Entrypoint   | 0x0BA3   |
| Data Size    | 44 bytes |
| Instructions | 11       |

```
      00 01 02 03 04 05 06 07  08 09 0A 0B 0C 0D 0E 0F
      -- -- -- -- -- -- -- --  -- -- -- -- -- -- -- --
0BA0:          24 8A 80 02 80  02 80 25 02 00 10 02 80     $......%.....
0BB0: 00 BB 0B 03 01 10 8B 80  01 CB 0B 02 00 10 04 80  ................
0BC0: 00 CB 0B 03 01 10 8C 80  01 CB 0B 20 00 21 00     ........... .!. 
```

#### Opcodes

```
  0: 0x0BA3 [0x24] CREATE_DIALOG(message_id=7284*, default_option=0*, option_flags=0*)
    → "@m203_609$3t$3$3O%'DiE$3U[$3}$3XH [@OK$3t$3$3O/$P15P$P15{5)$3N$3$3A$5"]"
  1: 0x0BAA [0x25] WAIT_DIALOG_SELECT()
  2: 0x0BAB [0x02] IF !(Work_Zone[0] == 0*) GOTO 0x0BBB
  3: 0x0BB3 [0x03] Work_Zone[1] = 93*
  4: 0x0BB8 [0x01] GOTO 0x0BCB
  5: 0x0BBB [0x02] IF !(Work_Zone[0] == 1*) GOTO 0x0BCB
  6: 0x0BC3 [0x03] Work_Zone[1] = 94*
  7: 0x0BC8 [0x01] GOTO 0x0BCB

SUBROUTINE_0BCB:
  8: 0x0BCB [0x20] SET_CLI_EVENT_UC_FLAG: Unlock player control
  9: 0x0BCD [0x21] END_EVENT
 10: 0x0BCE [0x00] END_REQSTACK()
```
