# 17768489 - Churara

## Common Data

| Field            | Value                   |
|------------------|-------------------------|
| Zone             | Heavens Tower (ID: 242) |
| Block Size       | 548 bytes               |
| Total Events     | 17                      |
| References Count | 20                      |

## List of Events

| Event ID                 | Entrypoint   |   Size |   Instructions |
|--------------------------|--------------|--------|----------------|
| [65535](#event-65535)    | 0x0000       |      1 |              1 |
| [65535.1](#event-655351) | 0x0001       |     16 |              2 |
| [65535.2](#event-655352) | 0x0011       |      9 |              3 |
| [65535.3](#event-655353) | 0x001A       |     16 |              2 |
| [65535.4](#event-655354) | 0x002A       |     14 |              2 |
| [65535.5](#event-655355) | 0x0038       |     16 |              2 |
| [65535.6](#event-655356) | 0x0048       |     14 |              2 |
| [59](#event-59)          | 0x0056       |     33 |             12 |
| [125](#event-125)        | 0x0077       |     33 |             12 |
| [139](#event-139)        | 0x0098       |     33 |             12 |
| [179](#event-179)        | 0x00B9       |     33 |             12 |
| [204](#event-204)        | 0x00DA       |     33 |             12 |
| [225](#event-225)        | 0x00FB       |     33 |             12 |
| [121](#event-121)        | 0x011C       |      1 |              1 |
| [339](#event-339)        | 0x011D       |     33 |             12 |
| [352](#event-352)        | 0x013E       |     33 |             12 |
| [390](#event-390)        | 0x015F       |     33 |             12 |

## DAT References (imed_data)

|   Index | Hex Value   |   Dec Value |
|---------|-------------|-------------|
|       0 | 0x0028      |          40 |
|       1 | 0x001E      |          30 |
|       2 | 0x0021      |          33 |
|       3 | 0x0022      |          34 |
|       4 | 0x00F7      |         247 |
|       5 | 0x00F8      |         248 |
|       6 | 0x0118      |         280 |
|       7 | 0x0119      |         281 |
|       8 | 0x0171      |         369 |
|       9 | 0x0172      |         370 |
|      10 | 0x01C6      |         454 |
|      11 | 0x01C7      |         455 |
|      12 | 0x01F5      |         501 |
|      13 | 0x01F6      |         502 |
|      14 | 0x205B      |        8283 |
|      15 | 0x205C      |        8284 |
|      16 | 0x20E7      |        8423 |
|      17 | 0x20E8      |        8424 |
|      18 | 0x2141      |        8513 |
|      19 | 0x2142      |        8514 |

## String References

- **33**: You want to become a lady-in-waiting? Well, there are many conditions. First of all, you must be a female Tarutaru. Then, you must possess neither magic nor strength, and must free yourself of all desires.
- **34**: (...but to tell you the truth, I sure desire a juicy-wuicy mutton tortilla right now.)
- **247**: One must meet many conditions to become a lady-in-waiting. First of all, one must be a female Tarutaru. Then, one must possess neither magic nor strength, and must free themselves of all desires.
- **248**: Other than pray and gab and gossip, there is nothing much we can do...
- **280**: These last few days have been terrible-wearable for us ladies-in-waiting.
- **281**: If I were a strong adventurer like you, I would not hesitate to dive deep into a monster-infested crazy mazey for the Star Sibyl.
- **369**: The other day, I saw Lady Semih Lafihna return from one of her missions.
- **370**: Now this is just a rumor, but I heard somebody saying that all five ministers have been called for a conference. What is to become of Windurst!?
- **454**: I heard from one of the other ladies that the Orastery minister was one of the most outspoken against another war.
- **455**: He is probably just worried about having all his important books burned to a crunchy-crisp.
- **501**: There's no gossip like good gossip!
- **502**: But gossip you can't share with any-nutty-body... Where's the fun in that?
- **8283**: I didn't even catch a glimpse of the bearer of darkness. And for that I'm profoundly-woundly grateful.
- **8284**: I thought my heart would pitter-patter to a stop when I heard the Star Sibyl had been attacked. Thank the Goddess she's safe.
- **8423**: The Mithran Chieftainness was here at Heavens Tower just a little while ago. Semih Lafihna explained to her that the Star Sibyl wasn't taking visitors at the momentaru.
- **8424**: Those two Mithra don't look anything alike, but there's something similar about their auras. The chieftainness and Semih Lafihna both carry the scent of the wilds with them.
- **8513**: A little while ago, the Mithran chieftainness came to speak with the Star Sibyl on an importantaru matter.
- **8514**: Please don'taru be alarmed. The chieftainness left Heavens Tower with a mostaru serene expression upon her face. It seems their audience concluded on a satisfactory note.

## Events

### Event 65535

#### Metadata

| Field        | Value   |
|--------------|---------|
| Entrypoint   | 0x0000  |
| Data Size    | 1 bytes |
| Instructions | 1       |

```
      00 01 02 03 04 05 06 07  08 09 0A 0B 0C 0D 0E 0F
      -- -- -- -- -- -- -- --  -- -- -- -- -- -- -- --
0000: 00                                                .               
```

#### Opcodes

```
  0: 0x0000 [0x00] END_REQSTACK()
```

### Event 65535.1

#### Metadata

| Field        | Value    |
|--------------|----------|
| Entrypoint   | 0x0001   |
| Data Size    | 16 bytes |
| Instructions | 2        |

```
      00 01 02 03 04 05 06 07  08 09 0A 0B 0C 0D 0E 0F
      -- -- -- -- -- -- -- --  -- -- -- -- -- -- -- --
0000:    66 00 80 F8 FF FF 7F  F8 FF FF 7F 74 6C 6B 30   f..........tlk0
0010: 00                                                .               
```

#### Opcodes

```
  0: 0x0001 [0x66] LOAD_EXT_SCHEDULER_MAIN: Load scheduler "tlk0" with entities [EventEntity, EventEntity], work=40*
  1: 0x0010 [0x00] END_REQSTACK()
```

### Event 65535.2

#### Metadata

| Field        | Value   |
|--------------|---------|
| Entrypoint   | 0x0011  |
| Data Size    | 9 bytes |
| Instructions | 3       |

```
      00 01 02 03 04 05 06 07  08 09 0A 0B 0C 0D 0E 0F
      -- -- -- -- -- -- -- --  -- -- -- -- -- -- -- --
0010:    5E 69 64 6C 30 1C 01  80 00                     ^idl0....      
```

#### Opcodes

```
  0: 0x0011 [0x5E] EventEntity goes idle (kills current action) (animation: "idl0")
  1: 0x0016 [0x1C] WAIT(30* ticks)
  2: 0x0019 [0x00] END_REQSTACK()
```

### Event 65535.3

#### Metadata

| Field        | Value    |
|--------------|----------|
| Entrypoint   | 0x001A   |
| Data Size    | 16 bytes |
| Instructions | 2        |

```
      00 01 02 03 04 05 06 07  08 09 0A 0B 0C 0D 0E 0F
      -- -- -- -- -- -- -- --  -- -- -- -- -- -- -- --
0010:                                66 00 80 F8 FF FF            f.....
0020: 7F F8 FF FF 7F 6F 62 69  30 00                    .....obi0.      
```

#### Opcodes

```
  0: 0x001A [0x66] LOAD_EXT_SCHEDULER_MAIN: Load scheduler "obi0" with entities [EventEntity, EventEntity], work=40*
  1: 0x0029 [0x00] END_REQSTACK()
```

### Event 65535.4

#### Metadata

| Field        | Value    |
|--------------|----------|
| Entrypoint   | 0x002A   |
| Data Size    | 14 bytes |
| Instructions | 2        |

```
      00 01 02 03 04 05 06 07  08 09 0A 0B 0C 0D 0E 0F
      -- -- -- -- -- -- -- --  -- -- -- -- -- -- -- --
0020:                                53 F8 FF FF 7F F8            S.....
0030: FF FF 7F 6F 62 69 30 00                           ...obi0.        
```

#### Opcodes

```
  0: 0x002A [0x53] WAIT_SCHEDULER_TASK: Wait for scheduler "obi0" with entities [EventEntity, EventEntity]
  1: 0x0037 [0x00] END_REQSTACK()
```

### Event 65535.5

#### Metadata

| Field        | Value    |
|--------------|----------|
| Entrypoint   | 0x0038   |
| Data Size    | 16 bytes |
| Instructions | 2        |

```
      00 01 02 03 04 05 06 07  08 09 0A 0B 0C 0D 0E 0F
      -- -- -- -- -- -- -- --  -- -- -- -- -- -- -- --
0030:                          66 00 80 F8 FF FF 7F F8          f.......
0040: FF FF 7F 6F 62 69 31 00                           ...obi1.        
```

#### Opcodes

```
  0: 0x0038 [0x66] LOAD_EXT_SCHEDULER_MAIN: Load scheduler "obi1" with entities [EventEntity, EventEntity], work=40*
  1: 0x0047 [0x00] END_REQSTACK()
```

### Event 65535.6

#### Metadata

| Field        | Value    |
|--------------|----------|
| Entrypoint   | 0x0048   |
| Data Size    | 14 bytes |
| Instructions | 2        |

```
      00 01 02 03 04 05 06 07  08 09 0A 0B 0C 0D 0E 0F
      -- -- -- -- -- -- -- --  -- -- -- -- -- -- -- --
0040:                          53 F8 FF FF 7F F8 FF FF          S.......
0050: 7F 6F 62 69 31 00                                 .obi1.          
```

#### Opcodes

```
  0: 0x0048 [0x53] WAIT_SCHEDULER_TASK: Wait for scheduler "obi1" with entities [EventEntity, EventEntity]
  1: 0x0055 [0x00] END_REQSTACK()
```

### Event 59

#### Metadata

| Field        | Value    |
|--------------|----------|
| Entrypoint   | 0x0056   |
| Data Size    | 33 bytes |
| Instructions | 12       |

```
      00 01 02 03 04 05 06 07  08 09 0A 0B 0C 0D 0E 0F
      -- -- -- -- -- -- -- --  -- -- -- -- -- -- -- --
0050:                   1E F0  FF FF 7F 6F 70 29 08 29        .....op).)
0060: 20 0F 01 01 1D 02 80 23  1D 03 80 23 29 08 29 20   ......#...#).) 
0070: 0F 01 02 20 00 21 00                              ... .!.         
```

#### Opcodes

```
  0: 0x0056 [0x1E] EventEntity looks at LocalPlayer and starts talking
  1: 0x005B [0x6F] WAIT_FRAME_DELAY: Yield until WaitTime reaches zero
  2: 0x005C [0x70] WAIT_ENTITY_RENDER_FLAG: Wait while EventEntity->Render.Flags3 bit 2 is set (cancel turn if not)
  3: 0x005D [0x29] REQ_SET_WAIT(priority=0x08, entity_id=Churara (ID: 17768489/0x010F2029), tag_num=0x01)
  4: 0x0064 [0x1D] PRINT_EVENT_MESSAGE(message_id=33*)
    → "You want to become a lady-in-waiting? Well, there are many conditions. First of all, you must be a female Tarutaru. Then, you must possess neither magic nor strength, and must free yourself of all desires."
  5: 0x0067 [0x23] WAIT_FOR_DIALOG_INTERACTION
  6: 0x0068 [0x1D] PRINT_EVENT_MESSAGE(message_id=34*)
    → "(...but to tell you the truth, I sure desire a juicy-wuicy mutton tortilla right now.)"
  7: 0x006B [0x23] WAIT_FOR_DIALOG_INTERACTION
  8: 0x006C [0x29] REQ_SET_WAIT(priority=0x08, entity_id=Churara (ID: 17768489/0x010F2029), tag_num=0x02)
  9: 0x0073 [0x20] SET_CLI_EVENT_UC_FLAG: Unlock player control
 10: 0x0075 [0x21] END_EVENT
 11: 0x0076 [0x00] END_REQSTACK()
```

### Event 125

#### Metadata

| Field        | Value    |
|--------------|----------|
| Entrypoint   | 0x0077   |
| Data Size    | 33 bytes |
| Instructions | 12       |

```
      00 01 02 03 04 05 06 07  08 09 0A 0B 0C 0D 0E 0F
      -- -- -- -- -- -- -- --  -- -- -- -- -- -- -- --
0070:                      1E  F0 FF FF 7F 6F 70 29 08         .....op).
0080: 29 20 0F 01 01 1D 04 80  23 1D 05 80 23 29 08 29  ) ......#...#).)
0090: 20 0F 01 02 20 00 21 00                            ... .!.        
```

#### Opcodes

```
  0: 0x0077 [0x1E] EventEntity looks at LocalPlayer and starts talking
  1: 0x007C [0x6F] WAIT_FRAME_DELAY: Yield until WaitTime reaches zero
  2: 0x007D [0x70] WAIT_ENTITY_RENDER_FLAG: Wait while EventEntity->Render.Flags3 bit 2 is set (cancel turn if not)
  3: 0x007E [0x29] REQ_SET_WAIT(priority=0x08, entity_id=Churara (ID: 17768489/0x010F2029), tag_num=0x01)
  4: 0x0085 [0x1D] PRINT_EVENT_MESSAGE(message_id=247*)
    → "One must meet many conditions to become a lady-in-waiting. First of all, one must be a female Tarutaru. Then, one must possess neither magic nor strength, and must free themselves of all desires."
  5: 0x0088 [0x23] WAIT_FOR_DIALOG_INTERACTION
  6: 0x0089 [0x1D] PRINT_EVENT_MESSAGE(message_id=248*)
    → "Other than pray and gab and gossip, there is nothing much we can do..."
  7: 0x008C [0x23] WAIT_FOR_DIALOG_INTERACTION
  8: 0x008D [0x29] REQ_SET_WAIT(priority=0x08, entity_id=Churara (ID: 17768489/0x010F2029), tag_num=0x02)
  9: 0x0094 [0x20] SET_CLI_EVENT_UC_FLAG: Unlock player control
 10: 0x0096 [0x21] END_EVENT
 11: 0x0097 [0x00] END_REQSTACK()
```

### Event 139

#### Metadata

| Field        | Value    |
|--------------|----------|
| Entrypoint   | 0x0098   |
| Data Size    | 33 bytes |
| Instructions | 12       |

```
      00 01 02 03 04 05 06 07  08 09 0A 0B 0C 0D 0E 0F
      -- -- -- -- -- -- -- --  -- -- -- -- -- -- -- --
0090:                          1E F0 FF FF 7F 6F 70 29          .....op)
00A0: 08 29 20 0F 01 01 1D 06  80 23 1D 07 80 23 29 08  .) ......#...#).
00B0: 29 20 0F 01 02 20 00 21  00                       ) ... .!.       
```

#### Opcodes

```
  0: 0x0098 [0x1E] EventEntity looks at LocalPlayer and starts talking
  1: 0x009D [0x6F] WAIT_FRAME_DELAY: Yield until WaitTime reaches zero
  2: 0x009E [0x70] WAIT_ENTITY_RENDER_FLAG: Wait while EventEntity->Render.Flags3 bit 2 is set (cancel turn if not)
  3: 0x009F [0x29] REQ_SET_WAIT(priority=0x08, entity_id=Churara (ID: 17768489/0x010F2029), tag_num=0x01)
  4: 0x00A6 [0x1D] PRINT_EVENT_MESSAGE(message_id=280*)
    → "These last few days have been terrible-wearable for us ladies-in-waiting."
  5: 0x00A9 [0x23] WAIT_FOR_DIALOG_INTERACTION
  6: 0x00AA [0x1D] PRINT_EVENT_MESSAGE(message_id=281*)
    → "If I were a strong adventurer like you, I would not hesitate to dive deep into a monster-infested crazy mazey for the Star Sibyl."
  7: 0x00AD [0x23] WAIT_FOR_DIALOG_INTERACTION
  8: 0x00AE [0x29] REQ_SET_WAIT(priority=0x08, entity_id=Churara (ID: 17768489/0x010F2029), tag_num=0x02)
  9: 0x00B5 [0x20] SET_CLI_EVENT_UC_FLAG: Unlock player control
 10: 0x00B7 [0x21] END_EVENT
 11: 0x00B8 [0x00] END_REQSTACK()
```

### Event 179

#### Metadata

| Field        | Value    |
|--------------|----------|
| Entrypoint   | 0x00B9   |
| Data Size    | 33 bytes |
| Instructions | 12       |

```
      00 01 02 03 04 05 06 07  08 09 0A 0B 0C 0D 0E 0F
      -- -- -- -- -- -- -- --  -- -- -- -- -- -- -- --
00B0:                             1E F0 FF FF 7F 6F 70           .....op
00C0: 29 08 29 20 0F 01 01 1D  08 80 23 1D 09 80 23 29  ).) ......#...#)
00D0: 08 29 20 0F 01 02 20 00  21 00                    .) ... .!.      
```

#### Opcodes

```
  0: 0x00B9 [0x1E] EventEntity looks at LocalPlayer and starts talking
  1: 0x00BE [0x6F] WAIT_FRAME_DELAY: Yield until WaitTime reaches zero
  2: 0x00BF [0x70] WAIT_ENTITY_RENDER_FLAG: Wait while EventEntity->Render.Flags3 bit 2 is set (cancel turn if not)
  3: 0x00C0 [0x29] REQ_SET_WAIT(priority=0x08, entity_id=Churara (ID: 17768489/0x010F2029), tag_num=0x01)
  4: 0x00C7 [0x1D] PRINT_EVENT_MESSAGE(message_id=369*)
    → "The other day, I saw Lady Semih Lafihna return from one of her missions."
  5: 0x00CA [0x23] WAIT_FOR_DIALOG_INTERACTION
  6: 0x00CB [0x1D] PRINT_EVENT_MESSAGE(message_id=370*)
    → "Now this is just a rumor, but I heard somebody saying that all five ministers have been called for a conference. What is to become of Windurst!?"
  7: 0x00CE [0x23] WAIT_FOR_DIALOG_INTERACTION
  8: 0x00CF [0x29] REQ_SET_WAIT(priority=0x08, entity_id=Churara (ID: 17768489/0x010F2029), tag_num=0x02)
  9: 0x00D6 [0x20] SET_CLI_EVENT_UC_FLAG: Unlock player control
 10: 0x00D8 [0x21] END_EVENT
 11: 0x00D9 [0x00] END_REQSTACK()
```

### Event 204

#### Metadata

| Field        | Value    |
|--------------|----------|
| Entrypoint   | 0x00DA   |
| Data Size    | 33 bytes |
| Instructions | 12       |

```
      00 01 02 03 04 05 06 07  08 09 0A 0B 0C 0D 0E 0F
      -- -- -- -- -- -- -- --  -- -- -- -- -- -- -- --
00D0:                                1E F0 FF FF 7F 6F            .....o
00E0: 70 29 08 29 20 0F 01 01  1D 0A 80 23 1D 0B 80 23  p).) ......#...#
00F0: 29 08 29 20 0F 01 02 20  00 21 00                 ).) ... .!.     
```

#### Opcodes

```
  0: 0x00DA [0x1E] EventEntity looks at LocalPlayer and starts talking
  1: 0x00DF [0x6F] WAIT_FRAME_DELAY: Yield until WaitTime reaches zero
  2: 0x00E0 [0x70] WAIT_ENTITY_RENDER_FLAG: Wait while EventEntity->Render.Flags3 bit 2 is set (cancel turn if not)
  3: 0x00E1 [0x29] REQ_SET_WAIT(priority=0x08, entity_id=Churara (ID: 17768489/0x010F2029), tag_num=0x01)
  4: 0x00E8 [0x1D] PRINT_EVENT_MESSAGE(message_id=454*)
    → "I heard from one of the other ladies that the Orastery minister was one of the most outspoken against another war."
  5: 0x00EB [0x23] WAIT_FOR_DIALOG_INTERACTION
  6: 0x00EC [0x1D] PRINT_EVENT_MESSAGE(message_id=455*)
    → "He is probably just worried about having all his important books burned to a crunchy-crisp."
  7: 0x00EF [0x23] WAIT_FOR_DIALOG_INTERACTION
  8: 0x00F0 [0x29] REQ_SET_WAIT(priority=0x08, entity_id=Churara (ID: 17768489/0x010F2029), tag_num=0x02)
  9: 0x00F7 [0x20] SET_CLI_EVENT_UC_FLAG: Unlock player control
 10: 0x00F9 [0x21] END_EVENT
 11: 0x00FA [0x00] END_REQSTACK()
```

### Event 225

#### Metadata

| Field        | Value    |
|--------------|----------|
| Entrypoint   | 0x00FB   |
| Data Size    | 33 bytes |
| Instructions | 12       |

```
      00 01 02 03 04 05 06 07  08 09 0A 0B 0C 0D 0E 0F
      -- -- -- -- -- -- -- --  -- -- -- -- -- -- -- --
00F0:                                   1E F0 FF FF 7F             .....
0100: 6F 70 29 08 29 20 0F 01  01 1D 0C 80 23 1D 0D 80  op).) ......#...
0110: 23 29 08 29 20 0F 01 02  20 00 21 00              #).) ... .!.    
```

#### Opcodes

```
  0: 0x00FB [0x1E] EventEntity looks at LocalPlayer and starts talking
  1: 0x0100 [0x6F] WAIT_FRAME_DELAY: Yield until WaitTime reaches zero
  2: 0x0101 [0x70] WAIT_ENTITY_RENDER_FLAG: Wait while EventEntity->Render.Flags3 bit 2 is set (cancel turn if not)
  3: 0x0102 [0x29] REQ_SET_WAIT(priority=0x08, entity_id=Churara (ID: 17768489/0x010F2029), tag_num=0x01)
  4: 0x0109 [0x1D] PRINT_EVENT_MESSAGE(message_id=501*)
    → "There's no gossip like good gossip!"
  5: 0x010C [0x23] WAIT_FOR_DIALOG_INTERACTION
  6: 0x010D [0x1D] PRINT_EVENT_MESSAGE(message_id=502*)
    → "But gossip you can't share with any-nutty-body... Where's the fun in that?"
  7: 0x0110 [0x23] WAIT_FOR_DIALOG_INTERACTION
  8: 0x0111 [0x29] REQ_SET_WAIT(priority=0x08, entity_id=Churara (ID: 17768489/0x010F2029), tag_num=0x02)
  9: 0x0118 [0x20] SET_CLI_EVENT_UC_FLAG: Unlock player control
 10: 0x011A [0x21] END_EVENT
 11: 0x011B [0x00] END_REQSTACK()
```

### Event 121

#### Metadata

| Field        | Value   |
|--------------|---------|
| Entrypoint   | 0x011C  |
| Data Size    | 1 bytes |
| Instructions | 1       |

```
      00 01 02 03 04 05 06 07  08 09 0A 0B 0C 0D 0E 0F
      -- -- -- -- -- -- -- --  -- -- -- -- -- -- -- --
0110:                                      00                       .   
```

#### Opcodes

```
  0: 0x011C [0x00] END_REQSTACK()
```

### Event 339

#### Metadata

| Field        | Value    |
|--------------|----------|
| Entrypoint   | 0x011D   |
| Data Size    | 33 bytes |
| Instructions | 12       |

```
      00 01 02 03 04 05 06 07  08 09 0A 0B 0C 0D 0E 0F
      -- -- -- -- -- -- -- --  -- -- -- -- -- -- -- --
0110:                                         1E F0 FF               ...
0120: FF 7F 6F 70 29 08 29 20  0F 01 01 1D 0E 80 23 1D  ..op).) ......#.
0130: 0F 80 23 29 08 29 20 0F  01 02 20 00 21 00        ..#).) ... .!.  
```

#### Opcodes

```
  0: 0x011D [0x1E] EventEntity looks at LocalPlayer and starts talking
  1: 0x0122 [0x6F] WAIT_FRAME_DELAY: Yield until WaitTime reaches zero
  2: 0x0123 [0x70] WAIT_ENTITY_RENDER_FLAG: Wait while EventEntity->Render.Flags3 bit 2 is set (cancel turn if not)
  3: 0x0124 [0x29] REQ_SET_WAIT(priority=0x08, entity_id=Churara (ID: 17768489/0x010F2029), tag_num=0x01)
  4: 0x012B [0x1D] PRINT_EVENT_MESSAGE(message_id=8283*)
    → "I didn't even catch a glimpse of the bearer of darkness. And for that I'm profoundly-woundly grateful."
  5: 0x012E [0x23] WAIT_FOR_DIALOG_INTERACTION
  6: 0x012F [0x1D] PRINT_EVENT_MESSAGE(message_id=8284*)
    → "I thought my heart would pitter-patter to a stop when I heard the Star Sibyl had been attacked. Thank the Goddess she's safe."
  7: 0x0132 [0x23] WAIT_FOR_DIALOG_INTERACTION
  8: 0x0133 [0x29] REQ_SET_WAIT(priority=0x08, entity_id=Churara (ID: 17768489/0x010F2029), tag_num=0x02)
  9: 0x013A [0x20] SET_CLI_EVENT_UC_FLAG: Unlock player control
 10: 0x013C [0x21] END_EVENT
 11: 0x013D [0x00] END_REQSTACK()
```

### Event 352

#### Metadata

| Field        | Value    |
|--------------|----------|
| Entrypoint   | 0x013E   |
| Data Size    | 33 bytes |
| Instructions | 12       |

```
      00 01 02 03 04 05 06 07  08 09 0A 0B 0C 0D 0E 0F
      -- -- -- -- -- -- -- --  -- -- -- -- -- -- -- --
0130:                                            1E F0                ..
0140: FF FF 7F 6F 70 29 08 29  20 0F 01 01 1D 10 80 23  ...op).) ......#
0150: 1D 11 80 23 29 08 29 20  0F 01 02 20 00 21 00     ...#).) ... .!. 
```

#### Opcodes

```
  0: 0x013E [0x1E] EventEntity looks at LocalPlayer and starts talking
  1: 0x0143 [0x6F] WAIT_FRAME_DELAY: Yield until WaitTime reaches zero
  2: 0x0144 [0x70] WAIT_ENTITY_RENDER_FLAG: Wait while EventEntity->Render.Flags3 bit 2 is set (cancel turn if not)
  3: 0x0145 [0x29] REQ_SET_WAIT(priority=0x08, entity_id=Churara (ID: 17768489/0x010F2029), tag_num=0x01)
  4: 0x014C [0x1D] PRINT_EVENT_MESSAGE(message_id=8423*)
    → "The Mithran Chieftainness was here at Heavens Tower just a little while ago. Semih Lafihna explained to her that the Star Sibyl wasn't taking visitors at the momentaru."
  5: 0x014F [0x23] WAIT_FOR_DIALOG_INTERACTION
  6: 0x0150 [0x1D] PRINT_EVENT_MESSAGE(message_id=8424*)
    → "Those two Mithra don't look anything alike, but there's something similar about their auras. The chieftainness and Semih Lafihna both carry the scent of the wilds with them."
  7: 0x0153 [0x23] WAIT_FOR_DIALOG_INTERACTION
  8: 0x0154 [0x29] REQ_SET_WAIT(priority=0x08, entity_id=Churara (ID: 17768489/0x010F2029), tag_num=0x02)
  9: 0x015B [0x20] SET_CLI_EVENT_UC_FLAG: Unlock player control
 10: 0x015D [0x21] END_EVENT
 11: 0x015E [0x00] END_REQSTACK()
```

### Event 390

#### Metadata

| Field        | Value    |
|--------------|----------|
| Entrypoint   | 0x015F   |
| Data Size    | 33 bytes |
| Instructions | 12       |

```
      00 01 02 03 04 05 06 07  08 09 0A 0B 0C 0D 0E 0F
      -- -- -- -- -- -- -- --  -- -- -- -- -- -- -- --
0150:                                               1E                 .
0160: F0 FF FF 7F 6F 70 29 08  29 20 0F 01 01 1D 12 80  ....op).) ......
0170: 23 1D 13 80 23 29 08 29  20 0F 01 02 20 00 21 00  #...#).) ... .!.
```

#### Opcodes

```
  0: 0x015F [0x1E] EventEntity looks at LocalPlayer and starts talking
  1: 0x0164 [0x6F] WAIT_FRAME_DELAY: Yield until WaitTime reaches zero
  2: 0x0165 [0x70] WAIT_ENTITY_RENDER_FLAG: Wait while EventEntity->Render.Flags3 bit 2 is set (cancel turn if not)
  3: 0x0166 [0x29] REQ_SET_WAIT(priority=0x08, entity_id=Churara (ID: 17768489/0x010F2029), tag_num=0x01)
  4: 0x016D [0x1D] PRINT_EVENT_MESSAGE(message_id=8513*)
    → "A little while ago, the Mithran chieftainness came to speak with the Star Sibyl on an importantaru matter."
  5: 0x0170 [0x23] WAIT_FOR_DIALOG_INTERACTION
  6: 0x0171 [0x1D] PRINT_EVENT_MESSAGE(message_id=8514*)
    → "Please don'taru be alarmed. The chieftainness left Heavens Tower with a mostaru serene expression upon her face. It seems their audience concluded on a satisfactory note."
  7: 0x0174 [0x23] WAIT_FOR_DIALOG_INTERACTION
  8: 0x0175 [0x29] REQ_SET_WAIT(priority=0x08, entity_id=Churara (ID: 17768489/0x010F2029), tag_num=0x02)
  9: 0x017C [0x20] SET_CLI_EVENT_UC_FLAG: Unlock player control
 10: 0x017E [0x21] END_EVENT
 11: 0x017F [0x00] END_REQSTACK()
```
