# 17768487 - Aeshushu

## Common Data

| Field            | Value                   |
|------------------|-------------------------|
| Zone             | Heavens Tower (ID: 242) |
| Block Size       | 684 bytes               |
| Total Events     | 22                      |
| References Count | 22                      |

## List of Events

| Event ID                   | Entrypoint   |   Size |   Instructions |
|----------------------------|--------------|--------|----------------|
| [65535](#event-65535)      | 0x0000       |      1 |              1 |
| [65535.1](#event-655351)   | 0x0001       |     16 |              2 |
| [65535.2](#event-655352)   | 0x0011       |      9 |              3 |
| [65535.3](#event-655353)   | 0x001A       |     16 |              2 |
| [65535.4](#event-655354)   | 0x002A       |     14 |              2 |
| [65535.5](#event-655355)   | 0x0038       |     16 |              2 |
| [65535.6](#event-655356)   | 0x0048       |     14 |              2 |
| [65535.7](#event-655357)   | 0x0056       |     16 |              2 |
| [65535.8](#event-655358)   | 0x0066       |     14 |              2 |
| [65535.9](#event-655359)   | 0x0074       |     16 |              2 |
| [65535.10](#event-6553510) | 0x0084       |     14 |              2 |
| [60](#event-60)            | 0x0092       |     33 |             12 |
| [72](#event-72)            | 0x00B3       |     33 |             12 |
| [126](#event-126)          | 0x00D4       |     33 |             12 |
| [140](#event-140)          | 0x00F5       |     33 |             12 |
| [180](#event-180)          | 0x0116       |     33 |             12 |
| [205](#event-205)          | 0x0137       |     33 |             12 |
| [226](#event-226)          | 0x0158       |     33 |             12 |
| [121](#event-121)          | 0x0179       |      1 |              1 |
| [340](#event-340)          | 0x017A       |     33 |             12 |
| [353](#event-353)          | 0x019B       |     33 |             12 |
| [391](#event-391)          | 0x01BC       |     47 |             14 |

## DAT References (imed_data)

|   Index | Hex Value   |   Dec Value |
|---------|-------------|-------------|
|       0 | 0x0028      |          40 |
|       1 | 0x001E      |          30 |
|       2 | 0x0023      |          35 |
|       3 | 0x0024      |          36 |
|       4 | 0x003B      |          59 |
|       5 | 0x003C      |          60 |
|       6 | 0x00F9      |         249 |
|       7 | 0x00FA      |         250 |
|       8 | 0x011A      |         282 |
|       9 | 0x011B      |         283 |
|      10 | 0x0173      |         371 |
|      11 | 0x0174      |         372 |
|      12 | 0x01C8      |         456 |
|      13 | 0x01C9      |         457 |
|      14 | 0x01F7      |         503 |
|      15 | 0x01F8      |         504 |
|      16 | 0x205D      |        8285 |
|      17 | 0x205E      |        8286 |
|      18 | 0x20E9      |        8425 |
|      19 | 0x20EA      |        8426 |
|      20 | 0x2143      |        8515 |
|      21 | 0x2144      |        8516 |

## String References

- **35**: Like, guess what? The other day when I was running one of baba-Zubaba's errands to the planetarium...I saw...(the Star Sibyl!)
- **36**: She was like, just sitting there gazing off into the Star Spring. I bet she was looking into the future, or something! Isn't that just the coolest?
- **59**: Yeah! The Star Sibyl is, like, back on her feetsy-toes again! You go girl!
- **60**: I can't wait to see her back, gazing into the Star Spring...but not for too long, you know. She needs her rest!
- **249**: What are we gonna do? What are we gonna do? The Star Sibyl's collapsed! What are we gonna do?
- **250**: If it would save the Star Sibyl, I'd like, sell my soul to the Shadow Lord!
- **282**: The Star Sibyl's looking tons better. Whenever she's down she keeps coming back for more. You go girl!
- **283**: I must be, like, the power-wower of the Great Star Tree! I prayed every night, and now my prayers have been answered. It's like, whoa!
- **371**: Hey, did you, like, like, like get to see the Star Sibyl?
- **372**: She must be feeling really bluesy-woozy. I wonder how she can take it all!
- **456**: Hey, hey, hey! Did you already-wetty go see the Star Sibyl?
- **457**: We ladies-in-waiting have a bet going that you will be called up as a member-wember of the group that goes after the Shadow Lord.
- **503**: You mean the Shadow Lord been squishy-smashed? No way!
- **504**: And you were there when it happened? No way! This is all, like, too much excitement for one day.
- **8285**: This is, like, totally terrible! That evil-weevil bearer of darkness has shown up in the Planetarium again!
- **8286**: The bearer of darkness is, like, not like any of the other beastmen! I heard it's, like, way weirder than anything anyone has ever seen!
- **8425**: Do you really think the Yagudo are, like, serious about keeping up this whole peace treaty thing?
- **8426**: I was born after the Great War, so I don'taru know anything about battle or stuff like that. But I think it must be, like, totally difficult to forget all the death and suffering caused by the war.
- **8515**: Semih Lafihna left to deliver Windurst's reply to the Yagudo, but... She was, like, totally armed for battle...
- **8516**: I guess the Yagudo aren'taru gonna like what the letter has to say. If the Yagudo get all miffed and stuff, what's gonna happen? It kinda stresses me out, y'know?

## Events

### Event 65535

#### Metadata

| Field        | Value   |
|--------------|---------|
| Entrypoint   | 0x0000  |
| Data Size    | 1 bytes |
| Instructions | 1       |

```
      00 01 02 03 04 05 06 07  08 09 0A 0B 0C 0D 0E 0F
      -- -- -- -- -- -- -- --  -- -- -- -- -- -- -- --
0000: 00                                                .               
```

#### Opcodes

```
  0: 0x0000 [0x00] END_REQSTACK()
```

### Event 65535.1

#### Metadata

| Field        | Value    |
|--------------|----------|
| Entrypoint   | 0x0001   |
| Data Size    | 16 bytes |
| Instructions | 2        |

```
      00 01 02 03 04 05 06 07  08 09 0A 0B 0C 0D 0E 0F
      -- -- -- -- -- -- -- --  -- -- -- -- -- -- -- --
0000:    66 00 80 F8 FF FF 7F  F8 FF FF 7F 74 6C 6B 30   f..........tlk0
0010: 00                                                .               
```

#### Opcodes

```
  0: 0x0001 [0x66] LOAD_EXT_SCHEDULER_MAIN: Load scheduler "tlk0" with entities [EventEntity, EventEntity], work=40*
  1: 0x0010 [0x00] END_REQSTACK()
```

### Event 65535.2

#### Metadata

| Field        | Value   |
|--------------|---------|
| Entrypoint   | 0x0011  |
| Data Size    | 9 bytes |
| Instructions | 3       |

```
      00 01 02 03 04 05 06 07  08 09 0A 0B 0C 0D 0E 0F
      -- -- -- -- -- -- -- --  -- -- -- -- -- -- -- --
0010:    5E 69 64 6C 30 1C 01  80 00                     ^idl0....      
```

#### Opcodes

```
  0: 0x0011 [0x5E] EventEntity goes idle (kills current action) (animation: "idl0")
  1: 0x0016 [0x1C] WAIT(30* ticks)
  2: 0x0019 [0x00] END_REQSTACK()
```

### Event 65535.3

#### Metadata

| Field        | Value    |
|--------------|----------|
| Entrypoint   | 0x001A   |
| Data Size    | 16 bytes |
| Instructions | 2        |

```
      00 01 02 03 04 05 06 07  08 09 0A 0B 0C 0D 0E 0F
      -- -- -- -- -- -- -- --  -- -- -- -- -- -- -- --
0010:                                66 00 80 F8 FF FF            f.....
0020: 7F F8 FF FF 7F 6F 62 69  30 00                    .....obi0.      
```

#### Opcodes

```
  0: 0x001A [0x66] LOAD_EXT_SCHEDULER_MAIN: Load scheduler "obi0" with entities [EventEntity, EventEntity], work=40*
  1: 0x0029 [0x00] END_REQSTACK()
```

### Event 65535.4

#### Metadata

| Field        | Value    |
|--------------|----------|
| Entrypoint   | 0x002A   |
| Data Size    | 14 bytes |
| Instructions | 2        |

```
      00 01 02 03 04 05 06 07  08 09 0A 0B 0C 0D 0E 0F
      -- -- -- -- -- -- -- --  -- -- -- -- -- -- -- --
0020:                                53 F8 FF FF 7F F8            S.....
0030: FF FF 7F 6F 62 69 30 00                           ...obi0.        
```

#### Opcodes

```
  0: 0x002A [0x53] WAIT_SCHEDULER_TASK: Wait for scheduler "obi0" with entities [EventEntity, EventEntity]
  1: 0x0037 [0x00] END_REQSTACK()
```

### Event 65535.5

#### Metadata

| Field        | Value    |
|--------------|----------|
| Entrypoint   | 0x0038   |
| Data Size    | 16 bytes |
| Instructions | 2        |

```
      00 01 02 03 04 05 06 07  08 09 0A 0B 0C 0D 0E 0F
      -- -- -- -- -- -- -- --  -- -- -- -- -- -- -- --
0030:                          66 00 80 F8 FF FF 7F F8          f.......
0040: FF FF 7F 6F 62 69 31 00                           ...obi1.        
```

#### Opcodes

```
  0: 0x0038 [0x66] LOAD_EXT_SCHEDULER_MAIN: Load scheduler "obi1" with entities [EventEntity, EventEntity], work=40*
  1: 0x0047 [0x00] END_REQSTACK()
```

### Event 65535.6

#### Metadata

| Field        | Value    |
|--------------|----------|
| Entrypoint   | 0x0048   |
| Data Size    | 14 bytes |
| Instructions | 2        |

```
      00 01 02 03 04 05 06 07  08 09 0A 0B 0C 0D 0E 0F
      -- -- -- -- -- -- -- --  -- -- -- -- -- -- -- --
0040:                          53 F8 FF FF 7F F8 FF FF          S.......
0050: 7F 6F 62 69 31 00                                 .obi1.          
```

#### Opcodes

```
  0: 0x0048 [0x53] WAIT_SCHEDULER_TASK: Wait for scheduler "obi1" with entities [EventEntity, EventEntity]
  1: 0x0055 [0x00] END_REQSTACK()
```

### Event 65535.7

#### Metadata

| Field        | Value    |
|--------------|----------|
| Entrypoint   | 0x0056   |
| Data Size    | 16 bytes |
| Instructions | 2        |

```
      00 01 02 03 04 05 06 07  08 09 0A 0B 0C 0D 0E 0F
      -- -- -- -- -- -- -- --  -- -- -- -- -- -- -- --
0050:                   66 00  80 F8 FF FF 7F F8 FF FF        f.........
0060: 7F 74 68 6B 31 00                                 .thk1.          
```

#### Opcodes

```
  0: 0x0056 [0x66] LOAD_EXT_SCHEDULER_MAIN: Load scheduler "thk1" with entities [EventEntity, EventEntity], work=40*
  1: 0x0065 [0x00] END_REQSTACK()
```

### Event 65535.8

#### Metadata

| Field        | Value    |
|--------------|----------|
| Entrypoint   | 0x0066   |
| Data Size    | 14 bytes |
| Instructions | 2        |

```
      00 01 02 03 04 05 06 07  08 09 0A 0B 0C 0D 0E 0F
      -- -- -- -- -- -- -- --  -- -- -- -- -- -- -- --
0060:                   53 F8  FF FF 7F F8 FF FF 7F 74        S........t
0070: 68 6B 31 00                                       hk1.            
```

#### Opcodes

```
  0: 0x0066 [0x53] WAIT_SCHEDULER_TASK: Wait for scheduler "thk1" with entities [EventEntity, EventEntity]
  1: 0x0073 [0x00] END_REQSTACK()
```

### Event 65535.9

#### Metadata

| Field        | Value    |
|--------------|----------|
| Entrypoint   | 0x0074   |
| Data Size    | 16 bytes |
| Instructions | 2        |

```
      00 01 02 03 04 05 06 07  08 09 0A 0B 0C 0D 0E 0F
      -- -- -- -- -- -- -- --  -- -- -- -- -- -- -- --
0070:             66 00 80 F8  FF FF 7F F8 FF FF 7F 74      f..........t
0080: 68 6B 32 00                                       hk2.            
```

#### Opcodes

```
  0: 0x0074 [0x66] LOAD_EXT_SCHEDULER_MAIN: Load scheduler "thk2" with entities [EventEntity, EventEntity], work=40*
  1: 0x0083 [0x00] END_REQSTACK()
```

### Event 65535.10

#### Metadata

| Field        | Value    |
|--------------|----------|
| Entrypoint   | 0x0084   |
| Data Size    | 14 bytes |
| Instructions | 2        |

```
      00 01 02 03 04 05 06 07  08 09 0A 0B 0C 0D 0E 0F
      -- -- -- -- -- -- -- --  -- -- -- -- -- -- -- --
0080:             53 F8 FF FF  7F F8 FF FF 7F 74 68 6B      S........thk
0090: 32 00                                             2.              
```

#### Opcodes

```
  0: 0x0084 [0x53] WAIT_SCHEDULER_TASK: Wait for scheduler "thk2" with entities [EventEntity, EventEntity]
  1: 0x0091 [0x00] END_REQSTACK()
```

### Event 60

#### Metadata

| Field        | Value    |
|--------------|----------|
| Entrypoint   | 0x0092   |
| Data Size    | 33 bytes |
| Instructions | 12       |

```
      00 01 02 03 04 05 06 07  08 09 0A 0B 0C 0D 0E 0F
      -- -- -- -- -- -- -- --  -- -- -- -- -- -- -- --
0090:       1E F0 FF FF 7F 6F  70 29 08 27 20 0F 01 01    .....op).' ...
00A0: 1D 02 80 23 1D 03 80 23  29 08 27 20 0F 01 02 20  ...#...#).' ... 
00B0: 00 21 00                                          .!.             
```

#### Opcodes

```
  0: 0x0092 [0x1E] EventEntity looks at LocalPlayer and starts talking
  1: 0x0097 [0x6F] WAIT_FRAME_DELAY: Yield until WaitTime reaches zero
  2: 0x0098 [0x70] WAIT_ENTITY_RENDER_FLAG: Wait while EventEntity->Render.Flags3 bit 2 is set (cancel turn if not)
  3: 0x0099 [0x29] REQ_SET_WAIT(priority=0x08, entity_id=Aeshushu (ID: 17768487/0x010F2027), tag_num=0x01)
  4: 0x00A0 [0x1D] PRINT_EVENT_MESSAGE(message_id=35*)
    → "Like, guess what? The other day when I was running one of baba-Zubaba's errands to the planetarium...I saw...(the Star Sibyl!)"
  5: 0x00A3 [0x23] WAIT_FOR_DIALOG_INTERACTION
  6: 0x00A4 [0x1D] PRINT_EVENT_MESSAGE(message_id=36*)
    → "She was like, just sitting there gazing off into the Star Spring. I bet she was looking into the future, or something! Isn't that just the coolest?"
  7: 0x00A7 [0x23] WAIT_FOR_DIALOG_INTERACTION
  8: 0x00A8 [0x29] REQ_SET_WAIT(priority=0x08, entity_id=Aeshushu (ID: 17768487/0x010F2027), tag_num=0x02)
  9: 0x00AF [0x20] SET_CLI_EVENT_UC_FLAG: Unlock player control
 10: 0x00B1 [0x21] END_EVENT
 11: 0x00B2 [0x00] END_REQSTACK()
```

### Event 72

#### Metadata

| Field        | Value    |
|--------------|----------|
| Entrypoint   | 0x00B3   |
| Data Size    | 33 bytes |
| Instructions | 12       |

```
      00 01 02 03 04 05 06 07  08 09 0A 0B 0C 0D 0E 0F
      -- -- -- -- -- -- -- --  -- -- -- -- -- -- -- --
00B0:          1E F0 FF FF 7F  6F 70 29 08 27 20 0F 01     .....op).' ..
00C0: 01 1D 04 80 23 1D 05 80  23 29 08 27 20 0F 01 02  ....#...#).' ...
00D0: 20 00 21 00                                        .!.            
```

#### Opcodes

```
  0: 0x00B3 [0x1E] EventEntity looks at LocalPlayer and starts talking
  1: 0x00B8 [0x6F] WAIT_FRAME_DELAY: Yield until WaitTime reaches zero
  2: 0x00B9 [0x70] WAIT_ENTITY_RENDER_FLAG: Wait while EventEntity->Render.Flags3 bit 2 is set (cancel turn if not)
  3: 0x00BA [0x29] REQ_SET_WAIT(priority=0x08, entity_id=Aeshushu (ID: 17768487/0x010F2027), tag_num=0x01)
  4: 0x00C1 [0x1D] PRINT_EVENT_MESSAGE(message_id=59*)
    → "Yeah! The Star Sibyl is, like, back on her feetsy-toes again! You go girl!"
  5: 0x00C4 [0x23] WAIT_FOR_DIALOG_INTERACTION
  6: 0x00C5 [0x1D] PRINT_EVENT_MESSAGE(message_id=60*)
    → "I can't wait to see her back, gazing into the Star Spring...but not for too long, you know. She needs her rest!"
  7: 0x00C8 [0x23] WAIT_FOR_DIALOG_INTERACTION
  8: 0x00C9 [0x29] REQ_SET_WAIT(priority=0x08, entity_id=Aeshushu (ID: 17768487/0x010F2027), tag_num=0x02)
  9: 0x00D0 [0x20] SET_CLI_EVENT_UC_FLAG: Unlock player control
 10: 0x00D2 [0x21] END_EVENT
 11: 0x00D3 [0x00] END_REQSTACK()
```

### Event 126

#### Metadata

| Field        | Value    |
|--------------|----------|
| Entrypoint   | 0x00D4   |
| Data Size    | 33 bytes |
| Instructions | 12       |

```
      00 01 02 03 04 05 06 07  08 09 0A 0B 0C 0D 0E 0F
      -- -- -- -- -- -- -- --  -- -- -- -- -- -- -- --
00D0:             1E F0 FF FF  7F 6F 70 29 08 27 20 0F      .....op).' .
00E0: 01 01 1D 06 80 23 1D 07  80 23 29 08 27 20 0F 01  .....#...#).' ..
00F0: 02 20 00 21 00                                    . .!.           
```

#### Opcodes

```
  0: 0x00D4 [0x1E] EventEntity looks at LocalPlayer and starts talking
  1: 0x00D9 [0x6F] WAIT_FRAME_DELAY: Yield until WaitTime reaches zero
  2: 0x00DA [0x70] WAIT_ENTITY_RENDER_FLAG: Wait while EventEntity->Render.Flags3 bit 2 is set (cancel turn if not)
  3: 0x00DB [0x29] REQ_SET_WAIT(priority=0x08, entity_id=Aeshushu (ID: 17768487/0x010F2027), tag_num=0x01)
  4: 0x00E2 [0x1D] PRINT_EVENT_MESSAGE(message_id=249*)
    → "What are we gonna do? What are we gonna do? The Star Sibyl's collapsed! What are we gonna do?"
  5: 0x00E5 [0x23] WAIT_FOR_DIALOG_INTERACTION
  6: 0x00E6 [0x1D] PRINT_EVENT_MESSAGE(message_id=250*)
    → "If it would save the Star Sibyl, I'd like, sell my soul to the Shadow Lord!"
  7: 0x00E9 [0x23] WAIT_FOR_DIALOG_INTERACTION
  8: 0x00EA [0x29] REQ_SET_WAIT(priority=0x08, entity_id=Aeshushu (ID: 17768487/0x010F2027), tag_num=0x02)
  9: 0x00F1 [0x20] SET_CLI_EVENT_UC_FLAG: Unlock player control
 10: 0x00F3 [0x21] END_EVENT
 11: 0x00F4 [0x00] END_REQSTACK()
```

### Event 140

#### Metadata

| Field        | Value    |
|--------------|----------|
| Entrypoint   | 0x00F5   |
| Data Size    | 33 bytes |
| Instructions | 12       |

```
      00 01 02 03 04 05 06 07  08 09 0A 0B 0C 0D 0E 0F
      -- -- -- -- -- -- -- --  -- -- -- -- -- -- -- --
00F0:                1E F0 FF  FF 7F 6F 70 29 08 27 20       .....op).' 
0100: 0F 01 01 1D 08 80 23 1D  09 80 23 29 08 27 20 0F  ......#...#).' .
0110: 01 02 20 00 21 00                                 .. .!.          
```

#### Opcodes

```
  0: 0x00F5 [0x1E] EventEntity looks at LocalPlayer and starts talking
  1: 0x00FA [0x6F] WAIT_FRAME_DELAY: Yield until WaitTime reaches zero
  2: 0x00FB [0x70] WAIT_ENTITY_RENDER_FLAG: Wait while EventEntity->Render.Flags3 bit 2 is set (cancel turn if not)
  3: 0x00FC [0x29] REQ_SET_WAIT(priority=0x08, entity_id=Aeshushu (ID: 17768487/0x010F2027), tag_num=0x01)
  4: 0x0103 [0x1D] PRINT_EVENT_MESSAGE(message_id=282*)
    → "The Star Sibyl's looking tons better. Whenever she's down she keeps coming back for more. You go girl!"
  5: 0x0106 [0x23] WAIT_FOR_DIALOG_INTERACTION
  6: 0x0107 [0x1D] PRINT_EVENT_MESSAGE(message_id=283*)
    → "I must be, like, the power-wower of the Great Star Tree! I prayed every night, and now my prayers have been answered. It's like, whoa!"
  7: 0x010A [0x23] WAIT_FOR_DIALOG_INTERACTION
  8: 0x010B [0x29] REQ_SET_WAIT(priority=0x08, entity_id=Aeshushu (ID: 17768487/0x010F2027), tag_num=0x02)
  9: 0x0112 [0x20] SET_CLI_EVENT_UC_FLAG: Unlock player control
 10: 0x0114 [0x21] END_EVENT
 11: 0x0115 [0x00] END_REQSTACK()
```

### Event 180

#### Metadata

| Field        | Value    |
|--------------|----------|
| Entrypoint   | 0x0116   |
| Data Size    | 33 bytes |
| Instructions | 12       |

```
      00 01 02 03 04 05 06 07  08 09 0A 0B 0C 0D 0E 0F
      -- -- -- -- -- -- -- --  -- -- -- -- -- -- -- --
0110:                   1E F0  FF FF 7F 6F 70 29 08 27        .....op).'
0120: 20 0F 01 01 1D 0A 80 23  1D 0B 80 23 29 08 27 20   ......#...#).' 
0130: 0F 01 02 20 00 21 00                              ... .!.         
```

#### Opcodes

```
  0: 0x0116 [0x1E] EventEntity looks at LocalPlayer and starts talking
  1: 0x011B [0x6F] WAIT_FRAME_DELAY: Yield until WaitTime reaches zero
  2: 0x011C [0x70] WAIT_ENTITY_RENDER_FLAG: Wait while EventEntity->Render.Flags3 bit 2 is set (cancel turn if not)
  3: 0x011D [0x29] REQ_SET_WAIT(priority=0x08, entity_id=Aeshushu (ID: 17768487/0x010F2027), tag_num=0x01)
  4: 0x0124 [0x1D] PRINT_EVENT_MESSAGE(message_id=371*)
    → "Hey, did you, like, like, like get to see the Star Sibyl?"
  5: 0x0127 [0x23] WAIT_FOR_DIALOG_INTERACTION
  6: 0x0128 [0x1D] PRINT_EVENT_MESSAGE(message_id=372*)
    → "She must be feeling really bluesy-woozy. I wonder how she can take it all!"
  7: 0x012B [0x23] WAIT_FOR_DIALOG_INTERACTION
  8: 0x012C [0x29] REQ_SET_WAIT(priority=0x08, entity_id=Aeshushu (ID: 17768487/0x010F2027), tag_num=0x02)
  9: 0x0133 [0x20] SET_CLI_EVENT_UC_FLAG: Unlock player control
 10: 0x0135 [0x21] END_EVENT
 11: 0x0136 [0x00] END_REQSTACK()
```

### Event 205

#### Metadata

| Field        | Value    |
|--------------|----------|
| Entrypoint   | 0x0137   |
| Data Size    | 33 bytes |
| Instructions | 12       |

```
      00 01 02 03 04 05 06 07  08 09 0A 0B 0C 0D 0E 0F
      -- -- -- -- -- -- -- --  -- -- -- -- -- -- -- --
0130:                      1E  F0 FF FF 7F 6F 70 29 08         .....op).
0140: 27 20 0F 01 01 1D 0C 80  23 1D 0D 80 23 29 08 27  ' ......#...#).'
0150: 20 0F 01 02 20 00 21 00                            ... .!.        
```

#### Opcodes

```
  0: 0x0137 [0x1E] EventEntity looks at LocalPlayer and starts talking
  1: 0x013C [0x6F] WAIT_FRAME_DELAY: Yield until WaitTime reaches zero
  2: 0x013D [0x70] WAIT_ENTITY_RENDER_FLAG: Wait while EventEntity->Render.Flags3 bit 2 is set (cancel turn if not)
  3: 0x013E [0x29] REQ_SET_WAIT(priority=0x08, entity_id=Aeshushu (ID: 17768487/0x010F2027), tag_num=0x01)
  4: 0x0145 [0x1D] PRINT_EVENT_MESSAGE(message_id=456*)
    → "Hey, hey, hey! Did you already-wetty go see the Star Sibyl?"
  5: 0x0148 [0x23] WAIT_FOR_DIALOG_INTERACTION
  6: 0x0149 [0x1D] PRINT_EVENT_MESSAGE(message_id=457*)
    → "We ladies-in-waiting have a bet going that you will be called up as a member-wember of the group that goes after the Shadow Lord."
  7: 0x014C [0x23] WAIT_FOR_DIALOG_INTERACTION
  8: 0x014D [0x29] REQ_SET_WAIT(priority=0x08, entity_id=Aeshushu (ID: 17768487/0x010F2027), tag_num=0x02)
  9: 0x0154 [0x20] SET_CLI_EVENT_UC_FLAG: Unlock player control
 10: 0x0156 [0x21] END_EVENT
 11: 0x0157 [0x00] END_REQSTACK()
```

### Event 226

#### Metadata

| Field        | Value    |
|--------------|----------|
| Entrypoint   | 0x0158   |
| Data Size    | 33 bytes |
| Instructions | 12       |

```
      00 01 02 03 04 05 06 07  08 09 0A 0B 0C 0D 0E 0F
      -- -- -- -- -- -- -- --  -- -- -- -- -- -- -- --
0150:                          1E F0 FF FF 7F 6F 70 29          .....op)
0160: 08 27 20 0F 01 01 1D 0E  80 23 1D 0F 80 23 29 08  .' ......#...#).
0170: 27 20 0F 01 02 20 00 21  00                       ' ... .!.       
```

#### Opcodes

```
  0: 0x0158 [0x1E] EventEntity looks at LocalPlayer and starts talking
  1: 0x015D [0x6F] WAIT_FRAME_DELAY: Yield until WaitTime reaches zero
  2: 0x015E [0x70] WAIT_ENTITY_RENDER_FLAG: Wait while EventEntity->Render.Flags3 bit 2 is set (cancel turn if not)
  3: 0x015F [0x29] REQ_SET_WAIT(priority=0x08, entity_id=Aeshushu (ID: 17768487/0x010F2027), tag_num=0x01)
  4: 0x0166 [0x1D] PRINT_EVENT_MESSAGE(message_id=503*)
    → "You mean the Shadow Lord been squishy-smashed? No way!"
  5: 0x0169 [0x23] WAIT_FOR_DIALOG_INTERACTION
  6: 0x016A [0x1D] PRINT_EVENT_MESSAGE(message_id=504*)
    → "And you were there when it happened? No way! This is all, like, too much excitement for one day."
  7: 0x016D [0x23] WAIT_FOR_DIALOG_INTERACTION
  8: 0x016E [0x29] REQ_SET_WAIT(priority=0x08, entity_id=Aeshushu (ID: 17768487/0x010F2027), tag_num=0x02)
  9: 0x0175 [0x20] SET_CLI_EVENT_UC_FLAG: Unlock player control
 10: 0x0177 [0x21] END_EVENT
 11: 0x0178 [0x00] END_REQSTACK()
```

### Event 121

#### Metadata

| Field        | Value   |
|--------------|---------|
| Entrypoint   | 0x0179  |
| Data Size    | 1 bytes |
| Instructions | 1       |

```
      00 01 02 03 04 05 06 07  08 09 0A 0B 0C 0D 0E 0F
      -- -- -- -- -- -- -- --  -- -- -- -- -- -- -- --
0170:                             00                             .      
```

#### Opcodes

```
  0: 0x0179 [0x00] END_REQSTACK()
```

### Event 340

#### Metadata

| Field        | Value    |
|--------------|----------|
| Entrypoint   | 0x017A   |
| Data Size    | 33 bytes |
| Instructions | 12       |

```
      00 01 02 03 04 05 06 07  08 09 0A 0B 0C 0D 0E 0F
      -- -- -- -- -- -- -- --  -- -- -- -- -- -- -- --
0170:                                1E F0 FF FF 7F 6F            .....o
0180: 70 29 08 27 20 0F 01 01  1D 10 80 23 1D 11 80 23  p).' ......#...#
0190: 29 08 27 20 0F 01 02 20  00 21 00                 ).' ... .!.     
```

#### Opcodes

```
  0: 0x017A [0x1E] EventEntity looks at LocalPlayer and starts talking
  1: 0x017F [0x6F] WAIT_FRAME_DELAY: Yield until WaitTime reaches zero
  2: 0x0180 [0x70] WAIT_ENTITY_RENDER_FLAG: Wait while EventEntity->Render.Flags3 bit 2 is set (cancel turn if not)
  3: 0x0181 [0x29] REQ_SET_WAIT(priority=0x08, entity_id=Aeshushu (ID: 17768487/0x010F2027), tag_num=0x01)
  4: 0x0188 [0x1D] PRINT_EVENT_MESSAGE(message_id=8285*)
    → "This is, like, totally terrible! That evil-weevil bearer of darkness has shown up in the Planetarium again!"
  5: 0x018B [0x23] WAIT_FOR_DIALOG_INTERACTION
  6: 0x018C [0x1D] PRINT_EVENT_MESSAGE(message_id=8286*)
    → "The bearer of darkness is, like, not like any of the other beastmen! I heard it's, like, way weirder than anything anyone has ever seen!"
  7: 0x018F [0x23] WAIT_FOR_DIALOG_INTERACTION
  8: 0x0190 [0x29] REQ_SET_WAIT(priority=0x08, entity_id=Aeshushu (ID: 17768487/0x010F2027), tag_num=0x02)
  9: 0x0197 [0x20] SET_CLI_EVENT_UC_FLAG: Unlock player control
 10: 0x0199 [0x21] END_EVENT
 11: 0x019A [0x00] END_REQSTACK()
```

### Event 353

#### Metadata

| Field        | Value    |
|--------------|----------|
| Entrypoint   | 0x019B   |
| Data Size    | 33 bytes |
| Instructions | 12       |

```
      00 01 02 03 04 05 06 07  08 09 0A 0B 0C 0D 0E 0F
      -- -- -- -- -- -- -- --  -- -- -- -- -- -- -- --
0190:                                   1E F0 FF FF 7F             .....
01A0: 6F 70 29 08 27 20 0F 01  01 1D 12 80 23 1D 13 80  op).' ......#...
01B0: 23 29 08 27 20 0F 01 02  20 00 21 00              #).' ... .!.    
```

#### Opcodes

```
  0: 0x019B [0x1E] EventEntity looks at LocalPlayer and starts talking
  1: 0x01A0 [0x6F] WAIT_FRAME_DELAY: Yield until WaitTime reaches zero
  2: 0x01A1 [0x70] WAIT_ENTITY_RENDER_FLAG: Wait while EventEntity->Render.Flags3 bit 2 is set (cancel turn if not)
  3: 0x01A2 [0x29] REQ_SET_WAIT(priority=0x08, entity_id=Aeshushu (ID: 17768487/0x010F2027), tag_num=0x01)
  4: 0x01A9 [0x1D] PRINT_EVENT_MESSAGE(message_id=8425*)
    → "Do you really think the Yagudo are, like, serious about keeping up this whole peace treaty thing?"
  5: 0x01AC [0x23] WAIT_FOR_DIALOG_INTERACTION
  6: 0x01AD [0x1D] PRINT_EVENT_MESSAGE(message_id=8426*)
    → "I was born after the Great War, so I don'taru know anything about battle or stuff like that. But I think it must be, like, totally difficult to forget all the death and suffering caused by the war."
  7: 0x01B0 [0x23] WAIT_FOR_DIALOG_INTERACTION
  8: 0x01B1 [0x29] REQ_SET_WAIT(priority=0x08, entity_id=Aeshushu (ID: 17768487/0x010F2027), tag_num=0x02)
  9: 0x01B8 [0x20] SET_CLI_EVENT_UC_FLAG: Unlock player control
 10: 0x01BA [0x21] END_EVENT
 11: 0x01BB [0x00] END_REQSTACK()
```

### Event 391

#### Metadata

| Field        | Value    |
|--------------|----------|
| Entrypoint   | 0x01BC   |
| Data Size    | 47 bytes |
| Instructions | 14       |

```
      00 01 02 03 04 05 06 07  08 09 0A 0B 0C 0D 0E 0F
      -- -- -- -- -- -- -- --  -- -- -- -- -- -- -- --
01B0:                                      1E F0 FF FF              ....
01C0: 7F 6F 70 29 08 27 20 0F  01 07 1D 14 80 23 29 08  .op).' ......#).
01D0: 27 20 0F 01 08 29 08 27  20 0F 01 09 1D 15 80 23  ' ...).' ......#
01E0: 29 08 27 20 0F 01 0A 20  00 21 00                 ).' ... .!.     
```

#### Opcodes

```
  0: 0x01BC [0x1E] EventEntity looks at LocalPlayer and starts talking
  1: 0x01C1 [0x6F] WAIT_FRAME_DELAY: Yield until WaitTime reaches zero
  2: 0x01C2 [0x70] WAIT_ENTITY_RENDER_FLAG: Wait while EventEntity->Render.Flags3 bit 2 is set (cancel turn if not)
  3: 0x01C3 [0x29] REQ_SET_WAIT(priority=0x08, entity_id=Aeshushu (ID: 17768487/0x010F2027), tag_num=0x07)
  4: 0x01CA [0x1D] PRINT_EVENT_MESSAGE(message_id=8515*)
    → "Semih Lafihna left to deliver Windurst's reply to the Yagudo, but... She was, like, totally armed for battle..."
  5: 0x01CD [0x23] WAIT_FOR_DIALOG_INTERACTION
  6: 0x01CE [0x29] REQ_SET_WAIT(priority=0x08, entity_id=Aeshushu (ID: 17768487/0x010F2027), tag_num=0x08)
  7: 0x01D5 [0x29] REQ_SET_WAIT(priority=0x08, entity_id=Aeshushu (ID: 17768487/0x010F2027), tag_num=0x09)
  8: 0x01DC [0x1D] PRINT_EVENT_MESSAGE(message_id=8516*)
    → "I guess the Yagudo aren'taru gonna like what the letter has to say. If the Yagudo get all miffed and stuff, what's gonna happen? It kinda stresses me out, y'know?"
  9: 0x01DF [0x23] WAIT_FOR_DIALOG_INTERACTION
 10: 0x01E0 [0x29] REQ_SET_WAIT(priority=0x08, entity_id=Aeshushu (ID: 17768487/0x010F2027), tag_num=0x0A)
 11: 0x01E7 [0x20] SET_CLI_EVENT_UC_FLAG: Unlock player control
 12: 0x01E9 [0x21] END_EVENT
 13: 0x01EA [0x00] END_REQSTACK()
```
