# 17768497 - Nebibi

## Common Data

| Field            | Value                   |
|------------------|-------------------------|
| Zone             | Heavens Tower (ID: 242) |
| Block Size       | 616 bytes               |
| Total Events     | 18                      |
| References Count | 21                      |

## List of Events

| Event ID                 | Entrypoint   |   Size |   Instructions |
|--------------------------|--------------|--------|----------------|
| [65535](#event-65535)    | 0x0000       |      1 |              1 |
| [65535.1](#event-655351) | 0x0001       |     16 |              2 |
| [65535.2](#event-655352) | 0x0011       |      9 |              3 |
| [65535.3](#event-655353) | 0x001A       |     16 |              2 |
| [65535.4](#event-655354) | 0x002A       |     14 |              2 |
| [65535.5](#event-655355) | 0x0038       |     16 |              2 |
| [65535.6](#event-655356) | 0x0048       |     14 |              2 |
| [68](#event-68)          | 0x0056       |     33 |             12 |
| [134](#event-134)        | 0x0077       |     33 |             12 |
| [147](#event-147)        | 0x0098       |     29 |             10 |
| [188](#event-188)        | 0x00B5       |     33 |             12 |
| [213](#event-213)        | 0x00D6       |     33 |             12 |
| [234](#event-234)        | 0x00F7       |     33 |             12 |
| [330](#event-330)        | 0x0118       |     33 |             12 |
| [121](#event-121)        | 0x0139       |      1 |              1 |
| [348](#event-348)        | 0x013A       |     47 |             14 |
| [361](#event-361)        | 0x0169       |     47 |             14 |
| [399](#event-399)        | 0x0198       |     33 |             12 |

## DAT References (imed_data)

|   Index | Hex Value   |   Dec Value |
|---------|-------------|-------------|
|       0 | 0x0028      |          40 |
|       1 | 0x001E      |          30 |
|       2 | 0x0033      |          51 |
|       3 | 0x0034      |          52 |
|       4 | 0x0109      |         265 |
|       5 | 0x010A      |         266 |
|       6 | 0x0127      |         295 |
|       7 | 0x0183      |         387 |
|       8 | 0x0184      |         388 |
|       9 | 0x01D8      |         472 |
|      10 | 0x01D9      |         473 |
|      11 | 0x0207      |         519 |
|      12 | 0x0208      |         520 |
|      13 | 0x1FCE      |        8142 |
|      14 | 0x1FCF      |        8143 |
|      15 | 0x206D      |        8301 |
|      16 | 0x206E      |        8302 |
|      17 | 0x20F9      |        8441 |
|      18 | 0x20FA      |        8442 |
|      19 | 0x2155      |        8533 |
|      20 | 0x2156      |        8534 |

## String References

- **51**: Who is the Star Sibyl? I don't know either! But ya know, I'd love to meet her someday!
- **52**: At my age, all they let me do is make beds. I have a good ten years 'til they let me do something important like take out the Star Sibyl's trash!
- **265**: <Sigh> I wish I they'd let me take care of the Star Sibyl, rather than put me on bedmaking duty...
- **266**: If it was the Sibyl's bed, I would be slap-happy, but no! I get stuck with old Lady Zubaba's bed!
- **295**: The Star Sibyl is looking much better-wetter! Now I can get back to concentrating on making Lady Zubaba's bed... <Sigh>
- **387**: I'm positive that no "bearer of darkness" was here that night.
- **388**: How can I be so sure, you ask? Bedmaking gives me the bestest-westest view of the Starway Stairway!
- **472**: How can everybody-buddy be so cool and calm?
- **473**: The Shadow Lord has returned, and I'm making beds!!!
- **519**: Now that you mention it, I haven't seen the Orastery minister around lately...
- **520**: Before, he was here almost every day, flapping his gummy-gums off. I hardly got any bed-making done.
- **8142**: I can't believe what's happened! Just when I thoughtaru I would never see the day, Semih Lafihna caughty-wort the Orastery minister and sent him on his way to the Dark Dungeon!
- **8143**: ...And I'm still here making beds every day. ...My life is so boring-woring.
- **8301**: So many terrible-werrible things have been happening lately...
- **8302**: It makes my skin crawl, but then again, I'm just a simple bedmaker. What does a well-traveled adventurer think of all this?
- **8441**: With the Star Sibyl cloistered in her chambers, Heavens Tower has totally lostaru its light, cheery-weery atmosphere.
- **8442**: But we ladies-in-waiting mustaru go on being our usual perky-werky selves. I can't let my bed-making standards drop just because times are tough!
- **8533**: Making beds and sweeping floors, oh what a lovely day.t
- **8534**: Things have finally returned to normal in Heavens Tower. Lady Zubaba is back to her usual naggy-waggy self, which is the bestaru indication that all is well in Windurst.

## Events

### Event 65535

#### Metadata

| Field        | Value   |
|--------------|---------|
| Entrypoint   | 0x0000  |
| Data Size    | 1 bytes |
| Instructions | 1       |

```
      00 01 02 03 04 05 06 07  08 09 0A 0B 0C 0D 0E 0F
      -- -- -- -- -- -- -- --  -- -- -- -- -- -- -- --
0000: 00                                                .               
```

#### Opcodes

```
  0: 0x0000 [0x00] END_REQSTACK()
```

### Event 65535.1

#### Metadata

| Field        | Value    |
|--------------|----------|
| Entrypoint   | 0x0001   |
| Data Size    | 16 bytes |
| Instructions | 2        |

```
      00 01 02 03 04 05 06 07  08 09 0A 0B 0C 0D 0E 0F
      -- -- -- -- -- -- -- --  -- -- -- -- -- -- -- --
0000:    66 00 80 F8 FF FF 7F  F8 FF FF 7F 74 6C 6B 30   f..........tlk0
0010: 00                                                .               
```

#### Opcodes

```
  0: 0x0001 [0x66] LOAD_EXT_SCHEDULER_MAIN: Load scheduler "tlk0" with entities [EventEntity, EventEntity], work=40*
  1: 0x0010 [0x00] END_REQSTACK()
```

### Event 65535.2

#### Metadata

| Field        | Value   |
|--------------|---------|
| Entrypoint   | 0x0011  |
| Data Size    | 9 bytes |
| Instructions | 3       |

```
      00 01 02 03 04 05 06 07  08 09 0A 0B 0C 0D 0E 0F
      -- -- -- -- -- -- -- --  -- -- -- -- -- -- -- --
0010:    5E 69 64 6C 30 1C 01  80 00                     ^idl0....      
```

#### Opcodes

```
  0: 0x0011 [0x5E] EventEntity goes idle (kills current action) (animation: "idl0")
  1: 0x0016 [0x1C] WAIT(30* ticks)
  2: 0x0019 [0x00] END_REQSTACK()
```

### Event 65535.3

#### Metadata

| Field        | Value    |
|--------------|----------|
| Entrypoint   | 0x001A   |
| Data Size    | 16 bytes |
| Instructions | 2        |

```
      00 01 02 03 04 05 06 07  08 09 0A 0B 0C 0D 0E 0F
      -- -- -- -- -- -- -- --  -- -- -- -- -- -- -- --
0010:                                66 00 80 F8 FF FF            f.....
0020: 7F F8 FF FF 7F 6F 62 69  30 00                    .....obi0.      
```

#### Opcodes

```
  0: 0x001A [0x66] LOAD_EXT_SCHEDULER_MAIN: Load scheduler "obi0" with entities [EventEntity, EventEntity], work=40*
  1: 0x0029 [0x00] END_REQSTACK()
```

### Event 65535.4

#### Metadata

| Field        | Value    |
|--------------|----------|
| Entrypoint   | 0x002A   |
| Data Size    | 14 bytes |
| Instructions | 2        |

```
      00 01 02 03 04 05 06 07  08 09 0A 0B 0C 0D 0E 0F
      -- -- -- -- -- -- -- --  -- -- -- -- -- -- -- --
0020:                                53 F8 FF FF 7F F8            S.....
0030: FF FF 7F 6F 62 69 30 00                           ...obi0.        
```

#### Opcodes

```
  0: 0x002A [0x53] WAIT_SCHEDULER_TASK: Wait for scheduler "obi0" with entities [EventEntity, EventEntity]
  1: 0x0037 [0x00] END_REQSTACK()
```

### Event 65535.5

#### Metadata

| Field        | Value    |
|--------------|----------|
| Entrypoint   | 0x0038   |
| Data Size    | 16 bytes |
| Instructions | 2        |

```
      00 01 02 03 04 05 06 07  08 09 0A 0B 0C 0D 0E 0F
      -- -- -- -- -- -- -- --  -- -- -- -- -- -- -- --
0030:                          66 00 80 F8 FF FF 7F F8          f.......
0040: FF FF 7F 6F 62 69 31 00                           ...obi1.        
```

#### Opcodes

```
  0: 0x0038 [0x66] LOAD_EXT_SCHEDULER_MAIN: Load scheduler "obi1" with entities [EventEntity, EventEntity], work=40*
  1: 0x0047 [0x00] END_REQSTACK()
```

### Event 65535.6

#### Metadata

| Field        | Value    |
|--------------|----------|
| Entrypoint   | 0x0048   |
| Data Size    | 14 bytes |
| Instructions | 2        |

```
      00 01 02 03 04 05 06 07  08 09 0A 0B 0C 0D 0E 0F
      -- -- -- -- -- -- -- --  -- -- -- -- -- -- -- --
0040:                          53 F8 FF FF 7F F8 FF FF          S.......
0050: 7F 6F 62 69 31 00                                 .obi1.          
```

#### Opcodes

```
  0: 0x0048 [0x53] WAIT_SCHEDULER_TASK: Wait for scheduler "obi1" with entities [EventEntity, EventEntity]
  1: 0x0055 [0x00] END_REQSTACK()
```

### Event 68

#### Metadata

| Field        | Value    |
|--------------|----------|
| Entrypoint   | 0x0056   |
| Data Size    | 33 bytes |
| Instructions | 12       |

```
      00 01 02 03 04 05 06 07  08 09 0A 0B 0C 0D 0E 0F
      -- -- -- -- -- -- -- --  -- -- -- -- -- -- -- --
0050:                   1E F0  FF FF 7F 6F 70 29 08 31        .....op).1
0060: 20 0F 01 01 1D 02 80 23  1D 03 80 23 29 08 31 20   ......#...#).1 
0070: 0F 01 02 20 00 21 00                              ... .!.         
```

#### Opcodes

```
  0: 0x0056 [0x1E] EventEntity looks at LocalPlayer and starts talking
  1: 0x005B [0x6F] WAIT_FRAME_DELAY: Yield until WaitTime reaches zero
  2: 0x005C [0x70] WAIT_ENTITY_RENDER_FLAG: Wait while EventEntity->Render.Flags3 bit 2 is set (cancel turn if not)
  3: 0x005D [0x29] REQ_SET_WAIT(priority=0x08, entity_id=Nebibi (ID: 17768497/0x010F2031), tag_num=0x01)
  4: 0x0064 [0x1D] PRINT_EVENT_MESSAGE(message_id=51*)
    → "Who is the Star Sibyl? I don't know either! But ya know, I'd love to meet her someday!"
  5: 0x0067 [0x23] WAIT_FOR_DIALOG_INTERACTION
  6: 0x0068 [0x1D] PRINT_EVENT_MESSAGE(message_id=52*)
    → "At my age, all they let me do is make beds. I have a good ten years 'til they let me do something important like take out the Star Sibyl's trash!"
  7: 0x006B [0x23] WAIT_FOR_DIALOG_INTERACTION
  8: 0x006C [0x29] REQ_SET_WAIT(priority=0x08, entity_id=Nebibi (ID: 17768497/0x010F2031), tag_num=0x02)
  9: 0x0073 [0x20] SET_CLI_EVENT_UC_FLAG: Unlock player control
 10: 0x0075 [0x21] END_EVENT
 11: 0x0076 [0x00] END_REQSTACK()
```

### Event 134

#### Metadata

| Field        | Value    |
|--------------|----------|
| Entrypoint   | 0x0077   |
| Data Size    | 33 bytes |
| Instructions | 12       |

```
      00 01 02 03 04 05 06 07  08 09 0A 0B 0C 0D 0E 0F
      -- -- -- -- -- -- -- --  -- -- -- -- -- -- -- --
0070:                      1E  F0 FF FF 7F 6F 70 29 08         .....op).
0080: 31 20 0F 01 01 1D 04 80  23 1D 05 80 23 29 08 31  1 ......#...#).1
0090: 20 0F 01 02 20 00 21 00                            ... .!.        
```

#### Opcodes

```
  0: 0x0077 [0x1E] EventEntity looks at LocalPlayer and starts talking
  1: 0x007C [0x6F] WAIT_FRAME_DELAY: Yield until WaitTime reaches zero
  2: 0x007D [0x70] WAIT_ENTITY_RENDER_FLAG: Wait while EventEntity->Render.Flags3 bit 2 is set (cancel turn if not)
  3: 0x007E [0x29] REQ_SET_WAIT(priority=0x08, entity_id=Nebibi (ID: 17768497/0x010F2031), tag_num=0x01)
  4: 0x0085 [0x1D] PRINT_EVENT_MESSAGE(message_id=265*)
    → "<Sigh> I wish I they'd let me take care of the Star Sibyl, rather than put me on bedmaking duty..."
  5: 0x0088 [0x23] WAIT_FOR_DIALOG_INTERACTION
  6: 0x0089 [0x1D] PRINT_EVENT_MESSAGE(message_id=266*)
    → "If it was the Sibyl's bed, I would be slap-happy, but no! I get stuck with old Lady Zubaba's bed!"
  7: 0x008C [0x23] WAIT_FOR_DIALOG_INTERACTION
  8: 0x008D [0x29] REQ_SET_WAIT(priority=0x08, entity_id=Nebibi (ID: 17768497/0x010F2031), tag_num=0x02)
  9: 0x0094 [0x20] SET_CLI_EVENT_UC_FLAG: Unlock player control
 10: 0x0096 [0x21] END_EVENT
 11: 0x0097 [0x00] END_REQSTACK()
```

### Event 147

#### Metadata

| Field        | Value    |
|--------------|----------|
| Entrypoint   | 0x0098   |
| Data Size    | 29 bytes |
| Instructions | 10       |

```
      00 01 02 03 04 05 06 07  08 09 0A 0B 0C 0D 0E 0F
      -- -- -- -- -- -- -- --  -- -- -- -- -- -- -- --
0090:                          1E F0 FF FF 7F 6F 70 29          .....op)
00A0: 08 31 20 0F 01 01 1D 06  80 23 29 08 31 20 0F 01  .1 ......#).1 ..
00B0: 02 20 00 21 00                                    . .!.           
```

#### Opcodes

```
  0: 0x0098 [0x1E] EventEntity looks at LocalPlayer and starts talking
  1: 0x009D [0x6F] WAIT_FRAME_DELAY: Yield until WaitTime reaches zero
  2: 0x009E [0x70] WAIT_ENTITY_RENDER_FLAG: Wait while EventEntity->Render.Flags3 bit 2 is set (cancel turn if not)
  3: 0x009F [0x29] REQ_SET_WAIT(priority=0x08, entity_id=Nebibi (ID: 17768497/0x010F2031), tag_num=0x01)
  4: 0x00A6 [0x1D] PRINT_EVENT_MESSAGE(message_id=295*)
    → "The Star Sibyl is looking much better-wetter! Now I can get back to concentrating on making Lady Zubaba's bed... <Sigh>"
  5: 0x00A9 [0x23] WAIT_FOR_DIALOG_INTERACTION
  6: 0x00AA [0x29] REQ_SET_WAIT(priority=0x08, entity_id=Nebibi (ID: 17768497/0x010F2031), tag_num=0x02)
  7: 0x00B1 [0x20] SET_CLI_EVENT_UC_FLAG: Unlock player control
  8: 0x00B3 [0x21] END_EVENT
  9: 0x00B4 [0x00] END_REQSTACK()
```

### Event 188

#### Metadata

| Field        | Value    |
|--------------|----------|
| Entrypoint   | 0x00B5   |
| Data Size    | 33 bytes |
| Instructions | 12       |

```
      00 01 02 03 04 05 06 07  08 09 0A 0B 0C 0D 0E 0F
      -- -- -- -- -- -- -- --  -- -- -- -- -- -- -- --
00B0:                1E F0 FF  FF 7F 6F 70 29 08 31 20       .....op).1 
00C0: 0F 01 01 1D 07 80 23 1D  08 80 23 29 08 31 20 0F  ......#...#).1 .
00D0: 01 02 20 00 21 00                                 .. .!.          
```

#### Opcodes

```
  0: 0x00B5 [0x1E] EventEntity looks at LocalPlayer and starts talking
  1: 0x00BA [0x6F] WAIT_FRAME_DELAY: Yield until WaitTime reaches zero
  2: 0x00BB [0x70] WAIT_ENTITY_RENDER_FLAG: Wait while EventEntity->Render.Flags3 bit 2 is set (cancel turn if not)
  3: 0x00BC [0x29] REQ_SET_WAIT(priority=0x08, entity_id=Nebibi (ID: 17768497/0x010F2031), tag_num=0x01)
  4: 0x00C3 [0x1D] PRINT_EVENT_MESSAGE(message_id=387*)
    → "I'm positive that no "bearer of darkness" was here that night."
  5: 0x00C6 [0x23] WAIT_FOR_DIALOG_INTERACTION
  6: 0x00C7 [0x1D] PRINT_EVENT_MESSAGE(message_id=388*)
    → "How can I be so sure, you ask? Bedmaking gives me the bestest-westest view of the Starway Stairway!"
  7: 0x00CA [0x23] WAIT_FOR_DIALOG_INTERACTION
  8: 0x00CB [0x29] REQ_SET_WAIT(priority=0x08, entity_id=Nebibi (ID: 17768497/0x010F2031), tag_num=0x02)
  9: 0x00D2 [0x20] SET_CLI_EVENT_UC_FLAG: Unlock player control
 10: 0x00D4 [0x21] END_EVENT
 11: 0x00D5 [0x00] END_REQSTACK()
```

### Event 213

#### Metadata

| Field        | Value    |
|--------------|----------|
| Entrypoint   | 0x00D6   |
| Data Size    | 33 bytes |
| Instructions | 12       |

```
      00 01 02 03 04 05 06 07  08 09 0A 0B 0C 0D 0E 0F
      -- -- -- -- -- -- -- --  -- -- -- -- -- -- -- --
00D0:                   1E F0  FF FF 7F 6F 70 29 08 31        .....op).1
00E0: 20 0F 01 01 1D 09 80 23  1D 0A 80 23 29 08 31 20   ......#...#).1 
00F0: 0F 01 02 20 00 21 00                              ... .!.         
```

#### Opcodes

```
  0: 0x00D6 [0x1E] EventEntity looks at LocalPlayer and starts talking
  1: 0x00DB [0x6F] WAIT_FRAME_DELAY: Yield until WaitTime reaches zero
  2: 0x00DC [0x70] WAIT_ENTITY_RENDER_FLAG: Wait while EventEntity->Render.Flags3 bit 2 is set (cancel turn if not)
  3: 0x00DD [0x29] REQ_SET_WAIT(priority=0x08, entity_id=Nebibi (ID: 17768497/0x010F2031), tag_num=0x01)
  4: 0x00E4 [0x1D] PRINT_EVENT_MESSAGE(message_id=472*)
    → "How can everybody-buddy be so cool and calm?"
  5: 0x00E7 [0x23] WAIT_FOR_DIALOG_INTERACTION
  6: 0x00E8 [0x1D] PRINT_EVENT_MESSAGE(message_id=473*)
    → "The Shadow Lord has returned, and I'm making beds!!!"
  7: 0x00EB [0x23] WAIT_FOR_DIALOG_INTERACTION
  8: 0x00EC [0x29] REQ_SET_WAIT(priority=0x08, entity_id=Nebibi (ID: 17768497/0x010F2031), tag_num=0x02)
  9: 0x00F3 [0x20] SET_CLI_EVENT_UC_FLAG: Unlock player control
 10: 0x00F5 [0x21] END_EVENT
 11: 0x00F6 [0x00] END_REQSTACK()
```

### Event 234

#### Metadata

| Field        | Value    |
|--------------|----------|
| Entrypoint   | 0x00F7   |
| Data Size    | 33 bytes |
| Instructions | 12       |

```
      00 01 02 03 04 05 06 07  08 09 0A 0B 0C 0D 0E 0F
      -- -- -- -- -- -- -- --  -- -- -- -- -- -- -- --
00F0:                      1E  F0 FF FF 7F 6F 70 29 08         .....op).
0100: 31 20 0F 01 01 1D 0B 80  23 1D 0C 80 23 29 08 31  1 ......#...#).1
0110: 20 0F 01 02 20 00 21 00                            ... .!.        
```

#### Opcodes

```
  0: 0x00F7 [0x1E] EventEntity looks at LocalPlayer and starts talking
  1: 0x00FC [0x6F] WAIT_FRAME_DELAY: Yield until WaitTime reaches zero
  2: 0x00FD [0x70] WAIT_ENTITY_RENDER_FLAG: Wait while EventEntity->Render.Flags3 bit 2 is set (cancel turn if not)
  3: 0x00FE [0x29] REQ_SET_WAIT(priority=0x08, entity_id=Nebibi (ID: 17768497/0x010F2031), tag_num=0x01)
  4: 0x0105 [0x1D] PRINT_EVENT_MESSAGE(message_id=519*)
    → "Now that you mention it, I haven't seen the Orastery minister around lately..."
  5: 0x0108 [0x23] WAIT_FOR_DIALOG_INTERACTION
  6: 0x0109 [0x1D] PRINT_EVENT_MESSAGE(message_id=520*)
    → "Before, he was here almost every day, flapping his gummy-gums off. I hardly got any bed-making done."
  7: 0x010C [0x23] WAIT_FOR_DIALOG_INTERACTION
  8: 0x010D [0x29] REQ_SET_WAIT(priority=0x08, entity_id=Nebibi (ID: 17768497/0x010F2031), tag_num=0x02)
  9: 0x0114 [0x20] SET_CLI_EVENT_UC_FLAG: Unlock player control
 10: 0x0116 [0x21] END_EVENT
 11: 0x0117 [0x00] END_REQSTACK()
```

### Event 330

#### Metadata

| Field        | Value    |
|--------------|----------|
| Entrypoint   | 0x0118   |
| Data Size    | 33 bytes |
| Instructions | 12       |

```
      00 01 02 03 04 05 06 07  08 09 0A 0B 0C 0D 0E 0F
      -- -- -- -- -- -- -- --  -- -- -- -- -- -- -- --
0110:                          1E F0 FF FF 7F 6F 70 29          .....op)
0120: 08 31 20 0F 01 01 1D 0D  80 23 29 08 31 20 0F 01  .1 ......#).1 ..
0130: 02 1D 0E 80 23 20 00 21  00                       ....# .!.       
```

#### Opcodes

```
  0: 0x0118 [0x1E] EventEntity looks at LocalPlayer and starts talking
  1: 0x011D [0x6F] WAIT_FRAME_DELAY: Yield until WaitTime reaches zero
  2: 0x011E [0x70] WAIT_ENTITY_RENDER_FLAG: Wait while EventEntity->Render.Flags3 bit 2 is set (cancel turn if not)
  3: 0x011F [0x29] REQ_SET_WAIT(priority=0x08, entity_id=Nebibi (ID: 17768497/0x010F2031), tag_num=0x01)
  4: 0x0126 [0x1D] PRINT_EVENT_MESSAGE(message_id=8142*)
    → "I can't believe what's happened! Just when I thoughtaru I would never see the day, Semih Lafihna caughty-wort the Orastery minister and sent him on his way to the Dark Dungeon!"
  5: 0x0129 [0x23] WAIT_FOR_DIALOG_INTERACTION
  6: 0x012A [0x29] REQ_SET_WAIT(priority=0x08, entity_id=Nebibi (ID: 17768497/0x010F2031), tag_num=0x02)
  7: 0x0131 [0x1D] PRINT_EVENT_MESSAGE(message_id=8143*)
    → "...And I'm still here making beds every day. ...My life is so boring-woring."
  8: 0x0134 [0x23] WAIT_FOR_DIALOG_INTERACTION
  9: 0x0135 [0x20] SET_CLI_EVENT_UC_FLAG: Unlock player control
 10: 0x0137 [0x21] END_EVENT
 11: 0x0138 [0x00] END_REQSTACK()
```

### Event 121

#### Metadata

| Field        | Value   |
|--------------|---------|
| Entrypoint   | 0x0139  |
| Data Size    | 1 bytes |
| Instructions | 1       |

```
      00 01 02 03 04 05 06 07  08 09 0A 0B 0C 0D 0E 0F
      -- -- -- -- -- -- -- --  -- -- -- -- -- -- -- --
0130:                             00                             .      
```

#### Opcodes

```
  0: 0x0139 [0x00] END_REQSTACK()
```

### Event 348

#### Metadata

| Field        | Value    |
|--------------|----------|
| Entrypoint   | 0x013A   |
| Data Size    | 47 bytes |
| Instructions | 14       |

```
      00 01 02 03 04 05 06 07  08 09 0A 0B 0C 0D 0E 0F
      -- -- -- -- -- -- -- --  -- -- -- -- -- -- -- --
0130:                                1E F0 FF FF 7F 6F            .....o
0140: 70 29 08 31 20 0F 01 03  1D 0F 80 23 29 08 31 20  p).1 ......#).1 
0150: 0F 01 04 29 08 31 20 0F  01 05 1D 10 80 23 29 08  ...).1 ......#).
0160: 31 20 0F 01 06 20 00 21  00                       1 ... .!.       
```

#### Opcodes

```
  0: 0x013A [0x1E] EventEntity looks at LocalPlayer and starts talking
  1: 0x013F [0x6F] WAIT_FRAME_DELAY: Yield until WaitTime reaches zero
  2: 0x0140 [0x70] WAIT_ENTITY_RENDER_FLAG: Wait while EventEntity->Render.Flags3 bit 2 is set (cancel turn if not)
  3: 0x0141 [0x29] REQ_SET_WAIT(priority=0x08, entity_id=Nebibi (ID: 17768497/0x010F2031), tag_num=0x03)
  4: 0x0148 [0x1D] PRINT_EVENT_MESSAGE(message_id=8301*)
    → "So many terrible-werrible things have been happening lately..."
  5: 0x014B [0x23] WAIT_FOR_DIALOG_INTERACTION
  6: 0x014C [0x29] REQ_SET_WAIT(priority=0x08, entity_id=Nebibi (ID: 17768497/0x010F2031), tag_num=0x04)
  7: 0x0153 [0x29] REQ_SET_WAIT(priority=0x08, entity_id=Nebibi (ID: 17768497/0x010F2031), tag_num=0x05)
  8: 0x015A [0x1D] PRINT_EVENT_MESSAGE(message_id=8302*)
    → "It makes my skin crawl, but then again, I'm just a simple bedmaker. What does a well-traveled adventurer think of all this?"
  9: 0x015D [0x23] WAIT_FOR_DIALOG_INTERACTION
 10: 0x015E [0x29] REQ_SET_WAIT(priority=0x08, entity_id=Nebibi (ID: 17768497/0x010F2031), tag_num=0x06)
 11: 0x0165 [0x20] SET_CLI_EVENT_UC_FLAG: Unlock player control
 12: 0x0167 [0x21] END_EVENT
 13: 0x0168 [0x00] END_REQSTACK()
```

### Event 361

#### Metadata

| Field        | Value    |
|--------------|----------|
| Entrypoint   | 0x0169   |
| Data Size    | 47 bytes |
| Instructions | 14       |

```
      00 01 02 03 04 05 06 07  08 09 0A 0B 0C 0D 0E 0F
      -- -- -- -- -- -- -- --  -- -- -- -- -- -- -- --
0160:                             1E F0 FF FF 7F 6F 70           .....op
0170: 29 08 31 20 0F 01 03 1D  11 80 23 29 08 31 20 0F  ).1 ......#).1 .
0180: 01 04 29 08 31 20 0F 01  05 1D 12 80 23 29 08 31  ..).1 ......#).1
0190: 20 0F 01 06 20 00 21 00                            ... .!.        
```

#### Opcodes

```
  0: 0x0169 [0x1E] EventEntity looks at LocalPlayer and starts talking
  1: 0x016E [0x6F] WAIT_FRAME_DELAY: Yield until WaitTime reaches zero
  2: 0x016F [0x70] WAIT_ENTITY_RENDER_FLAG: Wait while EventEntity->Render.Flags3 bit 2 is set (cancel turn if not)
  3: 0x0170 [0x29] REQ_SET_WAIT(priority=0x08, entity_id=Nebibi (ID: 17768497/0x010F2031), tag_num=0x03)
  4: 0x0177 [0x1D] PRINT_EVENT_MESSAGE(message_id=8441*)
    → "With the Star Sibyl cloistered in her chambers, Heavens Tower has totally lostaru its light, cheery-weery atmosphere."
  5: 0x017A [0x23] WAIT_FOR_DIALOG_INTERACTION
  6: 0x017B [0x29] REQ_SET_WAIT(priority=0x08, entity_id=Nebibi (ID: 17768497/0x010F2031), tag_num=0x04)
  7: 0x0182 [0x29] REQ_SET_WAIT(priority=0x08, entity_id=Nebibi (ID: 17768497/0x010F2031), tag_num=0x05)
  8: 0x0189 [0x1D] PRINT_EVENT_MESSAGE(message_id=8442*)
    → "But we ladies-in-waiting mustaru go on being our usual perky-werky selves. I can't let my bed-making standards drop just because times are tough!"
  9: 0x018C [0x23] WAIT_FOR_DIALOG_INTERACTION
 10: 0x018D [0x29] REQ_SET_WAIT(priority=0x08, entity_id=Nebibi (ID: 17768497/0x010F2031), tag_num=0x06)
 11: 0x0194 [0x20] SET_CLI_EVENT_UC_FLAG: Unlock player control
 12: 0x0196 [0x21] END_EVENT
 13: 0x0197 [0x00] END_REQSTACK()
```

### Event 399

#### Metadata

| Field        | Value    |
|--------------|----------|
| Entrypoint   | 0x0198   |
| Data Size    | 33 bytes |
| Instructions | 12       |

```
      00 01 02 03 04 05 06 07  08 09 0A 0B 0C 0D 0E 0F
      -- -- -- -- -- -- -- --  -- -- -- -- -- -- -- --
0190:                          1E F0 FF FF 7F 6F 70 29          .....op)
01A0: 08 31 20 0F 01 01 1D 13  80 23 1D 14 80 23 29 08  .1 ......#...#).
01B0: 31 20 0F 01 02 20 00 21  00                       1 ... .!.       
```

#### Opcodes

```
  0: 0x0198 [0x1E] EventEntity looks at LocalPlayer and starts talking
  1: 0x019D [0x6F] WAIT_FRAME_DELAY: Yield until WaitTime reaches zero
  2: 0x019E [0x70] WAIT_ENTITY_RENDER_FLAG: Wait while EventEntity->Render.Flags3 bit 2 is set (cancel turn if not)
  3: 0x019F [0x29] REQ_SET_WAIT(priority=0x08, entity_id=Nebibi (ID: 17768497/0x010F2031), tag_num=0x01)
  4: 0x01A6 [0x1D] PRINT_EVENT_MESSAGE(message_id=8533*)
    → "Making beds and sweeping floors, oh what a lovely day.t"
  5: 0x01A9 [0x23] WAIT_FOR_DIALOG_INTERACTION
  6: 0x01AA [0x1D] PRINT_EVENT_MESSAGE(message_id=8534*)
    → "Things have finally returned to normal in Heavens Tower. Lady Zubaba is back to her usual naggy-waggy self, which is the bestaru indication that all is well in Windurst."
  7: 0x01AD [0x23] WAIT_FOR_DIALOG_INTERACTION
  8: 0x01AE [0x29] REQ_SET_WAIT(priority=0x08, entity_id=Nebibi (ID: 17768497/0x010F2031), tag_num=0x02)
  9: 0x01B5 [0x20] SET_CLI_EVENT_UC_FLAG: Unlock player control
 10: 0x01B7 [0x21] END_EVENT
 11: 0x01B8 [0x00] END_REQSTACK()
```
