# 17768534 - Yoran-Oran

## Common Data

| Field            | Value                   |
|------------------|-------------------------|
| Zone             | Heavens Tower (ID: 242) |
| Block Size       | 2060 bytes              |
| Total Events     | 93                      |
| References Count | 93                      |

## List of Events

| Event ID                   | Entrypoint   |   Size |   Instructions |
|----------------------------|--------------|--------|----------------|
| [65535](#event-65535)      | 0x0000       |      1 |              1 |
| [65535.1](#event-655351)   | 0x0001       |     16 |              2 |
| [65535.2](#event-655352)   | 0x0011       |     22 |              4 |
| [65535.3](#event-655353)   | 0x0027       |     16 |              2 |
| [65535.4](#event-655354)   | 0x0037       |     14 |              2 |
| [65535.5](#event-655355)   | 0x0045       |     16 |              2 |
| [65535.6](#event-655356)   | 0x0055       |     14 |              2 |
| [65535.7](#event-655357)   | 0x0063       |     16 |              2 |
| [65535.8](#event-655358)   | 0x0073       |     14 |              2 |
| [65535.9](#event-655359)   | 0x0081       |     16 |              2 |
| [65535.10](#event-6553510) | 0x0091       |     14 |              2 |
| [65535.11](#event-6553511) | 0x009F       |     16 |              2 |
| [65535.12](#event-6553512) | 0x00AF       |     14 |              2 |
| [65535.13](#event-6553513) | 0x00BD       |     16 |              2 |
| [65535.14](#event-6553514) | 0x00CD       |     14 |              2 |
| [65535.15](#event-6553515) | 0x00DB       |     16 |              2 |
| [65535.16](#event-6553516) | 0x00EB       |     22 |              4 |
| [65535.17](#event-6553517) | 0x0101       |     16 |              2 |
| [65535.18](#event-6553518) | 0x0111       |     14 |              2 |
| [65535.19](#event-6553519) | 0x011F       |      9 |              3 |
| [65535.20](#event-6553520) | 0x0128       |     34 |              8 |
| [65535.21](#event-6553521) | 0x014A       |     14 |              4 |
| [65535.22](#event-6553522) | 0x0158       |     10 |              2 |
| [260](#event-260)          | 0x0162       |      1 |              1 |
| [65535.23](#event-6553523) | 0x0163       |      5 |              3 |
| [65535.24](#event-6553524) | 0x0168       |     19 |              5 |
| [65535.25](#event-6553525) | 0x017B       |     37 |              9 |
| [65535.26](#event-6553526) | 0x01A0       |     19 |              5 |
| [65535.27](#event-6553527) | 0x01B3       |     37 |              9 |
| [65535.28](#event-6553528) | 0x01D8       |     19 |              5 |
| [65535.29](#event-6553529) | 0x01EB       |     19 |              5 |
| [65535.30](#event-6553530) | 0x01FE       |     19 |              5 |
| [65535.31](#event-6553531) | 0x0211       |     19 |              5 |
| [65535.32](#event-6553532) | 0x0224       |     19 |              5 |
| [65535.33](#event-6553533) | 0x0237       |     19 |              5 |
| [65535.34](#event-6553534) | 0x024A       |     14 |              4 |
| [65535.35](#event-6553535) | 0x0258       |     24 |              6 |
| [65535.36](#event-6553536) | 0x0270       |     14 |              4 |
| [270](#event-270)          | 0x027E       |      1 |              1 |
| [65535.37](#event-6553537) | 0x027F       |      5 |              3 |
| [65535.38](#event-6553538) | 0x0284       |      5 |              3 |
| [65535.39](#event-6553539) | 0x0289       |     23 |              7 |
| [65535.40](#event-6553540) | 0x02A0       |      5 |              3 |
| [65535.41](#event-6553541) | 0x02A5       |      5 |              3 |
| [65535.42](#event-6553542) | 0x02AA       |      5 |              3 |
| [65535.43](#event-6553543) | 0x02AF       |     19 |              5 |
| [65535.44](#event-6553544) | 0x02C2       |      5 |              3 |
| [65535.45](#event-6553545) | 0x02C7       |     19 |              5 |
| [65535.46](#event-6553546) | 0x02DA       |      5 |              3 |
| [65535.47](#event-6553547) | 0x02DF       |     19 |              5 |
| [271](#event-271)          | 0x02F2       |      1 |              1 |
| [65535.48](#event-6553548) | 0x02F3       |     21 |              7 |
| [65535.49](#event-6553549) | 0x0308       |     21 |              7 |
| [65535.50](#event-6553550) | 0x031D       |     10 |              2 |
| [65535.51](#event-6553551) | 0x0327       |      5 |              3 |
| [65535.52](#event-6553552) | 0x032C       |      5 |              3 |
| [65535.53](#event-6553553) | 0x0331       |     19 |              5 |
| [65535.54](#event-6553554) | 0x0344       |     19 |              5 |
| [275](#event-275)          | 0x0357       |      1 |              1 |
| [65535.55](#event-6553555) | 0x0358       |     43 |              9 |
| [65535.56](#event-6553556) | 0x0383       |     17 |              5 |
| [65535.57](#event-6553557) | 0x0394       |     19 |              5 |
| [65535.58](#event-6553558) | 0x03A7       |     19 |              5 |
| [65535.59](#event-6553559) | 0x03BA       |     19 |              5 |
| [65535.60](#event-6553560) | 0x03CD       |      5 |              3 |
| [276](#event-276)          | 0x03D2       |      1 |              1 |
| [65535.61](#event-6553561) | 0x03D3       |     14 |              4 |
| [65535.62](#event-6553562) | 0x03E1       |     28 |              6 |
| [65535.63](#event-6553563) | 0x03FD       |      4 |              2 |
| [65535.64](#event-6553564) | 0x0401       |     23 |              7 |
| [65535.65](#event-6553565) | 0x0418       |     19 |              5 |
| [65535.66](#event-6553566) | 0x042B       |      5 |              3 |
| [65535.67](#event-6553567) | 0x0430       |     27 |              7 |
| [65535.68](#event-6553568) | 0x044B       |     28 |              8 |
| [65535.69](#event-6553569) | 0x0467       |     19 |              5 |
| [65535.70](#event-6553570) | 0x047A       |      5 |              3 |
| [65535.71](#event-6553571) | 0x047F       |      5 |              3 |
| [65535.72](#event-6553572) | 0x0484       |      5 |              3 |
| [65535.73](#event-6553573) | 0x0489       |     19 |              5 |
| [65535.74](#event-6553574) | 0x049C       |      5 |              3 |
| [65535.75](#event-6553575) | 0x04A1       |      5 |              3 |
| [279](#event-279)          | 0x04A6       |      1 |              1 |
| [65535.76](#event-6553576) | 0x04A7       |      5 |              3 |
| [65535.77](#event-6553577) | 0x04AC       |     19 |              5 |
| [281](#event-281)          | 0x04BF       |      1 |              1 |
| [65535.78](#event-6553578) | 0x04C0       |      5 |              3 |
| [65535.79](#event-6553579) | 0x04C5       |     19 |              5 |
| [65535.80](#event-6553580) | 0x04D8       |      5 |              3 |
| [65535.81](#event-6553581) | 0x04DD       |     19 |              5 |
| [65535.82](#event-6553582) | 0x04F0       |     19 |              5 |
| [65535.83](#event-6553583) | 0x0503       |      9 |              5 |
| [65535.84](#event-6553584) | 0x050C       |      5 |              3 |
| [430](#event-430)          | 0x0511       |      1 |              1 |

## DAT References (imed_data)

|   Index | Hex Value   |   Dec Value |
|---------|-------------|-------------|
|       0 | 0x0028      |          40 |
|       1 | 0x001E      |          30 |
|       2 | 0x0029      |          41 |
|       3 | 0x002A      |          42 |
|       4 | 0x000D      |          13 |
|       5 | 0xFFFFA46F  |  4294943855 |
|       6 | 0x5206      |       20998 |
|       7 | 0x6F53      |       28499 |
|       8 | 0xFFFFAFA9  |  4294946729 |
|       9 | 0x5C9F      |       23711 |
|      10 | 0x7241      |       29249 |
|      11 | 0xFFFFBBCB  |  4294949835 |
|      12 | 0x667D      |       26237 |
|      13 | 0x752F      |       29999 |
|      14 | 0x0000      |           0 |
|      15 | 0x4C59      |       19545 |
|      16 | 0x7530      |       30000 |
|      17 | 0x0400      |        1024 |
|      18 | 0x1E98      |        7832 |
|      19 | 0x1E99      |        7833 |
|      20 | 0x1E9F      |        7839 |
|      21 | 0x1EA0      |        7840 |
|      22 | 0x1EA9      |        7849 |
|      23 | 0x1EAA      |        7850 |
|      24 | 0x1EAB      |        7851 |
|      25 | 0x1EAC      |        7852 |
|      26 | 0x1EB0      |        7856 |
|      27 | 0x1EB3      |        7859 |
|      28 | 0x1EB8      |        7864 |
|      29 | 0x1EBD      |        7869 |
|      30 | 0x1EBE      |        7870 |
|      31 | 0x5529      |       21801 |
|      32 | 0x781D      |       30749 |
|      33 | 0x1EDD      |        7901 |
|      34 | 0x1EE2      |        7906 |
|      35 | 0x1EE6      |        7910 |
|      36 | 0x1EE7      |        7911 |
|      37 | 0x1EE8      |        7912 |
|      38 | 0x1EEB      |        7915 |
|      39 | 0x1EEC      |        7916 |
|      40 | 0x1EF0      |        7920 |
|      41 | 0x1EF2      |        7922 |
|      42 | 0x1F09      |        7945 |
|      43 | 0x1F0C      |        7948 |
|      44 | 0x1F0E      |        7950 |
|      45 | 0xFFFFFC18  |  4294966296 |
|      46 | 0x5780      |       22400 |
|      47 | 0xFFFFEF92  |  4294963090 |
|      48 | 0x5B93      |       23443 |
|      49 | 0x7723      |       30499 |
|      50 | 0xFFFFD878  |  4294957176 |
|      51 | 0x66E8      |       26344 |
|      52 | 0x0126      |         294 |
|      53 | 0x1F19      |        7961 |
|      54 | 0x1F1C      |        7964 |
|      55 | 0x1F3C      |        7996 |
|      56 | 0x1F40      |        8000 |
|      57 | 0x07CA      |        1994 |
|      58 | 0x45EE      |       17902 |
|      59 | 0x0006      |           6 |
|      60 | 0x1F48      |        8008 |
|      61 | 0x1F4E      |        8014 |
|      62 | 0x1F4F      |        8015 |
|      63 | 0x1F51      |        8017 |
|      64 | 0x1F52      |        8018 |
|      65 | 0x0320      |         800 |
|      66 | 0x490F      |       18703 |
|      67 | 0x003C      |          60 |
|      68 | 0x1F59      |        8025 |
|      69 | 0x1F5A      |        8026 |
|      70 | 0x1F5C      |        8028 |
|      71 | 0x1F5E      |        8030 |
|      72 | 0x0007      |           7 |
|      73 | 0x1F63      |        8035 |
|      74 | 0x1F64      |        8036 |
|      75 | 0x1F65      |        8037 |
|      76 | 0x1F67      |        8039 |
|      77 | 0x1F69      |        8041 |
|      78 | 0x1F6A      |        8042 |
|      79 | 0x1F70      |        8048 |
|      80 | 0x1F72      |        8050 |
|      81 | 0x1F75      |        8053 |
|      82 | 0x1F77      |        8055 |
|      83 | 0x1F83      |        8067 |
|      84 | 0x1F85      |        8069 |
|      85 | 0x1F8B      |        8075 |
|      86 | 0x1F8C      |        8076 |
|      87 | 0x1F8D      |        8077 |
|      88 | 0x1F8F      |        8079 |
|      89 | 0x1F94      |        8084 |
|      90 | 0x1F96      |        8086 |
|      91 | 0x1F97      |        8087 |
|      92 | 0x1F99      |        8089 |

## String References

- **7832**: Miss Chumimi, I apologize-thy for being late. It took-ethy me forever to round up these two!
- **7833**: Ahem. Now, where was I? Ah, yes! The reason I called-ethy you all here today.
- **7839**: Now, professor! Don't rush-ethy into any conclusions.
- **7840**: Coming to conclusions before we have-ethy any data is not logical. We must cross all our I's and dot all our T's before making any new theories.
- **7849**: Soil? Light? Are you two dimwits through-ethy yet? The problem obviously-ethy lies in the water!
- **7850**: Listen. Recently-ethy, I have had many reports of problems with Sarutabaruta's water.
- **7851**: These star trees are offspring-ethy of the Great Star Tree. They have existed-ethy in Windurst for many-wany generations!
- **7852**: They have been around-ethy since the times when magic was overflowing in these parts. Of course, they're going to be sensitive to a drop-ethy in magic levels in the water!
- **7856**: Just one moment! Did you not hear-ethy my scientific theory-ethy on the water?
- **7859**: Water!
- **7864**: Quiet, both of you, or I'll collect-ethy on those debts you owe me!
- **7869**: ... You know, she does have-ethy a point...
- **7870**: I'll have the Rhinostery send-ethy over a large shipment of Giddeus Water. Good day!
- **7901**: I'm sorry to keep-ethy you waiting, Miss Chumimi. Now show-ethy us how my plan worked.
- **7906**: ... I see. It's time we took-ethy this problem a little more seriously.
- **7910**: Chumimi, Chumimi... We scientists give-ethy a numerical rating to any problems brought before us.
- **7911**: Ranking the problem helps give-ethy us an idea of how much brainy-wainy power is needed to solve it. This prevents us from wasting any of our time.
- **7912**: Listen, you two. We underestimated this problem-ethy here before us. Let's re-rank-ethy and re-think-ethy our predicament.
- **7915**: Y-yes, well, let us examine-ethy this problem from the beginning. If nothing in the water, soil, or light has been changed, then we must focus-ethy on the moment that things began going wrong.
- **7916**: There must-ethy be a logical cause for every effect. What we must-ethy determine is when the "effect" took-ethy place.
- **7920**: Chumimi, approximately when did the star trees begin-ethy to wither-hither?
- **7922**: Twenty years... A lot can happen-ethy in twenty years, you know. Do you two have any ideas?
- **7945**: What is this you say-ethy, Professor? Do you have-ethy anything you'd like to share-ethy with us?
- **7948**: What is going on here?
- **7950**: You have-ethy a point...
- **7961**: I commend-ethy you on your efforts. We got the details from Koru-Moru while you were away.
- **7964**: Now let's put-ethy our heads together once more. Can either of you remember-ethy anything that might have caused the star trees to wither-hither?
- **7996**: What? Did you remember-ethy something?
- **8000**: That is what our adventurer here is going to find-ethy out for us.
- **8008**: So this is what Doctor Shantotto thinks-ethy is causing all our problems...
- **8014**: You mean to tell-ethy me, you thought a curse from this doll was affecting the star trees? How unscientific-ethy!
- **8015**: However, we cannot take-ethy any chances. This doll may know-ethy something we don't.
- **8017**: Good work, Miss Chumimi. Now you can leave-ethy the rest to me.
- **8018**: Oh, and our adventurer. I commend-ethy you on your work as well. As a measure of our gratitude, please accept-ethy this.
- **8025**: First, let me assure-ethy you that some crazy-wazy curse is definitely not the cause-ethy of the star trees' problem.
- **8026**: And it is most certainly not anger pent-ethy up by the star trees for acts of stupidity-ethy taken by our colleague, Koru-Moru.
- **8028**: Coming to these conclusions, we have decided-ethy on putting forth all our effort into solving the problem.
- **8030**: Chumimi, Chumimi. The road one travels does-ethy not matter. What is important is the destination you reach-ethy.
- **8035**: The baby star trees sprout-ethy from starseeds taken from the Great Star Tree. We feel-ethy that the lack of magical energy-ethy in the Great Star Tree is causing problems in these seeds.
- **8036**: On the outside, the Great Star Tree looks as it has for the past-ethy few centuries, but reports from our researchers tell-ethy us that it has begun to slowly rotaru from the inside.
- **8037**: Up until now, we have left-ethy this grave problem in the hands of our younger colleagues. However, now it is time-ethy that we professors take-ethy control.
- **8039**: Ahem! The road to truth-ethy is often a windy-mindy one, is it not, Chumimi?
- **8041**: The Rhinostery-ethy has worked in cooperation with Heavens Tower to conduct-ethy various research on the Great Star Tree. However, there has been only so much they could do.
- **8042**: As the next phase of our plan, we would like to travel-ethy deep beneath the Great Star Tree and see if we can get to the roots of this problem, so to speak-ethy.
- **8048**: Hmmm, you have-ethy a point. Doctor Shantotto, we couldn't get you to go down there with our adventurer, could-ethy we?
- **8050**: You don't mean-ethy Karaha-Baruha's laboratory, do you? I wouldn't advise-ethy on mixing business and pleasure at a time like this.
- **8053**: If you think that I'm going to take-ethy any more part in these games you're playing...
- **8055**: Oh!
- **8067**: We are all ready to go, go, go.
- **8069**: Wonderful, Professor. At times you surprise-ethy us.
- **8075**: Hmmm...I see. Magic stagnation in the Toraimarai Canal... It does make-ethy sense.
- **8076**: It has been-ethy years since the magic towers in Sarutabaruta have operated. This must-ethy be what is affecting the flow of magic in the canal.
- **8077**: However, if our adventurer has succeeded in cleaning up-ethy some of this stagnation, then things should get-ethy better-batter for the time being.
- **8079**: However, now we will have-ethy to arrange a regular cleaning of this stagnation to prevent-ethy our problem from getting any worse.
- **8084**: Yes, yes, it could mean-ethy anything...but where is Doctor Shantotto? She didn't go to...
- **8086**: Doctor! You didn't travel-ethy to Karaha-Baruha's laboratory, did you?
- **8087**: And after I warned you not to...
- **8089**: ... That is just-ethy terrible...

## Events

### Event 65535

#### Metadata

| Field        | Value   |
|--------------|---------|
| Entrypoint   | 0x0000  |
| Data Size    | 1 bytes |
| Instructions | 1       |

```
      00 01 02 03 04 05 06 07  08 09 0A 0B 0C 0D 0E 0F
      -- -- -- -- -- -- -- --  -- -- -- -- -- -- -- --
0000: 00                                                .               
```

#### Opcodes

```
  0: 0x0000 [0x00] END_REQSTACK()
```

### Event 65535.1

#### Metadata

| Field        | Value    |
|--------------|----------|
| Entrypoint   | 0x0001   |
| Data Size    | 16 bytes |
| Instructions | 2        |

```
      00 01 02 03 04 05 06 07  08 09 0A 0B 0C 0D 0E 0F
      -- -- -- -- -- -- -- --  -- -- -- -- -- -- -- --
0000:    66 00 80 F8 FF FF 7F  F8 FF FF 7F 74 6C 6B 30   f..........tlk0
0010: 00                                                .               
```

#### Opcodes

```
  0: 0x0001 [0x66] LOAD_EXT_SCHEDULER_MAIN: Load scheduler "tlk0" with entities [EventEntity, EventEntity], work=40*
  1: 0x0010 [0x00] END_REQSTACK()
```

### Event 65535.2

#### Metadata

| Field        | Value    |
|--------------|----------|
| Entrypoint   | 0x0011   |
| Data Size    | 22 bytes |
| Instructions | 4        |

```
      00 01 02 03 04 05 06 07  08 09 0A 0B 0C 0D 0E 0F
      -- -- -- -- -- -- -- --  -- -- -- -- -- -- -- --
0010:    53 F8 FF FF 7F F8 FF  FF 7F 74 6C 6B 30 5E 69   S........tlk0^i
0020: 64 6C 30 1C 01 80 00                              dl0....         
```

#### Opcodes

```
  0: 0x0011 [0x53] WAIT_SCHEDULER_TASK: Wait for scheduler "tlk0" with entities [EventEntity, EventEntity]
  1: 0x001E [0x5E] EventEntity goes idle (kills current action) (animation: "idl0")
  2: 0x0023 [0x1C] WAIT(30* ticks)
  3: 0x0026 [0x00] END_REQSTACK()
```

### Event 65535.3

#### Metadata

| Field        | Value    |
|--------------|----------|
| Entrypoint   | 0x0027   |
| Data Size    | 16 bytes |
| Instructions | 2        |

```
      00 01 02 03 04 05 06 07  08 09 0A 0B 0C 0D 0E 0F
      -- -- -- -- -- -- -- --  -- -- -- -- -- -- -- --
0020:                      66  00 80 F8 FF FF 7F F8 FF         f........
0030: FF 7F 74 68 6B 31 00                              ..thk1.         
```

#### Opcodes

```
  0: 0x0027 [0x66] LOAD_EXT_SCHEDULER_MAIN: Load scheduler "thk1" with entities [EventEntity, EventEntity], work=40*
  1: 0x0036 [0x00] END_REQSTACK()
```

### Event 65535.4

#### Metadata

| Field        | Value    |
|--------------|----------|
| Entrypoint   | 0x0037   |
| Data Size    | 14 bytes |
| Instructions | 2        |

```
      00 01 02 03 04 05 06 07  08 09 0A 0B 0C 0D 0E 0F
      -- -- -- -- -- -- -- --  -- -- -- -- -- -- -- --
0030:                      53  F8 FF FF 7F F8 FF FF 7F         S........
0040: 74 68 6B 31 00                                    thk1.           
```

#### Opcodes

```
  0: 0x0037 [0x53] WAIT_SCHEDULER_TASK: Wait for scheduler "thk1" with entities [EventEntity, EventEntity]
  1: 0x0044 [0x00] END_REQSTACK()
```

### Event 65535.5

#### Metadata

| Field        | Value    |
|--------------|----------|
| Entrypoint   | 0x0045   |
| Data Size    | 16 bytes |
| Instructions | 2        |

```
      00 01 02 03 04 05 06 07  08 09 0A 0B 0C 0D 0E 0F
      -- -- -- -- -- -- -- --  -- -- -- -- -- -- -- --
0040:                66 00 80  F8 FF FF 7F F8 FF FF 7F       f..........
0050: 74 68 6B 32 00                                    thk2.           
```

#### Opcodes

```
  0: 0x0045 [0x66] LOAD_EXT_SCHEDULER_MAIN: Load scheduler "thk2" with entities [EventEntity, EventEntity], work=40*
  1: 0x0054 [0x00] END_REQSTACK()
```

### Event 65535.6

#### Metadata

| Field        | Value    |
|--------------|----------|
| Entrypoint   | 0x0055   |
| Data Size    | 14 bytes |
| Instructions | 2        |

```
      00 01 02 03 04 05 06 07  08 09 0A 0B 0C 0D 0E 0F
      -- -- -- -- -- -- -- --  -- -- -- -- -- -- -- --
0050:                53 F8 FF  FF 7F F8 FF FF 7F 74 68       S........th
0060: 6B 32 00                                          k2.             
```

#### Opcodes

```
  0: 0x0055 [0x53] WAIT_SCHEDULER_TASK: Wait for scheduler "thk2" with entities [EventEntity, EventEntity]
  1: 0x0062 [0x00] END_REQSTACK()
```

### Event 65535.7

#### Metadata

| Field        | Value    |
|--------------|----------|
| Entrypoint   | 0x0063   |
| Data Size    | 16 bytes |
| Instructions | 2        |

```
      00 01 02 03 04 05 06 07  08 09 0A 0B 0C 0D 0E 0F
      -- -- -- -- -- -- -- --  -- -- -- -- -- -- -- --
0060:          66 00 80 F8 FF  FF 7F F8 FF FF 7F 70 6F     f..........po
0070: 69 30 00                                          i0.             
```

#### Opcodes

```
  0: 0x0063 [0x66] LOAD_EXT_SCHEDULER_MAIN: Load scheduler "poi0" with entities [EventEntity, EventEntity], work=40*
  1: 0x0072 [0x00] END_REQSTACK()
```

### Event 65535.8

#### Metadata

| Field        | Value    |
|--------------|----------|
| Entrypoint   | 0x0073   |
| Data Size    | 14 bytes |
| Instructions | 2        |

```
      00 01 02 03 04 05 06 07  08 09 0A 0B 0C 0D 0E 0F
      -- -- -- -- -- -- -- --  -- -- -- -- -- -- -- --
0070:          53 F8 FF FF 7F  F8 FF FF 7F 70 6F 69 30     S........poi0
0080: 00                                                .               
```

#### Opcodes

```
  0: 0x0073 [0x53] WAIT_SCHEDULER_TASK: Wait for scheduler "poi0" with entities [EventEntity, EventEntity]
  1: 0x0080 [0x00] END_REQSTACK()
```

### Event 65535.9

#### Metadata

| Field        | Value    |
|--------------|----------|
| Entrypoint   | 0x0081   |
| Data Size    | 16 bytes |
| Instructions | 2        |

```
      00 01 02 03 04 05 06 07  08 09 0A 0B 0C 0D 0E 0F
      -- -- -- -- -- -- -- --  -- -- -- -- -- -- -- --
0080:    66 00 80 F8 FF FF 7F  F8 FF FF 7F 73 79 75 30   f..........syu0
0090: 00                                                .               
```

#### Opcodes

```
  0: 0x0081 [0x66] LOAD_EXT_SCHEDULER_MAIN: Load scheduler "syu0" with entities [EventEntity, EventEntity], work=40*
  1: 0x0090 [0x00] END_REQSTACK()
```

### Event 65535.10

#### Metadata

| Field        | Value    |
|--------------|----------|
| Entrypoint   | 0x0091   |
| Data Size    | 14 bytes |
| Instructions | 2        |

```
      00 01 02 03 04 05 06 07  08 09 0A 0B 0C 0D 0E 0F
      -- -- -- -- -- -- -- --  -- -- -- -- -- -- -- --
0090:    53 F8 FF FF 7F F8 FF  FF 7F 73 79 75 30 00      S........syu0. 
```

#### Opcodes

```
  0: 0x0091 [0x53] WAIT_SCHEDULER_TASK: Wait for scheduler "syu0" with entities [EventEntity, EventEntity]
  1: 0x009E [0x00] END_REQSTACK()
```

### Event 65535.11

#### Metadata

| Field        | Value    |
|--------------|----------|
| Entrypoint   | 0x009F   |
| Data Size    | 16 bytes |
| Instructions | 2        |

```
      00 01 02 03 04 05 06 07  08 09 0A 0B 0C 0D 0E 0F
      -- -- -- -- -- -- -- --  -- -- -- -- -- -- -- --
0090:                                               66                 f
00A0: 00 80 F8 FF FF 7F F8 FF  FF 7F 69 72 6F 30 00     ..........iro0. 
```

#### Opcodes

```
  0: 0x009F [0x66] LOAD_EXT_SCHEDULER_MAIN: Load scheduler "iro0" with entities [EventEntity, EventEntity], work=40*
  1: 0x00AE [0x00] END_REQSTACK()
```

### Event 65535.12

#### Metadata

| Field        | Value    |
|--------------|----------|
| Entrypoint   | 0x00AF   |
| Data Size    | 14 bytes |
| Instructions | 2        |

```
      00 01 02 03 04 05 06 07  08 09 0A 0B 0C 0D 0E 0F
      -- -- -- -- -- -- -- --  -- -- -- -- -- -- -- --
00A0:                                               53                 S
00B0: F8 FF FF 7F F8 FF FF 7F  69 72 6F 30 00           ........iro0.   
```

#### Opcodes

```
  0: 0x00AF [0x53] WAIT_SCHEDULER_TASK: Wait for scheduler "iro0" with entities [EventEntity, EventEntity]
  1: 0x00BC [0x00] END_REQSTACK()
```

### Event 65535.13

#### Metadata

| Field        | Value    |
|--------------|----------|
| Entrypoint   | 0x00BD   |
| Data Size    | 16 bytes |
| Instructions | 2        |

```
      00 01 02 03 04 05 06 07  08 09 0A 0B 0C 0D 0E 0F
      -- -- -- -- -- -- -- --  -- -- -- -- -- -- -- --
00B0:                                         66 02 80               f..
00C0: F8 FF FF 7F F8 FF FF 7F  67 68 6E 30 00           ........ghn0.   
```

#### Opcodes

```
  0: 0x00BD [0x66] LOAD_EXT_SCHEDULER_MAIN: Load scheduler "ghn0" with entities [EventEntity, EventEntity], work=41*
  1: 0x00CC [0x00] END_REQSTACK()
```

### Event 65535.14

#### Metadata

| Field        | Value    |
|--------------|----------|
| Entrypoint   | 0x00CD   |
| Data Size    | 14 bytes |
| Instructions | 2        |

```
      00 01 02 03 04 05 06 07  08 09 0A 0B 0C 0D 0E 0F
      -- -- -- -- -- -- -- --  -- -- -- -- -- -- -- --
00C0:                                         53 F8 FF               S..
00D0: FF 7F F8 FF FF 7F 67 68  6E 30 00                 ......ghn0.     
```

#### Opcodes

```
  0: 0x00CD [0x53] WAIT_SCHEDULER_TASK: Wait for scheduler "ghn0" with entities [EventEntity, EventEntity]
  1: 0x00DA [0x00] END_REQSTACK()
```

### Event 65535.15

#### Metadata

| Field        | Value    |
|--------------|----------|
| Entrypoint   | 0x00DB   |
| Data Size    | 16 bytes |
| Instructions | 2        |

```
      00 01 02 03 04 05 06 07  08 09 0A 0B 0C 0D 0E 0F
      -- -- -- -- -- -- -- --  -- -- -- -- -- -- -- --
00D0:                                   66 03 80 F8 FF             f....
00E0: FF 7F F8 FF FF 7F 62 69  6B 30 00                 ......bik0.     
```

#### Opcodes

```
  0: 0x00DB [0x66] LOAD_EXT_SCHEDULER_MAIN: Load scheduler "bik0" with entities [EventEntity, EventEntity], work=42*
  1: 0x00EA [0x00] END_REQSTACK()
```

### Event 65535.16

#### Metadata

| Field        | Value    |
|--------------|----------|
| Entrypoint   | 0x00EB   |
| Data Size    | 22 bytes |
| Instructions | 4        |

```
      00 01 02 03 04 05 06 07  08 09 0A 0B 0C 0D 0E 0F
      -- -- -- -- -- -- -- --  -- -- -- -- -- -- -- --
00E0:                                   53 F8 FF FF 7F             S....
00F0: F8 FF FF 7F 62 69 6B 30  5E 69 64 6C 30 1C 01 80  ....bik0^idl0...
0100: 00                                                .               
```

#### Opcodes

```
  0: 0x00EB [0x53] WAIT_SCHEDULER_TASK: Wait for scheduler "bik0" with entities [EventEntity, EventEntity]
  1: 0x00F8 [0x5E] EventEntity goes idle (kills current action) (animation: "idl0")
  2: 0x00FD [0x1C] WAIT(30* ticks)
  3: 0x0100 [0x00] END_REQSTACK()
```

### Event 65535.17

#### Metadata

| Field        | Value    |
|--------------|----------|
| Entrypoint   | 0x0101   |
| Data Size    | 16 bytes |
| Instructions | 2        |

```
      00 01 02 03 04 05 06 07  08 09 0A 0B 0C 0D 0E 0F
      -- -- -- -- -- -- -- --  -- -- -- -- -- -- -- --
0100:    66 00 80 F8 FF FF 7F  F8 FF FF 7F 70 61 73 30   f..........pas0
0110: 00                                                .               
```

#### Opcodes

```
  0: 0x0101 [0x66] LOAD_EXT_SCHEDULER_MAIN: Load scheduler "pas0" with entities [EventEntity, EventEntity], work=40*
  1: 0x0110 [0x00] END_REQSTACK()
```

### Event 65535.18

#### Metadata

| Field        | Value    |
|--------------|----------|
| Entrypoint   | 0x0111   |
| Data Size    | 14 bytes |
| Instructions | 2        |

```
      00 01 02 03 04 05 06 07  08 09 0A 0B 0C 0D 0E 0F
      -- -- -- -- -- -- -- --  -- -- -- -- -- -- -- --
0110:    53 F8 FF FF 7F F8 FF  FF 7F 70 61 73 30 00      S........pas0. 
```

#### Opcodes

```
  0: 0x0111 [0x53] WAIT_SCHEDULER_TASK: Wait for scheduler "pas0" with entities [EventEntity, EventEntity]
  1: 0x011E [0x00] END_REQSTACK()
```

### Event 65535.19

#### Metadata

| Field        | Value   |
|--------------|---------|
| Entrypoint   | 0x011F  |
| Data Size    | 9 bytes |
| Instructions | 3       |

```
      00 01 02 03 04 05 06 07  08 09 0A 0B 0C 0D 0E 0F
      -- -- -- -- -- -- -- --  -- -- -- -- -- -- -- --
0110:                                               5E                 ^
0120: 69 64 6C 30 1C 01 80 00                           idl0....        
```

#### Opcodes

```
  0: 0x011F [0x5E] EventEntity goes idle (kills current action) (animation: "idl0")
  1: 0x0124 [0x1C] WAIT(30* ticks)
  2: 0x0127 [0x00] END_REQSTACK()
```

### Event 65535.20

#### Metadata

| Field        | Value    |
|--------------|----------|
| Entrypoint   | 0x0128   |
| Data Size    | 34 bytes |
| Instructions | 8        |

```
      00 01 02 03 04 05 06 07  08 09 0A 0B 0C 0D 0E 0F
      -- -- -- -- -- -- -- --  -- -- -- -- -- -- -- --
0120:                          32 04 80 1F 00 05 80 06          2.......
0130: 80 07 80 1F 01 1F 00 08  80 09 80 0A 80 1F 01 1F  ................
0140: 00 0B 80 0C 80 0D 80 1F  01 00                    ..........      
```

#### Opcodes

```
  0: 0x0128 [0x32] ExtData[1]->MainSpeed = 13* * 0.1
  1: 0x012B [0x1F] MOVE_ENTITY: EventEntity moves to X=-23.441*, Z=20.998*, Y=28.499*
  2: 0x0133 [0x1F] MOVE_ENTITY: Update entity position (mode=1)
  3: 0x0135 [0x1F] MOVE_ENTITY: EventEntity moves to X=-20.567*, Z=23.711*, Y=29.249*
  4: 0x013D [0x1F] MOVE_ENTITY: Update entity position (mode=1)
  5: 0x013F [0x1F] MOVE_ENTITY: EventEntity moves to X=-17.461*, Z=26.237*, Y=29.999*
  6: 0x0147 [0x1F] MOVE_ENTITY: Update entity position (mode=1)
  7: 0x0149 [0x00] END_REQSTACK()
```

### Event 65535.21

#### Metadata

| Field        | Value    |
|--------------|----------|
| Entrypoint   | 0x014A   |
| Data Size    | 14 bytes |
| Instructions | 4        |

```
      00 01 02 03 04 05 06 07  08 09 0A 0B 0C 0D 0E 0F
      -- -- -- -- -- -- -- --  -- -- -- -- -- -- -- --
0140:                                32 04 80 1F 00 0B            2.....
0150: 80 0C 80 0D 80 1F 01 00                           ........        
```

#### Opcodes

```
  0: 0x014A [0x32] ExtData[1]->MainSpeed = 13* * 0.1
  1: 0x014D [0x1F] MOVE_ENTITY: EventEntity moves to X=-17.461*, Z=26.237*, Y=29.999*
  2: 0x0155 [0x1F] MOVE_ENTITY: Update entity position (mode=1)
  3: 0x0157 [0x00] END_REQSTACK()
```

### Event 65535.22

#### Metadata

| Field        | Value    |
|--------------|----------|
| Entrypoint   | 0x0158   |
| Data Size    | 10 bytes |
| Instructions | 2        |

```
      00 01 02 03 04 05 06 07  08 09 0A 0B 0C 0D 0E 0F
      -- -- -- -- -- -- -- --  -- -- -- -- -- -- -- --
0150:                          37 0E 80 0F 80 10 80 11          7.......
0160: 80 00                                             ..              
```

#### Opcodes

```
  0: 0x0158 [0x37] UPDATE_EVENT_POSITION_AND_DIR: x=0.000*, z=19.545*, y=30.000*, direction=90.0°*
  1: 0x0161 [0x00] END_REQSTACK()
```

### Event 260

#### Metadata

| Field        | Value   |
|--------------|---------|
| Entrypoint   | 0x0162  |
| Data Size    | 1 bytes |
| Instructions | 1       |

```
      00 01 02 03 04 05 06 07  08 09 0A 0B 0C 0D 0E 0F
      -- -- -- -- -- -- -- --  -- -- -- -- -- -- -- --
0160:       00                                            .             
```

#### Opcodes

```
  0: 0x0162 [0x00] END_REQSTACK()
```

### Event 65535.23

#### Metadata

| Field        | Value   |
|--------------|---------|
| Entrypoint   | 0x0163  |
| Data Size    | 5 bytes |
| Instructions | 3       |

```
      00 01 02 03 04 05 06 07  08 09 0A 0B 0C 0D 0E 0F
      -- -- -- -- -- -- -- --  -- -- -- -- -- -- -- --
0160:          1D 12 80 23 00                              ...#.        
```

#### Opcodes

```
  0: 0x0163 [0x1D] PRINT_EVENT_MESSAGE(message_id=7832*)
    → "Miss Chumimi, I apologize-thy for being late. It took-ethy me forever to round up these two!"
  1: 0x0166 [0x23] WAIT_FOR_DIALOG_INTERACTION
  2: 0x0167 [0x00] END_REQSTACK()
```

### Event 65535.24

#### Metadata

| Field        | Value    |
|--------------|----------|
| Entrypoint   | 0x0168   |
| Data Size    | 19 bytes |
| Instructions | 5        |

```
      00 01 02 03 04 05 06 07  08 09 0A 0B 0C 0D 0E 0F
      -- -- -- -- -- -- -- --  -- -- -- -- -- -- -- --
0160:                          29 08 56 20 0F 01 05 1D          ).V ....
0170: 13 80 23 29 08 56 20 0F  01 06 00                 ..#).V ....     
```

#### Opcodes

```
  0: 0x0168 [0x29] REQ_SET_WAIT(priority=0x08, entity_id=Yoran-Oran (ID: 17768534/0x010F2056), tag_num=0x05)
  1: 0x016F [0x1D] PRINT_EVENT_MESSAGE(message_id=7833*)
    → "Ahem. Now, where was I? Ah, yes! The reason I called-ethy you all here today."
  2: 0x0172 [0x23] WAIT_FOR_DIALOG_INTERACTION
  3: 0x0173 [0x29] REQ_SET_WAIT(priority=0x08, entity_id=Yoran-Oran (ID: 17768534/0x010F2056), tag_num=0x06)
  4: 0x017A [0x00] END_REQSTACK()
```

### Event 65535.25

#### Metadata

| Field        | Value    |
|--------------|----------|
| Entrypoint   | 0x017B   |
| Data Size    | 37 bytes |
| Instructions | 9        |

```
      00 01 02 03 04 05 06 07  08 09 0A 0B 0C 0D 0E 0F
      -- -- -- -- -- -- -- --  -- -- -- -- -- -- -- --
0170:                                   29 08 56 20 0F             ).V .
0180: 01 07 1D 14 80 23 29 08  56 20 0F 01 08 29 08 56  .....#).V ...).V
0190: 20 0F 01 03 1D 15 80 23  29 08 56 20 0F 01 04 00   ......#).V ....
```

#### Opcodes

```
  0: 0x017B [0x29] REQ_SET_WAIT(priority=0x08, entity_id=Yoran-Oran (ID: 17768534/0x010F2056), tag_num=0x07)
  1: 0x0182 [0x1D] PRINT_EVENT_MESSAGE(message_id=7839*)
    → "Now, professor! Don't rush-ethy into any conclusions."
  2: 0x0185 [0x23] WAIT_FOR_DIALOG_INTERACTION
  3: 0x0186 [0x29] REQ_SET_WAIT(priority=0x08, entity_id=Yoran-Oran (ID: 17768534/0x010F2056), tag_num=0x08)
  4: 0x018D [0x29] REQ_SET_WAIT(priority=0x08, entity_id=Yoran-Oran (ID: 17768534/0x010F2056), tag_num=0x03)
  5: 0x0194 [0x1D] PRINT_EVENT_MESSAGE(message_id=7840*)
    → "Coming to conclusions before we have-ethy any data is not logical. We must cross all our I's and dot all our T's before making any new theories."
  6: 0x0197 [0x23] WAIT_FOR_DIALOG_INTERACTION
  7: 0x0198 [0x29] REQ_SET_WAIT(priority=0x08, entity_id=Yoran-Oran (ID: 17768534/0x010F2056), tag_num=0x04)
  8: 0x019F [0x00] END_REQSTACK()
```

### Event 65535.26

#### Metadata

| Field        | Value    |
|--------------|----------|
| Entrypoint   | 0x01A0   |
| Data Size    | 19 bytes |
| Instructions | 5        |

```
      00 01 02 03 04 05 06 07  08 09 0A 0B 0C 0D 0E 0F
      -- -- -- -- -- -- -- --  -- -- -- -- -- -- -- --
01A0: 29 08 56 20 0F 01 0B 1D  16 80 23 29 08 56 20 0F  ).V ......#).V .
01B0: 01 0C 00                                          ...             
```

#### Opcodes

```
  0: 0x01A0 [0x29] REQ_SET_WAIT(priority=0x08, entity_id=Yoran-Oran (ID: 17768534/0x010F2056), tag_num=0x0B)
  1: 0x01A7 [0x1D] PRINT_EVENT_MESSAGE(message_id=7849*)
    → "Soil? Light? Are you two dimwits through-ethy yet? The problem obviously-ethy lies in the water!"
  2: 0x01AA [0x23] WAIT_FOR_DIALOG_INTERACTION
  3: 0x01AB [0x29] REQ_SET_WAIT(priority=0x08, entity_id=Yoran-Oran (ID: 17768534/0x010F2056), tag_num=0x0C)
  4: 0x01B2 [0x00] END_REQSTACK()
```

### Event 65535.27

#### Metadata

| Field        | Value    |
|--------------|----------|
| Entrypoint   | 0x01B3   |
| Data Size    | 37 bytes |
| Instructions | 9        |

```
      00 01 02 03 04 05 06 07  08 09 0A 0B 0C 0D 0E 0F
      -- -- -- -- -- -- -- --  -- -- -- -- -- -- -- --
01B0:          29 08 56 20 0F  01 01 1D 17 80 23 29 08     ).V ......#).
01C0: 56 20 0F 01 02 29 08 56  20 0F 01 03 1D 18 80 23  V ...).V ......#
01D0: 29 08 56 20 0F 01 04 00                           ).V ....        
```

#### Opcodes

```
  0: 0x01B3 [0x29] REQ_SET_WAIT(priority=0x08, entity_id=Yoran-Oran (ID: 17768534/0x010F2056), tag_num=0x01)
  1: 0x01BA [0x1D] PRINT_EVENT_MESSAGE(message_id=7850*)
    → "Listen. Recently-ethy, I have had many reports of problems with Sarutabaruta's water."
  2: 0x01BD [0x23] WAIT_FOR_DIALOG_INTERACTION
  3: 0x01BE [0x29] REQ_SET_WAIT(priority=0x08, entity_id=Yoran-Oran (ID: 17768534/0x010F2056), tag_num=0x02)
  4: 0x01C5 [0x29] REQ_SET_WAIT(priority=0x08, entity_id=Yoran-Oran (ID: 17768534/0x010F2056), tag_num=0x03)
  5: 0x01CC [0x1D] PRINT_EVENT_MESSAGE(message_id=7851*)
    → "These star trees are offspring-ethy of the Great Star Tree. They have existed-ethy in Windurst for many-wany generations!"
  6: 0x01CF [0x23] WAIT_FOR_DIALOG_INTERACTION
  7: 0x01D0 [0x29] REQ_SET_WAIT(priority=0x08, entity_id=Yoran-Oran (ID: 17768534/0x010F2056), tag_num=0x04)
  8: 0x01D7 [0x00] END_REQSTACK()
```

### Event 65535.28

#### Metadata

| Field        | Value    |
|--------------|----------|
| Entrypoint   | 0x01D8   |
| Data Size    | 19 bytes |
| Instructions | 5        |

```
      00 01 02 03 04 05 06 07  08 09 0A 0B 0C 0D 0E 0F
      -- -- -- -- -- -- -- --  -- -- -- -- -- -- -- --
01D0:                          29 08 56 20 0F 01 05 1D          ).V ....
01E0: 19 80 23 29 08 56 20 0F  01 06 00                 ..#).V ....     
```

#### Opcodes

```
  0: 0x01D8 [0x29] REQ_SET_WAIT(priority=0x08, entity_id=Yoran-Oran (ID: 17768534/0x010F2056), tag_num=0x05)
  1: 0x01DF [0x1D] PRINT_EVENT_MESSAGE(message_id=7852*)
    → "They have been around-ethy since the times when magic was overflowing in these parts. Of course, they're going to be sensitive to a drop-ethy in magic levels in the water!"
  2: 0x01E2 [0x23] WAIT_FOR_DIALOG_INTERACTION
  3: 0x01E3 [0x29] REQ_SET_WAIT(priority=0x08, entity_id=Yoran-Oran (ID: 17768534/0x010F2056), tag_num=0x06)
  4: 0x01EA [0x00] END_REQSTACK()
```

### Event 65535.29

#### Metadata

| Field        | Value    |
|--------------|----------|
| Entrypoint   | 0x01EB   |
| Data Size    | 19 bytes |
| Instructions | 5        |

```
      00 01 02 03 04 05 06 07  08 09 0A 0B 0C 0D 0E 0F
      -- -- -- -- -- -- -- --  -- -- -- -- -- -- -- --
01E0:                                   29 08 56 20 0F             ).V .
01F0: 01 0B 1D 1A 80 23 29 08  56 20 0F 01 0C 00        .....#).V ....  
```

#### Opcodes

```
  0: 0x01EB [0x29] REQ_SET_WAIT(priority=0x08, entity_id=Yoran-Oran (ID: 17768534/0x010F2056), tag_num=0x0B)
  1: 0x01F2 [0x1D] PRINT_EVENT_MESSAGE(message_id=7856*)
    → "Just one moment! Did you not hear-ethy my scientific theory-ethy on the water?"
  2: 0x01F5 [0x23] WAIT_FOR_DIALOG_INTERACTION
  3: 0x01F6 [0x29] REQ_SET_WAIT(priority=0x08, entity_id=Yoran-Oran (ID: 17768534/0x010F2056), tag_num=0x0C)
  4: 0x01FD [0x00] END_REQSTACK()
```

### Event 65535.30

#### Metadata

| Field        | Value    |
|--------------|----------|
| Entrypoint   | 0x01FE   |
| Data Size    | 19 bytes |
| Instructions | 5        |

```
      00 01 02 03 04 05 06 07  08 09 0A 0B 0C 0D 0E 0F
      -- -- -- -- -- -- -- --  -- -- -- -- -- -- -- --
01F0:                                            29 08                ).
0200: 56 20 0F 01 0B 1D 1B 80  23 29 08 56 20 0F 01 0C  V ......#).V ...
0210: 00                                                .               
```

#### Opcodes

```
  0: 0x01FE [0x29] REQ_SET_WAIT(priority=0x08, entity_id=Yoran-Oran (ID: 17768534/0x010F2056), tag_num=0x0B)
  1: 0x0205 [0x1D] PRINT_EVENT_MESSAGE(message_id=7859*)
    → "Water!"
  2: 0x0208 [0x23] WAIT_FOR_DIALOG_INTERACTION
  3: 0x0209 [0x29] REQ_SET_WAIT(priority=0x08, entity_id=Yoran-Oran (ID: 17768534/0x010F2056), tag_num=0x0C)
  4: 0x0210 [0x00] END_REQSTACK()
```

### Event 65535.31

#### Metadata

| Field        | Value    |
|--------------|----------|
| Entrypoint   | 0x0211   |
| Data Size    | 19 bytes |
| Instructions | 5        |

```
      00 01 02 03 04 05 06 07  08 09 0A 0B 0C 0D 0E 0F
      -- -- -- -- -- -- -- --  -- -- -- -- -- -- -- --
0210:    29 08 56 20 0F 01 09  1D 1C 80 23 29 08 56 20   ).V ......#).V 
0220: 0F 01 0A 00                                       ....            
```

#### Opcodes

```
  0: 0x0211 [0x29] REQ_SET_WAIT(priority=0x08, entity_id=Yoran-Oran (ID: 17768534/0x010F2056), tag_num=0x09)
  1: 0x0218 [0x1D] PRINT_EVENT_MESSAGE(message_id=7864*)
    → "Quiet, both of you, or I'll collect-ethy on those debts you owe me!"
  2: 0x021B [0x23] WAIT_FOR_DIALOG_INTERACTION
  3: 0x021C [0x29] REQ_SET_WAIT(priority=0x08, entity_id=Yoran-Oran (ID: 17768534/0x010F2056), tag_num=0x0A)
  4: 0x0223 [0x00] END_REQSTACK()
```

### Event 65535.32

#### Metadata

| Field        | Value    |
|--------------|----------|
| Entrypoint   | 0x0224   |
| Data Size    | 19 bytes |
| Instructions | 5        |

```
      00 01 02 03 04 05 06 07  08 09 0A 0B 0C 0D 0E 0F
      -- -- -- -- -- -- -- --  -- -- -- -- -- -- -- --
0220:             29 08 56 20  0F 01 03 1D 1D 80 23 29      ).V ......#)
0230: 08 56 20 0F 01 04 00                              .V ....         
```

#### Opcodes

```
  0: 0x0224 [0x29] REQ_SET_WAIT(priority=0x08, entity_id=Yoran-Oran (ID: 17768534/0x010F2056), tag_num=0x03)
  1: 0x022B [0x1D] PRINT_EVENT_MESSAGE(message_id=7869*)
    → "... You know, she does have-ethy a point..."
  2: 0x022E [0x23] WAIT_FOR_DIALOG_INTERACTION
  3: 0x022F [0x29] REQ_SET_WAIT(priority=0x08, entity_id=Yoran-Oran (ID: 17768534/0x010F2056), tag_num=0x04)
  4: 0x0236 [0x00] END_REQSTACK()
```

### Event 65535.33

#### Metadata

| Field        | Value    |
|--------------|----------|
| Entrypoint   | 0x0237   |
| Data Size    | 19 bytes |
| Instructions | 5        |

```
      00 01 02 03 04 05 06 07  08 09 0A 0B 0C 0D 0E 0F
      -- -- -- -- -- -- -- --  -- -- -- -- -- -- -- --
0230:                      29  08 56 20 0F 01 05 1D 1E         ).V .....
0240: 80 23 29 08 56 20 0F 01  06 00                    .#).V ....      
```

#### Opcodes

```
  0: 0x0237 [0x29] REQ_SET_WAIT(priority=0x08, entity_id=Yoran-Oran (ID: 17768534/0x010F2056), tag_num=0x05)
  1: 0x023E [0x1D] PRINT_EVENT_MESSAGE(message_id=7870*)
    → "I'll have the Rhinostery send-ethy over a large shipment of Giddeus Water. Good day!"
  2: 0x0241 [0x23] WAIT_FOR_DIALOG_INTERACTION
  3: 0x0242 [0x29] REQ_SET_WAIT(priority=0x08, entity_id=Yoran-Oran (ID: 17768534/0x010F2056), tag_num=0x06)
  4: 0x0249 [0x00] END_REQSTACK()
```

### Event 65535.34

#### Metadata

| Field        | Value    |
|--------------|----------|
| Entrypoint   | 0x024A   |
| Data Size    | 14 bytes |
| Instructions | 4        |

```
      00 01 02 03 04 05 06 07  08 09 0A 0B 0C 0D 0E 0F
      -- -- -- -- -- -- -- --  -- -- -- -- -- -- -- --
0240:                                32 04 80 1F 00 0E            2.....
0250: 80 1F 80 20 80 1F 01 00                           ... ....        
```

#### Opcodes

```
  0: 0x024A [0x32] ExtData[1]->MainSpeed = 13* * 0.1
  1: 0x024D [0x1F] MOVE_ENTITY: EventEntity moves to X=0.000*, Z=21.801*, Y=30.749*
  2: 0x0255 [0x1F] MOVE_ENTITY: Update entity position (mode=1)
  3: 0x0257 [0x00] END_REQSTACK()
```

### Event 65535.35

#### Metadata

| Field        | Value    |
|--------------|----------|
| Entrypoint   | 0x0258   |
| Data Size    | 24 bytes |
| Instructions | 6        |

```
      00 01 02 03 04 05 06 07  08 09 0A 0B 0C 0D 0E 0F
      -- -- -- -- -- -- -- --  -- -- -- -- -- -- -- --
0250:                          32 04 80 1F 00 05 80 06          2.......
0260: 80 07 80 1F 01 1F 00 08  80 09 80 0A 80 1F 01 00  ................
```

#### Opcodes

```
  0: 0x0258 [0x32] ExtData[1]->MainSpeed = 13* * 0.1
  1: 0x025B [0x1F] MOVE_ENTITY: EventEntity moves to X=-23.441*, Z=20.998*, Y=28.499*
  2: 0x0263 [0x1F] MOVE_ENTITY: Update entity position (mode=1)
  3: 0x0265 [0x1F] MOVE_ENTITY: EventEntity moves to X=-20.567*, Z=23.711*, Y=29.249*
  4: 0x026D [0x1F] MOVE_ENTITY: Update entity position (mode=1)
  5: 0x026F [0x00] END_REQSTACK()
```

### Event 65535.36

#### Metadata

| Field        | Value    |
|--------------|----------|
| Entrypoint   | 0x0270   |
| Data Size    | 14 bytes |
| Instructions | 4        |

```
      00 01 02 03 04 05 06 07  08 09 0A 0B 0C 0D 0E 0F
      -- -- -- -- -- -- -- --  -- -- -- -- -- -- -- --
0270: 32 04 80 1F 00 0E 80 0F  80 10 80 1F 01 00        2.............  
```

#### Opcodes

```
  0: 0x0270 [0x32] ExtData[1]->MainSpeed = 13* * 0.1
  1: 0x0273 [0x1F] MOVE_ENTITY: EventEntity moves to X=0.000*, Z=19.545*, Y=30.000*
  2: 0x027B [0x1F] MOVE_ENTITY: Update entity position (mode=1)
  3: 0x027D [0x00] END_REQSTACK()
```

### Event 270

#### Metadata

| Field        | Value   |
|--------------|---------|
| Entrypoint   | 0x027E  |
| Data Size    | 1 bytes |
| Instructions | 1       |

```
      00 01 02 03 04 05 06 07  08 09 0A 0B 0C 0D 0E 0F
      -- -- -- -- -- -- -- --  -- -- -- -- -- -- -- --
0270:                                            00                   . 
```

#### Opcodes

```
  0: 0x027E [0x00] END_REQSTACK()
```

### Event 65535.37

#### Metadata

| Field        | Value   |
|--------------|---------|
| Entrypoint   | 0x027F  |
| Data Size    | 5 bytes |
| Instructions | 3       |

```
      00 01 02 03 04 05 06 07  08 09 0A 0B 0C 0D 0E 0F
      -- -- -- -- -- -- -- --  -- -- -- -- -- -- -- --
0270:                                               1D                 .
0280: 21 80 23 00                                       !.#.            
```

#### Opcodes

```
  0: 0x027F [0x1D] PRINT_EVENT_MESSAGE(message_id=7901*)
    → "I'm sorry to keep-ethy you waiting, Miss Chumimi. Now show-ethy us how my plan worked."
  1: 0x0282 [0x23] WAIT_FOR_DIALOG_INTERACTION
  2: 0x0283 [0x00] END_REQSTACK()
```

### Event 65535.38

#### Metadata

| Field        | Value   |
|--------------|---------|
| Entrypoint   | 0x0284  |
| Data Size    | 5 bytes |
| Instructions | 3       |

```
      00 01 02 03 04 05 06 07  08 09 0A 0B 0C 0D 0E 0F
      -- -- -- -- -- -- -- --  -- -- -- -- -- -- -- --
0280:             1D 22 80 23  00                           .".#.       
```

#### Opcodes

```
  0: 0x0284 [0x1D] PRINT_EVENT_MESSAGE(message_id=7906*)
    → "... I see. It's time we took-ethy this problem a little more seriously."
  1: 0x0287 [0x23] WAIT_FOR_DIALOG_INTERACTION
  2: 0x0288 [0x00] END_REQSTACK()
```

### Event 65535.39

#### Metadata

| Field        | Value    |
|--------------|----------|
| Entrypoint   | 0x0289   |
| Data Size    | 23 bytes |
| Instructions | 7        |

```
      00 01 02 03 04 05 06 07  08 09 0A 0B 0C 0D 0E 0F
      -- -- -- -- -- -- -- --  -- -- -- -- -- -- -- --
0280:                             1D 23 80 23 29 08 56           .#.#).V
0290: 20 0F 01 01 1D 24 80 23  29 08 56 20 0F 01 02 00   ....$.#).V ....
```

#### Opcodes

```
  0: 0x0289 [0x1D] PRINT_EVENT_MESSAGE(message_id=7910*)
    → "Chumimi, Chumimi... We scientists give-ethy a numerical rating to any problems brought before us."
  1: 0x028C [0x23] WAIT_FOR_DIALOG_INTERACTION
  2: 0x028D [0x29] REQ_SET_WAIT(priority=0x08, entity_id=Yoran-Oran (ID: 17768534/0x010F2056), tag_num=0x01)
  3: 0x0294 [0x1D] PRINT_EVENT_MESSAGE(message_id=7911*)
    → "Ranking the problem helps give-ethy us an idea of how much brainy-wainy power is needed to solve it. This prevents us from wasting any of our time."
  4: 0x0297 [0x23] WAIT_FOR_DIALOG_INTERACTION
  5: 0x0298 [0x29] REQ_SET_WAIT(priority=0x08, entity_id=Yoran-Oran (ID: 17768534/0x010F2056), tag_num=0x02)
  6: 0x029F [0x00] END_REQSTACK()
```

### Event 65535.40

#### Metadata

| Field        | Value   |
|--------------|---------|
| Entrypoint   | 0x02A0  |
| Data Size    | 5 bytes |
| Instructions | 3       |

```
      00 01 02 03 04 05 06 07  08 09 0A 0B 0C 0D 0E 0F
      -- -- -- -- -- -- -- --  -- -- -- -- -- -- -- --
02A0: 1D 25 80 23 00                                    .%.#.           
```

#### Opcodes

```
  0: 0x02A0 [0x1D] PRINT_EVENT_MESSAGE(message_id=7912*)
    → "Listen, you two. We underestimated this problem-ethy here before us. Let's re-rank-ethy and re-think-ethy our predicament."
  1: 0x02A3 [0x23] WAIT_FOR_DIALOG_INTERACTION
  2: 0x02A4 [0x00] END_REQSTACK()
```

### Event 65535.41

#### Metadata

| Field        | Value   |
|--------------|---------|
| Entrypoint   | 0x02A5  |
| Data Size    | 5 bytes |
| Instructions | 3       |

```
      00 01 02 03 04 05 06 07  08 09 0A 0B 0C 0D 0E 0F
      -- -- -- -- -- -- -- --  -- -- -- -- -- -- -- --
02A0:                1D 26 80  23 00                         .&.#.      
```

#### Opcodes

```
  0: 0x02A5 [0x1D] PRINT_EVENT_MESSAGE(message_id=7915*)
    → "Y-yes, well, let us examine-ethy this problem from the beginning. If nothing in the water, soil, or light has been changed, then we must focus-ethy on the moment that things began going wrong."
  1: 0x02A8 [0x23] WAIT_FOR_DIALOG_INTERACTION
  2: 0x02A9 [0x00] END_REQSTACK()
```

### Event 65535.42

#### Metadata

| Field        | Value   |
|--------------|---------|
| Entrypoint   | 0x02AA  |
| Data Size    | 5 bytes |
| Instructions | 3       |

```
      00 01 02 03 04 05 06 07  08 09 0A 0B 0C 0D 0E 0F
      -- -- -- -- -- -- -- --  -- -- -- -- -- -- -- --
02A0:                                1D 27 80 23 00               .'.#. 
```

#### Opcodes

```
  0: 0x02AA [0x1D] PRINT_EVENT_MESSAGE(message_id=7916*)
    → "There must-ethy be a logical cause for every effect. What we must-ethy determine is when the "effect" took-ethy place."
  1: 0x02AD [0x23] WAIT_FOR_DIALOG_INTERACTION
  2: 0x02AE [0x00] END_REQSTACK()
```

### Event 65535.43

#### Metadata

| Field        | Value    |
|--------------|----------|
| Entrypoint   | 0x02AF   |
| Data Size    | 19 bytes |
| Instructions | 5        |

```
      00 01 02 03 04 05 06 07  08 09 0A 0B 0C 0D 0E 0F
      -- -- -- -- -- -- -- --  -- -- -- -- -- -- -- --
02A0:                                               29                 )
02B0: 08 56 20 0F 01 01 1D 28  80 23 29 08 56 20 0F 01  .V ....(.#).V ..
02C0: 02 00                                             ..              
```

#### Opcodes

```
  0: 0x02AF [0x29] REQ_SET_WAIT(priority=0x08, entity_id=Yoran-Oran (ID: 17768534/0x010F2056), tag_num=0x01)
  1: 0x02B6 [0x1D] PRINT_EVENT_MESSAGE(message_id=7920*)
    → "Chumimi, approximately when did the star trees begin-ethy to wither-hither?"
  2: 0x02B9 [0x23] WAIT_FOR_DIALOG_INTERACTION
  3: 0x02BA [0x29] REQ_SET_WAIT(priority=0x08, entity_id=Yoran-Oran (ID: 17768534/0x010F2056), tag_num=0x02)
  4: 0x02C1 [0x00] END_REQSTACK()
```

### Event 65535.44

#### Metadata

| Field        | Value   |
|--------------|---------|
| Entrypoint   | 0x02C2  |
| Data Size    | 5 bytes |
| Instructions | 3       |

```
      00 01 02 03 04 05 06 07  08 09 0A 0B 0C 0D 0E 0F
      -- -- -- -- -- -- -- --  -- -- -- -- -- -- -- --
02C0:       1D 29 80 23 00                                .).#.         
```

#### Opcodes

```
  0: 0x02C2 [0x1D] PRINT_EVENT_MESSAGE(message_id=7922*)
    → "Twenty years... A lot can happen-ethy in twenty years, you know. Do you two have any ideas?"
  1: 0x02C5 [0x23] WAIT_FOR_DIALOG_INTERACTION
  2: 0x02C6 [0x00] END_REQSTACK()
```

### Event 65535.45

#### Metadata

| Field        | Value    |
|--------------|----------|
| Entrypoint   | 0x02C7   |
| Data Size    | 19 bytes |
| Instructions | 5        |

```
      00 01 02 03 04 05 06 07  08 09 0A 0B 0C 0D 0E 0F
      -- -- -- -- -- -- -- --  -- -- -- -- -- -- -- --
02C0:                      29  08 56 20 0F 01 01 1D 2A         ).V ....*
02D0: 80 23 29 08 56 20 0F 01  02 00                    .#).V ....      
```

#### Opcodes

```
  0: 0x02C7 [0x29] REQ_SET_WAIT(priority=0x08, entity_id=Yoran-Oran (ID: 17768534/0x010F2056), tag_num=0x01)
  1: 0x02CE [0x1D] PRINT_EVENT_MESSAGE(message_id=7945*)
    → "What is this you say-ethy, Professor? Do you have-ethy anything you'd like to share-ethy with us?"
  2: 0x02D1 [0x23] WAIT_FOR_DIALOG_INTERACTION
  3: 0x02D2 [0x29] REQ_SET_WAIT(priority=0x08, entity_id=Yoran-Oran (ID: 17768534/0x010F2056), tag_num=0x02)
  4: 0x02D9 [0x00] END_REQSTACK()
```

### Event 65535.46

#### Metadata

| Field        | Value   |
|--------------|---------|
| Entrypoint   | 0x02DA  |
| Data Size    | 5 bytes |
| Instructions | 3       |

```
      00 01 02 03 04 05 06 07  08 09 0A 0B 0C 0D 0E 0F
      -- -- -- -- -- -- -- --  -- -- -- -- -- -- -- --
02D0:                                1D 2B 80 23 00               .+.#. 
```

#### Opcodes

```
  0: 0x02DA [0x1D] PRINT_EVENT_MESSAGE(message_id=7948*)
    → "What is going on here?"
  1: 0x02DD [0x23] WAIT_FOR_DIALOG_INTERACTION
  2: 0x02DE [0x00] END_REQSTACK()
```

### Event 65535.47

#### Metadata

| Field        | Value    |
|--------------|----------|
| Entrypoint   | 0x02DF   |
| Data Size    | 19 bytes |
| Instructions | 5        |

```
      00 01 02 03 04 05 06 07  08 09 0A 0B 0C 0D 0E 0F
      -- -- -- -- -- -- -- --  -- -- -- -- -- -- -- --
02D0:                                               29                 )
02E0: 08 56 20 0F 01 03 1D 2C  80 23 29 08 56 20 0F 01  .V ....,.#).V ..
02F0: 04 00                                             ..              
```

#### Opcodes

```
  0: 0x02DF [0x29] REQ_SET_WAIT(priority=0x08, entity_id=Yoran-Oran (ID: 17768534/0x010F2056), tag_num=0x03)
  1: 0x02E6 [0x1D] PRINT_EVENT_MESSAGE(message_id=7950*)
    → "You have-ethy a point..."
  2: 0x02E9 [0x23] WAIT_FOR_DIALOG_INTERACTION
  3: 0x02EA [0x29] REQ_SET_WAIT(priority=0x08, entity_id=Yoran-Oran (ID: 17768534/0x010F2056), tag_num=0x04)
  4: 0x02F1 [0x00] END_REQSTACK()
```

### Event 271

#### Metadata

| Field        | Value   |
|--------------|---------|
| Entrypoint   | 0x02F2  |
| Data Size    | 1 bytes |
| Instructions | 1       |

```
      00 01 02 03 04 05 06 07  08 09 0A 0B 0C 0D 0E 0F
      -- -- -- -- -- -- -- --  -- -- -- -- -- -- -- --
02F0:       00                                            .             
```

#### Opcodes

```
  0: 0x02F2 [0x00] END_REQSTACK()
```

### Event 65535.48

#### Metadata

| Field        | Value    |
|--------------|----------|
| Entrypoint   | 0x02F3   |
| Data Size    | 21 bytes |
| Instructions | 7        |

```
      00 01 02 03 04 05 06 07  08 09 0A 0B 0C 0D 0E 0F
      -- -- -- -- -- -- -- --  -- -- -- -- -- -- -- --
02F0:          32 04 80 1F 00  2D 80 2E 80 10 80 1F 01     2....-.......
0300: 1E 53 20 0F 01 6F 70 00                           .S ..op.        
```

#### Opcodes

```
  0: 0x02F3 [0x32] ExtData[1]->MainSpeed = 13* * 0.1
  1: 0x02F6 [0x1F] MOVE_ENTITY: EventEntity moves to X=-1.000*, Z=22.400*, Y=30.000*
  2: 0x02FE [0x1F] MOVE_ENTITY: Update entity position (mode=1)
  3: 0x0300 [0x1E] EventEntity looks at Chumimi (ID: 17768531/0x010F2053) and starts talking
  4: 0x0305 [0x6F] WAIT_FRAME_DELAY: Yield until WaitTime reaches zero
  5: 0x0306 [0x70] WAIT_ENTITY_RENDER_FLAG: Wait while EventEntity->Render.Flags3 bit 2 is set (cancel turn if not)
  6: 0x0307 [0x00] END_REQSTACK()
```

### Event 65535.49

#### Metadata

| Field        | Value    |
|--------------|----------|
| Entrypoint   | 0x0308   |
| Data Size    | 21 bytes |
| Instructions | 7        |

```
      00 01 02 03 04 05 06 07  08 09 0A 0B 0C 0D 0E 0F
      -- -- -- -- -- -- -- --  -- -- -- -- -- -- -- --
0300:                          32 04 80 1F 00 2F 80 30          2..../.0
0310: 80 31 80 1F 01 1E F0 FF  FF 7F 6F 70 00           .1........op.   
```

#### Opcodes

```
  0: 0x0308 [0x32] ExtData[1]->MainSpeed = 13* * 0.1
  1: 0x030B [0x1F] MOVE_ENTITY: EventEntity moves to X=-4.206*, Z=23.443*, Y=30.499*
  2: 0x0313 [0x1F] MOVE_ENTITY: Update entity position (mode=1)
  3: 0x0315 [0x1E] EventEntity looks at LocalPlayer and starts talking
  4: 0x031A [0x6F] WAIT_FRAME_DELAY: Yield until WaitTime reaches zero
  5: 0x031B [0x70] WAIT_ENTITY_RENDER_FLAG: Wait while EventEntity->Render.Flags3 bit 2 is set (cancel turn if not)
  6: 0x031C [0x00] END_REQSTACK()
```

### Event 65535.50

#### Metadata

| Field        | Value    |
|--------------|----------|
| Entrypoint   | 0x031D   |
| Data Size    | 10 bytes |
| Instructions | 2        |

```
      00 01 02 03 04 05 06 07  08 09 0A 0B 0C 0D 0E 0F
      -- -- -- -- -- -- -- --  -- -- -- -- -- -- -- --
0310:                                         37 32 80               72.
0320: 33 80 10 80 34 80 00                              3...4..         
```

#### Opcodes

```
  0: 0x031D [0x37] UPDATE_EVENT_POSITION_AND_DIR: x=-10.120*, z=26.344*, y=30.000*, direction=25.8°*
  1: 0x0326 [0x00] END_REQSTACK()
```

### Event 65535.51

#### Metadata

| Field        | Value   |
|--------------|---------|
| Entrypoint   | 0x0327  |
| Data Size    | 5 bytes |
| Instructions | 3       |

```
      00 01 02 03 04 05 06 07  08 09 0A 0B 0C 0D 0E 0F
      -- -- -- -- -- -- -- --  -- -- -- -- -- -- -- --
0320:                      1D  35 80 23 00                     .5.#.    
```

#### Opcodes

```
  0: 0x0327 [0x1D] PRINT_EVENT_MESSAGE(message_id=7961*)
    → "I commend-ethy you on your efforts. We got the details from Koru-Moru while you were away."
  1: 0x032A [0x23] WAIT_FOR_DIALOG_INTERACTION
  2: 0x032B [0x00] END_REQSTACK()
```

### Event 65535.52

#### Metadata

| Field        | Value   |
|--------------|---------|
| Entrypoint   | 0x032C  |
| Data Size    | 5 bytes |
| Instructions | 3       |

```
      00 01 02 03 04 05 06 07  08 09 0A 0B 0C 0D 0E 0F
      -- -- -- -- -- -- -- --  -- -- -- -- -- -- -- --
0320:                                      1D 36 80 23              .6.#
0330: 00                                                .               
```

#### Opcodes

```
  0: 0x032C [0x1D] PRINT_EVENT_MESSAGE(message_id=7964*)
    → "Now let's put-ethy our heads together once more. Can either of you remember-ethy anything that might have caused the star trees to wither-hither?"
  1: 0x032F [0x23] WAIT_FOR_DIALOG_INTERACTION
  2: 0x0330 [0x00] END_REQSTACK()
```

### Event 65535.53

#### Metadata

| Field        | Value    |
|--------------|----------|
| Entrypoint   | 0x0331   |
| Data Size    | 19 bytes |
| Instructions | 5        |

```
      00 01 02 03 04 05 06 07  08 09 0A 0B 0C 0D 0E 0F
      -- -- -- -- -- -- -- --  -- -- -- -- -- -- -- --
0330:    29 08 56 20 0F 01 05  1D 37 80 23 29 08 56 20   ).V ....7.#).V 
0340: 0F 01 06 00                                       ....            
```

#### Opcodes

```
  0: 0x0331 [0x29] REQ_SET_WAIT(priority=0x08, entity_id=Yoran-Oran (ID: 17768534/0x010F2056), tag_num=0x05)
  1: 0x0338 [0x1D] PRINT_EVENT_MESSAGE(message_id=7996*)
    → "What? Did you remember-ethy something?"
  2: 0x033B [0x23] WAIT_FOR_DIALOG_INTERACTION
  3: 0x033C [0x29] REQ_SET_WAIT(priority=0x08, entity_id=Yoran-Oran (ID: 17768534/0x010F2056), tag_num=0x06)
  4: 0x0343 [0x00] END_REQSTACK()
```

### Event 65535.54

#### Metadata

| Field        | Value    |
|--------------|----------|
| Entrypoint   | 0x0344   |
| Data Size    | 19 bytes |
| Instructions | 5        |

```
      00 01 02 03 04 05 06 07  08 09 0A 0B 0C 0D 0E 0F
      -- -- -- -- -- -- -- --  -- -- -- -- -- -- -- --
0340:             29 08 56 20  0F 01 01 1D 38 80 23 29      ).V ....8.#)
0350: 08 56 20 0F 01 02 00                              .V ....         
```

#### Opcodes

```
  0: 0x0344 [0x29] REQ_SET_WAIT(priority=0x08, entity_id=Yoran-Oran (ID: 17768534/0x010F2056), tag_num=0x01)
  1: 0x034B [0x1D] PRINT_EVENT_MESSAGE(message_id=8000*)
    → "That is what our adventurer here is going to find-ethy out for us."
  2: 0x034E [0x23] WAIT_FOR_DIALOG_INTERACTION
  3: 0x034F [0x29] REQ_SET_WAIT(priority=0x08, entity_id=Yoran-Oran (ID: 17768534/0x010F2056), tag_num=0x02)
  4: 0x0356 [0x00] END_REQSTACK()
```

### Event 275

#### Metadata

| Field        | Value   |
|--------------|---------|
| Entrypoint   | 0x0357  |
| Data Size    | 1 bytes |
| Instructions | 1       |

```
      00 01 02 03 04 05 06 07  08 09 0A 0B 0C 0D 0E 0F
      -- -- -- -- -- -- -- --  -- -- -- -- -- -- -- --
0350:                      00                                  .        
```

#### Opcodes

```
  0: 0x0357 [0x00] END_REQSTACK()
```

### Event 65535.55

#### Metadata

| Field        | Value    |
|--------------|----------|
| Entrypoint   | 0x0358   |
| Data Size    | 43 bytes |
| Instructions | 9        |

```
      00 01 02 03 04 05 06 07  08 09 0A 0B 0C 0D 0E 0F
      -- -- -- -- -- -- -- --  -- -- -- -- -- -- -- --
0350:                          32 04 80 1F 00 39 80 3A          2....9.:
0360: 80 20 80 1F 01 4A 56 20  0F 01 F0 FF FF 7F 6F 76  . ...JV ......ov
0370: 56 20 0F 01 29 08 56 20  0F 01 11 29 08 56 20 0F  V ..).V ...).V .
0380: 01 12 00                                          ...             
```

#### Opcodes

```
  0: 0x0358 [0x32] ExtData[1]->MainSpeed = 13* * 0.1
  1: 0x035B [0x1F] MOVE_ENTITY: EventEntity moves to X=1.994*, Z=17.902*, Y=30.749*
  2: 0x0363 [0x1F] MOVE_ENTITY: Update entity position (mode=1)
  3: 0x0365 [0x4A] Yoran-Oran (ID: 17768534/0x010F2056) looks at LocalPlayer
  4: 0x036E [0x6F] WAIT_FRAME_DELAY: Yield until WaitTime reaches zero
  5: 0x036F [0x76] CHECK_ENTITY_RENDER_FLAGS: Wait until Yoran-Oran (ID: 17768534/0x010F2056) Render.Flags0 and Render.Flags3 conditions are met
  6: 0x0374 [0x29] REQ_SET_WAIT(priority=0x08, entity_id=Yoran-Oran (ID: 17768534/0x010F2056), tag_num=0x11)
  7: 0x037B [0x29] REQ_SET_WAIT(priority=0x08, entity_id=Yoran-Oran (ID: 17768534/0x010F2056), tag_num=0x12)
  8: 0x0382 [0x00] END_REQSTACK()
```

### Event 65535.56

#### Metadata

| Field        | Value    |
|--------------|----------|
| Entrypoint   | 0x0383   |
| Data Size    | 17 bytes |
| Instructions | 5        |

```
      00 01 02 03 04 05 06 07  08 09 0A 0B 0C 0D 0E 0F
      -- -- -- -- -- -- -- --  -- -- -- -- -- -- -- --
0380:          6E F8 FF FF 7F  3B 80 99 F8 FF FF 7F 1D     n....;.......
0390: 3C 80 23 00                                       <.#.            
```

#### Opcodes

```
  0: 0x0383 [0x6E] EventEntity uses emote 6*
  1: 0x038A [0x99] Wait for EventEntity animation to complete
  2: 0x038F [0x1D] PRINT_EVENT_MESSAGE(message_id=8008*)
    → "So this is what Doctor Shantotto thinks-ethy is causing all our problems..."
  3: 0x0392 [0x23] WAIT_FOR_DIALOG_INTERACTION
  4: 0x0393 [0x00] END_REQSTACK()
```

### Event 65535.57

#### Metadata

| Field        | Value    |
|--------------|----------|
| Entrypoint   | 0x0394   |
| Data Size    | 19 bytes |
| Instructions | 5        |

```
      00 01 02 03 04 05 06 07  08 09 0A 0B 0C 0D 0E 0F
      -- -- -- -- -- -- -- --  -- -- -- -- -- -- -- --
0390:             29 08 56 20  0F 01 01 1D 3D 80 23 29      ).V ....=.#)
03A0: 08 56 20 0F 01 02 00                              .V ....         
```

#### Opcodes

```
  0: 0x0394 [0x29] REQ_SET_WAIT(priority=0x08, entity_id=Yoran-Oran (ID: 17768534/0x010F2056), tag_num=0x01)
  1: 0x039B [0x1D] PRINT_EVENT_MESSAGE(message_id=8014*)
    → "You mean to tell-ethy me, you thought a curse from this doll was affecting the star trees? How unscientific-ethy!"
  2: 0x039E [0x23] WAIT_FOR_DIALOG_INTERACTION
  3: 0x039F [0x29] REQ_SET_WAIT(priority=0x08, entity_id=Yoran-Oran (ID: 17768534/0x010F2056), tag_num=0x02)
  4: 0x03A6 [0x00] END_REQSTACK()
```

### Event 65535.58

#### Metadata

| Field        | Value    |
|--------------|----------|
| Entrypoint   | 0x03A7   |
| Data Size    | 19 bytes |
| Instructions | 5        |

```
      00 01 02 03 04 05 06 07  08 09 0A 0B 0C 0D 0E 0F
      -- -- -- -- -- -- -- --  -- -- -- -- -- -- -- --
03A0:                      29  08 56 20 0F 01 03 1D 3E         ).V ....>
03B0: 80 23 29 08 56 20 0F 01  04 00                    .#).V ....      
```

#### Opcodes

```
  0: 0x03A7 [0x29] REQ_SET_WAIT(priority=0x08, entity_id=Yoran-Oran (ID: 17768534/0x010F2056), tag_num=0x03)
  1: 0x03AE [0x1D] PRINT_EVENT_MESSAGE(message_id=8015*)
    → "However, we cannot take-ethy any chances. This doll may know-ethy something we don't."
  2: 0x03B1 [0x23] WAIT_FOR_DIALOG_INTERACTION
  3: 0x03B2 [0x29] REQ_SET_WAIT(priority=0x08, entity_id=Yoran-Oran (ID: 17768534/0x010F2056), tag_num=0x04)
  4: 0x03B9 [0x00] END_REQSTACK()
```

### Event 65535.59

#### Metadata

| Field        | Value    |
|--------------|----------|
| Entrypoint   | 0x03BA   |
| Data Size    | 19 bytes |
| Instructions | 5        |

```
      00 01 02 03 04 05 06 07  08 09 0A 0B 0C 0D 0E 0F
      -- -- -- -- -- -- -- --  -- -- -- -- -- -- -- --
03B0:                                29 08 56 20 0F 01            ).V ..
03C0: 01 1D 3F 80 23 29 08 56  20 0F 01 02 00           ..?.#).V ....   
```

#### Opcodes

```
  0: 0x03BA [0x29] REQ_SET_WAIT(priority=0x08, entity_id=Yoran-Oran (ID: 17768534/0x010F2056), tag_num=0x01)
  1: 0x03C1 [0x1D] PRINT_EVENT_MESSAGE(message_id=8017*)
    → "Good work, Miss Chumimi. Now you can leave-ethy the rest to me."
  2: 0x03C4 [0x23] WAIT_FOR_DIALOG_INTERACTION
  3: 0x03C5 [0x29] REQ_SET_WAIT(priority=0x08, entity_id=Yoran-Oran (ID: 17768534/0x010F2056), tag_num=0x02)
  4: 0x03CC [0x00] END_REQSTACK()
```

### Event 65535.60

#### Metadata

| Field        | Value   |
|--------------|---------|
| Entrypoint   | 0x03CD  |
| Data Size    | 5 bytes |
| Instructions | 3       |

```
      00 01 02 03 04 05 06 07  08 09 0A 0B 0C 0D 0E 0F
      -- -- -- -- -- -- -- --  -- -- -- -- -- -- -- --
03C0:                                         1D 40 80               .@.
03D0: 23 00                                             #.              
```

#### Opcodes

```
  0: 0x03CD [0x1D] PRINT_EVENT_MESSAGE(message_id=8018*)
    → "Oh, and our adventurer. I commend-ethy you on your work as well. As a measure of our gratitude, please accept-ethy this."
  1: 0x03D0 [0x23] WAIT_FOR_DIALOG_INTERACTION
  2: 0x03D1 [0x00] END_REQSTACK()
```

### Event 276

#### Metadata

| Field        | Value   |
|--------------|---------|
| Entrypoint   | 0x03D2  |
| Data Size    | 1 bytes |
| Instructions | 1       |

```
      00 01 02 03 04 05 06 07  08 09 0A 0B 0C 0D 0E 0F
      -- -- -- -- -- -- -- --  -- -- -- -- -- -- -- --
03D0:       00                                            .             
```

#### Opcodes

```
  0: 0x03D2 [0x00] END_REQSTACK()
```

### Event 65535.61

#### Metadata

| Field        | Value    |
|--------------|----------|
| Entrypoint   | 0x03D3   |
| Data Size    | 14 bytes |
| Instructions | 4        |

```
      00 01 02 03 04 05 06 07  08 09 0A 0B 0C 0D 0E 0F
      -- -- -- -- -- -- -- --  -- -- -- -- -- -- -- --
03D0:          32 04 80 1F 00  41 80 42 80 20 80 1F 01     2....A.B. ...
03E0: 00                                                .               
```

#### Opcodes

```
  0: 0x03D3 [0x32] ExtData[1]->MainSpeed = 13* * 0.1
  1: 0x03D6 [0x1F] MOVE_ENTITY: EventEntity moves to X=0.800*, Z=18.703*, Y=30.749*
  2: 0x03DE [0x1F] MOVE_ENTITY: Update entity position (mode=1)
  3: 0x03E0 [0x00] END_REQSTACK()
```

### Event 65535.62

#### Metadata

| Field        | Value    |
|--------------|----------|
| Entrypoint   | 0x03E1   |
| Data Size    | 28 bytes |
| Instructions | 6        |

```
      00 01 02 03 04 05 06 07  08 09 0A 0B 0C 0D 0E 0F
      -- -- -- -- -- -- -- --  -- -- -- -- -- -- -- --
03E0:    1C 01 80 4A 55 20 0F  01 53 20 0F 01 1C 01 80   ...JU ..S .....
03F0: 4A 56 20 0F 01 53 20 0F  01 1C 01 80 00           JV ..S ......   
```

#### Opcodes

```
  0: 0x03E1 [0x1C] WAIT(30* ticks)
  1: 0x03E4 [0x4A] Shantotto (ID: 17768533/0x010F2055) looks at Chumimi (ID: 17768531/0x010F2053)
  2: 0x03ED [0x1C] WAIT(30* ticks)
  3: 0x03F0 [0x4A] Yoran-Oran (ID: 17768534/0x010F2056) looks at Chumimi (ID: 17768531/0x010F2053)
  4: 0x03F9 [0x1C] WAIT(30* ticks)
  5: 0x03FC [0x00] END_REQSTACK()
```

### Event 65535.63

#### Metadata

| Field        | Value   |
|--------------|---------|
| Entrypoint   | 0x03FD  |
| Data Size    | 4 bytes |
| Instructions | 2       |

```
      00 01 02 03 04 05 06 07  08 09 0A 0B 0C 0D 0E 0F
      -- -- -- -- -- -- -- --  -- -- -- -- -- -- -- --
03F0:                                         1C 43 80               .C.
0400: 00                                                .               
```

#### Opcodes

```
  0: 0x03FD [0x1C] WAIT(60* ticks)
  1: 0x0400 [0x00] END_REQSTACK()
```

### Event 65535.64

#### Metadata

| Field        | Value    |
|--------------|----------|
| Entrypoint   | 0x0401   |
| Data Size    | 23 bytes |
| Instructions | 7        |

```
      00 01 02 03 04 05 06 07  08 09 0A 0B 0C 0D 0E 0F
      -- -- -- -- -- -- -- --  -- -- -- -- -- -- -- --
0400:    29 08 56 20 0F 01 01  1D 44 80 23 1D 45 80 23   ).V ....D.#.E.#
0410: 29 08 56 20 0F 01 02 00                           ).V ....        
```

#### Opcodes

```
  0: 0x0401 [0x29] REQ_SET_WAIT(priority=0x08, entity_id=Yoran-Oran (ID: 17768534/0x010F2056), tag_num=0x01)
  1: 0x0408 [0x1D] PRINT_EVENT_MESSAGE(message_id=8025*)
    → "First, let me assure-ethy you that some crazy-wazy curse is definitely not the cause-ethy of the star trees' problem."
  2: 0x040B [0x23] WAIT_FOR_DIALOG_INTERACTION
  3: 0x040C [0x1D] PRINT_EVENT_MESSAGE(message_id=8026*)
    → "And it is most certainly not anger pent-ethy up by the star trees for acts of stupidity-ethy taken by our colleague, Koru-Moru."
  4: 0x040F [0x23] WAIT_FOR_DIALOG_INTERACTION
  5: 0x0410 [0x29] REQ_SET_WAIT(priority=0x08, entity_id=Yoran-Oran (ID: 17768534/0x010F2056), tag_num=0x02)
  6: 0x0417 [0x00] END_REQSTACK()
```

### Event 65535.65

#### Metadata

| Field        | Value    |
|--------------|----------|
| Entrypoint   | 0x0418   |
| Data Size    | 19 bytes |
| Instructions | 5        |

```
      00 01 02 03 04 05 06 07  08 09 0A 0B 0C 0D 0E 0F
      -- -- -- -- -- -- -- --  -- -- -- -- -- -- -- --
0410:                          29 08 56 20 0F 01 0B 1D          ).V ....
0420: 46 80 23 29 08 56 20 0F  01 0C 00                 F.#).V ....     
```

#### Opcodes

```
  0: 0x0418 [0x29] REQ_SET_WAIT(priority=0x08, entity_id=Yoran-Oran (ID: 17768534/0x010F2056), tag_num=0x0B)
  1: 0x041F [0x1D] PRINT_EVENT_MESSAGE(message_id=8028*)
    → "Coming to these conclusions, we have decided-ethy on putting forth all our effort into solving the problem."
  2: 0x0422 [0x23] WAIT_FOR_DIALOG_INTERACTION
  3: 0x0423 [0x29] REQ_SET_WAIT(priority=0x08, entity_id=Yoran-Oran (ID: 17768534/0x010F2056), tag_num=0x0C)
  4: 0x042A [0x00] END_REQSTACK()
```

### Event 65535.66

#### Metadata

| Field        | Value   |
|--------------|---------|
| Entrypoint   | 0x042B  |
| Data Size    | 5 bytes |
| Instructions | 3       |

```
      00 01 02 03 04 05 06 07  08 09 0A 0B 0C 0D 0E 0F
      -- -- -- -- -- -- -- --  -- -- -- -- -- -- -- --
0420:                                   1D 47 80 23 00             .G.#.
```

#### Opcodes

```
  0: 0x042B [0x1D] PRINT_EVENT_MESSAGE(message_id=8030*)
    → "Chumimi, Chumimi. The road one travels does-ethy not matter. What is important is the destination you reach-ethy."
  1: 0x042E [0x23] WAIT_FOR_DIALOG_INTERACTION
  2: 0x042F [0x00] END_REQSTACK()
```

### Event 65535.67

#### Metadata

| Field        | Value    |
|--------------|----------|
| Entrypoint   | 0x0430   |
| Data Size    | 27 bytes |
| Instructions | 7        |

```
      00 01 02 03 04 05 06 07  08 09 0A 0B 0C 0D 0E 0F
      -- -- -- -- -- -- -- --  -- -- -- -- -- -- -- --
0430: 6E F8 FF FF 7F 48 80 99  F8 FF FF 7F 1C 01 80 29  n....H.........)
0440: 08 56 20 0F 01 01 1D 49  80 23 00                 .V ....I.#.     
```

#### Opcodes

```
  0: 0x0430 [0x6E] EventEntity uses emote 7*
  1: 0x0437 [0x99] Wait for EventEntity animation to complete
  2: 0x043C [0x1C] WAIT(30* ticks)
  3: 0x043F [0x29] REQ_SET_WAIT(priority=0x08, entity_id=Yoran-Oran (ID: 17768534/0x010F2056), tag_num=0x01)
  4: 0x0446 [0x1D] PRINT_EVENT_MESSAGE(message_id=8035*)
    → "The baby star trees sprout-ethy from starseeds taken from the Great Star Tree. We feel-ethy that the lack of magical energy-ethy in the Great Star Tree is causing problems in these seeds."
  5: 0x0449 [0x23] WAIT_FOR_DIALOG_INTERACTION
  6: 0x044A [0x00] END_REQSTACK()
```

### Event 65535.68

#### Metadata

| Field        | Value    |
|--------------|----------|
| Entrypoint   | 0x044B   |
| Data Size    | 28 bytes |
| Instructions | 8        |

```
      00 01 02 03 04 05 06 07  08 09 0A 0B 0C 0D 0E 0F
      -- -- -- -- -- -- -- --  -- -- -- -- -- -- -- --
0440:                                   6E F8 FF FF 7F             n....
0450: 48 80 99 F8 FF FF 7F 1D  4A 80 23 1D 4B 80 23 29  H.......J.#.K.#)
0460: 08 56 20 0F 01 02 00                              .V ....         
```

#### Opcodes

```
  0: 0x044B [0x6E] EventEntity uses emote 7*
  1: 0x0452 [0x99] Wait for EventEntity animation to complete
  2: 0x0457 [0x1D] PRINT_EVENT_MESSAGE(message_id=8036*)
    → "On the outside, the Great Star Tree looks as it has for the past-ethy few centuries, but reports from our researchers tell-ethy us that it has begun to slowly rotaru from the inside."
  3: 0x045A [0x23] WAIT_FOR_DIALOG_INTERACTION
  4: 0x045B [0x1D] PRINT_EVENT_MESSAGE(message_id=8037*)
    → "Up until now, we have left-ethy this grave problem in the hands of our younger colleagues. However, now it is time-ethy that we professors take-ethy control."
  5: 0x045E [0x23] WAIT_FOR_DIALOG_INTERACTION
  6: 0x045F [0x29] REQ_SET_WAIT(priority=0x08, entity_id=Yoran-Oran (ID: 17768534/0x010F2056), tag_num=0x02)
  7: 0x0466 [0x00] END_REQSTACK()
```

### Event 65535.69

#### Metadata

| Field        | Value    |
|--------------|----------|
| Entrypoint   | 0x0467   |
| Data Size    | 19 bytes |
| Instructions | 5        |

```
      00 01 02 03 04 05 06 07  08 09 0A 0B 0C 0D 0E 0F
      -- -- -- -- -- -- -- --  -- -- -- -- -- -- -- --
0460:                      29  08 56 20 0F 01 0D 1D 4C         ).V ....L
0470: 80 23 29 08 56 20 0F 01  0E 00                    .#).V ....      
```

#### Opcodes

```
  0: 0x0467 [0x29] REQ_SET_WAIT(priority=0x08, entity_id=Yoran-Oran (ID: 17768534/0x010F2056), tag_num=0x0D)
  1: 0x046E [0x1D] PRINT_EVENT_MESSAGE(message_id=8039*)
    → "Ahem! The road to truth-ethy is often a windy-mindy one, is it not, Chumimi?"
  2: 0x0471 [0x23] WAIT_FOR_DIALOG_INTERACTION
  3: 0x0472 [0x29] REQ_SET_WAIT(priority=0x08, entity_id=Yoran-Oran (ID: 17768534/0x010F2056), tag_num=0x0E)
  4: 0x0479 [0x00] END_REQSTACK()
```

### Event 65535.70

#### Metadata

| Field        | Value   |
|--------------|---------|
| Entrypoint   | 0x047A  |
| Data Size    | 5 bytes |
| Instructions | 3       |

```
      00 01 02 03 04 05 06 07  08 09 0A 0B 0C 0D 0E 0F
      -- -- -- -- -- -- -- --  -- -- -- -- -- -- -- --
0470:                                1D 4D 80 23 00               .M.#. 
```

#### Opcodes

```
  0: 0x047A [0x1D] PRINT_EVENT_MESSAGE(message_id=8041*)
    → "The Rhinostery-ethy has worked in cooperation with Heavens Tower to conduct-ethy various research on the Great Star Tree. However, there has been only so much they could do."
  1: 0x047D [0x23] WAIT_FOR_DIALOG_INTERACTION
  2: 0x047E [0x00] END_REQSTACK()
```

### Event 65535.71

#### Metadata

| Field        | Value   |
|--------------|---------|
| Entrypoint   | 0x047F  |
| Data Size    | 5 bytes |
| Instructions | 3       |

```
      00 01 02 03 04 05 06 07  08 09 0A 0B 0C 0D 0E 0F
      -- -- -- -- -- -- -- --  -- -- -- -- -- -- -- --
0470:                                               1D                 .
0480: 4E 80 23 00                                       N.#.            
```

#### Opcodes

```
  0: 0x047F [0x1D] PRINT_EVENT_MESSAGE(message_id=8042*)
    → "As the next phase of our plan, we would like to travel-ethy deep beneath the Great Star Tree and see if we can get to the roots of this problem, so to speak-ethy."
  1: 0x0482 [0x23] WAIT_FOR_DIALOG_INTERACTION
  2: 0x0483 [0x00] END_REQSTACK()
```

### Event 65535.72

#### Metadata

| Field        | Value   |
|--------------|---------|
| Entrypoint   | 0x0484  |
| Data Size    | 5 bytes |
| Instructions | 3       |

```
      00 01 02 03 04 05 06 07  08 09 0A 0B 0C 0D 0E 0F
      -- -- -- -- -- -- -- --  -- -- -- -- -- -- -- --
0480:             1D 4F 80 23  00                           .O.#.       
```

#### Opcodes

```
  0: 0x0484 [0x1D] PRINT_EVENT_MESSAGE(message_id=8048*)
    → "Hmmm, you have-ethy a point. Doctor Shantotto, we couldn't get you to go down there with our adventurer, could-ethy we?"
  1: 0x0487 [0x23] WAIT_FOR_DIALOG_INTERACTION
  2: 0x0488 [0x00] END_REQSTACK()
```

### Event 65535.73

#### Metadata

| Field        | Value    |
|--------------|----------|
| Entrypoint   | 0x0489   |
| Data Size    | 19 bytes |
| Instructions | 5        |

```
      00 01 02 03 04 05 06 07  08 09 0A 0B 0C 0D 0E 0F
      -- -- -- -- -- -- -- --  -- -- -- -- -- -- -- --
0480:                             29 08 56 20 0F 01 07           ).V ...
0490: 1D 50 80 23 29 08 56 20  0F 01 08 00              .P.#).V ....    
```

#### Opcodes

```
  0: 0x0489 [0x29] REQ_SET_WAIT(priority=0x08, entity_id=Yoran-Oran (ID: 17768534/0x010F2056), tag_num=0x07)
  1: 0x0490 [0x1D] PRINT_EVENT_MESSAGE(message_id=8050*)
    → "You don't mean-ethy Karaha-Baruha's laboratory, do you? I wouldn't advise-ethy on mixing business and pleasure at a time like this."
  2: 0x0493 [0x23] WAIT_FOR_DIALOG_INTERACTION
  3: 0x0494 [0x29] REQ_SET_WAIT(priority=0x08, entity_id=Yoran-Oran (ID: 17768534/0x010F2056), tag_num=0x08)
  4: 0x049B [0x00] END_REQSTACK()
```

### Event 65535.74

#### Metadata

| Field        | Value   |
|--------------|---------|
| Entrypoint   | 0x049C  |
| Data Size    | 5 bytes |
| Instructions | 3       |

```
      00 01 02 03 04 05 06 07  08 09 0A 0B 0C 0D 0E 0F
      -- -- -- -- -- -- -- --  -- -- -- -- -- -- -- --
0490:                                      1D 51 80 23              .Q.#
04A0: 00                                                .               
```

#### Opcodes

```
  0: 0x049C [0x1D] PRINT_EVENT_MESSAGE(message_id=8053*)
    → "If you think that I'm going to take-ethy any more part in these games you're playing..."
  1: 0x049F [0x23] WAIT_FOR_DIALOG_INTERACTION
  2: 0x04A0 [0x00] END_REQSTACK()
```

### Event 65535.75

#### Metadata

| Field        | Value   |
|--------------|---------|
| Entrypoint   | 0x04A1  |
| Data Size    | 5 bytes |
| Instructions | 3       |

```
      00 01 02 03 04 05 06 07  08 09 0A 0B 0C 0D 0E 0F
      -- -- -- -- -- -- -- --  -- -- -- -- -- -- -- --
04A0:    1D 52 80 23 00                                  .R.#.          
```

#### Opcodes

```
  0: 0x04A1 [0x1D] PRINT_EVENT_MESSAGE(message_id=8055*)
    → "Oh!"
  1: 0x04A4 [0x23] WAIT_FOR_DIALOG_INTERACTION
  2: 0x04A5 [0x00] END_REQSTACK()
```

### Event 279

#### Metadata

| Field        | Value   |
|--------------|---------|
| Entrypoint   | 0x04A6  |
| Data Size    | 1 bytes |
| Instructions | 1       |

```
      00 01 02 03 04 05 06 07  08 09 0A 0B 0C 0D 0E 0F
      -- -- -- -- -- -- -- --  -- -- -- -- -- -- -- --
04A0:                   00                                    .         
```

#### Opcodes

```
  0: 0x04A6 [0x00] END_REQSTACK()
```

### Event 65535.76

#### Metadata

| Field        | Value   |
|--------------|---------|
| Entrypoint   | 0x04A7  |
| Data Size    | 5 bytes |
| Instructions | 3       |

```
      00 01 02 03 04 05 06 07  08 09 0A 0B 0C 0D 0E 0F
      -- -- -- -- -- -- -- --  -- -- -- -- -- -- -- --
04A0:                      1D  53 80 23 00                     .S.#.    
```

#### Opcodes

```
  0: 0x04A7 [0x1D] PRINT_EVENT_MESSAGE(message_id=8067*)
    → "We are all ready to go, go, go."
  1: 0x04AA [0x23] WAIT_FOR_DIALOG_INTERACTION
  2: 0x04AB [0x00] END_REQSTACK()
```

### Event 65535.77

#### Metadata

| Field        | Value    |
|--------------|----------|
| Entrypoint   | 0x04AC   |
| Data Size    | 19 bytes |
| Instructions | 5        |

```
      00 01 02 03 04 05 06 07  08 09 0A 0B 0C 0D 0E 0F
      -- -- -- -- -- -- -- --  -- -- -- -- -- -- -- --
04A0:                                      29 08 56 20              ).V 
04B0: 0F 01 01 1D 54 80 23 29  08 56 20 0F 01 02 00     ....T.#).V .... 
```

#### Opcodes

```
  0: 0x04AC [0x29] REQ_SET_WAIT(priority=0x08, entity_id=Yoran-Oran (ID: 17768534/0x010F2056), tag_num=0x01)
  1: 0x04B3 [0x1D] PRINT_EVENT_MESSAGE(message_id=8069*)
    → "Wonderful, Professor. At times you surprise-ethy us."
  2: 0x04B6 [0x23] WAIT_FOR_DIALOG_INTERACTION
  3: 0x04B7 [0x29] REQ_SET_WAIT(priority=0x08, entity_id=Yoran-Oran (ID: 17768534/0x010F2056), tag_num=0x02)
  4: 0x04BE [0x00] END_REQSTACK()
```

### Event 281

#### Metadata

| Field        | Value   |
|--------------|---------|
| Entrypoint   | 0x04BF  |
| Data Size    | 1 bytes |
| Instructions | 1       |

```
      00 01 02 03 04 05 06 07  08 09 0A 0B 0C 0D 0E 0F
      -- -- -- -- -- -- -- --  -- -- -- -- -- -- -- --
04B0:                                               00                 .
```

#### Opcodes

```
  0: 0x04BF [0x00] END_REQSTACK()
```

### Event 65535.78

#### Metadata

| Field        | Value   |
|--------------|---------|
| Entrypoint   | 0x04C0  |
| Data Size    | 5 bytes |
| Instructions | 3       |

```
      00 01 02 03 04 05 06 07  08 09 0A 0B 0C 0D 0E 0F
      -- -- -- -- -- -- -- --  -- -- -- -- -- -- -- --
04C0: 1D 55 80 23 00                                    .U.#.           
```

#### Opcodes

```
  0: 0x04C0 [0x1D] PRINT_EVENT_MESSAGE(message_id=8075*)
    → "Hmmm...I see. Magic stagnation in the Toraimarai Canal... It does make-ethy sense."
  1: 0x04C3 [0x23] WAIT_FOR_DIALOG_INTERACTION
  2: 0x04C4 [0x00] END_REQSTACK()
```

### Event 65535.79

#### Metadata

| Field        | Value    |
|--------------|----------|
| Entrypoint   | 0x04C5   |
| Data Size    | 19 bytes |
| Instructions | 5        |

```
      00 01 02 03 04 05 06 07  08 09 0A 0B 0C 0D 0E 0F
      -- -- -- -- -- -- -- --  -- -- -- -- -- -- -- --
04C0:                29 08 56  20 0F 01 05 1D 56 80 23       ).V ....V.#
04D0: 29 08 56 20 0F 01 06 00                           ).V ....        
```

#### Opcodes

```
  0: 0x04C5 [0x29] REQ_SET_WAIT(priority=0x08, entity_id=Yoran-Oran (ID: 17768534/0x010F2056), tag_num=0x05)
  1: 0x04CC [0x1D] PRINT_EVENT_MESSAGE(message_id=8076*)
    → "It has been-ethy years since the magic towers in Sarutabaruta have operated. This must-ethy be what is affecting the flow of magic in the canal."
  2: 0x04CF [0x23] WAIT_FOR_DIALOG_INTERACTION
  3: 0x04D0 [0x29] REQ_SET_WAIT(priority=0x08, entity_id=Yoran-Oran (ID: 17768534/0x010F2056), tag_num=0x06)
  4: 0x04D7 [0x00] END_REQSTACK()
```

### Event 65535.80

#### Metadata

| Field        | Value   |
|--------------|---------|
| Entrypoint   | 0x04D8  |
| Data Size    | 5 bytes |
| Instructions | 3       |

```
      00 01 02 03 04 05 06 07  08 09 0A 0B 0C 0D 0E 0F
      -- -- -- -- -- -- -- --  -- -- -- -- -- -- -- --
04D0:                          1D 57 80 23 00                   .W.#.   
```

#### Opcodes

```
  0: 0x04D8 [0x1D] PRINT_EVENT_MESSAGE(message_id=8077*)
    → "However, if our adventurer has succeeded in cleaning up-ethy some of this stagnation, then things should get-ethy better-batter for the time being."
  1: 0x04DB [0x23] WAIT_FOR_DIALOG_INTERACTION
  2: 0x04DC [0x00] END_REQSTACK()
```

### Event 65535.81

#### Metadata

| Field        | Value    |
|--------------|----------|
| Entrypoint   | 0x04DD   |
| Data Size    | 19 bytes |
| Instructions | 5        |

```
      00 01 02 03 04 05 06 07  08 09 0A 0B 0C 0D 0E 0F
      -- -- -- -- -- -- -- --  -- -- -- -- -- -- -- --
04D0:                                         29 08 56               ).V
04E0: 20 0F 01 01 1D 58 80 23  29 08 56 20 0F 01 02 00   ....X.#).V ....
```

#### Opcodes

```
  0: 0x04DD [0x29] REQ_SET_WAIT(priority=0x08, entity_id=Yoran-Oran (ID: 17768534/0x010F2056), tag_num=0x01)
  1: 0x04E4 [0x1D] PRINT_EVENT_MESSAGE(message_id=8079*)
    → "However, now we will have-ethy to arrange a regular cleaning of this stagnation to prevent-ethy our problem from getting any worse."
  2: 0x04E7 [0x23] WAIT_FOR_DIALOG_INTERACTION
  3: 0x04E8 [0x29] REQ_SET_WAIT(priority=0x08, entity_id=Yoran-Oran (ID: 17768534/0x010F2056), tag_num=0x02)
  4: 0x04EF [0x00] END_REQSTACK()
```

### Event 65535.82

#### Metadata

| Field        | Value    |
|--------------|----------|
| Entrypoint   | 0x04F0   |
| Data Size    | 19 bytes |
| Instructions | 5        |

```
      00 01 02 03 04 05 06 07  08 09 0A 0B 0C 0D 0E 0F
      -- -- -- -- -- -- -- --  -- -- -- -- -- -- -- --
04F0: 29 08 56 20 0F 01 07 1D  59 80 23 29 08 56 20 0F  ).V ....Y.#).V .
0500: 01 08 00                                          ...             
```

#### Opcodes

```
  0: 0x04F0 [0x29] REQ_SET_WAIT(priority=0x08, entity_id=Yoran-Oran (ID: 17768534/0x010F2056), tag_num=0x07)
  1: 0x04F7 [0x1D] PRINT_EVENT_MESSAGE(message_id=8084*)
    → "Yes, yes, it could mean-ethy anything...but where is Doctor Shantotto? She didn't go to..."
  2: 0x04FA [0x23] WAIT_FOR_DIALOG_INTERACTION
  3: 0x04FB [0x29] REQ_SET_WAIT(priority=0x08, entity_id=Yoran-Oran (ID: 17768534/0x010F2056), tag_num=0x08)
  4: 0x0502 [0x00] END_REQSTACK()
```

### Event 65535.83

#### Metadata

| Field        | Value   |
|--------------|---------|
| Entrypoint   | 0x0503  |
| Data Size    | 9 bytes |
| Instructions | 5       |

```
      00 01 02 03 04 05 06 07  08 09 0A 0B 0C 0D 0E 0F
      -- -- -- -- -- -- -- --  -- -- -- -- -- -- -- --
0500:          1D 5A 80 23 1D  5B 80 23 00                 .Z.#.[.#.    
```

#### Opcodes

```
  0: 0x0503 [0x1D] PRINT_EVENT_MESSAGE(message_id=8086*)
    → "Doctor! You didn't travel-ethy to Karaha-Baruha's laboratory, did you?"
  1: 0x0506 [0x23] WAIT_FOR_DIALOG_INTERACTION
  2: 0x0507 [0x1D] PRINT_EVENT_MESSAGE(message_id=8087*)
    → "And after I warned you not to..."
  3: 0x050A [0x23] WAIT_FOR_DIALOG_INTERACTION
  4: 0x050B [0x00] END_REQSTACK()
```

### Event 65535.84

#### Metadata

| Field        | Value   |
|--------------|---------|
| Entrypoint   | 0x050C  |
| Data Size    | 5 bytes |
| Instructions | 3       |

```
      00 01 02 03 04 05 06 07  08 09 0A 0B 0C 0D 0E 0F
      -- -- -- -- -- -- -- --  -- -- -- -- -- -- -- --
0500:                                      1D 5C 80 23              .\.#
0510: 00                                                .               
```

#### Opcodes

```
  0: 0x050C [0x1D] PRINT_EVENT_MESSAGE(message_id=8089*)
    → "... That is just-ethy terrible..."
  1: 0x050F [0x23] WAIT_FOR_DIALOG_INTERACTION
  2: 0x0510 [0x00] END_REQSTACK()
```

### Event 430

#### Metadata

| Field        | Value   |
|--------------|---------|
| Entrypoint   | 0x0511  |
| Data Size    | 1 bytes |
| Instructions | 1       |

```
      00 01 02 03 04 05 06 07  08 09 0A 0B 0C 0D 0E 0F
      -- -- -- -- -- -- -- --  -- -- -- -- -- -- -- --
0510:    00                                              .              
```

#### Opcodes

```
  0: 0x0511 [0x00] END_REQSTACK()
```
