# 17768459

## Common Data

| Field            | Value                   |
|------------------|-------------------------|
| Zone             | Heavens Tower (ID: 242) |
| Block Size       | 584 bytes               |
| Total Events     | 10                      |
| References Count | 14                      |

## List of Events

| Event ID                 | Entrypoint   |   Size |   Instructions |
|--------------------------|--------------|--------|----------------|
| [65535](#event-65535)    | 0x0000       |      1 |              1 |
| [6](#event-6)            | 0x0001       |      1 |              1 |
| [107](#event-107)        | 0x0002       |      1 |              1 |
| [65535.1](#event-655351) | 0x0003       |     12 |              3 |
| [362](#event-362)        | 0x000F       |      1 |              1 |
| [65535.2](#event-655352) | 0x0010       |     73 |              7 |
| [65535.3](#event-655353) | 0x0059       |     73 |              7 |
| [65535.4](#event-655354) | 0x00A2       |     41 |              5 |
| [65535.5](#event-655355) | 0x00CB       |     90 |              8 |
| [65535.6](#event-655356) | 0x0125       |    179 |             15 |

## DAT References (imed_data)

|   Index | Hex Value   |   Dec Value |
|---------|-------------|-------------|
|       0 | 0xFFFFEB57  |  4294962007 |
|       1 | 0xC301      |       49921 |
|       2 | 0xFFFF11B9  |  4294906297 |
|       3 | 0x027C      |         636 |
|       4 | 0x0046      |          70 |
|       5 | 0x0000      |           0 |
|       6 | 0x008C      |         140 |
|       7 | 0x00C8      |         200 |
|       8 | 0x0064      |         100 |
|       9 | 0x003C      |          60 |
|      10 | 0x012C      |         300 |
|      11 | 0x00C9      |         201 |
|      12 | 0x0096      |         150 |
|      13 | 0x00E2      |         226 |

## Events

### Event 65535

#### Metadata

| Field        | Value   |
|--------------|---------|
| Entrypoint   | 0x0000  |
| Data Size    | 1 bytes |
| Instructions | 1       |

```
      00 01 02 03 04 05 06 07  08 09 0A 0B 0C 0D 0E 0F
      -- -- -- -- -- -- -- --  -- -- -- -- -- -- -- --
0000: 00                                                .               
```

#### Opcodes

```
  0: 0x0000 [0x00] END_REQSTACK()
```

### Event 6

#### Metadata

| Field        | Value   |
|--------------|---------|
| Entrypoint   | 0x0001  |
| Data Size    | 1 bytes |
| Instructions | 1       |

```
      00 01 02 03 04 05 06 07  08 09 0A 0B 0C 0D 0E 0F
      -- -- -- -- -- -- -- --  -- -- -- -- -- -- -- --
0000:    00                                              .              
```

#### Opcodes

```
  0: 0x0001 [0x00] END_REQSTACK()
```

### Event 107

#### Metadata

| Field        | Value   |
|--------------|---------|
| Entrypoint   | 0x0002  |
| Data Size    | 1 bytes |
| Instructions | 1       |

```
      00 01 02 03 04 05 06 07  08 09 0A 0B 0C 0D 0E 0F
      -- -- -- -- -- -- -- --  -- -- -- -- -- -- -- --
0000:       00                                            .             
```

#### Opcodes

```
  0: 0x0002 [0x00] END_REQSTACK()
```

### Event 65535.1

#### Metadata

| Field        | Value    |
|--------------|----------|
| Entrypoint   | 0x0003   |
| Data Size    | 12 bytes |
| Instructions | 3        |

```
      00 01 02 03 04 05 06 07  08 09 0A 0B 0C 0D 0E 0F
      -- -- -- -- -- -- -- --  -- -- -- -- -- -- -- --
0000:          37 00 80 01 80  02 80 03 80 22 00 00        7........".. 
```

#### Opcodes

```
  0: 0x0003 [0x37] UPDATE_EVENT_POSITION_AND_DIR: x=-5.289*, z=49.921*, y=-60.999*, direction=55.9°*
  1: 0x000C [0x22] ENTITY_HIDE_FLAG(enabled=0x00)
  2: 0x000E [0x00] END_REQSTACK()
```

### Event 362

#### Metadata

| Field        | Value   |
|--------------|---------|
| Entrypoint   | 0x000F  |
| Data Size    | 1 bytes |
| Instructions | 1       |

```
      00 01 02 03 04 05 06 07  08 09 0A 0B 0C 0D 0E 0F
      -- -- -- -- -- -- -- --  -- -- -- -- -- -- -- --
0000:                                               00                 .
```

#### Opcodes

```
  0: 0x000F [0x00] END_REQSTACK()
```

### Event 65535.2

#### Metadata

| Field        | Value    |
|--------------|----------|
| Entrypoint   | 0x0010   |
| Data Size    | 73 bytes |
| Instructions | 7        |

```
      00 01 02 03 04 05 06 07  08 09 0A 0B 0C 0D 0E 0F
      -- -- -- -- -- -- -- --  -- -- -- -- -- -- -- --
0010: 45 04 80 F0 FF FF 7F F0  FF FF 7F 73 30 32 36 05  E..........s026.
0020: 80 1C 06 80 52 04 80 F0  FF FF 7F F0 FF FF 7F 73  ....R..........s
0030: 30 32 36 45 07 80 F0 FF  FF 7F F0 FF FF 7F 6F 76  026E..........ov
0040: 6C 31 05 80 45 04 80 F0  FF FF 7F F0 FF FF 7F 73  l1..E..........s
0050: 30 32 37 05 80 1C 08 80  00                       027......       
```

#### Opcodes

```
  0: 0x0010 [0x45] LOAD_SCHEDULED_TASK: Load scheduler "s026" with entities [LocalPlayer, LocalPlayer], work=[70*, 0*]
  1: 0x0021 [0x1C] WAIT(140* ticks)
  2: 0x0024 [0x52] END_LOAD_SCHEDULER: End scheduler "s026" with entities [LocalPlayer, LocalPlayer], work=70*
  3: 0x0033 [0x45] LOAD_SCHEDULED_TASK: Load scheduler "ovl1" with entities [LocalPlayer, LocalPlayer], work=[200*, 0*]
  4: 0x0044 [0x45] LOAD_SCHEDULED_TASK: Load scheduler "s027" with entities [LocalPlayer, LocalPlayer], work=[70*, 0*]
  5: 0x0055 [0x1C] WAIT(100* ticks)
  6: 0x0058 [0x00] END_REQSTACK()
```

### Event 65535.3

#### Metadata

| Field        | Value    |
|--------------|----------|
| Entrypoint   | 0x0059   |
| Data Size    | 73 bytes |
| Instructions | 7        |

```
      00 01 02 03 04 05 06 07  08 09 0A 0B 0C 0D 0E 0F
      -- -- -- -- -- -- -- --  -- -- -- -- -- -- -- --
0050:                             45 04 80 F0 FF FF 7F           E......
0060: F0 FF FF 7F 73 30 33 36  05 80 1C 07 80 52 04 80  ....s036.....R..
0070: F0 FF FF 7F F0 FF FF 7F  73 30 33 36 45 07 80 F0  ........s036E...
0080: FF FF 7F F0 FF FF 7F 6F  76 6C 31 05 80 45 04 80  .......ovl1..E..
0090: F0 FF FF 7F F0 FF FF 7F  73 30 33 37 05 80 1C 09  ........s037....
00A0: 80 00                                             ..              
```

#### Opcodes

```
  0: 0x0059 [0x45] LOAD_SCHEDULED_TASK: Load scheduler "s036" with entities [LocalPlayer, LocalPlayer], work=[70*, 0*]
  1: 0x006A [0x1C] WAIT(200* ticks)
  2: 0x006D [0x52] END_LOAD_SCHEDULER: End scheduler "s036" with entities [LocalPlayer, LocalPlayer], work=70*
  3: 0x007C [0x45] LOAD_SCHEDULED_TASK: Load scheduler "ovl1" with entities [LocalPlayer, LocalPlayer], work=[200*, 0*]
  4: 0x008D [0x45] LOAD_SCHEDULED_TASK: Load scheduler "s037" with entities [LocalPlayer, LocalPlayer], work=[70*, 0*]
  5: 0x009E [0x1C] WAIT(60* ticks)
  6: 0x00A1 [0x00] END_REQSTACK()
```

### Event 65535.4

#### Metadata

| Field        | Value    |
|--------------|----------|
| Entrypoint   | 0x00A2   |
| Data Size    | 41 bytes |
| Instructions | 5        |

```
      00 01 02 03 04 05 06 07  08 09 0A 0B 0C 0D 0E 0F
      -- -- -- -- -- -- -- --  -- -- -- -- -- -- -- --
00A0:       45 04 80 F0 FF FF  7F F0 FF FF 7F 73 30 33    E..........s03
00B0: 38 05 80 1C 0A 80 45 0B  80 F0 FF FF 7F F0 FF FF  8.....E.........
00C0: 7F 77 68 6F 31 05 80 1C  09 80 00                 .who1......     
```

#### Opcodes

```
  0: 0x00A2 [0x45] LOAD_SCHEDULED_TASK: Load scheduler "s038" with entities [LocalPlayer, LocalPlayer], work=[70*, 0*]
  1: 0x00B3 [0x1C] WAIT(300* ticks)
  2: 0x00B6 [0x45] LOAD_SCHEDULED_TASK: Load scheduler "who1" with entities [LocalPlayer, LocalPlayer], work=[201*, 0*]
  3: 0x00C7 [0x1C] WAIT(60* ticks)
  4: 0x00CA [0x00] END_REQSTACK()
```

### Event 65535.5

#### Metadata

| Field        | Value    |
|--------------|----------|
| Entrypoint   | 0x00CB   |
| Data Size    | 90 bytes |
| Instructions | 8        |

```
      00 01 02 03 04 05 06 07  08 09 0A 0B 0C 0D 0E 0F
      -- -- -- -- -- -- -- --  -- -- -- -- -- -- -- --
00C0:                                   45 04 80 F0 FF             E....
00D0: FF 7F F0 FF FF 7F 73 30  33 30 05 80 45 0B 80 F0  ......s030..E...
00E0: FF FF 7F F0 FF FF 7F 77  68 69 31 05 80 1C 0C 80  .......whi1.....
00F0: 52 04 80 F0 FF FF 7F F0  FF FF 7F 73 30 33 30 45  R..........s030E
0100: 07 80 F0 FF FF 7F F0 FF  FF 7F 6F 76 6C 31 05 80  ..........ovl1..
0110: 45 04 80 F0 FF FF 7F F0  FF FF 7F 73 30 34 35 05  E..........s045.
0120: 80 1C 09 80 00                                    .....           
```

#### Opcodes

```
  0: 0x00CB [0x45] LOAD_SCHEDULED_TASK: Load scheduler "s030" with entities [LocalPlayer, LocalPlayer], work=[70*, 0*]
  1: 0x00DC [0x45] LOAD_SCHEDULED_TASK: Load scheduler "whi1" with entities [LocalPlayer, LocalPlayer], work=[201*, 0*]
  2: 0x00ED [0x1C] WAIT(150* ticks)
  3: 0x00F0 [0x52] END_LOAD_SCHEDULER: End scheduler "s030" with entities [LocalPlayer, LocalPlayer], work=70*
  4: 0x00FF [0x45] LOAD_SCHEDULED_TASK: Load scheduler "ovl1" with entities [LocalPlayer, LocalPlayer], work=[200*, 0*]
  5: 0x0110 [0x45] LOAD_SCHEDULED_TASK: Load scheduler "s045" with entities [LocalPlayer, LocalPlayer], work=[70*, 0*]
  6: 0x0121 [0x1C] WAIT(60* ticks)
  7: 0x0124 [0x00] END_REQSTACK()
```

### Event 65535.6

#### Metadata

| Field        | Value     |
|--------------|-----------|
| Entrypoint   | 0x0125    |
| Data Size    | 179 bytes |
| Instructions | 15        |

```
      00 01 02 03 04 05 06 07  08 09 0A 0B 0C 0D 0E 0F
      -- -- -- -- -- -- -- --  -- -- -- -- -- -- -- --
0120:                45 0D 80  65 20 0F 01 65 20 0F 01       E..e ..e ..
0130: 73 30 30 30 05 80 45 0D  80 65 20 0F 01 65 20 0F  s000..E..e ..e .
0140: 01 73 30 30 34 05 80 45  04 80 F0 FF FF 7F F0 FF  .s004..E........
0150: FF 7F 73 30 35 31 05 80  45 07 80 F0 FF FF 7F F0  ..s051..E.......
0160: FF FF 7F 66 64 69 31 05  80 1C 08 80 45 0B 80 F0  ...fdi1.....E...
0170: FF FF 7F F0 FF FF 7F 77  68 6F 31 05 80 1C 09 80  .......who1.....
0180: 52 04 80 F0 FF FF 7F F0  FF FF 7F 73 30 35 31 45  R..........s051E
0190: 04 80 F0 FF FF 7F F0 FF  FF 7F 73 30 34 38 05 80  ..........s048..
01A0: 45 0B 80 F0 FF FF 7F F0  FF FF 7F 77 68 69 31 05  E..........whi1.
01B0: 80 1C 08 80 45 0B 80 F0  FF FF 7F F0 FF FF 7F 77  ....E..........w
01C0: 68 6F 31 05 80 1C 09 80  52 04 80 F0 FF FF 7F F0  ho1.....R.......
01D0: FF FF 7F 73 30 34 38 00                           ...s048.        
```

#### Opcodes

```
  0: 0x0125 [0x45] LOAD_SCHEDULED_TASK: Load scheduler "s000" with entities [SP01 (ID: 17768549/0x010F2065), SP01 (ID: 17768549/0x010F2065)], work=[226*, 0*]
  1: 0x0136 [0x45] LOAD_SCHEDULED_TASK: Load scheduler "s004" with entities [SP01 (ID: 17768549/0x010F2065), SP01 (ID: 17768549/0x010F2065)], work=[226*, 0*]
  2: 0x0147 [0x45] LOAD_SCHEDULED_TASK: Load scheduler "s051" with entities [LocalPlayer, LocalPlayer], work=[70*, 0*]
  3: 0x0158 [0x45] LOAD_SCHEDULED_TASK: Load scheduler "fdi1" with entities [LocalPlayer, LocalPlayer], work=[200*, 0*]
  4: 0x0169 [0x1C] WAIT(100* ticks)
  5: 0x016C [0x45] LOAD_SCHEDULED_TASK: Load scheduler "who1" with entities [LocalPlayer, LocalPlayer], work=[201*, 0*]
  6: 0x017D [0x1C] WAIT(60* ticks)
  7: 0x0180 [0x52] END_LOAD_SCHEDULER: End scheduler "s051" with entities [LocalPlayer, LocalPlayer], work=70*
  8: 0x018F [0x45] LOAD_SCHEDULED_TASK: Load scheduler "s048" with entities [LocalPlayer, LocalPlayer], work=[70*, 0*]
  9: 0x01A0 [0x45] LOAD_SCHEDULED_TASK: Load scheduler "whi1" with entities [LocalPlayer, LocalPlayer], work=[201*, 0*]
 10: 0x01B1 [0x1C] WAIT(100* ticks)
 11: 0x01B4 [0x45] LOAD_SCHEDULED_TASK: Load scheduler "who1" with entities [LocalPlayer, LocalPlayer], work=[201*, 0*]
 12: 0x01C5 [0x1C] WAIT(60* ticks)
 13: 0x01C8 [0x52] END_LOAD_SCHEDULER: End scheduler "s048" with entities [LocalPlayer, LocalPlayer], work=70*
 14: 0x01D7 [0x00] END_REQSTACK()
```
