# 17768490 - Dattata

## Common Data

| Field            | Value                   |
|------------------|-------------------------|
| Zone             | Heavens Tower (ID: 242) |
| Block Size       | 620 bytes               |
| Total Events     | 18                      |
| References Count | 24                      |

## List of Events

| Event ID                 | Entrypoint   |   Size |   Instructions |
|--------------------------|--------------|--------|----------------|
| [65535](#event-65535)    | 0x0000       |      1 |              1 |
| [65535.1](#event-655351) | 0x0001       |     16 |              2 |
| [65535.2](#event-655352) | 0x0011       |      9 |              3 |
| [65535.3](#event-655353) | 0x001A       |     16 |              2 |
| [65535.4](#event-655354) | 0x002A       |     14 |              2 |
| [65535.5](#event-655355) | 0x0038       |     16 |              2 |
| [65535.6](#event-655356) | 0x0048       |     14 |              2 |
| [61](#event-61)          | 0x0056       |     33 |             12 |
| [71](#event-71)          | 0x0077       |     33 |             12 |
| [127](#event-127)        | 0x0098       |     33 |             12 |
| [141](#event-141)        | 0x00B9       |     33 |             12 |
| [181](#event-181)        | 0x00DA       |     33 |             12 |
| [206](#event-206)        | 0x00FB       |     33 |             12 |
| [227](#event-227)        | 0x011C       |     33 |             12 |
| [121](#event-121)        | 0x013D       |      1 |              1 |
| [341](#event-341)        | 0x013E       |     33 |             12 |
| [354](#event-354)        | 0x015F       |     33 |             12 |
| [392](#event-392)        | 0x0180       |     49 |             16 |

## DAT References (imed_data)

|   Index | Hex Value   |   Dec Value |
|---------|-------------|-------------|
|       0 | 0x0028      |          40 |
|       1 | 0x001E      |          30 |
|       2 | 0x0025      |          37 |
|       3 | 0x0026      |          38 |
|       4 | 0x0039      |          57 |
|       5 | 0x003A      |          58 |
|       6 | 0x00FB      |         251 |
|       7 | 0x00FC      |         252 |
|       8 | 0x011C      |         284 |
|       9 | 0x011D      |         285 |
|      10 | 0x0175      |         373 |
|      11 | 0x0176      |         374 |
|      12 | 0x01CA      |         458 |
|      13 | 0x01CB      |         459 |
|      14 | 0x01F9      |         505 |
|      15 | 0x01FA      |         506 |
|      16 | 0x205F      |        8287 |
|      17 | 0x2060      |        8288 |
|      18 | 0x20EB      |        8427 |
|      19 | 0x20EC      |        8428 |
|      20 | 0x2145      |        8517 |
|      21 | 0x2146      |        8518 |
|      22 | 0x0007      |           7 |
|      23 | 0x2147      |        8519 |

## String References

- **37**: The only one of us who actually has the HONOR to interact with the Star Sibyl is the lovely-dovey, kind and CARING head lady, ZUBABA.
- **38**: (That old prune still brags about how she protected the Star Sibyl in the Great War twenty years ago!)
- **57**: You see. Lady ZUBABA is not as terrible as YOU thought. We ladies-in-waiting WORK just as HARD as you adventurers. Why don't YOU try doing our job for a day?
- **58**: (I guarantee you wouldn't last an hour without Zubaba making you achy-break out in tears, begging to go home!)
- **251**: The Star Reading ceremony performed at the Star Spring brain-drains much energy from the Star Sibyl.
- **252**: From what I hear, the Sibyl rides on starlight that takes her to a place where she can see our futures. It's just too difficult for a lady-in-waiting like me to imagine!
- **284**: I may be imagining it, but as of late the light emanating from the Star Spring has dimmed ever-so slightly. Oh, WISE lady ZUBABA, what are we to DO?
- **285**: (Like she'd know. It is said that the Star Sibyl is the reincarnation of the Dawn Goddess. Maybe the Sibyl and the Star Spring are connected in some way...)
- **373**: Just being able to READ the future doesn't mean having the power to CHANGE it...
- **374**: (To think, after all these years, that oldy-moldy battle axe Zubaba was right.)
- **458**: WISE and KIND head lady ZUBABA has reminded us that we must stay CALM in this time of despair.
- **459**: (Well, that prune doesn't need to worry about me. As to what goes on within these walls, my mouth is shut as tight as a shall shell.)
- **505**: WISE and LOVELY head lady ZUBABA has reminded us that we must stay CALM in this time of despair.
- **506**: (Well, that prune doesn't need to worry about me. As to what goes on within these walls, my mouth is shut as tight as a shall shell.)
- **8287**: Lady ZUBABA and Sibyl Guard SEMIH LAFIHNA were so BRAVE in protecting the Star Sibyl.
- **8288**: (...Sigh... I wish I could be a teensy-weensy little bit more helpful. All I could do was sit here and pray for the best...)
- **8427**: We've got the bearer of darkness, the Cardians, and the Yagudo. Windurst sure does seem to have a lot of enemies, despite our continued efforts at peace.
- **8428**: Is this some sort of test, I wonder? The citizens of Windurst mustaru give their full support... The burden is too great for the Star Sibyl to carry alone.
- **8517**: The Sibyl Guards were saying that we have no more to fear from the Cardians or the Bearer of Darkness.
- **8518**: According to them, the Bearer of Darkness was clobber-wobbered by you, the Star Sibyl, and the Orastery minister.
- **8519**: And Minister Apururu of the Manustery has the job of rounding up the remaining feral-weral Cardians. That really puts my mind at easey-wease.

## Events

### Event 65535

#### Metadata

| Field        | Value   |
|--------------|---------|
| Entrypoint   | 0x0000  |
| Data Size    | 1 bytes |
| Instructions | 1       |

```
      00 01 02 03 04 05 06 07  08 09 0A 0B 0C 0D 0E 0F
      -- -- -- -- -- -- -- --  -- -- -- -- -- -- -- --
0000: 00                                                .               
```

#### Opcodes

```
  0: 0x0000 [0x00] END_REQSTACK()
```

### Event 65535.1

#### Metadata

| Field        | Value    |
|--------------|----------|
| Entrypoint   | 0x0001   |
| Data Size    | 16 bytes |
| Instructions | 2        |

```
      00 01 02 03 04 05 06 07  08 09 0A 0B 0C 0D 0E 0F
      -- -- -- -- -- -- -- --  -- -- -- -- -- -- -- --
0000:    66 00 80 F8 FF FF 7F  F8 FF FF 7F 74 6C 6B 30   f..........tlk0
0010: 00                                                .               
```

#### Opcodes

```
  0: 0x0001 [0x66] LOAD_EXT_SCHEDULER_MAIN: Load scheduler "tlk0" with entities [EventEntity, EventEntity], work=40*
  1: 0x0010 [0x00] END_REQSTACK()
```

### Event 65535.2

#### Metadata

| Field        | Value   |
|--------------|---------|
| Entrypoint   | 0x0011  |
| Data Size    | 9 bytes |
| Instructions | 3       |

```
      00 01 02 03 04 05 06 07  08 09 0A 0B 0C 0D 0E 0F
      -- -- -- -- -- -- -- --  -- -- -- -- -- -- -- --
0010:    5E 69 64 6C 30 1C 01  80 00                     ^idl0....      
```

#### Opcodes

```
  0: 0x0011 [0x5E] EventEntity goes idle (kills current action) (animation: "idl0")
  1: 0x0016 [0x1C] WAIT(30* ticks)
  2: 0x0019 [0x00] END_REQSTACK()
```

### Event 65535.3

#### Metadata

| Field        | Value    |
|--------------|----------|
| Entrypoint   | 0x001A   |
| Data Size    | 16 bytes |
| Instructions | 2        |

```
      00 01 02 03 04 05 06 07  08 09 0A 0B 0C 0D 0E 0F
      -- -- -- -- -- -- -- --  -- -- -- -- -- -- -- --
0010:                                66 00 80 F8 FF FF            f.....
0020: 7F F8 FF FF 7F 6F 62 69  30 00                    .....obi0.      
```

#### Opcodes

```
  0: 0x001A [0x66] LOAD_EXT_SCHEDULER_MAIN: Load scheduler "obi0" with entities [EventEntity, EventEntity], work=40*
  1: 0x0029 [0x00] END_REQSTACK()
```

### Event 65535.4

#### Metadata

| Field        | Value    |
|--------------|----------|
| Entrypoint   | 0x002A   |
| Data Size    | 14 bytes |
| Instructions | 2        |

```
      00 01 02 03 04 05 06 07  08 09 0A 0B 0C 0D 0E 0F
      -- -- -- -- -- -- -- --  -- -- -- -- -- -- -- --
0020:                                53 F8 FF FF 7F F8            S.....
0030: FF FF 7F 6F 62 69 30 00                           ...obi0.        
```

#### Opcodes

```
  0: 0x002A [0x53] WAIT_SCHEDULER_TASK: Wait for scheduler "obi0" with entities [EventEntity, EventEntity]
  1: 0x0037 [0x00] END_REQSTACK()
```

### Event 65535.5

#### Metadata

| Field        | Value    |
|--------------|----------|
| Entrypoint   | 0x0038   |
| Data Size    | 16 bytes |
| Instructions | 2        |

```
      00 01 02 03 04 05 06 07  08 09 0A 0B 0C 0D 0E 0F
      -- -- -- -- -- -- -- --  -- -- -- -- -- -- -- --
0030:                          66 00 80 F8 FF FF 7F F8          f.......
0040: FF FF 7F 6F 62 69 31 00                           ...obi1.        
```

#### Opcodes

```
  0: 0x0038 [0x66] LOAD_EXT_SCHEDULER_MAIN: Load scheduler "obi1" with entities [EventEntity, EventEntity], work=40*
  1: 0x0047 [0x00] END_REQSTACK()
```

### Event 65535.6

#### Metadata

| Field        | Value    |
|--------------|----------|
| Entrypoint   | 0x0048   |
| Data Size    | 14 bytes |
| Instructions | 2        |

```
      00 01 02 03 04 05 06 07  08 09 0A 0B 0C 0D 0E 0F
      -- -- -- -- -- -- -- --  -- -- -- -- -- -- -- --
0040:                          53 F8 FF FF 7F F8 FF FF          S.......
0050: 7F 6F 62 69 31 00                                 .obi1.          
```

#### Opcodes

```
  0: 0x0048 [0x53] WAIT_SCHEDULER_TASK: Wait for scheduler "obi1" with entities [EventEntity, EventEntity]
  1: 0x0055 [0x00] END_REQSTACK()
```

### Event 61

#### Metadata

| Field        | Value    |
|--------------|----------|
| Entrypoint   | 0x0056   |
| Data Size    | 33 bytes |
| Instructions | 12       |

```
      00 01 02 03 04 05 06 07  08 09 0A 0B 0C 0D 0E 0F
      -- -- -- -- -- -- -- --  -- -- -- -- -- -- -- --
0050:                   1E F0  FF FF 7F 6F 70 29 08 2A        .....op).*
0060: 20 0F 01 01 1D 02 80 23  1D 03 80 23 29 08 2A 20   ......#...#).* 
0070: 0F 01 02 20 00 21 00                              ... .!.         
```

#### Opcodes

```
  0: 0x0056 [0x1E] EventEntity looks at LocalPlayer and starts talking
  1: 0x005B [0x6F] WAIT_FRAME_DELAY: Yield until WaitTime reaches zero
  2: 0x005C [0x70] WAIT_ENTITY_RENDER_FLAG: Wait while EventEntity->Render.Flags3 bit 2 is set (cancel turn if not)
  3: 0x005D [0x29] REQ_SET_WAIT(priority=0x08, entity_id=Dattata (ID: 17768490/0x010F202A), tag_num=0x01)
  4: 0x0064 [0x1D] PRINT_EVENT_MESSAGE(message_id=37*)
    → "The only one of us who actually has the HONOR to interact with the Star Sibyl is the lovely-dovey, kind and CARING head lady, ZUBABA."
  5: 0x0067 [0x23] WAIT_FOR_DIALOG_INTERACTION
  6: 0x0068 [0x1D] PRINT_EVENT_MESSAGE(message_id=38*)
    → "(That old prune still brags about how she protected the Star Sibyl in the Great War twenty years ago!)"
  7: 0x006B [0x23] WAIT_FOR_DIALOG_INTERACTION
  8: 0x006C [0x29] REQ_SET_WAIT(priority=0x08, entity_id=Dattata (ID: 17768490/0x010F202A), tag_num=0x02)
  9: 0x0073 [0x20] SET_CLI_EVENT_UC_FLAG: Unlock player control
 10: 0x0075 [0x21] END_EVENT
 11: 0x0076 [0x00] END_REQSTACK()
```

### Event 71

#### Metadata

| Field        | Value    |
|--------------|----------|
| Entrypoint   | 0x0077   |
| Data Size    | 33 bytes |
| Instructions | 12       |

```
      00 01 02 03 04 05 06 07  08 09 0A 0B 0C 0D 0E 0F
      -- -- -- -- -- -- -- --  -- -- -- -- -- -- -- --
0070:                      1E  F0 FF FF 7F 6F 70 29 08         .....op).
0080: 2A 20 0F 01 01 1D 04 80  23 1D 05 80 23 29 08 2A  * ......#...#).*
0090: 20 0F 01 02 20 00 21 00                            ... .!.        
```

#### Opcodes

```
  0: 0x0077 [0x1E] EventEntity looks at LocalPlayer and starts talking
  1: 0x007C [0x6F] WAIT_FRAME_DELAY: Yield until WaitTime reaches zero
  2: 0x007D [0x70] WAIT_ENTITY_RENDER_FLAG: Wait while EventEntity->Render.Flags3 bit 2 is set (cancel turn if not)
  3: 0x007E [0x29] REQ_SET_WAIT(priority=0x08, entity_id=Dattata (ID: 17768490/0x010F202A), tag_num=0x01)
  4: 0x0085 [0x1D] PRINT_EVENT_MESSAGE(message_id=57*)
    → "You see. Lady ZUBABA is not as terrible as YOU thought. We ladies-in-waiting WORK just as HARD as you adventurers. Why don't YOU try doing our job for a day?"
  5: 0x0088 [0x23] WAIT_FOR_DIALOG_INTERACTION
  6: 0x0089 [0x1D] PRINT_EVENT_MESSAGE(message_id=58*)
    → "(I guarantee you wouldn't last an hour without Zubaba making you achy-break out in tears, begging to go home!)"
  7: 0x008C [0x23] WAIT_FOR_DIALOG_INTERACTION
  8: 0x008D [0x29] REQ_SET_WAIT(priority=0x08, entity_id=Dattata (ID: 17768490/0x010F202A), tag_num=0x02)
  9: 0x0094 [0x20] SET_CLI_EVENT_UC_FLAG: Unlock player control
 10: 0x0096 [0x21] END_EVENT
 11: 0x0097 [0x00] END_REQSTACK()
```

### Event 127

#### Metadata

| Field        | Value    |
|--------------|----------|
| Entrypoint   | 0x0098   |
| Data Size    | 33 bytes |
| Instructions | 12       |

```
      00 01 02 03 04 05 06 07  08 09 0A 0B 0C 0D 0E 0F
      -- -- -- -- -- -- -- --  -- -- -- -- -- -- -- --
0090:                          1E F0 FF FF 7F 6F 70 29          .....op)
00A0: 08 2A 20 0F 01 01 1D 06  80 23 1D 07 80 23 29 08  .* ......#...#).
00B0: 2A 20 0F 01 02 20 00 21  00                       * ... .!.       
```

#### Opcodes

```
  0: 0x0098 [0x1E] EventEntity looks at LocalPlayer and starts talking
  1: 0x009D [0x6F] WAIT_FRAME_DELAY: Yield until WaitTime reaches zero
  2: 0x009E [0x70] WAIT_ENTITY_RENDER_FLAG: Wait while EventEntity->Render.Flags3 bit 2 is set (cancel turn if not)
  3: 0x009F [0x29] REQ_SET_WAIT(priority=0x08, entity_id=Dattata (ID: 17768490/0x010F202A), tag_num=0x01)
  4: 0x00A6 [0x1D] PRINT_EVENT_MESSAGE(message_id=251*)
    → "The Star Reading ceremony performed at the Star Spring brain-drains much energy from the Star Sibyl."
  5: 0x00A9 [0x23] WAIT_FOR_DIALOG_INTERACTION
  6: 0x00AA [0x1D] PRINT_EVENT_MESSAGE(message_id=252*)
    → "From what I hear, the Sibyl rides on starlight that takes her to a place where she can see our futures. It's just too difficult for a lady-in-waiting like me to imagine!"
  7: 0x00AD [0x23] WAIT_FOR_DIALOG_INTERACTION
  8: 0x00AE [0x29] REQ_SET_WAIT(priority=0x08, entity_id=Dattata (ID: 17768490/0x010F202A), tag_num=0x02)
  9: 0x00B5 [0x20] SET_CLI_EVENT_UC_FLAG: Unlock player control
 10: 0x00B7 [0x21] END_EVENT
 11: 0x00B8 [0x00] END_REQSTACK()
```

### Event 141

#### Metadata

| Field        | Value    |
|--------------|----------|
| Entrypoint   | 0x00B9   |
| Data Size    | 33 bytes |
| Instructions | 12       |

```
      00 01 02 03 04 05 06 07  08 09 0A 0B 0C 0D 0E 0F
      -- -- -- -- -- -- -- --  -- -- -- -- -- -- -- --
00B0:                             1E F0 FF FF 7F 6F 70           .....op
00C0: 29 08 2A 20 0F 01 01 1D  08 80 23 1D 09 80 23 29  ).* ......#...#)
00D0: 08 2A 20 0F 01 02 20 00  21 00                    .* ... .!.      
```

#### Opcodes

```
  0: 0x00B9 [0x1E] EventEntity looks at LocalPlayer and starts talking
  1: 0x00BE [0x6F] WAIT_FRAME_DELAY: Yield until WaitTime reaches zero
  2: 0x00BF [0x70] WAIT_ENTITY_RENDER_FLAG: Wait while EventEntity->Render.Flags3 bit 2 is set (cancel turn if not)
  3: 0x00C0 [0x29] REQ_SET_WAIT(priority=0x08, entity_id=Dattata (ID: 17768490/0x010F202A), tag_num=0x01)
  4: 0x00C7 [0x1D] PRINT_EVENT_MESSAGE(message_id=284*)
    → "I may be imagining it, but as of late the light emanating from the Star Spring has dimmed ever-so slightly. Oh, WISE lady ZUBABA, what are we to DO?"
  5: 0x00CA [0x23] WAIT_FOR_DIALOG_INTERACTION
  6: 0x00CB [0x1D] PRINT_EVENT_MESSAGE(message_id=285*)
    → "(Like she'd know. It is said that the Star Sibyl is the reincarnation of the Dawn Goddess. Maybe the Sibyl and the Star Spring are connected in some way...)"
  7: 0x00CE [0x23] WAIT_FOR_DIALOG_INTERACTION
  8: 0x00CF [0x29] REQ_SET_WAIT(priority=0x08, entity_id=Dattata (ID: 17768490/0x010F202A), tag_num=0x02)
  9: 0x00D6 [0x20] SET_CLI_EVENT_UC_FLAG: Unlock player control
 10: 0x00D8 [0x21] END_EVENT
 11: 0x00D9 [0x00] END_REQSTACK()
```

### Event 181

#### Metadata

| Field        | Value    |
|--------------|----------|
| Entrypoint   | 0x00DA   |
| Data Size    | 33 bytes |
| Instructions | 12       |

```
      00 01 02 03 04 05 06 07  08 09 0A 0B 0C 0D 0E 0F
      -- -- -- -- -- -- -- --  -- -- -- -- -- -- -- --
00D0:                                1E F0 FF FF 7F 6F            .....o
00E0: 70 29 08 2A 20 0F 01 01  1D 0A 80 23 1D 0B 80 23  p).* ......#...#
00F0: 29 08 2A 20 0F 01 02 20  00 21 00                 ).* ... .!.     
```

#### Opcodes

```
  0: 0x00DA [0x1E] EventEntity looks at LocalPlayer and starts talking
  1: 0x00DF [0x6F] WAIT_FRAME_DELAY: Yield until WaitTime reaches zero
  2: 0x00E0 [0x70] WAIT_ENTITY_RENDER_FLAG: Wait while EventEntity->Render.Flags3 bit 2 is set (cancel turn if not)
  3: 0x00E1 [0x29] REQ_SET_WAIT(priority=0x08, entity_id=Dattata (ID: 17768490/0x010F202A), tag_num=0x01)
  4: 0x00E8 [0x1D] PRINT_EVENT_MESSAGE(message_id=373*)
    → "Just being able to READ the future doesn't mean having the power to CHANGE it..."
  5: 0x00EB [0x23] WAIT_FOR_DIALOG_INTERACTION
  6: 0x00EC [0x1D] PRINT_EVENT_MESSAGE(message_id=374*)
    → "(To think, after all these years, that oldy-moldy battle axe Zubaba was right.)"
  7: 0x00EF [0x23] WAIT_FOR_DIALOG_INTERACTION
  8: 0x00F0 [0x29] REQ_SET_WAIT(priority=0x08, entity_id=Dattata (ID: 17768490/0x010F202A), tag_num=0x02)
  9: 0x00F7 [0x20] SET_CLI_EVENT_UC_FLAG: Unlock player control
 10: 0x00F9 [0x21] END_EVENT
 11: 0x00FA [0x00] END_REQSTACK()
```

### Event 206

#### Metadata

| Field        | Value    |
|--------------|----------|
| Entrypoint   | 0x00FB   |
| Data Size    | 33 bytes |
| Instructions | 12       |

```
      00 01 02 03 04 05 06 07  08 09 0A 0B 0C 0D 0E 0F
      -- -- -- -- -- -- -- --  -- -- -- -- -- -- -- --
00F0:                                   1E F0 FF FF 7F             .....
0100: 6F 70 29 08 2A 20 0F 01  01 1D 0C 80 23 1D 0D 80  op).* ......#...
0110: 23 29 08 2A 20 0F 01 02  20 00 21 00              #).* ... .!.    
```

#### Opcodes

```
  0: 0x00FB [0x1E] EventEntity looks at LocalPlayer and starts talking
  1: 0x0100 [0x6F] WAIT_FRAME_DELAY: Yield until WaitTime reaches zero
  2: 0x0101 [0x70] WAIT_ENTITY_RENDER_FLAG: Wait while EventEntity->Render.Flags3 bit 2 is set (cancel turn if not)
  3: 0x0102 [0x29] REQ_SET_WAIT(priority=0x08, entity_id=Dattata (ID: 17768490/0x010F202A), tag_num=0x01)
  4: 0x0109 [0x1D] PRINT_EVENT_MESSAGE(message_id=458*)
    → "WISE and KIND head lady ZUBABA has reminded us that we must stay CALM in this time of despair."
  5: 0x010C [0x23] WAIT_FOR_DIALOG_INTERACTION
  6: 0x010D [0x1D] PRINT_EVENT_MESSAGE(message_id=459*)
    → "(Well, that prune doesn't need to worry about me. As to what goes on within these walls, my mouth is shut as tight as a shall shell.)"
  7: 0x0110 [0x23] WAIT_FOR_DIALOG_INTERACTION
  8: 0x0111 [0x29] REQ_SET_WAIT(priority=0x08, entity_id=Dattata (ID: 17768490/0x010F202A), tag_num=0x02)
  9: 0x0118 [0x20] SET_CLI_EVENT_UC_FLAG: Unlock player control
 10: 0x011A [0x21] END_EVENT
 11: 0x011B [0x00] END_REQSTACK()
```

### Event 227

#### Metadata

| Field        | Value    |
|--------------|----------|
| Entrypoint   | 0x011C   |
| Data Size    | 33 bytes |
| Instructions | 12       |

```
      00 01 02 03 04 05 06 07  08 09 0A 0B 0C 0D 0E 0F
      -- -- -- -- -- -- -- --  -- -- -- -- -- -- -- --
0110:                                      1E F0 FF FF              ....
0120: 7F 6F 70 29 08 2A 20 0F  01 01 1D 0E 80 23 1D 0F  .op).* ......#..
0130: 80 23 29 08 2A 20 0F 01  02 20 00 21 00           .#).* ... .!.   
```

#### Opcodes

```
  0: 0x011C [0x1E] EventEntity looks at LocalPlayer and starts talking
  1: 0x0121 [0x6F] WAIT_FRAME_DELAY: Yield until WaitTime reaches zero
  2: 0x0122 [0x70] WAIT_ENTITY_RENDER_FLAG: Wait while EventEntity->Render.Flags3 bit 2 is set (cancel turn if not)
  3: 0x0123 [0x29] REQ_SET_WAIT(priority=0x08, entity_id=Dattata (ID: 17768490/0x010F202A), tag_num=0x01)
  4: 0x012A [0x1D] PRINT_EVENT_MESSAGE(message_id=505*)
    → "WISE and LOVELY head lady ZUBABA has reminded us that we must stay CALM in this time of despair."
  5: 0x012D [0x23] WAIT_FOR_DIALOG_INTERACTION
  6: 0x012E [0x1D] PRINT_EVENT_MESSAGE(message_id=506*)
    → "(Well, that prune doesn't need to worry about me. As to what goes on within these walls, my mouth is shut as tight as a shall shell.)"
  7: 0x0131 [0x23] WAIT_FOR_DIALOG_INTERACTION
  8: 0x0132 [0x29] REQ_SET_WAIT(priority=0x08, entity_id=Dattata (ID: 17768490/0x010F202A), tag_num=0x02)
  9: 0x0139 [0x20] SET_CLI_EVENT_UC_FLAG: Unlock player control
 10: 0x013B [0x21] END_EVENT
 11: 0x013C [0x00] END_REQSTACK()
```

### Event 121

#### Metadata

| Field        | Value   |
|--------------|---------|
| Entrypoint   | 0x013D  |
| Data Size    | 1 bytes |
| Instructions | 1       |

```
      00 01 02 03 04 05 06 07  08 09 0A 0B 0C 0D 0E 0F
      -- -- -- -- -- -- -- --  -- -- -- -- -- -- -- --
0130:                                         00                     .  
```

#### Opcodes

```
  0: 0x013D [0x00] END_REQSTACK()
```

### Event 341

#### Metadata

| Field        | Value    |
|--------------|----------|
| Entrypoint   | 0x013E   |
| Data Size    | 33 bytes |
| Instructions | 12       |

```
      00 01 02 03 04 05 06 07  08 09 0A 0B 0C 0D 0E 0F
      -- -- -- -- -- -- -- --  -- -- -- -- -- -- -- --
0130:                                            1E F0                ..
0140: FF FF 7F 6F 70 29 08 2A  20 0F 01 01 1D 10 80 23  ...op).* ......#
0150: 1D 11 80 23 29 08 2A 20  0F 01 02 20 00 21 00     ...#).* ... .!. 
```

#### Opcodes

```
  0: 0x013E [0x1E] EventEntity looks at LocalPlayer and starts talking
  1: 0x0143 [0x6F] WAIT_FRAME_DELAY: Yield until WaitTime reaches zero
  2: 0x0144 [0x70] WAIT_ENTITY_RENDER_FLAG: Wait while EventEntity->Render.Flags3 bit 2 is set (cancel turn if not)
  3: 0x0145 [0x29] REQ_SET_WAIT(priority=0x08, entity_id=Dattata (ID: 17768490/0x010F202A), tag_num=0x01)
  4: 0x014C [0x1D] PRINT_EVENT_MESSAGE(message_id=8287*)
    → "Lady ZUBABA and Sibyl Guard SEMIH LAFIHNA were so BRAVE in protecting the Star Sibyl."
  5: 0x014F [0x23] WAIT_FOR_DIALOG_INTERACTION
  6: 0x0150 [0x1D] PRINT_EVENT_MESSAGE(message_id=8288*)
    → "(...Sigh... I wish I could be a teensy-weensy little bit more helpful. All I could do was sit here and pray for the best...)"
  7: 0x0153 [0x23] WAIT_FOR_DIALOG_INTERACTION
  8: 0x0154 [0x29] REQ_SET_WAIT(priority=0x08, entity_id=Dattata (ID: 17768490/0x010F202A), tag_num=0x02)
  9: 0x015B [0x20] SET_CLI_EVENT_UC_FLAG: Unlock player control
 10: 0x015D [0x21] END_EVENT
 11: 0x015E [0x00] END_REQSTACK()
```

### Event 354

#### Metadata

| Field        | Value    |
|--------------|----------|
| Entrypoint   | 0x015F   |
| Data Size    | 33 bytes |
| Instructions | 12       |

```
      00 01 02 03 04 05 06 07  08 09 0A 0B 0C 0D 0E 0F
      -- -- -- -- -- -- -- --  -- -- -- -- -- -- -- --
0150:                                               1E                 .
0160: F0 FF FF 7F 6F 70 29 08  2A 20 0F 01 01 1D 12 80  ....op).* ......
0170: 23 1D 13 80 23 29 08 2A  20 0F 01 02 20 00 21 00  #...#).* ... .!.
```

#### Opcodes

```
  0: 0x015F [0x1E] EventEntity looks at LocalPlayer and starts talking
  1: 0x0164 [0x6F] WAIT_FRAME_DELAY: Yield until WaitTime reaches zero
  2: 0x0165 [0x70] WAIT_ENTITY_RENDER_FLAG: Wait while EventEntity->Render.Flags3 bit 2 is set (cancel turn if not)
  3: 0x0166 [0x29] REQ_SET_WAIT(priority=0x08, entity_id=Dattata (ID: 17768490/0x010F202A), tag_num=0x01)
  4: 0x016D [0x1D] PRINT_EVENT_MESSAGE(message_id=8427*)
    → "We've got the bearer of darkness, the Cardians, and the Yagudo. Windurst sure does seem to have a lot of enemies, despite our continued efforts at peace."
  5: 0x0170 [0x23] WAIT_FOR_DIALOG_INTERACTION
  6: 0x0171 [0x1D] PRINT_EVENT_MESSAGE(message_id=8428*)
    → "Is this some sort of test, I wonder? The citizens of Windurst mustaru give their full support... The burden is too great for the Star Sibyl to carry alone."
  7: 0x0174 [0x23] WAIT_FOR_DIALOG_INTERACTION
  8: 0x0175 [0x29] REQ_SET_WAIT(priority=0x08, entity_id=Dattata (ID: 17768490/0x010F202A), tag_num=0x02)
  9: 0x017C [0x20] SET_CLI_EVENT_UC_FLAG: Unlock player control
 10: 0x017E [0x21] END_EVENT
 11: 0x017F [0x00] END_REQSTACK()
```

### Event 392

#### Metadata

| Field        | Value    |
|--------------|----------|
| Entrypoint   | 0x0180   |
| Data Size    | 49 bytes |
| Instructions | 16       |

```
      00 01 02 03 04 05 06 07  08 09 0A 0B 0C 0D 0E 0F
      -- -- -- -- -- -- -- --  -- -- -- -- -- -- -- --
0180: 1E F0 FF FF 7F 6F 70 29  08 2A 20 0F 01 01 1D 14  .....op).* .....
0190: 80 23 1D 15 80 23 29 08  2A 20 0F 01 02 6E F8 FF  .#...#).* ...n..
01A0: FF 7F 16 80 99 F8 FF FF  7F 1D 17 80 23 20 00 21  ............# .!
01B0: 00                                                .               
```

#### Opcodes

```
  0: 0x0180 [0x1E] EventEntity looks at LocalPlayer and starts talking
  1: 0x0185 [0x6F] WAIT_FRAME_DELAY: Yield until WaitTime reaches zero
  2: 0x0186 [0x70] WAIT_ENTITY_RENDER_FLAG: Wait while EventEntity->Render.Flags3 bit 2 is set (cancel turn if not)
  3: 0x0187 [0x29] REQ_SET_WAIT(priority=0x08, entity_id=Dattata (ID: 17768490/0x010F202A), tag_num=0x01)
  4: 0x018E [0x1D] PRINT_EVENT_MESSAGE(message_id=8517*)
    → "The Sibyl Guards were saying that we have no more to fear from the Cardians or the Bearer of Darkness."
  5: 0x0191 [0x23] WAIT_FOR_DIALOG_INTERACTION
  6: 0x0192 [0x1D] PRINT_EVENT_MESSAGE(message_id=8518*)
    → "According to them, the Bearer of Darkness was clobber-wobbered by you, the Star Sibyl, and the Orastery minister."
  7: 0x0195 [0x23] WAIT_FOR_DIALOG_INTERACTION
  8: 0x0196 [0x29] REQ_SET_WAIT(priority=0x08, entity_id=Dattata (ID: 17768490/0x010F202A), tag_num=0x02)
  9: 0x019D [0x6E] EventEntity uses emote 7*
 10: 0x01A4 [0x99] Wait for EventEntity animation to complete
 11: 0x01A9 [0x1D] PRINT_EVENT_MESSAGE(message_id=8519*)
    → "And Minister Apururu of the Manustery has the job of rounding up the remaining feral-weral Cardians. That really puts my mind at easey-wease."
 12: 0x01AC [0x23] WAIT_FOR_DIALOG_INTERACTION
 13: 0x01AD [0x20] SET_CLI_EVENT_UC_FLAG: Unlock player control
 14: 0x01AF [0x21] END_EVENT
 15: 0x01B0 [0x00] END_REQSTACK()
```
