# 17768481 - Vahn Paineesha

## Common Data

| Field            | Value                   |
|------------------|-------------------------|
| Zone             | Heavens Tower (ID: 242) |
| Block Size       | 1248 bytes              |
| Total Events     | 43                      |
| References Count | 39                      |

## List of Events

| Event ID                   | Entrypoint   |   Size |   Instructions |
|----------------------------|--------------|--------|----------------|
| [65535](#event-65535)      | 0x0000       |      1 |              1 |
| [65535.1](#event-655351)   | 0x0001       |     16 |              2 |
| [65535.2](#event-655352)   | 0x0011       |     14 |              2 |
| [65535.3](#event-655353)   | 0x001F       |     16 |              2 |
| [65535.4](#event-655354)   | 0x002F       |     14 |              2 |
| [65535.5](#event-655355)   | 0x003D       |     16 |              2 |
| [65535.6](#event-655356)   | 0x004D       |     14 |              2 |
| [65535.7](#event-655357)   | 0x005B       |     16 |              2 |
| [65535.8](#event-655358)   | 0x006B       |     14 |              2 |
| [65535.9](#event-655359)   | 0x0079       |     16 |              2 |
| [65535.10](#event-6553510) | 0x0089       |     14 |              2 |
| [65535.11](#event-6553511) | 0x0097       |     16 |              2 |
| [65535.12](#event-6553512) | 0x00A7       |     14 |              2 |
| [65535.13](#event-6553513) | 0x00B5       |     16 |              2 |
| [65535.14](#event-6553514) | 0x00C5       |     14 |              2 |
| [65535.15](#event-6553515) | 0x00D3       |     16 |              2 |
| [65535.16](#event-6553516) | 0x00E3       |     14 |              2 |
| [65535.17](#event-6553517) | 0x00F1       |     16 |              2 |
| [65535.18](#event-6553518) | 0x0101       |     14 |              2 |
| [65535.19](#event-6553519) | 0x010F       |     16 |              2 |
| [65535.20](#event-6553520) | 0x011F       |     14 |              2 |
| [65535.21](#event-6553521) | 0x012D       |     16 |              2 |
| [65535.22](#event-6553522) | 0x013D       |     14 |              2 |
| [65535.23](#event-6553523) | 0x014B       |      9 |              3 |
| [89](#event-89)            | 0x0154       |     15 |              8 |
| [6](#event-6)              | 0x0163       |      1 |              1 |
| [107](#event-107)          | 0x0164       |      1 |              1 |
| [65535.24](#event-6553524) | 0x0165       |     10 |              2 |
| [65535.25](#event-6553525) | 0x016F       |     51 |              9 |
| [65535.26](#event-6553526) | 0x01A2       |      5 |              3 |
| [109](#event-109)          | 0x01A7       |     40 |             13 |
| [114](#event-114)          | 0x01CF       |      1 |              1 |
| [116](#event-116)          | 0x01D0       |     40 |             13 |
| [173](#event-173)          | 0x01F8       |     40 |             13 |
| [198](#event-198)          | 0x0220       |     40 |             13 |
| [221](#event-221)          | 0x0248       |     40 |             13 |
| [322](#event-322)          | 0x0270       |     40 |             13 |
| [305](#event-305)          | 0x0298       |     40 |             13 |
| [368](#event-368)          | 0x02C0       |     40 |             13 |
| [373](#event-373)          | 0x02E8       |     44 |             15 |
| [379](#event-379)          | 0x0314       |     40 |             13 |
| [382](#event-382)          | 0x033C       |     36 |             11 |
| [404](#event-404)          | 0x0360       |     40 |             13 |

## DAT References (imed_data)

|   Index | Hex Value   |   Dec Value |
|---------|-------------|-------------|
|       0 | 0x0032      |          50 |
|       1 | 0x0034      |          52 |
|       2 | 0x0035      |          53 |
|       3 | 0x0039      |          57 |
|       4 | 0x001E      |          30 |
|       5 | 0x0057      |          87 |
|       6 | 0xFFFFFACB  |  4294965963 |
|       7 | 0xFFFFD0FD  |  4294955261 |
|       8 | 0xFFFF4869  |  4294920297 |
|       9 | 0x0C65      |        3173 |
|      10 | 0xFFFFF7B1  |  4294965169 |
|      11 | 0xFFFF9A72  |  4294941298 |
|      12 | 0xFFFF5038  |  4294922296 |
|      13 | 0x0003      |           3 |
|      14 | 0x00A1      |         161 |
|      15 | 0x00B5      |         181 |
|      16 | 0x00B6      |         182 |
|      17 | 0x00C9      |         201 |
|      18 | 0x00CA      |         202 |
|      19 | 0x0164      |         356 |
|      20 | 0x0165      |         357 |
|      21 | 0x01BA      |         442 |
|      22 | 0x01BB      |         443 |
|      23 | 0x01ED      |         493 |
|      24 | 0x01EE      |         494 |
|      25 | 0x1FC0      |        8128 |
|      26 | 0x1FC1      |        8129 |
|      27 | 0x1FD9      |        8153 |
|      28 | 0x1FDA      |        8154 |
|      29 | 0x2075      |        8309 |
|      30 | 0x2076      |        8310 |
|      31 | 0x2082      |        8322 |
|      32 | 0x2083      |        8323 |
|      33 | 0x2084      |        8324 |
|      34 | 0x2101      |        8449 |
|      35 | 0x2102      |        8450 |
|      36 | 0x2109      |        8457 |
|      37 | 0x215D      |        8541 |
|      38 | 0x215E      |        8542 |

## String References

- **87**: Sibyl Guard Vahn Paineesha! I will personally punish any who even think of harming the Starrr Sibyl.
- **161**: Lady Semih Lafihna has prohibited you from entering this arrrea!
- **181**: If it wasn't for the Sibyl Guards' strrrength in numbers, we would have had no chance against a powerful magician like Ajido-Marujido.
- **182**: But, to tell you the trrruth, I think that Lady Semih Lafihna could have taken his little head off with one swipe of her claws.
- **201**: The Yagudo are not as ignorant as many may think. In the Great Warrr, their tactics confused even our finest leaderrrs.
- **202**: There must be some rrreason for them allowing the Orastery ministerrr to return unharmed.
- **356**: During any Star Reading ceremony, we Sibyl Guarrrds are present in the hall with the ladies-in-waiting.
- **357**: The same is true for the night on which the talisman was stolen. However, none of us saw any "bearerrrs of darkness."
- **442**: It's times like these when you can tell the Tarutaru hate conflict.
- **443**: The Shadow Lord's rrreturn is near, and they are having conferrrences... Unbelievable!
- **493**: I heard the news! Who would have thought that a simple adventurerrr could foil the plans of the beastmen?
- **494**: I am honored to live and work in the same great countrrry as you, [Sir/Lady] <Player>!
- **8128**: The objectives of the missions given out at gatehouses are not prrroperly scrutinized. It seems the ministers are having adventurers participate in all sorts of harebrrrained schemes.
- **8129**: Brrringing the ministers back into line will be the first step in changing Windurst for the better.
- **8153**: Opening the Darrrk Dungeon requires a "Charm of Darkness." However, only the Star Sibyl is capable of making them.
- **8154**: This spells the end for the Orastery ministerrr... It's such a shame...
- **8309**: We were faced with such incredible powerrr... Even we Sibyl Guards were frozen to the spot by the terrrror that creature inspired.
- **8310**: In coming to Heavens Tower, was its goal to seek out the Star Sibyl?
- **8322**: We Sibyl Guards were formed to protect the perrrson of the Star Sibyl.
- **8323**: But if we can't perform our duties as bodyguards, our prrresence here outside the Vestal Chamber becomes no more than a charrrade.
- **8324**: ...This must be something like the frustrrration the Star Sibyl felt when performing those meaningless ceremonies at the magic-drained Star Spring.
- **8449**: At times like this, the Star Sibyl's stamina and spirrrit are being put to the test.
- **8450**: We must rescue her from those puppets as soon as possible, but Semih Lafihna has yet to give the orrrder. I suppose just rushing in might make things worrrse...
- **8457**: Semih Lafihna has given her orrrders. The time has come for the Sibyl Guards to unsheathe our claws and fight with all our strrrength...
- **8541**: The ceremony performed by the Star Sibyl at the Full Moon Fountain is known as the Moon Reading.
- **8542**: The Moon Reading uses the powerrr of the Stars and the Moon to grant one tremendous wish. It is this power that has allowed the cheerful Tarutaru to exist in this land for as long as they have.

## Events

### Event 65535

#### Metadata

| Field        | Value   |
|--------------|---------|
| Entrypoint   | 0x0000  |
| Data Size    | 1 bytes |
| Instructions | 1       |

```
      00 01 02 03 04 05 06 07  08 09 0A 0B 0C 0D 0E 0F
      -- -- -- -- -- -- -- --  -- -- -- -- -- -- -- --
0000: 00                                                .               
```

#### Opcodes

```
  0: 0x0000 [0x00] END_REQSTACK()
```

### Event 65535.1

#### Metadata

| Field        | Value    |
|--------------|----------|
| Entrypoint   | 0x0001   |
| Data Size    | 16 bytes |
| Instructions | 2        |

```
      00 01 02 03 04 05 06 07  08 09 0A 0B 0C 0D 0E 0F
      -- -- -- -- -- -- -- --  -- -- -- -- -- -- -- --
0000:    66 00 80 F8 FF FF 7F  F8 FF FF 7F 74 6C 6B 30   f..........tlk0
0010: 00                                                .               
```

#### Opcodes

```
  0: 0x0001 [0x66] LOAD_EXT_SCHEDULER_MAIN: Load scheduler "tlk0" with entities [EventEntity, EventEntity], work=50*
  1: 0x0010 [0x00] END_REQSTACK()
```

### Event 65535.2

#### Metadata

| Field        | Value    |
|--------------|----------|
| Entrypoint   | 0x0011   |
| Data Size    | 14 bytes |
| Instructions | 2        |

```
      00 01 02 03 04 05 06 07  08 09 0A 0B 0C 0D 0E 0F
      -- -- -- -- -- -- -- --  -- -- -- -- -- -- -- --
0010:    53 F8 FF FF 7F F8 FF  FF 7F 74 6C 6B 30 00      S........tlk0. 
```

#### Opcodes

```
  0: 0x0011 [0x53] WAIT_SCHEDULER_TASK: Wait for scheduler "tlk0" with entities [EventEntity, EventEntity]
  1: 0x001E [0x00] END_REQSTACK()
```

### Event 65535.3

#### Metadata

| Field        | Value    |
|--------------|----------|
| Entrypoint   | 0x001F   |
| Data Size    | 16 bytes |
| Instructions | 2        |

```
      00 01 02 03 04 05 06 07  08 09 0A 0B 0C 0D 0E 0F
      -- -- -- -- -- -- -- --  -- -- -- -- -- -- -- --
0010:                                               66                 f
0020: 00 80 F8 FF FF 7F F8 FF  FF 7F 74 6C 6B 32 00     ..........tlk2. 
```

#### Opcodes

```
  0: 0x001F [0x66] LOAD_EXT_SCHEDULER_MAIN: Load scheduler "tlk2" with entities [EventEntity, EventEntity], work=50*
  1: 0x002E [0x00] END_REQSTACK()
```

### Event 65535.4

#### Metadata

| Field        | Value    |
|--------------|----------|
| Entrypoint   | 0x002F   |
| Data Size    | 14 bytes |
| Instructions | 2        |

```
      00 01 02 03 04 05 06 07  08 09 0A 0B 0C 0D 0E 0F
      -- -- -- -- -- -- -- --  -- -- -- -- -- -- -- --
0020:                                               53                 S
0030: F8 FF FF 7F F8 FF FF 7F  74 6C 6B 32 00           ........tlk2.   
```

#### Opcodes

```
  0: 0x002F [0x53] WAIT_SCHEDULER_TASK: Wait for scheduler "tlk2" with entities [EventEntity, EventEntity]
  1: 0x003C [0x00] END_REQSTACK()
```

### Event 65535.5

#### Metadata

| Field        | Value    |
|--------------|----------|
| Entrypoint   | 0x003D   |
| Data Size    | 16 bytes |
| Instructions | 2        |

```
      00 01 02 03 04 05 06 07  08 09 0A 0B 0C 0D 0E 0F
      -- -- -- -- -- -- -- --  -- -- -- -- -- -- -- --
0030:                                         66 00 80               f..
0040: F8 FF FF 7F F8 FF FF 7F  74 68 6B 31 00           ........thk1.   
```

#### Opcodes

```
  0: 0x003D [0x66] LOAD_EXT_SCHEDULER_MAIN: Load scheduler "thk1" with entities [EventEntity, EventEntity], work=50*
  1: 0x004C [0x00] END_REQSTACK()
```

### Event 65535.6

#### Metadata

| Field        | Value    |
|--------------|----------|
| Entrypoint   | 0x004D   |
| Data Size    | 14 bytes |
| Instructions | 2        |

```
      00 01 02 03 04 05 06 07  08 09 0A 0B 0C 0D 0E 0F
      -- -- -- -- -- -- -- --  -- -- -- -- -- -- -- --
0040:                                         53 F8 FF               S..
0050: FF 7F F8 FF FF 7F 74 68  6B 31 00                 ......thk1.     
```

#### Opcodes

```
  0: 0x004D [0x53] WAIT_SCHEDULER_TASK: Wait for scheduler "thk1" with entities [EventEntity, EventEntity]
  1: 0x005A [0x00] END_REQSTACK()
```

### Event 65535.7

#### Metadata

| Field        | Value    |
|--------------|----------|
| Entrypoint   | 0x005B   |
| Data Size    | 16 bytes |
| Instructions | 2        |

```
      00 01 02 03 04 05 06 07  08 09 0A 0B 0C 0D 0E 0F
      -- -- -- -- -- -- -- --  -- -- -- -- -- -- -- --
0050:                                   66 00 80 F8 FF             f....
0060: FF 7F F8 FF FF 7F 74 68  6B 32 00                 ......thk2.     
```

#### Opcodes

```
  0: 0x005B [0x66] LOAD_EXT_SCHEDULER_MAIN: Load scheduler "thk2" with entities [EventEntity, EventEntity], work=50*
  1: 0x006A [0x00] END_REQSTACK()
```

### Event 65535.8

#### Metadata

| Field        | Value    |
|--------------|----------|
| Entrypoint   | 0x006B   |
| Data Size    | 14 bytes |
| Instructions | 2        |

```
      00 01 02 03 04 05 06 07  08 09 0A 0B 0C 0D 0E 0F
      -- -- -- -- -- -- -- --  -- -- -- -- -- -- -- --
0060:                                   53 F8 FF FF 7F             S....
0070: F8 FF FF 7F 74 68 6B 32  00                       ....thk2.       
```

#### Opcodes

```
  0: 0x006B [0x53] WAIT_SCHEDULER_TASK: Wait for scheduler "thk2" with entities [EventEntity, EventEntity]
  1: 0x0078 [0x00] END_REQSTACK()
```

### Event 65535.9

#### Metadata

| Field        | Value    |
|--------------|----------|
| Entrypoint   | 0x0079   |
| Data Size    | 16 bytes |
| Instructions | 2        |

```
      00 01 02 03 04 05 06 07  08 09 0A 0B 0C 0D 0E 0F
      -- -- -- -- -- -- -- --  -- -- -- -- -- -- -- --
0070:                             66 01 80 F8 FF FF 7F           f......
0080: F8 FF FF 7F 64 69 73 30  00                       ....dis0.       
```

#### Opcodes

```
  0: 0x0079 [0x66] LOAD_EXT_SCHEDULER_MAIN: Load scheduler "dis0" with entities [EventEntity, EventEntity], work=52*
  1: 0x0088 [0x00] END_REQSTACK()
```

### Event 65535.10

#### Metadata

| Field        | Value    |
|--------------|----------|
| Entrypoint   | 0x0089   |
| Data Size    | 14 bytes |
| Instructions | 2        |

```
      00 01 02 03 04 05 06 07  08 09 0A 0B 0C 0D 0E 0F
      -- -- -- -- -- -- -- --  -- -- -- -- -- -- -- --
0080:                             53 F8 FF FF 7F F8 FF           S......
0090: FF 7F 64 69 73 30 00                              ..dis0.         
```

#### Opcodes

```
  0: 0x0089 [0x53] WAIT_SCHEDULER_TASK: Wait for scheduler "dis0" with entities [EventEntity, EventEntity]
  1: 0x0096 [0x00] END_REQSTACK()
```

### Event 65535.11

#### Metadata

| Field        | Value    |
|--------------|----------|
| Entrypoint   | 0x0097   |
| Data Size    | 16 bytes |
| Instructions | 2        |

```
      00 01 02 03 04 05 06 07  08 09 0A 0B 0C 0D 0E 0F
      -- -- -- -- -- -- -- --  -- -- -- -- -- -- -- --
0090:                      66  01 80 F8 FF FF 7F F8 FF         f........
00A0: FF 7F 74 6C 63 30 00                              ..tlc0.         
```

#### Opcodes

```
  0: 0x0097 [0x66] LOAD_EXT_SCHEDULER_MAIN: Load scheduler "tlc0" with entities [EventEntity, EventEntity], work=52*
  1: 0x00A6 [0x00] END_REQSTACK()
```

### Event 65535.12

#### Metadata

| Field        | Value    |
|--------------|----------|
| Entrypoint   | 0x00A7   |
| Data Size    | 14 bytes |
| Instructions | 2        |

```
      00 01 02 03 04 05 06 07  08 09 0A 0B 0C 0D 0E 0F
      -- -- -- -- -- -- -- --  -- -- -- -- -- -- -- --
00A0:                      53  F8 FF FF 7F F8 FF FF 7F         S........
00B0: 74 6C 63 30 00                                    tlc0.           
```

#### Opcodes

```
  0: 0x00A7 [0x53] WAIT_SCHEDULER_TASK: Wait for scheduler "tlc0" with entities [EventEntity, EventEntity]
  1: 0x00B4 [0x00] END_REQSTACK()
```

### Event 65535.13

#### Metadata

| Field        | Value    |
|--------------|----------|
| Entrypoint   | 0x00B5   |
| Data Size    | 16 bytes |
| Instructions | 2        |

```
      00 01 02 03 04 05 06 07  08 09 0A 0B 0C 0D 0E 0F
      -- -- -- -- -- -- -- --  -- -- -- -- -- -- -- --
00B0:                66 01 80  F8 FF FF 7F F8 FF FF 7F       f..........
00C0: 74 6C 63 31 00                                    tlc1.           
```

#### Opcodes

```
  0: 0x00B5 [0x66] LOAD_EXT_SCHEDULER_MAIN: Load scheduler "tlc1" with entities [EventEntity, EventEntity], work=52*
  1: 0x00C4 [0x00] END_REQSTACK()
```

### Event 65535.14

#### Metadata

| Field        | Value    |
|--------------|----------|
| Entrypoint   | 0x00C5   |
| Data Size    | 14 bytes |
| Instructions | 2        |

```
      00 01 02 03 04 05 06 07  08 09 0A 0B 0C 0D 0E 0F
      -- -- -- -- -- -- -- --  -- -- -- -- -- -- -- --
00C0:                53 F8 FF  FF 7F F8 FF FF 7F 74 6C       S........tl
00D0: 63 31 00                                          c1.             
```

#### Opcodes

```
  0: 0x00C5 [0x53] WAIT_SCHEDULER_TASK: Wait for scheduler "tlc1" with entities [EventEntity, EventEntity]
  1: 0x00D2 [0x00] END_REQSTACK()
```

### Event 65535.15

#### Metadata

| Field        | Value    |
|--------------|----------|
| Entrypoint   | 0x00D3   |
| Data Size    | 16 bytes |
| Instructions | 2        |

```
      00 01 02 03 04 05 06 07  08 09 0A 0B 0C 0D 0E 0F
      -- -- -- -- -- -- -- --  -- -- -- -- -- -- -- --
00D0:          66 02 80 F8 FF  FF 7F F8 FF FF 7F 74 6C     f..........tl
00E0: 62 31 00                                          b1.             
```

#### Opcodes

```
  0: 0x00D3 [0x66] LOAD_EXT_SCHEDULER_MAIN: Load scheduler "tlb1" with entities [EventEntity, EventEntity], work=53*
  1: 0x00E2 [0x00] END_REQSTACK()
```

### Event 65535.16

#### Metadata

| Field        | Value    |
|--------------|----------|
| Entrypoint   | 0x00E3   |
| Data Size    | 14 bytes |
| Instructions | 2        |

```
      00 01 02 03 04 05 06 07  08 09 0A 0B 0C 0D 0E 0F
      -- -- -- -- -- -- -- --  -- -- -- -- -- -- -- --
00E0:          53 F8 FF FF 7F  F8 FF FF 7F 74 6C 62 31     S........tlb1
00F0: 00                                                .               
```

#### Opcodes

```
  0: 0x00E3 [0x53] WAIT_SCHEDULER_TASK: Wait for scheduler "tlb1" with entities [EventEntity, EventEntity]
  1: 0x00F0 [0x00] END_REQSTACK()
```

### Event 65535.17

#### Metadata

| Field        | Value    |
|--------------|----------|
| Entrypoint   | 0x00F1   |
| Data Size    | 16 bytes |
| Instructions | 2        |

```
      00 01 02 03 04 05 06 07  08 09 0A 0B 0C 0D 0E 0F
      -- -- -- -- -- -- -- --  -- -- -- -- -- -- -- --
00F0:    66 02 80 F8 FF FF 7F  F8 FF FF 7F 74 6C 62 32   f..........tlb2
0100: 00                                                .               
```

#### Opcodes

```
  0: 0x00F1 [0x66] LOAD_EXT_SCHEDULER_MAIN: Load scheduler "tlb2" with entities [EventEntity, EventEntity], work=53*
  1: 0x0100 [0x00] END_REQSTACK()
```

### Event 65535.18

#### Metadata

| Field        | Value    |
|--------------|----------|
| Entrypoint   | 0x0101   |
| Data Size    | 14 bytes |
| Instructions | 2        |

```
      00 01 02 03 04 05 06 07  08 09 0A 0B 0C 0D 0E 0F
      -- -- -- -- -- -- -- --  -- -- -- -- -- -- -- --
0100:    53 F8 FF FF 7F F8 FF  FF 7F 74 6C 62 32 00      S........tlb2. 
```

#### Opcodes

```
  0: 0x0101 [0x53] WAIT_SCHEDULER_TASK: Wait for scheduler "tlb2" with entities [EventEntity, EventEntity]
  1: 0x010E [0x00] END_REQSTACK()
```

### Event 65535.19

#### Metadata

| Field        | Value    |
|--------------|----------|
| Entrypoint   | 0x010F   |
| Data Size    | 16 bytes |
| Instructions | 2        |

```
      00 01 02 03 04 05 06 07  08 09 0A 0B 0C 0D 0E 0F
      -- -- -- -- -- -- -- --  -- -- -- -- -- -- -- --
0100:                                               66                 f
0110: 02 80 F8 FF FF 7F F8 FF  FF 7F 6B 77 69 30 00     ..........kwi0. 
```

#### Opcodes

```
  0: 0x010F [0x66] LOAD_EXT_SCHEDULER_MAIN: Load scheduler "kwi0" with entities [EventEntity, EventEntity], work=53*
  1: 0x011E [0x00] END_REQSTACK()
```

### Event 65535.20

#### Metadata

| Field        | Value    |
|--------------|----------|
| Entrypoint   | 0x011F   |
| Data Size    | 14 bytes |
| Instructions | 2        |

```
      00 01 02 03 04 05 06 07  08 09 0A 0B 0C 0D 0E 0F
      -- -- -- -- -- -- -- --  -- -- -- -- -- -- -- --
0110:                                               53                 S
0120: F8 FF FF 7F F8 FF FF 7F  6B 77 69 30 00           ........kwi0.   
```

#### Opcodes

```
  0: 0x011F [0x53] WAIT_SCHEDULER_TASK: Wait for scheduler "kwi0" with entities [EventEntity, EventEntity]
  1: 0x012C [0x00] END_REQSTACK()
```

### Event 65535.21

#### Metadata

| Field        | Value    |
|--------------|----------|
| Entrypoint   | 0x012D   |
| Data Size    | 16 bytes |
| Instructions | 2        |

```
      00 01 02 03 04 05 06 07  08 09 0A 0B 0C 0D 0E 0F
      -- -- -- -- -- -- -- --  -- -- -- -- -- -- -- --
0120:                                         66 03 80               f..
0130: F8 FF FF 7F F8 FF FF 7F  6D 68 69 30 00           ........mhi0.   
```

#### Opcodes

```
  0: 0x012D [0x66] LOAD_EXT_SCHEDULER_MAIN: Load scheduler "mhi0" with entities [EventEntity, EventEntity], work=57*
  1: 0x013C [0x00] END_REQSTACK()
```

### Event 65535.22

#### Metadata

| Field        | Value    |
|--------------|----------|
| Entrypoint   | 0x013D   |
| Data Size    | 14 bytes |
| Instructions | 2        |

```
      00 01 02 03 04 05 06 07  08 09 0A 0B 0C 0D 0E 0F
      -- -- -- -- -- -- -- --  -- -- -- -- -- -- -- --
0130:                                         53 F8 FF               S..
0140: FF 7F F8 FF FF 7F 6D 68  69 30 00                 ......mhi0.     
```

#### Opcodes

```
  0: 0x013D [0x53] WAIT_SCHEDULER_TASK: Wait for scheduler "mhi0" with entities [EventEntity, EventEntity]
  1: 0x014A [0x00] END_REQSTACK()
```

### Event 65535.23

#### Metadata

| Field        | Value   |
|--------------|---------|
| Entrypoint   | 0x014B  |
| Data Size    | 9 bytes |
| Instructions | 3       |

```
      00 01 02 03 04 05 06 07  08 09 0A 0B 0C 0D 0E 0F
      -- -- -- -- -- -- -- --  -- -- -- -- -- -- -- --
0140:                                   5E 69 64 6C 30             ^idl0
0150: 1C 04 80 00                                       ....            
```

#### Opcodes

```
  0: 0x014B [0x5E] EventEntity goes idle (kills current action) (animation: "idl0")
  1: 0x0150 [0x1C] WAIT(30* ticks)
  2: 0x0153 [0x00] END_REQSTACK()
```

### Event 89

#### Metadata

| Field        | Value    |
|--------------|----------|
| Entrypoint   | 0x0154   |
| Data Size    | 15 bytes |
| Instructions | 8        |

```
      00 01 02 03 04 05 06 07  08 09 0A 0B 0C 0D 0E 0F
      -- -- -- -- -- -- -- --  -- -- -- -- -- -- -- --
0150:             1E F0 FF FF  7F 6F 70 1D 05 80 23 20      .....op...# 
0160: 00 21 00                                          .!.             
```

#### Opcodes

```
  0: 0x0154 [0x1E] EventEntity looks at LocalPlayer and starts talking
  1: 0x0159 [0x6F] WAIT_FRAME_DELAY: Yield until WaitTime reaches zero
  2: 0x015A [0x70] WAIT_ENTITY_RENDER_FLAG: Wait while EventEntity->Render.Flags3 bit 2 is set (cancel turn if not)
  3: 0x015B [0x1D] PRINT_EVENT_MESSAGE(message_id=87*)
    → "Sibyl Guard Vahn Paineesha! I will personally punish any who even think of harming the Starrr Sibyl."
  4: 0x015E [0x23] WAIT_FOR_DIALOG_INTERACTION
  5: 0x015F [0x20] SET_CLI_EVENT_UC_FLAG: Unlock player control
  6: 0x0161 [0x21] END_EVENT
  7: 0x0162 [0x00] END_REQSTACK()
```

### Event 6

#### Metadata

| Field        | Value   |
|--------------|---------|
| Entrypoint   | 0x0163  |
| Data Size    | 1 bytes |
| Instructions | 1       |

```
      00 01 02 03 04 05 06 07  08 09 0A 0B 0C 0D 0E 0F
      -- -- -- -- -- -- -- --  -- -- -- -- -- -- -- --
0160:          00                                          .            
```

#### Opcodes

```
  0: 0x0163 [0x00] END_REQSTACK()
```

### Event 107

#### Metadata

| Field        | Value   |
|--------------|---------|
| Entrypoint   | 0x0164  |
| Data Size    | 1 bytes |
| Instructions | 1       |

```
      00 01 02 03 04 05 06 07  08 09 0A 0B 0C 0D 0E 0F
      -- -- -- -- -- -- -- --  -- -- -- -- -- -- -- --
0160:             00                                        .           
```

#### Opcodes

```
  0: 0x0164 [0x00] END_REQSTACK()
```

### Event 65535.24

#### Metadata

| Field        | Value    |
|--------------|----------|
| Entrypoint   | 0x0165   |
| Data Size    | 10 bytes |
| Instructions | 2        |

```
      00 01 02 03 04 05 06 07  08 09 0A 0B 0C 0D 0E 0F
      -- -- -- -- -- -- -- --  -- -- -- -- -- -- -- --
0160:                37 06 80  07 80 08 80 09 80 00          7......... 
```

#### Opcodes

```
  0: 0x0165 [0x37] UPDATE_EVENT_POSITION_AND_DIR: x=-1.333*, z=-12.035*, y=-46.999*, direction=278.9°*
  1: 0x016E [0x00] END_REQSTACK()
```

### Event 65535.25

#### Metadata

| Field        | Value    |
|--------------|----------|
| Entrypoint   | 0x016F   |
| Data Size    | 51 bytes |
| Instructions | 9        |

```
      00 01 02 03 04 05 06 07  08 09 0A 0B 0C 0D 0E 0F
      -- -- -- -- -- -- -- --  -- -- -- -- -- -- -- --
0160:                                               1C                 .
0170: 04 80 1F 00 0A 80 0B 80  0C 80 1F 01 6F 5E 69 64  ............o^id
0180: 6C 30 1C 0D 80 66 03 80  F8 FF FF 7F F8 FF FF 7F  l0...f..........
0190: 6D 68 69 30 53 F8 FF FF  7F F8 FF FF 7F 6D 68 69  mhi0S........mhi
01A0: 30 00                                             0.              
```

#### Opcodes

```
  0: 0x016F [0x1C] WAIT(30* ticks)
  1: 0x0172 [0x1F] MOVE_ENTITY: EventEntity moves to X=-2.127*, Z=-25.998*, Y=-45.000*
  2: 0x017A [0x1F] MOVE_ENTITY: Update entity position (mode=1)
  3: 0x017C [0x6F] WAIT_FRAME_DELAY: Yield until WaitTime reaches zero
  4: 0x017D [0x5E] EventEntity goes idle (kills current action) (animation: "idl0")
  5: 0x0182 [0x1C] WAIT(3* ticks)
  6: 0x0185 [0x66] LOAD_EXT_SCHEDULER_MAIN: Load scheduler "mhi0" with entities [EventEntity, EventEntity], work=57*
  7: 0x0194 [0x53] WAIT_SCHEDULER_TASK: Wait for scheduler "mhi0" with entities [EventEntity, EventEntity]
  8: 0x01A1 [0x00] END_REQSTACK()
```

### Event 65535.26

#### Metadata

| Field        | Value   |
|--------------|---------|
| Entrypoint   | 0x01A2  |
| Data Size    | 5 bytes |
| Instructions | 3       |

```
      00 01 02 03 04 05 06 07  08 09 0A 0B 0C 0D 0E 0F
      -- -- -- -- -- -- -- --  -- -- -- -- -- -- -- --
01A0:       1D 0E 80 23 00                                ...#.         
```

#### Opcodes

```
  0: 0x01A2 [0x1D] PRINT_EVENT_MESSAGE(message_id=161*)
    → "Lady Semih Lafihna has prohibited you from entering this arrrea!"
  1: 0x01A5 [0x23] WAIT_FOR_DIALOG_INTERACTION
  2: 0x01A6 [0x00] END_REQSTACK()
```

### Event 109

#### Metadata

| Field        | Value    |
|--------------|----------|
| Entrypoint   | 0x01A7   |
| Data Size    | 40 bytes |
| Instructions | 13       |

```
      00 01 02 03 04 05 06 07  08 09 0A 0B 0C 0D 0E 0F
      -- -- -- -- -- -- -- --  -- -- -- -- -- -- -- --
01A0:                      1E  F0 FF FF 7F 6F 70 29 08         .....op).
01B0: 21 20 0F 01 01 1D 0F 80  23 1D 10 80 23 29 08 21  ! ......#...#).!
01C0: 20 0F 01 03 29 08 21 20  0F 01 04 20 00 21 00      ...).! ... .!. 
```

#### Opcodes

```
  0: 0x01A7 [0x1E] EventEntity looks at LocalPlayer and starts talking
  1: 0x01AC [0x6F] WAIT_FRAME_DELAY: Yield until WaitTime reaches zero
  2: 0x01AD [0x70] WAIT_ENTITY_RENDER_FLAG: Wait while EventEntity->Render.Flags3 bit 2 is set (cancel turn if not)
  3: 0x01AE [0x29] REQ_SET_WAIT(priority=0x08, entity_id=Vahn Paineesha (ID: 17768481/0x010F2021), tag_num=0x01)
  4: 0x01B5 [0x1D] PRINT_EVENT_MESSAGE(message_id=181*)
    → "If it wasn't for the Sibyl Guards' strrrength in numbers, we would have had no chance against a powerful magician like Ajido-Marujido."
  5: 0x01B8 [0x23] WAIT_FOR_DIALOG_INTERACTION
  6: 0x01B9 [0x1D] PRINT_EVENT_MESSAGE(message_id=182*)
    → "But, to tell you the trrruth, I think that Lady Semih Lafihna could have taken his little head off with one swipe of her claws."
  7: 0x01BC [0x23] WAIT_FOR_DIALOG_INTERACTION
  8: 0x01BD [0x29] REQ_SET_WAIT(priority=0x08, entity_id=Vahn Paineesha (ID: 17768481/0x010F2021), tag_num=0x03)
  9: 0x01C4 [0x29] REQ_SET_WAIT(priority=0x08, entity_id=Vahn Paineesha (ID: 17768481/0x010F2021), tag_num=0x04)
 10: 0x01CB [0x20] SET_CLI_EVENT_UC_FLAG: Unlock player control
 11: 0x01CD [0x21] END_EVENT
 12: 0x01CE [0x00] END_REQSTACK()
```

### Event 114

#### Metadata

| Field        | Value   |
|--------------|---------|
| Entrypoint   | 0x01CF  |
| Data Size    | 1 bytes |
| Instructions | 1       |

```
      00 01 02 03 04 05 06 07  08 09 0A 0B 0C 0D 0E 0F
      -- -- -- -- -- -- -- --  -- -- -- -- -- -- -- --
01C0:                                               00                 .
```

#### Opcodes

```
  0: 0x01CF [0x00] END_REQSTACK()
```

### Event 116

#### Metadata

| Field        | Value    |
|--------------|----------|
| Entrypoint   | 0x01D0   |
| Data Size    | 40 bytes |
| Instructions | 13       |

```
      00 01 02 03 04 05 06 07  08 09 0A 0B 0C 0D 0E 0F
      -- -- -- -- -- -- -- --  -- -- -- -- -- -- -- --
01D0: 1E F0 FF FF 7F 6F 70 29  08 21 20 0F 01 01 1D 11  .....op).! .....
01E0: 80 23 1D 12 80 23 29 08  21 20 0F 01 03 29 08 21  .#...#).! ...).!
01F0: 20 0F 01 04 20 00 21 00                            ... .!.        
```

#### Opcodes

```
  0: 0x01D0 [0x1E] EventEntity looks at LocalPlayer and starts talking
  1: 0x01D5 [0x6F] WAIT_FRAME_DELAY: Yield until WaitTime reaches zero
  2: 0x01D6 [0x70] WAIT_ENTITY_RENDER_FLAG: Wait while EventEntity->Render.Flags3 bit 2 is set (cancel turn if not)
  3: 0x01D7 [0x29] REQ_SET_WAIT(priority=0x08, entity_id=Vahn Paineesha (ID: 17768481/0x010F2021), tag_num=0x01)
  4: 0x01DE [0x1D] PRINT_EVENT_MESSAGE(message_id=201*)
    → "The Yagudo are not as ignorant as many may think. In the Great Warrr, their tactics confused even our finest leaderrrs."
  5: 0x01E1 [0x23] WAIT_FOR_DIALOG_INTERACTION
  6: 0x01E2 [0x1D] PRINT_EVENT_MESSAGE(message_id=202*)
    → "There must be some rrreason for them allowing the Orastery ministerrr to return unharmed."
  7: 0x01E5 [0x23] WAIT_FOR_DIALOG_INTERACTION
  8: 0x01E6 [0x29] REQ_SET_WAIT(priority=0x08, entity_id=Vahn Paineesha (ID: 17768481/0x010F2021), tag_num=0x03)
  9: 0x01ED [0x29] REQ_SET_WAIT(priority=0x08, entity_id=Vahn Paineesha (ID: 17768481/0x010F2021), tag_num=0x04)
 10: 0x01F4 [0x20] SET_CLI_EVENT_UC_FLAG: Unlock player control
 11: 0x01F6 [0x21] END_EVENT
 12: 0x01F7 [0x00] END_REQSTACK()
```

### Event 173

#### Metadata

| Field        | Value    |
|--------------|----------|
| Entrypoint   | 0x01F8   |
| Data Size    | 40 bytes |
| Instructions | 13       |

```
      00 01 02 03 04 05 06 07  08 09 0A 0B 0C 0D 0E 0F
      -- -- -- -- -- -- -- --  -- -- -- -- -- -- -- --
01F0:                          1E F0 FF FF 7F 6F 70 29          .....op)
0200: 08 21 20 0F 01 01 1D 13  80 23 1D 14 80 23 29 08  .! ......#...#).
0210: 21 20 0F 01 03 29 08 21  20 0F 01 04 20 00 21 00  ! ...).! ... .!.
```

#### Opcodes

```
  0: 0x01F8 [0x1E] EventEntity looks at LocalPlayer and starts talking
  1: 0x01FD [0x6F] WAIT_FRAME_DELAY: Yield until WaitTime reaches zero
  2: 0x01FE [0x70] WAIT_ENTITY_RENDER_FLAG: Wait while EventEntity->Render.Flags3 bit 2 is set (cancel turn if not)
  3: 0x01FF [0x29] REQ_SET_WAIT(priority=0x08, entity_id=Vahn Paineesha (ID: 17768481/0x010F2021), tag_num=0x01)
  4: 0x0206 [0x1D] PRINT_EVENT_MESSAGE(message_id=356*)
    → "During any Star Reading ceremony, we Sibyl Guarrrds are present in the hall with the ladies-in-waiting."
  5: 0x0209 [0x23] WAIT_FOR_DIALOG_INTERACTION
  6: 0x020A [0x1D] PRINT_EVENT_MESSAGE(message_id=357*)
    → "The same is true for the night on which the talisman was stolen. However, none of us saw any "bearerrrs of darkness.""
  7: 0x020D [0x23] WAIT_FOR_DIALOG_INTERACTION
  8: 0x020E [0x29] REQ_SET_WAIT(priority=0x08, entity_id=Vahn Paineesha (ID: 17768481/0x010F2021), tag_num=0x03)
  9: 0x0215 [0x29] REQ_SET_WAIT(priority=0x08, entity_id=Vahn Paineesha (ID: 17768481/0x010F2021), tag_num=0x04)
 10: 0x021C [0x20] SET_CLI_EVENT_UC_FLAG: Unlock player control
 11: 0x021E [0x21] END_EVENT
 12: 0x021F [0x00] END_REQSTACK()
```

### Event 198

#### Metadata

| Field        | Value    |
|--------------|----------|
| Entrypoint   | 0x0220   |
| Data Size    | 40 bytes |
| Instructions | 13       |

```
      00 01 02 03 04 05 06 07  08 09 0A 0B 0C 0D 0E 0F
      -- -- -- -- -- -- -- --  -- -- -- -- -- -- -- --
0220: 1E F0 FF FF 7F 6F 70 29  08 21 20 0F 01 01 1D 15  .....op).! .....
0230: 80 23 1D 16 80 23 29 08  21 20 0F 01 03 29 08 21  .#...#).! ...).!
0240: 20 0F 01 04 20 00 21 00                            ... .!.        
```

#### Opcodes

```
  0: 0x0220 [0x1E] EventEntity looks at LocalPlayer and starts talking
  1: 0x0225 [0x6F] WAIT_FRAME_DELAY: Yield until WaitTime reaches zero
  2: 0x0226 [0x70] WAIT_ENTITY_RENDER_FLAG: Wait while EventEntity->Render.Flags3 bit 2 is set (cancel turn if not)
  3: 0x0227 [0x29] REQ_SET_WAIT(priority=0x08, entity_id=Vahn Paineesha (ID: 17768481/0x010F2021), tag_num=0x01)
  4: 0x022E [0x1D] PRINT_EVENT_MESSAGE(message_id=442*)
    → "It's times like these when you can tell the Tarutaru hate conflict."
  5: 0x0231 [0x23] WAIT_FOR_DIALOG_INTERACTION
  6: 0x0232 [0x1D] PRINT_EVENT_MESSAGE(message_id=443*)
    → "The Shadow Lord's rrreturn is near, and they are having conferrrences... Unbelievable!"
  7: 0x0235 [0x23] WAIT_FOR_DIALOG_INTERACTION
  8: 0x0236 [0x29] REQ_SET_WAIT(priority=0x08, entity_id=Vahn Paineesha (ID: 17768481/0x010F2021), tag_num=0x03)
  9: 0x023D [0x29] REQ_SET_WAIT(priority=0x08, entity_id=Vahn Paineesha (ID: 17768481/0x010F2021), tag_num=0x04)
 10: 0x0244 [0x20] SET_CLI_EVENT_UC_FLAG: Unlock player control
 11: 0x0246 [0x21] END_EVENT
 12: 0x0247 [0x00] END_REQSTACK()
```

### Event 221

#### Metadata

| Field        | Value    |
|--------------|----------|
| Entrypoint   | 0x0248   |
| Data Size    | 40 bytes |
| Instructions | 13       |

```
      00 01 02 03 04 05 06 07  08 09 0A 0B 0C 0D 0E 0F
      -- -- -- -- -- -- -- --  -- -- -- -- -- -- -- --
0240:                          1E F0 FF FF 7F 6F 70 29          .....op)
0250: 08 21 20 0F 01 01 1D 17  80 23 1D 18 80 23 29 08  .! ......#...#).
0260: 21 20 0F 01 03 29 08 21  20 0F 01 04 20 00 21 00  ! ...).! ... .!.
```

#### Opcodes

```
  0: 0x0248 [0x1E] EventEntity looks at LocalPlayer and starts talking
  1: 0x024D [0x6F] WAIT_FRAME_DELAY: Yield until WaitTime reaches zero
  2: 0x024E [0x70] WAIT_ENTITY_RENDER_FLAG: Wait while EventEntity->Render.Flags3 bit 2 is set (cancel turn if not)
  3: 0x024F [0x29] REQ_SET_WAIT(priority=0x08, entity_id=Vahn Paineesha (ID: 17768481/0x010F2021), tag_num=0x01)
  4: 0x0256 [0x1D] PRINT_EVENT_MESSAGE(message_id=493*)
    → "I heard the news! Who would have thought that a simple adventurerrr could foil the plans of the beastmen?"
  5: 0x0259 [0x23] WAIT_FOR_DIALOG_INTERACTION
  6: 0x025A [0x1D] PRINT_EVENT_MESSAGE(message_id=494*)
    → "I am honored to live and work in the same great countrrry as you, [Sir/Lady] <Player>!"
  7: 0x025D [0x23] WAIT_FOR_DIALOG_INTERACTION
  8: 0x025E [0x29] REQ_SET_WAIT(priority=0x08, entity_id=Vahn Paineesha (ID: 17768481/0x010F2021), tag_num=0x03)
  9: 0x0265 [0x29] REQ_SET_WAIT(priority=0x08, entity_id=Vahn Paineesha (ID: 17768481/0x010F2021), tag_num=0x04)
 10: 0x026C [0x20] SET_CLI_EVENT_UC_FLAG: Unlock player control
 11: 0x026E [0x21] END_EVENT
 12: 0x026F [0x00] END_REQSTACK()
```

### Event 322

#### Metadata

| Field        | Value    |
|--------------|----------|
| Entrypoint   | 0x0270   |
| Data Size    | 40 bytes |
| Instructions | 13       |

```
      00 01 02 03 04 05 06 07  08 09 0A 0B 0C 0D 0E 0F
      -- -- -- -- -- -- -- --  -- -- -- -- -- -- -- --
0270: 1E F0 FF FF 7F 6F 70 29  08 21 20 0F 01 01 1D 19  .....op).! .....
0280: 80 23 1D 1A 80 23 29 08  21 20 0F 01 03 29 08 21  .#...#).! ...).!
0290: 20 0F 01 04 20 00 21 00                            ... .!.        
```

#### Opcodes

```
  0: 0x0270 [0x1E] EventEntity looks at LocalPlayer and starts talking
  1: 0x0275 [0x6F] WAIT_FRAME_DELAY: Yield until WaitTime reaches zero
  2: 0x0276 [0x70] WAIT_ENTITY_RENDER_FLAG: Wait while EventEntity->Render.Flags3 bit 2 is set (cancel turn if not)
  3: 0x0277 [0x29] REQ_SET_WAIT(priority=0x08, entity_id=Vahn Paineesha (ID: 17768481/0x010F2021), tag_num=0x01)
  4: 0x027E [0x1D] PRINT_EVENT_MESSAGE(message_id=8128*)
    → "The objectives of the missions given out at gatehouses are not prrroperly scrutinized. It seems the ministers are having adventurers participate in all sorts of harebrrrained schemes."
  5: 0x0281 [0x23] WAIT_FOR_DIALOG_INTERACTION
  6: 0x0282 [0x1D] PRINT_EVENT_MESSAGE(message_id=8129*)
    → "Brrringing the ministers back into line will be the first step in changing Windurst for the better."
  7: 0x0285 [0x23] WAIT_FOR_DIALOG_INTERACTION
  8: 0x0286 [0x29] REQ_SET_WAIT(priority=0x08, entity_id=Vahn Paineesha (ID: 17768481/0x010F2021), tag_num=0x03)
  9: 0x028D [0x29] REQ_SET_WAIT(priority=0x08, entity_id=Vahn Paineesha (ID: 17768481/0x010F2021), tag_num=0x04)
 10: 0x0294 [0x20] SET_CLI_EVENT_UC_FLAG: Unlock player control
 11: 0x0296 [0x21] END_EVENT
 12: 0x0297 [0x00] END_REQSTACK()
```

### Event 305

#### Metadata

| Field        | Value    |
|--------------|----------|
| Entrypoint   | 0x0298   |
| Data Size    | 40 bytes |
| Instructions | 13       |

```
      00 01 02 03 04 05 06 07  08 09 0A 0B 0C 0D 0E 0F
      -- -- -- -- -- -- -- --  -- -- -- -- -- -- -- --
0290:                          1E F0 FF FF 7F 6F 70 29          .....op)
02A0: 08 21 20 0F 01 01 1D 1B  80 23 1D 1C 80 23 29 08  .! ......#...#).
02B0: 21 20 0F 01 03 29 08 21  20 0F 01 04 20 00 21 00  ! ...).! ... .!.
```

#### Opcodes

```
  0: 0x0298 [0x1E] EventEntity looks at LocalPlayer and starts talking
  1: 0x029D [0x6F] WAIT_FRAME_DELAY: Yield until WaitTime reaches zero
  2: 0x029E [0x70] WAIT_ENTITY_RENDER_FLAG: Wait while EventEntity->Render.Flags3 bit 2 is set (cancel turn if not)
  3: 0x029F [0x29] REQ_SET_WAIT(priority=0x08, entity_id=Vahn Paineesha (ID: 17768481/0x010F2021), tag_num=0x01)
  4: 0x02A6 [0x1D] PRINT_EVENT_MESSAGE(message_id=8153*)
    → "Opening the Darrrk Dungeon requires a "Charm of Darkness." However, only the Star Sibyl is capable of making them."
  5: 0x02A9 [0x23] WAIT_FOR_DIALOG_INTERACTION
  6: 0x02AA [0x1D] PRINT_EVENT_MESSAGE(message_id=8154*)
    → "This spells the end for the Orastery ministerrr... It's such a shame..."
  7: 0x02AD [0x23] WAIT_FOR_DIALOG_INTERACTION
  8: 0x02AE [0x29] REQ_SET_WAIT(priority=0x08, entity_id=Vahn Paineesha (ID: 17768481/0x010F2021), tag_num=0x03)
  9: 0x02B5 [0x29] REQ_SET_WAIT(priority=0x08, entity_id=Vahn Paineesha (ID: 17768481/0x010F2021), tag_num=0x04)
 10: 0x02BC [0x20] SET_CLI_EVENT_UC_FLAG: Unlock player control
 11: 0x02BE [0x21] END_EVENT
 12: 0x02BF [0x00] END_REQSTACK()
```

### Event 368

#### Metadata

| Field        | Value    |
|--------------|----------|
| Entrypoint   | 0x02C0   |
| Data Size    | 40 bytes |
| Instructions | 13       |

```
      00 01 02 03 04 05 06 07  08 09 0A 0B 0C 0D 0E 0F
      -- -- -- -- -- -- -- --  -- -- -- -- -- -- -- --
02C0: 1E F0 FF FF 7F 6F 70 29  08 21 20 0F 01 01 1D 1D  .....op).! .....
02D0: 80 23 1D 1E 80 23 29 08  21 20 0F 01 03 29 08 21  .#...#).! ...).!
02E0: 20 0F 01 04 20 00 21 00                            ... .!.        
```

#### Opcodes

```
  0: 0x02C0 [0x1E] EventEntity looks at LocalPlayer and starts talking
  1: 0x02C5 [0x6F] WAIT_FRAME_DELAY: Yield until WaitTime reaches zero
  2: 0x02C6 [0x70] WAIT_ENTITY_RENDER_FLAG: Wait while EventEntity->Render.Flags3 bit 2 is set (cancel turn if not)
  3: 0x02C7 [0x29] REQ_SET_WAIT(priority=0x08, entity_id=Vahn Paineesha (ID: 17768481/0x010F2021), tag_num=0x01)
  4: 0x02CE [0x1D] PRINT_EVENT_MESSAGE(message_id=8309*)
    → "We were faced with such incredible powerrr... Even we Sibyl Guards were frozen to the spot by the terrrror that creature inspired."
  5: 0x02D1 [0x23] WAIT_FOR_DIALOG_INTERACTION
  6: 0x02D2 [0x1D] PRINT_EVENT_MESSAGE(message_id=8310*)
    → "In coming to Heavens Tower, was its goal to seek out the Star Sibyl?"
  7: 0x02D5 [0x23] WAIT_FOR_DIALOG_INTERACTION
  8: 0x02D6 [0x29] REQ_SET_WAIT(priority=0x08, entity_id=Vahn Paineesha (ID: 17768481/0x010F2021), tag_num=0x03)
  9: 0x02DD [0x29] REQ_SET_WAIT(priority=0x08, entity_id=Vahn Paineesha (ID: 17768481/0x010F2021), tag_num=0x04)
 10: 0x02E4 [0x20] SET_CLI_EVENT_UC_FLAG: Unlock player control
 11: 0x02E6 [0x21] END_EVENT
 12: 0x02E7 [0x00] END_REQSTACK()
```

### Event 373

#### Metadata

| Field        | Value    |
|--------------|----------|
| Entrypoint   | 0x02E8   |
| Data Size    | 44 bytes |
| Instructions | 15       |

```
      00 01 02 03 04 05 06 07  08 09 0A 0B 0C 0D 0E 0F
      -- -- -- -- -- -- -- --  -- -- -- -- -- -- -- --
02E0:                          1E F0 FF FF 7F 6F 70 29          .....op)
02F0: 08 21 20 0F 01 01 1D 1F  80 23 1D 20 80 23 1D 21  .! ......#. .#.!
0300: 80 23 29 08 21 20 0F 01  03 29 08 21 20 0F 01 04  .#).! ...).! ...
0310: 20 00 21 00                                        .!.            
```

#### Opcodes

```
  0: 0x02E8 [0x1E] EventEntity looks at LocalPlayer and starts talking
  1: 0x02ED [0x6F] WAIT_FRAME_DELAY: Yield until WaitTime reaches zero
  2: 0x02EE [0x70] WAIT_ENTITY_RENDER_FLAG: Wait while EventEntity->Render.Flags3 bit 2 is set (cancel turn if not)
  3: 0x02EF [0x29] REQ_SET_WAIT(priority=0x08, entity_id=Vahn Paineesha (ID: 17768481/0x010F2021), tag_num=0x01)
  4: 0x02F6 [0x1D] PRINT_EVENT_MESSAGE(message_id=8322*)
    → "We Sibyl Guards were formed to protect the perrrson of the Star Sibyl."
  5: 0x02F9 [0x23] WAIT_FOR_DIALOG_INTERACTION
  6: 0x02FA [0x1D] PRINT_EVENT_MESSAGE(message_id=8323*)
    → "But if we can't perform our duties as bodyguards, our prrresence here outside the Vestal Chamber becomes no more than a charrrade."
  7: 0x02FD [0x23] WAIT_FOR_DIALOG_INTERACTION
  8: 0x02FE [0x1D] PRINT_EVENT_MESSAGE(message_id=8324*)
    → "...This must be something like the frustrrration the Star Sibyl felt when performing those meaningless ceremonies at the magic-drained Star Spring."
  9: 0x0301 [0x23] WAIT_FOR_DIALOG_INTERACTION
 10: 0x0302 [0x29] REQ_SET_WAIT(priority=0x08, entity_id=Vahn Paineesha (ID: 17768481/0x010F2021), tag_num=0x03)
 11: 0x0309 [0x29] REQ_SET_WAIT(priority=0x08, entity_id=Vahn Paineesha (ID: 17768481/0x010F2021), tag_num=0x04)
 12: 0x0310 [0x20] SET_CLI_EVENT_UC_FLAG: Unlock player control
 13: 0x0312 [0x21] END_EVENT
 14: 0x0313 [0x00] END_REQSTACK()
```

### Event 379

#### Metadata

| Field        | Value    |
|--------------|----------|
| Entrypoint   | 0x0314   |
| Data Size    | 40 bytes |
| Instructions | 13       |

```
      00 01 02 03 04 05 06 07  08 09 0A 0B 0C 0D 0E 0F
      -- -- -- -- -- -- -- --  -- -- -- -- -- -- -- --
0310:             1E F0 FF FF  7F 6F 70 29 08 21 20 0F      .....op).! .
0320: 01 01 1D 22 80 23 1D 23  80 23 29 08 21 20 0F 01  ...".#.#.#).! ..
0330: 03 29 08 21 20 0F 01 04  20 00 21 00              .).! ... .!.    
```

#### Opcodes

```
  0: 0x0314 [0x1E] EventEntity looks at LocalPlayer and starts talking
  1: 0x0319 [0x6F] WAIT_FRAME_DELAY: Yield until WaitTime reaches zero
  2: 0x031A [0x70] WAIT_ENTITY_RENDER_FLAG: Wait while EventEntity->Render.Flags3 bit 2 is set (cancel turn if not)
  3: 0x031B [0x29] REQ_SET_WAIT(priority=0x08, entity_id=Vahn Paineesha (ID: 17768481/0x010F2021), tag_num=0x01)
  4: 0x0322 [0x1D] PRINT_EVENT_MESSAGE(message_id=8449*)
    → "At times like this, the Star Sibyl's stamina and spirrrit are being put to the test."
  5: 0x0325 [0x23] WAIT_FOR_DIALOG_INTERACTION
  6: 0x0326 [0x1D] PRINT_EVENT_MESSAGE(message_id=8450*)
    → "We must rescue her from those puppets as soon as possible, but Semih Lafihna has yet to give the orrrder. I suppose just rushing in might make things worrrse..."
  7: 0x0329 [0x23] WAIT_FOR_DIALOG_INTERACTION
  8: 0x032A [0x29] REQ_SET_WAIT(priority=0x08, entity_id=Vahn Paineesha (ID: 17768481/0x010F2021), tag_num=0x03)
  9: 0x0331 [0x29] REQ_SET_WAIT(priority=0x08, entity_id=Vahn Paineesha (ID: 17768481/0x010F2021), tag_num=0x04)
 10: 0x0338 [0x20] SET_CLI_EVENT_UC_FLAG: Unlock player control
 11: 0x033A [0x21] END_EVENT
 12: 0x033B [0x00] END_REQSTACK()
```

### Event 382

#### Metadata

| Field        | Value    |
|--------------|----------|
| Entrypoint   | 0x033C   |
| Data Size    | 36 bytes |
| Instructions | 11       |

```
      00 01 02 03 04 05 06 07  08 09 0A 0B 0C 0D 0E 0F
      -- -- -- -- -- -- -- --  -- -- -- -- -- -- -- --
0330:                                      1E F0 FF FF              ....
0340: 7F 6F 70 29 08 21 20 0F  01 01 1D 24 80 23 29 08  .op).! ....$.#).
0350: 21 20 0F 01 03 29 08 21  20 0F 01 04 20 00 21 00  ! ...).! ... .!.
```

#### Opcodes

```
  0: 0x033C [0x1E] EventEntity looks at LocalPlayer and starts talking
  1: 0x0341 [0x6F] WAIT_FRAME_DELAY: Yield until WaitTime reaches zero
  2: 0x0342 [0x70] WAIT_ENTITY_RENDER_FLAG: Wait while EventEntity->Render.Flags3 bit 2 is set (cancel turn if not)
  3: 0x0343 [0x29] REQ_SET_WAIT(priority=0x08, entity_id=Vahn Paineesha (ID: 17768481/0x010F2021), tag_num=0x01)
  4: 0x034A [0x1D] PRINT_EVENT_MESSAGE(message_id=8457*)
    → "Semih Lafihna has given her orrrders. The time has come for the Sibyl Guards to unsheathe our claws and fight with all our strrrength..."
  5: 0x034D [0x23] WAIT_FOR_DIALOG_INTERACTION
  6: 0x034E [0x29] REQ_SET_WAIT(priority=0x08, entity_id=Vahn Paineesha (ID: 17768481/0x010F2021), tag_num=0x03)
  7: 0x0355 [0x29] REQ_SET_WAIT(priority=0x08, entity_id=Vahn Paineesha (ID: 17768481/0x010F2021), tag_num=0x04)
  8: 0x035C [0x20] SET_CLI_EVENT_UC_FLAG: Unlock player control
  9: 0x035E [0x21] END_EVENT
 10: 0x035F [0x00] END_REQSTACK()
```

### Event 404

#### Metadata

| Field        | Value    |
|--------------|----------|
| Entrypoint   | 0x0360   |
| Data Size    | 40 bytes |
| Instructions | 13       |

```
      00 01 02 03 04 05 06 07  08 09 0A 0B 0C 0D 0E 0F
      -- -- -- -- -- -- -- --  -- -- -- -- -- -- -- --
0360: 1E F0 FF FF 7F 6F 70 29  08 21 20 0F 01 01 1D 25  .....op).! ....%
0370: 80 23 1D 26 80 23 29 08  21 20 0F 01 03 29 08 21  .#.&.#).! ...).!
0380: 20 0F 01 04 20 00 21 00                            ... .!.        
```

#### Opcodes

```
  0: 0x0360 [0x1E] EventEntity looks at LocalPlayer and starts talking
  1: 0x0365 [0x6F] WAIT_FRAME_DELAY: Yield until WaitTime reaches zero
  2: 0x0366 [0x70] WAIT_ENTITY_RENDER_FLAG: Wait while EventEntity->Render.Flags3 bit 2 is set (cancel turn if not)
  3: 0x0367 [0x29] REQ_SET_WAIT(priority=0x08, entity_id=Vahn Paineesha (ID: 17768481/0x010F2021), tag_num=0x01)
  4: 0x036E [0x1D] PRINT_EVENT_MESSAGE(message_id=8541*)
    → "The ceremony performed by the Star Sibyl at the Full Moon Fountain is known as the Moon Reading."
  5: 0x0371 [0x23] WAIT_FOR_DIALOG_INTERACTION
  6: 0x0372 [0x1D] PRINT_EVENT_MESSAGE(message_id=8542*)
    → "The Moon Reading uses the powerrr of the Stars and the Moon to grant one tremendous wish. It is this power that has allowed the cheerful Tarutaru to exist in this land for as long as they have."
  7: 0x0375 [0x23] WAIT_FOR_DIALOG_INTERACTION
  8: 0x0376 [0x29] REQ_SET_WAIT(priority=0x08, entity_id=Vahn Paineesha (ID: 17768481/0x010F2021), tag_num=0x03)
  9: 0x037D [0x29] REQ_SET_WAIT(priority=0x08, entity_id=Vahn Paineesha (ID: 17768481/0x010F2021), tag_num=0x04)
 10: 0x0384 [0x20] SET_CLI_EVENT_UC_FLAG: Unlock player control
 11: 0x0386 [0x21] END_EVENT
 12: 0x0387 [0x00] END_REQSTACK()
```
