# 17768488 - Boycoco

## Common Data

| Field            | Value                   |
|------------------|-------------------------|
| Zone             | Heavens Tower (ID: 242) |
| Block Size       | 556 bytes               |
| Total Events     | 18                      |
| References Count | 17                      |

## List of Events

| Event ID                 | Entrypoint   |   Size |   Instructions |
|--------------------------|--------------|--------|----------------|
| [65535](#event-65535)    | 0x0000       |      1 |              1 |
| [65535.1](#event-655351) | 0x0001       |     16 |              2 |
| [65535.2](#event-655352) | 0x0011       |     22 |              4 |
| [65535.3](#event-655353) | 0x0027       |      9 |              3 |
| [65535.4](#event-655354) | 0x0030       |     16 |              2 |
| [65535.5](#event-655355) | 0x0040       |     14 |              2 |
| [65535.6](#event-655356) | 0x004E       |     16 |              2 |
| [65535.7](#event-655357) | 0x005E       |     14 |              2 |
| [57](#event-57)          | 0x006C       |     33 |             12 |
| [123](#event-123)        | 0x008D       |     29 |             10 |
| [137](#event-137)        | 0x00AA       |     29 |             10 |
| [177](#event-177)        | 0x00C7       |     33 |             12 |
| [202](#event-202)        | 0x00E8       |     33 |             12 |
| [223](#event-223)        | 0x0109       |     33 |             12 |
| [121](#event-121)        | 0x012A       |      1 |              1 |
| [337](#event-337)        | 0x012B       |     33 |             12 |
| [350](#event-350)        | 0x014C       |     33 |             12 |
| [388](#event-388)        | 0x016D       |     33 |             12 |

## DAT References (imed_data)

|   Index | Hex Value   |   Dec Value |
|---------|-------------|-------------|
|       0 | 0x0028      |          40 |
|       1 | 0x001E      |          30 |
|       2 | 0x001D      |          29 |
|       3 | 0x00F4      |         244 |
|       4 | 0x0115      |         277 |
|       5 | 0x016D      |         365 |
|       6 | 0x016E      |         366 |
|       7 | 0x01C2      |         450 |
|       8 | 0x01C3      |         451 |
|       9 | 0x01F1      |         497 |
|      10 | 0x01F2      |         498 |
|      11 | 0x2057      |        8279 |
|      12 | 0x2058      |        8280 |
|      13 | 0x20E3      |        8419 |
|      14 | 0x20E4      |        8420 |
|      15 | 0x213D      |        8509 |
|      16 | 0x213E      |        8510 |

## String References

- **29**: Long ago, the Star Sibyl lost someone very close...but even with that burden, she has never failed to fulfill her duties to the people of Vana'diel.
- **30**: To quietly watch over her...that is all we ladies-in-waiting can do. That is how it has been, and that is how it shall be.
- **244**: At times like this I feel so powerless... Please help the Star Sibyl! You are our only hope!
- **277**: You need not worry any longer. Our prayers have reached the Star Sibyl. She now sleeps peacefully in her chambers.
- **365**: To think that a barrier that strong couldn't protect the talisman...
- **366**: And now, even the Star Sibyl's power to read the stars is not enough to stop the rise of the Shadow Lord. What is Vana'diel coming to!?
- **450**: I finally realize why Rhinostery minister Rukususu has returned from her research in the Northlands.
- **451**: She must have been investigating the Great War and found something out about the Shadow Lord.
- **497**: The Rhinostery minister, Lady Rukususu, has returned to the freezy-cold Northlands.
- **498**: She said something about investigating the reason why the Shadow Lord suddenly reappeared. I wonder what really happened up there...
- **8279**: What in the Star Sibyl's name is going on? Why has that frightening creature returned to Heavens Tower!?
- **8280**: We ladies-in-waiting could not even bear to be near it. It seemed its very breath would be enough to freezy-weeze your soul.
- **8419**: A letter has arrived from the Yagudo. Sibyl Guard Semih Lafihna's face has been all stormy-wormy since she read it.
- **8420**: And I haven'taru had a glimpse of the Star Sibyl since that bearer of darkness affair. All this doom and gloom is making me sick with worry.
- **8509**: I once heard that even a tiny-winy prayer, if enough people believe in it, will grow into a great wish with enough strength to reach the stars...
- **8510**: I wonder if our simple prayer was enough? For the Star Sibyl's sake, we will keep on wishing and believing.

## Events

### Event 65535

#### Metadata

| Field        | Value   |
|--------------|---------|
| Entrypoint   | 0x0000  |
| Data Size    | 1 bytes |
| Instructions | 1       |

```
      00 01 02 03 04 05 06 07  08 09 0A 0B 0C 0D 0E 0F
      -- -- -- -- -- -- -- --  -- -- -- -- -- -- -- --
0000: 00                                                .               
```

#### Opcodes

```
  0: 0x0000 [0x00] END_REQSTACK()
```

### Event 65535.1

#### Metadata

| Field        | Value    |
|--------------|----------|
| Entrypoint   | 0x0001   |
| Data Size    | 16 bytes |
| Instructions | 2        |

```
      00 01 02 03 04 05 06 07  08 09 0A 0B 0C 0D 0E 0F
      -- -- -- -- -- -- -- --  -- -- -- -- -- -- -- --
0000:    66 00 80 F8 FF FF 7F  F8 FF FF 7F 74 6C 6B 30   f..........tlk0
0010: 00                                                .               
```

#### Opcodes

```
  0: 0x0001 [0x66] LOAD_EXT_SCHEDULER_MAIN: Load scheduler "tlk0" with entities [EventEntity, EventEntity], work=40*
  1: 0x0010 [0x00] END_REQSTACK()
```

### Event 65535.2

#### Metadata

| Field        | Value    |
|--------------|----------|
| Entrypoint   | 0x0011   |
| Data Size    | 22 bytes |
| Instructions | 4        |

```
      00 01 02 03 04 05 06 07  08 09 0A 0B 0C 0D 0E 0F
      -- -- -- -- -- -- -- --  -- -- -- -- -- -- -- --
0010:    53 F8 FF FF 7F F8 FF  FF 7F 74 6C 6B 30 5E 69   S........tlk0^i
0020: 64 6C 30 1C 01 80 00                              dl0....         
```

#### Opcodes

```
  0: 0x0011 [0x53] WAIT_SCHEDULER_TASK: Wait for scheduler "tlk0" with entities [EventEntity, EventEntity]
  1: 0x001E [0x5E] EventEntity goes idle (kills current action) (animation: "idl0")
  2: 0x0023 [0x1C] WAIT(30* ticks)
  3: 0x0026 [0x00] END_REQSTACK()
```

### Event 65535.3

#### Metadata

| Field        | Value   |
|--------------|---------|
| Entrypoint   | 0x0027  |
| Data Size    | 9 bytes |
| Instructions | 3       |

```
      00 01 02 03 04 05 06 07  08 09 0A 0B 0C 0D 0E 0F
      -- -- -- -- -- -- -- --  -- -- -- -- -- -- -- --
0020:                      5E  69 64 6C 30 1C 01 80 00         ^idl0....
```

#### Opcodes

```
  0: 0x0027 [0x5E] EventEntity goes idle (kills current action) (animation: "idl0")
  1: 0x002C [0x1C] WAIT(30* ticks)
  2: 0x002F [0x00] END_REQSTACK()
```

### Event 65535.4

#### Metadata

| Field        | Value    |
|--------------|----------|
| Entrypoint   | 0x0030   |
| Data Size    | 16 bytes |
| Instructions | 2        |

```
      00 01 02 03 04 05 06 07  08 09 0A 0B 0C 0D 0E 0F
      -- -- -- -- -- -- -- --  -- -- -- -- -- -- -- --
0030: 66 00 80 F8 FF FF 7F F8  FF FF 7F 6F 62 69 30 00  f..........obi0.
```

#### Opcodes

```
  0: 0x0030 [0x66] LOAD_EXT_SCHEDULER_MAIN: Load scheduler "obi0" with entities [EventEntity, EventEntity], work=40*
  1: 0x003F [0x00] END_REQSTACK()
```

### Event 65535.5

#### Metadata

| Field        | Value    |
|--------------|----------|
| Entrypoint   | 0x0040   |
| Data Size    | 14 bytes |
| Instructions | 2        |

```
      00 01 02 03 04 05 06 07  08 09 0A 0B 0C 0D 0E 0F
      -- -- -- -- -- -- -- --  -- -- -- -- -- -- -- --
0040: 53 F8 FF FF 7F F8 FF FF  7F 6F 62 69 30 00        S........obi0.  
```

#### Opcodes

```
  0: 0x0040 [0x53] WAIT_SCHEDULER_TASK: Wait for scheduler "obi0" with entities [EventEntity, EventEntity]
  1: 0x004D [0x00] END_REQSTACK()
```

### Event 65535.6

#### Metadata

| Field        | Value    |
|--------------|----------|
| Entrypoint   | 0x004E   |
| Data Size    | 16 bytes |
| Instructions | 2        |

```
      00 01 02 03 04 05 06 07  08 09 0A 0B 0C 0D 0E 0F
      -- -- -- -- -- -- -- --  -- -- -- -- -- -- -- --
0040:                                            66 00                f.
0050: 80 F8 FF FF 7F F8 FF FF  7F 6F 62 69 31 00        .........obi1.  
```

#### Opcodes

```
  0: 0x004E [0x66] LOAD_EXT_SCHEDULER_MAIN: Load scheduler "obi1" with entities [EventEntity, EventEntity], work=40*
  1: 0x005D [0x00] END_REQSTACK()
```

### Event 65535.7

#### Metadata

| Field        | Value    |
|--------------|----------|
| Entrypoint   | 0x005E   |
| Data Size    | 14 bytes |
| Instructions | 2        |

```
      00 01 02 03 04 05 06 07  08 09 0A 0B 0C 0D 0E 0F
      -- -- -- -- -- -- -- --  -- -- -- -- -- -- -- --
0050:                                            53 F8                S.
0060: FF FF 7F F8 FF FF 7F 6F  62 69 31 00              .......obi1.    
```

#### Opcodes

```
  0: 0x005E [0x53] WAIT_SCHEDULER_TASK: Wait for scheduler "obi1" with entities [EventEntity, EventEntity]
  1: 0x006B [0x00] END_REQSTACK()
```

### Event 57

#### Metadata

| Field        | Value    |
|--------------|----------|
| Entrypoint   | 0x006C   |
| Data Size    | 33 bytes |
| Instructions | 12       |

```
      00 01 02 03 04 05 06 07  08 09 0A 0B 0C 0D 0E 0F
      -- -- -- -- -- -- -- --  -- -- -- -- -- -- -- --
0060:                                      1E F0 FF FF              ....
0070: 7F 6F 70 29 08 28 20 0F  01 01 1D 02 80 23 1D 01  .op).( ......#..
0080: 80 23 29 08 28 20 0F 01  03 20 00 21 00           .#).( ... .!.   
```

#### Opcodes

```
  0: 0x006C [0x1E] EventEntity looks at LocalPlayer and starts talking
  1: 0x0071 [0x6F] WAIT_FRAME_DELAY: Yield until WaitTime reaches zero
  2: 0x0072 [0x70] WAIT_ENTITY_RENDER_FLAG: Wait while EventEntity->Render.Flags3 bit 2 is set (cancel turn if not)
  3: 0x0073 [0x29] REQ_SET_WAIT(priority=0x08, entity_id=Boycoco (ID: 17768488/0x010F2028), tag_num=0x01)
  4: 0x007A [0x1D] PRINT_EVENT_MESSAGE(message_id=29*)
    → "Long ago, the Star Sibyl lost someone very close...but even with that burden, she has never failed to fulfill her duties to the people of Vana'diel."
  5: 0x007D [0x23] WAIT_FOR_DIALOG_INTERACTION
  6: 0x007E [0x1D] PRINT_EVENT_MESSAGE(message_id=30*)
    → "To quietly watch over her...that is all we ladies-in-waiting can do. That is how it has been, and that is how it shall be."
  7: 0x0081 [0x23] WAIT_FOR_DIALOG_INTERACTION
  8: 0x0082 [0x29] REQ_SET_WAIT(priority=0x08, entity_id=Boycoco (ID: 17768488/0x010F2028), tag_num=0x03)
  9: 0x0089 [0x20] SET_CLI_EVENT_UC_FLAG: Unlock player control
 10: 0x008B [0x21] END_EVENT
 11: 0x008C [0x00] END_REQSTACK()
```

### Event 123

#### Metadata

| Field        | Value    |
|--------------|----------|
| Entrypoint   | 0x008D   |
| Data Size    | 29 bytes |
| Instructions | 10       |

```
      00 01 02 03 04 05 06 07  08 09 0A 0B 0C 0D 0E 0F
      -- -- -- -- -- -- -- --  -- -- -- -- -- -- -- --
0080:                                         1E F0 FF               ...
0090: FF 7F 6F 70 29 08 28 20  0F 01 01 1D 03 80 23 29  ..op).( ......#)
00A0: 08 28 20 0F 01 03 20 00  21 00                    .( ... .!.      
```

#### Opcodes

```
  0: 0x008D [0x1E] EventEntity looks at LocalPlayer and starts talking
  1: 0x0092 [0x6F] WAIT_FRAME_DELAY: Yield until WaitTime reaches zero
  2: 0x0093 [0x70] WAIT_ENTITY_RENDER_FLAG: Wait while EventEntity->Render.Flags3 bit 2 is set (cancel turn if not)
  3: 0x0094 [0x29] REQ_SET_WAIT(priority=0x08, entity_id=Boycoco (ID: 17768488/0x010F2028), tag_num=0x01)
  4: 0x009B [0x1D] PRINT_EVENT_MESSAGE(message_id=244*)
    → "At times like this I feel so powerless... Please help the Star Sibyl! You are our only hope!"
  5: 0x009E [0x23] WAIT_FOR_DIALOG_INTERACTION
  6: 0x009F [0x29] REQ_SET_WAIT(priority=0x08, entity_id=Boycoco (ID: 17768488/0x010F2028), tag_num=0x03)
  7: 0x00A6 [0x20] SET_CLI_EVENT_UC_FLAG: Unlock player control
  8: 0x00A8 [0x21] END_EVENT
  9: 0x00A9 [0x00] END_REQSTACK()
```

### Event 137

#### Metadata

| Field        | Value    |
|--------------|----------|
| Entrypoint   | 0x00AA   |
| Data Size    | 29 bytes |
| Instructions | 10       |

```
      00 01 02 03 04 05 06 07  08 09 0A 0B 0C 0D 0E 0F
      -- -- -- -- -- -- -- --  -- -- -- -- -- -- -- --
00A0:                                1E F0 FF FF 7F 6F            .....o
00B0: 70 29 08 28 20 0F 01 01  1D 04 80 23 29 08 28 20  p).( ......#).( 
00C0: 0F 01 03 20 00 21 00                              ... .!.         
```

#### Opcodes

```
  0: 0x00AA [0x1E] EventEntity looks at LocalPlayer and starts talking
  1: 0x00AF [0x6F] WAIT_FRAME_DELAY: Yield until WaitTime reaches zero
  2: 0x00B0 [0x70] WAIT_ENTITY_RENDER_FLAG: Wait while EventEntity->Render.Flags3 bit 2 is set (cancel turn if not)
  3: 0x00B1 [0x29] REQ_SET_WAIT(priority=0x08, entity_id=Boycoco (ID: 17768488/0x010F2028), tag_num=0x01)
  4: 0x00B8 [0x1D] PRINT_EVENT_MESSAGE(message_id=277*)
    → "You need not worry any longer. Our prayers have reached the Star Sibyl. She now sleeps peacefully in her chambers."
  5: 0x00BB [0x23] WAIT_FOR_DIALOG_INTERACTION
  6: 0x00BC [0x29] REQ_SET_WAIT(priority=0x08, entity_id=Boycoco (ID: 17768488/0x010F2028), tag_num=0x03)
  7: 0x00C3 [0x20] SET_CLI_EVENT_UC_FLAG: Unlock player control
  8: 0x00C5 [0x21] END_EVENT
  9: 0x00C6 [0x00] END_REQSTACK()
```

### Event 177

#### Metadata

| Field        | Value    |
|--------------|----------|
| Entrypoint   | 0x00C7   |
| Data Size    | 33 bytes |
| Instructions | 12       |

```
      00 01 02 03 04 05 06 07  08 09 0A 0B 0C 0D 0E 0F
      -- -- -- -- -- -- -- --  -- -- -- -- -- -- -- --
00C0:                      1E  F0 FF FF 7F 6F 70 29 08         .....op).
00D0: 28 20 0F 01 01 1D 05 80  23 1D 06 80 23 29 08 28  ( ......#...#).(
00E0: 20 0F 01 03 20 00 21 00                            ... .!.        
```

#### Opcodes

```
  0: 0x00C7 [0x1E] EventEntity looks at LocalPlayer and starts talking
  1: 0x00CC [0x6F] WAIT_FRAME_DELAY: Yield until WaitTime reaches zero
  2: 0x00CD [0x70] WAIT_ENTITY_RENDER_FLAG: Wait while EventEntity->Render.Flags3 bit 2 is set (cancel turn if not)
  3: 0x00CE [0x29] REQ_SET_WAIT(priority=0x08, entity_id=Boycoco (ID: 17768488/0x010F2028), tag_num=0x01)
  4: 0x00D5 [0x1D] PRINT_EVENT_MESSAGE(message_id=365*)
    → "To think that a barrier that strong couldn't protect the talisman..."
  5: 0x00D8 [0x23] WAIT_FOR_DIALOG_INTERACTION
  6: 0x00D9 [0x1D] PRINT_EVENT_MESSAGE(message_id=366*)
    → "And now, even the Star Sibyl's power to read the stars is not enough to stop the rise of the Shadow Lord. What is Vana'diel coming to!?"
  7: 0x00DC [0x23] WAIT_FOR_DIALOG_INTERACTION
  8: 0x00DD [0x29] REQ_SET_WAIT(priority=0x08, entity_id=Boycoco (ID: 17768488/0x010F2028), tag_num=0x03)
  9: 0x00E4 [0x20] SET_CLI_EVENT_UC_FLAG: Unlock player control
 10: 0x00E6 [0x21] END_EVENT
 11: 0x00E7 [0x00] END_REQSTACK()
```

### Event 202

#### Metadata

| Field        | Value    |
|--------------|----------|
| Entrypoint   | 0x00E8   |
| Data Size    | 33 bytes |
| Instructions | 12       |

```
      00 01 02 03 04 05 06 07  08 09 0A 0B 0C 0D 0E 0F
      -- -- -- -- -- -- -- --  -- -- -- -- -- -- -- --
00E0:                          1E F0 FF FF 7F 6F 70 29          .....op)
00F0: 08 28 20 0F 01 01 1D 07  80 23 1D 08 80 23 29 08  .( ......#...#).
0100: 28 20 0F 01 03 20 00 21  00                       ( ... .!.       
```

#### Opcodes

```
  0: 0x00E8 [0x1E] EventEntity looks at LocalPlayer and starts talking
  1: 0x00ED [0x6F] WAIT_FRAME_DELAY: Yield until WaitTime reaches zero
  2: 0x00EE [0x70] WAIT_ENTITY_RENDER_FLAG: Wait while EventEntity->Render.Flags3 bit 2 is set (cancel turn if not)
  3: 0x00EF [0x29] REQ_SET_WAIT(priority=0x08, entity_id=Boycoco (ID: 17768488/0x010F2028), tag_num=0x01)
  4: 0x00F6 [0x1D] PRINT_EVENT_MESSAGE(message_id=450*)
    → "I finally realize why Rhinostery minister Rukususu has returned from her research in the Northlands."
  5: 0x00F9 [0x23] WAIT_FOR_DIALOG_INTERACTION
  6: 0x00FA [0x1D] PRINT_EVENT_MESSAGE(message_id=451*)
    → "She must have been investigating the Great War and found something out about the Shadow Lord."
  7: 0x00FD [0x23] WAIT_FOR_DIALOG_INTERACTION
  8: 0x00FE [0x29] REQ_SET_WAIT(priority=0x08, entity_id=Boycoco (ID: 17768488/0x010F2028), tag_num=0x03)
  9: 0x0105 [0x20] SET_CLI_EVENT_UC_FLAG: Unlock player control
 10: 0x0107 [0x21] END_EVENT
 11: 0x0108 [0x00] END_REQSTACK()
```

### Event 223

#### Metadata

| Field        | Value    |
|--------------|----------|
| Entrypoint   | 0x0109   |
| Data Size    | 33 bytes |
| Instructions | 12       |

```
      00 01 02 03 04 05 06 07  08 09 0A 0B 0C 0D 0E 0F
      -- -- -- -- -- -- -- --  -- -- -- -- -- -- -- --
0100:                             1E F0 FF FF 7F 6F 70           .....op
0110: 29 08 28 20 0F 01 01 1D  09 80 23 1D 0A 80 23 29  ).( ......#...#)
0120: 08 28 20 0F 01 03 20 00  21 00                    .( ... .!.      
```

#### Opcodes

```
  0: 0x0109 [0x1E] EventEntity looks at LocalPlayer and starts talking
  1: 0x010E [0x6F] WAIT_FRAME_DELAY: Yield until WaitTime reaches zero
  2: 0x010F [0x70] WAIT_ENTITY_RENDER_FLAG: Wait while EventEntity->Render.Flags3 bit 2 is set (cancel turn if not)
  3: 0x0110 [0x29] REQ_SET_WAIT(priority=0x08, entity_id=Boycoco (ID: 17768488/0x010F2028), tag_num=0x01)
  4: 0x0117 [0x1D] PRINT_EVENT_MESSAGE(message_id=497*)
    → "The Rhinostery minister, Lady Rukususu, has returned to the freezy-cold Northlands."
  5: 0x011A [0x23] WAIT_FOR_DIALOG_INTERACTION
  6: 0x011B [0x1D] PRINT_EVENT_MESSAGE(message_id=498*)
    → "She said something about investigating the reason why the Shadow Lord suddenly reappeared. I wonder what really happened up there..."
  7: 0x011E [0x23] WAIT_FOR_DIALOG_INTERACTION
  8: 0x011F [0x29] REQ_SET_WAIT(priority=0x08, entity_id=Boycoco (ID: 17768488/0x010F2028), tag_num=0x03)
  9: 0x0126 [0x20] SET_CLI_EVENT_UC_FLAG: Unlock player control
 10: 0x0128 [0x21] END_EVENT
 11: 0x0129 [0x00] END_REQSTACK()
```

### Event 121

#### Metadata

| Field        | Value   |
|--------------|---------|
| Entrypoint   | 0x012A  |
| Data Size    | 1 bytes |
| Instructions | 1       |

```
      00 01 02 03 04 05 06 07  08 09 0A 0B 0C 0D 0E 0F
      -- -- -- -- -- -- -- --  -- -- -- -- -- -- -- --
0120:                                00                           .     
```

#### Opcodes

```
  0: 0x012A [0x00] END_REQSTACK()
```

### Event 337

#### Metadata

| Field        | Value    |
|--------------|----------|
| Entrypoint   | 0x012B   |
| Data Size    | 33 bytes |
| Instructions | 12       |

```
      00 01 02 03 04 05 06 07  08 09 0A 0B 0C 0D 0E 0F
      -- -- -- -- -- -- -- --  -- -- -- -- -- -- -- --
0120:                                   1E F0 FF FF 7F             .....
0130: 6F 70 29 08 28 20 0F 01  04 1D 0B 80 23 1D 0C 80  op).( ......#...
0140: 23 29 08 28 20 0F 01 05  20 00 21 00              #).( ... .!.    
```

#### Opcodes

```
  0: 0x012B [0x1E] EventEntity looks at LocalPlayer and starts talking
  1: 0x0130 [0x6F] WAIT_FRAME_DELAY: Yield until WaitTime reaches zero
  2: 0x0131 [0x70] WAIT_ENTITY_RENDER_FLAG: Wait while EventEntity->Render.Flags3 bit 2 is set (cancel turn if not)
  3: 0x0132 [0x29] REQ_SET_WAIT(priority=0x08, entity_id=Boycoco (ID: 17768488/0x010F2028), tag_num=0x04)
  4: 0x0139 [0x1D] PRINT_EVENT_MESSAGE(message_id=8279*)
    → "What in the Star Sibyl's name is going on? Why has that frightening creature returned to Heavens Tower!?"
  5: 0x013C [0x23] WAIT_FOR_DIALOG_INTERACTION
  6: 0x013D [0x1D] PRINT_EVENT_MESSAGE(message_id=8280*)
    → "We ladies-in-waiting could not even bear to be near it. It seemed its very breath would be enough to freezy-weeze your soul."
  7: 0x0140 [0x23] WAIT_FOR_DIALOG_INTERACTION
  8: 0x0141 [0x29] REQ_SET_WAIT(priority=0x08, entity_id=Boycoco (ID: 17768488/0x010F2028), tag_num=0x05)
  9: 0x0148 [0x20] SET_CLI_EVENT_UC_FLAG: Unlock player control
 10: 0x014A [0x21] END_EVENT
 11: 0x014B [0x00] END_REQSTACK()
```

### Event 350

#### Metadata

| Field        | Value    |
|--------------|----------|
| Entrypoint   | 0x014C   |
| Data Size    | 33 bytes |
| Instructions | 12       |

```
      00 01 02 03 04 05 06 07  08 09 0A 0B 0C 0D 0E 0F
      -- -- -- -- -- -- -- --  -- -- -- -- -- -- -- --
0140:                                      1E F0 FF FF              ....
0150: 7F 6F 70 29 08 28 20 0F  01 04 1D 0D 80 23 1D 0E  .op).( ......#..
0160: 80 23 29 08 28 20 0F 01  05 20 00 21 00           .#).( ... .!.   
```

#### Opcodes

```
  0: 0x014C [0x1E] EventEntity looks at LocalPlayer and starts talking
  1: 0x0151 [0x6F] WAIT_FRAME_DELAY: Yield until WaitTime reaches zero
  2: 0x0152 [0x70] WAIT_ENTITY_RENDER_FLAG: Wait while EventEntity->Render.Flags3 bit 2 is set (cancel turn if not)
  3: 0x0153 [0x29] REQ_SET_WAIT(priority=0x08, entity_id=Boycoco (ID: 17768488/0x010F2028), tag_num=0x04)
  4: 0x015A [0x1D] PRINT_EVENT_MESSAGE(message_id=8419*)
    → "A letter has arrived from the Yagudo. Sibyl Guard Semih Lafihna's face has been all stormy-wormy since she read it."
  5: 0x015D [0x23] WAIT_FOR_DIALOG_INTERACTION
  6: 0x015E [0x1D] PRINT_EVENT_MESSAGE(message_id=8420*)
    → "And I haven'taru had a glimpse of the Star Sibyl since that bearer of darkness affair. All this doom and gloom is making me sick with worry."
  7: 0x0161 [0x23] WAIT_FOR_DIALOG_INTERACTION
  8: 0x0162 [0x29] REQ_SET_WAIT(priority=0x08, entity_id=Boycoco (ID: 17768488/0x010F2028), tag_num=0x05)
  9: 0x0169 [0x20] SET_CLI_EVENT_UC_FLAG: Unlock player control
 10: 0x016B [0x21] END_EVENT
 11: 0x016C [0x00] END_REQSTACK()
```

### Event 388

#### Metadata

| Field        | Value    |
|--------------|----------|
| Entrypoint   | 0x016D   |
| Data Size    | 33 bytes |
| Instructions | 12       |

```
      00 01 02 03 04 05 06 07  08 09 0A 0B 0C 0D 0E 0F
      -- -- -- -- -- -- -- --  -- -- -- -- -- -- -- --
0160:                                         1E F0 FF               ...
0170: FF 7F 6F 70 29 08 28 20  0F 01 01 1D 0F 80 23 1D  ..op).( ......#.
0180: 10 80 23 29 08 28 20 0F  01 02 20 00 21 00        ..#).( ... .!.  
```

#### Opcodes

```
  0: 0x016D [0x1E] EventEntity looks at LocalPlayer and starts talking
  1: 0x0172 [0x6F] WAIT_FRAME_DELAY: Yield until WaitTime reaches zero
  2: 0x0173 [0x70] WAIT_ENTITY_RENDER_FLAG: Wait while EventEntity->Render.Flags3 bit 2 is set (cancel turn if not)
  3: 0x0174 [0x29] REQ_SET_WAIT(priority=0x08, entity_id=Boycoco (ID: 17768488/0x010F2028), tag_num=0x01)
  4: 0x017B [0x1D] PRINT_EVENT_MESSAGE(message_id=8509*)
    → "I once heard that even a tiny-winy prayer, if enough people believe in it, will grow into a great wish with enough strength to reach the stars..."
  5: 0x017E [0x23] WAIT_FOR_DIALOG_INTERACTION
  6: 0x017F [0x1D] PRINT_EVENT_MESSAGE(message_id=8510*)
    → "I wonder if our simple prayer was enough? For the Star Sibyl's sake, we will keep on wishing and believing."
  7: 0x0182 [0x23] WAIT_FOR_DIALOG_INTERACTION
  8: 0x0183 [0x29] REQ_SET_WAIT(priority=0x08, entity_id=Boycoco (ID: 17768488/0x010F2028), tag_num=0x02)
  9: 0x018A [0x20] SET_CLI_EVENT_UC_FLAG: Unlock player control
 10: 0x018C [0x21] END_EVENT
 11: 0x018D [0x00] END_REQSTACK()
```
