# 17768480 - Foo Beibo

## Common Data

| Field            | Value                   |
|------------------|-------------------------|
| Zone             | Heavens Tower (ID: 242) |
| Block Size       | 1252 bytes              |
| Total Events     | 41                      |
| References Count | 34                      |

## List of Events

| Event ID                   | Entrypoint   |   Size |   Instructions |
|----------------------------|--------------|--------|----------------|
| [65535](#event-65535)      | 0x0000       |      1 |              1 |
| [65535.1](#event-655351)   | 0x0001       |     16 |              2 |
| [65535.2](#event-655352)   | 0x0011       |     14 |              2 |
| [65535.3](#event-655353)   | 0x001F       |     16 |              2 |
| [65535.4](#event-655354)   | 0x002F       |     14 |              2 |
| [65535.5](#event-655355)   | 0x003D       |     16 |              2 |
| [65535.6](#event-655356)   | 0x004D       |     14 |              2 |
| [65535.7](#event-655357)   | 0x005B       |     16 |              2 |
| [65535.8](#event-655358)   | 0x006B       |     14 |              2 |
| [65535.9](#event-655359)   | 0x0079       |     16 |              2 |
| [65535.10](#event-6553510) | 0x0089       |     14 |              2 |
| [65535.11](#event-6553511) | 0x0097       |     16 |              2 |
| [65535.12](#event-6553512) | 0x00A7       |     14 |              2 |
| [65535.13](#event-6553513) | 0x00B5       |     16 |              2 |
| [65535.14](#event-6553514) | 0x00C5       |     14 |              2 |
| [65535.15](#event-6553515) | 0x00D3       |     16 |              2 |
| [65535.16](#event-6553516) | 0x00E3       |     14 |              2 |
| [65535.17](#event-6553517) | 0x00F1       |     16 |              2 |
| [65535.18](#event-6553518) | 0x0101       |     14 |              2 |
| [65535.19](#event-6553519) | 0x010F       |     16 |              2 |
| [65535.20](#event-6553520) | 0x011F       |     14 |              2 |
| [65535.21](#event-6553521) | 0x012D       |     16 |              2 |
| [65535.22](#event-6553522) | 0x013D       |     14 |              2 |
| [65535.23](#event-6553523) | 0x014B       |      9 |              3 |
| [87](#event-87)            | 0x0154       |     54 |             15 |
| [6](#event-6)              | 0x018A       |      1 |              1 |
| [107](#event-107)          | 0x018B       |      1 |              1 |
| [65535.24](#event-6553524) | 0x018C       |     48 |              8 |
| [112](#event-112)          | 0x01BC       |     47 |             14 |
| [114](#event-114)          | 0x01EB       |      1 |              1 |
| [119](#event-119)          | 0x01EC       |     19 |             10 |
| [162](#event-162)          | 0x01FF       |     47 |             14 |
| [172](#event-172)          | 0x022E       |     19 |             10 |
| [197](#event-197)          | 0x0241       |     19 |             10 |
| [220](#event-220)          | 0x0254       |     47 |             14 |
| [320](#event-320)          | 0x0283       |     47 |             14 |
| [304](#event-304)          | 0x02B2       |     43 |             12 |
| [367](#event-367)          | 0x02DD       |     47 |             14 |
| [372](#event-372)          | 0x030C       |     47 |             14 |
| [378](#event-378)          | 0x033B       |     47 |             14 |
| [403](#event-403)          | 0x036A       |     61 |             16 |

## DAT References (imed_data)

|   Index | Hex Value   |   Dec Value |
|---------|-------------|-------------|
|       0 | 0x0032      |          50 |
|       1 | 0x0034      |          52 |
|       2 | 0x0035      |          53 |
|       3 | 0x0039      |          57 |
|       4 | 0x001E      |          30 |
|       5 | 0x0053      |          83 |
|       6 | 0x0054      |          84 |
|       7 | 0x04C9      |        1225 |
|       8 | 0xFFFF8D7A  |  4294937978 |
|       9 | 0xFFFF5038  |  4294922296 |
|      10 | 0x0003      |           3 |
|      11 | 0x00BB      |         187 |
|      12 | 0x00BC      |         188 |
|      13 | 0x00CF      |         207 |
|      14 | 0x00D0      |         208 |
|      15 | 0x0140      |         320 |
|      16 | 0x0141      |         321 |
|      17 | 0x0162      |         354 |
|      18 | 0x0163      |         355 |
|      19 | 0x01B8      |         440 |
|      20 | 0x01B9      |         441 |
|      21 | 0x01EB      |         491 |
|      22 | 0x01EC      |         492 |
|      23 | 0x1FBE      |        8126 |
|      24 | 0x1FBF      |        8127 |
|      25 | 0x1FD8      |        8152 |
|      26 | 0x2073      |        8307 |
|      27 | 0x2074      |        8308 |
|      28 | 0x2080      |        8320 |
|      29 | 0x2081      |        8321 |
|      30 | 0x20FF      |        8447 |
|      31 | 0x2100      |        8448 |
|      32 | 0x215B      |        8539 |
|      33 | 0x215C      |        8540 |

## String References

- **83**: I'll let it pass this time, but this is not a place for scrrruffy adventurers like yourself to be wandering arrround in.
- **84**: You can get back to the firrrst floor through that portal there, so I suggest you move on before you cause any rrreal trouble.
- **187**: The Orastery minister returned to the firrrst floor via this portal.
- **188**: If he's alrrready left Heavens Tower, you can prrrobably find him at the Orastery.
- **207**: Have you succeeded in proving your worth to Lady Semih Lafihna?
- **208**: Keep it up, and you may just end up taking your orders directly from the Star Sibyl herself. Although by doing so, you will be creating enemies with many who serve our chieftainness...
- **320**: How go your adventures? Are you finally starting to make a name for yourself in Windurst?
- **321**: If you don't feel like walking by that old battle axe, Zubaba, again...I recommend using the portal to the firrrst floor.
- **354**: To tell you the truth, I neverrr thought Windurst and the Yagudo could get along anyway.
- **355**: If any news of the theft leaks out of Heavens Tower, who knows what the Mithra will do.
- **440**: Durrring the conference of ministers, it was decided not to dispatch any military forces.
- **441**: Everyone thought that the Orastery minister would be against the decision, but he did not say a word.
- **491**: Now that you're back I can tell you...but when you were firrrst selected to go to the Northlands, I thought that was the last time we would everrr see you.
- **492**: Don't take it the wrrrong way or anything. You made it back, didn't you?
- **8126**: The Shadow Lord has been dealt with, but Semih Lafihna is still as fired up as usual.
- **8127**: Today, she went out looking for that disrrruptive little Orastery minister.
- **8152**: That insolent Orastery minister has finally been put away. Now we might get some peace around here.
- **8307**: Semih Lafihna and the Orastery minister forrrced open the door to the Star Sibyl's chambers.
- **8308**: The bearer of darrrkness disappeared after seeing those two burrrst in, but... This may not be the last we'll see of it...
- **8320**: We underrrestimated those dolls, and now we're paying the prrrice for it.
- **8321**: We have no choice but to go to the Manustery for help. But with the minister being Ajido-Marujido's sister, I wonder how much we can trrrust her.
- **8447**: Looks like the Yagudo are just itching to pick a fight with us.
- **8448**: But the Star Sibyl will be the Star Sibyl. Why did she ever agrrree to sign such a prrroblematic treaty?
- **8539**: So the Bearer of Darkness was really a manifestation of both Karaha-Baruha and the Grrreat Beast, Fenrir?
- **8540**: The resurrection of Karaha-Baruha led to the revival of the Great Beast... People coming back from the dead is against the naturrral order of things. I'm not surprrrised that it led to these terrible events.

## Events

### Event 65535

#### Metadata

| Field        | Value   |
|--------------|---------|
| Entrypoint   | 0x0000  |
| Data Size    | 1 bytes |
| Instructions | 1       |

```
      00 01 02 03 04 05 06 07  08 09 0A 0B 0C 0D 0E 0F
      -- -- -- -- -- -- -- --  -- -- -- -- -- -- -- --
0000: 00                                                .               
```

#### Opcodes

```
  0: 0x0000 [0x00] END_REQSTACK()
```

### Event 65535.1

#### Metadata

| Field        | Value    |
|--------------|----------|
| Entrypoint   | 0x0001   |
| Data Size    | 16 bytes |
| Instructions | 2        |

```
      00 01 02 03 04 05 06 07  08 09 0A 0B 0C 0D 0E 0F
      -- -- -- -- -- -- -- --  -- -- -- -- -- -- -- --
0000:    66 00 80 F8 FF FF 7F  F8 FF FF 7F 74 6C 6B 30   f..........tlk0
0010: 00                                                .               
```

#### Opcodes

```
  0: 0x0001 [0x66] LOAD_EXT_SCHEDULER_MAIN: Load scheduler "tlk0" with entities [EventEntity, EventEntity], work=50*
  1: 0x0010 [0x00] END_REQSTACK()
```

### Event 65535.2

#### Metadata

| Field        | Value    |
|--------------|----------|
| Entrypoint   | 0x0011   |
| Data Size    | 14 bytes |
| Instructions | 2        |

```
      00 01 02 03 04 05 06 07  08 09 0A 0B 0C 0D 0E 0F
      -- -- -- -- -- -- -- --  -- -- -- -- -- -- -- --
0010:    53 F8 FF FF 7F F8 FF  FF 7F 74 6C 6B 30 00      S........tlk0. 
```

#### Opcodes

```
  0: 0x0011 [0x53] WAIT_SCHEDULER_TASK: Wait for scheduler "tlk0" with entities [EventEntity, EventEntity]
  1: 0x001E [0x00] END_REQSTACK()
```

### Event 65535.3

#### Metadata

| Field        | Value    |
|--------------|----------|
| Entrypoint   | 0x001F   |
| Data Size    | 16 bytes |
| Instructions | 2        |

```
      00 01 02 03 04 05 06 07  08 09 0A 0B 0C 0D 0E 0F
      -- -- -- -- -- -- -- --  -- -- -- -- -- -- -- --
0010:                                               66                 f
0020: 00 80 F8 FF FF 7F F8 FF  FF 7F 74 6C 6B 32 00     ..........tlk2. 
```

#### Opcodes

```
  0: 0x001F [0x66] LOAD_EXT_SCHEDULER_MAIN: Load scheduler "tlk2" with entities [EventEntity, EventEntity], work=50*
  1: 0x002E [0x00] END_REQSTACK()
```

### Event 65535.4

#### Metadata

| Field        | Value    |
|--------------|----------|
| Entrypoint   | 0x002F   |
| Data Size    | 14 bytes |
| Instructions | 2        |

```
      00 01 02 03 04 05 06 07  08 09 0A 0B 0C 0D 0E 0F
      -- -- -- -- -- -- -- --  -- -- -- -- -- -- -- --
0020:                                               53                 S
0030: F8 FF FF 7F F8 FF FF 7F  74 6C 6B 32 00           ........tlk2.   
```

#### Opcodes

```
  0: 0x002F [0x53] WAIT_SCHEDULER_TASK: Wait for scheduler "tlk2" with entities [EventEntity, EventEntity]
  1: 0x003C [0x00] END_REQSTACK()
```

### Event 65535.5

#### Metadata

| Field        | Value    |
|--------------|----------|
| Entrypoint   | 0x003D   |
| Data Size    | 16 bytes |
| Instructions | 2        |

```
      00 01 02 03 04 05 06 07  08 09 0A 0B 0C 0D 0E 0F
      -- -- -- -- -- -- -- --  -- -- -- -- -- -- -- --
0030:                                         66 00 80               f..
0040: F8 FF FF 7F F8 FF FF 7F  74 68 6B 31 00           ........thk1.   
```

#### Opcodes

```
  0: 0x003D [0x66] LOAD_EXT_SCHEDULER_MAIN: Load scheduler "thk1" with entities [EventEntity, EventEntity], work=50*
  1: 0x004C [0x00] END_REQSTACK()
```

### Event 65535.6

#### Metadata

| Field        | Value    |
|--------------|----------|
| Entrypoint   | 0x004D   |
| Data Size    | 14 bytes |
| Instructions | 2        |

```
      00 01 02 03 04 05 06 07  08 09 0A 0B 0C 0D 0E 0F
      -- -- -- -- -- -- -- --  -- -- -- -- -- -- -- --
0040:                                         53 F8 FF               S..
0050: FF 7F F8 FF FF 7F 74 68  6B 31 00                 ......thk1.     
```

#### Opcodes

```
  0: 0x004D [0x53] WAIT_SCHEDULER_TASK: Wait for scheduler "thk1" with entities [EventEntity, EventEntity]
  1: 0x005A [0x00] END_REQSTACK()
```

### Event 65535.7

#### Metadata

| Field        | Value    |
|--------------|----------|
| Entrypoint   | 0x005B   |
| Data Size    | 16 bytes |
| Instructions | 2        |

```
      00 01 02 03 04 05 06 07  08 09 0A 0B 0C 0D 0E 0F
      -- -- -- -- -- -- -- --  -- -- -- -- -- -- -- --
0050:                                   66 00 80 F8 FF             f....
0060: FF 7F F8 FF FF 7F 74 68  6B 32 00                 ......thk2.     
```

#### Opcodes

```
  0: 0x005B [0x66] LOAD_EXT_SCHEDULER_MAIN: Load scheduler "thk2" with entities [EventEntity, EventEntity], work=50*
  1: 0x006A [0x00] END_REQSTACK()
```

### Event 65535.8

#### Metadata

| Field        | Value    |
|--------------|----------|
| Entrypoint   | 0x006B   |
| Data Size    | 14 bytes |
| Instructions | 2        |

```
      00 01 02 03 04 05 06 07  08 09 0A 0B 0C 0D 0E 0F
      -- -- -- -- -- -- -- --  -- -- -- -- -- -- -- --
0060:                                   53 F8 FF FF 7F             S....
0070: F8 FF FF 7F 74 68 6B 32  00                       ....thk2.       
```

#### Opcodes

```
  0: 0x006B [0x53] WAIT_SCHEDULER_TASK: Wait for scheduler "thk2" with entities [EventEntity, EventEntity]
  1: 0x0078 [0x00] END_REQSTACK()
```

### Event 65535.9

#### Metadata

| Field        | Value    |
|--------------|----------|
| Entrypoint   | 0x0079   |
| Data Size    | 16 bytes |
| Instructions | 2        |

```
      00 01 02 03 04 05 06 07  08 09 0A 0B 0C 0D 0E 0F
      -- -- -- -- -- -- -- --  -- -- -- -- -- -- -- --
0070:                             66 01 80 F8 FF FF 7F           f......
0080: F8 FF FF 7F 64 69 73 30  00                       ....dis0.       
```

#### Opcodes

```
  0: 0x0079 [0x66] LOAD_EXT_SCHEDULER_MAIN: Load scheduler "dis0" with entities [EventEntity, EventEntity], work=52*
  1: 0x0088 [0x00] END_REQSTACK()
```

### Event 65535.10

#### Metadata

| Field        | Value    |
|--------------|----------|
| Entrypoint   | 0x0089   |
| Data Size    | 14 bytes |
| Instructions | 2        |

```
      00 01 02 03 04 05 06 07  08 09 0A 0B 0C 0D 0E 0F
      -- -- -- -- -- -- -- --  -- -- -- -- -- -- -- --
0080:                             53 F8 FF FF 7F F8 FF           S......
0090: FF 7F 64 69 73 30 00                              ..dis0.         
```

#### Opcodes

```
  0: 0x0089 [0x53] WAIT_SCHEDULER_TASK: Wait for scheduler "dis0" with entities [EventEntity, EventEntity]
  1: 0x0096 [0x00] END_REQSTACK()
```

### Event 65535.11

#### Metadata

| Field        | Value    |
|--------------|----------|
| Entrypoint   | 0x0097   |
| Data Size    | 16 bytes |
| Instructions | 2        |

```
      00 01 02 03 04 05 06 07  08 09 0A 0B 0C 0D 0E 0F
      -- -- -- -- -- -- -- --  -- -- -- -- -- -- -- --
0090:                      66  01 80 F8 FF FF 7F F8 FF         f........
00A0: FF 7F 74 6C 63 30 00                              ..tlc0.         
```

#### Opcodes

```
  0: 0x0097 [0x66] LOAD_EXT_SCHEDULER_MAIN: Load scheduler "tlc0" with entities [EventEntity, EventEntity], work=52*
  1: 0x00A6 [0x00] END_REQSTACK()
```

### Event 65535.12

#### Metadata

| Field        | Value    |
|--------------|----------|
| Entrypoint   | 0x00A7   |
| Data Size    | 14 bytes |
| Instructions | 2        |

```
      00 01 02 03 04 05 06 07  08 09 0A 0B 0C 0D 0E 0F
      -- -- -- -- -- -- -- --  -- -- -- -- -- -- -- --
00A0:                      53  F8 FF FF 7F F8 FF FF 7F         S........
00B0: 74 6C 63 30 00                                    tlc0.           
```

#### Opcodes

```
  0: 0x00A7 [0x53] WAIT_SCHEDULER_TASK: Wait for scheduler "tlc0" with entities [EventEntity, EventEntity]
  1: 0x00B4 [0x00] END_REQSTACK()
```

### Event 65535.13

#### Metadata

| Field        | Value    |
|--------------|----------|
| Entrypoint   | 0x00B5   |
| Data Size    | 16 bytes |
| Instructions | 2        |

```
      00 01 02 03 04 05 06 07  08 09 0A 0B 0C 0D 0E 0F
      -- -- -- -- -- -- -- --  -- -- -- -- -- -- -- --
00B0:                66 01 80  F8 FF FF 7F F8 FF FF 7F       f..........
00C0: 74 6C 63 31 00                                    tlc1.           
```

#### Opcodes

```
  0: 0x00B5 [0x66] LOAD_EXT_SCHEDULER_MAIN: Load scheduler "tlc1" with entities [EventEntity, EventEntity], work=52*
  1: 0x00C4 [0x00] END_REQSTACK()
```

### Event 65535.14

#### Metadata

| Field        | Value    |
|--------------|----------|
| Entrypoint   | 0x00C5   |
| Data Size    | 14 bytes |
| Instructions | 2        |

```
      00 01 02 03 04 05 06 07  08 09 0A 0B 0C 0D 0E 0F
      -- -- -- -- -- -- -- --  -- -- -- -- -- -- -- --
00C0:                53 F8 FF  FF 7F F8 FF FF 7F 74 6C       S........tl
00D0: 63 31 00                                          c1.             
```

#### Opcodes

```
  0: 0x00C5 [0x53] WAIT_SCHEDULER_TASK: Wait for scheduler "tlc1" with entities [EventEntity, EventEntity]
  1: 0x00D2 [0x00] END_REQSTACK()
```

### Event 65535.15

#### Metadata

| Field        | Value    |
|--------------|----------|
| Entrypoint   | 0x00D3   |
| Data Size    | 16 bytes |
| Instructions | 2        |

```
      00 01 02 03 04 05 06 07  08 09 0A 0B 0C 0D 0E 0F
      -- -- -- -- -- -- -- --  -- -- -- -- -- -- -- --
00D0:          66 02 80 F8 FF  FF 7F F8 FF FF 7F 74 6C     f..........tl
00E0: 62 31 00                                          b1.             
```

#### Opcodes

```
  0: 0x00D3 [0x66] LOAD_EXT_SCHEDULER_MAIN: Load scheduler "tlb1" with entities [EventEntity, EventEntity], work=53*
  1: 0x00E2 [0x00] END_REQSTACK()
```

### Event 65535.16

#### Metadata

| Field        | Value    |
|--------------|----------|
| Entrypoint   | 0x00E3   |
| Data Size    | 14 bytes |
| Instructions | 2        |

```
      00 01 02 03 04 05 06 07  08 09 0A 0B 0C 0D 0E 0F
      -- -- -- -- -- -- -- --  -- -- -- -- -- -- -- --
00E0:          53 F8 FF FF 7F  F8 FF FF 7F 74 6C 62 31     S........tlb1
00F0: 00                                                .               
```

#### Opcodes

```
  0: 0x00E3 [0x53] WAIT_SCHEDULER_TASK: Wait for scheduler "tlb1" with entities [EventEntity, EventEntity]
  1: 0x00F0 [0x00] END_REQSTACK()
```

### Event 65535.17

#### Metadata

| Field        | Value    |
|--------------|----------|
| Entrypoint   | 0x00F1   |
| Data Size    | 16 bytes |
| Instructions | 2        |

```
      00 01 02 03 04 05 06 07  08 09 0A 0B 0C 0D 0E 0F
      -- -- -- -- -- -- -- --  -- -- -- -- -- -- -- --
00F0:    66 02 80 F8 FF FF 7F  F8 FF FF 7F 74 6C 62 32   f..........tlb2
0100: 00                                                .               
```

#### Opcodes

```
  0: 0x00F1 [0x66] LOAD_EXT_SCHEDULER_MAIN: Load scheduler "tlb2" with entities [EventEntity, EventEntity], work=53*
  1: 0x0100 [0x00] END_REQSTACK()
```

### Event 65535.18

#### Metadata

| Field        | Value    |
|--------------|----------|
| Entrypoint   | 0x0101   |
| Data Size    | 14 bytes |
| Instructions | 2        |

```
      00 01 02 03 04 05 06 07  08 09 0A 0B 0C 0D 0E 0F
      -- -- -- -- -- -- -- --  -- -- -- -- -- -- -- --
0100:    53 F8 FF FF 7F F8 FF  FF 7F 74 6C 62 32 00      S........tlb2. 
```

#### Opcodes

```
  0: 0x0101 [0x53] WAIT_SCHEDULER_TASK: Wait for scheduler "tlb2" with entities [EventEntity, EventEntity]
  1: 0x010E [0x00] END_REQSTACK()
```

### Event 65535.19

#### Metadata

| Field        | Value    |
|--------------|----------|
| Entrypoint   | 0x010F   |
| Data Size    | 16 bytes |
| Instructions | 2        |

```
      00 01 02 03 04 05 06 07  08 09 0A 0B 0C 0D 0E 0F
      -- -- -- -- -- -- -- --  -- -- -- -- -- -- -- --
0100:                                               66                 f
0110: 02 80 F8 FF FF 7F F8 FF  FF 7F 6B 77 69 30 00     ..........kwi0. 
```

#### Opcodes

```
  0: 0x010F [0x66] LOAD_EXT_SCHEDULER_MAIN: Load scheduler "kwi0" with entities [EventEntity, EventEntity], work=53*
  1: 0x011E [0x00] END_REQSTACK()
```

### Event 65535.20

#### Metadata

| Field        | Value    |
|--------------|----------|
| Entrypoint   | 0x011F   |
| Data Size    | 14 bytes |
| Instructions | 2        |

```
      00 01 02 03 04 05 06 07  08 09 0A 0B 0C 0D 0E 0F
      -- -- -- -- -- -- -- --  -- -- -- -- -- -- -- --
0110:                                               53                 S
0120: F8 FF FF 7F F8 FF FF 7F  6B 77 69 30 00           ........kwi0.   
```

#### Opcodes

```
  0: 0x011F [0x53] WAIT_SCHEDULER_TASK: Wait for scheduler "kwi0" with entities [EventEntity, EventEntity]
  1: 0x012C [0x00] END_REQSTACK()
```

### Event 65535.21

#### Metadata

| Field        | Value    |
|--------------|----------|
| Entrypoint   | 0x012D   |
| Data Size    | 16 bytes |
| Instructions | 2        |

```
      00 01 02 03 04 05 06 07  08 09 0A 0B 0C 0D 0E 0F
      -- -- -- -- -- -- -- --  -- -- -- -- -- -- -- --
0120:                                         66 03 80               f..
0130: F8 FF FF 7F F8 FF FF 7F  6D 68 69 30 00           ........mhi0.   
```

#### Opcodes

```
  0: 0x012D [0x66] LOAD_EXT_SCHEDULER_MAIN: Load scheduler "mhi0" with entities [EventEntity, EventEntity], work=57*
  1: 0x013C [0x00] END_REQSTACK()
```

### Event 65535.22

#### Metadata

| Field        | Value    |
|--------------|----------|
| Entrypoint   | 0x013D   |
| Data Size    | 14 bytes |
| Instructions | 2        |

```
      00 01 02 03 04 05 06 07  08 09 0A 0B 0C 0D 0E 0F
      -- -- -- -- -- -- -- --  -- -- -- -- -- -- -- --
0130:                                         53 F8 FF               S..
0140: FF 7F F8 FF FF 7F 6D 68  69 30 00                 ......mhi0.     
```

#### Opcodes

```
  0: 0x013D [0x53] WAIT_SCHEDULER_TASK: Wait for scheduler "mhi0" with entities [EventEntity, EventEntity]
  1: 0x014A [0x00] END_REQSTACK()
```

### Event 65535.23

#### Metadata

| Field        | Value   |
|--------------|---------|
| Entrypoint   | 0x014B  |
| Data Size    | 9 bytes |
| Instructions | 3       |

```
      00 01 02 03 04 05 06 07  08 09 0A 0B 0C 0D 0E 0F
      -- -- -- -- -- -- -- --  -- -- -- -- -- -- -- --
0140:                                   5E 69 64 6C 30             ^idl0
0150: 1C 04 80 00                                       ....            
```

#### Opcodes

```
  0: 0x014B [0x5E] EventEntity goes idle (kills current action) (animation: "idl0")
  1: 0x0150 [0x1C] WAIT(30* ticks)
  2: 0x0153 [0x00] END_REQSTACK()
```

### Event 87

#### Metadata

| Field        | Value    |
|--------------|----------|
| Entrypoint   | 0x0154   |
| Data Size    | 54 bytes |
| Instructions | 15       |

```
      00 01 02 03 04 05 06 07  08 09 0A 0B 0C 0D 0E 0F
      -- -- -- -- -- -- -- --  -- -- -- -- -- -- -- --
0150:             1E F0 FF FF  7F 6F 70 29 08 20 20 0F      .....op).  .
0160: 01 01 1D 05 80 23 29 08  20 20 0F 01 02 29 08 20  .....#).  ...). 
0170: 20 0F 01 0F 1D 06 80 23  29 08 20 20 0F 01 11 29   ......#).  ...)
0180: 08 20 20 0F 01 12 20 00  21 00                    .  ... .!.      
```

#### Opcodes

```
  0: 0x0154 [0x1E] EventEntity looks at LocalPlayer and starts talking
  1: 0x0159 [0x6F] WAIT_FRAME_DELAY: Yield until WaitTime reaches zero
  2: 0x015A [0x70] WAIT_ENTITY_RENDER_FLAG: Wait while EventEntity->Render.Flags3 bit 2 is set (cancel turn if not)
  3: 0x015B [0x29] REQ_SET_WAIT(priority=0x08, entity_id=Foo Beibo (ID: 17768480/0x010F2020), tag_num=0x01)
  4: 0x0162 [0x1D] PRINT_EVENT_MESSAGE(message_id=83*)
    → "I'll let it pass this time, but this is not a place for scrrruffy adventurers like yourself to be wandering arrround in."
  5: 0x0165 [0x23] WAIT_FOR_DIALOG_INTERACTION
  6: 0x0166 [0x29] REQ_SET_WAIT(priority=0x08, entity_id=Foo Beibo (ID: 17768480/0x010F2020), tag_num=0x02)
  7: 0x016D [0x29] REQ_SET_WAIT(priority=0x08, entity_id=Foo Beibo (ID: 17768480/0x010F2020), tag_num=0x0F)
  8: 0x0174 [0x1D] PRINT_EVENT_MESSAGE(message_id=84*)
    → "You can get back to the firrrst floor through that portal there, so I suggest you move on before you cause any rrreal trouble."
  9: 0x0177 [0x23] WAIT_FOR_DIALOG_INTERACTION
 10: 0x0178 [0x29] REQ_SET_WAIT(priority=0x08, entity_id=Foo Beibo (ID: 17768480/0x010F2020), tag_num=0x11)
 11: 0x017F [0x29] REQ_SET_WAIT(priority=0x08, entity_id=Foo Beibo (ID: 17768480/0x010F2020), tag_num=0x12)
 12: 0x0186 [0x20] SET_CLI_EVENT_UC_FLAG: Unlock player control
 13: 0x0188 [0x21] END_EVENT
 14: 0x0189 [0x00] END_REQSTACK()
```

### Event 6

#### Metadata

| Field        | Value   |
|--------------|---------|
| Entrypoint   | 0x018A  |
| Data Size    | 1 bytes |
| Instructions | 1       |

```
      00 01 02 03 04 05 06 07  08 09 0A 0B 0C 0D 0E 0F
      -- -- -- -- -- -- -- --  -- -- -- -- -- -- -- --
0180:                                00                           .     
```

#### Opcodes

```
  0: 0x018A [0x00] END_REQSTACK()
```

### Event 107

#### Metadata

| Field        | Value   |
|--------------|---------|
| Entrypoint   | 0x018B  |
| Data Size    | 1 bytes |
| Instructions | 1       |

```
      00 01 02 03 04 05 06 07  08 09 0A 0B 0C 0D 0E 0F
      -- -- -- -- -- -- -- --  -- -- -- -- -- -- -- --
0180:                                   00                         .    
```

#### Opcodes

```
  0: 0x018B [0x00] END_REQSTACK()
```

### Event 65535.24

#### Metadata

| Field        | Value    |
|--------------|----------|
| Entrypoint   | 0x018C   |
| Data Size    | 48 bytes |
| Instructions | 8        |

```
      00 01 02 03 04 05 06 07  08 09 0A 0B 0C 0D 0E 0F
      -- -- -- -- -- -- -- --  -- -- -- -- -- -- -- --
0180:                                      1F 00 07 80              ....
0190: 08 80 09 80 1F 01 6F 5E  69 64 6C 30 1C 0A 80 66  ......o^idl0...f
01A0: 03 80 F8 FF FF 7F F8 FF  FF 7F 6D 68 69 30 53 F8  ..........mhi0S.
01B0: FF FF 7F F8 FF FF 7F 6D  68 69 30 00              .......mhi0.    
```

#### Opcodes

```
  0: 0x018C [0x1F] MOVE_ENTITY: EventEntity moves to X=1.225*, Z=-29.318*, Y=-45.000*
  1: 0x0194 [0x1F] MOVE_ENTITY: Update entity position (mode=1)
  2: 0x0196 [0x6F] WAIT_FRAME_DELAY: Yield until WaitTime reaches zero
  3: 0x0197 [0x5E] EventEntity goes idle (kills current action) (animation: "idl0")
  4: 0x019C [0x1C] WAIT(3* ticks)
  5: 0x019F [0x66] LOAD_EXT_SCHEDULER_MAIN: Load scheduler "mhi0" with entities [EventEntity, EventEntity], work=57*
  6: 0x01AE [0x53] WAIT_SCHEDULER_TASK: Wait for scheduler "mhi0" with entities [EventEntity, EventEntity]
  7: 0x01BB [0x00] END_REQSTACK()
```

### Event 112

#### Metadata

| Field        | Value    |
|--------------|----------|
| Entrypoint   | 0x01BC   |
| Data Size    | 47 bytes |
| Instructions | 14       |

```
      00 01 02 03 04 05 06 07  08 09 0A 0B 0C 0D 0E 0F
      -- -- -- -- -- -- -- --  -- -- -- -- -- -- -- --
01B0:                                      1E F0 FF FF              ....
01C0: 7F 6F 70 29 08 20 20 0F  01 0F 1D 0B 80 23 1D 0C  .op).  ......#..
01D0: 80 23 29 08 20 20 0F 01  10 29 08 20 20 0F 01 11  .#).  ...).  ...
01E0: 29 08 20 20 0F 01 12 20  00 21 00                 ).  ... .!.     
```

#### Opcodes

```
  0: 0x01BC [0x1E] EventEntity looks at LocalPlayer and starts talking
  1: 0x01C1 [0x6F] WAIT_FRAME_DELAY: Yield until WaitTime reaches zero
  2: 0x01C2 [0x70] WAIT_ENTITY_RENDER_FLAG: Wait while EventEntity->Render.Flags3 bit 2 is set (cancel turn if not)
  3: 0x01C3 [0x29] REQ_SET_WAIT(priority=0x08, entity_id=Foo Beibo (ID: 17768480/0x010F2020), tag_num=0x0F)
  4: 0x01CA [0x1D] PRINT_EVENT_MESSAGE(message_id=187*)
    → "The Orastery minister returned to the firrrst floor via this portal."
  5: 0x01CD [0x23] WAIT_FOR_DIALOG_INTERACTION
  6: 0x01CE [0x1D] PRINT_EVENT_MESSAGE(message_id=188*)
    → "If he's alrrready left Heavens Tower, you can prrrobably find him at the Orastery."
  7: 0x01D1 [0x23] WAIT_FOR_DIALOG_INTERACTION
  8: 0x01D2 [0x29] REQ_SET_WAIT(priority=0x08, entity_id=Foo Beibo (ID: 17768480/0x010F2020), tag_num=0x10)
  9: 0x01D9 [0x29] REQ_SET_WAIT(priority=0x08, entity_id=Foo Beibo (ID: 17768480/0x010F2020), tag_num=0x11)
 10: 0x01E0 [0x29] REQ_SET_WAIT(priority=0x08, entity_id=Foo Beibo (ID: 17768480/0x010F2020), tag_num=0x12)
 11: 0x01E7 [0x20] SET_CLI_EVENT_UC_FLAG: Unlock player control
 12: 0x01E9 [0x21] END_EVENT
 13: 0x01EA [0x00] END_REQSTACK()
```

### Event 114

#### Metadata

| Field        | Value   |
|--------------|---------|
| Entrypoint   | 0x01EB  |
| Data Size    | 1 bytes |
| Instructions | 1       |

```
      00 01 02 03 04 05 06 07  08 09 0A 0B 0C 0D 0E 0F
      -- -- -- -- -- -- -- --  -- -- -- -- -- -- -- --
01E0:                                   00                         .    
```

#### Opcodes

```
  0: 0x01EB [0x00] END_REQSTACK()
```

### Event 119

#### Metadata

| Field        | Value    |
|--------------|----------|
| Entrypoint   | 0x01EC   |
| Data Size    | 19 bytes |
| Instructions | 10       |

```
      00 01 02 03 04 05 06 07  08 09 0A 0B 0C 0D 0E 0F
      -- -- -- -- -- -- -- --  -- -- -- -- -- -- -- --
01E0:                                      1E F0 FF FF              ....
01F0: 7F 6F 70 1D 0D 80 23 1D  0E 80 23 20 00 21 00     .op...#...# .!. 
```

#### Opcodes

```
  0: 0x01EC [0x1E] EventEntity looks at LocalPlayer and starts talking
  1: 0x01F1 [0x6F] WAIT_FRAME_DELAY: Yield until WaitTime reaches zero
  2: 0x01F2 [0x70] WAIT_ENTITY_RENDER_FLAG: Wait while EventEntity->Render.Flags3 bit 2 is set (cancel turn if not)
  3: 0x01F3 [0x1D] PRINT_EVENT_MESSAGE(message_id=207*)
    → "Have you succeeded in proving your worth to Lady Semih Lafihna?"
  4: 0x01F6 [0x23] WAIT_FOR_DIALOG_INTERACTION
  5: 0x01F7 [0x1D] PRINT_EVENT_MESSAGE(message_id=208*)
    → "Keep it up, and you may just end up taking your orders directly from the Star Sibyl herself. Although by doing so, you will be creating enemies with many who serve our chieftainness..."
  6: 0x01FA [0x23] WAIT_FOR_DIALOG_INTERACTION
  7: 0x01FB [0x20] SET_CLI_EVENT_UC_FLAG: Unlock player control
  8: 0x01FD [0x21] END_EVENT
  9: 0x01FE [0x00] END_REQSTACK()
```

### Event 162

#### Metadata

| Field        | Value    |
|--------------|----------|
| Entrypoint   | 0x01FF   |
| Data Size    | 47 bytes |
| Instructions | 14       |

```
      00 01 02 03 04 05 06 07  08 09 0A 0B 0C 0D 0E 0F
      -- -- -- -- -- -- -- --  -- -- -- -- -- -- -- --
01F0:                                               1E                 .
0200: F0 FF FF 7F 6F 70 29 08  20 20 0F 01 0F 1D 0F 80  ....op).  ......
0210: 23 1D 10 80 23 29 08 20  20 0F 01 10 29 08 20 20  #...#).  ...).  
0220: 0F 01 11 29 08 20 20 0F  01 12 20 00 21 00        ...).  ... .!.  
```

#### Opcodes

```
  0: 0x01FF [0x1E] EventEntity looks at LocalPlayer and starts talking
  1: 0x0204 [0x6F] WAIT_FRAME_DELAY: Yield until WaitTime reaches zero
  2: 0x0205 [0x70] WAIT_ENTITY_RENDER_FLAG: Wait while EventEntity->Render.Flags3 bit 2 is set (cancel turn if not)
  3: 0x0206 [0x29] REQ_SET_WAIT(priority=0x08, entity_id=Foo Beibo (ID: 17768480/0x010F2020), tag_num=0x0F)
  4: 0x020D [0x1D] PRINT_EVENT_MESSAGE(message_id=320*)
    → "How go your adventures? Are you finally starting to make a name for yourself in Windurst?"
  5: 0x0210 [0x23] WAIT_FOR_DIALOG_INTERACTION
  6: 0x0211 [0x1D] PRINT_EVENT_MESSAGE(message_id=321*)
    → "If you don't feel like walking by that old battle axe, Zubaba, again...I recommend using the portal to the firrrst floor."
  7: 0x0214 [0x23] WAIT_FOR_DIALOG_INTERACTION
  8: 0x0215 [0x29] REQ_SET_WAIT(priority=0x08, entity_id=Foo Beibo (ID: 17768480/0x010F2020), tag_num=0x10)
  9: 0x021C [0x29] REQ_SET_WAIT(priority=0x08, entity_id=Foo Beibo (ID: 17768480/0x010F2020), tag_num=0x11)
 10: 0x0223 [0x29] REQ_SET_WAIT(priority=0x08, entity_id=Foo Beibo (ID: 17768480/0x010F2020), tag_num=0x12)
 11: 0x022A [0x20] SET_CLI_EVENT_UC_FLAG: Unlock player control
 12: 0x022C [0x21] END_EVENT
 13: 0x022D [0x00] END_REQSTACK()
```

### Event 172

#### Metadata

| Field        | Value    |
|--------------|----------|
| Entrypoint   | 0x022E   |
| Data Size    | 19 bytes |
| Instructions | 10       |

```
      00 01 02 03 04 05 06 07  08 09 0A 0B 0C 0D 0E 0F
      -- -- -- -- -- -- -- --  -- -- -- -- -- -- -- --
0220:                                            1E F0                ..
0230: FF FF 7F 6F 70 1D 11 80  23 1D 12 80 23 20 00 21  ...op...#...# .!
0240: 00                                                .               
```

#### Opcodes

```
  0: 0x022E [0x1E] EventEntity looks at LocalPlayer and starts talking
  1: 0x0233 [0x6F] WAIT_FRAME_DELAY: Yield until WaitTime reaches zero
  2: 0x0234 [0x70] WAIT_ENTITY_RENDER_FLAG: Wait while EventEntity->Render.Flags3 bit 2 is set (cancel turn if not)
  3: 0x0235 [0x1D] PRINT_EVENT_MESSAGE(message_id=354*)
    → "To tell you the truth, I neverrr thought Windurst and the Yagudo could get along anyway."
  4: 0x0238 [0x23] WAIT_FOR_DIALOG_INTERACTION
  5: 0x0239 [0x1D] PRINT_EVENT_MESSAGE(message_id=355*)
    → "If any news of the theft leaks out of Heavens Tower, who knows what the Mithra will do."
  6: 0x023C [0x23] WAIT_FOR_DIALOG_INTERACTION
  7: 0x023D [0x20] SET_CLI_EVENT_UC_FLAG: Unlock player control
  8: 0x023F [0x21] END_EVENT
  9: 0x0240 [0x00] END_REQSTACK()
```

### Event 197

#### Metadata

| Field        | Value    |
|--------------|----------|
| Entrypoint   | 0x0241   |
| Data Size    | 19 bytes |
| Instructions | 10       |

```
      00 01 02 03 04 05 06 07  08 09 0A 0B 0C 0D 0E 0F
      -- -- -- -- -- -- -- --  -- -- -- -- -- -- -- --
0240:    1E F0 FF FF 7F 6F 70  1D 13 80 23 1D 14 80 23   .....op...#...#
0250: 20 00 21 00                                        .!.            
```

#### Opcodes

```
  0: 0x0241 [0x1E] EventEntity looks at LocalPlayer and starts talking
  1: 0x0246 [0x6F] WAIT_FRAME_DELAY: Yield until WaitTime reaches zero
  2: 0x0247 [0x70] WAIT_ENTITY_RENDER_FLAG: Wait while EventEntity->Render.Flags3 bit 2 is set (cancel turn if not)
  3: 0x0248 [0x1D] PRINT_EVENT_MESSAGE(message_id=440*)
    → "Durrring the conference of ministers, it was decided not to dispatch any military forces."
  4: 0x024B [0x23] WAIT_FOR_DIALOG_INTERACTION
  5: 0x024C [0x1D] PRINT_EVENT_MESSAGE(message_id=441*)
    → "Everyone thought that the Orastery minister would be against the decision, but he did not say a word."
  6: 0x024F [0x23] WAIT_FOR_DIALOG_INTERACTION
  7: 0x0250 [0x20] SET_CLI_EVENT_UC_FLAG: Unlock player control
  8: 0x0252 [0x21] END_EVENT
  9: 0x0253 [0x00] END_REQSTACK()
```

### Event 220

#### Metadata

| Field        | Value    |
|--------------|----------|
| Entrypoint   | 0x0254   |
| Data Size    | 47 bytes |
| Instructions | 14       |

```
      00 01 02 03 04 05 06 07  08 09 0A 0B 0C 0D 0E 0F
      -- -- -- -- -- -- -- --  -- -- -- -- -- -- -- --
0250:             1E F0 FF FF  7F 6F 70 29 08 20 20 0F      .....op).  .
0260: 01 0F 1D 15 80 23 1D 16  80 23 29 08 20 20 0F 01  .....#...#).  ..
0270: 10 29 08 20 20 0F 01 11  29 08 20 20 0F 01 12 20  .).  ...).  ... 
0280: 00 21 00                                          .!.             
```

#### Opcodes

```
  0: 0x0254 [0x1E] EventEntity looks at LocalPlayer and starts talking
  1: 0x0259 [0x6F] WAIT_FRAME_DELAY: Yield until WaitTime reaches zero
  2: 0x025A [0x70] WAIT_ENTITY_RENDER_FLAG: Wait while EventEntity->Render.Flags3 bit 2 is set (cancel turn if not)
  3: 0x025B [0x29] REQ_SET_WAIT(priority=0x08, entity_id=Foo Beibo (ID: 17768480/0x010F2020), tag_num=0x0F)
  4: 0x0262 [0x1D] PRINT_EVENT_MESSAGE(message_id=491*)
    → "Now that you're back I can tell you...but when you were firrrst selected to go to the Northlands, I thought that was the last time we would everrr see you."
  5: 0x0265 [0x23] WAIT_FOR_DIALOG_INTERACTION
  6: 0x0266 [0x1D] PRINT_EVENT_MESSAGE(message_id=492*)
    → "Don't take it the wrrrong way or anything. You made it back, didn't you?"
  7: 0x0269 [0x23] WAIT_FOR_DIALOG_INTERACTION
  8: 0x026A [0x29] REQ_SET_WAIT(priority=0x08, entity_id=Foo Beibo (ID: 17768480/0x010F2020), tag_num=0x10)
  9: 0x0271 [0x29] REQ_SET_WAIT(priority=0x08, entity_id=Foo Beibo (ID: 17768480/0x010F2020), tag_num=0x11)
 10: 0x0278 [0x29] REQ_SET_WAIT(priority=0x08, entity_id=Foo Beibo (ID: 17768480/0x010F2020), tag_num=0x12)
 11: 0x027F [0x20] SET_CLI_EVENT_UC_FLAG: Unlock player control
 12: 0x0281 [0x21] END_EVENT
 13: 0x0282 [0x00] END_REQSTACK()
```

### Event 320

#### Metadata

| Field        | Value    |
|--------------|----------|
| Entrypoint   | 0x0283   |
| Data Size    | 47 bytes |
| Instructions | 14       |

```
      00 01 02 03 04 05 06 07  08 09 0A 0B 0C 0D 0E 0F
      -- -- -- -- -- -- -- --  -- -- -- -- -- -- -- --
0280:          1E F0 FF FF 7F  6F 70 29 08 20 20 0F 01     .....op).  ..
0290: 0F 1D 17 80 23 1D 18 80  23 29 08 20 20 0F 01 10  ....#...#).  ...
02A0: 29 08 20 20 0F 01 11 29  08 20 20 0F 01 12 20 00  ).  ...).  ... .
02B0: 21 00                                             !.              
```

#### Opcodes

```
  0: 0x0283 [0x1E] EventEntity looks at LocalPlayer and starts talking
  1: 0x0288 [0x6F] WAIT_FRAME_DELAY: Yield until WaitTime reaches zero
  2: 0x0289 [0x70] WAIT_ENTITY_RENDER_FLAG: Wait while EventEntity->Render.Flags3 bit 2 is set (cancel turn if not)
  3: 0x028A [0x29] REQ_SET_WAIT(priority=0x08, entity_id=Foo Beibo (ID: 17768480/0x010F2020), tag_num=0x0F)
  4: 0x0291 [0x1D] PRINT_EVENT_MESSAGE(message_id=8126*)
    → "The Shadow Lord has been dealt with, but Semih Lafihna is still as fired up as usual."
  5: 0x0294 [0x23] WAIT_FOR_DIALOG_INTERACTION
  6: 0x0295 [0x1D] PRINT_EVENT_MESSAGE(message_id=8127*)
    → "Today, she went out looking for that disrrruptive little Orastery minister."
  7: 0x0298 [0x23] WAIT_FOR_DIALOG_INTERACTION
  8: 0x0299 [0x29] REQ_SET_WAIT(priority=0x08, entity_id=Foo Beibo (ID: 17768480/0x010F2020), tag_num=0x10)
  9: 0x02A0 [0x29] REQ_SET_WAIT(priority=0x08, entity_id=Foo Beibo (ID: 17768480/0x010F2020), tag_num=0x11)
 10: 0x02A7 [0x29] REQ_SET_WAIT(priority=0x08, entity_id=Foo Beibo (ID: 17768480/0x010F2020), tag_num=0x12)
 11: 0x02AE [0x20] SET_CLI_EVENT_UC_FLAG: Unlock player control
 12: 0x02B0 [0x21] END_EVENT
 13: 0x02B1 [0x00] END_REQSTACK()
```

### Event 304

#### Metadata

| Field        | Value    |
|--------------|----------|
| Entrypoint   | 0x02B2   |
| Data Size    | 43 bytes |
| Instructions | 12       |

```
      00 01 02 03 04 05 06 07  08 09 0A 0B 0C 0D 0E 0F
      -- -- -- -- -- -- -- --  -- -- -- -- -- -- -- --
02B0:       1E F0 FF FF 7F 6F  70 29 08 20 20 0F 01 0F    .....op).  ...
02C0: 1D 19 80 23 29 08 20 20  0F 01 10 29 08 20 20 0F  ...#).  ...).  .
02D0: 01 11 29 08 20 20 0F 01  12 20 00 21 00           ..).  ... .!.   
```

#### Opcodes

```
  0: 0x02B2 [0x1E] EventEntity looks at LocalPlayer and starts talking
  1: 0x02B7 [0x6F] WAIT_FRAME_DELAY: Yield until WaitTime reaches zero
  2: 0x02B8 [0x70] WAIT_ENTITY_RENDER_FLAG: Wait while EventEntity->Render.Flags3 bit 2 is set (cancel turn if not)
  3: 0x02B9 [0x29] REQ_SET_WAIT(priority=0x08, entity_id=Foo Beibo (ID: 17768480/0x010F2020), tag_num=0x0F)
  4: 0x02C0 [0x1D] PRINT_EVENT_MESSAGE(message_id=8152*)
    → "That insolent Orastery minister has finally been put away. Now we might get some peace around here."
  5: 0x02C3 [0x23] WAIT_FOR_DIALOG_INTERACTION
  6: 0x02C4 [0x29] REQ_SET_WAIT(priority=0x08, entity_id=Foo Beibo (ID: 17768480/0x010F2020), tag_num=0x10)
  7: 0x02CB [0x29] REQ_SET_WAIT(priority=0x08, entity_id=Foo Beibo (ID: 17768480/0x010F2020), tag_num=0x11)
  8: 0x02D2 [0x29] REQ_SET_WAIT(priority=0x08, entity_id=Foo Beibo (ID: 17768480/0x010F2020), tag_num=0x12)
  9: 0x02D9 [0x20] SET_CLI_EVENT_UC_FLAG: Unlock player control
 10: 0x02DB [0x21] END_EVENT
 11: 0x02DC [0x00] END_REQSTACK()
```

### Event 367

#### Metadata

| Field        | Value    |
|--------------|----------|
| Entrypoint   | 0x02DD   |
| Data Size    | 47 bytes |
| Instructions | 14       |

```
      00 01 02 03 04 05 06 07  08 09 0A 0B 0C 0D 0E 0F
      -- -- -- -- -- -- -- --  -- -- -- -- -- -- -- --
02D0:                                         1E F0 FF               ...
02E0: FF 7F 6F 70 29 08 20 20  0F 01 0F 1D 1A 80 23 29  ..op).  ......#)
02F0: 08 20 20 0F 01 10 29 08  20 20 0F 01 11 1D 1B 80  .  ...).  ......
0300: 23 29 08 20 20 0F 01 12  20 00 21 00              #).  ... .!.    
```

#### Opcodes

```
  0: 0x02DD [0x1E] EventEntity looks at LocalPlayer and starts talking
  1: 0x02E2 [0x6F] WAIT_FRAME_DELAY: Yield until WaitTime reaches zero
  2: 0x02E3 [0x70] WAIT_ENTITY_RENDER_FLAG: Wait while EventEntity->Render.Flags3 bit 2 is set (cancel turn if not)
  3: 0x02E4 [0x29] REQ_SET_WAIT(priority=0x08, entity_id=Foo Beibo (ID: 17768480/0x010F2020), tag_num=0x0F)
  4: 0x02EB [0x1D] PRINT_EVENT_MESSAGE(message_id=8307*)
    → "Semih Lafihna and the Orastery minister forrrced open the door to the Star Sibyl's chambers."
  5: 0x02EE [0x23] WAIT_FOR_DIALOG_INTERACTION
  6: 0x02EF [0x29] REQ_SET_WAIT(priority=0x08, entity_id=Foo Beibo (ID: 17768480/0x010F2020), tag_num=0x10)
  7: 0x02F6 [0x29] REQ_SET_WAIT(priority=0x08, entity_id=Foo Beibo (ID: 17768480/0x010F2020), tag_num=0x11)
  8: 0x02FD [0x1D] PRINT_EVENT_MESSAGE(message_id=8308*)
    → "The bearer of darrrkness disappeared after seeing those two burrrst in, but... This may not be the last we'll see of it..."
  9: 0x0300 [0x23] WAIT_FOR_DIALOG_INTERACTION
 10: 0x0301 [0x29] REQ_SET_WAIT(priority=0x08, entity_id=Foo Beibo (ID: 17768480/0x010F2020), tag_num=0x12)
 11: 0x0308 [0x20] SET_CLI_EVENT_UC_FLAG: Unlock player control
 12: 0x030A [0x21] END_EVENT
 13: 0x030B [0x00] END_REQSTACK()
```

### Event 372

#### Metadata

| Field        | Value    |
|--------------|----------|
| Entrypoint   | 0x030C   |
| Data Size    | 47 bytes |
| Instructions | 14       |

```
      00 01 02 03 04 05 06 07  08 09 0A 0B 0C 0D 0E 0F
      -- -- -- -- -- -- -- --  -- -- -- -- -- -- -- --
0300:                                      1E F0 FF FF              ....
0310: 7F 6F 70 29 08 20 20 0F  01 0F 1D 1C 80 23 29 08  .op).  ......#).
0320: 20 20 0F 01 10 29 08 20  20 0F 01 11 1D 1D 80 23    ...).  ......#
0330: 29 08 20 20 0F 01 12 20  00 21 00                 ).  ... .!.     
```

#### Opcodes

```
  0: 0x030C [0x1E] EventEntity looks at LocalPlayer and starts talking
  1: 0x0311 [0x6F] WAIT_FRAME_DELAY: Yield until WaitTime reaches zero
  2: 0x0312 [0x70] WAIT_ENTITY_RENDER_FLAG: Wait while EventEntity->Render.Flags3 bit 2 is set (cancel turn if not)
  3: 0x0313 [0x29] REQ_SET_WAIT(priority=0x08, entity_id=Foo Beibo (ID: 17768480/0x010F2020), tag_num=0x0F)
  4: 0x031A [0x1D] PRINT_EVENT_MESSAGE(message_id=8320*)
    → "We underrrestimated those dolls, and now we're paying the prrrice for it."
  5: 0x031D [0x23] WAIT_FOR_DIALOG_INTERACTION
  6: 0x031E [0x29] REQ_SET_WAIT(priority=0x08, entity_id=Foo Beibo (ID: 17768480/0x010F2020), tag_num=0x10)
  7: 0x0325 [0x29] REQ_SET_WAIT(priority=0x08, entity_id=Foo Beibo (ID: 17768480/0x010F2020), tag_num=0x11)
  8: 0x032C [0x1D] PRINT_EVENT_MESSAGE(message_id=8321*)
    → "We have no choice but to go to the Manustery for help. But with the minister being Ajido-Marujido's sister, I wonder how much we can trrrust her."
  9: 0x032F [0x23] WAIT_FOR_DIALOG_INTERACTION
 10: 0x0330 [0x29] REQ_SET_WAIT(priority=0x08, entity_id=Foo Beibo (ID: 17768480/0x010F2020), tag_num=0x12)
 11: 0x0337 [0x20] SET_CLI_EVENT_UC_FLAG: Unlock player control
 12: 0x0339 [0x21] END_EVENT
 13: 0x033A [0x00] END_REQSTACK()
```

### Event 378

#### Metadata

| Field        | Value    |
|--------------|----------|
| Entrypoint   | 0x033B   |
| Data Size    | 47 bytes |
| Instructions | 14       |

```
      00 01 02 03 04 05 06 07  08 09 0A 0B 0C 0D 0E 0F
      -- -- -- -- -- -- -- --  -- -- -- -- -- -- -- --
0330:                                   1E F0 FF FF 7F             .....
0340: 6F 70 29 08 20 20 0F 01  0F 1D 1E 80 23 29 08 20  op).  ......#). 
0350: 20 0F 01 10 29 08 20 20  0F 01 11 1D 1F 80 23 29   ...).  ......#)
0360: 08 20 20 0F 01 12 20 00  21 00                    .  ... .!.      
```

#### Opcodes

```
  0: 0x033B [0x1E] EventEntity looks at LocalPlayer and starts talking
  1: 0x0340 [0x6F] WAIT_FRAME_DELAY: Yield until WaitTime reaches zero
  2: 0x0341 [0x70] WAIT_ENTITY_RENDER_FLAG: Wait while EventEntity->Render.Flags3 bit 2 is set (cancel turn if not)
  3: 0x0342 [0x29] REQ_SET_WAIT(priority=0x08, entity_id=Foo Beibo (ID: 17768480/0x010F2020), tag_num=0x0F)
  4: 0x0349 [0x1D] PRINT_EVENT_MESSAGE(message_id=8447*)
    → "Looks like the Yagudo are just itching to pick a fight with us."
  5: 0x034C [0x23] WAIT_FOR_DIALOG_INTERACTION
  6: 0x034D [0x29] REQ_SET_WAIT(priority=0x08, entity_id=Foo Beibo (ID: 17768480/0x010F2020), tag_num=0x10)
  7: 0x0354 [0x29] REQ_SET_WAIT(priority=0x08, entity_id=Foo Beibo (ID: 17768480/0x010F2020), tag_num=0x11)
  8: 0x035B [0x1D] PRINT_EVENT_MESSAGE(message_id=8448*)
    → "But the Star Sibyl will be the Star Sibyl. Why did she ever agrrree to sign such a prrroblematic treaty?"
  9: 0x035E [0x23] WAIT_FOR_DIALOG_INTERACTION
 10: 0x035F [0x29] REQ_SET_WAIT(priority=0x08, entity_id=Foo Beibo (ID: 17768480/0x010F2020), tag_num=0x12)
 11: 0x0366 [0x20] SET_CLI_EVENT_UC_FLAG: Unlock player control
 12: 0x0368 [0x21] END_EVENT
 13: 0x0369 [0x00] END_REQSTACK()
```

### Event 403

#### Metadata

| Field        | Value    |
|--------------|----------|
| Entrypoint   | 0x036A   |
| Data Size    | 61 bytes |
| Instructions | 16       |

```
      00 01 02 03 04 05 06 07  08 09 0A 0B 0C 0D 0E 0F
      -- -- -- -- -- -- -- --  -- -- -- -- -- -- -- --
0360:                                1E F0 FF FF 7F 6F            .....o
0370: 70 29 08 20 20 0F 01 09  1D 20 80 23 29 08 20 20  p).  .... .#).  
0380: 0F 01 0A 29 08 20 20 0F  01 0B 1D 21 80 23 29 08  ...).  ....!.#).
0390: 20 20 0F 01 0C 29 08 20  20 0F 01 0D 29 08 20 20    ...).  ...).  
03A0: 0F 01 0E 20 00 21 00                              ... .!.         
```

#### Opcodes

```
  0: 0x036A [0x1E] EventEntity looks at LocalPlayer and starts talking
  1: 0x036F [0x6F] WAIT_FRAME_DELAY: Yield until WaitTime reaches zero
  2: 0x0370 [0x70] WAIT_ENTITY_RENDER_FLAG: Wait while EventEntity->Render.Flags3 bit 2 is set (cancel turn if not)
  3: 0x0371 [0x29] REQ_SET_WAIT(priority=0x08, entity_id=Foo Beibo (ID: 17768480/0x010F2020), tag_num=0x09)
  4: 0x0378 [0x1D] PRINT_EVENT_MESSAGE(message_id=8539*)
    → "So the Bearer of Darkness was really a manifestation of both Karaha-Baruha and the Grrreat Beast, Fenrir?"
  5: 0x037B [0x23] WAIT_FOR_DIALOG_INTERACTION
  6: 0x037C [0x29] REQ_SET_WAIT(priority=0x08, entity_id=Foo Beibo (ID: 17768480/0x010F2020), tag_num=0x0A)
  7: 0x0383 [0x29] REQ_SET_WAIT(priority=0x08, entity_id=Foo Beibo (ID: 17768480/0x010F2020), tag_num=0x0B)
  8: 0x038A [0x1D] PRINT_EVENT_MESSAGE(message_id=8540*)
    → "The resurrection of Karaha-Baruha led to the revival of the Great Beast... People coming back from the dead is against the naturrral order of things. I'm not surprrrised that it led to these terrible events."
  9: 0x038D [0x23] WAIT_FOR_DIALOG_INTERACTION
 10: 0x038E [0x29] REQ_SET_WAIT(priority=0x08, entity_id=Foo Beibo (ID: 17768480/0x010F2020), tag_num=0x0C)
 11: 0x0395 [0x29] REQ_SET_WAIT(priority=0x08, entity_id=Foo Beibo (ID: 17768480/0x010F2020), tag_num=0x0D)
 12: 0x039C [0x29] REQ_SET_WAIT(priority=0x08, entity_id=Foo Beibo (ID: 17768480/0x010F2020), tag_num=0x0E)
 13: 0x03A3 [0x20] SET_CLI_EVENT_UC_FLAG: Unlock player control
 14: 0x03A5 [0x21] END_EVENT
 15: 0x03A6 [0x00] END_REQSTACK()
```
