# 17768491 - Heruru

## Common Data

| Field            | Value                   |
|------------------|-------------------------|
| Zone             | Heavens Tower (ID: 242) |
| Block Size       | 568 bytes               |
| Total Events     | 17                      |
| References Count | 20                      |

## List of Events

| Event ID                 | Entrypoint   |   Size |   Instructions |
|--------------------------|--------------|--------|----------------|
| [65535](#event-65535)    | 0x0000       |      1 |              1 |
| [65535.1](#event-655351) | 0x0001       |     16 |              2 |
| [65535.2](#event-655352) | 0x0011       |      9 |              3 |
| [65535.3](#event-655353) | 0x001A       |     16 |              2 |
| [65535.4](#event-655354) | 0x002A       |     14 |              2 |
| [65535.5](#event-655355) | 0x0038       |     16 |              2 |
| [65535.6](#event-655356) | 0x0048       |     14 |              2 |
| [62](#event-62)          | 0x0056       |     33 |             12 |
| [128](#event-128)        | 0x0077       |     33 |             12 |
| [142](#event-142)        | 0x0098       |     33 |             12 |
| [182](#event-182)        | 0x00B9       |     33 |             12 |
| [207](#event-207)        | 0x00DA       |     33 |             12 |
| [228](#event-228)        | 0x00FB       |     33 |             12 |
| [121](#event-121)        | 0x011C       |      1 |              1 |
| [342](#event-342)        | 0x011D       |     47 |             14 |
| [355](#event-355)        | 0x014C       |     33 |             12 |
| [393](#event-393)        | 0x016D       |     37 |             14 |

## DAT References (imed_data)

|   Index | Hex Value   |   Dec Value |
|---------|-------------|-------------|
|       0 | 0x0028      |          40 |
|       1 | 0x001E      |          30 |
|       2 | 0x0027      |          39 |
|       3 | 0x00FD      |         253 |
|       4 | 0x00FE      |         254 |
|       5 | 0x011E      |         286 |
|       6 | 0x011F      |         287 |
|       7 | 0x0177      |         375 |
|       8 | 0x0178      |         376 |
|       9 | 0x01CC      |         460 |
|      10 | 0x01CD      |         461 |
|      11 | 0x01FB      |         507 |
|      12 | 0x01FC      |         508 |
|      13 | 0x2061      |        8289 |
|      14 | 0x2062      |        8290 |
|      15 | 0x20ED      |        8429 |
|      16 | 0x20EE      |        8430 |
|      17 | 0x2148      |        8520 |
|      18 | 0x2149      |        8521 |
|      19 | 0x214A      |        8522 |

## String References

- **39**: The young ladies-in-waiting these days are more interested in gabby-gabbing and party-wartying than their duties... What is Heruru to do?
- **40**: Where will their small talk get them when there's a real emergency?
- **253**: After the Great War, the Star Sibyl tried to hidey-wide her fatigue from us.
- **254**: Lately I can sense the same fatigue in her eyes. It's all because of that evil-weevil Orastery minister!
- **286**: Have you heard if the Orastery minister has been captured yetaru? Oh where, oh where, could Lady Semih Lafihna have gone?
- **287**: [Mister/Miss] <Player>, please remember, just because that minister is a terrible man doesn't mean all Tarutaru are.
- **375**: Twenty years ago we were able to prevent the baddie-waddies from taking control of the Great Star Tree.
- **376**: But to think this "bearer of darkness" could just waltz right in here without anyone knowing! Woey-woe-woes is me!
- **460**: Bringing back the dead, indeed! It is hard to believe that such heretic magic exists in our fair Vana'diel.
- **461**: Though, that does remind me of that old legend of the magic doll...
- **507**: Bringing back the dead, indeed! It is hard to believe that such heretic magic exists in our fair Vana'diel.
- **508**: Though, that does remind me of that old legend of the magic doll...
- **8289**: C-calm down, everyone!!! We can't protectaru the Star Sibyl when we're all falling to pieces like this!
- **8290**: Are we going to do nothing but tremble-wemble in the corner the next time something like this happens? Adventurer, help Heruru bolster everyone's spirits!
- **8429**: When the bearer of darkness appeared, all Heruru did was tell the other ladies-in-waiting to calm down without giving any useful direction.
- **8430**: Heruru can'taru bear to face Zubaba after taking her tutelage in this area. Heruru should have been the one to calm down first.
- **8520**: Heruru has heard that the Diza Star has been worn by generations of Star Sibyls.
- **8521**: But even with the loss of the Diza Star's power, the light still shines warmly down upon Windurst...
- **8522**: The Star Sibyl enfolds us all in her heavenly splendor.

## Events

### Event 65535

#### Metadata

| Field        | Value   |
|--------------|---------|
| Entrypoint   | 0x0000  |
| Data Size    | 1 bytes |
| Instructions | 1       |

```
      00 01 02 03 04 05 06 07  08 09 0A 0B 0C 0D 0E 0F
      -- -- -- -- -- -- -- --  -- -- -- -- -- -- -- --
0000: 00                                                .               
```

#### Opcodes

```
  0: 0x0000 [0x00] END_REQSTACK()
```

### Event 65535.1

#### Metadata

| Field        | Value    |
|--------------|----------|
| Entrypoint   | 0x0001   |
| Data Size    | 16 bytes |
| Instructions | 2        |

```
      00 01 02 03 04 05 06 07  08 09 0A 0B 0C 0D 0E 0F
      -- -- -- -- -- -- -- --  -- -- -- -- -- -- -- --
0000:    66 00 80 F8 FF FF 7F  F8 FF FF 7F 74 6C 6B 30   f..........tlk0
0010: 00                                                .               
```

#### Opcodes

```
  0: 0x0001 [0x66] LOAD_EXT_SCHEDULER_MAIN: Load scheduler "tlk0" with entities [EventEntity, EventEntity], work=40*
  1: 0x0010 [0x00] END_REQSTACK()
```

### Event 65535.2

#### Metadata

| Field        | Value   |
|--------------|---------|
| Entrypoint   | 0x0011  |
| Data Size    | 9 bytes |
| Instructions | 3       |

```
      00 01 02 03 04 05 06 07  08 09 0A 0B 0C 0D 0E 0F
      -- -- -- -- -- -- -- --  -- -- -- -- -- -- -- --
0010:    5E 69 64 6C 30 1C 01  80 00                     ^idl0....      
```

#### Opcodes

```
  0: 0x0011 [0x5E] EventEntity goes idle (kills current action) (animation: "idl0")
  1: 0x0016 [0x1C] WAIT(30* ticks)
  2: 0x0019 [0x00] END_REQSTACK()
```

### Event 65535.3

#### Metadata

| Field        | Value    |
|--------------|----------|
| Entrypoint   | 0x001A   |
| Data Size    | 16 bytes |
| Instructions | 2        |

```
      00 01 02 03 04 05 06 07  08 09 0A 0B 0C 0D 0E 0F
      -- -- -- -- -- -- -- --  -- -- -- -- -- -- -- --
0010:                                66 00 80 F8 FF FF            f.....
0020: 7F F8 FF FF 7F 6F 62 69  30 00                    .....obi0.      
```

#### Opcodes

```
  0: 0x001A [0x66] LOAD_EXT_SCHEDULER_MAIN: Load scheduler "obi0" with entities [EventEntity, EventEntity], work=40*
  1: 0x0029 [0x00] END_REQSTACK()
```

### Event 65535.4

#### Metadata

| Field        | Value    |
|--------------|----------|
| Entrypoint   | 0x002A   |
| Data Size    | 14 bytes |
| Instructions | 2        |

```
      00 01 02 03 04 05 06 07  08 09 0A 0B 0C 0D 0E 0F
      -- -- -- -- -- -- -- --  -- -- -- -- -- -- -- --
0020:                                53 F8 FF FF 7F F8            S.....
0030: FF FF 7F 6F 62 69 30 00                           ...obi0.        
```

#### Opcodes

```
  0: 0x002A [0x53] WAIT_SCHEDULER_TASK: Wait for scheduler "obi0" with entities [EventEntity, EventEntity]
  1: 0x0037 [0x00] END_REQSTACK()
```

### Event 65535.5

#### Metadata

| Field        | Value    |
|--------------|----------|
| Entrypoint   | 0x0038   |
| Data Size    | 16 bytes |
| Instructions | 2        |

```
      00 01 02 03 04 05 06 07  08 09 0A 0B 0C 0D 0E 0F
      -- -- -- -- -- -- -- --  -- -- -- -- -- -- -- --
0030:                          66 00 80 F8 FF FF 7F F8          f.......
0040: FF FF 7F 6F 62 69 31 00                           ...obi1.        
```

#### Opcodes

```
  0: 0x0038 [0x66] LOAD_EXT_SCHEDULER_MAIN: Load scheduler "obi1" with entities [EventEntity, EventEntity], work=40*
  1: 0x0047 [0x00] END_REQSTACK()
```

### Event 65535.6

#### Metadata

| Field        | Value    |
|--------------|----------|
| Entrypoint   | 0x0048   |
| Data Size    | 14 bytes |
| Instructions | 2        |

```
      00 01 02 03 04 05 06 07  08 09 0A 0B 0C 0D 0E 0F
      -- -- -- -- -- -- -- --  -- -- -- -- -- -- -- --
0040:                          53 F8 FF FF 7F F8 FF FF          S.......
0050: 7F 6F 62 69 31 00                                 .obi1.          
```

#### Opcodes

```
  0: 0x0048 [0x53] WAIT_SCHEDULER_TASK: Wait for scheduler "obi1" with entities [EventEntity, EventEntity]
  1: 0x0055 [0x00] END_REQSTACK()
```

### Event 62

#### Metadata

| Field        | Value    |
|--------------|----------|
| Entrypoint   | 0x0056   |
| Data Size    | 33 bytes |
| Instructions | 12       |

```
      00 01 02 03 04 05 06 07  08 09 0A 0B 0C 0D 0E 0F
      -- -- -- -- -- -- -- --  -- -- -- -- -- -- -- --
0050:                   1E F0  FF FF 7F 6F 70 29 08 2B        .....op).+
0060: 20 0F 01 01 1D 02 80 23  1D 00 80 23 29 08 2B 20   ......#...#).+ 
0070: 0F 01 02 20 00 21 00                              ... .!.         
```

#### Opcodes

```
  0: 0x0056 [0x1E] EventEntity looks at LocalPlayer and starts talking
  1: 0x005B [0x6F] WAIT_FRAME_DELAY: Yield until WaitTime reaches zero
  2: 0x005C [0x70] WAIT_ENTITY_RENDER_FLAG: Wait while EventEntity->Render.Flags3 bit 2 is set (cancel turn if not)
  3: 0x005D [0x29] REQ_SET_WAIT(priority=0x08, entity_id=Heruru (ID: 17768491/0x010F202B), tag_num=0x01)
  4: 0x0064 [0x1D] PRINT_EVENT_MESSAGE(message_id=39*)
    → "The young ladies-in-waiting these days are more interested in gabby-gabbing and party-wartying than their duties... What is Heruru to do?"
  5: 0x0067 [0x23] WAIT_FOR_DIALOG_INTERACTION
  6: 0x0068 [0x1D] PRINT_EVENT_MESSAGE(message_id=40*)
    → "Where will their small talk get them when there's a real emergency?"
  7: 0x006B [0x23] WAIT_FOR_DIALOG_INTERACTION
  8: 0x006C [0x29] REQ_SET_WAIT(priority=0x08, entity_id=Heruru (ID: 17768491/0x010F202B), tag_num=0x02)
  9: 0x0073 [0x20] SET_CLI_EVENT_UC_FLAG: Unlock player control
 10: 0x0075 [0x21] END_EVENT
 11: 0x0076 [0x00] END_REQSTACK()
```

### Event 128

#### Metadata

| Field        | Value    |
|--------------|----------|
| Entrypoint   | 0x0077   |
| Data Size    | 33 bytes |
| Instructions | 12       |

```
      00 01 02 03 04 05 06 07  08 09 0A 0B 0C 0D 0E 0F
      -- -- -- -- -- -- -- --  -- -- -- -- -- -- -- --
0070:                      1E  F0 FF FF 7F 6F 70 29 08         .....op).
0080: 2B 20 0F 01 01 1D 03 80  23 1D 04 80 23 29 08 2B  + ......#...#).+
0090: 20 0F 01 02 20 00 21 00                            ... .!.        
```

#### Opcodes

```
  0: 0x0077 [0x1E] EventEntity looks at LocalPlayer and starts talking
  1: 0x007C [0x6F] WAIT_FRAME_DELAY: Yield until WaitTime reaches zero
  2: 0x007D [0x70] WAIT_ENTITY_RENDER_FLAG: Wait while EventEntity->Render.Flags3 bit 2 is set (cancel turn if not)
  3: 0x007E [0x29] REQ_SET_WAIT(priority=0x08, entity_id=Heruru (ID: 17768491/0x010F202B), tag_num=0x01)
  4: 0x0085 [0x1D] PRINT_EVENT_MESSAGE(message_id=253*)
    → "After the Great War, the Star Sibyl tried to hidey-wide her fatigue from us."
  5: 0x0088 [0x23] WAIT_FOR_DIALOG_INTERACTION
  6: 0x0089 [0x1D] PRINT_EVENT_MESSAGE(message_id=254*)
    → "Lately I can sense the same fatigue in her eyes. It's all because of that evil-weevil Orastery minister!"
  7: 0x008C [0x23] WAIT_FOR_DIALOG_INTERACTION
  8: 0x008D [0x29] REQ_SET_WAIT(priority=0x08, entity_id=Heruru (ID: 17768491/0x010F202B), tag_num=0x02)
  9: 0x0094 [0x20] SET_CLI_EVENT_UC_FLAG: Unlock player control
 10: 0x0096 [0x21] END_EVENT
 11: 0x0097 [0x00] END_REQSTACK()
```

### Event 142

#### Metadata

| Field        | Value    |
|--------------|----------|
| Entrypoint   | 0x0098   |
| Data Size    | 33 bytes |
| Instructions | 12       |

```
      00 01 02 03 04 05 06 07  08 09 0A 0B 0C 0D 0E 0F
      -- -- -- -- -- -- -- --  -- -- -- -- -- -- -- --
0090:                          1E F0 FF FF 7F 6F 70 29          .....op)
00A0: 08 2B 20 0F 01 01 1D 05  80 23 1D 06 80 23 29 08  .+ ......#...#).
00B0: 2B 20 0F 01 02 20 00 21  00                       + ... .!.       
```

#### Opcodes

```
  0: 0x0098 [0x1E] EventEntity looks at LocalPlayer and starts talking
  1: 0x009D [0x6F] WAIT_FRAME_DELAY: Yield until WaitTime reaches zero
  2: 0x009E [0x70] WAIT_ENTITY_RENDER_FLAG: Wait while EventEntity->Render.Flags3 bit 2 is set (cancel turn if not)
  3: 0x009F [0x29] REQ_SET_WAIT(priority=0x08, entity_id=Heruru (ID: 17768491/0x010F202B), tag_num=0x01)
  4: 0x00A6 [0x1D] PRINT_EVENT_MESSAGE(message_id=286*)
    → "Have you heard if the Orastery minister has been captured yetaru? Oh where, oh where, could Lady Semih Lafihna have gone?"
  5: 0x00A9 [0x23] WAIT_FOR_DIALOG_INTERACTION
  6: 0x00AA [0x1D] PRINT_EVENT_MESSAGE(message_id=287*)
    → "[Mister/Miss] <Player>, please remember, just because that minister is a terrible man doesn't mean all Tarutaru are."
  7: 0x00AD [0x23] WAIT_FOR_DIALOG_INTERACTION
  8: 0x00AE [0x29] REQ_SET_WAIT(priority=0x08, entity_id=Heruru (ID: 17768491/0x010F202B), tag_num=0x02)
  9: 0x00B5 [0x20] SET_CLI_EVENT_UC_FLAG: Unlock player control
 10: 0x00B7 [0x21] END_EVENT
 11: 0x00B8 [0x00] END_REQSTACK()
```

### Event 182

#### Metadata

| Field        | Value    |
|--------------|----------|
| Entrypoint   | 0x00B9   |
| Data Size    | 33 bytes |
| Instructions | 12       |

```
      00 01 02 03 04 05 06 07  08 09 0A 0B 0C 0D 0E 0F
      -- -- -- -- -- -- -- --  -- -- -- -- -- -- -- --
00B0:                             1E F0 FF FF 7F 6F 70           .....op
00C0: 29 08 2B 20 0F 01 01 1D  07 80 23 1D 08 80 23 29  ).+ ......#...#)
00D0: 08 2B 20 0F 01 02 20 00  21 00                    .+ ... .!.      
```

#### Opcodes

```
  0: 0x00B9 [0x1E] EventEntity looks at LocalPlayer and starts talking
  1: 0x00BE [0x6F] WAIT_FRAME_DELAY: Yield until WaitTime reaches zero
  2: 0x00BF [0x70] WAIT_ENTITY_RENDER_FLAG: Wait while EventEntity->Render.Flags3 bit 2 is set (cancel turn if not)
  3: 0x00C0 [0x29] REQ_SET_WAIT(priority=0x08, entity_id=Heruru (ID: 17768491/0x010F202B), tag_num=0x01)
  4: 0x00C7 [0x1D] PRINT_EVENT_MESSAGE(message_id=375*)
    → "Twenty years ago we were able to prevent the baddie-waddies from taking control of the Great Star Tree."
  5: 0x00CA [0x23] WAIT_FOR_DIALOG_INTERACTION
  6: 0x00CB [0x1D] PRINT_EVENT_MESSAGE(message_id=376*)
    → "But to think this "bearer of darkness" could just waltz right in here without anyone knowing! Woey-woe-woes is me!"
  7: 0x00CE [0x23] WAIT_FOR_DIALOG_INTERACTION
  8: 0x00CF [0x29] REQ_SET_WAIT(priority=0x08, entity_id=Heruru (ID: 17768491/0x010F202B), tag_num=0x02)
  9: 0x00D6 [0x20] SET_CLI_EVENT_UC_FLAG: Unlock player control
 10: 0x00D8 [0x21] END_EVENT
 11: 0x00D9 [0x00] END_REQSTACK()
```

### Event 207

#### Metadata

| Field        | Value    |
|--------------|----------|
| Entrypoint   | 0x00DA   |
| Data Size    | 33 bytes |
| Instructions | 12       |

```
      00 01 02 03 04 05 06 07  08 09 0A 0B 0C 0D 0E 0F
      -- -- -- -- -- -- -- --  -- -- -- -- -- -- -- --
00D0:                                1E F0 FF FF 7F 6F            .....o
00E0: 70 29 08 2B 20 0F 01 01  1D 09 80 23 1D 0A 80 23  p).+ ......#...#
00F0: 29 08 2B 20 0F 01 02 20  00 21 00                 ).+ ... .!.     
```

#### Opcodes

```
  0: 0x00DA [0x1E] EventEntity looks at LocalPlayer and starts talking
  1: 0x00DF [0x6F] WAIT_FRAME_DELAY: Yield until WaitTime reaches zero
  2: 0x00E0 [0x70] WAIT_ENTITY_RENDER_FLAG: Wait while EventEntity->Render.Flags3 bit 2 is set (cancel turn if not)
  3: 0x00E1 [0x29] REQ_SET_WAIT(priority=0x08, entity_id=Heruru (ID: 17768491/0x010F202B), tag_num=0x01)
  4: 0x00E8 [0x1D] PRINT_EVENT_MESSAGE(message_id=460*)
    → "Bringing back the dead, indeed! It is hard to believe that such heretic magic exists in our fair Vana'diel."
  5: 0x00EB [0x23] WAIT_FOR_DIALOG_INTERACTION
  6: 0x00EC [0x1D] PRINT_EVENT_MESSAGE(message_id=461*)
    → "Though, that does remind me of that old legend of the magic doll..."
  7: 0x00EF [0x23] WAIT_FOR_DIALOG_INTERACTION
  8: 0x00F0 [0x29] REQ_SET_WAIT(priority=0x08, entity_id=Heruru (ID: 17768491/0x010F202B), tag_num=0x02)
  9: 0x00F7 [0x20] SET_CLI_EVENT_UC_FLAG: Unlock player control
 10: 0x00F9 [0x21] END_EVENT
 11: 0x00FA [0x00] END_REQSTACK()
```

### Event 228

#### Metadata

| Field        | Value    |
|--------------|----------|
| Entrypoint   | 0x00FB   |
| Data Size    | 33 bytes |
| Instructions | 12       |

```
      00 01 02 03 04 05 06 07  08 09 0A 0B 0C 0D 0E 0F
      -- -- -- -- -- -- -- --  -- -- -- -- -- -- -- --
00F0:                                   1E F0 FF FF 7F             .....
0100: 6F 70 29 08 2B 20 0F 01  01 1D 0B 80 23 1D 0C 80  op).+ ......#...
0110: 23 29 08 2B 20 0F 01 02  20 00 21 00              #).+ ... .!.    
```

#### Opcodes

```
  0: 0x00FB [0x1E] EventEntity looks at LocalPlayer and starts talking
  1: 0x0100 [0x6F] WAIT_FRAME_DELAY: Yield until WaitTime reaches zero
  2: 0x0101 [0x70] WAIT_ENTITY_RENDER_FLAG: Wait while EventEntity->Render.Flags3 bit 2 is set (cancel turn if not)
  3: 0x0102 [0x29] REQ_SET_WAIT(priority=0x08, entity_id=Heruru (ID: 17768491/0x010F202B), tag_num=0x01)
  4: 0x0109 [0x1D] PRINT_EVENT_MESSAGE(message_id=507*)
    → "Bringing back the dead, indeed! It is hard to believe that such heretic magic exists in our fair Vana'diel."
  5: 0x010C [0x23] WAIT_FOR_DIALOG_INTERACTION
  6: 0x010D [0x1D] PRINT_EVENT_MESSAGE(message_id=508*)
    → "Though, that does remind me of that old legend of the magic doll..."
  7: 0x0110 [0x23] WAIT_FOR_DIALOG_INTERACTION
  8: 0x0111 [0x29] REQ_SET_WAIT(priority=0x08, entity_id=Heruru (ID: 17768491/0x010F202B), tag_num=0x02)
  9: 0x0118 [0x20] SET_CLI_EVENT_UC_FLAG: Unlock player control
 10: 0x011A [0x21] END_EVENT
 11: 0x011B [0x00] END_REQSTACK()
```

### Event 121

#### Metadata

| Field        | Value   |
|--------------|---------|
| Entrypoint   | 0x011C  |
| Data Size    | 1 bytes |
| Instructions | 1       |

```
      00 01 02 03 04 05 06 07  08 09 0A 0B 0C 0D 0E 0F
      -- -- -- -- -- -- -- --  -- -- -- -- -- -- -- --
0110:                                      00                       .   
```

#### Opcodes

```
  0: 0x011C [0x00] END_REQSTACK()
```

### Event 342

#### Metadata

| Field        | Value    |
|--------------|----------|
| Entrypoint   | 0x011D   |
| Data Size    | 47 bytes |
| Instructions | 14       |

```
      00 01 02 03 04 05 06 07  08 09 0A 0B 0C 0D 0E 0F
      -- -- -- -- -- -- -- --  -- -- -- -- -- -- -- --
0110:                                         1E F0 FF               ...
0120: FF 7F 6F 70 1D 0D 80 23  29 08 2B 20 0F 01 03 1D  ..op...#).+ ....
0130: 0E 80 23 29 08 2B 20 0F  01 03 29 08 2B 20 0F 01  ..#).+ ...).+ ..
0140: 05 29 08 2B 20 0F 01 06  20 00 21 00              .).+ ... .!.    
```

#### Opcodes

```
  0: 0x011D [0x1E] EventEntity looks at LocalPlayer and starts talking
  1: 0x0122 [0x6F] WAIT_FRAME_DELAY: Yield until WaitTime reaches zero
  2: 0x0123 [0x70] WAIT_ENTITY_RENDER_FLAG: Wait while EventEntity->Render.Flags3 bit 2 is set (cancel turn if not)
  3: 0x0124 [0x1D] PRINT_EVENT_MESSAGE(message_id=8289*)
    → "C-calm down, everyone!!! We can't protectaru the Star Sibyl when we're all falling to pieces like this!"
  4: 0x0127 [0x23] WAIT_FOR_DIALOG_INTERACTION
  5: 0x0128 [0x29] REQ_SET_WAIT(priority=0x08, entity_id=Heruru (ID: 17768491/0x010F202B), tag_num=0x03)
  6: 0x012F [0x1D] PRINT_EVENT_MESSAGE(message_id=8290*)
    → "Are we going to do nothing but tremble-wemble in the corner the next time something like this happens? Adventurer, help Heruru bolster everyone's spirits!"
  7: 0x0132 [0x23] WAIT_FOR_DIALOG_INTERACTION
  8: 0x0133 [0x29] REQ_SET_WAIT(priority=0x08, entity_id=Heruru (ID: 17768491/0x010F202B), tag_num=0x03)
  9: 0x013A [0x29] REQ_SET_WAIT(priority=0x08, entity_id=Heruru (ID: 17768491/0x010F202B), tag_num=0x05)
 10: 0x0141 [0x29] REQ_SET_WAIT(priority=0x08, entity_id=Heruru (ID: 17768491/0x010F202B), tag_num=0x06)
 11: 0x0148 [0x20] SET_CLI_EVENT_UC_FLAG: Unlock player control
 12: 0x014A [0x21] END_EVENT
 13: 0x014B [0x00] END_REQSTACK()
```

### Event 355

#### Metadata

| Field        | Value    |
|--------------|----------|
| Entrypoint   | 0x014C   |
| Data Size    | 33 bytes |
| Instructions | 12       |

```
      00 01 02 03 04 05 06 07  08 09 0A 0B 0C 0D 0E 0F
      -- -- -- -- -- -- -- --  -- -- -- -- -- -- -- --
0140:                                      1E F0 FF FF              ....
0150: 7F 6F 70 29 08 2B 20 0F  01 01 1D 0F 80 23 1D 10  .op).+ ......#..
0160: 80 23 29 08 2B 20 0F 01  02 20 00 21 00           .#).+ ... .!.   
```

#### Opcodes

```
  0: 0x014C [0x1E] EventEntity looks at LocalPlayer and starts talking
  1: 0x0151 [0x6F] WAIT_FRAME_DELAY: Yield until WaitTime reaches zero
  2: 0x0152 [0x70] WAIT_ENTITY_RENDER_FLAG: Wait while EventEntity->Render.Flags3 bit 2 is set (cancel turn if not)
  3: 0x0153 [0x29] REQ_SET_WAIT(priority=0x08, entity_id=Heruru (ID: 17768491/0x010F202B), tag_num=0x01)
  4: 0x015A [0x1D] PRINT_EVENT_MESSAGE(message_id=8429*)
    → "When the bearer of darkness appeared, all Heruru did was tell the other ladies-in-waiting to calm down without giving any useful direction."
  5: 0x015D [0x23] WAIT_FOR_DIALOG_INTERACTION
  6: 0x015E [0x1D] PRINT_EVENT_MESSAGE(message_id=8430*)
    → "Heruru can'taru bear to face Zubaba after taking her tutelage in this area. Heruru should have been the one to calm down first."
  7: 0x0161 [0x23] WAIT_FOR_DIALOG_INTERACTION
  8: 0x0162 [0x29] REQ_SET_WAIT(priority=0x08, entity_id=Heruru (ID: 17768491/0x010F202B), tag_num=0x02)
  9: 0x0169 [0x20] SET_CLI_EVENT_UC_FLAG: Unlock player control
 10: 0x016B [0x21] END_EVENT
 11: 0x016C [0x00] END_REQSTACK()
```

### Event 393

#### Metadata

| Field        | Value    |
|--------------|----------|
| Entrypoint   | 0x016D   |
| Data Size    | 37 bytes |
| Instructions | 14       |

```
      00 01 02 03 04 05 06 07  08 09 0A 0B 0C 0D 0E 0F
      -- -- -- -- -- -- -- --  -- -- -- -- -- -- -- --
0160:                                         1E F0 FF               ...
0170: FF 7F 6F 70 29 08 2B 20  0F 01 01 1D 11 80 23 1D  ..op).+ ......#.
0180: 12 80 23 29 08 2B 20 0F  01 02 1D 13 80 23 20 00  ..#).+ ......# .
0190: 21 00                                             !.              
```

#### Opcodes

```
  0: 0x016D [0x1E] EventEntity looks at LocalPlayer and starts talking
  1: 0x0172 [0x6F] WAIT_FRAME_DELAY: Yield until WaitTime reaches zero
  2: 0x0173 [0x70] WAIT_ENTITY_RENDER_FLAG: Wait while EventEntity->Render.Flags3 bit 2 is set (cancel turn if not)
  3: 0x0174 [0x29] REQ_SET_WAIT(priority=0x08, entity_id=Heruru (ID: 17768491/0x010F202B), tag_num=0x01)
  4: 0x017B [0x1D] PRINT_EVENT_MESSAGE(message_id=8520*)
    → "Heruru has heard that the Diza Star has been worn by generations of Star Sibyls."
  5: 0x017E [0x23] WAIT_FOR_DIALOG_INTERACTION
  6: 0x017F [0x1D] PRINT_EVENT_MESSAGE(message_id=8521*)
    → "But even with the loss of the Diza Star's power, the light still shines warmly down upon Windurst..."
  7: 0x0182 [0x23] WAIT_FOR_DIALOG_INTERACTION
  8: 0x0183 [0x29] REQ_SET_WAIT(priority=0x08, entity_id=Heruru (ID: 17768491/0x010F202B), tag_num=0x02)
  9: 0x018A [0x1D] PRINT_EVENT_MESSAGE(message_id=8522*)
    → "The Star Sibyl enfolds us all in her heavenly splendor."
 10: 0x018D [0x23] WAIT_FOR_DIALOG_INTERACTION
 11: 0x018E [0x20] SET_CLI_EVENT_UC_FLAG: Unlock player control
 12: 0x0190 [0x21] END_EVENT
 13: 0x0191 [0x00] END_REQSTACK()
```
