# 17768477 - Star Sibyl

## Common Data

| Field            | Value                   |
|------------------|-------------------------|
| Zone             | Heavens Tower (ID: 242) |
| Block Size       | 3168 bytes              |
| Total Events     | 146                     |
| References Count | 155                     |

## List of Events

| Event ID                     | Entrypoint   |   Size |   Instructions |
|------------------------------|--------------|--------|----------------|
| [65535](#event-65535)        | 0x0000       |      1 |              1 |
| [65535.1](#event-655351)     | 0x0001       |     16 |              2 |
| [65535.2](#event-655352)     | 0x0011       |     42 |              4 |
| [65535.3](#event-655353)     | 0x003B       |     16 |              2 |
| [65535.4](#event-655354)     | 0x004B       |     14 |              2 |
| [65535.5](#event-655355)     | 0x0059       |     16 |              2 |
| [65535.6](#event-655356)     | 0x0069       |     22 |              4 |
| [65535.7](#event-655357)     | 0x007F       |     16 |              2 |
| [65535.8](#event-655358)     | 0x008F       |     22 |              4 |
| [65535.9](#event-655359)     | 0x00A5       |     16 |              2 |
| [65535.10](#event-6553510)   | 0x00B5       |     14 |              2 |
| [65535.11](#event-6553511)   | 0x00C3       |     16 |              2 |
| [65535.12](#event-6553512)   | 0x00D3       |     14 |              2 |
| [65535.13](#event-6553513)   | 0x00E1       |     16 |              2 |
| [65535.14](#event-6553514)   | 0x00F1       |     14 |              2 |
| [65535.15](#event-6553515)   | 0x00FF       |     16 |              2 |
| [65535.16](#event-6553516)   | 0x010F       |     14 |              2 |
| [65535.17](#event-6553517)   | 0x011D       |     16 |              2 |
| [65535.18](#event-6553518)   | 0x012D       |     14 |              2 |
| [65535.19](#event-6553519)   | 0x013B       |     16 |              2 |
| [65535.20](#event-6553520)   | 0x014B       |     14 |              2 |
| [65535.21](#event-6553521)   | 0x0159       |     16 |              2 |
| [65535.22](#event-6553522)   | 0x0169       |     14 |              2 |
| [65535.23](#event-6553523)   | 0x0177       |     16 |              2 |
| [65535.24](#event-6553524)   | 0x0187       |     14 |              2 |
| [65535.25](#event-6553525)   | 0x0195       |     28 |              4 |
| [65535.26](#event-6553526)   | 0x01B1       |     26 |              4 |
| [65535.27](#event-6553527)   | 0x01CB       |      9 |              3 |
| [153](#event-153)            | 0x01D4       |     16 |              3 |
| [65535.28](#event-6553528)   | 0x01E4       |     37 |              9 |
| [65535.29](#event-6553529)   | 0x0209       |     15 |              5 |
| [65535.30](#event-6553530)   | 0x0218       |     15 |              5 |
| [65535.31](#event-6553531)   | 0x0227       |      5 |              3 |
| [65535.32](#event-6553532)   | 0x022C       |     23 |              7 |
| [65535.33](#event-6553533)   | 0x0243       |      5 |              3 |
| [65535.34](#event-6553534)   | 0x0248       |      5 |              3 |
| [65535.35](#event-6553535)   | 0x024D       |     19 |              5 |
| [65535.36](#event-6553536)   | 0x0260       |      9 |              5 |
| [65535.37](#event-6553537)   | 0x0269       |      5 |              3 |
| [65535.38](#event-6553538)   | 0x026E       |     19 |              5 |
| [65535.39](#event-6553539)   | 0x0281       |     19 |              5 |
| [65535.40](#event-6553540)   | 0x0294       |     23 |              7 |
| [65535.41](#event-6553541)   | 0x02AB       |     19 |              5 |
| [65535.42](#event-6553542)   | 0x02BE       |     19 |              5 |
| [65535.43](#event-6553543)   | 0x02D1       |     19 |              5 |
| [65535.44](#event-6553544)   | 0x02E4       |     37 |              9 |
| [65535.45](#event-6553545)   | 0x0309       |      5 |              3 |
| [65535.46](#event-6553546)   | 0x030E       |     19 |              5 |
| [65535.47](#event-6553547)   | 0x0321       |     23 |              7 |
| [166](#event-166)            | 0x0338       |     16 |              3 |
| [65535.48](#event-6553548)   | 0x0348       |      5 |              3 |
| [65535.49](#event-6553549)   | 0x034D       |      5 |              3 |
| [65535.50](#event-6553550)   | 0x0352       |      5 |              3 |
| [65535.51](#event-6553551)   | 0x0357       |      5 |              3 |
| [65535.52](#event-6553552)   | 0x035C       |      5 |              3 |
| [65535.53](#event-6553553)   | 0x0361       |     23 |              7 |
| [65535.54](#event-6553554)   | 0x0378       |     19 |              5 |
| [65535.55](#event-6553555)   | 0x038B       |      5 |              3 |
| [65535.56](#event-6553556)   | 0x0390       |      5 |              3 |
| [65535.57](#event-6553557)   | 0x0395       |      5 |              3 |
| [65535.58](#event-6553558)   | 0x039A       |      5 |              3 |
| [65535.59](#event-6553559)   | 0x039F       |     19 |              5 |
| [65535.60](#event-6553560)   | 0x03B2       |      5 |              3 |
| [190](#event-190)            | 0x03B7       |      1 |              1 |
| [191](#event-191)            | 0x03B8       |      1 |              1 |
| [65535.61](#event-6553561)   | 0x03B9       |     19 |              5 |
| [65535.62](#event-6553562)   | 0x03CC       |     19 |              5 |
| [65535.63](#event-6553563)   | 0x03DF       |     19 |              5 |
| [65535.64](#event-6553564)   | 0x03F2       |      9 |              5 |
| [192](#event-192)            | 0x03FB       |      1 |              1 |
| [65535.65](#event-6553565)   | 0x03FC       |     10 |              2 |
| [65535.66](#event-6553566)   | 0x0406       |     19 |              5 |
| [65535.67](#event-6553567)   | 0x0419       |     19 |              5 |
| [65535.68](#event-6553568)   | 0x042C       |     19 |              5 |
| [65535.69](#event-6553569)   | 0x043F       |     19 |              5 |
| [65535.70](#event-6553570)   | 0x0452       |     19 |              5 |
| [65535.71](#event-6553571)   | 0x0465       |     23 |              7 |
| [214](#event-214)            | 0x047C       |      1 |              1 |
| [65535.72](#event-6553572)   | 0x047D       |     19 |              5 |
| [65535.73](#event-6553573)   | 0x0490       |     19 |              5 |
| [65535.74](#event-6553574)   | 0x04A3       |     19 |              5 |
| [65535.75](#event-6553575)   | 0x04B6       |     19 |              5 |
| [65535.76](#event-6553576)   | 0x04C9       |     19 |              5 |
| [65535.77](#event-6553577)   | 0x04DC       |     19 |              5 |
| [65535.78](#event-6553578)   | 0x04EF       |     19 |              5 |
| [215](#event-215)            | 0x0502       |      1 |              1 |
| [65535.79](#event-6553579)   | 0x0503       |     10 |              2 |
| [65535.80](#event-6553580)   | 0x050D       |     12 |              4 |
| [65535.81](#event-6553581)   | 0x0519       |     12 |              4 |
| [216](#event-216)            | 0x0525       |      1 |              1 |
| [65535.82](#event-6553582)   | 0x0526       |     19 |              5 |
| [65535.83](#event-6553583)   | 0x0539       |     19 |              5 |
| [65535.84](#event-6553584)   | 0x054C       |     19 |              5 |
| [10001](#event-10001)        | 0x055F       |      1 |              1 |
| [65535.85](#event-6553585)   | 0x0560       |      1 |              1 |
| [65535.86](#event-6553586)   | 0x0561       |     10 |              2 |
| [65535.87](#event-6553587)   | 0x056B       |     10 |              2 |
| [65535.88](#event-6553588)   | 0x0575       |     10 |              2 |
| [65535.89](#event-6553589)   | 0x057F       |     15 |              5 |
| [65535.90](#event-6553590)   | 0x058E       |     18 |              6 |
| [65535.91](#event-6553591)   | 0x05A0       |     15 |              5 |
| [310](#event-310)            | 0x05AF       |      1 |              1 |
| [65535.92](#event-6553592)   | 0x05B0       |     10 |              2 |
| [65535.93](#event-6553593)   | 0x05BA       |     10 |              2 |
| [65535.94](#event-6553594)   | 0x05C4       |     14 |              4 |
| [65535.95](#event-6553595)   | 0x05D2       |     14 |              4 |
| [65535.96](#event-6553596)   | 0x05E0       |     23 |              7 |
| [65535.97](#event-6553597)   | 0x05F7       |      5 |              3 |
| [65535.98](#event-6553598)   | 0x05FC       |      5 |              3 |
| [65535.99](#event-6553599)   | 0x0601       |     19 |              5 |
| [65535.100](#event-65535100) | 0x0614       |     19 |              5 |
| [65535.101](#event-65535101) | 0x0627       |      5 |              3 |
| [65535.102](#event-65535102) | 0x062C       |     19 |              5 |
| [65535.103](#event-65535103) | 0x063F       |      5 |              3 |
| [65535.104](#event-65535104) | 0x0644       |     19 |              5 |
| [65535.105](#event-65535105) | 0x0657       |      5 |              3 |
| [65535.106](#event-65535106) | 0x065C       |      5 |              3 |
| [65535.107](#event-65535107) | 0x0661       |     19 |              5 |
| [312](#event-312)            | 0x0674       |      1 |              1 |
| [65535.108](#event-65535108) | 0x0675       |     19 |              5 |
| [65535.109](#event-65535109) | 0x0688       |     19 |              5 |
| [65535.110](#event-65535110) | 0x069B       |     19 |              5 |
| [335](#event-335)            | 0x06AE       |      1 |              1 |
| [362](#event-362)            | 0x06AF       |      1 |              1 |
| [65535.111](#event-65535111) | 0x06B0       |     16 |              3 |
| [65535.112](#event-65535112) | 0x06C0       |     10 |              2 |
| [65535.113](#event-65535113) | 0x06CA       |     16 |              3 |
| [65535.114](#event-65535114) | 0x06DA       |     14 |              4 |
| [65535.115](#event-65535115) | 0x06E8       |     10 |              2 |
| [65535.116](#event-65535116) | 0x06F2       |     10 |              2 |
| [65535.117](#event-65535117) | 0x06FC       |     10 |              2 |
| [65535.118](#event-65535118) | 0x0706       |     14 |              4 |
| [65535.119](#event-65535119) | 0x0714       |     14 |              4 |
| [65535.120](#event-65535120) | 0x0722       |     14 |              4 |
| [65535.121](#event-65535121) | 0x0730       |     14 |              4 |
| [407](#event-407)            | 0x073E       |      1 |              1 |
| [65535.122](#event-65535122) | 0x073F       |     10 |              2 |
| [65535.123](#event-65535123) | 0x0749       |     10 |              2 |
| [65535.124](#event-65535124) | 0x0753       |     15 |              5 |
| [65535.125](#event-65535125) | 0x0762       |     27 |              9 |
| [426](#event-426)            | 0x077D       |      1 |              1 |
| [427](#event-427)            | 0x077E       |      1 |              1 |
| [428](#event-428)            | 0x077F       |      1 |              1 |
| [65535.126](#event-65535126) | 0x0780       |     10 |              2 |
| [65535.127](#event-65535127) | 0x078A       |     14 |              4 |
| [429](#event-429)            | 0x0798       |      1 |              1 |

## DAT References (imed_data)

|   Index | Hex Value   |   Dec Value |
|---------|-------------|-------------|
|       0 | 0x00AA      |         170 |
|       1 | 0x001E      |          30 |
|       2 | 0x00AB      |         171 |
|       3 | 0x0054      |          84 |
|       4 | 0xAF3B      |       44859 |
|       5 | 0xFFFF0FAF  |  4294905775 |
|       6 | 0x0321      |         801 |
|       7 | 0x012C      |         300 |
|       8 | 0x0007      |           7 |
|       9 | 0xFFFFFFE9  |  4294967273 |
|      10 | 0xB236      |       45622 |
|      11 | 0xFFFFFFE8  |  4294967272 |
|      12 | 0xAF3C      |       44860 |
|      13 | 0x0142      |         322 |
|      14 | 0x0143      |         323 |
|      15 | 0x0144      |         324 |
|      16 | 0x0145      |         325 |
|      17 | 0x0146      |         326 |
|      18 | 0x0147      |         327 |
|      19 | 0x0148      |         328 |
|      20 | 0x0149      |         329 |
|      21 | 0x014B      |         331 |
|      22 | 0x014C      |         332 |
|      23 | 0x014D      |         333 |
|      24 | 0x014E      |         334 |
|      25 | 0x014F      |         335 |
|      26 | 0x0152      |         338 |
|      27 | 0x0153      |         339 |
|      28 | 0x0154      |         340 |
|      29 | 0x0155      |         341 |
|      30 | 0x0156      |         342 |
|      31 | 0x0157      |         343 |
|      32 | 0x0158      |         344 |
|      33 | 0x0159      |         345 |
|      34 | 0x015A      |         346 |
|      35 | 0xFFFFFF3B  |  4294967099 |
|      36 | 0xAD5E      |       44382 |
|      37 | 0x0BB4      |        2996 |
|      38 | 0x0185      |         389 |
|      39 | 0x0186      |         390 |
|      40 | 0x0187      |         391 |
|      41 | 0x018D      |         397 |
|      42 | 0x018E      |         398 |
|      43 | 0x0190      |         400 |
|      44 | 0x0191      |         401 |
|      45 | 0x019C      |         412 |
|      46 | 0x019D      |         413 |
|      47 | 0x019F      |         415 |
|      48 | 0x01A0      |         416 |
|      49 | 0x01A1      |         417 |
|      50 | 0x01A2      |         418 |
|      51 | 0x01A3      |         419 |
|      52 | 0x01A4      |         420 |
|      53 | 0x01A5      |         421 |
|      54 | 0x01A7      |         423 |
|      55 | 0x01A8      |         424 |
|      56 | 0x01A9      |         425 |
|      57 | 0x0000      |           0 |
|      58 | 0x01AA      |         426 |
|      59 | 0x01AB      |         427 |
|      60 | 0x01AC      |         428 |
|      61 | 0x01AD      |         429 |
|      62 | 0x01AF      |         431 |
|      63 | 0x01B0      |         432 |
|      64 | 0x01B1      |         433 |
|      65 | 0x01DA      |         474 |
|      66 | 0x01DB      |         475 |
|      67 | 0x01DC      |         476 |
|      68 | 0x01DD      |         477 |
|      69 | 0x01DE      |         478 |
|      70 | 0x01DF      |         479 |
|      71 | 0x01E0      |         480 |
|      72 | 0xFFFFFF97  |  4294967191 |
|      73 | 0xAC26      |       44070 |
|      74 | 0xFFFEF854  |  4294899796 |
|      75 | 0x03A9      |         937 |
|      76 | 0x01E1      |         481 |
|      77 | 0x01E2      |         482 |
|      78 | 0x01E3      |         483 |
|      79 | 0x01E4      |         484 |
|      80 | 0x01E5      |         485 |
|      81 | 0xFFFFFFC2  |  4294967234 |
|      82 | 0x6048      |       24648 |
|      83 | 0xFFFF4099  |  4294918297 |
|      84 | 0x047C      |        1148 |
|      85 | 0x0010      |          16 |
|      86 | 0x1FC9      |        8137 |
|      87 | 0xFFFF4868  |  4294920296 |
|      88 | 0x03CB      |         971 |
|      89 | 0x0417      |        1047 |
|      90 | 0xFFFF4869  |  4294920297 |
|      91 | 0x0815      |        2069 |
|      92 | 0xFFFFFFAB  |  4294967211 |
|      93 | 0x3F09      |       16137 |
|      94 | 0xFFFFFD72  |  4294966642 |
|      95 | 0xFFFFF5FD  |  4294964733 |
|      96 | 0xB2E8      |       45800 |
|      97 | 0x0BDC      |        3036 |
|      98 | 0xB02C      |       45100 |
|      99 | 0xAF00      |       44800 |
|     100 | 0x1FE3      |        8163 |
|     101 | 0x1FE4      |        8164 |
|     102 | 0x1FE8      |        8168 |
|     103 | 0x1FEB      |        8171 |
|     104 | 0x1FEE      |        8174 |
|     105 | 0x1FEF      |        8175 |
|     106 | 0x1FF0      |        8176 |
|     107 | 0x1FF1      |        8177 |
|     108 | 0x1FF2      |        8178 |
|     109 | 0x1FF4      |        8180 |
|     110 | 0x1FF5      |        8181 |
|     111 | 0x1FF6      |        8182 |
|     112 | 0x1FF7      |        8183 |
|     113 | 0x1FFE      |        8190 |
|     114 | 0x1FFF      |        8191 |
|     115 | 0x2000      |        8192 |
|     116 | 0x0B99      |        2969 |
|     117 | 0x00F8      |         248 |
|     118 | 0xADCF      |       44495 |
|     119 | 0x0A0C      |        2572 |
|     120 | 0xB143      |       45379 |
|     121 | 0xFFFF0FC5  |  4294905797 |
|     122 | 0x0CC9      |        3273 |
|     123 | 0x000D      |          13 |
|     124 | 0xFFFF1668  |  4294907496 |
|     125 | 0xF618      |       63000 |
|     126 | 0x2495      |        9365 |
|     127 | 0xFFFF0A96  |  4294904470 |
|     128 | 0xD808      |       55304 |
|     129 | 0x265B      |        9819 |
|     130 | 0x0D80      |        3456 |
|     131 | 0x3672      |       13938 |
|     132 | 0x10E66     |       69222 |
|     133 | 0xFFFF0FC4  |  4294905796 |
|     134 | 0x017A      |         378 |
|     135 | 0xFFFF1592  |  4294907282 |
|     136 | 0xBB80      |       48000 |
|     137 | 0x260A      |        9738 |
|     138 | 0x4E2A      |       20010 |
|     139 | 0x10F58     |       69464 |
|     140 | 0xB1A0      |       45472 |
|     141 | 0xAE67      |       44647 |
|     142 | 0xFFFEF855  |  4294899797 |
|     143 | 0x047E      |        1150 |
|     144 | 0x1152      |        4434 |
|     145 | 0xC10F      |       49423 |
|     146 | 0xFFFF11B8  |  4294906296 |
|     147 | 0x0611      |        1553 |
|     148 | 0x0372      |         882 |
|     149 | 0xBBA6      |       48038 |
|     150 | 0xFFFF11A3  |  4294906275 |
|     151 | 0x017E      |         382 |
|     152 | 0xAE8B      |       44683 |
|     153 | 0x0BF9      |        3065 |
|     154 | 0xB273      |       45683 |

## String References

- **322**: I am pleased that you came.
- **323**: <Player>, was it not? I have heard of your accomplishments from Semih Lafihna.
- **324**: After realizing how dedicated you have been in serving Windurst, I felt I must meet with you in person.
- **325**: I am honored to have such a noble adventurer here in my presence. You are much younger than I imagined.
- **326**: However, the reason I have called you here today is not solely for the purpose of greetings.
- **327**: I, the Star Sibyl, hereby appoint you, <Player>, to the post of ambassadorial envoy in the Grand Duchy of Jeuno.
- **328**: I apologize if I startled you with this sudden responsibility; however, the stars have already decided your fate.
- **329**: I can sense the fire that burns deep within your heart. I feel that you will not disgrace the new title that I have given you.
- **331**: You have seen with your own eyes the evil that lurks in Vana'diel. Soon that evil will have spread to every corner of our beloved lands.
- **332**: However, during these terrible times, Windurst must remain the beautiful, sublime mecca that it has become. To maintain this state, the cooperation of Jeuno is necessary.
- **333**: This is why sending a trustworthy delegate, such as yourself, to represent our country is of extreme importance.
- **334**: I am positive that your presence in Jeuno will benefit Windurst immeasurably.
- **335**: Will you travel to the Grand Duchy of Jeuno as an envoy of Windurst?
- **338**: Semih Lafihna... It is all right.
- **339**: I sense that your spirit is as free as the wind. You feel that committing yourself as an envoy will strip you of that freedom.
- **340**: It would be a lie to say that you would not be tied by this new responsibility.
- **341**: However, I have seen within your soul. I know that you want to do what is right for the peace of your country.
- **342**: It may be against your will, but I will appoint you as envoy to the Consulate of Windurst in Jeuno.
- **343**: I am certain that, in time, the stars will lead you there.
- **344**: I am grateful for your cooperation, <Player>.
- **345**: Journey to the Embassy of Windurst in the Grand Duchy of Jeuno.
- **346**: And do not forget, no matter where the stars lead you, I will always be watching.
- **389**: Ah, <Player>. I have awaited your return.
- **390**: While you were stationed in Jeuno, a great tragedy befell us here in Windurst.
- **391**: Please explain the details, Semih Lafihna.
- **397**: Now, Semih Lafihna. We are not certain if the bandits were the Yagudo.
- **398**: I was also visited by a bearer of darkness...
- **400**: <Player>. To protect it from theft, the talisman used to seal Castle Zvahl was divided into three pieces and distributed to each of the three ruling nations of Vana'diel.
- **401**: Checking up on San d'Oria and Bastok's talismans will be our mission. For you, we have another task.
- **412**: <Player>. I wish for you to travel to the Fei'Yin ruins.
- **413**: See if the fourth seal that the minister speaks of is still intact.
- **415**: If you find anything...disturbing, use this new seal in place of the old.
- **416**: The rumors of the revival of the Shadow Lord trouble me. However, if the barrier sealing the Northlands was to break, and the nether beasts were allowed to roam the peaceful lands of Vana'diel once more...
- **417**: <Player>. May the stars guide you on this perilous journey!
- **418**: I see... I realize this is a dangerous mission, and I will not force you to do anything beyond your will.
- **419**: However, <Player>, I have confidence that the stars will guide you in the right direction. I will be waiting here for you.
- **420**: <Player>. Ah, <Player>. I have awaited your return.
- **421**: Will you travel to the Fei'Yin ruins and investigate the seal?
- **423**: You are truly ready to take on this dangerous mission to the cursed Northlands?
- **424**: I am pleased to hear your change of heart. If you find anything disturbing with the situation there, use this new seal in place of the old.
- **425**: <Player>. May the stars guide you on this perilous journey!
- **426**: I am delighted at the news of your safe return.
- **427**: What did you find in Fei'Yin? Was the seal...
- **428**: I see... So the seal is no more...
- **429**: If the beastmen were to lead a force of nether beasts into Windurst, we would be thrust back twenty years.
- **431**: I feel the same way, Semih Lafihna. Let us call forth the five ministers of Windurst. We need to work together in this time of despair.
- **432**: You will be summoned when your next mission has been decided.
- **433**: Go and prepare for your journey. The light of the great white star will guide you here when it is time.
- **474**: I have been awaiting your return, <Player>.
- **475**: It has been decided that Windurst will not take any military action against the Shadow Lord.
- **476**: There are still too many unanswered questions. Any action now would erase what we have worked so hard to build with the Yagudo.
- **477**: However, we must put a stop to the Shadow Lord's return. We cannot allow Vana'diel to be thrust back into a war.
- **478**: That is where you come in.
- **479**: I would like you to travel to Castle Zvahl and prevent the resurrection of the Shadow Lord.
- **480**: I believe in you, <Player>. Let the stars guide you to victory on your celestial journey.
- **481**: One great star has fallen...
- **482**: No... It cannot be... That is not the star that I...
- **483**: I am pleased to witness your safe return, <Player>.
- **484**: I cannot express in words the gratitude that I, and the country of Windurst, feel for you.
- **485**: For now, your duty is done. Until the stars call on you once again...
- **8163**: Summoning is extraordinarily dangerous. We were not meant to experiment with such powers.
- **8164**: The Orastery minister has tampered with the Horutoto Ruins without permission...I can no longer overlook his indiscretions.
- **8168**: ...That kind of overwhelming power invites dreams of ambition that will lead to the destruction of our country.
- **8171**: I was informed by the Sibyl Guards that you were with Ajido-Marujido at the time of his arrest.
- **8174**: I see. Perhaps that is as it should be. ...However, the Windurst of today does not have the might to war with the beastmen as it did twenty years ago.
- **8175**: No, do not try to hide it. Your eyes burn with the flames of a warrior's spirit. ...However, the Windurst of today does not have the might to war with the beastmen as it did twenty years ago.
- **8176**: But I did not call you here to speak of war. You are here to atone for the crimes you have committed.
- **8177**: Do not be concerned. With the great services you have performed for our nation, you will escape the fate that has befallen Ajido-Marujido.
- **8178**: However, your transgression at the behest of the Orastery minister is more serious than you think... I cannot simply let this matter drop.
- **8180**: This is an invitation to participate in the contest held at Balga's Dais in Giddeus. It is a tournament that pits the warriors of Windurst against the champions of the Yagudo in order to reinforce our bond of mutual trust.
- **8181**: If you do not prevail against their champions in the contest, however, Windurst must increase her offerings to the Yagudo.
- **8182**: You may have as many as six people participate in the tournament, as long as you all meet the requirements. Find those who have had experience fighting in the contest and enlist their assistance.
- **8183**: ...... <Player>... I realize you must have little affection for me now, but let me say one thing.
- **8190**: <Player>, you have returned. The Yagudo Holy One appears to be satisfied with the outcome of the contest.
- **8191**: I now declare your crimes to be forgiven, and grant you your freedom.
- **8192**: But this does not give you leave to speak of what you witnessed at the Full Moon Fountain. I ask you to keep these things locked tight within your heart.

## Events

### Event 65535

#### Metadata

| Field        | Value   |
|--------------|---------|
| Entrypoint   | 0x0000  |
| Data Size    | 1 bytes |
| Instructions | 1       |

```
      00 01 02 03 04 05 06 07  08 09 0A 0B 0C 0D 0E 0F
      -- -- -- -- -- -- -- --  -- -- -- -- -- -- -- --
0000: 00                                                .               
```

#### Opcodes

```
  0: 0x0000 [0x00] END_REQSTACK()
```

### Event 65535.1

#### Metadata

| Field        | Value    |
|--------------|----------|
| Entrypoint   | 0x0001   |
| Data Size    | 16 bytes |
| Instructions | 2        |

```
      00 01 02 03 04 05 06 07  08 09 0A 0B 0C 0D 0E 0F
      -- -- -- -- -- -- -- --  -- -- -- -- -- -- -- --
0000:    5B 00 80 F8 FF FF 7F  F8 FF FF 7F 74 6C 61 30   [..........tla0
0010: 00                                                .               
```

#### Opcodes

```
  0: 0x0001 [0x5B] LOAD_EXT_SCHEDULER: Load scheduler "tla0" with entities [EventEntity, EventEntity], work=170*
  1: 0x0010 [0x00] END_REQSTACK()
```

### Event 65535.2

#### Metadata

| Field        | Value    |
|--------------|----------|
| Entrypoint   | 0x0011   |
| Data Size    | 42 bytes |
| Instructions | 4        |

```
      00 01 02 03 04 05 06 07  08 09 0A 0B 0C 0D 0E 0F
      -- -- -- -- -- -- -- --  -- -- -- -- -- -- -- --
0010:    53 F8 FF FF 7F F8 FF  FF 7F 74 6C 61 30 5B 00   S........tla0[.
0020: 80 F8 FF FF 7F F8 FF FF  7F 74 6C 61 31 53 F8 FF  .........tla1S..
0030: FF 7F F8 FF FF 7F 74 6C  61 31 00                 ......tla1.     
```

#### Opcodes

```
  0: 0x0011 [0x53] WAIT_SCHEDULER_TASK: Wait for scheduler "tla0" with entities [EventEntity, EventEntity]
  1: 0x001E [0x5B] LOAD_EXT_SCHEDULER: Load scheduler "tla1" with entities [EventEntity, EventEntity], work=170*
  2: 0x002D [0x53] WAIT_SCHEDULER_TASK: Wait for scheduler "tla1" with entities [EventEntity, EventEntity]
  3: 0x003A [0x00] END_REQSTACK()
```

### Event 65535.3

#### Metadata

| Field        | Value    |
|--------------|----------|
| Entrypoint   | 0x003B   |
| Data Size    | 16 bytes |
| Instructions | 2        |

```
      00 01 02 03 04 05 06 07  08 09 0A 0B 0C 0D 0E 0F
      -- -- -- -- -- -- -- --  -- -- -- -- -- -- -- --
0030:                                   5B 00 80 F8 FF             [....
0040: FF 7F F8 FF FF 7F 74 6C  62 30 00                 ......tlb0.     
```

#### Opcodes

```
  0: 0x003B [0x5B] LOAD_EXT_SCHEDULER: Load scheduler "tlb0" with entities [EventEntity, EventEntity], work=170*
  1: 0x004A [0x00] END_REQSTACK()
```

### Event 65535.4

#### Metadata

| Field        | Value    |
|--------------|----------|
| Entrypoint   | 0x004B   |
| Data Size    | 14 bytes |
| Instructions | 2        |

```
      00 01 02 03 04 05 06 07  08 09 0A 0B 0C 0D 0E 0F
      -- -- -- -- -- -- -- --  -- -- -- -- -- -- -- --
0040:                                   53 F8 FF FF 7F             S....
0050: F8 FF FF 7F 74 6C 62 30  00                       ....tlb0.       
```

#### Opcodes

```
  0: 0x004B [0x53] WAIT_SCHEDULER_TASK: Wait for scheduler "tlb0" with entities [EventEntity, EventEntity]
  1: 0x0058 [0x00] END_REQSTACK()
```

### Event 65535.5

#### Metadata

| Field        | Value    |
|--------------|----------|
| Entrypoint   | 0x0059   |
| Data Size    | 16 bytes |
| Instructions | 2        |

```
      00 01 02 03 04 05 06 07  08 09 0A 0B 0C 0D 0E 0F
      -- -- -- -- -- -- -- --  -- -- -- -- -- -- -- --
0050:                             5B 00 80 F8 FF FF 7F           [......
0060: F8 FF FF 7F 74 6C 63 30  00                       ....tlc0.       
```

#### Opcodes

```
  0: 0x0059 [0x5B] LOAD_EXT_SCHEDULER: Load scheduler "tlc0" with entities [EventEntity, EventEntity], work=170*
  1: 0x0068 [0x00] END_REQSTACK()
```

### Event 65535.6

#### Metadata

| Field        | Value    |
|--------------|----------|
| Entrypoint   | 0x0069   |
| Data Size    | 22 bytes |
| Instructions | 4        |

```
      00 01 02 03 04 05 06 07  08 09 0A 0B 0C 0D 0E 0F
      -- -- -- -- -- -- -- --  -- -- -- -- -- -- -- --
0060:                             53 F8 FF FF 7F F8 FF           S......
0070: FF 7F 74 6C 63 30 5E 69  64 6C 30 1C 01 80 00     ..tlc0^idl0.... 
```

#### Opcodes

```
  0: 0x0069 [0x53] WAIT_SCHEDULER_TASK: Wait for scheduler "tlc0" with entities [EventEntity, EventEntity]
  1: 0x0076 [0x5E] EventEntity goes idle (kills current action) (animation: "idl0")
  2: 0x007B [0x1C] WAIT(30* ticks)
  3: 0x007E [0x00] END_REQSTACK()
```

### Event 65535.7

#### Metadata

| Field        | Value    |
|--------------|----------|
| Entrypoint   | 0x007F   |
| Data Size    | 16 bytes |
| Instructions | 2        |

```
      00 01 02 03 04 05 06 07  08 09 0A 0B 0C 0D 0E 0F
      -- -- -- -- -- -- -- --  -- -- -- -- -- -- -- --
0070:                                               5B                 [
0080: 00 80 F8 FF FF 7F F8 FF  FF 7F 74 6C 64 30 00     ..........tld0. 
```

#### Opcodes

```
  0: 0x007F [0x5B] LOAD_EXT_SCHEDULER: Load scheduler "tld0" with entities [EventEntity, EventEntity], work=170*
  1: 0x008E [0x00] END_REQSTACK()
```

### Event 65535.8

#### Metadata

| Field        | Value    |
|--------------|----------|
| Entrypoint   | 0x008F   |
| Data Size    | 22 bytes |
| Instructions | 4        |

```
      00 01 02 03 04 05 06 07  08 09 0A 0B 0C 0D 0E 0F
      -- -- -- -- -- -- -- --  -- -- -- -- -- -- -- --
0080:                                               53                 S
0090: F8 FF FF 7F F8 FF FF 7F  74 6C 64 30 5E 69 64 6C  ........tld0^idl
00A0: 30 1C 01 80 00                                    0....           
```

#### Opcodes

```
  0: 0x008F [0x53] WAIT_SCHEDULER_TASK: Wait for scheduler "tld0" with entities [EventEntity, EventEntity]
  1: 0x009C [0x5E] EventEntity goes idle (kills current action) (animation: "idl0")
  2: 0x00A1 [0x1C] WAIT(30* ticks)
  3: 0x00A4 [0x00] END_REQSTACK()
```

### Event 65535.9

#### Metadata

| Field        | Value    |
|--------------|----------|
| Entrypoint   | 0x00A5   |
| Data Size    | 16 bytes |
| Instructions | 2        |

```
      00 01 02 03 04 05 06 07  08 09 0A 0B 0C 0D 0E 0F
      -- -- -- -- -- -- -- --  -- -- -- -- -- -- -- --
00A0:                5B 00 80  F8 FF FF 7F F8 FF FF 7F       [..........
00B0: 74 6C 64 31 00                                    tld1.           
```

#### Opcodes

```
  0: 0x00A5 [0x5B] LOAD_EXT_SCHEDULER: Load scheduler "tld1" with entities [EventEntity, EventEntity], work=170*
  1: 0x00B4 [0x00] END_REQSTACK()
```

### Event 65535.10

#### Metadata

| Field        | Value    |
|--------------|----------|
| Entrypoint   | 0x00B5   |
| Data Size    | 14 bytes |
| Instructions | 2        |

```
      00 01 02 03 04 05 06 07  08 09 0A 0B 0C 0D 0E 0F
      -- -- -- -- -- -- -- --  -- -- -- -- -- -- -- --
00B0:                53 F8 FF  FF 7F F8 FF FF 7F 74 6C       S........tl
00C0: 64 31 00                                          d1.             
```

#### Opcodes

```
  0: 0x00B5 [0x53] WAIT_SCHEDULER_TASK: Wait for scheduler "tld1" with entities [EventEntity, EventEntity]
  1: 0x00C2 [0x00] END_REQSTACK()
```

### Event 65535.11

#### Metadata

| Field        | Value    |
|--------------|----------|
| Entrypoint   | 0x00C3   |
| Data Size    | 16 bytes |
| Instructions | 2        |

```
      00 01 02 03 04 05 06 07  08 09 0A 0B 0C 0D 0E 0F
      -- -- -- -- -- -- -- --  -- -- -- -- -- -- -- --
00C0:          5B 00 80 F8 FF  FF 7F F8 FF FF 7F 74 68     [..........th
00D0: 6B 31 00                                          k1.             
```

#### Opcodes

```
  0: 0x00C3 [0x5B] LOAD_EXT_SCHEDULER: Load scheduler "thk1" with entities [EventEntity, EventEntity], work=170*
  1: 0x00D2 [0x00] END_REQSTACK()
```

### Event 65535.12

#### Metadata

| Field        | Value    |
|--------------|----------|
| Entrypoint   | 0x00D3   |
| Data Size    | 14 bytes |
| Instructions | 2        |

```
      00 01 02 03 04 05 06 07  08 09 0A 0B 0C 0D 0E 0F
      -- -- -- -- -- -- -- --  -- -- -- -- -- -- -- --
00D0:          53 F8 FF FF 7F  F8 FF FF 7F 74 68 6B 31     S........thk1
00E0: 00                                                .               
```

#### Opcodes

```
  0: 0x00D3 [0x53] WAIT_SCHEDULER_TASK: Wait for scheduler "thk1" with entities [EventEntity, EventEntity]
  1: 0x00E0 [0x00] END_REQSTACK()
```

### Event 65535.13

#### Metadata

| Field        | Value    |
|--------------|----------|
| Entrypoint   | 0x00E1   |
| Data Size    | 16 bytes |
| Instructions | 2        |

```
      00 01 02 03 04 05 06 07  08 09 0A 0B 0C 0D 0E 0F
      -- -- -- -- -- -- -- --  -- -- -- -- -- -- -- --
00E0:    5B 00 80 F8 FF FF 7F  F8 FF FF 7F 74 68 6B 32   [..........thk2
00F0: 00                                                .               
```

#### Opcodes

```
  0: 0x00E1 [0x5B] LOAD_EXT_SCHEDULER: Load scheduler "thk2" with entities [EventEntity, EventEntity], work=170*
  1: 0x00F0 [0x00] END_REQSTACK()
```

### Event 65535.14

#### Metadata

| Field        | Value    |
|--------------|----------|
| Entrypoint   | 0x00F1   |
| Data Size    | 14 bytes |
| Instructions | 2        |

```
      00 01 02 03 04 05 06 07  08 09 0A 0B 0C 0D 0E 0F
      -- -- -- -- -- -- -- --  -- -- -- -- -- -- -- --
00F0:    53 F8 FF FF 7F F8 FF  FF 7F 74 68 6B 32 00      S........thk2. 
```

#### Opcodes

```
  0: 0x00F1 [0x53] WAIT_SCHEDULER_TASK: Wait for scheduler "thk2" with entities [EventEntity, EventEntity]
  1: 0x00FE [0x00] END_REQSTACK()
```

### Event 65535.15

#### Metadata

| Field        | Value    |
|--------------|----------|
| Entrypoint   | 0x00FF   |
| Data Size    | 16 bytes |
| Instructions | 2        |

```
      00 01 02 03 04 05 06 07  08 09 0A 0B 0C 0D 0E 0F
      -- -- -- -- -- -- -- --  -- -- -- -- -- -- -- --
00F0:                                               5B                 [
0100: 00 80 F8 FF FF 7F F8 FF  FF 7F 7A 65 74 30 00     ..........zet0. 
```

#### Opcodes

```
  0: 0x00FF [0x5B] LOAD_EXT_SCHEDULER: Load scheduler "zet0" with entities [EventEntity, EventEntity], work=170*
  1: 0x010E [0x00] END_REQSTACK()
```

### Event 65535.16

#### Metadata

| Field        | Value    |
|--------------|----------|
| Entrypoint   | 0x010F   |
| Data Size    | 14 bytes |
| Instructions | 2        |

```
      00 01 02 03 04 05 06 07  08 09 0A 0B 0C 0D 0E 0F
      -- -- -- -- -- -- -- --  -- -- -- -- -- -- -- --
0100:                                               53                 S
0110: F8 FF FF 7F F8 FF FF 7F  7A 65 74 30 00           ........zet0.   
```

#### Opcodes

```
  0: 0x010F [0x53] WAIT_SCHEDULER_TASK: Wait for scheduler "zet0" with entities [EventEntity, EventEntity]
  1: 0x011C [0x00] END_REQSTACK()
```

### Event 65535.17

#### Metadata

| Field        | Value    |
|--------------|----------|
| Entrypoint   | 0x011D   |
| Data Size    | 16 bytes |
| Instructions | 2        |

```
      00 01 02 03 04 05 06 07  08 09 0A 0B 0C 0D 0E 0F
      -- -- -- -- -- -- -- --  -- -- -- -- -- -- -- --
0110:                                         5B 00 80               [..
0120: F8 FF FF 7F F8 FF FF 7F  6F 62 69 30 00           ........obi0.   
```

#### Opcodes

```
  0: 0x011D [0x5B] LOAD_EXT_SCHEDULER: Load scheduler "obi0" with entities [EventEntity, EventEntity], work=170*
  1: 0x012C [0x00] END_REQSTACK()
```

### Event 65535.18

#### Metadata

| Field        | Value    |
|--------------|----------|
| Entrypoint   | 0x012D   |
| Data Size    | 14 bytes |
| Instructions | 2        |

```
      00 01 02 03 04 05 06 07  08 09 0A 0B 0C 0D 0E 0F
      -- -- -- -- -- -- -- --  -- -- -- -- -- -- -- --
0120:                                         53 F8 FF               S..
0130: FF 7F F8 FF FF 7F 6F 62  69 30 00                 ......obi0.     
```

#### Opcodes

```
  0: 0x012D [0x53] WAIT_SCHEDULER_TASK: Wait for scheduler "obi0" with entities [EventEntity, EventEntity]
  1: 0x013A [0x00] END_REQSTACK()
```

### Event 65535.19

#### Metadata

| Field        | Value    |
|--------------|----------|
| Entrypoint   | 0x013B   |
| Data Size    | 16 bytes |
| Instructions | 2        |

```
      00 01 02 03 04 05 06 07  08 09 0A 0B 0C 0D 0E 0F
      -- -- -- -- -- -- -- --  -- -- -- -- -- -- -- --
0130:                                   5B 00 80 F8 FF             [....
0140: FF 7F F8 FF FF 7F 74 61  6D 30 00                 ......tam0.     
```

#### Opcodes

```
  0: 0x013B [0x5B] LOAD_EXT_SCHEDULER: Load scheduler "tam0" with entities [EventEntity, EventEntity], work=170*
  1: 0x014A [0x00] END_REQSTACK()
```

### Event 65535.20

#### Metadata

| Field        | Value    |
|--------------|----------|
| Entrypoint   | 0x014B   |
| Data Size    | 14 bytes |
| Instructions | 2        |

```
      00 01 02 03 04 05 06 07  08 09 0A 0B 0C 0D 0E 0F
      -- -- -- -- -- -- -- --  -- -- -- -- -- -- -- --
0140:                                   53 F8 FF FF 7F             S....
0150: F8 FF FF 7F 74 61 6D 30  00                       ....tam0.       
```

#### Opcodes

```
  0: 0x014B [0x53] WAIT_SCHEDULER_TASK: Wait for scheduler "tam0" with entities [EventEntity, EventEntity]
  1: 0x0158 [0x00] END_REQSTACK()
```

### Event 65535.21

#### Metadata

| Field        | Value    |
|--------------|----------|
| Entrypoint   | 0x0159   |
| Data Size    | 16 bytes |
| Instructions | 2        |

```
      00 01 02 03 04 05 06 07  08 09 0A 0B 0C 0D 0E 0F
      -- -- -- -- -- -- -- --  -- -- -- -- -- -- -- --
0150:                             5B 02 80 F8 FF FF 7F           [......
0160: F8 FF FF 7F 6B 79 64 30  00                       ....kyd0.       
```

#### Opcodes

```
  0: 0x0159 [0x5B] LOAD_EXT_SCHEDULER: Load scheduler "kyd0" with entities [EventEntity, EventEntity], work=171*
  1: 0x0168 [0x00] END_REQSTACK()
```

### Event 65535.22

#### Metadata

| Field        | Value    |
|--------------|----------|
| Entrypoint   | 0x0169   |
| Data Size    | 14 bytes |
| Instructions | 2        |

```
      00 01 02 03 04 05 06 07  08 09 0A 0B 0C 0D 0E 0F
      -- -- -- -- -- -- -- --  -- -- -- -- -- -- -- --
0160:                             53 F8 FF FF 7F F8 FF           S......
0170: FF 7F 6B 79 64 30 00                              ..kyd0.         
```

#### Opcodes

```
  0: 0x0169 [0x53] WAIT_SCHEDULER_TASK: Wait for scheduler "kyd0" with entities [EventEntity, EventEntity]
  1: 0x0176 [0x00] END_REQSTACK()
```

### Event 65535.23

#### Metadata

| Field        | Value    |
|--------------|----------|
| Entrypoint   | 0x0177   |
| Data Size    | 16 bytes |
| Instructions | 2        |

```
      00 01 02 03 04 05 06 07  08 09 0A 0B 0C 0D 0E 0F
      -- -- -- -- -- -- -- --  -- -- -- -- -- -- -- --
0170:                      5B  02 80 F8 FF FF 7F F8 FF         [........
0180: FF 7F 6B 6E 6A 30 00                              ..knj0.         
```

#### Opcodes

```
  0: 0x0177 [0x5B] LOAD_EXT_SCHEDULER: Load scheduler "knj0" with entities [EventEntity, EventEntity], work=171*
  1: 0x0186 [0x00] END_REQSTACK()
```

### Event 65535.24

#### Metadata

| Field        | Value    |
|--------------|----------|
| Entrypoint   | 0x0187   |
| Data Size    | 14 bytes |
| Instructions | 2        |

```
      00 01 02 03 04 05 06 07  08 09 0A 0B 0C 0D 0E 0F
      -- -- -- -- -- -- -- --  -- -- -- -- -- -- -- --
0180:                      53  F8 FF FF 7F F8 FF FF 7F         S........
0190: 6B 6E 6A 30 00                                    knj0.           
```

#### Opcodes

```
  0: 0x0187 [0x53] WAIT_SCHEDULER_TASK: Wait for scheduler "knj0" with entities [EventEntity, EventEntity]
  1: 0x0194 [0x00] END_REQSTACK()
```

### Event 65535.25

#### Metadata

| Field        | Value    |
|--------------|----------|
| Entrypoint   | 0x0195   |
| Data Size    | 28 bytes |
| Instructions | 4        |

```
      00 01 02 03 04 05 06 07  08 09 0A 0B 0C 0D 0E 0F
      -- -- -- -- -- -- -- --  -- -- -- -- -- -- -- --
0190:                7C 00 F8  FF FF 7F 81 00 F8 FF FF       |..........
01A0: 7F 5B 02 80 F8 FF FF 7F  F8 FF FF 7F 6B 6E 6A 31  .[..........knj1
01B0: 00                                                .               
```

#### Opcodes

```
  0: 0x0195 [0x7C] EventEntity->Render.Flags2 |= 0x00
  1: 0x019B [0x81] SET_ENTITY_BLINKING(blink_flag=0x00, entity=EventEntity)
  2: 0x01A1 [0x5B] LOAD_EXT_SCHEDULER: Load scheduler "knj1" with entities [EventEntity, EventEntity], work=171*
  3: 0x01B0 [0x00] END_REQSTACK()
```

### Event 65535.26

#### Metadata

| Field        | Value    |
|--------------|----------|
| Entrypoint   | 0x01B1   |
| Data Size    | 26 bytes |
| Instructions | 4        |

```
      00 01 02 03 04 05 06 07  08 09 0A 0B 0C 0D 0E 0F
      -- -- -- -- -- -- -- --  -- -- -- -- -- -- -- --
01B0:    53 F8 FF FF 7F F8 FF  FF 7F 6B 6E 6A 31 7C 01   S........knj1|.
01C0: F8 FF FF 7F 81 01 F8 FF  FF 7F 00                 ...........     
```

#### Opcodes

```
  0: 0x01B1 [0x53] WAIT_SCHEDULER_TASK: Wait for scheduler "knj1" with entities [EventEntity, EventEntity]
  1: 0x01BE [0x7C] EventEntity->Render.Flags2 |= 0x01
  2: 0x01C4 [0x81] SET_ENTITY_BLINKING(blink_flag=0x01, entity=EventEntity)
  3: 0x01CA [0x00] END_REQSTACK()
```

### Event 65535.27

#### Metadata

| Field        | Value   |
|--------------|---------|
| Entrypoint   | 0x01CB  |
| Data Size    | 9 bytes |
| Instructions | 3       |

```
      00 01 02 03 04 05 06 07  08 09 0A 0B 0C 0D 0E 0F
      -- -- -- -- -- -- -- --  -- -- -- -- -- -- -- --
01C0:                                   5E 69 64 6C 30             ^idl0
01D0: 1C 01 80 00                                       ....            
```

#### Opcodes

```
  0: 0x01CB [0x5E] EventEntity goes idle (kills current action) (animation: "idl0")
  1: 0x01D0 [0x1C] WAIT(30* ticks)
  2: 0x01D3 [0x00] END_REQSTACK()
```

### Event 153

#### Metadata

| Field        | Value    |
|--------------|----------|
| Entrypoint   | 0x01D4   |
| Data Size    | 16 bytes |
| Instructions | 3        |

```
      00 01 02 03 04 05 06 07  08 09 0A 0B 0C 0D 0E 0F
      -- -- -- -- -- -- -- --  -- -- -- -- -- -- -- --
01D0:             37 03 80 04  80 05 80 06 80 4E 00 1D      7........N..
01E0: 20 0F 01 00                                        ...            
```

#### Opcodes

```
  0: 0x01D4 [0x37] UPDATE_EVENT_POSITION_AND_DIR: x=0.084*, z=44.859*, y=-61.521*, direction=70.4°*
  1: 0x01DD [0x4E] SET_ENTITY_HIDE_FLAG: Show Star Sibyl (ID: 17768477/0x010F201D)
  2: 0x01E3 [0x00] END_REQSTACK()
```

### Event 65535.28

#### Metadata

| Field        | Value    |
|--------------|----------|
| Entrypoint   | 0x01E4   |
| Data Size    | 37 bytes |
| Instructions | 9        |

```
      00 01 02 03 04 05 06 07  08 09 0A 0B 0C 0D 0E 0F
      -- -- -- -- -- -- -- --  -- -- -- -- -- -- -- --
01E0:             4A 1D 20 0F  01 F0 FF FF 7F 6F 76 1D      J. ......ov.
01F0: 20 0F 01 1C 07 80 32 08  80 4A 1D 20 0F 01 F0 FF   .....2..J. ....
0200: FF 7F 6F 76 1D 20 0F 01  00                       ..ov. ...       
```

#### Opcodes

```
  0: 0x01E4 [0x4A] Star Sibyl (ID: 17768477/0x010F201D) looks at LocalPlayer
  1: 0x01ED [0x6F] WAIT_FRAME_DELAY: Yield until WaitTime reaches zero
  2: 0x01EE [0x76] CHECK_ENTITY_RENDER_FLAGS: Wait until Star Sibyl (ID: 17768477/0x010F201D) Render.Flags0 and Render.Flags3 conditions are met
  3: 0x01F3 [0x1C] WAIT(300* ticks)
  4: 0x01F6 [0x32] ExtData[1]->MainSpeed = 7* * 0.1
  5: 0x01F9 [0x4A] Star Sibyl (ID: 17768477/0x010F201D) looks at LocalPlayer
  6: 0x0202 [0x6F] WAIT_FRAME_DELAY: Yield until WaitTime reaches zero
  7: 0x0203 [0x76] CHECK_ENTITY_RENDER_FLAGS: Wait until Star Sibyl (ID: 17768477/0x010F201D) Render.Flags0 and Render.Flags3 conditions are met
  8: 0x0208 [0x00] END_REQSTACK()
```

### Event 65535.29

#### Metadata

| Field        | Value    |
|--------------|----------|
| Entrypoint   | 0x0209   |
| Data Size    | 15 bytes |
| Instructions | 5        |

```
      00 01 02 03 04 05 06 07  08 09 0A 0B 0C 0D 0E 0F
      -- -- -- -- -- -- -- --  -- -- -- -- -- -- -- --
0200:                             32 08 80 1F 00 09 80           2......
0210: 0A 80 05 80 1F 01 6F 00                           ......o.        
```

#### Opcodes

```
  0: 0x0209 [0x32] ExtData[1]->MainSpeed = 7* * 0.1
  1: 0x020C [0x1F] MOVE_ENTITY: EventEntity moves to X=-0.023*, Z=45.622*, Y=-61.521*
  2: 0x0214 [0x1F] MOVE_ENTITY: Update entity position (mode=1)
  3: 0x0216 [0x6F] WAIT_FRAME_DELAY: Yield until WaitTime reaches zero
  4: 0x0217 [0x00] END_REQSTACK()
```

### Event 65535.30

#### Metadata

| Field        | Value    |
|--------------|----------|
| Entrypoint   | 0x0218   |
| Data Size    | 15 bytes |
| Instructions | 5        |

```
      00 01 02 03 04 05 06 07  08 09 0A 0B 0C 0D 0E 0F
      -- -- -- -- -- -- -- --  -- -- -- -- -- -- -- --
0210:                          32 08 80 1F 00 0B 80 0C          2.......
0220: 80 05 80 1F 01 6F 00                              .....o.         
```

#### Opcodes

```
  0: 0x0218 [0x32] ExtData[1]->MainSpeed = 7* * 0.1
  1: 0x021B [0x1F] MOVE_ENTITY: EventEntity moves to X=-0.024*, Z=44.860*, Y=-61.521*
  2: 0x0223 [0x1F] MOVE_ENTITY: Update entity position (mode=1)
  3: 0x0225 [0x6F] WAIT_FRAME_DELAY: Yield until WaitTime reaches zero
  4: 0x0226 [0x00] END_REQSTACK()
```

### Event 65535.31

#### Metadata

| Field        | Value   |
|--------------|---------|
| Entrypoint   | 0x0227  |
| Data Size    | 5 bytes |
| Instructions | 3       |

```
      00 01 02 03 04 05 06 07  08 09 0A 0B 0C 0D 0E 0F
      -- -- -- -- -- -- -- --  -- -- -- -- -- -- -- --
0220:                      1D  0D 80 23 00                     ...#.    
```

#### Opcodes

```
  0: 0x0227 [0x1D] PRINT_EVENT_MESSAGE(message_id=322*)
    → "I am pleased that you came."
  1: 0x022A [0x23] WAIT_FOR_DIALOG_INTERACTION
  2: 0x022B [0x00] END_REQSTACK()
```

### Event 65535.32

#### Metadata

| Field        | Value    |
|--------------|----------|
| Entrypoint   | 0x022C   |
| Data Size    | 23 bytes |
| Instructions | 7        |

```
      00 01 02 03 04 05 06 07  08 09 0A 0B 0C 0D 0E 0F
      -- -- -- -- -- -- -- --  -- -- -- -- -- -- -- --
0220:                                      29 08 1D 20              ).. 
0230: 0F 01 01 1D 0E 80 23 1D  0F 80 23 29 08 1D 20 0F  ......#...#).. .
0240: 01 02 00                                          ...             
```

#### Opcodes

```
  0: 0x022C [0x29] REQ_SET_WAIT(priority=0x08, entity_id=Star Sibyl (ID: 17768477/0x010F201D), tag_num=0x01)
  1: 0x0233 [0x1D] PRINT_EVENT_MESSAGE(message_id=323*)
    → "<Player>, was it not? I have heard of your accomplishments from Semih Lafihna."
  2: 0x0236 [0x23] WAIT_FOR_DIALOG_INTERACTION
  3: 0x0237 [0x1D] PRINT_EVENT_MESSAGE(message_id=324*)
    → "After realizing how dedicated you have been in serving Windurst, I felt I must meet with you in person."
  4: 0x023A [0x23] WAIT_FOR_DIALOG_INTERACTION
  5: 0x023B [0x29] REQ_SET_WAIT(priority=0x08, entity_id=Star Sibyl (ID: 17768477/0x010F201D), tag_num=0x02)
  6: 0x0242 [0x00] END_REQSTACK()
```

### Event 65535.33

#### Metadata

| Field        | Value   |
|--------------|---------|
| Entrypoint   | 0x0243  |
| Data Size    | 5 bytes |
| Instructions | 3       |

```
      00 01 02 03 04 05 06 07  08 09 0A 0B 0C 0D 0E 0F
      -- -- -- -- -- -- -- --  -- -- -- -- -- -- -- --
0240:          1D 10 80 23 00                              ...#.        
```

#### Opcodes

```
  0: 0x0243 [0x1D] PRINT_EVENT_MESSAGE(message_id=325*)
    → "I am honored to have such a noble adventurer here in my presence. You are much younger than I imagined."
  1: 0x0246 [0x23] WAIT_FOR_DIALOG_INTERACTION
  2: 0x0247 [0x00] END_REQSTACK()
```

### Event 65535.34

#### Metadata

| Field        | Value   |
|--------------|---------|
| Entrypoint   | 0x0248  |
| Data Size    | 5 bytes |
| Instructions | 3       |

```
      00 01 02 03 04 05 06 07  08 09 0A 0B 0C 0D 0E 0F
      -- -- -- -- -- -- -- --  -- -- -- -- -- -- -- --
0240:                          1D 11 80 23 00                   ...#.   
```

#### Opcodes

```
  0: 0x0248 [0x1D] PRINT_EVENT_MESSAGE(message_id=326*)
    → "However, the reason I have called you here today is not solely for the purpose of greetings."
  1: 0x024B [0x23] WAIT_FOR_DIALOG_INTERACTION
  2: 0x024C [0x00] END_REQSTACK()
```

### Event 65535.35

#### Metadata

| Field        | Value    |
|--------------|----------|
| Entrypoint   | 0x024D   |
| Data Size    | 19 bytes |
| Instructions | 5        |

```
      00 01 02 03 04 05 06 07  08 09 0A 0B 0C 0D 0E 0F
      -- -- -- -- -- -- -- --  -- -- -- -- -- -- -- --
0240:                                         29 08 1D               )..
0250: 20 0F 01 03 1D 12 80 23  29 08 1D 20 0F 01 04 00   ......#).. ....
```

#### Opcodes

```
  0: 0x024D [0x29] REQ_SET_WAIT(priority=0x08, entity_id=Star Sibyl (ID: 17768477/0x010F201D), tag_num=0x03)
  1: 0x0254 [0x1D] PRINT_EVENT_MESSAGE(message_id=327*)
    → "I, the Star Sibyl, hereby appoint you, <Player>, to the post of ambassadorial envoy in the Grand Duchy of Jeuno."
  2: 0x0257 [0x23] WAIT_FOR_DIALOG_INTERACTION
  3: 0x0258 [0x29] REQ_SET_WAIT(priority=0x08, entity_id=Star Sibyl (ID: 17768477/0x010F201D), tag_num=0x04)
  4: 0x025F [0x00] END_REQSTACK()
```

### Event 65535.36

#### Metadata

| Field        | Value   |
|--------------|---------|
| Entrypoint   | 0x0260  |
| Data Size    | 9 bytes |
| Instructions | 5       |

```
      00 01 02 03 04 05 06 07  08 09 0A 0B 0C 0D 0E 0F
      -- -- -- -- -- -- -- --  -- -- -- -- -- -- -- --
0260: 1D 13 80 23 1D 14 80 23  00                       ...#...#.       
```

#### Opcodes

```
  0: 0x0260 [0x1D] PRINT_EVENT_MESSAGE(message_id=328*)
    → "I apologize if I startled you with this sudden responsibility; however, the stars have already decided your fate."
  1: 0x0263 [0x23] WAIT_FOR_DIALOG_INTERACTION
  2: 0x0264 [0x1D] PRINT_EVENT_MESSAGE(message_id=329*)
    → "I can sense the fire that burns deep within your heart. I feel that you will not disgrace the new title that I have given you."
  3: 0x0267 [0x23] WAIT_FOR_DIALOG_INTERACTION
  4: 0x0268 [0x00] END_REQSTACK()
```

### Event 65535.37

#### Metadata

| Field        | Value   |
|--------------|---------|
| Entrypoint   | 0x0269  |
| Data Size    | 5 bytes |
| Instructions | 3       |

```
      00 01 02 03 04 05 06 07  08 09 0A 0B 0C 0D 0E 0F
      -- -- -- -- -- -- -- --  -- -- -- -- -- -- -- --
0260:                             1D 15 80 23 00                 ...#.  
```

#### Opcodes

```
  0: 0x0269 [0x1D] PRINT_EVENT_MESSAGE(message_id=331*)
    → "You have seen with your own eyes the evil that lurks in Vana'diel. Soon that evil will have spread to every corner of our beloved lands."
  1: 0x026C [0x23] WAIT_FOR_DIALOG_INTERACTION
  2: 0x026D [0x00] END_REQSTACK()
```

### Event 65535.38

#### Metadata

| Field        | Value    |
|--------------|----------|
| Entrypoint   | 0x026E   |
| Data Size    | 19 bytes |
| Instructions | 5        |

```
      00 01 02 03 04 05 06 07  08 09 0A 0B 0C 0D 0E 0F
      -- -- -- -- -- -- -- --  -- -- -- -- -- -- -- --
0260:                                            29 08                ).
0270: 1D 20 0F 01 01 1D 16 80  23 29 08 1D 20 0F 01 02  . ......#).. ...
0280: 00                                                .               
```

#### Opcodes

```
  0: 0x026E [0x29] REQ_SET_WAIT(priority=0x08, entity_id=Star Sibyl (ID: 17768477/0x010F201D), tag_num=0x01)
  1: 0x0275 [0x1D] PRINT_EVENT_MESSAGE(message_id=332*)
    → "However, during these terrible times, Windurst must remain the beautiful, sublime mecca that it has become. To maintain this state, the cooperation of Jeuno is necessary."
  2: 0x0278 [0x23] WAIT_FOR_DIALOG_INTERACTION
  3: 0x0279 [0x29] REQ_SET_WAIT(priority=0x08, entity_id=Star Sibyl (ID: 17768477/0x010F201D), tag_num=0x02)
  4: 0x0280 [0x00] END_REQSTACK()
```

### Event 65535.39

#### Metadata

| Field        | Value    |
|--------------|----------|
| Entrypoint   | 0x0281   |
| Data Size    | 19 bytes |
| Instructions | 5        |

```
      00 01 02 03 04 05 06 07  08 09 0A 0B 0C 0D 0E 0F
      -- -- -- -- -- -- -- --  -- -- -- -- -- -- -- --
0280:    29 08 1D 20 0F 01 01  1D 17 80 23 29 08 1D 20   ).. ......#).. 
0290: 0F 01 02 00                                       ....            
```

#### Opcodes

```
  0: 0x0281 [0x29] REQ_SET_WAIT(priority=0x08, entity_id=Star Sibyl (ID: 17768477/0x010F201D), tag_num=0x01)
  1: 0x0288 [0x1D] PRINT_EVENT_MESSAGE(message_id=333*)
    → "This is why sending a trustworthy delegate, such as yourself, to represent our country is of extreme importance."
  2: 0x028B [0x23] WAIT_FOR_DIALOG_INTERACTION
  3: 0x028C [0x29] REQ_SET_WAIT(priority=0x08, entity_id=Star Sibyl (ID: 17768477/0x010F201D), tag_num=0x02)
  4: 0x0293 [0x00] END_REQSTACK()
```

### Event 65535.40

#### Metadata

| Field        | Value    |
|--------------|----------|
| Entrypoint   | 0x0294   |
| Data Size    | 23 bytes |
| Instructions | 7        |

```
      00 01 02 03 04 05 06 07  08 09 0A 0B 0C 0D 0E 0F
      -- -- -- -- -- -- -- --  -- -- -- -- -- -- -- --
0290:             29 08 1D 20  0F 01 03 1D 18 80 23 1D      ).. ......#.
02A0: 19 80 23 29 08 1D 20 0F  01 04 00                 ..#).. ....     
```

#### Opcodes

```
  0: 0x0294 [0x29] REQ_SET_WAIT(priority=0x08, entity_id=Star Sibyl (ID: 17768477/0x010F201D), tag_num=0x03)
  1: 0x029B [0x1D] PRINT_EVENT_MESSAGE(message_id=334*)
    → "I am positive that your presence in Jeuno will benefit Windurst immeasurably."
  2: 0x029E [0x23] WAIT_FOR_DIALOG_INTERACTION
  3: 0x029F [0x1D] PRINT_EVENT_MESSAGE(message_id=335*)
    → "Will you travel to the Grand Duchy of Jeuno as an envoy of Windurst?"
  4: 0x02A2 [0x23] WAIT_FOR_DIALOG_INTERACTION
  5: 0x02A3 [0x29] REQ_SET_WAIT(priority=0x08, entity_id=Star Sibyl (ID: 17768477/0x010F201D), tag_num=0x04)
  6: 0x02AA [0x00] END_REQSTACK()
```

### Event 65535.41

#### Metadata

| Field        | Value    |
|--------------|----------|
| Entrypoint   | 0x02AB   |
| Data Size    | 19 bytes |
| Instructions | 5        |

```
      00 01 02 03 04 05 06 07  08 09 0A 0B 0C 0D 0E 0F
      -- -- -- -- -- -- -- --  -- -- -- -- -- -- -- --
02A0:                                   29 08 1D 20 0F             ).. .
02B0: 01 01 1D 1A 80 23 29 08  1D 20 0F 01 02 00        .....#).. ....  
```

#### Opcodes

```
  0: 0x02AB [0x29] REQ_SET_WAIT(priority=0x08, entity_id=Star Sibyl (ID: 17768477/0x010F201D), tag_num=0x01)
  1: 0x02B2 [0x1D] PRINT_EVENT_MESSAGE(message_id=338*)
    → "Semih Lafihna... It is all right."
  2: 0x02B5 [0x23] WAIT_FOR_DIALOG_INTERACTION
  3: 0x02B6 [0x29] REQ_SET_WAIT(priority=0x08, entity_id=Star Sibyl (ID: 17768477/0x010F201D), tag_num=0x02)
  4: 0x02BD [0x00] END_REQSTACK()
```

### Event 65535.42

#### Metadata

| Field        | Value    |
|--------------|----------|
| Entrypoint   | 0x02BE   |
| Data Size    | 19 bytes |
| Instructions | 5        |

```
      00 01 02 03 04 05 06 07  08 09 0A 0B 0C 0D 0E 0F
      -- -- -- -- -- -- -- --  -- -- -- -- -- -- -- --
02B0:                                            29 08                ).
02C0: 1D 20 0F 01 01 1D 1B 80  23 29 08 1D 20 0F 01 02  . ......#).. ...
02D0: 00                                                .               
```

#### Opcodes

```
  0: 0x02BE [0x29] REQ_SET_WAIT(priority=0x08, entity_id=Star Sibyl (ID: 17768477/0x010F201D), tag_num=0x01)
  1: 0x02C5 [0x1D] PRINT_EVENT_MESSAGE(message_id=339*)
    → "I sense that your spirit is as free as the wind. You feel that committing yourself as an envoy will strip you of that freedom."
  2: 0x02C8 [0x23] WAIT_FOR_DIALOG_INTERACTION
  3: 0x02C9 [0x29] REQ_SET_WAIT(priority=0x08, entity_id=Star Sibyl (ID: 17768477/0x010F201D), tag_num=0x02)
  4: 0x02D0 [0x00] END_REQSTACK()
```

### Event 65535.43

#### Metadata

| Field        | Value    |
|--------------|----------|
| Entrypoint   | 0x02D1   |
| Data Size    | 19 bytes |
| Instructions | 5        |

```
      00 01 02 03 04 05 06 07  08 09 0A 0B 0C 0D 0E 0F
      -- -- -- -- -- -- -- --  -- -- -- -- -- -- -- --
02D0:    29 08 1D 20 0F 01 01  1D 1C 80 23 29 08 1D 20   ).. ......#).. 
02E0: 0F 01 02 00                                       ....            
```

#### Opcodes

```
  0: 0x02D1 [0x29] REQ_SET_WAIT(priority=0x08, entity_id=Star Sibyl (ID: 17768477/0x010F201D), tag_num=0x01)
  1: 0x02D8 [0x1D] PRINT_EVENT_MESSAGE(message_id=340*)
    → "It would be a lie to say that you would not be tied by this new responsibility."
  2: 0x02DB [0x23] WAIT_FOR_DIALOG_INTERACTION
  3: 0x02DC [0x29] REQ_SET_WAIT(priority=0x08, entity_id=Star Sibyl (ID: 17768477/0x010F201D), tag_num=0x02)
  4: 0x02E3 [0x00] END_REQSTACK()
```

### Event 65535.44

#### Metadata

| Field        | Value    |
|--------------|----------|
| Entrypoint   | 0x02E4   |
| Data Size    | 37 bytes |
| Instructions | 9        |

```
      00 01 02 03 04 05 06 07  08 09 0A 0B 0C 0D 0E 0F
      -- -- -- -- -- -- -- --  -- -- -- -- -- -- -- --
02E0:             29 08 1D 20  0F 01 01 1D 1D 80 23 29      ).. ......#)
02F0: 08 1D 20 0F 01 02 29 08  1D 20 0F 01 03 1D 1E 80  .. ...).. ......
0300: 23 29 08 1D 20 0F 01 04  00                       #).. ....       
```

#### Opcodes

```
  0: 0x02E4 [0x29] REQ_SET_WAIT(priority=0x08, entity_id=Star Sibyl (ID: 17768477/0x010F201D), tag_num=0x01)
  1: 0x02EB [0x1D] PRINT_EVENT_MESSAGE(message_id=341*)
    → "However, I have seen within your soul. I know that you want to do what is right for the peace of your country."
  2: 0x02EE [0x23] WAIT_FOR_DIALOG_INTERACTION
  3: 0x02EF [0x29] REQ_SET_WAIT(priority=0x08, entity_id=Star Sibyl (ID: 17768477/0x010F201D), tag_num=0x02)
  4: 0x02F6 [0x29] REQ_SET_WAIT(priority=0x08, entity_id=Star Sibyl (ID: 17768477/0x010F201D), tag_num=0x03)
  5: 0x02FD [0x1D] PRINT_EVENT_MESSAGE(message_id=342*)
    → "It may be against your will, but I will appoint you as envoy to the Consulate of Windurst in Jeuno."
  6: 0x0300 [0x23] WAIT_FOR_DIALOG_INTERACTION
  7: 0x0301 [0x29] REQ_SET_WAIT(priority=0x08, entity_id=Star Sibyl (ID: 17768477/0x010F201D), tag_num=0x04)
  8: 0x0308 [0x00] END_REQSTACK()
```

### Event 65535.45

#### Metadata

| Field        | Value   |
|--------------|---------|
| Entrypoint   | 0x0309  |
| Data Size    | 5 bytes |
| Instructions | 3       |

```
      00 01 02 03 04 05 06 07  08 09 0A 0B 0C 0D 0E 0F
      -- -- -- -- -- -- -- --  -- -- -- -- -- -- -- --
0300:                             1D 1F 80 23 00                 ...#.  
```

#### Opcodes

```
  0: 0x0309 [0x1D] PRINT_EVENT_MESSAGE(message_id=343*)
    → "I am certain that, in time, the stars will lead you there."
  1: 0x030C [0x23] WAIT_FOR_DIALOG_INTERACTION
  2: 0x030D [0x00] END_REQSTACK()
```

### Event 65535.46

#### Metadata

| Field        | Value    |
|--------------|----------|
| Entrypoint   | 0x030E   |
| Data Size    | 19 bytes |
| Instructions | 5        |

```
      00 01 02 03 04 05 06 07  08 09 0A 0B 0C 0D 0E 0F
      -- -- -- -- -- -- -- --  -- -- -- -- -- -- -- --
0300:                                            29 08                ).
0310: 1D 20 0F 01 09 1D 20 80  23 29 08 1D 20 0F 01 0A  . .... .#).. ...
0320: 00                                                .               
```

#### Opcodes

```
  0: 0x030E [0x29] REQ_SET_WAIT(priority=0x08, entity_id=Star Sibyl (ID: 17768477/0x010F201D), tag_num=0x09)
  1: 0x0315 [0x1D] PRINT_EVENT_MESSAGE(message_id=344*)
    → "I am grateful for your cooperation, <Player>."
  2: 0x0318 [0x23] WAIT_FOR_DIALOG_INTERACTION
  3: 0x0319 [0x29] REQ_SET_WAIT(priority=0x08, entity_id=Star Sibyl (ID: 17768477/0x010F201D), tag_num=0x0A)
  4: 0x0320 [0x00] END_REQSTACK()
```

### Event 65535.47

#### Metadata

| Field        | Value    |
|--------------|----------|
| Entrypoint   | 0x0321   |
| Data Size    | 23 bytes |
| Instructions | 7        |

```
      00 01 02 03 04 05 06 07  08 09 0A 0B 0C 0D 0E 0F
      -- -- -- -- -- -- -- --  -- -- -- -- -- -- -- --
0320:    29 08 1D 20 0F 01 01  1D 21 80 23 1D 22 80 23   ).. ....!.#.".#
0330: 29 08 1D 20 0F 01 02 00                           ).. ....        
```

#### Opcodes

```
  0: 0x0321 [0x29] REQ_SET_WAIT(priority=0x08, entity_id=Star Sibyl (ID: 17768477/0x010F201D), tag_num=0x01)
  1: 0x0328 [0x1D] PRINT_EVENT_MESSAGE(message_id=345*)
    → "Journey to the Embassy of Windurst in the Grand Duchy of Jeuno."
  2: 0x032B [0x23] WAIT_FOR_DIALOG_INTERACTION
  3: 0x032C [0x1D] PRINT_EVENT_MESSAGE(message_id=346*)
    → "And do not forget, no matter where the stars lead you, I will always be watching."
  4: 0x032F [0x23] WAIT_FOR_DIALOG_INTERACTION
  5: 0x0330 [0x29] REQ_SET_WAIT(priority=0x08, entity_id=Star Sibyl (ID: 17768477/0x010F201D), tag_num=0x02)
  6: 0x0337 [0x00] END_REQSTACK()
```

### Event 166

#### Metadata

| Field        | Value    |
|--------------|----------|
| Entrypoint   | 0x0338   |
| Data Size    | 16 bytes |
| Instructions | 3        |

```
      00 01 02 03 04 05 06 07  08 09 0A 0B 0C 0D 0E 0F
      -- -- -- -- -- -- -- --  -- -- -- -- -- -- -- --
0330:                          4E 00 1D 20 0F 01 37 23          N.. ..7#
0340: 80 24 80 05 80 25 80 00                           .$...%..        
```

#### Opcodes

```
  0: 0x0338 [0x4E] SET_ENTITY_HIDE_FLAG: Show Star Sibyl (ID: 17768477/0x010F201D)
  1: 0x033E [0x37] UPDATE_EVENT_POSITION_AND_DIR: x=-0.197*, z=44.382*, y=-61.521*, direction=263.3°*
  2: 0x0347 [0x00] END_REQSTACK()
```

### Event 65535.48

#### Metadata

| Field        | Value   |
|--------------|---------|
| Entrypoint   | 0x0348  |
| Data Size    | 5 bytes |
| Instructions | 3       |

```
      00 01 02 03 04 05 06 07  08 09 0A 0B 0C 0D 0E 0F
      -- -- -- -- -- -- -- --  -- -- -- -- -- -- -- --
0340:                          1D 26 80 23 00                   .&.#.   
```

#### Opcodes

```
  0: 0x0348 [0x1D] PRINT_EVENT_MESSAGE(message_id=389*)
    → "Ah, <Player>. I have awaited your return."
  1: 0x034B [0x23] WAIT_FOR_DIALOG_INTERACTION
  2: 0x034C [0x00] END_REQSTACK()
```

### Event 65535.49

#### Metadata

| Field        | Value   |
|--------------|---------|
| Entrypoint   | 0x034D  |
| Data Size    | 5 bytes |
| Instructions | 3       |

```
      00 01 02 03 04 05 06 07  08 09 0A 0B 0C 0D 0E 0F
      -- -- -- -- -- -- -- --  -- -- -- -- -- -- -- --
0340:                                         1D 27 80               .'.
0350: 23 00                                             #.              
```

#### Opcodes

```
  0: 0x034D [0x1D] PRINT_EVENT_MESSAGE(message_id=390*)
    → "While you were stationed in Jeuno, a great tragedy befell us here in Windurst."
  1: 0x0350 [0x23] WAIT_FOR_DIALOG_INTERACTION
  2: 0x0351 [0x00] END_REQSTACK()
```

### Event 65535.50

#### Metadata

| Field        | Value   |
|--------------|---------|
| Entrypoint   | 0x0352  |
| Data Size    | 5 bytes |
| Instructions | 3       |

```
      00 01 02 03 04 05 06 07  08 09 0A 0B 0C 0D 0E 0F
      -- -- -- -- -- -- -- --  -- -- -- -- -- -- -- --
0350:       1D 28 80 23 00                                .(.#.         
```

#### Opcodes

```
  0: 0x0352 [0x1D] PRINT_EVENT_MESSAGE(message_id=391*)
    → "Please explain the details, Semih Lafihna."
  1: 0x0355 [0x23] WAIT_FOR_DIALOG_INTERACTION
  2: 0x0356 [0x00] END_REQSTACK()
```

### Event 65535.51

#### Metadata

| Field        | Value   |
|--------------|---------|
| Entrypoint   | 0x0357  |
| Data Size    | 5 bytes |
| Instructions | 3       |

```
      00 01 02 03 04 05 06 07  08 09 0A 0B 0C 0D 0E 0F
      -- -- -- -- -- -- -- --  -- -- -- -- -- -- -- --
0350:                      1D  29 80 23 00                     .).#.    
```

#### Opcodes

```
  0: 0x0357 [0x1D] PRINT_EVENT_MESSAGE(message_id=397*)
    → "Now, Semih Lafihna. We are not certain if the bandits were the Yagudo."
  1: 0x035A [0x23] WAIT_FOR_DIALOG_INTERACTION
  2: 0x035B [0x00] END_REQSTACK()
```

### Event 65535.52

#### Metadata

| Field        | Value   |
|--------------|---------|
| Entrypoint   | 0x035C  |
| Data Size    | 5 bytes |
| Instructions | 3       |

```
      00 01 02 03 04 05 06 07  08 09 0A 0B 0C 0D 0E 0F
      -- -- -- -- -- -- -- --  -- -- -- -- -- -- -- --
0350:                                      1D 2A 80 23              .*.#
0360: 00                                                .               
```

#### Opcodes

```
  0: 0x035C [0x1D] PRINT_EVENT_MESSAGE(message_id=398*)
    → "I was also visited by a bearer of darkness..."
  1: 0x035F [0x23] WAIT_FOR_DIALOG_INTERACTION
  2: 0x0360 [0x00] END_REQSTACK()
```

### Event 65535.53

#### Metadata

| Field        | Value    |
|--------------|----------|
| Entrypoint   | 0x0361   |
| Data Size    | 23 bytes |
| Instructions | 7        |

```
      00 01 02 03 04 05 06 07  08 09 0A 0B 0C 0D 0E 0F
      -- -- -- -- -- -- -- --  -- -- -- -- -- -- -- --
0360:    1D 2B 80 23 29 08 1D  20 0F 01 01 1D 2C 80 23   .+.#).. ....,.#
0370: 29 08 1D 20 0F 01 02 00                           ).. ....        
```

#### Opcodes

```
  0: 0x0361 [0x1D] PRINT_EVENT_MESSAGE(message_id=400*)
    → "<Player>. To protect it from theft, the talisman used to seal Castle Zvahl was divided into three pieces and distributed to each of the three ruling nations of Vana'diel."
  1: 0x0364 [0x23] WAIT_FOR_DIALOG_INTERACTION
  2: 0x0365 [0x29] REQ_SET_WAIT(priority=0x08, entity_id=Star Sibyl (ID: 17768477/0x010F201D), tag_num=0x01)
  3: 0x036C [0x1D] PRINT_EVENT_MESSAGE(message_id=401*)
    → "Checking up on San d'Oria and Bastok's talismans will be our mission. For you, we have another task."
  4: 0x036F [0x23] WAIT_FOR_DIALOG_INTERACTION
  5: 0x0370 [0x29] REQ_SET_WAIT(priority=0x08, entity_id=Star Sibyl (ID: 17768477/0x010F201D), tag_num=0x02)
  6: 0x0377 [0x00] END_REQSTACK()
```

### Event 65535.54

#### Metadata

| Field        | Value    |
|--------------|----------|
| Entrypoint   | 0x0378   |
| Data Size    | 19 bytes |
| Instructions | 5        |

```
      00 01 02 03 04 05 06 07  08 09 0A 0B 0C 0D 0E 0F
      -- -- -- -- -- -- -- --  -- -- -- -- -- -- -- --
0370:                          29 08 1D 20 0F 01 01 1D          ).. ....
0380: 2D 80 23 29 08 1D 20 0F  01 02 00                 -.#).. ....     
```

#### Opcodes

```
  0: 0x0378 [0x29] REQ_SET_WAIT(priority=0x08, entity_id=Star Sibyl (ID: 17768477/0x010F201D), tag_num=0x01)
  1: 0x037F [0x1D] PRINT_EVENT_MESSAGE(message_id=412*)
    → "<Player>. I wish for you to travel to the Fei'Yin ruins."
  2: 0x0382 [0x23] WAIT_FOR_DIALOG_INTERACTION
  3: 0x0383 [0x29] REQ_SET_WAIT(priority=0x08, entity_id=Star Sibyl (ID: 17768477/0x010F201D), tag_num=0x02)
  4: 0x038A [0x00] END_REQSTACK()
```

### Event 65535.55

#### Metadata

| Field        | Value   |
|--------------|---------|
| Entrypoint   | 0x038B  |
| Data Size    | 5 bytes |
| Instructions | 3       |

```
      00 01 02 03 04 05 06 07  08 09 0A 0B 0C 0D 0E 0F
      -- -- -- -- -- -- -- --  -- -- -- -- -- -- -- --
0380:                                   1D 2E 80 23 00             ...#.
```

#### Opcodes

```
  0: 0x038B [0x1D] PRINT_EVENT_MESSAGE(message_id=413*)
    → "See if the fourth seal that the minister speaks of is still intact."
  1: 0x038E [0x23] WAIT_FOR_DIALOG_INTERACTION
  2: 0x038F [0x00] END_REQSTACK()
```

### Event 65535.56

#### Metadata

| Field        | Value   |
|--------------|---------|
| Entrypoint   | 0x0390  |
| Data Size    | 5 bytes |
| Instructions | 3       |

```
      00 01 02 03 04 05 06 07  08 09 0A 0B 0C 0D 0E 0F
      -- -- -- -- -- -- -- --  -- -- -- -- -- -- -- --
0390: 1D 2F 80 23 00                                    ./.#.           
```

#### Opcodes

```
  0: 0x0390 [0x1D] PRINT_EVENT_MESSAGE(message_id=415*)
    → "If you find anything...disturbing, use this new seal in place of the old."
  1: 0x0393 [0x23] WAIT_FOR_DIALOG_INTERACTION
  2: 0x0394 [0x00] END_REQSTACK()
```

### Event 65535.57

#### Metadata

| Field        | Value   |
|--------------|---------|
| Entrypoint   | 0x0395  |
| Data Size    | 5 bytes |
| Instructions | 3       |

```
      00 01 02 03 04 05 06 07  08 09 0A 0B 0C 0D 0E 0F
      -- -- -- -- -- -- -- --  -- -- -- -- -- -- -- --
0390:                1D 30 80  23 00                         .0.#.      
```

#### Opcodes

```
  0: 0x0395 [0x1D] PRINT_EVENT_MESSAGE(message_id=416*)
    → "The rumors of the revival of the Shadow Lord trouble me. However, if the barrier sealing the Northlands was to break, and the nether beasts were allowed to roam the peaceful lands of Vana'diel once more..."
  1: 0x0398 [0x23] WAIT_FOR_DIALOG_INTERACTION
  2: 0x0399 [0x00] END_REQSTACK()
```

### Event 65535.58

#### Metadata

| Field        | Value   |
|--------------|---------|
| Entrypoint   | 0x039A  |
| Data Size    | 5 bytes |
| Instructions | 3       |

```
      00 01 02 03 04 05 06 07  08 09 0A 0B 0C 0D 0E 0F
      -- -- -- -- -- -- -- --  -- -- -- -- -- -- -- --
0390:                                1D 31 80 23 00               .1.#. 
```

#### Opcodes

```
  0: 0x039A [0x1D] PRINT_EVENT_MESSAGE(message_id=417*)
    → "<Player>. May the stars guide you on this perilous journey!"
  1: 0x039D [0x23] WAIT_FOR_DIALOG_INTERACTION
  2: 0x039E [0x00] END_REQSTACK()
```

### Event 65535.59

#### Metadata

| Field        | Value    |
|--------------|----------|
| Entrypoint   | 0x039F   |
| Data Size    | 19 bytes |
| Instructions | 5        |

```
      00 01 02 03 04 05 06 07  08 09 0A 0B 0C 0D 0E 0F
      -- -- -- -- -- -- -- --  -- -- -- -- -- -- -- --
0390:                                               29                 )
03A0: 08 1D 20 0F 01 05 1D 32  80 23 29 08 1D 20 0F 01  .. ....2.#).. ..
03B0: 06 00                                             ..              
```

#### Opcodes

```
  0: 0x039F [0x29] REQ_SET_WAIT(priority=0x08, entity_id=Star Sibyl (ID: 17768477/0x010F201D), tag_num=0x05)
  1: 0x03A6 [0x1D] PRINT_EVENT_MESSAGE(message_id=418*)
    → "I see... I realize this is a dangerous mission, and I will not force you to do anything beyond your will."
  2: 0x03A9 [0x23] WAIT_FOR_DIALOG_INTERACTION
  3: 0x03AA [0x29] REQ_SET_WAIT(priority=0x08, entity_id=Star Sibyl (ID: 17768477/0x010F201D), tag_num=0x06)
  4: 0x03B1 [0x00] END_REQSTACK()
```

### Event 65535.60

#### Metadata

| Field        | Value   |
|--------------|---------|
| Entrypoint   | 0x03B2  |
| Data Size    | 5 bytes |
| Instructions | 3       |

```
      00 01 02 03 04 05 06 07  08 09 0A 0B 0C 0D 0E 0F
      -- -- -- -- -- -- -- --  -- -- -- -- -- -- -- --
03B0:       1D 33 80 23 00                                .3.#.         
```

#### Opcodes

```
  0: 0x03B2 [0x1D] PRINT_EVENT_MESSAGE(message_id=419*)
    → "However, <Player>, I have confidence that the stars will guide you in the right direction. I will be waiting here for you."
  1: 0x03B5 [0x23] WAIT_FOR_DIALOG_INTERACTION
  2: 0x03B6 [0x00] END_REQSTACK()
```

### Event 190

#### Metadata

| Field        | Value   |
|--------------|---------|
| Entrypoint   | 0x03B7  |
| Data Size    | 1 bytes |
| Instructions | 1       |

```
      00 01 02 03 04 05 06 07  08 09 0A 0B 0C 0D 0E 0F
      -- -- -- -- -- -- -- --  -- -- -- -- -- -- -- --
03B0:                      00                                  .        
```

#### Opcodes

```
  0: 0x03B7 [0x00] END_REQSTACK()
```

### Event 191

#### Metadata

| Field        | Value   |
|--------------|---------|
| Entrypoint   | 0x03B8  |
| Data Size    | 1 bytes |
| Instructions | 1       |

```
      00 01 02 03 04 05 06 07  08 09 0A 0B 0C 0D 0E 0F
      -- -- -- -- -- -- -- --  -- -- -- -- -- -- -- --
03B0:                          00                               .       
```

#### Opcodes

```
  0: 0x03B8 [0x00] END_REQSTACK()
```

### Event 65535.61

#### Metadata

| Field        | Value    |
|--------------|----------|
| Entrypoint   | 0x03B9   |
| Data Size    | 19 bytes |
| Instructions | 5        |

```
      00 01 02 03 04 05 06 07  08 09 0A 0B 0C 0D 0E 0F
      -- -- -- -- -- -- -- --  -- -- -- -- -- -- -- --
03B0:                             29 08 1D 20 0F 01 01           ).. ...
03C0: 1D 34 80 23 29 08 1D 20  0F 01 02 00              .4.#).. ....    
```

#### Opcodes

```
  0: 0x03B9 [0x29] REQ_SET_WAIT(priority=0x08, entity_id=Star Sibyl (ID: 17768477/0x010F201D), tag_num=0x01)
  1: 0x03C0 [0x1D] PRINT_EVENT_MESSAGE(message_id=420*)
    → "<Player>. Ah, <Player>. I have awaited your return."
  2: 0x03C3 [0x23] WAIT_FOR_DIALOG_INTERACTION
  3: 0x03C4 [0x29] REQ_SET_WAIT(priority=0x08, entity_id=Star Sibyl (ID: 17768477/0x010F201D), tag_num=0x02)
  4: 0x03CB [0x00] END_REQSTACK()
```

### Event 65535.62

#### Metadata

| Field        | Value    |
|--------------|----------|
| Entrypoint   | 0x03CC   |
| Data Size    | 19 bytes |
| Instructions | 5        |

```
      00 01 02 03 04 05 06 07  08 09 0A 0B 0C 0D 0E 0F
      -- -- -- -- -- -- -- --  -- -- -- -- -- -- -- --
03C0:                                      29 08 1D 20              ).. 
03D0: 0F 01 01 1D 35 80 23 29  08 1D 20 0F 01 02 00     ....5.#).. .... 
```

#### Opcodes

```
  0: 0x03CC [0x29] REQ_SET_WAIT(priority=0x08, entity_id=Star Sibyl (ID: 17768477/0x010F201D), tag_num=0x01)
  1: 0x03D3 [0x1D] PRINT_EVENT_MESSAGE(message_id=421*)
    → "Will you travel to the Fei'Yin ruins and investigate the seal?"
  2: 0x03D6 [0x23] WAIT_FOR_DIALOG_INTERACTION
  3: 0x03D7 [0x29] REQ_SET_WAIT(priority=0x08, entity_id=Star Sibyl (ID: 17768477/0x010F201D), tag_num=0x02)
  4: 0x03DE [0x00] END_REQSTACK()
```

### Event 65535.63

#### Metadata

| Field        | Value    |
|--------------|----------|
| Entrypoint   | 0x03DF   |
| Data Size    | 19 bytes |
| Instructions | 5        |

```
      00 01 02 03 04 05 06 07  08 09 0A 0B 0C 0D 0E 0F
      -- -- -- -- -- -- -- --  -- -- -- -- -- -- -- --
03D0:                                               29                 )
03E0: 08 1D 20 0F 01 01 1D 36  80 23 29 08 1D 20 0F 01  .. ....6.#).. ..
03F0: 02 00                                             ..              
```

#### Opcodes

```
  0: 0x03DF [0x29] REQ_SET_WAIT(priority=0x08, entity_id=Star Sibyl (ID: 17768477/0x010F201D), tag_num=0x01)
  1: 0x03E6 [0x1D] PRINT_EVENT_MESSAGE(message_id=423*)
    → "You are truly ready to take on this dangerous mission to the cursed Northlands?"
  2: 0x03E9 [0x23] WAIT_FOR_DIALOG_INTERACTION
  3: 0x03EA [0x29] REQ_SET_WAIT(priority=0x08, entity_id=Star Sibyl (ID: 17768477/0x010F201D), tag_num=0x02)
  4: 0x03F1 [0x00] END_REQSTACK()
```

### Event 65535.64

#### Metadata

| Field        | Value   |
|--------------|---------|
| Entrypoint   | 0x03F2  |
| Data Size    | 9 bytes |
| Instructions | 5       |

```
      00 01 02 03 04 05 06 07  08 09 0A 0B 0C 0D 0E 0F
      -- -- -- -- -- -- -- --  -- -- -- -- -- -- -- --
03F0:       1D 37 80 23 1D 38  80 23 00                   .7.#.8.#.     
```

#### Opcodes

```
  0: 0x03F2 [0x1D] PRINT_EVENT_MESSAGE(message_id=424*)
    → "I am pleased to hear your change of heart. If you find anything disturbing with the situation there, use this new seal in place of the old."
  1: 0x03F5 [0x23] WAIT_FOR_DIALOG_INTERACTION
  2: 0x03F6 [0x1D] PRINT_EVENT_MESSAGE(message_id=425*)
    → "<Player>. May the stars guide you on this perilous journey!"
  3: 0x03F9 [0x23] WAIT_FOR_DIALOG_INTERACTION
  4: 0x03FA [0x00] END_REQSTACK()
```

### Event 192

#### Metadata

| Field        | Value   |
|--------------|---------|
| Entrypoint   | 0x03FB  |
| Data Size    | 1 bytes |
| Instructions | 1       |

```
      00 01 02 03 04 05 06 07  08 09 0A 0B 0C 0D 0E 0F
      -- -- -- -- -- -- -- --  -- -- -- -- -- -- -- --
03F0:                                   00                         .    
```

#### Opcodes

```
  0: 0x03FB [0x00] END_REQSTACK()
```

### Event 65535.65

#### Metadata

| Field        | Value    |
|--------------|----------|
| Entrypoint   | 0x03FC   |
| Data Size    | 10 bytes |
| Instructions | 2        |

```
      00 01 02 03 04 05 06 07  08 09 0A 0B 0C 0D 0E 0F
      -- -- -- -- -- -- -- --  -- -- -- -- -- -- -- --
03F0:                                      37 0B 80 0C              7...
0400: 80 05 80 39 80 00                                 ...9..          
```

#### Opcodes

```
  0: 0x03FC [0x37] UPDATE_EVENT_POSITION_AND_DIR: x=-0.024*, z=44.860*, y=-61.521*, direction=0.0°*
  1: 0x0405 [0x00] END_REQSTACK()
```

### Event 65535.66

#### Metadata

| Field        | Value    |
|--------------|----------|
| Entrypoint   | 0x0406   |
| Data Size    | 19 bytes |
| Instructions | 5        |

```
      00 01 02 03 04 05 06 07  08 09 0A 0B 0C 0D 0E 0F
      -- -- -- -- -- -- -- --  -- -- -- -- -- -- -- --
0400:                   29 08  1D 20 0F 01 01 1D 3A 80        ).. ....:.
0410: 23 29 08 1D 20 0F 01 02  00                       #).. ....       
```

#### Opcodes

```
  0: 0x0406 [0x29] REQ_SET_WAIT(priority=0x08, entity_id=Star Sibyl (ID: 17768477/0x010F201D), tag_num=0x01)
  1: 0x040D [0x1D] PRINT_EVENT_MESSAGE(message_id=426*)
    → "I am delighted at the news of your safe return."
  2: 0x0410 [0x23] WAIT_FOR_DIALOG_INTERACTION
  3: 0x0411 [0x29] REQ_SET_WAIT(priority=0x08, entity_id=Star Sibyl (ID: 17768477/0x010F201D), tag_num=0x02)
  4: 0x0418 [0x00] END_REQSTACK()
```

### Event 65535.67

#### Metadata

| Field        | Value    |
|--------------|----------|
| Entrypoint   | 0x0419   |
| Data Size    | 19 bytes |
| Instructions | 5        |

```
      00 01 02 03 04 05 06 07  08 09 0A 0B 0C 0D 0E 0F
      -- -- -- -- -- -- -- --  -- -- -- -- -- -- -- --
0410:                             29 08 1D 20 0F 01 01           ).. ...
0420: 1D 3B 80 23 29 08 1D 20  0F 01 02 00              .;.#).. ....    
```

#### Opcodes

```
  0: 0x0419 [0x29] REQ_SET_WAIT(priority=0x08, entity_id=Star Sibyl (ID: 17768477/0x010F201D), tag_num=0x01)
  1: 0x0420 [0x1D] PRINT_EVENT_MESSAGE(message_id=427*)
    → "What did you find in Fei'Yin? Was the seal..."
  2: 0x0423 [0x23] WAIT_FOR_DIALOG_INTERACTION
  3: 0x0424 [0x29] REQ_SET_WAIT(priority=0x08, entity_id=Star Sibyl (ID: 17768477/0x010F201D), tag_num=0x02)
  4: 0x042B [0x00] END_REQSTACK()
```

### Event 65535.68

#### Metadata

| Field        | Value    |
|--------------|----------|
| Entrypoint   | 0x042C   |
| Data Size    | 19 bytes |
| Instructions | 5        |

```
      00 01 02 03 04 05 06 07  08 09 0A 0B 0C 0D 0E 0F
      -- -- -- -- -- -- -- --  -- -- -- -- -- -- -- --
0420:                                      29 08 1D 20              ).. 
0430: 0F 01 05 1D 3C 80 23 29  08 1D 20 0F 01 06 00     ....<.#).. .... 
```

#### Opcodes

```
  0: 0x042C [0x29] REQ_SET_WAIT(priority=0x08, entity_id=Star Sibyl (ID: 17768477/0x010F201D), tag_num=0x05)
  1: 0x0433 [0x1D] PRINT_EVENT_MESSAGE(message_id=428*)
    → "I see... So the seal is no more..."
  2: 0x0436 [0x23] WAIT_FOR_DIALOG_INTERACTION
  3: 0x0437 [0x29] REQ_SET_WAIT(priority=0x08, entity_id=Star Sibyl (ID: 17768477/0x010F201D), tag_num=0x06)
  4: 0x043E [0x00] END_REQSTACK()
```

### Event 65535.69

#### Metadata

| Field        | Value    |
|--------------|----------|
| Entrypoint   | 0x043F   |
| Data Size    | 19 bytes |
| Instructions | 5        |

```
      00 01 02 03 04 05 06 07  08 09 0A 0B 0C 0D 0E 0F
      -- -- -- -- -- -- -- --  -- -- -- -- -- -- -- --
0430:                                               29                 )
0440: 08 1D 20 0F 01 01 1D 3D  80 23 29 08 1D 20 0F 01  .. ....=.#).. ..
0450: 02 00                                             ..              
```

#### Opcodes

```
  0: 0x043F [0x29] REQ_SET_WAIT(priority=0x08, entity_id=Star Sibyl (ID: 17768477/0x010F201D), tag_num=0x01)
  1: 0x0446 [0x1D] PRINT_EVENT_MESSAGE(message_id=429*)
    → "If the beastmen were to lead a force of nether beasts into Windurst, we would be thrust back twenty years."
  2: 0x0449 [0x23] WAIT_FOR_DIALOG_INTERACTION
  3: 0x044A [0x29] REQ_SET_WAIT(priority=0x08, entity_id=Star Sibyl (ID: 17768477/0x010F201D), tag_num=0x02)
  4: 0x0451 [0x00] END_REQSTACK()
```

### Event 65535.70

#### Metadata

| Field        | Value    |
|--------------|----------|
| Entrypoint   | 0x0452   |
| Data Size    | 19 bytes |
| Instructions | 5        |

```
      00 01 02 03 04 05 06 07  08 09 0A 0B 0C 0D 0E 0F
      -- -- -- -- -- -- -- --  -- -- -- -- -- -- -- --
0450:       29 08 1D 20 0F 01  01 1D 3E 80 23 29 08 1D    ).. ....>.#)..
0460: 20 0F 01 02 00                                     ....           
```

#### Opcodes

```
  0: 0x0452 [0x29] REQ_SET_WAIT(priority=0x08, entity_id=Star Sibyl (ID: 17768477/0x010F201D), tag_num=0x01)
  1: 0x0459 [0x1D] PRINT_EVENT_MESSAGE(message_id=431*)
    → "I feel the same way, Semih Lafihna. Let us call forth the five ministers of Windurst. We need to work together in this time of despair."
  2: 0x045C [0x23] WAIT_FOR_DIALOG_INTERACTION
  3: 0x045D [0x29] REQ_SET_WAIT(priority=0x08, entity_id=Star Sibyl (ID: 17768477/0x010F201D), tag_num=0x02)
  4: 0x0464 [0x00] END_REQSTACK()
```

### Event 65535.71

#### Metadata

| Field        | Value    |
|--------------|----------|
| Entrypoint   | 0x0465   |
| Data Size    | 23 bytes |
| Instructions | 7        |

```
      00 01 02 03 04 05 06 07  08 09 0A 0B 0C 0D 0E 0F
      -- -- -- -- -- -- -- --  -- -- -- -- -- -- -- --
0460:                29 08 1D  20 0F 01 07 1D 3F 80 23       ).. ....?.#
0470: 1D 40 80 23 29 08 1D 20  0F 01 08 00              .@.#).. ....    
```

#### Opcodes

```
  0: 0x0465 [0x29] REQ_SET_WAIT(priority=0x08, entity_id=Star Sibyl (ID: 17768477/0x010F201D), tag_num=0x07)
  1: 0x046C [0x1D] PRINT_EVENT_MESSAGE(message_id=432*)
    → "You will be summoned when your next mission has been decided."
  2: 0x046F [0x23] WAIT_FOR_DIALOG_INTERACTION
  3: 0x0470 [0x1D] PRINT_EVENT_MESSAGE(message_id=433*)
    → "Go and prepare for your journey. The light of the great white star will guide you here when it is time."
  4: 0x0473 [0x23] WAIT_FOR_DIALOG_INTERACTION
  5: 0x0474 [0x29] REQ_SET_WAIT(priority=0x08, entity_id=Star Sibyl (ID: 17768477/0x010F201D), tag_num=0x08)
  6: 0x047B [0x00] END_REQSTACK()
```

### Event 214

#### Metadata

| Field        | Value   |
|--------------|---------|
| Entrypoint   | 0x047C  |
| Data Size    | 1 bytes |
| Instructions | 1       |

```
      00 01 02 03 04 05 06 07  08 09 0A 0B 0C 0D 0E 0F
      -- -- -- -- -- -- -- --  -- -- -- -- -- -- -- --
0470:                                      00                       .   
```

#### Opcodes

```
  0: 0x047C [0x00] END_REQSTACK()
```

### Event 65535.72

#### Metadata

| Field        | Value    |
|--------------|----------|
| Entrypoint   | 0x047D   |
| Data Size    | 19 bytes |
| Instructions | 5        |

```
      00 01 02 03 04 05 06 07  08 09 0A 0B 0C 0D 0E 0F
      -- -- -- -- -- -- -- --  -- -- -- -- -- -- -- --
0470:                                         29 08 1D               )..
0480: 20 0F 01 01 1D 41 80 23  29 08 1D 20 0F 01 02 00   ....A.#).. ....
```

#### Opcodes

```
  0: 0x047D [0x29] REQ_SET_WAIT(priority=0x08, entity_id=Star Sibyl (ID: 17768477/0x010F201D), tag_num=0x01)
  1: 0x0484 [0x1D] PRINT_EVENT_MESSAGE(message_id=474*)
    → "I have been awaiting your return, <Player>."
  2: 0x0487 [0x23] WAIT_FOR_DIALOG_INTERACTION
  3: 0x0488 [0x29] REQ_SET_WAIT(priority=0x08, entity_id=Star Sibyl (ID: 17768477/0x010F201D), tag_num=0x02)
  4: 0x048F [0x00] END_REQSTACK()
```

### Event 65535.73

#### Metadata

| Field        | Value    |
|--------------|----------|
| Entrypoint   | 0x0490   |
| Data Size    | 19 bytes |
| Instructions | 5        |

```
      00 01 02 03 04 05 06 07  08 09 0A 0B 0C 0D 0E 0F
      -- -- -- -- -- -- -- --  -- -- -- -- -- -- -- --
0490: 29 08 1D 20 0F 01 01 1D  42 80 23 29 08 1D 20 0F  ).. ....B.#).. .
04A0: 01 02 00                                          ...             
```

#### Opcodes

```
  0: 0x0490 [0x29] REQ_SET_WAIT(priority=0x08, entity_id=Star Sibyl (ID: 17768477/0x010F201D), tag_num=0x01)
  1: 0x0497 [0x1D] PRINT_EVENT_MESSAGE(message_id=475*)
    → "It has been decided that Windurst will not take any military action against the Shadow Lord."
  2: 0x049A [0x23] WAIT_FOR_DIALOG_INTERACTION
  3: 0x049B [0x29] REQ_SET_WAIT(priority=0x08, entity_id=Star Sibyl (ID: 17768477/0x010F201D), tag_num=0x02)
  4: 0x04A2 [0x00] END_REQSTACK()
```

### Event 65535.74

#### Metadata

| Field        | Value    |
|--------------|----------|
| Entrypoint   | 0x04A3   |
| Data Size    | 19 bytes |
| Instructions | 5        |

```
      00 01 02 03 04 05 06 07  08 09 0A 0B 0C 0D 0E 0F
      -- -- -- -- -- -- -- --  -- -- -- -- -- -- -- --
04A0:          29 08 1D 20 0F  01 05 1D 43 80 23 29 08     ).. ....C.#).
04B0: 1D 20 0F 01 06 00                                 . ....          
```

#### Opcodes

```
  0: 0x04A3 [0x29] REQ_SET_WAIT(priority=0x08, entity_id=Star Sibyl (ID: 17768477/0x010F201D), tag_num=0x05)
  1: 0x04AA [0x1D] PRINT_EVENT_MESSAGE(message_id=476*)
    → "There are still too many unanswered questions. Any action now would erase what we have worked so hard to build with the Yagudo."
  2: 0x04AD [0x23] WAIT_FOR_DIALOG_INTERACTION
  3: 0x04AE [0x29] REQ_SET_WAIT(priority=0x08, entity_id=Star Sibyl (ID: 17768477/0x010F201D), tag_num=0x06)
  4: 0x04B5 [0x00] END_REQSTACK()
```

### Event 65535.75

#### Metadata

| Field        | Value    |
|--------------|----------|
| Entrypoint   | 0x04B6   |
| Data Size    | 19 bytes |
| Instructions | 5        |

```
      00 01 02 03 04 05 06 07  08 09 0A 0B 0C 0D 0E 0F
      -- -- -- -- -- -- -- --  -- -- -- -- -- -- -- --
04B0:                   29 08  1D 20 0F 01 01 1D 44 80        ).. ....D.
04C0: 23 29 08 1D 20 0F 01 02  00                       #).. ....       
```

#### Opcodes

```
  0: 0x04B6 [0x29] REQ_SET_WAIT(priority=0x08, entity_id=Star Sibyl (ID: 17768477/0x010F201D), tag_num=0x01)
  1: 0x04BD [0x1D] PRINT_EVENT_MESSAGE(message_id=477*)
    → "However, we must put a stop to the Shadow Lord's return. We cannot allow Vana'diel to be thrust back into a war."
  2: 0x04C0 [0x23] WAIT_FOR_DIALOG_INTERACTION
  3: 0x04C1 [0x29] REQ_SET_WAIT(priority=0x08, entity_id=Star Sibyl (ID: 17768477/0x010F201D), tag_num=0x02)
  4: 0x04C8 [0x00] END_REQSTACK()
```

### Event 65535.76

#### Metadata

| Field        | Value    |
|--------------|----------|
| Entrypoint   | 0x04C9   |
| Data Size    | 19 bytes |
| Instructions | 5        |

```
      00 01 02 03 04 05 06 07  08 09 0A 0B 0C 0D 0E 0F
      -- -- -- -- -- -- -- --  -- -- -- -- -- -- -- --
04C0:                             29 08 1D 20 0F 01 01           ).. ...
04D0: 1D 45 80 23 29 08 1D 20  0F 01 02 00              .E.#).. ....    
```

#### Opcodes

```
  0: 0x04C9 [0x29] REQ_SET_WAIT(priority=0x08, entity_id=Star Sibyl (ID: 17768477/0x010F201D), tag_num=0x01)
  1: 0x04D0 [0x1D] PRINT_EVENT_MESSAGE(message_id=478*)
    → "That is where you come in."
  2: 0x04D3 [0x23] WAIT_FOR_DIALOG_INTERACTION
  3: 0x04D4 [0x29] REQ_SET_WAIT(priority=0x08, entity_id=Star Sibyl (ID: 17768477/0x010F201D), tag_num=0x02)
  4: 0x04DB [0x00] END_REQSTACK()
```

### Event 65535.77

#### Metadata

| Field        | Value    |
|--------------|----------|
| Entrypoint   | 0x04DC   |
| Data Size    | 19 bytes |
| Instructions | 5        |

```
      00 01 02 03 04 05 06 07  08 09 0A 0B 0C 0D 0E 0F
      -- -- -- -- -- -- -- --  -- -- -- -- -- -- -- --
04D0:                                      29 08 1D 20              ).. 
04E0: 0F 01 03 1D 46 80 23 29  08 1D 20 0F 01 04 00     ....F.#).. .... 
```

#### Opcodes

```
  0: 0x04DC [0x29] REQ_SET_WAIT(priority=0x08, entity_id=Star Sibyl (ID: 17768477/0x010F201D), tag_num=0x03)
  1: 0x04E3 [0x1D] PRINT_EVENT_MESSAGE(message_id=479*)
    → "I would like you to travel to Castle Zvahl and prevent the resurrection of the Shadow Lord."
  2: 0x04E6 [0x23] WAIT_FOR_DIALOG_INTERACTION
  3: 0x04E7 [0x29] REQ_SET_WAIT(priority=0x08, entity_id=Star Sibyl (ID: 17768477/0x010F201D), tag_num=0x04)
  4: 0x04EE [0x00] END_REQSTACK()
```

### Event 65535.78

#### Metadata

| Field        | Value    |
|--------------|----------|
| Entrypoint   | 0x04EF   |
| Data Size    | 19 bytes |
| Instructions | 5        |

```
      00 01 02 03 04 05 06 07  08 09 0A 0B 0C 0D 0E 0F
      -- -- -- -- -- -- -- --  -- -- -- -- -- -- -- --
04E0:                                               29                 )
04F0: 08 1D 20 0F 01 03 1D 47  80 23 29 08 1D 20 0F 01  .. ....G.#).. ..
0500: 04 00                                             ..              
```

#### Opcodes

```
  0: 0x04EF [0x29] REQ_SET_WAIT(priority=0x08, entity_id=Star Sibyl (ID: 17768477/0x010F201D), tag_num=0x03)
  1: 0x04F6 [0x1D] PRINT_EVENT_MESSAGE(message_id=480*)
    → "I believe in you, <Player>. Let the stars guide you to victory on your celestial journey."
  2: 0x04F9 [0x23] WAIT_FOR_DIALOG_INTERACTION
  3: 0x04FA [0x29] REQ_SET_WAIT(priority=0x08, entity_id=Star Sibyl (ID: 17768477/0x010F201D), tag_num=0x04)
  4: 0x0501 [0x00] END_REQSTACK()
```

### Event 215

#### Metadata

| Field        | Value   |
|--------------|---------|
| Entrypoint   | 0x0502  |
| Data Size    | 1 bytes |
| Instructions | 1       |

```
      00 01 02 03 04 05 06 07  08 09 0A 0B 0C 0D 0E 0F
      -- -- -- -- -- -- -- --  -- -- -- -- -- -- -- --
0500:       00                                            .             
```

#### Opcodes

```
  0: 0x0502 [0x00] END_REQSTACK()
```

### Event 65535.79

#### Metadata

| Field        | Value    |
|--------------|----------|
| Entrypoint   | 0x0503   |
| Data Size    | 10 bytes |
| Instructions | 2        |

```
      00 01 02 03 04 05 06 07  08 09 0A 0B 0C 0D 0E 0F
      -- -- -- -- -- -- -- --  -- -- -- -- -- -- -- --
0500:          37 48 80 49 80  4A 80 4B 80 00              7H.I.J.K..   
```

#### Opcodes

```
  0: 0x0503 [0x37] UPDATE_EVENT_POSITION_AND_DIR: x=-0.105*, z=44.070*, y=-67.500*, direction=82.4°*
  1: 0x050C [0x00] END_REQSTACK()
```

### Event 65535.80

#### Metadata

| Field        | Value    |
|--------------|----------|
| Entrypoint   | 0x050D   |
| Data Size    | 12 bytes |
| Instructions | 4        |

```
      00 01 02 03 04 05 06 07  08 09 0A 0B 0C 0D 0E 0F
      -- -- -- -- -- -- -- --  -- -- -- -- -- -- -- --
0500:                                         29 08 1D               )..
0510: 20 0F 01 05 1D 4C 80 23  00                        ....L.#.       
```

#### Opcodes

```
  0: 0x050D [0x29] REQ_SET_WAIT(priority=0x08, entity_id=Star Sibyl (ID: 17768477/0x010F201D), tag_num=0x05)
  1: 0x0514 [0x1D] PRINT_EVENT_MESSAGE(message_id=481*)
    → "One great star has fallen..."
  2: 0x0517 [0x23] WAIT_FOR_DIALOG_INTERACTION
  3: 0x0518 [0x00] END_REQSTACK()
```

### Event 65535.81

#### Metadata

| Field        | Value    |
|--------------|----------|
| Entrypoint   | 0x0519   |
| Data Size    | 12 bytes |
| Instructions | 4        |

```
      00 01 02 03 04 05 06 07  08 09 0A 0B 0C 0D 0E 0F
      -- -- -- -- -- -- -- --  -- -- -- -- -- -- -- --
0510:                             29 08 1D 20 0F 01 06           ).. ...
0520: 1D 4D 80 23 00                                    .M.#.           
```

#### Opcodes

```
  0: 0x0519 [0x29] REQ_SET_WAIT(priority=0x08, entity_id=Star Sibyl (ID: 17768477/0x010F201D), tag_num=0x06)
  1: 0x0520 [0x1D] PRINT_EVENT_MESSAGE(message_id=482*)
    → "No... It cannot be... That is not the star that I..."
  2: 0x0523 [0x23] WAIT_FOR_DIALOG_INTERACTION
  3: 0x0524 [0x00] END_REQSTACK()
```

### Event 216

#### Metadata

| Field        | Value   |
|--------------|---------|
| Entrypoint   | 0x0525  |
| Data Size    | 1 bytes |
| Instructions | 1       |

```
      00 01 02 03 04 05 06 07  08 09 0A 0B 0C 0D 0E 0F
      -- -- -- -- -- -- -- --  -- -- -- -- -- -- -- --
0520:                00                                      .          
```

#### Opcodes

```
  0: 0x0525 [0x00] END_REQSTACK()
```

### Event 65535.82

#### Metadata

| Field        | Value    |
|--------------|----------|
| Entrypoint   | 0x0526   |
| Data Size    | 19 bytes |
| Instructions | 5        |

```
      00 01 02 03 04 05 06 07  08 09 0A 0B 0C 0D 0E 0F
      -- -- -- -- -- -- -- --  -- -- -- -- -- -- -- --
0520:                   29 08  1D 20 0F 01 07 1D 4E 80        ).. ....N.
0530: 23 29 08 1D 20 0F 01 08  00                       #).. ....       
```

#### Opcodes

```
  0: 0x0526 [0x29] REQ_SET_WAIT(priority=0x08, entity_id=Star Sibyl (ID: 17768477/0x010F201D), tag_num=0x07)
  1: 0x052D [0x1D] PRINT_EVENT_MESSAGE(message_id=483*)
    → "I am pleased to witness your safe return, <Player>."
  2: 0x0530 [0x23] WAIT_FOR_DIALOG_INTERACTION
  3: 0x0531 [0x29] REQ_SET_WAIT(priority=0x08, entity_id=Star Sibyl (ID: 17768477/0x010F201D), tag_num=0x08)
  4: 0x0538 [0x00] END_REQSTACK()
```

### Event 65535.83

#### Metadata

| Field        | Value    |
|--------------|----------|
| Entrypoint   | 0x0539   |
| Data Size    | 19 bytes |
| Instructions | 5        |

```
      00 01 02 03 04 05 06 07  08 09 0A 0B 0C 0D 0E 0F
      -- -- -- -- -- -- -- --  -- -- -- -- -- -- -- --
0530:                             29 08 1D 20 0F 01 01           ).. ...
0540: 1D 4F 80 23 29 08 1D 20  0F 01 02 00              .O.#).. ....    
```

#### Opcodes

```
  0: 0x0539 [0x29] REQ_SET_WAIT(priority=0x08, entity_id=Star Sibyl (ID: 17768477/0x010F201D), tag_num=0x01)
  1: 0x0540 [0x1D] PRINT_EVENT_MESSAGE(message_id=484*)
    → "I cannot express in words the gratitude that I, and the country of Windurst, feel for you."
  2: 0x0543 [0x23] WAIT_FOR_DIALOG_INTERACTION
  3: 0x0544 [0x29] REQ_SET_WAIT(priority=0x08, entity_id=Star Sibyl (ID: 17768477/0x010F201D), tag_num=0x02)
  4: 0x054B [0x00] END_REQSTACK()
```

### Event 65535.84

#### Metadata

| Field        | Value    |
|--------------|----------|
| Entrypoint   | 0x054C   |
| Data Size    | 19 bytes |
| Instructions | 5        |

```
      00 01 02 03 04 05 06 07  08 09 0A 0B 0C 0D 0E 0F
      -- -- -- -- -- -- -- --  -- -- -- -- -- -- -- --
0540:                                      29 08 1D 20              ).. 
0550: 0F 01 07 1D 50 80 23 29  08 1D 20 0F 01 08 00     ....P.#).. .... 
```

#### Opcodes

```
  0: 0x054C [0x29] REQ_SET_WAIT(priority=0x08, entity_id=Star Sibyl (ID: 17768477/0x010F201D), tag_num=0x07)
  1: 0x0553 [0x1D] PRINT_EVENT_MESSAGE(message_id=485*)
    → "For now, your duty is done. Until the stars call on you once again..."
  2: 0x0556 [0x23] WAIT_FOR_DIALOG_INTERACTION
  3: 0x0557 [0x29] REQ_SET_WAIT(priority=0x08, entity_id=Star Sibyl (ID: 17768477/0x010F201D), tag_num=0x08)
  4: 0x055E [0x00] END_REQSTACK()
```

### Event 10001

#### Metadata

| Field        | Value   |
|--------------|---------|
| Entrypoint   | 0x055F  |
| Data Size    | 1 bytes |
| Instructions | 1       |

```
      00 01 02 03 04 05 06 07  08 09 0A 0B 0C 0D 0E 0F
      -- -- -- -- -- -- -- --  -- -- -- -- -- -- -- --
0550:                                               00                 .
```

#### Opcodes

```
  0: 0x055F [0x00] END_REQSTACK()
```

### Event 65535.85

#### Metadata

| Field        | Value   |
|--------------|---------|
| Entrypoint   | 0x0560  |
| Data Size    | 1 bytes |
| Instructions | 1       |

```
      00 01 02 03 04 05 06 07  08 09 0A 0B 0C 0D 0E 0F
      -- -- -- -- -- -- -- --  -- -- -- -- -- -- -- --
0560: 00                                                .               
```

#### Opcodes

```
  0: 0x0560 [0x00] END_REQSTACK()
```

### Event 65535.86

#### Metadata

| Field        | Value    |
|--------------|----------|
| Entrypoint   | 0x0561   |
| Data Size    | 10 bytes |
| Instructions | 2        |

```
      00 01 02 03 04 05 06 07  08 09 0A 0B 0C 0D 0E 0F
      -- -- -- -- -- -- -- --  -- -- -- -- -- -- -- --
0560:    37 51 80 52 80 53 80  54 80 00                  7Q.R.S.T..     
```

#### Opcodes

```
  0: 0x0561 [0x37] UPDATE_EVENT_POSITION_AND_DIR: x=-0.062*, z=24.648*, y=-48.999*, direction=100.9°*
  1: 0x056A [0x00] END_REQSTACK()
```

### Event 65535.87

#### Metadata

| Field        | Value    |
|--------------|----------|
| Entrypoint   | 0x056B   |
| Data Size    | 10 bytes |
| Instructions | 2        |

```
      00 01 02 03 04 05 06 07  08 09 0A 0B 0C 0D 0E 0F
      -- -- -- -- -- -- -- --  -- -- -- -- -- -- -- --
0560:                                   37 55 80 56 80             7U.V.
0570: 57 80 58 80 00                                    W.X..           
```

#### Opcodes

```
  0: 0x056B [0x37] UPDATE_EVENT_POSITION_AND_DIR: x=0.016*, z=8.137*, y=-47.000*, direction=85.3°*
  1: 0x0574 [0x00] END_REQSTACK()
```

### Event 65535.88

#### Metadata

| Field        | Value    |
|--------------|----------|
| Entrypoint   | 0x0575   |
| Data Size    | 10 bytes |
| Instructions | 2        |

```
      00 01 02 03 04 05 06 07  08 09 0A 0B 0C 0D 0E 0F
      -- -- -- -- -- -- -- --  -- -- -- -- -- -- -- --
0570:                37 59 80  39 80 5A 80 5B 80 00          7Y.9.Z.[.. 
```

#### Opcodes

```
  0: 0x0575 [0x37] UPDATE_EVENT_POSITION_AND_DIR: x=1.047*, z=0.000*, y=-46.999*, direction=181.8°*
  1: 0x057E [0x00] END_REQSTACK()
```

### Event 65535.89

#### Metadata

| Field        | Value    |
|--------------|----------|
| Entrypoint   | 0x057F   |
| Data Size    | 15 bytes |
| Instructions | 5        |

```
      00 01 02 03 04 05 06 07  08 09 0A 0B 0C 0D 0E 0F
      -- -- -- -- -- -- -- --  -- -- -- -- -- -- -- --
0570:                                               32                 2
0580: 08 80 1F 00 5C 80 5D 80  57 80 1F 01 6F 00        ....\.].W...o.  
```

#### Opcodes

```
  0: 0x057F [0x32] ExtData[1]->MainSpeed = 7* * 0.1
  1: 0x0582 [0x1F] MOVE_ENTITY: EventEntity moves to X=-0.085*, Z=16.137*, Y=-47.000*
  2: 0x058A [0x1F] MOVE_ENTITY: Update entity position (mode=1)
  3: 0x058C [0x6F] WAIT_FRAME_DELAY: Yield until WaitTime reaches zero
  4: 0x058D [0x00] END_REQSTACK()
```

### Event 65535.90

#### Metadata

| Field        | Value    |
|--------------|----------|
| Entrypoint   | 0x058E   |
| Data Size    | 18 bytes |
| Instructions | 6        |

```
      00 01 02 03 04 05 06 07  08 09 0A 0B 0C 0D 0E 0F
      -- -- -- -- -- -- -- --  -- -- -- -- -- -- -- --
0580:                                            32 08                2.
0590: 80 1F 00 59 80 5E 80 5A  80 1F 01 6F 39 5B 80 00  ...Y.^.Z...o9[..
```

#### Opcodes

```
  0: 0x058E [0x32] ExtData[1]->MainSpeed = 7* * 0.1
  1: 0x0591 [0x1F] MOVE_ENTITY: EventEntity moves to X=1.047*, Z=-0.654*, Y=-46.999*
  2: 0x0599 [0x1F] MOVE_ENTITY: Update entity position (mode=1)
  3: 0x059B [0x6F] WAIT_FRAME_DELAY: Yield until WaitTime reaches zero
  4: 0x059C [0x39] SET_ENTITY_DIRECTION(direction=11.4°*)
  5: 0x059F [0x00] END_REQSTACK()
```

