# 17768547 - POWDER

## Common Data

| Field            | Value                   |
|------------------|-------------------------|
| Zone             | Heavens Tower (ID: 242) |
| Block Size       | 52 bytes                |
| Total Events     | 4                       |
| References Count | 0                       |

## List of Events

| Event ID                 | Entrypoint   |   Size |   Instructions |
|--------------------------|--------------|--------|----------------|
| [65535](#event-65535)    | 0x0000       |      1 |              1 |
| [65535.1](#event-655351) | 0x0001       |      2 |              2 |
| [65535.2](#event-655352) | 0x0003       |     15 |              3 |
| [362](#event-362)        | 0x0012       |      1 |              1 |

## Events

### Event 65535

#### Metadata

| Field        | Value   |
|--------------|---------|
| Entrypoint   | 0x0000  |
| Data Size    | 1 bytes |
| Instructions | 1       |

```
      00 01 02 03 04 05 06 07  08 09 0A 0B 0C 0D 0E 0F
      -- -- -- -- -- -- -- --  -- -- -- -- -- -- -- --
0000: 00                                                .               
```

#### Opcodes

```
  0: 0x0000 [0x00] END_REQSTACK()
```

### Event 65535.1

#### Metadata

| Field        | Value   |
|--------------|---------|
| Entrypoint   | 0x0001  |
| Data Size    | 2 bytes |
| Instructions | 2       |

```
      00 01 02 03 04 05 06 07  08 09 0A 0B 0C 0D 0E 0F
      -- -- -- -- -- -- -- --  -- -- -- -- -- -- -- --
0000:    8E 00                                           ..             
```

#### Opcodes

```
  0: 0x0001 [0x8E] EventEntity->StatusEvent = 45
  1: 0x0002 [0x00] END_REQSTACK()
```

### Event 65535.2

#### Metadata

| Field        | Value    |
|--------------|----------|
| Entrypoint   | 0x0003   |
| Data Size    | 15 bytes |
| Instructions | 3        |

```
      00 01 02 03 04 05 06 07  08 09 0A 0B 0C 0D 0E 0F
      -- -- -- -- -- -- -- --  -- -- -- -- -- -- -- --
0000:          2D F8 FF FF 7F  F8 FF FF 7F 6B 69 6C 61     -........kila
0010: 8F 00                                             ..              
```

#### Opcodes

```
  0: 0x0003 [0x2D] CREATE_ZONE_SCHEDULER_TASK: Create scheduler "kila" with entities [EventEntity, EventEntity]
  1: 0x0010 [0x8F] SET_ENTITY_STATUS_EVENT_46()
  2: 0x0011 [0x00] END_REQSTACK()
```

### Event 362

#### Metadata

| Field        | Value   |
|--------------|---------|
| Entrypoint   | 0x0012  |
| Data Size    | 1 bytes |
| Instructions | 1       |

```
      00 01 02 03 04 05 06 07  08 09 0A 0B 0C 0D 0E 0F
      -- -- -- -- -- -- -- --  -- -- -- -- -- -- -- --
0010:       00                                            .             
```

#### Opcodes

```
  0: 0x0012 [0x00] END_REQSTACK()
```
