# 17768496 - Kinono

## Common Data

| Field            | Value                   |
|------------------|-------------------------|
| Zone             | Heavens Tower (ID: 242) |
| Block Size       | 644 bytes               |
| Total Events     | 19                      |
| References Count | 23                      |

## List of Events

| Event ID                 | Entrypoint   |   Size |   Instructions |
|--------------------------|--------------|--------|----------------|
| [65535](#event-65535)    | 0x0000       |      1 |              1 |
| [65535.1](#event-655351) | 0x0001       |     16 |              2 |
| [65535.2](#event-655352) | 0x0011       |      9 |              3 |
| [65535.3](#event-655353) | 0x001A       |     16 |              2 |
| [65535.4](#event-655354) | 0x002A       |     14 |              2 |
| [65535.5](#event-655355) | 0x0038       |     16 |              2 |
| [65535.6](#event-655356) | 0x0048       |     14 |              2 |
| [67](#event-67)          | 0x0056       |     39 |             13 |
| [70](#event-70)          | 0x007D       |     39 |             13 |
| [133](#event-133)        | 0x00A4       |     33 |             12 |
| [146](#event-146)        | 0x00C5       |     29 |             10 |
| [187](#event-187)        | 0x00E2       |     33 |             12 |
| [212](#event-212)        | 0x0103       |     33 |             12 |
| [233](#event-233)        | 0x0124       |     33 |             12 |
| [331](#event-331)        | 0x0145       |     33 |             12 |
| [121](#event-121)        | 0x0166       |      1 |              1 |
| [347](#event-347)        | 0x0167       |     33 |             12 |
| [360](#event-360)        | 0x0188       |     33 |             12 |
| [398](#event-398)        | 0x01A9       |     33 |             12 |

## DAT References (imed_data)

|   Index | Hex Value   |   Dec Value |
|---------|-------------|-------------|
|       0 | 0x0028      |          40 |
|       1 | 0x001E      |          30 |
|       2 | 0x0031      |          49 |
|       3 | 0x0032      |          50 |
|       4 | 0x0037      |          55 |
|       5 | 0x0038      |          56 |
|       6 | 0x0107      |         263 |
|       7 | 0x0108      |         264 |
|       8 | 0x0126      |         294 |
|       9 | 0x0181      |         385 |
|      10 | 0x0182      |         386 |
|      11 | 0x01D6      |         470 |
|      12 | 0x01D7      |         471 |
|      13 | 0x0205      |         517 |
|      14 | 0x0206      |         518 |
|      15 | 0x1FD0      |        8144 |
|      16 | 0x1FD1      |        8145 |
|      17 | 0x206B      |        8299 |
|      18 | 0x206C      |        8300 |
|      19 | 0x20F7      |        8439 |
|      20 | 0x20F8      |        8440 |
|      21 | 0x2153      |        8531 |
|      22 | 0x2154      |        8532 |

## String References

- **49**: Uh...um... My name is Kinono. This is my first week as a lady-in-waiting.
- **50**: I pledge my loyalty to the Sto--Star Sibyl.
- **55**: N-now that the Star Sibyl is feeling better, we can get back to our everyday w-w-work.
- **56**: We must pr-pray harder to make sure that something like this never-ever happens again!
- **263**: U-um, my daddy-pappy said that the only way somebody-buddy could get into the central tower of the Harryto--Horutoto Ruins was by entering through the east tower in East Sarutabaruta.
- **264**: But there are three magic doors that can only be opened by using the power of three magicians...or at least that's what my daddy-pappy said.
- **294**: Y-you m-made it back s-safe and s-sound! Kinono is so relieved!
- **385**: U-um...I...um...I saw something the night the talisman was st-stolen.
- **386**: The central tower of the Horutoto Ruins was glue--glowing. Weren't the devices in that tower destroyed tewl--twenty years ago?
- **470**: U-um...the conference of monst--ministers just finished.
- **471**: I think s-some important insi--decisions were made. Good luck!
- **517**: U-um...I...um...
- **518**: ...I just wanted to say...welcome back home!
- **8144**: I, I heard from my daddy-pappy that the Dor--Dark Dungeon is a really s-scary place.
- **8145**: There are a lot of fruiten--frightening stories about that place, and a l-l-lot of them are supposed to be true. G-G-Goddess!
- **8299**: Ah, um, did Mix--Minister Ajido-Marujido and the Soup--Sibyl Guard Semih Lafihna really chase off the b-bearer of d-darkness!?
- **8300**: W-wow! They're so c-cool! I'm all aflutter!
- **8439**: I h-heard that lots of Cord--Cardians went down to the lower levels of the H-horutoto Ruins' central tower.
- **8440**: Isn't the r-reason Minister Ajido-Marujido was s-sent to the Dork--Dark Dungeon down there!?
- **8531**: Oh, [Mister/Miss] Adventurer! I-is it true that the magical p-power has returned to the Harry--Horutoto Ruins!?
- **8532**: Of c-course it is still f-forbidden to enter the ruins, so nobody really knows. B-but the moog--mages say that they can sense the energy!

## Events

### Event 65535

#### Metadata

| Field        | Value   |
|--------------|---------|
| Entrypoint   | 0x0000  |
| Data Size    | 1 bytes |
| Instructions | 1       |

```
      00 01 02 03 04 05 06 07  08 09 0A 0B 0C 0D 0E 0F
      -- -- -- -- -- -- -- --  -- -- -- -- -- -- -- --
0000: 00                                                .               
```

#### Opcodes

```
  0: 0x0000 [0x00] END_REQSTACK()
```

### Event 65535.1

#### Metadata

| Field        | Value    |
|--------------|----------|
| Entrypoint   | 0x0001   |
| Data Size    | 16 bytes |
| Instructions | 2        |

```
      00 01 02 03 04 05 06 07  08 09 0A 0B 0C 0D 0E 0F
      -- -- -- -- -- -- -- --  -- -- -- -- -- -- -- --
0000:    66 00 80 F8 FF FF 7F  F8 FF FF 7F 74 6C 6B 30   f..........tlk0
0010: 00                                                .               
```

#### Opcodes

```
  0: 0x0001 [0x66] LOAD_EXT_SCHEDULER_MAIN: Load scheduler "tlk0" with entities [EventEntity, EventEntity], work=40*
  1: 0x0010 [0x00] END_REQSTACK()
```

### Event 65535.2

#### Metadata

| Field        | Value   |
|--------------|---------|
| Entrypoint   | 0x0011  |
| Data Size    | 9 bytes |
| Instructions | 3       |

```
      00 01 02 03 04 05 06 07  08 09 0A 0B 0C 0D 0E 0F
      -- -- -- -- -- -- -- --  -- -- -- -- -- -- -- --
0010:    5E 69 64 6C 30 1C 01  80 00                     ^idl0....      
```

#### Opcodes

```
  0: 0x0011 [0x5E] EventEntity goes idle (kills current action) (animation: "idl0")
  1: 0x0016 [0x1C] WAIT(30* ticks)
  2: 0x0019 [0x00] END_REQSTACK()
```

### Event 65535.3

#### Metadata

| Field        | Value    |
|--------------|----------|
| Entrypoint   | 0x001A   |
| Data Size    | 16 bytes |
| Instructions | 2        |

```
      00 01 02 03 04 05 06 07  08 09 0A 0B 0C 0D 0E 0F
      -- -- -- -- -- -- -- --  -- -- -- -- -- -- -- --
0010:                                66 00 80 F8 FF FF            f.....
0020: 7F F8 FF FF 7F 6F 62 69  30 00                    .....obi0.      
```

#### Opcodes

```
  0: 0x001A [0x66] LOAD_EXT_SCHEDULER_MAIN: Load scheduler "obi0" with entities [EventEntity, EventEntity], work=40*
  1: 0x0029 [0x00] END_REQSTACK()
```

### Event 65535.4

#### Metadata

| Field        | Value    |
|--------------|----------|
| Entrypoint   | 0x002A   |
| Data Size    | 14 bytes |
| Instructions | 2        |

```
      00 01 02 03 04 05 06 07  08 09 0A 0B 0C 0D 0E 0F
      -- -- -- -- -- -- -- --  -- -- -- -- -- -- -- --
0020:                                53 F8 FF FF 7F F8            S.....
0030: FF FF 7F 6F 62 69 30 00                           ...obi0.        
```

#### Opcodes

```
  0: 0x002A [0x53] WAIT_SCHEDULER_TASK: Wait for scheduler "obi0" with entities [EventEntity, EventEntity]
  1: 0x0037 [0x00] END_REQSTACK()
```

### Event 65535.5

#### Metadata

| Field        | Value    |
|--------------|----------|
| Entrypoint   | 0x0038   |
| Data Size    | 16 bytes |
| Instructions | 2        |

```
      00 01 02 03 04 05 06 07  08 09 0A 0B 0C 0D 0E 0F
      -- -- -- -- -- -- -- --  -- -- -- -- -- -- -- --
0030:                          66 00 80 F8 FF FF 7F F8          f.......
0040: FF FF 7F 6F 62 69 31 00                           ...obi1.        
```

#### Opcodes

```
  0: 0x0038 [0x66] LOAD_EXT_SCHEDULER_MAIN: Load scheduler "obi1" with entities [EventEntity, EventEntity], work=40*
  1: 0x0047 [0x00] END_REQSTACK()
```

### Event 65535.6

#### Metadata

| Field        | Value    |
|--------------|----------|
| Entrypoint   | 0x0048   |
| Data Size    | 14 bytes |
| Instructions | 2        |

```
      00 01 02 03 04 05 06 07  08 09 0A 0B 0C 0D 0E 0F
      -- -- -- -- -- -- -- --  -- -- -- -- -- -- -- --
0040:                          53 F8 FF FF 7F F8 FF FF          S.......
0050: 7F 6F 62 69 31 00                                 .obi1.          
```

#### Opcodes

```
  0: 0x0048 [0x53] WAIT_SCHEDULER_TASK: Wait for scheduler "obi1" with entities [EventEntity, EventEntity]
  1: 0x0055 [0x00] END_REQSTACK()
```

### Event 67

#### Metadata

| Field        | Value    |
|--------------|----------|
| Entrypoint   | 0x0056   |
| Data Size    | 39 bytes |
| Instructions | 13       |

```
      00 01 02 03 04 05 06 07  08 09 0A 0B 0C 0D 0E 0F
      -- -- -- -- -- -- -- --  -- -- -- -- -- -- -- --
0050:                   86 00  F8 FF FF 7F 1E F0 FF FF        ..........
0060: 7F 6F 70 29 08 30 20 0F  01 01 1D 02 80 23 1D 03  .op).0 ......#..
0070: 80 23 29 08 30 20 0F 01  02 20 00 21 00           .#).0 ... .!.   
```

#### Opcodes

```
  0: 0x0056 [0x86] EventEntity->Render.Flags3 = Flags3  // No change (flag=0)
  1: 0x005C [0x1E] EventEntity looks at LocalPlayer and starts talking
  2: 0x0061 [0x6F] WAIT_FRAME_DELAY: Yield until WaitTime reaches zero
  3: 0x0062 [0x70] WAIT_ENTITY_RENDER_FLAG: Wait while EventEntity->Render.Flags3 bit 2 is set (cancel turn if not)
  4: 0x0063 [0x29] REQ_SET_WAIT(priority=0x08, entity_id=Kinono (ID: 17768496/0x010F2030), tag_num=0x01)
  5: 0x006A [0x1D] PRINT_EVENT_MESSAGE(message_id=49*)
    → "Uh...um... My name is Kinono. This is my first week as a lady-in-waiting."
  6: 0x006D [0x23] WAIT_FOR_DIALOG_INTERACTION
  7: 0x006E [0x1D] PRINT_EVENT_MESSAGE(message_id=50*)
    → "I pledge my loyalty to the Sto--Star Sibyl."
  8: 0x0071 [0x23] WAIT_FOR_DIALOG_INTERACTION
  9: 0x0072 [0x29] REQ_SET_WAIT(priority=0x08, entity_id=Kinono (ID: 17768496/0x010F2030), tag_num=0x02)
 10: 0x0079 [0x20] SET_CLI_EVENT_UC_FLAG: Unlock player control
 11: 0x007B [0x21] END_EVENT
 12: 0x007C [0x00] END_REQSTACK()
```

### Event 70

#### Metadata

| Field        | Value    |
|--------------|----------|
| Entrypoint   | 0x007D   |
| Data Size    | 39 bytes |
| Instructions | 13       |

```
      00 01 02 03 04 05 06 07  08 09 0A 0B 0C 0D 0E 0F
      -- -- -- -- -- -- -- --  -- -- -- -- -- -- -- --
0070:                                         86 00 F8               ...
0080: FF FF 7F 1E F0 FF FF 7F  6F 70 29 08 30 20 0F 01  ........op).0 ..
0090: 01 1D 04 80 23 1D 05 80  23 29 08 30 20 0F 01 02  ....#...#).0 ...
00A0: 20 00 21 00                                        .!.            
```

#### Opcodes

```
  0: 0x007D [0x86] EventEntity->Render.Flags3 = Flags3  // No change (flag=0)
  1: 0x0083 [0x1E] EventEntity looks at LocalPlayer and starts talking
  2: 0x0088 [0x6F] WAIT_FRAME_DELAY: Yield until WaitTime reaches zero
  3: 0x0089 [0x70] WAIT_ENTITY_RENDER_FLAG: Wait while EventEntity->Render.Flags3 bit 2 is set (cancel turn if not)
  4: 0x008A [0x29] REQ_SET_WAIT(priority=0x08, entity_id=Kinono (ID: 17768496/0x010F2030), tag_num=0x01)
  5: 0x0091 [0x1D] PRINT_EVENT_MESSAGE(message_id=55*)
    → "N-now that the Star Sibyl is feeling better, we can get back to our everyday w-w-work."
  6: 0x0094 [0x23] WAIT_FOR_DIALOG_INTERACTION
  7: 0x0095 [0x1D] PRINT_EVENT_MESSAGE(message_id=56*)
    → "We must pr-pray harder to make sure that something like this never-ever happens again!"
  8: 0x0098 [0x23] WAIT_FOR_DIALOG_INTERACTION
  9: 0x0099 [0x29] REQ_SET_WAIT(priority=0x08, entity_id=Kinono (ID: 17768496/0x010F2030), tag_num=0x02)
 10: 0x00A0 [0x20] SET_CLI_EVENT_UC_FLAG: Unlock player control
 11: 0x00A2 [0x21] END_EVENT
 12: 0x00A3 [0x00] END_REQSTACK()
```

### Event 133

#### Metadata

| Field        | Value    |
|--------------|----------|
| Entrypoint   | 0x00A4   |
| Data Size    | 33 bytes |
| Instructions | 12       |

```
      00 01 02 03 04 05 06 07  08 09 0A 0B 0C 0D 0E 0F
      -- -- -- -- -- -- -- --  -- -- -- -- -- -- -- --
00A0:             1E F0 FF FF  7F 6F 70 29 08 30 20 0F      .....op).0 .
00B0: 01 01 1D 06 80 23 1D 07  80 23 29 08 30 20 0F 01  .....#...#).0 ..
00C0: 02 20 00 21 00                                    . .!.           
```

#### Opcodes

```
  0: 0x00A4 [0x1E] EventEntity looks at LocalPlayer and starts talking
  1: 0x00A9 [0x6F] WAIT_FRAME_DELAY: Yield until WaitTime reaches zero
  2: 0x00AA [0x70] WAIT_ENTITY_RENDER_FLAG: Wait while EventEntity->Render.Flags3 bit 2 is set (cancel turn if not)
  3: 0x00AB [0x29] REQ_SET_WAIT(priority=0x08, entity_id=Kinono (ID: 17768496/0x010F2030), tag_num=0x01)
  4: 0x00B2 [0x1D] PRINT_EVENT_MESSAGE(message_id=263*)
    → "U-um, my daddy-pappy said that the only way somebody-buddy could get into the central tower of the Harryto--Horutoto Ruins was by entering through the east tower in East Sarutabaruta."
  5: 0x00B5 [0x23] WAIT_FOR_DIALOG_INTERACTION
  6: 0x00B6 [0x1D] PRINT_EVENT_MESSAGE(message_id=264*)
    → "But there are three magic doors that can only be opened by using the power of three magicians...or at least that's what my daddy-pappy said."
  7: 0x00B9 [0x23] WAIT_FOR_DIALOG_INTERACTION
  8: 0x00BA [0x29] REQ_SET_WAIT(priority=0x08, entity_id=Kinono (ID: 17768496/0x010F2030), tag_num=0x02)
  9: 0x00C1 [0x20] SET_CLI_EVENT_UC_FLAG: Unlock player control
 10: 0x00C3 [0x21] END_EVENT
 11: 0x00C4 [0x00] END_REQSTACK()
```

### Event 146

#### Metadata

| Field        | Value    |
|--------------|----------|
| Entrypoint   | 0x00C5   |
| Data Size    | 29 bytes |
| Instructions | 10       |

```
      00 01 02 03 04 05 06 07  08 09 0A 0B 0C 0D 0E 0F
      -- -- -- -- -- -- -- --  -- -- -- -- -- -- -- --
00C0:                1E F0 FF  FF 7F 6F 70 29 08 30 20       .....op).0 
00D0: 0F 01 01 1D 08 80 23 29  08 30 20 0F 01 02 20 00  ......#).0 ... .
00E0: 21 00                                             !.              
```

#### Opcodes

```
  0: 0x00C5 [0x1E] EventEntity looks at LocalPlayer and starts talking
  1: 0x00CA [0x6F] WAIT_FRAME_DELAY: Yield until WaitTime reaches zero
  2: 0x00CB [0x70] WAIT_ENTITY_RENDER_FLAG: Wait while EventEntity->Render.Flags3 bit 2 is set (cancel turn if not)
  3: 0x00CC [0x29] REQ_SET_WAIT(priority=0x08, entity_id=Kinono (ID: 17768496/0x010F2030), tag_num=0x01)
  4: 0x00D3 [0x1D] PRINT_EVENT_MESSAGE(message_id=294*)
    → "Y-you m-made it back s-safe and s-sound! Kinono is so relieved!"
  5: 0x00D6 [0x23] WAIT_FOR_DIALOG_INTERACTION
  6: 0x00D7 [0x29] REQ_SET_WAIT(priority=0x08, entity_id=Kinono (ID: 17768496/0x010F2030), tag_num=0x02)
  7: 0x00DE [0x20] SET_CLI_EVENT_UC_FLAG: Unlock player control
  8: 0x00E0 [0x21] END_EVENT
  9: 0x00E1 [0x00] END_REQSTACK()
```

### Event 187

#### Metadata

| Field        | Value    |
|--------------|----------|
| Entrypoint   | 0x00E2   |
| Data Size    | 33 bytes |
| Instructions | 12       |

```
      00 01 02 03 04 05 06 07  08 09 0A 0B 0C 0D 0E 0F
      -- -- -- -- -- -- -- --  -- -- -- -- -- -- -- --
00E0:       1E F0 FF FF 7F 6F  70 29 08 30 20 0F 01 01    .....op).0 ...
00F0: 1D 09 80 23 1D 0A 80 23  29 08 30 20 0F 01 02 20  ...#...#).0 ... 
0100: 00 21 00                                          .!.             
```

#### Opcodes

```
  0: 0x00E2 [0x1E] EventEntity looks at LocalPlayer and starts talking
  1: 0x00E7 [0x6F] WAIT_FRAME_DELAY: Yield until WaitTime reaches zero
  2: 0x00E8 [0x70] WAIT_ENTITY_RENDER_FLAG: Wait while EventEntity->Render.Flags3 bit 2 is set (cancel turn if not)
  3: 0x00E9 [0x29] REQ_SET_WAIT(priority=0x08, entity_id=Kinono (ID: 17768496/0x010F2030), tag_num=0x01)
  4: 0x00F0 [0x1D] PRINT_EVENT_MESSAGE(message_id=385*)
    → "U-um...I...um...I saw something the night the talisman was st-stolen."
  5: 0x00F3 [0x23] WAIT_FOR_DIALOG_INTERACTION
  6: 0x00F4 [0x1D] PRINT_EVENT_MESSAGE(message_id=386*)
    → "The central tower of the Horutoto Ruins was glue--glowing. Weren't the devices in that tower destroyed tewl--twenty years ago?"
  7: 0x00F7 [0x23] WAIT_FOR_DIALOG_INTERACTION
  8: 0x00F8 [0x29] REQ_SET_WAIT(priority=0x08, entity_id=Kinono (ID: 17768496/0x010F2030), tag_num=0x02)
  9: 0x00FF [0x20] SET_CLI_EVENT_UC_FLAG: Unlock player control
 10: 0x0101 [0x21] END_EVENT
 11: 0x0102 [0x00] END_REQSTACK()
```

### Event 212

#### Metadata

| Field        | Value    |
|--------------|----------|
| Entrypoint   | 0x0103   |
| Data Size    | 33 bytes |
| Instructions | 12       |

```
      00 01 02 03 04 05 06 07  08 09 0A 0B 0C 0D 0E 0F
      -- -- -- -- -- -- -- --  -- -- -- -- -- -- -- --
0100:          1E F0 FF FF 7F  6F 70 29 08 30 20 0F 01     .....op).0 ..
0110: 01 1D 0B 80 23 1D 0C 80  23 29 08 30 20 0F 01 02  ....#...#).0 ...
0120: 20 00 21 00                                        .!.            
```

#### Opcodes

```
  0: 0x0103 [0x1E] EventEntity looks at LocalPlayer and starts talking
  1: 0x0108 [0x6F] WAIT_FRAME_DELAY: Yield until WaitTime reaches zero
  2: 0x0109 [0x70] WAIT_ENTITY_RENDER_FLAG: Wait while EventEntity->Render.Flags3 bit 2 is set (cancel turn if not)
  3: 0x010A [0x29] REQ_SET_WAIT(priority=0x08, entity_id=Kinono (ID: 17768496/0x010F2030), tag_num=0x01)
  4: 0x0111 [0x1D] PRINT_EVENT_MESSAGE(message_id=470*)
    → "U-um...the conference of monst--ministers just finished."
  5: 0x0114 [0x23] WAIT_FOR_DIALOG_INTERACTION
  6: 0x0115 [0x1D] PRINT_EVENT_MESSAGE(message_id=471*)
    → "I think s-some important insi--decisions were made. Good luck!"
  7: 0x0118 [0x23] WAIT_FOR_DIALOG_INTERACTION
  8: 0x0119 [0x29] REQ_SET_WAIT(priority=0x08, entity_id=Kinono (ID: 17768496/0x010F2030), tag_num=0x02)
  9: 0x0120 [0x20] SET_CLI_EVENT_UC_FLAG: Unlock player control
 10: 0x0122 [0x21] END_EVENT
 11: 0x0123 [0x00] END_REQSTACK()
```

### Event 233

#### Metadata

| Field        | Value    |
|--------------|----------|
| Entrypoint   | 0x0124   |
| Data Size    | 33 bytes |
| Instructions | 12       |

```
      00 01 02 03 04 05 06 07  08 09 0A 0B 0C 0D 0E 0F
      -- -- -- -- -- -- -- --  -- -- -- -- -- -- -- --
0120:             1E F0 FF FF  7F 6F 70 29 08 30 20 0F      .....op).0 .
0130: 01 01 1D 0D 80 23 1D 0E  80 23 29 08 30 20 0F 01  .....#...#).0 ..
0140: 02 20 00 21 00                                    . .!.           
```

#### Opcodes

```
  0: 0x0124 [0x1E] EventEntity looks at LocalPlayer and starts talking
  1: 0x0129 [0x6F] WAIT_FRAME_DELAY: Yield until WaitTime reaches zero
  2: 0x012A [0x70] WAIT_ENTITY_RENDER_FLAG: Wait while EventEntity->Render.Flags3 bit 2 is set (cancel turn if not)
  3: 0x012B [0x29] REQ_SET_WAIT(priority=0x08, entity_id=Kinono (ID: 17768496/0x010F2030), tag_num=0x01)
  4: 0x0132 [0x1D] PRINT_EVENT_MESSAGE(message_id=517*)
    → "U-um...I...um..."
  5: 0x0135 [0x23] WAIT_FOR_DIALOG_INTERACTION
  6: 0x0136 [0x1D] PRINT_EVENT_MESSAGE(message_id=518*)
    → "...I just wanted to say...welcome back home!"
  7: 0x0139 [0x23] WAIT_FOR_DIALOG_INTERACTION
  8: 0x013A [0x29] REQ_SET_WAIT(priority=0x08, entity_id=Kinono (ID: 17768496/0x010F2030), tag_num=0x02)
  9: 0x0141 [0x20] SET_CLI_EVENT_UC_FLAG: Unlock player control
 10: 0x0143 [0x21] END_EVENT
 11: 0x0144 [0x00] END_REQSTACK()
```

### Event 331

#### Metadata

| Field        | Value    |
|--------------|----------|
| Entrypoint   | 0x0145   |
| Data Size    | 33 bytes |
| Instructions | 12       |

```
      00 01 02 03 04 05 06 07  08 09 0A 0B 0C 0D 0E 0F
      -- -- -- -- -- -- -- --  -- -- -- -- -- -- -- --
0140:                1E F0 FF  FF 7F 6F 70 29 08 30 20       .....op).0 
0150: 0F 01 01 1D 0F 80 23 1D  10 80 23 29 08 30 20 0F  ......#...#).0 .
0160: 01 02 20 00 21 00                                 .. .!.          
```

#### Opcodes

```
  0: 0x0145 [0x1E] EventEntity looks at LocalPlayer and starts talking
  1: 0x014A [0x6F] WAIT_FRAME_DELAY: Yield until WaitTime reaches zero
  2: 0x014B [0x70] WAIT_ENTITY_RENDER_FLAG: Wait while EventEntity->Render.Flags3 bit 2 is set (cancel turn if not)
  3: 0x014C [0x29] REQ_SET_WAIT(priority=0x08, entity_id=Kinono (ID: 17768496/0x010F2030), tag_num=0x01)
  4: 0x0153 [0x1D] PRINT_EVENT_MESSAGE(message_id=8144*)
    → "I, I heard from my daddy-pappy that the Dor--Dark Dungeon is a really s-scary place."
  5: 0x0156 [0x23] WAIT_FOR_DIALOG_INTERACTION
  6: 0x0157 [0x1D] PRINT_EVENT_MESSAGE(message_id=8145*)
    → "There are a lot of fruiten--frightening stories about that place, and a l-l-lot of them are supposed to be true. G-G-Goddess!"
  7: 0x015A [0x23] WAIT_FOR_DIALOG_INTERACTION
  8: 0x015B [0x29] REQ_SET_WAIT(priority=0x08, entity_id=Kinono (ID: 17768496/0x010F2030), tag_num=0x02)
  9: 0x0162 [0x20] SET_CLI_EVENT_UC_FLAG: Unlock player control
 10: 0x0164 [0x21] END_EVENT
 11: 0x0165 [0x00] END_REQSTACK()
```

### Event 121

#### Metadata

| Field        | Value   |
|--------------|---------|
| Entrypoint   | 0x0166  |
| Data Size    | 1 bytes |
| Instructions | 1       |

```
      00 01 02 03 04 05 06 07  08 09 0A 0B 0C 0D 0E 0F
      -- -- -- -- -- -- -- --  -- -- -- -- -- -- -- --
0160:                   00                                    .         
```

#### Opcodes

```
  0: 0x0166 [0x00] END_REQSTACK()
```

### Event 347

#### Metadata

| Field        | Value    |
|--------------|----------|
| Entrypoint   | 0x0167   |
| Data Size    | 33 bytes |
| Instructions | 12       |

```
      00 01 02 03 04 05 06 07  08 09 0A 0B 0C 0D 0E 0F
      -- -- -- -- -- -- -- --  -- -- -- -- -- -- -- --
0160:                      1E  F0 FF FF 7F 6F 70 29 08         .....op).
0170: 30 20 0F 01 01 1D 11 80  23 1D 12 80 23 29 08 30  0 ......#...#).0
0180: 20 0F 01 02 20 00 21 00                            ... .!.        
```

#### Opcodes

```
  0: 0x0167 [0x1E] EventEntity looks at LocalPlayer and starts talking
  1: 0x016C [0x6F] WAIT_FRAME_DELAY: Yield until WaitTime reaches zero
  2: 0x016D [0x70] WAIT_ENTITY_RENDER_FLAG: Wait while EventEntity->Render.Flags3 bit 2 is set (cancel turn if not)
  3: 0x016E [0x29] REQ_SET_WAIT(priority=0x08, entity_id=Kinono (ID: 17768496/0x010F2030), tag_num=0x01)
  4: 0x0175 [0x1D] PRINT_EVENT_MESSAGE(message_id=8299*)
    → "Ah, um, did Mix--Minister Ajido-Marujido and the Soup--Sibyl Guard Semih Lafihna really chase off the b-bearer of d-darkness!?"
  5: 0x0178 [0x23] WAIT_FOR_DIALOG_INTERACTION
  6: 0x0179 [0x1D] PRINT_EVENT_MESSAGE(message_id=8300*)
    → "W-wow! They're so c-cool! I'm all aflutter!"
  7: 0x017C [0x23] WAIT_FOR_DIALOG_INTERACTION
  8: 0x017D [0x29] REQ_SET_WAIT(priority=0x08, entity_id=Kinono (ID: 17768496/0x010F2030), tag_num=0x02)
  9: 0x0184 [0x20] SET_CLI_EVENT_UC_FLAG: Unlock player control
 10: 0x0186 [0x21] END_EVENT
 11: 0x0187 [0x00] END_REQSTACK()
```

### Event 360

#### Metadata

| Field        | Value    |
|--------------|----------|
| Entrypoint   | 0x0188   |
| Data Size    | 33 bytes |
| Instructions | 12       |

```
      00 01 02 03 04 05 06 07  08 09 0A 0B 0C 0D 0E 0F
      -- -- -- -- -- -- -- --  -- -- -- -- -- -- -- --
0180:                          1E F0 FF FF 7F 6F 70 29          .....op)
0190: 08 30 20 0F 01 01 1D 13  80 23 1D 14 80 23 29 08  .0 ......#...#).
01A0: 30 20 0F 01 02 20 00 21  00                       0 ... .!.       
```

#### Opcodes

```
  0: 0x0188 [0x1E] EventEntity looks at LocalPlayer and starts talking
  1: 0x018D [0x6F] WAIT_FRAME_DELAY: Yield until WaitTime reaches zero
  2: 0x018E [0x70] WAIT_ENTITY_RENDER_FLAG: Wait while EventEntity->Render.Flags3 bit 2 is set (cancel turn if not)
  3: 0x018F [0x29] REQ_SET_WAIT(priority=0x08, entity_id=Kinono (ID: 17768496/0x010F2030), tag_num=0x01)
  4: 0x0196 [0x1D] PRINT_EVENT_MESSAGE(message_id=8439*)
    → "I h-heard that lots of Cord--Cardians went down to the lower levels of the H-horutoto Ruins' central tower."
  5: 0x0199 [0x23] WAIT_FOR_DIALOG_INTERACTION
  6: 0x019A [0x1D] PRINT_EVENT_MESSAGE(message_id=8440*)
    → "Isn't the r-reason Minister Ajido-Marujido was s-sent to the Dork--Dark Dungeon down there!?"
  7: 0x019D [0x23] WAIT_FOR_DIALOG_INTERACTION
  8: 0x019E [0x29] REQ_SET_WAIT(priority=0x08, entity_id=Kinono (ID: 17768496/0x010F2030), tag_num=0x02)
  9: 0x01A5 [0x20] SET_CLI_EVENT_UC_FLAG: Unlock player control
 10: 0x01A7 [0x21] END_EVENT
 11: 0x01A8 [0x00] END_REQSTACK()
```

### Event 398

#### Metadata

| Field        | Value    |
|--------------|----------|
| Entrypoint   | 0x01A9   |
| Data Size    | 33 bytes |
| Instructions | 12       |

```
      00 01 02 03 04 05 06 07  08 09 0A 0B 0C 0D 0E 0F
      -- -- -- -- -- -- -- --  -- -- -- -- -- -- -- --
01A0:                             1E F0 FF FF 7F 6F 70           .....op
01B0: 29 08 30 20 0F 01 01 1D  15 80 23 1D 16 80 23 29  ).0 ......#...#)
01C0: 08 30 20 0F 01 02 20 00  21 00                    .0 ... .!.      
```

#### Opcodes

```
  0: 0x01A9 [0x1E] EventEntity looks at LocalPlayer and starts talking
  1: 0x01AE [0x6F] WAIT_FRAME_DELAY: Yield until WaitTime reaches zero
  2: 0x01AF [0x70] WAIT_ENTITY_RENDER_FLAG: Wait while EventEntity->Render.Flags3 bit 2 is set (cancel turn if not)
  3: 0x01B0 [0x29] REQ_SET_WAIT(priority=0x08, entity_id=Kinono (ID: 17768496/0x010F2030), tag_num=0x01)
  4: 0x01B7 [0x1D] PRINT_EVENT_MESSAGE(message_id=8531*)
    → "Oh, [Mister/Miss] Adventurer! I-is it true that the magical p-power has returned to the Harry--Horutoto Ruins!?"
  5: 0x01BA [0x23] WAIT_FOR_DIALOG_INTERACTION
  6: 0x01BB [0x1D] PRINT_EVENT_MESSAGE(message_id=8532*)
    → "Of c-course it is still f-forbidden to enter the ruins, so nobody really knows. B-but the moog--mages say that they can sense the energy!"
  7: 0x01BE [0x23] WAIT_FOR_DIALOG_INTERACTION
  8: 0x01BF [0x29] REQ_SET_WAIT(priority=0x08, entity_id=Kinono (ID: 17768496/0x010F2030), tag_num=0x02)
  9: 0x01C6 [0x20] SET_CLI_EVENT_UC_FLAG: Unlock player control
 10: 0x01C8 [0x21] END_EVENT
 11: 0x01C9 [0x00] END_REQSTACK()
```
