# 17768552 - Mhabi Molkot

## Common Data

| Field            | Value                   |
|------------------|-------------------------|
| Zone             | Heavens Tower (ID: 242) |
| Block Size       | 8044 bytes              |
| Total Events     | 12                      |
| References Count | 337                     |

## List of Events

| Event ID              | Entrypoint   |   Size |   Instructions |
|-----------------------|--------------|--------|----------------|
| [65535](#event-65535) | 0x0000       |      1 |              1 |
| [410](#event-410)     | 0x0001       |     33 |             11 |
| [413](#event-413)     | 0x0022       |   3348 |            516 |
| [414](#event-414)     | 0x0D36       |    116 |             33 |
| [415](#event-415)     | 0x0DAA       |     25 |              9 |
| [419](#event-419)     | 0x0DC3       |     25 |              9 |
| [420](#event-420)     | 0x0DDC       |   2897 |            706 |
| [421](#event-421)     | 0x192D       |     36 |             13 |
| [422](#event-422)     | 0x1951       |     36 |             13 |
| [423](#event-423)     | 0x1975       |     12 |              7 |
| [424](#event-424)     | 0x1981       |     77 |             19 |
| [425](#event-425)     | 0x19CE       |     25 |              9 |

## DAT References (imed_data)

|   Index | Hex Value   |   Dec Value |
|---------|-------------|-------------|
|       0 | 0x2277      |        8823 |
|       1 | 0x2278      |        8824 |
|       2 | 0x2279      |        8825 |
|       3 | 0x0000      |           0 |
|       4 | 0x2287      |        8839 |
|       5 | 0x2288      |        8840 |
|       6 | 0x2289      |        8841 |
|       7 | 0x228A      |        8842 |
|       8 | 0x228B      |        8843 |
|       9 | 0x228C      |        8844 |
|      10 | 0x00C8      |         200 |
|      11 | 0x0003      |           3 |
|      12 | 0x007F      |         127 |
|      13 | 0x0013      |          19 |
|      14 | 0x00F3      |         243 |
|      15 | 0x0064      |         100 |
|      16 | 0x01B7      |         439 |
|      17 | 0x0040      |          64 |
|      18 | 0x0001      |           1 |
|      19 | 0x21A1      |        8609 |
|      20 | 0x005A      |          90 |
|      21 | 0x000F      |          15 |
|      22 | 0x21A2      |        8610 |
|      23 | 0x000A      |          10 |
|      24 | 0x21A3      |        8611 |
|      25 | 0x0014      |          20 |
|      26 | 0x21A4      |        8612 |
|      27 | 0x21A5      |        8613 |
|      28 | 0x21A6      |        8614 |
|      29 | 0x21A7      |        8615 |
|      30 | 0x21A8      |        8616 |
|      31 | 0x21A9      |        8617 |
|      32 | 0x21AA      |        8618 |
|      33 | 0x21AB      |        8619 |
|      34 | 0x21AC      |        8620 |
|      35 | 0x21AD      |        8621 |
|      36 | 0x21AE      |        8622 |
|      37 | 0x21AF      |        8623 |
|      38 | 0x21B0      |        8624 |
|      39 | 0x21B1      |        8625 |
|      40 | 0x21B2      |        8626 |
|      41 | 0x21B3      |        8627 |
|      42 | 0x21B4      |        8628 |
|      43 | 0x21B5      |        8629 |
|      44 | 0x21B6      |        8630 |
|      45 | 0x21B7      |        8631 |
|      46 | 0x21B8      |        8632 |
|      47 | 0x21B9      |        8633 |
|      48 | 0x21BA      |        8634 |
|      49 | 0x21BB      |        8635 |
|      50 | 0x21BC      |        8636 |
|      51 | 0x21BD      |        8637 |
|      52 | 0x21BE      |        8638 |
|      53 | 0x21BF      |        8639 |
|      54 | 0x21C0      |        8640 |
|      55 | 0x21C1      |        8641 |
|      56 | 0x21C2      |        8642 |
|      57 | 0x21C3      |        8643 |
|      58 | 0x21C4      |        8644 |
|      59 | 0x21C5      |        8645 |
|      60 | 0x003C      |          60 |
|      61 | 0x21C6      |        8646 |
|      62 | 0x21C7      |        8647 |
|      63 | 0x21C8      |        8648 |
|      64 | 0x21C9      |        8649 |
|      65 | 0x21CA      |        8650 |
|      66 | 0x21CB      |        8651 |
|      67 | 0x001E      |          30 |
|      68 | 0x21CC      |        8652 |
|      69 | 0x0032      |          50 |
|      70 | 0x21CD      |        8653 |
|      71 | 0x21CE      |        8654 |
|      72 | 0x21CF      |        8655 |
|      73 | 0x21D0      |        8656 |
|      74 | 0x21D1      |        8657 |
|      75 | 0x21D2      |        8658 |
|      76 | 0x21D3      |        8659 |
|      77 | 0x21D4      |        8660 |
|      78 | 0x21D5      |        8661 |
|      79 | 0x21D6      |        8662 |
|      80 | 0x21D7      |        8663 |
|      81 | 0x21D8      |        8664 |
|      82 | 0x21D9      |        8665 |
|      83 | 0x0168      |         360 |
|      84 | 0x21DA      |        8666 |
|      85 | 0x0078      |         120 |
|      86 | 0x21DB      |        8667 |
|      87 | 0x21DC      |        8668 |
|      88 | 0x21DD      |        8669 |
|      89 | 0x21DE      |        8670 |
|      90 | 0x21DF      |        8671 |
|      91 | 0x21E0      |        8672 |
|      92 | 0x21E1      |        8673 |
|      93 | 0x21E2      |        8674 |
|      94 | 0x21E3      |        8675 |
|      95 | 0x21E4      |        8676 |
|      96 | 0x21E5      |        8677 |
|      97 | 0x21E6      |        8678 |
|      98 | 0x21E7      |        8679 |
|      99 | 0x21E9      |        8681 |
|     100 | 0x21E8      |        8680 |
|     101 | 0x0005      |           5 |
|     102 | 0x21EA      |        8682 |
|     103 | 0x21EB      |        8683 |
|     104 | 0x21EC      |        8684 |
|     105 | 0x0400      |        1024 |
|     106 | 0x21ED      |        8685 |
|     107 | 0x21EE      |        8686 |
|     108 | 0x21EF      |        8687 |
|     109 | 0x21F0      |        8688 |
|     110 | 0x21F1      |        8689 |
|     111 | 0x21F2      |        8690 |
|     112 | 0x0766      |        1894 |
|     113 | 0x21F3      |        8691 |
|     114 | 0x21F4      |        8692 |
|     115 | 0x21F5      |        8693 |
|     116 | 0x00F2      |         242 |
|     117 | 0x01AA      |         426 |
|     118 | 0x00A2      |         162 |
|     119 | 0x228D      |        8845 |
|     120 | 0x228E      |        8846 |
|     121 | 0x229B      |        8859 |
|     122 | 0x225D      |        8797 |
|     123 | 0x22A3      |        8867 |
|     124 | 0x22A4      |        8868 |
|     125 | 0x22A5      |        8869 |
|     126 | 0x22A6      |        8870 |
|     127 | 0x22A7      |        8871 |
|     128 | 0x22A8      |        8872 |
|     129 | 0x228F      |        8847 |
|     130 | 0x22B1      |        8881 |
|     131 | 0x22B2      |        8882 |
|     132 | 0x22B7      |        8887 |
|     133 | 0x22B8      |        8888 |
|     134 | 0x0002      |           2 |
|     135 | 0x0004      |           4 |
|     136 | 0x0006      |           6 |
|     137 | 0x0009      |           9 |
|     138 | 0x0240      |         576 |
|     139 | 0x22C1      |        8897 |
|     140 | 0x22C2      |        8898 |
|     141 | 0x22C3      |        8899 |
|     142 | 0x22D0      |        8912 |
|     143 | 0x22D1      |        8913 |
|     144 | 0x22E4      |        8932 |
|     145 | 0x22E5      |        8933 |
|     146 | 0x22D8      |        8920 |
|     147 | 0x22D9      |        8921 |
|     148 | 0x22DA      |        8922 |
|     149 | 0x22DB      |        8923 |
|     150 | 0x2261      |        8801 |
|     151 | 0x2263      |        8803 |
|     152 | 0x2266      |        8806 |
|     153 | 0x226B      |        8811 |
|     154 | 0x2271      |        8817 |
|     155 | 0x01F4      |         500 |
|     156 | 0x22E9      |        8937 |
|     157 | 0x22EA      |        8938 |
|     158 | 0x22EB      |        8939 |
|     159 | 0x22EF      |        8943 |
|     160 | 0x22F1      |        8945 |
|     161 | 0x22F4      |        8948 |
|     162 | 0x22F7      |        8951 |
|     163 | 0x22F9      |        8953 |
|     164 | 0x22FB      |        8955 |
|     165 | 0x22CD      |        8909 |
|     166 | 0x2320      |        8992 |
|     167 | 0x000C      |          12 |
|     168 | 0x2321      |        8993 |
|     169 | 0x21F6      |        8694 |
|     170 | 0x21F7      |        8695 |
|     171 | 0x21F8      |        8696 |
|     172 | 0x21F9      |        8697 |
|     173 | 0x21FA      |        8698 |
|     174 | 0x21FB      |        8699 |
|     175 | 0x21FC      |        8700 |
|     176 | 0x21FD      |        8701 |
|     177 | 0x21FE      |        8702 |
|     178 | 0x21FF      |        8703 |
|     179 | 0x2200      |        8704 |
|     180 | 0x2201      |        8705 |
|     181 | 0x2202      |        8706 |
|     182 | 0x2203      |        8707 |
|     183 | 0x2204      |        8708 |
|     184 | 0x2205      |        8709 |
|     185 | 0x2206      |        8710 |
|     186 | 0x2207      |        8711 |
|     187 | 0x2208      |        8712 |
|     188 | 0x2209      |        8713 |
|     189 | 0x220A      |        8714 |
|     190 | 0x220B      |        8715 |
|     191 | 0x220C      |        8716 |
|     192 | 0x220D      |        8717 |
|     193 | 0x220E      |        8718 |
|     194 | 0x220F      |        8719 |
|     195 | 0x2210      |        8720 |
|     196 | 0x2211      |        8721 |
|     197 | 0x2212      |        8722 |
|     198 | 0x2213      |        8723 |
|     199 | 0x0007      |           7 |
|     200 | 0x2214      |        8724 |
|     201 | 0x2215      |        8725 |
|     202 | 0x2216      |        8726 |
|     203 | 0x2217      |        8727 |
|     204 | 0x2218      |        8728 |
|     205 | 0x2219      |        8729 |
|     206 | 0x221A      |        8730 |
|     207 | 0x221F      |        8735 |
|     208 | 0x2220      |        8736 |
|     209 | 0x2221      |        8737 |
|     210 | 0x0A20      |        2592 |
|     211 | 0x2222      |        8738 |
|     212 | 0x2223      |        8739 |
|     213 | 0x2224      |        8740 |
|     214 | 0x2225      |        8741 |
|     215 | 0x0008      |           8 |
|     216 | 0x2226      |        8742 |
|     217 | 0x2227      |        8743 |
|     218 | 0x07D0      |        2000 |
|     219 | 0x221B      |        8731 |
|     220 | 0x221C      |        8732 |
|     221 | 0x221D      |        8733 |
|     222 | 0x221E      |        8734 |
|     223 | 0x2228      |        8744 |
|     224 | 0x2229      |        8745 |
|     225 | 0x222A      |        8746 |
|     226 | 0x222B      |        8747 |
|     227 | 0x222C      |        8748 |
|     228 | 0x222D      |        8749 |
|     229 | 0x222E      |        8750 |
|     230 | 0x222F      |        8751 |
|     231 | 0x2230      |        8752 |
|     232 | 0x2231      |        8753 |
|     233 | 0x2232      |        8754 |
|     234 | 0x02AA      |         682 |
|     235 | 0x2233      |        8755 |
|     236 | 0x02AB      |         683 |
|     237 | 0x2234      |        8756 |
|     238 | 0x02AC      |         684 |
|     239 | 0x2235      |        8757 |
|     240 | 0x02AD      |         685 |
|     241 | 0x2236      |        8758 |
|     242 | 0x02AE      |         686 |
|     243 | 0x2237      |        8759 |
|     244 | 0x02AF      |         687 |
|     245 | 0x2238      |        8760 |
|     246 | 0x02B0      |         688 |
|     247 | 0x2239      |        8761 |
|     248 | 0x02B1      |         689 |
|     249 | 0x223A      |        8762 |
|     250 | 0x02B2      |         690 |
|     251 | 0x223B      |        8763 |
|     252 | 0x02B3      |         691 |
|     253 | 0x223C      |        8764 |
|     254 | 0x02B4      |         692 |
|     255 | 0x223D      |        8765 |
|     256 | 0x000B      |          11 |
|     257 | 0x02B5      |         693 |
|     258 | 0x223E      |        8766 |
|     259 | 0x02B6      |         694 |
|     260 | 0x223F      |        8767 |
|     261 | 0x000D      |          13 |
|     262 | 0x02B7      |         695 |
|     263 | 0x2240      |        8768 |
|     264 | 0x000E      |          14 |
|     265 | 0x02B8      |         696 |
|     266 | 0x2241      |        8769 |
|     267 | 0x02B9      |         697 |
|     268 | 0x2242      |        8770 |
|     269 | 0x0010      |          16 |
|     270 | 0x02BA      |         698 |
|     271 | 0x2243      |        8771 |
|     272 | 0x0011      |          17 |
|     273 | 0x02BB      |         699 |
|     274 | 0x2244      |        8772 |
|     275 | 0x0012      |          18 |
|     276 | 0x02BC      |         700 |
|     277 | 0x2245      |        8773 |
|     278 | 0x0309      |         777 |
|     279 | 0x2246      |        8774 |
|     280 | 0x030A      |         778 |
|     281 | 0x2247      |        8775 |
|     282 | 0x0015      |          21 |
|     283 | 0x030B      |         779 |
|     284 | 0x2248      |        8776 |
|     285 | 0x0016      |          22 |
|     286 | 0x0393      |         915 |
|     287 | 0x2249      |        8777 |
|     288 | 0x0017      |          23 |
|     289 | 0x0394      |         916 |
|     290 | 0x224A      |        8778 |
|     291 | 0x0018      |          24 |
|     292 | 0x0737      |        1847 |
|     293 | 0x224B      |        8779 |
|     294 | 0x0019      |          25 |
|     295 | 0x0738      |        1848 |
|     296 | 0x224C      |        8780 |
|     297 | 0x1B00      |        6912 |
|     298 | 0x3600      |       13824 |
|     299 | 0x5100      |       20736 |
|     300 | 0x06C0      |        1728 |
|     301 | 0x0C60      |        3168 |
|     302 | 0x0D80      |        3456 |
|     303 | 0x2880      |       10368 |
|     304 | 0x65400     |      414720 |
|     305 | 0x0028      |          40 |
|     306 | 0x03E8      |        1000 |
|     307 | 0x05DC      |        1500 |
|     308 | 0x0BB8      |        3000 |
|     309 | 0x19500     |      103680 |
|     310 | 0x7FFF      |       32767 |
|     311 | 0x116700    |     1140480 |
|     312 | 0x2256      |        8790 |
|     313 | 0x2255      |        8789 |
|     314 | 0x2254      |        8788 |
|     315 | 0x2257      |        8791 |
|     316 | 0x2258      |        8792 |
|     317 | 0x2259      |        8793 |
|     318 | 0x225A      |        8794 |
|     319 | 0x225B      |        8795 |
|     320 | 0x225C      |        8796 |
|     321 | 0x224F      |        8783 |
|     322 | 0x2250      |        8784 |
|     323 | 0x2251      |        8785 |
|     324 | 0x2252      |        8786 |
|     325 | 0x2253      |        8787 |
|     326 | 0x2318      |        8984 |
|     327 | 0x2319      |        8985 |
|     328 | 0x231A      |        8986 |
|     329 | 0x230F      |        8975 |
|     330 | 0x2310      |        8976 |
|     331 | 0x2311      |        8977 |
|     332 | 0x2304      |        8964 |
|     333 | 0x22FE      |        8958 |
|     334 | 0x2301      |        8961 |
|     335 | 0x2308      |        8968 |
|     336 | 0x2309      |        8969 |

## String References

- **8694**: What do you wish to know about? [Basic rules./About the Petra./About Sprint./About Scout./About Gate Breach./About area-specific rules./About returning to battle./About special rules./Nothing at the moment.]
- **8695**: Ballista is an exercise once used by the San d'Orian armies to train the Royal Knights in the art of the siege. The word "ballista" means "to throw a stone," and the game has been a part of Vana'dielian military history for centuries.
- **8696**: The rules are simple. Ballista is played by two teams over a number of hours (Vana'diel time). The team with the most points at the end of the match is the victor.
- **8697**: Players from both teams must search for Petras that a Herald has buried in various locations across the battlefield. The players must then take these stones and throw them into targets known as Rooks.
- **8698**: These Rooks can appear in various locations around the battlefield, and both teams are allowed to throw their Petras into them.
- **8699**: Finally, a player's strength is adjusted depending on his or her level. It is felt that this ultimately allows for a more balanced battle.
- **8700**: Petras can be buried anywhere. Once a player believes he or she has found one, the Quarry (/quarry) command should be used to dig up the area at his or her feet.
- **8701**: Sometimes a player may find items other than Petras, such as potions. These temporary items can only be used during the current match (or Best of Three series).
- **8702**: Players can carry more than one Petra, but they cannot throw the stones away once they have obtained them. However, players will lose their Petras if they: (1) Successfully throw them into a rook. (2) Leave the area. (3) Are knocked out.
- **8703**: But don't forget, a player will be unable to use the Sprint command while in possession of a Petra. And, players can only use the Scout command if they carry one of the stones.
- **8704**: As one can see, careful planning and impeccable timing are the keys to victory.
- **8705**: All participants of Ballista will have the ability to use the Sprint command. This will temporarily increase one's movement speed, creating a better chance to find and obtain Petras.
- **8706**: However, remember that once a player has obtained a Petra, he or she will be unable to use the Sprint command. In its place, though, one may use the Scout command.
- **8707**: The locations of the Rooks are constantly changing. This makes it quite difficult to find the targets by just randomly walking about the area.
- **8708**: Communication with one's team members is, of course, one way to locate Rooks. However, another way is by using the Scout command. This will inform a player of the approximate location of the nearest Rook.
- **8709**: Finally, Scout can only be used when a player is carrying a Petra. Because Sprint cannot be used at this time, players must be weary of approaching enemies.
- **8710**: So, a Petra has been obtained and a Rook located. Now all that's left is tossing the stone in, right? Wrong.
- **8711**: There is one aspect of Ballista that has yet to be mentioned...and this is where the real battle begins.
- **8712**: To throw a Petra into a Rook, a player must first wait until the Rook's gate is open. This takes impeccable timing, as the gate is only open for a short while.
- **8713**: But not just anyone can score points this way. A player must first take down a member of the opposing team and achieve Gate Breach status. Only then will his or her shots count.
- **8714**: This extreme method of combat is what made the ancient game of Ballista famous, and transformed its participants into heroes.
- **8715**: Running about looking for stones is no different from a child's game of hide-and-seek. Knowing when to strike is what separates the men from the boys.
- **8716**: The following match types are area-specific: All or Nothing (one match) * Normal Items Allowed: Jugner Forest All or Nothing (one match) * Normal Items Restricted: Pashhow Marshlands Best of Three (three matches) * Normal Items Allowed: Meriphataud Mountains
- **8717**: Best of Three series rules are as follows: Winning a match will earn a nation one "match point." The nation with the most match points at the end of the series will be declared the victor. Winning the third and final match and producing the high scorer will result in two match points awarded. This allows both sides the chance for "come-from-behind" victories.
- **8718**: Between each of the matches, a short interval will be implemented. During this interval, Invisible and Sneak will be cast on all participants. We suggest this time be used to discuss strategies with the other members of your nation's forces.
- **8719**: Players will be forbidden from using any items they bring to the battlefield. Only temporary items that are quarried may be used. A total of fifteen temporary items (though only one of each type) can be carried.
- **8720**: When this rule is in effect, all players will be presented with five complimentary temporary items at the beginning of the match.
- **8721**: For more information on temporary items, refer to the "special rules."
- **8722**: After being KO'd, if a player chooses to be revived at the spot he was defeated, 100% of all HP and 50% of all MP will be restored. In addition, the player will maintain 50% of the TP he had earned.
- **8723**: If a player chooses to return to their force's camp, HP and MP will be fully restored, but all TP will be lost.
- **8724**: Please note that many of the rules previously considered "special" have been fully implemented. Also, several new special rules have been added.
- **8725**: Learn about which special rules? [Temporary items./Ballista Points./Scoring restrictions./Gate Breach radius expansion./Resistance to Sleep./Open entries./Minimum level restrictions./Re-entry restrictions./Participant & Rook numbers./Experience Points./Return.]
- **8726**: Previously, participants in Ballista were required to use an item the moment they dug it up using the /quarry command. However, players can now stock these items as temporary items for use at any time during the match.
- **8727**: Players can hold up to ten temporary items, but only one of each type. If a player finds an item that they already possess, they must use it immediately or throw it away.
- **8728**: If players who possess ten temporary items find an item that they have not already obtained, they will also have the option to exchange it with one of their current items.
- **8729**: Also, players will not, at any time, be allowed to trade temporary items. However, there are items that can be used on other Ballista participants. Please note that players may not be able to use these special items as soon as they are quarried.
- **8730**: Finally, the Heralds will collect temporary items when the match (the third in a Best of Three series) has concluded.
- **8731**: Ballista Points are rewarded to each competitor based on his or her performance in a single Ballista match. The maximum number of points that can be accumulated per match is $0.
- **8732**: While it is taken into consideration, scoring Petras is not the only way to earn Ballista Points. Assisting allies and defeating members of the enemy forces can also earn a high score.
- **8733**: Ballista Points can be traded for special "vouchers," which may be exchanged for free temporary items at the start of new matches.
- **8734**: However, remember that depending on the level restriction of the match, certain vouchers will not be redeemed at the beginning of a match. Speak with a Marshal directly after a match to register your points.
- **8735**: Players will only be allowed to score up to five Petras at a time. Also, a player's Gate Breach status will be automatically disengaged if a Petra is not scored within a certain amount of time. The amount of time is increased for those members of the team currently behind in points.
- **8736**: All allies within a certain radius will achieve Gate Breach status when a member of the enemy forces is defeated.
- **8737**: Players' resistance to sleep will be increased.
- **8738**: During the entry period, from $0:, all adventurers will be allowed to join the forces with the smallest number of participants, regardless of allegiance. Open entries will be accepted until both sides have reached maximum capacity.
- **8739**: In order to ensure balanced matches, the following level limits are enforced: Level 30 matches: 1\`30
- **8740**: Level 40 matches: 31\`40 Level 50 matches: 41\`50 Level 60 matches: 51\`60 Unrestricted matches: 61\`
- **8741**: Please note that any participant who cancels his or her registration will not be allowed to re-apply for the same match.
- **8742**: When the total number of participants in a match is less than 40, the location of the two camps will be adjusted. Also in this case, the number of Rooks will be reduced to two.
- **8743**: Any adventurer whose main level is over 30 will receive EXP for participating in a Ballista match. However, no EXP will be rewarded if the adventurer fails to actively take part in the match.
- **8744**: Read which chapter on B.P. Ranking? [Basic Information./Registering Points./Rewards./Chevron & Title List./None.]
- **8745**: Ballista Point Ranking is based upon all Ballista Points registered from the past ten matches in each of the three participating battle areas.
- **8746**: Anyone who wishes to take part in the ranking needs to register [his/her] points within four hours (Vana'diel time) from the end of the previous match.
- **8747**: After the registration period ends, players can compare their record with those of the previous nine matches.
- **8748**: If, at any time, a player ranks in the top ten (overall) or first for a specific job, [he/she] will have the opportunity to receive a special chevron as well as a new title.
- **8749**: There are four types of chevrons and titles awarded to top-ten players (gold/mythril/silver/bronze), as well as twenty-two different types awarded for outstanding performances by players of each of the twenty-two jobs.
- **8750**: Wearing a chevron during a Ballista match will automatically change a player's current title. If a player wishes to possess this title after a match as well, [he/she] must contact a certain bard in San d'Oria.
- **8751**: Also, while wearing a chevron, players will be able to trade Ballista Points for temporary items not available to all players.
- **8752**: However, the rules of Ballista state that players may only possess a certain chevron for no longer than one half Vana'diel year. When that time comes, they are required to return the chevron before being allowed to participate in any further matches.
- **8753**: Finally, checking someone during a Ballista match will display the total number of chevrons that person has accumulated to date.
- **8754**: View which chevron/title? [1st (overall)./2nd (overall)./3rd (overall)./4th-10th (overall)./1st (warrior)./1st (monk)./1st (white mage)./1st (black mage)./1st (red mage)./1st (thief)./1st (paladin)./1st (dark knight)./1st (beastmaster)./1st (bard)./1st (ranger)./1st (samurai)./1st (ninja)./1st (dragoon)./1st (summoner)./1st (blue mage)./1st (corsair)./1st (puppetmaster)./1st (dancer)./1st (scholar)./1st (geomancer)./1st (rune fencer)./Return.]
- **8755**: Key Item: $3 Title: Gold Balli$25$25$25$25star
- **8756**: Key Item: $3 Title: Mythril Balli$25$25$25star
- **8757**: Key Item: $3 Title: Silver Balli$25$25star
- **8758**: Key Item: $3 Title: Bronze Balli$25star
- **8759**: Key Item: $3 Title: Searing$26Star
- **8760**: Key Item: $3 Title: Striking$26Star
- **8761**: Key Item: $3 Title: Soothing$26Star
- **8762**: Key Item: $3 Title: Sable$26Star
- **8763**: Key Item: $3 Title: Scarlet$26Star
- **8764**: Key Item: $3 Title: Sonic$26Star
- **8765**: Key Item: $3 Title: Saintly$26Star
- **8766**: Key Item: $3 Title: Shadowy$26Star
- **8767**: Key Item: $3 Title: Savage$26Star
- **8768**: Key Item: $3 Title: Singing$26Star
- **8769**: Key Item: $3 Title: Sniping$26Star
- **8770**: Key Item: $3 Title: Slicing$26Star
- **8771**: Key Item: $3 Title: Sneaking$26Star
- **8772**: Key Item: $3 Title: Spearing$26Star
- **8773**: Key Item: $3 Title: Summoning$26Star
- **8774**: Key Item: $3 Title: Sapphire$26Star
- **8775**: Key Item: $3 Title: Surging$26Star
- **8776**: Key Item: $3 Title: Swaying$26Star
- **8777**: Key Item: $3 Title: Sprightly$26Star
- **8778**: Key Item: $3 Title: Sagacious$26Star
- **8779**: Key Item: $3 Title: Spiritual$26Star
- **8780**: Key Item: $3 Title: Stippling$26Star
- **8783**: Matches are only played on even days (Vana'diel time).
- **8784**: Areas where Ballista matches will be held are:", 8, 14, 20, 26 -> Jugner 4, 10, 16, 22, 28 -> Pashhow 6, 12, 18, 24, 30 -> Meriphataud
- **8785**: Level restrictions are:", 4, 6 -> Lv. 30 8, 10, 12 -> Lv. 40 14, 16, 18 -> Lv. 50"0, 22, 24 -> Lv. 60"6, 28, 30 -> None
- **8786**: And finally, participation fees are: Lv. 30 matches: $0 gil Lv. 40 matches: $1 gil Lv. 50 matches: $2 gil Lv. 60 matches: $3 gil Unrestricted matches: $4 gil
- **8787**: Participating nations are selected in the following manner...
- **8788**: Matches for the 1st\`4th month are: Jugner: Bastok vs San d'Oria Pashhow: Bastok vs Windurst Meriphataud: San d'Oria vs Windurst
- **8789**: Matches for the 5th\`8th month are: Jugner: Bastok vs Windurst Pashhow: San d'Oria vs Windurst Meriphataud: Bastok vs San d'Oria
- **8790**: Matches for the 9th\`12th month are: Jugner: San d'Oria vs Windurst Pashhow: San d'Oria vs Bastok Meriphataud: Bastok vs Windurst
- **8791**: Learn about which match: [View previous month./$3/$4/2 Lv.30 Jugner/$3/$4/4 Lv.30 Pashhow/$3/$4/6 Lv.30 Meriphataud/$3/$4/8 Lv.40 Jugner/$3/$4/10 Lv.40 Pashhow/$3/$4/12 Lv.40 Meriphataud/$3/$4/14 Lv.50 Jugner/$3/$4/16 Lv.50 Pashhow/$3/$4/18 Lv.50 Meriphataud/$3/$4/20 Lv.60 Jugner/$3/$4/22 Lv.60 Pashhow/$3/$4/24 Lv.60 Meriphataud/$3/$4/26 Lv.$7 Jugner/$3/$4/28 Lv.$7 Pashhow/$3/$4/30 Lv.$7 Meriphataud/View next month./Quit.]
- **8792**: Learn about which match: [View previous month./$4/2/$3 Lv.30 Jugner/$4/4/$3 Lv.30 Pashhow/$4/6/$3 Lv.30 Meriphataud/$4/8/$3 Lv.40 Jugner/$4/10/$3 Lv.40 Pashhow/$4/12/$3 Lv.40 Meriphataud/$4/14/$3 Lv.50 Jugner/$4/16/$3 Lv.50 Pashhow/$4/18/$3 Lv.50 Meriphataud/$4/20/$3 Lv.60 Jugner/$4/22/$3 Lv.60 Pashhow/$4/24/$3 Lv.60 Meriphataud/$4/26/$3 Lv.$7 Jugner/$4/28/$3 Lv.$7 Pashhow/$4/30/$3 Lv.$7 Meriphataud/View next month./Quit.]
- **8793**: Learn about which match: [View previous month."/$4/$3 Lv.30 Jugner/4/$4/$3 Lv.30 Pashhow/6/$4/$3 Lv.30 Meriphataud/8/$4/$3 Lv.40 Jugner/10/$4/$3 Lv.40 Pashhow/12/$4/$3 Lv.40 Meriphataud/14/$4/$3 Lv.50 Jugner/16/$4/$3 Lv.50 Pashhow/18/$4/$3 Lv.50 Meriphataud"0/$4/$3 Lv.60 Jugner"2/$4/$3 Lv.60 Pashhow"4/$4/$3 Lv.60 Meriphataud"6/$4/$3 Lv.$7 Jugner"8/$4/$3 Lv.$7 Pashhow"0/$4/$3 Lv.$7 Meriphataud/View next month./Quit.]
- **8794**: Place: [Jugner Forest/Pashhow Marshlands/Meriphataud Mountains] Nations: [San d'Oria/Bastok/Windurst] vs [San d'Oria/Bastok/Windurst] Level Restriction: [None/ / /30/40/50/60/] Participation Fee: $4 gil Match Format: [All or Nothing/Best of Three] * [Normal Items Restricted/Normal Items Allowed]
- **8795**: Entry period begins: Vana'diel: Earth:
- **8796**: Match begins: Vana'diel: Earth:
- **8797**: Register for Conflict? [Sign me up!/I need more time to think.]
- **8803**: What shall you ask? [About the coming Ballista matches./About the Ballista schedule./About Ballista Earrings./About the rules of Ballista./Nothing at the moment.]
- **8943**: Ask for an earring? [Yes./No.]
- **8953**: Return the earring? [Yes./Not yet.]

## Events

### Event 65535

#### Metadata

| Field        | Value   |
|--------------|---------|
| Entrypoint   | 0x0000  |
| Data Size    | 1 bytes |
| Instructions | 1       |

```
      00 01 02 03 04 05 06 07  08 09 0A 0B 0C 0D 0E 0F
      -- -- -- -- -- -- -- --  -- -- -- -- -- -- -- --
0000: 00                                                .               
```

#### Opcodes

```
  0: 0x0000 [0x00] END_REQSTACK()
```

### Event 410

#### Metadata

| Field        | Value    |
|--------------|----------|
| Entrypoint   | 0x0001   |
| Data Size    | 33 bytes |
| Instructions | 11       |

```
      00 01 02 03 04 05 06 07  08 09 0A 0B 0C 0D 0E 0F
      -- -- -- -- -- -- -- --  -- -- -- -- -- -- -- --
0000:    1E F0 FF FF 7F 6F 70  2B 68 20 0F 01 00 80 23   .....op+h ....#
0010: 2B 68 20 0F 01 01 80 23  2B 68 20 0F 01 02 80 23  +h ....#+h ....#
0020: 21 00                                             !.              
```

#### Opcodes

```
  0: 0x0001 [0x1E] EventEntity looks at LocalPlayer and starts talking
  1: 0x0006 [0x6F] WAIT_FRAME_DELAY: Yield until WaitTime reaches zero
  2: 0x0007 [0x70] WAIT_ENTITY_RENDER_FLAG: Wait while EventEntity->Render.Flags3 bit 2 is set (cancel turn if not)
  3: 0x0008 [0x2B] Mhabi Molkot (ID: 17768552/0x010F2068) [8823*]:
    → "Wait a minute, don't tell me... You'rrre one of the Federation's adventurers, right? And you want to sign up for Conflict?"
  4: 0x000F [0x23] WAIT_FOR_DIALOG_INTERACTION
  5: 0x0010 [0x2B] Mhabi Molkot (ID: 17768552/0x010F2068) [8824*]:
    → "Hmmm... I don't know... Your rank is awfully low. How am I supposed to trrrust someone who hasn't prrroved themselves to the nation?"
  6: 0x0017 [0x23] WAIT_FOR_DIALOG_INTERACTION
  7: 0x0018 [0x2B] Mhabi Molkot (ID: 17768552/0x010F2068) [8825*]:
    → "Get out there and do some missions, and I'll guarantee you a spot on our team. You look like you've got what it takes!"
  8: 0x001F [0x23] WAIT_FOR_DIALOG_INTERACTION
  9: 0x0020 [0x21] END_EVENT
 10: 0x0021 [0x00] END_REQSTACK()
```

### Event 413

#### Metadata

| Field        | Value      |
|--------------|------------|
| Entrypoint   | 0x0022     |
| Data Size    | 3348 bytes |
| Instructions | 516        |

```
      00 01 02 03 04 05 06 07  08 09 0A 0B 0C 0D 0E 0F
      -- -- -- -- -- -- -- --  -- -- -- -- -- -- -- --
0020:       20 01 42 02 03 10  03 80 00 64 00 1E F0 FF     .B......d....
0030: FF 7F 6F 70 2B 68 20 0F  01 04 80 23 2B 68 20 0F  ..op+h ....#+h .
0040: 01 05 80 23 2B 68 20 0F  01 06 80 23 2B 68 20 0F  ...#+h ....#+h .
0050: 01 07 80 23 2B 68 20 0F  01 08 80 23 2B 68 20 0F  ...#+h ....#+h .
0060: 01 09 80 23 45 0A 80 F0  FF FF 7F F0 FF FF 7F 66  ...#E..........f
0070: 64 6F 31 03 80 55 0A 80  F0 FF FF 7F F0 FF FF 7F  do1..U..........
0080: 66 64 6F 31 38 0B 80 27  03 F0 FF FF 7F 5E 3B F8  fdo18..'.....^;.
0090: FF FF 7F 00 00 01 00 02  00 3A F8 FF FF 7F 03 00  .........:......
00A0: 46 01 5C 00 0C 80 5C 01  0C 80 38 0D 80 34 0E 80  F.\...\...8..4..
00B0: 1C 0F 80 77 03 80 03 80  03 04 00 02 10 75 00 10  ...w.........u..
00C0: 80 75 01 94 01 F0 FF FF  7F 94 01 F8 FF FF 7F 4E  .u.............N
00D0: 01 F0 FF FF 7F 4E 01 F8  FF FF 7F 4E 00 69 20 0F  .....N.....N.i .
00E0: 01 4E 00 6C 20 0F 01 4E  00 55 20 0F 01 4E 00 6D  .N.l ..N.U ..N.m
00F0: 20 0F 01 02 04 00 03 80  00 04 01 4E 00 17 20 0F   ..........N.. .
0100: 01 01 0B 01 27 03 55 20  0F 01 02 4E 00 6E 20 0F  ....'.U ...N.n .
0110: 01 4E 00 6F 20 0F 01 79  00 6C 20 0F 01 69 20 0F  .N.o ..y.l ..i .
0120: 01 79 00 55 20 0F 01 69  20 0F 01 79 00 17 20 0F  .y.U ..i ..y.. .
0130: 01 69 20 0F 01 79 00 6E  20 0F 01 69 20 0F 01 79  .i ..y.n ..i ..y
0140: 00 6F 20 0F 01 69 20 0F  01 80 69 20 0F 01 80 6C  .o ..i ...i ...l
0150: 20 0F 01 80 6E 20 0F 01  4E 00 6A 20 0F 01 4E 00   ...n ..N.j ..N.
0160: 6B 20 0F 01 45 11 80 F0  FF FF 7F F0 FF FF 7F 7A  k ..E..........z
0170: 30 30 30 03 80 97 03 80  12 80 45 0A 80 F0 FF FF  000.......E.....
0180: 7F F0 FF FF 7F 66 64 69  31 03 80 55 0A 80 F0 FF  .....fdi1..U....
0190: FF 7F F0 FF FF 7F 66 64  69 31 55 11 80 F0 FF FF  ......fdi1U.....
01A0: 7F F0 FF FF 7F 7A 30 30  30 2B 69 20 0F 01 13 80  .....z000+i ....
01B0: 79 00 69 20 0F 01 6C 20  0F 01 1C 14 80 79 00 69  y.i ..l .....y.i
01C0: 20 0F 01 6E 20 0F 01 1C  14 80 7B 69 20 0F 01 23   ..n .....{i ..#
01D0: 45 11 80 F0 FF FF 7F F0  FF FF 7F 7A 30 30 31 03  E..........z001.
01E0: 80 55 11 80 F0 FF FF 7F  F0 FF FF 7F 7A 30 30 31  .U..........z001
01F0: 1C 15 80 2B 69 20 0F 01  16 80 23 1C 17 80 2B 6C  ...+i ....#...+l
0200: 20 0F 01 18 80 23 1C 19  80 4A 69 20 0F 01 6C 20   ....#...Ji ..l 
0210: 0F 01 1C 17 80 45 11 80  F0 FF FF 7F F0 FF FF 7F  .....E..........
0220: 7A 30 30 32 03 80 6F 76  69 20 0F 01 4A 6E 20 0F  z002..ovi ..Jn .
0230: 01 6C 20 0F 01 4A 17 20  0F 01 6C 20 0F 01 4A 55  .l ..J. ..l ..JU
0240: 20 0F 01 6C 20 0F 01 1C  19 80 2B 69 20 0F 01 1A   ..l .....+i ...
0250: 80 23 55 11 80 F0 FF FF  7F F0 FF FF 7F 7A 30 30  .#U..........z00
0260: 32 2B 6C 20 0F 01 1B 80  23 2B 6C 20 0F 01 1C 80  2+l ....#+l ....
0270: 23 81 00 6C 20 0F 01 45  11 80 F0 FF FF 7F F0 FF  #..l ..E........
0280: FF 7F 7A 30 30 33 03 80  2B 6C 20 0F 01 1D 80 23  ..z003..+l ....#
0290: 2B 6C 20 0F 01 1E 80 23  81 01 6C 20 0F 01 7B 6C  +l ....#..l ..{l
02A0: 20 0F 01 55 11 80 F0 FF  FF 7F F0 FF FF 7F 7A 30   ..U..........z0
02B0: 30 33 4B 6C 20 0F 01 03  80 1C 19 80 45 11 80 F0  03Kl .......E...
02C0: FF FF 7F F0 FF FF 7F 7A  30 30 34 03 80 55 11 80  .......z004..U..
02D0: F0 FF FF 7F F0 FF FF 7F  7A 30 30 34 6F 76 6C 20  ........z004ovl 
02E0: 0F 01 27 03 6C 20 0F 01  08 2B 6C 20 0F 01 1F 80  ..'.l ...+l ....
02F0: 23 27 03 6E 20 0F 01 03  2B 6E 20 0F 01 20 80 23  #'.n ...+n .. .#
0300: 27 03 6E 20 0F 01 04 02  04 00 03 80 00 1A 03 2B  '.n ...........+
0310: 17 20 0F 01 21 80 23 01  22 03 2B 55 20 0F 01 22  . ..!.#.".+U .."
0320: 80 23 27 03 6C 20 0F 01  09 2B 6C 20 0F 01 23 80  .#'.l ...+l ..#.
0330: 23 02 04 00 03 80 00 9D  03 4A 6E 20 0F 01 17 20  #........Jn ... 
0340: 0F 01 1C 17 80 45 11 80  F0 FF FF 7F F0 FF FF 7F  .....E..........
0350: 7A 30 30 35 03 80 55 11  80 F0 FF FF 7F F0 FF FF  z005..U.........
0360: 7F 7A 30 30 35 6F 76 6E  20 0F 01 27 03 6E 20 0F  .z005ovn ..'.n .
0370: 01 07 2B 6E 20 0F 01 24  80 1C 17 80 4A 17 20 0F  ..+n ..$....J. .
0380: 01 6E 20 0F 01 1C 17 80  4A 55 20 0F 01 6E 20 0F  .n .....JU ..n .
0390: 01 23 2B 6E 20 0F 01 25  80 23 01 EA 03 4A 6E 20  .#+n ..%.#...Jn 
03A0: 0F 01 55 20 0F 01 1C 17  80 45 11 80 F0 FF FF 7F  ..U .....E......
03B0: F0 FF FF 7F 7A 30 30 35  03 80 55 11 80 F0 FF FF  ....z005..U.....
03C0: 7F F0 FF FF 7F 7A 30 30  35 6F 76 6E 20 0F 01 27  .....z005ovn ..'
03D0: 03 6E 20 0F 01 07 2B 6E  20 0F 01 26 80 1C 17 80  .n ...+n ..&....
03E0: 4A 55 20 0F 01 6E 20 0F  01 23 2B 6E 20 0F 01 27  JU ..n ..#+n ..'
03F0: 80 23 45 11 80 F0 FF FF  7F F0 FF FF 7F 7A 30 30  .#E..........z00
0400: 36 03 80 55 11 80 F0 FF  FF 7F F0 FF FF 7F 7A 30  6..U..........z0
0410: 30 36 02 04 00 03 80 00  4F 04 6F 76 17 20 0F 01  06......O.ov. ..
0420: 27 03 17 20 0F 01 06 2B  17 20 0F 01 28 80 23 2B  '.. ...+. ..(.#+
0430: 17 20 0F 01 29 80 23 27  03 17 20 0F 01 07 2B 17  . ..).#'.. ...+.
0440: 20 0F 01 2A 80 23 2A 03  17 20 0F 01 01 75 04 27   ..*.#*.. ...u.'
0450: 03 55 20 0F 01 06 2B 55  20 0F 01 2B 80 23 2B 55  .U ...+U ..+.#+U
0460: 20 0F 01 2C 80 23 2B 55  20 0F 01 2D 80 23 29 03   ..,.#+U ..-.#).
0470: 55 20 0F 01 07 45 11 80  F0 FF FF 7F F0 FF FF 7F  U ...E..........
0480: 7A 30 30 37 03 80 2B 6C  20 0F 01 2E 80 1C 0F 80  z007..+l .......
0490: 29 03 6E 20 0F 01 08 23  55 11 80 F0 FF FF 7F F0  ).n ...#U.......
04A0: FF FF 7F 7A 30 30 37 02  04 00 03 80 00 BA 04 2B  ...z007........+
04B0: 6E 20 0F 01 2F 80 23 01  C2 04 2B 6E 20 0F 01 30  n ../.#...+n ..0
04C0: 80 23 2B 6E 20 0F 01 31  80 23 2B 6E 20 0F 01 32  .#+n ..1.#+n ..2
04D0: 80 23 02 04 00 03 80 00  71 05 2B 17 20 0F 01 33  .#......q.+. ..3
04E0: 80 23 45 11 80 F0 FF FF  7F F0 FF FF 7F 7A 30 30  .#E..........z00
04F0: 38 03 80 27 03 55 20 0F  01 09 2B 55 20 0F 01 34  8..'.U ...+U ..4
0500: 80 23 79 00 6E 20 0F 01  55 20 0F 01 55 11 80 F0  .#y.n ..U ..U...
0510: FF FF 7F F0 FF FF 7F 7A  30 30 38 45 11 80 F0 FF  .......z008E....
0520: FF 7F F0 FF FF 7F 7A 30  30 39 03 80 2B 55 20 0F  ......z009..+U .
0530: 01 35 80 1C 17 80 4A 17  20 0F 01 55 20 0F 01 6F  .5....J. ..U ..o
0540: 76 17 20 0F 01 23 2B 17  20 0F 01 36 80 23 6B 69  v. ..#+. ..6.#ki
0550: 64 6C 30 55 20 0F 01 2B  55 20 0F 01 37 80 23 55  dl0U ..+U ..7.#U
0560: 11 80 F0 FF FF 7F F0 FF  FF 7F 7A 30 30 39 01 CB  ..........z009..
0570: 05 45 11 80 F0 FF FF 7F  F0 FF FF 7F 73 30 30 30  .E..........s000
0580: 03 80 27 03 55 20 0F 01  0B 2B 55 20 0F 01 38 80  ..'.U ...+U ..8.
0590: 23 2B 55 20 0F 01 39 80  23 2B 55 20 0F 01 3A 80  #+U ..9.#+U ..:.
05A0: 23 2A 03 55 20 0F 01 2B  55 20 0F 01 3B 80 1C 3C  #*.U ..+U ..;..<
05B0: 80 27 03 55 20 0F 01 08  1C 3C 80 23 55 11 80 F0  .'.U ....<.#U...
05C0: FF FF 7F F0 FF FF 7F 73  30 30 30 45 11 80 F0 FF  .......s000E....
05D0: FF 7F F0 FF FF 7F 79 30  30 30 03 80 2B 6E 20 0F  ......y000..+n .
05E0: 01 3D 80 23 7B 6E 20 0F  01 2B 6E 20 0F 01 3E 80  .=.#{n ..+n ..>.
05F0: 23 55 11 80 F0 FF FF 7F  F0 FF FF 7F 79 30 30 30  #U..........y000
0600: 45 11 80 F0 FF FF 7F F0  FF FF 7F 79 30 30 31 03  E..........y001.
0610: 80 2B 6C 20 0F 01 3F 80  23 4A 55 20 0F 01 6C 20  .+l ..?.#JU ..l 
0620: 0F 01 02 04 00 03 80 00  35 06 2B 6C 20 0F 01 40  ........5.+l ..@
0630: 80 23 01 3D 06 2B 6C 20  0F 01 41 80 23 55 11 80  .#.=.+l ..A.#U..
0640: F0 FF FF 7F F0 FF FF 7F  79 30 30 31 6F 76 55 20  ........y001ovU 
0650: 0F 01 2B 55 20 0F 01 42  80 23 1C 43 80 4A 6E 20  ..+U ..B.#.C.Jn 
0660: 0F 01 6C 20 0F 01 1C 17  80 4A 55 20 0F 01 6C 20  ..l .....JU ..l 
0670: 0F 01 45 11 80 F0 FF FF  7F F0 FF FF 7F 79 30 30  ..E..........y00
0680: 32 03 80 55 11 80 F0 FF  FF 7F F0 FF FF 7F 79 30  2..U..........y0
0690: 30 32 6F 76 6E 20 0F 01  27 03 6E 20 0F 01 05 2B  02ovn ..'.n ...+
06A0: 6E 20 0F 01 44 80 23 02  04 00 03 80 00 F7 06 45  n ..D.#........E
06B0: 11 80 F0 FF FF 7F F0 FF  FF 7F 79 30 30 33 03 80  ..........y003..
06C0: 1C 45 80 4A 17 20 0F 01  6C 20 0F 01 1C 45 80 27  .E.J. ..l ...E.'
06D0: 03 55 20 0F 01 04 2B 55  20 0F 01 46 80 23 27 03  .U ...+U ..F.#'.
06E0: 55 20 0F 01 05 55 11 80  F0 FF FF 7F F0 FF FF 7F  U ...U..........
06F0: 79 30 30 33 1C 15 80 7B  6C 20 0F 01 1C 3C 80 27  y003...{l ...<.'
0700: 03 6C 20 0F 01 02 1C 15  80 27 03 6E 20 0F 01 06  .l ......'.n ...
0710: 45 11 80 F0 FF FF 7F F0  FF FF 7F 79 30 30 34 03  E..........y004.
0720: 80 55 11 80 F0 FF FF 7F  F0 FF FF 7F 79 30 30 34  .U..........y004
0730: 2A 03 6C 20 0F 01 2B 6C  20 0F 01 47 80 23 4A 69  *.l ..+l ..G.#Ji
0740: 20 0F 01 6C 20 0F 01 2B  69 20 0F 01 48 80 23 2B   ..l ..+i ..H.#+
0750: 6C 20 0F 01 49 80 23 2B  6C 20 0F 01 4A 80 23 4B  l ..I.#+l ..J.#K
0760: 6C 20 0F 01 03 80 1C 15  80 45 11 80 F0 FF FF 7F  l .......E......
0770: F0 FF FF 7F 79 30 30 62  03 80 6F 76 6C 20 0F 01  ....y00b..ovl ..
0780: 1C 43 80 2B 6C 20 0F 01  4B 80 23 55 11 80 F0 FF  .C.+l ..K.#U....
0790: FF 7F F0 FF FF 7F 79 30  30 62 45 11 80 F0 FF FF  ......y00bE.....
07A0: 7F F0 FF FF 7F 79 30 30  36 03 80 55 11 80 F0 FF  .....y006..U....
07B0: FF 7F F0 FF FF 7F 79 30  30 36 2B 69 20 0F 01 4C  ......y006+i ..L
07C0: 80 23 79 00 6C 20 0F 01  69 20 0F 01 1C 17 80 27  .#y.l ..i .....'
07D0: 03 6C 20 0F 01 06 2B 6C  20 0F 01 4D 80 23 2B 6C  .l ...+l ..M.#+l
07E0: 20 0F 01 4E 80 23 45 11  80 F0 FF FF 7F F0 FF FF   ..N.#E.........
07F0: 7F 78 30 30 30 03 80 55  11 80 F0 FF FF 7F F0 FF  .x000..U........
0800: FF 7F 78 30 30 30 2B 69  20 0F 01 4F 80 23 45 11  ..x000+i ..O.#E.
0810: 80 F0 FF FF 7F F0 FF FF  7F 79 30 30 38 03 80 55  .........y008..U
0820: 11 80 F0 FF FF 7F F0 FF  FF 7F 79 30 30 38 27 03  ..........y008'.
0830: 6C 20 0F 01 07 2B 6C 20  0F 01 50 80 23 27 03 55  l ...+l ..P.#'.U
0840: 20 0F 01 0B 02 04 00 03  80 00 6F 08 45 11 80 F0   .........o.E...
0850: FF FF 7F F0 FF FF 7F 79  30 30 37 03 80 55 11 80  .......y007..U..
0860: F0 FF FF 7F F0 FF FF 7F  79 30 30 37 01 8F 08 45  ........y007...E
0870: 11 80 F0 FF FF 7F F0 FF  FF 7F 73 30 30 31 03 80  ..........s001..
0880: 55 11 80 F0 FF FF 7F F0  FF FF 7F 73 30 30 31 2B  U..........s001+
0890: 55 20 0F 01 51 80 23 2A  03 6C 20 0F 01 7B 6C 20  U ..Q.#*.l ..{l 
08A0: 0F 01 45 11 80 F0 FF FF  7F F0 FF FF 7F 79 30 30  ..E..........y00
08B0: 35 03 80 1C 43 80 27 03  6C 20 0F 01 08 2B 6C 20  5...C.'.l ...+l 
08C0: 0F 01 52 80 23 5D 03 80  53 80 55 11 80 F0 FF FF  ..R.#]..S.U.....
08D0: 7F F0 FF FF 7F 79 30 30  35 2B 6C 20 0F 01 54 80  .....y005+l ..T.
08E0: 23 27 03 6C 20 0F 01 09  45 11 80 F0 FF FF 7F F0  #'.l ...E.......
08F0: FF FF 7F 79 30 30 39 03  80 55 11 80 F0 FF FF 7F  ...y009..U......
0900: F0 FF FF 7F 79 30 30 39  5C 00 55 80 5C 01 55 80  ....y009\.U.\.U.
0910: 7C 00 6E 20 0F 01 2B 6E  20 0F 01 56 80 23 7C 01  |.n ..+n ..V.#|.
0920: 6E 20 0F 01 02 04 00 03  80 00 4F 09 45 11 80 F0  n ........O.E...
0930: FF FF 7F F0 FF FF 7F 79  30 30 61 03 80 55 11 80  .......y00a..U..
0940: F0 FF FF 7F F0 FF FF 7F  79 30 30 61 01 6F 09 45  ........y00a.o.E
0950: 11 80 F0 FF FF 7F F0 FF  FF 7F 73 30 30 32 03 80  ..........s002..
0960: 55 11 80 F0 FF FF 7F F0  FF FF 7F 73 30 30 32 7C  U..........s002|
0970: 00 55 20 0F 01 2B 55 20  0F 01 57 80 23 7C 01 55  .U ..+U ..W.#|.U
0980: 20 0F 01 45 11 80 F0 FF  FF 7F F0 FF FF 7F 78 30   ..E..........x0
0990: 30 31 03 80 1C 19 80 27  03 69 20 0F 01 02 2B 69  01.....'.i ...+i
09A0: 20 0F 01 58 80 23 55 11  80 F0 FF FF 7F F0 FF FF   ..X.#U.........
09B0: 7F 78 30 30 31 2B 69 20  0F 01 59 80 23 1C 43 80  .x001+i ..Y.#.C.
09C0: 2B 6C 20 0F 01 5A 80 23  27 03 69 20 0F 01 03 45  +l ..Z.#'.i ...E
09D0: 11 80 F0 FF FF 7F F0 FF  FF 7F 78 30 30 32 03 80  ..........x002..
09E0: 27 03 6E 20 0F 01 07 2B  6E 20 0F 01 5B 80 23 2B  '.n ...+n ..[.#+
09F0: 6E 20 0F 01 5C 80 23 27  03 6E 20 0F 01 08 2B 6E  n ..\.#'.n ...+n
0A00: 20 0F 01 5D 80 23 2B 6E  20 0F 01 5E 80 23 55 11   ..].#+n ..^.#U.
0A10: 80 F0 FF FF 7F F0 FF FF  7F 78 30 30 32 02 04 00  .........x002...
0A20: 03 80 00 A7 0A 45 11 80  F0 FF FF 7F F0 FF FF 7F  .....E..........
0A30: 78 30 30 33 03 80 27 03  55 20 0F 01 06 2B 55 20  x003..'.U ...+U 
0A40: 0F 01 5F 80 23 2B 55 20  0F 01 60 80 23 27 03 55  .._.#+U ..`.#'.U
0A50: 20 0F 01 07 4A 17 20 0F  01 55 20 0F 01 1C 17 80   ...J. ..U .....
0A60: 2B 17 20 0F 01 61 80 23  2A 03 55 20 0F 01 27 03  +. ..a.#*.U ..'.
0A70: 55 20 0F 01 09 2B 55 20  0F 01 62 80 23 2B 55 20  U ...+U ..b.#+U 
0A80: 0F 01 63 80 23 6F 76 17  20 0F 01 27 03 17 20 0F  ..c.#ov. ..'.. .
0A90: 01 08 1C 3C 80 55 11 80  F0 FF FF 7F F0 FF FF 7F  ...<.U..........
0AA0: 78 30 30 33 01 F5 0A 45  11 80 F0 FF FF 7F F0 FF  x003...E........
0AB0: FF 7F 73 30 30 33 03 80  27 03 55 20 0F 01 06 2B  ..s003..'.U ...+
0AC0: 55 20 0F 01 5F 80 23 2B  55 20 0F 01 60 80 23 27  U .._.#+U ..`.#'
0AD0: 03 55 20 0F 01 07 2B 55  20 0F 01 64 80 23 2B 55  .U ...+U ..d.#+U
0AE0: 20 0F 01 63 80 23 55 11  80 F0 FF FF 7F F0 FF FF   ..c.#U.........
0AF0: 7F 73 30 30 33 7B 69 20  0F 01 4A 6E 20 0F 01 69  .s003{i ..Jn ..i
0B00: 20 0F 01 1C 65 80 45 11  80 F0 FF FF 7F F0 FF FF   ...e.E.........
0B10: 7F 78 30 30 34 03 80 55  11 80 F0 FF FF 7F F0 FF  .x004..U........
0B20: FF 7F 78 30 30 34 02 04  00 03 80 00 37 0B 6B 69  ..x004......7.ki
0B30: 64 6C 30 55 20 0F 01 6F  76 6E 20 0F 01 27 03 6E  dl0U ..ovn ..'.n
0B40: 20 0F 01 03 2B 6E 20 0F  01 66 80 23 2B 6E 20 0F   ...+n ..f.#+n .
0B50: 01 67 80 23 27 03 6E 20  0F 01 04 4A 6C 20 0F 01  .g.#'.n ...Jl ..
0B60: 69 20 0F 01 1C 17 80 2B  6C 20 0F 01 68 80 23 4B  i .....+l ..h.#K
0B70: 69 20 0F 01 69 80 1C 17  80 4A 55 20 0F 01 69 20  i ..i....JU ..i 
0B80: 0F 01 1C 17 80 4A 17 20  0F 01 69 20 0F 01 1C 17  .....J. ..i ....
0B90: 80 45 11 80 F0 FF FF 7F  F0 FF FF 7F 78 30 30 35  .E..........x005
0BA0: 03 80 2B 69 20 0F 01 6A  80 23 2B 69 20 0F 01 6B  ..+i ..j.#+i ..k
0BB0: 80 23 2B 69 20 0F 01 6C  80 23 55 11 80 F0 FF FF  .#+i ..l.#U.....
0BC0: 7F F0 FF FF 7F 78 30 30  35 27 03 6E 20 0F 01 05  .....x005'.n ...
0BD0: 2B 6E 20 0F 01 6D 80 23  27 03 6C 20 0F 01 04 2B  +n ..m.#'.l ...+
0BE0: 6C 20 0F 01 6E 80 23 45  11 80 F0 FF FF 7F F0 FF  l ..n.#E........
0BF0: FF 7F 78 30 30 36 03 80  1C 43 80 27 03 6E 20 0F  ..x006...C.'.n .
0C00: 01 06 27 03 6C 20 0F 01  05 2B 69 20 0F 01 6F 80  ..'.l ...+i ..o.
0C10: 23 55 11 80 F0 FF FF 7F  F0 FF FF 7F 78 30 30 36  #U..........x006
0C20: 7B 55 20 0F 01 02 04 00  03 80 00 30 0C 01 37 0C  {U ........0..7.
0C30: 29 03 55 20 0F 01 03 4B  55 20 0F 01 70 80 27 03  ).U ...KU ..p.'.
0C40: 6E 20 0F 01 02 27 03 6C  20 0F 01 03 1C 0F 80 4A  n ...'.l ......J
0C50: 6D 20 0F 01 6C 20 0F 01  1C 45 80 45 11 80 F0 FF  m ..l ...E.E....
0C60: FF 7F F0 FF FF 7F 78 30  30 37 03 80 02 04 00 03  ......x007......
0C70: 80 00 7F 0C 2B 55 20 0F  01 71 80 23 01 87 0C 2B  ....+U ..q.#...+
0C80: 55 20 0F 01 72 80 23 27  03 55 20 0F 01 09 2B 55  U ..r.#'.U ...+U
0C90: 20 0F 01 73 80 1C 0F 80  55 11 80 F0 FF FF 7F F0   ..s....U.......
0CA0: FF FF 7F 78 30 30 37 45  0A 80 F0 FF FF 7F F0 FF  ...x007E........
0CB0: FF 7F 66 64 6F 32 03 80  55 0A 80 F0 FF FF 7F F0  ..fdo2..U.......
0CC0: FF FF 7F 66 64 6F 32 23  35 74 80 75 00 75 80 75  ...fdo2#5t.u.u.u
0CD0: 01 1C 0F 80 78 46 00 38  03 80 37 00 00 01 00 02  ....xF.8..7.....
0CE0: 00 03 00 29 03 F0 FF FF  7F 5F 4E 00 F0 FF FF 7F  ...)....._N.....
0CF0: 4E 00 F8 FF FF 7F 80 F0  FF FF 7F 80 F8 FF FF 7F  N...............
0D00: 45 0A 80 F0 FF FF 7F F0  FF FF 7F 66 64 69 32 03  E..........fdi2.
0D10: 80 5C 00 76 80 5C 01 76  80 02 03 10 03 80 00 34  .\.v.\.v.......4
0D20: 0D 2B 68 20 0F 01 77 80  23 2B 68 20 0F 01 78 80  .+h ..w.#+h ..x.
0D30: 23 1A 4C 0D 21 00                                 #.L.!.          
```

#### Opcodes

```
  0: 0x0022 [0x20] SET_CLI_EVENT_UC_FLAG: Lock player control
  1: 0x0024 [0x42] SET_CLI_EVENT_CANCEL_DATA()
  2: 0x0025 [0x02] IF !(Work_Zone[3] == 0*) GOTO 0x0064
  3: 0x002D [0x1E] EventEntity looks at LocalPlayer and starts talking
  4: 0x0032 [0x6F] WAIT_FRAME_DELAY: Yield until WaitTime reaches zero
  5: 0x0033 [0x70] WAIT_ENTITY_RENDER_FLAG: Wait while EventEntity->Render.Flags3 bit 2 is set (cancel turn if not)
  6: 0x0034 [0x2B] Mhabi Molkot (ID: 17768552/0x010F2068) [8839*]:
    → "Wait a minute, don't tell me... You'rrre one of the Federation's adventurers, right? And you want to sign up for Conflict?"
  7: 0x003B [0x23] WAIT_FOR_DIALOG_INTERACTION
  8: 0x003C [0x2B] Mhabi Molkot (ID: 17768552/0x010F2068) [8840*]:
    → "Hmmm... Your rank seems high enough... OK! You'rrre in. I could use a veteran like you to whip some of my younger mercenaries into shape."
  9: 0x0043 [0x23] WAIT_FOR_DIALOG_INTERACTION
 10: 0x0044 [0x2B] Mhabi Molkot (ID: 17768552/0x010F2068) [8841*]:
    → "My name's Mhabi Molkot. Up until a few days ago, I was Captain of the Terrible Tigresses, the most fearrred group of Mithra Mercenaries in all of Windurst!"
 11: 0x004B [0x23] WAIT_FOR_DIALOG_INTERACTION
 12: 0x004C [0x2B] Mhabi Molkot (ID: 17768552/0x010F2068) [8842*]:
    → "And then all of a sudden, they make me Conflict Commander..."
 13: 0x0053 [0x23] WAIT_FOR_DIALOG_INTERACTION
 14: 0x0054 [0x2B] Mhabi Molkot (ID: 17768552/0x010F2068) [8843*]:
    → "Anyway, I said you'rrre in, so you'rrre in already! What? Don't tell me you're having second thoughts!"
 15: 0x005B [0x23] WAIT_FOR_DIALOG_INTERACTION
 16: 0x005C [0x2B] Mhabi Molkot (ID: 17768552/0x010F2068) [8844*]:
    → "Let me tell you a little about what's been going on in the past few months. It all starrrted at some stuffy conference to talk about the conquest..."
 17: 0x0063 [0x23] WAIT_FOR_DIALOG_INTERACTION
 18: 0x0064 [0x45] LOAD_SCHEDULED_TASK: Load scheduler "fdo1" with entities [LocalPlayer, LocalPlayer], work=[200*, 0*]
 19: 0x0075 [0x55] WAIT_LOAD_SCHEDULER: Wait for scheduler "fdo1" with entities [LocalPlayer, LocalPlayer], work=200*
 20: 0x0084 [0x38] SET_CLIENT_EVENT_MODE(mode=3*)
 21: 0x0087 [0x27] REQ_SET(priority=0x03, entity_id=LocalPlayer, tag_num=0x5E)
 22: 0x008E [0x3B] GET_ENTITY_POSITION(entity=EventEntity, x_destination=ExtData[1]->WorkLocal[0], y_destination=ExtData[1]->WorkLocal[1], z_destination=ExtData[1]->WorkLocal[2])
 23: 0x0099 [0x3A] CONVERT_YAW_TO_BYTE(entity=EventEntity, result_destination=ExtData[1]->WorkLocal[3])
 24: 0x00A0 [0x46] CAMERA_CONTROL: Disable user control
 25: 0x00A2 [0x5C] MUSIC_CONTROL: Set Idle (Day) music to song 127*
 26: 0x00A6 [0x5C] MUSIC_CONTROL: Set Idle (Night) music to song 127*
 27: 0x00AA [0x38] SET_CLIENT_EVENT_MODE(mode=19*)
 28: 0x00AD [0x34] LOAD_UNLOAD_ZONE(zone_id=243*)
 29: 0x00B0 [0x1C] WAIT(100* ticks)
 30: 0x00B3 [0x77] SET_EVENT_TIME_WEATHER(hour=0*, weather=0*)
 31: 0x00B8 [0x03] ExtData[1]->WorkLocal[4] = Work_Zone[2]
 32: 0x00BD [0x75] LOAD_ROOM(Load indoor room, room=439*)
 33: 0x00C1 [0x75] LOAD_ROOM(No action)
 34: 0x00C3 [0x94] LocalPlayer->Render.Flags3 ^= 0x01
 35: 0x00C9 [0x94] EventEntity->Render.Flags3 ^= 0x01
 36: 0x00CF [0x4E] SET_ENTITY_HIDE_FLAG: Hide LocalPlayer
 37: 0x00D5 [0x4E] SET_ENTITY_HIDE_FLAG: Hide EventEntity
 38: 0x00DB [0x4E] SET_ENTITY_HIDE_FLAG: Show Wolfgang (ID: 17768553/0x010F2069)
 39: 0x00E1 [0x4E] SET_ENTITY_HIDE_FLAG: Show Trion (ID: 17768556/0x010F206C)
 40: 0x00E7 [0x4E] SET_ENTITY_HIDE_FLAG: Show Shantotto (ID: 17768533/0x010F2055)
 41: 0x00ED [0x4E] SET_ENTITY_HIDE_FLAG: Show Rahal (ID: 17768557/0x010F206D)
 42: 0x00F3 [0x02] IF !(ExtData[1]->WorkLocal[4] == 0*) GOTO 0x0104
 43: 0x00FB [0x4E] SET_ENTITY_HIDE_FLAG: Show Ajido-Marujido (ID: 17768471/0x010F2017)
 44: 0x0101 [0x01] GOTO 0x010B
 45: 0x0104 [0x27] REQ_SET(priority=0x03, entity_id=Shantotto (ID: 17768533/0x010F2055), tag_num=0x02)

SUBROUTINE_010B:
 46: 0x010B [0x4E] SET_ENTITY_HIDE_FLAG: Show Volker (ID: 17768558/0x010F206E)
 47: 0x0111 [0x4E] SET_ENTITY_HIDE_FLAG: Show Ayame (ID: 17768559/0x010F206F)
 48: 0x0117 [0x79] Trion (ID: 17768556/0x010F206C) looks at Wolfgang (ID: 17768553/0x010F2069) (Basic look)
 49: 0x0121 [0x79] Shantotto (ID: 17768533/0x010F2055) looks at Wolfgang (ID: 17768553/0x010F2069) (Basic look)
 50: 0x012B [0x79] Ajido-Marujido (ID: 17768471/0x010F2017) looks at Wolfgang (ID: 17768553/0x010F2069) (Basic look)
 51: 0x0135 [0x79] Volker (ID: 17768558/0x010F206E) looks at Wolfgang (ID: 17768553/0x010F2069) (Basic look)
 52: 0x013F [0x79] Ayame (ID: 17768559/0x010F206F) looks at Wolfgang (ID: 17768553/0x010F2069) (Basic look)
 53: 0x0149 [0x80] LOAD_WAIT(entity=Wolfgang (ID: 17768553/0x010F2069))
 54: 0x014E [0x80] LOAD_WAIT(entity=Trion (ID: 17768556/0x010F206C))
 55: 0x0153 [0x80] LOAD_WAIT(entity=Volker (ID: 17768558/0x010F206E))
 56: 0x0158 [0x4E] SET_ENTITY_HIDE_FLAG: Show Arenuel (ID: 17768554/0x010F206A)
 57: 0x015E [0x4E] SET_ENTITY_HIDE_FLAG: Show Falreze (ID: 17768555/0x010F206B)
 58: 0x0164 [0x45] LOAD_SCHEDULED_TASK: Load scheduler "z000" with entities [LocalPlayer, LocalPlayer], work=[64*, 0*]
 59: 0x0175 [0x97] SAVE_SET_WIND_VALUES(wind_base=0x8003, wind_width=0x8012)
 60: 0x017A [0x45] LOAD_SCHEDULED_TASK: Load scheduler "fdi1" with entities [LocalPlayer, LocalPlayer], work=[200*, 0*]
 61: 0x018B [0x55] WAIT_LOAD_SCHEDULER: Wait for scheduler "fdi1" with entities [LocalPlayer, LocalPlayer], work=200*
 62: 0x019A [0x55] WAIT_LOAD_SCHEDULER: Wait for scheduler "z000" with entities [LocalPlayer, LocalPlayer], work=64*
 63: 0x01A9 [0x2B] Wolfgang (ID: 17768553/0x010F2069) [8609*]:
    → "I think we have covered all of the topics on our agenda today."
 64: 0x01B0 [0x79] Wolfgang (ID: 17768553/0x010F2069) looks at Trion (ID: 17768556/0x010F206C) (Basic look)
 65: 0x01BA [0x1C] WAIT(90* ticks)
 66: 0x01BD [0x79] Wolfgang (ID: 17768553/0x010F2069) looks at Volker (ID: 17768558/0x010F206E) (Basic look)
 67: 0x01C7 [0x1C] WAIT(90* ticks)
 68: 0x01CA [0x7B] Wolfgang (ID: 17768553/0x010F2069) stops talking
 69: 0x01CF [0x23] WAIT_FOR_DIALOG_INTERACTION
 70: 0x01D0 [0x45] LOAD_SCHEDULED_TASK: Load scheduler "z001" with entities [LocalPlayer, LocalPlayer], work=[64*, 0*]
 71: 0x01E1 [0x55] WAIT_LOAD_SCHEDULER: Wait for scheduler "z001" with entities [LocalPlayer, LocalPlayer], work=64*
 72: 0x01F0 [0x1C] WAIT(15* ticks)
 73: 0x01F3 [0x2B] Wolfgang (ID: 17768553/0x010F2069) [8610*]:
    → "If there are no objections, I would like to call the 136th Conquest Evaluation Assembly to a close."
 74: 0x01FA [0x23] WAIT_FOR_DIALOG_INTERACTION
 75: 0x01FB [0x1C] WAIT(10* ticks)
 76: 0x01FE [0x2B] Trion (ID: 17768556/0x010F206C) [8611*]:
    → "Just a moment."
 77: 0x0205 [0x23] WAIT_FOR_DIALOG_INTERACTION
 78: 0x0206 [0x1C] WAIT(20* ticks)
 79: 0x0209 [0x4A] Wolfgang (ID: 17768553/0x010F2069) looks at Trion (ID: 17768556/0x010F206C)
 80: 0x0212 [0x1C] WAIT(10* ticks)
 81: 0x0215 [0x45] LOAD_SCHEDULED_TASK: Load scheduler "z002" with entities [LocalPlayer, LocalPlayer], work=[64*, 0*]
 82: 0x0226 [0x6F] WAIT_FRAME_DELAY: Yield until WaitTime reaches zero
 83: 0x0227 [0x76] CHECK_ENTITY_RENDER_FLAGS: Wait until Wolfgang (ID: 17768553/0x010F2069) Render.Flags0 and Render.Flags3 conditions are met
 84: 0x022C [0x4A] Volker (ID: 17768558/0x010F206E) looks at Trion (ID: 17768556/0x010F206C)
 85: 0x0235 [0x4A] Ajido-Marujido (ID: 17768471/0x010F2017) looks at Trion (ID: 17768556/0x010F206C)
 86: 0x023E [0x4A] Shantotto (ID: 17768533/0x010F2055) looks at Trion (ID: 17768556/0x010F206C)
 87: 0x0247 [0x1C] WAIT(20* ticks)
 88: 0x024A [0x2B] Wolfgang (ID: 17768553/0x010F2069) [8612*]:
    → "Prince Trion, is there something you wish to add?"
 89: 0x0251 [0x23] WAIT_FOR_DIALOG_INTERACTION
 90: 0x0252 [0x55] WAIT_LOAD_SCHEDULER: Wait for scheduler "z002" with entities [LocalPlayer, LocalPlayer], work=64*
 91: 0x0261 [0x2B] Trion (ID: 17768556/0x010F206C) [8613*]:
    → "... I will not deny that the participation of adventurers has been of great benefit to the conquest, as well as maintained a new level of safety in the outlying regions."
 92: 0x0268 [0x23] WAIT_FOR_DIALOG_INTERACTION
 93: 0x0269 [0x2B] Trion (ID: 17768556/0x010F206C) [8614*]:
    → "In addition, the many treaties signed by our nations have successfully paved a path of peace. No longer need our border guards fear attacks from our friends to the south and east."
 94: 0x0270 [0x23] WAIT_FOR_DIALOG_INTERACTION
 95: 0x0271 [0x81] SET_ENTITY_BLINKING(blink_flag=0x00, entity=Trion (ID: 17768556/0x010F206C))
 96: 0x0277 [0x45] LOAD_SCHEDULED_TASK: Load scheduler "z003" with entities [LocalPlayer, LocalPlayer], work=[64*, 0*]
 97: 0x0288 [0x2B] Trion (ID: 17768556/0x010F206C) [8615*]:
    → "However, the beastman forces display no signs of weakening. Those noble guards stationed in faraway lands must deal with this reality constantly...and the burden has begun taking its toll."
 98: 0x028F [0x23] WAIT_FOR_DIALOG_INTERACTION
 99: 0x0290 [0x2B] Trion (ID: 17768556/0x010F206C) [8616*]:
    → "The already large gap between the guards on our borders and the guards in the Outlands expands with each day. If nothing is done, morale shall continue to fall while discontent grows."
100: 0x0297 [0x23] WAIT_FOR_DIALOG_INTERACTION
101: 0x0298 [0x81] SET_ENTITY_BLINKING(blink_flag=0x01, entity=Trion (ID: 17768556/0x010F206C))
102: 0x029E [0x7B] Trion (ID: 17768556/0x010F206C) stops talking
103: 0x02A3 [0x55] WAIT_LOAD_SCHEDULER: Wait for scheduler "z003" with entities [LocalPlayer, LocalPlayer], work=64*
104: 0x02B2 [0x4B] UPDATE_ENTITY_YAW(entity=Trion (ID: 17768556/0x010F206C), yaw=0.0°*)
105: 0x02B9 [0x1C] WAIT(20* ticks)
106: 0x02BC [0x45] LOAD_SCHEDULED_TASK: Load scheduler "z004" with entities [LocalPlayer, LocalPlayer], work=[64*, 0*]
107: 0x02CD [0x55] WAIT_LOAD_SCHEDULER: Wait for scheduler "z004" with entities [LocalPlayer, LocalPlayer], work=64*
108: 0x02DC [0x6F] WAIT_FRAME_DELAY: Yield until WaitTime reaches zero
109: 0x02DD [0x76] CHECK_ENTITY_RENDER_FLAGS: Wait until Trion (ID: 17768556/0x010F206C) Render.Flags0 and Render.Flags3 conditions are met
110: 0x02E2 [0x27] REQ_SET(priority=0x03, entity_id=Trion (ID: 17768556/0x010F206C), tag_num=0x08)
111: 0x02E9 [0x2B] Trion (ID: 17768556/0x010F206C) [8617*]:
    → "I sense that my kingdom is not alone in these worries."
112: 0x02F0 [0x23] WAIT_FOR_DIALOG_INTERACTION
113: 0x02F1 [0x27] REQ_SET(priority=0x03, entity_id=Volker (ID: 17768558/0x010F206E), tag_num=0x03)
114: 0x02F8 [0x2B] Volker (ID: 17768558/0x010F206E) [8618*]:
    → "Soldier morale..."
115: 0x02FF [0x23] WAIT_FOR_DIALOG_INTERACTION
116: 0x0300 [0x27] REQ_SET(priority=0x03, entity_id=Volker (ID: 17768558/0x010F206E), tag_num=0x04)
117: 0x0307 [0x02] IF !(ExtData[1]->WorkLocal[4] == 0*) GOTO 0x031A
118: 0x030F [0x2B] Ajido-Marujido (ID: 17768471/0x010F2017) [8619*]:
    → "Well, well, well! I never thought I'd see such a lack of confidence from a member of the mighty d'Oraguille family!"
119: 0x0316 [0x23] WAIT_FOR_DIALOG_INTERACTION
120: 0x0317 [0x01] GOTO 0x0322
121: 0x031A [0x2B] Shantotto (ID: 17768533/0x010F2055) [8620*]:
    → "Ohohoho! I never thought I'd see such a lack of confidence from Destin's baby boy--Trion, the prince."
122: 0x0321 [0x23] WAIT_FOR_DIALOG_INTERACTION

SUBROUTINE_0322:
123: 0x0322 [0x27] REQ_SET(priority=0x03, entity_id=Trion (ID: 17768556/0x010F206C), tag_num=0x09)
124: 0x0329 [0x2B] Trion (ID: 17768556/0x010F206C) [8621*]:
    → "How dare you!?"
125: 0x0330 [0x23] WAIT_FOR_DIALOG_INTERACTION
126: 0x0331 [0x02] IF !(ExtData[1]->WorkLocal[4] == 0*) GOTO 0x039D
127: 0x0339 [0x4A] Volker (ID: 17768558/0x010F206E) looks at Ajido-Marujido (ID: 17768471/0x010F2017)
128: 0x0342 [0x1C] WAIT(10* ticks)
129: 0x0345 [0x45] LOAD_SCHEDULED_TASK: Load scheduler "z005" with entities [LocalPlayer, LocalPlayer], work=[64*, 0*]
130: 0x0356 [0x55] WAIT_LOAD_SCHEDULER: Wait for scheduler "z005" with entities [LocalPlayer, LocalPlayer], work=64*
131: 0x0365 [0x6F] WAIT_FRAME_DELAY: Yield until WaitTime reaches zero
132: 0x0366 [0x76] CHECK_ENTITY_RENDER_FLAGS: Wait until Volker (ID: 17768558/0x010F206E) Render.Flags0 and Render.Flags3 conditions are met
133: 0x036B [0x27] REQ_SET(priority=0x03, entity_id=Volker (ID: 17768558/0x010F206E), tag_num=0x07)
134: 0x0372 [0x2B] Volker (ID: 17768558/0x010F206E) [8622*]:
    → "I think that is quite enough, Minister."
135: 0x0379 [0x1C] WAIT(10* ticks)
136: 0x037C [0x4A] Ajido-Marujido (ID: 17768471/0x010F2017) looks at Volker (ID: 17768558/0x010F206E)
137: 0x0385 [0x1C] WAIT(10* ticks)
138: 0x0388 [0x4A] Shantotto (ID: 17768533/0x010F2055) looks at Volker (ID: 17768558/0x010F206E)
139: 0x0391 [0x23] WAIT_FOR_DIALOG_INTERACTION
140: 0x0392 [0x2B] Volker (ID: 17768558/0x010F206E) [8623*]:
    → "I fully understand the concerns of Prince Trion, and believe he has a point."
141: 0x0399 [0x23] WAIT_FOR_DIALOG_INTERACTION
142: 0x039A [0x01] GOTO 0x03EA
143: 0x039D [0x4A] Volker (ID: 17768558/0x010F206E) looks at Shantotto (ID: 17768533/0x010F2055)
144: 0x03A6 [0x1C] WAIT(10* ticks)
145: 0x03A9 [0x45] LOAD_SCHEDULED_TASK: Load scheduler "z005" with entities [LocalPlayer, LocalPlayer], work=[64*, 0*]
146: 0x03BA [0x55] WAIT_LOAD_SCHEDULER: Wait for scheduler "z005" with entities [LocalPlayer, LocalPlayer], work=64*
147: 0x03C9 [0x6F] WAIT_FRAME_DELAY: Yield until WaitTime reaches zero
148: 0x03CA [0x76] CHECK_ENTITY_RENDER_FLAGS: Wait until Volker (ID: 17768558/0x010F206E) Render.Flags0 and Render.Flags3 conditions are met
149: 0x03CF [0x27] REQ_SET(priority=0x03, entity_id=Volker (ID: 17768558/0x010F206E), tag_num=0x07)
150: 0x03D6 [0x2B] Volker (ID: 17768558/0x010F206E) [8624*]:
    → "Doctor Shantotto... I fully understand the concerns of Prince Trion, and believe he has a point."
151: 0x03DD [0x1C] WAIT(10* ticks)
152: 0x03E0 [0x4A] Shantotto (ID: 17768533/0x010F2055) looks at Volker (ID: 17768558/0x010F206E)
153: 0x03E9 [0x23] WAIT_FOR_DIALOG_INTERACTION

SUBROUTINE_03EA:
154: 0x03EA [0x2B] Volker (ID: 17768558/0x010F206E) [8625*]:
    → "In a republic like Bastok, where a large portion of our army is made up of normal citizens, it is easy for morale levels to slide. This is a problem that is constantly being tackled by our officials."
155: 0x03F1 [0x23] WAIT_FOR_DIALOG_INTERACTION
156: 0x03F2 [0x45] LOAD_SCHEDULED_TASK: Load scheduler "z006" with entities [LocalPlayer, LocalPlayer], work=[64*, 0*]
157: 0x0403 [0x55] WAIT_LOAD_SCHEDULER: Wait for scheduler "z006" with entities [LocalPlayer, LocalPlayer], work=64*
158: 0x0412 [0x02] IF !(ExtData[1]->WorkLocal[4] == 0*) GOTO 0x044F
159: 0x041A [0x6F] WAIT_FRAME_DELAY: Yield until WaitTime reaches zero
160: 0x041B [0x76] CHECK_ENTITY_RENDER_FLAGS: Wait until Ajido-Marujido (ID: 17768471/0x010F2017) Render.Flags0 and Render.Flags3 conditions are met
161: 0x0420 [0x27] REQ_SET(priority=0x03, entity_id=Ajido-Marujido (ID: 17768471/0x010F2017), tag_num=0x06)
162: 0x0427 [0x2B] Ajido-Marujido (ID: 17768471/0x010F2017) [8626*]:
    → "Really? Well, that's your nation. Windurst doesn't face such problems."
163: 0x042E [0x23] WAIT_FOR_DIALOG_INTERACTION
164: 0x042F [0x2B] Ajido-Marujido (ID: 17768471/0x010F2017) [8627*]:
    → "Our Mithran Mercenaries enjoy being sent to far-off places. It gives them the opportunity to run and jump and hunt and roll around in the mud--whatever those feminine felines like to do in their free time."
165: 0x0436 [0x23] WAIT_FOR_DIALOG_INTERACTION
166: 0x0437 [0x27] REQ_SET(priority=0x03, entity_id=Ajido-Marujido (ID: 17768471/0x010F2017), tag_num=0x07)
167: 0x043E [0x2B] Ajido-Marujido (ID: 17768471/0x010F2017) [8628*]:
    → "Maybe instead of buffing up your soldiers' muscles all day, you should try training their minds...like we do. And that's my two gil!"
168: 0x0445 [0x23] WAIT_FOR_DIALOG_INTERACTION
169: 0x0446 [0x2A] GET_REQ_LEVEL(level=3, entity_id=Ajido-Marujido (ID: 17768471/0x010F2017))
170: 0x044C [0x01] GOTO 0x0475
171: 0x044F [0x27] REQ_SET(priority=0x03, entity_id=Shantotto (ID: 17768533/0x010F2055), tag_num=0x06)
172: 0x0456 [0x2B] Shantotto (ID: 17768533/0x010F2055) [8629*]:
    → "Oh, rea`lly? Well, that's your nation. We don't have such problems in the Federation."
173: 0x045D [0x23] WAIT_FOR_DIALOG_INTERACTION
174: 0x045E [0x2B] Shantotto (ID: 17768533/0x010F2055) [8630*]:
    → "Our Mithran Mercenaries enjoy being sent to faraway places. It gives them time to take their naps, hunt their mice, and go on their chases."
175: 0x0465 [0x23] WAIT_FOR_DIALOG_INTERACTION
176: 0x0466 [0x2B] Shantotto (ID: 17768533/0x010F2055) [8631*]:
    → "Maybe it's to the lack of confidence that you can give thanks for the drastic fall of morale in your pathetic ranks."
177: 0x046D [0x23] WAIT_FOR_DIALOG_INTERACTION
178: 0x046E [0x29] REQ_SET_WAIT(priority=0x03, entity_id=Shantotto (ID: 17768533/0x010F2055), tag_num=0x07)

SUBROUTINE_0475:
179: 0x0475 [0x45] LOAD_SCHEDULED_TASK: Load scheduler "z007" with entities [LocalPlayer, LocalPlayer], work=[64*, 0*]
180: 0x0486 [0x2B] Trion (ID: 17768556/0x010F206C) [8632*]:
    → "..."
181: 0x048D [0x1C] WAIT(100* ticks)
182: 0x0490 [0x29] REQ_SET_WAIT(priority=0x03, entity_id=Volker (ID: 17768558/0x010F206E), tag_num=0x08)
183: 0x0497 [0x23] WAIT_FOR_DIALOG_INTERACTION
184: 0x0498 [0x55] WAIT_LOAD_SCHEDULER: Wait for scheduler "z007" with entities [LocalPlayer, LocalPlayer], work=64*
185: 0x04A7 [0x02] IF !(ExtData[1]->WorkLocal[4] == 0*) GOTO 0x04BA
186: 0x04AF [0x2B] Volker (ID: 17768558/0x010F206E) [8633*]:
    → "Yes, but hiring mercenaries can be quite the burden on the Federation's treasury, can it not?"
187: 0x04B6 [0x23] WAIT_FOR_DIALOG_INTERACTION
188: 0x04B7 [0x01] GOTO 0x04C2
189: 0x04BA [0x2B] Volker (ID: 17768558/0x010F206E) [8634*]:
    → "Yes, but hiring mercenaries can be quite the burden on the Federation's treasury, can it not?"
190: 0x04C1 [0x23] WAIT_FOR_DIALOG_INTERACTION

SUBROUTINE_04C2:
191: 0x04C2 [0x2B] Volker (ID: 17768558/0x010F206E) [8635*]:
    → "The more regions under your nation's control, the more mercenaries you must hire. And before you realize it, your vaults will be empty."
192: 0x04C9 [0x23] WAIT_FOR_DIALOG_INTERACTION
193: 0x04CA [0x2B] Volker (ID: 17768558/0x010F206E) [8636*]:
    → "I suspect that the conquest is taking its toll on the Federation."
194: 0x04D1 [0x23] WAIT_FOR_DIALOG_INTERACTION
195: 0x04D2 [0x02] IF !(ExtData[1]->WorkLocal[4] == 0*) GOTO 0x0571
196: 0x04DA [0x2B] Ajido-Marujido (ID: 17768471/0x010F2017) [8637*]:
    → "Well, we..."
197: 0x04E1 [0x23] WAIT_FOR_DIALOG_INTERACTION
198: 0x04E2 [0x45] LOAD_SCHEDULED_TASK: Load scheduler "z008" with entities [LocalPlayer, LocalPlayer], work=[64*, 0*]
199: 0x04F3 [0x27] REQ_SET(priority=0x03, entity_id=Shantotto (ID: 17768533/0x010F2055), tag_num=0x09)
200: 0x04FA [0x2B] Shantotto (ID: 17768533/0x010F2055) [8638*]:
    → "Ohohohoho! In a matter of months, our wishy-worries will be gone, When our Outland regions are patrolled by automatons."
201: 0x0501 [0x23] WAIT_FOR_DIALOG_INTERACTION
202: 0x0502 [0x79] Volker (ID: 17768558/0x010F206E) looks at Shantotto (ID: 17768533/0x010F2055) (Basic look)
203: 0x050C [0x55] WAIT_LOAD_SCHEDULER: Wait for scheduler "z008" with entities [LocalPlayer, LocalPlayer], work=64*
204: 0x051B [0x45] LOAD_SCHEDULED_TASK: Load scheduler "z009" with entities [LocalPlayer, LocalPlayer], work=[64*, 0*]
205: 0x052C [0x2B] Shantotto (ID: 17768533/0x010F2055) [8639*]:
    → "Operation costs will stay lower than low. And into our vaults the gil shall flow. Ohoho!"
206: 0x0533 [0x1C] WAIT(10* ticks)
207: 0x0536 [0x4A] Ajido-Marujido (ID: 17768471/0x010F2017) looks at Shantotto (ID: 17768533/0x010F2055)
208: 0x053F [0x6F] WAIT_FRAME_DELAY: Yield until WaitTime reaches zero
209: 0x0540 [0x76] CHECK_ENTITY_RENDER_FLAGS: Wait until Ajido-Marujido (ID: 17768471/0x010F2017) Render.Flags0 and Render.Flags3 conditions are met
210: 0x0545 [0x23] WAIT_FOR_DIALOG_INTERACTION
211: 0x0546 [0x2B] Ajido-Marujido (ID: 17768471/0x010F2017) [8640*]:
    → "Shantotto!"
212: 0x054D [0x23] WAIT_FOR_DIALOG_INTERACTION
213: 0x054E [0x6B] STOP_AND_IDLE: Shantotto (ID: 17768533/0x010F2055) stops current action and resets to idle (animation="idl0")
214: 0x0557 [0x2B] Shantotto (ID: 17768533/0x010F2055) [8641*]:
    → "If you wish, Windurst can also build some for use by the king and the president. All for a small fee payable in five easy installments."
215: 0x055E [0x23] WAIT_FOR_DIALOG_INTERACTION
216: 0x055F [0x55] WAIT_LOAD_SCHEDULER: Wait for scheduler "z009" with entities [LocalPlayer, LocalPlayer], work=64*
217: 0x056E [0x01] GOTO 0x05CB
218: 0x0571 [0x45] LOAD_SCHEDULED_TASK: Load scheduler "s000" with entities [LocalPlayer, LocalPlayer], work=[64*, 0*]
219: 0x0582 [0x27] REQ_SET(priority=0x03, entity_id=Shantotto (ID: 17768533/0x010F2055), tag_num=0x0B)
220: 0x0589 [0x2B] Shantotto (ID: 17768533/0x010F2055) [8642*]:
    → "Ohohohoho! In a matter of months, our wishy-worries will be gone, when our Outland regions are patrolled by automatons."
221: 0x0590 [0x23] WAIT_FOR_DIALOG_INTERACTION
222: 0x0591 [0x2B] Shantotto (ID: 17768533/0x010F2055) [8643*]:
    → "Operation costs will stay lower than low. And into our vaults the gil shall flow. Ohoho!"
223: 0x0598 [0x23] WAIT_FOR_DIALOG_INTERACTION
224: 0x0599 [0x2B] Shantotto (ID: 17768533/0x010F2055) [8644*]:
    → "While we appreciate the concern from Destin's baby and Karst's pet, I don't think Windurst will be taking any drastic actions yet."
225: 0x05A0 [0x23] WAIT_FOR_DIALOG_INTERACTION
226: 0x05A1 [0x2A] GET_REQ_LEVEL(level=3, entity_id=Shantotto (ID: 17768533/0x010F2055))
227: 0x05A7 [0x2B] Shantotto (ID: 17768533/0x010F2055) [8645*]:
    → "But if you wish, we could build some Cardians for use by the king and the president. All for a small fee payable in five easy installments. O`hohohohoho!"
228: 0x05AE [0x1C] WAIT(60* ticks)
229: 0x05B1 [0x27] REQ_SET(priority=0x03, entity_id=Shantotto (ID: 17768533/0x010F2055), tag_num=0x08)
230: 0x05B8 [0x1C] WAIT(60* ticks)
231: 0x05BB [0x23] WAIT_FOR_DIALOG_INTERACTION
232: 0x05BC [0x55] WAIT_LOAD_SCHEDULER: Wait for scheduler "s000" with entities [LocalPlayer, LocalPlayer], work=64*

SUBROUTINE_05CB:
233: 0x05CB [0x45] LOAD_SCHEDULED_TASK: Load scheduler "y000" with entities [LocalPlayer, LocalPlayer], work=[64*, 0*]
234: 0x05DC [0x2B] Volker (ID: 17768558/0x010F206E) [8646*]:
    → "That sounds like a lovely plan, Minister Shantotto."
235: 0x05E3 [0x23] WAIT_FOR_DIALOG_INTERACTION
236: 0x05E4 [0x7B] Volker (ID: 17768558/0x010F206E) stops talking
237: 0x05E9 [0x2B] Volker (ID: 17768558/0x010F206E) [8647*]:
    → "But wouldn't the use of automatons in the conquest be in violation of the Treaty of Nations...?"
238: 0x05F0 [0x23] WAIT_FOR_DIALOG_INTERACTION
239: 0x05F1 [0x55] WAIT_LOAD_SCHEDULER: Wait for scheduler "y000" with entities [LocalPlayer, LocalPlayer], work=64*
240: 0x0600 [0x45] LOAD_SCHEDULED_TASK: Load scheduler "y001" with entities [LocalPlayer, LocalPlayer], work=[64*, 0*]
241: 0x0611 [0x2B] Trion (ID: 17768556/0x010F206C) [8648*]:
    → "Hmph. And I have heard many a tale of those walking scarecrows turning on their masters..."
242: 0x0618 [0x23] WAIT_FOR_DIALOG_INTERACTION
243: 0x0619 [0x4A] Shantotto (ID: 17768533/0x010F2055) looks at Trion (ID: 17768556/0x010F206C)
244: 0x0622 [0x02] IF !(ExtData[1]->WorkLocal[4] == 0*) GOTO 0x0635
245: 0x062A [0x2B] Trion (ID: 17768556/0x010F206C) [8649*]:
    → "Like father, like son, I say. I would not trust a lump of rubbish made by one of you lunatics any more than I would trust one of you lunatics!"
246: 0x0631 [0x23] WAIT_FOR_DIALOG_INTERACTION
247: 0x0632 [0x01] GOTO 0x063D
248: 0x0635 [0x2B] Trion (ID: 17768556/0x010F206C) [8650*]:
    → "How can one call a soldier that does not obey his leader a soldier? And how can one call a leader who cannot control his soldiers a leader?"
249: 0x063C [0x23] WAIT_FOR_DIALOG_INTERACTION

SUBROUTINE_063D:
250: 0x063D [0x55] WAIT_LOAD_SCHEDULER: Wait for scheduler "y001" with entities [LocalPlayer, LocalPlayer], work=64*
251: 0x064C [0x6F] WAIT_FRAME_DELAY: Yield until WaitTime reaches zero
252: 0x064D [0x76] CHECK_ENTITY_RENDER_FLAGS: Wait until Shantotto (ID: 17768533/0x010F2055) Render.Flags0 and Render.Flags3 conditions are met
253: 0x0652 [0x2B] Shantotto (ID: 17768533/0x010F2055) [8651*]:
    → "Ooh, somebody's in a bad mood..."
254: 0x0659 [0x23] WAIT_FOR_DIALOG_INTERACTION
255: 0x065A [0x1C] WAIT(30* ticks)
256: 0x065D [0x4A] Volker (ID: 17768558/0x010F206E) looks at Trion (ID: 17768556/0x010F206C)
257: 0x0666 [0x1C] WAIT(10* ticks)
258: 0x0669 [0x4A] Shantotto (ID: 17768533/0x010F2055) looks at Trion (ID: 17768556/0x010F206C)
259: 0x0672 [0x45] LOAD_SCHEDULED_TASK: Load scheduler "y002" with entities [LocalPlayer, LocalPlayer], work=[64*, 0*]
260: 0x0683 [0x55] WAIT_LOAD_SCHEDULER: Wait for scheduler "y002" with entities [LocalPlayer, LocalPlayer], work=64*
261: 0x0692 [0x6F] WAIT_FRAME_DELAY: Yield until WaitTime reaches zero
262: 0x0693 [0x76] CHECK_ENTITY_RENDER_FLAGS: Wait until Volker (ID: 17768558/0x010F206E) Render.Flags0 and Render.Flags3 conditions are met
263: 0x0698 [0x27] REQ_SET(priority=0x03, entity_id=Volker (ID: 17768558/0x010F206E), tag_num=0x05)
264: 0x069F [0x2B] Volker (ID: 17768558/0x010F206E) [8652*]:
    → "Prince Trion. You certainly did not bring up this issue without having a solution in mind."
265: 0x06A6 [0x23] WAIT_FOR_DIALOG_INTERACTION
266: 0x06A7 [0x02] IF !(ExtData[1]->WorkLocal[4] == 0*) GOTO 0x06F7
267: 0x06AF [0x45] LOAD_SCHEDULED_TASK: Load scheduler "y003" with entities [LocalPlayer, LocalPlayer], work=[64*, 0*]
268: 0x06C0 [0x1C] WAIT(50* ticks)
269: 0x06C3 [0x4A] Ajido-Marujido (ID: 17768471/0x010F2017) looks at Trion (ID: 17768556/0x010F206C)
270: 0x06CC [0x1C] WAIT(50* ticks)
271: 0x06CF [0x27] REQ_SET(priority=0x03, entity_id=Shantotto (ID: 17768533/0x010F2055), tag_num=0x04)
272: 0x06D6 [0x2B] Shantotto (ID: 17768533/0x010F2055) [8653*]:
    → "Exactly! You'd better have something interesting to say. Or Ajido and I will pack up our things and be on our way."
273: 0x06DD [0x23] WAIT_FOR_DIALOG_INTERACTION
274: 0x06DE [0x27] REQ_SET(priority=0x03, entity_id=Shantotto (ID: 17768533/0x010F2055), tag_num=0x05)
275: 0x06E5 [0x55] WAIT_LOAD_SCHEDULER: Wait for scheduler "y003" with entities [LocalPlayer, LocalPlayer], work=64*
276: 0x06F4 [0x1C] WAIT(15* ticks)
277: 0x06F7 [0x7B] Trion (ID: 17768556/0x010F206C) stops talking
278: 0x06FC [0x1C] WAIT(60* ticks)
279: 0x06FF [0x27] REQ_SET(priority=0x03, entity_id=Trion (ID: 17768556/0x010F206C), tag_num=0x02)
280: 0x0706 [0x1C] WAIT(15* ticks)
281: 0x0709 [0x27] REQ_SET(priority=0x03, entity_id=Volker (ID: 17768558/0x010F206E), tag_num=0x06)
282: 0x0710 [0x45] LOAD_SCHEDULED_TASK: Load scheduler "y004" with entities [LocalPlayer, LocalPlayer], work=[64*, 0*]
283: 0x0721 [0x55] WAIT_LOAD_SCHEDULER: Wait for scheduler "y004" with entities [LocalPlayer, LocalPlayer], work=64*
284: 0x0730 [0x2A] GET_REQ_LEVEL(level=3, entity_id=Trion (ID: 17768556/0x010F206C))
285: 0x0736 [0x2B] Trion (ID: 17768556/0x010F206C) [8654*]:
    → "Recently one of our Royal Knights made his return journey from our kingdom's territories to the north--Lord Excenmille."
286: 0x073D [0x23] WAIT_FOR_DIALOG_INTERACTION
287: 0x073E [0x4A] Wolfgang (ID: 17768553/0x010F2069) looks at Trion (ID: 17768556/0x010F206C)
288: 0x0747 [0x2B] Wolfgang (ID: 17768553/0x010F2069) [8655*]:
    → "Excenmille? The man who, after the Great War, took a handful of soldiers and successfully invaded the Orcish Empire using guerilla tactics?"
289: 0x074E [0x23] WAIT_FOR_DIALOG_INTERACTION
290: 0x074F [0x2B] Trion (ID: 17768556/0x010F206C) [8656*]:
    → "Yes. Sword in hand, donning armor stained with the blood of a thousand foes, he returned to his homeland for the first time in twenty years...and was shocked at what he found lurking beyond its gates."
291: 0x0756 [0x23] WAIT_FOR_DIALOG_INTERACTION
292: 0x0757 [0x2B] Trion (ID: 17768556/0x010F206C) [8657*]:
    → "Foreign merchants of all shapes and sizes peddling their trinkets. Scruffy adventurers shouting out their petty problems as they walked freely among the streets and alleys. Local shopkeeps and Temple Knights laughing as they mingled with the scum washed up from all corners of the continent."
293: 0x075E [0x23] WAIT_FOR_DIALOG_INTERACTION
294: 0x075F [0x4B] UPDATE_ENTITY_YAW(entity=Trion (ID: 17768556/0x010F206C), yaw=0.0°*)
295: 0x0766 [0x1C] WAIT(15* ticks)
296: 0x0769 [0x45] LOAD_SCHEDULED_TASK: Load scheduler "y00b" with entities [LocalPlayer, LocalPlayer], work=[64*, 0*]
297: 0x077A [0x6F] WAIT_FRAME_DELAY: Yield until WaitTime reaches zero
298: 0x077B [0x76] CHECK_ENTITY_RENDER_FLAGS: Wait until Trion (ID: 17768556/0x010F206C) Render.Flags0 and Render.Flags3 conditions are met
299: 0x0780 [0x1C] WAIT(30* ticks)
300: 0x0783 [0x2B] Trion (ID: 17768556/0x010F206C) [8658*]:
    → "Excenmille was furious."
301: 0x078A [0x23] WAIT_FOR_DIALOG_INTERACTION
302: 0x078B [0x55] WAIT_LOAD_SCHEDULER: Wait for scheduler "y00b" with entities [LocalPlayer, LocalPlayer], work=64*
303: 0x079A [0x45] LOAD_SCHEDULED_TASK: Load scheduler "y006" with entities [LocalPlayer, LocalPlayer], work=[64*, 0*]
304: 0x07AB [0x55] WAIT_LOAD_SCHEDULER: Wait for scheduler "y006" with entities [LocalPlayer, LocalPlayer], work=64*
305: 0x07BA [0x2B] Wolfgang (ID: 17768553/0x010F2069) [8659*]:
    → "Why would he be furious? The influx of adventurers has revitalized your nation."
306: 0x07C1 [0x23] WAIT_FOR_DIALOG_INTERACTION
307: 0x07C2 [0x79] Trion (ID: 17768556/0x010F206C) looks at Wolfgang (ID: 17768553/0x010F2069) (Basic look)
308: 0x07CC [0x1C] WAIT(10* ticks)
309: 0x07CF [0x27] REQ_SET(priority=0x03, entity_id=Trion (ID: 17768556/0x010F206C), tag_num=0x06)
310: 0x07D6 [0x2B] Trion (ID: 17768556/0x010F206C) [8660*]:
    → "According to Excenmille, twenty-five years ago, a union among the children of Altana was necessary to defeat the armies of darkness."
311: 0x07DD [0x23] WAIT_FOR_DIALOG_INTERACTION
312: 0x07DE [0x2B] Trion (ID: 17768556/0x010F206C) [8661*]:
    → "However, now that the threat has gone, there is no reason for San d'Oria's citizens to be brushing shoulders with the common folk of other nations. It is this symbiotic relationship that plagues the Kingdom and keeps the once mighty red lion shackled down."
313: 0x07E5 [0x23] WAIT_FOR_DIALOG_INTERACTION
314: 0x07E6 [0x45] LOAD_SCHEDULED_TASK: Load scheduler "x000" with entities [LocalPlayer, LocalPlayer], work=[64*, 0*]
315: 0x07F7 [0x55] WAIT_LOAD_SCHEDULER: Wait for scheduler "x000" with entities [LocalPlayer, LocalPlayer], work=64*
316: 0x0806 [0x2B] Wolfgang (ID: 17768553/0x010F2069) [8662*]:
    → "That seems like quite an anachronous opinion..."
317: 0x080D [0x23] WAIT_FOR_DIALOG_INTERACTION
318: 0x080E [0x45] LOAD_SCHEDULED_TASK: Load scheduler "y008" with entities [LocalPlayer, LocalPlayer], work=[64*, 0*]
319: 0x081F [0x55] WAIT_LOAD_SCHEDULER: Wait for scheduler "y008" with entities [LocalPlayer, LocalPlayer], work=64*
320: 0x082E [0x27] REQ_SET(priority=0x03, entity_id=Trion (ID: 17768556/0x010F206C), tag_num=0x07)
321: 0x0835 [0x2B] Trion (ID: 17768556/0x010F206C) [8663*]:
    → "Excenmille's way of thinking may seem out-of-date, but his logic cannot be denied. Ever since the opening of our gates to outsiders, the quality of our knights has fallen dramatically."
322: 0x083C [0x23] WAIT_FOR_DIALOG_INTERACTION
323: 0x083D [0x27] REQ_SET(priority=0x03, entity_id=Shantotto (ID: 17768533/0x010F2055), tag_num=0x0B)
324: 0x0844 [0x02] IF !(ExtData[1]->WorkLocal[4] == 0*) GOTO 0x086F
325: 0x084C [0x45] LOAD_SCHEDULED_TASK: Load scheduler "y007" with entities [LocalPlayer, LocalPlayer], work=[64*, 0*]
326: 0x085D [0x55] WAIT_LOAD_SCHEDULER: Wait for scheduler "y007" with entities [LocalPlayer, LocalPlayer], work=64*
327: 0x086C [0x01] GOTO 0x088F
328: 0x086F [0x45] LOAD_SCHEDULED_TASK: Load scheduler "s001" with entities [LocalPlayer, LocalPlayer], work=[64*, 0*]
329: 0x0880 [0x55] WAIT_LOAD_SCHEDULER: Wait for scheduler "s001" with entities [LocalPlayer, LocalPlayer], work=64*

SUBROUTINE_088F:
330: 0x088F [0x2B] Shantotto (ID: 17768533/0x010F2055) [8664*]:
    → "... I'm tired of hearing stories about some pumpkin-bumpkin knight. Are you going to get to the point, or are we going to be here all night?"
331: 0x0896 [0x23] WAIT_FOR_DIALOG_INTERACTION
332: 0x0897 [0x2A] GET_REQ_LEVEL(level=3, entity_id=Trion (ID: 17768556/0x010F206C))
333: 0x089D [0x7B] Trion (ID: 17768556/0x010F206C) stops talking
334: 0x08A2 [0x45] LOAD_SCHEDULED_TASK: Load scheduler "y005" with entities [LocalPlayer, LocalPlayer], work=[64*, 0*]
335: 0x08B3 [0x1C] WAIT(30* ticks)
336: 0x08B6 [0x27] REQ_SET(priority=0x03, entity_id=Trion (ID: 17768556/0x010F206C), tag_num=0x08)
337: 0x08BD [0x2B] Trion (ID: 17768556/0x010F206C) [8665*]:
    → "Excenmille offered me with the following suggestion..."
338: 0x08C4 [0x23] WAIT_FOR_DIALOG_INTERACTION
339: 0x08C5 [0x5D] SET_MUSIC_VOLUME(volume=0*, fade_time=360*)
340: 0x08CA [0x55] WAIT_LOAD_SCHEDULER: Wait for scheduler "y005" with entities [LocalPlayer, LocalPlayer], work=64*
341: 0x08D9 [0x2B] Trion (ID: 17768556/0x010F206C) [8666*]:
    → "Revive Conflict!"
342: 0x08E0 [0x23] WAIT_FOR_DIALOG_INTERACTION
343: 0x08E1 [0x27] REQ_SET(priority=0x03, entity_id=Trion (ID: 17768556/0x010F206C), tag_num=0x09)
344: 0x08E8 [0x45] LOAD_SCHEDULED_TASK: Load scheduler "y009" with entities [LocalPlayer, LocalPlayer], work=[64*, 0*]
345: 0x08F9 [0x55] WAIT_LOAD_SCHEDULER: Wait for scheduler "y009" with entities [LocalPlayer, LocalPlayer], work=64*
346: 0x0908 [0x5C] MUSIC_CONTROL: Set Idle (Day) music to song 120*
347: 0x090C [0x5C] MUSIC_CONTROL: Set Idle (Night) music to song 120*
348: 0x0910 [0x7C] Volker (ID: 17768558/0x010F206E)->Render.Flags2 |= 0x00
349: 0x0916 [0x2B] Volker (ID: 17768558/0x010F206E) [8667*]:
    → "..."
350: 0x091D [0x23] WAIT_FOR_DIALOG_INTERACTION
351: 0x091E [0x7C] Volker (ID: 17768558/0x010F206E)->Render.Flags2 |= 0x01
352: 0x0924 [0x02] IF !(ExtData[1]->WorkLocal[4] == 0*) GOTO 0x094F
353: 0x092C [0x45] LOAD_SCHEDULED_TASK: Load scheduler "y00a" with entities [LocalPlayer, LocalPlayer], work=[64*, 0*]
354: 0x093D [0x55] WAIT_LOAD_SCHEDULER: Wait for scheduler "y00a" with entities [LocalPlayer, LocalPlayer], work=64*
355: 0x094C [0x01] GOTO 0x096F
356: 0x094F [0x45] LOAD_SCHEDULED_TASK: Load scheduler "s002" with entities [LocalPlayer, LocalPlayer], work=[64*, 0*]
357: 0x0960 [0x55] WAIT_LOAD_SCHEDULER: Wait for scheduler "s002" with entities [LocalPlayer, LocalPlayer], work=64*

SUBROUTINE_096F:
358: 0x096F [0x7C] Shantotto (ID: 17768533/0x010F2055)->Render.Flags2 |= 0x00
359: 0x0975 [0x2B] Shantotto (ID: 17768533/0x010F2055) [8668*]:
    → "...!?"
360: 0x097C [0x23] WAIT_FOR_DIALOG_INTERACTION
361: 0x097D [0x7C] Shantotto (ID: 17768533/0x010F2055)->Render.Flags2 |= 0x01
362: 0x0983 [0x45] LOAD_SCHEDULED_TASK: Load scheduler "x001" with entities [LocalPlayer, LocalPlayer], work=[64*, 0*]
363: 0x0994 [0x1C] WAIT(20* ticks)
364: 0x0997 [0x27] REQ_SET(priority=0x03, entity_id=Wolfgang (ID: 17768553/0x010F2069), tag_num=0x02)
365: 0x099E [0x2B] Wolfgang (ID: 17768553/0x010F2069) [8669*]:
    → "C-Conflict!? A series of games based on battle exercises, played by select heroes from each of the nations..."
366: 0x09A5 [0x23] WAIT_FOR_DIALOG_INTERACTION
367: 0x09A6 [0x55] WAIT_LOAD_SCHEDULER: Wait for scheduler "x001" with entities [LocalPlayer, LocalPlayer], work=64*
368: 0x09B5 [0x2B] Wolfgang (ID: 17768553/0x010F2069) [8670*]:
    → "Due to the extreme level of danger involved, it was banned well before the Great War. You are not suggesting that we reinstate Conflict, are you?"
369: 0x09BC [0x23] WAIT_FOR_DIALOG_INTERACTION
370: 0x09BD [0x1C] WAIT(30* ticks)
371: 0x09C0 [0x2B] Trion (ID: 17768556/0x010F206C) [8671*]:
    → "That is what I propose."
372: 0x09C7 [0x23] WAIT_FOR_DIALOG_INTERACTION
373: 0x09C8 [0x27] REQ_SET(priority=0x03, entity_id=Wolfgang (ID: 17768553/0x010F2069), tag_num=0x03)
374: 0x09CF [0x45] LOAD_SCHEDULED_TASK: Load scheduler "x002" with entities [LocalPlayer, LocalPlayer], work=[64*, 0*]
375: 0x09E0 [0x27] REQ_SET(priority=0x03, entity_id=Volker (ID: 17768558/0x010F206E), tag_num=0x07)
376: 0x09E7 [0x2B] Volker (ID: 17768558/0x010F206E) [8672*]:
    → "Conflict... An interesting idea..."
377: 0x09EE [0x23] WAIT_FOR_DIALOG_INTERACTION
378: 0x09EF [0x2B] Volker (ID: 17768558/0x010F206E) [8673*]:
    → "There was once a time when Conflict ignited the spirits of the people of Bastok--players and fans alike."
379: 0x09F6 [0x23] WAIT_FOR_DIALOG_INTERACTION
380: 0x09F7 [0x27] REQ_SET(priority=0x03, entity_id=Volker (ID: 17768558/0x010F206E), tag_num=0x08)
381: 0x09FE [0x2B] Volker (ID: 17768558/0x010F206E) [8674*]:
    → "However, after numerous "accidents," the games were deemed a bad influence on the Republic's image, and were banned by law."
382: 0x0A05 [0x23] WAIT_FOR_DIALOG_INTERACTION
383: 0x0A06 [0x2B] Volker (ID: 17768558/0x010F206E) [8675*]:
    → "If Conflict was reinstated, it could re-ignite the flames in the hearts of all Bastokers and renew their faith in the Republican Army. Morale would be restored, and our problems solved."
384: 0x0A0D [0x23] WAIT_FOR_DIALOG_INTERACTION
385: 0x0A0E [0x55] WAIT_LOAD_SCHEDULER: Wait for scheduler "x002" with entities [LocalPlayer, LocalPlayer], work=64*
386: 0x0A1D [0x02] IF !(ExtData[1]->WorkLocal[4] == 0*) GOTO 0x0AA7
387: 0x0A25 [0x45] LOAD_SCHEDULED_TASK: Load scheduler "x003" with entities [LocalPlayer, LocalPlayer], work=[64*, 0*]
388: 0x0A36 [0x27] REQ_SET(priority=0x03, entity_id=Shantotto (ID: 17768533/0x010F2055), tag_num=0x06)
389: 0x0A3D [0x2B] Shantotto (ID: 17768533/0x010F2055) [8676*]:
    → "Prince Trion, Prince Trion. If that's all that you wanted to say, you didn't have to go beat around the bush all day."
390: 0x0A44 [0x23] WAIT_FOR_DIALOG_INTERACTION
391: 0x0A45 [0x2B] Shantotto (ID: 17768533/0x010F2055) [8677*]:
    → "Windurst welcomes Conflict with open arms! A little feuding fun could do no harm."
392: 0x0A4C [0x23] WAIT_FOR_DIALOG_INTERACTION
393: 0x0A4D [0x27] REQ_SET(priority=0x03, entity_id=Shantotto (ID: 17768533/0x010F2055), tag_num=0x07)
394: 0x0A54 [0x4A] Ajido-Marujido (ID: 17768471/0x010F2017) looks at Shantotto (ID: 17768533/0x010F2055)
395: 0x0A5D [0x1C] WAIT(10* ticks)
396: 0x0A60 [0x2B] Ajido-Marujido (ID: 17768471/0x010F2017) [8678*]:
    → "Shantotto!?"
397: 0x0A67 [0x23] WAIT_FOR_DIALOG_INTERACTION
398: 0x0A68 [0x2A] GET_REQ_LEVEL(level=3, entity_id=Shantotto (ID: 17768533/0x010F2055))
399: 0x0A6E [0x27] REQ_SET(priority=0x03, entity_id=Shantotto (ID: 17768533/0x010F2055), tag_num=0x09)
400: 0x0A75 [0x2B] Shantotto (ID: 17768533/0x010F2055) [8679*]:
    → "Oh, there's nothing to get all excited about. The forces of Windurst are in good hands. A couple of knutty knights and measly musketeers are no match for Shantotto's superior battle plans."
401: 0x0A7C [0x23] WAIT_FOR_DIALOG_INTERACTION
402: 0x0A7D [0x2B] Shantotto (ID: 17768533/0x010F2055) [8681*]:
    → "And once we get our fearless loyal adventurers to help, it will be your two nations letting out cries and yelps."
403: 0x0A84 [0x23] WAIT_FOR_DIALOG_INTERACTION
404: 0x0A85 [0x6F] WAIT_FRAME_DELAY: Yield until WaitTime reaches zero
405: 0x0A86 [0x76] CHECK_ENTITY_RENDER_FLAGS: Wait until Ajido-Marujido (ID: 17768471/0x010F2017) Render.Flags0 and Render.Flags3 conditions are met
406: 0x0A8B [0x27] REQ_SET(priority=0x03, entity_id=Ajido-Marujido (ID: 17768471/0x010F2017), tag_num=0x08)
407: 0x0A92 [0x1C] WAIT(60* ticks)
408: 0x0A95 [0x55] WAIT_LOAD_SCHEDULER: Wait for scheduler "x003" with entities [LocalPlayer, LocalPlayer], work=64*
409: 0x0AA4 [0x01] GOTO 0x0AF5
410: 0x0AA7 [0x45] LOAD_SCHEDULED_TASK: Load scheduler "s003" with entities [LocalPlayer, LocalPlayer], work=[64*, 0*]
411: 0x0AB8 [0x27] REQ_SET(priority=0x03, entity_id=Shantotto (ID: 17768533/0x010F2055), tag_num=0x06)
412: 0x0ABF [0x2B] Shantotto (ID: 17768533/0x010F2055) [8676*]:
    → "Prince Trion, Prince Trion. If that's all that you wanted to say, you didn't have to go beat around the bush all day."
413: 0x0AC6 [0x23] WAIT_FOR_DIALOG_INTERACTION
414: 0x0AC7 [0x2B] Shantotto (ID: 17768533/0x010F2055) [8677*]:
    → "Windurst welcomes Conflict with open arms! A little feuding fun could do no harm."
415: 0x0ACE [0x23] WAIT_FOR_DIALOG_INTERACTION
416: 0x0ACF [0x27] REQ_SET(priority=0x03, entity_id=Shantotto (ID: 17768533/0x010F2055), tag_num=0x07)
417: 0x0AD6 [0x2B] Shantotto (ID: 17768533/0x010F2055) [8680*]:
    → "The forces of Windurst are in good hands. A couple of knutty knights and measly musketeers are no match for Shantotto's superior battle plans."
418: 0x0ADD [0x23] WAIT_FOR_DIALOG_INTERACTION
419: 0x0ADE [0x2B] Shantotto (ID: 17768533/0x010F2055) [8681*]:
    → "And once we get our fearless loyal adventurers to help, it will be your two nations letting out cries and yelps."
420: 0x0AE5 [0x23] WAIT_FOR_DIALOG_INTERACTION
421: 0x0AE6 [0x55] WAIT_LOAD_SCHEDULER: Wait for scheduler "s003" with entities [LocalPlayer, LocalPlayer], work=64*

SUBROUTINE_0AF5:
422: 0x0AF5 [0x7B] Wolfgang (ID: 17768553/0x010F2069) stops talking
423: 0x0AFA [0x4A] Volker (ID: 17768558/0x010F206E) looks at Wolfgang (ID: 17768553/0x010F2069)
424: 0x0B03 [0x1C] WAIT(5* ticks)
425: 0x0B06 [0x45] LOAD_SCHEDULED_TASK: Load scheduler "x004" with entities [LocalPlayer, LocalPlayer], work=[64*, 0*]
426: 0x0B17 [0x55] WAIT_LOAD_SCHEDULER: Wait for scheduler "x004" with entities [LocalPlayer, LocalPlayer], work=64*
427: 0x0B26 [0x02] IF !(ExtData[1]->WorkLocal[4] == 0*) GOTO 0x0B37
428: 0x0B2E [0x6B] STOP_AND_IDLE: Shantotto (ID: 17768533/0x010F2055) stops current action and resets to idle (animation="idl0")
429: 0x0B37 [0x6F] WAIT_FRAME_DELAY: Yield until WaitTime reaches zero
430: 0x0B38 [0x76] CHECK_ENTITY_RENDER_FLAGS: Wait until Volker (ID: 17768558/0x010F206E) Render.Flags0 and Render.Flags3 conditions are met
431: 0x0B3D [0x27] REQ_SET(priority=0x03, entity_id=Volker (ID: 17768558/0x010F206E), tag_num=0x03)
432: 0x0B44 [0x2B] Volker (ID: 17768558/0x010F206E) [8682*]:
    → "If San d'Oria and Windurst have agreed to participate, the president is sure to grant his approval."
433: 0x0B4B [0x23] WAIT_FOR_DIALOG_INTERACTION
434: 0x0B4C [0x2B] Volker (ID: 17768558/0x010F206E) [8683*]:
    → "And I know our adventurers will be more than happy to take up their swords for the Republic."
435: 0x0B53 [0x23] WAIT_FOR_DIALOG_INTERACTION
436: 0x0B54 [0x27] REQ_SET(priority=0x03, entity_id=Volker (ID: 17768558/0x010F206E), tag_num=0x04)
437: 0x0B5B [0x4A] Trion (ID: 17768556/0x010F206C) looks at Wolfgang (ID: 17768553/0x010F2069)
438: 0x0B64 [0x1C] WAIT(10* ticks)
439: 0x0B67 [0x2B] Trion (ID: 17768556/0x010F206C) [8684*]:
    → "Excellent. I look forward to meeting you all again on the battlefield."
440: 0x0B6E [0x23] WAIT_FOR_DIALOG_INTERACTION
441: 0x0B6F [0x4B] UPDATE_ENTITY_YAW(entity=Wolfgang (ID: 17768553/0x010F2069), yaw=5.6°*)
442: 0x0B76 [0x1C] WAIT(10* ticks)
443: 0x0B79 [0x4A] Shantotto (ID: 17768533/0x010F2055) looks at Wolfgang (ID: 17768553/0x010F2069)
444: 0x0B82 [0x1C] WAIT(10* ticks)
445: 0x0B85 [0x4A] Ajido-Marujido (ID: 17768471/0x010F2017) looks at Wolfgang (ID: 17768553/0x010F2069)
446: 0x0B8E [0x1C] WAIT(10* ticks)
447: 0x0B91 [0x45] LOAD_SCHEDULED_TASK: Load scheduler "x005" with entities [LocalPlayer, LocalPlayer], work=[64*, 0*]
448: 0x0BA2 [0x2B] Wolfgang (ID: 17768553/0x010F2069) [8685*]:
    → "Well... It is a rare occasion that all three nations agree on an issue."
449: 0x0BA9 [0x23] WAIT_FOR_DIALOG_INTERACTION
450: 0x0BAA [0x2B] Wolfgang (ID: 17768553/0x010F2069) [8686*]:
    → "Unfortunately, ducal law prevents Jeuno from participating in such matters."
451: 0x0BB1 [0x23] WAIT_FOR_DIALOG_INTERACTION
452: 0x0BB2 [0x2B] Wolfgang (ID: 17768553/0x010F2069) [8687*]:
    → "However, we will assign officials to take part as Heralds and watch over the games."
453: 0x0BB9 [0x23] WAIT_FOR_DIALOG_INTERACTION
454: 0x0BBA [0x55] WAIT_LOAD_SCHEDULER: Wait for scheduler "x005" with entities [LocalPlayer, LocalPlayer], work=64*
455: 0x0BC9 [0x27] REQ_SET(priority=0x03, entity_id=Volker (ID: 17768558/0x010F206E), tag_num=0x05)
456: 0x0BD0 [0x2B] Volker (ID: 17768558/0x010F206E) [8688*]:
    → "I have no objections. Now let us return to our nations and begin with the preparations."
457: 0x0BD7 [0x23] WAIT_FOR_DIALOG_INTERACTION
458: 0x0BD8 [0x27] REQ_SET(priority=0x03, entity_id=Trion (ID: 17768556/0x010F206C), tag_num=0x04)
459: 0x0BDF [0x2B] Trion (ID: 17768556/0x010F206C) [8689*]:
    → "Then it has been decided. Sir Wolfgang."
460: 0x0BE6 [0x23] WAIT_FOR_DIALOG_INTERACTION
461: 0x0BE7 [0x45] LOAD_SCHEDULED_TASK: Load scheduler "x006" with entities [LocalPlayer, LocalPlayer], work=[64*, 0*]
462: 0x0BF8 [0x1C] WAIT(30* ticks)
463: 0x0BFB [0x27] REQ_SET(priority=0x03, entity_id=Volker (ID: 17768558/0x010F206E), tag_num=0x06)
464: 0x0C02 [0x27] REQ_SET(priority=0x03, entity_id=Trion (ID: 17768556/0x010F206C), tag_num=0x05)
465: 0x0C09 [0x2B] Wolfgang (ID: 17768553/0x010F2069) [8690*]:
    → "Ahem. Then, if there is nothing further, I call the 136th Conquest Evaluation Assembly to a close."
466: 0x0C10 [0x23] WAIT_FOR_DIALOG_INTERACTION
467: 0x0C11 [0x55] WAIT_LOAD_SCHEDULER: Wait for scheduler "x006" with entities [LocalPlayer, LocalPlayer], work=64*
468: 0x0C20 [0x7B] Shantotto (ID: 17768533/0x010F2055) stops talking
469: 0x0C25 [0x02] IF !(ExtData[1]->WorkLocal[4] == 0*) GOTO 0x0C30
470: 0x0C2D [0x01] GOTO 0x0C37
471: 0x0C30 [0x29] REQ_SET_WAIT(priority=0x03, entity_id=Shantotto (ID: 17768533/0x010F2055), tag_num=0x03)

SUBROUTINE_0C37:
472: 0x0C37 [0x4B] UPDATE_ENTITY_YAW(entity=Shantotto (ID: 17768533/0x010F2055), yaw=10.4°*)
473: 0x0C3E [0x27] REQ_SET(priority=0x03, entity_id=Volker (ID: 17768558/0x010F206E), tag_num=0x02)
474: 0x0C45 [0x27] REQ_SET(priority=0x03, entity_id=Trion (ID: 17768556/0x010F206C), tag_num=0x03)
475: 0x0C4C [0x1C] WAIT(100* ticks)
476: 0x0C4F [0x4A] Rahal (ID: 17768557/0x010F206D) looks at Trion (ID: 17768556/0x010F206C)
477: 0x0C58 [0x1C] WAIT(50* ticks)
478: 0x0C5B [0x45] LOAD_SCHEDULED_TASK: Load scheduler "x007" with entities [LocalPlayer, LocalPlayer], work=[64*, 0*]
479: 0x0C6C [0x02] IF !(ExtData[1]->WorkLocal[4] == 0*) GOTO 0x0C7F
480: 0x0C74 [0x2B] Shantotto (ID: 17768533/0x010F2055) [8691*]:
    → "Though I'd rather be sitting on the beach, catching some sun, sometimes these stuffy-snuffy meetings can be kind of fun!"
481: 0x0C7B [0x23] WAIT_FOR_DIALOG_INTERACTION
482: 0x0C7C [0x01] GOTO 0x0C87
483: 0x0C7F [0x2B] Shantotto (ID: 17768533/0x010F2055) [8692*]:
    → "Though I'd rather be sitting on the beach, catching some sun, sometimes these stuffy-snuffy meetings can be kind of fun!"
484: 0x0C86 [0x23] WAIT_FOR_DIALOG_INTERACTION

SUBROUTINE_0C87:
485: 0x0C87 [0x27] REQ_SET(priority=0x03, entity_id=Shantotto (ID: 17768533/0x010F2055), tag_num=0x09)
486: 0x0C8E [0x2B] Shantotto (ID: 17768533/0x010F2055) [8693*]:
    → "I could take up my staff and participate in Conflict myself, but my super-duper whammy-slammy spells would be bad for my opponents' health! Ohohohohoho!"
487: 0x0C95 [0x1C] WAIT(100* ticks)
488: 0x0C98 [0x55] WAIT_LOAD_SCHEDULER: Wait for scheduler "x007" with entities [LocalPlayer, LocalPlayer], work=64*
489: 0x0CA7 [0x45] LOAD_SCHEDULED_TASK: Load scheduler "fdo2" with entities [LocalPlayer, LocalPlayer], work=[200*, 0*]
490: 0x0CB8 [0x55] WAIT_LOAD_SCHEDULER: Wait for scheduler "fdo2" with entities [LocalPlayer, LocalPlayer], work=200*
491: 0x0CC7 [0x23] WAIT_FOR_DIALOG_INTERACTION
492: 0x0CC8 [0x35] LOAD_ZONE_NO_CLOSE(zone_id=242*)
493: 0x0CCB [0x75] LOAD_ROOM(Load indoor room, room=426*)
494: 0x0CCF [0x75] LOAD_ROOM(No action)
495: 0x0CD1 [0x1C] WAIT(100* ticks)
496: 0x0CD4 [0x78] ENABLE_GAME_TIMER_RESET_WEATHER()
497: 0x0CD5 [0x46] CAMERA_CONTROL: Restore default settings
498: 0x0CD7 [0x38] SET_CLIENT_EVENT_MODE(mode=0*)
499: 0x0CDA [0x37] UPDATE_EVENT_POSITION_AND_DIR: x=ExtData[1]->WorkLocal[0], z=ExtData[1]->WorkLocal[1], y=ExtData[1]->WorkLocal[2], direction=ExtData[1]->WorkLocal[3]
500: 0x0CE3 [0x29] REQ_SET_WAIT(priority=0x03, entity_id=LocalPlayer, tag_num=0x5F)
501: 0x0CEA [0x4E] SET_ENTITY_HIDE_FLAG: Show LocalPlayer
502: 0x0CF0 [0x4E] SET_ENTITY_HIDE_FLAG: Show EventEntity
503: 0x0CF6 [0x80] LOAD_WAIT(entity=LocalPlayer)
504: 0x0CFB [0x80] LOAD_WAIT(entity=EventEntity)
505: 0x0D00 [0x45] LOAD_SCHEDULED_TASK: Load scheduler "fdi2" with entities [LocalPlayer, LocalPlayer], work=[200*, 0*]
506: 0x0D11 [0x5C] MUSIC_CONTROL: Set Idle (Day) music to song 162*
507: 0x0D15 [0x5C] MUSIC_CONTROL: Set Idle (Night) music to song 162*
508: 0x0D19 [0x02] IF !(Work_Zone[3] == 0*) GOTO 0x0D34
509: 0x0D21 [0x2B] Mhabi Molkot (ID: 17768552/0x010F2068) [8845*]:
    → "And there you have it. The bigwigs up in the ministries probably hearrrd that I was a professional Conflict player back in my homeland, and entrrrusted me with the reins of this runaway horse."
510: 0x0D28 [0x23] WAIT_FOR_DIALOG_INTERACTION
511: 0x0D29 [0x2B] Mhabi Molkot (ID: 17768552/0x010F2068) [8846*]:
    → "Maybe it's my instincts talking, but you look like the type who's dying for a chance at the hunt. What do you say?"
512: 0x0D30 [0x23] WAIT_FOR_DIALOG_INTERACTION
513: 0x0D31 [0x1A] CALL_SUBROUTINE(address=0x0D4C)
514: 0x0D34 [0x21] END_EVENT
515: 0x0D35 [0x00] END_REQSTACK()
```

### Event 414

#### Metadata

| Field        | Value     |
|--------------|-----------|
| Entrypoint   | 0x0D36    |
| Data Size    | 116 bytes |
| Instructions | 33        |

```
      00 01 02 03 04 05 06 07  08 09 0A 0B 0C 0D 0E 0F
      -- -- -- -- -- -- -- --  -- -- -- -- -- -- -- --
0D30:                   20 01  1E F0 FF FF 7F 6F 70 2B         ......op+
0D40: 68 20 0F 01 79 80 23 1A  4C 0D 21 00 06 01 10 24  h ..y.#.L.!....$
0D50: 7A 80 12 80 03 80 25 02  00 10 03 80 00 96 0D 42  z.....%........B
0D60: 2B 68 20 0F 01 7B 80 23  2B 68 20 0F 01 7C 80 23  +h ..{.#+h ..|.#
0D70: 2B 68 20 0F 01 7D 80 23  2B 68 20 0F 01 7E 80 23  +h ..}.#+h ..~.#
0D80: 2B 68 20 0F 01 7F 80 23  2B 68 20 0F 01 80 80 23  +h ....#+h ....#
0D90: 05 01 10 01 A9 0D 02 00  10 12 80 00 A9 0D 2B 68  ..............+h
0DA0: 20 0F 01 81 80 23 01 A9  0D 1B                     ....#....      
```

#### Opcodes

```
  0: 0x0D36 [0x20] SET_CLI_EVENT_UC_FLAG: Lock player control
  1: 0x0D38 [0x1E] EventEntity looks at LocalPlayer and starts talking
  2: 0x0D3D [0x6F] WAIT_FRAME_DELAY: Yield until WaitTime reaches zero
  3: 0x0D3E [0x70] WAIT_ENTITY_RENDER_FLAG: Wait while EventEntity->Render.Flags3 bit 2 is set (cancel turn if not)
  4: 0x0D3F [0x2B] Mhabi Molkot (ID: 17768552/0x010F2068) [8859*]:
    → "Well, look who's back. I knew you couldn't rrresist the excitement of Conflict. You're ready to sign up, right?"
  5: 0x0D46 [0x23] WAIT_FOR_DIALOG_INTERACTION
  6: 0x0D47 [0x1A] CALL_SUBROUTINE(address=0x0D4C)
  7: 0x0D4A [0x21] END_EVENT
  8: 0x0D4B [0x00] END_REQSTACK()

SUBROUTINE_0D4C:
  9: 0x0D4C [0x06] Work_Zone[1] = 0
 10: 0x0D4F [0x24] CREATE_DIALOG(message_id=8797*, default_option=1*, option_flags=0*)
    → "Register for Conflict? [Sign me up!/I need more time to think.]"
 11: 0x0D56 [0x25] WAIT_DIALOG_SELECT()
 12: 0x0D57 [0x02] IF !(Work_Zone[0] == 0*) GOTO 0x0D96
 13: 0x0D5F [0x42] SET_CLI_EVENT_CANCEL_DATA()
 14: 0x0D60 [0x2B] Mhabi Molkot (ID: 17768552/0x010F2068) [8867*]:
    → "Wonderful! I know you'rrre ready to get out there and starrrt fighting right away, but before you do, you'rrre going to need a license."
 15: 0x0D67 [0x23] WAIT_FOR_DIALOG_INTERACTION
 16: 0x0D68 [0x2B] Mhabi Molkot (ID: 17768552/0x010F2068) [8868*]:
    → "To get a license, you'll need to meet the leaders of the other two nations."
