# 17768471 - Ajido-Marujido

## Common Data

| Field            | Value                   |
|------------------|-------------------------|
| Zone             | Heavens Tower (ID: 242) |
| Block Size       | 2828 bytes              |
| Total Events     | 109                     |
| References Count | 135                     |

## List of Events

| Event ID                   | Entrypoint   |   Size |   Instructions |
|----------------------------|--------------|--------|----------------|
| [65535](#event-65535)      | 0x0000       |      1 |              1 |
| [413](#event-413)          | 0x0001       |     16 |              3 |
| [65535.1](#event-655351)   | 0x0011       |     29 |              3 |
| [65535.2](#event-655352)   | 0x002E       |     29 |              3 |
| [65535.3](#event-655353)   | 0x004B       |     29 |              3 |
| [65535.4](#event-655354)   | 0x0068       |     29 |              3 |
| [65535.5](#event-655355)   | 0x0085       |     29 |              3 |
| [65535.6](#event-655356)   | 0x00A2       |     29 |              3 |
| [65535.7](#event-655357)   | 0x00BF       |     29 |              3 |
| [65535.8](#event-655358)   | 0x00DC       |     16 |              2 |
| [65535.9](#event-655359)   | 0x00EC       |     14 |              2 |
| [65535.10](#event-6553510) | 0x00FA       |     16 |              2 |
| [65535.11](#event-6553511) | 0x010A       |     14 |              2 |
| [65535.12](#event-6553512) | 0x0118       |     16 |              2 |
| [65535.13](#event-6553513) | 0x0128       |     14 |              2 |
| [65535.14](#event-6553514) | 0x0136       |     16 |              2 |
| [65535.15](#event-6553515) | 0x0146       |     14 |              2 |
| [65535.16](#event-6553516) | 0x0154       |     16 |              2 |
| [65535.17](#event-6553517) | 0x0164       |     22 |              4 |
| [65535.18](#event-6553518) | 0x017A       |     16 |              2 |
| [65535.19](#event-6553519) | 0x018A       |     14 |              2 |
| [65535.20](#event-6553520) | 0x0198       |     16 |              2 |
| [65535.21](#event-6553521) | 0x01A8       |     14 |              2 |
| [65535.22](#event-6553522) | 0x01B6       |     16 |              2 |
| [65535.23](#event-6553523) | 0x01C6       |     14 |              2 |
| [65535.24](#event-6553524) | 0x01D4       |     16 |              2 |
| [65535.25](#event-6553525) | 0x01E4       |     14 |              2 |
| [65535.26](#event-6553526) | 0x01F2       |     16 |              2 |
| [65535.27](#event-6553527) | 0x0202       |     14 |              2 |
| [65535.28](#event-6553528) | 0x0210       |     16 |              2 |
| [65535.29](#event-6553529) | 0x0220       |     14 |              2 |
| [65535.30](#event-6553530) | 0x022E       |     16 |              2 |
| [65535.31](#event-6553531) | 0x023E       |     22 |              4 |
| [65535.32](#event-6553532) | 0x0254       |     16 |              2 |
| [65535.33](#event-6553533) | 0x0264       |     14 |              2 |
| [65535.34](#event-6553534) | 0x0272       |     16 |              2 |
| [65535.35](#event-6553535) | 0x0282       |     14 |              2 |
| [65535.36](#event-6553536) | 0x0290       |     16 |              2 |
| [65535.37](#event-6553537) | 0x02A0       |     14 |              2 |
| [65535.38](#event-6553538) | 0x02AE       |     16 |              2 |
| [65535.39](#event-6553539) | 0x02BE       |     14 |              2 |
| [65535.40](#event-6553540) | 0x02CC       |     16 |              2 |
| [65535.41](#event-6553541) | 0x02DC       |     14 |              2 |
| [65535.42](#event-6553542) | 0x02EA       |      9 |              3 |
| [65535.43](#event-6553543) | 0x02F3       |     36 |              4 |
| [65535.44](#event-6553544) | 0x0317       |     14 |              2 |
| [65535.45](#event-6553545) | 0x0325       |     16 |              2 |
| [65535.46](#event-6553546) | 0x0335       |     14 |              2 |
| [65535.47](#event-6553547) | 0x0343       |     16 |              2 |
| [65535.48](#event-6553548) | 0x0353       |     14 |              2 |
| [65535.49](#event-6553549) | 0x0361       |     16 |              2 |
| [65535.50](#event-6553550) | 0x0371       |     14 |              2 |
| [6](#event-6)              | 0x037F       |      1 |              1 |
| [107](#event-107)          | 0x0380       |     10 |              2 |
| [65535.51](#event-6553551) | 0x038A       |     34 |              8 |
| [65535.52](#event-6553552) | 0x03AC       |     10 |              2 |
| [65535.53](#event-6553553) | 0x03B6       |     15 |              5 |
| [65535.54](#event-6553554) | 0x03C5       |     10 |              2 |
| [65535.55](#event-6553555) | 0x03CF       |     15 |              5 |
| [65535.56](#event-6553556) | 0x03DE       |     21 |              5 |
| [65535.57](#event-6553557) | 0x03F3       |     12 |              4 |
| [65535.58](#event-6553558) | 0x03FF       |      5 |              3 |
| [65535.59](#event-6553559) | 0x0404       |      5 |              3 |
| [65535.60](#event-6553560) | 0x0409       |     19 |              5 |
| [65535.61](#event-6553561) | 0x041C       |     23 |              7 |
| [65535.62](#event-6553562) | 0x0433       |     19 |              5 |
| [42](#event-42)            | 0x0446       |     10 |              2 |
| [65535.63](#event-6553563) | 0x0450       |     47 |             10 |
| [335](#event-335)          | 0x047F       |      1 |              1 |
| [362](#event-362)          | 0x0480       |      1 |              1 |
| [65535.64](#event-6553564) | 0x0481       |     16 |              3 |
| [65535.65](#event-6553565) | 0x0491       |     21 |              7 |
| [65535.66](#event-6553566) | 0x04A6       |     16 |              3 |
| [65535.67](#event-6553567) | 0x04B6       |     14 |              4 |
| [65535.68](#event-6553568) | 0x04C4       |     22 |              8 |
| [65535.69](#event-6553569) | 0x04DA       |     10 |              2 |
| [65535.70](#event-6553570) | 0x04E4       |     22 |              8 |
| [65535.71](#event-6553571) | 0x04FA       |     10 |              2 |
| [65535.72](#event-6553572) | 0x0504       |     15 |              5 |
| [65535.73](#event-6553573) | 0x0513       |      9 |              5 |
| [65535.74](#event-6553574) | 0x051C       |      5 |              3 |
| [65535.75](#event-6553575) | 0x0521       |      5 |              3 |
| [65535.76](#event-6553576) | 0x0526       |     17 |              5 |
| [384](#event-384)          | 0x0537       |      1 |              1 |
| [65535.77](#event-6553577) | 0x0538       |     10 |              2 |
| [65535.78](#event-6553578) | 0x0542       |     14 |              4 |
| [65535.79](#event-6553579) | 0x0550       |     87 |              7 |
| [65535.80](#event-6553580) | 0x05A7       |     14 |              4 |
| [65535.81](#event-6553581) | 0x05B5       |     14 |              4 |
| [65535.82](#event-6553582) | 0x05C3       |     21 |              7 |
| [65535.83](#event-6553583) | 0x05D8       |     14 |              4 |
| [65535.84](#event-6553584) | 0x05E6       |     10 |              2 |
| [385](#event-385)          | 0x05F0       |      1 |              1 |
| [65535.85](#event-6553585) | 0x05F1       |     19 |              3 |
| [65535.86](#event-6553586) | 0x0604       |     14 |              4 |
| [65535.87](#event-6553587) | 0x0612       |     28 |              8 |
| [65535.88](#event-6553588) | 0x062E       |     30 |              8 |
| [65535.89](#event-6553589) | 0x064C       |     94 |              8 |
| [65535.90](#event-6553590) | 0x06AA       |     14 |              4 |
| [386](#event-386)          | 0x06B8       |      1 |              1 |
| [65535.91](#event-6553591) | 0x06B9       |     10 |              2 |
| [65535.92](#event-6553592) | 0x06C3       |     14 |              4 |
| [65535.93](#event-6553593) | 0x06D1       |     10 |              2 |
| [65535.94](#event-6553594) | 0x06DB       |     14 |              4 |
| [65535.95](#event-6553595) | 0x06E9       |     14 |              4 |
| [65535.96](#event-6553596) | 0x06F7       |     14 |              4 |
| [65535.97](#event-6553597) | 0x0705       |     10 |              2 |
| [65535.98](#event-6553598) | 0x070F       |     14 |              4 |
| [65535.99](#event-6553599) | 0x071D       |     14 |              4 |

## DAT References (imed_data)

|   Index | Hex Value   |   Dec Value |
|---------|-------------|-------------|
|       0 | 0x878D      |       34701 |
|       1 | 0x10B54     |       68436 |
|       2 | 0x07C7      |        1991 |
|       3 | 0x0884      |        2180 |
|       4 | 0x00A5      |         165 |
|       5 | 0x0151      |         337 |
|       6 | 0x001E      |          30 |
|       7 | 0x00A9      |         169 |
|       8 | 0x0155      |         341 |
|       9 | 0x000F      |          15 |
|      10 | 0x002C      |          44 |
|      11 | 0x0000      |           0 |
|      12 | 0x00A7      |         167 |
|      13 | 0xFFFFF955  |  4294965589 |
|      14 | 0xFFFF8BD0  |  4294937552 |
|      15 | 0xFFFF5038  |  4294922296 |
|      16 | 0x0EC4      |        3780 |
|      17 | 0x000D      |          13 |
|      18 | 0xFFFFF269  |  4294963817 |
|      19 | 0xFFFF889A  |  4294936730 |
|      20 | 0x0FCD      |        4045 |
|      21 | 0x00F5      |         245 |
|      22 | 0xFFFF9821  |  4294940705 |
|      23 | 0x0057      |          87 |
|      24 | 0xFFFFBF00  |  4294950656 |
|      25 | 0xFFFF4963  |  4294920547 |
|      26 | 0x01A8      |         424 |
|      27 | 0xFFFFC6E1  |  4294952673 |
|      28 | 0xFFFF4869  |  4294920297 |
|      29 | 0x0BEB      |        3051 |
|      30 | 0x0033      |          51 |
|      31 | 0xFFFFE819  |  4294961177 |
|      32 | 0x0129      |         297 |
|      33 | 0xFFFFF246  |  4294963782 |
|      34 | 0x0BA1      |        2977 |
|      35 | 0xFFFFFEED  |  4294967021 |
|      36 | 0xFFFFF90E  |  4294965518 |
|      37 | 0xFFFFFFD4  |  4294967252 |
|      38 | 0xFFFFEC95  |  4294962325 |
|      39 | 0x048A      |        1162 |
|      40 | 0x00A8      |         168 |
|      41 | 0xFFFFDE9A  |  4294958746 |
|      42 | 0x017A      |         378 |
|      43 | 0xFFFFB012  |  4294946834 |
|      44 | 0xFFFF4C51  |  4294921297 |
|      45 | 0x00AB      |         171 |
|      46 | 0x00AC      |         172 |
|      47 | 0x00AD      |         173 |
|      48 | 0x00AE      |         174 |
|      49 | 0x139C      |        5020 |
|      50 | 0xFFFFCBFD  |  4294953981 |
|      51 | 0x02ED      |         749 |
|      52 | 0x047A      |        1146 |
|      53 | 0x0B41      |        2881 |
|      54 | 0xFFFFAEFB  |  4294946555 |
|      55 | 0x00F9      |         249 |
|      56 | 0x0017      |          23 |
|      57 | 0xFFFF7C8E  |  4294933646 |
|      58 | 0x0001      |           1 |
|      59 | 0x0064      |         100 |
|      60 | 0x0341      |         833 |
|      61 | 0xC7C0      |       51136 |
|      62 | 0xFFFF2D11  |  4294913297 |
|      63 | 0x0C80      |        3200 |
|      64 | 0x0028      |          40 |
|      65 | 0xFFFFFFD3  |  4294967251 |
|      66 | 0xF24F      |       62031 |
|      67 | 0xFFFF1394  |  4294906772 |
|      68 | 0x053B      |        1339 |
|      69 | 0xBE3B      |       48699 |
|      70 | 0xFFFF11A3  |  4294906275 |
|      71 | 0x0628      |        1576 |
|      72 | 0x0197      |         407 |
|      73 | 0xBDD6      |       48598 |
|      74 | 0xFFFF11B8  |  4294906296 |
|      75 | 0x0036      |          54 |
|      76 | 0xBB69      |       47977 |
|      77 | 0x0848      |        2120 |
|      78 | 0xFFFFFFEE  |  4294967278 |
|      79 | 0xB98C      |       47500 |
|      80 | 0xBD3B      |       48443 |
|      81 | 0x0400      |        1024 |
|      82 | 0xFFFFFB39  |  4294966073 |
|      83 | 0xBFA5      |       49061 |
|      84 | 0x2026      |        8230 |
|      85 | 0x2027      |        8231 |
|      86 | 0x2029      |        8233 |
|      87 | 0x2041      |        8257 |
|      88 | 0x2046      |        8262 |
|      89 | 0x22E80     |      142976 |
|      90 | 0xFFFFC31D  |  4294951709 |
|      91 | 0x32C8      |       13000 |
|      92 | 0x22C22     |      142370 |
|      93 | 0xFFFFB050  |  4294946896 |
|      94 | 0x00FC      |         252 |
|      95 | 0x00C8      |         200 |
|      96 | 0xFFFFB2A8  |  4294947496 |
|      97 | 0xFFFFB438  |  4294947896 |
|      98 | 0x22E16     |      142870 |
|      99 | 0xFFFFB244  |  4294947396 |
|     100 | 0xFFFFC504  |  4294952196 |
|     101 | 0xFFFFB1EE  |  4294947310 |
|     102 | 0x32C7      |       12999 |
|     103 | 0x034A      |         842 |
|     104 | 0x03BE      |         958 |
|     105 | 0xBB6C      |       47980 |
|     106 | 0x0847      |        2119 |
|     107 | 0xBA58      |       47704 |
|     108 | 0x08D4      |        2260 |
|     109 | 0xFFFFFF47  |  4294967111 |
|     110 | 0xBD0F      |       48399 |
|     111 | 0x03CA      |         970 |
|     112 | 0xBB80      |       48000 |
|     113 | 0x005A      |          90 |
|     114 | 0xC057      |       49239 |
|     115 | 0x0074      |         116 |
|     116 | 0x6EFB      |       28411 |
|     117 | 0xFFFF4099  |  4294918297 |
|     118 | 0x0C10      |        3088 |
|     119 | 0x866B      |       34411 |
|     120 | 0xFFFFFDDD  |  4294966749 |
|     121 | 0x0F05      |        3845 |
|     122 | 0x02CD      |         717 |
|     123 | 0x0205      |         517 |
|     124 | 0xFFFFFC18  |  4294966296 |
|     125 | 0xFFFFFE70  |  4294966896 |
|     126 | 0x01D2      |         466 |
|     127 | 0x0065      |         101 |
|     128 | 0xFFFF4868  |  4294920296 |
|     129 | 0x0487      |        1159 |
|     130 | 0x012C      |         300 |
|     131 | 0xFFFFFF38  |  4294967096 |
|     132 | 0xFFFFFFEF  |  4294967279 |
|     133 | 0xFFFFB9B1  |  4294949297 |
|     134 | 0xFFFF4A5C  |  4294920796 |

## String References

- **165**: Do you actually think that a mere group of kitty cats can save Windurst?
- **167**: How--how dare you! Look around. Does the Windurst you see around you look peaceful and happy-wappy?
- **171**: Joke? Show those blank pages to the Star Sibyl, and see if she's laughing.
- **172**: The Book of the Gods has gone blank! The broken Cardian soldiers are up to no good! And all Windurst has is an ancient, worn out, good-for-nothing army!
- **173**: And you just sit here, with your tails between your legs!
- **174**: Well, I'm tired of waiting! I, Ajido-Marujido, will save Windurst from these terrible-werrible times!
- **8230**: Star Sibyl, the magic the creature was using was no ordinary spellcraft. That power was of the Stars and the Moon. The same power that pulses through the Horutoto Ruins and fills the Mana Orbs...
- **8231**: It was the magic of Fenrir, the Great Beast that resided in the Full Moon Fountain. You felt it, didn't you?
- **8233**: No longer what? Fenrir has left the Full Moon Fountain.
- **8257**: ...And so the Great Beast, Fenrir, passed from our world...
- **8262**: ...

## Events

### Event 65535

#### Metadata

| Field        | Value   |
|--------------|---------|
| Entrypoint   | 0x0000  |
| Data Size    | 1 bytes |
| Instructions | 1       |

```
      00 01 02 03 04 05 06 07  08 09 0A 0B 0C 0D 0E 0F
      -- -- -- -- -- -- -- --  -- -- -- -- -- -- -- --
0000: 00                                                .               
```

#### Opcodes

```
  0: 0x0000 [0x00] END_REQSTACK()
```

### Event 413

#### Metadata

| Field        | Value    |
|--------------|----------|
| Entrypoint   | 0x0001   |
| Data Size    | 16 bytes |
| Instructions | 3        |

```
      00 01 02 03 04 05 06 07  08 09 0A 0B 0C 0D 0E 0F
      -- -- -- -- -- -- -- --  -- -- -- -- -- -- -- --
0000:    94 01 F8 FF FF 7F 37  00 80 01 80 02 80 03 80   ......7........
0010: 00                                                .               
```

#### Opcodes

```
  0: 0x0001 [0x94] EventEntity->Render.Flags3 ^= 0x01
  1: 0x0007 [0x37] UPDATE_EVENT_POSITION_AND_DIR: x=34.701*, z=68.436*, y=1.991*, direction=191.6°*
  2: 0x0010 [0x00] END_REQSTACK()
```

### Event 65535.1

#### Metadata

| Field        | Value    |
|--------------|----------|
| Entrypoint   | 0x0011   |
| Data Size    | 29 bytes |
| Instructions | 3        |

```
      00 01 02 03 04 05 06 07  08 09 0A 0B 0C 0D 0E 0F
      -- -- -- -- -- -- -- --  -- -- -- -- -- -- -- --
0010:    5B 04 80 F8 FF FF 7F  F8 FF FF 7F 74 6C 6B 30   [..........tlk0
0020: 53 F8 FF FF 7F F8 FF FF  7F 74 6C 6B 30 00        S........tlk0.  
```

#### Opcodes

```
  0: 0x0011 [0x5B] LOAD_EXT_SCHEDULER: Load scheduler "tlk0" with entities [EventEntity, EventEntity], work=165*
  1: 0x0020 [0x53] WAIT_SCHEDULER_TASK: Wait for scheduler "tlk0" with entities [EventEntity, EventEntity]
  2: 0x002D [0x00] END_REQSTACK()
```

### Event 65535.2

#### Metadata

| Field        | Value    |
|--------------|----------|
| Entrypoint   | 0x002E   |
| Data Size    | 29 bytes |
| Instructions | 3        |

```
      00 01 02 03 04 05 06 07  08 09 0A 0B 0C 0D 0E 0F
      -- -- -- -- -- -- -- --  -- -- -- -- -- -- -- --
0020:                                            5B 04                [.
0030: 80 F8 FF FF 7F F8 FF FF  7F 74 6C 6B 31 53 F8 FF  .........tlk1S..
0040: FF 7F F8 FF FF 7F 74 6C  6B 31 00                 ......tlk1.     
```

#### Opcodes

```
  0: 0x002E [0x5B] LOAD_EXT_SCHEDULER: Load scheduler "tlk1" with entities [EventEntity, EventEntity], work=165*
  1: 0x003D [0x53] WAIT_SCHEDULER_TASK: Wait for scheduler "tlk1" with entities [EventEntity, EventEntity]
  2: 0x004A [0x00] END_REQSTACK()
```

### Event 65535.3

#### Metadata

| Field        | Value    |
|--------------|----------|
| Entrypoint   | 0x004B   |
| Data Size    | 29 bytes |
| Instructions | 3        |

```
      00 01 02 03 04 05 06 07  08 09 0A 0B 0C 0D 0E 0F
      -- -- -- -- -- -- -- --  -- -- -- -- -- -- -- --
0040:                                   5B 05 80 F8 FF             [....
0050: FF 7F F8 FF FF 7F 74 68  6B 31 53 F8 FF FF 7F F8  ......thk1S.....
0060: FF FF 7F 74 68 6B 31 00                           ...thk1.        
```

#### Opcodes

```
  0: 0x004B [0x5B] LOAD_EXT_SCHEDULER: Load scheduler "thk1" with entities [EventEntity, EventEntity], work=337*
  1: 0x005A [0x53] WAIT_SCHEDULER_TASK: Wait for scheduler "thk1" with entities [EventEntity, EventEntity]
  2: 0x0067 [0x00] END_REQSTACK()
```

### Event 65535.4

#### Metadata

| Field        | Value    |
|--------------|----------|
| Entrypoint   | 0x0068   |
| Data Size    | 29 bytes |
| Instructions | 3        |

```
      00 01 02 03 04 05 06 07  08 09 0A 0B 0C 0D 0E 0F
      -- -- -- -- -- -- -- --  -- -- -- -- -- -- -- --
0060:                          5B 05 80 F8 FF FF 7F F8          [.......
0070: FF FF 7F 74 68 6B 32 53  F8 FF FF 7F F8 FF FF 7F  ...thk2S........
0080: 74 68 6B 32 00                                    thk2.           
```

#### Opcodes

```
  0: 0x0068 [0x5B] LOAD_EXT_SCHEDULER: Load scheduler "thk2" with entities [EventEntity, EventEntity], work=337*
  1: 0x0077 [0x53] WAIT_SCHEDULER_TASK: Wait for scheduler "thk2" with entities [EventEntity, EventEntity]
  2: 0x0084 [0x00] END_REQSTACK()
```

### Event 65535.5

#### Metadata

| Field        | Value    |
|--------------|----------|
| Entrypoint   | 0x0085   |
| Data Size    | 29 bytes |
| Instructions | 3        |

```
      00 01 02 03 04 05 06 07  08 09 0A 0B 0C 0D 0E 0F
      -- -- -- -- -- -- -- --  -- -- -- -- -- -- -- --
0080:                5B 04 80  F8 FF FF 7F F8 FF FF 7F       [..........
0090: 6B 62 6B 30 53 F8 FF FF  7F F8 FF FF 7F 6B 62 6B  kbk0S........kbk
00A0: 30 00                                             0.              
```

#### Opcodes

```
  0: 0x0085 [0x5B] LOAD_EXT_SCHEDULER: Load scheduler "kbk0" with entities [EventEntity, EventEntity], work=165*
  1: 0x0094 [0x53] WAIT_SCHEDULER_TASK: Wait for scheduler "kbk0" with entities [EventEntity, EventEntity]
  2: 0x00A1 [0x00] END_REQSTACK()
```

### Event 65535.6

#### Metadata

| Field        | Value    |
|--------------|----------|
| Entrypoint   | 0x00A2   |
| Data Size    | 29 bytes |
| Instructions | 3        |

```
      00 01 02 03 04 05 06 07  08 09 0A 0B 0C 0D 0E 0F
      -- -- -- -- -- -- -- --  -- -- -- -- -- -- -- --
00A0:       5B 04 80 F8 FF FF  7F F8 FF FF 7F 6B 62 6B    [..........kbk
00B0: 31 53 F8 FF FF 7F F8 FF  FF 7F 6B 62 6B 31 00     1S........kbk1. 
```

#### Opcodes

```
  0: 0x00A2 [0x5B] LOAD_EXT_SCHEDULER: Load scheduler "kbk1" with entities [EventEntity, EventEntity], work=165*
  1: 0x00B1 [0x53] WAIT_SCHEDULER_TASK: Wait for scheduler "kbk1" with entities [EventEntity, EventEntity]
  2: 0x00BE [0x00] END_REQSTACK()
```

### Event 65535.7

#### Metadata

| Field        | Value    |
|--------------|----------|
| Entrypoint   | 0x00BF   |
| Data Size    | 29 bytes |
| Instructions | 3        |

```
      00 01 02 03 04 05 06 07  08 09 0A 0B 0C 0D 0E 0F
      -- -- -- -- -- -- -- --  -- -- -- -- -- -- -- --
00B0:                                               5B                 [
00C0: 05 80 F8 FF FF 7F F8 FF  FF 7F 64 69 73 30 53 F8  ..........dis0S.
00D0: FF FF 7F F8 FF FF 7F 64  69 73 30 00              .......dis0.    
```

#### Opcodes

```
  0: 0x00BF [0x5B] LOAD_EXT_SCHEDULER: Load scheduler "dis0" with entities [EventEntity, EventEntity], work=337*
  1: 0x00CE [0x53] WAIT_SCHEDULER_TASK: Wait for scheduler "dis0" with entities [EventEntity, EventEntity]
  2: 0x00DB [0x00] END_REQSTACK()
```

### Event 65535.8

#### Metadata

| Field        | Value    |
|--------------|----------|
| Entrypoint   | 0x00DC   |
| Data Size    | 16 bytes |
| Instructions | 2        |

```
      00 01 02 03 04 05 06 07  08 09 0A 0B 0C 0D 0E 0F
      -- -- -- -- -- -- -- --  -- -- -- -- -- -- -- --
00D0:                                      5B 04 80 F8              [...
00E0: FF FF 7F F8 FF FF 7F 74  6C 6B 30 00              .......tlk0.    
```

#### Opcodes

```
  0: 0x00DC [0x5B] LOAD_EXT_SCHEDULER: Load scheduler "tlk0" with entities [EventEntity, EventEntity], work=165*
  1: 0x00EB [0x00] END_REQSTACK()
```

### Event 65535.9

#### Metadata

| Field        | Value    |
|--------------|----------|
| Entrypoint   | 0x00EC   |
| Data Size    | 14 bytes |
| Instructions | 2        |

```
      00 01 02 03 04 05 06 07  08 09 0A 0B 0C 0D 0E 0F
      -- -- -- -- -- -- -- --  -- -- -- -- -- -- -- --
00E0:                                      53 F8 FF FF              S...
00F0: 7F F8 FF FF 7F 74 6C 6B  30 00                    .....tlk0.      
```

#### Opcodes

```
  0: 0x00EC [0x53] WAIT_SCHEDULER_TASK: Wait for scheduler "tlk0" with entities [EventEntity, EventEntity]
  1: 0x00F9 [0x00] END_REQSTACK()
```

### Event 65535.10

#### Metadata

| Field        | Value    |
|--------------|----------|
| Entrypoint   | 0x00FA   |
| Data Size    | 16 bytes |
| Instructions | 2        |

```
      00 01 02 03 04 05 06 07  08 09 0A 0B 0C 0D 0E 0F
      -- -- -- -- -- -- -- --  -- -- -- -- -- -- -- --
00F0:                                5B 04 80 F8 FF FF            [.....
0100: 7F F8 FF FF 7F 74 6C 6B  31 00                    .....tlk1.      
```

#### Opcodes

```
  0: 0x00FA [0x5B] LOAD_EXT_SCHEDULER: Load scheduler "tlk1" with entities [EventEntity, EventEntity], work=165*
  1: 0x0109 [0x00] END_REQSTACK()
```

### Event 65535.11

#### Metadata

| Field        | Value    |
|--------------|----------|
| Entrypoint   | 0x010A   |
| Data Size    | 14 bytes |
| Instructions | 2        |

```
      00 01 02 03 04 05 06 07  08 09 0A 0B 0C 0D 0E 0F
      -- -- -- -- -- -- -- --  -- -- -- -- -- -- -- --
0100:                                53 F8 FF FF 7F F8            S.....
0110: FF FF 7F 74 6C 6B 31 00                           ...tlk1.        
```

#### Opcodes

```
  0: 0x010A [0x53] WAIT_SCHEDULER_TASK: Wait for scheduler "tlk1" with entities [EventEntity, EventEntity]
  1: 0x0117 [0x00] END_REQSTACK()
```

### Event 65535.12

#### Metadata

| Field        | Value    |
|--------------|----------|
| Entrypoint   | 0x0118   |
| Data Size    | 16 bytes |
| Instructions | 2        |

```
      00 01 02 03 04 05 06 07  08 09 0A 0B 0C 0D 0E 0F
      -- -- -- -- -- -- -- --  -- -- -- -- -- -- -- --
0110:                          5B 04 80 F8 FF FF 7F F8          [.......
0120: FF FF 7F 6B 62 6B 30 00                           ...kbk0.        
```

#### Opcodes

```
  0: 0x0118 [0x5B] LOAD_EXT_SCHEDULER: Load scheduler "kbk0" with entities [EventEntity, EventEntity], work=165*
  1: 0x0127 [0x00] END_REQSTACK()
```

### Event 65535.13

#### Metadata

| Field        | Value    |
|--------------|----------|
| Entrypoint   | 0x0128   |
| Data Size    | 14 bytes |
| Instructions | 2        |

```
      00 01 02 03 04 05 06 07  08 09 0A 0B 0C 0D 0E 0F
      -- -- -- -- -- -- -- --  -- -- -- -- -- -- -- --
0120:                          53 F8 FF FF 7F F8 FF FF          S.......
0130: 7F 6B 62 6B 30 00                                 .kbk0.          
```

#### Opcodes

```
  0: 0x0128 [0x53] WAIT_SCHEDULER_TASK: Wait for scheduler "kbk0" with entities [EventEntity, EventEntity]
  1: 0x0135 [0x00] END_REQSTACK()
```

### Event 65535.14

#### Metadata

| Field        | Value    |
|--------------|----------|
| Entrypoint   | 0x0136   |
| Data Size    | 16 bytes |
| Instructions | 2        |

```
      00 01 02 03 04 05 06 07  08 09 0A 0B 0C 0D 0E 0F
      -- -- -- -- -- -- -- --  -- -- -- -- -- -- -- --
0130:                   5B 04  80 F8 FF FF 7F F8 FF FF        [.........
0140: 7F 6B 62 6B 31 00                                 .kbk1.          
```

#### Opcodes

```
  0: 0x0136 [0x5B] LOAD_EXT_SCHEDULER: Load scheduler "kbk1" with entities [EventEntity, EventEntity], work=165*
  1: 0x0145 [0x00] END_REQSTACK()
```

### Event 65535.15

#### Metadata

| Field        | Value    |
|--------------|----------|
| Entrypoint   | 0x0146   |
| Data Size    | 14 bytes |
| Instructions | 2        |

```
      00 01 02 03 04 05 06 07  08 09 0A 0B 0C 0D 0E 0F
      -- -- -- -- -- -- -- --  -- -- -- -- -- -- -- --
0140:                   53 F8  FF FF 7F F8 FF FF 7F 6B        S........k
0150: 62 6B 31 00                                       bk1.            
```

#### Opcodes

```
  0: 0x0146 [0x53] WAIT_SCHEDULER_TASK: Wait for scheduler "kbk1" with entities [EventEntity, EventEntity]
  1: 0x0153 [0x00] END_REQSTACK()
```

### Event 65535.16

#### Metadata

| Field        | Value    |
|--------------|----------|
| Entrypoint   | 0x0154   |
| Data Size    | 16 bytes |
| Instructions | 2        |

```
      00 01 02 03 04 05 06 07  08 09 0A 0B 0C 0D 0E 0F
      -- -- -- -- -- -- -- --  -- -- -- -- -- -- -- --
0150:             5B 04 80 F8  FF FF 7F F8 FF FF 7F 73      [..........s
0160: 70 70 30 00                                       pp0.            
```

#### Opcodes

```
  0: 0x0154 [0x5B] LOAD_EXT_SCHEDULER: Load scheduler "spp0" with entities [EventEntity, EventEntity], work=165*
  1: 0x0163 [0x00] END_REQSTACK()
```

### Event 65535.17

#### Metadata

| Field        | Value    |
|--------------|----------|
| Entrypoint   | 0x0164   |
| Data Size    | 22 bytes |
| Instructions | 4        |

```
      00 01 02 03 04 05 06 07  08 09 0A 0B 0C 0D 0E 0F
      -- -- -- -- -- -- -- --  -- -- -- -- -- -- -- --
0160:             53 F8 FF FF  7F F8 FF FF 7F 73 70 70      S........spp
0170: 30 5E 69 64 6C 30 1C 06  80 00                    0^idl0....      
```

#### Opcodes

```
  0: 0x0164 [0x53] WAIT_SCHEDULER_TASK: Wait for scheduler "spp0" with entities [EventEntity, EventEntity]
  1: 0x0171 [0x5E] EventEntity goes idle (kills current action) (animation: "idl0")
  2: 0x0176 [0x1C] WAIT(30* ticks)
  3: 0x0179 [0x00] END_REQSTACK()
```

### Event 65535.18

#### Metadata

| Field        | Value    |
|--------------|----------|
| Entrypoint   | 0x017A   |
| Data Size    | 16 bytes |
| Instructions | 2        |

```
      00 01 02 03 04 05 06 07  08 09 0A 0B 0C 0D 0E 0F
      -- -- -- -- -- -- -- --  -- -- -- -- -- -- -- --
0170:                                5B 04 80 F8 FF FF            [.....
0180: 7F F8 FF FF 7F 73 70 70  31 00                    .....spp1.      
```

#### Opcodes

```
  0: 0x017A [0x5B] LOAD_EXT_SCHEDULER: Load scheduler "spp1" with entities [EventEntity, EventEntity], work=165*
  1: 0x0189 [0x00] END_REQSTACK()
```

### Event 65535.19

#### Metadata

| Field        | Value    |
|--------------|----------|
| Entrypoint   | 0x018A   |
| Data Size    | 14 bytes |
| Instructions | 2        |

```
      00 01 02 03 04 05 06 07  08 09 0A 0B 0C 0D 0E 0F
      -- -- -- -- -- -- -- --  -- -- -- -- -- -- -- --
0180:                                53 F8 FF FF 7F F8            S.....
0190: FF FF 7F 73 70 70 31 00                           ...spp1.        
```

#### Opcodes

```
  0: 0x018A [0x53] WAIT_SCHEDULER_TASK: Wait for scheduler "spp1" with entities [EventEntity, EventEntity]
  1: 0x0197 [0x00] END_REQSTACK()
```

### Event 65535.20

#### Metadata

| Field        | Value    |
|--------------|----------|
| Entrypoint   | 0x0198   |
| Data Size    | 16 bytes |
| Instructions | 2        |

```
      00 01 02 03 04 05 06 07  08 09 0A 0B 0C 0D 0E 0F
      -- -- -- -- -- -- -- --  -- -- -- -- -- -- -- --
0190:                          5B 07 80 F8 FF FF 7F F8          [.......
01A0: FF FF 7F 74 77 6B 30 00                           ...twk0.        
```

#### Opcodes

```
  0: 0x0198 [0x5B] LOAD_EXT_SCHEDULER: Load scheduler "twk0" with entities [EventEntity, EventEntity], work=169*
  1: 0x01A7 [0x00] END_REQSTACK()
```

### Event 65535.21

#### Metadata

| Field        | Value    |
|--------------|----------|
| Entrypoint   | 0x01A8   |
| Data Size    | 14 bytes |
| Instructions | 2        |

```
      00 01 02 03 04 05 06 07  08 09 0A 0B 0C 0D 0E 0F
      -- -- -- -- -- -- -- --  -- -- -- -- -- -- -- --
01A0:                          53 F8 FF FF 7F F8 FF FF          S.......
01B0: 7F 74 77 6B 30 00                                 .twk0.          
```

#### Opcodes

```
  0: 0x01A8 [0x53] WAIT_SCHEDULER_TASK: Wait for scheduler "twk0" with entities [EventEntity, EventEntity]
  1: 0x01B5 [0x00] END_REQSTACK()
```

### Event 65535.22

#### Metadata

| Field        | Value    |
|--------------|----------|
| Entrypoint   | 0x01B6   |
| Data Size    | 16 bytes |
| Instructions | 2        |

```
      00 01 02 03 04 05 06 07  08 09 0A 0B 0C 0D 0E 0F
      -- -- -- -- -- -- -- --  -- -- -- -- -- -- -- --
01B0:                   5B 05  80 F8 FF FF 7F F8 FF FF        [.........
01C0: 7F 74 68 6B 31 00                                 .thk1.          
```

#### Opcodes

```
  0: 0x01B6 [0x5B] LOAD_EXT_SCHEDULER: Load scheduler "thk1" with entities [EventEntity, EventEntity], work=337*
  1: 0x01C5 [0x00] END_REQSTACK()
```

### Event 65535.23

#### Metadata

| Field        | Value    |
|--------------|----------|
| Entrypoint   | 0x01C6   |
| Data Size    | 14 bytes |
| Instructions | 2        |

```
      00 01 02 03 04 05 06 07  08 09 0A 0B 0C 0D 0E 0F
      -- -- -- -- -- -- -- --  -- -- -- -- -- -- -- --
01C0:                   53 F8  FF FF 7F F8 FF FF 7F 74        S........t
01D0: 68 6B 31 00                                       hk1.            
```

#### Opcodes

```
  0: 0x01C6 [0x53] WAIT_SCHEDULER_TASK: Wait for scheduler "thk1" with entities [EventEntity, EventEntity]
  1: 0x01D3 [0x00] END_REQSTACK()
```

### Event 65535.24

#### Metadata

| Field        | Value    |
|--------------|----------|
| Entrypoint   | 0x01D4   |
| Data Size    | 16 bytes |
| Instructions | 2        |

```
      00 01 02 03 04 05 06 07  08 09 0A 0B 0C 0D 0E 0F
      -- -- -- -- -- -- -- --  -- -- -- -- -- -- -- --
01D0:             5B 05 80 F8  FF FF 7F F8 FF FF 7F 74      [..........t
01E0: 68 6B 32 00                                       hk2.            
```

#### Opcodes

```
  0: 0x01D4 [0x5B] LOAD_EXT_SCHEDULER: Load scheduler "thk2" with entities [EventEntity, EventEntity], work=337*
  1: 0x01E3 [0x00] END_REQSTACK()
```

### Event 65535.25

#### Metadata

| Field        | Value    |
|--------------|----------|
| Entrypoint   | 0x01E4   |
| Data Size    | 14 bytes |
| Instructions | 2        |

```
      00 01 02 03 04 05 06 07  08 09 0A 0B 0C 0D 0E 0F
      -- -- -- -- -- -- -- --  -- -- -- -- -- -- -- --
01E0:             53 F8 FF FF  7F F8 FF FF 7F 74 68 6B      S........thk
01F0: 32 00                                             2.              
```

#### Opcodes

```
  0: 0x01E4 [0x53] WAIT_SCHEDULER_TASK: Wait for scheduler "thk2" with entities [EventEntity, EventEntity]
  1: 0x01F1 [0x00] END_REQSTACK()
```

### Event 65535.26

#### Metadata

| Field        | Value    |
|--------------|----------|
| Entrypoint   | 0x01F2   |
| Data Size    | 16 bytes |
| Instructions | 2        |

```
      00 01 02 03 04 05 06 07  08 09 0A 0B 0C 0D 0E 0F
      -- -- -- -- -- -- -- --  -- -- -- -- -- -- -- --
01F0:       5B 05 80 F8 FF FF  7F F8 FF FF 7F 70 61 73    [..........pas
0200: 30 00                                             0.              
```

#### Opcodes

```
  0: 0x01F2 [0x5B] LOAD_EXT_SCHEDULER: Load scheduler "pas0" with entities [EventEntity, EventEntity], work=337*
  1: 0x0201 [0x00] END_REQSTACK()
```

### Event 65535.27

#### Metadata

| Field        | Value    |
|--------------|----------|
| Entrypoint   | 0x0202   |
| Data Size    | 14 bytes |
| Instructions | 2        |

```
      00 01 02 03 04 05 06 07  08 09 0A 0B 0C 0D 0E 0F
      -- -- -- -- -- -- -- --  -- -- -- -- -- -- -- --
0200:       53 F8 FF FF 7F F8  FF FF 7F 70 61 73 30 00    S........pas0.
```

#### Opcodes

```
  0: 0x0202 [0x53] WAIT_SCHEDULER_TASK: Wait for scheduler "pas0" with entities [EventEntity, EventEntity]
  1: 0x020F [0x00] END_REQSTACK()
```

### Event 65535.28

#### Metadata

| Field        | Value    |
|--------------|----------|
| Entrypoint   | 0x0210   |
| Data Size    | 16 bytes |
| Instructions | 2        |

```
      00 01 02 03 04 05 06 07  08 09 0A 0B 0C 0D 0E 0F
      -- -- -- -- -- -- -- --  -- -- -- -- -- -- -- --
0210: 5B 05 80 F8 FF FF 7F F8  FF FF 7F 70 6F 69 30 00  [..........poi0.
```

#### Opcodes

```
  0: 0x0210 [0x5B] LOAD_EXT_SCHEDULER: Load scheduler "poi0" with entities [EventEntity, EventEntity], work=337*
  1: 0x021F [0x00] END_REQSTACK()
```

### Event 65535.29

#### Metadata

| Field        | Value    |
|--------------|----------|
| Entrypoint   | 0x0220   |
| Data Size    | 14 bytes |
| Instructions | 2        |

```
      00 01 02 03 04 05 06 07  08 09 0A 0B 0C 0D 0E 0F
      -- -- -- -- -- -- -- --  -- -- -- -- -- -- -- --
0220: 53 F8 FF FF 7F F8 FF FF  7F 70 6F 69 30 00        S........poi0.  
```

#### Opcodes

```
  0: 0x0220 [0x53] WAIT_SCHEDULER_TASK: Wait for scheduler "poi0" with entities [EventEntity, EventEntity]
  1: 0x022D [0x00] END_REQSTACK()
```

### Event 65535.30

#### Metadata

| Field        | Value    |
|--------------|----------|
| Entrypoint   | 0x022E   |
| Data Size    | 16 bytes |
| Instructions | 2        |

```
      00 01 02 03 04 05 06 07  08 09 0A 0B 0C 0D 0E 0F
      -- -- -- -- -- -- -- --  -- -- -- -- -- -- -- --
0220:                                            5B 08                [.
0230: 80 F8 FF FF 7F F8 FF FF  7F 62 69 6B 30 00        .........bik0.  
```

#### Opcodes

```
  0: 0x022E [0x5B] LOAD_EXT_SCHEDULER: Load scheduler "bik0" with entities [EventEntity, EventEntity], work=341*
  1: 0x023D [0x00] END_REQSTACK()
```

### Event 65535.31

#### Metadata

| Field        | Value    |
|--------------|----------|
| Entrypoint   | 0x023E   |
| Data Size    | 22 bytes |
| Instructions | 4        |

```
      00 01 02 03 04 05 06 07  08 09 0A 0B 0C 0D 0E 0F
      -- -- -- -- -- -- -- --  -- -- -- -- -- -- -- --
0230:                                            53 F8                S.
0240: FF FF 7F F8 FF FF 7F 62  69 6B 30 5E 69 64 6C 30  .......bik0^idl0
0250: 1C 06 80 00                                       ....            
```

#### Opcodes

```
  0: 0x023E [0x53] WAIT_SCHEDULER_TASK: Wait for scheduler "bik0" with entities [EventEntity, EventEntity]
  1: 0x024B [0x5E] EventEntity goes idle (kills current action) (animation: "idl0")
  2: 0x0250 [0x1C] WAIT(30* ticks)
  3: 0x0253 [0x00] END_REQSTACK()
```

### Event 65535.32

#### Metadata

| Field        | Value    |
|--------------|----------|
| Entrypoint   | 0x0254   |
| Data Size    | 16 bytes |
| Instructions | 2        |

```
      00 01 02 03 04 05 06 07  08 09 0A 0B 0C 0D 0E 0F
      -- -- -- -- -- -- -- --  -- -- -- -- -- -- -- --
0250:             5B 04 80 F8  FF FF 7F F8 FF FF 7F 62      [..........b
0260: 6F 61 30 00                                       oa0.            
```

#### Opcodes

```
  0: 0x0254 [0x5B] LOAD_EXT_SCHEDULER: Load scheduler "boa0" with entities [EventEntity, EventEntity], work=165*
  1: 0x0263 [0x00] END_REQSTACK()
```

### Event 65535.33

#### Metadata

| Field        | Value    |
|--------------|----------|
| Entrypoint   | 0x0264   |
| Data Size    | 14 bytes |
| Instructions | 2        |

```
      00 01 02 03 04 05 06 07  08 09 0A 0B 0C 0D 0E 0F
      -- -- -- -- -- -- -- --  -- -- -- -- -- -- -- --
0260:             53 F8 FF FF  7F F8 FF FF 7F 62 6F 61      S........boa
0270: 30 00                                             0.              
```

#### Opcodes

```
  0: 0x0264 [0x53] WAIT_SCHEDULER_TASK: Wait for scheduler "boa0" with entities [EventEntity, EventEntity]
  1: 0x0271 [0x00] END_REQSTACK()
```

### Event 65535.34

#### Metadata

| Field        | Value    |
|--------------|----------|
| Entrypoint   | 0x0272   |
| Data Size    | 16 bytes |
| Instructions | 2        |

```
      00 01 02 03 04 05 06 07  08 09 0A 0B 0C 0D 0E 0F
      -- -- -- -- -- -- -- --  -- -- -- -- -- -- -- --
0270:       5B 04 80 F8 FF FF  7F F8 FF FF 7F 62 6F 62    [..........bob
0280: 30 00                                             0.              
```

#### Opcodes

```
  0: 0x0272 [0x5B] LOAD_EXT_SCHEDULER: Load scheduler "bob0" with entities [EventEntity, EventEntity], work=165*
  1: 0x0281 [0x00] END_REQSTACK()
```

### Event 65535.35

#### Metadata

| Field        | Value    |
|--------------|----------|
| Entrypoint   | 0x0282   |
| Data Size    | 14 bytes |
| Instructions | 2        |

```
      00 01 02 03 04 05 06 07  08 09 0A 0B 0C 0D 0E 0F
      -- -- -- -- -- -- -- --  -- -- -- -- -- -- -- --
0280:       53 F8 FF FF 7F F8  FF FF 7F 62 6F 62 30 00    S........bob0.
```

#### Opcodes

```
  0: 0x0282 [0x53] WAIT_SCHEDULER_TASK: Wait for scheduler "bob0" with entities [EventEntity, EventEntity]
  1: 0x028F [0x00] END_REQSTACK()
```

### Event 65535.36

#### Metadata

| Field        | Value    |
|--------------|----------|
| Entrypoint   | 0x0290   |
| Data Size    | 16 bytes |
| Instructions | 2        |

```
      00 01 02 03 04 05 06 07  08 09 0A 0B 0C 0D 0E 0F
      -- -- -- -- -- -- -- --  -- -- -- -- -- -- -- --
0290: 5B 04 80 F8 FF FF 7F F8  FF FF 7F 62 6F 62 31 00  [..........bob1.
```

#### Opcodes

```
  0: 0x0290 [0x5B] LOAD_EXT_SCHEDULER: Load scheduler "bob1" with entities [EventEntity, EventEntity], work=165*
  1: 0x029F [0x00] END_REQSTACK()
```

### Event 65535.37

#### Metadata

| Field        | Value    |
|--------------|----------|
| Entrypoint   | 0x02A0   |
| Data Size    | 14 bytes |
| Instructions | 2        |

```
      00 01 02 03 04 05 06 07  08 09 0A 0B 0C 0D 0E 0F
      -- -- -- -- -- -- -- --  -- -- -- -- -- -- -- --
02A0: 53 F8 FF FF 7F F8 FF FF  7F 62 6F 62 31 00        S........bob1.  
```

#### Opcodes

```
  0: 0x02A0 [0x53] WAIT_SCHEDULER_TASK: Wait for scheduler "bob1" with entities [EventEntity, EventEntity]
  1: 0x02AD [0x00] END_REQSTACK()
```

### Event 65535.38

#### Metadata

| Field        | Value    |
|--------------|----------|
| Entrypoint   | 0x02AE   |
| Data Size    | 16 bytes |
| Instructions | 2        |

```
      00 01 02 03 04 05 06 07  08 09 0A 0B 0C 0D 0E 0F
      -- -- -- -- -- -- -- --  -- -- -- -- -- -- -- --
02A0:                                            5B 04                [.
02B0: 80 F8 FF FF 7F F8 FF FF  7F 62 6F 63 30 00        .........boc0.  
```

#### Opcodes

```
  0: 0x02AE [0x5B] LOAD_EXT_SCHEDULER: Load scheduler "boc0" with entities [EventEntity, EventEntity], work=165*
  1: 0x02BD [0x00] END_REQSTACK()
```

### Event 65535.39

#### Metadata

| Field        | Value    |
|--------------|----------|
| Entrypoint   | 0x02BE   |
| Data Size    | 14 bytes |
| Instructions | 2        |

```
      00 01 02 03 04 05 06 07  08 09 0A 0B 0C 0D 0E 0F
      -- -- -- -- -- -- -- --  -- -- -- -- -- -- -- --
02B0:                                            53 F8                S.
02C0: FF FF 7F F8 FF FF 7F 62  6F 63 30 00              .......boc0.    
```

#### Opcodes

```
  0: 0x02BE [0x53] WAIT_SCHEDULER_TASK: Wait for scheduler "boc0" with entities [EventEntity, EventEntity]
  1: 0x02CB [0x00] END_REQSTACK()
```

### Event 65535.40

#### Metadata

| Field        | Value    |
|--------------|----------|
| Entrypoint   | 0x02CC   |
| Data Size    | 16 bytes |
| Instructions | 2        |

```
      00 01 02 03 04 05 06 07  08 09 0A 0B 0C 0D 0E 0F
      -- -- -- -- -- -- -- --  -- -- -- -- -- -- -- --
02C0:                                      5B 04 80 F8              [...
02D0: FF FF 7F F8 FF FF 7F 62  6F 65 30 00              .......boe0.    
```

#### Opcodes

```
  0: 0x02CC [0x5B] LOAD_EXT_SCHEDULER: Load scheduler "boe0" with entities [EventEntity, EventEntity], work=165*
  1: 0x02DB [0x00] END_REQSTACK()
```

### Event 65535.41

#### Metadata

| Field        | Value    |
|--------------|----------|
| Entrypoint   | 0x02DC   |
| Data Size    | 14 bytes |
| Instructions | 2        |

```
      00 01 02 03 04 05 06 07  08 09 0A 0B 0C 0D 0E 0F
      -- -- -- -- -- -- -- --  -- -- -- -- -- -- -- --
02D0:                                      53 F8 FF FF              S...
02E0: 7F F8 FF FF 7F 62 6F 65  30 00                    .....boe0.      
```

#### Opcodes

```
  0: 0x02DC [0x53] WAIT_SCHEDULER_TASK: Wait for scheduler "boe0" with entities [EventEntity, EventEntity]
  1: 0x02E9 [0x00] END_REQSTACK()
```

### Event 65535.42

#### Metadata

| Field        | Value   |
|--------------|---------|
| Entrypoint   | 0x02EA  |
| Data Size    | 9 bytes |
| Instructions | 3       |

```
      00 01 02 03 04 05 06 07  08 09 0A 0B 0C 0D 0E 0F
      -- -- -- -- -- -- -- --  -- -- -- -- -- -- -- --
02E0:                                5E 69 64 6C 30 1C            ^idl0.
02F0: 06 80 00                                          ...             
```

#### Opcodes

```
  0: 0x02EA [0x5E] EventEntity goes idle (kills current action) (animation: "idl0")
  1: 0x02EF [0x1C] WAIT(30* ticks)
  2: 0x02F2 [0x00] END_REQSTACK()
```

### Event 65535.43

#### Metadata

| Field        | Value    |
|--------------|----------|
| Entrypoint   | 0x02F3   |
| Data Size    | 36 bytes |
| Instructions | 4        |

```
      00 01 02 03 04 05 06 07  08 09 0A 0B 0C 0D 0E 0F
      -- -- -- -- -- -- -- --  -- -- -- -- -- -- -- --
02F0:          5B 04 80 F8 FF  FF 7F F8 FF FF 7F 6D 61     [..........ma
0300: 68 30 1C 09 80 62 0A 80  17 20 0F 01 17 20 0F 01  h0...b... ... ..
0310: 73 74 61 72 0B 80 00                              star...         
```

#### Opcodes

```
  0: 0x02F3 [0x5B] LOAD_EXT_SCHEDULER: Load scheduler "mah0" with entities [EventEntity, EventEntity], work=165*
  1: 0x0302 [0x1C] WAIT(15* ticks)
  2: 0x0305 [0x62] LOAD_EVENT_SCHEDULER: Load scheduler "star" with entities [Ajido-Marujido (ID: 17768471/0x010F2017), Ajido-Marujido (ID: 17768471/0x010F2017)], work=[44*, 0*]
  3: 0x0316 [0x00] END_REQSTACK()
```

### Event 65535.44

#### Metadata

| Field        | Value    |
|--------------|----------|
| Entrypoint   | 0x0317   |
| Data Size    | 14 bytes |
| Instructions | 2        |

```
      00 01 02 03 04 05 06 07  08 09 0A 0B 0C 0D 0E 0F
      -- -- -- -- -- -- -- --  -- -- -- -- -- -- -- --
0310:                      53  F8 FF FF 7F F8 FF FF 7F         S........
0320: 6D 61 68 30 00                                    mah0.           
```

#### Opcodes

```
  0: 0x0317 [0x53] WAIT_SCHEDULER_TASK: Wait for scheduler "mah0" with entities [EventEntity, EventEntity]
  1: 0x0324 [0x00] END_REQSTACK()
```

### Event 65535.45

#### Metadata

| Field        | Value    |
|--------------|----------|
| Entrypoint   | 0x0325   |
| Data Size    | 16 bytes |
| Instructions | 2        |

```
      00 01 02 03 04 05 06 07  08 09 0A 0B 0C 0D 0E 0F
      -- -- -- -- -- -- -- --  -- -- -- -- -- -- -- --
0320:                5B 04 80  F8 FF FF 7F F8 FF FF 7F       [..........
0330: 6D 61 68 31 00                                    mah1.           
```

#### Opcodes

```
  0: 0x0325 [0x5B] LOAD_EXT_SCHEDULER: Load scheduler "mah1" with entities [EventEntity, EventEntity], work=165*
  1: 0x0334 [0x00] END_REQSTACK()
```

### Event 65535.46

#### Metadata

| Field        | Value    |
|--------------|----------|
| Entrypoint   | 0x0335   |
| Data Size    | 14 bytes |
| Instructions | 2        |

```
      00 01 02 03 04 05 06 07  08 09 0A 0B 0C 0D 0E 0F
      -- -- -- -- -- -- -- --  -- -- -- -- -- -- -- --
0330:                53 F8 FF  FF 7F F8 FF FF 7F 6D 61       S........ma
0340: 68 31 00                                          h1.             
```

#### Opcodes

```
  0: 0x0335 [0x53] WAIT_SCHEDULER_TASK: Wait for scheduler "mah1" with entities [EventEntity, EventEntity]
  1: 0x0342 [0x00] END_REQSTACK()
```

### Event 65535.47

#### Metadata

| Field        | Value    |
|--------------|----------|
| Entrypoint   | 0x0343   |
| Data Size    | 16 bytes |
| Instructions | 2        |

```
      00 01 02 03 04 05 06 07  08 09 0A 0B 0C 0D 0E 0F
      -- -- -- -- -- -- -- --  -- -- -- -- -- -- -- --
0340:          5B 0C 80 F8 FF  FF 7F F8 FF FF 7F 63 61     [..........ca
0350: 62 6B 00                                          bk.             
```

#### Opcodes

```
  0: 0x0343 [0x5B] LOAD_EXT_SCHEDULER: Load scheduler "cabk" with entities [EventEntity, EventEntity], work=167*
  1: 0x0352 [0x00] END_REQSTACK()
```

### Event 65535.48

#### Metadata

| Field        | Value    |
|--------------|----------|
| Entrypoint   | 0x0353   |
| Data Size    | 14 bytes |
| Instructions | 2        |

```
      00 01 02 03 04 05 06 07  08 09 0A 0B 0C 0D 0E 0F
      -- -- -- -- -- -- -- --  -- -- -- -- -- -- -- --
0350:          53 F8 FF FF 7F  F8 FF FF 7F 63 61 62 6B     S........cabk
0360: 00                                                .               
```

#### Opcodes

```
  0: 0x0353 [0x53] WAIT_SCHEDULER_TASK: Wait for scheduler "cabk" with entities [EventEntity, EventEntity]
  1: 0x0360 [0x00] END_REQSTACK()
```

### Event 65535.49

#### Metadata

| Field        | Value    |
|--------------|----------|
| Entrypoint   | 0x0361   |
| Data Size    | 16 bytes |
| Instructions | 2        |

```
      00 01 02 03 04 05 06 07  08 09 0A 0B 0C 0D 0E 0F
      -- -- -- -- -- -- -- --  -- -- -- -- -- -- -- --
0360:    5B 0C 80 F8 FF FF 7F  F8 FF FF 7F 73 68 62 6B   [..........shbk
0370: 00                                                .               
```

#### Opcodes

```
  0: 0x0361 [0x5B] LOAD_EXT_SCHEDULER: Load scheduler "shbk" with entities [EventEntity, EventEntity], work=167*
  1: 0x0370 [0x00] END_REQSTACK()
```

### Event 65535.50

#### Metadata

| Field        | Value    |
|--------------|----------|
| Entrypoint   | 0x0371   |
| Data Size    | 14 bytes |
| Instructions | 2        |

```
      00 01 02 03 04 05 06 07  08 09 0A 0B 0C 0D 0E 0F
      -- -- -- -- -- -- -- --  -- -- -- -- -- -- -- --
0370:    53 F8 FF FF 7F F8 FF  FF 7F 73 68 62 6B 00      S........shbk. 
```

#### Opcodes

```
  0: 0x0371 [0x53] WAIT_SCHEDULER_TASK: Wait for scheduler "shbk" with entities [EventEntity, EventEntity]
  1: 0x037E [0x00] END_REQSTACK()
```

### Event 6

#### Metadata

| Field        | Value   |
|--------------|---------|
| Entrypoint   | 0x037F  |
| Data Size    | 1 bytes |
| Instructions | 1       |

```
      00 01 02 03 04 05 06 07  08 09 0A 0B 0C 0D 0E 0F
      -- -- -- -- -- -- -- --  -- -- -- -- -- -- -- --
0370:                                               00                 .
```

#### Opcodes

```
  0: 0x037F [0x00] END_REQSTACK()
```

### Event 107

#### Metadata

| Field        | Value    |
|--------------|----------|
| Entrypoint   | 0x0380   |
| Data Size    | 10 bytes |
| Instructions | 2        |

```
      00 01 02 03 04 05 06 07  08 09 0A 0B 0C 0D 0E 0F
      -- -- -- -- -- -- -- --  -- -- -- -- -- -- -- --
0380: 37 0D 80 0E 80 0F 80 10  80 00                    7.........      
```

#### Opcodes

```
  0: 0x0380 [0x37] UPDATE_EVENT_POSITION_AND_DIR: x=-1.707*, z=-29.744*, y=-45.000*, direction=332.2°*
  1: 0x0389 [0x00] END_REQSTACK()
```

### Event 65535.51

#### Metadata

| Field        | Value    |
|--------------|----------|
| Entrypoint   | 0x038A   |
| Data Size    | 34 bytes |
| Instructions | 8        |

```
      00 01 02 03 04 05 06 07  08 09 0A 0B 0C 0D 0E 0F
      -- -- -- -- -- -- -- --  -- -- -- -- -- -- -- --
0380:                                32 11 80 37 12 80            2..7..
0390: 13 80 0F 80 14 80 1F 00  15 80 16 80 0F 80 1F 01  ................
03A0: 1F 00 17 80 18 80 19 80  1F 01 6F 00              ..........o.    
```

#### Opcodes

```
  0: 0x038A [0x32] ExtData[1]->MainSpeed = 13* * 0.1
  1: 0x038D [0x37] UPDATE_EVENT_POSITION_AND_DIR: x=-3.479*, z=-30.566*, y=-45.000*, direction=355.5°*
  2: 0x0396 [0x1F] MOVE_ENTITY: EventEntity moves to X=0.245*, Z=-26.591*, Y=-45.000*
  3: 0x039E [0x1F] MOVE_ENTITY: Update entity position (mode=1)
  4: 0x03A0 [0x1F] MOVE_ENTITY: EventEntity moves to X=0.087*, Z=-16.640*, Y=-46.749*
  5: 0x03A8 [0x1F] MOVE_ENTITY: Update entity position (mode=1)
  6: 0x03AA [0x6F] WAIT_FRAME_DELAY: Yield until WaitTime reaches zero
  7: 0x03AB [0x00] END_REQSTACK()
```

### Event 65535.52

#### Metadata

| Field        | Value    |
|--------------|----------|
| Entrypoint   | 0x03AC   |
| Data Size    | 10 bytes |
| Instructions | 2        |

```
      00 01 02 03 04 05 06 07  08 09 0A 0B 0C 0D 0E 0F
      -- -- -- -- -- -- -- --  -- -- -- -- -- -- -- --
03A0:                                      37 1A 80 1B              7...
03B0: 80 1C 80 1D 80 00                                 ......          
```

#### Opcodes

```
  0: 0x03AC [0x37] UPDATE_EVENT_POSITION_AND_DIR: x=0.424*, z=-14.623*, y=-46.999*, direction=268.1°*
  1: 0x03B5 [0x00] END_REQSTACK()
```

### Event 65535.53

#### Metadata

| Field        | Value    |
|--------------|----------|
| Entrypoint   | 0x03B6   |
| Data Size    | 15 bytes |
| Instructions | 5        |

```
      00 01 02 03 04 05 06 07  08 09 0A 0B 0C 0D 0E 0F
      -- -- -- -- -- -- -- --  -- -- -- -- -- -- -- --
03B0:                   32 11  80 1F 00 1E 80 1F 80 1C        2.........
03C0: 80 1F 01 6F 00                                    ...o.           
```

#### Opcodes

```
  0: 0x03B6 [0x32] ExtData[1]->MainSpeed = 13* * 0.1
  1: 0x03B9 [0x1F] MOVE_ENTITY: EventEntity moves to X=0.051*, Z=-6.119*, Y=-46.999*
  2: 0x03C1 [0x1F] MOVE_ENTITY: Update entity position (mode=1)
  3: 0x03C3 [0x6F] WAIT_FRAME_DELAY: Yield until WaitTime reaches zero
  4: 0x03C4 [0x00] END_REQSTACK()
```

### Event 65535.54

#### Metadata

| Field        | Value    |
|--------------|----------|
| Entrypoint   | 0x03C5   |
| Data Size    | 10 bytes |
| Instructions | 2        |

```
      00 01 02 03 04 05 06 07  08 09 0A 0B 0C 0D 0E 0F
      -- -- -- -- -- -- -- --  -- -- -- -- -- -- -- --
03C0:                37 20 80  21 80 1C 80 22 80 00          7 .!...".. 
```

#### Opcodes

```
  0: 0x03C5 [0x37] UPDATE_EVENT_POSITION_AND_DIR: x=0.297*, z=-3.514*, y=-46.999*, direction=261.6°*
  1: 0x03CE [0x00] END_REQSTACK()
```

### Event 65535.55

#### Metadata

| Field        | Value    |
|--------------|----------|
| Entrypoint   | 0x03CF   |
| Data Size    | 15 bytes |
| Instructions | 5        |

```
      00 01 02 03 04 05 06 07  08 09 0A 0B 0C 0D 0E 0F
      -- -- -- -- -- -- -- --  -- -- -- -- -- -- -- --
03C0:                                               32                 2
03D0: 11 80 1F 00 23 80 24 80  1C 80 1F 01 6F 00        ....#.$.....o.  
```

#### Opcodes

```
  0: 0x03CF [0x32] ExtData[1]->MainSpeed = 13* * 0.1
  1: 0x03D2 [0x1F] MOVE_ENTITY: EventEntity moves to X=-0.275*, Z=-1.778*, Y=-46.999*
  2: 0x03DA [0x1F] MOVE_ENTITY: Update entity position (mode=1)
  3: 0x03DC [0x6F] WAIT_FRAME_DELAY: Yield until WaitTime reaches zero
  4: 0x03DD [0x00] END_REQSTACK()
```

### Event 65535.56

#### Metadata

| Field        | Value    |
|--------------|----------|
| Entrypoint   | 0x03DE   |
| Data Size    | 21 bytes |
| Instructions | 5        |

```
      00 01 02 03 04 05 06 07  08 09 0A 0B 0C 0D 0E 0F
      -- -- -- -- -- -- -- --  -- -- -- -- -- -- -- --
03D0:                                            37 25                7%
03E0: 80 26 80 1C 80 27 80 1F  00 28 80 29 80 1C 80 1F  .&...'...(.)....
03F0: 01 6F 00                                          .o.             
```

#### Opcodes

```
  0: 0x03DE [0x37] UPDATE_EVENT_POSITION_AND_DIR: x=-0.044*, z=-4.971*, y=-46.999*, direction=102.1°*
  1: 0x03E7 [0x1F] MOVE_ENTITY: EventEntity moves to X=0.168*, Z=-8.550*, Y=-46.999*
  2: 0x03EF [0x1F] MOVE_ENTITY: Update entity position (mode=1)
  3: 0x03F1 [0x6F] WAIT_FRAME_DELAY: Yield until WaitTime reaches zero
  4: 0x03F2 [0x00] END_REQSTACK()
```

### Event 65535.57

#### Metadata

| Field        | Value    |
|--------------|----------|
| Entrypoint   | 0x03F3   |
| Data Size    | 12 bytes |
| Instructions | 4        |

```
      00 01 02 03 04 05 06 07  08 09 0A 0B 0C 0D 0E 0F
      -- -- -- -- -- -- -- --  -- -- -- -- -- -- -- --
03F0:          1F 00 2A 80 2B  80 2C 80 1F 01 6F 00        ..*.+.,...o. 
```

#### Opcodes

```
  0: 0x03F3 [0x1F] MOVE_ENTITY: EventEntity moves to X=0.378*, Z=-20.462*, Y=-45.999*
  1: 0x03FB [0x1F] MOVE_ENTITY: Update entity position (mode=1)
  2: 0x03FD [0x6F] WAIT_FRAME_DELAY: Yield until WaitTime reaches zero
  3: 0x03FE [0x00] END_REQSTACK()
```

### Event 65535.58

#### Metadata

| Field        | Value   |
|--------------|---------|
| Entrypoint   | 0x03FF  |
| Data Size    | 5 bytes |
| Instructions | 3       |

```
      00 01 02 03 04 05 06 07  08 09 0A 0B 0C 0D 0E 0F
      -- -- -- -- -- -- -- --  -- -- -- -- -- -- -- --
03F0:                                               1D                 .
0400: 04 80 23 00                                       ..#.            
```

#### Opcodes

```
  0: 0x03FF [0x1D] PRINT_EVENT_MESSAGE(message_id=165*)
    → "Do you actually think that a mere group of kitty cats can save Windurst?"
  1: 0x0402 [0x23] WAIT_FOR_DIALOG_INTERACTION
  2: 0x0403 [0x00] END_REQSTACK()
```

### Event 65535.59

#### Metadata

| Field        | Value   |
|--------------|---------|
| Entrypoint   | 0x0404  |
| Data Size    | 5 bytes |
| Instructions | 3       |

```
      00 01 02 03 04 05 06 07  08 09 0A 0B 0C 0D 0E 0F
      -- -- -- -- -- -- -- --  -- -- -- -- -- -- -- --
0400:             1D 0C 80 23  00                           ...#.       
```

#### Opcodes

```
  0: 0x0404 [0x1D] PRINT_EVENT_MESSAGE(message_id=167*)
    → "How--how dare you! Look around. Does the Windurst you see around you look peaceful and happy-wappy?"
  1: 0x0407 [0x23] WAIT_FOR_DIALOG_INTERACTION
  2: 0x0408 [0x00] END_REQSTACK()
```

### Event 65535.60

#### Metadata

| Field        | Value    |
|--------------|----------|
| Entrypoint   | 0x0409   |
| Data Size    | 19 bytes |
| Instructions | 5        |

```
      00 01 02 03 04 05 06 07  08 09 0A 0B 0C 0D 0E 0F
      -- -- -- -- -- -- -- --  -- -- -- -- -- -- -- --
0400:                             29 08 17 20 0F 01 09           ).. ...
0410: 1D 2D 80 23 29 08 17 20  0F 01 0A 00              .-.#).. ....    
```

#### Opcodes

```
  0: 0x0409 [0x29] REQ_SET_WAIT(priority=0x08, entity_id=Ajido-Marujido (ID: 17768471/0x010F2017), tag_num=0x09)
  1: 0x0410 [0x1D] PRINT_EVENT_MESSAGE(message_id=171*)
    → "Joke? Show those blank pages to the Star Sibyl, and see if she's laughing."
  2: 0x0413 [0x23] WAIT_FOR_DIALOG_INTERACTION
  3: 0x0414 [0x29] REQ_SET_WAIT(priority=0x08, entity_id=Ajido-Marujido (ID: 17768471/0x010F2017), tag_num=0x0A)
  4: 0x041B [0x00] END_REQSTACK()
```

### Event 65535.61

#### Metadata

| Field        | Value    |
|--------------|----------|
| Entrypoint   | 0x041C   |
| Data Size    | 23 bytes |
| Instructions | 7        |

```
      00 01 02 03 04 05 06 07  08 09 0A 0B 0C 0D 0E 0F
      -- -- -- -- -- -- -- --  -- -- -- -- -- -- -- --
0410:                                      29 08 17 20              ).. 
0420: 0F 01 09 1D 2E 80 23 1D  2F 80 23 29 08 17 20 0F  ......#./.#).. .
0430: 01 0A 00                                          ...             
```

#### Opcodes

```
  0: 0x041C [0x29] REQ_SET_WAIT(priority=0x08, entity_id=Ajido-Marujido (ID: 17768471/0x010F2017), tag_num=0x09)
  1: 0x0423 [0x1D] PRINT_EVENT_MESSAGE(message_id=172*)
    → "The Book of the Gods has gone blank! The broken Cardian soldiers are up to no good! And all Windurst has is an ancient, worn out, good-for-nothing army!"
  2: 0x0426 [0x23] WAIT_FOR_DIALOG_INTERACTION
  3: 0x0427 [0x1D] PRINT_EVENT_MESSAGE(message_id=173*)
    → "And you just sit here, with your tails between your legs!"
  4: 0x042A [0x23] WAIT_FOR_DIALOG_INTERACTION
  5: 0x042B [0x29] REQ_SET_WAIT(priority=0x08, entity_id=Ajido-Marujido (ID: 17768471/0x010F2017), tag_num=0x0A)
  6: 0x0432 [0x00] END_REQSTACK()
```

### Event 65535.62

#### Metadata

| Field        | Value    |
|--------------|----------|
| Entrypoint   | 0x0433   |
| Data Size    | 19 bytes |
| Instructions | 5        |

```
      00 01 02 03 04 05 06 07  08 09 0A 0B 0C 0D 0E 0F
      -- -- -- -- -- -- -- --  -- -- -- -- -- -- -- --
0430:          29 08 17 20 0F  01 1D 1D 30 80 23 29 08     ).. ....0.#).
0440: 17 20 0F 01 1E 00                                 . ....          
```

#### Opcodes

```
  0: 0x0433 [0x29] REQ_SET_WAIT(priority=0x08, entity_id=Ajido-Marujido (ID: 17768471/0x010F2017), tag_num=0x1D)
  1: 0x043A [0x1D] PRINT_EVENT_MESSAGE(message_id=174*)
    → "Well, I'm tired of waiting! I, Ajido-Marujido, will save Windurst from these terrible-werrible times!"
  2: 0x043D [0x23] WAIT_FOR_DIALOG_INTERACTION
  3: 0x043E [0x29] REQ_SET_WAIT(priority=0x08, entity_id=Ajido-Marujido (ID: 17768471/0x010F2017), tag_num=0x1E)
  4: 0x0445 [0x00] END_REQSTACK()
```

### Event 42

#### Metadata

| Field        | Value    |
|--------------|----------|
| Entrypoint   | 0x0446   |
| Data Size    | 10 bytes |
| Instructions | 2        |

```
      00 01 02 03 04 05 06 07  08 09 0A 0B 0C 0D 0E 0F
      -- -- -- -- -- -- -- --  -- -- -- -- -- -- -- --
0440:                   37 31  80 32 80 33 80 34 80 00        71.2.3.4..
```

#### Opcodes

```
  0: 0x0446 [0x37] UPDATE_EVENT_POSITION_AND_DIR: x=5.020*, z=-13.315*, y=0.749*, direction=100.7°*
  1: 0x044F [0x00] END_REQSTACK()
```

### Event 65535.63

#### Metadata

| Field        | Value    |
|--------------|----------|
| Entrypoint   | 0x0450   |
| Data Size    | 47 bytes |
| Instructions | 10       |

```
      00 01 02 03 04 05 06 07  08 09 0A 0B 0C 0D 0E 0F
      -- -- -- -- -- -- -- --  -- -- -- -- -- -- -- --
0450: 32 11 80 1F 00 35 80 36  80 37 80 1F 01 1F 00 38  2....5.6.7.....8
0460: 80 39 80 0B 80 1F 01 6F  62 3A 80 17 20 0F 01 17  .9.....ob:.. ...
0470: 20 0F 01 6D 61 69 6E 0B  80 1C 3B 80 22 01 00      ..main...;.".. 
```

#### Opcodes

```
  0: 0x0450 [0x32] ExtData[1]->MainSpeed = 13* * 0.1
  1: 0x0453 [0x1F] MOVE_ENTITY: EventEntity moves to X=2.881*, Z=-20.741*, Y=0.249*
  2: 0x045B [0x1F] MOVE_ENTITY: Update entity position (mode=1)
  3: 0x045D [0x1F] MOVE_ENTITY: EventEntity moves to X=0.023*, Z=-33.650*, Y=0.000*
  4: 0x0465 [0x1F] MOVE_ENTITY: Update entity position (mode=1)
  5: 0x0467 [0x6F] WAIT_FRAME_DELAY: Yield until WaitTime reaches zero
  6: 0x0468 [0x62] LOAD_EVENT_SCHEDULER: Load scheduler "main" with entities [Ajido-Marujido (ID: 17768471/0x010F2017), Ajido-Marujido (ID: 17768471/0x010F2017)], work=[1*, 0*]
  7: 0x0479 [0x1C] WAIT(100* ticks)
  8: 0x047C [0x22] ENTITY_HIDE_FLAG(enabled=0x01)
  9: 0x047E [0x00] END_REQSTACK()
```

### Event 335

#### Metadata

| Field        | Value   |
|--------------|---------|
| Entrypoint   | 0x047F  |
| Data Size    | 1 bytes |
| Instructions | 1       |

```
      00 01 02 03 04 05 06 07  08 09 0A 0B 0C 0D 0E 0F
      -- -- -- -- -- -- -- --  -- -- -- -- -- -- -- --
0470:                                               00                 .
```

#### Opcodes

```
  0: 0x047F [0x00] END_REQSTACK()
```

### Event 362

#### Metadata

| Field        | Value   |
|--------------|---------|
| Entrypoint   | 0x0480  |
| Data Size    | 1 bytes |
| Instructions | 1       |

```
      00 01 02 03 04 05 06 07  08 09 0A 0B 0C 0D 0E 0F
      -- -- -- -- -- -- -- --  -- -- -- -- -- -- -- --
0480: 00                                                .               
```

#### Opcodes

```
  0: 0x0480 [0x00] END_REQSTACK()
```

### Event 65535.64

#### Metadata

| Field        | Value    |
|--------------|----------|
| Entrypoint   | 0x0481   |
| Data Size    | 16 bytes |
| Instructions | 3        |

```
      00 01 02 03 04 05 06 07  08 09 0A 0B 0C 0D 0E 0F
      -- -- -- -- -- -- -- --  -- -- -- -- -- -- -- --
0480:    92 01 F8 FF FF 7F 37  3C 80 3D 80 3E 80 3F 80   ......7<.=.>.?.
0490: 00                                                .               
```

#### Opcodes

```
  0: 0x0481 [0x92] EventEntity->Render.Flags3 ^= 0x01
  1: 0x0487 [0x37] UPDATE_EVENT_POSITION_AND_DIR: x=0.833*, z=51.136*, y=-53.999*, direction=281.2°*
  2: 0x0490 [0x00] END_REQSTACK()
```

### Event 65535.65

#### Metadata

| Field        | Value    |
|--------------|----------|
| Entrypoint   | 0x0491   |
| Data Size    | 21 bytes |
| Instructions | 7        |

```
      00 01 02 03 04 05 06 07  08 09 0A 0B 0C 0D 0E 0F
      -- -- -- -- -- -- -- --  -- -- -- -- -- -- -- --
0490:    32 40 80 1F 00 41 80  42 80 43 80 1F 01 1E 1D   2@...A.B.C.....
04A0: 20 0F 01 6F 70 00                                  ..op.          
```

#### Opcodes

```
  0: 0x0491 [0x32] ExtData[1]->MainSpeed = 40* * 0.1
  1: 0x0494 [0x1F] MOVE_ENTITY: EventEntity moves to X=-0.045*, Z=62.031*, Y=-60.524*
  2: 0x049C [0x1F] MOVE_ENTITY: Update entity position (mode=1)
  3: 0x049E [0x1E] EventEntity looks at Star Sibyl (ID: 17768477/0x010F201D) and starts talking
  4: 0x04A3 [0x6F] WAIT_FRAME_DELAY: Yield until WaitTime reaches zero
  5: 0x04A4 [0x70] WAIT_ENTITY_RENDER_FLAG: Wait while EventEntity->Render.Flags3 bit 2 is set (cancel turn if not)
  6: 0x04A5 [0x00] END_REQSTACK()
```

### Event 65535.66

#### Metadata

| Field        | Value    |
|--------------|----------|
| Entrypoint   | 0x04A6   |
| Data Size    | 16 bytes |
| Instructions | 3        |

```
      00 01 02 03 04 05 06 07  08 09 0A 0B 0C 0D 0E 0F
      -- -- -- -- -- -- -- --  -- -- -- -- -- -- -- --
04A0:                   92 00  F8 FF FF 7F 37 44 80 45        ......7D.E
04B0: 80 46 80 47 80 00                                 .F.G..          
```

#### Opcodes

```
  0: 0x04A6 [0x92] EventEntity->Render.Flags3 = Flags3  // No change (flag=0)
  1: 0x04AC [0x37] UPDATE_EVENT_POSITION_AND_DIR: x=1.339*, z=48.699*, y=-61.021*, direction=138.5°*
  2: 0x04B5 [0x00] END_REQSTACK()
```

### Event 65535.67

#### Metadata

| Field        | Value    |
|--------------|----------|
| Entrypoint   | 0x04B6   |
| Data Size    | 14 bytes |
| Instructions | 4        |

```
      00 01 02 03 04 05 06 07  08 09 0A 0B 0C 0D 0E 0F
      -- -- -- -- -- -- -- --  -- -- -- -- -- -- -- --
04B0:                   32 11  80 1F 00 48 80 49 80 4A        2....H.I.J
04C0: 80 1F 01 00                                       ....            
```

#### Opcodes

```
  0: 0x04B6 [0x32] ExtData[1]->MainSpeed = 13* * 0.1
  1: 0x04B9 [0x1F] MOVE_ENTITY: EventEntity moves to X=0.407*, Z=48.598*, Y=-61.000*
  2: 0x04C1 [0x1F] MOVE_ENTITY: Update entity position (mode=1)
  3: 0x04C3 [0x00] END_REQSTACK()
```

### Event 65535.68

#### Metadata

| Field        | Value    |
|--------------|----------|
| Entrypoint   | 0x04C4   |
| Data Size    | 22 bytes |
| Instructions | 8        |

```
      00 01 02 03 04 05 06 07  08 09 0A 0B 0C 0D 0E 0F
      -- -- -- -- -- -- -- --  -- -- -- -- -- -- -- --
04C0:             32 11 80 1F  00 4B 80 4C 80 46 80 1F      2....K.L.F..
04D0: 01 6F 1E 1D 20 0F 01 6F  70 00                    .o.. ..op.      
```

#### Opcodes

```
  0: 0x04C4 [0x32] ExtData[1]->MainSpeed = 13* * 0.1
  1: 0x04C7 [0x1F] MOVE_ENTITY: EventEntity moves to X=0.054*, Z=47.977*, Y=-61.021*
  2: 0x04CF [0x1F] MOVE_ENTITY: Update entity position (mode=1)
  3: 0x04D1 [0x6F] WAIT_FRAME_DELAY: Yield until WaitTime reaches zero
  4: 0x04D2 [0x1E] EventEntity looks at Star Sibyl (ID: 17768477/0x010F201D) and starts talking
  5: 0x04D7 [0x6F] WAIT_FRAME_DELAY: Yield until WaitTime reaches zero
  6: 0x04D8 [0x70] WAIT_ENTITY_RENDER_FLAG: Wait while EventEntity->Render.Flags3 bit 2 is set (cancel turn if not)
  7: 0x04D9 [0x00] END_REQSTACK()
```

### Event 65535.69

#### Metadata

| Field        | Value    |
|--------------|----------|
| Entrypoint   | 0x04DA   |
| Data Size    | 10 bytes |
| Instructions | 2        |

```
      00 01 02 03 04 05 06 07  08 09 0A 0B 0C 0D 0E 0F
      -- -- -- -- -- -- -- --  -- -- -- -- -- -- -- --
04D0:                                37 48 80 49 80 4A            7H.I.J
04E0: 80 4D 80 00                                       .M..            
```

#### Opcodes

```
  0: 0x04DA [0x37] UPDATE_EVENT_POSITION_AND_DIR: x=0.407*, z=48.598*, y=-61.000*, direction=186.3°*
  1: 0x04E3 [0x00] END_REQSTACK()
```

### Event 65535.70

#### Metadata

| Field        | Value    |
|--------------|----------|
| Entrypoint   | 0x04E4   |
| Data Size    | 22 bytes |
| Instructions | 8        |

```
      00 01 02 03 04 05 06 07  08 09 0A 0B 0C 0D 0E 0F
      -- -- -- -- -- -- -- --  -- -- -- -- -- -- -- --
04E0:             32 11 80 1F  00 4E 80 4F 80 46 80 1F      2....N.O.F..
04F0: 01 6F 1E 1D 20 0F 01 6F  70 00                    .o.. ..op.      
```

#### Opcodes

```
  0: 0x04E4 [0x32] ExtData[1]->MainSpeed = 13* * 0.1
  1: 0x04E7 [0x1F] MOVE_ENTITY: EventEntity moves to X=-0.018*, Z=47.500*, Y=-61.021*
  2: 0x04EF [0x1F] MOVE_ENTITY: Update entity position (mode=1)
  3: 0x04F1 [0x6F] WAIT_FRAME_DELAY: Yield until WaitTime reaches zero
  4: 0x04F2 [0x1E] EventEntity looks at Star Sibyl (ID: 17768477/0x010F201D) and starts talking
  5: 0x04F7 [0x6F] WAIT_FRAME_DELAY: Yield until WaitTime reaches zero
  6: 0x04F8 [0x70] WAIT_ENTITY_RENDER_FLAG: Wait while EventEntity->Render.Flags3 bit 2 is set (cancel turn if not)
  7: 0x04F9 [0x00] END_REQSTACK()
```

### Event 65535.71

#### Metadata

| Field        | Value    |
|--------------|----------|
| Entrypoint   | 0x04FA   |
| Data Size    | 10 bytes |
| Instructions | 2        |

```
      00 01 02 03 04 05 06 07  08 09 0A 0B 0C 0D 0E 0F
      -- -- -- -- -- -- -- --  -- -- -- -- -- -- -- --
04F0:                                37 0B 80 50 80 4A            7..P.J
0500: 80 51 80 00                                       .Q..            
```

#### Opcodes

```
  0: 0x04FA [0x37] UPDATE_EVENT_POSITION_AND_DIR: x=0.000*, z=48.443*, y=-61.000*, direction=90.0°*
  1: 0x0503 [0x00] END_REQSTACK()
```

### Event 65535.72

#### Metadata

| Field        | Value    |
|--------------|----------|
| Entrypoint   | 0x0504   |
| Data Size    | 15 bytes |
| Instructions | 5        |

```
      00 01 02 03 04 05 06 07  08 09 0A 0B 0C 0D 0E 0F
      -- -- -- -- -- -- -- --  -- -- -- -- -- -- -- --
0500:             32 11 80 1F  00 52 80 53 80 4A 80 1F      2....R.S.J..
0510: 01 6F 00                                          .o.             
```

#### Opcodes

```
  0: 0x0504 [0x32] ExtData[1]->MainSpeed = 13* * 0.1
  1: 0x0507 [0x1F] MOVE_ENTITY: EventEntity moves to X=-1.223*, Z=49.061*, Y=-61.000*
  2: 0x050F [0x1F] MOVE_ENTITY: Update entity position (mode=1)
  3: 0x0511 [0x6F] WAIT_FRAME_DELAY: Yield until WaitTime reaches zero
  4: 0x0512 [0x00] END_REQSTACK()
```

### Event 65535.73

#### Metadata

| Field        | Value   |
|--------------|---------|
| Entrypoint   | 0x0513  |
| Data Size    | 9 bytes |
| Instructions | 5       |

```
      00 01 02 03 04 05 06 07  08 09 0A 0B 0C 0D 0E 0F
      -- -- -- -- -- -- -- --  -- -- -- -- -- -- -- --
0510:          1D 54 80 23 1D  55 80 23 00                 .T.#.U.#.    
```

#### Opcodes

```
  0: 0x0513 [0x1D] PRINT_EVENT_MESSAGE(message_id=8230*)
    → "Star Sibyl, the magic the creature was using was no ordinary spellcraft. That power was of the Stars and the Moon. The same power that pulses through the Horutoto Ruins and fills the Mana Orbs..."
  1: 0x0516 [0x23] WAIT_FOR_DIALOG_INTERACTION
  2: 0x0517 [0x1D] PRINT_EVENT_MESSAGE(message_id=8231*)
    → "It was the magic of Fenrir, the Great Beast that resided in the Full Moon Fountain. You felt it, didn't you?"
  3: 0x051A [0x23] WAIT_FOR_DIALOG_INTERACTION
  4: 0x051B [0x00] END_REQSTACK()
```

### Event 65535.74

#### Metadata

| Field        | Value   |
|--------------|---------|
| Entrypoint   | 0x051C  |
| Data Size    | 5 bytes |
| Instructions | 3       |

```
      00 01 02 03 04 05 06 07  08 09 0A 0B 0C 0D 0E 0F
      -- -- -- -- -- -- -- --  -- -- -- -- -- -- -- --
0510:                                      1D 56 80 23              .V.#
0520: 00                                                .               
```

#### Opcodes

```
  0: 0x051C [0x1D] PRINT_EVENT_MESSAGE(message_id=8233*)
    → "No longer what? Fenrir has left the Full Moon Fountain."
  1: 0x051F [0x23] WAIT_FOR_DIALOG_INTERACTION
  2: 0x0520 [0x00] END_REQSTACK()
```

### Event 65535.75

#### Metadata

| Field        | Value   |
|--------------|---------|
| Entrypoint   | 0x0521  |
| Data Size    | 5 bytes |
| Instructions | 3       |

```
      00 01 02 03 04 05 06 07  08 09 0A 0B 0C 0D 0E 0F
      -- -- -- -- -- -- -- --  -- -- -- -- -- -- -- --
0520:    1D 57 80 23 00                                  .W.#.          
```

#### Opcodes

```
  0: 0x0521 [0x1D] PRINT_EVENT_MESSAGE(message_id=8257*)
    → "...And so the Great Beast, Fenrir, passed from our world..."
  1: 0x0524 [0x23] WAIT_FOR_DIALOG_INTERACTION
  2: 0x0525 [0x00] END_REQSTACK()
```

### Event 65535.76

#### Metadata

| Field        | Value    |
|--------------|----------|
| Entrypoint   | 0x0526   |
| Data Size    | 17 bytes |
| Instructions | 5        |

```
      00 01 02 03 04 05 06 07  08 09 0A 0B 0C 0D 0E 0F
      -- -- -- -- -- -- -- --  -- -- -- -- -- -- -- --
0520:                   7C 00  F8 FF FF 7F 1D 58 80 23        |......X.#
0530: 7C 01 F8 FF FF 7F 00                              |......         
```

#### Opcodes

```
  0: 0x0526 [0x7C] EventEntity->Render.Flags2 |= 0x00
  1: 0x052C [0x1D] PRINT_EVENT_MESSAGE(message_id=8262*)
    → "..."
  2: 0x052F [0x23] WAIT_FOR_DIALOG_INTERACTION
  3: 0x0530 [0x7C] EventEntity->Render.Flags2 |= 0x01
  4: 0x0536 [0x00] END_REQSTACK()
```

### Event 384

#### Metadata

| Field        | Value   |
|--------------|---------|
| Entrypoint   | 0x0537  |
| Data Size    | 1 bytes |
| Instructions | 1       |

```
      00 01 02 03 04 05 06 07  08 09 0A 0B 0C 0D 0E 0F
      -- -- -- -- -- -- -- --  -- -- -- -- -- -- -- --
0530:                      00                                  .        
```

#### Opcodes

```
  0: 0x0537 [0x00] END_REQSTACK()
```

### Event 65535.77

#### Metadata

| Field        | Value    |
|--------------|----------|
| Entrypoint   | 0x0538   |
| Data Size    | 10 bytes |
| Instructions | 2        |

```
      00 01 02 03 04 05 06 07  08 09 0A 0B 0C 0D 0E 0F
      -- -- -- -- -- -- -- --  -- -- -- -- -- -- -- --
0530:                          37 59 80 5A 80 5B 80 51          7Y.Z.[.Q
0540: 80 00                                             ..              
```

#### Opcodes

```
  0: 0x0538 [0x37] UPDATE_EVENT_POSITION_AND_DIR: x=142.976*, z=-15.587*, y=13.000*, direction=90.0°*
  1: 0x0541 [0x00] END_REQSTACK()
```

### Event 65535.78

#### Metadata

| Field        | Value    |
|--------------|----------|
| Entrypoint   | 0x0542   |
| Data Size    | 14 bytes |
| Instructions | 4        |

```
      00 01 02 03 04 05 06 07  08 09 0A 0B 0C 0D 0E 0F
      -- -- -- -- -- -- -- --  -- -- -- -- -- -- -- --
0540:       32 11 80 1F 00 5C  80 5D 80 5B 80 1F 01 00    2....\.].[....
```

#### Opcodes

```
  0: 0x0542 [0x32] ExtData[1]->MainSpeed = 13* * 0.1
  1: 0x0545 [0x1F] MOVE_ENTITY: EventEntity moves to X=142.370*, Z=-20.400*, Y=13.000*
  2: 0x054D [0x1F] MOVE_ENTITY: Update entity position (mode=1)
  3: 0x054F [0x00] END_REQSTACK()
```

### Event 65535.79

#### Metadata

| Field        | Value    |
|--------------|----------|
| Entrypoint   | 0x0550   |
| Data Size    | 87 bytes |
| Instructions | 7        |

```
      00 01 02 03 04 05 06 07  08 09 0A 0B 0C 0D 0E 0F
      -- -- -- -- -- -- -- --  -- -- -- -- -- -- -- --
0550: 45 5E 80 F8 FF FF 7F F8  FF FF 7F 73 30 31 32 0B  E^.........s012.
0560: 80 45 5F 80 F0 FF FF 7F  F0 FF FF 7F 66 64 69 31  .E_.........fdi1
0570: 0B 80 1C 3B 80 52 5E 80  F8 FF FF 7F F8 FF FF 7F  ...;.R^.........
0580: 73 30 31 32 45 5F 80 F0  FF FF 7F F0 FF FF 7F 6F  s012E_.........o
0590: 76 6C 31 0B 80 45 5E 80  F8 FF FF 7F F8 FF FF 7F  vl1..E^.........
05A0: 73 30 31 35 0B 80 00                              s015...         
```

#### Opcodes

```
  0: 0x0550 [0x45] LOAD_SCHEDULED_TASK: Load scheduler "s012" with entities [EventEntity, EventEntity], work=[252*, 0*]
  1: 0x0561 [0x45] LOAD_SCHEDULED_TASK: Load scheduler "fdi1" with entities [LocalPlayer, LocalPlayer], work=[200*, 0*]
  2: 0x0572 [0x1C] WAIT(100* ticks)
  3: 0x0575 [0x52] END_LOAD_SCHEDULER: End scheduler "s012" with entities [EventEntity, EventEntity], work=252*
  4: 0x0584 [0x45] LOAD_SCHEDULED_TASK: Load scheduler "ovl1" with entities [LocalPlayer, LocalPlayer], work=[200*, 0*]
  5: 0x0595 [0x45] LOAD_SCHEDULED_TASK: Load scheduler "s015" with entities [EventEntity, EventEntity], work=[252*, 0*]
  6: 0x05A6 [0x00] END_REQSTACK()
```

### Event 65535.80

#### Metadata

| Field        | Value    |
|--------------|----------|
| Entrypoint   | 0x05A7   |
| Data Size    | 14 bytes |
| Instructions | 4        |

```
      00 01 02 03 04 05 06 07  08 09 0A 0B 0C 0D 0E 0F
      -- -- -- -- -- -- -- --  -- -- -- -- -- -- -- --
05A0:                      32  11 80 1F 00 5C 80 60 80         2....\.`.
05B0: 5B 80 1F 01 00                                    [....           
```

#### Opcodes

```
  0: 0x05A7 [0x32] ExtData[1]->MainSpeed = 13* * 0.1
  1: 0x05AA [0x1F] MOVE_ENTITY: EventEntity moves to X=142.370*, Z=-19.800*, Y=13.000*
  2: 0x05B2 [0x1F] MOVE_ENTITY: Update entity position (mode=1)
  3: 0x05B4 [0x00] END_REQSTACK()
```

### Event 65535.81

#### Metadata

| Field        | Value    |
|--------------|----------|
| Entrypoint   | 0x05B5   |
| Data Size    | 14 bytes |
| Instructions | 4        |

```
      00 01 02 03 04 05 06 07  08 09 0A 0B 0C 0D 0E 0F
      -- -- -- -- -- -- -- --  -- -- -- -- -- -- -- --
05B0:                32 11 80  1F 00 5C 80 61 80 5B 80       2....\.a.[.
05C0: 1F 01 00                                          ...             
```

#### Opcodes

```
  0: 0x05B5 [0x32] ExtData[1]->MainSpeed = 13* * 0.1
  1: 0x05B8 [0x1F] MOVE_ENTITY: EventEntity moves to X=142.370*, Z=-19.400*, Y=13.000*
  2: 0x05C0 [0x1F] MOVE_ENTITY: Update entity position (mode=1)
  3: 0x05C2 [0x00] END_REQSTACK()
```

### Event 65535.82

#### Metadata

| Field        | Value    |
|--------------|----------|
| Entrypoint   | 0x05C3   |
| Data Size    | 21 bytes |
| Instructions | 7        |

```
      00 01 02 03 04 05 06 07  08 09 0A 0B 0C 0D 0E 0F
      -- -- -- -- -- -- -- --  -- -- -- -- -- -- -- --
05C0:          32 11 80 1F 00  62 80 63 80 5B 80 1F 01     2....b.c.[...
05D0: 1E F0 FF FF 7F 6F 70 00                           .....op.        
```

#### Opcodes

```
  0: 0x05C3 [0x32] ExtData[1]->MainSpeed = 13* * 0.1
  1: 0x05C6 [0x1F] MOVE_ENTITY: EventEntity moves to X=142.870*, Z=-19.900*, Y=13.000*
  2: 0x05CE [0x1F] MOVE_ENTITY: Update entity position (mode=1)
  3: 0x05D0 [0x1E] EventEntity looks at LocalPlayer and starts talking
  4: 0x05D5 [0x6F] WAIT_FRAME_DELAY: Yield until WaitTime reaches zero
  5: 0x05D6 [0x70] WAIT_ENTITY_RENDER_FLAG: Wait while EventEntity->Render.Flags3 bit 2 is set (cancel turn if not)
  6: 0x05D7 [0x00] END_REQSTACK()
```

### Event 65535.83

#### Metadata

| Field        | Value    |
|--------------|----------|
| Entrypoint   | 0x05D8   |
| Data Size    | 14 bytes |
| Instructions | 4        |

```
      00 01 02 03 04 05 06 07  08 09 0A 0B 0C 0D 0E 0F
      -- -- -- -- -- -- -- --  -- -- -- -- -- -- -- --
05D0:                          32 11 80 1F 00 62 80 64          2....b.d
05E0: 80 5B 80 1F 01 00                                 .[....          
```

#### Opcodes

```
  0: 0x05D8 [0x32] ExtData[1]->MainSpeed = 13* * 0.1
  1: 0x05DB [0x1F] MOVE_ENTITY: EventEntity moves to X=142.870*, Z=-15.100*, Y=13.000*
  2: 0x05E3 [0x1F] MOVE_ENTITY: Update entity position (mode=1)
  3: 0x05E5 [0x00] END_REQSTACK()
```

### Event 65535.84

#### Metadata

| Field        | Value    |
|--------------|----------|
| Entrypoint   | 0x05E6   |
| Data Size    | 10 bytes |
| Instructions | 2        |

```
      00 01 02 03 04 05 06 07  08 09 0A 0B 0C 0D 0E 0F
      -- -- -- -- -- -- -- --  -- -- -- -- -- -- -- --
05E0:                   37 5C  80 65 80 66 80 67 80 00        7\.e.f.g..
```

#### Opcodes

```
  0: 0x05E6 [0x37] UPDATE_EVENT_POSITION_AND_DIR: x=142.370*, z=-19.986*, y=12.999*, direction=74.0°*
  1: 0x05EF [0x00] END_REQSTACK()
```

### Event 385

#### Metadata

| Field        | Value   |
|--------------|---------|
| Entrypoint   | 0x05F0  |
| Data Size    | 1 bytes |
| Instructions | 1       |

```
      00 01 02 03 04 05 06 07  08 09 0A 0B 0C 0D 0E 0F
      -- -- -- -- -- -- -- --  -- -- -- -- -- -- -- --
05F0: 00                                                .               
```

#### Opcodes

```
  0: 0x05F0 [0x00] END_REQSTACK()
```

### Event 65535.85

#### Metadata

| Field        | Value    |
|--------------|----------|
| Entrypoint   | 0x05F1   |
| Data Size    | 19 bytes |
| Instructions | 3        |

```
      00 01 02 03 04 05 06 07  08 09 0A 0B 0C 0D 0E 0F
      -- -- -- -- -- -- -- --  -- -- -- -- -- -- -- --
05F0:    37 68 80 69 80 46 80  6A 80 37 04 80 6B 80 46   7h.i.F.j.7..k.F
0600: 80 6C 80 00                                       .l..            
```

#### Opcodes

```
  0: 0x05F1 [0x37] UPDATE_EVENT_POSITION_AND_DIR: x=0.958*, z=47.980*, y=-61.021*, direction=186.2°*
  1: 0x05FA [0x37] UPDATE_EVENT_POSITION_AND_DIR: x=0.165*, z=47.704*, y=-61.021*, direction=198.6°*
  2: 0x0603 [0x00] END_REQSTACK()
```

### Event 65535.86

#### Metadata

| Field        | Value    |
|--------------|----------|
| Entrypoint   | 0x0604   |
| Data Size    | 14 bytes |
| Instructions | 4        |

```
      00 01 02 03 04 05 06 07  08 09 0A 0B 0C 0D 0E 0F
      -- -- -- -- -- -- -- --  -- -- -- -- -- -- -- --
0600:             32 11 80 1F  00 6D 80 6E 80 46 80 1F      2....m.n.F..
0610: 01 00                                             ..              
```

#### Opcodes

```
  0: 0x0604 [0x32] ExtData[1]->MainSpeed = 13* * 0.1
  1: 0x0607 [0x1F] MOVE_ENTITY: EventEntity moves to X=-0.185*, Z=48.399*, Y=-61.021*
  2: 0x060F [0x1F] MOVE_ENTITY: Update entity position (mode=1)
  3: 0x0611 [0x00] END_REQSTACK()
```

### Event 65535.87

#### Metadata

| Field        | Value    |
|--------------|----------|
| Entrypoint   | 0x0612   |
| Data Size    | 28 bytes |
| Instructions | 8        |

```
      00 01 02 03 04 05 06 07  08 09 0A 0B 0C 0D 0E 0F
      -- -- -- -- -- -- -- --  -- -- -- -- -- -- -- --
0610:       32 11 80 1F 00 6F  80 69 80 46 80 1F 01 6F    2....o.i.F...o
0620: 4B 17 20 0F 01 0B 80 6F  76 17 20 0F 01 00        K. ....ov. ...  
```

#### Opcodes

```
  0: 0x0612 [0x32] ExtData[1]->MainSpeed = 13* * 0.1
  1: 0x0615 [0x1F] MOVE_ENTITY: EventEntity moves to X=0.970*, Z=47.980*, Y=-61.021*
  2: 0x061D [0x1F] MOVE_ENTITY: Update entity position (mode=1)
  3: 0x061F [0x6F] WAIT_FRAME_DELAY: Yield until WaitTime reaches zero
  4: 0x0620 [0x4B] UPDATE_ENTITY_YAW(entity=Ajido-Marujido (ID: 17768471/0x010F2017), yaw=0.0°*)
  5: 0x0627 [0x6F] WAIT_FRAME_DELAY: Yield until WaitTime reaches zero
  6: 0x0628 [0x76] CHECK_ENTITY_RENDER_FLAGS: Wait until Ajido-Marujido (ID: 17768471/0x010F2017) Render.Flags0 and Render.Flags3 conditions are met
  7: 0x062D [0x00] END_REQSTACK()
```

### Event 65535.88

#### Metadata

| Field        | Value    |
|--------------|----------|
| Entrypoint   | 0x062E   |
| Data Size    | 30 bytes |
| Instructions | 8        |

```
      00 01 02 03 04 05 06 07  08 09 0A 0B 0C 0D 0E 0F
      -- -- -- -- -- -- -- --  -- -- -- -- -- -- -- --
0620:                                            32 11                2.
0630: 80 1F 00 6D 80 70 80 46  80 1F 01 6F 4A 17 20 0F  ...m.p.F...oJ. .
0640: 01 16 20 0F 01 6F 76 17  20 0F 01 00              .. ..ov. ...    
```

#### Opcodes

```
  0: 0x062E [0x32] ExtData[1]->MainSpeed = 13* * 0.1
  1: 0x0631 [0x1F] MOVE_ENTITY: EventEntity moves to X=-0.185*, Z=48.000*, Y=-61.021*
  2: 0x0639 [0x1F] MOVE_ENTITY: Update entity position (mode=1)
  3: 0x063B [0x6F] WAIT_FRAME_DELAY: Yield until WaitTime reaches zero
  4: 0x063C [0x4A] Ajido-Marujido (ID: 17768471/0x010F2017) looks at Semih Lafihna (ID: 17768470/0x010F2016)
  5: 0x0645 [0x6F] WAIT_FRAME_DELAY: Yield until WaitTime reaches zero
  6: 0x0646 [0x76] CHECK_ENTITY_RENDER_FLAGS: Wait until Ajido-Marujido (ID: 17768471/0x010F2017) Render.Flags0 and Render.Flags3 conditions are met
  7: 0x064B [0x00] END_REQSTACK()
```

### Event 65535.89

#### Metadata

| Field        | Value    |
|--------------|----------|
| Entrypoint   | 0x064C   |
| Data Size    | 94 bytes |
| Instructions | 8        |

```
      00 01 02 03 04 05 06 07  08 09 0A 0B 0C 0D 0E 0F
      -- -- -- -- -- -- -- --  -- -- -- -- -- -- -- --
0640:                                      45 5E 80 F8              E^..
0650: FF FF 7F F8 FF FF 7F 73  30 37 30 0B 80 45 5F 80  .......s070..E_.
0660: F0 FF FF 7F F0 FF FF 7F  66 64 69 31 0B 80 1C 71  ........fdi1...q
0670: 80 52 5E 80 F8 FF FF 7F  F8 FF FF 7F 73 30 37 30  .R^.........s070
0680: 45 5F 80 F0 FF FF 7F F0  FF FF 7F 6F 76 6C 31 0B  E_.........ovl1.
0690: 80 45 5E 80 F0 FF FF 7F  F0 FF FF 7F 73 30 38 36  .E^.........s086
06A0: 0B 80 29 08 F0 FF FF 7F  51 00                    ..).....Q.      
```

#### Opcodes

```
  0: 0x064C [0x45] LOAD_SCHEDULED_TASK: Load scheduler "s070" with entities [EventEntity, EventEntity], work=[252*, 0*]
  1: 0x065D [0x45] LOAD_SCHEDULED_TASK: Load scheduler "fdi1" with entities [LocalPlayer, LocalPlayer], work=[200*, 0*]
  2: 0x066E [0x1C] WAIT(90* ticks)
  3: 0x0671 [0x52] END_LOAD_SCHEDULER: End scheduler "s070" with entities [EventEntity, EventEntity], work=252*
  4: 0x0680 [0x45] LOAD_SCHEDULED_TASK: Load scheduler "ovl1" with entities [LocalPlayer, LocalPlayer], work=[200*, 0*]
  5: 0x0691 [0x45] LOAD_SCHEDULED_TASK: Load scheduler "s086" with entities [LocalPlayer, LocalPlayer], work=[252*, 0*]
  6: 0x06A2 [0x29] REQ_SET_WAIT(priority=0x08, entity_id=LocalPlayer, tag_num=0x51)
  7: 0x06A9 [0x00] END_REQSTACK()
```

### Event 65535.90

#### Metadata

| Field        | Value    |
|--------------|----------|
| Entrypoint   | 0x06AA   |
| Data Size    | 14 bytes |
| Instructions | 4        |

```
      00 01 02 03 04 05 06 07  08 09 0A 0B 0C 0D 0E 0F
      -- -- -- -- -- -- -- --  -- -- -- -- -- -- -- --
06A0:                                32 11 80 1F 00 6D            2....m
06B0: 80 72 80 46 80 1F 01 00                           .r.F....        
```

#### Opcodes

```
  0: 0x06AA [0x32] ExtData[1]->MainSpeed = 13* * 0.1
  1: 0x06AD [0x1F] MOVE_ENTITY: EventEntity moves to X=-0.185*, Z=49.239*, Y=-61.021*
  2: 0x06B5 [0x1F] MOVE_ENTITY: Update entity position (mode=1)
  3: 0x06B7 [0x00] END_REQSTACK()
```

### Event 386

#### Metadata

| Field        | Value   |
|--------------|---------|
| Entrypoint   | 0x06B8  |
| Data Size    | 1 bytes |
| Instructions | 1       |

```
      00 01 02 03 04 05 06 07  08 09 0A 0B 0C 0D 0E 0F
      -- -- -- -- -- -- -- --  -- -- -- -- -- -- -- --
06B0:                          00                               .       
```

#### Opcodes

```
  0: 0x06B8 [0x00] END_REQSTACK()
```

### Event 65535.91

#### Metadata

| Field        | Value    |
|--------------|----------|
| Entrypoint   | 0x06B9   |
| Data Size    | 10 bytes |
| Instructions | 2        |

```
      00 01 02 03 04 05 06 07  08 09 0A 0B 0C 0D 0E 0F
      -- -- -- -- -- -- -- --  -- -- -- -- -- -- -- --
06B0:                             37 73 80 74 80 75 80           7s.t.u.
06C0: 76 80 00                                          v..             
```

#### Opcodes

```
  0: 0x06B9 [0x37] UPDATE_EVENT_POSITION_AND_DIR: x=0.116*, z=28.411*, y=-48.999*, direction=271.4°*
  1: 0x06C2 [0x00] END_REQSTACK()
```

### Event 65535.92

#### Metadata

| Field        | Value    |
|--------------|----------|
| Entrypoint   | 0x06C3   |
| Data Size    | 14 bytes |
| Instructions | 4        |

```
      00 01 02 03 04 05 06 07  08 09 0A 0B 0C 0D 0E 0F
      -- -- -- -- -- -- -- --  -- -- -- -- -- -- -- --
06C0:          32 11 80 1F 00  73 80 77 80 75 80 1F 01     2....s.w.u...
06D0: 00                                                .               
```

#### Opcodes

```
  0: 0x06C3 [0x32] ExtData[1]->MainSpeed = 13* * 0.1
  1: 0x06C6 [0x1F] MOVE_ENTITY: EventEntity moves to X=0.116*, Z=34.411*, Y=-48.999*
  2: 0x06CE [0x1F] MOVE_ENTITY: Update entity position (mode=1)
  3: 0x06D0 [0x00] END_REQSTACK()
```

### Event 65535.93

#### Metadata

| Field        | Value    |
|--------------|----------|
| Entrypoint   | 0x06D1   |
| Data Size    | 10 bytes |
| Instructions | 2        |

```
      00 01 02 03 04 05 06 07  08 09 0A 0B 0C 0D 0E 0F
      -- -- -- -- -- -- -- --  -- -- -- -- -- -- -- --
06D0:    37 5F 80 78 80 1C 80  79 80 00                  7_.x...y..     
```

#### Opcodes

```
  0: 0x06D1 [0x37] UPDATE_EVENT_POSITION_AND_DIR: x=0.200*, z=-0.547*, y=-46.999*, direction=337.9°*
  1: 0x06DA [0x00] END_REQSTACK()
```

### Event 65535.94

#### Metadata

| Field        | Value    |
|--------------|----------|
| Entrypoint   | 0x06DB   |
| Data Size    | 14 bytes |
| Instructions | 4        |

```
      00 01 02 03 04 05 06 07  08 09 0A 0B 0C 0D 0E 0F
      -- -- -- -- -- -- -- --  -- -- -- -- -- -- -- --
06D0:                                   32 11 80 1F 00             2....
06E0: 7A 80 78 80 1C 80 1F 01  00                       z.x......       
```

#### Opcodes

```
  0: 0x06DB [0x32] ExtData[1]->MainSpeed = 13* * 0.1
  1: 0x06DE [0x1F] MOVE_ENTITY: EventEntity moves to X=0.717*, Z=-0.547*, Y=-46.999*
  2: 0x06E6 [0x1F] MOVE_ENTITY: Update entity position (mode=1)
  3: 0x06E8 [0x00] END_REQSTACK()
```

### Event 65535.95

#### Metadata

| Field        | Value    |
|--------------|----------|
| Entrypoint   | 0x06E9   |
| Data Size    | 14 bytes |
| Instructions | 4        |

```
      00 01 02 03 04 05 06 07  08 09 0A 0B 0C 0D 0E 0F
      -- -- -- -- -- -- -- --  -- -- -- -- -- -- -- --
06E0:                             32 11 80 1F 00 7B 80           2....{.
06F0: 7C 80 1C 80 1F 01 00                              |......         
```

#### Opcodes

```
  0: 0x06E9 [0x32] ExtData[1]->MainSpeed = 13* * 0.1
  1: 0x06EC [0x1F] MOVE_ENTITY: EventEntity moves to X=0.517*, Z=-1.000*, Y=-46.999*
  2: 0x06F4 [0x1F] MOVE_ENTITY: Update entity position (mode=1)
  3: 0x06F6 [0x00] END_REQSTACK()
```

### Event 65535.96

#### Metadata

| Field        | Value    |
|--------------|----------|
| Entrypoint   | 0x06F7   |
| Data Size    | 14 bytes |
| Instructions | 4        |

```
      00 01 02 03 04 05 06 07  08 09 0A 0B 0C 0D 0E 0F
      -- -- -- -- -- -- -- --  -- -- -- -- -- -- -- --
06F0:                      32  11 80 1F 00 0B 80 7D 80         2......}.
0700: 1C 80 1F 01 00                                    .....           
```

#### Opcodes

```
  0: 0x06F7 [0x32] ExtData[1]->MainSpeed = 13* * 0.1
  1: 0x06FA [0x1F] MOVE_ENTITY: EventEntity moves to X=0.000*, Z=-0.400*, Y=-46.999*
  2: 0x0702 [0x1F] MOVE_ENTITY: Update entity position (mode=1)
  3: 0x0704 [0x00] END_REQSTACK()
```

### Event 65535.97

#### Metadata

| Field        | Value    |
|--------------|----------|
| Entrypoint   | 0x0705   |
| Data Size    | 10 bytes |
| Instructions | 2        |

```
      00 01 02 03 04 05 06 07  08 09 0A 0B 0C 0D 0E 0F
      -- -- -- -- -- -- -- --  -- -- -- -- -- -- -- --
0700:                37 7E 80  7F 80 80 80 81 80 00          7~........ 
```

#### Opcodes

```
  0: 0x0705 [0x37] UPDATE_EVENT_POSITION_AND_DIR: x=0.466*, z=0.101*, y=-47.000*, direction=101.9°*
  1: 0x070E [0x00] END_REQSTACK()
```

### Event 65535.98

#### Metadata

| Field        | Value    |
|--------------|----------|
| Entrypoint   | 0x070F   |
| Data Size    | 14 bytes |
| Instructions | 4        |

```
      00 01 02 03 04 05 06 07  08 09 0A 0B 0C 0D 0E 0F
      -- -- -- -- -- -- -- --  -- -- -- -- -- -- -- --
0700:                                               32                 2
0710: 40 80 1F 00 82 80 83 80  80 80 1F 01 00           @............   
```

#### Opcodes

```
  0: 0x070F [0x32] ExtData[1]->MainSpeed = 40* * 0.1
  1: 0x0712 [0x1F] MOVE_ENTITY: EventEntity moves to X=0.300*, Z=-0.200*, Y=-47.000*
  2: 0x071A [0x1F] MOVE_ENTITY: Update entity position (mode=1)
  3: 0x071C [0x00] END_REQSTACK()
```

### Event 65535.99

#### Metadata

| Field        | Value    |
|--------------|----------|
| Entrypoint   | 0x071D   |
| Data Size    | 14 bytes |
| Instructions | 4        |

```
      00 01 02 03 04 05 06 07  08 09 0A 0B 0C 0D 0E 0F
      -- -- -- -- -- -- -- --  -- -- -- -- -- -- -- --
0710:                                         32 11 80               2..
0720: 1F 00 84 80 85 80 86 80  1F 01 00                 ...........     
```

#### Opcodes

```
  0: 0x071D [0x32] ExtData[1]->MainSpeed = 13* * 0.1
  1: 0x0720 [0x1F] MOVE_ENTITY: EventEntity moves to X=-0.017*, Z=-17.999*, Y=-46.500*
  2: 0x0728 [0x1F] MOVE_ENTITY: Update entity position (mode=1)
  3: 0x072A [0x00] END_REQSTACK()
```
