# 17768472 - Lion

## Common Data

| Field            | Value                   |
|------------------|-------------------------|
| Zone             | Heavens Tower (ID: 242) |
| Block Size       | 600 bytes               |
| Total Events     | 21                      |
| References Count | 31                      |

## List of Events

| Event ID                   | Entrypoint   |   Size |   Instructions |
|----------------------------|--------------|--------|----------------|
| [65535](#event-65535)      | 0x0000       |      1 |              1 |
| [65535.1](#event-655351)   | 0x0001       |     16 |              2 |
| [65535.2](#event-655352)   | 0x0011       |     14 |              2 |
| [65535.3](#event-655353)   | 0x001F       |     16 |              2 |
| [65535.4](#event-655354)   | 0x002F       |     14 |              2 |
| [65535.5](#event-655355)   | 0x003D       |     22 |              3 |
| [65535.6](#event-655356)   | 0x0053       |     14 |              2 |
| [65535.7](#event-655357)   | 0x0061       |     16 |              2 |
| [65535.8](#event-655358)   | 0x0071       |     20 |              3 |
| [65535.9](#event-655359)   | 0x0085       |     22 |              3 |
| [65535.10](#event-6553510) | 0x009B       |     20 |              3 |
| [65535.11](#event-6553511) | 0x00AF       |      9 |              3 |
| [42](#event-42)            | 0x00B8       |     10 |              2 |
| [65535.12](#event-6553512) | 0x00C2       |     35 |              9 |
| [65535.13](#event-6553513) | 0x00E5       |     45 |              9 |
| [65535.14](#event-6553514) | 0x0112       |     15 |              5 |
| [65535.15](#event-6553515) | 0x0121       |     16 |              6 |
| [65535.16](#event-6553516) | 0x0131       |     23 |              7 |
| [65535.17](#event-6553517) | 0x0148       |      1 |              1 |
| [65535.18](#event-6553518) | 0x0149       |     33 |              7 |
| [65535.19](#event-6553519) | 0x016A       |     14 |              4 |

## DAT References (imed_data)

|   Index | Hex Value   |   Dec Value |
|---------|-------------|-------------|
|       0 | 0x0060      |          96 |
|       1 | 0x005F      |          95 |
|       2 | 0x001E      |          30 |
|       3 | 0x17F0      |        6128 |
|       4 | 0xFFFFD080  |  4294955136 |
|       5 | 0x02ED      |         749 |
|       6 | 0x05CC      |        1484 |
|       7 | 0x000D      |          13 |
|       8 | 0x0E06      |        3590 |
|       9 | 0xFFFFBE6F  |  4294950511 |
|      10 | 0x0250      |         592 |
|      11 | 0x05F3      |        1523 |
|      12 | 0xFFFFB17D  |  4294947197 |
|      13 | 0x00F9      |         249 |
|      14 | 0x038E      |         910 |
|      15 | 0xFFFFAEC1  |  4294946497 |
|      16 | 0x276D      |       10093 |
|      17 | 0xFFFFC049  |  4294950985 |
|      18 | 0x01F3      |         499 |
|      19 | 0x0A94      |        2708 |
|      20 | 0x1309      |        4873 |
|      21 | 0xFFFFB827  |  4294948903 |
|      22 | 0x058B      |        1419 |
|      23 | 0xFFFF8FA3  |  4294938531 |
|      24 | 0x0000      |           0 |
|      25 | 0x0001      |           1 |
|      26 | 0x0002      |           2 |
|      27 | 0x0003      |           3 |
|      28 | 0x0005      |           5 |
|      29 | 0x02E8      |         744 |
|      30 | 0xFFFFA48C  |  4294943884 |

## String References

- **0**: Hm? You don't look like someone from around here.
- **1**: My name is Lion. I'm an adventurer like you.
- **2**: I, too, came here to pick up the offering to the Yagudo.
- **3**: It's terrible! The Yagudo are just using the frightened Tarutaru to get more and more supplies.
- **5**: With all this talk of a new leader bringing the beastman forces together, I just hope that Windurst opens its eyes in time.

## Events

### Event 65535

#### Metadata

| Field        | Value   |
|--------------|---------|
| Entrypoint   | 0x0000  |
| Data Size    | 1 bytes |
| Instructions | 1       |

```
      00 01 02 03 04 05 06 07  08 09 0A 0B 0C 0D 0E 0F
      -- -- -- -- -- -- -- --  -- -- -- -- -- -- -- --
0000: 00                                                .               
```

#### Opcodes

```
  0: 0x0000 [0x00] END_REQSTACK()
```

### Event 65535.1

#### Metadata

| Field        | Value    |
|--------------|----------|
| Entrypoint   | 0x0001   |
| Data Size    | 16 bytes |
| Instructions | 2        |

```
      00 01 02 03 04 05 06 07  08 09 0A 0B 0C 0D 0E 0F
      -- -- -- -- -- -- -- --  -- -- -- -- -- -- -- --
0000:    5B 00 80 F8 FF FF 7F  F8 FF FF 7F 74 6C 63 30   [..........tlc0
0010: 00                                                .               
```

#### Opcodes

```
  0: 0x0001 [0x5B] LOAD_EXT_SCHEDULER: Load scheduler "tlc0" with entities [EventEntity, EventEntity], work=96*
  1: 0x0010 [0x00] END_REQSTACK()
```

### Event 65535.2

#### Metadata

| Field        | Value    |
|--------------|----------|
| Entrypoint   | 0x0011   |
| Data Size    | 14 bytes |
| Instructions | 2        |

```
      00 01 02 03 04 05 06 07  08 09 0A 0B 0C 0D 0E 0F
      -- -- -- -- -- -- -- --  -- -- -- -- -- -- -- --
0010:    53 F8 FF FF 7F F8 FF  FF 7F 74 6C 63 30 00      S........tlc0. 
```

#### Opcodes

```
  0: 0x0011 [0x53] WAIT_SCHEDULER_TASK: Wait for scheduler "tlc0" with entities [EventEntity, EventEntity]
  1: 0x001E [0x00] END_REQSTACK()
```

### Event 65535.3

#### Metadata

| Field        | Value    |
|--------------|----------|
| Entrypoint   | 0x001F   |
| Data Size    | 16 bytes |
| Instructions | 2        |

```
      00 01 02 03 04 05 06 07  08 09 0A 0B 0C 0D 0E 0F
      -- -- -- -- -- -- -- --  -- -- -- -- -- -- -- --
0010:                                               5B                 [
0020: 00 80 F8 FF FF 7F F8 FF  FF 7F 74 6C 63 31 00     ..........tlc1. 
```

#### Opcodes

```
  0: 0x001F [0x5B] LOAD_EXT_SCHEDULER: Load scheduler "tlc1" with entities [EventEntity, EventEntity], work=96*
  1: 0x002E [0x00] END_REQSTACK()
```

### Event 65535.4

#### Metadata

| Field        | Value    |
|--------------|----------|
| Entrypoint   | 0x002F   |
| Data Size    | 14 bytes |
| Instructions | 2        |

```
      00 01 02 03 04 05 06 07  08 09 0A 0B 0C 0D 0E 0F
      -- -- -- -- -- -- -- --  -- -- -- -- -- -- -- --
0020:                                               53                 S
0030: F8 FF FF 7F F8 FF FF 7F  74 6C 63 31 00           ........tlc1.   
```

#### Opcodes

```
  0: 0x002F [0x53] WAIT_SCHEDULER_TASK: Wait for scheduler "tlc1" with entities [EventEntity, EventEntity]
  1: 0x003C [0x00] END_REQSTACK()
```

### Event 65535.5

#### Metadata

| Field        | Value    |
|--------------|----------|
| Entrypoint   | 0x003D   |
| Data Size    | 22 bytes |
| Instructions | 3        |

```
      00 01 02 03 04 05 06 07  08 09 0A 0B 0C 0D 0E 0F
      -- -- -- -- -- -- -- --  -- -- -- -- -- -- -- --
0030:                                         81 00 F8               ...
0040: FF FF 7F 5B 01 80 F8 FF  FF 7F F8 FF FF 7F 74 68  ...[..........th
0050: 6B 31 00                                          k1.             
```

#### Opcodes

```
  0: 0x003D [0x81] SET_ENTITY_BLINKING(blink_flag=0x00, entity=EventEntity)
  1: 0x0043 [0x5B] LOAD_EXT_SCHEDULER: Load scheduler "thk1" with entities [EventEntity, EventEntity], work=95*
  2: 0x0052 [0x00] END_REQSTACK()
```

### Event 65535.6

#### Metadata

| Field        | Value    |
|--------------|----------|
| Entrypoint   | 0x0053   |
| Data Size    | 14 bytes |
| Instructions | 2        |

```
      00 01 02 03 04 05 06 07  08 09 0A 0B 0C 0D 0E 0F
      -- -- -- -- -- -- -- --  -- -- -- -- -- -- -- --
0050:          53 F8 FF FF 7F  F8 FF FF 7F 74 68 6B 31     S........thk1
0060: 00                                                .               
```

#### Opcodes

```
  0: 0x0053 [0x53] WAIT_SCHEDULER_TASK: Wait for scheduler "thk1" with entities [EventEntity, EventEntity]
  1: 0x0060 [0x00] END_REQSTACK()
```

### Event 65535.7

#### Metadata

| Field        | Value    |
|--------------|----------|
| Entrypoint   | 0x0061   |
| Data Size    | 16 bytes |
| Instructions | 2        |

```
      00 01 02 03 04 05 06 07  08 09 0A 0B 0C 0D 0E 0F
      -- -- -- -- -- -- -- --  -- -- -- -- -- -- -- --
0060:    5B 01 80 F8 FF FF 7F  F8 FF FF 7F 74 68 6B 32   [..........thk2
0070: 00                                                .               
```

#### Opcodes

```
  0: 0x0061 [0x5B] LOAD_EXT_SCHEDULER: Load scheduler "thk2" with entities [EventEntity, EventEntity], work=95*
  1: 0x0070 [0x00] END_REQSTACK()
```

### Event 65535.8

#### Metadata

| Field        | Value    |
|--------------|----------|
| Entrypoint   | 0x0071   |
| Data Size    | 20 bytes |
| Instructions | 3        |

```
      00 01 02 03 04 05 06 07  08 09 0A 0B 0C 0D 0E 0F
      -- -- -- -- -- -- -- --  -- -- -- -- -- -- -- --
0070:    53 F8 FF FF 7F F8 FF  FF 7F 74 68 6B 32 81 01   S........thk2..
0080: F8 FF FF 7F 00                                    .....           
```

#### Opcodes

```
  0: 0x0071 [0x53] WAIT_SCHEDULER_TASK: Wait for scheduler "thk2" with entities [EventEntity, EventEntity]
  1: 0x007E [0x81] SET_ENTITY_BLINKING(blink_flag=0x01, entity=EventEntity)
  2: 0x0084 [0x00] END_REQSTACK()
```

### Event 65535.9

#### Metadata

| Field        | Value    |
|--------------|----------|
| Entrypoint   | 0x0085   |
| Data Size    | 22 bytes |
| Instructions | 3        |

```
      00 01 02 03 04 05 06 07  08 09 0A 0B 0C 0D 0E 0F
      -- -- -- -- -- -- -- --  -- -- -- -- -- -- -- --
0080:                7C 00 F8  FF FF 7F 5B 01 80 F8 FF       |.....[....
0090: FF 7F F8 FF FF 7F 69 61  6D 30 00                 ......iam0.     
```

#### Opcodes

```
  0: 0x0085 [0x7C] EventEntity->Render.Flags2 |= 0x00
  1: 0x008B [0x5B] LOAD_EXT_SCHEDULER: Load scheduler "iam0" with entities [EventEntity, EventEntity], work=95*
  2: 0x009A [0x00] END_REQSTACK()
```

### Event 65535.10

#### Metadata

| Field        | Value    |
|--------------|----------|
| Entrypoint   | 0x009B   |
| Data Size    | 20 bytes |
| Instructions | 3        |

```
      00 01 02 03 04 05 06 07  08 09 0A 0B 0C 0D 0E 0F
      -- -- -- -- -- -- -- --  -- -- -- -- -- -- -- --
0090:                                   53 F8 FF FF 7F             S....
00A0: F8 FF FF 7F 69 61 6D 30  7C 01 F8 FF FF 7F 00     ....iam0|...... 
```

#### Opcodes

```
  0: 0x009B [0x53] WAIT_SCHEDULER_TASK: Wait for scheduler "iam0" with entities [EventEntity, EventEntity]
  1: 0x00A8 [0x7C] EventEntity->Render.Flags2 |= 0x01
  2: 0x00AE [0x00] END_REQSTACK()
```

### Event 65535.11

#### Metadata

| Field        | Value   |
|--------------|---------|
| Entrypoint   | 0x00AF  |
| Data Size    | 9 bytes |
| Instructions | 3       |

```
      00 01 02 03 04 05 06 07  08 09 0A 0B 0C 0D 0E 0F
      -- -- -- -- -- -- -- --  -- -- -- -- -- -- -- --
00A0:                                               5E                 ^
00B0: 69 64 6C 30 1C 02 80 00                           idl0....        
```

#### Opcodes

```
  0: 0x00AF [0x5E] EventEntity goes idle (kills current action) (animation: "idl0")
  1: 0x00B4 [0x1C] WAIT(30* ticks)
  2: 0x00B7 [0x00] END_REQSTACK()
```

### Event 42

#### Metadata

| Field        | Value    |
|--------------|----------|
| Entrypoint   | 0x00B8   |
| Data Size    | 10 bytes |
| Instructions | 2        |

```
      00 01 02 03 04 05 06 07  08 09 0A 0B 0C 0D 0E 0F
      -- -- -- -- -- -- -- --  -- -- -- -- -- -- -- --
00B0:                          37 03 80 04 80 05 80 06          7.......
00C0: 80 00                                             ..              
```

#### Opcodes

```
  0: 0x00B8 [0x37] UPDATE_EVENT_POSITION_AND_DIR: x=6.128*, z=-12.160*, y=0.749*, direction=130.4°*
  1: 0x00C1 [0x00] END_REQSTACK()
```

### Event 65535.12

#### Metadata

| Field        | Value    |
|--------------|----------|
| Entrypoint   | 0x00C2   |
| Data Size    | 35 bytes |
| Instructions | 9        |

```
      00 01 02 03 04 05 06 07  08 09 0A 0B 0C 0D 0E 0F
      -- -- -- -- -- -- -- --  -- -- -- -- -- -- -- --
00C0:       32 07 80 1F 00 08  80 09 80 0A 80 1F 01 1F    2.............
00D0: 00 0B 80 0C 80 0D 80 1F  01 1F 00 0E 80 0F 80 0D  ................
00E0: 80 1F 01 6F 00                                    ...o.           
```

#### Opcodes

```
  0: 0x00C2 [0x32] ExtData[1]->MainSpeed = 13* * 0.1
  1: 0x00C5 [0x1F] MOVE_ENTITY: EventEntity moves to X=3.590*, Z=-16.785*, Y=0.592*
  2: 0x00CD [0x1F] MOVE_ENTITY: Update entity position (mode=1)
  3: 0x00CF [0x1F] MOVE_ENTITY: EventEntity moves to X=1.523*, Z=-20.099*, Y=0.249*
  4: 0x00D7 [0x1F] MOVE_ENTITY: Update entity position (mode=1)
  5: 0x00D9 [0x1F] MOVE_ENTITY: EventEntity moves to X=0.910*, Z=-20.799*, Y=0.249*
  6: 0x00E1 [0x1F] MOVE_ENTITY: Update entity position (mode=1)
  7: 0x00E3 [0x6F] WAIT_FRAME_DELAY: Yield until WaitTime reaches zero
  8: 0x00E4 [0x00] END_REQSTACK()
```

### Event 65535.13

#### Metadata

| Field        | Value    |
|--------------|----------|
| Entrypoint   | 0x00E5   |
| Data Size    | 45 bytes |
| Instructions | 9        |

```
      00 01 02 03 04 05 06 07  08 09 0A 0B 0C 0D 0E 0F
      -- -- -- -- -- -- -- --  -- -- -- -- -- -- -- --
00E0:                4A F0 FF  FF 7F 18 20 0F 01 37 10       J..... ..7.
00F0: 80 11 80 12 80 13 80 1F  00 14 80 15 80 12 80 1F  ................
0100: 01 6F 4A 18 20 0F 01 F0  FF FF 7F 6F 76 18 20 0F  .oJ. ......ov. .
0110: 01 00                                             ..              
```

#### Opcodes

```
  0: 0x00E5 [0x4A] LocalPlayer looks at Lion (ID: 17768472/0x010F2018)
  1: 0x00EE [0x37] UPDATE_EVENT_POSITION_AND_DIR: x=10.093*, z=-16.311*, y=0.499*, direction=238.0°*
  2: 0x00F7 [0x1F] MOVE_ENTITY: EventEntity moves to X=4.873*, Z=-18.393*, Y=0.499*
  3: 0x00FF [0x1F] MOVE_ENTITY: Update entity position (mode=1)
  4: 0x0101 [0x6F] WAIT_FRAME_DELAY: Yield until WaitTime reaches zero
  5: 0x0102 [0x4A] Lion (ID: 17768472/0x010F2018) looks at LocalPlayer
  6: 0x010B [0x6F] WAIT_FRAME_DELAY: Yield until WaitTime reaches zero
  7: 0x010C [0x76] CHECK_ENTITY_RENDER_FLAGS: Wait until Lion (ID: 17768472/0x010F2018) Render.Flags0 and Render.Flags3 conditions are met
  8: 0x0111 [0x00] END_REQSTACK()
```

### Event 65535.14

#### Metadata

| Field        | Value    |
|--------------|----------|
| Entrypoint   | 0x0112   |
| Data Size    | 15 bytes |
| Instructions | 5        |

```
      00 01 02 03 04 05 06 07  08 09 0A 0B 0C 0D 0E 0F
      -- -- -- -- -- -- -- --  -- -- -- -- -- -- -- --
0110:       32 07 80 1F 00 16  80 17 80 18 80 1F 01 6F    2............o
0120: 00                                                .               
```

#### Opcodes

```
  0: 0x0112 [0x32] ExtData[1]->MainSpeed = 13* * 0.1
  1: 0x0115 [0x1F] MOVE_ENTITY: EventEntity moves to X=1.419*, Z=-28.765*, Y=0.000*
  2: 0x011D [0x1F] MOVE_ENTITY: Update entity position (mode=1)
  3: 0x011F [0x6F] WAIT_FRAME_DELAY: Yield until WaitTime reaches zero
  4: 0x0120 [0x00] END_REQSTACK()
```

### Event 65535.15

#### Metadata

| Field        | Value    |
|--------------|----------|
| Entrypoint   | 0x0121   |
| Data Size    | 16 bytes |
| Instructions | 6        |

```
      00 01 02 03 04 05 06 07  08 09 0A 0B 0C 0D 0E 0F
      -- -- -- -- -- -- -- --  -- -- -- -- -- -- -- --
0120:    29 08 18 20 0F 01 01  1D 18 80 23 1D 19 80 23   ).. ......#...#
0130: 00                                                .               
```

#### Opcodes

```
  0: 0x0121 [0x29] REQ_SET_WAIT(priority=0x08, entity_id=Lion (ID: 17768472/0x010F2018), tag_num=0x01)
  1: 0x0128 [0x1D] PRINT_EVENT_MESSAGE(message_id=0*)
    → "Hm? You don't look like someone from around here."
  2: 0x012B [0x23] WAIT_FOR_DIALOG_INTERACTION
  3: 0x012C [0x1D] PRINT_EVENT_MESSAGE(message_id=1*)
    → "My name is Lion. I'm an adventurer like you."
  4: 0x012F [0x23] WAIT_FOR_DIALOG_INTERACTION
  5: 0x0130 [0x00] END_REQSTACK()
```

### Event 65535.16

#### Metadata

| Field        | Value    |
|--------------|----------|
| Entrypoint   | 0x0131   |
| Data Size    | 23 bytes |
| Instructions | 7        |

```
      00 01 02 03 04 05 06 07  08 09 0A 0B 0C 0D 0E 0F
      -- -- -- -- -- -- -- --  -- -- -- -- -- -- -- --
0130:    1D 1A 80 23 1D 1B 80  23 29 08 18 20 0F 01 03   ...#...#).. ...
0140: 29 08 18 20 0F 01 04 00                           ).. ....        
```

#### Opcodes

```
  0: 0x0131 [0x1D] PRINT_EVENT_MESSAGE(message_id=2*)
    → "I, too, came here to pick up the offering to the Yagudo."
  1: 0x0134 [0x23] WAIT_FOR_DIALOG_INTERACTION
  2: 0x0135 [0x1D] PRINT_EVENT_MESSAGE(message_id=3*)
    → "It's terrible! The Yagudo are just using the frightened Tarutaru to get more and more supplies."
  3: 0x0138 [0x23] WAIT_FOR_DIALOG_INTERACTION
  4: 0x0139 [0x29] REQ_SET_WAIT(priority=0x08, entity_id=Lion (ID: 17768472/0x010F2018), tag_num=0x03)
  5: 0x0140 [0x29] REQ_SET_WAIT(priority=0x08, entity_id=Lion (ID: 17768472/0x010F2018), tag_num=0x04)
  6: 0x0147 [0x00] END_REQSTACK()
```

### Event 65535.17

#### Metadata

| Field        | Value   |
|--------------|---------|
| Entrypoint   | 0x0148  |
| Data Size    | 1 bytes |
| Instructions | 1       |

```
      00 01 02 03 04 05 06 07  08 09 0A 0B 0C 0D 0E 0F
      -- -- -- -- -- -- -- --  -- -- -- -- -- -- -- --
0140:                          00                               .       
```

#### Opcodes

```
  0: 0x0148 [0x00] END_REQSTACK()
```

### Event 65535.18

#### Metadata

| Field        | Value    |
|--------------|----------|
| Entrypoint   | 0x0149   |
| Data Size    | 33 bytes |
| Instructions | 7        |

```
      00 01 02 03 04 05 06 07  08 09 0A 0B 0C 0D 0E 0F
      -- -- -- -- -- -- -- --  -- -- -- -- -- -- -- --
0140:                             29 08 18 20 0F 01 01           ).. ...
0150: 1D 1C 80 23 29 08 18 20  0F 01 02 29 08 18 20 0F  ...#).. ...).. .
0160: 01 03 29 08 18 20 0F 01  04 00                    ..).. ....      
```

#### Opcodes

```
  0: 0x0149 [0x29] REQ_SET_WAIT(priority=0x08, entity_id=Lion (ID: 17768472/0x010F2018), tag_num=0x01)
  1: 0x0150 [0x1D] PRINT_EVENT_MESSAGE(message_id=5*)
    → "With all this talk of a new leader bringing the beastman forces together, I just hope that Windurst opens its eyes in time."
  2: 0x0153 [0x23] WAIT_FOR_DIALOG_INTERACTION
  3: 0x0154 [0x29] REQ_SET_WAIT(priority=0x08, entity_id=Lion (ID: 17768472/0x010F2018), tag_num=0x02)
  4: 0x015B [0x29] REQ_SET_WAIT(priority=0x08, entity_id=Lion (ID: 17768472/0x010F2018), tag_num=0x03)
  5: 0x0162 [0x29] REQ_SET_WAIT(priority=0x08, entity_id=Lion (ID: 17768472/0x010F2018), tag_num=0x04)
  6: 0x0169 [0x00] END_REQSTACK()
```

### Event 65535.19

#### Metadata

| Field        | Value    |
|--------------|----------|
| Entrypoint   | 0x016A   |
| Data Size    | 14 bytes |
| Instructions | 4        |

```
      00 01 02 03 04 05 06 07  08 09 0A 0B 0C 0D 0E 0F
      -- -- -- -- -- -- -- --  -- -- -- -- -- -- -- --
0160:                                32 07 80 1F 00 1D            2.....
0170: 80 1E 80 18 80 1F 01 00                           ........        
```

#### Opcodes

```
  0: 0x016A [0x32] ExtData[1]->MainSpeed = 13* * 0.1
  1: 0x016D [0x1F] MOVE_ENTITY: EventEntity moves to X=0.744*, Z=-23.412*, Y=0.000*
  2: 0x0175 [0x1F] MOVE_ENTITY: Update entity position (mode=1)
  3: 0x0177 [0x00] END_REQSTACK()
```
