# 17768476 - DoorVestal Chamber

## Common Data

| Field            | Value                   |
|------------------|-------------------------|
| Zone             | Heavens Tower (ID: 242) |
| Block Size       | 22944 bytes             |
| Total Events     | 22                      |
| References Count | 269                     |

## List of Events

| Event ID                 | Entrypoint   |   Size |   Instructions |
|--------------------------|--------------|--------|----------------|
| [65535](#event-65535)    | 0x0000       |      1 |              1 |
| [154](#event-154)        | 0x0001       |      8 |              5 |
| [153](#event-153)        | 0x0009       |    889 |            116 |
| [165](#event-165)        | 0x0382       |     38 |              5 |
| [164](#event-164)        | 0x03A8       |    162 |             21 |
| [166](#event-166)        | 0x044A       |   1252 |            162 |
| [65535.1](#event-655351) | 0x092E       |     93 |             11 |
| [65535.2](#event-655352) | 0x098B       |     40 |              6 |
| [65535.3](#event-655353) | 0x09B3       |     67 |              9 |
| [190](#event-190)        | 0x09F6       |    411 |             60 |
| [191](#event-191)        | 0x0B91       |    364 |             51 |
| [192](#event-192)        | 0x0CFD       |    588 |             78 |
| [214](#event-214)        | 0x0F49       |    475 |             64 |
| [216](#event-216)        | 0x1124       |    354 |             47 |
| [310](#event-310)        | 0x1286       |   1418 |            171 |
| [312](#event-312)        | 0x1810       |    616 |             86 |
| [335](#event-335)        | 0x1A78       |   1604 |            188 |
| [362](#event-362)        | 0x20BC       |   3157 |            407 |
| [384](#event-384)        | 0x2D11       |   4191 |            542 |
| [385](#event-385)        | 0x3D70       |   1906 |            259 |
| [386](#event-386)        | 0x44E2       |   2780 |            355 |
| [407](#event-407)        | 0x4FBE       |   1348 |            166 |

## DAT References (imed_data)

|   Index | Hex Value   |   Dec Value |
|---------|-------------|-------------|
|       0 | 0x0136      |         310 |
|       1 | 0x00C8      |         200 |
|       2 | 0x0000      |           0 |
|       3 | 0x003C      |          60 |
|       4 | 0x0003      |           3 |
|       5 | 0x01AC      |         428 |
|       6 | 0x0001      |           1 |
|       7 | 0x008E      |         142 |
|       8 | 0x0064      |         100 |
|       9 | 0x00E6      |         230 |
|      10 | 0x0146      |         326 |
|      11 | 0x0032      |          50 |
|      12 | 0x014B      |         331 |
|      13 | 0x014C      |         332 |
|      14 | 0x014D      |         333 |
|      15 | 0x0150      |         336 |
|      16 | 0x01AA      |         426 |
|      17 | 0x01AB      |         427 |
|      18 | 0x0151      |         337 |
|      19 | 0x012C      |         300 |
|      20 | 0x0185      |         389 |
|      21 | 0x0192      |         402 |
|      22 | 0x0008      |           8 |
|      23 | 0x019E      |         414 |
|      24 | 0x01A6      |         422 |
|      25 | 0x0013      |          19 |
|      26 | 0x00C9      |         201 |
|      27 | 0x01DA      |         474 |
|      28 | 0x01DC      |         476 |
|      29 | 0x0015      |          21 |
|      30 | 0x009F      |         159 |
|      31 | 0x007F      |         127 |
|      32 | 0x1FE2      |        8162 |
|      33 | 0x00D4      |         212 |
|      34 | 0x1FE7      |        8167 |
|      35 | 0x1FEA      |        8170 |
|      36 | 0x1FEC      |        8172 |
|      37 | 0x1FED      |        8173 |
|      38 | 0x1FF2      |        8178 |
|      39 | 0x1FF3      |        8179 |
|      40 | 0x0005      |           5 |
|      41 | 0x0006      |           6 |
|      42 | 0x1FF8      |        8184 |
|      43 | 0x0096      |         150 |
|      44 | 0x00A2      |         162 |
|      45 | 0x00F0      |         240 |
|      46 | 0x2001      |        8193 |
|      47 | 0x0016      |          22 |
|      48 | 0x007D      |         125 |
|      49 | 0x00FB      |         251 |
|      50 | 0x0028      |          40 |
|      51 | 0x2018      |        8216 |
|      52 | 0x0020      |          32 |
|      53 | 0x2019      |        8217 |
|      54 | 0x201A      |        8218 |
|      55 | 0x005A      |          90 |
|      56 | 0x0022      |          34 |
|      57 | 0x201B      |        8219 |
|      58 | 0x001E      |          30 |
|      59 | 0x201C      |        8220 |
|      60 | 0x0046      |          70 |
|      61 | 0x0023      |          35 |
|      62 | 0x0021      |          33 |
|      63 | 0x0014      |          20 |
|      64 | 0x0050      |          80 |
|      65 | 0x201D      |        8221 |
|      66 | 0x201E      |        8222 |
|      67 | 0x201F      |        8223 |
|      68 | 0x002C      |          44 |
|      69 | 0x2021      |        8225 |
|      70 | 0x00A0      |         160 |
|      71 | 0x2022      |        8226 |
|      72 | 0x2023      |        8227 |
|      73 | 0x000A      |          10 |
|      74 | 0x2024      |        8228 |
|      75 | 0x2026      |        8230 |
|      76 | 0x2027      |        8231 |
|      77 | 0x202A      |        8234 |
|      78 | 0x202B      |        8235 |
|      79 | 0x202C      |        8236 |
|      80 | 0x00AA      |         170 |
|      81 | 0x000C      |          12 |
|      82 | 0x202D      |        8237 |
|      83 | 0x202E      |        8238 |
|      84 | 0x00F2      |         242 |
|      85 | 0x202F      |        8239 |
|      86 | 0x2030      |        8240 |
|      87 | 0x2031      |        8241 |
|      88 | 0x2032      |        8242 |
|      89 | 0x2033      |        8243 |
|      90 | 0x2034      |        8244 |
|      91 | 0x0078      |         120 |
|      92 | 0x2035      |        8245 |
|      93 | 0x2036      |        8246 |
|      94 | 0x2037      |        8247 |
|      95 | 0x2038      |        8248 |
|      96 | 0x2039      |        8249 |
|      97 | 0x203A      |        8250 |
|      98 | 0x203B      |        8251 |
|      99 | 0x002B      |          43 |
|     100 | 0x004A      |          74 |
|     101 | 0x203C      |        8252 |
|     102 | 0x203D      |        8253 |
|     103 | 0x203E      |        8254 |
|     104 | 0x203F      |        8255 |
|     105 | 0x00E2      |         226 |
|     106 | 0x2040      |        8256 |
|     107 | 0x2042      |        8258 |
|     108 | 0x2043      |        8259 |
|     109 | 0x2044      |        8260 |
|     110 | 0x2045      |        8261 |
|     111 | 0x0099      |         153 |
|     112 | 0x2047      |        8263 |
|     113 | 0x2048      |        8264 |
|     114 | 0x2049      |        8265 |
|     115 | 0x204A      |        8266 |
|     116 | 0x204B      |        8267 |
|     117 | 0x204C      |        8268 |
|     118 | 0x204D      |        8269 |
|     119 | 0x204E      |        8270 |
|     120 | 0x204F      |        8271 |
|     121 | 0x2050      |        8272 |
|     122 | 0x2052      |        8274 |
|     123 | 0x2053      |        8275 |
|     124 | 0x00FC      |         252 |
|     125 | 0x2089      |        8329 |
|     126 | 0x208A      |        8330 |
|     127 | 0x208B      |        8331 |
|     128 | 0x208C      |        8332 |
|     129 | 0x208D      |        8333 |
|     130 | 0x208E      |        8334 |
|     131 | 0x208F      |        8335 |
|     132 | 0x2090      |        8336 |
|     133 | 0x2091      |        8337 |
|     134 | 0x00A9      |         169 |
|     135 | 0x2092      |        8338 |
|     136 | 0x2093      |        8339 |
|     137 | 0x2094      |        8340 |
|     138 | 0x005F      |          95 |
|     139 | 0x2095      |        8341 |
|     140 | 0x2096      |        8342 |
|     141 | 0x2097      |        8343 |
|     142 | 0x0BB1      |        2993 |
|     143 | 0x2098      |        8344 |
|     144 | 0x2099      |        8345 |
|     145 | 0x209A      |        8346 |
|     146 | 0x209B      |        8347 |
|     147 | 0x209C      |        8348 |
|     148 | 0x209D      |        8349 |
|     149 | 0x0400      |        1024 |
|     150 | 0x209E      |        8350 |
|     151 | 0x209F      |        8351 |
|     152 | 0x20A0      |        8352 |
|     153 | 0x20A1      |        8353 |
|     154 | 0x20A2      |        8354 |
|     155 | 0x20A3      |        8355 |
|     156 | 0x20A4      |        8356 |
|     157 | 0x20A5      |        8357 |
|     158 | 0x20A6      |        8358 |
|     159 | 0x20A7      |        8359 |
|     160 | 0x20A8      |        8360 |
|     161 | 0x20A9      |        8361 |
|     162 | 0x20AA      |        8362 |
|     163 | 0x20AB      |        8363 |
|     164 | 0x20AC      |        8364 |
|     165 | 0x20AD      |        8365 |
|     166 | 0x20AE      |        8366 |
|     167 | 0x20AF      |        8367 |
|     168 | 0x20B0      |        8368 |
|     169 | 0x20B1      |        8369 |
|     170 | 0x20B2      |        8370 |
|     171 | 0x20B3      |        8371 |
|     172 | 0x20B4      |        8372 |
|     173 | 0x0082      |         130 |
|     174 | 0x20B5      |        8373 |
|     175 | 0x20B6      |        8374 |
|     176 | 0x20B7      |        8375 |
|     177 | 0x20B8      |        8376 |
|     178 | 0x20B9      |        8377 |
|     179 | 0x20BA      |        8378 |
|     180 | 0x20BB      |        8379 |
|     181 | 0x20BC      |        8380 |
|     182 | 0x20BD      |        8381 |
|     183 | 0x0190      |         400 |
|     184 | 0x20BE      |        8382 |
|     185 | 0x20BF      |        8383 |
|     186 | 0x20C0      |        8384 |
|     187 | 0x20C1      |        8385 |
|     188 | 0x20C2      |        8386 |
|     189 | 0x20C3      |        8387 |
|     190 | 0x20C4      |        8388 |
|     191 | 0x20C5      |        8389 |
|     192 | 0x20C6      |        8390 |
|     193 | 0x20C7      |        8391 |
|     194 | 0x20C8      |        8392 |
|     195 | 0x20C9      |        8393 |
|     196 | 0x20CA      |        8394 |
|     197 | 0x20CB      |        8395 |
|     198 | 0x20CC      |        8396 |
|     199 | 0x20CD      |        8397 |
|     200 | 0x20CE      |        8398 |
|     201 | 0x20CF      |        8399 |
|     202 | 0x20D0      |        8400 |
|     203 | 0x20D1      |        8401 |
|     204 | 0x20D2      |        8402 |
|     205 | 0x20D3      |        8403 |
|     206 | 0x000F      |          15 |
|     207 | 0x20D4      |        8404 |
|     208 | 0x20D5      |        8405 |
|     209 | 0x20D6      |        8406 |
|     210 | 0x20D7      |        8407 |
|     211 | 0x20D8      |        8408 |
|     212 | 0x20D9      |        8409 |
|     213 | 0x20DA      |        8410 |
|     214 | 0x20DB      |        8411 |
|     215 | 0x20DC      |        8412 |
|     216 | 0x20DD      |        8413 |
|     217 | 0x20DE      |        8414 |
|     218 | 0x20DF      |        8415 |
|     219 | 0x210A      |        8458 |
|     220 | 0x210B      |        8459 |
|     221 | 0x00F9      |         249 |
|     222 | 0x210C      |        8460 |
|     223 | 0x210D      |        8461 |
|     224 | 0x210E      |        8462 |
|     225 | 0x210F      |        8463 |
|     226 | 0x2110      |        8464 |
|     227 | 0x2111      |        8465 |
|     228 | 0x2112      |        8466 |
|     229 | 0x2113      |        8467 |
|     230 | 0x2114      |        8468 |
|     231 | 0x2115      |        8469 |
|     232 | 0x2116      |        8470 |
|     233 | 0x2117      |        8471 |
|     234 | 0x2118      |        8472 |
|     235 | 0x2119      |        8473 |
|     236 | 0x211A      |        8474 |
|     237 | 0x211B      |        8475 |
|     238 | 0x211C      |        8476 |
|     239 | 0x211D      |        8477 |
|     240 | 0x211E      |        8478 |
|     241 | 0x211F      |        8479 |
|     242 | 0x2120      |        8480 |
|     243 | 0x2121      |        8481 |
|     244 | 0x2122      |        8482 |
|     245 | 0x2123      |        8483 |
|     246 | 0x2124      |        8484 |
|     247 | 0x2125      |        8485 |
|     248 | 0x2126      |        8486 |
|     249 | 0x2127      |        8487 |
|     250 | 0x2128      |        8488 |
|     251 | 0x2129      |        8489 |
|     252 | 0x212A      |        8490 |
|     253 | 0x212B      |        8491 |
|     254 | 0x212C      |        8492 |
|     255 | 0x212D      |        8493 |
|     256 | 0x212E      |        8494 |
|     257 | 0x212F      |        8495 |
|     258 | 0x2130      |        8496 |
|     259 | 0x2131      |        8497 |
|     260 | 0x2132      |        8498 |
|     261 | 0x2133      |        8499 |
|     262 | 0x2134      |        8500 |
|     263 | 0x2135      |        8501 |
|     264 | 0x2136      |        8502 |
|     265 | 0x2137      |        8503 |
|     266 | 0x2138      |        8504 |
|     267 | 0x2139      |        8505 |
|     268 | 0x0004      |           4 |

## String References

- **310**: The door to the Vestal Chambers is locked shut.
- **336**: Will you become an envoy? [I would be honored./I'm sorry, but...]
- **414**: Accept this mission? [Yes./No.]
- **422**: Accept this mission? [Yes./No.]
- **8173**: Is that what you believe? [Yes./No.]
- **8382**: (Something just doesn't make sense...)
- **8383**: (Karaha-Baruha... How could a genius like you not realize the art of complete summoning would rob you of your life?)
- **8384**: (...But if...)
- **8385**: (But if you had foreseen that outcome, what if you had predictarued this entire scenario...?)
- **8505**: We will lead Windurst onwards to a new future.

## Events

### Event 65535

#### Metadata

| Field        | Value   |
|--------------|---------|
| Entrypoint   | 0x0000  |
| Data Size    | 1 bytes |
| Instructions | 1       |

```
      00 01 02 03 04 05 06 07  08 09 0A 0B 0C 0D 0E 0F
      -- -- -- -- -- -- -- --  -- -- -- -- -- -- -- --
0000: 00                                                .               
```

#### Opcodes

```
  0: 0x0000 [0x00] END_REQSTACK()
```

### Event 154

#### Metadata

| Field        | Value   |
|--------------|---------|
| Entrypoint   | 0x0001  |
| Data Size    | 8 bytes |
| Instructions | 5       |

```
      00 01 02 03 04 05 06 07  08 09 0A 0B 0C 0D 0E 0F
      -- -- -- -- -- -- -- --  -- -- -- -- -- -- -- --
0000:    48 00 80 23 20 00 21  00                        H..# .!.       
```

#### Opcodes

```
  0: 0x0001 [0x48] [System] [310*]:
    → "The door to the Vestal Chambers is locked shut."
  1: 0x0004 [0x23] WAIT_FOR_DIALOG_INTERACTION
  2: 0x0005 [0x20] SET_CLI_EVENT_UC_FLAG: Unlock player control
  3: 0x0007 [0x21] END_EVENT
  4: 0x0008 [0x00] END_REQSTACK()
```

### Event 153

#### Metadata

| Field        | Value     |
|--------------|-----------|
| Entrypoint   | 0x0009    |
| Data Size    | 889 bytes |
| Instructions | 116       |

```
      00 01 02 03 04 05 06 07  08 09 0A 0B 0C 0D 0E 0F
      -- -- -- -- -- -- -- --  -- -- -- -- -- -- -- --
0000:                             46 01 42 45 01 80 F0           F.BE...
0010: FF FF 7F F0 FF FF 7F 66  64 6F 31 02 80 1C 03 80  .......fdo1.....
0020: 38 04 80 75 00 05 80 75  01 1C 01 80 4E 00 16 20  8..u...u....N.. 
0030: 0F 01 4E 00 1D 20 0F 01  80 16 20 0F 01 80 1D 20  ..N.. .... .... 
0040: 0F 01 1C 06 80 29 0B F0  FF FF 7F 1E 45 07 80 F8  .....)......E...
0050: FF FF 7F F8 FF FF 7F 73  30 31 33 02 80 27 0E F0  .......s013..'..
0060: FF FF 7F 1F 4A 16 20 0F  01 F0 FF FF 7F 6F 76 16  ....J. ......ov.
0070: 20 0F 01 1C 08 80 45 01  80 F0 FF FF 7F F0 FF FF   .....E.........
0080: 7F 66 64 69 31 02 80 1C  09 80 45 01 80 F0 FF FF  .fdi1.....E.....
0090: 7F F0 FF FF 7F 66 64 6F  31 02 80 1C 01 80 52 07  .....fdo1.....R.
00A0: 80 F8 FF FF 7F F8 FF FF  7F 73 30 31 33 2A 0E F0  .........s013*..
00B0: FF FF 7F 45 07 80 F8 FF  FF 7F F8 FF FF 7F 73 30  ...E..........s0
00C0: 31 35 02 80 27 0A 16 20  0F 01 5C 45 01 80 F0 FF  15..'.. ..\E....
00D0: FF 7F F0 FF FF 7F 66 64  69 31 02 80 4A F0 FF FF  ......fdi1..J...
00E0: 7F 1D 20 0F 01 1C 08 80  27 0B F0 FF FF 7F 20 55  .. .....'..... U
00F0: 07 80 F8 FF FF 7F F8 FF  FF 7F 73 30 31 35 45 07  ..........s015E.
0100: 80 F8 FF FF 7F F8 FF FF  7F 73 30 31 36 02 80 27  .........s016..'
0110: 0B 1D 20 0F 01 1D 55 07  80 F8 FF FF 7F F8 FF FF  .. ...U.........
0120: 7F 73 30 31 36 2A 0A 16  20 0F 01 2A 0B F0 FF FF  .s016*.. ..*....
0130: 7F 4A F0 FF FF 7F 1D 20  0F 01 4A 1D 20 0F 01 F0  .J..... ..J. ...
0140: FF FF 7F 6F 76 1D 20 0F  01 4A 16 20 0F 01 F0 FF  ...ov. ..J. ....
0150: FF 7F 6F 76 16 20 0F 01  45 07 80 F8 FF FF 7F F8  ..ov. ..E.......
0160: FF FF 7F 73 30 31 38 02  80 2A 0B 1D 20 0F 01 29  ...s018..*.. ..)
0170: 0B 1D 20 0F 01 20 52 07  80 F8 FF FF 7F F8 FF FF  .. .. R.........
0180: 7F 73 30 31 38 45 07 80  F8 FF FF 7F F8 FF FF 7F  .s018E..........
0190: 73 30 36 30 02 80 29 0B  1D 20 0F 01 21 52 07 80  s060..).. ..!R..
01A0: F8 FF FF 7F F8 FF FF 7F  73 30 36 30 45 07 80 F8  ........s060E...
01B0: FF FF 7F F8 FF FF 7F 73  30 36 31 02 80 29 0B 1D  .......s061..)..
01C0: 20 0F 01 22 27 0B 1D 20  0F 01 1E 2B 1D 20 0F 01   .."'.. ...+. ..
01D0: 0A 80 23 2A 0B 1D 20 0F  01 52 07 80 F8 FF FF 7F  ..#*.. ..R......
01E0: F8 FF FF 7F 73 30 36 31  4E 01 F0 FF FF 7F 45 07  ....s061N.....E.
01F0: 80 F8 FF FF 7F F8 FF FF  7F 73 30 36 32 02 80 4A  .........s062..J
0200: 1D 20 0F 01 F0 FF FF 7F  6F 76 1D 20 0F 01 1C 0B  . ......ov. ....
0210: 80 29 0B 1D 20 0F 01 24  45 07 80 F8 FF FF 7F F8  .).. ..$E.......
0220: FF FF 7F 73 30 31 39 02  80 4E 00 F0 FF FF 7F 4B  ...s019..N.....K
0230: 1D 20 0F 01 02 80 29 0B  1D 20 0F 01 25 52 07 80  . ....).. ..%R..
0240: F8 FF FF 7F F8 FF FF 7F  73 30 31 39 45 01 80 F8  ........s019E...
0250: FF FF 7F F8 FF FF 7F 66  64 6F 31 02 80 1C 03 80  .......fdo1.....
0260: 45 07 80 F8 FF FF 7F F8  FF FF 7F 73 30 36 34 02  E..........s064.
0270: 80 45 01 80 F8 FF FF 7F  F8 FF FF 7F 66 64 69 31  .E..........fdi1
0280: 02 80 27 0B 1D 20 0F 01  1F 2B 1D 20 0F 01 0C 80  ..'.. ...+. ....
0290: 23 2B 1D 20 0F 01 0D 80  23 2B 1D 20 0F 01 0E 80  #+. ....#+. ....
02A0: 23 2A 0B 1D 20 0F 01 52  07 80 F8 FF FF 7F F8 FF  #*.. ..R........
02B0: FF 7F 73 30 36 34 45 01  80 F8 FF FF 7F F8 FF FF  ..s064E.........
02C0: 7F 66 64 6F 31 02 80 1C  03 80 45 07 80 F8 FF FF  .fdo1.....E.....
02D0: 7F F8 FF FF 7F 73 30 36  33 02 80 45 01 80 F8 FF  .....s063..E....
02E0: FF 7F F8 FF FF 7F 66 64  69 31 02 80 4A 1D 20 0F  ......fdi1..J. .
02F0: 01 F0 FF FF 7F 6F 76 1D  20 0F 01 29 0B 1D 20 0F  .....ov. ..).. .
0300: 01 29 24 0F 80 02 80 02  80 25 02 00 10 02 80 00  .)$......%......
0310: 1C 03 29 0D 1C 20 0F 01  03 01 2E 03 02 00 10 06  ..).. ..........
0320: 80 00 2E 03 29 0D 1C 20  0F 01 04 01 2E 03 45 01  ....).. ......E.
0330: 80 F8 FF FF 7F F8 FF FF  7F 66 64 6F 31 02 80 1C  .........fdo1...
0340: 03 80 4E 00 F0 FF FF 7F  29 0B F0 FF FF 7F 21 46  ..N.....).....!F
0350: 00 02 07 10 06 80 00 64  03 75 00 10 80 75 01 75  .......d.u...u.u
0360: 02 01 6A 03 75 00 11 80  75 01 1C 01 80 45 01 80  ..j.u...u....E..
0370: F8 FF FF 7F F8 FF FF 7F  66 64 69 31 02 80 20 00  ........fdi1.. .
0380: 21 00                                             !.              
```

#### Opcodes

```
  0: 0x0009 [0x46] CAMERA_CONTROL: Disable user control
  1: 0x000B [0x42] SET_CLI_EVENT_CANCEL_DATA()
  2: 0x000C [0x45] LOAD_SCHEDULED_TASK: Load scheduler "fdo1" with entities [LocalPlayer, LocalPlayer], work=[200*, 0*]
  3: 0x001D [0x1C] WAIT(60* ticks)
  4: 0x0020 [0x38] SET_CLIENT_EVENT_MODE(mode=3*)
  5: 0x0023 [0x75] LOAD_ROOM(Load indoor room, room=428*)
  6: 0x0027 [0x75] LOAD_ROOM(No action)
  7: 0x0029 [0x1C] WAIT(200* ticks)
  8: 0x002C [0x4E] SET_ENTITY_HIDE_FLAG: Show Semih Lafihna (ID: 17768470/0x010F2016)
  9: 0x0032 [0x4E] SET_ENTITY_HIDE_FLAG: Show Star Sibyl (ID: 17768477/0x010F201D)
 10: 0x0038 [0x80] LOAD_WAIT(entity=Semih Lafihna (ID: 17768470/0x010F2016))
 11: 0x003D [0x80] LOAD_WAIT(entity=Star Sibyl (ID: 17768477/0x010F201D))
 12: 0x0042 [0x1C] WAIT(1* ticks)
 13: 0x0045 [0x29] REQ_SET_WAIT(priority=0x0B, entity_id=LocalPlayer, tag_num=0x1E)
 14: 0x004C [0x45] LOAD_SCHEDULED_TASK: Load scheduler "s013" with entities [EventEntity, EventEntity], work=[142*, 0*]
 15: 0x005D [0x27] REQ_SET(priority=0x0E, entity_id=LocalPlayer, tag_num=0x1F)
 16: 0x0064 [0x4A] Semih Lafihna (ID: 17768470/0x010F2016) looks at LocalPlayer
 17: 0x006D [0x6F] WAIT_FRAME_DELAY: Yield until WaitTime reaches zero
 18: 0x006E [0x76] CHECK_ENTITY_RENDER_FLAGS: Wait until Semih Lafihna (ID: 17768470/0x010F2016) Render.Flags0 and Render.Flags3 conditions are met
 19: 0x0073 [0x1C] WAIT(100* ticks)
 20: 0x0076 [0x45] LOAD_SCHEDULED_TASK: Load scheduler "fdi1" with entities [LocalPlayer, LocalPlayer], work=[200*, 0*]
 21: 0x0087 [0x1C] WAIT(230* ticks)
 22: 0x008A [0x45] LOAD_SCHEDULED_TASK: Load scheduler "fdo1" with entities [LocalPlayer, LocalPlayer], work=[200*, 0*]
 23: 0x009B [0x1C] WAIT(200* ticks)
 24: 0x009E [0x52] END_LOAD_SCHEDULER: End scheduler "s013" with entities [EventEntity, EventEntity], work=142*
 25: 0x00AD [0x2A] GET_REQ_LEVEL(level=14, entity_id=LocalPlayer)
 26: 0x00B3 [0x45] LOAD_SCHEDULED_TASK: Load scheduler "s015" with entities [EventEntity, EventEntity], work=[142*, 0*]
 27: 0x00C4 [0x27] REQ_SET(priority=0x0A, entity_id=Semih Lafihna (ID: 17768470/0x010F2016), tag_num=0x5C)
 28: 0x00CB [0x45] LOAD_SCHEDULED_TASK: Load scheduler "fdi1" with entities [LocalPlayer, LocalPlayer], work=[200*, 0*]
 29: 0x00DC [0x4A] LocalPlayer looks at Star Sibyl (ID: 17768477/0x010F201D)
 30: 0x00E5 [0x1C] WAIT(100* ticks)
 31: 0x00E8 [0x27] REQ_SET(priority=0x0B, entity_id=LocalPlayer, tag_num=0x20)
 32: 0x00EF [0x55] WAIT_LOAD_SCHEDULER: Wait for scheduler "s015" with entities [EventEntity, EventEntity], work=142*
 33: 0x00FE [0x45] LOAD_SCHEDULED_TASK: Load scheduler "s016" with entities [EventEntity, EventEntity], work=[142*, 0*]
 34: 0x010F [0x27] REQ_SET(priority=0x0B, entity_id=Star Sibyl (ID: 17768477/0x010F201D), tag_num=0x1D)
 35: 0x0116 [0x55] WAIT_LOAD_SCHEDULER: Wait for scheduler "s016" with entities [EventEntity, EventEntity], work=142*
 36: 0x0125 [0x2A] GET_REQ_LEVEL(level=10, entity_id=Semih Lafihna (ID: 17768470/0x010F2016))
 37: 0x012B [0x2A] GET_REQ_LEVEL(level=11, entity_id=LocalPlayer)
 38: 0x0131 [0x4A] LocalPlayer looks at Star Sibyl (ID: 17768477/0x010F201D)
 39: 0x013A [0x4A] Star Sibyl (ID: 17768477/0x010F201D) looks at LocalPlayer
 40: 0x0143 [0x6F] WAIT_FRAME_DELAY: Yield until WaitTime reaches zero
 41: 0x0144 [0x76] CHECK_ENTITY_RENDER_FLAGS: Wait until Star Sibyl (ID: 17768477/0x010F201D) Render.Flags0 and Render.Flags3 conditions are met
 42: 0x0149 [0x4A] Semih Lafihna (ID: 17768470/0x010F2016) looks at LocalPlayer
 43: 0x0152 [0x6F] WAIT_FRAME_DELAY: Yield until WaitTime reaches zero
 44: 0x0153 [0x76] CHECK_ENTITY_RENDER_FLAGS: Wait until Semih Lafihna (ID: 17768470/0x010F2016) Render.Flags0 and Render.Flags3 conditions are met
 45: 0x0158 [0x45] LOAD_SCHEDULED_TASK: Load scheduler "s018" with entities [EventEntity, EventEntity], work=[142*, 0*]
 46: 0x0169 [0x2A] GET_REQ_LEVEL(level=11, entity_id=Star Sibyl (ID: 17768477/0x010F201D))
 47: 0x016F [0x29] REQ_SET_WAIT(priority=0x0B, entity_id=Star Sibyl (ID: 17768477/0x010F201D), tag_num=0x20)
 48: 0x0176 [0x52] END_LOAD_SCHEDULER: End scheduler "s018" with entities [EventEntity, EventEntity], work=142*
 49: 0x0185 [0x45] LOAD_SCHEDULED_TASK: Load scheduler "s060" with entities [EventEntity, EventEntity], work=[142*, 0*]
 50: 0x0196 [0x29] REQ_SET_WAIT(priority=0x0B, entity_id=Star Sibyl (ID: 17768477/0x010F201D), tag_num=0x21)
 51: 0x019D [0x52] END_LOAD_SCHEDULER: End scheduler "s060" with entities [EventEntity, EventEntity], work=142*
 52: 0x01AC [0x45] LOAD_SCHEDULED_TASK: Load scheduler "s061" with entities [EventEntity, EventEntity], work=[142*, 0*]
 53: 0x01BD [0x29] REQ_SET_WAIT(priority=0x0B, entity_id=Star Sibyl (ID: 17768477/0x010F201D), tag_num=0x22)
 54: 0x01C4 [0x27] REQ_SET(priority=0x0B, entity_id=Star Sibyl (ID: 17768477/0x010F201D), tag_num=0x1E)
 55: 0x01CB [0x2B] Star Sibyl (ID: 17768477/0x010F201D) [326*]:
    → "However, the reason I have called you here today is not solely for the purpose of greetings."
 56: 0x01D2 [0x23] WAIT_FOR_DIALOG_INTERACTION
 57: 0x01D3 [0x2A] GET_REQ_LEVEL(level=11, entity_id=Star Sibyl (ID: 17768477/0x010F201D))
 58: 0x01D9 [0x52] END_LOAD_SCHEDULER: End scheduler "s061" with entities [EventEntity, EventEntity], work=142*
 59: 0x01E8 [0x4E] SET_ENTITY_HIDE_FLAG: Hide LocalPlayer
 60: 0x01EE [0x45] LOAD_SCHEDULED_TASK: Load scheduler "s062" with entities [EventEntity, EventEntity], work=[142*, 0*]
 61: 0x01FF [0x4A] Star Sibyl (ID: 17768477/0x010F201D) looks at LocalPlayer
 62: 0x0208 [0x6F] WAIT_FRAME_DELAY: Yield until WaitTime reaches zero
 63: 0x0209 [0x76] CHECK_ENTITY_RENDER_FLAGS: Wait until Star Sibyl (ID: 17768477/0x010F201D) Render.Flags0 and Render.Flags3 conditions are met
 64: 0x020E [0x1C] WAIT(50* ticks)
 65: 0x0211 [0x29] REQ_SET_WAIT(priority=0x0B, entity_id=Star Sibyl (ID: 17768477/0x010F201D), tag_num=0x24)
 66: 0x0218 [0x45] LOAD_SCHEDULED_TASK: Load scheduler "s019" with entities [EventEntity, EventEntity], work=[142*, 0*]
 67: 0x0229 [0x4E] SET_ENTITY_HIDE_FLAG: Show LocalPlayer
 68: 0x022F [0x4B] UPDATE_ENTITY_YAW(entity=Star Sibyl (ID: 17768477/0x010F201D), yaw=0.0°*)
 69: 0x0236 [0x29] REQ_SET_WAIT(priority=0x0B, entity_id=Star Sibyl (ID: 17768477/0x010F201D), tag_num=0x25)
 70: 0x023D [0x52] END_LOAD_SCHEDULER: End scheduler "s019" with entities [EventEntity, EventEntity], work=142*
 71: 0x024C [0x45] LOAD_SCHEDULED_TASK: Load scheduler "fdo1" with entities [EventEntity, EventEntity], work=[200*, 0*]
 72: 0x025D [0x1C] WAIT(60* ticks)
 73: 0x0260 [0x45] LOAD_SCHEDULED_TASK: Load scheduler "s064" with entities [EventEntity, EventEntity], work=[142*, 0*]
 74: 0x0271 [0x45] LOAD_SCHEDULED_TASK: Load scheduler "fdi1" with entities [EventEntity, EventEntity], work=[200*, 0*]
 75: 0x0282 [0x27] REQ_SET(priority=0x0B, entity_id=Star Sibyl (ID: 17768477/0x010F201D), tag_num=0x1F)
 76: 0x0289 [0x2B] Star Sibyl (ID: 17768477/0x010F201D) [331*]:
    → "You have seen with your own eyes the evil that lurks in Vana'diel. Soon that evil will have spread to every corner of our beloved lands."
 77: 0x0290 [0x23] WAIT_FOR_DIALOG_INTERACTION
 78: 0x0291 [0x2B] Star Sibyl (ID: 17768477/0x010F201D) [332*]:
    → "However, during these terrible times, Windurst must remain the beautiful, sublime mecca that it has become. To maintain this state, the cooperation of Jeuno is necessary."
 79: 0x0298 [0x23] WAIT_FOR_DIALOG_INTERACTION
 80: 0x0299 [0x2B] Star Sibyl (ID: 17768477/0x010F201D) [333*]:
    → "This is why sending a trustworthy delegate, such as yourself, to represent our country is of extreme importance."
 81: 0x02A0 [0x23] WAIT_FOR_DIALOG_INTERACTION
 82: 0x02A1 [0x2A] GET_REQ_LEVEL(level=11, entity_id=Star Sibyl (ID: 17768477/0x010F201D))
 83: 0x02A7 [0x52] END_LOAD_SCHEDULER: End scheduler "s064" with entities [EventEntity, EventEntity], work=142*
 84: 0x02B6 [0x45] LOAD_SCHEDULED_TASK: Load scheduler "fdo1" with entities [EventEntity, EventEntity], work=[200*, 0*]
 85: 0x02C7 [0x1C] WAIT(60* ticks)
 86: 0x02CA [0x45] LOAD_SCHEDULED_TASK: Load scheduler "s063" with entities [EventEntity, EventEntity], work=[142*, 0*]
 87: 0x02DB [0x45] LOAD_SCHEDULED_TASK: Load scheduler "fdi1" with entities [EventEntity, EventEntity], work=[200*, 0*]
 88: 0x02EC [0x4A] Star Sibyl (ID: 17768477/0x010F201D) looks at LocalPlayer
 89: 0x02F5 [0x6F] WAIT_FRAME_DELAY: Yield until WaitTime reaches zero
 90: 0x02F6 [0x76] CHECK_ENTITY_RENDER_FLAGS: Wait until Star Sibyl (ID: 17768477/0x010F201D) Render.Flags0 and Render.Flags3 conditions are met
 91: 0x02FB [0x29] REQ_SET_WAIT(priority=0x0B, entity_id=Star Sibyl (ID: 17768477/0x010F201D), tag_num=0x29)
 92: 0x0302 [0x24] CREATE_DIALOG(message_id=336*, default_option=0*, option_flags=0*)
    → "Will you become an envoy? [I would be honored./I'm sorry, but...]"
 93: 0x0309 [0x25] WAIT_DIALOG_SELECT()
 94: 0x030A [0x02] IF !(Work_Zone[0] == 0*) GOTO 0x031C
 95: 0x0312 [0x29] REQ_SET_WAIT(priority=0x0D, entity_id=Door:Vestal Chamber (ID: 17768476/0x010F201C), tag_num=0x03)
 96: 0x0319 [0x01] GOTO 0x032E
 97: 0x031C [0x02] IF !(Work_Zone[0] == 1*) GOTO 0x032E
 98: 0x0324 [0x29] REQ_SET_WAIT(priority=0x0D, entity_id=Door:Vestal Chamber (ID: 17768476/0x010F201C), tag_num=0x04)
 99: 0x032B [0x01] GOTO 0x032E

SUBROUTINE_032E:
100: 0x032E [0x45] LOAD_SCHEDULED_TASK: Load scheduler "fdo1" with entities [EventEntity, EventEntity], work=[200*, 0*]
101: 0x033F [0x1C] WAIT(60* ticks)
102: 0x0342 [0x4E] SET_ENTITY_HIDE_FLAG: Show LocalPlayer
103: 0x0348 [0x29] REQ_SET_WAIT(priority=0x0B, entity_id=LocalPlayer, tag_num=0x21)
104: 0x034F [0x46] CAMERA_CONTROL: Restore default settings
105: 0x0351 [0x02] IF !(Work_Zone[7] == 1*) GOTO 0x0364
106: 0x0359 [0x75] LOAD_ROOM(Load indoor room, room=426*)
107: 0x035D [0x75] LOAD_ROOM(No action)
108: 0x035F [0x75] LOAD_ROOM(Change sub-map, room=0x6A01)
109: 0x0363 [0x03] 0x75 = 427*
110: 0x0368 [0x75] LOAD_ROOM(No action)
111: 0x036A [0x1C] WAIT(200* ticks)
112: 0x036D [0x45] LOAD_SCHEDULED_TASK: Load scheduler "fdi1" with entities [EventEntity, EventEntity], work=[200*, 0*]
113: 0x037E [0x20] SET_CLI_EVENT_UC_FLAG: Unlock player control
114: 0x0380 [0x21] END_EVENT
115: 0x0381 [0x00] END_REQSTACK()
```

### Event 165

#### Metadata

| Field        | Value    |
|--------------|----------|
| Entrypoint   | 0x0382   |
| Data Size    | 38 bytes |
| Instructions | 5        |

```
      00 01 02 03 04 05 06 07  08 09 0A 0B 0C 0D 0E 0F
      -- -- -- -- -- -- -- --  -- -- -- -- -- -- -- --
0380:       4E 01 F0 FF FF 7F  45 07 80 F8 FF FF 7F F8    N.....E.......
0390: FF FF 7F 73 30 36 32 02  80 29 0B 1D 20 0F 01 2F  ...s062..).. ../
03A0: 29 0B 1D 20 0F 01 30 00                           ).. ..0.        
```

#### Opcodes

```
  0: 0x0382 [0x4E] SET_ENTITY_HIDE_FLAG: Hide LocalPlayer
  1: 0x0388 [0x45] LOAD_SCHEDULED_TASK: Load scheduler "s062" with entities [EventEntity, EventEntity], work=[142*, 0*]
  2: 0x0399 [0x29] REQ_SET_WAIT(priority=0x0B, entity_id=Star Sibyl (ID: 17768477/0x010F201D), tag_num=0x2F)
  3: 0x03A0 [0x29] REQ_SET_WAIT(priority=0x0B, entity_id=Star Sibyl (ID: 17768477/0x010F201D), tag_num=0x30)
  4: 0x03A7 [0x00] END_REQSTACK()
```

### Event 164

#### Metadata

| Field        | Value     |
|--------------|-----------|
| Entrypoint   | 0x03A8    |
| Data Size    | 162 bytes |
| Instructions | 21        |

```
      00 01 02 03 04 05 06 07  08 09 0A 0B 0C 0D 0E 0F
      -- -- -- -- -- -- -- --  -- -- -- -- -- -- -- --
03A0:                          45 07 80 F8 FF FF 7F F8          E.......
03B0: FF FF 7F 73 30 32 30 02  80 4A F0 FF FF 7F 16 20  ...s020..J..... 
03C0: 0F 01 27 0B 16 20 0F 01  5D 2B 16 20 0F 01 12 80  ..'.. ..]+. ....
03D0: 23 2A 0B 16 20 0F 01 4A  1D 20 0F 01 16 20 0F 01  #*.. ..J. ... ..
03E0: 6F 76 1D 20 0F 01 29 0B  1D 20 0F 01 2A 45 07 80  ov. ..).. ..*E..
03F0: F8 FF FF 7F F8 FF FF 7F  73 30 36 35 02 80 4A 1D  ........s065..J.
0400: 20 0F 01 F0 FF FF 7F 6F  76 1D 20 0F 01 29 0B 1D   ......ov. ..)..
0410: 20 0F 01 2B 29 0B 1D 20  0F 01 2C 52 07 80 F8 FF   ..+).. ..,R....
0420: FF 7F F8 FF FF 7F 73 30  36 35 45 07 80 F8 FF FF  ......s065E.....
0430: 7F F8 FF FF 7F 73 30 36  32 02 80 29 0B 1D 20 0F  .....s062..).. .
0440: 01 2D 29 0B 1D 20 0F 01  2E 00                    .-).. ....      
```

#### Opcodes

```
  0: 0x03A8 [0x45] LOAD_SCHEDULED_TASK: Load scheduler "s020" with entities [EventEntity, EventEntity], work=[142*, 0*]
  1: 0x03B9 [0x4A] LocalPlayer looks at Semih Lafihna (ID: 17768470/0x010F2016)
  2: 0x03C2 [0x27] REQ_SET(priority=0x0B, entity_id=Semih Lafihna (ID: 17768470/0x010F2016), tag_num=0x5D)
  3: 0x03C9 [0x2B] Semih Lafihna (ID: 17768470/0x010F2016) [337*]:
    → "The will of the Star Sibyl is the will of the Dawn Goddess! How darrre you defy her!"
  4: 0x03D0 [0x23] WAIT_FOR_DIALOG_INTERACTION
  5: 0x03D1 [0x2A] GET_REQ_LEVEL(level=11, entity_id=Semih Lafihna (ID: 17768470/0x010F2016))
  6: 0x03D7 [0x4A] Star Sibyl (ID: 17768477/0x010F201D) looks at Semih Lafihna (ID: 17768470/0x010F2016)
  7: 0x03E0 [0x6F] WAIT_FRAME_DELAY: Yield until WaitTime reaches zero
  8: 0x03E1 [0x76] CHECK_ENTITY_RENDER_FLAGS: Wait until Star Sibyl (ID: 17768477/0x010F201D) Render.Flags0 and Render.Flags3 conditions are met
  9: 0x03E6 [0x29] REQ_SET_WAIT(priority=0x0B, entity_id=Star Sibyl (ID: 17768477/0x010F201D), tag_num=0x2A)
 10: 0x03ED [0x45] LOAD_SCHEDULED_TASK: Load scheduler "s065" with entities [EventEntity, EventEntity], work=[142*, 0*]
 11: 0x03FE [0x4A] Star Sibyl (ID: 17768477/0x010F201D) looks at LocalPlayer
 12: 0x0407 [0x6F] WAIT_FRAME_DELAY: Yield until WaitTime reaches zero
 13: 0x0408 [0x76] CHECK_ENTITY_RENDER_FLAGS: Wait until Star Sibyl (ID: 17768477/0x010F201D) Render.Flags0 and Render.Flags3 conditions are met
 14: 0x040D [0x29] REQ_SET_WAIT(priority=0x0B, entity_id=Star Sibyl (ID: 17768477/0x010F201D), tag_num=0x2B)
 15: 0x0414 [0x29] REQ_SET_WAIT(priority=0x0B, entity_id=Star Sibyl (ID: 17768477/0x010F201D), tag_num=0x2C)
 16: 0x041B [0x52] END_LOAD_SCHEDULER: End scheduler "s065" with entities [EventEntity, EventEntity], work=142*
 17: 0x042A [0x45] LOAD_SCHEDULED_TASK: Load scheduler "s062" with entities [EventEntity, EventEntity], work=[142*, 0*]
 18: 0x043B [0x29] REQ_SET_WAIT(priority=0x0B, entity_id=Star Sibyl (ID: 17768477/0x010F201D), tag_num=0x2D)
 19: 0x0442 [0x29] REQ_SET_WAIT(priority=0x0B, entity_id=Star Sibyl (ID: 17768477/0x010F201D), tag_num=0x2E)
 20: 0x0449 [0x00] END_REQSTACK()
```

### Event 166

#### Metadata

| Field        | Value      |
|--------------|------------|
| Entrypoint   | 0x044A     |
| Data Size    | 1252 bytes |
| Instructions | 162        |

```
      00 01 02 03 04 05 06 07  08 09 0A 0B 0C 0D 0E 0F
      -- -- -- -- -- -- -- --  -- -- -- -- -- -- -- --
0440:                                46 01 42 45 01 80            F.BE..
0450: F0 FF FF 7F F0 FF FF 7F  66 64 6F 31 02 80 55 01  ........fdo1..U.
0460: 80 F0 FF FF 7F F0 FF FF  7F 66 64 6F 30 38 04 80  .........fdo08..
0470: 29 08 F0 FF FF 7F 06 75  00 05 80 75 01 1C 06 80  )......u...u....
0480: 4E 00 16 20 0F 01 4E 00  1E 20 0F 01 4E 00 1D 20  N.. ..N.. ..N.. 
0490: 0F 01 80 16 20 0F 01 80  1E 20 0F 01 80 1D 20 0F  .... .... .... .
04A0: 01 29 0E F0 FF FF 7F 28  27 0B F0 FF FF 7F 29 45  .).....('.....)E
04B0: 07 80 F8 FF FF 7F F8 FF  FF 7F 73 30 35 35 02 80  ..........s055..
04C0: 45 01 80 F0 FF FF 7F F0  FF FF 7F 66 64 69 31 02  E..........fdi1.
04D0: 80 4A 16 20 0F 01 F0 FF  FF 7F 6F 76 16 20 0F 01  .J. ......ov. ..
04E0: 1C 13 80 52 07 80 F8 FF  FF 7F F8 FF FF 7F 73 30  ...R..........s0
04F0: 35 35 45 07 80 F8 FF FF  7F F8 FF FF 7F 73 30 35  55E..........s05
0500: 39 02 80 4A 16 20 0F 01  F0 FF FF 7F 4A 1E 20 0F  9..J. ......J. .
0510: 01 F0 FF FF 7F 4A 16 20  0F 01 F0 FF FF 7F 4A 1E  .....J. ......J.
0520: 20 0F 01 F0 FF FF 7F 1C  0B 80 2A 0B F0 FF FF 7F   .........*.....
0530: 55 07 80 F8 FF FF 7F F8  FF FF 7F 73 30 35 39 45  U..........s059E
0540: 07 80 F8 FF FF 7F F8 FF  FF 7F 73 30 36 39 02 80  ..........s069..
0550: 27 0B 1D 20 0F 01 1E 2B  1D 20 0F 01 14 80 23 2A  '.. ...+. ....#*
0560: 0B 1D 20 0F 01 29 0B 1D  20 0F 01 33 45 07 80 F8  .. ..).. ..3E...
0570: FF FF 7F F8 FF FF 7F 73  30 36 36 02 80 4A 1D 20  .......s066..J. 
0580: 0F 01 16 20 0F 01 6F 76  1D 20 0F 01 29 0B F0 FF  ... ..ov. ..)...
0590: FF 7F 03 29 0B 1D 20 0F  01 34 4A 16 20 0F 01 1D  ...).. ..4J. ...
05A0: 20 0F 01 6F 76 16 20 0F  01 29 0B 16 20 0F 01 60   ..ov. ..).. ..`
05B0: 4A 16 20 0F 01 F0 FF FF  7F 6F 76 16 20 0F 01 4A  J. ......ov. ..J
05C0: F0 FF FF 7F 16 20 0F 01  45 01 80 F8 FF FF 7F F8  ..... ..E.......
05D0: FF FF 7F 66 64 6F 31 02  80 1C 03 80 45 07 80 F8  ...fdo1.....E...
05E0: FF FF 7F F8 FF FF 7F 73  30 36 34 02 80 45 01 80  .......s064..E..
05F0: F8 FF FF 7F F8 FF FF 7F  66 64 69 31 02 80 4A 1D  ........fdi1..J.
0600: 20 0F 01 F0 FF FF 7F 6F  76 1D 20 0F 01 29 0B 16   ......ov. ..)..
0610: 20 0F 01 61 29 0B 16 20  0F 01 62 52 07 80 F8 FF   ..a).. ..bR....
0620: FF 7F F8 FF FF 7F 73 30  36 34 45 01 80 F8 FF FF  ......s064E.....
0630: 7F F8 FF FF 7F 66 64 6F  31 02 80 1C 03 80 45 07  .....fdo1.....E.
0640: 80 F8 FF FF 7F F8 FF FF  7F 73 30 36 36 02 80 45  .........s066..E
0650: 01 80 F8 FF FF 7F F8 FF  FF 7F 66 64 69 31 02 80  ..........fdi1..
0660: 29 0B 16 20 0F 01 63 4A  1D 20 0F 01 16 20 0F 01  ).. ..cJ. ... ..
0670: 6F 76 1D 20 0F 01 29 0B  1D 20 0F 01 35 4A 16 20  ov. ..).. ..5J. 
0680: 0F 01 1D 20 0F 01 6F 76  16 20 0F 01 29 08 1D 20  ... ..ov. ..).. 
0690: 0F 01 05 29 0B 1D 20 0F  01 36 29 0B 16 20 0F 01  ...).. ..6).. ..
06A0: 64 29 08 1D 20 0F 01 06  4A 1D 20 0F 01 F0 FF FF  d).. ...J. .....
06B0: 7F 45 07 80 F8 FF FF 7F  F8 FF FF 7F 73 30 36 32  .E..........s062
06C0: 02 80 7B 1D 20 0F 01 29  0B 1D 20 0F 01 37 45 07  ..{. ..).. ..7E.
06D0: 80 F8 FF FF 7F F8 FF FF  7F 73 30 36 38 02 80 27  .........s068..'
06E0: 0B 1E 20 0F 01 09 4A F0  FF FF 7F 1E 20 0F 01 4A  .. ...J..... ..J
06F0: 1D 20 0F 01 1E 20 0F 01  6F 76 1D 20 0F 01 4A 16  . ... ..ov. ..J.
0700: 20 0F 01 1E 20 0F 01 6F  76 16 20 0F 01 2B 1E 20   ... ..ov. ..+. 
0710: 0F 01 15 80 23 2A 0B 1E  20 0F 01 4A 1E 20 0F 01  ....#*.. ..J. ..
0720: F0 FF FF 7F 6F 76 1E 20  0F 01 29 0B 1E 20 0F 01  ....ov. ..).. ..
0730: 0B 52 07 80 F8 FF FF 7F  F8 FF FF 7F 73 30 36 38  .R..........s068
0740: 45 01 80 F8 FF FF 7F F8  FF FF 7F 66 64 6F 31 02  E..........fdo1.
0750: 80 1C 03 80 45 07 80 F8  FF FF 7F F8 FF FF 7F 73  ....E..........s
0760: 30 37 31 02 80 45 01 80  F8 FF FF 7F F8 FF FF 7F  071..E..........
0770: 66 64 69 31 02 80 29 08  1E 20 0F 01 01 29 0B 1E  fdi1..).. ...)..
0780: 20 0F 01 0C 29 0B 1E 20  0F 01 0D 29 0B 1E 20 0F   ...).. ...).. .
0790: 01 0E 52 07 80 F8 FF FF  7F F8 FF FF 7F 73 30 37  ..R..........s07
07A0: 31 45 01 80 F8 FF FF 7F  F8 FF FF 7F 66 64 6F 31  1E..........fdo1
07B0: 02 80 4A 1D 20 0F 01 F0  FF FF 7F 6F 76 1D 20 0F  ..J. ......ov. .
07C0: 01 4A 16 20 0F 01 F0 FF  FF 7F 6F 76 16 20 0F 01  .J. ......ov. ..
07D0: 1C 03 80 45 07 80 F8 FF  FF 7F F8 FF FF 7F 73 30  ...E..........s0
07E0: 37 32 02 80 45 01 80 F8  FF FF 7F F8 FF FF 7F 66  72..E..........f
07F0: 64 69 31 02 80 29 0B 1E  20 0F 01 0F 29 0B 1E 20  di1..).. ...).. 
0800: 0F 01 10 52 07 80 F8 FF  FF 7F F8 FF FF 7F 73 30  ...R..........s0
0810: 37 32 45 01 80 F8 FF FF  7F F8 FF FF 7F 66 64 6F  72E..........fdo
0820: 31 02 80 1C 03 80 45 07  80 F8 FF FF 7F F8 FF FF  1.....E.........
0830: 7F 73 30 37 30 02 80 45  01 80 F8 FF FF 7F F8 FF  .s070..E........
0840: FF 7F 66 64 69 31 02 80  29 0B 1E 20 0F 01 11 29  ..fdi1..).. ...)
0850: 0B 1E 20 0F 01 12 29 08  1E 20 0F 01 05 02 08 10  .. ...).. ......
0860: 16 80 00 79 08 45 07 80  F8 FF FF 7F F8 FF FF 7F  ...y.E..........
0870: 73 31 30 35 02 80 01 8A  08 45 07 80 F8 FF FF 7F  s105.....E......
0880: F8 FF FF 7F 73 30 37 33  02 80 4A F0 FF FF 7F 1D  ....s073..J.....
0890: 20 0F 01 29 0B 1D 20 0F  01 38 29 0B 1D 20 0F 01   ..).. ..8).. ..
08A0: 39 24 17 80 02 80 02 80  25 02 00 10 02 80 00 C0  9$......%.......
08B0: 08 03 01 10 02 80 29 0D  1C 20 0F 01 06 01 D7 08  ......).. ......
08C0: 02 00 10 06 80 00 D7 08  03 01 10 06 80 29 0D 1C  .............)..
08D0: 20 0F 01 08 01 D7 08 45  01 80 F8 FF FF 7F F8 FF   ......E........
08E0: FF 7F 66 64 6F 31 02 80  1C 03 80 4E 00 F0 FF FF  ..fdo1.....N....
08F0: 7F 29 0B F0 FF FF 7F 21  46 00 1C 06 80 02 07 10  .).....!F.......
0900: 06 80 00 10 09 75 00 10  80 75 01 75 02 01 16 09  .....u...u.u....
0910: 75 00 11 80 75 01 1C 01  80 45 01 80 F8 FF FF 7F  u...u....E......
0920: F8 FF FF 7F 66 64 69 31  02 80 20 00 21 00        ....fdi1.. .!.  
```

#### Opcodes

```
  0: 0x044A [0x46] CAMERA_CONTROL: Disable user control
  1: 0x044C [0x42] SET_CLI_EVENT_CANCEL_DATA()
  2: 0x044D [0x45] LOAD_SCHEDULED_TASK: Load scheduler "fdo1" with entities [LocalPlayer, LocalPlayer], work=[200*, 0*]
  3: 0x045E [0x55] WAIT_LOAD_SCHEDULER: Wait for scheduler "fdo0" with entities [LocalPlayer, LocalPlayer], work=200*
  4: 0x046D [0x38] SET_CLIENT_EVENT_MODE(mode=3*)
  5: 0x0470 [0x29] REQ_SET_WAIT(priority=0x08, entity_id=LocalPlayer, tag_num=0x06)
  6: 0x0477 [0x75] LOAD_ROOM(Load indoor room, room=428*)
  7: 0x047B [0x75] LOAD_ROOM(No action)
  8: 0x047D [0x1C] WAIT(1* ticks)
  9: 0x0480 [0x4E] SET_ENTITY_HIDE_FLAG: Show Semih Lafihna (ID: 17768470/0x010F2016)
 10: 0x0486 [0x4E] SET_ENTITY_HIDE_FLAG: Show Rukususu (ID: 17768478/0x010F201E)
 11: 0x048C [0x4E] SET_ENTITY_HIDE_FLAG: Show Star Sibyl (ID: 17768477/0x010F201D)
 12: 0x0492 [0x80] LOAD_WAIT(entity=Semih Lafihna (ID: 17768470/0x010F2016))
 13: 0x0497 [0x80] LOAD_WAIT(entity=Rukususu (ID: 17768478/0x010F201E))
 14: 0x049C [0x80] LOAD_WAIT(entity=Star Sibyl (ID: 17768477/0x010F201D))
 15: 0x04A1 [0x29] REQ_SET_WAIT(priority=0x0E, entity_id=LocalPlayer, tag_num=0x28)
 16: 0x04A8 [0x27] REQ_SET(priority=0x0B, entity_id=LocalPlayer, tag_num=0x29)
 17: 0x04AF [0x45] LOAD_SCHEDULED_TASK: Load scheduler "s055" with entities [EventEntity, EventEntity], work=[142*, 0*]
 18: 0x04C0 [0x45] LOAD_SCHEDULED_TASK: Load scheduler "fdi1" with entities [LocalPlayer, LocalPlayer], work=[200*, 0*]
 19: 0x04D1 [0x4A] Semih Lafihna (ID: 17768470/0x010F2016) looks at LocalPlayer
 20: 0x04DA [0x6F] WAIT_FRAME_DELAY: Yield until WaitTime reaches zero
 21: 0x04DB [0x76] CHECK_ENTITY_RENDER_FLAGS: Wait until Semih Lafihna (ID: 17768470/0x010F2016) Render.Flags0 and Render.Flags3 conditions are met
 22: 0x04E0 [0x1C] WAIT(300* ticks)
 23: 0x04E3 [0x52] END_LOAD_SCHEDULER: End scheduler "s055" with entities [EventEntity, EventEntity], work=142*
 24: 0x04F2 [0x45] LOAD_SCHEDULED_TASK: Load scheduler "s059" with entities [EventEntity, EventEntity], work=[142*, 0*]
 25: 0x0503 [0x4A] Semih Lafihna (ID: 17768470/0x010F2016) looks at LocalPlayer
 26: 0x050C [0x4A] Rukususu (ID: 17768478/0x010F201E) looks at LocalPlayer
 27: 0x0515 [0x4A] Semih Lafihna (ID: 17768470/0x010F2016) looks at LocalPlayer
 28: 0x051E [0x4A] Rukususu (ID: 17768478/0x010F201E) looks at LocalPlayer
 29: 0x0527 [0x1C] WAIT(50* ticks)
 30: 0x052A [0x2A] GET_REQ_LEVEL(level=11, entity_id=LocalPlayer)
 31: 0x0530 [0x55] WAIT_LOAD_SCHEDULER: Wait for scheduler "s059" with entities [EventEntity, EventEntity], work=142*
 32: 0x053F [0x45] LOAD_SCHEDULED_TASK: Load scheduler "s069" with entities [EventEntity, EventEntity], work=[142*, 0*]
 33: 0x0550 [0x27] REQ_SET(priority=0x0B, entity_id=Star Sibyl (ID: 17768477/0x010F201D), tag_num=0x1E)
 34: 0x0557 [0x2B] Star Sibyl (ID: 17768477/0x010F201D) [389*]:
    → "Ah, <Player>. I have awaited your return."
 35: 0x055E [0x23] WAIT_FOR_DIALOG_INTERACTION
 36: 0x055F [0x2A] GET_REQ_LEVEL(level=11, entity_id=Star Sibyl (ID: 17768477/0x010F201D))
 37: 0x0565 [0x29] REQ_SET_WAIT(priority=0x0B, entity_id=Star Sibyl (ID: 17768477/0x010F201D), tag_num=0x33)
 38: 0x056C [0x45] LOAD_SCHEDULED_TASK: Load scheduler "s066" with entities [EventEntity, EventEntity], work=[142*, 0*]
 39: 0x057D [0x4A] Star Sibyl (ID: 17768477/0x010F201D) looks at Semih Lafihna (ID: 17768470/0x010F2016)
 40: 0x0586 [0x6F] WAIT_FRAME_DELAY: Yield until WaitTime reaches zero
 41: 0x0587 [0x76] CHECK_ENTITY_RENDER_FLAGS: Wait until Star Sibyl (ID: 17768477/0x010F201D) Render.Flags0 and Render.Flags3 conditions are met
 42: 0x058C [0x29] REQ_SET_WAIT(priority=0x0B, entity_id=LocalPlayer, tag_num=0x03)
 43: 0x0593 [0x29] REQ_SET_WAIT(priority=0x0B, entity_id=Star Sibyl (ID: 17768477/0x010F201D), tag_num=0x34)
 44: 0x059A [0x4A] Semih Lafihna (ID: 17768470/0x010F2016) looks at Star Sibyl (ID: 17768477/0x010F201D)
 45: 0x05A3 [0x6F] WAIT_FRAME_DELAY: Yield until WaitTime reaches zero
 46: 0x05A4 [0x76] CHECK_ENTITY_RENDER_FLAGS: Wait until Semih Lafihna (ID: 17768470/0x010F2016) Render.Flags0 and Render.Flags3 conditions are met
 47: 0x05A9 [0x29] REQ_SET_WAIT(priority=0x0B, entity_id=Semih Lafihna (ID: 17768470/0x010F2016), tag_num=0x60)
 48: 0x05B0 [0x4A] Semih Lafihna (ID: 17768470/0x010F2016) looks at LocalPlayer
 49: 0x05B9 [0x6F] WAIT_FRAME_DELAY: Yield until WaitTime reaches zero
 50: 0x05BA [0x76] CHECK_ENTITY_RENDER_FLAGS: Wait until Semih Lafihna (ID: 17768470/0x010F2016) Render.Flags0 and Render.Flags3 conditions are met
 51: 0x05BF [0x4A] LocalPlayer looks at Semih Lafihna (ID: 17768470/0x010F2016)
 52: 0x05C8 [0x45] LOAD_SCHEDULED_TASK: Load scheduler "fdo1" with entities [EventEntity, EventEntity], work=[200*, 0*]
 53: 0x05D9 [0x1C] WAIT(60* ticks)
 54: 0x05DC [0x45] LOAD_SCHEDULED_TASK: Load scheduler "s064" with entities [EventEntity, EventEntity], work=[142*, 0*]
 55: 0x05ED [0x45] LOAD_SCHEDULED_TASK: Load scheduler "fdi1" with entities [EventEntity, EventEntity], work=[200*, 0*]
 56: 0x05FE [0x4A] Star Sibyl (ID: 17768477/0x010F201D) looks at LocalPlayer
 57: 0x0607 [0x6F] WAIT_FRAME_DELAY: Yield until WaitTime reaches zero
 58: 0x0608 [0x76] CHECK_ENTITY_RENDER_FLAGS: Wait until Star Sibyl (ID: 17768477/0x010F201D) Render.Flags0 and Render.Flags3 conditions are met
 59: 0x060D [0x29] REQ_SET_WAIT(priority=0x0B, entity_id=Semih Lafihna (ID: 17768470/0x010F2016), tag_num=0x61)
 60: 0x0614 [0x29] REQ_SET_WAIT(priority=0x0B, entity_id=Semih Lafihna (ID: 17768470/0x010F2016), tag_num=0x62)
 61: 0x061B [0x52] END_LOAD_SCHEDULER: End scheduler "s064" with entities [EventEntity, EventEntity], work=142*
 62: 0x062A [0x45] LOAD_SCHEDULED_TASK: Load scheduler "fdo1" with entities [EventEntity, EventEntity], work=[200*, 0*]
 63: 0x063B [0x1C] WAIT(60* ticks)
 64: 0x063E [0x45] LOAD_SCHEDULED_TASK: Load scheduler "s066" with entities [EventEntity, EventEntity], work=[142*, 0*]
 65: 0x064F [0x45] LOAD_SCHEDULED_TASK: Load scheduler "fdi1" with entities [EventEntity, EventEntity], work=[200*, 0*]
 66: 0x0660 [0x29] REQ_SET_WAIT(priority=0x0B, entity_id=Semih Lafihna (ID: 17768470/0x010F2016), tag_num=0x63)
 67: 0x0667 [0x4A] Star Sibyl (ID: 17768477/0x010F201D) looks at Semih Lafihna (ID: 17768470/0x010F2016)
 68: 0x0670 [0x6F] WAIT_FRAME_DELAY: Yield until WaitTime reaches zero
 69: 0x0671 [0x76] CHECK_ENTITY_RENDER_FLAGS: Wait until Star Sibyl (ID: 17768477/0x010F201D) Render.Flags0 and Render.Flags3 conditions are met
 70: 0x0676 [0x29] REQ_SET_WAIT(priority=0x0B, entity_id=Star Sibyl (ID: 17768477/0x010F201D), tag_num=0x35)
 71: 0x067D [0x4A] Semih Lafihna (ID: 17768470/0x010F2016) looks at Star Sibyl (ID: 17768477/0x010F201D)
 72: 0x0686 [0x6F] WAIT_FRAME_DELAY: Yield until WaitTime reaches zero
 73: 0x0687 [0x76] CHECK_ENTITY_RENDER_FLAGS: Wait until Semih Lafihna (ID: 17768470/0x010F2016) Render.Flags0 and Render.Flags3 conditions are met
 74: 0x068C [0x29] REQ_SET_WAIT(priority=0x08, entity_id=Star Sibyl (ID: 17768477/0x010F201D), tag_num=0x05)
 75: 0x0693 [0x29] REQ_SET_WAIT(priority=0x0B, entity_id=Star Sibyl (ID: 17768477/0x010F201D), tag_num=0x36)
 76: 0x069A [0x29] REQ_SET_WAIT(priority=0x0B, entity_id=Semih Lafihna (ID: 17768470/0x010F2016), tag_num=0x64)
 77: 0x06A1 [0x29] REQ_SET_WAIT(priority=0x08, entity_id=Star Sibyl (ID: 17768477/0x010F201D), tag_num=0x06)
 78: 0x06A8 [0x4A] Star Sibyl (ID: 17768477/0x010F201D) looks at LocalPlayer
 79: 0x06B1 [0x45] LOAD_SCHEDULED_TASK: Load scheduler "s062" with entities [EventEntity, EventEntity], work=[142*, 0*]
 80: 0x06C2 [0x7B] Star Sibyl (ID: 17768477/0x010F201D) stops talking
 81: 0x06C7 [0x29] REQ_SET_WAIT(priority=0x0B, entity_id=Star Sibyl (ID: 17768477/0x010F201D), tag_num=0x37)
 82: 0x06CE [0x45] LOAD_SCHEDULED_TASK: Load scheduler "s068" with entities [EventEntity, EventEntity], work=[142*, 0*]
 83: 0x06DF [0x27] REQ_SET(priority=0x0B, entity_id=Rukususu (ID: 17768478/0x010F201E), tag_num=0x09)
 84: 0x06E6 [0x4A] LocalPlayer looks at Rukususu (ID: 17768478/0x010F201E)
 85: 0x06EF [0x4A] Star Sibyl (ID: 17768477/0x010F201D) looks at Rukususu (ID: 17768478/0x010F201E)
 86: 0x06F8 [0x6F] WAIT_FRAME_DELAY: Yield until WaitTime reaches zero
 87: 0x06F9 [0x76] CHECK_ENTITY_RENDER_FLAGS: Wait until Star Sibyl (ID: 17768477/0x010F201D) Render.Flags0 and Render.Flags3 conditions are met
 88: 0x06FE [0x4A] Semih Lafihna (ID: 17768470/0x010F2016) looks at Rukususu (ID: 17768478/0x010F201E)
 89: 0x0707 [0x6F] WAIT_FRAME_DELAY: Yield until WaitTime reaches zero
 90: 0x0708 [0x76] CHECK_ENTITY_RENDER_FLAGS: Wait until Semih Lafihna (ID: 17768470/0x010F2016) Render.Flags0 and Render.Flags3 conditions are met
 91: 0x070D [0x2B] Rukususu (ID: 17768478/0x010F201E) [402*]:
    → "Let me take it from here."
 92: 0x0714 [0x23] WAIT_FOR_DIALOG_INTERACTION
 93: 0x0715 [0x2A] GET_REQ_LEVEL(level=11, entity_id=Rukususu (ID: 17768478/0x010F201E))
 94: 0x071B [0x4A] Rukususu (ID: 17768478/0x010F201E) looks at LocalPlayer
 95: 0x0724 [0x6F] WAIT_FRAME_DELAY: Yield until WaitTime reaches zero
 96: 0x0725 [0x76] CHECK_ENTITY_RENDER_FLAGS: Wait until Rukususu (ID: 17768478/0x010F201E) Render.Flags0 and Render.Flags3 conditions are met
 97: 0x072A [0x29] REQ_SET_WAIT(priority=0x0B, entity_id=Rukususu (ID: 17768478/0x010F201E), tag_num=0x0B)
 98: 0x0731 [0x52] END_LOAD_SCHEDULER: End scheduler "s068" with entities [EventEntity, EventEntity], work=142*
 99: 0x0740 [0x45] LOAD_SCHEDULED_TASK: Load scheduler "fdo1" with entities [EventEntity, EventEntity], work=[200*, 0*]
100: 0x0751 [0x1C] WAIT(60* ticks)
101: 0x0754 [0x45] LOAD_SCHEDULED_TASK: Load scheduler "s071" with entities [EventEntity, EventEntity], work=[142*, 0*]
102: 0x0765 [0x45] LOAD_SCHEDULED_TASK: Load scheduler "fdi1" with entities [EventEntity, EventEntity], work=[200*, 0*]
103: 0x0776 [0x29] REQ_SET_WAIT(priority=0x08, entity_id=Rukususu (ID: 17768478/0x010F201E), tag_num=0x01)
104: 0x077D [0x29] REQ_SET_WAIT(priority=0x0B, entity_id=Rukususu (ID: 17768478/0x010F201E), tag_num=0x0C)
105: 0x0784 [0x29] REQ_SET_WAIT(priority=0x0B, entity_id=Rukususu (ID: 17768478/0x010F201E), tag_num=0x0D)
106: 0x078B [0x29] REQ_SET_WAIT(priority=0x0B, entity_id=Rukususu (ID: 17768478/0x010F201E), tag_num=0x0E)
107: 0x0792 [0x52] END_LOAD_SCHEDULER: End scheduler "s071" with entities [EventEntity, EventEntity], work=142*
108: 0x07A1 [0x45] LOAD_SCHEDULED_TASK: Load scheduler "fdo1" with entities [EventEntity, EventEntity], work=[200*, 0*]
109: 0x07B2 [0x4A] Star Sibyl (ID: 17768477/0x010F201D) looks at LocalPlayer
110: 0x07BB [0x6F] WAIT_FRAME_DELAY: Yield until WaitTime reaches zero
111: 0x07BC [0x76] CHECK_ENTITY_RENDER_FLAGS: Wait until Star Sibyl (ID: 17768477/0x010F201D) Render.Flags0 and Render.Flags3 conditions are met
112: 0x07C1 [0x4A] Semih Lafihna (ID: 17768470/0x010F2016) looks at LocalPlayer
113: 0x07CA [0x6F] WAIT_FRAME_DELAY: Yield until WaitTime reaches zero
114: 0x07CB [0x76] CHECK_ENTITY_RENDER_FLAGS: Wait until Semih Lafihna (ID: 17768470/0x010F2016) Render.Flags0 and Render.Flags3 conditions are met
115: 0x07D0 [0x1C] WAIT(60* ticks)
116: 0x07D3 [0x45] LOAD_SCHEDULED_TASK: Load scheduler "s072" with entities [EventEntity, EventEntity], work=[142*, 0*]
117: 0x07E4 [0x45] LOAD_SCHEDULED_TASK: Load scheduler "fdi1" with entities [EventEntity, EventEntity], work=[200*, 0*]
118: 0x07F5 [0x29] REQ_SET_WAIT(priority=0x0B, entity_id=Rukususu (ID: 17768478/0x010F201E), tag_num=0x0F)
119: 0x07FC [0x29] REQ_SET_WAIT(priority=0x0B, entity_id=Rukususu (ID: 17768478/0x010F201E), tag_num=0x10)
120: 0x0803 [0x52] END_LOAD_SCHEDULER: End scheduler "s072" with entities [EventEntity, EventEntity], work=142*
121: 0x0812 [0x45] LOAD_SCHEDULED_TASK: Load scheduler "fdo1" with entities [EventEntity, EventEntity], work=[200*, 0*]
122: 0x0823 [0x1C] WAIT(60* ticks)
123: 0x0826 [0x45] LOAD_SCHEDULED_TASK: Load scheduler "s070" with entities [EventEntity, EventEntity], work=[142*, 0*]
124: 0x0837 [0x45] LOAD_SCHEDULED_TASK: Load scheduler "fdi1" with entities [EventEntity, EventEntity], work=[200*, 0*]
125: 0x0848 [0x29] REQ_SET_WAIT(priority=0x0B, entity_id=Rukususu (ID: 17768478/0x010F201E), tag_num=0x11)
126: 0x084F [0x29] REQ_SET_WAIT(priority=0x0B, entity_id=Rukususu (ID: 17768478/0x010F201E), tag_num=0x12)
127: 0x0856 [0x29] REQ_SET_WAIT(priority=0x08, entity_id=Rukususu (ID: 17768478/0x010F201E), tag_num=0x05)
128: 0x085D [0x02] IF !(Work_Zone[8] == 8*) GOTO 0x0879
129: 0x0865 [0x45] LOAD_SCHEDULED_TASK: Load scheduler "s105" with entities [EventEntity, EventEntity], work=[142*, 0*]
130: 0x0876 [0x01] GOTO 0x088A
131: 0x0879 [0x45] LOAD_SCHEDULED_TASK: Load scheduler "s073" with entities [EventEntity, EventEntity], work=[142*, 0*]

SUBROUTINE_088A:
132: 0x088A [0x4A] LocalPlayer looks at Star Sibyl (ID: 17768477/0x010F201D)
133: 0x0893 [0x29] REQ_SET_WAIT(priority=0x0B, entity_id=Star Sibyl (ID: 17768477/0x010F201D), tag_num=0x38)
134: 0x089A [0x29] REQ_SET_WAIT(priority=0x0B, entity_id=Star Sibyl (ID: 17768477/0x010F201D), tag_num=0x39)
135: 0x08A1 [0x24] CREATE_DIALOG(message_id=414*, default_option=0*, option_flags=0*)
    → "Accept this mission? [Yes./No.]"
136: 0x08A8 [0x25] WAIT_DIALOG_SELECT()
137: 0x08A9 [0x02] IF !(Work_Zone[0] == 0*) GOTO 0x08C0
138: 0x08B1 [0x03] Work_Zone[1] = 0*
139: 0x08B6 [0x29] REQ_SET_WAIT(priority=0x0D, entity_id=Door:Vestal Chamber (ID: 17768476/0x010F201C), tag_num=0x06)
140: 0x08BD [0x01] GOTO 0x08D7
141: 0x08C0 [0x02] IF !(Work_Zone[0] == 1*) GOTO 0x08D7
142: 0x08C8 [0x03] Work_Zone[1] = 1*
143: 0x08CD [0x29] REQ_SET_WAIT(priority=0x0D, entity_id=Door:Vestal Chamber (ID: 17768476/0x010F201C), tag_num=0x08)
144: 0x08D4 [0x01] GOTO 0x08D7

SUBROUTINE_08D7:
145: 0x08D7 [0x45] LOAD_SCHEDULED_TASK: Load scheduler "fdo1" with entities [EventEntity, EventEntity], work=[200*, 0*]
146: 0x08E8 [0x1C] WAIT(60* ticks)
147: 0x08EB [0x4E] SET_ENTITY_HIDE_FLAG: Show LocalPlayer
148: 0x08F1 [0x29] REQ_SET_WAIT(priority=0x0B, entity_id=LocalPlayer, tag_num=0x21)
149: 0x08F8 [0x46] CAMERA_CONTROL: Restore default settings
150: 0x08FA [0x1C] WAIT(1* ticks)
151: 0x08FD [0x02] IF !(Work_Zone[7] == 1*) GOTO 0x0910
152: 0x0905 [0x75] LOAD_ROOM(Load indoor room, room=426*)
153: 0x0909 [0x75] LOAD_ROOM(No action)
154: 0x090B [0x75] LOAD_ROOM(Change sub-map, room=0x1601)
155: 0x090F [0x09] 0x75 |= (1 << 427*)
156: 0x0914 [0x75] LOAD_ROOM(No action)
157: 0x0916 [0x1C] WAIT(200* ticks)
158: 0x0919 [0x45] LOAD_SCHEDULED_TASK: Load scheduler "fdi1" with entities [EventEntity, EventEntity], work=[200*, 0*]
159: 0x092A [0x20] SET_CLI_EVENT_UC_FLAG: Unlock player control
160: 0x092C [0x21] END_EVENT
161: 0x092D [0x00] END_REQSTACK()
```

### Event 65535.1

#### Metadata

| Field        | Value    |
|--------------|----------|
| Entrypoint   | 0x092E   |
| Data Size    | 93 bytes |
| Instructions | 11       |

```
      00 01 02 03 04 05 06 07  08 09 0A 0B 0C 0D 0E 0F
      -- -- -- -- -- -- -- --  -- -- -- -- -- -- -- --
0920:                                            29 0B                ).
0930: 1D 20 0F 01 3A 45 07 80  F8 FF FF 7F F8 FF FF 7F  . ..:E..........
0940: 73 30 31 39 02 80 4B 1D  20 0F 01 02 80 29 0B 1D  s019..K. ....)..
0950: 20 0F 01 3B 52 07 80 F8  FF FF 7F F8 FF FF 7F 73   ..;R..........s
0960: 30 31 39 45 07 80 F8 FF  FF 7F F8 FF FF 7F 73 30  019E..........s0
0970: 36 32 02 80 4A 1D 20 0F  01 F0 FF FF 7F 6F 76 1D  62..J. ......ov.
0980: 20 0F 01 29 0B 1D 20 0F  01 3C 00                  ..).. ..<.     
```

#### Opcodes

```
  0: 0x092E [0x29] REQ_SET_WAIT(priority=0x0B, entity_id=Star Sibyl (ID: 17768477/0x010F201D), tag_num=0x3A)
  1: 0x0935 [0x45] LOAD_SCHEDULED_TASK: Load scheduler "s019" with entities [EventEntity, EventEntity], work=[142*, 0*]
  2: 0x0946 [0x4B] UPDATE_ENTITY_YAW(entity=Star Sibyl (ID: 17768477/0x010F201D), yaw=0.0°*)
  3: 0x094D [0x29] REQ_SET_WAIT(priority=0x0B, entity_id=Star Sibyl (ID: 17768477/0x010F201D), tag_num=0x3B)
  4: 0x0954 [0x52] END_LOAD_SCHEDULER: End scheduler "s019" with entities [EventEntity, EventEntity], work=142*
  5: 0x0963 [0x45] LOAD_SCHEDULED_TASK: Load scheduler "s062" with entities [EventEntity, EventEntity], work=[142*, 0*]
  6: 0x0974 [0x4A] Star Sibyl (ID: 17768477/0x010F201D) looks at LocalPlayer
  7: 0x097D [0x6F] WAIT_FRAME_DELAY: Yield until WaitTime reaches zero
  8: 0x097E [0x76] CHECK_ENTITY_RENDER_FLAGS: Wait until Star Sibyl (ID: 17768477/0x010F201D) Render.Flags0 and Render.Flags3 conditions are met
  9: 0x0983 [0x29] REQ_SET_WAIT(priority=0x0B, entity_id=Star Sibyl (ID: 17768477/0x010F201D), tag_num=0x3C)
 10: 0x098A [0x00] END_REQSTACK()
```

### Event 65535.2

#### Metadata

| Field        | Value    |
|--------------|----------|
| Entrypoint   | 0x098B   |
| Data Size    | 40 bytes |
| Instructions | 6        |

```
      00 01 02 03 04 05 06 07  08 09 0A 0B 0C 0D 0E 0F
      -- -- -- -- -- -- -- --  -- -- -- -- -- -- -- --
0980:                                   45 07 80 F8 FF             E....
0990: FF 7F F8 FF FF 7F 73 30  36 32 02 80 4A 1D 20 0F  ......s062..J. .
09A0: 01 F0 FF FF 7F 6F 76 1D  20 0F 01 29 0B 1D 20 0F  .....ov. ..).. .
09B0: 01 44 00                                          .D.             
```

#### Opcodes

```
  0: 0x098B [0x45] LOAD_SCHEDULED_TASK: Load scheduler "s062" with entities [EventEntity, EventEntity], work=[142*, 0*]
  1: 0x099C [0x4A] Star Sibyl (ID: 17768477/0x010F201D) looks at LocalPlayer
  2: 0x09A5 [0x6F] WAIT_FRAME_DELAY: Yield until WaitTime reaches zero
  3: 0x09A6 [0x76] CHECK_ENTITY_RENDER_FLAGS: Wait until Star Sibyl (ID: 17768477/0x010F201D) Render.Flags0 and Render.Flags3 conditions are met
  4: 0x09AB [0x29] REQ_SET_WAIT(priority=0x0B, entity_id=Star Sibyl (ID: 17768477/0x010F201D), tag_num=0x44)
  5: 0x09B2 [0x00] END_REQSTACK()
```

### Event 65535.3

#### Metadata

| Field        | Value    |
|--------------|----------|
| Entrypoint   | 0x09B3   |
| Data Size    | 67 bytes |
| Instructions | 9        |

```
      00 01 02 03 04 05 06 07  08 09 0A 0B 0C 0D 0E 0F
      -- -- -- -- -- -- -- --  -- -- -- -- -- -- -- --
09B0:          4A 1D 20 0F 01  F0 FF FF 7F 7B 1D 20 0F     J. ......{. .
09C0: 01 6F 76 1D 20 0F 01 29  0B 1D 20 0F 01 3D 45 07  .ov. ..).. ..=E.
09D0: 80 F8 FF FF 7F F8 FF FF  7F 73 30 31 39 02 80 29  .........s019..)
09E0: 0B 1D 20 0F 01 3E 52 07  80 F8 FF FF 7F F8 FF FF  .. ..>R.........
09F0: 7F 73 30 31 39 00                                 .s019.          
```

#### Opcodes

```
  0: 0x09B3 [0x4A] Star Sibyl (ID: 17768477/0x010F201D) looks at LocalPlayer
  1: 0x09BC [0x7B] Star Sibyl (ID: 17768477/0x010F201D) stops talking
  2: 0x09C1 [0x6F] WAIT_FRAME_DELAY: Yield until WaitTime reaches zero
  3: 0x09C2 [0x76] CHECK_ENTITY_RENDER_FLAGS: Wait until Star Sibyl (ID: 17768477/0x010F201D) Render.Flags0 and Render.Flags3 conditions are met
  4: 0x09C7 [0x29] REQ_SET_WAIT(priority=0x0B, entity_id=Star Sibyl (ID: 17768477/0x010F201D), tag_num=0x3D)
  5: 0x09CE [0x45] LOAD_SCHEDULED_TASK: Load scheduler "s019" with entities [EventEntity, EventEntity], work=[142*, 0*]
  6: 0x09DF [0x29] REQ_SET_WAIT(priority=0x0B, entity_id=Star Sibyl (ID: 17768477/0x010F201D), tag_num=0x3E)
  7: 0x09E6 [0x52] END_LOAD_SCHEDULER: End scheduler "s019" with entities [EventEntity, EventEntity], work=142*
  8: 0x09F5 [0x00] END_REQSTACK()
```

### Event 190

#### Metadata

| Field        | Value     |
|--------------|-----------|
| Entrypoint   | 0x09F6    |
| Data Size    | 411 bytes |
| Instructions | 60        |

```
      00 01 02 03 04 05 06 07  08 09 0A 0B 0C 0D 0E 0F
      -- -- -- -- -- -- -- --  -- -- -- -- -- -- -- --
09F0:                   46 01  42 45 01 80 F0 FF FF 7F        F.BE......
0A00: F0 FF FF 7F 66 64 6F 31  02 80 1C 03 80 38 04 80  ....fdo1.....8..
0A10: 29 08 F0 FF FF 7F 06 75  00 05 80 75 01 1C 06 80  )......u...u....
0A20: 4E 00 1D 20 0F 01 4E 00  1E 20 0F 01 4E 00 16 20  N.. ..N.. ..N.. 
0A30: 0F 01 80 1D 20 0F 01 80  16 20 0F 01 80 1E 20 0F  .... .... .... .
0A40: 01 29 0E F0 FF FF 7F 28  27 0B F0 FF FF 7F 29 45  .).....('.....)E
0A50: 07 80 F8 FF FF 7F F8 FF  FF 7F 73 30 35 35 02 80  ..........s055..
0A60: 45 01 80 F0 FF FF 7F F0  FF FF 7F 66 64 69 31 02  E..........fdi1.
0A70: 80 4A 16 20 0F 01 F0 FF  FF 7F 6F 76 16 20 0F 01  .J. ......ov. ..
0A80: 1C 13 80 52 07 80 F8 FF  FF 7F F8 FF FF 7F 73 30  ...R..........s0
0A90: 35 35 45 07 80 F8 FF FF  7F F8 FF FF 7F 73 30 35  55E..........s05
0AA0: 39 02 80 4A 16 20 0F 01  F0 FF FF 7F 4A 1E 20 0F  9..J. ......J. .
0AB0: 01 F0 FF FF 7F 4A 16 20  0F 01 F0 FF FF 7F 4A 1E  .....J. ......J.
0AC0: 20 0F 01 F0 FF FF 7F 1C  0B 80 2A 0B F0 FF FF 7F   .........*.....
0AD0: 52 07 80 F8 FF FF 7F F8  FF FF 7F 73 30 35 39 02  R..........s059.
0AE0: 08 10 16 80 00 FB 0A 45  07 80 F8 FF FF 7F F8 FF  .......E........
0AF0: FF 7F 73 31 30 35 02 80  01 0C 0B 45 07 80 F8 FF  ..s105.....E....
0B00: FF 7F F8 FF FF 7F 73 30  37 33 02 80 29 0B 1D 20  ......s073..).. 
0B10: 0F 01 41 29 0B 1D 20 0F  01 42 24 18 80 02 80 02  ..A).. ..B$.....
0B20: 80 25 02 00 10 02 80 00  39 0B 03 01 10 02 80 29  .%......9......)
0B30: 0D 1C 20 0F 01 07 01 50  0B 02 00 10 06 80 00 50  .. ....P.......P
0B40: 0B 03 01 10 06 80 29 0D  1C 20 0F 01 08 01 50 0B  ......).. ....P.
0B50: 45 01 80 F8 FF FF 7F F8  FF FF 7F 66 64 6F 31 02  E..........fdo1.
0B60: 80 1C 03 80 4E 00 F0 FF  FF 7F 29 0B F0 FF FF 7F  ....N.....).....
0B70: 21 46 00 75 00 11 80 75  01 1C 06 80 45 01 80 F8  !F.u...u....E...
0B80: FF FF 7F F8 FF FF 7F 66  64 69 31 02 80 20 00 21  .......fdi1.. .!
0B90: 00                                                .               
```

#### Opcodes

```
  0: 0x09F6 [0x46] CAMERA_CONTROL: Disable user control
  1: 0x09F8 [0x42] SET_CLI_EVENT_CANCEL_DATA()
  2: 0x09F9 [0x45] LOAD_SCHEDULED_TASK: Load scheduler "fdo1" with entities [LocalPlayer, LocalPlayer], work=[200*, 0*]
  3: 0x0A0A [0x1C] WAIT(60* ticks)
  4: 0x0A0D [0x38] SET_CLIENT_EVENT_MODE(mode=3*)
  5: 0x0A10 [0x29] REQ_SET_WAIT(priority=0x08, entity_id=LocalPlayer, tag_num=0x06)
  6: 0x0A17 [0x75] LOAD_ROOM(Load indoor room, room=428*)
  7: 0x0A1B [0x75] LOAD_ROOM(No action)
  8: 0x0A1D [0x1C] WAIT(1* ticks)
  9: 0x0A20 [0x4E] SET_ENTITY_HIDE_FLAG: Show Star Sibyl (ID: 17768477/0x010F201D)
 10: 0x0A26 [0x4E] SET_ENTITY_HIDE_FLAG: Show Rukususu (ID: 17768478/0x010F201E)
 11: 0x0A2C [0x4E] SET_ENTITY_HIDE_FLAG: Show Semih Lafihna (ID: 17768470/0x010F2016)
 12: 0x0A32 [0x80] LOAD_WAIT(entity=Star Sibyl (ID: 17768477/0x010F201D))
 13: 0x0A37 [0x80] LOAD_WAIT(entity=Semih Lafihna (ID: 17768470/0x010F2016))
 14: 0x0A3C [0x80] LOAD_WAIT(entity=Rukususu (ID: 17768478/0x010F201E))
 15: 0x0A41 [0x29] REQ_SET_WAIT(priority=0x0E, entity_id=LocalPlayer, tag_num=0x28)
 16: 0x0A48 [0x27] REQ_SET(priority=0x0B, entity_id=LocalPlayer, tag_num=0x29)
 17: 0x0A4F [0x45] LOAD_SCHEDULED_TASK: Load scheduler "s055" with entities [EventEntity, EventEntity], work=[142*, 0*]
 18: 0x0A60 [0x45] LOAD_SCHEDULED_TASK: Load scheduler "fdi1" with entities [LocalPlayer, LocalPlayer], work=[200*, 0*]
 19: 0x0A71 [0x4A] Semih Lafihna (ID: 17768470/0x010F2016) looks at LocalPlayer
 20: 0x0A7A [0x6F] WAIT_FRAME_DELAY: Yield until WaitTime reaches zero
 21: 0x0A7B [0x76] CHECK_ENTITY_RENDER_FLAGS: Wait until Semih Lafihna (ID: 17768470/0x010F2016) Render.Flags0 and Render.Flags3 conditions are met
 22: 0x0A80 [0x1C] WAIT(300* ticks)
 23: 0x0A83 [0x52] END_LOAD_SCHEDULER: End scheduler "s055" with entities [EventEntity, EventEntity], work=142*
 24: 0x0A92 [0x45] LOAD_SCHEDULED_TASK: Load scheduler "s059" with entities [EventEntity, EventEntity], work=[142*, 0*]
 25: 0x0AA3 [0x4A] Semih Lafihna (ID: 17768470/0x010F2016) looks at LocalPlayer
 26: 0x0AAC [0x4A] Rukususu (ID: 17768478/0x010F201E) looks at LocalPlayer
 27: 0x0AB5 [0x4A] Semih Lafihna (ID: 17768470/0x010F2016) looks at LocalPlayer
 28: 0x0ABE [0x4A] Rukususu (ID: 17768478/0x010F201E) looks at LocalPlayer
 29: 0x0AC7 [0x1C] WAIT(50* ticks)
 30: 0x0ACA [0x2A] GET_REQ_LEVEL(level=11, entity_id=LocalPlayer)
 31: 0x0AD0 [0x52] END_LOAD_SCHEDULER: End scheduler "s059" with entities [EventEntity, EventEntity], work=142*
 32: 0x0ADF [0x02] IF !(Work_Zone[8] == 8*) GOTO 0x0AFB
 33: 0x0AE7 [0x45] LOAD_SCHEDULED_TASK: Load scheduler "s105" with entities [EventEntity, EventEntity], work=[142*, 0*]
 34: 0x0AF8 [0x01] GOTO 0x0B0C
 35: 0x0AFB [0x45] LOAD_SCHEDULED_TASK: Load scheduler "s073" with entities [EventEntity, EventEntity], work=[142*, 0*]

SUBROUTINE_0B0C:
 36: 0x0B0C [0x29] REQ_SET_WAIT(priority=0x0B, entity_id=Star Sibyl (ID: 17768477/0x010F201D), tag_num=0x41)
 37: 0x0B13 [0x29] REQ_SET_WAIT(priority=0x0B, entity_id=Star Sibyl (ID: 17768477/0x010F201D), tag_num=0x42)
 38: 0x0B1A [0x24] CREATE_DIALOG(message_id=422*, default_option=0*, option_flags=0*)
    → "Accept this mission? [Yes./No.]"
 39: 0x0B21 [0x25] WAIT_DIALOG_SELECT()
 40: 0x0B22 [0x02] IF !(Work_Zone[0] == 0*) GOTO 0x0B39
 41: 0x0B2A [0x03] Work_Zone[1] = 0*
 42: 0x0B2F [0x29] REQ_SET_WAIT(priority=0x0D, entity_id=Door:Vestal Chamber (ID: 17768476/0x010F201C), tag_num=0x07)
 43: 0x0B36 [0x01] GOTO 0x0B50
 44: 0x0B39 [0x02] IF !(Work_Zone[0] == 1*) GOTO 0x0B50
 45: 0x0B41 [0x03] Work_Zone[1] = 1*
 46: 0x0B46 [0x29] REQ_SET_WAIT(priority=0x0D, entity_id=Door:Vestal Chamber (ID: 17768476/0x010F201C), tag_num=0x08)
 47: 0x0B4D [0x01] GOTO 0x0B50

SUBROUTINE_0B50:
 48: 0x0B50 [0x45] LOAD_SCHEDULED_TASK: Load scheduler "fdo1" with entities [EventEntity, EventEntity], work=[200*, 0*]
 49: 0x0B61 [0x1C] WAIT(60* ticks)
 50: 0x0B64 [0x4E] SET_ENTITY_HIDE_FLAG: Show LocalPlayer
 51: 0x0B6A [0x29] REQ_SET_WAIT(priority=0x0B, entity_id=LocalPlayer, tag_num=0x21)
 52: 0x0B71 [0x46] CAMERA_CONTROL: Restore default settings
 53: 0x0B73 [0x75] LOAD_ROOM(Load indoor room, room=427*)
 54: 0x0B77 [0x75] LOAD_ROOM(No action)
 55: 0x0B79 [0x1C] WAIT(1* ticks)
 56: 0x0B7C [0x45] LOAD_SCHEDULED_TASK: Load scheduler "fdi1" with entities [EventEntity, EventEntity], work=[200*, 0*]
 57: 0x0B8D [0x20] SET_CLI_EVENT_UC_FLAG: Unlock player control
 58: 0x0B8F [0x21] END_EVENT
 59: 0x0B90 [0x00] END_REQSTACK()
```

### Event 191

#### Metadata

| Field        | Value     |
|--------------|-----------|
| Entrypoint   | 0x0B91    |
| Data Size    | 364 bytes |
| Instructions | 51        |

```
      00 01 02 03 04 05 06 07  08 09 0A 0B 0C 0D 0E 0F
      -- -- -- -- -- -- -- --  -- -- -- -- -- -- -- --
0B90:    46 01 42 45 01 80 F0  FF FF 7F F0 FF FF 7F 66   F.BE..........f
0BA0: 64 6F 31 02 80 1C 03 80  38 04 80 29 08 F0 FF FF  do1.....8..)....
0BB0: 7F 06 75 00 05 80 75 01  1C 06 80 4E 00 1D 20 0F  ..u...u....N.. .
0BC0: 01 4E 00 1E 20 0F 01 4E  00 16 20 0F 01 80 1D 20  .N.. ..N.. .... 
0BD0: 0F 01 80 16 20 0F 01 80  1E 20 0F 01 29 0E F0 FF  .... .... ..)...
0BE0: FF 7F 28 27 0B F0 FF FF  7F 29 45 07 80 F8 FF FF  ..('.....)E.....
0BF0: 7F F8 FF FF 7F 73 30 35  35 02 80 45 01 80 F0 FF  .....s055..E....
0C00: FF 7F F0 FF FF 7F 66 64  69 31 02 80 4A 16 20 0F  ......fdi1..J. .
0C10: 01 F0 FF FF 7F 6F 76 16  20 0F 01 1C 13 80 52 07  .....ov. .....R.
0C20: 80 F8 FF FF 7F F8 FF FF  7F 73 30 35 35 45 07 80  .........s055E..
0C30: F8 FF FF 7F F8 FF FF 7F  73 30 35 39 02 80 4A 16  ........s059..J.
0C40: 20 0F 01 F0 FF FF 7F 4A  1E 20 0F 01 F0 FF FF 7F   ......J. ......
0C50: 4A 16 20 0F 01 F0 FF FF  7F 4A 1E 20 0F 01 F0 FF  J. ......J. ....
0C60: FF 7F 1C 0B 80 2A 0B F0  FF FF 7F 52 07 80 F8 FF  .....*.....R....
0C70: FF 7F F8 FF FF 7F 73 30  35 39 02 08 10 16 80 00  ......s059......
0C80: 96 0C 45 07 80 F8 FF FF  7F F8 FF FF 7F 73 31 30  ..E..........s10
0C90: 35 02 80 01 A7 0C 45 07  80 F8 FF FF 7F F8 FF FF  5.....E.........
0CA0: 7F 73 30 37 33 02 80 29  0B 1D 20 0F 01 41 29 0B  .s073..).. ..A).
0CB0: 1D 20 0F 01 43 29 0B 1C  20 0F 01 07 45 01 80 F8  . ..C).. ...E...
0CC0: FF FF 7F F8 FF FF 7F 66  64 6F 31 02 80 1C 03 80  .......fdo1.....
0CD0: 4E 00 F0 FF FF 7F 29 0B  F0 FF FF 7F 21 46 00 75  N.....).....!F.u
0CE0: 00 11 80 75 01 1C 06 80  45 01 80 F8 FF FF 7F F8  ...u....E.......
0CF0: FF FF 7F 66 64 69 31 02  80 20 00 21 00           ...fdi1.. .!.   
```

#### Opcodes

```
  0: 0x0B91 [0x46] CAMERA_CONTROL: Disable user control
  1: 0x0B93 [0x42] SET_CLI_EVENT_CANCEL_DATA()
  2: 0x0B94 [0x45] LOAD_SCHEDULED_TASK: Load scheduler "fdo1" with entities [LocalPlayer, LocalPlayer], work=[200*, 0*]
  3: 0x0BA5 [0x1C] WAIT(60* ticks)
  4: 0x0BA8 [0x38] SET_CLIENT_EVENT_MODE(mode=3*)
  5: 0x0BAB [0x29] REQ_SET_WAIT(priority=0x08, entity_id=LocalPlayer, tag_num=0x06)
  6: 0x0BB2 [0x75] LOAD_ROOM(Load indoor room, room=428*)
  7: 0x0BB6 [0x75] LOAD_ROOM(No action)
  8: 0x0BB8 [0x1C] WAIT(1* ticks)
  9: 0x0BBB [0x4E] SET_ENTITY_HIDE_FLAG: Show Star Sibyl (ID: 17768477/0x010F201D)
 10: 0x0BC1 [0x4E] SET_ENTITY_HIDE_FLAG: Show Rukususu (ID: 17768478/0x010F201E)
 11: 0x0BC7 [0x4E] SET_ENTITY_HIDE_FLAG: Show Semih Lafihna (ID: 17768470/0x010F2016)
 12: 0x0BCD [0x80] LOAD_WAIT(entity=Star Sibyl (ID: 17768477/0x010F201D))
 13: 0x0BD2 [0x80] LOAD_WAIT(entity=Semih Lafihna (ID: 17768470/0x010F2016))
 14: 0x0BD7 [0x80] LOAD_WAIT(entity=Rukususu (ID: 17768478/0x010F201E))
 15: 0x0BDC [0x29] REQ_SET_WAIT(priority=0x0E, entity_id=LocalPlayer, tag_num=0x28)
 16: 0x0BE3 [0x27] REQ_SET(priority=0x0B, entity_id=LocalPlayer, tag_num=0x29)
 17: 0x0BEA [0x45] LOAD_SCHEDULED_TASK: Load scheduler "s055" with entities [EventEntity, EventEntity], work=[142*, 0*]
 18: 0x0BFB [0x45] LOAD_SCHEDULED_TASK: Load scheduler "fdi1" with entities [LocalPlayer, LocalPlayer], work=[200*, 0*]
 19: 0x0C0C [0x4A] Semih Lafihna (ID: 17768470/0x010F2016) looks at LocalPlayer
 20: 0x0C15 [0x6F] WAIT_FRAME_DELAY: Yield until WaitTime reaches zero
 21: 0x0C16 [0x76] CHECK_ENTITY_RENDER_FLAGS: Wait until Semih Lafihna (ID: 17768470/0x010F2016) Render.Flags0 and Render.Flags3 conditions are met
 22: 0x0C1B [0x1C] WAIT(300* ticks)
 23: 0x0C1E [0x52] END_LOAD_SCHEDULER: End scheduler "s055" with entities [EventEntity, EventEntity], work=142*
 24: 0x0C2D [0x45] LOAD_SCHEDULED_TASK: Load scheduler "s059" with entities [EventEntity, EventEntity], work=[142*, 0*]
 25: 0x0C3E [0x4A] Semih Lafihna (ID: 17768470/0x010F2016) looks at LocalPlayer
 26: 0x0C47 [0x4A] Rukususu (ID: 17768478/0x010F201E) looks at LocalPlayer
 27: 0x0C50 [0x4A] Semih Lafihna (ID: 17768470/0x010F2016) looks at LocalPlayer
 28: 0x0C59 [0x4A] Rukususu (ID: 17768478/0x010F201E) looks at LocalPlayer
 29: 0x0C62 [0x1C] WAIT(50* ticks)
 30: 0x0C65 [0x2A] GET_REQ_LEVEL(level=11, entity_id=LocalPlayer)
 31: 0x0C6B [0x52] END_LOAD_SCHEDULER: End scheduler "s059" with entities [EventEntity, EventEntity], work=142*
 32: 0x0C7A [0x02] IF !(Work_Zone[8] == 8*) GOTO 0x0C96
 33: 0x0C82 [0x45] LOAD_SCHEDULED_TASK: Load scheduler "s105" with entities [EventEntity, EventEntity], work=[142*, 0*]
 34: 0x0C93 [0x01] GOTO 0x0CA7
 35: 0x0C96 [0x45] LOAD_SCHEDULED_TASK: Load scheduler "s073" with entities [EventEntity, EventEntity], work=[142*, 0*]

SUBROUTINE_0CA7:
 36: 0x0CA7 [0x29] REQ_SET_WAIT(priority=0x0B, entity_id=Star Sibyl (ID: 17768477/0x010F201D), tag_num=0x41)
 37: 0x0CAE [0x29] REQ_SET_WAIT(priority=0x0B, entity_id=Star Sibyl (ID: 17768477/0x010F201D), tag_num=0x43)
 38: 0x0CB5 [0x29] REQ_SET_WAIT(priority=0x0B, entity_id=Door:Vestal Chamber (ID: 17768476/0x010F201C), tag_num=0x07)
 39: 0x0CBC [0x45] LOAD_SCHEDULED_TASK: Load scheduler "fdo1" with entities [EventEntity, EventEntity], work=[200*, 0*]
 40: 0x0CCD [0x1C] WAIT(60* ticks)
 41: 0x0CD0 [0x4E] SET_ENTITY_HIDE_FLAG: Show LocalPlayer
 42: 0x0CD6 [0x29] REQ_SET_WAIT(priority=0x0B, entity_id=LocalPlayer, tag_num=0x21)
 43: 0x0CDD [0x46] CAMERA_CONTROL: Restore default settings
 44: 0x0CDF [0x75] LOAD_ROOM(Load indoor room, room=427*)
 45: 0x0CE3 [0x75] LOAD_ROOM(No action)
 46: 0x0CE5 [0x1C] WAIT(1* ticks)
 47: 0x0CE8 [0x45] LOAD_SCHEDULED_TASK: Load scheduler "fdi1" with entities [EventEntity, EventEntity], work=[200*, 0*]
 48: 0x0CF9 [0x20] SET_CLI_EVENT_UC_FLAG: Unlock player control
 49: 0x0CFB [0x21] END_EVENT
 50: 0x0CFC [0x00] END_REQSTACK()
```

### Event 192

#### Metadata

| Field        | Value     |
|--------------|-----------|
| Entrypoint   | 0x0CFD    |
| Data Size    | 588 bytes |
| Instructions | 78        |

```
      00 01 02 03 04 05 06 07  08 09 0A 0B 0C 0D 0E 0F
      -- -- -- -- -- -- -- --  -- -- -- -- -- -- -- --
0CF0:                                         46 01 42               F.B
0D00: 45 01 80 F0 FF FF 7F F0  FF FF 7F 66 64 6F 31 02  E..........fdo1.
0D10: 80 1C 03 80 38 19 80 29  08 F0 FF FF 7F 06 75 00  ....8..)......u.
0D20: 05 80 75 01 1C 06 80 4E  00 1D 20 0F 01 4E 00 16  ..u....N.. ..N..
0D30: 20 0F 01 80 1D 20 0F 01  80 16 20 0F 01 29 0E F0   .... .... ..)..
0D40: FF FF 7F 28 27 0B F0 FF  FF 7F 29 45 07 80 F8 FF  ...('.....)E....
0D50: FF 7F F8 FF FF 7F 73 30  35 35 02 80 45 01 80 F0  ......s055..E...
0D60: FF FF 7F F0 FF FF 7F 66  64 69 31 02 80 4A 16 20  .......fdi1..J. 
0D70: 0F 01 F0 FF FF 7F 6F 76  16 20 0F 01 1C 13 80 52  ......ov. .....R
0D80: 07 80 F8 FF FF 7F F8 FF  FF 7F 73 30 35 35 45 07  ..........s055E.
0D90: 80 F8 FF FF 7F F8 FF FF  7F 73 30 35 39 02 80 4A  .........s059..J
0DA0: 16 20 0F 01 F0 FF FF 7F  4A 1E 20 0F 01 F0 FF FF  . ......J. .....
0DB0: 7F 4A 16 20 0F 01 F0 FF  FF 7F 4A 1E 20 0F 01 F0  .J. ......J. ...
0DC0: FF FF 7F 1C 0B 80 2A 0B  F0 FF FF 7F 55 07 80 F8  ......*.....U...
0DD0: FF FF 7F F8 FF FF 7F 73  30 35 39 02 08 10 16 80  .......s059.....
0DE0: 00 F7 0D 45 07 80 F8 FF  FF 7F F8 FF FF 7F 73 31  ...E..........s1
0DF0: 30 35 02 80 01 08 0E 45  07 80 F8 FF FF 7F F8 FF  05.....E........
0E00: FF 7F 73 30 37 33 02 80  29 0B 1D 20 0F 01 47 27  ..s073..).. ..G'
0E10: 0B 1D 20 0F 01 1E 2B 1D  20 0F 01 11 80 23 2A 0B  .. ...+. ....#*.
0E20: 1D 20 0F 01 45 01 80 F0  FF FF 7F F0 FF FF 7F 66  . ..E..........f
0E30: 64 6F 31 02 80 1C 03 80  1C 08 80 29 0B 1D 20 0F  do1........).. .
0E40: 01 46 4A 16 20 0F 01 1D  20 0F 01 6F 76 16 20 0F  .FJ. ... ..ov. .
0E50: 01 45 07 80 F8 FF FF 7F  F8 FF FF 7F 73 30 37 38  .E..........s078
0E60: 02 80 45 01 80 F0 FF FF  7F F0 FF FF 7F 66 64 69  ..E..........fdi
0E70: 31 02 80 29 0B 1D 20 0F  01 49 29 0B 1D 20 0F 01  1..).. ..I).. ..
0E80: 4A 55 07 80 F8 FF FF 7F  F8 FF FF 7F 73 30 37 38  JU..........s078
0E90: 45 07 80 F8 FF FF 7F F8  FF FF 7F 73 30 37 39 02  E..........s079.
0EA0: 80 29 0B 16 20 0F 01 68  4A 1D 20 0F 01 16 20 0F  .).. ..hJ. ... .
0EB0: 01 6F 76 1D 20 0F 01 29  0B 1D 20 0F 01 4B 45 07  .ov. ..).. ..KE.
0EC0: 80 F8 FF FF 7F F8 FF FF  7F 73 30 37 36 02 80 4A  .........s076..J
0ED0: 1D 20 0F 01 F0 FF FF 7F  7B 1D 20 0F 01 29 0B 1D  . ......{. ..)..
0EE0: 20 0F 01 4C 45 01 80 F8  FF FF 7F F8 FF FF 7F 66   ..LE..........f
0EF0: 64 6F 31 02 80 1C 03 80  4E 00 F0 FF FF 7F 29 0B  do1.....N.....).
0F00: F0 FF FF 7F 21 46 00 02  07 10 06 80 00 1A 0F 75  ....!F.........u
0F10: 00 10 80 75 01 75 02 01  20 0F 75 00 11 80 75 01  ...u.u.. .u...u.
0F20: 1C 01 80 45 01 80 F8 FF  FF 7F F8 FF FF 7F 66 64  ...E..........fd
0F30: 69 31 02 80 45 1A 80 F0  FF FF 7F F0 FF FF 7F 71  i1..E..........q
0F40: 73 74 63 02 80 20 00 21  00                       stc.. .!.       
```

#### Opcodes

```
  0: 0x0CFD [0x46] CAMERA_CONTROL: Disable user control
  1: 0x0CFF [0x42] SET_CLI_EVENT_CANCEL_DATA()
  2: 0x0D00 [0x45] LOAD_SCHEDULED_TASK: Load scheduler "fdo1" with entities [LocalPlayer, LocalPlayer], work=[200*, 0*]
  3: 0x0D11 [0x1C] WAIT(60* ticks)
  4: 0x0D14 [0x38] SET_CLIENT_EVENT_MODE(mode=19*)
  5: 0x0D17 [0x29] REQ_SET_WAIT(priority=0x08, entity_id=LocalPlayer, tag_num=0x06)
  6: 0x0D1E [0x75] LOAD_ROOM(Load indoor room, room=428*)
  7: 0x0D22 [0x75] LOAD_ROOM(No action)
  8: 0x0D24 [0x1C] WAIT(1* ticks)
  9: 0x0D27 [0x4E] SET_ENTITY_HIDE_FLAG: Show Star Sibyl (ID: 17768477/0x010F201D)
 10: 0x0D2D [0x4E] SET_ENTITY_HIDE_FLAG: Show Semih Lafihna (ID: 17768470/0x010F2016)
 11: 0x0D33 [0x80] LOAD_WAIT(entity=Star Sibyl (ID: 17768477/0x010F201D))
 12: 0x0D38 [0x80] LOAD_WAIT(entity=Semih Lafihna (ID: 17768470/0x010F2016))
 13: 0x0D3D [0x29] REQ_SET_WAIT(priority=0x0E, entity_id=LocalPlayer, tag_num=0x28)
 14: 0x0D44 [0x27] REQ_SET(priority=0x0B, entity_id=LocalPlayer, tag_num=0x29)
 15: 0x0D4B [0x45] LOAD_SCHEDULED_TASK: Load scheduler "s055" with entities [EventEntity, EventEntity], work=[142*, 0*]
 16: 0x0D5C [0x45] LOAD_SCHEDULED_TASK: Load scheduler "fdi1" with entities [LocalPlayer, LocalPlayer], work=[200*, 0*]
 17: 0x0D6D [0x4A] Semih Lafihna (ID: 17768470/0x010F2016) looks at LocalPlayer
 18: 0x0D76 [0x6F] WAIT_FRAME_DELAY: Yield until WaitTime reaches zero
 19: 0x0D77 [0x76] CHECK_ENTITY_RENDER_FLAGS: Wait until Semih Lafihna (ID: 17768470/0x010F2016) Render.Flags0 and Render.Flags3 conditions are met
 20: 0x0D7C [0x1C] WAIT(300* ticks)
 21: 0x0D7F [0x52] END_LOAD_SCHEDULER: End scheduler "s055" with entities [EventEntity, EventEntity], work=142*
 22: 0x0D8E [0x45] LOAD_SCHEDULED_TASK: Load scheduler "s059" with entities [EventEntity, EventEntity], work=[142*, 0*]
 23: 0x0D9F [0x4A] Semih Lafihna (ID: 17768470/0x010F2016) looks at LocalPlayer
 24: 0x0DA8 [0x4A] Rukususu (ID: 17768478/0x010F201E) looks at LocalPlayer
 25: 0x0DB1 [0x4A] Semih Lafihna (ID: 17768470/0x010F2016) looks at LocalPlayer
 26: 0x0DBA [0x4A] Rukususu (ID: 17768478/0x010F201E) looks at LocalPlayer
 27: 0x0DC3 [0x1C] WAIT(50* ticks)
 28: 0x0DC6 [0x2A] GET_REQ_LEVEL(level=11, entity_id=LocalPlayer)
 29: 0x0DCC [0x55] WAIT_LOAD_SCHEDULER: Wait for scheduler "s059" with entities [EventEntity, EventEntity], work=142*
 30: 0x0DDB [0x02] IF !(Work_Zone[8] == 8*) GOTO 0x0DF7
 31: 0x0DE3 [0x45] LOAD_SCHEDULED_TASK: Load scheduler "s105" with entities [EventEntity, EventEntity], work=[142*, 0*]
 32: 0x0DF4 [0x01] GOTO 0x0E08
 33: 0x0DF7 [0x45] LOAD_SCHEDULED_TASK: Load scheduler "s073" with entities [EventEntity, EventEntity], work=[142*, 0*]

SUBROUTINE_0E08:
 34: 0x0E08 [0x29] REQ_SET_WAIT(priority=0x0B, entity_id=Star Sibyl (ID: 17768477/0x010F201D), tag_num=0x47)
 35: 0x0E0F [0x27] REQ_SET(priority=0x0B, entity_id=Star Sibyl (ID: 17768477/0x010F201D), tag_num=0x1E)
 36: 0x0E16 [0x2B] Star Sibyl (ID: 17768477/0x010F201D) [427*]:
    → "What did you find in Fei'Yin? Was the seal..."
 37: 0x0E1D [0x23] WAIT_FOR_DIALOG_INTERACTION
 38: 0x0E1E [0x2A] GET_REQ_LEVEL(level=11, entity_id=Star Sibyl (ID: 17768477/0x010F201D))
 39: 0x0E24 [0x45] LOAD_SCHEDULED_TASK: Load scheduler "fdo1" with entities [LocalPlayer, LocalPlayer], work=[200*, 0*]
 40: 0x0E35 [0x1C] WAIT(60* ticks)
 41: 0x0E38 [0x1C] WAIT(100* ticks)
 42: 0x0E3B [0x29] REQ_SET_WAIT(priority=0x0B, entity_id=Star Sibyl (ID: 17768477/0x010F201D), tag_num=0x46)
 43: 0x0E42 [0x4A] Semih Lafihna (ID: 17768470/0x010F2016) looks at Star Sibyl (ID: 17768477/0x010F201D)
 44: 0x0E4B [0x6F] WAIT_FRAME_DELAY: Yield until WaitTime reaches zero
 45: 0x0E4C [0x76] CHECK_ENTITY_RENDER_FLAGS: Wait until Semih Lafihna (ID: 17768470/0x010F2016) Render.Flags0 and Render.Flags3 conditions are met
 46: 0x0E51 [0x45] LOAD_SCHEDULED_TASK: Load scheduler "s078" with entities [EventEntity, EventEntity], work=[142*, 0*]
 47: 0x0E62 [0x45] LOAD_SCHEDULED_TASK: Load scheduler "fdi1" with entities [LocalPlayer, LocalPlayer], work=[200*, 0*]
 48: 0x0E73 [0x29] REQ_SET_WAIT(priority=0x0B, entity_id=Star Sibyl (ID: 17768477/0x010F201D), tag_num=0x49)
 49: 0x0E7A [0x29] REQ_SET_WAIT(priority=0x0B, entity_id=Star Sibyl (ID: 17768477/0x010F201D), tag_num=0x4A)
 50: 0x0E81 [0x55] WAIT_LOAD_SCHEDULER: Wait for scheduler "s078" with entities [EventEntity, EventEntity], work=142*
 51: 0x0E90 [0x45] LOAD_SCHEDULED_TASK: Load scheduler "s079" with entities [EventEntity, EventEntity], work=[142*, 0*]
 52: 0x0EA1 [0x29] REQ_SET_WAIT(priority=0x0B, entity_id=Semih Lafihna (ID: 17768470/0x010F2016), tag_num=0x68)
 53: 0x0EA8 [0x4A] Star Sibyl (ID: 17768477/0x010F201D) looks at Semih Lafihna (ID: 17768470/0x010F2016)
 54: 0x0EB1 [0x6F] WAIT_FRAME_DELAY: Yield until WaitTime reaches zero
 55: 0x0EB2 [0x76] CHECK_ENTITY_RENDER_FLAGS: Wait until Star Sibyl (ID: 17768477/0x010F201D) Render.Flags0 and Render.Flags3 conditions are met
 56: 0x0EB7 [0x29] REQ_SET_WAIT(priority=0x0B, entity_id=Star Sibyl (ID: 17768477/0x010F201D), tag_num=0x4B)
 57: 0x0EBE [0x45] LOAD_SCHEDULED_TASK: Load scheduler "s076" with entities [EventEntity, EventEntity], work=[142*, 0*]
 58: 0x0ECF [0x4A] Star Sibyl (ID: 17768477/0x010F201D) looks at LocalPlayer
 59: 0x0ED8 [0x7B] Star Sibyl (ID: 17768477/0x010F201D) stops talking
 60: 0x0EDD [0x29] REQ_SET_WAIT(priority=0x0B, entity_id=Star Sibyl (ID: 17768477/0x010F201D), tag_num=0x4C)
 61: 0x0EE4 [0x45] LOAD_SCHEDULED_TASK: Load scheduler "fdo1" with entities [EventEntity, EventEntity], work=[200*, 0*]
 62: 0x0EF5 [0x1C] WAIT(60* ticks)
 63: 0x0EF8 [0x4E] SET_ENTITY_HIDE_FLAG: Show LocalPlayer
 64: 0x0EFE [0x29] REQ_SET_WAIT(priority=0x0B, entity_id=LocalPlayer, tag_num=0x21)
 65: 0x0F05 [0x46] CAMERA_CONTROL: Restore default settings
 66: 0x0F07 [0x02] IF !(Work_Zone[7] == 1*) GOTO 0x0F1A
 67: 0x0F0F [0x75] LOAD_ROOM(Load indoor room, room=426*)
 68: 0x0F13 [0x75] LOAD_ROOM(No action)
 69: 0x0F15 [0x75] LOAD_ROOM(Change sub-map, room=0x2001)
 70: 0x0F19 [0x0F] 0x75 ^= 427*
 71: 0x0F1E [0x75] LOAD_ROOM(No action)
 72: 0x0F20 [0x1C] WAIT(200* ticks)
 73: 0x0F23 [0x45] LOAD_SCHEDULED_TASK: Load scheduler "fdi1" with entities [EventEntity, EventEntity], work=[200*, 0*]
 74: 0x0F34 [0x45] LOAD_SCHEDULED_TASK: Load scheduler "qstc" with entities [LocalPlayer, LocalPlayer], work=[201*, 0*]
 75: 0x0F45 [0x20] SET_CLI_EVENT_UC_FLAG: Unlock player control
 76: 0x0F47 [0x21] END_EVENT
 77: 0x0F48 [0x00] END_REQSTACK()
```

### Event 214

#### Metadata

| Field        | Value     |
|--------------|-----------|
| Entrypoint   | 0x0F49    |
| Data Size    | 475 bytes |
| Instructions | 64        |

```
      00 01 02 03 04 05 06 07  08 09 0A 0B 0C 0D 0E 0F
      -- -- -- -- -- -- -- --  -- -- -- -- -- -- -- --
0F40:                             46 01 42 45 01 80 F0           F.BE...
0F50: FF FF 7F F0 FF FF 7F 66  64 6F 31 02 80 1C 03 80  .......fdo1.....
0F60: 38 04 80 75 00 05 80 75  01 1C 06 80 4E 00 1D 20  8..u...u....N.. 
0F70: 0F 01 80 1D 20 0F 01 29  0E F0 FF FF 7F 28 27 0B  .... ..).....('.
0F80: F0 FF FF 7F 29 45 07 80  F8 FF FF 7F F8 FF FF 7F  ....)E..........
0F90: 73 30 35 35 02 80 45 01  80 F0 FF FF 7F F0 FF FF  s055..E.........
0FA0: 7F 66 64 69 31 02 80 4A  16 20 0F 01 F0 FF FF 7F  .fdi1..J. ......
0FB0: 6F 76 16 20 0F 01 1C 13  80 52 07 80 F8 FF FF 7F  ov. .....R......
0FC0: F8 FF FF 7F 73 30 35 35  45 07 80 F8 FF FF 7F F8  ....s055E.......
0FD0: FF FF 7F 73 30 35 39 02  80 4A 16 20 0F 01 F0 FF  ...s059..J. ....
0FE0: FF 7F 4A 1E 20 0F 01 F0  FF FF 7F 4A 16 20 0F 01  ..J. ......J. ..
0FF0: F0 FF FF 7F 4A 1E 20 0F  01 F0 FF FF 7F 2A 0B F0  ....J. ......*..
1000: FF FF 7F 52 07 80 F8 FF  FF 7F F8 FF FF 7F 73 30  ...R..........s0
1010: 35 39 45 07 80 F8 FF FF  7F F8 FF FF 7F 73 30 37  59E..........s07
1020: 34 02 80 27 0B 1D 20 0F  01 1E 2B 1D 20 0F 01 1B  4..'.. ...+. ...
1030: 80 23 2A 0B 1D 20 0F 01  29 0B 1D 20 0F 01 4F 52  .#*.. ..).. ..OR
1040: 07 80 F8 FF FF 7F F8 FF  FF 7F 73 30 37 34 45 07  ..........s074E.
1050: 80 F8 FF FF 7F F8 FF FF  7F 73 30 37 35 02 80 27  .........s075..'
1060: 0B 1D 20 0F 01 1F 2B 1D  20 0F 01 1C 80 23 2A 0B  .. ...+. ....#*.
1070: 1D 20 0F 01 29 0B 1D 20  0F 01 51 45 07 80 F8 FF  . ..).. ..QE....
1080: FF 7F F8 FF FF 7F 73 30  37 36 02 80 4A 1D 20 0F  ......s076..J. .
1090: 01 F0 FF FF 7F 6F 76 1D  20 0F 01 29 0B 1D 20 0F  .....ov. ..).. .
10A0: 01 52 29 0B 1D 20 0F 01  53 45 07 80 F8 FF FF 7F  .R).. ..SE......
10B0: F8 FF FF 7F 73 30 37 37  02 80 29 0B 1D 20 0F 01  ....s077..).. ..
10C0: 54 52 07 80 F8 FF FF 7F  F8 FF FF 7F 73 30 37 37  TR..........s077
10D0: 45 01 80 F8 FF FF 7F F8  FF FF 7F 66 64 6F 31 02  E..........fdo1.
10E0: 80 1C 03 80 4E 00 F0 FF  FF 7F 29 0B F0 FF FF 7F  ....N.....).....
10F0: 21 46 00 02 07 10 06 80  00 06 11 75 00 10 80 75  !F.........u...u
1100: 01 75 02 01 0C 11 75 00  11 80 75 01 1C 01 80 45  .u....u...u....E
1110: 01 80 F8 FF FF 7F F8 FF  FF 7F 66 64 69 31 02 80  ..........fdi1..
1120: 20 00 21 00                                        .!.            
```

#### Opcodes

```
  0: 0x0F49 [0x46] CAMERA_CONTROL: Disable user control
  1: 0x0F4B [0x42] SET_CLI_EVENT_CANCEL_DATA()
  2: 0x0F4C [0x45] LOAD_SCHEDULED_TASK: Load scheduler "fdo1" with entities [LocalPlayer, LocalPlayer], work=[200*, 0*]
  3: 0x0F5D [0x1C] WAIT(60* ticks)
  4: 0x0F60 [0x38] SET_CLIENT_EVENT_MODE(mode=3*)
  5: 0x0F63 [0x75] LOAD_ROOM(Load indoor room, room=428*)
  6: 0x0F67 [0x75] LOAD_ROOM(No action)
  7: 0x0F69 [0x1C] WAIT(1* ticks)
  8: 0x0F6C [0x4E] SET_ENTITY_HIDE_FLAG: Show Star Sibyl (ID: 17768477/0x010F201D)
  9: 0x0F72 [0x80] LOAD_WAIT(entity=Star Sibyl (ID: 17768477/0x010F201D))
 10: 0x0F77 [0x29] REQ_SET_WAIT(priority=0x0E, entity_id=LocalPlayer, tag_num=0x28)
 11: 0x0F7E [0x27] REQ_SET(priority=0x0B, entity_id=LocalPlayer, tag_num=0x29)
 12: 0x0F85 [0x45] LOAD_SCHEDULED_TASK: Load scheduler "s055" with entities [EventEntity, EventEntity], work=[142*, 0*]
 13: 0x0F96 [0x45] LOAD_SCHEDULED_TASK: Load scheduler "fdi1" with entities [LocalPlayer, LocalPlayer], work=[200*, 0*]
 14: 0x0FA7 [0x4A] Semih Lafihna (ID: 17768470/0x010F2016) looks at LocalPlayer
 15: 0x0FB0 [0x6F] WAIT_FRAME_DELAY: Yield until WaitTime reaches zero
 16: 0x0FB1 [0x76] CHECK_ENTITY_RENDER_FLAGS: Wait until Semih Lafihna (ID: 17768470/0x010F2016) Render.Flags0 and Render.Flags3 conditions are met
 17: 0x0FB6 [0x1C] WAIT(300* ticks)
 18: 0x0FB9 [0x52] END_LOAD_SCHEDULER: End scheduler "s055" with entities [EventEntity, EventEntity], work=142*
 19: 0x0FC8 [0x45] LOAD_SCHEDULED_TASK: Load scheduler "s059" with entities [EventEntity, EventEntity], work=[142*, 0*]
 20: 0x0FD9 [0x4A] Semih Lafihna (ID: 17768470/0x010F2016) looks at LocalPlayer
 21: 0x0FE2 [0x4A] Rukususu (ID: 17768478/0x010F201E) looks at LocalPlayer
 22: 0x0FEB [0x4A] Semih Lafihna (ID: 17768470/0x010F2016) looks at LocalPlayer
 23: 0x0FF4 [0x4A] Rukususu (ID: 17768478/0x010F201E) looks at LocalPlayer
 24: 0x0FFD [0x2A] GET_REQ_LEVEL(level=11, entity_id=LocalPlayer)
 25: 0x1003 [0x52] END_LOAD_SCHEDULER: End scheduler "s059" with entities [EventEntity, EventEntity], work=142*
 26: 0x1012 [0x45] LOAD_SCHEDULED_TASK: Load scheduler "s074" with entities [EventEntity, EventEntity], work=[142*, 0*]
 27: 0x1023 [0x27] REQ_SET(priority=0x0B, entity_id=Star Sibyl (ID: 17768477/0x010F201D), tag_num=0x1E)
 28: 0x102A [0x2B] Star Sibyl (ID: 17768477/0x010F201D) [474*]:
    → "I have been awaiting your return, <Player>."
 29: 0x1031 [0x23] WAIT_FOR_DIALOG_INTERACTION
 30: 0x1032 [0x2A] GET_REQ_LEVEL(level=11, entity_id=Star Sibyl (ID: 17768477/0x010F201D))
 31: 0x1038 [0x29] REQ_SET_WAIT(priority=0x0B, entity_id=Star Sibyl (ID: 17768477/0x010F201D), tag_num=0x4F)
 32: 0x103F [0x52] END_LOAD_SCHEDULER: End scheduler "s074" with entities [EventEntity, EventEntity], work=142*
 33: 0x104E [0x45] LOAD_SCHEDULED_TASK: Load scheduler "s075" with entities [EventEntity, EventEntity], work=[142*, 0*]
 34: 0x105F [0x27] REQ_SET(priority=0x0B, entity_id=Star Sibyl (ID: 17768477/0x010F201D), tag_num=0x1F)
 35: 0x1066 [0x2B] Star Sibyl (ID: 17768477/0x010F201D) [476*]:
    → "There are still too many unanswered questions. Any action now would erase what we have worked so hard to build with the Yagudo."
 36: 0x106D [0x23] WAIT_FOR_DIALOG_INTERACTION
 37: 0x106E [0x2A] GET_REQ_LEVEL(level=11, entity_id=Star Sibyl (ID: 17768477/0x010F201D))
 38: 0x1074 [0x29] REQ_SET_WAIT(priority=0x0B, entity_id=Star Sibyl (ID: 17768477/0x010F201D), tag_num=0x51)
 39: 0x107B [0x45] LOAD_SCHEDULED_TASK: Load scheduler "s076" with entities [EventEntity, EventEntity], work=[142*, 0*]
 40: 0x108C [0x4A] Star Sibyl (ID: 17768477/0x010F201D) looks at LocalPlayer
 41: 0x1095 [0x6F] WAIT_FRAME_DELAY: Yield until WaitTime reaches zero
 42: 0x1096 [0x76] CHECK_ENTITY_RENDER_FLAGS: Wait until Star Sibyl (ID: 17768477/0x010F201D) Render.Flags0 and Render.Flags3 conditions are met
 43: 0x109B [0x29] REQ_SET_WAIT(priority=0x0B, entity_id=Star Sibyl (ID: 17768477/0x010F201D), tag_num=0x52)
 44: 0x10A2 [0x29] REQ_SET_WAIT(priority=0x0B, entity_id=Star Sibyl (ID: 17768477/0x010F201D), tag_num=0x53)
 45: 0x10A9 [0x45] LOAD_SCHEDULED_TASK: Load scheduler "s077" with entities [EventEntity, EventEntity], work=[142*, 0*]
 46: 0x10BA [0x29] REQ_SET_WAIT(priority=0x0B, entity_id=Star Sibyl (ID: 17768477/0x010F201D), tag_num=0x54)
 47: 0x10C1 [0x52] END_LOAD_SCHEDULER: End scheduler "s077" with entities [EventEntity, EventEntity], work=142*
 48: 0x10D0 [0x45] LOAD_SCHEDULED_TASK: Load scheduler "fdo1" with entities [EventEntity, EventEntity], work=[200*, 0*]
 49: 0x10E1 [0x1C] WAIT(60* ticks)
 50: 0x10E4 [0x4E] SET_ENTITY_HIDE_FLAG: Show LocalPlayer
 51: 0x10EA [0x29] REQ_SET_WAIT(priority=0x0B, entity_id=LocalPlayer, tag_num=0x21)
 52: 0x10F1 [0x46] CAMERA_CONTROL: Restore default settings
 53: 0x10F3 [0x02] IF !(Work_Zone[7] == 1*) GOTO 0x1106
 54: 0x10FB [0x75] LOAD_ROOM(Load indoor room, room=426*)
 55: 0x10FF [0x75] LOAD_ROOM(No action)
 56: 0x1101 [0x75] LOAD_ROOM(Change sub-map, room=0x0C01)
 57: 0x1105 [0x11] 0x75 >>= 427*
 58: 0x110A [0x75] LOAD_ROOM(No action)
 59: 0x110C [0x1C] WAIT(200* ticks)
 60: 0x110F [0x45] LOAD_SCHEDULED_TASK: Load scheduler "fdi1" with entities [EventEntity, EventEntity], work=[200*, 0*]
 61: 0x1120 [0x20] SET_CLI_EVENT_UC_FLAG: Unlock player control
 62: 0x1122 [0x21] END_EVENT
 63: 0x1123 [0x00] END_REQSTACK()
```

### Event 216

#### Metadata

| Field        | Value     |
|--------------|-----------|
| Entrypoint   | 0x1124    |
| Data Size    | 354 bytes |
| Instructions | 41        |

```
      00 01 02 03 04 05 06 07  08 09 0A 0B 0C 0D 0E 0F
      -- -- -- -- -- -- -- --  -- -- -- -- -- -- -- --
1120:             46 01 42 45  01 80 F0 FF FF 7F F0 FF      F.BE........
1130: FF 7F 66 64 6F 31 02 80  1C 03 80 38 04 80 75 00  ..fdo1.....8..u.
1140: 05 80 75 01 1C 06 80 4E  00 1D 20 0F 01 80 1D 20  ..u....N.. .... 
1150: 0F 01 29 0E F0 FF FF 7F  28 27 0B F0 FF FF 7F 29  ..).....('.....)
1160: 45 07 80 F8 FF FF 7F F8  FF FF 7F 73 30 35 35 02  E..........s055.
1170: 80 45 01 80 F0 FF FF 7F  F0 FF FF 7F 66 64 69 31  .E..........fdi1
1180: 02 80 1C 13 80 52 07 80  F8 FF FF 7F F8 FF FF 7F  .....R..........
1190: 73 30 35 35 45 07 80 F8  FF FF 7F F8 FF FF 7F 73  s055E..........s
11A0: 30 35 39 02 80 2A 0B F0  FF FF 7F 4A 1D 20 0F 01  059..*.....J. ..
11B0: F0 FF FF 7F 55 07 80 F8  FF FF 7F F8 FF FF 7F 73  ....U..........s
11C0: 30 35 39 45 07 80 F8 FF  FF 7F F8 FF FF 7F 73 30  059E..........s0
11D0: 37 34 02 80 6F 76 1D 20  0F 01 29 0B 1D 20 0F 01  74..ov. ..).. ..
11E0: 5A 29 0B 1D 20 0F 01 5B  52 07 80 F8 FF FF 7F F8  Z).. ..[R.......
11F0: FF FF 7F 73 30 37 34 45  07 80 F8 FF FF 7F F8 FF  ...s074E........
1200: FF 7F 73 30 38 30 02 80  29 0B 1D 20 0F 01 5C 45  ..s080..).. ..\E
1210: 01 80 F8 FF FF 7F F8 FF  FF 7F 66 64 6F 31 02 80  ..........fdo1..
1220: 1C 03 80 4E 00 F0 FF FF  7F 29 0B F0 FF FF 7F 21  ...N.....).....!
1230: 52 07 80 F8 FF FF 7F F8  FF FF 7F 73 30 38 30 02  R..........s080.
1240: 07 10 06 80 00 52 12 75  00 10 80 75 01 75 02 01  .....R.u...u.u..
1250: 58 12 75 00 11 80 75 01  1C 01 80 46 00 45 01 80  X.u...u....F.E..
1260: F8 FF FF 7F F8 FF FF 7F  66 64 69 31 02 80 45 1A  ........fdi1..E.
1270: 80 F0 FF FF 7F F0 FF FF  7F 71 73 74 63 02 80 7D  .........qstc..}
1280: 1D 80 20 00 21 00                                 .. .!.          
```

#### Opcodes

```
  0: 0x1124 [0x46] CAMERA_CONTROL: Disable user control
  1: 0x1126 [0x42] SET_CLI_EVENT_CANCEL_DATA()
  2: 0x1127 [0x45] LOAD_SCHEDULED_TASK: Load scheduler "fdo1" with entities [LocalPlayer, LocalPlayer], work=[200*, 0*]
  3: 0x1138 [0x1C] WAIT(60* ticks)
  4: 0x113B [0x38] SET_CLIENT_EVENT_MODE(mode=3*)
  5: 0x113E [0x75] LOAD_ROOM(Load indoor room, room=428*)
  6: 0x1142 [0x75] LOAD_ROOM(No action)
  7: 0x1144 [0x1C] WAIT(1* ticks)
  8: 0x1147 [0x4E] SET_ENTITY_HIDE_FLAG: Show Star Sibyl (ID: 17768477/0x010F201D)
  9: 0x114D [0x80] LOAD_WAIT(entity=Star Sibyl (ID: 17768477/0x010F201D))
 10: 0x1152 [0x29] REQ_SET_WAIT(priority=0x0E, entity_id=LocalPlayer, tag_num=0x28)
 11: 0x1159 [0x27] REQ_SET(priority=0x0B, entity_id=LocalPlayer, tag_num=0x29)
 12: 0x1160 [0x45] LOAD_SCHEDULED_TASK: Load scheduler "s055" with entities [EventEntity, EventEntity], work=[142*, 0*]
 13: 0x1171 [0x45] LOAD_SCHEDULED_TASK: Load scheduler "fdi1" with entities [LocalPlayer, LocalPlayer], work=[200*, 0*]
 14: 0x1182 [0x1C] WAIT(300* ticks)
 15: 0x1185 [0x52] END_LOAD_SCHEDULER: End scheduler "s055" with entities [EventEntity, EventEntity], work=142*
 16: 0x1194 [0x45] LOAD_SCHEDULED_TASK: Load scheduler "s059" with entities [EventEntity, EventEntity], work=[142*, 0*]
 17: 0x11A5 [0x2A] GET_REQ_LEVEL(level=11, entity_id=LocalPlayer)
 18: 0x11AB [0x4A] Star Sibyl (ID: 17768477/0x010F201D) looks at LocalPlayer
 19: 0x11B4 [0x55] WAIT_LOAD_SCHEDULER: Wait for scheduler "s059" with entities [EventEntity, EventEntity], work=142*
 20: 0x11C3 [0x45] LOAD_SCHEDULED_TASK: Load scheduler "s074" with entities [EventEntity, EventEntity], work=[142*, 0*]
 21: 0x11D4 [0x6F] WAIT_FRAME_DELAY: Yield until WaitTime reaches zero
 22: 0x11D5 [0x76] CHECK_ENTITY_RENDER_FLAGS: Wait until Star Sibyl (ID: 17768477/0x010F201D) Render.Flags0 and Render.Flags3 conditions are met
 23: 0x11DA [0x29] REQ_SET_WAIT(priority=0x0B, entity_id=Star Sibyl (ID: 17768477/0x010F201D), tag_num=0x5A)
 24: 0x11E1 [0x29] REQ_SET_WAIT(priority=0x0B, entity_id=Star Sibyl (ID: 17768477/0x010F201D), tag_num=0x5B)
 25: 0x11E8 [0x52] END_LOAD_SCHEDULER: End scheduler "s074" with entities [EventEntity, EventEntity], work=142*
 26: 0x11F7 [0x45] LOAD_SCHEDULED_TASK: Load scheduler "s080" with entities [EventEntity, EventEntity], work=[142*, 0*]
 27: 0x1208 [0x29] REQ_SET_WAIT(priority=0x0B, entity_id=Star Sibyl (ID: 17768477/0x010F201D), tag_num=0x5C)
 28: 0x120F [0x45] LOAD_SCHEDULED_TASK: Load scheduler "fdo1" with entities [EventEntity, EventEntity], work=[200*, 0*]
 29: 0x1220 [0x1C] WAIT(60* ticks)
 30: 0x1223 [0x4E] SET_ENTITY_HIDE_FLAG: Show LocalPlayer
 31: 0x1229 [0x29] REQ_SET_WAIT(priority=0x0B, entity_id=LocalPlayer, tag_num=0x21)
 32: 0x1230 [0x52] END_LOAD_SCHEDULER: End scheduler "s080" with entities [EventEntity, EventEntity], work=142*
 33: 0x123F [0x02] IF !(Work_Zone[7] == 1*) GOTO 0x1252
 34: 0x1247 [0x75] LOAD_ROOM(Load indoor room, room=426*)
 35: 0x124B [0x75] LOAD_ROOM(No action)
 36: 0x124D [0x75] LOAD_ROOM(Change sub-map, room=0x5801)
 37: 0x1251 [0x12] 0x75 = rand()
 38: 0x1254 [0x11] 0x7580 >>= 0x1C01
 39: 0x1259 [0x01] GOTO 0x4680
 40: 0x125C [0x00] END_REQSTACK()
```

#### Data or dead code:

```
# Dead code (unreachable instructions):
     0x125D [0x45] LOAD_SCHEDULED_TASK: Load scheduler "fdi1" with entities [EventEntity, EventEntity], work=[200*, 0*]
     0x126E [0x45] LOAD_SCHEDULED_TASK: Load scheduler "qstc" with entities [LocalPlayer, LocalPlayer], work=[201*, 0*]
     0x127F [0x7D] LOAD_START_SCHEDULER_PLAYER: Load scheduler with animation_id 32797
     0x1282 [0x20] SET_CLI_EVENT_UC_FLAG: Unlock player control
     0x1284 [0x21] END_EVENT
     0x1285 [0x00] END_REQSTACK()
```

### Event 310

#### Metadata

| Field        | Value      |
|--------------|------------|
| Entrypoint   | 0x1286     |
| Data Size    | 1418 bytes |
| Instructions | 171        |

```
      00 01 02 03 04 05 06 07  08 09 0A 0B 0C 0D 0E 0F
      -- -- -- -- -- -- -- --  -- -- -- -- -- -- -- --
1280:                   46 01  42 5D 02 80 01 80 45 01        F.B]....E.
1290: 80 F0 FF FF 7F F0 FF FF  7F 66 64 6F 31 02 80 55  .........fdo1..U
12A0: 01 80 F0 FF FF 7F F0 FF  FF 7F 66 64 6F 30 38 04  ..........fdo08.
12B0: 80 29 08 F0 FF FF 7F 06  29 0B 1D 20 0F 01 66 75  .)......).. ..fu
12C0: 00 05 80 75 01 1C 06 80  4E 00 5F 20 0F 01 4E 00  ...u....N._ ..N.
12D0: 1D 20 0F 01 80 5F 20 0F  01 80 1D 20 0F 01 1C 01  . ..._ .... ....
12E0: 80 5C 00 1E 80 5C 01 1E  80 5D 1F 80 06 80 29 0E  .\...\...]....).
12F0: F0 FF FF 7F 28 2B 1D 20  0F 01 20 80 23 45 21 80  ....(+. .. .#E!.
1300: F8 FF FF 7F F8 FF FF 7F  73 30 30 30 02 80 45 01  ........s000..E.
1310: 80 F0 FF FF 7F F0 FF FF  7F 66 64 69 31 02 80 29  .........fdi1..)
1320: 0B 1D 20 0F 01 6A 52 21  80 F8 FF FF 7F F8 FF FF  .. ..jR!........
1330: 7F 73 30 30 30 45 21 80  F8 FF FF 7F F8 FF FF 7F  .s000E!.........
1340: 73 30 30 31 02 80 29 0B  5F 20 0F 01 1E 52 21 80  s001..)._ ...R!.
1350: F8 FF FF 7F F8 FF FF 7F  73 30 30 31 45 21 80 F8  ........s001E!..
1360: FF FF 7F F8 FF FF 7F 73  30 30 32 02 80 79 00 5F  .......s002..y._
1370: 20 0F 01 1D 20 0F 01 27  0B 1D 20 0F 01 68 2B 1D   ... ..'.. ..h+.
1380: 20 0F 01 22 80 23 2A 0B  1D 20 0F 01 29 08 1D 20   ..".#*.. ..).. 
1390: 0F 01 05 29 0B 1D 20 0F  01 6B 52 21 80 F8 FF FF  ...).. ..kR!....
13A0: 7F F8 FF FF 7F 73 30 30  32 45 21 80 F8 FF FF 7F  .....s002E!.....
13B0: F8 FF FF 7F 73 30 30 33  02 80 27 08 1D 20 0F 01  ....s003..'.. ..
13C0: 06 29 0B 5F 20 0F 01 1F  2A 08 1D 20 0F 01 52 21  .)._ ...*.. ..R!
13D0: 80 F8 FF FF 7F F8 FF FF  7F 73 30 30 33 45 21 80  .........s003E!.
13E0: F8 FF FF 7F F8 FF FF 7F  73 30 30 34 02 80 7B 5F  ........s004..{_
13F0: 20 0F 01 27 0B 5F 20 0F  01 1D 4A 1D 20 0F 01 5F   ..'._ ...J. .._
1400: 20 0F 01 29 0B F0 FF FF  7F 3D 4A F0 FF FF 7F 5F   ..).....=J...._
1410: 20 0F 01 1C 03 80 4A F0  FF FF 7F 5F 20 0F 01 1C   .....J...._ ...
1420: 03 80 4A F0 FF FF 7F 5F  20 0F 01 52 21 80 F8 FF  ..J...._ ..R!...
1430: FF 7F F8 FF FF 7F 73 30  30 34 5D 02 80 01 80 45  ......s004]....E
1440: 21 80 F8 FF FF 7F F8 FF  FF 7F 73 30 30 35 02 80  !.........s005..
1450: 2B 1D 20 0F 01 23 80 23  1C 08 80 79 00 F0 FF FF  +. ..#.#...y....
1460: 7F 1D 20 0F 01 1C 0B 80  45 01 80 F0 FF FF 7F F0  .. .....E.......
1470: FF FF 7F 66 64 6F 31 02  80 1C 08 80 5C 00 1F 80  ...fdo1.....\...
1480: 5C 01 1F 80 5D 1F 80 06  80 29 0B F0 FF FF 7F 3C  \...]....).....<
1490: 4A F0 FF FF 7F 1D 20 0F  01 4A 1D 20 0F 01 F0 FF  J..... ..J. ....
14A0: FF 7F 6F 76 F0 FF FF 7F  6F 76 1D 20 0F 01 1C 08  ..ov....ov. ....
14B0: 80 52 21 80 F8 FF FF 7F  F8 FF FF 7F 73 30 30 35  .R!.........s005
14C0: 02 08 10 04 80 00 DC 14  45 21 80 F8 FF FF 7F F8  ........E!......
14D0: FF FF 7F 73 30 31 37 02  80 01 09 15 02 08 10 16  ...s017.........
14E0: 80 00 F8 14 45 21 80 F8  FF FF 7F F8 FF FF 7F 73  ....E!.........s
14F0: 30 31 37 02 80 01 09 15  45 21 80 F8 FF FF 7F F8  017.....E!......
1500: FF FF 7F 73 30 30 36 02  80 45 01 80 F0 FF FF 7F  ...s006..E......
1510: F0 FF FF 7F 66 64 69 31  02 80 02 08 10 04 80 00  ....fdi1........
1520: 34 15 55 21 80 F8 FF FF  7F F8 FF FF 7F 73 30 31  4.U!.........s01
1530: 37 01 5D 15 02 08 10 16  80 00 4E 15 55 21 80 F8  7.].......N.U!..
1540: FF FF 7F F8 FF FF 7F 73  30 31 37 01 5D 15 55 21  .......s017.].U!
1550: 80 F8 FF FF 7F F8 FF FF  7F 73 30 30 36 29 0B 1D  .........s006)..
1560: 20 0F 01 6C 45 01 80 F0  FF FF 7F F0 FF FF 7F 6F   ..lE..........o
1570: 76 6C 31 02 80 45 21 80  F8 FF FF 7F F8 FF FF 7F  vl1..E!.........
1580: 73 30 31 31 02 80 2B 1D  20 0F 01 24 80 23 24 25  s011..+. ..$.#$%
1590: 80 02 80 02 80 25 02 00  10 02 80 00 CD 15 03 01  .....%..........
15A0: 10 02 80 52 21 80 F8 FF  FF 7F F8 FF FF 7F 73 30  ...R!.........s0
15B0: 31 31 45 21 80 F8 FF FF  7F F8 FF FF 7F 73 30 30  11E!.........s00
15C0: 37 02 80 29 0B 1D 20 0F  01 6D 01 04 16 02 00 10  7..).. ..m......
15D0: 06 80 00 04 16 03 01 10  06 80 52 21 80 F8 FF FF  ..........R!....
15E0: 7F F8 FF FF 7F 73 30 31  31 45 21 80 F8 FF FF 7F  .....s011E!.....
15F0: F8 FF FF 7F 73 30 30 37  02 80 29 0B 1D 20 0F 01  ....s007..).. ..
1600: 6E 01 04 16 52 21 80 F8  FF FF 7F F8 FF FF 7F 73  n...R!.........s
1610: 30 30 37 45 21 80 F8 FF  FF 7F F8 FF FF 7F 73 30  007E!.........s0
1620: 30 38 02 80 29 0B 1D 20  0F 01 6F 29 0B 1D 20 0F  08..).. ..o).. .
1630: 01 70 52 21 80 F8 FF FF  7F F8 FF FF 7F 73 30 30  .pR!.........s00
1640: 38 45 21 80 F8 FF FF 7F  F8 FF FF 7F 73 30 30 39  8E!.........s009
1650: 02 80 7B 1D 20 0F 01 27  0B 1D 20 0F 01 69 2B 1D  ..{. ..'.. ..i+.
1660: 20 0F 01 26 80 23 2B 1D  20 0F 01 27 80 23 2A 0B   ..&.#+. ..'.#*.
1670: 1D 20 0F 01 52 21 80 F8  FF FF 7F F8 FF FF 7F 73  . ..R!.........s
1680: 30 30 39 45 21 80 F8 FF  FF 7F F8 FF FF 7F 73 30  009E!.........s0
1690: 31 30 02 80 29 0B 1D 20  0F 01 72 52 21 80 F8 FF  10..).. ..rR!...
16A0: FF 7F F8 FF FF 7F 73 30  31 30 45 21 80 F8 FF FF  ......s010E!....
16B0: 7F F8 FF FF 7F 73 30 31  35 02 80 29 0B 1D 20 0F  .....s015..).. .
