# 17768474 - Rakano-Marukano

## Common Data

| Field            | Value                   |
|------------------|-------------------------|
| Zone             | Heavens Tower (ID: 242) |
| Block Size       | 748 bytes               |
| Total Events     | 27                      |
| References Count | 31                      |

## List of Events

| Event ID                   | Entrypoint   |   Size |   Instructions |
|----------------------------|--------------|--------|----------------|
| [65535](#event-65535)      | 0x0000       |      1 |              1 |
| [10002](#event-10002)      | 0x0001       |    287 |             76 |
| [10003](#event-10003)      | 0x0120       |     13 |              6 |
| [10004](#event-10004)      | 0x012D       |     13 |              6 |
| [10005](#event-10005)      | 0x013A       |     13 |              6 |
| [429](#event-429)          | 0x0147       |      1 |              1 |
| [430](#event-430)          | 0x0148       |      1 |              1 |
| [435](#event-435)          | 0x0149       |      1 |              1 |
| [439](#event-439)          | 0x014A       |      1 |              1 |
| [65535.1](#event-655351)   | 0x014B       |     16 |              2 |
| [65535.2](#event-655352)   | 0x015B       |     14 |              2 |
| [440](#event-440)          | 0x0169       |      1 |              1 |
| [441](#event-441)          | 0x016A       |      1 |              1 |
| [448](#event-448)          | 0x016B       |      1 |              1 |
| [449](#event-449)          | 0x016C       |      1 |              1 |
| [65535.3](#event-655353)   | 0x016D       |     16 |              2 |
| [65535.4](#event-655354)   | 0x017D       |     22 |              4 |
| [65535.5](#event-655355)   | 0x0193       |     16 |              2 |
| [65535.6](#event-655356)   | 0x01A3       |     14 |              2 |
| [65535.7](#event-655357)   | 0x01B1       |     16 |              2 |
| [65535.8](#event-655358)   | 0x01C1       |     14 |              2 |
| [65535.9](#event-655359)   | 0x01CF       |     16 |              2 |
| [65535.10](#event-6553510) | 0x01DF       |     14 |              2 |
| [454](#event-454)          | 0x01ED       |      1 |              1 |
| [455](#event-455)          | 0x01EE       |      1 |              1 |
| [460](#event-460)          | 0x01EF       |      1 |              1 |
| [462](#event-462)          | 0x01F0       |      1 |              1 |

## DAT References (imed_data)

|   Index | Hex Value   |   Dec Value |
|---------|-------------|-------------|
|       0 | 0x1CC3      |        7363 |
|       1 | 0x1CC4      |        7364 |
|       2 | 0x0001      |           1 |
|       3 | 0x0000      |           0 |
|       4 | 0x1CC6      |        7366 |
|       5 | 0x1CC7      |        7367 |
|       6 | 0x1CC8      |        7368 |
|       7 | 0x1CC9      |        7369 |
|       8 | 0x1CCA      |        7370 |
|       9 | 0x1CCB      |        7371 |
|      10 | 0x1CCD      |        7373 |
|      11 | 0x1CCE      |        7374 |
|      12 | 0x1BE3      |        7139 |
|      13 | 0x1CCF      |        7375 |
|      14 | 0x1CD0      |        7376 |
|      15 | 0x1CD2      |        7378 |
|      16 | 0x1CD3      |        7379 |
|      17 | 0x1CD4      |        7380 |
|      18 | 0x00FD      |         253 |
|      19 | 0x00C8      |         200 |
|      20 | 0x0078      |         120 |
|      21 | 0x1CD5      |        7381 |
|      22 | 0x1CD1      |        7377 |
|      23 | 0x1CC5      |        7365 |
|      24 | 0x1CD7      |        7383 |
|      25 | 0x1CD6      |        7382 |
|      26 | 0x1CD8      |        7384 |
|      27 | 0x0028      |          40 |
|      28 | 0x001E      |          30 |
|      29 | 0x0029      |          41 |
|      30 | 0x002A      |          42 |

## String References

- **7139**: You do not have enough gil.
- **7363**: Welcome to [San d'Oria/Bastok/Windurst]. Do you wish to change your allegiance from your current one to [San d'Oria/Bastok/Windurst]?
- **7364**: Ask about changing your allegiance? [Yes./No.]
- **7365**: Then, good journey, [sir/miss].
- **7366**: You can apply here to change your allegiance to [San d'Oria/Bastok/Windurst].
- **7367**: We will have to seal away some of your memories as an international security measure. Those memories will be unsealed should you change your allegiance back to your former country.
- **7368**: Incidentally, if this is your first time changing your allegiance, you will have to start over from rank 1 in your new nation.
- **7369**: Your rank in your former nation is still kept, so if you change your allegiance back you will return to your previous rank.
- **7370**: In addition, you will retain your current conquest points as well as any records of your expeditionary force quests. Oh, and you will be required to pay a processing fee of $5 gil along with your application for transfer.
- **7371**: You will also retain your current rank in [San d'Oria/Bastok/Windurst], which is presently rank $2.
- **7373**: Do you still wish to change your allegiance?
- **7374**: Change your allegiance to [San d'Oria/Bastok/Windurst]? [Yes./No.]
- **7375**: I am obligated to ask you again: Are you sure you want to go through with this?
- **7376**: Change your allegiance to [San d'Oria/Bastok/Windurst]? [Yes./No.]
- **7377**: I know it isn't an easy decision to make. Please think it through before you decide.
- **7378**: Very well. I will accept your application for [San d'Orian/Bastokan/Windurstian] citizenship.
- **7379**: I will now cast a spell to seal some of your memories away. Close your eyes...
- **7380**: May your decision be a wise one...
- **7381**: You are now a citizen of [San d'Oria/Bastok/Windurst]!
- **7382**: This is where citizens of other nations apply for citizenship in [San d'Oria/Bastok/Windurst]. Since you are [San d'Orian/Bastokan/Windurstian], there is not much I can do for you.
- **7383**: I cannot accept applications for [San d'Orian/Bastokan/Windurstian] citizenship while you are on a mission.
- **7384**: Your home country seems to be in trouble... I cannot accept [San d'Orian/Bastokan/Windurstian] citizenship applications at this time.

## Events

### Event 65535

#### Metadata

| Field        | Value   |
|--------------|---------|
| Entrypoint   | 0x0000  |
| Data Size    | 1 bytes |
| Instructions | 1       |

```
      00 01 02 03 04 05 06 07  08 09 0A 0B 0C 0D 0E 0F
      -- -- -- -- -- -- -- --  -- -- -- -- -- -- -- --
0000: 00                                                .               
```

#### Opcodes

```
  0: 0x0000 [0x00] END_REQSTACK()
```

### Event 10002

#### Metadata

| Field        | Value     |
|--------------|-----------|
| Entrypoint   | 0x0001    |
| Data Size    | 287 bytes |
| Instructions | 76        |

```
      00 01 02 03 04 05 06 07  08 09 0A 0B 0C 0D 0E 0F
      -- -- -- -- -- -- -- --  -- -- -- -- -- -- -- --
0000:    42 1E F0 FF FF 7F 1D  00 80 23 24 01 80 02 80   B........#$....
0010: 03 80 25 02 00 10 03 80  00 08 01 03 01 10 03 80  ..%.............
0020: 1D 04 80 23 1D 05 80 23  02 03 10 03 80 00 3F 00  ...#...#......?.
0030: 1D 06 80 23 1D 07 80 23  1D 08 80 23 01 47 00 1D  ...#...#...#.G..
0040: 09 80 23 1D 08 80 23 1D  0A 80 23 24 0B 80 02 80  ..#...#...#$....
0050: 03 80 25 02 00 10 03 80  00 F1 00 02 06 10 03 80  ..%.............
0060: 00 6F 00 03 01 10 03 80  48 0C 80 20 00 21 00 03  .o......H.. .!..
0070: 01 10 03 80 1D 0D 80 23  24 0E 80 02 80 03 80 25  .......#$......%
0080: 02 00 10 03 80 00 DA 00  1D 0F 80 23 1D 10 80 23  ...........#...#
0090: 1D 11 80 23 73 12 80 F8  FF FF 7F F0 FF FF 7F 1C  ...#s...........
00A0: 13 80 45 13 80 F8 FF FF  7F F8 FF FF 7F 66 64 6F  ..E..........fdo
00B0: 32 03 80 1C 14 80 02 03  10 02 80 00 D2 00 45 13  2.............E.
00C0: 80 F8 FF FF 7F F8 FF FF  7F 66 64 69 32 03 80 48  .........fdi2..H
00D0: 15 80 03 01 10 02 80 01  EE 00 02 00 10 02 80 00  ................
00E0: EE 00 03 01 10 03 80 1D  16 80 23 01 EE 00 01 05  ..........#.....
00F0: 01 02 00 10 02 80 00 05  01 03 01 10 03 80 1D 16  ................
0100: 80 23 01 05 01 01 1C 01  02 00 10 02 80 00 1C 01  .#..............
0110: 03 01 10 03 80 1D 17 80  23 01 1C 01 20 00 21 00  ........#... .!.
```

#### Opcodes

```
  0: 0x0001 [0x42] SET_CLI_EVENT_CANCEL_DATA()
  1: 0x0002 [0x1E] EventEntity looks at LocalPlayer and starts talking
  2: 0x0007 [0x1D] PRINT_EVENT_MESSAGE(message_id=7363*)
    → "Welcome to [San d'Oria/Bastok/Windurst]. Do you wish to change your allegiance from your current one to [San d'Oria/Bastok/Windurst]?"
  3: 0x000A [0x23] WAIT_FOR_DIALOG_INTERACTION
  4: 0x000B [0x24] CREATE_DIALOG(message_id=7364*, default_option=1*, option_flags=0*)
    → "Ask about changing your allegiance? [Yes./No.]"
  5: 0x0012 [0x25] WAIT_DIALOG_SELECT()
  6: 0x0013 [0x02] IF !(Work_Zone[0] == 0*) GOTO 0x0108
  7: 0x001B [0x03] Work_Zone[1] = 0*
  8: 0x0020 [0x1D] PRINT_EVENT_MESSAGE(message_id=7366*)
    → "You can apply here to change your allegiance to [San d'Oria/Bastok/Windurst]."
  9: 0x0023 [0x23] WAIT_FOR_DIALOG_INTERACTION
 10: 0x0024 [0x1D] PRINT_EVENT_MESSAGE(message_id=7367*)
    → "We will have to seal away some of your memories as an international security measure. Those memories will be unsealed should you change your allegiance back to your former country."
 11: 0x0027 [0x23] WAIT_FOR_DIALOG_INTERACTION
 12: 0x0028 [0x02] IF !(Work_Zone[3] == 0*) GOTO 0x003F
 13: 0x0030 [0x1D] PRINT_EVENT_MESSAGE(message_id=7368*)
    → "Incidentally, if this is your first time changing your allegiance, you will have to start over from rank 1 in your new nation."
 14: 0x0033 [0x23] WAIT_FOR_DIALOG_INTERACTION
 15: 0x0034 [0x1D] PRINT_EVENT_MESSAGE(message_id=7369*)
    → "Your rank in your former nation is still kept, so if you change your allegiance back you will return to your previous rank."
 16: 0x0037 [0x23] WAIT_FOR_DIALOG_INTERACTION
 17: 0x0038 [0x1D] PRINT_EVENT_MESSAGE(message_id=7370*)
    → "In addition, you will retain your current conquest points as well as any records of your expeditionary force quests. Oh, and you will be required to pay a processing fee of $5 gil along with your application for transfer."
 18: 0x003B [0x23] WAIT_FOR_DIALOG_INTERACTION
 19: 0x003C [0x01] GOTO 0x0047
 20: 0x003F [0x1D] PRINT_EVENT_MESSAGE(message_id=7371*)
    → "You will also retain your current rank in [San d'Oria/Bastok/Windurst], which is presently rank $2."
 21: 0x0042 [0x23] WAIT_FOR_DIALOG_INTERACTION
 22: 0x0043 [0x1D] PRINT_EVENT_MESSAGE(message_id=7370*)
    → "In addition, you will retain your current conquest points as well as any records of your expeditionary force quests. Oh, and you will be required to pay a processing fee of $5 gil along with your application for transfer."
 23: 0x0046 [0x23] WAIT_FOR_DIALOG_INTERACTION

SUBROUTINE_0047:
 24: 0x0047 [0x1D] PRINT_EVENT_MESSAGE(message_id=7373*)
    → "Do you still wish to change your allegiance?"
 25: 0x004A [0x23] WAIT_FOR_DIALOG_INTERACTION
 26: 0x004B [0x24] CREATE_DIALOG(message_id=7374*, default_option=1*, option_flags=0*)
    → "Change your allegiance to [San d'Oria/Bastok/Windurst]? [Yes./No.]"
 27: 0x0052 [0x25] WAIT_DIALOG_SELECT()
 28: 0x0053 [0x02] IF !(Work_Zone[0] == 0*) GOTO 0x00F1
 29: 0x005B [0x02] IF !(Work_Zone[6] == 0*) GOTO 0x006F
 30: 0x0063 [0x03] Work_Zone[1] = 0*
 31: 0x0068 [0x48] [System] [7139*]:
    → "You do not have enough gil."
 32: 0x006B [0x20] SET_CLI_EVENT_UC_FLAG: Unlock player control
 33: 0x006D [0x21] END_EVENT
 34: 0x006E [0x00] END_REQSTACK()
 35: 0x006F [0x03] Work_Zone[1] = 0*
 36: 0x0074 [0x1D] PRINT_EVENT_MESSAGE(message_id=7375*)
    → "I am obligated to ask you again: Are you sure you want to go through with this?"
 37: 0x0077 [0x23] WAIT_FOR_DIALOG_INTERACTION
 38: 0x0078 [0x24] CREATE_DIALOG(message_id=7376*, default_option=1*, option_flags=0*)
    → "Change your allegiance to [San d'Oria/Bastok/Windurst]? [Yes./No.]"
 39: 0x007F [0x25] WAIT_DIALOG_SELECT()
 40: 0x0080 [0x02] IF !(Work_Zone[0] == 0*) GOTO 0x00DA
 41: 0x0088 [0x1D] PRINT_EVENT_MESSAGE(message_id=7378*)
    → "Very well. I will accept your application for [San d'Orian/Bastokan/Windurstian] citizenship."
 42: 0x008B [0x23] WAIT_FOR_DIALOG_INTERACTION
 43: 0x008C [0x1D] PRINT_EVENT_MESSAGE(message_id=7379*)
    → "I will now cast a spell to seal some of your memories away. Close your eyes..."
 44: 0x008F [0x23] WAIT_FOR_DIALOG_INTERACTION
 45: 0x0090 [0x1D] PRINT_EVENT_MESSAGE(message_id=7380*)
    → "May your decision be a wise one..."
 46: 0x0093 [0x23] WAIT_FOR_DIALOG_INTERACTION
 47: 0x0094 [0x73] EventEntity casts magic 253* on LocalPlayer
 48: 0x009F [0x1C] WAIT(200* ticks)
 49: 0x00A2 [0x45] LOAD_SCHEDULED_TASK: Load scheduler "fdo2" with entities [EventEntity, EventEntity], work=[200*, 0*]
 50: 0x00B3 [0x1C] WAIT(120* ticks)
 51: 0x00B6 [0x02] IF !(Work_Zone[3] == 1*) GOTO 0x00D2
 52: 0x00BE [0x45] LOAD_SCHEDULED_TASK: Load scheduler "fdi2" with entities [EventEntity, EventEntity], work=[200*, 0*]
 53: 0x00CF [0x48] [System] [7381*]:
    → "You are now a citizen of [San d'Oria/Bastok/Windurst]!"
 54: 0x00D2 [0x03] Work_Zone[1] = 1*
 55: 0x00D7 [0x01] GOTO 0x00EE
 56: 0x00DA [0x02] IF !(Work_Zone[0] == 1*) GOTO 0x00EE
 57: 0x00E2 [0x03] Work_Zone[1] = 0*
 58: 0x00E7 [0x1D] PRINT_EVENT_MESSAGE(message_id=7377*)
    → "I know it isn't an easy decision to make. Please think it through before you decide."
 59: 0x00EA [0x23] WAIT_FOR_DIALOG_INTERACTION
 60: 0x00EB [0x01] GOTO 0x00EE

SUBROUTINE_00EE:
 61: 0x00EE [0x01] GOTO 0x0105
 62: 0x00F1 [0x02] IF !(Work_Zone[0] == 1*) GOTO 0x0105
 63: 0x00F9 [0x03] Work_Zone[1] = 0*
 64: 0x00FE [0x1D] PRINT_EVENT_MESSAGE(message_id=7377*)
    → "I know it isn't an easy decision to make. Please think it through before you decide."
 65: 0x0101 [0x23] WAIT_FOR_DIALOG_INTERACTION
 66: 0x0102 [0x01] GOTO 0x0105

SUBROUTINE_0105:
 67: 0x0105 [0x01] GOTO 0x011C
 68: 0x0108 [0x02] IF !(Work_Zone[0] == 1*) GOTO 0x011C
 69: 0x0110 [0x03] Work_Zone[1] = 0*
 70: 0x0115 [0x1D] PRINT_EVENT_MESSAGE(message_id=7365*)
    → "Then, good journey, [sir/miss]."
 71: 0x0118 [0x23] WAIT_FOR_DIALOG_INTERACTION
 72: 0x0119 [0x01] GOTO 0x011C

SUBROUTINE_011C:
 73: 0x011C [0x20] SET_CLI_EVENT_UC_FLAG: Unlock player control
 74: 0x011E [0x21] END_EVENT
 75: 0x011F [0x00] END_REQSTACK()
```

### Event 10003

#### Metadata

| Field        | Value    |
|--------------|----------|
| Entrypoint   | 0x0120   |
| Data Size    | 13 bytes |
| Instructions | 6        |

```
      00 01 02 03 04 05 06 07  08 09 0A 0B 0C 0D 0E 0F
      -- -- -- -- -- -- -- --  -- -- -- -- -- -- -- --
0120: 1E F0 FF FF 7F 1D 18 80  23 20 00 21 00           ........# .!.   
```

#### Opcodes

```
  0: 0x0120 [0x1E] EventEntity looks at LocalPlayer and starts talking
  1: 0x0125 [0x1D] PRINT_EVENT_MESSAGE(message_id=7383*)
    → "I cannot accept applications for [San d'Orian/Bastokan/Windurstian] citizenship while you are on a mission."
  2: 0x0128 [0x23] WAIT_FOR_DIALOG_INTERACTION
  3: 0x0129 [0x20] SET_CLI_EVENT_UC_FLAG: Unlock player control
  4: 0x012B [0x21] END_EVENT
  5: 0x012C [0x00] END_REQSTACK()
```

### Event 10004

#### Metadata

| Field        | Value    |
|--------------|----------|
| Entrypoint   | 0x012D   |
| Data Size    | 13 bytes |
| Instructions | 6        |

```
      00 01 02 03 04 05 06 07  08 09 0A 0B 0C 0D 0E 0F
      -- -- -- -- -- -- -- --  -- -- -- -- -- -- -- --
0120:                                         1E F0 FF               ...
0130: FF 7F 1D 19 80 23 20 00  21 00                    .....# .!.      
```

#### Opcodes

```
  0: 0x012D [0x1E] EventEntity looks at LocalPlayer and starts talking
  1: 0x0132 [0x1D] PRINT_EVENT_MESSAGE(message_id=7382*)
    → "This is where citizens of other nations apply for citizenship in [San d'Oria/Bastok/Windurst]. Since you are [San d'Orian/Bastokan/Windurstian], there is not much I can do for you."
  2: 0x0135 [0x23] WAIT_FOR_DIALOG_INTERACTION
  3: 0x0136 [0x20] SET_CLI_EVENT_UC_FLAG: Unlock player control
  4: 0x0138 [0x21] END_EVENT
  5: 0x0139 [0x00] END_REQSTACK()
```

### Event 10005

#### Metadata

| Field        | Value    |
|--------------|----------|
| Entrypoint   | 0x013A   |
| Data Size    | 13 bytes |
| Instructions | 6        |

```
      00 01 02 03 04 05 06 07  08 09 0A 0B 0C 0D 0E 0F
      -- -- -- -- -- -- -- --  -- -- -- -- -- -- -- --
0130:                                1E F0 FF FF 7F 1D            ......
0140: 1A 80 23 20 00 21 00                              ..# .!.         
```

#### Opcodes

```
  0: 0x013A [0x1E] EventEntity looks at LocalPlayer and starts talking
  1: 0x013F [0x1D] PRINT_EVENT_MESSAGE(message_id=7384*)
    → "Your home country seems to be in trouble... I cannot accept [San d'Orian/Bastokan/Windurstian] citizenship applications at this time."
  2: 0x0142 [0x23] WAIT_FOR_DIALOG_INTERACTION
  3: 0x0143 [0x20] SET_CLI_EVENT_UC_FLAG: Unlock player control
  4: 0x0145 [0x21] END_EVENT
  5: 0x0146 [0x00] END_REQSTACK()
```

### Event 429

#### Metadata

| Field        | Value   |
|--------------|---------|
| Entrypoint   | 0x0147  |
| Data Size    | 1 bytes |
| Instructions | 1       |

```
      00 01 02 03 04 05 06 07  08 09 0A 0B 0C 0D 0E 0F
      -- -- -- -- -- -- -- --  -- -- -- -- -- -- -- --
0140:                      00                                  .        
```

#### Opcodes

```
  0: 0x0147 [0x00] END_REQSTACK()
```

### Event 430

#### Metadata

| Field        | Value   |
|--------------|---------|
| Entrypoint   | 0x0148  |
| Data Size    | 1 bytes |
| Instructions | 1       |

```
      00 01 02 03 04 05 06 07  08 09 0A 0B 0C 0D 0E 0F
      -- -- -- -- -- -- -- --  -- -- -- -- -- -- -- --
0140:                          00                               .       
```

#### Opcodes

```
  0: 0x0148 [0x00] END_REQSTACK()
```

### Event 435

#### Metadata

| Field        | Value   |
|--------------|---------|
| Entrypoint   | 0x0149  |
| Data Size    | 1 bytes |
| Instructions | 1       |

```
      00 01 02 03 04 05 06 07  08 09 0A 0B 0C 0D 0E 0F
      -- -- -- -- -- -- -- --  -- -- -- -- -- -- -- --
0140:                             00                             .      
```

#### Opcodes

```
  0: 0x0149 [0x00] END_REQSTACK()
```

### Event 439

#### Metadata

| Field        | Value   |
|--------------|---------|
| Entrypoint   | 0x014A  |
| Data Size    | 1 bytes |
| Instructions | 1       |

```
      00 01 02 03 04 05 06 07  08 09 0A 0B 0C 0D 0E 0F
      -- -- -- -- -- -- -- --  -- -- -- -- -- -- -- --
0140:                                00                           .     
```

#### Opcodes

```
  0: 0x014A [0x00] END_REQSTACK()
```

### Event 65535.1

#### Metadata

| Field        | Value    |
|--------------|----------|
| Entrypoint   | 0x014B   |
| Data Size    | 16 bytes |
| Instructions | 2        |

```
      00 01 02 03 04 05 06 07  08 09 0A 0B 0C 0D 0E 0F
      -- -- -- -- -- -- -- --  -- -- -- -- -- -- -- --
0140:                                   66 1B 80 F8 FF             f....
0150: FF 7F F8 FF FF 7F 77 61  69 30 00                 ......wai0.     
```

#### Opcodes

```
  0: 0x014B [0x66] LOAD_EXT_SCHEDULER_MAIN: Load scheduler "wai0" with entities [EventEntity, EventEntity], work=40*
  1: 0x015A [0x00] END_REQSTACK()
```

### Event 65535.2

#### Metadata

| Field        | Value    |
|--------------|----------|
| Entrypoint   | 0x015B   |
| Data Size    | 14 bytes |
| Instructions | 2        |

```
      00 01 02 03 04 05 06 07  08 09 0A 0B 0C 0D 0E 0F
      -- -- -- -- -- -- -- --  -- -- -- -- -- -- -- --
0150:                                   53 F8 FF FF 7F             S....
0160: F8 FF FF 7F 77 61 69 30  00                       ....wai0.       
```

#### Opcodes

```
  0: 0x015B [0x53] WAIT_SCHEDULER_TASK: Wait for scheduler "wai0" with entities [EventEntity, EventEntity]
  1: 0x0168 [0x00] END_REQSTACK()
```

### Event 440

#### Metadata

| Field        | Value   |
|--------------|---------|
| Entrypoint   | 0x0169  |
| Data Size    | 1 bytes |
| Instructions | 1       |

```
      00 01 02 03 04 05 06 07  08 09 0A 0B 0C 0D 0E 0F
      -- -- -- -- -- -- -- --  -- -- -- -- -- -- -- --
0160:                             00                             .      
```

#### Opcodes

```
  0: 0x0169 [0x00] END_REQSTACK()
```

### Event 441

#### Metadata

| Field        | Value   |
|--------------|---------|
| Entrypoint   | 0x016A  |
| Data Size    | 1 bytes |
| Instructions | 1       |

```
      00 01 02 03 04 05 06 07  08 09 0A 0B 0C 0D 0E 0F
      -- -- -- -- -- -- -- --  -- -- -- -- -- -- -- --
0160:                                00                           .     
```

#### Opcodes

```
  0: 0x016A [0x00] END_REQSTACK()
```

### Event 448

#### Metadata

| Field        | Value   |
|--------------|---------|
| Entrypoint   | 0x016B  |
| Data Size    | 1 bytes |
| Instructions | 1       |

```
      00 01 02 03 04 05 06 07  08 09 0A 0B 0C 0D 0E 0F
      -- -- -- -- -- -- -- --  -- -- -- -- -- -- -- --
0160:                                   00                         .    
```

#### Opcodes

```
  0: 0x016B [0x00] END_REQSTACK()
```

### Event 449

#### Metadata

| Field        | Value   |
|--------------|---------|
| Entrypoint   | 0x016C  |
| Data Size    | 1 bytes |
| Instructions | 1       |

```
      00 01 02 03 04 05 06 07  08 09 0A 0B 0C 0D 0E 0F
      -- -- -- -- -- -- -- --  -- -- -- -- -- -- -- --
0160:                                      00                       .   
```

#### Opcodes

```
  0: 0x016C [0x00] END_REQSTACK()
```

### Event 65535.3

#### Metadata

| Field        | Value    |
|--------------|----------|
| Entrypoint   | 0x016D   |
| Data Size    | 16 bytes |
| Instructions | 2        |

```
      00 01 02 03 04 05 06 07  08 09 0A 0B 0C 0D 0E 0F
      -- -- -- -- -- -- -- --  -- -- -- -- -- -- -- --
0160:                                         66 1B 80               f..
0170: F8 FF FF 7F F8 FF FF 7F  74 6C 6B 30 00           ........tlk0.   
```

#### Opcodes

```
  0: 0x016D [0x66] LOAD_EXT_SCHEDULER_MAIN: Load scheduler "tlk0" with entities [EventEntity, EventEntity], work=40*
  1: 0x017C [0x00] END_REQSTACK()
```

### Event 65535.4

#### Metadata

| Field        | Value    |
|--------------|----------|
| Entrypoint   | 0x017D   |
| Data Size    | 22 bytes |
| Instructions | 4        |

```
      00 01 02 03 04 05 06 07  08 09 0A 0B 0C 0D 0E 0F
      -- -- -- -- -- -- -- --  -- -- -- -- -- -- -- --
0170:                                         53 F8 FF               S..
0180: FF 7F F8 FF FF 7F 74 6C  6B 30 5E 69 64 6C 30 1C  ......tlk0^idl0.
0190: 1C 80 00                                          ...             
```

#### Opcodes

```
  0: 0x017D [0x53] WAIT_SCHEDULER_TASK: Wait for scheduler "tlk0" with entities [EventEntity, EventEntity]
  1: 0x018A [0x5E] EventEntity goes idle (kills current action) (animation: "idl0")
  2: 0x018F [0x1C] WAIT(30* ticks)
  3: 0x0192 [0x00] END_REQSTACK()
```

### Event 65535.5

#### Metadata

| Field        | Value    |
|--------------|----------|
| Entrypoint   | 0x0193   |
| Data Size    | 16 bytes |
| Instructions | 2        |

```
      00 01 02 03 04 05 06 07  08 09 0A 0B 0C 0D 0E 0F
      -- -- -- -- -- -- -- --  -- -- -- -- -- -- -- --
0190:          66 1D 80 F8 FF  FF 7F F8 FF FF 7F 73 68     f..........sh
01A0: 6B 30 00                                          k0.             
```

#### Opcodes

```
  0: 0x0193 [0x66] LOAD_EXT_SCHEDULER_MAIN: Load scheduler "shk0" with entities [EventEntity, EventEntity], work=41*
  1: 0x01A2 [0x00] END_REQSTACK()
```

### Event 65535.6

#### Metadata

| Field        | Value    |
|--------------|----------|
| Entrypoint   | 0x01A3   |
| Data Size    | 14 bytes |
| Instructions | 2        |

```
      00 01 02 03 04 05 06 07  08 09 0A 0B 0C 0D 0E 0F
      -- -- -- -- -- -- -- --  -- -- -- -- -- -- -- --
01A0:          53 F8 FF FF 7F  F8 FF FF 7F 73 68 6B 30     S........shk0
01B0: 00                                                .               
```

#### Opcodes

```
  0: 0x01A3 [0x53] WAIT_SCHEDULER_TASK: Wait for scheduler "shk0" with entities [EventEntity, EventEntity]
  1: 0x01B0 [0x00] END_REQSTACK()
```

### Event 65535.7

#### Metadata

| Field        | Value    |
|--------------|----------|
| Entrypoint   | 0x01B1   |
| Data Size    | 16 bytes |
| Instructions | 2        |

```
      00 01 02 03 04 05 06 07  08 09 0A 0B 0C 0D 0E 0F
      -- -- -- -- -- -- -- --  -- -- -- -- -- -- -- --
01B0:    66 1E 80 F8 FF FF 7F  F8 FF FF 7F 62 69 6B 30   f..........bik0
01C0: 00                                                .               
```

#### Opcodes

```
  0: 0x01B1 [0x66] LOAD_EXT_SCHEDULER_MAIN: Load scheduler "bik0" with entities [EventEntity, EventEntity], work=42*
  1: 0x01C0 [0x00] END_REQSTACK()
```

### Event 65535.8

#### Metadata

| Field        | Value    |
|--------------|----------|
| Entrypoint   | 0x01C1   |
| Data Size    | 14 bytes |
| Instructions | 2        |

```
      00 01 02 03 04 05 06 07  08 09 0A 0B 0C 0D 0E 0F
      -- -- -- -- -- -- -- --  -- -- -- -- -- -- -- --
01C0:    53 F8 FF FF 7F F8 FF  FF 7F 62 69 6B 30 00      S........bik0. 
```

#### Opcodes

```
  0: 0x01C1 [0x53] WAIT_SCHEDULER_TASK: Wait for scheduler "bik0" with entities [EventEntity, EventEntity]
  1: 0x01CE [0x00] END_REQSTACK()
```

### Event 65535.9

#### Metadata

| Field        | Value    |
|--------------|----------|
| Entrypoint   | 0x01CF   |
| Data Size    | 16 bytes |
| Instructions | 2        |

```
      00 01 02 03 04 05 06 07  08 09 0A 0B 0C 0D 0E 0F
      -- -- -- -- -- -- -- --  -- -- -- -- -- -- -- --
01C0:                                               66                 f
01D0: 1B 80 F8 FF FF 7F F8 FF  FF 7F 70 61 73 30 00     ..........pas0. 
```

#### Opcodes

```
  0: 0x01CF [0x66] LOAD_EXT_SCHEDULER_MAIN: Load scheduler "pas0" with entities [EventEntity, EventEntity], work=40*
  1: 0x01DE [0x00] END_REQSTACK()
```

### Event 65535.10

#### Metadata

| Field        | Value    |
|--------------|----------|
| Entrypoint   | 0x01DF   |
| Data Size    | 14 bytes |
| Instructions | 2        |

```
      00 01 02 03 04 05 06 07  08 09 0A 0B 0C 0D 0E 0F
      -- -- -- -- -- -- -- --  -- -- -- -- -- -- -- --
01D0:                                               53                 S
01E0: F8 FF FF 7F F8 FF FF 7F  70 61 73 30 00           ........pas0.   
```

#### Opcodes

```
  0: 0x01DF [0x53] WAIT_SCHEDULER_TASK: Wait for scheduler "pas0" with entities [EventEntity, EventEntity]
  1: 0x01EC [0x00] END_REQSTACK()
```

### Event 454

#### Metadata

| Field        | Value   |
|--------------|---------|
| Entrypoint   | 0x01ED  |
| Data Size    | 1 bytes |
| Instructions | 1       |

```
      00 01 02 03 04 05 06 07  08 09 0A 0B 0C 0D 0E 0F
      -- -- -- -- -- -- -- --  -- -- -- -- -- -- -- --
01E0:                                         00                     .  
```

#### Opcodes

```
  0: 0x01ED [0x00] END_REQSTACK()
```

### Event 455

#### Metadata

| Field        | Value   |
|--------------|---------|
| Entrypoint   | 0x01EE  |
| Data Size    | 1 bytes |
| Instructions | 1       |

```
      00 01 02 03 04 05 06 07  08 09 0A 0B 0C 0D 0E 0F
      -- -- -- -- -- -- -- --  -- -- -- -- -- -- -- --
01E0:                                            00                   . 
```

#### Opcodes

```
  0: 0x01EE [0x00] END_REQSTACK()
```

### Event 460

#### Metadata

| Field        | Value   |
|--------------|---------|
| Entrypoint   | 0x01EF  |
| Data Size    | 1 bytes |
| Instructions | 1       |

```
      00 01 02 03 04 05 06 07  08 09 0A 0B 0C 0D 0E 0F
      -- -- -- -- -- -- -- --  -- -- -- -- -- -- -- --
01E0:                                               00                 .
```

#### Opcodes

```
  0: 0x01EF [0x00] END_REQSTACK()
```

### Event 462

#### Metadata

| Field        | Value   |
|--------------|---------|
| Entrypoint   | 0x01F0  |
| Data Size    | 1 bytes |
| Instructions | 1       |

```
      00 01 02 03 04 05 06 07  08 09 0A 0B 0C 0D 0E 0F
      -- -- -- -- -- -- -- --  -- -- -- -- -- -- -- --
01F0: 00                                                .               
```

#### Opcodes

```
  0: 0x01F0 [0x00] END_REQSTACK()
```
