# 17768449 - DIRECTOR

## Common Data

| Field            | Value                   |
|------------------|-------------------------|
| Zone             | Heavens Tower (ID: 242) |
| Block Size       | 968 bytes               |
| Total Events     | 13                      |
| References Count | 38                      |

## List of Events

| Event ID                 | Entrypoint   |   Size |   Instructions |
|--------------------------|--------------|--------|----------------|
| [65535](#event-65535)    | 0x0000       |      1 |              1 |
| [1](#event-1)            | 0x0001       |    157 |             32 |
| [65535.1](#event-655351) | 0x009E       |    170 |             34 |
| [65535.2](#event-655352) | 0x0148       |     81 |             19 |
| [65535.3](#event-655353) | 0x0199       |     96 |             22 |
| [8](#event-8)            | 0x01F9       |      8 |              5 |
| [65535.4](#event-655354) | 0x0201       |    116 |             27 |
| [65535.5](#event-655355) | 0x0275       |     60 |             14 |
| [7](#event-7)            | 0x02B1       |      8 |              5 |
| [9](#event-9)            | 0x02B9       |      8 |              5 |
| [10](#event-10)          | 0x02C1       |      8 |              5 |
| [65535.6](#event-655356) | 0x02C9       |     13 |              6 |
| [5](#event-5)            | 0x02D6       |     21 |              6 |

## DAT References (imed_data)

|   Index | Hex Value   |   Dec Value |
|---------|-------------|-------------|
|       0 | 0x0241      |         577 |
|       1 | 0x0000      |           0 |
|       2 | 0x0001      |           1 |
|       3 | 0x0002      |           2 |
|       4 | 0x0003      |           3 |
|       5 | 0x0063      |          99 |
|       6 | 0x0004      |           4 |
|       7 | 0x0064      |         100 |
|       8 | 0x0005      |           5 |
|       9 | 0x0065      |         101 |
|      10 | 0x0006      |           6 |
|      11 | 0x0007      |           7 |
|      12 | 0x1C7E      |        7294 |
|      13 | 0x0008      |           8 |
|      14 | 0x0009      |           9 |
|      15 | 0x0242      |         578 |
|      16 | 0x1C6A      |        7274 |
|      17 | 0x012C      |         300 |
|      18 | 0x012D      |         301 |
|      19 | 0x012E      |         302 |
|      20 | 0x1C9C      |        7324 |
|      21 | 0x0243      |         579 |
|      22 | 0x1C69      |        7273 |
|      23 | 0x000B      |          11 |
|      24 | 0x000C      |          12 |
|      25 | 0x000D      |          13 |
|      26 | 0x000E      |          14 |
|      27 | 0x000F      |          15 |
|      28 | 0x1C7F      |        7295 |
|      29 | 0x0060      |          96 |
|      30 | 0x0061      |          97 |
|      31 | 0x0062      |          98 |
|      32 | 0x1C80      |        7296 |
|      33 | 0x1C81      |        7297 |
|      34 | 0x1C82      |        7298 |
|      35 | 0x1C6B      |        7275 |
|      36 | 0x001A      |          26 |
|      37 | 0x1C6C      |        7276 |

## String References

- **577**: G$7iB\`h$3U[$3}$3XH [@$3$3$3N/$3N$3G$3X$3g/$3A$3C$3e$3 /<Player>j$P13x$6750761$o=/$3N$3G$3X$3gFLAGL]reset/$6947115/$4$P122$8n/$4$3A$3b$3\`n]
- **578**: GL$3N$3G$3X$3g$3U[$3}$3XH [km001:$s/=/km002:$s/=/km002:$s/D$3R$3 [$3$3 [$P15R$I%9c/km002:$P10l\`$3Q$3b$3g/km003:$s/=/km003:$P106$Y$I%9/km003:$5%H<Player>K%$14s/=/km003:$3{$3X$P13|5=/km003:$P11S$20$I%9/ZONEp<Player>j$P13xE\`$o=1FI7i/$3N$3G$3X$3gFLAGL]reset]
- **579**: $3t$3$3O%'DiE$3U[$3}$3XH [@de001OK$3t$3$3O/debuff1$3t$3$3O/debuff2$3t$3$3O/debuff3$3t$3$3O/debuff4$3t$3$3O/$3N$3G$3X$3gFLAGL]reset]
- **7273**: Abracadabra!
- **7274**: Oh no! Your Adventurers' certificate vanished!
- **7275**: Counting $0 people!
- **7276**: Your rank is now $7!!
- **7294**: ex [u6-1:v$P12<$P11O/u6-2:v$P12<$P11O/u7-1:v$P12<$P11O/u7-2:v$P12<$P11O/u8-1:v$P12<$P11O/u8-2:v$P12<$P11O/u9-1:v$P12<$P11O/u9-2:v$P12<$P11O/u9-2:$6816365]
- **7295**: $P122$8n [@$n$P16{n/$3~$3b$3V$3/$3$12n/$3][$3$3t$3$3On]
- **7296**: U_START_WS_QSM$0@U_END_WS_QSM$1 U_SPECIAL_FLAGM$2@U_SPECIAL_FLAG2M$3 U_SPECIAL_BIT(2)M$4$330317 U_RANK_LEVEL_WSM$6@U_FAME_WS_COMMONM$7
- **7297**: U_MS_STARTM$0@U_END_WS_MSM$1 U_RANK_POINT_WSM$2@U_MS_COUNTERM$3 U_WS_FLAGSM$4@U_SPECIAL_FLAGM$5 U_RANK_LEVEL_WSM$6@U_FAME_WS_COMMONM$7
- **7298**: Z_ipc_id01M$0@Z_ipc_id02M$1 Z_ipc_id03M$2@Z_ipc_id04M$3 Z_ipc_id05M$4@Z_ipc_id06M$5 Z_ipc_id07M$6@Z_ANG_time01M$7
- **7324**: $7p$hI$P13|j\\5=><Player>

## Events

### Event 65535

#### Metadata

| Field        | Value   |
|--------------|---------|
| Entrypoint   | 0x0000  |
| Data Size    | 1 bytes |
| Instructions | 1       |

```
      00 01 02 03 04 05 06 07  08 09 0A 0B 0C 0D 0E 0F
      -- -- -- -- -- -- -- --  -- -- -- -- -- -- -- --
0000: 00                                                .               
```

#### Opcodes

```
  0: 0x0000 [0x00] END_REQSTACK()
```

### Event 1

#### Metadata

| Field        | Value     |
|--------------|-----------|
| Entrypoint   | 0x0001    |
| Data Size    | 157 bytes |
| Instructions | 32        |

```
      00 01 02 03 04 05 06 07  08 09 0A 0B 0C 0D 0E 0F
      -- -- -- -- -- -- -- --  -- -- -- -- -- -- -- --
0000:    1E F0 FF FF 7F 6F 70  24 00 80 01 80 01 80 25   .....op$......%
0010: 02 00 10 01 80 00 22 00  29 0B 01 20 0F 01 02 01  ......".).. ....
0020: 9A 00 02 00 10 02 80 00  34 00 29 0B 01 20 0F 01  ........4.).. ..
0030: 03 01 9A 00 02 00 10 03  80 00 46 00 29 0B 01 20  ..........F.).. 
0040: 0F 01 04 01 9A 00 02 00  10 04 80 00 56 00 03 01  ............V...
0050: 10 05 80 01 9A 00 02 00  10 06 80 00 66 00 03 01  ............f...
0060: 10 07 80 01 9A 00 02 00  10 08 80 00 76 00 03 01  ............v...
0070: 10 09 80 01 9A 00 02 00  10 0A 80 00 88 00 29 0B  ..............).
0080: 01 20 0F 01 07 01 9A 00  02 00 10 0B 80 00 9A 00  . ..............
0090: 29 0B 01 20 0F 01 0B 01  9A 00 20 00 21 00        ).. ...... .!.  
```

#### Opcodes

```
  0: 0x0001 [0x1E] EventEntity looks at LocalPlayer and starts talking
  1: 0x0006 [0x6F] WAIT_FRAME_DELAY: Yield until WaitTime reaches zero
  2: 0x0007 [0x70] WAIT_ENTITY_RENDER_FLAG: Wait while EventEntity->Render.Flags3 bit 2 is set (cancel turn if not)
  3: 0x0008 [0x24] CREATE_DIALOG(message_id=577*, default_option=0*, option_flags=0*)
    → "G$7iB`h$3U[$3}$3XH [@$3$3$3N/$3N$3G$3X$3g/$3A$3C$3e$3 /<Player>j$P13x$6750761$o=/$3N$3G$3X$3gFLAGL]reset/$6947115/$4$P122$8n/$4$3A$3b$3`n]"
  4: 0x000F [0x25] WAIT_DIALOG_SELECT()
  5: 0x0010 [0x02] IF !(Work_Zone[0] == 0*) GOTO 0x0022
  6: 0x0018 [0x29] REQ_SET_WAIT(priority=0x0B, entity_id=DIRECTOR (ID: 17768449/0x010F2001), tag_num=0x02)
  7: 0x001F [0x01] GOTO 0x009A
  8: 0x0022 [0x02] IF !(Work_Zone[0] == 1*) GOTO 0x0034
  9: 0x002A [0x29] REQ_SET_WAIT(priority=0x0B, entity_id=DIRECTOR (ID: 17768449/0x010F2001), tag_num=0x03)
 10: 0x0031 [0x01] GOTO 0x009A
 11: 0x0034 [0x02] IF !(Work_Zone[0] == 2*) GOTO 0x0046
 12: 0x003C [0x29] REQ_SET_WAIT(priority=0x0B, entity_id=DIRECTOR (ID: 17768449/0x010F2001), tag_num=0x04)
 13: 0x0043 [0x01] GOTO 0x009A
 14: 0x0046 [0x02] IF !(Work_Zone[0] == 3*) GOTO 0x0056
 15: 0x004E [0x03] Work_Zone[1] = 99*
 16: 0x0053 [0x01] GOTO 0x009A
 17: 0x0056 [0x02] IF !(Work_Zone[0] == 4*) GOTO 0x0066
 18: 0x005E [0x03] Work_Zone[1] = 100*
 19: 0x0063 [0x01] GOTO 0x009A
 20: 0x0066 [0x02] IF !(Work_Zone[0] == 5*) GOTO 0x0076
 21: 0x006E [0x03] Work_Zone[1] = 101*
 22: 0x0073 [0x01] GOTO 0x009A
 23: 0x0076 [0x02] IF !(Work_Zone[0] == 6*) GOTO 0x0088
 24: 0x007E [0x29] REQ_SET_WAIT(priority=0x0B, entity_id=DIRECTOR (ID: 17768449/0x010F2001), tag_num=0x07)
 25: 0x0085 [0x01] GOTO 0x009A
 26: 0x0088 [0x02] IF !(Work_Zone[0] == 7*) GOTO 0x009A
 27: 0x0090 [0x29] REQ_SET_WAIT(priority=0x0B, entity_id=DIRECTOR (ID: 17768449/0x010F2001), tag_num=0x0B)
 28: 0x0097 [0x01] GOTO 0x009A

SUBROUTINE_009A:
 29: 0x009A [0x20] SET_CLI_EVENT_UC_FLAG: Unlock player control
 30: 0x009C [0x21] END_EVENT
 31: 0x009D [0x00] END_REQSTACK()
```

### Event 65535.1

#### Metadata

| Field        | Value     |
|--------------|-----------|
| Entrypoint   | 0x009E    |
| Data Size    | 170 bytes |
| Instructions | 34        |

```
      00 01 02 03 04 05 06 07  08 09 0A 0B 0C 0D 0E 0F
      -- -- -- -- -- -- -- --  -- -- -- -- -- -- -- --
0090:                                            24 0C                $.
00A0: 80 01 80 01 80 25 02 00  10 01 80 00 B6 00 03 01  .....%..........
00B0: 10 01 80 01 46 01 02 00  10 02 80 00 C6 00 03 01  ....F...........
00C0: 10 02 80 01 46 01 02 00  10 03 80 00 D6 00 03 01  ....F...........
00D0: 10 03 80 01 46 01 02 00  10 04 80 00 E6 00 03 01  ....F...........
00E0: 10 04 80 01 46 01 02 00  10 06 80 00 F6 00 03 01  ....F...........
00F0: 10 06 80 01 46 01 02 00  10 08 80 00 06 01 03 01  ....F...........
0100: 10 08 80 01 46 01 02 00  10 0A 80 00 16 01 03 01  ....F...........
0110: 10 0A 80 01 46 01 02 00  10 0B 80 00 26 01 03 01  ....F.......&...
0120: 10 0B 80 01 46 01 02 00  10 0D 80 00 36 01 03 01  ....F.......6...
0130: 10 0D 80 01 46 01 02 00  10 0E 80 00 46 01 03 01  ....F.......F...
0140: 10 0E 80 01 46 01 21 00                           ....F.!.        
```

#### Opcodes

```
  0: 0x009E [0x24] CREATE_DIALOG(message_id=7294*, default_option=0*, option_flags=0*)
    → "ex [u6-1:v$P12<$P11O/u6-2:v$P12<$P11O/u7-1:v$P12<$P11O/u7-2:v$P12<$P11O/u8-1:v$P12<$P11O/u8-2:v$P12<$P11O/u9-1:v$P12<$P11O/u9-2:v$P12<$P11O/u9-2:$6816365]"
  1: 0x00A5 [0x25] WAIT_DIALOG_SELECT()
  2: 0x00A6 [0x02] IF !(Work_Zone[0] == 0*) GOTO 0x00B6
  3: 0x00AE [0x03] Work_Zone[1] = 0*
  4: 0x00B3 [0x01] GOTO 0x0146
  5: 0x00B6 [0x02] IF !(Work_Zone[0] == 1*) GOTO 0x00C6
  6: 0x00BE [0x03] Work_Zone[1] = 1*
  7: 0x00C3 [0x01] GOTO 0x0146
  8: 0x00C6 [0x02] IF !(Work_Zone[0] == 2*) GOTO 0x00D6
  9: 0x00CE [0x03] Work_Zone[1] = 2*
 10: 0x00D3 [0x01] GOTO 0x0146
 11: 0x00D6 [0x02] IF !(Work_Zone[0] == 3*) GOTO 0x00E6
 12: 0x00DE [0x03] Work_Zone[1] = 3*
 13: 0x00E3 [0x01] GOTO 0x0146
 14: 0x00E6 [0x02] IF !(Work_Zone[0] == 4*) GOTO 0x00F6
 15: 0x00EE [0x03] Work_Zone[1] = 4*
 16: 0x00F3 [0x01] GOTO 0x0146
 17: 0x00F6 [0x02] IF !(Work_Zone[0] == 5*) GOTO 0x0106
 18: 0x00FE [0x03] Work_Zone[1] = 5*
 19: 0x0103 [0x01] GOTO 0x0146
 20: 0x0106 [0x02] IF !(Work_Zone[0] == 6*) GOTO 0x0116
 21: 0x010E [0x03] Work_Zone[1] = 6*
 22: 0x0113 [0x01] GOTO 0x0146
 23: 0x0116 [0x02] IF !(Work_Zone[0] == 7*) GOTO 0x0126
 24: 0x011E [0x03] Work_Zone[1] = 7*
 25: 0x0123 [0x01] GOTO 0x0146
 26: 0x0126 [0x02] IF !(Work_Zone[0] == 8*) GOTO 0x0136
 27: 0x012E [0x03] Work_Zone[1] = 8*
 28: 0x0133 [0x01] GOTO 0x0146
 29: 0x0136 [0x02] IF !(Work_Zone[0] == 9*) GOTO 0x0146
 30: 0x013E [0x03] Work_Zone[1] = 9*
 31: 0x0143 [0x01] GOTO 0x0146

SUBROUTINE_0146:
 32: 0x0146 [0x21] END_EVENT
 33: 0x0147 [0x00] END_REQSTACK()
```

### Event 65535.2

#### Metadata

| Field        | Value    |
|--------------|----------|
| Entrypoint   | 0x0148   |
| Data Size    | 81 bytes |
| Instructions | 19       |

```
      00 01 02 03 04 05 06 07  08 09 0A 0B 0C 0D 0E 0F
      -- -- -- -- -- -- -- --  -- -- -- -- -- -- -- --
0140:                          24 0F 80 01 80 01 80 25          $......%
0150: 02 00 10 01 80 00 5B 01  01 95 01 02 00 10 02 80  ......[.........
0160: 00 66 01 01 95 01 02 00  10 03 80 00 71 01 01 95  .f..........q...
0170: 01 02 00 10 04 80 00 81  01 03 01 10 05 80 01 95  ................
0180: 01 02 00 10 06 80 00 95  01 1D 10 80 23 03 01 10  ............#...
0190: 07 80 01 95 01 20 00 21  00                       ..... .!.       
```

#### Opcodes

```
  0: 0x0148 [0x24] CREATE_DIALOG(message_id=578*, default_option=0*, option_flags=0*)
    → "GL$3N$3G$3X$3g$3U[$3}$3XH [km001:$s/=/km002:$s/=/km002:$s/D$3R$3 [$3$3 [$P15R$I%9c/km002:$P10l`$3Q$3b$3g/km003:$s/=/km003:$P106$Y$I%9/km003:$5%H<Player>K%$14s/=/km003:$3{$3X$P13|5=/km003:$P11S$20$I%9/ZONEp<Player>j$P13xE`$o=1FI7i/$3N$3G$3X$3gFLAGL]reset]"
  1: 0x014F [0x25] WAIT_DIALOG_SELECT()
  2: 0x0150 [0x02] IF !(Work_Zone[0] == 0*) GOTO 0x015B
  3: 0x0158 [0x01] GOTO 0x0195
  4: 0x015B [0x02] IF !(Work_Zone[0] == 1*) GOTO 0x0166
  5: 0x0163 [0x01] GOTO 0x0195
  6: 0x0166 [0x02] IF !(Work_Zone[0] == 2*) GOTO 0x0171
  7: 0x016E [0x01] GOTO 0x0195
  8: 0x0171 [0x02] IF !(Work_Zone[0] == 3*) GOTO 0x0181
  9: 0x0179 [0x03] Work_Zone[1] = 99*
 10: 0x017E [0x01] GOTO 0x0195
 11: 0x0181 [0x02] IF !(Work_Zone[0] == 4*) GOTO 0x0195
 12: 0x0189 [0x1D] PRINT_EVENT_MESSAGE(message_id=7274*)
    → "Oh no! Your Adventurers' certificate vanished!"
 13: 0x018C [0x23] WAIT_FOR_DIALOG_INTERACTION
 14: 0x018D [0x03] Work_Zone[1] = 100*
 15: 0x0192 [0x01] GOTO 0x0195

SUBROUTINE_0195:
 16: 0x0195 [0x20] SET_CLI_EVENT_UC_FLAG: Unlock player control
 17: 0x0197 [0x21] END_EVENT
 18: 0x0198 [0x00] END_REQSTACK()
```

### Event 65535.3

#### Metadata

| Field        | Value    |
|--------------|----------|
| Entrypoint   | 0x0199   |
| Data Size    | 96 bytes |
| Instructions | 22       |

```
      00 01 02 03 04 05 06 07  08 09 0A 0B 0C 0D 0E 0F
      -- -- -- -- -- -- -- --  -- -- -- -- -- -- -- --
0190:                             24 0F 80 01 80 01 80           $......
01A0: 25 02 00 10 01 80 00 B1  01 03 01 10 11 80 01 F5  %...............
01B0: 01 02 00 10 02 80 00 C1  01 03 01 10 12 80 01 F5  ................
01C0: 01 02 00 10 03 80 00 D1  01 03 01 10 13 80 01 F5  ................
01D0: 01 02 00 10 04 80 00 E1  01 03 01 10 05 80 01 F5  ................
01E0: 01 02 00 10 06 80 00 F5  01 1D 10 80 23 03 01 10  ............#...
01F0: 07 80 01 F5 01 20 00 21  00                       ..... .!.       
```

#### Opcodes

```
  0: 0x0199 [0x24] CREATE_DIALOG(message_id=578*, default_option=0*, option_flags=0*)
    → "GL$3N$3G$3X$3g$3U[$3}$3XH [km001:$s/=/km002:$s/=/km002:$s/D$3R$3 [$3$3 [$P15R$I%9c/km002:$P10l`$3Q$3b$3g/km003:$s/=/km003:$P106$Y$I%9/km003:$5%H<Player>K%$14s/=/km003:$3{$3X$P13|5=/km003:$P11S$20$I%9/ZONEp<Player>j$P13xE`$o=1FI7i/$3N$3G$3X$3gFLAGL]reset]"
  1: 0x01A0 [0x25] WAIT_DIALOG_SELECT()
  2: 0x01A1 [0x02] IF !(Work_Zone[0] == 0*) GOTO 0x01B1
  3: 0x01A9 [0x03] Work_Zone[1] = 300*
  4: 0x01AE [0x01] GOTO 0x01F5
  5: 0x01B1 [0x02] IF !(Work_Zone[0] == 1*) GOTO 0x01C1
  6: 0x01B9 [0x03] Work_Zone[1] = 301*
  7: 0x01BE [0x01] GOTO 0x01F5
  8: 0x01C1 [0x02] IF !(Work_Zone[0] == 2*) GOTO 0x01D1
  9: 0x01C9 [0x03] Work_Zone[1] = 302*
 10: 0x01CE [0x01] GOTO 0x01F5
 11: 0x01D1 [0x02] IF !(Work_Zone[0] == 3*) GOTO 0x01E1
 12: 0x01D9 [0x03] Work_Zone[1] = 99*
 13: 0x01DE [0x01] GOTO 0x01F5
 14: 0x01E1 [0x02] IF !(Work_Zone[0] == 4*) GOTO 0x01F5
 15: 0x01E9 [0x1D] PRINT_EVENT_MESSAGE(message_id=7274*)
    → "Oh no! Your Adventurers' certificate vanished!"
 16: 0x01EC [0x23] WAIT_FOR_DIALOG_INTERACTION
 17: 0x01ED [0x03] Work_Zone[1] = 100*
 18: 0x01F2 [0x01] GOTO 0x01F5

SUBROUTINE_01F5:
 19: 0x01F5 [0x20] SET_CLI_EVENT_UC_FLAG: Unlock player control
 20: 0x01F7 [0x21] END_EVENT
 21: 0x01F8 [0x00] END_REQSTACK()
```

### Event 8

#### Metadata

| Field        | Value   |
|--------------|---------|
| Entrypoint   | 0x01F9  |
| Data Size    | 8 bytes |
| Instructions | 5       |

```
      00 01 02 03 04 05 06 07  08 09 0A 0B 0C 0D 0E 0F
      -- -- -- -- -- -- -- --  -- -- -- -- -- -- -- --
01F0:                             1D 14 80 23 20 00 21           ...# .!
0200: 00                                                .               
```

#### Opcodes

```
  0: 0x01F9 [0x1D] PRINT_EVENT_MESSAGE(message_id=7324*)
    → "$7p$hI$P13|j\5=><Player>"
  1: 0x01FC [0x23] WAIT_FOR_DIALOG_INTERACTION
  2: 0x01FD [0x20] SET_CLI_EVENT_UC_FLAG: Unlock player control
  3: 0x01FF [0x21] END_EVENT
  4: 0x0200 [0x00] END_REQSTACK()
```

### Event 65535.4

#### Metadata

| Field        | Value     |
|--------------|-----------|
| Entrypoint   | 0x0201    |
| Data Size    | 116 bytes |
| Instructions | 27        |

```
      00 01 02 03 04 05 06 07  08 09 0A 0B 0C 0D 0E 0F
      -- -- -- -- -- -- -- --  -- -- -- -- -- -- -- --
0200:    24 15 80 01 80 01 80  25 02 00 10 01 80 00 1D   $......%.......
0210: 02 1D 16 80 23 03 01 10  17 80 01 71 02 02 00 10  ....#......q....
0220: 02 80 00 2D 02 03 01 10  18 80 01 71 02 02 00 10  ...-.......q....
0230: 03 80 00 3D 02 03 01 10  19 80 01 71 02 02 00 10  ...=.......q....
0240: 04 80 00 4D 02 03 01 10  1A 80 01 71 02 02 00 10  ...M.......q....
0250: 06 80 00 5D 02 03 01 10  1B 80 01 71 02 02 00 10  ...].......q....
0260: 08 80 00 71 02 1D 10 80  23 03 01 10 07 80 01 71  ...q....#......q
0270: 02 20 00 21 00                                    . .!.           
```

#### Opcodes

```
  0: 0x0201 [0x24] CREATE_DIALOG(message_id=579*, default_option=0*, option_flags=0*)
    → "$3t$3$3O%'DiE$3U[$3}$3XH [@de001OK$3t$3$3O/debuff1$3t$3$3O/debuff2$3t$3$3O/debuff3$3t$3$3O/debuff4$3t$3$3O/$3N$3G$3X$3gFLAGL]reset]"
  1: 0x0208 [0x25] WAIT_DIALOG_SELECT()
  2: 0x0209 [0x02] IF !(Work_Zone[0] == 0*) GOTO 0x021D
  3: 0x0211 [0x1D] PRINT_EVENT_MESSAGE(message_id=7273*)
    → "Abracadabra!"
  4: 0x0214 [0x23] WAIT_FOR_DIALOG_INTERACTION
  5: 0x0215 [0x03] Work_Zone[1] = 11*
  6: 0x021A [0x01] GOTO 0x0271
  7: 0x021D [0x02] IF !(Work_Zone[0] == 1*) GOTO 0x022D
  8: 0x0225 [0x03] Work_Zone[1] = 12*
  9: 0x022A [0x01] GOTO 0x0271
 10: 0x022D [0x02] IF !(Work_Zone[0] == 2*) GOTO 0x023D
 11: 0x0235 [0x03] Work_Zone[1] = 13*
 12: 0x023A [0x01] GOTO 0x0271
 13: 0x023D [0x02] IF !(Work_Zone[0] == 3*) GOTO 0x024D
 14: 0x0245 [0x03] Work_Zone[1] = 14*
 15: 0x024A [0x01] GOTO 0x0271
 16: 0x024D [0x02] IF !(Work_Zone[0] == 4*) GOTO 0x025D
 17: 0x0255 [0x03] Work_Zone[1] = 15*
 18: 0x025A [0x01] GOTO 0x0271
 19: 0x025D [0x02] IF !(Work_Zone[0] == 5*) GOTO 0x0271
 20: 0x0265 [0x1D] PRINT_EVENT_MESSAGE(message_id=7274*)
    → "Oh no! Your Adventurers' certificate vanished!"
 21: 0x0268 [0x23] WAIT_FOR_DIALOG_INTERACTION
 22: 0x0269 [0x03] Work_Zone[1] = 100*
 23: 0x026E [0x01] GOTO 0x0271

SUBROUTINE_0271:
 24: 0x0271 [0x20] SET_CLI_EVENT_UC_FLAG: Unlock player control
 25: 0x0273 [0x21] END_EVENT
 26: 0x0274 [0x00] END_REQSTACK()
```

### Event 65535.5

#### Metadata

| Field        | Value    |
|--------------|----------|
| Entrypoint   | 0x0275   |
| Data Size    | 60 bytes |
| Instructions | 14       |

```
      00 01 02 03 04 05 06 07  08 09 0A 0B 0C 0D 0E 0F
      -- -- -- -- -- -- -- --  -- -- -- -- -- -- -- --
0270:                24 1C 80  01 80 01 80 25 02 00 10       $......%...
0280: 01 80 00 8D 02 03 01 10  1D 80 01 AD 02 02 00 10  ................
0290: 02 80 00 9D 02 03 01 10  1E 80 01 AD 02 02 00 10  ................
02A0: 03 80 00 AD 02 03 01 10  1F 80 01 AD 02 20 00 21  ............. .!
02B0: 00                                                .               
```

#### Opcodes

```
  0: 0x0275 [0x24] CREATE_DIALOG(message_id=7295*, default_option=0*, option_flags=0*)
    → "$P122$8n [@$n$P16{n/$3~$3b$3V$3/$3$12n/$3][$3$3t$3$3On]"
  1: 0x027C [0x25] WAIT_DIALOG_SELECT()
  2: 0x027D [0x02] IF !(Work_Zone[0] == 0*) GOTO 0x028D
  3: 0x0285 [0x03] Work_Zone[1] = 96*
  4: 0x028A [0x01] GOTO 0x02AD
  5: 0x028D [0x02] IF !(Work_Zone[0] == 1*) GOTO 0x029D
  6: 0x0295 [0x03] Work_Zone[1] = 97*
  7: 0x029A [0x01] GOTO 0x02AD
  8: 0x029D [0x02] IF !(Work_Zone[0] == 2*) GOTO 0x02AD
  9: 0x02A5 [0x03] Work_Zone[1] = 98*
 10: 0x02AA [0x01] GOTO 0x02AD

SUBROUTINE_02AD:
 11: 0x02AD [0x20] SET_CLI_EVENT_UC_FLAG: Unlock player control
 12: 0x02AF [0x21] END_EVENT
 13: 0x02B0 [0x00] END_REQSTACK()
```

### Event 7

#### Metadata

| Field        | Value   |
|--------------|---------|
| Entrypoint   | 0x02B1  |
| Data Size    | 8 bytes |
| Instructions | 5       |

```
      00 01 02 03 04 05 06 07  08 09 0A 0B 0C 0D 0E 0F
      -- -- -- -- -- -- -- --  -- -- -- -- -- -- -- --
02B0:    1D 20 80 23 20 00 21  00                        . .# .!.       
```

#### Opcodes

```
  0: 0x02B1 [0x1D] PRINT_EVENT_MESSAGE(message_id=7296*)
    → "U_START_WS_QSM$0@U_END_WS_QSM$1 U_SPECIAL_FLAGM$2@U_SPECIAL_FLAG2M$3 U_SPECIAL_BIT(2)M$4$330317 U_RANK_LEVEL_WSM$6@U_FAME_WS_COMMONM$7"
  1: 0x02B4 [0x23] WAIT_FOR_DIALOG_INTERACTION
  2: 0x02B5 [0x20] SET_CLI_EVENT_UC_FLAG: Unlock player control
  3: 0x02B7 [0x21] END_EVENT
  4: 0x02B8 [0x00] END_REQSTACK()
```

### Event 9

#### Metadata

| Field        | Value   |
|--------------|---------|
| Entrypoint   | 0x02B9  |
| Data Size    | 8 bytes |
| Instructions | 5       |

```
      00 01 02 03 04 05 06 07  08 09 0A 0B 0C 0D 0E 0F
      -- -- -- -- -- -- -- --  -- -- -- -- -- -- -- --
02B0:                             1D 21 80 23 20 00 21           .!.# .!
02C0: 00                                                .               
```

#### Opcodes

```
  0: 0x02B9 [0x1D] PRINT_EVENT_MESSAGE(message_id=7297*)
    → "U_MS_STARTM$0@U_END_WS_MSM$1 U_RANK_POINT_WSM$2@U_MS_COUNTERM$3 U_WS_FLAGSM$4@U_SPECIAL_FLAGM$5 U_RANK_LEVEL_WSM$6@U_FAME_WS_COMMONM$7"
  1: 0x02BC [0x23] WAIT_FOR_DIALOG_INTERACTION
  2: 0x02BD [0x20] SET_CLI_EVENT_UC_FLAG: Unlock player control
  3: 0x02BF [0x21] END_EVENT
  4: 0x02C0 [0x00] END_REQSTACK()
```

### Event 10

#### Metadata

| Field        | Value   |
|--------------|---------|
| Entrypoint   | 0x02C1  |
| Data Size    | 8 bytes |
| Instructions | 5       |

```
      00 01 02 03 04 05 06 07  08 09 0A 0B 0C 0D 0E 0F
      -- -- -- -- -- -- -- --  -- -- -- -- -- -- -- --
02C0:    1D 22 80 23 20 00 21  00                        .".# .!.       
```

#### Opcodes

```
  0: 0x02C1 [0x1D] PRINT_EVENT_MESSAGE(message_id=7298*)
    → "Z_ipc_id01M$0@Z_ipc_id02M$1 Z_ipc_id03M$2@Z_ipc_id04M$3 Z_ipc_id05M$4@Z_ipc_id06M$5 Z_ipc_id07M$6@Z_ANG_time01M$7"
  1: 0x02C4 [0x23] WAIT_FOR_DIALOG_INTERACTION
  2: 0x02C5 [0x20] SET_CLI_EVENT_UC_FLAG: Unlock player control
  3: 0x02C7 [0x21] END_EVENT
  4: 0x02C8 [0x00] END_REQSTACK()
```

### Event 65535.6

#### Metadata

| Field        | Value    |
|--------------|----------|
| Entrypoint   | 0x02C9   |
| Data Size    | 13 bytes |
| Instructions | 6        |

```
      00 01 02 03 04 05 06 07  08 09 0A 0B 0C 0D 0E 0F
      -- -- -- -- -- -- -- --  -- -- -- -- -- -- -- --
02C0:                             1D 23 80 23 03 01 10           .#.#...
02D0: 24 80 20 00 21 00                                 $. .!.          
```

#### Opcodes

```
  0: 0x02C9 [0x1D] PRINT_EVENT_MESSAGE(message_id=7275*)
    → "Counting $0 people!"
  1: 0x02CC [0x23] WAIT_FOR_DIALOG_INTERACTION
  2: 0x02CD [0x03] Work_Zone[1] = 26*
  3: 0x02D2 [0x20] SET_CLI_EVENT_UC_FLAG: Unlock player control
  4: 0x02D4 [0x21] END_EVENT
  5: 0x02D5 [0x00] END_REQSTACK()
```

### Event 5

#### Metadata

| Field        | Value    |
|--------------|----------|
| Entrypoint   | 0x02D6   |
| Data Size    | 21 bytes |
| Instructions | 6        |

```
      00 01 02 03 04 05 06 07  08 09 0A 0B 0C 0D 0E 0F
      -- -- -- -- -- -- -- --  -- -- -- -- -- -- -- --
02D0:                   2C 01  20 0F 01 01 20 0F 01 63        ,. ... ..c
02E0: 61 6E 6A 1D 25 80 23 20  00 21 00                 anj.%.# .!.     
```

#### Opcodes

```
  0: 0x02D6 [0x2C] CREATE_SCHEDULER_TASK: Create scheduler "canj" with entities [DIRECTOR (ID: 17768449/0x010F2001), DIRECTOR (ID: 17768449/0x010F2001)]
  1: 0x02E3 [0x1D] PRINT_EVENT_MESSAGE(message_id=7276*)
    → "Your rank is now $7!!"
  2: 0x02E6 [0x23] WAIT_FOR_DIALOG_INTERACTION
  3: 0x02E7 [0x20] SET_CLI_EVENT_UC_FLAG: Unlock player control
  4: 0x02E9 [0x21] END_EVENT
  5: 0x02EA [0x00] END_REQSTACK()
```
