# 17768473 - Gamimi

## Common Data

| Field            | Value                   |
|------------------|-------------------------|
| Zone             | Heavens Tower (ID: 242) |
| Block Size       | 2752 bytes              |
| Total Events     | 29                      |
| References Count | 150                     |

## List of Events

| Event ID                   | Entrypoint   |   Size |   Instructions |
|----------------------------|--------------|--------|----------------|
| [65535](#event-65535)      | 0x0000       |      1 |              1 |
| [10000](#event-10000)      | 0x0001       |   1761 |            426 |
| [429](#event-429)          | 0x06E2       |      1 |              1 |
| [430](#event-430)          | 0x06E3       |      1 |              1 |
| [435](#event-435)          | 0x06E4       |      1 |              1 |
| [439](#event-439)          | 0x06E5       |      1 |              1 |
| [65535.1](#event-655351)   | 0x06E6       |     16 |              2 |
| [65535.2](#event-655352)   | 0x06F6       |     14 |              2 |
| [440](#event-440)          | 0x0704       |      1 |              1 |
| [441](#event-441)          | 0x0705       |      1 |              1 |
| [448](#event-448)          | 0x0706       |      1 |              1 |
| [449](#event-449)          | 0x0707       |      1 |              1 |
| [65535.3](#event-655353)   | 0x0708       |     16 |              2 |
| [65535.4](#event-655354)   | 0x0718       |     14 |              2 |
| [65535.5](#event-655355)   | 0x0726       |      9 |              3 |
| [65535.6](#event-655356)   | 0x072F       |     16 |              2 |
| [65535.7](#event-655357)   | 0x073F       |     39 |              7 |
| [65535.8](#event-655358)   | 0x0766       |     16 |              2 |
| [65535.9](#event-655359)   | 0x0776       |     14 |              2 |
| [65535.10](#event-6553510) | 0x0784       |     16 |              2 |
| [65535.11](#event-6553511) | 0x0794       |     14 |              2 |
| [65535.12](#event-6553512) | 0x07A2       |     16 |              2 |
| [65535.13](#event-6553513) | 0x07B2       |     14 |              2 |
| [65535.14](#event-6553514) | 0x07C0       |     16 |              2 |
| [65535.15](#event-6553515) | 0x07D0       |     14 |              2 |
| [454](#event-454)          | 0x07DE       |      1 |              1 |
| [455](#event-455)          | 0x07DF       |      1 |              1 |
| [460](#event-460)          | 0x07E0       |      1 |              1 |
| [462](#event-462)          | 0x07E1       |      1 |              1 |

## DAT References (imed_data)

|   Index | Hex Value   |   Dec Value |
|---------|-------------|-------------|
|       0 | 0x1CA9      |        7337 |
|       1 | 0x1CAA      |        7338 |
|       2 | 0x0000      |           0 |
|       3 | 0x0001      |           1 |
|       4 | 0x0002      |           2 |
|       5 | 0x0003      |           3 |
|       6 | 0x1CAD      |        7341 |
|       7 | 0x1CAE      |        7342 |
|       8 | 0x1CAF      |        7343 |
|       9 | 0x1CB0      |        7344 |
|      10 | 0x1CB1      |        7345 |
|      11 | 0x1CB2      |        7346 |
|      12 | 0x1CB3      |        7347 |
|      13 | 0x1CB4      |        7348 |
|      14 | 0x0004      |           4 |
|      15 | 0x40000000  |  1073741824 |
|      16 | 0x1CB5      |        7349 |
|      17 | 0x0005      |           5 |
|      18 | 0x1CBA      |        7354 |
|      19 | 0x0010      |          16 |
|      20 | 0x001F      |          31 |
|      21 | 0x000A      |          10 |
|      22 | 0x0064      |         100 |
|      23 | 0x1CB8      |        7352 |
|      24 | 0x1CB6      |        7350 |
|      25 | 0x0065      |         101 |
|      26 | 0x1CB7      |        7351 |
|      27 | 0x006E      |         110 |
|      28 | 0x0066      |         102 |
|      29 | 0x1CB9      |        7353 |
|      30 | 0x0067      |         103 |
|      31 | 0x0068      |         104 |
|      32 | 0x0069      |         105 |
|      33 | 0x1CBD      |        7357 |
|      34 | 0x000B      |          11 |
|      35 | 0x1CBC      |        7356 |
|      36 | 0x000C      |          12 |
|      37 | 0x000D      |          13 |
|      38 | 0x000E      |          14 |
|      39 | 0x1CBB      |        7355 |
|      40 | 0x3B5F      |       15199 |
|      41 | 0x3B5E      |       15198 |
|      42 | 0x3B64      |       15204 |
|      43 | 0x3E31      |       15921 |
|      44 | 0x0058      |          88 |
|      45 | 0x009A      |         154 |
|      46 | 0x33A0      |       13216 |
|      47 | 0x1CBE      |        7358 |
|      48 | 0x0008      |           8 |
|      49 | 0x2207      |        8711 |
|      50 | 0x33A2      |       13218 |
|      51 | 0x365C      |       13916 |
|      52 | 0x449D      |       17565 |
|      53 | 0x35FC      |       13820 |
|      54 | 0x35FB      |       13819 |
|      55 | 0x3B4A      |       15178 |
|      56 | 0x3BC3      |       15299 |
|      57 | 0x45A6      |       17830 |
|      58 | 0x3872      |       14450 |
|      59 | 0x3C30      |       15408 |
|      60 | 0x3873      |       14451 |
|      61 | 0x3C31      |       15409 |
|      62 | 0x3874      |       14452 |
|      63 | 0x3C32      |       15410 |
|      64 | 0x3875      |       14453 |
|      65 | 0x3C33      |       15411 |
|      66 | 0x3876      |       14454 |
|      67 | 0x3C34      |       15412 |
|      68 | 0x0006      |           6 |
|      69 | 0x3887      |       14471 |
|      70 | 0x3C3F      |       15423 |
|      71 | 0x0007      |           7 |
|      72 | 0x3877      |       14455 |
|      73 | 0x3C35      |       15413 |
|      74 | 0x3878      |       14456 |
|      75 | 0x3C36      |       15414 |
|      76 | 0x46B6      |       18102 |
|      77 | 0x38B7      |       14519 |
|      78 | 0x47DF      |       18399 |
|      79 | 0x3F11      |       16145 |
|      80 | 0x3D88      |       15752 |
|      81 | 0x3EED      |       16109 |
|      82 | 0x499C      |       18844 |
|      83 | 0x4554      |       17748 |
|      84 | 0x220B      |        8715 |
|      85 | 0x0FFE      |        4094 |
|      86 | 0x6BA5      |       27557 |
|      87 | 0x1CBF      |        7359 |
|      88 | 0xC00000    |    12582912 |
|      89 | 0x0018      |          24 |
|      90 | 0x0020      |          32 |
|      91 | 0x0009      |           9 |
|      92 | 0x05EA      |        1514 |
|      93 | 0x33A1      |       13217 |
|      94 | 0x365D      |       13917 |
|      95 | 0x449E      |       17566 |
|      96 | 0x35FE      |       13822 |
|      97 | 0x35FD      |       13821 |
|      98 | 0x3B4B      |       15179 |
|      99 | 0x337D      |       13181 |
|     100 | 0x45A7      |       17831 |
|     101 | 0x3879      |       14457 |
|     102 | 0x3C37      |       15415 |
|     103 | 0x387A      |       14458 |
|     104 | 0x3C38      |       15416 |
|     105 | 0x387B      |       14459 |
|     106 | 0x3C39      |       15417 |
|     107 | 0x387C      |       14460 |
|     108 | 0x3C3A      |       15418 |
|     109 | 0x387D      |       14461 |
|     110 | 0x3C3B      |       15419 |
|     111 | 0x3888      |       14472 |
|     112 | 0x3C40      |       15424 |
|     113 | 0x387E      |       14462 |
|     114 | 0x3C3C      |       15420 |
|     115 | 0x387F      |       14463 |
|     116 | 0x3C3D      |       15421 |
|     117 | 0x46B7      |       18103 |
|     118 | 0x38B8      |       14520 |
|     119 | 0x47E0      |       18400 |
|     120 | 0x3F10      |       16144 |
|     121 | 0x3D89      |       15753 |
|     122 | 0x499D      |       18845 |
|     123 | 0x4555      |       17749 |
|     124 | 0x220A      |        8714 |
|     125 | 0x2259      |        8793 |
|     126 | 0x2219      |        8729 |
|     127 | 0x190D      |        6413 |
|     128 | 0x190C      |        6412 |
|     129 | 0x10002     |       65538 |
|     130 | 0x0040      |          64 |
|     131 | 0x000F      |          15 |
|     132 | 0x0011      |          17 |
|     133 | 0x0012      |          18 |
|     134 | 0x0013      |          19 |
|     135 | 0x0014      |          20 |
|     136 | 0x0015      |          21 |
|     137 | 0x0016      |          22 |
|     138 | 0x0017      |          23 |
|     139 | 0x1CC1      |        7361 |
|     140 | 0x1CC2      |        7362 |
|     141 | 0x1CA5      |        7333 |
|     142 | 0x1CAB      |        7339 |
|     143 | 0x1CA7      |        7335 |
|     144 | 0x1CA8      |        7336 |
|     145 | 0x1CAC      |        7340 |
|     146 | 0x0029      |          41 |
|     147 | 0x002A      |          42 |
|     148 | 0x001E      |          30 |
|     149 | 0x0028      |          40 |

## String References

- **7333**: Currently unable to connect to the World Pass Center. Please try again later.
- **7335**: You need $3 gil to purchase a [World Pass/Gold World Pass]. You do not have enough gil to obtain one.
- **7336**: You need $3 gil to obtain a [World Pass/Gold World Pass].
- **7337**: We can issue you a Gold World Pass, which bestows special benefits and can be used to invite friends to play in the same world as you are in now. How may we help you today?
- **7338**: How may we help you? [I'm fine right now, thanks./Purchase a World Pass./Purchase a Gold World Pass./Tell me about Gold World Passes./Gold World Pass benefits.]
- **7339**: Your World Pass is: "%0" Number of uses left: $1 Pass becomes invalid in: $2 [hour/hours] (Earth time)
- **7340**: Purchase a [World Pass/Gold World Pass]? [Yes./No.]
- **7341**: When using a Gold World Pass to invite a friend to this world, both you and your friend will be eligible for special benefits.
- **7342**: A Gold World Pass cannot be used if your account has more than one character.
- **7343**: A Gold World Pass can be used to invite one person per pass. As with the standard World Pass, a new pass cannot be issued until the current pass expires.
- **7344**: Both the inviter and the invitee will be eligible to receive special items; the invitee five times (once immediately following the generation of a character using the Gold World Pass, followed by 40 days, 70 days, 100 days, and 365 days subsequent to that date) and the inviter four times (the same occasions as the invitee, excluding the time of initial character generation).
- **7345**: Special items can be received by forming a two-person party that includes the inviting and invited character, then choosing the option "Gold World Pass benefits."
- **7346**: It is possible to put special items on hold to be received at a later date. However, please be aware that the following sequence of actions will render you unable to receive your gift.
- **7347**: (1) The invitee accepts the item, but you do not. (2) You claim an item for the same anniversary, but with a different invitee.
- **7348**: There is no limit to the number of Gold World Passes that can be issued to a person, but please be aware that a character can only receive special items from up to fifteen invites.
- **7349**: Please choose this option after forming a two-person party that includes the inviting and invited character.
- **7350**: Please return for your special items in $1 [day/days] (Earth time).
- **7351**: You have already accompanied $2 [person/people] to receive your [1st/40th/70th/100th/365th]-day special item.
- **7352**: You have already accompanied this person to receive your [1st/40th/70th/100th/365th]-day special item.
- **7353**: Your friend has not yet received a special item. Please wait for your friend to receive an item first.
- **7354**: It is time to receive your [1st/40th/70th/100th/365th]-day special item.
- **7355**: You are eligible to select a [1st/40th/70th/100th/365th]-day special item. Please choose from the list below.
- **7356**: If you choose to receive your item, please check whether or not your friend has done the same.
- **7357**: Please be sure to collect your item before claiming another with a different person for the same anniversary. Failure to do so will cause the unclaimed item to be lost forever.
- **7358**: Which item do you choose? [Let me think about it./$8./$9./$10./$11./$12./$13./$14./Special item list I./Special item list II.]
- **7359**: Which item do you choose? [Let me think about it./$8 (set of 12)./$9./$10./$11./$12./$13./$14./$15./$16./$17./$18./$19./$20./$21./$22./$23./$24./$25./$26./$27./$28./$29./$30./Choose a different item.]
- **7361**: Here is your special item.
- **7362**: Accept the item? [Yes./No.]

## Events

### Event 65535

#### Metadata

| Field        | Value   |
|--------------|---------|
| Entrypoint   | 0x0000  |
| Data Size    | 1 bytes |
| Instructions | 1       |

```
      00 01 02 03 04 05 06 07  08 09 0A 0B 0C 0D 0E 0F
      -- -- -- -- -- -- -- --  -- -- -- -- -- -- -- --
0000: 00                                                .               
```

#### Opcodes

```
  0: 0x0000 [0x00] END_REQSTACK()
```

### Event 10000

#### Metadata

| Field        | Value      |
|--------------|------------|
| Entrypoint   | 0x0001     |
| Data Size    | 1761 bytes |
| Instructions | 267        |

```
      00 01 02 03 04 05 06 07  08 09 0A 0B 0C 0D 0E 0F
      -- -- -- -- -- -- -- --  -- -- -- -- -- -- -- --
0000:    06 01 10 1E F0 FF FF  7F 1D 00 80 23 24 01 80   ...........#$..
0010: 02 80 08 10 25 02 00 10  02 80 00 22 00 21 00 01  ....%......".!..
0020: 49 06 02 00 10 03 80 00  34 00 87 00 87 01 06 09  I.......4.......
0030: 10 01 49 06 02 00 10 04  80 00 46 00 87 02 87 01  ..I.......F.....
0040: 05 09 10 01 49 06 02 00  10 05 80 00 74 00 1D 06  ....I.......t...
0050: 80 23 1D 07 80 23 1D 08  80 23 1D 09 80 23 1D 0A  .#...#...#...#..
0060: 80 23 1D 0B 80 23 1D 0C  80 23 1D 0D 80 23 01 0D  .#...#...#...#..
0070: 00 01 49 06 02 00 10 0E  80 00 49 06 02 02 10 02  ..I.......I.....
0080: 80 80 92 00 03 01 10 0F  80 1D 10 80 23 21 00 01  ............#!..
0090: 4B 01 02 02 10 11 80 80  AF 00 1D 12 80 23 06 01  K............#..
00A0: 10 40 13 80 14 80 01 10  02 10 21 00 01 4B 01 02  .@........!..K..
00B0: 02 10 15 80 80 CC 00 1D  12 80 23 06 01 10 40 13  ..........#...@.
00C0: 80 14 80 01 10 02 10 21  00 01 4B 01 02 02 10 16  .......!..K.....
00D0: 80 80 E1 00 1D 17 80 23  1D 18 80 23 21 00 01 4B  .......#...#!..K
00E0: 01 02 02 10 19 80 80 F6  00 1D 1A 80 23 1D 18 80  ............#...
00F0: 23 21 00 01 4B 01 02 02  10 1B 80 80 07 01 1D 18  #!..K...........
0100: 80 23 21 00 01 4B 01 02  02 10 1C 80 80 18 01 1D  .#!..K..........
0110: 1D 80 23 21 00 01 4B 01  02 02 10 1E 80 80 29 01  ..#!..K.......).
0120: 1D 1A 80 23 21 00 01 4B  01 02 02 10 1F 80 80 3A  ...#!..K.......:
0130: 01 1D 17 80 23 21 00 01  4B 01 02 02 10 20 80 80  ....#!..K.... ..
0140: 4B 01 1D 1A 80 23 21 00  01 4B 01 02 02 10 03 80  K....#!..K......
0150: 00 57 01 1D 21 80 23 02  02 10 04 80 00 63 01 1D  .W..!.#......c..
0160: 21 80 23 02 02 10 05 80  00 6F 01 1D 21 80 23 02  !.#......o..!.#.
0170: 02 10 0E 80 00 7B 01 1D  21 80 23 02 02 10 22 80  .....{..!.#...".
0180: 00 87 01 1D 23 80 23 02  02 10 24 80 00 93 01 1D  ....#.#...$.....
0190: 23 80 23 02 02 10 25 80  00 9F 01 1D 23 80 23 02  #.#...%.....#.#.
01A0: 02 10 26 80 00 AB 01 1D  23 80 23 1D 27 80 23 03  ..&.....#.#.'.#.
01B0: 00 17 28 80 03 01 17 29  80 03 02 17 2A 80 03 03  ..(....)....*...
01C0: 17 2B 80 03 04 17 2C 80  03 05 17 2D 80 03 06 17  .+....,....-....
01D0: 2E 80 06 00 00 24 2F 80  02 80 07 10 25 02 00 10  .....$/.....%...
01E0: 02 80 00 EF 01 03 01 10  0F 80 21 00 01 A1 04 02  ..........!.....
01F0: 00 10 30 80 00 48 03 03  00 17 31 80 03 01 17 32  ..0..H....1....2
0200: 80 03 02 17 33 80 03 03  17 34 80 02 8B 7F 02 80  ....3....4......
0210: 00 1B 02 03 04 17 35 80  01 20 02 03 04 17 36 80  ......5.. ....6.
0220: 03 05 17 37 80 03 06 17  38 80 03 07 17 39 80 02  ...7....8....9..
0230: 87 7F 03 80 80 44 02 03  08 17 3A 80 03 09 17 3B  .....D....:....;
0240: 80 01 D7 02 02 87 7F 04  80 80 59 02 03 08 17 3C  ..........Y....<
0250: 80 03 09 17 3D 80 01 D7  02 02 87 7F 05 80 80 6E  ....=..........n
0260: 02 03 08 17 3E 80 03 09  17 3F 80 01 D7 02 02 87  ....>....?......
0270: 7F 0E 80 80 83 02 03 08  17 40 80 03 09 17 41 80  .........@....A.
0280: 01 D7 02 02 87 7F 11 80  80 98 02 03 08 17 42 80  ..............B.
0290: 03 09 17 43 80 01 D7 02  02 87 7F 44 80 80 AD 02  ...C.......D....
02A0: 03 08 17 45 80 03 09 17  46 80 01 D7 02 02 87 7F  ...E....F.......
02B0: 47 80 80 C2 02 03 08 17  48 80 03 09 17 49 80 01  G.......H....I..
02C0: D7 02 02 87 7F 30 80 80  D7 02 03 08 17 4A 80 03  .....0.......J..
02D0: 09 17 4B 80 01 D7 02 03  0A 17 4C 80 03 0B 17 4D  ..K.......L....M
02E0: 80 03 0C 17 4E 80 03 0D  17 4F 80 03 0E 17 50 80  ....N....O....P.
02F0: 03 0F 17 51 80 03 10 17  52 80 03 11 17 53 80 03  ...Q....R....S..
0300: 12 17 54 80 03 13 17 55  80 03 14 17 56 80 03 15  ..T....U....V...
0310: 17 04 80 03 16 17 04 80  24 57 80 02 80 58 80 25  ........$W...X.%
0320: 02 00 10 02 80 00 32 03  03 01 10 0F 80 21 00 01  ......2......!..
0330: 40 03 02 00 10 59 80 00  40 03 01 AF 01 01 40 03  @....Y..@.....@.
0340: 03 00 00 5A 80 01 A1 04  02 00 10 5B 80 00 A1 04  ...Z.......[....
0350: 03 00 17 5C 80 03 01 17  5D 80 03 02 17 5E 80 03  ...\....]....^..
0360: 03 17 5F 80 02 8B 7F 02  80 00 74 03 03 04 17 60  .._.......t....`
0370: 80 01 79 03 03 04 17 61  80 03 05 17 62 80 03 06  ..y....a....b...
0380: 17 63 80 03 07 17 64 80  02 87 7F 03 80 80 9D 03  .c....d.........
0390: 03 08 17 65 80 03 09 17  66 80 01 30 04 02 87 7F  ...e....f..0....
03A0: 04 80 80 B2 03 03 08 17  67 80 03 09 17 68 80 01  ........g....h..
03B0: 30 04 02 87 7F 05 80 80  C7 03 03 08 17 69 80 03  0............i..
03C0: 09 17 6A 80 01 30 04 02  87 7F 0E 80 80 DC 03 03  ..j..0..........
03D0: 08 17 6B 80 03 09 17 6C  80 01 30 04 02 87 7F 11  ..k....l..0.....
03E0: 80 80 F1 03 03 08 17 6D  80 03 09 17 6E 80 01 30  .......m....n..0
03F0: 04 02 87 7F 44 80 80 06  04 03 08 17 6F 80 03 09  ....D.......o...
0400: 17 70 80 01 30 04 02 87  7F 47 80 80 1B 04 03 08  .p..0....G......
0410: 17 71 80 03 09 17 72 80  01 30 04 02 87 7F 30 80  .q....r..0....0.
0420: 80 30 04 03 08 17 73 80  03 09 17 74 80 01 30 04  .0....s....t..0.
0430: 03 0A 17 75 80 03 0B 17  76 80 03 0C 17 77 80 03  ...u....v....w..
0440: 0D 17 78 80 03 0E 17 79  80 03 0F 17 03 80 03 10  ..x....y........
0450: 17 7A 80 03 11 17 7B 80  03 12 17 7C 80 03 13 17  .z....{....|....
0460: 7D 80 03 14 17 7E 80 03  15 17 7F 80 03 16 17 80  }....~..........
0470: 80 24 57 80 02 80 81 80  25 02 00 10 02 80 00 8B  .$W.....%.......
0480: 04 03 01 10 0F 80 21 00  01 99 04 02 00 10 59 80  ......!.......Y.
0490: 00 99 04 01 AF 01 01 99  04 03 00 00 82 80 01 A1  ................
04A0: 04 02 00 10 03 80 80 B1  04 03 01 00 00 17 01 11  ................
04B0: 06 02 00 10 04 80 80 C1  04 03 01 00 01 17 01 11  ................
04C0: 06 02 00 10 05 80 80 D1  04 03 01 00 02 17 01 11  ................
04D0: 06 02 00 10 0E 80 80 E1  04 03 01 00 03 17 01 11  ................
04E0: 06 02 00 10 11 80 80 F1  04 03 01 00 04 17 01 11  ................
04F0: 06 02 00 10 44 80 80 01  05 03 01 00 05 17 01 11  ....D...........
0500: 06 02 00 10 47 80 80 11  05 03 01 00 06 17 01 11  ....G...........
0510: 06 02 00 10 30 80 80 21  05 03 01 00 07 17 01 11  ....0..!........
0520: 06 02 00 10 5B 80 80 31  05 03 01 00 08 17 01 11  ....[..1........
0530: 06 02 00 10 15 80 80 41  05 03 01 00 09 17 01 11  .......A........
0540: 06 02 00 10 22 80 80 51  05 03 01 00 0A 17 01 11  ...."..Q........
0550: 06 02 00 10 24 80 80 61  05 03 01 00 0B 17 01 11  ....$..a........
0560: 06 02 00 10 25 80 80 71  05 03 01 00 0C 17 01 11  ....%..q........
0570: 06 02 00 10 26 80 80 81  05 03 01 00 0D 17 01 11  ....&...........
0580: 06 02 00 10 83 80 80 91  05 03 01 00 0E 17 01 11  ................
0590: 06 02 00 10 13 80 80 A1  05 03 01 00 0F 17 01 11  ................
05A0: 06 02 00 10 84 80 80 B1  05 03 01 00 10 17 01 11  ................
05B0: 06 02 00 10 85 80 80 C1  05 03 01 00 11 17 01 11  ................
05C0: 06 02 00 10 86 80 80 D1  05 03 01 00 12 17 01 11  ................
05D0: 06 02 00 10 87 80 80 E1  05 03 01 00 13 17 01 11  ................
05E0: 06 02 00 10 88 80 80 F1  05 03 01 00 14 17 01 11  ................
05F0: 06 02 00 10 89 80 80 01  06 03 01 00 15 17 01 11  ................
0600: 06 02 00 10 8A 80 80 11  06 03 01 00 16 17 01 11  ................
0610: 06 03 01 10 00 10 07 01  10 00 00 93 01 00 1D 8B  ................
0620: 80 23 93 02 80 24 8C 80  03 80 02 80 25 02 00 10  .#...$......%...
0630: 03 80 00 3B 06 01 AF 01  01 3B 06 40 13 80 14 80  ...;.....;.@....
0640: 01 10 02 10 21 00 01 49  06 02 02 10 02 80 80 5A  ....!..I.......Z
0650: 06 1D 8D 80 23 21 00 01  87 06 02 02 10 03 80 80  ....#!..........
0660: 6B 06 1D 8E 80 23 21 00  01 87 06 02 02 10 04 80  k....#!.........
0670: 80 7C 06 1D 8F 80 23 21  00 01 87 06 02 02 10 05  .|....#!........
0680: 80 80 87 06 01 87 06 1D  90 80 23 24 91 80 02 80  ..........#$....
0690: 02 80 25 02 00 10 03 80  00 A0 06 21 00 01 A0 06  ..%........!....
06A0: 02 09 10 02 80 00 AF 06  88 00 88 01 01 B3 06 88  ................
06B0: 02 88 01 02 02 10 0E 80  80 C2 06 1D 8F 80 23 01  ..............#.
06C0: E0 06 02 02 10 11 80 80  D1 06 1D 8D 80 23 01 E0  .............#..
06D0: 06 02 02 10 44 80 80 E0  06 1D 8E 80 23 01 E0 06  ....D.......#...
06E0: 21 00                                             !.              
```

#### Opcodes

```
  0: 0x0001 [0x06] Work_Zone[1] = 0
  1: 0x0004 [0x1E] EventEntity looks at LocalPlayer and starts talking
  2: 0x0009 [0x1D] PRINT_EVENT_MESSAGE(message_id=7337*)
    → "We can issue you a Gold World Pass, which bestows special benefits and can be used to invite friends to play in the same world as you are in now. How may we help you today?"
  3: 0x000C [0x23] WAIT_FOR_DIALOG_INTERACTION
  4: 0x000D [0x24] CREATE_DIALOG(message_id=7338*, default_option=0*, option_flags=Work_Zone[8])
    → "How may we help you? [I'm fine right now, thanks./Purchase a World Pass./Purchase a Gold World Pass./Tell me about Gold World Passes./Gold World Pass benefits.]"
  5: 0x0014 [0x25] WAIT_DIALOG_SELECT()
  6: 0x0015 [0x02] IF !(Work_Zone[0] == 0*) GOTO 0x0022
  7: 0x001D [0x21] END_EVENT
  8: 0x001E [0x00] END_REQSTACK()

SUBROUTINE_014B:
  9: 0x014B [0x02] IF !(Work_Zone[2] == 1*) GOTO 0x0157
 10: 0x0153 [0x1D] PRINT_EVENT_MESSAGE(message_id=7357*)
    → "Please be sure to collect your item before claiming another with a different person for the same anniversary. Failure to do so will cause the unclaimed item to be lost forever."
 11: 0x0156 [0x23] WAIT_FOR_DIALOG_INTERACTION
 12: 0x0157 [0x02] IF !(Work_Zone[2] == 2*) GOTO 0x0163
 13: 0x015F [0x1D] PRINT_EVENT_MESSAGE(message_id=7357*)
    → "Please be sure to collect your item before claiming another with a different person for the same anniversary. Failure to do so will cause the unclaimed item to be lost forever."
 14: 0x0162 [0x23] WAIT_FOR_DIALOG_INTERACTION
 15: 0x0163 [0x02] IF !(Work_Zone[2] == 3*) GOTO 0x016F
 16: 0x016B [0x1D] PRINT_EVENT_MESSAGE(message_id=7357*)
    → "Please be sure to collect your item before claiming another with a different person for the same anniversary. Failure to do so will cause the unclaimed item to be lost forever."
 17: 0x016E [0x23] WAIT_FOR_DIALOG_INTERACTION
 18: 0x016F [0x02] IF !(Work_Zone[2] == 4*) GOTO 0x017B
 19: 0x0177 [0x1D] PRINT_EVENT_MESSAGE(message_id=7357*)
    → "Please be sure to collect your item before claiming another with a different person for the same anniversary. Failure to do so will cause the unclaimed item to be lost forever."
 20: 0x017A [0x23] WAIT_FOR_DIALOG_INTERACTION
 21: 0x017B [0x02] IF !(Work_Zone[2] == 11*) GOTO 0x0187
 22: 0x0183 [0x1D] PRINT_EVENT_MESSAGE(message_id=7356*)
    → "If you choose to receive your item, please check whether or not your friend has done the same."
 23: 0x0186 [0x23] WAIT_FOR_DIALOG_INTERACTION
 24: 0x0187 [0x02] IF !(Work_Zone[2] == 12*) GOTO 0x0193
 25: 0x018F [0x1D] PRINT_EVENT_MESSAGE(message_id=7356*)
    → "If you choose to receive your item, please check whether or not your friend has done the same."
 26: 0x0192 [0x23] WAIT_FOR_DIALOG_INTERACTION
 27: 0x0193 [0x02] IF !(Work_Zone[2] == 13*) GOTO 0x019F
 28: 0x019B [0x1D] PRINT_EVENT_MESSAGE(message_id=7356*)
    → "If you choose to receive your item, please check whether or not your friend has done the same."
 29: 0x019E [0x23] WAIT_FOR_DIALOG_INTERACTION
 30: 0x019F [0x02] IF !(Work_Zone[2] == 14*) GOTO 0x01AB
 31: 0x01A7 [0x1D] PRINT_EVENT_MESSAGE(message_id=7356*)
    → "If you choose to receive your item, please check whether or not your friend has done the same."
 32: 0x01AA [0x23] WAIT_FOR_DIALOG_INTERACTION
 33: 0x01AB [0x1D] PRINT_EVENT_MESSAGE(message_id=7355*)
    → "You are eligible to select a [1st/40th/70th/100th/365th]-day special item. Please choose from the list below."
 34: 0x01AE [0x23] WAIT_FOR_DIALOG_INTERACTION

SUBROUTINE_01AF:
 35: 0x01AF [0x03] Work_Zone_1700[0] = 15199*
 36: 0x01B4 [0x03] Work_Zone_1700[1] = 15198*
 37: 0x01B9 [0x03] Work_Zone_1700[2] = 15204*
 38: 0x01BE [0x03] Work_Zone_1700[3] = 15921*
 39: 0x01C3 [0x03] Work_Zone_1700[4] = 88*
 40: 0x01C8 [0x03] Work_Zone_1700[5] = 154*
 41: 0x01CD [0x03] Work_Zone_1700[6] = 13216*
 42: 0x01D2 [0x06] ExtData[1]->WorkLocal[0] = 0
 43: 0x01D5 [0x24] CREATE_DIALOG(message_id=7358*, default_option=0*, option_flags=Work_Zone[7])
    → "Which item do you choose? [Let me think about it./$8./$9./$10./$11./$12./$13./$14./Special item list I./Special item list II.]"
 44: 0x01DC [0x25] WAIT_DIALOG_SELECT()
 45: 0x01DD [0x02] IF !(Work_Zone[0] == 0*) GOTO 0x01EF
 46: 0x01E5 [0x03] Work_Zone[1] = 1073741824*
 47: 0x01EA [0x21] END_EVENT
 48: 0x01EB [0x00] END_REQSTACK()

SUBROUTINE_0220:
 49: 0x0220 [0x03] Work_Zone_1700[5] = 15178*
 50: 0x0225 [0x03] Work_Zone_1700[6] = 15299*
 51: 0x022A [0x03] Work_Zone_1700[7] = 17830*
 52: 0x022F [0x02] IF !(LocalPlayer->Race == 1*) GOTO 0x0244
 53: 0x0237 [0x03] Work_Zone_1700[8] = 14450*
 54: 0x023C [0x03] Work_Zone_1700[9] = 15408*
 55: 0x0241 [0x01] GOTO 0x02D7
 56: 0x0244 [0x02] IF !(LocalPlayer->Race == 2*) GOTO 0x0259
 57: 0x024C [0x03] Work_Zone_1700[8] = 14451*
 58: 0x0251 [0x03] Work_Zone_1700[9] = 15409*
 59: 0x0256 [0x01] GOTO 0x02D7
 60: 0x0259 [0x02] IF !(LocalPlayer->Race == 3*) GOTO 0x026E
 61: 0x0261 [0x03] Work_Zone_1700[8] = 14452*
 62: 0x0266 [0x03] Work_Zone_1700[9] = 15410*
 63: 0x026B [0x01] GOTO 0x02D7
 64: 0x026E [0x02] IF !(LocalPlayer->Race == 4*) GOTO 0x0283
 65: 0x0276 [0x03] Work_Zone_1700[8] = 14453*
 66: 0x027B [0x03] Work_Zone_1700[9] = 15411*
 67: 0x0280 [0x01] GOTO 0x02D7
 68: 0x0283 [0x02] IF !(LocalPlayer->Race == 5*) GOTO 0x0298
 69: 0x028B [0x03] Work_Zone_1700[8] = 14454*
 70: 0x0290 [0x03] Work_Zone_1700[9] = 15412*
 71: 0x0295 [0x01] GOTO 0x02D7
 72: 0x0298 [0x02] IF !(LocalPlayer->Race == 6*) GOTO 0x02AD
 73: 0x02A0 [0x03] Work_Zone_1700[8] = 14471*
 74: 0x02A5 [0x03] Work_Zone_1700[9] = 15423*
 75: 0x02AA [0x01] GOTO 0x02D7
 76: 0x02AD [0x02] IF !(LocalPlayer->Race == 7*) GOTO 0x02C2
 77: 0x02B5 [0x03] Work_Zone_1700[8] = 14455*
 78: 0x02BA [0x03] Work_Zone_1700[9] = 15413*
 79: 0x02BF [0x01] GOTO 0x02D7
 80: 0x02C2 [0x02] IF !(LocalPlayer->Race == 8*) GOTO 0x02D7
 81: 0x02CA [0x03] Work_Zone_1700[8] = 14456*
 82: 0x02CF [0x03] Work_Zone_1700[9] = 15414*
 83: 0x02D4 [0x01] GOTO 0x02D7

SUBROUTINE_02D7:
 84: 0x02D7 [0x03] Work_Zone_1700[10] = 18102*
 85: 0x02DC [0x03] Work_Zone_1700[11] = 14519*
 86: 0x02E1 [0x03] Work_Zone_1700[12] = 18399*
 87: 0x02E6 [0x03] Work_Zone_1700[13] = 16145*
 88: 0x02EB [0x03] Work_Zone_1700[14] = 15752*
 89: 0x02F0 [0x03] Work_Zone_1700[15] = 16109*
 90: 0x02F5 [0x03] Work_Zone_1700[16] = 18844*
 91: 0x02FA [0x03] Work_Zone_1700[17] = 17748*
 92: 0x02FF [0x03] Work_Zone_1700[18] = 8715*
 93: 0x0304 [0x03] Work_Zone_1700[19] = 4094*
 94: 0x0309 [0x03] Work_Zone_1700[20] = 27557*
 95: 0x030E [0x03] Work_Zone_1700[21] = 2*
 96: 0x0313 [0x03] Work_Zone_1700[22] = 2*
 97: 0x0318 [0x24] CREATE_DIALOG(message_id=7359*, default_option=0*, option_flags=12582912*)
    → "Which item do you choose? [Let me think about it./$8 (set of 12)./$9./$10./$11./$12./$13./$14./$15./$16./$17./$18./$19./$20./$21./$22./$23./$24./$25./$26./$27./$28./$29./$30./Choose a different item.]"
 98: 0x031F [0x25] WAIT_DIALOG_SELECT()
 99: 0x0320 [0x02] IF !(Work_Zone[0] == 0*) GOTO 0x0332
100: 0x0328 [0x03] Work_Zone[1] = 1073741824*
101: 0x032D [0x21] END_EVENT
102: 0x032E [0x00] END_REQSTACK()

SUBROUTINE_0340:
103: 0x0340 [0x03] ExtData[1]->WorkLocal[0] = 32*
104: 0x0345 [0x01] GOTO 0x04A1
105: 0x0348 [0x02] IF !(Work_Zone[0] == 9*) GOTO 0x04A1
106: 0x0350 [0x03] Work_Zone_1700[0] = 1514*
107: 0x0355 [0x03] Work_Zone_1700[1] = 13217*
108: 0x035A [0x03] Work_Zone_1700[2] = 13917*
109: 0x035F [0x03] Work_Zone_1700[3] = 17566*
110: 0x0364 [0x02] IF !((LocalPlayer->Render.Flags01 >> 25) & 1 == 0*) GOTO 0x0374
111: 0x036C [0x03] Work_Zone_1700[4] = 13822*
112: 0x0371 [0x01] GOTO 0x0379
113: 0x0374 [0x03] Work_Zone_1700[4] = 13821*

SUBROUTINE_0379:
114: 0x0379 [0x03] Work_Zone_1700[5] = 15179*
115: 0x037E [0x03] Work_Zone_1700[6] = 13181*
116: 0x0383 [0x03] Work_Zone_1700[7] = 17831*
117: 0x0388 [0x02] IF !(LocalPlayer->Race == 1*) GOTO 0x039D
118: 0x0390 [0x03] Work_Zone_1700[8] = 14457*
119: 0x0395 [0x03] Work_Zone_1700[9] = 15415*
120: 0x039A [0x01] GOTO 0x0430
121: 0x039D [0x02] IF !(LocalPlayer->Race == 2*) GOTO 0x03B2
122: 0x03A5 [0x03] Work_Zone_1700[8] = 14458*
123: 0x03AA [0x03] Work_Zone_1700[9] = 15416*
124: 0x03AF [0x01] GOTO 0x0430
125: 0x03B2 [0x02] IF !(LocalPlayer->Race == 3*) GOTO 0x03C7
126: 0x03BA [0x03] Work_Zone_1700[8] = 14459*
127: 0x03BF [0x03] Work_Zone_1700[9] = 15417*
128: 0x03C4 [0x01] GOTO 0x0430
129: 0x03C7 [0x02] IF !(LocalPlayer->Race == 4*) GOTO 0x03DC
130: 0x03CF [0x03] Work_Zone_1700[8] = 14460*
131: 0x03D4 [0x03] Work_Zone_1700[9] = 15418*
132: 0x03D9 [0x01] GOTO 0x0430
133: 0x03DC [0x02] IF !(LocalPlayer->Race == 5*) GOTO 0x03F1
134: 0x03E4 [0x03] Work_Zone_1700[8] = 14461*
135: 0x03E9 [0x03] Work_Zone_1700[9] = 15419*
136: 0x03EE [0x01] GOTO 0x0430
137: 0x03F1 [0x02] IF !(LocalPlayer->Race == 6*) GOTO 0x0406
138: 0x03F9 [0x03] Work_Zone_1700[8] = 14472*
139: 0x03FE [0x03] Work_Zone_1700[9] = 15424*
140: 0x0403 [0x01] GOTO 0x0430
141: 0x0406 [0x02] IF !(LocalPlayer->Race == 7*) GOTO 0x041B
142: 0x040E [0x03] Work_Zone_1700[8] = 14462*
143: 0x0413 [0x03] Work_Zone_1700[9] = 15420*
144: 0x0418 [0x01] GOTO 0x0430
145: 0x041B [0x02] IF !(LocalPlayer->Race == 8*) GOTO 0x0430
146: 0x0423 [0x03] Work_Zone_1700[8] = 14463*
147: 0x0428 [0x03] Work_Zone_1700[9] = 15421*
148: 0x042D [0x01] GOTO 0x0430

SUBROUTINE_0430:
149: 0x0430 [0x03] Work_Zone_1700[10] = 18103*
150: 0x0435 [0x03] Work_Zone_1700[11] = 14520*
151: 0x043A [0x03] Work_Zone_1700[12] = 18400*
152: 0x043F [0x03] Work_Zone_1700[13] = 16144*
153: 0x0444 [0x03] Work_Zone_1700[14] = 15753*
154: 0x0449 [0x03] Work_Zone_1700[15] = 1*
155: 0x044E [0x03] Work_Zone_1700[16] = 18845*
156: 0x0453 [0x03] Work_Zone_1700[17] = 17749*
157: 0x0458 [0x03] Work_Zone_1700[18] = 8714*
158: 0x045D [0x03] Work_Zone_1700[19] = 8793*
159: 0x0462 [0x03] Work_Zone_1700[20] = 8729*
160: 0x0467 [0x03] Work_Zone_1700[21] = 6413*
161: 0x046C [0x03] Work_Zone_1700[22] = 6412*
162: 0x0471 [0x24] CREATE_DIALOG(message_id=7359*, default_option=0*, option_flags=65538*)
    → "Which item do you choose? [Let me think about it./$8 (set of 12)./$9./$10./$11./$12./$13./$14./$15./$16./$17./$18./$19./$20./$21./$22./$23./$24./$25./$26./$27./$28./$29./$30./Choose a different item.]"
163: 0x0478 [0x25] WAIT_DIALOG_SELECT()
164: 0x0479 [0x02] IF !(Work_Zone[0] == 0*) GOTO 0x048B
165: 0x0481 [0x03] Work_Zone[1] = 1073741824*
166: 0x0486 [0x21] END_EVENT
167: 0x0487 [0x00] END_REQSTACK()

SUBROUTINE_0499:
168: 0x0499 [0x03] ExtData[1]->WorkLocal[0] = 64*
169: 0x049E [0x01] GOTO 0x04A1

SUBROUTINE_04A1:
170: 0x04A1 [0x02] IF !(Work_Zone[0] == 1*) GOTO 0x04B1
171: 0x04A9 [0x03] ExtData[1]->WorkLocal[1] = Work_Zone_1700[0]
172: 0x04AE [0x01] GOTO 0x0611
173: 0x04B1 [0x02] IF !(Work_Zone[0] == 2*) GOTO 0x04C1
174: 0x04B9 [0x03] ExtData[1]->WorkLocal[1] = Work_Zone_1700[1]
175: 0x04BE [0x01] GOTO 0x0611
176: 0x04C1 [0x02] IF !(Work_Zone[0] == 3*) GOTO 0x04D1
177: 0x04C9 [0x03] ExtData[1]->WorkLocal[1] = Work_Zone_1700[2]
178: 0x04CE [0x01] GOTO 0x0611
179: 0x04D1 [0x02] IF !(Work_Zone[0] == 4*) GOTO 0x04E1
180: 0x04D9 [0x03] ExtData[1]->WorkLocal[1] = Work_Zone_1700[3]
181: 0x04DE [0x01] GOTO 0x0611
182: 0x04E1 [0x02] IF !(Work_Zone[0] == 5*) GOTO 0x04F1
183: 0x04E9 [0x03] ExtData[1]->WorkLocal[1] = Work_Zone_1700[4]
184: 0x04EE [0x01] GOTO 0x0611
185: 0x04F1 [0x02] IF !(Work_Zone[0] == 6*) GOTO 0x0501
186: 0x04F9 [0x03] ExtData[1]->WorkLocal[1] = Work_Zone_1700[5]
187: 0x04FE [0x01] GOTO 0x0611
188: 0x0501 [0x02] IF !(Work_Zone[0] == 7*) GOTO 0x0511
189: 0x0509 [0x03] ExtData[1]->WorkLocal[1] = Work_Zone_1700[6]
190: 0x050E [0x01] GOTO 0x0611
191: 0x0511 [0x02] IF !(Work_Zone[0] == 8*) GOTO 0x0521
192: 0x0519 [0x03] ExtData[1]->WorkLocal[1] = Work_Zone_1700[7]
193: 0x051E [0x01] GOTO 0x0611
194: 0x0521 [0x02] IF !(Work_Zone[0] == 9*) GOTO 0x0531
195: 0x0529 [0x03] ExtData[1]->WorkLocal[1] = Work_Zone_1700[8]
196: 0x052E [0x01] GOTO 0x0611
197: 0x0531 [0x02] IF !(Work_Zone[0] == 10*) GOTO 0x0541
198: 0x0539 [0x03] ExtData[1]->WorkLocal[1] = Work_Zone_1700[9]
199: 0x053E [0x01] GOTO 0x0611
200: 0x0541 [0x02] IF !(Work_Zone[0] == 11*) GOTO 0x0551
201: 0x0549 [0x03] ExtData[1]->WorkLocal[1] = Work_Zone_1700[10]
202: 0x054E [0x01] GOTO 0x0611
203: 0x0551 [0x02] IF !(Work_Zone[0] == 12*) GOTO 0x0561
204: 0x0559 [0x03] ExtData[1]->WorkLocal[1] = Work_Zone_1700[11]
205: 0x055E [0x01] GOTO 0x0611
206: 0x0561 [0x02] IF !(Work_Zone[0] == 13*) GOTO 0x0571
207: 0x0569 [0x03] ExtData[1]->WorkLocal[1] = Work_Zone_1700[12]
208: 0x056E [0x01] GOTO 0x0611
209: 0x0571 [0x02] IF !(Work_Zone[0] == 14*) GOTO 0x0581
210: 0x0579 [0x03] ExtData[1]->WorkLocal[1] = Work_Zone_1700[13]
211: 0x057E [0x01] GOTO 0x0611
212: 0x0581 [0x02] IF !(Work_Zone[0] == 15*) GOTO 0x0591
213: 0x0589 [0x03] ExtData[1]->WorkLocal[1] = Work_Zone_1700[14]
214: 0x058E [0x01] GOTO 0x0611
215: 0x0591 [0x02] IF !(Work_Zone[0] == 16*) GOTO 0x05A1
216: 0x0599 [0x03] ExtData[1]->WorkLocal[1] = Work_Zone_1700[15]
217: 0x059E [0x01] GOTO 0x0611
218: 0x05A1 [0x02] IF !(Work_Zone[0] == 17*) GOTO 0x05B1
219: 0x05A9 [0x03] ExtData[1]->WorkLocal[1] = Work_Zone_1700[16]
220: 0x05AE [0x01] GOTO 0x0611
221: 0x05B1 [0x02] IF !(Work_Zone[0] == 18*) GOTO 0x05C1
222: 0x05B9 [0x03] ExtData[1]->WorkLocal[1] = Work_Zone_1700[17]
223: 0x05BE [0x01] GOTO 0x0611
224: 0x05C1 [0x02] IF !(Work_Zone[0] == 19*) GOTO 0x05D1
225: 0x05C9 [0x03] ExtData[1]->WorkLocal[1] = Work_Zone_1700[18]
226: 0x05CE [0x01] GOTO 0x0611
227: 0x05D1 [0x02] IF !(Work_Zone[0] == 20*) GOTO 0x05E1
228: 0x05D9 [0x03] ExtData[1]->WorkLocal[1] = Work_Zone_1700[19]
229: 0x05DE [0x01] GOTO 0x0611
230: 0x05E1 [0x02] IF !(Work_Zone[0] == 21*) GOTO 0x05F1
231: 0x05E9 [0x03] ExtData[1]->WorkLocal[1] = Work_Zone_1700[20]
232: 0x05EE [0x01] GOTO 0x0611
233: 0x05F1 [0x02] IF !(Work_Zone[0] == 22*) GOTO 0x0601
234: 0x05F9 [0x03] ExtData[1]->WorkLocal[1] = Work_Zone_1700[21]
235: 0x05FE [0x01] GOTO 0x0611
236: 0x0601 [0x02] IF !(Work_Zone[0] == 23*) GOTO 0x0611
237: 0x0609 [0x03] ExtData[1]->WorkLocal[1] = Work_Zone_1700[22]
238: 0x060E [0x01] GOTO 0x0611

SUBROUTINE_0611:
239: 0x0611 [0x03] Work_Zone[1] = Work_Zone[0]
240: 0x0616 [0x07] Work_Zone[1] += ExtData[1]->WorkLocal[0]
241: 0x061B [0x93] DISPLAY_ITEM_INFO(item_id=ExtData[1]->WorkLocal[1])
242: 0x061E [0x1D] PRINT_EVENT_MESSAGE(message_id=7361*)
    → "Here is your special item."
243: 0x0621 [0x23] WAIT_FOR_DIALOG_INTERACTION
244: 0x0622 [0x93] DISPLAY_ITEM_INFO(item_id=0*)
245: 0x0625 [0x24] CREATE_DIALOG(message_id=7362*, default_option=1*, option_flags=0*)
    → "Accept the item? [Yes./No.]"
246: 0x062C [0x25] WAIT_DIALOG_SELECT()
247: 0x062D [0x02] IF !(Work_Zone[0] == 1*) GOTO 0x063B
248: 0x0635 [0x01] GOTO 0x01AF

SUBROUTINE_063B:
249: 0x063B [0x40] SET_BIT_WORK_RANGE(start_bit=16*, end_bit=31*, target=Work_Zone[1], source=Work_Zone[2])
250: 0x0644 [0x21] END_EVENT
251: 0x0645 [0x00] END_REQSTACK()

SUBROUTINE_0649:
252: 0x0649 [0x02] IF !(Work_Zone[2] == 0*) GOTO 0x065A
253: 0x0651 [0x1D] PRINT_EVENT_MESSAGE(message_id=7333*)
    → "Currently unable to connect to the World Pass Center. Please try again later."
254: 0x0654 [0x23] WAIT_FOR_DIALOG_INTERACTION
255: 0x0655 [0x21] END_EVENT
256: 0x0656 [0x00] END_REQSTACK()

SUBROUTINE_0687:
257: 0x0687 [0x1D] PRINT_EVENT_MESSAGE(message_id=7336*)
    → "You need $3 gil to obtain a [World Pass/Gold World Pass]."
258: 0x068A [0x23] WAIT_FOR_DIALOG_INTERACTION
259: 0x068B [0x24] CREATE_DIALOG(message_id=7340*, default_option=0*, option_flags=0*)
    → "Purchase a [World Pass/Gold World Pass]? [Yes./No.]"
260: 0x0692 [0x25] WAIT_DIALOG_SELECT()
261: 0x0693 [0x02] IF !(Work_Zone[0] == 1*) GOTO 0x06A0
262: 0x069B [0x21] END_EVENT
263: 0x069C [0x00] END_REQSTACK()

SUBROUTINE_06A0:
264: 0x06A0 [0x02] IF !(Work_Zone[9] == 0*) GOTO 0x06AF
265: 0x06A8 [0x88] WORLD_PASS_HANDLER_B: Send world pass packet 0x1B (Para=1, sets RecFriendPassFlag)
266: 0x06A9 [0x00] END_REQSTACK()
```

#### Data or dead code:

```
# Dead code (unreachable instructions):
     0x001F [0x01] GOTO 0x0649
     0x002C [0x87] WORLD_PASS_HANDLER_A: Send world pass packet 0x1B (Para=0)
     0x002D [0x01] GOTO 0x0906
     0x0030 [0x10] 0x4901 <<= 0x0206
     0x003C [0x87] WORLD_PASS_HANDLER_A: Send world pass packet 0x1B (Para=2)
     0x003E [0x87] WORLD_PASS_HANDLER_A: Send world pass packet 0x1B (Para=0)
     0x003F [0x01] GOTO 0x0905
     0x0042 [0x10] 0x4901 <<= 0x0206
     0x0071 [0x01] GOTO 0x0649
     0x008F [0x01] GOTO 0x014B
     0x00AC [0x01] GOTO 0x014B
     0x00C9 [0x01] GOTO 0x014B
     0x00DE [0x01] GOTO 0x014B
     0x00F3 [0x01] GOTO 0x014B
     0x0104 [0x01] GOTO 0x014B
     0x0115 [0x01] GOTO 0x014B
     0x0126 [0x01] GOTO 0x014B
     0x0137 [0x01] GOTO 0x014B
     0x0148 [0x01] GOTO 0x014B
# Dead code (unreachable instructions):
     0x01EC [0x01] GOTO 0x04A1
# Dead code (unreachable instructions):
     0x032F [0x01] GOTO 0x0340
     0x033D [0x01] GOTO 0x0340
# Dead code (unreachable instructions):
     0x0488 [0x01] GOTO 0x0499
     0x0496 [0x01] GOTO 0x0499
# Dead code (unreachable instructions):
     0x0638 [0x01] GOTO 0x063B
# Dead code (unreachable instructions):
     0x0646 [0x01] GOTO 0x0649
# Dead code (unreachable instructions):
     0x0657 [0x01] GOTO 0x0687
     0x0668 [0x01] GOTO 0x0687
     0x0679 [0x01] GOTO 0x0687
# Dead code (unreachable instructions):
     0x069D [0x01] GOTO 0x06A0
# Dead code (unreachable instructions):
     0x06AA [0x88] WORLD_PASS_HANDLER_B: Send world pass packet 0x1B (Para=1, sets RecFriendPassFlag)
     0x06AB [0x01] GOTO 0xB301
     0x06AE [0x06] 0x0288 = 0
     0x06B5 [0x10] 4* <<= 0xC280
     0x06BA [0x06] References[3869] = 0
     0x06BD [0x80] LOAD_WAIT(entity=Unknown NPC (ID: 115343651/0x06E00123))
     0x06C2 [0x02] IF !(Work_Zone[2] == 5*) GOTO 0x06D1
     0x06CA [0x1D] PRINT_EVENT_MESSAGE(message_id=7333*)
    → "Currently unable to connect to the World Pass Center. Please try again later."
     0x06CD [0x23] WAIT_FOR_DIALOG_INTERACTION
     0x06CE [0x01] GOTO 0x06E0
     0x06D1 [0x02] IF !(Work_Zone[2] == 6*) GOTO 0x06E0
     0x06D9 [0x1D] PRINT_EVENT_MESSAGE(message_id=7339*)
    → "Your World Pass is: "%0" Number of uses left: $1 Pass becomes invalid in: $2 [hour/hours] (Earth time)"
     0x06DC [0x23] WAIT_FOR_DIALOG_INTERACTION
     0x06DD [0x01] GOTO 0x06E0
     0x06E0 [0x21] END_EVENT
     0x06E1 [0x00] END_REQSTACK()
```

### Event 429

#### Metadata

| Field        | Value   |
|--------------|---------|
| Entrypoint   | 0x06E2  |
| Data Size    | 1 bytes |
| Instructions | 1       |

```
      00 01 02 03 04 05 06 07  08 09 0A 0B 0C 0D 0E 0F
      -- -- -- -- -- -- -- --  -- -- -- -- -- -- -- --
06E0:       00                                            .             
```

#### Opcodes

```
  0: 0x06E2 [0x00] END_REQSTACK()
```

### Event 430

#### Metadata

| Field        | Value   |
|--------------|---------|
| Entrypoint   | 0x06E3  |
| Data Size    | 1 bytes |
| Instructions | 1       |

```
      00 01 02 03 04 05 06 07  08 09 0A 0B 0C 0D 0E 0F
      -- -- -- -- -- -- -- --  -- -- -- -- -- -- -- --
06E0:          00                                          .            
```

#### Opcodes

```
  0: 0x06E3 [0x00] END_REQSTACK()
```

### Event 435

#### Metadata

| Field        | Value   |
|--------------|---------|
| Entrypoint   | 0x06E4  |
| Data Size    | 1 bytes |
| Instructions | 1       |

```
      00 01 02 03 04 05 06 07  08 09 0A 0B 0C 0D 0E 0F
      -- -- -- -- -- -- -- --  -- -- -- -- -- -- -- --
06E0:             00                                        .           
```

#### Opcodes

```
  0: 0x06E4 [0x00] END_REQSTACK()
```

### Event 439

#### Metadata

| Field        | Value   |
|--------------|---------|
| Entrypoint   | 0x06E5  |
| Data Size    | 1 bytes |
| Instructions | 1       |

```
      00 01 02 03 04 05 06 07  08 09 0A 0B 0C 0D 0E 0F
      -- -- -- -- -- -- -- --  -- -- -- -- -- -- -- --
06E0:                00                                      .          
```

#### Opcodes

```
  0: 0x06E5 [0x00] END_REQSTACK()
```

### Event 65535.1

#### Metadata

| Field        | Value    |
|--------------|----------|
| Entrypoint   | 0x06E6   |
| Data Size    | 16 bytes |
| Instructions | 2        |

```
      00 01 02 03 04 05 06 07  08 09 0A 0B 0C 0D 0E 0F
      -- -- -- -- -- -- -- --  -- -- -- -- -- -- -- --
06E0:                   66 92  80 F8 FF FF 7F F8 FF FF        f.........
06F0: 7F 73 68 6B 30 00                                 .shk0.          
```

#### Opcodes

```
  0: 0x06E6 [0x66] LOAD_EXT_SCHEDULER_MAIN: Load scheduler "shk0" with entities [EventEntity, EventEntity], work=41*
  1: 0x06F5 [0x00] END_REQSTACK()
```

### Event 65535.2

#### Metadata

| Field        | Value    |
|--------------|----------|
| Entrypoint   | 0x06F6   |
| Data Size    | 14 bytes |
| Instructions | 2        |

```
      00 01 02 03 04 05 06 07  08 09 0A 0B 0C 0D 0E 0F
      -- -- -- -- -- -- -- --  -- -- -- -- -- -- -- --
06F0:                   53 F8  FF FF 7F F8 FF FF 7F 73        S........s
0700: 68 6B 30 00                                       hk0.            
```

#### Opcodes

```
  0: 0x06F6 [0x53] WAIT_SCHEDULER_TASK: Wait for scheduler "shk0" with entities [EventEntity, EventEntity]
  1: 0x0703 [0x00] END_REQSTACK()
```

### Event 440

#### Metadata

| Field        | Value   |
|--------------|---------|
| Entrypoint   | 0x0704  |
| Data Size    | 1 bytes |
| Instructions | 1       |

```
      00 01 02 03 04 05 06 07  08 09 0A 0B 0C 0D 0E 0F
      -- -- -- -- -- -- -- --  -- -- -- -- -- -- -- --
0700:             00                                        .           
```

#### Opcodes

```
  0: 0x0704 [0x00] END_REQSTACK()
```

### Event 441

#### Metadata

| Field        | Value   |
|--------------|---------|
| Entrypoint   | 0x0705  |
| Data Size    | 1 bytes |
| Instructions | 1       |

```
      00 01 02 03 04 05 06 07  08 09 0A 0B 0C 0D 0E 0F
      -- -- -- -- -- -- -- --  -- -- -- -- -- -- -- --
0700:                00                                      .          
```

#### Opcodes

```
  0: 0x0705 [0x00] END_REQSTACK()
```

### Event 448

#### Metadata

| Field        | Value   |
|--------------|---------|
| Entrypoint   | 0x0706  |
| Data Size    | 1 bytes |
| Instructions | 1       |

```
      00 01 02 03 04 05 06 07  08 09 0A 0B 0C 0D 0E 0F
      -- -- -- -- -- -- -- --  -- -- -- -- -- -- -- --
0700:                   00                                    .         
```

#### Opcodes

```
  0: 0x0706 [0x00] END_REQSTACK()
```

### Event 449

#### Metadata

| Field        | Value   |
|--------------|---------|
| Entrypoint   | 0x0707  |
| Data Size    | 1 bytes |
| Instructions | 1       |

```
      00 01 02 03 04 05 06 07  08 09 0A 0B 0C 0D 0E 0F
      -- -- -- -- -- -- -- --  -- -- -- -- -- -- -- --
0700:                      00                                  .        
```

#### Opcodes

```
  0: 0x0707 [0x00] END_REQSTACK()
```

### Event 65535.3

#### Metadata

| Field        | Value    |
|--------------|----------|
| Entrypoint   | 0x0708   |
| Data Size    | 16 bytes |
| Instructions | 2        |

```
      00 01 02 03 04 05 06 07  08 09 0A 0B 0C 0D 0E 0F
      -- -- -- -- -- -- -- --  -- -- -- -- -- -- -- --
0700:                          66 93 80 F8 FF FF 7F F8          f.......
0710: FF FF 7F 62 69 6B 30 00                           ...bik0.        
```

#### Opcodes

```
  0: 0x0708 [0x66] LOAD_EXT_SCHEDULER_MAIN: Load scheduler "bik0" with entities [EventEntity, EventEntity], work=42*
  1: 0x0717 [0x00] END_REQSTACK()
```

### Event 65535.4

#### Metadata

| Field        | Value    |
|--------------|----------|
| Entrypoint   | 0x0718   |
| Data Size    | 14 bytes |
| Instructions | 2        |

```
      00 01 02 03 04 05 06 07  08 09 0A 0B 0C 0D 0E 0F
      -- -- -- -- -- -- -- --  -- -- -- -- -- -- -- --
0710:                          53 F8 FF FF 7F F8 FF FF          S.......
0720: 7F 62 69 6B 30 00                                 .bik0.          
```

#### Opcodes

```
  0: 0x0718 [0x53] WAIT_SCHEDULER_TASK: Wait for scheduler "bik0" with entities [EventEntity, EventEntity]
  1: 0x0725 [0x00] END_REQSTACK()
```

### Event 65535.5

#### Metadata

| Field        | Value   |
|--------------|---------|
| Entrypoint   | 0x0726  |
| Data Size    | 9 bytes |
| Instructions | 3       |

```
      00 01 02 03 04 05 06 07  08 09 0A 0B 0C 0D 0E 0F
      -- -- -- -- -- -- -- --  -- -- -- -- -- -- -- --
0720:                   5E 69  64 6C 30 1C 94 80 00           ^idl0.... 
```

#### Opcodes

```
  0: 0x0726 [0x5E] EventEntity goes idle (kills current action) (animation: "idl0")
  1: 0x072B [0x1C] WAIT(30* ticks)
  2: 0x072E [0x00] END_REQSTACK()
```

### Event 65535.6

#### Metadata

| Field        | Value    |
|--------------|----------|
| Entrypoint   | 0x072F   |
| Data Size    | 16 bytes |
| Instructions | 2        |

```
      00 01 02 03 04 05 06 07  08 09 0A 0B 0C 0D 0E 0F
      -- -- -- -- -- -- -- --  -- -- -- -- -- -- -- --
0720:                                               66                 f
0730: 95 80 F8 FF FF 7F F8 FF  FF 7F 74 6C 6B 30 00     ..........tlk0. 
```

#### Opcodes

```
  0: 0x072F [0x66] LOAD_EXT_SCHEDULER_MAIN: Load scheduler "tlk0" with entities [EventEntity, EventEntity], work=40*
  1: 0x073E [0x00] END_REQSTACK()
```

### Event 65535.7

#### Metadata

| Field        | Value    |
|--------------|----------|
| Entrypoint   | 0x073F   |
| Data Size    | 39 bytes |
| Instructions | 7        |

```
      00 01 02 03 04 05 06 07  08 09 0A 0B 0C 0D 0E 0F
      -- -- -- -- -- -- -- --  -- -- -- -- -- -- -- --
0730:                                               5E                 ^
0740: 69 64 6C 30 1C 94 80 4A  19 20 0F 01 1A 20 0F 01  idl0...J. ... ..
0750: 6F 76 19 20 0F 01 66 95  80 F8 FF FF 7F F8 FF FF  ov. ..f.........
0760: 7F 74 6C 6B 30 00                                 .tlk0.          
```

#### Opcodes

```
  0: 0x073F [0x5E] EventEntity goes idle (kills current action) (animation: "idl0")
  1: 0x0744 [0x1C] WAIT(30* ticks)
  2: 0x0747 [0x4A] Gamimi (ID: 17768473/0x010F2019) looks at Rakano-Marukano (ID: 17768474/0x010F201A)
  3: 0x0750 [0x6F] WAIT_FRAME_DELAY: Yield until WaitTime reaches zero
  4: 0x0751 [0x76] CHECK_ENTITY_RENDER_FLAGS: Wait until Gamimi (ID: 17768473/0x010F2019) Render.Flags0 and Render.Flags3 conditions are met
  5: 0x0756 [0x66] LOAD_EXT_SCHEDULER_MAIN: Load scheduler "tlk0" with entities [EventEntity, EventEntity], work=40*
  6: 0x0765 [0x00] END_REQSTACK()
```

### Event 65535.8

#### Metadata

| Field        | Value    |
|--------------|----------|
| Entrypoint   | 0x0766   |
| Data Size    | 16 bytes |
| Instructions | 2        |

```
      00 01 02 03 04 05 06 07  08 09 0A 0B 0C 0D 0E 0F
      -- -- -- -- -- -- -- --  -- -- -- -- -- -- -- --
0760:                   66 95  80 F8 FF FF 7F F8 FF FF        f.........
0770: 7F 6F 62 69 30 00                                 .obi0.          
```

#### Opcodes

```
  0: 0x0766 [0x66] LOAD_EXT_SCHEDULER_MAIN: Load scheduler "obi0" with entities [EventEntity, EventEntity], work=40*
  1: 0x0775 [0x00] END_REQSTACK()
```

### Event 65535.9

#### Metadata

| Field        | Value    |
|--------------|----------|
| Entrypoint   | 0x0776   |
| Data Size    | 14 bytes |
| Instructions | 2        |

```
      00 01 02 03 04 05 06 07  08 09 0A 0B 0C 0D 0E 0F
      -- -- -- -- -- -- -- --  -- -- -- -- -- -- -- --
0770:                   53 F8  FF FF 7F F8 FF FF 7F 6F        S........o
0780: 62 69 30 00                                       bi0.            
```

#### Opcodes

```
  0: 0x0776 [0x53] WAIT_SCHEDULER_TASK: Wait for scheduler "obi0" with entities [EventEntity, EventEntity]
  1: 0x0783 [0x00] END_REQSTACK()
```

### Event 65535.10

#### Metadata

| Field        | Value    |
|--------------|----------|
| Entrypoint   | 0x0784   |
| Data Size    | 16 bytes |
| Instructions | 2        |

```
      00 01 02 03 04 05 06 07  08 09 0A 0B 0C 0D 0E 0F
      -- -- -- -- -- -- -- --  -- -- -- -- -- -- -- --
0780:             66 95 80 F8  FF FF 7F F8 FF FF 7F 6F      f..........o
0790: 62 69 31 00                                       bi1.            
```

#### Opcodes

```
  0: 0x0784 [0x66] LOAD_EXT_SCHEDULER_MAIN: Load scheduler "obi1" with entities [EventEntity, EventEntity], work=40*
  1: 0x0793 [0x00] END_REQSTACK()
```

### Event 65535.11

#### Metadata

| Field        | Value    |
|--------------|----------|
| Entrypoint   | 0x0794   |
| Data Size    | 14 bytes |
| Instructions | 2        |

```
      00 01 02 03 04 05 06 07  08 09 0A 0B 0C 0D 0E 0F
      -- -- -- -- -- -- -- --  -- -- -- -- -- -- -- --
0790:             53 F8 FF FF  7F F8 FF FF 7F 6F 62 69      S........obi
07A0: 31 00                                             1.              
```

#### Opcodes

```
  0: 0x0794 [0x53] WAIT_SCHEDULER_TASK: Wait for scheduler "obi1" with entities [EventEntity, EventEntity]
  1: 0x07A1 [0x00] END_REQSTACK()
```

### Event 65535.12

#### Metadata

| Field        | Value    |
|--------------|----------|
| Entrypoint   | 0x07A2   |
| Data Size    | 16 bytes |
| Instructions | 2        |

```
      00 01 02 03 04 05 06 07  08 09 0A 0B 0C 0D 0E 0F
      -- -- -- -- -- -- -- --  -- -- -- -- -- -- -- --
07A0:       66 95 80 F8 FF FF  7F F8 FF FF 7F 74 68 6B    f..........thk
07B0: 31 00                                             1.              
```

#### Opcodes

```
  0: 0x07A2 [0x66] LOAD_EXT_SCHEDULER_MAIN: Load scheduler "thk1" with entities [EventEntity, EventEntity], work=40*
  1: 0x07B1 [0x00] END_REQSTACK()
```

### Event 65535.13

#### Metadata

| Field        | Value    |
|--------------|----------|
| Entrypoint   | 0x07B2   |
| Data Size    | 14 bytes |
| Instructions | 2        |

```
      00 01 02 03 04 05 06 07  08 09 0A 0B 0C 0D 0E 0F
      -- -- -- -- -- -- -- --  -- -- -- -- -- -- -- --
07B0:       53 F8 FF FF 7F F8  FF FF 7F 74 68 6B 31 00    S........thk1.
```

#### Opcodes

```
  0: 0x07B2 [0x53] WAIT_SCHEDULER_TASK: Wait for scheduler "thk1" with entities [EventEntity, EventEntity]
  1: 0x07BF [0x00] END_REQSTACK()
```

### Event 65535.14

#### Metadata

| Field        | Value    |
|--------------|----------|
| Entrypoint   | 0x07C0   |
| Data Size    | 16 bytes |
| Instructions | 2        |

```
      00 01 02 03 04 05 06 07  08 09 0A 0B 0C 0D 0E 0F
      -- -- -- -- -- -- -- --  -- -- -- -- -- -- -- --
07C0: 66 95 80 F8 FF FF 7F F8  FF FF 7F 74 68 6B 32 00  f..........thk2.
```

#### Opcodes

```
  0: 0x07C0 [0x66] LOAD_EXT_SCHEDULER_MAIN: Load scheduler "thk2" with entities [EventEntity, EventEntity], work=40*
  1: 0x07CF [0x00] END_REQSTACK()
```

### Event 65535.15

#### Metadata

| Field        | Value    |
|--------------|----------|
| Entrypoint   | 0x07D0   |
| Data Size    | 14 bytes |
| Instructions | 2        |

```
      00 01 02 03 04 05 06 07  08 09 0A 0B 0C 0D 0E 0F
      -- -- -- -- -- -- -- --  -- -- -- -- -- -- -- --
07D0: 53 F8 FF FF 7F F8 FF FF  7F 74 68 6B 32 00        S........thk2.  
```

#### Opcodes

```
  0: 0x07D0 [0x53] WAIT_SCHEDULER_TASK: Wait for scheduler "thk2" with entities [EventEntity, EventEntity]
  1: 0x07DD [0x00] END_REQSTACK()
```

### Event 454

#### Metadata

| Field        | Value   |
|--------------|---------|
| Entrypoint   | 0x07DE  |
| Data Size    | 1 bytes |
| Instructions | 1       |

```
      00 01 02 03 04 05 06 07  08 09 0A 0B 0C 0D 0E 0F
      -- -- -- -- -- -- -- --  -- -- -- -- -- -- -- --
07D0:                                            00                   . 
```

#### Opcodes

```
  0: 0x07DE [0x00] END_REQSTACK()
```

### Event 455

#### Metadata

| Field        | Value   |
|--------------|---------|
| Entrypoint   | 0x07DF  |
| Data Size    | 1 bytes |
| Instructions | 1       |

```
      00 01 02 03 04 05 06 07  08 09 0A 0B 0C 0D 0E 0F
      -- -- -- -- -- -- -- --  -- -- -- -- -- -- -- --
07D0:                                               00                 .
```

#### Opcodes

```
  0: 0x07DF [0x00] END_REQSTACK()
```

### Event 460

#### Metadata

| Field        | Value   |
|--------------|---------|
| Entrypoint   | 0x07E0  |
| Data Size    | 1 bytes |
| Instructions | 1       |

```
      00 01 02 03 04 05 06 07  08 09 0A 0B 0C 0D 0E 0F
      -- -- -- -- -- -- -- --  -- -- -- -- -- -- -- --
07E0: 00                                                .               
```

#### Opcodes

```
  0: 0x07E0 [0x00] END_REQSTACK()
```

### Event 462

#### Metadata

| Field        | Value   |
|--------------|---------|
| Entrypoint   | 0x07E1  |
| Data Size    | 1 bytes |
| Instructions | 1       |

```
      00 01 02 03 04 05 06 07  08 09 0A 0B 0C 0D 0E 0F
      -- -- -- -- -- -- -- --  -- -- -- -- -- -- -- --
07E0:    00                                              .              
```

#### Opcodes

```
  0: 0x07E1 [0x00] END_REQSTACK()
```
