# 17768484 - Ufu Koromoa

## Common Data

| Field            | Value                   |
|------------------|-------------------------|
| Zone             | Heavens Tower (ID: 242) |
| Block Size       | 1676 bytes              |
| Total Events     | 49                      |
| References Count | 43                      |

## List of Events

| Event ID                   | Entrypoint   |   Size |   Instructions |
|----------------------------|--------------|--------|----------------|
| [65535](#event-65535)      | 0x0000       |      1 |              1 |
| [65535.1](#event-655351)   | 0x0001       |     16 |              2 |
| [65535.2](#event-655352)   | 0x0011       |     14 |              2 |
| [65535.3](#event-655353)   | 0x001F       |     16 |              2 |
| [65535.4](#event-655354)   | 0x002F       |     14 |              2 |
| [65535.5](#event-655355)   | 0x003D       |     16 |              2 |
| [65535.6](#event-655356)   | 0x004D       |     14 |              2 |
| [65535.7](#event-655357)   | 0x005B       |     16 |              2 |
| [65535.8](#event-655358)   | 0x006B       |     14 |              2 |
| [65535.9](#event-655359)   | 0x0079       |     16 |              2 |
| [65535.10](#event-6553510) | 0x0089       |     14 |              2 |
| [65535.11](#event-6553511) | 0x0097       |     16 |              2 |
| [65535.12](#event-6553512) | 0x00A7       |     14 |              2 |
| [65535.13](#event-6553513) | 0x00B5       |     16 |              2 |
| [65535.14](#event-6553514) | 0x00C5       |     14 |              2 |
| [65535.15](#event-6553515) | 0x00D3       |     16 |              2 |
| [65535.16](#event-6553516) | 0x00E3       |     14 |              2 |
| [65535.17](#event-6553517) | 0x00F1       |     16 |              2 |
| [65535.18](#event-6553518) | 0x0101       |     14 |              2 |
| [65535.19](#event-6553519) | 0x010F       |     16 |              2 |
| [65535.20](#event-6553520) | 0x011F       |     14 |              2 |
| [65535.21](#event-6553521) | 0x012D       |     16 |              2 |
| [65535.22](#event-6553522) | 0x013D       |     14 |              2 |
| [65535.23](#event-6553523) | 0x014B       |      9 |              3 |
| [94](#event-94)            | 0x0154       |     54 |             15 |
| [6](#event-6)              | 0x018A       |      1 |              1 |
| [107](#event-107)          | 0x018B       |      1 |              1 |
| [65535.24](#event-6553524) | 0x018C       |    154 |             16 |
| [111](#event-111)          | 0x0226       |     33 |             12 |
| [114](#event-114)          | 0x0247       |      1 |              1 |
| [118](#event-118)          | 0x0248       |     33 |             12 |
| [159](#event-159)          | 0x0269       |     29 |             10 |
| [161](#event-161)          | 0x0286       |     15 |              8 |
| [171](#event-171)          | 0x0295       |     29 |             10 |
| [176](#event-176)          | 0x02B2       |     65 |             18 |
| [196](#event-196)          | 0x02F3       |     29 |             10 |
| [201](#event-201)          | 0x0310       |     40 |             13 |
| [219](#event-219)          | 0x0338       |     36 |             11 |
| [319](#event-319)          | 0x035C       |     47 |             14 |
| [324](#event-324)          | 0x038B       |     47 |             14 |
| [303](#event-303)          | 0x03BA       |     29 |             10 |
| [308](#event-308)          | 0x03D7       |     40 |             13 |
| [366](#event-366)          | 0x03FF       |     47 |             14 |
| [370](#event-370)          | 0x042E       |     51 |             16 |
| [375](#event-375)          | 0x0461       |     47 |             14 |
| [377](#event-377)          | 0x0490       |     29 |             10 |
| [381](#event-381)          | 0x04AD       |     47 |             14 |
| [402](#event-402)          | 0x04DC       |     47 |             14 |
| [386](#event-386)          | 0x050B       |      1 |              1 |

## DAT References (imed_data)

|   Index | Hex Value   |   Dec Value |
|---------|-------------|-------------|
|       0 | 0x0032      |          50 |
|       1 | 0x0034      |          52 |
|       2 | 0x0035      |          53 |
|       3 | 0x0039      |          57 |
|       4 | 0x001E      |          30 |
|       5 | 0x005F      |          95 |
|       6 | 0x0060      |          96 |
|       7 | 0x0007      |           7 |
|       8 | 0x0000      |           0 |
|       9 | 0x00FC      |         252 |
|      10 | 0x00B9      |         185 |
|      11 | 0x00BA      |         186 |
|      12 | 0x00CD      |         205 |
|      13 | 0x00CE      |         206 |
|      14 | 0x013D      |         317 |
|      15 | 0x013F      |         319 |
|      16 | 0x0161      |         353 |
|      17 | 0x016A      |         362 |
|      18 | 0x016B      |         363 |
|      19 | 0x016C      |         364 |
|      20 | 0x01B7      |         439 |
|      21 | 0x01C0      |         448 |
|      22 | 0x01C1      |         449 |
|      23 | 0x01EA      |         490 |
|      24 | 0x1FBC      |        8124 |
|      25 | 0x1FBD      |        8125 |
|      26 | 0x1FC4      |        8132 |
|      27 | 0x1FC5      |        8133 |
|      28 | 0x1FD7      |        8151 |
|      29 | 0x1FDF      |        8159 |
|      30 | 0x1FE0      |        8160 |
|      31 | 0x2079      |        8313 |
|      32 | 0x207A      |        8314 |
|      33 | 0x207B      |        8315 |
|      34 | 0x207C      |        8316 |
|      35 | 0x207D      |        8317 |
|      36 | 0x2087      |        8327 |
|      37 | 0x2088      |        8328 |
|      38 | 0x2104      |        8452 |
|      39 | 0x2107      |        8455 |
|      40 | 0x2108      |        8456 |
|      41 | 0x2161      |        8545 |
|      42 | 0x2162      |        8546 |

## String References

- **95**: Compared to most independent Mithra, we Sibyl Guards get along extremely well. If we ever disagree on something we just have a catfight, and everything is solved.
- **96**: Whoeverrr wins the fight wins the argument!
- **185**: Don't let Lady Semih Lafihna hearrr I said this, but I don't think that little Tarutaru was one hundred percent wrong.
- **186**: Both sides are thinking of Windurst's futurrre... I just wish therrre was some way we could be on the same side.
- **205**: Many Mithra lost theirrr lives at Castle Oztroja...
- **206**: The heaviest fighting came nearrr the cells where ourrr comrades were locked up.
- **317**: Watch yourself in therrre, or you will have Lady Semih Lafihna to answerrr to!
- **319**: I shall pray to the starrrs that your mission is a success.
- **353**: Watch yourself in therrre, or you will have Lady Semih Lafihna to answerrr to!
- **362**: Who could have stolen the talisman from right underrr our tails?
- **363**: Everybody is saying that it had to have been the Yagudo, but I'm going to take a shot in the dark and say it was...the Orastery ministerrr!
- **364**: What? That's not a shot in the dark?
- **439**: Watch yourself in therrre, or you will have Lady Semih Lafihna to answerrr to!
- **448**: My Mithra blood is boiling. I still have dreams about my motherrr being slaughtered by the beastmen.
- **449**: And as orphans of the Great Warrr, I can tell you that all of my Sibyl Guard companions feel the same.
- **490**: I am relieved to see you back in Windurst. When things settle down, please tell us of your adventures in the Northlands.
- **8124**: If you ever grow tirrred of the adventuring life, we could use someone with your untapped potential.
- **8125**: Windurst must be prepared for the days of strrrife ahead.
- **8132**: The strongest of the Sibyl Guards is, without a doubt, Semih Lafihna. She has the ability to read the flow of things.
- **8133**: The flow of water, the flow of wind, the flow of light. When the flow comes into focus, time stands still for a moment.
- **8151**: Watch yourself in therrre, or you will have Lady Semih Lafihna to answerrr to!
- **8159**: The Yagudo of Castle Oztroja are known to stage death matches for the pleasurrre of their king. They are nothing but bloodthirsty fiends.
- **8160**: The Star Sibyl believes we should have amicable relations with these animals... What do you think?
- **8313**: If you're looking for Semih Lafihna and the Orastery minister, they're in the Star Sibyl's chamberrrs.
- **8314**: As you have been summoned here, I will grant you permission to pass through the door to the Vestal Chambers. An adventurer like yourself who travels the width and breadth of Vana'diel may find some way to triumph against the bearer of darkness.
- **8315**: ... Those soulless eyes. A chill runs down my spine just thinking about it.
- **8316**: We Sibyl Guard were terror-stricken--but those delicate little Tarutaru must've been scared out of their wits!
- **8317**: With the stress she's been through, the Star Sibyl will be taking a break from her duties for a while.
- **8327**: When the Star Sibyl announced she wanted to head down to the Full Moon Fountain, Semih Lafihna objected, saying it was too dangerous.
- **8328**: However, the Star Sibyl insisted therrre was something she needed to make sure of. This is my personal opinion, but I think the Star Sibyl may have had some idea of the dark intruderrr's true nature.
- **8452**: Semih Lafihna awaits you in the Star Sibyl's chamberrrs.
- **8455**: You look nervous. I understand. A heavy fate rides upon your shoulderrrs.
- **8456**: You must believe in yourself. There is nothing in this world that cannot be changed. Even a situation seemingly without hope can be rescued from the depths of despairrr.
- **8545**: By killing the Great Beast, Karaha-Baruha saved Windurst from its fate of destruction.
- **8546**: Even among the Tarutaru, there are those whose blood sings with passion and courage. Even we Mithra hold his name in high esteem.

## Events

### Event 65535

#### Metadata

| Field        | Value   |
|--------------|---------|
| Entrypoint   | 0x0000  |
| Data Size    | 1 bytes |
| Instructions | 1       |

```
      00 01 02 03 04 05 06 07  08 09 0A 0B 0C 0D 0E 0F
      -- -- -- -- -- -- -- --  -- -- -- -- -- -- -- --
0000: 00                                                .               
```

#### Opcodes

```
  0: 0x0000 [0x00] END_REQSTACK()
```

### Event 65535.1

#### Metadata

| Field        | Value    |
|--------------|----------|
| Entrypoint   | 0x0001   |
| Data Size    | 16 bytes |
| Instructions | 2        |

```
      00 01 02 03 04 05 06 07  08 09 0A 0B 0C 0D 0E 0F
      -- -- -- -- -- -- -- --  -- -- -- -- -- -- -- --
0000:    66 00 80 F8 FF FF 7F  F8 FF FF 7F 74 6C 6B 30   f..........tlk0
0010: 00                                                .               
```

#### Opcodes

```
  0: 0x0001 [0x66] LOAD_EXT_SCHEDULER_MAIN: Load scheduler "tlk0" with entities [EventEntity, EventEntity], work=50*
  1: 0x0010 [0x00] END_REQSTACK()
```

### Event 65535.2

#### Metadata

| Field        | Value    |
|--------------|----------|
| Entrypoint   | 0x0011   |
| Data Size    | 14 bytes |
| Instructions | 2        |

```
      00 01 02 03 04 05 06 07  08 09 0A 0B 0C 0D 0E 0F
      -- -- -- -- -- -- -- --  -- -- -- -- -- -- -- --
0010:    53 F8 FF FF 7F F8 FF  FF 7F 74 6C 6B 30 00      S........tlk0. 
```

#### Opcodes

```
  0: 0x0011 [0x53] WAIT_SCHEDULER_TASK: Wait for scheduler "tlk0" with entities [EventEntity, EventEntity]
  1: 0x001E [0x00] END_REQSTACK()
```

### Event 65535.3

#### Metadata

| Field        | Value    |
|--------------|----------|
| Entrypoint   | 0x001F   |
| Data Size    | 16 bytes |
| Instructions | 2        |

```
      00 01 02 03 04 05 06 07  08 09 0A 0B 0C 0D 0E 0F
      -- -- -- -- -- -- -- --  -- -- -- -- -- -- -- --
0010:                                               66                 f
0020: 00 80 F8 FF FF 7F F8 FF  FF 7F 74 6C 6B 32 00     ..........tlk2. 
```

#### Opcodes

```
  0: 0x001F [0x66] LOAD_EXT_SCHEDULER_MAIN: Load scheduler "tlk2" with entities [EventEntity, EventEntity], work=50*
  1: 0x002E [0x00] END_REQSTACK()
```

### Event 65535.4

#### Metadata

| Field        | Value    |
|--------------|----------|
| Entrypoint   | 0x002F   |
| Data Size    | 14 bytes |
| Instructions | 2        |

```
      00 01 02 03 04 05 06 07  08 09 0A 0B 0C 0D 0E 0F
      -- -- -- -- -- -- -- --  -- -- -- -- -- -- -- --
0020:                                               53                 S
0030: F8 FF FF 7F F8 FF FF 7F  74 6C 6B 32 00           ........tlk2.   
```

#### Opcodes

```
  0: 0x002F [0x53] WAIT_SCHEDULER_TASK: Wait for scheduler "tlk2" with entities [EventEntity, EventEntity]
  1: 0x003C [0x00] END_REQSTACK()
```

### Event 65535.5

#### Metadata

| Field        | Value    |
|--------------|----------|
| Entrypoint   | 0x003D   |
| Data Size    | 16 bytes |
| Instructions | 2        |

```
      00 01 02 03 04 05 06 07  08 09 0A 0B 0C 0D 0E 0F
      -- -- -- -- -- -- -- --  -- -- -- -- -- -- -- --
0030:                                         66 00 80               f..
0040: F8 FF FF 7F F8 FF FF 7F  74 68 6B 31 00           ........thk1.   
```

#### Opcodes

```
  0: 0x003D [0x66] LOAD_EXT_SCHEDULER_MAIN: Load scheduler "thk1" with entities [EventEntity, EventEntity], work=50*
  1: 0x004C [0x00] END_REQSTACK()
```

### Event 65535.6

#### Metadata

| Field        | Value    |
|--------------|----------|
| Entrypoint   | 0x004D   |
| Data Size    | 14 bytes |
| Instructions | 2        |

```
      00 01 02 03 04 05 06 07  08 09 0A 0B 0C 0D 0E 0F
      -- -- -- -- -- -- -- --  -- -- -- -- -- -- -- --
0040:                                         53 F8 FF               S..
0050: FF 7F F8 FF FF 7F 74 68  6B 31 00                 ......thk1.     
```

#### Opcodes

```
  0: 0x004D [0x53] WAIT_SCHEDULER_TASK: Wait for scheduler "thk1" with entities [EventEntity, EventEntity]
  1: 0x005A [0x00] END_REQSTACK()
```

### Event 65535.7

#### Metadata

| Field        | Value    |
|--------------|----------|
| Entrypoint   | 0x005B   |
| Data Size    | 16 bytes |
| Instructions | 2        |

```
      00 01 02 03 04 05 06 07  08 09 0A 0B 0C 0D 0E 0F
      -- -- -- -- -- -- -- --  -- -- -- -- -- -- -- --
0050:                                   66 00 80 F8 FF             f....
0060: FF 7F F8 FF FF 7F 74 68  6B 32 00                 ......thk2.     
```

#### Opcodes

```
  0: 0x005B [0x66] LOAD_EXT_SCHEDULER_MAIN: Load scheduler "thk2" with entities [EventEntity, EventEntity], work=50*
  1: 0x006A [0x00] END_REQSTACK()
```

### Event 65535.8

#### Metadata

| Field        | Value    |
|--------------|----------|
| Entrypoint   | 0x006B   |
| Data Size    | 14 bytes |
| Instructions | 2        |

```
      00 01 02 03 04 05 06 07  08 09 0A 0B 0C 0D 0E 0F
      -- -- -- -- -- -- -- --  -- -- -- -- -- -- -- --
0060:                                   53 F8 FF FF 7F             S....
0070: F8 FF FF 7F 74 68 6B 32  00                       ....thk2.       
```

#### Opcodes

```
  0: 0x006B [0x53] WAIT_SCHEDULER_TASK: Wait for scheduler "thk2" with entities [EventEntity, EventEntity]
  1: 0x0078 [0x00] END_REQSTACK()
```

### Event 65535.9

#### Metadata

| Field        | Value    |
|--------------|----------|
| Entrypoint   | 0x0079   |
| Data Size    | 16 bytes |
| Instructions | 2        |

```
      00 01 02 03 04 05 06 07  08 09 0A 0B 0C 0D 0E 0F
      -- -- -- -- -- -- -- --  -- -- -- -- -- -- -- --
0070:                             66 01 80 F8 FF FF 7F           f......
0080: F8 FF FF 7F 64 69 73 30  00                       ....dis0.       
```

#### Opcodes

```
  0: 0x0079 [0x66] LOAD_EXT_SCHEDULER_MAIN: Load scheduler "dis0" with entities [EventEntity, EventEntity], work=52*
  1: 0x0088 [0x00] END_REQSTACK()
```

### Event 65535.10

#### Metadata

| Field        | Value    |
|--------------|----------|
| Entrypoint   | 0x0089   |
| Data Size    | 14 bytes |
| Instructions | 2        |

```
      00 01 02 03 04 05 06 07  08 09 0A 0B 0C 0D 0E 0F
      -- -- -- -- -- -- -- --  -- -- -- -- -- -- -- --
0080:                             53 F8 FF FF 7F F8 FF           S......
0090: FF 7F 64 69 73 30 00                              ..dis0.         
```

#### Opcodes

```
  0: 0x0089 [0x53] WAIT_SCHEDULER_TASK: Wait for scheduler "dis0" with entities [EventEntity, EventEntity]
  1: 0x0096 [0x00] END_REQSTACK()
```

### Event 65535.11

#### Metadata

| Field        | Value    |
|--------------|----------|
| Entrypoint   | 0x0097   |
| Data Size    | 16 bytes |
| Instructions | 2        |

```
      00 01 02 03 04 05 06 07  08 09 0A 0B 0C 0D 0E 0F
      -- -- -- -- -- -- -- --  -- -- -- -- -- -- -- --
0090:                      66  01 80 F8 FF FF 7F F8 FF         f........
00A0: FF 7F 74 6C 63 30 00                              ..tlc0.         
```

#### Opcodes

```
  0: 0x0097 [0x66] LOAD_EXT_SCHEDULER_MAIN: Load scheduler "tlc0" with entities [EventEntity, EventEntity], work=52*
  1: 0x00A6 [0x00] END_REQSTACK()
```

### Event 65535.12

#### Metadata

| Field        | Value    |
|--------------|----------|
| Entrypoint   | 0x00A7   |
| Data Size    | 14 bytes |
| Instructions | 2        |

```
      00 01 02 03 04 05 06 07  08 09 0A 0B 0C 0D 0E 0F
      -- -- -- -- -- -- -- --  -- -- -- -- -- -- -- --
00A0:                      53  F8 FF FF 7F F8 FF FF 7F         S........
00B0: 74 6C 63 30 00                                    tlc0.           
```

#### Opcodes

```
  0: 0x00A7 [0x53] WAIT_SCHEDULER_TASK: Wait for scheduler "tlc0" with entities [EventEntity, EventEntity]
  1: 0x00B4 [0x00] END_REQSTACK()
```

### Event 65535.13

#### Metadata

| Field        | Value    |
|--------------|----------|
| Entrypoint   | 0x00B5   |
| Data Size    | 16 bytes |
| Instructions | 2        |

```
      00 01 02 03 04 05 06 07  08 09 0A 0B 0C 0D 0E 0F
      -- -- -- -- -- -- -- --  -- -- -- -- -- -- -- --
00B0:                66 01 80  F8 FF FF 7F F8 FF FF 7F       f..........
00C0: 74 6C 63 31 00                                    tlc1.           
```

#### Opcodes

```
  0: 0x00B5 [0x66] LOAD_EXT_SCHEDULER_MAIN: Load scheduler "tlc1" with entities [EventEntity, EventEntity], work=52*
  1: 0x00C4 [0x00] END_REQSTACK()
```

### Event 65535.14

#### Metadata

| Field        | Value    |
|--------------|----------|
| Entrypoint   | 0x00C5   |
| Data Size    | 14 bytes |
| Instructions | 2        |

```
      00 01 02 03 04 05 06 07  08 09 0A 0B 0C 0D 0E 0F
      -- -- -- -- -- -- -- --  -- -- -- -- -- -- -- --
00C0:                53 F8 FF  FF 7F F8 FF FF 7F 74 6C       S........tl
00D0: 63 31 00                                          c1.             
```

#### Opcodes

```
  0: 0x00C5 [0x53] WAIT_SCHEDULER_TASK: Wait for scheduler "tlc1" with entities [EventEntity, EventEntity]
  1: 0x00D2 [0x00] END_REQSTACK()
```

### Event 65535.15

#### Metadata

| Field        | Value    |
|--------------|----------|
| Entrypoint   | 0x00D3   |
| Data Size    | 16 bytes |
| Instructions | 2        |

```
      00 01 02 03 04 05 06 07  08 09 0A 0B 0C 0D 0E 0F
      -- -- -- -- -- -- -- --  -- -- -- -- -- -- -- --
00D0:          66 02 80 F8 FF  FF 7F F8 FF FF 7F 74 6C     f..........tl
00E0: 62 31 00                                          b1.             
```

#### Opcodes

```
  0: 0x00D3 [0x66] LOAD_EXT_SCHEDULER_MAIN: Load scheduler "tlb1" with entities [EventEntity, EventEntity], work=53*
  1: 0x00E2 [0x00] END_REQSTACK()
```

### Event 65535.16

#### Metadata

| Field        | Value    |
|--------------|----------|
| Entrypoint   | 0x00E3   |
| Data Size    | 14 bytes |
| Instructions | 2        |

```
      00 01 02 03 04 05 06 07  08 09 0A 0B 0C 0D 0E 0F
      -- -- -- -- -- -- -- --  -- -- -- -- -- -- -- --
00E0:          53 F8 FF FF 7F  F8 FF FF 7F 74 6C 62 31     S........tlb1
00F0: 00                                                .               
```

#### Opcodes

```
  0: 0x00E3 [0x53] WAIT_SCHEDULER_TASK: Wait for scheduler "tlb1" with entities [EventEntity, EventEntity]
  1: 0x00F0 [0x00] END_REQSTACK()
```

### Event 65535.17

#### Metadata

| Field        | Value    |
|--------------|----------|
| Entrypoint   | 0x00F1   |
| Data Size    | 16 bytes |
| Instructions | 2        |

```
      00 01 02 03 04 05 06 07  08 09 0A 0B 0C 0D 0E 0F
      -- -- -- -- -- -- -- --  -- -- -- -- -- -- -- --
00F0:    66 02 80 F8 FF FF 7F  F8 FF FF 7F 74 6C 62 32   f..........tlb2
0100: 00                                                .               
```

#### Opcodes

```
  0: 0x00F1 [0x66] LOAD_EXT_SCHEDULER_MAIN: Load scheduler "tlb2" with entities [EventEntity, EventEntity], work=53*
  1: 0x0100 [0x00] END_REQSTACK()
```

### Event 65535.18

#### Metadata

| Field        | Value    |
|--------------|----------|
| Entrypoint   | 0x0101   |
| Data Size    | 14 bytes |
| Instructions | 2        |

```
      00 01 02 03 04 05 06 07  08 09 0A 0B 0C 0D 0E 0F
      -- -- -- -- -- -- -- --  -- -- -- -- -- -- -- --
0100:    53 F8 FF FF 7F F8 FF  FF 7F 74 6C 62 32 00      S........tlb2. 
```

#### Opcodes

```
  0: 0x0101 [0x53] WAIT_SCHEDULER_TASK: Wait for scheduler "tlb2" with entities [EventEntity, EventEntity]
  1: 0x010E [0x00] END_REQSTACK()
```

### Event 65535.19

#### Metadata

| Field        | Value    |
|--------------|----------|
| Entrypoint   | 0x010F   |
| Data Size    | 16 bytes |
| Instructions | 2        |

```
      00 01 02 03 04 05 06 07  08 09 0A 0B 0C 0D 0E 0F
      -- -- -- -- -- -- -- --  -- -- -- -- -- -- -- --
0100:                                               66                 f
0110: 02 80 F8 FF FF 7F F8 FF  FF 7F 6B 77 69 30 00     ..........kwi0. 
```

#### Opcodes

```
  0: 0x010F [0x66] LOAD_EXT_SCHEDULER_MAIN: Load scheduler "kwi0" with entities [EventEntity, EventEntity], work=53*
  1: 0x011E [0x00] END_REQSTACK()
```

### Event 65535.20

#### Metadata

| Field        | Value    |
|--------------|----------|
| Entrypoint   | 0x011F   |
| Data Size    | 14 bytes |
| Instructions | 2        |

```
      00 01 02 03 04 05 06 07  08 09 0A 0B 0C 0D 0E 0F
      -- -- -- -- -- -- -- --  -- -- -- -- -- -- -- --
0110:                                               53                 S
0120: F8 FF FF 7F F8 FF FF 7F  6B 77 69 30 00           ........kwi0.   
```

#### Opcodes

```
  0: 0x011F [0x53] WAIT_SCHEDULER_TASK: Wait for scheduler "kwi0" with entities [EventEntity, EventEntity]
  1: 0x012C [0x00] END_REQSTACK()
```

### Event 65535.21

#### Metadata

| Field        | Value    |
|--------------|----------|
| Entrypoint   | 0x012D   |
| Data Size    | 16 bytes |
| Instructions | 2        |

```
      00 01 02 03 04 05 06 07  08 09 0A 0B 0C 0D 0E 0F
      -- -- -- -- -- -- -- --  -- -- -- -- -- -- -- --
0120:                                         66 03 80               f..
0130: F8 FF FF 7F F8 FF FF 7F  6D 68 69 30 00           ........mhi0.   
```

#### Opcodes

```
  0: 0x012D [0x66] LOAD_EXT_SCHEDULER_MAIN: Load scheduler "mhi0" with entities [EventEntity, EventEntity], work=57*
  1: 0x013C [0x00] END_REQSTACK()
```

### Event 65535.22

#### Metadata

| Field        | Value    |
|--------------|----------|
| Entrypoint   | 0x013D   |
| Data Size    | 14 bytes |
| Instructions | 2        |

```
      00 01 02 03 04 05 06 07  08 09 0A 0B 0C 0D 0E 0F
      -- -- -- -- -- -- -- --  -- -- -- -- -- -- -- --
0130:                                         53 F8 FF               S..
0140: FF 7F F8 FF FF 7F 6D 68  69 30 00                 ......mhi0.     
```

#### Opcodes

```
  0: 0x013D [0x53] WAIT_SCHEDULER_TASK: Wait for scheduler "mhi0" with entities [EventEntity, EventEntity]
  1: 0x014A [0x00] END_REQSTACK()
```

### Event 65535.23

#### Metadata

| Field        | Value   |
|--------------|---------|
| Entrypoint   | 0x014B  |
| Data Size    | 9 bytes |
| Instructions | 3       |

```
      00 01 02 03 04 05 06 07  08 09 0A 0B 0C 0D 0E 0F
      -- -- -- -- -- -- -- --  -- -- -- -- -- -- -- --
0140:                                   5E 69 64 6C 30             ^idl0
0150: 1C 04 80 00                                       ....            
```

#### Opcodes

```
  0: 0x014B [0x5E] EventEntity goes idle (kills current action) (animation: "idl0")
  1: 0x0150 [0x1C] WAIT(30* ticks)
  2: 0x0153 [0x00] END_REQSTACK()
```

### Event 94

#### Metadata

| Field        | Value    |
|--------------|----------|
| Entrypoint   | 0x0154   |
| Data Size    | 54 bytes |
| Instructions | 15       |

```
      00 01 02 03 04 05 06 07  08 09 0A 0B 0C 0D 0E 0F
      -- -- -- -- -- -- -- --  -- -- -- -- -- -- -- --
0150:             1E F0 FF FF  7F 6F 70 29 08 24 20 0F      .....op).$ .
0160: 01 0F 1D 05 80 23 29 08  24 20 0F 01 11 29 08 24  .....#).$ ...).$
0170: 20 0F 01 12 29 08 24 20  0F 01 09 1D 06 80 23 29   ...).$ ......#)
0180: 08 24 20 0F 01 0A 20 00  21 00                    .$ ... .!.      
```

#### Opcodes

```
  0: 0x0154 [0x1E] EventEntity looks at LocalPlayer and starts talking
  1: 0x0159 [0x6F] WAIT_FRAME_DELAY: Yield until WaitTime reaches zero
  2: 0x015A [0x70] WAIT_ENTITY_RENDER_FLAG: Wait while EventEntity->Render.Flags3 bit 2 is set (cancel turn if not)
  3: 0x015B [0x29] REQ_SET_WAIT(priority=0x08, entity_id=Ufu Koromoa (ID: 17768484/0x010F2024), tag_num=0x0F)
  4: 0x0162 [0x1D] PRINT_EVENT_MESSAGE(message_id=95*)
    → "Compared to most independent Mithra, we Sibyl Guards get along extremely well. If we ever disagree on something we just have a catfight, and everything is solved."
  5: 0x0165 [0x23] WAIT_FOR_DIALOG_INTERACTION
  6: 0x0166 [0x29] REQ_SET_WAIT(priority=0x08, entity_id=Ufu Koromoa (ID: 17768484/0x010F2024), tag_num=0x11)
  7: 0x016D [0x29] REQ_SET_WAIT(priority=0x08, entity_id=Ufu Koromoa (ID: 17768484/0x010F2024), tag_num=0x12)
  8: 0x0174 [0x29] REQ_SET_WAIT(priority=0x08, entity_id=Ufu Koromoa (ID: 17768484/0x010F2024), tag_num=0x09)
  9: 0x017B [0x1D] PRINT_EVENT_MESSAGE(message_id=96*)
    → "Whoeverrr wins the fight wins the argument!"
 10: 0x017E [0x23] WAIT_FOR_DIALOG_INTERACTION
 11: 0x017F [0x29] REQ_SET_WAIT(priority=0x08, entity_id=Ufu Koromoa (ID: 17768484/0x010F2024), tag_num=0x0A)
 12: 0x0186 [0x20] SET_CLI_EVENT_UC_FLAG: Unlock player control
 13: 0x0188 [0x21] END_EVENT
 14: 0x0189 [0x00] END_REQSTACK()
```

### Event 6

#### Metadata

| Field        | Value   |
|--------------|---------|
| Entrypoint   | 0x018A  |
| Data Size    | 1 bytes |
| Instructions | 1       |

```
      00 01 02 03 04 05 06 07  08 09 0A 0B 0C 0D 0E 0F
      -- -- -- -- -- -- -- --  -- -- -- -- -- -- -- --
0180:                                00                           .     
```

#### Opcodes

```
  0: 0x018A [0x00] END_REQSTACK()
```

### Event 107

#### Metadata

| Field        | Value   |
|--------------|---------|
| Entrypoint   | 0x018B  |
| Data Size    | 1 bytes |
| Instructions | 1       |

```
      00 01 02 03 04 05 06 07  08 09 0A 0B 0C 0D 0E 0F
      -- -- -- -- -- -- -- --  -- -- -- -- -- -- -- --
0180:                                   00                         .    
```

#### Opcodes

```
  0: 0x018B [0x00] END_REQSTACK()
```

### Event 65535.24

#### Metadata

| Field        | Value     |
|--------------|-----------|
| Entrypoint   | 0x018C    |
| Data Size    | 154 bytes |
| Instructions | 16        |

```
      00 01 02 03 04 05 06 07  08 09 0A 0B 0C 0D 0E 0F
      -- -- -- -- -- -- -- --  -- -- -- -- -- -- -- --
0180:                                      62 07 80 17              b...
0190: 20 0F 01 17 20 0F 01 6D  61 69 6E 08 80 1C 00 80   ... ..main.....
01A0: 73 09 80 24 20 0F 01 0C  20 0F 01 62 07 80 17 20  s..$ ... ..b... 
01B0: 0F 01 17 20 0F 01 6D 61  69 6E 08 80 1C 00 80 73  ... ..main.....s
01C0: 09 80 24 20 0F 01 0B 20  0F 01 62 07 80 17 20 0F  ..$ ... ..b... .
01D0: 01 17 20 0F 01 6D 61 69  6E 08 80 1C 00 80 73 09  .. ..main.....s.
01E0: 80 24 20 0F 01 0D 20 0F  01 62 07 80 17 20 0F 01  .$ ... ..b... ..
01F0: 17 20 0F 01 6D 61 69 6E  08 80 1C 00 80 62 07 80  . ..main.....b..
0200: 17 20 0F 01 17 20 0F 01  6D 61 69 6E 08 80 1C 00  . ... ..main....
0210: 80 62 07 80 17 20 0F 01  17 20 0F 01 6D 61 69 6E  .b... ... ..main
0220: 08 80 1C 00 80 00                                 ......          
```

#### Opcodes

```
  0: 0x018C [0x62] LOAD_EVENT_SCHEDULER: Load scheduler "main" with entities [Ajido-Marujido (ID: 17768471/0x010F2017), Ajido-Marujido (ID: 17768471/0x010F2017)], work=[7*, 0*]
  1: 0x019D [0x1C] WAIT(50* ticks)
  2: 0x01A0 [0x73] Ufu Koromoa (ID: 17768484/0x010F2024) casts magic 252* on Unnamed NPC (ID: 17768460/0x010F200C)
  3: 0x01AB [0x62] LOAD_EVENT_SCHEDULER: Load scheduler "main" with entities [Ajido-Marujido (ID: 17768471/0x010F2017), Ajido-Marujido (ID: 17768471/0x010F2017)], work=[7*, 0*]
  4: 0x01BC [0x1C] WAIT(50* ticks)
  5: 0x01BF [0x73] Ufu Koromoa (ID: 17768484/0x010F2024) casts magic 252* on Unnamed NPC (ID: 17768459/0x010F200B)
  6: 0x01CA [0x62] LOAD_EVENT_SCHEDULER: Load scheduler "main" with entities [Ajido-Marujido (ID: 17768471/0x010F2017), Ajido-Marujido (ID: 17768471/0x010F2017)], work=[7*, 0*]
  7: 0x01DB [0x1C] WAIT(50* ticks)
  8: 0x01DE [0x73] Ufu Koromoa (ID: 17768484/0x010F2024) casts magic 252* on Unnamed NPC (ID: 17768461/0x010F200D)
  9: 0x01E9 [0x62] LOAD_EVENT_SCHEDULER: Load scheduler "main" with entities [Ajido-Marujido (ID: 17768471/0x010F2017), Ajido-Marujido (ID: 17768471/0x010F2017)], work=[7*, 0*]
 10: 0x01FA [0x1C] WAIT(50* ticks)
 11: 0x01FD [0x62] LOAD_EVENT_SCHEDULER: Load scheduler "main" with entities [Ajido-Marujido (ID: 17768471/0x010F2017), Ajido-Marujido (ID: 17768471/0x010F2017)], work=[7*, 0*]
 12: 0x020E [0x1C] WAIT(50* ticks)
 13: 0x0211 [0x62] LOAD_EVENT_SCHEDULER: Load scheduler "main" with entities [Ajido-Marujido (ID: 17768471/0x010F2017), Ajido-Marujido (ID: 17768471/0x010F2017)], work=[7*, 0*]
 14: 0x0222 [0x1C] WAIT(50* ticks)
 15: 0x0225 [0x00] END_REQSTACK()
```

### Event 111

#### Metadata

| Field        | Value    |
|--------------|----------|
| Entrypoint   | 0x0226   |
| Data Size    | 33 bytes |
| Instructions | 12       |

```
      00 01 02 03 04 05 06 07  08 09 0A 0B 0C 0D 0E 0F
      -- -- -- -- -- -- -- --  -- -- -- -- -- -- -- --
0220:                   1E F0  FF FF 7F 6F 70 29 08 24        .....op).$
0230: 20 0F 01 09 1D 0A 80 23  29 08 24 20 0F 01 0A 1D   ......#).$ ....
0240: 0B 80 23 20 00 21 00                              ..# .!.         
```

#### Opcodes

```
  0: 0x0226 [0x1E] EventEntity looks at LocalPlayer and starts talking
  1: 0x022B [0x6F] WAIT_FRAME_DELAY: Yield until WaitTime reaches zero
  2: 0x022C [0x70] WAIT_ENTITY_RENDER_FLAG: Wait while EventEntity->Render.Flags3 bit 2 is set (cancel turn if not)
  3: 0x022D [0x29] REQ_SET_WAIT(priority=0x08, entity_id=Ufu Koromoa (ID: 17768484/0x010F2024), tag_num=0x09)
  4: 0x0234 [0x1D] PRINT_EVENT_MESSAGE(message_id=185*)
    → "Don't let Lady Semih Lafihna hearrr I said this, but I don't think that little Tarutaru was one hundred percent wrong."
  5: 0x0237 [0x23] WAIT_FOR_DIALOG_INTERACTION
  6: 0x0238 [0x29] REQ_SET_WAIT(priority=0x08, entity_id=Ufu Koromoa (ID: 17768484/0x010F2024), tag_num=0x0A)
  7: 0x023F [0x1D] PRINT_EVENT_MESSAGE(message_id=186*)
    → "Both sides are thinking of Windurst's futurrre... I just wish therrre was some way we could be on the same side."
  8: 0x0242 [0x23] WAIT_FOR_DIALOG_INTERACTION
  9: 0x0243 [0x20] SET_CLI_EVENT_UC_FLAG: Unlock player control
 10: 0x0245 [0x21] END_EVENT
 11: 0x0246 [0x00] END_REQSTACK()
```

### Event 114

#### Metadata

| Field        | Value   |
|--------------|---------|
| Entrypoint   | 0x0247  |
| Data Size    | 1 bytes |
| Instructions | 1       |

```
      00 01 02 03 04 05 06 07  08 09 0A 0B 0C 0D 0E 0F
      -- -- -- -- -- -- -- --  -- -- -- -- -- -- -- --
0240:                      00                                  .        
```

#### Opcodes

```
  0: 0x0247 [0x00] END_REQSTACK()
```

### Event 118

#### Metadata

| Field        | Value    |
|--------------|----------|
| Entrypoint   | 0x0248   |
| Data Size    | 33 bytes |
| Instructions | 12       |

```
      00 01 02 03 04 05 06 07  08 09 0A 0B 0C 0D 0E 0F
      -- -- -- -- -- -- -- --  -- -- -- -- -- -- -- --
0240:                          1E F0 FF FF 7F 6F 70 29          .....op)
0250: 08 24 20 0F 01 09 1D 0C  80 23 29 08 24 20 0F 01  .$ ......#).$ ..
0260: 0A 1D 0D 80 23 20 00 21  00                       ....# .!.       
```

#### Opcodes

```
  0: 0x0248 [0x1E] EventEntity looks at LocalPlayer and starts talking
  1: 0x024D [0x6F] WAIT_FRAME_DELAY: Yield until WaitTime reaches zero
  2: 0x024E [0x70] WAIT_ENTITY_RENDER_FLAG: Wait while EventEntity->Render.Flags3 bit 2 is set (cancel turn if not)
  3: 0x024F [0x29] REQ_SET_WAIT(priority=0x08, entity_id=Ufu Koromoa (ID: 17768484/0x010F2024), tag_num=0x09)
  4: 0x0256 [0x1D] PRINT_EVENT_MESSAGE(message_id=205*)
    → "Many Mithra lost theirrr lives at Castle Oztroja..."
  5: 0x0259 [0x23] WAIT_FOR_DIALOG_INTERACTION
  6: 0x025A [0x29] REQ_SET_WAIT(priority=0x08, entity_id=Ufu Koromoa (ID: 17768484/0x010F2024), tag_num=0x0A)
  7: 0x0261 [0x1D] PRINT_EVENT_MESSAGE(message_id=206*)
    → "The heaviest fighting came nearrr the cells where ourrr comrades were locked up."
  8: 0x0264 [0x23] WAIT_FOR_DIALOG_INTERACTION
  9: 0x0265 [0x20] SET_CLI_EVENT_UC_FLAG: Unlock player control
 10: 0x0267 [0x21] END_EVENT
 11: 0x0268 [0x00] END_REQSTACK()
```

### Event 159

#### Metadata

| Field        | Value    |
|--------------|----------|
| Entrypoint   | 0x0269   |
| Data Size    | 29 bytes |
| Instructions | 10       |

```
      00 01 02 03 04 05 06 07  08 09 0A 0B 0C 0D 0E 0F
      -- -- -- -- -- -- -- --  -- -- -- -- -- -- -- --
0260:                             1E F0 FF FF 7F 6F 70           .....op
0270: 29 08 24 20 0F 01 13 1D  0E 80 23 29 08 24 20 0F  ).$ ......#).$ .
0280: 01 14 20 00 21 00                                 .. .!.          
```

#### Opcodes

```
  0: 0x0269 [0x1E] EventEntity looks at LocalPlayer and starts talking
  1: 0x026E [0x6F] WAIT_FRAME_DELAY: Yield until WaitTime reaches zero
  2: 0x026F [0x70] WAIT_ENTITY_RENDER_FLAG: Wait while EventEntity->Render.Flags3 bit 2 is set (cancel turn if not)
  3: 0x0270 [0x29] REQ_SET_WAIT(priority=0x08, entity_id=Ufu Koromoa (ID: 17768484/0x010F2024), tag_num=0x13)
  4: 0x0277 [0x1D] PRINT_EVENT_MESSAGE(message_id=317*)
    → "Watch yourself in therrre, or you will have Lady Semih Lafihna to answerrr to!"
  5: 0x027A [0x23] WAIT_FOR_DIALOG_INTERACTION
  6: 0x027B [0x29] REQ_SET_WAIT(priority=0x08, entity_id=Ufu Koromoa (ID: 17768484/0x010F2024), tag_num=0x14)
  7: 0x0282 [0x20] SET_CLI_EVENT_UC_FLAG: Unlock player control
  8: 0x0284 [0x21] END_EVENT
  9: 0x0285 [0x00] END_REQSTACK()
```

### Event 161

#### Metadata

| Field        | Value    |
|--------------|----------|
| Entrypoint   | 0x0286   |
| Data Size    | 15 bytes |
| Instructions | 8        |

```
      00 01 02 03 04 05 06 07  08 09 0A 0B 0C 0D 0E 0F
      -- -- -- -- -- -- -- --  -- -- -- -- -- -- -- --
0280:                   1E F0  FF FF 7F 6F 70 1D 0F 80        .....op...
0290: 23 20 00 21 00                                    # .!.           
```

#### Opcodes

```
  0: 0x0286 [0x1E] EventEntity looks at LocalPlayer and starts talking
  1: 0x028B [0x6F] WAIT_FRAME_DELAY: Yield until WaitTime reaches zero
  2: 0x028C [0x70] WAIT_ENTITY_RENDER_FLAG: Wait while EventEntity->Render.Flags3 bit 2 is set (cancel turn if not)
  3: 0x028D [0x1D] PRINT_EVENT_MESSAGE(message_id=319*)
    → "I shall pray to the starrrs that your mission is a success."
  4: 0x0290 [0x23] WAIT_FOR_DIALOG_INTERACTION
  5: 0x0291 [0x20] SET_CLI_EVENT_UC_FLAG: Unlock player control
  6: 0x0293 [0x21] END_EVENT
  7: 0x0294 [0x00] END_REQSTACK()
```

### Event 171

#### Metadata

| Field        | Value    |
|--------------|----------|
| Entrypoint   | 0x0295   |
| Data Size    | 29 bytes |
| Instructions | 10       |

```
      00 01 02 03 04 05 06 07  08 09 0A 0B 0C 0D 0E 0F
      -- -- -- -- -- -- -- --  -- -- -- -- -- -- -- --
0290:                1E F0 FF  FF 7F 6F 70 29 08 24 20       .....op).$ 
02A0: 0F 01 13 1D 10 80 23 29  08 24 20 0F 01 14 20 00  ......#).$ ... .
02B0: 21 00                                             !.              
```

#### Opcodes

```
  0: 0x0295 [0x1E] EventEntity looks at LocalPlayer and starts talking
  1: 0x029A [0x6F] WAIT_FRAME_DELAY: Yield until WaitTime reaches zero
  2: 0x029B [0x70] WAIT_ENTITY_RENDER_FLAG: Wait while EventEntity->Render.Flags3 bit 2 is set (cancel turn if not)
  3: 0x029C [0x29] REQ_SET_WAIT(priority=0x08, entity_id=Ufu Koromoa (ID: 17768484/0x010F2024), tag_num=0x13)
  4: 0x02A3 [0x1D] PRINT_EVENT_MESSAGE(message_id=353*)
    → "Watch yourself in therrre, or you will have Lady Semih Lafihna to answerrr to!"
  5: 0x02A6 [0x23] WAIT_FOR_DIALOG_INTERACTION
  6: 0x02A7 [0x29] REQ_SET_WAIT(priority=0x08, entity_id=Ufu Koromoa (ID: 17768484/0x010F2024), tag_num=0x14)
  7: 0x02AE [0x20] SET_CLI_EVENT_UC_FLAG: Unlock player control
  8: 0x02B0 [0x21] END_EVENT
  9: 0x02B1 [0x00] END_REQSTACK()
```

### Event 176

#### Metadata

| Field        | Value    |
|--------------|----------|
| Entrypoint   | 0x02B2   |
| Data Size    | 65 bytes |
| Instructions | 18       |

```
      00 01 02 03 04 05 06 07  08 09 0A 0B 0C 0D 0E 0F
      -- -- -- -- -- -- -- --  -- -- -- -- -- -- -- --
02B0:       1E F0 FF FF 7F 6F  70 29 08 24 20 0F 01 05    .....op).$ ...
02C0: 1D 11 80 23 29 08 24 20  0F 01 06 29 08 24 20 0F  ...#).$ ...).$ .
02D0: 01 07 1D 12 80 23 29 08  24 20 0F 01 08 29 08 24  .....#).$ ...).$
02E0: 20 0F 01 09 1D 13 80 23  29 08 24 20 0F 01 0A 20   ......#).$ ... 
02F0: 00 21 00                                          .!.             
```

#### Opcodes

```
  0: 0x02B2 [0x1E] EventEntity looks at LocalPlayer and starts talking
  1: 0x02B7 [0x6F] WAIT_FRAME_DELAY: Yield until WaitTime reaches zero
  2: 0x02B8 [0x70] WAIT_ENTITY_RENDER_FLAG: Wait while EventEntity->Render.Flags3 bit 2 is set (cancel turn if not)
  3: 0x02B9 [0x29] REQ_SET_WAIT(priority=0x08, entity_id=Ufu Koromoa (ID: 17768484/0x010F2024), tag_num=0x05)
  4: 0x02C0 [0x1D] PRINT_EVENT_MESSAGE(message_id=362*)
    → "Who could have stolen the talisman from right underrr our tails?"
  5: 0x02C3 [0x23] WAIT_FOR_DIALOG_INTERACTION
  6: 0x02C4 [0x29] REQ_SET_WAIT(priority=0x08, entity_id=Ufu Koromoa (ID: 17768484/0x010F2024), tag_num=0x06)
  7: 0x02CB [0x29] REQ_SET_WAIT(priority=0x08, entity_id=Ufu Koromoa (ID: 17768484/0x010F2024), tag_num=0x07)
  8: 0x02D2 [0x1D] PRINT_EVENT_MESSAGE(message_id=363*)
    → "Everybody is saying that it had to have been the Yagudo, but I'm going to take a shot in the dark and say it was...the Orastery ministerrr!"
  9: 0x02D5 [0x23] WAIT_FOR_DIALOG_INTERACTION
 10: 0x02D6 [0x29] REQ_SET_WAIT(priority=0x08, entity_id=Ufu Koromoa (ID: 17768484/0x010F2024), tag_num=0x08)
 11: 0x02DD [0x29] REQ_SET_WAIT(priority=0x08, entity_id=Ufu Koromoa (ID: 17768484/0x010F2024), tag_num=0x09)
 12: 0x02E4 [0x1D] PRINT_EVENT_MESSAGE(message_id=364*)
    → "What? That's not a shot in the dark?"
 13: 0x02E7 [0x23] WAIT_FOR_DIALOG_INTERACTION
 14: 0x02E8 [0x29] REQ_SET_WAIT(priority=0x08, entity_id=Ufu Koromoa (ID: 17768484/0x010F2024), tag_num=0x0A)
 15: 0x02EF [0x20] SET_CLI_EVENT_UC_FLAG: Unlock player control
 16: 0x02F1 [0x21] END_EVENT
 17: 0x02F2 [0x00] END_REQSTACK()
```

### Event 196

#### Metadata

| Field        | Value    |
|--------------|----------|
| Entrypoint   | 0x02F3   |
| Data Size    | 29 bytes |
| Instructions | 10       |

```
      00 01 02 03 04 05 06 07  08 09 0A 0B 0C 0D 0E 0F
      -- -- -- -- -- -- -- --  -- -- -- -- -- -- -- --
02F0:          1E F0 FF FF 7F  6F 70 29 08 24 20 0F 01     .....op).$ ..
0300: 13 1D 14 80 23 29 08 24  20 0F 01 14 20 00 21 00  ....#).$ ... .!.
```

#### Opcodes

```
  0: 0x02F3 [0x1E] EventEntity looks at LocalPlayer and starts talking
  1: 0x02F8 [0x6F] WAIT_FRAME_DELAY: Yield until WaitTime reaches zero
  2: 0x02F9 [0x70] WAIT_ENTITY_RENDER_FLAG: Wait while EventEntity->Render.Flags3 bit 2 is set (cancel turn if not)
  3: 0x02FA [0x29] REQ_SET_WAIT(priority=0x08, entity_id=Ufu Koromoa (ID: 17768484/0x010F2024), tag_num=0x13)
  4: 0x0301 [0x1D] PRINT_EVENT_MESSAGE(message_id=439*)
    → "Watch yourself in therrre, or you will have Lady Semih Lafihna to answerrr to!"
  5: 0x0304 [0x23] WAIT_FOR_DIALOG_INTERACTION
  6: 0x0305 [0x29] REQ_SET_WAIT(priority=0x08, entity_id=Ufu Koromoa (ID: 17768484/0x010F2024), tag_num=0x14)
  7: 0x030C [0x20] SET_CLI_EVENT_UC_FLAG: Unlock player control
  8: 0x030E [0x21] END_EVENT
  9: 0x030F [0x00] END_REQSTACK()
```

### Event 201

#### Metadata

| Field        | Value    |
|--------------|----------|
| Entrypoint   | 0x0310   |
| Data Size    | 40 bytes |
| Instructions | 13       |

```
      00 01 02 03 04 05 06 07  08 09 0A 0B 0C 0D 0E 0F
      -- -- -- -- -- -- -- --  -- -- -- -- -- -- -- --
0310: 1E F0 FF FF 7F 6F 70 29  08 24 20 0F 01 01 1D 15  .....op).$ .....
0320: 80 23 1D 16 80 23 29 08  24 20 0F 01 03 29 08 24  .#...#).$ ...).$
0330: 20 0F 01 04 20 00 21 00                            ... .!.        
```

#### Opcodes

```
  0: 0x0310 [0x1E] EventEntity looks at LocalPlayer and starts talking
  1: 0x0315 [0x6F] WAIT_FRAME_DELAY: Yield until WaitTime reaches zero
  2: 0x0316 [0x70] WAIT_ENTITY_RENDER_FLAG: Wait while EventEntity->Render.Flags3 bit 2 is set (cancel turn if not)
  3: 0x0317 [0x29] REQ_SET_WAIT(priority=0x08, entity_id=Ufu Koromoa (ID: 17768484/0x010F2024), tag_num=0x01)
  4: 0x031E [0x1D] PRINT_EVENT_MESSAGE(message_id=448*)
    → "My Mithra blood is boiling. I still have dreams about my motherrr being slaughtered by the beastmen."
  5: 0x0321 [0x23] WAIT_FOR_DIALOG_INTERACTION
  6: 0x0322 [0x1D] PRINT_EVENT_MESSAGE(message_id=449*)
    → "And as orphans of the Great Warrr, I can tell you that all of my Sibyl Guard companions feel the same."
  7: 0x0325 [0x23] WAIT_FOR_DIALOG_INTERACTION
  8: 0x0326 [0x29] REQ_SET_WAIT(priority=0x08, entity_id=Ufu Koromoa (ID: 17768484/0x010F2024), tag_num=0x03)
  9: 0x032D [0x29] REQ_SET_WAIT(priority=0x08, entity_id=Ufu Koromoa (ID: 17768484/0x010F2024), tag_num=0x04)
 10: 0x0334 [0x20] SET_CLI_EVENT_UC_FLAG: Unlock player control
 11: 0x0336 [0x21] END_EVENT
 12: 0x0337 [0x00] END_REQSTACK()
```

### Event 219

#### Metadata

| Field        | Value    |
|--------------|----------|
| Entrypoint   | 0x0338   |
| Data Size    | 36 bytes |
| Instructions | 11       |

```
      00 01 02 03 04 05 06 07  08 09 0A 0B 0C 0D 0E 0F
      -- -- -- -- -- -- -- --  -- -- -- -- -- -- -- --
0330:                          1E F0 FF FF 7F 6F 70 29          .....op)
0340: 08 24 20 0F 01 01 1D 17  80 23 29 08 24 20 0F 01  .$ ......#).$ ..
0350: 03 29 08 24 20 0F 01 04  20 00 21 00              .).$ ... .!.    
```

#### Opcodes

```
  0: 0x0338 [0x1E] EventEntity looks at LocalPlayer and starts talking
  1: 0x033D [0x6F] WAIT_FRAME_DELAY: Yield until WaitTime reaches zero
  2: 0x033E [0x70] WAIT_ENTITY_RENDER_FLAG: Wait while EventEntity->Render.Flags3 bit 2 is set (cancel turn if not)
  3: 0x033F [0x29] REQ_SET_WAIT(priority=0x08, entity_id=Ufu Koromoa (ID: 17768484/0x010F2024), tag_num=0x01)
  4: 0x0346 [0x1D] PRINT_EVENT_MESSAGE(message_id=490*)
    → "I am relieved to see you back in Windurst. When things settle down, please tell us of your adventures in the Northlands."
  5: 0x0349 [0x23] WAIT_FOR_DIALOG_INTERACTION
  6: 0x034A [0x29] REQ_SET_WAIT(priority=0x08, entity_id=Ufu Koromoa (ID: 17768484/0x010F2024), tag_num=0x03)
  7: 0x0351 [0x29] REQ_SET_WAIT(priority=0x08, entity_id=Ufu Koromoa (ID: 17768484/0x010F2024), tag_num=0x04)
  8: 0x0358 [0x20] SET_CLI_EVENT_UC_FLAG: Unlock player control
  9: 0x035A [0x21] END_EVENT
 10: 0x035B [0x00] END_REQSTACK()
```

### Event 319

#### Metadata

| Field        | Value    |
|--------------|----------|
| Entrypoint   | 0x035C   |
| Data Size    | 47 bytes |
| Instructions | 14       |

```
      00 01 02 03 04 05 06 07  08 09 0A 0B 0C 0D 0E 0F
      -- -- -- -- -- -- -- --  -- -- -- -- -- -- -- --
0350:                                      1E F0 FF FF              ....
0360: 7F 6F 70 29 08 24 20 0F  01 0F 1D 18 80 23 29 08  .op).$ ......#).
0370: 20 20 0F 01 10 29 08 20  20 0F 01 11 1D 19 80 23    ...).  ......#
0380: 29 08 20 20 0F 01 12 20  00 21 00                 ).  ... .!.     
```

#### Opcodes

```
  0: 0x035C [0x1E] EventEntity looks at LocalPlayer and starts talking
  1: 0x0361 [0x6F] WAIT_FRAME_DELAY: Yield until WaitTime reaches zero
  2: 0x0362 [0x70] WAIT_ENTITY_RENDER_FLAG: Wait while EventEntity->Render.Flags3 bit 2 is set (cancel turn if not)
  3: 0x0363 [0x29] REQ_SET_WAIT(priority=0x08, entity_id=Ufu Koromoa (ID: 17768484/0x010F2024), tag_num=0x0F)
  4: 0x036A [0x1D] PRINT_EVENT_MESSAGE(message_id=8124*)
    → "If you ever grow tirrred of the adventuring life, we could use someone with your untapped potential."
  5: 0x036D [0x23] WAIT_FOR_DIALOG_INTERACTION
  6: 0x036E [0x29] REQ_SET_WAIT(priority=0x08, entity_id=Foo Beibo (ID: 17768480/0x010F2020), tag_num=0x10)
  7: 0x0375 [0x29] REQ_SET_WAIT(priority=0x08, entity_id=Foo Beibo (ID: 17768480/0x010F2020), tag_num=0x11)
  8: 0x037C [0x1D] PRINT_EVENT_MESSAGE(message_id=8125*)
    → "Windurst must be prepared for the days of strrrife ahead."
  9: 0x037F [0x23] WAIT_FOR_DIALOG_INTERACTION
 10: 0x0380 [0x29] REQ_SET_WAIT(priority=0x08, entity_id=Foo Beibo (ID: 17768480/0x010F2020), tag_num=0x12)
 11: 0x0387 [0x20] SET_CLI_EVENT_UC_FLAG: Unlock player control
 12: 0x0389 [0x21] END_EVENT
 13: 0x038A [0x00] END_REQSTACK()
```

### Event 324

#### Metadata

| Field        | Value    |
|--------------|----------|
| Entrypoint   | 0x038B   |
| Data Size    | 47 bytes |
| Instructions | 14       |

```
      00 01 02 03 04 05 06 07  08 09 0A 0B 0C 0D 0E 0F
      -- -- -- -- -- -- -- --  -- -- -- -- -- -- -- --
0380:                                   1E F0 FF FF 7F             .....
0390: 6F 70 29 08 24 20 0F 01  0F 1D 1A 80 23 29 08 20  op).$ ......#). 
03A0: 20 0F 01 10 29 08 20 20  0F 01 11 1D 1B 80 23 29   ...).  ......#)
03B0: 08 20 20 0F 01 12 20 00  21 00                    .  ... .!.      
```

#### Opcodes

```
  0: 0x038B [0x1E] EventEntity looks at LocalPlayer and starts talking
  1: 0x0390 [0x6F] WAIT_FRAME_DELAY: Yield until WaitTime reaches zero
  2: 0x0391 [0x70] WAIT_ENTITY_RENDER_FLAG: Wait while EventEntity->Render.Flags3 bit 2 is set (cancel turn if not)
  3: 0x0392 [0x29] REQ_SET_WAIT(priority=0x08, entity_id=Ufu Koromoa (ID: 17768484/0x010F2024), tag_num=0x0F)
  4: 0x0399 [0x1D] PRINT_EVENT_MESSAGE(message_id=8132*)
    → "The strongest of the Sibyl Guards is, without a doubt, Semih Lafihna. She has the ability to read the flow of things."
  5: 0x039C [0x23] WAIT_FOR_DIALOG_INTERACTION
  6: 0x039D [0x29] REQ_SET_WAIT(priority=0x08, entity_id=Foo Beibo (ID: 17768480/0x010F2020), tag_num=0x10)
  7: 0x03A4 [0x29] REQ_SET_WAIT(priority=0x08, entity_id=Foo Beibo (ID: 17768480/0x010F2020), tag_num=0x11)
  8: 0x03AB [0x1D] PRINT_EVENT_MESSAGE(message_id=8133*)
    → "The flow of water, the flow of wind, the flow of light. When the flow comes into focus, time stands still for a moment."
  9: 0x03AE [0x23] WAIT_FOR_DIALOG_INTERACTION
 10: 0x03AF [0x29] REQ_SET_WAIT(priority=0x08, entity_id=Foo Beibo (ID: 17768480/0x010F2020), tag_num=0x12)
 11: 0x03B6 [0x20] SET_CLI_EVENT_UC_FLAG: Unlock player control
 12: 0x03B8 [0x21] END_EVENT
 13: 0x03B9 [0x00] END_REQSTACK()
```

### Event 303

#### Metadata

| Field        | Value    |
|--------------|----------|
| Entrypoint   | 0x03BA   |
| Data Size    | 29 bytes |
| Instructions | 10       |

```
      00 01 02 03 04 05 06 07  08 09 0A 0B 0C 0D 0E 0F
      -- -- -- -- -- -- -- --  -- -- -- -- -- -- -- --
03B0:                                1E F0 FF FF 7F 6F            .....o
03C0: 70 29 08 24 20 0F 01 13  1D 1C 80 23 29 08 24 20  p).$ ......#).$ 
03D0: 0F 01 14 20 00 21 00                              ... .!.         
```

#### Opcodes

```
  0: 0x03BA [0x1E] EventEntity looks at LocalPlayer and starts talking
  1: 0x03BF [0x6F] WAIT_FRAME_DELAY: Yield until WaitTime reaches zero
  2: 0x03C0 [0x70] WAIT_ENTITY_RENDER_FLAG: Wait while EventEntity->Render.Flags3 bit 2 is set (cancel turn if not)
  3: 0x03C1 [0x29] REQ_SET_WAIT(priority=0x08, entity_id=Ufu Koromoa (ID: 17768484/0x010F2024), tag_num=0x13)
  4: 0x03C8 [0x1D] PRINT_EVENT_MESSAGE(message_id=8151*)
    → "Watch yourself in therrre, or you will have Lady Semih Lafihna to answerrr to!"
  5: 0x03CB [0x23] WAIT_FOR_DIALOG_INTERACTION
  6: 0x03CC [0x29] REQ_SET_WAIT(priority=0x08, entity_id=Ufu Koromoa (ID: 17768484/0x010F2024), tag_num=0x14)
  7: 0x03D3 [0x20] SET_CLI_EVENT_UC_FLAG: Unlock player control
  8: 0x03D5 [0x21] END_EVENT
  9: 0x03D6 [0x00] END_REQSTACK()
```

### Event 308

#### Metadata

| Field        | Value    |
|--------------|----------|
| Entrypoint   | 0x03D7   |
| Data Size    | 40 bytes |
| Instructions | 13       |

```
      00 01 02 03 04 05 06 07  08 09 0A 0B 0C 0D 0E 0F
      -- -- -- -- -- -- -- --  -- -- -- -- -- -- -- --
03D0:                      1E  F0 FF FF 7F 6F 70 29 08         .....op).
03E0: 24 20 0F 01 01 1D 1D 80  23 1D 1E 80 23 29 08 24  $ ......#...#).$
03F0: 20 0F 01 03 29 08 24 20  0F 01 04 20 00 21 00      ...).$ ... .!. 
```

#### Opcodes

```
  0: 0x03D7 [0x1E] EventEntity looks at LocalPlayer and starts talking
  1: 0x03DC [0x6F] WAIT_FRAME_DELAY: Yield until WaitTime reaches zero
  2: 0x03DD [0x70] WAIT_ENTITY_RENDER_FLAG: Wait while EventEntity->Render.Flags3 bit 2 is set (cancel turn if not)
  3: 0x03DE [0x29] REQ_SET_WAIT(priority=0x08, entity_id=Ufu Koromoa (ID: 17768484/0x010F2024), tag_num=0x01)
  4: 0x03E5 [0x1D] PRINT_EVENT_MESSAGE(message_id=8159*)
    → "The Yagudo of Castle Oztroja are known to stage death matches for the pleasurrre of their king. They are nothing but bloodthirsty fiends."
  5: 0x03E8 [0x23] WAIT_FOR_DIALOG_INTERACTION
  6: 0x03E9 [0x1D] PRINT_EVENT_MESSAGE(message_id=8160*)
    → "The Star Sibyl believes we should have amicable relations with these animals... What do you think?"
  7: 0x03EC [0x23] WAIT_FOR_DIALOG_INTERACTION
  8: 0x03ED [0x29] REQ_SET_WAIT(priority=0x08, entity_id=Ufu Koromoa (ID: 17768484/0x010F2024), tag_num=0x03)
  9: 0x03F4 [0x29] REQ_SET_WAIT(priority=0x08, entity_id=Ufu Koromoa (ID: 17768484/0x010F2024), tag_num=0x04)
 10: 0x03FB [0x20] SET_CLI_EVENT_UC_FLAG: Unlock player control
 11: 0x03FD [0x21] END_EVENT
 12: 0x03FE [0x00] END_REQSTACK()
```

### Event 366

#### Metadata

| Field        | Value    |
|--------------|----------|
| Entrypoint   | 0x03FF   |
| Data Size    | 47 bytes |
| Instructions | 14       |

```
      00 01 02 03 04 05 06 07  08 09 0A 0B 0C 0D 0E 0F
      -- -- -- -- -- -- -- --  -- -- -- -- -- -- -- --
03F0:                                               1E                 .
0400: F0 FF FF 7F 6F 70 29 08  24 20 0F 01 0F 1D 1F 80  ....op).$ ......
0410: 23 29 08 24 20 0F 01 10  29 08 24 20 0F 01 11 1D  #).$ ...).$ ....
0420: 20 80 23 29 08 24 20 0F  01 12 20 00 21 00         .#).$ ... .!.  
```

#### Opcodes

```
  0: 0x03FF [0x1E] EventEntity looks at LocalPlayer and starts talking
  1: 0x0404 [0x6F] WAIT_FRAME_DELAY: Yield until WaitTime reaches zero
  2: 0x0405 [0x70] WAIT_ENTITY_RENDER_FLAG: Wait while EventEntity->Render.Flags3 bit 2 is set (cancel turn if not)
  3: 0x0406 [0x29] REQ_SET_WAIT(priority=0x08, entity_id=Ufu Koromoa (ID: 17768484/0x010F2024), tag_num=0x0F)
  4: 0x040D [0x1D] PRINT_EVENT_MESSAGE(message_id=8313*)
    → "If you're looking for Semih Lafihna and the Orastery minister, they're in the Star Sibyl's chamberrrs."
  5: 0x0410 [0x23] WAIT_FOR_DIALOG_INTERACTION
  6: 0x0411 [0x29] REQ_SET_WAIT(priority=0x08, entity_id=Ufu Koromoa (ID: 17768484/0x010F2024), tag_num=0x10)
  7: 0x0418 [0x29] REQ_SET_WAIT(priority=0x08, entity_id=Ufu Koromoa (ID: 17768484/0x010F2024), tag_num=0x11)
  8: 0x041F [0x1D] PRINT_EVENT_MESSAGE(message_id=8314*)
    → "As you have been summoned here, I will grant you permission to pass through the door to the Vestal Chambers. An adventurer like yourself who travels the width and breadth of Vana'diel may find some way to triumph against the bearer of darkness."
  9: 0x0422 [0x23] WAIT_FOR_DIALOG_INTERACTION
 10: 0x0423 [0x29] REQ_SET_WAIT(priority=0x08, entity_id=Ufu Koromoa (ID: 17768484/0x010F2024), tag_num=0x12)
 11: 0x042A [0x20] SET_CLI_EVENT_UC_FLAG: Unlock player control
 12: 0x042C [0x21] END_EVENT
 13: 0x042D [0x00] END_REQSTACK()
```

### Event 370

#### Metadata

| Field        | Value    |
|--------------|----------|
| Entrypoint   | 0x042E   |
| Data Size    | 51 bytes |
| Instructions | 16       |

```
      00 01 02 03 04 05 06 07  08 09 0A 0B 0C 0D 0E 0F
      -- -- -- -- -- -- -- --  -- -- -- -- -- -- -- --
0420:                                            1E F0                ..
0430: FF FF 7F 6F 70 29 08 24  20 0F 01 0F 1D 21 80 23  ...op).$ ....!.#
0440: 1D 22 80 23 29 08 24 20  0F 01 10 29 08 24 20 0F  .".#).$ ...).$ .
0450: 01 11 1D 23 80 23 29 08  24 20 0F 01 12 20 00 21  ...#.#).$ ... .!
0460: 00                                                .               
```

#### Opcodes

```
  0: 0x042E [0x1E] EventEntity looks at LocalPlayer and starts talking
  1: 0x0433 [0x6F] WAIT_FRAME_DELAY: Yield until WaitTime reaches zero
  2: 0x0434 [0x70] WAIT_ENTITY_RENDER_FLAG: Wait while EventEntity->Render.Flags3 bit 2 is set (cancel turn if not)
  3: 0x0435 [0x29] REQ_SET_WAIT(priority=0x08, entity_id=Ufu Koromoa (ID: 17768484/0x010F2024), tag_num=0x0F)
  4: 0x043C [0x1D] PRINT_EVENT_MESSAGE(message_id=8315*)
    → "... Those soulless eyes. A chill runs down my spine just thinking about it."
  5: 0x043F [0x23] WAIT_FOR_DIALOG_INTERACTION
  6: 0x0440 [0x1D] PRINT_EVENT_MESSAGE(message_id=8316*)
    → "We Sibyl Guard were terror-stricken--but those delicate little Tarutaru must've been scared out of their wits!"
  7: 0x0443 [0x23] WAIT_FOR_DIALOG_INTERACTION
  8: 0x0444 [0x29] REQ_SET_WAIT(priority=0x08, entity_id=Ufu Koromoa (ID: 17768484/0x010F2024), tag_num=0x10)
  9: 0x044B [0x29] REQ_SET_WAIT(priority=0x08, entity_id=Ufu Koromoa (ID: 17768484/0x010F2024), tag_num=0x11)
 10: 0x0452 [0x1D] PRINT_EVENT_MESSAGE(message_id=8317*)
    → "With the stress she's been through, the Star Sibyl will be taking a break from her duties for a while."
 11: 0x0455 [0x23] WAIT_FOR_DIALOG_INTERACTION
 12: 0x0456 [0x29] REQ_SET_WAIT(priority=0x08, entity_id=Ufu Koromoa (ID: 17768484/0x010F2024), tag_num=0x12)
 13: 0x045D [0x20] SET_CLI_EVENT_UC_FLAG: Unlock player control
 14: 0x045F [0x21] END_EVENT
 15: 0x0460 [0x00] END_REQSTACK()
```

### Event 375

#### Metadata

| Field        | Value    |
|--------------|----------|
| Entrypoint   | 0x0461   |
| Data Size    | 47 bytes |
| Instructions | 14       |

```
      00 01 02 03 04 05 06 07  08 09 0A 0B 0C 0D 0E 0F
      -- -- -- -- -- -- -- --  -- -- -- -- -- -- -- --
0460:    1E F0 FF FF 7F 6F 70  29 08 24 20 0F 01 0F 1D   .....op).$ ....
0470: 24 80 23 29 08 24 20 0F  01 10 29 08 24 20 0F 01  $.#).$ ...).$ ..
0480: 11 1D 25 80 23 29 08 24  20 0F 01 12 20 00 21 00  ..%.#).$ ... .!.
```

#### Opcodes

```
  0: 0x0461 [0x1E] EventEntity looks at LocalPlayer and starts talking
  1: 0x0466 [0x6F] WAIT_FRAME_DELAY: Yield until WaitTime reaches zero
  2: 0x0467 [0x70] WAIT_ENTITY_RENDER_FLAG: Wait while EventEntity->Render.Flags3 bit 2 is set (cancel turn if not)
  3: 0x0468 [0x29] REQ_SET_WAIT(priority=0x08, entity_id=Ufu Koromoa (ID: 17768484/0x010F2024), tag_num=0x0F)
  4: 0x046F [0x1D] PRINT_EVENT_MESSAGE(message_id=8327*)
    → "When the Star Sibyl announced she wanted to head down to the Full Moon Fountain, Semih Lafihna objected, saying it was too dangerous."
  5: 0x0472 [0x23] WAIT_FOR_DIALOG_INTERACTION
  6: 0x0473 [0x29] REQ_SET_WAIT(priority=0x08, entity_id=Ufu Koromoa (ID: 17768484/0x010F2024), tag_num=0x10)
  7: 0x047A [0x29] REQ_SET_WAIT(priority=0x08, entity_id=Ufu Koromoa (ID: 17768484/0x010F2024), tag_num=0x11)
  8: 0x0481 [0x1D] PRINT_EVENT_MESSAGE(message_id=8328*)
    → "However, the Star Sibyl insisted therrre was something she needed to make sure of. This is my personal opinion, but I think the Star Sibyl may have had some idea of the dark intruderrr's true nature."
  9: 0x0484 [0x23] WAIT_FOR_DIALOG_INTERACTION
 10: 0x0485 [0x29] REQ_SET_WAIT(priority=0x08, entity_id=Ufu Koromoa (ID: 17768484/0x010F2024), tag_num=0x12)
 11: 0x048C [0x20] SET_CLI_EVENT_UC_FLAG: Unlock player control
 12: 0x048E [0x21] END_EVENT
 13: 0x048F [0x00] END_REQSTACK()
```

### Event 377

#### Metadata

| Field        | Value    |
|--------------|----------|
| Entrypoint   | 0x0490   |
| Data Size    | 29 bytes |
| Instructions | 10       |

```
      00 01 02 03 04 05 06 07  08 09 0A 0B 0C 0D 0E 0F
      -- -- -- -- -- -- -- --  -- -- -- -- -- -- -- --
0490: 1E F0 FF FF 7F 6F 70 29  08 24 20 0F 01 13 1D 26  .....op).$ ....&
04A0: 80 23 29 08 24 20 0F 01  14 20 00 21 00           .#).$ ... .!.   
```

#### Opcodes

```
  0: 0x0490 [0x1E] EventEntity looks at LocalPlayer and starts talking
  1: 0x0495 [0x6F] WAIT_FRAME_DELAY: Yield until WaitTime reaches zero
  2: 0x0496 [0x70] WAIT_ENTITY_RENDER_FLAG: Wait while EventEntity->Render.Flags3 bit 2 is set (cancel turn if not)
  3: 0x0497 [0x29] REQ_SET_WAIT(priority=0x08, entity_id=Ufu Koromoa (ID: 17768484/0x010F2024), tag_num=0x13)
  4: 0x049E [0x1D] PRINT_EVENT_MESSAGE(message_id=8452*)
    → "Semih Lafihna awaits you in the Star Sibyl's chamberrrs."
  5: 0x04A1 [0x23] WAIT_FOR_DIALOG_INTERACTION
  6: 0x04A2 [0x29] REQ_SET_WAIT(priority=0x08, entity_id=Ufu Koromoa (ID: 17768484/0x010F2024), tag_num=0x14)
  7: 0x04A9 [0x20] SET_CLI_EVENT_UC_FLAG: Unlock player control
  8: 0x04AB [0x21] END_EVENT
  9: 0x04AC [0x00] END_REQSTACK()
```

### Event 381

#### Metadata

| Field        | Value    |
|--------------|----------|
| Entrypoint   | 0x04AD   |
| Data Size    | 47 bytes |
| Instructions | 14       |

```
      00 01 02 03 04 05 06 07  08 09 0A 0B 0C 0D 0E 0F
      -- -- -- -- -- -- -- --  -- -- -- -- -- -- -- --
04A0:                                         1E F0 FF               ...
04B0: FF 7F 6F 70 29 08 24 20  0F 01 0F 1D 27 80 23 29  ..op).$ ....'.#)
04C0: 08 24 20 0F 01 10 29 08  24 20 0F 01 11 1D 28 80  .$ ...).$ ....(.
04D0: 23 29 08 24 20 0F 01 12  20 00 21 00              #).$ ... .!.    
```

#### Opcodes

```
  0: 0x04AD [0x1E] EventEntity looks at LocalPlayer and starts talking
  1: 0x04B2 [0x6F] WAIT_FRAME_DELAY: Yield until WaitTime reaches zero
  2: 0x04B3 [0x70] WAIT_ENTITY_RENDER_FLAG: Wait while EventEntity->Render.Flags3 bit 2 is set (cancel turn if not)
  3: 0x04B4 [0x29] REQ_SET_WAIT(priority=0x08, entity_id=Ufu Koromoa (ID: 17768484/0x010F2024), tag_num=0x0F)
  4: 0x04BB [0x1D] PRINT_EVENT_MESSAGE(message_id=8455*)
    → "You look nervous. I understand. A heavy fate rides upon your shoulderrrs."
  5: 0x04BE [0x23] WAIT_FOR_DIALOG_INTERACTION
  6: 0x04BF [0x29] REQ_SET_WAIT(priority=0x08, entity_id=Ufu Koromoa (ID: 17768484/0x010F2024), tag_num=0x10)
  7: 0x04C6 [0x29] REQ_SET_WAIT(priority=0x08, entity_id=Ufu Koromoa (ID: 17768484/0x010F2024), tag_num=0x11)
  8: 0x04CD [0x1D] PRINT_EVENT_MESSAGE(message_id=8456*)
    → "You must believe in yourself. There is nothing in this world that cannot be changed. Even a situation seemingly without hope can be rescued from the depths of despairrr."
  9: 0x04D0 [0x23] WAIT_FOR_DIALOG_INTERACTION
 10: 0x04D1 [0x29] REQ_SET_WAIT(priority=0x08, entity_id=Ufu Koromoa (ID: 17768484/0x010F2024), tag_num=0x12)
 11: 0x04D8 [0x20] SET_CLI_EVENT_UC_FLAG: Unlock player control
 12: 0x04DA [0x21] END_EVENT
 13: 0x04DB [0x00] END_REQSTACK()
```

### Event 402

#### Metadata

| Field        | Value    |
|--------------|----------|
| Entrypoint   | 0x04DC   |
| Data Size    | 47 bytes |
| Instructions | 14       |

```
      00 01 02 03 04 05 06 07  08 09 0A 0B 0C 0D 0E 0F
      -- -- -- -- -- -- -- --  -- -- -- -- -- -- -- --
04D0:                                      1E F0 FF FF              ....
04E0: 7F 6F 70 29 08 24 20 0F  01 0F 1D 29 80 23 29 08  .op).$ ....).#).
04F0: 24 20 0F 01 10 29 08 24  20 0F 01 11 1D 2A 80 23  $ ...).$ ....*.#
0500: 29 08 24 20 0F 01 12 20  00 21 00                 ).$ ... .!.     
```

#### Opcodes

```
  0: 0x04DC [0x1E] EventEntity looks at LocalPlayer and starts talking
  1: 0x04E1 [0x6F] WAIT_FRAME_DELAY: Yield until WaitTime reaches zero
  2: 0x04E2 [0x70] WAIT_ENTITY_RENDER_FLAG: Wait while EventEntity->Render.Flags3 bit 2 is set (cancel turn if not)
  3: 0x04E3 [0x29] REQ_SET_WAIT(priority=0x08, entity_id=Ufu Koromoa (ID: 17768484/0x010F2024), tag_num=0x0F)
  4: 0x04EA [0x1D] PRINT_EVENT_MESSAGE(message_id=8545*)
    → "By killing the Great Beast, Karaha-Baruha saved Windurst from its fate of destruction."
  5: 0x04ED [0x23] WAIT_FOR_DIALOG_INTERACTION
  6: 0x04EE [0x29] REQ_SET_WAIT(priority=0x08, entity_id=Ufu Koromoa (ID: 17768484/0x010F2024), tag_num=0x10)
  7: 0x04F5 [0x29] REQ_SET_WAIT(priority=0x08, entity_id=Ufu Koromoa (ID: 17768484/0x010F2024), tag_num=0x11)
  8: 0x04FC [0x1D] PRINT_EVENT_MESSAGE(message_id=8546*)
    → "Even among the Tarutaru, there are those whose blood sings with passion and courage. Even we Mithra hold his name in high esteem."
  9: 0x04FF [0x23] WAIT_FOR_DIALOG_INTERACTION
 10: 0x0500 [0x29] REQ_SET_WAIT(priority=0x08, entity_id=Ufu Koromoa (ID: 17768484/0x010F2024), tag_num=0x12)
 11: 0x0507 [0x20] SET_CLI_EVENT_UC_FLAG: Unlock player control
 12: 0x0509 [0x21] END_EVENT
 13: 0x050A [0x00] END_REQSTACK()
```

### Event 386

#### Metadata

| Field        | Value   |
|--------------|---------|
| Entrypoint   | 0x050B  |
| Data Size    | 1 bytes |
| Instructions | 1       |

```
      00 01 02 03 04 05 06 07  08 09 0A 0B 0C 0D 0E 0F
      -- -- -- -- -- -- -- --  -- -- -- -- -- -- -- --
0500:                                   00                         .    
```

#### Opcodes

```
  0: 0x050B [0x00] END_REQSTACK()
```
