# 17768533 - Shantotto

## Common Data

| Field            | Value                   |
|------------------|-------------------------|
| Zone             | Heavens Tower (ID: 242) |
| Block Size       | 2712 bytes              |
| Total Events     | 114                     |
| References Count | 126                     |

## List of Events

| Event ID                     | Entrypoint   |   Size |   Instructions |
|------------------------------|--------------|--------|----------------|
| [65535](#event-65535)        | 0x0000       |      1 |              1 |
| [413](#event-413)            | 0x0001       |     16 |              3 |
| [65535.1](#event-655351)     | 0x0011       |     10 |              2 |
| [65535.2](#event-655352)     | 0x001B       |     10 |              2 |
| [65535.3](#event-655353)     | 0x0025       |     29 |              3 |
| [65535.4](#event-655354)     | 0x0042       |     29 |              3 |
| [65535.5](#event-655355)     | 0x005F       |     29 |              3 |
| [65535.6](#event-655356)     | 0x007C       |     29 |              3 |
| [65535.7](#event-655357)     | 0x0099       |     24 |              4 |
| [65535.8](#event-655358)     | 0x00B1       |     16 |              2 |
| [65535.9](#event-655359)     | 0x00C1       |     29 |              3 |
| [65535.10](#event-6553510)   | 0x00DE       |     29 |              3 |
| [65535.11](#event-6553511)   | 0x00FB       |     29 |              3 |
| [65535.12](#event-6553512)   | 0x0118       |     34 |              4 |
| [65535.13](#event-6553513)   | 0x013A       |     16 |              2 |
| [65535.14](#event-6553514)   | 0x014A       |     22 |              4 |
| [65535.15](#event-6553515)   | 0x0160       |     16 |              2 |
| [65535.16](#event-6553516)   | 0x0170       |     14 |              2 |
| [65535.17](#event-6553517)   | 0x017E       |     16 |              2 |
| [65535.18](#event-6553518)   | 0x018E       |     14 |              2 |
| [65535.19](#event-6553519)   | 0x019C       |     16 |              2 |
| [65535.20](#event-6553520)   | 0x01AC       |     14 |              2 |
| [65535.21](#event-6553521)   | 0x01BA       |     16 |              2 |
| [65535.22](#event-6553522)   | 0x01CA       |     22 |              4 |
| [65535.23](#event-6553523)   | 0x01E0       |     16 |              2 |
| [65535.24](#event-6553524)   | 0x01F0       |     14 |              2 |
| [65535.25](#event-6553525)   | 0x01FE       |     16 |              2 |
| [65535.26](#event-6553526)   | 0x020E       |     14 |              2 |
| [65535.27](#event-6553527)   | 0x021C       |     16 |              2 |
| [65535.28](#event-6553528)   | 0x022C       |     14 |              2 |
| [65535.29](#event-6553529)   | 0x023A       |     16 |              2 |
| [65535.30](#event-6553530)   | 0x024A       |     14 |              2 |
| [65535.31](#event-6553531)   | 0x0258       |     16 |              2 |
| [65535.32](#event-6553532)   | 0x0268       |     22 |              4 |
| [65535.33](#event-6553533)   | 0x027E       |     16 |              2 |
| [65535.34](#event-6553534)   | 0x028E       |     22 |              4 |
| [65535.35](#event-6553535)   | 0x02A4       |      9 |              3 |
| [65535.36](#event-6553536)   | 0x02AD       |     34 |              8 |
| [65535.37](#event-6553537)   | 0x02CF       |     14 |              4 |
| [65535.38](#event-6553538)   | 0x02DD       |     28 |              6 |
| [65535.39](#event-6553539)   | 0x02F9       |     29 |              7 |
| [65535.40](#event-6553540)   | 0x0316       |     29 |              7 |
| [65535.41](#event-6553541)   | 0x0333       |     20 |              5 |
| [65535.42](#event-6553542)   | 0x0347       |     10 |              2 |
| [260](#event-260)            | 0x0351       |      1 |              1 |
| [65535.43](#event-6553543)   | 0x0352       |      5 |              3 |
| [65535.44](#event-6553544)   | 0x0357       |      1 |              1 |
| [65535.45](#event-6553545)   | 0x0358       |     19 |              5 |
| [65535.46](#event-6553546)   | 0x036B       |      5 |              3 |
| [65535.47](#event-6553547)   | 0x0370       |     19 |              5 |
| [65535.48](#event-6553548)   | 0x0383       |      5 |              3 |
| [65535.49](#event-6553549)   | 0x0388       |      5 |              3 |
| [65535.50](#event-6553550)   | 0x038D       |      5 |              3 |
| [65535.51](#event-6553551)   | 0x0392       |     19 |              5 |
| [65535.52](#event-6553552)   | 0x03A5       |     17 |              5 |
| [65535.53](#event-6553553)   | 0x03B6       |     23 |              7 |
| [65535.54](#event-6553554)   | 0x03CD       |     19 |              5 |
| [65535.55](#event-6553555)   | 0x03E0       |     10 |              2 |
| [65535.56](#event-6553556)   | 0x03EA       |     21 |              7 |
| [270](#event-270)            | 0x03FF       |      1 |              1 |
| [65535.57](#event-6553557)   | 0x0400       |      5 |              3 |
| [65535.58](#event-6553558)   | 0x0405       |     19 |              5 |
| [65535.59](#event-6553559)   | 0x0418       |      5 |              3 |
| [65535.60](#event-6553560)   | 0x041D       |      5 |              3 |
| [65535.61](#event-6553561)   | 0x0422       |      5 |              3 |
| [271](#event-271)            | 0x0427       |      1 |              1 |
| [65535.62](#event-6553562)   | 0x0428       |     10 |              2 |
| [65535.63](#event-6553563)   | 0x0432       |     14 |              4 |
| [65535.64](#event-6553564)   | 0x0440       |     14 |              4 |
| [65535.65](#event-6553565)   | 0x044E       |      5 |              3 |
| [65535.66](#event-6553566)   | 0x0453       |     19 |              5 |
| [65535.67](#event-6553567)   | 0x0466       |      5 |              3 |
| [65535.68](#event-6553568)   | 0x046B       |     19 |              5 |
| [65535.69](#event-6553569)   | 0x047E       |     23 |              7 |
| [65535.70](#event-6553570)   | 0x0495       |     19 |              5 |
| [65535.71](#event-6553571)   | 0x04A8       |     37 |              9 |
| [65535.72](#event-6553572)   | 0x04CD       |     29 |              3 |
| [65535.73](#event-6553573)   | 0x04EA       |     34 |              4 |
| [65535.74](#event-6553574)   | 0x050C       |     10 |              2 |
| [65535.75](#event-6553575)   | 0x0516       |     10 |              2 |
| [65535.76](#event-6553576)   | 0x0520       |     39 |              9 |
| [65535.77](#event-6553577)   | 0x0547       |     11 |              3 |
| [65535.78](#event-6553578)   | 0x0552       |     11 |              3 |
| [65535.79](#event-6553579)   | 0x055D       |      9 |              5 |
| [65535.80](#event-6553580)   | 0x0566       |     23 |              7 |
| [65535.81](#event-6553581)   | 0x057D       |     19 |              5 |
| [65535.82](#event-6553582)   | 0x0590       |      5 |              3 |
| [65535.83](#event-6553583)   | 0x0595       |      5 |              3 |
| [65535.84](#event-6553584)   | 0x059A       |      5 |              3 |
| [65535.85](#event-6553585)   | 0x059F       |     19 |              5 |
| [65535.86](#event-6553586)   | 0x05B2       |      5 |              3 |
| [65535.87](#event-6553587)   | 0x05B7       |      5 |              3 |
| [275](#event-275)            | 0x05BC       |      1 |              1 |
| [65535.88](#event-6553588)   | 0x05BD       |      5 |              3 |
| [65535.89](#event-6553589)   | 0x05C2       |     19 |              5 |
| [65535.90](#event-6553590)   | 0x05D5       |     19 |              5 |
| [276](#event-276)            | 0x05E8       |      1 |              1 |
| [65535.91](#event-6553591)   | 0x05E9       |      5 |              3 |
| [65535.92](#event-6553592)   | 0x05EE       |      5 |              3 |
| [65535.93](#event-6553593)   | 0x05F3       |     19 |              5 |
| [65535.94](#event-6553594)   | 0x0606       |     19 |              5 |
| [65535.95](#event-6553595)   | 0x0619       |     37 |              9 |
| [65535.96](#event-6553596)   | 0x063E       |      5 |              3 |
| [279](#event-279)            | 0x0643       |      1 |              1 |
| [65535.97](#event-6553597)   | 0x0644       |     19 |              5 |
| [65535.98](#event-6553598)   | 0x0657       |     24 |              6 |
| [65535.99](#event-6553599)   | 0x066F       |     14 |              4 |
| [65535.100](#event-65535100) | 0x067D       |     20 |              5 |
| [65535.101](#event-65535101) | 0x0691       |     10 |              2 |
| [281](#event-281)            | 0x069B       |      1 |              1 |
| [65535.102](#event-65535102) | 0x069C       |      5 |              3 |
| [65535.103](#event-65535103) | 0x06A1       |     19 |              5 |
| [65535.104](#event-65535104) | 0x06B4       |     19 |              5 |
| [430](#event-430)            | 0x06C7       |      1 |              1 |

## DAT References (imed_data)

|   Index | Hex Value   |   Dec Value |
|---------|-------------|-------------|
|       0 | 0x8DAF      |       36271 |
|       1 | 0x10E57     |       69207 |
|       2 | 0x07CB      |        1995 |
|       3 | 0x0872      |        2162 |
|       4 | 0x8838      |       34872 |
|       5 | 0x10BB2     |       68530 |
|       6 | 0x07C7      |        1991 |
|       7 | 0x0800      |        2048 |
|       8 | 0x0766      |        1894 |
|       9 | 0x0028      |          40 |
|      10 | 0x0029      |          41 |
|      11 | 0x0096      |         150 |
|      12 | 0x001E      |          30 |
|      13 | 0x002A      |          42 |
|      14 | 0x000D      |          13 |
|      15 | 0xFFFFA521  |  4294944033 |
|      16 | 0x4CB2      |       19634 |
|      17 | 0x6E59      |       28249 |
|      18 | 0xFFFFADBF  |  4294946239 |
|      19 | 0x55D1      |       21969 |
|      20 | 0x7147      |       28999 |
|      21 | 0xFFFFBC64  |  4294949988 |
|      22 | 0x6222      |       25122 |
|      23 | 0x752F      |       29999 |
|      24 | 0x0000      |           0 |
|      25 | 0x36B0      |       14000 |
|      26 | 0x781D      |       30749 |
|      27 | 0x458B      |       17803 |
|      28 | 0x0190      |         400 |
|      29 | 0x4A01      |       18945 |
|      30 | 0x7530      |       30000 |
|      31 | 0x06AA      |        1706 |
|      32 | 0x4646      |       17990 |
|      33 | 0xFFFFEBFD  |  4294962173 |
|      34 | 0x54C1      |       21697 |
|      35 | 0x7724      |       30500 |
|      36 | 0x057A      |        1402 |
|      37 | 0x44C3      |       17603 |
|      38 | 0x0AB6      |        2742 |
|      39 | 0x1E97      |        7831 |
|      40 | 0x1EA3      |        7843 |
|      41 | 0x1EA5      |        7845 |
|      42 | 0x1EA6      |        7846 |
|      43 | 0x1EA7      |        7847 |
|      44 | 0x1EAF      |        7855 |
|      45 | 0x1EB2      |        7858 |
|      46 | 0x1EB7      |        7863 |
|      47 | 0x1EC0      |        7872 |
|      48 | 0x1EC2      |        7874 |
|      49 | 0x1EC3      |        7875 |
|      50 | 0x1EC6      |        7878 |
|      51 | 0x0384      |         900 |
|      52 | 0x4268      |       17000 |
|      53 | 0x4588      |       17800 |
|      54 | 0x1EDC      |        7900 |
|      55 | 0x1EE4      |        7908 |
|      56 | 0x1EEA      |        7914 |
|      57 | 0x1EEE      |        7918 |
|      58 | 0x1F0D      |        7949 |
|      59 | 0xFFFFE1E4  |  4294959588 |
|      60 | 0x5C02      |       23554 |
|      61 | 0x7723      |       30499 |
|      62 | 0xFFFFEBE0  |  4294962144 |
|      63 | 0x573A      |       22330 |
|      64 | 0x3A98      |       15000 |
|      65 | 0x1F1A      |        7962 |
|      66 | 0x1F1D      |        7965 |
|      67 | 0x1F3B      |        7995 |
|      68 | 0x1F3D      |        7997 |
|      69 | 0x1F41      |        8001 |
|      70 | 0x1F42      |        8002 |
|      71 | 0x1F43      |        8003 |
|      72 | 0x1F44      |        8004 |
|      73 | 0x1F45      |        8005 |
|      74 | 0x002B      |          43 |
|      75 | 0xFFFF8692  |  4294936210 |
|      76 | 0x11170     |       70000 |
|      77 | 0x0259      |         601 |
|      78 | 0x003D      |          61 |
|      79 | 0xFFFFAA73  |  4294945395 |
|      80 | 0x114D3     |       70867 |
|      81 | 0xFFFFFFBE  |  4294967230 |
|      82 | 0x0F6B      |        3947 |
|      83 | 0xFFFFCC12  |  4294954002 |
|      84 | 0x10CBB     |       68795 |
|      85 | 0xFFFFD63D  |  4294956605 |
|      86 | 0x122D8     |       74456 |
|      87 | 0xFFFFD6EE  |  4294956782 |
|      88 | 0x130F9     |       78073 |
|      89 | 0xFFFFFFC6  |  4294967238 |
|      90 | 0xFFFFD733  |  4294956851 |
|      91 | 0x14A7D     |       84605 |
|      92 | 0x1F1E      |        7966 |
|      93 | 0x1F1F      |        7967 |
|      94 | 0x1F24      |        7972 |
|      95 | 0x1F25      |        7973 |
|      96 | 0x1F28      |        7976 |
|      97 | 0x1F2B      |        7979 |
|      98 | 0x1F30      |        7984 |
|      99 | 0x1F35      |        7989 |
|     100 | 0x1F37      |        7991 |
|     101 | 0x1F38      |        7992 |
|     102 | 0x1F3A      |        7994 |
|     103 | 0x1F4C      |        8012 |
|     104 | 0x1F4D      |        8013 |
|     105 | 0x1F50      |        8016 |
|     106 | 0x1F58      |        8024 |
|     107 | 0x1F6C      |        8044 |
|     108 | 0x1F6D      |        8045 |
|     109 | 0x1F71      |        8049 |
|     110 | 0x1F73      |        8051 |
|     111 | 0x1F74      |        8052 |
|     112 | 0x1F78      |        8056 |
|     113 | 0x1F87      |        8071 |
|     114 | 0xFFFFFF29  |  4294967081 |
|     115 | 0x47B3      |       18355 |
|     116 | 0x07CA      |        1994 |
|     117 | 0x45EE      |       17902 |
|     118 | 0xFFFFEF4D  |  4294963021 |
|     119 | 0x5325      |       21285 |
|     120 | 0xFFFFE1D2  |  4294959570 |
|     121 | 0x5871      |       22641 |
|     122 | 0x0157      |         343 |
|     123 | 0x1F95      |        8085 |
|     124 | 0x1F98      |        8088 |
|     125 | 0x1F9A      |        8090 |

## String References

- **7831**: Ohohoho! There is nothing you total losers have to fear, now that I am here!
- **7843**: Ohoho! I was wondering when you would ask.
- **7845**: When it comes to the subject of photosynthesis, I'm filled with knowledge galore.
- **7846**: Plants need light to grow. Take light away from the star trees, and their rate of growth will be slow!
- **7847**: So that is your solution, Chumimi, my dear. All you have to do is turn up the light in here.
- **7855**: Preposterous! The light is what it must be. It must!
- **7858**: The light!
- **7863**: You wouldn't dare! Unless you want me changing you into a pair of dirty underwear!
- **7872**: ...
- **7874**: Well, no matter. I have a job for you. You can do it on your own. I want you to travel to Xarcabard and collect $5.
- **7875**: How do you get one? Toss $1 into the aurora crevice in Xarcabard, and you're done!
- **7878**: I'll pretend I didn't hear that. Now, off with you!
- **7900**: Ohohoho! I'm assuming that you called me here to tell me that my glowstones did the job.
- **7908**: I'll have to agree with you this time. Taking the matter seriously suits me just fine.
- **7914**: Awfully familiar? Well, of course it is! Don't be absurd. That is what our principal from the School of Magic would always say, word for word.
- **7918**: Word for word! Why don't you try putting things in your words for a change? Don't you think all this plagiarism is a bit strange?
- **7949**: It looks as if our friend the professor does not want us to hear his dirty pastaru. I wouldn't advise sticking our noses in too deep, as something terrible happens every time. Remember the lastaru?
- **7962**: Unbelievable, the things this crazy professor tries. I dragged him here so he could apologize.
- **7965**: Hmmm...where was I twenty years ago...
- **7966**: (Now that you mention it, twenty years ago I was in the Northlands leading a company of War Warlocks in battle with the Shadow Lord's minions.)
- **7967**: (I think it was Castle Zvahl. We were using $1 to communicate with headquarters, but we became stranded deep within that dark dominion.)
- **7972**: Of all the things that could go wrong, why do all of them have to go wrong at this instance?
- **7973**: We could use my magic to warp out of the castle, but that would leave the red mages at the gateway helpless.
- **7976**: Ta-dah! The answer lies in this talking doll! Come on out, now. Tell us where to go.
- **7979**: Why, you little...
- **7984**: Why you little...
- **7989**: ...
- **7991**: Ohoho! Scream all you want.
- **7992**: All that noise will be a perfect diversion, I say... Now let us head off for the gateway!
- **7994**: (Those were the last words I heard from that despicable doll.)
- **7995**: Ahem! So this is all...the curse of a talking doll!
- **7997**: Ohoho! I apologize for my sudden outburst. I do remember one thing that may be the cause of our trouble here in Windurst.
- **8001**: I'm assuming an adventurer of your stature is familiar with Castle Zvahl.
- **8002**: Twenty years ago, I led a company into the castle to battle the Shadow Lord, and I sacrificed that talking doll to save us all.
- **8003**: Now, the curse of that terrible doll may be what is affecting the star trees. I want you to find that doll and bring it back to Chumimi.
- **8004**: Not to me, mind you. If I saw that piece of junk again, who knows what I would do...
- **8005**: Anyway, you know what you have to do. Now, be off with you!
- **8012**: Well, I had no doubt! This doll's magic has run out!
- **8013**: With no magic, these things are useless. There is no way it could be cursing us.
- **8016**: Really? This piece of junk?
- **8024**: Can we get on with this quick? I have test subjects waiting, all poisoned and sick.
- **8044**: Exactly, dear Chumimi. That is why we need you to get access for us from the Star Sibyl.
- **8045**: We have decided to send down this adventurer to end all this quibble.
- **8049**: Ohoho! As much as I'd love to attend the show, I have other places I need to go.
- **8051**: Say what you will, Professor. If Karaha-Baruha hadn't gone and died before returning my equipment, I wouldn't have to go there and retrieve my property.
- **8052**: Think of it as me doing him a favor. You wouldn't think that he'd want to spend eternity being hated by yours truly.
- **8056**: Professor, that idea is wonderful. I can see someone here is being useful.
- **8071**: Silent running! Now that is a feature that they should put on all magic dolls! Ohohoho!
- **8085**: I'm here, I'm here.
- **8088**: Quiet, Professor! It was terrible down there. You don't have a clue. Just look at my hat! It's all moldy-woldy and covered with mildew!
- **8090**: It's a good hat, but you should probably wash it first. Take good care of it, unless you want to get cursed.

## Events

### Event 65535

#### Metadata

| Field        | Value   |
|--------------|---------|
| Entrypoint   | 0x0000  |
| Data Size    | 1 bytes |
| Instructions | 1       |

```
      00 01 02 03 04 05 06 07  08 09 0A 0B 0C 0D 0E 0F
      -- -- -- -- -- -- -- --  -- -- -- -- -- -- -- --
0000: 00                                                .               
```

#### Opcodes

```
  0: 0x0000 [0x00] END_REQSTACK()
```

### Event 413

#### Metadata

| Field        | Value    |
|--------------|----------|
| Entrypoint   | 0x0001   |
| Data Size    | 16 bytes |
| Instructions | 3        |

```
      00 01 02 03 04 05 06 07  08 09 0A 0B 0C 0D 0E 0F
      -- -- -- -- -- -- -- --  -- -- -- -- -- -- -- --
0000:    94 01 F8 FF FF 7F 37  00 80 01 80 02 80 03 80   ......7........
0010: 00                                                .               
```

#### Opcodes

```
  0: 0x0001 [0x94] EventEntity->Render.Flags3 ^= 0x01
  1: 0x0007 [0x37] UPDATE_EVENT_POSITION_AND_DIR: x=36.271*, z=69.207*, y=1.995*, direction=190.0째*
  2: 0x0010 [0x00] END_REQSTACK()
```

### Event 65535.1

#### Metadata

| Field        | Value    |
|--------------|----------|
| Entrypoint   | 0x0011   |
| Data Size    | 10 bytes |
| Instructions | 2        |

```
      00 01 02 03 04 05 06 07  08 09 0A 0B 0C 0D 0E 0F
      -- -- -- -- -- -- -- --  -- -- -- -- -- -- -- --
0010:    37 04 80 05 80 06 80  07 80 00                  7.........     
```

#### Opcodes

```
  0: 0x0011 [0x37] UPDATE_EVENT_POSITION_AND_DIR: x=34.872*, z=68.530*, y=1.991*, direction=180.0째*
  1: 0x001A [0x00] END_REQSTACK()
```

### Event 65535.2

#### Metadata

| Field        | Value    |
|--------------|----------|
| Entrypoint   | 0x001B   |
| Data Size    | 10 bytes |
| Instructions | 2        |

```
      00 01 02 03 04 05 06 07  08 09 0A 0B 0C 0D 0E 0F
      -- -- -- -- -- -- -- --  -- -- -- -- -- -- -- --
0010:                                   37 00 80 01 80             7....
0020: 02 80 08 80 00                                    .....           
```

#### Opcodes

```
  0: 0x001B [0x37] UPDATE_EVENT_POSITION_AND_DIR: x=36.271*, z=69.207*, y=1.995*, direction=166.5째*
  1: 0x0024 [0x00] END_REQSTACK()
```

### Event 65535.3

#### Metadata

| Field        | Value    |
|--------------|----------|
| Entrypoint   | 0x0025   |
| Data Size    | 29 bytes |
| Instructions | 3        |

```
      00 01 02 03 04 05 06 07  08 09 0A 0B 0C 0D 0E 0F
      -- -- -- -- -- -- -- --  -- -- -- -- -- -- -- --
0020:                66 09 80  F8 FF FF 7F F8 FF FF 7F       f..........
0030: 74 6C 6B 30 53 F8 FF FF  7F F8 FF FF 7F 74 6C 6B  tlk0S........tlk
0040: 30 00                                             0.              
```

#### Opcodes

```
  0: 0x0025 [0x66] LOAD_EXT_SCHEDULER_MAIN: Load scheduler "tlk0" with entities [EventEntity, EventEntity], work=40*
  1: 0x0034 [0x53] WAIT_SCHEDULER_TASK: Wait for scheduler "tlk0" with entities [EventEntity, EventEntity]
  2: 0x0041 [0x00] END_REQSTACK()
```

### Event 65535.4

#### Metadata

| Field        | Value    |
|--------------|----------|
| Entrypoint   | 0x0042   |
| Data Size    | 29 bytes |
| Instructions | 3        |

```
      00 01 02 03 04 05 06 07  08 09 0A 0B 0C 0D 0E 0F
      -- -- -- -- -- -- -- --  -- -- -- -- -- -- -- --
0040:       66 09 80 F8 FF FF  7F F8 FF FF 7F 74 6C 6B    f..........tlk
0050: 31 53 F8 FF FF 7F F8 FF  FF 7F 74 6C 6B 31 00     1S........tlk1. 
```

#### Opcodes

```
  0: 0x0042 [0x66] LOAD_EXT_SCHEDULER_MAIN: Load scheduler "tlk1" with entities [EventEntity, EventEntity], work=40*
  1: 0x0051 [0x53] WAIT_SCHEDULER_TASK: Wait for scheduler "tlk1" with entities [EventEntity, EventEntity]
  2: 0x005E [0x00] END_REQSTACK()
```

### Event 65535.5

#### Metadata

| Field        | Value    |
|--------------|----------|
| Entrypoint   | 0x005F   |
| Data Size    | 29 bytes |
| Instructions | 3        |

```
      00 01 02 03 04 05 06 07  08 09 0A 0B 0C 0D 0E 0F
      -- -- -- -- -- -- -- --  -- -- -- -- -- -- -- --
0050:                                               66                 f
0060: 09 80 F8 FF FF 7F F8 FF  FF 7F 74 68 6B 31 53 F8  ..........thk1S.
0070: FF FF 7F F8 FF FF 7F 74  68 6B 31 00              .......thk1.    
```

#### Opcodes

```
  0: 0x005F [0x66] LOAD_EXT_SCHEDULER_MAIN: Load scheduler "thk1" with entities [EventEntity, EventEntity], work=40*
  1: 0x006E [0x53] WAIT_SCHEDULER_TASK: Wait for scheduler "thk1" with entities [EventEntity, EventEntity]
  2: 0x007B [0x00] END_REQSTACK()
```

### Event 65535.6

#### Metadata

| Field        | Value    |
|--------------|----------|
| Entrypoint   | 0x007C   |
| Data Size    | 29 bytes |
| Instructions | 3        |

```
      00 01 02 03 04 05 06 07  08 09 0A 0B 0C 0D 0E 0F
      -- -- -- -- -- -- -- --  -- -- -- -- -- -- -- --
0070:                                      66 09 80 F8              f...
0080: FF FF 7F F8 FF FF 7F 74  68 6B 32 53 F8 FF FF 7F  .......thk2S....
0090: F8 FF FF 7F 74 68 6B 32  00                       ....thk2.       
```

#### Opcodes

```
  0: 0x007C [0x66] LOAD_EXT_SCHEDULER_MAIN: Load scheduler "thk2" with entities [EventEntity, EventEntity], work=40*
  1: 0x008B [0x53] WAIT_SCHEDULER_TASK: Wait for scheduler "thk2" with entities [EventEntity, EventEntity]
  2: 0x0098 [0x00] END_REQSTACK()
```

### Event 65535.7

#### Metadata

| Field        | Value    |
|--------------|----------|
| Entrypoint   | 0x0099   |
| Data Size    | 24 bytes |
| Instructions | 4        |

```
      00 01 02 03 04 05 06 07  08 09 0A 0B 0C 0D 0E 0F
      -- -- -- -- -- -- -- --  -- -- -- -- -- -- -- --
0090:                             66 0A 80 F8 FF FF 7F           f......
00A0: F8 FF FF 7F 6F 68 68 30  1C 0B 80 5E 69 64 6C 30  ....ohh0...^idl0
00B0: 00                                                .               
```

#### Opcodes

```
  0: 0x0099 [0x66] LOAD_EXT_SCHEDULER_MAIN: Load scheduler "ohh0" with entities [EventEntity, EventEntity], work=41*
  1: 0x00A8 [0x1C] WAIT(150* ticks)
  2: 0x00AB [0x5E] EventEntity goes idle (kills current action) (animation: "idl0")
  3: 0x00B0 [0x00] END_REQSTACK()
```

### Event 65535.8

#### Metadata

| Field        | Value    |
|--------------|----------|
| Entrypoint   | 0x00B1   |
| Data Size    | 16 bytes |
| Instructions | 2        |

```
      00 01 02 03 04 05 06 07  08 09 0A 0B 0C 0D 0E 0F
      -- -- -- -- -- -- -- --  -- -- -- -- -- -- -- --
00B0:    66 0A 80 F8 FF FF 7F  F8 FF FF 7F 6F 68 68 30   f..........ohh0
00C0: 00                                                .               
```

#### Opcodes

```
  0: 0x00B1 [0x66] LOAD_EXT_SCHEDULER_MAIN: Load scheduler "ohh0" with entities [EventEntity, EventEntity], work=41*
  1: 0x00C0 [0x00] END_REQSTACK()
```

### Event 65535.9

#### Metadata

| Field        | Value    |
|--------------|----------|
| Entrypoint   | 0x00C1   |
| Data Size    | 29 bytes |
| Instructions | 3        |

```
      00 01 02 03 04 05 06 07  08 09 0A 0B 0C 0D 0E 0F
      -- -- -- -- -- -- -- --  -- -- -- -- -- -- -- --
00C0:    66 0A 80 F8 FF FF 7F  F8 FF FF 7F 73 68 6B 30   f..........shk0
00D0: 53 F8 FF FF 7F F8 FF FF  7F 73 68 6B 30 00        S........shk0.  
```

#### Opcodes

```
  0: 0x00C1 [0x66] LOAD_EXT_SCHEDULER_MAIN: Load scheduler "shk0" with entities [EventEntity, EventEntity], work=41*
  1: 0x00D0 [0x53] WAIT_SCHEDULER_TASK: Wait for scheduler "shk0" with entities [EventEntity, EventEntity]
  2: 0x00DD [0x00] END_REQSTACK()
```

### Event 65535.10

#### Metadata

| Field        | Value    |
|--------------|----------|
| Entrypoint   | 0x00DE   |
| Data Size    | 29 bytes |
| Instructions | 3        |

```
      00 01 02 03 04 05 06 07  08 09 0A 0B 0C 0D 0E 0F
      -- -- -- -- -- -- -- --  -- -- -- -- -- -- -- --
00D0:                                            66 09                f.
00E0: 80 F8 FF FF 7F F8 FF FF  7F 64 69 73 30 53 F8 FF  .........dis0S..
00F0: FF 7F F8 FF FF 7F 64 69  73 30 00                 ......dis0.     
```

#### Opcodes

```
  0: 0x00DE [0x66] LOAD_EXT_SCHEDULER_MAIN: Load scheduler "dis0" with entities [EventEntity, EventEntity], work=40*
  1: 0x00ED [0x53] WAIT_SCHEDULER_TASK: Wait for scheduler "dis0" with entities [EventEntity, EventEntity]
  2: 0x00FA [0x00] END_REQSTACK()
```

### Event 65535.11

#### Metadata

| Field        | Value    |
|--------------|----------|
| Entrypoint   | 0x00FB   |
| Data Size    | 29 bytes |
| Instructions | 3        |

```
      00 01 02 03 04 05 06 07  08 09 0A 0B 0C 0D 0E 0F
      -- -- -- -- -- -- -- --  -- -- -- -- -- -- -- --
00F0:                                   66 09 80 F8 FF             f....
0100: FF 7F F8 FF FF 7F 69 72  6F 30 53 F8 FF FF 7F F8  ......iro0S.....
0110: FF FF 7F 69 72 6F 30 00                           ...iro0.        
```

#### Opcodes

```
  0: 0x00FB [0x66] LOAD_EXT_SCHEDULER_MAIN: Load scheduler "iro0" with entities [EventEntity, EventEntity], work=40*
  1: 0x010A [0x53] WAIT_SCHEDULER_TASK: Wait for scheduler "iro0" with entities [EventEntity, EventEntity]
  2: 0x0117 [0x00] END_REQSTACK()
```

### Event 65535.12

#### Metadata

| Field        | Value    |
|--------------|----------|
| Entrypoint   | 0x0118   |
| Data Size    | 34 bytes |
| Instructions | 4        |

```
      00 01 02 03 04 05 06 07  08 09 0A 0B 0C 0D 0E 0F
      -- -- -- -- -- -- -- --  -- -- -- -- -- -- -- --
0110:                          66 0A 80 F8 FF FF 7F F8          f.......
0120: FF FF 7F 65 68 6E 30 53  F8 FF FF 7F F8 FF FF 7F  ...ehn0S........
0130: 65 68 6E 30 5E 69 64 6C  30 00                    ehn0^idl0.      
```

#### Opcodes

```
  0: 0x0118 [0x66] LOAD_EXT_SCHEDULER_MAIN: Load scheduler "ehn0" with entities [EventEntity, EventEntity], work=41*
  1: 0x0127 [0x53] WAIT_SCHEDULER_TASK: Wait for scheduler "ehn0" with entities [EventEntity, EventEntity]
  2: 0x0134 [0x5E] EventEntity goes idle (kills current action) (animation: "idl0")
  3: 0x0139 [0x00] END_REQSTACK()
```

### Event 65535.13

#### Metadata

| Field        | Value    |
|--------------|----------|
| Entrypoint   | 0x013A   |
| Data Size    | 16 bytes |
| Instructions | 2        |

```
      00 01 02 03 04 05 06 07  08 09 0A 0B 0C 0D 0E 0F
      -- -- -- -- -- -- -- --  -- -- -- -- -- -- -- --
0130:                                66 09 80 F8 FF FF            f.....
0140: 7F F8 FF FF 7F 74 6C 6B  30 00                    .....tlk0.      
```

#### Opcodes

```
  0: 0x013A [0x66] LOAD_EXT_SCHEDULER_MAIN: Load scheduler "tlk0" with entities [EventEntity, EventEntity], work=40*
  1: 0x0149 [0x00] END_REQSTACK()
```

### Event 65535.14

#### Metadata

| Field        | Value    |
|--------------|----------|
| Entrypoint   | 0x014A   |
| Data Size    | 22 bytes |
| Instructions | 4        |

```
      00 01 02 03 04 05 06 07  08 09 0A 0B 0C 0D 0E 0F
      -- -- -- -- -- -- -- --  -- -- -- -- -- -- -- --
0140:                                53 F8 FF FF 7F F8            S.....
0150: FF FF 7F 74 6C 6B 30 5E  69 64 6C 30 1C 0C 80 00  ...tlk0^idl0....
```

#### Opcodes

```
  0: 0x014A [0x53] WAIT_SCHEDULER_TASK: Wait for scheduler "tlk0" with entities [EventEntity, EventEntity]
  1: 0x0157 [0x5E] EventEntity goes idle (kills current action) (animation: "idl0")
  2: 0x015C [0x1C] WAIT(30* ticks)
  3: 0x015F [0x00] END_REQSTACK()
```

### Event 65535.15

#### Metadata

| Field        | Value    |
|--------------|----------|
| Entrypoint   | 0x0160   |
| Data Size    | 16 bytes |
| Instructions | 2        |

```
      00 01 02 03 04 05 06 07  08 09 0A 0B 0C 0D 0E 0F
      -- -- -- -- -- -- -- --  -- -- -- -- -- -- -- --
0160: 66 09 80 F8 FF FF 7F F8  FF FF 7F 74 68 6B 31 00  f..........thk1.
```

#### Opcodes

```
  0: 0x0160 [0x66] LOAD_EXT_SCHEDULER_MAIN: Load scheduler "thk1" with entities [EventEntity, EventEntity], work=40*
  1: 0x016F [0x00] END_REQSTACK()
```

### Event 65535.16

#### Metadata

| Field        | Value    |
|--------------|----------|
| Entrypoint   | 0x0170   |
| Data Size    | 14 bytes |
| Instructions | 2        |

```
      00 01 02 03 04 05 06 07  08 09 0A 0B 0C 0D 0E 0F
      -- -- -- -- -- -- -- --  -- -- -- -- -- -- -- --
0170: 53 F8 FF FF 7F F8 FF FF  7F 74 68 6B 31 00        S........thk1.  
```

#### Opcodes

```
  0: 0x0170 [0x53] WAIT_SCHEDULER_TASK: Wait for scheduler "thk1" with entities [EventEntity, EventEntity]
  1: 0x017D [0x00] END_REQSTACK()
```

### Event 65535.17

#### Metadata

| Field        | Value    |
|--------------|----------|
| Entrypoint   | 0x017E   |
| Data Size    | 16 bytes |
| Instructions | 2        |

```
      00 01 02 03 04 05 06 07  08 09 0A 0B 0C 0D 0E 0F
      -- -- -- -- -- -- -- --  -- -- -- -- -- -- -- --
0170:                                            66 09                f.
0180: 80 F8 FF FF 7F F8 FF FF  7F 74 68 6B 32 00        .........thk2.  
```

#### Opcodes

```
  0: 0x017E [0x66] LOAD_EXT_SCHEDULER_MAIN: Load scheduler "thk2" with entities [EventEntity, EventEntity], work=40*
  1: 0x018D [0x00] END_REQSTACK()
```

### Event 65535.18

#### Metadata

| Field        | Value    |
|--------------|----------|
| Entrypoint   | 0x018E   |
| Data Size    | 14 bytes |
| Instructions | 2        |

```
      00 01 02 03 04 05 06 07  08 09 0A 0B 0C 0D 0E 0F
      -- -- -- -- -- -- -- --  -- -- -- -- -- -- -- --
0180:                                            53 F8                S.
0190: FF FF 7F F8 FF FF 7F 74  68 6B 32 00              .......thk2.    
```

#### Opcodes

```
  0: 0x018E [0x53] WAIT_SCHEDULER_TASK: Wait for scheduler "thk2" with entities [EventEntity, EventEntity]
  1: 0x019B [0x00] END_REQSTACK()
```

### Event 65535.19

#### Metadata

| Field        | Value    |
|--------------|----------|
| Entrypoint   | 0x019C   |
| Data Size    | 16 bytes |
| Instructions | 2        |

```
      00 01 02 03 04 05 06 07  08 09 0A 0B 0C 0D 0E 0F
      -- -- -- -- -- -- -- --  -- -- -- -- -- -- -- --
0190:                                      66 09 80 F8              f...
01A0: FF FF 7F F8 FF FF 7F 70  61 73 30 00              .......pas0.    
```

#### Opcodes

```
  0: 0x019C [0x66] LOAD_EXT_SCHEDULER_MAIN: Load scheduler "pas0" with entities [EventEntity, EventEntity], work=40*
  1: 0x01AB [0x00] END_REQSTACK()
```

### Event 65535.20

#### Metadata

| Field        | Value    |
|--------------|----------|
| Entrypoint   | 0x01AC   |
| Data Size    | 14 bytes |
| Instructions | 2        |

```
      00 01 02 03 04 05 06 07  08 09 0A 0B 0C 0D 0E 0F
      -- -- -- -- -- -- -- --  -- -- -- -- -- -- -- --
01A0:                                      53 F8 FF FF              S...
01B0: 7F F8 FF FF 7F 70 61 73  30 00                    .....pas0.      
```

#### Opcodes

```
  0: 0x01AC [0x53] WAIT_SCHEDULER_TASK: Wait for scheduler "pas0" with entities [EventEntity, EventEntity]
  1: 0x01B9 [0x00] END_REQSTACK()
```

### Event 65535.21

#### Metadata

| Field        | Value    |
|--------------|----------|
| Entrypoint   | 0x01BA   |
| Data Size    | 16 bytes |
| Instructions | 2        |

```
      00 01 02 03 04 05 06 07  08 09 0A 0B 0C 0D 0E 0F
      -- -- -- -- -- -- -- --  -- -- -- -- -- -- -- --
01B0:                                66 0A 80 F8 FF FF            f.....
01C0: 7F F8 FF FF 7F 6F 68 68  30 00                    .....ohh0.      
```

#### Opcodes

```
  0: 0x01BA [0x66] LOAD_EXT_SCHEDULER_MAIN: Load scheduler "ohh0" with entities [EventEntity, EventEntity], work=41*
  1: 0x01C9 [0x00] END_REQSTACK()
```

### Event 65535.22

#### Metadata

| Field        | Value    |
|--------------|----------|
| Entrypoint   | 0x01CA   |
| Data Size    | 22 bytes |
| Instructions | 4        |

```
      00 01 02 03 04 05 06 07  08 09 0A 0B 0C 0D 0E 0F
      -- -- -- -- -- -- -- --  -- -- -- -- -- -- -- --
01C0:                                53 F8 FF FF 7F F8            S.....
01D0: FF FF 7F 6F 68 68 30 5E  69 64 6C 30 1C 0C 80 00  ...ohh0^idl0....
```

#### Opcodes

```
  0: 0x01CA [0x53] WAIT_SCHEDULER_TASK: Wait for scheduler "ohh0" with entities [EventEntity, EventEntity]
  1: 0x01D7 [0x5E] EventEntity goes idle (kills current action) (animation: "idl0")
  2: 0x01DC [0x1C] WAIT(30* ticks)
  3: 0x01DF [0x00] END_REQSTACK()
```

### Event 65535.23

#### Metadata

| Field        | Value    |
|--------------|----------|
| Entrypoint   | 0x01E0   |
| Data Size    | 16 bytes |
| Instructions | 2        |

```
      00 01 02 03 04 05 06 07  08 09 0A 0B 0C 0D 0E 0F
      -- -- -- -- -- -- -- --  -- -- -- -- -- -- -- --
01E0: 66 0A 80 F8 FF FF 7F F8  FF FF 7F 73 68 6B 30 00  f..........shk0.
```

#### Opcodes

```
  0: 0x01E0 [0x66] LOAD_EXT_SCHEDULER_MAIN: Load scheduler "shk0" with entities [EventEntity, EventEntity], work=41*
  1: 0x01EF [0x00] END_REQSTACK()
```

### Event 65535.24

#### Metadata

| Field        | Value    |
|--------------|----------|
| Entrypoint   | 0x01F0   |
| Data Size    | 14 bytes |
| Instructions | 2        |

```
      00 01 02 03 04 05 06 07  08 09 0A 0B 0C 0D 0E 0F
      -- -- -- -- -- -- -- --  -- -- -- -- -- -- -- --
01F0: 53 F8 FF FF 7F F8 FF FF  7F 73 68 6B 30 00        S........shk0.  
```

#### Opcodes

```
  0: 0x01F0 [0x53] WAIT_SCHEDULER_TASK: Wait for scheduler "shk0" with entities [EventEntity, EventEntity]
  1: 0x01FD [0x00] END_REQSTACK()
```

### Event 65535.25

#### Metadata

| Field        | Value    |
|--------------|----------|
| Entrypoint   | 0x01FE   |
| Data Size    | 16 bytes |
| Instructions | 2        |

```
      00 01 02 03 04 05 06 07  08 09 0A 0B 0C 0D 0E 0F
      -- -- -- -- -- -- -- --  -- -- -- -- -- -- -- --
01F0:                                            66 09                f.
0200: 80 F8 FF FF 7F F8 FF FF  7F 64 69 73 30 00        .........dis0.  
```

#### Opcodes

```
  0: 0x01FE [0x66] LOAD_EXT_SCHEDULER_MAIN: Load scheduler "dis0" with entities [EventEntity, EventEntity], work=40*
  1: 0x020D [0x00] END_REQSTACK()
```

### Event 65535.26

#### Metadata

| Field        | Value    |
|--------------|----------|
| Entrypoint   | 0x020E   |
| Data Size    | 14 bytes |
| Instructions | 2        |

```
      00 01 02 03 04 05 06 07  08 09 0A 0B 0C 0D 0E 0F
      -- -- -- -- -- -- -- --  -- -- -- -- -- -- -- --
0200:                                            53 F8                S.
0210: FF FF 7F F8 FF FF 7F 64  69 73 30 00              .......dis0.    
```

#### Opcodes

```
  0: 0x020E [0x53] WAIT_SCHEDULER_TASK: Wait for scheduler "dis0" with entities [EventEntity, EventEntity]
  1: 0x021B [0x00] END_REQSTACK()
```

### Event 65535.27

#### Metadata

| Field        | Value    |
|--------------|----------|
| Entrypoint   | 0x021C   |
| Data Size    | 16 bytes |
| Instructions | 2        |

```
      00 01 02 03 04 05 06 07  08 09 0A 0B 0C 0D 0E 0F
      -- -- -- -- -- -- -- --  -- -- -- -- -- -- -- --
0210:                                      66 09 80 F8              f...
0220: FF FF 7F F8 FF FF 7F 70  6F 69 30 00              .......poi0.    
```

#### Opcodes

```
  0: 0x021C [0x66] LOAD_EXT_SCHEDULER_MAIN: Load scheduler "poi0" with entities [EventEntity, EventEntity], work=40*
  1: 0x022B [0x00] END_REQSTACK()
```

### Event 65535.28

#### Metadata

| Field        | Value    |
|--------------|----------|
| Entrypoint   | 0x022C   |
| Data Size    | 14 bytes |
| Instructions | 2        |

```
      00 01 02 03 04 05 06 07  08 09 0A 0B 0C 0D 0E 0F
      -- -- -- -- -- -- -- --  -- -- -- -- -- -- -- --
0220:                                      53 F8 FF FF              S...
0230: 7F F8 FF FF 7F 70 6F 69  30 00                    .....poi0.      
```

#### Opcodes

```
  0: 0x022C [0x53] WAIT_SCHEDULER_TASK: Wait for scheduler "poi0" with entities [EventEntity, EventEntity]
  1: 0x0239 [0x00] END_REQSTACK()
```

### Event 65535.29

#### Metadata

| Field        | Value    |
|--------------|----------|
| Entrypoint   | 0x023A   |
| Data Size    | 16 bytes |
| Instructions | 2        |

```
      00 01 02 03 04 05 06 07  08 09 0A 0B 0C 0D 0E 0F
      -- -- -- -- -- -- -- --  -- -- -- -- -- -- -- --
0230:                                66 09 80 F8 FF FF            f.....
0240: 7F F8 FF FF 7F 69 72 6F  30 00                    .....iro0.      
```

#### Opcodes

```
  0: 0x023A [0x66] LOAD_EXT_SCHEDULER_MAIN: Load scheduler "iro0" with entities [EventEntity, EventEntity], work=40*
  1: 0x0249 [0x00] END_REQSTACK()
```

### Event 65535.30

#### Metadata

| Field        | Value    |
|--------------|----------|
| Entrypoint   | 0x024A   |
| Data Size    | 14 bytes |
| Instructions | 2        |

```
      00 01 02 03 04 05 06 07  08 09 0A 0B 0C 0D 0E 0F
      -- -- -- -- -- -- -- --  -- -- -- -- -- -- -- --
0240:                                53 F8 FF FF 7F F8            S.....
0250: FF FF 7F 69 72 6F 30 00                           ...iro0.        
```

#### Opcodes

```
  0: 0x024A [0x53] WAIT_SCHEDULER_TASK: Wait for scheduler "iro0" with entities [EventEntity, EventEntity]
  1: 0x0257 [0x00] END_REQSTACK()
```

### Event 65535.31

#### Metadata

| Field        | Value    |
|--------------|----------|
| Entrypoint   | 0x0258   |
| Data Size    | 16 bytes |
| Instructions | 2        |

```
      00 01 02 03 04 05 06 07  08 09 0A 0B 0C 0D 0E 0F
      -- -- -- -- -- -- -- --  -- -- -- -- -- -- -- --
0250:                          66 0A 80 F8 FF FF 7F F8          f.......
0260: FF FF 7F 65 68 6E 30 00                           ...ehn0.        
```

#### Opcodes

```
  0: 0x0258 [0x66] LOAD_EXT_SCHEDULER_MAIN: Load scheduler "ehn0" with entities [EventEntity, EventEntity], work=41*
  1: 0x0267 [0x00] END_REQSTACK()
```

### Event 65535.32

#### Metadata

| Field        | Value    |
|--------------|----------|
| Entrypoint   | 0x0268   |
| Data Size    | 22 bytes |
| Instructions | 4        |

```
      00 01 02 03 04 05 06 07  08 09 0A 0B 0C 0D 0E 0F
      -- -- -- -- -- -- -- --  -- -- -- -- -- -- -- --
0260:                          53 F8 FF FF 7F F8 FF FF          S.......
0270: 7F 65 68 6E 30 5E 69 64  6C 30 1C 0C 80 00        .ehn0^idl0....  
```

#### Opcodes

```
  0: 0x0268 [0x53] WAIT_SCHEDULER_TASK: Wait for scheduler "ehn0" with entities [EventEntity, EventEntity]
  1: 0x0275 [0x5E] EventEntity goes idle (kills current action) (animation: "idl0")
  2: 0x027A [0x1C] WAIT(30* ticks)
  3: 0x027D [0x00] END_REQSTACK()
```

### Event 65535.33

#### Metadata

| Field        | Value    |
|--------------|----------|
| Entrypoint   | 0x027E   |
| Data Size    | 16 bytes |
| Instructions | 2        |

```
      00 01 02 03 04 05 06 07  08 09 0A 0B 0C 0D 0E 0F
      -- -- -- -- -- -- -- --  -- -- -- -- -- -- -- --
0270:                                            66 0D                f.
0280: 80 F8 FF FF 7F F8 FF FF  7F 62 69 6B 30 00        .........bik0.  
```

#### Opcodes

```
  0: 0x027E [0x66] LOAD_EXT_SCHEDULER_MAIN: Load scheduler "bik0" with entities [EventEntity, EventEntity], work=42*
  1: 0x028D [0x00] END_REQSTACK()
```

### Event 65535.34

#### Metadata

| Field        | Value    |
|--------------|----------|
| Entrypoint   | 0x028E   |
| Data Size    | 22 bytes |
| Instructions | 4        |

```
      00 01 02 03 04 05 06 07  08 09 0A 0B 0C 0D 0E 0F
      -- -- -- -- -- -- -- --  -- -- -- -- -- -- -- --
0280:                                            53 F8                S.
0290: FF FF 7F F8 FF FF 7F 62  69 6B 30 5E 69 64 6C 30  .......bik0^idl0
02A0: 1C 0C 80 00                                       ....            
```

#### Opcodes

```
  0: 0x028E [0x53] WAIT_SCHEDULER_TASK: Wait for scheduler "bik0" with entities [EventEntity, EventEntity]
  1: 0x029B [0x5E] EventEntity goes idle (kills current action) (animation: "idl0")
  2: 0x02A0 [0x1C] WAIT(30* ticks)
  3: 0x02A3 [0x00] END_REQSTACK()
```

### Event 65535.35

#### Metadata

| Field        | Value   |
|--------------|---------|
| Entrypoint   | 0x02A4  |
| Data Size    | 9 bytes |
| Instructions | 3       |

```
      00 01 02 03 04 05 06 07  08 09 0A 0B 0C 0D 0E 0F
      -- -- -- -- -- -- -- --  -- -- -- -- -- -- -- --
02A0:             5E 69 64 6C  30 1C 0C 80 00               ^idl0....   
```

#### Opcodes

```
  0: 0x02A4 [0x5E] EventEntity goes idle (kills current action) (animation: "idl0")
  1: 0x02A9 [0x1C] WAIT(30* ticks)
  2: 0x02AC [0x00] END_REQSTACK()
```

### Event 65535.36

#### Metadata

| Field        | Value    |
|--------------|----------|
| Entrypoint   | 0x02AD   |
| Data Size    | 34 bytes |
| Instructions | 8        |

```
      00 01 02 03 04 05 06 07  08 09 0A 0B 0C 0D 0E 0F
      -- -- -- -- -- -- -- --  -- -- -- -- -- -- -- --
02A0:                                         32 0E 80               2..
02B0: 1F 00 0F 80 10 80 11 80  1F 01 1F 00 12 80 13 80  ................
02C0: 14 80 1F 01 1F 00 15 80  16 80 17 80 1F 01 00     ............... 
```

#### Opcodes

```
  0: 0x02AD [0x32] ExtData[1]->MainSpeed = 13* * 0.1
  1: 0x02B0 [0x1F] MOVE_ENTITY: EventEntity moves to X=-23.263*, Z=19.634*, Y=28.249*
  2: 0x02B8 [0x1F] MOVE_ENTITY: Update entity position (mode=1)
  3: 0x02BA [0x1F] MOVE_ENTITY: EventEntity moves to X=-21.057*, Z=21.969*, Y=28.999*
  4: 0x02C2 [0x1F] MOVE_ENTITY: Update entity position (mode=1)
  5: 0x02C4 [0x1F] MOVE_ENTITY: EventEntity moves to X=-17.308*, Z=25.122*, Y=29.999*
  6: 0x02CC [0x1F] MOVE_ENTITY: Update entity position (mode=1)
  7: 0x02CE [0x00] END_REQSTACK()
```

### Event 65535.37

#### Metadata

| Field        | Value    |
|--------------|----------|
| Entrypoint   | 0x02CF   |
| Data Size    | 14 bytes |
| Instructions | 4        |

```
      00 01 02 03 04 05 06 07  08 09 0A 0B 0C 0D 0E 0F
      -- -- -- -- -- -- -- --  -- -- -- -- -- -- -- --
02C0:                                               32                 2
02D0: 0E 80 1F 00 18 80 19 80  1A 80 1F 01 00           .............   
```

#### Opcodes

```
  0: 0x02CF [0x32] ExtData[1]->MainSpeed = 13* * 0.1
  1: 0x02D2 [0x1F] MOVE_ENTITY: EventEntity moves to X=0.000*, Z=14.000*, Y=30.749*
  2: 0x02DA [0x1F] MOVE_ENTITY: Update entity position (mode=1)
  3: 0x02DC [0x00] END_REQSTACK()
```

### Event 65535.38

#### Metadata

| Field        | Value    |
|--------------|----------|
| Entrypoint   | 0x02DD   |
| Data Size    | 28 bytes |
| Instructions | 6        |

```
      00 01 02 03 04 05 06 07  08 09 0A 0B 0C 0D 0E 0F
      -- -- -- -- -- -- -- --  -- -- -- -- -- -- -- --
02D0:                                         32 0E 80               2..
02E0: 1F 00 18 80 1B 80 1A 80  1F 01 29 08 55 20 0F 01  ..........).U ..
02F0: 1A 29 08 55 20 0F 01 1B  00                       .).U ....       
```

#### Opcodes

```
  0: 0x02DD [0x32] ExtData[1]->MainSpeed = 13* * 0.1
  1: 0x02E0 [0x1F] MOVE_ENTITY: EventEntity moves to X=0.000*, Z=17.803*, Y=30.749*
  2: 0x02E8 [0x1F] MOVE_ENTITY: Update entity position (mode=1)
  3: 0x02EA [0x29] REQ_SET_WAIT(priority=0x08, entity_id=Shantotto (ID: 17768533/0x010F2055), tag_num=0x1A)
  4: 0x02F1 [0x29] REQ_SET_WAIT(priority=0x08, entity_id=Shantotto (ID: 17768533/0x010F2055), tag_num=0x1B)
  5: 0x02F8 [0x00] END_REQSTACK()
```

### Event 65535.39

#### Metadata

| Field        | Value    |
|--------------|----------|
| Entrypoint   | 0x02F9   |
| Data Size    | 29 bytes |
| Instructions | 7        |

```
      00 01 02 03 04 05 06 07  08 09 0A 0B 0C 0D 0E 0F
      -- -- -- -- -- -- -- --  -- -- -- -- -- -- -- --
02F0:                             32 09 80 1F 00 1C 80           2......
0300: 1D 80 1E 80 1F 01 4A 55  20 0F 01 56 20 0F 01 6F  ......JU ..V ..o
0310: 76 55 20 0F 01 00                                 vU ...          
```

#### Opcodes

```
  0: 0x02F9 [0x32] ExtData[1]->MainSpeed = 40* * 0.1
  1: 0x02FC [0x1F] MOVE_ENTITY: EventEntity moves to X=0.400*, Z=18.945*, Y=30.000*
  2: 0x0304 [0x1F] MOVE_ENTITY: Update entity position (mode=1)
  3: 0x0306 [0x4A] Shantotto (ID: 17768533/0x010F2055) looks at Yoran-Oran (ID: 17768534/0x010F2056)
  4: 0x030F [0x6F] WAIT_FRAME_DELAY: Yield until WaitTime reaches zero
  5: 0x0310 [0x76] CHECK_ENTITY_RENDER_FLAGS: Wait until Shantotto (ID: 17768533/0x010F2055) Render.Flags0 and Render.Flags3 conditions are met
  6: 0x0315 [0x00] END_REQSTACK()
```

### Event 65535.40

#### Metadata

| Field        | Value    |
|--------------|----------|
| Entrypoint   | 0x0316   |
| Data Size    | 29 bytes |
| Instructions | 7        |

```
      00 01 02 03 04 05 06 07  08 09 0A 0B 0C 0D 0E 0F
      -- -- -- -- -- -- -- --  -- -- -- -- -- -- -- --
0310:                   32 0E  80 1F 00 1F 80 20 80 1A        2...... ..
0320: 80 1F 01 4A 55 20 0F 01  F0 FF FF 7F 6F 76 55 20  ...JU ......ovU 
0330: 0F 01 00                                          ...             
```

#### Opcodes

```
  0: 0x0316 [0x32] ExtData[1]->MainSpeed = 13* * 0.1
  1: 0x0319 [0x1F] MOVE_ENTITY: EventEntity moves to X=1.706*, Z=17.990*, Y=30.749*
  2: 0x0321 [0x1F] MOVE_ENTITY: Update entity position (mode=1)
  3: 0x0323 [0x4A] Shantotto (ID: 17768533/0x010F2055) looks at LocalPlayer
  4: 0x032C [0x6F] WAIT_FRAME_DELAY: Yield until WaitTime reaches zero
  5: 0x032D [0x76] CHECK_ENTITY_RENDER_FLAGS: Wait until Shantotto (ID: 17768533/0x010F2055) Render.Flags0 and Render.Flags3 conditions are met
  6: 0x0332 [0x00] END_REQSTACK()
```

### Event 65535.41

#### Metadata

| Field        | Value    |
|--------------|----------|
| Entrypoint   | 0x0333   |
| Data Size    | 20 bytes |
| Instructions | 5        |

```
      00 01 02 03 04 05 06 07  08 09 0A 0B 0C 0D 0E 0F
      -- -- -- -- -- -- -- --  -- -- -- -- -- -- -- --
0330:          32 0E 80 1F 00  21 80 22 80 23 80 1F 01     2....!.".#...
0340: 4E 01 55 20 0F 01 00                              N.U ...         
```

#### Opcodes

```
  0: 0x0333 [0x32] ExtData[1]->MainSpeed = 13* * 0.1
  1: 0x0336 [0x1F] MOVE_ENTITY: EventEntity moves to X=-5.123*, Z=21.697*, Y=30.500*
  2: 0x033E [0x1F] MOVE_ENTITY: Update entity position (mode=1)
  3: 0x0340 [0x4E] SET_ENTITY_HIDE_FLAG: Hide Shantotto (ID: 17768533/0x010F2055)
  4: 0x0346 [0x00] END_REQSTACK()
```

### Event 65535.42

#### Metadata

| Field        | Value    |
|--------------|----------|
| Entrypoint   | 0x0347   |
| Data Size    | 10 bytes |
| Instructions | 2        |

```
      00 01 02 03 04 05 06 07  08 09 0A 0B 0C 0D 0E 0F
      -- -- -- -- -- -- -- --  -- -- -- -- -- -- -- --
0340:                      37  24 80 25 80 1A 80 26 80         7$.%...&.
0350: 00                                                .               
```

#### Opcodes

```
  0: 0x0347 [0x37] UPDATE_EVENT_POSITION_AND_DIR: x=1.402*, z=17.603*, y=30.749*, direction=241.0째*
  1: 0x0350 [0x00] END_REQSTACK()
```

### Event 260

#### Metadata

| Field        | Value   |
|--------------|---------|
| Entrypoint   | 0x0351  |
| Data Size    | 1 bytes |
| Instructions | 1       |

```
      00 01 02 03 04 05 06 07  08 09 0A 0B 0C 0D 0E 0F
      -- -- -- -- -- -- -- --  -- -- -- -- -- -- -- --
0350:    00                                              .              
```

#### Opcodes

```
  0: 0x0351 [0x00] END_REQSTACK()
```

### Event 65535.43

#### Metadata

| Field        | Value   |
|--------------|---------|
| Entrypoint   | 0x0352  |
| Data Size    | 5 bytes |
| Instructions | 3       |

```
      00 01 02 03 04 05 06 07  08 09 0A 0B 0C 0D 0E 0F
      -- -- -- -- -- -- -- --  -- -- -- -- -- -- -- --
0350:       1D 27 80 23 00                                .'.#.         
```

#### Opcodes

```
  0: 0x0352 [0x1D] PRINT_EVENT_MESSAGE(message_id=7831*)
     "Ohohoho! There is nothing you total losers have to fear, now that I am here!"
  1: 0x0355 [0x23] WAIT_FOR_DIALOG_INTERACTION
  2: 0x0356 [0x00] END_REQSTACK()
```

### Event 65535.44

#### Metadata

| Field        | Value   |
|--------------|---------|
| Entrypoint   | 0x0357  |
| Data Size    | 1 bytes |
| Instructions | 1       |

```
      00 01 02 03 04 05 06 07  08 09 0A 0B 0C 0D 0E 0F
      -- -- -- -- -- -- -- --  -- -- -- -- -- -- -- --
0350:                      00                                  .        
```

#### Opcodes

```
  0: 0x0357 [0x00] END_REQSTACK()
```

### Event 65535.45

#### Metadata

| Field        | Value    |
|--------------|----------|
| Entrypoint   | 0x0358   |
| Data Size    | 19 bytes |
| Instructions | 5        |

```
      00 01 02 03 04 05 06 07  08 09 0A 0B 0C 0D 0E 0F
      -- -- -- -- -- -- -- --  -- -- -- -- -- -- -- --
0350:                          29 08 55 20 0F 01 16 1D          ).U ....
0360: 28 80 23 29 08 55 20 0F  01 17 00                 (.#).U ....     
```

#### Opcodes

```
  0: 0x0358 [0x29] REQ_SET_WAIT(priority=0x08, entity_id=Shantotto (ID: 17768533/0x010F2055), tag_num=0x16)
  1: 0x035F [0x1D] PRINT_EVENT_MESSAGE(message_id=7843*)
     "Ohoho! I was wondering when you would ask."
  2: 0x0362 [0x23] WAIT_FOR_DIALOG_INTERACTION
  3: 0x0363 [0x29] REQ_SET_WAIT(priority=0x08, entity_id=Shantotto (ID: 17768533/0x010F2055), tag_num=0x17)
  4: 0x036A [0x00] END_REQSTACK()
```

### Event 65535.46

#### Metadata

| Field        | Value   |
|--------------|---------|
| Entrypoint   | 0x036B  |
| Data Size    | 5 bytes |
| Instructions | 3       |

```
      00 01 02 03 04 05 06 07  08 09 0A 0B 0C 0D 0E 0F
      -- -- -- -- -- -- -- --  -- -- -- -- -- -- -- --
0360:                                   1D 29 80 23 00             .).#.
```

#### Opcodes

```
  0: 0x036B [0x1D] PRINT_EVENT_MESSAGE(message_id=7845*)
     "When it comes to the subject of photosynthesis, I'm filled with knowledge galore."
  1: 0x036E [0x23] WAIT_FOR_DIALOG_INTERACTION
  2: 0x036F [0x00] END_REQSTACK()
```

### Event 65535.47

#### Metadata

| Field        | Value    |
|--------------|----------|
| Entrypoint   | 0x0370   |
| Data Size    | 19 bytes |
| Instructions | 5        |

```
      00 01 02 03 04 05 06 07  08 09 0A 0B 0C 0D 0E 0F
      -- -- -- -- -- -- -- --  -- -- -- -- -- -- -- --
0370: 29 08 55 20 0F 01 1C 1D  2A 80 23 29 08 55 20 0F  ).U ....*.#).U .
0380: 01 1D 00                                          ...             
```

#### Opcodes

```
  0: 0x0370 [0x29] REQ_SET_WAIT(priority=0x08, entity_id=Shantotto (ID: 17768533/0x010F2055), tag_num=0x1C)
  1: 0x0377 [0x1D] PRINT_EVENT_MESSAGE(message_id=7846*)
     "Plants need light to grow. Take light away from the star trees, and their rate of growth will be slow!"
  2: 0x037A [0x23] WAIT_FOR_DIALOG_INTERACTION
  3: 0x037B [0x29] REQ_SET_WAIT(priority=0x08, entity_id=Shantotto (ID: 17768533/0x010F2055), tag_num=0x1D)
  4: 0x0382 [0x00] END_REQSTACK()
```

### Event 65535.48

#### Metadata

| Field        | Value   |
|--------------|---------|
| Entrypoint   | 0x0383  |
| Data Size    | 5 bytes |
| Instructions | 3       |

```
      00 01 02 03 04 05 06 07  08 09 0A 0B 0C 0D 0E 0F
      -- -- -- -- -- -- -- --  -- -- -- -- -- -- -- --
0380:          1D 2B 80 23 00                              .+.#.        
```

#### Opcodes

```
  0: 0x0383 [0x1D] PRINT_EVENT_MESSAGE(message_id=7847*)
     "So that is your solution, Chumimi, my dear. All you have to do is turn up the light in here."
  1: 0x0386 [0x23] WAIT_FOR_DIALOG_INTERACTION
  2: 0x0387 [0x00] END_REQSTACK()
```

### Event 65535.49

#### Metadata

| Field        | Value   |
|--------------|---------|
| Entrypoint   | 0x0388  |
| Data Size    | 5 bytes |
| Instructions | 3       |

```
      00 01 02 03 04 05 06 07  08 09 0A 0B 0C 0D 0E 0F
      -- -- -- -- -- -- -- --  -- -- -- -- -- -- -- --
0380:                          1D 2C 80 23 00                   .,.#.   
```

#### Opcodes

```
  0: 0x0388 [0x1D] PRINT_EVENT_MESSAGE(message_id=7855*)
     "Preposterous! The light is what it must be. It must!"
  1: 0x038B [0x23] WAIT_FOR_DIALOG_INTERACTION
  2: 0x038C [0x00] END_REQSTACK()
```

### Event 65535.50

#### Metadata

| Field        | Value   |
|--------------|---------|
| Entrypoint   | 0x038D  |
| Data Size    | 5 bytes |
| Instructions | 3       |

```
      00 01 02 03 04 05 06 07  08 09 0A 0B 0C 0D 0E 0F
      -- -- -- -- -- -- -- --  -- -- -- -- -- -- -- --
0380:                                         1D 2D 80               .-.
0390: 23 00                                             #.              
```

#### Opcodes

```
  0: 0x038D [0x1D] PRINT_EVENT_MESSAGE(message_id=7858*)
     "The light!"
  1: 0x0390 [0x23] WAIT_FOR_DIALOG_INTERACTION
  2: 0x0391 [0x00] END_REQSTACK()
```

### Event 65535.51

#### Metadata

| Field        | Value    |
|--------------|----------|
| Entrypoint   | 0x0392   |
| Data Size    | 19 bytes |
| Instructions | 5        |

```
      00 01 02 03 04 05 06 07  08 09 0A 0B 0C 0D 0E 0F
      -- -- -- -- -- -- -- --  -- -- -- -- -- -- -- --
0390:       29 08 55 20 0F 01  22 1D 2E 80 23 29 08 55    ).U .."...#).U
03A0: 20 0F 01 23 00                                     ..#.           
```

#### Opcodes

```
  0: 0x0392 [0x29] REQ_SET_WAIT(priority=0x08, entity_id=Shantotto (ID: 17768533/0x010F2055), tag_num=0x22)
  1: 0x0399 [0x1D] PRINT_EVENT_MESSAGE(message_id=7863*)
     "You wouldn't dare! Unless you want me changing you into a pair of dirty underwear!"
  2: 0x039C [0x23] WAIT_FOR_DIALOG_INTERACTION
  3: 0x039D [0x29] REQ_SET_WAIT(priority=0x08, entity_id=Shantotto (ID: 17768533/0x010F2055), tag_num=0x23)
  4: 0x03A4 [0x00] END_REQSTACK()
```

### Event 65535.52

#### Metadata

| Field        | Value    |
|--------------|----------|
| Entrypoint   | 0x03A5   |
| Data Size    | 17 bytes |
| Instructions | 5        |

```
      00 01 02 03 04 05 06 07  08 09 0A 0B 0C 0D 0E 0F
      -- -- -- -- -- -- -- --  -- -- -- -- -- -- -- --
03A0:                7C 00 F8  FF FF 7F 1D 2F 80 23 7C       |....../.#|
03B0: 01 F8 FF FF 7F 00                                 ......          
```

#### Opcodes

```
  0: 0x03A5 [0x7C] EventEntity->Render.Flags2 |= 0x00
  1: 0x03AB [0x1D] PRINT_EVENT_MESSAGE(message_id=7872*)
     "..."
  2: 0x03AE [0x23] WAIT_FOR_DIALOG_INTERACTION
  3: 0x03AF [0x7C] EventEntity->Render.Flags2 |= 0x01
  4: 0x03B5 [0x00] END_REQSTACK()
```

### Event 65535.53

#### Metadata

| Field        | Value    |
|--------------|----------|
| Entrypoint   | 0x03B6   |
| Data Size    | 23 bytes |
| Instructions | 7        |

```
      00 01 02 03 04 05 06 07  08 09 0A 0B 0C 0D 0E 0F
      -- -- -- -- -- -- -- --  -- -- -- -- -- -- -- --
03B0:                   29 08  55 20 0F 01 0E 1D 30 80        ).U ....0.
03C0: 23 1D 31 80 23 29 08 55  20 0F 01 0F 00           #.1.#).U ....   
```

#### Opcodes

```
  0: 0x03B6 [0x29] REQ_SET_WAIT(priority=0x08, entity_id=Shantotto (ID: 17768533/0x010F2055), tag_num=0x0E)
  1: 0x03BD [0x1D] PRINT_EVENT_MESSAGE(message_id=7874*)
     "Well, no matter. I have a job for you. You can do it on your own. I want you to travel to Xarcabard and collect $5."
  2: 0x03C0 [0x23] WAIT_FOR_DIALOG_INTERACTION
  3: 0x03C1 [0x1D] PRINT_EVENT_MESSAGE(message_id=7875*)
     "How do you get one? Toss $1 into the aurora crevice in Xarcabard, and you're done!"
  4: 0x03C4 [0x23] WAIT_FOR_DIALOG_INTERACTION
  5: 0x03C5 [0x29] REQ_SET_WAIT(priority=0x08, entity_id=Shantotto (ID: 17768533/0x010F2055), tag_num=0x0F)
  6: 0x03CC [0x00] END_REQSTACK()
```

### Event 65535.54

#### Metadata

| Field        | Value    |
|--------------|----------|
| Entrypoint   | 0x03CD   |
| Data Size    | 19 bytes |
| Instructions | 5        |

```
      00 01 02 03 04 05 06 07  08 09 0A 0B 0C 0D 0E 0F
      -- -- -- -- -- -- -- --  -- -- -- -- -- -- -- --
03C0:                                         29 08 55               ).U
03D0: 20 0F 01 16 1D 32 80 23  29 08 55 20 0F 01 17 00   ....2.#).U ....
```

#### Opcodes

```
  0: 0x03CD [0x29] REQ_SET_WAIT(priority=0x08, entity_id=Shantotto (ID: 17768533/0x010F2055), tag_num=0x16)
  1: 0x03D4 [0x1D] PRINT_EVENT_MESSAGE(message_id=7878*)
     "I'll pretend I didn't hear that. Now, off with you!"
  2: 0x03D7 [0x23] WAIT_FOR_DIALOG_INTERACTION
  3: 0x03D8 [0x29] REQ_SET_WAIT(priority=0x08, entity_id=Shantotto (ID: 17768533/0x010F2055), tag_num=0x17)
  4: 0x03DF [0x00] END_REQSTACK()
```

### Event 65535.55

#### Metadata

| Field        | Value    |
|--------------|----------|
| Entrypoint   | 0x03E0   |
| Data Size    | 10 bytes |
| Instructions | 2        |

```
      00 01 02 03 04 05 06 07  08 09 0A 0B 0C 0D 0E 0F
      -- -- -- -- -- -- -- --  -- -- -- -- -- -- -- --
03E0: 37 33 80 34 80 1A 80 26  80 00                    73.4...&..      
```

#### Opcodes

```
  0: 0x03E0 [0x37] UPDATE_EVENT_POSITION_AND_DIR: x=0.900*, z=17.000*, y=30.749*, direction=241.0째*
  1: 0x03E9 [0x00] END_REQSTACK()
```

### Event 65535.56

#### Metadata

| Field        | Value    |
|--------------|----------|
| Entrypoint   | 0x03EA   |
| Data Size    | 21 bytes |
| Instructions | 7        |

```
      00 01 02 03 04 05 06 07  08 09 0A 0B 0C 0D 0E 0F
      -- -- -- -- -- -- -- --  -- -- -- -- -- -- -- --
03E0:                                32 0E 80 1F 00 33            2....3
03F0: 80 35 80 1A 80 1F 01 1E  56 20 0F 01 6F 70 00     .5......V ..op. 
```

#### Opcodes

```
  0: 0x03EA [0x32] ExtData[1]->MainSpeed = 13* * 0.1
  1: 0x03ED [0x1F] MOVE_ENTITY: EventEntity moves to X=0.900*, Z=17.800*, Y=30.749*
  2: 0x03F5 [0x1F] MOVE_ENTITY: Update entity position (mode=1)
  3: 0x03F7 [0x1E] EventEntity looks at Yoran-Oran (ID: 17768534/0x010F2056) and starts talking
  4: 0x03FC [0x6F] WAIT_FRAME_DELAY: Yield until WaitTime reaches zero
  5: 0x03FD [0x70] WAIT_ENTITY_RENDER_FLAG: Wait while EventEntity->Render.Flags3 bit 2 is set (cancel turn if not)
  6: 0x03FE [0x00] END_REQSTACK()
```

### Event 270

#### Metadata

| Field        | Value   |
|--------------|---------|
| Entrypoint   | 0x03FF  |
| Data Size    | 1 bytes |
| Instructions | 1       |

```
      00 01 02 03 04 05 06 07  08 09 0A 0B 0C 0D 0E 0F
      -- -- -- -- -- -- -- --  -- -- -- -- -- -- -- --
03F0:                                               00                 .
```

#### Opcodes

```
  0: 0x03FF [0x00] END_REQSTACK()
```

### Event 65535.57

#### Metadata

| Field        | Value   |
|--------------|---------|
| Entrypoint   | 0x0400  |
| Data Size    | 5 bytes |
| Instructions | 3       |

```
      00 01 02 03 04 05 06 07  08 09 0A 0B 0C 0D 0E 0F
      -- -- -- -- -- -- -- --  -- -- -- -- -- -- -- --
0400: 1D 36 80 23 00                                    .6.#.           
```

#### Opcodes

```
  0: 0x0400 [0x1D] PRINT_EVENT_MESSAGE(message_id=7900*)
     "Ohohoho! I'm assuming that you called me here to tell me that my glowstones did the job."
  1: 0x0403 [0x23] WAIT_FOR_DIALOG_INTERACTION
  2: 0x0404 [0x00] END_REQSTACK()
```

### Event 65535.58

#### Metadata

| Field        | Value    |
|--------------|----------|
| Entrypoint   | 0x0405   |
| Data Size    | 19 bytes |
| Instructions | 5        |

```
      00 01 02 03 04 05 06 07  08 09 0A 0B 0C 0D 0E 0F
      -- -- -- -- -- -- -- --  -- -- -- -- -- -- -- --
0400:                29 08 55  20 0F 01 0E 1D 37 80 23       ).U ....7.#
0410: 29 08 55 20 0F 01 0F 00                           ).U ....        
```

#### Opcodes

```
  0: 0x0405 [0x29] REQ_SET_WAIT(priority=0x08, entity_id=Shantotto (ID: 17768533/0x010F2055), tag_num=0x0E)
  1: 0x040C [0x1D] PRINT_EVENT_MESSAGE(message_id=7908*)
     "I'll have to agree with you this time. Taking the matter seriously suits me just fine."
  2: 0x040F [0x23] WAIT_FOR_DIALOG_INTERACTION
  3: 0x0410 [0x29] REQ_SET_WAIT(priority=0x08, entity_id=Shantotto (ID: 17768533/0x010F2055), tag_num=0x0F)
  4: 0x0417 [0x00] END_REQSTACK()
```

### Event 65535.59

#### Metadata

| Field        | Value   |
|--------------|---------|
| Entrypoint   | 0x0418  |
| Data Size    | 5 bytes |
| Instructions | 3       |

```
      00 01 02 03 04 05 06 07  08 09 0A 0B 0C 0D 0E 0F
      -- -- -- -- -- -- -- --  -- -- -- -- -- -- -- --
0410:                          1D 38 80 23 00                   .8.#.   
```

#### Opcodes

```
  0: 0x0418 [0x1D] PRINT_EVENT_MESSAGE(message_id=7914*)
     "Awfully familiar? Well, of course it is! Don't be absurd. That is what our principal from the School of Magic would always say, word for word."
  1: 0x041B [0x23] WAIT_FOR_DIALOG_INTERACTION
  2: 0x041C [0x00] END_REQSTACK()
```

### Event 65535.60

#### Metadata

| Field        | Value   |
|--------------|---------|
| Entrypoint   | 0x041D  |
| Data Size    | 5 bytes |
| Instructions | 3       |

```
      00 01 02 03 04 05 06 07  08 09 0A 0B 0C 0D 0E 0F
      -- -- -- -- -- -- -- --  -- -- -- -- -- -- -- --
0410:                                         1D 39 80               .9.
0420: 23 00                                             #.              
```

#### Opcodes

```
  0: 0x041D [0x1D] PRINT_EVENT_MESSAGE(message_id=7918*)
     "Word for word! Why don't you try putting things in your words for a change? Don't you think all this plagiarism is a bit strange?"
  1: 0x0420 [0x23] WAIT_FOR_DIALOG_INTERACTION
  2: 0x0421 [0x00] END_REQSTACK()
```

### Event 65535.61

#### Metadata

| Field        | Value   |
|--------------|---------|
| Entrypoint   | 0x0422  |
| Data Size    | 5 bytes |
| Instructions | 3       |

```
      00 01 02 03 04 05 06 07  08 09 0A 0B 0C 0D 0E 0F
      -- -- -- -- -- -- -- --  -- -- -- -- -- -- -- --
0420:       1D 3A 80 23 00                                .:.#.         
```

#### Opcodes

```
  0: 0x0422 [0x1D] PRINT_EVENT_MESSAGE(message_id=7949*)
     "It looks as if our friend the professor does not want us to hear his dirty pastaru. I wouldn't advise sticking our noses in too deep, as something terrible happens every time. Remember the lastaru?"
  1: 0x0425 [0x23] WAIT_FOR_DIALOG_INTERACTION
  2: 0x0426 [0x00] END_REQSTACK()
```

### Event 271

#### Metadata

| Field        | Value   |
|--------------|---------|
| Entrypoint   | 0x0427  |
| Data Size    | 1 bytes |
| Instructions | 1       |

```
      00 01 02 03 04 05 06 07  08 09 0A 0B 0C 0D 0E 0F
      -- -- -- -- -- -- -- --  -- -- -- -- -- -- -- --
0420:                      00                                  .        
```

#### Opcodes

```
  0: 0x0427 [0x00] END_REQSTACK()
```

### Event 65535.62

#### Metadata

| Field        | Value    |
|--------------|----------|
| Entrypoint   | 0x0428   |
| Data Size    | 10 bytes |
| Instructions | 2        |

```
      00 01 02 03 04 05 06 07  08 09 0A 0B 0C 0D 0E 0F
      -- -- -- -- -- -- -- --  -- -- -- -- -- -- -- --
0420:                          37 3B 80 3C 80 3D 80 18          7;.<.=..
0430: 80 00                                             ..              
```

#### Opcodes

```
  0: 0x0428 [0x37] UPDATE_EVENT_POSITION_AND_DIR: x=-7.708*, z=23.554*, y=30.499*, direction=0.0째*
  1: 0x0431 [0x00] END_REQSTACK()
```

### Event 65535.63

#### Metadata

| Field        | Value    |
|--------------|----------|
| Entrypoint   | 0x0432   |
| Data Size    | 14 bytes |
| Instructions | 4        |

```
      00 01 02 03 04 05 06 07  08 09 0A 0B 0C 0D 0E 0F
      -- -- -- -- -- -- -- --  -- -- -- -- -- -- -- --
0430:       32 0E 80 1F 00 3E  80 3F 80 3D 80 1F 01 00    2....>.?.=....
```

#### Opcodes

```
  0: 0x0432 [0x32] ExtData[1]->MainSpeed = 13* * 0.1
  1: 0x0435 [0x1F] MOVE_ENTITY: EventEntity moves to X=-5.152*, Z=22.330*, Y=30.499*
  2: 0x043D [0x1F] MOVE_ENTITY: Update entity position (mode=1)
  3: 0x043F [0x00] END_REQSTACK()
```

### Event 65535.64

#### Metadata

| Field        | Value    |
|--------------|----------|
| Entrypoint   | 0x0440   |
| Data Size    | 14 bytes |
| Instructions | 4        |

```
      00 01 02 03 04 05 06 07  08 09 0A 0B 0C 0D 0E 0F
      -- -- -- -- -- -- -- --  -- -- -- -- -- -- -- --
0440: 32 0E 80 1F 00 33 80 40  80 1A 80 1F 01 00        2....3.@......  
```

#### Opcodes

```
  0: 0x0440 [0x32] ExtData[1]->MainSpeed = 13* * 0.1
  1: 0x0443 [0x1F] MOVE_ENTITY: EventEntity moves to X=0.900*, Z=15.000*, Y=30.749*
  2: 0x044B [0x1F] MOVE_ENTITY: Update entity position (mode=1)
  3: 0x044D [0x00] END_REQSTACK()
```

### Event 65535.65

#### Metadata

| Field        | Value   |
|--------------|---------|
| Entrypoint   | 0x044E  |
| Data Size    | 5 bytes |
| Instructions | 3       |

```
      00 01 02 03 04 05 06 07  08 09 0A 0B 0C 0D 0E 0F
      -- -- -- -- -- -- -- --  -- -- -- -- -- -- -- --
0440:                                            1D 41                .A
0450: 80 23 00                                          .#.             
```

#### Opcodes

```
  0: 0x044E [0x1D] PRINT_EVENT_MESSAGE(message_id=7962*)
     "Unbelievable, the things this crazy professor tries. I dragged him here so he could apologize."
  1: 0x0451 [0x23] WAIT_FOR_DIALOG_INTERACTION
  2: 0x0452 [0x00] END_REQSTACK()
```

### Event 65535.66

#### Metadata

| Field        | Value    |
|--------------|----------|
| Entrypoint   | 0x0453   |
| Data Size    | 19 bytes |
| Instructions | 5        |

```
      00 01 02 03 04 05 06 07  08 09 0A 0B 0C 0D 0E 0F
      -- -- -- -- -- -- -- --  -- -- -- -- -- -- -- --
0450:          29 08 55 20 0F  01 10 1D 42 80 23 29 08     ).U ....B.#).
0460: 55 20 0F 01 11 00                                 U ....          
```

#### Opcodes

```
  0: 0x0453 [0x29] REQ_SET_WAIT(priority=0x08, entity_id=Shantotto (ID: 17768533/0x010F2055), tag_num=0x10)
  1: 0x045A [0x1D] PRINT_EVENT_MESSAGE(message_id=7965*)
     "Hmmm...where was I twenty years ago..."
  2: 0x045D [0x23] WAIT_FOR_DIALOG_INTERACTION
  3: 0x045E [0x29] REQ_SET_WAIT(priority=0x08, entity_id=Shantotto (ID: 17768533/0x010F2055), tag_num=0x11)
  4: 0x0465 [0x00] END_REQSTACK()
```

### Event 65535.67

#### Metadata

| Field        | Value   |
|--------------|---------|
| Entrypoint   | 0x0466  |
| Data Size    | 5 bytes |
| Instructions | 3       |

```
      00 01 02 03 04 05 06 07  08 09 0A 0B 0C 0D 0E 0F
      -- -- -- -- -- -- -- --  -- -- -- -- -- -- -- --
0460:                   1D 43  80 23 00                       .C.#.     
```

#### Opcodes

```
  0: 0x0466 [0x1D] PRINT_EVENT_MESSAGE(message_id=7995*)
     "Ahem! So this is all...the curse of a talking doll!"
  1: 0x0469 [0x23] WAIT_FOR_DIALOG_INTERACTION
  2: 0x046A [0x00] END_REQSTACK()
```

### Event 65535.68

#### Metadata

| Field        | Value    |
|--------------|----------|
| Entrypoint   | 0x046B   |
| Data Size    | 19 bytes |
| Instructions | 5        |

```
      00 01 02 03 04 05 06 07  08 09 0A 0B 0C 0D 0E 0F
      -- -- -- -- -- -- -- --  -- -- -- -- -- -- -- --
0460:                                   29 08 55 20 0F             ).U .
0470: 01 16 1D 44 80 23 29 08  55 20 0F 01 17 00        ...D.#).U ....  
```

#### Opcodes

```
  0: 0x046B [0x29] REQ_SET_WAIT(priority=0x08, entity_id=Shantotto (ID: 17768533/0x010F2055), tag_num=0x16)
  1: 0x0472 [0x1D] PRINT_EVENT_MESSAGE(message_id=7997*)
     "Ohoho! I apologize for my sudden outburst. I do remember one thing that may be the cause of our trouble here in Windurst."
  2: 0x0475 [0x23] WAIT_FOR_DIALOG_INTERACTION
  3: 0x0476 [0x29] REQ_SET_WAIT(priority=0x08, entity_id=Shantotto (ID: 17768533/0x010F2055), tag_num=0x17)
  4: 0x047D [0x00] END_REQSTACK()
```

### Event 65535.69

#### Metadata

| Field        | Value    |
|--------------|----------|
| Entrypoint   | 0x047E   |
| Data Size    | 23 bytes |
| Instructions | 7        |

```
      00 01 02 03 04 05 06 07  08 09 0A 0B 0C 0D 0E 0F
      -- -- -- -- -- -- -- --  -- -- -- -- -- -- -- --
0470:                                            29 08                ).
0480: 55 20 0F 01 1C 1D 45 80  23 29 08 55 20 0F 01 1D  U ....E.#).U ...
0490: 1D 46 80 23 00                                    .F.#.           
```

#### Opcodes

```
  0: 0x047E [0x29] REQ_SET_WAIT(priority=0x08, entity_id=Shantotto (ID: 17768533/0x010F2055), tag_num=0x1C)
  1: 0x0485 [0x1D] PRINT_EVENT_MESSAGE(message_id=8001*)
     "I'm assuming an adventurer of your stature is familiar with Castle Zvahl."
  2: 0x0488 [0x23] WAIT_FOR_DIALOG_INTERACTION
  3: 0x0489 [0x29] REQ_SET_WAIT(priority=0x08, entity_id=Shantotto (ID: 17768533/0x010F2055), tag_num=0x1D)
  4: 0x0490 [0x1D] PRINT_EVENT_MESSAGE(message_id=8002*)
     "Twenty years ago, I led a company into the castle to battle the Shadow Lord, and I sacrificed that talking doll to save us all."
  5: 0x0493 [0x23] WAIT_FOR_DIALOG_INTERACTION
  6: 0x0494 [0x00] END_REQSTACK()
```

### Event 65535.70

#### Metadata

| Field        | Value    |
|--------------|----------|
| Entrypoint   | 0x0495   |
| Data Size    | 19 bytes |
| Instructions | 5        |

```
      00 01 02 03 04 05 06 07  08 09 0A 0B 0C 0D 0E 0F
      -- -- -- -- -- -- -- --  -- -- -- -- -- -- -- --
0490:                29 08 55  20 0F 01 0E 1D 47 80 23       ).U ....G.#
04A0: 29 08 55 20 0F 01 0F 00                           ).U ....        
```

#### Opcodes

```
  0: 0x0495 [0x29] REQ_SET_WAIT(priority=0x08, entity_id=Shantotto (ID: 17768533/0x010F2055), tag_num=0x0E)
  1: 0x049C [0x1D] PRINT_EVENT_MESSAGE(message_id=8003*)
     "Now, the curse of that terrible doll may be what is affecting the star trees. I want you to find that doll and bring it back to Chumimi."
  2: 0x049F [0x23] WAIT_FOR_DIALOG_INTERACTION
  3: 0x04A0 [0x29] REQ_SET_WAIT(priority=0x08, entity_id=Shantotto (ID: 17768533/0x010F2055), tag_num=0x0F)
  4: 0x04A7 [0x00] END_REQSTACK()
```

### Event 65535.71

#### Metadata

| Field        | Value    |
|--------------|----------|
| Entrypoint   | 0x04A8   |
| Data Size    | 37 bytes |
| Instructions | 9        |

```
      00 01 02 03 04 05 06 07  08 09 0A 0B 0C 0D 0E 0F
      -- -- -- -- -- -- -- --  -- -- -- -- -- -- -- --
04A0:                          29 08 55 20 0F 01 10 1D          ).U ....
04B0: 48 80 23 29 08 55 20 0F  01 11 29 08 55 20 0F 01  H.#).U ...).U ..
04C0: 12 1D 49 80 23 29 08 55  20 0F 01 13 00           ..I.#).U ....   
```

#### Opcodes

```
  0: 0x04A8 [0x29] REQ_SET_WAIT(priority=0x08, entity_id=Shantotto (ID: 17768533/0x010F2055), tag_num=0x10)
  1: 0x04AF [0x1D] PRINT_EVENT_MESSAGE(message_id=8004*)
     "Not to me, mind you. If I saw that piece of junk again, who knows what I would do..."
  2: 0x04B2 [0x23] WAIT_FOR_DIALOG_INTERACTION
  3: 0x04B3 [0x29] REQ_SET_WAIT(priority=0x08, entity_id=Shantotto (ID: 17768533/0x010F2055), tag_num=0x11)
  4: 0x04BA [0x29] REQ_SET_WAIT(priority=0x08, entity_id=Shantotto (ID: 17768533/0x010F2055), tag_num=0x12)
  5: 0x04C1 [0x1D] PRINT_EVENT_MESSAGE(message_id=8005*)
     "Anyway, you know what you have to do. Now, be off with you!"
  6: 0x04C4 [0x23] WAIT_FOR_DIALOG_INTERACTION
  7: 0x04C5 [0x29] REQ_SET_WAIT(priority=0x08, entity_id=Shantotto (ID: 17768533/0x010F2055), tag_num=0x13)
  8: 0x04CC [0x00] END_REQSTACK()
```

### Event 65535.72

#### Metadata

| Field        | Value    |
|--------------|----------|
| Entrypoint   | 0x04CD   |
| Data Size    | 29 bytes |
| Instructions | 3        |

```
      00 01 02 03 04 05 06 07  08 09 0A 0B 0C 0D 0E 0F
      -- -- -- -- -- -- -- --  -- -- -- -- -- -- -- --
04C0:                                         66 4A 80               fJ.
04D0: F8 FF FF 7F F8 FF FF 7F  63 61 62 6B 53 F8 FF FF  ........cabkS...
04E0: 7F F8 FF FF 7F 63 61 62  6B 00                    .....cabk.      
```

#### Opcodes

```
  0: 0x04CD [0x66] LOAD_EXT_SCHEDULER_MAIN: Load scheduler "cabk" with entities [EventEntity, EventEntity], work=43*
  1: 0x04DC [0x53] WAIT_SCHEDULER_TASK: Wait for scheduler "cabk" with entities [EventEntity, EventEntity]
  2: 0x04E9 [0x00] END_REQSTACK()
```

### Event 65535.73

#### Metadata

| Field        | Value    |
|--------------|----------|
| Entrypoint   | 0x04EA   |
| Data Size    | 34 bytes |
| Instructions | 4        |

```
      00 01 02 03 04 05 06 07  08 09 0A 0B 0C 0D 0E 0F
      -- -- -- -- -- -- -- --  -- -- -- -- -- -- -- --
04E0:                                66 4A 80 F8 FF FF            fJ....
04F0: 7F F8 FF FF 7F 73 70 65  66 53 F8 FF FF 7F F8 FF  .....spefS......
0500: FF 7F 73 70 65 66 5E 69  64 6C 30 00              ..spef^idl0.    
```

#### Opcodes

```
  0: 0x04EA [0x66] LOAD_EXT_SCHEDULER_MAIN: Load scheduler "spef" with entities [EventEntity, EventEntity], work=43*
  1: 0x04F9 [0x53] WAIT_SCHEDULER_TASK: Wait for scheduler "spef" with entities [EventEntity, EventEntity]
  2: 0x0506 [0x5E] EventEntity goes idle (kills current action) (animation: "idl0")
  3: 0x050B [0x00] END_REQSTACK()
```

### Event 65535.74

#### Metadata

| Field        | Value    |
|--------------|----------|
| Entrypoint   | 0x050C   |
| Data Size    | 10 bytes |
| Instructions | 2        |

```
      00 01 02 03 04 05 06 07  08 09 0A 0B 0C 0D 0E 0F
      -- -- -- -- -- -- -- --  -- -- -- -- -- -- -- --
0500:                                      37 4B 80 4C              7K.L
0510: 80 4D 80 4E 80 00                                 .M.N..          
```

#### Opcodes

```
  0: 0x050C [0x37] UPDATE_EVENT_POSITION_AND_DIR: x=-31.086*, z=70.000*, y=0.601*, direction=5.4째*
  1: 0x0515 [0x00] END_REQSTACK()
```

### Event 65535.75

#### Metadata

| Field        | Value    |
|--------------|----------|
| Entrypoint   | 0x0516   |
| Data Size    | 10 bytes |
| Instructions | 2        |

```
      00 01 02 03 04 05 06 07  08 09 0A 0B 0C 0D 0E 0F
      -- -- -- -- -- -- -- --  -- -- -- -- -- -- -- --
0510:                   37 4F  80 50 80 51 80 52 80 00        7O.P.Q.R..
```

#### Opcodes

```
  0: 0x0516 [0x37] UPDATE_EVENT_POSITION_AND_DIR: x=-21.901*, z=70.867*, y=-0.066*, direction=346.9째*
  1: 0x051F [0x00] END_REQSTACK()
```

### Event 65535.76

#### Metadata

| Field        | Value    |
|--------------|----------|
| Entrypoint   | 0x0520   |
| Data Size    | 39 bytes |
| Instructions | 9        |

```
      00 01 02 03 04 05 06 07  08 09 0A 0B 0C 0D 0E 0F
      -- -- -- -- -- -- -- --  -- -- -- -- -- -- -- --
0520: 32 09 80 1F 00 53 80 54  80 4D 80 1F 01 1F 00 55  2....S.T.M.....U
0530: 80 56 80 4D 80 1F 01 4A  55 20 0F 01 59 20 0F 01  .V.M...JU ..Y ..
0540: 6F 76 55 20 0F 01 00                              ovU ...         
```

#### Opcodes

```
  0: 0x0520 [0x32] ExtData[1]->MainSpeed = 40* * 0.1
  1: 0x0523 [0x1F] MOVE_ENTITY: EventEntity moves to X=-13.294*, Z=68.795*, Y=0.601*
  2: 0x052B [0x1F] MOVE_ENTITY: Update entity position (mode=1)
  3: 0x052D [0x1F] MOVE_ENTITY: EventEntity moves to X=-10.691*, Z=74.456*, Y=0.601*
  4: 0x0535 [0x1F] MOVE_ENTITY: Update entity position (mode=1)
  5: 0x0537 [0x4A] Shantotto (ID: 17768533/0x010F2055) looks at Kodada (ID: 17768537/0x010F2059)
  6: 0x0540 [0x6F] WAIT_FRAME_DELAY: Yield until WaitTime reaches zero
  7: 0x0541 [0x76] CHECK_ENTITY_RENDER_FLAGS: Wait until Shantotto (ID: 17768533/0x010F2055) Render.Flags0 and Render.Flags3 conditions are met
  8: 0x0546 [0x00] END_REQSTACK()
```

### Event 65535.77

#### Metadata

| Field        | Value    |
|--------------|----------|
| Entrypoint   | 0x0547   |
| Data Size    | 11 bytes |
| Instructions | 3        |

```
      00 01 02 03 04 05 06 07  08 09 0A 0B 0C 0D 0E 0F
      -- -- -- -- -- -- -- --  -- -- -- -- -- -- -- --
0540:                      1F  00 57 80 58 80 59 80 1F         ..W.X.Y..
0550: 01 00                                             ..              
```

#### Opcodes

```
  0: 0x0547 [0x1F] MOVE_ENTITY: EventEntity moves to X=-10.514*, Z=78.073*, Y=-0.058*
  1: 0x054F [0x1F] MOVE_ENTITY: Update entity position (mode=1)
  2: 0x0551 [0x00] END_REQSTACK()
```

### Event 65535.78

#### Metadata

| Field        | Value    |
|--------------|----------|
| Entrypoint   | 0x0552   |
| Data Size    | 11 bytes |
| Instructions | 3        |

```
      00 01 02 03 04 05 06 07  08 09 0A 0B 0C 0D 0E 0F
      -- -- -- -- -- -- -- --  -- -- -- -- -- -- -- --
0550:       1F 00 5A 80 5B 80  4D 80 1F 01 00             ..Z.[.M....   
```

#### Opcodes

```
  0: 0x0552 [0x1F] MOVE_ENTITY: EventEntity moves to X=-10.445*, Z=84.605*, Y=0.601*
  1: 0x055A [0x1F] MOVE_ENTITY: Update entity position (mode=1)
  2: 0x055C [0x00] END_REQSTACK()
```

### Event 65535.79

#### Metadata

| Field        | Value   |
|--------------|---------|
| Entrypoint   | 0x055D  |
| Data Size    | 9 bytes |
| Instructions | 5       |

```
      00 01 02 03 04 05 06 07  08 09 0A 0B 0C 0D 0E 0F
      -- -- -- -- -- -- -- --  -- -- -- -- -- -- -- --
0550:                                         1D 5C 80               .\.
0560: 23 1D 5D 80 23 00                                 #.].#.          
```

#### Opcodes

```
  0: 0x055D [0x1D] PRINT_EVENT_MESSAGE(message_id=7966*)
     "(Now that you mention it, twenty years ago I was in the Northlands leading a company of War Warlocks in battle with the Shadow Lord's minions.)"
  1: 0x0560 [0x23] WAIT_FOR_DIALOG_INTERACTION
  2: 0x0561 [0x1D] PRINT_EVENT_MESSAGE(message_id=7967*)
     "(I think it was Castle Zvahl. We were using $1 to communicate with headquarters, but we became stranded deep within that dark dominion.)"
  3: 0x0564 [0x23] WAIT_FOR_DIALOG_INTERACTION
  4: 0x0565 [0x00] END_REQSTACK()
```

### Event 65535.80

#### Metadata

| Field        | Value    |
|--------------|----------|
| Entrypoint   | 0x0566   |
| Data Size    | 23 bytes |
| Instructions | 7        |

```
      00 01 02 03 04 05 06 07  08 09 0A 0B 0C 0D 0E 0F
      -- -- -- -- -- -- -- --  -- -- -- -- -- -- -- --
0560:                   1D 5E  80 23 29 08 55 20 0F 01        .^.#).U ..
0570: 1C 1D 5F 80 23 29 08 55  20 0F 01 1D 00           .._.#).U ....   
```

#### Opcodes

```
  0: 0x0566 [0x1D] PRINT_EVENT_MESSAGE(message_id=7972*)
     "Of all the things that could go wrong, why do all of them have to go wrong at this instance?"
  1: 0x0569 [0x23] WAIT_FOR_DIALOG_INTERACTION
  2: 0x056A [0x29] REQ_SET_WAIT(priority=0x08, entity_id=Shantotto (ID: 17768533/0x010F2055), tag_num=0x1C)
  3: 0x0571 [0x1D] PRINT_EVENT_MESSAGE(message_id=7973*)
     "We could use my magic to warp out of the castle, but that would leave the red mages at the gateway helpless."
  4: 0x0574 [0x23] WAIT_FOR_DIALOG_INTERACTION
  5: 0x0575 [0x29] REQ_SET_WAIT(priority=0x08, entity_id=Shantotto (ID: 17768533/0x010F2055), tag_num=0x1D)
  6: 0x057C [0x00] END_REQSTACK()
```

### Event 65535.81

#### Metadata

| Field        | Value    |
|--------------|----------|
| Entrypoint   | 0x057D   |
| Data Size    | 19 bytes |
| Instructions | 5        |

```
      00 01 02 03 04 05 06 07  08 09 0A 0B 0C 0D 0E 0F
      -- -- -- -- -- -- -- --  -- -- -- -- -- -- -- --
0570:                                         29 08 55               ).U
0580: 20 0F 01 1C 1D 60 80 23  29 08 55 20 0F 01 1D 00   ....`.#).U ....
```

#### Opcodes

```
  0: 0x057D [0x29] REQ_SET_WAIT(priority=0x08, entity_id=Shantotto (ID: 17768533/0x010F2055), tag_num=0x1C)
  1: 0x0584 [0x1D] PRINT_EVENT_MESSAGE(message_id=7976*)
     "Ta-dah! The answer lies in this talking doll! Come on out, now. Tell us where to go."
  2: 0x0587 [0x23] WAIT_FOR_DIALOG_INTERACTION
  3: 0x0588 [0x29] REQ_SET_WAIT(priority=0x08, entity_id=Shantotto (ID: 17768533/0x010F2055), tag_num=0x1D)
  4: 0x058F [0x00] END_REQSTACK()
```

### Event 65535.82

#### Metadata

| Field        | Value   |
|--------------|---------|
| Entrypoint   | 0x0590  |
| Data Size    | 5 bytes |
| Instructions | 3       |

```
      00 01 02 03 04 05 06 07  08 09 0A 0B 0C 0D 0E 0F
      -- -- -- -- -- -- -- --  -- -- -- -- -- -- -- --
0590: 1D 61 80 23 00                                    .a.#.           
```

#### Opcodes

```
  0: 0x0590 [0x1D] PRINT_EVENT_MESSAGE(message_id=7979*)
     "Why, you little..."
  1: 0x0593 [0x23] WAIT_FOR_DIALOG_INTERACTION
  2: 0x0594 [0x00] END_REQSTACK()
```

### Event 65535.83

#### Metadata

| Field        | Value   |
|--------------|---------|
| Entrypoint   | 0x0595  |
| Data Size    | 5 bytes |
| Instructions | 3       |

```
      00 01 02 03 04 05 06 07  08 09 0A 0B 0C 0D 0E 0F
      -- -- -- -- -- -- -- --  -- -- -- -- -- -- -- --
0590:                1D 62 80  23 00                         .b.#.      
```

#### Opcodes

```
  0: 0x0595 [0x1D] PRINT_EVENT_MESSAGE(message_id=7984*)
     "Why you little..."
  1: 0x0598 [0x23] WAIT_FOR_DIALOG_INTERACTION
  2: 0x0599 [0x00] END_REQSTACK()
```

### Event 65535.84

#### Metadata

| Field        | Value   |
|--------------|---------|
| Entrypoint   | 0x059A  |
| Data Size    | 5 bytes |
| Instructions | 3       |

```
      00 01 02 03 04 05 06 07  08 09 0A 0B 0C 0D 0E 0F
      -- -- -- -- -- -- -- --  -- -- -- -- -- -- -- --
0590:                                1D 63 80 23 00               .c.#. 
```

#### Opcodes

```
  0: 0x059A [0x1D] PRINT_EVENT_MESSAGE(message_id=7989*)
     "..."
  1: 0x059D [0x23] WAIT_FOR_DIALOG_INTERACTION
  2: 0x059E [0x00] END_REQSTACK()
```

### Event 65535.85

#### Metadata

| Field        | Value    |
|--------------|----------|
| Entrypoint   | 0x059F   |
| Data Size    | 19 bytes |
| Instructions | 5        |

```
      00 01 02 03 04 05 06 07  08 09 0A 0B 0C 0D 0E 0F
      -- -- -- -- -- -- -- --  -- -- -- -- -- -- -- --
0590:                                               29                 )
05A0: 08 55 20 0F 01 16 1D 64  80 23 29 08 55 20 0F 01  .U ....d.#).U ..
05B0: 17 00                                             ..              
```

#### Opcodes

```
  0: 0x059F [0x29] REQ_SET_WAIT(priority=0x08, entity_id=Shantotto (ID: 17768533/0x010F2055), tag_num=0x16)
  1: 0x05A6 [0x1D] PRINT_EVENT_MESSAGE(message_id=7991*)
     "Ohoho! Scream all you want."
  2: 0x05A9 [0x23] WAIT_FOR_DIALOG_INTERACTION
  3: 0x05AA [0x29] REQ_SET_WAIT(priority=0x08, entity_id=Shantotto (ID: 17768533/0x010F2055), tag_num=0x17)
  4: 0x05B1 [0x00] END_REQSTACK()
```

### Event 65535.86

#### Metadata

| Field        | Value   |
|--------------|---------|
| Entrypoint   | 0x05B2  |
| Data Size    | 5 bytes |
| Instructions | 3       |

```
      00 01 02 03 04 05 06 07  08 09 0A 0B 0C 0D 0E 0F
      -- -- -- -- -- -- -- --  -- -- -- -- -- -- -- --
05B0:       1D 65 80 23 00                                .e.#.         
```

#### Opcodes

```
  0: 0x05B2 [0x1D] PRINT_EVENT_MESSAGE(message_id=7992*)
     "All that noise will be a perfect diversion, I say... Now let us head off for the gateway!"
  1: 0x05B5 [0x23] WAIT_FOR_DIALOG_INTERACTION
  2: 0x05B6 [0x00] END_REQSTACK()
```

### Event 65535.87

#### Metadata

| Field        | Value   |
|--------------|---------|
| Entrypoint   | 0x05B7  |
| Data Size    | 5 bytes |
| Instructions | 3       |

```
      00 01 02 03 04 05 06 07  08 09 0A 0B 0C 0D 0E 0F
      -- -- -- -- -- -- -- --  -- -- -- -- -- -- -- --
05B0:                      1D  66 80 23 00                     .f.#.    
```

#### Opcodes

```
  0: 0x05B7 [0x1D] PRINT_EVENT_MESSAGE(message_id=7994*)
     "(Those were the last words I heard from that despicable doll.)"
  1: 0x05BA [0x23] WAIT_FOR_DIALOG_INTERACTION
  2: 0x05BB [0x00] END_REQSTACK()
```

### Event 275

#### Metadata

| Field        | Value   |
|--------------|---------|
| Entrypoint   | 0x05BC  |
| Data Size    | 1 bytes |
| Instructions | 1       |

```
      00 01 02 03 04 05 06 07  08 09 0A 0B 0C 0D 0E 0F
      -- -- -- -- -- -- -- --  -- -- -- -- -- -- -- --
05B0:                                      00                       .   
```

#### Opcodes

```
  0: 0x05BC [0x00] END_REQSTACK()
```

### Event 65535.88

#### Metadata

| Field        | Value   |
|--------------|---------|
| Entrypoint   | 0x05BD  |
| Data Size    | 5 bytes |
| Instructions | 3       |

```
      00 01 02 03 04 05 06 07  08 09 0A 0B 0C 0D 0E 0F
      -- -- -- -- -- -- -- --  -- -- -- -- -- -- -- --
05B0:                                         1D 67 80               .g.
05C0: 23 00                                             #.              
```

#### Opcodes

```
  0: 0x05BD [0x1D] PRINT_EVENT_MESSAGE(message_id=8012*)
     "Well, I had no doubt! This doll's magic has run out!"
  1: 0x05C0 [0x23] WAIT_FOR_DIALOG_INTERACTION
  2: 0x05C1 [0x00] END_REQSTACK()
```

### Event 65535.89

#### Metadata

| Field        | Value    |
|--------------|----------|
| Entrypoint   | 0x05C2   |
| Data Size    | 19 bytes |
| Instructions | 5        |

```
      00 01 02 03 04 05 06 07  08 09 0A 0B 0C 0D 0E 0F
      -- -- -- -- -- -- -- --  -- -- -- -- -- -- -- --
05C0:       29 08 55 20 0F 01  1C 1D 68 80 23 29 08 55    ).U ....h.#).U
05D0: 20 0F 01 1D 00                                     ....           
```

#### Opcodes

```
  0: 0x05C2 [0x29] REQ_SET_WAIT(priority=0x08, entity_id=Shantotto (ID: 17768533/0x010F2055), tag_num=0x1C)
  1: 0x05C9 [0x1D] PRINT_EVENT_MESSAGE(message_id=8013*)
     "With no magic, these things are useless. There is no way it could be cursing us."
  2: 0x05CC [0x23] WAIT_FOR_DIALOG_INTERACTION
  3: 0x05CD [0x29] REQ_SET_WAIT(priority=0x08, entity_id=Shantotto (ID: 17768533/0x010F2055), tag_num=0x1D)
  4: 0x05D4 [0x00] END_REQSTACK()
```

### Event 65535.90

#### Metadata

| Field        | Value    |
|--------------|----------|
| Entrypoint   | 0x05D5   |
| Data Size    | 19 bytes |
| Instructions | 5        |

```
      00 01 02 03 04 05 06 07  08 09 0A 0B 0C 0D 0E 0F
      -- -- -- -- -- -- -- --  -- -- -- -- -- -- -- --
05D0:                29 08 55  20 0F 01 22 1D 69 80 23       ).U ..".i.#
05E0: 29 08 55 20 0F 01 23 00                           ).U ..#.        
```

#### Opcodes

```
  0: 0x05D5 [0x29] REQ_SET_WAIT(priority=0x08, entity_id=Shantotto (ID: 17768533/0x010F2055), tag_num=0x22)
  1: 0x05DC [0x1D] PRINT_EVENT_MESSAGE(message_id=8016*)
     "Really? This piece of junk?"
  2: 0x05DF [0x23] WAIT_FOR_DIALOG_INTERACTION
  3: 0x05E0 [0x29] REQ_SET_WAIT(priority=0x08, entity_id=Shantotto (ID: 17768533/0x010F2055), tag_num=0x23)
  4: 0x05E7 [0x00] END_REQSTACK()
```

### Event 276

#### Metadata

| Field        | Value   |
|--------------|---------|
| Entrypoint   | 0x05E8  |
| Data Size    | 1 bytes |
| Instructions | 1       |

```
      00 01 02 03 04 05 06 07  08 09 0A 0B 0C 0D 0E 0F
      -- -- -- -- -- -- -- --  -- -- -- -- -- -- -- --
05E0:                          00                               .       
```

#### Opcodes

```
  0: 0x05E8 [0x00] END_REQSTACK()
```

### Event 65535.91

#### Metadata

| Field        | Value   |
|--------------|---------|
| Entrypoint   | 0x05E9  |
| Data Size    | 5 bytes |
| Instructions | 3       |

```
      00 01 02 03 04 05 06 07  08 09 0A 0B 0C 0D 0E 0F
      -- -- -- -- -- -- -- --  -- -- -- -- -- -- -- --
05E0:                             1D 6A 80 23 00                 .j.#.  
```

#### Opcodes

```
  0: 0x05E9 [0x1D] PRINT_EVENT_MESSAGE(message_id=8024*)
     "Can we get on with this quick? I have test subjects waiting, all poisoned and sick."
  1: 0x05EC [0x23] WAIT_FOR_DIALOG_INTERACTION
  2: 0x05ED [0x00] END_REQSTACK()
```

### Event 65535.92

#### Metadata

| Field        | Value   |
|--------------|---------|
| Entrypoint   | 0x05EE  |
| Data Size    | 5 bytes |
| Instructions | 3       |

```
      00 01 02 03 04 05 06 07  08 09 0A 0B 0C 0D 0E 0F
      -- -- -- -- -- -- -- --  -- -- -- -- -- -- -- --
05E0:                                            1D 6B                .k
05F0: 80 23 00                                          .#.             
```

#### Opcodes

```
  0: 0x05EE [0x1D] PRINT_EVENT_MESSAGE(message_id=8044*)
     "Exactly, dear Chumimi. That is why we need you to get access for us from the Star Sibyl."
  1: 0x05F1 [0x23] WAIT_FOR_DIALOG_INTERACTION
  2: 0x05F2 [0x00] END_REQSTACK()
```

### Event 65535.93

#### Metadata

| Field        | Value    |
|--------------|----------|
| Entrypoint   | 0x05F3   |
| Data Size    | 19 bytes |
| Instructions | 5        |

```
      00 01 02 03 04 05 06 07  08 09 0A 0B 0C 0D 0E 0F
      -- -- -- -- -- -- -- --  -- -- -- -- -- -- -- --
05F0:          29 08 55 20 0F  01 1C 1D 6C 80 23 29 08     ).U ....l.#).
0600: 55 20 0F 01 1D 00                                 U ....          
```

#### Opcodes

```
  0: 0x05F3 [0x29] REQ_SET_WAIT(priority=0x08, entity_id=Shantotto (ID: 17768533/0x010F2055), tag_num=0x1C)
  1: 0x05FA [0x1D] PRINT_EVENT_MESSAGE(message_id=8045*)
     "We have decided to send down this adventurer to end all this quibble."
  2: 0x05FD [0x23] WAIT_FOR_DIALOG_INTERACTION
  3: 0x05FE [0x29] REQ_SET_WAIT(priority=0x08, entity_id=Shantotto (ID: 17768533/0x010F2055), tag_num=0x1D)
  4: 0x0605 [0x00] END_REQSTACK()
```

### Event 65535.94

#### Metadata

| Field        | Value    |
|--------------|----------|
| Entrypoint   | 0x0606   |
| Data Size    | 19 bytes |
| Instructions | 5        |

```
      00 01 02 03 04 05 06 07  08 09 0A 0B 0C 0D 0E 0F
      -- -- -- -- -- -- -- --  -- -- -- -- -- -- -- --
0600:                   29 08  55 20 0F 01 16 1D 6D 80        ).U ....m.
0610: 23 29 08 55 20 0F 01 17  00                       #).U ....       
```

#### Opcodes

```
  0: 0x0606 [0x29] REQ_SET_WAIT(priority=0x08, entity_id=Shantotto (ID: 17768533/0x010F2055), tag_num=0x16)
  1: 0x060D [0x1D] PRINT_EVENT_MESSAGE(message_id=8049*)
     "Ohoho! As much as I'd love to attend the show, I have other places I need to go."
  2: 0x0610 [0x23] WAIT_FOR_DIALOG_INTERACTION
  3: 0x0611 [0x29] REQ_SET_WAIT(priority=0x08, entity_id=Shantotto (ID: 17768533/0x010F2055), tag_num=0x17)
  4: 0x0618 [0x00] END_REQSTACK()
```

### Event 65535.95

#### Metadata

| Field        | Value    |
|--------------|----------|
| Entrypoint   | 0x0619   |
| Data Size    | 37 bytes |
| Instructions | 9        |

```
      00 01 02 03 04 05 06 07  08 09 0A 0B 0C 0D 0E 0F
      -- -- -- -- -- -- -- --  -- -- -- -- -- -- -- --
0610:                             29 08 55 20 0F 01 1A           ).U ...
0620: 1D 6E 80 23 29 08 55 20  0F 01 1B 29 08 55 20 0F  .n.#).U ...).U .
0630: 01 16 1D 6F 80 23 29 08  55 20 0F 01 17 00        ...o.#).U ....  
```

#### Opcodes

```
  0: 0x0619 [0x29] REQ_SET_WAIT(priority=0x08, entity_id=Shantotto (ID: 17768533/0x010F2055), tag_num=0x1A)
  1: 0x0620 [0x1D] PRINT_EVENT_MESSAGE(message_id=8051*)
     "Say what you will, Professor. If Karaha-Baruha hadn't gone and died before returning my equipment, I wouldn't have to go there and retrieve my property."
  2: 0x0623 [0x23] WAIT_FOR_DIALOG_INTERACTION
  3: 0x0624 [0x29] REQ_SET_WAIT(priority=0x08, entity_id=Shantotto (ID: 17768533/0x010F2055), tag_num=0x1B)
  4: 0x062B [0x29] REQ_SET_WAIT(priority=0x08, entity_id=Shantotto (ID: 17768533/0x010F2055), tag_num=0x16)
  5: 0x0632 [0x1D] PRINT_EVENT_MESSAGE(message_id=8052*)
     "Think of it as me doing him a favor. You wouldn't think that he'd want to spend eternity being hated by yours truly."
  6: 0x0635 [0x23] WAIT_FOR_DIALOG_INTERACTION
  7: 0x0636 [0x29] REQ_SET_WAIT(priority=0x08, entity_id=Shantotto (ID: 17768533/0x010F2055), tag_num=0x17)
  8: 0x063D [0x00] END_REQSTACK()
```

### Event 65535.96

#### Metadata

| Field        | Value   |
|--------------|---------|
| Entrypoint   | 0x063E  |
| Data Size    | 5 bytes |
| Instructions | 3       |

```
      00 01 02 03 04 05 06 07  08 09 0A 0B 0C 0D 0E 0F
      -- -- -- -- -- -- -- --  -- -- -- -- -- -- -- --
0630:                                            1D 70                .p
0640: 80 23 00                                          .#.             
```

#### Opcodes

```
  0: 0x063E [0x1D] PRINT_EVENT_MESSAGE(message_id=8056*)
     "Professor, that idea is wonderful. I can see someone here is being useful."
  1: 0x0641 [0x23] WAIT_FOR_DIALOG_INTERACTION
  2: 0x0642 [0x00] END_REQSTACK()
```

### Event 279

#### Metadata

| Field        | Value   |
|--------------|---------|
| Entrypoint   | 0x0643  |
| Data Size    | 1 bytes |
| Instructions | 1       |

```
      00 01 02 03 04 05 06 07  08 09 0A 0B 0C 0D 0E 0F
      -- -- -- -- -- -- -- --  -- -- -- -- -- -- -- --
0640:          00                                          .            
```

#### Opcodes

```
  0: 0x0643 [0x00] END_REQSTACK()
```

### Event 65535.97

#### Metadata

| Field        | Value    |
|--------------|----------|
| Entrypoint   | 0x0644   |
| Data Size    | 19 bytes |
| Instructions | 5        |

```
      00 01 02 03 04 05 06 07  08 09 0A 0B 0C 0D 0E 0F
      -- -- -- -- -- -- -- --  -- -- -- -- -- -- -- --
0640:             29 08 55 20  0F 01 1C 1D 71 80 23 29      ).U ....q.#)
0650: 08 55 20 0F 01 1D 00                              .U ....         
```

#### Opcodes

```
  0: 0x0644 [0x29] REQ_SET_WAIT(priority=0x08, entity_id=Shantotto (ID: 17768533/0x010F2055), tag_num=0x1C)
  1: 0x064B [0x1D] PRINT_EVENT_MESSAGE(message_id=8071*)
     "Silent running! Now that is a feature that they should put on all magic dolls! Ohohoho!"
  2: 0x064E [0x23] WAIT_FOR_DIALOG_INTERACTION
  3: 0x064F [0x29] REQ_SET_WAIT(priority=0x08, entity_id=Shantotto (ID: 17768533/0x010F2055), tag_num=0x1D)
  4: 0x0656 [0x00] END_REQSTACK()
```

### Event 65535.98

#### Metadata

| Field        | Value    |
|--------------|----------|
| Entrypoint   | 0x0657   |
| Data Size    | 24 bytes |
| Instructions | 6        |

```
      00 01 02 03 04 05 06 07  08 09 0A 0B 0C 0D 0E 0F
      -- -- -- -- -- -- -- --  -- -- -- -- -- -- -- --
0650:                      32  0E 80 1F 00 72 80 73 80         2....r.s.
0660: 1A 80 1F 01 1F 00 74 80  75 80 1A 80 1F 01 00     ......t.u...... 
```

#### Opcodes

```
  0: 0x0657 [0x32] ExtData[1]->MainSpeed = 13* * 0.1
  1: 0x065A [0x1F] MOVE_ENTITY: EventEntity moves to X=-0.215*, Z=18.355*, Y=30.749*
  2: 0x0662 [0x1F] MOVE_ENTITY: Update entity position (mode=1)
  3: 0x0664 [0x1F] MOVE_ENTITY: EventEntity moves to X=1.994*, Z=17.902*, Y=30.749*
  4: 0x066C [0x1F] MOVE_ENTITY: Update entity position (mode=1)
  5: 0x066E [0x00] END_REQSTACK()
```

### Event 65535.99

#### Metadata

| Field        | Value    |
|--------------|----------|
| Entrypoint   | 0x066F   |
| Data Size    | 14 bytes |
| Instructions | 4        |

```
      00 01 02 03 04 05 06 07  08 09 0A 0B 0C 0D 0E 0F
      -- -- -- -- -- -- -- --  -- -- -- -- -- -- -- --
0660:                                               32                 2
0670: 0E 80 1F 00 76 80 77 80  3D 80 1F 01 00           ....v.w.=....   
```

#### Opcodes

```
  0: 0x066F [0x32] ExtData[1]->MainSpeed = 13* * 0.1
  1: 0x0672 [0x1F] MOVE_ENTITY: EventEntity moves to X=-4.275*, Z=21.285*, Y=30.499*
  2: 0x067A [0x1F] MOVE_ENTITY: Update entity position (mode=1)
  3: 0x067C [0x00] END_REQSTACK()
```

### Event 65535.100

#### Metadata

| Field        | Value    |
|--------------|----------|
| Entrypoint   | 0x067D   |
| Data Size    | 20 bytes |
| Instructions | 5        |

```
      00 01 02 03 04 05 06 07  08 09 0A 0B 0C 0D 0E 0F
      -- -- -- -- -- -- -- --  -- -- -- -- -- -- -- --
0670:                                         32 0E 80               2..
0680: 1F 00 21 80 22 80 23 80  1F 01 4E 01 55 20 0F 01  ..!.".#...N.U ..
0690: 00                                                .               
```

#### Opcodes

```
  0: 0x067D [0x32] ExtData[1]->MainSpeed = 13* * 0.1
  1: 0x0680 [0x1F] MOVE_ENTITY: EventEntity moves to X=-5.123*, Z=21.697*, Y=30.500*
  2: 0x0688 [0x1F] MOVE_ENTITY: Update entity position (mode=1)
  3: 0x068A [0x4E] SET_ENTITY_HIDE_FLAG: Hide Shantotto (ID: 17768533/0x010F2055)
  4: 0x0690 [0x00] END_REQSTACK()
```

### Event 65535.101

#### Metadata

| Field        | Value    |
|--------------|----------|
| Entrypoint   | 0x0691   |
| Data Size    | 10 bytes |
| Instructions | 2        |

```
      00 01 02 03 04 05 06 07  08 09 0A 0B 0C 0D 0E 0F
      -- -- -- -- -- -- -- --  -- -- -- -- -- -- -- --
0690:    37 78 80 79 80 3D 80  7A 80 00                  7x.y.=.z..     
```

#### Opcodes

```
  0: 0x0691 [0x37] UPDATE_EVENT_POSITION_AND_DIR: x=-7.726*, z=22.641*, y=30.499*, direction=30.1째*
  1: 0x069A [0x00] END_REQSTACK()
```

### Event 281

#### Metadata

| Field        | Value   |
|--------------|---------|
| Entrypoint   | 0x069B  |
| Data Size    | 1 bytes |
| Instructions | 1       |

```
      00 01 02 03 04 05 06 07  08 09 0A 0B 0C 0D 0E 0F
      -- -- -- -- -- -- -- --  -- -- -- -- -- -- -- --
0690:                                   00                         .    
```

#### Opcodes

```
  0: 0x069B [0x00] END_REQSTACK()
```

### Event 65535.102

#### Metadata

| Field        | Value   |
|--------------|---------|
| Entrypoint   | 0x069C  |
| Data Size    | 5 bytes |
| Instructions | 3       |

```
      00 01 02 03 04 05 06 07  08 09 0A 0B 0C 0D 0E 0F
      -- -- -- -- -- -- -- --  -- -- -- -- -- -- -- --
0690:                                      1D 7B 80 23              .{.#
06A0: 00                                                .               
```

#### Opcodes

```
  0: 0x069C [0x1D] PRINT_EVENT_MESSAGE(message_id=8085*)
     "I'm here, I'm here."
  1: 0x069F [0x23] WAIT_FOR_DIALOG_INTERACTION
  2: 0x06A0 [0x00] END_REQSTACK()
```

### Event 65535.103

#### Metadata

| Field        | Value    |
|--------------|----------|
| Entrypoint   | 0x06A1   |
| Data Size    | 19 bytes |
| Instructions | 5        |

```
      00 01 02 03 04 05 06 07  08 09 0A 0B 0C 0D 0E 0F
      -- -- -- -- -- -- -- --  -- -- -- -- -- -- -- --
06A0:    29 08 55 20 0F 01 1E  1D 7C 80 23 29 08 55 20   ).U ....|.#).U 
06B0: 0F 01 1F 00                                       ....            
```

#### Opcodes

```
  0: 0x06A1 [0x29] REQ_SET_WAIT(priority=0x08, entity_id=Shantotto (ID: 17768533/0x010F2055), tag_num=0x1E)
  1: 0x06A8 [0x1D] PRINT_EVENT_MESSAGE(message_id=8088*)
     "Quiet, Professor! It was terrible down there. You don't have a clue. Just look at my hat! It's all moldy-woldy and covered with mildew!"
  2: 0x06AB [0x23] WAIT_FOR_DIALOG_INTERACTION
  3: 0x06AC [0x29] REQ_SET_WAIT(priority=0x08, entity_id=Shantotto (ID: 17768533/0x010F2055), tag_num=0x1F)
