# 17768486 - Zubaba

## Common Data

| Field            | Value                   |
|------------------|-------------------------|
| Zone             | Heavens Tower (ID: 242) |
| Block Size       | 2984 bytes              |
| Total Events     | 96                      |
| References Count | 106                     |

## List of Events

| Event ID                   | Entrypoint   |   Size |   Instructions |
|----------------------------|--------------|--------|----------------|
| [65535](#event-65535)      | 0x0000       |      1 |              1 |
| [65535.1](#event-655351)   | 0x0001       |     16 |              2 |
| [65535.2](#event-655352)   | 0x0011       |     22 |              4 |
| [65535.3](#event-655353)   | 0x0027       |     16 |              2 |
| [65535.4](#event-655354)   | 0x0037       |     14 |              2 |
| [65535.5](#event-655355)   | 0x0045       |     16 |              2 |
| [65535.6](#event-655356)   | 0x0055       |     14 |              2 |
| [65535.7](#event-655357)   | 0x0063       |     16 |              2 |
| [65535.8](#event-655358)   | 0x0073       |     14 |              2 |
| [65535.9](#event-655359)   | 0x0081       |     16 |              2 |
| [65535.10](#event-6553510) | 0x0091       |     14 |              2 |
| [65535.11](#event-6553511) | 0x009F       |     16 |              2 |
| [65535.12](#event-6553512) | 0x00AF       |     14 |              2 |
| [65535.13](#event-6553513) | 0x00BD       |     16 |              2 |
| [65535.14](#event-6553514) | 0x00CD       |     14 |              2 |
| [65535.15](#event-6553515) | 0x00DB       |     16 |              2 |
| [65535.16](#event-6553516) | 0x00EB       |     22 |              4 |
| [65535.17](#event-6553517) | 0x0101       |     16 |              2 |
| [65535.18](#event-6553518) | 0x0111       |     22 |              4 |
| [65535.19](#event-6553519) | 0x0127       |     16 |              2 |
| [65535.20](#event-6553520) | 0x0137       |     22 |              4 |
| [65535.21](#event-6553521) | 0x014D       |     16 |              2 |
| [65535.22](#event-6553522) | 0x015D       |     22 |              4 |
| [65535.23](#event-6553523) | 0x0173       |     16 |              2 |
| [65535.24](#event-6553524) | 0x0183       |     14 |              2 |
| [65535.25](#event-6553525) | 0x0191       |     16 |              2 |
| [65535.26](#event-6553526) | 0x01A1       |     22 |              4 |
| [65535.27](#event-6553527) | 0x01B7       |     16 |              2 |
| [65535.28](#event-6553528) | 0x01C7       |     14 |              2 |
| [65535.29](#event-6553529) | 0x01D5       |     16 |              2 |
| [65535.30](#event-6553530) | 0x01E5       |     22 |              4 |
| [65535.31](#event-6553531) | 0x01FB       |      9 |              3 |
| [56](#event-56)            | 0x0204       |     47 |             14 |
| [157](#event-157)          | 0x0233       |     47 |             14 |
| [121](#event-121)          | 0x0262       |      1 |              1 |
| [65535.32](#event-6553532) | 0x0263       |     10 |              2 |
| [65535.33](#event-6553533) | 0x026D       |     15 |              5 |
| [65535.34](#event-6553534) | 0x027C       |     15 |              5 |
| [65535.35](#event-6553535) | 0x028B       |     31 |              7 |
| [65535.36](#event-6553536) | 0x02AA       |     15 |              5 |
| [65535.37](#event-6553537) | 0x02B9       |     19 |              5 |
| [65535.38](#event-6553538) | 0x02CC       |     19 |              5 |
| [65535.39](#event-6553539) | 0x02DF       |     51 |             11 |
| [65535.40](#event-6553540) | 0x0312       |     19 |              5 |
| [65535.41](#event-6553541) | 0x0325       |     37 |              9 |
| [65535.42](#event-6553542) | 0x034A       |      5 |              3 |
| [65535.43](#event-6553543) | 0x034F       |      5 |              3 |
| [65535.44](#event-6553544) | 0x0354       |      9 |              5 |
| [65535.45](#event-6553545) | 0x035D       |      5 |              3 |
| [65535.46](#event-6553546) | 0x0362       |     23 |              7 |
| [65535.47](#event-6553547) | 0x0379       |     23 |              7 |
| [65535.48](#event-6553548) | 0x0390       |     19 |              5 |
| [65535.49](#event-6553549) | 0x03A3       |     19 |              5 |
| [65535.50](#event-6553550) | 0x03B6       |     12 |              4 |
| [65535.51](#event-6553551) | 0x03C2       |     30 |              8 |
| [65535.52](#event-6553552) | 0x03E0       |     19 |              5 |
| [65535.53](#event-6553553) | 0x03F3       |     19 |              5 |
| [65535.54](#event-6553554) | 0x0406       |     23 |              7 |
| [65535.55](#event-6553555) | 0x041D       |      5 |              3 |
| [257](#event-257)          | 0x0422       |      1 |              1 |
| [122](#event-122)          | 0x0423       |     33 |             12 |
| [135](#event-135)          | 0x0444       |      1 |              1 |
| [65535.56](#event-6553556) | 0x0445       |     19 |              5 |
| [65535.57](#event-6553557) | 0x0458       |     37 |              9 |
| [65535.58](#event-6553558) | 0x047D       |     19 |              5 |
| [65535.59](#event-6553559) | 0x0490       |     19 |              5 |
| [65535.60](#event-6553560) | 0x04A3       |     19 |              5 |
| [65535.61](#event-6553561) | 0x04B6       |     19 |              5 |
| [65535.62](#event-6553562) | 0x04C9       |     19 |              5 |
| [136](#event-136)          | 0x04DC       |     33 |             12 |
| [149](#event-149)          | 0x04FD       |     46 |             11 |
| [65535.63](#event-6553563) | 0x052B       |     12 |              4 |
| [65535.64](#event-6553564) | 0x0537       |     26 |              6 |
| [65535.65](#event-6553565) | 0x0551       |     19 |              5 |
| [65535.66](#event-6553566) | 0x0564       |     19 |              5 |
| [65535.67](#event-6553567) | 0x0577       |     19 |              5 |
| [65535.68](#event-6553568) | 0x058A       |     19 |              5 |
| [65535.69](#event-6553569) | 0x059D       |     23 |              5 |
| [150](#event-150)          | 0x05B4       |     47 |             14 |
| [151](#event-151)          | 0x05E3       |     67 |             17 |
| [152](#event-152)          | 0x0626       |     47 |             14 |
| [65535.70](#event-6553570) | 0x0655       |     19 |              5 |
| [169](#event-169)          | 0x0668       |     33 |             12 |
| [194](#event-194)          | 0x0689       |     33 |             12 |
| [217](#event-217)          | 0x06AA       |     47 |             14 |
| [315](#event-315)          | 0x06D9       |     47 |             14 |
| [316](#event-316)          | 0x0708       |     47 |             14 |
| [301](#event-301)          | 0x0737       |     47 |             14 |
| [328](#event-328)          | 0x0766       |     33 |             12 |
| [336](#event-336)          | 0x0787       |     65 |             18 |
| [349](#event-349)          | 0x07C8       |     51 |             16 |
| [387](#event-387)          | 0x07FB       |     63 |             18 |
| [429](#event-429)          | 0x083A       |      1 |              1 |
| [430](#event-430)          | 0x083B       |      1 |              1 |
| [65535.71](#event-6553571) | 0x083C       |     11 |              3 |
| [65535.72](#event-6553572) | 0x0847       |     39 |              9 |

## DAT References (imed_data)

|   Index | Hex Value   |   Dec Value |
|---------|-------------|-------------|
|       0 | 0x0028      |          40 |
|       1 | 0x001E      |          30 |
|       2 | 0x002A      |          42 |
|       3 | 0x0029      |          41 |
|       4 | 0x001B      |          27 |
|       5 | 0x001C      |          28 |
|       6 | 0x013A      |         314 |
|       7 | 0x013B      |         315 |
|       8 | 0x3D10      |       15632 |
|       9 | 0x4744      |       18244 |
|      10 | 0xFFFF9976  |  4294941046 |
|      11 | 0x0595      |        1429 |
|      12 | 0x000D      |          13 |
|      13 | 0x3A32      |       14898 |
|      14 | 0x4F81      |       20353 |
|      15 | 0x4311      |       17169 |
|      16 | 0x3EED      |       16109 |
|      17 | 0x3962      |       14690 |
|      18 | 0x3828      |       14376 |
|      19 | 0x3452      |       13394 |
|      20 | 0x38E0      |       14560 |
|      21 | 0x397E      |       14718 |
|      22 | 0x37E2      |       14306 |
|      23 | 0x00D5      |         213 |
|      24 | 0x00D6      |         214 |
|      25 | 0x00D7      |         215 |
|      26 | 0x00D8      |         216 |
|      27 | 0x00D9      |         217 |
|      28 | 0x00DA      |         218 |
|      29 | 0x00DB      |         219 |
|      30 | 0x00DC      |         220 |
|      31 | 0x00DD      |         221 |
|      32 | 0x00DE      |         222 |
|      33 | 0x00DF      |         223 |
|      34 | 0x00E0      |         224 |
|      35 | 0x00E1      |         225 |
|      36 | 0x00E2      |         226 |
|      37 | 0x00E3      |         227 |
|      38 | 0x00E4      |         228 |
|      39 | 0x00E5      |         229 |
|      40 | 0x00E6      |         230 |
|      41 | 0x00E7      |         231 |
|      42 | 0x00E8      |         232 |
|      43 | 0x00E9      |         233 |
|      44 | 0x00EA      |         234 |
|      45 | 0x00EB      |         235 |
|      46 | 0x00ED      |         237 |
|      47 | 0x00EE      |         238 |
|      48 | 0x00EF      |         239 |
|      49 | 0x00F2      |         242 |
|      50 | 0x00F3      |         243 |
|      51 | 0x010B      |         267 |
|      52 | 0x010C      |         268 |
|      53 | 0x010D      |         269 |
|      54 | 0x010E      |         270 |
|      55 | 0x010F      |         271 |
|      56 | 0x0110      |         272 |
|      57 | 0x0111      |         273 |
|      58 | 0x0112      |         274 |
|      59 | 0x0113      |         275 |
|      60 | 0x0114      |         276 |
|      61 | 0x012A      |         298 |
|      62 | 0x012B      |         299 |
|      63 | 0x012C      |         300 |
|      64 | 0x012D      |         301 |
|      65 | 0x012E      |         302 |
|      66 | 0x012F      |         303 |
|      67 | 0x00F1      |         241 |
|      68 | 0x0130      |         304 |
|      69 | 0x0131      |         305 |
|      70 | 0x0132      |         306 |
|      71 | 0x0133      |         307 |
|      72 | 0x00C9      |         201 |
|      73 | 0x0000      |           0 |
|      74 | 0x0134      |         308 |
|      75 | 0x0135      |         309 |
|      76 | 0x015E      |         350 |
|      77 | 0x015F      |         351 |
|      78 | 0x01B4      |         436 |
|      79 | 0x01B5      |         437 |
|      80 | 0x01E6      |         486 |
|      81 | 0x01E7      |         487 |
|      82 | 0x1FC8      |        8136 |
|      83 | 0x1FC9      |        8137 |
|      84 | 0x1FCA      |        8138 |
|      85 | 0x1FCB      |        8139 |
|      86 | 0x1FD4      |        8148 |
|      87 | 0x1FD5      |        8149 |
|      88 | 0x2016      |        8214 |
|      89 | 0x2017      |        8215 |
|      90 | 0x2054      |        8276 |
|      91 | 0x2055      |        8277 |
|      92 | 0x2056      |        8278 |
|      93 | 0x20E0      |        8416 |
|      94 | 0x20E1      |        8417 |
|      95 | 0x20E2      |        8418 |
|      96 | 0x213A      |        8506 |
|      97 | 0x0001      |           1 |
|      98 | 0x213B      |        8507 |
|      99 | 0x213C      |        8508 |
|     100 | 0xFFFF8A21  |  4294937121 |
|     101 | 0xFFFFE20F  |  4294959631 |
|     102 | 0xFFFFE1BB  |  4294959547 |
|     103 | 0xFFFFFCB6  |  4294966454 |
|     104 | 0x8E71      |       36465 |
|     105 | 0xFFFF4099  |  4294918297 |

## String References

- **27**: What's this? Are you under the delusion that I, Zubaba, head lady-in-waiting, would let a slimy adventurer like you journey into our holy Planetarium!?
- **28**: And talk to the Star Sibyl? Hah! I've never heard of anything so absurd! The personage with whom you seek audience is the Dawn Goddess Reincarnate, you impertinent scally-wally-wag!
- **213**: You're la\`te! Late late late late late!
- **214**: You pathetic adventurers are never-ever on time!
- **215**: You think that being late affects only you, my dear? Did you ever think of those who have to wait for you? Hmm?
- **216**: And what of the people who have to wait for the people who are waiting for you? You see, your lack of punctuality creates problems for all of Vana'diel!
- **217**: Are you paying attention, young [man/lady]? Very well. Let me tell you why I have summoned you here.
- **218**: I have heard of your exploits from the young lady in the Clerical Chamber.
- **219**: What we ladies-in-waiting need right now is an adventurer of good standing.
- **220**: ... Let us retire to a place where we may converse in private.
- **221**: My request concerns...the Star Sibyl.
- **222**: From generation to generation to generation to generation, the Star Sibyls inherit a mysterious ability to read the future from the stars that appear in the Star Spring.
- **223**: The first time that a new Star Sibyl uses this power is during her inauguration on a day we call the Starway Solstice.
- **224**: But during the Star Reading ceremony on her inauguration, the Sibyl learned of a terrible calamity that would befall all Windurst.
- **225**: You are aware of the Great War that occurred twenty-wenty years ago, are you not?
- **226**: The Star Sibyl had a vision of the war before it began.
- **227**: She collapsed after beholding that vision, and remained speechless, shivering in her bed, for days.
- **228**: All we ladies-in-waiting could do was kneel by her side and pray for her quick-wick recovery.
- **229**: ...And now history is repeating itself.
- **230**: Ever since Ajido-Marujido brought that blank copy of the Book of the Gods here, the Star Sibyl has been gazing into the Star Spring every night. And then last night...
- **231**: She collapsed, just as she did twenty years ago! Oh, what did the Star Sibyl do to deserve this?
- **232**: However, before she collapsed, she received some sort of sign from the stars.
- **233**: It was a sign that revealed that something malevolent is stirring in the central tower of the Horutoto Ruins.
- **234**: The same central tower that has been sealed since the end of the Great War.
- **235**: What is down there, you ask? Well, part of the talisman that seals Castle Zvahl, and...
- **237**: Hold out your hand. This is a charm that will allow you to enter that room.
- **238**: Keep it safe, for this charm is exceedingly important. If it were to fall into the wrong hands...
- **239**: Now, be off with you. The sooner you come back with good news, the sooner the Star Sibyl will recover.
- **242**: I would like you to travel to the central tower of the Horutoto Ruins and check up on the safety of the talisman that seals Castle Zvahl.
- **243**: That talisman is one of three used by Windurst, Bastok, and San d'Oria to prevent the Shadow Lord from ever returning. If anything has happened to it...
- **267**: You're late! Late late late late late!
- **268**: You were gone for ever so long... How were we to know you were not devoured by monsters!?
- **269**: Well, at least you returned in one piece. Now inform me of what you discovered.
- **270**: ...I see. So the talisman was intact. Then the sign must have been...
- **271**: Oh, but that is nothing for you to fuss-muss over. I will relay your findings to the Star Sibyl once she awakens.
- **272**: I am positive that she will begin her recovery when she hears that the talisman remains in its rightful place.
- **273**: However, I still do not understand why...
- **274**: Well, something is amiss--there is no question of that. And my Tarutaru intuition tells me that awful Orastery minister is behind it all.
- **275**: I still cannot put my finger on what is really going on.
- **276**: However, I do know that something is amiss--there is no question of that. And my Tarutaru intuition tells me that awful Orastery minister is behind it all.
- **298**: Late again, are we, [mister/miss] <Player>?
- **299**: Well, no matter. I have no time to listen to your idle excuses. I need you to travel once more to the central tower of the Horutoto Ruins.
- **300**: I have learned from my sources that the tower is once again overrun with squirming vermin.
- **301**: It may be in ruins, but ever since the first Star Sibyl sealed it, the central tower has been a place very sacred and important to Windurst.
- **302**: And that is all the more reason to have you journey down there and cleanse our holy tower.
- **303**: If you understand your mission, then be off with you. Do not forget to bring back three $1 as proof of your work.
- **304**: Journey to the central tower of the Horutoto Ruins and rid the place of those pernicious-vicious vermin.
- **305**: If you understand your mission, then be off with you. Do not forget to bring back three $1 as proof of your work.
- **306**: Well, well, well. I am impressed that a mere adventurer such as yourself was able to carry out my biddy-bidding.
- **307**: If you ever wish another respite from your wastrel existence, then I will arrange some more honest work for you.
- **308**: Strictly speaking, adventurers are forbidden to enter the central tower of the Horutoto Ruins. We make exceptions, however, since adventurers make such efficient monster exterminators.
- **309**: The Star Sibyl is troubled over whether to completely close off the ruins to all travelers or not.
- **314**: To think that the Star Sibyl would want to see a slimy-grimy adventurer! Have all my lessons in proper etiquette been in vain?
- **315**: If you are entertaining even the slightest thought of beguiling our divine Lady, heads will roll, do you hear me!
- **350**: So this is what the Star Sibyl had envisioned?
- **351**: After twenty years of hard work to build bridges between Windurst and the beastmen, to have the Yagudo burn them down...
- **436**: Every time the five ministers get together, there are usually fireworks. However, this time everyone was quiet. Especially the Orastery minister.
- **437**: If he's not preaching, then you know something must be wrong.
- **486**: Well, well, well. I guess that all adventurers aren't that bad.
- **487**: Don't get the wrong idea, now. I never said it was you.
- **8136**: So, have you finished all your tasks? Things have finally settled down around here, too. Now we need to shore up our reserves for the next trial that comes along.
- **8137**: ...You good-for-nothing layabout! If you have time to dawdle-wawdle around here, you should be off completing missions for your country!
- **8138**: So, have you finished all your tasks? Things have finally settled down around here, too. Now we need to shore up our reserves for the next trial that comes along.
- **8139**: ...You good-for-nothing layabout! If you have time to dawdle-wawdle around here, you should be off completing missions for your country!
- **8148**: I am quite certain you are already aware of the situation at hand, but...
- **8149**: What on Vana'diel were you thinking!? I distinctly told you to be wary of that slimy-wimy little Ajido-Marujido!
- **8214**: You want to know how to make the charm that opens the Dark Dungeon...? Whatever do you hope to gain by asking me such a ridiculous question?
- **8215**: I will never betray the Star Sibyl! While I still have breath in my body, I will stand against anyone who tries to do so!
- **8276**: Ah, <Player>!
- **8277**: The bearer of darkness... There was not a single thing we could do to stop it! That horrid-worrid creature resisted every charm we could conceive!
- **8278**: Many years have I spent in fair Windurst, but never have I encountered such an ominous being. I thank the Goddess the Star Sibyl was unharmed...
- **8416**: ...You understand, don't you, <Player>?
- **8417**: The only people aware of this situation are myself, the Sibyl Guards, Ajido-Marujido, his sister Apururu, and you.
- **8418**: The future of Windurst is in your hands. You must liberataru the Star Sibyl by any means possible.
- **8506**: ...<Player>! The Star Sibyl has returned to us safely! The future of Windurst has been secured!
- **8507**: You have my deepest gratitude. Even a strong, independent adventurer like yourself must have realized--the Star Sibyl is the wellspring of courage and spirit for all the citizens of Windurst.
- **8508**: You have done more than simply save the Star Sibyl--you have rescued the heart and soul of the people.

## Events

### Event 65535

#### Metadata

| Field        | Value   |
|--------------|---------|
| Entrypoint   | 0x0000  |
| Data Size    | 1 bytes |
| Instructions | 1       |

```
      00 01 02 03 04 05 06 07  08 09 0A 0B 0C 0D 0E 0F
      -- -- -- -- -- -- -- --  -- -- -- -- -- -- -- --
0000: 00                                                .               
```

#### Opcodes

```
  0: 0x0000 [0x00] END_REQSTACK()
```

### Event 65535.1

#### Metadata

| Field        | Value    |
|--------------|----------|
| Entrypoint   | 0x0001   |
| Data Size    | 16 bytes |
| Instructions | 2        |

```
      00 01 02 03 04 05 06 07  08 09 0A 0B 0C 0D 0E 0F
      -- -- -- -- -- -- -- --  -- -- -- -- -- -- -- --
0000:    66 00 80 F8 FF FF 7F  F8 FF FF 7F 74 6C 6B 30   f..........tlk0
0010: 00                                                .               
```

#### Opcodes

```
  0: 0x0001 [0x66] LOAD_EXT_SCHEDULER_MAIN: Load scheduler "tlk0" with entities [EventEntity, EventEntity], work=40*
  1: 0x0010 [0x00] END_REQSTACK()
```

### Event 65535.2

#### Metadata

| Field        | Value    |
|--------------|----------|
| Entrypoint   | 0x0011   |
| Data Size    | 22 bytes |
| Instructions | 4        |

```
      00 01 02 03 04 05 06 07  08 09 0A 0B 0C 0D 0E 0F
      -- -- -- -- -- -- -- --  -- -- -- -- -- -- -- --
0010:    53 F8 FF FF 7F F8 FF  FF 7F 74 6C 6B 30 5E 69   S........tlk0^i
0020: 64 6C 30 1C 01 80 00                              dl0....         
```

#### Opcodes

```
  0: 0x0011 [0x53] WAIT_SCHEDULER_TASK: Wait for scheduler "tlk0" with entities [EventEntity, EventEntity]
  1: 0x001E [0x5E] EventEntity goes idle (kills current action) (animation: "idl0")
  2: 0x0023 [0x1C] WAIT(30* ticks)
  3: 0x0026 [0x00] END_REQSTACK()
```

### Event 65535.3

#### Metadata

| Field        | Value    |
|--------------|----------|
| Entrypoint   | 0x0027   |
| Data Size    | 16 bytes |
| Instructions | 2        |

```
      00 01 02 03 04 05 06 07  08 09 0A 0B 0C 0D 0E 0F
      -- -- -- -- -- -- -- --  -- -- -- -- -- -- -- --
0020:                      66  00 80 F8 FF FF 7F F8 FF         f........
0030: FF 7F 74 68 6B 31 00                              ..thk1.         
```

#### Opcodes

```
  0: 0x0027 [0x66] LOAD_EXT_SCHEDULER_MAIN: Load scheduler "thk1" with entities [EventEntity, EventEntity], work=40*
  1: 0x0036 [0x00] END_REQSTACK()
```

### Event 65535.4

#### Metadata

| Field        | Value    |
|--------------|----------|
| Entrypoint   | 0x0037   |
| Data Size    | 14 bytes |
| Instructions | 2        |

```
      00 01 02 03 04 05 06 07  08 09 0A 0B 0C 0D 0E 0F
      -- -- -- -- -- -- -- --  -- -- -- -- -- -- -- --
0030:                      53  F8 FF FF 7F F8 FF FF 7F         S........
0040: 74 68 6B 31 00                                    thk1.           
```

#### Opcodes

```
  0: 0x0037 [0x53] WAIT_SCHEDULER_TASK: Wait for scheduler "thk1" with entities [EventEntity, EventEntity]
  1: 0x0044 [0x00] END_REQSTACK()
```

### Event 65535.5

#### Metadata

| Field        | Value    |
|--------------|----------|
| Entrypoint   | 0x0045   |
| Data Size    | 16 bytes |
| Instructions | 2        |

```
      00 01 02 03 04 05 06 07  08 09 0A 0B 0C 0D 0E 0F
      -- -- -- -- -- -- -- --  -- -- -- -- -- -- -- --
0040:                66 00 80  F8 FF FF 7F F8 FF FF 7F       f..........
0050: 74 68 6B 32 00                                    thk2.           
```

#### Opcodes

```
  0: 0x0045 [0x66] LOAD_EXT_SCHEDULER_MAIN: Load scheduler "thk2" with entities [EventEntity, EventEntity], work=40*
  1: 0x0054 [0x00] END_REQSTACK()
```

### Event 65535.6

#### Metadata

| Field        | Value    |
|--------------|----------|
| Entrypoint   | 0x0055   |
| Data Size    | 14 bytes |
| Instructions | 2        |

```
      00 01 02 03 04 05 06 07  08 09 0A 0B 0C 0D 0E 0F
      -- -- -- -- -- -- -- --  -- -- -- -- -- -- -- --
0050:                53 F8 FF  FF 7F F8 FF FF 7F 74 68       S........th
0060: 6B 32 00                                          k2.             
```

#### Opcodes

```
  0: 0x0055 [0x53] WAIT_SCHEDULER_TASK: Wait for scheduler "thk2" with entities [EventEntity, EventEntity]
  1: 0x0062 [0x00] END_REQSTACK()
```

### Event 65535.7

#### Metadata

| Field        | Value    |
|--------------|----------|
| Entrypoint   | 0x0063   |
| Data Size    | 16 bytes |
| Instructions | 2        |

```
      00 01 02 03 04 05 06 07  08 09 0A 0B 0C 0D 0E 0F
      -- -- -- -- -- -- -- --  -- -- -- -- -- -- -- --
0060:          66 00 80 F8 FF  FF 7F F8 FF FF 7F 64 69     f..........di
0070: 73 30 00                                          s0.             
```

#### Opcodes

```
  0: 0x0063 [0x66] LOAD_EXT_SCHEDULER_MAIN: Load scheduler "dis0" with entities [EventEntity, EventEntity], work=40*
  1: 0x0072 [0x00] END_REQSTACK()
```

### Event 65535.8

#### Metadata

| Field        | Value    |
|--------------|----------|
| Entrypoint   | 0x0073   |
| Data Size    | 14 bytes |
| Instructions | 2        |

```
      00 01 02 03 04 05 06 07  08 09 0A 0B 0C 0D 0E 0F
      -- -- -- -- -- -- -- --  -- -- -- -- -- -- -- --
0070:          53 F8 FF FF 7F  F8 FF FF 7F 64 69 73 30     S........dis0
0080: 00                                                .               
```

#### Opcodes

```
  0: 0x0073 [0x53] WAIT_SCHEDULER_TASK: Wait for scheduler "dis0" with entities [EventEntity, EventEntity]
  1: 0x0080 [0x00] END_REQSTACK()
```

### Event 65535.9

#### Metadata

| Field        | Value    |
|--------------|----------|
| Entrypoint   | 0x0081   |
| Data Size    | 16 bytes |
| Instructions | 2        |

```
      00 01 02 03 04 05 06 07  08 09 0A 0B 0C 0D 0E 0F
      -- -- -- -- -- -- -- --  -- -- -- -- -- -- -- --
0080:    66 00 80 F8 FF FF 7F  F8 FF FF 7F 77 61 76 30   f..........wav0
0090: 00                                                .               
```

#### Opcodes

```
  0: 0x0081 [0x66] LOAD_EXT_SCHEDULER_MAIN: Load scheduler "wav0" with entities [EventEntity, EventEntity], work=40*
  1: 0x0090 [0x00] END_REQSTACK()
```

### Event 65535.10

#### Metadata

| Field        | Value    |
|--------------|----------|
| Entrypoint   | 0x0091   |
| Data Size    | 14 bytes |
| Instructions | 2        |

```
      00 01 02 03 04 05 06 07  08 09 0A 0B 0C 0D 0E 0F
      -- -- -- -- -- -- -- --  -- -- -- -- -- -- -- --
0090:    53 F8 FF FF 7F F8 FF  FF 7F 77 61 76 30 00      S........wav0. 
```

#### Opcodes

```
  0: 0x0091 [0x53] WAIT_SCHEDULER_TASK: Wait for scheduler "wav0" with entities [EventEntity, EventEntity]
  1: 0x009E [0x00] END_REQSTACK()
```

### Event 65535.11

#### Metadata

| Field        | Value    |
|--------------|----------|
| Entrypoint   | 0x009F   |
| Data Size    | 16 bytes |
| Instructions | 2        |

```
      00 01 02 03 04 05 06 07  08 09 0A 0B 0C 0D 0E 0F
      -- -- -- -- -- -- -- --  -- -- -- -- -- -- -- --
0090:                                               66                 f
00A0: 00 80 F8 FF FF 7F F8 FF  FF 7F 70 6F 69 30 00     ..........poi0. 
```

#### Opcodes

```
  0: 0x009F [0x66] LOAD_EXT_SCHEDULER_MAIN: Load scheduler "poi0" with entities [EventEntity, EventEntity], work=40*
  1: 0x00AE [0x00] END_REQSTACK()
```

### Event 65535.12

#### Metadata

| Field        | Value    |
|--------------|----------|
| Entrypoint   | 0x00AF   |
| Data Size    | 14 bytes |
| Instructions | 2        |

```
      00 01 02 03 04 05 06 07  08 09 0A 0B 0C 0D 0E 0F
      -- -- -- -- -- -- -- --  -- -- -- -- -- -- -- --
00A0:                                               53                 S
00B0: F8 FF FF 7F F8 FF FF 7F  70 6F 69 30 00           ........poi0.   
```

#### Opcodes

```
  0: 0x00AF [0x53] WAIT_SCHEDULER_TASK: Wait for scheduler "poi0" with entities [EventEntity, EventEntity]
  1: 0x00BC [0x00] END_REQSTACK()
```

### Event 65535.13

#### Metadata

| Field        | Value    |
|--------------|----------|
| Entrypoint   | 0x00BD   |
| Data Size    | 16 bytes |
| Instructions | 2        |

```
      00 01 02 03 04 05 06 07  08 09 0A 0B 0C 0D 0E 0F
      -- -- -- -- -- -- -- --  -- -- -- -- -- -- -- --
00B0:                                         66 00 80               f..
00C0: F8 FF FF 7F F8 FF FF 7F  70 61 73 30 00           ........pas0.   
```

#### Opcodes

```
  0: 0x00BD [0x66] LOAD_EXT_SCHEDULER_MAIN: Load scheduler "pas0" with entities [EventEntity, EventEntity], work=40*
  1: 0x00CC [0x00] END_REQSTACK()
```

### Event 65535.14

#### Metadata

| Field        | Value    |
|--------------|----------|
| Entrypoint   | 0x00CD   |
| Data Size    | 14 bytes |
| Instructions | 2        |

```
      00 01 02 03 04 05 06 07  08 09 0A 0B 0C 0D 0E 0F
      -- -- -- -- -- -- -- --  -- -- -- -- -- -- -- --
00C0:                                         53 F8 FF               S..
00D0: FF 7F F8 FF FF 7F 70 61  73 30 00                 ......pas0.     
```

#### Opcodes

```
  0: 0x00CD [0x53] WAIT_SCHEDULER_TASK: Wait for scheduler "pas0" with entities [EventEntity, EventEntity]
  1: 0x00DA [0x00] END_REQSTACK()
```

### Event 65535.15

#### Metadata

| Field        | Value    |
|--------------|----------|
| Entrypoint   | 0x00DB   |
| Data Size    | 16 bytes |
| Instructions | 2        |

```
      00 01 02 03 04 05 06 07  08 09 0A 0B 0C 0D 0E 0F
      -- -- -- -- -- -- -- --  -- -- -- -- -- -- -- --
00D0:                                   66 02 80 F8 FF             f....
00E0: FF 7F F8 FF FF 7F 62 69  6B 30 00                 ......bik0.     
```

#### Opcodes

```
  0: 0x00DB [0x66] LOAD_EXT_SCHEDULER_MAIN: Load scheduler "bik0" with entities [EventEntity, EventEntity], work=42*
  1: 0x00EA [0x00] END_REQSTACK()
```

### Event 65535.16

#### Metadata

| Field        | Value    |
|--------------|----------|
| Entrypoint   | 0x00EB   |
| Data Size    | 22 bytes |
| Instructions | 4        |

```
      00 01 02 03 04 05 06 07  08 09 0A 0B 0C 0D 0E 0F
      -- -- -- -- -- -- -- --  -- -- -- -- -- -- -- --
00E0:                                   53 F8 FF FF 7F             S....
00F0: F8 FF FF 7F 62 69 6B 30  5E 69 64 6C 30 1C 01 80  ....bik0^idl0...
0100: 00                                                .               
```

#### Opcodes

```
  0: 0x00EB [0x53] WAIT_SCHEDULER_TASK: Wait for scheduler "bik0" with entities [EventEntity, EventEntity]
  1: 0x00F8 [0x5E] EventEntity goes idle (kills current action) (animation: "idl0")
  2: 0x00FD [0x1C] WAIT(30* ticks)
  3: 0x0100 [0x00] END_REQSTACK()
```

### Event 65535.17

#### Metadata

| Field        | Value    |
|--------------|----------|
| Entrypoint   | 0x0101   |
| Data Size    | 16 bytes |
| Instructions | 2        |

```
      00 01 02 03 04 05 06 07  08 09 0A 0B 0C 0D 0E 0F
      -- -- -- -- -- -- -- --  -- -- -- -- -- -- -- --
0100:    66 00 80 F8 FF FF 7F  F8 FF FF 7F 73 79 75 30   f..........syu0
0110: 00                                                .               
```

#### Opcodes

```
  0: 0x0101 [0x66] LOAD_EXT_SCHEDULER_MAIN: Load scheduler "syu0" with entities [EventEntity, EventEntity], work=40*
  1: 0x0110 [0x00] END_REQSTACK()
```

### Event 65535.18

#### Metadata

| Field        | Value    |
|--------------|----------|
| Entrypoint   | 0x0111   |
| Data Size    | 22 bytes |
| Instructions | 4        |

```
      00 01 02 03 04 05 06 07  08 09 0A 0B 0C 0D 0E 0F
      -- -- -- -- -- -- -- --  -- -- -- -- -- -- -- --
0110:    53 F8 FF FF 7F F8 FF  FF 7F 73 79 75 30 5E 69   S........syu0^i
0120: 64 6C 30 1C 01 80 00                              dl0....         
```

#### Opcodes

```
  0: 0x0111 [0x53] WAIT_SCHEDULER_TASK: Wait for scheduler "syu0" with entities [EventEntity, EventEntity]
  1: 0x011E [0x5E] EventEntity goes idle (kills current action) (animation: "idl0")
  2: 0x0123 [0x1C] WAIT(30* ticks)
  3: 0x0126 [0x00] END_REQSTACK()
```

### Event 65535.19

#### Metadata

| Field        | Value    |
|--------------|----------|
| Entrypoint   | 0x0127   |
| Data Size    | 16 bytes |
| Instructions | 2        |

```
      00 01 02 03 04 05 06 07  08 09 0A 0B 0C 0D 0E 0F
      -- -- -- -- -- -- -- --  -- -- -- -- -- -- -- --
0120:                      66  00 80 F8 FF FF 7F F8 FF         f........
0130: FF 7F 69 72 6F 30 00                              ..iro0.         
```

#### Opcodes

```
  0: 0x0127 [0x66] LOAD_EXT_SCHEDULER_MAIN: Load scheduler "iro0" with entities [EventEntity, EventEntity], work=40*
  1: 0x0136 [0x00] END_REQSTACK()
```

### Event 65535.20

#### Metadata

| Field        | Value    |
|--------------|----------|
| Entrypoint   | 0x0137   |
| Data Size    | 22 bytes |
| Instructions | 4        |

```
      00 01 02 03 04 05 06 07  08 09 0A 0B 0C 0D 0E 0F
      -- -- -- -- -- -- -- --  -- -- -- -- -- -- -- --
0130:                      53  F8 FF FF 7F F8 FF FF 7F         S........
0140: 69 72 6F 30 5E 69 64 6C  30 1C 01 80 00           iro0^idl0....   
```

#### Opcodes

```
  0: 0x0137 [0x53] WAIT_SCHEDULER_TASK: Wait for scheduler "iro0" with entities [EventEntity, EventEntity]
  1: 0x0144 [0x5E] EventEntity goes idle (kills current action) (animation: "idl0")
  2: 0x0149 [0x1C] WAIT(30* ticks)
  3: 0x014C [0x00] END_REQSTACK()
```

### Event 65535.21

#### Metadata

| Field        | Value    |
|--------------|----------|
| Entrypoint   | 0x014D   |
| Data Size    | 16 bytes |
| Instructions | 2        |

```
      00 01 02 03 04 05 06 07  08 09 0A 0B 0C 0D 0E 0F
      -- -- -- -- -- -- -- --  -- -- -- -- -- -- -- --
0140:                                         66 03 80               f..
0150: F8 FF FF 7F F8 FF FF 7F  65 68 6E 30 00           ........ehn0.   
```

#### Opcodes

```
  0: 0x014D [0x66] LOAD_EXT_SCHEDULER_MAIN: Load scheduler "ehn0" with entities [EventEntity, EventEntity], work=41*
  1: 0x015C [0x00] END_REQSTACK()
```

### Event 65535.22

#### Metadata

| Field        | Value    |
|--------------|----------|
| Entrypoint   | 0x015D   |
| Data Size    | 22 bytes |
| Instructions | 4        |

```
      00 01 02 03 04 05 06 07  08 09 0A 0B 0C 0D 0E 0F
      -- -- -- -- -- -- -- --  -- -- -- -- -- -- -- --
0150:                                         53 F8 FF               S..
0160: FF 7F F8 FF FF 7F 65 68  6E 30 5E 69 64 6C 30 1C  ......ehn0^idl0.
0170: 01 80 00                                          ...             
```

#### Opcodes

```
  0: 0x015D [0x53] WAIT_SCHEDULER_TASK: Wait for scheduler "ehn0" with entities [EventEntity, EventEntity]
  1: 0x016A [0x5E] EventEntity goes idle (kills current action) (animation: "idl0")
  2: 0x016F [0x1C] WAIT(30* ticks)
  3: 0x0172 [0x00] END_REQSTACK()
```

### Event 65535.23

#### Metadata

| Field        | Value    |
|--------------|----------|
| Entrypoint   | 0x0173   |
| Data Size    | 16 bytes |
| Instructions | 2        |

```
      00 01 02 03 04 05 06 07  08 09 0A 0B 0C 0D 0E 0F
      -- -- -- -- -- -- -- --  -- -- -- -- -- -- -- --
0170:          66 03 80 F8 FF  FF 7F F8 FF FF 7F 65 68     f..........eh
0180: 6E 31 00                                          n1.             
```

#### Opcodes

```
  0: 0x0173 [0x66] LOAD_EXT_SCHEDULER_MAIN: Load scheduler "ehn1" with entities [EventEntity, EventEntity], work=41*
  1: 0x0182 [0x00] END_REQSTACK()
```

### Event 65535.24

#### Metadata

| Field        | Value    |
|--------------|----------|
| Entrypoint   | 0x0183   |
| Data Size    | 14 bytes |
| Instructions | 2        |

```
      00 01 02 03 04 05 06 07  08 09 0A 0B 0C 0D 0E 0F
      -- -- -- -- -- -- -- --  -- -- -- -- -- -- -- --
0180:          53 F8 FF FF 7F  F8 FF FF 7F 65 68 6E 31     S........ehn1
0190: 00                                                .               
```

#### Opcodes

```
  0: 0x0183 [0x53] WAIT_SCHEDULER_TASK: Wait for scheduler "ehn1" with entities [EventEntity, EventEntity]
  1: 0x0190 [0x00] END_REQSTACK()
```

### Event 65535.25

#### Metadata

| Field        | Value    |
|--------------|----------|
| Entrypoint   | 0x0191   |
| Data Size    | 16 bytes |
| Instructions | 2        |

```
      00 01 02 03 04 05 06 07  08 09 0A 0B 0C 0D 0E 0F
      -- -- -- -- -- -- -- --  -- -- -- -- -- -- -- --
0190:    66 00 80 F8 FF FF 7F  F8 FF FF 7F 67 6B 72 30   f..........gkr0
01A0: 00                                                .               
```

#### Opcodes

```
  0: 0x0191 [0x66] LOAD_EXT_SCHEDULER_MAIN: Load scheduler "gkr0" with entities [EventEntity, EventEntity], work=40*
  1: 0x01A0 [0x00] END_REQSTACK()
```

### Event 65535.26

#### Metadata

| Field        | Value    |
|--------------|----------|
| Entrypoint   | 0x01A1   |
| Data Size    | 22 bytes |
| Instructions | 4        |

```
      00 01 02 03 04 05 06 07  08 09 0A 0B 0C 0D 0E 0F
      -- -- -- -- -- -- -- --  -- -- -- -- -- -- -- --
01A0:    53 F8 FF FF 7F F8 FF  FF 7F 67 6B 72 30 5E 69   S........gkr0^i
01B0: 64 6C 30 1C 01 80 00                              dl0....         
```

#### Opcodes

```
  0: 0x01A1 [0x53] WAIT_SCHEDULER_TASK: Wait for scheduler "gkr0" with entities [EventEntity, EventEntity]
  1: 0x01AE [0x5E] EventEntity goes idle (kills current action) (animation: "idl0")
  2: 0x01B3 [0x1C] WAIT(30* ticks)
  3: 0x01B6 [0x00] END_REQSTACK()
```

### Event 65535.27

#### Metadata

| Field        | Value    |
|--------------|----------|
| Entrypoint   | 0x01B7   |
| Data Size    | 16 bytes |
| Instructions | 2        |

```
      00 01 02 03 04 05 06 07  08 09 0A 0B 0C 0D 0E 0F
      -- -- -- -- -- -- -- --  -- -- -- -- -- -- -- --
01B0:                      66  02 80 F8 FF FF 7F F8 FF         f........
01C0: FF 7F 6D 73 75 30 00                              ..msu0.         
```

#### Opcodes

```
  0: 0x01B7 [0x66] LOAD_EXT_SCHEDULER_MAIN: Load scheduler "msu0" with entities [EventEntity, EventEntity], work=42*
  1: 0x01C6 [0x00] END_REQSTACK()
```

### Event 65535.28

#### Metadata

| Field        | Value    |
|--------------|----------|
| Entrypoint   | 0x01C7   |
| Data Size    | 14 bytes |
| Instructions | 2        |

```
      00 01 02 03 04 05 06 07  08 09 0A 0B 0C 0D 0E 0F
      -- -- -- -- -- -- -- --  -- -- -- -- -- -- -- --
01C0:                      53  F8 FF FF 7F F8 FF FF 7F         S........
01D0: 6D 73 75 30 00                                    msu0.           
```

#### Opcodes

```
  0: 0x01C7 [0x53] WAIT_SCHEDULER_TASK: Wait for scheduler "msu0" with entities [EventEntity, EventEntity]
  1: 0x01D4 [0x00] END_REQSTACK()
```

### Event 65535.29

#### Metadata

| Field        | Value    |
|--------------|----------|
| Entrypoint   | 0x01D5   |
| Data Size    | 16 bytes |
| Instructions | 2        |

```
      00 01 02 03 04 05 06 07  08 09 0A 0B 0C 0D 0E 0F
      -- -- -- -- -- -- -- --  -- -- -- -- -- -- -- --
01D0:                66 02 80  F8 FF FF 7F F8 FF FF 7F       f..........
01E0: 6D 73 75 31 00                                    msu1.           
```

#### Opcodes

```
  0: 0x01D5 [0x66] LOAD_EXT_SCHEDULER_MAIN: Load scheduler "msu1" with entities [EventEntity, EventEntity], work=42*
  1: 0x01E4 [0x00] END_REQSTACK()
```

### Event 65535.30

#### Metadata

| Field        | Value    |
|--------------|----------|
| Entrypoint   | 0x01E5   |
| Data Size    | 22 bytes |
| Instructions | 4        |

```
      00 01 02 03 04 05 06 07  08 09 0A 0B 0C 0D 0E 0F
      -- -- -- -- -- -- -- --  -- -- -- -- -- -- -- --
01E0:                53 F8 FF  FF 7F F8 FF FF 7F 6D 73       S........ms
01F0: 75 31 5E 69 64 6C 30 1C  01 80 00                 u1^idl0....     
```

#### Opcodes

```
  0: 0x01E5 [0x53] WAIT_SCHEDULER_TASK: Wait for scheduler "msu1" with entities [EventEntity, EventEntity]
  1: 0x01F2 [0x5E] EventEntity goes idle (kills current action) (animation: "idl0")
  2: 0x01F7 [0x1C] WAIT(30* ticks)
  3: 0x01FA [0x00] END_REQSTACK()
```

### Event 65535.31

#### Metadata

| Field        | Value   |
|--------------|---------|
| Entrypoint   | 0x01FB  |
| Data Size    | 9 bytes |
| Instructions | 3       |

```
      00 01 02 03 04 05 06 07  08 09 0A 0B 0C 0D 0E 0F
      -- -- -- -- -- -- -- --  -- -- -- -- -- -- -- --
01F0:                                   5E 69 64 6C 30             ^idl0
0200: 1C 01 80 00                                       ....            
```

#### Opcodes

```
  0: 0x01FB [0x5E] EventEntity goes idle (kills current action) (animation: "idl0")
  1: 0x0200 [0x1C] WAIT(30* ticks)
  2: 0x0203 [0x00] END_REQSTACK()
```

### Event 56

#### Metadata

| Field        | Value    |
|--------------|----------|
| Entrypoint   | 0x0204   |
| Data Size    | 47 bytes |
| Instructions | 14       |

```
      00 01 02 03 04 05 06 07  08 09 0A 0B 0C 0D 0E 0F
      -- -- -- -- -- -- -- --  -- -- -- -- -- -- -- --
0200:             1E F0 FF FF  7F 6F 70 29 08 26 20 0F      .....op).& .
0210: 01 1B 1D 04 80 23 1D 05  80 23 29 08 26 20 0F 01  .....#...#).& ..
0220: 1C 29 08 26 20 0F 01 1D  29 08 26 20 0F 01 1E 20  .).& ...).& ... 
0230: 00 21 00                                          .!.             
```

#### Opcodes

```
  0: 0x0204 [0x1E] EventEntity looks at LocalPlayer and starts talking
  1: 0x0209 [0x6F] WAIT_FRAME_DELAY: Yield until WaitTime reaches zero
  2: 0x020A [0x70] WAIT_ENTITY_RENDER_FLAG: Wait while EventEntity->Render.Flags3 bit 2 is set (cancel turn if not)
  3: 0x020B [0x29] REQ_SET_WAIT(priority=0x08, entity_id=Zubaba (ID: 17768486/0x010F2026), tag_num=0x1B)
  4: 0x0212 [0x1D] PRINT_EVENT_MESSAGE(message_id=27*)
    → "What's this? Are you under the delusion that I, Zubaba, head lady-in-waiting, would let a slimy adventurer like you journey into our holy Planetarium!?"
  5: 0x0215 [0x23] WAIT_FOR_DIALOG_INTERACTION
  6: 0x0216 [0x1D] PRINT_EVENT_MESSAGE(message_id=28*)
    → "And talk to the Star Sibyl? Hah! I've never heard of anything so absurd! The personage with whom you seek audience is the Dawn Goddess Reincarnate, you impertinent scally-wally-wag!"
  7: 0x0219 [0x23] WAIT_FOR_DIALOG_INTERACTION
  8: 0x021A [0x29] REQ_SET_WAIT(priority=0x08, entity_id=Zubaba (ID: 17768486/0x010F2026), tag_num=0x1C)
  9: 0x0221 [0x29] REQ_SET_WAIT(priority=0x08, entity_id=Zubaba (ID: 17768486/0x010F2026), tag_num=0x1D)
 10: 0x0228 [0x29] REQ_SET_WAIT(priority=0x08, entity_id=Zubaba (ID: 17768486/0x010F2026), tag_num=0x1E)
 11: 0x022F [0x20] SET_CLI_EVENT_UC_FLAG: Unlock player control
 12: 0x0231 [0x21] END_EVENT
 13: 0x0232 [0x00] END_REQSTACK()
```

### Event 157

#### Metadata

| Field        | Value    |
|--------------|----------|
| Entrypoint   | 0x0233   |
| Data Size    | 47 bytes |
| Instructions | 14       |

```
      00 01 02 03 04 05 06 07  08 09 0A 0B 0C 0D 0E 0F
      -- -- -- -- -- -- -- --  -- -- -- -- -- -- -- --
0230:          1E F0 FF FF 7F  6F 70 29 08 26 20 0F 01     .....op).& ..
0240: 1B 1D 06 80 23 1D 07 80  23 29 08 26 20 0F 01 1C  ....#...#).& ...
0250: 29 08 26 20 0F 01 1D 29  08 26 20 0F 01 1E 20 00  ).& ...).& ... .
0260: 21 00                                             !.              
```

#### Opcodes

```
  0: 0x0233 [0x1E] EventEntity looks at LocalPlayer and starts talking
  1: 0x0238 [0x6F] WAIT_FRAME_DELAY: Yield until WaitTime reaches zero
  2: 0x0239 [0x70] WAIT_ENTITY_RENDER_FLAG: Wait while EventEntity->Render.Flags3 bit 2 is set (cancel turn if not)
  3: 0x023A [0x29] REQ_SET_WAIT(priority=0x08, entity_id=Zubaba (ID: 17768486/0x010F2026), tag_num=0x1B)
  4: 0x0241 [0x1D] PRINT_EVENT_MESSAGE(message_id=314*)
    → "To think that the Star Sibyl would want to see a slimy-grimy adventurer! Have all my lessons in proper etiquette been in vain?"
  5: 0x0244 [0x23] WAIT_FOR_DIALOG_INTERACTION
  6: 0x0245 [0x1D] PRINT_EVENT_MESSAGE(message_id=315*)
    → "If you are entertaining even the slightest thought of beguiling our divine Lady, heads will roll, do you hear me!"
  7: 0x0248 [0x23] WAIT_FOR_DIALOG_INTERACTION
  8: 0x0249 [0x29] REQ_SET_WAIT(priority=0x08, entity_id=Zubaba (ID: 17768486/0x010F2026), tag_num=0x1C)
  9: 0x0250 [0x29] REQ_SET_WAIT(priority=0x08, entity_id=Zubaba (ID: 17768486/0x010F2026), tag_num=0x1D)
 10: 0x0257 [0x29] REQ_SET_WAIT(priority=0x08, entity_id=Zubaba (ID: 17768486/0x010F2026), tag_num=0x1E)
 11: 0x025E [0x20] SET_CLI_EVENT_UC_FLAG: Unlock player control
 12: 0x0260 [0x21] END_EVENT
 13: 0x0261 [0x00] END_REQSTACK()
```

### Event 121

#### Metadata

| Field        | Value   |
|--------------|---------|
| Entrypoint   | 0x0262  |
| Data Size    | 1 bytes |
| Instructions | 1       |

```
      00 01 02 03 04 05 06 07  08 09 0A 0B 0C 0D 0E 0F
      -- -- -- -- -- -- -- --  -- -- -- -- -- -- -- --
0260:       00                                            .             
```

#### Opcodes

```
  0: 0x0262 [0x00] END_REQSTACK()
```

### Event 65535.32

#### Metadata

| Field        | Value    |
|--------------|----------|
| Entrypoint   | 0x0263   |
| Data Size    | 10 bytes |
| Instructions | 2        |

```
      00 01 02 03 04 05 06 07  08 09 0A 0B 0C 0D 0E 0F
      -- -- -- -- -- -- -- --  -- -- -- -- -- -- -- --
0260:          37 08 80 09 80  0A 80 0B 80 00              7.........   
```

#### Opcodes

```
  0: 0x0263 [0x37] UPDATE_EVENT_POSITION_AND_DIR: x=15.632*, z=18.244*, y=-26.250*, direction=125.6°*
  1: 0x026C [0x00] END_REQSTACK()
```

### Event 65535.33

#### Metadata

| Field        | Value    |
|--------------|----------|
| Entrypoint   | 0x026D   |
| Data Size    | 15 bytes |
| Instructions | 5        |

```
      00 01 02 03 04 05 06 07  08 09 0A 0B 0C 0D 0E 0F
      -- -- -- -- -- -- -- --  -- -- -- -- -- -- -- --
0260:                                         32 0C 80               2..
0270: 1F 00 0D 80 0E 80 0A 80  1F 01 6F 00              ..........o.    
```

#### Opcodes

```
  0: 0x026D [0x32] ExtData[1]->MainSpeed = 13* * 0.1
  1: 0x0270 [0x1F] MOVE_ENTITY: EventEntity moves to X=14.898*, Z=20.353*, Y=-26.250*
  2: 0x0278 [0x1F] MOVE_ENTITY: Update entity position (mode=1)
  3: 0x027A [0x6F] WAIT_FRAME_DELAY: Yield until WaitTime reaches zero
  4: 0x027B [0x00] END_REQSTACK()
```

### Event 65535.34

#### Metadata

| Field        | Value    |
|--------------|----------|
| Entrypoint   | 0x027C   |
| Data Size    | 15 bytes |
| Instructions | 5        |

```
      00 01 02 03 04 05 06 07  08 09 0A 0B 0C 0D 0E 0F
      -- -- -- -- -- -- -- --  -- -- -- -- -- -- -- --
0270:                                      32 0C 80 1F              2...
0280: 00 0F 80 10 80 0A 80 1F  01 6F 00                 .........o.     
```

#### Opcodes

```
  0: 0x027C [0x32] ExtData[1]->MainSpeed = 13* * 0.1
  1: 0x027F [0x1F] MOVE_ENTITY: EventEntity moves to X=17.169*, Z=16.109*, Y=-26.250*
  2: 0x0287 [0x1F] MOVE_ENTITY: Update entity position (mode=1)
  3: 0x0289 [0x6F] WAIT_FRAME_DELAY: Yield until WaitTime reaches zero
  4: 0x028A [0x00] END_REQSTACK()
```

### Event 65535.35

#### Metadata

| Field        | Value    |
|--------------|----------|
| Entrypoint   | 0x028B   |
| Data Size    | 31 bytes |
| Instructions | 7        |

```
      00 01 02 03 04 05 06 07  08 09 0A 0B 0C 0D 0E 0F
      -- -- -- -- -- -- -- --  -- -- -- -- -- -- -- --
0280:                                   1F 00 11 80 12             .....
0290: 80 0A 80 1F 01 1F 00 13  80 14 80 0A 80 1F 01 6F  ...............o
02A0: 4A 26 20 0F 01 F0 FF FF  7F 00                    J& .......      
```

#### Opcodes

```
  0: 0x028B [0x1F] MOVE_ENTITY: EventEntity moves to X=14.690*, Z=14.376*, Y=-26.250*
  1: 0x0293 [0x1F] MOVE_ENTITY: Update entity position (mode=1)
  2: 0x0295 [0x1F] MOVE_ENTITY: EventEntity moves to X=13.394*, Z=14.560*, Y=-26.250*
  3: 0x029D [0x1F] MOVE_ENTITY: Update entity position (mode=1)
  4: 0x029F [0x6F] WAIT_FRAME_DELAY: Yield until WaitTime reaches zero
  5: 0x02A0 [0x4A] Zubaba (ID: 17768486/0x010F2026) looks at LocalPlayer
  6: 0x02A9 [0x00] END_REQSTACK()
```

### Event 65535.36

#### Metadata

| Field        | Value    |
|--------------|----------|
| Entrypoint   | 0x02AA   |
| Data Size    | 15 bytes |
| Instructions | 5        |

```
      00 01 02 03 04 05 06 07  08 09 0A 0B 0C 0D 0E 0F
      -- -- -- -- -- -- -- --  -- -- -- -- -- -- -- --
02A0:                                32 0C 80 1F 00 15            2.....
02B0: 80 16 80 0A 80 1F 01 6F  00                       .......o.       
```

#### Opcodes

```
  0: 0x02AA [0x32] ExtData[1]->MainSpeed = 13* * 0.1
  1: 0x02AD [0x1F] MOVE_ENTITY: EventEntity moves to X=14.718*, Z=14.306*, Y=-26.250*
  2: 0x02B5 [0x1F] MOVE_ENTITY: Update entity position (mode=1)
  3: 0x02B7 [0x6F] WAIT_FRAME_DELAY: Yield until WaitTime reaches zero
  4: 0x02B8 [0x00] END_REQSTACK()
```

### Event 65535.37

#### Metadata

| Field        | Value    |
|--------------|----------|
| Entrypoint   | 0x02B9   |
| Data Size    | 19 bytes |
| Instructions | 5        |

```
      00 01 02 03 04 05 06 07  08 09 0A 0B 0C 0D 0E 0F
      -- -- -- -- -- -- -- --  -- -- -- -- -- -- -- --
02B0:                             29 08 26 20 0F 01 13           ).& ...
02C0: 1D 17 80 23 29 08 26 20  0F 01 14 00              ...#).& ....    
```

#### Opcodes

```
  0: 0x02B9 [0x29] REQ_SET_WAIT(priority=0x08, entity_id=Zubaba (ID: 17768486/0x010F2026), tag_num=0x13)
  1: 0x02C0 [0x1D] PRINT_EVENT_MESSAGE(message_id=213*)
    → "You're la`te! Late late late late late!"
  2: 0x02C3 [0x23] WAIT_FOR_DIALOG_INTERACTION
  3: 0x02C4 [0x29] REQ_SET_WAIT(priority=0x08, entity_id=Zubaba (ID: 17768486/0x010F2026), tag_num=0x14)
  4: 0x02CB [0x00] END_REQSTACK()
```

### Event 65535.38

#### Metadata

| Field        | Value    |
|--------------|----------|
| Entrypoint   | 0x02CC   |
| Data Size    | 19 bytes |
| Instructions | 5        |

```
      00 01 02 03 04 05 06 07  08 09 0A 0B 0C 0D 0E 0F
      -- -- -- -- -- -- -- --  -- -- -- -- -- -- -- --
02C0:                                      29 08 26 20              ).& 
02D0: 0F 01 07 1D 18 80 23 29  08 26 20 0F 01 08 00     ......#).& .... 
```

#### Opcodes

```
  0: 0x02CC [0x29] REQ_SET_WAIT(priority=0x08, entity_id=Zubaba (ID: 17768486/0x010F2026), tag_num=0x07)
  1: 0x02D3 [0x1D] PRINT_EVENT_MESSAGE(message_id=214*)
    → "You pathetic adventurers are never-ever on time!"
  2: 0x02D6 [0x23] WAIT_FOR_DIALOG_INTERACTION
  3: 0x02D7 [0x29] REQ_SET_WAIT(priority=0x08, entity_id=Zubaba (ID: 17768486/0x010F2026), tag_num=0x08)
  4: 0x02DE [0x00] END_REQSTACK()
```

### Event 65535.39

#### Metadata

| Field        | Value    |
|--------------|----------|
| Entrypoint   | 0x02DF   |
| Data Size    | 51 bytes |
| Instructions | 11       |

```
      00 01 02 03 04 05 06 07  08 09 0A 0B 0C 0D 0E 0F
      -- -- -- -- -- -- -- --  -- -- -- -- -- -- -- --
02D0:                                               29                 )
02E0: 08 26 20 0F 01 0B 1D 19  80 23 29 08 26 20 0F 01  .& ......#).& ..
02F0: 0C 29 08 26 20 0F 01 1B  1D 1A 80 23 29 08 26 20  .).& ......#).& 
0300: 0F 01 1C 29 08 26 20 0F  01 1D 29 08 26 20 0F 01  ...).& ...).& ..
0310: 1E 00                                             ..              
```

#### Opcodes

```
  0: 0x02DF [0x29] REQ_SET_WAIT(priority=0x08, entity_id=Zubaba (ID: 17768486/0x010F2026), tag_num=0x0B)
  1: 0x02E6 [0x1D] PRINT_EVENT_MESSAGE(message_id=215*)
    → "You think that being late affects only you, my dear? Did you ever think of those who have to wait for you? Hmm?"
  2: 0x02E9 [0x23] WAIT_FOR_DIALOG_INTERACTION
  3: 0x02EA [0x29] REQ_SET_WAIT(priority=0x08, entity_id=Zubaba (ID: 17768486/0x010F2026), tag_num=0x0C)
  4: 0x02F1 [0x29] REQ_SET_WAIT(priority=0x08, entity_id=Zubaba (ID: 17768486/0x010F2026), tag_num=0x1B)
  5: 0x02F8 [0x1D] PRINT_EVENT_MESSAGE(message_id=216*)
    → "And what of the people who have to wait for the people who are waiting for you? You see, your lack of punctuality creates problems for all of Vana'diel!"
  6: 0x02FB [0x23] WAIT_FOR_DIALOG_INTERACTION
  7: 0x02FC [0x29] REQ_SET_WAIT(priority=0x08, entity_id=Zubaba (ID: 17768486/0x010F2026), tag_num=0x1C)
  8: 0x0303 [0x29] REQ_SET_WAIT(priority=0x08, entity_id=Zubaba (ID: 17768486/0x010F2026), tag_num=0x1D)
  9: 0x030A [0x29] REQ_SET_WAIT(priority=0x08, entity_id=Zubaba (ID: 17768486/0x010F2026), tag_num=0x1E)
 10: 0x0311 [0x00] END_REQSTACK()
```

### Event 65535.40

#### Metadata

| Field        | Value    |
|--------------|----------|
| Entrypoint   | 0x0312   |
| Data Size    | 19 bytes |
| Instructions | 5        |

```
      00 01 02 03 04 05 06 07  08 09 0A 0B 0C 0D 0E 0F
      -- -- -- -- -- -- -- --  -- -- -- -- -- -- -- --
0310:       29 08 26 20 0F 01  01 1D 1B 80 23 29 08 26    ).& ......#).&
0320: 20 0F 01 02 00                                     ....           
```

#### Opcodes

```
  0: 0x0312 [0x29] REQ_SET_WAIT(priority=0x08, entity_id=Zubaba (ID: 17768486/0x010F2026), tag_num=0x01)
  1: 0x0319 [0x1D] PRINT_EVENT_MESSAGE(message_id=217*)
    → "Are you paying attention, young [man/lady]? Very well. Let me tell you why I have summoned you here."
  2: 0x031C [0x23] WAIT_FOR_DIALOG_INTERACTION
  3: 0x031D [0x29] REQ_SET_WAIT(priority=0x08, entity_id=Zubaba (ID: 17768486/0x010F2026), tag_num=0x02)
  4: 0x0324 [0x00] END_REQSTACK()
```

### Event 65535.41

#### Metadata

| Field        | Value    |
|--------------|----------|
| Entrypoint   | 0x0325   |
| Data Size    | 37 bytes |
| Instructions | 9        |

```
      00 01 02 03 04 05 06 07  08 09 0A 0B 0C 0D 0E 0F
      -- -- -- -- -- -- -- --  -- -- -- -- -- -- -- --
0320:                29 08 26  20 0F 01 03 1D 1C 80 23       ).& ......#
0330: 29 08 26 20 0F 01 04 29  08 26 20 0F 01 05 1D 1D  ).& ...).& .....
0340: 80 23 29 08 26 20 0F 01  06 00                    .#).& ....      
```

#### Opcodes

```
  0: 0x0325 [0x29] REQ_SET_WAIT(priority=0x08, entity_id=Zubaba (ID: 17768486/0x010F2026), tag_num=0x03)
  1: 0x032C [0x1D] PRINT_EVENT_MESSAGE(message_id=218*)
    → "I have heard of your exploits from the young lady in the Clerical Chamber."
  2: 0x032F [0x23] WAIT_FOR_DIALOG_INTERACTION
  3: 0x0330 [0x29] REQ_SET_WAIT(priority=0x08, entity_id=Zubaba (ID: 17768486/0x010F2026), tag_num=0x04)
  4: 0x0337 [0x29] REQ_SET_WAIT(priority=0x08, entity_id=Zubaba (ID: 17768486/0x010F2026), tag_num=0x05)
  5: 0x033E [0x1D] PRINT_EVENT_MESSAGE(message_id=219*)
    → "What we ladies-in-waiting need right now is an adventurer of good standing."
  6: 0x0341 [0x23] WAIT_FOR_DIALOG_INTERACTION
  7: 0x0342 [0x29] REQ_SET_WAIT(priority=0x08, entity_id=Zubaba (ID: 17768486/0x010F2026), tag_num=0x06)
  8: 0x0349 [0x00] END_REQSTACK()
```

### Event 65535.42

#### Metadata

| Field        | Value   |
|--------------|---------|
| Entrypoint   | 0x034A  |
| Data Size    | 5 bytes |
| Instructions | 3       |

```
      00 01 02 03 04 05 06 07  08 09 0A 0B 0C 0D 0E 0F
      -- -- -- -- -- -- -- --  -- -- -- -- -- -- -- --
0340:                                1D 1E 80 23 00               ...#. 
```

#### Opcodes

```
  0: 0x034A [0x1D] PRINT_EVENT_MESSAGE(message_id=220*)
    → "... Let us retire to a place where we may converse in private."
  1: 0x034D [0x23] WAIT_FOR_DIALOG_INTERACTION
  2: 0x034E [0x00] END_REQSTACK()
```

### Event 65535.43

#### Metadata

| Field        | Value   |
|--------------|---------|
| Entrypoint   | 0x034F  |
| Data Size    | 5 bytes |
| Instructions | 3       |

```
      00 01 02 03 04 05 06 07  08 09 0A 0B 0C 0D 0E 0F
      -- -- -- -- -- -- -- --  -- -- -- -- -- -- -- --
0340:                                               1D                 .
0350: 1F 80 23 00                                       ..#.            
```

#### Opcodes

```
  0: 0x034F [0x1D] PRINT_EVENT_MESSAGE(message_id=221*)
    → "My request concerns...the Star Sibyl."
  1: 0x0352 [0x23] WAIT_FOR_DIALOG_INTERACTION
  2: 0x0353 [0x00] END_REQSTACK()
```

### Event 65535.44

#### Metadata

| Field        | Value   |
|--------------|---------|
| Entrypoint   | 0x0354  |
| Data Size    | 9 bytes |
| Instructions | 5       |

```
      00 01 02 03 04 05 06 07  08 09 0A 0B 0C 0D 0E 0F
      -- -- -- -- -- -- -- --  -- -- -- -- -- -- -- --
0350:             1D 20 80 23  1D 21 80 23 00               . .#.!.#.   
```

#### Opcodes

```
  0: 0x0354 [0x1D] PRINT_EVENT_MESSAGE(message_id=222*)
    → "From generation to generation to generation to generation, the Star Sibyls inherit a mysterious ability to read the future from the stars that appear in the Star Spring."
  1: 0x0357 [0x23] WAIT_FOR_DIALOG_INTERACTION
  2: 0x0358 [0x1D] PRINT_EVENT_MESSAGE(message_id=223*)
    → "The first time that a new Star Sibyl uses this power is during her inauguration on a day we call the Starway Solstice."
  3: 0x035B [0x23] WAIT_FOR_DIALOG_INTERACTION
  4: 0x035C [0x00] END_REQSTACK()
```

### Event 65535.45

#### Metadata

| Field        | Value   |
|--------------|---------|
| Entrypoint   | 0x035D  |
| Data Size    | 5 bytes |
| Instructions | 3       |

```
      00 01 02 03 04 05 06 07  08 09 0A 0B 0C 0D 0E 0F
      -- -- -- -- -- -- -- --  -- -- -- -- -- -- -- --
0350:                                         1D 22 80               .".
0360: 23 00                                             #.              
```

#### Opcodes

```
  0: 0x035D [0x1D] PRINT_EVENT_MESSAGE(message_id=224*)
    → "But during the Star Reading ceremony on her inauguration, the Sibyl learned of a terrible calamity that would befall all Windurst."
  1: 0x0360 [0x23] WAIT_FOR_DIALOG_INTERACTION
  2: 0x0361 [0x00] END_REQSTACK()
```

### Event 65535.46

#### Metadata

| Field        | Value    |
|--------------|----------|
| Entrypoint   | 0x0362   |
| Data Size    | 23 bytes |
| Instructions | 7        |

```
      00 01 02 03 04 05 06 07  08 09 0A 0B 0C 0D 0E 0F
      -- -- -- -- -- -- -- --  -- -- -- -- -- -- -- --
0360:       29 08 26 20 0F 01  01 1D 23 80 23 1D 24 80    ).& ....#.#.$.
0370: 23 29 08 26 20 0F 01 02  00                       #).& ....       
```

#### Opcodes

```
  0: 0x0362 [0x29] REQ_SET_WAIT(priority=0x08, entity_id=Zubaba (ID: 17768486/0x010F2026), tag_num=0x01)
  1: 0x0369 [0x1D] PRINT_EVENT_MESSAGE(message_id=225*)
    → "You are aware of the Great War that occurred twenty-wenty years ago, are you not?"
  2: 0x036C [0x23] WAIT_FOR_DIALOG_INTERACTION
  3: 0x036D [0x1D] PRINT_EVENT_MESSAGE(message_id=226*)
    → "The Star Sibyl had a vision of the war before it began."
  4: 0x0370 [0x23] WAIT_FOR_DIALOG_INTERACTION
  5: 0x0371 [0x29] REQ_SET_WAIT(priority=0x08, entity_id=Zubaba (ID: 17768486/0x010F2026), tag_num=0x02)
  6: 0x0378 [0x00] END_REQSTACK()
```

### Event 65535.47

#### Metadata

| Field        | Value    |
|--------------|----------|
| Entrypoint   | 0x0379   |
| Data Size    | 23 bytes |
| Instructions | 7        |

```
      00 01 02 03 04 05 06 07  08 09 0A 0B 0C 0D 0E 0F
      -- -- -- -- -- -- -- --  -- -- -- -- -- -- -- --
0370:                             29 08 26 20 0F 01 01           ).& ...
0380: 1D 25 80 23 1D 26 80 23  29 08 26 20 0F 01 02 00  .%.#.&.#).& ....
```

#### Opcodes

```
  0: 0x0379 [0x29] REQ_SET_WAIT(priority=0x08, entity_id=Zubaba (ID: 17768486/0x010F2026), tag_num=0x01)
  1: 0x0380 [0x1D] PRINT_EVENT_MESSAGE(message_id=227*)
    → "She collapsed after beholding that vision, and remained speechless, shivering in her bed, for days."
  2: 0x0383 [0x23] WAIT_FOR_DIALOG_INTERACTION
  3: 0x0384 [0x1D] PRINT_EVENT_MESSAGE(message_id=228*)
    → "All we ladies-in-waiting could do was kneel by her side and pray for her quick-wick recovery."
  4: 0x0387 [0x23] WAIT_FOR_DIALOG_INTERACTION
  5: 0x0388 [0x29] REQ_SET_WAIT(priority=0x08, entity_id=Zubaba (ID: 17768486/0x010F2026), tag_num=0x02)
  6: 0x038F [0x00] END_REQSTACK()
```

### Event 65535.48

#### Metadata

| Field        | Value    |
|--------------|----------|
| Entrypoint   | 0x0390   |
| Data Size    | 19 bytes |
| Instructions | 5        |

```
      00 01 02 03 04 05 06 07  08 09 0A 0B 0C 0D 0E 0F
      -- -- -- -- -- -- -- --  -- -- -- -- -- -- -- --
0390: 29 08 26 20 0F 01 13 1D  27 80 23 29 08 26 20 0F  ).& ....'.#).& .
03A0: 01 14 00                                          ...             
```

#### Opcodes

```
  0: 0x0390 [0x29] REQ_SET_WAIT(priority=0x08, entity_id=Zubaba (ID: 17768486/0x010F2026), tag_num=0x13)
  1: 0x0397 [0x1D] PRINT_EVENT_MESSAGE(message_id=229*)
    → "...And now history is repeating itself."
  2: 0x039A [0x23] WAIT_FOR_DIALOG_INTERACTION
  3: 0x039B [0x29] REQ_SET_WAIT(priority=0x08, entity_id=Zubaba (ID: 17768486/0x010F2026), tag_num=0x14)
  4: 0x03A2 [0x00] END_REQSTACK()
```

### Event 65535.49

#### Metadata

| Field        | Value    |
|--------------|----------|
| Entrypoint   | 0x03A3   |
| Data Size    | 19 bytes |
| Instructions | 5        |

```
      00 01 02 03 04 05 06 07  08 09 0A 0B 0C 0D 0E 0F
      -- -- -- -- -- -- -- --  -- -- -- -- -- -- -- --
03A0:          29 08 26 20 0F  01 01 1D 28 80 23 29 08     ).& ....(.#).
03B0: 26 20 0F 01 02 00                                 & ....          
```

#### Opcodes

```
  0: 0x03A3 [0x29] REQ_SET_WAIT(priority=0x08, entity_id=Zubaba (ID: 17768486/0x010F2026), tag_num=0x01)
  1: 0x03AA [0x1D] PRINT_EVENT_MESSAGE(message_id=230*)
    → "Ever since Ajido-Marujido brought that blank copy of the Book of the Gods here, the Star Sibyl has been gazing into the Star Spring every night. And then last night..."
  2: 0x03AD [0x23] WAIT_FOR_DIALOG_INTERACTION
  3: 0x03AE [0x29] REQ_SET_WAIT(priority=0x08, entity_id=Zubaba (ID: 17768486/0x010F2026), tag_num=0x02)
  4: 0x03B5 [0x00] END_REQSTACK()
```

### Event 65535.50

#### Metadata

| Field        | Value    |
|--------------|----------|
| Entrypoint   | 0x03B6   |
| Data Size    | 12 bytes |
| Instructions | 4        |

```
      00 01 02 03 04 05 06 07  08 09 0A 0B 0C 0D 0E 0F
      -- -- -- -- -- -- -- --  -- -- -- -- -- -- -- --
03B0:                   29 08  26 20 0F 01 19 1D 29 80        ).& ....).
03C0: 23 00                                             #.              
```

#### Opcodes

```
  0: 0x03B6 [0x29] REQ_SET_WAIT(priority=0x08, entity_id=Zubaba (ID: 17768486/0x010F2026), tag_num=0x19)
  1: 0x03BD [0x1D] PRINT_EVENT_MESSAGE(message_id=231*)
    → "She collapsed, just as she did twenty years ago! Oh, what did the Star Sibyl do to deserve this?"
  2: 0x03C0 [0x23] WAIT_FOR_DIALOG_INTERACTION
  3: 0x03C1 [0x00] END_REQSTACK()
```

### Event 65535.51

#### Metadata

| Field        | Value    |
|--------------|----------|
| Entrypoint   | 0x03C2   |
| Data Size    | 30 bytes |
| Instructions | 8        |

```
      00 01 02 03 04 05 06 07  08 09 0A 0B 0C 0D 0E 0F
      -- -- -- -- -- -- -- --  -- -- -- -- -- -- -- --
03C0:       29 08 26 20 0F 01  1A 29 08 26 20 0F 01 03    ).& ...).& ...
03D0: 1D 2A 80 23 29 08 26 20  0F 01 05 1D 2B 80 23 00  .*.#).& ....+.#.
```

#### Opcodes

```
  0: 0x03C2 [0x29] REQ_SET_WAIT(priority=0x08, entity_id=Zubaba (ID: 17768486/0x010F2026), tag_num=0x1A)
  1: 0x03C9 [0x29] REQ_SET_WAIT(priority=0x08, entity_id=Zubaba (ID: 17768486/0x010F2026), tag_num=0x03)
  2: 0x03D0 [0x1D] PRINT_EVENT_MESSAGE(message_id=232*)
    → "However, before she collapsed, she received some sort of sign from the stars."
  3: 0x03D3 [0x23] WAIT_FOR_DIALOG_INTERACTION
  4: 0x03D4 [0x29] REQ_SET_WAIT(priority=0x08, entity_id=Zubaba (ID: 17768486/0x010F2026), tag_num=0x05)
  5: 0x03DB [0x1D] PRINT_EVENT_MESSAGE(message_id=233*)
    → "It was a sign that revealed that something malevolent is stirring in the central tower of the Horutoto Ruins."
  6: 0x03DE [0x23] WAIT_FOR_DIALOG_INTERACTION
  7: 0x03DF [0x00] END_REQSTACK()
```

### Event 65535.52

#### Metadata

| Field        | Value    |
|--------------|----------|
| Entrypoint   | 0x03E0   |
| Data Size    | 19 bytes |
| Instructions | 5        |

```
      00 01 02 03 04 05 06 07  08 09 0A 0B 0C 0D 0E 0F
      -- -- -- -- -- -- -- --  -- -- -- -- -- -- -- --
03E0: 29 08 26 20 0F 01 01 1D  2C 80 23 29 08 26 20 0F  ).& ....,.#).& .
03F0: 01 02 00                                          ...             
```

#### Opcodes

```
  0: 0x03E0 [0x29] REQ_SET_WAIT(priority=0x08, entity_id=Zubaba (ID: 17768486/0x010F2026), tag_num=0x01)
  1: 0x03E7 [0x1D] PRINT_EVENT_MESSAGE(message_id=234*)
    → "The same central tower that has been sealed since the end of the Great War."
  2: 0x03EA [0x23] WAIT_FOR_DIALOG_INTERACTION
  3: 0x03EB [0x29] REQ_SET_WAIT(priority=0x08, entity_id=Zubaba (ID: 17768486/0x010F2026), tag_num=0x02)
  4: 0x03F2 [0x00] END_REQSTACK()
```

### Event 65535.53

#### Metadata

| Field        | Value    |
|--------------|----------|
| Entrypoint   | 0x03F3   |
| Data Size    | 19 bytes |
| Instructions | 5        |

```
      00 01 02 03 04 05 06 07  08 09 0A 0B 0C 0D 0E 0F
      -- -- -- -- -- -- -- --  -- -- -- -- -- -- -- --
03F0:          29 08 26 20 0F  01 01 1D 2D 80 23 29 08     ).& ....-.#).
0400: 26 20 0F 01 02 00                                 & ....          
```

#### Opcodes

```
  0: 0x03F3 [0x29] REQ_SET_WAIT(priority=0x08, entity_id=Zubaba (ID: 17768486/0x010F2026), tag_num=0x01)
  1: 0x03FA [0x1D] PRINT_EVENT_MESSAGE(message_id=235*)
    → "What is down there, you ask? Well, part of the talisman that seals Castle Zvahl, and..."
  2: 0x03FD [0x23] WAIT_FOR_DIALOG_INTERACTION
  3: 0x03FE [0x29] REQ_SET_WAIT(priority=0x08, entity_id=Zubaba (ID: 17768486/0x010F2026), tag_num=0x02)
  4: 0x0405 [0x00] END_REQSTACK()
```

### Event 65535.54

#### Metadata

| Field        | Value    |
|--------------|----------|
| Entrypoint   | 0x0406   |
| Data Size    | 23 bytes |
| Instructions | 7        |

```
      00 01 02 03 04 05 06 07  08 09 0A 0B 0C 0D 0E 0F
      -- -- -- -- -- -- -- --  -- -- -- -- -- -- -- --
0400:                   29 08  26 20 0F 01 0D 1D 2E 80        ).& ......
0410: 23 29 08 26 20 0F 01 0E  1D 2F 80 23 00           #).& ..../.#.   
```

#### Opcodes

```
  0: 0x0406 [0x29] REQ_SET_WAIT(priority=0x08, entity_id=Zubaba (ID: 17768486/0x010F2026), tag_num=0x0D)
  1: 0x040D [0x1D] PRINT_EVENT_MESSAGE(message_id=237*)
    → "Hold out your hand. This is a charm that will allow you to enter that room."
  2: 0x0410 [0x23] WAIT_FOR_DIALOG_INTERACTION
  3: 0x0411 [0x29] REQ_SET_WAIT(priority=0x08, entity_id=Zubaba (ID: 17768486/0x010F2026), tag_num=0x0E)
  4: 0x0418 [0x1D] PRINT_EVENT_MESSAGE(message_id=238*)
    → "Keep it safe, for this charm is exceedingly important. If it were to fall into the wrong hands..."
  5: 0x041B [0x23] WAIT_FOR_DIALOG_INTERACTION
  6: 0x041C [0x00] END_REQSTACK()
```

### Event 65535.55

#### Metadata

| Field        | Value   |
|--------------|---------|
| Entrypoint   | 0x041D  |
| Data Size    | 5 bytes |
| Instructions | 3       |

```
      00 01 02 03 04 05 06 07  08 09 0A 0B 0C 0D 0E 0F
      -- -- -- -- -- -- -- --  -- -- -- -- -- -- -- --
0410:                                         1D 30 80               .0.
0420: 23 00                                             #.              
```

#### Opcodes

```
  0: 0x041D [0x1D] PRINT_EVENT_MESSAGE(message_id=239*)
    → "Now, be off with you. The sooner you come back with good news, the sooner the Star Sibyl will recover."
  1: 0x0420 [0x23] WAIT_FOR_DIALOG_INTERACTION
  2: 0x0421 [0x00] END_REQSTACK()
```

### Event 257

#### Metadata

| Field        | Value   |
|--------------|---------|
| Entrypoint   | 0x0422  |
| Data Size    | 1 bytes |
| Instructions | 1       |

```
      00 01 02 03 04 05 06 07  08 09 0A 0B 0C 0D 0E 0F
      -- -- -- -- -- -- -- --  -- -- -- -- -- -- -- --
0420:       00                                            .             
```

#### Opcodes

```
  0: 0x0422 [0x00] END_REQSTACK()
```

### Event 122

#### Metadata

| Field        | Value    |
|--------------|----------|
| Entrypoint   | 0x0423   |
| Data Size    | 33 bytes |
| Instructions | 12       |

```
      00 01 02 03 04 05 06 07  08 09 0A 0B 0C 0D 0E 0F
      -- -- -- -- -- -- -- --  -- -- -- -- -- -- -- --
0420:          1E F0 FF FF 7F  6F 70 29 08 26 20 0F 01     .....op).& ..
0430: 01 1D 31 80 23 1D 32 80  23 29 08 26 20 0F 01 02  ..1.#.2.#).& ...
0440: 20 00 21 00                                        .!.            
```

#### Opcodes

```
  0: 0x0423 [0x1E] EventEntity looks at LocalPlayer and starts talking
  1: 0x0428 [0x6F] WAIT_FRAME_DELAY: Yield until WaitTime reaches zero
  2: 0x0429 [0x70] WAIT_ENTITY_RENDER_FLAG: Wait while EventEntity->Render.Flags3 bit 2 is set (cancel turn if not)
  3: 0x042A [0x29] REQ_SET_WAIT(priority=0x08, entity_id=Zubaba (ID: 17768486/0x010F2026), tag_num=0x01)
  4: 0x0431 [0x1D] PRINT_EVENT_MESSAGE(message_id=242*)
    → "I would like you to travel to the central tower of the Horutoto Ruins and check up on the safety of the talisman that seals Castle Zvahl."
  5: 0x0434 [0x23] WAIT_FOR_DIALOG_INTERACTION
  6: 0x0435 [0x1D] PRINT_EVENT_MESSAGE(message_id=243*)
    → "That talisman is one of three used by Windurst, Bastok, and San d'Oria to prevent the Shadow Lord from ever returning. If anything has happened to it..."
  7: 0x0438 [0x23] WAIT_FOR_DIALOG_INTERACTION
  8: 0x0439 [0x29] REQ_SET_WAIT(priority=0x08, entity_id=Zubaba (ID: 17768486/0x010F2026), tag_num=0x02)
  9: 0x0440 [0x20] SET_CLI_EVENT_UC_FLAG: Unlock player control
 10: 0x0442 [0x21] END_EVENT
 11: 0x0443 [0x00] END_REQSTACK()
```

### Event 135

#### Metadata

| Field        | Value   |
|--------------|---------|
| Entrypoint   | 0x0444  |
| Data Size    | 1 bytes |
| Instructions | 1       |

```
      00 01 02 03 04 05 06 07  08 09 0A 0B 0C 0D 0E 0F
      -- -- -- -- -- -- -- --  -- -- -- -- -- -- -- --
0440:             00                                        .           
```

#### Opcodes

```
  0: 0x0444 [0x00] END_REQSTACK()
```

### Event 65535.56

#### Metadata

| Field        | Value    |
|--------------|----------|
| Entrypoint   | 0x0445   |
| Data Size    | 19 bytes |
| Instructions | 5        |

```
      00 01 02 03 04 05 06 07  08 09 0A 0B 0C 0D 0E 0F
      -- -- -- -- -- -- -- --  -- -- -- -- -- -- -- --
0440:                29 08 26  20 0F 01 13 1D 33 80 23       ).& ....3.#
0450: 29 08 26 20 0F 01 14 00                           ).& ....        
```

#### Opcodes

```
  0: 0x0445 [0x29] REQ_SET_WAIT(priority=0x08, entity_id=Zubaba (ID: 17768486/0x010F2026), tag_num=0x13)
  1: 0x044C [0x1D] PRINT_EVENT_MESSAGE(message_id=267*)
    → "You're late! Late late late late late!"
  2: 0x044F [0x23] WAIT_FOR_DIALOG_INTERACTION
  3: 0x0450 [0x29] REQ_SET_WAIT(priority=0x08, entity_id=Zubaba (ID: 17768486/0x010F2026), tag_num=0x14)
  4: 0x0457 [0x00] END_REQSTACK()
```

### Event 65535.57

#### Metadata

| Field        | Value    |
|--------------|----------|
| Entrypoint   | 0x0458   |
| Data Size    | 37 bytes |
| Instructions | 9        |

```
      00 01 02 03 04 05 06 07  08 09 0A 0B 0C 0D 0E 0F
      -- -- -- -- -- -- -- --  -- -- -- -- -- -- -- --
0450:                          29 08 26 20 0F 01 07 1D          ).& ....
0460: 34 80 23 29 08 26 20 0F  01 08 29 08 26 20 0F 01  4.#).& ...).& ..
0470: 01 1D 35 80 23 29 08 26  20 0F 01 02 00           ..5.#).& ....   
```

#### Opcodes

```
  0: 0x0458 [0x29] REQ_SET_WAIT(priority=0x08, entity_id=Zubaba (ID: 17768486/0x010F2026), tag_num=0x07)
  1: 0x045F [0x1D] PRINT_EVENT_MESSAGE(message_id=268*)
    → "You were gone for ever so long... How were we to know you were not devoured by monsters!?"
  2: 0x0462 [0x23] WAIT_FOR_DIALOG_INTERACTION
  3: 0x0463 [0x29] REQ_SET_WAIT(priority=0x08, entity_id=Zubaba (ID: 17768486/0x010F2026), tag_num=0x08)
  4: 0x046A [0x29] REQ_SET_WAIT(priority=0x08, entity_id=Zubaba (ID: 17768486/0x010F2026), tag_num=0x01)
  5: 0x0471 [0x1D] PRINT_EVENT_MESSAGE(message_id=269*)
    → "Well, at least you returned in one piece. Now inform me of what you discovered."
  6: 0x0474 [0x23] WAIT_FOR_DIALOG_INTERACTION
  7: 0x0475 [0x29] REQ_SET_WAIT(priority=0x08, entity_id=Zubaba (ID: 17768486/0x010F2026), tag_num=0x02)
  8: 0x047C [0x00] END_REQSTACK()
```

### Event 65535.58

#### Metadata

| Field        | Value    |
|--------------|----------|
| Entrypoint   | 0x047D   |
| Data Size    | 19 bytes |
| Instructions | 5        |

```
      00 01 02 03 04 05 06 07  08 09 0A 0B 0C 0D 0E 0F
      -- -- -- -- -- -- -- --  -- -- -- -- -- -- -- --
0470:                                         29 08 26               ).&
0480: 20 0F 01 03 1D 36 80 23  29 08 26 20 0F 01 05 00   ....6.#).& ....
```

#### Opcodes

```
  0: 0x047D [0x29] REQ_SET_WAIT(priority=0x08, entity_id=Zubaba (ID: 17768486/0x010F2026), tag_num=0x03)
  1: 0x0484 [0x1D] PRINT_EVENT_MESSAGE(message_id=270*)
    → "...I see. So the talisman was intact. Then the sign must have been..."
  2: 0x0487 [0x23] WAIT_FOR_DIALOG_INTERACTION
  3: 0x0488 [0x29] REQ_SET_WAIT(priority=0x08, entity_id=Zubaba (ID: 17768486/0x010F2026), tag_num=0x05)
  4: 0x048F [0x00] END_REQSTACK()
```

### Event 65535.59

#### Metadata

| Field        | Value    |
|--------------|----------|
| Entrypoint   | 0x0490   |
| Data Size    | 19 bytes |
| Instructions | 5        |

```
      00 01 02 03 04 05 06 07  08 09 0A 0B 0C 0D 0E 0F
      -- -- -- -- -- -- -- --  -- -- -- -- -- -- -- --
0490: 29 08 26 20 0F 01 01 1D  37 80 23 29 08 26 20 0F  ).& ....7.#).& .
04A0: 01 02 00                                          ...             
```

#### Opcodes

```
  0: 0x0490 [0x29] REQ_SET_WAIT(priority=0x08, entity_id=Zubaba (ID: 17768486/0x010F2026), tag_num=0x01)
  1: 0x0497 [0x1D] PRINT_EVENT_MESSAGE(message_id=271*)
    → "Oh, but that is nothing for you to fuss-muss over. I will relay your findings to the Star Sibyl once she awakens."
  2: 0x049A [0x23] WAIT_FOR_DIALOG_INTERACTION
  3: 0x049B [0x29] REQ_SET_WAIT(priority=0x08, entity_id=Zubaba (ID: 17768486/0x010F2026), tag_num=0x02)
  4: 0x04A2 [0x00] END_REQSTACK()
```

### Event 65535.60

#### Metadata

| Field        | Value    |
|--------------|----------|
| Entrypoint   | 0x04A3   |
| Data Size    | 19 bytes |
| Instructions | 5        |

```
      00 01 02 03 04 05 06 07  08 09 0A 0B 0C 0D 0E 0F
      -- -- -- -- -- -- -- --  -- -- -- -- -- -- -- --
04A0:          29 08 26 20 0F  01 01 1D 38 80 23 29 08     ).& ....8.#).
04B0: 26 20 0F 01 02 00                                 & ....          
```

#### Opcodes

```
  0: 0x04A3 [0x29] REQ_SET_WAIT(priority=0x08, entity_id=Zubaba (ID: 17768486/0x010F2026), tag_num=0x01)
  1: 0x04AA [0x1D] PRINT_EVENT_MESSAGE(message_id=272*)
    → "I am positive that she will begin her recovery when she hears that the talisman remains in its rightful place."
  2: 0x04AD [0x23] WAIT_FOR_DIALOG_INTERACTION
  3: 0x04AE [0x29] REQ_SET_WAIT(priority=0x08, entity_id=Zubaba (ID: 17768486/0x010F2026), tag_num=0x02)
  4: 0x04B5 [0x00] END_REQSTACK()
```

### Event 65535.61

#### Metadata

| Field        | Value    |
|--------------|----------|
| Entrypoint   | 0x04B6   |
| Data Size    | 19 bytes |
| Instructions | 5        |

```
      00 01 02 03 04 05 06 07  08 09 0A 0B 0C 0D 0E 0F
      -- -- -- -- -- -- -- --  -- -- -- -- -- -- -- --
04B0:                   29 08  26 20 0F 01 03 1D 39 80        ).& ....9.
04C0: 23 29 08 26 20 0F 01 04  00                       #).& ....       
```

#### Opcodes

```
  0: 0x04B6 [0x29] REQ_SET_WAIT(priority=0x08, entity_id=Zubaba (ID: 17768486/0x010F2026), tag_num=0x03)
  1: 0x04BD [0x1D] PRINT_EVENT_MESSAGE(message_id=273*)
    → "However, I still do not understand why..."
  2: 0x04C0 [0x23] WAIT_FOR_DIALOG_INTERACTION
  3: 0x04C1 [0x29] REQ_SET_WAIT(priority=0x08, entity_id=Zubaba (ID: 17768486/0x010F2026), tag_num=0x04)
  4: 0x04C8 [0x00] END_REQSTACK()
```

### Event 65535.62

#### Metadata

| Field        | Value    |
|--------------|----------|
| Entrypoint   | 0x04C9   |
| Data Size    | 19 bytes |
| Instructions | 5        |

```
      00 01 02 03 04 05 06 07  08 09 0A 0B 0C 0D 0E 0F
      -- -- -- -- -- -- -- --  -- -- -- -- -- -- -- --
04C0:                             29 08 26 20 0F 01 05           ).& ...
04D0: 1D 3A 80 23 29 08 26 20  0F 01 06 00              .:.#).& ....    
```

#### Opcodes

```
  0: 0x04C9 [0x29] REQ_SET_WAIT(priority=0x08, entity_id=Zubaba (ID: 17768486/0x010F2026), tag_num=0x05)
  1: 0x04D0 [0x1D] PRINT_EVENT_MESSAGE(message_id=274*)
    → "Well, something is amiss--there is no question of that. And my Tarutaru intuition tells me that awful Orastery minister is behind it all."
  2: 0x04D3 [0x23] WAIT_FOR_DIALOG_INTERACTION
  3: 0x04D4 [0x29] REQ_SET_WAIT(priority=0x08, entity_id=Zubaba (ID: 17768486/0x010F2026), tag_num=0x06)
  4: 0x04DB [0x00] END_REQSTACK()
```

### Event 136

#### Metadata

| Field        | Value    |
|--------------|----------|
| Entrypoint   | 0x04DC   |
| Data Size    | 33 bytes |
| Instructions | 12       |

```
      00 01 02 03 04 05 06 07  08 09 0A 0B 0C 0D 0E 0F
      -- -- -- -- -- -- -- --  -- -- -- -- -- -- -- --
04D0:                                      1E F0 FF FF              ....
04E0: 7F 6F 70 29 08 26 20 0F  01 01 1D 3B 80 23 1D 3C  .op).& ....;.#.<
04F0: 80 23 29 08 26 20 0F 01  02 20 00 21 00           .#).& ... .!.   
```

#### Opcodes

```
  0: 0x04DC [0x1E] EventEntity looks at LocalPlayer and starts talking
  1: 0x04E1 [0x6F] WAIT_FRAME_DELAY: Yield until WaitTime reaches zero
  2: 0x04E2 [0x70] WAIT_ENTITY_RENDER_FLAG: Wait while EventEntity->Render.Flags3 bit 2 is set (cancel turn if not)
  3: 0x04E3 [0x29] REQ_SET_WAIT(priority=0x08, entity_id=Zubaba (ID: 17768486/0x010F2026), tag_num=0x01)
  4: 0x04EA [0x1D] PRINT_EVENT_MESSAGE(message_id=275*)
    → "I still cannot put my finger on what is really going on."
  5: 0x04ED [0x23] WAIT_FOR_DIALOG_INTERACTION
  6: 0x04EE [0x1D] PRINT_EVENT_MESSAGE(message_id=276*)
    → "However, I do know that something is amiss--there is no question of that. And my Tarutaru intuition tells me that awful Orastery minister is behind it all."
  7: 0x04F1 [0x23] WAIT_FOR_DIALOG_INTERACTION
  8: 0x04F2 [0x29] REQ_SET_WAIT(priority=0x08, entity_id=Zubaba (ID: 17768486/0x010F2026), tag_num=0x02)
  9: 0x04F9 [0x20] SET_CLI_EVENT_UC_FLAG: Unlock player control
 10: 0x04FB [0x21] END_EVENT
 11: 0x04FC [0x00] END_REQSTACK()
```

### Event 149

#### Metadata

| Field        | Value    |
|--------------|----------|
| Entrypoint   | 0x04FD   |
| Data Size    | 46 bytes |
| Instructions | 11       |

```
      00 01 02 03 04 05 06 07  08 09 0A 0B 0C 0D 0E 0F
      -- -- -- -- -- -- -- --  -- -- -- -- -- -- -- --
04F0:                                         1E F0 FF               ...
0500: FF 7F 6F 70 29 0B 26 20  0F 01 47 29 0B 26 20 0F  ..op).& ..G).& .
0510: 01 48 29 0B 26 20 0F 01  49 29 0B 26 20 0F 01 4A  .H).& ..I).& ..J
0520: 29 0B 26 20 0F 01 4B 20  00 21 00                 ).& ..K .!.     
```

#### Opcodes

```
  0: 0x04FD [0x1E] EventEntity looks at LocalPlayer and starts talking
  1: 0x0502 [0x6F] WAIT_FRAME_DELAY: Yield until WaitTime reaches zero
  2: 0x0503 [0x70] WAIT_ENTITY_RENDER_FLAG: Wait while EventEntity->Render.Flags3 bit 2 is set (cancel turn if not)
  3: 0x0504 [0x29] REQ_SET_WAIT(priority=0x0B, entity_id=Zubaba (ID: 17768486/0x010F2026), tag_num=0x47)
  4: 0x050B [0x29] REQ_SET_WAIT(priority=0x0B, entity_id=Zubaba (ID: 17768486/0x010F2026), tag_num=0x48)
  5: 0x0512 [0x29] REQ_SET_WAIT(priority=0x0B, entity_id=Zubaba (ID: 17768486/0x010F2026), tag_num=0x49)
  6: 0x0519 [0x29] REQ_SET_WAIT(priority=0x0B, entity_id=Zubaba (ID: 17768486/0x010F2026), tag_num=0x4A)
  7: 0x0520 [0x29] REQ_SET_WAIT(priority=0x0B, entity_id=Zubaba (ID: 17768486/0x010F2026), tag_num=0x4B)
  8: 0x0527 [0x20] SET_CLI_EVENT_UC_FLAG: Unlock player control
  9: 0x0529 [0x21] END_EVENT
 10: 0x052A [0x00] END_REQSTACK()
```

### Event 65535.63

#### Metadata

| Field        | Value    |
|--------------|----------|
| Entrypoint   | 0x052B   |
| Data Size    | 12 bytes |
| Instructions | 4        |

```
      00 01 02 03 04 05 06 07  08 09 0A 0B 0C 0D 0E 0F
      -- -- -- -- -- -- -- --  -- -- -- -- -- -- -- --
0520:                                   29 08 26 20 0F             ).& .
0530: 01 1B 1D 3D 80 23 00                              ...=.#.         
```

#### Opcodes

```
  0: 0x052B [0x29] REQ_SET_WAIT(priority=0x08, entity_id=Zubaba (ID: 17768486/0x010F2026), tag_num=0x1B)
  1: 0x0532 [0x1D] PRINT_EVENT_MESSAGE(message_id=298*)
    → "Late again, are we, [mister/miss] <Player>?"
  2: 0x0535 [0x23] WAIT_FOR_DIALOG_INTERACTION
  3: 0x0536 [0x00] END_REQSTACK()
```

### Event 65535.64

#### Metadata

| Field        | Value    |
|--------------|----------|
| Entrypoint   | 0x0537   |
| Data Size    | 26 bytes |
| Instructions | 6        |

```
      00 01 02 03 04 05 06 07  08 09 0A 0B 0C 0D 0E 0F
      -- -- -- -- -- -- -- --  -- -- -- -- -- -- -- --
0530:                      1D  3E 80 23 29 08 26 20 0F         .>.#).& .
0540: 01 1C 29 08 26 20 0F 01  1D 29 08 26 20 0F 01 1E  ..).& ...).& ...
0550: 00                                                .               
```

#### Opcodes

```
  0: 0x0537 [0x1D] PRINT_EVENT_MESSAGE(message_id=299*)
    → "Well, no matter. I have no time to listen to your idle excuses. I need you to travel once more to the central tower of the Horutoto Ruins."
  1: 0x053A [0x23] WAIT_FOR_DIALOG_INTERACTION
  2: 0x053B [0x29] REQ_SET_WAIT(priority=0x08, entity_id=Zubaba (ID: 17768486/0x010F2026), tag_num=0x1C)
  3: 0x0542 [0x29] REQ_SET_WAIT(priority=0x08, entity_id=Zubaba (ID: 17768486/0x010F2026), tag_num=0x1D)
  4: 0x0549 [0x29] REQ_SET_WAIT(priority=0x08, entity_id=Zubaba (ID: 17768486/0x010F2026), tag_num=0x1E)
  5: 0x0550 [0x00] END_REQSTACK()
```

### Event 65535.65

#### Metadata

| Field        | Value    |
|--------------|----------|
| Entrypoint   | 0x0551   |
| Data Size    | 19 bytes |
| Instructions | 5        |

```
      00 01 02 03 04 05 06 07  08 09 0A 0B 0C 0D 0E 0F
      -- -- -- -- -- -- -- --  -- -- -- -- -- -- -- --
0550:    29 08 26 20 0F 01 01  1D 3F 80 23 29 08 26 20   ).& ....?.#).& 
0560: 0F 01 02 00                                       ....            
```

#### Opcodes

```
  0: 0x0551 [0x29] REQ_SET_WAIT(priority=0x08, entity_id=Zubaba (ID: 17768486/0x010F2026), tag_num=0x01)
  1: 0x0558 [0x1D] PRINT_EVENT_MESSAGE(message_id=300*)
    → "I have learned from my sources that the tower is once again overrun with squirming vermin."
  2: 0x055B [0x23] WAIT_FOR_DIALOG_INTERACTION
  3: 0x055C [0x29] REQ_SET_WAIT(priority=0x08, entity_id=Zubaba (ID: 17768486/0x010F2026), tag_num=0x02)
  4: 0x0563 [0x00] END_REQSTACK()
```

### Event 65535.66

#### Metadata

| Field        | Value    |
|--------------|----------|
| Entrypoint   | 0x0564   |
| Data Size    | 19 bytes |
| Instructions | 5        |

```
      00 01 02 03 04 05 06 07  08 09 0A 0B 0C 0D 0E 0F
      -- -- -- -- -- -- -- --  -- -- -- -- -- -- -- --
0560:             29 08 26 20  0F 01 03 1D 40 80 23 29      ).& ....@.#)
0570: 08 26 20 0F 01 04 00                              .& ....         
```

#### Opcodes

```
  0: 0x0564 [0x29] REQ_SET_WAIT(priority=0x08, entity_id=Zubaba (ID: 17768486/0x010F2026), tag_num=0x03)
  1: 0x056B [0x1D] PRINT_EVENT_MESSAGE(message_id=301*)
    → "It may be in ruins, but ever since the first Star Sibyl sealed it, the central tower has been a place very sacred and important to Windurst."
  2: 0x056E [0x23] WAIT_FOR_DIALOG_INTERACTION
  3: 0x056F [0x29] REQ_SET_WAIT(priority=0x08, entity_id=Zubaba (ID: 17768486/0x010F2026), tag_num=0x04)
  4: 0x0576 [0x00] END_REQSTACK()
```

### Event 65535.67

#### Metadata

| Field        | Value    |
|--------------|----------|
| Entrypoint   | 0x0577   |
| Data Size    | 19 bytes |
| Instructions | 5        |

```
      00 01 02 03 04 05 06 07  08 09 0A 0B 0C 0D 0E 0F
      -- -- -- -- -- -- -- --  -- -- -- -- -- -- -- --
0570:                      29  08 26 20 0F 01 05 1D 41         ).& ....A
0580: 80 23 29 08 26 20 0F 01  06 00                    .#).& ....      
```

#### Opcodes

```
  0: 0x0577 [0x29] REQ_SET_WAIT(priority=0x08, entity_id=Zubaba (ID: 17768486/0x010F2026), tag_num=0x05)
  1: 0x057E [0x1D] PRINT_EVENT_MESSAGE(message_id=302*)
    → "And that is all the more reason to have you journey down there and cleanse our holy tower."
  2: 0x0581 [0x23] WAIT_FOR_DIALOG_INTERACTION
  3: 0x0582 [0x29] REQ_SET_WAIT(priority=0x08, entity_id=Zubaba (ID: 17768486/0x010F2026), tag_num=0x06)
  4: 0x0589 [0x00] END_REQSTACK()
```

### Event 65535.68

#### Metadata

| Field        | Value    |
|--------------|----------|
| Entrypoint   | 0x058A   |
| Data Size    | 19 bytes |
| Instructions | 5        |

```
      00 01 02 03 04 05 06 07  08 09 0A 0B 0C 0D 0E 0F
      -- -- -- -- -- -- -- --  -- -- -- -- -- -- -- --
0580:                                29 08 26 20 0F 01            ).& ..
0590: 0B 1D 42 80 23 29 08 26  20 0F 01 0C 00           ..B.#).& ....   
```

#### Opcodes

```
  0: 0x058A [0x29] REQ_SET_WAIT(priority=0x08, entity_id=Zubaba (ID: 17768486/0x010F2026), tag_num=0x0B)
  1: 0x0591 [0x1D] PRINT_EVENT_MESSAGE(message_id=303*)
    → "If you understand your mission, then be off with you. Do not forget to bring back three $1 as proof of your work."
  2: 0x0594 [0x23] WAIT_FOR_DIALOG_INTERACTION
  3: 0x0595 [0x29] REQ_SET_WAIT(priority=0x08, entity_id=Zubaba (ID: 17768486/0x010F2026), tag_num=0x0C)
  4: 0x059C [0x00] END_REQSTACK()
```

### Event 65535.69

#### Metadata

| Field        | Value    |
|--------------|----------|
| Entrypoint   | 0x059D   |
| Data Size    | 23 bytes |
| Instructions | 5        |

```
      00 01 02 03 04 05 06 07  08 09 0A 0B 0C 0D 0E 0F
      -- -- -- -- -- -- -- --  -- -- -- -- -- -- -- --
0590:                                         29 08 26               ).&
05A0: 20 0F 01 1B 2B 26 20 0F  01 43 80 23 29 08 26 20   ...+& ..C.#).& 
05B0: 0F 01 1C 00                                       ....            
```

#### Opcodes

```
  0: 0x059D [0x29] REQ_SET_WAIT(priority=0x08, entity_id=Zubaba (ID: 17768486/0x010F2026), tag_num=0x1B)
  1: 0x05A4 [0x2B] Zubaba (ID: 17768486/0x010F2026) [241*]:
    → "In the past, we have had other adventurers travel there to confirm the Star Sibyl's readings. However, recently there has been a rise in monster activity in the ruins."
  2: 0x05AB [0x23] WAIT_FOR_DIALOG_INTERACTION
  3: 0x05AC [0x29] REQ_SET_WAIT(priority=0x08, entity_id=Zubaba (ID: 17768486/0x010F2026), tag_num=0x1C)
  4: 0x05B3 [0x00] END_REQSTACK()
```

### Event 150

#### Metadata

| Field        | Value    |
|--------------|----------|
| Entrypoint   | 0x05B4   |
| Data Size    | 47 bytes |
| Instructions | 14       |

```
      00 01 02 03 04 05 06 07  08 09 0A 0B 0C 0D 0E 0F
      -- -- -- -- -- -- -- --  -- -- -- -- -- -- -- --
05B0:             1E F0 FF FF  7F 6F 70 29 08 26 20 0F      .....op).& .
05C0: 01 1B 1D 44 80 23 1D 45  80 23 29 08 26 20 0F 01  ...D.#.E.#).& ..
05D0: 1C 29 08 26 20 0F 01 1D  29 08 26 20 0F 01 1E 20  .).& ...).& ... 
05E0: 00 21 00                                          .!.             
```

#### Opcodes

```
  0: 0x05B4 [0x1E] EventEntity looks at LocalPlayer and starts talking
  1: 0x05B9 [0x6F] WAIT_FRAME_DELAY: Yield until WaitTime reaches zero
  2: 0x05BA [0x70] WAIT_ENTITY_RENDER_FLAG: Wait while EventEntity->Render.Flags3 bit 2 is set (cancel turn if not)
  3: 0x05BB [0x29] REQ_SET_WAIT(priority=0x08, entity_id=Zubaba (ID: 17768486/0x010F2026), tag_num=0x1B)
  4: 0x05C2 [0x1D] PRINT_EVENT_MESSAGE(message_id=304*)
    → "Journey to the central tower of the Horutoto Ruins and rid the place of those pernicious-vicious vermin."
  5: 0x05C5 [0x23] WAIT_FOR_DIALOG_INTERACTION
  6: 0x05C6 [0x1D] PRINT_EVENT_MESSAGE(message_id=305*)
    → "If you understand your mission, then be off with you. Do not forget to bring back three $1 as proof of your work."
  7: 0x05C9 [0x23] WAIT_FOR_DIALOG_INTERACTION
  8: 0x05CA [0x29] REQ_SET_WAIT(priority=0x08, entity_id=Zubaba (ID: 17768486/0x010F2026), tag_num=0x1C)
  9: 0x05D1 [0x29] REQ_SET_WAIT(priority=0x08, entity_id=Zubaba (ID: 17768486/0x010F2026), tag_num=0x1D)
 10: 0x05D8 [0x29] REQ_SET_WAIT(priority=0x08, entity_id=Zubaba (ID: 17768486/0x010F2026), tag_num=0x1E)
 11: 0x05DF [0x20] SET_CLI_EVENT_UC_FLAG: Unlock player control
 12: 0x05E1 [0x21] END_EVENT
 13: 0x05E2 [0x00] END_REQSTACK()
```

### Event 151

#### Metadata

| Field        | Value    |
|--------------|----------|
| Entrypoint   | 0x05E3   |
| Data Size    | 67 bytes |
| Instructions | 17       |

```
      00 01 02 03 04 05 06 07  08 09 0A 0B 0C 0D 0E 0F
      -- -- -- -- -- -- -- --  -- -- -- -- -- -- -- --
05E0:          20 01 42 1E F0  FF FF 7F 6F 70 29 08 26      .B.....op).&
05F0: 20 0F 01 01 1D 46 80 23  29 08 26 20 0F 01 02 29   ....F.#).& ...)
0600: 08 26 20 0F 01 0D 1D 47  80 23 29 08 26 20 0F 01  .& ....G.#).& ..
0610: 0E 45 48 80 F0 FF FF 7F  F0 FF FF 7F 71 73 74 63  .EH.........qstc
0620: 49 80 20 00 21 00                                 I. .!.          
```

#### Opcodes

```
  0: 0x05E3 [0x20] SET_CLI_EVENT_UC_FLAG: Lock player control
  1: 0x05E5 [0x42] SET_CLI_EVENT_CANCEL_DATA()
  2: 0x05E6 [0x1E] EventEntity looks at LocalPlayer and starts talking
  3: 0x05EB [0x6F] WAIT_FRAME_DELAY: Yield until WaitTime reaches zero
  4: 0x05EC [0x70] WAIT_ENTITY_RENDER_FLAG: Wait while EventEntity->Render.Flags3 bit 2 is set (cancel turn if not)
  5: 0x05ED [0x29] REQ_SET_WAIT(priority=0x08, entity_id=Zubaba (ID: 17768486/0x010F2026), tag_num=0x01)
  6: 0x05F4 [0x1D] PRINT_EVENT_MESSAGE(message_id=306*)
    → "Well, well, well. I am impressed that a mere adventurer such as yourself was able to carry out my biddy-bidding."
  7: 0x05F7 [0x23] WAIT_FOR_DIALOG_INTERACTION
  8: 0x05F8 [0x29] REQ_SET_WAIT(priority=0x08, entity_id=Zubaba (ID: 17768486/0x010F2026), tag_num=0x02)
  9: 0x05FF [0x29] REQ_SET_WAIT(priority=0x08, entity_id=Zubaba (ID: 17768486/0x010F2026), tag_num=0x0D)
 10: 0x0606 [0x1D] PRINT_EVENT_MESSAGE(message_id=307*)
    → "If you ever wish another respite from your wastrel existence, then I will arrange some more honest work for you."
 11: 0x0609 [0x23] WAIT_FOR_DIALOG_INTERACTION
 12: 0x060A [0x29] REQ_SET_WAIT(priority=0x08, entity_id=Zubaba (ID: 17768486/0x010F2026), tag_num=0x0E)
 13: 0x0611 [0x45] LOAD_SCHEDULED_TASK: Load scheduler "qstc" with entities [LocalPlayer, LocalPlayer], work=[201*, 0*]
 14: 0x0622 [0x20] SET_CLI_EVENT_UC_FLAG: Unlock player control
 15: 0x0624 [0x21] END_EVENT
 16: 0x0625 [0x00] END_REQSTACK()
```

### Event 152

#### Metadata

| Field        | Value    |
|--------------|----------|
| Entrypoint   | 0x0626   |
| Data Size    | 47 bytes |
| Instructions | 14       |

```
      00 01 02 03 04 05 06 07  08 09 0A 0B 0C 0D 0E 0F
      -- -- -- -- -- -- -- --  -- -- -- -- -- -- -- --
0620:                   1E F0  FF FF 7F 6F 70 29 08 26        .....op).&
0630: 20 0F 01 03 1D 4A 80 23  29 08 26 20 0F 01 04 29   ....J.#).& ...)
0640: 08 26 20 0F 01 05 1D 4B  80 23 29 08 26 20 0F 01  .& ....K.#).& ..
0650: 06 20 00 21 00                                    . .!.           
```

#### Opcodes

```
  0: 0x0626 [0x1E] EventEntity looks at LocalPlayer and starts talking
  1: 0x062B [0x6F] WAIT_FRAME_DELAY: Yield until WaitTime reaches zero
  2: 0x062C [0x70] WAIT_ENTITY_RENDER_FLAG: Wait while EventEntity->Render.Flags3 bit 2 is set (cancel turn if not)
  3: 0x062D [0x29] REQ_SET_WAIT(priority=0x08, entity_id=Zubaba (ID: 17768486/0x010F2026), tag_num=0x03)
  4: 0x0634 [0x1D] PRINT_EVENT_MESSAGE(message_id=308*)
    → "Strictly speaking, adventurers are forbidden to enter the central tower of the Horutoto Ruins. We make exceptions, however, since adventurers make such efficient monster exterminators."
  5: 0x0637 [0x23] WAIT_FOR_DIALOG_INTERACTION
  6: 0x0638 [0x29] REQ_SET_WAIT(priority=0x08, entity_id=Zubaba (ID: 17768486/0x010F2026), tag_num=0x04)
  7: 0x063F [0x29] REQ_SET_WAIT(priority=0x08, entity_id=Zubaba (ID: 17768486/0x010F2026), tag_num=0x05)
  8: 0x0646 [0x1D] PRINT_EVENT_MESSAGE(message_id=309*)
    → "The Star Sibyl is troubled over whether to completely close off the ruins to all travelers or not."
  9: 0x0649 [0x23] WAIT_FOR_DIALOG_INTERACTION
 10: 0x064A [0x29] REQ_SET_WAIT(priority=0x08, entity_id=Zubaba (ID: 17768486/0x010F2026), tag_num=0x06)
 11: 0x0651 [0x20] SET_CLI_EVENT_UC_FLAG: Unlock player control
 12: 0x0653 [0x21] END_EVENT
 13: 0x0654 [0x00] END_REQSTACK()
```

### Event 65535.70

#### Metadata

| Field        | Value    |
|--------------|----------|
| Entrypoint   | 0x0655   |
| Data Size    | 19 bytes |
| Instructions | 5        |

```
      00 01 02 03 04 05 06 07  08 09 0A 0B 0C 0D 0E 0F
      -- -- -- -- -- -- -- --  -- -- -- -- -- -- -- --
0650:                29 08 26  20 0F 01 03 1D 1C 80 23       ).& ......#
0660: 29 08 26 20 0F 01 04 00                           ).& ....        
```

#### Opcodes

```
  0: 0x0655 [0x29] REQ_SET_WAIT(priority=0x08, entity_id=Zubaba (ID: 17768486/0x010F2026), tag_num=0x03)
  1: 0x065C [0x1D] PRINT_EVENT_MESSAGE(message_id=218*)
    → "I have heard of your exploits from the young lady in the Clerical Chamber."
  2: 0x065F [0x23] WAIT_FOR_DIALOG_INTERACTION
  3: 0x0660 [0x29] REQ_SET_WAIT(priority=0x08, entity_id=Zubaba (ID: 17768486/0x010F2026), tag_num=0x04)
  4: 0x0667 [0x00] END_REQSTACK()
```

### Event 169

#### Metadata

| Field        | Value    |
|--------------|----------|
| Entrypoint   | 0x0668   |
| Data Size    | 33 bytes |
| Instructions | 12       |

```
      00 01 02 03 04 05 06 07  08 09 0A 0B 0C 0D 0E 0F
      -- -- -- -- -- -- -- --  -- -- -- -- -- -- -- --
0660:                          1E F0 FF FF 7F 6F 70 29          .....op)
0670: 08 26 20 0F 01 01 1D 4C  80 23 1D 4D 80 23 29 08  .& ....L.#.M.#).
0680: 26 20 0F 01 02 20 00 21  00                       & ... .!.       
```

#### Opcodes

```
  0: 0x0668 [0x1E] EventEntity looks at LocalPlayer and starts talking
  1: 0x066D [0x6F] WAIT_FRAME_DELAY: Yield until WaitTime reaches zero
  2: 0x066E [0x70] WAIT_ENTITY_RENDER_FLAG: Wait while EventEntity->Render.Flags3 bit 2 is set (cancel turn if not)
  3: 0x066F [0x29] REQ_SET_WAIT(priority=0x08, entity_id=Zubaba (ID: 17768486/0x010F2026), tag_num=0x01)
  4: 0x0676 [0x1D] PRINT_EVENT_MESSAGE(message_id=350*)
    → "So this is what the Star Sibyl had envisioned?"
  5: 0x0679 [0x23] WAIT_FOR_DIALOG_INTERACTION
  6: 0x067A [0x1D] PRINT_EVENT_MESSAGE(message_id=351*)
    → "After twenty years of hard work to build bridges between Windurst and the beastmen, to have the Yagudo burn them down..."
  7: 0x067D [0x23] WAIT_FOR_DIALOG_INTERACTION
  8: 0x067E [0x29] REQ_SET_WAIT(priority=0x08, entity_id=Zubaba (ID: 17768486/0x010F2026), tag_num=0x02)
  9: 0x0685 [0x20] SET_CLI_EVENT_UC_FLAG: Unlock player control
 10: 0x0687 [0x21] END_EVENT
 11: 0x0688 [0x00] END_REQSTACK()
```

### Event 194

#### Metadata

| Field        | Value    |
|--------------|----------|
| Entrypoint   | 0x0689   |
| Data Size    | 33 bytes |
| Instructions | 12       |

```
      00 01 02 03 04 05 06 07  08 09 0A 0B 0C 0D 0E 0F
      -- -- -- -- -- -- -- --  -- -- -- -- -- -- -- --
0680:                             1E F0 FF FF 7F 6F 70           .....op
0690: 29 08 26 20 0F 01 01 1D  4E 80 23 1D 4F 80 23 29  ).& ....N.#.O.#)
06A0: 08 26 20 0F 01 02 20 00  21 00                    .& ... .!.      
```

#### Opcodes

```
  0: 0x0689 [0x1E] EventEntity looks at LocalPlayer and starts talking
  1: 0x068E [0x6F] WAIT_FRAME_DELAY: Yield until WaitTime reaches zero
  2: 0x068F [0x70] WAIT_ENTITY_RENDER_FLAG: Wait while EventEntity->Render.Flags3 bit 2 is set (cancel turn if not)
  3: 0x0690 [0x29] REQ_SET_WAIT(priority=0x08, entity_id=Zubaba (ID: 17768486/0x010F2026), tag_num=0x01)
  4: 0x0697 [0x1D] PRINT_EVENT_MESSAGE(message_id=436*)
    → "Every time the five ministers get together, there are usually fireworks. However, this time everyone was quiet. Especially the Orastery minister."
  5: 0x069A [0x23] WAIT_FOR_DIALOG_INTERACTION
  6: 0x069B [0x1D] PRINT_EVENT_MESSAGE(message_id=437*)
    → "If he's not preaching, then you know something must be wrong."
  7: 0x069E [0x23] WAIT_FOR_DIALOG_INTERACTION
  8: 0x069F [0x29] REQ_SET_WAIT(priority=0x08, entity_id=Zubaba (ID: 17768486/0x010F2026), tag_num=0x02)
  9: 0x06A6 [0x20] SET_CLI_EVENT_UC_FLAG: Unlock player control
 10: 0x06A8 [0x21] END_EVENT
 11: 0x06A9 [0x00] END_REQSTACK()
```

### Event 217

#### Metadata

| Field        | Value    |
|--------------|----------|
| Entrypoint   | 0x06AA   |
| Data Size    | 47 bytes |
| Instructions | 14       |

```
      00 01 02 03 04 05 06 07  08 09 0A 0B 0C 0D 0E 0F
      -- -- -- -- -- -- -- --  -- -- -- -- -- -- -- --
06A0:                                1E F0 FF FF 7F 6F            .....o
06B0: 70 29 08 26 20 0F 01 15  1D 50 80 23 29 08 26 20  p).& ....P.#).& 
06C0: 0F 01 16 29 08 26 20 0F  01 01 1D 51 80 23 29 08  ...).& ....Q.#).
06D0: 26 20 0F 01 02 20 00 21  00                       & ... .!.       
```

#### Opcodes

```
  0: 0x06AA [0x1E] EventEntity looks at LocalPlayer and starts talking
  1: 0x06AF [0x6F] WAIT_FRAME_DELAY: Yield until WaitTime reaches zero
  2: 0x06B0 [0x70] WAIT_ENTITY_RENDER_FLAG: Wait while EventEntity->Render.Flags3 bit 2 is set (cancel turn if not)
  3: 0x06B1 [0x29] REQ_SET_WAIT(priority=0x08, entity_id=Zubaba (ID: 17768486/0x010F2026), tag_num=0x15)
  4: 0x06B8 [0x1D] PRINT_EVENT_MESSAGE(message_id=486*)
    → "Well, well, well. I guess that all adventurers aren't that bad."
  5: 0x06BB [0x23] WAIT_FOR_DIALOG_INTERACTION
  6: 0x06BC [0x29] REQ_SET_WAIT(priority=0x08, entity_id=Zubaba (ID: 17768486/0x010F2026), tag_num=0x16)
  7: 0x06C3 [0x29] REQ_SET_WAIT(priority=0x08, entity_id=Zubaba (ID: 17768486/0x010F2026), tag_num=0x01)
  8: 0x06CA [0x1D] PRINT_EVENT_MESSAGE(message_id=487*)
    → "Don't get the wrong idea, now. I never said it was you."
  9: 0x06CD [0x23] WAIT_FOR_DIALOG_INTERACTION
 10: 0x06CE [0x29] REQ_SET_WAIT(priority=0x08, entity_id=Zubaba (ID: 17768486/0x010F2026), tag_num=0x02)
 11: 0x06D5 [0x20] SET_CLI_EVENT_UC_FLAG: Unlock player control
 12: 0x06D7 [0x21] END_EVENT
 13: 0x06D8 [0x00] END_REQSTACK()
```

### Event 315

#### Metadata

| Field        | Value    |
|--------------|----------|
| Entrypoint   | 0x06D9   |
| Data Size    | 47 bytes |
| Instructions | 14       |

```
      00 01 02 03 04 05 06 07  08 09 0A 0B 0C 0D 0E 0F
      -- -- -- -- -- -- -- --  -- -- -- -- -- -- -- --
06D0:                             1E F0 FF FF 7F 6F 70           .....op
06E0: 29 08 26 20 0F 01 15 1D  52 80 23 29 08 26 20 0F  ).& ....R.#).& .
06F0: 01 16 29 08 26 20 0F 01  13 1D 53 80 23 29 08 26  ..).& ....S.#).&
0700: 20 0F 01 14 20 00 21 00                            ... .!.        
```

#### Opcodes

```
  0: 0x06D9 [0x1E] EventEntity looks at LocalPlayer and starts talking
  1: 0x06DE [0x6F] WAIT_FRAME_DELAY: Yield until WaitTime reaches zero
  2: 0x06DF [0x70] WAIT_ENTITY_RENDER_FLAG: Wait while EventEntity->Render.Flags3 bit 2 is set (cancel turn if not)
  3: 0x06E0 [0x29] REQ_SET_WAIT(priority=0x08, entity_id=Zubaba (ID: 17768486/0x010F2026), tag_num=0x15)
  4: 0x06E7 [0x1D] PRINT_EVENT_MESSAGE(message_id=8136*)
    → "So, have you finished all your tasks? Things have finally settled down around here, too. Now we need to shore up our reserves for the next trial that comes along."
  5: 0x06EA [0x23] WAIT_FOR_DIALOG_INTERACTION
  6: 0x06EB [0x29] REQ_SET_WAIT(priority=0x08, entity_id=Zubaba (ID: 17768486/0x010F2026), tag_num=0x16)
  7: 0x06F2 [0x29] REQ_SET_WAIT(priority=0x08, entity_id=Zubaba (ID: 17768486/0x010F2026), tag_num=0x13)
  8: 0x06F9 [0x1D] PRINT_EVENT_MESSAGE(message_id=8137*)
    → "...You good-for-nothing layabout! If you have time to dawdle-wawdle around here, you should be off completing missions for your country!"
  9: 0x06FC [0x23] WAIT_FOR_DIALOG_INTERACTION
 10: 0x06FD [0x29] REQ_SET_WAIT(priority=0x08, entity_id=Zubaba (ID: 17768486/0x010F2026), tag_num=0x14)
 11: 0x0704 [0x20] SET_CLI_EVENT_UC_FLAG: Unlock player control
 12: 0x0706 [0x21] END_EVENT
