# 17768495 - Utsuitsui

## Common Data

| Field            | Value                   |
|------------------|-------------------------|
| Zone             | Heavens Tower (ID: 242) |
| Block Size       | 564 bytes               |
| Total Events     | 17                      |
| References Count | 20                      |

## List of Events

| Event ID                 | Entrypoint   |   Size |   Instructions |
|--------------------------|--------------|--------|----------------|
| [65535](#event-65535)    | 0x0000       |      1 |              1 |
| [65535.1](#event-655351) | 0x0001       |     16 |              2 |
| [65535.2](#event-655352) | 0x0011       |      9 |              3 |
| [65535.3](#event-655353) | 0x001A       |     16 |              2 |
| [65535.4](#event-655354) | 0x002A       |     14 |              2 |
| [65535.5](#event-655355) | 0x0038       |     16 |              2 |
| [65535.6](#event-655356) | 0x0048       |     14 |              2 |
| [66](#event-66)          | 0x0056       |     33 |             12 |
| [132](#event-132)        | 0x0077       |     33 |             12 |
| [148](#event-148)        | 0x0098       |     33 |             12 |
| [186](#event-186)        | 0x00B9       |     33 |             12 |
| [211](#event-211)        | 0x00DA       |     33 |             12 |
| [232](#event-232)        | 0x00FB       |     33 |             12 |
| [121](#event-121)        | 0x011C       |      1 |              1 |
| [346](#event-346)        | 0x011D       |     47 |             14 |
| [359](#event-359)        | 0x014C       |     33 |             12 |
| [397](#event-397)        | 0x016D       |     33 |             12 |

## DAT References (imed_data)

|   Index | Hex Value   |   Dec Value |
|---------|-------------|-------------|
|       0 | 0x0028      |          40 |
|       1 | 0x001E      |          30 |
|       2 | 0x002F      |          47 |
|       3 | 0x0030      |          48 |
|       4 | 0x0105      |         261 |
|       5 | 0x0106      |         262 |
|       6 | 0x0128      |         296 |
|       7 | 0x0129      |         297 |
|       8 | 0x017F      |         383 |
|       9 | 0x0180      |         384 |
|      10 | 0x01D4      |         468 |
|      11 | 0x01D5      |         469 |
|      12 | 0x0203      |         515 |
|      13 | 0x0204      |         516 |
|      14 | 0x2069      |        8297 |
|      15 | 0x206A      |        8298 |
|      16 | 0x20F5      |        8437 |
|      17 | 0x20F6      |        8438 |
|      18 | 0x2151      |        8529 |
|      19 | 0x2152      |        8530 |

## String References

- **47**: Th-th-th-this is the Vestal Vestibule for the Star Sibyl's ladies-in-waiting. I-I-I guess you could call it the second floor of Heavens T-T-T-Tower. <Cower>
- **48**: A-a-a-above, you will find the planetarium. M-m-m-many travel here to see it, b-b-b-but only those chosen are allowed to go anywhere near there. <Scare>
- **261**: Th-th-th-this is a special hall for the Star Sibyl's ladies-in-waiting. I-I-I guess you could call it the second floor of Heavens T-T-T-Tower. <Cower>
- **262**: H-h-h-have you talked to Lady Zubaba, yet? P-p-p-please speak with her as soon as possible, f-f-f-for the Star Sibyl's sake. <Quake>
- **296**: Th-th-th-this is the Vestal Vestibule for the Star Sibyl's ladies-in-waiting. I-I-I guess you could call it the second floor of Heavens T-T-T-Tower. <Cower>
- **297**: I-I-I see you made it back from the ruins in one piece. H-h-h-have you already reported to the head lady-in-waiting. <Fainting>
- **383**: Th-th-th-this is the Vestal Vestibule for the Star Sibyl's ladies-in-waiting. I-I-I guess you could call it the second floor of Heavens T-T-T-Tower. <Cower>
- **384**: W-w-w-we ladies-in-waiting are lost in the darkness of fear. P-p-p-please, <Player>, lead us to the light instead! <Dread>
- **468**: Th-th-th-this is the Vestal Vestibule for the Star Sibyl's ladies-in-waiting. I-I-I guess you could call it the second floor of Heavens T-T-T-Tower. <Cower>
- **469**: Th-th-th-there is much unrest among the ladies here. Wh-wh-wh-why, you ask? Th-th-th-the conference of ministers is over and done, and the f-f-f-fate of Windurst has been set. <Fret>
- **515**: This is the Vestal Vestibule for the Star Sibyl's ladies-in-waiting. I guess you could call this the second floor of the Heavens Tower you are in. <Grin>
- **516**: The ladies today have lost their usual composure, but do not look down upon them. Your news has everyone excited after feeling down for such a long while. <Smile>
- **8297**: ...M-m-my hands, l-l-look at them qu-qu-quiver... <Shiver>
- **8298**: ...Oh, S-S-Star S-S-Sibyl... Will W-W-Windurst become the scene for a b-b-bloody b-b-beastman b-b-binge...? <Cringe>
- **8437**: These days Sibyl Guard Semih Lafihna is always rushing around. <Frown>
- **8438**: Kupipi and Lady Zubaba seem buried in their duties as well. This all started when the Star Sibyl took ill, and it's been that way ever since. <Wince>
- **8529**: The Star Sibyl's pain is our pain. We share the pain between us so we don't overtax our Tarutaru-sized frames. <Proclaims>
- **8530**: The Star Sibyl's joy is our joy. And because of our Tarutaru-sized frames, even the smallest joy is still enough to share. <Declare>

## Events

### Event 65535

#### Metadata

| Field        | Value   |
|--------------|---------|
| Entrypoint   | 0x0000  |
| Data Size    | 1 bytes |
| Instructions | 1       |

```
      00 01 02 03 04 05 06 07  08 09 0A 0B 0C 0D 0E 0F
      -- -- -- -- -- -- -- --  -- -- -- -- -- -- -- --
0000: 00                                                .               
```

#### Opcodes

```
  0: 0x0000 [0x00] END_REQSTACK()
```

### Event 65535.1

#### Metadata

| Field        | Value    |
|--------------|----------|
| Entrypoint   | 0x0001   |
| Data Size    | 16 bytes |
| Instructions | 2        |

```
      00 01 02 03 04 05 06 07  08 09 0A 0B 0C 0D 0E 0F
      -- -- -- -- -- -- -- --  -- -- -- -- -- -- -- --
0000:    66 00 80 F8 FF FF 7F  F8 FF FF 7F 74 6C 6B 30   f..........tlk0
0010: 00                                                .               
```

#### Opcodes

```
  0: 0x0001 [0x66] LOAD_EXT_SCHEDULER_MAIN: Load scheduler "tlk0" with entities [EventEntity, EventEntity], work=40*
  1: 0x0010 [0x00] END_REQSTACK()
```

### Event 65535.2

#### Metadata

| Field        | Value   |
|--------------|---------|
| Entrypoint   | 0x0011  |
| Data Size    | 9 bytes |
| Instructions | 3       |

```
      00 01 02 03 04 05 06 07  08 09 0A 0B 0C 0D 0E 0F
      -- -- -- -- -- -- -- --  -- -- -- -- -- -- -- --
0010:    5E 69 64 6C 30 1C 01  80 00                     ^idl0....      
```

#### Opcodes

```
  0: 0x0011 [0x5E] EventEntity goes idle (kills current action) (animation: "idl0")
  1: 0x0016 [0x1C] WAIT(30* ticks)
  2: 0x0019 [0x00] END_REQSTACK()
```

### Event 65535.3

#### Metadata

| Field        | Value    |
|--------------|----------|
| Entrypoint   | 0x001A   |
| Data Size    | 16 bytes |
| Instructions | 2        |

```
      00 01 02 03 04 05 06 07  08 09 0A 0B 0C 0D 0E 0F
      -- -- -- -- -- -- -- --  -- -- -- -- -- -- -- --
0010:                                66 00 80 F8 FF FF            f.....
0020: 7F F8 FF FF 7F 6F 62 69  30 00                    .....obi0.      
```

#### Opcodes

```
  0: 0x001A [0x66] LOAD_EXT_SCHEDULER_MAIN: Load scheduler "obi0" with entities [EventEntity, EventEntity], work=40*
  1: 0x0029 [0x00] END_REQSTACK()
```

### Event 65535.4

#### Metadata

| Field        | Value    |
|--------------|----------|
| Entrypoint   | 0x002A   |
| Data Size    | 14 bytes |
| Instructions | 2        |

```
      00 01 02 03 04 05 06 07  08 09 0A 0B 0C 0D 0E 0F
      -- -- -- -- -- -- -- --  -- -- -- -- -- -- -- --
0020:                                53 F8 FF FF 7F F8            S.....
0030: FF FF 7F 6F 62 69 30 00                           ...obi0.        
```

#### Opcodes

```
  0: 0x002A [0x53] WAIT_SCHEDULER_TASK: Wait for scheduler "obi0" with entities [EventEntity, EventEntity]
  1: 0x0037 [0x00] END_REQSTACK()
```

### Event 65535.5

#### Metadata

| Field        | Value    |
|--------------|----------|
| Entrypoint   | 0x0038   |
| Data Size    | 16 bytes |
| Instructions | 2        |

```
      00 01 02 03 04 05 06 07  08 09 0A 0B 0C 0D 0E 0F
      -- -- -- -- -- -- -- --  -- -- -- -- -- -- -- --
0030:                          66 00 80 F8 FF FF 7F F8          f.......
0040: FF FF 7F 6F 62 69 31 00                           ...obi1.        
```

#### Opcodes

```
  0: 0x0038 [0x66] LOAD_EXT_SCHEDULER_MAIN: Load scheduler "obi1" with entities [EventEntity, EventEntity], work=40*
  1: 0x0047 [0x00] END_REQSTACK()
```

### Event 65535.6

#### Metadata

| Field        | Value    |
|--------------|----------|
| Entrypoint   | 0x0048   |
| Data Size    | 14 bytes |
| Instructions | 2        |

```
      00 01 02 03 04 05 06 07  08 09 0A 0B 0C 0D 0E 0F
      -- -- -- -- -- -- -- --  -- -- -- -- -- -- -- --
0040:                          53 F8 FF FF 7F F8 FF FF          S.......
0050: 7F 6F 62 69 31 00                                 .obi1.          
```

#### Opcodes

```
  0: 0x0048 [0x53] WAIT_SCHEDULER_TASK: Wait for scheduler "obi1" with entities [EventEntity, EventEntity]
  1: 0x0055 [0x00] END_REQSTACK()
```

### Event 66

#### Metadata

| Field        | Value    |
|--------------|----------|
| Entrypoint   | 0x0056   |
| Data Size    | 33 bytes |
| Instructions | 12       |

```
      00 01 02 03 04 05 06 07  08 09 0A 0B 0C 0D 0E 0F
      -- -- -- -- -- -- -- --  -- -- -- -- -- -- -- --
0050:                   1E F0  FF FF 7F 6F 70 29 08 2F        .....op)./
0060: 20 0F 01 01 1D 02 80 23  1D 03 80 23 29 08 2F 20   ......#...#)./ 
0070: 0F 01 02 20 00 21 00                              ... .!.         
```

#### Opcodes

```
  0: 0x0056 [0x1E] EventEntity looks at LocalPlayer and starts talking
  1: 0x005B [0x6F] WAIT_FRAME_DELAY: Yield until WaitTime reaches zero
  2: 0x005C [0x70] WAIT_ENTITY_RENDER_FLAG: Wait while EventEntity->Render.Flags3 bit 2 is set (cancel turn if not)
  3: 0x005D [0x29] REQ_SET_WAIT(priority=0x08, entity_id=Utsuitsui (ID: 17768495/0x010F202F), tag_num=0x01)
  4: 0x0064 [0x1D] PRINT_EVENT_MESSAGE(message_id=47*)
    → "Th-th-th-this is the Vestal Vestibule for the Star Sibyl's ladies-in-waiting. I-I-I guess you could call it the second floor of Heavens T-T-T-Tower. <Cower>"
  5: 0x0067 [0x23] WAIT_FOR_DIALOG_INTERACTION
  6: 0x0068 [0x1D] PRINT_EVENT_MESSAGE(message_id=48*)
    → "A-a-a-above, you will find the planetarium. M-m-m-many travel here to see it, b-b-b-but only those chosen are allowed to go anywhere near there. <Scare>"
  7: 0x006B [0x23] WAIT_FOR_DIALOG_INTERACTION
  8: 0x006C [0x29] REQ_SET_WAIT(priority=0x08, entity_id=Utsuitsui (ID: 17768495/0x010F202F), tag_num=0x02)
  9: 0x0073 [0x20] SET_CLI_EVENT_UC_FLAG: Unlock player control
 10: 0x0075 [0x21] END_EVENT
 11: 0x0076 [0x00] END_REQSTACK()
```

### Event 132

#### Metadata

| Field        | Value    |
|--------------|----------|
| Entrypoint   | 0x0077   |
| Data Size    | 33 bytes |
| Instructions | 12       |

```
      00 01 02 03 04 05 06 07  08 09 0A 0B 0C 0D 0E 0F
      -- -- -- -- -- -- -- --  -- -- -- -- -- -- -- --
0070:                      1E  F0 FF FF 7F 6F 70 29 08         .....op).
0080: 2F 20 0F 01 01 1D 04 80  23 1D 05 80 23 29 08 2F  / ......#...#)./
0090: 20 0F 01 02 20 00 21 00                            ... .!.        
```

#### Opcodes

```
  0: 0x0077 [0x1E] EventEntity looks at LocalPlayer and starts talking
  1: 0x007C [0x6F] WAIT_FRAME_DELAY: Yield until WaitTime reaches zero
  2: 0x007D [0x70] WAIT_ENTITY_RENDER_FLAG: Wait while EventEntity->Render.Flags3 bit 2 is set (cancel turn if not)
  3: 0x007E [0x29] REQ_SET_WAIT(priority=0x08, entity_id=Utsuitsui (ID: 17768495/0x010F202F), tag_num=0x01)
  4: 0x0085 [0x1D] PRINT_EVENT_MESSAGE(message_id=261*)
    → "Th-th-th-this is a special hall for the Star Sibyl's ladies-in-waiting. I-I-I guess you could call it the second floor of Heavens T-T-T-Tower. <Cower>"
  5: 0x0088 [0x23] WAIT_FOR_DIALOG_INTERACTION
  6: 0x0089 [0x1D] PRINT_EVENT_MESSAGE(message_id=262*)
    → "H-h-h-have you talked to Lady Zubaba, yet? P-p-p-please speak with her as soon as possible, f-f-f-for the Star Sibyl's sake. <Quake>"
  7: 0x008C [0x23] WAIT_FOR_DIALOG_INTERACTION
  8: 0x008D [0x29] REQ_SET_WAIT(priority=0x08, entity_id=Utsuitsui (ID: 17768495/0x010F202F), tag_num=0x02)
  9: 0x0094 [0x20] SET_CLI_EVENT_UC_FLAG: Unlock player control
 10: 0x0096 [0x21] END_EVENT
 11: 0x0097 [0x00] END_REQSTACK()
```

### Event 148

#### Metadata

| Field        | Value    |
|--------------|----------|
| Entrypoint   | 0x0098   |
| Data Size    | 33 bytes |
| Instructions | 12       |

```
      00 01 02 03 04 05 06 07  08 09 0A 0B 0C 0D 0E 0F
      -- -- -- -- -- -- -- --  -- -- -- -- -- -- -- --
0090:                          1E F0 FF FF 7F 6F 70 29          .....op)
00A0: 08 2F 20 0F 01 01 1D 06  80 23 1D 07 80 23 29 08  ./ ......#...#).
00B0: 2F 20 0F 01 02 20 00 21  00                       / ... .!.       
```

#### Opcodes

```
  0: 0x0098 [0x1E] EventEntity looks at LocalPlayer and starts talking
  1: 0x009D [0x6F] WAIT_FRAME_DELAY: Yield until WaitTime reaches zero
  2: 0x009E [0x70] WAIT_ENTITY_RENDER_FLAG: Wait while EventEntity->Render.Flags3 bit 2 is set (cancel turn if not)
  3: 0x009F [0x29] REQ_SET_WAIT(priority=0x08, entity_id=Utsuitsui (ID: 17768495/0x010F202F), tag_num=0x01)
  4: 0x00A6 [0x1D] PRINT_EVENT_MESSAGE(message_id=296*)
    → "Th-th-th-this is the Vestal Vestibule for the Star Sibyl's ladies-in-waiting. I-I-I guess you could call it the second floor of Heavens T-T-T-Tower. <Cower>"
  5: 0x00A9 [0x23] WAIT_FOR_DIALOG_INTERACTION
  6: 0x00AA [0x1D] PRINT_EVENT_MESSAGE(message_id=297*)
    → "I-I-I see you made it back from the ruins in one piece. H-h-h-have you already reported to the head lady-in-waiting. <Fainting>"
  7: 0x00AD [0x23] WAIT_FOR_DIALOG_INTERACTION
  8: 0x00AE [0x29] REQ_SET_WAIT(priority=0x08, entity_id=Utsuitsui (ID: 17768495/0x010F202F), tag_num=0x02)
  9: 0x00B5 [0x20] SET_CLI_EVENT_UC_FLAG: Unlock player control
 10: 0x00B7 [0x21] END_EVENT
 11: 0x00B8 [0x00] END_REQSTACK()
```

### Event 186

#### Metadata

| Field        | Value    |
|--------------|----------|
| Entrypoint   | 0x00B9   |
| Data Size    | 33 bytes |
| Instructions | 12       |

```
      00 01 02 03 04 05 06 07  08 09 0A 0B 0C 0D 0E 0F
      -- -- -- -- -- -- -- --  -- -- -- -- -- -- -- --
00B0:                             1E F0 FF FF 7F 6F 70           .....op
00C0: 29 08 2F 20 0F 01 01 1D  08 80 23 1D 09 80 23 29  )./ ......#...#)
00D0: 08 2F 20 0F 01 02 20 00  21 00                    ./ ... .!.      
```

#### Opcodes

```
  0: 0x00B9 [0x1E] EventEntity looks at LocalPlayer and starts talking
  1: 0x00BE [0x6F] WAIT_FRAME_DELAY: Yield until WaitTime reaches zero
  2: 0x00BF [0x70] WAIT_ENTITY_RENDER_FLAG: Wait while EventEntity->Render.Flags3 bit 2 is set (cancel turn if not)
  3: 0x00C0 [0x29] REQ_SET_WAIT(priority=0x08, entity_id=Utsuitsui (ID: 17768495/0x010F202F), tag_num=0x01)
  4: 0x00C7 [0x1D] PRINT_EVENT_MESSAGE(message_id=383*)
    → "Th-th-th-this is the Vestal Vestibule for the Star Sibyl's ladies-in-waiting. I-I-I guess you could call it the second floor of Heavens T-T-T-Tower. <Cower>"
  5: 0x00CA [0x23] WAIT_FOR_DIALOG_INTERACTION
  6: 0x00CB [0x1D] PRINT_EVENT_MESSAGE(message_id=384*)
    → "W-w-w-we ladies-in-waiting are lost in the darkness of fear. P-p-p-please, <Player>, lead us to the light instead! <Dread>"
  7: 0x00CE [0x23] WAIT_FOR_DIALOG_INTERACTION
  8: 0x00CF [0x29] REQ_SET_WAIT(priority=0x08, entity_id=Utsuitsui (ID: 17768495/0x010F202F), tag_num=0x02)
  9: 0x00D6 [0x20] SET_CLI_EVENT_UC_FLAG: Unlock player control
 10: 0x00D8 [0x21] END_EVENT
 11: 0x00D9 [0x00] END_REQSTACK()
```

### Event 211

#### Metadata

| Field        | Value    |
|--------------|----------|
| Entrypoint   | 0x00DA   |
| Data Size    | 33 bytes |
| Instructions | 12       |

```
      00 01 02 03 04 05 06 07  08 09 0A 0B 0C 0D 0E 0F
      -- -- -- -- -- -- -- --  -- -- -- -- -- -- -- --
00D0:                                1E F0 FF FF 7F 6F            .....o
00E0: 70 29 08 2F 20 0F 01 01  1D 0A 80 23 1D 0B 80 23  p)./ ......#...#
00F0: 29 08 2F 20 0F 01 02 20  00 21 00                 )./ ... .!.     
```

#### Opcodes

```
  0: 0x00DA [0x1E] EventEntity looks at LocalPlayer and starts talking
  1: 0x00DF [0x6F] WAIT_FRAME_DELAY: Yield until WaitTime reaches zero
  2: 0x00E0 [0x70] WAIT_ENTITY_RENDER_FLAG: Wait while EventEntity->Render.Flags3 bit 2 is set (cancel turn if not)
  3: 0x00E1 [0x29] REQ_SET_WAIT(priority=0x08, entity_id=Utsuitsui (ID: 17768495/0x010F202F), tag_num=0x01)
  4: 0x00E8 [0x1D] PRINT_EVENT_MESSAGE(message_id=468*)
    → "Th-th-th-this is the Vestal Vestibule for the Star Sibyl's ladies-in-waiting. I-I-I guess you could call it the second floor of Heavens T-T-T-Tower. <Cower>"
  5: 0x00EB [0x23] WAIT_FOR_DIALOG_INTERACTION
  6: 0x00EC [0x1D] PRINT_EVENT_MESSAGE(message_id=469*)
    → "Th-th-th-there is much unrest among the ladies here. Wh-wh-wh-why, you ask? Th-th-th-the conference of ministers is over and done, and the f-f-f-fate of Windurst has been set. <Fret>"
  7: 0x00EF [0x23] WAIT_FOR_DIALOG_INTERACTION
  8: 0x00F0 [0x29] REQ_SET_WAIT(priority=0x08, entity_id=Utsuitsui (ID: 17768495/0x010F202F), tag_num=0x02)
  9: 0x00F7 [0x20] SET_CLI_EVENT_UC_FLAG: Unlock player control
 10: 0x00F9 [0x21] END_EVENT
 11: 0x00FA [0x00] END_REQSTACK()
```

### Event 232

#### Metadata

| Field        | Value    |
|--------------|----------|
| Entrypoint   | 0x00FB   |
| Data Size    | 33 bytes |
| Instructions | 12       |

```
      00 01 02 03 04 05 06 07  08 09 0A 0B 0C 0D 0E 0F
      -- -- -- -- -- -- -- --  -- -- -- -- -- -- -- --
00F0:                                   1E F0 FF FF 7F             .....
0100: 6F 70 29 08 2F 20 0F 01  01 1D 0C 80 23 1D 0D 80  op)./ ......#...
0110: 23 29 08 2F 20 0F 01 02  20 00 21 00              #)./ ... .!.    
```

#### Opcodes

```
  0: 0x00FB [0x1E] EventEntity looks at LocalPlayer and starts talking
  1: 0x0100 [0x6F] WAIT_FRAME_DELAY: Yield until WaitTime reaches zero
  2: 0x0101 [0x70] WAIT_ENTITY_RENDER_FLAG: Wait while EventEntity->Render.Flags3 bit 2 is set (cancel turn if not)
  3: 0x0102 [0x29] REQ_SET_WAIT(priority=0x08, entity_id=Utsuitsui (ID: 17768495/0x010F202F), tag_num=0x01)
  4: 0x0109 [0x1D] PRINT_EVENT_MESSAGE(message_id=515*)
    → "This is the Vestal Vestibule for the Star Sibyl's ladies-in-waiting. I guess you could call this the second floor of the Heavens Tower you are in. <Grin>"
  5: 0x010C [0x23] WAIT_FOR_DIALOG_INTERACTION
  6: 0x010D [0x1D] PRINT_EVENT_MESSAGE(message_id=516*)
    → "The ladies today have lost their usual composure, but do not look down upon them. Your news has everyone excited after feeling down for such a long while. <Smile>"
  7: 0x0110 [0x23] WAIT_FOR_DIALOG_INTERACTION
  8: 0x0111 [0x29] REQ_SET_WAIT(priority=0x08, entity_id=Utsuitsui (ID: 17768495/0x010F202F), tag_num=0x02)
  9: 0x0118 [0x20] SET_CLI_EVENT_UC_FLAG: Unlock player control
 10: 0x011A [0x21] END_EVENT
 11: 0x011B [0x00] END_REQSTACK()
```

### Event 121

#### Metadata

| Field        | Value   |
|--------------|---------|
| Entrypoint   | 0x011C  |
| Data Size    | 1 bytes |
| Instructions | 1       |

```
      00 01 02 03 04 05 06 07  08 09 0A 0B 0C 0D 0E 0F
      -- -- -- -- -- -- -- --  -- -- -- -- -- -- -- --
0110:                                      00                       .   
```

#### Opcodes

```
  0: 0x011C [0x00] END_REQSTACK()
```

### Event 346

#### Metadata

| Field        | Value    |
|--------------|----------|
| Entrypoint   | 0x011D   |
| Data Size    | 47 bytes |
| Instructions | 14       |

```
      00 01 02 03 04 05 06 07  08 09 0A 0B 0C 0D 0E 0F
      -- -- -- -- -- -- -- --  -- -- -- -- -- -- -- --
0110:                                         1E F0 FF               ...
0120: FF 7F 6F 70 29 08 2F 20  0F 01 03 1D 0E 80 23 1D  ..op)./ ......#.
0130: 0F 80 23 29 08 2F 20 0F  01 04 29 08 2F 20 0F 01  ..#)./ ...)./ ..
0140: 05 29 08 2F 20 0F 01 06  20 00 21 00              .)./ ... .!.    
```

#### Opcodes

```
  0: 0x011D [0x1E] EventEntity looks at LocalPlayer and starts talking
  1: 0x0122 [0x6F] WAIT_FRAME_DELAY: Yield until WaitTime reaches zero
  2: 0x0123 [0x70] WAIT_ENTITY_RENDER_FLAG: Wait while EventEntity->Render.Flags3 bit 2 is set (cancel turn if not)
  3: 0x0124 [0x29] REQ_SET_WAIT(priority=0x08, entity_id=Utsuitsui (ID: 17768495/0x010F202F), tag_num=0x03)
  4: 0x012B [0x1D] PRINT_EVENT_MESSAGE(message_id=8297*)
    → "...M-m-my hands, l-l-look at them qu-qu-quiver... <Shiver>"
  5: 0x012E [0x23] WAIT_FOR_DIALOG_INTERACTION
  6: 0x012F [0x1D] PRINT_EVENT_MESSAGE(message_id=8298*)
    → "...Oh, S-S-Star S-S-Sibyl... Will W-W-Windurst become the scene for a b-b-bloody b-b-beastman b-b-binge...? <Cringe>"
  7: 0x0132 [0x23] WAIT_FOR_DIALOG_INTERACTION
  8: 0x0133 [0x29] REQ_SET_WAIT(priority=0x08, entity_id=Utsuitsui (ID: 17768495/0x010F202F), tag_num=0x04)
  9: 0x013A [0x29] REQ_SET_WAIT(priority=0x08, entity_id=Utsuitsui (ID: 17768495/0x010F202F), tag_num=0x05)
 10: 0x0141 [0x29] REQ_SET_WAIT(priority=0x08, entity_id=Utsuitsui (ID: 17768495/0x010F202F), tag_num=0x06)
 11: 0x0148 [0x20] SET_CLI_EVENT_UC_FLAG: Unlock player control
 12: 0x014A [0x21] END_EVENT
 13: 0x014B [0x00] END_REQSTACK()
```

### Event 359

#### Metadata

| Field        | Value    |
|--------------|----------|
| Entrypoint   | 0x014C   |
| Data Size    | 33 bytes |
| Instructions | 12       |

```
      00 01 02 03 04 05 06 07  08 09 0A 0B 0C 0D 0E 0F
      -- -- -- -- -- -- -- --  -- -- -- -- -- -- -- --
0140:                                      1E F0 FF FF              ....
0150: 7F 6F 70 29 08 2F 20 0F  01 01 1D 10 80 23 1D 11  .op)./ ......#..
0160: 80 23 29 08 2F 20 0F 01  02 20 00 21 00           .#)./ ... .!.   
```

#### Opcodes

```
  0: 0x014C [0x1E] EventEntity looks at LocalPlayer and starts talking
  1: 0x0151 [0x6F] WAIT_FRAME_DELAY: Yield until WaitTime reaches zero
  2: 0x0152 [0x70] WAIT_ENTITY_RENDER_FLAG: Wait while EventEntity->Render.Flags3 bit 2 is set (cancel turn if not)
  3: 0x0153 [0x29] REQ_SET_WAIT(priority=0x08, entity_id=Utsuitsui (ID: 17768495/0x010F202F), tag_num=0x01)
  4: 0x015A [0x1D] PRINT_EVENT_MESSAGE(message_id=8437*)
    → "These days Sibyl Guard Semih Lafihna is always rushing around. <Frown>"
  5: 0x015D [0x23] WAIT_FOR_DIALOG_INTERACTION
  6: 0x015E [0x1D] PRINT_EVENT_MESSAGE(message_id=8438*)
    → "Kupipi and Lady Zubaba seem buried in their duties as well. This all started when the Star Sibyl took ill, and it's been that way ever since. <Wince>"
  7: 0x0161 [0x23] WAIT_FOR_DIALOG_INTERACTION
  8: 0x0162 [0x29] REQ_SET_WAIT(priority=0x08, entity_id=Utsuitsui (ID: 17768495/0x010F202F), tag_num=0x02)
  9: 0x0169 [0x20] SET_CLI_EVENT_UC_FLAG: Unlock player control
 10: 0x016B [0x21] END_EVENT
 11: 0x016C [0x00] END_REQSTACK()
```

### Event 397

#### Metadata

| Field        | Value    |
|--------------|----------|
| Entrypoint   | 0x016D   |
| Data Size    | 33 bytes |
| Instructions | 12       |

```
      00 01 02 03 04 05 06 07  08 09 0A 0B 0C 0D 0E 0F
      -- -- -- -- -- -- -- --  -- -- -- -- -- -- -- --
0160:                                         1E F0 FF               ...
0170: FF 7F 6F 70 29 08 2F 20  0F 01 01 1D 12 80 23 1D  ..op)./ ......#.
0180: 13 80 23 29 08 2F 20 0F  01 02 20 00 21 00        ..#)./ ... .!.  
```

#### Opcodes

```
  0: 0x016D [0x1E] EventEntity looks at LocalPlayer and starts talking
  1: 0x0172 [0x6F] WAIT_FRAME_DELAY: Yield until WaitTime reaches zero
  2: 0x0173 [0x70] WAIT_ENTITY_RENDER_FLAG: Wait while EventEntity->Render.Flags3 bit 2 is set (cancel turn if not)
  3: 0x0174 [0x29] REQ_SET_WAIT(priority=0x08, entity_id=Utsuitsui (ID: 17768495/0x010F202F), tag_num=0x01)
  4: 0x017B [0x1D] PRINT_EVENT_MESSAGE(message_id=8529*)
    → "The Star Sibyl's pain is our pain. We share the pain between us so we don't overtax our Tarutaru-sized frames. <Proclaims>"
  5: 0x017E [0x23] WAIT_FOR_DIALOG_INTERACTION
  6: 0x017F [0x1D] PRINT_EVENT_MESSAGE(message_id=8530*)
    → "The Star Sibyl's joy is our joy. And because of our Tarutaru-sized frames, even the smallest joy is still enough to share. <Declare>"
  7: 0x0182 [0x23] WAIT_FOR_DIALOG_INTERACTION
  8: 0x0183 [0x29] REQ_SET_WAIT(priority=0x08, entity_id=Utsuitsui (ID: 17768495/0x010F202F), tag_num=0x02)
  9: 0x018A [0x20] SET_CLI_EVENT_UC_FLAG: Unlock player control
 10: 0x018C [0x21] END_EVENT
 11: 0x018D [0x00] END_REQSTACK()
```
