# 17768568 - Kierron

## Common Data

| Field            | Value                   |
|------------------|-------------------------|
| Zone             | Heavens Tower (ID: 242) |
| Block Size       | 1096 bytes              |
| Total Events     | 2                       |
| References Count | 30                      |

## List of Events

| Event ID              | Entrypoint   |   Size |   Instructions |
|-----------------------|--------------|--------|----------------|
| [65535](#event-65535) | 0x0000       |      1 |              1 |
| [433](#event-433)     | 0x0001       |    951 |            170 |

## DAT References (imed_data)

|   Index | Hex Value   |   Dec Value |
|---------|-------------|-------------|
|       0 | 0x0000      |           0 |
|       1 | 0x0002      |           2 |
|       2 | 0x0006      |           6 |
|       3 | 0x23EF      |        9199 |
|       4 | 0x001E      |          30 |
|       5 | 0x0009      |           9 |
|       6 | 0x0001      |           1 |
|       7 | 0x23F0      |        9200 |
|       8 | 0x23F1      |        9201 |
|       9 | 0x23F2      |        9202 |
|      10 | 0x23F3      |        9203 |
|      11 | 0x23F4      |        9204 |
|      12 | 0x23F5      |        9205 |
|      13 | 0x23F6      |        9206 |
|      14 | 0x0007      |           7 |
|      15 | 0x0003      |           3 |
|      16 | 0x23F7      |        9207 |
|      17 | 0x23F8      |        9208 |
|      18 | 0x0040      |          64 |
|      19 | 0x0008      |           8 |
|      20 | 0x01FF      |         511 |
|      21 | 0x23F9      |        9209 |
|      22 | 0x0005      |           5 |
|      23 | 0x0004      |           4 |
|      24 | 0x00C8      |         200 |
|      25 | 0x23FA      |        9210 |
|      26 | 0x23FB      |        9211 |
|      27 | 0x23FC      |        9212 |
|      28 | 0x00DF      |         223 |
|      29 | 0x2423      |        9251 |

## String References

- **9199**: <Sigh>... To see such vistas of peace and prosperity restored to my homeland once more...
- **9200**: Greetings, friend of Abyssea. [/Ivan/Ernst/Kierron/Cyril/Willis/Vincent] is my name. My superior officer [/Gilburt/Erich/Jerrett/Adrian/Fabricius/Fabien] and I have been dispatched here to provide logistical support to allies of our cause.
- **9201**: As you endeavor to restore light to our ravaged world, so too will we endeavor to aid you in every possible way.
- **9202**: How might I assist you this day?
- **9203**: What would you like to ask about? [My current cruor balance./Resistance outpost status./Teleporting to a cavernous maw./Nothing right now.]
- **9204**: The figures in my logbook tell me you have $0 cruor to your name.
- **9205**: Ask about which area? [Abyssea - Vunkerl./Abyssea - Misareaux./Abyssea - Attohwa./Never mind.]
- **9206**: According to the latest intelligence reports...
- **9207**: This area's pulse martello defense rate presently stands at $0%. The likelihood of an Abyssean horde invasion, on the other hand, is $1%.
- **9208**: You wish to teleport to a cavernous maw? In that case, please tell me your precise destination.
- **9209**: Go to which area's gateway? [Abyssea - La Theine./Abyssea - Konschtat./Abyssea - Tahrongi./Abyssea - Vunkerl./Abyssea - Misareaux./Abyssea - Attohwa./Abyssea - Altepa./Abyssea - Uleguerand./Abyssea - Grauberg./I've changed my mind.]
- **9210**: $1 cruor is required for transport to the gateway to Abyssea - [La Theine/Konschtat/Tahrongi/Attohwa/Misareaux/Vunkerl/Altepa/Uleguerand/Grauberg].
- **9211**: Ah, it seems you have insufficient cruor to make that journey.
- **9212**: Will you proceed? (Cruor balance: $2) [Make it so./Make it no.]
- **9251**: Very well, friend. Should you ever find yourself in need of assistance, do not hesitate to return.

## Events

### Event 65535

#### Metadata

| Field        | Value   |
|--------------|---------|
| Entrypoint   | 0x0000  |
| Data Size    | 1 bytes |
| Instructions | 1       |

```
      00 01 02 03 04 05 06 07  08 09 0A 0B 0C 0D 0E 0F
      -- -- -- -- -- -- -- --  -- -- -- -- -- -- -- --
0000: 00                                                .               
```

#### Opcodes

```
  0: 0x0000 [0x00] END_REQSTACK()
```

### Event 433

#### Metadata

| Field        | Value     |
|--------------|-----------|
| Entrypoint   | 0x0001    |
| Data Size    | 951 bytes |
| Instructions | 77        |

```
      00 01 02 03 04 05 06 07  08 09 0A 0B 0C 0D 0E 0F
      -- -- -- -- -- -- -- --  -- -- -- -- -- -- -- --
0000:    42 03 01 10 00 80 03  00 00 02 10 03 01 00 03   B..............
0010: 10 03 04 00 00 80 03 02  00 00 80 03 03 00 00 80  ................
0020: 03 05 00 07 10 02 05 10  00 80 00 47 00 02 06 10  ...........G....
0030: 00 80 00 47 00 03 02 00  01 80 02 04 10 00 80 00  ...G............
0040: 47 00 03 02 00 02 80 03  06 00 04 10 03 07 00 05  G...............
0050: 10 03 08 00 06 10 02 00  00 00 80 00 65 00 1D 03  ............e...
0060: 80 23 01 B6 03 1E F0 FF  FF 7F 1C 04 80 66 05 80  .#...........f..
0070: F8 FF FF 7F F8 FF FF 7F  74 6C 6B 30 02 00 00 06  ........tlk0....
0080: 80 00 98 00 03 02 10 05  00 1D 07 80 23 1D 08 80  ............#...
0090: 23 3C 01 10 06 80 06 80  1D 09 80 23 66 05 80 F8  #<.........#f...
00A0: FF FF 7F F8 FF FF 7F 74  6C 6B 31 24 0A 80 00 80  .......tlk1$....
00B0: 02 00 25 02 00 10 00 80  00 E8 00 66 05 80 F8 FF  ..%........f....
00C0: FF 7F F8 FF FF 7F 74 6C  6B 30 03 02 10 01 00 1D  ......tlk0......
00D0: 0B 80 23 66 05 80 F8 FF  FF 7F F8 FF FF 7F 74 6C  ..#f..........tl
00E0: 6B 31 01 AB 00 01 B6 03  02 00 10 06 80 00 A0 01  k1..............
00F0: 24 0C 80 00 80 00 80 25  02 00 10 00 80 00 23 01  $......%......#.
0100: 66 05 80 F8 FF FF 7F F8  FF FF 7F 74 6C 6B 30 1D  f..........tlk0.
0110: 0D 80 23 40 02 80 0E 80  01 10 06 80 43 00 43 01  ..#@........C.C.
0120: 01 87 01 02 00 10 06 80  00 4E 01 66 05 80 F8 FF  .........N.f....
0130: FF 7F F8 FF FF 7F 74 6C  6B 30 1D 0D 80 23 40 02  ......tlk0...#@.
0140: 80 0E 80 01 10 01 80 43  00 43 01 01 87 01 02 00  .......C.C......
0150: 10 01 80 00 79 01 66 05  80 F8 FF FF 7F F8 FF FF  ....y.f.........
0160: 7F 74 6C 6B 30 1D 0D 80  23 40 02 80 0E 80 01 10  .tlk0...#@......
0170: 0F 80 43 00 43 01 01 87  01 02 00 10 0F 80 00 87  ..C.C...........
0180: 01 01 AB 00 01 87 01 1D  10 80 23 66 05 80 F8 FF  ..........#f....
0190: FF 7F F8 FF FF 7F 74 6C  6B 31 01 AB 00 01 B6 03  ......tlk1......
01A0: 02 00 10 01 80 00 96 03  66 05 80 F8 FF FF 7F F8  ........f.......
01B0: FF FF 7F 74 6C 6B 30 1D  11 80 23 66 05 80 F8 FF  ...tlk0...#f....
01C0: FF 7F F8 FF FF 7F 74 6C  6B 31 02 04 00 00 80 00  ......tlk1......
01D0: F5 01 03 04 00 06 80 14  08 00 12 80 14 07 00 13  ................
01E0: 80 07 08 00 07 00 07 08  00 06 00 0F 08 00 14 80  ................
01F0: 03 03 00 08 00 24 15 80  00 80 03 00 25 02 00 10  .....$......%...
0200: 00 80 00 16 02 03 02 10  00 80 40 01 80 16 80 01  ..........@.....
0210: 10 06 80 01 EC 02 02 00  10 06 80 00 2F 02 03 02  ............/...
0220: 10 06 80 40 01 80 16 80  01 10 01 80 01 EC 02 02  ...@............
0230: 00 10 01 80 00 48 02 03  02 10 01 80 40 01 80 16  .....H......@...
0240: 80 01 10 0F 80 01 EC 02  02 00 10 0F 80 00 61 02  ..............a.
0250: 03 02 10 16 80 40 01 80  16 80 01 10 17 80 01 EC  .....@..........
0260: 02 02 00 10 17 80 00 7A  02 03 02 10 17 80 40 01  .......z......@.
0270: 80 16 80 01 10 16 80 01  EC 02 02 00 10 16 80 00  ................
0280: 93 02 03 02 10 0F 80 40  01 80 16 80 01 10 02 80  .......@........
0290: 01 EC 02 02 00 10 02 80  00 AC 02 03 02 10 02 80  ................
02A0: 40 01 80 16 80 01 10 0E  80 01 EC 02 02 00 10 0E  @...............
02B0: 80 00 C5 02 03 02 10 0E  80 40 01 80 16 80 01 10  .........@......
02C0: 13 80 01 EC 02 02 00 10  13 80 00 DE 02 03 02 10  ................
02D0: 13 80 40 01 80 16 80 01  10 05 80 01 EC 02 02 00  ..@.............
02E0: 10 05 80 00 EC 02 01 AB  00 01 EC 02 66 05 80 F8  ............f...
02F0: FF FF 7F F8 FF FF 7F 74  6C 6B 30 03 03 10 18 80  .......tlk0.....
0300: 1D 19 80 23 3C 01 10 13  80 06 80 43 00 43 01 02  ...#<......C.C..
0310: 03 10 06 80 00 36 03 1D  1A 80 23 66 05 80 F8 FF  .....6....#f....
0320: FF 7F F8 FF FF 7F 74 6C  6B 31 40 01 80 16 80 01  ......tlk1@.....
0330: 10 00 80 01 AB 00 66 05  80 F8 FF FF 7F F8 FF FF  ......f.........
0340: 7F 74 6C 6B 31 03 03 10  18 80 03 04 10 01 00 24  .tlk1..........$
0350: 1B 80 06 80 00 80 25 02  00 10 00 80 00 75 03 BB  ......%......u..
0360: 1C 80 F0 FF FF 7F F0 FF  FF 7F 69 6E 30 30 00 80  ..........in00..
0370: 21 00 01 93 03 02 00 10  06 80 00 93 03 40 01 80  !............@..
0380: 16 80 01 10 00 80 3D 01  10 13 80 06 80 01 AB 00  ......=.........
0390: 01 93 03 01 B6 03 02 00  10 0F 80 00 B6 03 66 05  ..............f.
03A0: 80 F8 FF FF 7F F8 FF FF  7F 74 6C 6B 30 1D 1D 80  .........tlk0...
03B0: 23 21 00 01 B6 03 21 00                           #!....!.        
```

#### Opcodes

```
  0: 0x0001 [0x42] SET_CLI_EVENT_CANCEL_DATA()
  1: 0x0002 [0x03] Work_Zone[1] = 0*
  2: 0x0007 [0x03] ExtData[1]->WorkLocal[0] = Work_Zone[2]
  3: 0x000C [0x03] ExtData[1]->WorkLocal[1] = Work_Zone[3]
  4: 0x0011 [0x03] ExtData[1]->WorkLocal[4] = 0*
  5: 0x0016 [0x03] ExtData[1]->WorkLocal[2] = 0*
  6: 0x001B [0x03] ExtData[1]->WorkLocal[3] = 0*
  7: 0x0020 [0x03] ExtData[1]->WorkLocal[5] = Work_Zone[7]
  8: 0x0025 [0x02] IF !(Work_Zone[5] == 0*) GOTO 0x0047
  9: 0x002D [0x02] IF !(Work_Zone[6] == 0*) GOTO 0x0047
 10: 0x0035 [0x03] ExtData[1]->WorkLocal[2] = 2*
 11: 0x003A [0x02] IF !(Work_Zone[4] == 0*) GOTO 0x0047
 12: 0x0042 [0x03] ExtData[1]->WorkLocal[2] = 6*
 13: 0x0047 [0x03] ExtData[1]->WorkLocal[6] = Work_Zone[4]
 14: 0x004C [0x03] ExtData[1]->WorkLocal[7] = Work_Zone[5]
 15: 0x0051 [0x03] ExtData[1]->WorkLocal[8] = Work_Zone[6]
 16: 0x0056 [0x02] IF !(ExtData[1]->WorkLocal[0] == 0*) GOTO 0x0065
 17: 0x005E [0x1D] PRINT_EVENT_MESSAGE(message_id=9199*)
    → "<Sigh>... To see such vistas of peace and prosperity restored to my homeland once more..."
 18: 0x0061 [0x23] WAIT_FOR_DIALOG_INTERACTION
 19: 0x0062 [0x01] GOTO 0x03B6
 20: 0x0065 [0x1E] EventEntity looks at LocalPlayer and starts talking
 21: 0x006A [0x1C] WAIT(30* ticks)
 22: 0x006D [0x66] LOAD_EXT_SCHEDULER_MAIN: Load scheduler "tlk0" with entities [EventEntity, EventEntity], work=9*
 23: 0x007C [0x02] IF !(ExtData[1]->WorkLocal[0] == 1*) GOTO 0x0098
 24: 0x0084 [0x03] Work_Zone[2] = ExtData[1]->WorkLocal[5]
 25: 0x0089 [0x1D] PRINT_EVENT_MESSAGE(message_id=9200*)
    → "Greetings, friend of Abyssea. [/Ivan/Ernst/Kierron/Cyril/Willis/Vincent] is my name. My superior officer [/Gilburt/Erich/Jerrett/Adrian/Fabricius/Fabien] and I have been dispatched here to provide logistical support to allies of our cause."
 26: 0x008C [0x23] WAIT_FOR_DIALOG_INTERACTION
 27: 0x008D [0x1D] PRINT_EVENT_MESSAGE(message_id=9201*)
    → "As you endeavor to restore light to our ravaged world, so too will we endeavor to aid you in every possible way."
 28: 0x0090 [0x23] WAIT_FOR_DIALOG_INTERACTION
 29: 0x0091 [0x3C] SET_BIT_FLAG_CONDITIONAL(target_work_offset=Work_Zone[1], bit_index_work_offset=1*, condition_work_offset=1*)
 30: 0x0098 [0x1D] PRINT_EVENT_MESSAGE(message_id=9202*)
    → "How might I assist you this day?"
 31: 0x009B [0x23] WAIT_FOR_DIALOG_INTERACTION
 32: 0x009C [0x66] LOAD_EXT_SCHEDULER_MAIN: Load scheduler "tlk1" with entities [EventEntity, EventEntity], work=9*

SUBROUTINE_00AB:
 33: 0x00AB [0x24] CREATE_DIALOG(message_id=9203*, default_option=0*, option_flags=ExtData[1]->WorkLocal[2])
    → "What would you like to ask about? [My current cruor balance./Resistance outpost status./Teleporting to a cavernous maw./Nothing right now.]"
 34: 0x00B2 [0x25] WAIT_DIALOG_SELECT()
 35: 0x00B3 [0x02] IF !(Work_Zone[0] == 0*) GOTO 0x00E8
 36: 0x00BB [0x66] LOAD_EXT_SCHEDULER_MAIN: Load scheduler "tlk0" with entities [EventEntity, EventEntity], work=9*
 37: 0x00CA [0x03] Work_Zone[2] = ExtData[1]->WorkLocal[1]
 38: 0x00CF [0x1D] PRINT_EVENT_MESSAGE(message_id=9204*)
    → "The figures in my logbook tell me you have $0 cruor to your name."
 39: 0x00D2 [0x23] WAIT_FOR_DIALOG_INTERACTION
 40: 0x00D3 [0x66] LOAD_EXT_SCHEDULER_MAIN: Load scheduler "tlk1" with entities [EventEntity, EventEntity], work=9*
 41: 0x00E2 [0x01] GOTO 0x00AB

SUBROUTINE_0187:
 42: 0x0187 [0x1D] PRINT_EVENT_MESSAGE(message_id=9207*)
    → "This area's pulse martello defense rate presently stands at $0%. The likelihood of an Abyssean horde invasion, on the other hand, is $1%."
 43: 0x018A [0x23] WAIT_FOR_DIALOG_INTERACTION
 44: 0x018B [0x66] LOAD_EXT_SCHEDULER_MAIN: Load scheduler "tlk1" with entities [EventEntity, EventEntity], work=9*
 45: 0x019A [0x01] GOTO 0x00AB

SUBROUTINE_02EC:
 46: 0x02EC [0x66] LOAD_EXT_SCHEDULER_MAIN: Load scheduler "tlk0" with entities [EventEntity, EventEntity], work=9*
 47: 0x02FB [0x03] Work_Zone[3] = 200*
 48: 0x0300 [0x1D] PRINT_EVENT_MESSAGE(message_id=9210*)
    → "$1 cruor is required for transport to the gateway to Abyssea - [La Theine/Konschtat/Tahrongi/Attohwa/Misareaux/Vunkerl/Altepa/Uleguerand/Grauberg]."
 49: 0x0303 [0x23] WAIT_FOR_DIALOG_INTERACTION
 50: 0x0304 [0x3C] SET_BIT_FLAG_CONDITIONAL(target_work_offset=Work_Zone[1], bit_index_work_offset=8*, condition_work_offset=1*)
 51: 0x030B [0x43] SEND_EVENT_UPDATE: Send pending tag to server (packet 0x005B)
 52: 0x030D [0x43] SEND_EVENT_UPDATE: Check pending flag (skip if not pending)
 53: 0x030F [0x02] IF !(Work_Zone[3] == 1*) GOTO 0x0336
 54: 0x0317 [0x1D] PRINT_EVENT_MESSAGE(message_id=9211*)
    → "Ah, it seems you have insufficient cruor to make that journey."
 55: 0x031A [0x23] WAIT_FOR_DIALOG_INTERACTION
 56: 0x031B [0x66] LOAD_EXT_SCHEDULER_MAIN: Load scheduler "tlk1" with entities [EventEntity, EventEntity], work=9*
 57: 0x032A [0x40] SET_BIT_WORK_RANGE(start_bit=2*, end_bit=5*, target=Work_Zone[1], source=0*)
 58: 0x0333 [0x01] GOTO 0x00AB
 59: 0x0336 [0x66] LOAD_EXT_SCHEDULER_MAIN: Load scheduler "tlk1" with entities [EventEntity, EventEntity], work=9*
 60: 0x0345 [0x03] Work_Zone[3] = 200*
 61: 0x034A [0x03] Work_Zone[4] = ExtData[1]->WorkLocal[1]
 62: 0x034F [0x24] CREATE_DIALOG(message_id=9212*, default_option=1*, option_flags=0*)
    → "Will you proceed? (Cruor balance: $2) [Make it so./Make it no.]"
 63: 0x0356 [0x25] WAIT_DIALOG_SELECT()
 64: 0x0357 [0x02] IF !(Work_Zone[0] == 0*) GOTO 0x0375
 65: 0x035F [0xBB] LOAD_EVENT_SCHEDULER_ALT: Load scheduler "in00" with entities [LocalPlayer, LocalPlayer], work=[223*, 0*]
 66: 0x0370 [0x21] END_EVENT
 67: 0x0371 [0x00] END_REQSTACK()

SUBROUTINE_0393:
 68: 0x0393 [0x01] GOTO 0x03B6
 69: 0x0396 [0x02] IF !(Work_Zone[0] == 3*) GOTO 0x03B6
 70: 0x039E [0x66] LOAD_EXT_SCHEDULER_MAIN: Load scheduler "tlk0" with entities [EventEntity, EventEntity], work=9*
 71: 0x03AD [0x1D] PRINT_EVENT_MESSAGE(message_id=9251*)
    → "Very well, friend. Should you ever find yourself in need of assistance, do not hesitate to return."
 72: 0x03B0 [0x23] WAIT_FOR_DIALOG_INTERACTION
 73: 0x03B1 [0x21] END_EVENT
 74: 0x03B2 [0x00] END_REQSTACK()

SUBROUTINE_03B6:
 75: 0x03B6 [0x21] END_EVENT
 76: 0x03B7 [0x00] END_REQSTACK()
```

#### Data or dead code:

```
# Dead code (unreachable instructions):
     0x00E5 [0x01] GOTO 0x03B6
     0x0184 [0x01] GOTO 0x0187
# Dead code (unreachable instructions):
     0x019D [0x01] GOTO 0x03B6
     0x02E9 [0x01] GOTO 0x02EC
# Dead code (unreachable instructions):
     0x0372 [0x01] GOTO 0x0393
     0x0390 [0x01] GOTO 0x0393
# Dead code (unreachable instructions):
     0x03B3 [0x01] GOTO 0x03B6
```
