# 17768470 - Semih Lafihna

## Common Data

| Field            | Value                   |
|------------------|-------------------------|
| Zone             | Heavens Tower (ID: 242) |
| Block Size       | 3548 bytes              |
| Total Events     | 152                     |
| References Count | 197                     |

## List of Events

| Event ID                     | Entrypoint   |   Size |   Instructions |
|------------------------------|--------------|--------|----------------|
| [65535](#event-65535)        | 0x0000       |      1 |              1 |
| [65535.1](#event-655351)     | 0x0001       |     16 |              2 |
| [65535.2](#event-655352)     | 0x0011       |     14 |              2 |
| [65535.3](#event-655353)     | 0x001F       |     37 |              5 |
| [65535.4](#event-655354)     | 0x0044       |     16 |              2 |
| [65535.5](#event-655355)     | 0x0054       |     14 |              2 |
| [65535.6](#event-655356)     | 0x0062       |     16 |              2 |
| [65535.7](#event-655357)     | 0x0072       |     14 |              2 |
| [65535.8](#event-655358)     | 0x0080       |     16 |              2 |
| [65535.9](#event-655359)     | 0x0090       |     14 |              2 |
| [65535.10](#event-6553510)   | 0x009E       |     16 |              2 |
| [65535.11](#event-6553511)   | 0x00AE       |     14 |              2 |
| [65535.12](#event-6553512)   | 0x00BC       |     22 |              3 |
| [65535.13](#event-6553513)   | 0x00D2       |     20 |              3 |
| [65535.14](#event-6553514)   | 0x00E6       |     16 |              2 |
| [65535.15](#event-6553515)   | 0x00F6       |     14 |              2 |
| [65535.16](#event-6553516)   | 0x0104       |     29 |              3 |
| [65535.17](#event-6553517)   | 0x0121       |     16 |              2 |
| [65535.18](#event-6553518)   | 0x0131       |     14 |              2 |
| [65535.19](#event-6553519)   | 0x013F       |     29 |              3 |
| [65535.20](#event-6553520)   | 0x015C       |     16 |              2 |
| [65535.21](#event-6553521)   | 0x016C       |     14 |              2 |
| [65535.22](#event-6553522)   | 0x017A       |     29 |              3 |
| [65535.23](#event-6553523)   | 0x0197       |     16 |              2 |
| [65535.24](#event-6553524)   | 0x01A7       |     14 |              2 |
| [65535.25](#event-6553525)   | 0x01B5       |     16 |              2 |
| [65535.26](#event-6553526)   | 0x01C5       |     14 |              2 |
| [65535.27](#event-6553527)   | 0x01D3       |     16 |              2 |
| [65535.28](#event-6553528)   | 0x01E3       |     14 |              2 |
| [65535.29](#event-6553529)   | 0x01F1       |     16 |              2 |
| [65535.30](#event-6553530)   | 0x0201       |     14 |              2 |
| [65535.31](#event-6553531)   | 0x020F       |     16 |              2 |
| [65535.32](#event-6553532)   | 0x021F       |     14 |              2 |
| [65535.33](#event-6553533)   | 0x022D       |     16 |              2 |
| [65535.34](#event-6553534)   | 0x023D       |     14 |              2 |
| [65535.35](#event-6553535)   | 0x024B       |      9 |              3 |
| [65535.36](#event-6553536)   | 0x0254       |     29 |              3 |
| [65535.37](#event-6553537)   | 0x0271       |     29 |              3 |
| [65535.38](#event-6553538)   | 0x028E       |     29 |              3 |
| [95](#event-95)              | 0x02AB       |      1 |              1 |
| [65535.39](#event-6553539)   | 0x02AC       |     15 |              5 |
| [65535.40](#event-6553540)   | 0x02BB       |     14 |              4 |
| [65535.41](#event-6553541)   | 0x02C9       |     24 |              6 |
| [65535.42](#event-6553542)   | 0x02E1       |     15 |              5 |
| [65535.43](#event-6553543)   | 0x02F0       |     12 |              4 |
| [65535.44](#event-6553544)   | 0x02FC       |     15 |              5 |
| [65535.45](#event-6553545)   | 0x030B       |      5 |              3 |
| [65535.46](#event-6553546)   | 0x0310       |      5 |              3 |
| [65535.47](#event-6553547)   | 0x0315       |     33 |              7 |
| [65535.48](#event-6553548)   | 0x0336       |     23 |              7 |
| [65535.49](#event-6553549)   | 0x034D       |     37 |              9 |
| [65535.50](#event-6553550)   | 0x0372       |     19 |              5 |
| [6](#event-6)                | 0x0385       |      1 |              1 |
| [107](#event-107)            | 0x0386       |      1 |              1 |
| [65535.51](#event-6553551)   | 0x0387       |     10 |              2 |
| [65535.52](#event-6553552)   | 0x0391       |     10 |              2 |
| [65535.53](#event-6553553)   | 0x039B       |      4 |              2 |
| [65535.54](#event-6553554)   | 0x039F       |     15 |              5 |
| [65535.55](#event-6553555)   | 0x03AE       |     15 |              5 |
| [65535.56](#event-6553556)   | 0x03BD       |     15 |              5 |
| [65535.57](#event-6553557)   | 0x03CC       |     30 |              8 |
| [65535.58](#event-6553558)   | 0x03EA       |     15 |              5 |
| [65535.59](#event-6553559)   | 0x03F9       |     15 |              5 |
| [65535.60](#event-6553560)   | 0x0408       |     10 |              2 |
| [65535.61](#event-6553561)   | 0x0412       |     15 |              5 |
| [65535.62](#event-6553562)   | 0x0421       |     10 |              2 |
| [65535.63](#event-6553563)   | 0x042B       |     18 |              6 |
| [65535.64](#event-6553564)   | 0x043D       |     15 |              5 |
| [65535.65](#event-6553565)   | 0x044C       |      5 |              3 |
| [65535.66](#event-6553566)   | 0x0451       |      5 |              3 |
| [65535.67](#event-6553567)   | 0x0456       |      5 |              3 |
| [65535.68](#event-6553568)   | 0x045B       |     12 |              4 |
| [65535.69](#event-6553569)   | 0x0467       |     19 |              5 |
| [65535.70](#event-6553570)   | 0x047A       |     23 |              7 |
| [65535.71](#event-6553571)   | 0x0491       |      9 |              5 |
| [65535.72](#event-6553572)   | 0x049A       |      5 |              3 |
| [65535.73](#event-6553573)   | 0x049F       |     19 |              5 |
| [65535.74](#event-6553574)   | 0x04B2       |      5 |              3 |
| [65535.75](#event-6553575)   | 0x04B7       |     33 |              7 |
| [65535.76](#event-6553576)   | 0x04D8       |      5 |              3 |
| [65535.77](#event-6553577)   | 0x04DD       |      9 |              5 |
| [65535.78](#event-6553578)   | 0x04E6       |      5 |              3 |
| [65535.79](#event-6553579)   | 0x04EB       |      5 |              3 |
| [65535.80](#event-6553580)   | 0x04F0       |      5 |              3 |
| [65535.81](#event-6553581)   | 0x04F5       |      5 |              3 |
| [114](#event-114)            | 0x04FA       |      1 |              1 |
| [65535.82](#event-6553582)   | 0x04FB       |      9 |              5 |
| [65535.83](#event-6553583)   | 0x0504       |      9 |              5 |
| [65535.84](#event-6553584)   | 0x050D       |     37 |              9 |
| [65535.85](#event-6553585)   | 0x0532       |      5 |              3 |
| [153](#event-153)            | 0x0537       |     16 |              3 |
| [65535.86](#event-6553586)   | 0x0547       |     27 |              7 |
| [65535.87](#event-6553587)   | 0x0562       |     41 |              9 |
| [65535.88](#event-6553588)   | 0x058B       |     14 |              4 |
| [65535.89](#event-6553589)   | 0x0599       |      5 |              3 |
| [166](#event-166)            | 0x059E       |     16 |              3 |
| [65535.90](#event-6553590)   | 0x05AE       |     33 |              7 |
| [65535.91](#event-6553591)   | 0x05CF       |      5 |              3 |
| [65535.92](#event-6553592)   | 0x05D4       |     16 |              6 |
| [65535.93](#event-6553593)   | 0x05E4       |     19 |              5 |
| [65535.94](#event-6553594)   | 0x05F7       |     19 |              5 |
| [190](#event-190)            | 0x060A       |     16 |              3 |
| [191](#event-191)            | 0x061A       |     16 |              3 |
| [192](#event-192)            | 0x062A       |     16 |              3 |
| [65535.95](#event-6553595)   | 0x063A       |     33 |              7 |
| [335](#event-335)            | 0x065B       |      1 |              1 |
| [362](#event-362)            | 0x065C       |      1 |              1 |
| [65535.96](#event-6553596)   | 0x065D       |     16 |              3 |
| [65535.97](#event-6553597)   | 0x066D       |     51 |             12 |
| [65535.98](#event-6553598)   | 0x06A0       |     16 |              3 |
| [65535.99](#event-6553599)   | 0x06B0       |     14 |              4 |
| [65535.100](#event-65535100) | 0x06BE       |     10 |              2 |
| [65535.101](#event-65535101) | 0x06C8       |     14 |              4 |
| [65535.102](#event-65535102) | 0x06D6       |      5 |              3 |
| [65535.103](#event-65535103) | 0x06DB       |      5 |              3 |
| [65535.104](#event-65535104) | 0x06E0       |      5 |              3 |
| [384](#event-384)            | 0x06E5       |      1 |              1 |
| [65535.105](#event-65535105) | 0x06E6       |     10 |              2 |
| [65535.106](#event-65535106) | 0x06F0       |     14 |              4 |
| [65535.107](#event-65535107) | 0x06FE       |     10 |              2 |
| [65535.108](#event-65535108) | 0x0708       |     14 |              4 |
| [65535.109](#event-65535109) | 0x0716       |     14 |              4 |
| [65535.110](#event-65535110) | 0x0724       |     10 |              2 |
| [65535.111](#event-65535111) | 0x072E       |     21 |              7 |
| [65535.112](#event-65535112) | 0x0743       |     20 |              4 |
| [65535.113](#event-65535113) | 0x0757       |     21 |              7 |
| [65535.114](#event-65535114) | 0x076C       |     14 |              4 |
| [65535.115](#event-65535115) | 0x077A       |     14 |              4 |
| [65535.116](#event-65535116) | 0x0788       |     16 |              3 |
| [385](#event-385)            | 0x0798       |      1 |              1 |
| [65535.117](#event-65535117) | 0x0799       |     10 |              2 |
| [65535.118](#event-65535118) | 0x07A3       |     14 |              4 |
| [65535.119](#event-65535119) | 0x07B1       |     14 |              4 |
| [386](#event-386)            | 0x07BF       |      1 |              1 |
| [65535.120](#event-65535120) | 0x07C0       |     10 |              2 |
| [65535.121](#event-65535121) | 0x07CA       |     15 |              5 |
| [65535.122](#event-65535122) | 0x07D9       |     10 |              2 |
| [65535.123](#event-65535123) | 0x07E3       |     15 |              5 |
| [65535.124](#event-65535124) | 0x07F2       |     14 |              4 |
| [65535.125](#event-65535125) | 0x0800       |     10 |              2 |
| [65535.126](#event-65535126) | 0x080A       |     14 |              4 |
| [430](#event-430)            | 0x0818       |      1 |              1 |
| [65535.127](#event-65535127) | 0x0819       |     27 |              5 |
| [65535.128](#event-65535128) | 0x0834       |     11 |              3 |
| [238](#event-238)            | 0x083F       |      1 |              1 |
| [239](#event-239)            | 0x0840       |      1 |              1 |
| [242](#event-242)            | 0x0841       |      1 |              1 |
| [251](#event-251)            | 0x0842       |      1 |              1 |
| [97](#event-97)              | 0x0843       |      1 |              1 |
| [440](#event-440)            | 0x0844       |      1 |              1 |
| [460](#event-460)            | 0x0845       |      1 |              1 |
| [65535.129](#event-65535129) | 0x0846       |     15 |              5 |

## DAT References (imed_data)

|   Index | Hex Value   |   Dec Value |
|---------|-------------|-------------|
|       0 | 0x0175      |         373 |
|       1 | 0x001E      |          30 |
|       2 | 0x0165      |         357 |
|       3 | 0x0169      |         361 |
|       4 | 0x016D      |         365 |
|       5 | 0x0167      |         359 |
|       6 | 0x018F      |         399 |
|       7 | 0x000D      |          13 |
|       8 | 0x0554      |        1364 |
|       9 | 0x765B      |       30299 |
|      10 | 0x00FA      |         250 |
|      11 | 0xFFFFE30F  |  4294959887 |
|      12 | 0x70D6      |       28886 |
|      13 | 0xFFFFF486  |  4294964358 |
|      14 | 0x761F      |       30239 |
|      15 | 0x01F3      |         499 |
|      16 | 0x0FF0      |        4080 |
|      17 | 0x0710      |        1808 |
|      18 | 0x775E      |       30558 |
|      19 | 0x0000      |           0 |
|      20 | 0x0E03      |        3587 |
|      21 | 0x0A11      |        2577 |
|      22 | 0x7512      |       29970 |
|      23 | 0xFFFFED31  |  4294962481 |
|      24 | 0x7537      |       30007 |
|      25 | 0x0067      |         103 |
|      26 | 0x0069      |         105 |
|      27 | 0x006C      |         108 |
|      28 | 0x006D      |         109 |
|      29 | 0x006E      |         110 |
|      30 | 0x006F      |         111 |
|      31 | 0x0070      |         112 |
|      32 | 0x0073      |         115 |
|      33 | 0x0005      |           5 |
|      34 | 0x0E48      |        3656 |
|      35 | 0xFFFF4869  |  4294920297 |
|      36 | 0x03D4      |         980 |
|      37 | 0xFFFFFE5E  |  4294966878 |
|      38 | 0x0AA3      |        2723 |
|      39 | 0x03C3      |         963 |
|      40 | 0x00B9      |         185 |
|      41 | 0xFFFFF4BF  |  4294964415 |
|      42 | 0xFFFFFFE8  |  4294967272 |
|      43 | 0xFFFFFBA9  |  4294966185 |
|      44 | 0x026B      |         619 |
|      45 | 0xFFFFFB95  |  4294966165 |
|      46 | 0x07BA      |        1978 |
|      47 | 0xFFFFFF1E  |  4294967070 |
|      48 | 0x020A      |         522 |
|      49 | 0xFFFFFFFA  |  4294967290 |
|      50 | 0x1E3D      |        7741 |
|      51 | 0xFFFF3CB0  |  4294917296 |
|      52 | 0xFFFFFE2E  |  4294966830 |
|      53 | 0xFFFFA407  |  4294943751 |
|      54 | 0xFFFF5038  |  4294922296 |
|      55 | 0x0B84      |        2948 |
|      56 | 0x00B0      |         176 |
|      57 | 0xFFFFC556  |  4294952278 |
|      58 | 0xFFFF4868  |  4294920296 |
|      59 | 0xFFFFF65F  |  4294964831 |
|      60 | 0x0126      |         294 |
|      61 | 0x0801      |        2049 |
|      62 | 0xFFFFFE60  |  4294966880 |
|      63 | 0xFFFFFFCD  |  4294967245 |
|      64 | 0x0B1C      |        2844 |
|      65 | 0x000F      |          15 |
|      66 | 0x1ECC      |        7884 |
|      67 | 0x0096      |         150 |
|      68 | 0x0097      |         151 |
|      69 | 0x0098      |         152 |
|      70 | 0x0099      |         153 |
|      71 | 0x009A      |         154 |
|      72 | 0x009B      |         155 |
|      73 | 0x009C      |         156 |
|      74 | 0x009D      |         157 |
|      75 | 0x009E      |         158 |
|      76 | 0x009F      |         159 |
|      77 | 0x00A2      |         162 |
|      78 | 0x00A3      |         163 |
|      79 | 0x00A6      |         166 |
|      80 | 0x00A8      |         168 |
|      81 | 0x00A9      |         169 |
|      82 | 0x00AA      |         170 |
|      83 | 0x00AF      |         175 |
|      84 | 0x00B1      |         177 |
|      85 | 0x00B2      |         178 |
|      86 | 0x00C1      |         193 |
|      87 | 0x00C2      |         194 |
|      88 | 0x00C3      |         195 |
|      89 | 0x00C4      |         196 |
|      90 | 0x00C5      |         197 |
|      91 | 0x00C6      |         198 |
|      92 | 0x00C7      |         199 |
|      93 | 0x003A      |          58 |
|      94 | 0xF76F      |       63343 |
|      95 | 0xFFFF1394  |  4294906772 |
|      96 | 0x0471      |        1137 |
|      97 | 0xFFFFF83B  |  4294965307 |
|      98 | 0xF19D      |       61853 |
|      99 | 0xFFFF13AC  |  4294906796 |
|     100 | 0x03A6      |         934 |
|     101 | 0x0064      |         100 |
|     102 | 0xFFFFF183  |  4294963587 |
|     103 | 0xB3EB      |       46059 |
|     104 | 0xFFFF11B9  |  4294906297 |
|     105 | 0xFFFFE81A  |  4294961178 |
|     106 | 0xE18F      |       57743 |
|     107 | 0x03A0      |         928 |
|     108 | 0xFFFFEC9F  |  4294962335 |
|     109 | 0xCA4B      |       51787 |
|     110 | 0xFFFF11B8  |  4294906296 |
|     111 | 0x0D2D      |        3373 |
|     112 | 0xFFFFF552  |  4294964562 |
|     113 | 0xB63B      |       46651 |
|     114 | 0x0151      |         337 |
|     115 | 0x0D11      |        3345 |
|     116 | 0x0188      |         392 |
|     117 | 0x0189      |         393 |
|     118 | 0x018A      |         394 |
|     119 | 0x018B      |         395 |
|     120 | 0x018C      |         396 |
|     121 | 0x01AE      |         430 |
|     122 | 0xFFFFFED3  |  4294966995 |
|     123 | 0xCA02      |       51714 |
|     124 | 0xFFFF2C17  |  4294913047 |
|     125 | 0x0C04      |        3076 |
|     126 | 0x0028      |          40 |
|     127 | 0xFFFFFCBE  |  4294966462 |
|     128 | 0xF2F4      |       62196 |
|     129 | 0xFFFFF0F0  |  4294963440 |
|     130 | 0xF301      |       62209 |
|     131 | 0xFFFFE6C8  |  4294960840 |
|     132 | 0xEDF3      |       60915 |
|     133 | 0xBABA      |       47802 |
|     134 | 0xFFFF11A3  |  4294906275 |
|     135 | 0x040D      |        1037 |
|     136 | 0xFFFFFA81  |  4294965889 |
|     137 | 0xBEAE      |       48814 |
|     138 | 0xFFFFFB9F  |  4294966175 |
|     139 | 0xBCF4      |       48372 |
|     140 | 0x0313      |         787 |
|     141 | 0xFFFFFC9C  |  4294966428 |
|     142 | 0xB9A9      |       47529 |
|     143 | 0x2025      |        8229 |
|     144 | 0x2028      |        8232 |
|     145 | 0x2051      |        8273 |
|     146 | 0xBB5F      |       47967 |
|     147 | 0x037B      |         891 |
|     148 | 0xC00B      |       49163 |
|     149 | 0x3672      |       13938 |
|     150 | 0x10E66     |       69222 |
|     151 | 0xFFFF0FC4  |  4294905796 |
|     152 | 0x017A      |         378 |
|     153 | 0x4E2A      |       20010 |
|     154 | 0x10F58     |       69464 |
|     155 | 0x6130      |       24880 |
|     156 | 0xFFFF0FC5  |  4294905797 |
|     157 | 0x24586     |      148870 |
|     158 | 0xFFFFBF80  |  4294950784 |
|     159 | 0x2710      |       10000 |
|     160 | 0x07C0      |        1984 |
|     161 | 0x23D9D     |      146845 |
|     162 | 0xFFFFBF20  |  4294950688 |
|     163 | 0x2379F     |      145311 |
|     164 | 0xFFFF9D13  |  4294941971 |
|     165 | 0x32C7      |       12999 |
|     166 | 0x0864      |        2148 |
|     167 | 0x2302F     |      143407 |
|     168 | 0xFFFFA436  |  4294943798 |
|     169 | 0x22E98     |      143000 |
|     170 | 0xFFFFA81C  |  4294944796 |
|     171 | 0x22EC3     |      143043 |
|     172 | 0xFFFFA141  |  4294943041 |
|     173 | 0xFFFF7261  |  4294931041 |
|     174 | 0x23846     |      145478 |
|     175 | 0xFFFFC97A  |  4294953338 |
|     176 | 0x075E      |        1886 |
|     177 | 0xFFFFFAA6  |  4294965926 |
|     178 | 0xB801      |       47105 |
|     179 | 0x0E24      |        3620 |
|     180 | 0xFFFFFCDA  |  4294966490 |
|     181 | 0xB91E      |       47390 |
|     182 | 0xFFFFD417  |  4294956055 |
|     183 | 0x0BB1      |        2993 |
|     184 | 0xFFFFF5C3  |  4294964675 |
|     185 | 0xFFFFF092  |  4294963346 |
|     186 | 0x0BF0      |        3056 |
|     187 | 0xFFFFF615  |  4294964757 |
|     188 | 0xFFFFFDE4  |  4294966756 |
|     189 | 0xFFFFF803  |  4294965251 |
|     190 | 0x0FE2      |        4066 |
|     191 | 0x0CE8      |        3304 |
|     192 | 0xB750      |       46928 |
|     193 | 0xFFFFF326  |  4294964006 |
|     194 | 0xC374      |       50036 |
|     195 | 0xFFFFFD5E  |  4294966622 |
|     196 | 0x741F      |       29727 |

## String References

- **103**: And you are...
- **105**: Kupipi, what business does [he/she] have here?
- **108**: I don't need the details, Kupipi. Show me [his/her] file.
- **109**: This is a nice resume. It seems as if you fight betterrr than you look.
- **110**: ...And it also seems that today is not your day.
- **111**: Kupipi. Process this adventurer's mission paperrrs.
- **112**: Relay [his/her] orders to [him/her] and give [him/her] $6.
- **115**: I can sense many good things within you. Let's see how you manage with this new task.
- **150**: Ah, I see you have already arrived. Did I keep you waiting?
- **151**: Our fine cleric, Kupipi, didn't doubt that I had called you herrre, did she?
- **152**: This is the Planetarium. By using the sacred Star Spring, one can see all the stars in the heavens.
- **153**: When the Star Sibyl peers into this spring, she can decipher the movements of the stars, and reveal to us our futurrre.
- **154**: We Sibyl Guards exist to protect that futurrre.
- **155**: I showed the report you deliverrred to the Star Sibyl.
- **156**: Do not worry, as she had already sensed the imminent revival of the Shadow Lord.
- **157**: However, for the sake of national security, we ask you to keep this information to yourself.
- **158**: There is no reason to inform the public at this time. The wounds that the Tarutaru received twenty yearrrs ago still have not healed, and releasing this information now would only cause unwanted confusion.
- **159**: As for you, you can go back to your adventuring. The Sibyl Guards will take the investigation from here.
- **162**: Ajido-Marujido!
- **163**: What is the meaning of this!? You are no longer allowed to have audiences with the Star Sibyl. Leave at once, traitorrr!
- **166**: Well, I'm sure we can fare better than some powerrr-hungry minister with his head in a hole.
- **168**: What is this?
- **169**: Wait! Ajido-Marujido!
- **170**: The pages... They're all blank. Is this some kind of joke?
- **175**: ...
- **176**: <Player>... I have a mission for you.
- **177**: Follow that Tarutaru and find out what he is up to. Report to me when you do.
- **178**: I cannot forgive any who endanger the peace of Windurst.
- **193**: Ah, I see you are back, <Player>.
- **194**: Tell me what you have learrrned.
- **195**: I see... So, Ajido-Marujido went all the way to Castle Oztroja.
- **196**: And had an audience with their king!? How many of our country's laws does he have to brrreak to be satisfied?
- **197**: I commend you on your fine work. I will report this information to the Star Sibyl at once.
- **198**: And following that, I think I will personally deliver a grave warning to our rogue ministerrr.
- **199**: You, for now, may rest. I sense another mission for you very soon.
- **337**: The will of the Star Sibyl is the will of the Dawn Goddess! How darrre you defy her!
- **392**: As you wish.
- **393**: I am sure you have heard the stories of Windurst sealing Castle Zvahl with a talisman nearly twenty years ago.
- **394**: This talisman was placed in the central tower of the Horutoto Ruins and sealed with a powerrrful barrier.
- **395**: Howeverrr, on the night of the last full moon, this barrier was broken and the talisman stolen.
- **396**: To think that the Yagudo now have the powerrr to nullify such magic!
- **399**: My apologies.
- **430**: Your Holiness! We must stop the revival of the Shadow Lord at all costs! We cannot let historrry repeat itself!
- **8229**: What are you saying? You have knowledge of this fiend!?
- **8232**: Idiocy! The Great Beast is no longer--
- **8273**: ... Your will is mine, Star Sibyl.

## Events

### Event 65535

#### Metadata

| Field        | Value   |
|--------------|---------|
| Entrypoint   | 0x0000  |
| Data Size    | 1 bytes |
| Instructions | 1       |

```
      00 01 02 03 04 05 06 07  08 09 0A 0B 0C 0D 0E 0F
      -- -- -- -- -- -- -- --  -- -- -- -- -- -- -- --
0000: 00                                                .               
```

#### Opcodes

```
  0: 0x0000 [0x00] END_REQSTACK()
```

### Event 65535.1

#### Metadata

| Field        | Value    |
|--------------|----------|
| Entrypoint   | 0x0001   |
| Data Size    | 16 bytes |
| Instructions | 2        |

```
      00 01 02 03 04 05 06 07  08 09 0A 0B 0C 0D 0E 0F
      -- -- -- -- -- -- -- --  -- -- -- -- -- -- -- --
0000:    5B 00 80 F8 FF FF 7F  F8 FF FF 7F 74 6C 6B 30   [..........tlk0
0010: 00                                                .               
```

#### Opcodes

```
  0: 0x0001 [0x5B] LOAD_EXT_SCHEDULER: Load scheduler "tlk0" with entities [EventEntity, EventEntity], work=373*
  1: 0x0010 [0x00] END_REQSTACK()
```

### Event 65535.2

#### Metadata

| Field        | Value    |
|--------------|----------|
| Entrypoint   | 0x0011   |
| Data Size    | 14 bytes |
| Instructions | 2        |

```
      00 01 02 03 04 05 06 07  08 09 0A 0B 0C 0D 0E 0F
      -- -- -- -- -- -- -- --  -- -- -- -- -- -- -- --
0010:    53 F8 FF FF 7F F8 FF  FF 7F 74 6C 6B 30 00      S........tlk0. 
```

#### Opcodes

```
  0: 0x0011 [0x53] WAIT_SCHEDULER_TASK: Wait for scheduler "tlk0" with entities [EventEntity, EventEntity]
  1: 0x001E [0x00] END_REQSTACK()
```

### Event 65535.3

#### Metadata

| Field        | Value    |
|--------------|----------|
| Entrypoint   | 0x001F   |
| Data Size    | 37 bytes |
| Instructions | 5        |

```
      00 01 02 03 04 05 06 07  08 09 0A 0B 0C 0D 0E 0F
      -- -- -- -- -- -- -- --  -- -- -- -- -- -- -- --
0010:                                               5B                 [
0020: 00 80 F8 FF FF 7F F8 FF  FF 7F 74 6C 6B 30 53 F8  ..........tlk0S.
0030: FF FF 7F F8 FF FF 7F 74  6C 6B 30 5E 69 64 6C 30  .......tlk0^idl0
0040: 1C 01 80 00                                       ....            
```

#### Opcodes

```
  0: 0x001F [0x5B] LOAD_EXT_SCHEDULER: Load scheduler "tlk0" with entities [EventEntity, EventEntity], work=373*
  1: 0x002E [0x53] WAIT_SCHEDULER_TASK: Wait for scheduler "tlk0" with entities [EventEntity, EventEntity]
  2: 0x003B [0x5E] EventEntity goes idle (kills current action) (animation: "idl0")
  3: 0x0040 [0x1C] WAIT(30* ticks)
  4: 0x0043 [0x00] END_REQSTACK()
```

### Event 65535.4

#### Metadata

| Field        | Value    |
|--------------|----------|
| Entrypoint   | 0x0044   |
| Data Size    | 16 bytes |
| Instructions | 2        |

```
      00 01 02 03 04 05 06 07  08 09 0A 0B 0C 0D 0E 0F
      -- -- -- -- -- -- -- --  -- -- -- -- -- -- -- --
0040:             5B 00 80 F8  FF FF 7F F8 FF FF 7F 74      [..........t
0050: 6C 6B 31 00                                       lk1.            
```

#### Opcodes

```
  0: 0x0044 [0x5B] LOAD_EXT_SCHEDULER: Load scheduler "tlk1" with entities [EventEntity, EventEntity], work=373*
  1: 0x0053 [0x00] END_REQSTACK()
```

### Event 65535.5

#### Metadata

| Field        | Value    |
|--------------|----------|
| Entrypoint   | 0x0054   |
| Data Size    | 14 bytes |
| Instructions | 2        |

```
      00 01 02 03 04 05 06 07  08 09 0A 0B 0C 0D 0E 0F
      -- -- -- -- -- -- -- --  -- -- -- -- -- -- -- --
0050:             53 F8 FF FF  7F F8 FF FF 7F 74 6C 6B      S........tlk
0060: 31 00                                             1.              
```

#### Opcodes

```
  0: 0x0054 [0x53] WAIT_SCHEDULER_TASK: Wait for scheduler "tlk1" with entities [EventEntity, EventEntity]
  1: 0x0061 [0x00] END_REQSTACK()
```

### Event 65535.6

#### Metadata

| Field        | Value    |
|--------------|----------|
| Entrypoint   | 0x0062   |
| Data Size    | 16 bytes |
| Instructions | 2        |

```
      00 01 02 03 04 05 06 07  08 09 0A 0B 0C 0D 0E 0F
      -- -- -- -- -- -- -- --  -- -- -- -- -- -- -- --
0060:       5B 00 80 F8 FF FF  7F F8 FF FF 7F 62 6F 6B    [..........bok
0070: 30 00                                             0.              
```

#### Opcodes

```
  0: 0x0062 [0x5B] LOAD_EXT_SCHEDULER: Load scheduler "bok0" with entities [EventEntity, EventEntity], work=373*
  1: 0x0071 [0x00] END_REQSTACK()
```

### Event 65535.7

#### Metadata

| Field        | Value    |
|--------------|----------|
| Entrypoint   | 0x0072   |
| Data Size    | 14 bytes |
| Instructions | 2        |

```
      00 01 02 03 04 05 06 07  08 09 0A 0B 0C 0D 0E 0F
      -- -- -- -- -- -- -- --  -- -- -- -- -- -- -- --
0070:       53 F8 FF FF 7F F8  FF FF 7F 62 6F 6B 30 00    S........bok0.
```

#### Opcodes

```
  0: 0x0072 [0x53] WAIT_SCHEDULER_TASK: Wait for scheduler "bok0" with entities [EventEntity, EventEntity]
  1: 0x007F [0x00] END_REQSTACK()
```

### Event 65535.8

#### Metadata

| Field        | Value    |
|--------------|----------|
| Entrypoint   | 0x0080   |
| Data Size    | 16 bytes |
| Instructions | 2        |

```
      00 01 02 03 04 05 06 07  08 09 0A 0B 0C 0D 0E 0F
      -- -- -- -- -- -- -- --  -- -- -- -- -- -- -- --
0080: 5B 00 80 F8 FF FF 7F F8  FF FF 7F 62 6F 6B 31 00  [..........bok1.
```

#### Opcodes

```
  0: 0x0080 [0x5B] LOAD_EXT_SCHEDULER: Load scheduler "bok1" with entities [EventEntity, EventEntity], work=373*
  1: 0x008F [0x00] END_REQSTACK()
```

### Event 65535.9

#### Metadata

| Field        | Value    |
|--------------|----------|
| Entrypoint   | 0x0090   |
| Data Size    | 14 bytes |
| Instructions | 2        |

```
      00 01 02 03 04 05 06 07  08 09 0A 0B 0C 0D 0E 0F
      -- -- -- -- -- -- -- --  -- -- -- -- -- -- -- --
0090: 53 F8 FF FF 7F F8 FF FF  7F 62 6F 6B 31 00        S........bok1.  
```

#### Opcodes

```
  0: 0x0090 [0x53] WAIT_SCHEDULER_TASK: Wait for scheduler "bok1" with entities [EventEntity, EventEntity]
  1: 0x009D [0x00] END_REQSTACK()
```

### Event 65535.10

#### Metadata

| Field        | Value    |
|--------------|----------|
| Entrypoint   | 0x009E   |
| Data Size    | 16 bytes |
| Instructions | 2        |

```
      00 01 02 03 04 05 06 07  08 09 0A 0B 0C 0D 0E 0F
      -- -- -- -- -- -- -- --  -- -- -- -- -- -- -- --
0090:                                            5B 00                [.
00A0: 80 F8 FF FF 7F F8 FF FF  7F 69 62 6F 30 00        .........ibo0.  
```

#### Opcodes

```
  0: 0x009E [0x5B] LOAD_EXT_SCHEDULER: Load scheduler "ibo0" with entities [EventEntity, EventEntity], work=373*
  1: 0x00AD [0x00] END_REQSTACK()
```

### Event 65535.11

#### Metadata

| Field        | Value    |
|--------------|----------|
| Entrypoint   | 0x00AE   |
| Data Size    | 14 bytes |
| Instructions | 2        |

```
      00 01 02 03 04 05 06 07  08 09 0A 0B 0C 0D 0E 0F
      -- -- -- -- -- -- -- --  -- -- -- -- -- -- -- --
00A0:                                            53 F8                S.
00B0: FF FF 7F F8 FF FF 7F 69  62 6F 30 00              .......ibo0.    
```

#### Opcodes

```
  0: 0x00AE [0x53] WAIT_SCHEDULER_TASK: Wait for scheduler "ibo0" with entities [EventEntity, EventEntity]
  1: 0x00BB [0x00] END_REQSTACK()
```

### Event 65535.12

#### Metadata

| Field        | Value    |
|--------------|----------|
| Entrypoint   | 0x00BC   |
| Data Size    | 22 bytes |
| Instructions | 3        |

```
      00 01 02 03 04 05 06 07  08 09 0A 0B 0C 0D 0E 0F
      -- -- -- -- -- -- -- --  -- -- -- -- -- -- -- --
00B0:                                      81 00 F8 FF              ....
00C0: FF 7F 5B 00 80 F8 FF FF  7F F8 FF FF 7F 75 6E 61  ..[..........una
00D0: 30 00                                             0.              
```

#### Opcodes

```
  0: 0x00BC [0x81] SET_ENTITY_BLINKING(blink_flag=0x00, entity=EventEntity)
  1: 0x00C2 [0x5B] LOAD_EXT_SCHEDULER: Load scheduler "una0" with entities [EventEntity, EventEntity], work=373*
  2: 0x00D1 [0x00] END_REQSTACK()
```

### Event 65535.13

#### Metadata

| Field        | Value    |
|--------------|----------|
| Entrypoint   | 0x00D2   |
| Data Size    | 20 bytes |
| Instructions | 3        |

```
      00 01 02 03 04 05 06 07  08 09 0A 0B 0C 0D 0E 0F
      -- -- -- -- -- -- -- --  -- -- -- -- -- -- -- --
00D0:       53 F8 FF FF 7F F8  FF FF 7F 75 6E 61 30 81    S........una0.
00E0: 01 F8 FF FF 7F 00                                 ......          
```

#### Opcodes

```
  0: 0x00D2 [0x53] WAIT_SCHEDULER_TASK: Wait for scheduler "una0" with entities [EventEntity, EventEntity]
  1: 0x00DF [0x81] SET_ENTITY_BLINKING(blink_flag=0x01, entity=EventEntity)
  2: 0x00E5 [0x00] END_REQSTACK()
```

### Event 65535.14

#### Metadata

| Field        | Value    |
|--------------|----------|
| Entrypoint   | 0x00E6   |
| Data Size    | 16 bytes |
| Instructions | 2        |

```
      00 01 02 03 04 05 06 07  08 09 0A 0B 0C 0D 0E 0F
      -- -- -- -- -- -- -- --  -- -- -- -- -- -- -- --
00E0:                   5B 02  80 F8 FF FF 7F F8 FF FF        [.........
00F0: 7F 74 68 6B 31 00                                 .thk1.          
```

#### Opcodes

```
  0: 0x00E6 [0x5B] LOAD_EXT_SCHEDULER: Load scheduler "thk1" with entities [EventEntity, EventEntity], work=357*
  1: 0x00F5 [0x00] END_REQSTACK()
```

### Event 65535.15

#### Metadata

| Field        | Value    |
|--------------|----------|
| Entrypoint   | 0x00F6   |
| Data Size    | 14 bytes |
| Instructions | 2        |

```
      00 01 02 03 04 05 06 07  08 09 0A 0B 0C 0D 0E 0F
      -- -- -- -- -- -- -- --  -- -- -- -- -- -- -- --
00F0:                   53 F8  FF FF 7F F8 FF FF 7F 74        S........t
0100: 68 6B 31 00                                       hk1.            
```

#### Opcodes

```
  0: 0x00F6 [0x53] WAIT_SCHEDULER_TASK: Wait for scheduler "thk1" with entities [EventEntity, EventEntity]
  1: 0x0103 [0x00] END_REQSTACK()
```

### Event 65535.16

#### Metadata

| Field        | Value    |
|--------------|----------|
| Entrypoint   | 0x0104   |
| Data Size    | 29 bytes |
| Instructions | 3        |

```
      00 01 02 03 04 05 06 07  08 09 0A 0B 0C 0D 0E 0F
      -- -- -- -- -- -- -- --  -- -- -- -- -- -- -- --
0100:             5B 02 80 F8  FF FF 7F F8 FF FF 7F 74      [..........t
0110: 68 6B 31 53 F8 FF FF 7F  F8 FF FF 7F 74 68 6B 31  hk1S........thk1
0120: 00                                                .               
```

#### Opcodes

```
  0: 0x0104 [0x5B] LOAD_EXT_SCHEDULER: Load scheduler "thk1" with entities [EventEntity, EventEntity], work=357*
  1: 0x0113 [0x53] WAIT_SCHEDULER_TASK: Wait for scheduler "thk1" with entities [EventEntity, EventEntity]
  2: 0x0120 [0x00] END_REQSTACK()
```

### Event 65535.17

#### Metadata

| Field        | Value    |
|--------------|----------|
| Entrypoint   | 0x0121   |
| Data Size    | 16 bytes |
| Instructions | 2        |

```
      00 01 02 03 04 05 06 07  08 09 0A 0B 0C 0D 0E 0F
      -- -- -- -- -- -- -- --  -- -- -- -- -- -- -- --
0120:    5B 02 80 F8 FF FF 7F  F8 FF FF 7F 74 68 6B 32   [..........thk2
0130: 00                                                .               
```

#### Opcodes

```
  0: 0x0121 [0x5B] LOAD_EXT_SCHEDULER: Load scheduler "thk2" with entities [EventEntity, EventEntity], work=357*
  1: 0x0130 [0x00] END_REQSTACK()
```

### Event 65535.18

#### Metadata

| Field        | Value    |
|--------------|----------|
| Entrypoint   | 0x0131   |
| Data Size    | 14 bytes |
| Instructions | 2        |

```
      00 01 02 03 04 05 06 07  08 09 0A 0B 0C 0D 0E 0F
      -- -- -- -- -- -- -- --  -- -- -- -- -- -- -- --
0130:    53 F8 FF FF 7F F8 FF  FF 7F 74 68 6B 32 00      S........thk2. 
```

#### Opcodes

```
  0: 0x0131 [0x53] WAIT_SCHEDULER_TASK: Wait for scheduler "thk2" with entities [EventEntity, EventEntity]
  1: 0x013E [0x00] END_REQSTACK()
```

### Event 65535.19

#### Metadata

| Field        | Value    |
|--------------|----------|
| Entrypoint   | 0x013F   |
| Data Size    | 29 bytes |
| Instructions | 3        |

```
      00 01 02 03 04 05 06 07  08 09 0A 0B 0C 0D 0E 0F
      -- -- -- -- -- -- -- --  -- -- -- -- -- -- -- --
0130:                                               5B                 [
0140: 02 80 F8 FF FF 7F F8 FF  FF 7F 74 68 6B 32 53 F8  ..........thk2S.
0150: FF FF 7F F8 FF FF 7F 74  68 6B 32 00              .......thk2.    
```

#### Opcodes

```
  0: 0x013F [0x5B] LOAD_EXT_SCHEDULER: Load scheduler "thk2" with entities [EventEntity, EventEntity], work=357*
  1: 0x014E [0x53] WAIT_SCHEDULER_TASK: Wait for scheduler "thk2" with entities [EventEntity, EventEntity]
  2: 0x015B [0x00] END_REQSTACK()
```

### Event 65535.20

#### Metadata

| Field        | Value    |
|--------------|----------|
| Entrypoint   | 0x015C   |
| Data Size    | 16 bytes |
| Instructions | 2        |

```
      00 01 02 03 04 05 06 07  08 09 0A 0B 0C 0D 0E 0F
      -- -- -- -- -- -- -- --  -- -- -- -- -- -- -- --
0150:                                      5B 03 80 F8              [...
0160: FF FF 7F F8 FF FF 7F 70  6F 69 30 00              .......poi0.    
```

#### Opcodes

```
  0: 0x015C [0x5B] LOAD_EXT_SCHEDULER: Load scheduler "poi0" with entities [EventEntity, EventEntity], work=361*
  1: 0x016B [0x00] END_REQSTACK()
```

### Event 65535.21

#### Metadata

| Field        | Value    |
|--------------|----------|
| Entrypoint   | 0x016C   |
| Data Size    | 14 bytes |
| Instructions | 2        |

```
      00 01 02 03 04 05 06 07  08 09 0A 0B 0C 0D 0E 0F
      -- -- -- -- -- -- -- --  -- -- -- -- -- -- -- --
0160:                                      53 F8 FF FF              S...
0170: 7F F8 FF FF 7F 70 6F 69  30 00                    .....poi0.      
```

#### Opcodes

```
  0: 0x016C [0x53] WAIT_SCHEDULER_TASK: Wait for scheduler "poi0" with entities [EventEntity, EventEntity]
  1: 0x0179 [0x00] END_REQSTACK()
```

### Event 65535.22

#### Metadata

| Field        | Value    |
|--------------|----------|
| Entrypoint   | 0x017A   |
| Data Size    | 29 bytes |
| Instructions | 3        |

```
      00 01 02 03 04 05 06 07  08 09 0A 0B 0C 0D 0E 0F
      -- -- -- -- -- -- -- --  -- -- -- -- -- -- -- --
0170:                                5B 03 80 F8 FF FF            [.....
0180: 7F F8 FF FF 7F 70 6F 69  30 53 F8 FF FF 7F F8 FF  .....poi0S......
0190: FF 7F 70 6F 69 30 00                              ..poi0.         
```

#### Opcodes

```
  0: 0x017A [0x5B] LOAD_EXT_SCHEDULER: Load scheduler "poi0" with entities [EventEntity, EventEntity], work=361*
  1: 0x0189 [0x53] WAIT_SCHEDULER_TASK: Wait for scheduler "poi0" with entities [EventEntity, EventEntity]
  2: 0x0196 [0x00] END_REQSTACK()
```

### Event 65535.23

#### Metadata

| Field        | Value    |
|--------------|----------|
| Entrypoint   | 0x0197   |
| Data Size    | 16 bytes |
| Instructions | 2        |

```
      00 01 02 03 04 05 06 07  08 09 0A 0B 0C 0D 0E 0F
      -- -- -- -- -- -- -- --  -- -- -- -- -- -- -- --
0190:                      5B  02 80 F8 FF FF 7F F8 FF         [........
01A0: FF 7F 64 69 73 30 00                              ..dis0.         
```

#### Opcodes

```
  0: 0x0197 [0x5B] LOAD_EXT_SCHEDULER: Load scheduler "dis0" with entities [EventEntity, EventEntity], work=357*
  1: 0x01A6 [0x00] END_REQSTACK()
```

### Event 65535.24

#### Metadata

| Field        | Value    |
|--------------|----------|
| Entrypoint   | 0x01A7   |
| Data Size    | 14 bytes |
| Instructions | 2        |

```
      00 01 02 03 04 05 06 07  08 09 0A 0B 0C 0D 0E 0F
      -- -- -- -- -- -- -- --  -- -- -- -- -- -- -- --
01A0:                      53  F8 FF FF 7F F8 FF FF 7F         S........
01B0: 64 69 73 30 00                                    dis0.           
```

#### Opcodes

```
  0: 0x01A7 [0x53] WAIT_SCHEDULER_TASK: Wait for scheduler "dis0" with entities [EventEntity, EventEntity]
  1: 0x01B4 [0x00] END_REQSTACK()
```

### Event 65535.25

#### Metadata

| Field        | Value    |
|--------------|----------|
| Entrypoint   | 0x01B5   |
| Data Size    | 16 bytes |
| Instructions | 2        |

```
      00 01 02 03 04 05 06 07  08 09 0A 0B 0C 0D 0E 0F
      -- -- -- -- -- -- -- --  -- -- -- -- -- -- -- --
01B0:                5B 02 80  F8 FF FF 7F F8 FF FF 7F       [..........
01C0: 70 61 73 30 00                                    pas0.           
```

#### Opcodes

```
  0: 0x01B5 [0x5B] LOAD_EXT_SCHEDULER: Load scheduler "pas0" with entities [EventEntity, EventEntity], work=357*
  1: 0x01C4 [0x00] END_REQSTACK()
```

### Event 65535.26

#### Metadata

| Field        | Value    |
|--------------|----------|
| Entrypoint   | 0x01C5   |
| Data Size    | 14 bytes |
| Instructions | 2        |

```
      00 01 02 03 04 05 06 07  08 09 0A 0B 0C 0D 0E 0F
      -- -- -- -- -- -- -- --  -- -- -- -- -- -- -- --
01C0:                53 F8 FF  FF 7F F8 FF FF 7F 70 61       S........pa
01D0: 73 30 00                                          s0.             
```

#### Opcodes

```
  0: 0x01C5 [0x53] WAIT_SCHEDULER_TASK: Wait for scheduler "pas0" with entities [EventEntity, EventEntity]
  1: 0x01D2 [0x00] END_REQSTACK()
```

### Event 65535.27

#### Metadata

| Field        | Value    |
|--------------|----------|
| Entrypoint   | 0x01D3   |
| Data Size    | 16 bytes |
| Instructions | 2        |

```
      00 01 02 03 04 05 06 07  08 09 0A 0B 0C 0D 0E 0F
      -- -- -- -- -- -- -- --  -- -- -- -- -- -- -- --
01D0:          5B 04 80 F8 FF  FF 7F F8 FF FF 7F 74 6C     [..........tl
01E0: 62 30 00                                          b0.             
```

#### Opcodes

```
  0: 0x01D3 [0x5B] LOAD_EXT_SCHEDULER: Load scheduler "tlb0" with entities [EventEntity, EventEntity], work=365*
  1: 0x01E2 [0x00] END_REQSTACK()
```

### Event 65535.28

#### Metadata

| Field        | Value    |
|--------------|----------|
| Entrypoint   | 0x01E3   |
| Data Size    | 14 bytes |
| Instructions | 2        |

```
      00 01 02 03 04 05 06 07  08 09 0A 0B 0C 0D 0E 0F
      -- -- -- -- -- -- -- --  -- -- -- -- -- -- -- --
01E0:          53 F8 FF FF 7F  F8 FF FF 7F 74 6C 62 30     S........tlb0
01F0: 00                                                .               
```

#### Opcodes

```
  0: 0x01E3 [0x53] WAIT_SCHEDULER_TASK: Wait for scheduler "tlb0" with entities [EventEntity, EventEntity]
  1: 0x01F0 [0x00] END_REQSTACK()
```

### Event 65535.29

#### Metadata

| Field        | Value    |
|--------------|----------|
| Entrypoint   | 0x01F1   |
| Data Size    | 16 bytes |
| Instructions | 2        |

```
      00 01 02 03 04 05 06 07  08 09 0A 0B 0C 0D 0E 0F
      -- -- -- -- -- -- -- --  -- -- -- -- -- -- -- --
01F0:    5B 04 80 F8 FF FF 7F  F8 FF FF 7F 74 6C 62 31   [..........tlb1
0200: 00                                                .               
```

#### Opcodes

```
  0: 0x01F1 [0x5B] LOAD_EXT_SCHEDULER: Load scheduler "tlb1" with entities [EventEntity, EventEntity], work=365*
  1: 0x0200 [0x00] END_REQSTACK()
```

### Event 65535.30

#### Metadata

| Field        | Value    |
|--------------|----------|
| Entrypoint   | 0x0201   |
| Data Size    | 14 bytes |
| Instructions | 2        |

```
      00 01 02 03 04 05 06 07  08 09 0A 0B 0C 0D 0E 0F
      -- -- -- -- -- -- -- --  -- -- -- -- -- -- -- --
0200:    53 F8 FF FF 7F F8 FF  FF 7F 74 6C 62 31 00      S........tlb1. 
```

#### Opcodes

```
  0: 0x0201 [0x53] WAIT_SCHEDULER_TASK: Wait for scheduler "tlb1" with entities [EventEntity, EventEntity]
  1: 0x020E [0x00] END_REQSTACK()
```

### Event 65535.31

#### Metadata

| Field        | Value    |
|--------------|----------|
| Entrypoint   | 0x020F   |
| Data Size    | 16 bytes |
| Instructions | 2        |

```
      00 01 02 03 04 05 06 07  08 09 0A 0B 0C 0D 0E 0F
      -- -- -- -- -- -- -- --  -- -- -- -- -- -- -- --
0200:                                               5B                 [
0210: 05 80 F8 FF FF 7F F8 FF  FF 7F 74 6C 6B 30 00     ..........tlk0. 
```

#### Opcodes

```
  0: 0x020F [0x5B] LOAD_EXT_SCHEDULER: Load scheduler "tlk0" with entities [EventEntity, EventEntity], work=359*
  1: 0x021E [0x00] END_REQSTACK()
```

### Event 65535.32

#### Metadata

| Field        | Value    |
|--------------|----------|
| Entrypoint   | 0x021F   |
| Data Size    | 14 bytes |
| Instructions | 2        |

```
      00 01 02 03 04 05 06 07  08 09 0A 0B 0C 0D 0E 0F
      -- -- -- -- -- -- -- --  -- -- -- -- -- -- -- --
0210:                                               53                 S
0220: F8 FF FF 7F F8 FF FF 7F  74 6C 6B 30 00           ........tlk0.   
```

#### Opcodes

```
  0: 0x021F [0x53] WAIT_SCHEDULER_TASK: Wait for scheduler "tlk0" with entities [EventEntity, EventEntity]
  1: 0x022C [0x00] END_REQSTACK()
```

### Event 65535.33

#### Metadata

| Field        | Value    |
|--------------|----------|
| Entrypoint   | 0x022D   |
| Data Size    | 16 bytes |
| Instructions | 2        |

```
      00 01 02 03 04 05 06 07  08 09 0A 0B 0C 0D 0E 0F
      -- -- -- -- -- -- -- --  -- -- -- -- -- -- -- --
0220:                                         5B 05 80               [..
0230: F8 FF FF 7F F8 FF FF 7F  74 6C 6B 32 00           ........tlk2.   
```

#### Opcodes

```
  0: 0x022D [0x5B] LOAD_EXT_SCHEDULER: Load scheduler "tlk2" with entities [EventEntity, EventEntity], work=359*
  1: 0x023C [0x00] END_REQSTACK()
```

### Event 65535.34

#### Metadata

| Field        | Value    |
|--------------|----------|
| Entrypoint   | 0x023D   |
| Data Size    | 14 bytes |
| Instructions | 2        |

```
      00 01 02 03 04 05 06 07  08 09 0A 0B 0C 0D 0E 0F
      -- -- -- -- -- -- -- --  -- -- -- -- -- -- -- --
0230:                                         53 F8 FF               S..
0240: FF 7F F8 FF FF 7F 74 6C  6B 32 00                 ......tlk2.     
```

#### Opcodes

```
  0: 0x023D [0x53] WAIT_SCHEDULER_TASK: Wait for scheduler "tlk2" with entities [EventEntity, EventEntity]
  1: 0x024A [0x00] END_REQSTACK()
```

### Event 65535.35

#### Metadata

| Field        | Value   |
|--------------|---------|
| Entrypoint   | 0x024B  |
| Data Size    | 9 bytes |
| Instructions | 3       |

```
      00 01 02 03 04 05 06 07  08 09 0A 0B 0C 0D 0E 0F
      -- -- -- -- -- -- -- --  -- -- -- -- -- -- -- --
0240:                                   5E 69 64 6C 30             ^idl0
0250: 1C 01 80 00                                       ....            
```

#### Opcodes

```
  0: 0x024B [0x5E] EventEntity goes idle (kills current action) (animation: "idl0")
  1: 0x0250 [0x1C] WAIT(30* ticks)
  2: 0x0253 [0x00] END_REQSTACK()
```

### Event 65535.36

#### Metadata

| Field        | Value    |
|--------------|----------|
| Entrypoint   | 0x0254   |
| Data Size    | 29 bytes |
| Instructions | 3        |

```
      00 01 02 03 04 05 06 07  08 09 0A 0B 0C 0D 0E 0F
      -- -- -- -- -- -- -- --  -- -- -- -- -- -- -- --
0250:             5B 00 80 F8  FF FF 7F F8 FF FF 7F 65      [..........e
0260: 76 30 31 53 F8 FF FF 7F  F8 FF FF 7F 65 76 30 31  v01S........ev01
0270: 00                                                .               
```

#### Opcodes

```
  0: 0x0254 [0x5B] LOAD_EXT_SCHEDULER: Load scheduler "ev01" with entities [EventEntity, EventEntity], work=373*
  1: 0x0263 [0x53] WAIT_SCHEDULER_TASK: Wait for scheduler "ev01" with entities [EventEntity, EventEntity]
  2: 0x0270 [0x00] END_REQSTACK()
```

### Event 65535.37

#### Metadata

| Field        | Value    |
|--------------|----------|
| Entrypoint   | 0x0271   |
| Data Size    | 29 bytes |
| Instructions | 3        |

```
      00 01 02 03 04 05 06 07  08 09 0A 0B 0C 0D 0E 0F
      -- -- -- -- -- -- -- --  -- -- -- -- -- -- -- --
0270:    5B 06 80 F8 FF FF 7F  F8 FF FF 7F 65 76 30 37   [..........ev07
0280: 53 F8 FF FF 7F F8 FF FF  7F 65 76 30 37 00        S........ev07.  
```

#### Opcodes

```
  0: 0x0271 [0x5B] LOAD_EXT_SCHEDULER: Load scheduler "ev07" with entities [EventEntity, EventEntity], work=399*
  1: 0x0280 [0x53] WAIT_SCHEDULER_TASK: Wait for scheduler "ev07" with entities [EventEntity, EventEntity]
  2: 0x028D [0x00] END_REQSTACK()
```

### Event 65535.38

#### Metadata

| Field        | Value    |
|--------------|----------|
| Entrypoint   | 0x028E   |
| Data Size    | 29 bytes |
| Instructions | 3        |

```
      00 01 02 03 04 05 06 07  08 09 0A 0B 0C 0D 0E 0F
      -- -- -- -- -- -- -- --  -- -- -- -- -- -- -- --
0280:                                            5B 00                [.
0290: 80 F8 FF FF 7F F8 FF FF  7F 65 76 30 31 53 F8 FF  .........ev01S..
02A0: FF 7F F8 FF FF 7F 65 76  30 31 00                 ......ev01.     
```

#### Opcodes

```
  0: 0x028E [0x5B] LOAD_EXT_SCHEDULER: Load scheduler "ev01" with entities [EventEntity, EventEntity], work=373*
  1: 0x029D [0x53] WAIT_SCHEDULER_TASK: Wait for scheduler "ev01" with entities [EventEntity, EventEntity]
  2: 0x02AA [0x00] END_REQSTACK()
```

### Event 95

#### Metadata

| Field        | Value   |
|--------------|---------|
| Entrypoint   | 0x02AB  |
| Data Size    | 1 bytes |
| Instructions | 1       |

```
      00 01 02 03 04 05 06 07  08 09 0A 0B 0C 0D 0E 0F
      -- -- -- -- -- -- -- --  -- -- -- -- -- -- -- --
02A0:                                   00                         .    
```

#### Opcodes

```
  0: 0x02AB [0x00] END_REQSTACK()
```

### Event 65535.39

#### Metadata

| Field        | Value    |
|--------------|----------|
| Entrypoint   | 0x02AC   |
| Data Size    | 15 bytes |
| Instructions | 5        |

```
      00 01 02 03 04 05 06 07  08 09 0A 0B 0C 0D 0E 0F
      -- -- -- -- -- -- -- --  -- -- -- -- -- -- -- --
02A0:                                      32 07 80 1F              2...
02B0: 00 08 80 09 80 0A 80 1F  01 6F 00                 .........o.     
```

#### Opcodes

```
  0: 0x02AC [0x32] ExtData[1]->MainSpeed = 13* * 0.1
  1: 0x02AF [0x1F] MOVE_ENTITY: EventEntity moves to X=1.364*, Z=30.299*, Y=0.250*
  2: 0x02B7 [0x1F] MOVE_ENTITY: Update entity position (mode=1)
  3: 0x02B9 [0x6F] WAIT_FRAME_DELAY: Yield until WaitTime reaches zero
  4: 0x02BA [0x00] END_REQSTACK()
```

### Event 65535.40

#### Metadata

| Field        | Value    |
|--------------|----------|
| Entrypoint   | 0x02BB   |
| Data Size    | 14 bytes |
| Instructions | 4        |

```
      00 01 02 03 04 05 06 07  08 09 0A 0B 0C 0D 0E 0F
      -- -- -- -- -- -- -- --  -- -- -- -- -- -- -- --
02B0:                                   32 07 80 1F 00             2....
02C0: 0B 80 0C 80 0A 80 1F 01  00                       .........       
```

#### Opcodes

```
  0: 0x02BB [0x32] ExtData[1]->MainSpeed = 13* * 0.1
  1: 0x02BE [0x1F] MOVE_ENTITY: EventEntity moves to X=-7.409*, Z=28.886*, Y=0.250*
  2: 0x02C6 [0x1F] MOVE_ENTITY: Update entity position (mode=1)
  3: 0x02C8 [0x00] END_REQSTACK()
```

### Event 65535.41

#### Metadata

| Field        | Value    |
|--------------|----------|
| Entrypoint   | 0x02C9   |
| Data Size    | 24 bytes |
| Instructions | 6        |

```
      00 01 02 03 04 05 06 07  08 09 0A 0B 0C 0D 0E 0F
      -- -- -- -- -- -- -- --  -- -- -- -- -- -- -- --
02C0:                             37 0D 80 0E 80 0F 80           7......
02D0: 10 80 32 07 80 1F 00 08  80 09 80 0A 80 1F 01 6F  ..2............o
02E0: 00                                                .               
```

#### Opcodes

```
  0: 0x02C9 [0x37] UPDATE_EVENT_POSITION_AND_DIR: x=-2.938*, z=30.239*, y=0.499*, direction=358.6*
  1: 0x02D2 [0x32] ExtData[1]->MainSpeed = 13* * 0.1
  2: 0x02D5 [0x1F] MOVE_ENTITY: EventEntity moves to X=1.364*, Z=30.299*, Y=0.250*
  3: 0x02DD [0x1F] MOVE_ENTITY: Update entity position (mode=1)
  4: 0x02DF [0x6F] WAIT_FRAME_DELAY: Yield until WaitTime reaches zero
  5: 0x02E0 [0x00] END_REQSTACK()
```

### Event 65535.42

#### Metadata

| Field        | Value    |
|--------------|----------|
| Entrypoint   | 0x02E1   |
| Data Size    | 15 bytes |
| Instructions | 5        |

```
      00 01 02 03 04 05 06 07  08 09 0A 0B 0C 0D 0E 0F
      -- -- -- -- -- -- -- --  -- -- -- -- -- -- -- --
02E0:    1F 00 11 80 12 80 13  80 1F 01 6F 39 14 80 00   ..........o9...
```

#### Opcodes

```
  0: 0x02E1 [0x1F] MOVE_ENTITY: EventEntity moves to X=1.808*, Z=30.558*, Y=0.000*
  1: 0x02E9 [0x1F] MOVE_ENTITY: Update entity position (mode=1)
  2: 0x02EB [0x6F] WAIT_FRAME_DELAY: Yield until WaitTime reaches zero
  3: 0x02EC [0x39] SET_ENTITY_DIRECTION(direction=19.7*)
  4: 0x02EF [0x00] END_REQSTACK()
```

### Event 65535.43

#### Metadata

| Field        | Value    |
|--------------|----------|
| Entrypoint   | 0x02F0   |
| Data Size    | 12 bytes |
| Instructions | 4        |

```
      00 01 02 03 04 05 06 07  08 09 0A 0B 0C 0D 0E 0F
      -- -- -- -- -- -- -- --  -- -- -- -- -- -- -- --
02F0: 1F 00 15 80 16 80 13 80  1F 01 6F 00              ..........o.    
```

#### Opcodes

```
  0: 0x02F0 [0x1F] MOVE_ENTITY: EventEntity moves to X=2.577*, Z=29.970*, Y=0.000*
  1: 0x02F8 [0x1F] MOVE_ENTITY: Update entity position (mode=1)
  2: 0x02FA [0x6F] WAIT_FRAME_DELAY: Yield until WaitTime reaches zero
  3: 0x02FB [0x00] END_REQSTACK()
```

### Event 65535.44

#### Metadata

| Field        | Value    |
|--------------|----------|
| Entrypoint   | 0x02FC   |
| Data Size    | 15 bytes |
| Instructions | 5        |

```
      00 01 02 03 04 05 06 07  08 09 0A 0B 0C 0D 0E 0F
      -- -- -- -- -- -- -- --  -- -- -- -- -- -- -- --
02F0:                                      32 07 80 1F              2...
0300: 00 17 80 18 80 0A 80 1F  01 6F 00                 .........o.     
```

#### Opcodes

```
  0: 0x02FC [0x32] ExtData[1]->MainSpeed = 13* * 0.1
  1: 0x02FF [0x1F] MOVE_ENTITY: EventEntity moves to X=-4.815*, Z=30.007*, Y=0.250*
  2: 0x0307 [0x1F] MOVE_ENTITY: Update entity position (mode=1)
  3: 0x0309 [0x6F] WAIT_FRAME_DELAY: Yield until WaitTime reaches zero
  4: 0x030A [0x00] END_REQSTACK()
```

### Event 65535.45

#### Metadata

| Field        | Value   |
|--------------|---------|
| Entrypoint   | 0x030B  |
| Data Size    | 5 bytes |
| Instructions | 3       |

```
      00 01 02 03 04 05 06 07  08 09 0A 0B 0C 0D 0E 0F
      -- -- -- -- -- -- -- --  -- -- -- -- -- -- -- --
0300:                                   1D 19 80 23 00             ...#.
```

#### Opcodes

```
  0: 0x030B [0x1D] PRINT_EVENT_MESSAGE(message_id=103*)
     "And you are..."
  1: 0x030E [0x23] WAIT_FOR_DIALOG_INTERACTION
  2: 0x030F [0x00] END_REQSTACK()
```

### Event 65535.46

#### Metadata

| Field        | Value   |
|--------------|---------|
| Entrypoint   | 0x0310  |
| Data Size    | 5 bytes |
| Instructions | 3       |

```
      00 01 02 03 04 05 06 07  08 09 0A 0B 0C 0D 0E 0F
      -- -- -- -- -- -- -- --  -- -- -- -- -- -- -- --
0310: 1D 1A 80 23 00                                    ...#.           
```

#### Opcodes

```
  0: 0x0310 [0x1D] PRINT_EVENT_MESSAGE(message_id=105*)
     "Kupipi, what business does [he/she] have here?"
  1: 0x0313 [0x23] WAIT_FOR_DIALOG_INTERACTION
  2: 0x0314 [0x00] END_REQSTACK()
```

### Event 65535.47

#### Metadata

| Field        | Value    |
|--------------|----------|
| Entrypoint   | 0x0315   |
| Data Size    | 33 bytes |
| Instructions | 7        |

```
      00 01 02 03 04 05 06 07  08 09 0A 0B 0C 0D 0E 0F
      -- -- -- -- -- -- -- --  -- -- -- -- -- -- -- --
0310:                29 08 16  20 0F 01 01 1D 1B 80 23       ).. ......#
0320: 29 08 16 20 0F 01 02 29  08 16 20 0F 01 04 29 08  ).. ...).. ...).
0330: 16 20 0F 01 05 00                                 . ....          
```

#### Opcodes

```
  0: 0x0315 [0x29] REQ_SET_WAIT(priority=0x08, entity_id=Semih Lafihna (ID: 17768470/0x010F2016), tag_num=0x01)
  1: 0x031C [0x1D] PRINT_EVENT_MESSAGE(message_id=108*)
     "I don't need the details, Kupipi. Show me [his/her] file."
  2: 0x031F [0x23] WAIT_FOR_DIALOG_INTERACTION
  3: 0x0320 [0x29] REQ_SET_WAIT(priority=0x08, entity_id=Semih Lafihna (ID: 17768470/0x010F2016), tag_num=0x02)
  4: 0x0327 [0x29] REQ_SET_WAIT(priority=0x08, entity_id=Semih Lafihna (ID: 17768470/0x010F2016), tag_num=0x04)
  5: 0x032E [0x29] REQ_SET_WAIT(priority=0x08, entity_id=Semih Lafihna (ID: 17768470/0x010F2016), tag_num=0x05)
  6: 0x0335 [0x00] END_REQSTACK()
```

### Event 65535.48

#### Metadata

| Field        | Value    |
|--------------|----------|
| Entrypoint   | 0x0336   |
| Data Size    | 23 bytes |
| Instructions | 7        |

```
      00 01 02 03 04 05 06 07  08 09 0A 0B 0C 0D 0E 0F
      -- -- -- -- -- -- -- --  -- -- -- -- -- -- -- --
0330:                   29 08  16 20 0F 01 0C 1D 1C 80        ).. ......
0340: 23 29 08 16 20 0F 01 0D  1D 1D 80 23 00           #).. ......#.   
```

#### Opcodes

```
  0: 0x0336 [0x29] REQ_SET_WAIT(priority=0x08, entity_id=Semih Lafihna (ID: 17768470/0x010F2016), tag_num=0x0C)
  1: 0x033D [0x1D] PRINT_EVENT_MESSAGE(message_id=109*)
     "This is a nice resume. It seems as if you fight betterrr than you look."
  2: 0x0340 [0x23] WAIT_FOR_DIALOG_INTERACTION
  3: 0x0341 [0x29] REQ_SET_WAIT(priority=0x08, entity_id=Semih Lafihna (ID: 17768470/0x010F2016), tag_num=0x0D)
  4: 0x0348 [0x1D] PRINT_EVENT_MESSAGE(message_id=110*)
     "...And it also seems that today is not your day."
  5: 0x034B [0x23] WAIT_FOR_DIALOG_INTERACTION
  6: 0x034C [0x00] END_REQSTACK()
```

### Event 65535.49

#### Metadata

| Field        | Value    |
|--------------|----------|
| Entrypoint   | 0x034D   |
| Data Size    | 37 bytes |
| Instructions | 9        |

```
      00 01 02 03 04 05 06 07  08 09 0A 0B 0C 0D 0E 0F
      -- -- -- -- -- -- -- --  -- -- -- -- -- -- -- --
0340:                                         1D 1E 80               ...
0350: 23 29 08 16 20 0F 01 1F  1D 1F 80 23 29 08 16 20  #).. ......#).. 
0360: 0F 01 20 29 08 16 20 0F  01 21 29 08 16 20 0F 01  .. ).. ..!).. ..
0370: 22 00                                             ".              
```

#### Opcodes

```
  0: 0x034D [0x1D] PRINT_EVENT_MESSAGE(message_id=111*)
     "Kupipi. Process this adventurer's mission paperrrs."
  1: 0x0350 [0x23] WAIT_FOR_DIALOG_INTERACTION
  2: 0x0351 [0x29] REQ_SET_WAIT(priority=0x08, entity_id=Semih Lafihna (ID: 17768470/0x010F2016), tag_num=0x1F)
  3: 0x0358 [0x1D] PRINT_EVENT_MESSAGE(message_id=112*)
     "Relay [his/her] orders to [him/her] and give [him/her] $6."
  4: 0x035B [0x23] WAIT_FOR_DIALOG_INTERACTION
  5: 0x035C [0x29] REQ_SET_WAIT(priority=0x08, entity_id=Semih Lafihna (ID: 17768470/0x010F2016), tag_num=0x20)
  6: 0x0363 [0x29] REQ_SET_WAIT(priority=0x08, entity_id=Semih Lafihna (ID: 17768470/0x010F2016), tag_num=0x21)
  7: 0x036A [0x29] REQ_SET_WAIT(priority=0x08, entity_id=Semih Lafihna (ID: 17768470/0x010F2016), tag_num=0x22)
  8: 0x0371 [0x00] END_REQSTACK()
```

### Event 65535.50

#### Metadata

| Field        | Value    |
|--------------|----------|
| Entrypoint   | 0x0372   |
| Data Size    | 19 bytes |
| Instructions | 5        |

```
      00 01 02 03 04 05 06 07  08 09 0A 0B 0C 0D 0E 0F
      -- -- -- -- -- -- -- --  -- -- -- -- -- -- -- --
0370:       29 08 16 20 0F 01  0C 1D 20 80 23 29 08 16    ).. .... .#)..
0380: 20 0F 01 0D 00                                     ....           
```

#### Opcodes

```
  0: 0x0372 [0x29] REQ_SET_WAIT(priority=0x08, entity_id=Semih Lafihna (ID: 17768470/0x010F2016), tag_num=0x0C)
  1: 0x0379 [0x1D] PRINT_EVENT_MESSAGE(message_id=115*)
     "I can sense many good things within you. Let's see how you manage with this new task."
  2: 0x037C [0x23] WAIT_FOR_DIALOG_INTERACTION
  3: 0x037D [0x29] REQ_SET_WAIT(priority=0x08, entity_id=Semih Lafihna (ID: 17768470/0x010F2016), tag_num=0x0D)
  4: 0x0384 [0x00] END_REQSTACK()
```

### Event 6

#### Metadata

| Field        | Value   |
|--------------|---------|
| Entrypoint   | 0x0385  |
| Data Size    | 1 bytes |
| Instructions | 1       |

```
      00 01 02 03 04 05 06 07  08 09 0A 0B 0C 0D 0E 0F
      -- -- -- -- -- -- -- --  -- -- -- -- -- -- -- --
0380:                00                                      .          
```

#### Opcodes

```
  0: 0x0385 [0x00] END_REQSTACK()
```

### Event 107

#### Metadata

| Field        | Value   |
|--------------|---------|
| Entrypoint   | 0x0386  |
| Data Size    | 1 bytes |
| Instructions | 1       |

```
      00 01 02 03 04 05 06 07  08 09 0A 0B 0C 0D 0E 0F
      -- -- -- -- -- -- -- --  -- -- -- -- -- -- -- --
0380:                   00                                    .         
```

#### Opcodes

```
  0: 0x0386 [0x00] END_REQSTACK()
```

### Event 65535.51

#### Metadata

| Field        | Value    |
|--------------|----------|
| Entrypoint   | 0x0387   |
| Data Size    | 10 bytes |
| Instructions | 2        |

```
      00 01 02 03 04 05 06 07  08 09 0A 0B 0C 0D 0E 0F
      -- -- -- -- -- -- -- --  -- -- -- -- -- -- -- --
0380:                      37  21 80 22 80 23 80 24 80         7!.".#.$.
0390: 00                                                .               
```

#### Opcodes

```
  0: 0x0387 [0x37] UPDATE_EVENT_POSITION_AND_DIR: x=0.005*, z=3.656*, y=-46.999*, direction=86.1*
  1: 0x0390 [0x00] END_REQSTACK()
```

### Event 65535.52

#### Metadata

| Field        | Value    |
|--------------|----------|
| Entrypoint   | 0x0391   |
| Data Size    | 10 bytes |
| Instructions | 2        |

```
      00 01 02 03 04 05 06 07  08 09 0A 0B 0C 0D 0E 0F
      -- -- -- -- -- -- -- --  -- -- -- -- -- -- -- --
0390:    37 25 80 26 80 23 80  27 80 00                  7%.&.#.'..     
```

#### Opcodes

```
  0: 0x0391 [0x37] UPDATE_EVENT_POSITION_AND_DIR: x=-0.418*, z=2.723*, y=-46.999*, direction=84.6*
  1: 0x039A [0x00] END_REQSTACK()
```

### Event 65535.53

#### Metadata

| Field        | Value   |
|--------------|---------|
| Entrypoint   | 0x039B  |
| Data Size    | 4 bytes |
| Instructions | 2       |

```
      00 01 02 03 04 05 06 07  08 09 0A 0B 0C 0D 0E 0F
      -- -- -- -- -- -- -- --  -- -- -- -- -- -- -- --
0390:                                   32 07 80 00                2... 
```

#### Opcodes

```
  0: 0x039B [0x32] ExtData[1]->MainSpeed = 13* * 0.1
  1: 0x039E [0x00] END_REQSTACK()
```

### Event 65535.54

#### Metadata

| Field        | Value    |
|--------------|----------|
| Entrypoint   | 0x039F   |
| Data Size    | 15 bytes |
| Instructions | 5        |

```
      00 01 02 03 04 05 06 07  08 09 0A 0B 0C 0D 0E 0F
      -- -- -- -- -- -- -- --  -- -- -- -- -- -- -- --
0390:                                               32                 2
03A0: 07 80 1F 00 1C 80 28 80  23 80 1F 01 6F 00        ......(.#...o.  
```

#### Opcodes

```
  0: 0x039F [0x32] ExtData[1]->MainSpeed = 13* * 0.1
  1: 0x03A2 [0x1F] MOVE_ENTITY: EventEntity moves to X=0.109*, Z=0.185*, Y=-46.999*
  2: 0x03AA [0x1F] MOVE_ENTITY: Update entity position (mode=1)
  3: 0x03AC [0x6F] WAIT_FRAME_DELAY: Yield until WaitTime reaches zero
  4: 0x03AD [0x00] END_REQSTACK()
```

### Event 65535.55

#### Metadata

| Field        | Value    |
|--------------|----------|
| Entrypoint   | 0x03AE   |
| Data Size    | 15 bytes |
| Instructions | 5        |

```
      00 01 02 03 04 05 06 07  08 09 0A 0B 0C 0D 0E 0F
      -- -- -- -- -- -- -- --  -- -- -- -- -- -- -- --
03A0:                                            32 07                2.
03B0: 80 1F 00 29 80 2A 80 23  80 1F 01 6F 00           ...).*.#...o.   
```

#### Opcodes

```
  0: 0x03AE [0x32] ExtData[1]->MainSpeed = 13* * 0.1
  1: 0x03B1 [0x1F] MOVE_ENTITY: EventEntity moves to X=-2.881*, Z=-0.024*, Y=-46.999*
  2: 0x03B9 [0x1F] MOVE_ENTITY: Update entity position (mode=1)
  3: 0x03BB [0x6F] WAIT_FRAME_DELAY: Yield until WaitTime reaches zero
  4: 0x03BC [0x00] END_REQSTACK()
```

### Event 65535.56

#### Metadata

| Field        | Value    |
|--------------|----------|
| Entrypoint   | 0x03BD   |
| Data Size    | 15 bytes |
| Instructions | 5        |

```
      00 01 02 03 04 05 06 07  08 09 0A 0B 0C 0D 0E 0F
      -- -- -- -- -- -- -- --  -- -- -- -- -- -- -- --
03B0:                                         32 07 80               2..
03C0: 1F 00 2B 80 2C 80 23 80  1F 01 6F 00              ..+.,.#...o.    
```

#### Opcodes

```
  0: 0x03BD [0x32] ExtData[1]->MainSpeed = 13* * 0.1
  1: 0x03C0 [0x1F] MOVE_ENTITY: EventEntity moves to X=-1.111*, Z=0.619*, Y=-46.999*
  2: 0x03C8 [0x1F] MOVE_ENTITY: Update entity position (mode=1)
  3: 0x03CA [0x6F] WAIT_FRAME_DELAY: Yield until WaitTime reaches zero
  4: 0x03CB [0x00] END_REQSTACK()
```

### Event 65535.57

#### Metadata

| Field        | Value    |
|--------------|----------|
| Entrypoint   | 0x03CC   |
| Data Size    | 30 bytes |
| Instructions | 8        |

```
      00 01 02 03 04 05 06 07  08 09 0A 0B 0C 0D 0E 0F
      -- -- -- -- -- -- -- --  -- -- -- -- -- -- -- --
03C0:                                      32 07 80 1F              2...
03D0: 00 2D 80 2E 80 23 80 1F  01 6F 4A 16 20 0F 01 17  .-...#...oJ. ...
03E0: 20 0F 01 6F 76 16 20 0F  01 00                     ..ov. ...      
```

#### Opcodes

```
  0: 0x03CC [0x32] ExtData[1]->MainSpeed = 13* * 0.1
  1: 0x03CF [0x1F] MOVE_ENTITY: EventEntity moves to X=-1.131*, Z=1.978*, Y=-46.999*
  2: 0x03D7 [0x1F] MOVE_ENTITY: Update entity position (mode=1)
  3: 0x03D9 [0x6F] WAIT_FRAME_DELAY: Yield until WaitTime reaches zero
  4: 0x03DA [0x4A] Semih Lafihna (ID: 17768470/0x010F2016) looks at Ajido-Marujido (ID: 17768471/0x010F2017)
  5: 0x03E3 [0x6F] WAIT_FRAME_DELAY: Yield until WaitTime reaches zero
  6: 0x03E4 [0x76] CHECK_ENTITY_RENDER_FLAGS: Wait until Semih Lafihna (ID: 17768470/0x010F2016) Render.Flags0 and Render.Flags3 conditions are met
  7: 0x03E9 [0x00] END_REQSTACK()
```

### Event 65535.58

#### Metadata

| Field        | Value    |
|--------------|----------|
| Entrypoint   | 0x03EA   |
| Data Size    | 15 bytes |
| Instructions | 5        |

```
      00 01 02 03 04 05 06 07  08 09 0A 0B 0C 0D 0E 0F
      -- -- -- -- -- -- -- --  -- -- -- -- -- -- -- --
03E0:                                32 07 80 1F 00 2F            2..../
03F0: 80 30 80 23 80 1F 01 6F  00                       .0.#...o.       
```

#### Opcodes

```
  0: 0x03EA [0x32] ExtData[1]->MainSpeed = 13* * 0.1
  1: 0x03ED [0x1F] MOVE_ENTITY: EventEntity moves to X=-0.226*, Z=0.522*, Y=-46.999*
  2: 0x03F5 [0x1F] MOVE_ENTITY: Update entity position (mode=1)
  3: 0x03F7 [0x6F] WAIT_FRAME_DELAY: Yield until WaitTime reaches zero
  4: 0x03F8 [0x00] END_REQSTACK()
```

### Event 65535.59

#### Metadata

| Field        | Value    |
|--------------|----------|
| Entrypoint   | 0x03F9   |
| Data Size    | 15 bytes |
| Instructions | 5        |

```
      00 01 02 03 04 05 06 07  08 09 0A 0B 0C 0D 0E 0F
      -- -- -- -- -- -- -- --  -- -- -- -- -- -- -- --
03F0:                             32 07 80 1F 00 31 80           2....1.
0400: 32 80 33 80 1F 01 6F 00                           2.3...o.        
```

#### Opcodes

```
  0: 0x03F9 [0x32] ExtData[1]->MainSpeed = 13* * 0.1
  1: 0x03FC [0x1F] MOVE_ENTITY: EventEntity moves to X=-0.006*, Z=7.741*, Y=-50.000*
  2: 0x0404 [0x1F] MOVE_ENTITY: Update entity position (mode=1)
  3: 0x0406 [0x6F] WAIT_FRAME_DELAY: Yield until WaitTime reaches zero
  4: 0x0407 [0x00] END_REQSTACK()
```

### Event 65535.60

#### Metadata

| Field        | Value    |
|--------------|----------|
| Entrypoint   | 0x0408   |
| Data Size    | 10 bytes |
| Instructions | 2        |

```
      00 01 02 03 04 05 06 07  08 09 0A 0B 0C 0D 0E 0F
      -- -- -- -- -- -- -- --  -- -- -- -- -- -- -- --
0400:                          37 34 80 35 80 36 80 37          74.5.6.7
0410: 80 00                                             ..              
```

#### Opcodes

```
  0: 0x0408 [0x37] UPDATE_EVENT_POSITION_AND_DIR: x=-0.466*, z=-23.545*, y=-45.000*, direction=259.1*
  1: 0x0411 [0x00] END_REQSTACK()
```

### Event 65535.61

#### Metadata

| Field        | Value    |
|--------------|----------|
| Entrypoint   | 0x0412   |
| Data Size    | 15 bytes |
| Instructions | 5        |

```
      00 01 02 03 04 05 06 07  08 09 0A 0B 0C 0D 0E 0F
      -- -- -- -- -- -- -- --  -- -- -- -- -- -- -- --
0410:       32 07 80 1F 00 38  80 39 80 3A 80 1F 01 6F    2....8.9.:...o
0420: 00                                                .               
```

#### Opcodes

```
  0: 0x0412 [0x32] ExtData[1]->MainSpeed = 13* * 0.1
  1: 0x0415 [0x1F] MOVE_ENTITY: EventEntity moves to X=0.176*, Z=-15.018*, Y=-47.000*
  2: 0x041D [0x1F] MOVE_ENTITY: Update entity position (mode=1)
  3: 0x041F [0x6F] WAIT_FRAME_DELAY: Yield until WaitTime reaches zero
  4: 0x0420 [0x00] END_REQSTACK()
```

### Event 65535.62

#### Metadata

| Field        | Value    |
|--------------|----------|
| Entrypoint   | 0x0421   |
| Data Size    | 10 bytes |
| Instructions | 2        |

```
      00 01 02 03 04 05 06 07  08 09 0A 0B 0C 0D 0E 0F
      -- -- -- -- -- -- -- --  -- -- -- -- -- -- -- --
0420:    37 3B 80 3C 80 23 80  3D 80 00                  7;.<.#.=..     
```

#### Opcodes

```
  0: 0x0421 [0x37] UPDATE_EVENT_POSITION_AND_DIR: x=-2.465*, z=0.294*, y=-46.999*, direction=180.1*
  1: 0x042A [0x00] END_REQSTACK()
```

### Event 65535.63

#### Metadata

| Field        | Value    |
|--------------|----------|
| Entrypoint   | 0x042B   |
| Data Size    | 18 bytes |
| Instructions | 6        |

```
      00 01 02 03 04 05 06 07  08 09 0A 0B 0C 0D 0E 0F
      -- -- -- -- -- -- -- --  -- -- -- -- -- -- -- --
0420:                                   32 07 80 1F 00             2....
0430: 3E 80 3F 80 23 80 1F 01  6F 39 40 80 00           >.?.#...o9@..   
```

#### Opcodes

```
  0: 0x042B [0x32] ExtData[1]->MainSpeed = 13* * 0.1
  1: 0x042E [0x1F] MOVE_ENTITY: EventEntity moves to X=-0.416*, Z=-0.051*, Y=-46.999*
  2: 0x0436 [0x1F] MOVE_ENTITY: Update entity position (mode=1)
  3: 0x0438 [0x6F] WAIT_FRAME_DELAY: Yield until WaitTime reaches zero
  4: 0x0439 [0x39] SET_ENTITY_DIRECTION(direction=15.6*)
  5: 0x043C [0x00] END_REQSTACK()
```

### Event 65535.64

#### Metadata

| Field        | Value    |
|--------------|----------|
| Entrypoint   | 0x043D   |
| Data Size    | 15 bytes |
| Instructions | 5        |

```
      00 01 02 03 04 05 06 07  08 09 0A 0B 0C 0D 0E 0F
      -- -- -- -- -- -- -- --  -- -- -- -- -- -- -- --
0430:                                         32 07 80               2..
0440: 1F 00 41 80 42 80 23 80  1F 01 6F 00              ..A.B.#...o.    
```

#### Opcodes

```
  0: 0x043D [0x32] ExtData[1]->MainSpeed = 13* * 0.1
  1: 0x0440 [0x1F] MOVE_ENTITY: EventEntity moves to X=0.015*, Z=7.884*, Y=-46.999*
  2: 0x0448 [0x1F] MOVE_ENTITY: Update entity position (mode=1)
  3: 0x044A [0x6F] WAIT_FRAME_DELAY: Yield until WaitTime reaches zero
  4: 0x044B [0x00] END_REQSTACK()
```

### Event 65535.65

#### Metadata

| Field        | Value   |
|--------------|---------|
| Entrypoint   | 0x044C  |
| Data Size    | 5 bytes |
| Instructions | 3       |

```
      00 01 02 03 04 05 06 07  08 09 0A 0B 0C 0D 0E 0F
      -- -- -- -- -- -- -- --  -- -- -- -- -- -- -- --
0440:                                      1D 43 80 23              .C.#
0450: 00                                                .               
```

#### Opcodes

```
  0: 0x044C [0x1D] PRINT_EVENT_MESSAGE(message_id=150*)
     "Ah, I see you have already arrived. Did I keep you waiting?"
  1: 0x044F [0x23] WAIT_FOR_DIALOG_INTERACTION
  2: 0x0450 [0x00] END_REQSTACK()
```

### Event 65535.66

#### Metadata

| Field        | Value   |
|--------------|---------|
| Entrypoint   | 0x0451  |
| Data Size    | 5 bytes |
| Instructions | 3       |

```
      00 01 02 03 04 05 06 07  08 09 0A 0B 0C 0D 0E 0F
      -- -- -- -- -- -- -- --  -- -- -- -- -- -- -- --
0450:    1D 44 80 23 00                                  .D.#.          
```

#### Opcodes

```
  0: 0x0451 [0x1D] PRINT_EVENT_MESSAGE(message_id=151*)
     "Our fine cleric, Kupipi, didn't doubt that I had called you herrre, did she?"
  1: 0x0454 [0x23] WAIT_FOR_DIALOG_INTERACTION
  2: 0x0455 [0x00] END_REQSTACK()
```

### Event 65535.67

#### Metadata

| Field        | Value   |
|--------------|---------|
| Entrypoint   | 0x0456  |
| Data Size    | 5 bytes |
| Instructions | 3       |

```
      00 01 02 03 04 05 06 07  08 09 0A 0B 0C 0D 0E 0F
      -- -- -- -- -- -- -- --  -- -- -- -- -- -- -- --
0450:                   1D 45  80 23 00                       .E.#.     
```

#### Opcodes

```
  0: 0x0456 [0x1D] PRINT_EVENT_MESSAGE(message_id=152*)
     "This is the Planetarium. By using the sacred Star Spring, one can see all the stars in the heavens."
  1: 0x0459 [0x23] WAIT_FOR_DIALOG_INTERACTION
  2: 0x045A [0x00] END_REQSTACK()
```

### Event 65535.68

#### Metadata

| Field        | Value    |
|--------------|----------|
| Entrypoint   | 0x045B   |
| Data Size    | 12 bytes |
| Instructions | 4        |

```
      00 01 02 03 04 05 06 07  08 09 0A 0B 0C 0D 0E 0F
      -- -- -- -- -- -- -- --  -- -- -- -- -- -- -- --
0450:                                   29 08 16 20 0F             ).. .
0460: 01 1B 1D 46 80 23 00                              ...F.#.         
```

#### Opcodes

```
  0: 0x045B [0x29] REQ_SET_WAIT(priority=0x08, entity_id=Semih Lafihna (ID: 17768470/0x010F2016), tag_num=0x1B)
  1: 0x0462 [0x1D] PRINT_EVENT_MESSAGE(message_id=153*)
     "When the Star Sibyl peers into this spring, she can decipher the movements of the stars, and reveal to us our futurrre."
  2: 0x0465 [0x23] WAIT_FOR_DIALOG_INTERACTION
  3: 0x0466 [0x00] END_REQSTACK()
```

### Event 65535.69

#### Metadata

| Field        | Value    |
|--------------|----------|
| Entrypoint   | 0x0467   |
| Data Size    | 19 bytes |
| Instructions | 5        |

```
      00 01 02 03 04 05 06 07  08 09 0A 0B 0C 0D 0E 0F
      -- -- -- -- -- -- -- --  -- -- -- -- -- -- -- --
0460:                      1D  47 80 23 29 08 16 20 0F         .G.#).. .
0470: 01 1D 29 08 16 20 0F 01  05 00                    ..).. ....      
```

#### Opcodes

```
  0: 0x0467 [0x1D] PRINT_EVENT_MESSAGE(message_id=154*)
     "We Sibyl Guards exist to protect that futurrre."
  1: 0x046A [0x23] WAIT_FOR_DIALOG_INTERACTION
  2: 0x046B [0x29] REQ_SET_WAIT(priority=0x08, entity_id=Semih Lafihna (ID: 17768470/0x010F2016), tag_num=0x1D)
  3: 0x0472 [0x29] REQ_SET_WAIT(priority=0x08, entity_id=Semih Lafihna (ID: 17768470/0x010F2016), tag_num=0x05)
  4: 0x0479 [0x00] END_REQSTACK()
```

### Event 65535.70

#### Metadata

| Field        | Value    |
|--------------|----------|
| Entrypoint   | 0x047A   |
| Data Size    | 23 bytes |
| Instructions | 7        |

```
      00 01 02 03 04 05 06 07  08 09 0A 0B 0C 0D 0E 0F
      -- -- -- -- -- -- -- --  -- -- -- -- -- -- -- --
0470:                                29 08 16 20 0F 01            ).. ..
0480: 0C 1D 48 80 23 1D 49 80  23 29 08 16 20 0F 01 0D  ..H.#.I.#).. ...
0490: 00                                                .               
```

#### Opcodes

```
  0: 0x047A [0x29] REQ_SET_WAIT(priority=0x08, entity_id=Semih Lafihna (ID: 17768470/0x010F2016), tag_num=0x0C)
  1: 0x0481 [0x1D] PRINT_EVENT_MESSAGE(message_id=155*)
     "I showed the report you deliverrred to the Star Sibyl."
  2: 0x0484 [0x23] WAIT_FOR_DIALOG_INTERACTION
  3: 0x0485 [0x1D] PRINT_EVENT_MESSAGE(message_id=156*)
     "Do not worry, as she had already sensed the imminent revival of the Shadow Lord."
  4: 0x0488 [0x23] WAIT_FOR_DIALOG_INTERACTION
  5: 0x0489 [0x29] REQ_SET_WAIT(priority=0x08, entity_id=Semih Lafihna (ID: 17768470/0x010F2016), tag_num=0x0D)
  6: 0x0490 [0x00] END_REQSTACK()
```

### Event 65535.71

#### Metadata

| Field        | Value   |
|--------------|---------|
| Entrypoint   | 0x0491  |
| Data Size    | 9 bytes |
| Instructions | 5       |

```
      00 01 02 03 04 05 06 07  08 09 0A 0B 0C 0D 0E 0F
      -- -- -- -- -- -- -- --  -- -- -- -- -- -- -- --
0490:    1D 4A 80 23 1D 4B 80  23 00                     .J.#.K.#.      
```

#### Opcodes

```
  0: 0x0491 [0x1D] PRINT_EVENT_MESSAGE(message_id=157*)
     "However, for the sake of national security, we ask you to keep this information to yourself."
  1: 0x0494 [0x23] WAIT_FOR_DIALOG_INTERACTION
  2: 0x0495 [0x1D] PRINT_EVENT_MESSAGE(message_id=158*)
     "There is no reason to inform the public at this time. The wounds that the Tarutaru received twenty yearrrs ago still have not healed, and releasing this information now would only cause unwanted confusion."
  3: 0x0498 [0x23] WAIT_FOR_DIALOG_INTERACTION
  4: 0x0499 [0x00] END_REQSTACK()
```

### Event 65535.72

#### Metadata

| Field        | Value   |
|--------------|---------|
| Entrypoint   | 0x049A  |
| Data Size    | 5 bytes |
| Instructions | 3       |

```
      00 01 02 03 04 05 06 07  08 09 0A 0B 0C 0D 0E 0F
      -- -- -- -- -- -- -- --  -- -- -- -- -- -- -- --
0490:                                1D 4C 80 23 00               .L.#. 
```

#### Opcodes

```
  0: 0x049A [0x1D] PRINT_EVENT_MESSAGE(message_id=159*)
     "As for you, you can go back to your adventuring. The Sibyl Guards will take the investigation from here."
  1: 0x049D [0x23] WAIT_FOR_DIALOG_INTERACTION
  2: 0x049E [0x00] END_REQSTACK()
```

### Event 65535.73

#### Metadata

| Field        | Value    |
|--------------|----------|
| Entrypoint   | 0x049F   |
| Data Size    | 19 bytes |
| Instructions | 5        |

```
      00 01 02 03 04 05 06 07  08 09 0A 0B 0C 0D 0E 0F
      -- -- -- -- -- -- -- --  -- -- -- -- -- -- -- --
0490:                                               29                 )
04A0: 08 16 20 0F 01 14 1D 4D  80 23 29 08 16 20 0F 01  .. ....M.#).. ..
04B0: 15 00                                             ..              
```

#### Opcodes

```
  0: 0x049F [0x29] REQ_SET_WAIT(priority=0x08, entity_id=Semih Lafihna (ID: 17768470/0x010F2016), tag_num=0x14)
  1: 0x04A6 [0x1D] PRINT_EVENT_MESSAGE(message_id=162*)
     "Ajido-Marujido!"
  2: 0x04A9 [0x23] WAIT_FOR_DIALOG_INTERACTION
  3: 0x04AA [0x29] REQ_SET_WAIT(priority=0x08, entity_id=Semih Lafihna (ID: 17768470/0x010F2016), tag_num=0x15)
  4: 0x04B1 [0x00] END_REQSTACK()
```

### Event 65535.74

#### Metadata

| Field        | Value   |
|--------------|---------|
| Entrypoint   | 0x04B2  |
| Data Size    | 5 bytes |
| Instructions | 3       |

```
      00 01 02 03 04 05 06 07  08 09 0A 0B 0C 0D 0E 0F
      -- -- -- -- -- -- -- --  -- -- -- -- -- -- -- --
04B0:       1D 4E 80 23 00                                .N.#.         
```

#### Opcodes

```
  0: 0x04B2 [0x1D] PRINT_EVENT_MESSAGE(message_id=163*)
     "What is the meaning of this!? You are no longer allowed to have audiences with the Star Sibyl. Leave at once, traitorrr!"
  1: 0x04B5 [0x23] WAIT_FOR_DIALOG_INTERACTION
  2: 0x04B6 [0x00] END_REQSTACK()
```

### Event 65535.75

#### Metadata

| Field        | Value    |
|--------------|----------|
| Entrypoint   | 0x04B7   |
| Data Size    | 33 bytes |
| Instructions | 7        |

```
      00 01 02 03 04 05 06 07  08 09 0A 0B 0C 0D 0E 0F
      -- -- -- -- -- -- -- --  -- -- -- -- -- -- -- --
04B0:                      29  08 16 20 0F 01 01 1D 4F         ).. ....O
04C0: 80 23 29 08 16 20 0F 01  02 29 08 16 20 0F 01 04  .#).. ...).. ...
04D0: 29 08 16 20 0F 01 05 00                           ).. ....        
```

#### Opcodes

```
  0: 0x04B7 [0x29] REQ_SET_WAIT(priority=0x08, entity_id=Semih Lafihna (ID: 17768470/0x010F2016), tag_num=0x01)
  1: 0x04BE [0x1D] PRINT_EVENT_MESSAGE(message_id=166*)
     "Well, I'm sure we can fare better than some powerrr-hungry minister with his head in a hole."
  2: 0x04C1 [0x23] WAIT_FOR_DIALOG_INTERACTION
  3: 0x04C2 [0x29] REQ_SET_WAIT(priority=0x08, entity_id=Semih Lafihna (ID: 17768470/0x010F2016), tag_num=0x02)
  4: 0x04C9 [0x29] REQ_SET_WAIT(priority=0x08, entity_id=Semih Lafihna (ID: 17768470/0x010F2016), tag_num=0x04)
  5: 0x04D0 [0x29] REQ_SET_WAIT(priority=0x08, entity_id=Semih Lafihna (ID: 17768470/0x010F2016), tag_num=0x05)
  6: 0x04D7 [0x00] END_REQSTACK()
```

### Event 65535.76

#### Metadata

| Field        | Value   |
|--------------|---------|
| Entrypoint   | 0x04D8  |
| Data Size    | 5 bytes |
| Instructions | 3       |

```
      00 01 02 03 04 05 06 07  08 09 0A 0B 0C 0D 0E 0F
      -- -- -- -- -- -- -- --  -- -- -- -- -- -- -- --
04D0:                          1D 50 80 23 00                   .P.#.   
```

#### Opcodes

```
  0: 0x04D8 [0x1D] PRINT_EVENT_MESSAGE(message_id=168*)
     "What is this?"
  1: 0x04DB [0x23] WAIT_FOR_DIALOG_INTERACTION
  2: 0x04DC [0x00] END_REQSTACK()
```

### Event 65535.77

#### Metadata

| Field        | Value   |
|--------------|---------|
| Entrypoint   | 0x04DD  |
| Data Size    | 9 bytes |
| Instructions | 5       |

```
      00 01 02 03 04 05 06 07  08 09 0A 0B 0C 0D 0E 0F
      -- -- -- -- -- -- -- --  -- -- -- -- -- -- -- --
04D0:                                         1D 51 80               .Q.
04E0: 23 1D 52 80 23 00                                 #.R.#.          
```

#### Opcodes

```
  0: 0x04DD [0x1D] PRINT_EVENT_MESSAGE(message_id=169*)
     "Wait! Ajido-Marujido!"
  1: 0x04E0 [0x23] WAIT_FOR_DIALOG_INTERACTION
  2: 0x04E1 [0x1D] PRINT_EVENT_MESSAGE(message_id=170*)
     "The pages... They're all blank. Is this some kind of joke?"
  3: 0x04E4 [0x23] WAIT_FOR_DIALOG_INTERACTION
  4: 0x04E5 [0x00] END_REQSTACK()
```

### Event 65535.78

#### Metadata

| Field        | Value   |
|--------------|---------|
| Entrypoint   | 0x04E6  |
| Data Size    | 5 bytes |
| Instructions | 3       |

```
      00 01 02 03 04 05 06 07  08 09 0A 0B 0C 0D 0E 0F
      -- -- -- -- -- -- -- --  -- -- -- -- -- -- -- --
04E0:                   1D 53  80 23 00                       .S.#.     
```

#### Opcodes

```
  0: 0x04E6 [0x1D] PRINT_EVENT_MESSAGE(message_id=175*)
     "..."
  1: 0x04E9 [0x23] WAIT_FOR_DIALOG_INTERACTION
  2: 0x04EA [0x00] END_REQSTACK()
```

### Event 65535.79

#### Metadata

| Field        | Value   |
|--------------|---------|
| Entrypoint   | 0x04EB  |
| Data Size    | 5 bytes |
| Instructions | 3       |

```
      00 01 02 03 04 05 06 07  08 09 0A 0B 0C 0D 0E 0F
      -- -- -- -- -- -- -- --  -- -- -- -- -- -- -- --
04E0:                                   1D 38 80 23 00             .8.#.
```

#### Opcodes

```
  0: 0x04EB [0x1D] PRINT_EVENT_MESSAGE(message_id=176*)
     "<Player>... I have a mission for you."
  1: 0x04EE [0x23] WAIT_FOR_DIALOG_INTERACTION
  2: 0x04EF [0x00] END_REQSTACK()
```

### Event 65535.80

#### Metadata

| Field        | Value   |
|--------------|---------|
| Entrypoint   | 0x04F0  |
| Data Size    | 5 bytes |
| Instructions | 3       |

```
      00 01 02 03 04 05 06 07  08 09 0A 0B 0C 0D 0E 0F
      -- -- -- -- -- -- -- --  -- -- -- -- -- -- -- --
04F0: 1D 54 80 23 00                                    .T.#.           
```

#### Opcodes

```
  0: 0x04F0 [0x1D] PRINT_EVENT_MESSAGE(message_id=177*)
     "Follow that Tarutaru and find out what he is up to. Report to me when you do."
  1: 0x04F3 [0x23] WAIT_FOR_DIALOG_INTERACTION
  2: 0x04F4 [0x00] END_REQSTACK()
```

### Event 65535.81

#### Metadata

| Field        | Value   |
|--------------|---------|
| Entrypoint   | 0x04F5  |
| Data Size    | 5 bytes |
| Instructions | 3       |

```
      00 01 02 03 04 05 06 07  08 09 0A 0B 0C 0D 0E 0F
      -- -- -- -- -- -- -- --  -- -- -- -- -- -- -- --
04F0:                1D 55 80  23 00                         .U.#.      
```

#### Opcodes

```
  0: 0x04F5 [0x1D] PRINT_EVENT_MESSAGE(message_id=178*)
     "I cannot forgive any who endanger the peace of Windurst."
  1: 0x04F8 [0x23] WAIT_FOR_DIALOG_INTERACTION
  2: 0x04F9 [0x00] END_REQSTACK()
```

### Event 114

#### Metadata

| Field        | Value   |
|--------------|---------|
| Entrypoint   | 0x04FA  |
| Data Size    | 1 bytes |
| Instructions | 1       |

```
      00 01 02 03 04 05 06 07  08 09 0A 0B 0C 0D 0E 0F
      -- -- -- -- -- -- -- --  -- -- -- -- -- -- -- --
04F0:                                00                           .     
```

#### Opcodes

```
  0: 0x04FA [0x00] END_REQSTACK()
```

### Event 65535.82

#### Metadata

| Field        | Value   |
|--------------|---------|
| Entrypoint   | 0x04FB  |
| Data Size    | 9 bytes |
| Instructions | 5       |

```
      00 01 02 03 04 05 06 07  08 09 0A 0B 0C 0D 0E 0F
      -- -- -- -- -- -- -- --  -- -- -- -- -- -- -- --
04F0:                                   1D 56 80 23 1D             .V.#.
0500: 57 80 23 00                                       W.#.            
```

#### Opcodes

```
  0: 0x04FB [0x1D] PRINT_EVENT_MESSAGE(message_id=193*)
     "Ah, I see you are back, <Player>."
  1: 0x04FE [0x23] WAIT_FOR_DIALOG_INTERACTION
  2: 0x04FF [0x1D] PRINT_EVENT_MESSAGE(message_id=194*)
     "Tell me what you have learrrned."
  3: 0x0502 [0x23] WAIT_FOR_DIALOG_INTERACTION
  4: 0x0503 [0x00] END_REQSTACK()
```

### Event 65535.83

#### Metadata

| Field        | Value   |
|--------------|---------|
| Entrypoint   | 0x0504  |
| Data Size    | 9 bytes |
| Instructions | 5       |

```
      00 01 02 03 04 05 06 07  08 09 0A 0B 0C 0D 0E 0F
      -- -- -- -- -- -- -- --  -- -- -- -- -- -- -- --
0500:             1D 58 80 23  1D 59 80 23 00               .X.#.Y.#.   
```

#### Opcodes

```
  0: 0x0504 [0x1D] PRINT_EVENT_MESSAGE(message_id=195*)
     "I see... So, Ajido-Marujido went all the way to Castle Oztroja."
  1: 0x0507 [0x23] WAIT_FOR_DIALOG_INTERACTION
  2: 0x0508 [0x1D] PRINT_EVENT_MESSAGE(message_id=196*)
     "And had an audience with their king!? How many of our country's laws does he have to brrreak to be satisfied?"
  3: 0x050B [0x23] WAIT_FOR_DIALOG_INTERACTION
  4: 0x050C [0x00] END_REQSTACK()
```

### Event 65535.84

#### Metadata

| Field        | Value    |
|--------------|----------|
| Entrypoint   | 0x050D   |
| Data Size    | 37 bytes |
| Instructions | 9        |

```
      00 01 02 03 04 05 06 07  08 09 0A 0B 0C 0D 0E 0F
      -- -- -- -- -- -- -- --  -- -- -- -- -- -- -- --
0500:                                         29 08 16               )..
0510: 20 0F 01 01 1D 5A 80 23  1D 5B 80 23 29 08 16 20   ....Z.#.[.#).. 
0520: 0F 01 02 29 08 16 20 0F  01 04 29 08 16 20 0F 01  ...).. ...).. ..
0530: 05 00                                             ..              
```

#### Opcodes

```
  0: 0x050D [0x29] REQ_SET_WAIT(priority=0x08, entity_id=Semih Lafihna (ID: 17768470/0x010F2016), tag_num=0x01)
  1: 0x0514 [0x1D] PRINT_EVENT_MESSAGE(message_id=197*)
     "I commend you on your fine work. I will report this information to the Star Sibyl at once."
  2: 0x0517 [0x23] WAIT_FOR_DIALOG_INTERACTION
  3: 0x0518 [0x1D] PRINT_EVENT_MESSAGE(message_id=198*)
     "And following that, I think I will personally deliver a grave warning to our rogue ministerrr."
  4: 0x051B [0x23] WAIT_FOR_DIALOG_INTERACTION
  5: 0x051C [0x29] REQ_SET_WAIT(priority=0x08, entity_id=Semih Lafihna (ID: 17768470/0x010F2016), tag_num=0x02)
  6: 0x0523 [0x29] REQ_SET_WAIT(priority=0x08, entity_id=Semih Lafihna (ID: 17768470/0x010F2016), tag_num=0x04)
  7: 0x052A [0x29] REQ_SET_WAIT(priority=0x08, entity_id=Semih Lafihna (ID: 17768470/0x010F2016), tag_num=0x05)
  8: 0x0531 [0x00] END_REQSTACK()
```

### Event 65535.85

#### Metadata

| Field        | Value   |
|--------------|---------|
| Entrypoint   | 0x0532  |
| Data Size    | 5 bytes |
| Instructions | 3       |

```
      00 01 02 03 04 05 06 07  08 09 0A 0B 0C 0D 0E 0F
      -- -- -- -- -- -- -- --  -- -- -- -- -- -- -- --
0530:       1D 5C 80 23 00                                .\.#.         
```

#### Opcodes

```
  0: 0x0532 [0x1D] PRINT_EVENT_MESSAGE(message_id=199*)
     "You, for now, may rest. I sense another mission for you very soon."
  1: 0x0535 [0x23] WAIT_FOR_DIALOG_INTERACTION
  2: 0x0536 [0x00] END_REQSTACK()
```

### Event 153

#### Metadata

| Field        | Value    |
|--------------|----------|
| Entrypoint   | 0x0537   |
| Data Size    | 16 bytes |
| Instructions | 3        |

```
      00 01 02 03 04 05 06 07  08 09 0A 0B 0C 0D 0E 0F
      -- -- -- -- -- -- -- --  -- -- -- -- -- -- -- --
0530:                      37  5D 80 5E 80 5F 80 60 80         7].^._.`.
0540: 4E 00 16 20 0F 01 00                              N.. ...         
```

#### Opcodes

```
  0: 0x0537 [0x37] UPDATE_EVENT_POSITION_AND_DIR: x=0.058*, z=63.343*, y=-60.524*, direction=99.9*
  1: 0x0540 [0x4E] SET_ENTITY_HIDE_FLAG: Show Semih Lafihna (ID: 17768470/0x010F2016)
  2: 0x0546 [0x00] END_REQSTACK()
```

### Event 65535.86

#### Metadata

| Field        | Value    |
|--------------|----------|
| Entrypoint   | 0x0547   |
| Data Size    | 27 bytes |
| Instructions | 7        |

```
      00 01 02 03 04 05 06 07  08 09 0A 0B 0C 0D 0E 0F
      -- -- -- -- -- -- -- --  -- -- -- -- -- -- -- --
0540:                      37  61 80 62 80 63 80 64 80         7a.b.c.d.
0550: 32 07 80 1C 65 80 1F 00  66 80 67 80 68 80 1F 01  2...e...f.g.h...
0560: 6F 00                                             o.              
```

#### Opcodes

```
  0: 0x0547 [0x37] UPDATE_EVENT_POSITION_AND_DIR: x=-1.989*, z=61.853*, y=-60.500*, direction=82.1*
  1: 0x0550 [0x32] ExtData[1]->MainSpeed = 13* * 0.1
  2: 0x0553 [0x1C] WAIT(100* ticks)
  3: 0x0556 [0x1F] MOVE_ENTITY: EventEntity moves to X=-3.709*, Z=46.059*, Y=-60.999*
  4: 0x055E [0x1F] MOVE_ENTITY: Update entity position (mode=1)
  5: 0x0560 [0x6F] WAIT_FRAME_DELAY: Yield until WaitTime reaches zero
  6: 0x0561 [0x00] END_REQSTACK()
```

### Event 65535.87

#### Metadata

| Field        | Value    |
|--------------|----------|
| Entrypoint   | 0x0562   |
| Data Size    | 41 bytes |
| Instructions | 9        |

```
      00 01 02 03 04 05 06 07  08 09 0A 0B 0C 0D 0E 0F
      -- -- -- -- -- -- -- --  -- -- -- -- -- -- -- --
0560:       37 69 80 6A 80 5F  80 6B 80 32 07 80 1F 00    7i.j._.k.2....
0570: 6C 80 6D 80 6E 80 1F 01  1F 00 66 80 67 80 68 80  l.m.n.....f.g.h.
0580: 1F 01 6F 4B 16 20 0F 01  6F 80 00                 ..oK. ..o..     
```

#### Opcodes

```
  0: 0x0562 [0x37] UPDATE_EVENT_POSITION_AND_DIR: x=-6.118*, z=57.743*, y=-60.524*, direction=81.6*
  1: 0x056B [0x32] ExtData[1]->MainSpeed = 13* * 0.1
  2: 0x056E [0x1F] MOVE_ENTITY: EventEntity moves to X=-4.961*, Z=51.787*, Y=-61.000*
  3: 0x0576 [0x1F] MOVE_ENTITY: Update entity position (mode=1)
  4: 0x0578 [0x1F] MOVE_ENTITY: EventEntity moves to X=-3.709*, Z=46.059*, Y=-60.999*
  5: 0x0580 [0x1F] MOVE_ENTITY: Update entity position (mode=1)
  6: 0x0582 [0x6F] WAIT_FRAME_DELAY: Yield until WaitTime reaches zero
  7: 0x0583 [0x4B] UPDATE_ENTITY_YAW(entity=Semih Lafihna (ID: 17768470/0x010F2016), yaw=18.5*)
  8: 0x058A [0x00] END_REQSTACK()
```

### Event 65535.88

#### Metadata

| Field        | Value    |
|--------------|----------|
| Entrypoint   | 0x058B   |
| Data Size    | 14 bytes |
| Instructions | 4        |

```
      00 01 02 03 04 05 06 07  08 09 0A 0B 0C 0D 0E 0F
      -- -- -- -- -- -- -- --  -- -- -- -- -- -- -- --
0580:                                   32 07 80 1F 00             2....
0590: 70 80 71 80 6E 80 1F 01  00                       p.q.n....       
```

#### Opcodes

```
  0: 0x058B [0x32] ExtData[1]->MainSpeed = 13* * 0.1
  1: 0x058E [0x1F] MOVE_ENTITY: EventEntity moves to X=-2.734*, Z=46.651*, Y=-61.000*
  2: 0x0596 [0x1F] MOVE_ENTITY: Update entity position (mode=1)
  3: 0x0598 [0x00] END_REQSTACK()
```

### Event 65535.89

#### Metadata

| Field        | Value   |
|--------------|---------|
| Entrypoint   | 0x0599  |
| Data Size    | 5 bytes |
| Instructions | 3       |

```
      00 01 02 03 04 05 06 07  08 09 0A 0B 0C 0D 0E 0F
      -- -- -- -- -- -- -- --  -- -- -- -- -- -- -- --
0590:                             1D 72 80 23 00                 .r.#.  
```

#### Opcodes

```
  0: 0x0599 [0x1D] PRINT_EVENT_MESSAGE(message_id=337*)
     "The will of the Star Sibyl is the will of the Dawn Goddess! How darrre you defy her!"
  1: 0x059C [0x23] WAIT_FOR_DIALOG_INTERACTION
  2: 0x059D [0x00] END_REQSTACK()
```

### Event 166

#### Metadata

| Field        | Value    |
|--------------|----------|
| Entrypoint   | 0x059E   |
| Data Size    | 16 bytes |
| Instructions | 3        |

```
      00 01 02 03 04 05 06 07  08 09 0A 0B 0C 0D 0E 0F
      -- -- -- -- -- -- -- --  -- -- -- -- -- -- -- --
0590:                                            37 66                7f
05A0: 80 67 80 68 80 73 80 4E  00 16 20 0F 01 00        .g.h.s.N.. ...  
```

#### Opcodes

```
  0: 0x059E [0x37] UPDATE_EVENT_POSITION_AND_DIR: x=-3.709*, z=46.059*, y=-60.999*, direction=294.0*
  1: 0x05A7 [0x4E] SET_ENTITY_HIDE_FLAG: Show Semih Lafihna (ID: 17768470/0x010F2016)
  2: 0x05AD [0x00] END_REQSTACK()
```

### Event 65535.90

#### Metadata

| Field        | Value    |
|--------------|----------|
| Entrypoint   | 0x05AE   |
| Data Size    | 33 bytes |
| Instructions | 7        |

```
      00 01 02 03 04 05 06 07  08 09 0A 0B 0C 0D 0E 0F
      -- -- -- -- -- -- -- --  -- -- -- -- -- -- -- --
05A0:                                            29 08                ).
05B0: 16 20 0F 01 01 1D 74 80  23 29 08 16 20 0F 01 02  . ....t.#).. ...
05C0: 29 08 16 20 0F 01 04 29  08 16 20 0F 01 05 00     ).. ...).. .... 
```

#### Opcodes

```
  0: 0x05AE [0x29] REQ_SET_WAIT(priority=0x08, entity_id=Semih Lafihna (ID: 17768470/0x010F2016), tag_num=0x01)
  1: 0x05B5 [0x1D] PRINT_EVENT_MESSAGE(message_id=392*)
     "As you wish."
  2: 0x05B8 [0x23] WAIT_FOR_DIALOG_INTERACTION
  3: 0x05B9 [0x29] REQ_SET_WAIT(priority=0x08, entity_id=Semih Lafihna (ID: 17768470/0x010F2016), tag_num=0x02)
  4: 0x05C0 [0x29] REQ_SET_WAIT(priority=0x08, entity_id=Semih Lafihna (ID: 17768470/0x010F2016), tag_num=0x04)
  5: 0x05C7 [0x29] REQ_SET_WAIT(priority=0x08, entity_id=Semih Lafihna (ID: 17768470/0x010F2016), tag_num=0x05)
  6: 0x05CE [0x00] END_REQSTACK()
```

### Event 65535.91

#### Metadata

| Field        | Value   |
|--------------|---------|
| Entrypoint   | 0x05CF  |
| Data Size    | 5 bytes |
| Instructions | 3       |

```
      00 01 02 03 04 05 06 07  08 09 0A 0B 0C 0D 0E 0F
      -- -- -- -- -- -- -- --  -- -- -- -- -- -- -- --
05C0:                                               1D                 .
05D0: 75 80 23 00                                       u.#.            
```

#### Opcodes

```
  0: 0x05CF [0x1D] PRINT_EVENT_MESSAGE(message_id=393*)
     "I am sure you have heard the stories of Windurst sealing Castle Zvahl with a talisman nearly twenty years ago."
  1: 0x05D2 [0x23] WAIT_FOR_DIALOG_INTERACTION
  2: 0x05D3 [0x00] END_REQSTACK()
```

### Event 65535.92

#### Metadata

| Field        | Value    |
|--------------|----------|
| Entrypoint   | 0x05D4   |
| Data Size    | 16 bytes |
| Instructions | 6        |

```
      00 01 02 03 04 05 06 07  08 09 0A 0B 0C 0D 0E 0F
      -- -- -- -- -- -- -- --  -- -- -- -- -- -- -- --
05D0:             29 08 16 20  0F 01 01 1D 76 80 23 1D      ).. ....v.#.
05E0: 77 80 23 00                                       w.#.            
```

#### Opcodes

```
  0: 0x05D4 [0x29] REQ_SET_WAIT(priority=0x08, entity_id=Semih Lafihna (ID: 17768470/0x010F2016), tag_num=0x01)
  1: 0x05DB [0x1D] PRINT_EVENT_MESSAGE(message_id=394*)
     "This talisman was placed in the central tower of the Horutoto Ruins and sealed with a powerrrful barrier."
  2: 0x05DE [0x23] WAIT_FOR_DIALOG_INTERACTION
  3: 0x05DF [0x1D] PRINT_EVENT_MESSAGE(message_id=395*)
     "Howeverrr, on the night of the last full moon, this barrier was broken and the talisman stolen."
  4: 0x05E2 [0x23] WAIT_FOR_DIALOG_INTERACTION
  5: 0x05E3 [0x00] END_REQSTACK()
```

### Event 65535.93

#### Metadata

| Field        | Value    |
|--------------|----------|
| Entrypoint   | 0x05E4   |
| Data Size    | 19 bytes |
| Instructions | 5        |

```
      00 01 02 03 04 05 06 07  08 09 0A 0B 0C 0D 0E 0F
      -- -- -- -- -- -- -- --  -- -- -- -- -- -- -- --
05E0:             1D 78 80 23  29 08 16 20 0F 01 04 29      .x.#).. ...)
05F0: 08 16 20 0F 01 05 00                              .. ....         
```

#### Opcodes

```
  0: 0x05E4 [0x1D] PRINT_EVENT_MESSAGE(message_id=396*)
     "To think that the Yagudo now have the powerrr to nullify such magic!"
  1: 0x05E7 [0x23] WAIT_FOR_DIALOG_INTERACTION
  2: 0x05E8 [0x29] REQ_SET_WAIT(priority=0x08, entity_id=Semih Lafihna (ID: 17768470/0x010F2016), tag_num=0x04)
  3: 0x05EF [0x29] REQ_SET_WAIT(priority=0x08, entity_id=Semih Lafihna (ID: 17768470/0x010F2016), tag_num=0x05)
  4: 0x05F6 [0x00] END_REQSTACK()
```

### Event 65535.94

#### Metadata

| Field        | Value    |
|--------------|----------|
| Entrypoint   | 0x05F7   |
| Data Size    | 19 bytes |
| Instructions | 5        |

```
      00 01 02 03 04 05 06 07  08 09 0A 0B 0C 0D 0E 0F
      -- -- -- -- -- -- -- --  -- -- -- -- -- -- -- --
05F0:                      29  08 16 20 0F 01 0C 1D 06         ).. .....
0600: 80 23 29 08 16 20 0F 01  0D 00                    .#).. ....      
```

#### Opcodes

```
  0: 0x05F7 [0x29] REQ_SET_WAIT(priority=0x08, entity_id=Semih Lafihna (ID: 17768470/0x010F2016), tag_num=0x0C)
  1: 0x05FE [0x1D] PRINT_EVENT_MESSAGE(message_id=399*)
     "My apologies."
  2: 0x0601 [0x23] WAIT_FOR_DIALOG_INTERACTION
  3: 0x0602 [0x29] REQ_SET_WAIT(priority=0x08, entity_id=Semih Lafihna (ID: 17768470/0x010F2016), tag_num=0x0D)
  4: 0x0609 [0x00] END_REQSTACK()
```

### Event 190

#### Metadata

| Field        | Value    |
|--------------|----------|
| Entrypoint   | 0x060A   |
| Data Size    | 16 bytes |
| Instructions | 3        |

```
      00 01 02 03 04 05 06 07  08 09 0A 0B 0C 0D 0E 0F
      -- -- -- -- -- -- -- --  -- -- -- -- -- -- -- --
0600:                                37 66 80 67 80 68            7f.g.h
0610: 80 73 80 4E 00 16 20 0F  01 00                    .s.N.. ...      
```

#### Opcodes

```
  0: 0x060A [0x37] UPDATE_EVENT_POSITION_AND_DIR: x=-3.709*, z=46.059*, y=-60.999*, direction=294.0*
  1: 0x0613 [0x4E] SET_ENTITY_HIDE_FLAG: Show Semih Lafihna (ID: 17768470/0x010F2016)
  2: 0x0619 [0x00] END_REQSTACK()
```

### Event 191

#### Metadata

| Field        | Value    |
|--------------|----------|
| Entrypoint   | 0x061A   |
| Data Size    | 16 bytes |
| Instructions | 3        |

```
      00 01 02 03 04 05 06 07  08 09 0A 0B 0C 0D 0E 0F
      -- -- -- -- -- -- -- --  -- -- -- -- -- -- -- --
0610:                                37 66 80 67 80 68            7f.g.h
0620: 80 73 80 4E 00 16 20 0F  01 00                    .s.N.. ...      
```

#### Opcodes

```
  0: 0x061A [0x37] UPDATE_EVENT_POSITION_AND_DIR: x=-3.709*, z=46.059*, y=-60.999*, direction=294.0*
  1: 0x0623 [0x4E] SET_ENTITY_HIDE_FLAG: Show Semih Lafihna (ID: 17768470/0x010F2016)
  2: 0x0629 [0x00] END_REQSTACK()
```

### Event 192

#### Metadata

| Field        | Value    |
|--------------|----------|
| Entrypoint   | 0x062A   |
| Data Size    | 16 bytes |
| Instructions | 3        |

```
      00 01 02 03 04 05 06 07  08 09 0A 0B 0C 0D 0E 0F
      -- -- -- -- -- -- -- --  -- -- -- -- -- -- -- --
0620:                                37 66 80 67 80 68            7f.g.h
0630: 80 73 80 4E 00 16 20 0F  01 00                    .s.N.. ...      
```

#### Opcodes

```
  0: 0x062A [0x37] UPDATE_EVENT_POSITION_AND_DIR: x=-3.709*, z=46.059*, y=-60.999*, direction=294.0*
  1: 0x0633 [0x4E] SET_ENTITY_HIDE_FLAG: Show Semih Lafihna (ID: 17768470/0x010F2016)
  2: 0x0639 [0x00] END_REQSTACK()
```

### Event 65535.95

#### Metadata

| Field        | Value    |
|--------------|----------|
| Entrypoint   | 0x063A   |
| Data Size    | 33 bytes |
| Instructions | 7        |

```
      00 01 02 03 04 05 06 07  08 09 0A 0B 0C 0D 0E 0F
      -- -- -- -- -- -- -- --  -- -- -- -- -- -- -- --
0630:                                29 08 16 20 0F 01            ).. ..
0640: 01 1D 79 80 23 29 08 16  20 0F 01 02 29 08 16 20  ..y.#).. ...).. 
0650: 0F 01 04 29 08 16 20 0F  01 05 00                 ...).. ....     
```

#### Opcodes

```
  0: 0x063A [0x29] REQ_SET_WAIT(priority=0x08, entity_id=Semih Lafihna (ID: 17768470/0x010F2016), tag_num=0x01)
  1: 0x0641 [0x1D] PRINT_EVENT_MESSAGE(message_id=430*)
     "Your Holiness! We must stop the revival of the Shadow Lord at all costs! We cannot let historrry repeat itself!"
  2: 0x0644 [0x23] WAIT_FOR_DIALOG_INTERACTION
  3: 0x0645 [0x29] REQ_SET_WAIT(priority=0x08, entity_id=Semih Lafihna (ID: 17768470/0x010F2016), tag_num=0x02)
  4: 0x064C [0x29] REQ_SET_WAIT(priority=0x08, entity_id=Semih Lafihna (ID: 17768470/0x010F2016), tag_num=0x04)
  5: 0x0653 [0x29] REQ_SET_WAIT(priority=0x08, entity_id=Semih Lafihna (ID: 17768470/0x010F2016), tag_num=0x05)
  6: 0x065A [0x00] END_REQSTACK()
```

### Event 335

#### Metadata

| Field        | Value   |
|--------------|---------|
| Entrypoint   | 0x065B  |
| Data Size    | 1 bytes |
| Instructions | 1       |

```
      00 01 02 03 04 05 06 07  08 09 0A 0B 0C 0D 0E 0F
      -- -- -- -- -- -- -- --  -- -- -- -- -- -- -- --
0650:                                   00                         .    
```

#### Opcodes

```
  0: 0x065B [0x00] END_REQSTACK()
```

### Event 362

#### Metadata

| Field        | Value   |
|--------------|---------|
| Entrypoint   | 0x065C  |
| Data Size    | 1 bytes |
| Instructions | 1       |

```
      00 01 02 03 04 05 06 07  08 09 0A 0B 0C 0D 0E 0F
