# 17768482 - Shaz Norem

## Common Data

| Field            | Value                   |
|------------------|-------------------------|
| Zone             | Heavens Tower (ID: 242) |
| Block Size       | 1260 bytes              |
| Total Events     | 44                      |
| References Count | 45                      |

## List of Events

| Event ID                   | Entrypoint   |   Size |   Instructions |
|----------------------------|--------------|--------|----------------|
| [65535](#event-65535)      | 0x0000       |      1 |              1 |
| [65535.1](#event-655351)   | 0x0001       |     16 |              2 |
| [65535.2](#event-655352)   | 0x0011       |     14 |              2 |
| [65535.3](#event-655353)   | 0x001F       |     16 |              2 |
| [65535.4](#event-655354)   | 0x002F       |     14 |              2 |
| [65535.5](#event-655355)   | 0x003D       |     16 |              2 |
| [65535.6](#event-655356)   | 0x004D       |     14 |              2 |
| [65535.7](#event-655357)   | 0x005B       |     16 |              2 |
| [65535.8](#event-655358)   | 0x006B       |     14 |              2 |
| [65535.9](#event-655359)   | 0x0079       |     16 |              2 |
| [65535.10](#event-6553510) | 0x0089       |     14 |              2 |
| [65535.11](#event-6553511) | 0x0097       |     16 |              2 |
| [65535.12](#event-6553512) | 0x00A7       |     14 |              2 |
| [65535.13](#event-6553513) | 0x00B5       |     16 |              2 |
| [65535.14](#event-6553514) | 0x00C5       |     14 |              2 |
| [65535.15](#event-6553515) | 0x00D3       |     16 |              2 |
| [65535.16](#event-6553516) | 0x00E3       |     14 |              2 |
| [65535.17](#event-6553517) | 0x00F1       |     16 |              2 |
| [65535.18](#event-6553518) | 0x0101       |     14 |              2 |
| [65535.19](#event-6553519) | 0x010F       |     16 |              2 |
| [65535.20](#event-6553520) | 0x011F       |     14 |              2 |
| [65535.21](#event-6553521) | 0x012D       |     16 |              2 |
| [65535.22](#event-6553522) | 0x013D       |     14 |              2 |
| [65535.23](#event-6553523) | 0x014B       |      9 |              3 |
| [91](#event-91)            | 0x0154       |     15 |              8 |
| [6](#event-6)              | 0x0163       |      1 |              1 |
| [107](#event-107)          | 0x0164       |      1 |              1 |
| [65535.24](#event-6553524) | 0x0165       |     10 |              2 |
| [65535.25](#event-6553525) | 0x016F       |     10 |              2 |
| [65535.26](#event-6553526) | 0x0179       |     11 |              3 |
| [65535.27](#event-6553527) | 0x0184       |     51 |              9 |
| [65535.28](#event-6553528) | 0x01B7       |      5 |              3 |
| [110](#event-110)          | 0x01BC       |     40 |             13 |
| [114](#event-114)          | 0x01E4       |      1 |              1 |
| [117](#event-117)          | 0x01E5       |     40 |             13 |
| [174](#event-174)          | 0x020D       |     40 |             13 |
| [199](#event-199)          | 0x0235       |     40 |             13 |
| [222](#event-222)          | 0x025D       |     40 |             13 |
| [321](#event-321)          | 0x0285       |     40 |             13 |
| [306](#event-306)          | 0x02AD       |     40 |             13 |
| [365](#event-365)          | 0x02D5       |     40 |             13 |
| [371](#event-371)          | 0x02FD       |     40 |             13 |
| [383](#event-383)          | 0x0325       |     40 |             13 |
| [401](#event-401)          | 0x034D       |     40 |             13 |

## DAT References (imed_data)

|   Index | Hex Value   |   Dec Value |
|---------|-------------|-------------|
|       0 | 0x0032      |          50 |
|       1 | 0x0034      |          52 |
|       2 | 0x0035      |          53 |
|       3 | 0x0039      |          57 |
|       4 | 0x001E      |          30 |
|       5 | 0x005A      |          90 |
|       6 | 0x0811      |        2065 |
|       7 | 0xFFFFD7AD  |  4294956973 |
|       8 | 0xFFFF4869  |  4294920297 |
|       9 | 0x0AFF      |        2815 |
|      10 | 0x077E      |        1918 |
|      11 | 0xFFFFAB0D  |  4294945549 |
|      12 | 0xFFFF4E44  |  4294921796 |
|      13 | 0x054A      |        1354 |
|      14 | 0x0297      |         663 |
|      15 | 0xFFFFA6F7  |  4294944503 |
|      16 | 0xFFFF3CB0  |  4294917296 |
|      17 | 0x0028      |          40 |
|      18 | 0x0593      |        1427 |
|      19 | 0xFFFFA0FE  |  4294942974 |
|      20 | 0xFFFF5038  |  4294922296 |
|      21 | 0x0002      |           2 |
|      22 | 0x00A0      |         160 |
|      23 | 0x00B7      |         183 |
|      24 | 0x00B8      |         184 |
|      25 | 0x00CB      |         203 |
|      26 | 0x00CC      |         204 |
|      27 | 0x0166      |         358 |
|      28 | 0x0167      |         359 |
|      29 | 0x01BC      |         444 |
|      30 | 0x01BD      |         445 |
|      31 | 0x01EF      |         495 |
|      32 | 0x01F0      |         496 |
|      33 | 0x005B      |          91 |
|      34 | 0x005C      |          92 |
|      35 | 0x1FDB      |        8155 |
|      36 | 0x1FDC      |        8156 |
|      37 | 0x2077      |        8311 |
|      38 | 0x2078      |        8312 |
|      39 | 0x207E      |        8318 |
|      40 | 0x207F      |        8319 |
|      41 | 0x20FD      |        8445 |
|      42 | 0x20FE      |        8446 |
|      43 | 0x2159      |        8537 |
|      44 | 0x215A      |        8538 |

## String References

- **90**: Sibyl Guard, Shaz Norem! I will not tolerrrate any who attempt to deface Heavens Tower.
- **91**: As you can see, we Sibyl Guards are not a chosen few.
- **92**: This is a position we werrre given, and we must trrrain as hard as anyone else. We can't let down the people who gave us this job.
- **160**: Halt! Do not prrroceed any further!
- **183**: Tarutaru are usually cowards, but once they get fired up, there's no contrrrolling them. They are even willing to make enemies of the Sibyl Guards in order to carrry out their silly plans.
- **184**: Am I hurrrt? Oh, you don't need to worry about me. I think he went "easy" on us...
- **203**: Just because they are ministers doesn't mean we can allow them do as they please.
- **204**: Perhaps it is time for the Sibyl Guards to take action and gatherrr up all the traitors in Windurst.
- **358**: Have you hearrrd that on the night of the Star Reading ceremony, a "bearer of darkness" appearrred?
- **359**: We Sibyl Guards do not rrrecall seeing anything out of the ordinary, but later that night is when the talisman sealing Castle Zvahl was stolen...
- **444**: Do you rememberrr the "bearer of darkness" that brrroke into Heavens Tower on the night the talisman was stolen?
- **445**: Maybe it was really a sign of the situation that looms before us!
- **495**: Let me thank you for grrranting the wish deep within the hearts of all Mithra.
- **496**: No longer will innocent children have to be the sacrifice of a meaningless war. Our prayers have been answerrred.
- **8155**: Do you remember the bearer of darkness that appearrred here?
- **8156**: Someone came here claiming to have seen it in another country. What on Vana'diel is that thing?
- **8311**: I rrrecognized the stench that the bearer of darkness exuded...
- **8312**: It was the smell of the dead... That putrid miasma has no place in this world.
- **8318**: Rescuing the Star Sibyl will be best accomplished by a small, well-coordinated team.
- **8319**: The Cardians might decide to use the Star Sibyl as a shield, though. Those puppets probably have no idea of how much a person's life is worth.
- **8445**: Why do the Yagudo have to stick their beaks in at a time like this!?
- **8446**: Without the Star Sibyl here, we can't send an apology or even a declaration of war if it comes to that!
- **8537**: You know how the Yagudo have become so fixated on the magic towerrrs in Sarutabaruta? It must have something to do with the massive destruction wrrrought upon them by the summoning twenty years ago.
- **8538**: The Yagudo have lived in this region for far longer than the Mithra. They probably have as much knowledge about the towers as the Tarutaru.

## Events

### Event 65535

#### Metadata

| Field        | Value   |
|--------------|---------|
| Entrypoint   | 0x0000  |
| Data Size    | 1 bytes |
| Instructions | 1       |

```
      00 01 02 03 04 05 06 07  08 09 0A 0B 0C 0D 0E 0F
      -- -- -- -- -- -- -- --  -- -- -- -- -- -- -- --
0000: 00                                                .               
```

#### Opcodes

```
  0: 0x0000 [0x00] END_REQSTACK()
```

### Event 65535.1

#### Metadata

| Field        | Value    |
|--------------|----------|
| Entrypoint   | 0x0001   |
| Data Size    | 16 bytes |
| Instructions | 2        |

```
      00 01 02 03 04 05 06 07  08 09 0A 0B 0C 0D 0E 0F
      -- -- -- -- -- -- -- --  -- -- -- -- -- -- -- --
0000:    66 00 80 F8 FF FF 7F  F8 FF FF 7F 74 6C 6B 30   f..........tlk0
0010: 00                                                .               
```

#### Opcodes

```
  0: 0x0001 [0x66] LOAD_EXT_SCHEDULER_MAIN: Load scheduler "tlk0" with entities [EventEntity, EventEntity], work=50*
  1: 0x0010 [0x00] END_REQSTACK()
```

### Event 65535.2

#### Metadata

| Field        | Value    |
|--------------|----------|
| Entrypoint   | 0x0011   |
| Data Size    | 14 bytes |
| Instructions | 2        |

```
      00 01 02 03 04 05 06 07  08 09 0A 0B 0C 0D 0E 0F
      -- -- -- -- -- -- -- --  -- -- -- -- -- -- -- --
0010:    53 F8 FF FF 7F F8 FF  FF 7F 74 6C 6B 30 00      S........tlk0. 
```

#### Opcodes

```
  0: 0x0011 [0x53] WAIT_SCHEDULER_TASK: Wait for scheduler "tlk0" with entities [EventEntity, EventEntity]
  1: 0x001E [0x00] END_REQSTACK()
```

### Event 65535.3

#### Metadata

| Field        | Value    |
|--------------|----------|
| Entrypoint   | 0x001F   |
| Data Size    | 16 bytes |
| Instructions | 2        |

```
      00 01 02 03 04 05 06 07  08 09 0A 0B 0C 0D 0E 0F
      -- -- -- -- -- -- -- --  -- -- -- -- -- -- -- --
0010:                                               66                 f
0020: 00 80 F8 FF FF 7F F8 FF  FF 7F 74 6C 6B 32 00     ..........tlk2. 
```

#### Opcodes

```
  0: 0x001F [0x66] LOAD_EXT_SCHEDULER_MAIN: Load scheduler "tlk2" with entities [EventEntity, EventEntity], work=50*
  1: 0x002E [0x00] END_REQSTACK()
```

### Event 65535.4

#### Metadata

| Field        | Value    |
|--------------|----------|
| Entrypoint   | 0x002F   |
| Data Size    | 14 bytes |
| Instructions | 2        |

```
      00 01 02 03 04 05 06 07  08 09 0A 0B 0C 0D 0E 0F
      -- -- -- -- -- -- -- --  -- -- -- -- -- -- -- --
0020:                                               53                 S
0030: F8 FF FF 7F F8 FF FF 7F  74 6C 6B 32 00           ........tlk2.   
```

#### Opcodes

```
  0: 0x002F [0x53] WAIT_SCHEDULER_TASK: Wait for scheduler "tlk2" with entities [EventEntity, EventEntity]
  1: 0x003C [0x00] END_REQSTACK()
```

### Event 65535.5

#### Metadata

| Field        | Value    |
|--------------|----------|
| Entrypoint   | 0x003D   |
| Data Size    | 16 bytes |
| Instructions | 2        |

```
      00 01 02 03 04 05 06 07  08 09 0A 0B 0C 0D 0E 0F
      -- -- -- -- -- -- -- --  -- -- -- -- -- -- -- --
0030:                                         66 00 80               f..
0040: F8 FF FF 7F F8 FF FF 7F  74 68 6B 31 00           ........thk1.   
```

#### Opcodes

```
  0: 0x003D [0x66] LOAD_EXT_SCHEDULER_MAIN: Load scheduler "thk1" with entities [EventEntity, EventEntity], work=50*
  1: 0x004C [0x00] END_REQSTACK()
```

### Event 65535.6

#### Metadata

| Field        | Value    |
|--------------|----------|
| Entrypoint   | 0x004D   |
| Data Size    | 14 bytes |
| Instructions | 2        |

```
      00 01 02 03 04 05 06 07  08 09 0A 0B 0C 0D 0E 0F
      -- -- -- -- -- -- -- --  -- -- -- -- -- -- -- --
0040:                                         53 F8 FF               S..
0050: FF 7F F8 FF FF 7F 74 68  6B 31 00                 ......thk1.     
```

#### Opcodes

```
  0: 0x004D [0x53] WAIT_SCHEDULER_TASK: Wait for scheduler "thk1" with entities [EventEntity, EventEntity]
  1: 0x005A [0x00] END_REQSTACK()
```

### Event 65535.7

#### Metadata

| Field        | Value    |
|--------------|----------|
| Entrypoint   | 0x005B   |
| Data Size    | 16 bytes |
| Instructions | 2        |

```
      00 01 02 03 04 05 06 07  08 09 0A 0B 0C 0D 0E 0F
      -- -- -- -- -- -- -- --  -- -- -- -- -- -- -- --
0050:                                   66 00 80 F8 FF             f....
0060: FF 7F F8 FF FF 7F 74 68  6B 32 00                 ......thk2.     
```

#### Opcodes

```
  0: 0x005B [0x66] LOAD_EXT_SCHEDULER_MAIN: Load scheduler "thk2" with entities [EventEntity, EventEntity], work=50*
  1: 0x006A [0x00] END_REQSTACK()
```

### Event 65535.8

#### Metadata

| Field        | Value    |
|--------------|----------|
| Entrypoint   | 0x006B   |
| Data Size    | 14 bytes |
| Instructions | 2        |

```
      00 01 02 03 04 05 06 07  08 09 0A 0B 0C 0D 0E 0F
      -- -- -- -- -- -- -- --  -- -- -- -- -- -- -- --
0060:                                   53 F8 FF FF 7F             S....
0070: F8 FF FF 7F 74 68 6B 32  00                       ....thk2.       
```

#### Opcodes

```
  0: 0x006B [0x53] WAIT_SCHEDULER_TASK: Wait for scheduler "thk2" with entities [EventEntity, EventEntity]
  1: 0x0078 [0x00] END_REQSTACK()
```

### Event 65535.9

#### Metadata

| Field        | Value    |
|--------------|----------|
| Entrypoint   | 0x0079   |
| Data Size    | 16 bytes |
| Instructions | 2        |

```
      00 01 02 03 04 05 06 07  08 09 0A 0B 0C 0D 0E 0F
      -- -- -- -- -- -- -- --  -- -- -- -- -- -- -- --
0070:                             66 01 80 F8 FF FF 7F           f......
0080: F8 FF FF 7F 64 69 73 30  00                       ....dis0.       
```

#### Opcodes

```
  0: 0x0079 [0x66] LOAD_EXT_SCHEDULER_MAIN: Load scheduler "dis0" with entities [EventEntity, EventEntity], work=52*
  1: 0x0088 [0x00] END_REQSTACK()
```

### Event 65535.10

#### Metadata

| Field        | Value    |
|--------------|----------|
| Entrypoint   | 0x0089   |
| Data Size    | 14 bytes |
| Instructions | 2        |

```
      00 01 02 03 04 05 06 07  08 09 0A 0B 0C 0D 0E 0F
      -- -- -- -- -- -- -- --  -- -- -- -- -- -- -- --
0080:                             53 F8 FF FF 7F F8 FF           S......
0090: FF 7F 64 69 73 30 00                              ..dis0.         
```

#### Opcodes

```
  0: 0x0089 [0x53] WAIT_SCHEDULER_TASK: Wait for scheduler "dis0" with entities [EventEntity, EventEntity]
  1: 0x0096 [0x00] END_REQSTACK()
```

### Event 65535.11

#### Metadata

| Field        | Value    |
|--------------|----------|
| Entrypoint   | 0x0097   |
| Data Size    | 16 bytes |
| Instructions | 2        |

```
      00 01 02 03 04 05 06 07  08 09 0A 0B 0C 0D 0E 0F
      -- -- -- -- -- -- -- --  -- -- -- -- -- -- -- --
0090:                      66  01 80 F8 FF FF 7F F8 FF         f........
00A0: FF 7F 74 6C 63 30 00                              ..tlc0.         
```

#### Opcodes

```
  0: 0x0097 [0x66] LOAD_EXT_SCHEDULER_MAIN: Load scheduler "tlc0" with entities [EventEntity, EventEntity], work=52*
  1: 0x00A6 [0x00] END_REQSTACK()
```

### Event 65535.12

#### Metadata

| Field        | Value    |
|--------------|----------|
| Entrypoint   | 0x00A7   |
| Data Size    | 14 bytes |
| Instructions | 2        |

```
      00 01 02 03 04 05 06 07  08 09 0A 0B 0C 0D 0E 0F
      -- -- -- -- -- -- -- --  -- -- -- -- -- -- -- --
00A0:                      53  F8 FF FF 7F F8 FF FF 7F         S........
00B0: 74 6C 63 30 00                                    tlc0.           
```

#### Opcodes

```
  0: 0x00A7 [0x53] WAIT_SCHEDULER_TASK: Wait for scheduler "tlc0" with entities [EventEntity, EventEntity]
  1: 0x00B4 [0x00] END_REQSTACK()
```

### Event 65535.13

#### Metadata

| Field        | Value    |
|--------------|----------|
| Entrypoint   | 0x00B5   |
| Data Size    | 16 bytes |
| Instructions | 2        |

```
      00 01 02 03 04 05 06 07  08 09 0A 0B 0C 0D 0E 0F
      -- -- -- -- -- -- -- --  -- -- -- -- -- -- -- --
00B0:                66 01 80  F8 FF FF 7F F8 FF FF 7F       f..........
00C0: 74 6C 63 31 00                                    tlc1.           
```

#### Opcodes

```
  0: 0x00B5 [0x66] LOAD_EXT_SCHEDULER_MAIN: Load scheduler "tlc1" with entities [EventEntity, EventEntity], work=52*
  1: 0x00C4 [0x00] END_REQSTACK()
```

### Event 65535.14

#### Metadata

| Field        | Value    |
|--------------|----------|
| Entrypoint   | 0x00C5   |
| Data Size    | 14 bytes |
| Instructions | 2        |

```
      00 01 02 03 04 05 06 07  08 09 0A 0B 0C 0D 0E 0F
      -- -- -- -- -- -- -- --  -- -- -- -- -- -- -- --
00C0:                53 F8 FF  FF 7F F8 FF FF 7F 74 6C       S........tl
00D0: 63 31 00                                          c1.             
```

#### Opcodes

```
  0: 0x00C5 [0x53] WAIT_SCHEDULER_TASK: Wait for scheduler "tlc1" with entities [EventEntity, EventEntity]
  1: 0x00D2 [0x00] END_REQSTACK()
```

### Event 65535.15

#### Metadata

| Field        | Value    |
|--------------|----------|
| Entrypoint   | 0x00D3   |
| Data Size    | 16 bytes |
| Instructions | 2        |

```
      00 01 02 03 04 05 06 07  08 09 0A 0B 0C 0D 0E 0F
      -- -- -- -- -- -- -- --  -- -- -- -- -- -- -- --
00D0:          66 02 80 F8 FF  FF 7F F8 FF FF 7F 74 6C     f..........tl
00E0: 62 31 00                                          b1.             
```

#### Opcodes

```
  0: 0x00D3 [0x66] LOAD_EXT_SCHEDULER_MAIN: Load scheduler "tlb1" with entities [EventEntity, EventEntity], work=53*
  1: 0x00E2 [0x00] END_REQSTACK()
```

### Event 65535.16

#### Metadata

| Field        | Value    |
|--------------|----------|
| Entrypoint   | 0x00E3   |
| Data Size    | 14 bytes |
| Instructions | 2        |

```
      00 01 02 03 04 05 06 07  08 09 0A 0B 0C 0D 0E 0F
      -- -- -- -- -- -- -- --  -- -- -- -- -- -- -- --
00E0:          53 F8 FF FF 7F  F8 FF FF 7F 74 6C 62 31     S........tlb1
00F0: 00                                                .               
```

#### Opcodes

```
  0: 0x00E3 [0x53] WAIT_SCHEDULER_TASK: Wait for scheduler "tlb1" with entities [EventEntity, EventEntity]
  1: 0x00F0 [0x00] END_REQSTACK()
```

### Event 65535.17

#### Metadata

| Field        | Value    |
|--------------|----------|
| Entrypoint   | 0x00F1   |
| Data Size    | 16 bytes |
| Instructions | 2        |

```
      00 01 02 03 04 05 06 07  08 09 0A 0B 0C 0D 0E 0F
      -- -- -- -- -- -- -- --  -- -- -- -- -- -- -- --
00F0:    66 02 80 F8 FF FF 7F  F8 FF FF 7F 74 6C 62 32   f..........tlb2
0100: 00                                                .               
```

#### Opcodes

```
  0: 0x00F1 [0x66] LOAD_EXT_SCHEDULER_MAIN: Load scheduler "tlb2" with entities [EventEntity, EventEntity], work=53*
  1: 0x0100 [0x00] END_REQSTACK()
```

### Event 65535.18

#### Metadata

| Field        | Value    |
|--------------|----------|
| Entrypoint   | 0x0101   |
| Data Size    | 14 bytes |
| Instructions | 2        |

```
      00 01 02 03 04 05 06 07  08 09 0A 0B 0C 0D 0E 0F
      -- -- -- -- -- -- -- --  -- -- -- -- -- -- -- --
0100:    53 F8 FF FF 7F F8 FF  FF 7F 74 6C 62 32 00      S........tlb2. 
```

#### Opcodes

```
  0: 0x0101 [0x53] WAIT_SCHEDULER_TASK: Wait for scheduler "tlb2" with entities [EventEntity, EventEntity]
  1: 0x010E [0x00] END_REQSTACK()
```

### Event 65535.19

#### Metadata

| Field        | Value    |
|--------------|----------|
| Entrypoint   | 0x010F   |
| Data Size    | 16 bytes |
| Instructions | 2        |

```
      00 01 02 03 04 05 06 07  08 09 0A 0B 0C 0D 0E 0F
      -- -- -- -- -- -- -- --  -- -- -- -- -- -- -- --
0100:                                               66                 f
0110: 02 80 F8 FF FF 7F F8 FF  FF 7F 6B 77 69 30 00     ..........kwi0. 
```

#### Opcodes

```
  0: 0x010F [0x66] LOAD_EXT_SCHEDULER_MAIN: Load scheduler "kwi0" with entities [EventEntity, EventEntity], work=53*
  1: 0x011E [0x00] END_REQSTACK()
```

### Event 65535.20

#### Metadata

| Field        | Value    |
|--------------|----------|
| Entrypoint   | 0x011F   |
| Data Size    | 14 bytes |
| Instructions | 2        |

```
      00 01 02 03 04 05 06 07  08 09 0A 0B 0C 0D 0E 0F
      -- -- -- -- -- -- -- --  -- -- -- -- -- -- -- --
0110:                                               53                 S
0120: F8 FF FF 7F F8 FF FF 7F  6B 77 69 30 00           ........kwi0.   
```

#### Opcodes

```
  0: 0x011F [0x53] WAIT_SCHEDULER_TASK: Wait for scheduler "kwi0" with entities [EventEntity, EventEntity]
  1: 0x012C [0x00] END_REQSTACK()
```

### Event 65535.21

#### Metadata

| Field        | Value    |
|--------------|----------|
| Entrypoint   | 0x012D   |
| Data Size    | 16 bytes |
| Instructions | 2        |

```
      00 01 02 03 04 05 06 07  08 09 0A 0B 0C 0D 0E 0F
      -- -- -- -- -- -- -- --  -- -- -- -- -- -- -- --
0120:                                         66 03 80               f..
0130: F8 FF FF 7F F8 FF FF 7F  6D 68 69 30 00           ........mhi0.   
```

#### Opcodes

```
  0: 0x012D [0x66] LOAD_EXT_SCHEDULER_MAIN: Load scheduler "mhi0" with entities [EventEntity, EventEntity], work=57*
  1: 0x013C [0x00] END_REQSTACK()
```

### Event 65535.22

#### Metadata

| Field        | Value    |
|--------------|----------|
| Entrypoint   | 0x013D   |
| Data Size    | 14 bytes |
| Instructions | 2        |

```
      00 01 02 03 04 05 06 07  08 09 0A 0B 0C 0D 0E 0F
      -- -- -- -- -- -- -- --  -- -- -- -- -- -- -- --
0130:                                         53 F8 FF               S..
0140: FF 7F F8 FF FF 7F 6D 68  69 30 00                 ......mhi0.     
```

#### Opcodes

```
  0: 0x013D [0x53] WAIT_SCHEDULER_TASK: Wait for scheduler "mhi0" with entities [EventEntity, EventEntity]
  1: 0x014A [0x00] END_REQSTACK()
```

### Event 65535.23

#### Metadata

| Field        | Value   |
|--------------|---------|
| Entrypoint   | 0x014B  |
| Data Size    | 9 bytes |
| Instructions | 3       |

```
      00 01 02 03 04 05 06 07  08 09 0A 0B 0C 0D 0E 0F
      -- -- -- -- -- -- -- --  -- -- -- -- -- -- -- --
0140:                                   5E 69 64 6C 30             ^idl0
0150: 1C 04 80 00                                       ....            
```

#### Opcodes

```
  0: 0x014B [0x5E] EventEntity goes idle (kills current action) (animation: "idl0")
  1: 0x0150 [0x1C] WAIT(30* ticks)
  2: 0x0153 [0x00] END_REQSTACK()
```

### Event 91

#### Metadata

| Field        | Value    |
|--------------|----------|
| Entrypoint   | 0x0154   |
| Data Size    | 15 bytes |
| Instructions | 8        |

```
      00 01 02 03 04 05 06 07  08 09 0A 0B 0C 0D 0E 0F
      -- -- -- -- -- -- -- --  -- -- -- -- -- -- -- --
0150:             1E F0 FF FF  7F 6F 70 1D 05 80 23 20      .....op...# 
0160: 00 21 00                                          .!.             
```

#### Opcodes

```
  0: 0x0154 [0x1E] EventEntity looks at LocalPlayer and starts talking
  1: 0x0159 [0x6F] WAIT_FRAME_DELAY: Yield until WaitTime reaches zero
  2: 0x015A [0x70] WAIT_ENTITY_RENDER_FLAG: Wait while EventEntity->Render.Flags3 bit 2 is set (cancel turn if not)
  3: 0x015B [0x1D] PRINT_EVENT_MESSAGE(message_id=90*)
    → "Sibyl Guard, Shaz Norem! I will not tolerrrate any who attempt to deface Heavens Tower."
  4: 0x015E [0x23] WAIT_FOR_DIALOG_INTERACTION
  5: 0x015F [0x20] SET_CLI_EVENT_UC_FLAG: Unlock player control
  6: 0x0161 [0x21] END_EVENT
  7: 0x0162 [0x00] END_REQSTACK()
```

### Event 6

#### Metadata

| Field        | Value   |
|--------------|---------|
| Entrypoint   | 0x0163  |
| Data Size    | 1 bytes |
| Instructions | 1       |

```
      00 01 02 03 04 05 06 07  08 09 0A 0B 0C 0D 0E 0F
      -- -- -- -- -- -- -- --  -- -- -- -- -- -- -- --
0160:          00                                          .            
```

#### Opcodes

```
  0: 0x0163 [0x00] END_REQSTACK()
```

### Event 107

#### Metadata

| Field        | Value   |
|--------------|---------|
| Entrypoint   | 0x0164  |
| Data Size    | 1 bytes |
| Instructions | 1       |

```
      00 01 02 03 04 05 06 07  08 09 0A 0B 0C 0D 0E 0F
      -- -- -- -- -- -- -- --  -- -- -- -- -- -- -- --
0160:             00                                        .           
```

#### Opcodes

```
  0: 0x0164 [0x00] END_REQSTACK()
```

### Event 65535.24

#### Metadata

| Field        | Value    |
|--------------|----------|
| Entrypoint   | 0x0165   |
| Data Size    | 10 bytes |
| Instructions | 2        |

```
      00 01 02 03 04 05 06 07  08 09 0A 0B 0C 0D 0E 0F
      -- -- -- -- -- -- -- --  -- -- -- -- -- -- -- --
0160:                37 06 80  07 80 08 80 09 80 00          7......... 
```

#### Opcodes

```
  0: 0x0165 [0x37] UPDATE_EVENT_POSITION_AND_DIR: x=2.065*, z=-10.323*, y=-46.999*, direction=247.4°*
  1: 0x016E [0x00] END_REQSTACK()
```

### Event 65535.25

#### Metadata

| Field        | Value    |
|--------------|----------|
| Entrypoint   | 0x016F   |
| Data Size    | 10 bytes |
| Instructions | 2        |

```
      00 01 02 03 04 05 06 07  08 09 0A 0B 0C 0D 0E 0F
      -- -- -- -- -- -- -- --  -- -- -- -- -- -- -- --
0160:                                               37                 7
0170: 0A 80 0B 80 0C 80 0D 80  00                       .........       
```

#### Opcodes

```
  0: 0x016F [0x37] UPDATE_EVENT_POSITION_AND_DIR: x=1.918*, z=-21.747*, y=-45.500*, direction=119.0°*
  1: 0x0178 [0x00] END_REQSTACK()
```

### Event 65535.26

#### Metadata

| Field        | Value    |
|--------------|----------|
| Entrypoint   | 0x0179   |
| Data Size    | 11 bytes |
| Instructions | 3        |

```
      00 01 02 03 04 05 06 07  08 09 0A 0B 0C 0D 0E 0F
      -- -- -- -- -- -- -- --  -- -- -- -- -- -- -- --
0170:                             1F 00 0E 80 0F 80 10           .......
0180: 80 1F 01 00                                       ....            
```

#### Opcodes

```
  0: 0x0179 [0x1F] MOVE_ENTITY: EventEntity moves to X=0.663*, Z=-22.793*, Y=-50.000*
  1: 0x0181 [0x1F] MOVE_ENTITY: Update entity position (mode=1)
  2: 0x0183 [0x00] END_REQSTACK()
```

### Event 65535.27

#### Metadata

| Field        | Value    |
|--------------|----------|
| Entrypoint   | 0x0184   |
| Data Size    | 51 bytes |
| Instructions | 9        |

```
      00 01 02 03 04 05 06 07  08 09 0A 0B 0C 0D 0E 0F
      -- -- -- -- -- -- -- --  -- -- -- -- -- -- -- --
0180:             32 11 80 1F  00 12 80 13 80 14 80 1F      2...........
0190: 01 6F 5E 69 64 6C 30 1C  15 80 66 03 80 F8 FF FF  .o^idl0...f.....
01A0: 7F F8 FF FF 7F 6D 68 69  30 53 F8 FF FF 7F F8 FF  .....mhi0S......
01B0: FF 7F 6D 68 69 30 00                              ..mhi0.         
```

#### Opcodes

```
  0: 0x0184 [0x32] ExtData[1]->MainSpeed = 40* * 0.1
  1: 0x0187 [0x1F] MOVE_ENTITY: EventEntity moves to X=1.427*, Z=-24.322*, Y=-45.000*
  2: 0x018F [0x1F] MOVE_ENTITY: Update entity position (mode=1)
  3: 0x0191 [0x6F] WAIT_FRAME_DELAY: Yield until WaitTime reaches zero
  4: 0x0192 [0x5E] EventEntity goes idle (kills current action) (animation: "idl0")
  5: 0x0197 [0x1C] WAIT(2* ticks)
  6: 0x019A [0x66] LOAD_EXT_SCHEDULER_MAIN: Load scheduler "mhi0" with entities [EventEntity, EventEntity], work=57*
  7: 0x01A9 [0x53] WAIT_SCHEDULER_TASK: Wait for scheduler "mhi0" with entities [EventEntity, EventEntity]
  8: 0x01B6 [0x00] END_REQSTACK()
```

### Event 65535.28

#### Metadata

| Field        | Value   |
|--------------|---------|
| Entrypoint   | 0x01B7  |
| Data Size    | 5 bytes |
| Instructions | 3       |

```
      00 01 02 03 04 05 06 07  08 09 0A 0B 0C 0D 0E 0F
      -- -- -- -- -- -- -- --  -- -- -- -- -- -- -- --
01B0:                      1D  16 80 23 00                     ...#.    
```

#### Opcodes

```
  0: 0x01B7 [0x1D] PRINT_EVENT_MESSAGE(message_id=160*)
    → "Halt! Do not prrroceed any further!"
  1: 0x01BA [0x23] WAIT_FOR_DIALOG_INTERACTION
  2: 0x01BB [0x00] END_REQSTACK()
```

### Event 110

#### Metadata

| Field        | Value    |
|--------------|----------|
| Entrypoint   | 0x01BC   |
| Data Size    | 40 bytes |
| Instructions | 13       |

```
      00 01 02 03 04 05 06 07  08 09 0A 0B 0C 0D 0E 0F
      -- -- -- -- -- -- -- --  -- -- -- -- -- -- -- --
01B0:                                      1E F0 FF FF              ....
01C0: 7F 6F 70 29 08 22 20 0F  01 0B 1D 17 80 23 1D 18  .op)." ......#..
01D0: 80 23 29 08 22 20 0F 01  0D 29 08 22 20 0F 01 0E  .#)." ...)." ...
01E0: 20 00 21 00                                        .!.            
```

#### Opcodes

```
  0: 0x01BC [0x1E] EventEntity looks at LocalPlayer and starts talking
  1: 0x01C1 [0x6F] WAIT_FRAME_DELAY: Yield until WaitTime reaches zero
  2: 0x01C2 [0x70] WAIT_ENTITY_RENDER_FLAG: Wait while EventEntity->Render.Flags3 bit 2 is set (cancel turn if not)
  3: 0x01C3 [0x29] REQ_SET_WAIT(priority=0x08, entity_id=Shaz Norem (ID: 17768482/0x010F2022), tag_num=0x0B)
  4: 0x01CA [0x1D] PRINT_EVENT_MESSAGE(message_id=183*)
    → "Tarutaru are usually cowards, but once they get fired up, there's no contrrrolling them. They are even willing to make enemies of the Sibyl Guards in order to carrry out their silly plans."
  5: 0x01CD [0x23] WAIT_FOR_DIALOG_INTERACTION
  6: 0x01CE [0x1D] PRINT_EVENT_MESSAGE(message_id=184*)
    → "Am I hurrrt? Oh, you don't need to worry about me. I think he went "easy" on us..."
  7: 0x01D1 [0x23] WAIT_FOR_DIALOG_INTERACTION
  8: 0x01D2 [0x29] REQ_SET_WAIT(priority=0x08, entity_id=Shaz Norem (ID: 17768482/0x010F2022), tag_num=0x0D)
  9: 0x01D9 [0x29] REQ_SET_WAIT(priority=0x08, entity_id=Shaz Norem (ID: 17768482/0x010F2022), tag_num=0x0E)
 10: 0x01E0 [0x20] SET_CLI_EVENT_UC_FLAG: Unlock player control
 11: 0x01E2 [0x21] END_EVENT
 12: 0x01E3 [0x00] END_REQSTACK()
```

### Event 114

#### Metadata

| Field        | Value   |
|--------------|---------|
| Entrypoint   | 0x01E4  |
| Data Size    | 1 bytes |
| Instructions | 1       |

```
      00 01 02 03 04 05 06 07  08 09 0A 0B 0C 0D 0E 0F
      -- -- -- -- -- -- -- --  -- -- -- -- -- -- -- --
01E0:             00                                        .           
```

#### Opcodes

```
  0: 0x01E4 [0x00] END_REQSTACK()
```

### Event 117

#### Metadata

| Field        | Value    |
|--------------|----------|
| Entrypoint   | 0x01E5   |
| Data Size    | 40 bytes |
| Instructions | 13       |

```
      00 01 02 03 04 05 06 07  08 09 0A 0B 0C 0D 0E 0F
      -- -- -- -- -- -- -- --  -- -- -- -- -- -- -- --
01E0:                1E F0 FF  FF 7F 6F 70 29 08 22 20       .....op)." 
01F0: 0F 01 0B 1D 19 80 23 1D  1A 80 23 29 08 22 20 0F  ......#...#)." .
0200: 01 0D 29 08 22 20 0F 01  0E 20 00 21 00           ..)." ... .!.   
```

#### Opcodes

```
  0: 0x01E5 [0x1E] EventEntity looks at LocalPlayer and starts talking
  1: 0x01EA [0x6F] WAIT_FRAME_DELAY: Yield until WaitTime reaches zero
  2: 0x01EB [0x70] WAIT_ENTITY_RENDER_FLAG: Wait while EventEntity->Render.Flags3 bit 2 is set (cancel turn if not)
  3: 0x01EC [0x29] REQ_SET_WAIT(priority=0x08, entity_id=Shaz Norem (ID: 17768482/0x010F2022), tag_num=0x0B)
  4: 0x01F3 [0x1D] PRINT_EVENT_MESSAGE(message_id=203*)
    → "Just because they are ministers doesn't mean we can allow them do as they please."
  5: 0x01F6 [0x23] WAIT_FOR_DIALOG_INTERACTION
  6: 0x01F7 [0x1D] PRINT_EVENT_MESSAGE(message_id=204*)
    → "Perhaps it is time for the Sibyl Guards to take action and gatherrr up all the traitors in Windurst."
  7: 0x01FA [0x23] WAIT_FOR_DIALOG_INTERACTION
  8: 0x01FB [0x29] REQ_SET_WAIT(priority=0x08, entity_id=Shaz Norem (ID: 17768482/0x010F2022), tag_num=0x0D)
  9: 0x0202 [0x29] REQ_SET_WAIT(priority=0x08, entity_id=Shaz Norem (ID: 17768482/0x010F2022), tag_num=0x0E)
 10: 0x0209 [0x20] SET_CLI_EVENT_UC_FLAG: Unlock player control
 11: 0x020B [0x21] END_EVENT
 12: 0x020C [0x00] END_REQSTACK()
```

### Event 174

#### Metadata

| Field        | Value    |
|--------------|----------|
| Entrypoint   | 0x020D   |
| Data Size    | 40 bytes |
| Instructions | 13       |

```
      00 01 02 03 04 05 06 07  08 09 0A 0B 0C 0D 0E 0F
      -- -- -- -- -- -- -- --  -- -- -- -- -- -- -- --
0200:                                         1E F0 FF               ...
0210: FF 7F 6F 70 29 08 22 20  0F 01 0B 1D 1B 80 23 1D  ..op)." ......#.
0220: 1C 80 23 29 08 22 20 0F  01 0D 29 08 22 20 0F 01  ..#)." ...)." ..
0230: 0E 20 00 21 00                                    . .!.           
```

#### Opcodes

```
  0: 0x020D [0x1E] EventEntity looks at LocalPlayer and starts talking
  1: 0x0212 [0x6F] WAIT_FRAME_DELAY: Yield until WaitTime reaches zero
  2: 0x0213 [0x70] WAIT_ENTITY_RENDER_FLAG: Wait while EventEntity->Render.Flags3 bit 2 is set (cancel turn if not)
  3: 0x0214 [0x29] REQ_SET_WAIT(priority=0x08, entity_id=Shaz Norem (ID: 17768482/0x010F2022), tag_num=0x0B)
  4: 0x021B [0x1D] PRINT_EVENT_MESSAGE(message_id=358*)
    → "Have you hearrrd that on the night of the Star Reading ceremony, a "bearer of darkness" appearrred?"
  5: 0x021E [0x23] WAIT_FOR_DIALOG_INTERACTION
  6: 0x021F [0x1D] PRINT_EVENT_MESSAGE(message_id=359*)
    → "We Sibyl Guards do not rrrecall seeing anything out of the ordinary, but later that night is when the talisman sealing Castle Zvahl was stolen..."
  7: 0x0222 [0x23] WAIT_FOR_DIALOG_INTERACTION
  8: 0x0223 [0x29] REQ_SET_WAIT(priority=0x08, entity_id=Shaz Norem (ID: 17768482/0x010F2022), tag_num=0x0D)
  9: 0x022A [0x29] REQ_SET_WAIT(priority=0x08, entity_id=Shaz Norem (ID: 17768482/0x010F2022), tag_num=0x0E)
 10: 0x0231 [0x20] SET_CLI_EVENT_UC_FLAG: Unlock player control
 11: 0x0233 [0x21] END_EVENT
 12: 0x0234 [0x00] END_REQSTACK()
```

### Event 199

#### Metadata

| Field        | Value    |
|--------------|----------|
| Entrypoint   | 0x0235   |
| Data Size    | 40 bytes |
| Instructions | 13       |

```
      00 01 02 03 04 05 06 07  08 09 0A 0B 0C 0D 0E 0F
      -- -- -- -- -- -- -- --  -- -- -- -- -- -- -- --
0230:                1E F0 FF  FF 7F 6F 70 29 08 22 20       .....op)." 
0240: 0F 01 0B 1D 1D 80 23 1D  1E 80 23 29 08 22 20 0F  ......#...#)." .
0250: 01 0D 29 08 22 20 0F 01  0E 20 00 21 00           ..)." ... .!.   
```

#### Opcodes

```
  0: 0x0235 [0x1E] EventEntity looks at LocalPlayer and starts talking
  1: 0x023A [0x6F] WAIT_FRAME_DELAY: Yield until WaitTime reaches zero
  2: 0x023B [0x70] WAIT_ENTITY_RENDER_FLAG: Wait while EventEntity->Render.Flags3 bit 2 is set (cancel turn if not)
  3: 0x023C [0x29] REQ_SET_WAIT(priority=0x08, entity_id=Shaz Norem (ID: 17768482/0x010F2022), tag_num=0x0B)
  4: 0x0243 [0x1D] PRINT_EVENT_MESSAGE(message_id=444*)
    → "Do you rememberrr the "bearer of darkness" that brrroke into Heavens Tower on the night the talisman was stolen?"
  5: 0x0246 [0x23] WAIT_FOR_DIALOG_INTERACTION
  6: 0x0247 [0x1D] PRINT_EVENT_MESSAGE(message_id=445*)
    → "Maybe it was really a sign of the situation that looms before us!"
  7: 0x024A [0x23] WAIT_FOR_DIALOG_INTERACTION
  8: 0x024B [0x29] REQ_SET_WAIT(priority=0x08, entity_id=Shaz Norem (ID: 17768482/0x010F2022), tag_num=0x0D)
  9: 0x0252 [0x29] REQ_SET_WAIT(priority=0x08, entity_id=Shaz Norem (ID: 17768482/0x010F2022), tag_num=0x0E)
 10: 0x0259 [0x20] SET_CLI_EVENT_UC_FLAG: Unlock player control
 11: 0x025B [0x21] END_EVENT
 12: 0x025C [0x00] END_REQSTACK()
```

### Event 222

#### Metadata

| Field        | Value    |
|--------------|----------|
| Entrypoint   | 0x025D   |
| Data Size    | 40 bytes |
| Instructions | 13       |

```
      00 01 02 03 04 05 06 07  08 09 0A 0B 0C 0D 0E 0F
      -- -- -- -- -- -- -- --  -- -- -- -- -- -- -- --
0250:                                         1E F0 FF               ...
0260: FF 7F 6F 70 29 08 22 20  0F 01 0B 1D 1F 80 23 1D  ..op)." ......#.
0270: 20 80 23 29 08 22 20 0F  01 0D 29 08 22 20 0F 01   .#)." ...)." ..
0280: 0E 20 00 21 00                                    . .!.           
```

#### Opcodes

```
  0: 0x025D [0x1E] EventEntity looks at LocalPlayer and starts talking
  1: 0x0262 [0x6F] WAIT_FRAME_DELAY: Yield until WaitTime reaches zero
  2: 0x0263 [0x70] WAIT_ENTITY_RENDER_FLAG: Wait while EventEntity->Render.Flags3 bit 2 is set (cancel turn if not)
  3: 0x0264 [0x29] REQ_SET_WAIT(priority=0x08, entity_id=Shaz Norem (ID: 17768482/0x010F2022), tag_num=0x0B)
  4: 0x026B [0x1D] PRINT_EVENT_MESSAGE(message_id=495*)
    → "Let me thank you for grrranting the wish deep within the hearts of all Mithra."
  5: 0x026E [0x23] WAIT_FOR_DIALOG_INTERACTION
  6: 0x026F [0x1D] PRINT_EVENT_MESSAGE(message_id=496*)
    → "No longer will innocent children have to be the sacrifice of a meaningless war. Our prayers have been answerrred."
  7: 0x0272 [0x23] WAIT_FOR_DIALOG_INTERACTION
  8: 0x0273 [0x29] REQ_SET_WAIT(priority=0x08, entity_id=Shaz Norem (ID: 17768482/0x010F2022), tag_num=0x0D)
  9: 0x027A [0x29] REQ_SET_WAIT(priority=0x08, entity_id=Shaz Norem (ID: 17768482/0x010F2022), tag_num=0x0E)
 10: 0x0281 [0x20] SET_CLI_EVENT_UC_FLAG: Unlock player control
 11: 0x0283 [0x21] END_EVENT
 12: 0x0284 [0x00] END_REQSTACK()
```

### Event 321

#### Metadata

| Field        | Value    |
|--------------|----------|
| Entrypoint   | 0x0285   |
| Data Size    | 40 bytes |
| Instructions | 13       |

```
      00 01 02 03 04 05 06 07  08 09 0A 0B 0C 0D 0E 0F
      -- -- -- -- -- -- -- --  -- -- -- -- -- -- -- --
0280:                1E F0 FF  FF 7F 6F 70 29 08 22 20       .....op)." 
0290: 0F 01 0B 1D 21 80 23 1D  22 80 23 29 08 22 20 0F  ....!.#.".#)." .
02A0: 01 0D 29 08 22 20 0F 01  0E 20 00 21 00           ..)." ... .!.   
```

#### Opcodes

```
  0: 0x0285 [0x1E] EventEntity looks at LocalPlayer and starts talking
  1: 0x028A [0x6F] WAIT_FRAME_DELAY: Yield until WaitTime reaches zero
  2: 0x028B [0x70] WAIT_ENTITY_RENDER_FLAG: Wait while EventEntity->Render.Flags3 bit 2 is set (cancel turn if not)
  3: 0x028C [0x29] REQ_SET_WAIT(priority=0x08, entity_id=Shaz Norem (ID: 17768482/0x010F2022), tag_num=0x0B)
  4: 0x0293 [0x1D] PRINT_EVENT_MESSAGE(message_id=91*)
    → "As you can see, we Sibyl Guards are not a chosen few."
  5: 0x0296 [0x23] WAIT_FOR_DIALOG_INTERACTION
  6: 0x0297 [0x1D] PRINT_EVENT_MESSAGE(message_id=92*)
    → "This is a position we werrre given, and we must trrrain as hard as anyone else. We can't let down the people who gave us this job."
  7: 0x029A [0x23] WAIT_FOR_DIALOG_INTERACTION
  8: 0x029B [0x29] REQ_SET_WAIT(priority=0x08, entity_id=Shaz Norem (ID: 17768482/0x010F2022), tag_num=0x0D)
  9: 0x02A2 [0x29] REQ_SET_WAIT(priority=0x08, entity_id=Shaz Norem (ID: 17768482/0x010F2022), tag_num=0x0E)
 10: 0x02A9 [0x20] SET_CLI_EVENT_UC_FLAG: Unlock player control
 11: 0x02AB [0x21] END_EVENT
 12: 0x02AC [0x00] END_REQSTACK()
```

### Event 306

#### Metadata

| Field        | Value    |
|--------------|----------|
| Entrypoint   | 0x02AD   |
| Data Size    | 40 bytes |
| Instructions | 13       |

```
      00 01 02 03 04 05 06 07  08 09 0A 0B 0C 0D 0E 0F
      -- -- -- -- -- -- -- --  -- -- -- -- -- -- -- --
02A0:                                         1E F0 FF               ...
02B0: FF 7F 6F 70 29 08 22 20  0F 01 0B 1D 23 80 23 1D  ..op)." ....#.#.
02C0: 24 80 23 29 08 22 20 0F  01 0D 29 08 22 20 0F 01  $.#)." ...)." ..
02D0: 0E 20 00 21 00                                    . .!.           
```

#### Opcodes

```
  0: 0x02AD [0x1E] EventEntity looks at LocalPlayer and starts talking
  1: 0x02B2 [0x6F] WAIT_FRAME_DELAY: Yield until WaitTime reaches zero
  2: 0x02B3 [0x70] WAIT_ENTITY_RENDER_FLAG: Wait while EventEntity->Render.Flags3 bit 2 is set (cancel turn if not)
  3: 0x02B4 [0x29] REQ_SET_WAIT(priority=0x08, entity_id=Shaz Norem (ID: 17768482/0x010F2022), tag_num=0x0B)
  4: 0x02BB [0x1D] PRINT_EVENT_MESSAGE(message_id=8155*)
    → "Do you remember the bearer of darkness that appearrred here?"
  5: 0x02BE [0x23] WAIT_FOR_DIALOG_INTERACTION
  6: 0x02BF [0x1D] PRINT_EVENT_MESSAGE(message_id=8156*)
    → "Someone came here claiming to have seen it in another country. What on Vana'diel is that thing?"
  7: 0x02C2 [0x23] WAIT_FOR_DIALOG_INTERACTION
  8: 0x02C3 [0x29] REQ_SET_WAIT(priority=0x08, entity_id=Shaz Norem (ID: 17768482/0x010F2022), tag_num=0x0D)
  9: 0x02CA [0x29] REQ_SET_WAIT(priority=0x08, entity_id=Shaz Norem (ID: 17768482/0x010F2022), tag_num=0x0E)
 10: 0x02D1 [0x20] SET_CLI_EVENT_UC_FLAG: Unlock player control
 11: 0x02D3 [0x21] END_EVENT
 12: 0x02D4 [0x00] END_REQSTACK()
```

### Event 365

#### Metadata

| Field        | Value    |
|--------------|----------|
| Entrypoint   | 0x02D5   |
| Data Size    | 40 bytes |
| Instructions | 13       |

```
      00 01 02 03 04 05 06 07  08 09 0A 0B 0C 0D 0E 0F
      -- -- -- -- -- -- -- --  -- -- -- -- -- -- -- --
02D0:                1E F0 FF  FF 7F 6F 70 29 08 22 20       .....op)." 
02E0: 0F 01 0B 1D 25 80 23 1D  26 80 23 29 08 22 20 0F  ....%.#.&.#)." .
02F0: 01 0D 29 08 22 20 0F 01  0E 20 00 21 00           ..)." ... .!.   
```

#### Opcodes

```
  0: 0x02D5 [0x1E] EventEntity looks at LocalPlayer and starts talking
  1: 0x02DA [0x6F] WAIT_FRAME_DELAY: Yield until WaitTime reaches zero
  2: 0x02DB [0x70] WAIT_ENTITY_RENDER_FLAG: Wait while EventEntity->Render.Flags3 bit 2 is set (cancel turn if not)
  3: 0x02DC [0x29] REQ_SET_WAIT(priority=0x08, entity_id=Shaz Norem (ID: 17768482/0x010F2022), tag_num=0x0B)
  4: 0x02E3 [0x1D] PRINT_EVENT_MESSAGE(message_id=8311*)
    → "I rrrecognized the stench that the bearer of darkness exuded..."
  5: 0x02E6 [0x23] WAIT_FOR_DIALOG_INTERACTION
  6: 0x02E7 [0x1D] PRINT_EVENT_MESSAGE(message_id=8312*)
    → "It was the smell of the dead... That putrid miasma has no place in this world."
  7: 0x02EA [0x23] WAIT_FOR_DIALOG_INTERACTION
  8: 0x02EB [0x29] REQ_SET_WAIT(priority=0x08, entity_id=Shaz Norem (ID: 17768482/0x010F2022), tag_num=0x0D)
  9: 0x02F2 [0x29] REQ_SET_WAIT(priority=0x08, entity_id=Shaz Norem (ID: 17768482/0x010F2022), tag_num=0x0E)
 10: 0x02F9 [0x20] SET_CLI_EVENT_UC_FLAG: Unlock player control
 11: 0x02FB [0x21] END_EVENT
 12: 0x02FC [0x00] END_REQSTACK()
```

### Event 371

#### Metadata

| Field        | Value    |
|--------------|----------|
| Entrypoint   | 0x02FD   |
| Data Size    | 40 bytes |
| Instructions | 13       |

```
      00 01 02 03 04 05 06 07  08 09 0A 0B 0C 0D 0E 0F
      -- -- -- -- -- -- -- --  -- -- -- -- -- -- -- --
02F0:                                         1E F0 FF               ...
0300: FF 7F 6F 70 29 08 22 20  0F 01 0B 1D 27 80 23 1D  ..op)." ....'.#.
0310: 28 80 23 29 08 22 20 0F  01 0D 29 08 22 20 0F 01  (.#)." ...)." ..
0320: 0E 20 00 21 00                                    . .!.           
```

#### Opcodes

```
  0: 0x02FD [0x1E] EventEntity looks at LocalPlayer and starts talking
  1: 0x0302 [0x6F] WAIT_FRAME_DELAY: Yield until WaitTime reaches zero
  2: 0x0303 [0x70] WAIT_ENTITY_RENDER_FLAG: Wait while EventEntity->Render.Flags3 bit 2 is set (cancel turn if not)
  3: 0x0304 [0x29] REQ_SET_WAIT(priority=0x08, entity_id=Shaz Norem (ID: 17768482/0x010F2022), tag_num=0x0B)
  4: 0x030B [0x1D] PRINT_EVENT_MESSAGE(message_id=8318*)
    → "Rescuing the Star Sibyl will be best accomplished by a small, well-coordinated team."
  5: 0x030E [0x23] WAIT_FOR_DIALOG_INTERACTION
  6: 0x030F [0x1D] PRINT_EVENT_MESSAGE(message_id=8319*)
    → "The Cardians might decide to use the Star Sibyl as a shield, though. Those puppets probably have no idea of how much a person's life is worth."
  7: 0x0312 [0x23] WAIT_FOR_DIALOG_INTERACTION
  8: 0x0313 [0x29] REQ_SET_WAIT(priority=0x08, entity_id=Shaz Norem (ID: 17768482/0x010F2022), tag_num=0x0D)
  9: 0x031A [0x29] REQ_SET_WAIT(priority=0x08, entity_id=Shaz Norem (ID: 17768482/0x010F2022), tag_num=0x0E)
 10: 0x0321 [0x20] SET_CLI_EVENT_UC_FLAG: Unlock player control
 11: 0x0323 [0x21] END_EVENT
 12: 0x0324 [0x00] END_REQSTACK()
```

### Event 383

#### Metadata

| Field        | Value    |
|--------------|----------|
| Entrypoint   | 0x0325   |
| Data Size    | 40 bytes |
| Instructions | 13       |

```
      00 01 02 03 04 05 06 07  08 09 0A 0B 0C 0D 0E 0F
      -- -- -- -- -- -- -- --  -- -- -- -- -- -- -- --
0320:                1E F0 FF  FF 7F 6F 70 29 08 22 20       .....op)." 
0330: 0F 01 0B 1D 29 80 23 1D  2A 80 23 29 08 22 20 0F  ....).#.*.#)." .
0340: 01 0D 29 08 22 20 0F 01  0E 20 00 21 00           ..)." ... .!.   
```

#### Opcodes

```
  0: 0x0325 [0x1E] EventEntity looks at LocalPlayer and starts talking
  1: 0x032A [0x6F] WAIT_FRAME_DELAY: Yield until WaitTime reaches zero
  2: 0x032B [0x70] WAIT_ENTITY_RENDER_FLAG: Wait while EventEntity->Render.Flags3 bit 2 is set (cancel turn if not)
  3: 0x032C [0x29] REQ_SET_WAIT(priority=0x08, entity_id=Shaz Norem (ID: 17768482/0x010F2022), tag_num=0x0B)
  4: 0x0333 [0x1D] PRINT_EVENT_MESSAGE(message_id=8445*)
    → "Why do the Yagudo have to stick their beaks in at a time like this!?"
  5: 0x0336 [0x23] WAIT_FOR_DIALOG_INTERACTION
  6: 0x0337 [0x1D] PRINT_EVENT_MESSAGE(message_id=8446*)
    → "Without the Star Sibyl here, we can't send an apology or even a declaration of war if it comes to that!"
  7: 0x033A [0x23] WAIT_FOR_DIALOG_INTERACTION
  8: 0x033B [0x29] REQ_SET_WAIT(priority=0x08, entity_id=Shaz Norem (ID: 17768482/0x010F2022), tag_num=0x0D)
  9: 0x0342 [0x29] REQ_SET_WAIT(priority=0x08, entity_id=Shaz Norem (ID: 17768482/0x010F2022), tag_num=0x0E)
 10: 0x0349 [0x20] SET_CLI_EVENT_UC_FLAG: Unlock player control
 11: 0x034B [0x21] END_EVENT
 12: 0x034C [0x00] END_REQSTACK()
```

### Event 401

#### Metadata

| Field        | Value    |
|--------------|----------|
| Entrypoint   | 0x034D   |
| Data Size    | 40 bytes |
| Instructions | 13       |

```
      00 01 02 03 04 05 06 07  08 09 0A 0B 0C 0D 0E 0F
      -- -- -- -- -- -- -- --  -- -- -- -- -- -- -- --
0340:                                         1E F0 FF               ...
0350: FF 7F 6F 70 29 08 22 20  0F 01 0B 1D 2B 80 23 1D  ..op)." ....+.#.
0360: 2C 80 23 29 08 22 20 0F  01 0D 29 08 22 20 0F 01  ,.#)." ...)." ..
0370: 0E 20 00 21 00                                    . .!.           
```

#### Opcodes

```
  0: 0x034D [0x1E] EventEntity looks at LocalPlayer and starts talking
  1: 0x0352 [0x6F] WAIT_FRAME_DELAY: Yield until WaitTime reaches zero
  2: 0x0353 [0x70] WAIT_ENTITY_RENDER_FLAG: Wait while EventEntity->Render.Flags3 bit 2 is set (cancel turn if not)
  3: 0x0354 [0x29] REQ_SET_WAIT(priority=0x08, entity_id=Shaz Norem (ID: 17768482/0x010F2022), tag_num=0x0B)
  4: 0x035B [0x1D] PRINT_EVENT_MESSAGE(message_id=8537*)
    → "You know how the Yagudo have become so fixated on the magic towerrrs in Sarutabaruta? It must have something to do with the massive destruction wrrrought upon them by the summoning twenty years ago."
  5: 0x035E [0x23] WAIT_FOR_DIALOG_INTERACTION
  6: 0x035F [0x1D] PRINT_EVENT_MESSAGE(message_id=8538*)
    → "The Yagudo have lived in this region for far longer than the Mithra. They probably have as much knowledge about the towers as the Tarutaru."
  7: 0x0362 [0x23] WAIT_FOR_DIALOG_INTERACTION
  8: 0x0363 [0x29] REQ_SET_WAIT(priority=0x08, entity_id=Shaz Norem (ID: 17768482/0x010F2022), tag_num=0x0D)
  9: 0x036A [0x29] REQ_SET_WAIT(priority=0x08, entity_id=Shaz Norem (ID: 17768482/0x010F2022), tag_num=0x0E)
 10: 0x0371 [0x20] SET_CLI_EVENT_UC_FLAG: Unlock player control
 11: 0x0373 [0x21] END_EVENT
 12: 0x0374 [0x00] END_REQSTACK()
```
