# 0x7FFFFFF0 - Zone Events

## Common Data

| Field            | Value                   |
|------------------|-------------------------|
| Zone             | Heavens Tower (ID: 242) |
| Block Size       | 3808 bytes              |
| Total Events     | 112                     |
| References Count | 278                     |

## List of Events

| Event ID                   | Entrypoint   |   Size |   Instructions |
|----------------------------|--------------|--------|----------------|
| [65535](#event-65535)      | 0x0000       |      1 |              1 |
| [65534](#event-65534)      | 0x0001       |      1 |              1 |
| [65535.1](#event-655351)   | 0x0002       |      1 |              1 |
| [65535.2](#event-655352)   | 0x0003       |      6 |              2 |
| [65535.3](#event-655353)   | 0x0009       |      6 |              2 |
| [65535.4](#event-655354)   | 0x000F       |      6 |              2 |
| [65535.5](#event-655355)   | 0x0015       |      6 |              2 |
| [65535.6](#event-655356)   | 0x001B       |     13 |              3 |
| [65535.7](#event-655357)   | 0x0028       |      4 |              2 |
| [65535.8](#event-655358)   | 0x002C       |     10 |              2 |
| [31](#event-31)            | 0x0036       |      1 |              1 |
| [32](#event-32)            | 0x0037       |      1 |              1 |
| [33](#event-33)            | 0x0038       |      1 |              1 |
| [34](#event-34)            | 0x0039       |      1 |              1 |
| [35](#event-35)            | 0x003A       |      1 |              1 |
| [36](#event-36)            | 0x003B       |      1 |              1 |
| [37](#event-37)            | 0x003C       |      1 |              1 |
| [38](#event-38)            | 0x003D       |      1 |              1 |
| [39](#event-39)            | 0x003E       |      1 |              1 |
| [40](#event-40)            | 0x003F       |      1 |              1 |
| [65535.9](#event-655359)   | 0x0040       |     13 |              3 |
| [65535.10](#event-6553510) | 0x004D       |     13 |              3 |
| [65535.11](#event-6553511) | 0x005A       |     13 |              3 |
| [65535.12](#event-6553512) | 0x0067       |      6 |              2 |
| [65535.13](#event-6553513) | 0x006D       |     13 |              3 |
| [65535.14](#event-6553514) | 0x007A       |     13 |              3 |
| [65535.15](#event-6553515) | 0x0087       |     13 |              3 |
| [65535.16](#event-6553516) | 0x0094       |     13 |              3 |
| [65535.17](#event-6553517) | 0x00A1       |     13 |              3 |
| [65535.18](#event-6553518) | 0x00AE       |     13 |              3 |
| [65535.19](#event-6553519) | 0x00BB       |     10 |              2 |
| [65535.20](#event-6553520) | 0x00C5       |     17 |              5 |
| [65535.21](#event-6553521) | 0x00D6       |     49 |             11 |
| [65535.22](#event-6553522) | 0x0107       |     24 |              6 |
| [25](#event-25)            | 0x011F       |      1 |              1 |
| [65535.23](#event-6553523) | 0x0120       |     10 |              2 |
| [65535.24](#event-6553524) | 0x012A       |     18 |              6 |
| [65535.25](#event-6553525) | 0x013C       |     18 |              6 |
| [65535.26](#event-6553526) | 0x014E       |     13 |              3 |
| [65535.27](#event-6553527) | 0x015B       |     13 |              3 |
| [65535.28](#event-6553528) | 0x0168       |     24 |              6 |
| [65535.29](#event-6553529) | 0x0180       |     47 |             11 |
| [65535.30](#event-6553530) | 0x01AF       |     24 |              6 |
| [43](#event-43)            | 0x01C7       |     37 |              8 |
| [41](#event-41)            | 0x01EC       |     44 |              8 |
| [65535.31](#event-6553531) | 0x0218       |     10 |              2 |
| [65535.32](#event-6553532) | 0x0222       |     10 |              2 |
| [65535.33](#event-6553533) | 0x022C       |     10 |              2 |
| [65535.34](#event-6553534) | 0x0236       |     10 |              2 |
| [65535.35](#event-6553535) | 0x0240       |     10 |              2 |
| [65535.36](#event-6553536) | 0x024A       |     13 |              3 |
| [42](#event-42)            | 0x0257       |      1 |              1 |
| [65535.37](#event-6553537) | 0x0258       |     27 |              7 |
| [65535.38](#event-6553538) | 0x0273       |     10 |              2 |
| [65535.39](#event-6553539) | 0x027D       |     10 |              2 |
| [65535.40](#event-6553540) | 0x0287       |     14 |              4 |
| [65535.41](#event-6553541) | 0x0295       |     43 |              9 |
| [65535.42](#event-6553542) | 0x02C0       |     10 |              2 |
| [65535.43](#event-6553543) | 0x02CA       |     34 |              8 |
| [65535.44](#event-6553544) | 0x02EC       |     14 |              4 |
| [65535.45](#event-6553545) | 0x02FA       |     10 |              2 |
| [65535.46](#event-6553546) | 0x0304       |     23 |              5 |
| [65535.47](#event-6553547) | 0x031B       |     10 |              2 |
| [65535.48](#event-6553548) | 0x0325       |     23 |              5 |
| [65535.49](#event-6553549) | 0x033C       |     10 |              2 |
| [65535.50](#event-6553550) | 0x0346       |     10 |              2 |
| [65535.51](#event-6553551) | 0x0350       |     10 |              2 |
| [65535.52](#event-6553552) | 0x035A       |     14 |              4 |
| [65535.53](#event-6553553) | 0x0368       |     10 |              2 |
| [65535.54](#event-6553554) | 0x0372       |     34 |              8 |
| [65535.55](#event-6553555) | 0x0394       |     10 |              2 |
| [65535.56](#event-6553556) | 0x039E       |     14 |              4 |
| [65535.57](#event-6553557) | 0x03AC       |     17 |              6 |
| [65535.58](#event-6553558) | 0x03BD       |     10 |              2 |
| [65535.59](#event-6553559) | 0x03C7       |     23 |              5 |
| [65535.60](#event-6553560) | 0x03DE       |     27 |              7 |
| [65535.61](#event-6553561) | 0x03F9       |     56 |              6 |
| [65535.62](#event-6553562) | 0x0431       |     21 |              7 |
| [65535.63](#event-6553563) | 0x0446       |     70 |              6 |
| [65535.64](#event-6553564) | 0x048C       |     34 |              8 |
| [65535.65](#event-6553565) | 0x04AE       |     10 |              2 |
| [65535.66](#event-6553566) | 0x04B8       |     10 |              2 |
| [65535.67](#event-6553567) | 0x04C2       |     10 |              2 |
| [65535.68](#event-6553568) | 0x04CC       |     14 |              4 |
| [65535.69](#event-6553569) | 0x04DA       |     10 |              2 |
| [65535.70](#event-6553570) | 0x04E4       |     10 |              2 |
| [65535.71](#event-6553571) | 0x04EE       |     21 |              7 |
| [65535.72](#event-6553572) | 0x0503       |     10 |              2 |
| [65535.73](#event-6553573) | 0x050D       |     73 |              7 |
| [65535.74](#event-6553574) | 0x0556       |    237 |             24 |
| [65535.75](#event-6553575) | 0x0643       |     55 |             13 |
| [65535.76](#event-6553576) | 0x067A       |     10 |              2 |
| [65535.77](#event-6553577) | 0x0684       |     49 |             10 |
| [65535.78](#event-6553578) | 0x06B5       |     25 |              5 |
| [65535.79](#event-6553579) | 0x06CE       |     19 |              3 |
| [65535.80](#event-6553580) | 0x06E1       |    158 |             34 |
| [65535.81](#event-6553581) | 0x077F       |     24 |              4 |
| [65535.82](#event-6553582) | 0x0797       |     24 |              4 |
| [65535.83](#event-6553583) | 0x07AF       |      6 |              2 |
| [65535.84](#event-6553584) | 0x07B5       |     11 |              3 |
| [65535.85](#event-6553585) | 0x07C0       |     42 |             10 |
| [65535.86](#event-6553586) | 0x07EA       |     21 |              5 |
| [65535.87](#event-6553587) | 0x07FF       |     21 |              5 |
| [65535.88](#event-6553588) | 0x0814       |     27 |              5 |
| [65535.89](#event-6553589) | 0x082F       |     42 |              6 |
| [65535.90](#event-6553590) | 0x0859       |     10 |              2 |
| [65535.91](#event-6553591) | 0x0863       |     10 |              2 |
| [65535.92](#event-6553592) | 0x086D       |     15 |              5 |
| [65535.93](#event-6553593) | 0x087C       |     15 |              5 |
| [65535.94](#event-6553594) | 0x088B       |     15 |              5 |
| [65535.95](#event-6553595) | 0x089A       |     15 |              5 |
| [65535.96](#event-6553596) | 0x08A9       |     15 |              5 |

## DAT References (imed_data)

|   Index | Hex Value   |   Dec Value |
|---------|-------------|-------------|
|       0 | 0x0007      |           7 |
|       1 | 0x0064      |         100 |
|       2 | 0x0F4C      |        3916 |
|       3 | 0xFFFFCC07  |  4294953991 |
|       4 | 0x02ED      |         749 |
|       5 | 0x05DC      |        1500 |
|       6 | 0x000A      |          10 |
|       7 | 0xFFFFA874  |  4294944884 |
|       8 | 0x0000      |           0 |
|       9 | 0x0BF1      |        3057 |
|      10 | 0xFFFFAE5A  |  4294946394 |
|      11 | 0xFFFFDE27  |  4294958631 |
|      12 | 0x01F4      |         500 |
|      13 | 0x0ED0      |        3792 |
|      14 | 0x4D95      |       19861 |
|      15 | 0xFFFFDEB6  |  4294958774 |
|      16 | 0x08F5      |        2293 |
|      17 | 0x0AF8      |        2808 |
|      18 | 0x71DD      |       29149 |
|      19 | 0x00FA      |         250 |
|      20 | 0x0CE3      |        3299 |
|      21 | 0x34EE      |       13550 |
|      22 | 0x1369      |        4969 |
|      23 | 0xFFFF9A71  |  4294941297 |
|      24 | 0x0981      |        2433 |
|      25 | 0xFFFFEF80  |  4294963072 |
|      26 | 0x41B2      |       16818 |
|      27 | 0x781D      |       30749 |
|      28 | 0x0562      |        1378 |
|      29 | 0x03C1      |         961 |
|      30 | 0x3B6E      |       15214 |
|      31 | 0xFFFF4868  |  4294920296 |
|      32 | 0x01BD      |         445 |
|      33 | 0x00F9      |         249 |
|      34 | 0x8FAA      |       36778 |
|      35 | 0xFFFF4099  |  4294918297 |
|      36 | 0x0C6D      |        3181 |
|      37 | 0x0CA4      |        3236 |
|      38 | 0xC3B8      |       50104 |
|      39 | 0xFFFF11B8  |  4294906296 |
|      40 | 0x0602      |        1538 |
|      41 | 0xB12B      |       45355 |
|      42 | 0xFFFF3CB0  |  4294917296 |
|      43 | 0x0C34      |        3124 |
|      44 | 0x000D      |          13 |
|      45 | 0xC408      |       50184 |
|      46 | 0xFFFF2FFF  |  4294914047 |
|      47 | 0x001E      |          30 |
|      48 | 0xFFFFE676  |  4294960758 |
|      49 | 0xDDFE      |       56830 |
|      50 | 0xFFFF13AD  |  4294906797 |
|      51 | 0x0421      |        1057 |
|      52 | 0xFFFFE889  |  4294961289 |
|      53 | 0xCB02      |       51970 |
|      54 | 0xFFFF11B9  |  4294906297 |
|      55 | 0xFFFFF574  |  4294964596 |
|      56 | 0xC169      |       49513 |
|      57 | 0x0018      |          24 |
|      58 | 0xBBEA      |       48106 |
|      59 | 0xFFFF11A3  |  4294906275 |
|      60 | 0x03F3      |        1011 |
|      61 | 0xFFFFFFB8  |  4294967224 |
|      62 | 0xD17E      |       53630 |
|      63 | 0xFFFF250E  |  4294911246 |
|      64 | 0x037B      |         891 |
|      65 | 0x0028      |          40 |
|      66 | 0x01E4      |         484 |
|      67 | 0xAFD2      |       45010 |
|      68 | 0xFFFF3CB1  |  4294917297 |
|      69 | 0x080B      |        2059 |
|      70 | 0x74ED      |       29933 |
|      71 | 0x0BA0      |        2976 |
|      72 | 0x0B0A      |        2826 |
|      73 | 0x75FD      |       30205 |
|      74 | 0x0885      |        2181 |
|      75 | 0xFFFFBBE4  |  4294949860 |
|      76 | 0x681A      |       26650 |
|      77 | 0x064D      |        1613 |
|      78 | 0xFFFFD887  |  4294957191 |
|      79 | 0x7545      |       30021 |
|      80 | 0x0FC9      |        4041 |
|      81 | 0x024E      |         590 |
|      82 | 0xBFC6      |       49094 |
|      83 | 0xFFFF3095  |  4294914197 |
|      84 | 0x0C76      |        3190 |
|      85 | 0xFFFFFF3E  |  4294967102 |
|      86 | 0xD330      |       54064 |
|      87 | 0xFFFF2415  |  4294910997 |
|      88 | 0xFFFFE30F  |  4294959887 |
|      89 | 0xE049      |       57417 |
|      90 | 0xFFFF13AC  |  4294906796 |
|      91 | 0x0313      |         787 |
|      92 | 0xFFFFE870  |  4294961264 |
|      93 | 0xC690      |       50832 |
|      94 | 0xFFFFF51E  |  4294964510 |
|      95 | 0xBD74      |       48500 |
|      96 | 0xFFFFFFC5  |  4294967237 |
|      97 | 0xBCFD      |       48381 |
|      98 | 0x0358      |         856 |
|      99 | 0xFFFFF4C2  |  4294964418 |
|     100 | 0xC1CE      |       49614 |
|     101 | 0x0256      |         598 |
|     102 | 0x01AA      |         426 |
|     103 | 0x0001      |           1 |
|     104 | 0x00C8      |         200 |
|     105 | 0xFFFFF70E  |  4294965006 |
|     106 | 0x0014      |          20 |
|     107 | 0xFFFF4869  |  4294920297 |
|     108 | 0x0844      |        2116 |
|     109 | 0xFFFFF855  |  4294965333 |
|     110 | 0xFFFFFA7A  |  4294965882 |
|     111 | 0x0769      |        1897 |
|     112 | 0xFFFFF80A  |  4294965258 |
|     113 | 0xFFFFFD4D  |  4294966605 |
|     114 | 0x0066      |         102 |
|     115 | 0xFFFFFB10  |  4294966032 |
|     116 | 0x067A      |        1658 |
|     117 | 0x0829      |        2089 |
|     118 | 0x3156      |       12630 |
|     119 | 0x3C80      |       15488 |
|     120 | 0xFFFF9976  |  4294941046 |
|     121 | 0x0F0E      |        3854 |
|     122 | 0xFFFFE92F  |  4294961455 |
|     123 | 0xD0D7      |       53463 |
|     124 | 0x0238      |         568 |
|     125 | 0xFFFFFF67  |  4294967143 |
|     126 | 0xFFFFB12D  |  4294947117 |
|     127 | 0x03E8      |        1000 |
|     128 | 0x4CA3      |       19619 |
|     129 | 0x0907      |        2311 |
|     130 | 0x1388      |        5000 |
|     131 | 0x452E      |       17710 |
|     132 | 0x09A9      |        2473 |
|     133 | 0x0BB8      |        3000 |
|     134 | 0x0008      |           8 |
|     135 | 0x0010      |          16 |
|     136 | 0x000E      |          14 |
|     137 | 0xFFFF9288  |  4294939272 |
|     138 | 0x11D70     |       73072 |
|     139 | 0x0259      |         601 |
|     140 | 0x04C5      |        1221 |
|     141 | 0x0FA0      |        4000 |
|     142 | 0x4268      |       17000 |
|     143 | 0x09C4      |        2500 |
|     144 | 0x3E80      |       16000 |
|     145 | 0x0514      |        1300 |
|     146 | 0x3A34      |       14900 |
|     147 | 0x07D0      |        2000 |
|     148 | 0x3AFC      |       15100 |
|     149 | 0xB915      |       47381 |
|     150 | 0x0400      |        1024 |
|     151 | 0xFFFFEC28  |  4294962216 |
|     152 | 0xF4C1      |       62657 |
|     153 | 0x0503      |        1283 |
|     154 | 0xFFFFEC42  |  4294962242 |
|     155 | 0xE4A6      |       58534 |
|     156 | 0xFFFF1394  |  4294906772 |
|     157 | 0xFFFFE91D  |  4294961437 |
|     158 | 0xEEAE      |       61102 |
|     159 | 0x03F5      |        1013 |
|     160 | 0xFFFFEA1E  |  4294961694 |
|     161 | 0xCB31      |       52017 |
|     162 | 0xFFFFF763  |  4294965091 |
|     163 | 0xB846      |       47174 |
|     164 | 0x00B9      |         185 |
|     165 | 0xFFFFD0F9  |  4294955257 |
|     166 | 0x318E      |       12686 |
|     167 | 0xFFFFF543  |  4294964547 |
|     168 | 0x0BCA      |        3018 |
|     169 | 0x0020      |          32 |
|     170 | 0x9661      |       38497 |
|     171 | 0x0C10      |        3088 |
|     172 | 0xFFFFFFB1  |  4294967217 |
|     173 | 0xB729      |       46889 |
|     174 | 0xFFFF38C9  |  4294916297 |
|     175 | 0xFFFFE512  |  4294960402 |
|     176 | 0xF1F4      |       61940 |
|     177 | 0x0346      |         838 |
|     178 | 0xFFFFE6C2  |  4294960834 |
|     179 | 0xD4E8      |       54504 |
|     180 | 0xFFFF1166  |  4294906214 |
|     181 | 0xFFFFEF88  |  4294963080 |
|     182 | 0xC3B7      |       50103 |
|     183 | 0xFFFFF8BE  |  4294965438 |
|     184 | 0xBD65      |       48485 |
|     185 | 0x2AF9      |       11001 |
|     186 | 0x10B7F     |       68479 |
|     187 | 0xFFFF0FC4  |  4294905796 |
|     188 | 0x0FA3      |        4003 |
|     189 | 0x61BA      |       25018 |
|     190 | 0x10AA8     |       68264 |
|     191 | 0x6C80      |       27776 |
|     192 | 0x10C7C     |       68732 |
|     193 | 0x24EE6     |      151270 |
|     194 | 0xFFFFBB0F  |  4294949647 |
|     195 | 0x2710      |       10000 |
|     196 | 0x0833      |        2099 |
|     197 | 0x2444D     |      148557 |
|     198 | 0xFFFFBEF0  |  4294950640 |
|     199 | 0x238BE     |      145598 |
|     200 | 0xFFFF9DF8  |  4294942200 |
|     201 | 0x32C7      |       12999 |
|     202 | 0x08AD      |        2221 |
|     203 | 0x235F6     |      144886 |
|     204 | 0xFFFFA190  |  4294943120 |
|     205 | 0x00FC      |         252 |
|     206 | 0x003C      |          60 |
|     207 | 0x23471     |      144497 |
|     208 | 0xFFFF99D8  |  4294941144 |
|     209 | 0x00B4      |         180 |
|     210 | 0xFFFFE67F  |  4294960767 |
|     211 | 0xD5C3      |       54723 |
|     212 | 0xFFFF1198  |  4294906264 |
|     213 | 0xFFFFF598  |  4294964632 |
|     214 | 0xC10A      |       49418 |
|     215 | 0x0116      |         278 |
|     216 | 0xFFFFF52D  |  4294964525 |
|     217 | 0xBA91      |       47761 |
|     218 | 0x0AE8      |        2792 |
|     219 | 0xFFFFFF24  |  4294967076 |
|     220 | 0x956D      |       38253 |
|     221 | 0x0C03      |        3075 |
|     222 | 0x9088      |       37000 |
|     223 | 0xFFFFFB31  |  4294966065 |
|     224 | 0x0577      |        1399 |
|     225 | 0x01C2      |         450 |
|     226 | 0xFFFFFF77  |  4294967159 |
|     227 | 0xDC20      |       56352 |
|     228 | 0xFFFF1F95  |  4294909845 |
|     229 | 0x0B6E      |        2926 |
|     230 | 0xFFFFFF4F  |  4294967119 |
|     231 | 0xF4E8      |       62696 |
|     232 | 0xFFFFFB25  |  4294966053 |
|     233 | 0xBC36      |       48182 |
|     234 | 0x0FE4      |        4068 |
|     235 | 0x00A0      |         160 |
|     236 | 0x0078      |         120 |
|     237 | 0x0003      |           3 |
|     238 | 0x0004      |           4 |
|     239 | 0x0005      |           5 |
|     240 | 0x0006      |           6 |
|     241 | 0x0032      |          50 |
|     242 | 0xFFFFE975  |  4294961525 |
|     243 | 0xCE80      |       52864 |
|     244 | 0xFFFFF29F  |  4294963871 |
|     245 | 0xC1F0      |       49648 |
|     246 | 0xBBE2      |       48098 |
|     247 | 0x02AB      |         683 |
|     248 | 0x0002      |           2 |
|     249 | 0x0009      |           9 |
|     250 | 0x0046      |          70 |
|     251 | 0x008C      |         140 |
|     252 | 0x00D2      |         210 |
|     253 | 0xFFFF87B0  |  4294936496 |
|     254 | 0xFFFFE635  |  4294960693 |
|     255 | 0xFFFFE2B5  |  4294959797 |
|     256 | 0xFFFFFF94  |  4294967188 |
|     257 | 0x8740      |       34624 |
|     258 | 0xFFFFFCC0  |  4294966464 |
|     259 | 0xBCE8      |       48360 |
|     260 | 0xFFFFEF96  |  4294963094 |
|     261 | 0xBBAD      |       48045 |
|     262 | 0x05F4      |        1524 |
|     263 | 0x7688      |       30344 |
|     264 | 0x0C1D      |        3101 |
|     265 | 0xFFFFFFA8  |  4294967208 |
|     266 | 0x705D      |       28765 |
|     267 | 0x01F3      |         499 |
|     268 | 0x07EE      |        2030 |
|     269 | 0x071F      |        1823 |
|     270 | 0x7170      |       29040 |
|     271 | 0x0718      |        1816 |
|     272 | 0x0944      |        2372 |
|     273 | 0x71ED      |       29165 |
|     274 | 0x09CE      |        2510 |
|     275 | 0x76F8      |       30456 |
|     276 | 0x0B2E      |        2862 |
|     277 | 0x754D      |       30029 |

## Events

### Event 65535

#### Metadata

| Field        | Value   |
|--------------|---------|
| Entrypoint   | 0x0000  |
| Data Size    | 1 bytes |
| Instructions | 1       |

```
      00 01 02 03 04 05 06 07  08 09 0A 0B 0C 0D 0E 0F
      -- -- -- -- -- -- -- --  -- -- -- -- -- -- -- --
0000: 00                                                .               
```

#### Opcodes

```
  0: 0x0000 [0x00] END_REQSTACK()
```

### Event 65534

#### Metadata

| Field        | Value   |
|--------------|---------|
| Entrypoint   | 0x0001  |
| Data Size    | 1 bytes |
| Instructions | 1       |

```
      00 01 02 03 04 05 06 07  08 09 0A 0B 0C 0D 0E 0F
      -- -- -- -- -- -- -- --  -- -- -- -- -- -- -- --
0000:    00                                              .              
```

#### Opcodes

```
  0: 0x0001 [0x00] END_REQSTACK()
```

### Event 65535.1

#### Metadata

| Field        | Value   |
|--------------|---------|
| Entrypoint   | 0x0002  |
| Data Size    | 1 bytes |
| Instructions | 1       |

```
      00 01 02 03 04 05 06 07  08 09 0A 0B 0C 0D 0E 0F
      -- -- -- -- -- -- -- --  -- -- -- -- -- -- -- --
0000:       00                                            .             
```

#### Opcodes

```
  0: 0x0002 [0x00] END_REQSTACK()
```

### Event 65535.2

#### Metadata

| Field        | Value   |
|--------------|---------|
| Entrypoint   | 0x0003  |
| Data Size    | 6 bytes |
| Instructions | 2       |

```
      00 01 02 03 04 05 06 07  08 09 0A 0B 0C 0D 0E 0F
      -- -- -- -- -- -- -- --  -- -- -- -- -- -- -- --
0000:          03 02 10 0B 7F  00                          ......       
```

#### Opcodes

```
  0: 0x0003 [0x03] Work_Zone[2] = (Entity->Render.Flags01 >> 25) & 1
  1: 0x0008 [0x00] END_REQSTACK()
```

### Event 65535.3

#### Metadata

| Field        | Value   |
|--------------|---------|
| Entrypoint   | 0x0009  |
| Data Size    | 6 bytes |
| Instructions | 2       |

```
      00 01 02 03 04 05 06 07  08 09 0A 0B 0C 0D 0E 0F
      -- -- -- -- -- -- -- --  -- -- -- -- -- -- -- --
0000:                             03 03 10 0B 7F 00              ...... 
```

#### Opcodes

```
  0: 0x0009 [0x03] Work_Zone[3] = (Entity->Render.Flags01 >> 25) & 1
  1: 0x000E [0x00] END_REQSTACK()
```

### Event 65535.4

#### Metadata

| Field        | Value   |
|--------------|---------|
| Entrypoint   | 0x000F  |
| Data Size    | 6 bytes |
| Instructions | 2       |

```
      00 01 02 03 04 05 06 07  08 09 0A 0B 0C 0D 0E 0F
      -- -- -- -- -- -- -- --  -- -- -- -- -- -- -- --
0000:                                               03                 .
0010: 09 10 0B 7F 00                                    .....           
```

#### Opcodes

```
  0: 0x000F [0x03] Work_Zone[9] = (Entity->Render.Flags01 >> 25) & 1
  1: 0x0014 [0x00] END_REQSTACK()
```

### Event 65535.5

#### Metadata

| Field        | Value   |
|--------------|---------|
| Entrypoint   | 0x0015  |
| Data Size    | 6 bytes |
| Instructions | 2       |

```
      00 01 02 03 04 05 06 07  08 09 0A 0B 0C 0D 0E 0F
      -- -- -- -- -- -- -- --  -- -- -- -- -- -- -- --
0010:                03 08 10  07 7F 00                      ......     
```

#### Opcodes

```
  0: 0x0015 [0x03] Work_Zone[8] = Entity->Race
  1: 0x001A [0x00] END_REQSTACK()
```

### Event 65535.6

#### Metadata

| Field        | Value    |
|--------------|----------|
| Entrypoint   | 0x001B   |
| Data Size    | 13 bytes |
| Instructions | 3        |

```
      00 01 02 03 04 05 06 07  08 09 0A 0B 0C 0D 0E 0F
      -- -- -- -- -- -- -- --  -- -- -- -- -- -- -- --
0010:                                   6E F0 FF FF 7F             n....
0020: 00 80 99 F0 FF FF 7F 00                           ........        
```

#### Opcodes

```
  0: 0x001B [0x6E] LocalPlayer uses emote 7*
  1: 0x0022 [0x99] Wait for LocalPlayer animation to complete
  2: 0x0027 [0x00] END_REQSTACK()
```

### Event 65535.7

#### Metadata

| Field        | Value   |
|--------------|---------|
| Entrypoint   | 0x0028  |
| Data Size    | 4 bytes |
| Instructions | 2       |

```
      00 01 02 03 04 05 06 07  08 09 0A 0B 0C 0D 0E 0F
      -- -- -- -- -- -- -- --  -- -- -- -- -- -- -- --
0020:                          1C 01 80 00                      ....    
```

#### Opcodes

```
  0: 0x0028 [0x1C] WAIT(100* ticks)
  1: 0x002B [0x00] END_REQSTACK()
```

### Event 65535.8

#### Metadata

| Field        | Value    |
|--------------|----------|
| Entrypoint   | 0x002C   |
| Data Size    | 10 bytes |
| Instructions | 2        |

```
      00 01 02 03 04 05 06 07  08 09 0A 0B 0C 0D 0E 0F
      -- -- -- -- -- -- -- --  -- -- -- -- -- -- -- --
0020:                                      37 02 80 03              7...
0030: 80 04 80 05 80 00                                 ......          
```

#### Opcodes

```
  0: 0x002C [0x37] UPDATE_EVENT_POSITION_AND_DIR: x=3.916*, z=-13.305*, y=0.749*, direction=131.8°*
  1: 0x0035 [0x00] END_REQSTACK()
```

### Event 31

#### Metadata

| Field        | Value   |
|--------------|---------|
| Entrypoint   | 0x0036  |
| Data Size    | 1 bytes |
| Instructions | 1       |

```
      00 01 02 03 04 05 06 07  08 09 0A 0B 0C 0D 0E 0F
      -- -- -- -- -- -- -- --  -- -- -- -- -- -- -- --
0030:                   00                                    .         
```

#### Opcodes

```
  0: 0x0036 [0x00] END_REQSTACK()
```

### Event 32

#### Metadata

| Field        | Value   |
|--------------|---------|
| Entrypoint   | 0x0037  |
| Data Size    | 1 bytes |
| Instructions | 1       |

```
      00 01 02 03 04 05 06 07  08 09 0A 0B 0C 0D 0E 0F
      -- -- -- -- -- -- -- --  -- -- -- -- -- -- -- --
0030:                      00                                  .        
```

#### Opcodes

```
  0: 0x0037 [0x00] END_REQSTACK()
```

### Event 33

#### Metadata

| Field        | Value   |
|--------------|---------|
| Entrypoint   | 0x0038  |
| Data Size    | 1 bytes |
| Instructions | 1       |

```
      00 01 02 03 04 05 06 07  08 09 0A 0B 0C 0D 0E 0F
      -- -- -- -- -- -- -- --  -- -- -- -- -- -- -- --
0030:                          00                               .       
```

#### Opcodes

```
  0: 0x0038 [0x00] END_REQSTACK()
```

### Event 34

#### Metadata

| Field        | Value   |
|--------------|---------|
| Entrypoint   | 0x0039  |
| Data Size    | 1 bytes |
| Instructions | 1       |

```
      00 01 02 03 04 05 06 07  08 09 0A 0B 0C 0D 0E 0F
      -- -- -- -- -- -- -- --  -- -- -- -- -- -- -- --
0030:                             00                             .      
```

#### Opcodes

```
  0: 0x0039 [0x00] END_REQSTACK()
```

### Event 35

#### Metadata

| Field        | Value   |
|--------------|---------|
| Entrypoint   | 0x003A  |
| Data Size    | 1 bytes |
| Instructions | 1       |

```
      00 01 02 03 04 05 06 07  08 09 0A 0B 0C 0D 0E 0F
      -- -- -- -- -- -- -- --  -- -- -- -- -- -- -- --
0030:                                00                           .     
```

#### Opcodes

```
  0: 0x003A [0x00] END_REQSTACK()
```

### Event 36

#### Metadata

| Field        | Value   |
|--------------|---------|
| Entrypoint   | 0x003B  |
| Data Size    | 1 bytes |
| Instructions | 1       |

```
      00 01 02 03 04 05 06 07  08 09 0A 0B 0C 0D 0E 0F
      -- -- -- -- -- -- -- --  -- -- -- -- -- -- -- --
0030:                                   00                         .    
```

#### Opcodes

```
  0: 0x003B [0x00] END_REQSTACK()
```

### Event 37

#### Metadata

| Field        | Value   |
|--------------|---------|
| Entrypoint   | 0x003C  |
| Data Size    | 1 bytes |
| Instructions | 1       |

```
      00 01 02 03 04 05 06 07  08 09 0A 0B 0C 0D 0E 0F
      -- -- -- -- -- -- -- --  -- -- -- -- -- -- -- --
0030:                                      00                       .   
```

#### Opcodes

```
  0: 0x003C [0x00] END_REQSTACK()
```

### Event 38

#### Metadata

| Field        | Value   |
|--------------|---------|
| Entrypoint   | 0x003D  |
| Data Size    | 1 bytes |
| Instructions | 1       |

```
      00 01 02 03 04 05 06 07  08 09 0A 0B 0C 0D 0E 0F
      -- -- -- -- -- -- -- --  -- -- -- -- -- -- -- --
0030:                                         00                     .  
```

#### Opcodes

```
  0: 0x003D [0x00] END_REQSTACK()
```

### Event 39

#### Metadata

| Field        | Value   |
|--------------|---------|
| Entrypoint   | 0x003E  |
| Data Size    | 1 bytes |
| Instructions | 1       |

```
      00 01 02 03 04 05 06 07  08 09 0A 0B 0C 0D 0E 0F
      -- -- -- -- -- -- -- --  -- -- -- -- -- -- -- --
0030:                                            00                   . 
```

#### Opcodes

```
  0: 0x003E [0x00] END_REQSTACK()
```

### Event 40

#### Metadata

| Field        | Value   |
|--------------|---------|
| Entrypoint   | 0x003F  |
| Data Size    | 1 bytes |
| Instructions | 1       |

```
      00 01 02 03 04 05 06 07  08 09 0A 0B 0C 0D 0E 0F
      -- -- -- -- -- -- -- --  -- -- -- -- -- -- -- --
0030:                                               00                 .
```

#### Opcodes

```
  0: 0x003F [0x00] END_REQSTACK()
```

### Event 65535.9

#### Metadata

| Field        | Value    |
|--------------|----------|
| Entrypoint   | 0x0040   |
| Data Size    | 13 bytes |
| Instructions | 3        |

```
      00 01 02 03 04 05 06 07  08 09 0A 0B 0C 0D 0E 0F
      -- -- -- -- -- -- -- --  -- -- -- -- -- -- -- --
0040: 47 00 06 80 07 80 08 80  09 80 47 01 00           G.........G..   
```

#### Opcodes

```
  0: 0x0040 [0x47] UPDATE_PLAYER_POS(0.010*, -22.412*, 0.000*, yaw=268.7°*)
  1: 0x004A [0x47] WAIT_PLAYER_POS_UPDATE
  2: 0x004C [0x00] END_REQSTACK()
```

### Event 65535.10

#### Metadata

| Field        | Value    |
|--------------|----------|
| Entrypoint   | 0x004D   |
| Data Size    | 13 bytes |
| Instructions | 3        |

```
      00 01 02 03 04 05 06 07  08 09 0A 0B 0C 0D 0E 0F
      -- -- -- -- -- -- -- --  -- -- -- -- -- -- -- --
0040:                                         47 00 0A               G..
0050: 80 0B 80 0C 80 0D 80 47  01 00                    .......G..      
```

#### Opcodes

```
  0: 0x004D [0x47] UPDATE_PLAYER_POS(-20.902*, -8.665*, 0.500*, yaw=333.3°*)
  1: 0x0057 [0x47] WAIT_PLAYER_POS_UPDATE
  2: 0x0059 [0x00] END_REQSTACK()
```

### Event 65535.11

#### Metadata

| Field        | Value    |
|--------------|----------|
| Entrypoint   | 0x005A   |
| Data Size    | 13 bytes |
| Instructions | 3        |

```
      00 01 02 03 04 05 06 07  08 09 0A 0B 0C 0D 0E 0F
      -- -- -- -- -- -- -- --  -- -- -- -- -- -- -- --
0050:                                47 00 0E 80 0F 80            G.....
0060: 0C 80 10 80 47 01 00                              ....G..         
```

#### Opcodes

```
  0: 0x005A [0x47] UPDATE_PLAYER_POS(19.861*, -8.522*, 0.500*, yaw=201.5°*)
  1: 0x0064 [0x47] WAIT_PLAYER_POS_UPDATE
  2: 0x0066 [0x00] END_REQSTACK()
```

### Event 65535.12

#### Metadata

| Field        | Value   |
|--------------|---------|
| Entrypoint   | 0x0067  |
| Data Size    | 6 bytes |
| Instructions | 2       |

```
      00 01 02 03 04 05 06 07  08 09 0A 0B 0C 0D 0E 0F
      -- -- -- -- -- -- -- --  -- -- -- -- -- -- -- --
0060:                      03  09 10 07 7F 00                  ......   
```

#### Opcodes

```
  0: 0x0067 [0x03] Work_Zone[9] = Entity->Race
  1: 0x006C [0x00] END_REQSTACK()
```

### Event 65535.13

#### Metadata

| Field        | Value    |
|--------------|----------|
| Entrypoint   | 0x006D   |
| Data Size    | 13 bytes |
| Instructions | 3        |

```
      00 01 02 03 04 05 06 07  08 09 0A 0B 0C 0D 0E 0F
      -- -- -- -- -- -- -- --  -- -- -- -- -- -- -- --
0060:                                         47 00 11               G..
0070: 80 12 80 13 80 14 80 47  01 00                    .......G..      
```

#### Opcodes

```
  0: 0x006D [0x47] UPDATE_PLAYER_POS(2.808*, 29.149*, 0.250*, yaw=289.9°*)
  1: 0x0077 [0x47] WAIT_PLAYER_POS_UPDATE
  2: 0x0079 [0x00] END_REQSTACK()
```

### Event 65535.14

#### Metadata

| Field        | Value    |
|--------------|----------|
| Entrypoint   | 0x007A   |
| Data Size    | 13 bytes |
| Instructions | 3        |

```
      00 01 02 03 04 05 06 07  08 09 0A 0B 0C 0D 0E 0F
      -- -- -- -- -- -- -- --  -- -- -- -- -- -- -- --
0070:                                47 00 15 80 16 80            G.....
0080: 17 80 18 80 47 01 00                              ....G..         
```

#### Opcodes

```
  0: 0x007A [0x47] UPDATE_PLAYER_POS(13.550*, 4.969*, -25.999*, yaw=213.8°*)
  1: 0x0084 [0x47] WAIT_PLAYER_POS_UPDATE
  2: 0x0086 [0x00] END_REQSTACK()
```

### Event 65535.15

#### Metadata

| Field        | Value    |
|--------------|----------|
| Entrypoint   | 0x0087   |
| Data Size    | 13 bytes |
| Instructions | 3        |

```
      00 01 02 03 04 05 06 07  08 09 0A 0B 0C 0D 0E 0F
      -- -- -- -- -- -- -- --  -- -- -- -- -- -- -- --
0080:                      47  00 19 80 1A 80 1B 80 1C         G........
0090: 80 47 01 00                                       .G..            
```

#### Opcodes

```
  0: 0x0087 [0x47] UPDATE_PLAYER_POS(-4.224*, 16.818*, 30.749*, yaw=121.1°*)
  1: 0x0091 [0x47] WAIT_PLAYER_POS_UPDATE
  2: 0x0093 [0x00] END_REQSTACK()
```

### Event 65535.16

#### Metadata

| Field        | Value    |
|--------------|----------|
| Entrypoint   | 0x0094   |
| Data Size    | 13 bytes |
| Instructions | 3        |

```
      00 01 02 03 04 05 06 07  08 09 0A 0B 0C 0D 0E 0F
      -- -- -- -- -- -- -- --  -- -- -- -- -- -- -- --
0090:             47 00 1D 80  1E 80 1F 80 20 80 47 01      G....... .G.
00A0: 00                                                .               
```

#### Opcodes

```
  0: 0x0094 [0x47] UPDATE_PLAYER_POS(0.961*, 15.214*, -47.000*, yaw=39.1°*)
  1: 0x009E [0x47] WAIT_PLAYER_POS_UPDATE
  2: 0x00A0 [0x00] END_REQSTACK()
```

### Event 65535.17

#### Metadata

| Field        | Value    |
|--------------|----------|
| Entrypoint   | 0x00A1   |
| Data Size    | 13 bytes |
| Instructions | 3        |

```
      00 01 02 03 04 05 06 07  08 09 0A 0B 0C 0D 0E 0F
      -- -- -- -- -- -- -- --  -- -- -- -- -- -- -- --
00A0:    47 00 21 80 22 80 23  80 24 80 47 01 00         G.!.".#.$.G..  
```

#### Opcodes

```
  0: 0x00A1 [0x47] UPDATE_PLAYER_POS(0.249*, 36.778*, -48.999*, yaw=279.6°*)
  1: 0x00AB [0x47] WAIT_PLAYER_POS_UPDATE
  2: 0x00AD [0x00] END_REQSTACK()
```

### Event 65535.18

#### Metadata

| Field        | Value    |
|--------------|----------|
| Entrypoint   | 0x00AE   |
| Data Size    | 13 bytes |
| Instructions | 3        |

```
      00 01 02 03 04 05 06 07  08 09 0A 0B 0C 0D 0E 0F
      -- -- -- -- -- -- -- --  -- -- -- -- -- -- -- --
00A0:                                            47 00                G.
00B0: 25 80 26 80 27 80 28 80  47 01 00                 %.&.'.(.G..     
```

#### Opcodes

```
  0: 0x00AE [0x47] UPDATE_PLAYER_POS(3.236*, 50.104*, -61.000*, yaw=135.2°*)
  1: 0x00B8 [0x47] WAIT_PLAYER_POS_UPDATE
  2: 0x00BA [0x00] END_REQSTACK()
```

### Event 65535.19

#### Metadata

| Field        | Value    |
|--------------|----------|
| Entrypoint   | 0x00BB   |
| Data Size    | 10 bytes |
| Instructions | 2        |

```
      00 01 02 03 04 05 06 07  08 09 0A 0B 0C 0D 0E 0F
      -- -- -- -- -- -- -- --  -- -- -- -- -- -- -- --
00B0:                                   37 08 80 29 80             7..).
00C0: 2A 80 2B 80 00                                    *.+..           
```

#### Opcodes

```
  0: 0x00BB [0x37] UPDATE_EVENT_POSITION_AND_DIR: x=0.000*, z=45.355*, y=-50.000*, direction=274.6°*
  1: 0x00C4 [0x00] END_REQSTACK()
```

### Event 65535.20

#### Metadata

| Field        | Value    |
|--------------|----------|
| Entrypoint   | 0x00C5   |
| Data Size    | 17 bytes |
| Instructions | 5        |

```
      00 01 02 03 04 05 06 07  08 09 0A 0B 0C 0D 0E 0F
      -- -- -- -- -- -- -- --  -- -- -- -- -- -- -- --
00C0:                32 2C 80  5A 00 08 80 2D 80 2E 80       2,.Z...-...
00D0: 5A 01 1C 2F 80 00                                 Z../..          
```

#### Opcodes

```
  0: 0x00C5 [0x32] ExtData[1]->MainSpeed = 13* * 0.1
  1: 0x00C8 [0x5A] UPDATE_EVENT_POSITION: Set EventEntity MovePosition to X=0.000*, Z=50.184*, Y=-53.249*
  2: 0x00D0 [0x5A] UPDATE_EVENT_POSITION: Move EventEntity incrementally towards MovePosition
  3: 0x00D2 [0x1C] WAIT(30* ticks)
  4: 0x00D5 [0x00] END_REQSTACK()
```

### Event 65535.21

#### Metadata

| Field        | Value    |
|--------------|----------|
| Entrypoint   | 0x00D6   |
| Data Size    | 49 bytes |
| Instructions | 11       |

```
      00 01 02 03 04 05 06 07  08 09 0A 0B 0C 0D 0E 0F
      -- -- -- -- -- -- -- --  -- -- -- -- -- -- -- --
00D0:                   37 30  80 31 80 32 80 33 80 1F        70.1.2.3..
00E0: 00 34 80 35 80 36 80 1F  01 1F 00 37 80 38 80 36  .4.5.6.....7.8.6
00F0: 80 1F 01 6F 1F 00 39 80  3A 80 3B 80 1F 01 6F 4B  ...o..9.:.;...oK
0100: F0 FF FF 7F 3C 80 00                              ....<..         
```

#### Opcodes

```
  0: 0x00D6 [0x37] UPDATE_EVENT_POSITION_AND_DIR: x=-6.538*, z=56.830*, y=-60.499*, direction=92.9°*
  1: 0x00DF [0x1F] MOVE_ENTITY: EventEntity moves to X=-6.007*, Z=51.970*, Y=-60.999*
  2: 0x00E7 [0x1F] MOVE_ENTITY: Update entity position (mode=1)
  3: 0x00E9 [0x1F] MOVE_ENTITY: EventEntity moves to X=-2.700*, Z=49.513*, Y=-60.999*
  4: 0x00F1 [0x1F] MOVE_ENTITY: Update entity position (mode=1)
  5: 0x00F3 [0x6F] WAIT_FRAME_DELAY: Yield until WaitTime reaches zero
  6: 0x00F4 [0x1F] MOVE_ENTITY: EventEntity moves to X=0.024*, Z=48.106*, Y=-61.021*
  7: 0x00FC [0x1F] MOVE_ENTITY: Update entity position (mode=1)
  8: 0x00FE [0x6F] WAIT_FRAME_DELAY: Yield until WaitTime reaches zero
  9: 0x00FF [0x4B] UPDATE_ENTITY_YAW(entity=LocalPlayer, yaw=5.6°*)
 10: 0x0106 [0x00] END_REQSTACK()
```

### Event 65535.22

#### Metadata

| Field        | Value    |
|--------------|----------|
| Entrypoint   | 0x0107   |
| Data Size    | 24 bytes |
| Instructions | 6        |

```
      00 01 02 03 04 05 06 07  08 09 0A 0B 0C 0D 0E 0F
      -- -- -- -- -- -- -- --  -- -- -- -- -- -- -- --
0100:                      37  3D 80 3E 80 3F 80 40 80         7=.>.?.@.
0110: 32 41 80 1F 00 42 80 43  80 44 80 1F 01 6F 00     2A...B.C.D...o. 
```

#### Opcodes

```
  0: 0x0107 [0x37] UPDATE_EVENT_POSITION_AND_DIR: x=-0.072*, z=53.630*, y=-56.050*, direction=78.3°*
  1: 0x0110 [0x32] ExtData[1]->MainSpeed = 40* * 0.1
  2: 0x0113 [0x1F] MOVE_ENTITY: EventEntity moves to X=0.484*, Z=45.010*, Y=-49.999*
  3: 0x011B [0x1F] MOVE_ENTITY: Update entity position (mode=1)
  4: 0x011D [0x6F] WAIT_FRAME_DELAY: Yield until WaitTime reaches zero
  5: 0x011E [0x00] END_REQSTACK()
```

### Event 25

#### Metadata

| Field        | Value   |
|--------------|---------|
| Entrypoint   | 0x011F  |
| Data Size    | 1 bytes |
| Instructions | 1       |

```
      00 01 02 03 04 05 06 07  08 09 0A 0B 0C 0D 0E 0F
      -- -- -- -- -- -- -- --  -- -- -- -- -- -- -- --
0110:                                               00                 .
```

#### Opcodes

```
  0: 0x011F [0x00] END_REQSTACK()
```

### Event 65535.23

#### Metadata

| Field        | Value    |
|--------------|----------|
| Entrypoint   | 0x0120   |
| Data Size    | 10 bytes |
| Instructions | 2        |

```
      00 01 02 03 04 05 06 07  08 09 0A 0B 0C 0D 0E 0F
      -- -- -- -- -- -- -- --  -- -- -- -- -- -- -- --
0120: 37 45 80 46 80 08 80 47  80 00                    7E.F...G..      
```

#### Opcodes

```
  0: 0x0120 [0x37] UPDATE_EVENT_POSITION_AND_DIR: x=2.059*, z=29.933*, y=0.000*, direction=261.6°*
  1: 0x0129 [0x00] END_REQSTACK()
```

### Event 65535.24

#### Metadata

| Field        | Value    |
|--------------|----------|
| Entrypoint   | 0x012A   |
| Data Size    | 18 bytes |
| Instructions | 6        |

```
      00 01 02 03 04 05 06 07  08 09 0A 0B 0C 0D 0E 0F
      -- -- -- -- -- -- -- --  -- -- -- -- -- -- -- --
0120:                                32 2C 80 1F 00 48            2,...H
0130: 80 49 80 08 80 1F 01 6F  39 4A 80 00              .I.....o9J..    
```

#### Opcodes

```
  0: 0x012A [0x32] ExtData[1]->MainSpeed = 13* * 0.1
  1: 0x012D [0x1F] MOVE_ENTITY: EventEntity moves to X=2.826*, Z=30.205*, Y=0.000*
  2: 0x0135 [0x1F] MOVE_ENTITY: Update entity position (mode=1)
  3: 0x0137 [0x6F] WAIT_FRAME_DELAY: Yield until WaitTime reaches zero
  4: 0x0138 [0x39] SET_ENTITY_DIRECTION(direction=12.0°*)
  5: 0x013B [0x00] END_REQSTACK()
```

### Event 65535.25

#### Metadata

| Field        | Value    |
|--------------|----------|
| Entrypoint   | 0x013C   |
| Data Size    | 18 bytes |
| Instructions | 6        |

```
      00 01 02 03 04 05 06 07  08 09 0A 0B 0C 0D 0E 0F
      -- -- -- -- -- -- -- --  -- -- -- -- -- -- -- --
0130:                                      1C 01 80 32              ...2
0140: 2C 80 1F 00 45 80 46 80  08 80 1F 01 6F 00        ,...E.F.....o.  
```

#### Opcodes

```
  0: 0x013C [0x1C] WAIT(100* ticks)
  1: 0x013F [0x32] ExtData[1]->MainSpeed = 13* * 0.1
  2: 0x0142 [0x1F] MOVE_ENTITY: EventEntity moves to X=2.059*, Z=29.933*, Y=0.000*
  3: 0x014A [0x1F] MOVE_ENTITY: Update entity position (mode=1)
  4: 0x014C [0x6F] WAIT_FRAME_DELAY: Yield until WaitTime reaches zero
  5: 0x014D [0x00] END_REQSTACK()
```

### Event 65535.26

#### Metadata

| Field        | Value    |
|--------------|----------|
| Entrypoint   | 0x014E   |
| Data Size    | 13 bytes |
| Instructions | 3        |

```
      00 01 02 03 04 05 06 07  08 09 0A 0B 0C 0D 0E 0F
      -- -- -- -- -- -- -- --  -- -- -- -- -- -- -- --
0140:                                            47 00                G.
0150: 4B 80 4C 80 08 80 4D 80  47 01 00                 K.L...M.G..     
```

#### Opcodes

```
  0: 0x014E [0x47] UPDATE_PLAYER_POS(-17.436*, 26.650*, 0.000*, yaw=141.8°*)
  1: 0x0158 [0x47] WAIT_PLAYER_POS_UPDATE
  2: 0x015A [0x00] END_REQSTACK()
```

### Event 65535.27

#### Metadata

| Field        | Value    |
|--------------|----------|
| Entrypoint   | 0x015B   |
| Data Size    | 13 bytes |
| Instructions | 3        |

```
      00 01 02 03 04 05 06 07  08 09 0A 0B 0C 0D 0E 0F
      -- -- -- -- -- -- -- --  -- -- -- -- -- -- -- --
0150:                                   47 00 4E 80 4F             G.N.O
0160: 80 08 80 50 80 47 01 00                           ...P.G..        
```

#### Opcodes

```
  0: 0x015B [0x47] UPDATE_PLAYER_POS(-10.105*, 30.021*, 0.000*, yaw=355.2°*)
  1: 0x0165 [0x47] WAIT_PLAYER_POS_UPDATE
  2: 0x0167 [0x00] END_REQSTACK()
```

### Event 65535.28

#### Metadata

| Field        | Value    |
|--------------|----------|
| Entrypoint   | 0x0168   |
| Data Size    | 24 bytes |
| Instructions | 6        |

```
      00 01 02 03 04 05 06 07  08 09 0A 0B 0C 0D 0E 0F
      -- -- -- -- -- -- -- --  -- -- -- -- -- -- -- --
0160:                          37 51 80 52 80 53 80 54          7Q.R.S.T
0170: 80 32 41 80 1F 00 55 80  56 80 57 80 1F 01 6F 00  .2A...U.V.W...o.
```

#### Opcodes

```
  0: 0x0168 [0x37] UPDATE_EVENT_POSITION_AND_DIR: x=0.590*, z=49.094*, y=-53.099*, direction=280.4°*
  1: 0x0171 [0x32] ExtData[1]->MainSpeed = 40* * 0.1
  2: 0x0174 [0x1F] MOVE_ENTITY: EventEntity moves to X=-0.194*, Z=54.064*, Y=-56.299*
  3: 0x017C [0x1F] MOVE_ENTITY: Update entity position (mode=1)
  4: 0x017E [0x6F] WAIT_FRAME_DELAY: Yield until WaitTime reaches zero
  5: 0x017F [0x00] END_REQSTACK()
```

### Event 65535.29

#### Metadata

| Field        | Value    |
|--------------|----------|
| Entrypoint   | 0x0180   |
| Data Size    | 47 bytes |
| Instructions | 11       |

```
      00 01 02 03 04 05 06 07  08 09 0A 0B 0C 0D 0E 0F
      -- -- -- -- -- -- -- --  -- -- -- -- -- -- -- --
0180: 37 58 80 59 80 5A 80 5B  80 32 2C 80 1F 00 5C 80  7X.Y.Z.[.2,...\.
0190: 5D 80 27 80 1F 01 1F 00  5E 80 5F 80 27 80 1F 01  ].'.....^._.'...
01A0: 1F 00 60 80 61 80 3B 80  1F 01 6F 39 62 80 00     ..`.a.;...o9b.. 
```

#### Opcodes

```
  0: 0x0180 [0x37] UPDATE_EVENT_POSITION_AND_DIR: x=-7.409*, z=57.417*, y=-60.500*, direction=69.2°*
  1: 0x0189 [0x32] ExtData[1]->MainSpeed = 13* * 0.1
  2: 0x018C [0x1F] MOVE_ENTITY: EventEntity moves to X=-6.032*, Z=50.832*, Y=-61.000*
  3: 0x0194 [0x1F] MOVE_ENTITY: Update entity position (mode=1)
  4: 0x0196 [0x1F] MOVE_ENTITY: EventEntity moves to X=-2.786*, Z=48.500*, Y=-61.000*
  5: 0x019E [0x1F] MOVE_ENTITY: Update entity position (mode=1)
  6: 0x01A0 [0x1F] MOVE_ENTITY: EventEntity moves to X=-0.059*, Z=48.381*, Y=-61.021*
  7: 0x01A8 [0x1F] MOVE_ENTITY: Update entity position (mode=1)
  8: 0x01AA [0x6F] WAIT_FRAME_DELAY: Yield until WaitTime reaches zero
  9: 0x01AB [0x39] SET_ENTITY_DIRECTION(direction=4.7°*)
 10: 0x01AE [0x00] END_REQSTACK()
```

### Event 65535.30

#### Metadata

| Field        | Value    |
|--------------|----------|
| Entrypoint   | 0x01AF   |
| Data Size    | 24 bytes |
| Instructions | 6        |

```
      00 01 02 03 04 05 06 07  08 09 0A 0B 0C 0D 0E 0F
      -- -- -- -- -- -- -- --  -- -- -- -- -- -- -- --
01A0:                                               37                 7
01B0: 63 80 64 80 36 80 65 80  1F 00 60 80 61 80 3B 80  c.d.6.e...`.a.;.
01C0: 1F 01 6F 39 62 80 00                              ..o9b..         
```

#### Opcodes

```
  0: 0x01AF [0x37] UPDATE_EVENT_POSITION_AND_DIR: x=-2.878*, z=49.614*, y=-60.999*, direction=52.6°*
  1: 0x01B8 [0x1F] MOVE_ENTITY: EventEntity moves to X=-0.059*, Z=48.381*, Y=-61.021*
  2: 0x01C0 [0x1F] MOVE_ENTITY: Update entity position (mode=1)
  3: 0x01C2 [0x6F] WAIT_FRAME_DELAY: Yield until WaitTime reaches zero
  4: 0x01C3 [0x39] SET_ENTITY_DIRECTION(direction=4.7°*)
  5: 0x01C6 [0x00] END_REQSTACK()
```

### Event 43

#### Metadata

| Field        | Value    |
|--------------|----------|
| Entrypoint   | 0x01C7   |
| Data Size    | 37 bytes |
| Instructions | 8        |

```
      00 01 02 03 04 05 06 07  08 09 0A 0B 0C 0D 0E 0F
      -- -- -- -- -- -- -- --  -- -- -- -- -- -- -- --
01C0:                      82  72 5F 35 77 D7 01 75 00         .r_5w..u.
01D0: 66 80 75 01 1C 67 80 45  68 80 F0 FF FF 7F F0 FF  f.u..g.Eh.......
01E0: FF 7F 66 64 69 31 08 80  20 00 21 00              ..fdi1.. .!.    
```

#### Opcodes

```
  0: 0x01C7 [0x82] RECT_HIT_TEST_BRANCH: If EventEntity is NOT in rectangle 0x77355F72, GOTO 0x01D7
  1: 0x01CE [0x75] LOAD_ROOM(Load indoor room, room=426*)
  2: 0x01D2 [0x75] LOAD_ROOM(No action)
  3: 0x01D4 [0x1C] WAIT(1* ticks)
  4: 0x01D7 [0x45] LOAD_SCHEDULED_TASK: Load scheduler "fdi1" with entities [LocalPlayer, LocalPlayer], work=[200*, 0*]
  5: 0x01E8 [0x20] SET_CLI_EVENT_UC_FLAG: Unlock player control
  6: 0x01EA [0x21] END_EVENT
  7: 0x01EB [0x00] END_REQSTACK()
```

### Event 41

#### Metadata

| Field        | Value    |
|--------------|----------|
| Entrypoint   | 0x01EC   |
| Data Size    | 44 bytes |
| Instructions | 8        |

```
      00 01 02 03 04 05 06 07  08 09 0A 0B 0C 0D 0E 0F
      -- -- -- -- -- -- -- --  -- -- -- -- -- -- -- --
01E0:                                      20 01 42 45               .BE
01F0: 68 80 F0 FF FF 7F F0 FF  FF 7F 66 64 6F 31 08 80  h.........fdo1..
0200: 62 67 80 F0 FF FF 7F F0  FF FF 7F 6D 61 69 6E 08  bg.........main.
0210: 80 1C 01 80 20 00 21 00                           .... .!.        
```

#### Opcodes

```
  0: 0x01EC [0x20] SET_CLI_EVENT_UC_FLAG: Lock player control
  1: 0x01EE [0x42] SET_CLI_EVENT_CANCEL_DATA()
  2: 0x01EF [0x45] LOAD_SCHEDULED_TASK: Load scheduler "fdo1" with entities [LocalPlayer, LocalPlayer], work=[200*, 0*]
  3: 0x0200 [0x62] LOAD_EVENT_SCHEDULER: Load scheduler "main" with entities [LocalPlayer, LocalPlayer], work=[1*, 0*]
  4: 0x0211 [0x1C] WAIT(100* ticks)
  5: 0x0214 [0x20] SET_CLI_EVENT_UC_FLAG: Unlock player control
  6: 0x0216 [0x21] END_EVENT
  7: 0x0217 [0x00] END_REQSTACK()
```

### Event 65535.31

#### Metadata

| Field        | Value    |
|--------------|----------|
| Entrypoint   | 0x0218   |
| Data Size    | 10 bytes |
| Instructions | 2        |

```
      00 01 02 03 04 05 06 07  08 09 0A 0B 0C 0D 0E 0F
      -- -- -- -- -- -- -- --  -- -- -- -- -- -- -- --
0210:                          37 69 80 6A 80 6B 80 6C          7i.j.k.l
0220: 80 00                                             ..              
```

#### Opcodes

```
  0: 0x0218 [0x37] UPDATE_EVENT_POSITION_AND_DIR: x=-2.290*, z=0.020*, y=-46.999*, direction=186.0°*
  1: 0x0221 [0x00] END_REQSTACK()
```

### Event 65535.32

#### Metadata

| Field        | Value    |
|--------------|----------|
| Entrypoint   | 0x0222   |
| Data Size    | 10 bytes |
| Instructions | 2        |

```
      00 01 02 03 04 05 06 07  08 09 0A 0B 0C 0D 0E 0F
      -- -- -- -- -- -- -- --  -- -- -- -- -- -- -- --
0220:       37 6D 80 6E 80 6B  80 6F 80 00                7m.n.k.o..    
```

#### Opcodes

```
  0: 0x0222 [0x37] UPDATE_EVENT_POSITION_AND_DIR: x=-1.963*, z=-1.414*, y=-46.999*, direction=166.7°*
  1: 0x022B [0x00] END_REQSTACK()
```

### Event 65535.33

#### Metadata

| Field        | Value    |
|--------------|----------|
| Entrypoint   | 0x022C   |
| Data Size    | 10 bytes |
| Instructions | 2        |

```
      00 01 02 03 04 05 06 07  08 09 0A 0B 0C 0D 0E 0F
      -- -- -- -- -- -- -- --  -- -- -- -- -- -- -- --
0220:                                      37 70 80 71              7p.q
0230: 80 6B 80 72 80 00                                 .k.r..          
```

#### Opcodes

```
  0: 0x022C [0x37] UPDATE_EVENT_POSITION_AND_DIR: x=-2.038*, z=-0.691*, y=-46.999*, direction=9.0°*
  1: 0x0235 [0x00] END_REQSTACK()
```

### Event 65535.34

#### Metadata

| Field        | Value    |
|--------------|----------|
| Entrypoint   | 0x0236   |
| Data Size    | 10 bytes |
| Instructions | 2        |

```
      00 01 02 03 04 05 06 07  08 09 0A 0B 0C 0D 0E 0F
      -- -- -- -- -- -- -- --  -- -- -- -- -- -- -- --
0230:                   37 73  80 74 80 1F 80 75 80 00        7s.t...u..
```

#### Opcodes

```
  0: 0x0236 [0x37] UPDATE_EVENT_POSITION_AND_DIR: x=-1.264*, z=1.658*, y=-47.000*, direction=183.6°*
  1: 0x023F [0x00] END_REQSTACK()
```

### Event 65535.35

#### Metadata

| Field        | Value    |
|--------------|----------|
| Entrypoint   | 0x0240   |
| Data Size    | 10 bytes |
| Instructions | 2        |

```
      00 01 02 03 04 05 06 07  08 09 0A 0B 0C 0D 0E 0F
      -- -- -- -- -- -- -- --  -- -- -- -- -- -- -- --
0240: 37 76 80 77 80 78 80 79  80 00                    7v.w.x.y..      
```

#### Opcodes

```
  0: 0x0240 [0x37] UPDATE_EVENT_POSITION_AND_DIR: x=12.630*, z=15.488*, y=-26.250*, direction=338.7°*
  1: 0x0249 [0x00] END_REQSTACK()
```

### Event 65535.36

#### Metadata

| Field        | Value    |
|--------------|----------|
| Entrypoint   | 0x024A   |
| Data Size    | 13 bytes |
| Instructions | 3        |

```
      00 01 02 03 04 05 06 07  08 09 0A 0B 0C 0D 0E 0F
      -- -- -- -- -- -- -- --  -- -- -- -- -- -- -- --
0240:                                37 7A 80 7B 80 27            7z.{.'
0250: 80 7C 80 32 2C 80 00                              .|.2,..         
```

#### Opcodes

```
  0: 0x024A [0x37] UPDATE_EVENT_POSITION_AND_DIR: x=-5.841*, z=53.463*, y=-61.000*, direction=49.9°*
  1: 0x0253 [0x32] ExtData[1]->MainSpeed = 13* * 0.1
  2: 0x0256 [0x00] END_REQSTACK()
```

### Event 42

#### Metadata

| Field        | Value   |
|--------------|---------|
| Entrypoint   | 0x0257  |
| Data Size    | 1 bytes |
| Instructions | 1       |

```
      00 01 02 03 04 05 06 07  08 09 0A 0B 0C 0D 0E 0F
      -- -- -- -- -- -- -- --  -- -- -- -- -- -- -- --
0250:                      00                                  .        
```

#### Opcodes

```
  0: 0x0257 [0x00] END_REQSTACK()
```

### Event 65535.37

#### Metadata

| Field        | Value    |
|--------------|----------|
| Entrypoint   | 0x0258   |
| Data Size    | 27 bytes |
| Instructions | 7        |

```
      00 01 02 03 04 05 06 07  08 09 0A 0B 0C 0D 0E 0F
      -- -- -- -- -- -- -- --  -- -- -- -- -- -- -- --
0250:                          37 06 80 07 80 08 80 09          7.......
0260: 80 1C 06 80 32 2C 80 1F  00 7D 80 7E 80 21 80 1F  ....2,...}.~.!..
0270: 01 6F 00                                          .o.             
```

#### Opcodes

```
  0: 0x0258 [0x37] UPDATE_EVENT_POSITION_AND_DIR: x=0.010*, z=-22.412*, y=0.000*, direction=268.7°*
  1: 0x0261 [0x1C] WAIT(10* ticks)
  2: 0x0264 [0x32] ExtData[1]->MainSpeed = 13* * 0.1
  3: 0x0267 [0x1F] MOVE_ENTITY: EventEntity moves to X=-0.153*, Z=-20.179*, Y=0.249*
  4: 0x026F [0x1F] MOVE_ENTITY: Update entity position (mode=1)
  5: 0x0271 [0x6F] WAIT_FRAME_DELAY: Yield until WaitTime reaches zero
  6: 0x0272 [0x00] END_REQSTACK()
```

### Event 65535.38

#### Metadata

| Field        | Value    |
|--------------|----------|
| Entrypoint   | 0x0273   |
| Data Size    | 10 bytes |
| Instructions | 2        |

```
      00 01 02 03 04 05 06 07  08 09 0A 0B 0C 0D 0E 0F
      -- -- -- -- -- -- -- --  -- -- -- -- -- -- -- --
0270:          37 7F 80 80 80  1B 80 81 80 00              7.........   
```

#### Opcodes

```
  0: 0x0273 [0x37] UPDATE_EVENT_POSITION_AND_DIR: x=1.000*, z=19.619*, y=30.749*, direction=203.1°*
  1: 0x027C [0x00] END_REQSTACK()
```

### Event 65535.39

#### Metadata

| Field        | Value    |
|--------------|----------|
| Entrypoint   | 0x027D   |
| Data Size    | 10 bytes |
| Instructions | 2        |

```
      00 01 02 03 04 05 06 07  08 09 0A 0B 0C 0D 0E 0F
      -- -- -- -- -- -- -- --  -- -- -- -- -- -- -- --
0270:                                         37 82 80               7..
0280: 83 80 1B 80 84 80 00                              .......         
```

#### Opcodes

```
  0: 0x027D [0x37] UPDATE_EVENT_POSITION_AND_DIR: x=5.000*, z=17.710*, y=30.749*, direction=217.3°*
  1: 0x0286 [0x00] END_REQSTACK()
```

### Event 65535.40

#### Metadata

| Field        | Value    |
|--------------|----------|
| Entrypoint   | 0x0287   |
| Data Size    | 14 bytes |
| Instructions | 4        |

```
      00 01 02 03 04 05 06 07  08 09 0A 0B 0C 0D 0E 0F
      -- -- -- -- -- -- -- --  -- -- -- -- -- -- -- --
0280:                      32  2C 80 1F 00 85 80 83 80         2,.......
0290: 1B 80 1F 01 00                                    .....           
```

#### Opcodes

```
  0: 0x0287 [0x32] ExtData[1]->MainSpeed = 13* * 0.1
  1: 0x028A [0x1F] MOVE_ENTITY: EventEntity moves to X=3.000*, Z=17.710*, Y=30.749*
  2: 0x0292 [0x1F] MOVE_ENTITY: Update entity position (mode=1)
  3: 0x0294 [0x00] END_REQSTACK()
```

### Event 65535.41

#### Metadata

| Field        | Value    |
|--------------|----------|
| Entrypoint   | 0x0295   |
| Data Size    | 43 bytes |
| Instructions | 9        |

```
      00 01 02 03 04 05 06 07  08 09 0A 0B 0C 0D 0E 0F
      -- -- -- -- -- -- -- --  -- -- -- -- -- -- -- --
0290:                6E F0 FF  FF 7F 86 80 99 F0 FF FF       n..........
02A0: 7F 1C 01 80 6E F0 FF FF  7F 87 80 99 F0 FF FF 7F  ....n...........
02B0: 1C 01 80 6E F0 FF FF 7F  88 80 99 F0 FF FF 7F 00  ...n............
```

#### Opcodes

```
  0: 0x0295 [0x6E] LocalPlayer uses emote 8*
  1: 0x029C [0x99] Wait for LocalPlayer animation to complete
  2: 0x02A1 [0x1C] WAIT(100* ticks)
  3: 0x02A4 [0x6E] LocalPlayer uses emote 16*
  4: 0x02AB [0x99] Wait for LocalPlayer animation to complete
  5: 0x02B0 [0x1C] WAIT(100* ticks)
  6: 0x02B3 [0x6E] LocalPlayer uses emote 14*
  7: 0x02BA [0x99] Wait for LocalPlayer animation to complete
  8: 0x02BF [0x00] END_REQSTACK()
```

### Event 65535.42

#### Metadata

| Field        | Value    |
|--------------|----------|
| Entrypoint   | 0x02C0   |
| Data Size    | 10 bytes |
| Instructions | 2        |

```
      00 01 02 03 04 05 06 07  08 09 0A 0B 0C 0D 0E 0F
      -- -- -- -- -- -- -- --  -- -- -- -- -- -- -- --
02C0: 37 89 80 8A 80 8B 80 8C  80 00                    7.........      
```

#### Opcodes

```
  0: 0x02C0 [0x37] UPDATE_EVENT_POSITION_AND_DIR: x=-28.024*, z=73.072*, y=0.601*, direction=107.3°*
  1: 0x02C9 [0x00] END_REQSTACK()
```

### Event 65535.43

#### Metadata

| Field        | Value    |
|--------------|----------|
| Entrypoint   | 0x02CA   |
| Data Size    | 34 bytes |
| Instructions | 8        |

```
      00 01 02 03 04 05 06 07  08 09 0A 0B 0C 0D 0E 0F
      -- -- -- -- -- -- -- --  -- -- -- -- -- -- -- --
02C0:                                32 2C 80 1F 00 8D            2,....
02D0: 80 8E 80 1B 80 1F 01 1F  00 8F 80 90 80 1B 80 1F  ................
02E0: 01 1F 00 91 80 92 80 1B  80 1F 01 00              ............    
```

#### Opcodes

```
  0: 0x02CA [0x32] ExtData[1]->MainSpeed = 13* * 0.1
  1: 0x02CD [0x1F] MOVE_ENTITY: EventEntity moves to X=4.000*, Z=17.000*, Y=30.749*
  2: 0x02D5 [0x1F] MOVE_ENTITY: Update entity position (mode=1)
  3: 0x02D7 [0x1F] MOVE_ENTITY: EventEntity moves to X=2.500*, Z=16.000*, Y=30.749*
  4: 0x02DF [0x1F] MOVE_ENTITY: Update entity position (mode=1)
  5: 0x02E1 [0x1F] MOVE_ENTITY: EventEntity moves to X=1.300*, Z=14.900*, Y=30.749*
  6: 0x02E9 [0x1F] MOVE_ENTITY: Update entity position (mode=1)
  7: 0x02EB [0x00] END_REQSTACK()
```

### Event 65535.44

#### Metadata

| Field        | Value    |
|--------------|----------|
| Entrypoint   | 0x02EC   |
| Data Size    | 14 bytes |
| Instructions | 4        |

```
      00 01 02 03 04 05 06 07  08 09 0A 0B 0C 0D 0E 0F
      -- -- -- -- -- -- -- --  -- -- -- -- -- -- -- --
02E0:                                      32 2C 80 1F              2,..
02F0: 00 93 80 94 80 1B 80 1F  01 00                    ..........      
```

#### Opcodes

```
  0: 0x02EC [0x32] ExtData[1]->MainSpeed = 13* * 0.1
  1: 0x02EF [0x1F] MOVE_ENTITY: EventEntity moves to X=2.000*, Z=15.100*, Y=30.749*
  2: 0x02F7 [0x1F] MOVE_ENTITY: Update entity position (mode=1)
  3: 0x02F9 [0x00] END_REQSTACK()
```

### Event 65535.45

#### Metadata

| Field        | Value    |
|--------------|----------|
| Entrypoint   | 0x02FA   |
| Data Size    | 10 bytes |
| Instructions | 2        |

```
      00 01 02 03 04 05 06 07  08 09 0A 0B 0C 0D 0E 0F
      -- -- -- -- -- -- -- --  -- -- -- -- -- -- -- --
02F0:                                37 08 80 95 80 3B            7....;
0300: 80 96 80 00                                       ....            
```

#### Opcodes

```
  0: 0x02FA [0x37] UPDATE_EVENT_POSITION_AND_DIR: x=0.000*, z=47.381*, y=-61.021*, direction=90.0°*
  1: 0x0303 [0x00] END_REQSTACK()
```

### Event 65535.46

#### Metadata

| Field        | Value    |
|--------------|----------|
| Entrypoint   | 0x0304   |
| Data Size    | 23 bytes |
| Instructions | 5        |

```
      00 01 02 03 04 05 06 07  08 09 0A 0B 0C 0D 0E 0F
      -- -- -- -- -- -- -- --  -- -- -- -- -- -- -- --
0300:             37 97 80 98  80 5A 80 99 80 32 2C 80      7....Z...2,.
0310: 1F 00 9A 80 9B 80 9C 80  1F 01 00                 ...........     
```

#### Opcodes

```
  0: 0x0304 [0x37] UPDATE_EVENT_POSITION_AND_DIR: x=-5.080*, z=62.657*, y=-60.500*, direction=112.8°*
  1: 0x030D [0x32] ExtData[1]->MainSpeed = 13* * 0.1
  2: 0x0310 [0x1F] MOVE_ENTITY: EventEntity moves to X=-5.054*, Z=58.534*, Y=-60.524*
  3: 0x0318 [0x1F] MOVE_ENTITY: Update entity position (mode=1)
  4: 0x031A [0x00] END_REQSTACK()
```

### Event 65535.47

#### Metadata

| Field        | Value    |
|--------------|----------|
| Entrypoint   | 0x031B   |
| Data Size    | 10 bytes |
| Instructions | 2        |

```
      00 01 02 03 04 05 06 07  08 09 0A 0B 0C 0D 0E 0F
      -- -- -- -- -- -- -- --  -- -- -- -- -- -- -- --
0310:                                   37 08 80 61 80             7..a.
0320: 3B 80 96 80 00                                    ;....           
```

#### Opcodes

```
  0: 0x031B [0x37] UPDATE_EVENT_POSITION_AND_DIR: x=0.000*, z=48.381*, y=-61.021*, direction=90.0°*
  1: 0x0324 [0x00] END_REQSTACK()
```

### Event 65535.48

#### Metadata

| Field        | Value    |
|--------------|----------|
| Entrypoint   | 0x0325   |
| Data Size    | 23 bytes |
| Instructions | 5        |

```
      00 01 02 03 04 05 06 07  08 09 0A 0B 0C 0D 0E 0F
      -- -- -- -- -- -- -- --  -- -- -- -- -- -- -- --
0320:                37 9D 80  9E 80 5A 80 9F 80 32 2C       7....Z...2,
0330: 80 1F 00 A0 80 A1 80 36  80 1F 01 00              .......6....    
```

#### Opcodes

```
  0: 0x0325 [0x37] UPDATE_EVENT_POSITION_AND_DIR: x=-5.859*, z=61.102*, y=-60.500*, direction=89.0°*
  1: 0x032E [0x32] ExtData[1]->MainSpeed = 13* * 0.1
  2: 0x0331 [0x1F] MOVE_ENTITY: EventEntity moves to X=-5.602*, Z=52.017*, Y=-60.999*
  3: 0x0339 [0x1F] MOVE_ENTITY: Update entity position (mode=1)
  4: 0x033B [0x00] END_REQSTACK()
```

### Event 65535.49

#### Metadata

| Field        | Value    |
|--------------|----------|
| Entrypoint   | 0x033C   |
| Data Size    | 10 bytes |
| Instructions | 2        |

```
      00 01 02 03 04 05 06 07  08 09 0A 0B 0C 0D 0E 0F
      -- -- -- -- -- -- -- --  -- -- -- -- -- -- -- --
0330:                                      37 A2 80 A3              7...
0340: 80 27 80 A4 80 00                                 .'....          
```

#### Opcodes

```
  0: 0x033C [0x37] UPDATE_EVENT_POSITION_AND_DIR: x=-2.205*, z=47.174*, y=-61.000*, direction=16.3°*
  1: 0x0345 [0x00] END_REQSTACK()
```

### Event 65535.50

#### Metadata

| Field        | Value    |
|--------------|----------|
| Entrypoint   | 0x0346   |
| Data Size    | 10 bytes |
| Instructions | 2        |

```
      00 01 02 03 04 05 06 07  08 09 0A 0B 0C 0D 0E 0F
      -- -- -- -- -- -- -- --  -- -- -- -- -- -- -- --
0340:                   37 A5  80 A6 80 A7 80 A8 80 00        7.........
```

#### Opcodes

```
  0: 0x0346 [0x37] UPDATE_EVENT_POSITION_AND_DIR: x=-12.039*, z=12.686*, y=-2.749*, direction=265.2°*
  1: 0x034F [0x00] END_REQSTACK()
```

### Event 65535.51

#### Metadata

| Field        | Value    |
|--------------|----------|
| Entrypoint   | 0x0350   |
| Data Size    | 10 bytes |
| Instructions | 2        |

```
      00 01 02 03 04 05 06 07  08 09 0A 0B 0C 0D 0E 0F
      -- -- -- -- -- -- -- --  -- -- -- -- -- -- -- --
0350: 37 A9 80 AA 80 23 80 AB  80 00                    7....#....      
```

#### Opcodes

```
  0: 0x0350 [0x37] UPDATE_EVENT_POSITION_AND_DIR: x=0.032*, z=38.497*, y=-48.999*, direction=271.4°*
  1: 0x0359 [0x00] END_REQSTACK()
```

### Event 65535.52

#### Metadata

| Field        | Value    |
|--------------|----------|
| Entrypoint   | 0x035A   |
| Data Size    | 14 bytes |
| Instructions | 4        |

```
      00 01 02 03 04 05 06 07  08 09 0A 0B 0C 0D 0E 0F
      -- -- -- -- -- -- -- --  -- -- -- -- -- -- -- --
0350:                                32 41 80 1F 00 AC            2A....
0360: 80 AD 80 AE 80 1F 01 00                           ........        
```

#### Opcodes

```
  0: 0x035A [0x32] ExtData[1]->MainSpeed = 40* * 0.1
  1: 0x035D [0x1F] MOVE_ENTITY: EventEntity moves to X=-0.079*, Z=46.889*, Y=-50.999*
  2: 0x0365 [0x1F] MOVE_ENTITY: Update entity position (mode=1)
  3: 0x0367 [0x00] END_REQSTACK()
```

### Event 65535.53

#### Metadata

| Field        | Value    |
|--------------|----------|
| Entrypoint   | 0x0368   |
| Data Size    | 10 bytes |
| Instructions | 2        |

```
      00 01 02 03 04 05 06 07  08 09 0A 0B 0C 0D 0E 0F
      -- -- -- -- -- -- -- --  -- -- -- -- -- -- -- --
0360:                          37 AF 80 B0 80 5A 80 B1          7....Z..
0370: 80 00                                             ..              
```

#### Opcodes

```
  0: 0x0368 [0x37] UPDATE_EVENT_POSITION_AND_DIR: x=-6.894*, z=61.940*, y=-60.500*, direction=73.7°*
  1: 0x0371 [0x00] END_REQSTACK()
```

### Event 65535.54

#### Metadata

| Field        | Value    |
|--------------|----------|
| Entrypoint   | 0x0372   |
| Data Size    | 34 bytes |
| Instructions | 8        |

```
      00 01 02 03 04 05 06 07  08 09 0A 0B 0C 0D 0E 0F
      -- -- -- -- -- -- -- --  -- -- -- -- -- -- -- --
0370:       32 2C 80 1F 00 B2  80 B3 80 B4 80 1F 01 1F    2,............
0380: 00 B5 80 B6 80 27 80 1F  01 1F 00 B7 80 B8 80 3B  .....'.........;
0390: 80 1F 01 00                                       ....            
```

#### Opcodes

```
  0: 0x0372 [0x32] ExtData[1]->MainSpeed = 13* * 0.1
  1: 0x0375 [0x1F] MOVE_ENTITY: EventEntity moves to X=-6.462*, Z=54.504*, Y=-61.082*
  2: 0x037D [0x1F] MOVE_ENTITY: Update entity position (mode=1)
  3: 0x037F [0x1F] MOVE_ENTITY: EventEntity moves to X=-4.216*, Z=50.103*, Y=-61.000*
  4: 0x0387 [0x1F] MOVE_ENTITY: Update entity position (mode=1)
  5: 0x0389 [0x1F] MOVE_ENTITY: EventEntity moves to X=-1.858*, Z=48.485*, Y=-61.021*
  6: 0x0391 [0x1F] MOVE_ENTITY: Update entity position (mode=1)
  7: 0x0393 [0x00] END_REQSTACK()
```

### Event 65535.55

#### Metadata

| Field        | Value    |
|--------------|----------|
| Entrypoint   | 0x0394   |
| Data Size    | 10 bytes |
| Instructions | 2        |

```
      00 01 02 03 04 05 06 07  08 09 0A 0B 0C 0D 0E 0F
      -- -- -- -- -- -- -- --  -- -- -- -- -- -- -- --
0390:             37 B9 80 BA  80 BB 80 BC 80 00            7.........  
```

#### Opcodes

```
  0: 0x0394 [0x37] UPDATE_EVENT_POSITION_AND_DIR: x=11.001*, z=68.479*, y=-61.500*, direction=351.8°*
  1: 0x039D [0x00] END_REQSTACK()
```

### Event 65535.56

#### Metadata

| Field        | Value    |
|--------------|----------|
| Entrypoint   | 0x039E   |
| Data Size    | 14 bytes |
| Instructions | 4        |

```
      00 01 02 03 04 05 06 07  08 09 0A 0B 0C 0D 0E 0F
      -- -- -- -- -- -- -- --  -- -- -- -- -- -- -- --
0390:                                            32 2C                2,
03A0: 80 1F 00 BD 80 BE 80 BB  80 1F 01 00              ............    
```

#### Opcodes

```
  0: 0x039E [0x32] ExtData[1]->MainSpeed = 13* * 0.1
  1: 0x03A1 [0x1F] MOVE_ENTITY: EventEntity moves to X=25.018*, Z=68.264*, Y=-61.500*
  2: 0x03A9 [0x1F] MOVE_ENTITY: Update entity position (mode=1)
  3: 0x03AB [0x00] END_REQSTACK()
```

### Event 65535.57

#### Metadata

| Field        | Value    |
|--------------|----------|
| Entrypoint   | 0x03AC   |
| Data Size    | 17 bytes |
| Instructions | 6        |

```
      00 01 02 03 04 05 06 07  08 09 0A 0B 0C 0D 0E 0F
      -- -- -- -- -- -- -- --  -- -- -- -- -- -- -- --
03A0:                                      32 2C 80 33              2,.3
03B0: 01 1F 00 BF 80 C0 80 BB  80 1F 01 6F 00           ...........o.   
```

#### Opcodes

```
  0: 0x03AC [0x32] ExtData[1]->MainSpeed = 13* * 0.1
  1: 0x03AF [0x33] EventEntity->Render.Flags0 |= 0x200000 // Bit 21 (flag=0x01)
  2: 0x03B1 [0x1F] MOVE_ENTITY: EventEntity moves to X=27.776*, Z=68.732*, Y=-61.500*
  3: 0x03B9 [0x1F] MOVE_ENTITY: Update entity position (mode=1)
  4: 0x03BB [0x6F] WAIT_FRAME_DELAY: Yield until WaitTime reaches zero
  5: 0x03BC [0x00] END_REQSTACK()
```

### Event 65535.58

#### Metadata

| Field        | Value    |
|--------------|----------|
| Entrypoint   | 0x03BD   |
| Data Size    | 10 bytes |
| Instructions | 2        |

```
      00 01 02 03 04 05 06 07  08 09 0A 0B 0C 0D 0E 0F
      -- -- -- -- -- -- -- --  -- -- -- -- -- -- -- --
03B0:                                         37 C1 80               7..
03C0: C2 80 C3 80 C4 80 00                              .......         
```

#### Opcodes

```
  0: 0x03BD [0x37] UPDATE_EVENT_POSITION_AND_DIR: x=151.270*, z=-17.649*, y=10.000*, direction=184.5°*
  1: 0x03C6 [0x00] END_REQSTACK()
```

### Event 65535.59

#### Metadata

| Field        | Value    |
|--------------|----------|
| Entrypoint   | 0x03C7   |
| Data Size    | 23 bytes |
| Instructions | 5        |

```
      00 01 02 03 04 05 06 07  08 09 0A 0B 0C 0D 0E 0F
      -- -- -- -- -- -- -- --  -- -- -- -- -- -- -- --
03C0:                      32  2C 80 1F 00 C5 80 C6 80         2,.......
03D0: C3 80 1F 01 4A F0 FF FF  7F 5F 20 0F 01 00        ....J...._ ...  
```

#### Opcodes

```
  0: 0x03C7 [0x32] ExtData[1]->MainSpeed = 13* * 0.1
  1: 0x03CA [0x1F] MOVE_ENTITY: EventEntity moves to X=148.557*, Z=-16.656*, Y=10.000*
  2: 0x03D2 [0x1F] MOVE_ENTITY: Update entity position (mode=1)
  3: 0x03D4 [0x4A] LocalPlayer looks at Apururu (ID: 17768543/0x010F205F)
  4: 0x03DD [0x00] END_REQSTACK()
```

### Event 65535.60

#### Metadata

| Field        | Value    |
|--------------|----------|
| Entrypoint   | 0x03DE   |
| Data Size    | 27 bytes |
| Instructions | 7        |

```
      00 01 02 03 04 05 06 07  08 09 0A 0B 0C 0D 0E 0F
      -- -- -- -- -- -- -- --  -- -- -- -- -- -- -- --
03D0:                                            37 C7                7.
03E0: 80 C8 80 C9 80 CA 80 1F  00 CB 80 CC 80 C9 80 1F  ................
03F0: 01 1E 5F 20 0F 01 6F 70  00                       .._ ..op.       
```

#### Opcodes

```
  0: 0x03DE [0x37] UPDATE_EVENT_POSITION_AND_DIR: x=145.598*, z=-25.096*, y=12.999*, direction=195.2°*
  1: 0x03E7 [0x1F] MOVE_ENTITY: EventEntity moves to X=144.886*, Z=-24.176*, Y=12.999*
  2: 0x03EF [0x1F] MOVE_ENTITY: Update entity position (mode=1)
  3: 0x03F1 [0x1E] EventEntity looks at Apururu (ID: 17768543/0x010F205F) and starts talking
  4: 0x03F6 [0x6F] WAIT_FRAME_DELAY: Yield until WaitTime reaches zero
  5: 0x03F7 [0x70] WAIT_ENTITY_RENDER_FLAG: Wait while EventEntity->Render.Flags3 bit 2 is set (cancel turn if not)
  6: 0x03F8 [0x00] END_REQSTACK()
```

### Event 65535.61

#### Metadata

| Field        | Value    |
|--------------|----------|
| Entrypoint   | 0x03F9   |
| Data Size    | 56 bytes |
| Instructions | 6        |

```
      00 01 02 03 04 05 06 07  08 09 0A 0B 0C 0D 0E 0F
      -- -- -- -- -- -- -- --  -- -- -- -- -- -- -- --
03F0:                             45 CD 80 F8 FF FF 7F           E......
0400: F8 FF FF 7F 73 30 31 39  08 80 1C 01 80 45 68 80  ....s019.....Eh.
0410: F0 FF FF 7F F0 FF FF 7F  66 64 6F 31 08 80 1C CE  ........fdo1....
0420: 80 52 CD 80 F8 FF FF 7F  F8 FF FF 7F 73 30 31 39  .R..........s019
0430: 00                                                .               
```

#### Opcodes

```
  0: 0x03F9 [0x45] LOAD_SCHEDULED_TASK: Load scheduler "s019" with entities [EventEntity, EventEntity], work=[252*, 0*]
  1: 0x040A [0x1C] WAIT(100* ticks)
  2: 0x040D [0x45] LOAD_SCHEDULED_TASK: Load scheduler "fdo1" with entities [LocalPlayer, LocalPlayer], work=[200*, 0*]
  3: 0x041E [0x1C] WAIT(60* ticks)
  4: 0x0421 [0x52] END_LOAD_SCHEDULER: End scheduler "s019" with entities [EventEntity, EventEntity], work=252*
  5: 0x0430 [0x00] END_REQSTACK()
```

### Event 65535.62

#### Metadata

| Field        | Value    |
|--------------|----------|
| Entrypoint   | 0x0431   |
| Data Size    | 21 bytes |
| Instructions | 7        |

```
      00 01 02 03 04 05 06 07  08 09 0A 0B 0C 0D 0E 0F
      -- -- -- -- -- -- -- --  -- -- -- -- -- -- -- --
0430:    32 2C 80 1F 00 CF 80  D0 80 C9 80 1F 01 1E 16   2,.............
0440: 20 0F 01 6F 70 00                                  ..op.          
```

#### Opcodes

```
  0: 0x0431 [0x32] ExtData[1]->MainSpeed = 13* * 0.1
  1: 0x0434 [0x1F] MOVE_ENTITY: EventEntity moves to X=144.497*, Z=-26.152*, Y=12.999*
  2: 0x043C [0x1F] MOVE_ENTITY: Update entity position (mode=1)
  3: 0x043E [0x1E] EventEntity looks at Semih Lafihna (ID: 17768470/0x010F2016) and starts talking
  4: 0x0443 [0x6F] WAIT_FRAME_DELAY: Yield until WaitTime reaches zero
  5: 0x0444 [0x70] WAIT_ENTITY_RENDER_FLAG: Wait while EventEntity->Render.Flags3 bit 2 is set (cancel turn if not)
  6: 0x0445 [0x00] END_REQSTACK()
```

### Event 65535.63

#### Metadata

| Field        | Value    |
|--------------|----------|
| Entrypoint   | 0x0446   |
| Data Size    | 70 bytes |
| Instructions | 6        |

```
      00 01 02 03 04 05 06 07  08 09 0A 0B 0C 0D 0E 0F
      -- -- -- -- -- -- -- --  -- -- -- -- -- -- -- --
0440:                   45 CD  80 F8 FF FF 7F F8 FF FF        E.........
0450: 7F 73 30 33 35 08 80 1C  D1 80 52 CD 80 F8 FF FF  .s035.....R.....
0460: 7F F8 FF FF 7F 73 30 33  35 45 68 80 F0 FF FF 7F  .....s035Eh.....
0470: F0 FF FF 7F 6F 76 6C 31  08 80 45 CD 80 F8 FF FF  ....ovl1..E.....
0480: 7F F8 FF FF 7F 73 30 33  30 08 80 00              .....s030...    
```

#### Opcodes

```
  0: 0x0446 [0x45] LOAD_SCHEDULED_TASK: Load scheduler "s035" with entities [EventEntity, EventEntity], work=[252*, 0*]
  1: 0x0457 [0x1C] WAIT(180* ticks)
  2: 0x045A [0x52] END_LOAD_SCHEDULER: End scheduler "s035" with entities [EventEntity, EventEntity], work=252*
  3: 0x0469 [0x45] LOAD_SCHEDULED_TASK: Load scheduler "ovl1" with entities [LocalPlayer, LocalPlayer], work=[200*, 0*]
  4: 0x047A [0x45] LOAD_SCHEDULED_TASK: Load scheduler "s030" with entities [EventEntity, EventEntity], work=[252*, 0*]
  5: 0x048B [0x00] END_REQSTACK()
```

### Event 65535.64

#### Metadata

| Field        | Value    |
|--------------|----------|
| Entrypoint   | 0x048C   |
| Data Size    | 34 bytes |
| Instructions | 8        |

```
      00 01 02 03 04 05 06 07  08 09 0A 0B 0C 0D 0E 0F
      -- -- -- -- -- -- -- --  -- -- -- -- -- -- -- --
0480:                                      32 2C 80 1F              2,..
0490: 00 B2 80 B3 80 B4 80 1F  01 1F 00 B5 80 B6 80 27  ...............'
04A0: 80 1F 01 1F 00 D2 80 D3  80 D4 80 1F 01 00        ..............  
```

#### Opcodes

```
  0: 0x048C [0x32] ExtData[1]->MainSpeed = 13* * 0.1
  1: 0x048F [0x1F] MOVE_ENTITY: EventEntity moves to X=-6.462*, Z=54.504*, Y=-61.082*
  2: 0x0497 [0x1F] MOVE_ENTITY: Update entity position (mode=1)
  3: 0x0499 [0x1F] MOVE_ENTITY: EventEntity moves to X=-4.216*, Z=50.103*, Y=-61.000*
  4: 0x04A1 [0x1F] MOVE_ENTITY: Update entity position (mode=1)
  5: 0x04A3 [0x1F] MOVE_ENTITY: EventEntity moves to X=-6.529*, Z=54.723*, Y=-61.032*
  6: 0x04AB [0x1F] MOVE_ENTITY: Update entity position (mode=1)
  7: 0x04AD [0x00] END_REQSTACK()
```

### Event 65535.65

#### Metadata

| Field        | Value    |
|--------------|----------|
| Entrypoint   | 0x04AE   |
| Data Size    | 10 bytes |
| Instructions | 2        |

```
      00 01 02 03 04 05 06 07  08 09 0A 0B 0C 0D 0E 0F
      -- -- -- -- -- -- -- --  -- -- -- -- -- -- -- --
04A0:                                            37 D5                7.
04B0: 80 D6 80 27 80 D7 80 00                           ...'....        
```

#### Opcodes

```
  0: 0x04AE [0x37] UPDATE_EVENT_POSITION_AND_DIR: x=-2.664*, z=49.418*, y=-61.000*, direction=24.4°*
  1: 0x04B7 [0x00] END_REQSTACK()
```

### Event 65535.66

#### Metadata

| Field        | Value    |
|--------------|----------|
| Entrypoint   | 0x04B8   |
| Data Size    | 10 bytes |
| Instructions | 2        |

```
      00 01 02 03 04 05 06 07  08 09 0A 0B 0C 0D 0E 0F
      -- -- -- -- -- -- -- --  -- -- -- -- -- -- -- --
04B0:                          37 D8 80 D9 80 36 80 DA          7....6..
04C0: 80 00                                             ..              
```

#### Opcodes

```
  0: 0x04B8 [0x37] UPDATE_EVENT_POSITION_AND_DIR: x=-2.771*, z=47.761*, y=-60.999*, direction=245.4°*
  1: 0x04C1 [0x00] END_REQSTACK()
```

### Event 65535.67

#### Metadata

| Field        | Value    |
|--------------|----------|
| Entrypoint   | 0x04C2   |
| Data Size    | 10 bytes |
| Instructions | 2        |

```
      00 01 02 03 04 05 06 07  08 09 0A 0B 0C 0D 0E 0F
      -- -- -- -- -- -- -- --  -- -- -- -- -- -- -- --
04C0:       37 DB 80 DC 80 23  80 DD 80 00                7....#....    
```

#### Opcodes

```
  0: 0x04C2 [0x37] UPDATE_EVENT_POSITION_AND_DIR: x=-0.220*, z=38.253*, y=-48.999*, direction=270.3°*
  1: 0x04CB [0x00] END_REQSTACK()
```

### Event 65535.68

#### Metadata

| Field        | Value    |
|--------------|----------|
| Entrypoint   | 0x04CC   |
| Data Size    | 14 bytes |
| Instructions | 4        |

```
      00 01 02 03 04 05 06 07  08 09 0A 0B 0C 0D 0E 0F
      -- -- -- -- -- -- -- --  -- -- -- -- -- -- -- --
04C0:                                      32 2C 80 1F              2,..
04D0: 00 DB 80 DE 80 23 80 1F  01 00                    .....#....      
```

#### Opcodes

```
  0: 0x04CC [0x32] ExtData[1]->MainSpeed = 13* * 0.1
  1: 0x04CF [0x1F] MOVE_ENTITY: EventEntity moves to X=-0.220*, Z=37.000*, Y=-48.999*
  2: 0x04D7 [0x1F] MOVE_ENTITY: Update entity position (mode=1)
  3: 0x04D9 [0x00] END_REQSTACK()
```

### Event 65535.69

#### Metadata

| Field        | Value    |
|--------------|----------|
| Entrypoint   | 0x04DA   |
| Data Size    | 10 bytes |
| Instructions | 2        |

```
      00 01 02 03 04 05 06 07  08 09 0A 0B 0C 0D 0E 0F
      -- -- -- -- -- -- -- --  -- -- -- -- -- -- -- --
04D0:                                37 DF 80 E0 80 6B            7....k
04E0: 80 E1 80 00                                       ....            
```

#### Opcodes

```
  0: 0x04DA [0x37] UPDATE_EVENT_POSITION_AND_DIR: x=-1.231*, z=1.399*, y=-46.999*, direction=39.5°*
  1: 0x04E3 [0x00] END_REQSTACK()
```

### Event 65535.70

#### Metadata

| Field        | Value    |
|--------------|----------|
| Entrypoint   | 0x04E4   |
| Data Size    | 10 bytes |
| Instructions | 2        |

```
      00 01 02 03 04 05 06 07  08 09 0A 0B 0C 0D 0E 0F
      -- -- -- -- -- -- -- --  -- -- -- -- -- -- -- --
04E0:             37 E2 80 E3  80 E4 80 E5 80 00            7.........  
```

#### Opcodes

```
  0: 0x04E4 [0x37] UPDATE_EVENT_POSITION_AND_DIR: x=-0.137*, z=56.352*, y=-57.451*, direction=257.2°*
  1: 0x04ED [0x00] END_REQSTACK()
```

### Event 65535.71

#### Metadata

| Field        | Value    |
|--------------|----------|
| Entrypoint   | 0x04EE   |
| Data Size    | 21 bytes |
| Instructions | 7        |

```
      00 01 02 03 04 05 06 07  08 09 0A 0B 0C 0D 0E 0F
      -- -- -- -- -- -- -- --  -- -- -- -- -- -- -- --
04E0:                                            32 2C                2,
04F0: 80 1F 00 E6 80 E7 80 9C  80 1F 01 1E 1D 20 0F 01  ............. ..
0500: 6F 70 00                                          op.             
```

#### Opcodes

```
  0: 0x04EE [0x32] ExtData[1]->MainSpeed = 13* * 0.1
  1: 0x04F1 [0x1F] MOVE_ENTITY: EventEntity moves to X=-0.177*, Z=62.696*, Y=-60.524*
  2: 0x04F9 [0x1F] MOVE_ENTITY: Update entity position (mode=1)
  3: 0x04FB [0x1E] EventEntity looks at Star Sibyl (ID: 17768477/0x010F201D) and starts talking
  4: 0x0500 [0x6F] WAIT_FRAME_DELAY: Yield until WaitTime reaches zero
  5: 0x0501 [0x70] WAIT_ENTITY_RENDER_FLAG: Wait while EventEntity->Render.Flags3 bit 2 is set (cancel turn if not)
  6: 0x0502 [0x00] END_REQSTACK()
```

### Event 65535.72

#### Metadata

| Field        | Value    |
|--------------|----------|
| Entrypoint   | 0x0503   |
| Data Size    | 10 bytes |
| Instructions | 2        |

```
      00 01 02 03 04 05 06 07  08 09 0A 0B 0C 0D 0E 0F
      -- -- -- -- -- -- -- --  -- -- -- -- -- -- -- --
0500:          37 E8 80 E9 80  3B 80 EA 80 00              7....;....   
```

#### Opcodes

```
  0: 0x0503 [0x37] UPDATE_EVENT_POSITION_AND_DIR: x=-1.243*, z=48.182*, y=-61.021*, direction=357.5°*
  1: 0x050C [0x00] END_REQSTACK()
```

### Event 65535.73

#### Metadata

| Field        | Value    |
|--------------|----------|
| Entrypoint   | 0x050D   |
| Data Size    | 73 bytes |
| Instructions | 7        |

```
      00 01 02 03 04 05 06 07  08 09 0A 0B 0C 0D 0E 0F
      -- -- -- -- -- -- -- --  -- -- -- -- -- -- -- --
0500:                                         45 21 80               E!.
0510: F8 FF FF 7F F8 FF FF 7F  73 30 39 35 08 80 1C EB  ........s095....
0520: 80 52 21 80 F8 FF FF 7F  F8 FF FF 7F 73 30 39 35  .R!.........s095
0530: 45 68 80 F0 FF FF 7F F0  FF FF 7F 6F 76 6C 31 08  Eh.........ovl1.
0540: 80 45 21 80 F8 FF FF 7F  F8 FF FF 7F 73 30 39 34  .E!.........s094
0550: 08 80 1C 01 80 00                                 ......          
```

#### Opcodes

```
  0: 0x050D [0x45] LOAD_SCHEDULED_TASK: Load scheduler "s095" with entities [EventEntity, EventEntity], work=[249*, 0*]
  1: 0x051E [0x1C] WAIT(160* ticks)
  2: 0x0521 [0x52] END_LOAD_SCHEDULER: End scheduler "s095" with entities [EventEntity, EventEntity], work=249*
  3: 0x0530 [0x45] LOAD_SCHEDULED_TASK: Load scheduler "ovl1" with entities [LocalPlayer, LocalPlayer], work=[200*, 0*]
  4: 0x0541 [0x45] LOAD_SCHEDULED_TASK: Load scheduler "s094" with entities [EventEntity, EventEntity], work=[249*, 0*]
  5: 0x0552 [0x1C] WAIT(100* ticks)
  6: 0x0555 [0x00] END_REQSTACK()
```

### Event 65535.74

#### Metadata

| Field        | Value     |
|--------------|-----------|
| Entrypoint   | 0x0556    |
| Data Size    | 237 bytes |
| Instructions | 24        |

```
      00 01 02 03 04 05 06 07  08 09 0A 0B 0C 0D 0E 0F
      -- -- -- -- -- -- -- --  -- -- -- -- -- -- -- --
0550:                   45 21  80 F8 FF FF 7F F8 FF FF        E!........
0560: 7F 73 31 30 31 08 80 45  68 80 F0 FF FF 7F F0 FF  .s101..Eh.......
0570: FF 7F 66 64 69 31 08 80  1C EC 80 52 21 80 F8 FF  ..fdi1.....R!...
0580: FF 7F F8 FF FF 7F 73 31  30 31 45 68 80 F0 FF FF  ......s101Eh....
0590: 7F F0 FF FF 7F 6F 76 6C  31 08 80 29 08 F0 FF FF  .....ovl1..)....
05A0: 7F 06 02 08 10 ED 80 00  BE 05 45 21 80 F0 FF FF  ..........E!....
05B0: 7F F0 FF FF 7F 73 31 30  34 08 80 01 3F 06 02 08  .....s104...?...
05C0: 10 EE 80 00 DA 05 45 21  80 F0 FF FF 7F F0 FF FF  ......E!........
05D0: 7F 73 31 30 34 08 80 01  3F 06 02 08 10 EF 80 00  .s104...?.......
05E0: F6 05 45 21 80 F0 FF FF  7F F0 FF FF 7F 73 31 30  ..E!.........s10
05F0: 37 08 80 01 3F 06 02 08  10 F0 80 00 12 06 45 21  7...?.........E!
0600: 80 F0 FF FF 7F F0 FF FF  7F 73 31 30 37 08 80 01  .........s107...
0610: 3F 06 02 08 10 86 80 00  2E 06 45 21 80 F0 FF FF  ?.........E!....
0620: 7F F0 FF FF 7F 73 31 30  34 08 80 01 3F 06 45 21  .....s104...?.E!
0630: 80 F0 FF FF 7F F0 FF FF  7F 73 31 30 32 08 80 1C  .........s102...
0640: EC 80 00                                          ...             
```

#### Opcodes

```
  0: 0x0556 [0x45] LOAD_SCHEDULED_TASK: Load scheduler "s101" with entities [EventEntity, EventEntity], work=[249*, 0*]
  1: 0x0567 [0x45] LOAD_SCHEDULED_TASK: Load scheduler "fdi1" with entities [LocalPlayer, LocalPlayer], work=[200*, 0*]
  2: 0x0578 [0x1C] WAIT(120* ticks)
  3: 0x057B [0x52] END_LOAD_SCHEDULER: End scheduler "s101" with entities [EventEntity, EventEntity], work=249*
  4: 0x058A [0x45] LOAD_SCHEDULED_TASK: Load scheduler "ovl1" with entities [LocalPlayer, LocalPlayer], work=[200*, 0*]
  5: 0x059B [0x29] REQ_SET_WAIT(priority=0x08, entity_id=LocalPlayer, tag_num=0x06)
  6: 0x05A2 [0x02] IF !(Work_Zone[8] == 3*) GOTO 0x05BE
  7: 0x05AA [0x45] LOAD_SCHEDULED_TASK: Load scheduler "s104" with entities [LocalPlayer, LocalPlayer], work=[249*, 0*]
  8: 0x05BB [0x01] GOTO 0x063F
  9: 0x05BE [0x02] IF !(Work_Zone[8] == 4*) GOTO 0x05DA
 10: 0x05C6 [0x45] LOAD_SCHEDULED_TASK: Load scheduler "s104" with entities [LocalPlayer, LocalPlayer], work=[249*, 0*]
 11: 0x05D7 [0x01] GOTO 0x063F
 12: 0x05DA [0x02] IF !(Work_Zone[8] == 5*) GOTO 0x05F6
 13: 0x05E2 [0x45] LOAD_SCHEDULED_TASK: Load scheduler "s107" with entities [LocalPlayer, LocalPlayer], work=[249*, 0*]
 14: 0x05F3 [0x01] GOTO 0x063F
 15: 0x05F6 [0x02] IF !(Work_Zone[8] == 6*) GOTO 0x0612
 16: 0x05FE [0x45] LOAD_SCHEDULED_TASK: Load scheduler "s107" with entities [LocalPlayer, LocalPlayer], work=[249*, 0*]
 17: 0x060F [0x01] GOTO 0x063F
 18: 0x0612 [0x02] IF !(Work_Zone[8] == 8*) GOTO 0x062E
 19: 0x061A [0x45] LOAD_SCHEDULED_TASK: Load scheduler "s104" with entities [LocalPlayer, LocalPlayer], work=[249*, 0*]
 20: 0x062B [0x01] GOTO 0x063F
 21: 0x062E [0x45] LOAD_SCHEDULED_TASK: Load scheduler "s102" with entities [LocalPlayer, LocalPlayer], work=[249*, 0*]

SUBROUTINE_063F:
 22: 0x063F [0x1C] WAIT(120* ticks)
 23: 0x0642 [0x00] END_REQSTACK()
```

### Event 65535.75

#### Metadata

| Field        | Value    |
|--------------|----------|
| Entrypoint   | 0x0643   |
| Data Size    | 55 bytes |
| Instructions | 13       |

```
      00 01 02 03 04 05 06 07  08 09 0A 0B 0C 0D 0E 0F
      -- -- -- -- -- -- -- --  -- -- -- -- -- -- -- --
0640:          1C 06 80 4A F0  FF FF 7F 13 20 0F 01 6F     ...J..... ..o
0650: 76 F0 FF FF 7F 1C F1 80  4A F0 FF FF 7F 13 20 0F  v.......J..... .
0660: 01 6F 76 F0 FF FF 7F 1C  CE 80 4A F0 FF FF 7F 13  .ov.......J.....
0670: 20 0F 01 6F 76 F0 FF FF  7F 00                     ..ov.....      
```

#### Opcodes

```
  0: 0x0643 [0x1C] WAIT(10* ticks)
  1: 0x0646 [0x4A] LocalPlayer looks at Kupipi (ID: 17768467/0x010F2013)
  2: 0x064F [0x6F] WAIT_FRAME_DELAY: Yield until WaitTime reaches zero
  3: 0x0650 [0x76] CHECK_ENTITY_RENDER_FLAGS: Wait until LocalPlayer Render.Flags0 and Render.Flags3 conditions are met
  4: 0x0655 [0x1C] WAIT(50* ticks)
  5: 0x0658 [0x4A] LocalPlayer looks at Kupipi (ID: 17768467/0x010F2013)
  6: 0x0661 [0x6F] WAIT_FRAME_DELAY: Yield until WaitTime reaches zero
  7: 0x0662 [0x76] CHECK_ENTITY_RENDER_FLAGS: Wait until LocalPlayer Render.Flags0 and Render.Flags3 conditions are met
  8: 0x0667 [0x1C] WAIT(60* ticks)
  9: 0x066A [0x4A] LocalPlayer looks at Kupipi (ID: 17768467/0x010F2013)
 10: 0x0673 [0x6F] WAIT_FRAME_DELAY: Yield until WaitTime reaches zero
 11: 0x0674 [0x76] CHECK_ENTITY_RENDER_FLAGS: Wait until LocalPlayer Render.Flags0 and Render.Flags3 conditions are met
 12: 0x0679 [0x00] END_REQSTACK()
```

### Event 65535.76

#### Metadata

| Field        | Value    |
|--------------|----------|
| Entrypoint   | 0x067A   |
| Data Size    | 10 bytes |
| Instructions | 2        |

```
      00 01 02 03 04 05 06 07  08 09 0A 0B 0C 0D 0E 0F
      -- -- -- -- -- -- -- --  -- -- -- -- -- -- -- --
0670:                                37 F2 80 F3 80 27            7....'
0680: 80 51 80 00                                       .Q..            
```

#### Opcodes

```
  0: 0x067A [0x37] UPDATE_EVENT_POSITION_AND_DIR: x=-5.771*, z=52.864*, y=-61.000*, direction=51.9°*
  1: 0x0683 [0x00] END_REQSTACK()
```

### Event 65535.77

#### Metadata

| Field        | Value    |
|--------------|----------|
| Entrypoint   | 0x0684   |
| Data Size    | 49 bytes |
| Instructions | 10       |

```
      00 01 02 03 04 05 06 07  08 09 0A 0B 0C 0D 0E 0F
      -- -- -- -- -- -- -- --  -- -- -- -- -- -- -- --
0680:             79 00 F0 FF  FF 7F 1D 20 0F 01 32 2C      y...... ..2,
0690: 80 1F 00 F4 80 F5 80 27  80 1F 01 1F 00 08 80 F6  .......'........
06A0: 80 3B 80 1F 01 4A F0 FF  FF 7F 1D 20 0F 01 6F 76  .;...J..... ..ov
06B0: F0 FF FF 7F 00                                    .....           
```

#### Opcodes

```
  0: 0x0684 [0x79] LocalPlayer looks at Star Sibyl (ID: 17768477/0x010F201D) (Basic look)
  1: 0x068E [0x32] ExtData[1]->MainSpeed = 13* * 0.1
  2: 0x0691 [0x1F] MOVE_ENTITY: EventEntity moves to X=-3.425*, Z=49.648*, Y=-61.000*
  3: 0x0699 [0x1F] MOVE_ENTITY: Update entity position (mode=1)
  4: 0x069B [0x1F] MOVE_ENTITY: EventEntity moves to X=0.000*, Z=48.098*, Y=-61.021*
  5: 0x06A3 [0x1F] MOVE_ENTITY: Update entity position (mode=1)
  6: 0x06A5 [0x4A] LocalPlayer looks at Star Sibyl (ID: 17768477/0x010F201D)
  7: 0x06AE [0x6F] WAIT_FRAME_DELAY: Yield until WaitTime reaches zero
  8: 0x06AF [0x76] CHECK_ENTITY_RENDER_FLAGS: Wait until LocalPlayer Render.Flags0 and Render.Flags3 conditions are met
  9: 0x06B4 [0x00] END_REQSTACK()
```

### Event 65535.78

#### Metadata

| Field        | Value    |
|--------------|----------|
| Entrypoint   | 0x06B5   |
| Data Size    | 25 bytes |
| Instructions | 5        |

```
      00 01 02 03 04 05 06 07  08 09 0A 0B 0C 0D 0E 0F
      -- -- -- -- -- -- -- --  -- -- -- -- -- -- -- --
06B0:                37 08 80  F6 80 3B 80 F7 80 4A F0       7....;...J.
06C0: FF FF 7F 1D 20 0F 01 6F  76 F0 FF FF 7F 00        .... ..ov.....  
```

#### Opcodes

```
  0: 0x06B5 [0x37] UPDATE_EVENT_POSITION_AND_DIR: x=0.000*, z=48.098*, y=-61.021*, direction=60.0°*
  1: 0x06BE [0x4A] LocalPlayer looks at Star Sibyl (ID: 17768477/0x010F201D)
  2: 0x06C7 [0x6F] WAIT_FRAME_DELAY: Yield until WaitTime reaches zero
  3: 0x06C8 [0x76] CHECK_ENTITY_RENDER_FLAGS: Wait until LocalPlayer Render.Flags0 and Render.Flags3 conditions are met
  4: 0x06CD [0x00] END_REQSTACK()
```

### Event 65535.79

#### Metadata

| Field        | Value    |
|--------------|----------|
| Entrypoint   | 0x06CE   |
| Data Size    | 19 bytes |
| Instructions | 3        |

```
      00 01 02 03 04 05 06 07  08 09 0A 0B 0C 0D 0E 0F
      -- -- -- -- -- -- -- --  -- -- -- -- -- -- -- --
06C0:                                            3B F8                ;.
06D0: FF FF 7F 01 00 02 00 03  00 3A F8 FF FF 7F 04 00  .........:......
06E0: 00                                                .               
```

#### Opcodes

```
  0: 0x06CE [0x3B] GET_ENTITY_POSITION(entity=EventEntity, x_destination=ExtData[1]->WorkLocal[1], y_destination=ExtData[1]->WorkLocal[2], z_destination=ExtData[1]->WorkLocal[3])
  1: 0x06D9 [0x3A] CONVERT_YAW_TO_BYTE(entity=EventEntity, result_destination=ExtData[1]->WorkLocal[4])
  2: 0x06E0 [0x00] END_REQSTACK()
```

### Event 65535.80

#### Metadata

| Field        | Value     |
|--------------|-----------|
| Entrypoint   | 0x06E1    |
| Data Size    | 158 bytes |
| Instructions | 2         |

```
      00 01 02 03 04 05 06 07  08 09 0A 0B 0C 0D 0E 0F
      -- -- -- -- -- -- -- --  -- -- -- -- -- -- -- --
06E0:    37 01 00 02 00 03 00  04 00 00 03 06 00 05 00   7..............
06F0: 02 06 00 EF 80 05 00 07  08 06 00 67 80 01 05 07  ...........g....
0700: 08 06 00 F8 80 14 06 00  06 80 07 06 00 F9 80 1B  ................
0710: 03 06 00 05 00 02 06 00  EF 80 05 25 07 08 06 00  ...........%....
0720: 67 80 01 2A 07 08 06 00  F8 80 14 06 00 06 80 07  g..*............
0730: 06 00 FA 80 1B 03 06 00  05 00 02 06 00 EF 80 05  ................
0740: 4A 07 08 06 00 67 80 01  4F 07 08 06 00 F8 80 14  J....g..O.......
0750: 06 00 06 80 07 06 00 FB  80 1B 03 06 00 05 00 02  ................
0760: 06 00 EF 80 05 6F 07 08  06 00 67 80 01 74 07 08  .....o....g..t..
0770: 06 00 F8 80 14 06 00 06  80 07 06 00 FC 80 1B     ............... 
```

#### Opcodes

```
  0: 0x06E1 [0x37] UPDATE_EVENT_POSITION_AND_DIR: x=ExtData[1]->WorkLocal[1], z=ExtData[1]->WorkLocal[2], y=ExtData[1]->WorkLocal[3], direction=ExtData[1]->WorkLocal[4]
  1: 0x06EA [0x00] END_REQSTACK()
```

#### Data or dead code:

```
# Dead code (unreachable instructions):
     0x06EB [0x03] ExtData[1]->WorkLocal[6] = ExtData[1]->WorkLocal[5]
     0x06F0 [0x02] IF !(ExtData[1]->WorkLocal[6] > 5*) GOTO 0x0700
     0x06F8 [0x08] ExtData[1]->WorkLocal[6] -= 1*
     0x06FD [0x01] GOTO 0x0705
     0x0700 [0x08] ExtData[1]->WorkLocal[6] -= 2*
     0x0705 [0x14] ExtData[1]->WorkLocal[6] *= 10*
     0x070A [0x07] ExtData[1]->WorkLocal[6] += 9*
     0x070F [0x1B] RETURN
     0x0710 [0x03] ExtData[1]->WorkLocal[6] = ExtData[1]->WorkLocal[5]
     0x0715 [0x02] IF !(ExtData[1]->WorkLocal[6] > 5*) GOTO 0x0725
     0x071D [0x08] ExtData[1]->WorkLocal[6] -= 1*
     0x0722 [0x01] GOTO 0x072A
     0x0725 [0x08] ExtData[1]->WorkLocal[6] -= 2*
     0x072A [0x14] ExtData[1]->WorkLocal[6] *= 10*
     0x072F [0x07] ExtData[1]->WorkLocal[6] += 70*
     0x0734 [0x1B] RETURN
     0x0735 [0x03] ExtData[1]->WorkLocal[6] = ExtData[1]->WorkLocal[5]
     0x073A [0x02] IF !(ExtData[1]->WorkLocal[6] > 5*) GOTO 0x074A
     0x0742 [0x08] ExtData[1]->WorkLocal[6] -= 1*
     0x0747 [0x01] GOTO 0x074F
     0x074A [0x08] ExtData[1]->WorkLocal[6] -= 2*
     0x074F [0x14] ExtData[1]->WorkLocal[6] *= 10*
     0x0754 [0x07] ExtData[1]->WorkLocal[6] += 140*
     0x0759 [0x1B] RETURN
     0x075A [0x03] ExtData[1]->WorkLocal[6] = ExtData[1]->WorkLocal[5]
     0x075F [0x02] IF !(ExtData[1]->WorkLocal[6] > 5*) GOTO 0x076F
     0x0767 [0x08] ExtData[1]->WorkLocal[6] -= 1*
     0x076C [0x01] GOTO 0x0774
     0x076F [0x08] ExtData[1]->WorkLocal[6] -= 2*
     0x0774 [0x14] ExtData[1]->WorkLocal[6] *= 10*
     0x0779 [0x07] ExtData[1]->WorkLocal[6] += 210*
     0x077E [0x1B] RETURN
```

### Event 65535.81

#### Metadata

| Field        | Value    |
|--------------|----------|
| Entrypoint   | 0x077F   |
| Data Size    | 24 bytes |
| Instructions | 4        |

```
      00 01 02 03 04 05 06 07  08 09 0A 0B 0C 0D 0E 0F
      -- -- -- -- -- -- -- --  -- -- -- -- -- -- -- --
0770:                                               03                 .
0780: 05 00 07 7F 1A EB 06 66  06 00 F8 FF FF 7F F8 FF  .......f........
0790: FF 7F 74 6C 6B 30 00                              ..tlk0.         
```

#### Opcodes

```
  0: 0x077F [0x03] ExtData[1]->WorkLocal[5] = Entity->Race
  1: 0x0784 [0x1A] CALL_SUBROUTINE(address=0x06EB)
  2: 0x0787 [0x66] LOAD_EXT_SCHEDULER_MAIN: Load scheduler "tlk0" with entities [EventEntity, EventEntity], work=ExtData[1]->WorkLocal[6]
  3: 0x0796 [0x00] END_REQSTACK()
```

### Event 65535.82

#### Metadata

| Field        | Value    |
|--------------|----------|
| Entrypoint   | 0x0797   |
| Data Size    | 24 bytes |
| Instructions | 4        |

```
      00 01 02 03 04 05 06 07  08 09 0A 0B 0C 0D 0E 0F
      -- -- -- -- -- -- -- --  -- -- -- -- -- -- -- --
0790:                      03  05 00 07 7F 1A EB 06 66         ........f
07A0: 06 00 F8 FF FF 7F F8 FF  FF 7F 74 6C 6B 31 00     ..........tlk1. 
```

#### Opcodes

```
  0: 0x0797 [0x03] ExtData[1]->WorkLocal[5] = Entity->Race
  1: 0x079C [0x1A] CALL_SUBROUTINE(address=0x06EB)
  2: 0x079F [0x66] LOAD_EXT_SCHEDULER_MAIN: Load scheduler "tlk1" with entities [EventEntity, EventEntity], work=ExtData[1]->WorkLocal[6]
  3: 0x07AE [0x00] END_REQSTACK()
```

### Event 65535.83

#### Metadata

| Field        | Value   |
|--------------|---------|
| Entrypoint   | 0x07AF  |
| Data Size    | 6 bytes |
| Instructions | 2       |

```
      00 01 02 03 04 05 06 07  08 09 0A 0B 0C 0D 0E 0F
      -- -- -- -- -- -- -- --  -- -- -- -- -- -- -- --
07A0:                                               03                 .
07B0: 02 10 07 7F 00                                    .....           
```

#### Opcodes

```
  0: 0x07AF [0x03] Work_Zone[2] = Entity->Race
  1: 0x07B4 [0x00] END_REQSTACK()
```

### Event 65535.84

#### Metadata

| Field        | Value    |
|--------------|----------|
| Entrypoint   | 0x07B5   |
| Data Size    | 11 bytes |
| Instructions | 3        |

```
      00 01 02 03 04 05 06 07  08 09 0A 0B 0C 0D 0E 0F
      -- -- -- -- -- -- -- --  -- -- -- -- -- -- -- --
07B0:                1F 00 FD  80 FE 80 FF 80 1F 01 00       ...........
```

#### Opcodes

```
  0: 0x07B5 [0x1F] MOVE_ENTITY: EventEntity moves to X=-30.800*, Z=-6.603*, Y=-7.499*
  1: 0x07BD [0x1F] MOVE_ENTITY: Update entity position (mode=1)
  2: 0x07BF [0x00] END_REQSTACK()
```

### Event 65535.85

#### Metadata

| Field        | Value    |
|--------------|----------|
| Entrypoint   | 0x07C0   |
| Data Size    | 42 bytes |
| Instructions | 10       |

```
      00 01 02 03 04 05 06 07  08 09 0A 0B 0C 0D 0E 0F
      -- -- -- -- -- -- -- --  -- -- -- -- -- -- -- --
07C0: 1F 00 00 81 01 81 23 80  1F 01 6F 4A F0 FF FF 7F  ......#...oJ....
07D0: 26 20 0F 01 6F 76 F0 FF  FF 7F 1C CE 80 6E F0 FF  & ..ov.......n..
07E0: FF 7F 67 80 99 F0 FF FF  7F 00                    ..g.......      
```

#### Opcodes

```
  0: 0x07C0 [0x1F] MOVE_ENTITY: EventEntity moves to X=-0.108*, Z=34.624*, Y=-48.999*
  1: 0x07C8 [0x1F] MOVE_ENTITY: Update entity position (mode=1)
  2: 0x07CA [0x6F] WAIT_FRAME_DELAY: Yield until WaitTime reaches zero
  3: 0x07CB [0x4A] LocalPlayer looks at Zubaba (ID: 17768486/0x010F2026)
  4: 0x07D4 [0x6F] WAIT_FRAME_DELAY: Yield until WaitTime reaches zero
  5: 0x07D5 [0x76] CHECK_ENTITY_RENDER_FLAGS: Wait until LocalPlayer Render.Flags0 and Render.Flags3 conditions are met
  6: 0x07DA [0x1C] WAIT(60* ticks)
  7: 0x07DD [0x6E] LocalPlayer uses emote 1*
  8: 0x07E4 [0x99] Wait for LocalPlayer animation to complete
  9: 0x07E9 [0x00] END_REQSTACK()
```

### Event 65535.86

#### Metadata

| Field        | Value    |
|--------------|----------|
| Entrypoint   | 0x07EA   |
| Data Size    | 21 bytes |
| Instructions | 5        |

```
      00 01 02 03 04 05 06 07  08 09 0A 0B 0C 0D 0E 0F
      -- -- -- -- -- -- -- --  -- -- -- -- -- -- -- --
07E0:                                1F 00 02 81 03 81            ......
07F0: 3B 80 1F 01 6F 4A F0 FF  FF 7F 1D 20 0F 01 00     ;...oJ..... ... 
```

#### Opcodes

```
  0: 0x07EA [0x1F] MOVE_ENTITY: EventEntity moves to X=-0.832*, Z=48.360*, Y=-61.021*
  1: 0x07F2 [0x1F] MOVE_ENTITY: Update entity position (mode=1)
  2: 0x07F4 [0x6F] WAIT_FRAME_DELAY: Yield until WaitTime reaches zero
  3: 0x07F5 [0x4A] LocalPlayer looks at Star Sibyl (ID: 17768477/0x010F201D)
  4: 0x07FE [0x00] END_REQSTACK()
```

### Event 65535.87

#### Metadata

| Field        | Value    |
|--------------|----------|
| Entrypoint   | 0x07FF   |
| Data Size    | 21 bytes |
| Instructions | 5        |

```
      00 01 02 03 04 05 06 07  08 09 0A 0B 0C 0D 0E 0F
      -- -- -- -- -- -- -- --  -- -- -- -- -- -- -- --
07F0:                                               1F                 .
0800: 00 04 81 05 81 27 80 1F  01 6F 4A F0 FF FF 7F 16  .....'...oJ.....
0810: 20 0F 01 00                                        ...            
```

#### Opcodes

```
  0: 0x07FF [0x1F] MOVE_ENTITY: EventEntity moves to X=-4.202*, Z=48.045*, Y=-61.000*
  1: 0x0807 [0x1F] MOVE_ENTITY: Update entity position (mode=1)
  2: 0x0809 [0x6F] WAIT_FRAME_DELAY: Yield until WaitTime reaches zero
  3: 0x080A [0x4A] LocalPlayer looks at Semih Lafihna (ID: 17768470/0x010F2016)
  4: 0x0813 [0x00] END_REQSTACK()
```

### Event 65535.88

#### Metadata

| Field        | Value    |
|--------------|----------|
| Entrypoint   | 0x0814   |
| Data Size    | 27 bytes |
| Instructions | 5        |

```
      00 01 02 03 04 05 06 07  08 09 0A 0B 0C 0D 0E 0F
      -- -- -- -- -- -- -- --  -- -- -- -- -- -- -- --
0810:             03 05 00 07  7F 1A 10 07 0B 06 00 66      ...........f
0820: 06 00 F8 FF FF 7F F8 FF  FF 7F 70 61 73 30 00     ..........pas0. 
```

#### Opcodes

```
  0: 0x0814 [0x03] ExtData[1]->WorkLocal[5] = Entity->Race
  1: 0x0819 [0x1A] CALL_SUBROUTINE(address=0x0710)
  2: 0x081C [0x0B] ExtData[1]->WorkLocal[6]++
  3: 0x081F [0x66] LOAD_EXT_SCHEDULER_MAIN: Load scheduler "pas0" with entities [EventEntity, EventEntity], work=ExtData[1]->WorkLocal[6]
  4: 0x082E [0x00] END_REQSTACK()
```

### Event 65535.89

#### Metadata

| Field        | Value    |
|--------------|----------|
| Entrypoint   | 0x082F   |
| Data Size    | 42 bytes |
| Instructions | 6        |

```
      00 01 02 03 04 05 06 07  08 09 0A 0B 0C 0D 0E 0F
      -- -- -- -- -- -- -- --  -- -- -- -- -- -- -- --
0820:                                               03                 .
0830: 05 00 07 7F 1A EB 06 66  06 00 F8 FF FF 7F F8 FF  .......f........
0840: FF 7F 74 6C 6B 30 1C CE  80 66 06 00 F8 FF FF 7F  ..tlk0...f......
0850: F8 FF FF 7F 74 6C 6B 31  00                       ....tlk1.       
```

#### Opcodes

```
  0: 0x082F [0x03] ExtData[1]->WorkLocal[5] = Entity->Race
  1: 0x0834 [0x1A] CALL_SUBROUTINE(address=0x06EB)
  2: 0x0837 [0x66] LOAD_EXT_SCHEDULER_MAIN: Load scheduler "tlk0" with entities [EventEntity, EventEntity], work=ExtData[1]->WorkLocal[6]
  3: 0x0846 [0x1C] WAIT(60* ticks)
  4: 0x0849 [0x66] LOAD_EXT_SCHEDULER_MAIN: Load scheduler "tlk1" with entities [EventEntity, EventEntity], work=ExtData[1]->WorkLocal[6]
  5: 0x0858 [0x00] END_REQSTACK()
```

### Event 65535.90

#### Metadata

| Field        | Value    |
|--------------|----------|
| Entrypoint   | 0x0859   |
| Data Size    | 10 bytes |
| Instructions | 2        |

```
      00 01 02 03 04 05 06 07  08 09 0A 0B 0C 0D 0E 0F
      -- -- -- -- -- -- -- --  -- -- -- -- -- -- -- --
0850:                             37 06 81 07 81 08 80           7......
0860: 08 81 00                                          ...             
```

#### Opcodes

```
  0: 0x0859 [0x37] UPDATE_EVENT_POSITION_AND_DIR: x=1.524*, z=30.344*, y=0.000*, direction=272.5°*
  1: 0x0862 [0x00] END_REQSTACK()
```

### Event 65535.91

#### Metadata

| Field        | Value    |
|--------------|----------|
| Entrypoint   | 0x0863   |
| Data Size    | 10 bytes |
| Instructions | 2        |

```
      00 01 02 03 04 05 06 07  08 09 0A 0B 0C 0D 0E 0F
      -- -- -- -- -- -- -- --  -- -- -- -- -- -- -- --
0860:          37 09 81 0A 81  0B 81 0C 81 00              7.........   
```

#### Opcodes

```
  0: 0x0863 [0x37] UPDATE_EVENT_POSITION_AND_DIR: x=-0.088*, z=28.765*, y=0.499*, direction=178.4°*
  1: 0x086C [0x00] END_REQSTACK()
```

### Event 65535.92

#### Metadata

| Field        | Value    |
|--------------|----------|
| Entrypoint   | 0x086D   |
| Data Size    | 15 bytes |
| Instructions | 5        |

```
      00 01 02 03 04 05 06 07  08 09 0A 0B 0C 0D 0E 0F
      -- -- -- -- -- -- -- --  -- -- -- -- -- -- -- --
0860:                                         32 2C 80               2,.
