# Event 1037

## Metadata

| Field           | Value    |
|-----------------|----------|
| Event Index     | 3/3      |
| Offset          | 0x0016   |
| Data Size       | 62 bytes |
| Calculated Size | 62 bytes |
| Instructions    | 17       |

```
      00 01 02 03 04 05 06 07  08 09 0A 0B 0C 0D 0E 0F
      -- -- -- -- -- -- -- --  -- -- -- -- -- -- -- --
0010:                   42 29  05 F0 FF FF 7F 07 02 02        B)........
0020: 10 01 80 80 2D 00 48 02  80 23 01 4B 00 02 02 10  ....-.H..#.K....
0030: 03 80 80 3C 00 48 04 80  23 01 4B 00 02 02 10 05  ...<.H..#.K.....
0040: 80 80 4B 00 48 06 80 23  01 4B 00 29 05 F0 FF FF  ..K.H..#.K.)....
0050: 7F 08 21 00                                       ..!.            
```

## Opcodes

```
  0: 0x0016 [0x42] SET_CLI_EVENT_CANCEL_DATA()
  1: 0x0017 [0x29] REQ_SET_WAIT(priority=0x05, entity_id=LocalPlayer, tag_num=0x07)
  2: 0x001E [0x02] IF !(Work_Zone[2] == 0*) GOTO 0x002D
  3: 0x0026 [0x48] [System] [8190*]:
    → "The soil exudes a malodorous stench...\u007F1\u0000\u0007"
  4: 0x0029 [0x23] WAIT_FOR_DIALOG_INTERACTION
  5: 0x002A [0x01] GOTO 0x004B

SUBROUTINE_002D:
  6: 0x002D [0x02] IF !(Work_Zone[2] == 1*) GOTO 0x003C
  7: 0x0035 [0x48] [System] [8191*]:
    → "Foul, decaying fruit hangs from a withered branch...\u007F1\u0000\u0007"
  8: 0x0038 [0x23] WAIT_FOR_DIALOG_INTERACTION
  9: 0x0039 [0x01] GOTO 0x004B

SUBROUTINE_003C:
 10: 0x003C [0x02] IF !(Work_Zone[2] == 2*) GOTO 0x004B
 11: 0x0044 [0x48] [System] [8192*]:
    → "A thin layer of ash coats the leaves...\u007F1\u0000\u0007"
 12: 0x0047 [0x23] WAIT_FOR_DIALOG_INTERACTION
 13: 0x0048 [0x01] GOTO 0x004B

SUBROUTINE_004B:
 14: 0x004B [0x29] REQ_SET_WAIT(priority=0x05, entity_id=LocalPlayer, tag_num=0x08)
 15: 0x0052 [0x21] END_EVENT
 16: 0x0053 [0x00] END_REQSTACK()
```
