# Event 302

## Metadata

| Field           | Value    |
|-----------------|----------|
| Event Index     | 4/5      |
| Offset          | 0x0073   |
| Data Size       | 56 bytes |
| Calculated Size | 56 bytes |
| Instructions    | 10       |

```
      00 01 02 03 04 05 06 07  08 09 0A 0B 0C 0D 0E 0F
      -- -- -- -- -- -- -- --  -- -- -- -- -- -- -- --
0070:          1A E4 00 66 02  80 F8 FF FF 7F F8 FF FF     ...f.........
0080: 7F 74 68 6B 31 1D 06 80  23 66 02 80 F8 FF FF 7F  .thk1...#f......
0090: F8 FF FF 7F 74 68 6B 32  53 F8 FF FF 7F F8 FF FF  ....thk2S.......
00A0: 7F 74 68 6B 32 1D 07 80  23 21 00                 .thk2...#!.     
```

## Opcodes

```
  0: 0x0073 [0x1A] CALL_SUBROUTINE(address=0x00E4)
  1: 0x0076 [0x66] LOAD_EXT_SCHEDULER_MAIN: Load scheduler "thk1" with entities [EventEntity, EventEntity], work=49*
  2: 0x0085 [0x1D] PRINT_EVENT_MESSAGE(message_id=7514*)
    → "I thought that this might have been the work of some large groupy-woop, but when I heard that it was just one guy...boy, was I surprisey-wised!\u007F1\u0000\u0007"
  3: 0x0088 [0x23] WAIT_FOR_DIALOG_INTERACTION
  4: 0x0089 [0x66] LOAD_EXT_SCHEDULER_MAIN: Load scheduler "thk2" with entities [EventEntity, EventEntity], work=49*
  5: 0x0098 [0x53] WAIT_SCHEDULER_TASK: Wait for scheduler "thk2" with entities [EventEntity, EventEntity]
  6: 0x00A5 [0x1D] PRINT_EVENT_MESSAGE(message_id=7515*)
    → "I can understand wanting to makey-wake it big overnight, but he should have thought a little bitty-wit longer before deciding to take us on!\u007F1\u0000\u0007"
  7: 0x00A8 [0x23] WAIT_FOR_DIALOG_INTERACTION
  8: 0x00A9 [0x21] END_EVENT
  9: 0x00AA [0x00] END_REQSTACK()
```
