# Event 65535

## Metadata

| Field           | Value    |
|-----------------|----------|
| Event Index     | 58/80    |
| Offset          | 0x042E   |
| Data Size       | 62 bytes |
| Calculated Size | 62 bytes |
| Instructions    | 9        |

```
      00 01 02 03 04 05 06 07  08 09 0A 0B 0C 0D 0E 0F
      -- -- -- -- -- -- -- --  -- -- -- -- -- -- -- --
0420:                                            79 00                y.
0430: 01 40 0F 01 8F 40 0F 01  5B 5A 80 F8 FF FF 7F F8  .@...@..[Z......
0440: FF FF 7F 63 68 61 31 1C  36 80 5E 69 64 6C 30 53  ...cha1.6.^idl0S
0450: F8 FF FF 7F F8 FF FF 7F  63 68 61 31 4A 01 40 0F  ........cha1J.@.
0460: 01 8F 40 0F 01 6F 76 01  40 0F 01 00              ..@..ov.@...    
```

## Opcodes

```
  0: 0x042E [0x79] Monberaux (ID: 17776641/0x010F4001) looks at Unnamed NPC (ID: 17776783/0x010F408F) (Basic look)
  1: 0x0438 [0x5B] LOAD_EXT_SCHEDULER(work_offset=303*, entity1=EventEntity, entity2=EventEntity, action="cha1")
  2: 0x0447 [0x1C] WAIT(90* ticks)
  3: 0x044A [0x5E] EventEntity goes idle (kills current action) (animation: "idl0")
  4: 0x044F [0x53] WAIT_SCHEDULER_TASK(entity1=EventEntity, entity2=EventEntity, action_id="cha1")
  5: 0x045C [0x4A] Monberaux (ID: 17776641/0x010F4001) looks at Unnamed NPC (ID: 17776783/0x010F408F)
  6: 0x0465 [0x6F] WAIT_FRAME_DELAY: Yield until WaitTime reaches zero
  7: 0x0466 [0x76] CHECK_ENTITY_RENDER_FLAGS: Wait until Monberaux (ID: 17776641/0x010F4001) Render.Flags0 and Render.Flags3 conditions are met
  8: 0x046B [0x00] END_REQSTACK()
```
