# Event 65535

## Metadata

| Field           | Value    |
|-----------------|----------|
| Event Index     | 46/80    |
| Offset          | 0x032D   |
| Data Size       | 67 bytes |
| Calculated Size | 67 bytes |
| Instructions    | 11       |

```
      00 01 02 03 04 05 06 07  08 09 0A 0B 0C 0D 0E 0F
      -- -- -- -- -- -- -- --  -- -- -- -- -- -- -- --
0320:                                         7B F8 FF               {..
0330: FF 7F 36 00 00 01 00 02  00 39 03 00 6F 70 53 F8  ..6......9..opS.
0340: FF FF 7F F8 FF FF 7F 40  74 6C 30 53 F8 FF FF 7F  .......@tl0S....
0350: F8 FF FF 7F 40 74 72 30  5B 5A 80 F8 FF FF 7F F8  ....@tr0[Z......
0360: FF FF 7F 63 68 61 30 1C  59 80 5E 64 66 74 30 00  ...cha0.Y.^dft0.
```

## Opcodes

```
  0: 0x032D [0x7B] EventEntity stops talking
  1: 0x0332 [0x36] SET_ENTITY_EVENT_POSITION(pos_x=ExtData[1]->WorkLocal[0], pos_z=ExtData[1]->WorkLocal[1], pos_y=ExtData[1]->WorkLocal[2])
  2: 0x0339 [0x39] SET_ENTITY_DIRECTION(direction=ExtData[1]->WorkLocal[3])
  3: 0x033C [0x6F] WAIT_FRAME_DELAY: Yield until WaitTime reaches zero
  4: 0x033D [0x70] WAIT_ENTITY_RENDER_FLAG: Wait while EventEntity->Render.Flags3 bit 2 is set (cancel turn if not)
  5: 0x033E [0x53] WAIT_SCHEDULER_TASK: Wait for scheduler "@tl0" with entities [EventEntity, EventEntity]
  6: 0x034B [0x53] WAIT_SCHEDULER_TASK: Wait for scheduler "@tr0" with entities [EventEntity, EventEntity]
  7: 0x0358 [0x5B] LOAD_EXT_SCHEDULER: Load scheduler "cha0" with entities [EventEntity, EventEntity], work=303*
  8: 0x0367 [0x1C] WAIT(60* ticks)
  9: 0x036A [0x5E] EventEntity goes idle (kills current action) (animation: "dft0")
 10: 0x036F [0x00] END_REQSTACK()
```
