# Event 65535

## Metadata

| Field           | Value    |
|-----------------|----------|
| Event Index     | 5/17     |
| Offset          | 0x0040   |
| Data Size       | 58 bytes |
| Calculated Size | 58 bytes |
| Instructions    | 9        |

```
      00 01 02 03 04 05 06 07  08 09 0A 0B 0C 0D 0E 0F
      -- -- -- -- -- -- -- --  -- -- -- -- -- -- -- --
0040: 4E 00 AF 70 0E 01 1F 00  0C 80 0D 80 06 80 1F 01  N..p............
0050: 4A AF 70 0E 01 29 70 0E  01 6F 76 AF 70 0E 01 2C  J.p..)p..ov.p..,
0060: F8 FF FF 7F F8 FF FF 7F  73 68 62 6B 53 F8 FF FF  ........shbkS...
0070: 7F F8 FF FF 7F 73 68 62  6B 00                    .....shbk.      
```

## Opcodes

```
  0: 0x0040 [0x4E] SET_ENTITY_HIDE_FLAG: Show Rainemard (ID: 17723567/0x010E70AF)
  1: 0x0046 [0x1F] MOVE_ENTITY: EventEntity moves to X=112.148*, Z=104.193*, Y=0.000*
  2: 0x004E [0x1F] MOVE_ENTITY: Update entity position (mode=1)
  3: 0x0050 [0x4A] Rainemard (ID: 17723567/0x010E70AF) looks at Aurege (ID: 17723433/0x010E7029)
  4: 0x0059 [0x6F] WAIT_FRAME_DELAY: Yield until WaitTime reaches zero
  5: 0x005A [0x76] CHECK_ENTITY_RENDER_FLAGS: Wait until Rainemard (ID: 17723567/0x010E70AF) Render.Flags0 and Render.Flags3 conditions are met
  6: 0x005F [0x2C] CREATE_SCHEDULER_TASK: Create scheduler "shbk" for entities [EventEntity, EventEntity]
  7: 0x006C [0x53] WAIT_SCHEDULER_TASK(entity1=EventEntity, entity2=EventEntity, action_id="shbk")
  8: 0x0079 [0x00] END_REQSTACK()
```
