# Event 23

## Metadata

| Field           | Value    |
|-----------------|----------|
| Event Index     | 3/3      |
| Offset          | 0x008D   |
| Data Size       | 64 bytes |
| Calculated Size | 64 bytes |
| Instructions    | 14       |

```
      00 01 02 03 04 05 06 07  08 09 0A 0B 0C 0D 0E 0F
      -- -- -- -- -- -- -- --  -- -- -- -- -- -- -- --
0080:                                         42 20 01               B .
0090: 45 07 80 F0 FF FF 7F F0  FF FF 7F 66 64 6F 31 02  E..........fdo1.
00A0: 80 1C 08 80 03 02 10 09  80 48 0A 80 1C 0B 80 48  .........H.....H
00B0: 0C 80 1C 08 80 45 07 80  F0 FF FF 7F F0 FF FF 7F  .....E..........
00C0: 66 64 69 31 02 80 1C 08  80 20 00 21 00           fdi1..... .!.   
```

## Opcodes

```
  0: 0x008D [0x42] SET_CLI_EVENT_CANCEL_DATA()
  1: 0x008E [0x20] SET_CLI_EVENT_UC_FLAG: Lock player control
  2: 0x0090 [0x45] LOAD_SCHEDULED_TASK(work_offset1=200*, entity1=LocalPlayer, entity2=LocalPlayer, scheduler_id="fdo1", work_offset2=0*)
  3: 0x00A1 [0x1C] WAIT(60* ticks)
  4: 0x00A4 [0x03] Work_Zone[2] = 1165*
  5: 0x00A9 [0x48] [System] [7799*]:
    → "\u0008 dipped the \u0001\u00053\u0002\u0000\u0000\u0000 in the tranquil waters of the Fay Spring...\u0000\u0007"
  6: 0x00AC [0x1C] WAIT(180* ticks)
  7: 0x00AF [0x48] [System] [7800*]:
    → "The \u0001\u00053\u0002\u0000\u0000\u0000 now shimmers a brilliant shade of blue!\u0000\u0007"
  8: 0x00B2 [0x1C] WAIT(60* ticks)
  9: 0x00B5 [0x45] LOAD_SCHEDULED_TASK(work_offset1=200*, entity1=LocalPlayer, entity2=LocalPlayer, scheduler_id="fdi1", work_offset2=0*)
 10: 0x00C6 [0x1C] WAIT(60* ticks)
 11: 0x00C9 [0x20] SET_CLI_EVENT_UC_FLAG: Unlock player control
 12: 0x00CB [0x21] END_EVENT
 13: 0x00CC [0x00] END_REQSTACK()
```
