# Event 318

## Metadata

| Field           | Value    |
|-----------------|----------|
| Event Index     | 42/50    |
| Offset          | 0x02C8   |
| Data Size       | 49 bytes |
| Calculated Size | 49 bytes |
| Instructions    | 11       |

```
      00 01 02 03 04 05 06 07  08 09 0A 0B 0C 0D 0E 0F
      -- -- -- -- -- -- -- --  -- -- -- -- -- -- -- --
02C0:                          1E F0 FF FF 7F 1D 45 80          ......E.
02D0: 23 5B 0C 80 09 A0 01 01  09 A0 01 01 74 6C 6B 30  #[..........tlk0
02E0: 1D 46 80 23 5B 0C 80 09  A0 01 01 09 A0 01 01 74  .F.#[..........t
02F0: 6C 6B 31 1D 47 80 23 21  00                       lk1.G.#!.       
```

## Opcodes

```
  0: 0x02C8 [0x1E] EventEntity looks at LocalPlayer and starts talking
  1: 0x02CD [0x1D] PRINT_EVENT_MESSAGE(message_id=11046*)
    → "I have given up trying to hold Ulmia back.\u007F1\u0000\u0007"
  2: 0x02D0 [0x23] WAIT_FOR_DIALOG_INTERACTION
  3: 0x02D1 [0x5B] LOAD_EXT_SCHEDULER: Load scheduler "tlk0" with entities [Despachiaire (ID: 16883721/0x0101A009), Despachiaire (ID: 16883721/0x0101A009)], work=497*
  4: 0x02E0 [0x1D] PRINT_EVENT_MESSAGE(message_id=11047*)
    → "She has the right to see the world for what it is, and find the destiny that awaits her.\u007F1\u0000\u0007"
  5: 0x02E3 [0x23] WAIT_FOR_DIALOG_INTERACTION
  6: 0x02E4 [0x5B] LOAD_EXT_SCHEDULER: Load scheduler "tlk1" with entities [Despachiaire (ID: 16883721/0x0101A009), Despachiaire (ID: 16883721/0x0101A009)], work=497*
  7: 0x02F3 [0x1D] PRINT_EVENT_MESSAGE(message_id=11048*)
    → "I now realize that my duty as a grandfather is not to control her, but to watch over her as she walks her own path.\u007F1\u0000\u0007"
  8: 0x02F6 [0x23] WAIT_FOR_DIALOG_INTERACTION
  9: 0x02F7 [0x21] END_EVENT
 10: 0x02F8 [0x00] END_REQSTACK()
```
