# Event 193

## Metadata

| Field           | Value    |
|-----------------|----------|
| Event Index     | 121/194  |
| Offset          | 0x1A32   |
| Data Size       | 33 bytes |
| Calculated Size | 33 bytes |
| Instructions    | 12       |

```
      00 01 02 03 04 05 06 07  08 09 0A 0B 0C 0D 0E 0F
      -- -- -- -- -- -- -- --  -- -- -- -- -- -- -- --
1A30:       1E F0 FF FF 7F 6F  70 29 08 13 20 0F 01 01    .....op).. ...
1A40: 1D 9B 80 23 1D 9C 80 23  29 08 13 20 0F 01 36 20  ...#...#).. ..6 
1A50: 00 21 00                                          .!.             
```

## Opcodes

```
  0: 0x1A32 [0x1E] EventEntity looks at LocalPlayer and starts talking
  1: 0x1A37 [0x6F] WAIT_FRAME_DELAY: Yield until WaitTime reaches zero
  2: 0x1A38 [0x70] WAIT_ENTITY_RENDER_FLAG: Wait while EventEntity->Render.Flags3 bit 2 is set (cancel turn if not)
  3: 0x1A39 [0x29] REQ_SET_WAIT(priority=0x08, entity_id=Kupipi (ID: 17768467/0x010F2013), tag_num=0x01)
  4: 0x1A40 [0x1D] PRINT_EVENT_MESSAGE(message_id=434*)
    → "To get to the Star Sibyl's chambers, you must pass through the Planetarium and enter through the door in the back.\u007F1\u0000\u0007"
  5: 0x1A43 [0x23] WAIT_FOR_DIALOG_INTERACTION
  6: 0x1A44 [0x1D] PRINT_EVENT_MESSAGE(message_id=435*)
    → "I never thought that yo\u0001`u would ever accept such a da\u0001`ngerous mission. Kupipi's pretty impressed!\u007F1\u0000\u0007"
  7: 0x1A47 [0x23] WAIT_FOR_DIALOG_INTERACTION
  8: 0x1A48 [0x29] REQ_SET_WAIT(priority=0x08, entity_id=Kupipi (ID: 17768467/0x010F2013), tag_num=0x36)
  9: 0x1A4F [0x20] SET_CLI_EVENT_UC_FLAG: Unlock player control
 10: 0x1A51 [0x21] END_EVENT
 11: 0x1A52 [0x00] END_REQSTACK()
```
