# Event 240

## Metadata

| Field           | Value    |
|-----------------|----------|
| Event Index     | 84/194   |
| Offset          | 0x12B5   |
| Data Size       | 33 bytes |
| Calculated Size | 33 bytes |
| Instructions    | 12       |

```
      00 01 02 03 04 05 06 07  08 09 0A 0B 0C 0D 0E 0F
      -- -- -- -- -- -- -- --  -- -- -- -- -- -- -- --
12B0:                1E F0 FF  FF 7F 6F 70 29 08 13 20       .....op).. 
12C0: 0F 01 01 1D 66 80 23 1D  67 80 23 29 08 13 20 0F  ....f.#.g.#).. .
12D0: 01 36 20 00 21 00                                 .6 .!.          
```

## Opcodes

```
  0: 0x12B5 [0x1E] EventEntity looks at LocalPlayer and starts talking
  1: 0x12BA [0x6F] WAIT_FRAME_DELAY: Yield until WaitTime reaches zero
  2: 0x12BB [0x70] WAIT_ENTITY_RENDER_FLAG: Wait while EventEntity->Render.Flags3 bit 2 is set (cancel turn if not)
  3: 0x12BC [0x29] REQ_SET_WAIT(priority=0x08, entity_id=Kupipi (ID: 17768467/0x010F2013), tag_num=0x01)
  4: 0x12C3 [0x1D] PRINT_EVENT_MESSAGE(message_id=532*)
    → "It makes Kupipi s\u0001`o sad to have to ask adventurers from other countries to do a task that should be done by Windurstians.\u007F1\u0000\u0007"
  5: 0x12C6 [0x23] WAIT_FOR_DIALOG_INTERACTION
  6: 0x12C7 [0x1D] PRINT_EVENT_MESSAGE(message_id=533*)
    → "But doing this helps maintain peace in Windurst, so I ask you kindly to shut your eyes to any doubts you have concerning this mission. Now take this item to the treasure chamber in Giddeus and hurry back...in one piece!\u007F1\u0000\u0007"
  7: 0x12CA [0x23] WAIT_FOR_DIALOG_INTERACTION
  8: 0x12CB [0x29] REQ_SET_WAIT(priority=0x08, entity_id=Kupipi (ID: 17768467/0x010F2013), tag_num=0x36)
  9: 0x12D2 [0x20] SET_CLI_EVENT_UC_FLAG: Unlock player control
 10: 0x12D4 [0x21] END_EVENT
 11: 0x12D5 [0x00] END_REQSTACK()
```
