# Event 254

## Metadata

| Field           | Value    |
|-----------------|----------|
| Event Index     | 57/194   |
| Offset          | 0x0389   |
| Data Size       | 33 bytes |
| Calculated Size | 33 bytes |
| Instructions    | 12       |

```
      00 01 02 03 04 05 06 07  08 09 0A 0B 0C 0D 0E 0F
      -- -- -- -- -- -- -- --  -- -- -- -- -- -- -- --
0380:                             1E F0 FF FF 7F 6F 70           .....op
0390: 29 08 13 20 0F 01 01 1D  09 80 23 1D 0A 80 23 29  ).. ......#...#)
03A0: 08 13 20 0F 01 36 20 00  21 00                    .. ..6 .!.      
```

## Opcodes

```
  0: 0x0389 [0x1E] EventEntity looks at LocalPlayer and starts talking
  1: 0x038E [0x6F] WAIT_FRAME_DELAY: Yield until WaitTime reaches zero
  2: 0x038F [0x70] WAIT_ENTITY_RENDER_FLAG: Wait while EventEntity->Render.Flags3 bit 2 is set (cancel turn if not)
  3: 0x0390 [0x29] REQ_SET_WAIT(priority=0x08, entity_id=Kupipi (ID: 17768467/0x010F2013), tag_num=0x01)
  4: 0x0397 [0x1D] PRINT_EVENT_MESSAGE(message_id=566*)
    → "You can't take up tw\u0001`o missions at once.\u007F1\u0000\u0007"
  5: 0x039A [0x23] WAIT_FOR_DIALOG_INTERACTION
  6: 0x039B [0x1D] PRINT_EVENT_MESSAGE(message_id=567*)
    → "Come back when you have finished the one you are currently working on.\u007F1\u0000\u0007"
  7: 0x039E [0x23] WAIT_FOR_DIALOG_INTERACTION
  8: 0x039F [0x29] REQ_SET_WAIT(priority=0x08, entity_id=Kupipi (ID: 17768467/0x010F2013), tag_num=0x36)
  9: 0x03A6 [0x20] SET_CLI_EVENT_UC_FLAG: Unlock player control
 10: 0x03A8 [0x21] END_EVENT
 11: 0x03A9 [0x00] END_REQSTACK()
```
