# Event 311

## Metadata

| Field           | Value    |
|-----------------|----------|
| Event Index     | 126/194  |
| Offset          | 0x1B38   |
| Data Size       | 33 bytes |
| Calculated Size | 33 bytes |
| Instructions    | 12       |

```
      00 01 02 03 04 05 06 07  08 09 0A 0B 0C 0D 0E 0F
      -- -- -- -- -- -- -- --  -- -- -- -- -- -- -- --
1B30:                          1E F0 FF FF 7F 6F 70 29          .....op)
1B40: 08 13 20 0F 01 0B 1D A8  80 23 1D A9 80 23 29 08  .. ......#...#).
1B50: 13 20 0F 01 0C 20 00 21  00                       . ... .!.       
```

## Opcodes

```
  0: 0x1B38 [0x1E] EventEntity looks at LocalPlayer and starts talking
  1: 0x1B3D [0x6F] WAIT_FRAME_DELAY: Yield until WaitTime reaches zero
  2: 0x1B3E [0x70] WAIT_ENTITY_RENDER_FLAG: Wait while EventEntity->Render.Flags3 bit 2 is set (cancel turn if not)
  3: 0x1B3F [0x29] REQ_SET_WAIT(priority=0x08, entity_id=Kupipi (ID: 17768467/0x010F2013), tag_num=0x0B)
  4: 0x1B46 [0x1D] PRINT_EVENT_MESSAGE(message_id=8185*)
    → "...... <sniff>\u0007I just can't hold back the tears. <sob>\u007F1\u0000\u0007"
  5: 0x1B49 [0x23] WAIT_FOR_DIALOG_INTERACTION
  6: 0x1B4A [0x1D] PRINT_EVENT_MESSAGE(message_id=8186*)
    → "I don't know how to say this any other way.\u0007...Plea\u0001`se come back to us alive.\u007F1\u0000\u0007"
  7: 0x1B4D [0x23] WAIT_FOR_DIALOG_INTERACTION
  8: 0x1B4E [0x29] REQ_SET_WAIT(priority=0x08, entity_id=Kupipi (ID: 17768467/0x010F2013), tag_num=0x0C)
  9: 0x1B55 [0x20] SET_CLI_EVENT_UC_FLAG: Unlock player control
 10: 0x1B57 [0x21] END_EVENT
 11: 0x1B58 [0x00] END_REQSTACK()
```
