# Event 65535

## Metadata

| Field           | Value    |
|-----------------|----------|
| Event Index     | 56/194   |
| Offset          | 0x036B   |
| Data Size       | 30 bytes |
| Calculated Size | 30 bytes |
| Instructions    | 9        |

```
      00 01 02 03 04 05 06 07  08 09 0A 0B 0C 0D 0E 0F
      -- -- -- -- -- -- -- --  -- -- -- -- -- -- -- --
0360:                                   02 01 00 07 80             .....
0370: 00 88 03 1E F0 FF FF 7F  6F 70 1C 08 80 1E 16 20  ........op..... 
0380: 0F 01 1C 08 80 01 6B 03  00                       ......k..       
```

## Opcodes

```
  0: 0x036B [0x02] IF !(ExtData[1]->WorkLocal[1] == 1*) GOTO 0x0388
  1: 0x0373 [0x1E] EventEntity looks at LocalPlayer and starts talking
  2: 0x0378 [0x6F] WAIT_FRAME_DELAY: Yield until WaitTime reaches zero
  3: 0x0379 [0x70] WAIT_ENTITY_RENDER_FLAG: Wait while EventEntity->Render.Flags3 bit 2 is set (cancel turn if not)
  4: 0x037A [0x1C] WAIT(100* ticks)
  5: 0x037D [0x1E] EventEntity looks at Semih Lafihna (ID: 17768470/0x010F2016) and starts talking
  6: 0x0382 [0x1C] WAIT(100* ticks)
  7: 0x0385 [0x01] GOTO 0x036B

SUBROUTINE_0388:
  8: 0x0388 [0x00] END_REQSTACK()
```
