# Event 10110

## Metadata

| Field           | Value    |
|-----------------|----------|
| Event Index     | 5/7      |
| Offset          | 0x0212   |
| Data Size       | 64 bytes |
| Calculated Size | 64 bytes |
| Instructions    | 10       |

```
      00 01 02 03 04 05 06 07  08 09 0A 0B 0C 0D 0E 0F
      -- -- -- -- -- -- -- --  -- -- -- -- -- -- -- --
0210:       1E F0 FF FF 7F 1D  21 80 23 24 01 80 02 80    ......!.#$....
0220: 02 80 25 02 00 10 02 80  00 34 02 1A 89 04 01 1B  ..%......4......
0230: 02 01 50 02 02 00 10 03  80 00 45 02 1A 9E 04 01  ..P.......E.....
0240: 1B 02 01 50 02 02 00 10  04 80 00 50 02 01 50 02  ...P.......P..P.
0250: 21 00                                             !.              
```

## Opcodes

```
  0: 0x0212 [0x1E] EventEntity looks at LocalPlayer and starts talking
  1: 0x0217 [0x1D] PRINT_EVENT_MESSAGE(message_id=14325*)
    → "Oh no! What a shame, kupo!\u0007The mog tablets that were recovered have been scattered to the ends of Vana'diel once more...\u007F1\u0000\u0007"
  2: 0x021A [0x23] WAIT_FOR_DIALOG_INTERACTION
  3: 0x021B [0x24] CREATE_DIALOG(message_id=14328*, default_option=0*, option_flags=0*)
    → "Ask about something?\u0007\u000BWhat's a mog tablet?\u0007The history of mog tablets.\u0007Nothing.\u007F1\u0000\u0007"
  4: 0x0222 [0x25] WAIT_DIALOG_SELECT()
  5: 0x0223 [0x02] IF !(Work_Zone[0] == 0*) GOTO 0x0234
  6: 0x022B [0x1A] CALL_SUBROUTINE(address=0x0489)
  7: 0x022E [0x01] GOTO 0x021B

SUBROUTINE_0250:
  8: 0x0250 [0x21] END_EVENT
  9: 0x0251 [0x00] END_REQSTACK()
```

## Data or dead code:

```
# Dead code (unreachable instructions):
     0x0231 [0x01] GOTO 0x0250
     0x0242 [0x01] GOTO 0x0250
```