# Event 141

## Metadata

| Field           | Value    |
|-----------------|----------|
| Event Index     | 3/6      |
| Offset          | 0x0037   |
| Data Size       | 54 bytes |
| Calculated Size | 54 bytes |
| Instructions    | 8        |

```
      00 01 02 03 04 05 06 07  08 09 0A 0B 0C 0D 0E 0F
      -- -- -- -- -- -- -- --  -- -- -- -- -- -- -- --
0030:                      20  01 79 00 35 20 03 01 F0          .y.5 ...
0040: FF FF 7F 66 00 80 35 20  03 01 35 20 03 01 74 6C  ...f..5 ..5 ..tl
0050: 62 30 1D 02 80 23 66 00  80 35 20 03 01 35 20 03  b0...#f..5 ..5 .
0060: 01 74 6C 62 31 27 01 35  20 03 01 03 00           .tlb1'.5 ....   
```

## Opcodes

```
  0: 0x0037 [0x20] SET_CLI_EVENT_UC_FLAG: Lock player control
  1: 0x0039 [0x79] Sharin-Garin (ID: 16982069/0x01032035) looks at LocalPlayer (Basic look)
  2: 0x0043 [0x66] LOAD_EXT_SCHEDULER_MAIN(work_offset=34*, entity1=Sharin-Garin (ID: 16982069/0x01032035), entity2=Sharin-Garin (ID: 16982069/0x01032035), action="tlb0")
  3: 0x0052 [0x1D] PRINT_EVENT_MESSAGE(message_id=4643*)
    → "Is there anything else you wanted to ask?\u007F1\u0000\u0007"
  4: 0x0055 [0x23] WAIT_FOR_DIALOG_INTERACTION
  5: 0x0056 [0x66] LOAD_EXT_SCHEDULER_MAIN(work_offset=34*, entity1=Sharin-Garin (ID: 16982069/0x01032035), entity2=Sharin-Garin (ID: 16982069/0x01032035), action="tlb1")
  6: 0x0065 [0x27] REQ_SET(priority=0x01, entity_id=Sharin-Garin (ID: 16982069/0x01032035), tag_num=0x03)
  7: 0x006C [0x00] END_REQSTACK()
```
