# Event 65535

## Metadata

| Field           | Value    |
|-----------------|----------|
| Event Index     | 6/6      |
| Offset          | 0x0406   |
| Data Size       | 75 bytes |
| Calculated Size | 75 bytes |
| Instructions    | 11       |

```
      00 01 02 03 04 05 06 07  08 09 0A 0B 0C 0D 0E 0F
      -- -- -- -- -- -- -- --  -- -- -- -- -- -- -- --
0400:                   1E 30  21 03 01 1C 27 80 66 0D        .0!...'.f.
0410: 80 F8 FF FF 7F F8 FF FF  7F 74 6C 6B 30 1C 28 80  .........tlk0.(.
0420: 66 0D 80 F8 FF FF 7F F8  FF FF 7F 74 6C 6B 31 6E  f..........tlk1n
0430: 30 21 03 01 04 80 99 30  21 03 01 1C 12 80 66 29  0!.....0!.....f)
0440: 80 F8 FF FF 7F F8 FF FF  7F 62 69 6B 30 1C 12 80  .........bik0...
0450: 00                                                .               
```

## Opcodes

```
  0: 0x0406 [0x1E] EventEntity looks at Bashraf (ID: 16982320/0x01032130) and starts talking
  1: 0x040B [0x1C] WAIT(30* ticks)
  2: 0x040E [0x66] LOAD_EXT_SCHEDULER_MAIN(work_offset=40*, entity1=EventEntity, entity2=EventEntity, action="tlk0")
  3: 0x041D [0x1C] WAIT(120* ticks)
  4: 0x0420 [0x66] LOAD_EXT_SCHEDULER_MAIN(work_offset=40*, entity1=EventEntity, entity2=EventEntity, action="tlk1")
  5: 0x042F [0x6E] Bashraf (ID: 16982320/0x01032130) uses emote 0*
  6: 0x0436 [0x99] Wait for Bashraf (ID: 16982320/0x01032130) animation to complete
  7: 0x043B [0x1C] WAIT(60* ticks)
  8: 0x043E [0x66] LOAD_EXT_SCHEDULER_MAIN(work_offset=42*, entity1=EventEntity, entity2=EventEntity, action="bik0")
  9: 0x044D [0x1C] WAIT(60* ticks)
 10: 0x0450 [0x00] END_REQSTACK()
```
