# Event 65535

## Metadata

| Field           | Value     |
|-----------------|-----------|
| Event Index     | 36/58     |
| Offset          | 0x0B03    |
| Data Size       | 155 bytes |
| Calculated Size | 155 bytes |
| Instructions    | 4         |

```
      00 01 02 03 04 05 06 07  08 09 0A 0B 0C 0D 0E 0F
      -- -- -- -- -- -- -- --  -- -- -- -- -- -- -- --
0B00:          AC 01 02 80 AB  04 00 03 02 00 01 00 02     .............
0B10: 02 00 AE 80 05 1F 0B 08  02 00 08 80 01 24 0B 08  .............$..
0B20: 02 00 AF 80 14 02 00 0F  80 07 02 00 3C 80 1B 03  ............<...
0B30: 02 00 01 00 02 02 00 AE  80 05 44 0B 08 02 00 08  ..........D.....
0B40: 80 01 49 0B 08 02 00 AF  80 14 02 00 0F 80 07 02  ..I.............
0B50: 00 B0 80 1B 03 02 00 01  00 02 02 00 AE 80 05 69  ...............i
0B60: 0B 08 02 00 08 80 01 6E  0B 08 02 00 AF 80 14 02  .......n........
0B70: 00 0F 80 07 02 00 B1 80  1B 03 02 00 01 00 02 02  ................
0B80: 00 AE 80 05 8E 0B 08 02  00 08 80 01 93 0B 08 02  ................
0B90: 00 AF 80 14 02 00 0F 80  07 02 00 B2 80 1B        ..............  
```

## Opcodes

```
  0: 0x0B03 [0xAC] EventEntity->StatusEvent = 0*
  1: 0x0B07 [0xAB] EventEntity->Render.Flags0 |= 0x40000 // Set bit 18
  2: 0x0B09 [0x00] END_REQSTACK()
```

## Data or dead code:

```
# Data Section: 0x0B0A (148 bytes)
     0x0B0A: 03 02 00 01 00 02 02 00 AE 80 05 1F 0B 08 02 00
     0x0B1A: 08 80 01 24 0B 08 02 00 AF 80 14 02 00 0F 80 07
     0x0B2A: 02 00 3C 80 1B 03 02 00 01 00 02 02 00 AE 80 05
     0x0B3A: 44 0B 08 02 00 08 80 01 49 0B 08 02 00 AF 80 14
     0x0B4A: 02 00 0F 80 07 02 00 B0 80 1B 03 02 00 01 00 02
     0x0B5A: 02 00 AE 80 05 69 0B 08 02 00 08 80 01 6E 0B 08
     0x0B6A: 02 00 AF 80 14 02 00 0F 80 07 02 00 B1 80 1B 03
     0x0B7A: 02 00 01 00 02 02 00 AE 80 05 8E 0B 08 02 00 08
     0x0B8A: 80 01 93 0B 08 02 00 AF 80 14 02 00 0F 80 07 02
     0x0B9A: 00 B2 80 1B
```