# Event 65535

## Metadata

| Field           | Value    |
|-----------------|----------|
| Event Index     | 56/58    |
| Offset          | 0x0D1F   |
| Data Size       | 65 bytes |
| Calculated Size | 65 bytes |
| Instructions    | 8        |

```
      00 01 02 03 04 05 06 07  08 09 0A 0B 0C 0D 0E 0F
      -- -- -- -- -- -- -- --  -- -- -- -- -- -- -- --
0D10:                                               D0                 .
0D20: CC 80 F0 FF FF 7F F0 FF  FF 7F 6D 61 69 6E 02 80  ..........main..
0D30: 1C 18 80 92 01 F0 FF FF  7F 1C 0C 80 45 50 80 F0  ............EP..
0D40: FF FF 7F F0 FF FF 7F 77  68 6F 31 02 80 55 50 80  .......who1..UP.
0D50: F0 FF FF 7F F0 FF FF 7F  77 68 6F 31 1C 18 80 00  ........who1....
```

## Opcodes

```
  0: 0x0D1F [0xD0] LOAD_SCHEDULED_TASK_ALT5: Load scheduler "main" with entities [LocalPlayer, LocalPlayer], work=[123*, 0*]
  1: 0x0D30 [0x1C] WAIT(60* ticks)
  2: 0x0D33 [0x92] LocalPlayer->Render.Flags3 ^= 0x01
  3: 0x0D39 [0x1C] WAIT(120* ticks)
  4: 0x0D3C [0x45] LOAD_SCHEDULED_TASK: Load scheduler "who1" with entities [LocalPlayer, LocalPlayer], work=[201*, 0*]
  5: 0x0D4D [0x55] WAIT_LOAD_SCHEDULER: Wait for scheduler "who1" with entities [LocalPlayer, LocalPlayer], work=201*
  6: 0x0D5C [0x1C] WAIT(60* ticks)
  7: 0x0D5F [0x00] END_REQSTACK()
```
