# Event 65535

## Metadata

| Field           | Value     |
|-----------------|-----------|
| Event Index     | 36/58     |
| Offset          | 0x0B03    |
| Data Size       | 155 bytes |
| Calculated Size | 155 bytes |
| Instructions    | 3         |

```
      00 01 02 03 04 05 06 07  08 09 0A 0B 0C 0D 0E 0F
      -- -- -- -- -- -- -- --  -- -- -- -- -- -- -- --
0B00:          AC 01 02 80 AB  04 00 03 02 00 01 00 02     .............
0B10: 02 00 AE 80 05 1F 0B 08  02 00 08 80 01 24 0B 08  .............$..
0B20: 02 00 AF 80 14 02 00 0F  80 07 02 00 3C 80 1B 03  ............<...
0B30: 02 00 01 00 02 02 00 AE  80 05 44 0B 08 02 00 08  ..........D.....
0B40: 80 01 49 0B 08 02 00 AF  80 14 02 00 0F 80 07 02  ..I.............
0B50: 00 B0 80 1B 03 02 00 01  00 02 02 00 AE 80 05 69  ...............i
0B60: 0B 08 02 00 08 80 01 6E  0B 08 02 00 AF 80 14 02  .......n........
0B70: 00 0F 80 07 02 00 B1 80  1B 03 02 00 01 00 02 02  ................
0B80: 00 AE 80 05 8E 0B 08 02  00 08 80 01 93 0B 08 02  ................
0B90: 00 AF 80 14 02 00 0F 80  07 02 00 B2 80 1B        ..............  
```

## Opcodes

```
  0: 0x0B03 [0xAC] EventEntity->StatusEvent = 0*
  1: 0x0B07 [0xAB] EventEntity->Render.Flags0 |= 0x40000 // Set bit 18
  2: 0x0B09 [0x00] END_REQSTACK()
```

## Data or dead code:

```
# Dead code (unreachable instructions):
     0x0B0A [0x03] ExtData[1]->WorkLocal[2] = ExtData[1]->WorkLocal[1]
     0x0B0F [0x02] IF !(ExtData[1]->WorkLocal[2] > 5*) GOTO 0x0B1F
     0x0B17 [0x08] ExtData[1]->WorkLocal[2] -= 1*
     0x0B1C [0x01] GOTO 0x0B24
     0x0B1F [0x08] ExtData[1]->WorkLocal[2] -= 2*
     0x0B24 [0x14] ExtData[1]->WorkLocal[2] *= 10*
     0x0B29 [0x07] ExtData[1]->WorkLocal[2] += 9*
     0x0B2E [0x1B] RETURN
     0x0B2F [0x03] ExtData[1]->WorkLocal[2] = ExtData[1]->WorkLocal[1]
     0x0B34 [0x02] IF !(ExtData[1]->WorkLocal[2] > 5*) GOTO 0x0B44
     0x0B3C [0x08] ExtData[1]->WorkLocal[2] -= 1*
     0x0B41 [0x01] GOTO 0x0B49
     0x0B44 [0x08] ExtData[1]->WorkLocal[2] -= 2*
     0x0B49 [0x14] ExtData[1]->WorkLocal[2] *= 10*
     0x0B4E [0x07] ExtData[1]->WorkLocal[2] += 70*
     0x0B53 [0x1B] RETURN
     0x0B54 [0x03] ExtData[1]->WorkLocal[2] = ExtData[1]->WorkLocal[1]
     0x0B59 [0x02] IF !(ExtData[1]->WorkLocal[2] > 5*) GOTO 0x0B69
     0x0B61 [0x08] ExtData[1]->WorkLocal[2] -= 1*
     0x0B66 [0x01] GOTO 0x0B6E
     0x0B69 [0x08] ExtData[1]->WorkLocal[2] -= 2*
     0x0B6E [0x14] ExtData[1]->WorkLocal[2] *= 10*
     0x0B73 [0x07] ExtData[1]->WorkLocal[2] += 140*
     0x0B78 [0x1B] RETURN
     0x0B79 [0x03] ExtData[1]->WorkLocal[2] = ExtData[1]->WorkLocal[1]
     0x0B7E [0x02] IF !(ExtData[1]->WorkLocal[2] > 5*) GOTO 0x0B8E
     0x0B86 [0x08] ExtData[1]->WorkLocal[2] -= 1*
     0x0B8B [0x01] GOTO 0x0B93
     0x0B8E [0x08] ExtData[1]->WorkLocal[2] -= 2*
     0x0B93 [0x14] ExtData[1]->WorkLocal[2] *= 10*
     0x0B98 [0x07] ExtData[1]->WorkLocal[2] += 210*
     0x0B9D [0x1B] RETURN
```