# Event 65535

## Metadata

| Field           | Value    |
|-----------------|----------|
| Event Index     | 4/4      |
| Offset          | 0x000C   |
| Data Size       | 37 bytes |
| Calculated Size | 37 bytes |
| Instructions    | 8        |

```
      00 01 02 03 04 05 06 07  08 09 0A 0B 0C 0D 0E 0F
      -- -- -- -- -- -- -- --  -- -- -- -- -- -- -- --
0000:                                      4E 00 86 A0              N...
0010: 01 01 37 02 80 03 80 04  80 05 80 32 06 80 1F 00  ..7........2....
0020: 07 80 08 80 04 80 1F 01  1C 09 80 1E 80 A0 01 01  ................
0030: 00                                                .               
```

## Opcodes

```
  0: 0x000C [0x4E] SET_ENTITY_HIDE_FLAG: Show Alsha (ID: 16883846/0x0101A086)
  1: 0x0012 [0x37] UPDATE_EVENT_POSITION_AND_DIR: x=93.175*, z=51.894*, y=-41.000*, direction=353.2°*
  2: 0x001B [0x32] ExtData[1]->MainSpeed = 13* * 0.1
  3: 0x001E [0x1F] MOVE_ENTITY: EventEntity moves to X=95.538*, Z=53.975*, Y=-41.000*
  4: 0x0026 [0x1F] MOVE_ENTITY: Update entity position (mode=1)
  5: 0x0028 [0x1C] WAIT(30* ticks)
  6: 0x002B [0x1E] EventEntity looks at Enaremand (ID: 16883840/0x0101A080) and starts talking
  7: 0x0030 [0x00] END_REQSTACK()
```
