# Event 35

## Metadata

| Field           | Value    |
|-----------------|----------|
| Event Index     | 7/11     |
| Offset          | 0x1CAE   |
| Data Size       | 47 bytes |
| Calculated Size | 47 bytes |
| Instructions    | 10       |

```
      00 01 02 03 04 05 06 07  08 09 0A 0B 0C 0D 0E 0F
      -- -- -- -- -- -- -- --  -- -- -- -- -- -- -- --
1CA0:                                            42 4E                BN
1CB0: 00 F0 FF FF 7F 80 F0 FF  FF 7F 45 02 80 F8 FF FF  ..........E.....
1CC0: 7F F8 FF FF 7F 66 64 69  31 00 80 03 03 10 00 80  .....fdi1.......
1CD0: 48 A4 80 03 03 10 1E 80  48 A4 80 21 00           H.......H..!.   
```

## Opcodes

```
  0: 0x1CAE [0x42] SET_CLI_EVENT_CANCEL_DATA()
  1: 0x1CAF [0x4E] SET_ENTITY_HIDE_FLAG: Show LocalPlayer
  2: 0x1CB5 [0x80] LOAD_WAIT(entity=LocalPlayer)
  3: 0x1CBA [0x45] LOAD_SCHEDULED_TASK: Load scheduler "fdi1" with entities [EventEntity, EventEntity], work=[200*, 0*]
  4: 0x1CCB [0x03] Work_Zone[3] = 0*
  5: 0x1CD0 [0x48] [System] [7049*]:
    → "\u001F
You are unable to make further progress in Rhapsodies of Vana'diel due to an event occurring in the quest \u000C\u0001[Champion of the Dawn/A Forbidden Reunion].\u0000\u0007"
  6: 0x1CD3 [0x03] Work_Zone[3] = 1*
  7: 0x1CD8 [0x48] [System] [7049*]:
    → "\u001F
You are unable to make further progress in Rhapsodies of Vana'diel due to an event occurring in the quest \u000C\u0001[Champion of the Dawn/A Forbidden Reunion].\u0000\u0007"
  8: 0x1CDB [0x21] END_EVENT
  9: 0x1CDC [0x00] END_REQSTACK()
```
