# Event 491

## Metadata

| Field           | Value    |
|-----------------|----------|
| Event Index     | 17/23    |
| Offset          | 0x01E9   |
| Data Size       | 36 bytes |
| Calculated Size | 36 bytes |
| Instructions    | 13       |

```
      00 01 02 03 04 05 06 07  08 09 0A 0B 0C 0D 0E 0F
      -- -- -- -- -- -- -- --  -- -- -- -- -- -- -- --
01E0:                             1E F0 FF FF 7F 6F 70           .....op
01F0: 29 08 B5 10 0F 01 01 1D  11 80 23 1D 12 80 23 29  ).........#...#)
0200: 08 B5 10 0F 01 02 1A 26  03 20 00 21 00           .......&. .!.   
```

## Opcodes

```
  0: 0x01E9 [0x1E] EventEntity looks at LocalPlayer and starts talking
  1: 0x01EE [0x6F] WAIT_FRAME_DELAY: Yield until WaitTime reaches zero
  2: 0x01EF [0x70] WAIT_ENTITY_RENDER_FLAG: Wait while EventEntity->Render.Flags3 bit 2 is set (cancel turn if not)
  3: 0x01F0 [0x29] REQ_SET_WAIT(priority=0x08, entity_id=Gioh Ajihri (ID: 17764533/0x010F10B5), tag_num=0x01)
  4: 0x01F7 [0x1D] PRINT_EVENT_MESSAGE(message_id=8731*)
    → "Deep in the Meriphataud Mountains, there is a bastion of the Yagudo called Castle Oztroja. It is a place where terrific wars were fought.\u007F1\u0000\u0007"
  5: 0x01FA [0x23] WAIT_FOR_DIALOG_INTERACTION
  6: 0x01FB [0x1D] PRINT_EVENT_MESSAGE(message_id=8732*)
    → "Innumerable Mithran fighters were felled there. This \u0001\u0005#\u0002\u0001\u0000\u0000 belonged to one of those fallen warriors.\u007F1\u0000\u0007"
  7: 0x01FE [0x23] WAIT_FOR_DIALOG_INTERACTION
  8: 0x01FF [0x29] REQ_SET_WAIT(priority=0x08, entity_id=Gioh Ajihri (ID: 17764533/0x010F10B5), tag_num=0x02)
  9: 0x0206 [0x1A] CALL_SUBROUTINE(address=0x0326)
 10: 0x0209 [0x20] SET_CLI_EVENT_UC_FLAG: Unlock player control
 11: 0x020B [0x21] END_EVENT
 12: 0x020C [0x00] END_REQSTACK()
```
