# Event 493

## Metadata

| Field           | Value    |
|-----------------|----------|
| Event Index     | 18/23    |
| Offset          | 0x020D   |
| Data Size       | 33 bytes |
| Calculated Size | 33 bytes |
| Instructions    | 12       |

```
      00 01 02 03 04 05 06 07  08 09 0A 0B 0C 0D 0E 0F
      -- -- -- -- -- -- -- --  -- -- -- -- -- -- -- --
0200:                                         1E F0 FF               ...
0210: FF 7F 6F 70 29 08 B5 10  0F 01 01 1D 13 80 23 1D  ..op).........#.
0220: 14 80 23 29 08 B5 10 0F  01 02 20 00 21 00        ..#)...... .!.  
```

## Opcodes

```
  0: 0x020D [0x1E] EventEntity looks at LocalPlayer and starts talking
  1: 0x0212 [0x6F] WAIT_FRAME_DELAY: Yield until WaitTime reaches zero
  2: 0x0213 [0x70] WAIT_ENTITY_RENDER_FLAG: Wait while EventEntity->Render.Flags3 bit 2 is set (cancel turn if not)
  3: 0x0214 [0x29] REQ_SET_WAIT(priority=0x08, entity_id=Gioh Ajihri (ID: 17764533/0x010F10B5), tag_num=0x01)
  4: 0x021B [0x1D] PRINT_EVENT_MESSAGE(message_id=8736*)
    → "Hello again, adventurer.\u0007May I again make the same rrrequest as I did before.? I'd like you to search for \u0001\u0005%\u0002\u0001\u0000\u0000 in the Meriphataud Mountains.\u007F1\u0000\u0007"
  5: 0x021E [0x23] WAIT_FOR_DIALOG_INTERACTION
  6: 0x021F [0x1D] PRINT_EVENT_MESSAGE(message_id=8737*)
    → "I'll pay a good price for any that you find. Once you find one, please bring it back to me as promptly as you can.\u007F1\u0000\u0007"
  7: 0x0222 [0x23] WAIT_FOR_DIALOG_INTERACTION
  8: 0x0223 [0x29] REQ_SET_WAIT(priority=0x08, entity_id=Gioh Ajihri (ID: 17764533/0x010F10B5), tag_num=0x02)
  9: 0x022A [0x20] SET_CLI_EVENT_UC_FLAG: Unlock player control
 10: 0x022C [0x21] END_EVENT
 11: 0x022D [0x00] END_REQSTACK()
```
