# Event 552

## Metadata

| Field           | Value    |
|-----------------|----------|
| Event Index     | 21/23    |
| Offset          | 0x02B6   |
| Data Size       | 32 bytes |
| Calculated Size | 32 bytes |
| Instructions    | 11       |

```
      00 01 02 03 04 05 06 07  08 09 0A 0B 0C 0D 0E 0F
      -- -- -- -- -- -- -- --  -- -- -- -- -- -- -- --
02B0:                   1E F0  FF FF 7F 6F 70 29 08 B5        .....op)..
02C0: 10 0F 01 01 1D 20 80 23  29 08 B5 10 0F 01 02 1A  ..... .#).......
02D0: 26 03 20 00 21 00                                 &. .!.          
```

## Opcodes

```
  0: 0x02B6 [0x1E] EventEntity looks at LocalPlayer and starts talking
  1: 0x02BB [0x6F] WAIT_FRAME_DELAY: Yield until WaitTime reaches zero
  2: 0x02BC [0x70] WAIT_ENTITY_RENDER_FLAG: Wait while EventEntity->Render.Flags3 bit 2 is set (cancel turn if not)
  3: 0x02BD [0x29] REQ_SET_WAIT(priority=0x08, entity_id=Gioh Ajihri (ID: 17764533/0x010F10B5), tag_num=0x01)
  4: 0x02C4 [0x1D] PRINT_EVENT_MESSAGE(message_id=9405*)
    → "If you ever find any \u0001\u0005%\u0002\u0001\u0000\u0000 in the Meriphataud Mountains, bring them back here. I will buy them from you to honor the fallen.\u007F1\u0000\u0007"
  5: 0x02C7 [0x23] WAIT_FOR_DIALOG_INTERACTION
  6: 0x02C8 [0x29] REQ_SET_WAIT(priority=0x08, entity_id=Gioh Ajihri (ID: 17764533/0x010F10B5), tag_num=0x02)
  7: 0x02CF [0x1A] CALL_SUBROUTINE(address=0x0326)
  8: 0x02D2 [0x20] SET_CLI_EVENT_UC_FLAG: Unlock player control
  9: 0x02D4 [0x21] END_EVENT
 10: 0x02D5 [0x00] END_REQSTACK()
```
