# 17187503 - Vilatroire

## Common Data

| Field            | Value                   |
|------------------|-------------------------|
| Zone             | West Ronfaure (ID: 100) |
| Block Size       | 3200 bytes              |
| Total Events     | 10                      |
| References Count | 71                      |

## List of Events

| Event ID              | Entrypoint   |   Size |   Instructions |
|-----------------------|--------------|--------|----------------|
| [65535](#event-65535) | 0x0000       |      1 |              1 |
| [54](#event-54)       | 0x0001       |    470 |             72 |
| [136](#event-136)     | 0x01D7       |     15 |              5 |
| [135](#event-135)     | 0x01E6       |    136 |             27 |
| [134](#event-134)     | 0x026E       |     15 |              5 |
| [133](#event-133)     | 0x027D       |     68 |             17 |
| [132](#event-132)     | 0x02C1       |     15 |              5 |
| [131](#event-131)     | 0x02D0       |     68 |             17 |
| [130](#event-130)     | 0x0314       |     15 |              5 |
| [129](#event-129)     | 0x0323       |   2054 |            338 |

## DAT References (imed_data)

|   Index | Hex Value   |   Dec Value |
|---------|-------------|-------------|
|       0 | 0x00C8      |         200 |
|       1 | 0x0000      |           0 |
|       2 | 0x0413      |        1043 |
|       3 | 0x00EF      |         239 |
|       4 | 0x001E      |          30 |
|       5 | 0x1F6D      |        8045 |
|       6 | 0x001D      |          29 |
|       7 | 0x1F6E      |        8046 |
|       8 | 0x1F6F      |        8047 |
|       9 | 0x0001      |           1 |
|      10 | 0x1F70      |        8048 |
|      11 | 0x0002      |           2 |
|      12 | 0x1F71      |        8049 |
|      13 | 0x1F72      |        8050 |
|      14 | 0x1F73      |        8051 |
|      15 | 0x1F74      |        8052 |
|      16 | 0x1F75      |        8053 |
|      17 | 0x1F76      |        8054 |
|      18 | 0x1F77      |        8055 |
|      19 | 0x1D63      |        7523 |
|      20 | 0x1D47      |        7495 |
|      21 | 0x1D48      |        7496 |
|      22 | 0x1D49      |        7497 |
|      23 | 0x1D4A      |        7498 |
|      24 | 0x1D4B      |        7499 |
|      25 | 0x1D4C      |        7500 |
|      26 | 0x1D65      |        7525 |
|      27 | 0x1D66      |        7526 |
|      28 | 0x1D50      |        7504 |
|      29 | 0x1D51      |        7505 |
|      30 | 0x1D53      |        7507 |
|      31 | 0x1D54      |        7508 |
|      32 | 0x1D62      |        7522 |
|      33 | 0x000F      |          15 |
|      34 | 0x0003      |           3 |
|      35 | 0x1D59      |        7513 |
|      36 | 0x0004      |           4 |
|      37 | 0x1D5A      |        7514 |
|      38 | 0x0005      |           5 |
|      39 | 0x1D5B      |        7515 |
|      40 | 0x1D5F      |        7519 |
|      41 | 0x1D60      |        7520 |
|      42 | 0x1D61      |        7521 |
|      43 | 0x1D58      |        7512 |
|      44 | 0x0007      |           7 |
|      45 | 0x1D4F      |        7503 |
|      46 | 0x1D5E      |        7518 |
|      47 | 0x1D64      |        7524 |
|      48 | 0x00C9      |         201 |
|      49 | 0x1D52      |        7506 |
|      50 | 0x1D55      |        7509 |
|      51 | 0x1D56      |        7510 |
|      52 | 0x1D57      |        7511 |
|      53 | 0x0024      |          36 |
|      54 | 0x1D5D      |        7517 |
|      55 | 0x0006      |           6 |
|      56 | 0x000D      |          13 |
|      57 | 0x0069      |         105 |
|      58 | 0x0014      |          20 |
|      59 | 0x000A      |          10 |
|      60 | 0xFFFBFAF7  |  4294703863 |
|      61 | 0x6695E     |      420190 |
|      62 | 0xFFFEE9AE  |  4294896046 |
|      63 | 0x0FED      |        4077 |
|      64 | 0x002D      |          45 |
|      65 | 0x1D4D      |        7501 |
|      66 | 0x1D4E      |        7502 |
|      67 | 0x1D5C      |        7516 |
|      68 | 0x1D67      |        7527 |
|      69 | 0x1D68      |        7528 |
|      70 | 0x0013      |          19 |

## String References

- **7501**: Try forming a party? [Let's give it a go!/Not now, thanks.]
- **7520**: Where are your party members? [Present and accounted for./They're not here yet.]
- **8045**: Another quiet day on the western fron-- Ah, I wondered when you would arrive! Monarlais Halver has entrusted me with your evaluation.
- **8046**: When it comes to party structure, I am considered quite the expert. Now, where to start...
- **8047**: Hmmm... It would appear that you avoid joining parties for the most part. Not a policy I approve of personally, but I suppose there is some satisfaction to be found in adventuring alone. No need to divide the spoils of battle, eh?
- **8048**: It would appear you join your fair share of parties. But just remember--the more parties you join, the more unique experiences you can encounter.
- **8049**: Well I must say, this is extraordinary! I never thought it was possible for one person to join so many parties! I must be careful lest you steal my position of party structure expert!
- **8050**: Now, on to our next point. You seem to have had few opportunities to join an alliance. I must admit to having little experience in this area myself. No other group of knights seems willing to ally with my unit...
- **8051**: Next, we come to the number of alliances joined. A respectable figure. You appear to have learned the lesson of strength in numbers.
- **8052**: Next, we come to the number of alliances joined... Incredible! Are you by chance some great leader of adventurers come to lecture my unit in the ways of perfect party proportions?
- **8053**: Lastly, we come to the subject of your current party. My advice would be to take advantage of the Adventurer Appreciation campaign to enjoy the diversity of a less familiar group.
- **8054**: Lastly, we come to the subject of your current party. I can sense a different type of unity than can be found in the party structures I usually recommend. You have found strength in diversity.
- **8055**: Your evaluation will be forwarded to the moogles. Do not forget to visit the other nations to complete your evaluation. Farewell!

## Events

### Event 65535

#### Metadata

| Field        | Value   |
|--------------|---------|
| Entrypoint   | 0x0000  |
| Data Size    | 1 bytes |
| Instructions | 1       |

```
      00 01 02 03 04 05 06 07  08 09 0A 0B 0C 0D 0E 0F
      -- -- -- -- -- -- -- --  -- -- -- -- -- -- -- --
0000: 00                                                .               
```

#### Opcodes

```
  0: 0x0000 [0x00] END_REQSTACK()
```

### Event 54

#### Metadata

| Field        | Value     |
|--------------|-----------|
| Entrypoint   | 0x0001    |
| Data Size    | 470 bytes |
| Instructions | 72        |

```
      00 01 02 03 04 05 06 07  08 09 0A 0B 0C 0D 0E 0F
      -- -- -- -- -- -- -- --  -- -- -- -- -- -- -- --
0000:    42 46 01 45 00 80 F8  FF FF 7F F8 FF FF 7F 66   BF.E..........f
0010: 64 6F 30 01 80 55 00 80  F8 FF FF 7F F8 FF FF 7F  do0..U..........
0020: 66 64 6F 30 38 02 80 45  03 80 F8 FF FF 7F F8 FF  fdo08..E........
0030: FF 7F 73 30 32 32 01 80  27 0A F0 FF FF 7F 09 27  ..s022..'......'
0040: 0A F1 FF FF 7F 02 27 0A  F2 FF FF 7F 02 27 0A F3  ......'......'..
0050: FF FF 7F 02 27 0A F4 FF  FF 7F 02 27 0A F5 FF FF  ....'......'....
0060: 7F 02 45 00 80 F8 FF FF  7F F8 FF FF 7F 66 64 69  ..E..........fdi
0070: 31 01 80 1C 04 80 1D 05  80 1E F0 FF FF 7F 7B F8  1.............{.
0080: FF FF 7F 23 66 06 80 AF  42 06 01 AF 42 06 01 74  ...#f...B...B..t
0090: 68 6B 31 1D 07 80 23 52  03 80 F8 FF FF 7F F8 FF  hk1...#R........
00A0: FF 7F 73 30 32 32 45 03  80 F8 FF FF 7F F8 FF FF  ..s022E.........
00B0: 7F 73 30 32 33 01 80 4E  00 F1 FF FF 7F 4E 00 F2  .s023..N.....N..
00C0: FF FF 7F 4E 00 F3 FF FF  7F 4E 00 F4 FF FF 7F 4E  ...N.....N.....N
00D0: 00 F5 FF FF 7F 02 02 10  01 80 80 E4 00 1D 08 80  ................
00E0: 23 01 02 01 02 02 10 09  80 80 F3 00 1D 0A 80 23  #..............#
00F0: 01 02 01 02 02 10 0B 80  80 02 01 1D 0C 80 23 01  ..............#.
0100: 02 01 66 06 80 AF 42 06  01 AF 42 06 01 74 68 6B  ..f...B...B..thk
0110: 32 02 03 10 01 80 80 20  01 1D 0D 80 23 01 3E 01  2...... ....#.>.
0120: 02 03 10 09 80 80 2F 01  1D 0E 80 23 01 3E 01 02  ....../....#.>..
0130: 03 10 0B 80 80 3E 01 1D  0F 80 23 01 3E 01 66 06  .....>....#.>.f.
0140: 80 AF 42 06 01 AF 42 06  01 74 77 62 30 52 03 80  ..B...B..twb0R..
0150: F8 FF FF 7F F8 FF FF 7F  73 30 32 33 45 03 80 F8  ........s023E...
0160: FF FF 7F F8 FF FF 7F 73  30 32 34 01 80 02 04 10  .......s024.....
0170: 01 80 00 7C 01 1D 10 80  23 01 80 01 1D 11 80 23  ...|....#......#
0180: 66 06 80 AF 42 06 01 AF  42 06 01 74 77 62 31 1D  f...B...B..twb1.
0190: 12 80 23 45 00 80 F8 FF  FF 7F F8 FF FF 7F 66 64  ..#E..........fd
01A0: 6F 31 01 80 55 00 80 F8  FF FF 7F F8 FF FF 7F 66  o1..U..........f
01B0: 64 6F 31 52 03 80 F8 FF  FF 7F F8 FF FF 7F 73 30  do1R..........s0
01C0: 32 34 46 00 45 00 80 F8  FF FF 7F F8 FF FF 7F 66  24F.E..........f
01D0: 64 69 31 01 80 21 00                              di1..!.         
```

#### Opcodes

```
  0: 0x0001 [0x42] SET_CLI_EVENT_CANCEL_DATA()
  1: 0x0002 [0x46] CAMERA_CONTROL: Disable user control
  2: 0x0004 [0x45] LOAD_SCHEDULED_TASK: Load scheduler "fdo0" with entities [EventEntity, EventEntity], work=[200*, 0*]
  3: 0x0015 [0x55] WAIT_LOAD_SCHEDULER: Wait for scheduler "fdo0" with entities [EventEntity, EventEntity], work=200*
  4: 0x0024 [0x38] SET_CLIENT_EVENT_MODE(mode=1043*)
  5: 0x0027 [0x45] LOAD_SCHEDULED_TASK: Load scheduler "s022" with entities [EventEntity, EventEntity], work=[239*, 0*]
  6: 0x0038 [0x27] REQ_SET(priority=0x0A, entity_id=LocalPlayer, tag_num=0x09)
  7: 0x003F [0x27] REQ_SET(priority=0x0A, entity_id=Unknown NPC (ID: 2147483633/0x7FFFFFF1), tag_num=0x02)
  8: 0x0046 [0x27] REQ_SET(priority=0x0A, entity_id=Unknown NPC (ID: 2147483634/0x7FFFFFF2), tag_num=0x02)
  9: 0x004D [0x27] REQ_SET(priority=0x0A, entity_id=Unknown NPC (ID: 2147483635/0x7FFFFFF3), tag_num=0x02)
 10: 0x0054 [0x27] REQ_SET(priority=0x0A, entity_id=Unknown NPC (ID: 2147483636/0x7FFFFFF4), tag_num=0x02)
 11: 0x005B [0x27] REQ_SET(priority=0x0A, entity_id=Unknown NPC (ID: 2147483637/0x7FFFFFF5), tag_num=0x02)
 12: 0x0062 [0x45] LOAD_SCHEDULED_TASK: Load scheduler "fdi1" with entities [EventEntity, EventEntity], work=[200*, 0*]
 13: 0x0073 [0x1C] WAIT(30* ticks)
 14: 0x0076 [0x1D] PRINT_EVENT_MESSAGE(message_id=8045*)
    → "Another quiet day on the western fron-- Ah, I wondered when you would arrive! Monarlais Halver has entrusted me with your evaluation."
 15: 0x0079 [0x1E] EventEntity looks at LocalPlayer and starts talking
 16: 0x007E [0x7B] EventEntity stops talking
 17: 0x0083 [0x23] WAIT_FOR_DIALOG_INTERACTION
 18: 0x0084 [0x66] LOAD_EXT_SCHEDULER_MAIN: Load scheduler "thk1" with entities [Vilatroire (ID: 17187503/0x010642AF), Vilatroire (ID: 17187503/0x010642AF)], work=29*
 19: 0x0093 [0x1D] PRINT_EVENT_MESSAGE(message_id=8046*)
    → "When it comes to party structure, I am considered quite the expert. Now, where to start..."
 20: 0x0096 [0x23] WAIT_FOR_DIALOG_INTERACTION
 21: 0x0097 [0x52] END_LOAD_SCHEDULER: End scheduler "s022" with entities [EventEntity, EventEntity], work=239*
 22: 0x00A6 [0x45] LOAD_SCHEDULED_TASK: Load scheduler "s023" with entities [EventEntity, EventEntity], work=[239*, 0*]
 23: 0x00B7 [0x4E] SET_ENTITY_HIDE_FLAG: Show Unknown NPC (ID: 2147483633/0x7FFFFFF1)
 24: 0x00BD [0x4E] SET_ENTITY_HIDE_FLAG: Show Unknown NPC (ID: 2147483634/0x7FFFFFF2)
 25: 0x00C3 [0x4E] SET_ENTITY_HIDE_FLAG: Show Unknown NPC (ID: 2147483635/0x7FFFFFF3)
 26: 0x00C9 [0x4E] SET_ENTITY_HIDE_FLAG: Show Unknown NPC (ID: 2147483636/0x7FFFFFF4)
 27: 0x00CF [0x4E] SET_ENTITY_HIDE_FLAG: Show Unknown NPC (ID: 2147483637/0x7FFFFFF5)
 28: 0x00D5 [0x02] IF !(Work_Zone[2] == 0*) GOTO 0x00E4
 29: 0x00DD [0x1D] PRINT_EVENT_MESSAGE(message_id=8047*)
    → "Hmmm... It would appear that you avoid joining parties for the most part. Not a policy I approve of personally, but I suppose there is some satisfaction to be found in adventuring alone. No need to divide the spoils of battle, eh?"
 30: 0x00E0 [0x23] WAIT_FOR_DIALOG_INTERACTION
 31: 0x00E1 [0x01] GOTO 0x0102
 32: 0x00E4 [0x02] IF !(Work_Zone[2] == 1*) GOTO 0x00F3
 33: 0x00EC [0x1D] PRINT_EVENT_MESSAGE(message_id=8048*)
    → "It would appear you join your fair share of parties. But just remember--the more parties you join, the more unique experiences you can encounter."
 34: 0x00EF [0x23] WAIT_FOR_DIALOG_INTERACTION
 35: 0x00F0 [0x01] GOTO 0x0102
 36: 0x00F3 [0x02] IF !(Work_Zone[2] == 2*) GOTO 0x0102
 37: 0x00FB [0x1D] PRINT_EVENT_MESSAGE(message_id=8049*)
    → "Well I must say, this is extraordinary! I never thought it was possible for one person to join so many parties! I must be careful lest you steal my position of party structure expert!"
 38: 0x00FE [0x23] WAIT_FOR_DIALOG_INTERACTION
 39: 0x00FF [0x01] GOTO 0x0102

SUBROUTINE_0102:
 40: 0x0102 [0x66] LOAD_EXT_SCHEDULER_MAIN: Load scheduler "thk2" with entities [Vilatroire (ID: 17187503/0x010642AF), Vilatroire (ID: 17187503/0x010642AF)], work=29*
 41: 0x0111 [0x02] IF !(Work_Zone[3] == 0*) GOTO 0x0120
 42: 0x0119 [0x1D] PRINT_EVENT_MESSAGE(message_id=8050*)
    → "Now, on to our next point. You seem to have had few opportunities to join an alliance. I must admit to having little experience in this area myself. No other group of knights seems willing to ally with my unit..."
 43: 0x011C [0x23] WAIT_FOR_DIALOG_INTERACTION
 44: 0x011D [0x01] GOTO 0x013E
 45: 0x0120 [0x02] IF !(Work_Zone[3] == 1*) GOTO 0x012F
 46: 0x0128 [0x1D] PRINT_EVENT_MESSAGE(message_id=8051*)
    → "Next, we come to the number of alliances joined. A respectable figure. You appear to have learned the lesson of strength in numbers."
 47: 0x012B [0x23] WAIT_FOR_DIALOG_INTERACTION
 48: 0x012C [0x01] GOTO 0x013E
 49: 0x012F [0x02] IF !(Work_Zone[3] == 2*) GOTO 0x013E
 50: 0x0137 [0x1D] PRINT_EVENT_MESSAGE(message_id=8052*)
    → "Next, we come to the number of alliances joined... Incredible! Are you by chance some great leader of adventurers come to lecture my unit in the ways of perfect party proportions?"
 51: 0x013A [0x23] WAIT_FOR_DIALOG_INTERACTION
 52: 0x013B [0x01] GOTO 0x013E

SUBROUTINE_013E:
 53: 0x013E [0x66] LOAD_EXT_SCHEDULER_MAIN: Load scheduler "twb0" with entities [Vilatroire (ID: 17187503/0x010642AF), Vilatroire (ID: 17187503/0x010642AF)], work=29*
 54: 0x014D [0x52] END_LOAD_SCHEDULER: End scheduler "s023" with entities [EventEntity, EventEntity], work=239*
 55: 0x015C [0x45] LOAD_SCHEDULED_TASK: Load scheduler "s024" with entities [EventEntity, EventEntity], work=[239*, 0*]
 56: 0x016D [0x02] IF !(Work_Zone[4] == 0*) GOTO 0x017C
 57: 0x0175 [0x1D] PRINT_EVENT_MESSAGE(message_id=8053*)
    → "Lastly, we come to the subject of your current party. My advice would be to take advantage of the Adventurer Appreciation campaign to enjoy the diversity of a less familiar group."
 58: 0x0178 [0x23] WAIT_FOR_DIALOG_INTERACTION
 59: 0x0179 [0x01] GOTO 0x0180
 60: 0x017C [0x1D] PRINT_EVENT_MESSAGE(message_id=8054*)
    → "Lastly, we come to the subject of your current party. I can sense a different type of unity than can be found in the party structures I usually recommend. You have found strength in diversity."
 61: 0x017F [0x23] WAIT_FOR_DIALOG_INTERACTION

SUBROUTINE_0180:
 62: 0x0180 [0x66] LOAD_EXT_SCHEDULER_MAIN: Load scheduler "twb1" with entities [Vilatroire (ID: 17187503/0x010642AF), Vilatroire (ID: 17187503/0x010642AF)], work=29*
 63: 0x018F [0x1D] PRINT_EVENT_MESSAGE(message_id=8055*)
    → "Your evaluation will be forwarded to the moogles. Do not forget to visit the other nations to complete your evaluation. Farewell!"
 64: 0x0192 [0x23] WAIT_FOR_DIALOG_INTERACTION
 65: 0x0193 [0x45] LOAD_SCHEDULED_TASK: Load scheduler "fdo1" with entities [EventEntity, EventEntity], work=[200*, 0*]
 66: 0x01A4 [0x55] WAIT_LOAD_SCHEDULER: Wait for scheduler "fdo1" with entities [EventEntity, EventEntity], work=200*
 67: 0x01B3 [0x52] END_LOAD_SCHEDULER: End scheduler "s024" with entities [EventEntity, EventEntity], work=239*
 68: 0x01C2 [0x46] CAMERA_CONTROL: Restore default settings
 69: 0x01C4 [0x45] LOAD_SCHEDULED_TASK: Load scheduler "fdi1" with entities [EventEntity, EventEntity], work=[200*, 0*]
 70: 0x01D5 [0x21] END_EVENT
 71: 0x01D6 [0x00] END_REQSTACK()
```

### Event 136

#### Metadata

| Field        | Value    |
|--------------|----------|
| Entrypoint   | 0x01D7   |
| Data Size    | 15 bytes |
| Instructions | 5        |

```
      00 01 02 03 04 05 06 07  08 09 0A 0B 0C 0D 0E 0F
      -- -- -- -- -- -- -- --  -- -- -- -- -- -- -- --
01D0:                      1E  F0 FF FF 7F 2B AF 42 06         .....+.B.
01E0: 01 13 80 23 21 00                                 ...#!.          
```

#### Opcodes

```
  0: 0x01D7 [0x1E] EventEntity looks at LocalPlayer and starts talking
  1: 0x01DC [0x2B] Vilatroire (ID: 17187503/0x010642AF) [7523*]:
    → "A lone adventurer, eh? You look as though you've seen some battles...but not nearly enough. Train, and grow strong, friend."
  2: 0x01E3 [0x23] WAIT_FOR_DIALOG_INTERACTION
  3: 0x01E4 [0x21] END_EVENT
  4: 0x01E5 [0x00] END_REQSTACK()
```

### Event 135

#### Metadata

| Field        | Value     |
|--------------|-----------|
| Entrypoint   | 0x01E6    |
| Data Size    | 136 bytes |
| Instructions | 27        |

```
      00 01 02 03 04 05 06 07  08 09 0A 0B 0C 0D 0E 0F
      -- -- -- -- -- -- -- --  -- -- -- -- -- -- -- --
01E0:                   03 01  00 04 10 02 01 00 09 80        ..........
01F0: 00 F8 01 1A A4 09 21 00  1A F8 06 2B AF 42 06 01  ......!....+.B..
0200: 14 80 23 1A 7D 07 66 06  80 AF 42 06 01 AF 42 06  ..#.}.f...B...B.
0210: 01 74 6C 6B 30 2B AF 42  06 01 15 80 23 2B AF 42  .tlk0+.B....#+.B
0220: 06 01 16 80 23 4E 01 F0  FF FF 7F 45 01 80 F0 FF  ....#N.....E....
0230: FF 7F F0 FF FF 7F 73 67  30 32 01 80 2B AF 42 06  ......sg02..+.B.
0240: 01 17 80 23 2B AF 42 06  01 18 80 23 2B AF 42 06  ...#+.B....#+.B.
0250: 01 19 80 23 55 01 80 F0  FF FF 7F F0 FF FF 7F 73  ...#U..........s
0260: 67 30 32 4E 00 F0 FF FF  7F 1A 7C 08 21 00        g02N......|.!.  
```

#### Opcodes

```
  0: 0x01E6 [0x03] ExtData[1]->WorkLocal[1] = Work_Zone[4]
  1: 0x01EB [0x02] IF !(ExtData[1]->WorkLocal[1] == 1*) GOTO 0x01F8
  2: 0x01F3 [0x1A] CALL_SUBROUTINE(address=0x09A4)
  3: 0x01F6 [0x21] END_EVENT
  4: 0x01F7 [0x00] END_REQSTACK()
  5: 0x01F8 [0x1A] CALL_SUBROUTINE(address=0x06F8)
  6: 0x01FB [0x2B] Vilatroire (ID: 17187503/0x010642AF) [7495*]:
    → "A lone adventurer, are you? You look tough. Seen your share of battles, I'd wager?"
  7: 0x0202 [0x23] WAIT_FOR_DIALOG_INTERACTION
  8: 0x0203 [0x1A] CALL_SUBROUTINE(address=0x077D)
  9: 0x0206 [0x66] LOAD_EXT_SCHEDULER_MAIN: Load scheduler "tlk0" with entities [Vilatroire (ID: 17187503/0x010642AF), Vilatroire (ID: 17187503/0x010642AF)], work=29*
 10: 0x0215 [0x2B] Vilatroire (ID: 17187503/0x010642AF) [7496*]:
    → "We here are a team of six elite soldiers, charged with guarding this watchtower."
 11: 0x021C [0x23] WAIT_FOR_DIALOG_INTERACTION
 12: 0x021D [0x2B] Vilatroire (ID: 17187503/0x010642AF) [7497*]:
    → "We watch day and night to ensure that no monsters approach the city, and no troublemakers loiter nearby...so teamwork is essential."
 13: 0x0224 [0x23] WAIT_FOR_DIALOG_INTERACTION
 14: 0x0225 [0x4E] SET_ENTITY_HIDE_FLAG: Hide LocalPlayer
 15: 0x022B [0x45] LOAD_SCHEDULED_TASK: Load scheduler "sg02" with entities [LocalPlayer, LocalPlayer], work=[0*, 0*]
 16: 0x023C [0x2B] Vilatroire (ID: 17187503/0x010642AF) [7498*]:
    → "You've formed a party before, right? An organized party is stronger than the combined strength of its members."
 17: 0x0243 [0x23] WAIT_FOR_DIALOG_INTERACTION
 18: 0x0244 [0x2B] Vilatroire (ID: 17187503/0x010642AF) [7499*]:
    → "Parties with people of the same nationality tend to be organized--because you can always rely on your own countrymen when times are rough."
 19: 0x024B [0x23] WAIT_FOR_DIALOG_INTERACTION
 20: 0x024C [0x2B] Vilatroire (ID: 17187503/0x010642AF) [7500*]:
    → "Try to form a party with at least two members, all with allegiance to the same country. Think you can do it?"
 21: 0x0253 [0x23] WAIT_FOR_DIALOG_INTERACTION
 22: 0x0254 [0x55] WAIT_LOAD_SCHEDULER: Wait for scheduler "sg02" with entities [LocalPlayer, LocalPlayer], work=0*
 23: 0x0263 [0x4E] SET_ENTITY_HIDE_FLAG: Show LocalPlayer
 24: 0x0269 [0x1A] CALL_SUBROUTINE(address=0x087C)
 25: 0x026C [0x21] END_EVENT
 26: 0x026D [0x00] END_REQSTACK()
```

### Event 134

#### Metadata

| Field        | Value    |
|--------------|----------|
| Entrypoint   | 0x026E   |
| Data Size    | 15 bytes |
| Instructions | 5        |

```
      00 01 02 03 04 05 06 07  08 09 0A 0B 0C 0D 0E 0F
      -- -- -- -- -- -- -- --  -- -- -- -- -- -- -- --
0260:                                            1E F0                ..
0270: FF FF 7F 2B AF 42 06 01  1A 80 23 21 00           ...+.B....#!.   
```

#### Opcodes

```
  0: 0x026E [0x1E] EventEntity looks at LocalPlayer and starts talking
  1: 0x0273 [0x2B] Vilatroire (ID: 17187503/0x010642AF) [7525*]:
    → "When you're one step closer to becoming a certified adventurer, I have a task for you. Remember, fighting is not everything! Don't waste your potential."
  2: 0x027A [0x23] WAIT_FOR_DIALOG_INTERACTION
  3: 0x027B [0x21] END_EVENT
  4: 0x027C [0x00] END_REQSTACK()
```

### Event 133

#### Metadata

| Field        | Value    |
|--------------|----------|
| Entrypoint   | 0x027D   |
| Data Size    | 68 bytes |
| Instructions | 17       |

```
      00 01 02 03 04 05 06 07  08 09 0A 0B 0C 0D 0E 0F
      -- -- -- -- -- -- -- --  -- -- -- -- -- -- -- --
0270:                                         03 01 00               ...
0280: 04 10 02 01 00 09 80 00  8F 02 1A A4 09 21 00 1A  .............!..
0290: F8 06 2B AF 42 06 01 1B  80 23 1A 7D 07 66 06 80  ..+.B....#.}.f..
02A0: AF 42 06 01 AF 42 06 01  74 6C 6B 30 2B AF 42 06  .B...B..tlk0+.B.
02B0: 01 1C 80 23 2B AF 42 06  01 1D 80 23 1A 7C 08 21  ...#+.B....#.|.!
02C0: 00                                                .               
```

#### Opcodes

```
  0: 0x027D [0x03] ExtData[1]->WorkLocal[1] = Work_Zone[4]
  1: 0x0282 [0x02] IF !(ExtData[1]->WorkLocal[1] == 1*) GOTO 0x028F
  2: 0x028A [0x1A] CALL_SUBROUTINE(address=0x09A4)
  3: 0x028D [0x21] END_EVENT
  4: 0x028E [0x00] END_REQSTACK()
  5: 0x028F [0x1A] CALL_SUBROUTINE(address=0x06F8)
  6: 0x0292 [0x2B] Vilatroire (ID: 17187503/0x010642AF) [7526*]:
    → "Welcome back, adventurer. You seem more experienced than last we met. Yes, I've heard some stories of your exploits."
  7: 0x0299 [0x23] WAIT_FOR_DIALOG_INTERACTION
  8: 0x029A [0x1A] CALL_SUBROUTINE(address=0x077D)
  9: 0x029D [0x66] LOAD_EXT_SCHEDULER_MAIN: Load scheduler "tlk0" with entities [Vilatroire (ID: 17187503/0x010642AF), Vilatroire (ID: 17187503/0x010642AF)], work=29*
 10: 0x02AC [0x2B] Vilatroire (ID: 17187503/0x010642AF) [7504*]:
    → "Ready for your next task? This time, I want you to make a party with at least two members, all of the same race!"
 11: 0x02B3 [0x23] WAIT_FOR_DIALOG_INTERACTION
 12: 0x02B4 [0x2B] Vilatroire (ID: 17187503/0x010642AF) [7505*]:
    → "Companions in arms who share the same blood in their veins fight fiercer than your usual rag-tag mobs. Think you can do it?"
 13: 0x02BB [0x23] WAIT_FOR_DIALOG_INTERACTION
 14: 0x02BC [0x1A] CALL_SUBROUTINE(address=0x087C)
 15: 0x02BF [0x21] END_EVENT
 16: 0x02C0 [0x00] END_REQSTACK()
```

### Event 132

#### Metadata

| Field        | Value    |
|--------------|----------|
| Entrypoint   | 0x02C1   |
| Data Size    | 15 bytes |
| Instructions | 5        |

```
      00 01 02 03 04 05 06 07  08 09 0A 0B 0C 0D 0E 0F
      -- -- -- -- -- -- -- --  -- -- -- -- -- -- -- --
02C0:    1E F0 FF FF 7F 2B AF  42 06 01 1A 80 23 21 00   .....+.B....#!.
```

#### Opcodes

```
  0: 0x02C1 [0x1E] EventEntity looks at LocalPlayer and starts talking
  1: 0x02C6 [0x2B] Vilatroire (ID: 17187503/0x010642AF) [7525*]:
    → "When you're one step closer to becoming a certified adventurer, I have a task for you. Remember, fighting is not everything! Don't waste your potential."
  2: 0x02CD [0x23] WAIT_FOR_DIALOG_INTERACTION
  3: 0x02CE [0x21] END_EVENT
  4: 0x02CF [0x00] END_REQSTACK()
```

### Event 131

#### Metadata

| Field        | Value    |
|--------------|----------|
| Entrypoint   | 0x02D0   |
| Data Size    | 68 bytes |
| Instructions | 17       |

```
      00 01 02 03 04 05 06 07  08 09 0A 0B 0C 0D 0E 0F
      -- -- -- -- -- -- -- --  -- -- -- -- -- -- -- --
02D0: 03 01 00 04 10 02 01 00  09 80 00 E2 02 1A A4 09  ................
02E0: 21 00 1A F8 06 2B AF 42  06 01 1B 80 23 1A 7D 07  !....+.B....#.}.
02F0: 66 06 80 AF 42 06 01 AF  42 06 01 74 6C 6B 30 2B  f...B...B..tlk0+
0300: AF 42 06 01 1E 80 23 2B  AF 42 06 01 1F 80 23 1A  .B....#+.B....#.
0310: 7C 08 21 00                                       |.!.            
```

#### Opcodes

```
  0: 0x02D0 [0x03] ExtData[1]->WorkLocal[1] = Work_Zone[4]
  1: 0x02D5 [0x02] IF !(ExtData[1]->WorkLocal[1] == 1*) GOTO 0x02E2
  2: 0x02DD [0x1A] CALL_SUBROUTINE(address=0x09A4)
  3: 0x02E0 [0x21] END_EVENT
  4: 0x02E1 [0x00] END_REQSTACK()
  5: 0x02E2 [0x1A] CALL_SUBROUTINE(address=0x06F8)
  6: 0x02E5 [0x2B] Vilatroire (ID: 17187503/0x010642AF) [7526*]:
    → "Welcome back, adventurer. You seem more experienced than last we met. Yes, I've heard some stories of your exploits."
  7: 0x02EC [0x23] WAIT_FOR_DIALOG_INTERACTION
  8: 0x02ED [0x1A] CALL_SUBROUTINE(address=0x077D)
  9: 0x02F0 [0x66] LOAD_EXT_SCHEDULER_MAIN: Load scheduler "tlk0" with entities [Vilatroire (ID: 17187503/0x010642AF), Vilatroire (ID: 17187503/0x010642AF)], work=29*
 10: 0x02FF [0x2B] Vilatroire (ID: 17187503/0x010642AF) [7507*]:
    → "Ready for your next task? I want you to form a party, at least two members strong, all with the same job!"
 11: 0x0306 [0x23] WAIT_FOR_DIALOG_INTERACTION
 12: 0x0307 [0x2B] Vilatroire (ID: 17187503/0x010642AF) [7508*]:
    → "Those who walk the same path as you are truly trustworthy. How about it?"
 13: 0x030E [0x23] WAIT_FOR_DIALOG_INTERACTION
 14: 0x030F [0x1A] CALL_SUBROUTINE(address=0x087C)
 15: 0x0312 [0x21] END_EVENT
 16: 0x0313 [0x00] END_REQSTACK()
```

### Event 130

#### Metadata

| Field        | Value    |
|--------------|----------|
| Entrypoint   | 0x0314   |
| Data Size    | 15 bytes |
| Instructions | 5        |

```
      00 01 02 03 04 05 06 07  08 09 0A 0B 0C 0D 0E 0F
      -- -- -- -- -- -- -- --  -- -- -- -- -- -- -- --
0310:             1E F0 FF FF  7F 2B AF 42 06 01 20 80      .....+.B.. .
0320: 23 21 00                                          #!.             
```

#### Opcodes

```
  0: 0x0314 [0x1E] EventEntity looks at LocalPlayer and starts talking
  1: 0x0319 [0x2B] Vilatroire (ID: 17187503/0x010642AF) [7522*]:
    → "You may not measure up to my elite squad, but keep at it, and someday, maybe you'll win a post here in the watchtower."
  2: 0x0320 [0x23] WAIT_FOR_DIALOG_INTERACTION
  3: 0x0321 [0x21] END_EVENT
  4: 0x0322 [0x00] END_REQSTACK()
```

### Event 129

#### Metadata

| Field        | Value      |
|--------------|------------|
| Entrypoint   | 0x0323     |
| Data Size    | 2054 bytes |
| Instructions | 186        |

```
      00 01 02 03 04 05 06 07  08 09 0A 0B 0C 0D 0E 0F
      -- -- -- -- -- -- -- --  -- -- -- -- -- -- -- --
0320:          06 01 10 42 1E  F0 FF FF 7F 1C 21 80 4A     ...B......!.J
0330: F0 FF FF 7F F8 FF FF 7F  6F 76 F0 FF FF 7F 03 04  ........ov......
0340: 00 02 10 03 03 00 03 10  02 03 00 09 80 80 6F 03  ..............o.
0350: 1A 68 04 02 00 00 09 80  00 5E 03 01 C5 03 1A D8  .h.......^......
0360: 03 02 02 00 21 80 00 6C  03 1A F5 04 01 BD 03 02  ....!..l........
0370: 03 00 0B 80 80 96 03 1A  68 04 02 00 00 09 80 00  ........h.......
0380: 85 03 01 C5 03 1A D8 03  02 02 00 21 80 00 93 03  ...........!....
0390: 1A 49 05 01 BD 03 02 03  00 22 80 80 BD 03 1A 68  .I.......".....h
03A0: 04 02 00 00 09 80 00 AC  03 01 C5 03 1A D8 03 02  ................
03B0: 02 00 21 80 00 BA 03 1A  AB 05 01 BD 03 1A C3 0A  ..!.............
03C0: 1C 04 80 46 00 45 00 80  F0 FF FF 7F F0 FF FF 7F  ...F.E..........
03D0: 66 64 69 32 01 80 21 00  02 04 00 09 80 00 E8 03  fdi2..!.........
03E0: 03 02 00 21 80 01 67 04  43 00 43 01 03 02 00 02  ...!..g.C.C.....
03F0: 10 02 02 00 09 80 80 FF  03 1A E4 04 01 67 04 02  .............g..
0400: 02 00 0B 80 80 0D 04 1A  E4 04 01 67 04 02 02 00  ...........g....
0410: 22 80 80 2B 04 02 03 00  09 80 00 28 04 1A C5 06  "..+.......(....
0420: 2B AF 42 06 01 23 80 23  01 67 04 02 02 00 24 80  +.B..#.#.g....$.
0430: 80 49 04 02 03 00 0B 80  00 46 04 1A C5 06 2B AF  .I.......F....+.
0440: 42 06 01 25 80 23 01 67  04 02 02 00 26 80 80 67  B..%.#.g....&..g
0450: 04 02 03 00 22 80 00 64  04 1A C5 06 2B AF 42 06  ...."..d....+.B.
0460: 01 27 80 23 01 67 04 1B  06 00 00 02 04 00 01 80  .'.#.g..........
0470: 00 E3 04 66 06 80 AF 42  06 01 AF 42 06 01 74 6C  ...f...B...B..tl
0480: 6B 30 2B AF 42 06 01 28  80 23 24 29 80 09 80 01  k0+.B..(.#$)....
0490: 80 25 02 00 10 09 80 00  C7 04 03 00 00 09 80 2B  .%.............+
04A0: AF 42 06 01 2A 80 23 66  06 80 AF 42 06 01 AF 42  .B..*.#f...B...B
04B0: 06 01 74 6C 6B 31 53 AF  42 06 01 AF 42 06 01 74  ..tlk1S.B...B..t
04C0: 6C 6B 31 1B 01 C7 04 66  06 80 AF 42 06 01 AF 42  lk1....f...B...B
04D0: 06 01 74 6C 6B 31 53 AF  42 06 01 AF 42 06 01 74  ..tlk1S.B...B..t
04E0: 6C 6B 31 1B 46 01 1A 17  08 1A C5 06 2B AF 42 06  lk1.F.......+.B.
04F0: 01 2B 80 23 1B 46 01 1A  17 08 27 10 AA 42 06 01  .+.#.F....'..B..
0500: 0A 6E AF 42 06 01 2C 80  99 AF 42 06 01 1C 21 80  .n.B..,...B...!.
0510: 2B AF 42 06 01 2D 80 23  6E AF 42 06 01 01 80 99  +.B..-.#n.B.....
0520: AF 42 06 01 1C 21 80 2B  AF 42 06 01 2E 80 23 2B  .B...!.+.B....#+
0530: AF 42 06 01 2F 80 23 45  30 80 F0 FF FF 7F F0 FF  .B../.#E0.......
0540: FF 7F 71 73 74 63 01 80  1B 46 01 1A 17 08 27 10  ..qstc...F....'.
0550: AA 42 06 01 0A 27 10 AB  42 06 01 0A 27 10 AC 42  .B...'..B...'..B
0560: 06 01 0A 6E AF 42 06 01  2C 80 99 AF 42 06 01 1C  ...n.B..,...B...
0570: 21 80 2B AF 42 06 01 31  80 23 6E AF 42 06 01 01  !.+.B..1.#n.B...
0580: 80 99 AF 42 06 01 1C 21  80 2B AF 42 06 01 2E 80  ...B...!.+.B....
0590: 23 2B AF 42 06 01 2F 80  23 45 30 80 F0 FF FF 7F  #+.B../.#E0.....
05A0: F0 FF FF 7F 71 73 74 63  01 80 1B 46 01 1A 17 08  ....qstc...F....
05B0: 27 10 AA 42 06 01 0A 27  10 AB 42 06 01 0A 27 10  '..B...'..B...'.
05C0: AC 42 06 01 0A 27 10 AD  42 06 01 0A 27 10 AE 42  .B...'..B...'..B
05D0: 06 01 0A 6E AF 42 06 01  2C 80 99 AF 42 06 01 1C  ...n.B..,...B...
05E0: 21 80 2B AF 42 06 01 32  80 23 4E 01 F0 FF FF 7F  !.+.B..2.#N.....
05F0: 45 01 80 F0 FF FF 7F F0  FF FF 7F 73 67 30 32 01  E..........sg02.
0600: 80 66 06 80 AF 42 06 01  AF 42 06 01 74 6C 6B 30  .f...B...B..tlk0
0610: 2B AF 42 06 01 33 80 23  6E AF 42 06 01 01 80 99  +.B..3.#n.B.....
0620: AF 42 06 01 1C 21 80 2B  AF 42 06 01 34 80 23 45  .B...!.+.B..4.#E
0630: 30 80 F0 FF FF 7F F0 FF  FF 7F 71 73 74 63 01 80  0.........qstc..
0640: 55 01 80 F0 FF FF 7F F0  FF FF 7F 73 67 30 32 4E  U..........sg02N
0650: 00 F0 FF FF 7F 1B 66 06  80 AF 42 06 01 AF 42 06  ......f...B...B.
0660: 01 74 6C 6B 31 53 AF 42  06 01 AF 42 06 01 74 6C  .tlk1S.B...B..tl
0670: 6B 31 27 10 AA 42 06 01  0B 27 10 AB 42 06 01 0B  k1'..B...'..B...
0680: 27 10 AC 42 06 01 0B 27  10 AD 42 06 01 0B 27 10  '..B...'..B...'.
0690: AE 42 06 01 0B 6E AF 42  06 01 35 80 99 AF 42 06  .B...n.B..5...B.
06A0: 01 45 01 80 F0 FF FF 7F  F0 FF FF 7F 73 67 30 34  .E..........sg04
06B0: 01 80 27 10 F0 FF FF 7F  07 2B AF 42 06 01 36 80  ..'......+.B..6.
06C0: 23 1C 04 80 1B 27 10 AA  42 06 01 0D 27 10 AB 42  #....'..B...'..B
06D0: 06 01 0D 27 10 AC 42 06  01 0D 27 10 AD 42 06 01  ...'..B...'..B..
06E0: 0D 27 10 AE 42 06 01 0D  6E AF 42 06 01 37 80 99  .'..B...n.B..7..
06F0: AF 42 06 01 1C 21 80 1B  42 06 01 10 66 06 80 AF  .B...!..B...f...
0700: 42 06 01 AF 42 06 01 00  FE FE FE 1E F0 FF FF 7F  B...B...........
0710: 1C 21 80 4A F0 FF FF 7F  F8 FF FF 7F 6F 76 F0 FF  .!.J........ov..
0720: FF 7F 1A C3 0A 1C 21 80  46 01 29 10 F0 FF FF 7F  ......!.F.).....
0730: 05 79 00 F0 FF FF 7F AF  42 06 01 79 00 AF 42 06  .y......B..y..B.
0740: 01 F0 FF FF 7F 1C 09 80  4A AF 42 06 01 F0 FF FF  ........J.B.....
0750: 7F 6F 76 AF 42 06 01 46  01 66 06 80 AF 42 06 01  .ov.B..F.f...B..
0760: AF 42 06 01 74 6C 6B 30  45 01 80 F0 FF FF 7F F0  .B..tlk0E.......
0770: FF FF 7F 73 67 30 35 01  80 1A E7 0A 1B 66 06 80  ...sg05......f..
0780: AF 42 06 01 AF 42 06 01  74 6C 6B 31 53 AF 42 06  .B...B..tlk1S.B.
0790: 01 AF 42 06 01 74 6C 6B  31 6E AF 42 06 01 38 80  ..B..tlk1n.B..8.
07A0: 99 AF 42 06 01 1C 39 80  45 01 80 F0 FF FF 7F F0  ..B...9.E.......
07B0: FF FF 7F 73 67 30 36 01  80 4A AD 42 06 01 F0 FF  ...sg06..J.B....
07C0: FF 7F 1C 3A 80 45 01 80  F0 FF FF 7F F0 FF FF 7F  ...:.E..........
07D0: 73 67 30 37 01 80 4A AA  42 06 01 F0 FF FF 7F 1C  sg07..J.B.......
07E0: 3B 80 4A AE 42 06 01 F0  FF FF 7F 1C 3B 80 45 01  ;.J.B.......;.E.
07F0: 80 F0 FF FF 7F F0 FF FF  7F 73 67 30 38 01 80 4A  .........sg08..J
0800: AC 42 06 01 F0 FF FF 7F  1C 3B 80 4A AB 42 06 01  .B.......;.J.B..
0810: F0 FF FF 7F 1C 3B 80 1A  C3 0A 1C 21 80 27 10 AA  .....;.....!.'..
0820: 42 06 01 09 27 10 AB 42  06 01 09 27 10 AC 42 06  B...'..B...'..B.
0830: 01 09 27 10 AD 42 06 01  09 27 10 AE 42 06 01 09  ..'..B...'..B...
0840: 37 3C 80 3D 80 3E 80 3F  80 27 10 F0 FF FF 7F 06  7<.=.>.?.'......
0850: 79 00 F0 FF FF 7F AF 42  06 01 79 00 AF 42 06 01  y......B..y..B..
0860: F0 FF FF 7F 45 01 80 F0  FF FF 7F F0 FF FF 7F 73  ....E..........s
0870: 67 30 33 01 80 1C 40 80  1A E7 0A 1B 45 01 80 F0  g03...@.....E...
0880: FF FF 7F F0 FF FF 7F 73  67 30 33 01 80 66 06 80  .......sg03..f..
0890: AF 42 06 01 AF 42 06 01  74 6C 6B 31 24 41 80 09  .B...B..tlk1$A..
08A0: 80 01 80 25 02 00 10 01  80 00 36 09 03 01 10 09  ...%......6.....
08B0: 80 6E F0 FF FF 7F 2C 80  99 F0 FF FF 7F 1C 26 80  .n....,.......&.
08C0: 53 AF 42 06 01 AF 42 06  01 74 6C 6B 31 6E AF 42  S.B...B..tlk1n.B
08D0: 06 01 2C 80 99 AF 42 06  01 1C 21 80 2B AF 42 06  ..,...B...!.+.B.
08E0: 01 42 80 23 27 10 AA 42  06 01 0B 27 10 AB 42 06  .B.#'..B...'..B.
08F0: 01 0B 27 10 AC 42 06 01  0B 27 10 AD 42 06 01 0B  ..'..B...'..B...
0900: 27 10 AE 42 06 01 0B 6E  AF 42 06 01 35 80 99 AF  '..B...n.B..5...
0910: 42 06 01 45 01 80 F0 FF  FF 7F F0 FF FF 7F 73 67  B..E..........sg
0920: 30 34 01 80 27 10 F0 FF  FF 7F 07 2B AF 42 06 01  04..'......+.B..
0930: 36 80 23 01 8A 09 02 00  10 09 80 00 8A 09 6E F0  6.#...........n.
0940: FF FF 7F 37 80 99 F0 FF  FF 7F 1C 21 80 27 10 AA  ...7.......!.'..
0950: 42 06 01 0C 27 10 AB 42  06 01 0C 27 10 AC 42 06  B...'..B...'..B.
0960: 01 0C 27 10 AD 42 06 01  0C 27 10 AE 42 06 01 0C  ..'..B...'..B...
0970: 6E AF 42 06 01 26 80 99  AF 42 06 01 1C 21 80 2B  n.B..&...B...!.+
0980: AF 42 06 01 43 80 23 01  8A 09 1A C3 0A 1C 04 80  .B..C.#.........
0990: 45 00 80 F0 FF FF 7F F0  FF FF 7F 66 64 69 32 01  E..........fdi2.
09A0: 80 46 00 1B 42 06 01 10  66 06 80 AF 42 06 01 AF  .F..B...f...B...
09B0: 42 06 01 00 FE FE FE 1E  F0 FF FF 7F 1C 21 80 66  B............!.f
09C0: 06 80 AF 42 06 01 AF 42  06 01 74 6C 6B 30 2B AF  ...B...B..tlk0+.
09D0: 42 06 01 44 80 23 66 06  80 AF 42 06 01 AF 42 06  B..D.#f...B...B.
09E0: 01 74 6C 6B 31 24 41 80  09 80 01 80 25 02 00 10  .tlk1$A.....%...
09F0: 01 80 00 8E 0A 46 01 1A  17 08 03 01 10 09 80 53  .....F.........S
0A00: AF 42 06 01 AF 42 06 01  74 6C 6B 31 6E AF 42 06  .B...B..tlk1n.B.
0A10: 01 2C 80 99 AF 42 06 01  1C 21 80 2B AF 42 06 01  .,...B...!.+.B..
0A20: 45 80 23 27 10 AA 42 06  01 0B 27 10 AB 42 06 01  E.#'..B...'..B..
0A30: 0B 27 10 AC 42 06 01 0B  27 10 AD 42 06 01 0B 27  .'..B...'..B...'
0A40: 10 AE 42 06 01 0B 6E AF  42 06 01 35 80 99 AF 42  ..B...n.B..5...B
0A50: 06 01 45 01 80 F0 FF FF  7F F0 FF FF 7F 73 67 30  ..E..........sg0
0A60: 34 01 80 27 10 F0 FF FF  7F 07 2B AF 42 06 01 36  4..'......+.B..6
0A70: 80 23 1A C3 0A 1C 04 80  45 00 80 F0 FF FF 7F F0  .#......E.......
0A80: FF FF 7F 66 64 69 32 01  80 46 00 01 A1 0A 02 00  ...fdi2..F......
0A90: 10 09 80 00 A1 0A 2B AF  42 06 01 43 80 23 01 A1  ......+.B..C.#..
0AA0: 0A 1B 45 00 80 F0 FF FF  7F F0 FF FF 7F 66 64 69  ..E..........fdi
0AB0: 30 01 80 55 00 80 F0 FF  FF 7F F0 FF FF 7F 66 64  0..U..........fd
0AC0: 69 30 1B 45 00 80 F0 FF  FF 7F F0 FF FF 7F 66 64  i0.E..........fd
0AD0: 6F 30 01 80 55 00 80 F0  FF FF 7F F0 FF FF 7F 66  o0..U..........f
0AE0: 64 6F 30 38 46 80 1B 45  00 80 F0 FF FF 7F F0 FF  do08F..E........
0AF0: FF 7F 66 64 69 31 01 80  55 00 80 F0 FF FF 7F F0  ..fdi1..U.......
0B00: FF FF 7F 66 64 69 31 1B  45 00 80 F0 FF FF 7F F0  ...fdi1.E.......
0B10: FF FF 7F 66 64 6F 31 01  80 55 00 80 F0 FF FF 7F  ...fdo1..U......
0B20: F0 FF FF 7F 66 64 6F 31  1B                       ....fdo1.       
```

#### Opcodes

```
  0: 0x0323 [0x06] Work_Zone[1] = 0
  1: 0x0326 [0x42] SET_CLI_EVENT_CANCEL_DATA()
  2: 0x0327 [0x1E] EventEntity looks at LocalPlayer and starts talking
  3: 0x032C [0x1C] WAIT(15* ticks)
  4: 0x032F [0x4A] LocalPlayer looks at EventEntity
  5: 0x0338 [0x6F] WAIT_FRAME_DELAY: Yield until WaitTime reaches zero
  6: 0x0339 [0x76] CHECK_ENTITY_RENDER_FLAGS: Wait until LocalPlayer Render.Flags0 and Render.Flags3 conditions are met
  7: 0x033E [0x03] ExtData[1]->WorkLocal[4] = Work_Zone[2]
  8: 0x0343 [0x03] ExtData[1]->WorkLocal[3] = Work_Zone[3]
  9: 0x0348 [0x02] IF !(ExtData[1]->WorkLocal[3] == 1*) GOTO 0x036F
 10: 0x0350 [0x1A] CALL_SUBROUTINE(address=0x0468)
 11: 0x0353 [0x02] IF !(ExtData[1]->WorkLocal[0] == 1*) GOTO 0x035E
 12: 0x035B [0x01] GOTO 0x03C5
 13: 0x035E [0x1A] CALL_SUBROUTINE(address=0x03D8)
 14: 0x0361 [0x02] IF !(ExtData[1]->WorkLocal[2] == 15*) GOTO 0x036C
 15: 0x0369 [0x1A] CALL_SUBROUTINE(address=0x04F5)
 16: 0x036C [0x01] GOTO 0x03BD
 17: 0x036F [0x02] IF !(ExtData[1]->WorkLocal[3] == 2*) GOTO 0x0396
 18: 0x0377 [0x1A] CALL_SUBROUTINE(address=0x0468)
 19: 0x037A [0x02] IF !(ExtData[1]->WorkLocal[0] == 1*) GOTO 0x0385
 20: 0x0382 [0x01] GOTO 0x03C5
 21: 0x0385 [0x1A] CALL_SUBROUTINE(address=0x03D8)
 22: 0x0388 [0x02] IF !(ExtData[1]->WorkLocal[2] == 15*) GOTO 0x0393
 23: 0x0390 [0x1A] CALL_SUBROUTINE(address=0x0549)
 24: 0x0393 [0x01] GOTO 0x03BD
 25: 0x0396 [0x02] IF !(ExtData[1]->WorkLocal[3] == 3*) GOTO 0x03BD
 26: 0x039E [0x1A] CALL_SUBROUTINE(address=0x0468)
 27: 0x03A1 [0x02] IF !(ExtData[1]->WorkLocal[0] == 1*) GOTO 0x03AC
 28: 0x03A9 [0x01] GOTO 0x03C5
 29: 0x03AC [0x1A] CALL_SUBROUTINE(address=0x03D8)
 30: 0x03AF [0x02] IF !(ExtData[1]->WorkLocal[2] == 15*) GOTO 0x03BA
 31: 0x03B7 [0x1A] CALL_SUBROUTINE(address=0x05AB)
 32: 0x03BA [0x01] GOTO 0x03BD

SUBROUTINE_03BD:
 33: 0x03BD [0x1A] CALL_SUBROUTINE(address=0x0AC3)
 34: 0x03C0 [0x1C] WAIT(30* ticks)
 35: 0x03C3 [0x46] CAMERA_CONTROL: Restore default settings

SUBROUTINE_03C5:
 36: 0x03C5 [0x45] LOAD_SCHEDULED_TASK: Load scheduler "fdi2" with entities [LocalPlayer, LocalPlayer], work=[200*, 0*]
 37: 0x03D6 [0x21] END_EVENT
 38: 0x03D7 [0x00] END_REQSTACK()

SUBROUTINE_03D8:
 39: 0x03D8 [0x02] IF !(ExtData[1]->WorkLocal[4] == 1*) GOTO 0x03E8
 40: 0x03E0 [0x03] ExtData[1]->WorkLocal[2] = 15*
 41: 0x03E5 [0x01] GOTO 0x0467
 42: 0x03E8 [0x43] SEND_EVENT_UPDATE: Send pending tag to server (packet 0x005B)
 43: 0x03EA [0x43] SEND_EVENT_UPDATE: Check pending flag (skip if not pending)
 44: 0x03EC [0x03] ExtData[1]->WorkLocal[2] = Work_Zone[2]
 45: 0x03F1 [0x02] IF !(ExtData[1]->WorkLocal[2] == 1*) GOTO 0x03FF
 46: 0x03F9 [0x1A] CALL_SUBROUTINE(address=0x04E4)
 47: 0x03FC [0x01] GOTO 0x0467
 48: 0x03FF [0x02] IF !(ExtData[1]->WorkLocal[2] == 2*) GOTO 0x040D
 49: 0x0407 [0x1A] CALL_SUBROUTINE(address=0x04E4)
 50: 0x040A [0x01] GOTO 0x0467
 51: 0x040D [0x02] IF !(ExtData[1]->WorkLocal[2] == 3*) GOTO 0x042B
 52: 0x0415 [0x02] IF !(ExtData[1]->WorkLocal[3] == 1*) GOTO 0x0428
 53: 0x041D [0x1A] CALL_SUBROUTINE(address=0x06C5)
 54: 0x0420 [0x2B] Vilatroire (ID: 17187503/0x010642AF) [7513*]:
    → "Not all of your members are of the same nationality!"
 55: 0x0427 [0x23] WAIT_FOR_DIALOG_INTERACTION
 56: 0x0428 [0x01] GOTO 0x0467
 57: 0x042B [0x02] IF !(ExtData[1]->WorkLocal[2] == 4*) GOTO 0x0449
 58: 0x0433 [0x02] IF !(ExtData[1]->WorkLocal[3] == 2*) GOTO 0x0446
 59: 0x043B [0x1A] CALL_SUBROUTINE(address=0x06C5)
 60: 0x043E [0x2B] Vilatroire (ID: 17187503/0x010642AF) [7514*]:
    → "Not all of your members are of the same race!"
 61: 0x0445 [0x23] WAIT_FOR_DIALOG_INTERACTION
 62: 0x0446 [0x01] GOTO 0x0467
 63: 0x0449 [0x02] IF !(ExtData[1]->WorkLocal[2] == 5*) GOTO 0x0467
 64: 0x0451 [0x02] IF !(ExtData[1]->WorkLocal[3] == 3*) GOTO 0x0464
 65: 0x0459 [0x1A] CALL_SUBROUTINE(address=0x06C5)
 66: 0x045C [0x2B] Vilatroire (ID: 17187503/0x010642AF) [7515*]:
    → "Not all of your members have the same job!"
 67: 0x0463 [0x23] WAIT_FOR_DIALOG_INTERACTION
 68: 0x0464 [0x01] GOTO 0x0467

SUBROUTINE_0467:
 69: 0x0467 [0x1B] RETURN

SUBROUTINE_0468:
 70: 0x0468 [0x06] ExtData[1]->WorkLocal[0] = 0
 71: 0x046B [0x02] IF !(ExtData[1]->WorkLocal[4] == 0*) GOTO 0x04E3
 72: 0x0473 [0x66] LOAD_EXT_SCHEDULER_MAIN: Load scheduler "tlk0" with entities [Vilatroire (ID: 17187503/0x010642AF), Vilatroire (ID: 17187503/0x010642AF)], work=29*
 73: 0x0482 [0x2B] Vilatroire (ID: 17187503/0x010642AF) [7519*]:
    → "What's that? Are all your party members here?"
 74: 0x0489 [0x23] WAIT_FOR_DIALOG_INTERACTION
 75: 0x048A [0x24] CREATE_DIALOG(message_id=7520*, default_option=1*, option_flags=0*)
    → "Where are your party members? [Present and accounted for./They're not here yet.]"
 76: 0x0491 [0x25] WAIT_DIALOG_SELECT()
 77: 0x0492 [0x02] IF !(Work_Zone[0] == 1*) GOTO 0x04C7
 78: 0x049A [0x03] ExtData[1]->WorkLocal[0] = 1*
 79: 0x049F [0x2B] Vilatroire (ID: 17187503/0x010642AF) [7521*]:
    → "It's takes two not just to tango, but also to form a party. Report to me once you've gathered your comrades. I'll be the judge of their worth."
 80: 0x04A6 [0x23] WAIT_FOR_DIALOG_INTERACTION
 81: 0x04A7 [0x66] LOAD_EXT_SCHEDULER_MAIN: Load scheduler "tlk1" with entities [Vilatroire (ID: 17187503/0x010642AF), Vilatroire (ID: 17187503/0x010642AF)], work=29*
 82: 0x04B6 [0x53] WAIT_SCHEDULER_TASK: Wait for scheduler "tlk1" with entities [Vilatroire (ID: 17187503/0x010642AF), Vilatroire (ID: 17187503/0x010642AF)]
 83: 0x04C3 [0x1B] RETURN

SUBROUTINE_04C7:
 84: 0x04C7 [0x66] LOAD_EXT_SCHEDULER_MAIN: Load scheduler "tlk1" with entities [Vilatroire (ID: 17187503/0x010642AF), Vilatroire (ID: 17187503/0x010642AF)], work=29*
 85: 0x04D6 [0x53] WAIT_SCHEDULER_TASK: Wait for scheduler "tlk1" with entities [Vilatroire (ID: 17187503/0x010642AF), Vilatroire (ID: 17187503/0x010642AF)]
 86: 0x04E3 [0x1B] RETURN

SUBROUTINE_04E4:
 87: 0x04E4 [0x46] CAMERA_CONTROL: Disable user control
 88: 0x04E6 [0x1A] CALL_SUBROUTINE(address=0x0817)
 89: 0x04E9 [0x1A] CALL_SUBROUTINE(address=0x06C5)
 90: 0x04EC [0x2B] Vilatroire (ID: 17187503/0x010642AF) [7512*]:
    → "Hmm...you seem to be short of members. You need more people than just yourself. Bring them here once you've gathered them."
 91: 0x04F3 [0x23] WAIT_FOR_DIALOG_INTERACTION
 92: 0x04F4 [0x1B] RETURN

SUBROUTINE_04F5:
 93: 0x04F5 [0x46] CAMERA_CONTROL: Disable user control
 94: 0x04F7 [0x1A] CALL_SUBROUTINE(address=0x0817)
 95: 0x04FA [0x27] REQ_SET(priority=0x10, entity_id=Chatarre (ID: 17187498/0x010642AA), tag_num=0x0A)
 96: 0x0501 [0x6E] Vilatroire (ID: 17187503/0x010642AF) uses emote 7*
 97: 0x0508 [0x99] Wait for Vilatroire (ID: 17187503/0x010642AF) animation to complete
 98: 0x050D [0x1C] WAIT(15* ticks)
 99: 0x0510 [0x2B] Vilatroire (ID: 17187503/0x010642AF) [7503*]:
    → "Hmm, not bad... Not bad at all. You've done well; few opponents could face your combined might. Good luck!"
100: 0x0517 [0x23] WAIT_FOR_DIALOG_INTERACTION
101: 0x0518 [0x6E] Vilatroire (ID: 17187503/0x010642AF) uses emote 0*
102: 0x051F [0x99] Wait for Vilatroire (ID: 17187503/0x010642AF) animation to complete
103: 0x0524 [0x1C] WAIT(15* ticks)
104: 0x0527 [0x2B] Vilatroire (ID: 17187503/0x010642AF) [7518*]:
    → "Let me give you this as a token of your achievement."
105: 0x052E [0x23] WAIT_FOR_DIALOG_INTERACTION
106: 0x052F [0x2B] Vilatroire (ID: 17187503/0x010642AF) [7524*]:
    → "Good job. You do not compare to us yet, but you're well on your way. Good luck, adventurer!"
107: 0x0536 [0x23] WAIT_FOR_DIALOG_INTERACTION
108: 0x0537 [0x45] LOAD_SCHEDULED_TASK: Load scheduler "qstc" with entities [LocalPlayer, LocalPlayer], work=[201*, 0*]
109: 0x0548 [0x1B] RETURN

SUBROUTINE_0549:
110: 0x0549 [0x46] CAMERA_CONTROL: Disable user control
111: 0x054B [0x1A] CALL_SUBROUTINE(address=0x0817)
112: 0x054E [0x27] REQ_SET(priority=0x10, entity_id=Chatarre (ID: 17187498/0x010642AA), tag_num=0x0A)
113: 0x0555 [0x27] REQ_SET(priority=0x10, entity_id=Ramaufont (ID: 17187499/0x010642AB), tag_num=0x0A)
114: 0x055C [0x27] REQ_SET(priority=0x10, entity_id=Diadonour (ID: 17187500/0x010642AC), tag_num=0x0A)
115: 0x0563 [0x6E] Vilatroire (ID: 17187503/0x010642AF) uses emote 7*
116: 0x056A [0x99] Wait for Vilatroire (ID: 17187503/0x010642AF) animation to complete
117: 0x056F [0x1C] WAIT(15* ticks)
118: 0x0572 [0x2B] Vilatroire (ID: 17187503/0x010642AF) [7506*]:
    → "As I thought, a party of the same race presents a formidable unity that is rarely seen! Treasure your bond, and you will go far."
119: 0x0579 [0x23] WAIT_FOR_DIALOG_INTERACTION
120: 0x057A [0x6E] Vilatroire (ID: 17187503/0x010642AF) uses emote 0*
121: 0x0581 [0x99] Wait for Vilatroire (ID: 17187503/0x010642AF) animation to complete
122: 0x0586 [0x1C] WAIT(15* ticks)
123: 0x0589 [0x2B] Vilatroire (ID: 17187503/0x010642AF) [7518*]:
    → "Let me give you this as a token of your achievement."
124: 0x0590 [0x23] WAIT_FOR_DIALOG_INTERACTION
125: 0x0591 [0x2B] Vilatroire (ID: 17187503/0x010642AF) [7524*]:
    → "Good job. You do not compare to us yet, but you're well on your way. Good luck, adventurer!"
126: 0x0598 [0x23] WAIT_FOR_DIALOG_INTERACTION
127: 0x0599 [0x45] LOAD_SCHEDULED_TASK: Load scheduler "qstc" with entities [LocalPlayer, LocalPlayer], work=[201*, 0*]
128: 0x05AA [0x1B] RETURN

SUBROUTINE_05AB:
129: 0x05AB [0x46] CAMERA_CONTROL: Disable user control
130: 0x05AD [0x1A] CALL_SUBROUTINE(address=0x0817)
131: 0x05B0 [0x27] REQ_SET(priority=0x10, entity_id=Chatarre (ID: 17187498/0x010642AA), tag_num=0x0A)
132: 0x05B7 [0x27] REQ_SET(priority=0x10, entity_id=Ramaufont (ID: 17187499/0x010642AB), tag_num=0x0A)
133: 0x05BE [0x27] REQ_SET(priority=0x10, entity_id=Diadonour (ID: 17187500/0x010642AC), tag_num=0x0A)
134: 0x05C5 [0x27] REQ_SET(priority=0x10, entity_id=Cerite (ID: 17187501/0x010642AD), tag_num=0x0A)
135: 0x05CC [0x27] REQ_SET(priority=0x10, entity_id=Laette (ID: 17187502/0x010642AE), tag_num=0x0A)
136: 0x05D3 [0x6E] Vilatroire (ID: 17187503/0x010642AF) uses emote 7*
137: 0x05DA [0x99] Wait for Vilatroire (ID: 17187503/0x010642AF) animation to complete
138: 0x05DF [0x1C] WAIT(15* ticks)
139: 0x05E2 [0x2B] Vilatroire (ID: 17187503/0x010642AF) [7509*]:
    → "Excellent! Well done! I believe you've learned the value of teamwork."
140: 0x05E9 [0x23] WAIT_FOR_DIALOG_INTERACTION
141: 0x05EA [0x4E] SET_ENTITY_HIDE_FLAG: Hide LocalPlayer
142: 0x05F0 [0x45] LOAD_SCHEDULED_TASK: Load scheduler "sg02" with entities [LocalPlayer, LocalPlayer], work=[0*, 0*]
143: 0x0601 [0x66] LOAD_EXT_SCHEDULER_MAIN: Load scheduler "tlk0" with entities [Vilatroire (ID: 17187503/0x010642AF), Vilatroire (ID: 17187503/0x010642AF)], work=29*
144: 0x0610 [0x2B] Vilatroire (ID: 17187503/0x010642AF) [7510*]:
    → "You may not measure up to my elite squad here, but keep at it, and someday, maybe you'll win a post here in the watchtower."
145: 0x0617 [0x23] WAIT_FOR_DIALOG_INTERACTION
146: 0x0618 [0x6E] Vilatroire (ID: 17187503/0x010642AF) uses emote 0*
147: 0x061F [0x99] Wait for Vilatroire (ID: 17187503/0x010642AF) animation to complete
148: 0x0624 [0x1C] WAIT(15* ticks)
149: 0x0627 [0x2B] Vilatroire (ID: 17187503/0x010642AF) [7511*]:
    → "I give you this to commemorate your achievement, and the strength of your party. May you and your comrades-in-arms grow in strength, and prosper."
150: 0x062E [0x23] WAIT_FOR_DIALOG_INTERACTION
151: 0x062F [0x45] LOAD_SCHEDULED_TASK: Load scheduler "qstc" with entities [LocalPlayer, LocalPlayer], work=[201*, 0*]
152: 0x0640 [0x55] WAIT_LOAD_SCHEDULER: Wait for scheduler "sg02" with entities [LocalPlayer, LocalPlayer], work=0*
153: 0x064F [0x4E] SET_ENTITY_HIDE_FLAG: Show LocalPlayer
154: 0x0655 [0x1B] RETURN

SUBROUTINE_06C5:
155: 0x06C5 [0x27] REQ_SET(priority=0x10, entity_id=Chatarre (ID: 17187498/0x010642AA), tag_num=0x0D)
156: 0x06CC [0x27] REQ_SET(priority=0x10, entity_id=Ramaufont (ID: 17187499/0x010642AB), tag_num=0x0D)
157: 0x06D3 [0x27] REQ_SET(priority=0x10, entity_id=Diadonour (ID: 17187500/0x010642AC), tag_num=0x0D)
158: 0x06DA [0x27] REQ_SET(priority=0x10, entity_id=Cerite (ID: 17187501/0x010642AD), tag_num=0x0D)
159: 0x06E1 [0x27] REQ_SET(priority=0x10, entity_id=Laette (ID: 17187502/0x010642AE), tag_num=0x0D)
160: 0x06E8 [0x6E] Vilatroire (ID: 17187503/0x010642AF) uses emote 6*
161: 0x06EF [0x99] Wait for Vilatroire (ID: 17187503/0x010642AF) animation to complete
162: 0x06F4 [0x1C] WAIT(15* ticks)
163: 0x06F7 [0x1B] RETURN

SUBROUTINE_0817:
164: 0x0817 [0x1A] CALL_SUBROUTINE(address=0x0AC3)
165: 0x081A [0x1C] WAIT(15* ticks)
166: 0x081D [0x27] REQ_SET(priority=0x10, entity_id=Chatarre (ID: 17187498/0x010642AA), tag_num=0x09)
167: 0x0824 [0x27] REQ_SET(priority=0x10, entity_id=Ramaufont (ID: 17187499/0x010642AB), tag_num=0x09)
168: 0x082B [0x27] REQ_SET(priority=0x10, entity_id=Diadonour (ID: 17187500/0x010642AC), tag_num=0x09)
169: 0x0832 [0x27] REQ_SET(priority=0x10, entity_id=Cerite (ID: 17187501/0x010642AD), tag_num=0x09)
170: 0x0839 [0x27] REQ_SET(priority=0x10, entity_id=Laette (ID: 17187502/0x010642AE), tag_num=0x09)
171: 0x0840 [0x37] UPDATE_EVENT_POSITION_AND_DIR: x=-263.433*, z=420.190*, y=-71.250*, direction=358.3°*
172: 0x0849 [0x27] REQ_SET(priority=0x10, entity_id=LocalPlayer, tag_num=0x06)
173: 0x0850 [0x79] LocalPlayer looks at Vilatroire (ID: 17187503/0x010642AF) (Basic look)
174: 0x085A [0x79] Vilatroire (ID: 17187503/0x010642AF) looks at LocalPlayer (Basic look)
175: 0x0864 [0x45] LOAD_SCHEDULED_TASK: Load scheduler "sg03" with entities [LocalPlayer, LocalPlayer], work=[0*, 0*]
176: 0x0875 [0x1C] WAIT(45* ticks)
177: 0x0878 [0x1A] CALL_SUBROUTINE(address=0x0AE7)
178: 0x087B [0x1B] RETURN

SUBROUTINE_0AC3:
179: 0x0AC3 [0x45] LOAD_SCHEDULED_TASK: Load scheduler "fdo0" with entities [LocalPlayer, LocalPlayer], work=[200*, 0*]
180: 0x0AD4 [0x55] WAIT_LOAD_SCHEDULER: Wait for scheduler "fdo0" with entities [LocalPlayer, LocalPlayer], work=200*
181: 0x0AE3 [0x38] SET_CLIENT_EVENT_MODE(mode=19*)
182: 0x0AE6 [0x1B] RETURN

SUBROUTINE_0AE7:
183: 0x0AE7 [0x45] LOAD_SCHEDULED_TASK: Load scheduler "fdi1" with entities [LocalPlayer, LocalPlayer], work=[200*, 0*]
184: 0x0AF8 [0x55] WAIT_LOAD_SCHEDULER: Wait for scheduler "fdi1" with entities [LocalPlayer, LocalPlayer], work=200*
185: 0x0B07 [0x1B] RETURN
```

#### Data or dead code:

```
# Dead code (unreachable instructions):
     0x04C4 [0x01] GOTO 0x04C7
# Dead code (unreachable instructions):
     0x0656 [0x66] LOAD_EXT_SCHEDULER_MAIN: Load scheduler "tlk1" with entities [Vilatroire (ID: 17187503/0x010642AF), Vilatroire (ID: 17187503/0x010642AF)], work=29*
     0x0665 [0x53] WAIT_SCHEDULER_TASK: Wait for scheduler "tlk1" with entities [Vilatroire (ID: 17187503/0x010642AF), Vilatroire (ID: 17187503/0x010642AF)]
     0x0672 [0x27] REQ_SET(priority=0x10, entity_id=Chatarre (ID: 17187498/0x010642AA), tag_num=0x0B)
     0x0679 [0x27] REQ_SET(priority=0x10, entity_id=Ramaufont (ID: 17187499/0x010642AB), tag_num=0x0B)
     0x0680 [0x27] REQ_SET(priority=0x10, entity_id=Diadonour (ID: 17187500/0x010642AC), tag_num=0x0B)
     0x0687 [0x27] REQ_SET(priority=0x10, entity_id=Cerite (ID: 17187501/0x010642AD), tag_num=0x0B)
     0x068E [0x27] REQ_SET(priority=0x10, entity_id=Laette (ID: 17187502/0x010642AE), tag_num=0x0B)
     0x0695 [0x6E] Vilatroire (ID: 17187503/0x010642AF) uses emote 36*
     0x069C [0x99] Wait for Vilatroire (ID: 17187503/0x010642AF) animation to complete
     0x06A1 [0x45] LOAD_SCHEDULED_TASK: Load scheduler "sg04" with entities [LocalPlayer, LocalPlayer], work=[0*, 0*]
     0x06B2 [0x27] REQ_SET(priority=0x10, entity_id=LocalPlayer, tag_num=0x07)
     0x06B9 [0x2B] Vilatroire (ID: 17187503/0x010642AF) [7517*]:
    → "Now, go! Wonders and fortune await you, adventurer!"
     0x06C0 [0x23] WAIT_FOR_DIALOG_INTERACTION
     0x06C1 [0x1C] WAIT(30* ticks)
     0x06C4 [0x1B] RETURN
# Dead code (unreachable instructions):
     0x06F8 [0x42] SET_CLI_EVENT_CANCEL_DATA()
     0x06F9 [0x06] Work_Zone[1] = 0
     0x06FC [0x66] LOAD_EXT_SCHEDULER_MAIN: Load scheduler 0xFEFEFE00 with entities [Vilatroire (ID: 17187503/0x010642AF), Vilatroire (ID: 17187503/0x010642AF)], work=29*
     0x070B [0x1E] EventEntity looks at LocalPlayer and starts talking
     0x0710 [0x1C] WAIT(15* ticks)
     0x0713 [0x4A] LocalPlayer looks at EventEntity
     0x071C [0x6F] WAIT_FRAME_DELAY: Yield until WaitTime reaches zero
     0x071D [0x76] CHECK_ENTITY_RENDER_FLAGS: Wait until LocalPlayer Render.Flags0 and Render.Flags3 conditions are met
     0x0722 [0x1A] CALL_SUBROUTINE(address=0x0AC3)
     0x0725 [0x1C] WAIT(15* ticks)
     0x0728 [0x46] CAMERA_CONTROL: Disable user control
     0x072A [0x29] REQ_SET_WAIT(priority=0x10, entity_id=LocalPlayer, tag_num=0x05)
     0x0731 [0x79] LocalPlayer looks at Vilatroire (ID: 17187503/0x010642AF) (Basic look)
     0x073B [0x79] Vilatroire (ID: 17187503/0x010642AF) looks at LocalPlayer (Basic look)
     0x0745 [0x1C] WAIT(1* ticks)
     0x0748 [0x4A] Vilatroire (ID: 17187503/0x010642AF) looks at LocalPlayer
     0x0751 [0x6F] WAIT_FRAME_DELAY: Yield until WaitTime reaches zero
     0x0752 [0x76] CHECK_ENTITY_RENDER_FLAGS: Wait until Vilatroire (ID: 17187503/0x010642AF) Render.Flags0 and Render.Flags3 conditions are met
     0x0757 [0x46] CAMERA_CONTROL: Disable user control
     0x0759 [0x66] LOAD_EXT_SCHEDULER_MAIN: Load scheduler "tlk0" with entities [Vilatroire (ID: 17187503/0x010642AF), Vilatroire (ID: 17187503/0x010642AF)], work=29*
     0x0768 [0x45] LOAD_SCHEDULED_TASK: Load scheduler "sg05" with entities [LocalPlayer, LocalPlayer], work=[0*, 0*]
     0x0779 [0x1A] CALL_SUBROUTINE(address=0x0AE7)
     0x077C [0x1B] RETURN
     0x077D [0x66] LOAD_EXT_SCHEDULER_MAIN: Load scheduler "tlk1" with entities [Vilatroire (ID: 17187503/0x010642AF), Vilatroire (ID: 17187503/0x010642AF)], work=29*
     0x078C [0x53] WAIT_SCHEDULER_TASK: Wait for scheduler "tlk1" with entities [Vilatroire (ID: 17187503/0x010642AF), Vilatroire (ID: 17187503/0x010642AF)]
     0x0799 [0x6E] Vilatroire (ID: 17187503/0x010642AF) uses emote 13*
     0x07A0 [0x99] Wait for Vilatroire (ID: 17187503/0x010642AF) animation to complete
     0x07A5 [0x1C] WAIT(105* ticks)
     0x07A8 [0x45] LOAD_SCHEDULED_TASK: Load scheduler "sg06" with entities [LocalPlayer, LocalPlayer], work=[0*, 0*]
     0x07B9 [0x4A] Cerite (ID: 17187501/0x010642AD) looks at LocalPlayer
     0x07C2 [0x1C] WAIT(20* ticks)
     0x07C5 [0x45] LOAD_SCHEDULED_TASK: Load scheduler "sg07" with entities [LocalPlayer, LocalPlayer], work=[0*, 0*]
     0x07D6 [0x4A] Chatarre (ID: 17187498/0x010642AA) looks at LocalPlayer
     0x07DF [0x1C] WAIT(10* ticks)
     0x07E2 [0x4A] Laette (ID: 17187502/0x010642AE) looks at LocalPlayer
     0x07EB [0x1C] WAIT(10* ticks)
     0x07EE [0x45] LOAD_SCHEDULED_TASK: Load scheduler "sg08" with entities [LocalPlayer, LocalPlayer], work=[0*, 0*]
     0x07FF [0x4A] Diadonour (ID: 17187500/0x010642AC) looks at LocalPlayer
     0x0808 [0x1C] WAIT(10* ticks)
     0x080B [0x4A] Ramaufont (ID: 17187499/0x010642AB) looks at LocalPlayer
     0x0814 [0x1C] WAIT(10* ticks)
# Dead code (unreachable instructions):
     0x087C [0x45] LOAD_SCHEDULED_TASK: Load scheduler "sg03" with entities [LocalPlayer, LocalPlayer], work=[0*, 0*]
     0x088D [0x66] LOAD_EXT_SCHEDULER_MAIN: Load scheduler "tlk1" with entities [Vilatroire (ID: 17187503/0x010642AF), Vilatroire (ID: 17187503/0x010642AF)], work=29*
     0x089C [0x24] CREATE_DIALOG(message_id=7501*, default_option=1*, option_flags=0*)
    → "Try forming a party? [Let's give it a go!/Not now, thanks.]"
     0x08A3 [0x25] WAIT_DIALOG_SELECT()
     0x08A4 [0x02] IF !(Work_Zone[0] == 0*) GOTO 0x0936
     0x08AC [0x03] Work_Zone[1] = 1*
     0x08B1 [0x6E] LocalPlayer uses emote 7*
     0x08B8 [0x99] Wait for LocalPlayer animation to complete
     0x08BD [0x1C] WAIT(5* ticks)
     0x08C0 [0x53] WAIT_SCHEDULER_TASK: Wait for scheduler "tlk1" with entities [Vilatroire (ID: 17187503/0x010642AF), Vilatroire (ID: 17187503/0x010642AF)]
     0x08CD [0x6E] Vilatroire (ID: 17187503/0x010642AF) uses emote 7*
     0x08D4 [0x99] Wait for Vilatroire (ID: 17187503/0x010642AF) animation to complete
     0x08D9 [0x1C] WAIT(15* ticks)
     0x08DC [0x2B] Vilatroire (ID: 17187503/0x010642AF) [7502*]:
    → "Very well. Let me know when you've collected all your party members. I'll be the judge of whether you've put together a working party or not."
     0x08E3 [0x23] WAIT_FOR_DIALOG_INTERACTION
     0x08E4 [0x27] REQ_SET(priority=0x10, entity_id=Chatarre (ID: 17187498/0x010642AA), tag_num=0x0B)
     0x08EB [0x27] REQ_SET(priority=0x10, entity_id=Ramaufont (ID: 17187499/0x010642AB), tag_num=0x0B)
     0x08F2 [0x27] REQ_SET(priority=0x10, entity_id=Diadonour (ID: 17187500/0x010642AC), tag_num=0x0B)
     0x08F9 [0x27] REQ_SET(priority=0x10, entity_id=Cerite (ID: 17187501/0x010642AD), tag_num=0x0B)
     0x0900 [0x27] REQ_SET(priority=0x10, entity_id=Laette (ID: 17187502/0x010642AE), tag_num=0x0B)
     0x0907 [0x6E] Vilatroire (ID: 17187503/0x010642AF) uses emote 36*
     0x090E [0x99] Wait for Vilatroire (ID: 17187503/0x010642AF) animation to complete
     0x0913 [0x45] LOAD_SCHEDULED_TASK: Load scheduler "sg04" with entities [LocalPlayer, LocalPlayer], work=[0*, 0*]
     0x0924 [0x27] REQ_SET(priority=0x10, entity_id=LocalPlayer, tag_num=0x07)
     0x092B [0x2B] Vilatroire (ID: 17187503/0x010642AF) [7517*]:
    → "Now, go! Wonders and fortune await you, adventurer!"
     0x0932 [0x23] WAIT_FOR_DIALOG_INTERACTION
     0x0933 [0x01] GOTO 0x098A
     0x0936 [0x02] IF !(Work_Zone[0] == 1*) GOTO 0x098A
     0x093E [0x6E] LocalPlayer uses emote 6*
     0x0945 [0x99] Wait for LocalPlayer animation to complete
     0x094A [0x1C] WAIT(15* ticks)
     0x094D [0x27] REQ_SET(priority=0x10, entity_id=Chatarre (ID: 17187498/0x010642AA), tag_num=0x0C)
     0x0954 [0x27] REQ_SET(priority=0x10, entity_id=Ramaufont (ID: 17187499/0x010642AB), tag_num=0x0C)
     0x095B [0x27] REQ_SET(priority=0x10, entity_id=Diadonour (ID: 17187500/0x010642AC), tag_num=0x0C)
     0x0962 [0x27] REQ_SET(priority=0x10, entity_id=Cerite (ID: 17187501/0x010642AD), tag_num=0x0C)
     0x0969 [0x27] REQ_SET(priority=0x10, entity_id=Laette (ID: 17187502/0x010642AE), tag_num=0x0C)
     0x0970 [0x6E] Vilatroire (ID: 17187503/0x010642AF) uses emote 5*
     0x0977 [0x99] Wait for Vilatroire (ID: 17187503/0x010642AF) animation to complete
     0x097C [0x1C] WAIT(15* ticks)
     0x097F [0x2B] Vilatroire (ID: 17187503/0x010642AF) [7516*]:
    → "I see... Too bad, that."
     0x0986 [0x23] WAIT_FOR_DIALOG_INTERACTION
     0x0987 [0x01] GOTO 0x098A
     0x098A [0x1A] CALL_SUBROUTINE(address=0x0AC3)
     0x098D [0x1C] WAIT(30* ticks)
     0x0990 [0x45] LOAD_SCHEDULED_TASK: Load scheduler "fdi2" with entities [LocalPlayer, LocalPlayer], work=[200*, 0*]
     0x09A1 [0x46] CAMERA_CONTROL: Restore default settings
     0x09A3 [0x1B] RETURN
     0x09A4 [0x42] SET_CLI_EVENT_CANCEL_DATA()
     0x09A5 [0x06] Work_Zone[1] = 0
     0x09A8 [0x66] LOAD_EXT_SCHEDULER_MAIN: Load scheduler 0xFEFEFE00 with entities [Vilatroire (ID: 17187503/0x010642AF), Vilatroire (ID: 17187503/0x010642AF)], work=29*
     0x09B7 [0x1E] EventEntity looks at LocalPlayer and starts talking
     0x09BC [0x1C] WAIT(15* ticks)
     0x09BF [0x66] LOAD_EXT_SCHEDULER_MAIN: Load scheduler "tlk0" with entities [Vilatroire (ID: 17187503/0x010642AF), Vilatroire (ID: 17187503/0x010642AF)], work=29*
     0x09CE [0x2B] Vilatroire (ID: 17187503/0x010642AF) [7527*]:
    → "So, ready to take my test?"
     0x09D5 [0x23] WAIT_FOR_DIALOG_INTERACTION
     0x09D6 [0x66] LOAD_EXT_SCHEDULER_MAIN: Load scheduler "tlk1" with entities [Vilatroire (ID: 17187503/0x010642AF), Vilatroire (ID: 17187503/0x010642AF)], work=29*
     0x09E5 [0x24] CREATE_DIALOG(message_id=7501*, default_option=1*, option_flags=0*)
    → "Try forming a party? [Let's give it a go!/Not now, thanks.]"
     0x09EC [0x25] WAIT_DIALOG_SELECT()
     0x09ED [0x02] IF !(Work_Zone[0] == 0*) GOTO 0x0A8E
     0x09F5 [0x46] CAMERA_CONTROL: Disable user control
     0x09F7 [0x1A] CALL_SUBROUTINE(address=0x0817)
     0x09FA [0x03] Work_Zone[1] = 1*
     0x09FF [0x53] WAIT_SCHEDULER_TASK: Wait for scheduler "tlk1" with entities [Vilatroire (ID: 17187503/0x010642AF), Vilatroire (ID: 17187503/0x010642AF)]
     0x0A0C [0x6E] Vilatroire (ID: 17187503/0x010642AF) uses emote 7*
     0x0A13 [0x99] Wait for Vilatroire (ID: 17187503/0x010642AF) animation to complete
     0x0A18 [0x1C] WAIT(15* ticks)
     0x0A1B [0x2B] Vilatroire (ID: 17187503/0x010642AF) [7528*]:
    → "That's the answer I was waiting for! Report to me when you've gathered all your members. I'll be the judge of their worth."
     0x0A22 [0x23] WAIT_FOR_DIALOG_INTERACTION
     0x0A23 [0x27] REQ_SET(priority=0x10, entity_id=Chatarre (ID: 17187498/0x010642AA), tag_num=0x0B)
     0x0A2A [0x27] REQ_SET(priority=0x10, entity_id=Ramaufont (ID: 17187499/0x010642AB), tag_num=0x0B)
     0x0A31 [0x27] REQ_SET(priority=0x10, entity_id=Diadonour (ID: 17187500/0x010642AC), tag_num=0x0B)
     0x0A38 [0x27] REQ_SET(priority=0x10, entity_id=Cerite (ID: 17187501/0x010642AD), tag_num=0x0B)
     0x0A3F [0x27] REQ_SET(priority=0x10, entity_id=Laette (ID: 17187502/0x010642AE), tag_num=0x0B)
     0x0A46 [0x6E] Vilatroire (ID: 17187503/0x010642AF) uses emote 36*
     0x0A4D [0x99] Wait for Vilatroire (ID: 17187503/0x010642AF) animation to complete
     0x0A52 [0x45] LOAD_SCHEDULED_TASK: Load scheduler "sg04" with entities [LocalPlayer, LocalPlayer], work=[0*, 0*]
     0x0A63 [0x27] REQ_SET(priority=0x10, entity_id=LocalPlayer, tag_num=0x07)
     0x0A6A [0x2B] Vilatroire (ID: 17187503/0x010642AF) [7517*]:
    → "Now, go! Wonders and fortune await you, adventurer!"
     0x0A71 [0x23] WAIT_FOR_DIALOG_INTERACTION
     0x0A72 [0x1A] CALL_SUBROUTINE(address=0x0AC3)
     0x0A75 [0x1C] WAIT(30* ticks)
     0x0A78 [0x45] LOAD_SCHEDULED_TASK: Load scheduler "fdi2" with entities [LocalPlayer, LocalPlayer], work=[200*, 0*]
     0x0A89 [0x46] CAMERA_CONTROL: Restore default settings
     0x0A8B [0x01] GOTO 0x0AA1
     0x0A8E [0x02] IF !(Work_Zone[0] == 1*) GOTO 0x0AA1
     0x0A96 [0x2B] Vilatroire (ID: 17187503/0x010642AF) [7516*]:
    → "I see... Too bad, that."
     0x0A9D [0x23] WAIT_FOR_DIALOG_INTERACTION
     0x0A9E [0x01] GOTO 0x0AA1
     0x0AA1 [0x1B] RETURN
     0x0AA2 [0x45] LOAD_SCHEDULED_TASK: Load scheduler "fdi0" with entities [LocalPlayer, LocalPlayer], work=[200*, 0*]
     0x0AB3 [0x55] WAIT_LOAD_SCHEDULER: Wait for scheduler "fdi0" with entities [LocalPlayer, LocalPlayer], work=200*
     0x0AC2 [0x1B] RETURN
# Dead code (unreachable instructions):
     0x0B08 [0x45] LOAD_SCHEDULED_TASK: Load scheduler "fdo1" with entities [LocalPlayer, LocalPlayer], work=[200*, 0*]
     0x0B19 [0x55] WAIT_LOAD_SCHEDULER: Wait for scheduler "fdo1" with entities [LocalPlayer, LocalPlayer], work=200*
     0x0B28 [0x1B] RETURN
```
