# 17187493 - Esca

## Common Data

| Field            | Value                   |
|------------------|-------------------------|
| Zone             | West Ronfaure (ID: 100) |
| Block Size       | 484 bytes               |
| Total Events     | 18                      |
| References Count | 22                      |

## List of Events

| Event ID                 | Entrypoint   |   Size |   Instructions |
|--------------------------|--------------|--------|----------------|
| [65535](#event-65535)    | 0x0000       |      1 |              1 |
| [119](#event-119)        | 0x0001       |      6 |              4 |
| [123](#event-123)        | 0x0007       |     11 |              5 |
| [120](#event-120)        | 0x0012       |     19 |              9 |
| [121](#event-121)        | 0x0025       |     35 |             14 |
| [122](#event-122)        | 0x0048       |     14 |              7 |
| [128](#event-128)        | 0x0056       |     15 |              7 |
| [137](#event-137)        | 0x0065       |      1 |              1 |
| [138](#event-138)        | 0x0066       |     11 |              5 |
| [65535.1](#event-655351) | 0x0071       |     24 |              6 |
| [65535.2](#event-655352) | 0x0089       |     12 |              4 |
| [65535.3](#event-655353) | 0x0095       |      4 |              2 |
| [65535.4](#event-655354) | 0x0099       |     29 |              3 |
| [65535.5](#event-655355) | 0x00B6       |      9 |              3 |
| [65535.6](#event-655356) | 0x00BF       |     29 |              3 |
| [65535.7](#event-655357) | 0x00DC       |     29 |              3 |
| [65535.8](#event-655358) | 0x00F9       |     29 |              3 |
| [65535.9](#event-655359) | 0x0116       |     29 |              3 |

## DAT References (imed_data)

|   Index | Hex Value   |   Dec Value |
|---------|-------------|-------------|
|       0 | 0x1CD9      |        7385 |
|       1 | 0x1CE1      |        7393 |
|       2 | 0x1CDA      |        7386 |
|       3 | 0x1CDB      |        7387 |
|       4 | 0x1CDC      |        7388 |
|       5 | 0x0242      |         578 |
|       6 | 0x1CDD      |        7389 |
|       7 | 0x003C      |          60 |
|       8 | 0x1CDE      |        7390 |
|       9 | 0x0243      |         579 |
|      10 | 0x1CDF      |        7391 |
|      11 | 0x1CE0      |        7392 |
|      12 | 0x1CE2      |        7394 |
|      13 | 0x1CE3      |        7395 |
|      14 | 0x1EE9      |        7913 |
|      15 | 0x000D      |          13 |
|      16 | 0xFFF67D7C  |  4294344060 |
|      17 | 0x44A91     |      281233 |
|      18 | 0xFFFF36D5  |  4294915797 |
|      19 | 0xFFF67EAB  |  4294344363 |
|      20 | 0x44525     |      279845 |
|      21 | 0x001E      |          30 |

## String References

- **7385**: What do you want? I'm busy, so make it quick.
- **7386**: Me, a pickpocket? Is this the way of adventurers today, chasing down and accusing ladies of crimes? And without proof, I might add!
- **7387**: Just who do you think you are? Look, let's just forget this little meeting ever happened. Good day!
- **7388**: What!? If you insist on playing the sheriff, I suggest you bring evidence!
- **7389**: What's that? Say, that $0, that's mine! I must have dropped it when I ran into you at the dock...
- **7390**: Whoops, I've gone and said it now.
- **7391**: Fine. Here's those worthless $1 back. Satisfied? Good. Now off with you!
- **7392**: What's this? You should know better than to drop whatever you please in someone's residence!
- **7393**: What is it!? If you've no further business here, leave!
- **7394**: What? You lost the glasses!?
- **7395**: I may be a thief, but I'm not the lost and found! Go find them on your own!
- **7913**: The armor is buried on a small island that can be reached through the Eldieme Necropolis. A monster has been put on guard over the spot, though, so don't think you can just waltz in and scoop it up.

## Events

### Event 65535

#### Metadata

| Field        | Value   |
|--------------|---------|
| Entrypoint   | 0x0000  |
| Data Size    | 1 bytes |
| Instructions | 1       |

```
      00 01 02 03 04 05 06 07  08 09 0A 0B 0C 0D 0E 0F
      -- -- -- -- -- -- -- --  -- -- -- -- -- -- -- --
0000: 00                                                .               
```

#### Opcodes

```
  0: 0x0000 [0x00] END_REQSTACK()
```

### Event 119

#### Metadata

| Field        | Value   |
|--------------|---------|
| Entrypoint   | 0x0001  |
| Data Size    | 6 bytes |
| Instructions | 4       |

```
      00 01 02 03 04 05 06 07  08 09 0A 0B 0C 0D 0E 0F
      -- -- -- -- -- -- -- --  -- -- -- -- -- -- -- --
0000:    1D 00 80 23 21 00                               ...#!.         
```

#### Opcodes

```
  0: 0x0001 [0x1D] PRINT_EVENT_MESSAGE(message_id=7385*)
    → "What do you want? I'm busy, so make it quick."
  1: 0x0004 [0x23] WAIT_FOR_DIALOG_INTERACTION
  2: 0x0005 [0x21] END_EVENT
  3: 0x0006 [0x00] END_REQSTACK()
```

### Event 123

#### Metadata

| Field        | Value    |
|--------------|----------|
| Entrypoint   | 0x0007   |
| Data Size    | 11 bytes |
| Instructions | 5        |

```
      00 01 02 03 04 05 06 07  08 09 0A 0B 0C 0D 0E 0F
      -- -- -- -- -- -- -- --  -- -- -- -- -- -- -- --
0000:                      1E  F0 FF FF 7F 1D 01 80 23         ........#
0010: 21 00                                             !.              
```

#### Opcodes

```
  0: 0x0007 [0x1E] EventEntity looks at LocalPlayer and starts talking
  1: 0x000C [0x1D] PRINT_EVENT_MESSAGE(message_id=7393*)
    → "What is it!? If you've no further business here, leave!"
  2: 0x000F [0x23] WAIT_FOR_DIALOG_INTERACTION
  3: 0x0010 [0x21] END_EVENT
  4: 0x0011 [0x00] END_REQSTACK()
```

### Event 120

#### Metadata

| Field        | Value    |
|--------------|----------|
| Entrypoint   | 0x0012   |
| Data Size    | 19 bytes |
| Instructions | 9        |

```
      00 01 02 03 04 05 06 07  08 09 0A 0B 0C 0D 0E 0F
      -- -- -- -- -- -- -- --  -- -- -- -- -- -- -- --
0010:       1E F0 FF FF 7F 1D  02 80 23 1D 03 80 23 1D    ........#...#.
0020: 04 80 23 21 00                                    ..#!.           
```

#### Opcodes

```
  0: 0x0012 [0x1E] EventEntity looks at LocalPlayer and starts talking
  1: 0x0017 [0x1D] PRINT_EVENT_MESSAGE(message_id=7386*)
    → "Me, a pickpocket? Is this the way of adventurers today, chasing down and accusing ladies of crimes? And without proof, I might add!"
  2: 0x001A [0x23] WAIT_FOR_DIALOG_INTERACTION
  3: 0x001B [0x1D] PRINT_EVENT_MESSAGE(message_id=7387*)
    → "Just who do you think you are? Look, let's just forget this little meeting ever happened. Good day!"
  4: 0x001E [0x23] WAIT_FOR_DIALOG_INTERACTION
  5: 0x001F [0x1D] PRINT_EVENT_MESSAGE(message_id=7388*)
    → "What!? If you insist on playing the sheriff, I suggest you bring evidence!"
  6: 0x0022 [0x23] WAIT_FOR_DIALOG_INTERACTION
  7: 0x0023 [0x21] END_EVENT
  8: 0x0024 [0x00] END_REQSTACK()
```

### Event 121

#### Metadata

| Field        | Value    |
|--------------|----------|
| Entrypoint   | 0x0025   |
| Data Size    | 35 bytes |
| Instructions | 14       |

```
      00 01 02 03 04 05 06 07  08 09 0A 0B 0C 0D 0E 0F
      -- -- -- -- -- -- -- --  -- -- -- -- -- -- -- --
0020:                42 20 01  1E F0 FF FF 7F 03 02 10       B .........
0030: 05 80 1D 06 80 23 1C 07  80 1D 08 80 23 03 03 10  .....#......#...
0040: 09 80 1D 0A 80 23 21 00                           .....#!.        
```

#### Opcodes

```
  0: 0x0025 [0x42] SET_CLI_EVENT_CANCEL_DATA()
  1: 0x0026 [0x20] SET_CLI_EVENT_UC_FLAG: Lock player control
  2: 0x0028 [0x1E] EventEntity looks at LocalPlayer and starts talking
  3: 0x002D [0x03] Work_Zone[2] = 578*
  4: 0x0032 [0x1D] PRINT_EVENT_MESSAGE(message_id=7389*)
    → "What's that? Say, that $0, that's mine! I must have dropped it when I ran into you at the dock..."
  5: 0x0035 [0x23] WAIT_FOR_DIALOG_INTERACTION
  6: 0x0036 [0x1C] WAIT(60* ticks)
  7: 0x0039 [0x1D] PRINT_EVENT_MESSAGE(message_id=7390*)
    → "Whoops, I've gone and said it now."
  8: 0x003C [0x23] WAIT_FOR_DIALOG_INTERACTION
  9: 0x003D [0x03] Work_Zone[3] = 579*
 10: 0x0042 [0x1D] PRINT_EVENT_MESSAGE(message_id=7391*)
    → "Fine. Here's those worthless $1 back. Satisfied? Good. Now off with you!"
 11: 0x0045 [0x23] WAIT_FOR_DIALOG_INTERACTION
 12: 0x0046 [0x21] END_EVENT
 13: 0x0047 [0x00] END_REQSTACK()
```

### Event 122

#### Metadata

| Field        | Value    |
|--------------|----------|
| Entrypoint   | 0x0048   |
| Data Size    | 14 bytes |
| Instructions | 7        |

```
      00 01 02 03 04 05 06 07  08 09 0A 0B 0C 0D 0E 0F
      -- -- -- -- -- -- -- --  -- -- -- -- -- -- -- --
0040:                          42 20 01 1E F0 FF FF 7F          B ......
0050: 1D 0B 80 23 21 00                                 ...#!.          
```

#### Opcodes

```
  0: 0x0048 [0x42] SET_CLI_EVENT_CANCEL_DATA()
  1: 0x0049 [0x20] SET_CLI_EVENT_UC_FLAG: Lock player control
  2: 0x004B [0x1E] EventEntity looks at LocalPlayer and starts talking
  3: 0x0050 [0x1D] PRINT_EVENT_MESSAGE(message_id=7392*)
    → "What's this? You should know better than to drop whatever you please in someone's residence!"
  4: 0x0053 [0x23] WAIT_FOR_DIALOG_INTERACTION
  5: 0x0054 [0x21] END_EVENT
  6: 0x0055 [0x00] END_REQSTACK()
```

### Event 128

#### Metadata

| Field        | Value    |
|--------------|----------|
| Entrypoint   | 0x0056   |
| Data Size    | 15 bytes |
| Instructions | 7        |

```
      00 01 02 03 04 05 06 07  08 09 0A 0B 0C 0D 0E 0F
      -- -- -- -- -- -- -- --  -- -- -- -- -- -- -- --
0050:                   1E F0  FF FF 7F 1D 0C 80 23 1D        ........#.
0060: 0D 80 23 21 00                                    ..#!.           
```

#### Opcodes

```
  0: 0x0056 [0x1E] EventEntity looks at LocalPlayer and starts talking
  1: 0x005B [0x1D] PRINT_EVENT_MESSAGE(message_id=7394*)
    → "What? You lost the glasses!?"
  2: 0x005E [0x23] WAIT_FOR_DIALOG_INTERACTION
  3: 0x005F [0x1D] PRINT_EVENT_MESSAGE(message_id=7395*)
    → "I may be a thief, but I'm not the lost and found! Go find them on your own!"
  4: 0x0062 [0x23] WAIT_FOR_DIALOG_INTERACTION
  5: 0x0063 [0x21] END_EVENT
  6: 0x0064 [0x00] END_REQSTACK()
```

### Event 137

#### Metadata

| Field        | Value   |
|--------------|---------|
| Entrypoint   | 0x0065  |
| Data Size    | 1 bytes |
| Instructions | 1       |

```
      00 01 02 03 04 05 06 07  08 09 0A 0B 0C 0D 0E 0F
      -- -- -- -- -- -- -- --  -- -- -- -- -- -- -- --
0060:                00                                      .          
```

#### Opcodes

```
  0: 0x0065 [0x00] END_REQSTACK()
```

### Event 138

#### Metadata

| Field        | Value    |
|--------------|----------|
| Entrypoint   | 0x0066   |
| Data Size    | 11 bytes |
| Instructions | 5        |

```
      00 01 02 03 04 05 06 07  08 09 0A 0B 0C 0D 0E 0F
      -- -- -- -- -- -- -- --  -- -- -- -- -- -- -- --
0060:                   1E F0  FF FF 7F 1D 0E 80 23 21        ........#!
0070: 00                                                .               
```

#### Opcodes

```
  0: 0x0066 [0x1E] EventEntity looks at LocalPlayer and starts talking
  1: 0x006B [0x1D] PRINT_EVENT_MESSAGE(message_id=7913*)
    → "The armor is buried on a small island that can be reached through the Eldieme Necropolis. A monster has been put on guard over the spot, though, so don't think you can just waltz in and scoop it up."
  2: 0x006E [0x23] WAIT_FOR_DIALOG_INTERACTION
  3: 0x006F [0x21] END_EVENT
  4: 0x0070 [0x00] END_REQSTACK()
```

### Event 65535.1

#### Metadata

| Field        | Value    |
|--------------|----------|
| Entrypoint   | 0x0071   |
| Data Size    | 24 bytes |
| Instructions | 6        |

```
      00 01 02 03 04 05 06 07  08 09 0A 0B 0C 0D 0E 0F
      -- -- -- -- -- -- -- --  -- -- -- -- -- -- -- --
0070:    32 0F 80 1F 00 10 80  11 80 12 80 1F 01 6F 4A   2............oJ
0080: F0 FF FF 7F A5 42 06 01  00                       .....B...       
```

#### Opcodes

```
  0: 0x0071 [0x32] ExtData[1]->MainSpeed = 13* * 0.1
  1: 0x0074 [0x1F] MOVE_ENTITY: EventEntity moves to X=-623.236*, Z=281.233*, Y=-51.499*
  2: 0x007C [0x1F] MOVE_ENTITY: Update entity position (mode=1)
  3: 0x007E [0x6F] WAIT_FRAME_DELAY: Yield until WaitTime reaches zero
  4: 0x007F [0x4A] LocalPlayer looks at Esca (ID: 17187493/0x010642A5)
  5: 0x0088 [0x00] END_REQSTACK()
```

### Event 65535.2

#### Metadata

| Field        | Value    |
|--------------|----------|
| Entrypoint   | 0x0089   |
| Data Size    | 12 bytes |
| Instructions | 4        |

```
      00 01 02 03 04 05 06 07  08 09 0A 0B 0C 0D 0E 0F
      -- -- -- -- -- -- -- --  -- -- -- -- -- -- -- --
0080:                             1F 00 13 80 14 80 12           .......
0090: 80 1F 01 6F 00                                    ...o.           
```

#### Opcodes

```
  0: 0x0089 [0x1F] MOVE_ENTITY: EventEntity moves to X=-622.933*, Z=279.845*, Y=-51.499*
  1: 0x0091 [0x1F] MOVE_ENTITY: Update entity position (mode=1)
  2: 0x0093 [0x6F] WAIT_FRAME_DELAY: Yield until WaitTime reaches zero
  3: 0x0094 [0x00] END_REQSTACK()
```

### Event 65535.3

#### Metadata

| Field        | Value   |
|--------------|---------|
| Entrypoint   | 0x0095  |
| Data Size    | 4 bytes |
| Instructions | 2       |

```
      00 01 02 03 04 05 06 07  08 09 0A 0B 0C 0D 0E 0F
      -- -- -- -- -- -- -- --  -- -- -- -- -- -- -- --
0090:                1C 07 80  00                            ....       
```

#### Opcodes

```
  0: 0x0095 [0x1C] WAIT(60* ticks)
  1: 0x0098 [0x00] END_REQSTACK()
```

### Event 65535.4

#### Metadata

| Field        | Value    |
|--------------|----------|
| Entrypoint   | 0x0099   |
| Data Size    | 29 bytes |
| Instructions | 3        |

```
      00 01 02 03 04 05 06 07  08 09 0A 0B 0C 0D 0E 0F
      -- -- -- -- -- -- -- --  -- -- -- -- -- -- -- --
0090:                             66 15 80 F8 FF FF 7F           f......
00A0: F8 FF FF 7F 74 6C 6B 30  53 F8 FF FF 7F F8 FF FF  ....tlk0S.......
00B0: 7F 74 6C 6B 30 00                                 .tlk0.          
```

#### Opcodes

```
  0: 0x0099 [0x66] LOAD_EXT_SCHEDULER_MAIN: Load scheduler "tlk0" with entities [EventEntity, EventEntity], work=30*
  1: 0x00A8 [0x53] WAIT_SCHEDULER_TASK: Wait for scheduler "tlk0" with entities [EventEntity, EventEntity]
  2: 0x00B5 [0x00] END_REQSTACK()
```

### Event 65535.5

#### Metadata

| Field        | Value   |
|--------------|---------|
| Entrypoint   | 0x00B6  |
| Data Size    | 9 bytes |
| Instructions | 3       |

```
      00 01 02 03 04 05 06 07  08 09 0A 0B 0C 0D 0E 0F
      -- -- -- -- -- -- -- --  -- -- -- -- -- -- -- --
00B0:                   5E 69  64 6C 30 1C 07 80 00           ^idl0.... 
```

#### Opcodes

```
  0: 0x00B6 [0x5E] EventEntity goes idle (kills current action) (animation: "idl0")
  1: 0x00BB [0x1C] WAIT(60* ticks)
  2: 0x00BE [0x00] END_REQSTACK()
```

### Event 65535.6

#### Metadata

| Field        | Value    |
|--------------|----------|
| Entrypoint   | 0x00BF   |
| Data Size    | 29 bytes |
| Instructions | 3        |

```
      00 01 02 03 04 05 06 07  08 09 0A 0B 0C 0D 0E 0F
      -- -- -- -- -- -- -- --  -- -- -- -- -- -- -- --
00B0:                                               66                 f
00C0: 15 80 F8 FF FF 7F F8 FF  FF 7F 70 61 73 30 53 F8  ..........pas0S.
00D0: FF FF 7F F8 FF FF 7F 70  61 73 30 00              .......pas0.    
```

#### Opcodes

```
  0: 0x00BF [0x66] LOAD_EXT_SCHEDULER_MAIN: Load scheduler "pas0" with entities [EventEntity, EventEntity], work=30*
  1: 0x00CE [0x53] WAIT_SCHEDULER_TASK: Wait for scheduler "pas0" with entities [EventEntity, EventEntity]
  2: 0x00DB [0x00] END_REQSTACK()
```

### Event 65535.7

#### Metadata

| Field        | Value    |
|--------------|----------|
| Entrypoint   | 0x00DC   |
| Data Size    | 29 bytes |
| Instructions | 3        |

```
      00 01 02 03 04 05 06 07  08 09 0A 0B 0C 0D 0E 0F
      -- -- -- -- -- -- -- --  -- -- -- -- -- -- -- --
00D0:                                      66 15 80 F8              f...
00E0: FF FF 7F F8 FF FF 7F 64  69 73 30 53 F8 FF FF 7F  .......dis0S....
00F0: F8 FF FF 7F 64 69 73 30  00                       ....dis0.       
```

#### Opcodes

```
  0: 0x00DC [0x66] LOAD_EXT_SCHEDULER_MAIN: Load scheduler "dis0" with entities [EventEntity, EventEntity], work=30*
  1: 0x00EB [0x53] WAIT_SCHEDULER_TASK: Wait for scheduler "dis0" with entities [EventEntity, EventEntity]
  2: 0x00F8 [0x00] END_REQSTACK()
```

### Event 65535.8

#### Metadata

| Field        | Value    |
|--------------|----------|
| Entrypoint   | 0x00F9   |
| Data Size    | 29 bytes |
| Instructions | 3        |

```
      00 01 02 03 04 05 06 07  08 09 0A 0B 0C 0D 0E 0F
      -- -- -- -- -- -- -- --  -- -- -- -- -- -- -- --
00F0:                             66 15 80 F8 FF FF 7F           f......
0100: F8 FF FF 7F 74 68 6B 31  53 F8 FF FF 7F F8 FF FF  ....thk1S.......
0110: 7F 74 68 6B 31 00                                 .thk1.          
```

#### Opcodes

```
  0: 0x00F9 [0x66] LOAD_EXT_SCHEDULER_MAIN: Load scheduler "thk1" with entities [EventEntity, EventEntity], work=30*
  1: 0x0108 [0x53] WAIT_SCHEDULER_TASK: Wait for scheduler "thk1" with entities [EventEntity, EventEntity]
  2: 0x0115 [0x00] END_REQSTACK()
```

### Event 65535.9

#### Metadata

| Field        | Value    |
|--------------|----------|
| Entrypoint   | 0x0116   |
| Data Size    | 29 bytes |
| Instructions | 3        |

```
      00 01 02 03 04 05 06 07  08 09 0A 0B 0C 0D 0E 0F
      -- -- -- -- -- -- -- --  -- -- -- -- -- -- -- --
0110:                   66 15  80 F8 FF FF 7F F8 FF FF        f.........
0120: 7F 74 68 6B 32 53 F8 FF  FF 7F F8 FF FF 7F 74 68  .thk2S........th
0130: 6B 32 00                                          k2.             
```

#### Opcodes

```
  0: 0x0116 [0x66] LOAD_EXT_SCHEDULER_MAIN: Load scheduler "thk2" with entities [EventEntity, EventEntity], work=30*
  1: 0x0125 [0x53] WAIT_SCHEDULER_TASK: Wait for scheduler "thk2" with entities [EventEntity, EventEntity]
  2: 0x0132 [0x00] END_REQSTACK()
```
