# 17187505 - Phairet

## Common Data

| Field            | Value                   |
|------------------|-------------------------|
| Zone             | West Ronfaure (ID: 100) |
| Block Size       | 132 bytes               |
| Total Events     | 5                       |
| References Count | 7                       |

## List of Events

| Event ID              | Entrypoint   |   Size |   Instructions |
|-----------------------|--------------|--------|----------------|
| [65535](#event-65535) | 0x0000       |      1 |              1 |
| [117](#event-117)     | 0x0001       |     11 |              5 |
| [124](#event-124)     | 0x000C       |     24 |             12 |
| [125](#event-125)     | 0x0024       |     17 |              9 |
| [127](#event-127)     | 0x0035       |     15 |              7 |

## DAT References (imed_data)

|   Index | Hex Value   |   Dec Value |
|---------|-------------|-------------|
|       0 | 0x1CFC      |        7420 |
|       1 | 0x1CFD      |        7421 |
|       2 | 0x003C      |          60 |
|       3 | 0x1CFE      |        7422 |
|       4 | 0x1CFF      |        7423 |
|       5 | 0x1D00      |        7424 |
|       6 | 0x1D01      |        7425 |

## String References

- **7420**: What? I've never seen your face before. Now get going!
- **7421**: Oh, a customer sent you? Well, why didn't you say so!
- **7422**: Here's your order. Take it and get a move on.
- **7423**: Don't waste my time with this junk. Take it away!
- **7424**: What do you want this time? Don't tell me you lost the $0?
- **7425**: Well, if you want more batagreens, you're going to have to fork over some gil. I think 50 will do nicely!

## Events

### Event 65535

#### Metadata

| Field        | Value   |
|--------------|---------|
| Entrypoint   | 0x0000  |
| Data Size    | 1 bytes |
| Instructions | 1       |

```
      00 01 02 03 04 05 06 07  08 09 0A 0B 0C 0D 0E 0F
      -- -- -- -- -- -- -- --  -- -- -- -- -- -- -- --
0000: 00                                                .               
```

#### Opcodes

```
  0: 0x0000 [0x00] END_REQSTACK()
```

### Event 117

#### Metadata

| Field        | Value    |
|--------------|----------|
| Entrypoint   | 0x0001   |
| Data Size    | 11 bytes |
| Instructions | 5        |

```
      00 01 02 03 04 05 06 07  08 09 0A 0B 0C 0D 0E 0F
      -- -- -- -- -- -- -- --  -- -- -- -- -- -- -- --
0000:    1E F0 FF FF 7F 1D 00  80 23 21 00               ........#!.    
```

#### Opcodes

```
  0: 0x0001 [0x1E] EventEntity looks at LocalPlayer and starts talking
  1: 0x0006 [0x1D] PRINT_EVENT_MESSAGE(message_id=7420*)
    → "What? I've never seen your face before. Now get going!"
  2: 0x0009 [0x23] WAIT_FOR_DIALOG_INTERACTION
  3: 0x000A [0x21] END_EVENT
  4: 0x000B [0x00] END_REQSTACK()
```

### Event 124

#### Metadata

| Field        | Value    |
|--------------|----------|
| Entrypoint   | 0x000C   |
| Data Size    | 24 bytes |
| Instructions | 12       |

```
      00 01 02 03 04 05 06 07  08 09 0A 0B 0C 0D 0E 0F
      -- -- -- -- -- -- -- --  -- -- -- -- -- -- -- --
0000:                                      42 20 01 1E              B ..
0010: F0 FF FF 7F 1D 01 80 23  1C 02 80 1D 03 80 23 20  .......#......# 
0020: 00 2E 21 00                                       ..!.            
```

#### Opcodes

```
  0: 0x000C [0x42] SET_CLI_EVENT_CANCEL_DATA()
  1: 0x000D [0x20] SET_CLI_EVENT_UC_FLAG: Lock player control
  2: 0x000F [0x1E] EventEntity looks at LocalPlayer and starts talking
  3: 0x0014 [0x1D] PRINT_EVENT_MESSAGE(message_id=7421*)
    → "Oh, a customer sent you? Well, why didn't you say so!"
  4: 0x0017 [0x23] WAIT_FOR_DIALOG_INTERACTION
  5: 0x0018 [0x1C] WAIT(60* ticks)
  6: 0x001B [0x1D] PRINT_EVENT_MESSAGE(message_id=7422*)
    → "Here's your order. Take it and get a move on."
  7: 0x001E [0x23] WAIT_FOR_DIALOG_INTERACTION
  8: 0x001F [0x20] SET_CLI_EVENT_UC_FLAG: Unlock player control
  9: 0x0021 [0x2E] SET_CLI_EVENT_CANCEL_FLAGS()
 10: 0x0022 [0x21] END_EVENT
 11: 0x0023 [0x00] END_REQSTACK()
```

### Event 125

#### Metadata

| Field        | Value    |
|--------------|----------|
| Entrypoint   | 0x0024   |
| Data Size    | 17 bytes |
| Instructions | 9        |

```
      00 01 02 03 04 05 06 07  08 09 0A 0B 0C 0D 0E 0F
      -- -- -- -- -- -- -- --  -- -- -- -- -- -- -- --
0020:             42 20 01 1E  F0 FF FF 7F 1D 04 80 23      B .........#
0030: 20 00 2E 21 00                                     ..!.           
```

#### Opcodes

```
  0: 0x0024 [0x42] SET_CLI_EVENT_CANCEL_DATA()
  1: 0x0025 [0x20] SET_CLI_EVENT_UC_FLAG: Lock player control
  2: 0x0027 [0x1E] EventEntity looks at LocalPlayer and starts talking
  3: 0x002C [0x1D] PRINT_EVENT_MESSAGE(message_id=7423*)
    → "Don't waste my time with this junk. Take it away!"
  4: 0x002F [0x23] WAIT_FOR_DIALOG_INTERACTION
  5: 0x0030 [0x20] SET_CLI_EVENT_UC_FLAG: Unlock player control
  6: 0x0032 [0x2E] SET_CLI_EVENT_CANCEL_FLAGS()
  7: 0x0033 [0x21] END_EVENT
  8: 0x0034 [0x00] END_REQSTACK()
```

### Event 127

#### Metadata

| Field        | Value    |
|--------------|----------|
| Entrypoint   | 0x0035   |
| Data Size    | 15 bytes |
| Instructions | 7        |

```
      00 01 02 03 04 05 06 07  08 09 0A 0B 0C 0D 0E 0F
      -- -- -- -- -- -- -- --  -- -- -- -- -- -- -- --
0030:                1E F0 FF  FF 7F 1D 05 80 23 1D 06       ........#..
0040: 80 23 21 00                                       .#!.            
```

#### Opcodes

```
  0: 0x0035 [0x1E] EventEntity looks at LocalPlayer and starts talking
  1: 0x003A [0x1D] PRINT_EVENT_MESSAGE(message_id=7424*)
    → "What do you want this time? Don't tell me you lost the $0?"
  2: 0x003D [0x23] WAIT_FOR_DIALOG_INTERACTION
  3: 0x003E [0x1D] PRINT_EVENT_MESSAGE(message_id=7425*)
    → "Well, if you want more batagreens, you're going to have to fork over some gil. I think 50 will do nicely!"
  4: 0x0041 [0x23] WAIT_FOR_DIALOG_INTERACTION
  5: 0x0042 [0x21] END_EVENT
  6: 0x0043 [0x00] END_REQSTACK()
```
