# 17187552 - Field Parchment

## Common Data

| Field            | Value                   |
|------------------|-------------------------|
| Zone             | West Ronfaure (ID: 100) |
| Block Size       | 3316 bytes              |
| Total Events     | 3                       |
| References Count | 59                      |

## List of Events

| Event ID              | Entrypoint   |   Size |   Instructions |
|-----------------------|--------------|--------|----------------|
| [65535](#event-65535) | 0x0000       |      1 |              1 |
| [2001](#event-2001)   | 0x0001       |    112 |             33 |
| [2002](#event-2002)   | 0x0071       |   2936 |            466 |

## DAT References (imed_data)

|   Index | Hex Value   |   Dec Value |
|---------|-------------|-------------|
|       0 | 0x0000      |           0 |
|       1 | 0x0007      |           7 |
|       2 | 0x0008      |           8 |
|       3 | 0x0017      |          23 |
|       4 | 0x0018      |          24 |
|       5 | 0x001F      |          31 |
|       6 | 0x003C      |          60 |
|       7 | 0x1FCE      |        8142 |
|       8 | 0x1FCF      |        8143 |
|       9 | 0x0466      |        1126 |
|      10 | 0x1FD0      |        8144 |
|      11 | 0x1FD1      |        8145 |
|      12 | 0x1FD2      |        8146 |
|      13 | 0x1FD3      |        8147 |
|      14 | 0x1FD4      |        8148 |
|      15 | 0x1FD5      |        8149 |
|      16 | 0x0003      |           3 |
|      17 | 0x0004      |           4 |
|      18 | 0x0005      |           5 |
|      19 | 0x0006      |           6 |
|      20 | 0x0009      |           9 |
|      21 | 0x000A      |          10 |
|      22 | 0x000D      |          13 |
|      23 | 0x000E      |          14 |
|      24 | 0x0012      |          18 |
|      25 | 0x0013      |          19 |
|      26 | 0x001C      |          28 |
|      27 | 0x001D      |          29 |
|      28 | 0x1FDD      |        8157 |
|      29 | 0x1FDE      |        8158 |
|      30 | 0x1FDF      |        8159 |
|      31 | 0x1FE0      |        8160 |
|      32 | 0x1FE1      |        8161 |
|      33 | 0x1FE2      |        8162 |
|      34 | 0x1FE3      |        8163 |
|      35 | 0x1FE4      |        8164 |
|      36 | 0x1FE5      |        8165 |
|      37 | 0x1FE6      |        8166 |
|      38 | 0x1FE7      |        8167 |
|      39 | 0x1FE8      |        8168 |
|      40 | 0x0001      |           1 |
|      41 | 0x1FE9      |        8169 |
|      42 | 0x0002      |           2 |
|      43 | 0x1FEA      |        8170 |
|      44 | 0x1FEB      |        8171 |
|      45 | 0x000B      |          11 |
|      46 | 0x000C      |          12 |
|      47 | 0x000F      |          15 |
|      48 | 0x0010      |          16 |
|      49 | 0x0011      |          17 |
|      50 | 0x1FEC      |        8172 |
|      51 | 0x0014      |          20 |
|      52 | 0x0015      |          21 |
|      53 | 0x0016      |          22 |
|      54 | 0x1FED      |        8173 |
|      55 | 0x1FEE      |        8174 |
|      56 | 0x1FEF      |        8175 |
|      57 | 0x1FF0      |        8176 |
|      58 | 0x1FF1      |        8177 |

## String References

- **8142**: This appears to be an elite training field set up by the Adventurers' Mutual Aid Network (A.M.A.N.).
- **8143**: A parchment bearing information on elite training has been placed here.
- **8144**: To commence your training regime, trade $1, gil, or a piece of equipment while in possession of $6.
- **8145**: You can trade up to $1 $0 .
- **8146**: You can trade up to $0 gil.
- **8147**: You can trade one equipment item that is level $0 or below.
- **8148**: You have $0 [minute/minutes] (Earth time) to complete this training regime.
- **8149**: You can undertake no more than one elite training regime per day (Earth time).
- **8157**: Debug: [No/Yes]F
- **8158**: Ability Type: [Balanced/Attacking/Status Effects]
- **8159**: Magic Type: [None/WHM/BLM/RDM/PLD/DRK/BRD]
- **8160**: Auto-attack Effect: [None/Fire/Ice/Wind/Earth/Lightning/Water/Drain/Aspir/Absorb TP/Poison/Darkness/Paralize/Slow/Silence/Plauge/Curse/Petrify]
- **8161**: Barrier Effect: [None/Blaze Spikes/Ice Spikes/Shock Spikes/Fire Absorption/Ice Absorption/Wind Absorption/Earth Absorption/Lightning Absorption/Water Absorption/Lesser Stoneskin/Greater Stoneskin/Utsusemi 3/Utsusemi 6/Utsusemi 9/Immune to Fire/Immune to Ice/Immune to Wind/Immune to Earth/Immune to Lightning/Immune to Water/Immune to Light/Immune to Darkness]
- **8162**: Main Offense: [None/Attack 15% up/Attack 30% up/Attack 45% up/Magic Attack 15% up/Magic Attack 30% up/Magic Attack 45% up/Attack Delay 10$19 down/Attack Delay 20$19 down/Attack Delay 30$19 down/Critical Hit Rate 20% up/Critical Hit Rate 40% up/Double Attack Rate 25% up/Double Attack Rate 50% up/Triple Attack Rate 15% up/Triple Attack Rate 30% up]
- **8163**: Main Defense: [None/Distance 15% down/Distance 30% down/Distance 45% down/Magic Distance 15% down/Magic Distance 30% down/Magic Distance 45% down/Evasion 10% up/Evasion 15% up/Magic Evasion 15% up]
- **8164**: Sub Offense: [None/TP Regen 30/TP Regen 60/TP Regen 90/Fast Casting 15%/Fast Casting 30%/Fast Casting 45%/Lower TP Expenditure: Low/Lower TP Expenditure: Mid/Lower TP Expenditure: High/Shorter Recast Time: Low/Shorter Recast Time: Mid/Shorter Recast Time: High/Shorter Ability Casting: Low/Shorter Ability Casting: Mid/Shorter Ability Casting: High/Elemental Seal/Uber Accuracy]
- **8165**: Sub Defense: [None/Lesser Regen/Moderate Regen/Greater Regen/PC Killer 10%/PC Killer 20%/PC Killer 30%/Immune to Stun/Invulnerable Casting/Immune to Sleep/Immune to Poison/Immune to Paralysis/Immune to Darkness/Immune to Silence/Immune to Slow/Immune to Bind/Immune to Weighing Down]
- **8166**: Parameter: [None/STR+/DEX+/VIT+/AGI+/INT+/MND+/HP+]
- **8167**: Say yes to debugging? [Uh-huh/Nuh-uh]
- **8168**: What will you adjust? [Nothing/Ability Type/Magic Type/Auto-attack Effects/Barrier Effects/Main Offense/Main Defense/Sub Offense/Sub Defense/Parameters]
- **8169**: Ability Type: [Balanced./Attacking./Status Effects.]
- **8170**: Magic Type: [None./WHM./BLM./RDM./PLD./DRK./BRD.]
- **8171**: Auto-attack Effect: [None/Fire/Ice/Wind/Earth/Lightning/Water/Drain/Aspir/Absorb TP/Poison/Darkness/Paralysis/Slow/Silence/Plague/Curse/Petrify]
- **8172**: Barrier Effects: [None/Blaze Spikes/Ice Spikes/Shock Spikes/Fire Absorption/Ice Absorption/Wind Absorption/Earth Absorption/Lightning Absorption/Water Absorption/Lesser Stoneskin/Greater Stoneskin/Utsusemi 3/Utsusemi 6/Utsusemi 9/Immune to Fire/Immune to Ice/Immune to Wind/Immune to Earth/Immune to Lightning/Immune to Water/Immune to Light/Immune to Darkness]
- **8173**: Main Offense: [None./Attack 15% up/Attack 30% up/Attack 45% up/Magic Attack 15% up/Magic Attack 30% up/Magic Attack 45% up/Attack Delay 10$19 down/Attack Delay 20$19 down/Attack Delay 30$19 down/Critical Hit Rate 20% up/Critical Hit Rate 40% up/Double Attack Rate 25% up/Double Attack Rate 50% up/Triple Attack Rate 15% up/Triple Attack Rate 30% up]
- **8174**: Main Defense: [None./Distance 15% down/Distance 30% down/Distance 45% down/Magic Distance 15% down/Magic Distance 30% down/Magic Distance 45% down/Evasion 10% up/Evasion 15% up/Magic Evasion 15% up/Magic Evasion 30% up]
- **8175**: Sub Offense: [None./TP Regen 30/TP Regen 60/TP Regen 90/Fast Casting 15%/Fast Casting 30%/Fast Casting 45%/Lower TP Expenditure: Low/Lower TP Expenditure: Mid/Lower TP Expenditure: High/Shorter Recast Time: Low/Shorter Recast Time: Mid/Shorter Recast Time: High/Shorter Ability Casting: Low/Shorter Ability Casting: Mid/Shorter Ability Casting: High/Elemental Seal/Uber Accuracy]
- **8176**: Sub Defense: [None/Lesser Regen/Moderate Regen/Greater Regen/PC Killer 10%/PC Killer 20%/PC Killer 30%/Immune to Stun/Invulnerable Casting/Immune to Sleep/Immune to Poison/Immune to Paralysis/Immune to Darkness/Immune to Silence/Immune to Slow/Immune to Bind/Immune to Weighing Down]
- **8177**: Select Parameter: [None./STR+/DEX+/VIT+/AGI+/INT+/MND+/HP+]

## Events

### Event 65535

#### Metadata

| Field        | Value   |
|--------------|---------|
| Entrypoint   | 0x0000  |
| Data Size    | 1 bytes |
| Instructions | 1       |

```
      00 01 02 03 04 05 06 07  08 09 0A 0B 0C 0D 0E 0F
      -- -- -- -- -- -- -- --  -- -- -- -- -- -- -- --
0000: 00                                                .               
```

#### Opcodes

```
  0: 0x0000 [0x00] END_REQSTACK()
```

### Event 2001

#### Metadata

| Field        | Value     |
|--------------|-----------|
| Entrypoint   | 0x0001    |
| Data Size    | 112 bytes |
| Instructions | 33        |

```
      00 01 02 03 04 05 06 07  08 09 0A 0B 0C 0D 0E 0F
      -- -- -- -- -- -- -- --  -- -- -- -- -- -- -- --
0000:    03 00 00 02 10 41 00  80 01 80 03 10 01 00 41   .....A........A
0010: 02 80 03 80 03 10 02 00  41 04 80 05 80 03 10 03  ........A.......
0020: 00 03 04 00 04 10 20 01  1C 06 80 48 07 80 23 48  ...... ....H..#H
0030: 08 80 23 03 02 10 00 00  03 03 10 09 80 48 0A 80  ..#..........H..
0040: 23 03 02 10 09 80 03 03  10 01 00 48 0B 80 23 03  #..........H..#.
0050: 02 10 02 00 48 0C 80 23  03 02 10 03 00 48 0D 80  ....H..#.....H..
0060: 23 03 02 10 04 00 48 0E  80 23 48 0F 80 23 42 21  #.....H..#H..#B!
0070: 00                                                .               
```

#### Opcodes

```
  0: 0x0001 [0x03] ExtData[1]->WorkLocal[0] = Work_Zone[2]
  1: 0x0006 [0x41] ExtData[1]->WorkLocal[1] = Work_Zone[3] (bits 0*-7*)
  2: 0x000F [0x41] ExtData[1]->WorkLocal[2] = Work_Zone[3] (bits 8*-23*)
  3: 0x0018 [0x41] ExtData[1]->WorkLocal[3] = Work_Zone[3] (bits 24*-31*)
  4: 0x0021 [0x03] ExtData[1]->WorkLocal[4] = Work_Zone[4]
  5: 0x0026 [0x20] SET_CLI_EVENT_UC_FLAG: Lock player control
  6: 0x0028 [0x1C] WAIT(60* ticks)
  7: 0x002B [0x48] [System] [8142*]:
    → "This appears to be an elite training field set up by the Adventurers' Mutual Aid Network (A.M.A.N.)."
  8: 0x002E [0x23] WAIT_FOR_DIALOG_INTERACTION
  9: 0x002F [0x48] [System] [8143*]:
    → "A parchment bearing information on elite training has been placed here."
 10: 0x0032 [0x23] WAIT_FOR_DIALOG_INTERACTION
 11: 0x0033 [0x03] Work_Zone[2] = ExtData[1]->WorkLocal[0]
 12: 0x0038 [0x03] Work_Zone[3] = 1126*
 13: 0x003D [0x48] [System] [8144*]:
    → "To commence your training regime, trade $1, gil, or a piece of equipment while in possession of $6."
 14: 0x0040 [0x23] WAIT_FOR_DIALOG_INTERACTION
 15: 0x0041 [0x03] Work_Zone[2] = 1126*
 16: 0x0046 [0x03] Work_Zone[3] = ExtData[1]->WorkLocal[1]
 17: 0x004B [0x48] [System] [8145*]:
    → "You can trade up to $1 $0 ."
 18: 0x004E [0x23] WAIT_FOR_DIALOG_INTERACTION
 19: 0x004F [0x03] Work_Zone[2] = ExtData[1]->WorkLocal[2]
 20: 0x0054 [0x48] [System] [8146*]:
    → "You can trade up to $0 gil."
 21: 0x0057 [0x23] WAIT_FOR_DIALOG_INTERACTION
 22: 0x0058 [0x03] Work_Zone[2] = ExtData[1]->WorkLocal[3]
 23: 0x005D [0x48] [System] [8147*]:
    → "You can trade one equipment item that is level $0 or below."
 24: 0x0060 [0x23] WAIT_FOR_DIALOG_INTERACTION
 25: 0x0061 [0x03] Work_Zone[2] = ExtData[1]->WorkLocal[4]
 26: 0x0066 [0x48] [System] [8148*]:
    → "You have $0 [minute/minutes] (Earth time) to complete this training regime."
 27: 0x0069 [0x23] WAIT_FOR_DIALOG_INTERACTION
 28: 0x006A [0x48] [System] [8149*]:
    → "You can undertake no more than one elite training regime per day (Earth time)."
 29: 0x006D [0x23] WAIT_FOR_DIALOG_INTERACTION
 30: 0x006E [0x42] SET_CLI_EVENT_CANCEL_DATA()
 31: 0x006F [0x21] END_EVENT
 32: 0x0070 [0x00] END_REQSTACK()
```

### Event 2002

#### Metadata

| Field        | Value      |
|--------------|------------|
| Entrypoint   | 0x0071     |
| Data Size    | 2936 bytes |
| Instructions | 466        |

```
      00 01 02 03 04 05 06 07  08 09 0A 0B 0C 0D 0E 0F
      -- -- -- -- -- -- -- --  -- -- -- -- -- -- -- --
0070:    41 10 80 10 80 02 10  05 00 41 11 80 12 80 02   A........A.....
0080: 10 06 00 41 13 80 02 80  02 10 07 00 41 00 80 11  ...A........A...
0090: 80 03 10 08 00 41 12 80  14 80 03 10 09 00 41 15  .....A........A.
00A0: 80 16 80 03 10 0A 00 41  17 80 18 80 03 10 0B 00  .......A........
00B0: 41 19 80 03 80 03 10 0C  00 41 04 80 1A 80 03 10  A........A......
00C0: 0D 00 41 1B 80 05 80 03  10 0E 00 20 01 1C 06 80  ..A........ ....
00D0: 03 02 10 05 00 48 1C 80  23 03 02 10 06 00 48 1D  .....H..#.....H.
00E0: 80 23 03 02 10 07 00 48  1E 80 23 03 02 10 08 00  .#.....H..#.....
00F0: 48 1F 80 23 03 02 10 09  00 48 20 80 23 03 02 10  H..#.....H .#...
0100: 0B 00 48 21 80 23 03 02  10 0A 00 48 22 80 23 03  ..H!.#.....H".#.
0110: 02 10 0C 00 48 23 80 23  03 02 10 0D 00 48 24 80  ....H#.#.....H$.
0120: 23 03 02 10 0E 00 48 25  80 23 24 26 80 00 80 00  #.....H%.#$&....
0130: 80 25 02 00 10 00 80 00  D2 0B 24 27 80 00 80 00  .%........$'....
0140: 80 25 02 00 10 00 80 00  56 01 40 28 80 11 80 01  .%......V.@(....
0150: 10 00 80 01 C6 0B 02 00  10 28 80 00 AE 01 24 29  .........(....$)
0160: 80 00 80 00 80 25 02 00  10 00 80 00 7A 01 40 12  .....%......z.@.
0170: 80 14 80 01 10 00 80 01  A2 01 02 00 10 28 80 00  .............(..
0180: 8E 01 40 12 80 14 80 01  10 28 80 01 A2 01 02 00  ..@......(......
0190: 10 2A 80 00 A2 01 40 12  80 14 80 01 10 2A 80 01  .*....@......*..
01A0: A2 01 40 28 80 11 80 01  10 28 80 01 C6 0B 02 00  ..@(.....(......
01B0: 10 2A 80 00 56 02 24 2B  80 00 80 00 80 25 02 00  .*..V.$+.....%..
01C0: 10 00 80 00 D2 01 40 12  80 14 80 01 10 00 80 01  ......@.........
01D0: 4A 02 02 00 10 28 80 00  E6 01 40 12 80 14 80 01  J....(....@.....
01E0: 10 28 80 01 4A 02 02 00  10 2A 80 00 FA 01 40 12  .(..J....*....@.
01F0: 80 14 80 01 10 2A 80 01  4A 02 02 00 10 10 80 00  .....*..J.......
0200: 0E 02 40 12 80 14 80 01  10 10 80 01 4A 02 02 00  ..@.........J...
0210: 10 11 80 00 22 02 40 12  80 14 80 01 10 11 80 01  ....".@.........
0220: 4A 02 02 00 10 12 80 00  36 02 40 12 80 14 80 01  J.......6.@.....
0230: 10 12 80 01 4A 02 02 00  10 13 80 00 4A 02 40 12  ....J.......J.@.
0240: 80 14 80 01 10 13 80 01  4A 02 40 28 80 11 80 01  ........J.@(....
0250: 10 2A 80 01 C6 0B 02 00  10 10 80 00 DA 03 24 2C  .*............$,
0260: 80 00 80 00 80 25 02 00  10 00 80 00 7A 02 40 12  .....%......z.@.
0270: 80 14 80 01 10 00 80 01  CE 03 02 00 10 28 80 00  .............(..
0280: 8E 02 40 12 80 14 80 01  10 28 80 01 CE 03 02 00  ..@......(......
0290: 10 2A 80 00 A2 02 40 12  80 14 80 01 10 2A 80 01  .*....@......*..
02A0: CE 03 02 00 10 10 80 00  B6 02 40 12 80 14 80 01  ..........@.....
02B0: 10 10 80 01 CE 03 02 00  10 11 80 00 CA 02 40 12  ..............@.
02C0: 80 14 80 01 10 11 80 01  CE 03 02 00 10 12 80 00  ................
02D0: DE 02 40 12 80 14 80 01  10 12 80 01 CE 03 02 00  ..@.............
02E0: 10 13 80 00 F2 02 40 12  80 14 80 01 10 13 80 01  ......@.........
02F0: CE 03 02 00 10 01 80 00  06 03 40 12 80 14 80 01  ..........@.....
0300: 10 01 80 01 CE 03 02 00  10 02 80 00 1A 03 40 12  ..............@.
0310: 80 14 80 01 10 02 80 01  CE 03 02 00 10 14 80 00  ................
0320: 2E 03 40 12 80 14 80 01  10 14 80 01 CE 03 02 00  ..@.............
0330: 10 15 80 00 42 03 40 12  80 14 80 01 10 15 80 01  ....B.@.........
0340: CE 03 02 00 10 2D 80 00  56 03 40 12 80 14 80 01  .....-..V.@.....
0350: 10 2D 80 01 CE 03 02 00  10 2E 80 00 6A 03 40 12  .-..........j.@.
0360: 80 14 80 01 10 2E 80 01  CE 03 02 00 10 16 80 00  ................
0370: 7E 03 40 12 80 14 80 01  10 16 80 01 CE 03 02 00  ~.@.............
0380: 10 17 80 00 92 03 40 12  80 14 80 01 10 17 80 01  ......@.........
0390: CE 03 02 00 10 2F 80 00  A6 03 40 12 80 14 80 01  ...../....@.....
03A0: 10 2F 80 01 CE 03 02 00  10 30 80 00 BA 03 40 12  ./.......0....@.
03B0: 80 14 80 01 10 30 80 01  CE 03 02 00 10 31 80 00  .....0.......1..
03C0: CE 03 40 12 80 14 80 01  10 31 80 01 CE 03 40 28  ..@......1....@(
03D0: 80 11 80 01 10 10 80 01  C6 0B 02 00 10 11 80 00  ................
03E0: C2 05 24 32 80 00 80 00  80 25 02 00 10 00 80 00  ..$2.....%......
03F0: FE 03 40 12 80 14 80 01  10 00 80 01 B6 05 02 00  ..@.............
0400: 10 28 80 00 12 04 40 12  80 14 80 01 10 28 80 01  .(....@......(..
0410: B6 05 02 00 10 2A 80 00  26 04 40 12 80 14 80 01  .....*..&.@.....
0420: 10 2A 80 01 B6 05 02 00  10 10 80 00 3A 04 40 12  .*..........:.@.
0430: 80 14 80 01 10 10 80 01  B6 05 02 00 10 11 80 00  ................
0440: 4E 04 40 12 80 14 80 01  10 11 80 01 B6 05 02 00  N.@.............
0450: 10 12 80 00 62 04 40 12  80 14 80 01 10 12 80 01  ....b.@.........
0460: B6 05 02 00 10 13 80 00  76 04 40 12 80 14 80 01  ........v.@.....
0470: 10 13 80 01 B6 05 02 00  10 01 80 00 8A 04 40 12  ..............@.
0480: 80 14 80 01 10 01 80 01  B6 05 02 00 10 02 80 00  ................
0490: 9E 04 40 12 80 14 80 01  10 02 80 01 B6 05 02 00  ..@.............
04A0: 10 14 80 00 B2 04 40 12  80 14 80 01 10 14 80 01  ......@.........
04B0: B6 05 02 00 10 15 80 00  C6 04 40 12 80 14 80 01  ..........@.....
04C0: 10 15 80 01 B6 05 02 00  10 2D 80 00 DA 04 40 12  .........-....@.
04D0: 80 14 80 01 10 2D 80 01  B6 05 02 00 10 2E 80 00  .....-..........
04E0: EE 04 40 12 80 14 80 01  10 2E 80 01 B6 05 02 00  ..@.............
04F0: 10 16 80 00 02 05 40 12  80 14 80 01 10 16 80 01  ......@.........
0500: B6 05 02 00 10 17 80 00  16 05 40 12 80 14 80 01  ..........@.....
0510: 10 17 80 01 B6 05 02 00  10 2F 80 00 2A 05 40 12  ........./..*.@.
0520: 80 14 80 01 10 2F 80 01  B6 05 02 00 10 30 80 00  ...../.......0..
0530: 3E 05 40 12 80 14 80 01  10 30 80 01 B6 05 02 00  >.@......0......
0540: 10 31 80 00 52 05 40 12  80 14 80 01 10 31 80 01  .1..R.@......1..
0550: B6 05 02 00 10 18 80 00  66 05 40 12 80 14 80 01  ........f.@.....
0560: 10 18 80 01 B6 05 02 00  10 19 80 00 7A 05 40 12  ............z.@.
0570: 80 14 80 01 10 19 80 01  B6 05 02 00 10 33 80 00  .............3..
0580: 8E 05 40 12 80 14 80 01  10 33 80 01 B6 05 02 00  ..@......3......
0590: 10 34 80 00 A2 05 40 12  80 14 80 01 10 34 80 01  .4....@......4..
05A0: B6 05 02 00 10 35 80 00  B6 05 40 12 80 14 80 01  .....5....@.....
05B0: 10 35 80 01 B6 05 40 28  80 11 80 01 10 11 80 01  .5....@(........
05C0: C6 0B 02 00 10 12 80 00  1E 07 24 36 80 00 80 00  ..........$6....
05D0: 80 25 02 00 10 00 80 00  E6 05 40 12 80 14 80 01  .%........@.....
05E0: 10 00 80 01 12 07 02 00  10 28 80 00 FA 05 40 12  .........(....@.
05F0: 80 14 80 01 10 28 80 01  12 07 02 00 10 2A 80 00  .....(.......*..
0600: 0E 06 40 12 80 14 80 01  10 2A 80 01 12 07 02 00  ..@......*......
0610: 10 10 80 00 22 06 40 12  80 14 80 01 10 10 80 01  ....".@.........
0620: 12 07 02 00 10 11 80 00  36 06 40 12 80 14 80 01  ........6.@.....
0630: 10 11 80 01 12 07 02 00  10 12 80 00 4A 06 40 12  ............J.@.
0640: 80 14 80 01 10 12 80 01  12 07 02 00 10 13 80 00  ................
0650: 5E 06 40 12 80 14 80 01  10 13 80 01 12 07 02 00  ^.@.............
0660: 10 01 80 00 72 06 40 12  80 14 80 01 10 01 80 01  ....r.@.........
0670: 12 07 02 00 10 02 80 00  86 06 40 12 80 14 80 01  ..........@.....
0680: 10 02 80 01 12 07 02 00  10 14 80 00 9A 06 40 12  ..............@.
0690: 80 14 80 01 10 14 80 01  12 07 02 00 10 15 80 00  ................
06A0: AE 06 40 12 80 14 80 01  10 15 80 01 12 07 02 00  ..@.............
06B0: 10 2D 80 00 C2 06 40 12  80 14 80 01 10 2D 80 01  .-....@......-..
06C0: 12 07 02 00 10 2E 80 00  D6 06 40 12 80 14 80 01  ..........@.....
06D0: 10 2E 80 01 12 07 02 00  10 16 80 00 EA 06 40 12  ..............@.
06E0: 80 14 80 01 10 16 80 01  12 07 02 00 10 17 80 00  ................
06F0: FE 06 40 12 80 14 80 01  10 17 80 01 12 07 02 00  ..@.............
0700: 10 2F 80 00 12 07 40 12  80 14 80 01 10 2F 80 01  ./....@....../..
0710: 12 07 40 28 80 11 80 01  10 12 80 01 C6 0B 02 00  ..@(............
0720: 10 13 80 00 16 08 24 37  80 00 80 00 80 25 02 00  ......$7.....%..
0730: 10 00 80 00 42 07 40 12  80 14 80 01 10 00 80 01  ....B.@.........
0740: 0A 08 02 00 10 28 80 00  56 07 40 12 80 14 80 01  .....(..V.@.....
0750: 10 28 80 01 0A 08 02 00  10 2A 80 00 6A 07 40 12  .(.......*..j.@.
0760: 80 14 80 01 10 2A 80 01  0A 08 02 00 10 10 80 00  .....*..........
0770: 7E 07 40 12 80 14 80 01  10 10 80 01 0A 08 02 00  ~.@.............
0780: 10 11 80 00 92 07 40 12  80 14 80 01 10 11 80 01  ......@.........
0790: 0A 08 02 00 10 12 80 00  A6 07 40 12 80 14 80 01  ..........@.....
07A0: 10 12 80 01 0A 08 02 00  10 13 80 00 BA 07 40 12  ..............@.
07B0: 80 14 80 01 10 13 80 01  0A 08 02 00 10 01 80 00  ................
07C0: CE 07 40 12 80 14 80 01  10 01 80 01 0A 08 02 00  ..@.............
07D0: 10 02 80 00 E2 07 40 12  80 14 80 01 10 02 80 01  ......@.........
07E0: 0A 08 02 00 10 14 80 00  F6 07 40 12 80 14 80 01  ..........@.....
07F0: 10 14 80 01 0A 08 02 00  10 15 80 00 0A 08 40 12  ..............@.
0800: 80 14 80 01 10 15 80 01  0A 08 40 28 80 11 80 01  ..........@(....
0810: 10 13 80 01 C6 0B 02 00  10 01 80 00 9A 09 24 38  ..............$8
0820: 80 00 80 00 80 25 02 00  10 00 80 00 3A 08 40 12  .....%......:.@.
0830: 80 14 80 01 10 00 80 01  8E 09 02 00 10 28 80 00  .............(..
0840: 4E 08 40 12 80 14 80 01  10 28 80 01 8E 09 02 00  N.@......(......
0850: 10 2A 80 00 62 08 40 12  80 14 80 01 10 2A 80 01  .*..b.@......*..
0860: 8E 09 02 00 10 10 80 00  76 08 40 12 80 14 80 01  ........v.@.....
0870: 10 10 80 01 8E 09 02 00  10 11 80 00 8A 08 40 12  ..............@.
0880: 80 14 80 01 10 11 80 01  8E 09 02 00 10 12 80 00  ................
0890: 9E 08 40 12 80 14 80 01  10 12 80 01 8E 09 02 00  ..@.............
08A0: 10 13 80 00 B2 08 40 12  80 14 80 01 10 13 80 01  ......@.........
08B0: 8E 09 02 00 10 01 80 00  C6 08 40 12 80 14 80 01  ..........@.....
08C0: 10 01 80 01 8E 09 02 00  10 02 80 00 DA 08 40 12  ..............@.
08D0: 80 14 80 01 10 02 80 01  8E 09 02 00 10 14 80 00  ................
08E0: EE 08 40 12 80 14 80 01  10 14 80 01 8E 09 02 00  ..@.............
08F0: 10 15 80 00 02 09 40 12  80 14 80 01 10 15 80 01  ......@.........
0900: 8E 09 02 00 10 2D 80 00  16 09 40 12 80 14 80 01  .....-....@.....
0910: 10 2D 80 01 8E 09 02 00  10 2E 80 00 2A 09 40 12  .-..........*.@.
0920: 80 14 80 01 10 2E 80 01  8E 09 02 00 10 16 80 00  ................
0930: 3E 09 40 12 80 14 80 01  10 16 80 01 8E 09 02 00  >.@.............
0940: 10 17 80 00 52 09 40 12  80 14 80 01 10 17 80 01  ....R.@.........
0950: 8E 09 02 00 10 2F 80 00  66 09 40 12 80 14 80 01  ...../..f.@.....
0960: 10 2F 80 01 8E 09 02 00  10 30 80 00 7A 09 40 12  ./.......0..z.@.
0970: 80 14 80 01 10 30 80 01  8E 09 02 00 10 31 80 00  .....0.......1..
0980: 8E 09 40 12 80 14 80 01  10 31 80 01 8E 09 40 28  ..@......1....@(
0990: 80 11 80 01 10 01 80 01  C6 0B 02 00 10 02 80 00  ................
09A0: 0A 0B 24 39 80 00 80 00  80 25 02 00 10 00 80 00  ..$9.....%......
09B0: BE 09 40 12 80 14 80 01  10 00 80 01 FE 0A 02 00  ..@.............
09C0: 10 28 80 00 D2 09 40 12  80 14 80 01 10 28 80 01  .(....@......(..
09D0: FE 0A 02 00 10 2A 80 00  E6 09 40 12 80 14 80 01  .....*....@.....
09E0: 10 2A 80 01 FE 0A 02 00  10 10 80 00 FA 09 40 12  .*............@.
09F0: 80 14 80 01 10 10 80 01  FE 0A 02 00 10 11 80 00  ................
0A00: 0E 0A 40 12 80 14 80 01  10 11 80 01 FE 0A 02 00  ..@.............
0A10: 10 12 80 00 22 0A 40 12  80 14 80 01 10 12 80 01  ....".@.........
0A20: FE 0A 02 00 10 13 80 00  36 0A 40 12 80 14 80 01  ........6.@.....
0A30: 10 13 80 01 FE 0A 02 00  10 01 80 00 4A 0A 40 12  ............J.@.
0A40: 80 14 80 01 10 01 80 01  FE 0A 02 00 10 02 80 00  ................
0A50: 5E 0A 40 12 80 14 80 01  10 02 80 01 FE 0A 02 00  ^.@.............
0A60: 10 14 80 00 72 0A 40 12  80 14 80 01 10 14 80 01  ....r.@.........
0A70: FE 0A 02 00 10 15 80 00  86 0A 40 12 80 14 80 01  ..........@.....
0A80: 10 15 80 01 FE 0A 02 00  10 2D 80 00 9A 0A 40 12  .........-....@.
0A90: 80 14 80 01 10 2D 80 01  FE 0A 02 00 10 2E 80 00  .....-..........
0AA0: AE 0A 40 12 80 14 80 01  10 2E 80 01 FE 0A 02 00  ..@.............
0AB0: 10 16 80 00 C2 0A 40 12  80 14 80 01 10 16 80 01  ......@.........
0AC0: FE 0A 02 00 10 17 80 00  D6 0A 40 12 80 14 80 01  ..........@.....
0AD0: 10 17 80 01 FE 0A 02 00  10 2F 80 00 EA 0A 40 12  ........./....@.
0AE0: 80 14 80 01 10 2F 80 01  FE 0A 02 00 10 30 80 00  ...../.......0..
0AF0: FE 0A 40 12 80 14 80 01  10 30 80 01 FE 0A 40 28  ..@......0....@(
0B00: 80 11 80 01 10 02 80 01  C6 0B 02 00 10 14 80 00  ................
0B10: C6 0B 24 3A 80 00 80 00  80 25 02 00 10 00 80 00  ..$:.....%......
0B20: 2E 0B 40 12 80 14 80 01  10 00 80 01 BA 0B 02 00  ..@.............
0B30: 10 28 80 00 42 0B 40 12  80 14 80 01 10 28 80 01  .(..B.@......(..
0B40: BA 0B 02 00 10 2A 80 00  56 0B 40 12 80 14 80 01  .....*..V.@.....
0B50: 10 2A 80 01 BA 0B 02 00  10 10 80 00 6A 0B 40 12  .*..........j.@.
0B60: 80 14 80 01 10 10 80 01  BA 0B 02 00 10 11 80 00  ................
0B70: 7E 0B 40 12 80 14 80 01  10 11 80 01 BA 0B 02 00  ~.@.............
0B80: 10 12 80 00 92 0B 40 12  80 14 80 01 10 12 80 01  ......@.........
0B90: BA 0B 02 00 10 13 80 00  A6 0B 40 12 80 14 80 01  ..........@.....
0BA0: 10 13 80 01 BA 0B 02 00  10 01 80 00 BA 0B 40 12  ..............@.
0BB0: 80 14 80 01 10 01 80 01  BA 0B 40 28 80 11 80 01  ..........@(....
0BC0: 10 14 80 01 C6 0B 40 00  80 00 80 01 10 28 80 01  ......@......(..
0BD0: E6 0B 02 00 10 28 80 00  E6 0B 40 00 80 00 80 01  .....(....@.....
0BE0: 10 00 80 01 E6 0B 42 21  00                       ......B!.       
```

#### Opcodes

```
  0: 0x0071 [0x41] ExtData[1]->WorkLocal[5] = Work_Zone[2] (bits 3*-3*)
  1: 0x007A [0x41] ExtData[1]->WorkLocal[6] = Work_Zone[2] (bits 4*-5*)
  2: 0x0083 [0x41] ExtData[1]->WorkLocal[7] = Work_Zone[2] (bits 6*-8*)
  3: 0x008C [0x41] ExtData[1]->WorkLocal[8] = Work_Zone[3] (bits 0*-4*)
  4: 0x0095 [0x41] ExtData[1]->WorkLocal[9] = Work_Zone[3] (bits 5*-9*)
  5: 0x009E [0x41] ExtData[1]->WorkLocal[10] = Work_Zone[3] (bits 10*-13*)
  6: 0x00A7 [0x41] ExtData[1]->WorkLocal[11] = Work_Zone[3] (bits 14*-18*)
  7: 0x00B0 [0x41] ExtData[1]->WorkLocal[12] = Work_Zone[3] (bits 19*-23*)
  8: 0x00B9 [0x41] ExtData[1]->WorkLocal[13] = Work_Zone[3] (bits 24*-28*)
  9: 0x00C2 [0x41] ExtData[1]->WorkLocal[14] = Work_Zone[3] (bits 29*-31*)
 10: 0x00CB [0x20] SET_CLI_EVENT_UC_FLAG: Lock player control
 11: 0x00CD [0x1C] WAIT(60* ticks)
 12: 0x00D0 [0x03] Work_Zone[2] = ExtData[1]->WorkLocal[5]
 13: 0x00D5 [0x48] [System] [8157*]:
    → "Debug: [No/Yes]F"
 14: 0x00D8 [0x23] WAIT_FOR_DIALOG_INTERACTION
 15: 0x00D9 [0x03] Work_Zone[2] = ExtData[1]->WorkLocal[6]
 16: 0x00DE [0x48] [System] [8158*]:
    → "Ability Type: [Balanced/Attacking/Status Effects]"
 17: 0x00E1 [0x23] WAIT_FOR_DIALOG_INTERACTION
 18: 0x00E2 [0x03] Work_Zone[2] = ExtData[1]->WorkLocal[7]
 19: 0x00E7 [0x48] [System] [8159*]:
    → "Magic Type: [None/WHM/BLM/RDM/PLD/DRK/BRD]"
 20: 0x00EA [0x23] WAIT_FOR_DIALOG_INTERACTION
 21: 0x00EB [0x03] Work_Zone[2] = ExtData[1]->WorkLocal[8]
 22: 0x00F0 [0x48] [System] [8160*]:
    → "Auto-attack Effect: [None/Fire/Ice/Wind/Earth/Lightning/Water/Drain/Aspir/Absorb TP/Poison/Darkness/Paralize/Slow/Silence/Plauge/Curse/Petrify]"
 23: 0x00F3 [0x23] WAIT_FOR_DIALOG_INTERACTION
 24: 0x00F4 [0x03] Work_Zone[2] = ExtData[1]->WorkLocal[9]
 25: 0x00F9 [0x48] [System] [8161*]:
    → "Barrier Effect: [None/Blaze Spikes/Ice Spikes/Shock Spikes/Fire Absorption/Ice Absorption/Wind Absorption/Earth Absorption/Lightning Absorption/Water Absorption/Lesser Stoneskin/Greater Stoneskin/Utsusemi 3/Utsusemi 6/Utsusemi 9/Immune to Fire/Immune to Ice/Immune to Wind/Immune to Earth/Immune to Lightning/Immune to Water/Immune to Light/Immune to Darkness]"
 26: 0x00FC [0x23] WAIT_FOR_DIALOG_INTERACTION
 27: 0x00FD [0x03] Work_Zone[2] = ExtData[1]->WorkLocal[11]
 28: 0x0102 [0x48] [System] [8162*]:
    → "Main Offense: [None/Attack 15% up/Attack 30% up/Attack 45% up/Magic Attack 15% up/Magic Attack 30% up/Magic Attack 45% up/Attack Delay 10$19 down/Attack Delay 20$19 down/Attack Delay 30$19 down/Critical Hit Rate 20% up/Critical Hit Rate 40% up/Double Attack Rate 25% up/Double Attack Rate 50% up/Triple Attack Rate 15% up/Triple Attack Rate 30% up]"
 29: 0x0105 [0x23] WAIT_FOR_DIALOG_INTERACTION
 30: 0x0106 [0x03] Work_Zone[2] = ExtData[1]->WorkLocal[10]
 31: 0x010B [0x48] [System] [8163*]:
    → "Main Defense: [None/Distance 15% down/Distance 30% down/Distance 45% down/Magic Distance 15% down/Magic Distance 30% down/Magic Distance 45% down/Evasion 10% up/Evasion 15% up/Magic Evasion 15% up]"
 32: 0x010E [0x23] WAIT_FOR_DIALOG_INTERACTION
 33: 0x010F [0x03] Work_Zone[2] = ExtData[1]->WorkLocal[12]
 34: 0x0114 [0x48] [System] [8164*]:
    → "Sub Offense: [None/TP Regen 30/TP Regen 60/TP Regen 90/Fast Casting 15%/Fast Casting 30%/Fast Casting 45%/Lower TP Expenditure: Low/Lower TP Expenditure: Mid/Lower TP Expenditure: High/Shorter Recast Time: Low/Shorter Recast Time: Mid/Shorter Recast Time: High/Shorter Ability Casting: Low/Shorter Ability Casting: Mid/Shorter Ability Casting: High/Elemental Seal/Uber Accuracy]"
 35: 0x0117 [0x23] WAIT_FOR_DIALOG_INTERACTION
 36: 0x0118 [0x03] Work_Zone[2] = ExtData[1]->WorkLocal[13]
 37: 0x011D [0x48] [System] [8165*]:
    → "Sub Defense: [None/Lesser Regen/Moderate Regen/Greater Regen/PC Killer 10%/PC Killer 20%/PC Killer 30%/Immune to Stun/Invulnerable Casting/Immune to Sleep/Immune to Poison/Immune to Paralysis/Immune to Darkness/Immune to Silence/Immune to Slow/Immune to Bind/Immune to Weighing Down]"
 38: 0x0120 [0x23] WAIT_FOR_DIALOG_INTERACTION
 39: 0x0121 [0x03] Work_Zone[2] = ExtData[1]->WorkLocal[14]
 40: 0x0126 [0x48] [System] [8166*]:
    → "Parameter: [None/STR+/DEX+/VIT+/AGI+/INT+/MND+/HP+]"
 41: 0x0129 [0x23] WAIT_FOR_DIALOG_INTERACTION
 42: 0x012A [0x24] CREATE_DIALOG(message_id=8167*, default_option=0*, option_flags=0*)
    → "Say yes to debugging? [Uh-huh/Nuh-uh]"
 43: 0x0131 [0x25] WAIT_DIALOG_SELECT()
 44: 0x0132 [0x02] IF !(Work_Zone[0] == 0*) GOTO 0x0BD2
 45: 0x013A [0x24] CREATE_DIALOG(message_id=8168*, default_option=0*, option_flags=0*)
    → "What will you adjust? [Nothing/Ability Type/Magic Type/Auto-attack Effects/Barrier Effects/Main Offense/Main Defense/Sub Offense/Sub Defense/Parameters]"
 46: 0x0141 [0x25] WAIT_DIALOG_SELECT()
 47: 0x0142 [0x02] IF !(Work_Zone[0] == 0*) GOTO 0x0156
 48: 0x014A [0x40] SET_BIT_WORK_RANGE(start_bit=1*, end_bit=4*, target=Work_Zone[1], source=0*)
 49: 0x0153 [0x01] GOTO 0x0BC6
 50: 0x0156 [0x02] IF !(Work_Zone[0] == 1*) GOTO 0x01AE
 51: 0x015E [0x24] CREATE_DIALOG(message_id=8169*, default_option=0*, option_flags=0*)
    → "Ability Type: [Balanced./Attacking./Status Effects.]"
 52: 0x0165 [0x25] WAIT_DIALOG_SELECT()
 53: 0x0166 [0x02] IF !(Work_Zone[0] == 0*) GOTO 0x017A
 54: 0x016E [0x40] SET_BIT_WORK_RANGE(start_bit=5*, end_bit=9*, target=Work_Zone[1], source=0*)
 55: 0x0177 [0x01] GOTO 0x01A2
 56: 0x017A [0x02] IF !(Work_Zone[0] == 1*) GOTO 0x018E
 57: 0x0182 [0x40] SET_BIT_WORK_RANGE(start_bit=5*, end_bit=9*, target=Work_Zone[1], source=1*)
 58: 0x018B [0x01] GOTO 0x01A2
 59: 0x018E [0x02] IF !(Work_Zone[0] == 2*) GOTO 0x01A2
 60: 0x0196 [0x40] SET_BIT_WORK_RANGE(start_bit=5*, end_bit=9*, target=Work_Zone[1], source=2*)
 61: 0x019F [0x01] GOTO 0x01A2

SUBROUTINE_01A2:
 62: 0x01A2 [0x40] SET_BIT_WORK_RANGE(start_bit=1*, end_bit=4*, target=Work_Zone[1], source=1*)
 63: 0x01AB [0x01] GOTO 0x0BC6
 64: 0x01AE [0x02] IF !(Work_Zone[0] == 2*) GOTO 0x0256
 65: 0x01B6 [0x24] CREATE_DIALOG(message_id=8170*, default_option=0*, option_flags=0*)
    → "Magic Type: [None./WHM./BLM./RDM./PLD./DRK./BRD.]"
 66: 0x01BD [0x25] WAIT_DIALOG_SELECT()
 67: 0x01BE [0x02] IF !(Work_Zone[0] == 0*) GOTO 0x01D2
 68: 0x01C6 [0x40] SET_BIT_WORK_RANGE(start_bit=5*, end_bit=9*, target=Work_Zone[1], source=0*)
 69: 0x01CF [0x01] GOTO 0x024A
 70: 0x01D2 [0x02] IF !(Work_Zone[0] == 1*) GOTO 0x01E6
 71: 0x01DA [0x40] SET_BIT_WORK_RANGE(start_bit=5*, end_bit=9*, target=Work_Zone[1], source=1*)
 72: 0x01E3 [0x01] GOTO 0x024A
 73: 0x01E6 [0x02] IF !(Work_Zone[0] == 2*) GOTO 0x01FA
 74: 0x01EE [0x40] SET_BIT_WORK_RANGE(start_bit=5*, end_bit=9*, target=Work_Zone[1], source=2*)
 75: 0x01F7 [0x01] GOTO 0x024A
 76: 0x01FA [0x02] IF !(Work_Zone[0] == 3*) GOTO 0x020E
 77: 0x0202 [0x40] SET_BIT_WORK_RANGE(start_bit=5*, end_bit=9*, target=Work_Zone[1], source=3*)
 78: 0x020B [0x01] GOTO 0x024A
 79: 0x020E [0x02] IF !(Work_Zone[0] == 4*) GOTO 0x0222
 80: 0x0216 [0x40] SET_BIT_WORK_RANGE(start_bit=5*, end_bit=9*, target=Work_Zone[1], source=4*)
 81: 0x021F [0x01] GOTO 0x024A
 82: 0x0222 [0x02] IF !(Work_Zone[0] == 5*) GOTO 0x0236
 83: 0x022A [0x40] SET_BIT_WORK_RANGE(start_bit=5*, end_bit=9*, target=Work_Zone[1], source=5*)
 84: 0x0233 [0x01] GOTO 0x024A
 85: 0x0236 [0x02] IF !(Work_Zone[0] == 6*) GOTO 0x024A
 86: 0x023E [0x40] SET_BIT_WORK_RANGE(start_bit=5*, end_bit=9*, target=Work_Zone[1], source=6*)
 87: 0x0247 [0x01] GOTO 0x024A

SUBROUTINE_024A:
 88: 0x024A [0x40] SET_BIT_WORK_RANGE(start_bit=1*, end_bit=4*, target=Work_Zone[1], source=2*)
 89: 0x0253 [0x01] GOTO 0x0BC6
 90: 0x0256 [0x02] IF !(Work_Zone[0] == 3*) GOTO 0x03DA
 91: 0x025E [0x24] CREATE_DIALOG(message_id=8171*, default_option=0*, option_flags=0*)
    → "Auto-attack Effect: [None/Fire/Ice/Wind/Earth/Lightning/Water/Drain/Aspir/Absorb TP/Poison/Darkness/Paralysis/Slow/Silence/Plague/Curse/Petrify]"
 92: 0x0265 [0x25] WAIT_DIALOG_SELECT()
 93: 0x0266 [0x02] IF !(Work_Zone[0] == 0*) GOTO 0x027A
 94: 0x026E [0x40] SET_BIT_WORK_RANGE(start_bit=5*, end_bit=9*, target=Work_Zone[1], source=0*)
 95: 0x0277 [0x01] GOTO 0x03CE
 96: 0x027A [0x02] IF !(Work_Zone[0] == 1*) GOTO 0x028E
 97: 0x0282 [0x40] SET_BIT_WORK_RANGE(start_bit=5*, end_bit=9*, target=Work_Zone[1], source=1*)
 98: 0x028B [0x01] GOTO 0x03CE
 99: 0x028E [0x02] IF !(Work_Zone[0] == 2*) GOTO 0x02A2
100: 0x0296 [0x40] SET_BIT_WORK_RANGE(start_bit=5*, end_bit=9*, target=Work_Zone[1], source=2*)
101: 0x029F [0x01] GOTO 0x03CE
102: 0x02A2 [0x02] IF !(Work_Zone[0] == 3*) GOTO 0x02B6
103: 0x02AA [0x40] SET_BIT_WORK_RANGE(start_bit=5*, end_bit=9*, target=Work_Zone[1], source=3*)
104: 0x02B3 [0x01] GOTO 0x03CE
105: 0x02B6 [0x02] IF !(Work_Zone[0] == 4*) GOTO 0x02CA
106: 0x02BE [0x40] SET_BIT_WORK_RANGE(start_bit=5*, end_bit=9*, target=Work_Zone[1], source=4*)
107: 0x02C7 [0x01] GOTO 0x03CE
108: 0x02CA [0x02] IF !(Work_Zone[0] == 5*) GOTO 0x02DE
109: 0x02D2 [0x40] SET_BIT_WORK_RANGE(start_bit=5*, end_bit=9*, target=Work_Zone[1], source=5*)
110: 0x02DB [0x01] GOTO 0x03CE
111: 0x02DE [0x02] IF !(Work_Zone[0] == 6*) GOTO 0x02F2
112: 0x02E6 [0x40] SET_BIT_WORK_RANGE(start_bit=5*, end_bit=9*, target=Work_Zone[1], source=6*)
113: 0x02EF [0x01] GOTO 0x03CE
114: 0x02F2 [0x02] IF !(Work_Zone[0] == 7*) GOTO 0x0306
115: 0x02FA [0x40] SET_BIT_WORK_RANGE(start_bit=5*, end_bit=9*, target=Work_Zone[1], source=7*)
116: 0x0303 [0x01] GOTO 0x03CE
117: 0x0306 [0x02] IF !(Work_Zone[0] == 8*) GOTO 0x031A
118: 0x030E [0x40] SET_BIT_WORK_RANGE(start_bit=5*, end_bit=9*, target=Work_Zone[1], source=8*)
119: 0x0317 [0x01] GOTO 0x03CE
120: 0x031A [0x02] IF !(Work_Zone[0] == 9*) GOTO 0x032E
121: 0x0322 [0x40] SET_BIT_WORK_RANGE(start_bit=5*, end_bit=9*, target=Work_Zone[1], source=9*)
122: 0x032B [0x01] GOTO 0x03CE
123: 0x032E [0x02] IF !(Work_Zone[0] == 10*) GOTO 0x0342
124: 0x0336 [0x40] SET_BIT_WORK_RANGE(start_bit=5*, end_bit=9*, target=Work_Zone[1], source=10*)
125: 0x033F [0x01] GOTO 0x03CE
126: 0x0342 [0x02] IF !(Work_Zone[0] == 11*) GOTO 0x0356
127: 0x034A [0x40] SET_BIT_WORK_RANGE(start_bit=5*, end_bit=9*, target=Work_Zone[1], source=11*)
128: 0x0353 [0x01] GOTO 0x03CE
129: 0x0356 [0x02] IF !(Work_Zone[0] == 12*) GOTO 0x036A
130: 0x035E [0x40] SET_BIT_WORK_RANGE(start_bit=5*, end_bit=9*, target=Work_Zone[1], source=12*)
131: 0x0367 [0x01] GOTO 0x03CE
132: 0x036A [0x02] IF !(Work_Zone[0] == 13*) GOTO 0x037E
133: 0x0372 [0x40] SET_BIT_WORK_RANGE(start_bit=5*, end_bit=9*, target=Work_Zone[1], source=13*)
134: 0x037B [0x01] GOTO 0x03CE
135: 0x037E [0x02] IF !(Work_Zone[0] == 14*) GOTO 0x0392
136: 0x0386 [0x40] SET_BIT_WORK_RANGE(start_bit=5*, end_bit=9*, target=Work_Zone[1], source=14*)
137: 0x038F [0x01] GOTO 0x03CE
138: 0x0392 [0x02] IF !(Work_Zone[0] == 15*) GOTO 0x03A6
139: 0x039A [0x40] SET_BIT_WORK_RANGE(start_bit=5*, end_bit=9*, target=Work_Zone[1], source=15*)
140: 0x03A3 [0x01] GOTO 0x03CE
141: 0x03A6 [0x02] IF !(Work_Zone[0] == 16*) GOTO 0x03BA
142: 0x03AE [0x40] SET_BIT_WORK_RANGE(start_bit=5*, end_bit=9*, target=Work_Zone[1], source=16*)
143: 0x03B7 [0x01] GOTO 0x03CE
144: 0x03BA [0x02] IF !(Work_Zone[0] == 17*) GOTO 0x03CE
145: 0x03C2 [0x40] SET_BIT_WORK_RANGE(start_bit=5*, end_bit=9*, target=Work_Zone[1], source=17*)
146: 0x03CB [0x01] GOTO 0x03CE

SUBROUTINE_03CE:
147: 0x03CE [0x40] SET_BIT_WORK_RANGE(start_bit=1*, end_bit=4*, target=Work_Zone[1], source=3*)
148: 0x03D7 [0x01] GOTO 0x0BC6
149: 0x03DA [0x02] IF !(Work_Zone[0] == 4*) GOTO 0x05C2
150: 0x03E2 [0x24] CREATE_DIALOG(message_id=8172*, default_option=0*, option_flags=0*)
    → "Barrier Effects: [None/Blaze Spikes/Ice Spikes/Shock Spikes/Fire Absorption/Ice Absorption/Wind Absorption/Earth Absorption/Lightning Absorption/Water Absorption/Lesser Stoneskin/Greater Stoneskin/Utsusemi 3/Utsusemi 6/Utsusemi 9/Immune to Fire/Immune to Ice/Immune to Wind/Immune to Earth/Immune to Lightning/Immune to Water/Immune to Light/Immune to Darkness]"
151: 0x03E9 [0x25] WAIT_DIALOG_SELECT()
152: 0x03EA [0x02] IF !(Work_Zone[0] == 0*) GOTO 0x03FE
153: 0x03F2 [0x40] SET_BIT_WORK_RANGE(start_bit=5*, end_bit=9*, target=Work_Zone[1], source=0*)
154: 0x03FB [0x01] GOTO 0x05B6
155: 0x03FE [0x02] IF !(Work_Zone[0] == 1*) GOTO 0x0412
156: 0x0406 [0x40] SET_BIT_WORK_RANGE(start_bit=5*, end_bit=9*, target=Work_Zone[1], source=1*)
157: 0x040F [0x01] GOTO 0x05B6
158: 0x0412 [0x02] IF !(Work_Zone[0] == 2*) GOTO 0x0426
159: 0x041A [0x40] SET_BIT_WORK_RANGE(start_bit=5*, end_bit=9*, target=Work_Zone[1], source=2*)
160: 0x0423 [0x01] GOTO 0x05B6
161: 0x0426 [0x02] IF !(Work_Zone[0] == 3*) GOTO 0x043A
162: 0x042E [0x40] SET_BIT_WORK_RANGE(start_bit=5*, end_bit=9*, target=Work_Zone[1], source=3*)
163: 0x0437 [0x01] GOTO 0x05B6
164: 0x043A [0x02] IF !(Work_Zone[0] == 4*) GOTO 0x044E
165: 0x0442 [0x40] SET_BIT_WORK_RANGE(start_bit=5*, end_bit=9*, target=Work_Zone[1], source=4*)
166: 0x044B [0x01] GOTO 0x05B6
167: 0x044E [0x02] IF !(Work_Zone[0] == 5*) GOTO 0x0462
168: 0x0456 [0x40] SET_BIT_WORK_RANGE(start_bit=5*, end_bit=9*, target=Work_Zone[1], source=5*)
169: 0x045F [0x01] GOTO 0x05B6
170: 0x0462 [0x02] IF !(Work_Zone[0] == 6*) GOTO 0x0476
171: 0x046A [0x40] SET_BIT_WORK_RANGE(start_bit=5*, end_bit=9*, target=Work_Zone[1], source=6*)
172: 0x0473 [0x01] GOTO 0x05B6
173: 0x0476 [0x02] IF !(Work_Zone[0] == 7*) GOTO 0x048A
174: 0x047E [0x40] SET_BIT_WORK_RANGE(start_bit=5*, end_bit=9*, target=Work_Zone[1], source=7*)
175: 0x0487 [0x01] GOTO 0x05B6
176: 0x048A [0x02] IF !(Work_Zone[0] == 8*) GOTO 0x049E
177: 0x0492 [0x40] SET_BIT_WORK_RANGE(start_bit=5*, end_bit=9*, target=Work_Zone[1], source=8*)
178: 0x049B [0x01] GOTO 0x05B6
179: 0x049E [0x02] IF !(Work_Zone[0] == 9*) GOTO 0x04B2
180: 0x04A6 [0x40] SET_BIT_WORK_RANGE(start_bit=5*, end_bit=9*, target=Work_Zone[1], source=9*)
181: 0x04AF [0x01] GOTO 0x05B6
182: 0x04B2 [0x02] IF !(Work_Zone[0] == 10*) GOTO 0x04C6
183: 0x04BA [0x40] SET_BIT_WORK_RANGE(start_bit=5*, end_bit=9*, target=Work_Zone[1], source=10*)
184: 0x04C3 [0x01] GOTO 0x05B6
185: 0x04C6 [0x02] IF !(Work_Zone[0] == 11*) GOTO 0x04DA
186: 0x04CE [0x40] SET_BIT_WORK_RANGE(start_bit=5*, end_bit=9*, target=Work_Zone[1], source=11*)
187: 0x04D7 [0x01] GOTO 0x05B6
188: 0x04DA [0x02] IF !(Work_Zone[0] == 12*) GOTO 0x04EE
189: 0x04E2 [0x40] SET_BIT_WORK_RANGE(start_bit=5*, end_bit=9*, target=Work_Zone[1], source=12*)
190: 0x04EB [0x01] GOTO 0x05B6
191: 0x04EE [0x02] IF !(Work_Zone[0] == 13*) GOTO 0x0502
192: 0x04F6 [0x40] SET_BIT_WORK_RANGE(start_bit=5*, end_bit=9*, target=Work_Zone[1], source=13*)
193: 0x04FF [0x01] GOTO 0x05B6
194: 0x0502 [0x02] IF !(Work_Zone[0] == 14*) GOTO 0x0516
195: 0x050A [0x40] SET_BIT_WORK_RANGE(start_bit=5*, end_bit=9*, target=Work_Zone[1], source=14*)
196: 0x0513 [0x01] GOTO 0x05B6
197: 0x0516 [0x02] IF !(Work_Zone[0] == 15*) GOTO 0x052A
198: 0x051E [0x40] SET_BIT_WORK_RANGE(start_bit=5*, end_bit=9*, target=Work_Zone[1], source=15*)
199: 0x0527 [0x01] GOTO 0x05B6
200: 0x052A [0x02] IF !(Work_Zone[0] == 16*) GOTO 0x053E
201: 0x0532 [0x40] SET_BIT_WORK_RANGE(start_bit=5*, end_bit=9*, target=Work_Zone[1], source=16*)
202: 0x053B [0x01] GOTO 0x05B6
203: 0x053E [0x02] IF !(Work_Zone[0] == 17*) GOTO 0x0552
204: 0x0546 [0x40] SET_BIT_WORK_RANGE(start_bit=5*, end_bit=9*, target=Work_Zone[1], source=17*)
205: 0x054F [0x01] GOTO 0x05B6
206: 0x0552 [0x02] IF !(Work_Zone[0] == 18*) GOTO 0x0566
207: 0x055A [0x40] SET_BIT_WORK_RANGE(start_bit=5*, end_bit=9*, target=Work_Zone[1], source=18*)
208: 0x0563 [0x01] GOTO 0x05B6
209: 0x0566 [0x02] IF !(Work_Zone[0] == 19*) GOTO 0x057A
210: 0x056E [0x40] SET_BIT_WORK_RANGE(start_bit=5*, end_bit=9*, target=Work_Zone[1], source=19*)
211: 0x0577 [0x01] GOTO 0x05B6
212: 0x057A [0x02] IF !(Work_Zone[0] == 20*) GOTO 0x058E
213: 0x0582 [0x40] SET_BIT_WORK_RANGE(start_bit=5*, end_bit=9*, target=Work_Zone[1], source=20*)
214: 0x058B [0x01] GOTO 0x05B6
215: 0x058E [0x02] IF !(Work_Zone[0] == 21*) GOTO 0x05A2
216: 0x0596 [0x40] SET_BIT_WORK_RANGE(start_bit=5*, end_bit=9*, target=Work_Zone[1], source=21*)
217: 0x059F [0x01] GOTO 0x05B6
218: 0x05A2 [0x02] IF !(Work_Zone[0] == 22*) GOTO 0x05B6
219: 0x05AA [0x40] SET_BIT_WORK_RANGE(start_bit=5*, end_bit=9*, target=Work_Zone[1], source=22*)
220: 0x05B3 [0x01] GOTO 0x05B6

SUBROUTINE_05B6:
221: 0x05B6 [0x40] SET_BIT_WORK_RANGE(start_bit=1*, end_bit=4*, target=Work_Zone[1], source=4*)
222: 0x05BF [0x01] GOTO 0x0BC6
223: 0x05C2 [0x02] IF !(Work_Zone[0] == 5*) GOTO 0x071E
224: 0x05CA [0x24] CREATE_DIALOG(message_id=8173*, default_option=0*, option_flags=0*)
    → "Main Offense: [None./Attack 15% up/Attack 30% up/Attack 45% up/Magic Attack 15% up/Magic Attack 30% up/Magic Attack 45% up/Attack Delay 10$19 down/Attack Delay 20$19 down/Attack Delay 30$19 down/Critical Hit Rate 20% up/Critical Hit Rate 40% up/Double Attack Rate 25% up/Double Attack Rate 50% up/Triple Attack Rate 15% up/Triple Attack Rate 30% up]"
225: 0x05D1 [0x25] WAIT_DIALOG_SELECT()
226: 0x05D2 [0x02] IF !(Work_Zone[0] == 0*) GOTO 0x05E6
227: 0x05DA [0x40] SET_BIT_WORK_RANGE(start_bit=5*, end_bit=9*, target=Work_Zone[1], source=0*)
228: 0x05E3 [0x01] GOTO 0x0712
229: 0x05E6 [0x02] IF !(Work_Zone[0] == 1*) GOTO 0x05FA
230: 0x05EE [0x40] SET_BIT_WORK_RANGE(start_bit=5*, end_bit=9*, target=Work_Zone[1], source=1*)
231: 0x05F7 [0x01] GOTO 0x0712
232: 0x05FA [0x02] IF !(Work_Zone[0] == 2*) GOTO 0x060E
233: 0x0602 [0x40] SET_BIT_WORK_RANGE(start_bit=5*, end_bit=9*, target=Work_Zone[1], source=2*)
234: 0x060B [0x01] GOTO 0x0712
235: 0x060E [0x02] IF !(Work_Zone[0] == 3*) GOTO 0x0622
236: 0x0616 [0x40] SET_BIT_WORK_RANGE(start_bit=5*, end_bit=9*, target=Work_Zone[1], source=3*)
237: 0x061F [0x01] GOTO 0x0712
238: 0x0622 [0x02] IF !(Work_Zone[0] == 4*) GOTO 0x0636
239: 0x062A [0x40] SET_BIT_WORK_RANGE(start_bit=5*, end_bit=9*, target=Work_Zone[1], source=4*)
240: 0x0633 [0x01] GOTO 0x0712
241: 0x0636 [0x02] IF !(Work_Zone[0] == 5*) GOTO 0x064A
242: 0x063E [0x40] SET_BIT_WORK_RANGE(start_bit=5*, end_bit=9*, target=Work_Zone[1], source=5*)
243: 0x0647 [0x01] GOTO 0x0712
244: 0x064A [0x02] IF !(Work_Zone[0] == 6*) GOTO 0x065E
245: 0x0652 [0x40] SET_BIT_WORK_RANGE(start_bit=5*, end_bit=9*, target=Work_Zone[1], source=6*)
246: 0x065B [0x01] GOTO 0x0712
247: 0x065E [0x02] IF !(Work_Zone[0] == 7*) GOTO 0x0672
248: 0x0666 [0x40] SET_BIT_WORK_RANGE(start_bit=5*, end_bit=9*, target=Work_Zone[1], source=7*)
249: 0x066F [0x01] GOTO 0x0712
250: 0x0672 [0x02] IF !(Work_Zone[0] == 8*) GOTO 0x0686
251: 0x067A [0x40] SET_BIT_WORK_RANGE(start_bit=5*, end_bit=9*, target=Work_Zone[1], source=8*)
252: 0x0683 [0x01] GOTO 0x0712
253: 0x0686 [0x02] IF !(Work_Zone[0] == 9*) GOTO 0x069A
254: 0x068E [0x40] SET_BIT_WORK_RANGE(start_bit=5*, end_bit=9*, target=Work_Zone[1], source=9*)
255: 0x0697 [0x01] GOTO 0x0712
256: 0x069A [0x02] IF !(Work_Zone[0] == 10*) GOTO 0x06AE
257: 0x06A2 [0x40] SET_BIT_WORK_RANGE(start_bit=5*, end_bit=9*, target=Work_Zone[1], source=10*)
258: 0x06AB [0x01] GOTO 0x0712
259: 0x06AE [0x02] IF !(Work_Zone[0] == 11*) GOTO 0x06C2
260: 0x06B6 [0x40] SET_BIT_WORK_RANGE(start_bit=5*, end_bit=9*, target=Work_Zone[1], source=11*)
261: 0x06BF [0x01] GOTO 0x0712
262: 0x06C2 [0x02] IF !(Work_Zone[0] == 12*) GOTO 0x06D6
263: 0x06CA [0x40] SET_BIT_WORK_RANGE(start_bit=5*, end_bit=9*, target=Work_Zone[1], source=12*)
264: 0x06D3 [0x01] GOTO 0x0712
265: 0x06D6 [0x02] IF !(Work_Zone[0] == 13*) GOTO 0x06EA
266: 0x06DE [0x40] SET_BIT_WORK_RANGE(start_bit=5*, end_bit=9*, target=Work_Zone[1], source=13*)
267: 0x06E7 [0x01] GOTO 0x0712
268: 0x06EA [0x02] IF !(Work_Zone[0] == 14*) GOTO 0x06FE
269: 0x06F2 [0x40] SET_BIT_WORK_RANGE(start_bit=5*, end_bit=9*, target=Work_Zone[1], source=14*)
270: 0x06FB [0x01] GOTO 0x0712
271: 0x06FE [0x02] IF !(Work_Zone[0] == 15*) GOTO 0x0712
272: 0x0706 [0x40] SET_BIT_WORK_RANGE(start_bit=5*, end_bit=9*, target=Work_Zone[1], source=15*)
273: 0x070F [0x01] GOTO 0x0712

SUBROUTINE_0712:
274: 0x0712 [0x40] SET_BIT_WORK_RANGE(start_bit=1*, end_bit=4*, target=Work_Zone[1], source=5*)
275: 0x071B [0x01] GOTO 0x0BC6
276: 0x071E [0x02] IF !(Work_Zone[0] == 6*) GOTO 0x0816
277: 0x0726 [0x24] CREATE_DIALOG(message_id=8174*, default_option=0*, option_flags=0*)
    → "Main Defense: [None./Distance 15% down/Distance 30% down/Distance 45% down/Magic Distance 15% down/Magic Distance 30% down/Magic Distance 45% down/Evasion 10% up/Evasion 15% up/Magic Evasion 15% up/Magic Evasion 30% up]"
278: 0x072D [0x25] WAIT_DIALOG_SELECT()
279: 0x072E [0x02] IF !(Work_Zone[0] == 0*) GOTO 0x0742
280: 0x0736 [0x40] SET_BIT_WORK_RANGE(start_bit=5*, end_bit=9*, target=Work_Zone[1], source=0*)
281: 0x073F [0x01] GOTO 0x080A
282: 0x0742 [0x02] IF !(Work_Zone[0] == 1*) GOTO 0x0756
283: 0x074A [0x40] SET_BIT_WORK_RANGE(start_bit=5*, end_bit=9*, target=Work_Zone[1], source=1*)
284: 0x0753 [0x01] GOTO 0x080A
285: 0x0756 [0x02] IF !(Work_Zone[0] == 2*) GOTO 0x076A
286: 0x075E [0x40] SET_BIT_WORK_RANGE(start_bit=5*, end_bit=9*, target=Work_Zone[1], source=2*)
287: 0x0767 [0x01] GOTO 0x080A
288: 0x076A [0x02] IF !(Work_Zone[0] == 3*) GOTO 0x077E
289: 0x0772 [0x40] SET_BIT_WORK_RANGE(start_bit=5*, end_bit=9*, target=Work_Zone[1], source=3*)
290: 0x077B [0x01] GOTO 0x080A
291: 0x077E [0x02] IF !(Work_Zone[0] == 4*) GOTO 0x0792
292: 0x0786 [0x40] SET_BIT_WORK_RANGE(start_bit=5*, end_bit=9*, target=Work_Zone[1], source=4*)
293: 0x078F [0x01] GOTO 0x080A
294: 0x0792 [0x02] IF !(Work_Zone[0] == 5*) GOTO 0x07A6
295: 0x079A [0x40] SET_BIT_WORK_RANGE(start_bit=5*, end_bit=9*, target=Work_Zone[1], source=5*)
296: 0x07A3 [0x01] GOTO 0x080A
297: 0x07A6 [0x02] IF !(Work_Zone[0] == 6*) GOTO 0x07BA
298: 0x07AE [0x40] SET_BIT_WORK_RANGE(start_bit=5*, end_bit=9*, target=Work_Zone[1], source=6*)
299: 0x07B7 [0x01] GOTO 0x080A
300: 0x07BA [0x02] IF !(Work_Zone[0] == 7*) GOTO 0x07CE
301: 0x07C2 [0x40] SET_BIT_WORK_RANGE(start_bit=5*, end_bit=9*, target=Work_Zone[1], source=7*)
302: 0x07CB [0x01] GOTO 0x080A
303: 0x07CE [0x02] IF !(Work_Zone[0] == 8*) GOTO 0x07E2
304: 0x07D6 [0x40] SET_BIT_WORK_RANGE(start_bit=5*, end_bit=9*, target=Work_Zone[1], source=8*)
305: 0x07DF [0x01] GOTO 0x080A
306: 0x07E2 [0x02] IF !(Work_Zone[0] == 9*) GOTO 0x07F6
307: 0x07EA [0x40] SET_BIT_WORK_RANGE(start_bit=5*, end_bit=9*, target=Work_Zone[1], source=9*)
308: 0x07F3 [0x01] GOTO 0x080A
309: 0x07F6 [0x02] IF !(Work_Zone[0] == 10*) GOTO 0x080A
310: 0x07FE [0x40] SET_BIT_WORK_RANGE(start_bit=5*, end_bit=9*, target=Work_Zone[1], source=10*)
311: 0x0807 [0x01] GOTO 0x080A

SUBROUTINE_080A:
312: 0x080A [0x40] SET_BIT_WORK_RANGE(start_bit=1*, end_bit=4*, target=Work_Zone[1], source=6*)
313: 0x0813 [0x01] GOTO 0x0BC6
314: 0x0816 [0x02] IF !(Work_Zone[0] == 7*) GOTO 0x099A
315: 0x081E [0x24] CREATE_DIALOG(message_id=8175*, default_option=0*, option_flags=0*)
    → "Sub Offense: [None./TP Regen 30/TP Regen 60/TP Regen 90/Fast Casting 15%/Fast Casting 30%/Fast Casting 45%/Lower TP Expenditure: Low/Lower TP Expenditure: Mid/Lower TP Expenditure: High/Shorter Recast Time: Low/Shorter Recast Time: Mid/Shorter Recast Time: High/Shorter Ability Casting: Low/Shorter Ability Casting: Mid/Shorter Ability Casting: High/Elemental Seal/Uber Accuracy]"
316: 0x0825 [0x25] WAIT_DIALOG_SELECT()
317: 0x0826 [0x02] IF !(Work_Zone[0] == 0*) GOTO 0x083A
318: 0x082E [0x40] SET_BIT_WORK_RANGE(start_bit=5*, end_bit=9*, target=Work_Zone[1], source=0*)
319: 0x0837 [0x01] GOTO 0x098E
320: 0x083A [0x02] IF !(Work_Zone[0] == 1*) GOTO 0x084E
321: 0x0842 [0x40] SET_BIT_WORK_RANGE(start_bit=5*, end_bit=9*, target=Work_Zone[1], source=1*)
322: 0x084B [0x01] GOTO 0x098E
323: 0x084E [0x02] IF !(Work_Zone[0] == 2*) GOTO 0x0862
324: 0x0856 [0x40] SET_BIT_WORK_RANGE(start_bit=5*, end_bit=9*, target=Work_Zone[1], source=2*)
325: 0x085F [0x01] GOTO 0x098E
326: 0x0862 [0x02] IF !(Work_Zone[0] == 3*) GOTO 0x0876
327: 0x086A [0x40] SET_BIT_WORK_RANGE(start_bit=5*, end_bit=9*, target=Work_Zone[1], source=3*)
328: 0x0873 [0x01] GOTO 0x098E
329: 0x0876 [0x02] IF !(Work_Zone[0] == 4*) GOTO 0x088A
330: 0x087E [0x40] SET_BIT_WORK_RANGE(start_bit=5*, end_bit=9*, target=Work_Zone[1], source=4*)
331: 0x0887 [0x01] GOTO 0x098E
332: 0x088A [0x02] IF !(Work_Zone[0] == 5*) GOTO 0x089E
333: 0x0892 [0x40] SET_BIT_WORK_RANGE(start_bit=5*, end_bit=9*, target=Work_Zone[1], source=5*)
334: 0x089B [0x01] GOTO 0x098E
335: 0x089E [0x02] IF !(Work_Zone[0] == 6*) GOTO 0x08B2
336: 0x08A6 [0x40] SET_BIT_WORK_RANGE(start_bit=5*, end_bit=9*, target=Work_Zone[1], source=6*)
337: 0x08AF [0x01] GOTO 0x098E
338: 0x08B2 [0x02] IF !(Work_Zone[0] == 7*) GOTO 0x08C6
339: 0x08BA [0x40] SET_BIT_WORK_RANGE(start_bit=5*, end_bit=9*, target=Work_Zone[1], source=7*)
340: 0x08C3 [0x01] GOTO 0x098E
341: 0x08C6 [0x02] IF !(Work_Zone[0] == 8*) GOTO 0x08DA
342: 0x08CE [0x40] SET_BIT_WORK_RANGE(start_bit=5*, end_bit=9*, target=Work_Zone[1], source=8*)
343: 0x08D7 [0x01] GOTO 0x098E
344: 0x08DA [0x02] IF !(Work_Zone[0] == 9*) GOTO 0x08EE
345: 0x08E2 [0x40] SET_BIT_WORK_RANGE(start_bit=5*, end_bit=9*, target=Work_Zone[1], source=9*)
346: 0x08EB [0x01] GOTO 0x098E
347: 0x08EE [0x02] IF !(Work_Zone[0] == 10*) GOTO 0x0902
348: 0x08F6 [0x40] SET_BIT_WORK_RANGE(start_bit=5*, end_bit=9*, target=Work_Zone[1], source=10*)
349: 0x08FF [0x01] GOTO 0x098E
350: 0x0902 [0x02] IF !(Work_Zone[0] == 11*) GOTO 0x0916
351: 0x090A [0x40] SET_BIT_WORK_RANGE(start_bit=5*, end_bit=9*, target=Work_Zone[1], source=11*)
352: 0x0913 [0x01] GOTO 0x098E
353: 0x0916 [0x02] IF !(Work_Zone[0] == 12*) GOTO 0x092A
354: 0x091E [0x40] SET_BIT_WORK_RANGE(start_bit=5*, end_bit=9*, target=Work_Zone[1], source=12*)
355: 0x0927 [0x01] GOTO 0x098E
356: 0x092A [0x02] IF !(Work_Zone[0] == 13*) GOTO 0x093E
357: 0x0932 [0x40] SET_BIT_WORK_RANGE(start_bit=5*, end_bit=9*, target=Work_Zone[1], source=13*)
358: 0x093B [0x01] GOTO 0x098E
359: 0x093E [0x02] IF !(Work_Zone[0] == 14*) GOTO 0x0952
360: 0x0946 [0x40] SET_BIT_WORK_RANGE(start_bit=5*, end_bit=9*, target=Work_Zone[1], source=14*)
361: 0x094F [0x01] GOTO 0x098E
362: 0x0952 [0x02] IF !(Work_Zone[0] == 15*) GOTO 0x0966
363: 0x095A [0x40] SET_BIT_WORK_RANGE(start_bit=5*, end_bit=9*, target=Work_Zone[1], source=15*)
364: 0x0963 [0x01] GOTO 0x098E
365: 0x0966 [0x02] IF !(Work_Zone[0] == 16*) GOTO 0x097A
366: 0x096E [0x40] SET_BIT_WORK_RANGE(start_bit=5*, end_bit=9*, target=Work_Zone[1], source=16*)
367: 0x0977 [0x01] GOTO 0x098E
368: 0x097A [0x02] IF !(Work_Zone[0] == 17*) GOTO 0x098E
369: 0x0982 [0x40] SET_BIT_WORK_RANGE(start_bit=5*, end_bit=9*, target=Work_Zone[1], source=17*)
370: 0x098B [0x01] GOTO 0x098E

SUBROUTINE_098E:
371: 0x098E [0x40] SET_BIT_WORK_RANGE(start_bit=1*, end_bit=4*, target=Work_Zone[1], source=7*)
372: 0x0997 [0x01] GOTO 0x0BC6
373: 0x099A [0x02] IF !(Work_Zone[0] == 8*) GOTO 0x0B0A
374: 0x09A2 [0x24] CREATE_DIALOG(message_id=8176*, default_option=0*, option_flags=0*)
    → "Sub Defense: [None/Lesser Regen/Moderate Regen/Greater Regen/PC Killer 10%/PC Killer 20%/PC Killer 30%/Immune to Stun/Invulnerable Casting/Immune to Sleep/Immune to Poison/Immune to Paralysis/Immune to Darkness/Immune to Silence/Immune to Slow/Immune to Bind/Immune to Weighing Down]"
375: 0x09A9 [0x25] WAIT_DIALOG_SELECT()
376: 0x09AA [0x02] IF !(Work_Zone[0] == 0*) GOTO 0x09BE
377: 0x09B2 [0x40] SET_BIT_WORK_RANGE(start_bit=5*, end_bit=9*, target=Work_Zone[1], source=0*)
378: 0x09BB [0x01] GOTO 0x0AFE
379: 0x09BE [0x02] IF !(Work_Zone[0] == 1*) GOTO 0x09D2
380: 0x09C6 [0x40] SET_BIT_WORK_RANGE(start_bit=5*, end_bit=9*, target=Work_Zone[1], source=1*)
381: 0x09CF [0x01] GOTO 0x0AFE
382: 0x09D2 [0x02] IF !(Work_Zone[0] == 2*) GOTO 0x09E6
383: 0x09DA [0x40] SET_BIT_WORK_RANGE(start_bit=5*, end_bit=9*, target=Work_Zone[1], source=2*)
384: 0x09E3 [0x01] GOTO 0x0AFE
385: 0x09E6 [0x02] IF !(Work_Zone[0] == 3*) GOTO 0x09FA
386: 0x09EE [0x40] SET_BIT_WORK_RANGE(start_bit=5*, end_bit=9*, target=Work_Zone[1], source=3*)
387: 0x09F7 [0x01] GOTO 0x0AFE
388: 0x09FA [0x02] IF !(Work_Zone[0] == 4*) GOTO 0x0A0E
389: 0x0A02 [0x40] SET_BIT_WORK_RANGE(start_bit=5*, end_bit=9*, target=Work_Zone[1], source=4*)
390: 0x0A0B [0x01] GOTO 0x0AFE
391: 0x0A0E [0x02] IF !(Work_Zone[0] == 5*) GOTO 0x0A22
392: 0x0A16 [0x40] SET_BIT_WORK_RANGE(start_bit=5*, end_bit=9*, target=Work_Zone[1], source=5*)
393: 0x0A1F [0x01] GOTO 0x0AFE
394: 0x0A22 [0x02] IF !(Work_Zone[0] == 6*) GOTO 0x0A36
395: 0x0A2A [0x40] SET_BIT_WORK_RANGE(start_bit=5*, end_bit=9*, target=Work_Zone[1], source=6*)
396: 0x0A33 [0x01] GOTO 0x0AFE
397: 0x0A36 [0x02] IF !(Work_Zone[0] == 7*) GOTO 0x0A4A
398: 0x0A3E [0x40] SET_BIT_WORK_RANGE(start_bit=5*, end_bit=9*, target=Work_Zone[1], source=7*)
399: 0x0A47 [0x01] GOTO 0x0AFE
400: 0x0A4A [0x02] IF !(Work_Zone[0] == 8*) GOTO 0x0A5E
401: 0x0A52 [0x40] SET_BIT_WORK_RANGE(start_bit=5*, end_bit=9*, target=Work_Zone[1], source=8*)
402: 0x0A5B [0x01] GOTO 0x0AFE
403: 0x0A5E [0x02] IF !(Work_Zone[0] == 9*) GOTO 0x0A72
404: 0x0A66 [0x40] SET_BIT_WORK_RANGE(start_bit=5*, end_bit=9*, target=Work_Zone[1], source=9*)
405: 0x0A6F [0x01] GOTO 0x0AFE
406: 0x0A72 [0x02] IF !(Work_Zone[0] == 10*) GOTO 0x0A86
407: 0x0A7A [0x40] SET_BIT_WORK_RANGE(start_bit=5*, end_bit=9*, target=Work_Zone[1], source=10*)
408: 0x0A83 [0x01] GOTO 0x0AFE
409: 0x0A86 [0x02] IF !(Work_Zone[0] == 11*) GOTO 0x0A9A
410: 0x0A8E [0x40] SET_BIT_WORK_RANGE(start_bit=5*, end_bit=9*, target=Work_Zone[1], source=11*)
411: 0x0A97 [0x01] GOTO 0x0AFE
412: 0x0A9A [0x02] IF !(Work_Zone[0] == 12*) GOTO 0x0AAE
413: 0x0AA2 [0x40] SET_BIT_WORK_RANGE(start_bit=5*, end_bit=9*, target=Work_Zone[1], source=12*)
414: 0x0AAB [0x01] GOTO 0x0AFE
415: 0x0AAE [0x02] IF !(Work_Zone[0] == 13*) GOTO 0x0AC2
416: 0x0AB6 [0x40] SET_BIT_WORK_RANGE(start_bit=5*, end_bit=9*, target=Work_Zone[1], source=13*)
417: 0x0ABF [0x01] GOTO 0x0AFE
418: 0x0AC2 [0x02] IF !(Work_Zone[0] == 14*) GOTO 0x0AD6
419: 0x0ACA [0x40] SET_BIT_WORK_RANGE(start_bit=5*, end_bit=9*, target=Work_Zone[1], source=14*)
420: 0x0AD3 [0x01] GOTO 0x0AFE
421: 0x0AD6 [0x02] IF !(Work_Zone[0] == 15*) GOTO 0x0AEA
422: 0x0ADE [0x40] SET_BIT_WORK_RANGE(start_bit=5*, end_bit=9*, target=Work_Zone[1], source=15*)
423: 0x0AE7 [0x01] GOTO 0x0AFE
424: 0x0AEA [0x02] IF !(Work_Zone[0] == 16*) GOTO 0x0AFE
425: 0x0AF2 [0x40] SET_BIT_WORK_RANGE(start_bit=5*, end_bit=9*, target=Work_Zone[1], source=16*)
426: 0x0AFB [0x01] GOTO 0x0AFE

SUBROUTINE_0AFE:
427: 0x0AFE [0x40] SET_BIT_WORK_RANGE(start_bit=1*, end_bit=4*, target=Work_Zone[1], source=8*)
428: 0x0B07 [0x01] GOTO 0x0BC6
429: 0x0B0A [0x02] IF !(Work_Zone[0] == 9*) GOTO 0x0BC6
430: 0x0B12 [0x24] CREATE_DIALOG(message_id=8177*, default_option=0*, option_flags=0*)
    → "Select Parameter: [None./STR+/DEX+/VIT+/AGI+/INT+/MND+/HP+]"
431: 0x0B19 [0x25] WAIT_DIALOG_SELECT()
432: 0x0B1A [0x02] IF !(Work_Zone[0] == 0*) GOTO 0x0B2E
433: 0x0B22 [0x40] SET_BIT_WORK_RANGE(start_bit=5*, end_bit=9*, target=Work_Zone[1], source=0*)
434: 0x0B2B [0x01] GOTO 0x0BBA
435: 0x0B2E [0x02] IF !(Work_Zone[0] == 1*) GOTO 0x0B42
436: 0x0B36 [0x40] SET_BIT_WORK_RANGE(start_bit=5*, end_bit=9*, target=Work_Zone[1], source=1*)
437: 0x0B3F [0x01] GOTO 0x0BBA
438: 0x0B42 [0x02] IF !(Work_Zone[0] == 2*) GOTO 0x0B56
439: 0x0B4A [0x40] SET_BIT_WORK_RANGE(start_bit=5*, end_bit=9*, target=Work_Zone[1], source=2*)
440: 0x0B53 [0x01] GOTO 0x0BBA
441: 0x0B56 [0x02] IF !(Work_Zone[0] == 3*) GOTO 0x0B6A
442: 0x0B5E [0x40] SET_BIT_WORK_RANGE(start_bit=5*, end_bit=9*, target=Work_Zone[1], source=3*)
443: 0x0B67 [0x01] GOTO 0x0BBA
444: 0x0B6A [0x02] IF !(Work_Zone[0] == 4*) GOTO 0x0B7E
445: 0x0B72 [0x40] SET_BIT_WORK_RANGE(start_bit=5*, end_bit=9*, target=Work_Zone[1], source=4*)
446: 0x0B7B [0x01] GOTO 0x0BBA
447: 0x0B7E [0x02] IF !(Work_Zone[0] == 5*) GOTO 0x0B92
448: 0x0B86 [0x40] SET_BIT_WORK_RANGE(start_bit=5*, end_bit=9*, target=Work_Zone[1], source=5*)
449: 0x0B8F [0x01] GOTO 0x0BBA
450: 0x0B92 [0x02] IF !(Work_Zone[0] == 6*) GOTO 0x0BA6
451: 0x0B9A [0x40] SET_BIT_WORK_RANGE(start_bit=5*, end_bit=9*, target=Work_Zone[1], source=6*)
452: 0x0BA3 [0x01] GOTO 0x0BBA
453: 0x0BA6 [0x02] IF !(Work_Zone[0] == 7*) GOTO 0x0BBA
454: 0x0BAE [0x40] SET_BIT_WORK_RANGE(start_bit=5*, end_bit=9*, target=Work_Zone[1], source=7*)
455: 0x0BB7 [0x01] GOTO 0x0BBA

SUBROUTINE_0BBA:
456: 0x0BBA [0x40] SET_BIT_WORK_RANGE(start_bit=1*, end_bit=4*, target=Work_Zone[1], source=9*)
457: 0x0BC3 [0x01] GOTO 0x0BC6

SUBROUTINE_0BC6:
458: 0x0BC6 [0x40] SET_BIT_WORK_RANGE(start_bit=0*, end_bit=0*, target=Work_Zone[1], source=1*)
459: 0x0BCF [0x01] GOTO 0x0BE6
460: 0x0BD2 [0x02] IF !(Work_Zone[0] == 1*) GOTO 0x0BE6
461: 0x0BDA [0x40] SET_BIT_WORK_RANGE(start_bit=0*, end_bit=0*, target=Work_Zone[1], source=0*)
462: 0x0BE3 [0x01] GOTO 0x0BE6

SUBROUTINE_0BE6:
463: 0x0BE6 [0x42] SET_CLI_EVENT_CANCEL_DATA()
464: 0x0BE7 [0x21] END_EVENT
465: 0x0BE8 [0x00] END_REQSTACK()
```
