# 17187571 - Saradorial

## Common Data

| Field            | Value                   |
|------------------|-------------------------|
| Zone             | West Ronfaure (ID: 100) |
| Block Size       | 1140 bytes              |
| Total Events     | 3                       |
| References Count | 76                      |

## List of Events

| Event ID              | Entrypoint   |   Size |   Instructions |
|-----------------------|--------------|--------|----------------|
| [65535](#event-65535) | 0x0000       |      1 |              1 |
| [139](#event-139)     | 0x0001       |    743 |            195 |
| [140](#event-140)     | 0x02E8       |     63 |             23 |

## DAT References (imed_data)

|   Index | Hex Value   |   Dec Value |
|---------|-------------|-------------|
|       0 | 0x1F29      |        7977 |
|       1 | 0x0000      |           0 |
|       2 | 0x1F2A      |        7978 |
|       3 | 0x0001      |           1 |
|       4 | 0x0002      |           2 |
|       5 | 0x0003      |           3 |
|       6 | 0x4275      |       17013 |
|       7 | 0x1F3E      |        7998 |
|       8 | 0x0004      |           4 |
|       9 | 0x1F3F      |        7999 |
|      10 | 0x1F40      |        8000 |
|      11 | 0x1F41      |        8001 |
|      12 | 0x1F42      |        8002 |
|      13 | 0x1F43      |        8003 |
|      14 | 0x1F44      |        8004 |
|      15 | 0x1F45      |        8005 |
|      16 | 0x1F2D      |        7981 |
|      17 | 0x426B      |       17003 |
|      18 | 0x1F2E      |        7982 |
|      19 | 0x1F2F      |        7983 |
|      20 | 0x10D6      |        4310 |
|      21 | 0x10D7      |        4311 |
|      22 | 0x10D8      |        4312 |
|      23 | 0x1F30      |        7984 |
|      24 | 0x1F31      |        7985 |
|      25 | 0x1F32      |        7986 |
|      26 | 0x1F33      |        7987 |
|      27 | 0x1F35      |        7989 |
|      28 | 0x1F34      |        7988 |
|      29 | 0x1F36      |        7990 |
|      30 | 0x0005      |           5 |
|      31 | 0x1F37      |        7991 |
|      32 | 0x000F      |          15 |
|      33 | 0x1F38      |        7992 |
|      34 | 0x0019      |          25 |
|      35 | 0x1F39      |        7993 |
|      36 | 0x001E      |          30 |
|      37 | 0x1F3A      |        7994 |
|      38 | 0x0032      |          50 |
|      39 | 0x1F3B      |        7995 |
|      40 | 0x0041      |          65 |
|      41 | 0x0046      |          70 |
|      42 | 0x1F58      |        8024 |
|      43 | 0x003C      |          60 |
|      44 | 0x1F5A      |        8026 |
|      45 | 0x0050      |          80 |
|      46 | 0x1F5B      |        8027 |
|      47 | 0x1F3C      |        7996 |
|      48 | 0x1F54      |        8020 |
|      49 | 0x1F46      |        8006 |
|      50 | 0x000A      |          10 |
|      51 | 0x000B      |          11 |
|      52 | 0x000E      |          14 |
|      53 | 0x000C      |          12 |
|      54 | 0x000D      |          13 |
|      55 | 0x0011      |          17 |
|      56 | 0x0006      |           6 |
|      57 | 0x0007      |           7 |
|      58 | 0x0010      |          16 |
|      59 | 0x0008      |           8 |
|      60 | 0x0012      |          18 |
|      61 | 0xFFFFFFFF  |  4294967295 |
|      62 | 0x1F4B      |        8011 |
|      63 | 0x0064      |         100 |
|      64 | 0x1F48      |        8008 |
|      65 | 0x1F49      |        8009 |
|      66 | 0x1F4A      |        8010 |
|      67 | 0x1F47      |        8007 |
|      68 | 0x1F4C      |        8012 |
|      69 | 0x1F4D      |        8013 |
|      70 | 0x1F50      |        8016 |
|      71 | 0x0018      |          24 |
|      72 | 0x1F4E      |        8014 |
|      73 | 0x1F51      |        8017 |
|      74 | 0x1F4F      |        8015 |
|      75 | 0x1F52      |        8018 |

## String References

- **7977**: Welcome... [I'd like to buy a scoop./I'd like to know more./I'd like to collect my prize./I'd like a bowl.]
- **7978**: To bond with the goldfish, one must have the right tools. I can supply you with everything you will need for your spiritual journey...
- **7981**: Let me enlighten you on... [How to become one with goldfish./The types of goldfish./What one can earn./When the mothership arrives...]
- **7982**: Bonding with the goldfish is quite simple. Equip your Range slot with $0 and your Ammo slot with $1. Then, search out a body of water and let your spirit flow with it... Fish with it...
- **7983**: When you have reunited with the children of Pisces, bring them to me, and the universe shall reward you. Where swim our waterbound brothers, you ask? The mystical flowers of fire in the sky will lead you...
- **7984**: There are three known species of goldfish in Vana'diel: $0, $1, and $2...
- **7985**: % are the most abundant in our world's waters. They will bring you small fortune.
- **7986**: $1 are slightly larger than most goldfish. While more difficult to bond with, their aquatic aura is sure to bring you double the fortune of their smaller brothers and sisters.
- **7987**: Finally, you will know the universe has smiled down upon you if you happen to come across $2. Only the chosen can become one with these creatures and reap the reward of mystical fortune tenfold...
- **7988**: But I tell you now, that innumerable mysteries abound in this vast world of ours. Great rewards await those who dare traverse yet untrodden paths.
- **7989**: Once you have taken your goldfish [brothers/sisters] up in your arms, bring them to me, and I will be the gateway to this fortune.
- **7990**: The universe shall reward those who have been blessed with fortune.
- **7991**: $0 years of fortune shall bring you a new $1. Use this to grasp even more blessings...
- **7992**: $0 years of fortune shall bring you the mystical flowers of fire. Simply witnessing one of these spectacles of man and nature brings harmony to the soul...
- **7993**: $0 years of fortune shall soothe your weary spirit with the cool breeze of an ornamental fan.
- **7994**: A colored drop is carried on the sweet winds of $0 years of fortune, and only the universe knows the fragrance...
- **7995**: Those who are graced with $0 years of fortune will have the opportunity to experience...nirvana...
- **7996**: Clear your mind, open your heart, and let the goldfish guide you to a life of prosperity and happiness...
- **7998**: Ah, so you have decided to join us in our quest to join with the goldfish. I applaud you on your bravery, and present you with this $0. Take care not to lose it, as your fortune in life is tied directly to it.
- **7999**: What is this, my child? Have you lost your way on the path to enlightenment? What has become of your $0?
- **8000**: As I informed you before, the $0 is directly connected to one's fortune. I can provide you with another, but all the blessings you have received up until now will be lost.
- **8001**: Start over from the beginning? [I am content with what I have./I wish to regain fortunes lost.]
- **8002**: I see. I am not one to judge a [man/woman] on the path [he/she] has chosen in life...
- **8003**: To regain what one has lost, one must restart with a pure soul. The fortune you have accumulated has been returned to the universe. Take this new $0 and begin once more what you had strived for in the past.
- **8004**: What is this? Are you asking me to erase your fortune so that you may start again with a clear mind and soul?
- **8005**: Your heart is strong for one so young. I have cleansed your soul of its fortune, and wish you luck on the path you have chosen.
- **8006**: $0 year[ of fortune blesses/s of fortune bless] you. [$1: $2./A bag of fireworks: $3./Large fans: $6./A colored drop: $4./The mystery box: $5./A stellar surprise: $9./The other mystery box: $7./Yet another mystery box: $8./Mystery box part four: $10./Nothing.]
- **8007**: The universe cannot provide for those who have not been graced with the fortune of the goldfish...
- **8008**: Are you sure this is what you wish of the universe?
- **8009**: Are you sure? [My judgment remains clouded./I have made up my mind.]
- **8010**: Excellent, my child. May you always be blessed with the fortune of the goldfish...
- **8011**: I understand... There is no need to rush the river of life's mystical flow.
- **8012**: Ah, I sense great fortune approaching...
- **8013**: You shall be blessed for $0 year[/s]!
- **8014**: You shall be blessed for $0 year[/s]!
- **8015**: You shall be blessed for $0 year[/s]!
- **8016**: However, I sense much more potential, my child. Perhaps you are trying too hard. Relax... Let your mind melt into the surrounding waters and meld with the goldfish...
- **8017**: Your patience and perseverance have begun to pay off, my child. However, the road to true happiness is long and winding. Clear your mind and return to the water. The goldfish are waiting...
- **8018**: Your spirit is nearly one with the universe... Nirvana is within reach, my child...
- **8020**: %'s soul begins to merge with the universe...
- **8024**: Those that have accumulated $0 years of fortune will become one with the flow of time and meld with nature and all its creatures. $1 years, you say? Why, such an enlightened being would find [himself/herself] able to unravel the most arcane mysteries of the universe with the ease with which lesser mortals draw breath...
- **8026**: Or do you seek to bid farewell to this earthly demesne and send your soul soaring amongst the myriad shimmering stars in the heavens above? You need only accumulate $0 years of fortune, and eternal celestial bliss will be yours!
- **8027**: And what is this!? For $0 you can lands yourself an incredibly goregous happi!? Why did we wait so long to put this festival feature on the shelves!?

## Events

### Event 65535

#### Metadata

| Field        | Value   |
|--------------|---------|
| Entrypoint   | 0x0000  |
| Data Size    | 1 bytes |
| Instructions | 1       |

```
      00 01 02 03 04 05 06 07  08 09 0A 0B 0C 0D 0E 0F
      -- -- -- -- -- -- -- --  -- -- -- -- -- -- -- --
0000: 00                                                .               
```

#### Opcodes

```
  0: 0x0000 [0x00] END_REQSTACK()
```

### Event 139

#### Metadata

| Field        | Value     |
|--------------|-----------|
| Entrypoint   | 0x0001    |
| Data Size    | 743 bytes |
| Instructions | 134       |

```
      00 01 02 03 04 05 06 07  08 09 0A 0B 0C 0D 0E 0F
      -- -- -- -- -- -- -- --  -- -- -- -- -- -- -- --
0000:    03 00 00 03 10 06 01  10 24 00 80 01 80 01 80   ........$......
0010: 25 02 00 10 01 80 00 25  00 1D 02 80 23 03 01 10  %......%....#...
0020: 03 80 01 4F 00 02 00 10  03 80 00 33 00 1A E5 00  ...O.......3....
0030: 01 4F 00 02 00 10 04 80  00 41 00 1A B1 01 01 4F  .O.......A.....O
0040: 00 02 00 10 05 80 00 4F  00 1A 51 00 01 4F 00 21  .......O..Q..O.!
0050: 00 06 01 10 02 02 10 01  80 00 B0 00 02 03 10 01  ................
0060: 80 00 75 00 03 02 10 06  80 1D 07 80 23 03 01 10  ..u.........#...
0070: 08 80 01 AD 00 03 02 10  06 80 1D 09 80 23 1D 0A  .............#..
0080: 80 23 24 0B 80 01 80 01  80 25 02 00 10 01 80 00  .#$......%......
0090: 99 00 1D 0C 80 23 01 AD  00 02 00 10 03 80 00 AD  .....#..........
00A0: 00 1D 0D 80 23 03 01 10  08 80 01 AD 00 01 E4 00  ....#...........
00B0: 03 02 10 06 80 1D 0E 80  23 24 0B 80 01 80 01 80  ........#$......
00C0: 25 02 00 10 01 80 00 D0  00 1D 0C 80 23 01 E4 00  %...........#...
00D0: 02 00 10 03 80 00 E4 00  1D 0F 80 23 03 01 10 04  ...........#....
00E0: 80 01 E4 00 1B 06 01 10  24 10 80 01 80 01 80 25  ........$......%
00F0: 02 00 10 01 80 00 10 01  03 02 10 06 80 03 03 10  ................
0100: 11 80 1D 12 80 23 1D 13  80 23 01 E5 00 01 B0 01  .....#...#......
0110: 02 00 10 03 80 00 45 01  03 02 10 14 80 03 03 10  ......E.........
0120: 15 80 03 04 10 16 80 1D  17 80 23 1D 18 80 23 1D  ..........#...#.
0130: 19 80 23 1D 1A 80 23 1D  1B 80 23 1D 1C 80 23 01  ..#...#...#...#.
0140: E5 00 01 B0 01 02 00 10  04 80 00 AD 01 03 03 10  ................
0150: 11 80 1D 1D 80 23 03 02  10 1E 80 1D 1F 80 23 03  .....#........#.
0160: 02 10 20 80 1D 21 80 23  03 02 10 22 80 1D 23 80  .. ..!.#..."..#.
0170: 23 03 02 10 24 80 1D 25  80 23 03 02 10 26 80 1D  #...$..%.#...&..
0180: 27 80 23 03 02 10 28 80  03 03 10 29 80 1D 2A 80  '.#...(....)..*.
0190: 23 03 02 10 2B 80 1D 2C  80 23 03 02 10 2D 80 1D  #...+..,.#...-..
01A0: 2E 80 23 1D 2F 80 23 01  E5 00 01 B0 01 48 30 80  ..#./.#......H0.
01B0: 1B 06 01 10 06 01 00 03  02 10 00 00 03 03 10 11  ................
01C0: 80 03 04 10 1E 80 03 05  10 20 80 03 06 10 24 80  ......... ....$.
01D0: 03 07 10 26 80 03 08 10  22 80 03 09 10 28 80 03  ...&...."....(..
01E0: 00 17 29 80 03 01 17 2B  80 03 02 17 2D 80 24 31  ..)....+....-.$1
01F0: 80 01 80 01 80 25 02 00  10 01 80 00 06 02 03 01  .....%..........
0200: 00 32 80 01 8B 02 02 00  10 03 80 00 16 02 03 01  .2..............
0210: 00 33 80 01 8B 02 02 00  10 04 80 00 26 02 03 01  .3..........&...
0220: 00 34 80 01 8B 02 02 00  10 05 80 00 36 02 03 01  .4..........6...
0230: 00 35 80 01 8B 02 02 00  10 08 80 00 46 02 03 01  .5..........F...
0240: 00 36 80 01 8B 02 02 00  10 1E 80 00 56 02 03 01  .6..........V...
0250: 00 37 80 01 8B 02 02 00  10 38 80 00 66 02 03 01  .7.......8..f...
0260: 00 20 80 01 8B 02 02 00  10 39 80 00 76 02 03 01  . .......9..v...
0270: 00 3A 80 01 8B 02 02 00  10 3B 80 00 86 02 03 01  .:.......;......
0280: 00 3C 80 01 8B 02 03 01  00 3D 80 02 01 00 3D 80  .<.......=....=.
0290: 00 9A 02 1D 3E 80 23 01  E7 02 03 01 10 01 00 43  ....>.#........C
02A0: 00 43 01 02 08 10 3F 80  00 E0 02 1D 40 80 23 24  .C....?.....@.#$
02B0: 41 80 01 80 01 80 25 02  00 10 01 80 00 C5 02 01  A.....%.........
02C0: B1 01 01 DD 02 02 00 10  03 80 00 DD 02 1D 42 80  ..............B.
02D0: 23 48 30 80 03 01 10 01  00 1B 01 DD 02 01 E7 02  #H0.............
02E0: 1D 43 80 23 01 B1 01 1B                           .C.#....        
```

#### Opcodes

```
  0: 0x0001 [0x03] ExtData[1]->WorkLocal[0] = Work_Zone[3]
  1: 0x0006 [0x06] Work_Zone[1] = 0
  2: 0x0009 [0x24] CREATE_DIALOG(message_id=7977*, default_option=0*, option_flags=0*)
    → "Welcome... [I'd like to buy a scoop./I'd like to know more./I'd like to collect my prize./I'd like a bowl.]"
  3: 0x0010 [0x25] WAIT_DIALOG_SELECT()
  4: 0x0011 [0x02] IF !(Work_Zone[0] == 0*) GOTO 0x0025
  5: 0x0019 [0x1D] PRINT_EVENT_MESSAGE(message_id=7978*)
    → "To bond with the goldfish, one must have the right tools. I can supply you with everything you will need for your spiritual journey..."
  6: 0x001C [0x23] WAIT_FOR_DIALOG_INTERACTION
  7: 0x001D [0x03] Work_Zone[1] = 1*
  8: 0x0022 [0x01] GOTO 0x004F
  9: 0x0025 [0x02] IF !(Work_Zone[0] == 1*) GOTO 0x0033
 10: 0x002D [0x1A] CALL_SUBROUTINE(address=0x00E5)
 11: 0x0030 [0x01] GOTO 0x004F
 12: 0x0033 [0x02] IF !(Work_Zone[0] == 2*) GOTO 0x0041
 13: 0x003B [0x1A] CALL_SUBROUTINE(address=0x01B1)
 14: 0x003E [0x01] GOTO 0x004F
 15: 0x0041 [0x02] IF !(Work_Zone[0] == 3*) GOTO 0x004F
 16: 0x0049 [0x1A] CALL_SUBROUTINE(address=0x0051)
 17: 0x004C [0x01] GOTO 0x004F

SUBROUTINE_004F:
 18: 0x004F [0x21] END_EVENT
 19: 0x0050 [0x00] END_REQSTACK()

SUBROUTINE_0051:
 20: 0x0051 [0x06] Work_Zone[1] = 0
 21: 0x0054 [0x02] IF !(Work_Zone[2] == 0*) GOTO 0x00B0
 22: 0x005C [0x02] IF !(Work_Zone[3] == 0*) GOTO 0x0075
 23: 0x0064 [0x03] Work_Zone[2] = 17013*
 24: 0x0069 [0x1D] PRINT_EVENT_MESSAGE(message_id=7998*)
    → "Ah, so you have decided to join us in our quest to join with the goldfish. I applaud you on your bravery, and present you with this $0. Take care not to lose it, as your fortune in life is tied directly to it."
 25: 0x006C [0x23] WAIT_FOR_DIALOG_INTERACTION
 26: 0x006D [0x03] Work_Zone[1] = 4*
 27: 0x0072 [0x01] GOTO 0x00AD
 28: 0x0075 [0x03] Work_Zone[2] = 17013*
 29: 0x007A [0x1D] PRINT_EVENT_MESSAGE(message_id=7999*)
    → "What is this, my child? Have you lost your way on the path to enlightenment? What has become of your $0?"
 30: 0x007D [0x23] WAIT_FOR_DIALOG_INTERACTION
 31: 0x007E [0x1D] PRINT_EVENT_MESSAGE(message_id=8000*)
    → "As I informed you before, the $0 is directly connected to one's fortune. I can provide you with another, but all the blessings you have received up until now will be lost."
 32: 0x0081 [0x23] WAIT_FOR_DIALOG_INTERACTION
 33: 0x0082 [0x24] CREATE_DIALOG(message_id=8001*, default_option=0*, option_flags=0*)
    → "Start over from the beginning? [I am content with what I have./I wish to regain fortunes lost.]"
 34: 0x0089 [0x25] WAIT_DIALOG_SELECT()
 35: 0x008A [0x02] IF !(Work_Zone[0] == 0*) GOTO 0x0099
 36: 0x0092 [0x1D] PRINT_EVENT_MESSAGE(message_id=8002*)
    → "I see. I am not one to judge a [man/woman] on the path [he/she] has chosen in life..."
 37: 0x0095 [0x23] WAIT_FOR_DIALOG_INTERACTION
 38: 0x0096 [0x01] GOTO 0x00AD
 39: 0x0099 [0x02] IF !(Work_Zone[0] == 1*) GOTO 0x00AD
 40: 0x00A1 [0x1D] PRINT_EVENT_MESSAGE(message_id=8003*)
    → "To regain what one has lost, one must restart with a pure soul. The fortune you have accumulated has been returned to the universe. Take this new $0 and begin once more what you had strived for in the past."
 41: 0x00A4 [0x23] WAIT_FOR_DIALOG_INTERACTION
 42: 0x00A5 [0x03] Work_Zone[1] = 4*
 43: 0x00AA [0x01] GOTO 0x00AD

SUBROUTINE_00AD:
 44: 0x00AD [0x01] GOTO 0x00E4
 45: 0x00B0 [0x03] Work_Zone[2] = 17013*
 46: 0x00B5 [0x1D] PRINT_EVENT_MESSAGE(message_id=8004*)
    → "What is this? Are you asking me to erase your fortune so that you may start again with a clear mind and soul?"
 47: 0x00B8 [0x23] WAIT_FOR_DIALOG_INTERACTION
 48: 0x00B9 [0x24] CREATE_DIALOG(message_id=8001*, default_option=0*, option_flags=0*)
    → "Start over from the beginning? [I am content with what I have./I wish to regain fortunes lost.]"
 49: 0x00C0 [0x25] WAIT_DIALOG_SELECT()
 50: 0x00C1 [0x02] IF !(Work_Zone[0] == 0*) GOTO 0x00D0
 51: 0x00C9 [0x1D] PRINT_EVENT_MESSAGE(message_id=8002*)
    → "I see. I am not one to judge a [man/woman] on the path [he/she] has chosen in life..."
 52: 0x00CC [0x23] WAIT_FOR_DIALOG_INTERACTION
 53: 0x00CD [0x01] GOTO 0x00E4
 54: 0x00D0 [0x02] IF !(Work_Zone[0] == 1*) GOTO 0x00E4
 55: 0x00D8 [0x1D] PRINT_EVENT_MESSAGE(message_id=8005*)
    → "Your heart is strong for one so young. I have cleansed your soul of its fortune, and wish you luck on the path you have chosen."
 56: 0x00DB [0x23] WAIT_FOR_DIALOG_INTERACTION
 57: 0x00DC [0x03] Work_Zone[1] = 2*
 58: 0x00E1 [0x01] GOTO 0x00E4

SUBROUTINE_00E4:
 59: 0x00E4 [0x1B] RETURN

SUBROUTINE_00E5:
 60: 0x00E5 [0x06] Work_Zone[1] = 0
 61: 0x00E8 [0x24] CREATE_DIALOG(message_id=7981*, default_option=0*, option_flags=0*)
    → "Let me enlighten you on... [How to become one with goldfish./The types of goldfish./What one can earn./When the mothership arrives...]"
 62: 0x00EF [0x25] WAIT_DIALOG_SELECT()
 63: 0x00F0 [0x02] IF !(Work_Zone[0] == 0*) GOTO 0x0110
 64: 0x00F8 [0x03] Work_Zone[2] = 17013*
 65: 0x00FD [0x03] Work_Zone[3] = 17003*
 66: 0x0102 [0x1D] PRINT_EVENT_MESSAGE(message_id=7982*)
    → "Bonding with the goldfish is quite simple. Equip your Range slot with $0 and your Ammo slot with $1. Then, search out a body of water and let your spirit flow with it... Fish with it..."
 67: 0x0105 [0x23] WAIT_FOR_DIALOG_INTERACTION
 68: 0x0106 [0x1D] PRINT_EVENT_MESSAGE(message_id=7983*)
    → "When you have reunited with the children of Pisces, bring them to me, and the universe shall reward you. Where swim our waterbound brothers, you ask? The mystical flowers of fire in the sky will lead you..."
 69: 0x0109 [0x23] WAIT_FOR_DIALOG_INTERACTION
 70: 0x010A [0x01] GOTO 0x00E5

SUBROUTINE_01B0:
 71: 0x01B0 [0x1B] RETURN

SUBROUTINE_01B1:
 72: 0x01B1 [0x06] Work_Zone[1] = 0
 73: 0x01B4 [0x06] ExtData[1]->WorkLocal[1] = 0
 74: 0x01B7 [0x03] Work_Zone[2] = ExtData[1]->WorkLocal[0]
 75: 0x01BC [0x03] Work_Zone[3] = 17003*
 76: 0x01C1 [0x03] Work_Zone[4] = 5*
 77: 0x01C6 [0x03] Work_Zone[5] = 15*
 78: 0x01CB [0x03] Work_Zone[6] = 30*
 79: 0x01D0 [0x03] Work_Zone[7] = 50*
 80: 0x01D5 [0x03] Work_Zone[8] = 25*
 81: 0x01DA [0x03] Work_Zone[9] = 65*
 82: 0x01DF [0x03] Work_Zone_1700[0] = 70*
 83: 0x01E4 [0x03] Work_Zone_1700[1] = 60*
 84: 0x01E9 [0x03] Work_Zone_1700[2] = 80*
 85: 0x01EE [0x24] CREATE_DIALOG(message_id=8006*, default_option=0*, option_flags=0*)
    → "$0 year[ of fortune blesses/s of fortune bless] you. [$1: $2./A bag of fireworks: $3./Large fans: $6./A colored drop: $4./The mystery box: $5./A stellar surprise: $9./The other mystery box: $7./Yet another mystery box: $8./Mystery box part four: $10./Nothing.]"
 86: 0x01F5 [0x25] WAIT_DIALOG_SELECT()
 87: 0x01F6 [0x02] IF !(Work_Zone[0] == 0*) GOTO 0x0206
 88: 0x01FE [0x03] ExtData[1]->WorkLocal[1] = 10*
 89: 0x0203 [0x01] GOTO 0x028B
 90: 0x0206 [0x02] IF !(Work_Zone[0] == 1*) GOTO 0x0216
 91: 0x020E [0x03] ExtData[1]->WorkLocal[1] = 11*
 92: 0x0213 [0x01] GOTO 0x028B
 93: 0x0216 [0x02] IF !(Work_Zone[0] == 2*) GOTO 0x0226
 94: 0x021E [0x03] ExtData[1]->WorkLocal[1] = 14*
 95: 0x0223 [0x01] GOTO 0x028B
 96: 0x0226 [0x02] IF !(Work_Zone[0] == 3*) GOTO 0x0236
 97: 0x022E [0x03] ExtData[1]->WorkLocal[1] = 12*
 98: 0x0233 [0x01] GOTO 0x028B
 99: 0x0236 [0x02] IF !(Work_Zone[0] == 4*) GOTO 0x0246
100: 0x023E [0x03] ExtData[1]->WorkLocal[1] = 13*
101: 0x0243 [0x01] GOTO 0x028B
102: 0x0246 [0x02] IF !(Work_Zone[0] == 5*) GOTO 0x0256
103: 0x024E [0x03] ExtData[1]->WorkLocal[1] = 17*
104: 0x0253 [0x01] GOTO 0x028B
105: 0x0256 [0x02] IF !(Work_Zone[0] == 6*) GOTO 0x0266
106: 0x025E [0x03] ExtData[1]->WorkLocal[1] = 15*
107: 0x0263 [0x01] GOTO 0x028B
108: 0x0266 [0x02] IF !(Work_Zone[0] == 7*) GOTO 0x0276
109: 0x026E [0x03] ExtData[1]->WorkLocal[1] = 16*
110: 0x0273 [0x01] GOTO 0x028B
111: 0x0276 [0x02] IF !(Work_Zone[0] == 8*) GOTO 0x0286
112: 0x027E [0x03] ExtData[1]->WorkLocal[1] = 18*
113: 0x0283 [0x01] GOTO 0x028B
114: 0x0286 [0x03] ExtData[1]->WorkLocal[1] = 4294967295*

SUBROUTINE_028B:
115: 0x028B [0x02] IF !(ExtData[1]->WorkLocal[1] == 4294967295*) GOTO 0x029A
116: 0x0293 [0x1D] PRINT_EVENT_MESSAGE(message_id=8011*)
    → "I understand... There is no need to rush the river of life's mystical flow."
117: 0x0296 [0x23] WAIT_FOR_DIALOG_INTERACTION
118: 0x0297 [0x01] GOTO 0x02E7
119: 0x029A [0x03] Work_Zone[1] = ExtData[1]->WorkLocal[1]
120: 0x029F [0x43] SEND_EVENT_UPDATE: Send pending tag to server (packet 0x005B)
121: 0x02A1 [0x43] SEND_EVENT_UPDATE: Check pending flag (skip if not pending)
122: 0x02A3 [0x02] IF !(Work_Zone[8] == 100*) GOTO 0x02E0
123: 0x02AB [0x1D] PRINT_EVENT_MESSAGE(message_id=8008*)
    → "Are you sure this is what you wish of the universe?"
124: 0x02AE [0x23] WAIT_FOR_DIALOG_INTERACTION
125: 0x02AF [0x24] CREATE_DIALOG(message_id=8009*, default_option=0*, option_flags=0*)
    → "Are you sure? [My judgment remains clouded./I have made up my mind.]"
126: 0x02B6 [0x25] WAIT_DIALOG_SELECT()
127: 0x02B7 [0x02] IF !(Work_Zone[0] == 0*) GOTO 0x02C5
128: 0x02BF [0x01] GOTO 0x01B1

SUBROUTINE_02DD:
129: 0x02DD [0x01] GOTO 0x02E7
130: 0x02E0 [0x1D] PRINT_EVENT_MESSAGE(message_id=8007*)
    → "The universe cannot provide for those who have not been graced with the fortune of the goldfish..."
131: 0x02E3 [0x23] WAIT_FOR_DIALOG_INTERACTION
132: 0x02E4 [0x01] GOTO 0x01B1

SUBROUTINE_02E7:
133: 0x02E7 [0x1B] RETURN
```

#### Data or dead code:

```
# Dead code (unreachable instructions):
     0x010D [0x01] GOTO 0x01B0
     0x0142 [0x01] GOTO 0x01B0
     0x01AA [0x01] GOTO 0x01B0
# Dead code (unreachable instructions):
     0x02C2 [0x01] GOTO 0x02DD
     0x02DA [0x01] GOTO 0x02DD
```

### Event 140

#### Metadata

| Field        | Value    |
|--------------|----------|
| Entrypoint   | 0x02E8   |
| Data Size    | 63 bytes |
| Instructions | 23       |

```
      00 01 02 03 04 05 06 07  08 09 0A 0B 0C 0D 0E 0F
      -- -- -- -- -- -- -- --  -- -- -- -- -- -- -- --
02E0:                          06 01 10 1D 44 80 23 02          ....D.#.
02F0: 02 10 35 80 03 02 03 1D  45 80 23 1D 46 80 23 01  ..5.....E.#.F.#.
0300: 1D 03 02 02 10 47 80 03  15 03 1D 48 80 23 1D 49  .....G.....H.#.I
0310: 80 23 01 1D 03 1D 4A 80  23 1D 4B 80 23 48 30 80  .#....J.#.K.#H0.
0320: 03 01 10 05 80 21 00                              .....!.         
```

#### Opcodes

```
  0: 0x02E8 [0x06] Work_Zone[1] = 0
  1: 0x02EB [0x1D] PRINT_EVENT_MESSAGE(message_id=8012*)
    → "Ah, I sense great fortune approaching..."
  2: 0x02EE [0x23] WAIT_FOR_DIALOG_INTERACTION
  3: 0x02EF [0x02] IF !(Work_Zone[2] >= 12*) GOTO 0x0302
  4: 0x02F7 [0x1D] PRINT_EVENT_MESSAGE(message_id=8013*)
    → "You shall be blessed for $0 year[/s]!"
  5: 0x02FA [0x23] WAIT_FOR_DIALOG_INTERACTION
  6: 0x02FB [0x1D] PRINT_EVENT_MESSAGE(message_id=8016*)
    → "However, I sense much more potential, my child. Perhaps you are trying too hard. Relax... Let your mind melt into the surrounding waters and meld with the goldfish..."
  7: 0x02FE [0x23] WAIT_FOR_DIALOG_INTERACTION
  8: 0x02FF [0x01] GOTO 0x031D
  9: 0x0302 [0x02] IF !(Work_Zone[2] >= 24*) GOTO 0x0315
 10: 0x030A [0x1D] PRINT_EVENT_MESSAGE(message_id=8014*)
    → "You shall be blessed for $0 year[/s]!"
 11: 0x030D [0x23] WAIT_FOR_DIALOG_INTERACTION
 12: 0x030E [0x1D] PRINT_EVENT_MESSAGE(message_id=8017*)
    → "Your patience and perseverance have begun to pay off, my child. However, the road to true happiness is long and winding. Clear your mind and return to the water. The goldfish are waiting..."
 13: 0x0311 [0x23] WAIT_FOR_DIALOG_INTERACTION
 14: 0x0312 [0x01] GOTO 0x031D
 15: 0x0315 [0x1D] PRINT_EVENT_MESSAGE(message_id=8015*)
    → "You shall be blessed for $0 year[/s]!"
 16: 0x0318 [0x23] WAIT_FOR_DIALOG_INTERACTION
 17: 0x0319 [0x1D] PRINT_EVENT_MESSAGE(message_id=8018*)
    → "Your spirit is nearly one with the universe... Nirvana is within reach, my child..."
 18: 0x031C [0x23] WAIT_FOR_DIALOG_INTERACTION

SUBROUTINE_031D:
 19: 0x031D [0x48] [System] [8020*]:
    → "%'s soul begins to merge with the universe..."
 20: 0x0320 [0x03] Work_Zone[1] = 3*
 21: 0x0325 [0x21] END_EVENT
 22: 0x0326 [0x00] END_REQSTACK()
```
