# Event 21

## Metadata

| Field           | Value    |
|-----------------|----------|
| Event Index     | 3/3      |
| Offset          | 0x0014   |
| Data Size       | 61 bytes |
| Calculated Size | 61 bytes |
| Instructions    | 9        |

```
      00 01 02 03 04 05 06 07  08 09 0A 0B 0C 0D 0E 0F
      -- -- -- -- -- -- -- --  -- -- -- -- -- -- -- --
0010:             42 20 01 45  03 80 F8 FF FF 7F F8 FF      B .E........
0020: FF 7F 76 62 6F 6E 04 80  45 05 80 F8 FF FF 7F F8  ..vbon..E.......
0030: FF FF 7F 31 32 62 6D 04  80 1C 06 80 45 03 80 F8  ...12bm.....E...
0040: FF FF 7F F8 FF FF 7F 76  62 6F 66 04 80 20 00 21  .......vbof.. .!
0050: 00                                                .               
```

## Opcodes

```
  0: 0x0014 [0x42] SET_CLI_EVENT_CANCEL_DATA()
  1: 0x0015 [0x20] SET_CLI_EVENT_UC_FLAG: Lock player control
  2: 0x0017 [0x45] LOAD_SCHEDULED_TASK: Load scheduler "vbon" with entities [EventEntity, EventEntity], work=[31*, 0*]
  3: 0x0028 [0x45] LOAD_SCHEDULED_TASK: Load scheduler "12bm" with entities [EventEntity, EventEntity], work=[160*, 0*]
  4: 0x0039 [0x1C] WAIT(90* ticks)
  5: 0x003C [0x45] LOAD_SCHEDULED_TASK: Load scheduler "vbof" with entities [EventEntity, EventEntity], work=[31*, 0*]
  6: 0x004D [0x20] SET_CLI_EVENT_UC_FLAG: Unlock player control
  7: 0x004F [0x21] END_EVENT
  8: 0x0050 [0x00] END_REQSTACK()
```
