# Event 273

## Metadata

| Field           | Value    |
|-----------------|----------|
| Event Index     | 6/6      |
| Offset          | 0x0051   |
| Data Size       | 33 bytes |
| Calculated Size | 33 bytes |
| Instructions    | 12       |

```
      00 01 02 03 04 05 06 07  08 09 0A 0B 0C 0D 0E 0F
      -- -- -- -- -- -- -- --  -- -- -- -- -- -- -- --
0050:    1E F0 FF FF 7F 6F 70  29 08 30 F0 0E 01 01 1D   .....op).0.....
0060: 04 80 23 1D 05 80 23 29  08 30 F0 0E 01 03 20 00  ..#...#).0.... .
0070: 21 00                                             !.              
```

## Opcodes

```
  0: 0x0051 [0x1E] EventEntity looks at LocalPlayer and starts talking
  1: 0x0056 [0x6F] WAIT_FRAME_DELAY: Yield until WaitTime reaches zero
  2: 0x0057 [0x70] WAIT_ENTITY_RENDER_FLAG: Wait while EventEntity->Render.Flags3 bit 2 is set (cancel turn if not)
  3: 0x0058 [0x29] REQ_SET_WAIT(priority=0x08, entity_id=Ran (ID: 17756208/0x010EF030), tag_num=0x01)
  4: 0x005F [0x1D] PRINT_EVENT_MESSAGE(message_id=7718*)
    → "Sure, compared to a country like Windurst, the history of Jeuno is really short, but...\u007F1\u0000\u0007"
  5: 0x0062 [0x23] WAIT_FOR_DIALOG_INTERACTION
  6: 0x0063 [0x1D] PRINT_EVENT_MESSAGE(message_id=7719*)
    → "Hey! Are you trying to be sarcastic in order to put Jeuno down? If that's what you're doing, then we won't let you off easy, you know?\u007F1\u0000\u0007"
  7: 0x0066 [0x23] WAIT_FOR_DIALOG_INTERACTION
  8: 0x0067 [0x29] REQ_SET_WAIT(priority=0x08, entity_id=Ran (ID: 17756208/0x010EF030), tag_num=0x03)
  9: 0x006E [0x20] SET_CLI_EVENT_UC_FLAG: Unlock player control
 10: 0x0070 [0x21] END_EVENT
 11: 0x0071 [0x00] END_REQSTACK()
```
