# Event 170

## Metadata

| Field           | Value    |
|-----------------|----------|
| Event Index     | 3/15     |
| Offset          | 0x015E   |
| Data Size       | 47 bytes |
| Calculated Size | 47 bytes |
| Instructions    | 11       |

```
      00 01 02 03 04 05 06 07  08 09 0A 0B 0C 0D 0E 0F
      -- -- -- -- -- -- -- --  -- -- -- -- -- -- -- --
0150:                                            20 01                 .
0160: 1E F0 FF FF 7F 6F 70 66  0C 80 F8 FF FF 7F F8 FF  .....opf........
0170: FF 7F 74 6C 6B 30 1D 12  80 23 66 0C 80 F8 FF FF  ..tlk0...#f.....
0180: 7F F8 FF FF 7F 74 6C 6B  31 20 00 21 00           .....tlk1 .!.   
```

## Opcodes

```
  0: 0x015E [0x20] SET_CLI_EVENT_UC_FLAG: Lock player control
  1: 0x0160 [0x1E] EventEntity looks at LocalPlayer and starts talking
  2: 0x0165 [0x6F] WAIT_FRAME_DELAY: Yield until WaitTime reaches zero
  3: 0x0166 [0x70] WAIT_ENTITY_RENDER_FLAG: Wait while EventEntity->Render.Flags3 bit 2 is set (cancel turn if not)
  4: 0x0167 [0x66] LOAD_EXT_SCHEDULER_MAIN(work_offset=40*, entity1=EventEntity, entity2=EventEntity, action="tlk0")
  5: 0x0176 [0x1D] PRINT_EVENT_MESSAGE(message_id=7628*)
    → "If you see my daughtaru, Kipopo, could you tell her to return the handbag to me? I wonder where she could have disappeared to...\u007F1\u0000\u0007"
  6: 0x0179 [0x23] WAIT_FOR_DIALOG_INTERACTION
  7: 0x017A [0x66] LOAD_EXT_SCHEDULER_MAIN(work_offset=40*, entity1=EventEntity, entity2=EventEntity, action="tlk1")
  8: 0x0189 [0x20] SET_CLI_EVENT_UC_FLAG: Unlock player control
  9: 0x018B [0x21] END_EVENT
 10: 0x018C [0x00] END_REQSTACK()
```
