# Event 175

## Metadata

| Field           | Value    |
|-----------------|----------|
| Event Index     | 7/15     |
| Offset          | 0x0FAC   |
| Data Size       | 47 bytes |
| Calculated Size | 47 bytes |
| Instructions    | 11       |

```
      00 01 02 03 04 05 06 07  08 09 0A 0B 0C 0D 0E 0F
      -- -- -- -- -- -- -- --  -- -- -- -- -- -- -- --
0FA0:                                      20 01 1E F0               ...
0FB0: FF FF 7F 6F 70 66 0C 80  F8 FF FF 7F F8 FF FF 7F  ...opf..........
0FC0: 74 6C 6B 30 1D 66 80 23  66 0C 80 F8 FF FF 7F F8  tlk0.f.#f.......
0FD0: FF FF 7F 74 6C 6B 31 20  00 21 00                 ...tlk1 .!.     
```

## Opcodes

```
  0: 0x0FAC [0x20] SET_CLI_EVENT_UC_FLAG: Lock player control
  1: 0x0FAE [0x1E] EventEntity looks at LocalPlayer and starts talking
  2: 0x0FB3 [0x6F] WAIT_FRAME_DELAY: Yield until WaitTime reaches zero
  3: 0x0FB4 [0x70] WAIT_ENTITY_RENDER_FLAG: Wait while EventEntity->Render.Flags3 bit 2 is set (cancel turn if not)
  4: 0x0FB5 [0x66] LOAD_EXT_SCHEDULER_MAIN(work_offset=40*, entity1=EventEntity, entity2=EventEntity, action="tlk0")
  5: 0x0FC4 [0x1D] PRINT_EVENT_MESSAGE(message_id=7703*)
    → "I owe it all to you for healing the rifty-wift that had threatened to tear my daughtaru and I apart.\u0007I'm going to makey-wake it my mission to restore Windurst's Tanners' Guild to its former state.\u007F1\u0000\u0007"
  6: 0x0FC7 [0x23] WAIT_FOR_DIALOG_INTERACTION
  7: 0x0FC8 [0x66] LOAD_EXT_SCHEDULER_MAIN(work_offset=40*, entity1=EventEntity, entity2=EventEntity, action="tlk1")
  8: 0x0FD7 [0x20] SET_CLI_EVENT_UC_FLAG: Unlock player control
  9: 0x0FD9 [0x21] END_EVENT
 10: 0x0FDA [0x00] END_REQSTACK()
```
