# Event 65535

## Metadata

| Field           | Value    |
|-----------------|----------|
| Event Index     | 28/108   |
| Offset          | 0x353D   |
| Data Size       | 44 bytes |
| Calculated Size | 44 bytes |
| Instructions    | 10       |

```
      00 01 02 03 04 05 06 07  08 09 0A 0B 0C 0D 0E 0F
      -- -- -- -- -- -- -- --  -- -- -- -- -- -- -- --
3530:                                         32 4F 81               2O.
3540: 1F 00 50 81 51 81 E6 80  1F 01 1F 00 52 81 53 81  ..P.Q.......R.S.
3550: E6 80 1F 01 1F 00 54 81  55 81 E6 80 1F 01 1F 00  ......T.U.......
3560: 56 81 57 81 E6 80 1F 01  00                       V.W......       
```

## Opcodes

```
  0: 0x353D [0x32] ExtData[1]->MainSpeed = 40* * 0.1
  1: 0x3540 [0x1F] MOVE_ENTITY: EventEntity moves to X=-201.539*, Z=0.620*, Y=-9.998*
  2: 0x3548 [0x1F] MOVE_ENTITY: Update entity position (mode=1)
  3: 0x354A [0x1F] MOVE_ENTITY: EventEntity moves to X=-202.520*, Z=-0.264*, Y=-9.998*
  4: 0x3552 [0x1F] MOVE_ENTITY: Update entity position (mode=1)
  5: 0x3554 [0x1F] MOVE_ENTITY: EventEntity moves to X=-203.711*, Z=-0.483*, Y=-9.998*
  6: 0x355C [0x1F] MOVE_ENTITY: Update entity position (mode=1)
  7: 0x355E [0x1F] MOVE_ENTITY: EventEntity moves to X=-207.741*, Z=-1.011*, Y=-9.998*
  8: 0x3566 [0x1F] MOVE_ENTITY: Update entity position (mode=1)
  9: 0x3568 [0x00] END_REQSTACK()
```
