# Event 65535

## Metadata

| Field           | Value    |
|-----------------|----------|
| Event Index     | 84/108   |
| Offset          | 0xA239   |
| Data Size       | 42 bytes |
| Calculated Size | 42 bytes |
| Instructions    | 12       |

```
      00 01 02 03 04 05 06 07  08 09 0A 0B 0C 0D 0E 0F
      -- -- -- -- -- -- -- --  -- -- -- -- -- -- -- --
A230:                             1F 00 E1 83 E2 83 AB           .......
A240: 82 1F 01 6F 1C 04 80 1F  00 E3 83 E4 83 AB 82 1F  ...o............
A250: 01 6F 1C 0C 80 1C 29 80  1F 00 E5 83 E6 83 AB 82  .o....).........
A260: 1F 01 00                                          ...             
```

## Opcodes

```
  0: 0xA239 [0x1F] MOVE_ENTITY: EventEntity moves to X=91.544*, Z=10.137*, Y=-20.170*
  1: 0xA241 [0x1F] MOVE_ENTITY: Update entity position (mode=1)
  2: 0xA243 [0x6F] WAIT_FRAME_DELAY: Yield until WaitTime reaches zero
  3: 0xA244 [0x1C] WAIT(120* ticks)
  4: 0xA247 [0x1F] MOVE_ENTITY: EventEntity moves to X=88.728*, Z=9.630*, Y=-20.170*
  5: 0xA24F [0x1F] MOVE_ENTITY: Update entity position (mode=1)
  6: 0xA251 [0x6F] WAIT_FRAME_DELAY: Yield until WaitTime reaches zero
  7: 0xA252 [0x1C] WAIT(20* ticks)
  8: 0xA255 [0x1C] WAIT(80* ticks)
  9: 0xA258 [0x1F] MOVE_ENTITY: EventEntity moves to X=88.406*, Z=4.206*, Y=-20.170*
 10: 0xA260 [0x1F] MOVE_ENTITY: Update entity position (mode=1)
 11: 0xA262 [0x00] END_REQSTACK()
```
