# Event 65535

## Metadata

| Field           | Value    |
|-----------------|----------|
| Event Index     | 77/108   |
| Offset          | 0xA190   |
| Data Size       | 54 bytes |
| Calculated Size | 54 bytes |
| Instructions    | 10       |

```
      00 01 02 03 04 05 06 07  08 09 0A 0B 0C 0D 0E 0F
      -- -- -- -- -- -- -- --  -- -- -- -- -- -- -- --
A190: 59 04 F0 FF FF 7F D2 82  1F 00 D2 83 02 80 AB 82  Y...............
A1A0: 1F 01 1F 00 D3 83 D4 83  AB 82 1F 01 4A F0 FF FF  ............J...
A1B0: 7F F1 71 05 01 79 00 F0  FF FF 7F F1 71 05 01 6F  ..q..y......q..o
A1C0: 76 F0 FF FF 7F 00                                 v.....          
```

## Opcodes

```
  0: 0xA190 [0x59] UPDATE_ENTITY_DATA: Set LocalPlayer main speed = 12* * 0.1
  1: 0xA198 [0x1F] MOVE_ENTITY: EventEntity moves to X=98.401*, Z=0.000*, Y=-20.170*
  2: 0xA1A0 [0x1F] MOVE_ENTITY: Update entity position (mode=1)
  3: 0xA1A2 [0x1F] MOVE_ENTITY: EventEntity moves to X=100.765*, Z=-1.307*, Y=-20.170*
  4: 0xA1AA [0x1F] MOVE_ENTITY: Update entity position (mode=1)
  5: 0xA1AC [0x4A] LocalPlayer looks at Prien (ID: 17134065/0x010571F1)
  6: 0xA1B5 [0x79] LocalPlayer looks at Prien (ID: 17134065/0x010571F1) (Basic look)
  7: 0xA1BF [0x6F] WAIT_FRAME_DELAY: Yield until WaitTime reaches zero
  8: 0xA1C0 [0x76] CHECK_ENTITY_RENDER_FLAGS: Wait until LocalPlayer Render.Flags0 and Render.Flags3 conditions are met
  9: 0xA1C5 [0x00] END_REQSTACK()
```
