# Event 65535

## Metadata

| Field           | Value    |
|-----------------|----------|
| Event Index     | 17/21    |
| Offset          | 0x018A   |
| Data Size       | 41 bytes |
| Calculated Size | 41 bytes |
| Instructions    | 12       |

```
      00 01 02 03 04 05 06 07  08 09 0A 0B 0C 0D 0E 0F
      -- -- -- -- -- -- -- --  -- -- -- -- -- -- -- --
0180:                                32 16 80 1F 00 35            2....5
0190: 80 36 80 37 80 1F 01 33  01 32 16 80 1F 00 38 80  .6.7...3.2....8.
01A0: 39 80 3A 80 1F 01 1C 3B  80 4B 91 A0 01 01 3C 80  9.:....;.K....<.
01B0: 6F 70 00                                          op.             
```

## Opcodes

```
  0: 0x018A [0x32] ExtData[1]->MainSpeed = 40* * 0.1
  1: 0x018D [0x1F] MOVE_ENTITY: EventEntity moves to X=-3.280*, Z=-18.108*, Y=-22.439*
  2: 0x0195 [0x1F] MOVE_ENTITY: Update entity position (mode=1)
  3: 0x0197 [0x33] EventEntity->Render.Flags0 |= 0x200000 // Bit 21 (flag=0x01)
  4: 0x0199 [0x32] ExtData[1]->MainSpeed = 40* * 0.1
  5: 0x019C [0x1F] MOVE_ENTITY: EventEntity moves to X=-2.059*, Z=-15.336*, Y=-25.708*
  6: 0x01A4 [0x1F] MOVE_ENTITY: Update entity position (mode=1)
  7: 0x01A6 [0x1C] WAIT(60* ticks)
  8: 0x01A9 [0x4B] UPDATE_ENTITY_YAW(entity=Miledo-Shiraddo (ID: 16883857/0x0101A091), yaw=2.1°*)
  9: 0x01B0 [0x6F] WAIT_FRAME_DELAY: Yield until WaitTime reaches zero
 10: 0x01B1 [0x70] WAIT_ENTITY_RENDER_FLAG: Wait while EventEntity->Render.Flags3 bit 2 is set (cancel turn if not)
 11: 0x01B2 [0x00] END_REQSTACK()
```
