# Event 71

## Metadata

| Field           | Value    |
|-----------------|----------|
| Event Index     | 7/13     |
| Offset          | 0x02B2   |
| Data Size       | 28 bytes |
| Calculated Size | 28 bytes |
| Instructions    | 8        |

```
      00 01 02 03 04 05 06 07  08 09 0A 0B 0C 0D 0E 0F
      -- -- -- -- -- -- -- --  -- -- -- -- -- -- -- --
02B0:       1E F0 FF FF 7F 6F  70 66 00 80 F8 FF FF 7F    .....opf......
02C0: F8 FF FF 7F 74 6C 6B 30  1D 19 80 23 21 00        ....tlk0...#!.  
```

## Opcodes

```
  0: 0x02B2 [0x1E] EventEntity looks at LocalPlayer and starts talking
  1: 0x02B7 [0x6F] WAIT_FRAME_DELAY: Yield until WaitTime reaches zero
  2: 0x02B8 [0x70] WAIT_ENTITY_RENDER_FLAG: Wait while EventEntity->Render.Flags3 bit 2 is set (cancel turn if not)
  3: 0x02B9 [0x66] LOAD_EXT_SCHEDULER_MAIN(work_offset=0*, entity1=EventEntity, entity2=EventEntity, action="tlk0")
  4: 0x02C8 [0x1D] PRINT_EVENT_MESSAGE(message_id=6794*)
    → "They say they're really hard to come by. Take care, and best of luck to you.\u007F1\u0000\u0007"
  5: 0x02CB [0x23] WAIT_FOR_DIALOG_INTERACTION
  6: 0x02CC [0x21] END_EVENT
  7: 0x02CD [0x00] END_REQSTACK()
```
