# Event 10289

## Metadata

| Field           | Value    |
|-----------------|----------|
| Event Index     | 4/5      |
| Offset          | 0x0069   |
| Data Size       | 29 bytes |
| Calculated Size | 29 bytes |
| Instructions    | 9        |

```
      00 01 02 03 04 05 06 07  08 09 0A 0B 0C 0D 0E 0F
      -- -- -- -- -- -- -- --  -- -- -- -- -- -- -- --
0060:                             42 1E F0 FF FF 7F 6F           B.....o
0070: 70 5B 00 80 F1 30 0F 01  F1 30 0F 01 62 69 6B 30  p[...0...0..bik0
0080: 1D 06 80 23 21 00                                 ...#!.          
```

## Opcodes

```
  0: 0x0069 [0x42] SET_CLI_EVENT_CANCEL_DATA()
  1: 0x006A [0x1E] EventEntity looks at LocalPlayer and starts talking
  2: 0x006F [0x6F] WAIT_FRAME_DELAY: Yield until WaitTime reaches zero
  3: 0x0070 [0x70] WAIT_ENTITY_RENDER_FLAG: Wait while EventEntity->Render.Flags3 bit 2 is set (cancel turn if not)
  4: 0x0071 [0x5B] LOAD_EXT_SCHEDULER: Load scheduler "bik0" with entities [Chacharoon (ID: 17772785/0x010F30F1), Chacharoon (ID: 17772785/0x010F30F1)], work=3566*
  5: 0x0080 [0x1D] PRINT_EVENT_MESSAGE(message_id=16003*)
    → "Oooh, listen to the happy sound of jingly! But is too much jingly for one pouch. Only up to 
\u0000 jingly.\u007F1\u0000\u0007"
  6: 0x0083 [0x23] WAIT_FOR_DIALOG_INTERACTION
  7: 0x0084 [0x21] END_EVENT
  8: 0x0085 [0x00] END_REQSTACK()
```
