# Event 65535

## Metadata

| Field           | Value    |
|-----------------|----------|
| Event Index     | 14/154   |
| Offset          | 0x0052   |
| Data Size       | 39 bytes |
| Calculated Size | 39 bytes |
| Instructions    | 11       |

```
      00 01 02 03 04 05 06 07  08 09 0A 0B 0C 0D 0E 0F
      -- -- -- -- -- -- -- --  -- -- -- -- -- -- -- --
0050:       32 06 80 1F 00 07  80 08 80 09 80 1F 01 6F    2............o
0060: 4B F8 FF FF 7F 0A 80 6F  76 F8 FF FF 7F 1F 00 01  K......ov.......
0070: 80 0B 80 0C 80 1F 01 6F  00                       .......o.       
```

## Opcodes

```
  0: 0x0052 [0x32] ExtData[1]->MainSpeed = 10* * 0.1
  1: 0x0055 [0x1F] MOVE_ENTITY: EventEntity moves to X=0.052*, Z=50.790*, Y=-0.020*
  2: 0x005D [0x1F] MOVE_ENTITY: Update entity position (mode=1)
  3: 0x005F [0x6F] WAIT_FRAME_DELAY: Yield until WaitTime reaches zero
  4: 0x0060 [0x4B] UPDATE_ENTITY_YAW(entity=EventEntity, yaw=16.9°*)
  5: 0x0067 [0x6F] WAIT_FRAME_DELAY: Yield until WaitTime reaches zero
  6: 0x0068 [0x76] CHECK_ENTITY_RENDER_FLAGS: Wait until EventEntity Render.Flags0 and Render.Flags3 conditions are met
  7: 0x006D [0x1F] MOVE_ENTITY: EventEntity moves to X=0.001*, Z=53.600*, Y=-1.215*
  8: 0x0075 [0x1F] MOVE_ENTITY: Update entity position (mode=1)
  9: 0x0077 [0x6F] WAIT_FRAME_DELAY: Yield until WaitTime reaches zero
 10: 0x0078 [0x00] END_REQSTACK()
```
