# Event 65535

## Metadata

| Field           | Value    |
|-----------------|----------|
| Event Index     | 56/59    |
| Offset          | 0x0C77   |
| Data Size       | 67 bytes |
| Calculated Size | 67 bytes |
| Instructions    | 15       |

```
      00 01 02 03 04 05 06 07  08 09 0A 0B 0C 0D 0E 0F
      -- -- -- -- -- -- -- --  -- -- -- -- -- -- -- --
0C70:                      32  DD 80 1F 00 DE 80 DF 80         2........
0C80: E0 80 1F 01 4B 19 61 0E  01 E1 80 1C 09 80 1F 00  ....K.a.........
0C90: E2 80 E3 80 E4 80 1F 01  4B 19 61 0E 01 E5 80 1C  ........K.a.....
0CA0: E6 80 1F 00 E7 80 E8 80  E9 80 1F 01 1C 17 80 4B  ...............K
0CB0: 19 61 0E 01 EA 80 1C 09  80 00                    .a........      
```

## Opcodes

```
  0: 0x0C77 [0x32] ExtData[1]->MainSpeed = 45* * 0.1
  1: 0x0C7A [0x1F] MOVE_ENTITY: EventEntity moves to X=-599.295*, Z=590.678*, Y=0.264*
  2: 0x0C82 [0x1F] MOVE_ENTITY: Update entity position (mode=1)
  3: 0x0C84 [0x4B] UPDATE_ENTITY_YAW(entity=Unnamed NPC (ID: 17719577/0x010E6119), yaw=5.27°*)
  4: 0x0C8B [0x1C] WAIT(60* ticks)
  5: 0x0C8E [0x1F] MOVE_ENTITY: EventEntity moves to X=-604.353*, Z=586.292*, Y=0.138*
  6: 0x0C96 [0x1F] MOVE_ENTITY: Update entity position (mode=1)
  7: 0x0C98 [0x4B] UPDATE_ENTITY_YAW(entity=Unnamed NPC (ID: 17719577/0x010E6119), yaw=0.20°*)
  8: 0x0C9F [0x1C] WAIT(240* ticks)
  9: 0x0CA2 [0x1F] MOVE_ENTITY: EventEntity moves to X=-600.328*, Z=582.410*, Y=0.802*
 10: 0x0CAA [0x1F] MOVE_ENTITY: Update entity position (mode=1)
 11: 0x0CAC [0x1C] WAIT(30* ticks)
 12: 0x0CAF [0x4B] UPDATE_ENTITY_YAW(entity=Unnamed NPC (ID: 17719577/0x010E6119), yaw=16.63°*)
 13: 0x0CB6 [0x1C] WAIT(60* ticks)
 14: 0x0CB9 [0x00] END_REQSTACK()
```
