# Event 65535

## Metadata

| Field           | Value    |
|-----------------|----------|
| Event Index     | 34/59    |
| Offset          | 0x057C   |
| Data Size       | 63 bytes |
| Calculated Size | 63 bytes |
| Instructions    | 11       |

```
      00 01 02 03 04 05 06 07  08 09 0A 0B 0C 0D 0E 0F
      -- -- -- -- -- -- -- --  -- -- -- -- -- -- -- --
0570:                                      32 13 80 1F              2...
0580: 00 62 80 63 80 64 80 1F  01 1C 09 80 1E F0 FF FF  .b.c.d..........
0590: 7F 1C 17 80 5B 0A 80 19  61 0E 01 19 61 0E 01 6E  ....[...a...a..n
05A0: 61 6B 30 1C 65 80 45 66  80 F0 FF FF 7F F0 FF FF  ak0.e.Ef........
05B0: 7F 6E 61 6B 32 04 80 1C  57 80 00                 .nak2...W..     
```

## Opcodes

```
  0: 0x057C [0x32] ExtData[1]->MainSpeed = 15* * 0.1
  1: 0x057F [0x1F] MOVE_ENTITY: EventEntity moves to X=-661.760*, Z=21.841*, Y=-27.713*
  2: 0x0587 [0x1F] MOVE_ENTITY: Update entity position (mode=1)
  3: 0x0589 [0x1C] WAIT(60* ticks)
  4: 0x058C [0x1E] EventEntity looks at LocalPlayer and starts talking
  5: 0x0591 [0x1C] WAIT(30* ticks)
  6: 0x0594 [0x5B] LOAD_EXT_SCHEDULER: Load scheduler "nak0" with entities [Unnamed NPC (ID: 17719577/0x010E6119), Unnamed NPC (ID: 17719577/0x010E6119)], work=223*
  7: 0x05A3 [0x1C] WAIT(10* ticks)
  8: 0x05A6 [0x45] LOAD_SCHEDULED_TASK: Load scheduler "nak2" with entities [LocalPlayer, LocalPlayer], work=[144*, 0*]
  9: 0x05B7 [0x1C] WAIT(90* ticks)
 10: 0x05BA [0x00] END_REQSTACK()
```
