# Event 65535

## Metadata

| Field           | Value    |
|-----------------|----------|
| Event Index     | 35/59    |
| Offset          | 0x05BB   |
| Data Size       | 53 bytes |
| Calculated Size | 53 bytes |
| Instructions    | 9        |

```
      00 01 02 03 04 05 06 07  08 09 0A 0B 0C 0D 0E 0F
      -- -- -- -- -- -- -- --  -- -- -- -- -- -- -- --
05B0:                                   32 13 80 1F 00             2....
05C0: 67 80 68 80 69 80 1F 01  1C 17 80 5B 18 80 19 61  g.h.i......[...a
05D0: 0E 01 19 61 0E 01 6A 6F  79 30 1C 65 80 5B 19 80  ...a..joy0.e.[..
05E0: 19 61 0E 01 19 61 0E 01  31 30 31 31 1C 09 80 00  .a...a..1011....
```

## Opcodes

```
  0: 0x05BB [0x32] ExtData[1]->MainSpeed = 15* * 0.1
  1: 0x05BE [0x1F] MOVE_ENTITY: EventEntity moves to X=-664.710*, Z=21.128*, Y=-27.745*
  2: 0x05C6 [0x1F] MOVE_ENTITY: Update entity position (mode=1)
  3: 0x05C8 [0x1C] WAIT(30* ticks)
  4: 0x05CB [0x5B] LOAD_EXT_SCHEDULER: Load scheduler "joy0" with entities [Unnamed NPC (ID: 17719577/0x010E6119), Unnamed NPC (ID: 17719577/0x010E6119)], work=222*
  5: 0x05DA [0x1C] WAIT(10* ticks)
  6: 0x05DD [0x5B] LOAD_EXT_SCHEDULER: Load scheduler "1011" with entities [Unnamed NPC (ID: 17719577/0x010E6119), Unnamed NPC (ID: 17719577/0x010E6119)], work=224*
  7: 0x05EC [0x1C] WAIT(60* ticks)
  8: 0x05EF [0x00] END_REQSTACK()
```
