# Event 65535

## Metadata

| Field           | Value    |
|-----------------|----------|
| Event Index     | 39/59    |
| Offset          | 0x064D   |
| Data Size       | 73 bytes |
| Calculated Size | 73 bytes |
| Instructions    | 13       |

```
      00 01 02 03 04 05 06 07  08 09 0A 0B 0C 0D 0E 0F
      -- -- -- -- -- -- -- --  -- -- -- -- -- -- -- --
0640:                                         32 13 80               2..
0650: 1F 00 75 80 76 80 77 80  1F 01 1C 09 80 4B 19 61  ..u.v.w......K.a
0660: 0E 01 78 80 1C 09 80 1E  F0 FF FF 7F 1C 17 80 5B  ..x............[
0670: 0A 80 19 61 0E 01 19 61  0E 01 6E 61 6B 30 1C 65  ...a...a..nak0.e
0680: 80 45 66 80 F0 FF FF 7F  F0 FF FF 7F 6E 61 6B 32  .Ef.........nak2
0690: 04 80 1C 57 80 00                                 ...W..          
```

## Opcodes

```
  0: 0x064D [0x32] ExtData[1]->MainSpeed = 15* * 0.1
  1: 0x0650 [0x1F] MOVE_ENTITY: EventEntity moves to X=180.710*, Z=18.978*, Y=3.343*
  2: 0x0658 [0x1F] MOVE_ENTITY: Update entity position (mode=1)
  3: 0x065A [0x1C] WAIT(60* ticks)
  4: 0x065D [0x4B] UPDATE_ENTITY_YAW(entity=Unnamed NPC (ID: 17719577/0x010E6119), yaw=6.54°*)
  5: 0x0664 [0x1C] WAIT(60* ticks)
  6: 0x0667 [0x1E] EventEntity looks at LocalPlayer and starts talking
  7: 0x066C [0x1C] WAIT(30* ticks)
  8: 0x066F [0x5B] LOAD_EXT_SCHEDULER: Load scheduler "nak0" with entities [Unnamed NPC (ID: 17719577/0x010E6119), Unnamed NPC (ID: 17719577/0x010E6119)], work=223*
  9: 0x067E [0x1C] WAIT(10* ticks)
 10: 0x0681 [0x45] LOAD_SCHEDULED_TASK: Load scheduler "nak2" with entities [LocalPlayer, LocalPlayer], work=[144*, 0*]
 11: 0x0692 [0x1C] WAIT(90* ticks)
 12: 0x0695 [0x00] END_REQSTACK()
```
