# Event 65535

## Metadata

| Field           | Value    |
|-----------------|----------|
| Event Index     | 17/59    |
| Offset          | 0x0111   |
| Data Size       | 57 bytes |
| Calculated Size | 57 bytes |
| Instructions    | 9        |

```
      00 01 02 03 04 05 06 07  08 09 0A 0B 0C 0D 0E 0F
      -- -- -- -- -- -- -- --  -- -- -- -- -- -- -- --
0110:    32 13 80 1F 00 14 80  15 80 04 80 1F 01 4B 19   2............K.
0120: 61 0E 01 16 80 1C 17 80  5B 18 80 19 61 0E 01 19  a.......[...a...
0130: 61 0E 01 6A 6F 79 30 5B  19 80 19 61 0E 01 19 61  a..joy0[...a...a
0140: 0E 01 31 30 31 31 1C 09  80 00                    ..1011....      
```

## Opcodes

```
  0: 0x0111 [0x32] ExtData[1]->MainSpeed = 15* * 0.1
  1: 0x0114 [0x1F] MOVE_ENTITY: EventEntity moves to X=121.826*, Z=83.035*, Y=0.000*
  2: 0x011C [0x1F] MOVE_ENTITY: Update entity position (mode=1)
  3: 0x011E [0x4B] UPDATE_ENTITY_YAW(entity=Unnamed NPC (ID: 17719577/0x010E6119), yaw=14.39°*)
  4: 0x0125 [0x1C] WAIT(30* ticks)
  5: 0x0128 [0x5B] LOAD_EXT_SCHEDULER: Load scheduler "joy0" with entities [Unnamed NPC (ID: 17719577/0x010E6119), Unnamed NPC (ID: 17719577/0x010E6119)], work=222*
  6: 0x0137 [0x5B] LOAD_EXT_SCHEDULER: Load scheduler "1011" with entities [Unnamed NPC (ID: 17719577/0x010E6119), Unnamed NPC (ID: 17719577/0x010E6119)], work=224*
  7: 0x0146 [0x1C] WAIT(60* ticks)
  8: 0x0149 [0x00] END_REQSTACK()
```
