# Event 65535

## Metadata

| Field           | Value    |
|-----------------|----------|
| Event Index     | 37/59    |
| Offset          | 0x05FF   |
| Data Size       | 63 bytes |
| Calculated Size | 63 bytes |
| Instructions    | 11       |

```
      00 01 02 03 04 05 06 07  08 09 0A 0B 0C 0D 0E 0F
      -- -- -- -- -- -- -- --  -- -- -- -- -- -- -- --
05F0:                                               32                 2
0600: 13 80 1F 00 6E 80 6F 80  70 80 1F 01 1C 09 80 1E  ....n.o.p.......
0610: F0 FF FF 7F 1C 17 80 5B  0A 80 19 61 0E 01 19 61  .......[...a...a
0620: 0E 01 6E 61 6B 30 1C 65  80 45 66 80 F0 FF FF 7F  ..nak0.e.Ef.....
0630: F0 FF FF 7F 6E 61 6B 32  04 80 1C 57 80 00        ....nak2...W..  
```

## Opcodes

```
  0: 0x05FF [0x32] ExtData[1]->MainSpeed = 15* * 0.1
  1: 0x0602 [0x1F] MOVE_ENTITY: EventEntity moves to X=563.055*, Z=-424.056*, Y=41.176*
  2: 0x060A [0x1F] MOVE_ENTITY: Update entity position (mode=1)
  3: 0x060C [0x1C] WAIT(60* ticks)
  4: 0x060F [0x1E] EventEntity looks at LocalPlayer and starts talking
  5: 0x0614 [0x1C] WAIT(30* ticks)
  6: 0x0617 [0x5B] LOAD_EXT_SCHEDULER(work_offset=223*, entity1=Unnamed NPC (ID: 17719577/0x010E6119), entity2=Unnamed NPC (ID: 17719577/0x010E6119), action="nak0")
  7: 0x0626 [0x1C] WAIT(10* ticks)
  8: 0x0629 [0x45] LOAD_SCHEDULED_TASK(work_offset1=144*, entity1=LocalPlayer, entity2=LocalPlayer, scheduler_id="nak2", work_offset2=0*)
  9: 0x063A [0x1C] WAIT(90* ticks)
 10: 0x063D [0x00] END_REQSTACK()
```
