# Event 65535

## Metadata

| Field           | Value    |
|-----------------|----------|
| Event Index     | 50/59    |
| Offset          | 0x0BCD   |
| Data Size       | 48 bytes |
| Calculated Size | 48 bytes |
| Instructions    | 11       |

```
      00 01 02 03 04 05 06 07  08 09 0A 0B 0C 0D 0E 0F
      -- -- -- -- -- -- -- --  -- -- -- -- -- -- -- --
0BC0:                                         02 04 00               ...
0BD0: 80 80 01 FC 0B 32 13 80  1F 00 BF 80 C0 80 C1 80  .....2..........
0BE0: 1F 01 1C 09 80 1F 00 C2  80 C3 80 C4 80 1F 01 1F  ................
0BF0: 00 C5 80 C6 80 C7 80 1F  01 01 CD 0B 00           .............   
```

## Opcodes

```
  0: 0x0BCD [0x02] IF !(ExtData[1]->WorkLocal[4] == 1*) GOTO 0x0BFC
  1: 0x0BD5 [0x32] ExtData[1]->MainSpeed = 15* * 0.1
  2: 0x0BD8 [0x1F] MOVE_ENTITY: EventEntity moves to X=-604.743*, Z=600.818*, Y=0.035*
  3: 0x0BE0 [0x1F] MOVE_ENTITY: Update entity position (mode=1)
  4: 0x0BE2 [0x1C] WAIT(60* ticks)
  5: 0x0BE5 [0x1F] MOVE_ENTITY: EventEntity moves to X=-608.317*, Z=600.631*, Y=0.214*
  6: 0x0BED [0x1F] MOVE_ENTITY: Update entity position (mode=1)
  7: 0x0BEF [0x1F] MOVE_ENTITY: EventEntity moves to X=-606.086*, Z=601.808*, Y=0.102*
  8: 0x0BF7 [0x1F] MOVE_ENTITY: Update entity position (mode=1)
  9: 0x0BF9 [0x01] GOTO 0x0BCD

SUBROUTINE_0BFC:
 10: 0x0BFC [0x00] END_REQSTACK()
```
