# Event 152

## Metadata

| Field           | Value    |
|-----------------|----------|
| Event Index     | 4/6      |
| Offset          | 0x0141   |
| Data Size       | 35 bytes |
| Calculated Size | 35 bytes |
| Instructions    | 9        |

```
      00 01 02 03 04 05 06 07  08 09 0A 0B 0C 0D 0E 0F
      -- -- -- -- -- -- -- --  -- -- -- -- -- -- -- --
0140:    03 09 10 01 80 1E F0  FF FF 7F 1D 0E 80 23 5B   .............#[
0150: 07 80 6B A0 0E 01 6B A0  0E 01 74 6C 6B 30 1D 0F  ..k...k...tlk0..
0160: 80 23 21 00                                       .#!.            
```

## Opcodes

```
  0: 0x0141 [0x03] Work_Zone[9] = 208*
  1: 0x0146 [0x1E] EventEntity looks at LocalPlayer and starts talking
  2: 0x014B [0x1D] PRINT_EVENT_MESSAGE(message_id=11037*)
    → "Well I'll be! You've brought me \u0001\u00056\u0002\u0007\u0000\u0000!\u0007I'll ask my sweetie in the Blacksmiths' Guild to fix it all up, good as new.\u007F1\u0000\u0007"
  3: 0x014E [0x23] WAIT_FOR_DIALOG_INTERACTION
  4: 0x014F [0x5B] LOAD_EXT_SCHEDULER(work_offset=60*, entity1=Phara (ID: 17735787/0x010EA06B), entity2=Phara (ID: 17735787/0x010EA06B), action="tlk0")
  5: 0x015E [0x1D] PRINT_EVENT_MESSAGE(message_id=11038*)
    → "I'm sorry. I have no way to repay you now.\u0007Could you please come back tomorrow?\u007F1\u0000\u0007"
  6: 0x0161 [0x23] WAIT_FOR_DIALOG_INTERACTION
  7: 0x0162 [0x21] END_EVENT
  8: 0x0163 [0x00] END_REQSTACK()
```
