# Event 649

## Metadata

| Field           | Value    |
|-----------------|----------|
| Event Index     | 36/39    |
| Offset          | 0x02D0   |
| Data Size       | 43 bytes |
| Calculated Size | 43 bytes |
| Instructions    | 12       |

```
      00 01 02 03 04 05 06 07  08 09 0A 0B 0C 0D 0E 0F
      -- -- -- -- -- -- -- --  -- -- -- -- -- -- -- --
02D0: 1E F0 FF FF 7F 6F 70 29  08 85 70 0E 01 03 1D 19  .....op)..p.....
02E0: 80 23 29 08 85 70 0E 01  04 29 08 85 70 0E 01 05  .#)..p...)..p...
02F0: 29 08 85 70 0E 01 06 20  00 21 00                 )..p... .!.     
```

## Opcodes

```
  0: 0x02D0 [0x1E] EventEntity looks at LocalPlayer and starts talking
  1: 0x02D5 [0x6F] WAIT_FRAME_DELAY: Yield until WaitTime reaches zero
  2: 0x02D6 [0x70] WAIT_ENTITY_RENDER_FLAG: Wait while EventEntity->Render.Flags3 bit 2 is set (cancel turn if not)
  3: 0x02D7 [0x29] REQ_SET_WAIT(priority=0x08, entity_id=Dauperiat (ID: 17723525/0x010E7085), tag_num=0x03)
  4: 0x02DE [0x1D] PRINT_EVENT_MESSAGE(message_id=7239*)
    → "Next time you're around, I might have another job for you. Heh-heh...\u007F1\u0000\u0007"
  5: 0x02E1 [0x23] WAIT_FOR_DIALOG_INTERACTION
  6: 0x02E2 [0x29] REQ_SET_WAIT(priority=0x08, entity_id=Dauperiat (ID: 17723525/0x010E7085), tag_num=0x04)
  7: 0x02E9 [0x29] REQ_SET_WAIT(priority=0x08, entity_id=Dauperiat (ID: 17723525/0x010E7085), tag_num=0x05)
  8: 0x02F0 [0x29] REQ_SET_WAIT(priority=0x08, entity_id=Dauperiat (ID: 17723525/0x010E7085), tag_num=0x06)
  9: 0x02F7 [0x20] SET_CLI_EVENT_UC_FLAG: Unlock player control
 10: 0x02F9 [0x21] END_EVENT
 11: 0x02FA [0x00] END_REQSTACK()
```
