# Event 65535

## Metadata

| Field           | Value    |
|-----------------|----------|
| Event Index     | 31/39    |
| Offset          | 0x01FE   |
| Data Size       | 37 bytes |
| Calculated Size | 37 bytes |
| Instructions    | 9        |

```
      00 01 02 03 04 05 06 07  08 09 0A 0B 0C 0D 0E 0F
      -- -- -- -- -- -- -- --  -- -- -- -- -- -- -- --
01F0:                                            29 08                ).
0200: 85 70 0E 01 03 1D 10 80  23 29 08 85 70 0E 01 04  .p......#)..p...
0210: 29 08 85 70 0E 01 05 1D  11 80 23 29 08 85 70 0E  )..p......#)..p.
0220: 01 06 00                                          ...             
```

## Opcodes

```
  0: 0x01FE [0x29] REQ_SET_WAIT(priority=0x08, entity_id=Dauperiat (ID: 17723525/0x010E7085), tag_num=0x03)
  1: 0x0205 [0x1D] PRINT_EVENT_MESSAGE(message_id=7231*)
    → "Heh-heh-heh... Fool of an adventurer. I pity you!\u007F1\u0000\u0007"
  2: 0x0208 [0x23] WAIT_FOR_DIALOG_INTERACTION
  3: 0x0209 [0x29] REQ_SET_WAIT(priority=0x08, entity_id=Dauperiat (ID: 17723525/0x010E7085), tag_num=0x04)
  4: 0x0210 [0x29] REQ_SET_WAIT(priority=0x08, entity_id=Dauperiat (ID: 17723525/0x010E7085), tag_num=0x05)
  5: 0x0217 [0x1D] PRINT_EVENT_MESSAGE(message_id=7232*)
    → "Many youths just like you have died, crushed under the heel of this land's sinister history.\u007F1\u0000\u0007"
  6: 0x021A [0x23] WAIT_FOR_DIALOG_INTERACTION
  7: 0x021B [0x29] REQ_SET_WAIT(priority=0x08, entity_id=Dauperiat (ID: 17723525/0x010E7085), tag_num=0x06)
  8: 0x0222 [0x00] END_REQSTACK()
```
