# Event 65535

## Metadata

| Field           | Value    |
|-----------------|----------|
| Event Index     | 35/39    |
| Offset          | 0x029D   |
| Data Size       | 51 bytes |
| Calculated Size | 51 bytes |
| Instructions    | 11       |

```
      00 01 02 03 04 05 06 07  08 09 0A 0B 0C 0D 0E 0F
      -- -- -- -- -- -- -- --  -- -- -- -- -- -- -- --
0290:                                         29 08 85               )..
02A0: 70 0E 01 07 1D 17 80 23  29 08 85 70 0E 01 08 29  p......#)..p...)
02B0: 08 85 70 0E 01 03 1D 18  80 23 29 08 85 70 0E 01  ..p......#)..p..
02C0: 04 29 08 85 70 0E 01 05  29 08 85 70 0E 01 06 00  .)..p...)..p....
```

## Opcodes

```
  0: 0x029D [0x29] REQ_SET_WAIT(priority=0x08, entity_id=Dauperiat (ID: 17723525/0x010E7085), tag_num=0x07)
  1: 0x02A4 [0x1D] PRINT_EVENT_MESSAGE(message_id=7237*)
    → "Heh-heh... Here's your reward. Now we're partners in crime, eh?\u007F1\u0000\u0007"
  2: 0x02A7 [0x23] WAIT_FOR_DIALOG_INTERACTION
  3: 0x02A8 [0x29] REQ_SET_WAIT(priority=0x08, entity_id=Dauperiat (ID: 17723525/0x010E7085), tag_num=0x08)
  4: 0x02AF [0x29] REQ_SET_WAIT(priority=0x08, entity_id=Dauperiat (ID: 17723525/0x010E7085), tag_num=0x03)
  5: 0x02B6 [0x1D] PRINT_EVENT_MESSAGE(message_id=7238*)
    → "Next time you're around, I might have another job for you. Heh-heh...\u007F1\u0000\u0007"
  6: 0x02B9 [0x23] WAIT_FOR_DIALOG_INTERACTION
  7: 0x02BA [0x29] REQ_SET_WAIT(priority=0x08, entity_id=Dauperiat (ID: 17723525/0x010E7085), tag_num=0x04)
  8: 0x02C1 [0x29] REQ_SET_WAIT(priority=0x08, entity_id=Dauperiat (ID: 17723525/0x010E7085), tag_num=0x05)
  9: 0x02C8 [0x29] REQ_SET_WAIT(priority=0x08, entity_id=Dauperiat (ID: 17723525/0x010E7085), tag_num=0x06)
 10: 0x02CF [0x00] END_REQSTACK()
```
