# Event 65535

## Metadata

| Field           | Value    |
|-----------------|----------|
| Event Index     | 32/39    |
| Offset          | 0x0223   |
| Data Size       | 37 bytes |
| Calculated Size | 37 bytes |
| Instructions    | 9        |

```
      00 01 02 03 04 05 06 07  08 09 0A 0B 0C 0D 0E 0F
      -- -- -- -- -- -- -- --  -- -- -- -- -- -- -- --
0220:          1D 12 80 23 29  08 85 70 0E 01 03 1D 13     ...#)..p.....
0230: 80 23 29 08 85 70 0E 01  04 29 08 85 70 0E 01 05  .#)..p...)..p...
0240: 29 08 85 70 0E 01 06 00                           )..p....        
```

## Opcodes

```
  0: 0x0223 [0x1D] PRINT_EVENT_MESSAGE(message_id=7233*)
    → "All right. How about you go into Ghelsba, get the \u0001\u0005#\u0002\u0001\u0000\u0000 I sold to those Orcs, and bring it back?\u007F1\u0000\u0007"
  1: 0x0226 [0x23] WAIT_FOR_DIALOG_INTERACTION
  2: 0x0227 [0x29] REQ_SET_WAIT(priority=0x08, entity_id=Dauperiat (ID: 17723525/0x010E7085), tag_num=0x03)
  3: 0x022E [0x1D] PRINT_EVENT_MESSAGE(message_id=7234*)
    → "Heh-heh... Not that I expect you to survive...\u007F1\u0000\u0007"
  4: 0x0231 [0x23] WAIT_FOR_DIALOG_INTERACTION
  5: 0x0232 [0x29] REQ_SET_WAIT(priority=0x08, entity_id=Dauperiat (ID: 17723525/0x010E7085), tag_num=0x04)
  6: 0x0239 [0x29] REQ_SET_WAIT(priority=0x08, entity_id=Dauperiat (ID: 17723525/0x010E7085), tag_num=0x05)
  7: 0x0240 [0x29] REQ_SET_WAIT(priority=0x08, entity_id=Dauperiat (ID: 17723525/0x010E7085), tag_num=0x06)
  8: 0x0247 [0x00] END_REQSTACK()
```
