# Event 65535

## Metadata

| Field           | Value    |
|-----------------|----------|
| Event Index     | 6/10     |
| Offset          | 0x005A   |
| Data Size       | 52 bytes |
| Calculated Size | 52 bytes |
| Instructions    | 6        |

```
      00 01 02 03 04 05 06 07  08 09 0A 0B 0C 0D 0E 0F
      -- -- -- -- -- -- -- --  -- -- -- -- -- -- -- --
0050:                                4A 2A 01 10 01 FA            J*....
0060: 00 10 01 4A FA 00 10 01  2A 01 10 01 66 00 80 2A  ...J....*...f..*
0070: 01 10 01 2A 01 10 01 74  6C 6B 30 1C 0D 80 66 0E  ...*...tlk0...f.
0080: 80 FA 00 10 01 FA 00 10  01 74 61 6C 6B 00        .........talk.  
```

## Opcodes

```
  0: 0x005A [0x4A] Delionna (ID: 17826090/0x0110012A) looks at Volgoi (ID: 17826042/0x011000FA)
  1: 0x0063 [0x4A] Volgoi (ID: 17826042/0x011000FA) looks at Delionna (ID: 17826090/0x0110012A)
  2: 0x006C [0x66] LOAD_EXT_SCHEDULER_MAIN: Load scheduler "tlk0" with entities [Delionna (ID: 17826090/0x0110012A), Delionna (ID: 17826090/0x0110012A)], work=10*
  3: 0x007B [0x1C] WAIT(90* ticks)
  4: 0x007E [0x66] LOAD_EXT_SCHEDULER_MAIN: Load scheduler "talk" with entities [Volgoi (ID: 17826042/0x011000FA), Volgoi (ID: 17826042/0x011000FA)], work=60*
  5: 0x008D [0x00] END_REQSTACK()
```
