# Event 106

## Metadata

| Field           | Value    |
|-----------------|----------|
| Event Index     | 16/99    |
| Offset          | 0x0141   |
| Data Size       | 39 bytes |
| Calculated Size | 39 bytes |
| Instructions    | 13       |

```
      00 01 02 03 04 05 06 07  08 09 0A 0B 0C 0D 0E 0F
      -- -- -- -- -- -- -- --  -- -- -- -- -- -- -- --
0140:    42 1E F0 FF FF 7F 6F  70 03 02 10 1D 80 2B 08   B.....op.....+.
0150: 90 0E 01 1E 80 23 2B 08  90 0E 01 1F 80 23 2B 08  .....#+......#+.
0160: 90 0E 01 20 80 23 21 00                           ... .#!.        
```

## Opcodes

```
  0: 0x0141 [0x42] SET_CLI_EVENT_CANCEL_DATA()
  1: 0x0142 [0x1E] EventEntity looks at LocalPlayer and starts talking
  2: 0x0147 [0x6F] WAIT_FRAME_DELAY: Yield until WaitTime reaches zero
  3: 0x0148 [0x70] WAIT_ENTITY_RENDER_FLAG: Wait while EventEntity->Render.Flags3 bit 2 is set (cancel turn if not)
  4: 0x0149 [0x03] Work_Zone[2] = 284*
  5: 0x014E [0x2B] Rahal (ID: 17731592/0x010E9008) [6840*]:
    → "\u0008, I want you to investigate the Temple of Uggalepih.\u007F1\u0000\u0007"
  6: 0x0155 [0x23] WAIT_FOR_DIALOG_INTERACTION
  7: 0x0156 [0x2B] Rahal (ID: 17731592/0x010E9008) [6841*]:
    → "Take this \u0001\u00053\u0002\u0000\u0000\u0000 with you on your journey.\u007F1\u0000\u0007"
  8: 0x015D [0x23] WAIT_FOR_DIALOG_INTERACTION
  9: 0x015E [0x2B] Rahal (ID: 17731592/0x010E9008) [6842*]:
    → "Use it when searching the area. Any response from the \u0001\u00053\u0002\u0000\u0000\u0000 may be a clue to the location of Lightbringer. The fate of the Kingdom is riding on your shoulders. Don't let us down!\u007F1\u0000\u0007"
 10: 0x0165 [0x23] WAIT_FOR_DIALOG_INTERACTION
 11: 0x0166 [0x21] END_EVENT
 12: 0x0167 [0x00] END_REQSTACK()
```
