# Event 37

## Metadata

| Field           | Value    |
|-----------------|----------|
| Event Index     | 20/99    |
| Offset          | 0x01A8   |
| Data Size       | 56 bytes |
| Calculated Size | 56 bytes |
| Instructions    | 10       |

```
      00 01 02 03 04 05 06 07  08 09 0A 0B 0C 0D 0E 0F
      -- -- -- -- -- -- -- --  -- -- -- -- -- -- -- --
01A0:                          1E F0 FF FF 7F 6F 70 66          .....opf
01B0: 19 80 F8 FF FF 7F F8 FF  FF 7F 74 68 6B 31 1D 23  ..........thk1.#
01C0: 80 23 66 19 80 F8 FF FF  7F F8 FF FF 7F 74 68 6B  .#f..........thk
01D0: 32 53 F8 FF FF 7F F8 FF  FF 7F 74 68 6B 32 21 00  2S........thk2!.
```

## Opcodes

```
  0: 0x01A8 [0x1E] EventEntity looks at LocalPlayer and starts talking
  1: 0x01AD [0x6F] WAIT_FRAME_DELAY: Yield until WaitTime reaches zero
  2: 0x01AE [0x70] WAIT_ENTITY_RENDER_FLAG: Wait while EventEntity->Render.Flags3 bit 2 is set (cancel turn if not)
  3: 0x01AF [0x66] LOAD_EXT_SCHEDULER_MAIN(work_offset=20*, entity1=EventEntity, entity2=EventEntity, action="thk1")
  4: 0x01BE [0x1D] PRINT_EVENT_MESSAGE(message_id=7762*)
    → "Rochefogne was slain? If it was not one of the Royal Knights, then... No, it is not possible...\u007F1\u0000\u0007"
  5: 0x01C1 [0x23] WAIT_FOR_DIALOG_INTERACTION
  6: 0x01C2 [0x66] LOAD_EXT_SCHEDULER_MAIN(work_offset=20*, entity1=EventEntity, entity2=EventEntity, action="thk2")
  7: 0x01D1 [0x53] WAIT_SCHEDULER_TASK(entity1=EventEntity, entity2=EventEntity, action_id="thk2")
  8: 0x01DE [0x21] END_EVENT
  9: 0x01DF [0x00] END_REQSTACK()
```
