# Event 38

## Metadata

| Field           | Value    |
|-----------------|----------|
| Event Index     | 21/99    |
| Offset          | 0x01E0   |
| Data Size       | 56 bytes |
| Calculated Size | 56 bytes |
| Instructions    | 10       |

```
      00 01 02 03 04 05 06 07  08 09 0A 0B 0C 0D 0E 0F
      -- -- -- -- -- -- -- --  -- -- -- -- -- -- -- --
01E0: 1E F0 FF FF 7F 6F 70 66  19 80 F8 FF FF 7F F8 FF  .....opf........
01F0: FF 7F 74 68 6B 31 1D 24  80 23 66 19 80 F8 FF FF  ..thk1.$.#f.....
0200: 7F F8 FF FF 7F 74 68 6B  32 53 F8 FF FF 7F F8 FF  .....thk2S......
0210: FF 7F 74 68 6B 32 21 00                           ..thk2!.        
```

## Opcodes

```
  0: 0x01E0 [0x1E] EventEntity looks at LocalPlayer and starts talking
  1: 0x01E5 [0x6F] WAIT_FRAME_DELAY: Yield until WaitTime reaches zero
  2: 0x01E6 [0x70] WAIT_ENTITY_RENDER_FLAG: Wait while EventEntity->Render.Flags3 bit 2 is set (cancel turn if not)
  3: 0x01E7 [0x66] LOAD_EXT_SCHEDULER_MAIN: Load scheduler "thk1" with entities [EventEntity, EventEntity], work=20*
  4: 0x01F6 [0x1D] PRINT_EVENT_MESSAGE(message_id=7764*)
    → "The Rites of Succession...\u0007At last our new leader will be chosen...\u007F1\u0000\u0007"
  5: 0x01F9 [0x23] WAIT_FOR_DIALOG_INTERACTION
  6: 0x01FA [0x66] LOAD_EXT_SCHEDULER_MAIN: Load scheduler "thk2" with entities [EventEntity, EventEntity], work=20*
  7: 0x0209 [0x53] WAIT_SCHEDULER_TASK: Wait for scheduler "thk2" with entities [EventEntity, EventEntity]
  8: 0x0216 [0x21] END_EVENT
  9: 0x0217 [0x00] END_REQSTACK()
```
