# Event 39

## Metadata

| Field           | Value    |
|-----------------|----------|
| Event Index     | 22/99    |
| Offset          | 0x0218   |
| Data Size       | 45 bytes |
| Calculated Size | 45 bytes |
| Instructions    | 11       |

```
      00 01 02 03 04 05 06 07  08 09 0A 0B 0C 0D 0E 0F
      -- -- -- -- -- -- -- --  -- -- -- -- -- -- -- --
0210:                          1E F0 FF FF 7F 6F 70 1D          .....op.
0220: 25 80 23 66 26 80 F8 FF  FF 7F F8 FF FF 7F 73 6C  %.#f&.........sl
0230: 30 30 1D 27 80 23 53 F8  FF FF 7F F8 FF FF 7F 73  00.'.#S........s
0240: 6C 30 30 21 00                                    l00!.           
```

## Opcodes

```
  0: 0x0218 [0x1E] EventEntity looks at LocalPlayer and starts talking
  1: 0x021D [0x6F] WAIT_FRAME_DELAY: Yield until WaitTime reaches zero
  2: 0x021E [0x70] WAIT_ENTITY_RENDER_FLAG: Wait while EventEntity->Render.Flags3 bit 2 is set (cancel turn if not)
  3: 0x021F [0x1D] PRINT_EVENT_MESSAGE(message_id=7801*)
    → "In the years I have served as a Royal Knight, I have been sent on many missions. However, this expedition to Fei'Yin means much more to me than most have.\u007F1\u0000\u0007"
  4: 0x0222 [0x23] WAIT_FOR_DIALOG_INTERACTION
  5: 0x0223 [0x66] LOAD_EXT_SCHEDULER_MAIN(work_offset=21*, entity1=EventEntity, entity2=EventEntity, action="sl00")
  6: 0x0232 [0x1D] PRINT_EVENT_MESSAGE(message_id=7802*)
    → "I dedicate this battle to the knights I have lost. I will not let the blood they shed go in vain. We will defeat our enemies!\u007F1\u0000\u0007"
  7: 0x0235 [0x23] WAIT_FOR_DIALOG_INTERACTION
  8: 0x0236 [0x53] WAIT_SCHEDULER_TASK(entity1=EventEntity, entity2=EventEntity, action_id="sl00")
  9: 0x0243 [0x21] END_EVENT
 10: 0x0244 [0x00] END_REQSTACK()
```
