# Event 65535

## Metadata

| Field           | Value    |
|-----------------|----------|
| Event Index     | 9/99     |
| Offset          | 0x005F   |
| Data Size       | 86 bytes |
| Calculated Size | 86 bytes |
| Instructions    | 6        |

```
      00 01 02 03 04 05 06 07  08 09 0A 0B 0C 0D 0E 0F
      -- -- -- -- -- -- -- --  -- -- -- -- -- -- -- --
0050:                                               32                 2
0060: 05 80 31 00 0C 80 0D 80  02 80 0E 80 31 01 22 01  ..1.........1.".
0070: 00 3B F8 FF FF 7F 01 00  02 00 03 00 3A F8 FF FF  .;..........:...
0080: 7F 04 00 17 05 00 04 00  00 00 16 06 00 04 00 00  ................
0090: 00 07 01 00 05 00 07 02  00 06 00 1B 17 05 00 04  ................
00A0: 00 00 00 16 06 00 04 00  00 00 07 01 00 05 00 07  ................
00B0: 02 00 06 00 1B                                    .....           
```

## Opcodes

```
  0: 0x005F [0x32] ExtData[1]->MainSpeed = 13* * 0.1
  1: 0x0062 [0x31] UPDATE_ENTITY_POSITION: Set EventEntity goal position to X=-7.767*, Z=-2.145*, Y=0.000*, Time=180*
  2: 0x006C [0x31] UPDATE_ENTITY_POSITION: Move EventEntity towards goal position
  3: 0x006E [0x22] ENTITY_HIDE_FLAG(enabled=0x01)
  4: 0x0070 [0x00] END_REQSTACK()
```

## Data or dead code:

```
# Data Section: 0x0071 (68 bytes)
     0x0071: 3B F8 FF FF 7F 01 00 02 00 03 00 3A F8 FF FF 7F
     0x0081: 04 00 17 05 00 04 00 00 00 16 06 00 04 00 00 00
     0x0091: 07 01 00 05 00 07 02 00 06 00 1B 17 05 00 04 00
     0x00A1: 00 00 16 06 00 04 00 00 00 07 01 00 05 00 07 02
     0x00B1: 00 06 00 1B
```