# Event 976

## Metadata

| Field           | Value    |
|-----------------|----------|
| Event Index     | 8/9      |
| Offset          | 0x0546   |
| Data Size       | 39 bytes |
| Calculated Size | 39 bytes |
| Instructions    | 11       |

```
      00 01 02 03 04 05 06 07  08 09 0A 0B 0C 0D 0E 0F
      -- -- -- -- -- -- -- --  -- -- -- -- -- -- -- --
0540:                   1E F0  FF FF 7F 6F 76 F0 FF FF        .....ov...
0550: 7F 6E F8 FF FF 7F 37 80  99 F8 FF FF 7F 1D 38 80  .n....7.......8.
0560: 23 99 F8 FF FF 7F 03 01  10 0A 80 21 00           #..........!.   
```

## Opcodes

```
  0: 0x0546 [0x1E] EventEntity looks at LocalPlayer and starts talking
  1: 0x054B [0x6F] WAIT_FRAME_DELAY: Yield until WaitTime reaches zero
  2: 0x054C [0x76] CHECK_ENTITY_RENDER_FLAGS: Wait until LocalPlayer Render.Flags0 and Render.Flags3 conditions are met
  3: 0x0551 [0x6E] EventEntity uses emote 32*
  4: 0x0558 [0x99] Wait for EventEntity animation to complete
  5: 0x055D [0x1D] PRINT_EVENT_MESSAGE(message_id=14287*)
    → "Can't you count!? I said brrring me 
\u0001 \u0001\u0005%\u0002\u0000\u0000\u0000!\u0007All the money and equipment in the world won't matter if you don't have the prrroper amount of \u0001\u0005%\u0002\u0000\u0000\u0000!\u007F1\u0000\u0007"
  6: 0x0560 [0x23] WAIT_FOR_DIALOG_INTERACTION
  7: 0x0561 [0x99] Wait for EventEntity animation to complete
  8: 0x0566 [0x03] Work_Zone[1] = 7*
  9: 0x056B [0x21] END_EVENT
 10: 0x056C [0x00] END_REQSTACK()
```
