# Event 65535

## Metadata

| Field           | Value    |
|-----------------|----------|
| Event Index     | 12/59    |
| Offset          | 0x0052   |
| Data Size       | 27 bytes |
| Calculated Size | 27 bytes |
| Instructions    | 8        |

```
      00 01 02 03 04 05 06 07  08 09 0A 0B 0C 0D 0E 0F
      -- -- -- -- -- -- -- --  -- -- -- -- -- -- -- --
0050:       33 00 32 07 80 5A  00 03 80 08 80 09 80 5A    3.2..Z.......Z
0060: 01 1F 00 03 80 0A 80 09  80 1F 01 6F 00           ...........o.   
```

## Opcodes

```
  0: 0x0052 [0x33] EventEntity->Render.Flags0 &= ~ 0x200000 // Bit 21 (flag=0x00)
  1: 0x0054 [0x32] ExtData[1]->MainSpeed = 13* * 0.1
  2: 0x0057 [0x5A] UPDATE_EVENT_POSITION: Set EventEntity MovePosition to X=-460.094*, Z=6.622*, Y=121.999*
  3: 0x005F [0x5A] UPDATE_EVENT_POSITION: Move EventEntity incrementally towards MovePosition
  4: 0x0061 [0x1F] MOVE_ENTITY: EventEntity moves to X=-460.094*, Z=7.110*, Y=121.999*
  5: 0x0069 [0x1F] MOVE_ENTITY: Update entity position (mode=1)
  6: 0x006B [0x6F] WAIT_FRAME_DELAY: Yield until WaitTime reaches zero
  7: 0x006C [0x00] END_REQSTACK()
```
