# Event 65535

## Metadata

| Field           | Value    |
|-----------------|----------|
| Event Index     | 23/35    |
| Offset          | 0x011D   |
| Data Size       | 42 bytes |
| Calculated Size | 42 bytes |
| Instructions    | 9        |

```
      00 01 02 03 04 05 06 07  08 09 0A 0B 0C 0D 0E 0F
      -- -- -- -- -- -- -- --  -- -- -- -- -- -- -- --
0110:                                         32 1E 80               2..
0120: 59 01 F8 FF FF 7F 1F 80  4B F8 FF FF 7F 2A 80 1C  Y.......K....*..
0130: 2B 80 1F 00 2C 80 2D 80  29 80 1F 01 1F 00 2E 80  +...,.-.).......
0140: 2F 80 30 80 1F 01 00                              /.0....         
```

## Opcodes

```
  0: 0x011D [0x32] ExtData[1]->MainSpeed = 11* * 0.1
  1: 0x0120 [0x59] UPDATE_ENTITY_DATA: Set EventEntity turn speed = 70*
  2: 0x0128 [0x4B] UPDATE_ENTITY_YAW(entity=EventEntity, yaw=0.60°*)
  3: 0x012F [0x1C] WAIT(30* ticks)
  4: 0x0132 [0x1F] MOVE_ENTITY: EventEntity moves to X=-13.855*, Z=83.832*, Y=-4.999*
  5: 0x013A [0x1F] MOVE_ENTITY: Update entity position (mode=1)
  6: 0x013C [0x1F] MOVE_ENTITY: EventEntity moves to X=-12.550*, Z=80.066*, Y=-3.459*
  7: 0x0144 [0x1F] MOVE_ENTITY: Update entity position (mode=1)
  8: 0x0146 [0x00] END_REQSTACK()
```
