# Event 288

## Metadata

| Field           | Value    |
|-----------------|----------|
| Event Index     | 8/13     |
| Offset          | 0x00A7   |
| Data Size       | 49 bytes |
| Calculated Size | 49 bytes |
| Instructions    | 11       |

```
      00 01 02 03 04 05 06 07  08 09 0A 0B 0C 0D 0E 0F
      -- -- -- -- -- -- -- --  -- -- -- -- -- -- -- --
00A0:                      1E  F0 FF FF 7F 1D 10 80 23         ........#
00B0: 66 09 80 F8 FF FF 7F F8  FF FF 7F 74 6C 6B 30 1D  f..........tlk0.
00C0: 11 80 23 66 09 80 F8 FF  FF 7F F8 FF FF 7F 74 6C  ..#f..........tl
00D0: 6B 31 1D 12 80 23 21 00                           k1...#!.        
```

## Opcodes

```
  0: 0x00A7 [0x1E] EventEntity looks at LocalPlayer and starts talking
  1: 0x00AC [0x1D] PRINT_EVENT_MESSAGE(message_id=11006*)
    → "Welcome home! We are all relieved to see you made it back unharmed.\u007F1\u0000\u0007"
  2: 0x00AF [0x23] WAIT_FOR_DIALOG_INTERACTION
  3: 0x00B0 [0x66] LOAD_EXT_SCHEDULER_MAIN(work_offset=20*, entity1=EventEntity, entity2=EventEntity, action="tlk0")
  4: 0x00BF [0x1D] PRINT_EVENT_MESSAGE(message_id=11007*)
    → "How was your ride on the airship? I had heard stories of the flying machines, but I never thought I would have the opportunity to see one up close.\u007F1\u0000\u0007"
  5: 0x00C2 [0x23] WAIT_FOR_DIALOG_INTERACTION
  6: 0x00C3 [0x66] LOAD_EXT_SCHEDULER_MAIN(work_offset=20*, entity1=EventEntity, entity2=EventEntity, action="tlk1")
  7: 0x00D2 [0x1D] PRINT_EVENT_MESSAGE(message_id=11008*)
    → "Perhaps some day I will be blessed with the opportunity to ride one as well...\u007F1\u0000\u0007"
  8: 0x00D5 [0x23] WAIT_FOR_DIALOG_INTERACTION
  9: 0x00D6 [0x21] END_EVENT
 10: 0x00D7 [0x00] END_REQSTACK()
```
