# Event 559

## Metadata

| Field           | Value    |
|-----------------|----------|
| Event Index     | 13/13    |
| Offset          | 0x00F8   |
| Data Size       | 50 bytes |
| Calculated Size | 50 bytes |
| Instructions    | 12       |

```
      00 01 02 03 04 05 06 07  08 09 0A 0B 0C 0D 0E 0F
      -- -- -- -- -- -- -- --  -- -- -- -- -- -- -- --
00F0:                          1E F0 FF FF 7F 6F 70 1D          .....op.
0100: 17 80 23 66 18 80 F8 FF  FF 7F F8 FF FF 7F 74 6C  ..#f..........tl
0110: 62 30 1C 19 80 1D 1A 80  23 66 18 80 F8 FF FF 7F  b0......#f......
0120: F8 FF FF 7F 74 6C 62 31  21 00                    ....tlb1!.      
```

## Opcodes

```
  0: 0x00F8 [0x1E] EventEntity looks at LocalPlayer and starts talking
  1: 0x00FD [0x6F] WAIT_FRAME_DELAY: Yield until WaitTime reaches zero
  2: 0x00FE [0x70] WAIT_ENTITY_RENDER_FLAG: Wait while EventEntity->Render.Flags3 bit 2 is set (cancel turn if not)
  3: 0x00FF [0x1D] PRINT_EVENT_MESSAGE(message_id=11796*)
    → "I heard of your deeds from Tressia.\u0007Here is your reward.\u007F1\u0000\u0007"
  4: 0x0102 [0x23] WAIT_FOR_DIALOG_INTERACTION
  5: 0x0103 [0x66] LOAD_EXT_SCHEDULER_MAIN(work_offset=27*, entity1=EventEntity, entity2=EventEntity, action="tlb0")
  6: 0x0112 [0x1C] WAIT(60* ticks)
  7: 0x0115 [0x1D] PRINT_EVENT_MESSAGE(message_id=11797*)
    → "We may need your help again someday. Thank you, \u0008.\u007F1\u0000\u0007"
  8: 0x0118 [0x23] WAIT_FOR_DIALOG_INTERACTION
  9: 0x0119 [0x66] LOAD_EXT_SCHEDULER_MAIN(work_offset=27*, entity1=EventEntity, entity2=EventEntity, action="tlb1")
 10: 0x0128 [0x21] END_EVENT
 11: 0x0129 [0x00] END_REQSTACK()
```
