# Event 65535

## Metadata

| Field           | Value    |
|-----------------|----------|
| Event Index     | 5/16     |
| Offset          | 0x0024   |
| Data Size       | 67 bytes |
| Calculated Size | 67 bytes |
| Instructions    | 12       |

```
      00 01 02 03 04 05 06 07  08 09 0A 0B 0C 0D 0E 0F
      -- -- -- -- -- -- -- --  -- -- -- -- -- -- -- --
0020:             3B F8 FF FF  7F 03 00 04 00 05 00 03      ;...........
0030: 02 00 05 80 02 02 00 06  80 05 66 00 16 01 00 02  ..........f.....
0040: 00 07 80 07 01 00 07 80  03 05 00 02 80 07 05 00  ................
0050: 01 00 37 03 00 04 00 05  00 03 80 07 02 00 08 80  ..7.............
0060: 1C 09 80 01 34 00 00                              ....4..         
```

## Opcodes

```
  0: 0x0024 [0x3B] GET_ENTITY_POSITION(entity=EventEntity, x_destination=ExtData[1]->WorkLocal[3], y_destination=ExtData[1]->WorkLocal[4], z_destination=ExtData[1]->WorkLocal[5])
  1: 0x002F [0x03] ExtData[1]->WorkLocal[2] = 1024*
  2: 0x0034 [0x02] IF !(ExtData[1]->WorkLocal[2] > 3072*) GOTO 0x0066
  3: 0x003C [0x16] ExtData[1]->WorkLocal[1] = sin(ExtData[1]->WorkLocal[2]) * 3750*
  4: 0x0043 [0x07] ExtData[1]->WorkLocal[1] += 3750*
  5: 0x0048 [0x03] ExtData[1]->WorkLocal[5] = 66500*
  6: 0x004D [0x07] ExtData[1]->WorkLocal[5] += ExtData[1]->WorkLocal[1]
  7: 0x0052 [0x37] UPDATE_EVENT_POSITION_AND_DIR: x=ExtData[1]->WorkLocal[3], z=ExtData[1]->WorkLocal[4], y=ExtData[1]->WorkLocal[5], direction=0.0°*
  8: 0x005B [0x07] ExtData[1]->WorkLocal[2] += 16*
  9: 0x0060 [0x1C] WAIT(1* ticks)
 10: 0x0063 [0x01] GOTO 0x0034
 11: 0x0066 [0x00] END_REQSTACK()
```
