# Event 65535

## Metadata

| Field           | Value    |
|-----------------|----------|
| Event Index     | 12/16    |
| Offset          | 0x0116   |
| Data Size       | 80 bytes |
| Calculated Size | 80 bytes |
| Instructions    | 6        |

```
      00 01 02 03 04 05 06 07  08 09 0A 0B 0C 0D 0E 0F
      -- -- -- -- -- -- -- --  -- -- -- -- -- -- -- --
0110:                   9F 12  80 A5 F0 01 01 A5 F0 01        ..........
0120: 01 73 65 73 70 03 80 45  13 80 F0 FF FF 7F F0 FF  .sesp..E........
0130: FF 7F 73 31 33 31 03 80  5B 11 80 F8 FF FF 7F F8  ..s131..[.......
0140: FF FF 7F 68 6F 75 31 53  F8 FF FF 7F F8 FF FF 7F  ...hou1S........
0150: 68 6F 75 31 9F 12 80 A5  F0 01 01 A5 F0 01 01 62  hou1...........b
0160: 68 73 65 03 80 00                                 hse...          
```

## Opcodes

```
  0: 0x0116 [0x9F] LOAD_SCHEDULED_TASK_ALT: Load scheduler "sesp" with entities [Bahamut (ID: 16904357/0x0101F0A5), Bahamut (ID: 16904357/0x0101F0A5)], work=[106*, 0*]
  1: 0x0127 [0x45] LOAD_SCHEDULED_TASK: Load scheduler "s131" with entities [LocalPlayer, LocalPlayer], work=[77*, 0*]
  2: 0x0138 [0x5B] LOAD_EXT_SCHEDULER: Load scheduler "hou1" with entities [EventEntity, EventEntity], work=501*
  3: 0x0147 [0x53] WAIT_SCHEDULER_TASK: Wait for scheduler "hou1" with entities [EventEntity, EventEntity]
  4: 0x0154 [0x9F] LOAD_SCHEDULED_TASK_ALT: Load scheduler "bhse" with entities [Bahamut (ID: 16904357/0x0101F0A5), Bahamut (ID: 16904357/0x0101F0A5)], work=[106*, 0*]
  5: 0x0165 [0x00] END_REQSTACK()
```
