# Event 65535

## Metadata

| Field           | Value    |
|-----------------|----------|
| Event Index     | 15/16    |
| Offset          | 0x01F4   |
| Data Size       | 93 bytes |
| Calculated Size | 93 bytes |
| Instructions    | 7        |

```
      00 01 02 03 04 05 06 07  08 09 0A 0B 0C 0D 0E 0F
      -- -- -- -- -- -- -- --  -- -- -- -- -- -- -- --
01F0:             9F 12 80 A5  F0 01 01 A5 F0 01 01 73      ...........s
0200: 65 73 70 03 80 5B 18 80  F8 FF FF 7F F8 FF FF 7F  esp..[..........
0210: 6D 67 61 30 5B 19 80 AE  F0 01 01 AE F0 01 01 6D  mga0[..........m
0220: 67 61 30 9F 17 80 AE F0  01 01 AE F0 01 01 73 74  ga0...........st
0230: 72 30 03 80 53 F8 FF FF  7F F8 FF FF 7F 6D 67 61  r0..S........mga
0240: 30 5B 11 80 F8 FF FF 7F  F8 FF FF 7F 68 62 61 30  0[..........hba0
0250: 00                                                .               
```

## Opcodes

```
  0: 0x01F4 [0x9F] LOAD_SCHEDULED_TASK_ALT: Load scheduler "sesp" with entities [Bahamut (ID: 16904357/0x0101F0A5), Bahamut (ID: 16904357/0x0101F0A5)], work=[106*, 0*]
  1: 0x0205 [0x5B] LOAD_EXT_SCHEDULER(work_offset=502*, entity1=EventEntity, entity2=EventEntity, action="mga0")
  2: 0x0214 [0x5B] LOAD_EXT_SCHEDULER(work_offset=677*, entity1=Bahamut (ID: 16904366/0x0101F0AE), entity2=Bahamut (ID: 16904366/0x0101F0AE), action="mga0")
  3: 0x0223 [0x9F] LOAD_SCHEDULED_TASK_ALT: Load scheduler "str0" with entities [Bahamut (ID: 16904366/0x0101F0AE), Bahamut (ID: 16904366/0x0101F0AE)], work=[109*, 0*]
  4: 0x0234 [0x53] WAIT_SCHEDULER_TASK(entity1=EventEntity, entity2=EventEntity, action_id="mga0")
  5: 0x0241 [0x5B] LOAD_EXT_SCHEDULER(work_offset=501*, entity1=EventEntity, entity2=EventEntity, action="hba0")
  6: 0x0250 [0x00] END_REQSTACK()
```
