# Event 65535

## Metadata

| Field           | Value    |
|-----------------|----------|
| Event Index     | 16/16    |
| Offset          | 0x0251   |
| Data Size       | 87 bytes |
| Calculated Size | 87 bytes |
| Instructions    | 8        |

```
      00 01 02 03 04 05 06 07  08 09 0A 0B 0C 0D 0E 0F
      -- -- -- -- -- -- -- --  -- -- -- -- -- -- -- --
0250:    5B 18 80 F8 FF FF 7F  F8 FF FF 7F 68 6B 69 30   [..........hki0
0260: 5B 1A 80 AE F0 01 01 AE  F0 01 01 68 6B 69 30 9F  [..........hki0.
0270: 17 80 AE F0 01 01 AE F0  01 01 73 74 72 31 03 80  ..........str1..
0280: 1C 1B 80 4E 01 AE F0 01  01 53 F8 FF FF 7F F8 FF  ...N.....S......
0290: FF 7F 68 6B 69 30 9F 12  80 A5 F0 01 01 A5 F0 01  ..hki0..........
02A0: 01 62 68 73 65 03 80 00                           .bhse...        
```

## Opcodes

```
  0: 0x0251 [0x5B] LOAD_EXT_SCHEDULER: Load scheduler "hki0" with entities [EventEntity, EventEntity], work=502*
  1: 0x0260 [0x5B] LOAD_EXT_SCHEDULER: Load scheduler "hki0" with entities [Bahamut (ID: 16904366/0x0101F0AE), Bahamut (ID: 16904366/0x0101F0AE)], work=678*
  2: 0x026F [0x9F] LOAD_SCHEDULED_TASK_ALT: Load scheduler "str1" with entities [Bahamut (ID: 16904366/0x0101F0AE), Bahamut (ID: 16904366/0x0101F0AE)], work=[109*, 0*]
  3: 0x0280 [0x1C] WAIT(180* ticks)
  4: 0x0283 [0x4E] SET_ENTITY_HIDE_FLAG: Hide Bahamut (ID: 16904366/0x0101F0AE)
  5: 0x0289 [0x53] WAIT_SCHEDULER_TASK: Wait for scheduler "hki0" with entities [EventEntity, EventEntity]
  6: 0x0296 [0x9F] LOAD_SCHEDULED_TASK_ALT: Load scheduler "bhse" with entities [Bahamut (ID: 16904357/0x0101F0A5), Bahamut (ID: 16904357/0x0101F0A5)], work=[106*, 0*]
  7: 0x02A7 [0x00] END_REQSTACK()
```
