# Event 65535

## Metadata

| Field           | Value    |
|-----------------|----------|
| Event Index     | 14/16    |
| Offset          | 0x0198   |
| Data Size       | 92 bytes |
| Calculated Size | 92 bytes |
| Instructions    | 8        |

```
      00 01 02 03 04 05 06 07  08 09 0A 0B 0C 0D 0E 0F
      -- -- -- -- -- -- -- --  -- -- -- -- -- -- -- --
0190:                          9F 12 80 A5 F0 01 01 A5          ........
01A0: F0 01 01 73 65 73 70 03  80 80 F8 FF FF 7F 37 15  ...sesp.......7.
01B0: 80 01 80 16 80 03 80 9F  17 80 AE F0 01 01 AE F0  ................
01C0: 01 01 73 74 72 30 03 80  5B 18 80 F8 FF FF 7F F8  ..str0..[.......
01D0: FF FF 7F 68 62 61 30 5B  19 80 AE F0 01 01 AE F0  ...hba0[........
01E0: 01 01 00 FE FE FE 53 F8  FF FF 7F F8 FF FF 7F 68  ......S........h
01F0: 62 61 30 00                                       ba0.            
```

## Opcodes

```
  0: 0x0198 [0x9F] LOAD_SCHEDULED_TASK_ALT: Load scheduler "sesp" with entities [Bahamut (ID: 16904357/0x0101F0A5), Bahamut (ID: 16904357/0x0101F0A5)], work=[106*, 0*]
  1: 0x01A9 [0x80] LOAD_WAIT(entity=EventEntity)
  2: 0x01AE [0x37] UPDATE_EVENT_POSITION_AND_DIR: x=605.000*, z=600.000*, y=73.000*, direction=0.0°*
  3: 0x01B7 [0x9F] LOAD_SCHEDULED_TASK_ALT: Load scheduler "str0" with entities [Bahamut (ID: 16904366/0x0101F0AE), Bahamut (ID: 16904366/0x0101F0AE)], work=[109*, 0*]
  4: 0x01C8 [0x5B] LOAD_EXT_SCHEDULER: Load scheduler "hba0" with entities [EventEntity, EventEntity], work=502*
  5: 0x01D7 [0x5B] LOAD_EXT_SCHEDULER: Load scheduler 0xFEFEFE00 with entities [Bahamut (ID: 16904366/0x0101F0AE), Bahamut (ID: 16904366/0x0101F0AE)], work=677*
  6: 0x01E6 [0x53] WAIT_SCHEDULER_TASK: Wait for scheduler "hba0" with entities [EventEntity, EventEntity]
  7: 0x01F3 [0x00] END_REQSTACK()
```
