# Event 10017

## Metadata

| Field           | Value    |
|-----------------|----------|
| Event Index     | 3/9      |
| Offset          | 0x004D   |
| Data Size       | 35 bytes |
| Calculated Size | 35 bytes |
| Instructions    | 9        |

```
      00 01 02 03 04 05 06 07  08 09 0A 0B 0C 0D 0E 0F
      -- -- -- -- -- -- -- --  -- -- -- -- -- -- -- --
0040:                                         03 09 10               ...
0050: 00 80 1E F0 FF FF 7F 1D  08 80 23 5B 02 80 F8 FF  ..........#[....
0060: FF 7F F8 FF FF 7F 74 6C  6B 31 1D 07 80 23 21 00  ......tlk1...#!.
```

## Opcodes

```
  0: 0x004D [0x03] Work_Zone[9] = 178*
  1: 0x0052 [0x1E] EventEntity looks at LocalPlayer and starts talking
  2: 0x0057 [0x1D] PRINT_EVENT_MESSAGE(message_id=7923*)
    → "Look, you bring me \u0001\u00056\u0002\u0007\u0000\u0000, and I'll give you somethin' pretty to wear. Capiche?\u007F1\u0000\u0007"
  3: 0x005A [0x23] WAIT_FOR_DIALOG_INTERACTION
  4: 0x005B [0x5B] LOAD_EXT_SCHEDULER: Load scheduler "tlk1" with entities [EventEntity, EventEntity], work=215*
  5: 0x006A [0x1D] PRINT_EVENT_MESSAGE(message_id=7924*)
    → "This week my Gobbie bros say that you can find \u0001\u00056\u0002\u0007\u0000\u0000 for \u000C\u0001[nobody/Hume guys/Hume gals/Elvaan guys/Elvaan gals/Tarutaru guys/Tarutaru gals/Mithra/Galka] in a treasure chest in \u000C\u0000[Ordelle's Caves/Gusgen Mines/the Maze of Shakhrami].\u007F1\u0000\u0007"
  6: 0x006D [0x23] WAIT_FOR_DIALOG_INTERACTION
  7: 0x006E [0x21] END_EVENT
  8: 0x006F [0x00] END_REQSTACK()
```
