# Event 65535

## Metadata

| Field           | Value    |
|-----------------|----------|
| Event Index     | 5/8      |
| Offset          | 0x0051   |
| Data Size       | 70 bytes |
| Calculated Size | 70 bytes |
| Instructions    | 6        |

```
      00 01 02 03 04 05 06 07  08 09 0A 0B 0C 0D 0E 0F
      -- -- -- -- -- -- -- --  -- -- -- -- -- -- -- --
0050:    45 03 80 F0 FF FF 7F  F0 FF FF 7F 34 30 34 35   E..........4045
0060: 01 80 1C 02 80 45 03 80  F0 FF FF 7F F0 FF FF 7F  .....E..........
0070: 6D 61 30 39 01 80 55 03  80 F0 FF FF 7F F0 FF FF  ma09..U.........
0080: 7F 6D 61 30 39 45 03 80  F0 FF FF 7F F0 FF FF 7F  .ma09E..........
0090: 6D 61 31 30 01 80 00                              ma10...         
```

## Opcodes

```
  0: 0x0051 [0x45] LOAD_SCHEDULED_TASK(work_offset1=256*, entity1=LocalPlayer, entity2=LocalPlayer, scheduler_id="4045", work_offset2=0*)
  1: 0x0062 [0x1C] WAIT(30* ticks)
  2: 0x0065 [0x45] LOAD_SCHEDULED_TASK(work_offset1=256*, entity1=LocalPlayer, entity2=LocalPlayer, scheduler_id="ma09", work_offset2=0*)
  3: 0x0076 [0x55] WAIT_LOAD_SCHEDULER(work_offset=256*, entity1=LocalPlayer, entity2=LocalPlayer, scheduler_id="ma09")
  4: 0x0085 [0x45] LOAD_SCHEDULED_TASK(work_offset1=256*, entity1=LocalPlayer, entity2=LocalPlayer, scheduler_id="ma10", work_offset2=0*)
  5: 0x0096 [0x00] END_REQSTACK()
```
