# Event 65535

## Metadata

| Field           | Value    |
|-----------------|----------|
| Event Index     | 6/12     |
| Offset          | 0x0106   |
| Data Size       | 68 bytes |
| Calculated Size | 68 bytes |
| Instructions    | 12       |

```
      00 01 02 03 04 05 06 07  08 09 0A 0B 0C 0D 0E 0F
      -- -- -- -- -- -- -- --  -- -- -- -- -- -- -- --
0100:                   32 21  80 1F 00 22 80 23 80 20        2!...".#. 
0110: 80 1F 01 6F 1E 3D 60 0E  01 6F 76 F8 FF FF 7F 4A  ...o.=`..ov....J
0120: 3D 60 0E 01 F8 FF FF 7F  5B 24 80 F8 FF FF 7F F8  =`......[$......
0130: FF FF 7F 74 6C 6B 30 1C  25 80 5B 24 80 3D 60 0E  ...tlk0.%.[$.=`.
0140: 01 3D 60 0E 01 74 68 6B  30 00                    .=`..thk0.      
```

## Opcodes

```
  0: 0x0106 [0x32] ExtData[1]->MainSpeed = 19* * 0.1
  1: 0x0109 [0x1F] MOVE_ENTITY: EventEntity moves to X=32.710*, Z=-32.052*, Y=1.999*
  2: 0x0111 [0x1F] MOVE_ENTITY: Update entity position (mode=1)
  3: 0x0113 [0x6F] WAIT_FRAME_DELAY: Yield until WaitTime reaches zero
  4: 0x0114 [0x1E] EventEntity looks at Authere (ID: 17719357/0x010E603D) and starts talking
  5: 0x0119 [0x6F] WAIT_FRAME_DELAY: Yield until WaitTime reaches zero
  6: 0x011A [0x76] CHECK_ENTITY_RENDER_FLAGS: Wait until EventEntity Render.Flags0 and Render.Flags3 conditions are met
  7: 0x011F [0x4A] Authere (ID: 17719357/0x010E603D) looks at EventEntity
  8: 0x0128 [0x5B] LOAD_EXT_SCHEDULER: Load scheduler "tlk0" with entities [EventEntity, EventEntity], work=75*
  9: 0x0137 [0x1C] WAIT(30* ticks)
 10: 0x013A [0x5B] LOAD_EXT_SCHEDULER: Load scheduler "thk0" with entities [Authere (ID: 17719357/0x010E603D), Authere (ID: 17719357/0x010E603D)], work=75*
 11: 0x0149 [0x00] END_REQSTACK()
```
