# Event 5

## Metadata

| Field           | Value    |
|-----------------|----------|
| Event Index     | 8/16     |
| Offset          | 0x00ED   |
| Data Size       | 94 bytes |
| Calculated Size | 94 bytes |
| Instructions    | 13       |

```
      00 01 02 03 04 05 06 07  08 09 0A 0B 0C 0D 0E 0F
      -- -- -- -- -- -- -- --  -- -- -- -- -- -- -- --
00E0:                                         20 01 42                .B
00F0: 62 01 80 F0 FF FF 7F F0  FF FF 7F 6D 61 69 6E 02  b..........main.
0100: 80 1C 03 80 45 04 80 F0  FF FF 7F F0 FF FF 7F 66  ....E..........f
0110: 64 6F 31 02 80 1C 05 80  47 00 18 80 19 80 1A 80  do1.....G.......
0120: 1B 80 47 01 45 04 80 F0  FF FF 7F F0 FF FF 7F 66  ..G.E..........f
0130: 64 69 31 02 80 62 1C 80  F0 FF FF 7F F0 FF FF 7F  di1..b..........
0140: 6D 61 69 6E 02 80 1C 1D  80 21 00                 main.....!.     
```

## Opcodes

```
  0: 0x00ED [0x20] SET_CLI_EVENT_UC_FLAG: Lock player control
  1: 0x00EF [0x42] SET_CLI_EVENT_CANCEL_DATA()
  2: 0x00F0 [0x62] LOAD_EVENT_SCHEDULER (arg=5012): Load scheduler "main" with entities [LocalPlayer, LocalPlayer], work=[1*, 0*]
  3: 0x0101 [0x1C] WAIT(140* ticks)
  4: 0x0104 [0x45] LOAD_SCHEDULED_TASK(work_offset1=200*, entity1=LocalPlayer, entity2=LocalPlayer, scheduler_id="fdo1", work_offset2=0*)
  5: 0x0115 [0x1C] WAIT(60* ticks)
  6: 0x0118 [0x47] UPDATE_PLAYER_POS(-311.436*, 22.886*, -116.139*, yaw=118.5°*)
  7: 0x0122 [0x47] WAIT_PLAYER_POS_UPDATE
  8: 0x0124 [0x45] LOAD_SCHEDULED_TASK(work_offset1=200*, entity1=LocalPlayer, entity2=LocalPlayer, scheduler_id="fdi1", work_offset2=0*)
  9: 0x0135 [0x62] LOAD_EVENT_SCHEDULER (arg=5012): Load scheduler "main" with entities [LocalPlayer, LocalPlayer], work=[2*, 0*]
 10: 0x0146 [0x1C] WAIT(170* ticks)
 11: 0x0149 [0x21] END_EVENT
 12: 0x014A [0x00] END_REQSTACK()
```
