# Event 65535

## Metadata

| Field           | Value    |
|-----------------|----------|
| Event Index     | 5/5      |
| Offset          | 0x004C   |
| Data Size       | 59 bytes |
| Calculated Size | 59 bytes |
| Instructions    | 14       |

```
      00 01 02 03 04 05 06 07  08 09 0A 0B 0C 0D 0E 0F
      -- -- -- -- -- -- -- --  -- -- -- -- -- -- -- --
0040:                                      1C 11 80 32              ...2
0050: 05 80 1F 00 12 80 13 80  02 80 1F 01 1F 00 14 80  ................
0060: 15 80 16 80 1F 01 1F 00  17 80 18 80 0F 80 1F 01  ................
0070: 1F 00 19 80 1A 80 0F 80  1F 01 1F 00 1B 80 1C 80  ................
0080: 0F 80 1F 01 22 01 00                              ...."..         
```

## Opcodes

```
  0: 0x004C [0x1C] WAIT(30* ticks)
  1: 0x004F [0x32] ExtData[1]->MainSpeed = 40* * 0.1
  2: 0x0052 [0x1F] MOVE_ENTITY: EventEntity moves to X=-61.480*, Z=11.609*, Y=1.000*
  3: 0x005A [0x1F] MOVE_ENTITY: Update entity position (mode=1)
  4: 0x005C [0x1F] MOVE_ENTITY: EventEntity moves to X=-51.365*, Z=25.597*, Y=0.999*
  5: 0x0064 [0x1F] MOVE_ENTITY: Update entity position (mode=1)
  6: 0x0066 [0x1F] MOVE_ENTITY: EventEntity moves to X=-30.622*, Z=38.590*, Y=0.000*
  7: 0x006E [0x1F] MOVE_ENTITY: Update entity position (mode=1)
  8: 0x0070 [0x1F] MOVE_ENTITY: EventEntity moves to X=-23.303*, Z=36.985*, Y=0.000*
  9: 0x0078 [0x1F] MOVE_ENTITY: Update entity position (mode=1)
 10: 0x007A [0x1F] MOVE_ENTITY: EventEntity moves to X=-14.938*, Z=24.251*, Y=0.000*
 11: 0x0082 [0x1F] MOVE_ENTITY: Update entity position (mode=1)
 12: 0x0084 [0x22] ENTITY_HIDE_FLAG(enabled=0x01)
 13: 0x0086 [0x00] END_REQSTACK()
```
