# Event 65535

## Metadata

| Field           | Value    |
|-----------------|----------|
| Event Index     | 51/52    |
| Offset          | 0x0519   |
| Data Size       | 58 bytes |
| Calculated Size | 58 bytes |
| Instructions    | 12       |

```
      00 01 02 03 04 05 06 07  08 09 0A 0B 0C 0D 0E 0F
      -- -- -- -- -- -- -- --  -- -- -- -- -- -- -- --
0510:                             5B 00 80 F8 FF FF 7F           [......
0520: F8 FF FF 7F 61 77 77 30  1C 55 80 5B 00 80 F8 FF  ....aww0.U.[....
0530: FF 7F F8 FF FF 7F 61 77  77 31 1C 02 80 39 09 80  ......aww1...9..
0540: 6F 70 1C 21 80 32 28 80  1F 00 51 80 52 80 09 80  op.!.2(...Q.R...
0550: 1F 01 00                                          ...             
```

## Opcodes

```
  0: 0x0519 [0x5B] LOAD_EXT_SCHEDULER(work_offset=80*, entity1=EventEntity, entity2=EventEntity, action="aww0")
  1: 0x0528 [0x1C] WAIT(240* ticks)
  2: 0x052B [0x5B] LOAD_EXT_SCHEDULER(work_offset=80*, entity1=EventEntity, entity2=EventEntity, action="aww1")
  3: 0x053A [0x1C] WAIT(60* ticks)
  4: 0x053D [0x39] SET_ENTITY_DIRECTION(direction=0.0°*)
  5: 0x0540 [0x6F] WAIT_FRAME_DELAY: Yield until WaitTime reaches zero
  6: 0x0541 [0x70] WAIT_ENTITY_RENDER_FLAG: Wait while EventEntity->Render.Flags3 bit 2 is set (cancel turn if not)
  7: 0x0542 [0x1C] WAIT(10* ticks)
  8: 0x0545 [0x32] ExtData[1]->MainSpeed = 40* * 0.1
  9: 0x0548 [0x1F] MOVE_ENTITY: EventEntity moves to X=-64.500*, Z=-3.500*, Y=0.000*
 10: 0x0550 [0x1F] MOVE_ENTITY: Update entity position (mode=1)
 11: 0x0552 [0x00] END_REQSTACK()
```
