# Event 65535

## Metadata

| Field           | Value    |
|-----------------|----------|
| Event Index     | 35/52    |
| Offset          | 0x0307   |
| Data Size       | 45 bytes |
| Calculated Size | 45 bytes |
| Instructions    | 12       |

```
      00 01 02 03 04 05 06 07  08 09 0A 0B 0C 0D 0E 0F
      -- -- -- -- -- -- -- --  -- -- -- -- -- -- -- --
0300:                      32  06 80 1F 00 2B 80 2C 80         2....+.,.
0310: 09 80 1F 01 1C 03 80 39  2D 80 1C 2E 80 1F 00 2F  .......9-....../
0320: 80 30 80 09 80 1F 01 1C  03 80 39 31 80 1C 2E 80  .0........91....
0330: 01 07 03 00                                       ....            
```

## Opcodes

```
  0: 0x0307 [0x32] ExtData[1]->MainSpeed = 13* * 0.1
  1: 0x030A [0x1F] MOVE_ENTITY: EventEntity moves to X=-96.584*, Z=-8.519*, Y=0.000*
  2: 0x0312 [0x1F] MOVE_ENTITY: Update entity position (mode=1)
  3: 0x0314 [0x1C] WAIT(30* ticks)
  4: 0x0317 [0x39] SET_ENTITY_DIRECTION(direction=19.7°*)
  5: 0x031A [0x1C] WAIT(360* ticks)
  6: 0x031D [0x1F] MOVE_ENTITY: EventEntity moves to X=-96.241*, Z=8.872*, Y=0.000*
  7: 0x0325 [0x1F] MOVE_ENTITY: Update entity position (mode=1)
  8: 0x0327 [0x1C] WAIT(30* ticks)
  9: 0x032A [0x39] SET_ENTITY_DIRECTION(direction=2.8°*)
 10: 0x032D [0x1C] WAIT(360* ticks)
 11: 0x0330 [0x01] GOTO 0x0307
```

## Data or dead code:

```
# Dead code (unreachable instructions):
     0x0333 [0x00] END_REQSTACK()
```