# Event 953

## Metadata

| Field           | Value    |
|-----------------|----------|
| Event Index     | 4/9      |
| Offset          | 0x000B   |
| Data Size       | 79 bytes |
| Calculated Size | 79 bytes |
| Instructions    | 10       |

```
      00 01 02 03 04 05 06 07  08 09 0A 0B 0C 0D 0E 0F
      -- -- -- -- -- -- -- --  -- -- -- -- -- -- -- --
0000:                                   45 00 80 F8 FF             E....
0010: FF 7F F8 FF FF 7F 66 64  6F 31 01 80 55 00 80 F8  ......fdo1..U...
0020: FF FF 7F F8 FF FF 7F 66  64 6F 31 46 01 38 02 80  .......fdo1F.8..
0030: 1C 03 80 45 00 80 F8 FF  FF 7F F8 FF FF 7F 66 64  ...E..........fd
0040: 6F 31 01 80 55 00 80 F8  FF FF 7F F8 FF FF 7F 66  o1..U..........f
0050: 64 6F 31 5D 01 80 04 80  21 00                    do1]....!.      
```

## Opcodes

```
  0: 0x000B [0x45] LOAD_SCHEDULED_TASK: Load scheduler "fdo1" with entities [EventEntity, EventEntity], work=[200*, 0*]
  1: 0x001C [0x55] WAIT_LOAD_SCHEDULER: Wait for scheduler "fdo1" with entities [EventEntity, EventEntity], work=200*
  2: 0x002B [0x46] CAMERA_CONTROL: Disable user control
  3: 0x002D [0x38] SET_CLIENT_EVENT_MODE(mode=19*)
  4: 0x0030 [0x1C] WAIT(30* ticks)
  5: 0x0033 [0x45] LOAD_SCHEDULED_TASK: Load scheduler "fdo1" with entities [EventEntity, EventEntity], work=[200*, 0*]
  6: 0x0044 [0x55] WAIT_LOAD_SCHEDULER: Wait for scheduler "fdo1" with entities [EventEntity, EventEntity], work=200*
  7: 0x0053 [0x5D] SET_MUSIC_VOLUME(volume=0*, fade_time=120*)
  8: 0x0058 [0x21] END_EVENT
  9: 0x0059 [0x00] END_REQSTACK()
```
