# Event 202

## Metadata

| Field           | Value    |
|-----------------|----------|
| Event Index     | 12/255   |
| Offset          | 0x0274   |
| Data Size       | 90 bytes |
| Calculated Size | 90 bytes |
| Instructions    | 14       |

```
      00 01 02 03 04 05 06 07  08 09 0A 0B 0C 0D 0E 0F
      -- -- -- -- -- -- -- --  -- -- -- -- -- -- -- --
0270:             20 01 42 45  0F 80 F0 FF FF 7F F0 FF       .BE........
0280: FF 7F 66 64 6F 30 06 80  46 01 55 0F 80 F0 FF FF  ..fdo0..F.U.....
0290: 7F F0 FF FF 7F 66 64 6F  30 22 01 47 00 10 80 11  .....fdo0".G....
02A0: 80 12 80 13 80 47 01 38  14 80 46 00 45 0F 80 F0  .....G.8..F.E...
02B0: FF FF 7F F0 FF FF 7F 66  64 69 30 06 80 55 0F 80  .......fdi0..U..
02C0: F0 FF FF 7F F0 FF FF 7F  66 64 69 30 21 00        ........fdi0!.  
```

## Opcodes

```
  0: 0x0274 [0x20] SET_CLI_EVENT_UC_FLAG: Lock player control
  1: 0x0276 [0x42] SET_CLI_EVENT_CANCEL_DATA()
  2: 0x0277 [0x45] LOAD_SCHEDULED_TASK(work_offset1=200*, entity1=LocalPlayer, entity2=LocalPlayer, scheduler_id="fdo0", work_offset2=0*)
  3: 0x0288 [0x46] CAMERA_CONTROL: Disable user control
  4: 0x028A [0x55] WAIT_LOAD_SCHEDULER(work_offset=200*, entity1=LocalPlayer, entity2=LocalPlayer, scheduler_id="fdo0")
  5: 0x0299 [0x22] ENTITY_HIDE_FLAG(enabled=0x01)
  6: 0x029B [0x47] UPDATE_PLAYER_POS(-11.692*, -142.151*, 1.999*, yaw=112.5°*)
  7: 0x02A5 [0x47] WAIT_PLAYER_POS_UPDATE
  8: 0x02A7 [0x38] SET_CLIENT_EVENT_MODE(mode=259*)
  9: 0x02AA [0x46] CAMERA_CONTROL: Restore default settings
 10: 0x02AC [0x45] LOAD_SCHEDULED_TASK(work_offset1=200*, entity1=LocalPlayer, entity2=LocalPlayer, scheduler_id="fdi0", work_offset2=0*)
 11: 0x02BD [0x55] WAIT_LOAD_SCHEDULER(work_offset=200*, entity1=LocalPlayer, entity2=LocalPlayer, scheduler_id="fdi0")
 12: 0x02CC [0x21] END_EVENT
 13: 0x02CD [0x00] END_REQSTACK()
```
