# Event 65535

## Metadata

| Field           | Value    |
|-----------------|----------|
| Event Index     | 95/255   |
| Offset          | 0x0A45   |
| Data Size       | 26 bytes |
| Calculated Size | 26 bytes |
| Instructions    | 10       |

```
      00 01 02 03 04 05 06 07  08 09 0A 0B 0C 0D 0E 0F
      -- -- -- -- -- -- -- --  -- -- -- -- -- -- -- --
0A40:                32 97 80  61 00 1F 00 6C 80 6D 80       2..a...l.m.
0A50: 67 80 1F 01 6F 1E 8C 20  03 01 6F 70 61 01 00     g...o.. ..opa.. 
```

## Opcodes

```
  0: 0x0A45 [0x32] ExtData[1]->MainSpeed = 40* * 0.1
  1: 0x0A48 [0x61] EventEntity->Render.Flags2 &= ~0x00000001
  2: 0x0A4A [0x1F] MOVE_ENTITY: EventEntity moves to X=25.591*, Z=-45.658*, Y=-7.804*
  3: 0x0A52 [0x1F] MOVE_ENTITY: Update entity position (mode=1)
  4: 0x0A54 [0x6F] WAIT_FRAME_DELAY: Yield until WaitTime reaches zero
  5: 0x0A55 [0x1E] EventEntity looks at Naja Salaheem (ID: 16982156/0x0103208C) and starts talking
  6: 0x0A5A [0x6F] WAIT_FRAME_DELAY: Yield until WaitTime reaches zero
  7: 0x0A5B [0x70] WAIT_ENTITY_RENDER_FLAG: Wait while EventEntity->Render.Flags3 bit 2 is set (cancel turn if not)
  8: 0x0A5C [0x61] EventEntity->Render.Flags2 |= 0x00000001
  9: 0x0A5E [0x00] END_REQSTACK()
```
