# Event 79

## Metadata

| Field           | Value    |
|-----------------|----------|
| Event Index     | 241/255  |
| Offset          | 0x40A1   |
| Data Size       | 38 bytes |
| Calculated Size | 38 bytes |
| Instructions    | 11       |

```
      00 01 02 03 04 05 06 07  08 09 0A 0B 0C 0D 0E 0F
      -- -- -- -- -- -- -- --  -- -- -- -- -- -- -- --
40A0:    24 01 83 26 80 06 80  25 02 00 10 06 80 00 C5   $..&...%.......
40B0: 40 03 01 10 06 80 43 00  43 01 03 01 10 26 80 1A  @.....C.C....&..
40C0: EB 40 01 C5 40 21 00                              .@..@!.         
```

## Opcodes

```
  0: 0x40A1 [0x24] CREATE_DIALOG(message_id=9737*, default_option=1*, option_flags=0*)
    → "Leave the hostel?\u0007\u000BYes.\u0007Not yet.\u007F1\u0000\u0007"
  1: 0x40A8 [0x25] WAIT_DIALOG_SELECT()
  2: 0x40A9 [0x02] IF !(Work_Zone[0] == 0*) GOTO 0x40C5
  3: 0x40B1 [0x03] Work_Zone[1] = 0*
  4: 0x40B6 [0x43] SEND_EVENT_UPDATE: Send pending tag to server (packet 0x005B)
  5: 0x40B8 [0x43] SEND_EVENT_UPDATE: Check pending flag (skip if not pending)
  6: 0x40BA [0x03] Work_Zone[1] = 1*
  7: 0x40BF [0x1A] CALL_SUBROUTINE(address=0x40EB)
  8: 0x40C2 [0x01] GOTO 0x40C5

SUBROUTINE_40C5:
  9: 0x40C5 [0x21] END_EVENT
 10: 0x40C6 [0x00] END_REQSTACK()
```
