# Event 146

## Metadata

| Field           | Value    |
|-----------------|----------|
| Event Index     | 9/10     |
| Offset          | 0x01E3   |
| Data Size       | 39 bytes |
| Calculated Size | 39 bytes |
| Instructions    | 14       |

```
      00 01 02 03 04 05 06 07  08 09 0A 0B 0C 0D 0E 0F
      -- -- -- -- -- -- -- --  -- -- -- -- -- -- -- --
01E0:          20 01 42 43 00  43 01 1E F0 FF FF 7F 6F      .BC.C......o
01F0: 70 6E A7 41 03 01 0B 80  99 A7 41 03 01 03 02 10  pn.A......A.....
0200: 1E 80 1D 1F 80 1C 13 80  21 00                    ........!.      
```

## Opcodes

```
  0: 0x01E3 [0x20] SET_CLI_EVENT_UC_FLAG: Lock player control
  1: 0x01E5 [0x42] SET_CLI_EVENT_CANCEL_DATA()
  2: 0x01E6 [0x43] SEND_EVENT_UPDATE: Send pending tag to server (packet 0x005B)
  3: 0x01E8 [0x43] SEND_EVENT_UPDATE: Check pending flag (skip if not pending)
  4: 0x01EA [0x1E] EventEntity looks at LocalPlayer and starts talking
  5: 0x01EF [0x6F] WAIT_FRAME_DELAY: Yield until WaitTime reaches zero
  6: 0x01F0 [0x70] WAIT_ENTITY_RENDER_FLAG: Wait while EventEntity->Render.Flags3 bit 2 is set (cancel turn if not)
  7: 0x01F1 [0x6E] Kamih Mapokhalam (ID: 16990631/0x010341A7) uses emote 0*
  8: 0x01F8 [0x99] Wait for Kamih Mapokhalam (ID: 16990631/0x010341A7) animation to complete
  9: 0x01FD [0x03] Work_Zone[2] = 1865*
 10: 0x0202 [0x1D] PRINT_EVENT_MESSAGE(message_id=7355*)
    → "Here is your \u0001\u00053\u0002\u0000\u0000\u0000.\u0007Keep it in a safe place.\u0000\u0007"
 11: 0x0205 [0x1C] WAIT(180* ticks)
 12: 0x0208 [0x21] END_EVENT
 13: 0x0209 [0x00] END_REQSTACK()
```
