# Event 65535

## Metadata

| Field           | Value    |
|-----------------|----------|
| Event Index     | 46/59    |
| Offset          | 0x040E   |
| Data Size       | 54 bytes |
| Calculated Size | 54 bytes |
| Instructions    | 12       |

```
      00 01 02 03 04 05 06 07  08 09 0A 0B 0C 0D 0E 0F
      -- -- -- -- -- -- -- --  -- -- -- -- -- -- -- --
0400:                                            32 2C                2,
0410: 80 1F 00 91 80 92 80 93  80 1F 01 1F 00 94 80 95  ................
0420: 80 96 80 1F 01 1F 00 97  80 98 80 99 80 1F 01 1F  ................
0430: 00 9A 80 9B 80 9C 80 1F  01 1F 00 8D 80 8E 80 8F  ................
0440: 80 1F 01 00                                       ....            
```

## Opcodes

```
  0: 0x040E [0x32] ExtData[1]->MainSpeed = 10* * 0.1
  1: 0x0411 [0x1F] MOVE_ENTITY: EventEntity moves to X=-601.910*, Z=587.743*, Y=0.274*
  2: 0x0419 [0x1F] MOVE_ENTITY: Update entity position (mode=1)
  3: 0x041B [0x1F] MOVE_ENTITY: EventEntity moves to X=-600.199*, Z=588.994*, Y=0.347*
  4: 0x0423 [0x1F] MOVE_ENTITY: Update entity position (mode=1)
  5: 0x0425 [0x1F] MOVE_ENTITY: EventEntity moves to X=-599.211*, Z=586.089*, Y=0.586*
  6: 0x042D [0x1F] MOVE_ENTITY: Update entity position (mode=1)
  7: 0x042F [0x1F] MOVE_ENTITY: EventEntity moves to X=-599.391*, Z=583.375*, Y=0.830*
  8: 0x0437 [0x1F] MOVE_ENTITY: Update entity position (mode=1)
  9: 0x0439 [0x1F] MOVE_ENTITY: EventEntity moves to X=-600.128*, Z=585.578*, Y=0.628*
 10: 0x0441 [0x1F] MOVE_ENTITY: Update entity position (mode=1)
 11: 0x0443 [0x00] END_REQSTACK()
```
