# Event 65535

## Metadata

| Field           | Value    |
|-----------------|----------|
| Event Index     | 56/59    |
| Offset          | 0x05D4   |
| Data Size       | 51 bytes |
| Calculated Size | 51 bytes |
| Instructions    | 11       |

```
      00 01 02 03 04 05 06 07  08 09 0A 0B 0C 0D 0E 0F
      -- -- -- -- -- -- -- --  -- -- -- -- -- -- -- --
05D0:             32 05 80 1F  00 C0 80 C1 80 05 80 1F      2...........
05E0: 01 1F 00 C2 80 C3 80 C4  80 1F 01 1F 00 C5 80 C6  ................
05F0: 80 C7 80 1F 01 1E 91 A0  0E 01 1C 9D 80 4A 91 A0  .............J..
0600: 0E 01 92 A0 0E 01 00                              .......         
```

## Opcodes

```
  0: 0x05D4 [0x32] ExtData[1]->MainSpeed = 57* * 0.1
  1: 0x05D7 [0x1F] MOVE_ENTITY: EventEntity moves to X=-604.257*, Z=586.573*, Y=0.057*
  2: 0x05DF [0x1F] MOVE_ENTITY: Update entity position (mode=1)
  3: 0x05E1 [0x1F] MOVE_ENTITY: EventEntity moves to X=-603.318*, Z=588.527*, Y=0.196*
  4: 0x05E9 [0x1F] MOVE_ENTITY: Update entity position (mode=1)
  5: 0x05EB [0x1F] MOVE_ENTITY: EventEntity moves to X=-601.495*, Z=586.040*, Y=0.496*
  6: 0x05F3 [0x1F] MOVE_ENTITY: Update entity position (mode=1)
  7: 0x05F5 [0x1E] EventEntity looks at Unnamed NPC (ID: 17735825/0x010EA091) and starts talking
  8: 0x05FA [0x1C] WAIT(30* ticks)
  9: 0x05FD [0x4A] Unnamed NPC (ID: 17735825/0x010EA091) looks at Unnamed NPC (ID: 17735826/0x010EA092)
 10: 0x0606 [0x00] END_REQSTACK()
```
