# Event 65535

## Metadata

| Field           | Value    |
|-----------------|----------|
| Event Index     | 51/59    |
| Offset          | 0x0510   |
| Data Size       | 50 bytes |
| Calculated Size | 50 bytes |
| Instructions    | 12       |

```
      00 01 02 03 04 05 06 07  08 09 0A 0B 0C 0D 0E 0F
      -- -- -- -- -- -- -- --  -- -- -- -- -- -- -- --
0510: 32 36 80 1F 00 AD 80 AE  80 AF 80 1F 01 1C 89 80  26..............
0520: 1F 00 A9 80 AA 80 AB 80  1F 01 1C 89 80 1F 00 8D  ................
0530: 80 8E 80 8F 80 1F 01 4B  92 A0 0E 01 AC 80 1C 89  .......K........
0540: 80 00                                             ..              
```

## Opcodes

```
  0: 0x0510 [0x32] ExtData[1]->MainSpeed = 19* * 0.1
  1: 0x0513 [0x1F] MOVE_ENTITY: EventEntity moves to X=-599.892*, Z=588.477*, Y=0.373*
  2: 0x051B [0x1F] MOVE_ENTITY: Update entity position (mode=1)
  3: 0x051D [0x1C] WAIT(60* ticks)
  4: 0x0520 [0x1F] MOVE_ENTITY: EventEntity moves to X=-602.144*, Z=586.825*, Y=0.376*
  5: 0x0528 [0x1F] MOVE_ENTITY: Update entity position (mode=1)
  6: 0x052A [0x1C] WAIT(60* ticks)
  7: 0x052D [0x1F] MOVE_ENTITY: EventEntity moves to X=-600.128*, Z=585.578*, Y=0.628*
  8: 0x0535 [0x1F] MOVE_ENTITY: Update entity position (mode=1)
  9: 0x0537 [0x4B] UPDATE_ENTITY_YAW(entity=Unnamed NPC (ID: 17735826/0x010EA092), yaw=11.79°*)
 10: 0x053E [0x1C] WAIT(60* ticks)
 11: 0x0541 [0x00] END_REQSTACK()
```
