# Event 65535

## Metadata

| Field           | Value    |
|-----------------|----------|
| Event Index     | 47/59    |
| Offset          | 0x0444   |
| Data Size       | 66 bytes |
| Calculated Size | 66 bytes |
| Instructions    | 16       |

```
      00 01 02 03 04 05 06 07  08 09 0A 0B 0C 0D 0E 0F
      -- -- -- -- -- -- -- --  -- -- -- -- -- -- -- --
0440:             32 36 80 1F  00 91 80 92 80 93 80 1F      26..........
0450: 01 1C 9D 80 1F 00 94 80  95 80 96 80 1F 01 1C 9D  ................
0460: 80 1F 00 97 80 98 80 99  80 1F 01 1C 9D 80 1F 00  ................
0470: 9A 80 9B 80 9C 80 1F 01  1C 9D 80 1F 00 8D 80 8E  ................
0480: 80 8F 80 1F 01 00                                 ......          
```

## Opcodes

```
  0: 0x0444 [0x32] ExtData[1]->MainSpeed = 19* * 0.1
  1: 0x0447 [0x1F] MOVE_ENTITY: EventEntity moves to X=-601.910*, Z=587.743*, Y=0.274*
  2: 0x044F [0x1F] MOVE_ENTITY: Update entity position (mode=1)
  3: 0x0451 [0x1C] WAIT(30* ticks)
  4: 0x0454 [0x1F] MOVE_ENTITY: EventEntity moves to X=-600.199*, Z=588.994*, Y=0.347*
  5: 0x045C [0x1F] MOVE_ENTITY: Update entity position (mode=1)
  6: 0x045E [0x1C] WAIT(30* ticks)
  7: 0x0461 [0x1F] MOVE_ENTITY: EventEntity moves to X=-599.211*, Z=586.089*, Y=0.586*
  8: 0x0469 [0x1F] MOVE_ENTITY: Update entity position (mode=1)
  9: 0x046B [0x1C] WAIT(30* ticks)
 10: 0x046E [0x1F] MOVE_ENTITY: EventEntity moves to X=-599.391*, Z=583.375*, Y=0.830*
 11: 0x0476 [0x1F] MOVE_ENTITY: Update entity position (mode=1)
 12: 0x0478 [0x1C] WAIT(30* ticks)
 13: 0x047B [0x1F] MOVE_ENTITY: EventEntity moves to X=-600.128*, Z=585.578*, Y=0.628*
 14: 0x0483 [0x1F] MOVE_ENTITY: Update entity position (mode=1)
 15: 0x0485 [0x00] END_REQSTACK()
```
