# Event 65535

## Metadata

| Field           | Value    |
|-----------------|----------|
| Event Index     | 52/59    |
| Offset          | 0x0542   |
| Data Size       | 67 bytes |
| Calculated Size | 67 bytes |
| Instructions    | 15       |

```
      00 01 02 03 04 05 06 07  08 09 0A 0B 0C 0D 0E 0F
      -- -- -- -- -- -- -- --  -- -- -- -- -- -- -- --
0540:       32 05 80 1F 00 B0  80 B1 80 B2 80 1F 01 4B    2............K
0550: 92 A0 0E 01 B3 80 1C 89  80 1F 00 B4 80 B5 80 B6  ................
0560: 80 1F 01 4B 92 A0 0E 01  B7 80 1C B8 80 1F 00 B9  ...K............
0570: 80 BA 80 BB 80 1F 01 1C  9D 80 4B 92 A0 0E 01 BC  ..........K.....
0580: 80 1C 89 80 00                                    .....           
```

## Opcodes

```
  0: 0x0542 [0x32] ExtData[1]->MainSpeed = 57* * 0.1
  1: 0x0545 [0x1F] MOVE_ENTITY: EventEntity moves to X=-599.295*, Z=590.678*, Y=0.264*
  2: 0x054D [0x1F] MOVE_ENTITY: Update entity position (mode=1)
  3: 0x054F [0x4B] UPDATE_ENTITY_YAW(entity=Unnamed NPC (ID: 17735826/0x010EA092), yaw=5.3°*)
  4: 0x0556 [0x1C] WAIT(60* ticks)
  5: 0x0559 [0x1F] MOVE_ENTITY: EventEntity moves to X=-604.353*, Z=586.292*, Y=0.138*
  6: 0x0561 [0x1F] MOVE_ENTITY: Update entity position (mode=1)
  7: 0x0563 [0x4B] UPDATE_ENTITY_YAW(entity=Unnamed NPC (ID: 17735826/0x010EA092), yaw=0.2°*)
  8: 0x056A [0x1C] WAIT(240* ticks)
  9: 0x056D [0x1F] MOVE_ENTITY: EventEntity moves to X=-600.328*, Z=582.410*, Y=0.802*
 10: 0x0575 [0x1F] MOVE_ENTITY: Update entity position (mode=1)
 11: 0x0577 [0x1C] WAIT(30* ticks)
 12: 0x057A [0x4B] UPDATE_ENTITY_YAW(entity=Unnamed NPC (ID: 17735826/0x010EA092), yaw=16.6°*)
 13: 0x0581 [0x1C] WAIT(60* ticks)
 14: 0x0584 [0x00] END_REQSTACK()
```
