# Event 65535

## Metadata

| Field           | Value    |
|-----------------|----------|
| Event Index     | 43/59    |
| Offset          | 0x03C9   |
| Data Size       | 48 bytes |
| Calculated Size | 48 bytes |
| Instructions    | 11       |

```
      00 01 02 03 04 05 06 07  08 09 0A 0B 0C 0D 0E 0F
      -- -- -- -- -- -- -- --  -- -- -- -- -- -- -- --
03C0:                             02 04 00 82 80 01 F8           .......
03D0: 03 32 36 80 1F 00 83 80  84 80 85 80 1F 01 1F 00  .26.............
03E0: 86 80 87 80 88 80 1F 01  1C 89 80 1F 00 8A 80 8B  ................
03F0: 80 8C 80 1F 01 01 C9 03  00                       .........       
```

## Opcodes

```
  0: 0x03C9 [0x02] IF !(ExtData[1]->WorkLocal[4] == 2*) GOTO 0x03F8
  1: 0x03D1 [0x32] ExtData[1]->MainSpeed = 19* * 0.1
  2: 0x03D4 [0x1F] MOVE_ENTITY: EventEntity moves to X=-605.972*, Z=607.697*, Y=0.004*
  3: 0x03DC [0x1F] MOVE_ENTITY: Update entity position (mode=1)
  4: 0x03DE [0x1F] MOVE_ENTITY: EventEntity moves to X=-608.286*, Z=606.788*, Y=-0.064*
  5: 0x03E6 [0x1F] MOVE_ENTITY: Update entity position (mode=1)
  6: 0x03E8 [0x1C] WAIT(60* ticks)
  7: 0x03EB [0x1F] MOVE_ENTITY: EventEntity moves to X=-606.508*, Z=607.958*, Y=-0.049*
  8: 0x03F3 [0x1F] MOVE_ENTITY: Update entity position (mode=1)
  9: 0x03F5 [0x01] GOTO 0x03C9

SUBROUTINE_03F8:
 10: 0x03F8 [0x00] END_REQSTACK()
```
