# Event 65535

## Metadata

| Field           | Value    |
|-----------------|----------|
| Event Index     | 50/59    |
| Offset          | 0x04DE   |
| Data Size       | 50 bytes |
| Calculated Size | 50 bytes |
| Instructions    | 12       |

```
      00 01 02 03 04 05 06 07  08 09 0A 0B 0C 0D 0E 0F
      -- -- -- -- -- -- -- --  -- -- -- -- -- -- -- --
04D0:                                            32 2C                2,
04E0: 80 1F 00 A6 80 A7 80 A8  80 1F 01 1C 89 80 1F 00  ................
04F0: A9 80 AA 80 AB 80 1F 01  1C 89 80 1F 00 8D 80 8E  ................
0500: 80 8F 80 1F 01 4B 92 A0  0E 01 AC 80 1C 89 80 00  .....K..........
```

## Opcodes

```
  0: 0x04DE [0x32] ExtData[1]->MainSpeed = 10* * 0.1
  1: 0x04E1 [0x1F] MOVE_ENTITY: EventEntity moves to X=-600.221*, Z=588.558*, Y=0.369*
  2: 0x04E9 [0x1F] MOVE_ENTITY: Update entity position (mode=1)
  3: 0x04EB [0x1C] WAIT(60* ticks)
  4: 0x04EE [0x1F] MOVE_ENTITY: EventEntity moves to X=-602.144*, Z=586.825*, Y=0.376*
  5: 0x04F6 [0x1F] MOVE_ENTITY: Update entity position (mode=1)
  6: 0x04F8 [0x1C] WAIT(60* ticks)
  7: 0x04FB [0x1F] MOVE_ENTITY: EventEntity moves to X=-600.128*, Z=585.578*, Y=0.628*
  8: 0x0503 [0x1F] MOVE_ENTITY: Update entity position (mode=1)
  9: 0x0505 [0x4B] UPDATE_ENTITY_YAW(entity=Unnamed NPC (ID: 17735826/0x010EA092), yaw=11.79°*)
 10: 0x050C [0x1C] WAIT(60* ticks)
 11: 0x050F [0x00] END_REQSTACK()
```
