# Event 65535

## Metadata

| Field           | Value    |
|-----------------|----------|
| Event Index     | 18/29    |
| Offset          | 0x01CC   |
| Data Size       | 66 bytes |
| Calculated Size | 66 bytes |
| Instructions    | 5        |

```
      00 01 02 03 04 05 06 07  08 09 0A 0B 0C 0D 0E 0F
      -- -- -- -- -- -- -- --  -- -- -- -- -- -- -- --
01C0:                                      5F 03 1A 80              _...
01D0: 05 33 12 01 05 33 12 01  78 78 78 78 5F 03 1B 80  .3...3..xxxx_...
01E0: 21 33 12 01 21 33 12 01  78 78 78 78 5F 03 1C 80  !3..!3..xxxx_...
01F0: 0D 33 12 01 0D 33 12 01  78 78 78 78 D0 1D 80 0D  .3...3..xxxx....
0200: 33 12 01 0D 33 12 01 78  78 78 78 00 80 00        3...3..xxxx...  
```

## Opcodes

```
  0: 0x01CC [0x5F] MULTI_HANDLER_COMPLEX(mode=0x03 - Load ext scheduler (OpCode 0x5B mode 0), ref=References[26], entity1=Unnamed NPC (ID: 17969925/0x01123305), entity2=Unnamed NPC (ID: 17969925/0x01123305), string="xxxx")
  1: 0x01DC [0x5F] MULTI_HANDLER_COMPLEX(mode=0x03 - Load ext scheduler (OpCode 0x5B mode 0), ref=References[27], entity1=Unnamed NPC (ID: 17969953/0x01123321), entity2=Unnamed NPC (ID: 17969953/0x01123321), string="xxxx")
  2: 0x01EC [0x5F] MULTI_HANDLER_COMPLEX(mode=0x03 - Load ext scheduler (OpCode 0x5B mode 0), ref=References[28], entity1=Prishe (ID: 17969933/0x0112330D), entity2=Prishe (ID: 17969933/0x0112330D), string="xxxx")
  3: 0x01FC [0xD0] LOAD_SCHEDULED_TASK_ALT5: Load scheduler "xxxx" with entities [Prishe (ID: 17969933/0x0112330D), Prishe (ID: 17969933/0x0112330D)], work=[193*, 0*]
  4: 0x020D [0x00] END_REQSTACK()
```
