# Event 65535

## Metadata

| Field           | Value    |
|-----------------|----------|
| Event Index     | 29/29    |
| Offset          | 0x03EA   |
| Data Size       | 50 bytes |
| Calculated Size | 50 bytes |
| Instructions    | 4        |

```
      00 01 02 03 04 05 06 07  08 09 0A 0B 0C 0D 0E 0F
      -- -- -- -- -- -- -- --  -- -- -- -- -- -- -- --
03E0:                                5F 03 2E 80 21 33            _...!3
03F0: 12 01 21 33 12 01 78 78  78 78 5F 03 30 80 08 33  ..!3..xxxx_.0..3
0400: 12 01 08 33 12 01 78 78  78 78 D0 31 80 08 33 12  ...3..xxxx.1..3.
0410: 01 08 33 12 01 78 78 78  78 00 80 00              ..3..xxxx...    
```

## Opcodes

```
  0: 0x03EA [0x5F] MULTI_HANDLER_COMPLEX(mode=0x03 - Load ext scheduler (OpCode 0x5B mode 0), ref=References[46], entity1=Unnamed NPC (ID: 17969953/0x01123321), entity2=Unnamed NPC (ID: 17969953/0x01123321), string="xxxx")
  1: 0x03FA [0x5F] MULTI_HANDLER_COMPLEX(mode=0x03 - Load ext scheduler (OpCode 0x5B mode 0), ref=References[48], entity1=Iroha (ID: 17969928/0x01123308), entity2=Iroha (ID: 17969928/0x01123308), string="xxxx")
  2: 0x040A [0xD0] LOAD_SCHEDULED_TASK_ALT5(work_offset=247*, entity1=Iroha (ID: 17969928/0x01123308), entity2=Iroha (ID: 17969928/0x01123308), action="xxxx", work_offset2=0*)
  3: 0x041B [0x00] END_REQSTACK()
```
