# Event 65535

## Metadata

| Field           | Value    |
|-----------------|----------|
| Event Index     | 28/29    |
| Offset          | 0x03B9   |
| Data Size       | 49 bytes |
| Calculated Size | 49 bytes |
| Instructions    | 4        |

```
      00 01 02 03 04 05 06 07  08 09 0A 0B 0C 0D 0E 0F
      -- -- -- -- -- -- -- --  -- -- -- -- -- -- -- --
03B0:                             5F 03 2C 80 20 33 12           _.,. 3.
03C0: 01 20 33 12 01 78 78 78  78 5F 03 2E 80 21 33 12  . 3..xxxx_...!3.
03D0: 01 21 33 12 01 78 78 78  78 5F 03 2F 80 08 33 12  .!3..xxxx_./..3.
03E0: 01 08 33 12 01 78 78 78  78 00                    ..3..xxxx.      
```

## Opcodes

```
  0: 0x03B9 [0x5F] MULTI_HANDLER_COMPLEX(mode=0x03 - Load ext scheduler (OpCode 0x5B mode 0), ref=3940*, entity1=Unnamed NPC (ID: 17969952/0x01123320), entity2=Unnamed NPC (ID: 17969952/0x01123320), string="xxxx")
  1: 0x03C9 [0x5F] MULTI_HANDLER_COMPLEX(mode=0x03 - Load ext scheduler (OpCode 0x5B mode 0), ref=3942*, entity1=Unnamed NPC (ID: 17969953/0x01123321), entity2=Unnamed NPC (ID: 17969953/0x01123321), string="xxxx")
  2: 0x03D9 [0x5F] MULTI_HANDLER_COMPLEX(mode=0x03 - Load ext scheduler (OpCode 0x5B mode 0), ref=3907*, entity1=Iroha (ID: 17969928/0x01123308), entity2=Iroha (ID: 17969928/0x01123308), string="xxxx")
  3: 0x03E9 [0x00] END_REQSTACK()
```
