# Event 677

## Metadata

| Field           | Value    |
|-----------------|----------|
| Event Index     | 4/5      |
| Offset          | 0x20DB   |
| Data Size       | 39 bytes |
| Calculated Size | 39 bytes |
| Instructions    | 9        |

```
      00 01 02 03 04 05 06 07  08 09 0A 0B 0C 0D 0E 0F
      -- -- -- -- -- -- -- --  -- -- -- -- -- -- -- --
20D0:                                   03 01 10 01 80             .....
20E0: 4A 25 B0 0E 01 F0 FF FF  7F 4A F0 FF FF 7F 25 B0  J%.......J....%.
20F0: 0E 01 6F 76 25 B0 0E 01  2B 25 B0 0E 01 64 80 23  ..ov%...+%...d.#
2100: 21 00                                             !.              
```

## Opcodes

```
  0: 0x20DB [0x03] Work_Zone[1] = 0*
  1: 0x20E0 [0x4A] Brygid (ID: 17739813/0x010EB025) looks at LocalPlayer
  2: 0x20E9 [0x4A] LocalPlayer looks at Brygid (ID: 17739813/0x010EB025)
  3: 0x20F2 [0x6F] WAIT_FRAME_DELAY: Yield until WaitTime reaches zero
  4: 0x20F3 [0x76] CHECK_ENTITY_RENDER_FLAGS: Wait until Brygid (ID: 17739813/0x010EB025) Render.Flags0 and Render.Flags3 conditions are met
  5: 0x20F8 [0x2B] Brygid (ID: 17739813/0x010EB025) [15253*]:
    → "Don't worry if you don't have the wherewithal to come in first place. Just try your best, find the perfect outfit, and I'll see you at the Steaming Sheep in Port Bastok.\u007F1\u0000\u0007"
  6: 0x20FF [0x23] WAIT_FOR_DIALOG_INTERACTION
  7: 0x2100 [0x21] END_EVENT
  8: 0x2101 [0x00] END_REQSTACK()
```
