# Event 429

## Metadata

| Field           | Value    |
|-----------------|----------|
| Event Index     | 4/7      |
| Offset          | 0x0037   |
| Data Size       | 67 bytes |
| Calculated Size | 67 bytes |
| Instructions    | 12       |

```
      00 01 02 03 04 05 06 07  08 09 0A 0B 0C 0D 0E 0F
      -- -- -- -- -- -- -- --  -- -- -- -- -- -- -- --
0030:                      03  09 10 01 80 42 20 01 1E         .....B ..
0040: F0 FF FF 7F 1C 07 80 5B  03 80 F8 FF FF 7F F8 FF  .......[........
0050: FF 7F 70 61 73 30 1D 08  80 23 53 F8 FF FF 7F F8  ..pas0...#S.....
0060: FF FF 7F 70 61 73 30 45  09 80 F0 FF FF 7F F0 FF  ...pas0E........
0070: FF 7F 71 73 74 63 0A 80  21 00                    ..qstc..!.      
```

## Opcodes

```
  0: 0x0037 [0x03] Work_Zone[9] = 4395*
  1: 0x003C [0x42] SET_CLI_EVENT_CANCEL_DATA()
  2: 0x003D [0x20] SET_CLI_EVENT_UC_FLAG: Lock player control
  3: 0x003F [0x1E] EventEntity looks at LocalPlayer and starts talking
  4: 0x0044 [0x1C] WAIT(10* ticks)
  5: 0x0047 [0x5B] LOAD_EXT_SCHEDULER(work_offset=55*, entity1=EventEntity, entity2=EventEntity, action="pas0")
  6: 0x0056 [0x1D] PRINT_EVENT_MESSAGE(message_id=7518*)
    → "Hey! Is that \u0001\u0001\u0001 \u0001\u0005$\u0002\u0007\u0000\u0000?\u0007Let me have it! Here, I'll give you this!\u007F1\u0000\u0007"
  7: 0x0059 [0x23] WAIT_FOR_DIALOG_INTERACTION
  8: 0x005A [0x53] WAIT_SCHEDULER_TASK(entity1=EventEntity, entity2=EventEntity, action_id="pas0")
  9: 0x0067 [0x45] LOAD_SCHEDULED_TASK(work_offset1=201*, entity1=LocalPlayer, entity2=LocalPlayer, scheduler_id="qstc", work_offset2=0*)
 10: 0x0078 [0x21] END_EVENT
 11: 0x0079 [0x00] END_REQSTACK()
```
