# Event 65535

## Metadata

| Field           | Value    |
|-----------------|----------|
| Event Index     | 12/19    |
| Offset          | 0x007F   |
| Data Size       | 45 bytes |
| Calculated Size | 45 bytes |
| Instructions    | 9        |

```
      00 01 02 03 04 05 06 07  08 09 0A 0B 0C 0D 0E 0F
      -- -- -- -- -- -- -- --  -- -- -- -- -- -- -- --
0070:                                               1C                 .
0080: 0C 80 32 03 80 1F 00 0D  80 0E 80 0F 80 1F 01 1E  ..2.............
0090: DA 00 10 01 7B F8 FF FF  7F 1C 10 80 66 00 80 F8  ....{.......f...
00A0: FF FF 7F F8 FF FF 7F 73  69 74 30 00              .......sit0.    
```

## Opcodes

```
  0: 0x007F [0x1C] WAIT(60* ticks)
  1: 0x0082 [0x32] ExtData[1]->MainSpeed = 13* * 0.1
  2: 0x0085 [0x1F] MOVE_ENTITY: EventEntity moves to X=86.470*, Z=-118.680*, Y=3.990*
  3: 0x008D [0x1F] MOVE_ENTITY: Update entity position (mode=1)
  4: 0x008F [0x1E] EventEntity looks at Tuffle-Buffle (ID: 17826010/0x011000DA) and starts talking
  5: 0x0094 [0x7B] EventEntity stops talking
  6: 0x0099 [0x1C] WAIT(30* ticks)
  7: 0x009C [0x66] LOAD_EXT_SCHEDULER_MAIN(work_offset=29*, entity1=EventEntity, entity2=EventEntity, action="sit0")
  8: 0x00AB [0x00] END_REQSTACK()
```
