# Event 65535

## Metadata

| Field           | Value    |
|-----------------|----------|
| Event Index     | 14/19    |
| Offset          | 0x00B9   |
| Data Size       | 96 bytes |
| Calculated Size | 96 bytes |
| Instructions    | 18       |

```
      00 01 02 03 04 05 06 07  08 09 0A 0B 0C 0D 0E 0F
      -- -- -- -- -- -- -- --  -- -- -- -- -- -- -- --
00B0:                             13 00 00 12 80 14 00           .......
00C0: 00 0C 80 07 00 00 13 80  1C 00 00 13 00 00 14 80  ................
00D0: 02 00 00 15 80 80 E7 00  6E F8 FF FF 7F 16 80 99  ........n.......
00E0: F8 FF FF 7F 01 15 01 02  00 00 17 80 80 FE 00 6E  ...............n
00F0: F8 FF FF 7F 18 80 99 F8  FF FF 7F 01 15 01 02 00  ................
0100: 00 14 80 80 15 01 6E F8  FF FF 7F 19 80 99 F8 FF  ......n.........
0110: FF 7F 01 15 01 01 B9 00  00                       .........       
```

## Opcodes

```
  0: 0x00B9 [0x13] ExtData[1]->WorkLocal[0] = rand() % 5*
  1: 0x00BE [0x14] ExtData[1]->WorkLocal[0] *= 60*
  2: 0x00C3 [0x07] ExtData[1]->WorkLocal[0] += 300*
  3: 0x00C8 [0x1C] WAIT(ExtData[1]->WorkLocal[0] ticks)
  4: 0x00CB [0x13] ExtData[1]->WorkLocal[0] = rand() % 2*
  5: 0x00D0 [0x02] IF !(ExtData[1]->WorkLocal[0] == 0*) GOTO 0x00E7
  6: 0x00D8 [0x6E] EventEntity uses emote 8*
  7: 0x00DF [0x99] Wait for EventEntity animation to complete
  8: 0x00E4 [0x01] GOTO 0x0115
  9: 0x00E7 [0x02] IF !(ExtData[1]->WorkLocal[0] == 1*) GOTO 0x00FE
 10: 0x00EF [0x6E] EventEntity uses emote 12*
 11: 0x00F6 [0x99] Wait for EventEntity animation to complete
 12: 0x00FB [0x01] GOTO 0x0115
 13: 0x00FE [0x02] IF !(ExtData[1]->WorkLocal[0] == 2*) GOTO 0x0115
 14: 0x0106 [0x6E] EventEntity uses emote 4*
 15: 0x010D [0x99] Wait for EventEntity animation to complete
 16: 0x0112 [0x01] GOTO 0x0115

SUBROUTINE_0115:
 17: 0x0115 [0x01] GOTO 0x00B9
```

## Data or dead code:

```
# Dead code (unreachable instructions):
     0x0118 [0x00] END_REQSTACK()
```