# Event 65535

## Metadata

| Field           | Value    |
|-----------------|----------|
| Event Index     | 32/50    |
| Offset          | 0x01B1   |
| Data Size       | 44 bytes |
| Calculated Size | 44 bytes |
| Instructions    | 10       |

```
      00 01 02 03 04 05 06 07  08 09 0A 0B 0C 0D 0E 0F
      -- -- -- -- -- -- -- --  -- -- -- -- -- -- -- --
01B0:    29 08 5A 00 0F 01 03  1D 16 80 23 29 08 5A 00   ).Z.......#).Z.
01C0: 0F 01 05 29 08 5A 00 0F  01 06 29 08 5A 00 0F 01  ...).Z....).Z...
01D0: 01 1D 17 80 23 29 08 5A  00 0F 01 02 00           ....#).Z.....   
```

## Opcodes

```
  0: 0x01B1 [0x29] REQ_SET_WAIT(priority=0x08, entity_id=Nanaa Mihgo (ID: 17760346/0x010F005A), tag_num=0x03)
  1: 0x01B8 [0x1D] PRINT_EVENT_MESSAGE(message_id=3998*)
    → "Oh, you'd betterrr be carrreful then. Sounds like you'rrre making me out to be some kind of baddy, or something?\u007F1\u0000\u0007"
  2: 0x01BB [0x23] WAIT_FOR_DIALOG_INTERACTION
  3: 0x01BC [0x29] REQ_SET_WAIT(priority=0x08, entity_id=Nanaa Mihgo (ID: 17760346/0x010F005A), tag_num=0x05)
  4: 0x01C3 [0x29] REQ_SET_WAIT(priority=0x08, entity_id=Nanaa Mihgo (ID: 17760346/0x010F005A), tag_num=0x06)
  5: 0x01CA [0x29] REQ_SET_WAIT(priority=0x08, entity_id=Nanaa Mihgo (ID: 17760346/0x010F005A), tag_num=0x01)
  6: 0x01D1 [0x1D] PRINT_EVENT_MESSAGE(message_id=3999*)
    → "If you're out to stop baddies, then you should be chasing after the Minister of the Orastery, Ajido-Marujido, not me! He's the one to watch, you know?\u007F1\u0000\u0007"
  7: 0x01D4 [0x23] WAIT_FOR_DIALOG_INTERACTION
  8: 0x01D5 [0x29] REQ_SET_WAIT(priority=0x08, entity_id=Nanaa Mihgo (ID: 17760346/0x010F005A), tag_num=0x02)
  9: 0x01DC [0x00] END_REQSTACK()
```
