# 17277211 - KODAI01

## Common Data

| Field            | Value              |
|------------------|--------------------|
| Zone             | Ro'Maeve (ID: 122) |
| Block Size       | 368 bytes          |
| Total Events     | 9                  |
| References Count | 40                 |

## List of Events

| Event ID                 | Entrypoint   |   Size |   Instructions |
|--------------------------|--------------|--------|----------------|
| [65535](#event-65535)    | 0x0000       |      1 |              1 |
| [4](#event-4)            | 0x0001       |      1 |              1 |
| [65535.1](#event-655351) | 0x0002       |     10 |              2 |
| [65535.2](#event-655352) | 0x000C       |     74 |             16 |
| [65535.3](#event-655353) | 0x0056       |      1 |              1 |
| [65535.4](#event-655354) | 0x0057       |     10 |              2 |
| [65535.5](#event-655355) | 0x0061       |     24 |              6 |
| [65535.6](#event-655356) | 0x0079       |      1 |              1 |
| [65535.7](#event-655357) | 0x007A       |     33 |              7 |

## DAT References (imed_data)

|   Index | Hex Value   |   Dec Value |
|---------|-------------|-------------|
|       0 | 0x0042      |          66 |
|       1 | 0x9AFC      |       39676 |
|       2 | 0xFFFF8FF9  |  4294938617 |
|       3 | 0x0C26      |        3110 |
|       4 | 0x000D      |          13 |
|       5 | 0xFFFFFFBD  |  4294967229 |
|       6 | 0xC355      |       50005 |
|       7 | 0xFFFF92A0  |  4294939296 |
|       8 | 0x1E1E      |        7710 |
|       9 | 0xD286      |       53894 |
|      10 | 0x397B      |       14715 |
|      11 | 0xED22      |       60706 |
|      12 | 0x4926      |       18726 |
|      13 | 0x1122C     |       70188 |
|      14 | 0x3CA1      |       15521 |
|      15 | 0x14411     |       82961 |
|      16 | 0x04DA      |        1242 |
|      17 | 0x1A370     |      107376 |
|      18 | 0xFFFF9112  |  4294938898 |
|      19 | 0x0361      |         865 |
|      20 | 0x1DA5A     |      121434 |
|      21 | 0xFFFF8301  |  4294935297 |
|      22 | 0xFFFFE602  |  4294960642 |
|      23 | 0xFFFC34D1  |  4294718673 |
|      24 | 0x186E5     |      100069 |
|      25 | 0x0DB8      |        3512 |
|      26 | 0xFFFFFAA8  |  4294965928 |
|      27 | 0xFFFC24AA  |  4294714538 |
|      28 | 0x1868B     |       99979 |
|      29 | 0xFFFFFCD3  |  4294966483 |
|      30 | 0xFFFBEC34  |  4294700084 |
|      31 | 0x17CDC     |       97500 |
|      32 | 0xFFFC9B08  |  4294744840 |
|      33 | 0xFFFFC4F5  |  4294952181 |
|      34 | 0x0000      |           0 |
|      35 | 0x06D1      |        1745 |
|      36 | 0xFFFC906E  |  4294742126 |
|      37 | 0xFFFFB5DB  |  4294948315 |
|      38 | 0xFFFC8182  |  4294738306 |
|      39 | 0xFFFFB566  |  4294948198 |

## Events

### Event 65535

#### Metadata

| Field        | Value   |
|--------------|---------|
| Entrypoint   | 0x0000  |
| Data Size    | 1 bytes |
| Instructions | 1       |

```
      00 01 02 03 04 05 06 07  08 09 0A 0B 0C 0D 0E 0F
      -- -- -- -- -- -- -- --  -- -- -- -- -- -- -- --
0000: 00                                                .               
```

#### Opcodes

```
  0: 0x0000 [0x00] END_REQSTACK()
```

### Event 4

#### Metadata

| Field        | Value   |
|--------------|---------|
| Entrypoint   | 0x0001  |
| Data Size    | 1 bytes |
| Instructions | 1       |

```
      00 01 02 03 04 05 06 07  08 09 0A 0B 0C 0D 0E 0F
      -- -- -- -- -- -- -- --  -- -- -- -- -- -- -- --
0000:    00                                              .              
```

#### Opcodes

```
  0: 0x0001 [0x00] END_REQSTACK()
```

### Event 65535.1

#### Metadata

| Field        | Value    |
|--------------|----------|
| Entrypoint   | 0x0002   |
| Data Size    | 10 bytes |
| Instructions | 2        |

```
      00 01 02 03 04 05 06 07  08 09 0A 0B 0C 0D 0E 0F
      -- -- -- -- -- -- -- --  -- -- -- -- -- -- -- --
0000:       37 00 80 01 80 02  80 03 80 00                7.........    
```

#### Opcodes

```
  0: 0x0002 [0x37] UPDATE_EVENT_POSITION_AND_DIR: x=0.066*, z=39.676*, y=-28.679*, direction=273.3°*
  1: 0x000B [0x00] END_REQSTACK()
```

### Event 65535.2

#### Metadata

| Field        | Value    |
|--------------|----------|
| Entrypoint   | 0x000C   |
| Data Size    | 74 bytes |
| Instructions | 16       |

```
      00 01 02 03 04 05 06 07  08 09 0A 0B 0C 0D 0E 0F
      -- -- -- -- -- -- -- --  -- -- -- -- -- -- -- --
0000:                                      32 04 80 1F              2...
0010: 00 05 80 06 80 07 80 1F  01 1F 00 08 80 09 80 07  ................
0020: 80 1F 01 1F 00 0A 80 0B  80 07 80 1F 01 1F 00 0C  ................
0030: 80 0D 80 07 80 1F 01 1F  00 0E 80 0F 80 07 80 1F  ................
0040: 01 1F 00 10 80 11 80 12  80 1F 01 1F 00 13 80 14  ................
0050: 80 15 80 1F 01 00                                 ......          
```

#### Opcodes

```
  0: 0x000C [0x32] ExtData[1]->MainSpeed = 13* * 0.1
  1: 0x000F [0x1F] MOVE_ENTITY: EventEntity moves to X=-0.067*, Z=50.005*, Y=-28.000*
  2: 0x0017 [0x1F] MOVE_ENTITY: Update entity position (mode=1)
  3: 0x0019 [0x1F] MOVE_ENTITY: EventEntity moves to X=7.710*, Z=53.894*, Y=-28.000*
  4: 0x0021 [0x1F] MOVE_ENTITY: Update entity position (mode=1)
  5: 0x0023 [0x1F] MOVE_ENTITY: EventEntity moves to X=14.715*, Z=60.706*, Y=-28.000*
  6: 0x002B [0x1F] MOVE_ENTITY: Update entity position (mode=1)
  7: 0x002D [0x1F] MOVE_ENTITY: EventEntity moves to X=18.726*, Z=70.188*, Y=-28.000*
  8: 0x0035 [0x1F] MOVE_ENTITY: Update entity position (mode=1)
  9: 0x0037 [0x1F] MOVE_ENTITY: EventEntity moves to X=15.521*, Z=82.961*, Y=-28.000*
 10: 0x003F [0x1F] MOVE_ENTITY: Update entity position (mode=1)
 11: 0x0041 [0x1F] MOVE_ENTITY: EventEntity moves to X=1.242*, Z=107.376*, Y=-28.398*
 12: 0x0049 [0x1F] MOVE_ENTITY: Update entity position (mode=1)
 13: 0x004B [0x1F] MOVE_ENTITY: EventEntity moves to X=0.865*, Z=121.434*, Y=-31.999*
 14: 0x0053 [0x1F] MOVE_ENTITY: Update entity position (mode=1)
 15: 0x0055 [0x00] END_REQSTACK()
```

### Event 65535.3

#### Metadata

| Field        | Value   |
|--------------|---------|
| Entrypoint   | 0x0056  |
| Data Size    | 1 bytes |
| Instructions | 1       |

```
      00 01 02 03 04 05 06 07  08 09 0A 0B 0C 0D 0E 0F
      -- -- -- -- -- -- -- --  -- -- -- -- -- -- -- --
0050:                   00                                    .         
```

#### Opcodes

```
  0: 0x0056 [0x00] END_REQSTACK()
```

### Event 65535.4

#### Metadata

| Field        | Value    |
|--------------|----------|
| Entrypoint   | 0x0057   |
| Data Size    | 10 bytes |
| Instructions | 2        |

```
      00 01 02 03 04 05 06 07  08 09 0A 0B 0C 0D 0E 0F
      -- -- -- -- -- -- -- --  -- -- -- -- -- -- -- --
0050:                      37  16 80 17 80 18 80 19 80         7........
0060: 00                                                .               
```

#### Opcodes

```
  0: 0x0057 [0x37] UPDATE_EVENT_POSITION_AND_DIR: x=-6.654*, z=-248.623*, y=100.069*, direction=308.7°*
  1: 0x0060 [0x00] END_REQSTACK()
```

### Event 65535.5

#### Metadata

| Field        | Value    |
|--------------|----------|
| Entrypoint   | 0x0061   |
| Data Size    | 24 bytes |
| Instructions | 6        |

```
      00 01 02 03 04 05 06 07  08 09 0A 0B 0C 0D 0E 0F
      -- -- -- -- -- -- -- --  -- -- -- -- -- -- -- --
0060:    32 04 80 1F 00 1A 80  1B 80 1C 80 1F 01 1F 00   2..............
0070: 1D 80 1E 80 1F 80 1F 01  00                       .........       
```

#### Opcodes

```
  0: 0x0061 [0x32] ExtData[1]->MainSpeed = 13* * 0.1
  1: 0x0064 [0x1F] MOVE_ENTITY: EventEntity moves to X=-1.368*, Z=-252.758*, Y=99.979*
  2: 0x006C [0x1F] MOVE_ENTITY: Update entity position (mode=1)
  3: 0x006E [0x1F] MOVE_ENTITY: EventEntity moves to X=-0.813*, Z=-267.212*, Y=97.500*
  4: 0x0076 [0x1F] MOVE_ENTITY: Update entity position (mode=1)
  5: 0x0078 [0x00] END_REQSTACK()
```

### Event 65535.6

#### Metadata

| Field        | Value   |
|--------------|---------|
| Entrypoint   | 0x0079  |
| Data Size    | 1 bytes |
| Instructions | 1       |

```
      00 01 02 03 04 05 06 07  08 09 0A 0B 0C 0D 0E 0F
      -- -- -- -- -- -- -- --  -- -- -- -- -- -- -- --
0070:                             00                             .      
```

#### Opcodes

```
  0: 0x0079 [0x00] END_REQSTACK()
```

### Event 65535.7

#### Metadata

| Field        | Value    |
|--------------|----------|
| Entrypoint   | 0x007A   |
| Data Size    | 33 bytes |
| Instructions | 7        |

```
      00 01 02 03 04 05 06 07  08 09 0A 0B 0C 0D 0E 0F
      -- -- -- -- -- -- -- --  -- -- -- -- -- -- -- --
0070:                                37 20 80 21 80 22            7 .!."
0080: 80 23 80 32 04 80 1F 00  24 80 25 80 22 80 1F 01  .#.2....$.%."...
0090: 1F 00 26 80 27 80 22 80  1F 01 00                 ..&.'."....     
```

#### Opcodes

```
  0: 0x007A [0x37] UPDATE_EVENT_POSITION_AND_DIR: x=-222.456*, z=-15.115*, y=0.000*, direction=153.4°*
  1: 0x0083 [0x32] ExtData[1]->MainSpeed = 13* * 0.1
  2: 0x0086 [0x1F] MOVE_ENTITY: EventEntity moves to X=-225.170*, Z=-18.981*, Y=0.000*
  3: 0x008E [0x1F] MOVE_ENTITY: Update entity position (mode=1)
  4: 0x0090 [0x1F] MOVE_ENTITY: EventEntity moves to X=-228.990*, Z=-19.098*, Y=0.000*
  5: 0x0098 [0x1F] MOVE_ENTITY: Update entity position (mode=1)
  6: 0x009A [0x00] END_REQSTACK()
```
