# 17277244 - Aldo

## Common Data

| Field            | Value              |
|------------------|--------------------|
| Zone             | Ro'Maeve (ID: 122) |
| Block Size       | 516 bytes          |
| Total Events     | 18                 |
| References Count | 21                 |

## List of Events

| Event ID                   | Entrypoint   |   Size |   Instructions |
|----------------------------|--------------|--------|----------------|
| [65535](#event-65535)      | 0x0000       |      1 |              1 |
| [71](#event-71)            | 0x0001       |      1 |              1 |
| [65535.1](#event-655351)   | 0x0002       |     19 |              5 |
| [65535.2](#event-655352)   | 0x0015       |     10 |              2 |
| [65535.3](#event-655353)   | 0x001F       |     21 |              5 |
| [65535.4](#event-655354)   | 0x0034       |     23 |              5 |
| [65535.5](#event-655355)   | 0x004B       |     19 |              3 |
| [65535.6](#event-655356)   | 0x005E       |     29 |              3 |
| [65535.7](#event-655357)   | 0x007B       |     19 |              3 |
| [65535.8](#event-655358)   | 0x008E       |     29 |              3 |
| [65535.9](#event-655359)   | 0x00AB       |     19 |              3 |
| [65535.10](#event-6553510) | 0x00BE       |     29 |              3 |
| [65535.11](#event-6553511) | 0x00DB       |     14 |              4 |
| [65535.12](#event-6553512) | 0x00E9       |     37 |              5 |
| [65535.13](#event-6553513) | 0x010E       |     19 |              3 |
| [65535.14](#event-6553514) | 0x0121       |     19 |              3 |
| [65535.15](#event-6553515) | 0x0134       |     19 |              3 |
| [65535.16](#event-6553516) | 0x0147       |     17 |              5 |

## DAT References (imed_data)

|   Index | Hex Value   |   Dec Value |
|---------|-------------|-------------|
|       0 | 0x004E      |          78 |
|       1 | 0x0000      |           0 |
|       2 | 0x0032      |          50 |
|       3 | 0xFFFC9DE0  |  4294745568 |
|       4 | 0xFFFE788B  |  4294867083 |
|       5 | 0xFFFFE675  |  4294960757 |
|       6 | 0x0514      |        1300 |
|       7 | 0xFFFCC595  |  4294755733 |
|       8 | 0x877A      |       34682 |
|       9 | 0xFFFFF0C6  |  4294963398 |
|      10 | 0x00B9      |         185 |
|      11 | 0x003C      |          60 |
|      12 | 0x0028      |          40 |
|      13 | 0xFFFCE5B6  |  4294763958 |
|      14 | 0x6A0C      |       27148 |
|      15 | 0xFFFFEF95  |  4294963093 |
|      16 | 0x0AC9      |        2761 |
|      17 | 0x0060      |          96 |
|      18 | 0x0087      |         135 |
|      19 | 0x0ADC      |        2780 |
|      20 | 0x0064      |         100 |

## Events

### Event 65535

#### Metadata

| Field        | Value   |
|--------------|---------|
| Entrypoint   | 0x0000  |
| Data Size    | 1 bytes |
| Instructions | 1       |

```
      00 01 02 03 04 05 06 07  08 09 0A 0B 0C 0D 0E 0F
      -- -- -- -- -- -- -- --  -- -- -- -- -- -- -- --
0000: 00                                                .               
```

#### Opcodes

```
  0: 0x0000 [0x00] END_REQSTACK()
```

### Event 71

#### Metadata

| Field        | Value   |
|--------------|---------|
| Entrypoint   | 0x0001  |
| Data Size    | 1 bytes |
| Instructions | 1       |

```
      00 01 02 03 04 05 06 07  08 09 0A 0B 0C 0D 0E 0F
      -- -- -- -- -- -- -- --  -- -- -- -- -- -- -- --
0000:    00                                              .              
```

#### Opcodes

```
  0: 0x0001 [0x00] END_REQSTACK()
```

### Event 65535.1

#### Metadata

| Field        | Value    |
|--------------|----------|
| Entrypoint   | 0x0002   |
| Data Size    | 19 bytes |
| Instructions | 5        |

```
      00 01 02 03 04 05 06 07  08 09 0A 0B 0C 0D 0E 0F
      -- -- -- -- -- -- -- --  -- -- -- -- -- -- -- --
0000:       B6 00 00 80 22 00  92 01 F8 FF FF 7F 94 01    ....".........
0010: F8 FF FF 7F 00                                    .....           
```

#### Opcodes

```
  0: 0x0002 [0xB6] ENTITY_APPEARANCE_HANDLER(case=Hair style, value=78*)
  1: 0x0006 [0x22] ENTITY_HIDE_FLAG(enabled=0x00)
  2: 0x0008 [0x92] EventEntity->Render.Flags3 ^= 0x01
  3: 0x000E [0x94] EventEntity->Render.Flags3 ^= 0x01
  4: 0x0014 [0x00] END_REQSTACK()
```

### Event 65535.2

#### Metadata

| Field        | Value    |
|--------------|----------|
| Entrypoint   | 0x0015   |
| Data Size    | 10 bytes |
| Instructions | 2        |

```
      00 01 02 03 04 05 06 07  08 09 0A 0B 0C 0D 0E 0F
      -- -- -- -- -- -- -- --  -- -- -- -- -- -- -- --
0010:                6C F8 FF  FF 7F 01 80 01 80 00          l......... 
```

#### Opcodes

```
  0: 0x0015 [0x6C] FADE_ENTITY_COLOR(entity_id=EventEntity, end_alpha=0*, fade_time=0*)
  1: 0x001E [0x00] END_REQSTACK()
```

### Event 65535.3

#### Metadata

| Field        | Value    |
|--------------|----------|
| Entrypoint   | 0x001F   |
| Data Size    | 21 bytes |
| Instructions | 5        |

```
      00 01 02 03 04 05 06 07  08 09 0A 0B 0C 0D 0E 0F
      -- -- -- -- -- -- -- --  -- -- -- -- -- -- -- --
0010:                                               32                 2
0020: 02 80 1F 00 03 80 04 80  05 80 1F 01 4B F8 FF FF  ............K...
0030: 7F 06 80 00                                       ....            
```

#### Opcodes

```
  0: 0x001F [0x32] ExtData[1]->MainSpeed = 50* * 0.1
  1: 0x0022 [0x1F] MOVE_ENTITY: EventEntity moves to X=-221.728*, Z=-100.213*, Y=-6.539*
  2: 0x002A [0x1F] MOVE_ENTITY: Update entity position (mode=1)
  3: 0x002C [0x4B] UPDATE_ENTITY_YAW(entity=EventEntity, yaw=7.1°*)
  4: 0x0033 [0x00] END_REQSTACK()
```

### Event 65535.4

#### Metadata

| Field        | Value    |
|--------------|----------|
| Entrypoint   | 0x0034   |
| Data Size    | 23 bytes |
| Instructions | 5        |

```
      00 01 02 03 04 05 06 07  08 09 0A 0B 0C 0D 0E 0F
      -- -- -- -- -- -- -- --  -- -- -- -- -- -- -- --
0030:             32 02 80 1F  00 07 80 08 80 09 80 1F      2...........
0040: 01 4A F8 FF FF 7F 3B A1  07 01 00                 .J....;....     
```

#### Opcodes

```
  0: 0x0034 [0x32] ExtData[1]->MainSpeed = 50* * 0.1
  1: 0x0037 [0x1F] MOVE_ENTITY: EventEntity moves to X=-211.563*, Z=34.682*, Y=-3.898*
  2: 0x003F [0x1F] MOVE_ENTITY: Update entity position (mode=1)
  3: 0x0041 [0x4A] EventEntity looks at Shantotto (ID: 17277243/0x0107A13B)
  4: 0x004A [0x00] END_REQSTACK()
```

### Event 65535.5

#### Metadata

| Field        | Value    |
|--------------|----------|
| Entrypoint   | 0x004B   |
| Data Size    | 19 bytes |
| Instructions | 3        |

```
      00 01 02 03 04 05 06 07  08 09 0A 0B 0C 0D 0E 0F
      -- -- -- -- -- -- -- --  -- -- -- -- -- -- -- --
0040:                                   5B 0A 80 F8 FF             [....
0050: FF 7F F8 FF FF 7F 74 6C  6B 30 1C 0B 80 00        ......tlk0....  
```

#### Opcodes

```
  0: 0x004B [0x5B] LOAD_EXT_SCHEDULER: Load scheduler "tlk0" with entities [EventEntity, EventEntity], work=185*
  1: 0x005A [0x1C] WAIT(60* ticks)
  2: 0x005D [0x00] END_REQSTACK()
```

### Event 65535.6

#### Metadata

| Field        | Value    |
|--------------|----------|
| Entrypoint   | 0x005E   |
| Data Size    | 29 bytes |
| Instructions | 3        |

```
      00 01 02 03 04 05 06 07  08 09 0A 0B 0C 0D 0E 0F
      -- -- -- -- -- -- -- --  -- -- -- -- -- -- -- --
0050:                                            5B 0A                [.
0060: 80 F8 FF FF 7F F8 FF FF  7F 74 6C 6B 31 53 F8 FF  .........tlk1S..
0070: FF 7F F8 FF FF 7F 74 6C  6B 31 00                 ......tlk1.     
```

#### Opcodes

```
  0: 0x005E [0x5B] LOAD_EXT_SCHEDULER: Load scheduler "tlk1" with entities [EventEntity, EventEntity], work=185*
  1: 0x006D [0x53] WAIT_SCHEDULER_TASK: Wait for scheduler "tlk1" with entities [EventEntity, EventEntity]
  2: 0x007A [0x00] END_REQSTACK()
```

### Event 65535.7

#### Metadata

| Field        | Value    |
|--------------|----------|
| Entrypoint   | 0x007B   |
| Data Size    | 19 bytes |
| Instructions | 3        |

```
      00 01 02 03 04 05 06 07  08 09 0A 0B 0C 0D 0E 0F
      -- -- -- -- -- -- -- --  -- -- -- -- -- -- -- --
0070:                                   5B 0A 80 F8 FF             [....
0080: FF 7F F8 FF FF 7F 75 64  65 30 1C 0B 80 00        ......ude0....  
```

#### Opcodes

```
  0: 0x007B [0x5B] LOAD_EXT_SCHEDULER: Load scheduler "ude0" with entities [EventEntity, EventEntity], work=185*
  1: 0x008A [0x1C] WAIT(60* ticks)
  2: 0x008D [0x00] END_REQSTACK()
```

### Event 65535.8

#### Metadata

| Field        | Value    |
|--------------|----------|
| Entrypoint   | 0x008E   |
| Data Size    | 29 bytes |
| Instructions | 3        |

```
      00 01 02 03 04 05 06 07  08 09 0A 0B 0C 0D 0E 0F
      -- -- -- -- -- -- -- --  -- -- -- -- -- -- -- --
0080:                                            5B 0A                [.
0090: 80 F8 FF FF 7F F8 FF FF  7F 75 64 65 31 53 F8 FF  .........ude1S..
00A0: FF 7F F8 FF FF 7F 75 64  65 31 00                 ......ude1.     
```

#### Opcodes

```
  0: 0x008E [0x5B] LOAD_EXT_SCHEDULER: Load scheduler "ude1" with entities [EventEntity, EventEntity], work=185*
  1: 0x009D [0x53] WAIT_SCHEDULER_TASK: Wait for scheduler "ude1" with entities [EventEntity, EventEntity]
  2: 0x00AA [0x00] END_REQSTACK()
```

### Event 65535.9

#### Metadata

| Field        | Value    |
|--------------|----------|
| Entrypoint   | 0x00AB   |
| Data Size    | 19 bytes |
| Instructions | 3        |

```
      00 01 02 03 04 05 06 07  08 09 0A 0B 0C 0D 0E 0F
      -- -- -- -- -- -- -- --  -- -- -- -- -- -- -- --
00A0:                                   5B 0A 80 F8 FF             [....
00B0: FF 7F F8 FF FF 7F 74 68  6B 31 1C 0B 80 00        ......thk1....  
```

#### Opcodes

```
  0: 0x00AB [0x5B] LOAD_EXT_SCHEDULER: Load scheduler "thk1" with entities [EventEntity, EventEntity], work=185*
  1: 0x00BA [0x1C] WAIT(60* ticks)
  2: 0x00BD [0x00] END_REQSTACK()
```

### Event 65535.10

#### Metadata

| Field        | Value    |
|--------------|----------|
| Entrypoint   | 0x00BE   |
| Data Size    | 29 bytes |
| Instructions | 3        |

```
      00 01 02 03 04 05 06 07  08 09 0A 0B 0C 0D 0E 0F
      -- -- -- -- -- -- -- --  -- -- -- -- -- -- -- --
00B0:                                            5B 0A                [.
00C0: 80 F8 FF FF 7F F8 FF FF  7F 74 68 6B 32 53 F8 FF  .........thk2S..
00D0: FF 7F F8 FF FF 7F 74 68  6B 32 00                 ......thk2.     
```

#### Opcodes

```
  0: 0x00BE [0x5B] LOAD_EXT_SCHEDULER: Load scheduler "thk2" with entities [EventEntity, EventEntity], work=185*
  1: 0x00CD [0x53] WAIT_SCHEDULER_TASK: Wait for scheduler "thk2" with entities [EventEntity, EventEntity]
  2: 0x00DA [0x00] END_REQSTACK()
```

### Event 65535.11

#### Metadata

| Field        | Value    |
|--------------|----------|
| Entrypoint   | 0x00DB   |
| Data Size    | 14 bytes |
| Instructions | 4        |

```
      00 01 02 03 04 05 06 07  08 09 0A 0B 0C 0D 0E 0F
      -- -- -- -- -- -- -- --  -- -- -- -- -- -- -- --
00D0:                                   32 0C 80 1F 00             2....
00E0: 0D 80 0E 80 0F 80 1F 01  00                       .........       
```

#### Opcodes

```
  0: 0x00DB [0x32] ExtData[1]->MainSpeed = 40* * 0.1
  1: 0x00DE [0x1F] MOVE_ENTITY: EventEntity moves to X=-203.338*, Z=27.148*, Y=-4.203*
  2: 0x00E6 [0x1F] MOVE_ENTITY: Update entity position (mode=1)
  3: 0x00E8 [0x00] END_REQSTACK()
```

### Event 65535.12

#### Metadata

| Field        | Value    |
|--------------|----------|
| Entrypoint   | 0x00E9   |
| Data Size    | 37 bytes |
| Instructions | 5        |

```
      00 01 02 03 04 05 06 07  08 09 0A 0B 0C 0D 0E 0F
      -- -- -- -- -- -- -- --  -- -- -- -- -- -- -- --
00E0:                             5B 10 80 F8 FF FF 7F           [......
00F0: F8 FF FF 7F 62 69 6B 30  1C 11 80 5B 10 80 F8 FF  ....bik0...[....
0100: FF 7F F8 FF FF 7F 62 69  6B 31 1C 12 80 00        ......bik1....  
```

#### Opcodes

```
  0: 0x00E9 [0x5B] LOAD_EXT_SCHEDULER: Load scheduler "bik0" with entities [EventEntity, EventEntity], work=2761*
  1: 0x00F8 [0x1C] WAIT(96* ticks)
  2: 0x00FB [0x5B] LOAD_EXT_SCHEDULER: Load scheduler "bik1" with entities [EventEntity, EventEntity], work=2761*
  3: 0x010A [0x1C] WAIT(135* ticks)
  4: 0x010D [0x00] END_REQSTACK()
```

### Event 65535.13

#### Metadata

| Field        | Value    |
|--------------|----------|
| Entrypoint   | 0x010E   |
| Data Size    | 19 bytes |
| Instructions | 3        |

```
      00 01 02 03 04 05 06 07  08 09 0A 0B 0C 0D 0E 0F
      -- -- -- -- -- -- -- --  -- -- -- -- -- -- -- --
0100:                                            5B 10                [.
0110: 80 F8 FF FF 7F F8 FF FF  7F 62 69 6B 30 1C 11 80  .........bik0...
0120: 00                                                .               
```

#### Opcodes

```
  0: 0x010E [0x5B] LOAD_EXT_SCHEDULER: Load scheduler "bik0" with entities [EventEntity, EventEntity], work=2761*
  1: 0x011D [0x1C] WAIT(96* ticks)
  2: 0x0120 [0x00] END_REQSTACK()
```

### Event 65535.14

#### Metadata

| Field        | Value    |
|--------------|----------|
| Entrypoint   | 0x0121   |
| Data Size    | 19 bytes |
| Instructions | 3        |

```
      00 01 02 03 04 05 06 07  08 09 0A 0B 0C 0D 0E 0F
      -- -- -- -- -- -- -- --  -- -- -- -- -- -- -- --
0120:    5B 10 80 F8 FF FF 7F  F8 FF FF 7F 62 69 6B 31   [..........bik1
0130: 1C 12 80 00                                       ....            
```

#### Opcodes

```
  0: 0x0121 [0x5B] LOAD_EXT_SCHEDULER: Load scheduler "bik1" with entities [EventEntity, EventEntity], work=2761*
  1: 0x0130 [0x1C] WAIT(135* ticks)
  2: 0x0133 [0x00] END_REQSTACK()
```

### Event 65535.15

#### Metadata

| Field        | Value    |
|--------------|----------|
| Entrypoint   | 0x0134   |
| Data Size    | 19 bytes |
| Instructions | 3        |

```
      00 01 02 03 04 05 06 07  08 09 0A 0B 0C 0D 0E 0F
      -- -- -- -- -- -- -- --  -- -- -- -- -- -- -- --
0130:             5B 13 80 F8  FF FF 7F F8 FF FF 7F 6C      [..........l
0140: 6B 62 30 1C 14 80 00                              kb0....         
```

#### Opcodes

```
  0: 0x0134 [0x5B] LOAD_EXT_SCHEDULER: Load scheduler "lkb0" with entities [EventEntity, EventEntity], work=2780*
  1: 0x0143 [0x1C] WAIT(100* ticks)
  2: 0x0146 [0x00] END_REQSTACK()
```

### Event 65535.16

#### Metadata

| Field        | Value    |
|--------------|----------|
| Entrypoint   | 0x0147   |
| Data Size    | 17 bytes |
| Instructions | 5        |

```
      00 01 02 03 04 05 06 07  08 09 0A 0B 0C 0D 0E 0F
      -- -- -- -- -- -- -- --  -- -- -- -- -- -- -- --
0140:                      84  4A F8 FF FF 7F 3D A1 07         .J....=..
0150: 01 6F 76 F8 FF FF 7F 00                           .ov.....        
```

#### Opcodes

```
  0: 0x0147 [0x84] ADJUST_RENDER_FLAGS3_BIT0()
  1: 0x0148 [0x4A] EventEntity looks at Yoran-Oran (ID: 17277245/0x0107A13D)
  2: 0x0151 [0x6F] WAIT_FRAME_DELAY: Yield until WaitTime reaches zero
  3: 0x0152 [0x76] CHECK_ENTITY_RENDER_FLAGS: Wait until EventEntity Render.Flags0 and Render.Flags3 conditions are met
  4: 0x0157 [0x00] END_REQSTACK()
```
