# 17277205

## Common Data

| Field            | Value              |
|------------------|--------------------|
| Zone             | Ro'Maeve (ID: 122) |
| Block Size       | 140 bytes          |
| Total Events     | 5                  |
| References Count | 9                  |

## List of Events

| Event ID                 | Entrypoint   |   Size |   Instructions |
|--------------------------|--------------|--------|----------------|
| [65535](#event-65535)    | 0x0000       |      1 |              1 |
| [2](#event-2)            | 0x0001       |      1 |              1 |
| [65535.1](#event-655351) | 0x0002       |     14 |              4 |
| [65535.2](#event-655352) | 0x0010       |     14 |              4 |
| [65535.3](#event-655353) | 0x001E       |     35 |              8 |

## DAT References (imed_data)

|   Index | Hex Value   |   Dec Value |
|---------|-------------|-------------|
|       0 | 0x000D      |          13 |
|       1 | 0xFFFFFFCB  |  4294967243 |
|       2 | 0x13A4C     |       80460 |
|       3 | 0xFFFF8D3F  |  4294937919 |
|       4 | 0x14086     |       82054 |
|       5 | 0xFFFF8B2E  |  4294937390 |
|       6 | 0x0BDC      |        3036 |
|       7 | 0x0080      |         128 |
|       8 | 0x0001      |           1 |

## Events

### Event 65535

#### Metadata

| Field        | Value   |
|--------------|---------|
| Entrypoint   | 0x0000  |
| Data Size    | 1 bytes |
| Instructions | 1       |

```
      00 01 02 03 04 05 06 07  08 09 0A 0B 0C 0D 0E 0F
      -- -- -- -- -- -- -- --  -- -- -- -- -- -- -- --
0000: 00                                                .               
```

#### Opcodes

```
  0: 0x0000 [0x00] END_REQSTACK()
```

### Event 2

#### Metadata

| Field        | Value   |
|--------------|---------|
| Entrypoint   | 0x0001  |
| Data Size    | 1 bytes |
| Instructions | 1       |

```
      00 01 02 03 04 05 06 07  08 09 0A 0B 0C 0D 0E 0F
      -- -- -- -- -- -- -- --  -- -- -- -- -- -- -- --
0000:    00                                              .              
```

#### Opcodes

```
  0: 0x0001 [0x00] END_REQSTACK()
```

### Event 65535.1

#### Metadata

| Field        | Value    |
|--------------|----------|
| Entrypoint   | 0x0002   |
| Data Size    | 14 bytes |
| Instructions | 4        |

```
      00 01 02 03 04 05 06 07  08 09 0A 0B 0C 0D 0E 0F
      -- -- -- -- -- -- -- --  -- -- -- -- -- -- -- --
0000:       32 00 80 1F 00 01  80 02 80 03 80 1F 01 00    2.............
```

#### Opcodes

```
  0: 0x0002 [0x32] ExtData[1]->MainSpeed = 13* * 0.1
  1: 0x0005 [0x1F] MOVE_ENTITY: EventEntity moves to X=-0.053*, Z=80.460*, Y=-29.377*
  2: 0x000D [0x1F] MOVE_ENTITY: Update entity position (mode=1)
  3: 0x000F [0x00] END_REQSTACK()
```

### Event 65535.2

#### Metadata

| Field        | Value    |
|--------------|----------|
| Entrypoint   | 0x0010   |
| Data Size    | 14 bytes |
| Instructions | 4        |

```
      00 01 02 03 04 05 06 07  08 09 0A 0B 0C 0D 0E 0F
      -- -- -- -- -- -- -- --  -- -- -- -- -- -- -- --
0010: 32 00 80 1F 00 01 80 04  80 05 80 1F 01 00        2.............  
```

#### Opcodes

```
  0: 0x0010 [0x32] ExtData[1]->MainSpeed = 13* * 0.1
  1: 0x0013 [0x1F] MOVE_ENTITY: EventEntity moves to X=-0.053*, Z=82.054*, Y=-29.906*
  2: 0x001B [0x1F] MOVE_ENTITY: Update entity position (mode=1)
  3: 0x001D [0x00] END_REQSTACK()
```

### Event 65535.3

#### Metadata

| Field        | Value    |
|--------------|----------|
| Entrypoint   | 0x001E   |
| Data Size    | 35 bytes |
| Instructions | 8        |

```
      00 01 02 03 04 05 06 07  08 09 0A 0B 0C 0D 0E 0F
      -- -- -- -- -- -- -- --  -- -- -- -- -- -- -- --
0010:                                            03 01                ..
0020: 00 06 80 3A F8 FF FF 7F  00 00 02 00 00 01 00 05  ...:............
0030: 40 00 39 00 00 07 00 00  07 80 1C 08 80 01 2A 00  @.9...........*.
0040: 00                                                .               
```

#### Opcodes

```
  0: 0x001E [0x03] ExtData[1]->WorkLocal[1] = 3036*
  1: 0x0023 [0x3A] CONVERT_YAW_TO_BYTE(entity=EventEntity, result_destination=ExtData[1]->WorkLocal[0])
  2: 0x002A [0x02] IF !(ExtData[1]->WorkLocal[0] > ExtData[1]->WorkLocal[1]) GOTO 0x0040
  3: 0x0032 [0x39] SET_ENTITY_DIRECTION(direction=ExtData[1]->WorkLocal[0])
  4: 0x0035 [0x07] ExtData[1]->WorkLocal[0] += 128*
  5: 0x003A [0x1C] WAIT(1* ticks)
  6: 0x003D [0x01] GOTO 0x002A
  7: 0x0040 [0x00] END_REQSTACK()
```
