# Event 664

## Metadata

| Field           | Value    |
|-----------------|----------|
| Event Index     | 5/23     |
| Offset          | 0x1A95   |
| Data Size       | 49 bytes |
| Calculated Size | 49 bytes |
| Instructions    | 9        |

```
      00 01 02 03 04 05 06 07  08 09 0A 0B 0C 0D 0E 0F
      -- -- -- -- -- -- -- --  -- -- -- -- -- -- -- --
1A90:                4A 04 A0  0E 01 F0 FF FF 7F 6F 76       J........ov
1AA0: 04 A0 0E 01 4A F0 FF FF  7F 04 A0 0E 01 5B 14 80  ....J........[..
1AB0: 04 A0 0E 01 04 A0 0E 01  74 6C 61 30 2B 04 A0 0E  ........tla0+...
1AC0: 01 6A 80 23 21 00                                 .j.#!.          
```

## Opcodes

```
  0: 0x1A95 [0x4A] Gumbah (ID: 17735684/0x010EA004) looks at LocalPlayer
  1: 0x1A9E [0x6F] WAIT_FRAME_DELAY: Yield until WaitTime reaches zero
  2: 0x1A9F [0x76] CHECK_ENTITY_RENDER_FLAGS: Wait until Gumbah (ID: 17735684/0x010EA004) Render.Flags0 and Render.Flags3 conditions are met
  3: 0x1AA4 [0x4A] LocalPlayer looks at Gumbah (ID: 17735684/0x010EA004)
  4: 0x1AAD [0x5B] LOAD_EXT_SCHEDULER(work_offset=155*, entity1=Gumbah (ID: 17735684/0x010EA004), entity2=Gumbah (ID: 17735684/0x010EA004), action="tla0")
  5: 0x1ABC [0x2B] Gumbah (ID: 17735684/0x010EA004) [16786*]:
    → "I know that Cornelia's plan may sound a bit half-baked, but I can't come up with anything better. Let's go find Brygid.\u007F1\u0000\u0007"
  6: 0x1AC3 [0x23] WAIT_FOR_DIALOG_INTERACTION
  7: 0x1AC4 [0x21] END_EVENT
  8: 0x1AC5 [0x00] END_REQSTACK()
```
