# Event 674

## Metadata

| Field           | Value    |
|-----------------|----------|
| Event Index     | 12/23    |
| Offset          | 0x5B9C   |
| Data Size       | 58 bytes |
| Calculated Size | 58 bytes |
| Instructions    | 12       |

```
      00 01 02 03 04 05 06 07  08 09 0A 0B 0C 0D 0E 0F
      -- -- -- -- -- -- -- --  -- -- -- -- -- -- -- --
5B90:                                      4A 0C A0 0E              J...
5BA0: 01 F0 FF FF 7F 6F 76 0C  A0 0E 01 4A F0 FF FF 7F  .....ov....J....
5BB0: 0C A0 0E 01 02 02 10 0A  81 04 D4 5B 02 02 10 0B  ...........[....
5BC0: 81 05 D4 5B 2B 0C A0 0E  01 4C 81 23 2B 0C A0 0E  ...[+....L.#+...
5BD0: 01 4D 81 23 21 00                                 .M.#!.          
```

## Opcodes

```
  0: 0x5B9C [0x4A] Drangord (ID: 17735692/0x010EA00C) looks at LocalPlayer
  1: 0x5BA5 [0x6F] WAIT_FRAME_DELAY: Yield until WaitTime reaches zero
  2: 0x5BA6 [0x76] CHECK_ENTITY_RENDER_FLAGS: Wait until Drangord (ID: 17735692/0x010EA00C) Render.Flags0 and Render.Flags3 conditions are met
  3: 0x5BAB [0x4A] LocalPlayer looks at Drangord (ID: 17735692/0x010EA00C)
  4: 0x5BB4 [0x02] IF !(Work_Zone[2] < 260*) GOTO 0x5BD4
  5: 0x5BBC [0x02] IF !(Work_Zone[2] > 266*) GOTO 0x5BD4
  6: 0x5BC4 [0x2B] Drangord (ID: 17735692/0x010EA00C) [17043*]:
    → "What's all the commotion!?\u0007Did something happen?\u007F1\u0000\u0007"
  7: 0x5BCB [0x23] WAIT_FOR_DIALOG_INTERACTION
  8: 0x5BCC [0x2B] Drangord (ID: 17735692/0x010EA00C) [17044*]:
    → "At times like this, it's important to remain calm.\u0007That allows us to protect what's important.\u007F1\u0000\u0007"
  9: 0x5BD3 [0x23] WAIT_FOR_DIALOG_INTERACTION
 10: 0x5BD4 [0x21] END_EVENT
 11: 0x5BD5 [0x00] END_REQSTACK()
```
