# Event 65535

## Metadata

| Field           | Value    |
|-----------------|----------|
| Event Index     | 48/64    |
| Offset          | 0x0818   |
| Data Size       | 59 bytes |
| Calculated Size | 59 bytes |
| Instructions    | 12       |

```
      00 01 02 03 04 05 06 07  08 09 0A 0B 0C 0D 0E 0F
      -- -- -- -- -- -- -- --  -- -- -- -- -- -- -- --
0810:                          59 04 F8 FF FF 7F A8 80          Y.......
0820: 1F 00 A9 80 AA 80 57 80  1F 01 1F 00 AB 80 AC 80  ......W.........
0830: 57 80 1F 01 1F 00 AD 80  AE 80 57 80 1F 01 1F 00  W.........W.....
0840: AF 80 B0 80 57 80 1F 01  6F 4A F8 FF FF 7F 00 E3  ....W...oJ......
0850: 05 01 00                                          ...             
```

## Opcodes

```
  0: 0x0818 [0x59] UPDATE_ENTITY_DATA: Set EventEntity main speed = 11* * 0.1
  1: 0x0820 [0x1F] MOVE_ENTITY: EventEntity moves to X=305.946*, Z=39.219*, Y=-3.500*
  2: 0x0828 [0x1F] MOVE_ENTITY: Update entity position (mode=1)
  3: 0x082A [0x1F] MOVE_ENTITY: EventEntity moves to X=305.425*, Z=40.893*, Y=-3.500*
  4: 0x0832 [0x1F] MOVE_ENTITY: Update entity position (mode=1)
  5: 0x0834 [0x1F] MOVE_ENTITY: EventEntity moves to X=306.760*, Z=42.864*, Y=-3.500*
  6: 0x083C [0x1F] MOVE_ENTITY: Update entity position (mode=1)
  7: 0x083E [0x1F] MOVE_ENTITY: EventEntity moves to X=306.465*, Z=43.464*, Y=-3.500*
  8: 0x0846 [0x1F] MOVE_ENTITY: Update entity position (mode=1)
  9: 0x0848 [0x6F] WAIT_FRAME_DELAY: Yield until WaitTime reaches zero
 10: 0x0849 [0x4A] EventEntity looks at 03 (ID: 17163008/0x0105E300)
 11: 0x0852 [0x00] END_REQSTACK()
```
