# Event 65535

## Metadata

| Field           | Value    |
|-----------------|----------|
| Event Index     | 58/64    |
| Offset          | 0x09DB   |
| Data Size       | 60 bytes |
| Calculated Size | 60 bytes |
| Instructions    | 13       |

```
      00 01 02 03 04 05 06 07  08 09 0A 0B 0C 0D 0E 0F
      -- -- -- -- -- -- -- --  -- -- -- -- -- -- -- --
09D0:                                   59 04 F8 FF FF             Y....
09E0: 7F A4 80 1F 00 DA 80 DB  80 1F 80 1F 01 1F 00 DC  ................
09F0: 80 DD 80 1F 80 1F 01 1F  00 DE 80 DF 80 1F 80 1F  ................
0A00: 01 1F 00 E0 80 E1 80 1F  80 1F 01 1F 00 26 80 27  .............&.'
0A10: 80 28 80 1F 01 6F 00                              .(...o.         
```

## Opcodes

```
  0: 0x09DB [0x59] UPDATE_ENTITY_DATA: Set EventEntity main speed = 13* * 0.1
  1: 0x09E3 [0x1F] MOVE_ENTITY: EventEntity moves to X=-34.913*, Z=97.041*, Y=-5.000*
  2: 0x09EB [0x1F] MOVE_ENTITY: Update entity position (mode=1)
  3: 0x09ED [0x1F] MOVE_ENTITY: EventEntity moves to X=-36.843*, Z=100.526*, Y=-5.000*
  4: 0x09F5 [0x1F] MOVE_ENTITY: Update entity position (mode=1)
  5: 0x09F7 [0x1F] MOVE_ENTITY: EventEntity moves to X=-38.413*, Z=104.758*, Y=-5.000*
  6: 0x09FF [0x1F] MOVE_ENTITY: Update entity position (mode=1)
  7: 0x0A01 [0x1F] MOVE_ENTITY: EventEntity moves to X=-39.062*, Z=107.483*, Y=-5.000*
  8: 0x0A09 [0x1F] MOVE_ENTITY: Update entity position (mode=1)
  9: 0x0A0B [0x1F] MOVE_ENTITY: EventEntity moves to X=-40.133*, Z=167.579*, Y=-5.023*
 10: 0x0A13 [0x1F] MOVE_ENTITY: Update entity position (mode=1)
 11: 0x0A15 [0x6F] WAIT_FRAME_DELAY: Yield until WaitTime reaches zero
 12: 0x0A16 [0x00] END_REQSTACK()
```
