# Event 53

## Metadata

| Field           | Value    |
|-----------------|----------|
| Event Index     | 6/7      |
| Offset          | 0x00F6   |
| Data Size       | 23 bytes |
| Calculated Size | 23 bytes |
| Instructions    | 11       |

```
      00 01 02 03 04 05 06 07  08 09 0A 0B 0C 0D 0E 0F
      -- -- -- -- -- -- -- --  -- -- -- -- -- -- -- --
00F0:                   1E F0  FF FF 7F 1D 02 80 23 1D        ........#.
0100: 06 80 23 1D 07 80 23 1D  08 80 23 21 00           ..#...#...#!.   
```

## Opcodes

```
  0: 0x00F6 [0x1E] EventEntity looks at LocalPlayer and starts talking
  1: 0x00FB [0x1D] PRINT_EVENT_MESSAGE(message_id=7929*)
    → "Pssst!\u0007Hey yous!\u0007Ever beens to da mine shaft alls da ways beyonds Newston?\u007F1\u0000\u0007"
  2: 0x00FE [0x23] WAIT_FOR_DIALOG_INTERACTION
  3: 0x00FF [0x1D] PRINT_EVENT_MESSAGE(message_id=7933*)
    → "Ya know, as much as I'd like to get my hands on another one o' dem jewels, I'm fresh outta levers.\u007F1\u0000\u0007"
  4: 0x0102 [0x23] WAIT_FOR_DIALOG_INTERACTION
  5: 0x0103 [0x1D] PRINT_EVENT_MESSAGE(message_id=7934*)
    → "Now says you came back on \u007F,\u0001 (\u007F+\u0001 Earth time). You visits your cousin Twinkbrix then, and I'll hooks yous up with what yous need!\u007F1\u0000\u0007"
  6: 0x0106 [0x23] WAIT_FOR_DIALOG_INTERACTION
  7: 0x0107 [0x1D] PRINT_EVENT_MESSAGE(message_id=7935*)
    → "And don't forgets to bring \u0001\u0001\u0001 \u0001\u0005$\u0002\u0000\u0000\u0000. I ain't runnin' no charity here!\u007F1\u0000\u0007"
  8: 0x010A [0x23] WAIT_FOR_DIALOG_INTERACTION
  9: 0x010B [0x21] END_EVENT
 10: 0x010C [0x00] END_REQSTACK()
```
