# Event 65535

## Metadata

| Field           | Value    |
|-----------------|----------|
| Event Index     | 4/10     |
| Offset          | 0x0027   |
| Data Size       | 49 bytes |
| Calculated Size | 49 bytes |
| Instructions    | 11       |

```
      00 01 02 03 04 05 06 07  08 09 0A 0B 0C 0D 0E 0F
      -- -- -- -- -- -- -- --  -- -- -- -- -- -- -- --
0020:                      32  04 80 1F 00 08 80 09 80         2........
0030: 07 80 1F 01 6F 86 01 F8  FF FF 7F 1E CF 70 0E 01  ....o........p..
0040: 6F 70 86 00 F8 FF FF 7F  66 0A 80 F8 FF FF 7F F8  op......f.......
0050: FF FF 7F 31 72 64 79 00                           ...1rdy.        
```

## Opcodes

```
  0: 0x0027 [0x32] ExtData[1]->MainSpeed = 40* * 0.1
  1: 0x002A [0x1F] MOVE_ENTITY: EventEntity moves to X=140.718*, Z=130.696*, Y=0.000*
  2: 0x0032 [0x1F] MOVE_ENTITY: Update entity position (mode=1)
  3: 0x0034 [0x6F] WAIT_FRAME_DELAY: Yield until WaitTime reaches zero
  4: 0x0035 [0x86] EventEntity->Render.Flags3 ^= 0x01
  5: 0x003B [0x1E] EventEntity looks at Rochefogne (ID: 17723599/0x010E70CF) and starts talking
  6: 0x0040 [0x6F] WAIT_FRAME_DELAY: Yield until WaitTime reaches zero
  7: 0x0041 [0x70] WAIT_ENTITY_RENDER_FLAG: Wait while EventEntity->Render.Flags3 bit 2 is set (cancel turn if not)
  8: 0x0042 [0x86] EventEntity->Render.Flags3 = Flags3  // No change (flag=0)
  9: 0x0048 [0x66] LOAD_EXT_SCHEDULER_MAIN: Load scheduler "1rdy" with entities [EventEntity, EventEntity], work=24*
 10: 0x0057 [0x00] END_REQSTACK()
```
