# Event 10019

## Metadata

| Field           | Value    |
|-----------------|----------|
| Event Index     | 7/9      |
| Offset          | 0x0194   |
| Data Size       | 41 bytes |
| Calculated Size | 41 bytes |
| Instructions    | 11       |

```
      00 01 02 03 04 05 06 07  08 09 0A 0B 0C 0D 0E 0F
      -- -- -- -- -- -- -- --  -- -- -- -- -- -- -- --
0190:             42 4A F0 FF  FF 7F 72 80 0F 01 1C 00      BJ....r.....
01A0: 80 1E F0 FF FF 7F 03 02  10 1B 80 2B 72 80 0F 01  ...........+r...
01B0: 1C 80 23 2B 72 80 0F 01  1D 80 23 21 00           ..#+r.....#!.   
```

## Opcodes

```
  0: 0x0194 [0x42] SET_CLI_EVENT_CANCEL_DATA()
  1: 0x0195 [0x4A] LocalPlayer looks at Jillia (ID: 17793138/0x010F8072)
  2: 0x019E [0x1C] WAIT(20* ticks)
  3: 0x01A1 [0x1E] EventEntity looks at LocalPlayer and starts talking
  4: 0x01A6 [0x03] Work_Zone[2] = 5943*
  5: 0x01AB [0x2B] Jillia (ID: 17793138/0x010F8072) [7800*]:
    → "Ohmygoddessohmygoddessohmygoddess! I never thought I'd stumble upon \u0001\u0005%\u0002\u0000\u0000\u0000 here!\u0007Thank you from the deepest part of my heart!\u007F1\u0000\u0007"
  6: 0x01B2 [0x23] WAIT_FOR_DIALOG_INTERACTION
  7: 0x01B3 [0x2B] Jillia (ID: 17793138/0x010F8072) [7801*]:
    → "How about I give you this in return?\u0007It tickles the throat and leaves you feeling refreshed.\u007F1\u0000\u0007"
  8: 0x01BA [0x23] WAIT_FOR_DIALOG_INTERACTION
  9: 0x01BB [0x21] END_EVENT
 10: 0x01BC [0x00] END_REQSTACK()
```
