# Event 65535

## Metadata

| Field           | Value    |
|-----------------|----------|
| Event Index     | 17/24    |
| Offset          | 0x00AF   |
| Data Size       | 69 bytes |
| Calculated Size | 69 bytes |
| Instructions    | 5        |

```
      00 01 02 03 04 05 06 07  08 09 0A 0B 0C 0D 0E 0F
      -- -- -- -- -- -- -- --  -- -- -- -- -- -- -- --
00A0:                                               C5                 .
00B0: 04 80 C1 43 05 01 C1 43  05 01 73 30 30 30 00 80  ...C...C..s000..
00C0: C5 04 80 C2 43 05 01 C2  43 05 01 73 30 30 31 00  ....C...C..s001.
00D0: 80 C5 04 80 C3 43 05 01  C3 43 05 01 73 30 30 32  .....C...C..s002
00E0: 00 80 C5 05 80 97 43 05  01 97 43 05 01 73 30 30  ......C...C..s00
00F0: 30 00 80 00                                       0...            
```

## Opcodes

```
  0: 0x00AF [0xC5] LOAD_SCHEDULED_TASK_ALT3: Load scheduler 0x80003030 for entities [Jet1 (ID: 17122241/0x010543C1), Jet1 (ID: 17122241/0x010543C1)], work=67*, param=12403
  1: 0x00C0 [0xC5] LOAD_SCHEDULED_TASK_ALT3: Load scheduler 0x80003130 for entities [Jet2 (ID: 17122242/0x010543C2), Jet2 (ID: 17122242/0x010543C2)], work=67*, param=12403
  2: 0x00D1 [0xC5] LOAD_SCHEDULED_TASK_ALT3: Load scheduler 0x80003230 for entities [Jet3 (ID: 17122243/0x010543C3), Jet3 (ID: 17122243/0x010543C3)], work=67*, param=12403
  3: 0x00E2 [0xC5] LOAD_SCHEDULED_TASK_ALT3: Load scheduler 0x80003030 for entities [Lilisette (ID: 17122199/0x01054397), Lilisette (ID: 17122199/0x01054397)], work=64*, param=12403
  4: 0x00F3 [0x00] END_REQSTACK()
```
