# Event 65535

## Metadata

| Field           | Value    |
|-----------------|----------|
| Event Index     | 24/24    |
| Offset          | 0x0235   |
| Data Size       | 52 bytes |
| Calculated Size | 52 bytes |
| Instructions    | 4        |

```
      00 01 02 03 04 05 06 07  08 09 0A 0B 0C 0D 0E 0F
      -- -- -- -- -- -- -- --  -- -- -- -- -- -- -- --
0230:                C5 11 80  C7 43 05 01 C7 43 05 01       ....C...C..
0240: 73 30 30 30 00 80 C5 11  80 C8 43 05 01 C8 43 05  s000......C...C.
0250: 01 73 30 30 31 00 80 C5  12 80 C6 43 05 01 C6 43  .s001......C...C
0260: 05 01 73 30 30 30 00 80  00                       ..s000...       
```

## Opcodes

```
  0: 0x0235 [0xC5] LOAD_SCHEDULED_TASK_ALT3: Load scheduler 0x80003030 for entities [Nanto1 (ID: 17122247/0x010543C7), Nanto1 (ID: 17122247/0x010543C7)], work=70*, param=12403
  1: 0x0246 [0xC5] LOAD_SCHEDULED_TASK_ALT3: Load scheduler 0x80003130 for entities [Nanto2 (ID: 17122248/0x010543C8), Nanto2 (ID: 17122248/0x010543C8)], work=70*, param=12403
  2: 0x0257 [0xC5] LOAD_SCHEDULED_TASK_ALT3: Load scheduler 0x80003030 for entities [Lilisette (ID: 17122246/0x010543C6), Lilisette (ID: 17122246/0x010543C6)], work=68*, param=12403
  3: 0x0268 [0x00] END_REQSTACK()
```
