# Event 65535

## Metadata

| Field           | Value    |
|-----------------|----------|
| Event Index     | 28/40    |
| Offset          | 0x01A1   |
| Data Size       | 49 bytes |
| Calculated Size | 49 bytes |
| Instructions    | 12       |

```
      00 01 02 03 04 05 06 07  08 09 0A 0B 0C 0D 0E 0F
      -- -- -- -- -- -- -- --  -- -- -- -- -- -- -- --
01A0:    1C 40 80 1E 24 B3 05  01 1C 07 80 32 0C 80 1F   .@..$......2...
01B0: 00 41 80 42 80 43 80 1F  01 79 00 F8 FF FF 7F 24  .A.B.C...y.....$
01C0: B3 05 01 32 18 80 1F 00  44 80 45 80 46 80 1F 01  ...2....D.E.F...
01D0: 6F 00                                             o.              
```

## Opcodes

```
  0: 0x01A1 [0x1C] WAIT(15* ticks)
  1: 0x01A4 [0x1E] EventEntity looks at Lysander (ID: 17150756/0x0105B324) and starts talking
  2: 0x01A9 [0x1C] WAIT(30* ticks)
  3: 0x01AC [0x32] ExtData[1]->MainSpeed = 10* * 0.1
  4: 0x01AF [0x1F] MOVE_ENTITY: EventEntity moves to X=387.917*, Z=-213.900*, Y=16.179*
  5: 0x01B7 [0x1F] MOVE_ENTITY: Update entity position (mode=1)
  6: 0x01B9 [0x79] EventEntity looks at Lysander (ID: 17150756/0x0105B324) (Basic look)
  7: 0x01C3 [0x32] ExtData[1]->MainSpeed = 38* * 0.1
  8: 0x01C6 [0x1F] MOVE_ENTITY: EventEntity moves to X=390.213*, Z=-214.128*, Y=16.385*
  9: 0x01CE [0x1F] MOVE_ENTITY: Update entity position (mode=1)
 10: 0x01D0 [0x6F] WAIT_FRAME_DELAY: Yield until WaitTime reaches zero
 11: 0x01D1 [0x00] END_REQSTACK()
```
