# 17224299 - Naji

## Common Data

| Field            | Value                        |
|------------------|------------------------------|
| Zone             | Pashhow Marshlands (ID: 109) |
| Block Size       | 228 bytes                    |
| Total Events     | 7                            |
| References Count | 19                           |

## List of Events

| Event ID                 | Entrypoint   |   Size |   Instructions |
|--------------------------|--------------|--------|----------------|
| [65535](#event-65535)    | 0x0000       |      1 |              1 |
| [10](#event-10)          | 0x0001       |     12 |              3 |
| [65535.1](#event-655351) | 0x000D       |     14 |              4 |
| [11](#event-11)          | 0x001B       |     12 |              3 |
| [65535.2](#event-655352) | 0x0027       |     21 |              6 |
| [65535.3](#event-655353) | 0x003C       |     19 |              5 |
| [65535.4](#event-655354) | 0x004F       |     26 |              7 |

## DAT References (imed_data)

|   Index | Hex Value   |   Dec Value |
|---------|-------------|-------------|
|       0 | 0x98DC8     |      626120 |
|       1 | 0xFFF8E8C4  |  4294502596 |
|       2 | 0x61A7      |       24999 |
|       3 | 0x0BE1      |        3041 |
|       4 | 0x0028      |          40 |
|       5 | 0x9F2EE     |      652014 |
|       6 | 0xFFF8E511  |  4294501649 |
|       7 | 0x9F5DB     |      652763 |
|       8 | 0xFFF8EA1A  |  4294502938 |
|       9 | 0x01D2      |         466 |
|      10 | 0x9A8B4     |      633012 |
|      11 | 0xFFF8E7F2  |  4294502386 |
|      12 | 0x99ACC     |      629452 |
|      13 | 0xFFF8E909  |  4294502665 |
|      14 | 0x6153      |       24915 |
|      15 | 0x99601     |      628225 |
|      16 | 0xFFF8F3C4  |  4294505412 |
|      17 | 0x9812A     |      622890 |
|      18 | 0xFFF900BA  |  4294508730 |

## Events

### Event 65535

#### Metadata

| Field        | Value   |
|--------------|---------|
| Entrypoint   | 0x0000  |
| Data Size    | 1 bytes |
| Instructions | 1       |

```
      00 01 02 03 04 05 06 07  08 09 0A 0B 0C 0D 0E 0F
      -- -- -- -- -- -- -- --  -- -- -- -- -- -- -- --
0000: 00                                                .               
```

#### Opcodes

```
  0: 0x0000 [0x00] END_REQSTACK()
```

### Event 10

#### Metadata

| Field        | Value    |
|--------------|----------|
| Entrypoint   | 0x0001   |
| Data Size    | 12 bytes |
| Instructions | 3        |

```
      00 01 02 03 04 05 06 07  08 09 0A 0B 0C 0D 0E 0F
      -- -- -- -- -- -- -- --  -- -- -- -- -- -- -- --
0000:    22 00 37 00 80 01 80  02 80 03 80 00            ".7.........   
```

#### Opcodes

```
  0: 0x0001 [0x22] ENTITY_HIDE_FLAG(enabled=0x00)
  1: 0x0003 [0x37] UPDATE_EVENT_POSITION_AND_DIR: x=626.120*, z=-464.700*, y=24.999*, direction=267.3°*
  2: 0x000C [0x00] END_REQSTACK()
```

### Event 65535.1

#### Metadata

| Field        | Value    |
|--------------|----------|
| Entrypoint   | 0x000D   |
| Data Size    | 14 bytes |
| Instructions | 4        |

```
      00 01 02 03 04 05 06 07  08 09 0A 0B 0C 0D 0E 0F
      -- -- -- -- -- -- -- --  -- -- -- -- -- -- -- --
0000:                                         32 04 80               2..
0010: 1F 00 05 80 06 80 02 80  1F 01 00                 ...........     
```

#### Opcodes

```
  0: 0x000D [0x32] ExtData[1]->MainSpeed = 40* * 0.1
  1: 0x0010 [0x1F] MOVE_ENTITY: EventEntity moves to X=652.014*, Z=-465.647*, Y=24.999*
  2: 0x0018 [0x1F] MOVE_ENTITY: Update entity position (mode=1)
  3: 0x001A [0x00] END_REQSTACK()
```

### Event 11

#### Metadata

| Field        | Value    |
|--------------|----------|
| Entrypoint   | 0x001B   |
| Data Size    | 12 bytes |
| Instructions | 3        |

```
      00 01 02 03 04 05 06 07  08 09 0A 0B 0C 0D 0E 0F
      -- -- -- -- -- -- -- --  -- -- -- -- -- -- -- --
0010:                                   22 01 37 07 80             ".7..
0020: 08 80 02 80 09 80 00                              .......         
```

#### Opcodes

```
  0: 0x001B [0x22] ENTITY_HIDE_FLAG(enabled=0x01)
  1: 0x001D [0x37] UPDATE_EVENT_POSITION_AND_DIR: x=652.763*, z=-464.358*, y=24.999*, direction=41.0°*
  2: 0x0026 [0x00] END_REQSTACK()
```

### Event 65535.2

#### Metadata

| Field        | Value    |
|--------------|----------|
| Entrypoint   | 0x0027   |
| Data Size    | 21 bytes |
| Instructions | 6        |

```
      00 01 02 03 04 05 06 07  08 09 0A 0B 0C 0D 0E 0F
      -- -- -- -- -- -- -- --  -- -- -- -- -- -- -- --
0020:                      22  00 80 F8 FF FF 7F 32 04         "......2.
0030: 80 1F 00 0A 80 0B 80 02  80 1F 01 00              ............    
```

#### Opcodes

```
  0: 0x0027 [0x22] ENTITY_HIDE_FLAG(enabled=0x00)
  1: 0x0029 [0x80] LOAD_WAIT(entity=EventEntity)
  2: 0x002E [0x32] ExtData[1]->MainSpeed = 40* * 0.1
  3: 0x0031 [0x1F] MOVE_ENTITY: EventEntity moves to X=633.012*, Z=-464.910*, Y=24.999*
  4: 0x0039 [0x1F] MOVE_ENTITY: Update entity position (mode=1)
  5: 0x003B [0x00] END_REQSTACK()
```

### Event 65535.3

#### Metadata

| Field        | Value    |
|--------------|----------|
| Entrypoint   | 0x003C   |
| Data Size    | 19 bytes |
| Instructions | 5        |

```
      00 01 02 03 04 05 06 07  08 09 0A 0B 0C 0D 0E 0F
      -- -- -- -- -- -- -- --  -- -- -- -- -- -- -- --
0030:                                      32 04 80 1F              2...
0040: 00 0C 80 0D 80 0E 80 1F  01 1E 6C D2 06 01 00     ..........l.... 
```

#### Opcodes

```
  0: 0x003C [0x32] ExtData[1]->MainSpeed = 40* * 0.1
  1: 0x003F [0x1F] MOVE_ENTITY: EventEntity moves to X=629.452*, Z=-464.631*, Y=24.915*
  2: 0x0047 [0x1F] MOVE_ENTITY: Update entity position (mode=1)
  3: 0x0049 [0x1E] EventEntity looks at Ayame (ID: 17224300/0x0106D26C) and starts talking
  4: 0x004E [0x00] END_REQSTACK()
```

### Event 65535.4

#### Metadata

| Field        | Value    |
|--------------|----------|
| Entrypoint   | 0x004F   |
| Data Size    | 26 bytes |
| Instructions | 7        |

```
      00 01 02 03 04 05 06 07  08 09 0A 0B 0C 0D 0E 0F
      -- -- -- -- -- -- -- --  -- -- -- -- -- -- -- --
0040:                                               32                 2
0050: 04 80 1F 00 0F 80 10 80  02 80 1F 01 1F 00 11 80  ................
0060: 12 80 02 80 1F 01 22 01  00                       ......"..       
```

#### Opcodes

```
  0: 0x004F [0x32] ExtData[1]->MainSpeed = 40* * 0.1
  1: 0x0052 [0x1F] MOVE_ENTITY: EventEntity moves to X=628.225*, Z=-461.884*, Y=24.999*
  2: 0x005A [0x1F] MOVE_ENTITY: Update entity position (mode=1)
  3: 0x005C [0x1F] MOVE_ENTITY: EventEntity moves to X=622.890*, Z=-458.566*, Y=24.999*
  4: 0x0064 [0x1F] MOVE_ENTITY: Update entity position (mode=1)
  5: 0x0066 [0x22] ENTITY_HIDE_FLAG(enabled=0x01)
  6: 0x0068 [0x00] END_REQSTACK()
```
