# 17224379 - Suspicious Hume

## Common Data

| Field            | Value                        |
|------------------|------------------------------|
| Zone             | Pashhow Marshlands (ID: 109) |
| Block Size       | 3612 bytes                   |
| Total Events     | 10                           |
| References Count | 116                          |

## List of Events

| Event ID              | Entrypoint   |   Size |   Instructions |
|-----------------------|--------------|--------|----------------|
| [65535](#event-65535) | 0x0000       |      1 |              1 |
| [39](#event-39)       | 0x0001       |     54 |             13 |
| [40](#event-40)       | 0x0037       |    507 |             67 |
| [41](#event-41)       | 0x0232       |     52 |             14 |
| [42](#event-42)       | 0x0266       |     34 |              8 |
| [44](#event-44)       | 0x0288       |     96 |             26 |
| [48](#event-48)       | 0x02E8       |    122 |             27 |
| [45](#event-45)       | 0x0362       |    368 |             78 |
| [46](#event-46)       | 0x04D2       |    117 |             25 |
| [47](#event-47)       | 0x0547       |   1740 |            357 |

## DAT References (imed_data)

|   Index | Hex Value   |   Dec Value |
|---------|-------------|-------------|
|       0 | 0x001E      |          30 |
|       1 | 0x0000      |           0 |
|       2 | 0x0001      |           1 |
|       3 | 0x0009      |           9 |
|       4 | 0x31D2      |       12754 |
|       5 | 0x31D3      |       12755 |
|       6 | 0x00C8      |         200 |
|       7 | 0x001B      |          27 |
|       8 | 0xFFF87CC8  |  4294474952 |
|       9 | 0xFFF688DB  |  4294346971 |
|      10 | 0x5DBF      |       23999 |
|      11 | 0x090E      |        2318 |
|      12 | 0xFFF87694  |  4294473364 |
|      13 | 0xFFF69529  |  4294350121 |
|      14 | 0x61A7      |       24999 |
|      15 | 0x00F6      |         246 |
|      16 | 0x026D      |         621 |
|      17 | 0x000F      |          15 |
|      18 | 0x00B4      |         180 |
|      19 | 0x31D4      |       12756 |
|      20 | 0x0006      |           6 |
|      21 | 0x31D5      |       12757 |
|      22 | 0x31D6      |       12758 |
|      23 | 0x31D7      |       12759 |
|      24 | 0x0358      |         856 |
|      25 | 0x039E      |         926 |
|      26 | 0x1110      |        4368 |
|      27 | 0x31D8      |       12760 |
|      28 | 0x31D9      |       12761 |
|      29 | 0x31DA      |       12762 |
|      30 | 0x092E      |        2350 |
|      31 | 0x31DB      |       12763 |
|      32 | 0x31E0      |       12768 |
|      33 | 0x31E1      |       12769 |
|      34 | 0x31E2      |       12770 |
|      35 | 0x31E3      |       12771 |
|      36 | 0x31E4      |       12772 |
|      37 | 0x31E5      |       12773 |
|      38 | 0x31E6      |       12774 |
|      39 | 0x31FC      |       12796 |
|      40 | 0x31FD      |       12797 |
|      41 | 0x31FE      |       12798 |
|      42 | 0x0005      |           5 |
|      43 | 0x3209      |       12809 |
|      44 | 0x0002      |           2 |
|      45 | 0x0003      |           3 |
|      46 | 0x0004      |           4 |
|      47 | 0x092F      |        2351 |
|      48 | 0x31FF      |       12799 |
|      49 | 0x3200      |       12800 |
|      50 | 0x007B      |         123 |
|      51 | 0x3201      |       12801 |
|      52 | 0x3202      |       12802 |
|      53 | 0x0141      |         321 |
|      54 | 0x3203      |       12803 |
|      55 | 0x0064      |         100 |
|      56 | 0x3212      |       12818 |
|      57 | 0x3213      |       12819 |
|      58 | 0x0007      |           7 |
|      59 | 0x0008      |           8 |
|      60 | 0x0017      |          23 |
|      61 | 0x3215      |       12821 |
|      62 | 0x3216      |       12822 |
|      63 | 0x3217      |       12823 |
|      64 | 0x3218      |       12824 |
|      65 | 0x40000000  |  1073741824 |
|      66 | 0x3214      |       12820 |
|      67 | 0x3219      |       12825 |
|      68 | 0x321A      |       12826 |
|      69 | 0x321B      |       12827 |
|      70 | 0x321C      |       12828 |
|      71 | 0x321E      |       12830 |
|      72 | 0x01F4      |         500 |
|      73 | 0x000B      |          11 |
|      74 | 0x321F      |       12831 |
|      75 | 0x3220      |       12832 |
|      76 | 0x000A      |          10 |
|      77 | 0x3221      |       12833 |
|      78 | 0x3222      |       12834 |
|      79 | 0x3223      |       12835 |
|      80 | 0x31E7      |       12775 |
|      81 | 0x31E8      |       12776 |
|      82 | 0x31E9      |       12777 |
|      83 | 0x31EA      |       12778 |
|      84 | 0x31EB      |       12779 |
|      85 | 0x31ED      |       12781 |
|      86 | 0x31EE      |       12782 |
|      87 | 0x31EF      |       12783 |
|      88 | 0x31F0      |       12784 |
|      89 | 0x31F1      |       12785 |
|      90 | 0x31F2      |       12786 |
|      91 | 0x31F3      |       12787 |
|      92 | 0x31F4      |       12788 |
|      93 | 0x31F5      |       12789 |
|      94 | 0x31F6      |       12790 |
|      95 | 0x31F8      |       12792 |
|      96 | 0x31F9      |       12793 |
|      97 | 0x31FA      |       12794 |
|      98 | 0x0FD3      |        4051 |
|      99 | 0x31FB      |       12795 |
|     100 | 0x3204      |       12804 |
|     101 | 0x0FD4      |        4052 |
|     102 | 0x0FD5      |        4053 |
|     103 | 0x6EE6      |       28390 |
|     104 | 0x6EE7      |       28391 |
|     105 | 0x6EE8      |       28392 |
|     106 | 0x6EE9      |       28393 |
|     107 | 0x1388      |        5000 |
|     108 | 0x2710      |       10000 |
|     109 | 0x4E20      |       20000 |
|     110 | 0x61A8      |       25000 |
|     111 | 0x3205      |       12805 |
|     112 | 0x3206      |       12806 |
|     113 | 0x3207      |       12807 |
|     114 | 0x0010      |          16 |
|     115 | 0x001F      |          31 |

## String References

- **12754**: Hist! Thou canst see the light, canst thou not? It seems thou hast the talent for which I have been searching.
- **12755**: Thy lack of experience, however, leaveth a single teary trail upon my cheek. Mayhap with more training, thou can attainest further glory.
- **12756**: Eke, thy training hath not been in vain. My only question is that, with thy great powers, dost thou not tire of this corporeal realm?
- **12757**: How do I know of thy deepest desires? 'Tis only natural, for the soul doth constantly yearn for greener pastures.
- **12758**: Yet the pasture it hath been given is finite. Each soul's lot is to one day meet with its fence. Such wanion!
- **12759**: Yet what if there were a method by which it could escape its confines and begin life anew?
- **12760**: Shouldst thou be enchanted with these adumbrations, procurest for one of my brethren $0, $1, or $2.
- **12761**: They reside in Northern San d'Oria, Port Bastok, and Port Windurst. To which thou yede is of no matter, as their message shall be the same.
- **12762**: Whether or not thou undertakest this effortless swink to free thyself from thy shackles is a choice which is wholly thine to make.
- **12763**: Slip that $3 upon thy finger and let thyself bathe in its luminescent emanations.
- **12768**: Quotha...the light that shines forth from thy soul hath brightened a considerable degree.
- **12769**: Natheless, it remaineth but a dull glow akin to twitherym dust whenas compared to the blindingly refulgent souls of more accomplished combatants.
- **12770**: To fulfil thy true potential, thou needs assume the role of gladiator and bathe in monipulator blood.
- **12771**: As a monipulator, thou hast likely reduced opponents everywhere to bawling babes at the mere mention of thy name.
- **12772**: Simultaneously, though, combatants who hath cut swaths through adversaries while inside bestial vessels betimes yearneth for more...to bite the hand that feedeth.
- **12773**: A saga sung of those who instill terror and those who release the land from it... Bwahaha, a worthy tale of spiritual strife, forsooth.
- **12774**: Now that the stage hath been set, I shall impart the extent of my gladiatorial knowledge to thee. Simply ask and thou shalt receive.
- **12775**: What shall you ask about? [Belligerency./Ranks./Prestige./Spoils./Domination./Nothing.]
- **12776**: Those who have the ambition to slay monipulators can do battle against them by speaking with [me/my Northern San d'Orian ally] or one of my brethren in either [Port Bastok or Port Windurst/Northern San d'Oria or Port Windurst/Northern San d'Oria or Port Bastok] and receiving $6.
- **12777**: This $3 is thy metaphorical muster as well as official avowal to enter belligerency.
- **12778**: While it doth provide myriad boons to thee, it preventeth not those outside thy coterie from interfering with thy duty. Such a benediction will only descend upon the yare souls who hath claimed monipulators as their prey.
- **12779**: I must also caution thee to beware that, depending on thy level of expertise, it may not behoove thee to tread upon the soils of certain lands.
- **12781**: Lastly, should thy bloodlust cease or resolve wither on the vine, speak to one of my compatriots and they shall grant thee permission to withdraw from belligerency.
- **12782**: Three ranks doth serve to classify the world's monipulator executioners. There is the eponymous "gladiator (Gla)," "champion gladiator (CG)," and "high champion gladiator (HCG)."
- **12783**: Naught else needs be explained anent this simple concept...save that a gladiator's rank is determined by his prestige.
- **12784**: Prestige is the gladiator's equivalent of the common adventurer's fame.
- **12785**: Defeating both monsters and monipulators increaseth thy prestige, while falling victim to their claws decreaseth it.
- **12786**: Each rank also hath a corresponding maximum amount of prestige, much like the infamy of monipulators.
- **12787**: Ascertaining thy current prestige is merely a trifle. (Access the "Profile" menu under "Status.")
- **12788**: Of course, prestige is not simply a means by which to boast to thy inferiors. Thou canst cede it to me in exchange for troves of splendid rewards.
- **12789**: No victory doth taste as sweet as one where the stakes are high. Flaying treacherous notorious monsters and high notorious monsters occasionally earns thee spoils of war.
- **12790**: A little cockatrice told me that monipulators even relinquish equipment betimes, so hold not back from slicing, stabbing, and spellcasting thy savage enemies to smithereens.
- **12792**: Eke, the equipment thou dost obtain may be engraved with arcane glyptics by my consorts.
- **12793**: Athwart terrestrial beings such as thee, our mezzotinting process leaveth nary a scratch on extant arcane glyptics.
- **12794**: In sooth, it would be pure idiocy to charge nothing for our services. However, I shan't discuss figures at this juncture.
- **12795**: Forget not that we must have $0 in order to engrave arcane glyptics, lest thou wish to incur the wrath of my people.
- **12796**: Thy soul pineth for more than thou canst conceive. Set it free and embark upon gladiatorial exploits the likes of which Vana'diel hath never witnessed.
- **12797**: Aroint, thou malmsey-nosed fustilarian!
- **12798**: What shall you do? [Receive $3./Return $3./Participate in PT Content./Exchange prestige./Hear an explanation./Engage in friendly banter./Nothing.]
- **12799**: Possessing $6 enableth thee to enter combat with monipulators. Dost thou assent?
- **12800**: Give your assent? [Yes./No.]
- **12801**: Thou tardy-gaited poltroon! Dost thou soothly desire to return thy $3 and withdraw?
- **12802**: Return and withdraw? [Yes./No.]
- **12803**: Bear in mind that transferring thy soul to the frames of other creatures hath its limits. Occasionally stretch thy sinews as a gladiator to both round thy world view and reach higher heights.
- **12804**: What is it thou desirest?
- **12805**: Which reward? (Prestige: $0) [$1. ($8 needed)/$2. ($9 needed)/$3. ($10 needed)/$4. ($11 needed)/$5. ($12 needed)/$6. ($13 needed)/$7. ($14 needed)/None.]
- **12806**: Thou art willing to part with $1 point[/s] of prestige to obtain this $0, nay?
- **12807**: Proceed with the exchange? (Prestige: $0) [Yes./No.]
- **12809**: Assuming the form of a monster for too many moons doth exert an unwanted influence upon thy anima. Take pleasure in thy time spent within multiple forms, but not so much that thou canst never return to thy original vessel.
- **12818**: In return for $1 point[/s] of prestige from thee, I shall [enhance the arcane glyptics extant on/engrave arcane glyptics upon] this $2.
- **12819**: This $2's [original/post-augmentation/post-enhancement] attributes are thus:
- **12820**: This $33 doth be in good...tails?
- **12821**: This $33 hath been enhanced with arcane glyptics already.
- **12822**: This $33 hath reached its limits and cannot be further enhanced, but may still evolve into newer forms.
- **12823**: This $0 hath reached its limits and cannot evolve further.
- **12824**: What do you wish to do? [Evolve the item./Mezzotint./Nothing.]
- **12825**: Which type of glyptics shall you engrave?
- **12826**: Which type do you want engraved? [Arcane Glyptic Type A./Arcane Glyptic Type B./Arcane Glyptic Type C./None.]
- **12827**: Do you wish to mezzotint your weapon so that it is primed to receive the aforementioned attribute enhancements?
- **12828**: Do you wish to mezzotint your weapon again so that it is primed to receive these attribute enhancements?
- **12830**: How do you feel about these attributes? [I heartily enjoy them./I despise them and want new ones.]
- **12831**: In return for $1 point[/s] of prestige from thee, I shall mezzotint this $2.
- **12832**: Into which weapon shalt thou evolve this specimen?
- **12833**: Which one? [None./#./$1./$2./$3./$4./$5./$6./$7.]
- **12834**: Shall this be the one?
- **12835**: How do you feel about this weapon? [I thoroughly enjoy it./I loathe it and want a new one.]

## Events

### Event 65535

#### Metadata

| Field        | Value   |
|--------------|---------|
| Entrypoint   | 0x0000  |
| Data Size    | 1 bytes |
| Instructions | 1       |

```
      00 01 02 03 04 05 06 07  08 09 0A 0B 0C 0D 0E 0F
      -- -- -- -- -- -- -- --  -- -- -- -- -- -- -- --
0000: 00                                                .               
```

#### Opcodes

```
  0: 0x0000 [0x00] END_REQSTACK()
```

### Event 39

#### Metadata

| Field        | Value    |
|--------------|----------|
| Entrypoint   | 0x0001   |
| Data Size    | 54 bytes |
| Instructions | 13       |

```
      00 01 02 03 04 05 06 07  08 09 0A 0B 0C 0D 0E 0F
      -- -- -- -- -- -- -- --  -- -- -- -- -- -- -- --
0000:    1E F0 FF FF 7F 1C 00  80 02 8B 7F 01 80 00 19   ...............
0010: 00 03 02 10 01 80 01 1E  00 03 02 10 02 80 66 03  ..............f.
0020: 80 F8 FF FF 7F F8 FF FF  7F 74 68 6B 31 1D 04 80  .........thk1...
0030: 23 1D 05 80 23 21 00                              #...#!.         
```

#### Opcodes

```
  0: 0x0001 [0x1E] EventEntity looks at LocalPlayer and starts talking
  1: 0x0006 [0x1C] WAIT(30* ticks)
  2: 0x0009 [0x02] IF !((LocalPlayer->Render.Flags01 >> 25) & 1 == 0*) GOTO 0x0019
  3: 0x0011 [0x03] Work_Zone[2] = 0*
  4: 0x0016 [0x01] GOTO 0x001E
  5: 0x0019 [0x03] Work_Zone[2] = 1*

SUBROUTINE_001E:
  6: 0x001E [0x66] LOAD_EXT_SCHEDULER_MAIN: Load scheduler "thk1" with entities [EventEntity, EventEntity], work=9*
  7: 0x002D [0x1D] PRINT_EVENT_MESSAGE(message_id=12754*)
    → "Hist! Thou canst see the light, canst thou not? It seems thou hast the talent for which I have been searching."
  8: 0x0030 [0x23] WAIT_FOR_DIALOG_INTERACTION
  9: 0x0031 [0x1D] PRINT_EVENT_MESSAGE(message_id=12755*)
    → "Thy lack of experience, however, leaveth a single teary trail upon my cheek. Mayhap with more training, thou can attainest further glory."
 10: 0x0034 [0x23] WAIT_FOR_DIALOG_INTERACTION
 11: 0x0035 [0x21] END_EVENT
 12: 0x0036 [0x00] END_REQSTACK()
```

### Event 40

#### Metadata

| Field        | Value     |
|--------------|-----------|
| Entrypoint   | 0x0037    |
| Data Size    | 507 bytes |
| Instructions | 67        |

```
      00 01 02 03 04 05 06 07  08 09 0A 0B 0C 0D 0E 0F
      -- -- -- -- -- -- -- --  -- -- -- -- -- -- -- --
0030:                      42  45 06 80 F0 FF FF 7F F0         BE.......
0040: FF FF 7F 66 64 6F 31 01  80 55 06 80 F0 FF FF 7F  ...fdo1..U......
0050: F0 FF FF 7F 66 64 6F 31  46 01 38 07 80 2F 00 BC  ....fdo1F.8../..
0060: D2 06 01 4E 00 BC D2 06  01 92 01 F8 FF FF 7F 59  ...N...........Y
0070: 05 BC D2 06 01 01 BA BC  D2 06 01 08 80 09 80 0A  ................
0080: 80 0B 80 BA F0 FF FF 7F  0C 80 0D 80 0E 80 0F 80  ................
0090: 80 BC D2 06 01 80 F0 FF  FF 7F 80 F8 FF FF 7F 80  ................
00A0: BD D2 06 01 1E F0 FF FF  7F 4A F0 FF FF 7F F8 FF  .........J......
00B0: FF 7F 1C 00 80 45 10 80  F8 FF FF 7F F8 FF FF 7F  .....E..........
00C0: 73 31 32 38 01 80 1C 11  80 45 06 80 F0 FF FF 7F  s128.....E......
00D0: F0 FF FF 7F 66 64 69 31  01 80 79 00 F0 FF FF 7F  ....fdi1..y.....
00E0: BC D2 06 01 1C 12 80 52  10 80 F8 FF FF 7F F8 FF  .......R........
00F0: FF 7F 73 31 32 38 45 10  80 F8 FF FF 7F F8 FF FF  ..s128E.........
0100: 7F 73 31 33 30 01 80 66  03 80 F8 FF FF 7F F8 FF  .s130..f........
0110: FF 7F 74 68 6B 31 79 00  F0 FF FF 7F F8 FF FF 7F  ..thk1y.........
0120: 02 8B 7F 01 80 00 30 01  03 02 10 01 80 01 35 01  ......0.......5.
0130: 03 02 10 02 80 1D 04 80  23 66 03 80 F8 FF FF 7F  ........#f......
0140: F8 FF FF 7F 74 68 6B 32  1D 13 80 23 6E F8 FF FF  ....thk2...#n...
0150: 7F 14 80 99 F8 FF FF 7F  1D 15 80 23 52 10 80 F8  ...........#R...
0160: FF FF 7F F8 FF FF 7F 73  31 33 30 45 10 80 F8 FF  .......s130E....
0170: FF 7F F8 FF FF 7F 73 31  32 39 01 80 66 03 80 F8  ......s129..f...
0180: FF FF 7F F8 FF FF 7F 74  6C 6B 30 1D 16 80 23 1D  .......tlk0...#.
0190: 17 80 23 52 10 80 F8 FF  FF 7F F8 FF FF 7F 73 31  ..#R..........s1
01A0: 32 39 45 10 80 F8 FF FF  7F F8 FF FF 7F 73 31 33  29E..........s13
01B0: 31 01 80 03 02 10 18 80  03 03 10 19 80 03 04 10  1...............
01C0: 1A 80 1D 1B 80 23 1D 1C  80 23 52 10 80 F8 FF FF  .....#...#R.....
01D0: 7F F8 FF FF 7F 73 31 33  31 45 10 80 F8 FF FF 7F  .....s131E......
01E0: F8 FF FF 7F 73 31 33 32  01 80 1D 1D 80 23 45 06  ....s132.....#E.
01F0: 80 F0 FF FF 7F F0 FF FF  7F 66 64 6F 31 01 80 55  .........fdo1..U
0200: 06 80 F0 FF FF 7F F0 FF  FF 7F 66 64 6F 31 52 10  ..........fdo1R.
0210: 80 F8 FF FF 7F F8 FF FF  7F 73 31 33 32 46 00 45  .........s132F.E
0220: 06 80 F0 FF FF 7F F0 FF  FF 7F 66 64 69 32 01 80  ..........fdi2..
0230: 21 00                                             !.              
```

#### Opcodes

```
  0: 0x0037 [0x42] SET_CLI_EVENT_CANCEL_DATA()
  1: 0x0038 [0x45] LOAD_SCHEDULED_TASK: Load scheduler "fdo1" with entities [LocalPlayer, LocalPlayer], work=[200*, 0*]
  2: 0x0049 [0x55] WAIT_LOAD_SCHEDULER: Wait for scheduler "fdo1" with entities [LocalPlayer, LocalPlayer], work=200*
  3: 0x0058 [0x46] CAMERA_CONTROL: Disable user control
  4: 0x005A [0x38] SET_CLIENT_EVENT_MODE(mode=27*)
  5: 0x005D [0x2F] Unnamed NPC (ID: 17224380/0x0106D2BC)->Render.Flags0 &= ~0x80000 // Bit 19
  6: 0x0063 [0x4E] SET_ENTITY_HIDE_FLAG: Show Unnamed NPC (ID: 17224380/0x0106D2BC)
  7: 0x0069 [0x92] EventEntity->Render.Flags3 ^= 0x01
  8: 0x006F [0x59] UPDATE_ENTITY_DATA: Unnamed NPC (ID: 17224380/0x0106D2BC)->Render.Flags0 |= 0x200000
  9: 0x0076 [0xBA] SET_ENTITY_POSITION(entity_id=Unnamed NPC (ID: 17224380/0x0106D2BC), pos_x=-492.344*, pos_z=-620.325*, pos_y=23.999*, direction=203.7°*)
 10: 0x0083 [0xBA] SET_ENTITY_POSITION(entity_id=LocalPlayer, pos_x=-493.932*, pos_z=-617.175*, pos_y=24.999*, direction=21.6°*)
 11: 0x0090 [0x80] LOAD_WAIT(entity=Unnamed NPC (ID: 17224380/0x0106D2BC))
 12: 0x0095 [0x80] LOAD_WAIT(entity=LocalPlayer)
 13: 0x009A [0x80] LOAD_WAIT(entity=EventEntity)
 14: 0x009F [0x80] LOAD_WAIT(entity=Odyssean Passage (ID: 17224381/0x0106D2BD))
 15: 0x00A4 [0x1E] EventEntity looks at LocalPlayer and starts talking
 16: 0x00A9 [0x4A] LocalPlayer looks at EventEntity
 17: 0x00B2 [0x1C] WAIT(30* ticks)
 18: 0x00B5 [0x45] LOAD_SCHEDULED_TASK: Load scheduler "s128" with entities [EventEntity, EventEntity], work=[621*, 0*]
 19: 0x00C6 [0x1C] WAIT(15* ticks)
 20: 0x00C9 [0x45] LOAD_SCHEDULED_TASK: Load scheduler "fdi1" with entities [LocalPlayer, LocalPlayer], work=[200*, 0*]
 21: 0x00DA [0x79] LocalPlayer looks at Unnamed NPC (ID: 17224380/0x0106D2BC) (Basic look)
 22: 0x00E4 [0x1C] WAIT(180* ticks)
 23: 0x00E7 [0x52] END_LOAD_SCHEDULER: End scheduler "s128" with entities [EventEntity, EventEntity], work=621*
 24: 0x00F6 [0x45] LOAD_SCHEDULED_TASK: Load scheduler "s130" with entities [EventEntity, EventEntity], work=[621*, 0*]
 25: 0x0107 [0x66] LOAD_EXT_SCHEDULER_MAIN: Load scheduler "thk1" with entities [EventEntity, EventEntity], work=9*
 26: 0x0116 [0x79] LocalPlayer looks at EventEntity (Basic look)
 27: 0x0120 [0x02] IF !((LocalPlayer->Render.Flags01 >> 25) & 1 == 0*) GOTO 0x0130
 28: 0x0128 [0x03] Work_Zone[2] = 0*
 29: 0x012D [0x01] GOTO 0x0135
 30: 0x0130 [0x03] Work_Zone[2] = 1*

SUBROUTINE_0135:
 31: 0x0135 [0x1D] PRINT_EVENT_MESSAGE(message_id=12754*)
    → "Hist! Thou canst see the light, canst thou not? It seems thou hast the talent for which I have been searching."
 32: 0x0138 [0x23] WAIT_FOR_DIALOG_INTERACTION
 33: 0x0139 [0x66] LOAD_EXT_SCHEDULER_MAIN: Load scheduler "thk2" with entities [EventEntity, EventEntity], work=9*
 34: 0x0148 [0x1D] PRINT_EVENT_MESSAGE(message_id=12756*)
    → "Eke, thy training hath not been in vain. My only question is that, with thy great powers, dost thou not tire of this corporeal realm?"
 35: 0x014B [0x23] WAIT_FOR_DIALOG_INTERACTION
 36: 0x014C [0x6E] EventEntity uses emote 6*
 37: 0x0153 [0x99] Wait for EventEntity animation to complete
 38: 0x0158 [0x1D] PRINT_EVENT_MESSAGE(message_id=12757*)
    → "How do I know of thy deepest desires? 'Tis only natural, for the soul doth constantly yearn for greener pastures."
 39: 0x015B [0x23] WAIT_FOR_DIALOG_INTERACTION
 40: 0x015C [0x52] END_LOAD_SCHEDULER: End scheduler "s130" with entities [EventEntity, EventEntity], work=621*
 41: 0x016B [0x45] LOAD_SCHEDULED_TASK: Load scheduler "s129" with entities [EventEntity, EventEntity], work=[621*, 0*]
 42: 0x017C [0x66] LOAD_EXT_SCHEDULER_MAIN: Load scheduler "tlk0" with entities [EventEntity, EventEntity], work=9*
 43: 0x018B [0x1D] PRINT_EVENT_MESSAGE(message_id=12758*)
    → "Yet the pasture it hath been given is finite. Each soul's lot is to one day meet with its fence. Such wanion!"
 44: 0x018E [0x23] WAIT_FOR_DIALOG_INTERACTION
 45: 0x018F [0x1D] PRINT_EVENT_MESSAGE(message_id=12759*)
    → "Yet what if there were a method by which it could escape its confines and begin life anew?"
 46: 0x0192 [0x23] WAIT_FOR_DIALOG_INTERACTION
 47: 0x0193 [0x52] END_LOAD_SCHEDULER: End scheduler "s129" with entities [EventEntity, EventEntity], work=621*
 48: 0x01A2 [0x45] LOAD_SCHEDULED_TASK: Load scheduler "s131" with entities [EventEntity, EventEntity], work=[621*, 0*]
 49: 0x01B3 [0x03] Work_Zone[2] = 856*
 50: 0x01B8 [0x03] Work_Zone[3] = 926*
 51: 0x01BD [0x03] Work_Zone[4] = 4368*
 52: 0x01C2 [0x1D] PRINT_EVENT_MESSAGE(message_id=12760*)
    → "Shouldst thou be enchanted with these adumbrations, procurest for one of my brethren $0, $1, or $2."
 53: 0x01C5 [0x23] WAIT_FOR_DIALOG_INTERACTION
 54: 0x01C6 [0x1D] PRINT_EVENT_MESSAGE(message_id=12761*)
    → "They reside in Northern San d'Oria, Port Bastok, and Port Windurst. To which thou yede is of no matter, as their message shall be the same."
 55: 0x01C9 [0x23] WAIT_FOR_DIALOG_INTERACTION
 56: 0x01CA [0x52] END_LOAD_SCHEDULER: End scheduler "s131" with entities [EventEntity, EventEntity], work=621*
 57: 0x01D9 [0x45] LOAD_SCHEDULED_TASK: Load scheduler "s132" with entities [EventEntity, EventEntity], work=[621*, 0*]
 58: 0x01EA [0x1D] PRINT_EVENT_MESSAGE(message_id=12762*)
    → "Whether or not thou undertakest this effortless swink to free thyself from thy shackles is a choice which is wholly thine to make."
 59: 0x01ED [0x23] WAIT_FOR_DIALOG_INTERACTION
 60: 0x01EE [0x45] LOAD_SCHEDULED_TASK: Load scheduler "fdo1" with entities [LocalPlayer, LocalPlayer], work=[200*, 0*]
 61: 0x01FF [0x55] WAIT_LOAD_SCHEDULER: Wait for scheduler "fdo1" with entities [LocalPlayer, LocalPlayer], work=200*
 62: 0x020E [0x52] END_LOAD_SCHEDULER: End scheduler "s132" with entities [EventEntity, EventEntity], work=621*
 63: 0x021D [0x46] CAMERA_CONTROL: Restore default settings
 64: 0x021F [0x45] LOAD_SCHEDULED_TASK: Load scheduler "fdi2" with entities [LocalPlayer, LocalPlayer], work=[200*, 0*]
 65: 0x0230 [0x21] END_EVENT
 66: 0x0231 [0x00] END_REQSTACK()
```

### Event 41

#### Metadata

| Field        | Value    |
|--------------|----------|
| Entrypoint   | 0x0232   |
| Data Size    | 52 bytes |
| Instructions | 14       |

```
      00 01 02 03 04 05 06 07  08 09 0A 0B 0C 0D 0E 0F
      -- -- -- -- -- -- -- --  -- -- -- -- -- -- -- --
0230:       1E F0 FF FF 7F 1C  00 80 03 02 10 18 80 03    ..............
0240: 03 10 19 80 03 04 10 1A  80 66 03 80 F8 FF FF 7F  .........f......
0250: F8 FF FF 7F 74 6C 6B 30  1D 1B 80 23 1D 1C 80 23  ....tlk0...#...#
0260: 1D 1D 80 23 21 00                                 ...#!.          
```

#### Opcodes

```
  0: 0x0232 [0x1E] EventEntity looks at LocalPlayer and starts talking
  1: 0x0237 [0x1C] WAIT(30* ticks)
  2: 0x023A [0x03] Work_Zone[2] = 856*
  3: 0x023F [0x03] Work_Zone[3] = 926*
  4: 0x0244 [0x03] Work_Zone[4] = 4368*
  5: 0x0249 [0x66] LOAD_EXT_SCHEDULER_MAIN: Load scheduler "tlk0" with entities [EventEntity, EventEntity], work=9*
  6: 0x0258 [0x1D] PRINT_EVENT_MESSAGE(message_id=12760*)
    → "Shouldst thou be enchanted with these adumbrations, procurest for one of my brethren $0, $1, or $2."
  7: 0x025B [0x23] WAIT_FOR_DIALOG_INTERACTION
  8: 0x025C [0x1D] PRINT_EVENT_MESSAGE(message_id=12761*)
    → "They reside in Northern San d'Oria, Port Bastok, and Port Windurst. To which thou yede is of no matter, as their message shall be the same."
  9: 0x025F [0x23] WAIT_FOR_DIALOG_INTERACTION
 10: 0x0260 [0x1D] PRINT_EVENT_MESSAGE(message_id=12762*)
    → "Whether or not thou undertakest this effortless swink to free thyself from thy shackles is a choice which is wholly thine to make."
 11: 0x0263 [0x23] WAIT_FOR_DIALOG_INTERACTION
 12: 0x0264 [0x21] END_EVENT
 13: 0x0265 [0x00] END_REQSTACK()
```

### Event 42

#### Metadata

| Field        | Value    |
|--------------|----------|
| Entrypoint   | 0x0266   |
| Data Size    | 34 bytes |
| Instructions | 8        |

```
      00 01 02 03 04 05 06 07  08 09 0A 0B 0C 0D 0E 0F
      -- -- -- -- -- -- -- --  -- -- -- -- -- -- -- --
0260:                   1E F0  FF FF 7F 1C 00 80 66 03        ........f.
0270: 80 F8 FF FF 7F F8 FF FF  7F 74 6C 6B 30 03 02 10  .........tlk0...
0280: 1E 80 1D 1F 80 23 21 00                           .....#!.        
```

#### Opcodes

```
  0: 0x0266 [0x1E] EventEntity looks at LocalPlayer and starts talking
  1: 0x026B [0x1C] WAIT(30* ticks)
  2: 0x026E [0x66] LOAD_EXT_SCHEDULER_MAIN: Load scheduler "tlk0" with entities [EventEntity, EventEntity], work=9*
  3: 0x027D [0x03] Work_Zone[2] = 2350*
  4: 0x0282 [0x1D] PRINT_EVENT_MESSAGE(message_id=12763*)
    → "Slip that $3 upon thy finger and let thyself bathe in its luminescent emanations."
  5: 0x0285 [0x23] WAIT_FOR_DIALOG_INTERACTION
  6: 0x0286 [0x21] END_EVENT
  7: 0x0287 [0x00] END_REQSTACK()
```

### Event 44

#### Metadata

| Field        | Value    |
|--------------|----------|
| Entrypoint   | 0x0288   |
| Data Size    | 96 bytes |
| Instructions | 26       |

```
      00 01 02 03 04 05 06 07  08 09 0A 0B 0C 0D 0E 0F
      -- -- -- -- -- -- -- --  -- -- -- -- -- -- -- --
0280:                          03 04 00 01 80 42 1E F0          .....B..
0290: FF FF 7F 1C 00 80 66 03  80 F8 FF FF 7F F8 FF FF  ......f.........
02A0: 7F 74 6C 6B 30 1D 20 80  23 1D 21 80 23 1D 22 80  .tlk0. .#.!.#.".
02B0: 23 1D 23 80 23 1D 24 80  23 1D 25 80 23 1D 26 80  #.#.#.$.#.%.#.&.
02C0: 23 66 03 80 F8 FF FF 7F  F8 FF FF 7F 74 6C 6B 31  #f..........tlk1
02D0: 1A 11 09 66 03 80 F8 FF  FF 7F F8 FF FF 7F 74 6C  ...f..........tl
02E0: 6B 30 1D 27 80 23 21 00                           k0.'.#!.        
```

#### Opcodes

```
  0: 0x0288 [0x03] ExtData[1]->WorkLocal[4] = 0*
  1: 0x028D [0x42] SET_CLI_EVENT_CANCEL_DATA()
  2: 0x028E [0x1E] EventEntity looks at LocalPlayer and starts talking
  3: 0x0293 [0x1C] WAIT(30* ticks)
  4: 0x0296 [0x66] LOAD_EXT_SCHEDULER_MAIN: Load scheduler "tlk0" with entities [EventEntity, EventEntity], work=9*
  5: 0x02A5 [0x1D] PRINT_EVENT_MESSAGE(message_id=12768*)
    → "Quotha...the light that shines forth from thy soul hath brightened a considerable degree."
  6: 0x02A8 [0x23] WAIT_FOR_DIALOG_INTERACTION
  7: 0x02A9 [0x1D] PRINT_EVENT_MESSAGE(message_id=12769*)
    → "Natheless, it remaineth but a dull glow akin to twitherym dust whenas compared to the blindingly refulgent souls of more accomplished combatants."
  8: 0x02AC [0x23] WAIT_FOR_DIALOG_INTERACTION
  9: 0x02AD [0x1D] PRINT_EVENT_MESSAGE(message_id=12770*)
    → "To fulfil thy true potential, thou needs assume the role of gladiator and bathe in monipulator blood."
 10: 0x02B0 [0x23] WAIT_FOR_DIALOG_INTERACTION
 11: 0x02B1 [0x1D] PRINT_EVENT_MESSAGE(message_id=12771*)
    → "As a monipulator, thou hast likely reduced opponents everywhere to bawling babes at the mere mention of thy name."
 12: 0x02B4 [0x23] WAIT_FOR_DIALOG_INTERACTION
 13: 0x02B5 [0x1D] PRINT_EVENT_MESSAGE(message_id=12772*)
    → "Simultaneously, though, combatants who hath cut swaths through adversaries while inside bestial vessels betimes yearneth for more...to bite the hand that feedeth."
 14: 0x02B8 [0x23] WAIT_FOR_DIALOG_INTERACTION
 15: 0x02B9 [0x1D] PRINT_EVENT_MESSAGE(message_id=12773*)
    → "A saga sung of those who instill terror and those who release the land from it... Bwahaha, a worthy tale of spiritual strife, forsooth."
 16: 0x02BC [0x23] WAIT_FOR_DIALOG_INTERACTION
 17: 0x02BD [0x1D] PRINT_EVENT_MESSAGE(message_id=12774*)
    → "Now that the stage hath been set, I shall impart the extent of my gladiatorial knowledge to thee. Simply ask and thou shalt receive."
 18: 0x02C0 [0x23] WAIT_FOR_DIALOG_INTERACTION
 19: 0x02C1 [0x66] LOAD_EXT_SCHEDULER_MAIN: Load scheduler "tlk1" with entities [EventEntity, EventEntity], work=9*
 20: 0x02D0 [0x1A] CALL_SUBROUTINE(address=0x0911)
 21: 0x02D3 [0x66] LOAD_EXT_SCHEDULER_MAIN: Load scheduler "tlk0" with entities [EventEntity, EventEntity], work=9*
 22: 0x02E2 [0x1D] PRINT_EVENT_MESSAGE(message_id=12796*)
    → "Thy soul pineth for more than thou canst conceive. Set it free and embark upon gladiatorial exploits the likes of which Vana'diel hath never witnessed."
 23: 0x02E5 [0x23] WAIT_FOR_DIALOG_INTERACTION
 24: 0x02E6 [0x21] END_EVENT
 25: 0x02E7 [0x00] END_REQSTACK()
```

### Event 48

#### Metadata

| Field        | Value     |
|--------------|-----------|
| Entrypoint   | 0x02E8    |
| Data Size    | 122 bytes |
| Instructions | 26        |

```
      00 01 02 03 04 05 06 07  08 09 0A 0B 0C 0D 0E 0F
      -- -- -- -- -- -- -- --  -- -- -- -- -- -- -- --
02E0:                          03 02 00 04 10 03 03 00          ........
02F0: 11 80 1D 28 80 23 24 29  80 01 80 03 00 25 02 00  ...(.#$).....%..
0300: 10 2A 80 00 0B 03 21 00  01 0B 03 66 03 80 F8 FF  .*....!....f....
0310: FF 7F F8 FF FF 7F 74 6C  6B 30 1D 2B 80 23 02 02  ......tlk0.+.#..
0320: 00 01 80 80 29 03 01 60  03 02 02 00 02 80 80 34  ....)..`.......4
0330: 03 01 60 03 02 02 00 2C  80 80 3F 03 01 60 03 02  ..`....,..?..`..
0340: 02 00 2D 80 80 4A 03 01  60 03 02 02 00 2E 80 80  ..-..J..`.......
0350: 55 03 01 60 03 02 02 00  2A 80 80 60 03 01 60 03  U..`....*..`..`.
0360: 21 00                                             !.              
```

#### Opcodes

```
  0: 0x02E8 [0x03] ExtData[1]->WorkLocal[2] = Work_Zone[4]
  1: 0x02ED [0x03] ExtData[1]->WorkLocal[3] = 15*
  2: 0x02F2 [0x1D] PRINT_EVENT_MESSAGE(message_id=12797*)
    → "Aroint, thou malmsey-nosed fustilarian!"
  3: 0x02F5 [0x23] WAIT_FOR_DIALOG_INTERACTION
  4: 0x02F6 [0x24] CREATE_DIALOG(message_id=12798*, default_option=0*, option_flags=ExtData[1]->WorkLocal[3])
    → "What shall you do? [Receive $3./Return $3./Participate in PT Content./Exchange prestige./Hear an explanation./Engage in friendly banter./Nothing.]"
  5: 0x02FD [0x25] WAIT_DIALOG_SELECT()
  6: 0x02FE [0x02] IF !(Work_Zone[0] == 5*) GOTO 0x030B
  7: 0x0306 [0x21] END_EVENT
  8: 0x0307 [0x00] END_REQSTACK()

SUBROUTINE_030B:
  9: 0x030B [0x66] LOAD_EXT_SCHEDULER_MAIN: Load scheduler "tlk0" with entities [EventEntity, EventEntity], work=9*
 10: 0x031A [0x1D] PRINT_EVENT_MESSAGE(message_id=12809*)
    → "Assuming the form of a monster for too many moons doth exert an unwanted influence upon thy anima. Take pleasure in thy time spent within multiple forms, but not so much that thou canst never return to thy original vessel."
 11: 0x031D [0x23] WAIT_FOR_DIALOG_INTERACTION
 12: 0x031E [0x02] IF !(ExtData[1]->WorkLocal[2] == 0*) GOTO 0x0329
 13: 0x0326 [0x01] GOTO 0x0360
 14: 0x0329 [0x02] IF !(ExtData[1]->WorkLocal[2] == 1*) GOTO 0x0334
 15: 0x0331 [0x01] GOTO 0x0360
 16: 0x0334 [0x02] IF !(ExtData[1]->WorkLocal[2] == 2*) GOTO 0x033F
 17: 0x033C [0x01] GOTO 0x0360
 18: 0x033F [0x02] IF !(ExtData[1]->WorkLocal[2] == 3*) GOTO 0x034A
 19: 0x0347 [0x01] GOTO 0x0360
 20: 0x034A [0x02] IF !(ExtData[1]->WorkLocal[2] == 4*) GOTO 0x0355
 21: 0x0352 [0x01] GOTO 0x0360
 22: 0x0355 [0x02] IF !(ExtData[1]->WorkLocal[2] == 5*) GOTO 0x0360
 23: 0x035D [0x01] GOTO 0x0360

SUBROUTINE_0360:
 24: 0x0360 [0x21] END_EVENT
 25: 0x0361 [0x00] END_REQSTACK()
```

#### Data or dead code:

```
# Dead code (unreachable instructions):
     0x0308 [0x01] GOTO 0x030B
```

### Event 45

#### Metadata

| Field        | Value     |
|--------------|-----------|
| Entrypoint   | 0x0362    |
| Data Size    | 368 bytes |
| Instructions | 78        |

```
      00 01 02 03 04 05 06 07  08 09 0A 0B 0C 0D 0E 0F
      -- -- -- -- -- -- -- --  -- -- -- -- -- -- -- --
0360:       03 00 00 01 80 03  01 00 01 80 03 02 00 01    ..............
0370: 80 03 03 00 01 80 03 00  00 02 10 03 01 00 03 10  ................
0380: 03 02 00 04 10 03 04 00  05 10 02 00 00 01 80 00  ................
0390: 9C 03 3C 03 00 02 80 02  80 01 A3 03 3C 03 00 01  ..<.........<...
03A0: 80 02 80 02 04 00 01 80  00 B2 03 3C 03 00 2C 80  ...........<..,.
03B0: 02 80 1E F0 FF FF 7F 1C  00 80 1D 26 80 23 66 03  ...........&.#f.
03C0: 80 F8 FF FF 7F F8 FF FF  7F 74 6C 6B 31 3C 03 00  .........tlk1<..
03D0: 01 80 02 80 3C 03 00 02  80 02 80 3C 03 00 2C 80  ....<......<..,.
03E0: 02 80 05 06 00 02 06 00  01 80 02 D0 04 03 02 10  ................
03F0: 2F 80 24 29 80 01 80 03  00 25 02 00 10 01 80 00  /.$).....%......
0400: 42 04 03 02 10 2F 80 1D  30 80 23 03 02 10 2F 80  B..../..0.#.../.
0410: 24 31 80 02 80 01 80 25  02 00 10 01 80 00 34 04  $1.....%......4.
0420: 42 40 01 80 11 80 01 10  32 80 1D 27 80 23 06 06  B@......2..'.#..
0430: 00 01 3F 04 02 00 10 02  80 00 3F 04 01 3F 04 01  ..?.......?..?..
0440: CD 04 02 00 10 02 80 00  8A 04 03 02 10 2F 80 1D  ............./..
0450: 33 80 23 03 02 10 2F 80  24 34 80 02 80 01 80 25  3.#.../.$4.....%
0460: 02 00 10 01 80 00 7C 04  42 40 01 80 11 80 01 10  ......|.B@......
0470: 35 80 1D 36 80 23 06 06  00 01 87 04 02 00 10 02  5..6.#..........
0480: 80 00 87 04 01 87 04 01  CD 04 02 00 10 2C 80 00  .............,..
0490: 95 04 01 CD 04 02 00 10  2D 80 00 A3 04 1A 5F 0A  ........-....._.
04A0: 01 CD 04 02 00 10 2E 80  00 B1 04 1A 11 09 01 CD  ................
04B0: 04 02 00 10 2A 80 00 BF  04 1A B6 0B 01 CD 04 02  ....*...........
04C0: 00 10 14 80 00 CD 04 06  06 00 01 CD 04 01 E5 03  ................
04D0: 21 00                                             !.              
```

#### Opcodes

```
  0: 0x0362 [0x03] ExtData[1]->WorkLocal[0] = 0*
  1: 0x0367 [0x03] ExtData[1]->WorkLocal[1] = 0*
  2: 0x036C [0x03] ExtData[1]->WorkLocal[2] = 0*
  3: 0x0371 [0x03] ExtData[1]->WorkLocal[3] = 0*
  4: 0x0376 [0x03] ExtData[1]->WorkLocal[0] = Work_Zone[2]
  5: 0x037B [0x03] ExtData[1]->WorkLocal[1] = Work_Zone[3]
  6: 0x0380 [0x03] ExtData[1]->WorkLocal[2] = Work_Zone[4]
  7: 0x0385 [0x03] ExtData[1]->WorkLocal[4] = Work_Zone[5]
  8: 0x038A [0x02] IF !(ExtData[1]->WorkLocal[0] == 0*) GOTO 0x039C
  9: 0x0392 [0x3C] SET_BIT_FLAG_CONDITIONAL(target_work_offset=ExtData[1]->WorkLocal[3], bit_index_work_offset=1*, condition_work_offset=1*)
 10: 0x0399 [0x01] GOTO 0x03A3
 11: 0x039C [0x3C] SET_BIT_FLAG_CONDITIONAL(target_work_offset=ExtData[1]->WorkLocal[3], bit_index_work_offset=0*, condition_work_offset=1*)

SUBROUTINE_03A3:
 12: 0x03A3 [0x02] IF !(ExtData[1]->WorkLocal[4] == 0*) GOTO 0x03B2
 13: 0x03AB [0x3C] SET_BIT_FLAG_CONDITIONAL(target_work_offset=ExtData[1]->WorkLocal[3], bit_index_work_offset=2*, condition_work_offset=1*)
 14: 0x03B2 [0x1E] EventEntity looks at LocalPlayer and starts talking
 15: 0x03B7 [0x1C] WAIT(30* ticks)
 16: 0x03BA [0x1D] PRINT_EVENT_MESSAGE(message_id=12774*)
    → "Now that the stage hath been set, I shall impart the extent of my gladiatorial knowledge to thee. Simply ask and thou shalt receive."
 17: 0x03BD [0x23] WAIT_FOR_DIALOG_INTERACTION
 18: 0x03BE [0x66] LOAD_EXT_SCHEDULER_MAIN: Load scheduler "tlk1" with entities [EventEntity, EventEntity], work=9*
 19: 0x03CD [0x3C] SET_BIT_FLAG_CONDITIONAL(target_work_offset=ExtData[1]->WorkLocal[3], bit_index_work_offset=0*, condition_work_offset=1*)
 20: 0x03D4 [0x3C] SET_BIT_FLAG_CONDITIONAL(target_work_offset=ExtData[1]->WorkLocal[3], bit_index_work_offset=1*, condition_work_offset=1*)
 21: 0x03DB [0x3C] SET_BIT_FLAG_CONDITIONAL(target_work_offset=ExtData[1]->WorkLocal[3], bit_index_work_offset=2*, condition_work_offset=1*)
 22: 0x03E2 [0x05] ExtData[1]->WorkLocal[6] = 1

SUBROUTINE_03E5:
 23: 0x03E5 [0x02] IF !(ExtData[1]->WorkLocal[6] <= 0*) GOTO 0x04D0
 24: 0x03ED [0x03] Work_Zone[2] = 2351*
 25: 0x03F2 [0x24] CREATE_DIALOG(message_id=12798*, default_option=0*, option_flags=ExtData[1]->WorkLocal[3])
    → "What shall you do? [Receive $3./Return $3./Participate in PT Content./Exchange prestige./Hear an explanation./Engage in friendly banter./Nothing.]"
 26: 0x03F9 [0x25] WAIT_DIALOG_SELECT()
 27: 0x03FA [0x02] IF !(Work_Zone[0] == 0*) GOTO 0x0442
 28: 0x0402 [0x03] Work_Zone[2] = 2351*
 29: 0x0407 [0x1D] PRINT_EVENT_MESSAGE(message_id=12799*)
    → "Possessing $6 enableth thee to enter combat with monipulators. Dost thou assent?"
 30: 0x040A [0x23] WAIT_FOR_DIALOG_INTERACTION
 31: 0x040B [0x03] Work_Zone[2] = 2351*
 32: 0x0410 [0x24] CREATE_DIALOG(message_id=12800*, default_option=1*, option_flags=0*)
    → "Give your assent? [Yes./No.]"
 33: 0x0417 [0x25] WAIT_DIALOG_SELECT()
 34: 0x0418 [0x02] IF !(Work_Zone[0] == 0*) GOTO 0x0434
 35: 0x0420 [0x42] SET_CLI_EVENT_CANCEL_DATA()
 36: 0x0421 [0x40] SET_BIT_WORK_RANGE(start_bit=0*, end_bit=15*, target=Work_Zone[1], source=123*)
 37: 0x042A [0x1D] PRINT_EVENT_MESSAGE(message_id=12796*)
    → "Thy soul pineth for more than thou canst conceive. Set it free and embark upon gladiatorial exploits the likes of which Vana'diel hath never witnessed."
 38: 0x042D [0x23] WAIT_FOR_DIALOG_INTERACTION
 39: 0x042E [0x06] ExtData[1]->WorkLocal[6] = 0
 40: 0x0431 [0x01] GOTO 0x043F
 41: 0x0434 [0x02] IF !(Work_Zone[0] == 1*) GOTO 0x043F
 42: 0x043C [0x01] GOTO 0x043F

SUBROUTINE_043F:
 43: 0x043F [0x01] GOTO 0x04CD
 44: 0x0442 [0x02] IF !(Work_Zone[0] == 1*) GOTO 0x048A
 45: 0x044A [0x03] Work_Zone[2] = 2351*
 46: 0x044F [0x1D] PRINT_EVENT_MESSAGE(message_id=12801*)
    → "Thou tardy-gaited poltroon! Dost thou soothly desire to return thy $3 and withdraw?"
 47: 0x0452 [0x23] WAIT_FOR_DIALOG_INTERACTION
 48: 0x0453 [0x03] Work_Zone[2] = 2351*
 49: 0x0458 [0x24] CREATE_DIALOG(message_id=12802*, default_option=1*, option_flags=0*)
    → "Return and withdraw? [Yes./No.]"
 50: 0x045F [0x25] WAIT_DIALOG_SELECT()
 51: 0x0460 [0x02] IF !(Work_Zone[0] == 0*) GOTO 0x047C
 52: 0x0468 [0x42] SET_CLI_EVENT_CANCEL_DATA()
 53: 0x0469 [0x40] SET_BIT_WORK_RANGE(start_bit=0*, end_bit=15*, target=Work_Zone[1], source=321*)
 54: 0x0472 [0x1D] PRINT_EVENT_MESSAGE(message_id=12803*)
    → "Bear in mind that transferring thy soul to the frames of other creatures hath its limits. Occasionally stretch thy sinews as a gladiator to both round thy world view and reach higher heights."
 55: 0x0475 [0x23] WAIT_FOR_DIALOG_INTERACTION
 56: 0x0476 [0x06] ExtData[1]->WorkLocal[6] = 0
 57: 0x0479 [0x01] GOTO 0x0487
 58: 0x047C [0x02] IF !(Work_Zone[0] == 1*) GOTO 0x0487
 59: 0x0484 [0x01] GOTO 0x0487

SUBROUTINE_0487:
 60: 0x0487 [0x01] GOTO 0x04CD
 61: 0x048A [0x02] IF !(Work_Zone[0] == 2*) GOTO 0x0495
 62: 0x0492 [0x01] GOTO 0x04CD
 63: 0x0495 [0x02] IF !(Work_Zone[0] == 3*) GOTO 0x04A3
 64: 0x049D [0x1A] CALL_SUBROUTINE(address=0x0A5F)
 65: 0x04A0 [0x01] GOTO 0x04CD
 66: 0x04A3 [0x02] IF !(Work_Zone[0] == 4*) GOTO 0x04B1
 67: 0x04AB [0x1A] CALL_SUBROUTINE(address=0x0911)
 68: 0x04AE [0x01] GOTO 0x04CD
 69: 0x04B1 [0x02] IF !(Work_Zone[0] == 5*) GOTO 0x04BF
 70: 0x04B9 [0x1A] CALL_SUBROUTINE(address=0x0BB6)
 71: 0x04BC [0x01] GOTO 0x04CD
 72: 0x04BF [0x02] IF !(Work_Zone[0] == 6*) GOTO 0x04CD
 73: 0x04C7 [0x06] ExtData[1]->WorkLocal[6] = 0
 74: 0x04CA [0x01] GOTO 0x04CD

SUBROUTINE_04CD:
 75: 0x04CD [0x01] GOTO 0x03E5
 76: 0x04D0 [0x21] END_EVENT
 77: 0x04D1 [0x00] END_REQSTACK()
```

### Event 46

#### Metadata

| Field        | Value     |
|--------------|-----------|
| Entrypoint   | 0x04D2    |
| Data Size    | 117 bytes |
| Instructions | 25        |

```
      00 01 02 03 04 05 06 07  08 09 0A 0B 0C 0D 0E 0F
      -- -- -- -- -- -- -- --  -- -- -- -- -- -- -- --
04D0:       42 1E F0 FF FF 7F  1A FD 0B 03 09 00 02 10    B.............
04E0: 03 0F 00 04 10 03 10 00  05 10 03 11 00 06 10 03  ................
04F0: 12 00 07 10 03 13 00 08  10 03 14 00 09 10 03 03  ................
0500: 10 37 80 03 04 10 09 00  03 05 10 02 80 48 38 80  .7...........H8.
0510: 23 CC 01 09 00 12 00 13  00 14 00 03 03 10 2C 80  #.............,.
0520: 03 04 10 09 00 48 39 80  23 CC 01 01 80 01 80 01  .....H9.#.......
0530: 80 01 80 40 01 80 3A 80  01 10 3A 80 40 3B 80 3C  ...@..:...:.@;.<
0540: 80 01 10 01 80 21 00                              .....!.         
```

#### Opcodes

```
  0: 0x04D2 [0x42] SET_CLI_EVENT_CANCEL_DATA()
  1: 0x04D3 [0x1E] EventEntity looks at LocalPlayer and starts talking
  2: 0x04D8 [0x1A] CALL_SUBROUTINE(address=0x0BFD)
  3: 0x04DB [0x03] ExtData[1]->WorkLocal[9] = Work_Zone[2]
  4: 0x04E0 [0x03] ExtData[1]->WorkLocal[15] = Work_Zone[4]
  5: 0x04E5 [0x03] ExtData[1]->WorkLocal[16] = Work_Zone[5]
  6: 0x04EA [0x03] ExtData[1]->WorkLocal[17] = Work_Zone[6]
  7: 0x04EF [0x03] ExtData[1]->WorkLocal[18] = Work_Zone[7]
  8: 0x04F4 [0x03] ExtData[1]->WorkLocal[19] = Work_Zone[8]
  9: 0x04F9 [0x03] ExtData[1]->WorkLocal[20] = Work_Zone[9]
 10: 0x04FE [0x03] Work_Zone[3] = 100*
 11: 0x0503 [0x03] Work_Zone[4] = ExtData[1]->WorkLocal[9]
 12: 0x0508 [0x03] Work_Zone[5] = 1*
 13: 0x050D [0x48] [System] [12818*]:
    → "In return for $1 point[/s] of prestige from thee, I shall [enhance the arcane glyptics extant on/engrave arcane glyptics upon] this $2."
 14: 0x0510 [0x23] WAIT_FOR_DIALOG_INTERACTION
 15: 0x0511 [0xCC] ITEM_INFO_WINDOW_HANDLER(case=0x01 - Open item info window (with chase), check_value=ExtData[1]->WorkLocal[9], buffer1=ExtData[1]->WorkLocal[18], buffer2=ExtData[1]->WorkLocal[19], buffer3=ExtData[1]->WorkLocal[20])
 16: 0x051B [0x03] Work_Zone[3] = 2*
 17: 0x0520 [0x03] Work_Zone[4] = ExtData[1]->WorkLocal[9]
 18: 0x0525 [0x48] [System] [12819*]:
    → "This $2's [original/post-augmentation/post-enhancement] attributes are thus:"
 19: 0x0528 [0x23] WAIT_FOR_DIALOG_INTERACTION
 20: 0x0529 [0xCC] ITEM_INFO_WINDOW_HANDLER(case=0x01 - Open item info window (with chase), check_value=0*, buffer1=0*, buffer2=0*, buffer3=0*)
 21: 0x0533 [0x40] SET_BIT_WORK_RANGE(start_bit=0*, end_bit=7*, target=Work_Zone[1], source=7*)
 22: 0x053C [0x40] SET_BIT_WORK_RANGE(start_bit=8*, end_bit=23*, target=Work_Zone[1], source=0*)
 23: 0x0545 [0x21] END_EVENT
 24: 0x0546 [0x00] END_REQSTACK()
```

### Event 47

#### Metadata

| Field        | Value      |
|--------------|------------|
| Entrypoint   | 0x0547     |
| Data Size    | 1740 bytes |
| Instructions | 199        |

```
      00 01 02 03 04 05 06 07  08 09 0A 0B 0C 0D 0E 0F
      -- -- -- -- -- -- -- --  -- -- -- -- -- -- -- --
0540:                      42  1E F0 FF FF 7F 1A FD 0B         B........
0550: 03 1B 00 02 10 03 08 00  03 10 03 16 00 04 10 03  ................
0560: 0E 00 05 10 03 15 00 06  10 03 0F 00 07 10 03 10  ................
0570: 00 08 10 03 11 00 09 10  06 0A 00 03 17 00 01 80  ................
0580: 02 0A 00 01 80 00 0F 09  03 0B 00 01 80 06 18 00  ................
0590: 02 0F 00 01 80 01 9B 05  05 18 00 02 10 00 01 80  ................
05A0: 01 A6 05 05 18 00 02 11  00 01 80 01 B1 05 05 18  ................
05B0: 00 06 19 00 02 18 00 01  80 02 65 06 CC 01 15 00  ..........e.....
05C0: 0F 00 10 00 11 00 02 16  00 01 80 80 E6 05 03 19  ................
05D0: 17 15 00 1D 3D 80 23 3C  0B 00 01 80 02 80 03 05  ....=.#<........
05E0: 00 02 80 01 1F 06 02 16  00 02 80 80 FF 05 03 19  ................
05F0: 17 15 00 1D 3E 80 23 03  05 00 01 80 01 1F 06 02  ....>.#.........
0600: 16 00 2C 80 80 1F 06 03  02 10 15 00 1D 3F 80 23  ..,..........?.#
0610: 3C 0B 00 01 80 02 80 03  05 00 02 80 01 1F 06 CC  <...............
0620: 01 01 80 01 80 01 80 01  80 24 40 80 05 00 0B 00  .........$@.....
0630: 25 02 00 10 01 80 00 3C  06 01 62 06 02 00 10 02  %......<..b.....
0640: 80 00 4C 06 03 17 00 02  80 01 62 06 02 00 10 2C  ..L.......b....,
0650: 80 00 62 06 03 01 10 41  80 05 19 00 05 0A 00 01  ..b....A........
0660: 62 06 01 73 06 03 19 17  15 00 1D 42 80 23 03 17  b..s.......B.#..
0670: 00 02 80 06 1A 00 02 19  00 01 80 00 0C 09 02 17  ................
0680: 00 02 80 00 7F 07 48 43  80 23 02 19 00 01 80 00  ......HC.#......
0690: 7C 07 24 44 80 1A 00 01  80 25 02 00 10 2D 80 00  |.$D.....%...-..
06A0: B0 06 03 01 10 41 80 05  19 00 05 0A 00 01 B0 06  .....A..........
06B0: 03 1A 00 00 10 02 19 00  01 80 00 79 07 40 01 80  ...........y.@..
06C0: 3A 80 01 10 3B 80 40 3B  80 3C 80 01 10 1A 00 43  :...;.@;.<.....C
06D0: 00 43 01 03 12 00 02 10  03 13 00 03 10 03 14 00  .C..............
06E0: 04 10 03 1C 00 01 80 03  1C 00 05 10 CC 01 15 00  ................
06F0: 12 00 13 00 14 00 02 1C  00 01 80 00 05 07 48 45  ..............HE
0700: 80 23 01 09 07 48 46 80  23 CC 01 01 80 01 80 01  .#...HF.#.......
0710: 80 01 80 24 47 80 02 80  01 80 25 02 00 10 01 80  ...$G.....%.....
0720: 00 6E 07 02 18 00 01 80  00 45 07 03 03 10 48 80  .n.......E....H.
0730: 40 01 80 3A 80 01 10 49  80 40 3B 80 3C 80 01 10  @..:...I.@;.<...
0740: 1A 00 01 5C 07 03 03 10  37 80 40 01 80 3A 80 01  ...\....7.@..:..
0750: 10 03 80 40 3B 80 3C 80  01 10 18 00 03 04 10 15  ...@;.<.........
0760: 00 1D 4A 80 23 05 19 00  05 0A 00 01 79 07 02 00  ..J.#.......y...
0770: 10 02 80 00 79 07 01 79  07 01 8A 06 01 0C 09 1D  ....y..y........
0780: 4B 80 23 02 19 00 01 80  00 0C 09 40 01 80 3A 80  K.#........@..:.
0790: 01 10 4C 80 40 3B 80 3C  80 01 10 4C 80 43 00 43  ..L.@;.<...L.C.C
07A0: 01 03 0B 00 01 80 02 02  10 01 80 00 B5 07 3C 0B  ..............<.
07B0: 00 02 80 02 80 02 03 10  01 80 00 C4 07 3C 0B 00  .............<..
07C0: 2C 80 02 80 02 04 10 01  80 00 D3 07 3C 0B 00 2D  ,...........<..-
07D0: 80 02 80 02 05 10 01 80  00 E2 07 3C 0B 00 2E 80  ...........<....
07E0: 02 80 02 06 10 01 80 00  F1 07 3C 0B 00 2A 80 02  ..........<..*..
07F0: 80 02 07 10 01 80 00 00  08 3C 0B 00 14 80 02 80  .........<......
0800: 02 08 10 01 80 00 0F 08  3C 0B 00 3A 80 02 80 02  ........<..:....
0810: 09 10 01 80 00 1E 08 3C  0B 00 3B 80 02 80 24 4D  .......<..;...$M
0820: 80 1A 00 0B 00 25 02 00  10 01 80 00 3C 08 05 19  .....%......<...
0830: 00 05 0A 00 03 01 10 41  80 01 BC 08 02 00 10 02  .......A........
0840: 80 00 4C 08 03 1D 00 02  10 01 BC 08 02 00 10 2C  ..L............,
0850: 80 00 5C 08 03 1D 00 03  10 01 BC 08 02 00 10 2D  ..\............-
0860: 80 00 6C 08 03 1D 00 04  10 01 BC 08 02 00 10 2E  ..l.............
0870: 80 00 7C 08 03 1D 00 05  10 01 BC 08 02 00 10 2A  ..|............*
0880: 80 00 8C 08 03 1D 00 06  10 01 BC 08 02 00 10 14  ................
0890: 80 00 9C 08 03 1D 00 07  10 01 BC 08 02 00 10 3A  ...............:
08A0: 80 00 AC 08 03 1D 00 08  10 01 BC 08 02 00 10 3B  ...............;
08B0: 80 00 BC 08 03 1D 00 09  10 01 BC 08 03 1A 00 00  ................
08C0: 10 02 19 00 01 80 00 09  09 93 1D 00 1D 4E 80 23  .............N.#
08D0: 93 01 80 24 4F 80 02 80  01 80 25 02 00 10 01 80  ...$O.....%.....
08E0: 00 FE 08 40 01 80 3A 80  01 10 4C 80 40 3B 80 3C  ...@..:...L.@;.<
08F0: 80 01 10 1A 00 05 19 00  05 0A 00 01 09 09 02 00  ................
0900: 10 02 80 00 09 09 01 09  09 01 83 07 01 80 05 21  ...............!
0910: 00 03 1E 00 01 80 02 04  00 01 80 00 25 09 3C 1E  ............%.<.
0920: 00 2E 80 02 80 24 50 80  01 80 1E 00 25 02 00 10  .....$P.....%...
0930: 01 80 00 8B 09 66 03 80  F8 FF FF 7F F8 FF FF 7F  .....f..........
0940: 74 6C 6B 30 03 03 10 02  80 03 04 10 01 80 03 02  tlk0............
0950: 10 2F 80 1D 51 80 23 03  02 10 2F 80 1D 52 80 23  ./..Q.#.../..R.#
0960: 03 02 10 2F 80 1D 53 80  23 1D 54 80 23 03 02 10  .../..S.#.T.#...
0970: 2F 80 1D 55 80 23 66 03  80 F8 FF FF 7F F8 FF FF  /..U.#f.........
0980: 7F 74 6C 6B 31 01 11 09  01 5E 0A 02 00 10 02 80  .tlk1....^......
0990: 00 BF 09 66 03 80 F8 FF  FF 7F F8 FF FF 7F 74 6C  ...f..........tl
09A0: 6B 30 1D 56 80 23 1D 57  80 23 66 03 80 F8 FF FF  k0.V.#.W.#f.....
09B0: 7F F8 FF FF 7F 74 6C 6B  31 01 11 09 01 5E 0A 02  .....tlk1....^..
09C0: 00 10 2C 80 00 FF 09 66  03 80 F8 FF FF 7F F8 FF  ..,....f........
09D0: FF 7F 74 6C 6B 30 1D 58  80 23 1D 59 80 23 1D 5A  ..tlk0.X.#.Y.#.Z
09E0: 80 23 1D 5B 80 23 1D 5C  80 23 66 03 80 F8 FF FF  .#.[.#.\.#f.....
09F0: 7F F8 FF FF 7F 74 6C 6B  31 01 11 09 01 5E 0A 02  .....tlk1....^..
0A00: 00 10 2D 80 00 48 0A 66  03 80 F8 FF FF 7F F8 FF  ..-..H.f........
0A10: FF 7F 74 6C 6B 30 1D 5D  80 23 1D 5E 80 23 1D 5F  ..tlk0.].#.^.#._
0A20: 80 23 1D 60 80 23 1D 61  80 23 03 02 10 62 80 1D  .#.`.#.a.#...b..
0A30: 63 80 23 66 03 80 F8 FF  FF 7F F8 FF FF 7F 74 6C  c.#f..........tl
0A40: 6B 31 01 11 09 01 5E 0A  02 00 10 2E 80 00 53 0A  k1....^.......S.
0A50: 01 5E 0A 02 00 10 2A 80  00 5E 0A 01 5E 0A 1B 03  .^....*..^..^...
0A60: 1F 00 01 80 1D 64 80 23  03 02 10 01 00 03 03 10  .....d.#........
0A70: 62 80 03 04 10 65 80 03  05 10 66 80 03 06 10 67  b....e....f....g
0A80: 80 03 07 10 68 80 03 08  10 69 80 03 09 10 6A 80  ....h....i....j.
0A90: 03 00 17 6B 80 03 01 17  6C 80 03 02 17 6D 80 03  ...k....l....m..
0AA0: 03 17 6C 80 03 04 17 6E  80 03 05 17 6E 80 03 06  ..l....n....n...
0AB0: 17 6E 80 24 6F 80 01 80  01 80 25 02 00 10 01 80  .n.$o.....%.....
0AC0: 00 D0 0A 03 1F 00 03 10  03 20 00 00 17 01 59 0B  ......... ....Y.
0AD0: 02 00 10 02 80 00 E5 0A  03 1F 00 04 10 03 20 00  .............. .
0AE0: 01 17 01 59 0B 02 00 10  2C 80 00 FA 0A 03 1F 00  ...Y....,.......
0AF0: 05 10 03 20 00 02 17 01  59 0B 02 00 10 2D 80 00  ... ....Y....-..
0B00: 0F 0B 03 1F 00 06 10 03  20 00 03 17 01 59 0B 02  ........ ....Y..
0B10: 00 10 2E 80 00 24 0B 03  1F 00 07 10 03 20 00 04  .....$....... ..
0B20: 17 01 59 0B 02 00 10 2A  80 00 39 0B 03 1F 00 08  ..Y....*..9.....
0B30: 10 03 20 00 05 17 01 59  0B 02 00 10 14 80 00 4E  .. ....Y.......N
0B40: 0B 03 1F 00 09 10 03 20  00 06 17 01 59 0B 02 00  ....... ....Y...
0B50: 10 3A 80 00 59 0B 01 59  0B 02 00 10 3A 80 01 B5  .:..Y..Y....:...
0B60: 0B 93 1F 00 03 02 10 1F  00 03 03 10 20 00 1D 70  ............ ..p
0B70: 80 23 93 01 80 03 05 00  00 10 03 02 10 01 00 24  .#.............$
0B80: 71 80 02 80 01 80 25 02  00 10 01 80 00 A7 0B 40  q.....%........@
0B90: 01 80 11 80 01 10 02 80  40 72 80 73 80 01 10 05  ........@r.s....
0BA0: 00 06 06 00 01 B5 0B 02  00 10 02 80 00 B5 0B 01  ................
0BB0: 5F 0A 01 B5 0B 1B 02 02  00 01 80 80 C1 0B 01 F8  _...............
0BC0: 0B 02 02 00 02 80 80 CC  0B 01 F8 0B 02 02 00 2C  ...............,
0BD0: 80 80 D7 0B 01 F8 0B 02  02 00 2D 80 80 E2 0B 01  ..........-.....
0BE0: F8 0B 02 02 00 2E 80 80  ED 0B 01 F8 0B 02 02 00  ................
0BF0: 2A 80 80 F8 0B 01 F8 0B  1D 2B 80 23 1B 06 0B 00  *........+.#....
0C00: 06 0A 00 06 0C 00 06 08  00 06 07 00 06 0E 00 06  ................
0C10: 0D 00 1B                                          ...             
```

#### Opcodes

```
  0: 0x0547 [0x42] SET_CLI_EVENT_CANCEL_DATA()
  1: 0x0548 [0x1E] EventEntity looks at LocalPlayer and starts talking
  2: 0x054D [0x1A] CALL_SUBROUTINE(address=0x0BFD)
  3: 0x0550 [0x03] ExtData[1]->WorkLocal[27] = Work_Zone[2]
  4: 0x0555 [0x03] ExtData[1]->WorkLocal[8] = Work_Zone[3]
  5: 0x055A [0x03] ExtData[1]->WorkLocal[22] = Work_Zone[4]
  6: 0x055F [0x03] ExtData[1]->WorkLocal[14] = Work_Zone[5]
  7: 0x0564 [0x03] ExtData[1]->WorkLocal[21] = Work_Zone[6]
  8: 0x0569 [0x03] ExtData[1]->WorkLocal[15] = Work_Zone[7]
  9: 0x056E [0x03] ExtData[1]->WorkLocal[16] = Work_Zone[8]
 10: 0x0573 [0x03] ExtData[1]->WorkLocal[17] = Work_Zone[9]
 11: 0x0578 [0x06] ExtData[1]->WorkLocal[10] = 0
 12: 0x057B [0x03] ExtData[1]->WorkLocal[23] = 0*
 13: 0x0580 [0x02] IF !(ExtData[1]->WorkLocal[10] == 0*) GOTO 0x090F
 14: 0x0588 [0x03] ExtData[1]->WorkLocal[11] = 0*
 15: 0x058D [0x06] ExtData[1]->WorkLocal[24] = 0
 16: 0x0590 [0x02] IF !(ExtData[1]->WorkLocal[15] == 0*) GOTO 0x059B
 17: 0x0598 [0x05] ExtData[1]->WorkLocal[24] = 1
 18: 0x059B [0x02] IF !(ExtData[1]->WorkLocal[16] == 0*) GOTO 0x05A6
 19: 0x05A3 [0x05] ExtData[1]->WorkLocal[24] = 1
 20: 0x05A6 [0x02] IF !(ExtData[1]->WorkLocal[17] == 0*) GOTO 0x05B1
 21: 0x05AE [0x05] ExtData[1]->WorkLocal[24] = 1
 22: 0x05B1 [0x06] ExtData[1]->WorkLocal[25] = 0
 23: 0x05B4 [0x02] IF !(ExtData[1]->WorkLocal[24] <= 0*) GOTO 0x0665
 24: 0x05BC [0xCC] ITEM_INFO_WINDOW_HANDLER(case=0x01 - Open item info window (with chase), check_value=ExtData[1]->WorkLocal[21], buffer1=ExtData[1]->WorkLocal[15], buffer2=ExtData[1]->WorkLocal[16], buffer3=ExtData[1]->WorkLocal[17])
 25: 0x05C6 [0x02] IF !(ExtData[1]->WorkLocal[22] == 0*) GOTO 0x05E6
 26: 0x05CE [0x03] Work_Zone_1700[25] = ExtData[1]->WorkLocal[21]
 27: 0x05D3 [0x1D] PRINT_EVENT_MESSAGE(message_id=12821*)
    → "This $33 hath been enhanced with arcane glyptics already."
 28: 0x05D6 [0x23] WAIT_FOR_DIALOG_INTERACTION
 29: 0x05D7 [0x3C] SET_BIT_FLAG_CONDITIONAL(target_work_offset=ExtData[1]->WorkLocal[11], bit_index_work_offset=0*, condition_work_offset=1*)
 30: 0x05DE [0x03] ExtData[1]->WorkLocal[5] = 1*
 31: 0x05E3 [0x01] GOTO 0x061F
 32: 0x05E6 [0x02] IF !(ExtData[1]->WorkLocal[22] == 1*) GOTO 0x05FF
 33: 0x05EE [0x03] Work_Zone_1700[25] = ExtData[1]->WorkLocal[21]
 34: 0x05F3 [0x1D] PRINT_EVENT_MESSAGE(message_id=12822*)
    → "This $33 hath reached its limits and cannot be further enhanced, but may still evolve into newer forms."
 35: 0x05F6 [0x23] WAIT_FOR_DIALOG_INTERACTION
 36: 0x05F7 [0x03] ExtData[1]->WorkLocal[5] = 0*
 37: 0x05FC [0x01] GOTO 0x061F
 38: 0x05FF [0x02] IF !(ExtData[1]->WorkLocal[22] == 2*) GOTO 0x061F
 39: 0x0607 [0x03] Work_Zone[2] = ExtData[1]->WorkLocal[21]
 40: 0x060C [0x1D] PRINT_EVENT_MESSAGE(message_id=12823*)
    → "This $0 hath reached its limits and cannot evolve further."
 41: 0x060F [0x23] WAIT_FOR_DIALOG_INTERACTION
 42: 0x0610 [0x3C] SET_BIT_FLAG_CONDITIONAL(target_work_offset=ExtData[1]->WorkLocal[11], bit_index_work_offset=0*, condition_work_offset=1*)
 43: 0x0617 [0x03] ExtData[1]->WorkLocal[5] = 1*
 44: 0x061C [0x01] GOTO 0x061F

SUBROUTINE_061F:
 45: 0x061F [0xCC] ITEM_INFO_WINDOW_HANDLER(case=0x01 - Open item info window (with chase), check_value=0*, buffer1=0*, buffer2=0*, buffer3=0*)
 46: 0x0629 [0x24] CREATE_DIALOG(message_id=12824*, default_option=ExtData[1]->WorkLocal[5], option_flags=ExtData[1]->WorkLocal[11])
    → "What do you wish to do? [Evolve the item./Mezzotint./Nothing.]"
 47: 0x0630 [0x25] WAIT_DIALOG_SELECT()
 48: 0x0631 [0x02] IF !(Work_Zone[0] == 0*) GOTO 0x063C
 49: 0x0639 [0x01] GOTO 0x0662
 50: 0x063C [0x02] IF !(Work_Zone[0] == 1*) GOTO 0x064C
 51: 0x0644 [0x03] ExtData[1]->WorkLocal[23] = 1*
 52: 0x0649 [0x01] GOTO 0x0662
 53: 0x064C [0x02] IF !(Work_Zone[0] == 2*) GOTO 0x0662
 54: 0x0654 [0x03] Work_Zone[1] = 1073741824*
 55: 0x0659 [0x05] ExtData[1]->WorkLocal[25] = 1
 56: 0x065C [0x05] ExtData[1]->WorkLocal[10] = 1
 57: 0x065F [0x01] GOTO 0x0662

SUBROUTINE_0662:
 58: 0x0662 [0x01] GOTO 0x0673
 59: 0x0665 [0x03] Work_Zone_1700[25] = ExtData[1]->WorkLocal[21]
 60: 0x066A [0x1D] PRINT_EVENT_MESSAGE(message_id=12820*)
    → "This $33 doth be in good...tails?"
 61: 0x066D [0x23] WAIT_FOR_DIALOG_INTERACTION
 62: 0x066E [0x03] ExtData[1]->WorkLocal[23] = 1*

SUBROUTINE_0673:
 63: 0x0673 [0x06] ExtData[1]->WorkLocal[26] = 0
 64: 0x0676 [0x02] IF !(ExtData[1]->WorkLocal[25] == 0*) GOTO 0x090C
 65: 0x067E [0x02] IF !(ExtData[1]->WorkLocal[23] == 1*) GOTO 0x077F
 66: 0x0686 [0x48] [System] [12825*]:
    → "Which type of glyptics shall you engrave?"
 67: 0x0689 [0x23] WAIT_FOR_DIALOG_INTERACTION

SUBROUTINE_068A:
 68: 0x068A [0x02] IF !(ExtData[1]->WorkLocal[25] == 0*) GOTO 0x077C
 69: 0x0692 [0x24] CREATE_DIALOG(message_id=12826*, default_option=ExtData[1]->WorkLocal[26], option_flags=0*)
    → "Which type do you want engraved? [Arcane Glyptic Type A./Arcane Glyptic Type B./Arcane Glyptic Type C./None.]"
 70: 0x0699 [0x25] WAIT_DIALOG_SELECT()
 71: 0x069A [0x02] IF !(Work_Zone[0] == 3*) GOTO 0x06B0
 72: 0x06A2 [0x03] Work_Zone[1] = 1073741824*
 73: 0x06A7 [0x05] ExtData[1]->WorkLocal[25] = 1
 74: 0x06AA [0x05] ExtData[1]->WorkLocal[10] = 1
 75: 0x06AD [0x01] GOTO 0x06B0

SUBROUTINE_06B0:
 76: 0x06B0 [0x03] ExtData[1]->WorkLocal[26] = Work_Zone[0]
 77: 0x06B5 [0x02] IF !(ExtData[1]->WorkLocal[25] == 0*) GOTO 0x0779
 78: 0x06BD [0x40] SET_BIT_WORK_RANGE(start_bit=0*, end_bit=7*, target=Work_Zone[1], source=8*)
 79: 0x06C6 [0x40] SET_BIT_WORK_RANGE(start_bit=8*, end_bit=23*, target=Work_Zone[1], source=ExtData[1]->WorkLocal[26])
 80: 0x06CF [0x43] SEND_EVENT_UPDATE: Send pending tag to server (packet 0x005B)
 81: 0x06D1 [0x43] SEND_EVENT_UPDATE: Check pending flag (skip if not pending)
 82: 0x06D3 [0x03] ExtData[1]->WorkLocal[18] = Work_Zone[2]
 83: 0x06D8 [0x03] ExtData[1]->WorkLocal[19] = Work_Zone[3]
 84: 0x06DD [0x03] ExtData[1]->WorkLocal[20] = Work_Zone[4]
 85: 0x06E2 [0x03] ExtData[1]->WorkLocal[28] = 0*
 86: 0x06E7 [0x03] ExtData[1]->WorkLocal[28] = Work_Zone[5]
 87: 0x06EC [0xCC] ITEM_INFO_WINDOW_HANDLER(case=0x01 - Open item info window (with chase), check_value=ExtData[1]->WorkLocal[21], buffer1=ExtData[1]->WorkLocal[18], buffer2=ExtData[1]->WorkLocal[19], buffer3=ExtData[1]->WorkLocal[20])
 88: 0x06F6 [0x02] IF !(ExtData[1]->WorkLocal[28] == 0*) GOTO 0x0705
 89: 0x06FE [0x48] [System] [12827*]:
    → "Do you wish to mezzotint your weapon so that it is primed to receive the aforementioned attribute enhancements?"
 90: 0x0701 [0x23] WAIT_FOR_DIALOG_INTERACTION
 91: 0x0702 [0x01] GOTO 0x0709
 92: 0x0705 [0x48] [System] [12828*]:
    → "Do you wish to mezzotint your weapon again so that it is primed to receive these attribute enhancements?"
 93: 0x0708 [0x23] WAIT_FOR_DIALOG_INTERACTION

SUBROUTINE_0709:
 94: 0x0709 [0xCC] ITEM_INFO_WINDOW_HANDLER(case=0x01 - Open item info window (with chase), check_value=0*, buffer1=0*, buffer2=0*, buffer3=0*)
 95: 0x0713 [0x24] CREATE_DIALOG(message_id=12830*, default_option=1*, option_flags=0*)
    → "How do you feel about these attributes? [I heartily enjoy them./I despise them and want new ones.]"
 96: 0x071A [0x25] WAIT_DIALOG_SELECT()
 97: 0x071B [0x02] IF !(Work_Zone[0] == 0*) GOTO 0x076E
 98: 0x0723 [0x02] IF !(ExtData[1]->WorkLocal[24] == 0*) GOTO 0x0745
 99: 0x072B [0x03] Work_Zone[3] = 500*
100: 0x0730 [0x40] SET_BIT_WORK_RANGE(start_bit=0*, end_bit=7*, target=Work_Zone[1], source=11*)
101: 0x0739 [0x40] SET_BIT_WORK_RANGE(start_bit=8*, end_bit=23*, target=Work_Zone[1], source=ExtData[1]->WorkLocal[26])
102: 0x0742 [0x01] GOTO 0x075C
103: 0x0745 [0x03] Work_Zone[3] = 100*
104: 0x074A [0x40] SET_BIT_WORK_RANGE(start_bit=0*, end_bit=7*, target=Work_Zone[1], source=9*)
105: 0x0753 [0x40] SET_BIT_WORK_RANGE(start_bit=8*, end_bit=23*, target=Work_Zone[1], source=ExtData[1]->WorkLocal[24])

SUBROUTINE_075C:
106: 0x075C [0x03] Work_Zone[4] = ExtData[1]->WorkLocal[21]
107: 0x0761 [0x1D] PRINT_EVENT_MESSAGE(message_id=12831*)
    → "In return for $1 point[/s] of prestige from thee, I shall mezzotint this $2."
108: 0x0764 [0x23] WAIT_FOR_DIALOG_INTERACTION
109: 0x0765 [0x05] ExtData[1]->WorkLocal[25] = 1
110: 0x0768 [0x05] ExtData[1]->WorkLocal[10] = 1
111: 0x076B [0x01] GOTO 0x0779
112: 0x076E [0x02] IF !(Work_Zone[0] == 1*) GOTO 0x0779
113: 0x0776 [0x01] GOTO 0x0779

SUBROUTINE_0779:
114: 0x0779 [0x01] GOTO 0x068A
115: 0x077C [0x01] GOTO 0x090C
116: 0x077F [0x1D] PRINT_EVENT_MESSAGE(message_id=12832*)
    → "Into which weapon shalt thou evolve this specimen?"
117: 0x0782 [0x23] WAIT_FOR_DIALOG_INTERACTION

SUBROUTINE_0783:
118: 0x0783 [0x02] IF !(ExtData[1]->WorkLocal[25] == 0*) GOTO 0x090C
119: 0x078B [0x40] SET_BIT_WORK_RANGE(start_bit=0*, end_bit=7*, target=Work_Zone[1], source=10*)
120: 0x0794 [0x40] SET_BIT_WORK_RANGE(start_bit=8*, end_bit=23*, target=Work_Zone[1], source=10*)
121: 0x079D [0x43] SEND_EVENT_UPDATE: Send pending tag to server (packet 0x005B)
122: 0x079F [0x43] SEND_EVENT_UPDATE: Check pending flag (skip if not pending)
123: 0x07A1 [0x03] ExtData[1]->WorkLocal[11] = 0*
124: 0x07A6 [0x02] IF !(Work_Zone[2] == 0*) GOTO 0x07B5
125: 0x07AE [0x3C] SET_BIT_FLAG_CONDITIONAL(target_work_offset=ExtData[1]->WorkLocal[11], bit_index_work_offset=1*, condition_work_offset=1*)
126: 0x07B5 [0x02] IF !(Work_Zone[3] == 0*) GOTO 0x07C4
127: 0x07BD [0x3C] SET_BIT_FLAG_CONDITIONAL(target_work_offset=ExtData[1]->WorkLocal[11], bit_index_work_offset=2*, condition_work_offset=1*)
128: 0x07C4 [0x02] IF !(Work_Zone[4] == 0*) GOTO 0x07D3
129: 0x07CC [0x3C] SET_BIT_FLAG_CONDITIONAL(target_work_offset=ExtData[1]->WorkLocal[11], bit_index_work_offset=3*, condition_work_offset=1*)
130: 0x07D3 [0x02] IF !(Work_Zone[5] == 0*) GOTO 0x07E2
131: 0x07DB [0x3C] SET_BIT_FLAG_CONDITIONAL(target_work_offset=ExtData[1]->WorkLocal[11], bit_index_work_offset=4*, condition_work_offset=1*)
132: 0x07E2 [0x02] IF !(Work_Zone[6] == 0*) GOTO 0x07F1
133: 0x07EA [0x3C] SET_BIT_FLAG_CONDITIONAL(target_work_offset=ExtData[1]->WorkLocal[11], bit_index_work_offset=5*, condition_work_offset=1*)
134: 0x07F1 [0x02] IF !(Work_Zone[7] == 0*) GOTO 0x0800
135: 0x07F9 [0x3C] SET_BIT_FLAG_CONDITIONAL(target_work_offset=ExtData[1]->WorkLocal[11], bit_index_work_offset=6*, condition_work_offset=1*)
136: 0x0800 [0x02] IF !(Work_Zone[8] == 0*) GOTO 0x080F
137: 0x0808 [0x3C] SET_BIT_FLAG_CONDITIONAL(target_work_offset=ExtData[1]->WorkLocal[11], bit_index_work_offset=7*, condition_work_offset=1*)
138: 0x080F [0x02] IF !(Work_Zone[9] == 0*) GOTO 0x081E
139: 0x0817 [0x3C] SET_BIT_FLAG_CONDITIONAL(target_work_offset=ExtData[1]->WorkLocal[11], bit_index_work_offset=8*, condition_work_offset=1*)
140: 0x081E [0x24] CREATE_DIALOG(message_id=12833*, default_option=ExtData[1]->WorkLocal[26], option_flags=ExtData[1]->WorkLocal[11])
    → "Which one? [None./#./$1./$2./$3./$4./$5./$6./$7.]"
141: 0x0825 [0x25] WAIT_DIALOG_SELECT()
142: 0x0826 [0x02] IF !(Work_Zone[0] == 0*) GOTO 0x083C
143: 0x082E [0x05] ExtData[1]->WorkLocal[25] = 1
144: 0x0831 [0x05] ExtData[1]->WorkLocal[10] = 1
145: 0x0834 [0x03] Work_Zone[1] = 1073741824*
146: 0x0839 [0x01] GOTO 0x08BC
147: 0x083C [0x02] IF !(Work_Zone[0] == 1*) GOTO 0x084C
148: 0x0844 [0x03] ExtData[1]->WorkLocal[29] = Work_Zone[2]
149: 0x0849 [0x01] GOTO 0x08BC
150: 0x084C [0x02] IF !(Work_Zone[0] == 2*) GOTO 0x085C
151: 0x0854 [0x03] ExtData[1]->WorkLocal[29] = Work_Zone[3]
152: 0x0859 [0x01] GOTO 0x08BC
153: 0x085C [0x02] IF !(Work_Zone[0] == 3*) GOTO 0x086C
154: 0x0864 [0x03] ExtData[1]->WorkLocal[29] = Work_Zone[4]
155: 0x0869 [0x01] GOTO 0x08BC
156: 0x086C [0x02] IF !(Work_Zone[0] == 4*) GOTO 0x087C
157: 0x0874 [0x03] ExtData[1]->WorkLocal[29] = Work_Zone[5]
158: 0x0879 [0x01] GOTO 0x08BC
159: 0x087C [0x02] IF !(Work_Zone[0] == 5*) GOTO 0x088C
160: 0x0884 [0x03] ExtData[1]->WorkLocal[29] = Work_Zone[6]
161: 0x0889 [0x01] GOTO 0x08BC
162: 0x088C [0x02] IF !(Work_Zone[0] == 6*) GOTO 0x089C
163: 0x0894 [0x03] ExtData[1]->WorkLocal[29] = Work_Zone[7]
164: 0x0899 [0x01] GOTO 0x08BC
165: 0x089C [0x02] IF !(Work_Zone[0] == 7*) GOTO 0x08AC
166: 0x08A4 [0x03] ExtData[1]->WorkLocal[29] = Work_Zone[8]
167: 0x08A9 [0x01] GOTO 0x08BC
168: 0x08AC [0x02] IF !(Work_Zone[0] == 8*) GOTO 0x08BC
169: 0x08B4 [0x03] ExtData[1]->WorkLocal[29] = Work_Zone[9]
170: 0x08B9 [0x01] GOTO 0x08BC

SUBROUTINE_08BC:
171: 0x08BC [0x03] ExtData[1]->WorkLocal[26] = Work_Zone[0]
172: 0x08C1 [0x02] IF !(ExtData[1]->WorkLocal[25] == 0*) GOTO 0x0909
173: 0x08C9 [0x93] DISPLAY_ITEM_INFO(item_id=ExtData[1]->WorkLocal[29])
174: 0x08CC [0x1D] PRINT_EVENT_MESSAGE(message_id=12834*)
    → "Shall this be the one?"
175: 0x08CF [0x23] WAIT_FOR_DIALOG_INTERACTION
176: 0x08D0 [0x93] DISPLAY_ITEM_INFO(item_id=0*)
177: 0x08D3 [0x24] CREATE_DIALOG(message_id=12835*, default_option=1*, option_flags=0*)
    → "How do you feel about this weapon? [I thoroughly enjoy it./I loathe it and want a new one.]"
178: 0x08DA [0x25] WAIT_DIALOG_SELECT()
179: 0x08DB [0x02] IF !(Work_Zone[0] == 0*) GOTO 0x08FE
180: 0x08E3 [0x40] SET_BIT_WORK_RANGE(start_bit=0*, end_bit=7*, target=Work_Zone[1], source=10*)
181: 0x08EC [0x40] SET_BIT_WORK_RANGE(start_bit=8*, end_bit=23*, target=Work_Zone[1], source=ExtData[1]->WorkLocal[26])
182: 0x08F5 [0x05] ExtData[1]->WorkLocal[25] = 1
183: 0x08F8 [0x05] ExtData[1]->WorkLocal[10] = 1
184: 0x08FB [0x01] GOTO 0x0909
185: 0x08FE [0x02] IF !(Work_Zone[0] == 1*) GOTO 0x0909
186: 0x0906 [0x01] GOTO 0x0909

SUBROUTINE_0909:
187: 0x0909 [0x01] GOTO 0x0783

SUBROUTINE_090C:
188: 0x090C [0x01] GOTO 0x0580
189: 0x090F [0x21] END_EVENT
190: 0x0910 [0x00] END_REQSTACK()

SUBROUTINE_0BFD:
191: 0x0BFD [0x06] ExtData[1]->WorkLocal[11] = 0
192: 0x0C00 [0x06] ExtData[1]->WorkLocal[10] = 0
193: 0x0C03 [0x06] ExtData[1]->WorkLocal[12] = 0
194: 0x0C06 [0x06] ExtData[1]->WorkLocal[8] = 0
195: 0x0C09 [0x06] ExtData[1]->WorkLocal[7] = 0
196: 0x0C0C [0x06] ExtData[1]->WorkLocal[14] = 0
197: 0x0C0F [0x06] ExtData[1]->WorkLocal[13] = 0
198: 0x0C12 [0x1B] RETURN
```

#### Data or dead code:

```
# Dead code (unreachable instructions):
     0x0911 [0x03] ExtData[1]->WorkLocal[30] = 0*
     0x0916 [0x02] IF !(ExtData[1]->WorkLocal[4] == 0*) GOTO 0x0925
     0x091E [0x3C] SET_BIT_FLAG_CONDITIONAL(target_work_offset=ExtData[1]->WorkLocal[30], bit_index_work_offset=4*, condition_work_offset=1*)
     0x0925 [0x24] CREATE_DIALOG(message_id=12775*, default_option=0*, option_flags=ExtData[1]->WorkLocal[30])
    → "What shall you ask about? [Belligerency./Ranks./Prestige./Spoils./Domination./Nothing.]"
     0x092C [0x25] WAIT_DIALOG_SELECT()
     0x092D [0x02] IF !(Work_Zone[0] == 0*) GOTO 0x098B
     0x0935 [0x66] LOAD_EXT_SCHEDULER_MAIN: Load scheduler "tlk0" with entities [EventEntity, EventEntity], work=9*
     0x0944 [0x03] Work_Zone[3] = 1*
     0x0949 [0x03] Work_Zone[4] = 0*
     0x094E [0x03] Work_Zone[2] = 2351*
     0x0953 [0x1D] PRINT_EVENT_MESSAGE(message_id=12776*)
    → "Those who have the ambition to slay monipulators can do battle against them by speaking with [me/my Northern San d'Orian ally] or one of my brethren in either [Port Bastok or Port Windurst/Northern San d'Oria or Port Windurst/Northern San d'Oria or Port Bastok] and receiving $6."
     0x0956 [0x23] WAIT_FOR_DIALOG_INTERACTION
     0x0957 [0x03] Work_Zone[2] = 2351*
     0x095C [0x1D] PRINT_EVENT_MESSAGE(message_id=12777*)
    → "This $3 is thy metaphorical muster as well as official avowal to enter belligerency."
     0x095F [0x23] WAIT_FOR_DIALOG_INTERACTION
     0x0960 [0x03] Work_Zone[2] = 2351*
     0x0965 [0x1D] PRINT_EVENT_MESSAGE(message_id=12778*)
    → "While it doth provide myriad boons to thee, it preventeth not those outside thy coterie from interfering with thy duty. Such a benediction will only descend upon the yare souls who hath claimed monipulators as their prey."
     0x0968 [0x23] WAIT_FOR_DIALOG_INTERACTION
     0x0969 [0x1D] PRINT_EVENT_MESSAGE(message_id=12779*)
    → "I must also caution thee to beware that, depending on thy level of expertise, it may not behoove thee to tread upon the soils of certain lands."
     0x096C [0x23] WAIT_FOR_DIALOG_INTERACTION
     0x096D [0x03] Work_Zone[2] = 2351*
     0x0972 [0x1D] PRINT_EVENT_MESSAGE(message_id=12781*)
    → "Lastly, should thy bloodlust cease or resolve wither on the vine, speak to one of my compatriots and they shall grant thee permission to withdraw from belligerency."
     0x0975 [0x23] WAIT_FOR_DIALOG_INTERACTION
     0x0976 [0x66] LOAD_EXT_SCHEDULER_MAIN: Load scheduler "tlk1" with entities [EventEntity, EventEntity], work=9*
     0x0985 [0x01] GOTO 0x0911
     0x0988 [0x01] GOTO 0x0A5E
     0x098B [0x02] IF !(Work_Zone[0] == 1*) GOTO 0x09BF
     0x0993 [0x66] LOAD_EXT_SCHEDULER_MAIN: Load scheduler "tlk0" with entities [EventEntity, EventEntity], work=9*
     0x09A2 [0x1D] PRINT_EVENT_MESSAGE(message_id=12782*)
    → "Three ranks doth serve to classify the world's monipulator executioners. There is the eponymous "gladiator (Gla)," "champion gladiator (CG)," and "high champion gladiator (HCG).""
     0x09A5 [0x23] WAIT_FOR_DIALOG_INTERACTION
     0x09A6 [0x1D] PRINT_EVENT_MESSAGE(message_id=12783*)
    → "Naught else needs be explained anent this simple concept...save that a gladiator's rank is determined by his prestige."
     0x09A9 [0x23] WAIT_FOR_DIALOG_INTERACTION
     0x09AA [0x66] LOAD_EXT_SCHEDULER_MAIN: Load scheduler "tlk1" with entities [EventEntity, EventEntity], work=9*
     0x09B9 [0x01] GOTO 0x0911
     0x09BC [0x01] GOTO 0x0A5E
     0x09BF [0x02] IF !(Work_Zone[0] == 2*) GOTO 0x09FF
     0x09C7 [0x66] LOAD_EXT_SCHEDULER_MAIN: Load scheduler "tlk0" with entities [EventEntity, EventEntity], work=9*
     0x09D6 [0x1D] PRINT_EVENT_MESSAGE(message_id=12784*)
    → "Prestige is the gladiator's equivalent of the common adventurer's fame."
     0x09D9 [0x23] WAIT_FOR_DIALOG_INTERACTION
     0x09DA [0x1D] PRINT_EVENT_MESSAGE(message_id=12785*)
    → "Defeating both monsters and monipulators increaseth thy prestige, while falling victim to their claws decreaseth it."
     0x09DD [0x23] WAIT_FOR_DIALOG_INTERACTION
     0x09DE [0x1D] PRINT_EVENT_MESSAGE(message_id=12786*)
    → "Each rank also hath a corresponding maximum amount of prestige, much like the infamy of monipulators."
     0x09E1 [0x23] WAIT_FOR_DIALOG_INTERACTION
     0x09E2 [0x1D] PRINT_EVENT_MESSAGE(message_id=12787*)
    → "Ascertaining thy current prestige is merely a trifle. (Access the "Profile" menu under "Status.")"
     0x09E5 [0x23] WAIT_FOR_DIALOG_INTERACTION
     0x09E6 [0x1D] PRINT_EVENT_MESSAGE(message_id=12788*)
    → "Of course, prestige is not simply a means by which to boast to thy inferiors. Thou canst cede it to me in exchange for troves of splendid rewards."
     0x09E9 [0x23] WAIT_FOR_DIALOG_INTERACTION
     0x09EA [0x66] LOAD_EXT_SCHEDULER_MAIN: Load scheduler "tlk1" with entities [EventEntity, EventEntity], work=9*
     0x09F9 [0x01] GOTO 0x0911
     0x09FC [0x01] GOTO 0x0A5E
     0x09FF [0x02] IF !(Work_Zone[0] == 3*) GOTO 0x0A48
     0x0A07 [0x66] LOAD_EXT_SCHEDULER_MAIN: Load scheduler "tlk0" with entities [EventEntity, EventEntity], work=9*
     0x0A16 [0x1D] PRINT_EVENT_MESSAGE(message_id=12789*)
    → "No victory doth taste as sweet as one where the stakes are high. Flaying treacherous notorious monsters and high notorious monsters occasionally earns thee spoils of war."
     0x0A19 [0x23] WAIT_FOR_DIALOG_INTERACTION
     0x0A1A [0x1D] PRINT_EVENT_MESSAGE(message_id=12790*)
    → "A little cockatrice told me that monipulators even relinquish equipment betimes, so hold not back from slicing, stabbing, and spellcasting thy savage enemies to smithereens."
     0x0A1D [0x23] WAIT_FOR_DIALOG_INTERACTION
     0x0A1E [0x1D] PRINT_EVENT_MESSAGE(message_id=12792*)
    → "Eke, the equipment thou dost obtain may be engraved with arcane glyptics by my consorts."
     0x0A21 [0x23] WAIT_FOR_DIALOG_INTERACTION
     0x0A22 [0x1D] PRINT_EVENT_MESSAGE(message_id=12793*)
    → "Athwart terrestrial beings such as thee, our mezzotinting process leaveth nary a scratch on extant arcane glyptics."
     0x0A25 [0x23] WAIT_FOR_DIALOG_INTERACTION
     0x0A26 [0x1D] PRINT_EVENT_MESSAGE(message_id=12794*)
    → "In sooth, it would be pure idiocy to charge nothing for our services. However, I shan't discuss figures at this juncture."
     0x0A29 [0x23] WAIT_FOR_DIALOG_INTERACTION
     0x0A2A [0x03] Work_Zone[2] = 4051*
     0x0A2F [0x1D] PRINT_EVENT_MESSAGE(message_id=12795*)
    → "Forget not that we must have $0 in order to engrave arcane glyptics, lest thou wish to incur the wrath of my people."
     0x0A32 [0x23] WAIT_FOR_DIALOG_INTERACTION
     0x0A33 [0x66] LOAD_EXT_SCHEDULER_MAIN: Load scheduler "tlk1" with entities [EventEntity, EventEntity], work=9*
     0x0A42 [0x01] GOTO 0x0911
     0x0A45 [0x01] GOTO 0x0A5E
     0x0A48 [0x02] IF !(Work_Zone[0] == 4*) GOTO 0x0A53
     0x0A50 [0x01] GOTO 0x0A5E
     0x0A53 [0x02] IF !(Work_Zone[0] == 5*) GOTO 0x0A5E
     0x0A5B [0x01] GOTO 0x0A5E
     0x0A5E [0x1B] RETURN
     0x0A5F [0x03] ExtData[1]->WorkLocal[31] = 0*
     0x0A64 [0x1D] PRINT_EVENT_MESSAGE(message_id=12804*)
    → "What is it thou desirest?"
     0x0A67 [0x23] WAIT_FOR_DIALOG_INTERACTION
     0x0A68 [0x03] Work_Zone[2] = ExtData[1]->WorkLocal[1]
     0x0A6D [0x03] Work_Zone[3] = 4051*
     0x0A72 [0x03] Work_Zone[4] = 4052*
     0x0A77 [0x03] Work_Zone[5] = 4053*
     0x0A7C [0x03] Work_Zone[6] = 28390*
     0x0A81 [0x03] Work_Zone[7] = 28391*
     0x0A86 [0x03] Work_Zone[8] = 28392*
     0x0A8B [0x03] Work_Zone[9] = 28393*
     0x0A90 [0x03] Work_Zone_1700[0] = 5000*
     0x0A95 [0x03] Work_Zone_1700[1] = 10000*
     0x0A9A [0x03] Work_Zone_1700[2] = 20000*
     0x0A9F [0x03] Work_Zone_1700[3] = 10000*
     0x0AA4 [0x03] Work_Zone_1700[4] = 25000*
     0x0AA9 [0x03] Work_Zone_1700[5] = 25000*
     0x0AAE [0x03] Work_Zone_1700[6] = 25000*
     0x0AB3 [0x24] CREATE_DIALOG(message_id=12805*, default_option=0*, option_flags=0*)
    → "Which reward? (Prestige: $0) [$1. ($8 needed)/$2. ($9 needed)/$3. ($10 needed)/$4. ($11 needed)/$5. ($12 needed)/$6. ($13 needed)/$7. ($14 needed)/None.]"
     0x0ABA [0x25] WAIT_DIALOG_SELECT()
     0x0ABB [0x02] IF !(Work_Zone[0] == 0*) GOTO 0x0AD0
     0x0AC3 [0x03] ExtData[1]->WorkLocal[31] = Work_Zone[3]
     0x0AC8 [0x03] ExtData[1]->WorkLocal[32] = Work_Zone_1700[0]
     0x0ACD [0x01] GOTO 0x0B59
     0x0AD0 [0x02] IF !(Work_Zone[0] == 1*) GOTO 0x0AE5
     0x0AD8 [0x03] ExtData[1]->WorkLocal[31] = Work_Zone[4]
     0x0ADD [0x03] ExtData[1]->WorkLocal[32] = Work_Zone_1700[1]
     0x0AE2 [0x01] GOTO 0x0B59
     0x0AE5 [0x02] IF !(Work_Zone[0] == 2*) GOTO 0x0AFA
     0x0AED [0x03] ExtData[1]->WorkLocal[31] = Work_Zone[5]
     0x0AF2 [0x03] ExtData[1]->WorkLocal[32] = Work_Zone_1700[2]
     0x0AF7 [0x01] GOTO 0x0B59
     0x0AFA [0x02] IF !(Work_Zone[0] == 3*) GOTO 0x0B0F
     0x0B02 [0x03] ExtData[1]->WorkLocal[31] = Work_Zone[6]
     0x0B07 [0x03] ExtData[1]->WorkLocal[32] = Work_Zone_1700[3]
     0x0B0C [0x01] GOTO 0x0B59
     0x0B0F [0x02] IF !(Work_Zone[0] == 4*) GOTO 0x0B24
     0x0B17 [0x03] ExtData[1]->WorkLocal[31] = Work_Zone[7]
     0x0B1C [0x03] ExtData[1]->WorkLocal[32] = Work_Zone_1700[4]
     0x0B21 [0x01] GOTO 0x0B59
     0x0B24 [0x02] IF !(Work_Zone[0] == 5*) GOTO 0x0B39
     0x0B2C [0x03] ExtData[1]->WorkLocal[31] = Work_Zone[8]
     0x0B31 [0x03] ExtData[1]->WorkLocal[32] = Work_Zone_1700[5]
     0x0B36 [0x01] GOTO 0x0B59
     0x0B39 [0x02] IF !(Work_Zone[0] == 6*) GOTO 0x0B4E
     0x0B41 [0x03] ExtData[1]->WorkLocal[31] = Work_Zone[9]
     0x0B46 [0x03] ExtData[1]->WorkLocal[32] = Work_Zone_1700[6]
     0x0B4B [0x01] GOTO 0x0B59
     0x0B4E [0x02] IF !(Work_Zone[0] == 7*) GOTO 0x0B59
     0x0B56 [0x01] GOTO 0x0B59
     0x0B59 [0x02] IF !(Work_Zone[0] == 7*) GOTO 0x0BB5
     0x0B61 [0x93] DISPLAY_ITEM_INFO(item_id=ExtData[1]->WorkLocal[31])
     0x0B64 [0x03] Work_Zone[2] = ExtData[1]->WorkLocal[31]
     0x0B69 [0x03] Work_Zone[3] = ExtData[1]->WorkLocal[32]
     0x0B6E [0x1D] PRINT_EVENT_MESSAGE(message_id=12806*)
    → "Thou art willing to part with $1 point[/s] of prestige to obtain this $0, nay?"
     0x0B71 [0x23] WAIT_FOR_DIALOG_INTERACTION
     0x0B72 [0x93] DISPLAY_ITEM_INFO(item_id=0*)
     0x0B75 [0x03] ExtData[1]->WorkLocal[5] = Work_Zone[0]
     0x0B7A [0x03] Work_Zone[2] = ExtData[1]->WorkLocal[1]
     0x0B7F [0x24] CREATE_DIALOG(message_id=12807*, default_option=1*, option_flags=0*)
    → "Proceed with the exchange? (Prestige: $0) [Yes./No.]"
     0x0B86 [0x25] WAIT_DIALOG_SELECT()
     0x0B87 [0x02] IF !(Work_Zone[0] == 0*) GOTO 0x0BA7
     0x0B8F [0x40] SET_BIT_WORK_RANGE(start_bit=0*, end_bit=15*, target=Work_Zone[1], source=1*)
     0x0B98 [0x40] SET_BIT_WORK_RANGE(start_bit=16*, end_bit=31*, target=Work_Zone[1], source=ExtData[1]->WorkLocal[5])
     0x0BA1 [0x06] ExtData[1]->WorkLocal[6] = 0
     0x0BA4 [0x01] GOTO 0x0BB5
     0x0BA7 [0x02] IF !(Work_Zone[0] == 1*) GOTO 0x0BB5
     0x0BAF [0x01] GOTO 0x0A5F
     0x0BB2 [0x01] GOTO 0x0BB5
     0x0BB5 [0x1B] RETURN
     0x0BB6 [0x02] IF !(ExtData[1]->WorkLocal[2] == 0*) GOTO 0x0BC1
     0x0BBE [0x01] GOTO 0x0BF8
     0x0BC1 [0x02] IF !(ExtData[1]->WorkLocal[2] == 1*) GOTO 0x0BCC
     0x0BC9 [0x01] GOTO 0x0BF8
     0x0BCC [0x02] IF !(ExtData[1]->WorkLocal[2] == 2*) GOTO 0x0BD7
     0x0BD4 [0x01] GOTO 0x0BF8
     0x0BD7 [0x02] IF !(ExtData[1]->WorkLocal[2] == 3*) GOTO 0x0BE2
     0x0BDF [0x01] GOTO 0x0BF8
     0x0BE2 [0x02] IF !(ExtData[1]->WorkLocal[2] == 4*) GOTO 0x0BED
     0x0BEA [0x01] GOTO 0x0BF8
     0x0BED [0x02] IF !(ExtData[1]->WorkLocal[2] == 5*) GOTO 0x0BF8
     0x0BF5 [0x01] GOTO 0x0BF8
     0x0BF8 [0x1D] PRINT_EVENT_MESSAGE(message_id=12809*)
    → "Assuming the form of a monster for too many moons doth exert an unwanted influence upon thy anima. Take pleasure in thy time spent within multiple forms, but not so much that thou canst never return to thy original vessel."
     0x0BFB [0x23] WAIT_FOR_DIALOG_INTERACTION
     0x0BFC [0x1B] RETURN
```
