# 0x7FFFFFF0 - Zone Events

## Common Data

| Field            | Value                        |
|------------------|------------------------------|
| Zone             | Pashhow Marshlands (ID: 109) |
| Block Size       | 6164 bytes                   |
| Total Events     | 13                           |
| References Count | 165                          |

## List of Events

| Event ID                 | Entrypoint   |   Size |   Instructions |
|--------------------------|--------------|--------|----------------|
| [65535](#event-65535)    | 0x0000       |      1 |              1 |
| [20](#event-20)          | 0x0001       |     42 |             13 |
| [26](#event-26)          | 0x002B       |     29 |              9 |
| [23](#event-23)          | 0x0048       |   4345 |            852 |
| [65535.1](#event-655351) | 0x1141       |     16 |              3 |
| [65535.2](#event-655352) | 0x1151       |     41 |              5 |
| [10](#event-10)          | 0x117A       |    232 |             33 |
| [11](#event-11)          | 0x1262       |    561 |             76 |
| [65534](#event-65534)    | 0x1493       |      1 |              1 |
| [65535.3](#event-655353) | 0x1494       |     10 |              2 |
| [65535.4](#event-655354) | 0x149E       |     10 |              2 |
| [65535.5](#event-655355) | 0x14A8       |     10 |              2 |
| [901](#event-901)        | 0x14B2       |    135 |             31 |

## DAT References (imed_data)

|   Index | Hex Value   |   Dec Value |
|---------|-------------|-------------|
|       0 | 0xFFFFFFFF  |  4294967295 |
|       1 | 0x1D7E      |        7550 |
|       2 | 0x0000      |           0 |
|       3 | 0x1D7C      |        7548 |
|       4 | 0x1DAA      |        7594 |
|       5 | 0x0001      |           1 |
|       6 | 0x003F      |          63 |
|       7 | 0x0020      |          32 |
|       8 | 0x0002      |           2 |
|       9 | 0x1DA7      |        7591 |
|      10 | 0x1DA8      |        7592 |
|      11 | 0x1DA9      |        7593 |
|      12 | 0x0003      |           3 |
|      13 | 0x1072      |        4210 |
|      14 | 0x1074      |        4212 |
|      15 | 0x14B8      |        5304 |
|      16 | 0x14B9      |        5305 |
|      17 | 0x1DAC      |        7596 |
|      18 | 0x40000000  |  1073741824 |
|      19 | 0x001F      |          31 |
|      20 | 0x1DAD      |        7597 |
|      21 | 0x03E8      |        1000 |
|      22 | 0x0004      |           4 |
|      23 | 0x0005      |           5 |
|      24 | 0x0006      |           6 |
|      25 | 0x0007      |           7 |
|      26 | 0x0008      |           8 |
|      27 | 0x0009      |           9 |
|      28 | 0x000A      |          10 |
|      29 | 0x000B      |          11 |
|      30 | 0x000C      |          12 |
|      31 | 0x000D      |          13 |
|      32 | 0x000E      |          14 |
|      33 | 0x000F      |          15 |
|      34 | 0x0010      |          16 |
|      35 | 0x0011      |          17 |
|      36 | 0x0012      |          18 |
|      37 | 0x0013      |          19 |
|      38 | 0x0014      |          20 |
|      39 | 0x0015      |          21 |
|      40 | 0x0016      |          22 |
|      41 | 0x0017      |          23 |
|      42 | 0x0018      |          24 |
|      43 | 0x0019      |          25 |
|      44 | 0x001A      |          26 |
|      45 | 0x001B      |          27 |
|      46 | 0x001C      |          28 |
|      47 | 0x001D      |          29 |
|      48 | 0x001E      |          30 |
|      49 | 0x1010      |        4112 |
|      50 | 0x1014      |        4116 |
|      51 | 0x1018      |        4120 |
|      52 | 0x1020      |        4128 |
|      53 | 0x1024      |        4132 |
|      54 | 0x1028      |        4136 |
|      55 | 0x1031      |        4145 |
|      56 | 0x1034      |        4148 |
|      57 | 0x1036      |        4150 |
|      58 | 0x1037      |        4151 |
|      59 | 0x103B      |        4155 |
|      60 | 0x103D      |        4157 |
|      61 | 0x1043      |        4163 |
|      62 | 0x1044      |        4164 |
|      63 | 0x1045      |        4165 |
|      64 | 0x1032      |        4146 |
|      65 | 0x1033      |        4147 |
|      66 | 0x1068      |        4200 |
|      67 | 0x106A      |        4202 |
|      68 | 0x147E      |        5246 |
|      69 | 0x147F      |        5247 |
|      70 | 0x1480      |        5248 |
|      71 | 0x1481      |        5249 |
|      72 | 0x1482      |        5250 |
|      73 | 0x1483      |        5251 |
|      74 | 0x1484      |        5252 |
|      75 | 0x10CB      |        4299 |
|      76 | 0x10CC      |        4300 |
|      77 | 0x1146      |        4422 |
|      78 | 0x1147      |        4423 |
|      79 | 0x147B      |        5243 |
|      80 | 0x147C      |        5244 |
|      81 | 0x147D      |        5245 |
|      82 | 0x0021      |          33 |
|      83 | 0x106C      |        4204 |
|      84 | 0x0022      |          34 |
|      85 | 0x106E      |        4206 |
|      86 | 0x0023      |          35 |
|      87 | 0x1070      |        4208 |
|      88 | 0x0024      |          36 |
|      89 | 0x0025      |          37 |
|      90 | 0x0026      |          38 |
|      91 | 0x0027      |          39 |
|      92 | 0x0028      |          40 |
|      93 | 0x1035      |        4149 |
|      94 | 0x0029      |          41 |
|      95 | 0x109E      |        4254 |
|      96 | 0x002A      |          42 |
|      97 | 0x109F      |        4255 |
|      98 | 0x002B      |          43 |
|      99 | 0x14C8      |        5320 |
|     100 | 0x002C      |          44 |
|     101 | 0x14CA      |        5322 |
|     102 | 0x101C      |        4124 |
|     103 | 0x102C      |        4140 |
|     104 | 0x1030      |        4144 |
|     105 | 0x1041      |        4161 |
|     106 | 0x10CD      |        4301 |
|     107 | 0x10CE      |        4302 |
|     108 | 0x1148      |        4424 |
|     109 | 0x1149      |        4425 |
|     110 | 0x1479      |        5241 |
|     111 | 0x147A      |        5242 |
|     112 | 0x002D      |          45 |
|     113 | 0x002E      |          46 |
|     114 | 0x0032      |          50 |
|     115 | 0x003C      |          60 |
|     116 | 0x66531     |      419121 |
|     117 | 0x6C4D      |       27725 |
|     118 | 0x62F2      |       25330 |
|     119 | 0x0E2E      |        3630 |
|     120 | 0x0093      |         147 |
|     121 | 0x00F0      |         240 |
|     122 | 0x00C8      |         200 |
|     123 | 0x9B80A     |      636938 |
|     124 | 0xFFF8EFC7  |  4294504391 |
|     125 | 0x61A7      |       24999 |
|     126 | 0x0709      |        1801 |
|     127 | 0x9A118     |      631064 |
|     128 | 0xFFF8ECB1  |  4294503601 |
|     129 | 0x99625     |      628261 |
|     130 | 0xFFF8EAD1  |  4294503121 |
|     131 | 0x1ED5      |        7893 |
|     132 | 0x1ED6      |        7894 |
|     133 | 0x052B      |        1323 |
|     134 | 0x1ED7      |        7895 |
|     135 | 0x1ED8      |        7896 |
|     136 | 0x1ED9      |        7897 |
|     137 | 0x1EDA      |        7898 |
|     138 | 0x0D63      |        3427 |
|     139 | 0x0DAC      |        3500 |
|     140 | 0x0E10      |        3600 |
|     141 | 0x1EDB      |        7899 |
|     142 | 0x1EDC      |        7900 |
|     143 | 0x1EDD      |        7901 |
|     144 | 0x1EDE      |        7902 |
|     145 | 0x1EDF      |        7903 |
|     146 | 0x1EE0      |        7904 |
|     147 | 0x00C9      |         201 |
|     148 | 0x73234     |      471604 |
|     149 | 0x64F0F     |      413455 |
|     150 | 0x6069      |       24681 |
|     151 | 0x00B0      |         176 |
|     152 | 0x72925     |      469285 |
|     153 | 0x6216B     |      401771 |
|     154 | 0x6113      |       24851 |
|     155 | 0x0C40      |        3136 |
|     156 | 0x74394     |      476052 |
|     157 | 0x5D7B8     |      382904 |
|     158 | 0x61EF      |       25071 |
|     159 | 0x029E      |         670 |
|     160 | 0x21B5      |        8629 |
|     161 | 0x0090      |         144 |
|     162 | 0x21C1      |        8641 |
|     163 | 0x0063      |          99 |
|     164 | 0x21C2      |        8642 |

## String References

- **7548**: Contributing a total of $7 [Petra/Petras] to the [San d'Orian/Bastokan/Windurstian] forces, today's high scorer is %0!
- **7550**: You scored $4 [Petra/Petras] ($5 [Ballista point/Ballista points]).
- **7591**: You find the temporary item: $0!
- **7592**: You find $0, but you cannot carry any more temporary items.
- **7593**: You find $0, but you cannot carry more than one of that temporary item.
- **7594**: You find a Petra! [Keep it./Throw it away.]
- **7596**: What do you do? [Keep the item./Exchange the item./Use the item./Throw the item away.]
- **7597**: Exchange with which item? [$0./$1./$2./$3./$4./$5./$6./$7./$8./$9./$10./$11./$12./$13./$14./$15./$16./$17./$18./$19./$20./$21./$22./$23./$24./$25./$26./$27./$28./$29./$30./Return.]
- **8629**: There is treasure somewhere in the vicinity of this marker...
- **8641**: Your chocobo seems especially sharp today!
- **8642**: Your chocobo seems especially energetic today!

## Events

### Event 65535

#### Metadata

| Field        | Value   |
|--------------|---------|
| Entrypoint   | 0x0000  |
| Data Size    | 1 bytes |
| Instructions | 1       |

```
      00 01 02 03 04 05 06 07  08 09 0A 0B 0C 0D 0E 0F
      -- -- -- -- -- -- -- --  -- -- -- -- -- -- -- --
0000: 00                                                .               
```

#### Opcodes

```
  0: 0x0000 [0x00] END_REQSTACK()
```

### Event 20

#### Metadata

| Field        | Value    |
|--------------|----------|
| Entrypoint   | 0x0001   |
| Data Size    | 42 bytes |
| Instructions | 13       |

```
      00 01 02 03 04 05 06 07  08 09 0A 0B 0C 0D 0E 0F
      -- -- -- -- -- -- -- --  -- -- -- -- -- -- -- --
0000:    20 01 42 30 47 00 02  10 03 10 04 10 05 10 47    .B0G.........G
0010: 01 02 06 10 00 80 01 29  00 48 01 80 23 02 09 10  .......).H..#...
0020: 02 80 01 29 00 48 03 80  23 21 00                 ...).H..#!.     
```

#### Opcodes

```
  0: 0x0001 [0x20] SET_CLI_EVENT_UC_FLAG: Lock player control
  1: 0x0003 [0x42] SET_CLI_EVENT_CANCEL_DATA()
  2: 0x0004 [0x30] SET_UCOFF_CONTINUE_ZERO()
  3: 0x0005 [0x47] UPDATE_PLAYER_POS(Work_Zone[2], Work_Zone[3], Work_Zone[4], yaw=Work_Zone[5])
  4: 0x000F [0x47] WAIT_PLAYER_POS_UPDATE
  5: 0x0011 [0x02] IF !(Work_Zone[6] == 4294967295*) GOTO 0x0029
  6: 0x0019 [0x48] [System] [7550*]:
    → "You scored $4 [Petra/Petras] ($5 [Ballista point/Ballista points])."
  7: 0x001C [0x23] WAIT_FOR_DIALOG_INTERACTION
  8: 0x001D [0x02] IF !(Work_Zone[9] == 0*) GOTO 0x0029
  9: 0x0025 [0x48] [System] [7548*]:
    → "Contributing a total of $7 [Petra/Petras] to the [San d'Orian/Bastokan/Windurstian] forces, today's high scorer is %0!"
 10: 0x0028 [0x23] WAIT_FOR_DIALOG_INTERACTION
 11: 0x0029 [0x21] END_EVENT
 12: 0x002A [0x00] END_REQSTACK()
```

### Event 26

#### Metadata

| Field        | Value    |
|--------------|----------|
| Entrypoint   | 0x002B   |
| Data Size    | 29 bytes |
| Instructions | 9        |

```
      00 01 02 03 04 05 06 07  08 09 0A 0B 0C 0D 0E 0F
      -- -- -- -- -- -- -- --  -- -- -- -- -- -- -- --
0020:                                   20 01 24 04 80              .$..
0030: 05 80 02 80 25 02 00 10  02 80 00 46 00 42 03 01  ....%......F.B..
0040: 10 05 80 01 46 00 21 00                           ....F.!.        
```

#### Opcodes

```
  0: 0x002B [0x20] SET_CLI_EVENT_UC_FLAG: Lock player control
  1: 0x002D [0x24] CREATE_DIALOG(message_id=7594*, default_option=1*, option_flags=0*)
    → "You find a Petra! [Keep it./Throw it away.]"
  2: 0x0034 [0x25] WAIT_DIALOG_SELECT()
  3: 0x0035 [0x02] IF !(Work_Zone[0] == 0*) GOTO 0x0046
  4: 0x003D [0x42] SET_CLI_EVENT_CANCEL_DATA()
  5: 0x003E [0x03] Work_Zone[1] = 1*
  6: 0x0043 [0x01] GOTO 0x0046

SUBROUTINE_0046:
  7: 0x0046 [0x21] END_EVENT
  8: 0x0047 [0x00] END_REQSTACK()
```

### Event 23

#### Metadata

| Field        | Value      |
|--------------|------------|
| Entrypoint   | 0x0048     |
| Data Size    | 4345 bytes |
| Instructions | 548        |

```
      00 01 02 03 04 05 06 07  08 09 0A 0B 0C 0D 0E 0F
      -- -- -- -- -- -- -- --  -- -- -- -- -- -- -- --
0040:                          20 01 03 01 00 02 10 03           .......
0050: 17 00 03 10 06 13 00 02  13 00 06 80 05 96 00 02  ................
0060: 13 00 07 80 04 82 00 03  14 00 13 00 08 14 00 07  ................
0070: 80 3E 05 10 14 00 7F 00  3C 02 00 13 00 08 80 01  .>......<.......
0080: 90 00 3E 04 10 13 00 90  00 3C 02 00 13 00 08 80  ..>......<......
0090: 0B 13 00 01 57 00 1A 80  04 03 12 00 16 00 03 11  ....W...........
00A0: 00 09 10 06 10 00 03 02  10 12 00 02 11 00 02 80  ................
00B0: 80 BF 00 48 09 80 23 03  10 00 08 80 01 E7 00 02  ...H..#.........
00C0: 11 00 05 80 80 D3 00 48  0A 80 23 03 10 00 05 80  .......H..#.....
00D0: 01 E7 00 02 11 00 08 80  80 E7 00 48 0B 80 23 03  ...........H..#.
00E0: 10 00 0C 80 01 E7 00 2E  03 02 10 12 00 06 13 00  ................
00F0: 02 12 00 0D 80 80 FE 00  05 13 00 01 28 01 02 12  ............(...
0100: 00 0E 80 80 0C 01 05 13  00 01 28 01 02 12 00 0F  ..........(.....
0110: 80 80 1A 01 05 13 00 01  28 01 02 12 00 10 80 80  ........(.......
0120: 28 01 05 13 00 01 28 01  02 13 00 05 80 00 37 01  (.....(.......7.
0130: 3C 10 00 08 80 05 80 24  11 80 02 80 10 00 25 02  <......$......%.
0140: 00 10 02 80 00 4F 01 03  01 10 02 80 01 7D 02 02  .....O.......}..
0150: 00 10 05 80 00 5D 02 06  00 00 1A 80 04 06 02 10  .....]..........
0160: 06 03 10 06 04 10 06 05  10 06 06 10 06 07 10 06  ................
0170: 08 10 06 09 10 06 00 17  06 01 17 06 02 17 06 03  ................
0180: 17 06 04 17 06 05 17 06  06 17 06 07 17 06 08 17  ................
0190: 06 09 17 06 0A 17 06 0B  17 06 0C 17 06 0D 17 06  ................
01A0: 0E 17 06 0F 17 06 10 17  06 11 17 06 12 17 06 13  ................
01B0: 17 06 14 17 06 15 17 06  16 17 06 17 17 06 18 17  ................
01C0: 03 0F 00 00 80 06 04 00  06 00 00 02 00 00 06 80  ................
01D0: 05 FF 01 3E 02 00 00 00  F9 01 03 17 00 00 00 1A  ...>............
01E0: 80 04 03 13 00 04 00 1A  7F 02 03 01 10 12 80 3D  ...............=
01F0: 0F 00 04 00 05 80 0B 04  00 0B 00 00 01 CB 01 03  ................
0200: 18 17 12 00 3D 0F 00 13  80 05 80 24 14 80 02 80  ....=......$....
0210: 0F 00 25 02 00 10 13 80  00 21 02 01 E7 00 01 22  ..%......!....."
0220: 02 42 03 13 00 00 10 1A  7F 02 06 00 00 06 04 00  .B..............
0230: 02 00 00 06 80 05 55 02  3E 02 00 00 00 4F 02 02  ......U.>....O..
0240: 04 00 00 10 00 4C 02 03  01 10 00 00 0B 04 00 0B  .....L..........
0250: 00 00 01 30 02 07 01 10  15 80 01 7D 02 02 00 10  ...0.......}....
0260: 08 80 00 6D 02 03 01 10  08 80 01 7D 02 02 00 10  ...m.......}....
0270: 0C 80 00 7D 02 03 01 10  0C 80 01 7D 02 21 00 02  ...}.......}.!..
0280: 13 00 02 80 80 8F 02 03  02 10 16 00 01 7F 04 02  ................
0290: 13 00 05 80 80 9F 02 03  03 10 16 00 01 7F 04 02  ................
02A0: 13 00 08 80 80 AF 02 03  04 10 16 00 01 7F 04 02  ................
02B0: 13 00 0C 80 80 BF 02 03  05 10 16 00 01 7F 04 02  ................
02C0: 13 00 16 80 80 CF 02 03  06 10 16 00 01 7F 04 02  ................
02D0: 13 00 17 80 80 DF 02 03  07 10 16 00 01 7F 04 02  ................
02E0: 13 00 18 80 80 EF 02 03  08 10 16 00 01 7F 04 02  ................
02F0: 13 00 19 80 80 FF 02 03  09 10 16 00 01 7F 04 02  ................
0300: 13 00 1A 80 80 0F 03 03  00 17 16 00 01 7F 04 02  ................
0310: 13 00 1B 80 80 1F 03 03  01 17 16 00 01 7F 04 02  ................
0320: 13 00 1C 80 80 2F 03 03  02 17 16 00 01 7F 04 02  ...../..........
0330: 13 00 1D 80 80 3F 03 03  03 17 16 00 01 7F 04 02  .....?..........
0340: 13 00 1E 80 80 4F 03 03  04 17 16 00 01 7F 04 02  .....O..........
0350: 13 00 1F 80 80 5F 03 03  05 17 16 00 01 7F 04 02  ....._..........
0360: 13 00 20 80 80 6F 03 03  06 17 16 00 01 7F 04 02  .. ..o..........
0370: 13 00 21 80 80 7F 03 03  07 17 16 00 01 7F 04 02  ..!.............
0380: 13 00 22 80 80 8F 03 03  08 17 16 00 01 7F 04 02  ..".............
0390: 13 00 23 80 80 9F 03 03  09 17 16 00 01 7F 04 02  ..#.............
03A0: 13 00 24 80 80 AF 03 03  0A 17 16 00 01 7F 04 02  ..$.............
03B0: 13 00 25 80 80 BF 03 03  0B 17 16 00 01 7F 04 02  ..%.............
03C0: 13 00 26 80 80 CF 03 03  0C 17 16 00 01 7F 04 02  ..&.............
03D0: 13 00 27 80 80 DF 03 03  0D 17 16 00 01 7F 04 02  ..'.............
03E0: 13 00 28 80 80 EF 03 03  0E 17 16 00 01 7F 04 02  ..(.............
03F0: 13 00 29 80 80 FF 03 03  0F 17 16 00 01 7F 04 02  ..).............
0400: 13 00 2A 80 80 0F 04 03  10 17 16 00 01 7F 04 02  ..*.............
0410: 13 00 2B 80 80 1F 04 03  11 17 16 00 01 7F 04 02  ..+.............
0420: 13 00 2C 80 80 2F 04 03  12 17 16 00 01 7F 04 02  ..,../..........
0430: 13 00 2D 80 80 3F 04 03  13 17 16 00 01 7F 04 02  ..-..?..........
0440: 13 00 2E 80 80 4F 04 03  14 17 16 00 01 7F 04 02  .....O..........
0450: 13 00 2F 80 80 5F 04 03  15 17 16 00 01 7F 04 02  ../.._..........
0460: 13 00 30 80 80 6F 04 03  16 17 16 00 01 7F 04 02  ..0..o..........
0470: 13 00 13 80 80 7F 04 03  17 17 16 00 01 7F 04 1B  ................
0480: 1A A0 10 02 1B 00 05 80  80 73 07 02 17 00 00 80  .........s......
0490: 80 9B 04 03 16 00 02 80  01 70 07 02 17 00 02 80  .........p......
04A0: 80 AB 04 03 16 00 31 80  01 70 07 02 17 00 05 80  ......1..p......
04B0: 80 BB 04 03 16 00 32 80  01 70 07 02 17 00 08 80  ......2..p......
04C0: 80 CB 04 03 16 00 33 80  01 70 07 02 17 00 0C 80  ......3..p......
04D0: 80 DB 04 03 16 00 34 80  01 70 07 02 17 00 16 80  ......4..p......
04E0: 80 EB 04 03 16 00 35 80  01 70 07 02 17 00 17 80  ......5..p......
04F0: 80 FB 04 03 16 00 36 80  01 70 07 02 17 00 18 80  ......6..p......
0500: 80 0B 05 03 16 00 37 80  01 70 07 02 17 00 19 80  ......7..p......
0510: 80 1B 05 03 16 00 38 80  01 70 07 02 17 00 1A 80  ......8..p......
0520: 80 2B 05 03 16 00 39 80  01 70 07 02 17 00 1B 80  .+....9..p......
0530: 80 3B 05 03 16 00 3A 80  01 70 07 02 17 00 1C 80  .;....:..p......
0540: 80 4B 05 03 16 00 3B 80  01 70 07 02 17 00 1D 80  .K....;..p......
0550: 80 5B 05 03 16 00 3C 80  01 70 07 02 17 00 1E 80  .[....<..p......
0560: 80 6B 05 03 16 00 3D 80  01 70 07 02 17 00 1F 80  .k....=..p......
0570: 80 7B 05 03 16 00 3E 80  01 70 07 02 17 00 20 80  .{....>..p.... .
0580: 80 8B 05 03 16 00 3F 80  01 70 07 02 17 00 21 80  ......?..p....!.
0590: 80 9B 05 03 16 00 40 80  01 70 07 02 17 00 22 80  ......@..p....".
05A0: 80 AB 05 03 16 00 41 80  01 70 07 02 17 00 23 80  ......A..p....#.
05B0: 80 BB 05 03 16 00 42 80  01 70 07 02 17 00 24 80  ......B..p....$.
05C0: 80 CB 05 03 16 00 43 80  01 70 07 02 17 00 25 80  ......C..p....%.
05D0: 80 DB 05 03 16 00 44 80  01 70 07 02 17 00 26 80  ......D..p....&.
05E0: 80 EB 05 03 16 00 45 80  01 70 07 02 17 00 27 80  ......E..p....'.
05F0: 80 FB 05 03 16 00 46 80  01 70 07 02 17 00 28 80  ......F..p....(.
0600: 80 0B 06 03 16 00 47 80  01 70 07 02 17 00 29 80  ......G..p....).
0610: 80 1B 06 03 16 00 48 80  01 70 07 02 17 00 2A 80  ......H..p....*.
0620: 80 2B 06 03 16 00 49 80  01 70 07 02 17 00 2B 80  .+....I..p....+.
0630: 80 3B 06 03 16 00 4A 80  01 70 07 02 17 00 2C 80  .;....J..p....,.
0640: 80 4B 06 03 16 00 4B 80  01 70 07 02 17 00 2D 80  .K....K..p....-.
0650: 80 5B 06 03 16 00 4C 80  01 70 07 02 17 00 2E 80  .[....L..p......
0660: 80 6B 06 03 16 00 4D 80  01 70 07 02 17 00 2F 80  .k....M..p..../.
0670: 80 7B 06 03 16 00 4E 80  01 70 07 02 17 00 30 80  .{....N..p....0.
0680: 80 8B 06 03 16 00 4F 80  01 70 07 02 17 00 13 80  ......O..p......
0690: 80 9B 06 03 16 00 50 80  01 70 07 02 17 00 07 80  ......P..p......
06A0: 80 AB 06 03 16 00 51 80  01 70 07 02 17 00 52 80  ......Q..p....R.
06B0: 80 BB 06 03 16 00 53 80  01 70 07 02 17 00 54 80  ......S..p....T.
06C0: 80 CB 06 03 16 00 55 80  01 70 07 02 17 00 56 80  ......U..p....V.
06D0: 80 DB 06 03 16 00 57 80  01 70 07 02 17 00 58 80  ......W..p....X.
06E0: 80 EB 06 03 16 00 0D 80  01 70 07 02 17 00 59 80  .........p....Y.
06F0: 80 FB 06 03 16 00 0E 80  01 70 07 02 17 00 5A 80  .........p....Z.
0700: 80 0B 07 03 16 00 0F 80  01 70 07 02 17 00 5B 80  .........p....[.
0710: 80 1B 07 03 16 00 10 80  01 70 07 02 17 00 5C 80  .........p....\.
0720: 80 2B 07 03 16 00 5D 80  01 70 07 02 17 00 5E 80  .+....]..p....^.
0730: 80 3B 07 03 16 00 5F 80  01 70 07 02 17 00 60 80  .;...._..p....`.
0740: 80 4B 07 03 16 00 61 80  01 70 07 02 17 00 62 80  .K....a..p....b.
0750: 80 5B 07 03 16 00 63 80  01 70 07 02 17 00 64 80  .[....c..p....d.
0760: 80 6B 07 03 16 00 65 80  01 70 07 03 16 00 02 80  .k....e..p......
0770: 01 83 0A 02 1B 00 08 80  80 83 0A 02 17 00 00 80  ................
0780: 80 8B 07 03 16 00 02 80  01 80 0A 02 17 00 02 80  ................
0790: 80 9B 07 03 16 00 32 80  01 80 0A 02 17 00 05 80  ......2.........
07A0: 80 AB 07 03 16 00 33 80  01 80 0A 02 17 00 08 80  ......3.........
07B0: 80 BB 07 03 16 00 66 80  01 80 0A 02 17 00 0C 80  ......f.........
07C0: 80 CB 07 03 16 00 35 80  01 80 0A 02 17 00 16 80  ......5.........
07D0: 80 DB 07 03 16 00 36 80  01 80 0A 02 17 00 17 80  ......6.........
07E0: 80 EB 07 03 16 00 67 80  01 80 0A 02 17 00 18 80  ......g.........
07F0: 80 FB 07 03 16 00 68 80  01 80 0A 02 17 00 19 80  ......h.........
0800: 80 0B 08 03 16 00 37 80  01 80 0A 02 17 00 1A 80  ......7.........
0810: 80 1B 08 03 16 00 39 80  01 80 0A 02 17 00 1B 80  ......9.........
0820: 80 2B 08 03 16 00 3A 80  01 80 0A 02 17 00 1C 80  .+....:.........
0830: 80 3B 08 03 16 00 3B 80  01 80 0A 02 17 00 1D 80  .;....;.........
0840: 80 4B 08 03 16 00 3C 80  01 80 0A 02 17 00 1E 80  .K....<.........
0850: 80 5B 08 03 16 00 69 80  01 80 0A 02 17 00 1F 80  .[....i.........
0860: 80 6B 08 03 16 00 3E 80  01 80 0A 02 17 00 20 80  .k....>....... .
0870: 80 7B 08 03 16 00 3F 80  01 80 0A 02 17 00 21 80  .{....?.......!.
0880: 80 8B 08 03 16 00 40 80  01 80 0A 02 17 00 22 80  ......@.......".
0890: 80 9B 08 03 16 00 41 80  01 80 0A 02 17 00 23 80  ......A.......#.
08A0: 80 AB 08 03 16 00 42 80  01 80 0A 02 17 00 24 80  ......B.......$.
08B0: 80 BB 08 03 16 00 43 80  01 80 0A 02 17 00 25 80  ......C.......%.
08C0: 80 CB 08 03 16 00 44 80  01 80 0A 02 17 00 26 80  ......D.......&.
08D0: 80 DB 08 03 16 00 45 80  01 80 0A 02 17 00 27 80  ......E.......'.
08E0: 80 EB 08 03 16 00 46 80  01 80 0A 02 17 00 28 80  ......F.......(.
08F0: 80 FB 08 03 16 00 47 80  01 80 0A 02 17 00 29 80  ......G.......).
0900: 80 0B 09 03 16 00 48 80  01 80 0A 02 17 00 2A 80  ......H.......*.
0910: 80 1B 09 03 16 00 49 80  01 80 0A 02 17 00 2B 80  ......I.......+.
0920: 80 2B 09 03 16 00 4A 80  01 80 0A 02 17 00 2C 80  .+....J.......,.
0930: 80 3B 09 03 16 00 6A 80  01 80 0A 02 17 00 2D 80  .;....j.......-.
0940: 80 4B 09 03 16 00 6B 80  01 80 0A 02 17 00 2E 80  .K....k.........
0950: 80 5B 09 03 16 00 6C 80  01 80 0A 02 17 00 2F 80  .[....l......./.
0960: 80 6B 09 03 16 00 6D 80  01 80 0A 02 17 00 30 80  .k....m.......0.
0970: 80 7B 09 03 16 00 6E 80  01 80 0A 02 17 00 13 80  .{....n.........
0980: 80 8B 09 03 16 00 6F 80  01 80 0A 02 17 00 07 80  ......o.........
0990: 80 9B 09 03 16 00 4F 80  01 80 0A 02 17 00 52 80  ......O.......R.
09A0: 80 AB 09 03 16 00 50 80  01 80 0A 02 17 00 54 80  ......P.......T.
09B0: 80 BB 09 03 16 00 51 80  01 80 0A 02 17 00 56 80  ......Q.......V.
09C0: 80 CB 09 03 16 00 53 80  01 80 0A 02 17 00 58 80  ......S.......X.
09D0: 80 DB 09 03 16 00 55 80  01 80 0A 02 17 00 59 80  ......U.......Y.
09E0: 80 EB 09 03 16 00 57 80  01 80 0A 02 17 00 5A 80  ......W.......Z.
09F0: 80 FB 09 03 16 00 0D 80  01 80 0A 02 17 00 5B 80  ..............[.
0A00: 80 0B 0A 03 16 00 0E 80  01 80 0A 02 17 00 5C 80  ..............\.
0A10: 80 1B 0A 03 16 00 0F 80  01 80 0A 02 17 00 5E 80  ..............^.
0A20: 80 2B 0A 03 16 00 10 80  01 80 0A 02 17 00 60 80  .+............`.
0A30: 80 3B 0A 03 16 00 5D 80  01 80 0A 02 17 00 62 80  .;....].......b.
0A40: 80 4B 0A 03 16 00 5F 80  01 80 0A 02 17 00 64 80  .K...._.......d.
0A50: 80 5B 0A 03 16 00 61 80  01 80 0A 02 17 00 70 80  .[....a.......p.
0A60: 80 6B 0A 03 16 00 63 80  01 80 0A 02 17 00 71 80  .k....c.......q.
0A70: 80 7B 0A 03 16 00 65 80  01 80 0A 03 16 00 02 80  .{....e.........
0A80: 01 83 0A 1B 1A A0 10 03  18 00 00 80 02 1B 00 05  ................
0A90: 80 80 77 0D 02 19 00 02  80 80 9F 0A 01 74 0D 02  ..w..........t..
0AA0: 19 00 31 80 80 AF 0A 03  18 00 02 80 01 74 0D 02  ..1..........t..
0AB0: 19 00 32 80 80 BF 0A 03  18 00 05 80 01 74 0D 02  ..2..........t..
0AC0: 19 00 33 80 80 CF 0A 03  18 00 08 80 01 74 0D 02  ..3..........t..
0AD0: 19 00 34 80 80 DF 0A 03  18 00 0C 80 01 74 0D 02  ..4..........t..
0AE0: 19 00 35 80 80 EF 0A 03  18 00 16 80 01 74 0D 02  ..5..........t..
0AF0: 19 00 36 80 80 FF 0A 03  18 00 17 80 01 74 0D 02  ..6..........t..
0B00: 19 00 37 80 80 0F 0B 03  18 00 18 80 01 74 0D 02  ..7..........t..
0B10: 19 00 38 80 80 1F 0B 03  18 00 19 80 01 74 0D 02  ..8..........t..
0B20: 19 00 39 80 80 2F 0B 03  18 00 1A 80 01 74 0D 02  ..9../.......t..
0B30: 19 00 3A 80 80 3F 0B 03  18 00 1B 80 01 74 0D 02  ..:..?.......t..
0B40: 19 00 3B 80 80 4F 0B 03  18 00 1C 80 01 74 0D 02  ..;..O.......t..
0B50: 19 00 3C 80 80 5F 0B 03  18 00 1D 80 01 74 0D 02  ..<.._.......t..
0B60: 19 00 3D 80 80 6F 0B 03  18 00 1E 80 01 74 0D 02  ..=..o.......t..
0B70: 19 00 3E 80 80 7F 0B 03  18 00 1F 80 01 74 0D 02  ..>..........t..
0B80: 19 00 3F 80 80 8F 0B 03  18 00 20 80 01 74 0D 02  ..?....... ..t..
0B90: 19 00 40 80 80 9F 0B 03  18 00 21 80 01 74 0D 02  ..@.......!..t..
0BA0: 19 00 41 80 80 AF 0B 03  18 00 22 80 01 74 0D 02  ..A......."..t..
0BB0: 19 00 42 80 80 BF 0B 03  18 00 23 80 01 74 0D 02  ..B.......#..t..
0BC0: 19 00 43 80 80 CF 0B 03  18 00 24 80 01 74 0D 02  ..C.......$..t..
0BD0: 19 00 44 80 80 DF 0B 03  18 00 25 80 01 74 0D 02  ..D.......%..t..
0BE0: 19 00 45 80 80 EF 0B 03  18 00 26 80 01 74 0D 02  ..E.......&..t..
0BF0: 19 00 46 80 80 FF 0B 03  18 00 27 80 01 74 0D 02  ..F.......'..t..
0C00: 19 00 47 80 80 0F 0C 03  18 00 28 80 01 74 0D 02  ..G.......(..t..
0C10: 19 00 48 80 80 1F 0C 03  18 00 29 80 01 74 0D 02  ..H.......)..t..
0C20: 19 00 49 80 80 2F 0C 03  18 00 2A 80 01 74 0D 02  ..I../....*..t..
0C30: 19 00 4A 80 80 3F 0C 03  18 00 2B 80 01 74 0D 02  ..J..?....+..t..
0C40: 19 00 4B 80 80 4F 0C 03  18 00 2C 80 01 74 0D 02  ..K..O....,..t..
0C50: 19 00 4C 80 80 5F 0C 03  18 00 2D 80 01 74 0D 02  ..L.._....-..t..
0C60: 19 00 4D 80 80 6F 0C 03  18 00 2E 80 01 74 0D 02  ..M..o.......t..
0C70: 19 00 4E 80 80 7F 0C 03  18 00 2F 80 01 74 0D 02  ..N......./..t..
0C80: 19 00 4F 80 80 8F 0C 03  18 00 30 80 01 74 0D 02  ..O.......0..t..
0C90: 19 00 50 80 80 9F 0C 03  18 00 13 80 01 74 0D 02  ..P..........t..
0CA0: 19 00 51 80 80 AF 0C 03  18 00 07 80 01 74 0D 02  ..Q..........t..
0CB0: 19 00 53 80 80 BF 0C 03  18 00 52 80 01 74 0D 02  ..S.......R..t..
0CC0: 19 00 55 80 80 CF 0C 03  18 00 54 80 01 74 0D 02  ..U.......T..t..
0CD0: 19 00 57 80 80 DF 0C 03  18 00 56 80 01 74 0D 02  ..W.......V..t..
0CE0: 19 00 0D 80 80 EF 0C 03  18 00 58 80 01 74 0D 02  ..........X..t..
0CF0: 19 00 0E 80 80 FF 0C 03  18 00 59 80 01 74 0D 02  ..........Y..t..
0D00: 19 00 0F 80 80 0F 0D 03  18 00 5A 80 01 74 0D 02  ..........Z..t..
0D10: 19 00 10 80 80 1F 0D 03  18 00 5B 80 01 74 0D 02  ..........[..t..
0D20: 19 00 5D 80 80 2F 0D 03  16 00 5C 80 01 74 0D 02  ..]../....\..t..
0D30: 19 00 5F 80 80 3F 0D 03  16 00 5E 80 01 74 0D 02  .._..?....^..t..
0D40: 19 00 61 80 80 4F 0D 03  16 00 60 80 01 74 0D 02  ..a..O....`..t..
0D50: 19 00 63 80 80 5F 0D 03  16 00 62 80 01 74 0D 02  ..c.._....b..t..
0D60: 19 00 65 80 80 6F 0D 03  16 00 64 80 01 74 0D 03  ..e..o....d..t..
0D70: 18 00 00 80 01 82 10 02  1B 00 08 80 80 82 10 02  ................
0D80: 19 00 02 80 80 8A 0D 01  7F 10 02 19 00 32 80 80  .............2..
0D90: 9A 0D 03 18 00 02 80 01  7F 10 02 19 00 33 80 80  .............3..
0DA0: AA 0D 03 18 00 05 80 01  7F 10 02 19 00 66 80 80  .............f..
0DB0: BA 0D 03 18 00 08 80 01  7F 10 02 19 00 35 80 80  .............5..
0DC0: CA 0D 03 18 00 0C 80 01  7F 10 02 19 00 36 80 80  .............6..
0DD0: DA 0D 03 18 00 16 80 01  7F 10 02 19 00 67 80 80  .............g..
0DE0: EA 0D 03 18 00 17 80 01  7F 10 02 19 00 68 80 80  .............h..
0DF0: FA 0D 03 18 00 18 80 01  7F 10 02 19 00 37 80 80  .............7..
0E00: 0A 0E 03 18 00 19 80 01  7F 10 02 19 00 39 80 80  .............9..
0E10: 1A 0E 03 18 00 1A 80 01  7F 10 02 19 00 3A 80 80  .............:..
0E20: 2A 0E 03 18 00 1B 80 01  7F 10 02 19 00 3B 80 80  *............;..
0E30: 3A 0E 03 18 00 1C 80 01  7F 10 02 19 00 3C 80 80  :............<..
0E40: 4A 0E 03 18 00 1D 80 01  7F 10 02 19 00 69 80 80  J............i..
0E50: 5A 0E 03 18 00 1E 80 01  7F 10 02 19 00 3E 80 80  Z............>..
0E60: 6A 0E 03 18 00 1F 80 01  7F 10 02 19 00 3F 80 80  j............?..
0E70: 7A 0E 03 18 00 20 80 01  7F 10 02 19 00 40 80 80  z.... .......@..
0E80: 8A 0E 03 18 00 21 80 01  7F 10 02 19 00 41 80 80  .....!.......A..
0E90: 9A 0E 03 18 00 22 80 01  7F 10 02 19 00 42 80 80  .....".......B..
0EA0: AA 0E 03 18 00 23 80 01  7F 10 02 19 00 43 80 80  .....#.......C..
0EB0: BA 0E 03 18 00 24 80 01  7F 10 02 19 00 44 80 80  .....$.......D..
0EC0: CA 0E 03 18 00 25 80 01  7F 10 02 19 00 45 80 80  .....%.......E..
0ED0: DA 0E 03 18 00 26 80 01  7F 10 02 19 00 46 80 80  .....&.......F..
0EE0: EA 0E 03 18 00 27 80 01  7F 10 02 19 00 47 80 80  .....'.......G..
0EF0: FA 0E 03 18 00 28 80 01  7F 10 02 19 00 48 80 80  .....(.......H..
0F00: 0A 0F 03 18 00 29 80 01  7F 10 02 19 00 49 80 80  .....).......I..
0F10: 1A 0F 03 18 00 2A 80 01  7F 10 02 19 00 4A 80 80  .....*.......J..
0F20: 2A 0F 03 18 00 2B 80 01  7F 10 02 19 00 6A 80 80  *....+.......j..
0F30: 3A 0F 03 18 00 2C 80 01  7F 10 02 19 00 6B 80 80  :....,.......k..
0F40: 4A 0F 03 18 00 2D 80 01  7F 10 02 19 00 6C 80 80  J....-.......l..
0F50: 5A 0F 03 18 00 2E 80 01  7F 10 02 19 00 6D 80 80  Z............m..
0F60: 6A 0F 03 18 00 2F 80 01  7F 10 02 19 00 6E 80 80  j..../.......n..
0F70: 7A 0F 03 18 00 30 80 01  7F 10 02 19 00 6F 80 80  z....0.......o..
0F80: 8A 0F 03 18 00 13 80 01  7F 10 02 19 00 4F 80 80  .............O..
0F90: 9A 0F 03 18 00 07 80 01  7F 10 02 19 00 50 80 80  .............P..
0FA0: AA 0F 03 18 00 52 80 01  7F 10 02 19 00 51 80 80  .....R.......Q..
0FB0: BA 0F 03 18 00 54 80 01  7F 10 02 19 00 53 80 80  .....T.......S..
0FC0: CA 0F 03 18 00 56 80 01  7F 10 02 19 00 55 80 80  .....V.......U..
0FD0: DA 0F 03 18 00 58 80 01  7F 10 02 19 00 57 80 80  .....X.......W..
0FE0: EA 0F 03 18 00 59 80 01  7F 10 02 19 00 0D 80 80  .....Y..........
0FF0: FA 0F 03 18 00 5A 80 01  7F 10 02 19 00 0E 80 80  .....Z..........
1000: 0A 10 03 18 00 5B 80 01  7F 10 02 19 00 0F 80 80  .....[..........
1010: 1A 10 03 18 00 5C 80 01  7F 10 02 19 00 10 80 80  .....\..........
1020: 2A 10 03 18 00 5E 80 01  7F 10 02 19 00 5D 80 80  *....^.......]..
1030: 3A 10 03 16 00 60 80 01  7F 10 02 19 00 5F 80 80  :....`......._..
1040: 4A 10 03 16 00 62 80 01  7F 10 02 19 00 61 80 80  J....b.......a..
1050: 5A 10 03 16 00 64 80 01  7F 10 02 19 00 63 80 80  Z....d.......c..
1060: 6A 10 03 16 00 70 80 01  7F 10 02 19 00 65 80 80  j....p.......e..
1070: 7A 10 03 16 00 71 80 01  7F 10 03 18 00 00 80 01  z....q..........
1080: 82 10 06 1A 00 02 18 00  02 80 04 9F 10 02 18 00  ................
1090: 06 80 05 9F 10 3E 02 00  18 00 9F 10 05 1A 00 1B  .....>..........
10A0: 06 1B 00 06 1C 00 02 01  00 1C 80 80 B9 10 03 1B  ................
10B0: 00 05 80 05 1C 00 01 21  11 02 01 00 26 80 80 CC  .......!....&...
10C0: 10 03 1B 00 05 80 05 1C  00 01 21 11 02 01 00 30  ..........!....0
10D0: 80 80 DC 10 03 1B 00 05  80 01 21 11 02 01 00 5C  ..........!....\
10E0: 80 80 EC 10 03 1B 00 05  80 01 21 11 02 01 00 72  ..........!....r
10F0: 80 80 FC 10 03 1B 00 08  80 01 21 11 02 01 00 73  ..........!....s
1100: 80 80 0C 11 03 1B 00 08  80 01 21 11 02 01 00 02  ..........!.....
1110: 80 80 1C 11 03 1B 00 08  80 01 21 11 03 1B 00 05  ..........!.....
1120: 80 1B 06 14 00 06 15 00  02 14 00 06 80 05 40 11  ..............@.
1130: 3E 02 00 14 00 3A 11 0B  15 00 0B 14 00 01 28 11  >....:........(.
1140: 1B                                                .               
```

#### Opcodes

```
  0: 0x0048 [0x20] SET_CLI_EVENT_UC_FLAG: Lock player control
  1: 0x004A [0x03] ExtData[1]->WorkLocal[1] = Work_Zone[2]
  2: 0x004F [0x03] ExtData[1]->WorkLocal[23] = Work_Zone[3]
  3: 0x0054 [0x06] ExtData[1]->WorkLocal[19] = 0
  4: 0x0057 [0x02] IF !(ExtData[1]->WorkLocal[19] > 63*) GOTO 0x0096
  5: 0x005F [0x02] IF !(ExtData[1]->WorkLocal[19] < 32*) GOTO 0x0082
  6: 0x0067 [0x03] ExtData[1]->WorkLocal[20] = ExtData[1]->WorkLocal[19]
  7: 0x006C [0x08] ExtData[1]->WorkLocal[20] -= 32*
  8: 0x0071 [0x3E] IF !(Work_Zone[5] bit ExtData[1]->WorkLocal[20]) GOTO 0x007F
  9: 0x0078 [0x3C] SET_BIT_FLAG_CONDITIONAL(target_work_offset=ExtData[1]->WorkLocal[2], bit_index_work_offset=ExtData[1]->WorkLocal[19], condition_work_offset=2*)
 10: 0x007F [0x01] GOTO 0x0090
 11: 0x0082 [0x3E] IF !(Work_Zone[4] bit ExtData[1]->WorkLocal[19]) GOTO 0x0090
 12: 0x0089 [0x3C] SET_BIT_FLAG_CONDITIONAL(target_work_offset=ExtData[1]->WorkLocal[2], bit_index_work_offset=ExtData[1]->WorkLocal[19], condition_work_offset=2*)

SUBROUTINE_0090:
 13: 0x0090 [0x0B] ExtData[1]->WorkLocal[19]++
 14: 0x0093 [0x01] GOTO 0x0057
 15: 0x0096 [0x1A] CALL_SUBROUTINE(address=0x0480)
 16: 0x0099 [0x03] ExtData[1]->WorkLocal[18] = ExtData[1]->WorkLocal[22]
 17: 0x009E [0x03] ExtData[1]->WorkLocal[17] = Work_Zone[9]
 18: 0x00A3 [0x06] ExtData[1]->WorkLocal[16] = 0
 19: 0x00A6 [0x03] Work_Zone[2] = ExtData[1]->WorkLocal[18]
 20: 0x00AB [0x02] IF !(ExtData[1]->WorkLocal[17] == 0*) GOTO 0x00BF
 21: 0x00B3 [0x48] [System] [7591*]:
    → "You find the temporary item: $0!"
 22: 0x00B6 [0x23] WAIT_FOR_DIALOG_INTERACTION
 23: 0x00B7 [0x03] ExtData[1]->WorkLocal[16] = 2*
 24: 0x00BC [0x01] GOTO 0x00E7
 25: 0x00BF [0x02] IF !(ExtData[1]->WorkLocal[17] == 1*) GOTO 0x00D3
 26: 0x00C7 [0x48] [System] [7592*]:
    → "You find $0, but you cannot carry any more temporary items."
 27: 0x00CA [0x23] WAIT_FOR_DIALOG_INTERACTION
 28: 0x00CB [0x03] ExtData[1]->WorkLocal[16] = 1*
 29: 0x00D0 [0x01] GOTO 0x00E7
 30: 0x00D3 [0x02] IF !(ExtData[1]->WorkLocal[17] == 2*) GOTO 0x00E7
 31: 0x00DB [0x48] [System] [7593*]:
    → "You find $0, but you cannot carry more than one of that temporary item."
 32: 0x00DE [0x23] WAIT_FOR_DIALOG_INTERACTION
 33: 0x00DF [0x03] ExtData[1]->WorkLocal[16] = 3*
 34: 0x00E4 [0x01] GOTO 0x00E7

SUBROUTINE_00E7:
 35: 0x00E7 [0x2E] SET_CLI_EVENT_CANCEL_FLAGS()
 36: 0x00E8 [0x03] Work_Zone[2] = ExtData[1]->WorkLocal[18]
 37: 0x00ED [0x06] ExtData[1]->WorkLocal[19] = 0
 38: 0x00F0 [0x02] IF !(ExtData[1]->WorkLocal[18] == 4210*) GOTO 0x00FE
 39: 0x00F8 [0x05] ExtData[1]->WorkLocal[19] = 1
 40: 0x00FB [0x01] GOTO 0x0128
 41: 0x00FE [0x02] IF !(ExtData[1]->WorkLocal[18] == 4212*) GOTO 0x010C
 42: 0x0106 [0x05] ExtData[1]->WorkLocal[19] = 1
 43: 0x0109 [0x01] GOTO 0x0128
 44: 0x010C [0x02] IF !(ExtData[1]->WorkLocal[18] == 5304*) GOTO 0x011A
 45: 0x0114 [0x05] ExtData[1]->WorkLocal[19] = 1
 46: 0x0117 [0x01] GOTO 0x0128
 47: 0x011A [0x02] IF !(ExtData[1]->WorkLocal[18] == 5305*) GOTO 0x0128
 48: 0x0122 [0x05] ExtData[1]->WorkLocal[19] = 1
 49: 0x0125 [0x01] GOTO 0x0128

SUBROUTINE_0128:
 50: 0x0128 [0x02] IF !(ExtData[1]->WorkLocal[19] == 1*) GOTO 0x0137
 51: 0x0130 [0x3C] SET_BIT_FLAG_CONDITIONAL(target_work_offset=ExtData[1]->WorkLocal[16], bit_index_work_offset=2*, condition_work_offset=1*)
 52: 0x0137 [0x24] CREATE_DIALOG(message_id=7596*, default_option=0*, option_flags=ExtData[1]->WorkLocal[16])
    → "What do you do? [Keep the item./Exchange the item./Use the item./Throw the item away.]"
 53: 0x013E [0x25] WAIT_DIALOG_SELECT()
 54: 0x013F [0x02] IF !(Work_Zone[0] == 0*) GOTO 0x014F
 55: 0x0147 [0x03] Work_Zone[1] = 0*
 56: 0x014C [0x01] GOTO 0x027D
 57: 0x014F [0x02] IF !(Work_Zone[0] == 1*) GOTO 0x025D
 58: 0x0157 [0x06] ExtData[1]->WorkLocal[0] = 0
 59: 0x015A [0x1A] CALL_SUBROUTINE(address=0x0480)
 60: 0x015D [0x06] Work_Zone[2] = 0
 61: 0x0160 [0x06] Work_Zone[3] = 0
 62: 0x0163 [0x06] Work_Zone[4] = 0
 63: 0x0166 [0x06] Work_Zone[5] = 0
 64: 0x0169 [0x06] Work_Zone[6] = 0
 65: 0x016C [0x06] Work_Zone[7] = 0
 66: 0x016F [0x06] Work_Zone[8] = 0
 67: 0x0172 [0x06] Work_Zone[9] = 0
 68: 0x0175 [0x06] Work_Zone_1700[0] = 0
 69: 0x0178 [0x06] Work_Zone_1700[1] = 0
 70: 0x017B [0x06] Work_Zone_1700[2] = 0
 71: 0x017E [0x06] Work_Zone_1700[3] = 0
 72: 0x0181 [0x06] Work_Zone_1700[4] = 0
 73: 0x0184 [0x06] Work_Zone_1700[5] = 0
 74: 0x0187 [0x06] Work_Zone_1700[6] = 0
 75: 0x018A [0x06] Work_Zone_1700[7] = 0
 76: 0x018D [0x06] Work_Zone_1700[8] = 0
 77: 0x0190 [0x06] Work_Zone_1700[9] = 0
 78: 0x0193 [0x06] Work_Zone_1700[10] = 0
 79: 0x0196 [0x06] Work_Zone_1700[11] = 0
 80: 0x0199 [0x06] Work_Zone_1700[12] = 0
 81: 0x019C [0x06] Work_Zone_1700[13] = 0
 82: 0x019F [0x06] Work_Zone_1700[14] = 0
 83: 0x01A2 [0x06] Work_Zone_1700[15] = 0
 84: 0x01A5 [0x06] Work_Zone_1700[16] = 0
 85: 0x01A8 [0x06] Work_Zone_1700[17] = 0
 86: 0x01AB [0x06] Work_Zone_1700[18] = 0
 87: 0x01AE [0x06] Work_Zone_1700[19] = 0
 88: 0x01B1 [0x06] Work_Zone_1700[20] = 0
 89: 0x01B4 [0x06] Work_Zone_1700[21] = 0
 90: 0x01B7 [0x06] Work_Zone_1700[22] = 0
 91: 0x01BA [0x06] Work_Zone_1700[23] = 0
 92: 0x01BD [0x06] Work_Zone_1700[24] = 0
 93: 0x01C0 [0x03] ExtData[1]->WorkLocal[15] = 4294967295*
 94: 0x01C5 [0x06] ExtData[1]->WorkLocal[4] = 0
 95: 0x01C8 [0x06] ExtData[1]->WorkLocal[0] = 0

SUBROUTINE_01CB:
 96: 0x01CB [0x02] IF !(ExtData[1]->WorkLocal[0] > 63*) GOTO 0x01FF
 97: 0x01D3 [0x3E] IF !(ExtData[1]->WorkLocal[2] bit ExtData[1]->WorkLocal[0]) GOTO 0x01F9
 98: 0x01DA [0x03] ExtData[1]->WorkLocal[23] = ExtData[1]->WorkLocal[0]
 99: 0x01DF [0x1A] CALL_SUBROUTINE(address=0x0480)
100: 0x01E2 [0x03] ExtData[1]->WorkLocal[19] = ExtData[1]->WorkLocal[4]
101: 0x01E7 [0x1A] CALL_SUBROUTINE(address=0x027F)
102: 0x01EA [0x03] Work_Zone[1] = 1073741824*
103: 0x01EF [0x3D] CLEAR_BIT_FLAG_CONDITIONAL(target_work_offset=ExtData[1]->WorkLocal[15], bit_index_work_offset=ExtData[1]->WorkLocal[4], condition_work_offset=1*)
104: 0x01F6 [0x0B] ExtData[1]->WorkLocal[4]++
105: 0x01F9 [0x0B] ExtData[1]->WorkLocal[0]++
106: 0x01FC [0x01] GOTO 0x01CB
107: 0x01FF [0x03] Work_Zone_1700[24] = ExtData[1]->WorkLocal[18]
108: 0x0204 [0x3D] CLEAR_BIT_FLAG_CONDITIONAL(target_work_offset=ExtData[1]->WorkLocal[15], bit_index_work_offset=31*, condition_work_offset=1*)
109: 0x020B [0x24] CREATE_DIALOG(message_id=7597*, default_option=0*, option_flags=ExtData[1]->WorkLocal[15])
    → "Exchange with which item? [$0./$1./$2./$3./$4./$5./$6./$7./$8./$9./$10./$11./$12./$13./$14./$15./$16./$17./$18./$19./$20./$21./$22./$23./$24./$25./$26./$27./$28./$29./$30./Return.]"
110: 0x0212 [0x25] WAIT_DIALOG_SELECT()
111: 0x0213 [0x02] IF !(Work_Zone[0] == 31*) GOTO 0x0221
112: 0x021B [0x01] GOTO 0x00E7

SUBROUTINE_0222:
113: 0x0222 [0x03] ExtData[1]->WorkLocal[19] = Work_Zone[0]
114: 0x0227 [0x1A] CALL_SUBROUTINE(address=0x027F)
115: 0x022A [0x06] ExtData[1]->WorkLocal[0] = 0
116: 0x022D [0x06] ExtData[1]->WorkLocal[4] = 0

SUBROUTINE_0230:
117: 0x0230 [0x02] IF !(ExtData[1]->WorkLocal[0] > 63*) GOTO 0x0255
118: 0x0238 [0x3E] IF !(ExtData[1]->WorkLocal[2] bit ExtData[1]->WorkLocal[0]) GOTO 0x024F
119: 0x023F [0x02] IF !(ExtData[1]->WorkLocal[4] == Work_Zone[0]) GOTO 0x024C
120: 0x0247 [0x03] Work_Zone[1] = ExtData[1]->WorkLocal[0]
121: 0x024C [0x0B] ExtData[1]->WorkLocal[4]++
122: 0x024F [0x0B] ExtData[1]->WorkLocal[0]++
123: 0x0252 [0x01] GOTO 0x0230
124: 0x0255 [0x07] Work_Zone[1] += 1000*
125: 0x025A [0x01] GOTO 0x027D
126: 0x025D [0x02] IF !(Work_Zone[0] == 2*) GOTO 0x026D
127: 0x0265 [0x03] Work_Zone[1] = 2*
128: 0x026A [0x01] GOTO 0x027D
129: 0x026D [0x02] IF !(Work_Zone[0] == 3*) GOTO 0x027D
130: 0x0275 [0x03] Work_Zone[1] = 3*
131: 0x027A [0x01] GOTO 0x027D

SUBROUTINE_027D:
132: 0x027D [0x21] END_EVENT
133: 0x027E [0x00] END_REQSTACK()

SUBROUTINE_027F:
134: 0x027F [0x02] IF !(ExtData[1]->WorkLocal[19] == 0*) GOTO 0x028F
135: 0x0287 [0x03] Work_Zone[2] = ExtData[1]->WorkLocal[22]
136: 0x028C [0x01] GOTO 0x047F
137: 0x028F [0x02] IF !(ExtData[1]->WorkLocal[19] == 1*) GOTO 0x029F
138: 0x0297 [0x03] Work_Zone[3] = ExtData[1]->WorkLocal[22]
139: 0x029C [0x01] GOTO 0x047F
140: 0x029F [0x02] IF !(ExtData[1]->WorkLocal[19] == 2*) GOTO 0x02AF
141: 0x02A7 [0x03] Work_Zone[4] = ExtData[1]->WorkLocal[22]
142: 0x02AC [0x01] GOTO 0x047F
143: 0x02AF [0x02] IF !(ExtData[1]->WorkLocal[19] == 3*) GOTO 0x02BF
144: 0x02B7 [0x03] Work_Zone[5] = ExtData[1]->WorkLocal[22]
145: 0x02BC [0x01] GOTO 0x047F
146: 0x02BF [0x02] IF !(ExtData[1]->WorkLocal[19] == 4*) GOTO 0x02CF
147: 0x02C7 [0x03] Work_Zone[6] = ExtData[1]->WorkLocal[22]
148: 0x02CC [0x01] GOTO 0x047F
149: 0x02CF [0x02] IF !(ExtData[1]->WorkLocal[19] == 5*) GOTO 0x02DF
150: 0x02D7 [0x03] Work_Zone[7] = ExtData[1]->WorkLocal[22]
151: 0x02DC [0x01] GOTO 0x047F
152: 0x02DF [0x02] IF !(ExtData[1]->WorkLocal[19] == 6*) GOTO 0x02EF
153: 0x02E7 [0x03] Work_Zone[8] = ExtData[1]->WorkLocal[22]
154: 0x02EC [0x01] GOTO 0x047F
155: 0x02EF [0x02] IF !(ExtData[1]->WorkLocal[19] == 7*) GOTO 0x02FF
156: 0x02F7 [0x03] Work_Zone[9] = ExtData[1]->WorkLocal[22]
157: 0x02FC [0x01] GOTO 0x047F
158: 0x02FF [0x02] IF !(ExtData[1]->WorkLocal[19] == 8*) GOTO 0x030F
159: 0x0307 [0x03] Work_Zone_1700[0] = ExtData[1]->WorkLocal[22]
160: 0x030C [0x01] GOTO 0x047F
161: 0x030F [0x02] IF !(ExtData[1]->WorkLocal[19] == 9*) GOTO 0x031F
162: 0x0317 [0x03] Work_Zone_1700[1] = ExtData[1]->WorkLocal[22]
163: 0x031C [0x01] GOTO 0x047F
164: 0x031F [0x02] IF !(ExtData[1]->WorkLocal[19] == 10*) GOTO 0x032F
165: 0x0327 [0x03] Work_Zone_1700[2] = ExtData[1]->WorkLocal[22]
166: 0x032C [0x01] GOTO 0x047F
167: 0x032F [0x02] IF !(ExtData[1]->WorkLocal[19] == 11*) GOTO 0x033F
168: 0x0337 [0x03] Work_Zone_1700[3] = ExtData[1]->WorkLocal[22]
169: 0x033C [0x01] GOTO 0x047F
170: 0x033F [0x02] IF !(ExtData[1]->WorkLocal[19] == 12*) GOTO 0x034F
171: 0x0347 [0x03] Work_Zone_1700[4] = ExtData[1]->WorkLocal[22]
172: 0x034C [0x01] GOTO 0x047F
173: 0x034F [0x02] IF !(ExtData[1]->WorkLocal[19] == 13*) GOTO 0x035F
174: 0x0357 [0x03] Work_Zone_1700[5] = ExtData[1]->WorkLocal[22]
175: 0x035C [0x01] GOTO 0x047F
176: 0x035F [0x02] IF !(ExtData[1]->WorkLocal[19] == 14*) GOTO 0x036F
177: 0x0367 [0x03] Work_Zone_1700[6] = ExtData[1]->WorkLocal[22]
178: 0x036C [0x01] GOTO 0x047F
179: 0x036F [0x02] IF !(ExtData[1]->WorkLocal[19] == 15*) GOTO 0x037F
180: 0x0377 [0x03] Work_Zone_1700[7] = ExtData[1]->WorkLocal[22]
181: 0x037C [0x01] GOTO 0x047F
182: 0x037F [0x02] IF !(ExtData[1]->WorkLocal[19] == 16*) GOTO 0x038F
183: 0x0387 [0x03] Work_Zone_1700[8] = ExtData[1]->WorkLocal[22]
184: 0x038C [0x01] GOTO 0x047F
185: 0x038F [0x02] IF !(ExtData[1]->WorkLocal[19] == 17*) GOTO 0x039F
186: 0x0397 [0x03] Work_Zone_1700[9] = ExtData[1]->WorkLocal[22]
187: 0x039C [0x01] GOTO 0x047F
188: 0x039F [0x02] IF !(ExtData[1]->WorkLocal[19] == 18*) GOTO 0x03AF
189: 0x03A7 [0x03] Work_Zone_1700[10] = ExtData[1]->WorkLocal[22]
190: 0x03AC [0x01] GOTO 0x047F
191: 0x03AF [0x02] IF !(ExtData[1]->WorkLocal[19] == 19*) GOTO 0x03BF
192: 0x03B7 [0x03] Work_Zone_1700[11] = ExtData[1]->WorkLocal[22]
193: 0x03BC [0x01] GOTO 0x047F
194: 0x03BF [0x02] IF !(ExtData[1]->WorkLocal[19] == 20*) GOTO 0x03CF
195: 0x03C7 [0x03] Work_Zone_1700[12] = ExtData[1]->WorkLocal[22]
196: 0x03CC [0x01] GOTO 0x047F
197: 0x03CF [0x02] IF !(ExtData[1]->WorkLocal[19] == 21*) GOTO 0x03DF
198: 0x03D7 [0x03] Work_Zone_1700[13] = ExtData[1]->WorkLocal[22]
199: 0x03DC [0x01] GOTO 0x047F
200: 0x03DF [0x02] IF !(ExtData[1]->WorkLocal[19] == 22*) GOTO 0x03EF
201: 0x03E7 [0x03] Work_Zone_1700[14] = ExtData[1]->WorkLocal[22]
202: 0x03EC [0x01] GOTO 0x047F
203: 0x03EF [0x02] IF !(ExtData[1]->WorkLocal[19] == 23*) GOTO 0x03FF
204: 0x03F7 [0x03] Work_Zone_1700[15] = ExtData[1]->WorkLocal[22]
205: 0x03FC [0x01] GOTO 0x047F
206: 0x03FF [0x02] IF !(ExtData[1]->WorkLocal[19] == 24*) GOTO 0x040F
207: 0x0407 [0x03] Work_Zone_1700[16] = ExtData[1]->WorkLocal[22]
208: 0x040C [0x01] GOTO 0x047F
209: 0x040F [0x02] IF !(ExtData[1]->WorkLocal[19] == 25*) GOTO 0x041F
210: 0x0417 [0x03] Work_Zone_1700[17] = ExtData[1]->WorkLocal[22]
211: 0x041C [0x01] GOTO 0x047F
212: 0x041F [0x02] IF !(ExtData[1]->WorkLocal[19] == 26*) GOTO 0x042F
213: 0x0427 [0x03] Work_Zone_1700[18] = ExtData[1]->WorkLocal[22]
214: 0x042C [0x01] GOTO 0x047F
215: 0x042F [0x02] IF !(ExtData[1]->WorkLocal[19] == 27*) GOTO 0x043F
216: 0x0437 [0x03] Work_Zone_1700[19] = ExtData[1]->WorkLocal[22]
217: 0x043C [0x01] GOTO 0x047F
218: 0x043F [0x02] IF !(ExtData[1]->WorkLocal[19] == 28*) GOTO 0x044F
219: 0x0447 [0x03] Work_Zone_1700[20] = ExtData[1]->WorkLocal[22]
220: 0x044C [0x01] GOTO 0x047F
221: 0x044F [0x02] IF !(ExtData[1]->WorkLocal[19] == 29*) GOTO 0x045F
222: 0x0457 [0x03] Work_Zone_1700[21] = ExtData[1]->WorkLocal[22]
223: 0x045C [0x01] GOTO 0x047F
224: 0x045F [0x02] IF !(ExtData[1]->WorkLocal[19] == 30*) GOTO 0x046F
225: 0x0467 [0x03] Work_Zone_1700[22] = ExtData[1]->WorkLocal[22]
226: 0x046C [0x01] GOTO 0x047F
227: 0x046F [0x02] IF !(ExtData[1]->WorkLocal[19] == 31*) GOTO 0x047F
228: 0x0477 [0x03] Work_Zone_1700[23] = ExtData[1]->WorkLocal[22]
229: 0x047C [0x01] GOTO 0x047F

SUBROUTINE_047F:
230: 0x047F [0x1B] RETURN

SUBROUTINE_0480:
231: 0x0480 [0x1A] CALL_SUBROUTINE(address=0x10A0)
232: 0x0483 [0x02] IF !(ExtData[1]->WorkLocal[27] == 1*) GOTO 0x0773
233: 0x048B [0x02] IF !(ExtData[1]->WorkLocal[23] == 4294967295*) GOTO 0x049B
234: 0x0493 [0x03] ExtData[1]->WorkLocal[22] = 0*
235: 0x0498 [0x01] GOTO 0x0770
236: 0x049B [0x02] IF !(ExtData[1]->WorkLocal[23] == 0*) GOTO 0x04AB
237: 0x04A3 [0x03] ExtData[1]->WorkLocal[22] = 4112*
238: 0x04A8 [0x01] GOTO 0x0770
239: 0x04AB [0x02] IF !(ExtData[1]->WorkLocal[23] == 1*) GOTO 0x04BB
240: 0x04B3 [0x03] ExtData[1]->WorkLocal[22] = 4116*
241: 0x04B8 [0x01] GOTO 0x0770
242: 0x04BB [0x02] IF !(ExtData[1]->WorkLocal[23] == 2*) GOTO 0x04CB
243: 0x04C3 [0x03] ExtData[1]->WorkLocal[22] = 4120*
244: 0x04C8 [0x01] GOTO 0x0770
245: 0x04CB [0x02] IF !(ExtData[1]->WorkLocal[23] == 3*) GOTO 0x04DB
246: 0x04D3 [0x03] ExtData[1]->WorkLocal[22] = 4128*
247: 0x04D8 [0x01] GOTO 0x0770
248: 0x04DB [0x02] IF !(ExtData[1]->WorkLocal[23] == 4*) GOTO 0x04EB
249: 0x04E3 [0x03] ExtData[1]->WorkLocal[22] = 4132*
250: 0x04E8 [0x01] GOTO 0x0770
251: 0x04EB [0x02] IF !(ExtData[1]->WorkLocal[23] == 5*) GOTO 0x04FB
252: 0x04F3 [0x03] ExtData[1]->WorkLocal[22] = 4136*
253: 0x04F8 [0x01] GOTO 0x0770
254: 0x04FB [0x02] IF !(ExtData[1]->WorkLocal[23] == 6*) GOTO 0x050B
255: 0x0503 [0x03] ExtData[1]->WorkLocal[22] = 4145*
256: 0x0508 [0x01] GOTO 0x0770
257: 0x050B [0x02] IF !(ExtData[1]->WorkLocal[23] == 7*) GOTO 0x051B
258: 0x0513 [0x03] ExtData[1]->WorkLocal[22] = 4148*
259: 0x0518 [0x01] GOTO 0x0770
260: 0x051B [0x02] IF !(ExtData[1]->WorkLocal[23] == 8*) GOTO 0x052B
261: 0x0523 [0x03] ExtData[1]->WorkLocal[22] = 4150*
262: 0x0528 [0x01] GOTO 0x0770
263: 0x052B [0x02] IF !(ExtData[1]->WorkLocal[23] == 9*) GOTO 0x053B
264: 0x0533 [0x03] ExtData[1]->WorkLocal[22] = 4151*
265: 0x0538 [0x01] GOTO 0x0770
266: 0x053B [0x02] IF !(ExtData[1]->WorkLocal[23] == 10*) GOTO 0x054B
267: 0x0543 [0x03] ExtData[1]->WorkLocal[22] = 4155*
268: 0x0548 [0x01] GOTO 0x0770
269: 0x054B [0x02] IF !(ExtData[1]->WorkLocal[23] == 11*) GOTO 0x055B
270: 0x0553 [0x03] ExtData[1]->WorkLocal[22] = 4157*
271: 0x0558 [0x01] GOTO 0x0770
272: 0x055B [0x02] IF !(ExtData[1]->WorkLocal[23] == 12*) GOTO 0x056B
273: 0x0563 [0x03] ExtData[1]->WorkLocal[22] = 4163*
274: 0x0568 [0x01] GOTO 0x0770
275: 0x056B [0x02] IF !(ExtData[1]->WorkLocal[23] == 13*) GOTO 0x057B
276: 0x0573 [0x03] ExtData[1]->WorkLocal[22] = 4164*
277: 0x0578 [0x01] GOTO 0x0770
278: 0x057B [0x02] IF !(ExtData[1]->WorkLocal[23] == 14*) GOTO 0x058B
279: 0x0583 [0x03] ExtData[1]->WorkLocal[22] = 4165*
280: 0x0588 [0x01] GOTO 0x0770
281: 0x058B [0x02] IF !(ExtData[1]->WorkLocal[23] == 15*) GOTO 0x059B
282: 0x0593 [0x03] ExtData[1]->WorkLocal[22] = 4146*
283: 0x0598 [0x01] GOTO 0x0770
284: 0x059B [0x02] IF !(ExtData[1]->WorkLocal[23] == 16*) GOTO 0x05AB
285: 0x05A3 [0x03] ExtData[1]->WorkLocal[22] = 4147*
286: 0x05A8 [0x01] GOTO 0x0770
287: 0x05AB [0x02] IF !(ExtData[1]->WorkLocal[23] == 17*) GOTO 0x05BB
288: 0x05B3 [0x03] ExtData[1]->WorkLocal[22] = 4200*
289: 0x05B8 [0x01] GOTO 0x0770
290: 0x05BB [0x02] IF !(ExtData[1]->WorkLocal[23] == 18*) GOTO 0x05CB
291: 0x05C3 [0x03] ExtData[1]->WorkLocal[22] = 4202*
292: 0x05C8 [0x01] GOTO 0x0770
293: 0x05CB [0x02] IF !(ExtData[1]->WorkLocal[23] == 19*) GOTO 0x05DB
294: 0x05D3 [0x03] ExtData[1]->WorkLocal[22] = 5246*
295: 0x05D8 [0x01] GOTO 0x0770
296: 0x05DB [0x02] IF !(ExtData[1]->WorkLocal[23] == 20*) GOTO 0x05EB
297: 0x05E3 [0x03] ExtData[1]->WorkLocal[22] = 5247*
298: 0x05E8 [0x01] GOTO 0x0770
299: 0x05EB [0x02] IF !(ExtData[1]->WorkLocal[23] == 21*) GOTO 0x05FB
300: 0x05F3 [0x03] ExtData[1]->WorkLocal[22] = 5248*
301: 0x05F8 [0x01] GOTO 0x0770
302: 0x05FB [0x02] IF !(ExtData[1]->WorkLocal[23] == 22*) GOTO 0x060B
303: 0x0603 [0x03] ExtData[1]->WorkLocal[22] = 5249*
304: 0x0608 [0x01] GOTO 0x0770
305: 0x060B [0x02] IF !(ExtData[1]->WorkLocal[23] == 23*) GOTO 0x061B
306: 0x0613 [0x03] ExtData[1]->WorkLocal[22] = 5250*
307: 0x0618 [0x01] GOTO 0x0770
308: 0x061B [0x02] IF !(ExtData[1]->WorkLocal[23] == 24*) GOTO 0x062B
309: 0x0623 [0x03] ExtData[1]->WorkLocal[22] = 5251*
310: 0x0628 [0x01] GOTO 0x0770
311: 0x062B [0x02] IF !(ExtData[1]->WorkLocal[23] == 25*) GOTO 0x063B
312: 0x0633 [0x03] ExtData[1]->WorkLocal[22] = 5252*
313: 0x0638 [0x01] GOTO 0x0770
314: 0x063B [0x02] IF !(ExtData[1]->WorkLocal[23] == 26*) GOTO 0x064B
315: 0x0643 [0x03] ExtData[1]->WorkLocal[22] = 4299*
316: 0x0648 [0x01] GOTO 0x0770
317: 0x064B [0x02] IF !(ExtData[1]->WorkLocal[23] == 27*) GOTO 0x065B
318: 0x0653 [0x03] ExtData[1]->WorkLocal[22] = 4300*
319: 0x0658 [0x01] GOTO 0x0770
320: 0x065B [0x02] IF !(ExtData[1]->WorkLocal[23] == 28*) GOTO 0x066B
321: 0x0663 [0x03] ExtData[1]->WorkLocal[22] = 4422*
322: 0x0668 [0x01] GOTO 0x0770
323: 0x066B [0x02] IF !(ExtData[1]->WorkLocal[23] == 29*) GOTO 0x067B
324: 0x0673 [0x03] ExtData[1]->WorkLocal[22] = 4423*
325: 0x0678 [0x01] GOTO 0x0770
326: 0x067B [0x02] IF !(ExtData[1]->WorkLocal[23] == 30*) GOTO 0x068B
327: 0x0683 [0x03] ExtData[1]->WorkLocal[22] = 5243*
328: 0x0688 [0x01] GOTO 0x0770
329: 0x068B [0x02] IF !(ExtData[1]->WorkLocal[23] == 31*) GOTO 0x069B
330: 0x0693 [0x03] ExtData[1]->WorkLocal[22] = 5244*
331: 0x0698 [0x01] GOTO 0x0770
332: 0x069B [0x02] IF !(ExtData[1]->WorkLocal[23] == 32*) GOTO 0x06AB
333: 0x06A3 [0x03] ExtData[1]->WorkLocal[22] = 5245*
334: 0x06A8 [0x01] GOTO 0x0770
335: 0x06AB [0x02] IF !(ExtData[1]->WorkLocal[23] == 33*) GOTO 0x06BB
336: 0x06B3 [0x03] ExtData[1]->WorkLocal[22] = 4204*
337: 0x06B8 [0x01] GOTO 0x0770
338: 0x06BB [0x02] IF !(ExtData[1]->WorkLocal[23] == 34*) GOTO 0x06CB
339: 0x06C3 [0x03] ExtData[1]->WorkLocal[22] = 4206*
340: 0x06C8 [0x01] GOTO 0x0770
341: 0x06CB [0x02] IF !(ExtData[1]->WorkLocal[23] == 35*) GOTO 0x06DB
342: 0x06D3 [0x03] ExtData[1]->WorkLocal[22] = 4208*
343: 0x06D8 [0x01] GOTO 0x0770
344: 0x06DB [0x02] IF !(ExtData[1]->WorkLocal[23] == 36*) GOTO 0x06EB
345: 0x06E3 [0x03] ExtData[1]->WorkLocal[22] = 4210*
346: 0x06E8 [0x01] GOTO 0x0770
347: 0x06EB [0x02] IF !(ExtData[1]->WorkLocal[23] == 37*) GOTO 0x06FB
348: 0x06F3 [0x03] ExtData[1]->WorkLocal[22] = 4212*
349: 0x06F8 [0x01] GOTO 0x0770
350: 0x06FB [0x02] IF !(ExtData[1]->WorkLocal[23] == 38*) GOTO 0x070B
351: 0x0703 [0x03] ExtData[1]->WorkLocal[22] = 5304*
352: 0x0708 [0x01] GOTO 0x0770
353: 0x070B [0x02] IF !(ExtData[1]->WorkLocal[23] == 39*) GOTO 0x071B
354: 0x0713 [0x03] ExtData[1]->WorkLocal[22] = 5305*
355: 0x0718 [0x01] GOTO 0x0770
356: 0x071B [0x02] IF !(ExtData[1]->WorkLocal[23] == 40*) GOTO 0x072B
357: 0x0723 [0x03] ExtData[1]->WorkLocal[22] = 4149*
358: 0x0728 [0x01] GOTO 0x0770
359: 0x072B [0x02] IF !(ExtData[1]->WorkLocal[23] == 41*) GOTO 0x073B
360: 0x0733 [0x03] ExtData[1]->WorkLocal[22] = 4254*
361: 0x0738 [0x01] GOTO 0x0770
362: 0x073B [0x02] IF !(ExtData[1]->WorkLocal[23] == 42*) GOTO 0x074B
363: 0x0743 [0x03] ExtData[1]->WorkLocal[22] = 4255*
364: 0x0748 [0x01] GOTO 0x0770
365: 0x074B [0x02] IF !(ExtData[1]->WorkLocal[23] == 43*) GOTO 0x075B
366: 0x0753 [0x03] ExtData[1]->WorkLocal[22] = 5320*
367: 0x0758 [0x01] GOTO 0x0770
368: 0x075B [0x02] IF !(ExtData[1]->WorkLocal[23] == 44*) GOTO 0x076B
369: 0x0763 [0x03] ExtData[1]->WorkLocal[22] = 5322*
370: 0x0768 [0x01] GOTO 0x0770
371: 0x076B [0x03] ExtData[1]->WorkLocal[22] = 0*

SUBROUTINE_0770:
372: 0x0770 [0x01] GOTO 0x0A83
373: 0x0773 [0x02] IF !(ExtData[1]->WorkLocal[27] == 2*) GOTO 0x0A83
374: 0x077B [0x02] IF !(ExtData[1]->WorkLocal[23] == 4294967295*) GOTO 0x078B
375: 0x0783 [0x03] ExtData[1]->WorkLocal[22] = 0*
376: 0x0788 [0x01] GOTO 0x0A80
377: 0x078B [0x02] IF !(ExtData[1]->WorkLocal[23] == 0*) GOTO 0x079B
378: 0x0793 [0x03] ExtData[1]->WorkLocal[22] = 4116*
379: 0x0798 [0x01] GOTO 0x0A80
380: 0x079B [0x02] IF !(ExtData[1]->WorkLocal[23] == 1*) GOTO 0x07AB
381: 0x07A3 [0x03] ExtData[1]->WorkLocal[22] = 4120*
382: 0x07A8 [0x01] GOTO 0x0A80
383: 0x07AB [0x02] IF !(ExtData[1]->WorkLocal[23] == 2*) GOTO 0x07BB
384: 0x07B3 [0x03] ExtData[1]->WorkLocal[22] = 4124*
385: 0x07B8 [0x01] GOTO 0x0A80
386: 0x07BB [0x02] IF !(ExtData[1]->WorkLocal[23] == 3*) GOTO 0x07CB
387: 0x07C3 [0x03] ExtData[1]->WorkLocal[22] = 4132*
388: 0x07C8 [0x01] GOTO 0x0A80
389: 0x07CB [0x02] IF !(ExtData[1]->WorkLocal[23] == 4*) GOTO 0x07DB
390: 0x07D3 [0x03] ExtData[1]->WorkLocal[22] = 4136*
391: 0x07D8 [0x01] GOTO 0x0A80
392: 0x07DB [0x02] IF !(ExtData[1]->WorkLocal[23] == 5*) GOTO 0x07EB
393: 0x07E3 [0x03] ExtData[1]->WorkLocal[22] = 4140*
394: 0x07E8 [0x01] GOTO 0x0A80
395: 0x07EB [0x02] IF !(ExtData[1]->WorkLocal[23] == 6*) GOTO 0x07FB
396: 0x07F3 [0x03] ExtData[1]->WorkLocal[22] = 4144*
397: 0x07F8 [0x01] GOTO 0x0A80
398: 0x07FB [0x02] IF !(ExtData[1]->WorkLocal[23] == 7*) GOTO 0x080B
399: 0x0803 [0x03] ExtData[1]->WorkLocal[22] = 4145*
400: 0x0808 [0x01] GOTO 0x0A80
401: 0x080B [0x02] IF !(ExtData[1]->WorkLocal[23] == 8*) GOTO 0x081B
402: 0x0813 [0x03] ExtData[1]->WorkLocal[22] = 4150*
403: 0x0818 [0x01] GOTO 0x0A80
404: 0x081B [0x02] IF !(ExtData[1]->WorkLocal[23] == 9*) GOTO 0x082B
405: 0x0823 [0x03] ExtData[1]->WorkLocal[22] = 4151*
406: 0x0828 [0x01] GOTO 0x0A80
407: 0x082B [0x02] IF !(ExtData[1]->WorkLocal[23] == 10*) GOTO 0x083B
408: 0x0833 [0x03] ExtData[1]->WorkLocal[22] = 4155*
409: 0x0838 [0x01] GOTO 0x0A80
410: 0x083B [0x02] IF !(ExtData[1]->WorkLocal[23] == 11*) GOTO 0x084B
411: 0x0843 [0x03] ExtData[1]->WorkLocal[22] = 4157*
412: 0x0848 [0x01] GOTO 0x0A80
413: 0x084B [0x02] IF !(ExtData[1]->WorkLocal[23] == 12*) GOTO 0x085B
414: 0x0853 [0x03] ExtData[1]->WorkLocal[22] = 4161*
415: 0x0858 [0x01] GOTO 0x0A80
416: 0x085B [0x02] IF !(ExtData[1]->WorkLocal[23] == 13*) GOTO 0x086B
417: 0x0863 [0x03] ExtData[1]->WorkLocal[22] = 4164*
418: 0x0868 [0x01] GOTO 0x0A80
419: 0x086B [0x02] IF !(ExtData[1]->WorkLocal[23] == 14*) GOTO 0x087B
420: 0x0873 [0x03] ExtData[1]->WorkLocal[22] = 4165*
421: 0x0878 [0x01] GOTO 0x0A80
422: 0x087B [0x02] IF !(ExtData[1]->WorkLocal[23] == 15*) GOTO 0x088B
423: 0x0883 [0x03] ExtData[1]->WorkLocal[22] = 4146*
424: 0x0888 [0x01] GOTO 0x0A80
425: 0x088B [0x02] IF !(ExtData[1]->WorkLocal[23] == 16*) GOTO 0x089B
426: 0x0893 [0x03] ExtData[1]->WorkLocal[22] = 4147*
427: 0x0898 [0x01] GOTO 0x0A80
428: 0x089B [0x02] IF !(ExtData[1]->WorkLocal[23] == 17*) GOTO 0x08AB
429: 0x08A3 [0x03] ExtData[1]->WorkLocal[22] = 4200*
430: 0x08A8 [0x01] GOTO 0x0A80
431: 0x08AB [0x02] IF !(ExtData[1]->WorkLocal[23] == 18*) GOTO 0x08BB
432: 0x08B3 [0x03] ExtData[1]->WorkLocal[22] = 4202*
433: 0x08B8 [0x01] GOTO 0x0A80
434: 0x08BB [0x02] IF !(ExtData[1]->WorkLocal[23] == 19*) GOTO 0x08CB
435: 0x08C3 [0x03] ExtData[1]->WorkLocal[22] = 5246*
436: 0x08C8 [0x01] GOTO 0x0A80
437: 0x08CB [0x02] IF !(ExtData[1]->WorkLocal[23] == 20*) GOTO 0x08DB
438: 0x08D3 [0x03] ExtData[1]->WorkLocal[22] = 5247*
439: 0x08D8 [0x01] GOTO 0x0A80
440: 0x08DB [0x02] IF !(ExtData[1]->WorkLocal[23] == 21*) GOTO 0x08EB
441: 0x08E3 [0x03] ExtData[1]->WorkLocal[22] = 5248*
442: 0x08E8 [0x01] GOTO 0x0A80
443: 0x08EB [0x02] IF !(ExtData[1]->WorkLocal[23] == 22*) GOTO 0x08FB
444: 0x08F3 [0x03] ExtData[1]->WorkLocal[22] = 5249*
445: 0x08F8 [0x01] GOTO 0x0A80
446: 0x08FB [0x02] IF !(ExtData[1]->WorkLocal[23] == 23*) GOTO 0x090B
447: 0x0903 [0x03] ExtData[1]->WorkLocal[22] = 5250*
448: 0x0908 [0x01] GOTO 0x0A80
449: 0x090B [0x02] IF !(ExtData[1]->WorkLocal[23] == 24*) GOTO 0x091B
450: 0x0913 [0x03] ExtData[1]->WorkLocal[22] = 5251*
451: 0x0918 [0x01] GOTO 0x0A80
452: 0x091B [0x02] IF !(ExtData[1]->WorkLocal[23] == 25*) GOTO 0x092B
453: 0x0923 [0x03] ExtData[1]->WorkLocal[22] = 5252*
454: 0x0928 [0x01] GOTO 0x0A80
455: 0x092B [0x02] IF !(ExtData[1]->WorkLocal[23] == 26*) GOTO 0x093B
456: 0x0933 [0x03] ExtData[1]->WorkLocal[22] = 4301*
457: 0x0938 [0x01] GOTO 0x0A80
458: 0x093B [0x02] IF !(ExtData[1]->WorkLocal[23] == 27*) GOTO 0x094B
459: 0x0943 [0x03] ExtData[1]->WorkLocal[22] = 4302*
460: 0x0948 [0x01] GOTO 0x0A80
461: 0x094B [0x02] IF !(ExtData[1]->WorkLocal[23] == 28*) GOTO 0x095B
462: 0x0953 [0x03] ExtData[1]->WorkLocal[22] = 4424*
463: 0x0958 [0x01] GOTO 0x0A80
464: 0x095B [0x02] IF !(ExtData[1]->WorkLocal[23] == 29*) GOTO 0x096B
465: 0x0963 [0x03] ExtData[1]->WorkLocal[22] = 4425*
466: 0x0968 [0x01] GOTO 0x0A80
467: 0x096B [0x02] IF !(ExtData[1]->WorkLocal[23] == 30*) GOTO 0x097B
468: 0x0973 [0x03] ExtData[1]->WorkLocal[22] = 5241*
469: 0x0978 [0x01] GOTO 0x0A80
470: 0x097B [0x02] IF !(ExtData[1]->WorkLocal[23] == 31*) GOTO 0x098B
471: 0x0983 [0x03] ExtData[1]->WorkLocal[22] = 5242*
472: 0x0988 [0x01] GOTO 0x0A80
473: 0x098B [0x02] IF !(ExtData[1]->WorkLocal[23] == 32*) GOTO 0x099B
474: 0x0993 [0x03] ExtData[1]->WorkLocal[22] = 5243*
475: 0x0998 [0x01] GOTO 0x0A80
476: 0x099B [0x02] IF !(ExtData[1]->WorkLocal[23] == 33*) GOTO 0x09AB
477: 0x09A3 [0x03] ExtData[1]->WorkLocal[22] = 5244*
478: 0x09A8 [0x01] GOTO 0x0A80
479: 0x09AB [0x02] IF !(ExtData[1]->WorkLocal[23] == 34*) GOTO 0x09BB
480: 0x09B3 [0x03] ExtData[1]->WorkLocal[22] = 5245*
481: 0x09B8 [0x01] GOTO 0x0A80
482: 0x09BB [0x02] IF !(ExtData[1]->WorkLocal[23] == 35*) GOTO 0x09CB
483: 0x09C3 [0x03] ExtData[1]->WorkLocal[22] = 4204*
484: 0x09C8 [0x01] GOTO 0x0A80
485: 0x09CB [0x02] IF !(ExtData[1]->WorkLocal[23] == 36*) GOTO 0x09DB
486: 0x09D3 [0x03] ExtData[1]->WorkLocal[22] = 4206*
487: 0x09D8 [0x01] GOTO 0x0A80
488: 0x09DB [0x02] IF !(ExtData[1]->WorkLocal[23] == 37*) GOTO 0x09EB
489: 0x09E3 [0x03] ExtData[1]->WorkLocal[22] = 4208*
490: 0x09E8 [0x01] GOTO 0x0A80
491: 0x09EB [0x02] IF !(ExtData[1]->WorkLocal[23] == 38*) GOTO 0x09FB
492: 0x09F3 [0x03] ExtData[1]->WorkLocal[22] = 4210*
493: 0x09F8 [0x01] GOTO 0x0A80
494: 0x09FB [0x02] IF !(ExtData[1]->WorkLocal[23] == 39*) GOTO 0x0A0B
495: 0x0A03 [0x03] ExtData[1]->WorkLocal[22] = 4212*
496: 0x0A08 [0x01] GOTO 0x0A80
497: 0x0A0B [0x02] IF !(ExtData[1]->WorkLocal[23] == 40*) GOTO 0x0A1B
498: 0x0A13 [0x03] ExtData[1]->WorkLocal[22] = 5304*
499: 0x0A18 [0x01] GOTO 0x0A80
500: 0x0A1B [0x02] IF !(ExtData[1]->WorkLocal[23] == 41*) GOTO 0x0A2B
501: 0x0A23 [0x03] ExtData[1]->WorkLocal[22] = 5305*
502: 0x0A28 [0x01] GOTO 0x0A80
503: 0x0A2B [0x02] IF !(ExtData[1]->WorkLocal[23] == 42*) GOTO 0x0A3B
504: 0x0A33 [0x03] ExtData[1]->WorkLocal[22] = 4149*
505: 0x0A38 [0x01] GOTO 0x0A80
506: 0x0A3B [0x02] IF !(ExtData[1]->WorkLocal[23] == 43*) GOTO 0x0A4B
507: 0x0A43 [0x03] ExtData[1]->WorkLocal[22] = 4254*
508: 0x0A48 [0x01] GOTO 0x0A80
509: 0x0A4B [0x02] IF !(ExtData[1]->WorkLocal[23] == 44*) GOTO 0x0A5B
510: 0x0A53 [0x03] ExtData[1]->WorkLocal[22] = 4255*
511: 0x0A58 [0x01] GOTO 0x0A80
512: 0x0A5B [0x02] IF !(ExtData[1]->WorkLocal[23] == 45*) GOTO 0x0A6B
513: 0x0A63 [0x03] ExtData[1]->WorkLocal[22] = 5320*
514: 0x0A68 [0x01] GOTO 0x0A80
515: 0x0A6B [0x02] IF !(ExtData[1]->WorkLocal[23] == 46*) GOTO 0x0A7B
516: 0x0A73 [0x03] ExtData[1]->WorkLocal[22] = 5322*
517: 0x0A78 [0x01] GOTO 0x0A80
518: 0x0A7B [0x03] ExtData[1]->WorkLocal[22] = 0*

SUBROUTINE_0A80:
519: 0x0A80 [0x01] GOTO 0x0A83

SUBROUTINE_0A83:
520: 0x0A83 [0x1B] RETURN

SUBROUTINE_10A0:
521: 0x10A0 [0x06] ExtData[1]->WorkLocal[27] = 0
522: 0x10A3 [0x06] ExtData[1]->WorkLocal[28] = 0
523: 0x10A6 [0x02] IF !(ExtData[1]->WorkLocal[1] == 10*) GOTO 0x10B9
524: 0x10AE [0x03] ExtData[1]->WorkLocal[27] = 1*
525: 0x10B3 [0x05] ExtData[1]->WorkLocal[28] = 1
526: 0x10B6 [0x01] GOTO 0x1121
527: 0x10B9 [0x02] IF !(ExtData[1]->WorkLocal[1] == 20*) GOTO 0x10CC
528: 0x10C1 [0x03] ExtData[1]->WorkLocal[27] = 1*
529: 0x10C6 [0x05] ExtData[1]->WorkLocal[28] = 1
530: 0x10C9 [0x01] GOTO 0x1121
531: 0x10CC [0x02] IF !(ExtData[1]->WorkLocal[1] == 30*) GOTO 0x10DC
532: 0x10D4 [0x03] ExtData[1]->WorkLocal[27] = 1*
533: 0x10D9 [0x01] GOTO 0x1121
534: 0x10DC [0x02] IF !(ExtData[1]->WorkLocal[1] == 40*) GOTO 0x10EC
535: 0x10E4 [0x03] ExtData[1]->WorkLocal[27] = 1*
536: 0x10E9 [0x01] GOTO 0x1121
537: 0x10EC [0x02] IF !(ExtData[1]->WorkLocal[1] == 50*) GOTO 0x10FC
538: 0x10F4 [0x03] ExtData[1]->WorkLocal[27] = 2*
539: 0x10F9 [0x01] GOTO 0x1121
540: 0x10FC [0x02] IF !(ExtData[1]->WorkLocal[1] == 60*) GOTO 0x110C
541: 0x1104 [0x03] ExtData[1]->WorkLocal[27] = 2*
542: 0x1109 [0x01] GOTO 0x1121
543: 0x110C [0x02] IF !(ExtData[1]->WorkLocal[1] == 0*) GOTO 0x111C
544: 0x1114 [0x03] ExtData[1]->WorkLocal[27] = 2*
545: 0x1119 [0x01] GOTO 0x1121
546: 0x111C [0x03] ExtData[1]->WorkLocal[27] = 1*

SUBROUTINE_1121:
547: 0x1121 [0x1B] RETURN
```

#### Data or dead code:

```
# Dead code (unreachable instructions):
     0x021E [0x01] GOTO 0x0222
# Dead code (unreachable instructions):
     0x0A84 [0x1A] CALL_SUBROUTINE(address=0x10A0)
     0x0A87 [0x03] ExtData[1]->WorkLocal[24] = 4294967295*
     0x0A8C [0x02] IF !(ExtData[1]->WorkLocal[27] == 1*) GOTO 0x0D77
     0x0A94 [0x02] IF !(ExtData[1]->WorkLocal[25] == 0*) GOTO 0x0A9F
     0x0A9C [0x01] GOTO 0x0D74
     0x0A9F [0x02] IF !(ExtData[1]->WorkLocal[25] == 4112*) GOTO 0x0AAF
     0x0AA7 [0x03] ExtData[1]->WorkLocal[24] = 0*
     0x0AAC [0x01] GOTO 0x0D74
     0x0AAF [0x02] IF !(ExtData[1]->WorkLocal[25] == 4116*) GOTO 0x0ABF
     0x0AB7 [0x03] ExtData[1]->WorkLocal[24] = 1*
     0x0ABC [0x01] GOTO 0x0D74
     0x0ABF [0x02] IF !(ExtData[1]->WorkLocal[25] == 4120*) GOTO 0x0ACF
     0x0AC7 [0x03] ExtData[1]->WorkLocal[24] = 2*
     0x0ACC [0x01] GOTO 0x0D74
     0x0ACF [0x02] IF !(ExtData[1]->WorkLocal[25] == 4128*) GOTO 0x0ADF
     0x0AD7 [0x03] ExtData[1]->WorkLocal[24] = 3*
     0x0ADC [0x01] GOTO 0x0D74
     0x0ADF [0x02] IF !(ExtData[1]->WorkLocal[25] == 4132*) GOTO 0x0AEF
     0x0AE7 [0x03] ExtData[1]->WorkLocal[24] = 4*
     0x0AEC [0x01] GOTO 0x0D74
     0x0AEF [0x02] IF !(ExtData[1]->WorkLocal[25] == 4136*) GOTO 0x0AFF
     0x0AF7 [0x03] ExtData[1]->WorkLocal[24] = 5*
     0x0AFC [0x01] GOTO 0x0D74
     0x0AFF [0x02] IF !(ExtData[1]->WorkLocal[25] == 4145*) GOTO 0x0B0F
     0x0B07 [0x03] ExtData[1]->WorkLocal[24] = 6*
     0x0B0C [0x01] GOTO 0x0D74
     0x0B0F [0x02] IF !(ExtData[1]->WorkLocal[25] == 4148*) GOTO 0x0B1F
     0x0B17 [0x03] ExtData[1]->WorkLocal[24] = 7*
     0x0B1C [0x01] GOTO 0x0D74
     0x0B1F [0x02] IF !(ExtData[1]->WorkLocal[25] == 4150*) GOTO 0x0B2F
     0x0B27 [0x03] ExtData[1]->WorkLocal[24] = 8*
     0x0B2C [0x01] GOTO 0x0D74
     0x0B2F [0x02] IF !(ExtData[1]->WorkLocal[25] == 4151*) GOTO 0x0B3F
     0x0B37 [0x03] ExtData[1]->WorkLocal[24] = 9*
     0x0B3C [0x01] GOTO 0x0D74
     0x0B3F [0x02] IF !(ExtData[1]->WorkLocal[25] == 4155*) GOTO 0x0B4F
     0x0B47 [0x03] ExtData[1]->WorkLocal[24] = 10*
     0x0B4C [0x01] GOTO 0x0D74
     0x0B4F [0x02] IF !(ExtData[1]->WorkLocal[25] == 4157*) GOTO 0x0B5F
     0x0B57 [0x03] ExtData[1]->WorkLocal[24] = 11*
     0x0B5C [0x01] GOTO 0x0D74
     0x0B5F [0x02] IF !(ExtData[1]->WorkLocal[25] == 4163*) GOTO 0x0B6F
     0x0B67 [0x03] ExtData[1]->WorkLocal[24] = 12*
     0x0B6C [0x01] GOTO 0x0D74
     0x0B6F [0x02] IF !(ExtData[1]->WorkLocal[25] == 4164*) GOTO 0x0B7F
     0x0B77 [0x03] ExtData[1]->WorkLocal[24] = 13*
     0x0B7C [0x01] GOTO 0x0D74
     0x0B7F [0x02] IF !(ExtData[1]->WorkLocal[25] == 4165*) GOTO 0x0B8F
     0x0B87 [0x03] ExtData[1]->WorkLocal[24] = 14*
     0x0B8C [0x01] GOTO 0x0D74
     0x0B8F [0x02] IF !(ExtData[1]->WorkLocal[25] == 4146*) GOTO 0x0B9F
     0x0B97 [0x03] ExtData[1]->WorkLocal[24] = 15*
     0x0B9C [0x01] GOTO 0x0D74
     0x0B9F [0x02] IF !(ExtData[1]->WorkLocal[25] == 4147*) GOTO 0x0BAF
     0x0BA7 [0x03] ExtData[1]->WorkLocal[24] = 16*
     0x0BAC [0x01] GOTO 0x0D74
     0x0BAF [0x02] IF !(ExtData[1]->WorkLocal[25] == 4200*) GOTO 0x0BBF
     0x0BB7 [0x03] ExtData[1]->WorkLocal[24] = 17*
     0x0BBC [0x01] GOTO 0x0D74
     0x0BBF [0x02] IF !(ExtData[1]->WorkLocal[25] == 4202*) GOTO 0x0BCF
     0x0BC7 [0x03] ExtData[1]->WorkLocal[24] = 18*
     0x0BCC [0x01] GOTO 0x0D74
     0x0BCF [0x02] IF !(ExtData[1]->WorkLocal[25] == 5246*) GOTO 0x0BDF
     0x0BD7 [0x03] ExtData[1]->WorkLocal[24] = 19*
     0x0BDC [0x01] GOTO 0x0D74
     0x0BDF [0x02] IF !(ExtData[1]->WorkLocal[25] == 5247*) GOTO 0x0BEF
     0x0BE7 [0x03] ExtData[1]->WorkLocal[24] = 20*
     0x0BEC [0x01] GOTO 0x0D74
     0x0BEF [0x02] IF !(ExtData[1]->WorkLocal[25] == 5248*) GOTO 0x0BFF
     0x0BF7 [0x03] ExtData[1]->WorkLocal[24] = 21*
     0x0BFC [0x01] GOTO 0x0D74
     0x0BFF [0x02] IF !(ExtData[1]->WorkLocal[25] == 5249*) GOTO 0x0C0F
     0x0C07 [0x03] ExtData[1]->WorkLocal[24] = 22*
     0x0C0C [0x01] GOTO 0x0D74
     0x0C0F [0x02] IF !(ExtData[1]->WorkLocal[25] == 5250*) GOTO 0x0C1F
     0x0C17 [0x03] ExtData[1]->WorkLocal[24] = 23*
     0x0C1C [0x01] GOTO 0x0D74
     0x0C1F [0x02] IF !(ExtData[1]->WorkLocal[25] == 5251*) GOTO 0x0C2F
     0x0C27 [0x03] ExtData[1]->WorkLocal[24] = 24*
     0x0C2C [0x01] GOTO 0x0D74
     0x0C2F [0x02] IF !(ExtData[1]->WorkLocal[25] == 5252*) GOTO 0x0C3F
     0x0C37 [0x03] ExtData[1]->WorkLocal[24] = 25*
     0x0C3C [0x01] GOTO 0x0D74
     0x0C3F [0x02] IF !(ExtData[1]->WorkLocal[25] == 4299*) GOTO 0x0C4F
     0x0C47 [0x03] ExtData[1]->WorkLocal[24] = 26*
     0x0C4C [0x01] GOTO 0x0D74
     0x0C4F [0x02] IF !(ExtData[1]->WorkLocal[25] == 4300*) GOTO 0x0C5F
     0x0C57 [0x03] ExtData[1]->WorkLocal[24] = 27*
     0x0C5C [0x01] GOTO 0x0D74
     0x0C5F [0x02] IF !(ExtData[1]->WorkLocal[25] == 4422*) GOTO 0x0C6F
     0x0C67 [0x03] ExtData[1]->WorkLocal[24] = 28*
     0x0C6C [0x01] GOTO 0x0D74
     0x0C6F [0x02] IF !(ExtData[1]->WorkLocal[25] == 4423*) GOTO 0x0C7F
     0x0C77 [0x03] ExtData[1]->WorkLocal[24] = 29*
     0x0C7C [0x01] GOTO 0x0D74
     0x0C7F [0x02] IF !(ExtData[1]->WorkLocal[25] == 5243*) GOTO 0x0C8F
     0x0C87 [0x03] ExtData[1]->WorkLocal[24] = 30*
     0x0C8C [0x01] GOTO 0x0D74
     0x0C8F [0x02] IF !(ExtData[1]->WorkLocal[25] == 5244*) GOTO 0x0C9F
     0x0C97 [0x03] ExtData[1]->WorkLocal[24] = 31*
     0x0C9C [0x01] GOTO 0x0D74
     0x0C9F [0x02] IF !(ExtData[1]->WorkLocal[25] == 5245*) GOTO 0x0CAF
     0x0CA7 [0x03] ExtData[1]->WorkLocal[24] = 32*
     0x0CAC [0x01] GOTO 0x0D74
     0x0CAF [0x02] IF !(ExtData[1]->WorkLocal[25] == 4204*) GOTO 0x0CBF
     0x0CB7 [0x03] ExtData[1]->WorkLocal[24] = 33*
     0x0CBC [0x01] GOTO 0x0D74
     0x0CBF [0x02] IF !(ExtData[1]->WorkLocal[25] == 4206*) GOTO 0x0CCF
     0x0CC7 [0x03] ExtData[1]->WorkLocal[24] = 34*
     0x0CCC [0x01] GOTO 0x0D74
     0x0CCF [0x02] IF !(ExtData[1]->WorkLocal[25] == 4208*) GOTO 0x0CDF
     0x0CD7 [0x03] ExtData[1]->WorkLocal[24] = 35*
     0x0CDC [0x01] GOTO 0x0D74
     0x0CDF [0x02] IF !(ExtData[1]->WorkLocal[25] == 4210*) GOTO 0x0CEF
     0x0CE7 [0x03] ExtData[1]->WorkLocal[24] = 36*
     0x0CEC [0x01] GOTO 0x0D74
     0x0CEF [0x02] IF !(ExtData[1]->WorkLocal[25] == 4212*) GOTO 0x0CFF
     0x0CF7 [0x03] ExtData[1]->WorkLocal[24] = 37*
     0x0CFC [0x01] GOTO 0x0D74
     0x0CFF [0x02] IF !(ExtData[1]->WorkLocal[25] == 5304*) GOTO 0x0D0F
     0x0D07 [0x03] ExtData[1]->WorkLocal[24] = 38*
     0x0D0C [0x01] GOTO 0x0D74
     0x0D0F [0x02] IF !(ExtData[1]->WorkLocal[25] == 5305*) GOTO 0x0D1F
     0x0D17 [0x03] ExtData[1]->WorkLocal[24] = 39*
     0x0D1C [0x01] GOTO 0x0D74
     0x0D1F [0x02] IF !(ExtData[1]->WorkLocal[25] == 4149*) GOTO 0x0D2F
     0x0D27 [0x03] ExtData[1]->WorkLocal[22] = 40*
     0x0D2C [0x01] GOTO 0x0D74
     0x0D2F [0x02] IF !(ExtData[1]->WorkLocal[25] == 4254*) GOTO 0x0D3F
     0x0D37 [0x03] ExtData[1]->WorkLocal[22] = 41*
     0x0D3C [0x01] GOTO 0x0D74
     0x0D3F [0x02] IF !(ExtData[1]->WorkLocal[25] == 4255*) GOTO 0x0D4F
     0x0D47 [0x03] ExtData[1]->WorkLocal[22] = 42*
     0x0D4C [0x01] GOTO 0x0D74
     0x0D4F [0x02] IF !(ExtData[1]->WorkLocal[25] == 5320*) GOTO 0x0D5F
     0x0D57 [0x03] ExtData[1]->WorkLocal[22] = 43*
     0x0D5C [0x01] GOTO 0x0D74
     0x0D5F [0x02] IF !(ExtData[1]->WorkLocal[25] == 5322*) GOTO 0x0D6F
     0x0D67 [0x03] ExtData[1]->WorkLocal[22] = 44*
     0x0D6C [0x01] GOTO 0x0D74
     0x0D6F [0x03] ExtData[1]->WorkLocal[24] = 4294967295*
     0x0D74 [0x01] GOTO 0x1082
     0x0D77 [0x02] IF !(ExtData[1]->WorkLocal[27] == 2*) GOTO 0x1082
     0x0D7F [0x02] IF !(ExtData[1]->WorkLocal[25] == 0*) GOTO 0x0D8A
     0x0D87 [0x01] GOTO 0x107F
     0x0D8A [0x02] IF !(ExtData[1]->WorkLocal[25] == 4116*) GOTO 0x0D9A
     0x0D92 [0x03] ExtData[1]->WorkLocal[24] = 0*
     0x0D97 [0x01] GOTO 0x107F
     0x0D9A [0x02] IF !(ExtData[1]->WorkLocal[25] == 4120*) GOTO 0x0DAA
     0x0DA2 [0x03] ExtData[1]->WorkLocal[24] = 1*
     0x0DA7 [0x01] GOTO 0x107F
     0x0DAA [0x02] IF !(ExtData[1]->WorkLocal[25] == 4124*) GOTO 0x0DBA
     0x0DB2 [0x03] ExtData[1]->WorkLocal[24] = 2*
     0x0DB7 [0x01] GOTO 0x107F
     0x0DBA [0x02] IF !(ExtData[1]->WorkLocal[25] == 4132*) GOTO 0x0DCA
     0x0DC2 [0x03] ExtData[1]->WorkLocal[24] = 3*
     0x0DC7 [0x01] GOTO 0x107F
     0x0DCA [0x02] IF !(ExtData[1]->WorkLocal[25] == 4136*) GOTO 0x0DDA
     0x0DD2 [0x03] ExtData[1]->WorkLocal[24] = 4*
     0x0DD7 [0x01] GOTO 0x107F
     0x0DDA [0x02] IF !(ExtData[1]->WorkLocal[25] == 4140*) GOTO 0x0DEA
     0x0DE2 [0x03] ExtData[1]->WorkLocal[24] = 5*
     0x0DE7 [0x01] GOTO 0x107F
     0x0DEA [0x02] IF !(ExtData[1]->WorkLocal[25] == 4144*) GOTO 0x0DFA
     0x0DF2 [0x03] ExtData[1]->WorkLocal[24] = 6*
     0x0DF7 [0x01] GOTO 0x107F
     0x0DFA [0x02] IF !(ExtData[1]->WorkLocal[25] == 4145*) GOTO 0x0E0A
     0x0E02 [0x03] ExtData[1]->WorkLocal[24] = 7*
     0x0E07 [0x01] GOTO 0x107F
     0x0E0A [0x02] IF !(ExtData[1]->WorkLocal[25] == 4150*) GOTO 0x0E1A
     0x0E12 [0x03] ExtData[1]->WorkLocal[24] = 8*
     0x0E17 [0x01] GOTO 0x107F
     0x0E1A [0x02] IF !(ExtData[1]->WorkLocal[25] == 4151*) GOTO 0x0E2A
     0x0E22 [0x03] ExtData[1]->WorkLocal[24] = 9*
     0x0E27 [0x01] GOTO 0x107F
     0x0E2A [0x02] IF !(ExtData[1]->WorkLocal[25] == 4155*) GOTO 0x0E3A
     0x0E32 [0x03] ExtData[1]->WorkLocal[24] = 10*
     0x0E37 [0x01] GOTO 0x107F
     0x0E3A [0x02] IF !(ExtData[1]->WorkLocal[25] == 4157*) GOTO 0x0E4A
     0x0E42 [0x03] ExtData[1]->WorkLocal[24] = 11*
     0x0E47 [0x01] GOTO 0x107F
     0x0E4A [0x02] IF !(ExtData[1]->WorkLocal[25] == 4161*) GOTO 0x0E5A
     0x0E52 [0x03] ExtData[1]->WorkLocal[24] = 12*
     0x0E57 [0x01] GOTO 0x107F
     0x0E5A [0x02] IF !(ExtData[1]->WorkLocal[25] == 4164*) GOTO 0x0E6A
     0x0E62 [0x03] ExtData[1]->WorkLocal[24] = 13*
     0x0E67 [0x01] GOTO 0x107F
     0x0E6A [0x02] IF !(ExtData[1]->WorkLocal[25] == 4165*) GOTO 0x0E7A
     0x0E72 [0x03] ExtData[1]->WorkLocal[24] = 14*
     0x0E77 [0x01] GOTO 0x107F
     0x0E7A [0x02] IF !(ExtData[1]->WorkLocal[25] == 4146*) GOTO 0x0E8A
     0x0E82 [0x03] ExtData[1]->WorkLocal[24] = 15*
     0x0E87 [0x01] GOTO 0x107F
     0x0E8A [0x02] IF !(ExtData[1]->WorkLocal[25] == 4147*) GOTO 0x0E9A
     0x0E92 [0x03] ExtData[1]->WorkLocal[24] = 16*
     0x0E97 [0x01] GOTO 0x107F
     0x0E9A [0x02] IF !(ExtData[1]->WorkLocal[25] == 4200*) GOTO 0x0EAA
     0x0EA2 [0x03] ExtData[1]->WorkLocal[24] = 17*
     0x0EA7 [0x01] GOTO 0x107F
     0x0EAA [0x02] IF !(ExtData[1]->WorkLocal[25] == 4202*) GOTO 0x0EBA
     0x0EB2 [0x03] ExtData[1]->WorkLocal[24] = 18*
     0x0EB7 [0x01] GOTO 0x107F
     0x0EBA [0x02] IF !(ExtData[1]->WorkLocal[25] == 5246*) GOTO 0x0ECA
     0x0EC2 [0x03] ExtData[1]->WorkLocal[24] = 19*
     0x0EC7 [0x01] GOTO 0x107F
     0x0ECA [0x02] IF !(ExtData[1]->WorkLocal[25] == 5247*) GOTO 0x0EDA
     0x0ED2 [0x03] ExtData[1]->WorkLocal[24] = 20*
     0x0ED7 [0x01] GOTO 0x107F
     0x0EDA [0x02] IF !(ExtData[1]->WorkLocal[25] == 5248*) GOTO 0x0EEA
     0x0EE2 [0x03] ExtData[1]->WorkLocal[24] = 21*
     0x0EE7 [0x01] GOTO 0x107F
     0x0EEA [0x02] IF !(ExtData[1]->WorkLocal[25] == 5249*) GOTO 0x0EFA
     0x0EF2 [0x03] ExtData[1]->WorkLocal[24] = 22*
     0x0EF7 [0x01] GOTO 0x107F
     0x0EFA [0x02] IF !(ExtData[1]->WorkLocal[25] == 5250*) GOTO 0x0F0A
     0x0F02 [0x03] ExtData[1]->WorkLocal[24] = 23*
     0x0F07 [0x01] GOTO 0x107F
     0x0F0A [0x02] IF !(ExtData[1]->WorkLocal[25] == 5251*) GOTO 0x0F1A
     0x0F12 [0x03] ExtData[1]->WorkLocal[24] = 24*
     0x0F17 [0x01] GOTO 0x107F
     0x0F1A [0x02] IF !(ExtData[1]->WorkLocal[25] == 5252*) GOTO 0x0F2A
     0x0F22 [0x03] ExtData[1]->WorkLocal[24] = 25*
     0x0F27 [0x01] GOTO 0x107F
     0x0F2A [0x02] IF !(ExtData[1]->WorkLocal[25] == 4301*) GOTO 0x0F3A
     0x0F32 [0x03] ExtData[1]->WorkLocal[24] = 26*
     0x0F37 [0x01] GOTO 0x107F
     0x0F3A [0x02] IF !(ExtData[1]->WorkLocal[25] == 4302*) GOTO 0x0F4A
     0x0F42 [0x03] ExtData[1]->WorkLocal[24] = 27*
     0x0F47 [0x01] GOTO 0x107F
     0x0F4A [0x02] IF !(ExtData[1]->WorkLocal[25] == 4424*) GOTO 0x0F5A
     0x0F52 [0x03] ExtData[1]->WorkLocal[24] = 28*
     0x0F57 [0x01] GOTO 0x107F
     0x0F5A [0x02] IF !(ExtData[1]->WorkLocal[25] == 4425*) GOTO 0x0F6A
     0x0F62 [0x03] ExtData[1]->WorkLocal[24] = 29*
     0x0F67 [0x01] GOTO 0x107F
     0x0F6A [0x02] IF !(ExtData[1]->WorkLocal[25] == 5241*) GOTO 0x0F7A
     0x0F72 [0x03] ExtData[1]->WorkLocal[24] = 30*
     0x0F77 [0x01] GOTO 0x107F
     0x0F7A [0x02] IF !(ExtData[1]->WorkLocal[25] == 5242*) GOTO 0x0F8A
     0x0F82 [0x03] ExtData[1]->WorkLocal[24] = 31*
     0x0F87 [0x01] GOTO 0x107F
     0x0F8A [0x02] IF !(ExtData[1]->WorkLocal[25] == 5243*) GOTO 0x0F9A
     0x0F92 [0x03] ExtData[1]->WorkLocal[24] = 32*
     0x0F97 [0x01] GOTO 0x107F
     0x0F9A [0x02] IF !(ExtData[1]->WorkLocal[25] == 5244*) GOTO 0x0FAA
     0x0FA2 [0x03] ExtData[1]->WorkLocal[24] = 33*
     0x0FA7 [0x01] GOTO 0x107F
     0x0FAA [0x02] IF !(ExtData[1]->WorkLocal[25] == 5245*) GOTO 0x0FBA
     0x0FB2 [0x03] ExtData[1]->WorkLocal[24] = 34*
     0x0FB7 [0x01] GOTO 0x107F
     0x0FBA [0x02] IF !(ExtData[1]->WorkLocal[25] == 4204*) GOTO 0x0FCA
     0x0FC2 [0x03] ExtData[1]->WorkLocal[24] = 35*
     0x0FC7 [0x01] GOTO 0x107F
     0x0FCA [0x02] IF !(ExtData[1]->WorkLocal[25] == 4206*) GOTO 0x0FDA
     0x0FD2 [0x03] ExtData[1]->WorkLocal[24] = 36*
     0x0FD7 [0x01] GOTO 0x107F
     0x0FDA [0x02] IF !(ExtData[1]->WorkLocal[25] == 4208*) GOTO 0x0FEA
     0x0FE2 [0x03] ExtData[1]->WorkLocal[24] = 37*
     0x0FE7 [0x01] GOTO 0x107F
     0x0FEA [0x02] IF !(ExtData[1]->WorkLocal[25] == 4210*) GOTO 0x0FFA
     0x0FF2 [0x03] ExtData[1]->WorkLocal[24] = 38*
     0x0FF7 [0x01] GOTO 0x107F
     0x0FFA [0x02] IF !(ExtData[1]->WorkLocal[25] == 4212*) GOTO 0x100A
     0x1002 [0x03] ExtData[1]->WorkLocal[24] = 39*
     0x1007 [0x01] GOTO 0x107F
     0x100A [0x02] IF !(ExtData[1]->WorkLocal[25] == 5304*) GOTO 0x101A
     0x1012 [0x03] ExtData[1]->WorkLocal[24] = 40*
     0x1017 [0x01] GOTO 0x107F
     0x101A [0x02] IF !(ExtData[1]->WorkLocal[25] == 5305*) GOTO 0x102A
     0x1022 [0x03] ExtData[1]->WorkLocal[24] = 41*
     0x1027 [0x01] GOTO 0x107F
     0x102A [0x02] IF !(ExtData[1]->WorkLocal[25] == 4149*) GOTO 0x103A
     0x1032 [0x03] ExtData[1]->WorkLocal[22] = 42*
     0x1037 [0x01] GOTO 0x107F
     0x103A [0x02] IF !(ExtData[1]->WorkLocal[25] == 4254*) GOTO 0x104A
     0x1042 [0x03] ExtData[1]->WorkLocal[22] = 43*
     0x1047 [0x01] GOTO 0x107F
     0x104A [0x02] IF !(ExtData[1]->WorkLocal[25] == 4255*) GOTO 0x105A
     0x1052 [0x03] ExtData[1]->WorkLocal[22] = 44*
     0x1057 [0x01] GOTO 0x107F
     0x105A [0x02] IF !(ExtData[1]->WorkLocal[25] == 5320*) GOTO 0x106A
     0x1062 [0x03] ExtData[1]->WorkLocal[22] = 45*
     0x1067 [0x01] GOTO 0x107F
     0x106A [0x02] IF !(ExtData[1]->WorkLocal[25] == 5322*) GOTO 0x107A
     0x1072 [0x03] ExtData[1]->WorkLocal[22] = 46*
     0x1077 [0x01] GOTO 0x107F
     0x107A [0x03] ExtData[1]->WorkLocal[24] = 4294967295*
     0x107F [0x01] GOTO 0x1082
     0x1082 [0x06] ExtData[1]->WorkLocal[26] = 0
     0x1085 [0x02] IF !(ExtData[1]->WorkLocal[24] < 0*) GOTO 0x109F
     0x108D [0x02] IF !(ExtData[1]->WorkLocal[24] > 63*) GOTO 0x109F
     0x1095 [0x3E] IF !(ExtData[1]->WorkLocal[2] bit ExtData[1]->WorkLocal[24]) GOTO 0x109F
     0x109C [0x05] ExtData[1]->WorkLocal[26] = 1
     0x109F [0x1B] RETURN
# Dead code (unreachable instructions):
     0x1122 [0x06] ExtData[1]->WorkLocal[20] = 0
     0x1125 [0x06] ExtData[1]->WorkLocal[21] = 0
     0x1128 [0x02] IF !(ExtData[1]->WorkLocal[20] > 63*) GOTO 0x1140
     0x1130 [0x3E] IF !(ExtData[1]->WorkLocal[2] bit ExtData[1]->WorkLocal[20]) GOTO 0x113A
     0x1137 [0x0B] ExtData[1]->WorkLocal[21]++
     0x113A [0x0B] ExtData[1]->WorkLocal[20]++
     0x113D [0x01] GOTO 0x1128
     0x1140 [0x1B] RETURN
```

### Event 65535.1

#### Metadata

| Field        | Value    |
|--------------|----------|
| Entrypoint   | 0x1141   |
| Data Size    | 16 bytes |
| Instructions | 3        |

```
      00 01 02 03 04 05 06 07  08 09 0A 0B 0C 0D 0E 0F
      -- -- -- -- -- -- -- --  -- -- -- -- -- -- -- --
1140:    92 01 F0 FF FF 7F 37  74 80 75 80 76 80 77 80   ......7t.u.v.w.
1150: 00                                                .               
```

#### Opcodes

```
  0: 0x1141 [0x92] LocalPlayer->Render.Flags3 ^= 0x01
  1: 0x1147 [0x37] UPDATE_EVENT_POSITION_AND_DIR: x=419.121*, z=27.725*, y=25.330*, direction=319.0°*
  2: 0x1150 [0x00] END_REQSTACK()
```

### Event 65535.2

#### Metadata

| Field        | Value    |
|--------------|----------|
| Entrypoint   | 0x1151   |
| Data Size    | 41 bytes |
| Instructions | 5        |

```
      00 01 02 03 04 05 06 07  08 09 0A 0B 0C 0D 0E 0F
      -- -- -- -- -- -- -- --  -- -- -- -- -- -- -- --
1150:    BB 78 80 F0 FF FF 7F  A2 D2 06 01 6D 61 69 6E   .x.........main
1160: 02 80 1C 79 80 45 7A 80  F0 FF FF 7F F0 FF FF 7F  ...y.Ez.........
1170: 66 64 6F 31 02 80 1C 73  80 00                    fdo1...s..      
```

#### Opcodes

```
  0: 0x1151 [0xBB] LOAD_EVENT_SCHEDULER_ALT: Load scheduler "main" with entities [LocalPlayer, Cavernous Maw (ID: 17224354/0x0106D2A2)], work=[147*, 0*]
  1: 0x1162 [0x1C] WAIT(240* ticks)
  2: 0x1165 [0x45] LOAD_SCHEDULED_TASK: Load scheduler "fdo1" with entities [LocalPlayer, LocalPlayer], work=[200*, 0*]
  3: 0x1176 [0x1C] WAIT(60* ticks)
  4: 0x1179 [0x00] END_REQSTACK()
```

### Event 10

#### Metadata

| Field        | Value     |
|--------------|-----------|
| Entrypoint   | 0x117A    |
| Data Size    | 232 bytes |
| Instructions | 33        |

```
      00 01 02 03 04 05 06 07  08 09 0A 0B 0C 0D 0E 0F
      -- -- -- -- -- -- -- --  -- -- -- -- -- -- -- --
1170:                                22 00 42 37 7B 80            ".B7{.
1180: 7C 80 7D 80 7E 80 46 01  45 7A 80 F0 FF FF 7F F0  |.}.~.F.Ez......
1190: FF FF 7F 66 64 69 31 02  80 45 1B 80 F0 FF FF 7F  ...fdi1..E......
11A0: F0 FF FF 7F 73 30 30 30  02 80 32 5C 80 1F 00 7F  ....s000..2\....
11B0: 80 80 80 7D 80 1F 01 32  1F 80 4A 6D D2 06 01 F0  ...}...2..Jm....
11C0: FF FF 7F 1F 00 81 80 82  80 7D 80 1F 01 4A 6A D2  .........}...Jj.
11D0: 06 01 F0 FF FF 7F 2B 6A  D2 06 01 83 80 23 66 1B  ......+j.....#f.
11E0: 80 6A D2 06 01 6A D2 06  01 74 6C 6B 30 2B 6A D2  .j...j...tlk0+j.
11F0: 06 01 84 80 23 6B 69 64  6C 30 6A D2 06 01 27 0A  ....#kidl0j...'.
1200: 6A D2 06 01 02 27 0A 6D  D2 06 01 02 1C 73 80 4A  j....'.m.....s.J
1210: F0 FF FF 7F 6A D2 06 01  1C 73 80 45 7A 80 F0 FF  ....j....s.Ez...
1220: FF 7F F0 FF FF 7F 66 64  6F 31 02 80 55 7A 80 F0  ......fdo1..Uz..
1230: FF FF 7F F0 FF FF 7F 66  64 6F 31 46 00 1C 30 80  .......fdo1F..0.
1240: 55 1B 80 F0 FF FF 7F F0  FF FF 7F 73 30 30 30 45  U..........s000E
1250: 7A 80 F0 FF FF 7F F0 FF  FF 7F 66 64 69 31 02 80  z.........fdi1..
1260: 21 00                                             !.              
```

#### Opcodes

```
  0: 0x117A [0x22] ENTITY_HIDE_FLAG(enabled=0x00)
  1: 0x117C [0x42] SET_CLI_EVENT_CANCEL_DATA()
  2: 0x117D [0x37] UPDATE_EVENT_POSITION_AND_DIR: x=636.938*, z=-462.905*, y=24.999*, direction=158.3°*
  3: 0x1186 [0x46] CAMERA_CONTROL: Disable user control
  4: 0x1188 [0x45] LOAD_SCHEDULED_TASK: Load scheduler "fdi1" with entities [LocalPlayer, LocalPlayer], work=[200*, 0*]
  5: 0x1199 [0x45] LOAD_SCHEDULED_TASK: Load scheduler "s000" with entities [LocalPlayer, LocalPlayer], work=[9*, 0*]
  6: 0x11AA [0x32] ExtData[1]->MainSpeed = 40* * 0.1
  7: 0x11AD [0x1F] MOVE_ENTITY: EventEntity moves to X=631.064*, Z=-463.695*, Y=24.999*
  8: 0x11B5 [0x1F] MOVE_ENTITY: Update entity position (mode=1)
  9: 0x11B7 [0x32] ExtData[1]->MainSpeed = 13* * 0.1
 10: 0x11BA [0x4A] Dalzakk (ID: 17224301/0x0106D26D) looks at LocalPlayer
 11: 0x11C3 [0x1F] MOVE_ENTITY: EventEntity moves to X=628.261*, Z=-464.175*, Y=24.999*
 12: 0x11CB [0x1F] MOVE_ENTITY: Update entity position (mode=1)
 13: 0x11CD [0x4A] Naji (ID: 17224298/0x0106D26A) looks at LocalPlayer
 14: 0x11D6 [0x2B] Naji (ID: 17224298/0x0106D26A) [7893*]:
    → "So, how's it going? Still haven't got your twenty, huh."
 15: 0x11DD [0x23] WAIT_FOR_DIALOG_INTERACTION
 16: 0x11DE [0x66] LOAD_EXT_SCHEDULER_MAIN: Load scheduler "tlk0" with entities [Naji (ID: 17224298/0x0106D26A), Naji (ID: 17224298/0x0106D26A)], work=9*
 17: 0x11ED [0x2B] Naji (ID: 17224298/0x0106D26A) [7894*]:
    → "I haven't got that many either. Let's go back in there! I can't lose to Ayame!"
 18: 0x11F4 [0x23] WAIT_FOR_DIALOG_INTERACTION
 19: 0x11F5 [0x6B] STOP_AND_IDLE: Naji (ID: 17224298/0x0106D26A) stops current action and resets to idle (animation="idl0")
 20: 0x11FE [0x27] REQ_SET(priority=0x0A, entity_id=Naji (ID: 17224298/0x0106D26A), tag_num=0x02)
 21: 0x1205 [0x27] REQ_SET(priority=0x0A, entity_id=Dalzakk (ID: 17224301/0x0106D26D), tag_num=0x02)
 22: 0x120C [0x1C] WAIT(60* ticks)
 23: 0x120F [0x4A] LocalPlayer looks at Naji (ID: 17224298/0x0106D26A)
 24: 0x1218 [0x1C] WAIT(60* ticks)
 25: 0x121B [0x45] LOAD_SCHEDULED_TASK: Load scheduler "fdo1" with entities [LocalPlayer, LocalPlayer], work=[200*, 0*]
 26: 0x122C [0x55] WAIT_LOAD_SCHEDULER: Wait for scheduler "fdo1" with entities [LocalPlayer, LocalPlayer], work=200*
 27: 0x123B [0x46] CAMERA_CONTROL: Restore default settings
 28: 0x123D [0x1C] WAIT(30* ticks)
 29: 0x1240 [0x55] WAIT_LOAD_SCHEDULER: Wait for scheduler "s000" with entities [LocalPlayer, LocalPlayer], work=9*
 30: 0x124F [0x45] LOAD_SCHEDULED_TASK: Load scheduler "fdi1" with entities [LocalPlayer, LocalPlayer], work=[200*, 0*]
 31: 0x1260 [0x21] END_EVENT
 32: 0x1261 [0x00] END_REQSTACK()
```

### Event 11

#### Metadata

| Field        | Value     |
|--------------|-----------|
| Entrypoint   | 0x1262    |
| Data Size    | 561 bytes |
| Instructions | 76        |

```
      00 01 02 03 04 05 06 07  08 09 0A 0B 0C 0D 0E 0F
      -- -- -- -- -- -- -- --  -- -- -- -- -- -- -- --
1260:       22 00 42 46 01 37  7F 80 80 80 7D 80 85 80    ".BF.7....}...
1270: 45 7A 80 F0 FF FF 7F F0  FF FF 7F 66 64 69 31 02  Ez.........fdi1.
1280: 80 45 1B 80 F0 FF FF 7F  F0 FF FF 7F 73 30 30 31  .E..........s001
1290: 02 80 1C 26 80 4A 6B D2  06 01 F0 FF FF 7F 1C 1C  ...&.Jk.........
12A0: 80 32 5C 80 1F 00 81 80  82 80 7D 80 1F 01 79 00  .2\.......}...y.
12B0: 6D D2 06 01 F0 FF FF 7F  79 00 6C D2 06 01 F0 FF  m.......y.l.....
12C0: FF 7F 1C 30 80 6F 76 6B  D2 06 01 66 25 80 6B D2  ...0.ovk...f%.k.
12D0: 06 01 6B D2 06 01 74 6C  6B 30 2B 6B D2 06 01 86  ..k...tlk0+k....
12E0: 80 23 7B 6B D2 06 01 6B  69 64 6C 30 6B D2 06 01  .#{k...kidl0k...
12F0: 55 1B 80 F0 FF FF 7F F0  FF FF 7F 73 30 30 31 45  U..........s001E
1300: 1B 80 F0 FF FF 7F F0 FF  FF 7F 73 30 30 32 02 80  ..........s002..
1310: 27 0A 6B D2 06 01 02 79  00 F0 FF FF 7F 6B D2 06  '.k....y.....k..
1320: 01 79 00 6C D2 06 01 6B  D2 06 01 79 00 6D D2 06  .y.l...k...y.m..
1330: 01 6B D2 06 01 2B 6B D2  06 01 87 80 23 27 0A 6A  .k...+k.....#'.j
1340: D2 06 01 04 1C 79 80 2B  6A D2 06 01 88 80 23 66  .....y.+j.....#f
1350: 25 80 6B D2 06 01 6B D2  06 01 74 6C 6B 30 2B 6B  %.k...k...tlk0+k
1360: D2 06 01 89 80 23 6B 69  64 6C 30 6B D2 06 01 4B  .....#kidl0k...K
1370: F0 FF FF 7F 8A 80 4B 6C  D2 06 01 8B 80 4B 6D D2  ......Kl.....Km.
1380: 06 01 8C 80 2A 0A 6A D2  06 01 66 1B 80 6A D2 06  ....*.j...f..j..
1390: 01 6A D2 06 01 74 6C 6B  30 2B 6A D2 06 01 8D 80  .j...tlk0+j.....
13A0: 23 6B 69 64 6C 30 6A D2  06 01 27 0A 6B D2 06 01  #kidl0j...'.k...
13B0: 03 45 1B 80 F0 FF FF 7F  F0 FF FF 7F 73 30 30 33  .E..........s003
13C0: 02 80 2B 6B D2 06 01 8E  80 23 27 0A 6A D2 06 01  ..+k.....#'.j...
13D0: 05 2A 0A 6B D2 06 01 2B  6A D2 06 01 8F 80 23 27  .*.k...+j.....#'
13E0: 0A 6A D2 06 01 06 45 1B  80 F0 FF FF 7F F0 FF FF  .j....E.........
13F0: 7F 73 30 30 34 02 80 2A  0A 6A D2 06 01 1C 73 80  .s004..*.j....s.
1400: 66 1B 80 6C D2 06 01 6C  D2 06 01 74 6C 6B 30 2B  f..l...l...tlk0+
1410: 6C D2 06 01 90 80 23 2B  6C D2 06 01 91 80 23 6B  l.....#+l.....#k
1420: 69 64 6C 30 6C D2 06 01  27 0A 6D D2 06 01 04 2B  idl0l...'.m....+
1430: 6D D2 06 01 92 80 23 27  0A 6C D2 06 01 02 45 7A  m.....#'.l....Ez
1440: 80 F0 FF FF 7F F0 FF FF  7F 66 64 6F 31 02 80 55  .........fdo1..U
1450: 7A 80 F0 FF FF 7F F0 FF  FF 7F 66 64 6F 31 52 1B  z.........fdo1R.
1460: 80 F0 FF FF 7F F0 FF FF  7F 73 30 30 34 45 93 80  .........s004E..
1470: F0 FF FF 7F F0 FF FF 7F  71 73 74 63 02 80 46 00  ........qstc..F.
1480: 45 7A 80 F0 FF FF 7F F0  FF FF 7F 66 64 69 31 02  Ez.........fdi1.
1490: 80 21 00                                          .!.             
```

#### Opcodes

```
  0: 0x1262 [0x22] ENTITY_HIDE_FLAG(enabled=0x00)
  1: 0x1264 [0x42] SET_CLI_EVENT_CANCEL_DATA()
  2: 0x1265 [0x46] CAMERA_CONTROL: Disable user control
  3: 0x1267 [0x37] UPDATE_EVENT_POSITION_AND_DIR: x=631.064*, z=-463.695*, y=24.999*, direction=116.3°*
  4: 0x1270 [0x45] LOAD_SCHEDULED_TASK: Load scheduler "fdi1" with entities [LocalPlayer, LocalPlayer], work=[200*, 0*]
  5: 0x1281 [0x45] LOAD_SCHEDULED_TASK: Load scheduler "s001" with entities [LocalPlayer, LocalPlayer], work=[9*, 0*]
  6: 0x1292 [0x1C] WAIT(20* ticks)
  7: 0x1295 [0x4A] Ayame (ID: 17224299/0x0106D26B) looks at LocalPlayer
  8: 0x129E [0x1C] WAIT(10* ticks)
  9: 0x12A1 [0x32] ExtData[1]->MainSpeed = 40* * 0.1
 10: 0x12A4 [0x1F] MOVE_ENTITY: EventEntity moves to X=628.261*, Z=-464.175*, Y=24.999*
 11: 0x12AC [0x1F] MOVE_ENTITY: Update entity position (mode=1)
 12: 0x12AE [0x79] Dalzakk (ID: 17224301/0x0106D26D) looks at LocalPlayer (Basic look)
 13: 0x12B8 [0x79] Hani (ID: 17224300/0x0106D26C) looks at LocalPlayer (Basic look)
 14: 0x12C2 [0x1C] WAIT(30* ticks)
 15: 0x12C5 [0x6F] WAIT_FRAME_DELAY: Yield until WaitTime reaches zero
 16: 0x12C6 [0x76] CHECK_ENTITY_RENDER_FLAGS: Wait until Ayame (ID: 17224299/0x0106D26B) Render.Flags0 and Render.Flags3 conditions are met
 17: 0x12CB [0x66] LOAD_EXT_SCHEDULER_MAIN: Load scheduler "tlk0" with entities [Ayame (ID: 17224299/0x0106D26B), Ayame (ID: 17224299/0x0106D26B)], work=19*
 18: 0x12DA [0x2B] Ayame (ID: 17224299/0x0106D26B) [7895*]:
    → "Good. You have all done well. We seem to be only missing Naji..."
 19: 0x12E1 [0x23] WAIT_FOR_DIALOG_INTERACTION
 20: 0x12E2 [0x7B] Ayame (ID: 17224299/0x0106D26B) stops talking
 21: 0x12E7 [0x6B] STOP_AND_IDLE: Ayame (ID: 17224299/0x0106D26B) stops current action and resets to idle (animation="idl0")
 22: 0x12F0 [0x55] WAIT_LOAD_SCHEDULER: Wait for scheduler "s001" with entities [LocalPlayer, LocalPlayer], work=9*
 23: 0x12FF [0x45] LOAD_SCHEDULED_TASK: Load scheduler "s002" with entities [LocalPlayer, LocalPlayer], work=[9*, 0*]
 24: 0x1310 [0x27] REQ_SET(priority=0x0A, entity_id=Ayame (ID: 17224299/0x0106D26B), tag_num=0x02)
 25: 0x1317 [0x79] LocalPlayer looks at Ayame (ID: 17224299/0x0106D26B) (Basic look)
 26: 0x1321 [0x79] Hani (ID: 17224300/0x0106D26C) looks at Ayame (ID: 17224299/0x0106D26B) (Basic look)
 27: 0x132B [0x79] Dalzakk (ID: 17224301/0x0106D26D) looks at Ayame (ID: 17224299/0x0106D26B) (Basic look)
 28: 0x1335 [0x2B] Ayame (ID: 17224299/0x0106D26B) [7896*]:
    → "Damn him, why is he always like this!?"
 29: 0x133C [0x23] WAIT_FOR_DIALOG_INTERACTION
 30: 0x133D [0x27] REQ_SET(priority=0x0A, entity_id=Naji (ID: 17224298/0x0106D26A), tag_num=0x04)
 31: 0x1344 [0x1C] WAIT(240* ticks)
 32: 0x1347 [0x2B] Naji (ID: 17224298/0x0106D26A) [7897*]:
    → "Hey, guys! Wait till you hear what I did!"
 33: 0x134E [0x23] WAIT_FOR_DIALOG_INTERACTION
 34: 0x134F [0x66] LOAD_EXT_SCHEDULER_MAIN: Load scheduler "tlk0" with entities [Ayame (ID: 17224299/0x0106D26B), Ayame (ID: 17224299/0x0106D26B)], work=19*
 35: 0x135E [0x2B] Ayame (ID: 17224299/0x0106D26B) [7898*]:
    → "You are late! You almost compromised our retreat! Everyone was worried you might be injured!"
 36: 0x1365 [0x23] WAIT_FOR_DIALOG_INTERACTION
 37: 0x1366 [0x6B] STOP_AND_IDLE: Ayame (ID: 17224299/0x0106D26B) stops current action and resets to idle (animation="idl0")
 38: 0x136F [0x4B] UPDATE_ENTITY_YAW(entity=LocalPlayer, yaw=18.8°*)
 39: 0x1376 [0x4B] UPDATE_ENTITY_YAW(entity=Hani (ID: 17224300/0x0106D26C), yaw=19.2°*)
 40: 0x137D [0x4B] UPDATE_ENTITY_YAW(entity=Dalzakk (ID: 17224301/0x0106D26D), yaw=19.8°*)
 41: 0x1384 [0x2A] GET_REQ_LEVEL(level=10, entity_id=Naji (ID: 17224298/0x0106D26A))
 42: 0x138A [0x66] LOAD_EXT_SCHEDULER_MAIN: Load scheduler "tlk0" with entities [Naji (ID: 17224298/0x0106D26A), Naji (ID: 17224298/0x0106D26A)], work=9*
 43: 0x1399 [0x2B] Naji (ID: 17224298/0x0106D26A) [7899*]:
    → "I'm sorry, it's been a while since I got to bash on real enemies, so I couldn't just leave without getting some extra--"
 44: 0x13A0 [0x23] WAIT_FOR_DIALOG_INTERACTION
 45: 0x13A1 [0x6B] STOP_AND_IDLE: Naji (ID: 17224298/0x0106D26A) stops current action and resets to idle (animation="idl0")
 46: 0x13AA [0x27] REQ_SET(priority=0x0A, entity_id=Ayame (ID: 17224299/0x0106D26B), tag_num=0x03)
 47: 0x13B1 [0x45] LOAD_SCHEDULED_TASK: Load scheduler "s003" with entities [LocalPlayer, LocalPlayer], work=[9*, 0*]
 48: 0x13C2 [0x2B] Ayame (ID: 17224299/0x0106D26B) [7900*]:
    → "This mission's over! You may each go back to Bastok at your own leisure. I will report our success to the captain. Dismissed."
 49: 0x13C9 [0x23] WAIT_FOR_DIALOG_INTERACTION
 50: 0x13CA [0x27] REQ_SET(priority=0x0A, entity_id=Naji (ID: 17224298/0x0106D26A), tag_num=0x05)
 51: 0x13D1 [0x2A] GET_REQ_LEVEL(level=10, entity_id=Ayame (ID: 17224299/0x0106D26B))
 52: 0x13D7 [0x2B] Naji (ID: 17224298/0x0106D26A) [7901*]:
    → "W-wait, you're not angry at me, are you?"
 53: 0x13DE [0x23] WAIT_FOR_DIALOG_INTERACTION
 54: 0x13DF [0x27] REQ_SET(priority=0x0A, entity_id=Naji (ID: 17224298/0x0106D26A), tag_num=0x06)
 55: 0x13E6 [0x45] LOAD_SCHEDULED_TASK: Load scheduler "s004" with entities [LocalPlayer, LocalPlayer], work=[9*, 0*]
 56: 0x13F7 [0x2A] GET_REQ_LEVEL(level=10, entity_id=Naji (ID: 17224298/0x0106D26A))
 57: 0x13FD [0x1C] WAIT(60* ticks)
 58: 0x1400 [0x66] LOAD_EXT_SCHEDULER_MAIN: Load scheduler "tlk0" with entities [Hani (ID: 17224300/0x0106D26C), Hani (ID: 17224300/0x0106D26C)], work=9*
 59: 0x140F [0x2B] Hani (ID: 17224300/0x0106D26C) [7902*]:
    → "It may not seem so, but those two truly are great warriors."
 60: 0x1416 [0x23] WAIT_FOR_DIALOG_INTERACTION
 61: 0x1417 [0x2B] Hani (ID: 17224300/0x0106D26C) [7903*]:
    → "They are both the youngest people to become Mythril Musketeers ever. It almost seemed like this mission was a tedious chore to them."
 62: 0x141E [0x23] WAIT_FOR_DIALOG_INTERACTION
 63: 0x141F [0x6B] STOP_AND_IDLE: Hani (ID: 17224300/0x0106D26C) stops current action and resets to idle (animation="idl0")
 64: 0x1428 [0x27] REQ_SET(priority=0x0A, entity_id=Dalzakk (ID: 17224301/0x0106D26D), tag_num=0x04)
 65: 0x142F [0x2B] Dalzakk (ID: 17224301/0x0106D26D) [7904*]:
    → "It seemed to me that this mission's objective was to test us adventurers, in order to select the best of us for a greater task..."
 66: 0x1436 [0x23] WAIT_FOR_DIALOG_INTERACTION
 67: 0x1437 [0x27] REQ_SET(priority=0x0A, entity_id=Hani (ID: 17224300/0x0106D26C), tag_num=0x02)
 68: 0x143E [0x45] LOAD_SCHEDULED_TASK: Load scheduler "fdo1" with entities [LocalPlayer, LocalPlayer], work=[200*, 0*]
 69: 0x144F [0x55] WAIT_LOAD_SCHEDULER: Wait for scheduler "fdo1" with entities [LocalPlayer, LocalPlayer], work=200*
 70: 0x145E [0x52] END_LOAD_SCHEDULER: End scheduler "s004" with entities [LocalPlayer, LocalPlayer], work=9*
 71: 0x146D [0x45] LOAD_SCHEDULED_TASK: Load scheduler "qstc" with entities [LocalPlayer, LocalPlayer], work=[201*, 0*]
 72: 0x147E [0x46] CAMERA_CONTROL: Restore default settings
 73: 0x1480 [0x45] LOAD_SCHEDULED_TASK: Load scheduler "fdi1" with entities [LocalPlayer, LocalPlayer], work=[200*, 0*]
 74: 0x1491 [0x21] END_EVENT
 75: 0x1492 [0x00] END_REQSTACK()
```

### Event 65534

#### Metadata

| Field        | Value   |
|--------------|---------|
| Entrypoint   | 0x1493  |
| Data Size    | 1 bytes |
| Instructions | 1       |

```
      00 01 02 03 04 05 06 07  08 09 0A 0B 0C 0D 0E 0F
      -- -- -- -- -- -- -- --  -- -- -- -- -- -- -- --
1490:          00                                          .            
```

#### Opcodes

```
  0: 0x1493 [0x00] END_REQSTACK()
```

### Event 65535.3

#### Metadata

| Field        | Value    |
|--------------|----------|
| Entrypoint   | 0x1494   |
| Data Size    | 10 bytes |
| Instructions | 2        |

```
      00 01 02 03 04 05 06 07  08 09 0A 0B 0C 0D 0E 0F
      -- -- -- -- -- -- -- --  -- -- -- -- -- -- -- --
1490:             37 94 80 95  80 96 80 97 80 00            7.........  
```

#### Opcodes

```
  0: 0x1494 [0x37] UPDATE_EVENT_POSITION_AND_DIR: x=471.604*, z=413.455*, y=24.681*, direction=15.5°*
  1: 0x149D [0x00] END_REQSTACK()
```

### Event 65535.4

#### Metadata

| Field        | Value    |
|--------------|----------|
| Entrypoint   | 0x149E   |
| Data Size    | 10 bytes |
| Instructions | 2        |

```
      00 01 02 03 04 05 06 07  08 09 0A 0B 0C 0D 0E 0F
      -- -- -- -- -- -- -- --  -- -- -- -- -- -- -- --
1490:                                            37 98                7.
14A0: 80 99 80 9A 80 9B 80 00                           ........        
```

#### Opcodes

```
  0: 0x149E [0x37] UPDATE_EVENT_POSITION_AND_DIR: x=469.285*, z=401.771*, y=24.851*, direction=275.6°*
  1: 0x14A7 [0x00] END_REQSTACK()
```

### Event 65535.5

#### Metadata

| Field        | Value    |
|--------------|----------|
| Entrypoint   | 0x14A8   |
| Data Size    | 10 bytes |
| Instructions | 2        |

```
      00 01 02 03 04 05 06 07  08 09 0A 0B 0C 0D 0E 0F
      -- -- -- -- -- -- -- --  -- -- -- -- -- -- -- --
14A0:                          37 9C 80 9D 80 9E 80 9F          7.......
14B0: 80 00                                             ..              
```

#### Opcodes

```
  0: 0x14A8 [0x37] UPDATE_EVENT_POSITION_AND_DIR: x=476.052*, z=382.904*, y=25.071*, direction=58.9°*
  1: 0x14B1 [0x00] END_REQSTACK()
```

### Event 901

#### Metadata

| Field        | Value     |
|--------------|-----------|
| Entrypoint   | 0x14B2    |
| Data Size    | 135 bytes |
| Instructions | 9         |

```
      00 01 02 03 04 05 06 07  08 09 0A 0B 0C 0D 0E 0F
      -- -- -- -- -- -- -- --  -- -- -- -- -- -- -- --
14B0:       42 5D 02 80 73 80  02 05 10 02 80 00 C9 14    B]..s.........
14C0: A8 00 04 10 05 80 1C 21  80 89 04 10 8B 04 10 05  .......!........
14D0: 10 02 10 03 10 3F 3F 3F  00 00 00 00 00 00 00 00  .....???........
14E0: 00 00 00 00 00 45 93 80  F8 FF FF 7F F8 FF FF 7F  .....E..........
14F0: 63 68 63 6F 02 80 48 A0  80 23 02 06 10 05 80 00  chco..H..#......
1500: 17 15 45 A1 80 F8 FF FF  7F F8 FF FF 7F 6E 61 6B  ..E..........nak
1510: 31 02 80 48 A2 80 23 02  07 10 A3 80 00 34 15 45  1..H..#......4.E
1520: A1 80 F8 FF FF 7F F8 FF  FF 7F 6E 61 6B 32 02 80  ..........nak2..
1530: 48 A4 80 23 1C 05 80 21  00                       H..#...!.       
```

#### Opcodes

```
  0: 0x14B2 [0x42] SET_CLI_EVENT_CANCEL_DATA()
  1: 0x14B3 [0x5D] SET_MUSIC_VOLUME(volume=0*, fade_time=60*)
  2: 0x14B8 [0x02] IF !(Work_Zone[5] == 0*) GOTO 0x14C9
  3: 0x14C0 [0xA8] MAP_MARKER_CONTROL: Reset/unlock markers (no map display), zone=Work_Zone[4], marker=1*
  4: 0x14C6 [0x1C] WAIT(15* ticks)
  5: 0x14C9 [0x89] OPEN_MAP(map_id=0x00001004)
  6: 0x14CC [0x8B] SET_EVENT_MARK: Add/update map marker on map Work_Zone[4] at (Work_Zone[2], Work_Zone[3]), index=Work_Zone[5], name=(no name)
  7: 0x14D5 [0x3F] 0x3F3F = ExtData[1]->WorkLocal[0] % ExtData[1]->WorkLocal[0]
  8: 0x14DC [0x00] END_REQSTACK()
```

#### Data or dead code:

```
# Dead code (unreachable instructions):
     0x14DD [0x00] END_REQSTACK()
     0x14DE [0x00] END_REQSTACK()
     0x14DF [0x00] END_REQSTACK()
     0x14E0 [0x00] END_REQSTACK()
     0x14E1 [0x00] END_REQSTACK()
     0x14E2 [0x00] END_REQSTACK()
     0x14E3 [0x00] END_REQSTACK()
     0x14E4 [0x00] END_REQSTACK()
     0x14E5 [0x45] LOAD_SCHEDULED_TASK: Load scheduler "chco" with entities [EventEntity, EventEntity], work=[201*, 0*]
     0x14F6 [0x48] [System] [8629*]:
    → "There is treasure somewhere in the vicinity of this marker..."
     0x14F9 [0x23] WAIT_FOR_DIALOG_INTERACTION
     0x14FA [0x02] IF !(Work_Zone[6] == 1*) GOTO 0x1517
     0x1502 [0x45] LOAD_SCHEDULED_TASK: Load scheduler "nak1" with entities [EventEntity, EventEntity], work=[144*, 0*]
     0x1513 [0x48] [System] [8641*]:
    → "Your chocobo seems especially sharp today!"
     0x1516 [0x23] WAIT_FOR_DIALOG_INTERACTION
     0x1517 [0x02] IF !(Work_Zone[7] == 99*) GOTO 0x1534
     0x151F [0x45] LOAD_SCHEDULED_TASK: Load scheduler "nak2" with entities [EventEntity, EventEntity], work=[144*, 0*]
     0x1530 [0x48] [System] [8642*]:
    → "Your chocobo seems especially energetic today!"
     0x1533 [0x23] WAIT_FOR_DIALOG_INTERACTION
     0x1534 [0x1C] WAIT(1* ticks)
     0x1537 [0x21] END_EVENT
     0x1538 [0x00] END_REQSTACK()
```
