# Event 65535

## Metadata

| Field           | Value    |
|-----------------|----------|
| Event Index     | 24/36    |
| Offset          | 0x06FA   |
| Data Size       | 38 bytes |
| Calculated Size | 38 bytes |
| Instructions    | 10       |

```
      00 01 02 03 04 05 06 07  08 09 0A 0B 0C 0D 0E 0F
      -- -- -- -- -- -- -- --  -- -- -- -- -- -- -- --
06F0:                                1C 3A 80 32 3B 80            .:.2;.
0700: 1F 00 3C 80 3D 80 3E 80  1F 01 1F 00 3F 80 40 80  ..<.=.>.....?.@.
0710: 41 80 1F 01 1F 00 42 80  43 80 44 80 1F 01 6F 00  A.....B.C.D...o.
```

## Opcodes

```
  0: 0x06FA [0x1C] WAIT(45* ticks)
  1: 0x06FD [0x32] ExtData[1]->MainSpeed = 41* * 0.1
  2: 0x0700 [0x1F] MOVE_ENTITY: EventEntity moves to X=-144.494*, Z=-94.326*, Y=-76.000*
  3: 0x0708 [0x1F] MOVE_ENTITY: Update entity position (mode=1)
  4: 0x070A [0x1F] MOVE_ENTITY: EventEntity moves to X=-146.583*, Z=-92.811*, Y=-75.794*
  5: 0x0712 [0x1F] MOVE_ENTITY: Update entity position (mode=1)
  6: 0x0714 [0x1F] MOVE_ENTITY: EventEntity moves to X=-153.848*, Z=-92.953*, Y=-75.860*
  7: 0x071C [0x1F] MOVE_ENTITY: Update entity position (mode=1)
  8: 0x071E [0x6F] WAIT_FRAME_DELAY: Yield until WaitTime reaches zero
  9: 0x071F [0x00] END_REQSTACK()
```
