# Event 65535

## Metadata

| Field           | Value    |
|-----------------|----------|
| Event Index     | 26/28    |
| Offset          | 0x0138   |
| Data Size       | 71 bytes |
| Calculated Size | 71 bytes |
| Instructions    | 11       |

```
      00 01 02 03 04 05 06 07  08 09 0A 0B 0C 0D 0E 0F
      -- -- -- -- -- -- -- --  -- -- -- -- -- -- -- --
0130:                          1C 2B 80 1E 54 13 06 01          .+..T...
0140: 1C 2B 80 5B 2C 80 45 13  06 01 45 13 06 01 68 61  .+.[,.E...E...ha
0150: 69 30 1C 2D 80 1E 51 13  06 01 1C 2B 80 5B 2C 80  i0.-..Q....+.[,.
0160: 45 13 06 01 45 13 06 01  68 61 69 30 1C 2E 80 5B  E...E...hai0...[
0170: 2F 80 45 13 06 01 45 13  06 01 6B 69 73 69 00     /.E...E...kisi. 
```

## Opcodes

```
  0: 0x0138 [0x1C] WAIT(90* ticks)
  1: 0x013B [0x1E] EventEntity looks at Etoh Tanghari (ID: 17175380/0x01061354) and starts talking
  2: 0x0140 [0x1C] WAIT(90* ticks)
  3: 0x0143 [0x5B] LOAD_EXT_SCHEDULER(work_offset=81*, entity1=Syu Befrathi (ID: 17175365/0x01061345), entity2=Syu Befrathi (ID: 17175365/0x01061345), action="hai0")
  4: 0x0152 [0x1C] WAIT(150* ticks)
  5: 0x0155 [0x1E] EventEntity looks at Unnamed NPC (ID: 17175377/0x01061351) and starts talking
  6: 0x015A [0x1C] WAIT(90* ticks)
  7: 0x015D [0x5B] LOAD_EXT_SCHEDULER(work_offset=81*, entity1=Syu Befrathi (ID: 17175365/0x01061345), entity2=Syu Befrathi (ID: 17175365/0x01061345), action="hai0")
  8: 0x016C [0x1C] WAIT(180* ticks)
  9: 0x016F [0x5B] LOAD_EXT_SCHEDULER(work_offset=84*, entity1=Syu Befrathi (ID: 17175365/0x01061345), entity2=Syu Befrathi (ID: 17175365/0x01061345), action="kisi")
 10: 0x017E [0x00] END_REQSTACK()
```
