# 17649902

## Common Data

| Field            | Value                         |
|------------------|-------------------------------|
| Zone             | Labyrinth of Onzozo (ID: 213) |
| Block Size       | 144 bytes                     |
| Total Events     | 3                             |
| References Count | 8                             |

## List of Events

| Event ID              | Entrypoint   |   Size |   Instructions |
|-----------------------|--------------|--------|----------------|
| [65535](#event-65535) | 0x0000       |      1 |              1 |
| [0](#event-0)         | 0x0001       |     44 |             11 |
| [1](#event-1)         | 0x002D       |     36 |              8 |

## DAT References (imed_data)

|   Index | Hex Value   |   Dec Value |
|---------|-------------|-------------|
|       0 | 0x1CB5      |        7349 |
|       1 | 0x01CD      |         461 |
|       2 | 0x1CB6      |        7350 |
|       3 | 0x0001      |           1 |
|       4 | 0x0000      |           0 |
|       5 | 0x0003      |           3 |
|       6 | 0x001E      |          30 |
|       7 | 0x1CB4      |        7348 |

## String References

- **7348**: You see something lying on the nest.
- **7349**: It looks like the nest of a very large bird.
- **7350**: Place $3 at the entrance? [Yes./Not just yet.]

## Events

### Event 65535

#### Metadata

| Field        | Value   |
|--------------|---------|
| Entrypoint   | 0x0000  |
| Data Size    | 1 bytes |
| Instructions | 1       |

```
      00 01 02 03 04 05 06 07  08 09 0A 0B 0C 0D 0E 0F
      -- -- -- -- -- -- -- --  -- -- -- -- -- -- -- --
0000: 00                                                .               
```

#### Opcodes

```
  0: 0x0000 [0x00] END_REQSTACK()
```

### Event 0

#### Metadata

| Field        | Value    |
|--------------|----------|
| Entrypoint   | 0x0001   |
| Data Size    | 44 bytes |
| Instructions | 11       |

```
      00 01 02 03 04 05 06 07  08 09 0A 0B 0C 0D 0E 0F
      -- -- -- -- -- -- -- --  -- -- -- -- -- -- -- --
0000:    4A F0 FF FF 7F F8 FF  FF 7F 48 00 80 23 03 02   J........H..#..
0010: 10 01 80 24 02 80 03 80  04 80 25 02 00 10 04 80  ...$......%.....
0020: 00 2B 00 03 01 10 03 80  01 2B 00 21 00           .+.......+.!.   
```

#### Opcodes

```
  0: 0x0001 [0x4A] LocalPlayer looks at EventEntity
  1: 0x000A [0x48] [System] [7349*]:
    → "It looks like the nest of a very large bird."
  2: 0x000D [0x23] WAIT_FOR_DIALOG_INTERACTION
  3: 0x000E [0x03] Work_Zone[2] = 461*
  4: 0x0013 [0x24] CREATE_DIALOG(message_id=7350*, default_option=1*, option_flags=0*)
    → "Place $3 at the entrance? [Yes./Not just yet.]"
  5: 0x001A [0x25] WAIT_DIALOG_SELECT()
  6: 0x001B [0x02] IF !(Work_Zone[0] == 0*) GOTO 0x002B
  7: 0x0023 [0x03] Work_Zone[1] = 1*
  8: 0x0028 [0x01] GOTO 0x002B

SUBROUTINE_002B:
  9: 0x002B [0x21] END_EVENT
 10: 0x002C [0x00] END_REQSTACK()
```

### Event 1

#### Metadata

| Field        | Value    |
|--------------|----------|
| Entrypoint   | 0x002D   |
| Data Size    | 36 bytes |
| Instructions | 8        |

```
      00 01 02 03 04 05 06 07  08 09 0A 0B 0C 0D 0E 0F
      -- -- -- -- -- -- -- --  -- -- -- -- -- -- -- --
0020:                                         42 4A F0               BJ.
0030: FF FF 7F F8 FF FF 7F 62  05 80 F8 FF FF 7F F8 FF  .......b........
0040: FF 7F 6D 61 69 6E 04 80  1C 06 80 48 07 80 23 21  ..main.....H..#!
0050: 00                                                .               
```

#### Opcodes

```
  0: 0x002D [0x42] SET_CLI_EVENT_CANCEL_DATA()
  1: 0x002E [0x4A] LocalPlayer looks at EventEntity
  2: 0x0037 [0x62] LOAD_EVENT_SCHEDULER: Load scheduler "main" with entities [EventEntity, EventEntity], work=[3*, 0*]
  3: 0x0048 [0x1C] WAIT(30* ticks)
  4: 0x004B [0x48] [System] [7348*]:
    → "You see something lying on the nest."
  5: 0x004E [0x23] WAIT_FOR_DIALOG_INTERACTION
  6: 0x004F [0x21] END_EVENT
  7: 0x0050 [0x00] END_REQSTACK()
```
