# 17891727 - Rocky Outcrop

## Common Data

| Field            | Value               |
|------------------|---------------------|
| Zone             | Dho Gates (ID: 272) |
| Block Size       | 5408 bytes          |
| Total Events     | 4                   |
| References Count | 175                 |

## List of Events

| Event ID              | Entrypoint   |   Size |   Instructions |
|-----------------------|--------------|--------|----------------|
| [65535](#event-65535) | 0x0000       |      1 |              1 |
| [14](#event-14)       | 0x0001       |   1031 |            125 |
| [15](#event-15)       | 0x0408       |    266 |             33 |
| [16](#event-16)       | 0x0512       |   3377 |            369 |

## DAT References (imed_data)

|   Index | Hex Value   |   Dec Value |
|---------|-------------|-------------|
|       0 | 0x00C8      |         200 |
|       1 | 0x0000      |           0 |
|       2 | 0x0013      |          19 |
|       3 | 0xFFFB8505  |  4294673669 |
|       4 | 0x333E5     |      209893 |
|       5 | 0xFFFF8B63  |  4294937443 |
|       6 | 0x07EE      |        2030 |
|       7 | 0xFFFB9509  |  4294677769 |
|       8 | 0x336BD     |      210621 |
|       9 | 0xFFFF8B78  |  4294937464 |
|      10 | 0x0731      |        1841 |
|      11 | 0xFFFB0115  |  4294639893 |
|      12 | 0x3BC59     |      244825 |
|      13 | 0xFFFF8EFD  |  4294938365 |
|      14 | 0x0F68      |        3944 |
|      15 | 0xFFFB0C4A  |  4294642762 |
|      16 | 0x3C6AC     |      247468 |
|      17 | 0xFFFF8F83  |  4294938499 |
|      18 | 0x0755      |        1877 |
|      19 | 0xFFFAFE05  |  4294639109 |
|      20 | 0x3C8D2     |      248018 |
|      21 | 0xFFFF8D4E  |  4294937934 |
|      22 | 0x007C      |         124 |
|      23 | 0xFFFB1C3B  |  4294646843 |
|      24 | 0x35886     |      219270 |
|      25 | 0xFFFF8EB8  |  4294938296 |
|      26 | 0x07ED      |        2029 |
|      27 | 0xFFFB30E7  |  4294652135 |
|      28 | 0x3463B     |      214587 |
|      29 | 0xFFFF8FDA  |  4294938586 |
|      30 | 0x029C      |         668 |
|      31 | 0xFFFB0F5A  |  4294643546 |
|      32 | 0x33B97     |      211863 |
|      33 | 0xFFFF8EFF  |  4294938367 |
|      34 | 0x0DB3      |        3507 |
|      35 | 0xFFFB2BED  |  4294650861 |
|      36 | 0x3203F     |      204863 |
|      37 | 0xFFFF86CD  |  4294936269 |
|      38 | 0x0619      |        1561 |
|      39 | 0x0272      |         626 |
|      40 | 0x000F      |          15 |
|      41 | 0x1E41      |        7745 |
|      42 | 0x1E42      |        7746 |
|      43 | 0x003B      |          59 |
|      44 | 0x1E43      |        7747 |
|      45 | 0x1E44      |        7748 |
|      46 | 0x0015      |          21 |
|      47 | 0x1E45      |        7749 |
|      48 | 0x1E46      |        7750 |
|      49 | 0x0006      |           6 |
|      50 | 0x1E47      |        7751 |
|      51 | 0x0009      |           9 |
|      52 | 0x1E48      |        7752 |
|      53 | 0x1E49      |        7753 |
|      54 | 0x003C      |          60 |
|      55 | 0x001E      |          30 |
|      56 | 0x0007      |           7 |
|      57 | 0x1E4A      |        7754 |
|      58 | 0x0005      |           5 |
|      59 | 0x1E4B      |        7755 |
|      60 | 0x1E4C      |        7756 |
|      61 | 0xFFFB8637  |  4294673975 |
|      62 | 0x32C21     |      207905 |
|      63 | 0xFFFF8AC7  |  4294937287 |
|      64 | 0x1E4D      |        7757 |
|      65 | 0xFFFB0A70  |  4294642288 |
|      66 | 0x33EFB     |      212731 |
|      67 | 0xFFFF8EEE  |  4294938350 |
|      68 | 0x0AF6      |        2806 |
|      69 | 0xFFFAFE07  |  4294639111 |
|      70 | 0x3C3E1     |      246753 |
|      71 | 0xFFFF8E4C  |  4294938188 |
|      72 | 0x0E1F      |        3615 |
|      73 | 0xFFFAE5FB  |  4294632955 |
|      74 | 0x2DF95     |      188309 |
|      75 | 0xFFFF88F4  |  4294936820 |
|      76 | 0x0E67      |        3687 |
|      77 | 0xFFFB0F11  |  4294643473 |
|      78 | 0x3169B     |      202395 |
|      79 | 0xFFFF8D7E  |  4294937982 |
|      80 | 0x0A39      |        2617 |
|      81 | 0xFFFB0103  |  4294639875 |
|      82 | 0x31530     |      202032 |
|      83 | 0xFFFF8EB9  |  4294938297 |
|      84 | 0x031A      |         794 |
|      85 | 0xFFFB0774  |  4294641524 |
|      86 | 0x2FC78     |      195704 |
|      87 | 0xFFFF8EDE  |  4294938334 |
|      88 | 0x015F      |         351 |
|      89 | 0x003D      |          61 |
|      90 | 0x0050      |          80 |
|      91 | 0x0D39      |        3385 |
|      92 | 0x000A      |          10 |
|      93 | 0x005A      |          90 |
|      94 | 0x0305      |         773 |
|      95 | 0x1E50      |        7760 |
|      96 | 0x1E51      |        7761 |
|      97 | 0x1E52      |        7762 |
|      98 | 0x1E53      |        7763 |
|      99 | 0x0014      |          20 |
|     100 | 0x0096      |         150 |
|     101 | 0x04E2      |        1250 |
|     102 | 0xFFFB1EDA  |  4294647514 |
|     103 | 0x356F2     |      218866 |
|     104 | 0x032A      |         810 |
|     105 | 0xFFFB191C  |  4294646044 |
|     106 | 0x35AB5     |      219829 |
|     107 | 0xFFFF8E3A  |  4294938170 |
|     108 | 0x0321      |         801 |
|     109 | 0x00F0      |         240 |
|     110 | 0xFFFB1F5C  |  4294647644 |
|     111 | 0x348D7     |      215255 |
|     112 | 0x0078      |         120 |
|     113 | 0xFFFB27BD  |  4294649789 |
|     114 | 0x34049     |      213065 |
|     115 | 0xFFFF8E8A  |  4294938250 |
|     116 | 0x0419      |        1049 |
|     117 | 0x0039      |          57 |
|     118 | 0x1E54      |        7764 |
|     119 | 0x1E55      |        7765 |
|     120 | 0x001D      |          29 |
|     121 | 0x1E56      |        7766 |
|     122 | 0x1E57      |        7767 |
|     123 | 0xFFFB0D6C  |  4294643052 |
|     124 | 0x32823     |      206883 |
|     125 | 0xFFFF8E66  |  4294938214 |
|     126 | 0x01D3      |         467 |
|     127 | 0xFFFB0971  |  4294642033 |
|     128 | 0x373EE     |      226286 |
|     129 | 0xFFFF9005  |  4294938629 |
|     130 | 0x0FA6      |        4006 |
|     131 | 0xFFFAF498  |  4294636696 |
|     132 | 0x37E9C     |      229020 |
|     133 | 0xFFFF8FF4  |  4294938612 |
|     134 | 0x0A62      |        2658 |
|     135 | 0xFFFB4697  |  4294657687 |
|     136 | 0x33C73     |      212083 |
|     137 | 0xFFFF9024  |  4294938660 |
|     138 | 0x0871      |        2161 |
|     139 | 0x1E58      |        7768 |
|     140 | 0x1E59      |        7769 |
|     141 | 0x0CFE      |        3326 |
|     142 | 0x1E5A      |        7770 |
|     143 | 0x007A      |         122 |
|     144 | 0x1E5B      |        7771 |
|     145 | 0x008C      |         140 |
|     146 | 0x1E5C      |        7772 |
|     147 | 0x0028      |          40 |
|     148 | 0x00C9      |         201 |
|     149 | 0xFFFB9318  |  4294677272 |
|     150 | 0x33E4B     |      212555 |
|     151 | 0xFFFF8B65  |  4294937445 |
|     152 | 0x056D      |        1389 |
|     153 | 0x0C03      |        3075 |
|     154 | 0x1E5D      |        7773 |
|     155 | 0x1E5E      |        7774 |
|     156 | 0x1E5F      |        7775 |
|     157 | 0x1E60      |        7776 |
|     158 | 0x1E61      |        7777 |
|     159 | 0x1E62      |        7778 |
|     160 | 0x1E63      |        7779 |
|     161 | 0x1E64      |        7780 |
|     162 | 0x1E65      |        7781 |
|     163 | 0x1E66      |        7782 |
|     164 | 0x1E67      |        7783 |
|     165 | 0x1E68      |        7784 |
|     166 | 0x1E69      |        7785 |
|     167 | 0x1E6A      |        7786 |
|     168 | 0x00B4      |         180 |
|     169 | 0x1E6B      |        7787 |
|     170 | 0x0047      |          71 |
|     171 | 0x1E6C      |        7788 |
|     172 | 0x1E6D      |        7789 |
|     173 | 0x1E6E      |        7790 |
|     174 | 0x1E6F      |        7791 |

## Events

### Event 65535

#### Metadata

| Field        | Value   |
|--------------|---------|
| Entrypoint   | 0x0000  |
| Data Size    | 1 bytes |
| Instructions | 1       |

```
      00 01 02 03 04 05 06 07  08 09 0A 0B 0C 0D 0E 0F
      -- -- -- -- -- -- -- --  -- -- -- -- -- -- -- --
0000: 00                                                .               
```

#### Opcodes

```
  0: 0x0000 [0x00] END_REQSTACK()
```

### Event 14

#### Metadata

| Field        | Value      |
|--------------|------------|
| Entrypoint   | 0x0001     |
| Data Size    | 1031 bytes |
| Instructions | 125        |

```
      00 01 02 03 04 05 06 07  08 09 0A 0B 0C 0D 0E 0F
      -- -- -- -- -- -- -- --  -- -- -- -- -- -- -- --
0000:    42 45 00 80 F8 FF FF  7F F8 FF FF 7F 66 64 6F   BE..........fdo
0010: 31 01 80 55 00 80 F8 FF  FF 7F F8 FF FF 7F 66 64  1..U..........fd
0020: 6F 31 46 01 38 02 80 2F  00 90 01 11 01 2F 00 92  o1F.8../...../..
0030: 01 11 01 2F 00 93 01 11  01 2F 00 91 01 11 01 2F  .../...../...../
0040: 00 94 01 11 01 2F 00 95  01 11 01 2F 00 96 01 11  ...../...../....
0050: 01 2F 00 97 01 11 01 4E  00 90 01 11 01 4E 00 92  ./.....N.....N..
0060: 01 11 01 4E 00 93 01 11  01 4E 00 91 01 11 01 4E  ...N.....N.....N
0070: 00 94 01 11 01 4E 00 95  01 11 01 4E 00 96 01 11  .....N.....N....
0080: 01 4E 00 97 01 11 01 92  01 90 01 11 01 92 01 92  .N..............
0090: 01 11 01 92 01 93 01 11  01 92 01 91 01 11 01 94  ................
00A0: 01 F0 FF FF 7F 94 01 90  01 11 01 94 01 92 01 11  ................
00B0: 01 94 01 93 01 11 01 94  01 91 01 11 01 94 01 94  ................
00C0: 01 11 01 94 01 95 01 11  01 94 01 96 01 11 01 94  ................
00D0: 01 97 01 11 01 59 05 F0  FF FF 7F 01 BA F0 FF FF  .....Y..........
00E0: 7F 03 80 04 80 05 80 06  80 BA 90 01 11 01 07 80  ................
00F0: 08 80 09 80 0A 80 BA 92  01 11 01 0B 80 0C 80 0D  ................
0100: 80 0E 80 BA 93 01 11 01  0F 80 10 80 11 80 12 80  ................
0110: BA 91 01 11 01 13 80 14  80 15 80 16 80 BA 94 01  ................
0120: 11 01 17 80 18 80 19 80  1A 80 BA 95 01 11 01 1B  ................
0130: 80 1C 80 1D 80 1E 80 BA  96 01 11 01 1F 80 20 80  .............. .
0140: 21 80 22 80 BA 97 01 11  01 23 80 24 80 25 80 26  !."......#.$.%.&
0150: 80 80 F0 FF FF 7F 80 90  01 11 01 80 92 01 11 01  ................
0160: 80 93 01 11 01 80 91 01  11 01 80 94 01 11 01 80  ................
0170: 95 01 11 01 80 96 01 11  01 80 97 01 11 01 4A 92  ..............J.
0180: 01 11 01 93 01 11 01 4A  91 01 11 01 93 01 11 01  .......J........
0190: 27 05 90 01 11 01 02 45  27 80 F8 FF FF 7F F8 FF  '......E'.......
01A0: FF 7F 73 31 38 38 01 80  1C 28 80 45 00 80 F8 FF  ..s188...(.E....
01B0: FF 7F F8 FF FF 7F 66 64  69 31 01 80 55 00 80 F8  ......fdi1..U...
01C0: FF FF 7F F8 FF FF 7F 66  64 69 31 2B 90 01 11 01  .......fdi1+....
01D0: 29 80 23 2A 05 90 01 11  01 27 05 95 01 11 01 02  ).#*.....'......
01E0: 52 27 80 F8 FF FF 7F F8  FF FF 7F 73 31 38 38 45  R'.........s188E
01F0: 27 80 F8 FF FF 7F F8 FF  FF 7F 73 31 38 39 01 80  '.........s189..
0200: 2B 90 01 11 01 2A 80 23  66 2B 80 91 01 11 01 91  +....*.#f+......
0210: 01 11 01 74 6C 6B 30 52  27 80 F8 FF FF 7F F8 FF  ...tlk0R'.......
0220: FF 7F 73 31 38 39 45 27  80 F8 FF FF 7F F8 FF FF  ..s189E'........
0230: 7F 73 31 39 30 01 80 2B  90 01 11 01 2C 80 23 52  .s190..+....,.#R
0240: 27 80 F8 FF FF 7F F8 FF  FF 7F 73 31 39 30 45 27  '.........s190E'
0250: 80 F8 FF FF 7F F8 FF FF  7F 73 31 39 31 01 80 66  .........s191..f
0260: 2B 80 91 01 11 01 91 01  11 01 74 6C 6B 31 2B 90  +.........tlk1+.
0270: 01 11 01 2D 80 23 6E 90  01 11 01 2E 80 99 90 01  ...-.#n.........
0280: 11 01 52 27 80 F8 FF FF  7F F8 FF FF 7F 73 31 39  ..R'.........s19
0290: 31 45 27 80 F8 FF FF 7F  F8 FF FF 7F 73 31 39 32  1E'.........s192
02A0: 01 80 2B 90 01 11 01 2F  80 23 52 27 80 F8 FF FF  ..+..../.#R'....
02B0: 7F F8 FF FF 7F 73 31 39  32 45 27 80 F8 FF FF 7F  .....s192E'.....
02C0: F8 FF FF 7F 73 31 39 33  01 80 2B 90 01 11 01 30  ....s193..+....0
02D0: 80 23 52 27 80 F8 FF FF  7F F8 FF FF 7F 73 31 39  .#R'.........s19
02E0: 33 45 27 80 F8 FF FF 7F  F8 FF FF 7F 73 31 39 34  3E'.........s194
02F0: 01 80 6E 90 01 11 01 31  80 99 90 01 11 01 2B 90  ..n....1......+.
0300: 01 11 01 32 80 23 66 33  80 90 01 11 01 90 01 11  ...2.#f3........
0310: 01 74 68 6B 31 2B 90 01  11 01 34 80 23 52 27 80  .thk1+....4.#R'.
0320: F8 FF FF 7F F8 FF FF 7F  73 31 39 34 45 27 80 F8  ........s194E'..
0330: FF FF 7F F8 FF FF 7F 73  31 39 35 01 80 66 33 80  .......s195..f3.
0340: 90 01 11 01 90 01 11 01  74 68 6B 32 2B 90 01 11  ........thk2+...
0350: 01 35 80 1C 36 80 4A 90  01 11 01 F0 FF FF 7F 1C  .5..6.J.........
0360: 37 80 4A F0 FF FF 7F 90  01 11 01 23 6E 90 01 11  7.J........#n...
0370: 01 38 80 99 90 01 11 01  2B 90 01 11 01 39 80 23  .8......+....9.#
0380: 52 27 80 F8 FF FF 7F F8  FF FF 7F 73 31 39 35 45  R'.........s195E
0390: 27 80 F8 FF FF 7F F8 FF  FF 7F 73 31 39 36 01 80  '.........s196..
03A0: 66 33 80 90 01 11 01 90  01 11 01 74 6C 6B 30 03  f3.........tlk0.
03B0: 02 10 3A 80 2B 90 01 11  01 3B 80 23 2B 90 01 11  ..:.+....;.#+...
03C0: 01 3C 80 23 45 00 80 F8  FF FF 7F F8 FF FF 7F 66  .<.#E..........f
03D0: 64 6F 31 01 80 55 00 80  F8 FF FF 7F F8 FF FF 7F  do1..U..........
03E0: 66 64 6F 31 52 27 80 F8  FF FF 7F F8 FF FF 7F 73  fdo1R'.........s
03F0: 31 39 36 46 00 45 00 80  F8 FF FF 7F F8 FF FF 7F  196F.E..........
0400: 66 64 69 32 01 80 21 00                           fdi2..!.        
```

#### Opcodes

```
  0: 0x0001 [0x42] SET_CLI_EVENT_CANCEL_DATA()
  1: 0x0002 [0x45] LOAD_SCHEDULED_TASK: Load scheduler "fdo1" with entities [EventEntity, EventEntity], work=[200*, 0*]
  2: 0x0013 [0x55] WAIT_LOAD_SCHEDULER: Wait for scheduler "fdo1" with entities [EventEntity, EventEntity], work=200*
  3: 0x0022 [0x46] CAMERA_CONTROL: Disable user control
  4: 0x0024 [0x38] SET_CLIENT_EVENT_MODE(mode=19*)
  5: 0x0027 [0x2F] Nashu (ID: 17891728/0x01110190)->Render.Flags0 &= ~0x80000 // Bit 19
  6: 0x002D [0x2F] Brezit-Kyorgul (ID: 17891730/0x01110192)->Render.Flags0 &= ~0x80000 // Bit 19
  7: 0x0033 [0x2F] Mligni-Vorgut (ID: 17891731/0x01110193)->Render.Flags0 &= ~0x80000 // Bit 19
  8: 0x0039 [0x2F] Soraa Ishakal (ID: 17891729/0x01110191)->Render.Flags0 &= ~0x80000 // Bit 19
  9: 0x003F [0x2F] Unnamed NPC (ID: 17891732/0x01110194)->Render.Flags0 &= ~0x80000 // Bit 19
 10: 0x0045 [0x2F] Unnamed NPC (ID: 17891733/0x01110195)->Render.Flags0 &= ~0x80000 // Bit 19
 11: 0x004B [0x2F] Unnamed NPC (ID: 17891734/0x01110196)->Render.Flags0 &= ~0x80000 // Bit 19
 12: 0x0051 [0x2F] Unnamed NPC (ID: 17891735/0x01110197)->Render.Flags0 &= ~0x80000 // Bit 19
 13: 0x0057 [0x4E] SET_ENTITY_HIDE_FLAG: Show Nashu (ID: 17891728/0x01110190)
 14: 0x005D [0x4E] SET_ENTITY_HIDE_FLAG: Show Brezit-Kyorgul (ID: 17891730/0x01110192)
 15: 0x0063 [0x4E] SET_ENTITY_HIDE_FLAG: Show Mligni-Vorgut (ID: 17891731/0x01110193)
 16: 0x0069 [0x4E] SET_ENTITY_HIDE_FLAG: Show Soraa Ishakal (ID: 17891729/0x01110191)
 17: 0x006F [0x4E] SET_ENTITY_HIDE_FLAG: Show Unnamed NPC (ID: 17891732/0x01110194)
 18: 0x0075 [0x4E] SET_ENTITY_HIDE_FLAG: Show Unnamed NPC (ID: 17891733/0x01110195)
 19: 0x007B [0x4E] SET_ENTITY_HIDE_FLAG: Show Unnamed NPC (ID: 17891734/0x01110196)
 20: 0x0081 [0x4E] SET_ENTITY_HIDE_FLAG: Show Unnamed NPC (ID: 17891735/0x01110197)
 21: 0x0087 [0x92] Nashu (ID: 17891728/0x01110190)->Render.Flags3 ^= 0x01
 22: 0x008D [0x92] Brezit-Kyorgul (ID: 17891730/0x01110192)->Render.Flags3 ^= 0x01
 23: 0x0093 [0x92] Mligni-Vorgut (ID: 17891731/0x01110193)->Render.Flags3 ^= 0x01
 24: 0x0099 [0x92] Soraa Ishakal (ID: 17891729/0x01110191)->Render.Flags3 ^= 0x01
 25: 0x009F [0x94] LocalPlayer->Render.Flags3 ^= 0x01
 26: 0x00A5 [0x94] Nashu (ID: 17891728/0x01110190)->Render.Flags3 ^= 0x01
 27: 0x00AB [0x94] Brezit-Kyorgul (ID: 17891730/0x01110192)->Render.Flags3 ^= 0x01
 28: 0x00B1 [0x94] Mligni-Vorgut (ID: 17891731/0x01110193)->Render.Flags3 ^= 0x01
 29: 0x00B7 [0x94] Soraa Ishakal (ID: 17891729/0x01110191)->Render.Flags3 ^= 0x01
 30: 0x00BD [0x94] Unnamed NPC (ID: 17891732/0x01110194)->Render.Flags3 ^= 0x01
 31: 0x00C3 [0x94] Unnamed NPC (ID: 17891733/0x01110195)->Render.Flags3 ^= 0x01
 32: 0x00C9 [0x94] Unnamed NPC (ID: 17891734/0x01110196)->Render.Flags3 ^= 0x01
 33: 0x00CF [0x94] Unnamed NPC (ID: 17891735/0x01110197)->Render.Flags3 ^= 0x01
 34: 0x00D5 [0x59] UPDATE_ENTITY_DATA: LocalPlayer->Render.Flags0 |= 0x200000
 35: 0x00DC [0xBA] SET_ENTITY_POSITION(entity_id=LocalPlayer, pos_x=-293.627*, pos_z=209.893*, pos_y=-29.853*, direction=178.4°*)
 36: 0x00E9 [0xBA] SET_ENTITY_POSITION(entity_id=Nashu (ID: 17891728/0x01110190), pos_x=-289.527*, pos_z=210.621*, pos_y=-29.832*, direction=161.8°*)
 37: 0x00F6 [0xBA] SET_ENTITY_POSITION(entity_id=Brezit-Kyorgul (ID: 17891730/0x01110192), pos_x=-327.403*, pos_z=244.825*, pos_y=-28.931*, direction=346.6°*)
 38: 0x0103 [0xBA] SET_ENTITY_POSITION(entity_id=Mligni-Vorgut (ID: 17891731/0x01110193), pos_x=-324.534*, pos_z=247.468*, pos_y=-28.797*, direction=165.0°*)
 39: 0x0110 [0xBA] SET_ENTITY_POSITION(entity_id=Soraa Ishakal (ID: 17891729/0x01110191), pos_x=-328.187*, pos_z=248.018*, pos_y=-29.362*, direction=10.9°*)
 40: 0x011D [0xBA] SET_ENTITY_POSITION(entity_id=Unnamed NPC (ID: 17891732/0x01110194), pos_x=-320.453*, pos_z=219.270*, pos_y=-29.000*, direction=178.3°*)
 41: 0x012A [0xBA] SET_ENTITY_POSITION(entity_id=Unnamed NPC (ID: 17891733/0x01110195), pos_x=-315.161*, pos_z=214.587*, pos_y=-28.710*, direction=58.7°*)
 42: 0x0137 [0xBA] SET_ENTITY_POSITION(entity_id=Unnamed NPC (ID: 17891734/0x01110196), pos_x=-323.750*, pos_z=211.863*, pos_y=-28.929*, direction=308.2°*)
 43: 0x0144 [0xBA] SET_ENTITY_POSITION(entity_id=Unnamed NPC (ID: 17891735/0x01110197), pos_x=-316.435*, pos_z=204.863*, pos_y=-31.027*, direction=137.2°*)
 44: 0x0151 [0x80] LOAD_WAIT(entity=LocalPlayer)
 45: 0x0156 [0x80] LOAD_WAIT(entity=Nashu (ID: 17891728/0x01110190))
 46: 0x015B [0x80] LOAD_WAIT(entity=Brezit-Kyorgul (ID: 17891730/0x01110192))
 47: 0x0160 [0x80] LOAD_WAIT(entity=Mligni-Vorgut (ID: 17891731/0x01110193))
 48: 0x0165 [0x80] LOAD_WAIT(entity=Soraa Ishakal (ID: 17891729/0x01110191))
 49: 0x016A [0x80] LOAD_WAIT(entity=Unnamed NPC (ID: 17891732/0x01110194))
 50: 0x016F [0x80] LOAD_WAIT(entity=Unnamed NPC (ID: 17891733/0x01110195))
 51: 0x0174 [0x80] LOAD_WAIT(entity=Unnamed NPC (ID: 17891734/0x01110196))
 52: 0x0179 [0x80] LOAD_WAIT(entity=Unnamed NPC (ID: 17891735/0x01110197))
 53: 0x017E [0x4A] Brezit-Kyorgul (ID: 17891730/0x01110192) looks at Mligni-Vorgut (ID: 17891731/0x01110193)
 54: 0x0187 [0x4A] Soraa Ishakal (ID: 17891729/0x01110191) looks at Mligni-Vorgut (ID: 17891731/0x01110193)
 55: 0x0190 [0x27] REQ_SET(priority=0x05, entity_id=Nashu (ID: 17891728/0x01110190), tag_num=0x02)
 56: 0x0197 [0x45] LOAD_SCHEDULED_TASK: Load scheduler "s188" with entities [EventEntity, EventEntity], work=[626*, 0*]
 57: 0x01A8 [0x1C] WAIT(15* ticks)
 58: 0x01AB [0x45] LOAD_SCHEDULED_TASK: Load scheduler "fdi1" with entities [EventEntity, EventEntity], work=[200*, 0*]
 59: 0x01BC [0x55] WAIT_LOAD_SCHEDULER: Wait for scheduler "fdi1" with entities [EventEntity, EventEntity], work=200*
 60: 0x01CB [0x2B] Nashu (ID: 17891728/0x01110190) [7745*]:
    → "I knew our undying faith would show us the way, <Player>. Yes, Altana's righteous light is strong enough to pierce even the thickest of subterranean stones."
 61: 0x01D2 [0x23] WAIT_FOR_DIALOG_INTERACTION
 62: 0x01D3 [0x2A] GET_REQ_LEVEL(level=5, entity_id=Nashu (ID: 17891728/0x01110190))
 63: 0x01D9 [0x27] REQ_SET(priority=0x05, entity_id=Unnamed NPC (ID: 17891733/0x01110195), tag_num=0x02)
 64: 0x01E0 [0x52] END_LOAD_SCHEDULER: End scheduler "s188" with entities [EventEntity, EventEntity], work=626*
 65: 0x01EF [0x45] LOAD_SCHEDULED_TASK: Load scheduler "s189" with entities [EventEntity, EventEntity], work=[626*, 0*]
 66: 0x0200 [0x2B] Nashu (ID: 17891728/0x01110190) [7746*]:
    → "Oh my... With so many beady eyes and toothy grins, how are we ever to tell which belong to the Velkk we met earlier?"
 67: 0x0207 [0x23] WAIT_FOR_DIALOG_INTERACTION
 68: 0x0208 [0x66] LOAD_EXT_SCHEDULER_MAIN: Load scheduler "tlk0" with entities [Soraa Ishakal (ID: 17891729/0x01110191), Soraa Ishakal (ID: 17891729/0x01110191)], work=59*
 69: 0x0217 [0x52] END_LOAD_SCHEDULER: End scheduler "s189" with entities [EventEntity, EventEntity], work=626*
 70: 0x0226 [0x45] LOAD_SCHEDULED_TASK: Load scheduler "s190" with entities [EventEntity, EventEntity], work=[626*, 0*]
 71: 0x0237 [0x2B] Nashu (ID: 17891728/0x01110190) [7747*]:
    → "Aha, it is easier than I thought when we have witches to direct us!"
 72: 0x023E [0x23] WAIT_FOR_DIALOG_INTERACTION
 73: 0x023F [0x52] END_LOAD_SCHEDULER: End scheduler "s190" with entities [EventEntity, EventEntity], work=626*
 74: 0x024E [0x45] LOAD_SCHEDULED_TASK: Load scheduler "s191" with entities [EventEntity, EventEntity], work=[626*, 0*]
 75: 0x025F [0x66] LOAD_EXT_SCHEDULER_MAIN: Load scheduler "tlk1" with entities [Soraa Ishakal (ID: 17891729/0x01110191), Soraa Ishakal (ID: 17891729/0x01110191)], work=59*
 76: 0x026E [0x2B] Nashu (ID: 17891728/0x01110190) [7748*]:
    → "That must be the one, <Player>!"
 77: 0x0275 [0x23] WAIT_FOR_DIALOG_INTERACTION
 78: 0x0276 [0x6E] Nashu (ID: 17891728/0x01110190) uses emote 21*
 79: 0x027D [0x99] Wait for Nashu (ID: 17891728/0x01110190) animation to complete
 80: 0x0282 [0x52] END_LOAD_SCHEDULER: End scheduler "s191" with entities [EventEntity, EventEntity], work=626*
 81: 0x0291 [0x45] LOAD_SCHEDULED_TASK: Load scheduler "s192" with entities [EventEntity, EventEntity], work=[626*, 0*]
 82: 0x02A2 [0x2B] Nashu (ID: 17891728/0x01110190) [7749*]:
    → "Oh hohoho..."
 83: 0x02A9 [0x23] WAIT_FOR_DIALOG_INTERACTION
 84: 0x02AA [0x52] END_LOAD_SCHEDULER: End scheduler "s192" with entities [EventEntity, EventEntity], work=626*
 85: 0x02B9 [0x45] LOAD_SCHEDULED_TASK: Load scheduler "s193" with entities [EventEntity, EventEntity], work=[626*, 0*]
 86: 0x02CA [0x2B] Nashu (ID: 17891728/0x01110190) [7750*]:
    → "Feast your eyes upon the one who can barely keep from drooling on himself! That's Mligni-Vorgut, Gramk-Droog's new prodigy."
 87: 0x02D1 [0x23] WAIT_FOR_DIALOG_INTERACTION
 88: 0x02D2 [0x52] END_LOAD_SCHEDULER: End scheduler "s193" with entities [EventEntity, EventEntity], work=626*
 89: 0x02E1 [0x45] LOAD_SCHEDULED_TASK: Load scheduler "s194" with entities [EventEntity, EventEntity], work=[626*, 0*]
 90: 0x02F2 [0x6E] Nashu (ID: 17891728/0x01110190) uses emote 6*
 91: 0x02F9 [0x99] Wait for Nashu (ID: 17891728/0x01110190) animation to complete
 92: 0x02FE [0x2B] Nashu (ID: 17891728/0x01110190) [7751*]:
    → "Ugh, Altana truly works in mysterious ways... I was hoping to blast these creatures back to the Great Expedition with some sorcery, but I can't with him here."
 93: 0x0305 [0x23] WAIT_FOR_DIALOG_INTERACTION
 94: 0x0306 [0x66] LOAD_EXT_SCHEDULER_MAIN: Load scheduler "thk1" with entities [Nashu (ID: 17891728/0x01110190), Nashu (ID: 17891728/0x01110190)], work=9*
 95: 0x0315 [0x2B] Nashu (ID: 17891728/0x01110190) [7752*]:
    → "We have to find a way to separate the Velkk we need from Mligni-Vorgut and his cascade of sputum..."
 96: 0x031C [0x23] WAIT_FOR_DIALOG_INTERACTION
 97: 0x031D [0x52] END_LOAD_SCHEDULER: End scheduler "s194" with entities [EventEntity, EventEntity], work=626*
 98: 0x032C [0x45] LOAD_SCHEDULED_TASK: Load scheduler "s195" with entities [EventEntity, EventEntity], work=[626*, 0*]
 99: 0x033D [0x66] LOAD_EXT_SCHEDULER_MAIN: Load scheduler "thk2" with entities [Nashu (ID: 17891728/0x01110190), Nashu (ID: 17891728/0x01110190)], work=9*
100: 0x034C [0x2B] Nashu (ID: 17891728/0x01110190) [7753*]:
    → "Aha! Why don't we divide and conquer?"
101: 0x0353 [0x1C] WAIT(60* ticks)
102: 0x0356 [0x4A] Nashu (ID: 17891728/0x01110190) looks at LocalPlayer
103: 0x035F [0x1C] WAIT(30* ticks)
104: 0x0362 [0x4A] LocalPlayer looks at Nashu (ID: 17891728/0x01110190)
105: 0x036B [0x23] WAIT_FOR_DIALOG_INTERACTION
106: 0x036C [0x6E] Nashu (ID: 17891728/0x01110190) uses emote 7*
107: 0x0373 [0x99] Wait for Nashu (ID: 17891728/0x01110190) animation to complete
108: 0x0378 [0x2B] Nashu (ID: 17891728/0x01110190) [7754*]:
    → "Do you think you could...uh...thin the herd a bit? I think I might be able to bag the bulb if there were fewer eyes watching."
109: 0x037F [0x23] WAIT_FOR_DIALOG_INTERACTION
110: 0x0380 [0x52] END_LOAD_SCHEDULER: End scheduler "s195" with entities [EventEntity, EventEntity], work=626*
111: 0x038F [0x45] LOAD_SCHEDULED_TASK: Load scheduler "s196" with entities [EventEntity, EventEntity], work=[626*, 0*]
112: 0x03A0 [0x66] LOAD_EXT_SCHEDULER_MAIN: Load scheduler "tlk0" with entities [Nashu (ID: 17891728/0x01110190), Nashu (ID: 17891728/0x01110190)], work=9*
113: 0x03AF [0x03] Work_Zone[2] = 5*
114: 0x03B4 [0x2B] Nashu (ID: 17891728/0x01110190) [7755*]:
    → "Hmmm... I think $0 should do the trick...though a few more certainly couldn't hurt."
115: 0x03BB [0x23] WAIT_FOR_DIALOG_INTERACTION
116: 0x03BC [0x2B] Nashu (ID: 17891728/0x01110190) [7756*]:
    → "My apologies that I am unable to craft a more foolproof plan, but I was not blessed with the brightest of minds. Best of luck, <Player>!"
117: 0x03C3 [0x23] WAIT_FOR_DIALOG_INTERACTION
118: 0x03C4 [0x45] LOAD_SCHEDULED_TASK: Load scheduler "fdo1" with entities [EventEntity, EventEntity], work=[200*, 0*]
119: 0x03D5 [0x55] WAIT_LOAD_SCHEDULER: Wait for scheduler "fdo1" with entities [EventEntity, EventEntity], work=200*
120: 0x03E4 [0x52] END_LOAD_SCHEDULER: End scheduler "s196" with entities [EventEntity, EventEntity], work=626*
121: 0x03F3 [0x46] CAMERA_CONTROL: Restore default settings
122: 0x03F5 [0x45] LOAD_SCHEDULED_TASK: Load scheduler "fdi2" with entities [EventEntity, EventEntity], work=[200*, 0*]
123: 0x0406 [0x21] END_EVENT
124: 0x0407 [0x00] END_REQSTACK()
```

### Event 15

#### Metadata

| Field        | Value     |
|--------------|-----------|
| Entrypoint   | 0x0408    |
| Data Size    | 266 bytes |
| Instructions | 33        |

```
      00 01 02 03 04 05 06 07  08 09 0A 0B 0C 0D 0E 0F
      -- -- -- -- -- -- -- --  -- -- -- -- -- -- -- --
0400:                          42 45 00 80 F8 FF FF 7F          BE......
0410: F8 FF FF 7F 66 64 6F 31  01 80 55 00 80 F8 FF FF  ....fdo1..U.....
0420: 7F F8 FF FF 7F 66 64 6F  31 46 01 38 02 80 2F 00  .....fdo1F.8../.
0430: 90 01 11 01 4E 00 90 01  11 01 92 01 90 01 11 01  ....N...........
0440: 94 01 F0 FF FF 7F 94 01  90 01 11 01 BA F0 FF FF  ................
0450: 7F 03 80 04 80 05 80 06  80 BA 90 01 11 01 3D 80  ..............=.
0460: 3E 80 3F 80 06 80 80 F0  FF FF 7F 80 90 01 11 01  >.?.............
0470: 4A 90 01 11 01 F0 FF FF  7F 4A F0 FF FF 7F 90 01  J........J......
0480: 11 01 1C 37 80 45 27 80  F8 FF FF 7F F8 FF FF 7F  ...7.E'.........
0490: 73 31 39 35 01 80 1C 28  80 45 00 80 F8 FF FF 7F  s195...(.E......
04A0: F8 FF FF 7F 66 64 69 30  01 80 66 33 80 90 01 11  ....fdi0..f3....
04B0: 01 90 01 11 01 74 6C 6B  30 03 02 10 3A 80 2B 90  .....tlk0...:.+.
04C0: 01 11 01 40 80 23 2B 90  01 11 01 3C 80 23 45 00  ...@.#+....<.#E.
04D0: 80 F8 FF FF 7F F8 FF FF  7F 66 64 6F 31 01 80 55  .........fdo1..U
04E0: 00 80 F8 FF FF 7F F8 FF  FF 7F 66 64 6F 31 52 27  ..........fdo1R'
04F0: 80 F8 FF FF 7F F8 FF FF  7F 73 31 39 35 46 00 45  .........s195F.E
0500: 00 80 F8 FF FF 7F F8 FF  FF 7F 66 64 69 32 01 80  ..........fdi2..
0510: 21 00                                             !.              
```

#### Opcodes

```
  0: 0x0408 [0x42] SET_CLI_EVENT_CANCEL_DATA()
  1: 0x0409 [0x45] LOAD_SCHEDULED_TASK: Load scheduler "fdo1" with entities [EventEntity, EventEntity], work=[200*, 0*]
  2: 0x041A [0x55] WAIT_LOAD_SCHEDULER: Wait for scheduler "fdo1" with entities [EventEntity, EventEntity], work=200*
  3: 0x0429 [0x46] CAMERA_CONTROL: Disable user control
  4: 0x042B [0x38] SET_CLIENT_EVENT_MODE(mode=19*)
  5: 0x042E [0x2F] Nashu (ID: 17891728/0x01110190)->Render.Flags0 &= ~0x80000 // Bit 19
  6: 0x0434 [0x4E] SET_ENTITY_HIDE_FLAG: Show Nashu (ID: 17891728/0x01110190)
  7: 0x043A [0x92] Nashu (ID: 17891728/0x01110190)->Render.Flags3 ^= 0x01
  8: 0x0440 [0x94] LocalPlayer->Render.Flags3 ^= 0x01
  9: 0x0446 [0x94] Nashu (ID: 17891728/0x01110190)->Render.Flags3 ^= 0x01
 10: 0x044C [0xBA] SET_ENTITY_POSITION(entity_id=LocalPlayer, pos_x=-293.627*, pos_z=209.893*, pos_y=-29.853*, direction=178.4°*)
 11: 0x0459 [0xBA] SET_ENTITY_POSITION(entity_id=Nashu (ID: 17891728/0x01110190), pos_x=-293.321*, pos_z=207.905*, pos_y=-30.009*, direction=178.4°*)
 12: 0x0466 [0x80] LOAD_WAIT(entity=LocalPlayer)
 13: 0x046B [0x80] LOAD_WAIT(entity=Nashu (ID: 17891728/0x01110190))
 14: 0x0470 [0x4A] Nashu (ID: 17891728/0x01110190) looks at LocalPlayer
 15: 0x0479 [0x4A] LocalPlayer looks at Nashu (ID: 17891728/0x01110190)
 16: 0x0482 [0x1C] WAIT(30* ticks)
 17: 0x0485 [0x45] LOAD_SCHEDULED_TASK: Load scheduler "s195" with entities [EventEntity, EventEntity], work=[626*, 0*]
 18: 0x0496 [0x1C] WAIT(15* ticks)
 19: 0x0499 [0x45] LOAD_SCHEDULED_TASK: Load scheduler "fdi0" with entities [EventEntity, EventEntity], work=[200*, 0*]
 20: 0x04AA [0x66] LOAD_EXT_SCHEDULER_MAIN: Load scheduler "tlk0" with entities [Nashu (ID: 17891728/0x01110190), Nashu (ID: 17891728/0x01110190)], work=9*
 21: 0x04B9 [0x03] Work_Zone[2] = 5*
 22: 0x04BE [0x2B] Nashu (ID: 17891728/0x01110190) [7757*]:
    → "You will need to slay $0 of the Velkk that dirty this area so I can sneak in and take back the bulb...for the greater good!"
 23: 0x04C5 [0x23] WAIT_FOR_DIALOG_INTERACTION
 24: 0x04C6 [0x2B] Nashu (ID: 17891728/0x01110190) [7756*]:
    → "My apologies that I am unable to craft a more foolproof plan, but I was not blessed with the brightest of minds. Best of luck, <Player>!"
 25: 0x04CD [0x23] WAIT_FOR_DIALOG_INTERACTION
 26: 0x04CE [0x45] LOAD_SCHEDULED_TASK: Load scheduler "fdo1" with entities [EventEntity, EventEntity], work=[200*, 0*]
 27: 0x04DF [0x55] WAIT_LOAD_SCHEDULER: Wait for scheduler "fdo1" with entities [EventEntity, EventEntity], work=200*
 28: 0x04EE [0x52] END_LOAD_SCHEDULER: End scheduler "s195" with entities [EventEntity, EventEntity], work=626*
 29: 0x04FD [0x46] CAMERA_CONTROL: Restore default settings
 30: 0x04FF [0x45] LOAD_SCHEDULED_TASK: Load scheduler "fdi2" with entities [EventEntity, EventEntity], work=[200*, 0*]
 31: 0x0510 [0x21] END_EVENT
 32: 0x0511 [0x00] END_REQSTACK()
```

### Event 16

#### Metadata

| Field        | Value      |
|--------------|------------|
| Entrypoint   | 0x0512     |
| Data Size    | 3377 bytes |
| Instructions | 369        |

```
      00 01 02 03 04 05 06 07  08 09 0A 0B 0C 0D 0E 0F
      -- -- -- -- -- -- -- --  -- -- -- -- -- -- -- --
0510:       42 45 00 80 F8 FF  FF 7F F8 FF FF 7F 66 64    BE..........fd
0520: 6F 31 01 80 55 00 80 F8  FF FF 7F F8 FF FF 7F 66  o1..U..........f
0530: 64 6F 31 46 01 38 02 80  2F 00 90 01 11 01 2F 00  do1F.8../...../.
0540: 92 01 11 01 2F 00 93 01  11 01 2F 00 91 01 11 01  ..../...../.....
0550: 2F 00 94 01 11 01 2F 00  95 01 11 01 2F 00 96 01  /...../...../...
0560: 11 01 2F 00 97 01 11 01  4E 00 90 01 11 01 4E 00  ../.....N.....N.
0570: 92 01 11 01 4E 00 93 01  11 01 4E 00 91 01 11 01  ....N.....N.....
0580: 4E 00 94 01 11 01 4E 00  95 01 11 01 4E 00 96 01  N.....N.....N...
0590: 11 01 4E 00 97 01 11 01  92 01 90 01 11 01 92 01  ..N.............
05A0: 92 01 11 01 92 01 93 01  11 01 92 01 91 01 11 01  ................
05B0: 94 01 90 01 11 01 94 01  92 01 11 01 94 01 93 01  ................
05C0: 11 01 94 01 91 01 11 01  94 01 94 01 11 01 94 01  ................
05D0: 95 01 11 01 94 01 96 01  11 01 94 01 97 01 11 01  ................
05E0: 59 05 95 01 11 01 01 BA  90 01 11 01 41 80 42 80  Y...........A.B.
05F0: 43 80 44 80 BA 92 01 11  01 0B 80 0C 80 0D 80 0E  C.D.............
0600: 80 BA 93 01 11 01 0F 80  10 80 11 80 12 80 BA 91  ................
0610: 01 11 01 45 80 46 80 47  80 48 80 BA 94 01 11 01  ...E.F.G.H......
0620: 49 80 4A 80 4B 80 4C 80  BA 95 01 11 01 4D 80 4E  I.J.K.L......M.N
0630: 80 4F 80 50 80 BA 96 01  11 01 51 80 52 80 53 80  .O.P......Q.R.S.
0640: 54 80 BA 97 01 11 01 55  80 56 80 57 80 58 80 80  T......U.V.W.X..
0650: 90 01 11 01 80 92 01 11  01 80 93 01 11 01 80 91  ................
0660: 01 11 01 80 94 01 11 01  80 95 01 11 01 80 96 01  ................
0670: 11 01 80 97 01 11 01 4A  92 01 11 01 93 01 11 01  .......J........
0680: 4A 91 01 11 01 93 01 11  01 2C 95 01 11 01 95 01  J........,......
0690: 11 01 63 6F 72 70 2C 96  01 11 01 96 01 11 01 63  ..corp,........c
06A0: 6F 72 70 2C 97 01 11 01  97 01 11 01 63 6F 72 70  orp,........corp
06B0: 5C 00 59 80 5C 01 59 80  9A 27 05 94 01 11 01 03  \.Y.\.Y..'......
06C0: 1C 37 80 45 27 80 F8 FF  FF 7F F8 FF FF 7F 73 31  .7.E'.........s1
06D0: 39 37 01 80 1C 28 80 45  00 80 F8 FF FF 7F F8 FF  97...(.E........
06E0: FF 7F 66 64 69 31 01 80  55 00 80 F8 FF FF 7F F8  ..fdi1..U.......
06F0: FF FF 7F 66 64 69 31 2A  05 94 01 11 01 52 27 80  ...fdi1*.....R'.
0700: F8 FF FF 7F F8 FF FF 7F  73 31 39 37 45 27 80 F8  ........s197E'..
0710: FF FF 7F F8 FF FF 7F 73  31 39 38 01 80 45 27 80  .......s198..E'.
0720: F8 FF FF 7F F8 FF FF 7F  62 6C 6F 6E 01 80 4A 94  ........blon..J.
0730: 01 11 01 95 01 11 01 1C  5A 80 5B 5B 80 94 01 11  ........Z.[[....
0740: 01 94 01 11 01 68 6F 75  30 1C 5C 80 52 27 80 F8  .....hou0.\.R'..
0750: FF FF 7F F8 FF FF 7F 73  31 39 38 45 27 80 F8 FF  .......s198E'...
0760: FF 7F F8 FF FF 7F 73 31  39 39 01 80 1C 5D 80 52  ......s199...].R
0770: 27 80 F8 FF FF 7F F8 FF  FF 7F 73 31 39 39 45 27  '.........s199E'
0780: 80 F8 FF FF 7F F8 FF FF  7F 73 32 30 30 01 80 45  .........s200..E
0790: 27 80 F8 FF FF 7F F8 FF  FF 7F 62 6C 6F 66 01 80  '.........blof..
07A0: 4B 92 01 11 01 5E 80 2B  92 01 11 01 5F 80 23 55  K....^.+...._.#U
07B0: 27 80 F8 FF FF 7F F8 FF  FF 7F 73 32 30 30 45 27  '.........s200E'
07C0: 80 F8 FF FF 7F F8 FF FF  7F 73 32 30 31 01 80 2B  .........s201..+
07D0: 93 01 11 01 60 80 23 6B  69 64 6C 30 94 01 11 01  ....`.#kidl0....
07E0: 52 27 80 F8 FF FF 7F F8  FF FF 7F 73 32 30 31 45  R'.........s201E
07F0: 27 80 F8 FF FF 7F F8 FF  FF 7F 73 32 30 32 01 80  '.........s202..
0800: 4A 92 01 11 01 93 01 11  01 2B 92 01 11 01 61 80  J........+....a.
0810: 23 66 2B 80 91 01 11 01  91 01 11 01 74 6C 6B 30  #f+.........tlk0
0820: 2B 91 01 11 01 62 80 23  66 2B 80 91 01 11 01 91  +....b.#f+......
0830: 01 11 01 74 6C 6B 31 52  27 80 F8 FF FF 7F F8 FF  ...tlk1R'.......
0840: FF 7F 73 32 30 32 45 27  80 F8 FF FF 7F F8 FF FF  ..s202E'........
0850: 7F 73 32 30 33 01 80 27  05 92 01 11 01 03 1C 63  .s203..'.......c
0860: 80 27 05 91 01 11 01 03  1C 64 80 5B 65 80 90 01  .'.......d.[e...
0870: 11 01 90 01 11 01 6E 6B  69 30 1C 5C 80 52 27 80  ......nki0.\.R'.
0880: F8 FF FF 7F F8 FF FF 7F  73 32 30 33 45 27 80 F8  ........s203E'..
0890: FF FF 7F F8 FF FF 7F 73  32 30 34 01 80 7A 00 92  .......s204..z..
08A0: 01 11 01 7A 00 91 01 11  01 BA 92 01 11 01 66 80  ...z..........f.
08B0: 67 80 53 80 68 80 BA 91  01 11 01 69 80 6A 80 6B  g.S.h......i.j.k
08C0: 80 6C 80 27 05 92 01 11  01 04 1C 28 80 27 05 91  .l.'.......(.'..
08D0: 01 11 01 04 4E 01 93 01  11 01 1C 6D 80 52 27 80  ....N......m.R'.
08E0: F8 FF FF 7F F8 FF FF 7F  73 32 30 34 45 27 80 F8  ........s204E'..
08F0: FF FF 7F F8 FF FF 7F 73  32 30 35 01 80 6B 69 64  .......s205..kid
0900: 6C 30 90 01 11 01 BA 90  01 11 01 6E 80 6F 80 19  l0.........n.o..
0910: 80 59 80 66 33 80 90 01  11 01 90 01 11 01 73 68  .Y.f3.........sh
0920: 61 30 1C 64 80 5D 01 80  70 80 52 27 80 F8 FF FF  a0.d.]..p.R'....
0930: 7F F8 FF FF 7F 73 32 30  35 45 27 80 F8 FF FF 7F  .....s205E'.....
0940: F8 FF FF 7F 73 32 30 36  01 80 1C 28 80 BA 90 01  ....s206...(....
0950: 11 01 71 80 72 80 73 80  74 80 2B 92 01 11 01 5F  ..q.r.s.t.+...._
0960: 80 23 5C 00 75 80 5C 01  75 80 9A 52 27 80 F8 FF  .#\.u.\.u..R'...
0970: FF 7F F8 FF FF 7F 73 32  30 36 45 27 80 F8 FF FF  ......s206E'....
0980: 7F F8 FF FF 7F 73 32 30  37 01 80 4A 92 01 11 01  .....s207..J....
0990: 91 01 11 01 2B 92 01 11  01 76 80 23 66 33 80 90  ....+....v.#f3..
09A0: 01 11 01 90 01 11 01 73  68 61 31 1C 37 80 52 27  .......sha1.7.R'
09B0: 80 F8 FF FF 7F F8 FF FF  7F 73 32 30 37 45 27 80  .........s207E'.
09C0: F8 FF FF 7F F8 FF FF 7F  73 32 30 38 01 80 4A 92  ........s208..J.
09D0: 01 11 01 90 01 11 01 1C  63 80 5B 5B 80 92 01 11  ........c.[[....
09E0: 01 92 01 11 01 6F 6E 6F  30 2B 92 01 11 01 77 80  .....ono0+....w.
09F0: 1C 5D 80 6E 90 01 11 01  78 80 99 90 01 11 01 52  .].n....x......R
0A00: 27 80 F8 FF FF 7F F8 FF  FF 7F 73 32 30 38 45 27  '.........s208E'
0A10: 80 F8 FF FF 7F F8 FF FF  7F 73 32 30 39 01 80 45  .........s209..E
0A20: 27 80 F8 FF FF 7F F8 FF  FF 7F 62 6C 6F 6E 01 80  '.........blon..
0A30: 27 05 90 01 11 01 05 2B  90 01 11 01 79 80 23 6E  '......+....y.#n
0A40: 91 01 11 01 2E 80 99 91  01 11 01 52 27 80 F8 FF  ...........R'...
0A50: FF 7F F8 FF FF 7F 73 32  30 39 45 27 80 F8 FF FF  ......s209E'....
0A60: 7F F8 FF FF 7F 73 32 31  30 01 80 2B 91 01 11 01  .....s210..+....
0A70: 7A 80 23 52 27 80 F8 FF  FF 7F F8 FF FF 7F 73 32  z.#R'.........s2
0A80: 31 30 45 27 80 F8 FF FF  7F F8 FF FF 7F 73 32 31  10E'.........s21
0A90: 31 01 80 5B 5B 80 92 01  11 01 92 01 11 01 68 6F  1..[[.........ho
0AA0: 75 30 6B 69 64 6C 30 95  01 11 01 6B 69 64 6C 30  u0kidl0....kidl0
0AB0: 96 01 11 01 6B 69 64 6C  30 97 01 11 01 BA 95 01  ....kidl0.......
0AC0: 11 01 7B 80 7C 80 7D 80  7E 80 BA 96 01 11 01 7F  ..{.|.}.~.......
0AD0: 80 80 80 81 80 82 80 BA  97 01 11 01 83 80 84 80  ................
0AE0: 85 80 86 80 1C 5D 80 52  27 80 F8 FF FF 7F F8 FF  .....].R'.......
0AF0: FF 7F 73 32 31 31 45 27  80 F8 FF FF 7F F8 FF FF  ..s211E'........
0B00: 7F 73 32 31 32 01 80 4A  95 01 11 01 92 01 11 01  .s212..J........
0B10: 1C 5C 80 4A 94 01 11 01  92 01 11 01 4A 91 01 11  .\.J........J...
0B20: 01 90 01 11 01 1C 37 80  6B 69 64 6C 30 92 01 11  ......7.kidl0...
0B30: 01 52 27 80 F8 FF FF 7F  F8 FF FF 7F 73 32 31 32  .R'.........s212
0B40: 45 27 80 F8 FF FF 7F F8  FF FF 7F 73 32 31 33 01  E'.........s213.
0B50: 80 4A 96 01 11 01 92 01  11 01 1C 5C 80 4A 97 01  .J.........\.J..
0B60: 11 01 92 01 11 01 BA 94  01 11 01 4D 80 4E 80 4F  ...........M.N.O
0B70: 80 50 80 27 05 94 01 11  01 04 1C 37 80 6E 90 01  .P.'.......7.n..
0B80: 11 01 2E 80 99 90 01 11  01 52 27 80 F8 FF FF 7F  .........R'.....
0B90: F8 FF FF 7F 73 32 31 33  45 27 80 F8 FF FF 7F F8  ....s213E'......
0BA0: FF FF 7F 73 32 31 34 01  80 4A 95 01 11 01 90 01  ...s214..J......
0BB0: 11 01 BA 97 01 11 01 87  80 88 80 89 80 8A 80 27  ...............'
0BC0: 05 97 01 11 01 03 2B 90  01 11 01 8B 80 23 55 27  ......+......#U'
0BD0: 80 F8 FF FF 7F F8 FF FF  7F 73 32 31 34 6E 91 01  .........s214n..
0BE0: 11 01 01 80 99 91 01 11  01 45 27 80 F8 FF FF 7F  .........E'.....
0BF0: F8 FF FF 7F 73 32 31 35  01 80 45 27 80 F8 FF FF  ....s215..E'....
0C00: 7F F8 FF FF 7F 62 6C 6F  66 01 80 2B 91 01 11 01  .....blof..+....
0C10: 8C 80 23 5B 8D 80 92 01  11 01 92 01 11 01 62 74  ..#[..........bt
0C20: 6C 30 52 27 80 F8 FF FF  7F F8 FF FF 7F 73 32 31  l0R'.........s21
0C30: 35 45 27 80 F8 FF FF 7F  F8 FF FF 7F 73 32 31 36  5E'.........s216
0C40: 01 80 45 27 80 F8 FF FF  7F F8 FF FF 7F 62 6C 6F  ..E'.........blo
0C50: 6E 01 80 2B 92 01 11 01  8E 80 1C 36 80 52 27 80  n..+.......6.R'.
0C60: F8 FF FF 7F F8 FF FF 7F  73 32 31 36 45 27 80 F8  ........s216E'..
0C70: FF FF 7F F8 FF FF 7F 73  32 31 37 01 80 45 27 80  .......s217..E'.
0C80: F8 FF FF 7F F8 FF FF 7F  62 6C 6F 66 01 80 73 8F  ........blof..s.
0C90: 80 91 01 11 01 F8 FF FF  7F 2B 91 01 11 01 90 80  .........+......
0CA0: 1C 5D 80 81 00 90 01 11  01 66 91 80 90 01 11 01  .].......f......
0CB0: 90 01 11 01 6D 61 62 30  52 27 80 F8 FF FF 7F F8  ....mab0R'......
0CC0: FF FF 7F 73 32 31 37 45  27 80 F8 FF FF 7F F8 FF  ...s217E'.......
0CD0: FF 7F 73 32 31 38 01 80  45 27 80 F8 FF FF 7F F8  ..s218..E'......
0CE0: FF FF 7F 62 6C 6F 6E 01  80 2B 90 01 11 01 92 80  ...blon..+......
0CF0: 1C 93 80 5D 01 80 70 80  45 94 80 F0 FF FF 7F F0  ...]..p.E.......
0D00: FF FF 7F 77 68 6F 30 01  80 55 94 80 F0 FF FF 7F  ...who0..U......
0D10: F0 FF FF 7F 77 68 6F 30  52 27 80 F8 FF FF 7F F8  ....who0R'......
0D20: FF FF 7F 73 32 31 38 45  27 80 F8 FF FF 7F F8 FF  ...s218E'.......
0D30: FF 7F 62 6C 6F 66 01 80  2F 00 98 01 11 01 92 01  ..blof../.......
0D40: 98 01 11 01 94 01 F0 FF  FF 7F 94 01 98 01 11 01  ................
0D50: 59 05 F0 FF FF 7F 01 BA  F0 FF FF 7F 03 80 04 80  Y...............
0D60: 05 80 06 80 BA 98 01 11  01 95 80 96 80 97 80 98  ................
0D70: 80 BA 90 01 11 01 3D 80  3E 80 3F 80 99 80 80 F0  ......=.>.?.....
0D80: FF FF 7F 80 90 01 11 01  4A F0 FF FF 7F 90 01 11  ........J.......
0D90: 01 1C 70 80 45 27 80 F8  FF FF 7F F8 FF FF 7F 73  ..p.E'.........s
0DA0: 32 31 39 01 80 1C 28 80  45 94 80 F0 FF FF 7F F0  219...(.E.......
0DB0: FF FF 7F 77 68 69 31 01  80 55 94 80 F0 FF FF 7F  ...whi1..U......
0DC0: F0 FF FF 7F 77 68 69 31  7C 00 90 01 11 01 2B 90  ....whi1|.....+.
0DD0: 01 11 01 9A 80 23 7C 01  90 01 11 01 52 27 80 F8  .....#|.....R'..
0DE0: FF FF 7F F8 FF FF 7F 73  32 31 39 45 27 80 F8 FF  .......s219E'...
0DF0: FF 7F F8 FF FF 7F 73 32  32 30 01 80 81 01 90 01  ......s220......
0E00: 11 01 66 91 80 90 01 11  01 90 01 11 01 6D 61 62  ..f..........mab
0E10: 31 1C 37 80 2B 90 01 11  01 9B 80 23 52 27 80 F8  1.7.+......#R'..
0E20: FF FF 7F F8 FF FF 7F 73  32 32 30 02 87 7F 3A 80  .......s220...:.
0E30: 80 47 0E 45 27 80 F8 FF  FF 7F F8 FF FF 7F 73 32  .G.E'.........s2
0E40: 32 32 01 80 01 74 0E 02  87 7F 31 80 80 63 0E 45  22...t....1..c.E
0E50: 27 80 F8 FF FF 7F F8 FF  FF 7F 73 32 32 32 01 80  '.........s222..
0E60: 01 74 0E 45 27 80 F8 FF  FF 7F F8 FF FF 7F 73 32  .t.E'.........s2
0E70: 32 31 01 80 27 05 F0 FF  FF 7F 02 1C 5A 80 27 05  21..'.......Z.'.
0E80: F0 FF FF 7F 03 6B 69 64  6C 30 90 01 11 01 1C 93  .....kidl0......
0E90: 80 52 27 80 F8 FF FF 7F  F8 FF FF 7F 73 32 32 31  .R'.........s221
0EA0: 52 27 80 F8 FF FF 7F F8  FF FF 7F 73 32 32 32 45  R'.........s222E
0EB0: 27 80 F8 FF FF 7F F8 FF  FF 7F 73 32 32 33 01 80  '.........s223..
0EC0: 2B 90 01 11 01 9C 80 23  66 33 80 90 01 11 01 90  +......#f3......
0ED0: 01 11 01 74 68 6B 31 4E  00 98 01 11 01 2B 90 01  ...thk1N.....+..
0EE0: 11 01 9D 80 23 5C 00 59  80 5C 01 59 80 9A 27 05  ....#\.Y.\.Y..'.
0EF0: 98 01 11 01 02 1C 28 80  52 27 80 F8 FF FF 7F F8  ......(.R'......
0F00: FF FF 7F 73 32 32 33 45  27 80 F8 FF FF 7F F8 FF  ...s223E'.......
0F10: FF 7F 73 32 32 34 01 80  66 33 80 90 01 11 01 90  ..s224..f3......
0F20: 01 11 01 74 68 6B 32 2B  98 01 11 01 9E 80 23 4A  ...thk2+......#J
0F30: 90 01 11 01 98 01 11 01  2B 90 01 11 01 9F 80 23  ........+......#
0F40: 2A 05 90 01 11 01 4A F0  FF FF 7F 98 01 11 01 52  *.....J........R
0F50: 27 80 F8 FF FF 7F F8 FF  FF 7F 73 32 32 34 45 27  '.........s224E'
0F60: 80 F8 FF FF 7F F8 FF FF  7F 73 32 32 35 01 80 66  .........s225..f
0F70: 78 80 98 01 11 01 98 01  11 01 74 6C 6B 30 2B 98  x.........tlk0+.
0F80: 01 11 01 A0 80 23 66 78  80 98 01 11 01 98 01 11  .....#fx........
0F90: 01 74 6C 6B 31 52 27 80  F8 FF FF 7F F8 FF FF 7F  .tlk1R'.........
0FA0: 73 32 32 35 45 27 80 F8  FF FF 7F F8 FF FF 7F 73  s225E'.........s
0FB0: 32 32 36 01 80 79 00 98  01 11 01 F0 FF FF 7F 2B  226..y.........+
0FC0: 98 01 11 01 A1 80 23 66  33 80 90 01 11 01 90 01  ......#f3.......
0FD0: 11 01 74 6C 6B 30 2B 90  01 11 01 A2 80 23 66 33  ..tlk0+......#f3
0FE0: 80 90 01 11 01 90 01 11  01 74 6C 6B 31 79 00 98  .........tlk1y..
0FF0: 01 11 01 90 01 11 01 2B  98 01 11 01 A3 80 23 52  .......+......#R
1000: 27 80 F8 FF FF 7F F8 FF  FF 7F 73 32 32 36 45 27  '.........s226E'
1010: 80 F8 FF FF 7F F8 FF FF  7F 73 32 32 37 01 80 66  .........s227..f
1020: 78 80 98 01 11 01 98 01  11 01 74 68 6B 31 2B 98  x.........thk1+.
1030: 01 11 01 A4 80 23 2B 98  01 11 01 A5 80 23 52 27  .....#+......#R'
1040: 80 F8 FF FF 7F F8 FF FF  7F 73 32 32 37 45 27 80  .........s227E'.
1050: F8 FF FF 7F F8 FF FF 7F  73 32 32 38 01 80 66 78  ........s228..fx
1060: 80 98 01 11 01 98 01 11  01 74 68 6B 32 2B 98 01  .........thk2+..
1070: 11 01 A6 80 23 6E 90 01  11 01 38 80 99 90 01 11  ....#n....8.....
1080: 01 2B 90 01 11 01 A7 80  23 52 27 80 F8 FF FF 7F  .+......#R'.....
1090: F8 FF FF 7F 73 32 32 38  45 27 80 F8 FF FF 7F F8  ....s228E'......
10A0: FF FF 7F 73 32 32 39 01  80 BB 31 80 98 01 11 01  ...s229...1.....
10B0: 98 01 11 01 6D 61 69 6E  01 80 1C A8 80 52 27 80  ....main.....R'.
10C0: F8 FF FF 7F F8 FF FF 7F  73 32 32 39 45 27 80 F8  ........s229E'..
10D0: FF FF 7F F8 FF FF 7F 73  32 33 30 01 80 4A 90 01  .......s230..J..
10E0: 11 01 F0 FF FF 7F 1C 37  80 4A F0 FF FF 7F 90 01  .......7.J......
10F0: 11 01 2B 90 01 11 01 A9  80 23 66 AA 80 90 01 11  ..+......#f.....
1100: 01 90 01 11 01 70 61 73  30 2B 90 01 11 01 AB 80  .....pas0+......
1110: 23 53 90 01 11 01 90 01  11 01 70 61 73 30 52 27  #S........pas0R'
1120: 80 F8 FF FF 7F F8 FF FF  7F 73 32 33 30 45 27 80  .........s230E'.
1130: F8 FF FF 7F F8 FF FF 7F  73 32 33 31 01 80 6E 90  ........s231..n.
1140: 01 11 01 38 80 99 90 01  11 01 2B 90 01 11 01 AC  ...8......+.....
1150: 80 23 6E 90 01 11 01 31  80 99 90 01 11 01 2B 90  .#n....1......+.
1160: 01 11 01 AD 80 23 52 27  80 F8 FF FF 7F F8 FF FF  .....#R'........
1170: 7F 73 32 33 31 45 27 80  F8 FF FF 7F F8 FF FF 7F  .s231E'.........
1180: 73 32 33 32 01 80 66 33  80 90 01 11 01 90 01 11  s232..f3........
1190: 01 74 6C 6B 30 2B 90 01  11 01 AE 80 23 66 33 80  .tlk0+......#f3.
11A0: 90 01 11 01 90 01 11 01  74 6C 6B 31 52 27 80 F8  ........tlk1R'..
11B0: FF FF 7F F8 FF FF 7F 73  32 33 32 45 27 80 F8 FF  .......s232E'...
11C0: FF 7F F8 FF FF 7F 73 32  33 33 01 80 BB 31 80 90  ......s233...1..
11D0: 01 11 01 90 01 11 01 6D  61 69 6E 01 80 1C A8 80  .......main.....
11E0: 5D 01 80 70 80 45 00 80  F8 FF FF 7F F8 FF FF 7F  ]..p.E..........
11F0: 66 64 6F 31 01 80 55 00  80 F8 FF FF 7F F8 FF FF  fdo1..U.........
1200: 7F 66 64 6F 31 52 27 80  F8 FF FF 7F F8 FF FF 7F  .fdo1R'.........
1210: 73 32 33 33 45 94 80 F8  FF FF 7F F8 FF FF 7F 71  s233E..........q
1220: 73 74 63 01 80 5C 00 01  80 5C 01 01 80 9A 46 00  stc..\...\....F.
1230: 45 00 80 F8 FF FF 7F F8  FF FF 7F 66 64 69 32 01  E..........fdi2.
1240: 80 21 00                                          .!.             
```

#### Opcodes

```
  0: 0x0512 [0x42] SET_CLI_EVENT_CANCEL_DATA()
  1: 0x0513 [0x45] LOAD_SCHEDULED_TASK: Load scheduler "fdo1" with entities [EventEntity, EventEntity], work=[200*, 0*]
  2: 0x0524 [0x55] WAIT_LOAD_SCHEDULER: Wait for scheduler "fdo1" with entities [EventEntity, EventEntity], work=200*
  3: 0x0533 [0x46] CAMERA_CONTROL: Disable user control
  4: 0x0535 [0x38] SET_CLIENT_EVENT_MODE(mode=19*)
  5: 0x0538 [0x2F] Nashu (ID: 17891728/0x01110190)->Render.Flags0 &= ~0x80000 // Bit 19
  6: 0x053E [0x2F] Brezit-Kyorgul (ID: 17891730/0x01110192)->Render.Flags0 &= ~0x80000 // Bit 19
  7: 0x0544 [0x2F] Mligni-Vorgut (ID: 17891731/0x01110193)->Render.Flags0 &= ~0x80000 // Bit 19
  8: 0x054A [0x2F] Soraa Ishakal (ID: 17891729/0x01110191)->Render.Flags0 &= ~0x80000 // Bit 19
  9: 0x0550 [0x2F] Unnamed NPC (ID: 17891732/0x01110194)->Render.Flags0 &= ~0x80000 // Bit 19
 10: 0x0556 [0x2F] Unnamed NPC (ID: 17891733/0x01110195)->Render.Flags0 &= ~0x80000 // Bit 19
 11: 0x055C [0x2F] Unnamed NPC (ID: 17891734/0x01110196)->Render.Flags0 &= ~0x80000 // Bit 19
 12: 0x0562 [0x2F] Unnamed NPC (ID: 17891735/0x01110197)->Render.Flags0 &= ~0x80000 // Bit 19
 13: 0x0568 [0x4E] SET_ENTITY_HIDE_FLAG: Show Nashu (ID: 17891728/0x01110190)
 14: 0x056E [0x4E] SET_ENTITY_HIDE_FLAG: Show Brezit-Kyorgul (ID: 17891730/0x01110192)
 15: 0x0574 [0x4E] SET_ENTITY_HIDE_FLAG: Show Mligni-Vorgut (ID: 17891731/0x01110193)
 16: 0x057A [0x4E] SET_ENTITY_HIDE_FLAG: Show Soraa Ishakal (ID: 17891729/0x01110191)
 17: 0x0580 [0x4E] SET_ENTITY_HIDE_FLAG: Show Unnamed NPC (ID: 17891732/0x01110194)
 18: 0x0586 [0x4E] SET_ENTITY_HIDE_FLAG: Show Unnamed NPC (ID: 17891733/0x01110195)
 19: 0x058C [0x4E] SET_ENTITY_HIDE_FLAG: Show Unnamed NPC (ID: 17891734/0x01110196)
 20: 0x0592 [0x4E] SET_ENTITY_HIDE_FLAG: Show Unnamed NPC (ID: 17891735/0x01110197)
 21: 0x0598 [0x92] Nashu (ID: 17891728/0x01110190)->Render.Flags3 ^= 0x01
 22: 0x059E [0x92] Brezit-Kyorgul (ID: 17891730/0x01110192)->Render.Flags3 ^= 0x01
 23: 0x05A4 [0x92] Mligni-Vorgut (ID: 17891731/0x01110193)->Render.Flags3 ^= 0x01
 24: 0x05AA [0x92] Soraa Ishakal (ID: 17891729/0x01110191)->Render.Flags3 ^= 0x01
 25: 0x05B0 [0x94] Nashu (ID: 17891728/0x01110190)->Render.Flags3 ^= 0x01
 26: 0x05B6 [0x94] Brezit-Kyorgul (ID: 17891730/0x01110192)->Render.Flags3 ^= 0x01
 27: 0x05BC [0x94] Mligni-Vorgut (ID: 17891731/0x01110193)->Render.Flags3 ^= 0x01
 28: 0x05C2 [0x94] Soraa Ishakal (ID: 17891729/0x01110191)->Render.Flags3 ^= 0x01
 29: 0x05C8 [0x94] Unnamed NPC (ID: 17891732/0x01110194)->Render.Flags3 ^= 0x01
 30: 0x05CE [0x94] Unnamed NPC (ID: 17891733/0x01110195)->Render.Flags3 ^= 0x01
 31: 0x05D4 [0x94] Unnamed NPC (ID: 17891734/0x01110196)->Render.Flags3 ^= 0x01
 32: 0x05DA [0x94] Unnamed NPC (ID: 17891735/0x01110197)->Render.Flags3 ^= 0x01
 33: 0x05E0 [0x59] UPDATE_ENTITY_DATA: Unnamed NPC (ID: 17891733/0x01110195)->Render.Flags0 |= 0x200000
 34: 0x05E7 [0xBA] SET_ENTITY_POSITION(entity_id=Nashu (ID: 17891728/0x01110190), pos_x=-325.008*, pos_z=212.731*, pos_y=-28.946*, direction=246.6°*)
 35: 0x05F4 [0xBA] SET_ENTITY_POSITION(entity_id=Brezit-Kyorgul (ID: 17891730/0x01110192), pos_x=-327.403*, pos_z=244.825*, pos_y=-28.931*, direction=346.6°*)
 36: 0x0601 [0xBA] SET_ENTITY_POSITION(entity_id=Mligni-Vorgut (ID: 17891731/0x01110193), pos_x=-324.534*, pos_z=247.468*, pos_y=-28.797*, direction=165.0°*)
 37: 0x060E [0xBA] SET_ENTITY_POSITION(entity_id=Soraa Ishakal (ID: 17891729/0x01110191), pos_x=-328.185*, pos_z=246.753*, pos_y=-29.108*, direction=317.7°*)
 38: 0x061B [0xBA] SET_ENTITY_POSITION(entity_id=Unnamed NPC (ID: 17891732/0x01110194), pos_x=-334.341*, pos_z=188.309*, pos_y=-30.476*, direction=324.0°*)
 39: 0x0628 [0xBA] SET_ENTITY_POSITION(entity_id=Unnamed NPC (ID: 17891733/0x01110195), pos_x=-323.823*, pos_z=202.395*, pos_y=-29.314*, direction=230.0°*)
 40: 0x0635 [0xBA] SET_ENTITY_POSITION(entity_id=Unnamed NPC (ID: 17891734/0x01110196), pos_x=-327.421*, pos_z=202.032*, pos_y=-28.999*, direction=69.8°*)
 41: 0x0642 [0xBA] SET_ENTITY_POSITION(entity_id=Unnamed NPC (ID: 17891735/0x01110197), pos_x=-325.772*, pos_z=195.704*, pos_y=-28.962*, direction=30.8°*)
 42: 0x064F [0x80] LOAD_WAIT(entity=Nashu (ID: 17891728/0x01110190))
 43: 0x0654 [0x80] LOAD_WAIT(entity=Brezit-Kyorgul (ID: 17891730/0x01110192))
 44: 0x0659 [0x80] LOAD_WAIT(entity=Mligni-Vorgut (ID: 17891731/0x01110193))
 45: 0x065E [0x80] LOAD_WAIT(entity=Soraa Ishakal (ID: 17891729/0x01110191))
 46: 0x0663 [0x80] LOAD_WAIT(entity=Unnamed NPC (ID: 17891732/0x01110194))
 47: 0x0668 [0x80] LOAD_WAIT(entity=Unnamed NPC (ID: 17891733/0x01110195))
 48: 0x066D [0x80] LOAD_WAIT(entity=Unnamed NPC (ID: 17891734/0x01110196))
 49: 0x0672 [0x80] LOAD_WAIT(entity=Unnamed NPC (ID: 17891735/0x01110197))
 50: 0x0677 [0x4A] Brezit-Kyorgul (ID: 17891730/0x01110192) looks at Mligni-Vorgut (ID: 17891731/0x01110193)
 51: 0x0680 [0x4A] Soraa Ishakal (ID: 17891729/0x01110191) looks at Mligni-Vorgut (ID: 17891731/0x01110193)
 52: 0x0689 [0x2C] CREATE_SCHEDULER_TASK: Create scheduler "corp" with entities [Unnamed NPC (ID: 17891733/0x01110195), Unnamed NPC (ID: 17891733/0x01110195)]
 53: 0x0696 [0x2C] CREATE_SCHEDULER_TASK: Create scheduler "corp" with entities [Unnamed NPC (ID: 17891734/0x01110196), Unnamed NPC (ID: 17891734/0x01110196)]
 54: 0x06A3 [0x2C] CREATE_SCHEDULER_TASK: Create scheduler "corp" with entities [Unnamed NPC (ID: 17891735/0x01110197), Unnamed NPC (ID: 17891735/0x01110197)]
 55: 0x06B0 [0x5C] MUSIC_CONTROL: Set Idle (Day) music to song 61*
 56: 0x06B4 [0x5C] MUSIC_CONTROL: Set Idle (Night) music to song 61*
 57: 0x06B8 [0x9A] WAIT_MUSIC_SERVER()
 58: 0x06B9 [0x27] REQ_SET(priority=0x05, entity_id=Unnamed NPC (ID: 17891732/0x01110194), tag_num=0x03)
 59: 0x06C0 [0x1C] WAIT(30* ticks)
 60: 0x06C3 [0x45] LOAD_SCHEDULED_TASK: Load scheduler "s197" with entities [EventEntity, EventEntity], work=[626*, 0*]
 61: 0x06D4 [0x1C] WAIT(15* ticks)
 62: 0x06D7 [0x45] LOAD_SCHEDULED_TASK: Load scheduler "fdi1" with entities [EventEntity, EventEntity], work=[200*, 0*]
 63: 0x06E8 [0x55] WAIT_LOAD_SCHEDULER: Wait for scheduler "fdi1" with entities [EventEntity, EventEntity], work=200*
 64: 0x06F7 [0x2A] GET_REQ_LEVEL(level=5, entity_id=Unnamed NPC (ID: 17891732/0x01110194))
 65: 0x06FD [0x52] END_LOAD_SCHEDULER: End scheduler "s197" with entities [EventEntity, EventEntity], work=626*
 66: 0x070C [0x45] LOAD_SCHEDULED_TASK: Load scheduler "s198" with entities [EventEntity, EventEntity], work=[626*, 0*]
 67: 0x071D [0x45] LOAD_SCHEDULED_TASK: Load scheduler "blon" with entities [EventEntity, EventEntity], work=[626*, 0*]
 68: 0x072E [0x4A] Unnamed NPC (ID: 17891732/0x01110194) looks at Unnamed NPC (ID: 17891733/0x01110195)
 69: 0x0737 [0x1C] WAIT(80* ticks)
 70: 0x073A [0x5B] LOAD_EXT_SCHEDULER: Load scheduler "hou0" with entities [Unnamed NPC (ID: 17891732/0x01110194), Unnamed NPC (ID: 17891732/0x01110194)], work=3385*
 71: 0x0749 [0x1C] WAIT(10* ticks)
 72: 0x074C [0x52] END_LOAD_SCHEDULER: End scheduler "s198" with entities [EventEntity, EventEntity], work=626*
 73: 0x075B [0x45] LOAD_SCHEDULED_TASK: Load scheduler "s199" with entities [EventEntity, EventEntity], work=[626*, 0*]
 74: 0x076C [0x1C] WAIT(90* ticks)
 75: 0x076F [0x52] END_LOAD_SCHEDULER: End scheduler "s199" with entities [EventEntity, EventEntity], work=626*
 76: 0x077E [0x45] LOAD_SCHEDULED_TASK: Load scheduler "s200" with entities [EventEntity, EventEntity], work=[626*, 0*]
 77: 0x078F [0x45] LOAD_SCHEDULED_TASK: Load scheduler "blof" with entities [EventEntity, EventEntity], work=[626*, 0*]
 78: 0x07A0 [0x4B] UPDATE_ENTITY_YAW(entity=Brezit-Kyorgul (ID: 17891730/0x01110192), yaw=4.2°*)
 79: 0x07A7 [0x2B] Brezit-Kyorgul (ID: 17891730/0x01110192) [7760*]:
    → "Gwar!?"
 80: 0x07AE [0x23] WAIT_FOR_DIALOG_INTERACTION
 81: 0x07AF [0x55] WAIT_LOAD_SCHEDULER: Wait for scheduler "s200" with entities [EventEntity, EventEntity], work=626*
 82: 0x07BE [0x45] LOAD_SCHEDULED_TASK: Load scheduler "s201" with entities [EventEntity, EventEntity], work=[626*, 0*]
 83: 0x07CF [0x2B] Mligni-Vorgut (ID: 17891731/0x01110193) [7761*]:
    → "A base-break, a base-break!"
 84: 0x07D6 [0x23] WAIT_FOR_DIALOG_INTERACTION
 85: 0x07D7 [0x6B] STOP_AND_IDLE: Unnamed NPC (ID: 17891732/0x01110194) stops current action and resets to idle (animation="idl0")
 86: 0x07E0 [0x52] END_LOAD_SCHEDULER: End scheduler "s201" with entities [EventEntity, EventEntity], work=626*
 87: 0x07EF [0x45] LOAD_SCHEDULED_TASK: Load scheduler "s202" with entities [EventEntity, EventEntity], work=[626*, 0*]
 88: 0x0800 [0x4A] Brezit-Kyorgul (ID: 17891730/0x01110192) looks at Mligni-Vorgut (ID: 17891731/0x01110193)
 89: 0x0809 [0x2B] Brezit-Kyorgul (ID: 17891730/0x01110192) [7762*]:
    → "Me take care them. Me gouge them good. Innards run splickity-splat on ground."
 90: 0x0810 [0x23] WAIT_FOR_DIALOG_INTERACTION
 91: 0x0811 [0x66] LOAD_EXT_SCHEDULER_MAIN: Load scheduler "tlk0" with entities [Soraa Ishakal (ID: 17891729/0x01110191), Soraa Ishakal (ID: 17891729/0x01110191)], work=59*
 92: 0x0820 [0x2B] Soraa Ishakal (ID: 17891729/0x01110191) [7763*]:
    → "Hey, don't leave me out to drrry. I love a good slaughterfest."
 93: 0x0827 [0x23] WAIT_FOR_DIALOG_INTERACTION
 94: 0x0828 [0x66] LOAD_EXT_SCHEDULER_MAIN: Load scheduler "tlk1" with entities [Soraa Ishakal (ID: 17891729/0x01110191), Soraa Ishakal (ID: 17891729/0x01110191)], work=59*
 95: 0x0837 [0x52] END_LOAD_SCHEDULER: End scheduler "s202" with entities [EventEntity, EventEntity], work=626*
 96: 0x0846 [0x45] LOAD_SCHEDULED_TASK: Load scheduler "s203" with entities [EventEntity, EventEntity], work=[626*, 0*]
 97: 0x0857 [0x27] REQ_SET(priority=0x05, entity_id=Brezit-Kyorgul (ID: 17891730/0x01110192), tag_num=0x03)
 98: 0x085E [0x1C] WAIT(20* ticks)
 99: 0x0861 [0x27] REQ_SET(priority=0x05, entity_id=Soraa Ishakal (ID: 17891729/0x01110191), tag_num=0x03)
100: 0x0868 [0x1C] WAIT(150* ticks)
101: 0x086B [0x5B] LOAD_EXT_SCHEDULER: Load scheduler "nki0" with entities [Nashu (ID: 17891728/0x01110190), Nashu (ID: 17891728/0x01110190)], work=1250*
102: 0x087A [0x1C] WAIT(10* ticks)
103: 0x087D [0x52] END_LOAD_SCHEDULER: End scheduler "s203" with entities [EventEntity, EventEntity], work=626*
104: 0x088C [0x45] LOAD_SCHEDULED_TASK: Load scheduler "s204" with entities [EventEntity, EventEntity], work=[626*, 0*]
105: 0x089D [0x7A] VM_CONTROL: Reset VM for Brezit-Kyorgul (ID: 17891730/0x01110192)
106: 0x08A3 [0x7A] VM_CONTROL: Reset VM for Soraa Ishakal (ID: 17891729/0x01110191)
107: 0x08A9 [0xBA] SET_ENTITY_POSITION(entity_id=Brezit-Kyorgul (ID: 17891730/0x01110192), pos_x=-319.782*, pos_z=218.866*, pos_y=-28.999*, direction=71.2°*)
108: 0x08B6 [0xBA] SET_ENTITY_POSITION(entity_id=Soraa Ishakal (ID: 17891729/0x01110191), pos_x=-321.252*, pos_z=219.829*, pos_y=-29.126*, direction=70.4°*)
109: 0x08C3 [0x27] REQ_SET(priority=0x05, entity_id=Brezit-Kyorgul (ID: 17891730/0x01110192), tag_num=0x04)
110: 0x08CA [0x1C] WAIT(15* ticks)
111: 0x08CD [0x27] REQ_SET(priority=0x05, entity_id=Soraa Ishakal (ID: 17891729/0x01110191), tag_num=0x04)
112: 0x08D4 [0x4E] SET_ENTITY_HIDE_FLAG: Hide Mligni-Vorgut (ID: 17891731/0x01110193)
113: 0x08DA [0x1C] WAIT(240* ticks)
114: 0x08DD [0x52] END_LOAD_SCHEDULER: End scheduler "s204" with entities [EventEntity, EventEntity], work=626*
115: 0x08EC [0x45] LOAD_SCHEDULED_TASK: Load scheduler "s205" with entities [EventEntity, EventEntity], work=[626*, 0*]
116: 0x08FD [0x6B] STOP_AND_IDLE: Nashu (ID: 17891728/0x01110190) stops current action and resets to idle (animation="idl0")
117: 0x0906 [0xBA] SET_ENTITY_POSITION(entity_id=Nashu (ID: 17891728/0x01110190), pos_x=-319.652*, pos_z=215.255*, pos_y=-29.000*, direction=5.4°*)
118: 0x0913 [0x66] LOAD_EXT_SCHEDULER_MAIN: Load scheduler "sha0" with entities [Nashu (ID: 17891728/0x01110190), Nashu (ID: 17891728/0x01110190)], work=9*
119: 0x0922 [0x1C] WAIT(150* ticks)
120: 0x0925 [0x5D] SET_MUSIC_VOLUME(volume=0*, fade_time=120*)
121: 0x092A [0x52] END_LOAD_SCHEDULER: End scheduler "s205" with entities [EventEntity, EventEntity], work=626*
122: 0x0939 [0x45] LOAD_SCHEDULED_TASK: Load scheduler "s206" with entities [EventEntity, EventEntity], work=[626*, 0*]
123: 0x094A [0x1C] WAIT(15* ticks)
124: 0x094D [0xBA] SET_ENTITY_POSITION(entity_id=Nashu (ID: 17891728/0x01110190), pos_x=-317.507*, pos_z=213.065*, pos_y=-29.046*, direction=92.2°*)
125: 0x095A [0x2B] Brezit-Kyorgul (ID: 17891730/0x01110192) [7760*]:
    → "Gwar!?"
126: 0x0961 [0x23] WAIT_FOR_DIALOG_INTERACTION
127: 0x0962 [0x5C] MUSIC_CONTROL: Set Idle (Day) music to song 57*
128: 0x0966 [0x5C] MUSIC_CONTROL: Set Idle (Night) music to song 57*
129: 0x096A [0x9A] WAIT_MUSIC_SERVER()
130: 0x096B [0x52] END_LOAD_SCHEDULER: End scheduler "s206" with entities [EventEntity, EventEntity], work=626*
131: 0x097A [0x45] LOAD_SCHEDULED_TASK: Load scheduler "s207" with entities [EventEntity, EventEntity], work=[626*, 0*]
132: 0x098B [0x4A] Brezit-Kyorgul (ID: 17891730/0x01110192) looks at Soraa Ishakal (ID: 17891729/0x01110191)
133: 0x0994 [0x2B] Brezit-Kyorgul (ID: 17891730/0x01110192) [7764*]:
    → "Bulb is bye-bye! Someone steal! Someone steal!"
134: 0x099B [0x23] WAIT_FOR_DIALOG_INTERACTION
135: 0x099C [0x66] LOAD_EXT_SCHEDULER_MAIN: Load scheduler "sha1" with entities [Nashu (ID: 17891728/0x01110190), Nashu (ID: 17891728/0x01110190)], work=9*
136: 0x09AB [0x1C] WAIT(30* ticks)
137: 0x09AE [0x52] END_LOAD_SCHEDULER: End scheduler "s207" with entities [EventEntity, EventEntity], work=626*
138: 0x09BD [0x45] LOAD_SCHEDULED_TASK: Load scheduler "s208" with entities [EventEntity, EventEntity], work=[626*, 0*]
139: 0x09CE [0x4A] Brezit-Kyorgul (ID: 17891730/0x01110192) looks at Nashu (ID: 17891728/0x01110190)
140: 0x09D7 [0x1C] WAIT(20* ticks)
141: 0x09DA [0x5B] LOAD_EXT_SCHEDULER: Load scheduler "ono0" with entities [Brezit-Kyorgul (ID: 17891730/0x01110192), Brezit-Kyorgul (ID: 17891730/0x01110192)], work=3385*
142: 0x09E9 [0x2B] Brezit-Kyorgul (ID: 17891730/0x01110192) [7765*]:
    → "Stealer come out now! Come out or die!"
143: 0x09F0 [0x1C] WAIT(90* ticks)
144: 0x09F3 [0x6E] Nashu (ID: 17891728/0x01110190) uses emote 29*
145: 0x09FA [0x99] Wait for Nashu (ID: 17891728/0x01110190) animation to complete
146: 0x09FF [0x52] END_LOAD_SCHEDULER: End scheduler "s208" with entities [EventEntity, EventEntity], work=626*
147: 0x0A0E [0x45] LOAD_SCHEDULED_TASK: Load scheduler "s209" with entities [EventEntity, EventEntity], work=[626*, 0*]
148: 0x0A1F [0x45] LOAD_SCHEDULED_TASK: Load scheduler "blon" with entities [EventEntity, EventEntity], work=[626*, 0*]
149: 0x0A30 [0x27] REQ_SET(priority=0x05, entity_id=Nashu (ID: 17891728/0x01110190), tag_num=0x05)
150: 0x0A37 [0x2B] Nashu (ID: 17891728/0x01110190) [7766*]:
    → "Ack!"
151: 0x0A3E [0x23] WAIT_FOR_DIALOG_INTERACTION
152: 0x0A3F [0x6E] Soraa Ishakal (ID: 17891729/0x01110191) uses emote 21*
153: 0x0A46 [0x99] Wait for Soraa Ishakal (ID: 17891729/0x01110191) animation to complete
154: 0x0A4B [0x52] END_LOAD_SCHEDULER: End scheduler "s209" with entities [EventEntity, EventEntity], work=626*
155: 0x0A5A [0x45] LOAD_SCHEDULED_TASK: Load scheduler "s210" with entities [EventEntity, EventEntity], work=[626*, 0*]
156: 0x0A6B [0x2B] Soraa Ishakal (ID: 17891729/0x01110191) [7767*]:
    → "Huh!?"
157: 0x0A72 [0x23] WAIT_FOR_DIALOG_INTERACTION
158: 0x0A73 [0x52] END_LOAD_SCHEDULER: End scheduler "s210" with entities [EventEntity, EventEntity], work=626*
159: 0x0A82 [0x45] LOAD_SCHEDULED_TASK: Load scheduler "s211" with entities [EventEntity, EventEntity], work=[626*, 0*]
160: 0x0A93 [0x5B] LOAD_EXT_SCHEDULER: Load scheduler "hou0" with entities [Brezit-Kyorgul (ID: 17891730/0x01110192), Brezit-Kyorgul (ID: 17891730/0x01110192)], work=3385*
161: 0x0AA2 [0x6B] STOP_AND_IDLE: Unnamed NPC (ID: 17891733/0x01110195) stops current action and resets to idle (animation="idl0")
162: 0x0AAB [0x6B] STOP_AND_IDLE: Unnamed NPC (ID: 17891734/0x01110196) stops current action and resets to idle (animation="idl0")
163: 0x0AB4 [0x6B] STOP_AND_IDLE: Unnamed NPC (ID: 17891735/0x01110197) stops current action and resets to idle (animation="idl0")
164: 0x0ABD [0xBA] SET_ENTITY_POSITION(entity_id=Unnamed NPC (ID: 17891733/0x01110195), pos_x=-324.244*, pos_z=206.883*, pos_y=-29.082*, direction=41.0°*)
165: 0x0ACA [0xBA] SET_ENTITY_POSITION(entity_id=Unnamed NPC (ID: 17891734/0x01110196), pos_x=-325.263*, pos_z=226.286*, pos_y=-28.667*, direction=352.1°*)
166: 0x0AD7 [0xBA] SET_ENTITY_POSITION(entity_id=Unnamed NPC (ID: 17891735/0x01110197), pos_x=-330.600*, pos_z=229.020*, pos_y=-28.684*, direction=233.6°*)
167: 0x0AE4 [0x1C] WAIT(90* ticks)
168: 0x0AE7 [0x52] END_LOAD_SCHEDULER: End scheduler "s211" with entities [EventEntity, EventEntity], work=626*
169: 0x0AF6 [0x45] LOAD_SCHEDULED_TASK: Load scheduler "s212" with entities [EventEntity, EventEntity], work=[626*, 0*]
170: 0x0B07 [0x4A] Unnamed NPC (ID: 17891733/0x01110195) looks at Brezit-Kyorgul (ID: 17891730/0x01110192)
171: 0x0B10 [0x1C] WAIT(10* ticks)
172: 0x0B13 [0x4A] Unnamed NPC (ID: 17891732/0x01110194) looks at Brezit-Kyorgul (ID: 17891730/0x01110192)
173: 0x0B1C [0x4A] Soraa Ishakal (ID: 17891729/0x01110191) looks at Nashu (ID: 17891728/0x01110190)
174: 0x0B25 [0x1C] WAIT(30* ticks)
175: 0x0B28 [0x6B] STOP_AND_IDLE: Brezit-Kyorgul (ID: 17891730/0x01110192) stops current action and resets to idle (animation="idl0")
176: 0x0B31 [0x52] END_LOAD_SCHEDULER: End scheduler "s212" with entities [EventEntity, EventEntity], work=626*
177: 0x0B40 [0x45] LOAD_SCHEDULED_TASK: Load scheduler "s213" with entities [EventEntity, EventEntity], work=[626*, 0*]
178: 0x0B51 [0x4A] Unnamed NPC (ID: 17891734/0x01110196) looks at Brezit-Kyorgul (ID: 17891730/0x01110192)
179: 0x0B5A [0x1C] WAIT(10* ticks)
180: 0x0B5D [0x4A] Unnamed NPC (ID: 17891735/0x01110197) looks at Brezit-Kyorgul (ID: 17891730/0x01110192)
181: 0x0B66 [0xBA] SET_ENTITY_POSITION(entity_id=Unnamed NPC (ID: 17891732/0x01110194), pos_x=-323.823*, pos_z=202.395*, pos_y=-29.314*, direction=230.0°*)
182: 0x0B73 [0x27] REQ_SET(priority=0x05, entity_id=Unnamed NPC (ID: 17891732/0x01110194), tag_num=0x04)
183: 0x0B7A [0x1C] WAIT(30* ticks)
184: 0x0B7D [0x6E] Nashu (ID: 17891728/0x01110190) uses emote 21*
185: 0x0B84 [0x99] Wait for Nashu (ID: 17891728/0x01110190) animation to complete
186: 0x0B89 [0x52] END_LOAD_SCHEDULER: End scheduler "s213" with entities [EventEntity, EventEntity], work=626*
187: 0x0B98 [0x45] LOAD_SCHEDULED_TASK: Load scheduler "s214" with entities [EventEntity, EventEntity], work=[626*, 0*]
188: 0x0BA9 [0x4A] Unnamed NPC (ID: 17891733/0x01110195) looks at Nashu (ID: 17891728/0x01110190)
189: 0x0BB2 [0xBA] SET_ENTITY_POSITION(entity_id=Unnamed NPC (ID: 17891735/0x01110197), pos_x=-309.609*, pos_z=212.083*, pos_y=-28.636*, direction=189.9°*)
190: 0x0BBF [0x27] REQ_SET(priority=0x05, entity_id=Unnamed NPC (ID: 17891735/0x01110197), tag_num=0x03)
191: 0x0BC6 [0x2B] Nashu (ID: 17891728/0x01110190) [7768*]:
    → "Wh-wh-whatever shall we d-d-doooo, <Player>!?"
192: 0x0BCD [0x23] WAIT_FOR_DIALOG_INTERACTION
193: 0x0BCE [0x55] WAIT_LOAD_SCHEDULER: Wait for scheduler "s214" with entities [EventEntity, EventEntity], work=626*
194: 0x0BDD [0x6E] Soraa Ishakal (ID: 17891729/0x01110191) uses emote 0*
195: 0x0BE4 [0x99] Wait for Soraa Ishakal (ID: 17891729/0x01110191) animation to complete
196: 0x0BE9 [0x45] LOAD_SCHEDULED_TASK: Load scheduler "s215" with entities [EventEntity, EventEntity], work=[626*, 0*]
197: 0x0BFA [0x45] LOAD_SCHEDULED_TASK: Load scheduler "blof" with entities [EventEntity, EventEntity], work=[626*, 0*]
198: 0x0C0B [0x2B] Soraa Ishakal (ID: 17891729/0x01110191) [7769*]:
    → "Why are you crrretins here!?"
199: 0x0C12 [0x23] WAIT_FOR_DIALOG_INTERACTION
200: 0x0C13 [0x5B] LOAD_EXT_SCHEDULER: Load scheduler "btl0" with entities [Brezit-Kyorgul (ID: 17891730/0x01110192), Brezit-Kyorgul (ID: 17891730/0x01110192)], work=3326*
201: 0x0C22 [0x52] END_LOAD_SCHEDULER: End scheduler "s215" with entities [EventEntity, EventEntity], work=626*
202: 0x0C31 [0x45] LOAD_SCHEDULED_TASK: Load scheduler "s216" with entities [EventEntity, EventEntity], work=[626*, 0*]
203: 0x0C42 [0x45] LOAD_SCHEDULED_TASK: Load scheduler "blon" with entities [EventEntity, EventEntity], work=[626*, 0*]
204: 0x0C53 [0x2B] Brezit-Kyorgul (ID: 17891730/0x01110192) [7770*]:
    → "Flay no-scales!"
205: 0x0C5A [0x1C] WAIT(60* ticks)
206: 0x0C5D [0x52] END_LOAD_SCHEDULER: End scheduler "s216" with entities [EventEntity, EventEntity], work=626*
207: 0x0C6C [0x45] LOAD_SCHEDULED_TASK: Load scheduler "s217" with entities [EventEntity, EventEntity], work=[626*, 0*]
208: 0x0C7D [0x45] LOAD_SCHEDULED_TASK: Load scheduler "blof" with entities [EventEntity, EventEntity], work=[626*, 0*]
209: 0x0C8E [0x73] Soraa Ishakal (ID: 17891729/0x01110191) casts magic 122* on EventEntity
210: 0x0C99 [0x2B] Soraa Ishakal (ID: 17891729/0x01110191) [7771*]:
    → "Ugh, why must you be so rrrelentlessly incompetent?"
211: 0x0CA0 [0x1C] WAIT(90* ticks)
212: 0x0CA3 [0x81] SET_ENTITY_BLINKING(blink_flag=0x00, entity=Nashu (ID: 17891728/0x01110190))
213: 0x0CA9 [0x66] LOAD_EXT_SCHEDULER_MAIN: Load scheduler "mab0" with entities [Nashu (ID: 17891728/0x01110190), Nashu (ID: 17891728/0x01110190)], work=140*
214: 0x0CB8 [0x52] END_LOAD_SCHEDULER: End scheduler "s217" with entities [EventEntity, EventEntity], work=626*
215: 0x0CC7 [0x45] LOAD_SCHEDULED_TASK: Load scheduler "s218" with entities [EventEntity, EventEntity], work=[626*, 0*]
216: 0x0CD8 [0x45] LOAD_SCHEDULED_TASK: Load scheduler "blon" with entities [EventEntity, EventEntity], work=[626*, 0*]
217: 0x0CE9 [0x2B] Nashu (ID: 17891728/0x01110190) [7772*]:
    → "Eeeeeeeeek!"
218: 0x0CF0 [0x1C] WAIT(40* ticks)
219: 0x0CF3 [0x5D] SET_MUSIC_VOLUME(volume=0*, fade_time=120*)
220: 0x0CF8 [0x45] LOAD_SCHEDULED_TASK: Load scheduler "who0" with entities [LocalPlayer, LocalPlayer], work=[201*, 0*]
221: 0x0D09 [0x55] WAIT_LOAD_SCHEDULER: Wait for scheduler "who0" with entities [LocalPlayer, LocalPlayer], work=201*
222: 0x0D18 [0x52] END_LOAD_SCHEDULER: End scheduler "s218" with entities [EventEntity, EventEntity], work=626*
223: 0x0D27 [0x45] LOAD_SCHEDULED_TASK: Load scheduler "blof" with entities [EventEntity, EventEntity], work=[626*, 0*]
224: 0x0D38 [0x2F] Araustoix (ID: 17891736/0x01110198)->Render.Flags0 &= ~0x80000 // Bit 19
225: 0x0D3E [0x92] Araustoix (ID: 17891736/0x01110198)->Render.Flags3 ^= 0x01
226: 0x0D44 [0x94] LocalPlayer->Render.Flags3 ^= 0x01
227: 0x0D4A [0x94] Araustoix (ID: 17891736/0x01110198)->Render.Flags3 ^= 0x01
228: 0x0D50 [0x59] UPDATE_ENTITY_DATA: LocalPlayer->Render.Flags0 |= 0x200000
229: 0x0D57 [0xBA] SET_ENTITY_POSITION(entity_id=LocalPlayer, pos_x=-293.627*, pos_z=209.893*, pos_y=-29.853*, direction=178.4°*)
230: 0x0D64 [0xBA] SET_ENTITY_POSITION(entity_id=Araustoix (ID: 17891736/0x01110198), pos_x=-290.024*, pos_z=212.555*, pos_y=-29.851*, direction=122.1°*)
231: 0x0D71 [0xBA] SET_ENTITY_POSITION(entity_id=Nashu (ID: 17891728/0x01110190), pos_x=-293.321*, pos_z=207.905*, pos_y=-30.009*, direction=270.3°*)
232: 0x0D7E [0x80] LOAD_WAIT(entity=LocalPlayer)
233: 0x0D83 [0x80] LOAD_WAIT(entity=Nashu (ID: 17891728/0x01110190))
234: 0x0D88 [0x4A] LocalPlayer looks at Nashu (ID: 17891728/0x01110190)
235: 0x0D91 [0x1C] WAIT(120* ticks)
236: 0x0D94 [0x45] LOAD_SCHEDULED_TASK: Load scheduler "s219" with entities [EventEntity, EventEntity], work=[626*, 0*]
237: 0x0DA5 [0x1C] WAIT(15* ticks)
238: 0x0DA8 [0x45] LOAD_SCHEDULED_TASK: Load scheduler "whi1" with entities [LocalPlayer, LocalPlayer], work=[201*, 0*]
239: 0x0DB9 [0x55] WAIT_LOAD_SCHEDULER: Wait for scheduler "whi1" with entities [LocalPlayer, LocalPlayer], work=201*
240: 0x0DC8 [0x7C] Nashu (ID: 17891728/0x01110190)->Render.Flags2 |= 0x00
241: 0x0DCE [0x2B] Nashu (ID: 17891728/0x01110190) [7773*]:
    → "..."
242: 0x0DD5 [0x23] WAIT_FOR_DIALOG_INTERACTION
243: 0x0DD6 [0x7C] Nashu (ID: 17891728/0x01110190)->Render.Flags2 |= 0x01
244: 0x0DDC [0x52] END_LOAD_SCHEDULER: End scheduler "s219" with entities [EventEntity, EventEntity], work=626*
245: 0x0DEB [0x45] LOAD_SCHEDULED_TASK: Load scheduler "s220" with entities [EventEntity, EventEntity], work=[626*, 0*]
246: 0x0DFC [0x81] SET_ENTITY_BLINKING(blink_flag=0x01, entity=Nashu (ID: 17891728/0x01110190))
247: 0x0E02 [0x66] LOAD_EXT_SCHEDULER_MAIN: Load scheduler "mab1" with entities [Nashu (ID: 17891728/0x01110190), Nashu (ID: 17891728/0x01110190)], work=140*
248: 0x0E11 [0x1C] WAIT(30* ticks)
249: 0x0E14 [0x2B] Nashu (ID: 17891728/0x01110190) [7774*]:
    → "A-wha...? How did I get here?"
250: 0x0E1B [0x23] WAIT_FOR_DIALOG_INTERACTION
251: 0x0E1C [0x52] END_LOAD_SCHEDULER: End scheduler "s220" with entities [EventEntity, EventEntity], work=626*
252: 0x0E2B [0x02] IF !(LocalPlayer->Race == 5*) GOTO 0x0E47
253: 0x0E33 [0x45] LOAD_SCHEDULED_TASK: Load scheduler "s222" with entities [EventEntity, EventEntity], work=[626*, 0*]
254: 0x0E44 [0x01] GOTO 0x0E74
255: 0x0E47 [0x02] IF !(LocalPlayer->Race == 6*) GOTO 0x0E63
256: 0x0E4F [0x45] LOAD_SCHEDULED_TASK: Load scheduler "s222" with entities [EventEntity, EventEntity], work=[626*, 0*]
257: 0x0E60 [0x01] GOTO 0x0E74
258: 0x0E63 [0x45] LOAD_SCHEDULED_TASK: Load scheduler "s221" with entities [EventEntity, EventEntity], work=[626*, 0*]

SUBROUTINE_0E74:
259: 0x0E74 [0x27] REQ_SET(priority=0x05, entity_id=LocalPlayer, tag_num=0x02)
260: 0x0E7B [0x1C] WAIT(80* ticks)
261: 0x0E7E [0x27] REQ_SET(priority=0x05, entity_id=LocalPlayer, tag_num=0x03)
262: 0x0E85 [0x6B] STOP_AND_IDLE: Nashu (ID: 17891728/0x01110190) stops current action and resets to idle (animation="idl0")
263: 0x0E8E [0x1C] WAIT(40* ticks)
264: 0x0E91 [0x52] END_LOAD_SCHEDULER: End scheduler "s221" with entities [EventEntity, EventEntity], work=626*
265: 0x0EA0 [0x52] END_LOAD_SCHEDULER: End scheduler "s222" with entities [EventEntity, EventEntity], work=626*
266: 0x0EAF [0x45] LOAD_SCHEDULED_TASK: Load scheduler "s223" with entities [EventEntity, EventEntity], work=[626*, 0*]
267: 0x0EC0 [0x2B] Nashu (ID: 17891728/0x01110190) [7775*]:
    → "Y-you mean to say I simply appeared out of thin air?"
268: 0x0EC7 [0x23] WAIT_FOR_DIALOG_INTERACTION
269: 0x0EC8 [0x66] LOAD_EXT_SCHEDULER_MAIN: Load scheduler "thk1" with entities [Nashu (ID: 17891728/0x01110190), Nashu (ID: 17891728/0x01110190)], work=9*
270: 0x0ED7 [0x4E] SET_ENTITY_HIDE_FLAG: Show Araustoix (ID: 17891736/0x01110198)
271: 0x0EDD [0x2B] Nashu (ID: 17891728/0x01110190) [7776*]:
    → "Well, if you have not the foggiest idea how I was transported, that must mean...it was the witch?"
272: 0x0EE4 [0x23] WAIT_FOR_DIALOG_INTERACTION
273: 0x0EE5 [0x5C] MUSIC_CONTROL: Set Idle (Day) music to song 61*
274: 0x0EE9 [0x5C] MUSIC_CONTROL: Set Idle (Night) music to song 61*
275: 0x0EED [0x9A] WAIT_MUSIC_SERVER()
276: 0x0EEE [0x27] REQ_SET(priority=0x05, entity_id=Araustoix (ID: 17891736/0x01110198), tag_num=0x02)
277: 0x0EF5 [0x1C] WAIT(15* ticks)
278: 0x0EF8 [0x52] END_LOAD_SCHEDULER: End scheduler "s223" with entities [EventEntity, EventEntity], work=626*
279: 0x0F07 [0x45] LOAD_SCHEDULED_TASK: Load scheduler "s224" with entities [EventEntity, EventEntity], work=[626*, 0*]
280: 0x0F18 [0x66] LOAD_EXT_SCHEDULER_MAIN: Load scheduler "thk2" with entities [Nashu (ID: 17891728/0x01110190), Nashu (ID: 17891728/0x01110190)], work=9*
281: 0x0F27 [0x2B] Araustoix (ID: 17891736/0x01110198) [7777*]:
    → "Nashu? What on the Goddess's green earth are you doing here?"
282: 0x0F2E [0x23] WAIT_FOR_DIALOG_INTERACTION
283: 0x0F2F [0x4A] Nashu (ID: 17891728/0x01110190) looks at Araustoix (ID: 17891736/0x01110198)
284: 0x0F38 [0x2B] Nashu (ID: 17891728/0x01110190) [7778*]:
    → "I could ask the same of you, Araustoix."
285: 0x0F3F [0x23] WAIT_FOR_DIALOG_INTERACTION
286: 0x0F40 [0x2A] GET_REQ_LEVEL(level=5, entity_id=Nashu (ID: 17891728/0x01110190))
287: 0x0F46 [0x4A] LocalPlayer looks at Araustoix (ID: 17891736/0x01110198)
288: 0x0F4F [0x52] END_LOAD_SCHEDULER: End scheduler "s224" with entities [EventEntity, EventEntity], work=626*
289: 0x0F5E [0x45] LOAD_SCHEDULED_TASK: Load scheduler "s225" with entities [EventEntity, EventEntity], work=[626*, 0*]
290: 0x0F6F [0x66] LOAD_EXT_SCHEDULER_MAIN: Load scheduler "tlk0" with entities [Araustoix (ID: 17891736/0x01110198), Araustoix (ID: 17891736/0x01110198)], work=29*
291: 0x0F7E [0x2B] Araustoix (ID: 17891736/0x01110198) [7779*]:
    → "I am here on official business from the priory, unlike you, who are disobeying orders by being here. We specifically told you to leave everything in our more capable hands."
292: 0x0F85 [0x23] WAIT_FOR_DIALOG_INTERACTION
293: 0x0F86 [0x66] LOAD_EXT_SCHEDULER_MAIN: Load scheduler "tlk1" with entities [Araustoix (ID: 17891736/0x01110198), Araustoix (ID: 17891736/0x01110198)], work=29*
294: 0x0F95 [0x52] END_LOAD_SCHEDULER: End scheduler "s225" with entities [EventEntity, EventEntity], work=626*
295: 0x0FA4 [0x45] LOAD_SCHEDULED_TASK: Load scheduler "s226" with entities [EventEntity, EventEntity], work=[626*, 0*]
296: 0x0FB5 [0x79] Araustoix (ID: 17891736/0x01110198) looks at LocalPlayer (Basic look)
297: 0x0FBF [0x2B] Araustoix (ID: 17891736/0x01110198) [7780*]:
    → "That goes for you as well. Just because you have delved into these depths before does not make them any less dangerous."
298: 0x0FC6 [0x23] WAIT_FOR_DIALOG_INTERACTION
299: 0x0FC7 [0x66] LOAD_EXT_SCHEDULER_MAIN: Load scheduler "tlk0" with entities [Nashu (ID: 17891728/0x01110190), Nashu (ID: 17891728/0x01110190)], work=9*
300: 0x0FD6 [0x2B] Nashu (ID: 17891728/0x01110190) [7781*]:
    → "Please, do not blame <Player>! I coerced [him/her] into coming with my grandiloquent talk of justice and duty. [He/She] has done nothing wrong!"
301: 0x0FDD [0x23] WAIT_FOR_DIALOG_INTERACTION
302: 0x0FDE [0x66] LOAD_EXT_SCHEDULER_MAIN: Load scheduler "tlk1" with entities [Nashu (ID: 17891728/0x01110190), Nashu (ID: 17891728/0x01110190)], work=9*
303: 0x0FED [0x79] Araustoix (ID: 17891736/0x01110198) looks at Nashu (ID: 17891728/0x01110190) (Basic look)
304: 0x0FF7 [0x2B] Araustoix (ID: 17891736/0x01110198) [7782*]:
    → "For the heavens' sake, have you no shame, Nashu? Bringing a pioneer along on an assuredly dangerous endeavor... No wonder you have yet to become a full-fledged exorcist."
305: 0x0FFE [0x23] WAIT_FOR_DIALOG_INTERACTION
306: 0x0FFF [0x52] END_LOAD_SCHEDULER: End scheduler "s226" with entities [EventEntity, EventEntity], work=626*
307: 0x100E [0x45] LOAD_SCHEDULED_TASK: Load scheduler "s227" with entities [EventEntity, EventEntity], work=[626*, 0*]
308: 0x101F [0x66] LOAD_EXT_SCHEDULER_MAIN: Load scheduler "thk1" with entities [Araustoix (ID: 17891736/0x01110198), Araustoix (ID: 17891736/0x01110198)], work=29*
309: 0x102E [0x2B] Araustoix (ID: 17891736/0x01110198) [7783*]:
    → "However, I must say that I did not expect the rumors to be true."
310: 0x1035 [0x23] WAIT_FOR_DIALOG_INTERACTION
311: 0x1036 [0x2B] Araustoix (ID: 17891736/0x01110198) [7784*]:
    → "My stomach contents curdle at the thought of people from the same races as we Adoulinians aiding the despicable Velkk. I must notify Lord Vortimere at once."
312: 0x103D [0x23] WAIT_FOR_DIALOG_INTERACTION
313: 0x103E [0x52] END_LOAD_SCHEDULER: End scheduler "s227" with entities [EventEntity, EventEntity], work=626*
314: 0x104D [0x45] LOAD_SCHEDULED_TASK: Load scheduler "s228" with entities [EventEntity, EventEntity], work=[626*, 0*]
315: 0x105E [0x66] LOAD_EXT_SCHEDULER_MAIN: Load scheduler "thk2" with entities [Araustoix (ID: 17891736/0x01110198), Araustoix (ID: 17891736/0x01110198)], work=29*
316: 0x106D [0x2B] Araustoix (ID: 17891736/0x01110198) [7785*]:
    → "Nashu, you are to return with me as well. We can decide on a punishment befitting your impudence at a later date."
317: 0x1074 [0x23] WAIT_FOR_DIALOG_INTERACTION
318: 0x1075 [0x6E] Nashu (ID: 17891728/0x01110190) uses emote 7*
319: 0x107C [0x99] Wait for Nashu (ID: 17891728/0x01110190) animation to complete
320: 0x1081 [0x2B] Nashu (ID: 17891728/0x01110190) [7786*]:
    → "Y-yessir!"
321: 0x1088 [0x23] WAIT_FOR_DIALOG_INTERACTION
322: 0x1089 [0x52] END_LOAD_SCHEDULER: End scheduler "s228" with entities [EventEntity, EventEntity], work=626*
323: 0x1098 [0x45] LOAD_SCHEDULED_TASK: Load scheduler "s229" with entities [EventEntity, EventEntity], work=[626*, 0*]
324: 0x10A9 [0xBB] LOAD_EVENT_SCHEDULER_ALT: Load scheduler "main" with entities [Araustoix (ID: 17891736/0x01110198), Araustoix (ID: 17891736/0x01110198)], work=[6*, 0*]
325: 0x10BA [0x1C] WAIT(180* ticks)
326: 0x10BD [0x52] END_LOAD_SCHEDULER: End scheduler "s229" with entities [EventEntity, EventEntity], work=626*
327: 0x10CC [0x45] LOAD_SCHEDULED_TASK: Load scheduler "s230" with entities [EventEntity, EventEntity], work=[626*, 0*]
328: 0x10DD [0x4A] Nashu (ID: 17891728/0x01110190) looks at LocalPlayer
329: 0x10E6 [0x1C] WAIT(30* ticks)
330: 0x10E9 [0x4A] LocalPlayer looks at Nashu (ID: 17891728/0x01110190)
331: 0x10F2 [0x2B] Nashu (ID: 17891728/0x01110190) [7787*]:
    → "<Player>, you have been more than kind putting up with my absurd requests, and for that I am eternally in your debt."
332: 0x10F9 [0x23] WAIT_FOR_DIALOG_INTERACTION
333: 0x10FA [0x66] LOAD_EXT_SCHEDULER_MAIN: Load scheduler "pas0" with entities [Nashu (ID: 17891728/0x01110190), Nashu (ID: 17891728/0x01110190)], work=71*
334: 0x1109 [0x2B] Nashu (ID: 17891728/0x01110190) [7788*]:
    → "Please accept this as compensation for your troubles."
335: 0x1110 [0x23] WAIT_FOR_DIALOG_INTERACTION
336: 0x1111 [0x53] WAIT_SCHEDULER_TASK: Wait for scheduler "pas0" with entities [Nashu (ID: 17891728/0x01110190), Nashu (ID: 17891728/0x01110190)]
337: 0x111E [0x52] END_LOAD_SCHEDULER: End scheduler "s230" with entities [EventEntity, EventEntity], work=626*
338: 0x112D [0x45] LOAD_SCHEDULED_TASK: Load scheduler "s231" with entities [EventEntity, EventEntity], work=[626*, 0*]
339: 0x113E [0x6E] Nashu (ID: 17891728/0x01110190) uses emote 7*
340: 0x1145 [0x99] Wait for Nashu (ID: 17891728/0x01110190) animation to complete
341: 0x114A [0x2B] Nashu (ID: 17891728/0x01110190) [7789*]:
    → "Thanks to your valiant efforts, we have seized the coven's potentially life-threatening bulb, and our city is safe for the time being."
342: 0x1151 [0x23] WAIT_FOR_DIALOG_INTERACTION
343: 0x1152 [0x6E] Nashu (ID: 17891728/0x01110190) uses emote 6*
344: 0x1159 [0x99] Wait for Nashu (ID: 17891728/0x01110190) animation to complete
345: 0x115E [0x2B] Nashu (ID: 17891728/0x01110190) [7790*]:
    → "And yet that black-hearted Mithra took it upon herself to save me from certain death..."
346: 0x1165 [0x23] WAIT_FOR_DIALOG_INTERACTION
347: 0x1166 [0x52] END_LOAD_SCHEDULER: End scheduler "s231" with entities [EventEntity, EventEntity], work=626*
348: 0x1175 [0x45] LOAD_SCHEDULED_TASK: Load scheduler "s232" with entities [EventEntity, EventEntity], work=[626*, 0*]
349: 0x1186 [0x66] LOAD_EXT_SCHEDULER_MAIN: Load scheduler "tlk0" with entities [Nashu (ID: 17891728/0x01110190), Nashu (ID: 17891728/0x01110190)], work=9*
350: 0x1195 [0x2B] Nashu (ID: 17891728/0x01110190) [7791*]:
    → "Well, I best get back and face the music. Fare thee well, <Player>, and may we meet again soon!"
351: 0x119C [0x23] WAIT_FOR_DIALOG_INTERACTION
352: 0x119D [0x66] LOAD_EXT_SCHEDULER_MAIN: Load scheduler "tlk1" with entities [Nashu (ID: 17891728/0x01110190), Nashu (ID: 17891728/0x01110190)], work=9*
353: 0x11AC [0x52] END_LOAD_SCHEDULER: End scheduler "s232" with entities [EventEntity, EventEntity], work=626*
354: 0x11BB [0x45] LOAD_SCHEDULED_TASK: Load scheduler "s233" with entities [EventEntity, EventEntity], work=[626*, 0*]
355: 0x11CC [0xBB] LOAD_EVENT_SCHEDULER_ALT: Load scheduler "main" with entities [Nashu (ID: 17891728/0x01110190), Nashu (ID: 17891728/0x01110190)], work=[6*, 0*]
356: 0x11DD [0x1C] WAIT(180* ticks)
357: 0x11E0 [0x5D] SET_MUSIC_VOLUME(volume=0*, fade_time=120*)
358: 0x11E5 [0x45] LOAD_SCHEDULED_TASK: Load scheduler "fdo1" with entities [EventEntity, EventEntity], work=[200*, 0*]
359: 0x11F6 [0x55] WAIT_LOAD_SCHEDULER: Wait for scheduler "fdo1" with entities [EventEntity, EventEntity], work=200*
360: 0x1205 [0x52] END_LOAD_SCHEDULER: End scheduler "s233" with entities [EventEntity, EventEntity], work=626*
361: 0x1214 [0x45] LOAD_SCHEDULED_TASK: Load scheduler "qstc" with entities [EventEntity, EventEntity], work=[201*, 0*]
362: 0x1225 [0x5C] MUSIC_CONTROL: Set Idle (Day) music to song 0*
363: 0x1229 [0x5C] MUSIC_CONTROL: Set Idle (Night) music to song 0*
364: 0x122D [0x9A] WAIT_MUSIC_SERVER()
365: 0x122E [0x46] CAMERA_CONTROL: Restore default settings
366: 0x1230 [0x45] LOAD_SCHEDULED_TASK: Load scheduler "fdi2" with entities [EventEntity, EventEntity], work=[200*, 0*]
367: 0x1241 [0x21] END_EVENT
368: 0x1242 [0x00] END_REQSTACK()
```
