# Event 3

## Metadata

| Field           | Value    |
|-----------------|----------|
| Event Index     | 3/5      |
| Offset          | 0x001A   |
| Data Size       | 77 bytes |
| Calculated Size | 77 bytes |
| Instructions    | 13       |

```
      00 01 02 03 04 05 06 07  08 09 0A 0B 0C 0D 0E 0F
      -- -- -- -- -- -- -- --  -- -- -- -- -- -- -- --
0010:                                53 F0 FF FF 7F F0            S.....
0020: FF FF 7F 72 65 73 30 53  F0 FF FF 7F F0 FF FF 7F  ...res0S........
0030: 72 65 73 32 4A F0 FF FF  7F 88 F1 08 01 24 03 80  res2J........$..
0040: 04 80 01 80 25 02 00 10  01 80 00 55 00 03 01 10  ....%......U....
0050: 04 80 01 65 00 02 00 10  04 80 00 65 00 03 01 10  ...e.......e....
0060: 01 80 01 65 00 21 00                              ...e.!.         
```

## Opcodes

```
  0: 0x001A [0x53] WAIT_SCHEDULER_TASK: Wait for scheduler "res0" with entities [LocalPlayer, LocalPlayer]
  1: 0x0027 [0x53] WAIT_SCHEDULER_TASK: Wait for scheduler "res2" with entities [LocalPlayer, LocalPlayer]
  2: 0x0034 [0x4A] LocalPlayer looks at Dock Lever (ID: 17363336/0x0108F188)
  3: 0x003D [0x24] CREATE_DIALOG(message_id=7330*, default_option=1*, option_flags=0*)
    → "Pull lever?\u0007\u000BYes.\u0007No.\u007F1\u0000\u0007"
  4: 0x0044 [0x25] WAIT_DIALOG_SELECT()
  5: 0x0045 [0x02] IF !(Work_Zone[0] == 0*) GOTO 0x0055
  6: 0x004D [0x03] Work_Zone[1] = 1*
  7: 0x0052 [0x01] GOTO 0x0065
  8: 0x0055 [0x02] IF !(Work_Zone[0] == 1*) GOTO 0x0065
  9: 0x005D [0x03] Work_Zone[1] = 0*
 10: 0x0062 [0x01] GOTO 0x0065

SUBROUTINE_0065:
 11: 0x0065 [0x21] END_EVENT
 12: 0x0066 [0x00] END_REQSTACK()
```
