# Event 65535

## Metadata

| Field           | Value    |
|-----------------|----------|
| Event Index     | 63/101   |
| Offset          | 0x0CB9   |
| Data Size       | 23 bytes |
| Calculated Size | 23 bytes |
| Instructions    | 7        |

```
      00 01 02 03 04 05 06 07  08 09 0A 0B 0C 0D 0E 0F
      -- -- -- -- -- -- -- --  -- -- -- -- -- -- -- --
0CB0:                             29 08 0C E0 0E 01 01           )......
0CC0: 1D 54 80 23 1D 55 80 23  29 08 0C E0 0E 01 02 00  .T.#.U.#).......
```

## Opcodes

```
  0: 0x0CB9 [0x29] REQ_SET_WAIT(priority=0x08, entity_id=Mokyokyo (ID: 17752076/0x010EE00C), tag_num=0x01)
  1: 0x0CC0 [0x1D] PRINT_EVENT_MESSAGE(message_id=7650*)
    → "Very well...\u0007Go meet the Minister of the Optistery.\u007F1\u0000\u0007"
  2: 0x0CC3 [0x23] WAIT_FOR_DIALOG_INTERACTION
  3: 0x0CC4 [0x1D] PRINT_EVENT_MESSAGE(message_id=7651*)
    → "The Library of Magic is straight up the road there.\u0007The road runs between the two wings of the Optistery building.\u007F1\u0000\u0007"
  4: 0x0CC7 [0x23] WAIT_FOR_DIALOG_INTERACTION
  5: 0x0CC8 [0x29] REQ_SET_WAIT(priority=0x08, entity_id=Mokyokyo (ID: 17752076/0x010EE00C), tag_num=0x02)
  6: 0x0CCF [0x00] END_REQSTACK()
```
