# Event 65535

## Metadata

| Field           | Value    |
|-----------------|----------|
| Event Index     | 17/17    |
| Offset          | 0x00AD   |
| Data Size       | 55 bytes |
| Calculated Size | 55 bytes |
| Instructions    | 16       |

```
      00 01 02 03 04 05 06 07  08 09 0A 0B 0C 0D 0E 0F
      -- -- -- -- -- -- -- --  -- -- -- -- -- -- -- --
00A0:                                         02 87 7F               ...
00B0: 15 80 00 E3 00 1E F0 FF  FF 7F 1C 16 80 32 09 80  .............2..
00C0: 1F 00 17 80 18 80 03 80  1F 01 6F 1C 16 80 1E F0  ..........o.....
00D0: FF FF 7F 6F 70 32 00 80  1F 00 19 80 1A 80 03 80  ...op2..........
00E0: 1F 01 6F 00                                       ..o.            
```

## Opcodes

```
  0: 0x00AD [0x02] IF !(LocalPlayer->Race == 8*) GOTO 0x00E3
  1: 0x00B5 [0x1E] EventEntity looks at LocalPlayer and starts talking
  2: 0x00BA [0x1C] WAIT(30* ticks)
  3: 0x00BD [0x32] ExtData[1]->MainSpeed = 40* * 0.1
  4: 0x00C0 [0x1F] MOVE_ENTITY: EventEntity moves to X=-11.335*, Z=29.429*, Y=0.000*
  5: 0x00C8 [0x1F] MOVE_ENTITY: Update entity position (mode=1)
  6: 0x00CA [0x6F] WAIT_FRAME_DELAY: Yield until WaitTime reaches zero
  7: 0x00CB [0x1C] WAIT(30* ticks)
  8: 0x00CE [0x1E] EventEntity looks at LocalPlayer and starts talking
  9: 0x00D3 [0x6F] WAIT_FRAME_DELAY: Yield until WaitTime reaches zero
 10: 0x00D4 [0x70] WAIT_ENTITY_RENDER_FLAG: Wait while EventEntity->Render.Flags3 bit 2 is set (cancel turn if not)
 11: 0x00D5 [0x32] ExtData[1]->MainSpeed = 13* * 0.1
 12: 0x00D8 [0x1F] MOVE_ENTITY: EventEntity moves to X=-10.914*, Z=30.112*, Y=0.000*
 13: 0x00E0 [0x1F] MOVE_ENTITY: Update entity position (mode=1)
 14: 0x00E2 [0x6F] WAIT_FRAME_DELAY: Yield until WaitTime reaches zero
 15: 0x00E3 [0x00] END_REQSTACK()
```
