# 17944598 - Suibhne

## Common Data

| Field            | Value              |
|------------------|--------------------|
| Zone             | Feretory (ID: 285) |
| Block Size       | 1116 bytes         |
| Total Events     | 3                  |
| References Count | 29                 |

## List of Events

| Event ID              | Entrypoint   |   Size |   Instructions |
|-----------------------|--------------|--------|----------------|
| [65535](#event-65535) | 0x0000       |      1 |              1 |
| [12](#event-12)       | 0x0001       |    876 |            178 |
| [16](#event-16)       | 0x036D       |     94 |             17 |

## DAT References (imed_data)

|   Index | Hex Value   |   Dec Value |
|---------|-------------|-------------|
|       0 | 0x0000      |           0 |
|       1 | 0x0001      |           1 |
|       2 | 0x1CD5      |        7381 |
|       3 | 0x1CD6      |        7382 |
|       4 | 0x1CD7      |        7383 |
|       5 | 0x1CD8      |        7384 |
|       6 | 0x00E7      |         231 |
|       7 | 0x0002      |           2 |
|       8 | 0x00F0      |         240 |
|       9 | 0x0003      |           3 |
|      10 | 0x00EC      |         236 |
|      11 | 0x1CD9      |        7385 |
|      12 | 0x1CDA      |        7386 |
|      13 | 0x0004      |           4 |
|      14 | 0x0005      |           5 |
|      15 | 0x1CDB      |        7387 |
|      16 | 0x1CDC      |        7388 |
|      17 | 0x000F      |          15 |
|      18 | 0x0010      |          16 |
|      19 | 0x0012      |          18 |
|      20 | 0x0013      |          19 |
|      21 | 0x0015      |          21 |
|      22 | 0x0016      |          22 |
|      23 | 0x0018      |          24 |
|      24 | 0x1CDD      |        7389 |
|      25 | 0x1CE1      |        7393 |
|      26 | 0x1CDF      |        7391 |
|      27 | 0x001A      |          26 |
|      28 | 0x001F      |          31 |

## String References

- **7381**: What do you wish to do? [Aim for higher heights./Engage in friendly banter./Nothing.]
- **7382**: Prithee shed thy corporeal shackles and drift closer to the true essence of a monipulator?
- **7383**: Shed your shackles? [Yes, get them off me!/No, they feel fine!]
- **7384**: On to question number $0, then!
- **7385**: Which one of us roams $8?
- **7386**: Who is there? [What was the question again?/Aengus./Maccus./Suibhne./Teyrnon.]
- **7387**: Verily!
- **7388**: Avaunt! Thy wrong answer doth put me in ill humor. Returnest on the morrow when my disappointment in thee hath abated.
- **7389**: Thou hast obtained a perfect score! In recognition of thine achievement, allow me to impart this symbol of spiritual enlightenment upon thee.
- **7391**: Ah, the $1 $0 for which I asked. Very well, then...
- **7393**: Ho? Thou covetest our species for thy arsenal? Pshhh. Mayhap some day.

## Events

### Event 65535

#### Metadata

| Field        | Value   |
|--------------|---------|
| Entrypoint   | 0x0000  |
| Data Size    | 1 bytes |
| Instructions | 1       |

```
      00 01 02 03 04 05 06 07  08 09 0A 0B 0C 0D 0E 0F
      -- -- -- -- -- -- -- --  -- -- -- -- -- -- -- --
0000: 00                                                .               
```

#### Opcodes

```
  0: 0x0000 [0x00] END_REQSTACK()
```

### Event 12

#### Metadata

| Field        | Value     |
|--------------|-----------|
| Entrypoint   | 0x0001    |
| Data Size    | 876 bytes |
| Instructions | 169       |

```
      00 01 02 03 04 05 06 07  08 09 0A 0B 0C 0D 0E 0F
      -- -- -- -- -- -- -- --  -- -- -- -- -- -- -- --
0000:    03 01 10 00 80 06 00  00 06 01 00 06 02 00 06   ...............
0010: 03 00 03 05 00 00 80 03  06 00 00 80 03 07 00 00  ................
0020: 80 03 09 00 00 80 03 08  00 00 80 03 0A 00 00 80  ................
0030: 03 0B 00 00 80 03 0C 00  00 80 03 0D 00 00 80 03  ................
0040: 0E 00 00 80 03 0F 00 01  80 03 08 00 02 10 03 09  ................
0050: 00 03 10 4A F0 FF FF 7F  F8 FF FF 7F 4A F8 FF FF  ...J........J...
0060: 7F F0 FF FF 7F 6F 76 F8  FF FF 7F 05 00 00 02 08  .....ov.........
0070: 00 00 80 00 7D 00 3C 07  00 00 80 01 80 02 00 00  ....}.<.........
0080: 00 80 02 6B 03 24 02 80  00 80 07 00 25 02 00 10  ...k.$......%...
0090: 00 80 00 48 03 1D 03 80  23 24 04 80 01 80 00 80  ...H....#$......
00A0: 25 02 00 10 00 80 00 3A  03 05 01 00 42 02 01 00  %......:....B...
00B0: 00 80 02 37 03 03 02 10  0F 00 1D 05 80 23 02 0F  ...7.........#..
00C0: 00 01 80 80 CE 00 03 02  10 06 80 01 EE 00 02 0F  ................
00D0: 00 07 80 80 DE 00 03 02  10 08 80 01 EE 00 02 0F  ................
00E0: 00 09 80 80 EE 00 03 02  10 0A 80 01 EE 00 1D 0B  ................
00F0: 80 23 24 0C 80 00 80 00  80 25 02 00 10 00 80 00  .#$......%......
0100: 08 01 01 BE 00 01 34 01  02 00 10 01 80 00 13 01  ......4.........
0110: 01 34 01 02 00 10 07 80  00 1E 01 01 34 01 02 00  .4..........4...
0120: 10 09 80 00 29 01 01 34  01 02 00 10 0D 80 00 34  ....)..4.......4
0130: 01 01 34 01 03 0B 00 00  10 02 0B 00 00 80 01 34  ..4............4
0140: 03 02 09 00 00 80 80 7C  01 02 0F 00 01 80 80 59  .......|.......Y
0150: 01 03 0A 00 0D 80 01 79  01 02 0F 00 07 80 80 69  .......y.......i
0160: 01 03 0A 00 01 80 01 79  01 02 0F 00 09 80 80 79  .......y.......y
0170: 01 03 0A 00 09 80 01 79  01 01 A3 02 02 09 00 01  .......y........
0180: 80 80 B7 01 02 0F 00 01  80 80 94 01 03 0A 00 0D  ................
0190: 80 01 B4 01 02 0F 00 07  80 80 A4 01 03 0A 00 09  ................
01A0: 80 01 B4 01 02 0F 00 09  80 80 B4 01 03 0A 00 01  ................
01B0: 80 01 B4 01 01 A3 02 02  09 00 07 80 80 F2 01 02  ................
01C0: 0F 00 01 80 80 CF 01 03  0A 00 01 80 01 EF 01 02  ................
01D0: 0F 00 07 80 80 DF 01 03  0A 00 0D 80 01 EF 01 02  ................
01E0: 0F 00 09 80 80 EF 01 03  0A 00 09 80 01 EF 01 01  ................
01F0: A3 02 02 09 00 09 80 80  2D 02 02 0F 00 01 80 80  ........-.......
0200: 0A 02 03 0A 00 01 80 01  2A 02 02 0F 00 07 80 80  ........*.......
0210: 1A 02 03 0A 00 09 80 01  2A 02 02 0F 00 09 80 80  ........*.......
0220: 2A 02 03 0A 00 0D 80 01  2A 02 01 A3 02 02 09 00  *.......*.......
0230: 0D 80 80 68 02 02 0F 00  01 80 80 45 02 03 0A 00  ...h.......E....
0240: 09 80 01 65 02 02 0F 00  07 80 80 55 02 03 0A 00  ...e.......U....
0250: 01 80 01 65 02 02 0F 00  09 80 80 65 02 03 0A 00  ...e.......e....
0260: 0D 80 01 65 02 01 A3 02  02 09 00 0E 80 80 A3 02  ...e............
0270: 02 0F 00 01 80 80 80 02  03 0A 00 09 80 01 A0 02  ................
0280: 02 0F 00 07 80 80 90 02  03 0A 00 0D 80 01 A0 02  ................
0290: 02 0F 00 09 80 80 A0 02  03 0A 00 01 80 01 A0 02  ................
02A0: 01 A3 02 02 0B 00 0A 00  00 E5 02 1D 0F 80 23 02  ..............#.
02B0: 0F 00 01 80 80 BF 02 03  0C 00 0B 00 01 DF 02 02  ................
02C0: 0F 00 07 80 80 CF 02 03  0D 00 0B 00 01 DF 02 02  ................
02D0: 0F 00 09 80 80 DF 02 03  0E 00 0B 00 01 DF 02 0B  ................
02E0: 0F 00 01 FB 02 1D 10 80  23 40 00 80 11 80 01 10  ........#@......
02F0: 07 80 06 00 00 06 01 00  06 02 00 02 0F 00 0D 80  ................
0300: 00 34 03 40 00 80 11 80  01 10 01 80 40 12 80 13  .4.@........@...
0310: 80 01 10 0C 00 40 14 80  15 80 01 10 0D 00 40 16  .....@........@.
0320: 80 17 80 01 10 0E 00 1D  18 80 23 06 00 00 06 01  ..........#.....
0330: 00 06 02 00 01 AD 00 01  45 03 02 00 10 01 80 00  ........E.......
0340: 45 03 01 45 03 01 68 03  02 00 10 01 80 00 5A 03  E..E..h.......Z.
0350: 1D 19 80 23 06 00 00 01  68 03 02 00 10 07 80 00  ...#....h.......
0360: 68 03 06 00 00 01 68 03  01 7D 00 21 00           h.....h..}.!.   
```

#### Opcodes

```
  0: 0x0001 [0x03] Work_Zone[1] = 0*
  1: 0x0006 [0x06] ExtData[1]->WorkLocal[0] = 0
  2: 0x0009 [0x06] ExtData[1]->WorkLocal[1] = 0
  3: 0x000C [0x06] ExtData[1]->WorkLocal[2] = 0
  4: 0x000F [0x06] ExtData[1]->WorkLocal[3] = 0
  5: 0x0012 [0x03] ExtData[1]->WorkLocal[5] = 0*
  6: 0x0017 [0x03] ExtData[1]->WorkLocal[6] = 0*
  7: 0x001C [0x03] ExtData[1]->WorkLocal[7] = 0*
  8: 0x0021 [0x03] ExtData[1]->WorkLocal[9] = 0*
  9: 0x0026 [0x03] ExtData[1]->WorkLocal[8] = 0*
 10: 0x002B [0x03] ExtData[1]->WorkLocal[10] = 0*
 11: 0x0030 [0x03] ExtData[1]->WorkLocal[11] = 0*
 12: 0x0035 [0x03] ExtData[1]->WorkLocal[12] = 0*
 13: 0x003A [0x03] ExtData[1]->WorkLocal[13] = 0*
 14: 0x003F [0x03] ExtData[1]->WorkLocal[14] = 0*
 15: 0x0044 [0x03] ExtData[1]->WorkLocal[15] = 1*
 16: 0x0049 [0x03] ExtData[1]->WorkLocal[8] = Work_Zone[2]
 17: 0x004E [0x03] ExtData[1]->WorkLocal[9] = Work_Zone[3]
 18: 0x0053 [0x4A] LocalPlayer looks at EventEntity
 19: 0x005C [0x4A] EventEntity looks at LocalPlayer
 20: 0x0065 [0x6F] WAIT_FRAME_DELAY: Yield until WaitTime reaches zero
 21: 0x0066 [0x76] CHECK_ENTITY_RENDER_FLAGS: Wait until EventEntity Render.Flags0 and Render.Flags3 conditions are met
 22: 0x006B [0x05] ExtData[1]->WorkLocal[0] = 1
 23: 0x006E [0x02] IF !(ExtData[1]->WorkLocal[8] == 0*) GOTO 0x007D
 24: 0x0076 [0x3C] SET_BIT_FLAG_CONDITIONAL(target_work_offset=ExtData[1]->WorkLocal[7], bit_index_work_offset=0*, condition_work_offset=1*)
 25: 0x007D [0x02] IF !(ExtData[1]->WorkLocal[0] <= 0*) GOTO 0x036B
 26: 0x0085 [0x24] CREATE_DIALOG(message_id=7381*, default_option=0*, option_flags=ExtData[1]->WorkLocal[7])
    → "What do you wish to do? [Aim for higher heights./Engage in friendly banter./Nothing.]"
 27: 0x008C [0x25] WAIT_DIALOG_SELECT()
 28: 0x008D [0x02] IF !(Work_Zone[0] == 0*) GOTO 0x0348
 29: 0x0095 [0x1D] PRINT_EVENT_MESSAGE(message_id=7382*)
    → "Prithee shed thy corporeal shackles and drift closer to the true essence of a monipulator?"
 30: 0x0098 [0x23] WAIT_FOR_DIALOG_INTERACTION
 31: 0x0099 [0x24] CREATE_DIALOG(message_id=7383*, default_option=1*, option_flags=0*)
    → "Shed your shackles? [Yes, get them off me!/No, they feel fine!]"
 32: 0x00A0 [0x25] WAIT_DIALOG_SELECT()
 33: 0x00A1 [0x02] IF !(Work_Zone[0] == 0*) GOTO 0x033A
 34: 0x00A9 [0x05] ExtData[1]->WorkLocal[1] = 1
 35: 0x00AC [0x42] SET_CLI_EVENT_CANCEL_DATA()
 36: 0x00AD [0x02] IF !(ExtData[1]->WorkLocal[1] <= 0*) GOTO 0x0337
 37: 0x00B5 [0x03] Work_Zone[2] = ExtData[1]->WorkLocal[15]
 38: 0x00BA [0x1D] PRINT_EVENT_MESSAGE(message_id=7384*)
    → "On to question number $0, then!"
 39: 0x00BD [0x23] WAIT_FOR_DIALOG_INTERACTION
 40: 0x00BE [0x02] IF !(ExtData[1]->WorkLocal[15] == 1*) GOTO 0x00CE
 41: 0x00C6 [0x03] Work_Zone[2] = 231*
 42: 0x00CB [0x01] GOTO 0x00EE
 43: 0x00CE [0x02] IF !(ExtData[1]->WorkLocal[15] == 2*) GOTO 0x00DE
 44: 0x00D6 [0x03] Work_Zone[2] = 240*
 45: 0x00DB [0x01] GOTO 0x00EE
 46: 0x00DE [0x02] IF !(ExtData[1]->WorkLocal[15] == 3*) GOTO 0x00EE
 47: 0x00E6 [0x03] Work_Zone[2] = 236*
 48: 0x00EB [0x01] GOTO 0x00EE

SUBROUTINE_00EE:
 49: 0x00EE [0x1D] PRINT_EVENT_MESSAGE(message_id=7385*)
    → "Which one of us roams $8?"
 50: 0x00F1 [0x23] WAIT_FOR_DIALOG_INTERACTION
 51: 0x00F2 [0x24] CREATE_DIALOG(message_id=7386*, default_option=0*, option_flags=0*)
    → "Who is there? [What was the question again?/Aengus./Maccus./Suibhne./Teyrnon.]"
 52: 0x00F9 [0x25] WAIT_DIALOG_SELECT()
 53: 0x00FA [0x02] IF !(Work_Zone[0] == 0*) GOTO 0x0108
 54: 0x0102 [0x01] GOTO 0x00BE

SUBROUTINE_0134:
 55: 0x0134 [0x03] ExtData[1]->WorkLocal[11] = Work_Zone[0]
 56: 0x0139 [0x02] IF !(ExtData[1]->WorkLocal[11] == 0*) GOTO 0x0334
 57: 0x0141 [0x02] IF !(ExtData[1]->WorkLocal[9] == 0*) GOTO 0x017C
 58: 0x0149 [0x02] IF !(ExtData[1]->WorkLocal[15] == 1*) GOTO 0x0159
 59: 0x0151 [0x03] ExtData[1]->WorkLocal[10] = 4*
 60: 0x0156 [0x01] GOTO 0x0179
 61: 0x0159 [0x02] IF !(ExtData[1]->WorkLocal[15] == 2*) GOTO 0x0169
 62: 0x0161 [0x03] ExtData[1]->WorkLocal[10] = 1*
 63: 0x0166 [0x01] GOTO 0x0179
 64: 0x0169 [0x02] IF !(ExtData[1]->WorkLocal[15] == 3*) GOTO 0x0179
 65: 0x0171 [0x03] ExtData[1]->WorkLocal[10] = 3*
 66: 0x0176 [0x01] GOTO 0x0179

SUBROUTINE_0179:
 67: 0x0179 [0x01] GOTO 0x02A3
 68: 0x017C [0x02] IF !(ExtData[1]->WorkLocal[9] == 1*) GOTO 0x01B7
 69: 0x0184 [0x02] IF !(ExtData[1]->WorkLocal[15] == 1*) GOTO 0x0194
 70: 0x018C [0x03] ExtData[1]->WorkLocal[10] = 4*
 71: 0x0191 [0x01] GOTO 0x01B4
 72: 0x0194 [0x02] IF !(ExtData[1]->WorkLocal[15] == 2*) GOTO 0x01A4
 73: 0x019C [0x03] ExtData[1]->WorkLocal[10] = 3*
 74: 0x01A1 [0x01] GOTO 0x01B4
 75: 0x01A4 [0x02] IF !(ExtData[1]->WorkLocal[15] == 3*) GOTO 0x01B4
 76: 0x01AC [0x03] ExtData[1]->WorkLocal[10] = 1*
 77: 0x01B1 [0x01] GOTO 0x01B4

SUBROUTINE_01B4:
 78: 0x01B4 [0x01] GOTO 0x02A3
 79: 0x01B7 [0x02] IF !(ExtData[1]->WorkLocal[9] == 2*) GOTO 0x01F2
 80: 0x01BF [0x02] IF !(ExtData[1]->WorkLocal[15] == 1*) GOTO 0x01CF
 81: 0x01C7 [0x03] ExtData[1]->WorkLocal[10] = 1*
 82: 0x01CC [0x01] GOTO 0x01EF
 83: 0x01CF [0x02] IF !(ExtData[1]->WorkLocal[15] == 2*) GOTO 0x01DF
 84: 0x01D7 [0x03] ExtData[1]->WorkLocal[10] = 4*
 85: 0x01DC [0x01] GOTO 0x01EF
 86: 0x01DF [0x02] IF !(ExtData[1]->WorkLocal[15] == 3*) GOTO 0x01EF
 87: 0x01E7 [0x03] ExtData[1]->WorkLocal[10] = 3*
 88: 0x01EC [0x01] GOTO 0x01EF

SUBROUTINE_01EF:
 89: 0x01EF [0x01] GOTO 0x02A3
 90: 0x01F2 [0x02] IF !(ExtData[1]->WorkLocal[9] == 3*) GOTO 0x022D
 91: 0x01FA [0x02] IF !(ExtData[1]->WorkLocal[15] == 1*) GOTO 0x020A
 92: 0x0202 [0x03] ExtData[1]->WorkLocal[10] = 1*
 93: 0x0207 [0x01] GOTO 0x022A
 94: 0x020A [0x02] IF !(ExtData[1]->WorkLocal[15] == 2*) GOTO 0x021A
 95: 0x0212 [0x03] ExtData[1]->WorkLocal[10] = 3*
 96: 0x0217 [0x01] GOTO 0x022A
 97: 0x021A [0x02] IF !(ExtData[1]->WorkLocal[15] == 3*) GOTO 0x022A
 98: 0x0222 [0x03] ExtData[1]->WorkLocal[10] = 4*
 99: 0x0227 [0x01] GOTO 0x022A

SUBROUTINE_022A:
100: 0x022A [0x01] GOTO 0x02A3
101: 0x022D [0x02] IF !(ExtData[1]->WorkLocal[9] == 4*) GOTO 0x0268
102: 0x0235 [0x02] IF !(ExtData[1]->WorkLocal[15] == 1*) GOTO 0x0245
103: 0x023D [0x03] ExtData[1]->WorkLocal[10] = 3*
104: 0x0242 [0x01] GOTO 0x0265
105: 0x0245 [0x02] IF !(ExtData[1]->WorkLocal[15] == 2*) GOTO 0x0255
106: 0x024D [0x03] ExtData[1]->WorkLocal[10] = 1*
107: 0x0252 [0x01] GOTO 0x0265
108: 0x0255 [0x02] IF !(ExtData[1]->WorkLocal[15] == 3*) GOTO 0x0265
109: 0x025D [0x03] ExtData[1]->WorkLocal[10] = 4*
110: 0x0262 [0x01] GOTO 0x0265

SUBROUTINE_0265:
111: 0x0265 [0x01] GOTO 0x02A3
112: 0x0268 [0x02] IF !(ExtData[1]->WorkLocal[9] == 5*) GOTO 0x02A3
113: 0x0270 [0x02] IF !(ExtData[1]->WorkLocal[15] == 1*) GOTO 0x0280
114: 0x0278 [0x03] ExtData[1]->WorkLocal[10] = 3*
115: 0x027D [0x01] GOTO 0x02A0
116: 0x0280 [0x02] IF !(ExtData[1]->WorkLocal[15] == 2*) GOTO 0x0290
117: 0x0288 [0x03] ExtData[1]->WorkLocal[10] = 4*
118: 0x028D [0x01] GOTO 0x02A0
119: 0x0290 [0x02] IF !(ExtData[1]->WorkLocal[15] == 3*) GOTO 0x02A0
120: 0x0298 [0x03] ExtData[1]->WorkLocal[10] = 1*
121: 0x029D [0x01] GOTO 0x02A0

SUBROUTINE_02A0:
122: 0x02A0 [0x01] GOTO 0x02A3

SUBROUTINE_02A3:
123: 0x02A3 [0x02] IF !(ExtData[1]->WorkLocal[11] == ExtData[1]->WorkLocal[10]) GOTO 0x02E5
124: 0x02AB [0x1D] PRINT_EVENT_MESSAGE(message_id=7387*)
    → "Verily!"
125: 0x02AE [0x23] WAIT_FOR_DIALOG_INTERACTION
126: 0x02AF [0x02] IF !(ExtData[1]->WorkLocal[15] == 1*) GOTO 0x02BF
127: 0x02B7 [0x03] ExtData[1]->WorkLocal[12] = ExtData[1]->WorkLocal[11]
128: 0x02BC [0x01] GOTO 0x02DF
129: 0x02BF [0x02] IF !(ExtData[1]->WorkLocal[15] == 2*) GOTO 0x02CF
130: 0x02C7 [0x03] ExtData[1]->WorkLocal[13] = ExtData[1]->WorkLocal[11]
131: 0x02CC [0x01] GOTO 0x02DF
132: 0x02CF [0x02] IF !(ExtData[1]->WorkLocal[15] == 3*) GOTO 0x02DF
133: 0x02D7 [0x03] ExtData[1]->WorkLocal[14] = ExtData[1]->WorkLocal[11]
134: 0x02DC [0x01] GOTO 0x02DF

SUBROUTINE_02DF:
135: 0x02DF [0x0B] ExtData[1]->WorkLocal[15]++
136: 0x02E2 [0x01] GOTO 0x02FB
137: 0x02E5 [0x1D] PRINT_EVENT_MESSAGE(message_id=7388*)
    → "Avaunt! Thy wrong answer doth put me in ill humor. Returnest on the morrow when my disappointment in thee hath abated."
138: 0x02E8 [0x23] WAIT_FOR_DIALOG_INTERACTION
139: 0x02E9 [0x40] SET_BIT_WORK_RANGE(start_bit=0*, end_bit=15*, target=Work_Zone[1], source=2*)
140: 0x02F2 [0x06] ExtData[1]->WorkLocal[0] = 0
141: 0x02F5 [0x06] ExtData[1]->WorkLocal[1] = 0
142: 0x02F8 [0x06] ExtData[1]->WorkLocal[2] = 0

SUBROUTINE_02FB:
143: 0x02FB [0x02] IF !(ExtData[1]->WorkLocal[15] == 4*) GOTO 0x0334
144: 0x0303 [0x40] SET_BIT_WORK_RANGE(start_bit=0*, end_bit=15*, target=Work_Zone[1], source=1*)
145: 0x030C [0x40] SET_BIT_WORK_RANGE(start_bit=16*, end_bit=18*, target=Work_Zone[1], source=ExtData[1]->WorkLocal[12])
146: 0x0315 [0x40] SET_BIT_WORK_RANGE(start_bit=19*, end_bit=21*, target=Work_Zone[1], source=ExtData[1]->WorkLocal[13])
147: 0x031E [0x40] SET_BIT_WORK_RANGE(start_bit=22*, end_bit=24*, target=Work_Zone[1], source=ExtData[1]->WorkLocal[14])
148: 0x0327 [0x1D] PRINT_EVENT_MESSAGE(message_id=7389*)
    → "Thou hast obtained a perfect score! In recognition of thine achievement, allow me to impart this symbol of spiritual enlightenment upon thee."
149: 0x032A [0x23] WAIT_FOR_DIALOG_INTERACTION
150: 0x032B [0x06] ExtData[1]->WorkLocal[0] = 0
151: 0x032E [0x06] ExtData[1]->WorkLocal[1] = 0
152: 0x0331 [0x06] ExtData[1]->WorkLocal[2] = 0
153: 0x0334 [0x01] GOTO 0x00AD
154: 0x0337 [0x01] GOTO 0x0345
155: 0x033A [0x02] IF !(Work_Zone[0] == 1*) GOTO 0x0345
156: 0x0342 [0x01] GOTO 0x0345

SUBROUTINE_0345:
157: 0x0345 [0x01] GOTO 0x0368
158: 0x0348 [0x02] IF !(Work_Zone[0] == 1*) GOTO 0x035A
159: 0x0350 [0x1D] PRINT_EVENT_MESSAGE(message_id=7393*)
    → "Ho? Thou covetest our species for thy arsenal? Pshhh. Mayhap some day."
160: 0x0353 [0x23] WAIT_FOR_DIALOG_INTERACTION
161: 0x0354 [0x06] ExtData[1]->WorkLocal[0] = 0
162: 0x0357 [0x01] GOTO 0x0368
163: 0x035A [0x02] IF !(Work_Zone[0] == 2*) GOTO 0x0368
164: 0x0362 [0x06] ExtData[1]->WorkLocal[0] = 0
165: 0x0365 [0x01] GOTO 0x0368

SUBROUTINE_0368:
166: 0x0368 [0x01] GOTO 0x007D
167: 0x036B [0x21] END_EVENT
168: 0x036C [0x00] END_REQSTACK()
```

#### Data or dead code:

```
# Dead code (unreachable instructions):
     0x0105 [0x01] GOTO 0x0134
```

### Event 16

#### Metadata

| Field        | Value    |
|--------------|----------|
| Entrypoint   | 0x036D   |
| Data Size    | 94 bytes |
| Instructions | 17       |

```
      00 01 02 03 04 05 06 07  08 09 0A 0B 0C 0D 0E 0F
      -- -- -- -- -- -- -- --  -- -- -- -- -- -- -- --
0360:                                         42 4A F0               BJ.
0370: FF FF 7F F8 FF FF 7F 4A  F8 FF FF 7F F0 FF FF 7F  .......J........
0380: 6F 76 F8 FF FF 7F 03 0F  00 02 10 03 02 10 03 10  ov..............
0390: 03 03 10 04 10 1D 1A 80  23 03 01 10 00 80 AD 03  ........#.......
03A0: 1B 80 F0 FF FF 7F F0 FF  FF 7F 53 F0 FF FF 7F F0  ..........S.....
03B0: FF FF 7F 6D 61 69 6E 40  00 80 11 80 01 10 07 80  ...main@........
03C0: 40 12 80 1C 80 01 10 0F  00 21 00                 @........!.     
```

#### Opcodes

```
  0: 0x036D [0x42] SET_CLI_EVENT_CANCEL_DATA()
  1: 0x036E [0x4A] LocalPlayer looks at EventEntity
  2: 0x0377 [0x4A] EventEntity looks at LocalPlayer
  3: 0x0380 [0x6F] WAIT_FRAME_DELAY: Yield until WaitTime reaches zero
  4: 0x0381 [0x76] CHECK_ENTITY_RENDER_FLAGS: Wait until EventEntity Render.Flags0 and Render.Flags3 conditions are met
  5: 0x0386 [0x03] ExtData[1]->WorkLocal[15] = Work_Zone[2]
  6: 0x038B [0x03] Work_Zone[2] = Work_Zone[3]
  7: 0x0390 [0x03] Work_Zone[3] = Work_Zone[4]
  8: 0x0395 [0x1D] PRINT_EVENT_MESSAGE(message_id=7391*)
    → "Ah, the $1 $0 for which I asked. Very well, then..."
  9: 0x0398 [0x23] WAIT_FOR_DIALOG_INTERACTION
 10: 0x0399 [0x03] Work_Zone[1] = 0*
 11: 0x039E [0xAD] DUAL_ENTITY_SCHEDULER_HANDLER: Execute sub-case 3 with entities [LocalPlayer, LocalPlayer], work=26*
 12: 0x03AA [0x53] WAIT_SCHEDULER_TASK: Wait for scheduler "main" with entities [LocalPlayer, LocalPlayer]
 13: 0x03B7 [0x40] SET_BIT_WORK_RANGE(start_bit=0*, end_bit=15*, target=Work_Zone[1], source=2*)
 14: 0x03C0 [0x40] SET_BIT_WORK_RANGE(start_bit=16*, end_bit=31*, target=Work_Zone[1], source=ExtData[1]->WorkLocal[15])
 15: 0x03C9 [0x21] END_EVENT
 16: 0x03CA [0x00] END_REQSTACK()
```
