# 17944589

## Common Data

| Field            | Value              |
|------------------|--------------------|
| Zone             | Feretory (ID: 285) |
| Block Size       | 3520 bytes         |
| Total Events     | 2                  |
| References Count | 116                |

## List of Events

| Event ID              | Entrypoint   |   Size |   Instructions |
|-----------------------|--------------|--------|----------------|
| [65535](#event-65535) | 0x0000       |      1 |              1 |
| [2](#event-2)         | 0x0001       |   3030 |            373 |

## DAT References (imed_data)

|   Index | Hex Value   |   Dec Value |
|---------|-------------|-------------|
|       0 | 0x00C8      |         200 |
|       1 | 0x0000      |           0 |
|       2 | 0x001B      |          27 |
|       3 | 0x0001      |           1 |
|       4 | 0x0002      |           2 |
|       5 | 0xFFFA8C2C  |  4294609964 |
|       6 | 0xFFF9A3D8  |  4294550488 |
|       7 | 0xFFFFFC8D  |  4294966413 |
|       8 | 0x0C0F      |        3087 |
|       9 | 0xFFFA8BAA  |  4294609834 |
|      10 | 0xFFF99D77  |  4294548855 |
|      11 | 0xFFFFFB3E  |  4294966078 |
|      12 | 0x0C4B      |        3147 |
|      13 | 0xFFFA91C4  |  4294611396 |
|      14 | 0xFFF99E26  |  4294549030 |
|      15 | 0xFFFFFB5E  |  4294966110 |
|      16 | 0x0BBE      |        3006 |
|      17 | 0xFFFA8659  |  4294608473 |
|      18 | 0xFFF9A0DA  |  4294549722 |
|      19 | 0xFFFFFC00  |  4294966272 |
|      20 | 0x0D4D      |        3405 |
|      21 | 0xFFFAA1A1  |  4294615457 |
|      22 | 0xFFF9A80B  |  4294551563 |
|      23 | 0xFFFFFCE0  |  4294966496 |
|      24 | 0x05C2      |        1474 |
|      25 | 0xFFFA8D67  |  4294610279 |
|      26 | 0xFFF9B31C  |  4294554396 |
|      27 | 0xFFFFFF7D  |  4294967165 |
|      28 | 0x045C      |        1116 |
|      29 | 0x001E      |          30 |
|      30 | 0x003C      |          60 |
|      31 | 0x026E      |         622 |
|      32 | 0x000F      |          15 |
|      33 | 0x00B4      |         180 |
|      34 | 0x0008      |           8 |
|      35 | 0x0078      |         120 |
|      36 | 0x1C49      |        7241 |
|      37 | 0x1C4A      |        7242 |
|      38 | 0x1C4B      |        7243 |
|      39 | 0x1C4C      |        7244 |
|      40 | 0x1C4D      |        7245 |
|      41 | 0x1C4E      |        7246 |
|      42 | 0x1C4F      |        7247 |
|      43 | 0x1C50      |        7248 |
|      44 | 0x1C51      |        7249 |
|      45 | 0x1C52      |        7250 |
|      46 | 0x1C53      |        7251 |
|      47 | 0x1C54      |        7252 |
|      48 | 0x1C55      |        7253 |
|      49 | 0x1C56      |        7254 |
|      50 | 0x1C57      |        7255 |
|      51 | 0x1C58      |        7256 |
|      52 | 0x1C59      |        7257 |
|      53 | 0x1C5A      |        7258 |
|      54 | 0x1C5B      |        7259 |
|      55 | 0x1C5C      |        7260 |
|      56 | 0x1C5D      |        7261 |
|      57 | 0x1C5E      |        7262 |
|      58 | 0x1C5F      |        7263 |
|      59 | 0x1C60      |        7264 |
|      60 | 0x1C61      |        7265 |
|      61 | 0x1C62      |        7266 |
|      62 | 0x1C63      |        7267 |
|      63 | 0x1C64      |        7268 |
|      64 | 0x1C65      |        7269 |
|      65 | 0x1C66      |        7270 |
|      66 | 0x1C67      |        7271 |
|      67 | 0x1C68      |        7272 |
|      68 | 0x1C69      |        7273 |
|      69 | 0x1C6A      |        7274 |
|      70 | 0x1C6B      |        7275 |
|      71 | 0x1C6C      |        7276 |
|      72 | 0x1C6D      |        7277 |
|      73 | 0x1C6E      |        7278 |
|      74 | 0x1C6F      |        7279 |
|      75 | 0x1C70      |        7280 |
|      76 | 0x1C71      |        7281 |
|      77 | 0x1C72      |        7282 |
|      78 | 0x1C73      |        7283 |
|      79 | 0x1C74      |        7284 |
|      80 | 0x1C75      |        7285 |
|      81 | 0x1C76      |        7286 |
|      82 | 0x1C77      |        7287 |
|      83 | 0x1C78      |        7288 |
|      84 | 0x1C79      |        7289 |
|      85 | 0x1C7A      |        7290 |
|      86 | 0x1C7B      |        7291 |
|      87 | 0x1C7C      |        7292 |
|      88 | 0x1C7D      |        7293 |
|      89 | 0x1C7E      |        7294 |
|      90 | 0x1C7F      |        7295 |
|      91 | 0x1C80      |        7296 |
|      92 | 0x1C81      |        7297 |
|      93 | 0x1C82      |        7298 |
|      94 | 0x1C83      |        7299 |
|      95 | 0x1C84      |        7300 |
|      96 | 0x1C85      |        7301 |
|      97 | 0x1C86      |        7302 |
|      98 | 0x1C87      |        7303 |
|      99 | 0x1C88      |        7304 |
|     100 | 0x0003      |           3 |
|     101 | 0x1C89      |        7305 |
|     102 | 0x1C8A      |        7306 |
|     103 | 0x1C8B      |        7307 |
|     104 | 0x0004      |           4 |
|     105 | 0x1C8C      |        7308 |
|     106 | 0x1C8D      |        7309 |
|     107 | 0x1C8E      |        7310 |
|     108 | 0x1C8F      |        7311 |
|     109 | 0x1C90      |        7312 |
|     110 | 0x0005      |           5 |
|     111 | 0x1C93      |        7315 |
|     112 | 0x1C94      |        7316 |
|     113 | 0x0006      |           6 |
|     114 | 0x1C95      |        7317 |
|     115 | 0x00C9      |         201 |

## String References

- **7264**: What will you ask about? [Monstrosity in general./Possible opponents./Customization./Ranks./Infamy./Rewards./Nothing.]
- **7292**: Ask about what? [Species./Naming./Instincts./Nothing.]

## Events

### Event 65535

#### Metadata

| Field        | Value   |
|--------------|---------|
| Entrypoint   | 0x0000  |
| Data Size    | 1 bytes |
| Instructions | 1       |

```
      00 01 02 03 04 05 06 07  08 09 0A 0B 0C 0D 0E 0F
      -- -- -- -- -- -- -- --  -- -- -- -- -- -- -- --
0000: 00                                                .               
```

#### Opcodes

```
  0: 0x0000 [0x00] END_REQSTACK()
```

### Event 2

#### Metadata

| Field        | Value      |
|--------------|------------|
| Entrypoint   | 0x0001     |
| Data Size    | 3030 bytes |
| Instructions | 246        |

```
      00 01 02 03 04 05 06 07  08 09 0A 0B 0C 0D 0E 0F
      -- -- -- -- -- -- -- --  -- -- -- -- -- -- -- --
0000:    42 45 00 80 F0 FF FF  7F F0 FF FF 7F 66 64 6F   BE..........fdo
0010: 31 01 80 55 00 80 F0 FF  FF 7F F0 FF FF 7F 66 64  1..U..........fd
0020: 6F 31 46 01 38 02 80 03  01 10 03 80 43 00 43 01  o1F.8.......C.C.
0030: 03 00 00 04 10 0C 00 00  2F 00 11 D0 11 01 2F 00  ......../...../.
0040: 17 D0 11 01 2F 00 13 D0  11 01 2F 00 15 D0 11 01  ..../...../.....
0050: 2F 00 0E D0 11 01 92 01  11 D0 11 01 92 01 17 D0  /...............
0060: 11 01 92 01 13 D0 11 01  92 01 15 D0 11 01 92 01  ................
0070: 0F D0 11 01 92 01 0E D0  11 01 27 05 0E D0 11 01  ..........'.....
0080: 02 4E 01 F0 FF FF 7F 4E  00 11 D0 11 01 4E 00 17  .N.....N.....N..
0090: D0 11 01 4E 00 13 D0 11  01 4E 00 15 D0 11 01 4E  ...N.....N.....N
00A0: 00 0D D0 11 01 4E 00 0E  D0 11 01 59 05 0D D0 11  .....N.....Y....
00B0: 01 01 B6 0B 02 10 03 10  01 80 01 80 01 80 01 80  ................
00C0: 01 80 01 80 01 80 02 00  00 01 80 80 D8 00 27 05  ..............'.
00D0: 0E D0 11 01 03 01 FC 00  02 00 00 03 80 80 EA 00  ................
00E0: 27 05 0E D0 11 01 04 01  FC 00 02 00 00 04 80 80  '...............
00F0: FC 00 27 05 0E D0 11 01  05 01 FC 00 BA 11 D0 11  ..'.............
0100: 01 05 80 06 80 07 80 08  80 BA 17 D0 11 01 09 80  ................
0110: 0A 80 0B 80 0C 80 BA 13  D0 11 01 0D 80 0E 80 0F  ................
0120: 80 10 80 BA 15 D0 11 01  11 80 12 80 13 80 14 80  ................
0130: BA 0D D0 11 01 15 80 16  80 17 80 18 80 BA 0E D0  ................
0140: 11 01 19 80 1A 80 1B 80  1C 80 80 11 D0 11 01 80  ................
0150: 17 D0 11 01 80 13 D0 11  01 80 15 D0 11 01 80 0D  ................
0160: D0 11 01 80 0E D0 11 01  80 0F D0 11 01 4A 11 D0  .............J..
0170: 11 01 0E D0 11 01 4A 17  D0 11 01 0E D0 11 01 4A  ......J........J
0180: 13 D0 11 01 0E D0 11 01  4A 15 D0 11 01 0E D0 11  ........J.......
0190: 01 1C 1D 80 2C 0D D0 11  01 0D D0 11 01 64 65 61  ....,........dea
01A0: 64 1C 1E 80 45 1F 80 F8  FF FF 7F F8 FF FF 7F 73  d...E..........s
01B0: 30 32 33 01 80 1C 20 80  45 00 80 F0 FF FF 7F F0  023... .E.......
01C0: FF FF 7F 66 64 69 31 01  80 1C 21 80 52 1F 80 F8  ...fdi1...!.R...
01D0: FF FF 7F F8 FF FF 7F 73  30 32 33 02 02 10 22 80  .......s023...".
01E0: 80 F7 01 45 1F 80 F8 FF  FF 7F F8 FF FF 7F 73 31  ...E..........s1
01F0: 39 34 01 80 01 08 02 45  1F 80 F8 FF FF 7F F8 FF  94.....E........
0200: FF 7F 73 30 32 34 01 80  4A 0E D0 11 01 0D D0 11  ..s024..J.......
0210: 01 1C 23 80 02 87 7F 22  80 80 2E 02 52 1F 80 F8  ..#...."....R...
0220: FF FF 7F F8 FF FF 7F 73  31 39 34 01 3D 02 52 1F  .......s194.=.R.
0230: 80 F8 FF FF 7F F8 FF FF  7F 73 30 32 34 45 1F 80  .........s024E..
0240: F8 FF FF 7F F8 FF FF 7F  73 30 32 35 01 80 4A 0E  ........s025..J.
0250: D0 11 01 11 D0 11 01 2B  11 D0 11 01 24 80 23 52  .......+....$.#R
0260: 1F 80 F8 FF FF 7F F8 FF  FF 7F 73 30 32 35 45 1F  ..........s025E.
0270: 80 F8 FF FF 7F F8 FF FF  7F 73 30 32 36 01 80 03  .........s026...
0280: 02 10 00 00 2B 11 D0 11  01 25 80 23 52 1F 80 F8  ....+....%.#R...
0290: FF FF 7F F8 FF FF 7F 73  30 32 36 45 1F 80 F8 FF  .......s026E....
02A0: FF 7F F8 FF FF 7F 73 30  32 37 01 80 2B 11 D0 11  ......s027..+...
02B0: 01 26 80 23 2B 11 D0 11  01 27 80 23 2B 11 D0 11  .&.#+....'.#+...
02C0: 01 28 80 23 52 1F 80 F8  FF FF 7F F8 FF FF 7F 73  .(.#R..........s
02D0: 30 32 37 45 1F 80 F8 FF  FF 7F F8 FF FF 7F 73 30  027E..........s0
02E0: 32 38 01 80 2B 11 D0 11  01 29 80 23 2B 11 D0 11  28..+....).#+...
02F0: 01 2A 80 23 52 1F 80 F8  FF FF 7F F8 FF FF 7F 73  .*.#R..........s
0300: 30 32 38 45 1F 80 F8 FF  FF 7F F8 FF FF 7F 73 30  028E..........s0
0310: 32 39 01 80 4A 17 D0 11  01 13 D0 11 01 2B 17 D0  29..J........+..
0320: 11 01 2B 80 23 4A 13 D0  11 01 17 D0 11 01 2B 13  ..+.#J........+.
0330: D0 11 01 2C 80 23 52 1F  80 F8 FF FF 7F F8 FF FF  ...,.#R.........
0340: 7F 73 30 32 39 45 1F 80  F8 FF FF 7F F8 FF FF 7F  .s029E..........
0350: 73 30 33 30 01 80 4A 11  D0 11 01 17 D0 11 01 2B  s030..J........+
0360: 11 D0 11 01 2D 80 23 4A  15 D0 11 01 11 D0 11 01  ....-.#J........
0370: 2B 15 D0 11 01 2E 80 23  52 1F 80 F8 FF FF 7F F8  +......#R.......
0380: FF FF 7F 73 30 33 30 45  1F 80 F8 FF FF 7F F8 FF  ...s030E........
0390: FF 7F 73 30 33 31 01 80  2B 11 D0 11 01 2F 80 23  ..s031..+..../.#
03A0: 52 1F 80 F8 FF FF 7F F8  FF FF 7F 73 30 33 31 45  R..........s031E
03B0: 1F 80 F8 FF FF 7F F8 FF  FF 7F 73 30 33 32 01 80  ..........s032..
03C0: 4A 11 D0 11 01 0E D0 11  01 4A 17 D0 11 01 0E D0  J........J......
03D0: 11 01 4A 13 D0 11 01 0E  D0 11 01 4A 15 D0 11 01  ..J........J....
03E0: 0E D0 11 01 2B 11 D0 11  01 30 80 23 52 1F 80 F8  ....+....0.#R...
03F0: FF FF 7F F8 FF FF 7F 73  30 33 32 45 1F 80 F8 FF  .......s032E....
0400: FF 7F F8 FF FF 7F 73 31  33 34 01 80 2B 11 D0 11  ......s134..+...
0410: 01 31 80 23 2B 11 D0 11  01 32 80 23 2B 11 D0 11  .1.#+....2.#+...
0420: 01 33 80 23 52 1F 80 F8  FF FF 7F F8 FF FF 7F 73  .3.#R..........s
0430: 31 33 34 45 1F 80 F8 FF  FF 7F F8 FF FF 7F 73 31  134E..........s1
0440: 33 35 01 80 2B 17 D0 11  01 34 80 23 4A 13 D0 11  35..+....4.#J...
0450: 01 17 D0 11 01 2B 13 D0  11 01 35 80 23 4A 11 D0  .....+....5.#J..
0460: 11 01 13 D0 11 01 2B 11  D0 11 01 36 80 23 52 1F  ......+....6.#R.
0470: 80 F8 FF FF 7F F8 FF FF  7F 73 31 33 35 45 1F 80  .........s135E..
0480: F8 FF FF 7F F8 FF FF 7F  73 31 33 36 01 80 4A 11  ........s136..J.
0490: D0 11 01 0E D0 11 01 4A  13 D0 11 01 0E D0 11 01  .......J........
04A0: 2B 11 D0 11 01 37 80 23  52 1F 80 F8 FF FF 7F F8  +....7.#R.......
04B0: FF FF 7F 73 31 33 36 45  1F 80 F8 FF FF 7F F8 FF  ...s136E........
04C0: FF 7F 73 31 33 37 01 80  2B 11 D0 11 01 38 80 23  ..s137..+....8.#
04D0: 2B 11 D0 11 01 39 80 23  2B 11 D0 11 01 3A 80 23  +....9.#+....:.#
04E0: 52 1F 80 F8 FF FF 7F F8  FF FF 7F 73 31 33 37 03  R..........s137.
04F0: 01 00 01 80 45 1F 80 F8  FF FF 7F F8 FF FF 7F 73  ....E..........s
0500: 31 33 38 01 80 24 3B 80  01 80 01 00 25 02 00 10  138..$;.....%...
0510: 01 80 00 D4 06 52 1F 80  F8 FF FF 7F F8 FF FF 7F  .....R..........
0520: 73 31 33 38 45 1F 80 F8  FF FF 7F F8 FF FF 7F 73  s138E..........s
0530: 31 33 39 01 80 2B 11 D0  11 01 3C 80 23 52 1F 80  139..+....<.#R..
0540: F8 FF FF 7F F8 FF FF 7F  73 31 33 39 45 1F 80 F8  ........s139E...
0550: FF FF 7F F8 FF FF 7F 73  31 34 30 01 80 2B 11 D0  .......s140..+..
0560: 11 01 3D 80 23 2B 11 D0  11 01 3E 80 23 52 1F 80  ..=.#+....>.#R..
0570: F8 FF FF 7F F8 FF FF 7F  73 31 34 30 45 1F 80 F8  ........s140E...
0580: FF FF 7F F8 FF FF 7F 73  31 34 31 01 80 2B 11 D0  .......s141..+..
0590: 11 01 3F 80 23 52 1F 80  F8 FF FF 7F F8 FF FF 7F  ..?.#R..........
05A0: 73 31 34 31 45 1F 80 F8  FF FF 7F F8 FF FF 7F 73  s141E..........s
05B0: 31 34 32 01 80 2B 11 D0  11 01 40 80 23 2B 11 D0  142..+....@.#+..
05C0: 11 01 41 80 23 52 1F 80  F8 FF FF 7F F8 FF FF 7F  ..A.#R..........
05D0: 73 31 34 32 45 1F 80 F8  FF FF 7F F8 FF FF 7F 73  s142E..........s
05E0: 31 34 33 01 80 2B 11 D0  11 01 42 80 23 2B 11 D0  143..+....B.#+..
05F0: 11 01 43 80 23 52 1F 80  F8 FF FF 7F F8 FF FF 7F  ..C.#R..........
0600: 73 31 34 33 45 1F 80 F8  FF FF 7F F8 FF FF 7F 73  s143E..........s
0610: 31 34 34 01 80 4A 11 D0  11 01 0D D0 11 01 2B 11  144..J........+.
0620: D0 11 01 44 80 23 4A 11  D0 11 01 0E D0 11 01 2B  ...D.#J........+
0630: 11 D0 11 01 45 80 23 52  1F 80 F8 FF FF 7F F8 FF  ....E.#R........
0640: FF 7F 73 31 34 34 45 1F  80 F8 FF FF 7F F8 FF FF  ..s144E.........
0650: 7F 73 31 34 35 01 80 2B  11 D0 11 01 46 80 23 2B  .s145..+....F.#+
0660: 11 D0 11 01 47 80 23 52  1F 80 F8 FF FF 7F F8 FF  ....G.#R........
0670: FF 7F 73 31 34 35 45 1F  80 F8 FF FF 7F F8 FF FF  ..s145E.........
0680: 7F 73 31 34 36 01 80 2B  11 D0 11 01 48 80 23 52  .s146..+....H.#R
0690: 1F 80 F8 FF FF 7F F8 FF  FF 7F 73 31 34 36 45 1F  ..........s146E.
06A0: 80 F8 FF FF 7F F8 FF FF  7F 73 31 34 37 01 80 2B  .........s147..+
06B0: 11 D0 11 01 49 80 23 2B  11 D0 11 01 4A 80 23 52  ....I.#+....J.#R
06C0: 1F 80 F8 FF FF 7F F8 FF  FF 7F 73 31 34 37 01 EF  ..........s147..
06D0: 04 01 67 0B 02 00 10 03  80 00 E1 07 52 1F 80 F8  ..g.........R...
06E0: FF FF 7F F8 FF FF 7F 73  31 33 38 45 1F 80 F8 FF  .......s138E....
06F0: FF 7F F8 FF FF 7F 73 31  34 38 01 80 2B 11 D0 11  ......s148..+...
0700: 01 4B 80 23 2B 11 D0 11  01 4C 80 23 52 1F 80 F8  .K.#+....L.#R...
0710: FF FF 7F F8 FF FF 7F 73  31 34 38 45 1F 80 F8 FF  .......s148E....
0720: FF 7F F8 FF FF 7F 73 31  34 39 01 80 2B 11 D0 11  ......s149..+...
0730: 01 4D 80 23 2B 11 D0 11  01 4E 80 23 2B 11 D0 11  .M.#+....N.#+...
0740: 01 4F 80 23 52 1F 80 F8  FF FF 7F F8 FF FF 7F 73  .O.#R..........s
0750: 31 34 39 45 1F 80 F8 FF  FF 7F F8 FF FF 7F 73 31  149E..........s1
0760: 35 30 01 80 2B 11 D0 11  01 50 80 23 2B 11 D0 11  50..+....P.#+...
0770: 01 51 80 23 52 1F 80 F8  FF FF 7F F8 FF FF 7F 73  .Q.#R..........s
0780: 31 35 30 45 1F 80 F8 FF  FF 7F F8 FF FF 7F 73 31  150E..........s1
0790: 35 31 01 80 2B 11 D0 11  01 52 80 23 2B 11 D0 11  51..+....R.#+...
07A0: 01 53 80 23 52 1F 80 F8  FF FF 7F F8 FF FF 7F 73  .S.#R..........s
07B0: 31 35 31 45 1F 80 F8 FF  FF 7F F8 FF FF 7F 73 31  151E..........s1
07C0: 35 32 01 80 2B 11 D0 11  01 54 80 23 52 1F 80 F8  52..+....T.#R...
07D0: FF FF 7F F8 FF FF 7F 73  31 35 32 01 EF 04 01 67  .......s152....g
07E0: 0B 02 00 10 04 80 00 ED  09 52 1F 80 F8 FF FF 7F  .........R......
07F0: F8 FF FF 7F 73 31 33 38  45 1F 80 F8 FF FF 7F F8  ....s138E.......
0800: FF FF 7F 73 31 35 33 01  80 2B 11 D0 11 01 55 80  ...s153..+....U.
0810: 23 2B 11 D0 11 01 56 80  23 52 1F 80 F8 FF FF 7F  #+....V.#R......
0820: F8 FF FF 7F 73 31 35 33  45 1F 80 F8 FF FF 7F F8  ....s153E.......
0830: FF FF 7F 73 31 35 34 01  80 24 57 80 01 80 01 80  ...s154..$W.....
0840: 25 02 00 10 01 80 00 BE  08 52 1F 80 F8 FF FF 7F  %........R......
0850: F8 FF FF 7F 73 31 35 34  45 1F 80 F8 FF FF 7F F8  ....s154E.......
0860: FF FF 7F 73 31 35 37 01  80 2B 11 D0 11 01 58 80  ...s157..+....X.
0870: 23 2B 11 D0 11 01 59 80  23 52 1F 80 F8 FF FF 7F  #+....Y.#R......
0880: F8 FF FF 7F 73 31 35 37  45 1F 80 F8 FF FF 7F F8  ....s157E.......
0890: FF FF 7F 73 31 35 38 01  80 2B 11 D0 11 01 5A 80  ...s158..+....Z.
08A0: 23 2B 11 D0 11 01 5B 80  23 52 1F 80 F8 FF FF 7F  #+....[.#R......
08B0: F8 FF FF 7F 73 31 35 38  01 28 08 01 D8 09 02 00  ....s158.(......
08C0: 10 03 80 00 33 09 52 1F  80 F8 FF FF 7F F8 FF FF  ....3.R.........
08D0: 7F 73 31 35 34 45 1F 80  F8 FF FF 7F F8 FF FF 7F  .s154E..........
08E0: 73 31 35 39 01 80 2B 11  D0 11 01 5C 80 23 2B 11  s159..+....\.#+.
08F0: D0 11 01 5D 80 23 52 1F  80 F8 FF FF 7F F8 FF FF  ...].#R.........
0900: 7F 73 31 35 39 45 1F 80  F8 FF FF 7F F8 FF FF 7F  .s159E..........
0910: 73 31 36 30 01 80 2B 11  D0 11 01 5E 80 23 52 1F  s160..+....^.#R.
0920: 80 F8 FF FF 7F F8 FF FF  7F 73 31 36 30 01 28 08  .........s160.(.
0930: 01 D8 09 02 00 10 04 80  00 D8 09 52 1F 80 F8 FF  ...........R....
0940: FF 7F F8 FF FF 7F 73 31  35 34 45 1F 80 F8 FF FF  ......s154E.....
0950: 7F F8 FF FF 7F 73 31 36  31 01 80 2B 11 D0 11 01  .....s161..+....
0960: 5F 80 23 2B 11 D0 11 01  60 80 23 52 1F 80 F8 FF  _.#+....`.#R....
0970: FF 7F F8 FF FF 7F 73 31  36 31 45 1F 80 F8 FF FF  ......s161E.....
0980: 7F F8 FF FF 7F 73 31 36  32 01 80 2B 11 D0 11 01  .....s162..+....
0990: 61 80 23 52 1F 80 F8 FF  FF 7F F8 FF FF 7F 73 31  a.#R..........s1
09A0: 36 32 45 1F 80 F8 FF FF  7F F8 FF FF 7F 73 31 36  62E..........s16
09B0: 33 01 80 2B 11 D0 11 01  62 80 23 2B 11 D0 11 01  3..+....b.#+....
09C0: 63 80 23 52 1F 80 F8 FF  FF 7F F8 FF FF 7F 73 31  c.#R..........s1
09D0: 36 33 01 28 08 01 D8 09  52 1F 80 F8 FF FF 7F F8  63.(....R.......
09E0: FF FF 7F 73 31 35 34 01  EF 04 01 67 0B 02 00 10  ...s154....g....
09F0: 64 80 00 62 0A 52 1F 80  F8 FF FF 7F F8 FF FF 7F  d..b.R..........
0A00: 73 31 33 38 45 1F 80 F8  FF FF 7F F8 FF FF 7F 73  s138E..........s
0A10: 31 36 34 01 80 2B 11 D0  11 01 65 80 23 52 1F 80  164..+....e.#R..
0A20: F8 FF FF 7F F8 FF FF 7F  73 31 36 34 45 1F 80 F8  ........s164E...
0A30: FF FF 7F F8 FF FF 7F 73  31 36 35 01 80 2B 11 D0  .......s165..+..
0A40: 11 01 66 80 23 2B 11 D0  11 01 67 80 23 52 1F 80  ..f.#+....g.#R..
0A50: F8 FF FF 7F F8 FF FF 7F  73 31 36 35 01 EF 04 01  ........s165....
0A60: 67 0B 02 00 10 68 80 00  E7 0A 52 1F 80 F8 FF FF  g....h....R.....
0A70: 7F F8 FF FF 7F 73 31 33  38 45 1F 80 F8 FF FF 7F  .....s138E......
0A80: F8 FF FF 7F 73 31 36 36  01 80 2B 11 D0 11 01 69  ....s166..+....i
0A90: 80 23 2B 11 D0 11 01 6A  80 23 2B 11 D0 11 01 6B  .#+....j.#+....k
0AA0: 80 23 52 1F 80 F8 FF FF  7F F8 FF FF 7F 73 31 36  .#R..........s16
0AB0: 36 45 1F 80 F8 FF FF 7F  F8 FF FF 7F 73 31 36 37  6E..........s167
0AC0: 01 80 2B 11 D0 11 01 6C  80 23 2B 11 D0 11 01 6D  ..+....l.#+....m
0AD0: 80 23 52 1F 80 F8 FF FF  7F F8 FF FF 7F 73 31 36  .#R..........s16
0AE0: 37 01 EF 04 01 67 0B 02  00 10 6E 80 00 34 0B 52  7....g....n..4.R
0AF0: 1F 80 F8 FF FF 7F F8 FF  FF 7F 73 31 33 38 45 1F  ..........s138E.
0B00: 80 F8 FF FF 7F F8 FF FF  7F 73 31 36 38 01 80 2B  .........s168..+
0B10: 11 D0 11 01 6F 80 23 2B  11 D0 11 01 70 80 23 52  ....o.#+....p.#R
0B20: 1F 80 F8 FF FF 7F F8 FF  FF 7F 73 31 36 38 01 EF  ..........s168..
0B30: 04 01 67 0B 02 00 10 71  80 00 67 0B 52 1F 80 F8  ..g....q..g.R...
0B40: FF FF 7F F8 FF FF 7F 73  31 33 38 45 1F 80 F8 FF  .......s138E....
0B50: FF 7F F8 FF FF 7F 73 31  36 39 01 80 2B 11 D0 11  ......s169..+...
0B60: 01 72 80 23 01 67 0B 45  00 80 F0 FF FF 7F F0 FF  .r.#.g.E........
0B70: FF 7F 66 64 6F 31 01 80  55 00 80 F0 FF FF 7F F0  ..fdo1..U.......
0B80: FF FF 7F 66 64 6F 31 52  1F 80 F8 FF FF 7F F8 FF  ...fdo1R........
0B90: FF 7F 73 31 36 39 B6 0B  03 80 01 80 01 80 01 80  ..s169..........
0BA0: 01 80 01 80 01 80 01 80  01 80 27 05 0E D0 11 01  ..........'.....
0BB0: 06 45 73 80 F8 FF FF 7F  F8 FF FF 7F 71 73 74 63  .Es.........qstc
0BC0: 01 80 46 00 45 00 80 F0  FF FF 7F F0 FF FF 7F 66  ..F.E..........f
0BD0: 64 69 32 01 80 21 00                              di2..!.         
```

#### Opcodes

```
  0: 0x0001 [0x42] SET_CLI_EVENT_CANCEL_DATA()
  1: 0x0002 [0x45] LOAD_SCHEDULED_TASK: Load scheduler "fdo1" with entities [LocalPlayer, LocalPlayer], work=[200*, 0*]
  2: 0x0013 [0x55] WAIT_LOAD_SCHEDULER: Wait for scheduler "fdo1" with entities [LocalPlayer, LocalPlayer], work=200*
  3: 0x0022 [0x46] CAMERA_CONTROL: Disable user control
  4: 0x0024 [0x38] SET_CLIENT_EVENT_MODE(mode=27*)
  5: 0x0027 [0x03] Work_Zone[1] = 1*
  6: 0x002C [0x43] SEND_EVENT_UPDATE: Send pending tag to server (packet 0x005B)
  7: 0x002E [0x43] SEND_EVENT_UPDATE: Check pending flag (skip if not pending)
  8: 0x0030 [0x03] ExtData[1]->WorkLocal[0] = Work_Zone[4]
  9: 0x0035 [0x0C] ExtData[1]->WorkLocal[0]--
 10: 0x0038 [0x2F] Maccus (ID: 17944593/0x0111D011)->Render.Flags0 &= ~0x80000 // Bit 19
 11: 0x003E [0x2F] Aengus (ID: 17944599/0x0111D017)->Render.Flags0 &= ~0x80000 // Bit 19
 12: 0x0044 [0x2F] Teyrnon (ID: 17944595/0x0111D013)->Render.Flags0 &= ~0x80000 // Bit 19
 13: 0x004A [0x2F] Suibhne (ID: 17944597/0x0111D015)->Render.Flags0 &= ~0x80000 // Bit 19
 14: 0x0050 [0x2F] Unnamed NPC (ID: 17944590/0x0111D00E)->Render.Flags0 &= ~0x80000 // Bit 19
 15: 0x0056 [0x92] Maccus (ID: 17944593/0x0111D011)->Render.Flags3 ^= 0x01
 16: 0x005C [0x92] Aengus (ID: 17944599/0x0111D017)->Render.Flags3 ^= 0x01
 17: 0x0062 [0x92] Teyrnon (ID: 17944595/0x0111D013)->Render.Flags3 ^= 0x01
 18: 0x0068 [0x92] Suibhne (ID: 17944597/0x0111D015)->Render.Flags3 ^= 0x01
 19: 0x006E [0x92] Odyssean Passage (ID: 17944591/0x0111D00F)->Render.Flags3 ^= 0x01
 20: 0x0074 [0x92] Unnamed NPC (ID: 17944590/0x0111D00E)->Render.Flags3 ^= 0x01
 21: 0x007A [0x27] REQ_SET(priority=0x05, entity_id=Unnamed NPC (ID: 17944590/0x0111D00E), tag_num=0x02)
 22: 0x0081 [0x4E] SET_ENTITY_HIDE_FLAG: Hide LocalPlayer
 23: 0x0087 [0x4E] SET_ENTITY_HIDE_FLAG: Show Maccus (ID: 17944593/0x0111D011)
 24: 0x008D [0x4E] SET_ENTITY_HIDE_FLAG: Show Aengus (ID: 17944599/0x0111D017)
 25: 0x0093 [0x4E] SET_ENTITY_HIDE_FLAG: Show Teyrnon (ID: 17944595/0x0111D013)
 26: 0x0099 [0x4E] SET_ENTITY_HIDE_FLAG: Show Suibhne (ID: 17944597/0x0111D015)
 27: 0x009F [0x4E] SET_ENTITY_HIDE_FLAG: Show Unnamed NPC (ID: 17944589/0x0111D00D)
 28: 0x00A5 [0x4E] SET_ENTITY_HIDE_FLAG: Show Unnamed NPC (ID: 17944590/0x0111D00E)
 29: 0x00AB [0x59] UPDATE_ENTITY_DATA: Unnamed NPC (ID: 17944589/0x0111D00D)->Render.Flags0 |= 0x200000
 30: 0x00B2 [0xB6] ENTITY_APPEARANCE_HANDLER(case=Full entity look, race=Work_Zone[2], hair=Work_Zone[3], head=0*, body=0*, hands=0*, legs=0*, feet=0*, main=0*, sub=0*)
 31: 0x00C6 [0x02] IF !(ExtData[1]->WorkLocal[0] == 0*) GOTO 0x00D8
 32: 0x00CE [0x27] REQ_SET(priority=0x05, entity_id=Unnamed NPC (ID: 17944590/0x0111D00E), tag_num=0x03)
 33: 0x00D5 [0x01] GOTO 0x00FC
 34: 0x00D8 [0x02] IF !(ExtData[1]->WorkLocal[0] == 1*) GOTO 0x00EA
 35: 0x00E0 [0x27] REQ_SET(priority=0x05, entity_id=Unnamed NPC (ID: 17944590/0x0111D00E), tag_num=0x04)
 36: 0x00E7 [0x01] GOTO 0x00FC
 37: 0x00EA [0x02] IF !(ExtData[1]->WorkLocal[0] == 2*) GOTO 0x00FC
 38: 0x00F2 [0x27] REQ_SET(priority=0x05, entity_id=Unnamed NPC (ID: 17944590/0x0111D00E), tag_num=0x05)
 39: 0x00F9 [0x01] GOTO 0x00FC

SUBROUTINE_00FC:
 40: 0x00FC [0xBA] SET_ENTITY_POSITION(entity_id=Maccus (ID: 17944593/0x0111D011), pos_x=-357.332*, pos_z=-416.808*, pos_y=-0.883*, direction=271.3°*)
 41: 0x0109 [0xBA] SET_ENTITY_POSITION(entity_id=Aengus (ID: 17944599/0x0111D017), pos_x=-357.462*, pos_z=-418.441*, pos_y=-1.218*, direction=276.6°*)
 42: 0x0116 [0xBA] SET_ENTITY_POSITION(entity_id=Teyrnon (ID: 17944595/0x0111D013), pos_x=-355.900*, pos_z=-418.266*, pos_y=-1.186*, direction=264.2°*)
 43: 0x0123 [0xBA] SET_ENTITY_POSITION(entity_id=Suibhne (ID: 17944597/0x0111D015), pos_x=-358.823*, pos_z=-417.574*, pos_y=-1.024*, direction=299.3°*)
 44: 0x0130 [0xBA] SET_ENTITY_POSITION(entity_id=Unnamed NPC (ID: 17944589/0x0111D00D), pos_x=-351.839*, pos_z=-415.733*, pos_y=-0.800*, direction=129.5°*)
 45: 0x013D [0xBA] SET_ENTITY_POSITION(entity_id=Unnamed NPC (ID: 17944590/0x0111D00E), pos_x=-357.017*, pos_z=-412.900*, pos_y=-0.131*, direction=98.1°*)
 46: 0x014A [0x80] LOAD_WAIT(entity=Maccus (ID: 17944593/0x0111D011))
 47: 0x014F [0x80] LOAD_WAIT(entity=Aengus (ID: 17944599/0x0111D017))
 48: 0x0154 [0x80] LOAD_WAIT(entity=Teyrnon (ID: 17944595/0x0111D013))
 49: 0x0159 [0x80] LOAD_WAIT(entity=Suibhne (ID: 17944597/0x0111D015))
 50: 0x015E [0x80] LOAD_WAIT(entity=Unnamed NPC (ID: 17944589/0x0111D00D))
 51: 0x0163 [0x80] LOAD_WAIT(entity=Unnamed NPC (ID: 17944590/0x0111D00E))
 52: 0x0168 [0x80] LOAD_WAIT(entity=Odyssean Passage (ID: 17944591/0x0111D00F))
 53: 0x016D [0x4A] Maccus (ID: 17944593/0x0111D011) looks at Unnamed NPC (ID: 17944590/0x0111D00E)
 54: 0x0176 [0x4A] Aengus (ID: 17944599/0x0111D017) looks at Unnamed NPC (ID: 17944590/0x0111D00E)
 55: 0x017F [0x4A] Teyrnon (ID: 17944595/0x0111D013) looks at Unnamed NPC (ID: 17944590/0x0111D00E)
 56: 0x0188 [0x4A] Suibhne (ID: 17944597/0x0111D015) looks at Unnamed NPC (ID: 17944590/0x0111D00E)
 57: 0x0191 [0x1C] WAIT(30* ticks)
 58: 0x0194 [0x2C] CREATE_SCHEDULER_TASK: Create scheduler "dead" with entities [Unnamed NPC (ID: 17944589/0x0111D00D), Unnamed NPC (ID: 17944589/0x0111D00D)]
 59: 0x01A1 [0x1C] WAIT(60* ticks)
 60: 0x01A4 [0x45] LOAD_SCHEDULED_TASK: Load scheduler "s023" with entities [EventEntity, EventEntity], work=[622*, 0*]
 61: 0x01B5 [0x1C] WAIT(15* ticks)
 62: 0x01B8 [0x45] LOAD_SCHEDULED_TASK: Load scheduler "fdi1" with entities [LocalPlayer, LocalPlayer], work=[200*, 0*]
 63: 0x01C9 [0x1C] WAIT(180* ticks)
 64: 0x01CC [0x52] END_LOAD_SCHEDULER: End scheduler "s023" with entities [EventEntity, EventEntity], work=622*
 65: 0x01DB [0x02] IF !(Work_Zone[2] == 8*) GOTO 0x01F7
 66: 0x01E3 [0x45] LOAD_SCHEDULED_TASK: Load scheduler "s194" with entities [EventEntity, EventEntity], work=[622*, 0*]
 67: 0x01F4 [0x01] GOTO 0x0208
 68: 0x01F7 [0x45] LOAD_SCHEDULED_TASK: Load scheduler "s024" with entities [EventEntity, EventEntity], work=[622*, 0*]

SUBROUTINE_0208:
 69: 0x0208 [0x4A] Unnamed NPC (ID: 17944590/0x0111D00E) looks at Unnamed NPC (ID: 17944589/0x0111D00D)
 70: 0x0211 [0x1C] WAIT(120* ticks)
 71: 0x0214 [0x02] IF !(LocalPlayer->Race == 8*) GOTO 0x022E
 72: 0x021C [0x52] END_LOAD_SCHEDULER: End scheduler "s194" with entities [EventEntity, EventEntity], work=622*
 73: 0x022B [0x01] GOTO 0x023D
 74: 0x022E [0x52] END_LOAD_SCHEDULER: End scheduler "s024" with entities [EventEntity, EventEntity], work=622*

SUBROUTINE_023D:
 75: 0x023D [0x45] LOAD_SCHEDULED_TASK: Load scheduler "s025" with entities [EventEntity, EventEntity], work=[622*, 0*]
 76: 0x024E [0x4A] Unnamed NPC (ID: 17944590/0x0111D00E) looks at Maccus (ID: 17944593/0x0111D011)
 77: 0x0257 [0x2B] Maccus (ID: 17944593/0x0111D011) [7241*]:
    → "Welcome to the Feretory. Is it not surprisingly soothing?"
 78: 0x025E [0x23] WAIT_FOR_DIALOG_INTERACTION
 79: 0x025F [0x52] END_LOAD_SCHEDULER: End scheduler "s025" with entities [EventEntity, EventEntity], work=622*
 80: 0x026E [0x45] LOAD_SCHEDULED_TASK: Load scheduler "s026" with entities [EventEntity, EventEntity], work=[622*, 0*]
 81: 0x027F [0x03] Work_Zone[2] = ExtData[1]->WorkLocal[0]
 82: 0x0284 [0x2B] Maccus (ID: 17944593/0x0111D011) [7242*]:
    → "Thy soul now resides within the frame of a [rabbit/lizard/mandragora]."
 83: 0x028B [0x23] WAIT_FOR_DIALOG_INTERACTION
 84: 0x028C [0x52] END_LOAD_SCHEDULER: End scheduler "s026" with entities [EventEntity, EventEntity], work=622*
 85: 0x029B [0x45] LOAD_SCHEDULED_TASK: Load scheduler "s027" with entities [EventEntity, EventEntity], work=[622*, 0*]
 86: 0x02AC [0x2B] Maccus (ID: 17944593/0x0111D011) [7243*]:
    → "Thy body, while a conduit to the tangible, was beforetime fetters that chained thine essence to a singular lump of flesh."
 87: 0x02B3 [0x23] WAIT_FOR_DIALOG_INTERACTION
 88: 0x02B4 [0x2B] Maccus (ID: 17944593/0x0111D011) [7244*]:
    → "What if, though, we could cleave this carnal prison in twain? Metamorphose it into an abstract concept from bygone eons?"
 89: 0x02BB [0x23] WAIT_FOR_DIALOG_INTERACTION
 90: 0x02BC [0x2B] Maccus (ID: 17944593/0x0111D011) [7245*]:
    → "It is this thought process and years of research that delivered unto us our revelation."
 91: 0x02C3 [0x23] WAIT_FOR_DIALOG_INTERACTION
 92: 0x02C4 [0x52] END_LOAD_SCHEDULER: End scheduler "s027" with entities [EventEntity, EventEntity], work=622*
 93: 0x02D3 [0x45] LOAD_SCHEDULED_TASK: Load scheduler "s028" with entities [EventEntity, EventEntity], work=[622*, 0*]
 94: 0x02E4 [0x2B] Maccus (ID: 17944593/0x0111D011) [7246*]:
    → "...Forsooth. The phenomenon thou hast undergone is the manifestation of our epitome...."
 95: 0x02EB [0x23] WAIT_FOR_DIALOG_INTERACTION
 96: 0x02EC [0x2B] Maccus (ID: 17944593/0x0111D011) [7247*]:
    → "And the name of this phenomenon is..."
 97: 0x02F3 [0x23] WAIT_FOR_DIALOG_INTERACTION
 98: 0x02F4 [0x52] END_LOAD_SCHEDULER: End scheduler "s028" with entities [EventEntity, EventEntity], work=622*
 99: 0x0303 [0x45] LOAD_SCHEDULED_TASK: Load scheduler "s029" with entities [EventEntity, EventEntity], work=[622*, 0*]
100: 0x0314 [0x4A] Aengus (ID: 17944599/0x0111D017) looks at Teyrnon (ID: 17944595/0x0111D013)
101: 0x031D [0x2B] Aengus (ID: 17944599/0x0111D017) [7248*]:
    → "(Gramercy! I do not recall cleping it with any sort of moniker.)"
102: 0x0324 [0x23] WAIT_FOR_DIALOG_INTERACTION
103: 0x0325 [0x4A] Teyrnon (ID: 17944595/0x0111D013) looks at Aengus (ID: 17944599/0x0111D017)
104: 0x032E [0x2B] Teyrnon (ID: 17944595/0x0111D013) [7249*]:
    → "(Our maegister cares not a whit for fustian epithets. Such blatherskite serveth only to distract from our work's true purpose.)"
105: 0x0335 [0x23] WAIT_FOR_DIALOG_INTERACTION
106: 0x0336 [0x52] END_LOAD_SCHEDULER: End scheduler "s029" with entities [EventEntity, EventEntity], work=622*
107: 0x0345 [0x45] LOAD_SCHEDULED_TASK: Load scheduler "s030" with entities [EventEntity, EventEntity], work=[622*, 0*]
108: 0x0356 [0x4A] Maccus (ID: 17944593/0x0111D011) looks at Aengus (ID: 17944599/0x0111D017)
109: 0x035F [0x2B] Maccus (ID: 17944593/0x0111D011) [7250*]:
    → "(...Very well, then. How dost thou propose to reconcile the situation?)"
110: 0x0366 [0x23] WAIT_FOR_DIALOG_INTERACTION
111: 0x0367 [0x4A] Suibhne (ID: 17944597/0x0111D015) looks at Maccus (ID: 17944593/0x0111D011)
112: 0x0370 [0x2B] Suibhne (ID: 17944597/0x0111D015) [7251*]:
    → "(I see no reason to forego its entitling. Think of the convenience!)"
113: 0x0377 [0x23] WAIT_FOR_DIALOG_INTERACTION
114: 0x0378 [0x52] END_LOAD_SCHEDULER: End scheduler "s030" with entities [EventEntity, EventEntity], work=622*
115: 0x0387 [0x45] LOAD_SCHEDULED_TASK: Load scheduler "s031" with entities [EventEntity, EventEntity], work=[622*, 0*]
116: 0x0398 [0x2B] Maccus (ID: 17944593/0x0111D011) [7252*]:
    → "(Hmmm...)"
117: 0x039F [0x23] WAIT_FOR_DIALOG_INTERACTION
118: 0x03A0 [0x52] END_LOAD_SCHEDULER: End scheduler "s031" with entities [EventEntity, EventEntity], work=622*
119: 0x03AF [0x45] LOAD_SCHEDULED_TASK: Load scheduler "s032" with entities [EventEntity, EventEntity], work=[622*, 0*]
120: 0x03C0 [0x4A] Maccus (ID: 17944593/0x0111D011) looks at Unnamed NPC (ID: 17944590/0x0111D00E)
121: 0x03C9 [0x4A] Aengus (ID: 17944599/0x0111D017) looks at Unnamed NPC (ID: 17944590/0x0111D00E)
122: 0x03D2 [0x4A] Teyrnon (ID: 17944595/0x0111D013) looks at Unnamed NPC (ID: 17944590/0x0111D00E)
123: 0x03DB [0x4A] Suibhne (ID: 17944597/0x0111D015) looks at Unnamed NPC (ID: 17944590/0x0111D00E)
124: 0x03E4 [0x2B] Maccus (ID: 17944593/0x0111D011) [7253*]:
    → "Goddess be damned! This phenomenon shall hereafter be known as "Monstrosity"!"
125: 0x03EB [0x23] WAIT_FOR_DIALOG_INTERACTION
126: 0x03EC [0x52] END_LOAD_SCHEDULER: End scheduler "s032" with entities [EventEntity, EventEntity], work=622*
127: 0x03FB [0x45] LOAD_SCHEDULED_TASK: Load scheduler "s134" with entities [EventEntity, EventEntity], work=[622*, 0*]
128: 0x040C [0x2B] Maccus (ID: 17944593/0x0111D011) [7254*]:
    → "Alas, I was so inly absorbed with our conflict that I forgot to mention that the figures thou seest afore thee are our actual forms."
129: 0x0413 [0x23] WAIT_FOR_DIALOG_INTERACTION
130: 0x0414 [0x2B] Maccus (ID: 17944593/0x0111D011) [7255*]:
    → "What those outside the Feretory lay eyne upon are but puppets we have possessed, much as thou hast done with that monster."
131: 0x041B [0x23] WAIT_FOR_DIALOG_INTERACTION
132: 0x041C [0x2B] Maccus (ID: 17944593/0x0111D011) [7256*]:
    → "The reasoning behind our possession varies from thine, but that is for another day."
133: 0x0423 [0x23] WAIT_FOR_DIALOG_INTERACTION
134: 0x0424 [0x52] END_LOAD_SCHEDULER: End scheduler "s134" with entities [EventEntity, EventEntity], work=622*
135: 0x0433 [0x45] LOAD_SCHEDULED_TASK: Load scheduler "s135" with entities [EventEntity, EventEntity], work=[622*, 0*]
136: 0x0444 [0x2B] Aengus (ID: 17944599/0x0111D017) [7257*]:
    → "(Methinks it would behoove us to also decide on an appellation for adventurers who hath possessed monsters.)"
137: 0x044B [0x23] WAIT_FOR_DIALOG_INTERACTION
138: 0x044C [0x4A] Teyrnon (ID: 17944595/0x0111D013) looks at Aengus (ID: 17944599/0x0111D017)
139: 0x0455 [0x2B] Teyrnon (ID: 17944595/0x0111D013) [7258*]:
    → "(Certes. It is oft said that Vana'diel's inhabitants cling to names as a child to the mother's skirts.)"
140: 0x045C [0x23] WAIT_FOR_DIALOG_INTERACTION
141: 0x045D [0x4A] Maccus (ID: 17944593/0x0111D011) looks at Teyrnon (ID: 17944595/0x0111D013)
142: 0x0466 [0x2B] Maccus (ID: 17944593/0x0111D011) [7259*]:
    → "(...So it shall be.)"
143: 0x046D [0x23] WAIT_FOR_DIALOG_INTERACTION
144: 0x046E [0x52] END_LOAD_SCHEDULER: End scheduler "s135" with entities [EventEntity, EventEntity], work=622*
145: 0x047D [0x45] LOAD_SCHEDULED_TASK: Load scheduler "s136" with entities [EventEntity, EventEntity], work=[622*, 0*]
146: 0x048E [0x4A] Maccus (ID: 17944593/0x0111D011) looks at Unnamed NPC (ID: 17944590/0x0111D00E)
147: 0x0497 [0x4A] Teyrnon (ID: 17944595/0x0111D013) looks at Unnamed NPC (ID: 17944590/0x0111D00E)
148: 0x04A0 [0x2B] Maccus (ID: 17944593/0x0111D011) [7260*]:
    → "Let it be known that those whose souls hath entered the flesh of beasts shall henceforth be referred to as "monipulators.""
149: 0x04A7 [0x23] WAIT_FOR_DIALOG_INTERACTION
150: 0x04A8 [0x52] END_LOAD_SCHEDULER: End scheduler "s136" with entities [EventEntity, EventEntity], work=622*
151: 0x04B7 [0x45] LOAD_SCHEDULED_TASK: Load scheduler "s137" with entities [EventEntity, EventEntity], work=[622*, 0*]
152: 0x04C8 [0x2B] Maccus (ID: 17944593/0x0111D011) [7261*]:
    → "I assume thou hast yet to adjust to the host within which thou sojournest?"
153: 0x04CF [0x23] WAIT_FOR_DIALOG_INTERACTION
154: 0x04D0 [0x2B] Maccus (ID: 17944593/0x0111D011) [7262*]:
    → "No one feels perfectly comfortable their first time. I assure thee, however, that thy next attempt will go a great deal more smoothly."
155: 0x04D7 [0x23] WAIT_FOR_DIALOG_INTERACTION
156: 0x04D8 [0x2B] Maccus (ID: 17944593/0x0111D011) [7263*]:
    → "Moreover, the same tactics we employed upon thee will not work with other vessels. It is my burden to impart to thee all my knowledge of our research, so reserve nothing and ask plenty."
157: 0x04DF [0x23] WAIT_FOR_DIALOG_INTERACTION
158: 0x04E0 [0x52] END_LOAD_SCHEDULER: End scheduler "s137" with entities [EventEntity, EventEntity], work=622*

SUBROUTINE_04EF:
159: 0x04EF [0x03] ExtData[1]->WorkLocal[1] = 0*
160: 0x04F4 [0x45] LOAD_SCHEDULED_TASK: Load scheduler "s138" with entities [EventEntity, EventEntity], work=[622*, 0*]
161: 0x0505 [0x24] CREATE_DIALOG(message_id=7264*, default_option=0*, option_flags=ExtData[1]->WorkLocal[1])
    → "What will you ask about? [Monstrosity in general./Possible opponents./Customization./Ranks./Infamy./Rewards./Nothing.]"
162: 0x050C [0x25] WAIT_DIALOG_SELECT()
163: 0x050D [0x02] IF !(Work_Zone[0] == 0*) GOTO 0x06D4
164: 0x0515 [0x52] END_LOAD_SCHEDULER: End scheduler "s138" with entities [EventEntity, EventEntity], work=622*
165: 0x0524 [0x45] LOAD_SCHEDULED_TASK: Load scheduler "s139" with entities [EventEntity, EventEntity], work=[622*, 0*]
166: 0x0535 [0x2B] Maccus (ID: 17944593/0x0111D011) [7265*]:
    → "Monstrosity is the phenomenon by which adventurers take control of monsters and expand their souls inside their new bodies."
167: 0x053C [0x23] WAIT_FOR_DIALOG_INTERACTION
168: 0x053D [0x52] END_LOAD_SCHEDULER: End scheduler "s139" with entities [EventEntity, EventEntity], work=622*
169: 0x054C [0x45] LOAD_SCHEDULED_TASK: Load scheduler "s140" with entities [EventEntity, EventEntity], work=[622*, 0*]
170: 0x055D [0x2B] Maccus (ID: 17944593/0x0111D011) [7266*]:
    → "What becometh of the beings possessed? There exist some things that are simply best not to know. Make not such inquisitions eft."
171: 0x0564 [0x23] WAIT_FOR_DIALOG_INTERACTION
172: 0x0565 [0x2B] Maccus (ID: 17944593/0x0111D011) [7267*]:
    → "Ifsoever thou findest any of my teachings detestable, I recommend thee slink off into the night and return to whencesoever thou camest."
173: 0x056C [0x23] WAIT_FOR_DIALOG_INTERACTION
174: 0x056D [0x52] END_LOAD_SCHEDULER: End scheduler "s140" with entities [EventEntity, EventEntity], work=622*
175: 0x057C [0x45] LOAD_SCHEDULED_TASK: Load scheduler "s141" with entities [EventEntity, EventEntity], work=[622*, 0*]
176: 0x058D [0x2B] Maccus (ID: 17944593/0x0111D011) [7268*]:
    → "...Allow me to begin anew."
177: 0x0594 [0x23] WAIT_FOR_DIALOG_INTERACTION
178: 0x0595 [0x52] END_LOAD_SCHEDULER: End scheduler "s141" with entities [EventEntity, EventEntity], work=622*
179: 0x05A4 [0x45] LOAD_SCHEDULED_TASK: Load scheduler "s142" with entities [EventEntity, EventEntity], work=[622*, 0*]
180: 0x05B5 [0x2B] Maccus (ID: 17944593/0x0111D011) [7269*]:
    → "Possession of any monsters shall take place within the confines of the Feretory."
181: 0x05BC [0x23] WAIT_FOR_DIALOG_INTERACTION
182: 0x05BD [0x2B] Maccus (ID: 17944593/0x0111D011) [7270*]:
    → "Thou mayest wish to jump twixt vessels at thine own whim, but such action is wrought with danger. The soul is a delicate entity."
183: 0x05C4 [0x23] WAIT_FOR_DIALOG_INTERACTION
184: 0x05C5 [0x52] END_LOAD_SCHEDULER: End scheduler "s142" with entities [EventEntity, EventEntity], work=622*
185: 0x05D4 [0x45] LOAD_SCHEDULED_TASK: Load scheduler "s143" with entities [EventEntity, EventEntity], work=[622*, 0*]
186: 0x05E5 [0x2B] Maccus (ID: 17944593/0x0111D011) [7271*]:
    → "Lest thou art willing to render thyself as vulnerable as a babe before beasts, the Feretory is the only place where thy safety is assured."
187: 0x05EC [0x23] WAIT_FOR_DIALOG_INTERACTION
188: 0x05ED [0x2B] Maccus (ID: 17944593/0x0111D011) [7272*]:
    → "One may enter from the Pashhow Marshlands, Northern San d'Oria, Port Bastok, and Port Windurst. Pass through any and all the gateways at thine own behest."
189: 0x05F4 [0x23] WAIT_FOR_DIALOG_INTERACTION
190: 0x05F5 [0x52] END_LOAD_SCHEDULER: End scheduler "s143" with entities [EventEntity, EventEntity], work=622*
191: 0x0604 [0x45] LOAD_SCHEDULED_TASK: Load scheduler "s144" with entities [EventEntity, EventEntity], work=[622*, 0*]
192: 0x0615 [0x4A] Maccus (ID: 17944593/0x0111D011) looks at Unnamed NPC (ID: 17944589/0x0111D00D)
193: 0x061E [0x2B] Maccus (ID: 17944593/0x0111D011) [7273*]:
    → "Nor is there need to fear for thy original frame."
194: 0x0625 [0x23] WAIT_FOR_DIALOG_INTERACTION
195: 0x0626 [0x4A] Maccus (ID: 17944593/0x0111D011) looks at Unnamed NPC (ID: 17944590/0x0111D00E)
196: 0x062F [0x2B] Maccus (ID: 17944593/0x0111D011) [7274*]:
    → "Adventurers such as thee are a coveted commodity to our maegister. We shall ensure that nary a scratch appeareth upon its skin while it doth lie within our care."
197: 0x0636 [0x23] WAIT_FOR_DIALOG_INTERACTION
198: 0x0637 [0x52] END_LOAD_SCHEDULER: End scheduler "s144" with entities [EventEntity, EventEntity], work=622*
199: 0x0646 [0x45] LOAD_SCHEDULED_TASK: Load scheduler "s145" with entities [EventEntity, EventEntity], work=[622*, 0*]
200: 0x0657 [0x2B] Maccus (ID: 17944593/0x0111D011) [7275*]:
    → "Once the transition is complete, make haste to the odyssean passage and depart for the location of thy choice, in which thou mayest battle to thy heart's content."
201: 0x065E [0x23] WAIT_FOR_DIALOG_INTERACTION
202: 0x065F [0x2B] Maccus (ID: 17944593/0x0111D011) [7276*]:
    → "Hark! Once thou departest for a land yonder, it is impossible to move to another. Thereon, I ask thee to think long and hard afore making thy decision."
203: 0x0666 [0x23] WAIT_FOR_DIALOG_INTERACTION
204: 0x0667 [0x52] END_LOAD_SCHEDULER: End scheduler "s145" with entities [EventEntity, EventEntity], work=622*
205: 0x0676 [0x45] LOAD_SCHEDULED_TASK: Load scheduler "s146" with entities [EventEntity, EventEntity], work=[622*, 0*]
206: 0x0687 [0x2B] Maccus (ID: 17944593/0x0111D011) [7277*]:
    → "Whenas thou growest weary of thy monstrous flesh and wish to return to thy original form, rescind control of thy host with "Relinquish.""
207: 0x068E [0x23] WAIT_FOR_DIALOG_INTERACTION
208: 0x068F [0x52] END_LOAD_SCHEDULER: End scheduler "s146" with entities [EventEntity, EventEntity], work=622*
209: 0x069E [0x45] LOAD_SCHEDULED_TASK: Load scheduler "s147" with entities [EventEntity, EventEntity], work=[622*, 0*]
210: 0x06AF [0x2B] Maccus (ID: 17944593/0x0111D011) [7278*]:
    → "Howbeit, receiving blows from foes and moving in even the slightest manner shall countermand the directive."
211: 0x06B6 [0x23] WAIT_FOR_DIALOG_INTERACTION
212: 0x06B7 [0x2B] Maccus (ID: 17944593/0x0111D011) [7279*]:
    → "It would not do for an important personage such as thee to have thy soul bared to the elements."
213: 0x06BE [0x23] WAIT_FOR_DIALOG_INTERACTION
214: 0x06BF [0x52] END_LOAD_SCHEDULER: End scheduler "s147" with entities [EventEntity, EventEntity], work=622*
215: 0x06CE [0x01] GOTO 0x04EF

SUBROUTINE_0828:
216: 0x0828 [0x45] LOAD_SCHEDULED_TASK: Load scheduler "s154" with entities [EventEntity, EventEntity], work=[622*, 0*]
217: 0x0839 [0x24] CREATE_DIALOG(message_id=7292*, default_option=0*, option_flags=0*)
    → "Ask about what? [Species./Naming./Instincts./Nothing.]"
218: 0x0840 [0x25] WAIT_DIALOG_SELECT()
219: 0x0841 [0x02] IF !(Work_Zone[0] == 0*) GOTO 0x08BE
220: 0x0849 [0x52] END_LOAD_SCHEDULER: End scheduler "s154" with entities [EventEntity, EventEntity], work=622*
221: 0x0858 [0x45] LOAD_SCHEDULED_TASK: Load scheduler "s157" with entities [EventEntity, EventEntity], work=[622*, 0*]
222: 0x0869 [0x2B] Maccus (ID: 17944593/0x0111D011) [7293*]:
    → "Thy bestiary doth be the gateway through which thou stridest when possessing fiends. (Choose the monster you wish to possess from the "Species" menu.)"
223: 0x0870 [0x23] WAIT_FOR_DIALOG_INTERACTION
224: 0x0871 [0x2B] Maccus (ID: 17944593/0x0111D011) [7294*]:
    → "The number of monsters thou mayest harbor will be small at first, but the higher thy level riseth, the more thou canst hoard."
225: 0x0878 [0x23] WAIT_FOR_DIALOG_INTERACTION
226: 0x0879 [0x52] END_LOAD_SCHEDULER: End scheduler "s157" with entities [EventEntity, EventEntity], work=622*
227: 0x0888 [0x45] LOAD_SCHEDULED_TASK: Load scheduler "s158" with entities [EventEntity, EventEntity], work=[622*, 0*]
228: 0x0899 [0x2B] Maccus (ID: 17944593/0x0111D011) [7295*]:
    → "As a rule, thou shalt only be able to select new monsters of the same species which thou hast leveled."
229: 0x08A0 [0x23] WAIT_FOR_DIALOG_INTERACTION
230: 0x08A1 [0x2B] Maccus (ID: 17944593/0x0111D011) [7296*]:
    → "Exceptions do exist, however, and there shall be times when it is possible to unleash thy soul upon different types."
231: 0x08A8 [0x23] WAIT_FOR_DIALOG_INTERACTION
232: 0x08A9 [0x52] END_LOAD_SCHEDULER: End scheduler "s158" with entities [EventEntity, EventEntity], work=622*
233: 0x08B8 [0x01] GOTO 0x0828

SUBROUTINE_09D8:
234: 0x09D8 [0x52] END_LOAD_SCHEDULER: End scheduler "s154" with entities [EventEntity, EventEntity], work=622*
235: 0x09E7 [0x01] GOTO 0x04EF

SUBROUTINE_0B67:
236: 0x0B67 [0x45] LOAD_SCHEDULED_TASK: Load scheduler "fdo1" with entities [LocalPlayer, LocalPlayer], work=[200*, 0*]
237: 0x0B78 [0x55] WAIT_LOAD_SCHEDULER: Wait for scheduler "fdo1" with entities [LocalPlayer, LocalPlayer], work=200*
238: 0x0B87 [0x52] END_LOAD_SCHEDULER: End scheduler "s169" with entities [EventEntity, EventEntity], work=622*
239: 0x0B96 [0xB6] ENTITY_APPEARANCE_HANDLER(case=Full entity look, race=1*, hair=0*, head=0*, body=0*, hands=0*, legs=0*, feet=0*, main=0*, sub=0*)
240: 0x0BAA [0x27] REQ_SET(priority=0x05, entity_id=Unnamed NPC (ID: 17944590/0x0111D00E), tag_num=0x06)
241: 0x0BB1 [0x45] LOAD_SCHEDULED_TASK: Load scheduler "qstc" with entities [EventEntity, EventEntity], work=[201*, 0*]
242: 0x0BC2 [0x46] CAMERA_CONTROL: Restore default settings
243: 0x0BC4 [0x45] LOAD_SCHEDULED_TASK: Load scheduler "fdi2" with entities [LocalPlayer, LocalPlayer], work=[200*, 0*]
244: 0x0BD5 [0x21] END_EVENT
245: 0x0BD6 [0x00] END_REQSTACK()
```

#### Data or dead code:

```
# Dead code (unreachable instructions):
     0x06D1 [0x01] GOTO 0x0B67
     0x07DE [0x01] GOTO 0x0B67
# Dead code (unreachable instructions):
     0x08BB [0x01] GOTO 0x09D8
     0x0930 [0x01] GOTO 0x09D8
     0x09D5 [0x01] GOTO 0x09D8
# Dead code (unreachable instructions):
     0x09EA [0x01] GOTO 0x0B67
     0x0A5F [0x01] GOTO 0x0B67
     0x0AE4 [0x01] GOTO 0x0B67
     0x0B31 [0x01] GOTO 0x0B67
```
