# 17944600 - Aengus

## Common Data

| Field            | Value              |
|------------------|--------------------|
| Zone             | Feretory (ID: 285) |
| Block Size       | 284 bytes          |
| Total Events     | 2                  |
| References Count | 12                 |

## List of Events

| Event ID              | Entrypoint   |   Size |   Instructions |
|-----------------------|--------------|--------|----------------|
| [65535](#event-65535) | 0x0000       |      1 |              1 |
| [14](#event-14)       | 0x0001       |    210 |             50 |

## DAT References (imed_data)

|   Index | Hex Value   |   Dec Value |
|---------|-------------|-------------|
|       0 | 0x0000      |           0 |
|       1 | 0x1CC7      |        7367 |
|       2 | 0x1CC8      |        7368 |
|       3 | 0x1CCB      |        7371 |
|       4 | 0x1CC9      |        7369 |
|       5 | 0x1CCA      |        7370 |
|       6 | 0x1CCC      |        7372 |
|       7 | 0x1CCD      |        7373 |
|       8 | 0x0001      |           1 |
|       9 | 0x1CCE      |        7374 |
|      10 | 0x1CCF      |        7375 |
|      11 | 0x0002      |           2 |

## String References

- **7367**: One's soul can only mature to a certain degree by slaying commonplace fiends. I command thee to seek out more capable foes.
- **7369**: Doing so enablest thee to enter combat with adventurers. Dost thou assent?
- **7372**: Thou hast no longer the fortitude to eviscerate thy foes? Lackaday, what a pathetic display of cowardice. However, I shall respect thy wishes.
- **7374**: There is a level limit for each locale while in belligerency, and each species hath levels at which their strengths are at their peak. Experiment with a cornucopia of different vessels in diverse areas to enjoy thy freedom to the fullest.
- **7375**: Beware that shouldst thou come under a level restriction, certain effects placed upon thee will be removed.

## Events

### Event 65535

#### Metadata

| Field        | Value   |
|--------------|---------|
| Entrypoint   | 0x0000  |
| Data Size    | 1 bytes |
| Instructions | 1       |

```
      00 01 02 03 04 05 06 07  08 09 0A 0B 0C 0D 0E 0F
      -- -- -- -- -- -- -- --  -- -- -- -- -- -- -- --
0000: 00                                                .               
```

#### Opcodes

```
  0: 0x0000 [0x00] END_REQSTACK()
```

### Event 14

#### Metadata

| Field        | Value     |
|--------------|-----------|
| Entrypoint   | 0x0001    |
| Data Size    | 210 bytes |
| Instructions | 50        |

```
      00 01 02 03 04 05 06 07  08 09 0A 0B 0C 0D 0E 0F
      -- -- -- -- -- -- -- --  -- -- -- -- -- -- -- --
0000:    03 01 10 00 80 06 00  00 03 03 00 00 80 03 02   ...............
0010: 00 02 10 03 01 00 03 10  4A F0 FF FF 7F F8 FF FF  ........J.......
0020: 7F 4A F8 FF FF 7F F0 FF  FF 7F 6F 76 F8 FF FF 7F  .J........ov....
0030: 05 00 00 1D 01 80 23 02  00 00 00 80 02 D1 00 02  ......#.........
0040: 02 00 00 80 00 4F 00 03  03 00 02 80 01 54 00 03  .....O.......T..
0050: 03 00 03 80 24 03 00 00  80 00 80 25 02 00 10 00  ....$......%....
0060: 80 80 AA 00 02 02 00 00  80 00 78 00 1D 04 80 23  ..........x....#
0070: 03 03 00 05 80 01 81 00  1D 06 80 23 03 03 00 07  ...........#....
0080: 80 24 03 00 08 80 00 80  25 02 00 10 00 80 80 9C  .$......%.......
0090: 00 03 01 10 08 80 06 00  00 01 A7 00 02 00 10 08  ................
00A0: 80 80 A7 00 01 A7 00 01  CE 00 02 00 10 08 80 80  ................
00B0: C0 00 1D 09 80 23 1D 0A  80 23 06 00 00 01 CE 00  .....#...#......
00C0: 02 00 10 0B 80 80 CE 00  06 00 00 01 CE 00 01 37  ...............7
00D0: 00 21 00                                          .!.             
```

#### Opcodes

```
  0: 0x0001 [0x03] Work_Zone[1] = 0*
  1: 0x0006 [0x06] ExtData[1]->WorkLocal[0] = 0
  2: 0x0009 [0x03] ExtData[1]->WorkLocal[3] = 0*
  3: 0x000E [0x03] ExtData[1]->WorkLocal[2] = Work_Zone[2]
  4: 0x0013 [0x03] ExtData[1]->WorkLocal[1] = Work_Zone[3]
  5: 0x0018 [0x4A] LocalPlayer looks at EventEntity
  6: 0x0021 [0x4A] EventEntity looks at LocalPlayer
  7: 0x002A [0x6F] WAIT_FRAME_DELAY: Yield until WaitTime reaches zero
  8: 0x002B [0x76] CHECK_ENTITY_RENDER_FLAGS: Wait until EventEntity Render.Flags0 and Render.Flags3 conditions are met
  9: 0x0030 [0x05] ExtData[1]->WorkLocal[0] = 1
 10: 0x0033 [0x1D] PRINT_EVENT_MESSAGE(message_id=7367*)
    → "One's soul can only mature to a certain degree by slaying commonplace fiends. I command thee to seek out more capable foes."
 11: 0x0036 [0x23] WAIT_FOR_DIALOG_INTERACTION
 12: 0x0037 [0x02] IF !(ExtData[1]->WorkLocal[0] <= 0*) GOTO 0x00D1
 13: 0x003F [0x02] IF !(ExtData[1]->WorkLocal[2] == 0*) GOTO 0x004F
 14: 0x0047 [0x03] ExtData[1]->WorkLocal[3] = 7368*
 15: 0x004C [0x01] GOTO 0x0054
 16: 0x004F [0x03] ExtData[1]->WorkLocal[3] = 7371*

SUBROUTINE_0054:
 17: 0x0054 [0x24] CREATE_DIALOG(message_id=ExtData[1]->WorkLocal[3], default_option=0*, option_flags=0*)
 18: 0x005B [0x25] WAIT_DIALOG_SELECT()
 19: 0x005C [0x02] IF !(Work_Zone[0] == 0*) GOTO 0x00AA
 20: 0x0064 [0x02] IF !(ExtData[1]->WorkLocal[2] == 0*) GOTO 0x0078
 21: 0x006C [0x1D] PRINT_EVENT_MESSAGE(message_id=7369*)
    → "Doing so enablest thee to enter combat with adventurers. Dost thou assent?"
 22: 0x006F [0x23] WAIT_FOR_DIALOG_INTERACTION
 23: 0x0070 [0x03] ExtData[1]->WorkLocal[3] = 7370*
 24: 0x0075 [0x01] GOTO 0x0081
 25: 0x0078 [0x1D] PRINT_EVENT_MESSAGE(message_id=7372*)
    → "Thou hast no longer the fortitude to eviscerate thy foes? Lackaday, what a pathetic display of cowardice. However, I shall respect thy wishes."
 26: 0x007B [0x23] WAIT_FOR_DIALOG_INTERACTION
 27: 0x007C [0x03] ExtData[1]->WorkLocal[3] = 7373*

SUBROUTINE_0081:
 28: 0x0081 [0x24] CREATE_DIALOG(message_id=ExtData[1]->WorkLocal[3], default_option=1*, option_flags=0*)
 29: 0x0088 [0x25] WAIT_DIALOG_SELECT()
 30: 0x0089 [0x02] IF !(Work_Zone[0] == 0*) GOTO 0x009C
 31: 0x0091 [0x03] Work_Zone[1] = 1*
 32: 0x0096 [0x06] ExtData[1]->WorkLocal[0] = 0
 33: 0x0099 [0x01] GOTO 0x00A7
 34: 0x009C [0x02] IF !(Work_Zone[0] == 1*) GOTO 0x00A7
 35: 0x00A4 [0x01] GOTO 0x00A7

SUBROUTINE_00A7:
 36: 0x00A7 [0x01] GOTO 0x00CE
 37: 0x00AA [0x02] IF !(Work_Zone[0] == 1*) GOTO 0x00C0
 38: 0x00B2 [0x1D] PRINT_EVENT_MESSAGE(message_id=7374*)
    → "There is a level limit for each locale while in belligerency, and each species hath levels at which their strengths are at their peak. Experiment with a cornucopia of different vessels in diverse areas to enjoy thy freedom to the fullest."
 39: 0x00B5 [0x23] WAIT_FOR_DIALOG_INTERACTION
 40: 0x00B6 [0x1D] PRINT_EVENT_MESSAGE(message_id=7375*)
    → "Beware that shouldst thou come under a level restriction, certain effects placed upon thee will be removed."
 41: 0x00B9 [0x23] WAIT_FOR_DIALOG_INTERACTION
 42: 0x00BA [0x06] ExtData[1]->WorkLocal[0] = 0
 43: 0x00BD [0x01] GOTO 0x00CE
 44: 0x00C0 [0x02] IF !(Work_Zone[0] == 2*) GOTO 0x00CE
 45: 0x00C8 [0x06] ExtData[1]->WorkLocal[0] = 0
 46: 0x00CB [0x01] GOTO 0x00CE

SUBROUTINE_00CE:
 47: 0x00CE [0x01] GOTO 0x0037
 48: 0x00D1 [0x21] END_EVENT
 49: 0x00D2 [0x00] END_REQSTACK()
```
