# Event 65535

## Metadata

| Field           | Value    |
|-----------------|----------|
| Event Index     | 23/30    |
| Offset          | 0x00EF   |
| Data Size       | 67 bytes |
| Calculated Size | 67 bytes |
| Instructions    | 11       |

```
      00 01 02 03 04 05 06 07  08 09 0A 0B 0C 0D 0E 0F
      -- -- -- -- -- -- -- --  -- -- -- -- -- -- -- --
00E0:                                               32                 2
00F0: 0D 80 1F 00 0E 80 0F 80  06 80 1F 01 1F 00 17 80  ................
0100: 18 80 06 80 1F 01 4A F8  FF FF 7F F0 FF FF 7F 6F  ......J........o
0110: 76 65 50 03 01 5B 0B 80  65 50 03 01 65 50 03 01  veP..[..eP..eP..
0120: 68 61 70 30 53 65 50 03  01 65 50 03 01 68 61 70  hap0SeP..eP..hap
0130: 30 00                                             0.              
```

## Opcodes

```
  0: 0x00EF [0x32] ExtData[1]->MainSpeed = 40* * 0.1
  1: 0x00F2 [0x1F] MOVE_ENTITY: EventEntity moves to X=-13.768*, Z=67.656*, Y=-6.000*
  2: 0x00FA [0x1F] MOVE_ENTITY: Update entity position (mode=1)
  3: 0x00FC [0x1F] MOVE_ENTITY: EventEntity moves to X=-13.756*, Z=66.710*, Y=-6.000*
  4: 0x0104 [0x1F] MOVE_ENTITY: Update entity position (mode=1)
  5: 0x0106 [0x4A] EventEntity looks at LocalPlayer
  6: 0x010F [0x6F] WAIT_FRAME_DELAY: Yield until WaitTime reaches zero
  7: 0x0110 [0x76] CHECK_ENTITY_RENDER_FLAGS: Wait until Yoyoroon (ID: 16994405/0x01035065) Render.Flags0 and Render.Flags3 conditions are met
  8: 0x0115 [0x5B] LOAD_EXT_SCHEDULER(work_offset=843*, entity1=Yoyoroon (ID: 16994405/0x01035065), entity2=Yoyoroon (ID: 16994405/0x01035065), action="hap0")
  9: 0x0124 [0x53] WAIT_SCHEDULER_TASK(entity1=Yoyoroon (ID: 16994405/0x01035065), entity2=Yoyoroon (ID: 16994405/0x01035065), action_id="hap0")
 10: 0x0131 [0x00] END_REQSTACK()
```
