# Event 65535

## Metadata

| Field           | Value    |
|-----------------|----------|
| Event Index     | 28/30    |
| Offset          | 0x01C3   |
| Data Size       | 56 bytes |
| Calculated Size | 56 bytes |
| Instructions    | 14       |

```
      00 01 02 03 04 05 06 07  08 09 0A 0B 0C 0D 0E 0F
      -- -- -- -- -- -- -- --  -- -- -- -- -- -- -- --
01C0:          32 23 80 1F 00  24 80 25 80 20 80 1F 01     2#...$.%. ...
01D0: 1F 00 26 80 27 80 20 80  1F 01 1F 00 28 80 29 80  ..&.'. .....(.).
01E0: 20 80 1F 01 1F 00 2A 80  2B 80 20 80 1F 01 6F 1E   .....*.+. ...o.
01F0: F0 FF FF 7F 6F 76 F8 FF  FF 7F 00                 ....ov.....     
```

## Opcodes

```
  0: 0x01C3 [0x32] ExtData[1]->MainSpeed = 44* * 0.1
  1: 0x01C6 [0x1F] MOVE_ENTITY: EventEntity moves to X=-14.207*, Z=71.843*, Y=-5.999*
  2: 0x01CE [0x1F] MOVE_ENTITY: Update entity position (mode=1)
  3: 0x01D0 [0x1F] MOVE_ENTITY: EventEntity moves to X=-13.564*, Z=68.317*, Y=-5.999*
  4: 0x01D8 [0x1F] MOVE_ENTITY: Update entity position (mode=1)
  5: 0x01DA [0x1F] MOVE_ENTITY: EventEntity moves to X=-7.866*, Z=68.031*, Y=-5.999*
  6: 0x01E2 [0x1F] MOVE_ENTITY: Update entity position (mode=1)
  7: 0x01E4 [0x1F] MOVE_ENTITY: EventEntity moves to X=-7.493*, Z=69.405*, Y=-5.999*
  8: 0x01EC [0x1F] MOVE_ENTITY: Update entity position (mode=1)
  9: 0x01EE [0x6F] WAIT_FRAME_DELAY: Yield until WaitTime reaches zero
 10: 0x01EF [0x1E] EventEntity looks at LocalPlayer and starts talking
 11: 0x01F4 [0x6F] WAIT_FRAME_DELAY: Yield until WaitTime reaches zero
 12: 0x01F5 [0x76] CHECK_ENTITY_RENDER_FLAGS: Wait until EventEntity Render.Flags0 and Render.Flags3 conditions are met
 13: 0x01FA [0x00] END_REQSTACK()
```
