# Event 65535

## Metadata

| Field           | Value    |
|-----------------|----------|
| Event Index     | 25/30    |
| Offset          | 0x0158   |
| Data Size       | 66 bytes |
| Calculated Size | 66 bytes |
| Instructions    | 7        |

```
      00 01 02 03 04 05 06 07  08 09 0A 0B 0C 0D 0E 0F
      -- -- -- -- -- -- -- --  -- -- -- -- -- -- -- --
0150:                          1C 12 80 5B 0B 80 65 50          ...[..eP
0160: 03 01 65 50 03 01 68 61  70 30 79 00 66 50 03 01  ..eP..hap0y.fP..
0170: 65 50 03 01 53 65 50 03  01 65 50 03 01 68 61 70  eP..SeP..eP..hap
0180: 30 4A 65 50 03 01 66 50  03 01 5B 1C 80 65 50 03  0JeP..fP..[..eP.
0190: 01 65 50 03 01 74 6C 6B  30 00                    .eP..tlk0.      
```

## Opcodes

```
  0: 0x0158 [0x1C] WAIT(30* ticks)
  1: 0x015B [0x5B] LOAD_EXT_SCHEDULER: Load scheduler "hap0" with entities [Yoyoroon (ID: 16994405/0x01035065), Yoyoroon (ID: 16994405/0x01035065)], work=843*
  2: 0x016A [0x79] Tsetseroon (ID: 16994406/0x01035066) looks at Yoyoroon (ID: 16994405/0x01035065) (Basic look)
  3: 0x0174 [0x53] WAIT_SCHEDULER_TASK: Wait for scheduler "hap0" with entities [Yoyoroon (ID: 16994405/0x01035065), Yoyoroon (ID: 16994405/0x01035065)]
  4: 0x0181 [0x4A] Yoyoroon (ID: 16994405/0x01035065) looks at Tsetseroon (ID: 16994406/0x01035066)
  5: 0x018A [0x5B] LOAD_EXT_SCHEDULER: Load scheduler "tlk0" with entities [Yoyoroon (ID: 16994405/0x01035065), Yoyoroon (ID: 16994405/0x01035065)], work=842*
  6: 0x0199 [0x00] END_REQSTACK()
```
