# Event 65535

## Metadata

| Field           | Value    |
|-----------------|----------|
| Event Index     | 38/58    |
| Offset          | 0x039A   |
| Data Size       | 45 bytes |
| Calculated Size | 45 bytes |
| Instructions    | 8        |

```
      00 01 02 03 04 05 06 07  08 09 0A 0B 0C 0D 0E 0F
      -- -- -- -- -- -- -- --  -- -- -- -- -- -- -- --
0390:                                03 00 00 00 80 13            ......
03A0: 02 00 26 80 02 02 00 00  80 80 C6 03 5B 2D 80 54  ..&.........[-.T
03B0: 83 08 01 54 83 08 01 69  72 61 30 03 00 00 01 80  ...T...ira0.....
03C0: 1C 14 80 01 C6 03 00                              .......         
```

## Opcodes

```
  0: 0x039A [0x03] ExtData[1]->WorkLocal[0] = 0*
  1: 0x039F [0x13] ExtData[1]->WorkLocal[2] = rand() % 3*
  2: 0x03A4 [0x02] IF !(ExtData[1]->WorkLocal[2] == 0*) GOTO 0x03C6
  3: 0x03AC [0x5B] LOAD_EXT_SCHEDULER(work_offset=2532*, entity1=Lilisette (ID: 17335124/0x01088354), entity2=Lilisette (ID: 17335124/0x01088354), action="ira0")
  4: 0x03BB [0x03] ExtData[1]->WorkLocal[0] = 1*
  5: 0x03C0 [0x1C] WAIT(90* ticks)
  6: 0x03C3 [0x01] GOTO 0x03C6

SUBROUTINE_03C6:
  7: 0x03C6 [0x00] END_REQSTACK()
```
