# Event 65535

## Metadata

| Field           | Value    |
|-----------------|----------|
| Event Index     | 34/58    |
| Offset          | 0x0212   |
| Data Size       | 62 bytes |
| Calculated Size | 62 bytes |
| Instructions    | 6        |

```
      00 01 02 03 04 05 06 07  08 09 0A 0B 0C 0D 0E 0F
      -- -- -- -- -- -- -- --  -- -- -- -- -- -- -- --
0210:       BB 21 80 0C 83 08  01 0C 83 08 01 73 74 30    .!.........st0
0220: 31 00 80 1C 22 80 BB 21  80 0C 83 08 01 0C 83 08  1..."..!........
0230: 01 73 74 30 32 00 80 27  10 CC 82 08 01 0D 45 23  .st02..'......E#
0240: 80 F8 FF FF 7F F8 FF FF  7F 64 62 6E 30 00 80 00  .........dbn0...
```

## Opcodes

```
  0: 0x0212 [0xBB] LOAD_EVENT_SCHEDULER_ALT: Load scheduler "st01" with entities [Unnamed NPC (ID: 17335052/0x0108830C), Unnamed NPC (ID: 17335052/0x0108830C)], work=[156*, 0*]
  1: 0x0223 [0x1C] WAIT(200* ticks)
  2: 0x0226 [0xBB] LOAD_EVENT_SCHEDULER_ALT: Load scheduler "st02" with entities [Unnamed NPC (ID: 17335052/0x0108830C), Unnamed NPC (ID: 17335052/0x0108830C)], work=[156*, 0*]
  3: 0x0237 [0x27] REQ_SET(priority=0x10, entity_id=??? (ID: 17334988/0x010882CC), tag_num=0x0D)
  4: 0x023E [0x45] LOAD_SCHEDULED_TASK: Load scheduler "dbn0" with entities [EventEntity, EventEntity], work=[482*, 0*]
  5: 0x024F [0x00] END_REQSTACK()
```
