# Event 65535

## Metadata

| Field           | Value    |
|-----------------|----------|
| Event Index     | 19/58    |
| Offset          | 0x00CF   |
| Data Size       | 59 bytes |
| Calculated Size | 59 bytes |
| Instructions    | 9        |

```
      00 01 02 03 04 05 06 07  08 09 0A 0B 0C 0D 0E 0F
      -- -- -- -- -- -- -- --  -- -- -- -- -- -- -- --
00C0:                                               32                 2
00D0: 09 80 1F 00 0A 80 0B 80  0C 80 1F 01 6F 52 0D 80  ............oR..
00E0: F0 FF FF 7F F0 FF FF 7F  30 30 30 31 45 0D 80 F0  ........0001E...
00F0: FF FF 7F F0 FF FF 7F 30  30 32 37 00 80 1C 05 80  .......0027.....
0100: 4A 54 83 08 01 F0 FF FF  7F 00                    JT........      
```

## Opcodes

```
  0: 0x00CF [0x32] ExtData[1]->MainSpeed = 13* * 0.1
  1: 0x00D2 [0x1F] MOVE_ENTITY: EventEntity moves to X=60.932*, Z=-471.281*, Y=0.172*
  2: 0x00DA [0x1F] MOVE_ENTITY: Update entity position (mode=1)
  3: 0x00DC [0x6F] WAIT_FRAME_DELAY: Yield until WaitTime reaches zero
  4: 0x00DD [0x52] END_LOAD_SCHEDULER: End scheduler "0001" with entities [LocalPlayer, LocalPlayer], work=501*
  5: 0x00EC [0x45] LOAD_SCHEDULED_TASK(work_offset1=501*, entity1=LocalPlayer, entity2=LocalPlayer, scheduler_id="0027", work_offset2=0*)
  6: 0x00FD [0x1C] WAIT(30* ticks)
  7: 0x0100 [0x4A] Lilisette (ID: 17335124/0x01088354) looks at LocalPlayer
  8: 0x0109 [0x00] END_REQSTACK()
```
