# Event 65535

## Metadata

| Field           | Value    |
|-----------------|----------|
| Event Index     | 25/58    |
| Offset          | 0x01B7   |
| Data Size       | 57 bytes |
| Calculated Size | 57 bytes |
| Instructions    | 7        |

```
      00 01 02 03 04 05 06 07  08 09 0A 0B 0C 0D 0E 0F
      -- -- -- -- -- -- -- --  -- -- -- -- -- -- -- --
01B0:                      1E  F0 FF FF 7F 5B 03 80 54         .....[..T
01C0: 83 08 01 54 83 08 01 66  32 30 31 1C 05 80 5B 20  ...T...f201...[ 
01D0: 80 54 83 08 01 54 83 08  01 74 6C 65 30 1C 1E 80  .T...T...tle0...
01E0: 5B 03 80 54 83 08 01 54  83 08 01 66 32 30 30 00  [..T...T...f200.
```

## Opcodes

```
  0: 0x01B7 [0x1E] EventEntity looks at LocalPlayer and starts talking
  1: 0x01BC [0x5B] LOAD_EXT_SCHEDULER(work_offset=2135*, entity1=Lilisette (ID: 17335124/0x01088354), entity2=Lilisette (ID: 17335124/0x01088354), action="f201")
  2: 0x01CB [0x1C] WAIT(30* ticks)
  3: 0x01CE [0x5B] LOAD_EXT_SCHEDULER(work_offset=2132*, entity1=Lilisette (ID: 17335124/0x01088354), entity2=Lilisette (ID: 17335124/0x01088354), action="tle0")
  4: 0x01DD [0x1C] WAIT(150* ticks)
  5: 0x01E0 [0x5B] LOAD_EXT_SCHEDULER(work_offset=2135*, entity1=Lilisette (ID: 17335124/0x01088354), entity2=Lilisette (ID: 17335124/0x01088354), action="f200")
  6: 0x01EF [0x00] END_REQSTACK()
```
