# Event 84

## Metadata

| Field           | Value    |
|-----------------|----------|
| Event Index     | 4/7      |
| Offset          | 0x002E   |
| Data Size       | 38 bytes |
| Calculated Size | 38 bytes |
| Instructions    | 11       |

```
      00 01 02 03 04 05 06 07  08 09 0A 0B 0C 0D 0E 0F
      -- -- -- -- -- -- -- --  -- -- -- -- -- -- -- --
0020:                                            03 09                ..
0030: 10 05 80 20 01 42 1E F0  FF FF 7F 1D 06 80 23 5B  ... .B........#[
0040: 02 80 F8 FF FF 7F F8 FF  FF 7F 74 6C 6B 30 1D 07  ..........tlk0..
0050: 80 23 21 00                                       .#!.            
```

## Opcodes

```
  0: 0x002E [0x03] Work_Zone[9] = 17397*
  1: 0x0033 [0x20] SET_CLI_EVENT_UC_FLAG: Lock player control
  2: 0x0035 [0x42] SET_CLI_EVENT_CANCEL_DATA()
  3: 0x0036 [0x1E] EventEntity looks at LocalPlayer and starts talking
  4: 0x003B [0x1D] PRINT_EVENT_MESSAGE(message_id=7499*)
    → "What is this?\u0007Ah, of course! \u00072Putting \u0001\u0005%\u0002\u0007\u0000\u0000 in a Quadav shell!\u00073\u0007All I have to do is put this nasty little thing in my son's shell, right?\u007F1\u0000\u0007"
  5: 0x003E [0x23] WAIT_FOR_DIALOG_INTERACTION
  6: 0x003F [0x5B] LOAD_EXT_SCHEDULER: Load scheduler "tlk0" with entities [EventEntity, EventEntity], work=60*
  7: 0x004E [0x1D] PRINT_EVENT_MESSAGE(message_id=7500*)
    → "I'll go do it right away!\u0007Come back later--I'll give you a reward if it works!\u007F1\u0000\u0007"
  8: 0x0051 [0x23] WAIT_FOR_DIALOG_INTERACTION
  9: 0x0052 [0x21] END_EVENT
 10: 0x0053 [0x00] END_REQSTACK()
```
