# 17556005 - Ranperre

## Common Data

| Field            | Value                          |
|------------------|--------------------------------|
| Zone             | King Ranperre's Tomb (ID: 190) |
| Block Size       | 324 bytes                      |
| Total Events     | 6                              |
| References Count | 10                             |

## List of Events

| Event ID                 | Entrypoint   |   Size |   Instructions |
|--------------------------|--------------|--------|----------------|
| [65535](#event-65535)    | 0x0000       |      1 |              1 |
| [14](#event-14)          | 0x0001       |      1 |              1 |
| [65535.1](#event-655351) | 0x0002       |     88 |             11 |
| [65535.2](#event-655352) | 0x005A       |     29 |              3 |
| [65535.3](#event-655353) | 0x0077       |     49 |              5 |
| [65535.4](#event-655354) | 0x00A8       |     75 |              8 |

## DAT References (imed_data)

|   Index | Hex Value   |   Dec Value |
|---------|-------------|-------------|
|       0 | 0x0000      |           0 |
|       1 | 0x0001      |           1 |
|       2 | 0x001D      |          29 |
|       3 | 0x002B      |          43 |
|       4 | 0x0080      |         128 |
|       5 | 0x00B4      |         180 |
|       6 | 0x001B      |          27 |
|       7 | 0x000A      |          10 |
|       8 | 0x00F3      |         243 |
|       9 | 0x008C      |         140 |

## Events

### Event 65535

#### Metadata

| Field        | Value   |
|--------------|---------|
| Entrypoint   | 0x0000  |
| Data Size    | 1 bytes |
| Instructions | 1       |

```
      00 01 02 03 04 05 06 07  08 09 0A 0B 0C 0D 0E 0F
      -- -- -- -- -- -- -- --  -- -- -- -- -- -- -- --
0000: 00                                                .               
```

#### Opcodes

```
  0: 0x0000 [0x00] END_REQSTACK()
```

### Event 14

#### Metadata

| Field        | Value   |
|--------------|---------|
| Entrypoint   | 0x0001  |
| Data Size    | 1 bytes |
| Instructions | 1       |

```
      00 01 02 03 04 05 06 07  08 09 0A 0B 0C 0D 0E 0F
      -- -- -- -- -- -- -- --  -- -- -- -- -- -- -- --
0000:    00                                              .              
```

#### Opcodes

```
  0: 0x0001 [0x00] END_REQSTACK()
```

### Event 65535.1

#### Metadata

| Field        | Value    |
|--------------|----------|
| Entrypoint   | 0x0002   |
| Data Size    | 88 bytes |
| Instructions | 11       |

```
      00 01 02 03 04 05 06 07  08 09 0A 0B 0C 0D 0E 0F
      -- -- -- -- -- -- -- --  -- -- -- -- -- -- -- --
0000:       92 01 F8 FF FF 7F  A5 01 3B 1B E2 0B 01 00    ........;.....
0010: 00 01 00 02 00 3A 1B E2  0B 01 03 00 37 00 00 01  .....:......7...
0020: 00 02 00 03 00 6C F8 FF  FF 7F 00 80 01 80 5B 02  .....l........[.
0030: 80 F8 FF FF 7F F8 FF FF  7F 6B 65 6E 30 22 00 62  .........ken0".b
0040: 03 80 17 E2 0B 01 17 E2  0B 01 6D 61 69 6E 00 80  ..........main..
0050: 6C F8 FF FF 7F 04 80 05  80 00                    l.........      
```

#### Opcodes

```
  0: 0x0002 [0x92] EventEntity->Render.Flags3 ^= 0x01
  1: 0x0008 [0xA5] EventEntity->Flags3.BallistaTeam |= 0x08  // Set bit 3 of BallistaTeam
  2: 0x000A [0x3B] GET_ENTITY_POSITION(entity=Destin (ID: 17555995/0x010BE21B), x_destination=ExtData[1]->WorkLocal[0], y_destination=ExtData[1]->WorkLocal[1], z_destination=ExtData[1]->WorkLocal[2])
  3: 0x0015 [0x3A] CONVERT_YAW_TO_BYTE(entity=Destin (ID: 17555995/0x010BE21B), result_destination=ExtData[1]->WorkLocal[3])
  4: 0x001C [0x37] UPDATE_EVENT_POSITION_AND_DIR: x=ExtData[1]->WorkLocal[0], z=ExtData[1]->WorkLocal[1], y=ExtData[1]->WorkLocal[2], direction=ExtData[1]->WorkLocal[3]
  5: 0x0025 [0x6C] FADE_ENTITY_COLOR(entity_id=EventEntity, end_alpha=0*, fade_time=1*)
  6: 0x002E [0x5B] LOAD_EXT_SCHEDULER: Load scheduler "ken0" with entities [EventEntity, EventEntity], work=29*
  7: 0x003D [0x22] ENTITY_HIDE_FLAG(enabled=0x00)
  8: 0x003F [0x62] LOAD_EVENT_SCHEDULER: Load scheduler "main" with entities [Tombstone (ID: 17555991/0x010BE217), Tombstone (ID: 17555991/0x010BE217)], work=[43*, 0*]
  9: 0x0050 [0x6C] FADE_ENTITY_COLOR(entity_id=EventEntity, end_alpha=128*, fade_time=180*)
 10: 0x0059 [0x00] END_REQSTACK()
```

### Event 65535.2

#### Metadata

| Field        | Value    |
|--------------|----------|
| Entrypoint   | 0x005A   |
| Data Size    | 29 bytes |
| Instructions | 3        |

```
      00 01 02 03 04 05 06 07  08 09 0A 0B 0C 0D 0E 0F
      -- -- -- -- -- -- -- --  -- -- -- -- -- -- -- --
0050:                                5B 02 80 F8 FF FF            [.....
0060: 7F F8 FF FF 7F 6B 65 6E  31 53 F8 FF FF 7F F8 FF  .....ken1S......
0070: FF 7F 6B 65 6E 31 00                              ..ken1.         
```

#### Opcodes

```
  0: 0x005A [0x5B] LOAD_EXT_SCHEDULER: Load scheduler "ken1" with entities [EventEntity, EventEntity], work=29*
  1: 0x0069 [0x53] WAIT_SCHEDULER_TASK: Wait for scheduler "ken1" with entities [EventEntity, EventEntity]
  2: 0x0076 [0x00] END_REQSTACK()
```

### Event 65535.3

#### Metadata

| Field        | Value    |
|--------------|----------|
| Entrypoint   | 0x0077   |
| Data Size    | 49 bytes |
| Instructions | 5        |

```
      00 01 02 03 04 05 06 07  08 09 0A 0B 0C 0D 0E 0F
      -- -- -- -- -- -- -- --  -- -- -- -- -- -- -- --
0070:                      5B  02 80 F8 FF FF 7F F8 FF         [........
0080: FF 7F 6B 65 6E 32 1C 05  80 9F 06 80 F8 FF FF 7F  ..ken2..........
0090: F8 FF FF 7F 6D 61 69 6E  00 80 53 F8 FF FF 7F F8  ....main..S.....
00A0: FF FF 7F 6B 65 6E 32 00                           ...ken2.        
```

#### Opcodes

```
  0: 0x0077 [0x5B] LOAD_EXT_SCHEDULER: Load scheduler "ken2" with entities [EventEntity, EventEntity], work=29*
  1: 0x0086 [0x1C] WAIT(180* ticks)
  2: 0x0089 [0x9F] LOAD_SCHEDULED_TASK_ALT: Load scheduler "main" with entities [EventEntity, EventEntity], work=[27*, 0*]
  3: 0x009A [0x53] WAIT_SCHEDULER_TASK: Wait for scheduler "ken2" with entities [EventEntity, EventEntity]
  4: 0x00A7 [0x00] END_REQSTACK()
```

### Event 65535.4

#### Metadata

| Field        | Value    |
|--------------|----------|
| Entrypoint   | 0x00A8   |
| Data Size    | 75 bytes |
| Instructions | 8        |

```
      00 01 02 03 04 05 06 07  08 09 0A 0B 0C 0D 0E 0F
      -- -- -- -- -- -- -- --  -- -- -- -- -- -- -- --
00A0:                          81 00 F8 FF FF 7F 5B 02          ......[.
00B0: 80 F8 FF FF 7F F8 FF FF  7F 6B 65 6E 33 1C 07 80  .........ken3...
00C0: 45 08 80 F0 FF FF 7F F0  FF FF 7F 73 65 30 31 00  E..........se01.
00D0: 80 1C 09 80 45 08 80 F0  FF FF 7F F0 FF FF 7F 73  ....E..........s
00E0: 65 30 31 00 80 53 F8 FF  FF 7F F8 FF FF 7F 6B 65  e01..S........ke
00F0: 6E 33 00                                          n3.             
```

#### Opcodes

```
  0: 0x00A8 [0x81] SET_ENTITY_BLINKING(blink_flag=0x00, entity=EventEntity)
  1: 0x00AE [0x5B] LOAD_EXT_SCHEDULER: Load scheduler "ken3" with entities [EventEntity, EventEntity], work=29*
  2: 0x00BD [0x1C] WAIT(10* ticks)
  3: 0x00C0 [0x45] LOAD_SCHEDULED_TASK: Load scheduler "se01" with entities [LocalPlayer, LocalPlayer], work=[243*, 0*]
  4: 0x00D1 [0x1C] WAIT(140* ticks)
  5: 0x00D4 [0x45] LOAD_SCHEDULED_TASK: Load scheduler "se01" with entities [LocalPlayer, LocalPlayer], work=[243*, 0*]
  6: 0x00E5 [0x53] WAIT_SCHEDULER_TASK: Wait for scheduler "ken3" with entities [EventEntity, EventEntity]
  7: 0x00F2 [0x00] END_REQSTACK()
```
