# 17555996 - Shamonde

## Common Data

| Field            | Value                          |
|------------------|--------------------------------|
| Zone             | King Ranperre's Tomb (ID: 190) |
| Block Size       | 300 bytes                      |
| Total Events     | 9                              |
| References Count | 26                             |

## List of Events

| Event ID                 | Entrypoint   |   Size |   Instructions |
|--------------------------|--------------|--------|----------------|
| [65535](#event-65535)    | 0x0000       |      4 |              2 |
| [5](#event-5)            | 0x0004       |     10 |              2 |
| [65535.1](#event-655351) | 0x000E       |     17 |              5 |
| [65535.2](#event-655352) | 0x001F       |     11 |              3 |
| [65535.3](#event-655353) | 0x002A       |     25 |              9 |
| [65535.4](#event-655354) | 0x0043       |     29 |              3 |
| [65535.5](#event-655355) | 0x0060       |     11 |              3 |
| [65535.6](#event-655356) | 0x006B       |     23 |              7 |
| [65535.7](#event-655357) | 0x0082       |     11 |              3 |

## DAT References (imed_data)

|   Index | Hex Value   |   Dec Value |
|---------|-------------|-------------|
|       0 | 0x0007      |           7 |
|       1 | 0xFFFF77B4  |  4294932404 |
|       2 | 0x4BFD      |       19453 |
|       3 | 0x1D4B      |        7499 |
|       4 | 0x0793      |        1939 |
|       5 | 0xFFFF720D  |  4294930957 |
|       6 | 0x4801      |       18433 |
|       7 | 0xFFFEF714  |  4294899476 |
|       8 | 0x5633      |       22067 |
|       9 | 0x2327      |        8999 |
|      10 | 0x0613      |        1555 |
|      11 | 0x000E      |          14 |
|      12 | 0xFFFF08C0  |  4294904000 |
|      13 | 0x5226      |       21030 |
|      14 | 0x2328      |        9000 |
|      15 | 0x0087      |         135 |
|      16 | 0xFFFF579F  |  4294924191 |
|      17 | 0x521A      |       21018 |
|      18 | 0x2039      |        8249 |
|      19 | 0x0FE3      |        4067 |
|      20 | 0x0050      |          80 |
|      21 | 0xFFFF62EE  |  4294927086 |
|      22 | 0x515E      |       20830 |
|      23 | 0x1E46      |        7750 |
|      24 | 0xFFFF7A08  |  4294933000 |
|      25 | 0x515A      |       20826 |

## Events

### Event 65535

#### Metadata

| Field        | Value   |
|--------------|---------|
| Entrypoint   | 0x0000  |
| Data Size    | 4 bytes |
| Instructions | 2       |

```
      00 01 02 03 04 05 06 07  08 09 0A 0B 0C 0D 0E 0F
      -- -- -- -- -- -- -- --  -- -- -- -- -- -- -- --
0000: 32 00 80 00                                       2...            
```

#### Opcodes

```
  0: 0x0000 [0x32] ExtData[1]->MainSpeed = 7* * 0.1
  1: 0x0003 [0x00] END_REQSTACK()
```

### Event 5

#### Metadata

| Field        | Value    |
|--------------|----------|
| Entrypoint   | 0x0004   |
| Data Size    | 10 bytes |
| Instructions | 2        |

```
      00 01 02 03 04 05 06 07  08 09 0A 0B 0C 0D 0E 0F
      -- -- -- -- -- -- -- --  -- -- -- -- -- -- -- --
0000:             37 01 80 02  80 03 80 04 80 00            7.........  
```

#### Opcodes

```
  0: 0x0004 [0x37] UPDATE_EVENT_POSITION_AND_DIR: x=-34.892*, z=19.453*, y=7.499*, direction=170.4°*
  1: 0x000D [0x00] END_REQSTACK()
```

### Event 65535.1

#### Metadata

| Field        | Value    |
|--------------|----------|
| Entrypoint   | 0x000E   |
| Data Size    | 17 bytes |
| Instructions | 5        |

```
      00 01 02 03 04 05 06 07  08 09 0A 0B 0C 0D 0E 0F
      -- -- -- -- -- -- -- --  -- -- -- -- -- -- -- --
0000:                                            1F 00                ..
0010: 05 80 06 80 03 80 1F 01  6F 1E 21 E2 0B 01 00     ........o.!.... 
```

#### Opcodes

```
  0: 0x000E [0x1F] MOVE_ENTITY: EventEntity moves to X=-36.339*, Z=18.433*, Y=7.499*
  1: 0x0016 [0x1F] MOVE_ENTITY: Update entity position (mode=1)
  2: 0x0018 [0x6F] WAIT_FRAME_DELAY: Yield until WaitTime reaches zero
  3: 0x0019 [0x1E] EventEntity looks at Rahal (ID: 17556001/0x010BE221) and starts talking
  4: 0x001E [0x00] END_REQSTACK()
```

### Event 65535.2

#### Metadata

| Field        | Value    |
|--------------|----------|
| Entrypoint   | 0x001F   |
| Data Size    | 11 bytes |
| Instructions | 3        |

```
      00 01 02 03 04 05 06 07  08 09 0A 0B 0C 0D 0E 0F
      -- -- -- -- -- -- -- --  -- -- -- -- -- -- -- --
0010:                                               84                 .
0020: 37 07 80 08 80 09 80 0A  80 00                    7.........      
```

#### Opcodes

```
  0: 0x001F [0x84] ADJUST_RENDER_FLAGS3_BIT0()
  1: 0x0020 [0x37] UPDATE_EVENT_POSITION_AND_DIR: x=-67.820*, z=22.067*, y=8.999*, direction=136.7°*
  2: 0x0029 [0x00] END_REQSTACK()
```

### Event 65535.3

#### Metadata

| Field        | Value    |
|--------------|----------|
| Entrypoint   | 0x002A   |
| Data Size    | 25 bytes |
| Instructions | 9        |

```
      00 01 02 03 04 05 06 07  08 09 0A 0B 0C 0D 0E 0F
      -- -- -- -- -- -- -- --  -- -- -- -- -- -- -- --
0020:                                32 0B 80 1F 00 0C            2.....
0030: 80 0D 80 0E 80 1F 01 6F  1E 22 E2 0B 01 6F 70 32  .......o."...op2
0040: 00 80 00                                          ...             
```

#### Opcodes

```
  0: 0x002A [0x32] ExtData[1]->MainSpeed = 14* * 0.1
  1: 0x002D [0x1F] MOVE_ENTITY: EventEntity moves to X=-63.296*, Z=21.030*, Y=9.000*
  2: 0x0035 [0x1F] MOVE_ENTITY: Update entity position (mode=1)
  3: 0x0037 [0x6F] WAIT_FRAME_DELAY: Yield until WaitTime reaches zero
  4: 0x0038 [0x1E] EventEntity looks at Unnamed NPC (ID: 17556002/0x010BE222) and starts talking
  5: 0x003D [0x6F] WAIT_FRAME_DELAY: Yield until WaitTime reaches zero
  6: 0x003E [0x70] WAIT_ENTITY_RENDER_FLAG: Wait while EventEntity->Render.Flags3 bit 2 is set (cancel turn if not)
  7: 0x003F [0x32] ExtData[1]->MainSpeed = 7* * 0.1
  8: 0x0042 [0x00] END_REQSTACK()
```

### Event 65535.4

#### Metadata

| Field        | Value    |
|--------------|----------|
| Entrypoint   | 0x0043   |
| Data Size    | 29 bytes |
| Instructions | 3        |

```
      00 01 02 03 04 05 06 07  08 09 0A 0B 0C 0D 0E 0F
      -- -- -- -- -- -- -- --  -- -- -- -- -- -- -- --
0040:          5B 0F 80 F8 FF  FF 7F F8 FF FF 7F 74 75     [..........tu
0050: 65 30 53 F8 FF FF 7F F8  FF FF 7F 74 75 65 30 00  e0S........tue0.
```

#### Opcodes

```
  0: 0x0043 [0x5B] LOAD_EXT_SCHEDULER: Load scheduler "tue0" with entities [EventEntity, EventEntity], work=135*
  1: 0x0052 [0x53] WAIT_SCHEDULER_TASK: Wait for scheduler "tue0" with entities [EventEntity, EventEntity]
  2: 0x005F [0x00] END_REQSTACK()
```

### Event 65535.5

#### Metadata

| Field        | Value    |
|--------------|----------|
| Entrypoint   | 0x0060   |
| Data Size    | 11 bytes |
| Instructions | 3        |

```
      00 01 02 03 04 05 06 07  08 09 0A 0B 0C 0D 0E 0F
      -- -- -- -- -- -- -- --  -- -- -- -- -- -- -- --
0060: 84 37 10 80 11 80 12 80  13 80 00                 .7.........     
```

#### Opcodes

```
  0: 0x0060 [0x84] ADJUST_RENDER_FLAGS3_BIT0()
  1: 0x0061 [0x37] UPDATE_EVENT_POSITION_AND_DIR: x=-43.105*, z=21.018*, y=8.249*, direction=357.4°*
  2: 0x006A [0x00] END_REQSTACK()
```

### Event 65535.6

#### Metadata

| Field        | Value    |
|--------------|----------|
| Entrypoint   | 0x006B   |
| Data Size    | 23 bytes |
| Instructions | 7        |

```
      00 01 02 03 04 05 06 07  08 09 0A 0B 0C 0D 0E 0F
      -- -- -- -- -- -- -- --  -- -- -- -- -- -- -- --
0060:                                   1C 14 80 32 00             ...2.
0070: 80 1F 00 15 80 16 80 17  80 1F 01 6F 1E F0 FF FF  ...........o....
0080: 7F 00                                             ..              
```

#### Opcodes

```
  0: 0x006B [0x1C] WAIT(80* ticks)
  1: 0x006E [0x32] ExtData[1]->MainSpeed = 7* * 0.1
  2: 0x0071 [0x1F] MOVE_ENTITY: EventEntity moves to X=-40.210*, Z=20.830*, Y=7.750*
  3: 0x0079 [0x1F] MOVE_ENTITY: Update entity position (mode=1)
  4: 0x007B [0x6F] WAIT_FRAME_DELAY: Yield until WaitTime reaches zero
  5: 0x007C [0x1E] EventEntity looks at LocalPlayer and starts talking
  6: 0x0081 [0x00] END_REQSTACK()
```

### Event 65535.7

#### Metadata

| Field        | Value    |
|--------------|----------|
| Entrypoint   | 0x0082   |
| Data Size    | 11 bytes |
| Instructions | 3        |

```
      00 01 02 03 04 05 06 07  08 09 0A 0B 0C 0D 0E 0F
      -- -- -- -- -- -- -- --  -- -- -- -- -- -- -- --
0080:       1F 00 18 80 19 80  03 80 1F 01 00             ...........   
```

#### Opcodes

```
  0: 0x0082 [0x1F] MOVE_ENTITY: EventEntity moves to X=-34.296*, Z=20.826*, Y=7.499*
  1: 0x008A [0x1F] MOVE_ENTITY: Update entity position (mode=1)
  2: 0x008C [0x00] END_REQSTACK()
```
