# 17555990 - Heavy Stone Door

## Common Data

| Field            | Value                          |
|------------------|--------------------------------|
| Zone             | King Ranperre's Tomb (ID: 190) |
| Block Size       | 3680 bytes                     |
| Total Events     | 7                              |
| References Count | 58                             |

## List of Events

| Event ID                 | Entrypoint   |   Size |   Instructions |
|--------------------------|--------------|--------|----------------|
| [65535](#event-65535)    | 0x0000       |      1 |              1 |
| [6](#event-6)            | 0x0001       |      1 |              1 |
| [7](#event-7)            | 0x0002       |      1 |              1 |
| [65535.1](#event-655351) | 0x0003       |      2 |              2 |
| [65535.2](#event-655352) | 0x0005       |      2 |              2 |
| [14](#event-14)          | 0x0007       |   1448 |            191 |
| [5](#event-5)            | 0x05AF       |   1948 |            272 |

## DAT References (imed_data)

|   Index | Hex Value   |   Dec Value |
|---------|-------------|-------------|
|       0 | 0x00C8      |         200 |
|       1 | 0x0000      |           0 |
|       2 | 0x0013      |          19 |
|       3 | 0x00D1      |         209 |
|       4 | 0x0078      |         120 |
|       5 | 0x0064      |         100 |
|       6 | 0x000A      |          10 |
|       7 | 0x0014      |          20 |
|       8 | 0x003C      |          60 |
|       9 | 0x0005      |           5 |
|      10 | 0x0168      |         360 |
|      11 | 0x001E      |          30 |
|      12 | 0x0099      |         153 |
|      13 | 0x1CC1      |        7361 |
|      14 | 0x1CC2      |        7362 |
|      15 | 0x1CC3      |        7363 |
|      16 | 0x00F3      |         243 |
|      17 | 0x1CC4      |        7364 |
|      18 | 0x1CC5      |        7365 |
|      19 | 0x1CC6      |        7366 |
|      20 | 0x1CC7      |        7367 |
|      21 | 0x1CC8      |        7368 |
|      22 | 0x1CC9      |        7369 |
|      23 | 0x1CCA      |        7370 |
|      24 | 0x1CCB      |        7371 |
|      25 | 0x012C      |         300 |
|      26 | 0x001A      |          26 |
|      27 | 0x00B4      |         180 |
|      28 | 0x000F      |          15 |
|      29 | 0x1CCC      |        7372 |
|      30 | 0x0096      |         150 |
|      31 | 0x1CAD      |        7341 |
|      32 | 0x1CAE      |        7342 |
|      33 | 0x1CAF      |        7343 |
|      34 | 0x1CB0      |        7344 |
|      35 | 0x1CB1      |        7345 |
|      36 | 0x0032      |          50 |
|      37 | 0x1CB2      |        7346 |
|      38 | 0x0028      |          40 |
|      39 | 0x1CB3      |        7347 |
|      40 | 0x0082      |         130 |
|      41 | 0x007F      |         127 |
|      42 | 0x1CB4      |        7348 |
|      43 | 0x1CB5      |        7349 |
|      44 | 0x1CB6      |        7350 |
|      45 | 0x1CB7      |        7351 |
|      46 | 0x1CB8      |        7352 |
|      47 | 0x1CB9      |        7353 |
|      48 | 0x1CBA      |        7354 |
|      49 | 0x00F0      |         240 |
|      50 | 0x1CBB      |        7355 |
|      51 | 0x1CBC      |        7356 |
|      52 | 0x1CBD      |        7357 |
|      53 | 0x005A      |          90 |
|      54 | 0x1CBE      |        7358 |
|      55 | 0x1CBF      |        7359 |
|      56 | 0x1CC0      |        7360 |
|      57 | 0x0050      |          80 |

## String References

- **7344**: Welcome, heir of the dragon-blood.
- **7345**: The sword! You must hurry!
- **7347**: Ach!

## Events

### Event 65535

#### Metadata

| Field        | Value   |
|--------------|---------|
| Entrypoint   | 0x0000  |
| Data Size    | 1 bytes |
| Instructions | 1       |

```
      00 01 02 03 04 05 06 07  08 09 0A 0B 0C 0D 0E 0F
      -- -- -- -- -- -- -- --  -- -- -- -- -- -- -- --
0000: 00                                                .               
```

#### Opcodes

```
  0: 0x0000 [0x00] END_REQSTACK()
```

### Event 6

#### Metadata

| Field        | Value   |
|--------------|---------|
| Entrypoint   | 0x0001  |
| Data Size    | 1 bytes |
| Instructions | 1       |

```
      00 01 02 03 04 05 06 07  08 09 0A 0B 0C 0D 0E 0F
      -- -- -- -- -- -- -- --  -- -- -- -- -- -- -- --
0000:    00                                              .              
```

#### Opcodes

```
  0: 0x0001 [0x00] END_REQSTACK()
```

### Event 7

#### Metadata

| Field        | Value   |
|--------------|---------|
| Entrypoint   | 0x0002  |
| Data Size    | 1 bytes |
| Instructions | 1       |

```
      00 01 02 03 04 05 06 07  08 09 0A 0B 0C 0D 0E 0F
      -- -- -- -- -- -- -- --  -- -- -- -- -- -- -- --
0000:       00                                            .             
```

#### Opcodes

```
  0: 0x0002 [0x00] END_REQSTACK()
```

### Event 65535.1

#### Metadata

| Field        | Value   |
|--------------|---------|
| Entrypoint   | 0x0003  |
| Data Size    | 2 bytes |
| Instructions | 2       |

```
      00 01 02 03 04 05 06 07  08 09 0A 0B 0C 0D 0E 0F
      -- -- -- -- -- -- -- --  -- -- -- -- -- -- -- --
0000:          4C 00                                       L.           
```

#### Opcodes

```
  0: 0x0003 [0x4C] EventEntity->StatusEvent = 8 // Open door
  1: 0x0004 [0x00] END_REQSTACK()
```

### Event 65535.2

#### Metadata

| Field        | Value   |
|--------------|---------|
| Entrypoint   | 0x0005  |
| Data Size    | 2 bytes |
| Instructions | 2       |

```
      00 01 02 03 04 05 06 07  08 09 0A 0B 0C 0D 0E 0F
      -- -- -- -- -- -- -- --  -- -- -- -- -- -- -- --
0000:                4D 00                                   M.         
```

#### Opcodes

```
  0: 0x0005 [0x4D] EventEntity->StatusEvent = 9 // Close door
  1: 0x0006 [0x00] END_REQSTACK()
```

### Event 14

#### Metadata

| Field        | Value      |
|--------------|------------|
| Entrypoint   | 0x0007     |
| Data Size    | 1448 bytes |
| Instructions | 191        |

```
      00 01 02 03 04 05 06 07  08 09 0A 0B 0C 0D 0E 0F
      -- -- -- -- -- -- -- --  -- -- -- -- -- -- -- --
0000:                      20  01 46 01 42 45 00 80 F0          .F.BE...
0010: FF FF 7F F0 FF FF 7F 66  64 6F 31 01 80 55 00 80  .......fdo1..U..
0020: F0 FF FF 7F F0 FF FF 7F  66 64 6F 31 38 02 80 29  ........fdo18..)
0030: 03 F0 FF FF 7F 12 4E 00  23 E2 0B 01 4E 00 1B E2  ......N.#...N...
0040: 0B 01 4E 00 1D E2 0B 01  4E 00 1E E2 0B 01 4E 00  ..N.....N.....N.
0050: 1F E2 0B 01 4E 00 20 E2  0B 01 4E 00 21 E2 0B 01  ....N. ...N.!...
0060: 2F 00 23 E2 0B 01 2F 00  1B E2 0B 01 2F 00 1C E2  /.#.../...../...
0070: 0B 01 2F 00 1D E2 0B 01  2F 00 1E E2 0B 01 2F 00  ../...../...../.
0080: 1F E2 0B 01 2F 00 20 E2  0B 01 80 23 E2 0B 01 80  ..../. ....#....
0090: 1B E2 0B 01 80 1D E2 0B  01 80 1E E2 0B 01 80 1F  ................
00A0: E2 0B 01 80 20 E2 0B 01  94 01 23 E2 0B 01 94 01  .... .....#.....
00B0: 1B E2 0B 01 94 01 1D E2  0B 01 94 01 1E E2 0B 01  ................
00C0: 94 01 1F E2 0B 01 94 01  20 E2 0B 01 27 03 23 E2  ........ ...'.#.
00D0: 0B 01 02 27 03 21 E2 0B  01 02 27 03 1B E2 0B 01  ...'.!....'.....
00E0: 02 27 03 1D E2 0B 01 02  27 03 1E E2 0B 01 02 27  .'......'......'
00F0: 03 1F E2 0B 01 02 27 03  20 E2 0B 01 02 45 03 80  ......'. ....E..
0100: F0 FF FF 7F F0 FF FF 7F  77 30 30 30 01 80 45 00  ........w000..E.
0110: 80 F0 FF FF 7F F0 FF FF  7F 66 64 69 31 01 80 55  .........fdi1..U
0120: 00 80 F0 FF FF 7F F0 FF  FF 7F 66 64 69 31 2A 03  ..........fdi1*.
0130: 1B E2 0B 01 55 03 80 F0  FF FF 7F F0 FF FF 7F 77  ....U..........w
0140: 30 30 30 4C 1C 04 80 27  03 1B E2 0B 01 07 1C 05  000L...'........
0150: 80 27 03 23 E2 0B 01 03  1C 06 80 27 03 1D E2 0B  .'.#.......'....
0160: 01 05 1C 07 80 27 03 1E  E2 0B 01 05 1C 08 80 27  .....'.........'
0170: 03 1F E2 0B 01 05 45 00  80 F0 FF FF 7F F0 FF FF  ......E.........
0180: 7F 66 64 6F 31 01 80 55  00 80 F0 FF FF 7F F0 FF  .fdo1..U........
0190: FF 7F 66 64 6F 31 69 01  09 80 27 04 23 E2 0B 01  ..fdo1i...'.#...
01A0: 04 27 04 1C E2 0B 01 03  27 04 21 E2 0B 01 08 27  .'......'.!....'
01B0: 04 1B E2 0B 01 0B 27 04  1D E2 0B 01 06 27 04 1E  ......'......'..
01C0: E2 0B 01 06 27 04 1F E2  0B 01 06 27 04 20 E2 0B  ....'......'. ..
01D0: 01 05 27 04 F0 FF FF 7F  13 69 00 09 80 2A 04 23  ..'......i...*.#
01E0: E2 0B 01 2A 04 1C E2 0B  01 2A 04 21 E2 0B 01 2A  ...*.....*.!...*
01F0: 04 1B E2 0B 01 2A 04 1D  E2 0B 01 2A 04 1E E2 0B  .....*.....*....
0200: 01 2A 04 1F E2 0B 01 2A  04 20 E2 0B 01 2A 04 F0  .*.....*. ...*..
0210: FF FF 7F 45 03 80 F0 FF  FF 7F F0 FF FF 7F 77 30  ...E..........w0
0220: 30 31 01 80 4D 45 00 80  F0 FF FF 7F F0 FF FF 7F  01..ME..........
0230: 66 64 69 31 01 80 1C 0A  80 27 03 1B E2 0B 01 03  fdi1.....'......
0240: 55 03 80 F0 FF FF 7F F0  FF FF 7F 77 30 30 31 2A  U..........w001*
0250: 03 1B E2 0B 01 1C 0B 80  5C 00 0C 80 5C 01 0C 80  ........\...\...
0260: 45 03 80 F0 FF FF 7F F0  FF FF 7F 77 30 30 32 01  E..........w002.
0270: 80 55 03 80 F0 FF FF 7F  F0 FF FF 7F 77 30 30 32  .U..........w002
0280: 79 00 1B E2 0B 01 25 E2  0B 01 1C 0B 80 2B 1B E2  y.....%......+..
0290: 0B 01 0D 80 1C 08 80 27  03 25 E2 0B 01 02 1C 08  .......'.%......
02A0: 80 45 03 80 F0 FF FF 7F  F0 FF FF 7F 77 30 30 33  .E..........w003
02B0: 01 80 55 03 80 F0 FF FF  7F F0 FF FF 7F 77 30 30  ..U..........w00
02C0: 33 1C 08 80 23 45 03 80  F0 FF FF 7F F0 FF FF 7F  3...#E..........
02D0: 77 30 30 34 01 80 55 03  80 F0 FF FF 7F F0 FF FF  w004..U.........
02E0: 7F 77 30 30 34 1C 0B 80  2B 1B E2 0B 01 0E 80 23  .w004...+......#
02F0: 27 03 1B E2 0B 01 04 2C  25 E2 0B 01 25 E2 0B 01  '......,%...%...
0300: 77 6F 6E 34 1C 0B 80 2B  25 E2 0B 01 0F 80 23 45  won4...+%.....#E
0310: 10 80 F0 FF FF 7F F0 FF  FF 7F 73 65 30 31 01 80  ..........se01..
0320: 1C 08 80 2A 03 1B E2 0B  01 45 03 80 F0 FF FF 7F  ...*.....E......
0330: F0 FF FF 7F 77 30 30 35  01 80 1C 0B 80 27 03 1B  ....w005.....'..
0340: E2 0B 01 05 27 03 25 E2  0B 01 03 2B 1B E2 0B 01  ....'.%....+....
0350: 11 80 23 55 03 80 F0 FF  FF 7F F0 FF FF 7F 77 30  ..#U..........w0
0360: 30 35 45 03 80 F0 FF FF  7F F0 FF FF 7F 77 30 30  05E..........w00
0370: 39 01 80 55 03 80 F0 FF  FF 7F F0 FF FF 7F 77 30  9..U..........w0
0380: 30 39 2A 03 1B E2 0B 01  2B 25 E2 0B 01 12 80 1C  09*.....+%......
0390: 08 80 23 45 00 80 25 E2  0B 01 25 E2 0B 01 6F 76  ..#E..%...%...ov
03A0: 6C 31 01 80 45 03 80 F0  FF FF 7F F0 FF FF 7F 77  l1..E..........w
03B0: 30 30 37 01 80 2B 25 E2  0B 01 13 80 23 55 03 80  007..+%.....#U..
03C0: F0 FF FF 7F F0 FF FF 7F  77 30 30 37 1C 08 80 45  ........w007...E
03D0: 00 80 25 E2 0B 01 25 E2  0B 01 6F 76 6C 31 01 80  ..%...%...ovl1..
03E0: 45 03 80 F0 FF FF 7F F0  FF FF 7F 77 30 30 36 01  E..........w006.
03F0: 80 2B 25 E2 0B 01 14 80  23 55 03 80 F0 FF FF 7F  .+%.....#U......
0400: F0 FF FF 7F 77 30 30 36  1C 08 80 45 00 80 25 E2  ....w006...E..%.
0410: 0B 01 25 E2 0B 01 6F 76  6C 31 01 80 45 03 80 F0  ..%...ovl1..E...
0420: FF FF 7F F0 FF FF 7F 77  30 30 38 01 80 2B 25 E2  .......w008..+%.
0430: 0B 01 15 80 23 55 03 80  F0 FF FF 7F F0 FF FF 7F  ....#U..........
0440: 77 30 30 38 1C 08 80 45  03 80 F0 FF FF 7F F0 FF  w008...E........
0450: FF 7F 77 30 30 39 01 80  2B 25 E2 0B 01 16 80 23  ..w009..+%.....#
0460: 1C 08 80 27 04 1B E2 0B  01 06 29 04 25 E2 0B 01  ...'......).%...
0470: 04 55 03 80 F0 FF FF 7F  F0 FF FF 7F 77 30 30 39  .U..........w009
0480: 1C 08 80 45 03 80 F0 FF  FF 7F F0 FF FF 7F 77 30  ...E..........w0
0490: 31 30 01 80 2B 25 E2 0B  01 17 80 23 55 03 80 F0  10..+%.....#U...
04A0: FF FF 7F F0 FF FF 7F 77  30 31 30 1C 08 80 27 04  .......w010...'.
04B0: 25 E2 0B 01 05 1C 06 80  45 03 80 F0 FF FF 7F F0  %.......E.......
04C0: FF FF 7F 77 30 31 31 01  80 55 03 80 F0 FF FF 7F  ...w011..U......
04D0: F0 FF FF 7F 77 30 31 31  2A 04 25 E2 0B 01 2B 25  ....w011*.%...+%
04E0: E2 0B 01 18 80 23 5D 01  80 19 80 9F 1A 80 25 E2  .....#].......%.
04F0: 0B 01 25 E2 0B 01 6D 61  69 6E 01 80 1C 1B 80 45  ..%...main.....E
0500: 03 80 F0 FF FF 7F F0 FF  FF 7F 77 30 31 32 01 80  ..........w012..
0510: 1C 19 80 92 01 25 E2 0B  01 55 03 80 F0 FF FF 7F  .....%...U......
0520: F0 FF FF 7F 77 30 31 32  1C 08 80 7B 1B E2 0B 01  ....w012...{....
0530: 4B 1B E2 0B 01 01 80 1C  1C 80 45 03 80 F0 FF FF  K.........E.....
0540: 7F F0 FF FF 7F 77 30 31  33 01 80 55 03 80 F0 FF  .....w013..U....
0550: FF 7F F0 FF FF 7F 77 30  31 33 6F 76 1B E2 0B 01  ......w013ov....
0560: 1C 08 80 27 03 1B E2 0B  01 0D 2B 1B E2 0B 01 1D  ...'......+.....
0570: 80 23 45 00 80 F0 FF FF  7F F0 FF FF 7F 66 64 6F  .#E..........fdo
0580: 32 01 80 55 00 80 F0 FF  FF 7F F0 FF FF 7F 66 64  2..U..........fd
0590: 6F 32 5C 00 01 80 5C 01  01 80 46 00 45 00 80 F0  o2\...\...F.E...
05A0: FF FF 7F F0 FF FF 7F 66  64 69 32 01 80 21 00     .......fdi2..!. 
```

#### Opcodes

```
  0: 0x0007 [0x20] SET_CLI_EVENT_UC_FLAG: Lock player control
  1: 0x0009 [0x46] CAMERA_CONTROL: Disable user control
  2: 0x000B [0x42] SET_CLI_EVENT_CANCEL_DATA()
  3: 0x000C [0x45] LOAD_SCHEDULED_TASK: Load scheduler "fdo1" with entities [LocalPlayer, LocalPlayer], work=[200*, 0*]
  4: 0x001D [0x55] WAIT_LOAD_SCHEDULER: Wait for scheduler "fdo1" with entities [LocalPlayer, LocalPlayer], work=200*
  5: 0x002C [0x38] SET_CLIENT_EVENT_MODE(mode=19*)
  6: 0x002F [0x29] REQ_SET_WAIT(priority=0x03, entity_id=LocalPlayer, tag_num=0x12)
  7: 0x0036 [0x4E] SET_ENTITY_HIDE_FLAG: Show Rochefogne (ID: 17556003/0x010BE223)
  8: 0x003C [0x4E] SET_ENTITY_HIDE_FLAG: Show Destin (ID: 17555995/0x010BE21B)
  9: 0x0042 [0x4E] SET_ENTITY_HIDE_FLAG: Show Trion (ID: 17555997/0x010BE21D)
 10: 0x0048 [0x4E] SET_ENTITY_HIDE_FLAG: Show Pieuje (ID: 17555998/0x010BE21E)
 11: 0x004E [0x4E] SET_ENTITY_HIDE_FLAG: Show Claidie (ID: 17555999/0x010BE21F)
 12: 0x0054 [0x4E] SET_ENTITY_HIDE_FLAG: Show Curilla (ID: 17556000/0x010BE220)
 13: 0x005A [0x4E] SET_ENTITY_HIDE_FLAG: Show Rahal (ID: 17556001/0x010BE221)
 14: 0x0060 [0x2F] Rochefogne (ID: 17556003/0x010BE223)->Render.Flags0 &= ~0x80000 // Bit 19
 15: 0x0066 [0x2F] Destin (ID: 17555995/0x010BE21B)->Render.Flags0 &= ~0x80000 // Bit 19
 16: 0x006C [0x2F] Shamonde (ID: 17555996/0x010BE21C)->Render.Flags0 &= ~0x80000 // Bit 19
 17: 0x0072 [0x2F] Trion (ID: 17555997/0x010BE21D)->Render.Flags0 &= ~0x80000 // Bit 19
 18: 0x0078 [0x2F] Pieuje (ID: 17555998/0x010BE21E)->Render.Flags0 &= ~0x80000 // Bit 19
 19: 0x007E [0x2F] Claidie (ID: 17555999/0x010BE21F)->Render.Flags0 &= ~0x80000 // Bit 19
 20: 0x0084 [0x2F] Curilla (ID: 17556000/0x010BE220)->Render.Flags0 &= ~0x80000 // Bit 19
 21: 0x008A [0x80] LOAD_WAIT(entity=Rochefogne (ID: 17556003/0x010BE223))
 22: 0x008F [0x80] LOAD_WAIT(entity=Destin (ID: 17555995/0x010BE21B))
 23: 0x0094 [0x80] LOAD_WAIT(entity=Trion (ID: 17555997/0x010BE21D))
 24: 0x0099 [0x80] LOAD_WAIT(entity=Pieuje (ID: 17555998/0x010BE21E))
 25: 0x009E [0x80] LOAD_WAIT(entity=Claidie (ID: 17555999/0x010BE21F))
 26: 0x00A3 [0x80] LOAD_WAIT(entity=Curilla (ID: 17556000/0x010BE220))
 27: 0x00A8 [0x94] Rochefogne (ID: 17556003/0x010BE223)->Render.Flags3 ^= 0x01
 28: 0x00AE [0x94] Destin (ID: 17555995/0x010BE21B)->Render.Flags3 ^= 0x01
 29: 0x00B4 [0x94] Trion (ID: 17555997/0x010BE21D)->Render.Flags3 ^= 0x01
 30: 0x00BA [0x94] Pieuje (ID: 17555998/0x010BE21E)->Render.Flags3 ^= 0x01
 31: 0x00C0 [0x94] Claidie (ID: 17555999/0x010BE21F)->Render.Flags3 ^= 0x01
 32: 0x00C6 [0x94] Curilla (ID: 17556000/0x010BE220)->Render.Flags3 ^= 0x01
 33: 0x00CC [0x27] REQ_SET(priority=0x03, entity_id=Rochefogne (ID: 17556003/0x010BE223), tag_num=0x02)
 34: 0x00D3 [0x27] REQ_SET(priority=0x03, entity_id=Rahal (ID: 17556001/0x010BE221), tag_num=0x02)
 35: 0x00DA [0x27] REQ_SET(priority=0x03, entity_id=Destin (ID: 17555995/0x010BE21B), tag_num=0x02)
 36: 0x00E1 [0x27] REQ_SET(priority=0x03, entity_id=Trion (ID: 17555997/0x010BE21D), tag_num=0x02)
 37: 0x00E8 [0x27] REQ_SET(priority=0x03, entity_id=Pieuje (ID: 17555998/0x010BE21E), tag_num=0x02)
 38: 0x00EF [0x27] REQ_SET(priority=0x03, entity_id=Claidie (ID: 17555999/0x010BE21F), tag_num=0x02)
 39: 0x00F6 [0x27] REQ_SET(priority=0x03, entity_id=Curilla (ID: 17556000/0x010BE220), tag_num=0x02)
 40: 0x00FD [0x45] LOAD_SCHEDULED_TASK: Load scheduler "w000" with entities [LocalPlayer, LocalPlayer], work=[209*, 0*]
 41: 0x010E [0x45] LOAD_SCHEDULED_TASK: Load scheduler "fdi1" with entities [LocalPlayer, LocalPlayer], work=[200*, 0*]
 42: 0x011F [0x55] WAIT_LOAD_SCHEDULER: Wait for scheduler "fdi1" with entities [LocalPlayer, LocalPlayer], work=200*
 43: 0x012E [0x2A] GET_REQ_LEVEL(level=3, entity_id=Destin (ID: 17555995/0x010BE21B))
 44: 0x0134 [0x55] WAIT_LOAD_SCHEDULER: Wait for scheduler "w000" with entities [LocalPlayer, LocalPlayer], work=209*
 45: 0x0143 [0x4C] EventEntity->StatusEvent = 8 // Open door
 46: 0x0144 [0x1C] WAIT(120* ticks)
 47: 0x0147 [0x27] REQ_SET(priority=0x03, entity_id=Destin (ID: 17555995/0x010BE21B), tag_num=0x07)
 48: 0x014E [0x1C] WAIT(100* ticks)
 49: 0x0151 [0x27] REQ_SET(priority=0x03, entity_id=Rochefogne (ID: 17556003/0x010BE223), tag_num=0x03)
 50: 0x0158 [0x1C] WAIT(10* ticks)
 51: 0x015B [0x27] REQ_SET(priority=0x03, entity_id=Trion (ID: 17555997/0x010BE21D), tag_num=0x05)
 52: 0x0162 [0x1C] WAIT(20* ticks)
 53: 0x0165 [0x27] REQ_SET(priority=0x03, entity_id=Pieuje (ID: 17555998/0x010BE21E), tag_num=0x05)
 54: 0x016C [0x1C] WAIT(60* ticks)
 55: 0x016F [0x27] REQ_SET(priority=0x03, entity_id=Claidie (ID: 17555999/0x010BE21F), tag_num=0x05)
 56: 0x0176 [0x45] LOAD_SCHEDULED_TASK: Load scheduler "fdo1" with entities [LocalPlayer, LocalPlayer], work=[200*, 0*]
 57: 0x0187 [0x55] WAIT_LOAD_SCHEDULER: Wait for scheduler "fdo1" with entities [LocalPlayer, LocalPlayer], work=200*
 58: 0x0196 [0x69] SET_SOUND_VOLUME: Mute Effects/Master
 59: 0x019A [0x27] REQ_SET(priority=0x04, entity_id=Rochefogne (ID: 17556003/0x010BE223), tag_num=0x04)
 60: 0x01A1 [0x27] REQ_SET(priority=0x04, entity_id=Shamonde (ID: 17555996/0x010BE21C), tag_num=0x03)
 61: 0x01A8 [0x27] REQ_SET(priority=0x04, entity_id=Rahal (ID: 17556001/0x010BE221), tag_num=0x08)
 62: 0x01AF [0x27] REQ_SET(priority=0x04, entity_id=Destin (ID: 17555995/0x010BE21B), tag_num=0x0B)
 63: 0x01B6 [0x27] REQ_SET(priority=0x04, entity_id=Trion (ID: 17555997/0x010BE21D), tag_num=0x06)
 64: 0x01BD [0x27] REQ_SET(priority=0x04, entity_id=Pieuje (ID: 17555998/0x010BE21E), tag_num=0x06)
 65: 0x01C4 [0x27] REQ_SET(priority=0x04, entity_id=Claidie (ID: 17555999/0x010BE21F), tag_num=0x06)
 66: 0x01CB [0x27] REQ_SET(priority=0x04, entity_id=Curilla (ID: 17556000/0x010BE220), tag_num=0x05)
 67: 0x01D2 [0x27] REQ_SET(priority=0x04, entity_id=LocalPlayer, tag_num=0x13)
 68: 0x01D9 [0x69] SET_SOUND_VOLUME: Unmute Effects/Master
 69: 0x01DD [0x2A] GET_REQ_LEVEL(level=4, entity_id=Rochefogne (ID: 17556003/0x010BE223))
 70: 0x01E3 [0x2A] GET_REQ_LEVEL(level=4, entity_id=Shamonde (ID: 17555996/0x010BE21C))
 71: 0x01E9 [0x2A] GET_REQ_LEVEL(level=4, entity_id=Rahal (ID: 17556001/0x010BE221))
 72: 0x01EF [0x2A] GET_REQ_LEVEL(level=4, entity_id=Destin (ID: 17555995/0x010BE21B))
 73: 0x01F5 [0x2A] GET_REQ_LEVEL(level=4, entity_id=Trion (ID: 17555997/0x010BE21D))
 74: 0x01FB [0x2A] GET_REQ_LEVEL(level=4, entity_id=Pieuje (ID: 17555998/0x010BE21E))
 75: 0x0201 [0x2A] GET_REQ_LEVEL(level=4, entity_id=Claidie (ID: 17555999/0x010BE21F))
 76: 0x0207 [0x2A] GET_REQ_LEVEL(level=4, entity_id=Curilla (ID: 17556000/0x010BE220))
 77: 0x020D [0x2A] GET_REQ_LEVEL(level=4, entity_id=LocalPlayer)
 78: 0x0213 [0x45] LOAD_SCHEDULED_TASK: Load scheduler "w001" with entities [LocalPlayer, LocalPlayer], work=[209*, 0*]
 79: 0x0224 [0x4D] EventEntity->StatusEvent = 9 // Close door
 80: 0x0225 [0x45] LOAD_SCHEDULED_TASK: Load scheduler "fdi1" with entities [LocalPlayer, LocalPlayer], work=[200*, 0*]
 81: 0x0236 [0x1C] WAIT(360* ticks)
 82: 0x0239 [0x27] REQ_SET(priority=0x03, entity_id=Destin (ID: 17555995/0x010BE21B), tag_num=0x03)
 83: 0x0240 [0x55] WAIT_LOAD_SCHEDULER: Wait for scheduler "w001" with entities [LocalPlayer, LocalPlayer], work=209*
 84: 0x024F [0x2A] GET_REQ_LEVEL(level=3, entity_id=Destin (ID: 17555995/0x010BE21B))
 85: 0x0255 [0x1C] WAIT(30* ticks)
 86: 0x0258 [0x5C] MUSIC_CONTROL: Set Idle (Day) music to song 153*
 87: 0x025C [0x5C] MUSIC_CONTROL: Set Idle (Night) music to song 153*
 88: 0x0260 [0x45] LOAD_SCHEDULED_TASK: Load scheduler "w002" with entities [LocalPlayer, LocalPlayer], work=[209*, 0*]
 89: 0x0271 [0x55] WAIT_LOAD_SCHEDULER: Wait for scheduler "w002" with entities [LocalPlayer, LocalPlayer], work=209*
 90: 0x0280 [0x79] Destin (ID: 17555995/0x010BE21B) looks at Ranperre (ID: 17556005/0x010BE225) (Basic look)
 91: 0x028A [0x1C] WAIT(30* ticks)
 92: 0x028D [0x2B] Destin (ID: 17555995/0x010BE21B) [7361*]:
    → "...Hm?"
 93: 0x0294 [0x1C] WAIT(60* ticks)
 94: 0x0297 [0x27] REQ_SET(priority=0x03, entity_id=Ranperre (ID: 17556005/0x010BE225), tag_num=0x02)
 95: 0x029E [0x1C] WAIT(60* ticks)
 96: 0x02A1 [0x45] LOAD_SCHEDULED_TASK: Load scheduler "w003" with entities [LocalPlayer, LocalPlayer], work=[209*, 0*]
 97: 0x02B2 [0x55] WAIT_LOAD_SCHEDULER: Wait for scheduler "w003" with entities [LocalPlayer, LocalPlayer], work=209*
 98: 0x02C1 [0x1C] WAIT(60* ticks)
 99: 0x02C4 [0x23] WAIT_FOR_DIALOG_INTERACTION
100: 0x02C5 [0x45] LOAD_SCHEDULED_TASK: Load scheduler "w004" with entities [LocalPlayer, LocalPlayer], work=[209*, 0*]
101: 0x02D6 [0x55] WAIT_LOAD_SCHEDULER: Wait for scheduler "w004" with entities [LocalPlayer, LocalPlayer], work=209*
102: 0x02E5 [0x1C] WAIT(30* ticks)
103: 0x02E8 [0x2B] Destin (ID: 17555995/0x010BE21B) [7362*]:
    → "It... It cannot be!"
104: 0x02EF [0x23] WAIT_FOR_DIALOG_INTERACTION
105: 0x02F0 [0x27] REQ_SET(priority=0x03, entity_id=Destin (ID: 17555995/0x010BE21B), tag_num=0x04)
106: 0x02F7 [0x2C] CREATE_SCHEDULER_TASK: Create scheduler "won4" with entities [Ranperre (ID: 17556005/0x010BE225), Ranperre (ID: 17556005/0x010BE225)]
107: 0x0304 [0x1C] WAIT(30* ticks)
108: 0x0307 [0x2B] Ranperre (ID: 17556005/0x010BE225) [7363*]:
    → "It is I, Ranperre... I am pleased to see my noble family gathered here before me."
109: 0x030E [0x23] WAIT_FOR_DIALOG_INTERACTION
110: 0x030F [0x45] LOAD_SCHEDULED_TASK: Load scheduler "se01" with entities [LocalPlayer, LocalPlayer], work=[243*, 0*]
111: 0x0320 [0x1C] WAIT(60* ticks)
112: 0x0323 [0x2A] GET_REQ_LEVEL(level=3, entity_id=Destin (ID: 17555995/0x010BE21B))
113: 0x0329 [0x45] LOAD_SCHEDULED_TASK: Load scheduler "w005" with entities [LocalPlayer, LocalPlayer], work=[209*, 0*]
114: 0x033A [0x1C] WAIT(30* ticks)
115: 0x033D [0x27] REQ_SET(priority=0x03, entity_id=Destin (ID: 17555995/0x010BE21B), tag_num=0x05)
116: 0x0344 [0x27] REQ_SET(priority=0x03, entity_id=Ranperre (ID: 17556005/0x010BE225), tag_num=0x03)
117: 0x034B [0x2B] Destin (ID: 17555995/0x010BE21B) [7364*]:
    → "O, mighty Dragon King. May you grace this blade with your protection."
118: 0x0352 [0x23] WAIT_FOR_DIALOG_INTERACTION
119: 0x0353 [0x55] WAIT_LOAD_SCHEDULER: Wait for scheduler "w005" with entities [LocalPlayer, LocalPlayer], work=209*
120: 0x0362 [0x45] LOAD_SCHEDULED_TASK: Load scheduler "w009" with entities [LocalPlayer, LocalPlayer], work=[209*, 0*]
121: 0x0373 [0x55] WAIT_LOAD_SCHEDULER: Wait for scheduler "w009" with entities [LocalPlayer, LocalPlayer], work=209*
122: 0x0382 [0x2A] GET_REQ_LEVEL(level=3, entity_id=Destin (ID: 17555995/0x010BE21B))
123: 0x0388 [0x2B] Ranperre (ID: 17556005/0x010BE225) [7365*]:
    → "Lightbringer..."
124: 0x038F [0x1C] WAIT(60* ticks)
125: 0x0392 [0x23] WAIT_FOR_DIALOG_INTERACTION
126: 0x0393 [0x45] LOAD_SCHEDULED_TASK: Load scheduler "ovl1" with entities [Ranperre (ID: 17556005/0x010BE225), Ranperre (ID: 17556005/0x010BE225)], work=[200*, 0*]
127: 0x03A4 [0x45] LOAD_SCHEDULED_TASK: Load scheduler "w007" with entities [LocalPlayer, LocalPlayer], work=[209*, 0*]
128: 0x03B5 [0x2B] Ranperre (ID: 17556005/0x010BE225) [7366*]:
    → "This blade has the ability to absorb energy from its surrounding environment and transform it into a force more powerful than any other. That power allowed me to tame the beasts that wreaked havoc in our fair kingdom."
129: 0x03BC [0x23] WAIT_FOR_DIALOG_INTERACTION
130: 0x03BD [0x55] WAIT_LOAD_SCHEDULER: Wait for scheduler "w007" with entities [LocalPlayer, LocalPlayer], work=209*
131: 0x03CC [0x1C] WAIT(60* ticks)
132: 0x03CF [0x45] LOAD_SCHEDULED_TASK: Load scheduler "ovl1" with entities [Ranperre (ID: 17556005/0x010BE225), Ranperre (ID: 17556005/0x010BE225)], work=[200*, 0*]
133: 0x03E0 [0x45] LOAD_SCHEDULED_TASK: Load scheduler "w006" with entities [LocalPlayer, LocalPlayer], work=[209*, 0*]
134: 0x03F1 [0x2B] Ranperre (ID: 17556005/0x010BE225) [7367*]:
    → "However, I knew that in the wrong hands, Lightbringer could bring great harm to Vana'diel. That is why I called upon the Marquisate to guard and protect it."
135: 0x03F8 [0x23] WAIT_FOR_DIALOG_INTERACTION
136: 0x03F9 [0x55] WAIT_LOAD_SCHEDULER: Wait for scheduler "w006" with entities [LocalPlayer, LocalPlayer], work=209*
137: 0x0408 [0x1C] WAIT(60* ticks)
138: 0x040B [0x45] LOAD_SCHEDULED_TASK: Load scheduler "ovl1" with entities [Ranperre (ID: 17556005/0x010BE225), Ranperre (ID: 17556005/0x010BE225)], work=[200*, 0*]
139: 0x041C [0x45] LOAD_SCHEDULED_TASK: Load scheduler "w008" with entities [LocalPlayer, LocalPlayer], work=[209*, 0*]
140: 0x042D [0x2B] Ranperre (ID: 17556005/0x010BE225) [7368*]:
    → "This blade may be the key that unlocks the mystery of the origin of all beings on Vana'diel."
141: 0x0434 [0x23] WAIT_FOR_DIALOG_INTERACTION
142: 0x0435 [0x55] WAIT_LOAD_SCHEDULER: Wait for scheduler "w008" with entities [LocalPlayer, LocalPlayer], work=209*
143: 0x0444 [0x1C] WAIT(60* ticks)
144: 0x0447 [0x45] LOAD_SCHEDULED_TASK: Load scheduler "w009" with entities [LocalPlayer, LocalPlayer], work=[209*, 0*]
145: 0x0458 [0x2B] Ranperre (ID: 17556005/0x010BE225) [7369*]:
    → "Unfortunately, its power has caused too much anguish... I will protect Lightbringer with what little power I have left, and pray that it never again falls into the hands of those who would abuse its power."
146: 0x045F [0x23] WAIT_FOR_DIALOG_INTERACTION
147: 0x0460 [0x1C] WAIT(60* ticks)
148: 0x0463 [0x27] REQ_SET(priority=0x04, entity_id=Destin (ID: 17555995/0x010BE21B), tag_num=0x06)
149: 0x046A [0x29] REQ_SET_WAIT(priority=0x04, entity_id=Ranperre (ID: 17556005/0x010BE225), tag_num=0x04)
150: 0x0471 [0x55] WAIT_LOAD_SCHEDULER: Wait for scheduler "w009" with entities [LocalPlayer, LocalPlayer], work=209*
151: 0x0480 [0x1C] WAIT(60* ticks)
152: 0x0483 [0x45] LOAD_SCHEDULED_TASK: Load scheduler "w010" with entities [LocalPlayer, LocalPlayer], work=[209*, 0*]
153: 0x0494 [0x2B] Ranperre (ID: 17556005/0x010BE225) [7370*]:
    → "Now, the fate of San d'Oria lies in your hands. If the calamity caused by Lightbringer has made you realize this, then there may still be hope."
154: 0x049B [0x23] WAIT_FOR_DIALOG_INTERACTION
155: 0x049C [0x55] WAIT_LOAD_SCHEDULER: Wait for scheduler "w010" with entities [LocalPlayer, LocalPlayer], work=209*
156: 0x04AB [0x1C] WAIT(60* ticks)
157: 0x04AE [0x27] REQ_SET(priority=0x04, entity_id=Ranperre (ID: 17556005/0x010BE225), tag_num=0x05)
158: 0x04B5 [0x1C] WAIT(10* ticks)
159: 0x04B8 [0x45] LOAD_SCHEDULED_TASK: Load scheduler "w011" with entities [LocalPlayer, LocalPlayer], work=[209*, 0*]
160: 0x04C9 [0x55] WAIT_LOAD_SCHEDULER: Wait for scheduler "w011" with entities [LocalPlayer, LocalPlayer], work=209*
161: 0x04D8 [0x2A] GET_REQ_LEVEL(level=4, entity_id=Ranperre (ID: 17556005/0x010BE225))
162: 0x04DE [0x2B] Ranperre (ID: 17556005/0x010BE225) [7371*]:
    → "The ephemeral flames that light San d'Oria must not be allowed to vanish from the Kingdom... May these words remain with you always..."
163: 0x04E5 [0x23] WAIT_FOR_DIALOG_INTERACTION
164: 0x04E6 [0x5D] SET_MUSIC_VOLUME(volume=0*, fade_time=300*)
165: 0x04EB [0x9F] LOAD_SCHEDULED_TASK_ALT: Load scheduler "main" with entities [Ranperre (ID: 17556005/0x010BE225), Ranperre (ID: 17556005/0x010BE225)], work=[26*, 0*]
166: 0x04FC [0x1C] WAIT(180* ticks)
167: 0x04FF [0x45] LOAD_SCHEDULED_TASK: Load scheduler "w012" with entities [LocalPlayer, LocalPlayer], work=[209*, 0*]
168: 0x0510 [0x1C] WAIT(300* ticks)
169: 0x0513 [0x92] Ranperre (ID: 17556005/0x010BE225)->Render.Flags3 ^= 0x01
170: 0x0519 [0x55] WAIT_LOAD_SCHEDULER: Wait for scheduler "w012" with entities [LocalPlayer, LocalPlayer], work=209*
171: 0x0528 [0x1C] WAIT(60* ticks)
172: 0x052B [0x7B] Destin (ID: 17555995/0x010BE21B) stops talking
173: 0x0530 [0x4B] UPDATE_ENTITY_YAW(entity=Destin (ID: 17555995/0x010BE21B), yaw=0.0°*)
174: 0x0537 [0x1C] WAIT(15* ticks)
175: 0x053A [0x45] LOAD_SCHEDULED_TASK: Load scheduler "w013" with entities [LocalPlayer, LocalPlayer], work=[209*, 0*]
176: 0x054B [0x55] WAIT_LOAD_SCHEDULER: Wait for scheduler "w013" with entities [LocalPlayer, LocalPlayer], work=209*
177: 0x055A [0x6F] WAIT_FRAME_DELAY: Yield until WaitTime reaches zero
178: 0x055B [0x76] CHECK_ENTITY_RENDER_FLAGS: Wait until Destin (ID: 17555995/0x010BE21B) Render.Flags0 and Render.Flags3 conditions are met
179: 0x0560 [0x1C] WAIT(60* ticks)
180: 0x0563 [0x27] REQ_SET(priority=0x03, entity_id=Destin (ID: 17555995/0x010BE21B), tag_num=0x0D)
181: 0x056A [0x2B] Destin (ID: 17555995/0x010BE21B) [7372*]:
    → "Lightbringer has been returned to its proper resting place, and the evil that accompanied it has been quenched."
182: 0x0571 [0x23] WAIT_FOR_DIALOG_INTERACTION
183: 0x0572 [0x45] LOAD_SCHEDULED_TASK: Load scheduler "fdo2" with entities [LocalPlayer, LocalPlayer], work=[200*, 0*]
184: 0x0583 [0x55] WAIT_LOAD_SCHEDULER: Wait for scheduler "fdo2" with entities [LocalPlayer, LocalPlayer], work=200*
185: 0x0592 [0x5C] MUSIC_CONTROL: Set Idle (Day) music to song 0*
186: 0x0596 [0x5C] MUSIC_CONTROL: Set Idle (Night) music to song 0*
187: 0x059A [0x46] CAMERA_CONTROL: Restore default settings
188: 0x059C [0x45] LOAD_SCHEDULED_TASK: Load scheduler "fdi2" with entities [LocalPlayer, LocalPlayer], work=[200*, 0*]
189: 0x05AD [0x21] END_EVENT
190: 0x05AE [0x00] END_REQSTACK()
```

### Event 5

#### Metadata

| Field        | Value      |
|--------------|------------|
| Entrypoint   | 0x05AF     |
| Data Size    | 1948 bytes |
| Instructions | 268        |

```
      00 01 02 03 04 05 06 07  08 09 0A 0B 0C 0D 0E 0F
      -- -- -- -- -- -- -- --  -- -- -- -- -- -- -- --
05A0:                                               20                  
05B0: 01 46 01 42 45 00 80 F0  FF FF 7F F0 FF FF 7F 66  .F.BE..........f
05C0: 64 6F 31 01 80 55 00 80  F0 FF FF 7F F0 FF FF 7F  do1..U..........
05D0: 66 64 6F 31 38 02 80 29  03 F0 FF FF 7F 12 4E 00  fdo18..)......N.
05E0: 1B E2 0B 01 4E 00 1C E2  0B 01 4E 00 1D E2 0B 01  ....N.....N.....
05F0: 4E 00 1E E2 0B 01 4E 00  1F E2 0B 01 4E 00 20 E2  N.....N.....N. .
0600: 0B 01 4E 00 21 E2 0B 01  2F 00 1B E2 0B 01 2F 00  ..N.!.../...../.
0610: 1C E2 0B 01 2F 00 1D E2  0B 01 2F 00 1E E2 0B 01  ..../...../.....
0620: 2F 00 1F E2 0B 01 2F 00  20 E2 0B 01 80 1B E2 0B  /...../. .......
0630: 01 80 1C E2 0B 01 80 1D  E2 0B 01 80 1E E2 0B 01  ................
0640: 80 1F E2 0B 01 80 20 E2  0B 01 94 01 1B E2 0B 01  ...... .........
0650: 94 01 1C E2 0B 01 94 01  1D E2 0B 01 94 01 1E E2  ................
0660: 0B 01 94 01 1F E2 0B 01  94 01 20 E2 0B 01 27 03  .......... ...'.
0670: 1C E2 0B 01 02 27 03 21  E2 0B 01 04 27 03 1B E2  .....'.!....'...
0680: 0B 01 09 27 03 1D E2 0B  01 04 27 03 1E E2 0B 01  ...'......'.....
0690: 04 27 03 1F E2 0B 01 04  27 03 20 E2 0B 01 04 5C  .'......'. ....\
06A0: 00 0C 80 5C 01 0C 80 45  03 80 F0 FF FF 7F F0 FF  ...\...E........
06B0: FF 7F 7A 30 30 30 01 80  55 03 80 F0 FF FF 7F F0  ..z000..U.......
06C0: FF FF 7F 7A 30 30 30 45  00 80 F0 FF FF 7F F0 FF  ...z000E........
06D0: FF 7F 66 64 69 31 01 80  1C 08 80 45 03 80 F0 FF  ..fdi1.....E....
06E0: FF 7F F0 FF FF 7F 7A 30  30 31 01 80 55 00 80 F0  ......z001..U...
06F0: FF FF 7F F0 FF FF 7F 66  64 69 31 2A 03 1B E2 0B  .......fdi1*....
0700: 01 2A 03 1C E2 0B 01 55  03 80 F0 FF FF 7F F0 FF  .*.....U........
0710: FF 7F 7A 30 30 31 29 03  21 E2 0B 01 05 4C 1C 04  ..z001).!....L..
0720: 80 27 03 21 E2 0B 01 06  1C 1E 80 45 03 80 F0 FF  .'.!.......E....
0730: FF 7F F0 FF FF 7F 7A 30  30 32 01 80 55 03 80 F0  ......z002..U...
0740: FF FF 7F F0 FF FF 7F 7A  30 30 32 2A 03 21 E2 0B  .......z002*.!..
0750: 01 2B 21 E2 0B 01 1F 80  23 4A 1C E2 0B 01 1B E2  .+!.....#J......
0760: 0B 01 6F 76 1C E2 0B 01  2B 1C E2 0B 01 20 80 23  ..ov....+.... .#
0770: 1C 0B 80 27 03 1B E2 0B  01 0A 1C 07 80 27 03 21  ...'.........'.!
0780: E2 0B 01 07 27 03 1D E2  0B 01 05 1C 07 80 27 03  ....'.........'.
0790: 1E E2 0B 01 05 1C 08 80  27 03 1F E2 0B 01 05 45  ........'......E
07A0: 00 80 F0 FF FF 7F F0 FF  FF 7F 66 64 6F 31 01 80  ..........fdo1..
07B0: 55 00 80 F0 FF FF 7F F0  FF FF 7F 66 64 6F 31 69  U..........fdo1i
07C0: 01 09 80 4D 27 04 1C E2  0B 01 03 27 04 21 E2 0B  ...M'......'.!..
07D0: 01 08 27 04 1B E2 0B 01  0B 27 04 1D E2 0B 01 06  ..'......'......
07E0: 27 04 1E E2 0B 01 06 27  04 1F E2 0B 01 06 27 04  '......'......'.
07F0: 20 E2 0B 01 05 27 04 F0  FF FF 7F 13 1C 08 80 69   ....'.........i
0800: 00 09 80 45 03 80 F0 FF  FF 7F F0 FF FF 7F 7A 30  ...E..........z0
0810: 30 33 01 80 55 03 80 F0  FF FF 7F F0 FF FF 7F 7A  03..U..........z
0820: 30 30 33 45 00 80 F0 FF  FF 7F F0 FF FF 7F 66 64  003E..........fd
0830: 69 31 01 80 55 00 80 F0  FF FF 7F F0 FF FF 7F 66  i1..U..........f
0840: 64 69 31 2A 04 F0 FF FF  7F 45 03 80 F0 FF FF 7F  di1*.....E......
0850: F0 FF FF 7F 7A 30 30 34  01 80 55 03 80 F0 FF FF  ....z004..U.....
0860: 7F F0 FF FF 7F 7A 30 30  34 29 03 1B E2 0B 01 0C  .....z004)......
0870: 1C 0B 80 27 03 1B E2 0B  01 0D 2B 1B E2 0B 01 21  ...'......+....!
0880: 80 23 1C 08 80 5D 01 80  04 80 48 22 80 23 2A 03  .#...]....H".#*.
0890: 1B E2 0B 01 4E 00 22 E2  0B 01 2F 00 22 E2 0B 01  ....N.".../."...
08A0: 27 03 22 E2 0B 01 02 4A  1B E2 0B 01 22 E2 0B 01  '."....J...."...
08B0: 1C 0B 80 4A 1D E2 0B 01  22 E2 0B 01 4A 21 E2 0B  ...J...."...J!..
08C0: 01 22 E2 0B 01 4A 1E E2  0B 01 22 E2 0B 01 4A 1F  ."...J...."...J.
08D0: E2 0B 01 22 E2 0B 01 4A  20 E2 0B 01 22 E2 0B 01  ..."...J ..."...
08E0: 4A F0 FF FF 7F 22 E2 0B  01 27 03 1C E2 0B 01 04  J...."...'......
08F0: 45 03 80 F0 FF FF 7F F0  FF FF 7F 7A 30 30 35 01  E..........z005.
0900: 80 55 03 80 F0 FF FF 7F  F0 FF FF 7F 7A 30 30 35  .U..........z005
0910: 2A 03 22 E2 0B 01 1C 08  80 45 03 80 F0 FF FF 7F  *."......E......
0920: F0 FF FF 7F 7A 30 30 36  01 80 27 04 22 E2 0B 01  ....z006..'."...
0930: 03 1C 08 80 48 23 80 23  55 03 80 F0 FF FF 7F F0  ....H#.#U.......
0940: FF FF 7F 7A 30 30 36 1C  24 80 45 03 80 F0 FF FF  ...z006.$.E.....
0950: 7F F0 FF FF 7F 7A 30 30  37 01 80 55 03 80 F0 FF  .....z007..U....
0960: FF 7F F0 FF FF 7F 7A 30  30 37 2B 1C E2 0B 01 25  ......z007+....%
0970: 80 23 2A 03 1C E2 0B 01  27 04 1C E2 0B 01 05 1C  .#*.....'.......
0980: 26 80 45 03 80 F0 FF FF  7F F0 FF FF 7F 73 32 39  &.E..........s29
0990: 38 01 80 45 03 80 F0 FF  FF 7F F0 FF FF 7F 7A 30  8..E..........z0
09A0: 30 38 01 80 1C 06 80 45  00 80 F0 FF FF 7F F0 FF  08.....E........
09B0: FF 7F 62 6C 6F 6E 01 80  1C 1C 80 52 03 80 F0 FF  ..blon.....R....
09C0: FF 7F F0 FF FF 7F 7A 30  30 38 45 03 80 F0 FF FF  ......z008E.....
09D0: 7F F0 FF FF 7F 7A 30 30  39 01 80 1C 06 80 45 00  .....z009.....E.
09E0: 80 F0 FF FF 7F F0 FF FF  7F 62 6C 6F 66 01 80 55  .........blof..U
09F0: 03 80 F0 FF FF 7F F0 FF  FF 7F 7A 30 30 39 6B 69  ..........z009ki
0A00: 64 6C 30 1C E2 0B 01 45  03 80 F0 FF FF 7F F0 FF  dl0....E........
0A10: FF 7F 73 32 39 39 01 80  27 05 22 E2 0B 01 04 48  ..s299..'."....H
0A20: 27 80 23 1C 08 80 27 03  21 E2 0B 01 09 27 03 20  '.#...'.!....'. 
0A30: E2 0B 01 06 27 03 F0 FF  FF 7F 14 1C 0B 80 45 03  ....'.........E.
0A40: 80 F0 FF FF 7F F0 FF FF  7F 7A 30 31 32 01 80 1C  .........z012...
0A50: 28 80 4C 55 03 80 F0 FF  FF 7F F0 FF FF 7F 7A 30  (.LU..........z0
0A60: 31 32 1C 05 80 45 03 80  F0 FF FF 7F F0 FF FF 7F  12...E..........
0A70: 7A 30 31 33 01 80 55 03  80 F0 FF FF 7F F0 FF FF  z013..U.........
0A80: 7F 7A 30 31 33 2A 03 21  E2 0B 01 2A 03 20 E2 0B  .z013*.!...*. ..
0A90: 01 2A 03 F0 FF FF 7F 5C  00 29 80 5C 01 29 80 2B  .*.....\.).\.).+
0AA0: 21 E2 0B 01 2A 80 23 2B  20 E2 0B 01 2B 80 23 45  !...*.#+ ...+.#E
0AB0: 03 80 F0 FF FF 7F F0 FF  FF 7F 7A 30 31 34 01 80  ..........z014..
0AC0: 55 03 80 F0 FF FF 7F F0  FF FF 7F 7A 30 31 34 6B  U..........z014k
0AD0: 69 64 6C 30 20 E2 0B 01  2B 20 E2 0B 01 2C 80 23  idl0 ...+ ...,.#
0AE0: 27 03 21 E2 0B 01 0A 2B  21 E2 0B 01 2D 80 23 6B  '.!....+!...-.#k
0AF0: 64 66 74 30 20 E2 0B 01  2B 20 E2 0B 01 2E 80 23  dft0 ...+ .....#
0B00: 29 04 21 E2 0B 01 0B 4A  21 E2 0B 01 20 E2 0B 01  ).!....J!... ...
0B10: 6F 76 21 E2 0B 01 2B 21  E2 0B 01 2F 80 23 4A F0  ov!...+!.../.#J.
0B20: FF FF 7F 20 E2 0B 01 27  03 20 E2 0B 01 08 2B 20  ... ...'. ....+ 
0B30: E2 0B 01 30 80 23 29 04  20 E2 0B 01 09 27 05 20  ...0.#). ....'. 
0B40: E2 0B 01 07 1C 04 80 4D  1C 31 80 45 03 80 F0 FF  .......M.1.E....
0B50: FF 7F F0 FF FF 7F 7A 30  31 31 01 80 55 03 80 F0  ......z011..U...
0B60: FF FF 7F F0 FF FF 7F 7A  30 31 31 27 03 1F E2 0B  .......z011'....
0B70: 01 07 2B 1F E2 0B 01 32  80 23 29 04 1F E2 0B 01  ..+....2.#).....
0B80: 08 4A 1C E2 0B 01 1F E2  0B 01 2B 1C E2 0B 01 33  .J........+....3
0B90: 80 23 4A 1C E2 0B 01 1B  E2 0B 01 4A 1F E2 0B 01  .#J........J....
0BA0: 1B E2 0B 01 4A 1D E2 0B  01 1B E2 0B 01 4A 1E E2  ....J........J..
0BB0: 0B 01 1B E2 0B 01 1C 07  80 45 03 80 F0 FF FF 7F  .........E......
0BC0: F0 FF FF 7F 7A 30 31 36  01 80 55 03 80 F0 FF FF  ....z016..U.....
0BD0: 7F F0 FF FF 7F 7A 30 31  36 2B 1B E2 0B 01 34 80  .....z016+....4.
0BE0: 23 29 03 1B E2 0B 01 0F  5D 01 80 08 80 45 00 80  #)......]....E..
0BF0: F0 FF FF 7F F0 FF FF 7F  66 64 6F 32 01 80 55 00  ........fdo2..U.
0C00: 80 F0 FF FF 7F F0 FF FF  7F 66 64 6F 32 45 03 80  .........fdo2E..
0C10: F0 FF FF 7F F0 FF FF 7F  7A 30 31 35 01 80 55 03  ........z015..U.
0C20: 80 F0 FF FF 7F F0 FF FF  7F 7A 30 31 35 27 03 1C  .........z015'..
0C30: E2 0B 01 06 27 03 21 E2  0B 01 0C 27 03 1B E2 0B  ....'.!....'....
0C40: 01 10 27 03 1D E2 0B 01  07 27 03 1E E2 0B 01 07  ..'......'......
0C50: 27 03 1F E2 0B 01 09 27  03 20 E2 0B 01 0A 27 03  '......'. ....'.
0C60: F0 FF FF 7F 15 1C 1B 80  45 00 80 F0 FF FF 7F F0  ........E.......
0C70: FF FF 7F 66 64 69 32 01  80 1C 35 80 4C 1C 08 80  ...fdi2...5.L...
0C80: 27 03 1D E2 0B 01 08 27  03 1E E2 0B 01 08 27 03  '......'......'.
0C90: 1F E2 0B 01 0A 27 03 1C  E2 0B 01 07 29 03 1B E2  .....'......)...
0CA0: 0B 01 11 2B 1B E2 0B 01  36 80 23 2B 1B E2 0B 01  ...+....6.#+....
0CB0: 37 80 23 29 03 1D E2 0B  01 09 2B 1D E2 0B 01 38  7.#)......+....8
0CC0: 80 23 7B 1D E2 0B 01 27  04 21 E2 0B 01 0D 1C 0B  .#{....'.!......
0CD0: 80 27 04 1B E2 0B 01 12  1C 08 80 27 04 1D E2 0B  .'.........'....
0CE0: 01 0A 1C 0B 80 27 04 1E  E2 0B 01 09 27 04 1F E2  .....'......'...
0CF0: 0B 01 0B 27 04 1C E2 0B  01 08 45 00 80 F0 FF FF  ...'......E.....
0D00: 7F F0 FF FF 7F 66 64 6F  32 01 80 55 00 80 F0 FF  .....fdo2..U....
0D10: FF 7F F0 FF FF 7F 66 64  6F 32 69 01 09 80 4D 1C  ......fdo2i...M.
0D20: 08 80 5C 00 01 80 5C 01  01 80 69 00 09 80 46 00  ..\...\...i...F.
0D30: 45 00 80 F0 FF FF 7F F0  FF FF 7F 66 64 69 32 01  E..........fdi2.
0D40: 80 21 00 4C 1C 0A 80 4D  1C 39 80                 .!.L...M.9.     
```

#### Opcodes

```
  0: 0x05AF [0x20] SET_CLI_EVENT_UC_FLAG: Lock player control
  1: 0x05B1 [0x46] CAMERA_CONTROL: Disable user control
  2: 0x05B3 [0x42] SET_CLI_EVENT_CANCEL_DATA()
  3: 0x05B4 [0x45] LOAD_SCHEDULED_TASK: Load scheduler "fdo1" with entities [LocalPlayer, LocalPlayer], work=[200*, 0*]
  4: 0x05C5 [0x55] WAIT_LOAD_SCHEDULER: Wait for scheduler "fdo1" with entities [LocalPlayer, LocalPlayer], work=200*
  5: 0x05D4 [0x38] SET_CLIENT_EVENT_MODE(mode=19*)
  6: 0x05D7 [0x29] REQ_SET_WAIT(priority=0x03, entity_id=LocalPlayer, tag_num=0x12)
  7: 0x05DE [0x4E] SET_ENTITY_HIDE_FLAG: Show Destin (ID: 17555995/0x010BE21B)
  8: 0x05E4 [0x4E] SET_ENTITY_HIDE_FLAG: Show Shamonde (ID: 17555996/0x010BE21C)
  9: 0x05EA [0x4E] SET_ENTITY_HIDE_FLAG: Show Trion (ID: 17555997/0x010BE21D)
 10: 0x05F0 [0x4E] SET_ENTITY_HIDE_FLAG: Show Pieuje (ID: 17555998/0x010BE21E)
 11: 0x05F6 [0x4E] SET_ENTITY_HIDE_FLAG: Show Claidie (ID: 17555999/0x010BE21F)
 12: 0x05FC [0x4E] SET_ENTITY_HIDE_FLAG: Show Curilla (ID: 17556000/0x010BE220)
 13: 0x0602 [0x4E] SET_ENTITY_HIDE_FLAG: Show Rahal (ID: 17556001/0x010BE221)
 14: 0x0608 [0x2F] Destin (ID: 17555995/0x010BE21B)->Render.Flags0 &= ~0x80000 // Bit 19
 15: 0x060E [0x2F] Shamonde (ID: 17555996/0x010BE21C)->Render.Flags0 &= ~0x80000 // Bit 19
 16: 0x0614 [0x2F] Trion (ID: 17555997/0x010BE21D)->Render.Flags0 &= ~0x80000 // Bit 19
 17: 0x061A [0x2F] Pieuje (ID: 17555998/0x010BE21E)->Render.Flags0 &= ~0x80000 // Bit 19
 18: 0x0620 [0x2F] Claidie (ID: 17555999/0x010BE21F)->Render.Flags0 &= ~0x80000 // Bit 19
 19: 0x0626 [0x2F] Curilla (ID: 17556000/0x010BE220)->Render.Flags0 &= ~0x80000 // Bit 19
 20: 0x062C [0x80] LOAD_WAIT(entity=Destin (ID: 17555995/0x010BE21B))
 21: 0x0631 [0x80] LOAD_WAIT(entity=Shamonde (ID: 17555996/0x010BE21C))
 22: 0x0636 [0x80] LOAD_WAIT(entity=Trion (ID: 17555997/0x010BE21D))
 23: 0x063B [0x80] LOAD_WAIT(entity=Pieuje (ID: 17555998/0x010BE21E))
 24: 0x0640 [0x80] LOAD_WAIT(entity=Claidie (ID: 17555999/0x010BE21F))
 25: 0x0645 [0x80] LOAD_WAIT(entity=Curilla (ID: 17556000/0x010BE220))
 26: 0x064A [0x94] Destin (ID: 17555995/0x010BE21B)->Render.Flags3 ^= 0x01
 27: 0x0650 [0x94] Shamonde (ID: 17555996/0x010BE21C)->Render.Flags3 ^= 0x01
 28: 0x0656 [0x94] Trion (ID: 17555997/0x010BE21D)->Render.Flags3 ^= 0x01
 29: 0x065C [0x94] Pieuje (ID: 17555998/0x010BE21E)->Render.Flags3 ^= 0x01
 30: 0x0662 [0x94] Claidie (ID: 17555999/0x010BE21F)->Render.Flags3 ^= 0x01
 31: 0x0668 [0x94] Curilla (ID: 17556000/0x010BE220)->Render.Flags3 ^= 0x01
 32: 0x066E [0x27] REQ_SET(priority=0x03, entity_id=Shamonde (ID: 17555996/0x010BE21C), tag_num=0x02)
 33: 0x0675 [0x27] REQ_SET(priority=0x03, entity_id=Rahal (ID: 17556001/0x010BE221), tag_num=0x04)
 34: 0x067C [0x27] REQ_SET(priority=0x03, entity_id=Destin (ID: 17555995/0x010BE21B), tag_num=0x09)
 35: 0x0683 [0x27] REQ_SET(priority=0x03, entity_id=Trion (ID: 17555997/0x010BE21D), tag_num=0x04)
 36: 0x068A [0x27] REQ_SET(priority=0x03, entity_id=Pieuje (ID: 17555998/0x010BE21E), tag_num=0x04)
 37: 0x0691 [0x27] REQ_SET(priority=0x03, entity_id=Claidie (ID: 17555999/0x010BE21F), tag_num=0x04)
 38: 0x0698 [0x27] REQ_SET(priority=0x03, entity_id=Curilla (ID: 17556000/0x010BE220), tag_num=0x04)
 39: 0x069F [0x5C] MUSIC_CONTROL: Set Idle (Day) music to song 153*
 40: 0x06A3 [0x5C] MUSIC_CONTROL: Set Idle (Night) music to song 153*
 41: 0x06A7 [0x45] LOAD_SCHEDULED_TASK: Load scheduler "z000" with entities [LocalPlayer, LocalPlayer], work=[209*, 0*]
 42: 0x06B8 [0x55] WAIT_LOAD_SCHEDULER: Wait for scheduler "z000" with entities [LocalPlayer, LocalPlayer], work=209*
 43: 0x06C7 [0x45] LOAD_SCHEDULED_TASK: Load scheduler "fdi1" with entities [LocalPlayer, LocalPlayer], work=[200*, 0*]
 44: 0x06D8 [0x1C] WAIT(60* ticks)
 45: 0x06DB [0x45] LOAD_SCHEDULED_TASK: Load scheduler "z001" with entities [LocalPlayer, LocalPlayer], work=[209*, 0*]
 46: 0x06EC [0x55] WAIT_LOAD_SCHEDULER: Wait for scheduler "fdi1" with entities [LocalPlayer, LocalPlayer], work=200*
 47: 0x06FB [0x2A] GET_REQ_LEVEL(level=3, entity_id=Destin (ID: 17555995/0x010BE21B))
 48: 0x0701 [0x2A] GET_REQ_LEVEL(level=3, entity_id=Shamonde (ID: 17555996/0x010BE21C))
 49: 0x0707 [0x55] WAIT_LOAD_SCHEDULER: Wait for scheduler "z001" with entities [LocalPlayer, LocalPlayer], work=209*
 50: 0x0716 [0x29] REQ_SET_WAIT(priority=0x03, entity_id=Rahal (ID: 17556001/0x010BE221), tag_num=0x05)
 51: 0x071D [0x4C] EventEntity->StatusEvent = 8 // Open door
 52: 0x071E [0x1C] WAIT(120* ticks)
 53: 0x0721 [0x27] REQ_SET(priority=0x03, entity_id=Rahal (ID: 17556001/0x010BE221), tag_num=0x06)
 54: 0x0728 [0x1C] WAIT(150* ticks)
 55: 0x072B [0x45] LOAD_SCHEDULED_TASK: Load scheduler "z002" with entities [LocalPlayer, LocalPlayer], work=[209*, 0*]
 56: 0x073C [0x55] WAIT_LOAD_SCHEDULER: Wait for scheduler "z002" with entities [LocalPlayer, LocalPlayer], work=209*
 57: 0x074B [0x2A] GET_REQ_LEVEL(level=3, entity_id=Rahal (ID: 17556001/0x010BE221))
 58: 0x0751 [0x2B] Rahal (ID: 17556001/0x010BE221) [7341*]:
    → "Hmm... As per your report, <Player>, it seems no monsters infest this place."
 59: 0x0758 [0x23] WAIT_FOR_DIALOG_INTERACTION
 60: 0x0759 [0x4A] Shamonde (ID: 17555996/0x010BE21C) looks at Destin (ID: 17555995/0x010BE21B)
 61: 0x0762 [0x6F] WAIT_FRAME_DELAY: Yield until WaitTime reaches zero
 62: 0x0763 [0x76] CHECK_ENTITY_RENDER_FLAGS: Wait until Shamonde (ID: 17555996/0x010BE21C) Render.Flags0 and Render.Flags3 conditions are met
 63: 0x0768 [0x2B] Shamonde (ID: 17555996/0x010BE21C) [7342*]:
    → "Very well, let us begin. Your Majesty..."
 64: 0x076F [0x23] WAIT_FOR_DIALOG_INTERACTION
 65: 0x0770 [0x1C] WAIT(30* ticks)
 66: 0x0773 [0x27] REQ_SET(priority=0x03, entity_id=Destin (ID: 17555995/0x010BE21B), tag_num=0x0A)
 67: 0x077A [0x1C] WAIT(20* ticks)
 68: 0x077D [0x27] REQ_SET(priority=0x03, entity_id=Rahal (ID: 17556001/0x010BE221), tag_num=0x07)
 69: 0x0784 [0x27] REQ_SET(priority=0x03, entity_id=Trion (ID: 17555997/0x010BE21D), tag_num=0x05)
 70: 0x078B [0x1C] WAIT(20* ticks)
 71: 0x078E [0x27] REQ_SET(priority=0x03, entity_id=Pieuje (ID: 17555998/0x010BE21E), tag_num=0x05)
 72: 0x0795 [0x1C] WAIT(60* ticks)
 73: 0x0798 [0x27] REQ_SET(priority=0x03, entity_id=Claidie (ID: 17555999/0x010BE21F), tag_num=0x05)
 74: 0x079F [0x45] LOAD_SCHEDULED_TASK: Load scheduler "fdo1" with entities [LocalPlayer, LocalPlayer], work=[200*, 0*]
 75: 0x07B0 [0x55] WAIT_LOAD_SCHEDULER: Wait for scheduler "fdo1" with entities [LocalPlayer, LocalPlayer], work=200*
 76: 0x07BF [0x69] SET_SOUND_VOLUME: Mute Effects/Master
 77: 0x07C3 [0x4D] EventEntity->StatusEvent = 9 // Close door
 78: 0x07C4 [0x27] REQ_SET(priority=0x04, entity_id=Shamonde (ID: 17555996/0x010BE21C), tag_num=0x03)
 79: 0x07CB [0x27] REQ_SET(priority=0x04, entity_id=Rahal (ID: 17556001/0x010BE221), tag_num=0x08)
 80: 0x07D2 [0x27] REQ_SET(priority=0x04, entity_id=Destin (ID: 17555995/0x010BE21B), tag_num=0x0B)
 81: 0x07D9 [0x27] REQ_SET(priority=0x04, entity_id=Trion (ID: 17555997/0x010BE21D), tag_num=0x06)
 82: 0x07E0 [0x27] REQ_SET(priority=0x04, entity_id=Pieuje (ID: 17555998/0x010BE21E), tag_num=0x06)
 83: 0x07E7 [0x27] REQ_SET(priority=0x04, entity_id=Claidie (ID: 17555999/0x010BE21F), tag_num=0x06)
 84: 0x07EE [0x27] REQ_SET(priority=0x04, entity_id=Curilla (ID: 17556000/0x010BE220), tag_num=0x05)
 85: 0x07F5 [0x27] REQ_SET(priority=0x04, entity_id=LocalPlayer, tag_num=0x13)
 86: 0x07FC [0x1C] WAIT(60* ticks)
 87: 0x07FF [0x69] SET_SOUND_VOLUME: Unmute Effects/Master
 88: 0x0803 [0x45] LOAD_SCHEDULED_TASK: Load scheduler "z003" with entities [LocalPlayer, LocalPlayer], work=[209*, 0*]
 89: 0x0814 [0x55] WAIT_LOAD_SCHEDULER: Wait for scheduler "z003" with entities [LocalPlayer, LocalPlayer], work=209*
 90: 0x0823 [0x45] LOAD_SCHEDULED_TASK: Load scheduler "fdi1" with entities [LocalPlayer, LocalPlayer], work=[200*, 0*]
 91: 0x0834 [0x55] WAIT_LOAD_SCHEDULER: Wait for scheduler "fdi1" with entities [LocalPlayer, LocalPlayer], work=200*
 92: 0x0843 [0x2A] GET_REQ_LEVEL(level=4, entity_id=LocalPlayer)
 93: 0x0849 [0x45] LOAD_SCHEDULED_TASK: Load scheduler "z004" with entities [LocalPlayer, LocalPlayer], work=[209*, 0*]
 94: 0x085A [0x55] WAIT_LOAD_SCHEDULER: Wait for scheduler "z004" with entities [LocalPlayer, LocalPlayer], work=209*
 95: 0x0869 [0x29] REQ_SET_WAIT(priority=0x03, entity_id=Destin (ID: 17555995/0x010BE21B), tag_num=0x0C)
 96: 0x0870 [0x1C] WAIT(30* ticks)
 97: 0x0873 [0x27] REQ_SET(priority=0x03, entity_id=Destin (ID: 17555995/0x010BE21B), tag_num=0x0D)
 98: 0x087A [0x2B] Destin (ID: 17555995/0x010BE21B) [7343*]:
    → "Spirit of Ranperre, great king of dragons, may your rest continue undisturbed. Watch over the glory of our ancestors."
 99: 0x0881 [0x23] WAIT_FOR_DIALOG_INTERACTION
100: 0x0882 [0x1C] WAIT(60* ticks)
101: 0x0885 [0x5D] SET_MUSIC_VOLUME(volume=0*, fade_time=120*)
102: 0x088A [0x48] [System] [7344*]:
    → "Welcome, heir of the dragon-blood."
103: 0x088D [0x23] WAIT_FOR_DIALOG_INTERACTION
104: 0x088E [0x2A] GET_REQ_LEVEL(level=3, entity_id=Destin (ID: 17555995/0x010BE21B))
105: 0x0894 [0x4E] SET_ENTITY_HIDE_FLAG: Show Unnamed NPC (ID: 17556002/0x010BE222)
106: 0x089A [0x2F] Unnamed NPC (ID: 17556002/0x010BE222)->Render.Flags0 &= ~0x80000 // Bit 19
107: 0x08A0 [0x27] REQ_SET(priority=0x03, entity_id=Unnamed NPC (ID: 17556002/0x010BE222), tag_num=0x02)
108: 0x08A7 [0x4A] Destin (ID: 17555995/0x010BE21B) looks at Unnamed NPC (ID: 17556002/0x010BE222)
109: 0x08B0 [0x1C] WAIT(30* ticks)
110: 0x08B3 [0x4A] Trion (ID: 17555997/0x010BE21D) looks at Unnamed NPC (ID: 17556002/0x010BE222)
111: 0x08BC [0x4A] Rahal (ID: 17556001/0x010BE221) looks at Unnamed NPC (ID: 17556002/0x010BE222)
112: 0x08C5 [0x4A] Pieuje (ID: 17555998/0x010BE21E) looks at Unnamed NPC (ID: 17556002/0x010BE222)
113: 0x08CE [0x4A] Claidie (ID: 17555999/0x010BE21F) looks at Unnamed NPC (ID: 17556002/0x010BE222)
114: 0x08D7 [0x4A] Curilla (ID: 17556000/0x010BE220) looks at Unnamed NPC (ID: 17556002/0x010BE222)
115: 0x08E0 [0x4A] LocalPlayer looks at Unnamed NPC (ID: 17556002/0x010BE222)
116: 0x08E9 [0x27] REQ_SET(priority=0x03, entity_id=Shamonde (ID: 17555996/0x010BE21C), tag_num=0x04)
117: 0x08F0 [0x45] LOAD_SCHEDULED_TASK: Load scheduler "z005" with entities [LocalPlayer, LocalPlayer], work=[209*, 0*]
118: 0x0901 [0x55] WAIT_LOAD_SCHEDULER: Wait for scheduler "z005" with entities [LocalPlayer, LocalPlayer], work=209*
119: 0x0910 [0x2A] GET_REQ_LEVEL(level=3, entity_id=Unnamed NPC (ID: 17556002/0x010BE222))
120: 0x0916 [0x1C] WAIT(60* ticks)
121: 0x0919 [0x45] LOAD_SCHEDULED_TASK: Load scheduler "z006" with entities [LocalPlayer, LocalPlayer], work=[209*, 0*]
122: 0x092A [0x27] REQ_SET(priority=0x04, entity_id=Unnamed NPC (ID: 17556002/0x010BE222), tag_num=0x03)
123: 0x0931 [0x1C] WAIT(60* ticks)
124: 0x0934 [0x48] [System] [7345*]:
    → "The sword! You must hurry!"
125: 0x0937 [0x23] WAIT_FOR_DIALOG_INTERACTION
126: 0x0938 [0x55] WAIT_LOAD_SCHEDULER: Wait for scheduler "z006" with entities [LocalPlayer, LocalPlayer], work=209*
127: 0x0947 [0x1C] WAIT(50* ticks)
128: 0x094A [0x45] LOAD_SCHEDULED_TASK: Load scheduler "z007" with entities [LocalPlayer, LocalPlayer], work=[209*, 0*]
129: 0x095B [0x55] WAIT_LOAD_SCHEDULER: Wait for scheduler "z007" with entities [LocalPlayer, LocalPlayer], work=209*
130: 0x096A [0x2B] Shamonde (ID: 17555996/0x010BE21C) [7346*]:
    → "Begone from these holy grounds, foul deceiver!"
131: 0x0971 [0x23] WAIT_FOR_DIALOG_INTERACTION
132: 0x0972 [0x2A] GET_REQ_LEVEL(level=3, entity_id=Shamonde (ID: 17555996/0x010BE21C))
133: 0x0978 [0x27] REQ_SET(priority=0x04, entity_id=Shamonde (ID: 17555996/0x010BE21C), tag_num=0x05)
134: 0x097F [0x1C] WAIT(40* ticks)
135: 0x0982 [0x45] LOAD_SCHEDULED_TASK: Load scheduler "s298" with entities [LocalPlayer, LocalPlayer], work=[209*, 0*]
136: 0x0993 [0x45] LOAD_SCHEDULED_TASK: Load scheduler "z008" with entities [LocalPlayer, LocalPlayer], work=[209*, 0*]
137: 0x09A4 [0x1C] WAIT(10* ticks)
138: 0x09A7 [0x45] LOAD_SCHEDULED_TASK: Load scheduler "blon" with entities [LocalPlayer, LocalPlayer], work=[200*, 0*]
139: 0x09B8 [0x1C] WAIT(15* ticks)
140: 0x09BB [0x52] END_LOAD_SCHEDULER: End scheduler "z008" with entities [LocalPlayer, LocalPlayer], work=209*
141: 0x09CA [0x45] LOAD_SCHEDULED_TASK: Load scheduler "z009" with entities [LocalPlayer, LocalPlayer], work=[209*, 0*]
142: 0x09DB [0x1C] WAIT(10* ticks)
143: 0x09DE [0x45] LOAD_SCHEDULED_TASK: Load scheduler "blof" with entities [LocalPlayer, LocalPlayer], work=[200*, 0*]
144: 0x09EF [0x55] WAIT_LOAD_SCHEDULER: Wait for scheduler "z009" with entities [LocalPlayer, LocalPlayer], work=209*
145: 0x09FE [0x6B] STOP_AND_IDLE: Shamonde (ID: 17555996/0x010BE21C) stops current action and resets to idle (animation="idl0")
146: 0x0A07 [0x45] LOAD_SCHEDULED_TASK: Load scheduler "s299" with entities [LocalPlayer, LocalPlayer], work=[209*, 0*]
147: 0x0A18 [0x27] REQ_SET(priority=0x05, entity_id=Unnamed NPC (ID: 17556002/0x010BE222), tag_num=0x04)
148: 0x0A1F [0x48] [System] [7347*]:
    → "Ach!"
149: 0x0A22 [0x23] WAIT_FOR_DIALOG_INTERACTION
150: 0x0A23 [0x1C] WAIT(60* ticks)
151: 0x0A26 [0x27] REQ_SET(priority=0x03, entity_id=Rahal (ID: 17556001/0x010BE221), tag_num=0x09)
152: 0x0A2D [0x27] REQ_SET(priority=0x03, entity_id=Curilla (ID: 17556000/0x010BE220), tag_num=0x06)
153: 0x0A34 [0x27] REQ_SET(priority=0x03, entity_id=LocalPlayer, tag_num=0x14)
154: 0x0A3B [0x1C] WAIT(30* ticks)
155: 0x0A3E [0x45] LOAD_SCHEDULED_TASK: Load scheduler "z012" with entities [LocalPlayer, LocalPlayer], work=[209*, 0*]
156: 0x0A4F [0x1C] WAIT(130* ticks)
157: 0x0A52 [0x4C] EventEntity->StatusEvent = 8 // Open door
158: 0x0A53 [0x55] WAIT_LOAD_SCHEDULER: Wait for scheduler "z012" with entities [LocalPlayer, LocalPlayer], work=209*
159: 0x0A62 [0x1C] WAIT(100* ticks)
160: 0x0A65 [0x45] LOAD_SCHEDULED_TASK: Load scheduler "z013" with entities [LocalPlayer, LocalPlayer], work=[209*, 0*]
161: 0x0A76 [0x55] WAIT_LOAD_SCHEDULER: Wait for scheduler "z013" with entities [LocalPlayer, LocalPlayer], work=209*
162: 0x0A85 [0x2A] GET_REQ_LEVEL(level=3, entity_id=Rahal (ID: 17556001/0x010BE221))
163: 0x0A8B [0x2A] GET_REQ_LEVEL(level=3, entity_id=Curilla (ID: 17556000/0x010BE220))
164: 0x0A91 [0x2A] GET_REQ_LEVEL(level=3, entity_id=LocalPlayer)
165: 0x0A97 [0x5C] MUSIC_CONTROL: Set Idle (Day) music to song 127*
166: 0x0A9B [0x5C] MUSIC_CONTROL: Set Idle (Night) music to song 127*
167: 0x0A9F [0x2B] Rahal (ID: 17556001/0x010BE221) [7348*]:
    → "He must have run away. We should hold our position until the end of the ceremony."
168: 0x0AA6 [0x23] WAIT_FOR_DIALOG_INTERACTION
169: 0x0AA7 [0x2B] Curilla (ID: 17556000/0x010BE220) [7349*]:
    → "Yes. I shall guard the interior."
170: 0x0AAE [0x23] WAIT_FOR_DIALOG_INTERACTION
171: 0x0AAF [0x45] LOAD_SCHEDULED_TASK: Load scheduler "z014" with entities [LocalPlayer, LocalPlayer], work=[209*, 0*]
172: 0x0AC0 [0x55] WAIT_LOAD_SCHEDULER: Wait for scheduler "z014" with entities [LocalPlayer, LocalPlayer], work=209*
173: 0x0ACF [0x6B] STOP_AND_IDLE: Curilla (ID: 17556000/0x010BE220) stops current action and resets to idle (animation="idl0")
174: 0x0AD8 [0x2B] Curilla (ID: 17556000/0x010BE220) [7350*]:
    → "But I wonder what that knight meant."
175: 0x0ADF [0x23] WAIT_FOR_DIALOG_INTERACTION
176: 0x0AE0 [0x27] REQ_SET(priority=0x03, entity_id=Rahal (ID: 17556001/0x010BE221), tag_num=0x0A)
177: 0x0AE7 [0x2B] Rahal (ID: 17556001/0x010BE221) [7351*]:
    → "Surely he meant for us to obtain it quickly. What else could it be? Surely just a riddle, nothing to worry over. The dragoons' riddles are often deep."
178: 0x0AEE [0x23] WAIT_FOR_DIALOG_INTERACTION
179: 0x0AEF [0x6B] STOP_AND_IDLE: Curilla (ID: 17556000/0x010BE220) stops current action and resets to idle (animation="dft0")
180: 0x0AF8 [0x2B] Curilla (ID: 17556000/0x010BE220) [7352*]:
    → "What do you mean?"
181: 0x0AFF [0x23] WAIT_FOR_DIALOG_INTERACTION
182: 0x0B00 [0x29] REQ_SET_WAIT(priority=0x04, entity_id=Rahal (ID: 17556001/0x010BE221), tag_num=0x0B)
183: 0x0B07 [0x4A] Rahal (ID: 17556001/0x010BE221) looks at Curilla (ID: 17556000/0x010BE220)
184: 0x0B10 [0x6F] WAIT_FRAME_DELAY: Yield until WaitTime reaches zero
185: 0x0B11 [0x76] CHECK_ENTITY_RENDER_FLAGS: Wait until Rahal (ID: 17556001/0x010BE221) Render.Flags0 and Render.Flags3 conditions are met
186: 0x0B16 [0x2B] Rahal (ID: 17556001/0x010BE221) [7353*]:
    → "Have you forgotten, Curilla? The knights who served King Ranperre were headed by a dragoon. The last one of that age."
187: 0x0B1D [0x23] WAIT_FOR_DIALOG_INTERACTION
188: 0x0B1E [0x4A] LocalPlayer looks at Curilla (ID: 17556000/0x010BE220)
189: 0x0B27 [0x27] REQ_SET(priority=0x03, entity_id=Curilla (ID: 17556000/0x010BE220), tag_num=0x08)
190: 0x0B2E [0x2B] Curilla (ID: 17556000/0x010BE220) [7354*]:
    → ""The last of the dragoons," eh? Hmph. I knew it was no ordinary outlaw. Anyway, the rest is up to you, Rahal."
191: 0x0B35 [0x23] WAIT_FOR_DIALOG_INTERACTION
192: 0x0B36 [0x29] REQ_SET_WAIT(priority=0x04, entity_id=Curilla (ID: 17556000/0x010BE220), tag_num=0x09)
193: 0x0B3D [0x27] REQ_SET(priority=0x05, entity_id=Curilla (ID: 17556000/0x010BE220), tag_num=0x07)
194: 0x0B44 [0x1C] WAIT(120* ticks)
195: 0x0B47 [0x4D] EventEntity->StatusEvent = 9 // Close door
196: 0x0B48 [0x1C] WAIT(240* ticks)
197: 0x0B4B [0x45] LOAD_SCHEDULED_TASK: Load scheduler "z011" with entities [LocalPlayer, LocalPlayer], work=[209*, 0*]
198: 0x0B5C [0x55] WAIT_LOAD_SCHEDULER: Wait for scheduler "z011" with entities [LocalPlayer, LocalPlayer], work=209*
199: 0x0B6B [0x27] REQ_SET(priority=0x03, entity_id=Claidie (ID: 17555999/0x010BE21F), tag_num=0x07)
200: 0x0B72 [0x2B] Claidie (ID: 17555999/0x010BE21F) [7355*]:
    → "What was that?"
201: 0x0B79 [0x23] WAIT_FOR_DIALOG_INTERACTION
202: 0x0B7A [0x29] REQ_SET_WAIT(priority=0x04, entity_id=Claidie (ID: 17555999/0x010BE21F), tag_num=0x08)
203: 0x0B81 [0x4A] Shamonde (ID: 17555996/0x010BE21C) looks at Claidie (ID: 17555999/0x010BE21F)
204: 0x0B8A [0x2B] Shamonde (ID: 17555996/0x010BE21C) [7356*]:
    → "Surely, the work of evildoers. Anywhere the outlaw goes, they are sure to follow. Your Majesty, we must continue the ceremony."
205: 0x0B91 [0x23] WAIT_FOR_DIALOG_INTERACTION
206: 0x0B92 [0x4A] Shamonde (ID: 17555996/0x010BE21C) looks at Destin (ID: 17555995/0x010BE21B)
207: 0x0B9B [0x4A] Claidie (ID: 17555999/0x010BE21F) looks at Destin (ID: 17555995/0x010BE21B)
208: 0x0BA4 [0x4A] Trion (ID: 17555997/0x010BE21D) looks at Destin (ID: 17555995/0x010BE21B)
209: 0x0BAD [0x4A] Pieuje (ID: 17555998/0x010BE21E) looks at Destin (ID: 17555995/0x010BE21B)
210: 0x0BB6 [0x1C] WAIT(20* ticks)
211: 0x0BB9 [0x45] LOAD_SCHEDULED_TASK: Load scheduler "z016" with entities [LocalPlayer, LocalPlayer], work=[209*, 0*]
212: 0x0BCA [0x55] WAIT_LOAD_SCHEDULER: Wait for scheduler "z016" with entities [LocalPlayer, LocalPlayer], work=209*
213: 0x0BD9 [0x2B] Destin (ID: 17555995/0x010BE21B) [7357*]:
    → "I know."
214: 0x0BE0 [0x23] WAIT_FOR_DIALOG_INTERACTION
215: 0x0BE1 [0x29] REQ_SET_WAIT(priority=0x03, entity_id=Destin (ID: 17555995/0x010BE21B), tag_num=0x0F)
216: 0x0BE8 [0x5D] SET_MUSIC_VOLUME(volume=0*, fade_time=60*)
217: 0x0BED [0x45] LOAD_SCHEDULED_TASK: Load scheduler "fdo2" with entities [LocalPlayer, LocalPlayer], work=[200*, 0*]
218: 0x0BFE [0x55] WAIT_LOAD_SCHEDULER: Wait for scheduler "fdo2" with entities [LocalPlayer, LocalPlayer], work=200*
219: 0x0C0D [0x45] LOAD_SCHEDULED_TASK: Load scheduler "z015" with entities [LocalPlayer, LocalPlayer], work=[209*, 0*]
220: 0x0C1E [0x55] WAIT_LOAD_SCHEDULER: Wait for scheduler "z015" with entities [LocalPlayer, LocalPlayer], work=209*
221: 0x0C2D [0x27] REQ_SET(priority=0x03, entity_id=Shamonde (ID: 17555996/0x010BE21C), tag_num=0x06)
222: 0x0C34 [0x27] REQ_SET(priority=0x03, entity_id=Rahal (ID: 17556001/0x010BE221), tag_num=0x0C)
223: 0x0C3B [0x27] REQ_SET(priority=0x03, entity_id=Destin (ID: 17555995/0x010BE21B), tag_num=0x10)
224: 0x0C42 [0x27] REQ_SET(priority=0x03, entity_id=Trion (ID: 17555997/0x010BE21D), tag_num=0x07)
225: 0x0C49 [0x27] REQ_SET(priority=0x03, entity_id=Pieuje (ID: 17555998/0x010BE21E), tag_num=0x07)
226: 0x0C50 [0x27] REQ_SET(priority=0x03, entity_id=Claidie (ID: 17555999/0x010BE21F), tag_num=0x09)
227: 0x0C57 [0x27] REQ_SET(priority=0x03, entity_id=Curilla (ID: 17556000/0x010BE220), tag_num=0x0A)
228: 0x0C5E [0x27] REQ_SET(priority=0x03, entity_id=LocalPlayer, tag_num=0x15)
229: 0x0C65 [0x1C] WAIT(180* ticks)
230: 0x0C68 [0x45] LOAD_SCHEDULED_TASK: Load scheduler "fdi2" with entities [LocalPlayer, LocalPlayer], work=[200*, 0*]
231: 0x0C79 [0x1C] WAIT(90* ticks)
232: 0x0C7C [0x4C] EventEntity->StatusEvent = 8 // Open door
233: 0x0C7D [0x1C] WAIT(60* ticks)
234: 0x0C80 [0x27] REQ_SET(priority=0x03, entity_id=Trion (ID: 17555997/0x010BE21D), tag_num=0x08)
235: 0x0C87 [0x27] REQ_SET(priority=0x03, entity_id=Pieuje (ID: 17555998/0x010BE21E), tag_num=0x08)
236: 0x0C8E [0x27] REQ_SET(priority=0x03, entity_id=Claidie (ID: 17555999/0x010BE21F), tag_num=0x0A)
237: 0x0C95 [0x27] REQ_SET(priority=0x03, entity_id=Shamonde (ID: 17555996/0x010BE21C), tag_num=0x07)
238: 0x0C9C [0x29] REQ_SET_WAIT(priority=0x03, entity_id=Destin (ID: 17555995/0x010BE21B), tag_num=0x11)
239: 0x0CA3 [0x2B] Destin (ID: 17555995/0x010BE21B) [7358*]:
    → "We failed to capture the intruder. It was probably just another grave-robber. We shall post knights in this tomb, so we've nothing to worry about."
240: 0x0CAA [0x23] WAIT_FOR_DIALOG_INTERACTION
241: 0x0CAB [0x2B] Destin (ID: 17555995/0x010BE21B) [7359*]:
    → "I thank you for your service to the bloodline of King Ranperre. Thanks to you, our future is bright."
242: 0x0CB2 [0x23] WAIT_FOR_DIALOG_INTERACTION
243: 0x0CB3 [0x29] REQ_SET_WAIT(priority=0x03, entity_id=Trion (ID: 17555997/0x010BE21D), tag_num=0x09)
244: 0x0CBA [0x2B] Trion (ID: 17555997/0x010BE21D) [7360*]:
    → "<Player>! Do not forget to deliver your report to the guard at the gatehouse."
245: 0x0CC1 [0x23] WAIT_FOR_DIALOG_INTERACTION
246: 0x0CC2 [0x7B] Trion (ID: 17555997/0x010BE21D) stops talking
247: 0x0CC7 [0x27] REQ_SET(priority=0x04, entity_id=Rahal (ID: 17556001/0x010BE221), tag_num=0x0D)
248: 0x0CCE [0x1C] WAIT(30* ticks)
249: 0x0CD1 [0x27] REQ_SET(priority=0x04, entity_id=Destin (ID: 17555995/0x010BE21B), tag_num=0x12)
250: 0x0CD8 [0x1C] WAIT(60* ticks)
251: 0x0CDB [0x27] REQ_SET(priority=0x04, entity_id=Trion (ID: 17555997/0x010BE21D), tag_num=0x0A)
252: 0x0CE2 [0x1C] WAIT(30* ticks)
253: 0x0CE5 [0x27] REQ_SET(priority=0x04, entity_id=Pieuje (ID: 17555998/0x010BE21E), tag_num=0x09)
254: 0x0CEC [0x27] REQ_SET(priority=0x04, entity_id=Claidie (ID: 17555999/0x010BE21F), tag_num=0x0B)
255: 0x0CF3 [0x27] REQ_SET(priority=0x04, entity_id=Shamonde (ID: 17555996/0x010BE21C), tag_num=0x08)
256: 0x0CFA [0x45] LOAD_SCHEDULED_TASK: Load scheduler "fdo2" with entities [LocalPlayer, LocalPlayer], work=[200*, 0*]
257: 0x0D0B [0x55] WAIT_LOAD_SCHEDULER: Wait for scheduler "fdo2" with entities [LocalPlayer, LocalPlayer], work=200*
258: 0x0D1A [0x69] SET_SOUND_VOLUME: Mute Effects/Master
259: 0x0D1E [0x4D] EventEntity->StatusEvent = 9 // Close door
260: 0x0D1F [0x1C] WAIT(60* ticks)
261: 0x0D22 [0x5C] MUSIC_CONTROL: Set Idle (Day) music to song 0*
262: 0x0D26 [0x5C] MUSIC_CONTROL: Set Idle (Night) music to song 0*
263: 0x0D2A [0x69] SET_SOUND_VOLUME: Unmute Effects/Master
264: 0x0D2E [0x46] CAMERA_CONTROL: Restore default settings
265: 0x0D30 [0x45] LOAD_SCHEDULED_TASK: Load scheduler "fdi2" with entities [LocalPlayer, LocalPlayer], work=[200*, 0*]
266: 0x0D41 [0x21] END_EVENT
267: 0x0D42 [0x00] END_REQSTACK()
```

#### Data or dead code:

```
# Dead code (unreachable instructions):
     0x0D43 [0x4C] EventEntity->StatusEvent = 8 // Open door
     0x0D44 [0x1C] WAIT(360* ticks)
     0x0D47 [0x4D] EventEntity->StatusEvent = 9 // Close door
     0x0D48 [0x1C] WAIT(80* ticks)
```
