# 17555995 - Destin

## Common Data

| Field            | Value                          |
|------------------|--------------------------------|
| Zone             | King Ranperre's Tomb (ID: 190) |
| Block Size       | 576 bytes                      |
| Total Events     | 19                             |
| References Count | 37                             |

## List of Events

| Event ID                   | Entrypoint   |   Size |   Instructions |
|----------------------------|--------------|--------|----------------|
| [65535](#event-65535)      | 0x0000       |      4 |              2 |
| [14](#event-14)            | 0x0004       |     10 |              2 |
| [65535.1](#event-655351)   | 0x000E       |     11 |              3 |
| [65535.2](#event-655352)   | 0x0019       |     12 |              4 |
| [65535.3](#event-655353)   | 0x0025       |     29 |              3 |
| [65535.4](#event-655354)   | 0x0042       |     29 |              3 |
| [65535.5](#event-655355)   | 0x005F       |     29 |              3 |
| [65535.6](#event-655356)   | 0x007C       |     23 |              5 |
| [5](#event-5)              | 0x0093       |     10 |              2 |
| [65535.7](#event-655357)   | 0x009D       |     11 |              3 |
| [65535.8](#event-655358)   | 0x00A8       |     23 |              5 |
| [65535.9](#event-655359)   | 0x00BF       |     11 |              3 |
| [65535.10](#event-6553510) | 0x00CA       |     11 |              3 |
| [65535.11](#event-6553511) | 0x00D5       |     19 |              3 |
| [65535.12](#event-6553512) | 0x00E8       |     29 |              3 |
| [65535.13](#event-6553513) | 0x0105       |     23 |              6 |
| [65535.14](#event-6553514) | 0x011C       |     11 |              3 |
| [65535.15](#event-6553515) | 0x0127       |     22 |              8 |
| [65535.16](#event-6553516) | 0x013D       |     16 |              4 |

## DAT References (imed_data)

|   Index | Hex Value   |   Dec Value |
|---------|-------------|-------------|
|       0 | 0x0007      |           7 |
|       1 | 0xFFFF7B7F  |  4294933375 |
|       2 | 0x50FF      |       20735 |
|       3 | 0x1D4B      |        7499 |
|       4 | 0x0676      |        1654 |
|       5 | 0xFFFF7418  |  4294931480 |
|       6 | 0x4E7D      |       20093 |
|       7 | 0xFFFEEE02  |  4294897154 |
|       8 | 0x222E      |        8750 |
|       9 | 0x0084      |         132 |
|      10 | 0xFFFF6CC0  |  4294929600 |
|      11 | 0x4DAD      |       19885 |
|      12 | 0xFFFF566A  |  4294923882 |
|      13 | 0x4E2B      |       20011 |
|      14 | 0x2039      |        8249 |
|      15 | 0x0078      |         120 |
|      16 | 0x4F80      |       20352 |
|      17 | 0x003C      |          60 |
|      18 | 0xFFFEF1CA  |  4294898122 |
|      19 | 0x4E58      |       20056 |
|      20 | 0x2327      |        8999 |
|      21 | 0x0821      |        2081 |
|      22 | 0xFFFEE79A  |  4294895514 |
|      23 | 0x4EAB      |       20139 |
|      24 | 0x0082      |         130 |
|      25 | 0x0800      |        2048 |
|      26 | 0x0080      |         128 |
|      27 | 0x0001      |           1 |
|      28 | 0xFFFF608E  |  4294926478 |
|      29 | 0x4E23      |       20003 |
|      30 | 0x1F3F      |        7999 |
|      31 | 0x0FE9      |        4073 |
|      32 | 0xFFFF6D6B  |  4294929771 |
|      33 | 0x4DED      |       19949 |
|      34 | 0xFFFF85FD  |  4294936061 |
|      35 | 0x5122      |       20770 |
|      36 | 0x1D42      |        7490 |

## Events

### Event 65535

#### Metadata

| Field        | Value   |
|--------------|---------|
| Entrypoint   | 0x0000  |
| Data Size    | 4 bytes |
| Instructions | 2       |

```
      00 01 02 03 04 05 06 07  08 09 0A 0B 0C 0D 0E 0F
      -- -- -- -- -- -- -- --  -- -- -- -- -- -- -- --
0000: 32 00 80 00                                       2...            
```

#### Opcodes

```
  0: 0x0000 [0x32] ExtData[1]->MainSpeed = 7* * 0.1
  1: 0x0003 [0x00] END_REQSTACK()
```

### Event 14

#### Metadata

| Field        | Value    |
|--------------|----------|
| Entrypoint   | 0x0004   |
| Data Size    | 10 bytes |
| Instructions | 2        |

```
      00 01 02 03 04 05 06 07  08 09 0A 0B 0C 0D 0E 0F
      -- -- -- -- -- -- -- --  -- -- -- -- -- -- -- --
0000:             37 01 80 02  80 03 80 04 80 00            7.........  
```

#### Opcodes

```
  0: 0x0004 [0x37] UPDATE_EVENT_POSITION_AND_DIR: x=-33.921*, z=20.735*, y=7.499*, direction=145.4째*
  1: 0x000D [0x00] END_REQSTACK()
```

### Event 65535.1

#### Metadata

| Field        | Value    |
|--------------|----------|
| Entrypoint   | 0x000E   |
| Data Size    | 11 bytes |
| Instructions | 3        |

```
      00 01 02 03 04 05 06 07  08 09 0A 0B 0C 0D 0E 0F
      -- -- -- -- -- -- -- --  -- -- -- -- -- -- -- --
0000:                                            1F 00                ..
0010: 05 80 06 80 03 80 1F 01  00                       .........       
```

#### Opcodes

```
  0: 0x000E [0x1F] MOVE_ENTITY: EventEntity moves to X=-35.816*, Z=20.093*, Y=7.499*
  1: 0x0016 [0x1F] MOVE_ENTITY: Update entity position (mode=1)
  2: 0x0018 [0x00] END_REQSTACK()
```

### Event 65535.2

#### Metadata

| Field        | Value    |
|--------------|----------|
| Entrypoint   | 0x0019   |
| Data Size    | 12 bytes |
| Instructions | 4        |

```
      00 01 02 03 04 05 06 07  08 09 0A 0B 0C 0D 0E 0F
      -- -- -- -- -- -- -- --  -- -- -- -- -- -- -- --
0010:                             1F 00 07 80 06 80 08           .......
0020: 80 1F 01 6F 00                                    ...o.           
```

#### Opcodes

```
  0: 0x0019 [0x1F] MOVE_ENTITY: EventEntity moves to X=-70.142*, Z=20.093*, Y=8.750*
  1: 0x0021 [0x1F] MOVE_ENTITY: Update entity position (mode=1)
  2: 0x0023 [0x6F] WAIT_FRAME_DELAY: Yield until WaitTime reaches zero
  3: 0x0024 [0x00] END_REQSTACK()
```

### Event 65535.3

#### Metadata

| Field        | Value    |
|--------------|----------|
| Entrypoint   | 0x0025   |
| Data Size    | 29 bytes |
| Instructions | 3        |

```
      00 01 02 03 04 05 06 07  08 09 0A 0B 0C 0D 0E 0F
      -- -- -- -- -- -- -- --  -- -- -- -- -- -- -- --
0020:                5B 09 80  F8 FF FF 7F F8 FF FF 7F       [..........
0030: 73 65 69 30 53 F8 FF FF  7F F8 FF FF 7F 73 65 69  sei0S........sei
0040: 30 00                                             0.              
```

#### Opcodes

```
  0: 0x0025 [0x5B] LOAD_EXT_SCHEDULER: Load scheduler "sei0" with entities [EventEntity, EventEntity], work=132*
  1: 0x0034 [0x53] WAIT_SCHEDULER_TASK: Wait for scheduler "sei0" with entities [EventEntity, EventEntity]
  2: 0x0041 [0x00] END_REQSTACK()
```

### Event 65535.4

#### Metadata

| Field        | Value    |
|--------------|----------|
| Entrypoint   | 0x0042   |
| Data Size    | 29 bytes |
| Instructions | 3        |

```
      00 01 02 03 04 05 06 07  08 09 0A 0B 0C 0D 0E 0F
      -- -- -- -- -- -- -- --  -- -- -- -- -- -- -- --
0040:       5B 09 80 F8 FF FF  7F F8 FF FF 7F 73 65 69    [..........sei
0050: 31 53 F8 FF FF 7F F8 FF  FF 7F 73 65 69 31 00     1S........sei1. 
```

#### Opcodes

```
  0: 0x0042 [0x5B] LOAD_EXT_SCHEDULER: Load scheduler "sei1" with entities [EventEntity, EventEntity], work=132*
  1: 0x0051 [0x53] WAIT_SCHEDULER_TASK: Wait for scheduler "sei1" with entities [EventEntity, EventEntity]
  2: 0x005E [0x00] END_REQSTACK()
```

### Event 65535.5

#### Metadata

| Field        | Value    |
|--------------|----------|
| Entrypoint   | 0x005F   |
| Data Size    | 29 bytes |
| Instructions | 3        |

```
      00 01 02 03 04 05 06 07  08 09 0A 0B 0C 0D 0E 0F
      -- -- -- -- -- -- -- --  -- -- -- -- -- -- -- --
0050:                                               5B                 [
0060: 09 80 F8 FF FF 7F F8 FF  FF 7F 73 65 69 32 53 F8  ..........sei2S.
0070: FF FF 7F F8 FF FF 7F 73  65 69 32 00              .......sei2.    
```

#### Opcodes

```
  0: 0x005F [0x5B] LOAD_EXT_SCHEDULER: Load scheduler "sei2" with entities [EventEntity, EventEntity], work=132*
  1: 0x006E [0x53] WAIT_SCHEDULER_TASK: Wait for scheduler "sei2" with entities [EventEntity, EventEntity]
  2: 0x007B [0x00] END_REQSTACK()
```

### Event 65535.6

#### Metadata

| Field        | Value    |
|--------------|----------|
| Entrypoint   | 0x007C   |
| Data Size    | 23 bytes |
| Instructions | 5        |

```
      00 01 02 03 04 05 06 07  08 09 0A 0B 0C 0D 0E 0F
      -- -- -- -- -- -- -- --  -- -- -- -- -- -- -- --
0070:                                      1F 00 0A 80              ....
0080: 0B 80 03 80 1F 01 31 00  0C 80 0D 80 0E 80 0F 80  ......1.........
0090: 31 01 00                                          1..             
```

#### Opcodes

```
  0: 0x007C [0x1F] MOVE_ENTITY: EventEntity moves to X=-37.696*, Z=19.885*, Y=7.499*
  1: 0x0084 [0x1F] MOVE_ENTITY: Update entity position (mode=1)
  2: 0x0086 [0x31] UPDATE_ENTITY_POSITION: Set EventEntity goal position to X=-43.414*, Z=20.011*, Y=8.249*, Time=120*
  3: 0x0090 [0x31] UPDATE_ENTITY_POSITION: Move EventEntity towards goal position
  4: 0x0092 [0x00] END_REQSTACK()
```

### Event 5

#### Metadata

| Field        | Value    |
|--------------|----------|
| Entrypoint   | 0x0093   |
| Data Size    | 10 bytes |
| Instructions | 2        |

```
      00 01 02 03 04 05 06 07  08 09 0A 0B 0C 0D 0E 0F
      -- -- -- -- -- -- -- --  -- -- -- -- -- -- -- --
0090:          37 01 80 02 80  03 80 04 80 00              7.........   
```

#### Opcodes

```
  0: 0x0093 [0x37] UPDATE_EVENT_POSITION_AND_DIR: x=-33.921*, z=20.735*, y=7.499*, direction=145.4째*
  1: 0x009C [0x00] END_REQSTACK()
```

### Event 65535.7

#### Metadata

| Field        | Value    |
|--------------|----------|
| Entrypoint   | 0x009D   |
| Data Size    | 11 bytes |
| Instructions | 3        |

```
      00 01 02 03 04 05 06 07  08 09 0A 0B 0C 0D 0E 0F
      -- -- -- -- -- -- -- --  -- -- -- -- -- -- -- --
0090:                                         1F 00 05               ...
00A0: 80 10 80 03 80 1F 01 00                           ........        
```

#### Opcodes

```
  0: 0x009D [0x1F] MOVE_ENTITY: EventEntity moves to X=-35.816*, Z=20.352*, Y=7.499*
  1: 0x00A5 [0x1F] MOVE_ENTITY: Update entity position (mode=1)
  2: 0x00A7 [0x00] END_REQSTACK()
```

### Event 65535.8

#### Metadata

| Field        | Value    |
|--------------|----------|
| Entrypoint   | 0x00A8   |
| Data Size    | 23 bytes |
| Instructions | 5        |

```
      00 01 02 03 04 05 06 07  08 09 0A 0B 0C 0D 0E 0F
      -- -- -- -- -- -- -- --  -- -- -- -- -- -- -- --
00A0:                          1F 00 0A 80 0B 80 03 80          ........
00B0: 1F 01 31 00 0C 80 0D 80  0E 80 11 80 31 01 00     ..1.........1.. 
```

#### Opcodes

```
  0: 0x00A8 [0x1F] MOVE_ENTITY: EventEntity moves to X=-37.696*, Z=19.885*, Y=7.499*
  1: 0x00B0 [0x1F] MOVE_ENTITY: Update entity position (mode=1)
  2: 0x00B2 [0x31] UPDATE_ENTITY_POSITION: Set EventEntity goal position to X=-43.414*, Z=20.011*, Y=8.249*, Time=60*
  3: 0x00BC [0x31] UPDATE_ENTITY_POSITION: Move EventEntity towards goal position
  4: 0x00BE [0x00] END_REQSTACK()
```

### Event 65535.9

#### Metadata

| Field        | Value    |
|--------------|----------|
| Entrypoint   | 0x00BF   |
| Data Size    | 11 bytes |
| Instructions | 3        |

```
      00 01 02 03 04 05 06 07  08 09 0A 0B 0C 0D 0E 0F
      -- -- -- -- -- -- -- --  -- -- -- -- -- -- -- --
00B0:                                               84                 .
00C0: 37 12 80 13 80 14 80 15  80 00                    7.........      
```

#### Opcodes

```
  0: 0x00BF [0x84] ADJUST_RENDER_FLAGS3_BIT0()
  1: 0x00C0 [0x37] UPDATE_EVENT_POSITION_AND_DIR: x=-69.174*, z=20.056*, y=8.999*, direction=182.9째*
  2: 0x00C9 [0x00] END_REQSTACK()
```

### Event 65535.10

#### Metadata

| Field        | Value    |
|--------------|----------|
| Entrypoint   | 0x00CA   |
| Data Size    | 11 bytes |
| Instructions | 3        |

```
      00 01 02 03 04 05 06 07  08 09 0A 0B 0C 0D 0E 0F
      -- -- -- -- -- -- -- --  -- -- -- -- -- -- -- --
00C0:                                1F 00 16 80 17 80            ......
00D0: 08 80 1F 01 00                                    .....           
```

#### Opcodes

```
  0: 0x00CA [0x1F] MOVE_ENTITY: EventEntity moves to X=-71.782*, Z=20.139*, Y=8.750*
  1: 0x00D2 [0x1F] MOVE_ENTITY: Update entity position (mode=1)
  2: 0x00D4 [0x00] END_REQSTACK()
```

### Event 65535.11

#### Metadata

| Field        | Value    |
|--------------|----------|
| Entrypoint   | 0x00D5   |
| Data Size    | 19 bytes |
| Instructions | 3        |

```
      00 01 02 03 04 05 06 07  08 09 0A 0B 0C 0D 0E 0F
      -- -- -- -- -- -- -- --  -- -- -- -- -- -- -- --
00D0:                5B 18 80  F8 FF FF 7F F8 FF FF 7F       [..........
00E0: 74 6C 6B 30 1C 11 80 00                           tlk0....        
```

#### Opcodes

```
  0: 0x00D5 [0x5B] LOAD_EXT_SCHEDULER: Load scheduler "tlk0" with entities [EventEntity, EventEntity], work=130*
  1: 0x00E4 [0x1C] WAIT(60* ticks)
  2: 0x00E7 [0x00] END_REQSTACK()
```

### Event 65535.12

#### Metadata

| Field        | Value    |
|--------------|----------|
| Entrypoint   | 0x00E8   |
| Data Size    | 29 bytes |
| Instructions | 3        |

```
      00 01 02 03 04 05 06 07  08 09 0A 0B 0C 0D 0E 0F
      -- -- -- -- -- -- -- --  -- -- -- -- -- -- -- --
00E0:                          5B 18 80 F8 FF FF 7F F8          [.......
00F0: FF FF 7F 74 6C 6B 31 53  F8 FF FF 7F F8 FF FF 7F  ...tlk1S........
0100: 74 6C 6B 31 00                                    tlk1.           
```

#### Opcodes

```
  0: 0x00E8 [0x5B] LOAD_EXT_SCHEDULER: Load scheduler "tlk1" with entities [EventEntity, EventEntity], work=130*
  1: 0x00F7 [0x53] WAIT_SCHEDULER_TASK: Wait for scheduler "tlk1" with entities [EventEntity, EventEntity]
  2: 0x0104 [0x00] END_REQSTACK()
```

### Event 65535.13

#### Metadata

| Field        | Value    |
|--------------|----------|
| Entrypoint   | 0x0105   |
| Data Size    | 23 bytes |
| Instructions | 6        |

```
      00 01 02 03 04 05 06 07  08 09 0A 0B 0C 0D 0E 0F
      -- -- -- -- -- -- -- --  -- -- -- -- -- -- -- --
0100:                02 00 00  19 80 05 1B 01 39 00 00       ........9..
0110: 07 00 00 1A 80 1C 1B 80  01 05 01 00              ............    
```

#### Opcodes

```
  0: 0x0105 [0x02] IF !(ExtData[1]->WorkLocal[0] > 2048*) GOTO 0x011B
  1: 0x010D [0x39] SET_ENTITY_DIRECTION(direction=ExtData[1]->WorkLocal[0])
  2: 0x0110 [0x07] ExtData[1]->WorkLocal[0] += 128*
  3: 0x0115 [0x1C] WAIT(1* ticks)
  4: 0x0118 [0x01] GOTO 0x0105
  5: 0x011B [0x00] END_REQSTACK()
```

### Event 65535.14

#### Metadata

| Field        | Value    |
|--------------|----------|
| Entrypoint   | 0x011C   |
| Data Size    | 11 bytes |
| Instructions | 3        |

```
      00 01 02 03 04 05 06 07  08 09 0A 0B 0C 0D 0E 0F
      -- -- -- -- -- -- -- --  -- -- -- -- -- -- -- --
0110:                                      84 37 1C 80              .7..
0120: 1D 80 1E 80 1F 80 00                              .......         
```

#### Opcodes

```
  0: 0x011C [0x84] ADJUST_RENDER_FLAGS3_BIT0()
  1: 0x011D [0x37] UPDATE_EVENT_POSITION_AND_DIR: x=-40.818*, z=20.003*, y=7.999*, direction=358.0째*
  2: 0x0126 [0x00] END_REQSTACK()
```

### Event 65535.15

#### Metadata

| Field        | Value    |
|--------------|----------|
| Entrypoint   | 0x0127   |
| Data Size    | 22 bytes |
| Instructions | 8        |

```
      00 01 02 03 04 05 06 07  08 09 0A 0B 0C 0D 0E 0F
      -- -- -- -- -- -- -- --  -- -- -- -- -- -- -- --
0120:                      32  00 80 1F 00 20 80 21 80         2.... .!.
0130: 03 80 1F 01 6F 1E F0 FF  FF 7F 6F 70 00           ....o.....op.   
```

#### Opcodes

```
  0: 0x0127 [0x32] ExtData[1]->MainSpeed = 7* * 0.1
  1: 0x012A [0x1F] MOVE_ENTITY: EventEntity moves to X=-37.525*, Z=19.949*, Y=7.499*
  2: 0x0132 [0x1F] MOVE_ENTITY: Update entity position (mode=1)
  3: 0x0134 [0x6F] WAIT_FRAME_DELAY: Yield until WaitTime reaches zero
  4: 0x0135 [0x1E] EventEntity looks at LocalPlayer and starts talking
  5: 0x013A [0x6F] WAIT_FRAME_DELAY: Yield until WaitTime reaches zero
  6: 0x013B [0x70] WAIT_ENTITY_RENDER_FLAG: Wait while EventEntity->Render.Flags3 bit 2 is set (cancel turn if not)
  7: 0x013C [0x00] END_REQSTACK()
```

### Event 65535.16

#### Metadata

| Field        | Value    |
|--------------|----------|
| Entrypoint   | 0x013D   |
| Data Size    | 16 bytes |
| Instructions | 4        |

```
      00 01 02 03 04 05 06 07  08 09 0A 0B 0C 0D 0E 0F
      -- -- -- -- -- -- -- --  -- -- -- -- -- -- -- --
0130:                                         7B F8 FF               {..
0140: FF 7F 1F 00 22 80 23 80  24 80 1F 01 00           ....".#.$....   
```

#### Opcodes

```
  0: 0x013D [0x7B] EventEntity stops talking
  1: 0x0142 [0x1F] MOVE_ENTITY: EventEntity moves to X=-31.235*, Z=20.770*, Y=7.490*
  2: 0x014A [0x1F] MOVE_ENTITY: Update entity position (mode=1)
  3: 0x014C [0x00] END_REQSTACK()
```
