# 17555997 - Trion

## Common Data

| Field            | Value                          |
|------------------|--------------------------------|
| Zone             | King Ranperre's Tomb (ID: 190) |
| Block Size       | 328 bytes                      |
| Total Events     | 11                             |
| References Count | 27                             |

## List of Events

| Event ID                 | Entrypoint   |   Size |   Instructions |
|--------------------------|--------------|--------|----------------|
| [65535](#event-65535)    | 0x0000       |      1 |              1 |
| [14](#event-14)          | 0x0001       |     10 |              2 |
| [65535.1](#event-655351) | 0x000B       |     20 |              6 |
| [5](#event-5)            | 0x001F       |     10 |              2 |
| [65535.2](#event-655352) | 0x0029       |     20 |              6 |
| [65535.3](#event-655353) | 0x003D       |     23 |              5 |
| [65535.4](#event-655354) | 0x0054       |     10 |              2 |
| [65535.5](#event-655355) | 0x005E       |     10 |              2 |
| [65535.6](#event-655356) | 0x0068       |     23 |              7 |
| [65535.7](#event-655357) | 0x007F       |     19 |              7 |
| [65535.8](#event-655358) | 0x0092       |     14 |              4 |

## DAT References (imed_data)

|   Index | Hex Value   |   Dec Value |
|---------|-------------|-------------|
|       0 | 0xFFFF8054  |  4294934612 |
|       1 | 0x597F      |       22911 |
|       2 | 0x1D4B      |        7499 |
|       3 | 0x0586      |        1414 |
|       4 | 0x000D      |          13 |
|       5 | 0xFFFF7B7F  |  4294933375 |
|       6 | 0x50FF      |       20735 |
|       7 | 0xFFFF6CC0  |  4294929600 |
|       8 | 0x4DAD      |       19885 |
|       9 | 0xFFFF566A  |  4294923882 |
|      10 | 0x4E2B      |       20011 |
|      11 | 0x2039      |        8249 |
|      12 | 0x003C      |          60 |
|      13 | 0xFFFEFE00  |  4294901248 |
|      14 | 0x4E4C      |       20044 |
|      15 | 0x2327      |        8999 |
|      16 | 0x07E9      |        2025 |
|      17 | 0xFFFF5C45  |  4294925381 |
|      18 | 0x4AEE      |       19182 |
|      19 | 0x1F40      |        8000 |
|      20 | 0x0FF9      |        4089 |
|      21 | 0xFFFF691C  |  4294928668 |
|      22 | 0x4B15      |       19221 |
|      23 | 0xFFFF6BC9  |  4294929353 |
|      24 | 0x4B53      |       19283 |
|      25 | 0x0007      |           7 |
|      26 | 0xFFFF78F9  |  4294932729 |

## Events

### Event 65535

#### Metadata

| Field        | Value   |
|--------------|---------|
| Entrypoint   | 0x0000  |
| Data Size    | 1 bytes |
| Instructions | 1       |

```
      00 01 02 03 04 05 06 07  08 09 0A 0B 0C 0D 0E 0F
      -- -- -- -- -- -- -- --  -- -- -- -- -- -- -- --
0000: 00                                                .               
```

#### Opcodes

```
  0: 0x0000 [0x00] END_REQSTACK()
```

### Event 14

#### Metadata

| Field        | Value    |
|--------------|----------|
| Entrypoint   | 0x0001   |
| Data Size    | 10 bytes |
| Instructions | 2        |

```
      00 01 02 03 04 05 06 07  08 09 0A 0B 0C 0D 0E 0F
      -- -- -- -- -- -- -- --  -- -- -- -- -- -- -- --
0000:    37 00 80 01 80 02 80  03 80 00                  7.........     
```

#### Opcodes

```
  0: 0x0001 [0x37] UPDATE_EVENT_POSITION_AND_DIR: x=-32.684*, z=22.911*, y=7.499*, direction=124.3째*
  1: 0x000A [0x00] END_REQSTACK()
```

### Event 65535.1

#### Metadata

| Field        | Value    |
|--------------|----------|
| Entrypoint   | 0x000B   |
| Data Size    | 20 bytes |
| Instructions | 6        |

```
      00 01 02 03 04 05 06 07  08 09 0A 0B 0C 0D 0E 0F
      -- -- -- -- -- -- -- --  -- -- -- -- -- -- -- --
0000:                                   32 04 80 1F 00             2....
0010: 05 80 06 80 02 80 1F 01  6F 1E 1B E2 0B 01 00     ........o...... 
```

#### Opcodes

```
  0: 0x000B [0x32] ExtData[1]->MainSpeed = 13* * 0.1
  1: 0x000E [0x1F] MOVE_ENTITY: EventEntity moves to X=-33.921*, Z=20.735*, Y=7.499*
  2: 0x0016 [0x1F] MOVE_ENTITY: Update entity position (mode=1)
  3: 0x0018 [0x6F] WAIT_FRAME_DELAY: Yield until WaitTime reaches zero
  4: 0x0019 [0x1E] EventEntity looks at Destin (ID: 17555995/0x010BE21B) and starts talking
  5: 0x001E [0x00] END_REQSTACK()
```

### Event 5

#### Metadata

| Field        | Value    |
|--------------|----------|
| Entrypoint   | 0x001F   |
| Data Size    | 10 bytes |
| Instructions | 2        |

```
      00 01 02 03 04 05 06 07  08 09 0A 0B 0C 0D 0E 0F
      -- -- -- -- -- -- -- --  -- -- -- -- -- -- -- --
0010:                                               37                 7
0020: 00 80 01 80 02 80 03 80  00                       .........       
```

#### Opcodes

```
  0: 0x001F [0x37] UPDATE_EVENT_POSITION_AND_DIR: x=-32.684*, z=22.911*, y=7.499*, direction=124.3째*
  1: 0x0028 [0x00] END_REQSTACK()
```

### Event 65535.2

#### Metadata

| Field        | Value    |
|--------------|----------|
| Entrypoint   | 0x0029   |
| Data Size    | 20 bytes |
| Instructions | 6        |

```
      00 01 02 03 04 05 06 07  08 09 0A 0B 0C 0D 0E 0F
      -- -- -- -- -- -- -- --  -- -- -- -- -- -- -- --
0020:                             32 04 80 1F 00 05 80           2......
0030: 06 80 02 80 1F 01 6F 1E  1B E2 0B 01 00           ......o......   
```

#### Opcodes

```
  0: 0x0029 [0x32] ExtData[1]->MainSpeed = 13* * 0.1
  1: 0x002C [0x1F] MOVE_ENTITY: EventEntity moves to X=-33.921*, Z=20.735*, Y=7.499*
  2: 0x0034 [0x1F] MOVE_ENTITY: Update entity position (mode=1)
  3: 0x0036 [0x6F] WAIT_FRAME_DELAY: Yield until WaitTime reaches zero
  4: 0x0037 [0x1E] EventEntity looks at Destin (ID: 17555995/0x010BE21B) and starts talking
  5: 0x003C [0x00] END_REQSTACK()
```

### Event 65535.3

#### Metadata

| Field        | Value    |
|--------------|----------|
| Entrypoint   | 0x003D   |
| Data Size    | 23 bytes |
| Instructions | 5        |

```
      00 01 02 03 04 05 06 07  08 09 0A 0B 0C 0D 0E 0F
      -- -- -- -- -- -- -- --  -- -- -- -- -- -- -- --
0030:                                         1F 00 07               ...
0040: 80 08 80 02 80 1F 01 31  00 09 80 0A 80 0B 80 0C  .......1........
0050: 80 31 01 00                                       .1..            
```

#### Opcodes

```
  0: 0x003D [0x1F] MOVE_ENTITY: EventEntity moves to X=-37.696*, Z=19.885*, Y=7.499*
  1: 0x0045 [0x1F] MOVE_ENTITY: Update entity position (mode=1)
  2: 0x0047 [0x31] UPDATE_ENTITY_POSITION: Set EventEntity goal position to X=-43.414*, Z=20.011*, Y=8.249*, Time=60*
  3: 0x0051 [0x31] UPDATE_ENTITY_POSITION: Move EventEntity towards goal position
  4: 0x0053 [0x00] END_REQSTACK()
```

### Event 65535.4

#### Metadata

| Field        | Value    |
|--------------|----------|
| Entrypoint   | 0x0054   |
| Data Size    | 10 bytes |
| Instructions | 2        |

```
      00 01 02 03 04 05 06 07  08 09 0A 0B 0C 0D 0E 0F
      -- -- -- -- -- -- -- --  -- -- -- -- -- -- -- --
0050:             37 0D 80 0E  80 0F 80 10 80 00            7.........  
```

#### Opcodes

```
  0: 0x0054 [0x37] UPDATE_EVENT_POSITION_AND_DIR: x=-66.048*, z=20.044*, y=8.999*, direction=178.0째*
  1: 0x005D [0x00] END_REQSTACK()
```

### Event 65535.5

#### Metadata

| Field        | Value    |
|--------------|----------|
| Entrypoint   | 0x005E   |
| Data Size    | 10 bytes |
| Instructions | 2        |

```
      00 01 02 03 04 05 06 07  08 09 0A 0B 0C 0D 0E 0F
      -- -- -- -- -- -- -- --  -- -- -- -- -- -- -- --
0050:                                            37 11                7.
0060: 80 12 80 13 80 14 80 00                           ........        
```

#### Opcodes

```
  0: 0x005E [0x37] UPDATE_EVENT_POSITION_AND_DIR: x=-41.915*, z=19.182*, y=8.000*, direction=359.4째*
  1: 0x0067 [0x00] END_REQSTACK()
```

### Event 65535.6

#### Metadata

| Field        | Value    |
|--------------|----------|
| Entrypoint   | 0x0068   |
| Data Size    | 23 bytes |
| Instructions | 7        |

```
      00 01 02 03 04 05 06 07  08 09 0A 0B 0C 0D 0E 0F
      -- -- -- -- -- -- -- --  -- -- -- -- -- -- -- --
0060:                          1C 0C 80 32 04 80 1F 00          ...2....
0070: 15 80 16 80 02 80 1F 01  6F 1E F0 FF FF 7F 00     ........o...... 
```

#### Opcodes

```
  0: 0x0068 [0x1C] WAIT(60* ticks)
  1: 0x006B [0x32] ExtData[1]->MainSpeed = 13* * 0.1
  2: 0x006E [0x1F] MOVE_ENTITY: EventEntity moves to X=-38.628*, Z=19.221*, Y=7.499*
  3: 0x0076 [0x1F] MOVE_ENTITY: Update entity position (mode=1)
  4: 0x0078 [0x6F] WAIT_FRAME_DELAY: Yield until WaitTime reaches zero
  5: 0x0079 [0x1E] EventEntity looks at LocalPlayer and starts talking
  6: 0x007E [0x00] END_REQSTACK()
```

### Event 65535.7

#### Metadata

| Field        | Value    |
|--------------|----------|
| Entrypoint   | 0x007F   |
| Data Size    | 19 bytes |
| Instructions | 7        |

```
      00 01 02 03 04 05 06 07  08 09 0A 0B 0C 0D 0E 0F
      -- -- -- -- -- -- -- --  -- -- -- -- -- -- -- --
0070:                                               1F                 .
0080: 00 17 80 18 80 02 80 1F  01 6F 1E F0 FF FF 7F 6F  .........o.....o
0090: 70 00                                             p.              
```

#### Opcodes

```
  0: 0x007F [0x1F] MOVE_ENTITY: EventEntity moves to X=-37.943*, Z=19.283*, Y=7.499*
  1: 0x0087 [0x1F] MOVE_ENTITY: Update entity position (mode=1)
  2: 0x0089 [0x6F] WAIT_FRAME_DELAY: Yield until WaitTime reaches zero
  3: 0x008A [0x1E] EventEntity looks at LocalPlayer and starts talking
  4: 0x008F [0x6F] WAIT_FRAME_DELAY: Yield until WaitTime reaches zero
  5: 0x0090 [0x70] WAIT_ENTITY_RENDER_FLAG: Wait while EventEntity->Render.Flags3 bit 2 is set (cancel turn if not)
  6: 0x0091 [0x00] END_REQSTACK()
```

### Event 65535.8

#### Metadata

| Field        | Value    |
|--------------|----------|
| Entrypoint   | 0x0092   |
| Data Size    | 14 bytes |
| Instructions | 4        |

```
      00 01 02 03 04 05 06 07  08 09 0A 0B 0C 0D 0E 0F
      -- -- -- -- -- -- -- --  -- -- -- -- -- -- -- --
0090:       32 19 80 1F 00 1A  80 16 80 02 80 1F 01 00    2.............
```

#### Opcodes

```
  0: 0x0092 [0x32] ExtData[1]->MainSpeed = 7* * 0.1
  1: 0x0095 [0x1F] MOVE_ENTITY: EventEntity moves to X=-34.567*, Z=19.221*, Y=7.499*
  2: 0x009D [0x1F] MOVE_ENTITY: Update entity position (mode=1)
  3: 0x009F [0x00] END_REQSTACK()
```
