# 17556000 - Curilla

## Common Data

| Field            | Value                          |
|------------------|--------------------------------|
| Zone             | King Ranperre's Tomb (ID: 190) |
| Block Size       | 392 bytes                      |
| Total Events     | 11                             |
| References Count | 31                             |

## List of Events

| Event ID                 | Entrypoint   |   Size |   Instructions |
|--------------------------|--------------|--------|----------------|
| [65535](#event-65535)    | 0x0000       |      6 |              2 |
| [14](#event-14)          | 0x0006       |     10 |              2 |
| [65535.1](#event-655351) | 0x0010       |     20 |              6 |
| [5](#event-5)            | 0x0024       |     10 |              2 |
| [65535.2](#event-655352) | 0x002E       |     18 |              6 |
| [65535.3](#event-655353) | 0x0040       |     10 |              2 |
| [65535.4](#event-655354) | 0x004A       |     48 |             12 |
| [65535.5](#event-655355) | 0x007A       |     18 |              6 |
| [65535.6](#event-655356) | 0x008C       |     29 |              3 |
| [65535.7](#event-655357) | 0x00A9       |     29 |              3 |
| [65535.8](#event-655358) | 0x00C6       |     10 |              2 |

## DAT References (imed_data)

|   Index | Hex Value   |   Dec Value |
|---------|-------------|-------------|
|       0 | 0xFFFF8F89  |  4294938505 |
|       1 | 0x6622      |       26146 |
|       2 | 0x1CD9      |        7385 |
|       3 | 0x058C      |        1420 |
|       4 | 0x000D      |          13 |
|       5 | 0xFFFF8754  |  4294936404 |
|       6 | 0x5950      |       22864 |
|       7 | 0x1D4B      |        7499 |
|       8 | 0x0E1E      |        3614 |
|       9 | 0xFFFF16A6  |  4294907558 |
|      10 | 0x587A      |       22650 |
|      11 | 0x2327      |        8999 |
|      12 | 0x07B4      |        1972 |
|      13 | 0x001E      |          30 |
|      14 | 0x0028      |          40 |
|      15 | 0xFFFF41BD  |  4294918589 |
|      16 | 0x5485      |       21637 |
|      17 | 0xFFFF5D18  |  4294925592 |
|      18 | 0x4E14      |       19988 |
|      19 | 0x1F40      |        8000 |
|      20 | 0xFFFF7077  |  4294930551 |
|      21 | 0x48E8      |       18664 |
|      22 | 0xFFFF55EE  |  4294923758 |
|      23 | 0x4E27      |       20007 |
|      24 | 0x2039      |        8249 |
|      25 | 0x07E8      |        2024 |
|      26 | 0x008C      |         140 |
|      27 | 0xFFFF4F3F  |  4294922047 |
|      28 | 0x4E52      |       20050 |
|      29 | 0x2133      |        8499 |
|      30 | 0x0815      |        2069 |

## Events

### Event 65535

#### Metadata

| Field        | Value   |
|--------------|---------|
| Entrypoint   | 0x0000  |
| Data Size    | 6 bytes |
| Instructions | 2       |

```
      00 01 02 03 04 05 06 07  08 09 0A 0B 0C 0D 0E 0F
      -- -- -- -- -- -- -- --  -- -- -- -- -- -- -- --
0000: 5E 64 66 74 30 00                                 ^dft0.          
```

#### Opcodes

```
  0: 0x0000 [0x5E] EventEntity goes idle (kills current action) (animation: "dft0")
  1: 0x0005 [0x00] END_REQSTACK()
```

### Event 14

#### Metadata

| Field        | Value    |
|--------------|----------|
| Entrypoint   | 0x0006   |
| Data Size    | 10 bytes |
| Instructions | 2        |

```
      00 01 02 03 04 05 06 07  08 09 0A 0B 0C 0D 0E 0F
      -- -- -- -- -- -- -- --  -- -- -- -- -- -- -- --
0000:                   37 00  80 01 80 02 80 03 80 00        7.........
```

#### Opcodes

```
  0: 0x0006 [0x37] UPDATE_EVENT_POSITION_AND_DIR: x=-28.791*, z=26.146*, y=7.385*, direction=124.8°*
  1: 0x000F [0x00] END_REQSTACK()
```

### Event 65535.1

#### Metadata

| Field        | Value    |
|--------------|----------|
| Entrypoint   | 0x0010   |
| Data Size    | 20 bytes |
| Instructions | 6        |

```
      00 01 02 03 04 05 06 07  08 09 0A 0B 0C 0D 0E 0F
      -- -- -- -- -- -- -- --  -- -- -- -- -- -- -- --
0010: 32 04 80 1F 00 05 80 06  80 07 80 1F 01 6F 1E 1B  2............o..
0020: E2 0B 01 00                                       ....            
```

#### Opcodes

```
  0: 0x0010 [0x32] ExtData[1]->MainSpeed = 13* * 0.1
  1: 0x0013 [0x1F] MOVE_ENTITY: EventEntity moves to X=-30.892*, Z=22.864*, Y=7.499*
  2: 0x001B [0x1F] MOVE_ENTITY: Update entity position (mode=1)
  3: 0x001D [0x6F] WAIT_FRAME_DELAY: Yield until WaitTime reaches zero
  4: 0x001E [0x1E] EventEntity looks at Destin (ID: 17555995/0x010BE21B) and starts talking
  5: 0x0023 [0x00] END_REQSTACK()
```

### Event 5

#### Metadata

| Field        | Value    |
|--------------|----------|
| Entrypoint   | 0x0024   |
| Data Size    | 10 bytes |
| Instructions | 2        |

```
      00 01 02 03 04 05 06 07  08 09 0A 0B 0C 0D 0E 0F
      -- -- -- -- -- -- -- --  -- -- -- -- -- -- -- --
0020:             37 00 80 01  80 02 80 03 80 00            7.........  
```

#### Opcodes

```
  0: 0x0024 [0x37] UPDATE_EVENT_POSITION_AND_DIR: x=-28.791*, z=26.146*, y=7.385*, direction=124.8°*
  1: 0x002D [0x00] END_REQSTACK()
```

### Event 65535.2

#### Metadata

| Field        | Value    |
|--------------|----------|
| Entrypoint   | 0x002E   |
| Data Size    | 18 bytes |
| Instructions | 6        |

```
      00 01 02 03 04 05 06 07  08 09 0A 0B 0C 0D 0E 0F
      -- -- -- -- -- -- -- --  -- -- -- -- -- -- -- --
0020:                                            32 04                2.
0030: 80 1F 00 05 80 06 80 07  80 1F 01 6F 39 08 80 00  ...........o9...
```

#### Opcodes

```
  0: 0x002E [0x32] ExtData[1]->MainSpeed = 13* * 0.1
  1: 0x0031 [0x1F] MOVE_ENTITY: EventEntity moves to X=-30.892*, Z=22.864*, Y=7.499*
  2: 0x0039 [0x1F] MOVE_ENTITY: Update entity position (mode=1)
  3: 0x003B [0x6F] WAIT_FRAME_DELAY: Yield until WaitTime reaches zero
  4: 0x003C [0x39] SET_ENTITY_DIRECTION(direction=19.9°*)
  5: 0x003F [0x00] END_REQSTACK()
```

### Event 65535.3

#### Metadata

| Field        | Value    |
|--------------|----------|
| Entrypoint   | 0x0040   |
| Data Size    | 10 bytes |
| Instructions | 2        |

```
      00 01 02 03 04 05 06 07  08 09 0A 0B 0C 0D 0E 0F
      -- -- -- -- -- -- -- --  -- -- -- -- -- -- -- --
0040: 37 09 80 0A 80 0B 80 0C  80 00                    7.........      
```

#### Opcodes

```
  0: 0x0040 [0x37] UPDATE_EVENT_POSITION_AND_DIR: x=-59.738*, z=22.650*, y=8.999*, direction=173.3°*
  1: 0x0049 [0x00] END_REQSTACK()
```

### Event 65535.4

#### Metadata

| Field        | Value    |
|--------------|----------|
| Entrypoint   | 0x004A   |
| Data Size    | 48 bytes |
| Instructions | 12       |

```
      00 01 02 03 04 05 06 07  08 09 0A 0B 0C 0D 0E 0F
      -- -- -- -- -- -- -- --  -- -- -- -- -- -- -- --
0040:                                7B F8 FF FF 7F 1C            {.....
0050: 0D 80 32 0E 80 1F 00 0F  80 10 80 0B 80 1F 01 1F  ..2.............
0060: 00 11 80 12 80 13 80 1F  01 1F 00 14 80 15 80 07  ................
0070: 80 1F 01 6F 1E 21 E2 0B  01 00                    ...o.!....      
```

#### Opcodes

```
  0: 0x004A [0x7B] EventEntity stops talking
  1: 0x004F [0x1C] WAIT(30* ticks)
  2: 0x0052 [0x32] ExtData[1]->MainSpeed = 40* * 0.1
  3: 0x0055 [0x1F] MOVE_ENTITY: EventEntity moves to X=-48.707*, Z=21.637*, Y=8.999*
  4: 0x005D [0x1F] MOVE_ENTITY: Update entity position (mode=1)
  5: 0x005F [0x1F] MOVE_ENTITY: EventEntity moves to X=-41.704*, Z=19.988*, Y=8.000*
  6: 0x0067 [0x1F] MOVE_ENTITY: Update entity position (mode=1)
  7: 0x0069 [0x1F] MOVE_ENTITY: EventEntity moves to X=-36.745*, Z=18.664*, Y=7.499*
  8: 0x0071 [0x1F] MOVE_ENTITY: Update entity position (mode=1)
  9: 0x0073 [0x6F] WAIT_FRAME_DELAY: Yield until WaitTime reaches zero
 10: 0x0074 [0x1E] EventEntity looks at Rahal (ID: 17556001/0x010BE221) and starts talking
 11: 0x0079 [0x00] END_REQSTACK()
```

### Event 65535.5

#### Metadata

| Field        | Value    |
|--------------|----------|
| Entrypoint   | 0x007A   |
| Data Size    | 18 bytes |
| Instructions | 6        |

```
      00 01 02 03 04 05 06 07  08 09 0A 0B 0C 0D 0E 0F
      -- -- -- -- -- -- -- --  -- -- -- -- -- -- -- --
0070:                                32 04 80 1F 00 16            2.....
0080: 80 17 80 18 80 1F 01 6F  39 19 80 00              .......o9...    
```

#### Opcodes

```
  0: 0x007A [0x32] ExtData[1]->MainSpeed = 13* * 0.1
  1: 0x007D [0x1F] MOVE_ENTITY: EventEntity moves to X=-43.538*, Z=20.007*, Y=8.249*
  2: 0x0085 [0x1F] MOVE_ENTITY: Update entity position (mode=1)
  3: 0x0087 [0x6F] WAIT_FRAME_DELAY: Yield until WaitTime reaches zero
  4: 0x0088 [0x39] SET_ENTITY_DIRECTION(direction=11.1°*)
  5: 0x008B [0x00] END_REQSTACK()
```

### Event 65535.6

#### Metadata

| Field        | Value    |
|--------------|----------|
| Entrypoint   | 0x008C   |
| Data Size    | 29 bytes |
| Instructions | 3        |

```
      00 01 02 03 04 05 06 07  08 09 0A 0B 0C 0D 0E 0F
      -- -- -- -- -- -- -- --  -- -- -- -- -- -- -- --
0080:                                      5B 1A 80 F8              [...
0090: FF FF 7F F8 FF FF 7F 74  68 6B 31 53 F8 FF FF 7F  .......thk1S....
00A0: F8 FF FF 7F 74 68 6B 31  00                       ....thk1.       
```

#### Opcodes

```
  0: 0x008C [0x5B] LOAD_EXT_SCHEDULER: Load scheduler "thk1" with entities [EventEntity, EventEntity], work=140*
  1: 0x009B [0x53] WAIT_SCHEDULER_TASK: Wait for scheduler "thk1" with entities [EventEntity, EventEntity]
  2: 0x00A8 [0x00] END_REQSTACK()
```

### Event 65535.7

#### Metadata

| Field        | Value    |
|--------------|----------|
| Entrypoint   | 0x00A9   |
| Data Size    | 29 bytes |
| Instructions | 3        |

```
      00 01 02 03 04 05 06 07  08 09 0A 0B 0C 0D 0E 0F
      -- -- -- -- -- -- -- --  -- -- -- -- -- -- -- --
00A0:                             5B 1A 80 F8 FF FF 7F           [......
00B0: F8 FF FF 7F 74 68 6B 32  53 F8 FF FF 7F F8 FF FF  ....thk2S.......
00C0: 7F 74 68 6B 32 00                                 .thk2.          
```

#### Opcodes

```
  0: 0x00A9 [0x5B] LOAD_EXT_SCHEDULER: Load scheduler "thk2" with entities [EventEntity, EventEntity], work=140*
  1: 0x00B8 [0x53] WAIT_SCHEDULER_TASK: Wait for scheduler "thk2" with entities [EventEntity, EventEntity]
  2: 0x00C5 [0x00] END_REQSTACK()
```

### Event 65535.8

#### Metadata

| Field        | Value    |
|--------------|----------|
| Entrypoint   | 0x00C6   |
| Data Size    | 10 bytes |
| Instructions | 2        |

```
      00 01 02 03 04 05 06 07  08 09 0A 0B 0C 0D 0E 0F
      -- -- -- -- -- -- -- --  -- -- -- -- -- -- -- --
00C0:                   37 1B  80 1C 80 1D 80 1E 80 00        7.........
```

#### Opcodes

```
  0: 0x00C6 [0x37] UPDATE_EVENT_POSITION_AND_DIR: x=-45.249*, z=20.050*, y=8.499*, direction=181.8°*
  1: 0x00CF [0x00] END_REQSTACK()
```
