# 17556001 - Rahal

## Common Data

| Field            | Value                          |
|------------------|--------------------------------|
| Zone             | King Ranperre's Tomb (ID: 190) |
| Block Size       | 488 bytes                      |
| Total Events     | 14                             |
| References Count | 43                             |

## List of Events

| Event ID                   | Entrypoint   |   Size |   Instructions |
|----------------------------|--------------|--------|----------------|
| [65535](#event-65535)      | 0x0000       |      1 |              1 |
| [14](#event-14)            | 0x0001       |     10 |              2 |
| [65535.1](#event-655351)   | 0x000B       |     20 |              6 |
| [5](#event-5)              | 0x001F       |     10 |              2 |
| [65535.2](#event-655352)   | 0x0029       |     20 |              6 |
| [65535.3](#event-655353)   | 0x003D       |      7 |              3 |
| [65535.4](#event-655354)   | 0x0044       |     21 |              7 |
| [65535.5](#event-655355)   | 0x0059       |     13 |              3 |
| [65535.6](#event-655356)   | 0x0066       |     10 |              2 |
| [65535.7](#event-655357)   | 0x0070       |     49 |             13 |
| [65535.8](#event-655358)   | 0x00A1       |     29 |              3 |
| [65535.9](#event-655359)   | 0x00BE       |     29 |              3 |
| [65535.10](#event-6553510) | 0x00DB       |     10 |              2 |
| [65535.11](#event-6553511) | 0x00E5       |     14 |              4 |

## DAT References (imed_data)

|   Index | Hex Value   |   Dec Value |
|---------|-------------|-------------|
|       0 | 0xFFFF8DCC  |  4294938060 |
|       1 | 0x5380      |       21376 |
|       2 | 0x1DC4      |        7620 |
|       3 | 0x080D      |        2061 |
|       4 | 0x000D      |          13 |
|       5 | 0xFFFF854E  |  4294935886 |
|       6 | 0x4D3C      |       19772 |
|       7 | 0x1D4C      |        7500 |
|       8 | 0xFFFF7418  |  4294931480 |
|       9 | 0x4F80      |       20352 |
|      10 | 0x1D4B      |        7499 |
|      11 | 0x06DE      |        1758 |
|      12 | 0xFFFF6CC0  |  4294929600 |
|      13 | 0x4DAD      |       19885 |
|      14 | 0x0822      |        2082 |
|      15 | 0x005A      |          90 |
|      16 | 0xFFFF566A  |  4294923882 |
|      17 | 0x4E2B      |       20011 |
|      18 | 0x2039      |        8249 |
|      19 | 0x003C      |          60 |
|      20 | 0xFFFF3D99  |  4294917529 |
|      21 | 0x4E50      |       20048 |
|      22 | 0x2327      |        8999 |
|      23 | 0x0096      |         150 |
|      24 | 0xFFFF1E0A  |  4294909450 |
|      25 | 0x4757      |       18263 |
|      26 | 0x084A      |        2122 |
|      27 | 0x0028      |          40 |
|      28 | 0xFFFF4153  |  4294918483 |
|      29 | 0x4816      |       18454 |
|      30 | 0xFFFF5E4A  |  4294925898 |
|      31 | 0x4E5C      |       20060 |
|      32 | 0x1F40      |        8000 |
|      33 | 0xFFFF73B1  |  4294931377 |
|      34 | 0x5406      |       21510 |
|      35 | 0x0240      |         576 |
|      36 | 0x0E84      |        3716 |
|      37 | 0x001D      |          29 |
|      38 | 0xFFFF75D3  |  4294931923 |
|      39 | 0x4D62      |       19810 |
|      40 | 0x0803      |        2051 |
|      41 | 0xFFFF899F  |  4294936991 |
|      42 | 0x5304      |       21252 |

## Events

### Event 65535

#### Metadata

| Field        | Value   |
|--------------|---------|
| Entrypoint   | 0x0000  |
| Data Size    | 1 bytes |
| Instructions | 1       |

```
      00 01 02 03 04 05 06 07  08 09 0A 0B 0C 0D 0E 0F
      -- -- -- -- -- -- -- --  -- -- -- -- -- -- -- --
0000: 00                                                .               
```

#### Opcodes

```
  0: 0x0000 [0x00] END_REQSTACK()
```

### Event 14

#### Metadata

| Field        | Value    |
|--------------|----------|
| Entrypoint   | 0x0001   |
| Data Size    | 10 bytes |
| Instructions | 2        |

```
      00 01 02 03 04 05 06 07  08 09 0A 0B 0C 0D 0E 0F
      -- -- -- -- -- -- -- --  -- -- -- -- -- -- -- --
0000:    37 00 80 01 80 02 80  03 80 00                  7.........     
```

#### Opcodes

```
  0: 0x0001 [0x37] UPDATE_EVENT_POSITION_AND_DIR: x=-29.236*, z=21.376*, y=7.620*, direction=181.1°*
  1: 0x000A [0x00] END_REQSTACK()
```

### Event 65535.1

#### Metadata

| Field        | Value    |
|--------------|----------|
| Entrypoint   | 0x000B   |
| Data Size    | 20 bytes |
| Instructions | 6        |

```
      00 01 02 03 04 05 06 07  08 09 0A 0B 0C 0D 0E 0F
      -- -- -- -- -- -- -- --  -- -- -- -- -- -- -- --
0000:                                   32 04 80 1F 00             2....
0010: 05 80 06 80 07 80 1F 01  6F 1E 1B E2 0B 01 00     ........o...... 
```

#### Opcodes

```
  0: 0x000B [0x32] ExtData[1]->MainSpeed = 13* * 0.1
  1: 0x000E [0x1F] MOVE_ENTITY: EventEntity moves to X=-31.410*, Z=19.772*, Y=7.500*
  2: 0x0016 [0x1F] MOVE_ENTITY: Update entity position (mode=1)
  3: 0x0018 [0x6F] WAIT_FRAME_DELAY: Yield until WaitTime reaches zero
  4: 0x0019 [0x1E] EventEntity looks at Destin (ID: 17555995/0x010BE21B) and starts talking
  5: 0x001E [0x00] END_REQSTACK()
```

### Event 5

#### Metadata

| Field        | Value    |
|--------------|----------|
| Entrypoint   | 0x001F   |
| Data Size    | 10 bytes |
| Instructions | 2        |

```
      00 01 02 03 04 05 06 07  08 09 0A 0B 0C 0D 0E 0F
      -- -- -- -- -- -- -- --  -- -- -- -- -- -- -- --
0010:                                               37                 7
0020: 08 80 09 80 0A 80 0B 80  00                       .........       
```

#### Opcodes

```
  0: 0x001F [0x37] UPDATE_EVENT_POSITION_AND_DIR: x=-35.816*, z=20.352*, y=7.499*, direction=154.5°*
  1: 0x0028 [0x00] END_REQSTACK()
```

### Event 65535.2

#### Metadata

| Field        | Value    |
|--------------|----------|
| Entrypoint   | 0x0029   |
| Data Size    | 20 bytes |
| Instructions | 6        |

```
      00 01 02 03 04 05 06 07  08 09 0A 0B 0C 0D 0E 0F
      -- -- -- -- -- -- -- --  -- -- -- -- -- -- -- --
0020:                             32 04 80 1F 00 0C 80           2......
0030: 0D 80 0A 80 1F 01 6F 1E  1B E2 0B 01 00           ......o......   
```

#### Opcodes

```
  0: 0x0029 [0x32] ExtData[1]->MainSpeed = 13* * 0.1
  1: 0x002C [0x1F] MOVE_ENTITY: EventEntity moves to X=-37.696*, Z=19.885*, Y=7.499*
  2: 0x0034 [0x1F] MOVE_ENTITY: Update entity position (mode=1)
  3: 0x0036 [0x6F] WAIT_FRAME_DELAY: Yield until WaitTime reaches zero
  4: 0x0037 [0x1E] EventEntity looks at Destin (ID: 17555995/0x010BE21B) and starts talking
  5: 0x003C [0x00] END_REQSTACK()
```

### Event 65535.3

#### Metadata

| Field        | Value   |
|--------------|---------|
| Entrypoint   | 0x003D  |
| Data Size    | 7 bytes |
| Instructions | 3       |

```
      00 01 02 03 04 05 06 07  08 09 0A 0B 0C 0D 0E 0F
      -- -- -- -- -- -- -- --  -- -- -- -- -- -- -- --
0030:                                         39 0E 80               9..
0040: 1C 0F 80 00                                       ....            
```

#### Opcodes

```
  0: 0x003D [0x39] SET_ENTITY_DIRECTION(direction=11.4°*)
  1: 0x0040 [0x1C] WAIT(90* ticks)
  2: 0x0043 [0x00] END_REQSTACK()
```

### Event 65535.4

#### Metadata

| Field        | Value    |
|--------------|----------|
| Entrypoint   | 0x0044   |
| Data Size    | 21 bytes |
| Instructions | 7        |

```
      00 01 02 03 04 05 06 07  08 09 0A 0B 0C 0D 0E 0F
      -- -- -- -- -- -- -- --  -- -- -- -- -- -- -- --
0040:             1F 00 10 80  11 80 12 80 1F 01 1C 13      ............
0050: 80 1E 1B E2 0B 01 6F 70  00                       ......op.       
```

#### Opcodes

```
  0: 0x0044 [0x1F] MOVE_ENTITY: EventEntity moves to X=-43.414*, Z=20.011*, Y=8.249*
  1: 0x004C [0x1F] MOVE_ENTITY: Update entity position (mode=1)
  2: 0x004E [0x1C] WAIT(60* ticks)
  3: 0x0051 [0x1E] EventEntity looks at Destin (ID: 17555995/0x010BE21B) and starts talking
  4: 0x0056 [0x6F] WAIT_FRAME_DELAY: Yield until WaitTime reaches zero
  5: 0x0057 [0x70] WAIT_ENTITY_RENDER_FLAG: Wait while EventEntity->Render.Flags3 bit 2 is set (cancel turn if not)
  6: 0x0058 [0x00] END_REQSTACK()
```

### Event 65535.5

#### Metadata

| Field        | Value    |
|--------------|----------|
| Entrypoint   | 0x0059   |
| Data Size    | 13 bytes |
| Instructions | 3        |

```
      00 01 02 03 04 05 06 07  08 09 0A 0B 0C 0D 0E 0F
      -- -- -- -- -- -- -- --  -- -- -- -- -- -- -- --
0050:                             31 00 14 80 15 80 16           1......
0060: 80 17 80 31 01 00                                 ...1..          
```

#### Opcodes

```
  0: 0x0059 [0x31] UPDATE_ENTITY_POSITION: Set EventEntity goal position to X=-49.767*, Z=20.048*, Y=8.999*, Time=150*
  1: 0x0063 [0x31] UPDATE_ENTITY_POSITION: Move EventEntity towards goal position
  2: 0x0065 [0x00] END_REQSTACK()
```

### Event 65535.6

#### Metadata

| Field        | Value    |
|--------------|----------|
| Entrypoint   | 0x0066   |
| Data Size    | 10 bytes |
| Instructions | 2        |

```
      00 01 02 03 04 05 06 07  08 09 0A 0B 0C 0D 0E 0F
      -- -- -- -- -- -- -- --  -- -- -- -- -- -- -- --
0060:                   37 18  80 19 80 16 80 1A 80 00        7.........
```

#### Opcodes

```
  0: 0x0066 [0x37] UPDATE_EVENT_POSITION_AND_DIR: x=-57.846*, z=18.263*, y=8.999*, direction=186.5°*
  1: 0x006F [0x00] END_REQSTACK()
```

### Event 65535.7

#### Metadata

| Field        | Value    |
|--------------|----------|
| Entrypoint   | 0x0070   |
| Data Size    | 49 bytes |
| Instructions | 13       |

```
      00 01 02 03 04 05 06 07  08 09 0A 0B 0C 0D 0E 0F
      -- -- -- -- -- -- -- --  -- -- -- -- -- -- -- --
0070: 7B F8 FF FF 7F 32 1B 80  1F 00 1C 80 1D 80 16 80  {....2..........
0080: 1F 01 1F 00 1E 80 1F 80  20 80 1F 01 1F 00 21 80  ........ .....!.
0090: 22 80 07 80 1F 01 6F 39  23 80 1C 13 80 39 24 80  ".....o9#....9$.
00A0: 00                                                .               
```

#### Opcodes

```
  0: 0x0070 [0x7B] EventEntity stops talking
  1: 0x0075 [0x32] ExtData[1]->MainSpeed = 40* * 0.1
  2: 0x0078 [0x1F] MOVE_ENTITY: EventEntity moves to X=-48.813*, Z=18.454*, Y=8.999*
  3: 0x0080 [0x1F] MOVE_ENTITY: Update entity position (mode=1)
  4: 0x0082 [0x1F] MOVE_ENTITY: EventEntity moves to X=-41.398*, Z=20.060*, Y=8.000*
  5: 0x008A [0x1F] MOVE_ENTITY: Update entity position (mode=1)
  6: 0x008C [0x1F] MOVE_ENTITY: EventEntity moves to X=-35.919*, Z=21.510*, Y=7.500*
  7: 0x0094 [0x1F] MOVE_ENTITY: Update entity position (mode=1)
  8: 0x0096 [0x6F] WAIT_FRAME_DELAY: Yield until WaitTime reaches zero
  9: 0x0097 [0x39] SET_ENTITY_DIRECTION(direction=3.2°*)
 10: 0x009A [0x1C] WAIT(60* ticks)
 11: 0x009D [0x39] SET_ENTITY_DIRECTION(direction=20.4°*)
 12: 0x00A0 [0x00] END_REQSTACK()
```

### Event 65535.8

#### Metadata

| Field        | Value    |
|--------------|----------|
| Entrypoint   | 0x00A1   |
| Data Size    | 29 bytes |
| Instructions | 3        |

```
      00 01 02 03 04 05 06 07  08 09 0A 0B 0C 0D 0E 0F
      -- -- -- -- -- -- -- --  -- -- -- -- -- -- -- --
00A0:    66 25 80 F8 FF FF 7F  F8 FF FF 7F 74 68 6B 31   f%.........thk1
00B0: 53 F8 FF FF 7F F8 FF FF  7F 74 68 6B 31 00        S........thk1.  
```

#### Opcodes

```
  0: 0x00A1 [0x66] LOAD_EXT_SCHEDULER_MAIN: Load scheduler "thk1" with entities [EventEntity, EventEntity], work=29*
  1: 0x00B0 [0x53] WAIT_SCHEDULER_TASK: Wait for scheduler "thk1" with entities [EventEntity, EventEntity]
  2: 0x00BD [0x00] END_REQSTACK()
```

### Event 65535.9

#### Metadata

| Field        | Value    |
|--------------|----------|
| Entrypoint   | 0x00BE   |
| Data Size    | 29 bytes |
| Instructions | 3        |

```
      00 01 02 03 04 05 06 07  08 09 0A 0B 0C 0D 0E 0F
      -- -- -- -- -- -- -- --  -- -- -- -- -- -- -- --
00B0:                                            66 25                f%
00C0: 80 F8 FF FF 7F F8 FF FF  7F 74 68 6B 32 53 F8 FF  .........thk2S..
00D0: FF 7F F8 FF FF 7F 74 68  6B 32 00                 ......thk2.     
```

#### Opcodes

```
  0: 0x00BE [0x66] LOAD_EXT_SCHEDULER_MAIN: Load scheduler "thk2" with entities [EventEntity, EventEntity], work=29*
  1: 0x00CD [0x53] WAIT_SCHEDULER_TASK: Wait for scheduler "thk2" with entities [EventEntity, EventEntity]
  2: 0x00DA [0x00] END_REQSTACK()
```

### Event 65535.10

#### Metadata

| Field        | Value    |
|--------------|----------|
| Entrypoint   | 0x00DB   |
| Data Size    | 10 bytes |
| Instructions | 2        |

```
      00 01 02 03 04 05 06 07  08 09 0A 0B 0C 0D 0E 0F
      -- -- -- -- -- -- -- --  -- -- -- -- -- -- -- --
00D0:                                   37 26 80 27 80             7&.'.
00E0: 0A 80 28 80 00                                    ..(..           
```

#### Opcodes

```
  0: 0x00DB [0x37] UPDATE_EVENT_POSITION_AND_DIR: x=-35.373*, z=19.810*, y=7.499*, direction=180.3°*
  1: 0x00E4 [0x00] END_REQSTACK()
```

### Event 65535.11

#### Metadata

| Field        | Value    |
|--------------|----------|
| Entrypoint   | 0x00E5   |
| Data Size    | 14 bytes |
| Instructions | 4        |

```
      00 01 02 03 04 05 06 07  08 09 0A 0B 0C 0D 0E 0F
      -- -- -- -- -- -- -- --  -- -- -- -- -- -- -- --
00E0:                32 04 80  1F 00 29 80 2A 80 07 80       2....).*...
00F0: 1F 01 00                                          ...             
```

#### Opcodes

```
  0: 0x00E5 [0x32] ExtData[1]->MainSpeed = 13* * 0.1
  1: 0x00E8 [0x1F] MOVE_ENTITY: EventEntity moves to X=-30.305*, Z=21.252*, Y=7.500*
  2: 0x00F0 [0x1F] MOVE_ENTITY: Update entity position (mode=1)
  3: 0x00F2 [0x00] END_REQSTACK()
```
