# 17555999 - Claidie

## Common Data

| Field            | Value                          |
|------------------|--------------------------------|
| Zone             | King Ranperre's Tomb (ID: 190) |
| Block Size       | 328 bytes                      |
| Total Events     | 12                             |
| References Count | 25                             |

## List of Events

| Event ID                 | Entrypoint   |   Size |   Instructions |
|--------------------------|--------------|--------|----------------|
| [65535](#event-65535)    | 0x0000       |      4 |              2 |
| [14](#event-14)          | 0x0004       |     10 |              2 |
| [65535.1](#event-655351) | 0x000E       |     17 |              5 |
| [5](#event-5)            | 0x001F       |     10 |              2 |
| [65535.2](#event-655352) | 0x0029       |     17 |              5 |
| [65535.3](#event-655353) | 0x003A       |     13 |              3 |
| [65535.4](#event-655354) | 0x0047       |     11 |              3 |
| [65535.5](#event-655355) | 0x0052       |     19 |              3 |
| [65535.6](#event-655356) | 0x0065       |     16 |              2 |
| [65535.7](#event-655357) | 0x0075       |     11 |              3 |
| [65535.8](#event-655358) | 0x0080       |     23 |              7 |
| [65535.9](#event-655359) | 0x0097       |     11 |              3 |

## DAT References (imed_data)

|   Index | Hex Value   |   Dec Value |
|---------|-------------|-------------|
|       0 | 0x000A      |          10 |
|       1 | 0xFFFF8C47  |  4294937671 |
|       2 | 0x5DEA      |       24042 |
|       3 | 0x1D4B      |        7499 |
|       4 | 0x05FA      |        1530 |
|       5 | 0xFFFF891D  |  4294936861 |
|       6 | 0x5696      |       22166 |
|       7 | 0xFFFF7B7F  |  4294933375 |
|       8 | 0x50FF      |       20735 |
|       9 | 0x005A      |          90 |
|      10 | 0xFFFEFEC4  |  4294901444 |
|      11 | 0x5655      |       22101 |
|      12 | 0x2327      |        8999 |
|      13 | 0x06D3      |        1747 |
|      14 | 0x007D      |         125 |
|      15 | 0x001E      |          30 |
|      16 | 0xFFFF5500  |  4294923520 |
|      17 | 0x4B15      |       19221 |
|      18 | 0x203A      |        8250 |
|      19 | 0x0FC0      |        4032 |
|      20 | 0x0050      |          80 |
|      21 | 0xFFFF62EE  |  4294927086 |
|      22 | 0x4AEE      |       19182 |
|      23 | 0x1E46      |        7750 |
|      24 | 0xFFFF78F9  |  4294932729 |

## Events

### Event 65535

#### Metadata

| Field        | Value   |
|--------------|---------|
| Entrypoint   | 0x0000  |
| Data Size    | 4 bytes |
| Instructions | 2       |

```
      00 01 02 03 04 05 06 07  08 09 0A 0B 0C 0D 0E 0F
      -- -- -- -- -- -- -- --  -- -- -- -- -- -- -- --
0000: 32 00 80 00                                       2...            
```

#### Opcodes

```
  0: 0x0000 [0x32] ExtData[1]->MainSpeed = 10* * 0.1
  1: 0x0003 [0x00] END_REQSTACK()
```

### Event 14

#### Metadata

| Field        | Value    |
|--------------|----------|
| Entrypoint   | 0x0004   |
| Data Size    | 10 bytes |
| Instructions | 2        |

```
      00 01 02 03 04 05 06 07  08 09 0A 0B 0C 0D 0E 0F
      -- -- -- -- -- -- -- --  -- -- -- -- -- -- -- --
0000:             37 01 80 02  80 03 80 04 80 00            7.........  
```

#### Opcodes

```
  0: 0x0004 [0x37] UPDATE_EVENT_POSITION_AND_DIR: x=-29.625*, z=24.042*, y=7.499*, direction=134.5째*
  1: 0x000D [0x00] END_REQSTACK()
```

### Event 65535.1

#### Metadata

| Field        | Value    |
|--------------|----------|
| Entrypoint   | 0x000E   |
| Data Size    | 17 bytes |
| Instructions | 5        |

```
      00 01 02 03 04 05 06 07  08 09 0A 0B 0C 0D 0E 0F
      -- -- -- -- -- -- -- --  -- -- -- -- -- -- -- --
0000:                                            1F 00                ..
0010: 05 80 06 80 03 80 1F 01  6F 1E 1B E2 0B 01 00     ........o...... 
```

#### Opcodes

```
  0: 0x000E [0x1F] MOVE_ENTITY: EventEntity moves to X=-30.435*, Z=22.166*, Y=7.499*
  1: 0x0016 [0x1F] MOVE_ENTITY: Update entity position (mode=1)
  2: 0x0018 [0x6F] WAIT_FRAME_DELAY: Yield until WaitTime reaches zero
  3: 0x0019 [0x1E] EventEntity looks at Destin (ID: 17555995/0x010BE21B) and starts talking
  4: 0x001E [0x00] END_REQSTACK()
```

### Event 5

#### Metadata

| Field        | Value    |
|--------------|----------|
| Entrypoint   | 0x001F   |
| Data Size    | 10 bytes |
| Instructions | 2        |

```
      00 01 02 03 04 05 06 07  08 09 0A 0B 0C 0D 0E 0F
      -- -- -- -- -- -- -- --  -- -- -- -- -- -- -- --
0010:                                               37                 7
0020: 01 80 02 80 03 80 04 80  00                       .........       
```

#### Opcodes

```
  0: 0x001F [0x37] UPDATE_EVENT_POSITION_AND_DIR: x=-29.625*, z=24.042*, y=7.499*, direction=134.5째*
  1: 0x0028 [0x00] END_REQSTACK()
```

### Event 65535.2

#### Metadata

| Field        | Value    |
|--------------|----------|
| Entrypoint   | 0x0029   |
| Data Size    | 17 bytes |
| Instructions | 5        |

```
      00 01 02 03 04 05 06 07  08 09 0A 0B 0C 0D 0E 0F
      -- -- -- -- -- -- -- --  -- -- -- -- -- -- -- --
0020:                             1F 00 05 80 06 80 03           .......
0030: 80 1F 01 6F 1E 1B E2 0B  01 00                    ...o......      
```

#### Opcodes

```
  0: 0x0029 [0x1F] MOVE_ENTITY: EventEntity moves to X=-30.435*, Z=22.166*, Y=7.499*
  1: 0x0031 [0x1F] MOVE_ENTITY: Update entity position (mode=1)
  2: 0x0033 [0x6F] WAIT_FRAME_DELAY: Yield until WaitTime reaches zero
  3: 0x0034 [0x1E] EventEntity looks at Destin (ID: 17555995/0x010BE21B) and starts talking
  4: 0x0039 [0x00] END_REQSTACK()
```

### Event 65535.3

#### Metadata

| Field        | Value    |
|--------------|----------|
| Entrypoint   | 0x003A   |
| Data Size    | 13 bytes |
| Instructions | 3        |

```
      00 01 02 03 04 05 06 07  08 09 0A 0B 0C 0D 0E 0F
      -- -- -- -- -- -- -- --  -- -- -- -- -- -- -- --
0030:                                31 00 07 80 08 80            1.....
0040: 03 80 09 80 31 01 00                              ....1..         
```

#### Opcodes

```
  0: 0x003A [0x31] UPDATE_ENTITY_POSITION: Set EventEntity goal position to X=-33.921*, Z=20.735*, Y=7.499*, Time=90*
  1: 0x0044 [0x31] UPDATE_ENTITY_POSITION: Move EventEntity towards goal position
  2: 0x0046 [0x00] END_REQSTACK()
```

### Event 65535.4

#### Metadata

| Field        | Value    |
|--------------|----------|
| Entrypoint   | 0x0047   |
| Data Size    | 11 bytes |
| Instructions | 3        |

```
      00 01 02 03 04 05 06 07  08 09 0A 0B 0C 0D 0E 0F
      -- -- -- -- -- -- -- --  -- -- -- -- -- -- -- --
0040:                      84  37 0A 80 0B 80 0C 80 0D         .7.......
0050: 80 00                                             ..              
```

#### Opcodes

```
  0: 0x0047 [0x84] ADJUST_RENDER_FLAGS3_BIT0()
  1: 0x0048 [0x37] UPDATE_EVENT_POSITION_AND_DIR: x=-65.852*, z=22.101*, y=8.999*, direction=153.5째*
  2: 0x0051 [0x00] END_REQSTACK()
```

### Event 65535.5

#### Metadata

| Field        | Value    |
|--------------|----------|
| Entrypoint   | 0x0052   |
| Data Size    | 19 bytes |
| Instructions | 3        |

```
      00 01 02 03 04 05 06 07  08 09 0A 0B 0C 0D 0E 0F
      -- -- -- -- -- -- -- --  -- -- -- -- -- -- -- --
0050:       5B 0E 80 F8 FF FF  7F F8 FF FF 7F 74 68 6B    [..........thk
0060: 31 1C 0F 80 00                                    1....           
```

#### Opcodes

```
  0: 0x0052 [0x5B] LOAD_EXT_SCHEDULER: Load scheduler "thk1" with entities [EventEntity, EventEntity], work=125*
  1: 0x0061 [0x1C] WAIT(30* ticks)
  2: 0x0064 [0x00] END_REQSTACK()
```

### Event 65535.6

#### Metadata

| Field        | Value    |
|--------------|----------|
| Entrypoint   | 0x0065   |
| Data Size    | 16 bytes |
| Instructions | 2        |

```
      00 01 02 03 04 05 06 07  08 09 0A 0B 0C 0D 0E 0F
      -- -- -- -- -- -- -- --  -- -- -- -- -- -- -- --
0060:                5B 0E 80  F8 FF FF 7F F8 FF FF 7F       [..........
0070: 74 68 6B 32 00                                    thk2.           
```

#### Opcodes

```
  0: 0x0065 [0x5B] LOAD_EXT_SCHEDULER: Load scheduler "thk2" with entities [EventEntity, EventEntity], work=125*
  1: 0x0074 [0x00] END_REQSTACK()
```

### Event 65535.7

#### Metadata

| Field        | Value    |
|--------------|----------|
| Entrypoint   | 0x0075   |
| Data Size    | 11 bytes |
| Instructions | 3        |

```
      00 01 02 03 04 05 06 07  08 09 0A 0B 0C 0D 0E 0F
      -- -- -- -- -- -- -- --  -- -- -- -- -- -- -- --
0070:                84 37 10  80 11 80 12 80 13 80 00       .7.........
```

#### Opcodes

```
  0: 0x0075 [0x84] ADJUST_RENDER_FLAGS3_BIT0()
  1: 0x0076 [0x37] UPDATE_EVENT_POSITION_AND_DIR: x=-43.776*, z=19.221*, y=8.250*, direction=354.4째*
  2: 0x007F [0x00] END_REQSTACK()
```

### Event 65535.8

#### Metadata

| Field        | Value    |
|--------------|----------|
| Entrypoint   | 0x0080   |
| Data Size    | 23 bytes |
| Instructions | 7        |

```
      00 01 02 03 04 05 06 07  08 09 0A 0B 0C 0D 0E 0F
      -- -- -- -- -- -- -- --  -- -- -- -- -- -- -- --
0080: 1C 14 80 32 00 80 1F 00  15 80 16 80 17 80 1F 01  ...2............
0090: 6F 1E F0 FF FF 7F 00                              o......         
```

#### Opcodes

```
  0: 0x0080 [0x1C] WAIT(80* ticks)
  1: 0x0083 [0x32] ExtData[1]->MainSpeed = 10* * 0.1
  2: 0x0086 [0x1F] MOVE_ENTITY: EventEntity moves to X=-40.210*, Z=19.182*, Y=7.750*
  3: 0x008E [0x1F] MOVE_ENTITY: Update entity position (mode=1)
  4: 0x0090 [0x6F] WAIT_FRAME_DELAY: Yield until WaitTime reaches zero
  5: 0x0091 [0x1E] EventEntity looks at LocalPlayer and starts talking
  6: 0x0096 [0x00] END_REQSTACK()
```

### Event 65535.9

#### Metadata

| Field        | Value    |
|--------------|----------|
| Entrypoint   | 0x0097   |
| Data Size    | 11 bytes |
| Instructions | 3        |

```
      00 01 02 03 04 05 06 07  08 09 0A 0B 0C 0D 0E 0F
      -- -- -- -- -- -- -- --  -- -- -- -- -- -- -- --
0090:                      1F  00 18 80 11 80 03 80 1F         .........
00A0: 01 00                                             ..              
```

#### Opcodes

```
  0: 0x0097 [0x1F] MOVE_ENTITY: EventEntity moves to X=-34.567*, Z=19.221*, Y=7.499*
  1: 0x009F [0x1F] MOVE_ENTITY: Update entity position (mode=1)
  2: 0x00A1 [0x00] END_REQSTACK()
```
