# 17556032

## Common Data

| Field            | Value                          |
|------------------|--------------------------------|
| Zone             | King Ranperre's Tomb (ID: 190) |
| Block Size       | 1352 bytes                     |
| Total Events     | 5                              |
| References Count | 46                             |

## List of Events

| Event ID              | Entrypoint   |   Size |   Instructions |
|-----------------------|--------------|--------|----------------|
| [65535](#event-65535) | 0x0000       |    658 |             62 |
| [153](#event-153)     | 0x0292       |    118 |             35 |
| [150](#event-150)     | 0x0308       |     10 |              6 |
| [152](#event-152)     | 0x0312       |     27 |             10 |
| [151](#event-151)     | 0x032D       |    318 |             85 |

## DAT References (imed_data)

|   Index | Hex Value   |   Dec Value |
|---------|-------------|-------------|
|       0 | 0x00C8      |         200 |
|       1 | 0x0000      |           0 |
|       2 | 0x00C9      |         201 |
|       3 | 0x0001      |           1 |
|       4 | 0x002D      |          45 |
|       5 | 0x0002      |           2 |
|       6 | 0x001E      |          30 |
|       7 | 0x00D7      |         215 |
|       8 | 0x2CA3      |       11427 |
|       9 | 0x1C5A      |        7258 |
|      10 | 0x2CAB      |       11435 |
|      11 | 0x0063      |          99 |
|      12 | 0x2CAA      |       11434 |
|      13 | 0x0064      |         100 |
|      14 | 0x2CA4      |       11428 |
|      15 | 0x2CA5      |       11429 |
|      16 | 0x1C44      |        7236 |
|      17 | 0x2C8F      |       11407 |
|      18 | 0x2C92      |       11410 |
|      19 | 0x2C93      |       11411 |
|      20 | 0x2C87      |       11399 |
|      21 | 0x2C88      |       11400 |
|      22 | 0x0005      |           5 |
|      23 | 0x0006      |           6 |
|      24 | 0x0003      |           3 |
|      25 | 0x2C8A      |       11402 |
|      26 | 0x2C8B      |       11403 |
|      27 | 0x2C8C      |       11404 |
|      28 | 0x2C8D      |       11405 |
|      29 | 0x2C8E      |       11406 |
|      30 | 0x2C98      |       11416 |
|      31 | 0x2C99      |       11417 |
|      32 | 0x2C9A      |       11418 |
|      33 | 0x2C9B      |       11419 |
|      34 | 0x2C9C      |       11420 |
|      35 | 0x2C9D      |       11421 |
|      36 | 0x2C9E      |       11422 |
|      37 | 0x2C9F      |       11423 |
|      38 | 0x2CA0      |       11424 |
|      39 | 0x2CA1      |       11425 |
|      40 | 0x2CA2      |       11426 |
|      41 | 0x005A      |          90 |
|      42 | 0x2C95      |       11413 |
|      43 | 0x2C90      |       11408 |
|      44 | 0x2C91      |       11409 |
|      45 | 0x2C89      |       11401 |

## String References

- **7236**: The voice of a young woman rings in your head.
- **7258**: @@
- **11399**: "Rune cipher...tication...uired."
- **11400**: "[./Ig.../Ge...s/...bra/Te/...por/U.../Lu.../...ebrae]..."
- **11401**: "Unabl...res...error. Term...func...ty."
- **11402**: "Auth......succ...ful."
- **11403**: "Pers...ector $2 crea...in Rune Containment Mode. Now boo...g."
- **11404**: "B...comple... ...acce...Per...Sec...$2."
- **11405**: "He...<Player>."
- **11406**: "You h...1 unhe....message. Rela...eard mess...telepa..."
- **11407**: "All mess......heard."
- **11408**: "Recor...rd messa...rune st..."
- **11409**: "...inating Rune...ainment Mo...r succ......ording."
- **11410**: "This ter......ently in Sa...ode and......not be util..."
- **11411**: "Emerg......ge playb...servi......e unl...ith th...ropria...une cipher."
- **11413**: A cumbrous silence descends as the echoes of that mysterious internal voice fade away.
- **11427**: Your $3 pulses with a vibrant energy.
- **11428**: What will you do? [Place the core. (Get ready to fight!)/Do nothing.]
- **11429**: The mysterious apparatus absorbs the $3, and the machine sputters a cacophonous grinding!
- **11434**: You may not have enough room in your inventory to receive all the spoils of victory. Victory may yield up to $0 item[/s].
- **11435**: Any temporary items you possess will be destroyed, beneficial effects will be removed, and TP will be reset.

## Events

### Event 65535

#### Metadata

| Field        | Value     |
|--------------|-----------|
| Entrypoint   | 0x0000    |
| Data Size    | 658 bytes |
| Instructions | 1         |

```
      00 01 02 03 04 05 06 07  08 09 0A 0B 0C 0D 0E 0F
      -- -- -- -- -- -- -- --  -- -- -- -- -- -- -- --
0000: 00 45 00 80 F0 FF FF 7F  F0 FF FF 7F 66 64 69 30  .E..........fdi0
0010: 01 80 55 00 80 F0 FF FF  7F F0 FF FF 7F 66 64 69  ..U..........fdi
0020: 30 1B 45 00 80 F0 FF FF  7F F0 FF FF 7F 66 64 6F  0.E..........fdo
0030: 30 01 80 55 00 80 F0 FF  FF 7F F0 FF FF 7F 66 64  0..U..........fd
0040: 6F 30 1B 45 00 80 F0 FF  FF 7F F0 FF FF 7F 66 64  o0.E..........fd
0050: 69 31 01 80 55 00 80 F0  FF FF 7F F0 FF FF 7F 66  i1..U..........f
0060: 64 69 31 1B 45 00 80 F0  FF FF 7F F0 FF FF 7F 66  di1.E..........f
0070: 64 6F 31 01 80 55 00 80  F0 FF FF 7F F0 FF FF 7F  do1..U..........
0080: 66 64 6F 31 1B 45 02 80  F0 FF FF 7F F0 FF FF 7F  fdo1.E..........
0090: 77 68 69 31 01 80 55 02  80 F0 FF FF 7F F0 FF FF  whi1..U.........
00A0: 7F 77 68 69 31 1B 45 02  80 F0 FF FF 7F F0 FF FF  .whi1.E.........
00B0: 7F 77 68 6F 31 01 80 55  02 80 F0 FF FF 7F F0 FF  .who1..U........
00C0: FF 7F 77 68 6F 31 1B 45  02 80 F0 FF FF 7F F0 FF  ..who1.E........
00D0: FF 7F 77 68 6F 32 01 80  55 02 80 F0 FF FF 7F F0  ..who2..U.......
00E0: FF FF 7F 77 68 6F 32 1B  45 02 80 F0 FF FF 7F F0  ...who2.E.......
00F0: FF FF 7F 77 68 6F 33 01  80 55 02 80 F0 FF FF 7F  ...who3..U......
0100: F0 FF FF 7F 77 68 6F 33  1B 62 03 80 F0 FF FF 7F  ....who3.b......
0110: F0 FF FF 7F 6D 61 69 6E  01 80 1C 04 80 45 00 80  ....main.....E..
0120: F0 FF FF 7F F0 FF FF 7F  66 64 6F 31 01 80 55 00  ........fdo1..U.
0130: 80 F0 FF FF 7F F0 FF FF  7F 66 64 6F 31 1B 45 00  .........fdo1.E.
0140: 80 F0 FF FF 7F F0 FF FF  7F 66 64 69 31 01 80 62  .........fdi1..b
0150: 05 80 F0 FF FF 7F F0 FF  FF 7F 6D 61 69 6E 01 80  ..........main..
0160: 1C 06 80 55 00 80 F0 FF  FF 7F F0 FF FF 7F 66 64  ...U..........fd
0170: 69 31 1B 45 00 80 F0 FF  FF 7F F0 FF FF 7F 62 6C  i1.E..........bl
0180: 6F 6E 01 80 45 02 80 F0  FF FF 7F F0 FF FF 7F 62  on..E..........b
0190: 6C 6F 6E 01 80 1B 45 02  80 F0 FF FF 7F F0 FF FF  lon...E.........
01A0: 7F 77 68 69 30 01 80 55  02 80 F0 FF FF 7F F0 FF  .whi0..U........
01B0: FF 7F 77 68 69 30 1B 45  02 80 F0 FF FF 7F F0 FF  ..whi0.E........
01C0: FF 7F 77 68 6F 30 01 80  55 02 80 F0 FF FF 7F F0  ..who0..U.......
01D0: FF FF 7F 77 68 6F 30 1B  45 07 80 F0 FF FF 7F F0  ...who0.E.......
01E0: FF FF 7F 65 66 6F 6E 01  80 55 07 80 F0 FF FF 7F  ...efon..U......
01F0: F0 FF FF 7F 65 66 6F 6E  1B 45 00 80 F0 FF FF 7F  ....efon.E......
0200: F0 FF FF 7F 66 64 69 73  01 80 1B 45 00 80 F0 FF  ....fdis...E....
0210: FF 7F F0 FF FF 7F 66 64  6F 73 01 80 55 00 80 F0  ......fdos..U...
0220: FF FF 7F F0 FF FF 7F 66  64 6F 73 1B 45 00 80 F0  .......fdos.E...
0230: FF FF 7F F0 FF FF 7F 66  64 69 66 01 80 1B 45 00  .......fdif...E.
0240: 80 F0 FF FF 7F F0 FF FF  7F 66 64 6F 66 01 80 55  .........fdof..U
0250: 00 80 F0 FF FF 7F F0 FF  FF 7F 66 64 6F 66 1B 45  ..........fdof.E
0260: 00 80 F0 FF FF 7F F0 FF  FF 7F 66 64 69 70 01 80  ..........fdip..
0270: 1B 45 00 80 F0 FF FF 7F  F0 FF FF 7F 66 64 6F 70  .E..........fdop
0280: 01 80 55 00 80 F0 FF FF  7F F0 FF FF 7F 66 64 6F  ..U..........fdo
0290: 70 1B                                             p.              
```

#### Opcodes

```
  0: 0x0000 [0x00] END_REQSTACK()
```

#### Data or dead code:

```
# Dead code (unreachable instructions):
     0x0001 [0x45] LOAD_SCHEDULED_TASK: Load scheduler "fdi0" with entities [LocalPlayer, LocalPlayer], work=[200*, 0*]
     0x0012 [0x55] WAIT_LOAD_SCHEDULER: Wait for scheduler "fdi0" with entities [LocalPlayer, LocalPlayer], work=200*
     0x0021 [0x1B] RETURN
     0x0022 [0x45] LOAD_SCHEDULED_TASK: Load scheduler "fdo0" with entities [LocalPlayer, LocalPlayer], work=[200*, 0*]
     0x0033 [0x55] WAIT_LOAD_SCHEDULER: Wait for scheduler "fdo0" with entities [LocalPlayer, LocalPlayer], work=200*
     0x0042 [0x1B] RETURN
     0x0043 [0x45] LOAD_SCHEDULED_TASK: Load scheduler "fdi1" with entities [LocalPlayer, LocalPlayer], work=[200*, 0*]
     0x0054 [0x55] WAIT_LOAD_SCHEDULER: Wait for scheduler "fdi1" with entities [LocalPlayer, LocalPlayer], work=200*
     0x0063 [0x1B] RETURN
     0x0064 [0x45] LOAD_SCHEDULED_TASK: Load scheduler "fdo1" with entities [LocalPlayer, LocalPlayer], work=[200*, 0*]
     0x0075 [0x55] WAIT_LOAD_SCHEDULER: Wait for scheduler "fdo1" with entities [LocalPlayer, LocalPlayer], work=200*
     0x0084 [0x1B] RETURN
     0x0085 [0x45] LOAD_SCHEDULED_TASK: Load scheduler "whi1" with entities [LocalPlayer, LocalPlayer], work=[201*, 0*]
     0x0096 [0x55] WAIT_LOAD_SCHEDULER: Wait for scheduler "whi1" with entities [LocalPlayer, LocalPlayer], work=201*
     0x00A5 [0x1B] RETURN
     0x00A6 [0x45] LOAD_SCHEDULED_TASK: Load scheduler "who1" with entities [LocalPlayer, LocalPlayer], work=[201*, 0*]
     0x00B7 [0x55] WAIT_LOAD_SCHEDULER: Wait for scheduler "who1" with entities [LocalPlayer, LocalPlayer], work=201*
     0x00C6 [0x1B] RETURN
     0x00C7 [0x45] LOAD_SCHEDULED_TASK: Load scheduler "who2" with entities [LocalPlayer, LocalPlayer], work=[201*, 0*]
     0x00D8 [0x55] WAIT_LOAD_SCHEDULER: Wait for scheduler "who2" with entities [LocalPlayer, LocalPlayer], work=201*
     0x00E7 [0x1B] RETURN
     0x00E8 [0x45] LOAD_SCHEDULED_TASK: Load scheduler "who3" with entities [LocalPlayer, LocalPlayer], work=[201*, 0*]
     0x00F9 [0x55] WAIT_LOAD_SCHEDULER: Wait for scheduler "who3" with entities [LocalPlayer, LocalPlayer], work=201*
     0x0108 [0x1B] RETURN
     0x0109 [0x62] LOAD_EVENT_SCHEDULER: Load scheduler "main" with entities [LocalPlayer, LocalPlayer], work=[1*, 0*]
     0x011A [0x1C] WAIT(45* ticks)
     0x011D [0x45] LOAD_SCHEDULED_TASK: Load scheduler "fdo1" with entities [LocalPlayer, LocalPlayer], work=[200*, 0*]
     0x012E [0x55] WAIT_LOAD_SCHEDULER: Wait for scheduler "fdo1" with entities [LocalPlayer, LocalPlayer], work=200*
     0x013D [0x1B] RETURN
     0x013E [0x45] LOAD_SCHEDULED_TASK: Load scheduler "fdi1" with entities [LocalPlayer, LocalPlayer], work=[200*, 0*]
     0x014F [0x62] LOAD_EVENT_SCHEDULER: Load scheduler "main" with entities [LocalPlayer, LocalPlayer], work=[2*, 0*]
     0x0160 [0x1C] WAIT(30* ticks)
     0x0163 [0x55] WAIT_LOAD_SCHEDULER: Wait for scheduler "fdi1" with entities [LocalPlayer, LocalPlayer], work=200*
     0x0172 [0x1B] RETURN
     0x0173 [0x45] LOAD_SCHEDULED_TASK: Load scheduler "blon" with entities [LocalPlayer, LocalPlayer], work=[200*, 0*]
     0x0184 [0x45] LOAD_SCHEDULED_TASK: Load scheduler "blon" with entities [LocalPlayer, LocalPlayer], work=[201*, 0*]
     0x0195 [0x1B] RETURN
     0x0196 [0x45] LOAD_SCHEDULED_TASK: Load scheduler "whi0" with entities [LocalPlayer, LocalPlayer], work=[201*, 0*]
     0x01A7 [0x55] WAIT_LOAD_SCHEDULER: Wait for scheduler "whi0" with entities [LocalPlayer, LocalPlayer], work=201*
     0x01B6 [0x1B] RETURN
     0x01B7 [0x45] LOAD_SCHEDULED_TASK: Load scheduler "who0" with entities [LocalPlayer, LocalPlayer], work=[201*, 0*]
     0x01C8 [0x55] WAIT_LOAD_SCHEDULER: Wait for scheduler "who0" with entities [LocalPlayer, LocalPlayer], work=201*
     0x01D7 [0x1B] RETURN
     0x01D8 [0x45] LOAD_SCHEDULED_TASK: Load scheduler "efon" with entities [LocalPlayer, LocalPlayer], work=[215*, 0*]
     0x01E9 [0x55] WAIT_LOAD_SCHEDULER: Wait for scheduler "efon" with entities [LocalPlayer, LocalPlayer], work=215*
     0x01F8 [0x1B] RETURN
     0x01F9 [0x45] LOAD_SCHEDULED_TASK: Load scheduler "fdis" with entities [LocalPlayer, LocalPlayer], work=[200*, 0*]
     0x020A [0x1B] RETURN
     0x020B [0x45] LOAD_SCHEDULED_TASK: Load scheduler "fdos" with entities [LocalPlayer, LocalPlayer], work=[200*, 0*]
     0x021C [0x55] WAIT_LOAD_SCHEDULER: Wait for scheduler "fdos" with entities [LocalPlayer, LocalPlayer], work=200*
     0x022B [0x1B] RETURN
     0x022C [0x45] LOAD_SCHEDULED_TASK: Load scheduler "fdif" with entities [LocalPlayer, LocalPlayer], work=[200*, 0*]
     0x023D [0x1B] RETURN
     0x023E [0x45] LOAD_SCHEDULED_TASK: Load scheduler "fdof" with entities [LocalPlayer, LocalPlayer], work=[200*, 0*]
     0x024F [0x55] WAIT_LOAD_SCHEDULER: Wait for scheduler "fdof" with entities [LocalPlayer, LocalPlayer], work=200*
     0x025E [0x1B] RETURN
     0x025F [0x45] LOAD_SCHEDULED_TASK: Load scheduler "fdip" with entities [LocalPlayer, LocalPlayer], work=[200*, 0*]
     0x0270 [0x1B] RETURN
     0x0271 [0x45] LOAD_SCHEDULED_TASK: Load scheduler "fdop" with entities [LocalPlayer, LocalPlayer], work=[200*, 0*]
     0x0282 [0x55] WAIT_LOAD_SCHEDULER: Wait for scheduler "fdop" with entities [LocalPlayer, LocalPlayer], work=200*
     0x0291 [0x1B] RETURN
```

### Event 153

#### Metadata

| Field        | Value     |
|--------------|-----------|
| Entrypoint   | 0x0292    |
| Data Size    | 118 bytes |
| Instructions | 35        |

```
      00 01 02 03 04 05 06 07  08 09 0A 0B 0C 0D 0E 0F
      -- -- -- -- -- -- -- --  -- -- -- -- -- -- -- --
0290:       42 06 01 10 48 08  80 23 48 09 80 23 48 0A    B...H..#H..#H.
02A0: 80 23 03 01 10 0B 80 43  00 43 01 02 02 10 01 80  .#.....C.C......
02B0: 01 B7 02 48 0C 80 23 03  01 10 0D 80 43 00 43 01  ...H..#.....C.C.
02C0: 06 01 10 24 0E 80 01 80  01 80 25 02 00 10 01 80  ...$......%.....
02D0: 00 FB 02 27 08 F0 FF FF  7F 01 48 09 80 23 2A 08  ...'......H..#*.
02E0: F0 FF FF 7F 27 08 F0 FF  FF 7F 02 48 0F 80 2A 08  ....'......H..*.
02F0: F0 FF FF 7F 23 05 01 10  01 06 03 02 00 10 03 80  ....#...........
0300: 00 06 03 01 06 03 21 00                           ......!.        
```

#### Opcodes

```
  0: 0x0292 [0x42] SET_CLI_EVENT_CANCEL_DATA()
  1: 0x0293 [0x06] Work_Zone[1] = 0
  2: 0x0296 [0x48] [System] [11427*]:
    → "Your $3 pulses with a vibrant energy."
  3: 0x0299 [0x23] WAIT_FOR_DIALOG_INTERACTION
  4: 0x029A [0x48] [System] [7258*]:
    → "@@"
  5: 0x029D [0x23] WAIT_FOR_DIALOG_INTERACTION
  6: 0x029E [0x48] [System] [11435*]:
    → "Any temporary items you possess will be destroyed, beneficial effects will be removed, and TP will be reset."
  7: 0x02A1 [0x23] WAIT_FOR_DIALOG_INTERACTION
  8: 0x02A2 [0x03] Work_Zone[1] = 99*
  9: 0x02A7 [0x43] SEND_EVENT_UPDATE: Send pending tag to server (packet 0x005B)
 10: 0x02A9 [0x43] SEND_EVENT_UPDATE: Check pending flag (skip if not pending)
 11: 0x02AB [0x02] IF !(Work_Zone[2] == 0*) GOTO 0x02B7
 12: 0x02B3 [0x48] [System] [11434*]:
    → "You may not have enough room in your inventory to receive all the spoils of victory. Victory may yield up to $0 item[/s]."
 13: 0x02B6 [0x23] WAIT_FOR_DIALOG_INTERACTION
 14: 0x02B7 [0x03] Work_Zone[1] = 100*
 15: 0x02BC [0x43] SEND_EVENT_UPDATE: Send pending tag to server (packet 0x005B)
 16: 0x02BE [0x43] SEND_EVENT_UPDATE: Check pending flag (skip if not pending)
 17: 0x02C0 [0x06] Work_Zone[1] = 0
 18: 0x02C3 [0x24] CREATE_DIALOG(message_id=11428*, default_option=0*, option_flags=0*)
    → "What will you do? [Place the core. (Get ready to fight!)/Do nothing.]"
 19: 0x02CA [0x25] WAIT_DIALOG_SELECT()
 20: 0x02CB [0x02] IF !(Work_Zone[0] == 0*) GOTO 0x02FB
 21: 0x02D3 [0x27] REQ_SET(priority=0x08, entity_id=LocalPlayer, tag_num=0x01)
 22: 0x02DA [0x48] [System] [7258*]:
    → "@@"
 23: 0x02DD [0x23] WAIT_FOR_DIALOG_INTERACTION
 24: 0x02DE [0x2A] GET_REQ_LEVEL(level=8, entity_id=LocalPlayer)
 25: 0x02E4 [0x27] REQ_SET(priority=0x08, entity_id=LocalPlayer, tag_num=0x02)
 26: 0x02EB [0x48] [System] [11429*]:
    → "The mysterious apparatus absorbs the $3, and the machine sputters a cacophonous grinding!"
 27: 0x02EE [0x2A] GET_REQ_LEVEL(level=8, entity_id=LocalPlayer)
 28: 0x02F4 [0x23] WAIT_FOR_DIALOG_INTERACTION
 29: 0x02F5 [0x05] Work_Zone[1] = 1
 30: 0x02F8 [0x01] GOTO 0x0306
 31: 0x02FB [0x02] IF !(Work_Zone[0] == 1*) GOTO 0x0306
 32: 0x0303 [0x01] GOTO 0x0306

SUBROUTINE_0306:
 33: 0x0306 [0x21] END_EVENT
 34: 0x0307 [0x00] END_REQSTACK()
```

### Event 150

#### Metadata

| Field        | Value    |
|--------------|----------|
| Entrypoint   | 0x0308   |
| Data Size    | 10 bytes |
| Instructions | 6        |

```
      00 01 02 03 04 05 06 07  08 09 0A 0B 0C 0D 0E 0F
      -- -- -- -- -- -- -- --  -- -- -- -- -- -- -- --
0300:                          48 10 80 23 48 11 80 23          H..#H..#
0310: 21 00                                             !.              
```

#### Opcodes

```
  0: 0x0308 [0x48] [System] [7236*]:
    → "The voice of a young woman rings in your head."
  1: 0x030B [0x23] WAIT_FOR_DIALOG_INTERACTION
  2: 0x030C [0x48] [System] [11407*]:
    → ""All mess......heard.""
  3: 0x030F [0x23] WAIT_FOR_DIALOG_INTERACTION
  4: 0x0310 [0x21] END_EVENT
  5: 0x0311 [0x00] END_REQSTACK()
```

### Event 152

#### Metadata

| Field        | Value    |
|--------------|----------|
| Entrypoint   | 0x0312   |
| Data Size    | 27 bytes |
| Instructions | 10       |

```
      00 01 02 03 04 05 06 07  08 09 0A 0B 0C 0D 0E 0F
      -- -- -- -- -- -- -- --  -- -- -- -- -- -- -- --
0310:       03 00 00 02 10 48  10 80 23 02 00 00 0B 80    .....H..#.....
0320: 00 27 03 48 12 80 23 48  13 80 23 21 00           .'.H..#H..#!.   
```

#### Opcodes

```
  0: 0x0312 [0x03] ExtData[1]->WorkLocal[0] = Work_Zone[2]
  1: 0x0317 [0x48] [System] [7236*]:
    → "The voice of a young woman rings in your head."
  2: 0x031A [0x23] WAIT_FOR_DIALOG_INTERACTION
  3: 0x031B [0x02] IF !(ExtData[1]->WorkLocal[0] == 99*) GOTO 0x0327
  4: 0x0323 [0x48] [System] [11410*]:
    → ""This ter......ently in Sa...ode and......not be util...""
  5: 0x0326 [0x23] WAIT_FOR_DIALOG_INTERACTION
  6: 0x0327 [0x48] [System] [11411*]:
    → ""Emerg......ge playb...servi......e unl...ith th...ropria...une cipher.""
  7: 0x032A [0x23] WAIT_FOR_DIALOG_INTERACTION
  8: 0x032B [0x21] END_EVENT
  9: 0x032C [0x00] END_REQSTACK()
```

### Event 151

#### Metadata

| Field        | Value     |
|--------------|-----------|
| Entrypoint   | 0x032D    |
| Data Size    | 318 bytes |
| Instructions | 85        |

```
      00 01 02 03 04 05 06 07  08 09 0A 0B 0C 0D 0E 0F
      -- -- -- -- -- -- -- --  -- -- -- -- -- -- -- --
0320:                                         42 4A F0               BJ.
0330: FF FF 7F 44 E2 0B 01 03  01 00 02 10 03 02 00 05  ...D............
0340: 10 03 03 00 04 10 03 04  00 03 10 03 05 00 06 10  ................
0350: 06 06 00 48 10 80 23 48  14 80 23 02 02 00 01 80  ...H..#H..#.....
0360: 00 66 03 01 7A 03 03 02  10 02 00 48 15 80 23 02  .f..z......H..#.
0370: 02 00 05 80 00 7A 03 0B  06 00 02 03 00 01 80 00  .....z..........
0380: 85 03 01 99 03 03 02 10  03 00 48 15 80 23 02 03  ..........H..#..
0390: 00 16 80 00 99 03 0B 06  00 02 04 00 01 80 00 A4  ................
03A0: 03 01 B8 03 03 02 10 04  00 48 15 80 23 02 04 00  .........H..#...
03B0: 17 80 00 B8 03 0B 06 00  06 01 10 02 06 00 18 80  ................
03C0: 04 65 04 48 19 80 23 03  04 10 01 00 48 1A 80 23  .e.H..#.....H..#
03D0: 48 1B 80 23 48 1C 80 23  48 1D 80 23 29 10 41 E2  H..#H..#H..#).A.
03E0: 0B 01 09 29 10 F0 FF FF  7F 01 2B 41 E2 0B 01 1E  ...)......+A....
03F0: 80 23 29 10 42 E2 0B 01  09 2B 42 E2 0B 01 1F 80  .#).B....+B.....
0400: 23 2B 41 E2 0B 01 20 80  23 2B 42 E2 0B 01 21 80  #+A... .#+B...!.
0410: 23 2B 41 E2 0B 01 22 80  23 2B 42 E2 0B 01 23 80  #+A...".#+B...#.
0420: 23 2B 41 E2 0B 01 24 80  23 2B 41 E2 0B 01 25 80  #+A...$.#+A...%.
0430: 23 2B 42 E2 0B 01 26 80  23 2B 41 E2 0B 01 27 80  #+B...&.#+A...'.
0440: 23 2B 42 E2 0B 01 28 80  23 1C 29 80 48 2A 80 23  #+B...(.#.).H*.#
0450: 29 10 F0 FF FF 7F 02 48  2B 80 23 48 2C 80 23 05  )......H+.#H,.#.
0460: 01 10 01 69 04 48 2D 80  23 21 00                 ...i.H-.#!.     
```

#### Opcodes

```
  0: 0x032D [0x42] SET_CLI_EVENT_CANCEL_DATA()
  1: 0x032E [0x4A] LocalPlayer looks at Hazy Rune (ID: 17556036/0x010BE244)
  2: 0x0337 [0x03] ExtData[1]->WorkLocal[1] = Work_Zone[2]
  3: 0x033C [0x03] ExtData[1]->WorkLocal[2] = Work_Zone[5]
  4: 0x0341 [0x03] ExtData[1]->WorkLocal[3] = Work_Zone[4]
  5: 0x0346 [0x03] ExtData[1]->WorkLocal[4] = Work_Zone[3]
  6: 0x034B [0x03] ExtData[1]->WorkLocal[5] = Work_Zone[6]
  7: 0x0350 [0x06] ExtData[1]->WorkLocal[6] = 0
  8: 0x0353 [0x48] [System] [7236*]:
    → "The voice of a young woman rings in your head."
  9: 0x0356 [0x23] WAIT_FOR_DIALOG_INTERACTION
 10: 0x0357 [0x48] [System] [11399*]:
    → ""Rune cipher...tication...uired.""
 11: 0x035A [0x23] WAIT_FOR_DIALOG_INTERACTION
 12: 0x035B [0x02] IF !(ExtData[1]->WorkLocal[2] == 0*) GOTO 0x0366
 13: 0x0363 [0x01] GOTO 0x037A
 14: 0x0366 [0x03] Work_Zone[2] = ExtData[1]->WorkLocal[2]
 15: 0x036B [0x48] [System] [11400*]:
    → ""[./Ig.../Ge...s/...bra/Te/...por/U.../Lu.../...ebrae]...""
 16: 0x036E [0x23] WAIT_FOR_DIALOG_INTERACTION
 17: 0x036F [0x02] IF !(ExtData[1]->WorkLocal[2] == 2*) GOTO 0x037A
 18: 0x0377 [0x0B] ExtData[1]->WorkLocal[6]++

SUBROUTINE_037A:
 19: 0x037A [0x02] IF !(ExtData[1]->WorkLocal[3] == 0*) GOTO 0x0385
 20: 0x0382 [0x01] GOTO 0x0399
 21: 0x0385 [0x03] Work_Zone[2] = ExtData[1]->WorkLocal[3]
 22: 0x038A [0x48] [System] [11400*]:
    → ""[./Ig.../Ge...s/...bra/Te/...por/U.../Lu.../...ebrae]...""
 23: 0x038D [0x23] WAIT_FOR_DIALOG_INTERACTION
 24: 0x038E [0x02] IF !(ExtData[1]->WorkLocal[3] == 5*) GOTO 0x0399
 25: 0x0396 [0x0B] ExtData[1]->WorkLocal[6]++

SUBROUTINE_0399:
 26: 0x0399 [0x02] IF !(ExtData[1]->WorkLocal[4] == 0*) GOTO 0x03A4
 27: 0x03A1 [0x01] GOTO 0x03B8
 28: 0x03A4 [0x03] Work_Zone[2] = ExtData[1]->WorkLocal[4]
 29: 0x03A9 [0x48] [System] [11400*]:
    → ""[./Ig.../Ge...s/...bra/Te/...por/U.../Lu.../...ebrae]...""
 30: 0x03AC [0x23] WAIT_FOR_DIALOG_INTERACTION
 31: 0x03AD [0x02] IF !(ExtData[1]->WorkLocal[4] == 6*) GOTO 0x03B8
 32: 0x03B5 [0x0B] ExtData[1]->WorkLocal[6]++

SUBROUTINE_03B8:
 33: 0x03B8 [0x06] Work_Zone[1] = 0
 34: 0x03BB [0x02] IF !(ExtData[1]->WorkLocal[6] < 3*) GOTO 0x0465
 35: 0x03C3 [0x48] [System] [11402*]:
    → ""Auth......succ...ful.""
 36: 0x03C6 [0x23] WAIT_FOR_DIALOG_INTERACTION
 37: 0x03C7 [0x03] Work_Zone[4] = ExtData[1]->WorkLocal[1]
 38: 0x03CC [0x48] [System] [11403*]:
    → ""Pers...ector $2 crea...in Rune Containment Mode. Now boo...g.""
 39: 0x03CF [0x23] WAIT_FOR_DIALOG_INTERACTION
 40: 0x03D0 [0x48] [System] [11404*]:
    → ""B...comple... ...acce...Per...Sec...$2.""
 41: 0x03D3 [0x23] WAIT_FOR_DIALOG_INTERACTION
 42: 0x03D4 [0x48] [System] [11405*]:
    → ""He...<Player>.""
 43: 0x03D7 [0x23] WAIT_FOR_DIALOG_INTERACTION
 44: 0x03D8 [0x48] [System] [11406*]:
    → ""You h...1 unhe....message. Rela...eard mess...telepa...""
 45: 0x03DB [0x23] WAIT_FOR_DIALOG_INTERACTION
 46: 0x03DC [0x29] REQ_SET_WAIT(priority=0x10, entity_id=Unnamed NPC (ID: 17556033/0x010BE241), tag_num=0x09)
 47: 0x03E3 [0x29] REQ_SET_WAIT(priority=0x10, entity_id=LocalPlayer, tag_num=0x01)
 48: 0x03EA [0x2B] Unnamed NPC (ID: 17556033/0x010BE241) [11416*]:
    → "Once this plan is carried out, I would like to devote my time to studying the runes."
 49: 0x03F1 [0x23] WAIT_FOR_DIALOG_INTERACTION
 50: 0x03F2 [0x29] REQ_SET_WAIT(priority=0x10, entity_id=Unnamed NPC (ID: 17556034/0x010BE242), tag_num=0x09)
 51: 0x03F9 [0x2B] Unnamed NPC (ID: 17556034/0x010BE242) [11417*]:
    → "Come to think of it, this'll be the first time in a long time that we'll part ways."
 52: 0x0400 [0x23] WAIT_FOR_DIALOG_INTERACTION
 53: 0x0401 [0x2B] Unnamed NPC (ID: 17556033/0x010BE241) [11418*]:
    → "Before I leave for the barren north..."
 54: 0x0408 [0x23] WAIT_FOR_DIALOG_INTERACTION
 55: 0x0409 [0x2B] Unnamed NPC (ID: 17556034/0x010BE242) [11419*]:
    → "You'll do what before you leave?"
 56: 0x0410 [0x23] WAIT_FOR_DIALOG_INTERACTION
 57: 0x0411 [0x2B] Unnamed NPC (ID: 17556033/0x010BE241) [11420*]:
    → "Nothing...never mind. By the way, do you know why I asked to be posted here in the first place?"
 58: 0x0418 [0x23] WAIT_FOR_DIALOG_INTERACTION
 59: 0x0419 [0x2B] Unnamed NPC (ID: 17556034/0x010BE242) [11421*]:
    → "No, I don't."
 60: 0x0420 [0x23] WAIT_FOR_DIALOG_INTERACTION
 61: 0x0421 [0x2B] Unnamed NPC (ID: 17556033/0x010BE241) [11422*]:
    → "Well, once this is all over and I come home safe...that's one of the two things I need to tell you."
 62: 0x0428 [0x23] WAIT_FOR_DIALOG_INTERACTION
 63: 0x0429 [0x2B] Unnamed NPC (ID: 17556033/0x010BE241) [11423*]:
    → "Will you...will you wait for me?"
 64: 0x0430 [0x23] WAIT_FOR_DIALOG_INTERACTION
 65: 0x0431 [0x2B] Unnamed NPC (ID: 17556034/0x010BE242) [11424*]:
    → "...Yes, I will."
 66: 0x0438 [0x23] WAIT_FOR_DIALOG_INTERACTION
 67: 0x0439 [0x2B] Unnamed NPC (ID: 17556033/0x010BE241) [11425*]:
    → "Thank you."
 68: 0x0440 [0x23] WAIT_FOR_DIALOG_INTERACTION
 69: 0x0441 [0x2B] Unnamed NPC (ID: 17556034/0x010BE242) [11426*]:
    → "Just make sure you keep your promise and come b--"
 70: 0x0448 [0x23] WAIT_FOR_DIALOG_INTERACTION
 71: 0x0449 [0x1C] WAIT(90* ticks)
 72: 0x044C [0x48] [System] [11413*]:
    → "A cumbrous silence descends as the echoes of that mysterious internal voice fade away."
 73: 0x044F [0x23] WAIT_FOR_DIALOG_INTERACTION
 74: 0x0450 [0x29] REQ_SET_WAIT(priority=0x10, entity_id=LocalPlayer, tag_num=0x02)
 75: 0x0457 [0x48] [System] [11408*]:
    → ""Recor...rd messa...rune st...""
 76: 0x045A [0x23] WAIT_FOR_DIALOG_INTERACTION
 77: 0x045B [0x48] [System] [11409*]:
    → ""...inating Rune...ainment Mo...r succ......ording.""
 78: 0x045E [0x23] WAIT_FOR_DIALOG_INTERACTION
 79: 0x045F [0x05] Work_Zone[1] = 1
 80: 0x0462 [0x01] GOTO 0x0469
 81: 0x0465 [0x48] [System] [11401*]:
    → ""Unabl...res...error. Term...func...ty.""
 82: 0x0468 [0x23] WAIT_FOR_DIALOG_INTERACTION

SUBROUTINE_0469:
 83: 0x0469 [0x21] END_EVENT
 84: 0x046A [0x00] END_REQSTACK()
```
