# 17556017 - Rochefogne

## Common Data

| Field            | Value                          |
|------------------|--------------------------------|
| Zone             | King Ranperre's Tomb (ID: 190) |
| Block Size       | 1020 bytes                     |
| Total Events     | 50                             |
| References Count | 35                             |

## List of Events

| Event ID                   | Entrypoint   |   Size |   Instructions |
|----------------------------|--------------|--------|----------------|
| [65535](#event-65535)      | 0x0000       |      1 |              1 |
| [65535.1](#event-655351)   | 0x0001       |     16 |              2 |
| [65535.2](#event-655352)   | 0x0011       |     22 |              4 |
| [65535.3](#event-655353)   | 0x0027       |     16 |              2 |
| [65535.4](#event-655354)   | 0x0037       |     14 |              2 |
| [65535.5](#event-655355)   | 0x0045       |     16 |              2 |
| [65535.6](#event-655356)   | 0x0055       |     14 |              2 |
| [65535.7](#event-655357)   | 0x0063       |     16 |              2 |
| [65535.8](#event-655358)   | 0x0073       |     14 |              2 |
| [65535.9](#event-655359)   | 0x0081       |     16 |              2 |
| [65535.10](#event-6553510) | 0x0091       |     14 |              2 |
| [65535.11](#event-6553511) | 0x009F       |     16 |              2 |
| [65535.12](#event-6553512) | 0x00AF       |     14 |              2 |
| [65535.13](#event-6553513) | 0x00BD       |     16 |              2 |
| [65535.14](#event-6553514) | 0x00CD       |     14 |              2 |
| [65535.15](#event-6553515) | 0x00DB       |     16 |              2 |
| [65535.16](#event-6553516) | 0x00EB       |     14 |              2 |
| [65535.17](#event-6553517) | 0x00F9       |     16 |              2 |
| [65535.18](#event-6553518) | 0x0109       |     14 |              2 |
| [65535.19](#event-6553519) | 0x0117       |      9 |              3 |
| [65535.20](#event-6553520) | 0x0120       |     16 |              2 |
| [65535.21](#event-6553521) | 0x0130       |     14 |              2 |
| [65535.22](#event-6553522) | 0x013E       |     16 |              2 |
| [65535.23](#event-6553523) | 0x014E       |     14 |              2 |
| [65535.24](#event-6553524) | 0x015C       |     16 |              2 |
| [65535.25](#event-6553525) | 0x016C       |     14 |              2 |
| [65535.26](#event-6553526) | 0x017A       |     16 |              2 |
| [65535.27](#event-6553527) | 0x018A       |     10 |              2 |
| [65535.28](#event-6553528) | 0x0194       |     14 |              4 |
| [65535.29](#event-6553529) | 0x01A2       |     23 |              5 |
| [65535.30](#event-6553530) | 0x01B9       |     39 |              7 |
| [65535.31](#event-6553531) | 0x01E0       |     17 |              5 |
| [65535.32](#event-6553532) | 0x01F1       |     15 |              3 |
| [65535.33](#event-6553533) | 0x0200       |     27 |              3 |
| [65535.34](#event-6553534) | 0x021B       |     30 |              6 |
| [65535.35](#event-6553535) | 0x0239       |     15 |              3 |
| [4](#event-4)              | 0x0248       |      1 |              1 |
| [65535.36](#event-6553536) | 0x0249       |      5 |              3 |
| [65535.37](#event-6553537) | 0x024E       |      5 |              3 |
| [65535.38](#event-6553538) | 0x0253       |      5 |              3 |
| [65535.39](#event-6553539) | 0x0258       |      5 |              3 |
| [65535.40](#event-6553540) | 0x025D       |      5 |              3 |
| [65535.41](#event-6553541) | 0x0262       |      5 |              3 |
| [65535.42](#event-6553542) | 0x0267       |     17 |              5 |
| [65535.43](#event-6553543) | 0x0278       |      5 |              3 |
| [65535.44](#event-6553544) | 0x027D       |      5 |              3 |
| [65535.45](#event-6553545) | 0x0282       |      5 |              3 |
| [65535.46](#event-6553546) | 0x0287       |      5 |              3 |
| [65535.47](#event-6553547) | 0x028C       |      5 |              3 |
| [65535.48](#event-6553548) | 0x0291       |      5 |              3 |

## DAT References (imed_data)

|   Index | Hex Value   |   Dec Value |
|---------|-------------|-------------|
|       0 | 0x0014      |          20 |
|       1 | 0x001E      |          30 |
|       2 | 0x001D      |          29 |
|       3 | 0x0015      |          21 |
|       4 | 0xFFFFD454  |  4294956116 |
|       5 | 0xFFFEE21E  |  4294894110 |
|       6 | 0x00A8      |         168 |
|       7 | 0x000D      |          13 |
|       8 | 0xFFFFEFB1  |  4294963121 |
|       9 | 0xFFFEDC1B  |  4294892571 |
|      10 | 0x0048      |          72 |
|      11 | 0x03E8      |        1000 |
|      12 | 0xFFFEAC28  |  4294880296 |
|      13 | 0x0000      |           0 |
|      14 | 0x041F      |        1055 |
|      15 | 0xFFFE76A8  |  4294866600 |
|      16 | 0xFFFFFF07  |  4294967047 |
|      17 | 0x0398      |         920 |
|      18 | 0xFFFE721A  |  4294865434 |
|      19 | 0x0032      |          50 |
|      20 | 0x0672      |        1650 |
|      21 | 0xFFFEA1C6  |  4294877638 |
|      22 | 0x1C8A      |        7306 |
|      23 | 0x1C8B      |        7307 |
|      24 | 0x1C8C      |        7308 |
|      25 | 0x1C8D      |        7309 |
|      26 | 0x1C8E      |        7310 |
|      27 | 0x1C8F      |        7311 |
|      28 | 0x1C90      |        7312 |
|      29 | 0x1C91      |        7313 |
|      30 | 0x1C92      |        7314 |
|      31 | 0x1C93      |        7315 |
|      32 | 0x1C94      |        7316 |
|      33 | 0x1C95      |        7317 |
|      34 | 0x1C96      |        7318 |

## String References

- **7306**: Hm...
- **7307**: King Ranperre... It is I, Rochefogne. Does Your Majesty not remember me?
- **7308**: Often in youth did I hear stories of Your Majesty's glorious reign. I longed to grow into a man like the great Dragon King, Ranperre.
- **7309**: Try though I did, I have failed. I have lost everything, even the most sacred of possessions.
- **7310**: I...
- **7311**: Your Majesty, please tell me. Whence has the sword disappeared? Did you dismiss it?
- **7312**: Hmm...
- **7313**: Who is there!?
- **7314**: Who are you!? What are you doing there?
- **7315**: Just an adventurer, are you? In search of tomb-robbers?
- **7316**: Well...
- **7317**: Wait, we have met before! You decided to serve San d'Oria, and now you are in search of tomb-robbers?
- **7318**: Yes, of late many of the cairns are missing.

## Events

### Event 65535

#### Metadata

| Field        | Value   |
|--------------|---------|
| Entrypoint   | 0x0000  |
| Data Size    | 1 bytes |
| Instructions | 1       |

```
      00 01 02 03 04 05 06 07  08 09 0A 0B 0C 0D 0E 0F
      -- -- -- -- -- -- -- --  -- -- -- -- -- -- -- --
0000: 00                                                .               
```

#### Opcodes

```
  0: 0x0000 [0x00] END_REQSTACK()
```

### Event 65535.1

#### Metadata

| Field        | Value    |
|--------------|----------|
| Entrypoint   | 0x0001   |
| Data Size    | 16 bytes |
| Instructions | 2        |

```
      00 01 02 03 04 05 06 07  08 09 0A 0B 0C 0D 0E 0F
      -- -- -- -- -- -- -- --  -- -- -- -- -- -- -- --
0000:    66 00 80 F8 FF FF 7F  F8 FF FF 7F 74 6C 6B 30   f..........tlk0
0010: 00                                                .               
```

#### Opcodes

```
  0: 0x0001 [0x66] LOAD_EXT_SCHEDULER_MAIN: Load scheduler "tlk0" with entities [EventEntity, EventEntity], work=20*
  1: 0x0010 [0x00] END_REQSTACK()
```

### Event 65535.2

#### Metadata

| Field        | Value    |
|--------------|----------|
| Entrypoint   | 0x0011   |
| Data Size    | 22 bytes |
| Instructions | 4        |

```
      00 01 02 03 04 05 06 07  08 09 0A 0B 0C 0D 0E 0F
      -- -- -- -- -- -- -- --  -- -- -- -- -- -- -- --
0010:    53 F8 FF FF 7F F8 FF  FF 7F 74 6C 6B 30 5E 69   S........tlk0^i
0020: 64 6C 30 1C 01 80 00                              dl0....         
```

#### Opcodes

```
  0: 0x0011 [0x53] WAIT_SCHEDULER_TASK: Wait for scheduler "tlk0" with entities [EventEntity, EventEntity]
  1: 0x001E [0x5E] EventEntity goes idle (kills current action) (animation: "idl0")
  2: 0x0023 [0x1C] WAIT(30* ticks)
  3: 0x0026 [0x00] END_REQSTACK()
```

### Event 65535.3

#### Metadata

| Field        | Value    |
|--------------|----------|
| Entrypoint   | 0x0027   |
| Data Size    | 16 bytes |
| Instructions | 2        |

```
      00 01 02 03 04 05 06 07  08 09 0A 0B 0C 0D 0E 0F
      -- -- -- -- -- -- -- --  -- -- -- -- -- -- -- --
0020:                      66  02 80 F8 FF FF 7F F8 FF         f........
0030: FF 7F 74 68 6B 31 00                              ..thk1.         
```

#### Opcodes

```
  0: 0x0027 [0x66] LOAD_EXT_SCHEDULER_MAIN: Load scheduler "thk1" with entities [EventEntity, EventEntity], work=29*
  1: 0x0036 [0x00] END_REQSTACK()
```

### Event 65535.4

#### Metadata

| Field        | Value    |
|--------------|----------|
| Entrypoint   | 0x0037   |
| Data Size    | 14 bytes |
| Instructions | 2        |

```
      00 01 02 03 04 05 06 07  08 09 0A 0B 0C 0D 0E 0F
      -- -- -- -- -- -- -- --  -- -- -- -- -- -- -- --
0030:                      53  F8 FF FF 7F F8 FF FF 7F         S........
0040: 74 68 6B 31 00                                    thk1.           
```

#### Opcodes

```
  0: 0x0037 [0x53] WAIT_SCHEDULER_TASK: Wait for scheduler "thk1" with entities [EventEntity, EventEntity]
  1: 0x0044 [0x00] END_REQSTACK()
```

### Event 65535.5

#### Metadata

| Field        | Value    |
|--------------|----------|
| Entrypoint   | 0x0045   |
| Data Size    | 16 bytes |
| Instructions | 2        |

```
      00 01 02 03 04 05 06 07  08 09 0A 0B 0C 0D 0E 0F
      -- -- -- -- -- -- -- --  -- -- -- -- -- -- -- --
0040:                66 02 80  F8 FF FF 7F F8 FF FF 7F       f..........
0050: 74 68 6B 32 00                                    thk2.           
```

#### Opcodes

```
  0: 0x0045 [0x66] LOAD_EXT_SCHEDULER_MAIN: Load scheduler "thk2" with entities [EventEntity, EventEntity], work=29*
  1: 0x0054 [0x00] END_REQSTACK()
```

### Event 65535.6

#### Metadata

| Field        | Value    |
|--------------|----------|
| Entrypoint   | 0x0055   |
| Data Size    | 14 bytes |
| Instructions | 2        |

```
      00 01 02 03 04 05 06 07  08 09 0A 0B 0C 0D 0E 0F
      -- -- -- -- -- -- -- --  -- -- -- -- -- -- -- --
0050:                53 F8 FF  FF 7F F8 FF FF 7F 74 68       S........th
0060: 6B 32 00                                          k2.             
```

#### Opcodes

```
  0: 0x0055 [0x53] WAIT_SCHEDULER_TASK: Wait for scheduler "thk2" with entities [EventEntity, EventEntity]
  1: 0x0062 [0x00] END_REQSTACK()
```

### Event 65535.7

#### Metadata

| Field        | Value    |
|--------------|----------|
| Entrypoint   | 0x0063   |
| Data Size    | 16 bytes |
| Instructions | 2        |

```
      00 01 02 03 04 05 06 07  08 09 0A 0B 0C 0D 0E 0F
      -- -- -- -- -- -- -- --  -- -- -- -- -- -- -- --
0060:          66 00 80 F8 FF  FF 7F F8 FF FF 7F 70 61     f..........pa
0070: 73 30 00                                          s0.             
```

#### Opcodes

```
  0: 0x0063 [0x66] LOAD_EXT_SCHEDULER_MAIN: Load scheduler "pas0" with entities [EventEntity, EventEntity], work=20*
  1: 0x0072 [0x00] END_REQSTACK()
```

### Event 65535.8

#### Metadata

| Field        | Value    |
|--------------|----------|
| Entrypoint   | 0x0073   |
| Data Size    | 14 bytes |
| Instructions | 2        |

```
      00 01 02 03 04 05 06 07  08 09 0A 0B 0C 0D 0E 0F
      -- -- -- -- -- -- -- --  -- -- -- -- -- -- -- --
0070:          53 F8 FF FF 7F  F8 FF FF 7F 70 61 73 30     S........pas0
0080: 00                                                .               
```

#### Opcodes

```
  0: 0x0073 [0x53] WAIT_SCHEDULER_TASK: Wait for scheduler "pas0" with entities [EventEntity, EventEntity]
  1: 0x0080 [0x00] END_REQSTACK()
```

### Event 65535.9

#### Metadata

| Field        | Value    |
|--------------|----------|
| Entrypoint   | 0x0081   |
| Data Size    | 16 bytes |
| Instructions | 2        |

```
      00 01 02 03 04 05 06 07  08 09 0A 0B 0C 0D 0E 0F
      -- -- -- -- -- -- -- --  -- -- -- -- -- -- -- --
0080:    66 00 80 F8 FF FF 7F  F8 FF FF 7F 70 6F 69 31   f..........poi1
0090: 00                                                .               
```

#### Opcodes

```
  0: 0x0081 [0x66] LOAD_EXT_SCHEDULER_MAIN: Load scheduler "poi1" with entities [EventEntity, EventEntity], work=20*
  1: 0x0090 [0x00] END_REQSTACK()
```

### Event 65535.10

#### Metadata

| Field        | Value    |
|--------------|----------|
| Entrypoint   | 0x0091   |
| Data Size    | 14 bytes |
| Instructions | 2        |

```
      00 01 02 03 04 05 06 07  08 09 0A 0B 0C 0D 0E 0F
      -- -- -- -- -- -- -- --  -- -- -- -- -- -- -- --
0090:    53 F8 FF FF 7F F8 FF  FF 7F 70 6F 69 31 00      S........poi1. 
```

#### Opcodes

```
  0: 0x0091 [0x53] WAIT_SCHEDULER_TASK: Wait for scheduler "poi1" with entities [EventEntity, EventEntity]
  1: 0x009E [0x00] END_REQSTACK()
```

### Event 65535.11

#### Metadata

| Field        | Value    |
|--------------|----------|
| Entrypoint   | 0x009F   |
| Data Size    | 16 bytes |
| Instructions | 2        |

```
      00 01 02 03 04 05 06 07  08 09 0A 0B 0C 0D 0E 0F
      -- -- -- -- -- -- -- --  -- -- -- -- -- -- -- --
0090:                                               66                 f
00A0: 00 80 F8 FF FF 7F F8 FF  FF 7F 70 6F 69 32 00     ..........poi2. 
```

#### Opcodes

```
  0: 0x009F [0x66] LOAD_EXT_SCHEDULER_MAIN: Load scheduler "poi2" with entities [EventEntity, EventEntity], work=20*
  1: 0x00AE [0x00] END_REQSTACK()
```

### Event 65535.12

#### Metadata

| Field        | Value    |
|--------------|----------|
| Entrypoint   | 0x00AF   |
| Data Size    | 14 bytes |
| Instructions | 2        |

```
      00 01 02 03 04 05 06 07  08 09 0A 0B 0C 0D 0E 0F
      -- -- -- -- -- -- -- --  -- -- -- -- -- -- -- --
00A0:                                               53                 S
00B0: F8 FF FF 7F F8 FF FF 7F  70 6F 69 32 00           ........poi2.   
```

#### Opcodes

```
  0: 0x00AF [0x53] WAIT_SCHEDULER_TASK: Wait for scheduler "poi2" with entities [EventEntity, EventEntity]
  1: 0x00BC [0x00] END_REQSTACK()
```

### Event 65535.13

#### Metadata

| Field        | Value    |
|--------------|----------|
| Entrypoint   | 0x00BD   |
| Data Size    | 16 bytes |
| Instructions | 2        |

```
      00 01 02 03 04 05 06 07  08 09 0A 0B 0C 0D 0E 0F
      -- -- -- -- -- -- -- --  -- -- -- -- -- -- -- --
00B0:                                         66 03 80               f..
00C0: F8 FF FF 7F F8 FF FF 7F  70 6F 69 30 00           ........poi0.   
```

#### Opcodes

```
  0: 0x00BD [0x66] LOAD_EXT_SCHEDULER_MAIN: Load scheduler "poi0" with entities [EventEntity, EventEntity], work=21*
  1: 0x00CC [0x00] END_REQSTACK()
```

### Event 65535.14

#### Metadata

| Field        | Value    |
|--------------|----------|
| Entrypoint   | 0x00CD   |
| Data Size    | 14 bytes |
| Instructions | 2        |

```
      00 01 02 03 04 05 06 07  08 09 0A 0B 0C 0D 0E 0F
      -- -- -- -- -- -- -- --  -- -- -- -- -- -- -- --
00C0:                                         53 F8 FF               S..
00D0: FF 7F F8 FF FF 7F 70 6F  69 30 00                 ......poi0.     
```

#### Opcodes

```
  0: 0x00CD [0x53] WAIT_SCHEDULER_TASK: Wait for scheduler "poi0" with entities [EventEntity, EventEntity]
  1: 0x00DA [0x00] END_REQSTACK()
```

### Event 65535.15

#### Metadata

| Field        | Value    |
|--------------|----------|
| Entrypoint   | 0x00DB   |
| Data Size    | 16 bytes |
| Instructions | 2        |

```
      00 01 02 03 04 05 06 07  08 09 0A 0B 0C 0D 0E 0F
      -- -- -- -- -- -- -- --  -- -- -- -- -- -- -- --
00D0:                                   66 03 80 F8 FF             f....
00E0: FF 7F F8 FF FF 7F 70 6F  69 31 00                 ......poi1.     
```

#### Opcodes

```
  0: 0x00DB [0x66] LOAD_EXT_SCHEDULER_MAIN: Load scheduler "poi1" with entities [EventEntity, EventEntity], work=21*
  1: 0x00EA [0x00] END_REQSTACK()
```

### Event 65535.16

#### Metadata

| Field        | Value    |
|--------------|----------|
| Entrypoint   | 0x00EB   |
| Data Size    | 14 bytes |
| Instructions | 2        |

```
      00 01 02 03 04 05 06 07  08 09 0A 0B 0C 0D 0E 0F
      -- -- -- -- -- -- -- --  -- -- -- -- -- -- -- --
00E0:                                   53 F8 FF FF 7F             S....
00F0: F8 FF FF 7F 70 6F 69 31  00                       ....poi1.       
```

#### Opcodes

```
  0: 0x00EB [0x53] WAIT_SCHEDULER_TASK: Wait for scheduler "poi1" with entities [EventEntity, EventEntity]
  1: 0x00F8 [0x00] END_REQSTACK()
```

### Event 65535.17

#### Metadata

| Field        | Value    |
|--------------|----------|
| Entrypoint   | 0x00F9   |
| Data Size    | 16 bytes |
| Instructions | 2        |

```
      00 01 02 03 04 05 06 07  08 09 0A 0B 0C 0D 0E 0F
      -- -- -- -- -- -- -- --  -- -- -- -- -- -- -- --
00F0:                             66 03 80 F8 FF FF 7F           f......
0100: F8 FF FF 7F 64 69 73 30  00                       ....dis0.       
```

#### Opcodes

```
  0: 0x00F9 [0x66] LOAD_EXT_SCHEDULER_MAIN: Load scheduler "dis0" with entities [EventEntity, EventEntity], work=21*
  1: 0x0108 [0x00] END_REQSTACK()
```

### Event 65535.18

#### Metadata

| Field        | Value    |
|--------------|----------|
| Entrypoint   | 0x0109   |
| Data Size    | 14 bytes |
| Instructions | 2        |

```
      00 01 02 03 04 05 06 07  08 09 0A 0B 0C 0D 0E 0F
      -- -- -- -- -- -- -- --  -- -- -- -- -- -- -- --
0100:                             53 F8 FF FF 7F F8 FF           S......
0110: FF 7F 64 69 73 30 00                              ..dis0.         
```

#### Opcodes

```
  0: 0x0109 [0x53] WAIT_SCHEDULER_TASK: Wait for scheduler "dis0" with entities [EventEntity, EventEntity]
  1: 0x0116 [0x00] END_REQSTACK()
```

### Event 65535.19

#### Metadata

| Field        | Value   |
|--------------|---------|
| Entrypoint   | 0x0117  |
| Data Size    | 9 bytes |
| Instructions | 3       |

```
      00 01 02 03 04 05 06 07  08 09 0A 0B 0C 0D 0E 0F
      -- -- -- -- -- -- -- --  -- -- -- -- -- -- -- --
0110:                      5E  69 64 6C 30 1C 01 80 00         ^idl0....
```

#### Opcodes

```
  0: 0x0117 [0x5E] EventEntity goes idle (kills current action) (animation: "idl0")
  1: 0x011C [0x1C] WAIT(30* ticks)
  2: 0x011F [0x00] END_REQSTACK()
```

### Event 65535.20

#### Metadata

| Field        | Value    |
|--------------|----------|
| Entrypoint   | 0x0120   |
| Data Size    | 16 bytes |
| Instructions | 2        |

```
      00 01 02 03 04 05 06 07  08 09 0A 0B 0C 0D 0E 0F
      -- -- -- -- -- -- -- --  -- -- -- -- -- -- -- --
0120: 66 02 80 F8 FF FF 7F F8  FF FF 7F 73 68 61 30 00  f..........sha0.
```

#### Opcodes

```
  0: 0x0120 [0x66] LOAD_EXT_SCHEDULER_MAIN: Load scheduler "sha0" with entities [EventEntity, EventEntity], work=29*
  1: 0x012F [0x00] END_REQSTACK()
```

### Event 65535.21

#### Metadata

| Field        | Value    |
|--------------|----------|
| Entrypoint   | 0x0130   |
| Data Size    | 14 bytes |
| Instructions | 2        |

```
      00 01 02 03 04 05 06 07  08 09 0A 0B 0C 0D 0E 0F
      -- -- -- -- -- -- -- --  -- -- -- -- -- -- -- --
0130: 53 F8 FF FF 7F F8 FF FF  7F 73 68 61 30 00        S........sha0.  
```

#### Opcodes

```
  0: 0x0130 [0x53] WAIT_SCHEDULER_TASK: Wait for scheduler "sha0" with entities [EventEntity, EventEntity]
  1: 0x013D [0x00] END_REQSTACK()
```

### Event 65535.22

#### Metadata

| Field        | Value    |
|--------------|----------|
| Entrypoint   | 0x013E   |
| Data Size    | 16 bytes |
| Instructions | 2        |

```
      00 01 02 03 04 05 06 07  08 09 0A 0B 0C 0D 0E 0F
      -- -- -- -- -- -- -- --  -- -- -- -- -- -- -- --
0130:                                            66 02                f.
0140: 80 F8 FF FF 7F F8 FF FF  7F 73 68 61 31 00        .........sha1.  
```

#### Opcodes

```
  0: 0x013E [0x66] LOAD_EXT_SCHEDULER_MAIN: Load scheduler "sha1" with entities [EventEntity, EventEntity], work=29*
  1: 0x014D [0x00] END_REQSTACK()
```

### Event 65535.23

#### Metadata

| Field        | Value    |
|--------------|----------|
| Entrypoint   | 0x014E   |
| Data Size    | 14 bytes |
| Instructions | 2        |

```
      00 01 02 03 04 05 06 07  08 09 0A 0B 0C 0D 0E 0F
      -- -- -- -- -- -- -- --  -- -- -- -- -- -- -- --
0140:                                            53 F8                S.
0150: FF FF 7F F8 FF FF 7F 73  68 61 31 00              .......sha1.    
```

#### Opcodes

```
  0: 0x014E [0x53] WAIT_SCHEDULER_TASK: Wait for scheduler "sha1" with entities [EventEntity, EventEntity]
  1: 0x015B [0x00] END_REQSTACK()
```

### Event 65535.24

#### Metadata

| Field        | Value    |
|--------------|----------|
| Entrypoint   | 0x015C   |
| Data Size    | 16 bytes |
| Instructions | 2        |

```
      00 01 02 03 04 05 06 07  08 09 0A 0B 0C 0D 0E 0F
      -- -- -- -- -- -- -- --  -- -- -- -- -- -- -- --
0150:                                      66 02 80 F8              f...
0160: FF FF 7F F8 FF FF 7F 73  69 72 30 00              .......sir0.    
```

#### Opcodes

```
  0: 0x015C [0x66] LOAD_EXT_SCHEDULER_MAIN: Load scheduler "sir0" with entities [EventEntity, EventEntity], work=29*
  1: 0x016B [0x00] END_REQSTACK()
```

### Event 65535.25

#### Metadata

| Field        | Value    |
|--------------|----------|
| Entrypoint   | 0x016C   |
| Data Size    | 14 bytes |
| Instructions | 2        |

```
      00 01 02 03 04 05 06 07  08 09 0A 0B 0C 0D 0E 0F
      -- -- -- -- -- -- -- --  -- -- -- -- -- -- -- --
0160:                                      53 F8 FF FF              S...
0170: 7F F8 FF FF 7F 73 69 72  30 00                    .....sir0.      
```

#### Opcodes

```
  0: 0x016C [0x53] WAIT_SCHEDULER_TASK: Wait for scheduler "sir0" with entities [EventEntity, EventEntity]
  1: 0x0179 [0x00] END_REQSTACK()
```

### Event 65535.26

#### Metadata

| Field        | Value    |
|--------------|----------|
| Entrypoint   | 0x017A   |
| Data Size    | 16 bytes |
| Instructions | 2        |

```
      00 01 02 03 04 05 06 07  08 09 0A 0B 0C 0D 0E 0F
      -- -- -- -- -- -- -- --  -- -- -- -- -- -- -- --
0170:                                66 02 80 F8 FF FF            f.....
0180: 7F F8 FF FF 7F 73 69 72  31 00                    .....sir1.      
```

#### Opcodes

```
  0: 0x017A [0x66] LOAD_EXT_SCHEDULER_MAIN: Load scheduler "sir1" with entities [EventEntity, EventEntity], work=29*
  1: 0x0189 [0x00] END_REQSTACK()
```

### Event 65535.27

#### Metadata

| Field        | Value    |
|--------------|----------|
| Entrypoint   | 0x018A   |
| Data Size    | 10 bytes |
| Instructions | 2        |

```
      00 01 02 03 04 05 06 07  08 09 0A 0B 0C 0D 0E 0F
      -- -- -- -- -- -- -- --  -- -- -- -- -- -- -- --
0180:                                37 04 80 05 80 00            7.....
0190: 80 06 80 00                                       ....            
```

#### Opcodes

```
  0: 0x018A [0x37] UPDATE_EVENT_POSITION_AND_DIR: x=-11.180*, z=-73.186*, y=0.020*, direction=14.8°*
  1: 0x0193 [0x00] END_REQSTACK()
```

### Event 65535.28

#### Metadata

| Field        | Value    |
|--------------|----------|
| Entrypoint   | 0x0194   |
| Data Size    | 14 bytes |
| Instructions | 4        |

```
      00 01 02 03 04 05 06 07  08 09 0A 0B 0C 0D 0E 0F
      -- -- -- -- -- -- -- --  -- -- -- -- -- -- -- --
0190:             32 07 80 1F  00 08 80 09 80 0A 80 1F      2...........
01A0: 01 00                                             ..              
```

#### Opcodes

```
  0: 0x0194 [0x32] ExtData[1]->MainSpeed = 13* * 0.1
  1: 0x0197 [0x1F] MOVE_ENTITY: EventEntity moves to X=-4.175*, Z=-74.725*, Y=0.072*
  2: 0x019F [0x1F] MOVE_ENTITY: Update entity position (mode=1)
  3: 0x01A1 [0x00] END_REQSTACK()
```

### Event 65535.29

#### Metadata

| Field        | Value    |
|--------------|----------|
| Entrypoint   | 0x01A2   |
| Data Size    | 23 bytes |
| Instructions | 5        |

```
      00 01 02 03 04 05 06 07  08 09 0A 0B 0C 0D 0E 0F
      -- -- -- -- -- -- -- --  -- -- -- -- -- -- -- --
01A0:       37 0B 80 0C 80 0D  80 0E 80 32 07 80 1F 00    7........2....
01B0: 0B 80 0F 80 10 80 1F 01  00                       .........       
```

#### Opcodes

```
  0: 0x01A2 [0x37] UPDATE_EVENT_POSITION_AND_DIR: x=1.000*, z=-87.000*, y=0.000*, direction=92.7°*
  1: 0x01AB [0x32] ExtData[1]->MainSpeed = 13* * 0.1
  2: 0x01AE [0x1F] MOVE_ENTITY: EventEntity moves to X=1.000*, Z=-100.696*, Y=-0.249*
  3: 0x01B6 [0x1F] MOVE_ENTITY: Update entity position (mode=1)
  4: 0x01B8 [0x00] END_REQSTACK()
```

### Event 65535.30

#### Metadata

| Field        | Value    |
|--------------|----------|
| Entrypoint   | 0x01B9   |
| Data Size    | 39 bytes |
| Instructions | 7        |

```
      00 01 02 03 04 05 06 07  08 09 0A 0B 0C 0D 0E 0F
      -- -- -- -- -- -- -- --  -- -- -- -- -- -- -- --
01B0:                             1F 00 11 80 12 80 10           .......
01C0: 80 1F 01 29 08 31 E2 0B  01 14 29 08 31 E2 0B 01  ...).1....).1...
01D0: 15 29 08 31 E2 0B 01 18  29 08 31 E2 0B 01 19 00  .).1....).1.....
```

#### Opcodes

```
  0: 0x01B9 [0x1F] MOVE_ENTITY: EventEntity moves to X=0.920*, Z=-101.862*, Y=-0.249*
  1: 0x01C1 [0x1F] MOVE_ENTITY: Update entity position (mode=1)
  2: 0x01C3 [0x29] REQ_SET_WAIT(priority=0x08, entity_id=Rochefogne (ID: 17556017/0x010BE231), tag_num=0x14)
  3: 0x01CA [0x29] REQ_SET_WAIT(priority=0x08, entity_id=Rochefogne (ID: 17556017/0x010BE231), tag_num=0x15)
  4: 0x01D1 [0x29] REQ_SET_WAIT(priority=0x08, entity_id=Rochefogne (ID: 17556017/0x010BE231), tag_num=0x18)
  5: 0x01D8 [0x29] REQ_SET_WAIT(priority=0x08, entity_id=Rochefogne (ID: 17556017/0x010BE231), tag_num=0x19)
  6: 0x01DF [0x00] END_REQSTACK()
```

### Event 65535.31

#### Metadata

| Field        | Value    |
|--------------|----------|
| Entrypoint   | 0x01E0   |
| Data Size    | 17 bytes |
| Instructions | 5        |

```
      00 01 02 03 04 05 06 07  08 09 0A 0B 0C 0D 0E 0F
      -- -- -- -- -- -- -- --  -- -- -- -- -- -- -- --
01E0: 1C 13 80 32 07 80 1F 00  14 80 15 80 0D 80 1F 01  ...2............
01F0: 00                                                .               
```

#### Opcodes

```
  0: 0x01E0 [0x1C] WAIT(50* ticks)
  1: 0x01E3 [0x32] ExtData[1]->MainSpeed = 13* * 0.1
  2: 0x01E6 [0x1F] MOVE_ENTITY: EventEntity moves to X=1.650*, Z=-89.658*, Y=0.000*
  3: 0x01EE [0x1F] MOVE_ENTITY: Update entity position (mode=1)
  4: 0x01F0 [0x00] END_REQSTACK()
```

### Event 65535.32

#### Metadata

| Field        | Value    |
|--------------|----------|
| Entrypoint   | 0x01F1   |
| Data Size    | 15 bytes |
| Instructions | 3        |

```
      00 01 02 03 04 05 06 07  08 09 0A 0B 0C 0D 0E 0F
      -- -- -- -- -- -- -- --  -- -- -- -- -- -- -- --
01F0:    29 08 31 E2 0B 01 14  29 08 31 E2 0B 01 15 00   ).1....).1.....
```

#### Opcodes

```
  0: 0x01F1 [0x29] REQ_SET_WAIT(priority=0x08, entity_id=Rochefogne (ID: 17556017/0x010BE231), tag_num=0x14)
  1: 0x01F8 [0x29] REQ_SET_WAIT(priority=0x08, entity_id=Rochefogne (ID: 17556017/0x010BE231), tag_num=0x15)
  2: 0x01FF [0x00] END_REQSTACK()
```

### Event 65535.33

#### Metadata

| Field        | Value    |
|--------------|----------|
| Entrypoint   | 0x0200   |
| Data Size    | 27 bytes |
| Instructions | 3        |

```
      00 01 02 03 04 05 06 07  08 09 0A 0B 0C 0D 0E 0F
      -- -- -- -- -- -- -- --  -- -- -- -- -- -- -- --
0200: 2C 31 E2 0B 01 31 E2 0B  01 72 65 73 31 53 F8 FF  ,1...1...res1S..
0210: FF 7F F8 FF FF 7F 72 65  73 31 00                 ......res1.     
```

#### Opcodes

```
  0: 0x0200 [0x2C] CREATE_SCHEDULER_TASK: Create scheduler "res1" with entities [Rochefogne (ID: 17556017/0x010BE231), Rochefogne (ID: 17556017/0x010BE231)]
  1: 0x020D [0x53] WAIT_SCHEDULER_TASK: Wait for scheduler "res1" with entities [EventEntity, EventEntity]
  2: 0x021A [0x00] END_REQSTACK()
```

### Event 65535.34

#### Metadata

| Field        | Value    |
|--------------|----------|
| Entrypoint   | 0x021B   |
| Data Size    | 30 bytes |
| Instructions | 6        |

```
      00 01 02 03 04 05 06 07  08 09 0A 0B 0C 0D 0E 0F
      -- -- -- -- -- -- -- --  -- -- -- -- -- -- -- --
0210:                                   29 08 31 E2 0B             ).1..
0220: 01 16 29 08 31 E2 0B 01  17 4A 31 E2 0B 01 32 E2  ..).1....J1...2.
0230: 0B 01 6F 76 31 E2 0B 01  00                       ..ov1....       
```

#### Opcodes

```
  0: 0x021B [0x29] REQ_SET_WAIT(priority=0x08, entity_id=Rochefogne (ID: 17556017/0x010BE231), tag_num=0x16)
  1: 0x0222 [0x29] REQ_SET_WAIT(priority=0x08, entity_id=Rochefogne (ID: 17556017/0x010BE231), tag_num=0x17)
  2: 0x0229 [0x4A] Rochefogne (ID: 17556017/0x010BE231) looks at Vauderame (ID: 17556018/0x010BE232)
  3: 0x0232 [0x6F] WAIT_FRAME_DELAY: Yield until WaitTime reaches zero
  4: 0x0233 [0x76] CHECK_ENTITY_RENDER_FLAGS: Wait until Rochefogne (ID: 17556017/0x010BE231) Render.Flags0 and Render.Flags3 conditions are met
  5: 0x0238 [0x00] END_REQSTACK()
```

### Event 65535.35

#### Metadata

| Field        | Value    |
|--------------|----------|
| Entrypoint   | 0x0239   |
| Data Size    | 15 bytes |
| Instructions | 3        |

```
      00 01 02 03 04 05 06 07  08 09 0A 0B 0C 0D 0E 0F
      -- -- -- -- -- -- -- --  -- -- -- -- -- -- -- --
0230:                             29 08 31 E2 0B 01 16           ).1....
0240: 29 08 31 E2 0B 01 17 00                           ).1.....        
```

#### Opcodes

```
  0: 0x0239 [0x29] REQ_SET_WAIT(priority=0x08, entity_id=Rochefogne (ID: 17556017/0x010BE231), tag_num=0x16)
  1: 0x0240 [0x29] REQ_SET_WAIT(priority=0x08, entity_id=Rochefogne (ID: 17556017/0x010BE231), tag_num=0x17)
  2: 0x0247 [0x00] END_REQSTACK()
```

### Event 4

#### Metadata

| Field        | Value   |
|--------------|---------|
| Entrypoint   | 0x0248  |
| Data Size    | 1 bytes |
| Instructions | 1       |

```
      00 01 02 03 04 05 06 07  08 09 0A 0B 0C 0D 0E 0F
      -- -- -- -- -- -- -- --  -- -- -- -- -- -- -- --
0240:                          00                               .       
```

#### Opcodes

```
  0: 0x0248 [0x00] END_REQSTACK()
```

### Event 65535.36

#### Metadata

| Field        | Value   |
|--------------|---------|
| Entrypoint   | 0x0249  |
| Data Size    | 5 bytes |
| Instructions | 3       |

```
      00 01 02 03 04 05 06 07  08 09 0A 0B 0C 0D 0E 0F
      -- -- -- -- -- -- -- --  -- -- -- -- -- -- -- --
0240:                             1D 16 80 23 00                 ...#.  
```

#### Opcodes

```
  0: 0x0249 [0x1D] PRINT_EVENT_MESSAGE(message_id=7306*)
    → "Hm..."
  1: 0x024C [0x23] WAIT_FOR_DIALOG_INTERACTION
  2: 0x024D [0x00] END_REQSTACK()
```

### Event 65535.37

#### Metadata

| Field        | Value   |
|--------------|---------|
| Entrypoint   | 0x024E  |
| Data Size    | 5 bytes |
| Instructions | 3       |

```
      00 01 02 03 04 05 06 07  08 09 0A 0B 0C 0D 0E 0F
      -- -- -- -- -- -- -- --  -- -- -- -- -- -- -- --
0240:                                            1D 17                ..
0250: 80 23 00                                          .#.             
```

#### Opcodes

```
  0: 0x024E [0x1D] PRINT_EVENT_MESSAGE(message_id=7307*)
    → "King Ranperre... It is I, Rochefogne. Does Your Majesty not remember me?"
  1: 0x0251 [0x23] WAIT_FOR_DIALOG_INTERACTION
  2: 0x0252 [0x00] END_REQSTACK()
```

### Event 65535.38

#### Metadata

| Field        | Value   |
|--------------|---------|
| Entrypoint   | 0x0253  |
| Data Size    | 5 bytes |
| Instructions | 3       |

```
      00 01 02 03 04 05 06 07  08 09 0A 0B 0C 0D 0E 0F
      -- -- -- -- -- -- -- --  -- -- -- -- -- -- -- --
0250:          1D 18 80 23 00                              ...#.        
```

#### Opcodes

```
  0: 0x0253 [0x1D] PRINT_EVENT_MESSAGE(message_id=7308*)
    → "Often in youth did I hear stories of Your Majesty's glorious reign. I longed to grow into a man like the great Dragon King, Ranperre."
  1: 0x0256 [0x23] WAIT_FOR_DIALOG_INTERACTION
  2: 0x0257 [0x00] END_REQSTACK()
```

### Event 65535.39

#### Metadata

| Field        | Value   |
|--------------|---------|
| Entrypoint   | 0x0258  |
| Data Size    | 5 bytes |
| Instructions | 3       |

```
      00 01 02 03 04 05 06 07  08 09 0A 0B 0C 0D 0E 0F
      -- -- -- -- -- -- -- --  -- -- -- -- -- -- -- --
0250:                          1D 19 80 23 00                   ...#.   
```

#### Opcodes

```
  0: 0x0258 [0x1D] PRINT_EVENT_MESSAGE(message_id=7309*)
    → "Try though I did, I have failed. I have lost everything, even the most sacred of possessions."
  1: 0x025B [0x23] WAIT_FOR_DIALOG_INTERACTION
  2: 0x025C [0x00] END_REQSTACK()
```

### Event 65535.40

#### Metadata

| Field        | Value   |
|--------------|---------|
| Entrypoint   | 0x025D  |
| Data Size    | 5 bytes |
| Instructions | 3       |

```
      00 01 02 03 04 05 06 07  08 09 0A 0B 0C 0D 0E 0F
      -- -- -- -- -- -- -- --  -- -- -- -- -- -- -- --
0250:                                         1D 1A 80               ...
0260: 23 00                                             #.              
```

#### Opcodes

```
  0: 0x025D [0x1D] PRINT_EVENT_MESSAGE(message_id=7310*)
    → "I..."
  1: 0x0260 [0x23] WAIT_FOR_DIALOG_INTERACTION
  2: 0x0261 [0x00] END_REQSTACK()
```

### Event 65535.41

#### Metadata

| Field        | Value   |
|--------------|---------|
| Entrypoint   | 0x0262  |
| Data Size    | 5 bytes |
| Instructions | 3       |

```
      00 01 02 03 04 05 06 07  08 09 0A 0B 0C 0D 0E 0F
      -- -- -- -- -- -- -- --  -- -- -- -- -- -- -- --
0260:       1D 1B 80 23 00                                ...#.         
```

#### Opcodes

```
  0: 0x0262 [0x1D] PRINT_EVENT_MESSAGE(message_id=7311*)
    → "Your Majesty, please tell me. Whence has the sword disappeared? Did you dismiss it?"
  1: 0x0265 [0x23] WAIT_FOR_DIALOG_INTERACTION
  2: 0x0266 [0x00] END_REQSTACK()
```

### Event 65535.42

#### Metadata

| Field        | Value    |
|--------------|----------|
| Entrypoint   | 0x0267   |
| Data Size    | 17 bytes |
| Instructions | 5        |

```
      00 01 02 03 04 05 06 07  08 09 0A 0B 0C 0D 0E 0F
      -- -- -- -- -- -- -- --  -- -- -- -- -- -- -- --
0260:                      7C  00 F8 FF FF 7F 1D 1C 80         |........
0270: 23 7C 01 F8 FF FF 7F 00                           #|......        
```

#### Opcodes

```
  0: 0x0267 [0x7C] EventEntity->Render.Flags2 |= 0x00
  1: 0x026D [0x1D] PRINT_EVENT_MESSAGE(message_id=7312*)
    → "Hmm..."
  2: 0x0270 [0x23] WAIT_FOR_DIALOG_INTERACTION
  3: 0x0271 [0x7C] EventEntity->Render.Flags2 |= 0x01
  4: 0x0277 [0x00] END_REQSTACK()
```

### Event 65535.43

#### Metadata

| Field        | Value   |
|--------------|---------|
| Entrypoint   | 0x0278  |
| Data Size    | 5 bytes |
| Instructions | 3       |

```
      00 01 02 03 04 05 06 07  08 09 0A 0B 0C 0D 0E 0F
      -- -- -- -- -- -- -- --  -- -- -- -- -- -- -- --
0270:                          1D 1D 80 23 00                   ...#.   
```

#### Opcodes

```
  0: 0x0278 [0x1D] PRINT_EVENT_MESSAGE(message_id=7313*)
    → "Who is there!?"
  1: 0x027B [0x23] WAIT_FOR_DIALOG_INTERACTION
  2: 0x027C [0x00] END_REQSTACK()
```

### Event 65535.44

#### Metadata

| Field        | Value   |
|--------------|---------|
| Entrypoint   | 0x027D  |
| Data Size    | 5 bytes |
| Instructions | 3       |

```
      00 01 02 03 04 05 06 07  08 09 0A 0B 0C 0D 0E 0F
      -- -- -- -- -- -- -- --  -- -- -- -- -- -- -- --
0270:                                         1D 1E 80               ...
0280: 23 00                                             #.              
```

#### Opcodes

```
  0: 0x027D [0x1D] PRINT_EVENT_MESSAGE(message_id=7314*)
    → "Who are you!? What are you doing there?"
  1: 0x0280 [0x23] WAIT_FOR_DIALOG_INTERACTION
  2: 0x0281 [0x00] END_REQSTACK()
```

### Event 65535.45

#### Metadata

| Field        | Value   |
|--------------|---------|
| Entrypoint   | 0x0282  |
| Data Size    | 5 bytes |
| Instructions | 3       |

```
      00 01 02 03 04 05 06 07  08 09 0A 0B 0C 0D 0E 0F
      -- -- -- -- -- -- -- --  -- -- -- -- -- -- -- --
0280:       1D 1F 80 23 00                                ...#.         
```

#### Opcodes

```
  0: 0x0282 [0x1D] PRINT_EVENT_MESSAGE(message_id=7315*)
    → "Just an adventurer, are you? In search of tomb-robbers?"
  1: 0x0285 [0x23] WAIT_FOR_DIALOG_INTERACTION
  2: 0x0286 [0x00] END_REQSTACK()
```

### Event 65535.46

#### Metadata

| Field        | Value   |
|--------------|---------|
| Entrypoint   | 0x0287  |
| Data Size    | 5 bytes |
| Instructions | 3       |

```
      00 01 02 03 04 05 06 07  08 09 0A 0B 0C 0D 0E 0F
      -- -- -- -- -- -- -- --  -- -- -- -- -- -- -- --
0280:                      1D  20 80 23 00                     . .#.    
```

#### Opcodes

```
  0: 0x0287 [0x1D] PRINT_EVENT_MESSAGE(message_id=7316*)
    → "Well..."
  1: 0x028A [0x23] WAIT_FOR_DIALOG_INTERACTION
  2: 0x028B [0x00] END_REQSTACK()
```

### Event 65535.47

#### Metadata

| Field        | Value   |
|--------------|---------|
| Entrypoint   | 0x028C  |
| Data Size    | 5 bytes |
| Instructions | 3       |

```
      00 01 02 03 04 05 06 07  08 09 0A 0B 0C 0D 0E 0F
      -- -- -- -- -- -- -- --  -- -- -- -- -- -- -- --
0280:                                      1D 21 80 23              .!.#
0290: 00                                                .               
```

#### Opcodes

```
  0: 0x028C [0x1D] PRINT_EVENT_MESSAGE(message_id=7317*)
    → "Wait, we have met before! You decided to serve San d'Oria, and now you are in search of tomb-robbers?"
  1: 0x028F [0x23] WAIT_FOR_DIALOG_INTERACTION
  2: 0x0290 [0x00] END_REQSTACK()
```

### Event 65535.48

#### Metadata

| Field        | Value   |
|--------------|---------|
| Entrypoint   | 0x0291  |
| Data Size    | 5 bytes |
| Instructions | 3       |

```
      00 01 02 03 04 05 06 07  08 09 0A 0B 0C 0D 0E 0F
      -- -- -- -- -- -- -- --  -- -- -- -- -- -- -- --
0290:    1D 22 80 23 00                                  .".#.          
```

#### Opcodes

```
  0: 0x0291 [0x1D] PRINT_EVENT_MESSAGE(message_id=7318*)
    → "Yes, of late many of the cairns are missing."
  1: 0x0294 [0x23] WAIT_FOR_DIALOG_INTERACTION
  2: 0x0295 [0x00] END_REQSTACK()
```
