# 17556002

## Common Data

| Field            | Value                          |
|------------------|--------------------------------|
| Zone             | King Ranperre's Tomb (ID: 190) |
| Block Size       | 236 bytes                      |
| Total Events     | 5                              |
| References Count | 12                             |

## List of Events

| Event ID                 | Entrypoint   |   Size |   Instructions |
|--------------------------|--------------|--------|----------------|
| [65535](#event-65535)    | 0x0000       |      1 |              1 |
| [5](#event-5)            | 0x0001       |     10 |              2 |
| [65535.1](#event-655351) | 0x000B       |     14 |              4 |
| [65535.2](#event-655352) | 0x0019       |     32 |              4 |
| [65535.3](#event-655353) | 0x0039       |     95 |             10 |

## DAT References (imed_data)

|   Index | Hex Value   |   Dec Value |
|---------|-------------|-------------|
|       0 | 0xFFFF49D6  |  4294920662 |
|       1 | 0x4E56      |       20054 |
|       2 | 0x222D      |        8749 |
|       3 | 0x0800      |        2048 |
|       4 | 0x000D      |          13 |
|       5 | 0xFFFF4632  |  4294919730 |
|       6 | 0x000C      |          12 |
|       7 | 0x005A      |          90 |
|       8 | 0x001E      |          30 |
|       9 | 0x00D1      |         209 |
|      10 | 0x0000      |           0 |
|      11 | 0x00D2      |         210 |

## Events

### Event 65535

#### Metadata

| Field        | Value   |
|--------------|---------|
| Entrypoint   | 0x0000  |
| Data Size    | 1 bytes |
| Instructions | 1       |

```
      00 01 02 03 04 05 06 07  08 09 0A 0B 0C 0D 0E 0F
      -- -- -- -- -- -- -- --  -- -- -- -- -- -- -- --
0000: 00                                                .               
```

#### Opcodes

```
  0: 0x0000 [0x00] END_REQSTACK()
```

### Event 5

#### Metadata

| Field        | Value    |
|--------------|----------|
| Entrypoint   | 0x0001   |
| Data Size    | 10 bytes |
| Instructions | 2        |

```
      00 01 02 03 04 05 06 07  08 09 0A 0B 0C 0D 0E 0F
      -- -- -- -- -- -- -- --  -- -- -- -- -- -- -- --
0000:    37 00 80 01 80 02 80  03 80 00                  7.........     
```

#### Opcodes

```
  0: 0x0001 [0x37] UPDATE_EVENT_POSITION_AND_DIR: x=-46.634*, z=20.054*, y=8.749*, direction=180.0°*
  1: 0x000A [0x00] END_REQSTACK()
```

### Event 65535.1

#### Metadata

| Field        | Value    |
|--------------|----------|
| Entrypoint   | 0x000B   |
| Data Size    | 14 bytes |
| Instructions | 4        |

```
      00 01 02 03 04 05 06 07  08 09 0A 0B 0C 0D 0E 0F
      -- -- -- -- -- -- -- --  -- -- -- -- -- -- -- --
0000:                                   32 04 80 1F 00             2....
0010: 05 80 01 80 02 80 1F 01  00                       .........       
```

#### Opcodes

```
  0: 0x000B [0x32] ExtData[1]->MainSpeed = 13* * 0.1
  1: 0x000E [0x1F] MOVE_ENTITY: EventEntity moves to X=-47.566*, Z=20.054*, Y=8.749*
  2: 0x0016 [0x1F] MOVE_ENTITY: Update entity position (mode=1)
  3: 0x0018 [0x00] END_REQSTACK()
```

### Event 65535.2

#### Metadata

| Field        | Value    |
|--------------|----------|
| Entrypoint   | 0x0019   |
| Data Size    | 32 bytes |
| Instructions | 4        |

```
      00 01 02 03 04 05 06 07  08 09 0A 0B 0C 0D 0E 0F
      -- -- -- -- -- -- -- --  -- -- -- -- -- -- -- --
0010:                             5B 06 80 F8 FF FF 7F           [......
0020: F8 FF FF 7F 74 6C 6B 30  1C 07 80 53 F8 FF FF 7F  ....tlk0...S....
0030: F8 FF FF 7F 74 6C 6B 30  00                       ....tlk0.       
```

#### Opcodes

```
  0: 0x0019 [0x5B] LOAD_EXT_SCHEDULER: Load scheduler "tlk0" with entities [EventEntity, EventEntity], work=12*
  1: 0x0028 [0x1C] WAIT(90* ticks)
  2: 0x002B [0x53] WAIT_SCHEDULER_TASK: Wait for scheduler "tlk0" with entities [EventEntity, EventEntity]
  3: 0x0038 [0x00] END_REQSTACK()
```

### Event 65535.3

#### Metadata

| Field        | Value    |
|--------------|----------|
| Entrypoint   | 0x0039   |
| Data Size    | 95 bytes |
| Instructions | 10       |

```
      00 01 02 03 04 05 06 07  08 09 0A 0B 0C 0D 0E 0F
      -- -- -- -- -- -- -- --  -- -- -- -- -- -- -- --
0030:                             5B 06 80 F8 FF FF 7F           [......
0040: F8 FF FF 7F 73 63 6B 30  1C 08 80 45 09 80 F0 FF  ....sck0...E....
0050: FF 7F F0 FF FF 7F 7A 30  31 30 0A 80 1C 08 80 45  ......z010.....E
0060: 0B 80 F0 FF FF 7F F0 FF  FF 7F 68 69 64 65 0A 80  ..........hide..
0070: 6C F8 FF FF 7F 0A 80 07  80 53 F8 FF FF 7F F8 FF  l........S......
0080: FF 7F 73 63 6B 30 55 09  80 F0 FF FF 7F F0 FF FF  ..sck0U.........
0090: 7F 7A 30 31 30 22 01 00                           .z010"..        
```

#### Opcodes

```
  0: 0x0039 [0x5B] LOAD_EXT_SCHEDULER: Load scheduler "sck0" with entities [EventEntity, EventEntity], work=12*
  1: 0x0048 [0x1C] WAIT(30* ticks)
  2: 0x004B [0x45] LOAD_SCHEDULED_TASK: Load scheduler "z010" with entities [LocalPlayer, LocalPlayer], work=[209*, 0*]
  3: 0x005C [0x1C] WAIT(30* ticks)
  4: 0x005F [0x45] LOAD_SCHEDULED_TASK: Load scheduler "hide" with entities [LocalPlayer, LocalPlayer], work=[210*, 0*]
  5: 0x0070 [0x6C] FADE_ENTITY_COLOR(entity_id=EventEntity, end_alpha=0*, fade_time=90*)
  6: 0x0079 [0x53] WAIT_SCHEDULER_TASK: Wait for scheduler "sck0" with entities [EventEntity, EventEntity]
  7: 0x0086 [0x55] WAIT_LOAD_SCHEDULER: Wait for scheduler "z010" with entities [LocalPlayer, LocalPlayer], work=209*
  8: 0x0095 [0x22] ENTITY_HIDE_FLAG(enabled=0x01)
  9: 0x0097 [0x00] END_REQSTACK()
```
